{
	"Evm/core/base/vault.sol": {
		"QiaraMultiAssetVault": {
			"abi": [
				{
					"inputs": [
						{
							"internalType": "address",
							"name": "_events",
							"type": "address"
						},
						{
							"internalType": "address",
							"name": "_variablesRegistry",
							"type": "address"
						},
						{
							"internalType": "address",
							"name": "_delegator",
							"type": "address"
						},
						{
							"internalType": "string",
							"name": "_providerName",
							"type": "string"
						}
					],
					"stateMutability": "nonpayable",
					"type": "constructor"
				},
				{
					"inputs": [
						{
							"internalType": "address",
							"name": "owner",
							"type": "address"
						}
					],
					"name": "OwnableInvalidOwner",
					"type": "error"
				},
				{
					"inputs": [
						{
							"internalType": "address",
							"name": "account",
							"type": "address"
						}
					],
					"name": "OwnableUnauthorizedAccount",
					"type": "error"
				},
				{
					"inputs": [
						{
							"internalType": "address",
							"name": "token",
							"type": "address"
						}
					],
					"name": "SafeERC20FailedOperation",
					"type": "error"
				},
				{
					"anonymous": false,
					"inputs": [
						{
							"indexed": true,
							"internalType": "address",
							"name": "user",
							"type": "address"
						},
						{
							"indexed": true,
							"internalType": "address",
							"name": "token",
							"type": "address"
						},
						{
							"indexed": false,
							"internalType": "uint256",
							"name": "amount",
							"type": "uint256"
						},
						{
							"indexed": false,
							"internalType": "string",
							"name": "provider",
							"type": "string"
						}
					],
					"name": "Deposit",
					"type": "event"
				},
				{
					"anonymous": false,
					"inputs": [
						{
							"indexed": true,
							"internalType": "address",
							"name": "user",
							"type": "address"
						},
						{
							"indexed": true,
							"internalType": "address",
							"name": "token",
							"type": "address"
						},
						{
							"indexed": false,
							"internalType": "uint256",
							"name": "amount",
							"type": "uint256"
						},
						{
							"indexed": false,
							"internalType": "string",
							"name": "provider",
							"type": "string"
						}
					],
					"name": "DirectWithdraw",
					"type": "event"
				},
				{
					"anonymous": false,
					"inputs": [
						{
							"indexed": true,
							"internalType": "address",
							"name": "previousOwner",
							"type": "address"
						},
						{
							"indexed": true,
							"internalType": "address",
							"name": "newOwner",
							"type": "address"
						}
					],
					"name": "OwnershipTransferred",
					"type": "event"
				},
				{
					"anonymous": false,
					"inputs": [
						{
							"indexed": true,
							"internalType": "address",
							"name": "token",
							"type": "address"
						},
						{
							"indexed": false,
							"internalType": "string",
							"name": "provider",
							"type": "string"
						}
					],
					"name": "TokenListed",
					"type": "event"
				},
				{
					"inputs": [
						{
							"internalType": "string",
							"name": "assetName",
							"type": "string"
						},
						{
							"internalType": "uint256",
							"name": "amount",
							"type": "uint256"
						}
					],
					"name": "deposit",
					"outputs": [],
					"stateMutability": "nonpayable",
					"type": "function"
				},
				{
					"inputs": [
						{
							"internalType": "address",
							"name": "user",
							"type": "address"
						},
						{
							"internalType": "string",
							"name": "assetName",
							"type": "string"
						},
						{
							"internalType": "uint256",
							"name": "amount",
							"type": "uint256"
						},
						{
							"internalType": "uint256",
							"name": "nullifier",
							"type": "uint256"
						}
					],
					"name": "directWithdraw",
					"outputs": [],
					"stateMutability": "nonpayable",
					"type": "function"
				},
				{
					"inputs": [],
					"name": "events",
					"outputs": [
						{
							"internalType": "contract IEvents",
							"name": "",
							"type": "address"
						}
					],
					"stateMutability": "view",
					"type": "function"
				},
				{
					"inputs": [
						{
							"internalType": "address",
							"name": "",
							"type": "address"
						}
					],
					"name": "isSupportedToken",
					"outputs": [
						{
							"internalType": "bool",
							"name": "",
							"type": "bool"
						}
					],
					"stateMutability": "view",
					"type": "function"
				},
				{
					"inputs": [
						{
							"internalType": "string",
							"name": "assetName",
							"type": "string"
						}
					],
					"name": "listNewToken",
					"outputs": [],
					"stateMutability": "nonpayable",
					"type": "function"
				},
				{
					"inputs": [
						{
							"internalType": "address",
							"name": "user",
							"type": "address"
						},
						{
							"internalType": "string",
							"name": "assetName",
							"type": "string"
						},
						{
							"internalType": "uint256",
							"name": "amount",
							"type": "uint256"
						}
					],
					"name": "m_withdraw",
					"outputs": [],
					"stateMutability": "nonpayable",
					"type": "function"
				},
				{
					"inputs": [],
					"name": "owner",
					"outputs": [
						{
							"internalType": "address",
							"name": "",
							"type": "address"
						}
					],
					"stateMutability": "view",
					"type": "function"
				},
				{
					"inputs": [],
					"name": "providerName",
					"outputs": [
						{
							"internalType": "string",
							"name": "",
							"type": "string"
						}
					],
					"stateMutability": "view",
					"type": "function"
				},
				{
					"inputs": [],
					"name": "renounceOwnership",
					"outputs": [],
					"stateMutability": "nonpayable",
					"type": "function"
				},
				{
					"inputs": [
						{
							"internalType": "string",
							"name": "assetName",
							"type": "string"
						}
					],
					"name": "resolveAsset",
					"outputs": [
						{
							"internalType": "address",
							"name": "",
							"type": "address"
						}
					],
					"stateMutability": "view",
					"type": "function"
				},
				{
					"inputs": [
						{
							"internalType": "address",
							"name": "newOwner",
							"type": "address"
						}
					],
					"name": "transferOwnership",
					"outputs": [],
					"stateMutability": "nonpayable",
					"type": "function"
				},
				{
					"inputs": [],
					"name": "variablesRegistry",
					"outputs": [
						{
							"internalType": "contract IVariables",
							"name": "",
							"type": "address"
						}
					],
					"stateMutability": "view",
					"type": "function"
				}
			],
			"devdoc": {
				"errors": {
					"OwnableInvalidOwner(address)": [
						{
							"details": "The owner is not a valid owner account. (eg. `address(0)`)"
						}
					],
					"OwnableUnauthorizedAccount(address)": [
						{
							"details": "The caller account is not authorized to perform an operation."
						}
					],
					"SafeERC20FailedOperation(address)": [
						{
							"details": "An operation with an ERC-20 token failed."
						}
					]
				},
				"kind": "dev",
				"methods": {
					"directWithdraw(address,string,uint256,uint256)": {
						"details": "This function is called directly by the Delegator contract  after it has verified the ZK Proof and Signatures."
					},
					"m_withdraw(address,string,uint256)": {
						"details": "This function can be called by the user, consensus then processes this,  and if everything goes right, it then calls directWdirectWithdraw"
					},
					"owner()": {
						"details": "Returns the address of the current owner."
					},
					"renounceOwnership()": {
						"details": "Leaves the contract without owner. It will not be possible to call `onlyOwner` functions. Can only be called by the current owner. NOTE: Renouncing ownership will leave the contract without an owner, thereby disabling any functionality that is only available to the owner."
					},
					"transferOwnership(address)": {
						"details": "Transfers ownership of the contract to a new account (`newOwner`). Can only be called by the current owner."
					}
				},
				"version": 1
			},
			"evm": {
				"assembly": "    /* \"Evm/core/base/vault.sol\":561:5689  contract QiaraMultiAssetVault is Ownable {... */\n  mstore(0x40, 0xc0)\n    /* \"Evm/core/base/vault.sol\":1098:1413  constructor(... */\n  callvalue\n  dup1\n  iszero\n  tag_1\n  jumpi\n  revert(0x00, 0x00)\ntag_1:\n  pop\n  mload(0x40)\n  sub(codesize, bytecodeSize)\n  dup1\n  bytecodeSize\n  dup4\n  codecopy\n  dup2\n  dup2\n  add\n  0x40\n  mstore\n  dup2\n  add\n  swap1\n  tag_2\n  swap2\n  swap1\n  tag_3\n  jump\t// in\ntag_2:\n    /* \"Evm/core/base/vault.sol\":1257:1267  _delegator */\n  dup2\n    /* \"@openzeppelin/contracts/access/Ownable.sol\":1297:1298  0 */\n  0x00\n    /* \"@openzeppelin/contracts/access/Ownable.sol\":1273:1299  initialOwner == address(0) */\n  0xffffffffffffffffffffffffffffffffffffffff\n  and\n    /* \"@openzeppelin/contracts/access/Ownable.sol\":1273:1285  initialOwner */\n  dup2\n    /* \"@openzeppelin/contracts/access/Ownable.sol\":1273:1299  initialOwner == address(0) */\n  0xffffffffffffffffffffffffffffffffffffffff\n  and\n  sub\n    /* \"@openzeppelin/contracts/access/Ownable.sol\":1269:1364  if (initialOwner == address(0)) {... */\n  tag_7\n  jumpi\n    /* \"@openzeppelin/contracts/access/Ownable.sol\":1350:1351  0 */\n  0x00\n    /* \"@openzeppelin/contracts/access/Ownable.sol\":1322:1353  OwnableInvalidOwner(address(0)) */\n  mload(0x40)\n  0x1e4fbdf700000000000000000000000000000000000000000000000000000000\n  dup2\n  mstore\n  0x04\n  add\n  tag_8\n  swap2\n  swap1\n  tag_9\n  jump\t// in\ntag_8:\n  mload(0x40)\n  dup1\n  swap2\n  sub\n  swap1\n  revert\n    /* \"@openzeppelin/contracts/access/Ownable.sol\":1269:1364  if (initialOwner == address(0)) {... */\ntag_7:\n    /* \"@openzeppelin/contracts/access/Ownable.sol\":1373:1405  _transferOwnership(initialOwner) */\n  tag_10\n    /* \"@openzeppelin/contracts/access/Ownable.sol\":1392:1404  initialOwner */\n  dup2\n    /* \"@openzeppelin/contracts/access/Ownable.sol\":1373:1391  _transferOwnership */\n  shl(0x20, tag_11)\n    /* \"@openzeppelin/contracts/access/Ownable.sol\":1373:1405  _transferOwnership(initialOwner) */\n  0x20\n  shr\n  jump\t// in\ntag_10:\n    /* \"@openzeppelin/contracts/access/Ownable.sol\":1225:1412  constructor(address initialOwner) {... */\n  pop\n    /* \"Evm/core/base/vault.sol\":1297:1304  _events */\n  dup4\n    /* \"Evm/core/base/vault.sol\":1280:1305  events = IEvents(_events) */\n  0xffffffffffffffffffffffffffffffffffffffff\n  and\n  0xa0\n  dup2\n  0xffffffffffffffffffffffffffffffffffffffff\n  and\n  dup2\n  mstore\n  pop\n  pop\n    /* \"Evm/core/base/vault.sol\":1347:1365  _variablesRegistry */\n  dup3\n    /* \"Evm/core/base/vault.sol\":1316:1366  variablesRegistry = IVariables(_variablesRegistry) */\n  0xffffffffffffffffffffffffffffffffffffffff\n  and\n  0x80\n  dup2\n  0xffffffffffffffffffffffffffffffffffffffff\n  and\n  dup2\n  mstore\n  pop\n  pop\n    /* \"Evm/core/base/vault.sol\":1392:1405  _providerName */\n  dup1\n    /* \"Evm/core/base/vault.sol\":1377:1389  providerName */\n  0x01\n    /* \"Evm/core/base/vault.sol\":1377:1405  providerName = _providerName */\n  swap1\n  dup2\n  tag_13\n  swap2\n  swap1\n  tag_14\n  jump\t// in\ntag_13:\n  pop\n    /* \"Evm/core/base/vault.sol\":1098:1413  constructor(... */\n  pop\n  pop\n  pop\n  pop\n    /* \"Evm/core/base/vault.sol\":561:5689  contract QiaraMultiAssetVault is Ownable {... */\n  jump(tag_15)\n    /* \"@openzeppelin/contracts/access/Ownable.sol\":2912:3099  function _transferOwnership(address newOwner) internal virtual {... */\ntag_11:\n    /* \"@openzeppelin/contracts/access/Ownable.sol\":2985:3001  address oldOwner */\n  0x00\n    /* \"@openzeppelin/contracts/access/Ownable.sol\":3004:3010  _owner */\n  0x00\n  0x00\n  swap1\n  sload\n  swap1\n  0x0100\n  exp\n  swap1\n  div\n  0xffffffffffffffffffffffffffffffffffffffff\n  and\n    /* \"@openzeppelin/contracts/access/Ownable.sol\":2985:3010  address oldOwner = _owner */\n  swap1\n  pop\n    /* \"@openzeppelin/contracts/access/Ownable.sol\":3029:3037  newOwner */\n  dup2\n    /* \"@openzeppelin/contracts/access/Ownable.sol\":3020:3026  _owner */\n  0x00\n  0x00\n    /* \"@openzeppelin/contracts/access/Ownable.sol\":3020:3037  _owner = newOwner */\n  0x0100\n  exp\n  dup2\n  sload\n  dup2\n  0xffffffffffffffffffffffffffffffffffffffff\n  mul\n  not\n  and\n  swap1\n  dup4\n  0xffffffffffffffffffffffffffffffffffffffff\n  and\n  mul\n  or\n  swap1\n  sstore\n  pop\n    /* \"@openzeppelin/contracts/access/Ownable.sol\":3083:3091  newOwner */\n  dup2\n    /* \"@openzeppelin/contracts/access/Ownable.sol\":3052:3092  OwnershipTransferred(oldOwner, newOwner) */\n  0xffffffffffffffffffffffffffffffffffffffff\n  and\n    /* \"@openzeppelin/contracts/access/Ownable.sol\":3073:3081  oldOwner */\n  dup2\n    /* \"@openzeppelin/contracts/access/Ownable.sol\":3052:3092  OwnershipTransferred(oldOwner, newOwner) */\n  0xffffffffffffffffffffffffffffffffffffffff\n  and\n  0x8be0079c531659141344cd1fd0a4f28419497f9722a3daafe3b4186f6b6457e0\n  mload(0x40)\n  mload(0x40)\n  dup1\n  swap2\n  sub\n  swap1\n  log3\n    /* \"@openzeppelin/contracts/access/Ownable.sol\":2975:3099  {... */\n  pop\n    /* \"@openzeppelin/contracts/access/Ownable.sol\":2912:3099  function _transferOwnership(address newOwner) internal virtual {... */\n  pop\n  jump\t// out\n    /* \"#utility.yul\":7:82   */\ntag_17:\n    /* \"#utility.yul\":40:46   */\n  0x00\n    /* \"#utility.yul\":73:75   */\n  0x40\n    /* \"#utility.yul\":67:76   */\n  mload\n    /* \"#utility.yul\":57:76   */\n  swap1\n  pop\n    /* \"#utility.yul\":7:82   */\n  swap1\n  jump\t// out\n    /* \"#utility.yul\":88:205   */\ntag_18:\n    /* \"#utility.yul\":197:198   */\n  0x00\n    /* \"#utility.yul\":194:195   */\n  0x00\n    /* \"#utility.yul\":187:199   */\n  revert\n    /* \"#utility.yul\":211:328   */\ntag_19:\n    /* \"#utility.yul\":320:321   */\n  0x00\n    /* \"#utility.yul\":317:318   */\n  0x00\n    /* \"#utility.yul\":310:322   */\n  revert\n    /* \"#utility.yul\":334:460   */\ntag_20:\n    /* \"#utility.yul\":371:378   */\n  0x00\n    /* \"#utility.yul\":411:453   */\n  0xffffffffffffffffffffffffffffffffffffffff\n    /* \"#utility.yul\":404:409   */\n  dup3\n    /* \"#utility.yul\":400:454   */\n  and\n    /* \"#utility.yul\":389:454   */\n  swap1\n  pop\n    /* \"#utility.yul\":334:460   */\n  swap2\n  swap1\n  pop\n  jump\t// out\n    /* \"#utility.yul\":466:562   */\ntag_21:\n    /* \"#utility.yul\":503:510   */\n  0x00\n    /* \"#utility.yul\":532:556   */\n  tag_60\n    /* \"#utility.yul\":550:555   */\n  dup3\n    /* \"#utility.yul\":532:556   */\n  tag_20\n  jump\t// in\ntag_60:\n    /* \"#utility.yul\":521:556   */\n  swap1\n  pop\n    /* \"#utility.yul\":466:562   */\n  swap2\n  swap1\n  pop\n  jump\t// out\n    /* \"#utility.yul\":568:690   */\ntag_22:\n    /* \"#utility.yul\":641:665   */\n  tag_62\n    /* \"#utility.yul\":659:664   */\n  dup2\n    /* \"#utility.yul\":641:665   */\n  tag_21\n  jump\t// in\ntag_62:\n    /* \"#utility.yul\":634:639   */\n  dup2\n    /* \"#utility.yul\":631:666   */\n  eq\n    /* \"#utility.yul\":621:684   */\n  tag_63\n  jumpi\n    /* \"#utility.yul\":680:681   */\n  0x00\n    /* \"#utility.yul\":677:678   */\n  0x00\n    /* \"#utility.yul\":670:682   */\n  revert\n    /* \"#utility.yul\":621:684   */\ntag_63:\n    /* \"#utility.yul\":568:690   */\n  pop\n  jump\t// out\n    /* \"#utility.yul\":696:839   */\ntag_23:\n    /* \"#utility.yul\":753:758   */\n  0x00\n    /* \"#utility.yul\":784:790   */\n  dup2\n    /* \"#utility.yul\":778:791   */\n  mload\n    /* \"#utility.yul\":769:791   */\n  swap1\n  pop\n    /* \"#utility.yul\":800:833   */\n  tag_65\n    /* \"#utility.yul\":827:832   */\n  dup2\n    /* \"#utility.yul\":800:833   */\n  tag_22\n  jump\t// in\ntag_65:\n    /* \"#utility.yul\":696:839   */\n  swap3\n  swap2\n  pop\n  pop\n  jump\t// out\n    /* \"#utility.yul\":845:962   */\ntag_24:\n    /* \"#utility.yul\":954:955   */\n  0x00\n    /* \"#utility.yul\":951:952   */\n  0x00\n    /* \"#utility.yul\":944:956   */\n  revert\n    /* \"#utility.yul\":968:1085   */\ntag_25:\n    /* \"#utility.yul\":1077:1078   */\n  0x00\n    /* \"#utility.yul\":1074:1075   */\n  0x00\n    /* \"#utility.yul\":1067:1079   */\n  revert\n    /* \"#utility.yul\":1091:1193   */\ntag_26:\n    /* \"#utility.yul\":1132:1138   */\n  0x00\n    /* \"#utility.yul\":1183:1185   */\n  0x1f\n    /* \"#utility.yul\":1179:1186   */\n  not\n    /* \"#utility.yul\":1174:1176   */\n  0x1f\n    /* \"#utility.yul\":1167:1172   */\n  dup4\n    /* \"#utility.yul\":1163:1177   */\n  add\n    /* \"#utility.yul\":1159:1187   */\n  and\n    /* \"#utility.yul\":1149:1187   */\n  swap1\n  pop\n    /* \"#utility.yul\":1091:1193   */\n  swap2\n  swap1\n  pop\n  jump\t// out\n    /* \"#utility.yul\":1199:1379   */\ntag_27:\n    /* \"#utility.yul\":1247:1324   */\n  0x4e487b7100000000000000000000000000000000000000000000000000000000\n    /* \"#utility.yul\":1244:1245   */\n  0x00\n    /* \"#utility.yul\":1237:1325   */\n  mstore\n    /* \"#utility.yul\":1344:1348   */\n  0x41\n    /* \"#utility.yul\":1341:1342   */\n  0x04\n    /* \"#utility.yul\":1334:1349   */\n  mstore\n    /* \"#utility.yul\":1368:1372   */\n  0x24\n    /* \"#utility.yul\":1365:1366   */\n  0x00\n    /* \"#utility.yul\":1358:1373   */\n  revert\n    /* \"#utility.yul\":1385:1666   */\ntag_28:\n    /* \"#utility.yul\":1468:1495   */\n  tag_71\n    /* \"#utility.yul\":1490:1494   */\n  dup3\n    /* \"#utility.yul\":1468:1495   */\n  tag_26\n  jump\t// in\ntag_71:\n    /* \"#utility.yul\":1460:1466   */\n  dup2\n    /* \"#utility.yul\":1456:1496   */\n  add\n    /* \"#utility.yul\":1598:1604   */\n  dup2\n    /* \"#utility.yul\":1586:1596   */\n  dup2\n    /* \"#utility.yul\":1583:1605   */\n  lt\n    /* \"#utility.yul\":1562:1580   */\n  0xffffffffffffffff\n    /* \"#utility.yul\":1550:1560   */\n  dup3\n    /* \"#utility.yul\":1547:1581   */\n  gt\n    /* \"#utility.yul\":1544:1606   */\n  or\n    /* \"#utility.yul\":1541:1629   */\n  iszero\n  tag_72\n  jumpi\n    /* \"#utility.yul\":1609:1627   */\n  tag_73\n  tag_27\n  jump\t// in\ntag_73:\n    /* \"#utility.yul\":1541:1629   */\ntag_72:\n    /* \"#utility.yul\":1649:1659   */\n  dup1\n    /* \"#utility.yul\":1645:1647   */\n  0x40\n    /* \"#utility.yul\":1638:1660   */\n  mstore\n    /* \"#utility.yul\":1428:1666   */\n  pop\n    /* \"#utility.yul\":1385:1666   */\n  pop\n  pop\n  jump\t// out\n    /* \"#utility.yul\":1672:1801   */\ntag_29:\n    /* \"#utility.yul\":1706:1712   */\n  0x00\n    /* \"#utility.yul\":1733:1753   */\n  tag_75\n  tag_17\n  jump\t// in\ntag_75:\n    /* \"#utility.yul\":1723:1753   */\n  swap1\n  pop\n    /* \"#utility.yul\":1762:1795   */\n  tag_76\n    /* \"#utility.yul\":1790:1794   */\n  dup3\n    /* \"#utility.yul\":1782:1788   */\n  dup3\n    /* \"#utility.yul\":1762:1795   */\n  tag_28\n  jump\t// in\ntag_76:\n    /* \"#utility.yul\":1672:1801   */\n  swap2\n  swap1\n  pop\n  jump\t// out\n    /* \"#utility.yul\":1807:2115   */\ntag_30:\n    /* \"#utility.yul\":1869:1873   */\n  0x00\n    /* \"#utility.yul\":1959:1977   */\n  0xffffffffffffffff\n    /* \"#utility.yul\":1951:1957   */\n  dup3\n    /* \"#utility.yul\":1948:1978   */\n  gt\n    /* \"#utility.yul\":1945:2001   */\n  iszero\n  tag_78\n  jumpi\n    /* \"#utility.yul\":1981:1999   */\n  tag_79\n  tag_27\n  jump\t// in\ntag_79:\n    /* \"#utility.yul\":1945:2001   */\ntag_78:\n    /* \"#utility.yul\":2019:2048   */\n  tag_80\n    /* \"#utility.yul\":2041:2047   */\n  dup3\n    /* \"#utility.yul\":2019:2048   */\n  tag_26\n  jump\t// in\ntag_80:\n    /* \"#utility.yul\":2011:2048   */\n  swap1\n  pop\n    /* \"#utility.yul\":2103:2107   */\n  0x20\n    /* \"#utility.yul\":2097:2101   */\n  dup2\n    /* \"#utility.yul\":2093:2108   */\n  add\n    /* \"#utility.yul\":2085:2108   */\n  swap1\n  pop\n    /* \"#utility.yul\":1807:2115   */\n  swap2\n  swap1\n  pop\n  jump\t// out\n    /* \"#utility.yul\":2121:2260   */\ntag_31:\n    /* \"#utility.yul\":2210:2216   */\n  dup3\n    /* \"#utility.yul\":2205:2208   */\n  dup2\n    /* \"#utility.yul\":2200:2203   */\n  dup4\n    /* \"#utility.yul\":2194:2217   */\n  mcopy\n    /* \"#utility.yul\":2251:2252   */\n  0x00\n    /* \"#utility.yul\":2242:2248   */\n  dup4\n    /* \"#utility.yul\":2237:2240   */\n  dup4\n    /* \"#utility.yul\":2233:2249   */\n  add\n    /* \"#utility.yul\":2226:2253   */\n  mstore\n    /* \"#utility.yul\":2121:2260   */\n  pop\n  pop\n  pop\n  jump\t// out\n    /* \"#utility.yul\":2266:2700   */\ntag_32:\n    /* \"#utility.yul\":2355:2360   */\n  0x00\n    /* \"#utility.yul\":2380:2446   */\n  tag_83\n    /* \"#utility.yul\":2396:2445   */\n  tag_84\n    /* \"#utility.yul\":2438:2444   */\n  dup5\n    /* \"#utility.yul\":2396:2445   */\n  tag_30\n  jump\t// in\ntag_84:\n    /* \"#utility.yul\":2380:2446   */\n  tag_29\n  jump\t// in\ntag_83:\n    /* \"#utility.yul\":2371:2446   */\n  swap1\n  pop\n    /* \"#utility.yul\":2469:2475   */\n  dup3\n    /* \"#utility.yul\":2462:2467   */\n  dup2\n    /* \"#utility.yul\":2455:2476   */\n  mstore\n    /* \"#utility.yul\":2507:2511   */\n  0x20\n    /* \"#utility.yul\":2500:2505   */\n  dup2\n    /* \"#utility.yul\":2496:2512   */\n  add\n    /* \"#utility.yul\":2545:2548   */\n  dup5\n    /* \"#utility.yul\":2536:2542   */\n  dup5\n    /* \"#utility.yul\":2531:2534   */\n  dup5\n    /* \"#utility.yul\":2527:2543   */\n  add\n    /* \"#utility.yul\":2524:2549   */\n  gt\n    /* \"#utility.yul\":2521:2633   */\n  iszero\n  tag_85\n  jumpi\n    /* \"#utility.yul\":2552:2631   */\n  tag_86\n  tag_25\n  jump\t// in\ntag_86:\n    /* \"#utility.yul\":2521:2633   */\ntag_85:\n    /* \"#utility.yul\":2642:2694   */\n  tag_87\n    /* \"#utility.yul\":2687:2693   */\n  dup5\n    /* \"#utility.yul\":2682:2685   */\n  dup3\n    /* \"#utility.yul\":2677:2680   */\n  dup6\n    /* \"#utility.yul\":2642:2694   */\n  tag_31\n  jump\t// in\ntag_87:\n    /* \"#utility.yul\":2361:2700   */\n  pop\n    /* \"#utility.yul\":2266:2700   */\n  swap4\n  swap3\n  pop\n  pop\n  pop\n  jump\t// out\n    /* \"#utility.yul\":2720:3075   */\ntag_33:\n    /* \"#utility.yul\":2787:2792   */\n  0x00\n    /* \"#utility.yul\":2836:2839   */\n  dup3\n    /* \"#utility.yul\":2829:2833   */\n  0x1f\n    /* \"#utility.yul\":2821:2827   */\n  dup4\n    /* \"#utility.yul\":2817:2834   */\n  add\n    /* \"#utility.yul\":2813:2840   */\n  slt\n    /* \"#utility.yul\":2803:2925   */\n  tag_89\n  jumpi\n    /* \"#utility.yul\":2844:2923   */\n  tag_90\n  tag_24\n  jump\t// in\ntag_90:\n    /* \"#utility.yul\":2803:2925   */\ntag_89:\n    /* \"#utility.yul\":2954:2960   */\n  dup2\n    /* \"#utility.yul\":2948:2961   */\n  mload\n    /* \"#utility.yul\":2979:3069   */\n  tag_91\n    /* \"#utility.yul\":3065:3068   */\n  dup5\n    /* \"#utility.yul\":3057:3063   */\n  dup3\n    /* \"#utility.yul\":3050:3054   */\n  0x20\n    /* \"#utility.yul\":3042:3048   */\n  dup7\n    /* \"#utility.yul\":3038:3055   */\n  add\n    /* \"#utility.yul\":2979:3069   */\n  tag_32\n  jump\t// in\ntag_91:\n    /* \"#utility.yul\":2970:3069   */\n  swap2\n  pop\n    /* \"#utility.yul\":2793:3075   */\n  pop\n    /* \"#utility.yul\":2720:3075   */\n  swap3\n  swap2\n  pop\n  pop\n  jump\t// out\n    /* \"#utility.yul\":3081:4074   */\ntag_3:\n    /* \"#utility.yul\":3188:3194   */\n  0x00\n    /* \"#utility.yul\":3196:3202   */\n  0x00\n    /* \"#utility.yul\":3204:3210   */\n  0x00\n    /* \"#utility.yul\":3212:3218   */\n  0x00\n    /* \"#utility.yul\":3261:3264   */\n  0x80\n    /* \"#utility.yul\":3249:3258   */\n  dup6\n    /* \"#utility.yul\":3240:3247   */\n  dup8\n    /* \"#utility.yul\":3236:3259   */\n  sub\n    /* \"#utility.yul\":3232:3265   */\n  slt\n    /* \"#utility.yul\":3229:3349   */\n  iszero\n  tag_93\n  jumpi\n    /* \"#utility.yul\":3268:3347   */\n  tag_94\n  tag_18\n  jump\t// in\ntag_94:\n    /* \"#utility.yul\":3229:3349   */\ntag_93:\n    /* \"#utility.yul\":3388:3389   */\n  0x00\n    /* \"#utility.yul\":3413:3477   */\n  tag_95\n    /* \"#utility.yul\":3469:3476   */\n  dup8\n    /* \"#utility.yul\":3460:3466   */\n  dup3\n    /* \"#utility.yul\":3449:3458   */\n  dup9\n    /* \"#utility.yul\":3445:3467   */\n  add\n    /* \"#utility.yul\":3413:3477   */\n  tag_23\n  jump\t// in\ntag_95:\n    /* \"#utility.yul\":3403:3477   */\n  swap5\n  pop\n    /* \"#utility.yul\":3359:3487   */\n  pop\n    /* \"#utility.yul\":3526:3528   */\n  0x20\n    /* \"#utility.yul\":3552:3616   */\n  tag_96\n    /* \"#utility.yul\":3608:3615   */\n  dup8\n    /* \"#utility.yul\":3599:3605   */\n  dup3\n    /* \"#utility.yul\":3588:3597   */\n  dup9\n    /* \"#utility.yul\":3584:3606   */\n  add\n    /* \"#utility.yul\":3552:3616   */\n  tag_23\n  jump\t// in\ntag_96:\n    /* \"#utility.yul\":3542:3616   */\n  swap4\n  pop\n    /* \"#utility.yul\":3497:3626   */\n  pop\n    /* \"#utility.yul\":3665:3667   */\n  0x40\n    /* \"#utility.yul\":3691:3755   */\n  tag_97\n    /* \"#utility.yul\":3747:3754   */\n  dup8\n    /* \"#utility.yul\":3738:3744   */\n  dup3\n    /* \"#utility.yul\":3727:3736   */\n  dup9\n    /* \"#utility.yul\":3723:3745   */\n  add\n    /* \"#utility.yul\":3691:3755   */\n  tag_23\n  jump\t// in\ntag_97:\n    /* \"#utility.yul\":3681:3755   */\n  swap3\n  pop\n    /* \"#utility.yul\":3636:3765   */\n  pop\n    /* \"#utility.yul\":3825:3827   */\n  0x60\n    /* \"#utility.yul\":3814:3823   */\n  dup6\n    /* \"#utility.yul\":3810:3828   */\n  add\n    /* \"#utility.yul\":3804:3829   */\n  mload\n    /* \"#utility.yul\":3856:3874   */\n  0xffffffffffffffff\n    /* \"#utility.yul\":3848:3854   */\n  dup2\n    /* \"#utility.yul\":3845:3875   */\n  gt\n    /* \"#utility.yul\":3842:3959   */\n  iszero\n  tag_98\n  jumpi\n    /* \"#utility.yul\":3878:3957   */\n  tag_99\n  tag_19\n  jump\t// in\ntag_99:\n    /* \"#utility.yul\":3842:3959   */\ntag_98:\n    /* \"#utility.yul\":3983:4057   */\n  tag_100\n    /* \"#utility.yul\":4049:4056   */\n  dup8\n    /* \"#utility.yul\":4040:4046   */\n  dup3\n    /* \"#utility.yul\":4029:4038   */\n  dup9\n    /* \"#utility.yul\":4025:4047   */\n  add\n    /* \"#utility.yul\":3983:4057   */\n  tag_33\n  jump\t// in\ntag_100:\n    /* \"#utility.yul\":3973:4057   */\n  swap2\n  pop\n    /* \"#utility.yul\":3775:4067   */\n  pop\n    /* \"#utility.yul\":3081:4074   */\n  swap3\n  swap6\n  swap2\n  swap5\n  pop\n  swap3\n  pop\n  jump\t// out\n    /* \"#utility.yul\":4080:4198   */\ntag_34:\n    /* \"#utility.yul\":4167:4191   */\n  tag_102\n    /* \"#utility.yul\":4185:4190   */\n  dup2\n    /* \"#utility.yul\":4167:4191   */\n  tag_21\n  jump\t// in\ntag_102:\n    /* \"#utility.yul\":4162:4165   */\n  dup3\n    /* \"#utility.yul\":4155:4192   */\n  mstore\n    /* \"#utility.yul\":4080:4198   */\n  pop\n  pop\n  jump\t// out\n    /* \"#utility.yul\":4204:4426   */\ntag_9:\n    /* \"#utility.yul\":4297:4301   */\n  0x00\n    /* \"#utility.yul\":4335:4337   */\n  0x20\n    /* \"#utility.yul\":4324:4333   */\n  dup3\n    /* \"#utility.yul\":4320:4338   */\n  add\n    /* \"#utility.yul\":4312:4338   */\n  swap1\n  pop\n    /* \"#utility.yul\":4348:4419   */\n  tag_104\n    /* \"#utility.yul\":4416:4417   */\n  0x00\n    /* \"#utility.yul\":4405:4414   */\n  dup4\n    /* \"#utility.yul\":4401:4418   */\n  add\n    /* \"#utility.yul\":4392:4398   */\n  dup5\n    /* \"#utility.yul\":4348:4419   */\n  tag_34\n  jump\t// in\ntag_104:\n    /* \"#utility.yul\":4204:4426   */\n  swap3\n  swap2\n  pop\n  pop\n  jump\t// out\n    /* \"#utility.yul\":4432:4531   */\ntag_35:\n    /* \"#utility.yul\":4484:4490   */\n  0x00\n    /* \"#utility.yul\":4518:4523   */\n  dup2\n    /* \"#utility.yul\":4512:4524   */\n  mload\n    /* \"#utility.yul\":4502:4524   */\n  swap1\n  pop\n    /* \"#utility.yul\":4432:4531   */\n  swap2\n  swap1\n  pop\n  jump\t// out\n    /* \"#utility.yul\":4537:4717   */\ntag_36:\n    /* \"#utility.yul\":4585:4662   */\n  0x4e487b7100000000000000000000000000000000000000000000000000000000\n    /* \"#utility.yul\":4582:4583   */\n  0x00\n    /* \"#utility.yul\":4575:4663   */\n  mstore\n    /* \"#utility.yul\":4682:4686   */\n  0x22\n    /* \"#utility.yul\":4679:4680   */\n  0x04\n    /* \"#utility.yul\":4672:4687   */\n  mstore\n    /* \"#utility.yul\":4706:4710   */\n  0x24\n    /* \"#utility.yul\":4703:4704   */\n  0x00\n    /* \"#utility.yul\":4696:4711   */\n  revert\n    /* \"#utility.yul\":4723:5043   */\ntag_37:\n    /* \"#utility.yul\":4767:4773   */\n  0x00\n    /* \"#utility.yul\":4804:4805   */\n  0x02\n    /* \"#utility.yul\":4798:4802   */\n  dup3\n    /* \"#utility.yul\":4794:4806   */\n  div\n    /* \"#utility.yul\":4784:4806   */\n  swap1\n  pop\n    /* \"#utility.yul\":4851:4852   */\n  0x01\n    /* \"#utility.yul\":4845:4849   */\n  dup3\n    /* \"#utility.yul\":4841:4853   */\n  and\n    /* \"#utility.yul\":4872:4890   */\n  dup1\n    /* \"#utility.yul\":4862:4943   */\n  tag_108\n  jumpi\n    /* \"#utility.yul\":4928:4932   */\n  0x7f\n    /* \"#utility.yul\":4920:4926   */\n  dup3\n    /* \"#utility.yul\":4916:4933   */\n  and\n    /* \"#utility.yul\":4906:4933   */\n  swap2\n  pop\n    /* \"#utility.yul\":4862:4943   */\ntag_108:\n    /* \"#utility.yul\":4990:4992   */\n  0x20\n    /* \"#utility.yul\":4982:4988   */\n  dup3\n    /* \"#utility.yul\":4979:4993   */\n  lt\n    /* \"#utility.yul\":4959:4977   */\n  dup2\n    /* \"#utility.yul\":4956:4994   */\n  sub\n    /* \"#utility.yul\":4953:5037   */\n  tag_109\n  jumpi\n    /* \"#utility.yul\":5009:5027   */\n  tag_110\n  tag_36\n  jump\t// in\ntag_110:\n    /* \"#utility.yul\":4953:5037   */\ntag_109:\n    /* \"#utility.yul\":4774:5043   */\n  pop\n    /* \"#utility.yul\":4723:5043   */\n  swap2\n  swap1\n  pop\n  jump\t// out\n    /* \"#utility.yul\":5049:5190   */\ntag_38:\n    /* \"#utility.yul\":5098:5102   */\n  0x00\n    /* \"#utility.yul\":5121:5124   */\n  dup2\n    /* \"#utility.yul\":5113:5124   */\n  swap1\n  pop\n    /* \"#utility.yul\":5144:5147   */\n  dup2\n    /* \"#utility.yul\":5141:5142   */\n  0x00\n    /* \"#utility.yul\":5134:5148   */\n  mstore\n    /* \"#utility.yul\":5178:5182   */\n  0x20\n    /* \"#utility.yul\":5175:5176   */\n  0x00\n    /* \"#utility.yul\":5165:5183   */\n  keccak256\n    /* \"#utility.yul\":5157:5183   */\n  swap1\n  pop\n    /* \"#utility.yul\":5049:5190   */\n  swap2\n  swap1\n  pop\n  jump\t// out\n    /* \"#utility.yul\":5196:5289   */\ntag_39:\n    /* \"#utility.yul\":5233:5239   */\n  0x00\n    /* \"#utility.yul\":5280:5282   */\n  0x20\n    /* \"#utility.yul\":5275:5277   */\n  0x1f\n    /* \"#utility.yul\":5268:5273   */\n  dup4\n    /* \"#utility.yul\":5264:5278   */\n  add\n    /* \"#utility.yul\":5260:5283   */\n  div\n    /* \"#utility.yul\":5250:5283   */\n  swap1\n  pop\n    /* \"#utility.yul\":5196:5289   */\n  swap2\n  swap1\n  pop\n  jump\t// out\n    /* \"#utility.yul\":5295:5402   */\ntag_40:\n    /* \"#utility.yul\":5339:5347   */\n  0x00\n    /* \"#utility.yul\":5389:5394   */\n  dup3\n    /* \"#utility.yul\":5383:5387   */\n  dup3\n    /* \"#utility.yul\":5379:5395   */\n  shl\n    /* \"#utility.yul\":5358:5395   */\n  swap1\n  pop\n    /* \"#utility.yul\":5295:5402   */\n  swap3\n  swap2\n  pop\n  pop\n  jump\t// out\n    /* \"#utility.yul\":5408:5801   */\ntag_41:\n    /* \"#utility.yul\":5477:5483   */\n  0x00\n    /* \"#utility.yul\":5527:5528   */\n  0x08\n    /* \"#utility.yul\":5515:5525   */\n  dup4\n    /* \"#utility.yul\":5511:5529   */\n  mul\n    /* \"#utility.yul\":5550:5647   */\n  tag_115\n    /* \"#utility.yul\":5580:5646   */\n  0xffffffffffffffffffffffffffffffffffffffffffffffffffffffffffffffff\n    /* \"#utility.yul\":5569:5578   */\n  dup3\n    /* \"#utility.yul\":5550:5647   */\n  tag_40\n  jump\t// in\ntag_115:\n    /* \"#utility.yul\":5668:5707   */\n  tag_116\n    /* \"#utility.yul\":5698:5706   */\n  dup7\n    /* \"#utility.yul\":5687:5696   */\n  dup4\n    /* \"#utility.yul\":5668:5707   */\n  tag_40\n  jump\t// in\ntag_116:\n    /* \"#utility.yul\":5656:5707   */\n  swap6\n  pop\n    /* \"#utility.yul\":5740:5744   */\n  dup1\n    /* \"#utility.yul\":5736:5745   */\n  not\n    /* \"#utility.yul\":5729:5734   */\n  dup5\n    /* \"#utility.yul\":5725:5746   */\n  and\n    /* \"#utility.yul\":5716:5746   */\n  swap4\n  pop\n    /* \"#utility.yul\":5789:5793   */\n  dup1\n    /* \"#utility.yul\":5779:5787   */\n  dup7\n    /* \"#utility.yul\":5775:5794   */\n  and\n    /* \"#utility.yul\":5768:5773   */\n  dup5\n    /* \"#utility.yul\":5765:5795   */\n  or\n    /* \"#utility.yul\":5755:5795   */\n  swap3\n  pop\n    /* \"#utility.yul\":5484:5801   */\n  pop\n  pop\n    /* \"#utility.yul\":5408:5801   */\n  swap4\n  swap3\n  pop\n  pop\n  pop\n  jump\t// out\n    /* \"#utility.yul\":5807:5884   */\ntag_42:\n    /* \"#utility.yul\":5844:5851   */\n  0x00\n    /* \"#utility.yul\":5873:5878   */\n  dup2\n    /* \"#utility.yul\":5862:5878   */\n  swap1\n  pop\n    /* \"#utility.yul\":5807:5884   */\n  swap2\n  swap1\n  pop\n  jump\t// out\n    /* \"#utility.yul\":5890:5950   */\ntag_43:\n    /* \"#utility.yul\":5918:5921   */\n  0x00\n    /* \"#utility.yul\":5939:5944   */\n  dup2\n    /* \"#utility.yul\":5932:5944   */\n  swap1\n  pop\n    /* \"#utility.yul\":5890:5950   */\n  swap2\n  swap1\n  pop\n  jump\t// out\n    /* \"#utility.yul\":5956:6098   */\ntag_44:\n    /* \"#utility.yul\":6006:6015   */\n  0x00\n    /* \"#utility.yul\":6039:6092   */\n  tag_120\n    /* \"#utility.yul\":6057:6091   */\n  tag_121\n    /* \"#utility.yul\":6066:6090   */\n  tag_122\n    /* \"#utility.yul\":6084:6089   */\n  dup5\n    /* \"#utility.yul\":6066:6090   */\n  tag_42\n  jump\t// in\ntag_122:\n    /* \"#utility.yul\":6057:6091   */\n  tag_43\n  jump\t// in\ntag_121:\n    /* \"#utility.yul\":6039:6092   */\n  tag_42\n  jump\t// in\ntag_120:\n    /* \"#utility.yul\":6026:6092   */\n  swap1\n  pop\n    /* \"#utility.yul\":5956:6098   */\n  swap2\n  swap1\n  pop\n  jump\t// out\n    /* \"#utility.yul\":6104:6179   */\ntag_45:\n    /* \"#utility.yul\":6147:6150   */\n  0x00\n    /* \"#utility.yul\":6168:6173   */\n  dup2\n    /* \"#utility.yul\":6161:6173   */\n  swap1\n  pop\n    /* \"#utility.yul\":6104:6179   */\n  swap2\n  swap1\n  pop\n  jump\t// out\n    /* \"#utility.yul\":6185:6454   */\ntag_46:\n    /* \"#utility.yul\":6295:6334   */\n  tag_125\n    /* \"#utility.yul\":6326:6333   */\n  dup4\n    /* \"#utility.yul\":6295:6334   */\n  tag_44\n  jump\t// in\ntag_125:\n    /* \"#utility.yul\":6356:6447   */\n  tag_126\n    /* \"#utility.yul\":6405:6446   */\n  tag_127\n    /* \"#utility.yul\":6429:6445   */\n  dup3\n    /* \"#utility.yul\":6405:6446   */\n  tag_45\n  jump\t// in\ntag_127:\n    /* \"#utility.yul\":6397:6403   */\n  dup5\n    /* \"#utility.yul\":6390:6394   */\n  dup5\n    /* \"#utility.yul\":6384:6395   */\n  sload\n    /* \"#utility.yul\":6356:6447   */\n  tag_41\n  jump\t// in\ntag_126:\n    /* \"#utility.yul\":6350:6354   */\n  dup3\n    /* \"#utility.yul\":6343:6448   */\n  sstore\n    /* \"#utility.yul\":6261:6454   */\n  pop\n    /* \"#utility.yul\":6185:6454   */\n  pop\n  pop\n  pop\n  jump\t// out\n    /* \"#utility.yul\":6460:6533   */\ntag_47:\n    /* \"#utility.yul\":6505:6508   */\n  0x00\n    /* \"#utility.yul\":6526:6527   */\n  0x00\n    /* \"#utility.yul\":6519:6527   */\n  swap1\n  pop\n    /* \"#utility.yul\":6460:6533   */\n  swap1\n  jump\t// out\n    /* \"#utility.yul\":6539:6728   */\ntag_48:\n    /* \"#utility.yul\":6616:6648   */\n  tag_130\n  tag_47\n  jump\t// in\ntag_130:\n    /* \"#utility.yul\":6657:6722   */\n  tag_131\n    /* \"#utility.yul\":6715:6721   */\n  dup2\n    /* \"#utility.yul\":6707:6713   */\n  dup5\n    /* \"#utility.yul\":6701:6705   */\n  dup5\n    /* \"#utility.yul\":6657:6722   */\n  tag_46\n  jump\t// in\ntag_131:\n    /* \"#utility.yul\":6592:6728   */\n  pop\n    /* \"#utility.yul\":6539:6728   */\n  pop\n  pop\n  jump\t// out\n    /* \"#utility.yul\":6734:6920   */\ntag_49:\n    /* \"#utility.yul\":6794:6914   */\ntag_133:\n    /* \"#utility.yul\":6811:6814   */\n  dup2\n    /* \"#utility.yul\":6804:6809   */\n  dup2\n    /* \"#utility.yul\":6801:6815   */\n  lt\n    /* \"#utility.yul\":6794:6914   */\n  iszero\n  tag_135\n  jumpi\n    /* \"#utility.yul\":6865:6904   */\n  tag_136\n    /* \"#utility.yul\":6902:6903   */\n  0x00\n    /* \"#utility.yul\":6895:6900   */\n  dup3\n    /* \"#utility.yul\":6865:6904   */\n  tag_48\n  jump\t// in\ntag_136:\n    /* \"#utility.yul\":6838:6839   */\n  0x01\n    /* \"#utility.yul\":6831:6836   */\n  dup2\n    /* \"#utility.yul\":6827:6840   */\n  add\n    /* \"#utility.yul\":6818:6840   */\n  swap1\n  pop\n    /* \"#utility.yul\":6794:6914   */\n  jump(tag_133)\ntag_135:\n    /* \"#utility.yul\":6734:6920   */\n  pop\n  pop\n  jump\t// out\n    /* \"#utility.yul\":6926:7469   */\ntag_50:\n    /* \"#utility.yul\":7027:7029   */\n  0x1f\n    /* \"#utility.yul\":7022:7025   */\n  dup3\n    /* \"#utility.yul\":7019:7030   */\n  gt\n    /* \"#utility.yul\":7016:7462   */\n  iszero\n  tag_138\n  jumpi\n    /* \"#utility.yul\":7061:7099   */\n  tag_139\n    /* \"#utility.yul\":7093:7098   */\n  dup2\n    /* \"#utility.yul\":7061:7099   */\n  tag_38\n  jump\t// in\ntag_139:\n    /* \"#utility.yul\":7145:7174   */\n  tag_140\n    /* \"#utility.yul\":7163:7173   */\n  dup5\n    /* \"#utility.yul\":7145:7174   */\n  tag_39\n  jump\t// in\ntag_140:\n    /* \"#utility.yul\":7135:7143   */\n  dup2\n    /* \"#utility.yul\":7131:7175   */\n  add\n    /* \"#utility.yul\":7328:7330   */\n  0x20\n    /* \"#utility.yul\":7316:7326   */\n  dup6\n    /* \"#utility.yul\":7313:7331   */\n  lt\n    /* \"#utility.yul\":7310:7359   */\n  iszero\n  tag_141\n  jumpi\n    /* \"#utility.yul\":7349:7357   */\n  dup2\n    /* \"#utility.yul\":7334:7357   */\n  swap1\n  pop\n    /* \"#utility.yul\":7310:7359   */\ntag_141:\n    /* \"#utility.yul\":7372:7452   */\n  tag_142\n    /* \"#utility.yul\":7428:7450   */\n  tag_143\n    /* \"#utility.yul\":7446:7449   */\n  dup6\n    /* \"#utility.yul\":7428:7450   */\n  tag_39\n  jump\t// in\ntag_143:\n    /* \"#utility.yul\":7418:7426   */\n  dup4\n    /* \"#utility.yul\":7414:7451   */\n  add\n    /* \"#utility.yul\":7401:7412   */\n  dup3\n    /* \"#utility.yul\":7372:7452   */\n  tag_49\n  jump\t// in\ntag_142:\n    /* \"#utility.yul\":7031:7462   */\n  pop\n  pop\n    /* \"#utility.yul\":7016:7462   */\ntag_138:\n    /* \"#utility.yul\":6926:7469   */\n  pop\n  pop\n  pop\n  jump\t// out\n    /* \"#utility.yul\":7475:7592   */\ntag_51:\n    /* \"#utility.yul\":7529:7537   */\n  0x00\n    /* \"#utility.yul\":7579:7584   */\n  dup3\n    /* \"#utility.yul\":7573:7577   */\n  dup3\n    /* \"#utility.yul\":7569:7585   */\n  shr\n    /* \"#utility.yul\":7548:7585   */\n  swap1\n  pop\n    /* \"#utility.yul\":7475:7592   */\n  swap3\n  swap2\n  pop\n  pop\n  jump\t// out\n    /* \"#utility.yul\":7598:7767   */\ntag_52:\n    /* \"#utility.yul\":7642:7648   */\n  0x00\n    /* \"#utility.yul\":7675:7726   */\n  tag_146\n    /* \"#utility.yul\":7723:7724   */\n  0x00\n    /* \"#utility.yul\":7719:7725   */\n  not\n    /* \"#utility.yul\":7711:7716   */\n  dup5\n    /* \"#utility.yul\":7708:7709   */\n  0x08\n    /* \"#utility.yul\":7704:7717   */\n  mul\n    /* \"#utility.yul\":7675:7726   */\n  tag_51\n  jump\t// in\ntag_146:\n    /* \"#utility.yul\":7671:7727   */\n  not\n    /* \"#utility.yul\":7756:7760   */\n  dup1\n    /* \"#utility.yul\":7750:7754   */\n  dup4\n    /* \"#utility.yul\":7746:7761   */\n  and\n    /* \"#utility.yul\":7736:7761   */\n  swap2\n  pop\n    /* \"#utility.yul\":7649:7767   */\n  pop\n    /* \"#utility.yul\":7598:7767   */\n  swap3\n  swap2\n  pop\n  pop\n  jump\t// out\n    /* \"#utility.yul\":7772:8067   */\ntag_53:\n    /* \"#utility.yul\":7848:7852   */\n  0x00\n    /* \"#utility.yul\":7994:8023   */\n  tag_148\n    /* \"#utility.yul\":8019:8022   */\n  dup4\n    /* \"#utility.yul\":8013:8017   */\n  dup4\n    /* \"#utility.yul\":7994:8023   */\n  tag_52\n  jump\t// in\ntag_148:\n    /* \"#utility.yul\":7986:8023   */\n  swap2\n  pop\n    /* \"#utility.yul\":8056:8059   */\n  dup3\n    /* \"#utility.yul\":8053:8054   */\n  0x02\n    /* \"#utility.yul\":8049:8060   */\n  mul\n    /* \"#utility.yul\":8043:8047   */\n  dup3\n    /* \"#utility.yul\":8040:8061   */\n  or\n    /* \"#utility.yul\":8032:8061   */\n  swap1\n  pop\n    /* \"#utility.yul\":7772:8067   */\n  swap3\n  swap2\n  pop\n  pop\n  jump\t// out\n    /* \"#utility.yul\":8072:9467   */\ntag_14:\n    /* \"#utility.yul\":8189:8226   */\n  tag_150\n    /* \"#utility.yul\":8222:8225   */\n  dup3\n    /* \"#utility.yul\":8189:8226   */\n  tag_35\n  jump\t// in\ntag_150:\n    /* \"#utility.yul\":8291:8309   */\n  0xffffffffffffffff\n    /* \"#utility.yul\":8283:8289   */\n  dup2\n    /* \"#utility.yul\":8280:8310   */\n  gt\n    /* \"#utility.yul\":8277:8333   */\n  iszero\n  tag_151\n  jumpi\n    /* \"#utility.yul\":8313:8331   */\n  tag_152\n  tag_27\n  jump\t// in\ntag_152:\n    /* \"#utility.yul\":8277:8333   */\ntag_151:\n    /* \"#utility.yul\":8357:8395   */\n  tag_153\n    /* \"#utility.yul\":8389:8393   */\n  dup3\n    /* \"#utility.yul\":8383:8394   */\n  sload\n    /* \"#utility.yul\":8357:8395   */\n  tag_37\n  jump\t// in\ntag_153:\n    /* \"#utility.yul\":8442:8509   */\n  tag_154\n    /* \"#utility.yul\":8502:8508   */\n  dup3\n    /* \"#utility.yul\":8494:8500   */\n  dup3\n    /* \"#utility.yul\":8488:8492   */\n  dup6\n    /* \"#utility.yul\":8442:8509   */\n  tag_50\n  jump\t// in\ntag_154:\n    /* \"#utility.yul\":8536:8537   */\n  0x00\n    /* \"#utility.yul\":8560:8564   */\n  0x20\n    /* \"#utility.yul\":8547:8564   */\n  swap1\n  pop\n    /* \"#utility.yul\":8592:8594   */\n  0x1f\n    /* \"#utility.yul\":8584:8590   */\n  dup4\n    /* \"#utility.yul\":8581:8595   */\n  gt\n    /* \"#utility.yul\":8609:8610   */\n  0x01\n    /* \"#utility.yul\":8604:9222   */\n  dup2\n  eq\n  tag_156\n  jumpi\n    /* \"#utility.yul\":9266:9267   */\n  0x00\n    /* \"#utility.yul\":9283:9289   */\n  dup5\n    /* \"#utility.yul\":9280:9357   */\n  iszero\n  tag_157\n  jumpi\n    /* \"#utility.yul\":9332:9341   */\n  dup3\n    /* \"#utility.yul\":9327:9330   */\n  dup8\n    /* \"#utility.yul\":9323:9342   */\n  add\n    /* \"#utility.yul\":9317:9343   */\n  mload\n    /* \"#utility.yul\":9308:9343   */\n  swap1\n  pop\n    /* \"#utility.yul\":9280:9357   */\ntag_157:\n    /* \"#utility.yul\":9383:9450   */\n  tag_158\n    /* \"#utility.yul\":9443:9449   */\n  dup6\n    /* \"#utility.yul\":9436:9441   */\n  dup3\n    /* \"#utility.yul\":9383:9450   */\n  tag_53\n  jump\t// in\ntag_158:\n    /* \"#utility.yul\":9377:9381   */\n  dup7\n    /* \"#utility.yul\":9370:9451   */\n  sstore\n    /* \"#utility.yul\":9239:9461   */\n  pop\n    /* \"#utility.yul\":8574:9461   */\n  jump(tag_155)\n    /* \"#utility.yul\":8604:9222   */\ntag_156:\n    /* \"#utility.yul\":8656:8660   */\n  0x1f\n    /* \"#utility.yul\":8652:8661   */\n  not\n    /* \"#utility.yul\":8644:8650   */\n  dup5\n    /* \"#utility.yul\":8640:8662   */\n  and\n    /* \"#utility.yul\":8690:8727   */\n  tag_159\n    /* \"#utility.yul\":8722:8726   */\n  dup7\n    /* \"#utility.yul\":8690:8727   */\n  tag_38\n  jump\t// in\ntag_159:\n    /* \"#utility.yul\":8749:8750   */\n  0x00\n    /* \"#utility.yul\":8763:8971   */\ntag_160:\n    /* \"#utility.yul\":8777:8784   */\n  dup3\n    /* \"#utility.yul\":8774:8775   */\n  dup2\n    /* \"#utility.yul\":8771:8785   */\n  lt\n    /* \"#utility.yul\":8763:8971   */\n  iszero\n  tag_162\n  jumpi\n    /* \"#utility.yul\":8856:8865   */\n  dup5\n    /* \"#utility.yul\":8851:8854   */\n  dup10\n    /* \"#utility.yul\":8847:8866   */\n  add\n    /* \"#utility.yul\":8841:8867   */\n  mload\n    /* \"#utility.yul\":8833:8839   */\n  dup3\n    /* \"#utility.yul\":8826:8868   */\n  sstore\n    /* \"#utility.yul\":8907:8908   */\n  0x01\n    /* \"#utility.yul\":8899:8905   */\n  dup3\n    /* \"#utility.yul\":8895:8909   */\n  add\n    /* \"#utility.yul\":8885:8909   */\n  swap2\n  pop\n    /* \"#utility.yul\":8954:8956   */\n  0x20\n    /* \"#utility.yul\":8943:8952   */\n  dup6\n    /* \"#utility.yul\":8939:8957   */\n  add\n    /* \"#utility.yul\":8926:8957   */\n  swap5\n  pop\n    /* \"#utility.yul\":8800:8804   */\n  0x20\n    /* \"#utility.yul\":8797:8798   */\n  dup2\n    /* \"#utility.yul\":8793:8805   */\n  add\n    /* \"#utility.yul\":8788:8805   */\n  swap1\n  pop\n    /* \"#utility.yul\":8763:8971   */\n  jump(tag_160)\ntag_162:\n    /* \"#utility.yul\":8999:9005   */\n  dup7\n    /* \"#utility.yul\":8990:8997   */\n  dup4\n    /* \"#utility.yul\":8987:9006   */\n  lt\n    /* \"#utility.yul\":8984:9163   */\n  iszero\n  tag_163\n  jumpi\n    /* \"#utility.yul\":9057:9066   */\n  dup5\n    /* \"#utility.yul\":9052:9055   */\n  dup10\n    /* \"#utility.yul\":9048:9067   */\n  add\n    /* \"#utility.yul\":9042:9068   */\n  mload\n    /* \"#utility.yul\":9100:9148   */\n  tag_164\n    /* \"#utility.yul\":9142:9146   */\n  0x1f\n    /* \"#utility.yul\":9134:9140   */\n  dup10\n    /* \"#utility.yul\":9130:9147   */\n  and\n    /* \"#utility.yul\":9119:9128   */\n  dup3\n    /* \"#utility.yul\":9100:9148   */\n  tag_52\n  jump\t// in\ntag_164:\n    /* \"#utility.yul\":9092:9098   */\n  dup4\n    /* \"#utility.yul\":9085:9149   */\n  sstore\n    /* \"#utility.yul\":9007:9163   */\n  pop\n    /* \"#utility.yul\":8984:9163   */\ntag_163:\n    /* \"#utility.yul\":9209:9210   */\n  0x01\n    /* \"#utility.yul\":9205:9206   */\n  0x02\n    /* \"#utility.yul\":9197:9203   */\n  dup9\n    /* \"#utility.yul\":9193:9207   */\n  mul\n    /* \"#utility.yul\":9189:9211   */\n  add\n    /* \"#utility.yul\":9183:9187   */\n  dup9\n    /* \"#utility.yul\":9176:9212   */\n  sstore\n    /* \"#utility.yul\":8611:9222   */\n  pop\n  pop\n  pop\n    /* \"#utility.yul\":8574:9461   */\ntag_155:\n  pop\n    /* \"#utility.yul\":8164:9467   */\n  pop\n  pop\n  pop\n    /* \"#utility.yul\":8072:9467   */\n  pop\n  pop\n  jump\t// out\n    /* \"Evm/core/base/vault.sol\":561:5689  contract QiaraMultiAssetVault is Ownable {... */\ntag_15:\n  mload(0x80)\n  mload(0xa0)\n  codecopy(0x00, dataOffset(sub_0), dataSize(sub_0))\n  0x00\n  assignImmutable(\"0xa55f93089260f97cd16ec7a717e7ade24f99065bc4509014bd14fefe4d832ab6\")\n  0x00\n  assignImmutable(\"0x1067a32fc2bf4122310a8f066f11577e006583df65ce4c5172289c9680be102c\")\n  return(0x00, dataSize(sub_0))\nstop\n\nsub_0: assembly {\n        /* \"Evm/core/base/vault.sol\":561:5689  contract QiaraMultiAssetVault is Ownable {... */\n      mstore(0x40, 0x80)\n      callvalue\n      dup1\n      iszero\n      tag_1\n      jumpi\n      revert(0x00, 0x00)\n    tag_1:\n      pop\n      jumpi(tag_2, lt(calldatasize, 0x04))\n      shr(0xe0, calldataload(0x00))\n      dup1\n      0x8e27d719\n      gt\n      tag_15\n      jumpi\n      dup1\n      0x8e27d719\n      eq\n      tag_9\n      jumpi\n      dup1\n      0xa4702f03\n      eq\n      tag_10\n      jumpi\n      dup1\n      0xb5f8558c\n      eq\n      tag_11\n      jumpi\n      dup1\n      0xbf4d766e\n      eq\n      tag_12\n      jumpi\n      dup1\n      0xf139721c\n      eq\n      tag_13\n      jumpi\n      dup1\n      0xf2fde38b\n      eq\n      tag_14\n      jumpi\n      jump(tag_2)\n    tag_15:\n      dup1\n      0xdad7d4\n      eq\n      tag_3\n      jumpi\n      dup1\n      0x05d09fb1\n      eq\n      tag_4\n      jumpi\n      dup1\n      0x240028e8\n      eq\n      tag_5\n      jumpi\n      dup1\n      0x715018a6\n      eq\n      tag_6\n      jumpi\n      dup1\n      0x7a9eceb4\n      eq\n      tag_7\n      jumpi\n      dup1\n      0x8da5cb5b\n      eq\n      tag_8\n      jumpi\n    tag_2:\n      revert(0x00, 0x00)\n        /* \"Evm/core/base/vault.sol\":734:760  string public providerName */\n    tag_3:\n      tag_16\n      tag_17\n      jump\t// in\n    tag_16:\n      mload(0x40)\n      tag_18\n      swap2\n      swap1\n      tag_19\n      jump\t// in\n    tag_18:\n      mload(0x40)\n      dup1\n      swap2\n      sub\n      swap1\n      return\n        /* \"Evm/core/base/vault.sol\":1421:1947  function resolveAsset(string memory assetName) public view returns (address) {... */\n    tag_4:\n      tag_20\n      0x04\n      dup1\n      calldatasize\n      sub\n      dup2\n      add\n      swap1\n      tag_21\n      swap2\n      swap1\n      tag_22\n      jump\t// in\n    tag_21:\n      tag_23\n      jump\t// in\n    tag_20:\n      mload(0x40)\n      tag_24\n      swap2\n      swap1\n      tag_25\n      jump\t// in\n    tag_24:\n      mload(0x40)\n      dup1\n      swap2\n      sub\n      swap1\n      return\n        /* \"Evm/core/base/vault.sol\":770:818  mapping(address => bool) public isSupportedToken */\n    tag_5:\n      tag_26\n      0x04\n      dup1\n      calldatasize\n      sub\n      dup2\n      add\n      swap1\n      tag_27\n      swap2\n      swap1\n      tag_28\n      jump\t// in\n    tag_27:\n      tag_29\n      jump\t// in\n    tag_26:\n      mload(0x40)\n      tag_30\n      swap2\n      swap1\n      tag_31\n      jump\t// in\n    tag_30:\n      mload(0x40)\n      dup1\n      swap2\n      sub\n      swap1\n      return\n        /* \"@openzeppelin/contracts/access/Ownable.sol\":2293:2394  function renounceOwnership() public virtual onlyOwner {... */\n    tag_6:\n      tag_32\n      tag_33\n      jump\t// in\n    tag_32:\n      stop\n        /* \"Evm/core/base/vault.sol\":3523:4682  function directWithdraw(address user, string calldata assetName, uint256 amount, uint256 nullifier) external onlyOwner { // ONLY the Delegator contract can call this... */\n    tag_7:\n      tag_34\n      0x04\n      dup1\n      calldatasize\n      sub\n      dup2\n      add\n      swap1\n      tag_35\n      swap2\n      swap1\n      tag_36\n      jump\t// in\n    tag_35:\n      tag_37\n      jump\t// in\n    tag_34:\n      stop\n        /* \"@openzeppelin/contracts/access/Ownable.sol\":1638:1723  function owner() public view virtual returns (address) {... */\n    tag_8:\n      tag_38\n      tag_39\n      jump\t// in\n    tag_38:\n      mload(0x40)\n      tag_40\n      swap2\n      swap1\n      tag_25\n      jump\t// in\n    tag_40:\n      mload(0x40)\n      dup1\n      swap2\n      sub\n      swap1\n      return\n        /* \"Evm/core/base/vault.sol\":4690:5686  function deposit(string calldata assetName, uint256 amount) external {... */\n    tag_9:\n      tag_41\n      0x04\n      dup1\n      calldatasize\n      sub\n      dup2\n      add\n      swap1\n      tag_42\n      swap2\n      swap1\n      tag_43\n      jump\t// in\n    tag_42:\n      tag_44\n      jump\t// in\n    tag_41:\n      stop\n        /* \"Evm/core/base/vault.sol\":2353:3365  function m_withdraw(address user, string calldata assetName, uint256 amount) external { ... */\n    tag_10:\n      tag_45\n      0x04\n      dup1\n      calldatasize\n      sub\n      dup2\n      add\n      swap1\n      tag_46\n      swap2\n      swap1\n      tag_47\n      jump\t// in\n    tag_46:\n      tag_48\n      jump\t// in\n    tag_45:\n      stop\n        /* \"Evm/core/base/vault.sol\":696:727  IEvents public immutable events */\n    tag_11:\n      tag_49\n      tag_50\n      jump\t// in\n    tag_49:\n      mload(0x40)\n      tag_51\n      swap2\n      swap1\n      tag_52\n      jump\t// in\n    tag_51:\n      mload(0x40)\n      dup1\n      swap2\n      sub\n      swap1\n      return\n        /* \"Evm/core/base/vault.sol\":644:689  IVariables public immutable variablesRegistry */\n    tag_12:\n      tag_53\n      tag_54\n      jump\t// in\n    tag_53:\n      mload(0x40)\n      tag_55\n      swap2\n      swap1\n      tag_56\n      jump\t// in\n    tag_55:\n      mload(0x40)\n      dup1\n      swap2\n      sub\n      swap1\n      return\n        /* \"Evm/core/base/vault.sol\":1955:2172  function listNewToken(string calldata assetName) external {... */\n    tag_13:\n      tag_57\n      0x04\n      dup1\n      calldatasize\n      sub\n      dup2\n      add\n      swap1\n      tag_58\n      swap2\n      swap1\n      tag_59\n      jump\t// in\n    tag_58:\n      tag_60\n      jump\t// in\n    tag_57:\n      stop\n        /* \"@openzeppelin/contracts/access/Ownable.sol\":2543:2758  function transferOwnership(address newOwner) public virtual onlyOwner {... */\n    tag_14:\n      tag_61\n      0x04\n      dup1\n      calldatasize\n      sub\n      dup2\n      add\n      swap1\n      tag_62\n      swap2\n      swap1\n      tag_28\n      jump\t// in\n    tag_62:\n      tag_63\n      jump\t// in\n    tag_61:\n      stop\n        /* \"Evm/core/base/vault.sol\":734:760  string public providerName */\n    tag_17:\n      0x01\n      dup1\n      sload\n      tag_64\n      swap1\n      tag_65\n      jump\t// in\n    tag_64:\n      dup1\n      0x1f\n      add\n      0x20\n      dup1\n      swap2\n      div\n      mul\n      0x20\n      add\n      mload(0x40)\n      swap1\n      dup2\n      add\n      0x40\n      mstore\n      dup1\n      swap3\n      swap2\n      swap1\n      dup2\n      dup2\n      mstore\n      0x20\n      add\n      dup3\n      dup1\n      sload\n      tag_66\n      swap1\n      tag_65\n      jump\t// in\n    tag_66:\n      dup1\n      iszero\n      tag_67\n      jumpi\n      dup1\n      0x1f\n      lt\n      tag_68\n      jumpi\n      0x0100\n      dup1\n      dup4\n      sload\n      div\n      mul\n      dup4\n      mstore\n      swap2\n      0x20\n      add\n      swap2\n      jump(tag_67)\n    tag_68:\n      dup3\n      add\n      swap2\n      swap1\n      0x00\n      mstore\n      keccak256(0x00, 0x20)\n      swap1\n    tag_69:\n      dup2\n      sload\n      dup2\n      mstore\n      swap1\n      0x01\n      add\n      swap1\n      0x20\n      add\n      dup1\n      dup4\n      gt\n      tag_69\n      jumpi\n      dup3\n      swap1\n      sub\n      0x1f\n      and\n      dup3\n      add\n      swap2\n    tag_67:\n      pop\n      pop\n      pop\n      pop\n      pop\n      dup2\n      jump\t// out\n        /* \"Evm/core/base/vault.sol\":1421:1947  function resolveAsset(string memory assetName) public view returns (address) {... */\n    tag_23:\n        /* \"Evm/core/base/vault.sol\":1489:1496  address */\n      0x00\n        /* \"Evm/core/base/vault.sol\":1509:1531  string memory tokenKey */\n      0x00\n        /* \"Evm/core/base/vault.sol\":1558:1567  assetName */\n      dup3\n        /* \"Evm/core/base/vault.sol\":1574:1586  providerName */\n      0x01\n        /* \"Evm/core/base/vault.sol\":1541:1587  abi.encodePacked(assetName, \"_\", providerName) */\n      add(0x20, mload(0x40))\n      tag_71\n      swap3\n      swap2\n      swap1\n      tag_72\n      jump\t// in\n    tag_71:\n      mload(0x40)\n      0x20\n      dup2\n      dup4\n      sub\n      sub\n      dup2\n      mstore\n      swap1\n      0x40\n      mstore\n        /* \"Evm/core/base/vault.sol\":1509:1588  string memory tokenKey = string(abi.encodePacked(assetName, \"_\", providerName)) */\n      swap1\n      pop\n        /* \"Evm/core/base/vault.sol\":1599:1622  bytes memory tokenBytes */\n      0x00\n        /* \"Evm/core/base/vault.sol\":1625:1642  variablesRegistry */\n      immutable(\"0x1067a32fc2bf4122310a8f066f11577e006583df65ce4c5172289c9680be102c\")\n        /* \"Evm/core/base/vault.sol\":1625:1660  variablesRegistry.getActiveVariable */\n      0xffffffffffffffffffffffffffffffffffffffff\n      and\n      0x16f1adc1\n        /* \"Evm/core/base/vault.sol\":1681:1689  tokenKey */\n      dup4\n        /* \"Evm/core/base/vault.sol\":1625:1690  variablesRegistry.getActiveVariable(\"QiaraMonadAssets\", tokenKey) */\n      mload(0x40)\n      dup3\n      0xffffffff\n      and\n      0xe0\n      shl\n      dup2\n      mstore\n      0x04\n      add\n      tag_73\n      swap2\n      swap1\n      tag_74\n      jump\t// in\n    tag_73:\n      0x00\n      mload(0x40)\n      dup1\n      dup4\n      sub\n      dup2\n      dup7\n      gas\n      staticcall\n      iszero\n      dup1\n      iszero\n      tag_76\n      jumpi\n      returndatacopy(0x00, 0x00, returndatasize)\n      revert(0x00, returndatasize)\n    tag_76:\n      pop\n      pop\n      pop\n      pop\n      mload(0x40)\n      returndatasize\n      0x00\n      dup3\n      returndatacopy\n      returndatasize\n      not(0x1f)\n      0x1f\n      dup3\n      add\n      and\n      dup3\n      add\n      dup1\n      0x40\n      mstore\n      pop\n      dup2\n      add\n      swap1\n      tag_77\n      swap2\n      swap1\n      tag_78\n      jump\t// in\n    tag_77:\n        /* \"Evm/core/base/vault.sol\":1599:1690  bytes memory tokenBytes = variablesRegistry.getActiveVariable(\"QiaraMonadAssets\", tokenKey) */\n      swap1\n      pop\n        /* \"Evm/core/base/vault.sol\":1740:1742  20 */\n      0x14\n        /* \"Evm/core/base/vault.sol\":1719:1729  tokenBytes */\n      dup2\n        /* \"Evm/core/base/vault.sol\":1719:1736  tokenBytes.length */\n      mload\n        /* \"Evm/core/base/vault.sol\":1719:1742  tokenBytes.length >= 20 */\n      lt\n      iszero\n        /* \"Evm/core/base/vault.sol\":1711:1781  require(tokenBytes.length >= 20, \"Vault: Asset not found in registry\") */\n      tag_79\n      jumpi\n      mload(0x40)\n      0x08c379a000000000000000000000000000000000000000000000000000000000\n      dup2\n      mstore\n      0x04\n      add\n      tag_80\n      swap1\n      tag_81\n      jump\t// in\n    tag_80:\n      mload(0x40)\n      dup1\n      swap2\n      sub\n      swap1\n      revert\n    tag_79:\n        /* \"Evm/core/base/vault.sol\":1802:1822  address assetAddress */\n      0x00\n        /* \"Evm/core/base/vault.sol\":1895:1897  20 */\n      0x14\n        /* \"Evm/core/base/vault.sol\":1883:1893  tokenBytes */\n      dup3\n        /* \"Evm/core/base/vault.sol\":1879:1898  add(tokenBytes, 20) */\n      add\n        /* \"Evm/core/base/vault.sol\":1873:1899  mload(add(tokenBytes, 20)) */\n      mload\n        /* \"Evm/core/base/vault.sol\":1857:1899  assetAddress := mload(add(tokenBytes, 20)) */\n      swap1\n      pop\n        /* \"Evm/core/base/vault.sol\":1927:1939  assetAddress */\n      dup1\n        /* \"Evm/core/base/vault.sol\":1920:1939  return assetAddress */\n      swap4\n      pop\n      pop\n      pop\n      pop\n        /* \"Evm/core/base/vault.sol\":1421:1947  function resolveAsset(string memory assetName) public view returns (address) {... */\n      swap2\n      swap1\n      pop\n      jump\t// out\n        /* \"Evm/core/base/vault.sol\":770:818  mapping(address => bool) public isSupportedToken */\n    tag_29:\n      mstore(0x20, 0x02)\n      dup1\n      0x00\n      mstore\n      keccak256(0x00, 0x40)\n      0x00\n      swap2\n      pop\n      sload\n      swap1\n      0x0100\n      exp\n      swap1\n      div\n      0xff\n      and\n      dup2\n      jump\t// out\n        /* \"@openzeppelin/contracts/access/Ownable.sol\":2293:2394  function renounceOwnership() public virtual onlyOwner {... */\n    tag_33:\n        /* \"@openzeppelin/contracts/access/Ownable.sol\":1531:1544  _checkOwner() */\n      tag_83\n        /* \"@openzeppelin/contracts/access/Ownable.sol\":1531:1542  _checkOwner */\n      tag_84\n        /* \"@openzeppelin/contracts/access/Ownable.sol\":1531:1544  _checkOwner() */\n      jump\t// in\n    tag_83:\n        /* \"@openzeppelin/contracts/access/Ownable.sol\":2357:2387  _transferOwnership(address(0)) */\n      tag_86\n        /* \"@openzeppelin/contracts/access/Ownable.sol\":2384:2385  0 */\n      0x00\n        /* \"@openzeppelin/contracts/access/Ownable.sol\":2357:2375  _transferOwnership */\n      tag_87\n        /* \"@openzeppelin/contracts/access/Ownable.sol\":2357:2387  _transferOwnership(address(0)) */\n      jump\t// in\n    tag_86:\n        /* \"@openzeppelin/contracts/access/Ownable.sol\":2293:2394  function renounceOwnership() public virtual onlyOwner {... */\n      jump\t// out\n        /* \"Evm/core/base/vault.sol\":3523:4682  function directWithdraw(address user, string calldata assetName, uint256 amount, uint256 nullifier) external onlyOwner { // ONLY the Delegator contract can call this... */\n    tag_37:\n        /* \"@openzeppelin/contracts/access/Ownable.sol\":1531:1544  _checkOwner() */\n      tag_89\n        /* \"@openzeppelin/contracts/access/Ownable.sol\":1531:1542  _checkOwner */\n      tag_84\n        /* \"@openzeppelin/contracts/access/Ownable.sol\":1531:1544  _checkOwner() */\n      jump\t// in\n    tag_89:\n        /* \"Evm/core/base/vault.sol\":3698:3711  address token */\n      0x00\n        /* \"Evm/core/base/vault.sol\":3714:3737  resolveAsset(assetName) */\n      tag_91\n        /* \"Evm/core/base/vault.sol\":3727:3736  assetName */\n      dup6\n      dup6\n        /* \"Evm/core/base/vault.sol\":3714:3737  resolveAsset(assetName) */\n      dup1\n      dup1\n      0x1f\n      add\n      0x20\n      dup1\n      swap2\n      div\n      mul\n      0x20\n      add\n      mload(0x40)\n      swap1\n      dup2\n      add\n      0x40\n      mstore\n      dup1\n      swap4\n      swap3\n      swap2\n      swap1\n      dup2\n      dup2\n      mstore\n      0x20\n      add\n      dup4\n      dup4\n      dup1\n      dup3\n      dup5\n      calldatacopy\n      0x00\n      dup2\n      dup5\n      add\n      mstore\n      not(0x1f)\n      0x1f\n      dup3\n      add\n      and\n      swap1\n      pop\n      dup1\n      dup4\n      add\n      swap3\n      pop\n      pop\n      pop\n      pop\n      pop\n      pop\n      pop\n        /* \"Evm/core/base/vault.sol\":3714:3726  resolveAsset */\n      tag_23\n        /* \"Evm/core/base/vault.sol\":3714:3737  resolveAsset(assetName) */\n      jump\t// in\n    tag_91:\n        /* \"Evm/core/base/vault.sol\":3698:3737  address token = resolveAsset(assetName) */\n      swap1\n      pop\n        /* \"Evm/core/base/vault.sol\":3756:3772  isSupportedToken */\n      0x02\n        /* \"Evm/core/base/vault.sol\":3756:3779  isSupportedToken[token] */\n      0x00\n        /* \"Evm/core/base/vault.sol\":3773:3778  token */\n      dup3\n        /* \"Evm/core/base/vault.sol\":3756:3779  isSupportedToken[token] */\n      0xffffffffffffffffffffffffffffffffffffffff\n      and\n      0xffffffffffffffffffffffffffffffffffffffff\n      and\n      dup2\n      mstore\n      0x20\n      add\n      swap1\n      dup2\n      mstore\n      0x20\n      add\n      0x00\n      keccak256\n      0x00\n      swap1\n      sload\n      swap1\n      0x0100\n      exp\n      swap1\n      div\n      0xff\n      and\n        /* \"Evm/core/base/vault.sol\":3748:3810  require(isSupportedToken[token], \"Vault: Token not supported\") */\n      tag_92\n      jumpi\n      mload(0x40)\n      0x08c379a000000000000000000000000000000000000000000000000000000000\n      dup2\n      mstore\n      0x04\n      add\n      tag_93\n      swap1\n      tag_94\n      jump\t// in\n    tag_93:\n      mload(0x40)\n      dup1\n      swap2\n      sub\n      swap1\n      revert\n    tag_92:\n        /* \"Evm/core/base/vault.sol\":3887:3927  IERC20(token).safeTransfer(user, amount) */\n      tag_95\n        /* \"Evm/core/base/vault.sol\":3914:3918  user */\n      dup7\n        /* \"Evm/core/base/vault.sol\":3920:3926  amount */\n      dup5\n        /* \"Evm/core/base/vault.sol\":3894:3899  token */\n      dup4\n        /* \"Evm/core/base/vault.sol\":3887:3913  IERC20(token).safeTransfer */\n      0xffffffffffffffffffffffffffffffffffffffff\n      and\n      tag_96\n      swap1\n        /* \"Evm/core/base/vault.sol\":3887:3927  IERC20(token).safeTransfer(user, amount) */\n      swap3\n      swap2\n      swap1\n      0xffffffff\n      and\n      jump\t// in\n    tag_95:\n        /* \"Evm/core/base/vault.sol\":3986:4017  IEvents.Data[] memory eventData */\n      0x00\n        /* \"Evm/core/base/vault.sol\":4039:4040  6 */\n      0x06\n        /* \"Evm/core/base/vault.sol\":4020:4041  new IEvents.Data[](6) */\n      0xffffffffffffffff\n      dup2\n      gt\n      iszero\n      tag_97\n      jumpi\n      tag_98\n      tag_99\n      jump\t// in\n    tag_98:\n    tag_97:\n      mload(0x40)\n      swap1\n      dup1\n      dup3\n      mstore\n      dup1\n      0x20\n      mul\n      0x20\n      add\n      dup3\n      add\n      0x40\n      mstore\n      dup1\n      iszero\n      tag_100\n      jumpi\n      dup2\n      0x20\n      add\n    tag_101:\n      tag_102\n      tag_103\n      jump\t// in\n    tag_102:\n      dup2\n      mstore\n      0x20\n      add\n      swap1\n      0x01\n      swap1\n      sub\n      swap1\n      dup2\n      tag_101\n      jumpi\n      swap1\n      pop\n    tag_100:\n      pop\n        /* \"Evm/core/base/vault.sol\":3986:4041  IEvents.Data[] memory eventData = new IEvents.Data[](6) */\n      swap1\n      pop\n        /* \"Evm/core/base/vault.sol\":4067:4116  IEvents.Data(\"user\", \"address\", abi.encode(user)) */\n      mload(0x40)\n      dup1\n      0x60\n      add\n      0x40\n      mstore\n      dup1\n      mload(0x40)\n      dup1\n      0x40\n      add\n      0x40\n      mstore\n      dup1\n      0x04\n      dup2\n      mstore\n      0x20\n      add\n      0x7573657200000000000000000000000000000000000000000000000000000000\n      dup2\n      mstore\n      pop\n      dup2\n      mstore\n      0x20\n      add\n      mload(0x40)\n      dup1\n      0x40\n      add\n      0x40\n      mstore\n      dup1\n      0x07\n      dup2\n      mstore\n      0x20\n      add\n      0x6164647265737300000000000000000000000000000000000000000000000000\n      dup2\n      mstore\n      pop\n      dup2\n      mstore\n      0x20\n      add\n        /* \"Evm/core/base/vault.sol\":4110:4114  user */\n      dup9\n        /* \"Evm/core/base/vault.sol\":4099:4115  abi.encode(user) */\n      add(0x20, mload(0x40))\n      tag_104\n      swap2\n      swap1\n      tag_25\n      jump\t// in\n    tag_104:\n      mload(0x40)\n      0x20\n      dup2\n      dup4\n      sub\n      sub\n      dup2\n      mstore\n      swap1\n      0x40\n      mstore\n        /* \"Evm/core/base/vault.sol\":4067:4116  IEvents.Data(\"user\", \"address\", abi.encode(user)) */\n      dup2\n      mstore\n      pop\n        /* \"Evm/core/base/vault.sol\":4052:4061  eventData */\n      dup2\n        /* \"Evm/core/base/vault.sol\":4062:4063  0 */\n      0x00\n        /* \"Evm/core/base/vault.sol\":4052:4064  eventData[0] */\n      dup2\n      mload\n      dup2\n      lt\n      tag_105\n      jumpi\n      tag_106\n      tag_107\n      jump\t// in\n    tag_106:\n    tag_105:\n      0x20\n      mul\n      0x20\n      add\n      add\n        /* \"Evm/core/base/vault.sol\":4052:4116  eventData[0] = IEvents.Data(\"user\", \"address\", abi.encode(user)) */\n      dup2\n      swap1\n      mstore\n      pop\n        /* \"Evm/core/base/vault.sol\":4142:4195  IEvents.Data(\"amount\", \"uint256\", abi.encode(amount)) */\n      mload(0x40)\n      dup1\n      0x60\n      add\n      0x40\n      mstore\n      dup1\n      mload(0x40)\n      dup1\n      0x40\n      add\n      0x40\n      mstore\n      dup1\n      0x06\n      dup2\n      mstore\n      0x20\n      add\n      0x616d6f756e740000000000000000000000000000000000000000000000000000\n      dup2\n      mstore\n      pop\n      dup2\n      mstore\n      0x20\n      add\n      mload(0x40)\n      dup1\n      0x40\n      add\n      0x40\n      mstore\n      dup1\n      0x07\n      dup2\n      mstore\n      0x20\n      add\n      0x75696e7432353600000000000000000000000000000000000000000000000000\n      dup2\n      mstore\n      pop\n      dup2\n      mstore\n      0x20\n      add\n        /* \"Evm/core/base/vault.sol\":4187:4193  amount */\n      dup6\n        /* \"Evm/core/base/vault.sol\":4176:4194  abi.encode(amount) */\n      add(0x20, mload(0x40))\n      tag_108\n      swap2\n      swap1\n      tag_109\n      jump\t// in\n    tag_108:\n      mload(0x40)\n      0x20\n      dup2\n      dup4\n      sub\n      sub\n      dup2\n      mstore\n      swap1\n      0x40\n      mstore\n        /* \"Evm/core/base/vault.sol\":4142:4195  IEvents.Data(\"amount\", \"uint256\", abi.encode(amount)) */\n      dup2\n      mstore\n      pop\n        /* \"Evm/core/base/vault.sol\":4127:4136  eventData */\n      dup2\n        /* \"Evm/core/base/vault.sol\":4137:4138  1 */\n      0x01\n        /* \"Evm/core/base/vault.sol\":4127:4139  eventData[1] */\n      dup2\n      mload\n      dup2\n      lt\n      tag_110\n      jumpi\n      tag_111\n      tag_107\n      jump\t// in\n    tag_111:\n    tag_110:\n      0x20\n      mul\n      0x20\n      add\n      add\n        /* \"Evm/core/base/vault.sol\":4127:4195  eventData[1] = IEvents.Data(\"amount\", \"uint256\", abi.encode(amount)) */\n      dup2\n      swap1\n      mstore\n      pop\n        /* \"Evm/core/base/vault.sol\":4221:4275  IEvents.Data(\"token\", \"string\", abi.encode(assetName)) */\n      mload(0x40)\n      dup1\n      0x60\n      add\n      0x40\n      mstore\n      dup1\n      mload(0x40)\n      dup1\n      0x40\n      add\n      0x40\n      mstore\n      dup1\n      0x05\n      dup2\n      mstore\n      0x20\n      add\n      0x746f6b656e000000000000000000000000000000000000000000000000000000\n      dup2\n      mstore\n      pop\n      dup2\n      mstore\n      0x20\n      add\n      mload(0x40)\n      dup1\n      0x40\n      add\n      0x40\n      mstore\n      dup1\n      0x06\n      dup2\n      mstore\n      0x20\n      add\n      0x737472696e670000000000000000000000000000000000000000000000000000\n      dup2\n      mstore\n      pop\n      dup2\n      mstore\n      0x20\n      add\n        /* \"Evm/core/base/vault.sol\":4264:4273  assetName */\n      dup8\n      dup8\n        /* \"Evm/core/base/vault.sol\":4253:4274  abi.encode(assetName) */\n      add(0x20, mload(0x40))\n      tag_112\n      swap3\n      swap2\n      swap1\n      tag_113\n      jump\t// in\n    tag_112:\n      mload(0x40)\n      0x20\n      dup2\n      dup4\n      sub\n      sub\n      dup2\n      mstore\n      swap1\n      0x40\n      mstore\n        /* \"Evm/core/base/vault.sol\":4221:4275  IEvents.Data(\"token\", \"string\", abi.encode(assetName)) */\n      dup2\n      mstore\n      pop\n        /* \"Evm/core/base/vault.sol\":4206:4215  eventData */\n      dup2\n        /* \"Evm/core/base/vault.sol\":4216:4217  2 */\n      0x02\n        /* \"Evm/core/base/vault.sol\":4206:4218  eventData[2] */\n      dup2\n      mload\n      dup2\n      lt\n      tag_114\n      jumpi\n      tag_115\n      tag_107\n      jump\t// in\n    tag_115:\n    tag_114:\n      0x20\n      mul\n      0x20\n      add\n      add\n        /* \"Evm/core/base/vault.sol\":4206:4275  eventData[2] = IEvents.Data(\"token\", \"string\", abi.encode(assetName)) */\n      dup2\n      swap1\n      mstore\n      pop\n        /* \"Evm/core/base/vault.sol\":4301:4361  IEvents.Data(\"provider\", \"string\", abi.encode(providerName)) */\n      mload(0x40)\n      dup1\n      0x60\n      add\n      0x40\n      mstore\n      dup1\n      mload(0x40)\n      dup1\n      0x40\n      add\n      0x40\n      mstore\n      dup1\n      0x08\n      dup2\n      mstore\n      0x20\n      add\n      0x70726f7669646572000000000000000000000000000000000000000000000000\n      dup2\n      mstore\n      pop\n      dup2\n      mstore\n      0x20\n      add\n      mload(0x40)\n      dup1\n      0x40\n      add\n      0x40\n      mstore\n      dup1\n      0x06\n      dup2\n      mstore\n      0x20\n      add\n      0x737472696e670000000000000000000000000000000000000000000000000000\n      dup2\n      mstore\n      pop\n      dup2\n      mstore\n      0x20\n      add\n        /* \"Evm/core/base/vault.sol\":4347:4359  providerName */\n      0x01\n        /* \"Evm/core/base/vault.sol\":4336:4360  abi.encode(providerName) */\n      add(0x20, mload(0x40))\n      tag_116\n      swap2\n      swap1\n      tag_117\n      jump\t// in\n    tag_116:\n      mload(0x40)\n      0x20\n      dup2\n      dup4\n      sub\n      sub\n      dup2\n      mstore\n      swap1\n      0x40\n      mstore\n        /* \"Evm/core/base/vault.sol\":4301:4361  IEvents.Data(\"provider\", \"string\", abi.encode(providerName)) */\n      dup2\n      mstore\n      pop\n        /* \"Evm/core/base/vault.sol\":4286:4295  eventData */\n      dup2\n        /* \"Evm/core/base/vault.sol\":4296:4297  3 */\n      0x03\n        /* \"Evm/core/base/vault.sol\":4286:4298  eventData[3] */\n      dup2\n      mload\n      dup2\n      lt\n      tag_118\n      jumpi\n      tag_119\n      tag_107\n      jump\t// in\n    tag_119:\n    tag_118:\n      0x20\n      mul\n      0x20\n      add\n      add\n        /* \"Evm/core/base/vault.sol\":4286:4361  eventData[3] = IEvents.Data(\"provider\", \"string\", abi.encode(providerName)) */\n      dup2\n      swap1\n      mstore\n      pop\n        /* \"Evm/core/base/vault.sol\":4387:4446  IEvents.Data(\"nullifier\", \"uint256\", abi.encode(nullifier)) */\n      mload(0x40)\n      dup1\n      0x60\n      add\n      0x40\n      mstore\n      dup1\n      mload(0x40)\n      dup1\n      0x40\n      add\n      0x40\n      mstore\n      dup1\n      0x09\n      dup2\n      mstore\n      0x20\n      add\n      0x6e756c6c69666965720000000000000000000000000000000000000000000000\n      dup2\n      mstore\n      pop\n      dup2\n      mstore\n      0x20\n      add\n      mload(0x40)\n      dup1\n      0x40\n      add\n      0x40\n      mstore\n      dup1\n      0x07\n      dup2\n      mstore\n      0x20\n      add\n      0x75696e7432353600000000000000000000000000000000000000000000000000\n      dup2\n      mstore\n      pop\n      dup2\n      mstore\n      0x20\n      add\n        /* \"Evm/core/base/vault.sol\":4435:4444  nullifier */\n      dup5\n        /* \"Evm/core/base/vault.sol\":4424:4445  abi.encode(nullifier) */\n      add(0x20, mload(0x40))\n      tag_120\n      swap2\n      swap1\n      tag_109\n      jump\t// in\n    tag_120:\n      mload(0x40)\n      0x20\n      dup2\n      dup4\n      sub\n      sub\n      dup2\n      mstore\n      swap1\n      0x40\n      mstore\n        /* \"Evm/core/base/vault.sol\":4387:4446  IEvents.Data(\"nullifier\", \"uint256\", abi.encode(nullifier)) */\n      dup2\n      mstore\n      pop\n        /* \"Evm/core/base/vault.sol\":4372:4381  eventData */\n      dup2\n        /* \"Evm/core/base/vault.sol\":4382:4383  4 */\n      0x04\n        /* \"Evm/core/base/vault.sol\":4372:4384  eventData[4] */\n      dup2\n      mload\n      dup2\n      lt\n      tag_121\n      jumpi\n      tag_122\n      tag_107\n      jump\t// in\n    tag_122:\n    tag_121:\n      0x20\n      mul\n      0x20\n      add\n      add\n        /* \"Evm/core/base/vault.sol\":4372:4446  eventData[4] = IEvents.Data(\"nullifier\", \"uint256\", abi.encode(nullifier)) */\n      dup2\n      swap1\n      mstore\n      pop\n        /* \"Evm/core/base/vault.sol\":4472:4537  IEvents.Data(\"timestamp\", \"uint256\", abi.encode(block.timestamp)) */\n      mload(0x40)\n      dup1\n      0x60\n      add\n      0x40\n      mstore\n      dup1\n      mload(0x40)\n      dup1\n      0x40\n      add\n      0x40\n      mstore\n      dup1\n      0x09\n      dup2\n      mstore\n      0x20\n      add\n      0x74696d657374616d700000000000000000000000000000000000000000000000\n      dup2\n      mstore\n      pop\n      dup2\n      mstore\n      0x20\n      add\n      mload(0x40)\n      dup1\n      0x40\n      add\n      0x40\n      mstore\n      dup1\n      0x07\n      dup2\n      mstore\n      0x20\n      add\n      0x75696e7432353600000000000000000000000000000000000000000000000000\n      dup2\n      mstore\n      pop\n      dup2\n      mstore\n      0x20\n      add\n        /* \"Evm/core/base/vault.sol\":4520:4535  block.timestamp */\n      timestamp\n        /* \"Evm/core/base/vault.sol\":4509:4536  abi.encode(block.timestamp) */\n      add(0x20, mload(0x40))\n      tag_123\n      swap2\n      swap1\n      tag_109\n      jump\t// in\n    tag_123:\n      mload(0x40)\n      0x20\n      dup2\n      dup4\n      sub\n      sub\n      dup2\n      mstore\n      swap1\n      0x40\n      mstore\n        /* \"Evm/core/base/vault.sol\":4472:4537  IEvents.Data(\"timestamp\", \"uint256\", abi.encode(block.timestamp)) */\n      dup2\n      mstore\n      pop\n        /* \"Evm/core/base/vault.sol\":4457:4466  eventData */\n      dup2\n        /* \"Evm/core/base/vault.sol\":4467:4468  5 */\n      0x05\n        /* \"Evm/core/base/vault.sol\":4457:4469  eventData[5] */\n      dup2\n      mload\n      dup2\n      lt\n      tag_124\n      jumpi\n      tag_125\n      tag_107\n      jump\t// in\n    tag_125:\n    tag_124:\n      0x20\n      mul\n      0x20\n      add\n      add\n        /* \"Evm/core/base/vault.sol\":4457:4537  eventData[5] = IEvents.Data(\"timestamp\", \"uint256\", abi.encode(block.timestamp)) */\n      dup2\n      swap1\n      mstore\n      pop\n        /* \"Evm/core/base/vault.sol\":4558:4564  events */\n      immutable(\"0xa55f93089260f97cd16ec7a717e7ade24f99065bc4509014bd14fefe4d832ab6\")\n        /* \"Evm/core/base/vault.sol\":4558:4579  events.emitVaultEvent */\n      0xffffffffffffffffffffffffffffffffffffffff\n      and\n      0x7d64fa9b\n        /* \"Evm/core/base/vault.sol\":4599:4608  eventData */\n      dup3\n        /* \"Evm/core/base/vault.sol\":4558:4609  events.emitVaultEvent(\"Direct Withdraw\", eventData) */\n      mload(0x40)\n      dup3\n      0xffffffff\n      and\n      0xe0\n      shl\n      dup2\n      mstore\n      0x04\n      add\n      tag_126\n      swap2\n      swap1\n      tag_127\n      jump\t// in\n    tag_126:\n      0x00\n      mload(0x40)\n      dup1\n      dup4\n      sub\n      dup2\n      0x00\n      dup8\n      dup1\n      extcodesize\n      iszero\n      dup1\n      iszero\n      tag_128\n      jumpi\n      revert(0x00, 0x00)\n    tag_128:\n      pop\n      gas\n      call\n      iszero\n      dup1\n      iszero\n      tag_130\n      jumpi\n      returndatacopy(0x00, 0x00, returndatasize)\n      revert(0x00, returndatasize)\n    tag_130:\n      pop\n      pop\n      pop\n      pop\n        /* \"Evm/core/base/vault.sol\":4646:4651  token */\n      dup2\n        /* \"Evm/core/base/vault.sol\":4625:4674  DirectWithdraw(user, token, amount, providerName) */\n      0xffffffffffffffffffffffffffffffffffffffff\n      and\n        /* \"Evm/core/base/vault.sol\":4640:4644  user */\n      dup8\n        /* \"Evm/core/base/vault.sol\":4625:4674  DirectWithdraw(user, token, amount, providerName) */\n      0xffffffffffffffffffffffffffffffffffffffff\n      and\n      0xcc4f8702356931e6d23a93d1b60beac6a7ea77d447ada4b1502a09d0b7125709\n        /* \"Evm/core/base/vault.sol\":4653:4659  amount */\n      dup7\n        /* \"Evm/core/base/vault.sol\":4661:4673  providerName */\n      0x01\n        /* \"Evm/core/base/vault.sol\":4625:4674  DirectWithdraw(user, token, amount, providerName) */\n      mload(0x40)\n      tag_131\n      swap3\n      swap2\n      swap1\n      tag_132\n      jump\t// in\n    tag_131:\n      mload(0x40)\n      dup1\n      swap2\n      sub\n      swap1\n      log3\n        /* \"Evm/core/base/vault.sol\":3642:4682  { // ONLY the Delegator contract can call this... */\n      pop\n      pop\n        /* \"Evm/core/base/vault.sol\":3523:4682  function directWithdraw(address user, string calldata assetName, uint256 amount, uint256 nullifier) external onlyOwner { // ONLY the Delegator contract can call this... */\n      pop\n      pop\n      pop\n      pop\n      pop\n      jump\t// out\n        /* \"@openzeppelin/contracts/access/Ownable.sol\":1638:1723  function owner() public view virtual returns (address) {... */\n    tag_39:\n        /* \"@openzeppelin/contracts/access/Ownable.sol\":1684:1691  address */\n      0x00\n        /* \"@openzeppelin/contracts/access/Ownable.sol\":1710:1716  _owner */\n      0x00\n      0x00\n      swap1\n      sload\n      swap1\n      0x0100\n      exp\n      swap1\n      div\n      0xffffffffffffffffffffffffffffffffffffffff\n      and\n        /* \"@openzeppelin/contracts/access/Ownable.sol\":1703:1716  return _owner */\n      swap1\n      pop\n        /* \"@openzeppelin/contracts/access/Ownable.sol\":1638:1723  function owner() public view virtual returns (address) {... */\n      swap1\n      jump\t// out\n        /* \"Evm/core/base/vault.sol\":4690:5686  function deposit(string calldata assetName, uint256 amount) external {... */\n    tag_44:\n        /* \"Evm/core/base/vault.sol\":4770:4783  address token */\n      0x00\n        /* \"Evm/core/base/vault.sol\":4786:4809  resolveAsset(assetName) */\n      tag_135\n        /* \"Evm/core/base/vault.sol\":4799:4808  assetName */\n      dup5\n      dup5\n        /* \"Evm/core/base/vault.sol\":4786:4809  resolveAsset(assetName) */\n      dup1\n      dup1\n      0x1f\n      add\n      0x20\n      dup1\n      swap2\n      div\n      mul\n      0x20\n      add\n      mload(0x40)\n      swap1\n      dup2\n      add\n      0x40\n      mstore\n      dup1\n      swap4\n      swap3\n      swap2\n      swap1\n      dup2\n      dup2\n      mstore\n      0x20\n      add\n      dup4\n      dup4\n      dup1\n      dup3\n      dup5\n      calldatacopy\n      0x00\n      dup2\n      dup5\n      add\n      mstore\n      not(0x1f)\n      0x1f\n      dup3\n      add\n      and\n      swap1\n      pop\n      dup1\n      dup4\n      add\n      swap3\n      pop\n      pop\n      pop\n      pop\n      pop\n      pop\n      pop\n        /* \"Evm/core/base/vault.sol\":4786:4798  resolveAsset */\n      tag_23\n        /* \"Evm/core/base/vault.sol\":4786:4809  resolveAsset(assetName) */\n      jump\t// in\n    tag_135:\n        /* \"Evm/core/base/vault.sol\":4770:4809  address token = resolveAsset(assetName) */\n      swap1\n      pop\n        /* \"Evm/core/base/vault.sol\":4828:4844  isSupportedToken */\n      0x02\n        /* \"Evm/core/base/vault.sol\":4828:4851  isSupportedToken[token] */\n      0x00\n        /* \"Evm/core/base/vault.sol\":4845:4850  token */\n      dup3\n        /* \"Evm/core/base/vault.sol\":4828:4851  isSupportedToken[token] */\n      0xffffffffffffffffffffffffffffffffffffffff\n      and\n      0xffffffffffffffffffffffffffffffffffffffff\n      and\n      dup2\n      mstore\n      0x20\n      add\n      swap1\n      dup2\n      mstore\n      0x20\n      add\n      0x00\n      keccak256\n      0x00\n      swap1\n      sload\n      swap1\n      0x0100\n      exp\n      swap1\n      div\n      0xff\n      and\n        /* \"Evm/core/base/vault.sol\":4820:4882  require(isSupportedToken[token], \"Vault: Token not supported\") */\n      tag_136\n      jumpi\n      mload(0x40)\n      0x08c379a000000000000000000000000000000000000000000000000000000000\n      dup2\n      mstore\n      0x04\n      add\n      tag_137\n      swap1\n      tag_94\n      jump\t// in\n    tag_137:\n      mload(0x40)\n      dup1\n      swap2\n      sub\n      swap1\n      revert\n    tag_136:\n        /* \"Evm/core/base/vault.sol\":4910:4911  0 */\n      0x00\n        /* \"Evm/core/base/vault.sol\":4901:4907  amount */\n      dup3\n        /* \"Evm/core/base/vault.sol\":4901:4911  amount > 0 */\n      gt\n        /* \"Evm/core/base/vault.sol\":4893:4942  require(amount > 0, \"Vault: Deposit must be > 0\") */\n      tag_138\n      jumpi\n      mload(0x40)\n      0x08c379a000000000000000000000000000000000000000000000000000000000\n      dup2\n      mstore\n      0x04\n      add\n      tag_139\n      swap1\n      tag_140\n      jump\t// in\n    tag_139:\n      mload(0x40)\n      dup1\n      swap2\n      sub\n      swap1\n      revert\n    tag_138:\n        /* \"Evm/core/base/vault.sol\":5008:5073  IERC20(token).safeTransferFrom(msg.sender, address(this), amount) */\n      tag_141\n        /* \"Evm/core/base/vault.sol\":5039:5049  msg.sender */\n      caller\n        /* \"Evm/core/base/vault.sol\":5059:5063  this */\n      address\n        /* \"Evm/core/base/vault.sol\":5066:5072  amount */\n      dup5\n        /* \"Evm/core/base/vault.sol\":5015:5020  token */\n      dup5\n        /* \"Evm/core/base/vault.sol\":5008:5038  IERC20(token).safeTransferFrom */\n      0xffffffffffffffffffffffffffffffffffffffff\n      and\n      tag_142\n      swap1\n        /* \"Evm/core/base/vault.sol\":5008:5073  IERC20(token).safeTransferFrom(msg.sender, address(this), amount) */\n      swap4\n      swap3\n      swap2\n      swap1\n      0xffffffff\n      and\n      jump\t// in\n    tag_141:\n        /* \"Evm/core/base/vault.sol\":5086:5117  IEvents.Data[] memory eventData */\n      0x00\n        /* \"Evm/core/base/vault.sol\":5139:5140  5 */\n      0x05\n        /* \"Evm/core/base/vault.sol\":5120:5141  new IEvents.Data[](5) */\n      0xffffffffffffffff\n      dup2\n      gt\n      iszero\n      tag_143\n      jumpi\n      tag_144\n      tag_99\n      jump\t// in\n    tag_144:\n    tag_143:\n      mload(0x40)\n      swap1\n      dup1\n      dup3\n      mstore\n      dup1\n      0x20\n      mul\n      0x20\n      add\n      dup3\n      add\n      0x40\n      mstore\n      dup1\n      iszero\n      tag_145\n      jumpi\n      dup2\n      0x20\n      add\n    tag_146:\n      tag_147\n      tag_103\n      jump\t// in\n    tag_147:\n      dup2\n      mstore\n      0x20\n      add\n      swap1\n      0x01\n      swap1\n      sub\n      swap1\n      dup2\n      tag_146\n      jumpi\n      swap1\n      pop\n    tag_145:\n      pop\n        /* \"Evm/core/base/vault.sol\":5086:5141  IEvents.Data[] memory eventData = new IEvents.Data[](5) */\n      swap1\n      pop\n        /* \"Evm/core/base/vault.sol\":5167:5222  IEvents.Data(\"user\", \"address\", abi.encode(msg.sender)) */\n      mload(0x40)\n      dup1\n      0x60\n      add\n      0x40\n      mstore\n      dup1\n      mload(0x40)\n      dup1\n      0x40\n      add\n      0x40\n      mstore\n      dup1\n      0x04\n      dup2\n      mstore\n      0x20\n      add\n      0x7573657200000000000000000000000000000000000000000000000000000000\n      dup2\n      mstore\n      pop\n      dup2\n      mstore\n      0x20\n      add\n      mload(0x40)\n      dup1\n      0x40\n      add\n      0x40\n      mstore\n      dup1\n      0x07\n      dup2\n      mstore\n      0x20\n      add\n      0x6164647265737300000000000000000000000000000000000000000000000000\n      dup2\n      mstore\n      pop\n      dup2\n      mstore\n      0x20\n      add\n        /* \"Evm/core/base/vault.sol\":5210:5220  msg.sender */\n      caller\n        /* \"Evm/core/base/vault.sol\":5199:5221  abi.encode(msg.sender) */\n      add(0x20, mload(0x40))\n      tag_148\n      swap2\n      swap1\n      tag_25\n      jump\t// in\n    tag_148:\n      mload(0x40)\n      0x20\n      dup2\n      dup4\n      sub\n      sub\n      dup2\n      mstore\n      swap1\n      0x40\n      mstore\n        /* \"Evm/core/base/vault.sol\":5167:5222  IEvents.Data(\"user\", \"address\", abi.encode(msg.sender)) */\n      dup2\n      mstore\n      pop\n        /* \"Evm/core/base/vault.sol\":5152:5161  eventData */\n      dup2\n        /* \"Evm/core/base/vault.sol\":5162:5163  0 */\n      0x00\n        /* \"Evm/core/base/vault.sol\":5152:5164  eventData[0] */\n      dup2\n      mload\n      dup2\n      lt\n      tag_149\n      jumpi\n      tag_150\n      tag_107\n      jump\t// in\n    tag_150:\n    tag_149:\n      0x20\n      mul\n      0x20\n      add\n      add\n        /* \"Evm/core/base/vault.sol\":5152:5222  eventData[0] = IEvents.Data(\"user\", \"address\", abi.encode(msg.sender)) */\n      dup2\n      swap1\n      mstore\n      pop\n        /* \"Evm/core/base/vault.sol\":5248:5301  IEvents.Data(\"amount\", \"uint256\", abi.encode(amount)) */\n      mload(0x40)\n      dup1\n      0x60\n      add\n      0x40\n      mstore\n      dup1\n      mload(0x40)\n      dup1\n      0x40\n      add\n      0x40\n      mstore\n      dup1\n      0x06\n      dup2\n      mstore\n      0x20\n      add\n      0x616d6f756e740000000000000000000000000000000000000000000000000000\n      dup2\n      mstore\n      pop\n      dup2\n      mstore\n      0x20\n      add\n      mload(0x40)\n      dup1\n      0x40\n      add\n      0x40\n      mstore\n      dup1\n      0x07\n      dup2\n      mstore\n      0x20\n      add\n      0x75696e7432353600000000000000000000000000000000000000000000000000\n      dup2\n      mstore\n      pop\n      dup2\n      mstore\n      0x20\n      add\n        /* \"Evm/core/base/vault.sol\":5293:5299  amount */\n      dup5\n        /* \"Evm/core/base/vault.sol\":5282:5300  abi.encode(amount) */\n      add(0x20, mload(0x40))\n      tag_151\n      swap2\n      swap1\n      tag_109\n      jump\t// in\n    tag_151:\n      mload(0x40)\n      0x20\n      dup2\n      dup4\n      sub\n      sub\n      dup2\n      mstore\n      swap1\n      0x40\n      mstore\n        /* \"Evm/core/base/vault.sol\":5248:5301  IEvents.Data(\"amount\", \"uint256\", abi.encode(amount)) */\n      dup2\n      mstore\n      pop\n        /* \"Evm/core/base/vault.sol\":5233:5242  eventData */\n      dup2\n        /* \"Evm/core/base/vault.sol\":5243:5244  1 */\n      0x01\n        /* \"Evm/core/base/vault.sol\":5233:5245  eventData[1] */\n      dup2\n      mload\n      dup2\n      lt\n      tag_152\n      jumpi\n      tag_153\n      tag_107\n      jump\t// in\n    tag_153:\n    tag_152:\n      0x20\n      mul\n      0x20\n      add\n      add\n        /* \"Evm/core/base/vault.sol\":5233:5301  eventData[1] = IEvents.Data(\"amount\", \"uint256\", abi.encode(amount)) */\n      dup2\n      swap1\n      mstore\n      pop\n        /* \"Evm/core/base/vault.sol\":5327:5381  IEvents.Data(\"token\", \"string\", abi.encode(assetName)) */\n      mload(0x40)\n      dup1\n      0x60\n      add\n      0x40\n      mstore\n      dup1\n      mload(0x40)\n      dup1\n      0x40\n      add\n      0x40\n      mstore\n      dup1\n      0x05\n      dup2\n      mstore\n      0x20\n      add\n      0x746f6b656e000000000000000000000000000000000000000000000000000000\n      dup2\n      mstore\n      pop\n      dup2\n      mstore\n      0x20\n      add\n      mload(0x40)\n      dup1\n      0x40\n      add\n      0x40\n      mstore\n      dup1\n      0x06\n      dup2\n      mstore\n      0x20\n      add\n      0x737472696e670000000000000000000000000000000000000000000000000000\n      dup2\n      mstore\n      pop\n      dup2\n      mstore\n      0x20\n      add\n        /* \"Evm/core/base/vault.sol\":5370:5379  assetName */\n      dup7\n      dup7\n        /* \"Evm/core/base/vault.sol\":5359:5380  abi.encode(assetName) */\n      add(0x20, mload(0x40))\n      tag_154\n      swap3\n      swap2\n      swap1\n      tag_113\n      jump\t// in\n    tag_154:\n      mload(0x40)\n      0x20\n      dup2\n      dup4\n      sub\n      sub\n      dup2\n      mstore\n      swap1\n      0x40\n      mstore\n        /* \"Evm/core/base/vault.sol\":5327:5381  IEvents.Data(\"token\", \"string\", abi.encode(assetName)) */\n      dup2\n      mstore\n      pop\n        /* \"Evm/core/base/vault.sol\":5312:5321  eventData */\n      dup2\n        /* \"Evm/core/base/vault.sol\":5322:5323  2 */\n      0x02\n        /* \"Evm/core/base/vault.sol\":5312:5324  eventData[2] */\n      dup2\n      mload\n      dup2\n      lt\n      tag_155\n      jumpi\n      tag_156\n      tag_107\n      jump\t// in\n    tag_156:\n    tag_155:\n      0x20\n      mul\n      0x20\n      add\n      add\n        /* \"Evm/core/base/vault.sol\":5312:5381  eventData[2] = IEvents.Data(\"token\", \"string\", abi.encode(assetName)) */\n      dup2\n      swap1\n      mstore\n      pop\n        /* \"Evm/core/base/vault.sol\":5407:5467  IEvents.Data(\"provider\", \"string\", abi.encode(providerName)) */\n      mload(0x40)\n      dup1\n      0x60\n      add\n      0x40\n      mstore\n      dup1\n      mload(0x40)\n      dup1\n      0x40\n      add\n      0x40\n      mstore\n      dup1\n      0x08\n      dup2\n      mstore\n      0x20\n      add\n      0x70726f7669646572000000000000000000000000000000000000000000000000\n      dup2\n      mstore\n      pop\n      dup2\n      mstore\n      0x20\n      add\n      mload(0x40)\n      dup1\n      0x40\n      add\n      0x40\n      mstore\n      dup1\n      0x06\n      dup2\n      mstore\n      0x20\n      add\n      0x737472696e670000000000000000000000000000000000000000000000000000\n      dup2\n      mstore\n      pop\n      dup2\n      mstore\n      0x20\n      add\n        /* \"Evm/core/base/vault.sol\":5453:5465  providerName */\n      0x01\n        /* \"Evm/core/base/vault.sol\":5442:5466  abi.encode(providerName) */\n      add(0x20, mload(0x40))\n      tag_157\n      swap2\n      swap1\n      tag_117\n      jump\t// in\n    tag_157:\n      mload(0x40)\n      0x20\n      dup2\n      dup4\n      sub\n      sub\n      dup2\n      mstore\n      swap1\n      0x40\n      mstore\n        /* \"Evm/core/base/vault.sol\":5407:5467  IEvents.Data(\"provider\", \"string\", abi.encode(providerName)) */\n      dup2\n      mstore\n      pop\n        /* \"Evm/core/base/vault.sol\":5392:5401  eventData */\n      dup2\n        /* \"Evm/core/base/vault.sol\":5402:5403  3 */\n      0x03\n        /* \"Evm/core/base/vault.sol\":5392:5404  eventData[3] */\n      dup2\n      mload\n      dup2\n      lt\n      tag_158\n      jumpi\n      tag_159\n      tag_107\n      jump\t// in\n    tag_159:\n    tag_158:\n      0x20\n      mul\n      0x20\n      add\n      add\n        /* \"Evm/core/base/vault.sol\":5392:5467  eventData[3] = IEvents.Data(\"provider\", \"string\", abi.encode(providerName)) */\n      dup2\n      swap1\n      mstore\n      pop\n        /* \"Evm/core/base/vault.sol\":5493:5558  IEvents.Data(\"timestamp\", \"uint256\", abi.encode(block.timestamp)) */\n      mload(0x40)\n      dup1\n      0x60\n      add\n      0x40\n      mstore\n      dup1\n      mload(0x40)\n      dup1\n      0x40\n      add\n      0x40\n      mstore\n      dup1\n      0x09\n      dup2\n      mstore\n      0x20\n      add\n      0x74696d657374616d700000000000000000000000000000000000000000000000\n      dup2\n      mstore\n      pop\n      dup2\n      mstore\n      0x20\n      add\n      mload(0x40)\n      dup1\n      0x40\n      add\n      0x40\n      mstore\n      dup1\n      0x07\n      dup2\n      mstore\n      0x20\n      add\n      0x75696e7432353600000000000000000000000000000000000000000000000000\n      dup2\n      mstore\n      pop\n      dup2\n      mstore\n      0x20\n      add\n        /* \"Evm/core/base/vault.sol\":5541:5556  block.timestamp */\n      timestamp\n        /* \"Evm/core/base/vault.sol\":5530:5557  abi.encode(block.timestamp) */\n      add(0x20, mload(0x40))\n      tag_160\n      swap2\n      swap1\n      tag_109\n      jump\t// in\n    tag_160:\n      mload(0x40)\n      0x20\n      dup2\n      dup4\n      sub\n      sub\n      dup2\n      mstore\n      swap1\n      0x40\n      mstore\n        /* \"Evm/core/base/vault.sol\":5493:5558  IEvents.Data(\"timestamp\", \"uint256\", abi.encode(block.timestamp)) */\n      dup2\n      mstore\n      pop\n        /* \"Evm/core/base/vault.sol\":5478:5487  eventData */\n      dup2\n        /* \"Evm/core/base/vault.sol\":5488:5489  4 */\n      0x04\n        /* \"Evm/core/base/vault.sol\":5478:5490  eventData[4] */\n      dup2\n      mload\n      dup2\n      lt\n      tag_161\n      jumpi\n      tag_162\n      tag_107\n      jump\t// in\n    tag_162:\n    tag_161:\n      0x20\n      mul\n      0x20\n      add\n      add\n        /* \"Evm/core/base/vault.sol\":5478:5558  eventData[4] = IEvents.Data(\"timestamp\", \"uint256\", abi.encode(block.timestamp)) */\n      dup2\n      swap1\n      mstore\n      pop\n        /* \"Evm/core/base/vault.sol\":5571:5577  events */\n      immutable(\"0xa55f93089260f97cd16ec7a717e7ade24f99065bc4509014bd14fefe4d832ab6\")\n        /* \"Evm/core/base/vault.sol\":5571:5592  events.emitVaultEvent */\n      0xffffffffffffffffffffffffffffffffffffffff\n      and\n      0x7d64fa9b\n        /* \"Evm/core/base/vault.sol\":5604:5613  eventData */\n      dup3\n        /* \"Evm/core/base/vault.sol\":5571:5614  events.emitVaultEvent(\"Deposit\", eventData) */\n      mload(0x40)\n      dup3\n      0xffffffff\n      and\n      0xe0\n      shl\n      dup2\n      mstore\n      0x04\n      add\n      tag_163\n      swap2\n      swap1\n      tag_164\n      jump\t// in\n    tag_163:\n      0x00\n      mload(0x40)\n      dup1\n      dup4\n      sub\n      dup2\n      0x00\n      dup8\n      dup1\n      extcodesize\n      iszero\n      dup1\n      iszero\n      tag_165\n      jumpi\n      revert(0x00, 0x00)\n    tag_165:\n      pop\n      gas\n      call\n      iszero\n      dup1\n      iszero\n      tag_167\n      jumpi\n      returndatacopy(0x00, 0x00, returndatasize)\n      revert(0x00, returndatasize)\n    tag_167:\n      pop\n      pop\n      pop\n      pop\n        /* \"Evm/core/base/vault.sol\":5650:5655  token */\n      dup2\n        /* \"Evm/core/base/vault.sol\":5630:5678  Deposit(msg.sender, token, amount, providerName) */\n      0xffffffffffffffffffffffffffffffffffffffff\n      and\n        /* \"Evm/core/base/vault.sol\":5638:5648  msg.sender */\n      caller\n        /* \"Evm/core/base/vault.sol\":5630:5678  Deposit(msg.sender, token, amount, providerName) */\n      0xffffffffffffffffffffffffffffffffffffffff\n      and\n      0xef519b7eb82aaf6ac376a6df2d793843ebfd593de5f1a0601d3cc6ab49ebb395\n        /* \"Evm/core/base/vault.sol\":5657:5663  amount */\n      dup6\n        /* \"Evm/core/base/vault.sol\":5665:5677  providerName */\n      0x01\n        /* \"Evm/core/base/vault.sol\":5630:5678  Deposit(msg.sender, token, amount, providerName) */\n      mload(0x40)\n      tag_168\n      swap3\n      swap2\n      swap1\n      tag_132\n      jump\t// in\n    tag_168:\n      mload(0x40)\n      dup1\n      swap2\n      sub\n      swap1\n      log3\n        /* \"Evm/core/base/vault.sol\":4759:5686  {... */\n      pop\n      pop\n        /* \"Evm/core/base/vault.sol\":4690:5686  function deposit(string calldata assetName, uint256 amount) external {... */\n      pop\n      pop\n      pop\n      jump\t// out\n        /* \"Evm/core/base/vault.sol\":2353:3365  function m_withdraw(address user, string calldata assetName, uint256 amount) external { ... */\n    tag_48:\n        /* \"Evm/core/base/vault.sol\":2547:2560  address token */\n      0x00\n        /* \"Evm/core/base/vault.sol\":2563:2586  resolveAsset(assetName) */\n      tag_170\n        /* \"Evm/core/base/vault.sol\":2576:2585  assetName */\n      dup5\n      dup5\n        /* \"Evm/core/base/vault.sol\":2563:2586  resolveAsset(assetName) */\n      dup1\n      dup1\n      0x1f\n      add\n      0x20\n      dup1\n      swap2\n      div\n      mul\n      0x20\n      add\n      mload(0x40)\n      swap1\n      dup2\n      add\n      0x40\n      mstore\n      dup1\n      swap4\n      swap3\n      swap2\n      swap1\n      dup2\n      dup2\n      mstore\n      0x20\n      add\n      dup4\n      dup4\n      dup1\n      dup3\n      dup5\n      calldatacopy\n      0x00\n      dup2\n      dup5\n      add\n      mstore\n      not(0x1f)\n      0x1f\n      dup3\n      add\n      and\n      swap1\n      pop\n      dup1\n      dup4\n      add\n      swap3\n      pop\n      pop\n      pop\n      pop\n      pop\n      pop\n      pop\n        /* \"Evm/core/base/vault.sol\":2563:2575  resolveAsset */\n      tag_23\n        /* \"Evm/core/base/vault.sol\":2563:2586  resolveAsset(assetName) */\n      jump\t// in\n    tag_170:\n        /* \"Evm/core/base/vault.sol\":2547:2586  address token = resolveAsset(assetName) */\n      swap1\n      pop\n        /* \"Evm/core/base/vault.sol\":2601:2617  isSupportedToken */\n      0x02\n        /* \"Evm/core/base/vault.sol\":2601:2624  isSupportedToken[token] */\n      0x00\n        /* \"Evm/core/base/vault.sol\":2618:2623  token */\n      dup3\n        /* \"Evm/core/base/vault.sol\":2601:2624  isSupportedToken[token] */\n      0xffffffffffffffffffffffffffffffffffffffff\n      and\n      0xffffffffffffffffffffffffffffffffffffffff\n      and\n      dup2\n      mstore\n      0x20\n      add\n      swap1\n      dup2\n      mstore\n      0x20\n      add\n      0x00\n      keccak256\n      0x00\n      swap1\n      sload\n      swap1\n      0x0100\n      exp\n      swap1\n      div\n      0xff\n      and\n        /* \"Evm/core/base/vault.sol\":2593:2655  require(isSupportedToken[token], \"Vault: Token not supported\") */\n      tag_171\n      jumpi\n      mload(0x40)\n      0x08c379a000000000000000000000000000000000000000000000000000000000\n      dup2\n      mstore\n      0x04\n      add\n      tag_172\n      swap1\n      tag_94\n      jump\t// in\n    tag_172:\n      mload(0x40)\n      dup1\n      swap2\n      sub\n      swap1\n      revert\n    tag_171:\n        /* \"Evm/core/base/vault.sol\":2709:2740  IEvents.Data[] memory eventData */\n      0x00\n        /* \"Evm/core/base/vault.sol\":2762:2763  5 */\n      0x05\n        /* \"Evm/core/base/vault.sol\":2743:2764  new IEvents.Data[](5) */\n      0xffffffffffffffff\n      dup2\n      gt\n      iszero\n      tag_173\n      jumpi\n      tag_174\n      tag_99\n      jump\t// in\n    tag_174:\n    tag_173:\n      mload(0x40)\n      swap1\n      dup1\n      dup3\n      mstore\n      dup1\n      0x20\n      mul\n      0x20\n      add\n      dup3\n      add\n      0x40\n      mstore\n      dup1\n      iszero\n      tag_175\n      jumpi\n      dup2\n      0x20\n      add\n    tag_176:\n      tag_177\n      tag_103\n      jump\t// in\n    tag_177:\n      dup2\n      mstore\n      0x20\n      add\n      swap1\n      0x01\n      swap1\n      sub\n      swap1\n      dup2\n      tag_176\n      jumpi\n      swap1\n      pop\n    tag_175:\n      pop\n        /* \"Evm/core/base/vault.sol\":2709:2764  IEvents.Data[] memory eventData = new IEvents.Data[](5) */\n      swap1\n      pop\n        /* \"Evm/core/base/vault.sol\":2792:2841  IEvents.Data(\"user\", \"address\", abi.encode(user)) */\n      mload(0x40)\n      dup1\n      0x60\n      add\n      0x40\n      mstore\n      dup1\n      mload(0x40)\n      dup1\n      0x40\n      add\n      0x40\n      mstore\n      dup1\n      0x04\n      dup2\n      mstore\n      0x20\n      add\n      0x7573657200000000000000000000000000000000000000000000000000000000\n      dup2\n      mstore\n      pop\n      dup2\n      mstore\n      0x20\n      add\n      mload(0x40)\n      dup1\n      0x40\n      add\n      0x40\n      mstore\n      dup1\n      0x07\n      dup2\n      mstore\n      0x20\n      add\n      0x6164647265737300000000000000000000000000000000000000000000000000\n      dup2\n      mstore\n      pop\n      dup2\n      mstore\n      0x20\n      add\n        /* \"Evm/core/base/vault.sol\":2835:2839  user */\n      dup8\n        /* \"Evm/core/base/vault.sol\":2824:2840  abi.encode(user) */\n      add(0x20, mload(0x40))\n      tag_178\n      swap2\n      swap1\n      tag_25\n      jump\t// in\n    tag_178:\n      mload(0x40)\n      0x20\n      dup2\n      dup4\n      sub\n      sub\n      dup2\n      mstore\n      swap1\n      0x40\n      mstore\n        /* \"Evm/core/base/vault.sol\":2792:2841  IEvents.Data(\"user\", \"address\", abi.encode(user)) */\n      dup2\n      mstore\n      pop\n        /* \"Evm/core/base/vault.sol\":2777:2786  eventData */\n      dup2\n        /* \"Evm/core/base/vault.sol\":2787:2788  0 */\n      0x00\n        /* \"Evm/core/base/vault.sol\":2777:2789  eventData[0] */\n      dup2\n      mload\n      dup2\n      lt\n      tag_179\n      jumpi\n      tag_180\n      tag_107\n      jump\t// in\n    tag_180:\n    tag_179:\n      0x20\n      mul\n      0x20\n      add\n      add\n        /* \"Evm/core/base/vault.sol\":2777:2841  eventData[0] = IEvents.Data(\"user\", \"address\", abi.encode(user)) */\n      dup2\n      swap1\n      mstore\n      pop\n        /* \"Evm/core/base/vault.sol\":2863:2916  IEvents.Data(\"amount\", \"uint256\", abi.encode(amount)) */\n      mload(0x40)\n      dup1\n      0x60\n      add\n      0x40\n      mstore\n      dup1\n      mload(0x40)\n      dup1\n      0x40\n      add\n      0x40\n      mstore\n      dup1\n      0x06\n      dup2\n      mstore\n      0x20\n      add\n      0x616d6f756e740000000000000000000000000000000000000000000000000000\n      dup2\n      mstore\n      pop\n      dup2\n      mstore\n      0x20\n      add\n      mload(0x40)\n      dup1\n      0x40\n      add\n      0x40\n      mstore\n      dup1\n      0x07\n      dup2\n      mstore\n      0x20\n      add\n      0x75696e7432353600000000000000000000000000000000000000000000000000\n      dup2\n      mstore\n      pop\n      dup2\n      mstore\n      0x20\n      add\n        /* \"Evm/core/base/vault.sol\":2908:2914  amount */\n      dup5\n        /* \"Evm/core/base/vault.sol\":2897:2915  abi.encode(amount) */\n      add(0x20, mload(0x40))\n      tag_181\n      swap2\n      swap1\n      tag_109\n      jump\t// in\n    tag_181:\n      mload(0x40)\n      0x20\n      dup2\n      dup4\n      sub\n      sub\n      dup2\n      mstore\n      swap1\n      0x40\n      mstore\n        /* \"Evm/core/base/vault.sol\":2863:2916  IEvents.Data(\"amount\", \"uint256\", abi.encode(amount)) */\n      dup2\n      mstore\n      pop\n        /* \"Evm/core/base/vault.sol\":2848:2857  eventData */\n      dup2\n        /* \"Evm/core/base/vault.sol\":2858:2859  1 */\n      0x01\n        /* \"Evm/core/base/vault.sol\":2848:2860  eventData[1] */\n      dup2\n      mload\n      dup2\n      lt\n      tag_182\n      jumpi\n      tag_183\n      tag_107\n      jump\t// in\n    tag_183:\n    tag_182:\n      0x20\n      mul\n      0x20\n      add\n      add\n        /* \"Evm/core/base/vault.sol\":2848:2916  eventData[1] = IEvents.Data(\"amount\", \"uint256\", abi.encode(amount)) */\n      dup2\n      swap1\n      mstore\n      pop\n        /* \"Evm/core/base/vault.sol\":2938:2989  IEvents.Data(\"chain\", \"string\", abi.encode(\"base\")) */\n      mload(0x40)\n      dup1\n      0x60\n      add\n      0x40\n      mstore\n      dup1\n      mload(0x40)\n      dup1\n      0x40\n      add\n      0x40\n      mstore\n      dup1\n      0x05\n      dup2\n      mstore\n      0x20\n      add\n      0x636861696e000000000000000000000000000000000000000000000000000000\n      dup2\n      mstore\n      pop\n      dup2\n      mstore\n      0x20\n      add\n      mload(0x40)\n      dup1\n      0x40\n      add\n      0x40\n      mstore\n      dup1\n      0x06\n      dup2\n      mstore\n      0x20\n      add\n      0x737472696e670000000000000000000000000000000000000000000000000000\n      dup2\n      mstore\n      pop\n      dup2\n      mstore\n      0x20\n      add\n        /* \"Evm/core/base/vault.sol\":2970:2988  abi.encode(\"base\") */\n      add(0x20, mload(0x40))\n      tag_184\n      swap1\n      tag_185\n      jump\t// in\n    tag_184:\n      mload(0x40)\n      0x20\n      dup2\n      dup4\n      sub\n      sub\n      dup2\n      mstore\n      swap1\n      0x40\n      mstore\n        /* \"Evm/core/base/vault.sol\":2938:2989  IEvents.Data(\"chain\", \"string\", abi.encode(\"base\")) */\n      dup2\n      mstore\n      pop\n        /* \"Evm/core/base/vault.sol\":2923:2932  eventData */\n      dup2\n        /* \"Evm/core/base/vault.sol\":2933:2934  2 */\n      0x02\n        /* \"Evm/core/base/vault.sol\":2923:2935  eventData[2] */\n      dup2\n      mload\n      dup2\n      lt\n      tag_186\n      jumpi\n      tag_187\n      tag_107\n      jump\t// in\n    tag_187:\n    tag_186:\n      0x20\n      mul\n      0x20\n      add\n      add\n        /* \"Evm/core/base/vault.sol\":2923:2989  eventData[2] = IEvents.Data(\"chain\", \"string\", abi.encode(\"base\")) */\n      dup2\n      swap1\n      mstore\n      pop\n        /* \"Evm/core/base/vault.sol\":3011:3071  IEvents.Data(\"provider\", \"string\", abi.encode(providerName)) */\n      mload(0x40)\n      dup1\n      0x60\n      add\n      0x40\n      mstore\n      dup1\n      mload(0x40)\n      dup1\n      0x40\n      add\n      0x40\n      mstore\n      dup1\n      0x08\n      dup2\n      mstore\n      0x20\n      add\n      0x70726f7669646572000000000000000000000000000000000000000000000000\n      dup2\n      mstore\n      pop\n      dup2\n      mstore\n      0x20\n      add\n      mload(0x40)\n      dup1\n      0x40\n      add\n      0x40\n      mstore\n      dup1\n      0x06\n      dup2\n      mstore\n      0x20\n      add\n      0x737472696e670000000000000000000000000000000000000000000000000000\n      dup2\n      mstore\n      pop\n      dup2\n      mstore\n      0x20\n      add\n        /* \"Evm/core/base/vault.sol\":3057:3069  providerName */\n      0x01\n        /* \"Evm/core/base/vault.sol\":3046:3070  abi.encode(providerName) */\n      add(0x20, mload(0x40))\n      tag_188\n      swap2\n      swap1\n      tag_117\n      jump\t// in\n    tag_188:\n      mload(0x40)\n      0x20\n      dup2\n      dup4\n      sub\n      sub\n      dup2\n      mstore\n      swap1\n      0x40\n      mstore\n        /* \"Evm/core/base/vault.sol\":3011:3071  IEvents.Data(\"provider\", \"string\", abi.encode(providerName)) */\n      dup2\n      mstore\n      pop\n        /* \"Evm/core/base/vault.sol\":2996:3005  eventData */\n      dup2\n        /* \"Evm/core/base/vault.sol\":3006:3007  3 */\n      0x03\n        /* \"Evm/core/base/vault.sol\":2996:3008  eventData[3] */\n      dup2\n      mload\n      dup2\n      lt\n      tag_189\n      jumpi\n      tag_190\n      tag_107\n      jump\t// in\n    tag_190:\n    tag_189:\n      0x20\n      mul\n      0x20\n      add\n      add\n        /* \"Evm/core/base/vault.sol\":2996:3071  eventData[3] = IEvents.Data(\"provider\", \"string\", abi.encode(providerName)) */\n      dup2\n      swap1\n      mstore\n      pop\n        /* \"Evm/core/base/vault.sol\":3175:3229  IEvents.Data(\"token\", \"string\", abi.encode(assetName)) */\n      mload(0x40)\n      dup1\n      0x60\n      add\n      0x40\n      mstore\n      dup1\n      mload(0x40)\n      dup1\n      0x40\n      add\n      0x40\n      mstore\n      dup1\n      0x05\n      dup2\n      mstore\n      0x20\n      add\n      0x746f6b656e000000000000000000000000000000000000000000000000000000\n      dup2\n      mstore\n      pop\n      dup2\n      mstore\n      0x20\n      add\n      mload(0x40)\n      dup1\n      0x40\n      add\n      0x40\n      mstore\n      dup1\n      0x06\n      dup2\n      mstore\n      0x20\n      add\n      0x737472696e670000000000000000000000000000000000000000000000000000\n      dup2\n      mstore\n      pop\n      dup2\n      mstore\n      0x20\n      add\n        /* \"Evm/core/base/vault.sol\":3218:3227  assetName */\n      dup7\n      dup7\n        /* \"Evm/core/base/vault.sol\":3207:3228  abi.encode(assetName) */\n      add(0x20, mload(0x40))\n      tag_191\n      swap3\n      swap2\n      swap1\n      tag_113\n      jump\t// in\n    tag_191:\n      mload(0x40)\n      0x20\n      dup2\n      dup4\n      sub\n      sub\n      dup2\n      mstore\n      swap1\n      0x40\n      mstore\n        /* \"Evm/core/base/vault.sol\":3175:3229  IEvents.Data(\"token\", \"string\", abi.encode(assetName)) */\n      dup2\n      mstore\n      pop\n        /* \"Evm/core/base/vault.sol\":3160:3169  eventData */\n      dup2\n        /* \"Evm/core/base/vault.sol\":3170:3171  4 */\n      0x04\n        /* \"Evm/core/base/vault.sol\":3160:3172  eventData[4] */\n      dup2\n      mload\n      dup2\n      lt\n      tag_192\n      jumpi\n      tag_193\n      tag_107\n      jump\t// in\n    tag_193:\n    tag_192:\n      0x20\n      mul\n      0x20\n      add\n      add\n        /* \"Evm/core/base/vault.sol\":3160:3229  eventData[4] = IEvents.Data(\"token\", \"string\", abi.encode(assetName)) */\n      dup2\n      swap1\n      mstore\n      pop\n        /* \"Evm/core/base/vault.sol\":3309:3315  events */\n      immutable(\"0xa55f93089260f97cd16ec7a717e7ade24f99065bc4509014bd14fefe4d832ab6\")\n        /* \"Evm/core/base/vault.sol\":3309:3330  events.emitVaultEvent */\n      0xffffffffffffffffffffffffffffffffffffffff\n      and\n      0x7d64fa9b\n        /* \"Evm/core/base/vault.sol\":3351:3360  eventData */\n      dup3\n        /* \"Evm/core/base/vault.sol\":3309:3361  events.emitVaultEvent(\"Modular Withdraw\", eventData) */\n      mload(0x40)\n      dup3\n      0xffffffff\n      and\n      0xe0\n      shl\n      dup2\n      mstore\n      0x04\n      add\n      tag_194\n      swap2\n      swap1\n      tag_195\n      jump\t// in\n    tag_194:\n      0x00\n      mload(0x40)\n      dup1\n      dup4\n      sub\n      dup2\n      0x00\n      dup8\n      dup1\n      extcodesize\n      iszero\n      dup1\n      iszero\n      tag_196\n      jumpi\n      revert(0x00, 0x00)\n    tag_196:\n      pop\n      gas\n      call\n      iszero\n      dup1\n      iszero\n      tag_198\n      jumpi\n      returndatacopy(0x00, 0x00, returndatasize)\n      revert(0x00, returndatasize)\n    tag_198:\n      pop\n      pop\n      pop\n      pop\n        /* \"Evm/core/base/vault.sol\":2439:3365  { ... */\n      pop\n      pop\n        /* \"Evm/core/base/vault.sol\":2353:3365  function m_withdraw(address user, string calldata assetName, uint256 amount) external { ... */\n      pop\n      pop\n      pop\n      pop\n      jump\t// out\n        /* \"Evm/core/base/vault.sol\":696:727  IEvents public immutable events */\n    tag_50:\n      immutable(\"0xa55f93089260f97cd16ec7a717e7ade24f99065bc4509014bd14fefe4d832ab6\")\n      dup2\n      jump\t// out\n        /* \"Evm/core/base/vault.sol\":644:689  IVariables public immutable variablesRegistry */\n    tag_54:\n      immutable(\"0x1067a32fc2bf4122310a8f066f11577e006583df65ce4c5172289c9680be102c\")\n      dup2\n      jump\t// out\n        /* \"Evm/core/base/vault.sol\":1955:2172  function listNewToken(string calldata assetName) external {... */\n    tag_60:\n        /* \"Evm/core/base/vault.sol\":2024:2041  address tokenAddr */\n      0x00\n        /* \"Evm/core/base/vault.sol\":2044:2067  resolveAsset(assetName) */\n      tag_200\n        /* \"Evm/core/base/vault.sol\":2057:2066  assetName */\n      dup4\n      dup4\n        /* \"Evm/core/base/vault.sol\":2044:2067  resolveAsset(assetName) */\n      dup1\n      dup1\n      0x1f\n      add\n      0x20\n      dup1\n      swap2\n      div\n      mul\n      0x20\n      add\n      mload(0x40)\n      swap1\n      dup2\n      add\n      0x40\n      mstore\n      dup1\n      swap4\n      swap3\n      swap2\n      swap1\n      dup2\n      dup2\n      mstore\n      0x20\n      add\n      dup4\n      dup4\n      dup1\n      dup3\n      dup5\n      calldatacopy\n      0x00\n      dup2\n      dup5\n      add\n      mstore\n      not(0x1f)\n      0x1f\n      dup3\n      add\n      and\n      swap1\n      pop\n      dup1\n      dup4\n      add\n      swap3\n      pop\n      pop\n      pop\n      pop\n      pop\n      pop\n      pop\n        /* \"Evm/core/base/vault.sol\":2044:2056  resolveAsset */\n      tag_23\n        /* \"Evm/core/base/vault.sol\":2044:2067  resolveAsset(assetName) */\n      jump\t// in\n    tag_200:\n        /* \"Evm/core/base/vault.sol\":2024:2067  address tokenAddr = resolveAsset(assetName) */\n      swap1\n      pop\n        /* \"Evm/core/base/vault.sol\":2108:2112  true */\n      0x01\n        /* \"Evm/core/base/vault.sol\":2078:2094  isSupportedToken */\n      0x02\n        /* \"Evm/core/base/vault.sol\":2078:2105  isSupportedToken[tokenAddr] */\n      0x00\n        /* \"Evm/core/base/vault.sol\":2095:2104  tokenAddr */\n      dup4\n        /* \"Evm/core/base/vault.sol\":2078:2105  isSupportedToken[tokenAddr] */\n      0xffffffffffffffffffffffffffffffffffffffff\n      and\n      0xffffffffffffffffffffffffffffffffffffffff\n      and\n      dup2\n      mstore\n      0x20\n      add\n      swap1\n      dup2\n      mstore\n      0x20\n      add\n      0x00\n      keccak256\n      0x00\n        /* \"Evm/core/base/vault.sol\":2078:2112  isSupportedToken[tokenAddr] = true */\n      0x0100\n      exp\n      dup2\n      sload\n      dup2\n      0xff\n      mul\n      not\n      and\n      swap1\n      dup4\n      iszero\n      iszero\n      mul\n      or\n      swap1\n      sstore\n      pop\n        /* \"Evm/core/base/vault.sol\":2140:2149  tokenAddr */\n      dup1\n        /* \"Evm/core/base/vault.sol\":2128:2164  TokenListed(tokenAddr, providerName) */\n      0xffffffffffffffffffffffffffffffffffffffff\n      and\n      0xd57b1148efb91f418a2178fc1fb4ba12f9400a4dc8e71851fd59e85d337c609f\n        /* \"Evm/core/base/vault.sol\":2151:2163  providerName */\n      0x01\n        /* \"Evm/core/base/vault.sol\":2128:2164  TokenListed(tokenAddr, providerName) */\n      mload(0x40)\n      tag_201\n      swap2\n      swap1\n      tag_117\n      jump\t// in\n    tag_201:\n      mload(0x40)\n      dup1\n      swap2\n      sub\n      swap1\n      log2\n        /* \"Evm/core/base/vault.sol\":2013:2172  {... */\n      pop\n        /* \"Evm/core/base/vault.sol\":1955:2172  function listNewToken(string calldata assetName) external {... */\n      pop\n      pop\n      jump\t// out\n        /* \"@openzeppelin/contracts/access/Ownable.sol\":2543:2758  function transferOwnership(address newOwner) public virtual onlyOwner {... */\n    tag_63:\n        /* \"@openzeppelin/contracts/access/Ownable.sol\":1531:1544  _checkOwner() */\n      tag_203\n        /* \"@openzeppelin/contracts/access/Ownable.sol\":1531:1542  _checkOwner */\n      tag_84\n        /* \"@openzeppelin/contracts/access/Ownable.sol\":1531:1544  _checkOwner() */\n      jump\t// in\n    tag_203:\n        /* \"@openzeppelin/contracts/access/Ownable.sol\":2647:2648  0 */\n      0x00\n        /* \"@openzeppelin/contracts/access/Ownable.sol\":2627:2649  newOwner == address(0) */\n      0xffffffffffffffffffffffffffffffffffffffff\n      and\n        /* \"@openzeppelin/contracts/access/Ownable.sol\":2627:2635  newOwner */\n      dup2\n        /* \"@openzeppelin/contracts/access/Ownable.sol\":2627:2649  newOwner == address(0) */\n      0xffffffffffffffffffffffffffffffffffffffff\n      and\n      sub\n        /* \"@openzeppelin/contracts/access/Ownable.sol\":2623:2714  if (newOwner == address(0)) {... */\n      tag_205\n      jumpi\n        /* \"@openzeppelin/contracts/access/Ownable.sol\":2700:2701  0 */\n      0x00\n        /* \"@openzeppelin/contracts/access/Ownable.sol\":2672:2703  OwnableInvalidOwner(address(0)) */\n      mload(0x40)\n      0x1e4fbdf700000000000000000000000000000000000000000000000000000000\n      dup2\n      mstore\n      0x04\n      add\n      tag_206\n      swap2\n      swap1\n      tag_25\n      jump\t// in\n    tag_206:\n      mload(0x40)\n      dup1\n      swap2\n      sub\n      swap1\n      revert\n        /* \"@openzeppelin/contracts/access/Ownable.sol\":2623:2714  if (newOwner == address(0)) {... */\n    tag_205:\n        /* \"@openzeppelin/contracts/access/Ownable.sol\":2723:2751  _transferOwnership(newOwner) */\n      tag_207\n        /* \"@openzeppelin/contracts/access/Ownable.sol\":2742:2750  newOwner */\n      dup2\n        /* \"@openzeppelin/contracts/access/Ownable.sol\":2723:2741  _transferOwnership */\n      tag_87\n        /* \"@openzeppelin/contracts/access/Ownable.sol\":2723:2751  _transferOwnership(newOwner) */\n      jump\t// in\n    tag_207:\n        /* \"@openzeppelin/contracts/access/Ownable.sol\":2543:2758  function transferOwnership(address newOwner) public virtual onlyOwner {... */\n      pop\n      jump\t// out\n        /* \"@openzeppelin/contracts/access/Ownable.sol\":1796:1958  function _checkOwner() internal view virtual {... */\n    tag_84:\n        /* \"@openzeppelin/contracts/access/Ownable.sol\":1866:1878  _msgSender() */\n      tag_209\n        /* \"@openzeppelin/contracts/access/Ownable.sol\":1866:1876  _msgSender */\n      tag_210\n        /* \"@openzeppelin/contracts/access/Ownable.sol\":1866:1878  _msgSender() */\n      jump\t// in\n    tag_209:\n        /* \"@openzeppelin/contracts/access/Ownable.sol\":1855:1878  owner() != _msgSender() */\n      0xffffffffffffffffffffffffffffffffffffffff\n      and\n        /* \"@openzeppelin/contracts/access/Ownable.sol\":1855:1862  owner() */\n      tag_211\n        /* \"@openzeppelin/contracts/access/Ownable.sol\":1855:1860  owner */\n      tag_39\n        /* \"@openzeppelin/contracts/access/Ownable.sol\":1855:1862  owner() */\n      jump\t// in\n    tag_211:\n        /* \"@openzeppelin/contracts/access/Ownable.sol\":1855:1878  owner() != _msgSender() */\n      0xffffffffffffffffffffffffffffffffffffffff\n      and\n      eq\n        /* \"@openzeppelin/contracts/access/Ownable.sol\":1851:1952  if (owner() != _msgSender()) {... */\n      tag_212\n      jumpi\n        /* \"@openzeppelin/contracts/access/Ownable.sol\":1928:1940  _msgSender() */\n      tag_213\n        /* \"@openzeppelin/contracts/access/Ownable.sol\":1928:1938  _msgSender */\n      tag_210\n        /* \"@openzeppelin/contracts/access/Ownable.sol\":1928:1940  _msgSender() */\n      jump\t// in\n    tag_213:\n        /* \"@openzeppelin/contracts/access/Ownable.sol\":1901:1941  OwnableUnauthorizedAccount(_msgSender()) */\n      mload(0x40)\n      0x118cdaa700000000000000000000000000000000000000000000000000000000\n      dup2\n      mstore\n      0x04\n      add\n      tag_214\n      swap2\n      swap1\n      tag_25\n      jump\t// in\n    tag_214:\n      mload(0x40)\n      dup1\n      swap2\n      sub\n      swap1\n      revert\n        /* \"@openzeppelin/contracts/access/Ownable.sol\":1851:1952  if (owner() != _msgSender()) {... */\n    tag_212:\n        /* \"@openzeppelin/contracts/access/Ownable.sol\":1796:1958  function _checkOwner() internal view virtual {... */\n      jump\t// out\n        /* \"@openzeppelin/contracts/access/Ownable.sol\":2912:3099  function _transferOwnership(address newOwner) internal virtual {... */\n    tag_87:\n        /* \"@openzeppelin/contracts/access/Ownable.sol\":2985:3001  address oldOwner */\n      0x00\n        /* \"@openzeppelin/contracts/access/Ownable.sol\":3004:3010  _owner */\n      0x00\n      0x00\n      swap1\n      sload\n      swap1\n      0x0100\n      exp\n      swap1\n      div\n      0xffffffffffffffffffffffffffffffffffffffff\n      and\n        /* \"@openzeppelin/contracts/access/Ownable.sol\":2985:3010  address oldOwner = _owner */\n      swap1\n      pop\n        /* \"@openzeppelin/contracts/access/Ownable.sol\":3029:3037  newOwner */\n      dup2\n        /* \"@openzeppelin/contracts/access/Ownable.sol\":3020:3026  _owner */\n      0x00\n      0x00\n        /* \"@openzeppelin/contracts/access/Ownable.sol\":3020:3037  _owner = newOwner */\n      0x0100\n      exp\n      dup2\n      sload\n      dup2\n      0xffffffffffffffffffffffffffffffffffffffff\n      mul\n      not\n      and\n      swap1\n      dup4\n      0xffffffffffffffffffffffffffffffffffffffff\n      and\n      mul\n      or\n      swap1\n      sstore\n      pop\n        /* \"@openzeppelin/contracts/access/Ownable.sol\":3083:3091  newOwner */\n      dup2\n        /* \"@openzeppelin/contracts/access/Ownable.sol\":3052:3092  OwnershipTransferred(oldOwner, newOwner) */\n      0xffffffffffffffffffffffffffffffffffffffff\n      and\n        /* \"@openzeppelin/contracts/access/Ownable.sol\":3073:3081  oldOwner */\n      dup2\n        /* \"@openzeppelin/contracts/access/Ownable.sol\":3052:3092  OwnershipTransferred(oldOwner, newOwner) */\n      0xffffffffffffffffffffffffffffffffffffffff\n      and\n      0x8be0079c531659141344cd1fd0a4f28419497f9722a3daafe3b4186f6b6457e0\n      mload(0x40)\n      mload(0x40)\n      dup1\n      swap2\n      sub\n      swap1\n      log3\n        /* \"@openzeppelin/contracts/access/Ownable.sol\":2975:3099  {... */\n      pop\n        /* \"@openzeppelin/contracts/access/Ownable.sol\":2912:3099  function _transferOwnership(address newOwner) internal virtual {... */\n      pop\n      jump\t// out\n        /* \"@openzeppelin/contracts/token/ERC20/utils/SafeERC20.sol\":1219:1423  function safeTransfer(IERC20 token, address to, uint256 value) internal {... */\n    tag_96:\n        /* \"@openzeppelin/contracts/token/ERC20/utils/SafeERC20.sol\":1306:1343  _safeTransfer(token, to, value, true) */\n      tag_217\n        /* \"@openzeppelin/contracts/token/ERC20/utils/SafeERC20.sol\":1320:1325  token */\n      dup4\n        /* \"@openzeppelin/contracts/token/ERC20/utils/SafeERC20.sol\":1327:1329  to */\n      dup4\n        /* \"@openzeppelin/contracts/token/ERC20/utils/SafeERC20.sol\":1331:1336  value */\n      dup4\n        /* \"@openzeppelin/contracts/token/ERC20/utils/SafeERC20.sol\":1338:1342  true */\n      0x01\n        /* \"@openzeppelin/contracts/token/ERC20/utils/SafeERC20.sol\":1306:1319  _safeTransfer */\n      tag_218\n        /* \"@openzeppelin/contracts/token/ERC20/utils/SafeERC20.sol\":1306:1343  _safeTransfer(token, to, value, true) */\n      jump\t// in\n    tag_217:\n        /* \"@openzeppelin/contracts/token/ERC20/utils/SafeERC20.sol\":1301:1417  if (!_safeTransfer(token, to, value, true)) {... */\n      tag_219\n      jumpi\n        /* \"@openzeppelin/contracts/token/ERC20/utils/SafeERC20.sol\":1399:1404  token */\n      dup3\n        /* \"@openzeppelin/contracts/token/ERC20/utils/SafeERC20.sol\":1366:1406  SafeERC20FailedOperation(address(token)) */\n      mload(0x40)\n      0x5274afe700000000000000000000000000000000000000000000000000000000\n      dup2\n      mstore\n      0x04\n      add\n      tag_220\n      swap2\n      swap1\n      tag_25\n      jump\t// in\n    tag_220:\n      mload(0x40)\n      dup1\n      swap2\n      sub\n      swap1\n      revert\n        /* \"@openzeppelin/contracts/token/ERC20/utils/SafeERC20.sol\":1301:1417  if (!_safeTransfer(token, to, value, true)) {... */\n    tag_219:\n        /* \"@openzeppelin/contracts/token/ERC20/utils/SafeERC20.sol\":1219:1423  function safeTransfer(IERC20 token, address to, uint256 value) internal {... */\n      pop\n      pop\n      pop\n      jump\t// out\n        /* \"@openzeppelin/contracts/token/ERC20/utils/SafeERC20.sol\":1662:1894  function safeTransferFrom(IERC20 token, address from, address to, uint256 value) internal {... */\n    tag_142:\n        /* \"@openzeppelin/contracts/token/ERC20/utils/SafeERC20.sol\":1767:1814  _safeTransferFrom(token, from, to, value, true) */\n      tag_222\n        /* \"@openzeppelin/contracts/token/ERC20/utils/SafeERC20.sol\":1785:1790  token */\n      dup5\n        /* \"@openzeppelin/contracts/token/ERC20/utils/SafeERC20.sol\":1792:1796  from */\n      dup5\n        /* \"@openzeppelin/contracts/token/ERC20/utils/SafeERC20.sol\":1798:1800  to */\n      dup5\n        /* \"@openzeppelin/contracts/token/ERC20/utils/SafeERC20.sol\":1802:1807  value */\n      dup5\n        /* \"@openzeppelin/contracts/token/ERC20/utils/SafeERC20.sol\":1809:1813  true */\n      0x01\n        /* \"@openzeppelin/contracts/token/ERC20/utils/SafeERC20.sol\":1767:1784  _safeTransferFrom */\n      tag_223\n        /* \"@openzeppelin/contracts/token/ERC20/utils/SafeERC20.sol\":1767:1814  _safeTransferFrom(token, from, to, value, true) */\n      jump\t// in\n    tag_222:\n        /* \"@openzeppelin/contracts/token/ERC20/utils/SafeERC20.sol\":1762:1888  if (!_safeTransferFrom(token, from, to, value, true)) {... */\n      tag_224\n      jumpi\n        /* \"@openzeppelin/contracts/token/ERC20/utils/SafeERC20.sol\":1870:1875  token */\n      dup4\n        /* \"@openzeppelin/contracts/token/ERC20/utils/SafeERC20.sol\":1837:1877  SafeERC20FailedOperation(address(token)) */\n      mload(0x40)\n      0x5274afe700000000000000000000000000000000000000000000000000000000\n      dup2\n      mstore\n      0x04\n      add\n      tag_225\n      swap2\n      swap1\n      tag_25\n      jump\t// in\n    tag_225:\n      mload(0x40)\n      dup1\n      swap2\n      sub\n      swap1\n      revert\n        /* \"@openzeppelin/contracts/token/ERC20/utils/SafeERC20.sol\":1762:1888  if (!_safeTransferFrom(token, from, to, value, true)) {... */\n    tag_224:\n        /* \"@openzeppelin/contracts/token/ERC20/utils/SafeERC20.sol\":1662:1894  function safeTransferFrom(IERC20 token, address from, address to, uint256 value) internal {... */\n      pop\n      pop\n      pop\n      pop\n      jump\t// out\n        /* \"@openzeppelin/contracts/utils/Context.sol\":656:752  function _msgSender() internal view virtual returns (address) {... */\n    tag_210:\n        /* \"@openzeppelin/contracts/utils/Context.sol\":709:716  address */\n      0x00\n        /* \"@openzeppelin/contracts/utils/Context.sol\":735:745  msg.sender */\n      caller\n        /* \"@openzeppelin/contracts/utils/Context.sol\":728:745  return msg.sender */\n      swap1\n      pop\n        /* \"@openzeppelin/contracts/utils/Context.sol\":656:752  function _msgSender() internal view virtual returns (address) {... */\n      swap1\n      jump\t// out\n        /* \"@openzeppelin/contracts/token/ERC20/utils/SafeERC20.sol\":8373:9617  function _safeTransfer(IERC20 token, address to, uint256 value, bool bubble) private returns (bool success) {... */\n    tag_218:\n        /* \"@openzeppelin/contracts/token/ERC20/utils/SafeERC20.sol\":8467:8479  bool success */\n      0x00\n        /* \"@openzeppelin/contracts/token/ERC20/utils/SafeERC20.sol\":8491:8506  bytes4 selector */\n      0x00\n        /* \"@openzeppelin/contracts/token/ERC20/utils/SafeERC20.sol\":8509:8533  IERC20.transfer.selector */\n      shl(0xe0, 0xa9059cbb)\n        /* \"@openzeppelin/contracts/token/ERC20/utils/SafeERC20.sol\":8491:8533  bytes4 selector = IERC20.transfer.selector */\n      swap1\n      pop\n        /* \"@openzeppelin/contracts/token/ERC20/utils/SafeERC20.sol\":8600:8604  0x40 */\n      0x40\n        /* \"@openzeppelin/contracts/token/ERC20/utils/SafeERC20.sol\":8594:8605  mload(0x40) */\n      mload\n        /* \"@openzeppelin/contracts/token/ERC20/utils/SafeERC20.sol\":8631:8639  selector */\n      dup2\n        /* \"@openzeppelin/contracts/token/ERC20/utils/SafeERC20.sol\":8625:8629  0x00 */\n      0x00\n        /* \"@openzeppelin/contracts/token/ERC20/utils/SafeERC20.sol\":8618:8640  mstore(0x00, selector) */\n      mstore\n        /* \"@openzeppelin/contracts/token/ERC20/utils/SafeERC20.sol\":8686:8687  0 */\n      0x00\n        /* \"@openzeppelin/contracts/token/ERC20/utils/SafeERC20.sol\":8682:8688  not(0) */\n      not\n        /* \"@openzeppelin/contracts/token/ERC20/utils/SafeERC20.sol\":8678:8680  96 */\n      0x60\n        /* \"@openzeppelin/contracts/token/ERC20/utils/SafeERC20.sol\":8674:8689  shr(96, not(0)) */\n      shr\n        /* \"@openzeppelin/contracts/token/ERC20/utils/SafeERC20.sol\":8670:8672  to */\n      dup7\n        /* \"@openzeppelin/contracts/token/ERC20/utils/SafeERC20.sol\":8666:8690  and(to, shr(96, not(0))) */\n      and\n        /* \"@openzeppelin/contracts/token/ERC20/utils/SafeERC20.sol\":8660:8664  0x04 */\n      0x04\n        /* \"@openzeppelin/contracts/token/ERC20/utils/SafeERC20.sol\":8653:8691  mstore(0x04, and(to, shr(96, not(0)))) */\n      mstore\n        /* \"@openzeppelin/contracts/token/ERC20/utils/SafeERC20.sol\":8717:8722  value */\n      dup5\n        /* \"@openzeppelin/contracts/token/ERC20/utils/SafeERC20.sol\":8711:8715  0x24 */\n      0x24\n        /* \"@openzeppelin/contracts/token/ERC20/utils/SafeERC20.sol\":8704:8723  mstore(0x24, value) */\n      mstore\n        /* \"@openzeppelin/contracts/token/ERC20/utils/SafeERC20.sol\":8787:8791  0x20 */\n      0x20\n        /* \"@openzeppelin/contracts/token/ERC20/utils/SafeERC20.sol\":8781:8785  0x00 */\n      0x00\n        /* \"@openzeppelin/contracts/token/ERC20/utils/SafeERC20.sol\":8775:8779  0x44 */\n      0x44\n        /* \"@openzeppelin/contracts/token/ERC20/utils/SafeERC20.sol\":8769:8773  0x00 */\n      0x00\n        /* \"@openzeppelin/contracts/token/ERC20/utils/SafeERC20.sol\":8766:8767  0 */\n      0x00\n        /* \"@openzeppelin/contracts/token/ERC20/utils/SafeERC20.sol\":8759:8764  token */\n      dup12\n        /* \"@openzeppelin/contracts/token/ERC20/utils/SafeERC20.sol\":8752:8757  gas() */\n      gas\n        /* \"@openzeppelin/contracts/token/ERC20/utils/SafeERC20.sol\":8747:8792  call(gas(), token, 0, 0x00, 0x44, 0x00, 0x20) */\n      call\n        /* \"@openzeppelin/contracts/token/ERC20/utils/SafeERC20.sol\":8736:8792  success := call(gas(), token, 0, 0x00, 0x44, 0x00, 0x20) */\n      swap3\n      pop\n        /* \"@openzeppelin/contracts/token/ERC20/utils/SafeERC20.sol\":9004:9005  1 */\n      0x01\n        /* \"@openzeppelin/contracts/token/ERC20/utils/SafeERC20.sol\":8997:9001  0x00 */\n      0x00\n        /* \"@openzeppelin/contracts/token/ERC20/utils/SafeERC20.sol\":8991:9002  mload(0x00) */\n      mload\n        /* \"@openzeppelin/contracts/token/ERC20/utils/SafeERC20.sol\":8988:9006  eq(mload(0x00), 1) */\n      eq\n        /* \"@openzeppelin/contracts/token/ERC20/utils/SafeERC20.sol\":8979:8986  success */\n      dup4\n        /* \"@openzeppelin/contracts/token/ERC20/utils/SafeERC20.sol\":8975:9007  and(success, eq(mload(0x00), 1)) */\n      and\n        /* \"@openzeppelin/contracts/token/ERC20/utils/SafeERC20.sol\":8965:9571  if iszero(and(success, eq(mload(0x00), 1))) {... */\n      tag_228\n      jumpi\n        /* \"@openzeppelin/contracts/token/ERC20/utils/SafeERC20.sol\":9136:9142  bubble */\n      dup4\n        /* \"@openzeppelin/contracts/token/ERC20/utils/SafeERC20.sol\":9126:9133  success */\n      dup4\n        /* \"@openzeppelin/contracts/token/ERC20/utils/SafeERC20.sol\":9119:9134  iszero(success) */\n      iszero\n        /* \"@openzeppelin/contracts/token/ERC20/utils/SafeERC20.sol\":9115:9143  and(iszero(success), bubble) */\n      and\n        /* \"@openzeppelin/contracts/token/ERC20/utils/SafeERC20.sol\":9112:9277  if and(iszero(success), bubble) {... */\n      iszero\n      tag_229\n      jumpi\n        /* \"@openzeppelin/contracts/token/ERC20/utils/SafeERC20.sol\":9192:9208  returndatasize() */\n      returndatasize\n        /* \"@openzeppelin/contracts/token/ERC20/utils/SafeERC20.sol\":9186:9190  0x00 */\n      0x00\n        /* \"@openzeppelin/contracts/token/ERC20/utils/SafeERC20.sol\":9181:9184  fmp */\n      dup3\n        /* \"@openzeppelin/contracts/token/ERC20/utils/SafeERC20.sol\":9166:9209  returndatacopy(fmp, 0x00, returndatasize()) */\n      returndatacopy\n        /* \"@openzeppelin/contracts/token/ERC20/utils/SafeERC20.sol\":9242:9258  returndatasize() */\n      returndatasize\n        /* \"@openzeppelin/contracts/token/ERC20/utils/SafeERC20.sol\":9237:9240  fmp */\n      dup2\n        /* \"@openzeppelin/contracts/token/ERC20/utils/SafeERC20.sol\":9230:9259  revert(fmp, returndatasize()) */\n      revert\n        /* \"@openzeppelin/contracts/token/ERC20/utils/SafeERC20.sol\":9112:9277  if and(iszero(success), bubble) {... */\n    tag_229:\n        /* \"@openzeppelin/contracts/token/ERC20/utils/SafeERC20.sol\":9553:9554  0 */\n      0x00\n        /* \"@openzeppelin/contracts/token/ERC20/utils/SafeERC20.sol\":9545:9550  token */\n      dup8\n        /* \"@openzeppelin/contracts/token/ERC20/utils/SafeERC20.sol\":9533:9551  extcodesize(token) */\n      extcodesize\n        /* \"@openzeppelin/contracts/token/ERC20/utils/SafeERC20.sol\":9530:9555  gt(extcodesize(token), 0) */\n      gt\n        /* \"@openzeppelin/contracts/token/ERC20/utils/SafeERC20.sol\":9511:9527  returndatasize() */\n      returndatasize\n        /* \"@openzeppelin/contracts/token/ERC20/utils/SafeERC20.sol\":9504:9528  iszero(returndatasize()) */\n      iszero\n        /* \"@openzeppelin/contracts/token/ERC20/utils/SafeERC20.sol\":9500:9556  and(iszero(returndatasize()), gt(extcodesize(token), 0)) */\n      and\n        /* \"@openzeppelin/contracts/token/ERC20/utils/SafeERC20.sol\":9491:9498  success */\n      dup4\n        /* \"@openzeppelin/contracts/token/ERC20/utils/SafeERC20.sol\":9487:9557  and(success, and(iszero(returndatasize()), gt(extcodesize(token), 0))) */\n      and\n        /* \"@openzeppelin/contracts/token/ERC20/utils/SafeERC20.sol\":9476:9557  success := and(success, and(iszero(returndatasize()), gt(extcodesize(token), 0))) */\n      swap3\n      pop\n        /* \"@openzeppelin/contracts/token/ERC20/utils/SafeERC20.sol\":8965:9571  if iszero(and(success, eq(mload(0x00), 1))) {... */\n    tag_228:\n        /* \"@openzeppelin/contracts/token/ERC20/utils/SafeERC20.sol\":9597:9600  fmp */\n      dup1\n        /* \"@openzeppelin/contracts/token/ERC20/utils/SafeERC20.sol\":9591:9595  0x40 */\n      0x40\n        /* \"@openzeppelin/contracts/token/ERC20/utils/SafeERC20.sol\":9584:9601  mstore(0x40, fmp) */\n      mstore\n        /* \"@openzeppelin/contracts/token/ERC20/utils/SafeERC20.sol\":8569:9611  {... */\n      pop\n      pop\n        /* \"@openzeppelin/contracts/token/ERC20/utils/SafeERC20.sol\":8373:9617  function _safeTransfer(IERC20 token, address to, uint256 value, bool bubble) private returns (bool success) {... */\n      swap5\n      swap4\n      pop\n      pop\n      pop\n      pop\n      jump\t// out\n        /* \"@openzeppelin/contracts/token/ERC20/utils/SafeERC20.sol\":10165:11558  function _safeTransferFrom(... */\n    tag_223:\n        /* \"@openzeppelin/contracts/token/ERC20/utils/SafeERC20.sol\":10323:10335  bool success */\n      0x00\n        /* \"@openzeppelin/contracts/token/ERC20/utils/SafeERC20.sol\":10347:10362  bytes4 selector */\n      0x00\n        /* \"@openzeppelin/contracts/token/ERC20/utils/SafeERC20.sol\":10365:10393  IERC20.transferFrom.selector */\n      shl(0xe0, 0x23b872dd)\n        /* \"@openzeppelin/contracts/token/ERC20/utils/SafeERC20.sol\":10347:10393  bytes4 selector = IERC20.transferFrom.selector */\n      swap1\n      pop\n        /* \"@openzeppelin/contracts/token/ERC20/utils/SafeERC20.sol\":10460:10464  0x40 */\n      0x40\n        /* \"@openzeppelin/contracts/token/ERC20/utils/SafeERC20.sol\":10454:10465  mload(0x40) */\n      mload\n        /* \"@openzeppelin/contracts/token/ERC20/utils/SafeERC20.sol\":10491:10499  selector */\n      dup2\n        /* \"@openzeppelin/contracts/token/ERC20/utils/SafeERC20.sol\":10485:10489  0x00 */\n      0x00\n        /* \"@openzeppelin/contracts/token/ERC20/utils/SafeERC20.sol\":10478:10500  mstore(0x00, selector) */\n      mstore\n        /* \"@openzeppelin/contracts/token/ERC20/utils/SafeERC20.sol\":10548:10549  0 */\n      0x00\n        /* \"@openzeppelin/contracts/token/ERC20/utils/SafeERC20.sol\":10544:10550  not(0) */\n      not\n        /* \"@openzeppelin/contracts/token/ERC20/utils/SafeERC20.sol\":10540:10542  96 */\n      0x60\n        /* \"@openzeppelin/contracts/token/ERC20/utils/SafeERC20.sol\":10536:10551  shr(96, not(0)) */\n      shr\n        /* \"@openzeppelin/contracts/token/ERC20/utils/SafeERC20.sol\":10530:10534  from */\n      dup8\n        /* \"@openzeppelin/contracts/token/ERC20/utils/SafeERC20.sol\":10526:10552  and(from, shr(96, not(0))) */\n      and\n        /* \"@openzeppelin/contracts/token/ERC20/utils/SafeERC20.sol\":10520:10524  0x04 */\n      0x04\n        /* \"@openzeppelin/contracts/token/ERC20/utils/SafeERC20.sol\":10513:10553  mstore(0x04, and(from, shr(96, not(0)))) */\n      mstore\n        /* \"@openzeppelin/contracts/token/ERC20/utils/SafeERC20.sol\":10599:10600  0 */\n      0x00\n        /* \"@openzeppelin/contracts/token/ERC20/utils/SafeERC20.sol\":10595:10601  not(0) */\n      not\n        /* \"@openzeppelin/contracts/token/ERC20/utils/SafeERC20.sol\":10591:10593  96 */\n      0x60\n        /* \"@openzeppelin/contracts/token/ERC20/utils/SafeERC20.sol\":10587:10602  shr(96, not(0)) */\n      shr\n        /* \"@openzeppelin/contracts/token/ERC20/utils/SafeERC20.sol\":10583:10585  to */\n      dup7\n        /* \"@openzeppelin/contracts/token/ERC20/utils/SafeERC20.sol\":10579:10603  and(to, shr(96, not(0))) */\n      and\n        /* \"@openzeppelin/contracts/token/ERC20/utils/SafeERC20.sol\":10573:10577  0x24 */\n      0x24\n        /* \"@openzeppelin/contracts/token/ERC20/utils/SafeERC20.sol\":10566:10604  mstore(0x24, and(to, shr(96, not(0)))) */\n      mstore\n        /* \"@openzeppelin/contracts/token/ERC20/utils/SafeERC20.sol\":10630:10635  value */\n      dup5\n        /* \"@openzeppelin/contracts/token/ERC20/utils/SafeERC20.sol\":10624:10628  0x44 */\n      0x44\n        /* \"@openzeppelin/contracts/token/ERC20/utils/SafeERC20.sol\":10617:10636  mstore(0x44, value) */\n      mstore\n        /* \"@openzeppelin/contracts/token/ERC20/utils/SafeERC20.sol\":10700:10704  0x20 */\n      0x20\n        /* \"@openzeppelin/contracts/token/ERC20/utils/SafeERC20.sol\":10694:10698  0x00 */\n      0x00\n        /* \"@openzeppelin/contracts/token/ERC20/utils/SafeERC20.sol\":10688:10692  0x64 */\n      0x64\n        /* \"@openzeppelin/contracts/token/ERC20/utils/SafeERC20.sol\":10682:10686  0x00 */\n      0x00\n        /* \"@openzeppelin/contracts/token/ERC20/utils/SafeERC20.sol\":10679:10680  0 */\n      0x00\n        /* \"@openzeppelin/contracts/token/ERC20/utils/SafeERC20.sol\":10672:10677  token */\n      dup13\n        /* \"@openzeppelin/contracts/token/ERC20/utils/SafeERC20.sol\":10665:10670  gas() */\n      gas\n        /* \"@openzeppelin/contracts/token/ERC20/utils/SafeERC20.sol\":10660:10705  call(gas(), token, 0, 0x00, 0x64, 0x00, 0x20) */\n      call\n        /* \"@openzeppelin/contracts/token/ERC20/utils/SafeERC20.sol\":10649:10705  success := call(gas(), token, 0, 0x00, 0x64, 0x00, 0x20) */\n      swap3\n      pop\n        /* \"@openzeppelin/contracts/token/ERC20/utils/SafeERC20.sol\":10917:10918  1 */\n      0x01\n        /* \"@openzeppelin/contracts/token/ERC20/utils/SafeERC20.sol\":10910:10914  0x00 */\n      0x00\n        /* \"@openzeppelin/contracts/token/ERC20/utils/SafeERC20.sol\":10904:10915  mload(0x00) */\n      mload\n        /* \"@openzeppelin/contracts/token/ERC20/utils/SafeERC20.sol\":10901:10919  eq(mload(0x00), 1) */\n      eq\n        /* \"@openzeppelin/contracts/token/ERC20/utils/SafeERC20.sol\":10892:10899  success */\n      dup4\n        /* \"@openzeppelin/contracts/token/ERC20/utils/SafeERC20.sol\":10888:10920  and(success, eq(mload(0x00), 1)) */\n      and\n        /* \"@openzeppelin/contracts/token/ERC20/utils/SafeERC20.sol\":10878:11484  if iszero(and(success, eq(mload(0x00), 1))) {... */\n      tag_231\n      jumpi\n        /* \"@openzeppelin/contracts/token/ERC20/utils/SafeERC20.sol\":11049:11055  bubble */\n      dup4\n        /* \"@openzeppelin/contracts/token/ERC20/utils/SafeERC20.sol\":11039:11046  success */\n      dup4\n        /* \"@openzeppelin/contracts/token/ERC20/utils/SafeERC20.sol\":11032:11047  iszero(success) */\n      iszero\n        /* \"@openzeppelin/contracts/token/ERC20/utils/SafeERC20.sol\":11028:11056  and(iszero(success), bubble) */\n      and\n        /* \"@openzeppelin/contracts/token/ERC20/utils/SafeERC20.sol\":11025:11190  if and(iszero(success), bubble) {... */\n      iszero\n      tag_232\n      jumpi\n        /* \"@openzeppelin/contracts/token/ERC20/utils/SafeERC20.sol\":11105:11121  returndatasize() */\n      returndatasize\n        /* \"@openzeppelin/contracts/token/ERC20/utils/SafeERC20.sol\":11099:11103  0x00 */\n      0x00\n        /* \"@openzeppelin/contracts/token/ERC20/utils/SafeERC20.sol\":11094:11097  fmp */\n      dup3\n        /* \"@openzeppelin/contracts/token/ERC20/utils/SafeERC20.sol\":11079:11122  returndatacopy(fmp, 0x00, returndatasize()) */\n      returndatacopy\n        /* \"@openzeppelin/contracts/token/ERC20/utils/SafeERC20.sol\":11155:11171  returndatasize() */\n      returndatasize\n        /* \"@openzeppelin/contracts/token/ERC20/utils/SafeERC20.sol\":11150:11153  fmp */\n      dup2\n        /* \"@openzeppelin/contracts/token/ERC20/utils/SafeERC20.sol\":11143:11172  revert(fmp, returndatasize()) */\n      revert\n        /* \"@openzeppelin/contracts/token/ERC20/utils/SafeERC20.sol\":11025:11190  if and(iszero(success), bubble) {... */\n    tag_232:\n        /* \"@openzeppelin/contracts/token/ERC20/utils/SafeERC20.sol\":11466:11467  0 */\n      0x00\n        /* \"@openzeppelin/contracts/token/ERC20/utils/SafeERC20.sol\":11458:11463  token */\n      dup9\n        /* \"@openzeppelin/contracts/token/ERC20/utils/SafeERC20.sol\":11446:11464  extcodesize(token) */\n      extcodesize\n        /* \"@openzeppelin/contracts/token/ERC20/utils/SafeERC20.sol\":11443:11468  gt(extcodesize(token), 0) */\n      gt\n        /* \"@openzeppelin/contracts/token/ERC20/utils/SafeERC20.sol\":11424:11440  returndatasize() */\n      returndatasize\n        /* \"@openzeppelin/contracts/token/ERC20/utils/SafeERC20.sol\":11417:11441  iszero(returndatasize()) */\n      iszero\n        /* \"@openzeppelin/contracts/token/ERC20/utils/SafeERC20.sol\":11413:11469  and(iszero(returndatasize()), gt(extcodesize(token), 0)) */\n      and\n        /* \"@openzeppelin/contracts/token/ERC20/utils/SafeERC20.sol\":11404:11411  success */\n      dup4\n        /* \"@openzeppelin/contracts/token/ERC20/utils/SafeERC20.sol\":11400:11470  and(success, and(iszero(returndatasize()), gt(extcodesize(token), 0))) */\n      and\n        /* \"@openzeppelin/contracts/token/ERC20/utils/SafeERC20.sol\":11389:11470  success := and(success, and(iszero(returndatasize()), gt(extcodesize(token), 0))) */\n      swap3\n      pop\n        /* \"@openzeppelin/contracts/token/ERC20/utils/SafeERC20.sol\":10878:11484  if iszero(and(success, eq(mload(0x00), 1))) {... */\n    tag_231:\n        /* \"@openzeppelin/contracts/token/ERC20/utils/SafeERC20.sol\":11510:11513  fmp */\n      dup1\n        /* \"@openzeppelin/contracts/token/ERC20/utils/SafeERC20.sol\":11504:11508  0x40 */\n      0x40\n        /* \"@openzeppelin/contracts/token/ERC20/utils/SafeERC20.sol\":11497:11514  mstore(0x40, fmp) */\n      mstore\n        /* \"@openzeppelin/contracts/token/ERC20/utils/SafeERC20.sol\":11540:11541  0 */\n      0x00\n        /* \"@openzeppelin/contracts/token/ERC20/utils/SafeERC20.sol\":11534:11538  0x60 */\n      0x60\n        /* \"@openzeppelin/contracts/token/ERC20/utils/SafeERC20.sol\":11527:11542  mstore(0x60, 0) */\n      mstore\n        /* \"@openzeppelin/contracts/token/ERC20/utils/SafeERC20.sol\":10429:11552  {... */\n      pop\n      pop\n        /* \"@openzeppelin/contracts/token/ERC20/utils/SafeERC20.sol\":10165:11558  function _safeTransferFrom(... */\n      swap6\n      swap5\n      pop\n      pop\n      pop\n      pop\n      pop\n      jump\t// out\n    tag_103:\n      mload(0x40)\n      dup1\n      0x60\n      add\n      0x40\n      mstore\n      dup1\n      0x60\n      dup2\n      mstore\n      0x20\n      add\n      0x60\n      dup2\n      mstore\n      0x20\n      add\n      0x60\n      dup2\n      mstore\n      pop\n      swap1\n      jump\t// out\n        /* \"#utility.yul\":7:106   */\n    tag_233:\n        /* \"#utility.yul\":59:65   */\n      0x00\n        /* \"#utility.yul\":93:98   */\n      dup2\n        /* \"#utility.yul\":87:99   */\n      mload\n        /* \"#utility.yul\":77:99   */\n      swap1\n      pop\n        /* \"#utility.yul\":7:106   */\n      swap2\n      swap1\n      pop\n      jump\t// out\n        /* \"#utility.yul\":112:281   */\n    tag_234:\n        /* \"#utility.yul\":196:207   */\n      0x00\n        /* \"#utility.yul\":230:236   */\n      dup3\n        /* \"#utility.yul\":225:228   */\n      dup3\n        /* \"#utility.yul\":218:237   */\n      mstore\n        /* \"#utility.yul\":270:274   */\n      0x20\n        /* \"#utility.yul\":265:268   */\n      dup3\n        /* \"#utility.yul\":261:275   */\n      add\n        /* \"#utility.yul\":246:275   */\n      swap1\n      pop\n        /* \"#utility.yul\":112:281   */\n      swap3\n      swap2\n      pop\n      pop\n      jump\t// out\n        /* \"#utility.yul\":287:426   */\n    tag_235:\n        /* \"#utility.yul\":376:382   */\n      dup3\n        /* \"#utility.yul\":371:374   */\n      dup2\n        /* \"#utility.yul\":366:369   */\n      dup4\n        /* \"#utility.yul\":360:383   */\n      mcopy\n        /* \"#utility.yul\":417:418   */\n      0x00\n        /* \"#utility.yul\":408:414   */\n      dup4\n        /* \"#utility.yul\":403:406   */\n      dup4\n        /* \"#utility.yul\":399:415   */\n      add\n        /* \"#utility.yul\":392:419   */\n      mstore\n        /* \"#utility.yul\":287:426   */\n      pop\n      pop\n      pop\n      jump\t// out\n        /* \"#utility.yul\":432:534   */\n    tag_236:\n        /* \"#utility.yul\":473:479   */\n      0x00\n        /* \"#utility.yul\":524:526   */\n      0x1f\n        /* \"#utility.yul\":520:527   */\n      not\n        /* \"#utility.yul\":515:517   */\n      0x1f\n        /* \"#utility.yul\":508:513   */\n      dup4\n        /* \"#utility.yul\":504:518   */\n      add\n        /* \"#utility.yul\":500:528   */\n      and\n        /* \"#utility.yul\":490:528   */\n      swap1\n      pop\n        /* \"#utility.yul\":432:534   */\n      swap2\n      swap1\n      pop\n      jump\t// out\n        /* \"#utility.yul\":540:917   */\n    tag_237:\n        /* \"#utility.yul\":628:631   */\n      0x00\n        /* \"#utility.yul\":656:695   */\n      tag_316\n        /* \"#utility.yul\":689:694   */\n      dup3\n        /* \"#utility.yul\":656:695   */\n      tag_233\n      jump\t// in\n    tag_316:\n        /* \"#utility.yul\":711:782   */\n      tag_317\n        /* \"#utility.yul\":775:781   */\n      dup2\n        /* \"#utility.yul\":770:773   */\n      dup6\n        /* \"#utility.yul\":711:782   */\n      tag_234\n      jump\t// in\n    tag_317:\n        /* \"#utility.yul\":704:782   */\n      swap4\n      pop\n        /* \"#utility.yul\":791:856   */\n      tag_318\n        /* \"#utility.yul\":849:855   */\n      dup2\n        /* \"#utility.yul\":844:847   */\n      dup6\n        /* \"#utility.yul\":837:841   */\n      0x20\n        /* \"#utility.yul\":830:835   */\n      dup7\n        /* \"#utility.yul\":826:842   */\n      add\n        /* \"#utility.yul\":791:856   */\n      tag_235\n      jump\t// in\n    tag_318:\n        /* \"#utility.yul\":881:910   */\n      tag_319\n        /* \"#utility.yul\":903:909   */\n      dup2\n        /* \"#utility.yul\":881:910   */\n      tag_236\n      jump\t// in\n    tag_319:\n        /* \"#utility.yul\":876:879   */\n      dup5\n        /* \"#utility.yul\":872:911   */\n      add\n        /* \"#utility.yul\":865:911   */\n      swap2\n      pop\n        /* \"#utility.yul\":632:917   */\n      pop\n        /* \"#utility.yul\":540:917   */\n      swap3\n      swap2\n      pop\n      pop\n      jump\t// out\n        /* \"#utility.yul\":923:1236   */\n    tag_19:\n        /* \"#utility.yul\":1036:1040   */\n      0x00\n        /* \"#utility.yul\":1074:1076   */\n      0x20\n        /* \"#utility.yul\":1063:1072   */\n      dup3\n        /* \"#utility.yul\":1059:1077   */\n      add\n        /* \"#utility.yul\":1051:1077   */\n      swap1\n      pop\n        /* \"#utility.yul\":1123:1132   */\n      dup2\n        /* \"#utility.yul\":1117:1121   */\n      dup2\n        /* \"#utility.yul\":1113:1133   */\n      sub\n        /* \"#utility.yul\":1109:1110   */\n      0x00\n        /* \"#utility.yul\":1098:1107   */\n      dup4\n        /* \"#utility.yul\":1094:1111   */\n      add\n        /* \"#utility.yul\":1087:1134   */\n      mstore\n        /* \"#utility.yul\":1151:1229   */\n      tag_321\n        /* \"#utility.yul\":1224:1228   */\n      dup2\n        /* \"#utility.yul\":1215:1221   */\n      dup5\n        /* \"#utility.yul\":1151:1229   */\n      tag_237\n      jump\t// in\n    tag_321:\n        /* \"#utility.yul\":1143:1229   */\n      swap1\n      pop\n        /* \"#utility.yul\":923:1236   */\n      swap3\n      swap2\n      pop\n      pop\n      jump\t// out\n        /* \"#utility.yul\":1242:1317   */\n    tag_238:\n        /* \"#utility.yul\":1275:1281   */\n      0x00\n        /* \"#utility.yul\":1308:1310   */\n      0x40\n        /* \"#utility.yul\":1302:1311   */\n      mload\n        /* \"#utility.yul\":1292:1311   */\n      swap1\n      pop\n        /* \"#utility.yul\":1242:1317   */\n      swap1\n      jump\t// out\n        /* \"#utility.yul\":1323:1440   */\n    tag_239:\n        /* \"#utility.yul\":1432:1433   */\n      0x00\n        /* \"#utility.yul\":1429:1430   */\n      0x00\n        /* \"#utility.yul\":1422:1434   */\n      revert\n        /* \"#utility.yul\":1446:1563   */\n    tag_240:\n        /* \"#utility.yul\":1555:1556   */\n      0x00\n        /* \"#utility.yul\":1552:1553   */\n      0x00\n        /* \"#utility.yul\":1545:1557   */\n      revert\n        /* \"#utility.yul\":1569:1686   */\n    tag_241:\n        /* \"#utility.yul\":1678:1679   */\n      0x00\n        /* \"#utility.yul\":1675:1676   */\n      0x00\n        /* \"#utility.yul\":1668:1680   */\n      revert\n        /* \"#utility.yul\":1692:1809   */\n    tag_242:\n        /* \"#utility.yul\":1801:1802   */\n      0x00\n        /* \"#utility.yul\":1798:1799   */\n      0x00\n        /* \"#utility.yul\":1791:1803   */\n      revert\n        /* \"#utility.yul\":1815:1995   */\n    tag_99:\n        /* \"#utility.yul\":1863:1940   */\n      0x4e487b7100000000000000000000000000000000000000000000000000000000\n        /* \"#utility.yul\":1860:1861   */\n      0x00\n        /* \"#utility.yul\":1853:1941   */\n      mstore\n        /* \"#utility.yul\":1960:1964   */\n      0x41\n        /* \"#utility.yul\":1957:1958   */\n      0x04\n        /* \"#utility.yul\":1950:1965   */\n      mstore\n        /* \"#utility.yul\":1984:1988   */\n      0x24\n        /* \"#utility.yul\":1981:1982   */\n      0x00\n        /* \"#utility.yul\":1974:1989   */\n      revert\n        /* \"#utility.yul\":2001:2282   */\n    tag_243:\n        /* \"#utility.yul\":2084:2111   */\n      tag_329\n        /* \"#utility.yul\":2106:2110   */\n      dup3\n        /* \"#utility.yul\":2084:2111   */\n      tag_236\n      jump\t// in\n    tag_329:\n        /* \"#utility.yul\":2076:2082   */\n      dup2\n        /* \"#utility.yul\":2072:2112   */\n      add\n        /* \"#utility.yul\":2214:2220   */\n      dup2\n        /* \"#utility.yul\":2202:2212   */\n      dup2\n        /* \"#utility.yul\":2199:2221   */\n      lt\n        /* \"#utility.yul\":2178:2196   */\n      0xffffffffffffffff\n        /* \"#utility.yul\":2166:2176   */\n      dup3\n        /* \"#utility.yul\":2163:2197   */\n      gt\n        /* \"#utility.yul\":2160:2222   */\n      or\n        /* \"#utility.yul\":2157:2245   */\n      iszero\n      tag_330\n      jumpi\n        /* \"#utility.yul\":2225:2243   */\n      tag_331\n      tag_99\n      jump\t// in\n    tag_331:\n        /* \"#utility.yul\":2157:2245   */\n    tag_330:\n        /* \"#utility.yul\":2265:2275   */\n      dup1\n        /* \"#utility.yul\":2261:2263   */\n      0x40\n        /* \"#utility.yul\":2254:2276   */\n      mstore\n        /* \"#utility.yul\":2044:2282   */\n      pop\n        /* \"#utility.yul\":2001:2282   */\n      pop\n      pop\n      jump\t// out\n        /* \"#utility.yul\":2288:2417   */\n    tag_244:\n        /* \"#utility.yul\":2322:2328   */\n      0x00\n        /* \"#utility.yul\":2349:2369   */\n      tag_333\n      tag_238\n      jump\t// in\n    tag_333:\n        /* \"#utility.yul\":2339:2369   */\n      swap1\n      pop\n        /* \"#utility.yul\":2378:2411   */\n      tag_334\n        /* \"#utility.yul\":2406:2410   */\n      dup3\n        /* \"#utility.yul\":2398:2404   */\n      dup3\n        /* \"#utility.yul\":2378:2411   */\n      tag_243\n      jump\t// in\n    tag_334:\n        /* \"#utility.yul\":2288:2417   */\n      swap2\n      swap1\n      pop\n      jump\t// out\n        /* \"#utility.yul\":2423:2731   */\n    tag_245:\n        /* \"#utility.yul\":2485:2489   */\n      0x00\n        /* \"#utility.yul\":2575:2593   */\n      0xffffffffffffffff\n        /* \"#utility.yul\":2567:2573   */\n      dup3\n        /* \"#utility.yul\":2564:2594   */\n      gt\n        /* \"#utility.yul\":2561:2617   */\n      iszero\n      tag_336\n      jumpi\n        /* \"#utility.yul\":2597:2615   */\n      tag_337\n      tag_99\n      jump\t// in\n    tag_337:\n        /* \"#utility.yul\":2561:2617   */\n    tag_336:\n        /* \"#utility.yul\":2635:2664   */\n      tag_338\n        /* \"#utility.yul\":2657:2663   */\n      dup3\n        /* \"#utility.yul\":2635:2664   */\n      tag_236\n      jump\t// in\n    tag_338:\n        /* \"#utility.yul\":2627:2664   */\n      swap1\n      pop\n        /* \"#utility.yul\":2719:2723   */\n      0x20\n        /* \"#utility.yul\":2713:2717   */\n      dup2\n        /* \"#utility.yul\":2709:2724   */\n      add\n        /* \"#utility.yul\":2701:2724   */\n      swap1\n      pop\n        /* \"#utility.yul\":2423:2731   */\n      swap2\n      swap1\n      pop\n      jump\t// out\n        /* \"#utility.yul\":2737:2885   */\n    tag_246:\n        /* \"#utility.yul\":2835:2841   */\n      dup3\n        /* \"#utility.yul\":2830:2833   */\n      dup2\n        /* \"#utility.yul\":2825:2828   */\n      dup4\n        /* \"#utility.yul\":2812:2842   */\n      calldatacopy\n        /* \"#utility.yul\":2876:2877   */\n      0x00\n        /* \"#utility.yul\":2867:2873   */\n      dup4\n        /* \"#utility.yul\":2862:2865   */\n      dup4\n        /* \"#utility.yul\":2858:2874   */\n      add\n        /* \"#utility.yul\":2851:2878   */\n      mstore\n        /* \"#utility.yul\":2737:2885   */\n      pop\n      pop\n      pop\n      jump\t// out\n        /* \"#utility.yul\":2891:3316   */\n    tag_247:\n        /* \"#utility.yul\":2969:2974   */\n      0x00\n        /* \"#utility.yul\":2994:3060   */\n      tag_341\n        /* \"#utility.yul\":3010:3059   */\n      tag_342\n        /* \"#utility.yul\":3052:3058   */\n      dup5\n        /* \"#utility.yul\":3010:3059   */\n      tag_245\n      jump\t// in\n    tag_342:\n        /* \"#utility.yul\":2994:3060   */\n      tag_244\n      jump\t// in\n    tag_341:\n        /* \"#utility.yul\":2985:3060   */\n      swap1\n      pop\n        /* \"#utility.yul\":3083:3089   */\n      dup3\n        /* \"#utility.yul\":3076:3081   */\n      dup2\n        /* \"#utility.yul\":3069:3090   */\n      mstore\n        /* \"#utility.yul\":3121:3125   */\n      0x20\n        /* \"#utility.yul\":3114:3119   */\n      dup2\n        /* \"#utility.yul\":3110:3126   */\n      add\n        /* \"#utility.yul\":3159:3162   */\n      dup5\n        /* \"#utility.yul\":3150:3156   */\n      dup5\n        /* \"#utility.yul\":3145:3148   */\n      dup5\n        /* \"#utility.yul\":3141:3157   */\n      add\n        /* \"#utility.yul\":3138:3163   */\n      gt\n        /* \"#utility.yul\":3135:3247   */\n      iszero\n      tag_343\n      jumpi\n        /* \"#utility.yul\":3166:3245   */\n      tag_344\n      tag_242\n      jump\t// in\n    tag_344:\n        /* \"#utility.yul\":3135:3247   */\n    tag_343:\n        /* \"#utility.yul\":3256:3310   */\n      tag_345\n        /* \"#utility.yul\":3303:3309   */\n      dup5\n        /* \"#utility.yul\":3298:3301   */\n      dup3\n        /* \"#utility.yul\":3293:3296   */\n      dup6\n        /* \"#utility.yul\":3256:3310   */\n      tag_246\n      jump\t// in\n    tag_345:\n        /* \"#utility.yul\":2975:3316   */\n      pop\n        /* \"#utility.yul\":2891:3316   */\n      swap4\n      swap3\n      pop\n      pop\n      pop\n      jump\t// out\n        /* \"#utility.yul\":3336:3676   */\n    tag_248:\n        /* \"#utility.yul\":3392:3397   */\n      0x00\n        /* \"#utility.yul\":3441:3444   */\n      dup3\n        /* \"#utility.yul\":3434:3438   */\n      0x1f\n        /* \"#utility.yul\":3426:3432   */\n      dup4\n        /* \"#utility.yul\":3422:3439   */\n      add\n        /* \"#utility.yul\":3418:3445   */\n      slt\n        /* \"#utility.yul\":3408:3530   */\n      tag_347\n      jumpi\n        /* \"#utility.yul\":3449:3528   */\n      tag_348\n      tag_241\n      jump\t// in\n    tag_348:\n        /* \"#utility.yul\":3408:3530   */\n    tag_347:\n        /* \"#utility.yul\":3566:3572   */\n      dup2\n        /* \"#utility.yul\":3553:3573   */\n      calldataload\n        /* \"#utility.yul\":3591:3670   */\n      tag_349\n        /* \"#utility.yul\":3666:3669   */\n      dup5\n        /* \"#utility.yul\":3658:3664   */\n      dup3\n        /* \"#utility.yul\":3651:3655   */\n      0x20\n        /* \"#utility.yul\":3643:3649   */\n      dup7\n        /* \"#utility.yul\":3639:3656   */\n      add\n        /* \"#utility.yul\":3591:3670   */\n      tag_247\n      jump\t// in\n    tag_349:\n        /* \"#utility.yul\":3582:3670   */\n      swap2\n      pop\n        /* \"#utility.yul\":3398:3676   */\n      pop\n        /* \"#utility.yul\":3336:3676   */\n      swap3\n      swap2\n      pop\n      pop\n      jump\t// out\n        /* \"#utility.yul\":3682:4191   */\n    tag_22:\n        /* \"#utility.yul\":3751:3757   */\n      0x00\n        /* \"#utility.yul\":3800:3802   */\n      0x20\n        /* \"#utility.yul\":3788:3797   */\n      dup3\n        /* \"#utility.yul\":3779:3786   */\n      dup5\n        /* \"#utility.yul\":3775:3798   */\n      sub\n        /* \"#utility.yul\":3771:3803   */\n      slt\n        /* \"#utility.yul\":3768:3887   */\n      iszero\n      tag_351\n      jumpi\n        /* \"#utility.yul\":3806:3885   */\n      tag_352\n      tag_239\n      jump\t// in\n    tag_352:\n        /* \"#utility.yul\":3768:3887   */\n    tag_351:\n        /* \"#utility.yul\":3954:3955   */\n      0x00\n        /* \"#utility.yul\":3943:3952   */\n      dup3\n        /* \"#utility.yul\":3939:3956   */\n      add\n        /* \"#utility.yul\":3926:3957   */\n      calldataload\n        /* \"#utility.yul\":3984:4002   */\n      0xffffffffffffffff\n        /* \"#utility.yul\":3976:3982   */\n      dup2\n        /* \"#utility.yul\":3973:4003   */\n      gt\n        /* \"#utility.yul\":3970:4087   */\n      iszero\n      tag_353\n      jumpi\n        /* \"#utility.yul\":4006:4085   */\n      tag_354\n      tag_240\n      jump\t// in\n    tag_354:\n        /* \"#utility.yul\":3970:4087   */\n    tag_353:\n        /* \"#utility.yul\":4111:4174   */\n      tag_355\n        /* \"#utility.yul\":4166:4173   */\n      dup5\n        /* \"#utility.yul\":4157:4163   */\n      dup3\n        /* \"#utility.yul\":4146:4155   */\n      dup6\n        /* \"#utility.yul\":4142:4164   */\n      add\n        /* \"#utility.yul\":4111:4174   */\n      tag_248\n      jump\t// in\n    tag_355:\n        /* \"#utility.yul\":4101:4174   */\n      swap2\n      pop\n        /* \"#utility.yul\":3897:4184   */\n      pop\n        /* \"#utility.yul\":3682:4191   */\n      swap3\n      swap2\n      pop\n      pop\n      jump\t// out\n        /* \"#utility.yul\":4197:4323   */\n    tag_249:\n        /* \"#utility.yul\":4234:4241   */\n      0x00\n        /* \"#utility.yul\":4274:4316   */\n      0xffffffffffffffffffffffffffffffffffffffff\n        /* \"#utility.yul\":4267:4272   */\n      dup3\n        /* \"#utility.yul\":4263:4317   */\n      and\n        /* \"#utility.yul\":4252:4317   */\n      swap1\n      pop\n        /* \"#utility.yul\":4197:4323   */\n      swap2\n      swap1\n      pop\n      jump\t// out\n        /* \"#utility.yul\":4329:4425   */\n    tag_250:\n        /* \"#utility.yul\":4366:4373   */\n      0x00\n        /* \"#utility.yul\":4395:4419   */\n      tag_358\n        /* \"#utility.yul\":4413:4418   */\n      dup3\n        /* \"#utility.yul\":4395:4419   */\n      tag_249\n      jump\t// in\n    tag_358:\n        /* \"#utility.yul\":4384:4419   */\n      swap1\n      pop\n        /* \"#utility.yul\":4329:4425   */\n      swap2\n      swap1\n      pop\n      jump\t// out\n        /* \"#utility.yul\":4431:4549   */\n    tag_251:\n        /* \"#utility.yul\":4518:4542   */\n      tag_360\n        /* \"#utility.yul\":4536:4541   */\n      dup2\n        /* \"#utility.yul\":4518:4542   */\n      tag_250\n      jump\t// in\n    tag_360:\n        /* \"#utility.yul\":4513:4516   */\n      dup3\n        /* \"#utility.yul\":4506:4543   */\n      mstore\n        /* \"#utility.yul\":4431:4549   */\n      pop\n      pop\n      jump\t// out\n        /* \"#utility.yul\":4555:4777   */\n    tag_25:\n        /* \"#utility.yul\":4648:4652   */\n      0x00\n        /* \"#utility.yul\":4686:4688   */\n      0x20\n        /* \"#utility.yul\":4675:4684   */\n      dup3\n        /* \"#utility.yul\":4671:4689   */\n      add\n        /* \"#utility.yul\":4663:4689   */\n      swap1\n      pop\n        /* \"#utility.yul\":4699:4770   */\n      tag_362\n        /* \"#utility.yul\":4767:4768   */\n      0x00\n        /* \"#utility.yul\":4756:4765   */\n      dup4\n        /* \"#utility.yul\":4752:4769   */\n      add\n        /* \"#utility.yul\":4743:4749   */\n      dup5\n        /* \"#utility.yul\":4699:4770   */\n      tag_251\n      jump\t// in\n    tag_362:\n        /* \"#utility.yul\":4555:4777   */\n      swap3\n      swap2\n      pop\n      pop\n      jump\t// out\n        /* \"#utility.yul\":4783:4905   */\n    tag_252:\n        /* \"#utility.yul\":4856:4880   */\n      tag_364\n        /* \"#utility.yul\":4874:4879   */\n      dup2\n        /* \"#utility.yul\":4856:4880   */\n      tag_250\n      jump\t// in\n    tag_364:\n        /* \"#utility.yul\":4849:4854   */\n      dup2\n        /* \"#utility.yul\":4846:4881   */\n      eq\n        /* \"#utility.yul\":4836:4899   */\n      tag_365\n      jumpi\n        /* \"#utility.yul\":4895:4896   */\n      0x00\n        /* \"#utility.yul\":4892:4893   */\n      0x00\n        /* \"#utility.yul\":4885:4897   */\n      revert\n        /* \"#utility.yul\":4836:4899   */\n    tag_365:\n        /* \"#utility.yul\":4783:4905   */\n      pop\n      jump\t// out\n        /* \"#utility.yul\":4911:5050   */\n    tag_253:\n        /* \"#utility.yul\":4957:4962   */\n      0x00\n        /* \"#utility.yul\":4995:5001   */\n      dup2\n        /* \"#utility.yul\":4982:5002   */\n      calldataload\n        /* \"#utility.yul\":4973:5002   */\n      swap1\n      pop\n        /* \"#utility.yul\":5011:5044   */\n      tag_367\n        /* \"#utility.yul\":5038:5043   */\n      dup2\n        /* \"#utility.yul\":5011:5044   */\n      tag_252\n      jump\t// in\n    tag_367:\n        /* \"#utility.yul\":4911:5050   */\n      swap3\n      swap2\n      pop\n      pop\n      jump\t// out\n        /* \"#utility.yul\":5056:5385   */\n    tag_28:\n        /* \"#utility.yul\":5115:5121   */\n      0x00\n        /* \"#utility.yul\":5164:5166   */\n      0x20\n        /* \"#utility.yul\":5152:5161   */\n      dup3\n        /* \"#utility.yul\":5143:5150   */\n      dup5\n        /* \"#utility.yul\":5139:5162   */\n      sub\n        /* \"#utility.yul\":5135:5167   */\n      slt\n        /* \"#utility.yul\":5132:5251   */\n      iszero\n      tag_369\n      jumpi\n        /* \"#utility.yul\":5170:5249   */\n      tag_370\n      tag_239\n      jump\t// in\n    tag_370:\n        /* \"#utility.yul\":5132:5251   */\n    tag_369:\n        /* \"#utility.yul\":5290:5291   */\n      0x00\n        /* \"#utility.yul\":5315:5368   */\n      tag_371\n        /* \"#utility.yul\":5360:5367   */\n      dup5\n        /* \"#utility.yul\":5351:5357   */\n      dup3\n        /* \"#utility.yul\":5340:5349   */\n      dup6\n        /* \"#utility.yul\":5336:5358   */\n      add\n        /* \"#utility.yul\":5315:5368   */\n      tag_253\n      jump\t// in\n    tag_371:\n        /* \"#utility.yul\":5305:5368   */\n      swap2\n      pop\n        /* \"#utility.yul\":5261:5378   */\n      pop\n        /* \"#utility.yul\":5056:5385   */\n      swap3\n      swap2\n      pop\n      pop\n      jump\t// out\n        /* \"#utility.yul\":5391:5481   */\n    tag_254:\n        /* \"#utility.yul\":5425:5432   */\n      0x00\n        /* \"#utility.yul\":5468:5473   */\n      dup2\n        /* \"#utility.yul\":5461:5474   */\n      iszero\n        /* \"#utility.yul\":5454:5475   */\n      iszero\n        /* \"#utility.yul\":5443:5475   */\n      swap1\n      pop\n        /* \"#utility.yul\":5391:5481   */\n      swap2\n      swap1\n      pop\n      jump\t// out\n        /* \"#utility.yul\":5487:5596   */\n    tag_255:\n        /* \"#utility.yul\":5568:5589   */\n      tag_374\n        /* \"#utility.yul\":5583:5588   */\n      dup2\n        /* \"#utility.yul\":5568:5589   */\n      tag_254\n      jump\t// in\n    tag_374:\n        /* \"#utility.yul\":5563:5566   */\n      dup3\n        /* \"#utility.yul\":5556:5590   */\n      mstore\n        /* \"#utility.yul\":5487:5596   */\n      pop\n      pop\n      jump\t// out\n        /* \"#utility.yul\":5602:5812   */\n    tag_31:\n        /* \"#utility.yul\":5689:5693   */\n      0x00\n        /* \"#utility.yul\":5727:5729   */\n      0x20\n        /* \"#utility.yul\":5716:5725   */\n      dup3\n        /* \"#utility.yul\":5712:5730   */\n      add\n        /* \"#utility.yul\":5704:5730   */\n      swap1\n      pop\n        /* \"#utility.yul\":5740:5805   */\n      tag_376\n        /* \"#utility.yul\":5802:5803   */\n      0x00\n        /* \"#utility.yul\":5791:5800   */\n      dup4\n        /* \"#utility.yul\":5787:5804   */\n      add\n        /* \"#utility.yul\":5778:5784   */\n      dup5\n        /* \"#utility.yul\":5740:5805   */\n      tag_255\n      jump\t// in\n    tag_376:\n        /* \"#utility.yul\":5602:5812   */\n      swap3\n      swap2\n      pop\n      pop\n      jump\t// out\n        /* \"#utility.yul\":5818:5935   */\n    tag_256:\n        /* \"#utility.yul\":5927:5928   */\n      0x00\n        /* \"#utility.yul\":5924:5925   */\n      0x00\n        /* \"#utility.yul\":5917:5929   */\n      revert\n        /* \"#utility.yul\":5941:6058   */\n    tag_257:\n        /* \"#utility.yul\":6050:6051   */\n      0x00\n        /* \"#utility.yul\":6047:6048   */\n      0x00\n        /* \"#utility.yul\":6040:6052   */\n      revert\n        /* \"#utility.yul\":6078:6631   */\n    tag_258:\n        /* \"#utility.yul\":6136:6144   */\n      0x00\n        /* \"#utility.yul\":6146:6152   */\n      0x00\n        /* \"#utility.yul\":6196:6199   */\n      dup4\n        /* \"#utility.yul\":6189:6193   */\n      0x1f\n        /* \"#utility.yul\":6181:6187   */\n      dup5\n        /* \"#utility.yul\":6177:6194   */\n      add\n        /* \"#utility.yul\":6173:6200   */\n      slt\n        /* \"#utility.yul\":6163:6285   */\n      tag_380\n      jumpi\n        /* \"#utility.yul\":6204:6283   */\n      tag_381\n      tag_241\n      jump\t// in\n    tag_381:\n        /* \"#utility.yul\":6163:6285   */\n    tag_380:\n        /* \"#utility.yul\":6317:6323   */\n      dup3\n        /* \"#utility.yul\":6304:6324   */\n      calldataload\n        /* \"#utility.yul\":6294:6324   */\n      swap1\n      pop\n        /* \"#utility.yul\":6347:6365   */\n      0xffffffffffffffff\n        /* \"#utility.yul\":6339:6345   */\n      dup2\n        /* \"#utility.yul\":6336:6366   */\n      gt\n        /* \"#utility.yul\":6333:6450   */\n      iszero\n      tag_382\n      jumpi\n        /* \"#utility.yul\":6369:6448   */\n      tag_383\n      tag_256\n      jump\t// in\n    tag_383:\n        /* \"#utility.yul\":6333:6450   */\n    tag_382:\n        /* \"#utility.yul\":6483:6487   */\n      0x20\n        /* \"#utility.yul\":6475:6481   */\n      dup4\n        /* \"#utility.yul\":6471:6488   */\n      add\n        /* \"#utility.yul\":6459:6488   */\n      swap2\n      pop\n        /* \"#utility.yul\":6537:6540   */\n      dup4\n        /* \"#utility.yul\":6529:6533   */\n      0x01\n        /* \"#utility.yul\":6521:6527   */\n      dup3\n        /* \"#utility.yul\":6517:6534   */\n      mul\n        /* \"#utility.yul\":6507:6515   */\n      dup4\n        /* \"#utility.yul\":6503:6535   */\n      add\n        /* \"#utility.yul\":6500:6541   */\n      gt\n        /* \"#utility.yul\":6497:6625   */\n      iszero\n      tag_384\n      jumpi\n        /* \"#utility.yul\":6544:6623   */\n      tag_385\n      tag_257\n      jump\t// in\n    tag_385:\n        /* \"#utility.yul\":6497:6625   */\n    tag_384:\n        /* \"#utility.yul\":6078:6631   */\n      swap3\n      pop\n      swap3\n      swap1\n      pop\n      jump\t// out\n        /* \"#utility.yul\":6637:6714   */\n    tag_259:\n        /* \"#utility.yul\":6674:6681   */\n      0x00\n        /* \"#utility.yul\":6703:6708   */\n      dup2\n        /* \"#utility.yul\":6692:6708   */\n      swap1\n      pop\n        /* \"#utility.yul\":6637:6714   */\n      swap2\n      swap1\n      pop\n      jump\t// out\n        /* \"#utility.yul\":6720:6842   */\n    tag_260:\n        /* \"#utility.yul\":6793:6817   */\n      tag_388\n        /* \"#utility.yul\":6811:6816   */\n      dup2\n        /* \"#utility.yul\":6793:6817   */\n      tag_259\n      jump\t// in\n    tag_388:\n        /* \"#utility.yul\":6786:6791   */\n      dup2\n        /* \"#utility.yul\":6783:6818   */\n      eq\n        /* \"#utility.yul\":6773:6836   */\n      tag_389\n      jumpi\n        /* \"#utility.yul\":6832:6833   */\n      0x00\n        /* \"#utility.yul\":6829:6830   */\n      0x00\n        /* \"#utility.yul\":6822:6834   */\n      revert\n        /* \"#utility.yul\":6773:6836   */\n    tag_389:\n        /* \"#utility.yul\":6720:6842   */\n      pop\n      jump\t// out\n        /* \"#utility.yul\":6848:6987   */\n    tag_261:\n        /* \"#utility.yul\":6894:6899   */\n      0x00\n        /* \"#utility.yul\":6932:6938   */\n      dup2\n        /* \"#utility.yul\":6919:6939   */\n      calldataload\n        /* \"#utility.yul\":6910:6939   */\n      swap1\n      pop\n        /* \"#utility.yul\":6948:6981   */\n      tag_391\n        /* \"#utility.yul\":6975:6980   */\n      dup2\n        /* \"#utility.yul\":6948:6981   */\n      tag_260\n      jump\t// in\n    tag_391:\n        /* \"#utility.yul\":6848:6987   */\n      swap3\n      swap2\n      pop\n      pop\n      jump\t// out\n        /* \"#utility.yul\":6993:7958   */\n    tag_36:\n        /* \"#utility.yul\":7091:7097   */\n      0x00\n        /* \"#utility.yul\":7099:7105   */\n      0x00\n        /* \"#utility.yul\":7107:7113   */\n      0x00\n        /* \"#utility.yul\":7115:7121   */\n      0x00\n        /* \"#utility.yul\":7123:7129   */\n      0x00\n        /* \"#utility.yul\":7172:7175   */\n      0x80\n        /* \"#utility.yul\":7160:7169   */\n      dup7\n        /* \"#utility.yul\":7151:7158   */\n      dup9\n        /* \"#utility.yul\":7147:7170   */\n      sub\n        /* \"#utility.yul\":7143:7176   */\n      slt\n        /* \"#utility.yul\":7140:7260   */\n      iszero\n      tag_393\n      jumpi\n        /* \"#utility.yul\":7179:7258   */\n      tag_394\n      tag_239\n      jump\t// in\n    tag_394:\n        /* \"#utility.yul\":7140:7260   */\n    tag_393:\n        /* \"#utility.yul\":7299:7300   */\n      0x00\n        /* \"#utility.yul\":7324:7377   */\n      tag_395\n        /* \"#utility.yul\":7369:7376   */\n      dup9\n        /* \"#utility.yul\":7360:7366   */\n      dup3\n        /* \"#utility.yul\":7349:7358   */\n      dup10\n        /* \"#utility.yul\":7345:7367   */\n      add\n        /* \"#utility.yul\":7324:7377   */\n      tag_253\n      jump\t// in\n    tag_395:\n        /* \"#utility.yul\":7314:7377   */\n      swap6\n      pop\n        /* \"#utility.yul\":7270:7387   */\n      pop\n        /* \"#utility.yul\":7454:7456   */\n      0x20\n        /* \"#utility.yul\":7443:7452   */\n      dup7\n        /* \"#utility.yul\":7439:7457   */\n      add\n        /* \"#utility.yul\":7426:7458   */\n      calldataload\n        /* \"#utility.yul\":7485:7503   */\n      0xffffffffffffffff\n        /* \"#utility.yul\":7477:7483   */\n      dup2\n        /* \"#utility.yul\":7474:7504   */\n      gt\n        /* \"#utility.yul\":7471:7588   */\n      iszero\n      tag_396\n      jumpi\n        /* \"#utility.yul\":7507:7586   */\n      tag_397\n      tag_240\n      jump\t// in\n    tag_397:\n        /* \"#utility.yul\":7471:7588   */\n    tag_396:\n        /* \"#utility.yul\":7620:7685   */\n      tag_398\n        /* \"#utility.yul\":7677:7684   */\n      dup9\n        /* \"#utility.yul\":7668:7674   */\n      dup3\n        /* \"#utility.yul\":7657:7666   */\n      dup10\n        /* \"#utility.yul\":7653:7675   */\n      add\n        /* \"#utility.yul\":7620:7685   */\n      tag_258\n      jump\t// in\n    tag_398:\n        /* \"#utility.yul\":7602:7685   */\n      swap5\n      pop\n      swap5\n      pop\n        /* \"#utility.yul\":7397:7695   */\n      pop\n        /* \"#utility.yul\":7734:7736   */\n      0x40\n        /* \"#utility.yul\":7760:7813   */\n      tag_399\n        /* \"#utility.yul\":7805:7812   */\n      dup9\n        /* \"#utility.yul\":7796:7802   */\n      dup3\n        /* \"#utility.yul\":7785:7794   */\n      dup10\n        /* \"#utility.yul\":7781:7803   */\n      add\n        /* \"#utility.yul\":7760:7813   */\n      tag_261\n      jump\t// in\n    tag_399:\n        /* \"#utility.yul\":7750:7813   */\n      swap3\n      pop\n        /* \"#utility.yul\":7705:7823   */\n      pop\n        /* \"#utility.yul\":7862:7864   */\n      0x60\n        /* \"#utility.yul\":7888:7941   */\n      tag_400\n        /* \"#utility.yul\":7933:7940   */\n      dup9\n        /* \"#utility.yul\":7924:7930   */\n      dup3\n        /* \"#utility.yul\":7913:7922   */\n      dup10\n        /* \"#utility.yul\":7909:7931   */\n      add\n        /* \"#utility.yul\":7888:7941   */\n      tag_261\n      jump\t// in\n    tag_400:\n        /* \"#utility.yul\":7878:7941   */\n      swap2\n      pop\n        /* \"#utility.yul\":7833:7951   */\n      pop\n        /* \"#utility.yul\":6993:7958   */\n      swap3\n      swap6\n      pop\n      swap3\n      swap6\n      swap1\n      swap4\n      pop\n      jump\t// out\n        /* \"#utility.yul\":7964:8638   */\n    tag_43:\n        /* \"#utility.yul\":8044:8050   */\n      0x00\n        /* \"#utility.yul\":8052:8058   */\n      0x00\n        /* \"#utility.yul\":8060:8066   */\n      0x00\n        /* \"#utility.yul\":8109:8111   */\n      0x40\n        /* \"#utility.yul\":8097:8106   */\n      dup5\n        /* \"#utility.yul\":8088:8095   */\n      dup7\n        /* \"#utility.yul\":8084:8107   */\n      sub\n        /* \"#utility.yul\":8080:8112   */\n      slt\n        /* \"#utility.yul\":8077:8196   */\n      iszero\n      tag_402\n      jumpi\n        /* \"#utility.yul\":8115:8194   */\n      tag_403\n      tag_239\n      jump\t// in\n    tag_403:\n        /* \"#utility.yul\":8077:8196   */\n    tag_402:\n        /* \"#utility.yul\":8263:8264   */\n      0x00\n        /* \"#utility.yul\":8252:8261   */\n      dup5\n        /* \"#utility.yul\":8248:8265   */\n      add\n        /* \"#utility.yul\":8235:8266   */\n      calldataload\n        /* \"#utility.yul\":8293:8311   */\n      0xffffffffffffffff\n        /* \"#utility.yul\":8285:8291   */\n      dup2\n        /* \"#utility.yul\":8282:8312   */\n      gt\n        /* \"#utility.yul\":8279:8396   */\n      iszero\n      tag_404\n      jumpi\n        /* \"#utility.yul\":8315:8394   */\n      tag_405\n      tag_240\n      jump\t// in\n    tag_405:\n        /* \"#utility.yul\":8279:8396   */\n    tag_404:\n        /* \"#utility.yul\":8428:8493   */\n      tag_406\n        /* \"#utility.yul\":8485:8492   */\n      dup7\n        /* \"#utility.yul\":8476:8482   */\n      dup3\n        /* \"#utility.yul\":8465:8474   */\n      dup8\n        /* \"#utility.yul\":8461:8483   */\n      add\n        /* \"#utility.yul\":8428:8493   */\n      tag_258\n      jump\t// in\n    tag_406:\n        /* \"#utility.yul\":8410:8493   */\n      swap4\n      pop\n      swap4\n      pop\n        /* \"#utility.yul\":8206:8503   */\n      pop\n        /* \"#utility.yul\":8542:8544   */\n      0x20\n        /* \"#utility.yul\":8568:8621   */\n      tag_407\n        /* \"#utility.yul\":8613:8620   */\n      dup7\n        /* \"#utility.yul\":8604:8610   */\n      dup3\n        /* \"#utility.yul\":8593:8602   */\n      dup8\n        /* \"#utility.yul\":8589:8611   */\n      add\n        /* \"#utility.yul\":8568:8621   */\n      tag_261\n      jump\t// in\n    tag_407:\n        /* \"#utility.yul\":8558:8621   */\n      swap2\n      pop\n        /* \"#utility.yul\":8513:8631   */\n      pop\n        /* \"#utility.yul\":7964:8638   */\n      swap3\n      pop\n      swap3\n      pop\n      swap3\n      jump\t// out\n        /* \"#utility.yul\":8644:9463   */\n    tag_47:\n        /* \"#utility.yul\":8733:8739   */\n      0x00\n        /* \"#utility.yul\":8741:8747   */\n      0x00\n        /* \"#utility.yul\":8749:8755   */\n      0x00\n        /* \"#utility.yul\":8757:8763   */\n      0x00\n        /* \"#utility.yul\":8806:8808   */\n      0x60\n        /* \"#utility.yul\":8794:8803   */\n      dup6\n        /* \"#utility.yul\":8785:8792   */\n      dup8\n        /* \"#utility.yul\":8781:8804   */\n      sub\n        /* \"#utility.yul\":8777:8809   */\n      slt\n        /* \"#utility.yul\":8774:8893   */\n      iszero\n      tag_409\n      jumpi\n        /* \"#utility.yul\":8812:8891   */\n      tag_410\n      tag_239\n      jump\t// in\n    tag_410:\n        /* \"#utility.yul\":8774:8893   */\n    tag_409:\n        /* \"#utility.yul\":8932:8933   */\n      0x00\n        /* \"#utility.yul\":8957:9010   */\n      tag_411\n        /* \"#utility.yul\":9002:9009   */\n      dup8\n        /* \"#utility.yul\":8993:8999   */\n      dup3\n        /* \"#utility.yul\":8982:8991   */\n      dup9\n        /* \"#utility.yul\":8978:9000   */\n      add\n        /* \"#utility.yul\":8957:9010   */\n      tag_253\n      jump\t// in\n    tag_411:\n        /* \"#utility.yul\":8947:9010   */\n      swap5\n      pop\n        /* \"#utility.yul\":8903:9020   */\n      pop\n        /* \"#utility.yul\":9087:9089   */\n      0x20\n        /* \"#utility.yul\":9076:9085   */\n      dup6\n        /* \"#utility.yul\":9072:9090   */\n      add\n        /* \"#utility.yul\":9059:9091   */\n      calldataload\n        /* \"#utility.yul\":9118:9136   */\n      0xffffffffffffffff\n        /* \"#utility.yul\":9110:9116   */\n      dup2\n        /* \"#utility.yul\":9107:9137   */\n      gt\n        /* \"#utility.yul\":9104:9221   */\n      iszero\n      tag_412\n      jumpi\n        /* \"#utility.yul\":9140:9219   */\n      tag_413\n      tag_240\n      jump\t// in\n    tag_413:\n        /* \"#utility.yul\":9104:9221   */\n    tag_412:\n        /* \"#utility.yul\":9253:9318   */\n      tag_414\n        /* \"#utility.yul\":9310:9317   */\n      dup8\n        /* \"#utility.yul\":9301:9307   */\n      dup3\n        /* \"#utility.yul\":9290:9299   */\n      dup9\n        /* \"#utility.yul\":9286:9308   */\n      add\n        /* \"#utility.yul\":9253:9318   */\n      tag_258\n      jump\t// in\n    tag_414:\n        /* \"#utility.yul\":9235:9318   */\n      swap4\n      pop\n      swap4\n      pop\n        /* \"#utility.yul\":9030:9328   */\n      pop\n        /* \"#utility.yul\":9367:9369   */\n      0x40\n        /* \"#utility.yul\":9393:9446   */\n      tag_415\n        /* \"#utility.yul\":9438:9445   */\n      dup8\n        /* \"#utility.yul\":9429:9435   */\n      dup3\n        /* \"#utility.yul\":9418:9427   */\n      dup9\n        /* \"#utility.yul\":9414:9436   */\n      add\n        /* \"#utility.yul\":9393:9446   */\n      tag_261\n      jump\t// in\n    tag_415:\n        /* \"#utility.yul\":9383:9446   */\n      swap2\n      pop\n        /* \"#utility.yul\":9338:9456   */\n      pop\n        /* \"#utility.yul\":8644:9463   */\n      swap3\n      swap6\n      swap2\n      swap5\n      pop\n      swap3\n      pop\n      jump\t// out\n        /* \"#utility.yul\":9469:9529   */\n    tag_262:\n        /* \"#utility.yul\":9497:9500   */\n      0x00\n        /* \"#utility.yul\":9518:9523   */\n      dup2\n        /* \"#utility.yul\":9511:9523   */\n      swap1\n      pop\n        /* \"#utility.yul\":9469:9529   */\n      swap2\n      swap1\n      pop\n      jump\t// out\n        /* \"#utility.yul\":9535:9677   */\n    tag_263:\n        /* \"#utility.yul\":9585:9594   */\n      0x00\n        /* \"#utility.yul\":9618:9671   */\n      tag_418\n        /* \"#utility.yul\":9636:9670   */\n      tag_419\n        /* \"#utility.yul\":9645:9669   */\n      tag_420\n        /* \"#utility.yul\":9663:9668   */\n      dup5\n        /* \"#utility.yul\":9645:9669   */\n      tag_249\n      jump\t// in\n    tag_420:\n        /* \"#utility.yul\":9636:9670   */\n      tag_262\n      jump\t// in\n    tag_419:\n        /* \"#utility.yul\":9618:9671   */\n      tag_249\n      jump\t// in\n    tag_418:\n        /* \"#utility.yul\":9605:9671   */\n      swap1\n      pop\n        /* \"#utility.yul\":9535:9677   */\n      swap2\n      swap1\n      pop\n      jump\t// out\n        /* \"#utility.yul\":9683:9809   */\n    tag_264:\n        /* \"#utility.yul\":9733:9742   */\n      0x00\n        /* \"#utility.yul\":9766:9803   */\n      tag_422\n        /* \"#utility.yul\":9797:9802   */\n      dup3\n        /* \"#utility.yul\":9766:9803   */\n      tag_263\n      jump\t// in\n    tag_422:\n        /* \"#utility.yul\":9753:9803   */\n      swap1\n      pop\n        /* \"#utility.yul\":9683:9809   */\n      swap2\n      swap1\n      pop\n      jump\t// out\n        /* \"#utility.yul\":9815:9956   */\n    tag_265:\n        /* \"#utility.yul\":9880:9889   */\n      0x00\n        /* \"#utility.yul\":9913:9950   */\n      tag_424\n        /* \"#utility.yul\":9944:9949   */\n      dup3\n        /* \"#utility.yul\":9913:9950   */\n      tag_264\n      jump\t// in\n    tag_424:\n        /* \"#utility.yul\":9900:9950   */\n      swap1\n      pop\n        /* \"#utility.yul\":9815:9956   */\n      swap2\n      swap1\n      pop\n      jump\t// out\n        /* \"#utility.yul\":9962:10123   */\n    tag_266:\n        /* \"#utility.yul\":10064:10116   */\n      tag_426\n        /* \"#utility.yul\":10110:10115   */\n      dup2\n        /* \"#utility.yul\":10064:10116   */\n      tag_265\n      jump\t// in\n    tag_426:\n        /* \"#utility.yul\":10059:10062   */\n      dup3\n        /* \"#utility.yul\":10052:10117   */\n      mstore\n        /* \"#utility.yul\":9962:10123   */\n      pop\n      pop\n      jump\t// out\n        /* \"#utility.yul\":10129:10381   */\n    tag_52:\n        /* \"#utility.yul\":10237:10241   */\n      0x00\n        /* \"#utility.yul\":10275:10277   */\n      0x20\n        /* \"#utility.yul\":10264:10273   */\n      dup3\n        /* \"#utility.yul\":10260:10278   */\n      add\n        /* \"#utility.yul\":10252:10278   */\n      swap1\n      pop\n        /* \"#utility.yul\":10288:10374   */\n      tag_428\n        /* \"#utility.yul\":10371:10372   */\n      0x00\n        /* \"#utility.yul\":10360:10369   */\n      dup4\n        /* \"#utility.yul\":10356:10373   */\n      add\n        /* \"#utility.yul\":10347:10353   */\n      dup5\n        /* \"#utility.yul\":10288:10374   */\n      tag_266\n      jump\t// in\n    tag_428:\n        /* \"#utility.yul\":10129:10381   */\n      swap3\n      swap2\n      pop\n      pop\n      jump\t// out\n        /* \"#utility.yul\":10387:10531   */\n    tag_267:\n        /* \"#utility.yul\":10455:10464   */\n      0x00\n        /* \"#utility.yul\":10488:10525   */\n      tag_430\n        /* \"#utility.yul\":10519:10524   */\n      dup3\n        /* \"#utility.yul\":10488:10525   */\n      tag_264\n      jump\t// in\n    tag_430:\n        /* \"#utility.yul\":10475:10525   */\n      swap1\n      pop\n        /* \"#utility.yul\":10387:10531   */\n      swap2\n      swap1\n      pop\n      jump\t// out\n        /* \"#utility.yul\":10537:10704   */\n    tag_268:\n        /* \"#utility.yul\":10642:10697   */\n      tag_432\n        /* \"#utility.yul\":10691:10696   */\n      dup2\n        /* \"#utility.yul\":10642:10697   */\n      tag_267\n      jump\t// in\n    tag_432:\n        /* \"#utility.yul\":10637:10640   */\n      dup3\n        /* \"#utility.yul\":10630:10698   */\n      mstore\n        /* \"#utility.yul\":10537:10704   */\n      pop\n      pop\n      jump\t// out\n        /* \"#utility.yul\":10710:10968   */\n    tag_56:\n        /* \"#utility.yul\":10821:10825   */\n      0x00\n        /* \"#utility.yul\":10859:10861   */\n      0x20\n        /* \"#utility.yul\":10848:10857   */\n      dup3\n        /* \"#utility.yul\":10844:10862   */\n      add\n        /* \"#utility.yul\":10836:10862   */\n      swap1\n      pop\n        /* \"#utility.yul\":10872:10961   */\n      tag_434\n        /* \"#utility.yul\":10958:10959   */\n      0x00\n        /* \"#utility.yul\":10947:10956   */\n      dup4\n        /* \"#utility.yul\":10943:10960   */\n      add\n        /* \"#utility.yul\":10934:10940   */\n      dup5\n        /* \"#utility.yul\":10872:10961   */\n      tag_268\n      jump\t// in\n    tag_434:\n        /* \"#utility.yul\":10710:10968   */\n      swap3\n      swap2\n      pop\n      pop\n      jump\t// out\n        /* \"#utility.yul\":10974:11503   */\n    tag_59:\n        /* \"#utility.yul\":11045:11051   */\n      0x00\n        /* \"#utility.yul\":11053:11059   */\n      0x00\n        /* \"#utility.yul\":11102:11104   */\n      0x20\n        /* \"#utility.yul\":11090:11099   */\n      dup4\n        /* \"#utility.yul\":11081:11088   */\n      dup6\n        /* \"#utility.yul\":11077:11100   */\n      sub\n        /* \"#utility.yul\":11073:11105   */\n      slt\n        /* \"#utility.yul\":11070:11189   */\n      iszero\n      tag_436\n      jumpi\n        /* \"#utility.yul\":11108:11187   */\n      tag_437\n      tag_239\n      jump\t// in\n    tag_437:\n        /* \"#utility.yul\":11070:11189   */\n    tag_436:\n        /* \"#utility.yul\":11256:11257   */\n      0x00\n        /* \"#utility.yul\":11245:11254   */\n      dup4\n        /* \"#utility.yul\":11241:11258   */\n      add\n        /* \"#utility.yul\":11228:11259   */\n      calldataload\n        /* \"#utility.yul\":11286:11304   */\n      0xffffffffffffffff\n        /* \"#utility.yul\":11278:11284   */\n      dup2\n        /* \"#utility.yul\":11275:11305   */\n      gt\n        /* \"#utility.yul\":11272:11389   */\n      iszero\n      tag_438\n      jumpi\n        /* \"#utility.yul\":11308:11387   */\n      tag_439\n      tag_240\n      jump\t// in\n    tag_439:\n        /* \"#utility.yul\":11272:11389   */\n    tag_438:\n        /* \"#utility.yul\":11421:11486   */\n      tag_440\n        /* \"#utility.yul\":11478:11485   */\n      dup6\n        /* \"#utility.yul\":11469:11475   */\n      dup3\n        /* \"#utility.yul\":11458:11467   */\n      dup7\n        /* \"#utility.yul\":11454:11476   */\n      add\n        /* \"#utility.yul\":11421:11486   */\n      tag_258\n      jump\t// in\n    tag_440:\n        /* \"#utility.yul\":11403:11486   */\n      swap3\n      pop\n      swap3\n      pop\n        /* \"#utility.yul\":11199:11496   */\n      pop\n        /* \"#utility.yul\":10974:11503   */\n      swap3\n      pop\n      swap3\n      swap1\n      pop\n      jump\t// out\n        /* \"#utility.yul\":11509:11689   */\n    tag_269:\n        /* \"#utility.yul\":11557:11634   */\n      0x4e487b7100000000000000000000000000000000000000000000000000000000\n        /* \"#utility.yul\":11554:11555   */\n      0x00\n        /* \"#utility.yul\":11547:11635   */\n      mstore\n        /* \"#utility.yul\":11654:11658   */\n      0x22\n        /* \"#utility.yul\":11651:11652   */\n      0x04\n        /* \"#utility.yul\":11644:11659   */\n      mstore\n        /* \"#utility.yul\":11678:11682   */\n      0x24\n        /* \"#utility.yul\":11675:11676   */\n      0x00\n        /* \"#utility.yul\":11668:11683   */\n      revert\n        /* \"#utility.yul\":11695:12015   */\n    tag_65:\n        /* \"#utility.yul\":11739:11745   */\n      0x00\n        /* \"#utility.yul\":11776:11777   */\n      0x02\n        /* \"#utility.yul\":11770:11774   */\n      dup3\n        /* \"#utility.yul\":11766:11778   */\n      div\n        /* \"#utility.yul\":11756:11778   */\n      swap1\n      pop\n        /* \"#utility.yul\":11823:11824   */\n      0x01\n        /* \"#utility.yul\":11817:11821   */\n      dup3\n        /* \"#utility.yul\":11813:11825   */\n      and\n        /* \"#utility.yul\":11844:11862   */\n      dup1\n        /* \"#utility.yul\":11834:11915   */\n      tag_443\n      jumpi\n        /* \"#utility.yul\":11900:11904   */\n      0x7f\n        /* \"#utility.yul\":11892:11898   */\n      dup3\n        /* \"#utility.yul\":11888:11905   */\n      and\n        /* \"#utility.yul\":11878:11905   */\n      swap2\n      pop\n        /* \"#utility.yul\":11834:11915   */\n    tag_443:\n        /* \"#utility.yul\":11962:11964   */\n      0x20\n        /* \"#utility.yul\":11954:11960   */\n      dup3\n        /* \"#utility.yul\":11951:11965   */\n      lt\n        /* \"#utility.yul\":11931:11949   */\n      dup2\n        /* \"#utility.yul\":11928:11966   */\n      sub\n        /* \"#utility.yul\":11925:12009   */\n      tag_444\n      jumpi\n        /* \"#utility.yul\":11981:11999   */\n      tag_445\n      tag_269\n      jump\t// in\n    tag_445:\n        /* \"#utility.yul\":11925:12009   */\n    tag_444:\n        /* \"#utility.yul\":11746:12015   */\n      pop\n        /* \"#utility.yul\":11695:12015   */\n      swap2\n      swap1\n      pop\n      jump\t// out\n        /* \"#utility.yul\":12021:12169   */\n    tag_270:\n        /* \"#utility.yul\":12123:12134   */\n      0x00\n        /* \"#utility.yul\":12160:12163   */\n      dup2\n        /* \"#utility.yul\":12145:12163   */\n      swap1\n      pop\n        /* \"#utility.yul\":12021:12169   */\n      swap3\n      swap2\n      pop\n      pop\n      jump\t// out\n        /* \"#utility.yul\":12175:12565   */\n    tag_271:\n        /* \"#utility.yul\":12281:12284   */\n      0x00\n        /* \"#utility.yul\":12309:12348   */\n      tag_448\n        /* \"#utility.yul\":12342:12347   */\n      dup3\n        /* \"#utility.yul\":12309:12348   */\n      tag_233\n      jump\t// in\n    tag_448:\n        /* \"#utility.yul\":12364:12453   */\n      tag_449\n        /* \"#utility.yul\":12446:12452   */\n      dup2\n        /* \"#utility.yul\":12441:12444   */\n      dup6\n        /* \"#utility.yul\":12364:12453   */\n      tag_270\n      jump\t// in\n    tag_449:\n        /* \"#utility.yul\":12357:12453   */\n      swap4\n      pop\n        /* \"#utility.yul\":12462:12527   */\n      tag_450\n        /* \"#utility.yul\":12520:12526   */\n      dup2\n        /* \"#utility.yul\":12515:12518   */\n      dup6\n        /* \"#utility.yul\":12508:12512   */\n      0x20\n        /* \"#utility.yul\":12501:12506   */\n      dup7\n        /* \"#utility.yul\":12497:12513   */\n      add\n        /* \"#utility.yul\":12462:12527   */\n      tag_235\n      jump\t// in\n    tag_450:\n        /* \"#utility.yul\":12552:12558   */\n      dup1\n        /* \"#utility.yul\":12547:12550   */\n      dup5\n        /* \"#utility.yul\":12543:12559   */\n      add\n        /* \"#utility.yul\":12536:12559   */\n      swap2\n      pop\n        /* \"#utility.yul\":12285:12565   */\n      pop\n        /* \"#utility.yul\":12175:12565   */\n      swap3\n      swap2\n      pop\n      pop\n      jump\t// out\n        /* \"#utility.yul\":12571:12722   */\n    tag_272:\n        /* \"#utility.yul\":12711:12714   */\n      0x5f00000000000000000000000000000000000000000000000000000000000000\n        /* \"#utility.yul\":12707:12708   */\n      0x00\n        /* \"#utility.yul\":12699:12705   */\n      dup3\n        /* \"#utility.yul\":12695:12709   */\n      add\n        /* \"#utility.yul\":12688:12715   */\n      mstore\n        /* \"#utility.yul\":12571:12722   */\n      pop\n      jump\t// out\n        /* \"#utility.yul\":12728:13128   */\n    tag_273:\n        /* \"#utility.yul\":12888:12891   */\n      0x00\n        /* \"#utility.yul\":12909:12993   */\n      tag_453\n        /* \"#utility.yul\":12991:12992   */\n      0x01\n        /* \"#utility.yul\":12986:12989   */\n      dup4\n        /* \"#utility.yul\":12909:12993   */\n      tag_270\n      jump\t// in\n    tag_453:\n        /* \"#utility.yul\":12902:12993   */\n      swap2\n      pop\n        /* \"#utility.yul\":13002:13095   */\n      tag_454\n        /* \"#utility.yul\":13091:13094   */\n      dup3\n        /* \"#utility.yul\":13002:13095   */\n      tag_272\n      jump\t// in\n    tag_454:\n        /* \"#utility.yul\":13120:13121   */\n      0x01\n        /* \"#utility.yul\":13115:13118   */\n      dup3\n        /* \"#utility.yul\":13111:13122   */\n      add\n        /* \"#utility.yul\":13104:13122   */\n      swap1\n      pop\n        /* \"#utility.yul\":12728:13128   */\n      swap2\n      swap1\n      pop\n      jump\t// out\n        /* \"#utility.yul\":13134:13275   */\n    tag_274:\n        /* \"#utility.yul\":13183:13187   */\n      0x00\n        /* \"#utility.yul\":13206:13209   */\n      dup2\n        /* \"#utility.yul\":13198:13209   */\n      swap1\n      pop\n        /* \"#utility.yul\":13229:13232   */\n      dup2\n        /* \"#utility.yul\":13226:13227   */\n      0x00\n        /* \"#utility.yul\":13219:13233   */\n      mstore\n        /* \"#utility.yul\":13263:13267   */\n      0x20\n        /* \"#utility.yul\":13260:13261   */\n      0x00\n        /* \"#utility.yul\":13250:13268   */\n      keccak256\n        /* \"#utility.yul\":13242:13268   */\n      swap1\n      pop\n        /* \"#utility.yul\":13134:13275   */\n      swap2\n      swap1\n      pop\n      jump\t// out\n        /* \"#utility.yul\":13305:14179   */\n    tag_275:\n        /* \"#utility.yul\":13408:13411   */\n      0x00\n        /* \"#utility.yul\":13445:13450   */\n      dup2\n        /* \"#utility.yul\":13439:13451   */\n      sload\n        /* \"#utility.yul\":13474:13510   */\n      tag_457\n        /* \"#utility.yul\":13500:13509   */\n      dup2\n        /* \"#utility.yul\":13474:13510   */\n      tag_65\n      jump\t// in\n    tag_457:\n        /* \"#utility.yul\":13526:13615   */\n      tag_458\n        /* \"#utility.yul\":13608:13614   */\n      dup2\n        /* \"#utility.yul\":13603:13606   */\n      dup7\n        /* \"#utility.yul\":13526:13615   */\n      tag_270\n      jump\t// in\n    tag_458:\n        /* \"#utility.yul\":13519:13615   */\n      swap5\n      pop\n        /* \"#utility.yul\":13646:13647   */\n      0x01\n        /* \"#utility.yul\":13635:13644   */\n      dup3\n        /* \"#utility.yul\":13631:13648   */\n      and\n        /* \"#utility.yul\":13662:13663   */\n      0x00\n        /* \"#utility.yul\":13657:13823   */\n      dup2\n      eq\n      tag_460\n      jumpi\n        /* \"#utility.yul\":13837:13838   */\n      0x01\n        /* \"#utility.yul\":13832:14173   */\n      dup2\n      eq\n      tag_461\n      jumpi\n        /* \"#utility.yul\":13624:14173   */\n      jump(tag_459)\n        /* \"#utility.yul\":13657:13823   */\n    tag_460:\n        /* \"#utility.yul\":13741:13745   */\n      0xff\n        /* \"#utility.yul\":13737:13746   */\n      not\n        /* \"#utility.yul\":13726:13735   */\n      dup4\n        /* \"#utility.yul\":13722:13747   */\n      and\n        /* \"#utility.yul\":13717:13720   */\n      dup7\n        /* \"#utility.yul\":13710:13748   */\n      mstore\n        /* \"#utility.yul\":13803:13809   */\n      dup2\n        /* \"#utility.yul\":13796:13810   */\n      iszero\n        /* \"#utility.yul\":13789:13811   */\n      iszero\n        /* \"#utility.yul\":13781:13787   */\n      dup3\n        /* \"#utility.yul\":13777:13812   */\n      mul\n        /* \"#utility.yul\":13772:13775   */\n      dup7\n        /* \"#utility.yul\":13768:13813   */\n      add\n        /* \"#utility.yul\":13761:13813   */\n      swap4\n      pop\n        /* \"#utility.yul\":13657:13823   */\n      jump(tag_459)\n        /* \"#utility.yul\":13832:14173   */\n    tag_461:\n        /* \"#utility.yul\":13899:13937   */\n      tag_462\n        /* \"#utility.yul\":13931:13936   */\n      dup6\n        /* \"#utility.yul\":13899:13937   */\n      tag_274\n      jump\t// in\n    tag_462:\n        /* \"#utility.yul\":13959:13960   */\n      0x00\n        /* \"#utility.yul\":13973:14127   */\n    tag_463:\n        /* \"#utility.yul\":13987:13993   */\n      dup4\n        /* \"#utility.yul\":13984:13985   */\n      dup2\n        /* \"#utility.yul\":13981:13994   */\n      lt\n        /* \"#utility.yul\":13973:14127   */\n      iszero\n      tag_465\n      jumpi\n        /* \"#utility.yul\":14061:14068   */\n      dup2\n        /* \"#utility.yul\":14055:14069   */\n      sload\n        /* \"#utility.yul\":14051:14052   */\n      dup2\n        /* \"#utility.yul\":14046:14049   */\n      dup10\n        /* \"#utility.yul\":14042:14053   */\n      add\n        /* \"#utility.yul\":14035:14070   */\n      mstore\n        /* \"#utility.yul\":14111:14112   */\n      0x01\n        /* \"#utility.yul\":14102:14109   */\n      dup3\n        /* \"#utility.yul\":14098:14113   */\n      add\n        /* \"#utility.yul\":14087:14113   */\n      swap2\n      pop\n        /* \"#utility.yul\":14009:14013   */\n      0x20\n        /* \"#utility.yul\":14006:14007   */\n      dup2\n        /* \"#utility.yul\":14002:14014   */\n      add\n        /* \"#utility.yul\":13997:14014   */\n      swap1\n      pop\n        /* \"#utility.yul\":13973:14127   */\n      jump(tag_463)\n    tag_465:\n        /* \"#utility.yul\":14156:14162   */\n      dup4\n        /* \"#utility.yul\":14151:14154   */\n      dup9\n        /* \"#utility.yul\":14147:14163   */\n      add\n        /* \"#utility.yul\":14140:14163   */\n      swap6\n      pop\n        /* \"#utility.yul\":13839:14173   */\n      pop\n      pop\n        /* \"#utility.yul\":13624:14173   */\n    tag_459:\n      pop\n        /* \"#utility.yul\":13412:14179   */\n      pop\n      pop\n        /* \"#utility.yul\":13305:14179   */\n      swap3\n      swap2\n      pop\n      pop\n      jump\t// out\n        /* \"#utility.yul\":14185:14880   */\n    tag_72:\n        /* \"#utility.yul\":14463:14466   */\n      0x00\n        /* \"#utility.yul\":14485:14580   */\n      tag_467\n        /* \"#utility.yul\":14576:14579   */\n      dup3\n        /* \"#utility.yul\":14567:14573   */\n      dup6\n        /* \"#utility.yul\":14485:14580   */\n      tag_271\n      jump\t// in\n    tag_467:\n        /* \"#utility.yul\":14478:14580   */\n      swap2\n      pop\n        /* \"#utility.yul\":14597:14745   */\n      tag_468\n        /* \"#utility.yul\":14741:14744   */\n      dup3\n        /* \"#utility.yul\":14597:14745   */\n      tag_273\n      jump\t// in\n    tag_468:\n        /* \"#utility.yul\":14590:14745   */\n      swap2\n      pop\n        /* \"#utility.yul\":14762:14854   */\n      tag_469\n        /* \"#utility.yul\":14850:14853   */\n      dup3\n        /* \"#utility.yul\":14841:14847   */\n      dup5\n        /* \"#utility.yul\":14762:14854   */\n      tag_275\n      jump\t// in\n    tag_469:\n        /* \"#utility.yul\":14755:14854   */\n      swap2\n      pop\n        /* \"#utility.yul\":14871:14874   */\n      dup2\n        /* \"#utility.yul\":14864:14874   */\n      swap1\n      pop\n        /* \"#utility.yul\":14185:14880   */\n      swap4\n      swap3\n      pop\n      pop\n      pop\n      jump\t// out\n        /* \"#utility.yul\":14886:15052   */\n    tag_276:\n        /* \"#utility.yul\":15026:15044   */\n      0x51696172614d6f6e616441737365747300000000000000000000000000000000\n        /* \"#utility.yul\":15022:15023   */\n      0x00\n        /* \"#utility.yul\":15014:15020   */\n      dup3\n        /* \"#utility.yul\":15010:15024   */\n      add\n        /* \"#utility.yul\":15003:15045   */\n      mstore\n        /* \"#utility.yul\":14886:15052   */\n      pop\n      jump\t// out\n        /* \"#utility.yul\":15058:15424   */\n    tag_277:\n        /* \"#utility.yul\":15200:15203   */\n      0x00\n        /* \"#utility.yul\":15221:15288   */\n      tag_472\n        /* \"#utility.yul\":15285:15287   */\n      0x10\n        /* \"#utility.yul\":15280:15283   */\n      dup4\n        /* \"#utility.yul\":15221:15288   */\n      tag_234\n      jump\t// in\n    tag_472:\n        /* \"#utility.yul\":15214:15288   */\n      swap2\n      pop\n        /* \"#utility.yul\":15297:15390   */\n      tag_473\n        /* \"#utility.yul\":15386:15389   */\n      dup3\n        /* \"#utility.yul\":15297:15390   */\n      tag_276\n      jump\t// in\n    tag_473:\n        /* \"#utility.yul\":15415:15417   */\n      0x20\n        /* \"#utility.yul\":15410:15413   */\n      dup3\n        /* \"#utility.yul\":15406:15418   */\n      add\n        /* \"#utility.yul\":15399:15418   */\n      swap1\n      pop\n        /* \"#utility.yul\":15058:15424   */\n      swap2\n      swap1\n      pop\n      jump\t// out\n        /* \"#utility.yul\":15430:16050   */\n    tag_74:\n        /* \"#utility.yul\":15644:15648   */\n      0x00\n        /* \"#utility.yul\":15682:15684   */\n      0x40\n        /* \"#utility.yul\":15671:15680   */\n      dup3\n        /* \"#utility.yul\":15667:15685   */\n      add\n        /* \"#utility.yul\":15659:15685   */\n      swap1\n      pop\n        /* \"#utility.yul\":15731:15740   */\n      dup2\n        /* \"#utility.yul\":15725:15729   */\n      dup2\n        /* \"#utility.yul\":15721:15741   */\n      sub\n        /* \"#utility.yul\":15717:15718   */\n      0x00\n        /* \"#utility.yul\":15706:15715   */\n      dup4\n        /* \"#utility.yul\":15702:15719   */\n      add\n        /* \"#utility.yul\":15695:15742   */\n      mstore\n        /* \"#utility.yul\":15759:15890   */\n      tag_475\n        /* \"#utility.yul\":15885:15889   */\n      dup2\n        /* \"#utility.yul\":15759:15890   */\n      tag_277\n      jump\t// in\n    tag_475:\n        /* \"#utility.yul\":15751:15890   */\n      swap1\n      pop\n        /* \"#utility.yul\":15937:15946   */\n      dup2\n        /* \"#utility.yul\":15931:15935   */\n      dup2\n        /* \"#utility.yul\":15927:15947   */\n      sub\n        /* \"#utility.yul\":15922:15924   */\n      0x20\n        /* \"#utility.yul\":15911:15920   */\n      dup4\n        /* \"#utility.yul\":15907:15925   */\n      add\n        /* \"#utility.yul\":15900:15948   */\n      mstore\n        /* \"#utility.yul\":15965:16043   */\n      tag_476\n        /* \"#utility.yul\":16038:16042   */\n      dup2\n        /* \"#utility.yul\":16029:16035   */\n      dup5\n        /* \"#utility.yul\":15965:16043   */\n      tag_237\n      jump\t// in\n    tag_476:\n        /* \"#utility.yul\":15957:16043   */\n      swap1\n      pop\n        /* \"#utility.yul\":15430:16050   */\n      swap3\n      swap2\n      pop\n      pop\n      jump\t// out\n        /* \"#utility.yul\":16056:16363   */\n    tag_278:\n        /* \"#utility.yul\":16117:16121   */\n      0x00\n        /* \"#utility.yul\":16207:16225   */\n      0xffffffffffffffff\n        /* \"#utility.yul\":16199:16205   */\n      dup3\n        /* \"#utility.yul\":16196:16226   */\n      gt\n        /* \"#utility.yul\":16193:16249   */\n      iszero\n      tag_478\n      jumpi\n        /* \"#utility.yul\":16229:16247   */\n      tag_479\n      tag_99\n      jump\t// in\n    tag_479:\n        /* \"#utility.yul\":16193:16249   */\n    tag_478:\n        /* \"#utility.yul\":16267:16296   */\n      tag_480\n        /* \"#utility.yul\":16289:16295   */\n      dup3\n        /* \"#utility.yul\":16267:16296   */\n      tag_236\n      jump\t// in\n    tag_480:\n        /* \"#utility.yul\":16259:16296   */\n      swap1\n      pop\n        /* \"#utility.yul\":16351:16355   */\n      0x20\n        /* \"#utility.yul\":16345:16349   */\n      dup2\n        /* \"#utility.yul\":16341:16356   */\n      add\n        /* \"#utility.yul\":16333:16356   */\n      swap1\n      pop\n        /* \"#utility.yul\":16056:16363   */\n      swap2\n      swap1\n      pop\n      jump\t// out\n        /* \"#utility.yul\":16369:16801   */\n    tag_279:\n        /* \"#utility.yul\":16457:16462   */\n      0x00\n        /* \"#utility.yul\":16482:16547   */\n      tag_482\n        /* \"#utility.yul\":16498:16546   */\n      tag_483\n        /* \"#utility.yul\":16539:16545   */\n      dup5\n        /* \"#utility.yul\":16498:16546   */\n      tag_278\n      jump\t// in\n    tag_483:\n        /* \"#utility.yul\":16482:16547   */\n      tag_244\n      jump\t// in\n    tag_482:\n        /* \"#utility.yul\":16473:16547   */\n      swap1\n      pop\n        /* \"#utility.yul\":16570:16576   */\n      dup3\n        /* \"#utility.yul\":16563:16568   */\n      dup2\n        /* \"#utility.yul\":16556:16577   */\n      mstore\n        /* \"#utility.yul\":16608:16612   */\n      0x20\n        /* \"#utility.yul\":16601:16606   */\n      dup2\n        /* \"#utility.yul\":16597:16613   */\n      add\n        /* \"#utility.yul\":16646:16649   */\n      dup5\n        /* \"#utility.yul\":16637:16643   */\n      dup5\n        /* \"#utility.yul\":16632:16635   */\n      dup5\n        /* \"#utility.yul\":16628:16644   */\n      add\n        /* \"#utility.yul\":16625:16650   */\n      gt\n        /* \"#utility.yul\":16622:16734   */\n      iszero\n      tag_484\n      jumpi\n        /* \"#utility.yul\":16653:16732   */\n      tag_485\n      tag_242\n      jump\t// in\n    tag_485:\n        /* \"#utility.yul\":16622:16734   */\n    tag_484:\n        /* \"#utility.yul\":16743:16795   */\n      tag_486\n        /* \"#utility.yul\":16788:16794   */\n      dup5\n        /* \"#utility.yul\":16783:16786   */\n      dup3\n        /* \"#utility.yul\":16778:16781   */\n      dup6\n        /* \"#utility.yul\":16743:16795   */\n      tag_235\n      jump\t// in\n    tag_486:\n        /* \"#utility.yul\":16463:16801   */\n      pop\n        /* \"#utility.yul\":16369:16801   */\n      swap4\n      swap3\n      pop\n      pop\n      pop\n      jump\t// out\n        /* \"#utility.yul\":16820:17173   */\n    tag_280:\n        /* \"#utility.yul\":16886:16891   */\n      0x00\n        /* \"#utility.yul\":16935:16938   */\n      dup3\n        /* \"#utility.yul\":16928:16932   */\n      0x1f\n        /* \"#utility.yul\":16920:16926   */\n      dup4\n        /* \"#utility.yul\":16916:16933   */\n      add\n        /* \"#utility.yul\":16912:16939   */\n      slt\n        /* \"#utility.yul\":16902:17024   */\n      tag_488\n      jumpi\n        /* \"#utility.yul\":16943:17022   */\n      tag_489\n      tag_241\n      jump\t// in\n    tag_489:\n        /* \"#utility.yul\":16902:17024   */\n    tag_488:\n        /* \"#utility.yul\":17053:17059   */\n      dup2\n        /* \"#utility.yul\":17047:17060   */\n      mload\n        /* \"#utility.yul\":17078:17167   */\n      tag_490\n        /* \"#utility.yul\":17163:17166   */\n      dup5\n        /* \"#utility.yul\":17155:17161   */\n      dup3\n        /* \"#utility.yul\":17148:17152   */\n      0x20\n        /* \"#utility.yul\":17140:17146   */\n      dup7\n        /* \"#utility.yul\":17136:17153   */\n      add\n        /* \"#utility.yul\":17078:17167   */\n      tag_279\n      jump\t// in\n    tag_490:\n        /* \"#utility.yul\":17069:17167   */\n      swap2\n      pop\n        /* \"#utility.yul\":16892:17173   */\n      pop\n        /* \"#utility.yul\":16820:17173   */\n      swap3\n      swap2\n      pop\n      pop\n      jump\t// out\n        /* \"#utility.yul\":17179:17701   */\n    tag_78:\n        /* \"#utility.yul\":17258:17264   */\n      0x00\n        /* \"#utility.yul\":17307:17309   */\n      0x20\n        /* \"#utility.yul\":17295:17304   */\n      dup3\n        /* \"#utility.yul\":17286:17293   */\n      dup5\n        /* \"#utility.yul\":17282:17305   */\n      sub\n        /* \"#utility.yul\":17278:17310   */\n      slt\n        /* \"#utility.yul\":17275:17394   */\n      iszero\n      tag_492\n      jumpi\n        /* \"#utility.yul\":17313:17392   */\n      tag_493\n      tag_239\n      jump\t// in\n    tag_493:\n        /* \"#utility.yul\":17275:17394   */\n    tag_492:\n        /* \"#utility.yul\":17454:17455   */\n      0x00\n        /* \"#utility.yul\":17443:17452   */\n      dup3\n        /* \"#utility.yul\":17439:17456   */\n      add\n        /* \"#utility.yul\":17433:17457   */\n      mload\n        /* \"#utility.yul\":17484:17502   */\n      0xffffffffffffffff\n        /* \"#utility.yul\":17476:17482   */\n      dup2\n        /* \"#utility.yul\":17473:17503   */\n      gt\n        /* \"#utility.yul\":17470:17587   */\n      iszero\n      tag_494\n      jumpi\n        /* \"#utility.yul\":17506:17585   */\n      tag_495\n      tag_240\n      jump\t// in\n    tag_495:\n        /* \"#utility.yul\":17470:17587   */\n    tag_494:\n        /* \"#utility.yul\":17611:17684   */\n      tag_496\n        /* \"#utility.yul\":17676:17683   */\n      dup5\n        /* \"#utility.yul\":17667:17673   */\n      dup3\n        /* \"#utility.yul\":17656:17665   */\n      dup6\n        /* \"#utility.yul\":17652:17674   */\n      add\n        /* \"#utility.yul\":17611:17684   */\n      tag_280\n      jump\t// in\n    tag_496:\n        /* \"#utility.yul\":17601:17684   */\n      swap2\n      pop\n        /* \"#utility.yul\":17404:17694   */\n      pop\n        /* \"#utility.yul\":17179:17701   */\n      swap3\n      swap2\n      pop\n      pop\n      jump\t// out\n        /* \"#utility.yul\":17707:17928   */\n    tag_281:\n        /* \"#utility.yul\":17847:17881   */\n      0x5661756c743a204173736574206e6f7420666f756e6420696e20726567697374\n        /* \"#utility.yul\":17843:17844   */\n      0x00\n        /* \"#utility.yul\":17835:17841   */\n      dup3\n        /* \"#utility.yul\":17831:17845   */\n      add\n        /* \"#utility.yul\":17824:17882   */\n      mstore\n        /* \"#utility.yul\":17916:17920   */\n      0x7279000000000000000000000000000000000000000000000000000000000000\n        /* \"#utility.yul\":17911:17913   */\n      0x20\n        /* \"#utility.yul\":17903:17909   */\n      dup3\n        /* \"#utility.yul\":17899:17914   */\n      add\n        /* \"#utility.yul\":17892:17921   */\n      mstore\n        /* \"#utility.yul\":17707:17928   */\n      pop\n      jump\t// out\n        /* \"#utility.yul\":17934:18300   */\n    tag_282:\n        /* \"#utility.yul\":18076:18079   */\n      0x00\n        /* \"#utility.yul\":18097:18164   */\n      tag_499\n        /* \"#utility.yul\":18161:18163   */\n      0x22\n        /* \"#utility.yul\":18156:18159   */\n      dup4\n        /* \"#utility.yul\":18097:18164   */\n      tag_234\n      jump\t// in\n    tag_499:\n        /* \"#utility.yul\":18090:18164   */\n      swap2\n      pop\n        /* \"#utility.yul\":18173:18266   */\n      tag_500\n        /* \"#utility.yul\":18262:18265   */\n      dup3\n        /* \"#utility.yul\":18173:18266   */\n      tag_281\n      jump\t// in\n    tag_500:\n        /* \"#utility.yul\":18291:18293   */\n      0x40\n        /* \"#utility.yul\":18286:18289   */\n      dup3\n        /* \"#utility.yul\":18282:18294   */\n      add\n        /* \"#utility.yul\":18275:18294   */\n      swap1\n      pop\n        /* \"#utility.yul\":17934:18300   */\n      swap2\n      swap1\n      pop\n      jump\t// out\n        /* \"#utility.yul\":18306:18725   */\n    tag_81:\n        /* \"#utility.yul\":18472:18476   */\n      0x00\n        /* \"#utility.yul\":18510:18512   */\n      0x20\n        /* \"#utility.yul\":18499:18508   */\n      dup3\n        /* \"#utility.yul\":18495:18513   */\n      add\n        /* \"#utility.yul\":18487:18513   */\n      swap1\n      pop\n        /* \"#utility.yul\":18559:18568   */\n      dup2\n        /* \"#utility.yul\":18553:18557   */\n      dup2\n        /* \"#utility.yul\":18549:18569   */\n      sub\n        /* \"#utility.yul\":18545:18546   */\n      0x00\n        /* \"#utility.yul\":18534:18543   */\n      dup4\n        /* \"#utility.yul\":18530:18547   */\n      add\n        /* \"#utility.yul\":18523:18570   */\n      mstore\n        /* \"#utility.yul\":18587:18718   */\n      tag_502\n        /* \"#utility.yul\":18713:18717   */\n      dup2\n        /* \"#utility.yul\":18587:18718   */\n      tag_282\n      jump\t// in\n    tag_502:\n        /* \"#utility.yul\":18579:18718   */\n      swap1\n      pop\n        /* \"#utility.yul\":18306:18725   */\n      swap2\n      swap1\n      pop\n      jump\t// out\n        /* \"#utility.yul\":18731:18907   */\n    tag_283:\n        /* \"#utility.yul\":18871:18899   */\n      0x5661756c743a20546f6b656e206e6f7420737570706f72746564000000000000\n        /* \"#utility.yul\":18867:18868   */\n      0x00\n        /* \"#utility.yul\":18859:18865   */\n      dup3\n        /* \"#utility.yul\":18855:18869   */\n      add\n        /* \"#utility.yul\":18848:18900   */\n      mstore\n        /* \"#utility.yul\":18731:18907   */\n      pop\n      jump\t// out\n        /* \"#utility.yul\":18913:19279   */\n    tag_284:\n        /* \"#utility.yul\":19055:19058   */\n      0x00\n        /* \"#utility.yul\":19076:19143   */\n      tag_505\n        /* \"#utility.yul\":19140:19142   */\n      0x1a\n        /* \"#utility.yul\":19135:19138   */\n      dup4\n        /* \"#utility.yul\":19076:19143   */\n      tag_234\n      jump\t// in\n    tag_505:\n        /* \"#utility.yul\":19069:19143   */\n      swap2\n      pop\n        /* \"#utility.yul\":19152:19245   */\n      tag_506\n        /* \"#utility.yul\":19241:19244   */\n      dup3\n        /* \"#utility.yul\":19152:19245   */\n      tag_283\n      jump\t// in\n    tag_506:\n        /* \"#utility.yul\":19270:19272   */\n      0x20\n        /* \"#utility.yul\":19265:19268   */\n      dup3\n        /* \"#utility.yul\":19261:19273   */\n      add\n        /* \"#utility.yul\":19254:19273   */\n      swap1\n      pop\n        /* \"#utility.yul\":18913:19279   */\n      swap2\n      swap1\n      pop\n      jump\t// out\n        /* \"#utility.yul\":19285:19704   */\n    tag_94:\n        /* \"#utility.yul\":19451:19455   */\n      0x00\n        /* \"#utility.yul\":19489:19491   */\n      0x20\n        /* \"#utility.yul\":19478:19487   */\n      dup3\n        /* \"#utility.yul\":19474:19492   */\n      add\n        /* \"#utility.yul\":19466:19492   */\n      swap1\n      pop\n        /* \"#utility.yul\":19538:19547   */\n      dup2\n        /* \"#utility.yul\":19532:19536   */\n      dup2\n        /* \"#utility.yul\":19528:19548   */\n      sub\n        /* \"#utility.yul\":19524:19525   */\n      0x00\n        /* \"#utility.yul\":19513:19522   */\n      dup4\n        /* \"#utility.yul\":19509:19526   */\n      add\n        /* \"#utility.yul\":19502:19549   */\n      mstore\n        /* \"#utility.yul\":19566:19697   */\n      tag_508\n        /* \"#utility.yul\":19692:19696   */\n      dup2\n        /* \"#utility.yul\":19566:19697   */\n      tag_284\n      jump\t// in\n    tag_508:\n        /* \"#utility.yul\":19558:19697   */\n      swap1\n      pop\n        /* \"#utility.yul\":19285:19704   */\n      swap2\n      swap1\n      pop\n      jump\t// out\n        /* \"#utility.yul\":19710:19890   */\n    tag_107:\n        /* \"#utility.yul\":19758:19835   */\n      0x4e487b7100000000000000000000000000000000000000000000000000000000\n        /* \"#utility.yul\":19755:19756   */\n      0x00\n        /* \"#utility.yul\":19748:19836   */\n      mstore\n        /* \"#utility.yul\":19855:19859   */\n      0x32\n        /* \"#utility.yul\":19852:19853   */\n      0x04\n        /* \"#utility.yul\":19845:19860   */\n      mstore\n        /* \"#utility.yul\":19879:19883   */\n      0x24\n        /* \"#utility.yul\":19876:19877   */\n      0x00\n        /* \"#utility.yul\":19869:19884   */\n      revert\n        /* \"#utility.yul\":19896:20014   */\n    tag_285:\n        /* \"#utility.yul\":19983:20007   */\n      tag_511\n        /* \"#utility.yul\":20001:20006   */\n      dup2\n        /* \"#utility.yul\":19983:20007   */\n      tag_259\n      jump\t// in\n    tag_511:\n        /* \"#utility.yul\":19978:19981   */\n      dup3\n        /* \"#utility.yul\":19971:20008   */\n      mstore\n        /* \"#utility.yul\":19896:20014   */\n      pop\n      pop\n      jump\t// out\n        /* \"#utility.yul\":20020:20242   */\n    tag_109:\n        /* \"#utility.yul\":20113:20117   */\n      0x00\n        /* \"#utility.yul\":20151:20153   */\n      0x20\n        /* \"#utility.yul\":20140:20149   */\n      dup3\n        /* \"#utility.yul\":20136:20154   */\n      add\n        /* \"#utility.yul\":20128:20154   */\n      swap1\n      pop\n        /* \"#utility.yul\":20164:20235   */\n      tag_513\n        /* \"#utility.yul\":20232:20233   */\n      0x00\n        /* \"#utility.yul\":20221:20230   */\n      dup4\n        /* \"#utility.yul\":20217:20234   */\n      add\n        /* \"#utility.yul\":20208:20214   */\n      dup5\n        /* \"#utility.yul\":20164:20235   */\n      tag_285\n      jump\t// in\n    tag_513:\n        /* \"#utility.yul\":20020:20242   */\n      swap3\n      swap2\n      pop\n      pop\n      jump\t// out\n        /* \"#utility.yul\":20272:20589   */\n    tag_286:\n        /* \"#utility.yul\":20370:20373   */\n      0x00\n        /* \"#utility.yul\":20391:20462   */\n      tag_515\n        /* \"#utility.yul\":20455:20461   */\n      dup4\n        /* \"#utility.yul\":20450:20453   */\n      dup6\n        /* \"#utility.yul\":20391:20462   */\n      tag_234\n      jump\t// in\n    tag_515:\n        /* \"#utility.yul\":20384:20462   */\n      swap4\n      pop\n        /* \"#utility.yul\":20472:20528   */\n      tag_516\n        /* \"#utility.yul\":20521:20527   */\n      dup4\n        /* \"#utility.yul\":20516:20519   */\n      dup6\n        /* \"#utility.yul\":20509:20514   */\n      dup5\n        /* \"#utility.yul\":20472:20528   */\n      tag_246\n      jump\t// in\n    tag_516:\n        /* \"#utility.yul\":20553:20582   */\n      tag_517\n        /* \"#utility.yul\":20575:20581   */\n      dup4\n        /* \"#utility.yul\":20553:20582   */\n      tag_236\n      jump\t// in\n    tag_517:\n        /* \"#utility.yul\":20548:20551   */\n      dup5\n        /* \"#utility.yul\":20544:20583   */\n      add\n        /* \"#utility.yul\":20537:20583   */\n      swap1\n      pop\n        /* \"#utility.yul\":20272:20589   */\n      swap4\n      swap3\n      pop\n      pop\n      pop\n      jump\t// out\n        /* \"#utility.yul\":20595:20928   */\n    tag_113:\n        /* \"#utility.yul\":20718:20722   */\n      0x00\n        /* \"#utility.yul\":20756:20758   */\n      0x20\n        /* \"#utility.yul\":20745:20754   */\n      dup3\n        /* \"#utility.yul\":20741:20759   */\n      add\n        /* \"#utility.yul\":20733:20759   */\n      swap1\n      pop\n        /* \"#utility.yul\":20805:20814   */\n      dup2\n        /* \"#utility.yul\":20799:20803   */\n      dup2\n        /* \"#utility.yul\":20795:20815   */\n      sub\n        /* \"#utility.yul\":20791:20792   */\n      0x00\n        /* \"#utility.yul\":20780:20789   */\n      dup4\n        /* \"#utility.yul\":20776:20793   */\n      add\n        /* \"#utility.yul\":20769:20816   */\n      mstore\n        /* \"#utility.yul\":20833:20921   */\n      tag_519\n        /* \"#utility.yul\":20916:20920   */\n      dup2\n        /* \"#utility.yul\":20907:20913   */\n      dup5\n        /* \"#utility.yul\":20899:20905   */\n      dup7\n        /* \"#utility.yul\":20833:20921   */\n      tag_286\n      jump\t// in\n    tag_519:\n        /* \"#utility.yul\":20825:20921   */\n      swap1\n      pop\n        /* \"#utility.yul\":20595:20928   */\n      swap4\n      swap3\n      pop\n      pop\n      pop\n      jump\t// out\n        /* \"#utility.yul\":20958:21789   */\n    tag_287:\n        /* \"#utility.yul\":21043:21046   */\n      0x00\n        /* \"#utility.yul\":21080:21085   */\n      dup2\n        /* \"#utility.yul\":21074:21086   */\n      sload\n        /* \"#utility.yul\":21109:21145   */\n      tag_521\n        /* \"#utility.yul\":21135:21144   */\n      dup2\n        /* \"#utility.yul\":21109:21145   */\n      tag_65\n      jump\t// in\n    tag_521:\n        /* \"#utility.yul\":21161:21232   */\n      tag_522\n        /* \"#utility.yul\":21225:21231   */\n      dup2\n        /* \"#utility.yul\":21220:21223   */\n      dup7\n        /* \"#utility.yul\":21161:21232   */\n      tag_234\n      jump\t// in\n    tag_522:\n        /* \"#utility.yul\":21154:21232   */\n      swap5\n      pop\n        /* \"#utility.yul\":21263:21264   */\n      0x01\n        /* \"#utility.yul\":21252:21261   */\n      dup3\n        /* \"#utility.yul\":21248:21265   */\n      and\n        /* \"#utility.yul\":21279:21280   */\n      0x00\n        /* \"#utility.yul\":21274:21438   */\n      dup2\n      eq\n      tag_524\n      jumpi\n        /* \"#utility.yul\":21452:21453   */\n      0x01\n        /* \"#utility.yul\":21447:21783   */\n      dup2\n      eq\n      tag_525\n      jumpi\n        /* \"#utility.yul\":21241:21783   */\n      jump(tag_523)\n        /* \"#utility.yul\":21274:21438   */\n    tag_524:\n        /* \"#utility.yul\":21358:21362   */\n      0xff\n        /* \"#utility.yul\":21354:21363   */\n      not\n        /* \"#utility.yul\":21343:21352   */\n      dup4\n        /* \"#utility.yul\":21339:21364   */\n      and\n        /* \"#utility.yul\":21334:21337   */\n      dup7\n        /* \"#utility.yul\":21327:21365   */\n      mstore\n        /* \"#utility.yul\":21418:21424   */\n      dup2\n        /* \"#utility.yul\":21411:21425   */\n      iszero\n        /* \"#utility.yul\":21404:21426   */\n      iszero\n        /* \"#utility.yul\":21398:21402   */\n      0x20\n        /* \"#utility.yul\":21394:21427   */\n      mul\n        /* \"#utility.yul\":21389:21392   */\n      dup7\n        /* \"#utility.yul\":21385:21428   */\n      add\n        /* \"#utility.yul\":21378:21428   */\n      swap4\n      pop\n        /* \"#utility.yul\":21274:21438   */\n      jump(tag_523)\n        /* \"#utility.yul\":21447:21783   */\n    tag_525:\n        /* \"#utility.yul\":21514:21552   */\n      tag_526\n        /* \"#utility.yul\":21546:21551   */\n      dup6\n        /* \"#utility.yul\":21514:21552   */\n      tag_274\n      jump\t// in\n    tag_526:\n        /* \"#utility.yul\":21574:21575   */\n      0x00\n        /* \"#utility.yul\":21588:21742   */\n    tag_527:\n        /* \"#utility.yul\":21602:21608   */\n      dup4\n        /* \"#utility.yul\":21599:21600   */\n      dup2\n        /* \"#utility.yul\":21596:21609   */\n      lt\n        /* \"#utility.yul\":21588:21742   */\n      iszero\n      tag_529\n      jumpi\n        /* \"#utility.yul\":21676:21683   */\n      dup2\n        /* \"#utility.yul\":21670:21684   */\n      sload\n        /* \"#utility.yul\":21666:21667   */\n      dup2\n        /* \"#utility.yul\":21661:21664   */\n      dup10\n        /* \"#utility.yul\":21657:21668   */\n      add\n        /* \"#utility.yul\":21650:21685   */\n      mstore\n        /* \"#utility.yul\":21726:21727   */\n      0x01\n        /* \"#utility.yul\":21717:21724   */\n      dup3\n        /* \"#utility.yul\":21713:21728   */\n      add\n        /* \"#utility.yul\":21702:21728   */\n      swap2\n      pop\n        /* \"#utility.yul\":21624:21628   */\n      0x20\n        /* \"#utility.yul\":21621:21622   */\n      dup2\n        /* \"#utility.yul\":21617:21629   */\n      add\n        /* \"#utility.yul\":21612:21629   */\n      swap1\n      pop\n        /* \"#utility.yul\":21588:21742   */\n      jump(tag_527)\n    tag_529:\n        /* \"#utility.yul\":21771:21772   */\n      dup1\n        /* \"#utility.yul\":21766:21769   */\n      dup9\n        /* \"#utility.yul\":21762:21773   */\n      add\n        /* \"#utility.yul\":21755:21773   */\n      swap6\n      pop\n        /* \"#utility.yul\":21454:21783   */\n      pop\n      pop\n        /* \"#utility.yul\":21241:21783   */\n    tag_523:\n      pop\n        /* \"#utility.yul\":21047:21789   */\n      pop\n      pop\n        /* \"#utility.yul\":20958:21789   */\n      swap3\n      swap2\n      pop\n      pop\n      jump\t// out\n        /* \"#utility.yul\":21795:22102   */\n    tag_117:\n        /* \"#utility.yul\":21905:21909   */\n      0x00\n        /* \"#utility.yul\":21943:21945   */\n      0x20\n        /* \"#utility.yul\":21932:21941   */\n      dup3\n        /* \"#utility.yul\":21928:21946   */\n      add\n        /* \"#utility.yul\":21920:21946   */\n      swap1\n      pop\n        /* \"#utility.yul\":21992:22001   */\n      dup2\n        /* \"#utility.yul\":21986:21990   */\n      dup2\n        /* \"#utility.yul\":21982:22002   */\n      sub\n        /* \"#utility.yul\":21978:21979   */\n      0x00\n        /* \"#utility.yul\":21967:21976   */\n      dup4\n        /* \"#utility.yul\":21963:21980   */\n      add\n        /* \"#utility.yul\":21956:22003   */\n      mstore\n        /* \"#utility.yul\":22020:22095   */\n      tag_531\n        /* \"#utility.yul\":22090:22094   */\n      dup2\n        /* \"#utility.yul\":22081:22087   */\n      dup5\n        /* \"#utility.yul\":22020:22095   */\n      tag_287\n      jump\t// in\n    tag_531:\n        /* \"#utility.yul\":22012:22095   */\n      swap1\n      pop\n        /* \"#utility.yul\":21795:22102   */\n      swap3\n      swap2\n      pop\n      pop\n      jump\t// out\n        /* \"#utility.yul\":22108:22273   */\n    tag_288:\n        /* \"#utility.yul\":22248:22265   */\n      0x4469726563742057697468647261770000000000000000000000000000000000\n        /* \"#utility.yul\":22244:22245   */\n      0x00\n        /* \"#utility.yul\":22236:22242   */\n      dup3\n        /* \"#utility.yul\":22232:22246   */\n      add\n        /* \"#utility.yul\":22225:22266   */\n      mstore\n        /* \"#utility.yul\":22108:22273   */\n      pop\n      jump\t// out\n        /* \"#utility.yul\":22279:22645   */\n    tag_289:\n        /* \"#utility.yul\":22421:22424   */\n      0x00\n        /* \"#utility.yul\":22442:22509   */\n      tag_534\n        /* \"#utility.yul\":22506:22508   */\n      0x0f\n        /* \"#utility.yul\":22501:22504   */\n      dup4\n        /* \"#utility.yul\":22442:22509   */\n      tag_234\n      jump\t// in\n    tag_534:\n        /* \"#utility.yul\":22435:22509   */\n      swap2\n      pop\n        /* \"#utility.yul\":22518:22611   */\n      tag_535\n        /* \"#utility.yul\":22607:22610   */\n      dup3\n        /* \"#utility.yul\":22518:22611   */\n      tag_288\n      jump\t// in\n    tag_535:\n        /* \"#utility.yul\":22636:22638   */\n      0x20\n        /* \"#utility.yul\":22631:22634   */\n      dup3\n        /* \"#utility.yul\":22627:22639   */\n      add\n        /* \"#utility.yul\":22620:22639   */\n      swap1\n      pop\n        /* \"#utility.yul\":22279:22645   */\n      swap2\n      swap1\n      pop\n      jump\t// out\n        /* \"#utility.yul\":22651:22786   */\n    tag_290:\n        /* \"#utility.yul\":22739:22745   */\n      0x00\n        /* \"#utility.yul\":22773:22778   */\n      dup2\n        /* \"#utility.yul\":22767:22779   */\n      mload\n        /* \"#utility.yul\":22757:22779   */\n      swap1\n      pop\n        /* \"#utility.yul\":22651:22786   */\n      swap2\n      swap1\n      pop\n      jump\t// out\n        /* \"#utility.yul\":22792:22997   */\n    tag_291:\n        /* \"#utility.yul\":22912:22923   */\n      0x00\n        /* \"#utility.yul\":22946:22952   */\n      dup3\n        /* \"#utility.yul\":22941:22944   */\n      dup3\n        /* \"#utility.yul\":22934:22953   */\n      mstore\n        /* \"#utility.yul\":22986:22990   */\n      0x20\n        /* \"#utility.yul\":22981:22984   */\n      dup3\n        /* \"#utility.yul\":22977:22991   */\n      add\n        /* \"#utility.yul\":22962:22991   */\n      swap1\n      pop\n        /* \"#utility.yul\":22792:22997   */\n      swap3\n      swap2\n      pop\n      pop\n      jump\t// out\n        /* \"#utility.yul\":23003:23156   */\n    tag_292:\n        /* \"#utility.yul\":23091:23095   */\n      0x00\n        /* \"#utility.yul\":23114:23117   */\n      dup2\n        /* \"#utility.yul\":23106:23117   */\n      swap1\n      pop\n        /* \"#utility.yul\":23144:23148   */\n      0x20\n        /* \"#utility.yul\":23139:23142   */\n      dup3\n        /* \"#utility.yul\":23135:23149   */\n      add\n        /* \"#utility.yul\":23127:23149   */\n      swap1\n      pop\n        /* \"#utility.yul\":23003:23156   */\n      swap2\n      swap1\n      pop\n      jump\t// out\n        /* \"#utility.yul\":23162:23321   */\n    tag_293:\n        /* \"#utility.yul\":23236:23247   */\n      0x00\n        /* \"#utility.yul\":23270:23276   */\n      dup3\n        /* \"#utility.yul\":23265:23268   */\n      dup3\n        /* \"#utility.yul\":23258:23277   */\n      mstore\n        /* \"#utility.yul\":23310:23314   */\n      0x20\n        /* \"#utility.yul\":23305:23308   */\n      dup3\n        /* \"#utility.yul\":23301:23315   */\n      add\n        /* \"#utility.yul\":23286:23315   */\n      swap1\n      pop\n        /* \"#utility.yul\":23162:23321   */\n      swap3\n      swap2\n      pop\n      pop\n      jump\t// out\n        /* \"#utility.yul\":23327:23684   */\n    tag_294:\n        /* \"#utility.yul\":23405:23408   */\n      0x00\n        /* \"#utility.yul\":23433:23472   */\n      tag_541\n        /* \"#utility.yul\":23466:23471   */\n      dup3\n        /* \"#utility.yul\":23433:23472   */\n      tag_233\n      jump\t// in\n    tag_541:\n        /* \"#utility.yul\":23488:23549   */\n      tag_542\n        /* \"#utility.yul\":23542:23548   */\n      dup2\n        /* \"#utility.yul\":23537:23540   */\n      dup6\n        /* \"#utility.yul\":23488:23549   */\n      tag_293\n      jump\t// in\n    tag_542:\n        /* \"#utility.yul\":23481:23549   */\n      swap4\n      pop\n        /* \"#utility.yul\":23558:23623   */\n      tag_543\n        /* \"#utility.yul\":23616:23622   */\n      dup2\n        /* \"#utility.yul\":23611:23614   */\n      dup6\n        /* \"#utility.yul\":23604:23608   */\n      0x20\n        /* \"#utility.yul\":23597:23602   */\n      dup7\n        /* \"#utility.yul\":23593:23609   */\n      add\n        /* \"#utility.yul\":23558:23623   */\n      tag_235\n      jump\t// in\n    tag_543:\n        /* \"#utility.yul\":23648:23677   */\n      tag_544\n        /* \"#utility.yul\":23670:23676   */\n      dup2\n        /* \"#utility.yul\":23648:23677   */\n      tag_236\n      jump\t// in\n    tag_544:\n        /* \"#utility.yul\":23643:23646   */\n      dup5\n        /* \"#utility.yul\":23639:23678   */\n      add\n        /* \"#utility.yul\":23632:23678   */\n      swap2\n      pop\n        /* \"#utility.yul\":23409:23684   */\n      pop\n        /* \"#utility.yul\":23327:23684   */\n      swap3\n      swap2\n      pop\n      pop\n      jump\t// out\n        /* \"#utility.yul\":23690:23788   */\n    tag_295:\n        /* \"#utility.yul\":23741:23747   */\n      0x00\n        /* \"#utility.yul\":23775:23780   */\n      dup2\n        /* \"#utility.yul\":23769:23781   */\n      mload\n        /* \"#utility.yul\":23759:23781   */\n      swap1\n      pop\n        /* \"#utility.yul\":23690:23788   */\n      swap2\n      swap1\n      pop\n      jump\t// out\n        /* \"#utility.yul\":23794:23952   */\n    tag_296:\n        /* \"#utility.yul\":23867:23878   */\n      0x00\n        /* \"#utility.yul\":23901:23907   */\n      dup3\n        /* \"#utility.yul\":23896:23899   */\n      dup3\n        /* \"#utility.yul\":23889:23908   */\n      mstore\n        /* \"#utility.yul\":23941:23945   */\n      0x20\n        /* \"#utility.yul\":23936:23939   */\n      dup3\n        /* \"#utility.yul\":23932:23946   */\n      add\n        /* \"#utility.yul\":23917:23946   */\n      swap1\n      pop\n        /* \"#utility.yul\":23794:23952   */\n      swap3\n      swap2\n      pop\n      pop\n      jump\t// out\n        /* \"#utility.yul\":23958:24311   */\n    tag_297:\n        /* \"#utility.yul\":24034:24037   */\n      0x00\n        /* \"#utility.yul\":24062:24100   */\n      tag_548\n        /* \"#utility.yul\":24094:24099   */\n      dup3\n        /* \"#utility.yul\":24062:24100   */\n      tag_295\n      jump\t// in\n    tag_548:\n        /* \"#utility.yul\":24116:24176   */\n      tag_549\n        /* \"#utility.yul\":24169:24175   */\n      dup2\n        /* \"#utility.yul\":24164:24167   */\n      dup6\n        /* \"#utility.yul\":24116:24176   */\n      tag_296\n      jump\t// in\n    tag_549:\n        /* \"#utility.yul\":24109:24176   */\n      swap4\n      pop\n        /* \"#utility.yul\":24185:24250   */\n      tag_550\n        /* \"#utility.yul\":24243:24249   */\n      dup2\n        /* \"#utility.yul\":24238:24241   */\n      dup6\n        /* \"#utility.yul\":24231:24235   */\n      0x20\n        /* \"#utility.yul\":24224:24229   */\n      dup7\n        /* \"#utility.yul\":24220:24236   */\n      add\n        /* \"#utility.yul\":24185:24250   */\n      tag_235\n      jump\t// in\n    tag_550:\n        /* \"#utility.yul\":24275:24304   */\n      tag_551\n        /* \"#utility.yul\":24297:24303   */\n      dup2\n        /* \"#utility.yul\":24275:24304   */\n      tag_236\n      jump\t// in\n    tag_551:\n        /* \"#utility.yul\":24270:24273   */\n      dup5\n        /* \"#utility.yul\":24266:24305   */\n      add\n        /* \"#utility.yul\":24259:24305   */\n      swap2\n      pop\n        /* \"#utility.yul\":24038:24311   */\n      pop\n        /* \"#utility.yul\":23958:24311   */\n      swap3\n      swap2\n      pop\n      pop\n      jump\t// out\n        /* \"#utility.yul\":24367:25274   */\n    tag_298:\n        /* \"#utility.yul\":24468:24471   */\n      0x00\n        /* \"#utility.yul\":24504:24508   */\n      0x60\n        /* \"#utility.yul\":24499:24502   */\n      dup4\n        /* \"#utility.yul\":24495:24509   */\n      add\n        /* \"#utility.yul\":24591:24595   */\n      0x00\n        /* \"#utility.yul\":24584:24589   */\n      dup4\n        /* \"#utility.yul\":24580:24596   */\n      add\n        /* \"#utility.yul\":24574:24597   */\n      mload\n        /* \"#utility.yul\":24644:24647   */\n      dup5\n        /* \"#utility.yul\":24638:24642   */\n      dup3\n        /* \"#utility.yul\":24634:24648   */\n      sub\n        /* \"#utility.yul\":24627:24631   */\n      0x00\n        /* \"#utility.yul\":24622:24625   */\n      dup7\n        /* \"#utility.yul\":24618:24632   */\n      add\n        /* \"#utility.yul\":24611:24649   */\n      mstore\n        /* \"#utility.yul\":24670:24743   */\n      tag_553\n        /* \"#utility.yul\":24738:24742   */\n      dup3\n        /* \"#utility.yul\":24724:24736   */\n      dup3\n        /* \"#utility.yul\":24670:24743   */\n      tag_294\n      jump\t// in\n    tag_553:\n        /* \"#utility.yul\":24662:24743   */\n      swap2\n      pop\n        /* \"#utility.yul\":24519:24754   */\n      pop\n        /* \"#utility.yul\":24840:24844   */\n      0x20\n        /* \"#utility.yul\":24833:24838   */\n      dup4\n        /* \"#utility.yul\":24829:24845   */\n      add\n        /* \"#utility.yul\":24823:24846   */\n      mload\n        /* \"#utility.yul\":24893:24896   */\n      dup5\n        /* \"#utility.yul\":24887:24891   */\n      dup3\n        /* \"#utility.yul\":24883:24897   */\n      sub\n        /* \"#utility.yul\":24876:24880   */\n      0x20\n        /* \"#utility.yul\":24871:24874   */\n      dup7\n        /* \"#utility.yul\":24867:24881   */\n      add\n        /* \"#utility.yul\":24860:24898   */\n      mstore\n        /* \"#utility.yul\":24919:24992   */\n      tag_554\n        /* \"#utility.yul\":24987:24991   */\n      dup3\n        /* \"#utility.yul\":24973:24985   */\n      dup3\n        /* \"#utility.yul\":24919:24992   */\n      tag_294\n      jump\t// in\n    tag_554:\n        /* \"#utility.yul\":24911:24992   */\n      swap2\n      pop\n        /* \"#utility.yul\":24764:25003   */\n      pop\n        /* \"#utility.yul\":25086:25090   */\n      0x40\n        /* \"#utility.yul\":25079:25084   */\n      dup4\n        /* \"#utility.yul\":25075:25091   */\n      add\n        /* \"#utility.yul\":25069:25092   */\n      mload\n        /* \"#utility.yul\":25139:25142   */\n      dup5\n        /* \"#utility.yul\":25133:25137   */\n      dup3\n        /* \"#utility.yul\":25129:25143   */\n      sub\n        /* \"#utility.yul\":25122:25126   */\n      0x40\n        /* \"#utility.yul\":25117:25120   */\n      dup7\n        /* \"#utility.yul\":25113:25127   */\n      add\n        /* \"#utility.yul\":25106:25144   */\n      mstore\n        /* \"#utility.yul\":25165:25236   */\n      tag_555\n        /* \"#utility.yul\":25231:25235   */\n      dup3\n        /* \"#utility.yul\":25217:25229   */\n      dup3\n        /* \"#utility.yul\":25165:25236   */\n      tag_297\n      jump\t// in\n    tag_555:\n        /* \"#utility.yul\":25157:25236   */\n      swap2\n      pop\n        /* \"#utility.yul\":25013:25247   */\n      pop\n        /* \"#utility.yul\":25264:25268   */\n      dup1\n        /* \"#utility.yul\":25257:25268   */\n      swap2\n      pop\n        /* \"#utility.yul\":24473:25274   */\n      pop\n        /* \"#utility.yul\":24367:25274   */\n      swap3\n      swap2\n      pop\n      pop\n      jump\t// out\n        /* \"#utility.yul\":25280:25520   */\n    tag_299:\n        /* \"#utility.yul\":25391:25401   */\n      0x00\n        /* \"#utility.yul\":25426:25514   */\n      tag_557\n        /* \"#utility.yul\":25510:25513   */\n      dup4\n        /* \"#utility.yul\":25502:25508   */\n      dup4\n        /* \"#utility.yul\":25426:25514   */\n      tag_298\n      jump\t// in\n    tag_557:\n        /* \"#utility.yul\":25412:25514   */\n      swap1\n      pop\n        /* \"#utility.yul\":25280:25520   */\n      swap3\n      swap2\n      pop\n      pop\n      jump\t// out\n        /* \"#utility.yul\":25526:25660   */\n    tag_300:\n        /* \"#utility.yul\":25617:25621   */\n      0x00\n        /* \"#utility.yul\":25649:25653   */\n      0x20\n        /* \"#utility.yul\":25644:25647   */\n      dup3\n        /* \"#utility.yul\":25640:25654   */\n      add\n        /* \"#utility.yul\":25632:25654   */\n      swap1\n      pop\n        /* \"#utility.yul\":25526:25660   */\n      swap2\n      swap1\n      pop\n      jump\t// out\n        /* \"#utility.yul\":25720:26799   */\n    tag_301:\n        /* \"#utility.yul\":25881:25884   */\n      0x00\n        /* \"#utility.yul\":25910:25985   */\n      tag_560\n        /* \"#utility.yul\":25979:25984   */\n      dup3\n        /* \"#utility.yul\":25910:25985   */\n      tag_290\n      jump\t// in\n    tag_560:\n        /* \"#utility.yul\":26001:26108   */\n      tag_561\n        /* \"#utility.yul\":26101:26107   */\n      dup2\n        /* \"#utility.yul\":26096:26099   */\n      dup6\n        /* \"#utility.yul\":26001:26108   */\n      tag_291\n      jump\t// in\n    tag_561:\n        /* \"#utility.yul\":25994:26108   */\n      swap4\n      pop\n        /* \"#utility.yul\":26134:26137   */\n      dup4\n        /* \"#utility.yul\":26179:26183   */\n      0x20\n        /* \"#utility.yul\":26171:26177   */\n      dup3\n        /* \"#utility.yul\":26167:26184   */\n      mul\n        /* \"#utility.yul\":26162:26165   */\n      dup6\n        /* \"#utility.yul\":26158:26185   */\n      add\n        /* \"#utility.yul\":26209:26286   */\n      tag_562\n        /* \"#utility.yul\":26280:26285   */\n      dup6\n        /* \"#utility.yul\":26209:26286   */\n      tag_292\n      jump\t// in\n    tag_562:\n        /* \"#utility.yul\":26309:26316   */\n      dup1\n        /* \"#utility.yul\":26340:26341   */\n      0x00\n        /* \"#utility.yul\":26325:26754   */\n    tag_563:\n        /* \"#utility.yul\":26350:26356   */\n      dup6\n        /* \"#utility.yul\":26347:26348   */\n      dup2\n        /* \"#utility.yul\":26344:26357   */\n      lt\n        /* \"#utility.yul\":26325:26754   */\n      iszero\n      tag_565\n      jumpi\n        /* \"#utility.yul\":26421:26430   */\n      dup5\n        /* \"#utility.yul\":26415:26419   */\n      dup5\n        /* \"#utility.yul\":26411:26431   */\n      sub\n        /* \"#utility.yul\":26406:26409   */\n      dup10\n        /* \"#utility.yul\":26399:26432   */\n      mstore\n        /* \"#utility.yul\":26472:26478   */\n      dup2\n        /* \"#utility.yul\":26466:26479   */\n      mload\n        /* \"#utility.yul\":26500:26606   */\n      tag_566\n        /* \"#utility.yul\":26601:26605   */\n      dup6\n        /* \"#utility.yul\":26586:26599   */\n      dup3\n        /* \"#utility.yul\":26500:26606   */\n      tag_299\n      jump\t// in\n    tag_566:\n        /* \"#utility.yul\":26492:26606   */\n      swap5\n      pop\n        /* \"#utility.yul\":26629:26710   */\n      tag_567\n        /* \"#utility.yul\":26703:26709   */\n      dup4\n        /* \"#utility.yul\":26629:26710   */\n      tag_300\n      jump\t// in\n    tag_567:\n        /* \"#utility.yul\":26619:26710   */\n      swap3\n      pop\n        /* \"#utility.yul\":26739:26743   */\n      0x20\n        /* \"#utility.yul\":26734:26737   */\n      dup11\n        /* \"#utility.yul\":26730:26744   */\n      add\n        /* \"#utility.yul\":26723:26744   */\n      swap10\n      pop\n        /* \"#utility.yul\":26385:26754   */\n      pop\n        /* \"#utility.yul\":26372:26373   */\n      0x01\n        /* \"#utility.yul\":26369:26370   */\n      dup2\n        /* \"#utility.yul\":26365:26374   */\n      add\n        /* \"#utility.yul\":26360:26374   */\n      swap1\n      pop\n        /* \"#utility.yul\":26325:26754   */\n      jump(tag_563)\n    tag_565:\n        /* \"#utility.yul\":26329:26343   */\n      pop\n        /* \"#utility.yul\":26770:26774   */\n      dup3\n        /* \"#utility.yul\":26763:26774   */\n      swap8\n      pop\n        /* \"#utility.yul\":26790:26793   */\n      dup8\n        /* \"#utility.yul\":26783:26793   */\n      swap6\n      pop\n        /* \"#utility.yul\":25886:26799   */\n      pop\n      pop\n      pop\n      pop\n      pop\n        /* \"#utility.yul\":25720:26799   */\n      swap3\n      swap2\n      pop\n      pop\n      jump\t// out\n        /* \"#utility.yul\":26805:27569   */\n    tag_127:\n        /* \"#utility.yul\":27091:27095   */\n      0x00\n        /* \"#utility.yul\":27129:27131   */\n      0x40\n        /* \"#utility.yul\":27118:27127   */\n      dup3\n        /* \"#utility.yul\":27114:27132   */\n      add\n        /* \"#utility.yul\":27106:27132   */\n      swap1\n      pop\n        /* \"#utility.yul\":27178:27187   */\n      dup2\n        /* \"#utility.yul\":27172:27176   */\n      dup2\n        /* \"#utility.yul\":27168:27188   */\n      sub\n        /* \"#utility.yul\":27164:27165   */\n      0x00\n        /* \"#utility.yul\":27153:27162   */\n      dup4\n        /* \"#utility.yul\":27149:27166   */\n      add\n        /* \"#utility.yul\":27142:27189   */\n      mstore\n        /* \"#utility.yul\":27206:27337   */\n      tag_569\n        /* \"#utility.yul\":27332:27336   */\n      dup2\n        /* \"#utility.yul\":27206:27337   */\n      tag_289\n      jump\t// in\n    tag_569:\n        /* \"#utility.yul\":27198:27337   */\n      swap1\n      pop\n        /* \"#utility.yul\":27384:27393   */\n      dup2\n        /* \"#utility.yul\":27378:27382   */\n      dup2\n        /* \"#utility.yul\":27374:27394   */\n      sub\n        /* \"#utility.yul\":27369:27371   */\n      0x20\n        /* \"#utility.yul\":27358:27367   */\n      dup4\n        /* \"#utility.yul\":27354:27372   */\n      add\n        /* \"#utility.yul\":27347:27395   */\n      mstore\n        /* \"#utility.yul\":27412:27562   */\n      tag_570\n        /* \"#utility.yul\":27557:27561   */\n      dup2\n        /* \"#utility.yul\":27548:27554   */\n      dup5\n        /* \"#utility.yul\":27412:27562   */\n      tag_301\n      jump\t// in\n    tag_570:\n        /* \"#utility.yul\":27404:27562   */\n      swap1\n      pop\n        /* \"#utility.yul\":26805:27569   */\n      swap3\n      swap2\n      pop\n      pop\n      jump\t// out\n        /* \"#utility.yul\":27575:27992   */\n    tag_132:\n        /* \"#utility.yul\":27713:27717   */\n      0x00\n        /* \"#utility.yul\":27751:27753   */\n      0x40\n        /* \"#utility.yul\":27740:27749   */\n      dup3\n        /* \"#utility.yul\":27736:27754   */\n      add\n        /* \"#utility.yul\":27728:27754   */\n      swap1\n      pop\n        /* \"#utility.yul\":27764:27835   */\n      tag_572\n        /* \"#utility.yul\":27832:27833   */\n      0x00\n        /* \"#utility.yul\":27821:27830   */\n      dup4\n        /* \"#utility.yul\":27817:27834   */\n      add\n        /* \"#utility.yul\":27808:27814   */\n      dup6\n        /* \"#utility.yul\":27764:27835   */\n      tag_285\n      jump\t// in\n    tag_572:\n        /* \"#utility.yul\":27882:27891   */\n      dup2\n        /* \"#utility.yul\":27876:27880   */\n      dup2\n        /* \"#utility.yul\":27872:27892   */\n      sub\n        /* \"#utility.yul\":27867:27869   */\n      0x20\n        /* \"#utility.yul\":27856:27865   */\n      dup4\n        /* \"#utility.yul\":27852:27870   */\n      add\n        /* \"#utility.yul\":27845:27893   */\n      mstore\n        /* \"#utility.yul\":27910:27985   */\n      tag_573\n        /* \"#utility.yul\":27980:27984   */\n      dup2\n        /* \"#utility.yul\":27971:27977   */\n      dup5\n        /* \"#utility.yul\":27910:27985   */\n      tag_287\n      jump\t// in\n    tag_573:\n        /* \"#utility.yul\":27902:27985   */\n      swap1\n      pop\n        /* \"#utility.yul\":27575:27992   */\n      swap4\n      swap3\n      pop\n      pop\n      pop\n      jump\t// out\n        /* \"#utility.yul\":27998:28174   */\n    tag_302:\n        /* \"#utility.yul\":28138:28166   */\n      0x5661756c743a204465706f736974206d757374206265203e2030000000000000\n        /* \"#utility.yul\":28134:28135   */\n      0x00\n        /* \"#utility.yul\":28126:28132   */\n      dup3\n        /* \"#utility.yul\":28122:28136   */\n      add\n        /* \"#utility.yul\":28115:28167   */\n      mstore\n        /* \"#utility.yul\":27998:28174   */\n      pop\n      jump\t// out\n        /* \"#utility.yul\":28180:28546   */\n    tag_303:\n        /* \"#utility.yul\":28322:28325   */\n      0x00\n        /* \"#utility.yul\":28343:28410   */\n      tag_576\n        /* \"#utility.yul\":28407:28409   */\n      0x1a\n        /* \"#utility.yul\":28402:28405   */\n      dup4\n        /* \"#utility.yul\":28343:28410   */\n      tag_234\n      jump\t// in\n    tag_576:\n        /* \"#utility.yul\":28336:28410   */\n      swap2\n      pop\n        /* \"#utility.yul\":28419:28512   */\n      tag_577\n        /* \"#utility.yul\":28508:28511   */\n      dup3\n        /* \"#utility.yul\":28419:28512   */\n      tag_302\n      jump\t// in\n    tag_577:\n        /* \"#utility.yul\":28537:28539   */\n      0x20\n        /* \"#utility.yul\":28532:28535   */\n      dup3\n        /* \"#utility.yul\":28528:28540   */\n      add\n        /* \"#utility.yul\":28521:28540   */\n      swap1\n      pop\n        /* \"#utility.yul\":28180:28546   */\n      swap2\n      swap1\n      pop\n      jump\t// out\n        /* \"#utility.yul\":28552:28971   */\n    tag_140:\n        /* \"#utility.yul\":28718:28722   */\n      0x00\n        /* \"#utility.yul\":28756:28758   */\n      0x20\n        /* \"#utility.yul\":28745:28754   */\n      dup3\n        /* \"#utility.yul\":28741:28759   */\n      add\n        /* \"#utility.yul\":28733:28759   */\n      swap1\n      pop\n        /* \"#utility.yul\":28805:28814   */\n      dup2\n        /* \"#utility.yul\":28799:28803   */\n      dup2\n        /* \"#utility.yul\":28795:28815   */\n      sub\n        /* \"#utility.yul\":28791:28792   */\n      0x00\n        /* \"#utility.yul\":28780:28789   */\n      dup4\n        /* \"#utility.yul\":28776:28793   */\n      add\n        /* \"#utility.yul\":28769:28816   */\n      mstore\n        /* \"#utility.yul\":28833:28964   */\n      tag_579\n        /* \"#utility.yul\":28959:28963   */\n      dup2\n        /* \"#utility.yul\":28833:28964   */\n      tag_303\n      jump\t// in\n    tag_579:\n        /* \"#utility.yul\":28825:28964   */\n      swap1\n      pop\n        /* \"#utility.yul\":28552:28971   */\n      swap2\n      swap1\n      pop\n      jump\t// out\n        /* \"#utility.yul\":28977:29134   */\n    tag_304:\n        /* \"#utility.yul\":29117:29126   */\n      0x4465706f73697400000000000000000000000000000000000000000000000000\n        /* \"#utility.yul\":29113:29114   */\n      0x00\n        /* \"#utility.yul\":29105:29111   */\n      dup3\n        /* \"#utility.yul\":29101:29115   */\n      add\n        /* \"#utility.yul\":29094:29127   */\n      mstore\n        /* \"#utility.yul\":28977:29134   */\n      pop\n      jump\t// out\n        /* \"#utility.yul\":29140:29505   */\n    tag_305:\n        /* \"#utility.yul\":29282:29285   */\n      0x00\n        /* \"#utility.yul\":29303:29369   */\n      tag_582\n        /* \"#utility.yul\":29367:29368   */\n      0x07\n        /* \"#utility.yul\":29362:29365   */\n      dup4\n        /* \"#utility.yul\":29303:29369   */\n      tag_234\n      jump\t// in\n    tag_582:\n        /* \"#utility.yul\":29296:29369   */\n      swap2\n      pop\n        /* \"#utility.yul\":29378:29471   */\n      tag_583\n        /* \"#utility.yul\":29467:29470   */\n      dup3\n        /* \"#utility.yul\":29378:29471   */\n      tag_304\n      jump\t// in\n    tag_583:\n        /* \"#utility.yul\":29496:29498   */\n      0x20\n        /* \"#utility.yul\":29491:29494   */\n      dup3\n        /* \"#utility.yul\":29487:29499   */\n      add\n        /* \"#utility.yul\":29480:29499   */\n      swap1\n      pop\n        /* \"#utility.yul\":29140:29505   */\n      swap2\n      swap1\n      pop\n      jump\t// out\n        /* \"#utility.yul\":29511:30275   */\n    tag_164:\n        /* \"#utility.yul\":29797:29801   */\n      0x00\n        /* \"#utility.yul\":29835:29837   */\n      0x40\n        /* \"#utility.yul\":29824:29833   */\n      dup3\n        /* \"#utility.yul\":29820:29838   */\n      add\n        /* \"#utility.yul\":29812:29838   */\n      swap1\n      pop\n        /* \"#utility.yul\":29884:29893   */\n      dup2\n        /* \"#utility.yul\":29878:29882   */\n      dup2\n        /* \"#utility.yul\":29874:29894   */\n      sub\n        /* \"#utility.yul\":29870:29871   */\n      0x00\n        /* \"#utility.yul\":29859:29868   */\n      dup4\n        /* \"#utility.yul\":29855:29872   */\n      add\n        /* \"#utility.yul\":29848:29895   */\n      mstore\n        /* \"#utility.yul\":29912:30043   */\n      tag_585\n        /* \"#utility.yul\":30038:30042   */\n      dup2\n        /* \"#utility.yul\":29912:30043   */\n      tag_305\n      jump\t// in\n    tag_585:\n        /* \"#utility.yul\":29904:30043   */\n      swap1\n      pop\n        /* \"#utility.yul\":30090:30099   */\n      dup2\n        /* \"#utility.yul\":30084:30088   */\n      dup2\n        /* \"#utility.yul\":30080:30100   */\n      sub\n        /* \"#utility.yul\":30075:30077   */\n      0x20\n        /* \"#utility.yul\":30064:30073   */\n      dup4\n        /* \"#utility.yul\":30060:30078   */\n      add\n        /* \"#utility.yul\":30053:30101   */\n      mstore\n        /* \"#utility.yul\":30118:30268   */\n      tag_586\n        /* \"#utility.yul\":30263:30267   */\n      dup2\n        /* \"#utility.yul\":30254:30260   */\n      dup5\n        /* \"#utility.yul\":30118:30268   */\n      tag_301\n      jump\t// in\n    tag_586:\n        /* \"#utility.yul\":30110:30268   */\n      swap1\n      pop\n        /* \"#utility.yul\":29511:30275   */\n      swap3\n      swap2\n      pop\n      pop\n      jump\t// out\n        /* \"#utility.yul\":30281:30435   */\n    tag_306:\n        /* \"#utility.yul\":30421:30427   */\n      0x6261736500000000000000000000000000000000000000000000000000000000\n        /* \"#utility.yul\":30417:30418   */\n      0x00\n        /* \"#utility.yul\":30409:30415   */\n      dup3\n        /* \"#utility.yul\":30405:30419   */\n      add\n        /* \"#utility.yul\":30398:30428   */\n      mstore\n        /* \"#utility.yul\":30281:30435   */\n      pop\n      jump\t// out\n        /* \"#utility.yul\":30441:30806   */\n    tag_307:\n        /* \"#utility.yul\":30583:30586   */\n      0x00\n        /* \"#utility.yul\":30604:30670   */\n      tag_589\n        /* \"#utility.yul\":30668:30669   */\n      0x04\n        /* \"#utility.yul\":30663:30666   */\n      dup4\n        /* \"#utility.yul\":30604:30670   */\n      tag_234\n      jump\t// in\n    tag_589:\n        /* \"#utility.yul\":30597:30670   */\n      swap2\n      pop\n        /* \"#utility.yul\":30679:30772   */\n      tag_590\n        /* \"#utility.yul\":30768:30771   */\n      dup3\n        /* \"#utility.yul\":30679:30772   */\n      tag_306\n      jump\t// in\n    tag_590:\n        /* \"#utility.yul\":30797:30799   */\n      0x20\n        /* \"#utility.yul\":30792:30795   */\n      dup3\n        /* \"#utility.yul\":30788:30800   */\n      add\n        /* \"#utility.yul\":30781:30800   */\n      swap1\n      pop\n        /* \"#utility.yul\":30441:30806   */\n      swap2\n      swap1\n      pop\n      jump\t// out\n        /* \"#utility.yul\":30812:31231   */\n    tag_185:\n        /* \"#utility.yul\":30978:30982   */\n      0x00\n        /* \"#utility.yul\":31016:31018   */\n      0x20\n        /* \"#utility.yul\":31005:31014   */\n      dup3\n        /* \"#utility.yul\":31001:31019   */\n      add\n        /* \"#utility.yul\":30993:31019   */\n      swap1\n      pop\n        /* \"#utility.yul\":31065:31074   */\n      dup2\n        /* \"#utility.yul\":31059:31063   */\n      dup2\n        /* \"#utility.yul\":31055:31075   */\n      sub\n        /* \"#utility.yul\":31051:31052   */\n      0x00\n        /* \"#utility.yul\":31040:31049   */\n      dup4\n        /* \"#utility.yul\":31036:31053   */\n      add\n        /* \"#utility.yul\":31029:31076   */\n      mstore\n        /* \"#utility.yul\":31093:31224   */\n      tag_592\n        /* \"#utility.yul\":31219:31223   */\n      dup2\n        /* \"#utility.yul\":31093:31224   */\n      tag_307\n      jump\t// in\n    tag_592:\n        /* \"#utility.yul\":31085:31224   */\n      swap1\n      pop\n        /* \"#utility.yul\":30812:31231   */\n      swap2\n      swap1\n      pop\n      jump\t// out\n        /* \"#utility.yul\":31237:31403   */\n    tag_308:\n        /* \"#utility.yul\":31377:31395   */\n      0x4d6f64756c617220576974686472617700000000000000000000000000000000\n        /* \"#utility.yul\":31373:31374   */\n      0x00\n        /* \"#utility.yul\":31365:31371   */\n      dup3\n        /* \"#utility.yul\":31361:31375   */\n      add\n        /* \"#utility.yul\":31354:31396   */\n      mstore\n        /* \"#utility.yul\":31237:31403   */\n      pop\n      jump\t// out\n        /* \"#utility.yul\":31409:31775   */\n    tag_309:\n        /* \"#utility.yul\":31551:31554   */\n      0x00\n        /* \"#utility.yul\":31572:31639   */\n      tag_595\n        /* \"#utility.yul\":31636:31638   */\n      0x10\n        /* \"#utility.yul\":31631:31634   */\n      dup4\n        /* \"#utility.yul\":31572:31639   */\n      tag_234\n      jump\t// in\n    tag_595:\n        /* \"#utility.yul\":31565:31639   */\n      swap2\n      pop\n        /* \"#utility.yul\":31648:31741   */\n      tag_596\n        /* \"#utility.yul\":31737:31740   */\n      dup3\n        /* \"#utility.yul\":31648:31741   */\n      tag_308\n      jump\t// in\n    tag_596:\n        /* \"#utility.yul\":31766:31768   */\n      0x20\n        /* \"#utility.yul\":31761:31764   */\n      dup3\n        /* \"#utility.yul\":31757:31769   */\n      add\n        /* \"#utility.yul\":31750:31769   */\n      swap1\n      pop\n        /* \"#utility.yul\":31409:31775   */\n      swap2\n      swap1\n      pop\n      jump\t// out\n        /* \"#utility.yul\":31781:32545   */\n    tag_195:\n        /* \"#utility.yul\":32067:32071   */\n      0x00\n        /* \"#utility.yul\":32105:32107   */\n      0x40\n        /* \"#utility.yul\":32094:32103   */\n      dup3\n        /* \"#utility.yul\":32090:32108   */\n      add\n        /* \"#utility.yul\":32082:32108   */\n      swap1\n      pop\n        /* \"#utility.yul\":32154:32163   */\n      dup2\n        /* \"#utility.yul\":32148:32152   */\n      dup2\n        /* \"#utility.yul\":32144:32164   */\n      sub\n        /* \"#utility.yul\":32140:32141   */\n      0x00\n        /* \"#utility.yul\":32129:32138   */\n      dup4\n        /* \"#utility.yul\":32125:32142   */\n      add\n        /* \"#utility.yul\":32118:32165   */\n      mstore\n        /* \"#utility.yul\":32182:32313   */\n      tag_598\n        /* \"#utility.yul\":32308:32312   */\n      dup2\n        /* \"#utility.yul\":32182:32313   */\n      tag_309\n      jump\t// in\n    tag_598:\n        /* \"#utility.yul\":32174:32313   */\n      swap1\n      pop\n        /* \"#utility.yul\":32360:32369   */\n      dup2\n        /* \"#utility.yul\":32354:32358   */\n      dup2\n        /* \"#utility.yul\":32350:32370   */\n      sub\n        /* \"#utility.yul\":32345:32347   */\n      0x20\n        /* \"#utility.yul\":32334:32343   */\n      dup4\n        /* \"#utility.yul\":32330:32348   */\n      add\n        /* \"#utility.yul\":32323:32371   */\n      mstore\n        /* \"#utility.yul\":32388:32538   */\n      tag_599\n        /* \"#utility.yul\":32533:32537   */\n      dup2\n        /* \"#utility.yul\":32524:32530   */\n      dup5\n        /* \"#utility.yul\":32388:32538   */\n      tag_301\n      jump\t// in\n    tag_599:\n        /* \"#utility.yul\":32380:32538   */\n      swap1\n      pop\n        /* \"#utility.yul\":31781:32545   */\n      swap3\n      swap2\n      pop\n      pop\n      jump\t// out\n\n    auxdata: 0xa264697066735822122018fc2ce3cba2a1f7b1b34f316afb1bfcf35787ac6fa0dc5aec6de32dda80aa8264736f6c634300081f0033\n}\n",
				"bytecode": {
					"linkReferences": {},
					"object": "60c060405234801561000f575f5ffd5b506040516132773803806132778339818101604052810190610031919061039b565b815f73ffffffffffffffffffffffffffffffffffffffff168173ffffffffffffffffffffffffffffffffffffffff16036100a2575f6040517f1e4fbdf7000000000000000000000000000000000000000000000000000000008152600401610099919061042a565b60405180910390fd5b6100b18161013360201b60201c565b508373ffffffffffffffffffffffffffffffffffffffff1660a08173ffffffffffffffffffffffffffffffffffffffff16815250508273ffffffffffffffffffffffffffffffffffffffff1660808173ffffffffffffffffffffffffffffffffffffffff168152505080600190816101299190610653565b5050505050610722565b5f5f5f9054906101000a900473ffffffffffffffffffffffffffffffffffffffff169050815f5f6101000a81548173ffffffffffffffffffffffffffffffffffffffff021916908373ffffffffffffffffffffffffffffffffffffffff1602179055508173ffffffffffffffffffffffffffffffffffffffff168173ffffffffffffffffffffffffffffffffffffffff167f8be0079c531659141344cd1fd0a4f28419497f9722a3daafe3b4186f6b6457e060405160405180910390a35050565b5f604051905090565b5f5ffd5b5f5ffd5b5f73ffffffffffffffffffffffffffffffffffffffff82169050919050565b5f61022e82610205565b9050919050565b61023e81610224565b8114610248575f5ffd5b50565b5f8151905061025981610235565b92915050565b5f5ffd5b5f5ffd5b5f601f19601f8301169050919050565b7f4e487b71000000000000000000000000000000000000000000000000000000005f52604160045260245ffd5b6102ad82610267565b810181811067ffffffffffffffff821117156102cc576102cb610277565b5b80604052505050565b5f6102de6101f4565b90506102ea82826102a4565b919050565b5f67ffffffffffffffff82111561030957610308610277565b5b61031282610267565b9050602081019050919050565b8281835e5f83830152505050565b5f61033f61033a846102ef565b6102d5565b90508281526020810184848401111561035b5761035a610263565b5b61036684828561031f565b509392505050565b5f82601f8301126103825761038161025f565b5b815161039284826020860161032d565b91505092915050565b5f5f5f5f608085870312156103b3576103b26101fd565b5b5f6103c08782880161024b565b94505060206103d18782880161024b565b93505060406103e28782880161024b565b925050606085015167ffffffffffffffff81111561040357610402610201565b5b61040f8782880161036e565b91505092959194509250565b61042481610224565b82525050565b5f60208201905061043d5f83018461041b565b92915050565b5f81519050919050565b7f4e487b71000000000000000000000000000000000000000000000000000000005f52602260045260245ffd5b5f600282049050600182168061049157607f821691505b6020821081036104a4576104a361044d565b5b50919050565b5f819050815f5260205f209050919050565b5f6020601f8301049050919050565b5f82821b905092915050565b5f600883026105067fffffffffffffffffffffffffffffffffffffffffffffffffffffffffffffffff826104cb565b61051086836104cb565b95508019841693508086168417925050509392505050565b5f819050919050565b5f819050919050565b5f61055461054f61054a84610528565b610531565b610528565b9050919050565b5f819050919050565b61056d8361053a565b6105816105798261055b565b8484546104d7565b825550505050565b5f5f905090565b610598610589565b6105a3818484610564565b505050565b5b818110156105c6576105bb5f82610590565b6001810190506105a9565b5050565b601f82111561060b576105dc816104aa565b6105e5846104bc565b810160208510156105f4578190505b610608610600856104bc565b8301826105a8565b50505b505050565b5f82821c905092915050565b5f61062b5f1984600802610610565b1980831691505092915050565b5f610643838361061c565b9150826002028217905092915050565b61065c82610443565b67ffffffffffffffff81111561067557610674610277565b5b61067f825461047a565b61068a8282856105ca565b5f60209050601f8311600181146106bb575f84156106a9578287015190505b6106b38582610638565b86555061071a565b601f1984166106c9866104aa565b5f5b828110156106f0578489015182556001820191506020850194506020810190506106cb565b8683101561070d5784890151610709601f89168261061c565b8355505b6001600288020188555050505b505050505050565b60805160a051612b1861075f5f395f81816109f50152818161108301528181611677015261170501525f81816102d901526117290152612b185ff3fe608060405234801561000f575f5ffd5b50600436106100b1575f3560e01c80638e27d7191161006f5780638e27d71914610177578063a4702f0314610193578063b5f8558c146101af578063bf4d766e146101cd578063f139721c146101eb578063f2fde38b14610207576100b1565b8062dad7d4146100b557806305d09fb1146100d3578063240028e814610103578063715018a6146101335780637a9eceb41461013d5780638da5cb5b14610159575b5f5ffd5b6100bd610223565b6040516100ca9190611c22565b60405180910390f35b6100ed60048036038101906100e89190611d7f565b6102af565b6040516100fa9190611e05565b60405180910390f35b61011d60048036038101906101189190611e48565b6103cc565b60405161012a9190611e8d565b60405180910390f35b61013b6103e9565b005b61015760048036038101906101529190611f36565b6103fc565b005b610161610aea565b60405161016e9190611e05565b60405180910390f35b610191600480360381019061018c9190611fba565b610b11565b005b6101ad60048036038101906101a89190612017565b611176565b005b6101b7611703565b6040516101c491906120e3565b60405180910390f35b6101d5611727565b6040516101e2919061211c565b60405180910390f35b61020560048036038101906102009190612135565b61174b565b005b610221600480360381019061021c9190611e48565b611843565b005b60018054610230906121ad565b80601f016020809104026020016040519081016040528092919081815260200182805461025c906121ad565b80156102a75780601f1061027e576101008083540402835291602001916102a7565b820191905f5260205f20905b81548152906001019060200180831161028a57829003601f168201915b505050505081565b5f5f8260016040516020016102c59291906122f3565b60405160208183030381529060405290505f7f000000000000000000000000000000000000000000000000000000000000000073ffffffffffffffffffffffffffffffffffffffff166316f1adc1836040518263ffffffff1660e01b8152600401610330919061236b565b5f60405180830381865afa15801561034a573d5f5f3e3d5ffd5b505050506040513d5f823e3d601f19601f82011682018060405250810190610372919061243c565b90506014815110156103b9576040517f08c379a00000000000000000000000000000000000000000000000000000000081526004016103b0906124f3565b60405180910390fd5b5f60148201519050809350505050919050565b6002602052805f5260405f205f915054906101000a900460ff1681565b6103f16118c7565b6103fa5f61194e565b565b6104046118c7565b5f61045185858080601f0160208091040260200160405190810160405280939291908181526020018383808284375f81840152601f19601f820116905080830192505050505050506102af565b905060025f8273ffffffffffffffffffffffffffffffffffffffff1673ffffffffffffffffffffffffffffffffffffffff1681526020019081526020015f205f9054906101000a900460ff166104dc576040517f08c379a00000000000000000000000000000000000000000000000000000000081526004016104d39061255b565b60405180910390fd5b61050786848373ffffffffffffffffffffffffffffffffffffffff16611a0f9092919063ffffffff16565b5f600667ffffffffffffffff81111561052357610522611c5b565b5b60405190808252806020026020018201604052801561055c57816020015b610549611b91565b8152602001906001900390816105415790505b50905060405180606001604052806040518060400160405280600481526020017f757365720000000000000000000000000000000000000000000000000000000081525081526020016040518060400160405280600781526020017f61646472657373000000000000000000000000000000000000000000000000008152508152602001886040516020016105f19190611e05565b604051602081830303815290604052815250815f8151811061061657610615612579565b5b602002602001018190525060405180606001604052806040518060400160405280600681526020017f616d6f756e74000000000000000000000000000000000000000000000000000081525081526020016040518060400160405280600781526020017f75696e74323536000000000000000000000000000000000000000000000000008152508152602001856040516020016106b391906125b5565b604051602081830303815290604052815250816001815181106106d9576106d8612579565b5b602002602001018190525060405180606001604052806040518060400160405280600581526020017f746f6b656e00000000000000000000000000000000000000000000000000000081525081526020016040518060400160405280600681526020017f737472696e670000000000000000000000000000000000000000000000000000815250815260200187876040516020016107789291906125fa565b6040516020818303038152906040528152508160028151811061079e5761079d612579565b5b602002602001018190525060405180606001604052806040518060400160405280600881526020017f70726f766964657200000000000000000000000000000000000000000000000081525081526020016040518060400160405280600681526020017f737472696e6700000000000000000000000000000000000000000000000000008152508152602001600160405160200161083c919061269d565b6040516020818303038152906040528152508160038151811061086257610861612579565b5b602002602001018190525060405180606001604052806040518060400160405280600981526020017f6e756c6c6966696572000000000000000000000000000000000000000000000081525081526020016040518060400160405280600781526020017f75696e74323536000000000000000000000000000000000000000000000000008152508152602001846040516020016108ff91906125b5565b6040516020818303038152906040528152508160048151811061092557610924612579565b5b602002602001018190525060405180606001604052806040518060400160405280600981526020017f74696d657374616d70000000000000000000000000000000000000000000000081525081526020016040518060400160405280600781526020017f75696e74323536000000000000000000000000000000000000000000000000008152508152602001426040516020016109c291906125b5565b604051602081830303815290604052815250816005815181106109e8576109e7612579565b5b60200260200101819052507f000000000000000000000000000000000000000000000000000000000000000073ffffffffffffffffffffffffffffffffffffffff16637d64fa9b826040518263ffffffff1660e01b8152600401610a4c91906128b7565b5f604051808303815f87803b158015610a63575f5ffd5b505af1158015610a75573d5f5f3e3d5ffd5b505050508173ffffffffffffffffffffffffffffffffffffffff168773ffffffffffffffffffffffffffffffffffffffff167fcc4f8702356931e6d23a93d1b60beac6a7ea77d447ada4b1502a09d0b7125709866001604051610ad99291906128ea565b60405180910390a350505050505050565b5f5f5f9054906101000a900473ffffffffffffffffffffffffffffffffffffffff16905090565b5f610b5e84848080601f0160208091040260200160405190810160405280939291908181526020018383808284375f81840152601f19601f820116905080830192505050505050506102af565b905060025f8273ffffffffffffffffffffffffffffffffffffffff1673ffffffffffffffffffffffffffffffffffffffff1681526020019081526020015f205f9054906101000a900460ff16610be9576040517f08c379a0000000000000000000000000000000000000000000000000000000008152600401610be09061255b565b60405180910390fd5b5f8211610c2b576040517f08c379a0000000000000000000000000000000000000000000000000000000008152600401610c2290612962565b60405180910390fd5b610c583330848473ffffffffffffffffffffffffffffffffffffffff16611a62909392919063ffffffff16565b5f600567ffffffffffffffff811115610c7457610c73611c5b565b5b604051908082528060200260200182016040528015610cad57816020015b610c9a611b91565b815260200190600190039081610c925790505b50905060405180606001604052806040518060400160405280600481526020017f757365720000000000000000000000000000000000000000000000000000000081525081526020016040518060400160405280600781526020017f6164647265737300000000000000000000000000000000000000000000000000815250815260200133604051602001610d429190611e05565b604051602081830303815290604052815250815f81518110610d6757610d66612579565b5b602002602001018190525060405180606001604052806040518060400160405280600681526020017f616d6f756e74000000000000000000000000000000000000000000000000000081525081526020016040518060400160405280600781526020017f75696e7432353600000000000000000000000000000000000000000000000000815250815260200184604051602001610e0491906125b5565b60405160208183030381529060405281525081600181518110610e2a57610e29612579565b5b602002602001018190525060405180606001604052806040518060400160405280600581526020017f746f6b656e00000000000000000000000000000000000000000000000000000081525081526020016040518060400160405280600681526020017f737472696e67000000000000000000000000000000000000000000000000000081525081526020018686604051602001610ec99291906125fa565b60405160208183030381529060405281525081600281518110610eef57610eee612579565b5b602002602001018190525060405180606001604052806040518060400160405280600881526020017f70726f766964657200000000000000000000000000000000000000000000000081525081526020016040518060400160405280600681526020017f737472696e67000000000000000000000000000000000000000000000000000081525081526020016001604051602001610f8d919061269d565b60405160208183030381529060405281525081600381518110610fb357610fb2612579565b5b602002602001018190525060405180606001604052806040518060400160405280600981526020017f74696d657374616d70000000000000000000000000000000000000000000000081525081526020016040518060400160405280600781526020017f75696e743235360000000000000000000000000000000000000000000000000081525081526020014260405160200161105091906125b5565b6040516020818303038152906040528152508160048151811061107657611075612579565b5b60200260200101819052507f000000000000000000000000000000000000000000000000000000000000000073ffffffffffffffffffffffffffffffffffffffff16637d64fa9b826040518263ffffffff1660e01b81526004016110da91906129ca565b5f604051808303815f87803b1580156110f1575f5ffd5b505af1158015611103573d5f5f3e3d5ffd5b505050508173ffffffffffffffffffffffffffffffffffffffff163373ffffffffffffffffffffffffffffffffffffffff167fef519b7eb82aaf6ac376a6df2d793843ebfd593de5f1a0601d3cc6ab49ebb3958560016040516111679291906128ea565b60405180910390a35050505050565b5f6111c384848080601f0160208091040260200160405190810160405280939291908181526020018383808284375f81840152601f19601f820116905080830192505050505050506102af565b905060025f8273ffffffffffffffffffffffffffffffffffffffff1673ffffffffffffffffffffffffffffffffffffffff1681526020019081526020015f205f9054906101000a900460ff1661124e576040517f08c379a00000000000000000000000000000000000000000000000000000000081526004016112459061255b565b60405180910390fd5b5f600567ffffffffffffffff81111561126a57611269611c5b565b5b6040519080825280602002602001820160405280156112a357816020015b611290611b91565b8152602001906001900390816112885790505b50905060405180606001604052806040518060400160405280600481526020017f757365720000000000000000000000000000000000000000000000000000000081525081526020016040518060400160405280600781526020017f61646472657373000000000000000000000000000000000000000000000000008152508152602001876040516020016113389190611e05565b604051602081830303815290604052815250815f8151811061135d5761135c612579565b5b602002602001018190525060405180606001604052806040518060400160405280600681526020017f616d6f756e74000000000000000000000000000000000000000000000000000081525081526020016040518060400160405280600781526020017f75696e74323536000000000000000000000000000000000000000000000000008152508152602001846040516020016113fa91906125b5565b604051602081830303815290604052815250816001815181106114205761141f612579565b5b602002602001018190525060405180606001604052806040518060400160405280600581526020017f636861696e00000000000000000000000000000000000000000000000000000081525081526020016040518060400160405280600681526020017f737472696e67000000000000000000000000000000000000000000000000000081525081526020016040516020016114bb90612a47565b604051602081830303815290604052815250816002815181106114e1576114e0612579565b5b602002602001018190525060405180606001604052806040518060400160405280600881526020017f70726f766964657200000000000000000000000000000000000000000000000081525081526020016040518060400160405280600681526020017f737472696e6700000000000000000000000000000000000000000000000000008152508152602001600160405160200161157f919061269d565b604051602081830303815290604052815250816003815181106115a5576115a4612579565b5b602002602001018190525060405180606001604052806040518060400160405280600581526020017f746f6b656e00000000000000000000000000000000000000000000000000000081525081526020016040518060400160405280600681526020017f737472696e670000000000000000000000000000000000000000000000000000815250815260200186866040516020016116449291906125fa565b6040516020818303038152906040528152508160048151811061166a57611669612579565b5b60200260200101819052507f000000000000000000000000000000000000000000000000000000000000000073ffffffffffffffffffffffffffffffffffffffff16637d64fa9b826040518263ffffffff1660e01b81526004016116ce9190612aaf565b5f604051808303815f87803b1580156116e5575f5ffd5b505af11580156116f7573d5f5f3e3d5ffd5b50505050505050505050565b7f000000000000000000000000000000000000000000000000000000000000000081565b7f000000000000000000000000000000000000000000000000000000000000000081565b5f61179883838080601f0160208091040260200160405190810160405280939291908181526020018383808284375f81840152601f19601f820116905080830192505050505050506102af565b9050600160025f8373ffffffffffffffffffffffffffffffffffffffff1673ffffffffffffffffffffffffffffffffffffffff1681526020019081526020015f205f6101000a81548160ff0219169083151502179055508073ffffffffffffffffffffffffffffffffffffffff167fd57b1148efb91f418a2178fc1fb4ba12f9400a4dc8e71851fd59e85d337c609f6001604051611836919061269d565b60405180910390a2505050565b61184b6118c7565b5f73ffffffffffffffffffffffffffffffffffffffff168173ffffffffffffffffffffffffffffffffffffffff16036118bb575f6040517f1e4fbdf70000000000000000000000000000000000000000000000000000000081526004016118b29190611e05565b60405180910390fd5b6118c48161194e565b50565b6118cf611ab7565b73ffffffffffffffffffffffffffffffffffffffff166118ed610aea565b73ffffffffffffffffffffffffffffffffffffffff161461194c57611910611ab7565b6040517f118cdaa70000000000000000000000000000000000000000000000000000000081526004016119439190611e05565b60405180910390fd5b565b5f5f5f9054906101000a900473ffffffffffffffffffffffffffffffffffffffff169050815f5f6101000a81548173ffffffffffffffffffffffffffffffffffffffff021916908373ffffffffffffffffffffffffffffffffffffffff1602179055508173ffffffffffffffffffffffffffffffffffffffff168173ffffffffffffffffffffffffffffffffffffffff167f8be0079c531659141344cd1fd0a4f28419497f9722a3daafe3b4186f6b6457e060405160405180910390a35050565b611a1c8383836001611abe565b611a5d57826040517f5274afe7000000000000000000000000000000000000000000000000000000008152600401611a549190611e05565b60405180910390fd5b505050565b611a70848484846001611b20565b611ab157836040517f5274afe7000000000000000000000000000000000000000000000000000000008152600401611aa89190611e05565b60405180910390fd5b50505050565b5f33905090565b5f5f63a9059cbb60e01b9050604051815f525f1960601c86166004528460245260205f60445f5f8b5af1925060015f51148316611b12578383151615611b06573d5f823e3d81fd5b5f873b113d1516831692505b806040525050949350505050565b5f5f6323b872dd60e01b9050604051815f525f1960601c87166004525f1960601c86166024528460445260205f60645f5f8c5af1925060015f51148316611b7e578383151615611b72573d5f823e3d81fd5b5f883b113d1516831692505b806040525f606052505095945050505050565b60405180606001604052806060815260200160608152602001606081525090565b5f81519050919050565b5f82825260208201905092915050565b8281835e5f83830152505050565b5f601f19601f8301169050919050565b5f611bf482611bb2565b611bfe8185611bbc565b9350611c0e818560208601611bcc565b611c1781611bda565b840191505092915050565b5f6020820190508181035f830152611c3a8184611bea565b905092915050565b5f604051905090565b5f5ffd5b5f5ffd5b5f5ffd5b5f5ffd5b7f4e487b71000000000000000000000000000000000000000000000000000000005f52604160045260245ffd5b611c9182611bda565b810181811067ffffffffffffffff82111715611cb057611caf611c5b565b5b80604052505050565b5f611cc2611c42565b9050611cce8282611c88565b919050565b5f67ffffffffffffffff821115611ced57611cec611c5b565b5b611cf682611bda565b9050602081019050919050565b828183375f83830152505050565b5f611d23611d1e84611cd3565b611cb9565b905082815260208101848484011115611d3f57611d3e611c57565b5b611d4a848285611d03565b509392505050565b5f82601f830112611d6657611d65611c53565b5b8135611d76848260208601611d11565b91505092915050565b5f60208284031215611d9457611d93611c4b565b5b5f82013567ffffffffffffffff811115611db157611db0611c4f565b5b611dbd84828501611d52565b91505092915050565b5f73ffffffffffffffffffffffffffffffffffffffff82169050919050565b5f611def82611dc6565b9050919050565b611dff81611de5565b82525050565b5f602082019050611e185f830184611df6565b92915050565b611e2781611de5565b8114611e31575f5ffd5b50565b5f81359050611e4281611e1e565b92915050565b5f60208284031215611e5d57611e5c611c4b565b5b5f611e6a84828501611e34565b91505092915050565b5f8115159050919050565b611e8781611e73565b82525050565b5f602082019050611ea05f830184611e7e565b92915050565b5f5ffd5b5f5ffd5b5f5f83601f840112611ec357611ec2611c53565b5b8235905067ffffffffffffffff811115611ee057611edf611ea6565b5b602083019150836001820283011115611efc57611efb611eaa565b5b9250929050565b5f819050919050565b611f1581611f03565b8114611f1f575f5ffd5b50565b5f81359050611f3081611f0c565b92915050565b5f5f5f5f5f60808688031215611f4f57611f4e611c4b565b5b5f611f5c88828901611e34565b955050602086013567ffffffffffffffff811115611f7d57611f7c611c4f565b5b611f8988828901611eae565b94509450506040611f9c88828901611f22565b9250506060611fad88828901611f22565b9150509295509295909350565b5f5f5f60408486031215611fd157611fd0611c4b565b5b5f84013567ffffffffffffffff811115611fee57611fed611c4f565b5b611ffa86828701611eae565b9350935050602061200d86828701611f22565b9150509250925092565b5f5f5f5f6060858703121561202f5761202e611c4b565b5b5f61203c87828801611e34565b945050602085013567ffffffffffffffff81111561205d5761205c611c4f565b5b61206987828801611eae565b9350935050604061207c87828801611f22565b91505092959194509250565b5f819050919050565b5f6120ab6120a66120a184611dc6565b612088565b611dc6565b9050919050565b5f6120bc82612091565b9050919050565b5f6120cd826120b2565b9050919050565b6120dd816120c3565b82525050565b5f6020820190506120f65f8301846120d4565b92915050565b5f612106826120b2565b9050919050565b612116816120fc565b82525050565b5f60208201905061212f5f83018461210d565b92915050565b5f5f6020838503121561214b5761214a611c4b565b5b5f83013567ffffffffffffffff81111561216857612167611c4f565b5b61217485828601611eae565b92509250509250929050565b7f4e487b71000000000000000000000000000000000000000000000000000000005f52602260045260245ffd5b5f60028204905060018216806121c457607f821691505b6020821081036121d7576121d6612180565b5b50919050565b5f81905092915050565b5f6121f182611bb2565b6121fb81856121dd565b935061220b818560208601611bcc565b80840191505092915050565b7f5f000000000000000000000000000000000000000000000000000000000000005f82015250565b5f61224b6001836121dd565b915061225682612217565b600182019050919050565b5f819050815f5260205f209050919050565b5f815461227f816121ad565b61228981866121dd565b9450600182165f81146122a357600181146122b8576122ea565b60ff19831686528115158202860193506122ea565b6122c185612261565b5f5b838110156122e2578154818901526001820191506020810190506122c3565b838801955050505b50505092915050565b5f6122fe82856121e7565b91506123098261223f565b91506123158284612273565b91508190509392505050565b7f51696172614d6f6e6164417373657473000000000000000000000000000000005f82015250565b5f612355601083611bbc565b915061236082612321565b602082019050919050565b5f6040820190508181035f83015261238281612349565b905081810360208301526123968184611bea565b905092915050565b5f67ffffffffffffffff8211156123b8576123b7611c5b565b5b6123c182611bda565b9050602081019050919050565b5f6123e06123db8461239e565b611cb9565b9050828152602081018484840111156123fc576123fb611c57565b5b612407848285611bcc565b509392505050565b5f82601f83011261242357612422611c53565b5b81516124338482602086016123ce565b91505092915050565b5f6020828403121561245157612450611c4b565b5b5f82015167ffffffffffffffff81111561246e5761246d611c4f565b5b61247a8482850161240f565b91505092915050565b7f5661756c743a204173736574206e6f7420666f756e6420696e207265676973745f8201527f7279000000000000000000000000000000000000000000000000000000000000602082015250565b5f6124dd602283611bbc565b91506124e882612483565b604082019050919050565b5f6020820190508181035f83015261250a816124d1565b9050919050565b7f5661756c743a20546f6b656e206e6f7420737570706f727465640000000000005f82015250565b5f612545601a83611bbc565b915061255082612511565b602082019050919050565b5f6020820190508181035f83015261257281612539565b9050919050565b7f4e487b71000000000000000000000000000000000000000000000000000000005f52603260045260245ffd5b6125af81611f03565b82525050565b5f6020820190506125c85f8301846125a6565b92915050565b5f6125d98385611bbc565b93506125e6838584611d03565b6125ef83611bda565b840190509392505050565b5f6020820190508181035f8301526126138184866125ce565b90509392505050565b5f8154612628816121ad565b6126328186611bbc565b9450600182165f811461264c576001811461266257612694565b60ff198316865281151560200286019350612694565b61266b85612261565b5f5b8381101561268c5781548189015260018201915060208101905061266d565b808801955050505b50505092915050565b5f6020820190508181035f8301526126b5818461261c565b905092915050565b7f44697265637420576974686472617700000000000000000000000000000000005f82015250565b5f6126f1600f83611bbc565b91506126fc826126bd565b602082019050919050565b5f81519050919050565b5f82825260208201905092915050565b5f819050602082019050919050565b5f82825260208201905092915050565b5f61274a82611bb2565b6127548185612730565b9350612764818560208601611bcc565b61276d81611bda565b840191505092915050565b5f81519050919050565b5f82825260208201905092915050565b5f61279c82612778565b6127a68185612782565b93506127b6818560208601611bcc565b6127bf81611bda565b840191505092915050565b5f606083015f8301518482035f8601526127e48282612740565b915050602083015184820360208601526127fe8282612740565b915050604083015184820360408601526128188282612792565b9150508091505092915050565b5f61283083836127ca565b905092915050565b5f602082019050919050565b5f61284e82612707565b6128588185612711565b93508360208202850161286a85612721565b805f5b858110156128a557848403895281516128868582612825565b945061289183612838565b925060208a0199505060018101905061286d565b50829750879550505050505092915050565b5f6040820190508181035f8301526128ce816126e5565b905081810360208301526128e28184612844565b905092915050565b5f6040820190506128fd5f8301856125a6565b818103602083015261290f818461261c565b90509392505050565b7f5661756c743a204465706f736974206d757374206265203e20300000000000005f82015250565b5f61294c601a83611bbc565b915061295782612918565b602082019050919050565b5f6020820190508181035f83015261297981612940565b9050919050565b7f4465706f736974000000000000000000000000000000000000000000000000005f82015250565b5f6129b4600783611bbc565b91506129bf82612980565b602082019050919050565b5f6040820190508181035f8301526129e1816129a8565b905081810360208301526129f58184612844565b905092915050565b7f62617365000000000000000000000000000000000000000000000000000000005f82015250565b5f612a31600483611bbc565b9150612a3c826129fd565b602082019050919050565b5f6020820190508181035f830152612a5e81612a25565b9050919050565b7f4d6f64756c6172205769746864726177000000000000000000000000000000005f82015250565b5f612a99601083611bbc565b9150612aa482612a65565b602082019050919050565b5f6040820190508181035f830152612ac681612a8d565b90508181036020830152612ada8184612844565b90509291505056fea264697066735822122018fc2ce3cba2a1f7b1b34f316afb1bfcf35787ac6fa0dc5aec6de32dda80aa8264736f6c634300081f0033",
					"opcodes": "PUSH1 0xC0 PUSH1 0x40 MSTORE CALLVALUE DUP1 ISZERO PUSH2 0xF JUMPI PUSH0 PUSH0 REVERT JUMPDEST POP PUSH1 0x40 MLOAD PUSH2 0x3277 CODESIZE SUB DUP1 PUSH2 0x3277 DUP4 CODECOPY DUP2 DUP2 ADD PUSH1 0x40 MSTORE DUP2 ADD SWAP1 PUSH2 0x31 SWAP2 SWAP1 PUSH2 0x39B JUMP JUMPDEST DUP2 PUSH0 PUSH20 0xFFFFFFFFFFFFFFFFFFFFFFFFFFFFFFFFFFFFFFFF AND DUP2 PUSH20 0xFFFFFFFFFFFFFFFFFFFFFFFFFFFFFFFFFFFFFFFF AND SUB PUSH2 0xA2 JUMPI PUSH0 PUSH1 0x40 MLOAD PUSH32 0x1E4FBDF700000000000000000000000000000000000000000000000000000000 DUP2 MSTORE PUSH1 0x4 ADD PUSH2 0x99 SWAP2 SWAP1 PUSH2 0x42A JUMP JUMPDEST PUSH1 0x40 MLOAD DUP1 SWAP2 SUB SWAP1 REVERT JUMPDEST PUSH2 0xB1 DUP2 PUSH2 0x133 PUSH1 0x20 SHL PUSH1 0x20 SHR JUMP JUMPDEST POP DUP4 PUSH20 0xFFFFFFFFFFFFFFFFFFFFFFFFFFFFFFFFFFFFFFFF AND PUSH1 0xA0 DUP2 PUSH20 0xFFFFFFFFFFFFFFFFFFFFFFFFFFFFFFFFFFFFFFFF AND DUP2 MSTORE POP POP DUP3 PUSH20 0xFFFFFFFFFFFFFFFFFFFFFFFFFFFFFFFFFFFFFFFF AND PUSH1 0x80 DUP2 PUSH20 0xFFFFFFFFFFFFFFFFFFFFFFFFFFFFFFFFFFFFFFFF AND DUP2 MSTORE POP POP DUP1 PUSH1 0x1 SWAP1 DUP2 PUSH2 0x129 SWAP2 SWAP1 PUSH2 0x653 JUMP JUMPDEST POP POP POP POP POP PUSH2 0x722 JUMP JUMPDEST PUSH0 PUSH0 PUSH0 SWAP1 SLOAD SWAP1 PUSH2 0x100 EXP SWAP1 DIV PUSH20 0xFFFFFFFFFFFFFFFFFFFFFFFFFFFFFFFFFFFFFFFF AND SWAP1 POP DUP2 PUSH0 PUSH0 PUSH2 0x100 EXP DUP2 SLOAD DUP2 PUSH20 0xFFFFFFFFFFFFFFFFFFFFFFFFFFFFFFFFFFFFFFFF MUL NOT AND SWAP1 DUP4 PUSH20 0xFFFFFFFFFFFFFFFFFFFFFFFFFFFFFFFFFFFFFFFF AND MUL OR SWAP1 SSTORE POP DUP2 PUSH20 0xFFFFFFFFFFFFFFFFFFFFFFFFFFFFFFFFFFFFFFFF AND DUP2 PUSH20 0xFFFFFFFFFFFFFFFFFFFFFFFFFFFFFFFFFFFFFFFF AND PUSH32 0x8BE0079C531659141344CD1FD0A4F28419497F9722A3DAAFE3B4186F6B6457E0 PUSH1 0x40 MLOAD PUSH1 0x40 MLOAD DUP1 SWAP2 SUB SWAP1 LOG3 POP POP JUMP JUMPDEST PUSH0 PUSH1 0x40 MLOAD SWAP1 POP SWAP1 JUMP JUMPDEST PUSH0 PUSH0 REVERT JUMPDEST PUSH0 PUSH0 REVERT JUMPDEST PUSH0 PUSH20 0xFFFFFFFFFFFFFFFFFFFFFFFFFFFFFFFFFFFFFFFF DUP3 AND SWAP1 POP SWAP2 SWAP1 POP JUMP JUMPDEST PUSH0 PUSH2 0x22E DUP3 PUSH2 0x205 JUMP JUMPDEST SWAP1 POP SWAP2 SWAP1 POP JUMP JUMPDEST PUSH2 0x23E DUP2 PUSH2 0x224 JUMP JUMPDEST DUP2 EQ PUSH2 0x248 JUMPI PUSH0 PUSH0 REVERT JUMPDEST POP JUMP JUMPDEST PUSH0 DUP2 MLOAD SWAP1 POP PUSH2 0x259 DUP2 PUSH2 0x235 JUMP JUMPDEST SWAP3 SWAP2 POP POP JUMP JUMPDEST PUSH0 PUSH0 REVERT JUMPDEST PUSH0 PUSH0 REVERT JUMPDEST PUSH0 PUSH1 0x1F NOT PUSH1 0x1F DUP4 ADD AND SWAP1 POP SWAP2 SWAP1 POP JUMP JUMPDEST PUSH32 0x4E487B7100000000000000000000000000000000000000000000000000000000 PUSH0 MSTORE PUSH1 0x41 PUSH1 0x4 MSTORE PUSH1 0x24 PUSH0 REVERT JUMPDEST PUSH2 0x2AD DUP3 PUSH2 0x267 JUMP JUMPDEST DUP2 ADD DUP2 DUP2 LT PUSH8 0xFFFFFFFFFFFFFFFF DUP3 GT OR ISZERO PUSH2 0x2CC JUMPI PUSH2 0x2CB PUSH2 0x277 JUMP JUMPDEST JUMPDEST DUP1 PUSH1 0x40 MSTORE POP POP POP JUMP JUMPDEST PUSH0 PUSH2 0x2DE PUSH2 0x1F4 JUMP JUMPDEST SWAP1 POP PUSH2 0x2EA DUP3 DUP3 PUSH2 0x2A4 JUMP JUMPDEST SWAP2 SWAP1 POP JUMP JUMPDEST PUSH0 PUSH8 0xFFFFFFFFFFFFFFFF DUP3 GT ISZERO PUSH2 0x309 JUMPI PUSH2 0x308 PUSH2 0x277 JUMP JUMPDEST JUMPDEST PUSH2 0x312 DUP3 PUSH2 0x267 JUMP JUMPDEST SWAP1 POP PUSH1 0x20 DUP2 ADD SWAP1 POP SWAP2 SWAP1 POP JUMP JUMPDEST DUP3 DUP2 DUP4 MCOPY PUSH0 DUP4 DUP4 ADD MSTORE POP POP POP JUMP JUMPDEST PUSH0 PUSH2 0x33F PUSH2 0x33A DUP5 PUSH2 0x2EF JUMP JUMPDEST PUSH2 0x2D5 JUMP JUMPDEST SWAP1 POP DUP3 DUP2 MSTORE PUSH1 0x20 DUP2 ADD DUP5 DUP5 DUP5 ADD GT ISZERO PUSH2 0x35B JUMPI PUSH2 0x35A PUSH2 0x263 JUMP JUMPDEST JUMPDEST PUSH2 0x366 DUP5 DUP3 DUP6 PUSH2 0x31F JUMP JUMPDEST POP SWAP4 SWAP3 POP POP POP JUMP JUMPDEST PUSH0 DUP3 PUSH1 0x1F DUP4 ADD SLT PUSH2 0x382 JUMPI PUSH2 0x381 PUSH2 0x25F JUMP JUMPDEST JUMPDEST DUP2 MLOAD PUSH2 0x392 DUP5 DUP3 PUSH1 0x20 DUP7 ADD PUSH2 0x32D JUMP JUMPDEST SWAP2 POP POP SWAP3 SWAP2 POP POP JUMP JUMPDEST PUSH0 PUSH0 PUSH0 PUSH0 PUSH1 0x80 DUP6 DUP8 SUB SLT ISZERO PUSH2 0x3B3 JUMPI PUSH2 0x3B2 PUSH2 0x1FD JUMP JUMPDEST JUMPDEST PUSH0 PUSH2 0x3C0 DUP8 DUP3 DUP9 ADD PUSH2 0x24B JUMP JUMPDEST SWAP5 POP POP PUSH1 0x20 PUSH2 0x3D1 DUP8 DUP3 DUP9 ADD PUSH2 0x24B JUMP JUMPDEST SWAP4 POP POP PUSH1 0x40 PUSH2 0x3E2 DUP8 DUP3 DUP9 ADD PUSH2 0x24B JUMP JUMPDEST SWAP3 POP POP PUSH1 0x60 DUP6 ADD MLOAD PUSH8 0xFFFFFFFFFFFFFFFF DUP2 GT ISZERO PUSH2 0x403 JUMPI PUSH2 0x402 PUSH2 0x201 JUMP JUMPDEST JUMPDEST PUSH2 0x40F DUP8 DUP3 DUP9 ADD PUSH2 0x36E JUMP JUMPDEST SWAP2 POP POP SWAP3 SWAP6 SWAP2 SWAP5 POP SWAP3 POP JUMP JUMPDEST PUSH2 0x424 DUP2 PUSH2 0x224 JUMP JUMPDEST DUP3 MSTORE POP POP JUMP JUMPDEST PUSH0 PUSH1 0x20 DUP3 ADD SWAP1 POP PUSH2 0x43D PUSH0 DUP4 ADD DUP5 PUSH2 0x41B JUMP JUMPDEST SWAP3 SWAP2 POP POP JUMP JUMPDEST PUSH0 DUP2 MLOAD SWAP1 POP SWAP2 SWAP1 POP JUMP JUMPDEST PUSH32 0x4E487B7100000000000000000000000000000000000000000000000000000000 PUSH0 MSTORE PUSH1 0x22 PUSH1 0x4 MSTORE PUSH1 0x24 PUSH0 REVERT JUMPDEST PUSH0 PUSH1 0x2 DUP3 DIV SWAP1 POP PUSH1 0x1 DUP3 AND DUP1 PUSH2 0x491 JUMPI PUSH1 0x7F DUP3 AND SWAP2 POP JUMPDEST PUSH1 0x20 DUP3 LT DUP2 SUB PUSH2 0x4A4 JUMPI PUSH2 0x4A3 PUSH2 0x44D JUMP JUMPDEST JUMPDEST POP SWAP2 SWAP1 POP JUMP JUMPDEST PUSH0 DUP2 SWAP1 POP DUP2 PUSH0 MSTORE PUSH1 0x20 PUSH0 KECCAK256 SWAP1 POP SWAP2 SWAP1 POP JUMP JUMPDEST PUSH0 PUSH1 0x20 PUSH1 0x1F DUP4 ADD DIV SWAP1 POP SWAP2 SWAP1 POP JUMP JUMPDEST PUSH0 DUP3 DUP3 SHL SWAP1 POP SWAP3 SWAP2 POP POP JUMP JUMPDEST PUSH0 PUSH1 0x8 DUP4 MUL PUSH2 0x506 PUSH32 0xFFFFFFFFFFFFFFFFFFFFFFFFFFFFFFFFFFFFFFFFFFFFFFFFFFFFFFFFFFFFFFFF DUP3 PUSH2 0x4CB JUMP JUMPDEST PUSH2 0x510 DUP7 DUP4 PUSH2 0x4CB JUMP JUMPDEST SWAP6 POP DUP1 NOT DUP5 AND SWAP4 POP DUP1 DUP7 AND DUP5 OR SWAP3 POP POP POP SWAP4 SWAP3 POP POP POP JUMP JUMPDEST PUSH0 DUP2 SWAP1 POP SWAP2 SWAP1 POP JUMP JUMPDEST PUSH0 DUP2 SWAP1 POP SWAP2 SWAP1 POP JUMP JUMPDEST PUSH0 PUSH2 0x554 PUSH2 0x54F PUSH2 0x54A DUP5 PUSH2 0x528 JUMP JUMPDEST PUSH2 0x531 JUMP JUMPDEST PUSH2 0x528 JUMP JUMPDEST SWAP1 POP SWAP2 SWAP1 POP JUMP JUMPDEST PUSH0 DUP2 SWAP1 POP SWAP2 SWAP1 POP JUMP JUMPDEST PUSH2 0x56D DUP4 PUSH2 0x53A JUMP JUMPDEST PUSH2 0x581 PUSH2 0x579 DUP3 PUSH2 0x55B JUMP JUMPDEST DUP5 DUP5 SLOAD PUSH2 0x4D7 JUMP JUMPDEST DUP3 SSTORE POP POP POP POP JUMP JUMPDEST PUSH0 PUSH0 SWAP1 POP SWAP1 JUMP JUMPDEST PUSH2 0x598 PUSH2 0x589 JUMP JUMPDEST PUSH2 0x5A3 DUP2 DUP5 DUP5 PUSH2 0x564 JUMP JUMPDEST POP POP POP JUMP JUMPDEST JUMPDEST DUP2 DUP2 LT ISZERO PUSH2 0x5C6 JUMPI PUSH2 0x5BB PUSH0 DUP3 PUSH2 0x590 JUMP JUMPDEST PUSH1 0x1 DUP2 ADD SWAP1 POP PUSH2 0x5A9 JUMP JUMPDEST POP POP JUMP JUMPDEST PUSH1 0x1F DUP3 GT ISZERO PUSH2 0x60B JUMPI PUSH2 0x5DC DUP2 PUSH2 0x4AA JUMP JUMPDEST PUSH2 0x5E5 DUP5 PUSH2 0x4BC JUMP JUMPDEST DUP2 ADD PUSH1 0x20 DUP6 LT ISZERO PUSH2 0x5F4 JUMPI DUP2 SWAP1 POP JUMPDEST PUSH2 0x608 PUSH2 0x600 DUP6 PUSH2 0x4BC JUMP JUMPDEST DUP4 ADD DUP3 PUSH2 0x5A8 JUMP JUMPDEST POP POP JUMPDEST POP POP POP JUMP JUMPDEST PUSH0 DUP3 DUP3 SHR SWAP1 POP SWAP3 SWAP2 POP POP JUMP JUMPDEST PUSH0 PUSH2 0x62B PUSH0 NOT DUP5 PUSH1 0x8 MUL PUSH2 0x610 JUMP JUMPDEST NOT DUP1 DUP4 AND SWAP2 POP POP SWAP3 SWAP2 POP POP JUMP JUMPDEST PUSH0 PUSH2 0x643 DUP4 DUP4 PUSH2 0x61C JUMP JUMPDEST SWAP2 POP DUP3 PUSH1 0x2 MUL DUP3 OR SWAP1 POP SWAP3 SWAP2 POP POP JUMP JUMPDEST PUSH2 0x65C DUP3 PUSH2 0x443 JUMP JUMPDEST PUSH8 0xFFFFFFFFFFFFFFFF DUP2 GT ISZERO PUSH2 0x675 JUMPI PUSH2 0x674 PUSH2 0x277 JUMP JUMPDEST JUMPDEST PUSH2 0x67F DUP3 SLOAD PUSH2 0x47A JUMP JUMPDEST PUSH2 0x68A DUP3 DUP3 DUP6 PUSH2 0x5CA JUMP JUMPDEST PUSH0 PUSH1 0x20 SWAP1 POP PUSH1 0x1F DUP4 GT PUSH1 0x1 DUP2 EQ PUSH2 0x6BB JUMPI PUSH0 DUP5 ISZERO PUSH2 0x6A9 JUMPI DUP3 DUP8 ADD MLOAD SWAP1 POP JUMPDEST PUSH2 0x6B3 DUP6 DUP3 PUSH2 0x638 JUMP JUMPDEST DUP7 SSTORE POP PUSH2 0x71A JUMP JUMPDEST PUSH1 0x1F NOT DUP5 AND PUSH2 0x6C9 DUP7 PUSH2 0x4AA JUMP JUMPDEST PUSH0 JUMPDEST DUP3 DUP2 LT ISZERO PUSH2 0x6F0 JUMPI DUP5 DUP10 ADD MLOAD DUP3 SSTORE PUSH1 0x1 DUP3 ADD SWAP2 POP PUSH1 0x20 DUP6 ADD SWAP5 POP PUSH1 0x20 DUP2 ADD SWAP1 POP PUSH2 0x6CB JUMP JUMPDEST DUP7 DUP4 LT ISZERO PUSH2 0x70D JUMPI DUP5 DUP10 ADD MLOAD PUSH2 0x709 PUSH1 0x1F DUP10 AND DUP3 PUSH2 0x61C JUMP JUMPDEST DUP4 SSTORE POP JUMPDEST PUSH1 0x1 PUSH1 0x2 DUP9 MUL ADD DUP9 SSTORE POP POP POP JUMPDEST POP POP POP POP POP POP JUMP JUMPDEST PUSH1 0x80 MLOAD PUSH1 0xA0 MLOAD PUSH2 0x2B18 PUSH2 0x75F PUSH0 CODECOPY PUSH0 DUP2 DUP2 PUSH2 0x9F5 ADD MSTORE DUP2 DUP2 PUSH2 0x1083 ADD MSTORE DUP2 DUP2 PUSH2 0x1677 ADD MSTORE PUSH2 0x1705 ADD MSTORE PUSH0 DUP2 DUP2 PUSH2 0x2D9 ADD MSTORE PUSH2 0x1729 ADD MSTORE PUSH2 0x2B18 PUSH0 RETURN INVALID PUSH1 0x80 PUSH1 0x40 MSTORE CALLVALUE DUP1 ISZERO PUSH2 0xF JUMPI PUSH0 PUSH0 REVERT JUMPDEST POP PUSH1 0x4 CALLDATASIZE LT PUSH2 0xB1 JUMPI PUSH0 CALLDATALOAD PUSH1 0xE0 SHR DUP1 PUSH4 0x8E27D719 GT PUSH2 0x6F JUMPI DUP1 PUSH4 0x8E27D719 EQ PUSH2 0x177 JUMPI DUP1 PUSH4 0xA4702F03 EQ PUSH2 0x193 JUMPI DUP1 PUSH4 0xB5F8558C EQ PUSH2 0x1AF JUMPI DUP1 PUSH4 0xBF4D766E EQ PUSH2 0x1CD JUMPI DUP1 PUSH4 0xF139721C EQ PUSH2 0x1EB JUMPI DUP1 PUSH4 0xF2FDE38B EQ PUSH2 0x207 JUMPI PUSH2 0xB1 JUMP JUMPDEST DUP1 PUSH3 0xDAD7D4 EQ PUSH2 0xB5 JUMPI DUP1 PUSH4 0x5D09FB1 EQ PUSH2 0xD3 JUMPI DUP1 PUSH4 0x240028E8 EQ PUSH2 0x103 JUMPI DUP1 PUSH4 0x715018A6 EQ PUSH2 0x133 JUMPI DUP1 PUSH4 0x7A9ECEB4 EQ PUSH2 0x13D JUMPI DUP1 PUSH4 0x8DA5CB5B EQ PUSH2 0x159 JUMPI JUMPDEST PUSH0 PUSH0 REVERT JUMPDEST PUSH2 0xBD PUSH2 0x223 JUMP JUMPDEST PUSH1 0x40 MLOAD PUSH2 0xCA SWAP2 SWAP1 PUSH2 0x1C22 JUMP JUMPDEST PUSH1 0x40 MLOAD DUP1 SWAP2 SUB SWAP1 RETURN JUMPDEST PUSH2 0xED PUSH1 0x4 DUP1 CALLDATASIZE SUB DUP2 ADD SWAP1 PUSH2 0xE8 SWAP2 SWAP1 PUSH2 0x1D7F JUMP JUMPDEST PUSH2 0x2AF JUMP JUMPDEST PUSH1 0x40 MLOAD PUSH2 0xFA SWAP2 SWAP1 PUSH2 0x1E05 JUMP JUMPDEST PUSH1 0x40 MLOAD DUP1 SWAP2 SUB SWAP1 RETURN JUMPDEST PUSH2 0x11D PUSH1 0x4 DUP1 CALLDATASIZE SUB DUP2 ADD SWAP1 PUSH2 0x118 SWAP2 SWAP1 PUSH2 0x1E48 JUMP JUMPDEST PUSH2 0x3CC JUMP JUMPDEST PUSH1 0x40 MLOAD PUSH2 0x12A SWAP2 SWAP1 PUSH2 0x1E8D JUMP JUMPDEST PUSH1 0x40 MLOAD DUP1 SWAP2 SUB SWAP1 RETURN JUMPDEST PUSH2 0x13B PUSH2 0x3E9 JUMP JUMPDEST STOP JUMPDEST PUSH2 0x157 PUSH1 0x4 DUP1 CALLDATASIZE SUB DUP2 ADD SWAP1 PUSH2 0x152 SWAP2 SWAP1 PUSH2 0x1F36 JUMP JUMPDEST PUSH2 0x3FC JUMP JUMPDEST STOP JUMPDEST PUSH2 0x161 PUSH2 0xAEA JUMP JUMPDEST PUSH1 0x40 MLOAD PUSH2 0x16E SWAP2 SWAP1 PUSH2 0x1E05 JUMP JUMPDEST PUSH1 0x40 MLOAD DUP1 SWAP2 SUB SWAP1 RETURN JUMPDEST PUSH2 0x191 PUSH1 0x4 DUP1 CALLDATASIZE SUB DUP2 ADD SWAP1 PUSH2 0x18C SWAP2 SWAP1 PUSH2 0x1FBA JUMP JUMPDEST PUSH2 0xB11 JUMP JUMPDEST STOP JUMPDEST PUSH2 0x1AD PUSH1 0x4 DUP1 CALLDATASIZE SUB DUP2 ADD SWAP1 PUSH2 0x1A8 SWAP2 SWAP1 PUSH2 0x2017 JUMP JUMPDEST PUSH2 0x1176 JUMP JUMPDEST STOP JUMPDEST PUSH2 0x1B7 PUSH2 0x1703 JUMP JUMPDEST PUSH1 0x40 MLOAD PUSH2 0x1C4 SWAP2 SWAP1 PUSH2 0x20E3 JUMP JUMPDEST PUSH1 0x40 MLOAD DUP1 SWAP2 SUB SWAP1 RETURN JUMPDEST PUSH2 0x1D5 PUSH2 0x1727 JUMP JUMPDEST PUSH1 0x40 MLOAD PUSH2 0x1E2 SWAP2 SWAP1 PUSH2 0x211C JUMP JUMPDEST PUSH1 0x40 MLOAD DUP1 SWAP2 SUB SWAP1 RETURN JUMPDEST PUSH2 0x205 PUSH1 0x4 DUP1 CALLDATASIZE SUB DUP2 ADD SWAP1 PUSH2 0x200 SWAP2 SWAP1 PUSH2 0x2135 JUMP JUMPDEST PUSH2 0x174B JUMP JUMPDEST STOP JUMPDEST PUSH2 0x221 PUSH1 0x4 DUP1 CALLDATASIZE SUB DUP2 ADD SWAP1 PUSH2 0x21C SWAP2 SWAP1 PUSH2 0x1E48 JUMP JUMPDEST PUSH2 0x1843 JUMP JUMPDEST STOP JUMPDEST PUSH1 0x1 DUP1 SLOAD PUSH2 0x230 SWAP1 PUSH2 0x21AD JUMP JUMPDEST DUP1 PUSH1 0x1F ADD PUSH1 0x20 DUP1 SWAP2 DIV MUL PUSH1 0x20 ADD PUSH1 0x40 MLOAD SWAP1 DUP2 ADD PUSH1 0x40 MSTORE DUP1 SWAP3 SWAP2 SWAP1 DUP2 DUP2 MSTORE PUSH1 0x20 ADD DUP3 DUP1 SLOAD PUSH2 0x25C SWAP1 PUSH2 0x21AD JUMP JUMPDEST DUP1 ISZERO PUSH2 0x2A7 JUMPI DUP1 PUSH1 0x1F LT PUSH2 0x27E JUMPI PUSH2 0x100 DUP1 DUP4 SLOAD DIV MUL DUP4 MSTORE SWAP2 PUSH1 0x20 ADD SWAP2 PUSH2 0x2A7 JUMP JUMPDEST DUP3 ADD SWAP2 SWAP1 PUSH0 MSTORE PUSH1 0x20 PUSH0 KECCAK256 SWAP1 JUMPDEST DUP2 SLOAD DUP2 MSTORE SWAP1 PUSH1 0x1 ADD SWAP1 PUSH1 0x20 ADD DUP1 DUP4 GT PUSH2 0x28A JUMPI DUP3 SWAP1 SUB PUSH1 0x1F AND DUP3 ADD SWAP2 JUMPDEST POP POP POP POP POP DUP2 JUMP JUMPDEST PUSH0 PUSH0 DUP3 PUSH1 0x1 PUSH1 0x40 MLOAD PUSH1 0x20 ADD PUSH2 0x2C5 SWAP3 SWAP2 SWAP1 PUSH2 0x22F3 JUMP JUMPDEST PUSH1 0x40 MLOAD PUSH1 0x20 DUP2 DUP4 SUB SUB DUP2 MSTORE SWAP1 PUSH1 0x40 MSTORE SWAP1 POP PUSH0 PUSH32 0x0 PUSH20 0xFFFFFFFFFFFFFFFFFFFFFFFFFFFFFFFFFFFFFFFF AND PUSH4 0x16F1ADC1 DUP4 PUSH1 0x40 MLOAD DUP3 PUSH4 0xFFFFFFFF AND PUSH1 0xE0 SHL DUP2 MSTORE PUSH1 0x4 ADD PUSH2 0x330 SWAP2 SWAP1 PUSH2 0x236B JUMP JUMPDEST PUSH0 PUSH1 0x40 MLOAD DUP1 DUP4 SUB DUP2 DUP7 GAS STATICCALL ISZERO DUP1 ISZERO PUSH2 0x34A JUMPI RETURNDATASIZE PUSH0 PUSH0 RETURNDATACOPY RETURNDATASIZE PUSH0 REVERT JUMPDEST POP POP POP POP PUSH1 0x40 MLOAD RETURNDATASIZE PUSH0 DUP3 RETURNDATACOPY RETURNDATASIZE PUSH1 0x1F NOT PUSH1 0x1F DUP3 ADD AND DUP3 ADD DUP1 PUSH1 0x40 MSTORE POP DUP2 ADD SWAP1 PUSH2 0x372 SWAP2 SWAP1 PUSH2 0x243C JUMP JUMPDEST SWAP1 POP PUSH1 0x14 DUP2 MLOAD LT ISZERO PUSH2 0x3B9 JUMPI PUSH1 0x40 MLOAD PUSH32 0x8C379A000000000000000000000000000000000000000000000000000000000 DUP2 MSTORE PUSH1 0x4 ADD PUSH2 0x3B0 SWAP1 PUSH2 0x24F3 JUMP JUMPDEST PUSH1 0x40 MLOAD DUP1 SWAP2 SUB SWAP1 REVERT JUMPDEST PUSH0 PUSH1 0x14 DUP3 ADD MLOAD SWAP1 POP DUP1 SWAP4 POP POP POP POP SWAP2 SWAP1 POP JUMP JUMPDEST PUSH1 0x2 PUSH1 0x20 MSTORE DUP1 PUSH0 MSTORE PUSH1 0x40 PUSH0 KECCAK256 PUSH0 SWAP2 POP SLOAD SWAP1 PUSH2 0x100 EXP SWAP1 DIV PUSH1 0xFF AND DUP2 JUMP JUMPDEST PUSH2 0x3F1 PUSH2 0x18C7 JUMP JUMPDEST PUSH2 0x3FA PUSH0 PUSH2 0x194E JUMP JUMPDEST JUMP JUMPDEST PUSH2 0x404 PUSH2 0x18C7 JUMP JUMPDEST PUSH0 PUSH2 0x451 DUP6 DUP6 DUP1 DUP1 PUSH1 0x1F ADD PUSH1 0x20 DUP1 SWAP2 DIV MUL PUSH1 0x20 ADD PUSH1 0x40 MLOAD SWAP1 DUP2 ADD PUSH1 0x40 MSTORE DUP1 SWAP4 SWAP3 SWAP2 SWAP1 DUP2 DUP2 MSTORE PUSH1 0x20 ADD DUP4 DUP4 DUP1 DUP3 DUP5 CALLDATACOPY PUSH0 DUP2 DUP5 ADD MSTORE PUSH1 0x1F NOT PUSH1 0x1F DUP3 ADD AND SWAP1 POP DUP1 DUP4 ADD SWAP3 POP POP POP POP POP POP POP PUSH2 0x2AF JUMP JUMPDEST SWAP1 POP PUSH1 0x2 PUSH0 DUP3 PUSH20 0xFFFFFFFFFFFFFFFFFFFFFFFFFFFFFFFFFFFFFFFF AND PUSH20 0xFFFFFFFFFFFFFFFFFFFFFFFFFFFFFFFFFFFFFFFF AND DUP2 MSTORE PUSH1 0x20 ADD SWAP1 DUP2 MSTORE PUSH1 0x20 ADD PUSH0 KECCAK256 PUSH0 SWAP1 SLOAD SWAP1 PUSH2 0x100 EXP SWAP1 DIV PUSH1 0xFF AND PUSH2 0x4DC JUMPI PUSH1 0x40 MLOAD PUSH32 0x8C379A000000000000000000000000000000000000000000000000000000000 DUP2 MSTORE PUSH1 0x4 ADD PUSH2 0x4D3 SWAP1 PUSH2 0x255B JUMP JUMPDEST PUSH1 0x40 MLOAD DUP1 SWAP2 SUB SWAP1 REVERT JUMPDEST PUSH2 0x507 DUP7 DUP5 DUP4 PUSH20 0xFFFFFFFFFFFFFFFFFFFFFFFFFFFFFFFFFFFFFFFF AND PUSH2 0x1A0F SWAP1 SWAP3 SWAP2 SWAP1 PUSH4 0xFFFFFFFF AND JUMP JUMPDEST PUSH0 PUSH1 0x6 PUSH8 0xFFFFFFFFFFFFFFFF DUP2 GT ISZERO PUSH2 0x523 JUMPI PUSH2 0x522 PUSH2 0x1C5B JUMP JUMPDEST JUMPDEST PUSH1 0x40 MLOAD SWAP1 DUP1 DUP3 MSTORE DUP1 PUSH1 0x20 MUL PUSH1 0x20 ADD DUP3 ADD PUSH1 0x40 MSTORE DUP1 ISZERO PUSH2 0x55C JUMPI DUP2 PUSH1 0x20 ADD JUMPDEST PUSH2 0x549 PUSH2 0x1B91 JUMP JUMPDEST DUP2 MSTORE PUSH1 0x20 ADD SWAP1 PUSH1 0x1 SWAP1 SUB SWAP1 DUP2 PUSH2 0x541 JUMPI SWAP1 POP JUMPDEST POP SWAP1 POP PUSH1 0x40 MLOAD DUP1 PUSH1 0x60 ADD PUSH1 0x40 MSTORE DUP1 PUSH1 0x40 MLOAD DUP1 PUSH1 0x40 ADD PUSH1 0x40 MSTORE DUP1 PUSH1 0x4 DUP2 MSTORE PUSH1 0x20 ADD PUSH32 0x7573657200000000000000000000000000000000000000000000000000000000 DUP2 MSTORE POP DUP2 MSTORE PUSH1 0x20 ADD PUSH1 0x40 MLOAD DUP1 PUSH1 0x40 ADD PUSH1 0x40 MSTORE DUP1 PUSH1 0x7 DUP2 MSTORE PUSH1 0x20 ADD PUSH32 0x6164647265737300000000000000000000000000000000000000000000000000 DUP2 MSTORE POP DUP2 MSTORE PUSH1 0x20 ADD DUP9 PUSH1 0x40 MLOAD PUSH1 0x20 ADD PUSH2 0x5F1 SWAP2 SWAP1 PUSH2 0x1E05 JUMP JUMPDEST PUSH1 0x40 MLOAD PUSH1 0x20 DUP2 DUP4 SUB SUB DUP2 MSTORE SWAP1 PUSH1 0x40 MSTORE DUP2 MSTORE POP DUP2 PUSH0 DUP2 MLOAD DUP2 LT PUSH2 0x616 JUMPI PUSH2 0x615 PUSH2 0x2579 JUMP JUMPDEST JUMPDEST PUSH1 0x20 MUL PUSH1 0x20 ADD ADD DUP2 SWAP1 MSTORE POP PUSH1 0x40 MLOAD DUP1 PUSH1 0x60 ADD PUSH1 0x40 MSTORE DUP1 PUSH1 0x40 MLOAD DUP1 PUSH1 0x40 ADD PUSH1 0x40 MSTORE DUP1 PUSH1 0x6 DUP2 MSTORE PUSH1 0x20 ADD PUSH32 0x616D6F756E740000000000000000000000000000000000000000000000000000 DUP2 MSTORE POP DUP2 MSTORE PUSH1 0x20 ADD PUSH1 0x40 MLOAD DUP1 PUSH1 0x40 ADD PUSH1 0x40 MSTORE DUP1 PUSH1 0x7 DUP2 MSTORE PUSH1 0x20 ADD PUSH32 0x75696E7432353600000000000000000000000000000000000000000000000000 DUP2 MSTORE POP DUP2 MSTORE PUSH1 0x20 ADD DUP6 PUSH1 0x40 MLOAD PUSH1 0x20 ADD PUSH2 0x6B3 SWAP2 SWAP1 PUSH2 0x25B5 JUMP JUMPDEST PUSH1 0x40 MLOAD PUSH1 0x20 DUP2 DUP4 SUB SUB DUP2 MSTORE SWAP1 PUSH1 0x40 MSTORE DUP2 MSTORE POP DUP2 PUSH1 0x1 DUP2 MLOAD DUP2 LT PUSH2 0x6D9 JUMPI PUSH2 0x6D8 PUSH2 0x2579 JUMP JUMPDEST JUMPDEST PUSH1 0x20 MUL PUSH1 0x20 ADD ADD DUP2 SWAP1 MSTORE POP PUSH1 0x40 MLOAD DUP1 PUSH1 0x60 ADD PUSH1 0x40 MSTORE DUP1 PUSH1 0x40 MLOAD DUP1 PUSH1 0x40 ADD PUSH1 0x40 MSTORE DUP1 PUSH1 0x5 DUP2 MSTORE PUSH1 0x20 ADD PUSH32 0x746F6B656E000000000000000000000000000000000000000000000000000000 DUP2 MSTORE POP DUP2 MSTORE PUSH1 0x20 ADD PUSH1 0x40 MLOAD DUP1 PUSH1 0x40 ADD PUSH1 0x40 MSTORE DUP1 PUSH1 0x6 DUP2 MSTORE PUSH1 0x20 ADD PUSH32 0x737472696E670000000000000000000000000000000000000000000000000000 DUP2 MSTORE POP DUP2 MSTORE PUSH1 0x20 ADD DUP8 DUP8 PUSH1 0x40 MLOAD PUSH1 0x20 ADD PUSH2 0x778 SWAP3 SWAP2 SWAP1 PUSH2 0x25FA JUMP JUMPDEST PUSH1 0x40 MLOAD PUSH1 0x20 DUP2 DUP4 SUB SUB DUP2 MSTORE SWAP1 PUSH1 0x40 MSTORE DUP2 MSTORE POP DUP2 PUSH1 0x2 DUP2 MLOAD DUP2 LT PUSH2 0x79E JUMPI PUSH2 0x79D PUSH2 0x2579 JUMP JUMPDEST JUMPDEST PUSH1 0x20 MUL PUSH1 0x20 ADD ADD DUP2 SWAP1 MSTORE POP PUSH1 0x40 MLOAD DUP1 PUSH1 0x60 ADD PUSH1 0x40 MSTORE DUP1 PUSH1 0x40 MLOAD DUP1 PUSH1 0x40 ADD PUSH1 0x40 MSTORE DUP1 PUSH1 0x8 DUP2 MSTORE PUSH1 0x20 ADD PUSH32 0x70726F7669646572000000000000000000000000000000000000000000000000 DUP2 MSTORE POP DUP2 MSTORE PUSH1 0x20 ADD PUSH1 0x40 MLOAD DUP1 PUSH1 0x40 ADD PUSH1 0x40 MSTORE DUP1 PUSH1 0x6 DUP2 MSTORE PUSH1 0x20 ADD PUSH32 0x737472696E670000000000000000000000000000000000000000000000000000 DUP2 MSTORE POP DUP2 MSTORE PUSH1 0x20 ADD PUSH1 0x1 PUSH1 0x40 MLOAD PUSH1 0x20 ADD PUSH2 0x83C SWAP2 SWAP1 PUSH2 0x269D JUMP JUMPDEST PUSH1 0x40 MLOAD PUSH1 0x20 DUP2 DUP4 SUB SUB DUP2 MSTORE SWAP1 PUSH1 0x40 MSTORE DUP2 MSTORE POP DUP2 PUSH1 0x3 DUP2 MLOAD DUP2 LT PUSH2 0x862 JUMPI PUSH2 0x861 PUSH2 0x2579 JUMP JUMPDEST JUMPDEST PUSH1 0x20 MUL PUSH1 0x20 ADD ADD DUP2 SWAP1 MSTORE POP PUSH1 0x40 MLOAD DUP1 PUSH1 0x60 ADD PUSH1 0x40 MSTORE DUP1 PUSH1 0x40 MLOAD DUP1 PUSH1 0x40 ADD PUSH1 0x40 MSTORE DUP1 PUSH1 0x9 DUP2 MSTORE PUSH1 0x20 ADD PUSH32 0x6E756C6C69666965720000000000000000000000000000000000000000000000 DUP2 MSTORE POP DUP2 MSTORE PUSH1 0x20 ADD PUSH1 0x40 MLOAD DUP1 PUSH1 0x40 ADD PUSH1 0x40 MSTORE DUP1 PUSH1 0x7 DUP2 MSTORE PUSH1 0x20 ADD PUSH32 0x75696E7432353600000000000000000000000000000000000000000000000000 DUP2 MSTORE POP DUP2 MSTORE PUSH1 0x20 ADD DUP5 PUSH1 0x40 MLOAD PUSH1 0x20 ADD PUSH2 0x8FF SWAP2 SWAP1 PUSH2 0x25B5 JUMP JUMPDEST PUSH1 0x40 MLOAD PUSH1 0x20 DUP2 DUP4 SUB SUB DUP2 MSTORE SWAP1 PUSH1 0x40 MSTORE DUP2 MSTORE POP DUP2 PUSH1 0x4 DUP2 MLOAD DUP2 LT PUSH2 0x925 JUMPI PUSH2 0x924 PUSH2 0x2579 JUMP JUMPDEST JUMPDEST PUSH1 0x20 MUL PUSH1 0x20 ADD ADD DUP2 SWAP1 MSTORE POP PUSH1 0x40 MLOAD DUP1 PUSH1 0x60 ADD PUSH1 0x40 MSTORE DUP1 PUSH1 0x40 MLOAD DUP1 PUSH1 0x40 ADD PUSH1 0x40 MSTORE DUP1 PUSH1 0x9 DUP2 MSTORE PUSH1 0x20 ADD PUSH32 0x74696D657374616D700000000000000000000000000000000000000000000000 DUP2 MSTORE POP DUP2 MSTORE PUSH1 0x20 ADD PUSH1 0x40 MLOAD DUP1 PUSH1 0x40 ADD PUSH1 0x40 MSTORE DUP1 PUSH1 0x7 DUP2 MSTORE PUSH1 0x20 ADD PUSH32 0x75696E7432353600000000000000000000000000000000000000000000000000 DUP2 MSTORE POP DUP2 MSTORE PUSH1 0x20 ADD TIMESTAMP PUSH1 0x40 MLOAD PUSH1 0x20 ADD PUSH2 0x9C2 SWAP2 SWAP1 PUSH2 0x25B5 JUMP JUMPDEST PUSH1 0x40 MLOAD PUSH1 0x20 DUP2 DUP4 SUB SUB DUP2 MSTORE SWAP1 PUSH1 0x40 MSTORE DUP2 MSTORE POP DUP2 PUSH1 0x5 DUP2 MLOAD DUP2 LT PUSH2 0x9E8 JUMPI PUSH2 0x9E7 PUSH2 0x2579 JUMP JUMPDEST JUMPDEST PUSH1 0x20 MUL PUSH1 0x20 ADD ADD DUP2 SWAP1 MSTORE POP PUSH32 0x0 PUSH20 0xFFFFFFFFFFFFFFFFFFFFFFFFFFFFFFFFFFFFFFFF AND PUSH4 0x7D64FA9B DUP3 PUSH1 0x40 MLOAD DUP3 PUSH4 0xFFFFFFFF AND PUSH1 0xE0 SHL DUP2 MSTORE PUSH1 0x4 ADD PUSH2 0xA4C SWAP2 SWAP1 PUSH2 0x28B7 JUMP JUMPDEST PUSH0 PUSH1 0x40 MLOAD DUP1 DUP4 SUB DUP2 PUSH0 DUP8 DUP1 EXTCODESIZE ISZERO DUP1 ISZERO PUSH2 0xA63 JUMPI PUSH0 PUSH0 REVERT JUMPDEST POP GAS CALL ISZERO DUP1 ISZERO PUSH2 0xA75 JUMPI RETURNDATASIZE PUSH0 PUSH0 RETURNDATACOPY RETURNDATASIZE PUSH0 REVERT JUMPDEST POP POP POP POP DUP2 PUSH20 0xFFFFFFFFFFFFFFFFFFFFFFFFFFFFFFFFFFFFFFFF AND DUP8 PUSH20 0xFFFFFFFFFFFFFFFFFFFFFFFFFFFFFFFFFFFFFFFF AND PUSH32 0xCC4F8702356931E6D23A93D1B60BEAC6A7EA77D447ADA4B1502A09D0B7125709 DUP7 PUSH1 0x1 PUSH1 0x40 MLOAD PUSH2 0xAD9 SWAP3 SWAP2 SWAP1 PUSH2 0x28EA JUMP JUMPDEST PUSH1 0x40 MLOAD DUP1 SWAP2 SUB SWAP1 LOG3 POP POP POP POP POP POP POP JUMP JUMPDEST PUSH0 PUSH0 PUSH0 SWAP1 SLOAD SWAP1 PUSH2 0x100 EXP SWAP1 DIV PUSH20 0xFFFFFFFFFFFFFFFFFFFFFFFFFFFFFFFFFFFFFFFF AND SWAP1 POP SWAP1 JUMP JUMPDEST PUSH0 PUSH2 0xB5E DUP5 DUP5 DUP1 DUP1 PUSH1 0x1F ADD PUSH1 0x20 DUP1 SWAP2 DIV MUL PUSH1 0x20 ADD PUSH1 0x40 MLOAD SWAP1 DUP2 ADD PUSH1 0x40 MSTORE DUP1 SWAP4 SWAP3 SWAP2 SWAP1 DUP2 DUP2 MSTORE PUSH1 0x20 ADD DUP4 DUP4 DUP1 DUP3 DUP5 CALLDATACOPY PUSH0 DUP2 DUP5 ADD MSTORE PUSH1 0x1F NOT PUSH1 0x1F DUP3 ADD AND SWAP1 POP DUP1 DUP4 ADD SWAP3 POP POP POP POP POP POP POP PUSH2 0x2AF JUMP JUMPDEST SWAP1 POP PUSH1 0x2 PUSH0 DUP3 PUSH20 0xFFFFFFFFFFFFFFFFFFFFFFFFFFFFFFFFFFFFFFFF AND PUSH20 0xFFFFFFFFFFFFFFFFFFFFFFFFFFFFFFFFFFFFFFFF AND DUP2 MSTORE PUSH1 0x20 ADD SWAP1 DUP2 MSTORE PUSH1 0x20 ADD PUSH0 KECCAK256 PUSH0 SWAP1 SLOAD SWAP1 PUSH2 0x100 EXP SWAP1 DIV PUSH1 0xFF AND PUSH2 0xBE9 JUMPI PUSH1 0x40 MLOAD PUSH32 0x8C379A000000000000000000000000000000000000000000000000000000000 DUP2 MSTORE PUSH1 0x4 ADD PUSH2 0xBE0 SWAP1 PUSH2 0x255B JUMP JUMPDEST PUSH1 0x40 MLOAD DUP1 SWAP2 SUB SWAP1 REVERT JUMPDEST PUSH0 DUP3 GT PUSH2 0xC2B JUMPI PUSH1 0x40 MLOAD PUSH32 0x8C379A000000000000000000000000000000000000000000000000000000000 DUP2 MSTORE PUSH1 0x4 ADD PUSH2 0xC22 SWAP1 PUSH2 0x2962 JUMP JUMPDEST PUSH1 0x40 MLOAD DUP1 SWAP2 SUB SWAP1 REVERT JUMPDEST PUSH2 0xC58 CALLER ADDRESS DUP5 DUP5 PUSH20 0xFFFFFFFFFFFFFFFFFFFFFFFFFFFFFFFFFFFFFFFF AND PUSH2 0x1A62 SWAP1 SWAP4 SWAP3 SWAP2 SWAP1 PUSH4 0xFFFFFFFF AND JUMP JUMPDEST PUSH0 PUSH1 0x5 PUSH8 0xFFFFFFFFFFFFFFFF DUP2 GT ISZERO PUSH2 0xC74 JUMPI PUSH2 0xC73 PUSH2 0x1C5B JUMP JUMPDEST JUMPDEST PUSH1 0x40 MLOAD SWAP1 DUP1 DUP3 MSTORE DUP1 PUSH1 0x20 MUL PUSH1 0x20 ADD DUP3 ADD PUSH1 0x40 MSTORE DUP1 ISZERO PUSH2 0xCAD JUMPI DUP2 PUSH1 0x20 ADD JUMPDEST PUSH2 0xC9A PUSH2 0x1B91 JUMP JUMPDEST DUP2 MSTORE PUSH1 0x20 ADD SWAP1 PUSH1 0x1 SWAP1 SUB SWAP1 DUP2 PUSH2 0xC92 JUMPI SWAP1 POP JUMPDEST POP SWAP1 POP PUSH1 0x40 MLOAD DUP1 PUSH1 0x60 ADD PUSH1 0x40 MSTORE DUP1 PUSH1 0x40 MLOAD DUP1 PUSH1 0x40 ADD PUSH1 0x40 MSTORE DUP1 PUSH1 0x4 DUP2 MSTORE PUSH1 0x20 ADD PUSH32 0x7573657200000000000000000000000000000000000000000000000000000000 DUP2 MSTORE POP DUP2 MSTORE PUSH1 0x20 ADD PUSH1 0x40 MLOAD DUP1 PUSH1 0x40 ADD PUSH1 0x40 MSTORE DUP1 PUSH1 0x7 DUP2 MSTORE PUSH1 0x20 ADD PUSH32 0x6164647265737300000000000000000000000000000000000000000000000000 DUP2 MSTORE POP DUP2 MSTORE PUSH1 0x20 ADD CALLER PUSH1 0x40 MLOAD PUSH1 0x20 ADD PUSH2 0xD42 SWAP2 SWAP1 PUSH2 0x1E05 JUMP JUMPDEST PUSH1 0x40 MLOAD PUSH1 0x20 DUP2 DUP4 SUB SUB DUP2 MSTORE SWAP1 PUSH1 0x40 MSTORE DUP2 MSTORE POP DUP2 PUSH0 DUP2 MLOAD DUP2 LT PUSH2 0xD67 JUMPI PUSH2 0xD66 PUSH2 0x2579 JUMP JUMPDEST JUMPDEST PUSH1 0x20 MUL PUSH1 0x20 ADD ADD DUP2 SWAP1 MSTORE POP PUSH1 0x40 MLOAD DUP1 PUSH1 0x60 ADD PUSH1 0x40 MSTORE DUP1 PUSH1 0x40 MLOAD DUP1 PUSH1 0x40 ADD PUSH1 0x40 MSTORE DUP1 PUSH1 0x6 DUP2 MSTORE PUSH1 0x20 ADD PUSH32 0x616D6F756E740000000000000000000000000000000000000000000000000000 DUP2 MSTORE POP DUP2 MSTORE PUSH1 0x20 ADD PUSH1 0x40 MLOAD DUP1 PUSH1 0x40 ADD PUSH1 0x40 MSTORE DUP1 PUSH1 0x7 DUP2 MSTORE PUSH1 0x20 ADD PUSH32 0x75696E7432353600000000000000000000000000000000000000000000000000 DUP2 MSTORE POP DUP2 MSTORE PUSH1 0x20 ADD DUP5 PUSH1 0x40 MLOAD PUSH1 0x20 ADD PUSH2 0xE04 SWAP2 SWAP1 PUSH2 0x25B5 JUMP JUMPDEST PUSH1 0x40 MLOAD PUSH1 0x20 DUP2 DUP4 SUB SUB DUP2 MSTORE SWAP1 PUSH1 0x40 MSTORE DUP2 MSTORE POP DUP2 PUSH1 0x1 DUP2 MLOAD DUP2 LT PUSH2 0xE2A JUMPI PUSH2 0xE29 PUSH2 0x2579 JUMP JUMPDEST JUMPDEST PUSH1 0x20 MUL PUSH1 0x20 ADD ADD DUP2 SWAP1 MSTORE POP PUSH1 0x40 MLOAD DUP1 PUSH1 0x60 ADD PUSH1 0x40 MSTORE DUP1 PUSH1 0x40 MLOAD DUP1 PUSH1 0x40 ADD PUSH1 0x40 MSTORE DUP1 PUSH1 0x5 DUP2 MSTORE PUSH1 0x20 ADD PUSH32 0x746F6B656E000000000000000000000000000000000000000000000000000000 DUP2 MSTORE POP DUP2 MSTORE PUSH1 0x20 ADD PUSH1 0x40 MLOAD DUP1 PUSH1 0x40 ADD PUSH1 0x40 MSTORE DUP1 PUSH1 0x6 DUP2 MSTORE PUSH1 0x20 ADD PUSH32 0x737472696E670000000000000000000000000000000000000000000000000000 DUP2 MSTORE POP DUP2 MSTORE PUSH1 0x20 ADD DUP7 DUP7 PUSH1 0x40 MLOAD PUSH1 0x20 ADD PUSH2 0xEC9 SWAP3 SWAP2 SWAP1 PUSH2 0x25FA JUMP JUMPDEST PUSH1 0x40 MLOAD PUSH1 0x20 DUP2 DUP4 SUB SUB DUP2 MSTORE SWAP1 PUSH1 0x40 MSTORE DUP2 MSTORE POP DUP2 PUSH1 0x2 DUP2 MLOAD DUP2 LT PUSH2 0xEEF JUMPI PUSH2 0xEEE PUSH2 0x2579 JUMP JUMPDEST JUMPDEST PUSH1 0x20 MUL PUSH1 0x20 ADD ADD DUP2 SWAP1 MSTORE POP PUSH1 0x40 MLOAD DUP1 PUSH1 0x60 ADD PUSH1 0x40 MSTORE DUP1 PUSH1 0x40 MLOAD DUP1 PUSH1 0x40 ADD PUSH1 0x40 MSTORE DUP1 PUSH1 0x8 DUP2 MSTORE PUSH1 0x20 ADD PUSH32 0x70726F7669646572000000000000000000000000000000000000000000000000 DUP2 MSTORE POP DUP2 MSTORE PUSH1 0x20 ADD PUSH1 0x40 MLOAD DUP1 PUSH1 0x40 ADD PUSH1 0x40 MSTORE DUP1 PUSH1 0x6 DUP2 MSTORE PUSH1 0x20 ADD PUSH32 0x737472696E670000000000000000000000000000000000000000000000000000 DUP2 MSTORE POP DUP2 MSTORE PUSH1 0x20 ADD PUSH1 0x1 PUSH1 0x40 MLOAD PUSH1 0x20 ADD PUSH2 0xF8D SWAP2 SWAP1 PUSH2 0x269D JUMP JUMPDEST PUSH1 0x40 MLOAD PUSH1 0x20 DUP2 DUP4 SUB SUB DUP2 MSTORE SWAP1 PUSH1 0x40 MSTORE DUP2 MSTORE POP DUP2 PUSH1 0x3 DUP2 MLOAD DUP2 LT PUSH2 0xFB3 JUMPI PUSH2 0xFB2 PUSH2 0x2579 JUMP JUMPDEST JUMPDEST PUSH1 0x20 MUL PUSH1 0x20 ADD ADD DUP2 SWAP1 MSTORE POP PUSH1 0x40 MLOAD DUP1 PUSH1 0x60 ADD PUSH1 0x40 MSTORE DUP1 PUSH1 0x40 MLOAD DUP1 PUSH1 0x40 ADD PUSH1 0x40 MSTORE DUP1 PUSH1 0x9 DUP2 MSTORE PUSH1 0x20 ADD PUSH32 0x74696D657374616D700000000000000000000000000000000000000000000000 DUP2 MSTORE POP DUP2 MSTORE PUSH1 0x20 ADD PUSH1 0x40 MLOAD DUP1 PUSH1 0x40 ADD PUSH1 0x40 MSTORE DUP1 PUSH1 0x7 DUP2 MSTORE PUSH1 0x20 ADD PUSH32 0x75696E7432353600000000000000000000000000000000000000000000000000 DUP2 MSTORE POP DUP2 MSTORE PUSH1 0x20 ADD TIMESTAMP PUSH1 0x40 MLOAD PUSH1 0x20 ADD PUSH2 0x1050 SWAP2 SWAP1 PUSH2 0x25B5 JUMP JUMPDEST PUSH1 0x40 MLOAD PUSH1 0x20 DUP2 DUP4 SUB SUB DUP2 MSTORE SWAP1 PUSH1 0x40 MSTORE DUP2 MSTORE POP DUP2 PUSH1 0x4 DUP2 MLOAD DUP2 LT PUSH2 0x1076 JUMPI PUSH2 0x1075 PUSH2 0x2579 JUMP JUMPDEST JUMPDEST PUSH1 0x20 MUL PUSH1 0x20 ADD ADD DUP2 SWAP1 MSTORE POP PUSH32 0x0 PUSH20 0xFFFFFFFFFFFFFFFFFFFFFFFFFFFFFFFFFFFFFFFF AND PUSH4 0x7D64FA9B DUP3 PUSH1 0x40 MLOAD DUP3 PUSH4 0xFFFFFFFF AND PUSH1 0xE0 SHL DUP2 MSTORE PUSH1 0x4 ADD PUSH2 0x10DA SWAP2 SWAP1 PUSH2 0x29CA JUMP JUMPDEST PUSH0 PUSH1 0x40 MLOAD DUP1 DUP4 SUB DUP2 PUSH0 DUP8 DUP1 EXTCODESIZE ISZERO DUP1 ISZERO PUSH2 0x10F1 JUMPI PUSH0 PUSH0 REVERT JUMPDEST POP GAS CALL ISZERO DUP1 ISZERO PUSH2 0x1103 JUMPI RETURNDATASIZE PUSH0 PUSH0 RETURNDATACOPY RETURNDATASIZE PUSH0 REVERT JUMPDEST POP POP POP POP DUP2 PUSH20 0xFFFFFFFFFFFFFFFFFFFFFFFFFFFFFFFFFFFFFFFF AND CALLER PUSH20 0xFFFFFFFFFFFFFFFFFFFFFFFFFFFFFFFFFFFFFFFF AND PUSH32 0xEF519B7EB82AAF6AC376A6DF2D793843EBFD593DE5F1A0601D3CC6AB49EBB395 DUP6 PUSH1 0x1 PUSH1 0x40 MLOAD PUSH2 0x1167 SWAP3 SWAP2 SWAP1 PUSH2 0x28EA JUMP JUMPDEST PUSH1 0x40 MLOAD DUP1 SWAP2 SUB SWAP1 LOG3 POP POP POP POP POP JUMP JUMPDEST PUSH0 PUSH2 0x11C3 DUP5 DUP5 DUP1 DUP1 PUSH1 0x1F ADD PUSH1 0x20 DUP1 SWAP2 DIV MUL PUSH1 0x20 ADD PUSH1 0x40 MLOAD SWAP1 DUP2 ADD PUSH1 0x40 MSTORE DUP1 SWAP4 SWAP3 SWAP2 SWAP1 DUP2 DUP2 MSTORE PUSH1 0x20 ADD DUP4 DUP4 DUP1 DUP3 DUP5 CALLDATACOPY PUSH0 DUP2 DUP5 ADD MSTORE PUSH1 0x1F NOT PUSH1 0x1F DUP3 ADD AND SWAP1 POP DUP1 DUP4 ADD SWAP3 POP POP POP POP POP POP POP PUSH2 0x2AF JUMP JUMPDEST SWAP1 POP PUSH1 0x2 PUSH0 DUP3 PUSH20 0xFFFFFFFFFFFFFFFFFFFFFFFFFFFFFFFFFFFFFFFF AND PUSH20 0xFFFFFFFFFFFFFFFFFFFFFFFFFFFFFFFFFFFFFFFF AND DUP2 MSTORE PUSH1 0x20 ADD SWAP1 DUP2 MSTORE PUSH1 0x20 ADD PUSH0 KECCAK256 PUSH0 SWAP1 SLOAD SWAP1 PUSH2 0x100 EXP SWAP1 DIV PUSH1 0xFF AND PUSH2 0x124E JUMPI PUSH1 0x40 MLOAD PUSH32 0x8C379A000000000000000000000000000000000000000000000000000000000 DUP2 MSTORE PUSH1 0x4 ADD PUSH2 0x1245 SWAP1 PUSH2 0x255B JUMP JUMPDEST PUSH1 0x40 MLOAD DUP1 SWAP2 SUB SWAP1 REVERT JUMPDEST PUSH0 PUSH1 0x5 PUSH8 0xFFFFFFFFFFFFFFFF DUP2 GT ISZERO PUSH2 0x126A JUMPI PUSH2 0x1269 PUSH2 0x1C5B JUMP JUMPDEST JUMPDEST PUSH1 0x40 MLOAD SWAP1 DUP1 DUP3 MSTORE DUP1 PUSH1 0x20 MUL PUSH1 0x20 ADD DUP3 ADD PUSH1 0x40 MSTORE DUP1 ISZERO PUSH2 0x12A3 JUMPI DUP2 PUSH1 0x20 ADD JUMPDEST PUSH2 0x1290 PUSH2 0x1B91 JUMP JUMPDEST DUP2 MSTORE PUSH1 0x20 ADD SWAP1 PUSH1 0x1 SWAP1 SUB SWAP1 DUP2 PUSH2 0x1288 JUMPI SWAP1 POP JUMPDEST POP SWAP1 POP PUSH1 0x40 MLOAD DUP1 PUSH1 0x60 ADD PUSH1 0x40 MSTORE DUP1 PUSH1 0x40 MLOAD DUP1 PUSH1 0x40 ADD PUSH1 0x40 MSTORE DUP1 PUSH1 0x4 DUP2 MSTORE PUSH1 0x20 ADD PUSH32 0x7573657200000000000000000000000000000000000000000000000000000000 DUP2 MSTORE POP DUP2 MSTORE PUSH1 0x20 ADD PUSH1 0x40 MLOAD DUP1 PUSH1 0x40 ADD PUSH1 0x40 MSTORE DUP1 PUSH1 0x7 DUP2 MSTORE PUSH1 0x20 ADD PUSH32 0x6164647265737300000000000000000000000000000000000000000000000000 DUP2 MSTORE POP DUP2 MSTORE PUSH1 0x20 ADD DUP8 PUSH1 0x40 MLOAD PUSH1 0x20 ADD PUSH2 0x1338 SWAP2 SWAP1 PUSH2 0x1E05 JUMP JUMPDEST PUSH1 0x40 MLOAD PUSH1 0x20 DUP2 DUP4 SUB SUB DUP2 MSTORE SWAP1 PUSH1 0x40 MSTORE DUP2 MSTORE POP DUP2 PUSH0 DUP2 MLOAD DUP2 LT PUSH2 0x135D JUMPI PUSH2 0x135C PUSH2 0x2579 JUMP JUMPDEST JUMPDEST PUSH1 0x20 MUL PUSH1 0x20 ADD ADD DUP2 SWAP1 MSTORE POP PUSH1 0x40 MLOAD DUP1 PUSH1 0x60 ADD PUSH1 0x40 MSTORE DUP1 PUSH1 0x40 MLOAD DUP1 PUSH1 0x40 ADD PUSH1 0x40 MSTORE DUP1 PUSH1 0x6 DUP2 MSTORE PUSH1 0x20 ADD PUSH32 0x616D6F756E740000000000000000000000000000000000000000000000000000 DUP2 MSTORE POP DUP2 MSTORE PUSH1 0x20 ADD PUSH1 0x40 MLOAD DUP1 PUSH1 0x40 ADD PUSH1 0x40 MSTORE DUP1 PUSH1 0x7 DUP2 MSTORE PUSH1 0x20 ADD PUSH32 0x75696E7432353600000000000000000000000000000000000000000000000000 DUP2 MSTORE POP DUP2 MSTORE PUSH1 0x20 ADD DUP5 PUSH1 0x40 MLOAD PUSH1 0x20 ADD PUSH2 0x13FA SWAP2 SWAP1 PUSH2 0x25B5 JUMP JUMPDEST PUSH1 0x40 MLOAD PUSH1 0x20 DUP2 DUP4 SUB SUB DUP2 MSTORE SWAP1 PUSH1 0x40 MSTORE DUP2 MSTORE POP DUP2 PUSH1 0x1 DUP2 MLOAD DUP2 LT PUSH2 0x1420 JUMPI PUSH2 0x141F PUSH2 0x2579 JUMP JUMPDEST JUMPDEST PUSH1 0x20 MUL PUSH1 0x20 ADD ADD DUP2 SWAP1 MSTORE POP PUSH1 0x40 MLOAD DUP1 PUSH1 0x60 ADD PUSH1 0x40 MSTORE DUP1 PUSH1 0x40 MLOAD DUP1 PUSH1 0x40 ADD PUSH1 0x40 MSTORE DUP1 PUSH1 0x5 DUP2 MSTORE PUSH1 0x20 ADD PUSH32 0x636861696E000000000000000000000000000000000000000000000000000000 DUP2 MSTORE POP DUP2 MSTORE PUSH1 0x20 ADD PUSH1 0x40 MLOAD DUP1 PUSH1 0x40 ADD PUSH1 0x40 MSTORE DUP1 PUSH1 0x6 DUP2 MSTORE PUSH1 0x20 ADD PUSH32 0x737472696E670000000000000000000000000000000000000000000000000000 DUP2 MSTORE POP DUP2 MSTORE PUSH1 0x20 ADD PUSH1 0x40 MLOAD PUSH1 0x20 ADD PUSH2 0x14BB SWAP1 PUSH2 0x2A47 JUMP JUMPDEST PUSH1 0x40 MLOAD PUSH1 0x20 DUP2 DUP4 SUB SUB DUP2 MSTORE SWAP1 PUSH1 0x40 MSTORE DUP2 MSTORE POP DUP2 PUSH1 0x2 DUP2 MLOAD DUP2 LT PUSH2 0x14E1 JUMPI PUSH2 0x14E0 PUSH2 0x2579 JUMP JUMPDEST JUMPDEST PUSH1 0x20 MUL PUSH1 0x20 ADD ADD DUP2 SWAP1 MSTORE POP PUSH1 0x40 MLOAD DUP1 PUSH1 0x60 ADD PUSH1 0x40 MSTORE DUP1 PUSH1 0x40 MLOAD DUP1 PUSH1 0x40 ADD PUSH1 0x40 MSTORE DUP1 PUSH1 0x8 DUP2 MSTORE PUSH1 0x20 ADD PUSH32 0x70726F7669646572000000000000000000000000000000000000000000000000 DUP2 MSTORE POP DUP2 MSTORE PUSH1 0x20 ADD PUSH1 0x40 MLOAD DUP1 PUSH1 0x40 ADD PUSH1 0x40 MSTORE DUP1 PUSH1 0x6 DUP2 MSTORE PUSH1 0x20 ADD PUSH32 0x737472696E670000000000000000000000000000000000000000000000000000 DUP2 MSTORE POP DUP2 MSTORE PUSH1 0x20 ADD PUSH1 0x1 PUSH1 0x40 MLOAD PUSH1 0x20 ADD PUSH2 0x157F SWAP2 SWAP1 PUSH2 0x269D JUMP JUMPDEST PUSH1 0x40 MLOAD PUSH1 0x20 DUP2 DUP4 SUB SUB DUP2 MSTORE SWAP1 PUSH1 0x40 MSTORE DUP2 MSTORE POP DUP2 PUSH1 0x3 DUP2 MLOAD DUP2 LT PUSH2 0x15A5 JUMPI PUSH2 0x15A4 PUSH2 0x2579 JUMP JUMPDEST JUMPDEST PUSH1 0x20 MUL PUSH1 0x20 ADD ADD DUP2 SWAP1 MSTORE POP PUSH1 0x40 MLOAD DUP1 PUSH1 0x60 ADD PUSH1 0x40 MSTORE DUP1 PUSH1 0x40 MLOAD DUP1 PUSH1 0x40 ADD PUSH1 0x40 MSTORE DUP1 PUSH1 0x5 DUP2 MSTORE PUSH1 0x20 ADD PUSH32 0x746F6B656E000000000000000000000000000000000000000000000000000000 DUP2 MSTORE POP DUP2 MSTORE PUSH1 0x20 ADD PUSH1 0x40 MLOAD DUP1 PUSH1 0x40 ADD PUSH1 0x40 MSTORE DUP1 PUSH1 0x6 DUP2 MSTORE PUSH1 0x20 ADD PUSH32 0x737472696E670000000000000000000000000000000000000000000000000000 DUP2 MSTORE POP DUP2 MSTORE PUSH1 0x20 ADD DUP7 DUP7 PUSH1 0x40 MLOAD PUSH1 0x20 ADD PUSH2 0x1644 SWAP3 SWAP2 SWAP1 PUSH2 0x25FA JUMP JUMPDEST PUSH1 0x40 MLOAD PUSH1 0x20 DUP2 DUP4 SUB SUB DUP2 MSTORE SWAP1 PUSH1 0x40 MSTORE DUP2 MSTORE POP DUP2 PUSH1 0x4 DUP2 MLOAD DUP2 LT PUSH2 0x166A JUMPI PUSH2 0x1669 PUSH2 0x2579 JUMP JUMPDEST JUMPDEST PUSH1 0x20 MUL PUSH1 0x20 ADD ADD DUP2 SWAP1 MSTORE POP PUSH32 0x0 PUSH20 0xFFFFFFFFFFFFFFFFFFFFFFFFFFFFFFFFFFFFFFFF AND PUSH4 0x7D64FA9B DUP3 PUSH1 0x40 MLOAD DUP3 PUSH4 0xFFFFFFFF AND PUSH1 0xE0 SHL DUP2 MSTORE PUSH1 0x4 ADD PUSH2 0x16CE SWAP2 SWAP1 PUSH2 0x2AAF JUMP JUMPDEST PUSH0 PUSH1 0x40 MLOAD DUP1 DUP4 SUB DUP2 PUSH0 DUP8 DUP1 EXTCODESIZE ISZERO DUP1 ISZERO PUSH2 0x16E5 JUMPI PUSH0 PUSH0 REVERT JUMPDEST POP GAS CALL ISZERO DUP1 ISZERO PUSH2 0x16F7 JUMPI RETURNDATASIZE PUSH0 PUSH0 RETURNDATACOPY RETURNDATASIZE PUSH0 REVERT JUMPDEST POP POP POP POP POP POP POP POP POP POP JUMP JUMPDEST PUSH32 0x0 DUP2 JUMP JUMPDEST PUSH32 0x0 DUP2 JUMP JUMPDEST PUSH0 PUSH2 0x1798 DUP4 DUP4 DUP1 DUP1 PUSH1 0x1F ADD PUSH1 0x20 DUP1 SWAP2 DIV MUL PUSH1 0x20 ADD PUSH1 0x40 MLOAD SWAP1 DUP2 ADD PUSH1 0x40 MSTORE DUP1 SWAP4 SWAP3 SWAP2 SWAP1 DUP2 DUP2 MSTORE PUSH1 0x20 ADD DUP4 DUP4 DUP1 DUP3 DUP5 CALLDATACOPY PUSH0 DUP2 DUP5 ADD MSTORE PUSH1 0x1F NOT PUSH1 0x1F DUP3 ADD AND SWAP1 POP DUP1 DUP4 ADD SWAP3 POP POP POP POP POP POP POP PUSH2 0x2AF JUMP JUMPDEST SWAP1 POP PUSH1 0x1 PUSH1 0x2 PUSH0 DUP4 PUSH20 0xFFFFFFFFFFFFFFFFFFFFFFFFFFFFFFFFFFFFFFFF AND PUSH20 0xFFFFFFFFFFFFFFFFFFFFFFFFFFFFFFFFFFFFFFFF AND DUP2 MSTORE PUSH1 0x20 ADD SWAP1 DUP2 MSTORE PUSH1 0x20 ADD PUSH0 KECCAK256 PUSH0 PUSH2 0x100 EXP DUP2 SLOAD DUP2 PUSH1 0xFF MUL NOT AND SWAP1 DUP4 ISZERO ISZERO MUL OR SWAP1 SSTORE POP DUP1 PUSH20 0xFFFFFFFFFFFFFFFFFFFFFFFFFFFFFFFFFFFFFFFF AND PUSH32 0xD57B1148EFB91F418A2178FC1FB4BA12F9400A4DC8E71851FD59E85D337C609F PUSH1 0x1 PUSH1 0x40 MLOAD PUSH2 0x1836 SWAP2 SWAP1 PUSH2 0x269D JUMP JUMPDEST PUSH1 0x40 MLOAD DUP1 SWAP2 SUB SWAP1 LOG2 POP POP POP JUMP JUMPDEST PUSH2 0x184B PUSH2 0x18C7 JUMP JUMPDEST PUSH0 PUSH20 0xFFFFFFFFFFFFFFFFFFFFFFFFFFFFFFFFFFFFFFFF AND DUP2 PUSH20 0xFFFFFFFFFFFFFFFFFFFFFFFFFFFFFFFFFFFFFFFF AND SUB PUSH2 0x18BB JUMPI PUSH0 PUSH1 0x40 MLOAD PUSH32 0x1E4FBDF700000000000000000000000000000000000000000000000000000000 DUP2 MSTORE PUSH1 0x4 ADD PUSH2 0x18B2 SWAP2 SWAP1 PUSH2 0x1E05 JUMP JUMPDEST PUSH1 0x40 MLOAD DUP1 SWAP2 SUB SWAP1 REVERT JUMPDEST PUSH2 0x18C4 DUP2 PUSH2 0x194E JUMP JUMPDEST POP JUMP JUMPDEST PUSH2 0x18CF PUSH2 0x1AB7 JUMP JUMPDEST PUSH20 0xFFFFFFFFFFFFFFFFFFFFFFFFFFFFFFFFFFFFFFFF AND PUSH2 0x18ED PUSH2 0xAEA JUMP JUMPDEST PUSH20 0xFFFFFFFFFFFFFFFFFFFFFFFFFFFFFFFFFFFFFFFF AND EQ PUSH2 0x194C JUMPI PUSH2 0x1910 PUSH2 0x1AB7 JUMP JUMPDEST PUSH1 0x40 MLOAD PUSH32 0x118CDAA700000000000000000000000000000000000000000000000000000000 DUP2 MSTORE PUSH1 0x4 ADD PUSH2 0x1943 SWAP2 SWAP1 PUSH2 0x1E05 JUMP JUMPDEST PUSH1 0x40 MLOAD DUP1 SWAP2 SUB SWAP1 REVERT JUMPDEST JUMP JUMPDEST PUSH0 PUSH0 PUSH0 SWAP1 SLOAD SWAP1 PUSH2 0x100 EXP SWAP1 DIV PUSH20 0xFFFFFFFFFFFFFFFFFFFFFFFFFFFFFFFFFFFFFFFF AND SWAP1 POP DUP2 PUSH0 PUSH0 PUSH2 0x100 EXP DUP2 SLOAD DUP2 PUSH20 0xFFFFFFFFFFFFFFFFFFFFFFFFFFFFFFFFFFFFFFFF MUL NOT AND SWAP1 DUP4 PUSH20 0xFFFFFFFFFFFFFFFFFFFFFFFFFFFFFFFFFFFFFFFF AND MUL OR SWAP1 SSTORE POP DUP2 PUSH20 0xFFFFFFFFFFFFFFFFFFFFFFFFFFFFFFFFFFFFFFFF AND DUP2 PUSH20 0xFFFFFFFFFFFFFFFFFFFFFFFFFFFFFFFFFFFFFFFF AND PUSH32 0x8BE0079C531659141344CD1FD0A4F28419497F9722A3DAAFE3B4186F6B6457E0 PUSH1 0x40 MLOAD PUSH1 0x40 MLOAD DUP1 SWAP2 SUB SWAP1 LOG3 POP POP JUMP JUMPDEST PUSH2 0x1A1C DUP4 DUP4 DUP4 PUSH1 0x1 PUSH2 0x1ABE JUMP JUMPDEST PUSH2 0x1A5D JUMPI DUP3 PUSH1 0x40 MLOAD PUSH32 0x5274AFE700000000000000000000000000000000000000000000000000000000 DUP2 MSTORE PUSH1 0x4 ADD PUSH2 0x1A54 SWAP2 SWAP1 PUSH2 0x1E05 JUMP JUMPDEST PUSH1 0x40 MLOAD DUP1 SWAP2 SUB SWAP1 REVERT JUMPDEST POP POP POP JUMP JUMPDEST PUSH2 0x1A70 DUP5 DUP5 DUP5 DUP5 PUSH1 0x1 PUSH2 0x1B20 JUMP JUMPDEST PUSH2 0x1AB1 JUMPI DUP4 PUSH1 0x40 MLOAD PUSH32 0x5274AFE700000000000000000000000000000000000000000000000000000000 DUP2 MSTORE PUSH1 0x4 ADD PUSH2 0x1AA8 SWAP2 SWAP1 PUSH2 0x1E05 JUMP JUMPDEST PUSH1 0x40 MLOAD DUP1 SWAP2 SUB SWAP1 REVERT JUMPDEST POP POP POP POP JUMP JUMPDEST PUSH0 CALLER SWAP1 POP SWAP1 JUMP JUMPDEST PUSH0 PUSH0 PUSH4 0xA9059CBB PUSH1 0xE0 SHL SWAP1 POP PUSH1 0x40 MLOAD DUP2 PUSH0 MSTORE PUSH0 NOT PUSH1 0x60 SHR DUP7 AND PUSH1 0x4 MSTORE DUP5 PUSH1 0x24 MSTORE PUSH1 0x20 PUSH0 PUSH1 0x44 PUSH0 PUSH0 DUP12 GAS CALL SWAP3 POP PUSH1 0x1 PUSH0 MLOAD EQ DUP4 AND PUSH2 0x1B12 JUMPI DUP4 DUP4 ISZERO AND ISZERO PUSH2 0x1B06 JUMPI RETURNDATASIZE PUSH0 DUP3 RETURNDATACOPY RETURNDATASIZE DUP2 REVERT JUMPDEST PUSH0 DUP8 EXTCODESIZE GT RETURNDATASIZE ISZERO AND DUP4 AND SWAP3 POP JUMPDEST DUP1 PUSH1 0x40 MSTORE POP POP SWAP5 SWAP4 POP POP POP POP JUMP JUMPDEST PUSH0 PUSH0 PUSH4 0x23B872DD PUSH1 0xE0 SHL SWAP1 POP PUSH1 0x40 MLOAD DUP2 PUSH0 MSTORE PUSH0 NOT PUSH1 0x60 SHR DUP8 AND PUSH1 0x4 MSTORE PUSH0 NOT PUSH1 0x60 SHR DUP7 AND PUSH1 0x24 MSTORE DUP5 PUSH1 0x44 MSTORE PUSH1 0x20 PUSH0 PUSH1 0x64 PUSH0 PUSH0 DUP13 GAS CALL SWAP3 POP PUSH1 0x1 PUSH0 MLOAD EQ DUP4 AND PUSH2 0x1B7E JUMPI DUP4 DUP4 ISZERO AND ISZERO PUSH2 0x1B72 JUMPI RETURNDATASIZE PUSH0 DUP3 RETURNDATACOPY RETURNDATASIZE DUP2 REVERT JUMPDEST PUSH0 DUP9 EXTCODESIZE GT RETURNDATASIZE ISZERO AND DUP4 AND SWAP3 POP JUMPDEST DUP1 PUSH1 0x40 MSTORE PUSH0 PUSH1 0x60 MSTORE POP POP SWAP6 SWAP5 POP POP POP POP POP JUMP JUMPDEST PUSH1 0x40 MLOAD DUP1 PUSH1 0x60 ADD PUSH1 0x40 MSTORE DUP1 PUSH1 0x60 DUP2 MSTORE PUSH1 0x20 ADD PUSH1 0x60 DUP2 MSTORE PUSH1 0x20 ADD PUSH1 0x60 DUP2 MSTORE POP SWAP1 JUMP JUMPDEST PUSH0 DUP2 MLOAD SWAP1 POP SWAP2 SWAP1 POP JUMP JUMPDEST PUSH0 DUP3 DUP3 MSTORE PUSH1 0x20 DUP3 ADD SWAP1 POP SWAP3 SWAP2 POP POP JUMP JUMPDEST DUP3 DUP2 DUP4 MCOPY PUSH0 DUP4 DUP4 ADD MSTORE POP POP POP JUMP JUMPDEST PUSH0 PUSH1 0x1F NOT PUSH1 0x1F DUP4 ADD AND SWAP1 POP SWAP2 SWAP1 POP JUMP JUMPDEST PUSH0 PUSH2 0x1BF4 DUP3 PUSH2 0x1BB2 JUMP JUMPDEST PUSH2 0x1BFE DUP2 DUP6 PUSH2 0x1BBC JUMP JUMPDEST SWAP4 POP PUSH2 0x1C0E DUP2 DUP6 PUSH1 0x20 DUP7 ADD PUSH2 0x1BCC JUMP JUMPDEST PUSH2 0x1C17 DUP2 PUSH2 0x1BDA JUMP JUMPDEST DUP5 ADD SWAP2 POP POP SWAP3 SWAP2 POP POP JUMP JUMPDEST PUSH0 PUSH1 0x20 DUP3 ADD SWAP1 POP DUP2 DUP2 SUB PUSH0 DUP4 ADD MSTORE PUSH2 0x1C3A DUP2 DUP5 PUSH2 0x1BEA JUMP JUMPDEST SWAP1 POP SWAP3 SWAP2 POP POP JUMP JUMPDEST PUSH0 PUSH1 0x40 MLOAD SWAP1 POP SWAP1 JUMP JUMPDEST PUSH0 PUSH0 REVERT JUMPDEST PUSH0 PUSH0 REVERT JUMPDEST PUSH0 PUSH0 REVERT JUMPDEST PUSH0 PUSH0 REVERT JUMPDEST PUSH32 0x4E487B7100000000000000000000000000000000000000000000000000000000 PUSH0 MSTORE PUSH1 0x41 PUSH1 0x4 MSTORE PUSH1 0x24 PUSH0 REVERT JUMPDEST PUSH2 0x1C91 DUP3 PUSH2 0x1BDA JUMP JUMPDEST DUP2 ADD DUP2 DUP2 LT PUSH8 0xFFFFFFFFFFFFFFFF DUP3 GT OR ISZERO PUSH2 0x1CB0 JUMPI PUSH2 0x1CAF PUSH2 0x1C5B JUMP JUMPDEST JUMPDEST DUP1 PUSH1 0x40 MSTORE POP POP POP JUMP JUMPDEST PUSH0 PUSH2 0x1CC2 PUSH2 0x1C42 JUMP JUMPDEST SWAP1 POP PUSH2 0x1CCE DUP3 DUP3 PUSH2 0x1C88 JUMP JUMPDEST SWAP2 SWAP1 POP JUMP JUMPDEST PUSH0 PUSH8 0xFFFFFFFFFFFFFFFF DUP3 GT ISZERO PUSH2 0x1CED JUMPI PUSH2 0x1CEC PUSH2 0x1C5B JUMP JUMPDEST JUMPDEST PUSH2 0x1CF6 DUP3 PUSH2 0x1BDA JUMP JUMPDEST SWAP1 POP PUSH1 0x20 DUP2 ADD SWAP1 POP SWAP2 SWAP1 POP JUMP JUMPDEST DUP3 DUP2 DUP4 CALLDATACOPY PUSH0 DUP4 DUP4 ADD MSTORE POP POP POP JUMP JUMPDEST PUSH0 PUSH2 0x1D23 PUSH2 0x1D1E DUP5 PUSH2 0x1CD3 JUMP JUMPDEST PUSH2 0x1CB9 JUMP JUMPDEST SWAP1 POP DUP3 DUP2 MSTORE PUSH1 0x20 DUP2 ADD DUP5 DUP5 DUP5 ADD GT ISZERO PUSH2 0x1D3F JUMPI PUSH2 0x1D3E PUSH2 0x1C57 JUMP JUMPDEST JUMPDEST PUSH2 0x1D4A DUP5 DUP3 DUP6 PUSH2 0x1D03 JUMP JUMPDEST POP SWAP4 SWAP3 POP POP POP JUMP JUMPDEST PUSH0 DUP3 PUSH1 0x1F DUP4 ADD SLT PUSH2 0x1D66 JUMPI PUSH2 0x1D65 PUSH2 0x1C53 JUMP JUMPDEST JUMPDEST DUP2 CALLDATALOAD PUSH2 0x1D76 DUP5 DUP3 PUSH1 0x20 DUP7 ADD PUSH2 0x1D11 JUMP JUMPDEST SWAP2 POP POP SWAP3 SWAP2 POP POP JUMP JUMPDEST PUSH0 PUSH1 0x20 DUP3 DUP5 SUB SLT ISZERO PUSH2 0x1D94 JUMPI PUSH2 0x1D93 PUSH2 0x1C4B JUMP JUMPDEST JUMPDEST PUSH0 DUP3 ADD CALLDATALOAD PUSH8 0xFFFFFFFFFFFFFFFF DUP2 GT ISZERO PUSH2 0x1DB1 JUMPI PUSH2 0x1DB0 PUSH2 0x1C4F JUMP JUMPDEST JUMPDEST PUSH2 0x1DBD DUP5 DUP3 DUP6 ADD PUSH2 0x1D52 JUMP JUMPDEST SWAP2 POP POP SWAP3 SWAP2 POP POP JUMP JUMPDEST PUSH0 PUSH20 0xFFFFFFFFFFFFFFFFFFFFFFFFFFFFFFFFFFFFFFFF DUP3 AND SWAP1 POP SWAP2 SWAP1 POP JUMP JUMPDEST PUSH0 PUSH2 0x1DEF DUP3 PUSH2 0x1DC6 JUMP JUMPDEST SWAP1 POP SWAP2 SWAP1 POP JUMP JUMPDEST PUSH2 0x1DFF DUP2 PUSH2 0x1DE5 JUMP JUMPDEST DUP3 MSTORE POP POP JUMP JUMPDEST PUSH0 PUSH1 0x20 DUP3 ADD SWAP1 POP PUSH2 0x1E18 PUSH0 DUP4 ADD DUP5 PUSH2 0x1DF6 JUMP JUMPDEST SWAP3 SWAP2 POP POP JUMP JUMPDEST PUSH2 0x1E27 DUP2 PUSH2 0x1DE5 JUMP JUMPDEST DUP2 EQ PUSH2 0x1E31 JUMPI PUSH0 PUSH0 REVERT JUMPDEST POP JUMP JUMPDEST PUSH0 DUP2 CALLDATALOAD SWAP1 POP PUSH2 0x1E42 DUP2 PUSH2 0x1E1E JUMP JUMPDEST SWAP3 SWAP2 POP POP JUMP JUMPDEST PUSH0 PUSH1 0x20 DUP3 DUP5 SUB SLT ISZERO PUSH2 0x1E5D JUMPI PUSH2 0x1E5C PUSH2 0x1C4B JUMP JUMPDEST JUMPDEST PUSH0 PUSH2 0x1E6A DUP5 DUP3 DUP6 ADD PUSH2 0x1E34 JUMP JUMPDEST SWAP2 POP POP SWAP3 SWAP2 POP POP JUMP JUMPDEST PUSH0 DUP2 ISZERO ISZERO SWAP1 POP SWAP2 SWAP1 POP JUMP JUMPDEST PUSH2 0x1E87 DUP2 PUSH2 0x1E73 JUMP JUMPDEST DUP3 MSTORE POP POP JUMP JUMPDEST PUSH0 PUSH1 0x20 DUP3 ADD SWAP1 POP PUSH2 0x1EA0 PUSH0 DUP4 ADD DUP5 PUSH2 0x1E7E JUMP JUMPDEST SWAP3 SWAP2 POP POP JUMP JUMPDEST PUSH0 PUSH0 REVERT JUMPDEST PUSH0 PUSH0 REVERT JUMPDEST PUSH0 PUSH0 DUP4 PUSH1 0x1F DUP5 ADD SLT PUSH2 0x1EC3 JUMPI PUSH2 0x1EC2 PUSH2 0x1C53 JUMP JUMPDEST JUMPDEST DUP3 CALLDATALOAD SWAP1 POP PUSH8 0xFFFFFFFFFFFFFFFF DUP2 GT ISZERO PUSH2 0x1EE0 JUMPI PUSH2 0x1EDF PUSH2 0x1EA6 JUMP JUMPDEST JUMPDEST PUSH1 0x20 DUP4 ADD SWAP2 POP DUP4 PUSH1 0x1 DUP3 MUL DUP4 ADD GT ISZERO PUSH2 0x1EFC JUMPI PUSH2 0x1EFB PUSH2 0x1EAA JUMP JUMPDEST JUMPDEST SWAP3 POP SWAP3 SWAP1 POP JUMP JUMPDEST PUSH0 DUP2 SWAP1 POP SWAP2 SWAP1 POP JUMP JUMPDEST PUSH2 0x1F15 DUP2 PUSH2 0x1F03 JUMP JUMPDEST DUP2 EQ PUSH2 0x1F1F JUMPI PUSH0 PUSH0 REVERT JUMPDEST POP JUMP JUMPDEST PUSH0 DUP2 CALLDATALOAD SWAP1 POP PUSH2 0x1F30 DUP2 PUSH2 0x1F0C JUMP JUMPDEST SWAP3 SWAP2 POP POP JUMP JUMPDEST PUSH0 PUSH0 PUSH0 PUSH0 PUSH0 PUSH1 0x80 DUP7 DUP9 SUB SLT ISZERO PUSH2 0x1F4F JUMPI PUSH2 0x1F4E PUSH2 0x1C4B JUMP JUMPDEST JUMPDEST PUSH0 PUSH2 0x1F5C DUP9 DUP3 DUP10 ADD PUSH2 0x1E34 JUMP JUMPDEST SWAP6 POP POP PUSH1 0x20 DUP7 ADD CALLDATALOAD PUSH8 0xFFFFFFFFFFFFFFFF DUP2 GT ISZERO PUSH2 0x1F7D JUMPI PUSH2 0x1F7C PUSH2 0x1C4F JUMP JUMPDEST JUMPDEST PUSH2 0x1F89 DUP9 DUP3 DUP10 ADD PUSH2 0x1EAE JUMP JUMPDEST SWAP5 POP SWAP5 POP POP PUSH1 0x40 PUSH2 0x1F9C DUP9 DUP3 DUP10 ADD PUSH2 0x1F22 JUMP JUMPDEST SWAP3 POP POP PUSH1 0x60 PUSH2 0x1FAD DUP9 DUP3 DUP10 ADD PUSH2 0x1F22 JUMP JUMPDEST SWAP2 POP POP SWAP3 SWAP6 POP SWAP3 SWAP6 SWAP1 SWAP4 POP JUMP JUMPDEST PUSH0 PUSH0 PUSH0 PUSH1 0x40 DUP5 DUP7 SUB SLT ISZERO PUSH2 0x1FD1 JUMPI PUSH2 0x1FD0 PUSH2 0x1C4B JUMP JUMPDEST JUMPDEST PUSH0 DUP5 ADD CALLDATALOAD PUSH8 0xFFFFFFFFFFFFFFFF DUP2 GT ISZERO PUSH2 0x1FEE JUMPI PUSH2 0x1FED PUSH2 0x1C4F JUMP JUMPDEST JUMPDEST PUSH2 0x1FFA DUP7 DUP3 DUP8 ADD PUSH2 0x1EAE JUMP JUMPDEST SWAP4 POP SWAP4 POP POP PUSH1 0x20 PUSH2 0x200D DUP7 DUP3 DUP8 ADD PUSH2 0x1F22 JUMP JUMPDEST SWAP2 POP POP SWAP3 POP SWAP3 POP SWAP3 JUMP JUMPDEST PUSH0 PUSH0 PUSH0 PUSH0 PUSH1 0x60 DUP6 DUP8 SUB SLT ISZERO PUSH2 0x202F JUMPI PUSH2 0x202E PUSH2 0x1C4B JUMP JUMPDEST JUMPDEST PUSH0 PUSH2 0x203C DUP8 DUP3 DUP9 ADD PUSH2 0x1E34 JUMP JUMPDEST SWAP5 POP POP PUSH1 0x20 DUP6 ADD CALLDATALOAD PUSH8 0xFFFFFFFFFFFFFFFF DUP2 GT ISZERO PUSH2 0x205D JUMPI PUSH2 0x205C PUSH2 0x1C4F JUMP JUMPDEST JUMPDEST PUSH2 0x2069 DUP8 DUP3 DUP9 ADD PUSH2 0x1EAE JUMP JUMPDEST SWAP4 POP SWAP4 POP POP PUSH1 0x40 PUSH2 0x207C DUP8 DUP3 DUP9 ADD PUSH2 0x1F22 JUMP JUMPDEST SWAP2 POP POP SWAP3 SWAP6 SWAP2 SWAP5 POP SWAP3 POP JUMP JUMPDEST PUSH0 DUP2 SWAP1 POP SWAP2 SWAP1 POP JUMP JUMPDEST PUSH0 PUSH2 0x20AB PUSH2 0x20A6 PUSH2 0x20A1 DUP5 PUSH2 0x1DC6 JUMP JUMPDEST PUSH2 0x2088 JUMP JUMPDEST PUSH2 0x1DC6 JUMP JUMPDEST SWAP1 POP SWAP2 SWAP1 POP JUMP JUMPDEST PUSH0 PUSH2 0x20BC DUP3 PUSH2 0x2091 JUMP JUMPDEST SWAP1 POP SWAP2 SWAP1 POP JUMP JUMPDEST PUSH0 PUSH2 0x20CD DUP3 PUSH2 0x20B2 JUMP JUMPDEST SWAP1 POP SWAP2 SWAP1 POP JUMP JUMPDEST PUSH2 0x20DD DUP2 PUSH2 0x20C3 JUMP JUMPDEST DUP3 MSTORE POP POP JUMP JUMPDEST PUSH0 PUSH1 0x20 DUP3 ADD SWAP1 POP PUSH2 0x20F6 PUSH0 DUP4 ADD DUP5 PUSH2 0x20D4 JUMP JUMPDEST SWAP3 SWAP2 POP POP JUMP JUMPDEST PUSH0 PUSH2 0x2106 DUP3 PUSH2 0x20B2 JUMP JUMPDEST SWAP1 POP SWAP2 SWAP1 POP JUMP JUMPDEST PUSH2 0x2116 DUP2 PUSH2 0x20FC JUMP JUMPDEST DUP3 MSTORE POP POP JUMP JUMPDEST PUSH0 PUSH1 0x20 DUP3 ADD SWAP1 POP PUSH2 0x212F PUSH0 DUP4 ADD DUP5 PUSH2 0x210D JUMP JUMPDEST SWAP3 SWAP2 POP POP JUMP JUMPDEST PUSH0 PUSH0 PUSH1 0x20 DUP4 DUP6 SUB SLT ISZERO PUSH2 0x214B JUMPI PUSH2 0x214A PUSH2 0x1C4B JUMP JUMPDEST JUMPDEST PUSH0 DUP4 ADD CALLDATALOAD PUSH8 0xFFFFFFFFFFFFFFFF DUP2 GT ISZERO PUSH2 0x2168 JUMPI PUSH2 0x2167 PUSH2 0x1C4F JUMP JUMPDEST JUMPDEST PUSH2 0x2174 DUP6 DUP3 DUP7 ADD PUSH2 0x1EAE JUMP JUMPDEST SWAP3 POP SWAP3 POP POP SWAP3 POP SWAP3 SWAP1 POP JUMP JUMPDEST PUSH32 0x4E487B7100000000000000000000000000000000000000000000000000000000 PUSH0 MSTORE PUSH1 0x22 PUSH1 0x4 MSTORE PUSH1 0x24 PUSH0 REVERT JUMPDEST PUSH0 PUSH1 0x2 DUP3 DIV SWAP1 POP PUSH1 0x1 DUP3 AND DUP1 PUSH2 0x21C4 JUMPI PUSH1 0x7F DUP3 AND SWAP2 POP JUMPDEST PUSH1 0x20 DUP3 LT DUP2 SUB PUSH2 0x21D7 JUMPI PUSH2 0x21D6 PUSH2 0x2180 JUMP JUMPDEST JUMPDEST POP SWAP2 SWAP1 POP JUMP JUMPDEST PUSH0 DUP2 SWAP1 POP SWAP3 SWAP2 POP POP JUMP JUMPDEST PUSH0 PUSH2 0x21F1 DUP3 PUSH2 0x1BB2 JUMP JUMPDEST PUSH2 0x21FB DUP2 DUP6 PUSH2 0x21DD JUMP JUMPDEST SWAP4 POP PUSH2 0x220B DUP2 DUP6 PUSH1 0x20 DUP7 ADD PUSH2 0x1BCC JUMP JUMPDEST DUP1 DUP5 ADD SWAP2 POP POP SWAP3 SWAP2 POP POP JUMP JUMPDEST PUSH32 0x5F00000000000000000000000000000000000000000000000000000000000000 PUSH0 DUP3 ADD MSTORE POP JUMP JUMPDEST PUSH0 PUSH2 0x224B PUSH1 0x1 DUP4 PUSH2 0x21DD JUMP JUMPDEST SWAP2 POP PUSH2 0x2256 DUP3 PUSH2 0x2217 JUMP JUMPDEST PUSH1 0x1 DUP3 ADD SWAP1 POP SWAP2 SWAP1 POP JUMP JUMPDEST PUSH0 DUP2 SWAP1 POP DUP2 PUSH0 MSTORE PUSH1 0x20 PUSH0 KECCAK256 SWAP1 POP SWAP2 SWAP1 POP JUMP JUMPDEST PUSH0 DUP2 SLOAD PUSH2 0x227F DUP2 PUSH2 0x21AD JUMP JUMPDEST PUSH2 0x2289 DUP2 DUP7 PUSH2 0x21DD JUMP JUMPDEST SWAP5 POP PUSH1 0x1 DUP3 AND PUSH0 DUP2 EQ PUSH2 0x22A3 JUMPI PUSH1 0x1 DUP2 EQ PUSH2 0x22B8 JUMPI PUSH2 0x22EA JUMP JUMPDEST PUSH1 0xFF NOT DUP4 AND DUP7 MSTORE DUP2 ISZERO ISZERO DUP3 MUL DUP7 ADD SWAP4 POP PUSH2 0x22EA JUMP JUMPDEST PUSH2 0x22C1 DUP6 PUSH2 0x2261 JUMP JUMPDEST PUSH0 JUMPDEST DUP4 DUP2 LT ISZERO PUSH2 0x22E2 JUMPI DUP2 SLOAD DUP2 DUP10 ADD MSTORE PUSH1 0x1 DUP3 ADD SWAP2 POP PUSH1 0x20 DUP2 ADD SWAP1 POP PUSH2 0x22C3 JUMP JUMPDEST DUP4 DUP9 ADD SWAP6 POP POP POP JUMPDEST POP POP POP SWAP3 SWAP2 POP POP JUMP JUMPDEST PUSH0 PUSH2 0x22FE DUP3 DUP6 PUSH2 0x21E7 JUMP JUMPDEST SWAP2 POP PUSH2 0x2309 DUP3 PUSH2 0x223F JUMP JUMPDEST SWAP2 POP PUSH2 0x2315 DUP3 DUP5 PUSH2 0x2273 JUMP JUMPDEST SWAP2 POP DUP2 SWAP1 POP SWAP4 SWAP3 POP POP POP JUMP JUMPDEST PUSH32 0x51696172614D6F6E616441737365747300000000000000000000000000000000 PUSH0 DUP3 ADD MSTORE POP JUMP JUMPDEST PUSH0 PUSH2 0x2355 PUSH1 0x10 DUP4 PUSH2 0x1BBC JUMP JUMPDEST SWAP2 POP PUSH2 0x2360 DUP3 PUSH2 0x2321 JUMP JUMPDEST PUSH1 0x20 DUP3 ADD SWAP1 POP SWAP2 SWAP1 POP JUMP JUMPDEST PUSH0 PUSH1 0x40 DUP3 ADD SWAP1 POP DUP2 DUP2 SUB PUSH0 DUP4 ADD MSTORE PUSH2 0x2382 DUP2 PUSH2 0x2349 JUMP JUMPDEST SWAP1 POP DUP2 DUP2 SUB PUSH1 0x20 DUP4 ADD MSTORE PUSH2 0x2396 DUP2 DUP5 PUSH2 0x1BEA JUMP JUMPDEST SWAP1 POP SWAP3 SWAP2 POP POP JUMP JUMPDEST PUSH0 PUSH8 0xFFFFFFFFFFFFFFFF DUP3 GT ISZERO PUSH2 0x23B8 JUMPI PUSH2 0x23B7 PUSH2 0x1C5B JUMP JUMPDEST JUMPDEST PUSH2 0x23C1 DUP3 PUSH2 0x1BDA JUMP JUMPDEST SWAP1 POP PUSH1 0x20 DUP2 ADD SWAP1 POP SWAP2 SWAP1 POP JUMP JUMPDEST PUSH0 PUSH2 0x23E0 PUSH2 0x23DB DUP5 PUSH2 0x239E JUMP JUMPDEST PUSH2 0x1CB9 JUMP JUMPDEST SWAP1 POP DUP3 DUP2 MSTORE PUSH1 0x20 DUP2 ADD DUP5 DUP5 DUP5 ADD GT ISZERO PUSH2 0x23FC JUMPI PUSH2 0x23FB PUSH2 0x1C57 JUMP JUMPDEST JUMPDEST PUSH2 0x2407 DUP5 DUP3 DUP6 PUSH2 0x1BCC JUMP JUMPDEST POP SWAP4 SWAP3 POP POP POP JUMP JUMPDEST PUSH0 DUP3 PUSH1 0x1F DUP4 ADD SLT PUSH2 0x2423 JUMPI PUSH2 0x2422 PUSH2 0x1C53 JUMP JUMPDEST JUMPDEST DUP2 MLOAD PUSH2 0x2433 DUP5 DUP3 PUSH1 0x20 DUP7 ADD PUSH2 0x23CE JUMP JUMPDEST SWAP2 POP POP SWAP3 SWAP2 POP POP JUMP JUMPDEST PUSH0 PUSH1 0x20 DUP3 DUP5 SUB SLT ISZERO PUSH2 0x2451 JUMPI PUSH2 0x2450 PUSH2 0x1C4B JUMP JUMPDEST JUMPDEST PUSH0 DUP3 ADD MLOAD PUSH8 0xFFFFFFFFFFFFFFFF DUP2 GT ISZERO PUSH2 0x246E JUMPI PUSH2 0x246D PUSH2 0x1C4F JUMP JUMPDEST JUMPDEST PUSH2 0x247A DUP5 DUP3 DUP6 ADD PUSH2 0x240F JUMP JUMPDEST SWAP2 POP POP SWAP3 SWAP2 POP POP JUMP JUMPDEST PUSH32 0x5661756C743A204173736574206E6F7420666F756E6420696E20726567697374 PUSH0 DUP3 ADD MSTORE PUSH32 0x7279000000000000000000000000000000000000000000000000000000000000 PUSH1 0x20 DUP3 ADD MSTORE POP JUMP JUMPDEST PUSH0 PUSH2 0x24DD PUSH1 0x22 DUP4 PUSH2 0x1BBC JUMP JUMPDEST SWAP2 POP PUSH2 0x24E8 DUP3 PUSH2 0x2483 JUMP JUMPDEST PUSH1 0x40 DUP3 ADD SWAP1 POP SWAP2 SWAP1 POP JUMP JUMPDEST PUSH0 PUSH1 0x20 DUP3 ADD SWAP1 POP DUP2 DUP2 SUB PUSH0 DUP4 ADD MSTORE PUSH2 0x250A DUP2 PUSH2 0x24D1 JUMP JUMPDEST SWAP1 POP SWAP2 SWAP1 POP JUMP JUMPDEST PUSH32 0x5661756C743A20546F6B656E206E6F7420737570706F72746564000000000000 PUSH0 DUP3 ADD MSTORE POP JUMP JUMPDEST PUSH0 PUSH2 0x2545 PUSH1 0x1A DUP4 PUSH2 0x1BBC JUMP JUMPDEST SWAP2 POP PUSH2 0x2550 DUP3 PUSH2 0x2511 JUMP JUMPDEST PUSH1 0x20 DUP3 ADD SWAP1 POP SWAP2 SWAP1 POP JUMP JUMPDEST PUSH0 PUSH1 0x20 DUP3 ADD SWAP1 POP DUP2 DUP2 SUB PUSH0 DUP4 ADD MSTORE PUSH2 0x2572 DUP2 PUSH2 0x2539 JUMP JUMPDEST SWAP1 POP SWAP2 SWAP1 POP JUMP JUMPDEST PUSH32 0x4E487B7100000000000000000000000000000000000000000000000000000000 PUSH0 MSTORE PUSH1 0x32 PUSH1 0x4 MSTORE PUSH1 0x24 PUSH0 REVERT JUMPDEST PUSH2 0x25AF DUP2 PUSH2 0x1F03 JUMP JUMPDEST DUP3 MSTORE POP POP JUMP JUMPDEST PUSH0 PUSH1 0x20 DUP3 ADD SWAP1 POP PUSH2 0x25C8 PUSH0 DUP4 ADD DUP5 PUSH2 0x25A6 JUMP JUMPDEST SWAP3 SWAP2 POP POP JUMP JUMPDEST PUSH0 PUSH2 0x25D9 DUP4 DUP6 PUSH2 0x1BBC JUMP JUMPDEST SWAP4 POP PUSH2 0x25E6 DUP4 DUP6 DUP5 PUSH2 0x1D03 JUMP JUMPDEST PUSH2 0x25EF DUP4 PUSH2 0x1BDA JUMP JUMPDEST DUP5 ADD SWAP1 POP SWAP4 SWAP3 POP POP POP JUMP JUMPDEST PUSH0 PUSH1 0x20 DUP3 ADD SWAP1 POP DUP2 DUP2 SUB PUSH0 DUP4 ADD MSTORE PUSH2 0x2613 DUP2 DUP5 DUP7 PUSH2 0x25CE JUMP JUMPDEST SWAP1 POP SWAP4 SWAP3 POP POP POP JUMP JUMPDEST PUSH0 DUP2 SLOAD PUSH2 0x2628 DUP2 PUSH2 0x21AD JUMP JUMPDEST PUSH2 0x2632 DUP2 DUP7 PUSH2 0x1BBC JUMP JUMPDEST SWAP5 POP PUSH1 0x1 DUP3 AND PUSH0 DUP2 EQ PUSH2 0x264C JUMPI PUSH1 0x1 DUP2 EQ PUSH2 0x2662 JUMPI PUSH2 0x2694 JUMP JUMPDEST PUSH1 0xFF NOT DUP4 AND DUP7 MSTORE DUP2 ISZERO ISZERO PUSH1 0x20 MUL DUP7 ADD SWAP4 POP PUSH2 0x2694 JUMP JUMPDEST PUSH2 0x266B DUP6 PUSH2 0x2261 JUMP JUMPDEST PUSH0 JUMPDEST DUP4 DUP2 LT ISZERO PUSH2 0x268C JUMPI DUP2 SLOAD DUP2 DUP10 ADD MSTORE PUSH1 0x1 DUP3 ADD SWAP2 POP PUSH1 0x20 DUP2 ADD SWAP1 POP PUSH2 0x266D JUMP JUMPDEST DUP1 DUP9 ADD SWAP6 POP POP POP JUMPDEST POP POP POP SWAP3 SWAP2 POP POP JUMP JUMPDEST PUSH0 PUSH1 0x20 DUP3 ADD SWAP1 POP DUP2 DUP2 SUB PUSH0 DUP4 ADD MSTORE PUSH2 0x26B5 DUP2 DUP5 PUSH2 0x261C JUMP JUMPDEST SWAP1 POP SWAP3 SWAP2 POP POP JUMP JUMPDEST PUSH32 0x4469726563742057697468647261770000000000000000000000000000000000 PUSH0 DUP3 ADD MSTORE POP JUMP JUMPDEST PUSH0 PUSH2 0x26F1 PUSH1 0xF DUP4 PUSH2 0x1BBC JUMP JUMPDEST SWAP2 POP PUSH2 0x26FC DUP3 PUSH2 0x26BD JUMP JUMPDEST PUSH1 0x20 DUP3 ADD SWAP1 POP SWAP2 SWAP1 POP JUMP JUMPDEST PUSH0 DUP2 MLOAD SWAP1 POP SWAP2 SWAP1 POP JUMP JUMPDEST PUSH0 DUP3 DUP3 MSTORE PUSH1 0x20 DUP3 ADD SWAP1 POP SWAP3 SWAP2 POP POP JUMP JUMPDEST PUSH0 DUP2 SWAP1 POP PUSH1 0x20 DUP3 ADD SWAP1 POP SWAP2 SWAP1 POP JUMP JUMPDEST PUSH0 DUP3 DUP3 MSTORE PUSH1 0x20 DUP3 ADD SWAP1 POP SWAP3 SWAP2 POP POP JUMP JUMPDEST PUSH0 PUSH2 0x274A DUP3 PUSH2 0x1BB2 JUMP JUMPDEST PUSH2 0x2754 DUP2 DUP6 PUSH2 0x2730 JUMP JUMPDEST SWAP4 POP PUSH2 0x2764 DUP2 DUP6 PUSH1 0x20 DUP7 ADD PUSH2 0x1BCC JUMP JUMPDEST PUSH2 0x276D DUP2 PUSH2 0x1BDA JUMP JUMPDEST DUP5 ADD SWAP2 POP POP SWAP3 SWAP2 POP POP JUMP JUMPDEST PUSH0 DUP2 MLOAD SWAP1 POP SWAP2 SWAP1 POP JUMP JUMPDEST PUSH0 DUP3 DUP3 MSTORE PUSH1 0x20 DUP3 ADD SWAP1 POP SWAP3 SWAP2 POP POP JUMP JUMPDEST PUSH0 PUSH2 0x279C DUP3 PUSH2 0x2778 JUMP JUMPDEST PUSH2 0x27A6 DUP2 DUP6 PUSH2 0x2782 JUMP JUMPDEST SWAP4 POP PUSH2 0x27B6 DUP2 DUP6 PUSH1 0x20 DUP7 ADD PUSH2 0x1BCC JUMP JUMPDEST PUSH2 0x27BF DUP2 PUSH2 0x1BDA JUMP JUMPDEST DUP5 ADD SWAP2 POP POP SWAP3 SWAP2 POP POP JUMP JUMPDEST PUSH0 PUSH1 0x60 DUP4 ADD PUSH0 DUP4 ADD MLOAD DUP5 DUP3 SUB PUSH0 DUP7 ADD MSTORE PUSH2 0x27E4 DUP3 DUP3 PUSH2 0x2740 JUMP JUMPDEST SWAP2 POP POP PUSH1 0x20 DUP4 ADD MLOAD DUP5 DUP3 SUB PUSH1 0x20 DUP7 ADD MSTORE PUSH2 0x27FE DUP3 DUP3 PUSH2 0x2740 JUMP JUMPDEST SWAP2 POP POP PUSH1 0x40 DUP4 ADD MLOAD DUP5 DUP3 SUB PUSH1 0x40 DUP7 ADD MSTORE PUSH2 0x2818 DUP3 DUP3 PUSH2 0x2792 JUMP JUMPDEST SWAP2 POP POP DUP1 SWAP2 POP POP SWAP3 SWAP2 POP POP JUMP JUMPDEST PUSH0 PUSH2 0x2830 DUP4 DUP4 PUSH2 0x27CA JUMP JUMPDEST SWAP1 POP SWAP3 SWAP2 POP POP JUMP JUMPDEST PUSH0 PUSH1 0x20 DUP3 ADD SWAP1 POP SWAP2 SWAP1 POP JUMP JUMPDEST PUSH0 PUSH2 0x284E DUP3 PUSH2 0x2707 JUMP JUMPDEST PUSH2 0x2858 DUP2 DUP6 PUSH2 0x2711 JUMP JUMPDEST SWAP4 POP DUP4 PUSH1 0x20 DUP3 MUL DUP6 ADD PUSH2 0x286A DUP6 PUSH2 0x2721 JUMP JUMPDEST DUP1 PUSH0 JUMPDEST DUP6 DUP2 LT ISZERO PUSH2 0x28A5 JUMPI DUP5 DUP5 SUB DUP10 MSTORE DUP2 MLOAD PUSH2 0x2886 DUP6 DUP3 PUSH2 0x2825 JUMP JUMPDEST SWAP5 POP PUSH2 0x2891 DUP4 PUSH2 0x2838 JUMP JUMPDEST SWAP3 POP PUSH1 0x20 DUP11 ADD SWAP10 POP POP PUSH1 0x1 DUP2 ADD SWAP1 POP PUSH2 0x286D JUMP JUMPDEST POP DUP3 SWAP8 POP DUP8 SWAP6 POP POP POP POP POP POP SWAP3 SWAP2 POP POP JUMP JUMPDEST PUSH0 PUSH1 0x40 DUP3 ADD SWAP1 POP DUP2 DUP2 SUB PUSH0 DUP4 ADD MSTORE PUSH2 0x28CE DUP2 PUSH2 0x26E5 JUMP JUMPDEST SWAP1 POP DUP2 DUP2 SUB PUSH1 0x20 DUP4 ADD MSTORE PUSH2 0x28E2 DUP2 DUP5 PUSH2 0x2844 JUMP JUMPDEST SWAP1 POP SWAP3 SWAP2 POP POP JUMP JUMPDEST PUSH0 PUSH1 0x40 DUP3 ADD SWAP1 POP PUSH2 0x28FD PUSH0 DUP4 ADD DUP6 PUSH2 0x25A6 JUMP JUMPDEST DUP2 DUP2 SUB PUSH1 0x20 DUP4 ADD MSTORE PUSH2 0x290F DUP2 DUP5 PUSH2 0x261C JUMP JUMPDEST SWAP1 POP SWAP4 SWAP3 POP POP POP JUMP JUMPDEST PUSH32 0x5661756C743A204465706F736974206D757374206265203E2030000000000000 PUSH0 DUP3 ADD MSTORE POP JUMP JUMPDEST PUSH0 PUSH2 0x294C PUSH1 0x1A DUP4 PUSH2 0x1BBC JUMP JUMPDEST SWAP2 POP PUSH2 0x2957 DUP3 PUSH2 0x2918 JUMP JUMPDEST PUSH1 0x20 DUP3 ADD SWAP1 POP SWAP2 SWAP1 POP JUMP JUMPDEST PUSH0 PUSH1 0x20 DUP3 ADD SWAP1 POP DUP2 DUP2 SUB PUSH0 DUP4 ADD MSTORE PUSH2 0x2979 DUP2 PUSH2 0x2940 JUMP JUMPDEST SWAP1 POP SWAP2 SWAP1 POP JUMP JUMPDEST PUSH32 0x4465706F73697400000000000000000000000000000000000000000000000000 PUSH0 DUP3 ADD MSTORE POP JUMP JUMPDEST PUSH0 PUSH2 0x29B4 PUSH1 0x7 DUP4 PUSH2 0x1BBC JUMP JUMPDEST SWAP2 POP PUSH2 0x29BF DUP3 PUSH2 0x2980 JUMP JUMPDEST PUSH1 0x20 DUP3 ADD SWAP1 POP SWAP2 SWAP1 POP JUMP JUMPDEST PUSH0 PUSH1 0x40 DUP3 ADD SWAP1 POP DUP2 DUP2 SUB PUSH0 DUP4 ADD MSTORE PUSH2 0x29E1 DUP2 PUSH2 0x29A8 JUMP JUMPDEST SWAP1 POP DUP2 DUP2 SUB PUSH1 0x20 DUP4 ADD MSTORE PUSH2 0x29F5 DUP2 DUP5 PUSH2 0x2844 JUMP JUMPDEST SWAP1 POP SWAP3 SWAP2 POP POP JUMP JUMPDEST PUSH32 0x6261736500000000000000000000000000000000000000000000000000000000 PUSH0 DUP3 ADD MSTORE POP JUMP JUMPDEST PUSH0 PUSH2 0x2A31 PUSH1 0x4 DUP4 PUSH2 0x1BBC JUMP JUMPDEST SWAP2 POP PUSH2 0x2A3C DUP3 PUSH2 0x29FD JUMP JUMPDEST PUSH1 0x20 DUP3 ADD SWAP1 POP SWAP2 SWAP1 POP JUMP JUMPDEST PUSH0 PUSH1 0x20 DUP3 ADD SWAP1 POP DUP2 DUP2 SUB PUSH0 DUP4 ADD MSTORE PUSH2 0x2A5E DUP2 PUSH2 0x2A25 JUMP JUMPDEST SWAP1 POP SWAP2 SWAP1 POP JUMP JUMPDEST PUSH32 0x4D6F64756C617220576974686472617700000000000000000000000000000000 PUSH0 DUP3 ADD MSTORE POP JUMP JUMPDEST PUSH0 PUSH2 0x2A99 PUSH1 0x10 DUP4 PUSH2 0x1BBC JUMP JUMPDEST SWAP2 POP PUSH2 0x2AA4 DUP3 PUSH2 0x2A65 JUMP JUMPDEST PUSH1 0x20 DUP3 ADD SWAP1 POP SWAP2 SWAP1 POP JUMP JUMPDEST PUSH0 PUSH1 0x40 DUP3 ADD SWAP1 POP DUP2 DUP2 SUB PUSH0 DUP4 ADD MSTORE PUSH2 0x2AC6 DUP2 PUSH2 0x2A8D JUMP JUMPDEST SWAP1 POP DUP2 DUP2 SUB PUSH1 0x20 DUP4 ADD MSTORE PUSH2 0x2ADA DUP2 DUP5 PUSH2 0x2844 JUMP JUMPDEST SWAP1 POP SWAP3 SWAP2 POP POP JUMP INVALID LOG2 PUSH5 0x6970667358 0x22 SLT KECCAK256 XOR 0xFC 0x2C CALLF 0xCBA2 LOG1 0xF7 0xB1 0xB3 0x4F BALANCE PUSH11 0xFB1BFCF35787AC6FA0DC5A EOFCREATE 0x6D CALLF 0x2DDA DUP1 0xAA DUP3 PUSH5 0x736F6C6343 STOP ADDMOD 0x1F STOP CALLER "
				},
				"gasEstimates": {
					"creation": {
						"codeDepositCost": "2206400",
						"executionCost": "infinite",
						"totalCost": "infinite"
					},
					"external": {
						"deposit(string,uint256)": "infinite",
						"directWithdraw(address,string,uint256,uint256)": "infinite",
						"events()": "infinite",
						"isSupportedToken(address)": "2878",
						"listNewToken(string)": "infinite",
						"m_withdraw(address,string,uint256)": "infinite",
						"owner()": "2625",
						"providerName()": "infinite",
						"renounceOwnership()": "infinite",
						"resolveAsset(string)": "infinite",
						"transferOwnership(address)": "infinite",
						"variablesRegistry()": "infinite"
					}
				},
				"methodIdentifiers": {
					"deposit(string,uint256)": "8e27d719",
					"directWithdraw(address,string,uint256,uint256)": "7a9eceb4",
					"events()": "b5f8558c",
					"isSupportedToken(address)": "240028e8",
					"listNewToken(string)": "f139721c",
					"m_withdraw(address,string,uint256)": "a4702f03",
					"owner()": "8da5cb5b",
					"providerName()": "00dad7d4",
					"renounceOwnership()": "715018a6",
					"resolveAsset(string)": "05d09fb1",
					"transferOwnership(address)": "f2fde38b",
					"variablesRegistry()": "bf4d766e"
				}
			},
			"storageLayout": {
				"storage": [
					{
						"astId": 8,
						"contract": "Evm/core/base/vault.sol:QiaraMultiAssetVault",
						"label": "_owner",
						"offset": 0,
						"slot": "0",
						"type": "t_address"
					},
					{
						"astId": 858,
						"contract": "Evm/core/base/vault.sol:QiaraMultiAssetVault",
						"label": "providerName",
						"offset": 0,
						"slot": "1",
						"type": "t_string_storage"
					},
					{
						"astId": 862,
						"contract": "Evm/core/base/vault.sol:QiaraMultiAssetVault",
						"label": "isSupportedToken",
						"offset": 0,
						"slot": "2",
						"type": "t_mapping(t_address,t_bool)"
					}
				],
				"types": {
					"t_address": {
						"encoding": "inplace",
						"label": "address",
						"numberOfBytes": "20"
					},
					"t_bool": {
						"encoding": "inplace",
						"label": "bool",
						"numberOfBytes": "1"
					},
					"t_mapping(t_address,t_bool)": {
						"encoding": "mapping",
						"key": "t_address",
						"label": "mapping(address => bool)",
						"numberOfBytes": "32",
						"value": "t_bool"
					},
					"t_string_storage": {
						"encoding": "bytes",
						"label": "string",
						"numberOfBytes": "32"
					}
				}
			},
			"userdoc": {
				"kind": "user",
				"methods": {},
				"version": 1
			}
		}
	}
}