{
	"Evm/zk/validators_verifier.sol": {
		"Verifier": {
			"abi": [
				{
					"inputs": [],
					"name": "ProofInvalid",
					"type": "error"
				},
				{
					"inputs": [],
					"name": "PublicInputNotInField",
					"type": "error"
				},
				{
					"inputs": [
						{
							"internalType": "uint256[8]",
							"name": "proof",
							"type": "uint256[8]"
						}
					],
					"name": "compressProof",
					"outputs": [
						{
							"internalType": "uint256[4]",
							"name": "compressed",
							"type": "uint256[4]"
						}
					],
					"stateMutability": "view",
					"type": "function"
				},
				{
					"inputs": [
						{
							"internalType": "uint256[4]",
							"name": "compressedProof",
							"type": "uint256[4]"
						},
						{
							"internalType": "uint256[3]",
							"name": "input",
							"type": "uint256[3]"
						}
					],
					"name": "verifyCompressedProof",
					"outputs": [],
					"stateMutability": "view",
					"type": "function"
				},
				{
					"inputs": [
						{
							"internalType": "uint256[8]",
							"name": "proof",
							"type": "uint256[8]"
						},
						{
							"internalType": "uint256[3]",
							"name": "input",
							"type": "uint256[3]"
						}
					],
					"name": "verifyProof",
					"outputs": [],
					"stateMutability": "view",
					"type": "function"
				}
			],
			"devdoc": {
				"author": "Remco Bloemen",
				"errors": {
					"ProofInvalid()": [
						{
							"details": "This can mean that provided Groth16 proof points are not on their curves, that pairing equation fails, or that the proof is not for the provided public input."
						}
					],
					"PublicInputNotInField()": [
						{
							"details": "Public input elements are not automatically reduced, as this is can be a dangerous source of bugs."
						}
					]
				},
				"kind": "dev",
				"methods": {
					"compressProof(uint256[8])": {
						"params": {
							"proof": "The uncompressed Groth16 proof. Elements are in the same order as for verifyProof. I.e. Groth16 points (A, B, C) encoded as in EIP-197."
						},
						"returns": {
							"compressed": "The compressed proof. Elements are in the same order as for verifyCompressedProof. I.e. points (A, B, C) in compressed format."
						}
					},
					"verifyCompressedProof(uint256[4],uint256[3])": {
						"params": {
							"compressedProof": "the points (A, B, C) in compressed format matching the output of compressProof.",
							"input": "the public input field elements in the scalar field Fr. Elements must be reduced."
						}
					},
					"verifyProof(uint256[8],uint256[3])": {
						"params": {
							"input": "the public input field elements in the scalar field Fr. Elements must be reduced.",
							"proof": "the points (A, B, C) in EIP-197 format matching the output of compressProof."
						}
					}
				},
				"title": "Groth16 verifier template.",
				"version": 1
			},
			"evm": {
				"assembly": "    /* \"Evm/zk/validators_verifier.sol\":394:26119  contract Verifier {... */\n  mstore(0x40, 0x80)\n  callvalue\n  dup1\n  iszero\n  tag_1\n  jumpi\n  revert(0x00, 0x00)\ntag_1:\n  pop\n  dataSize(sub_0)\n  dup1\n  dataOffset(sub_0)\n  0x00\n  codecopy\n  0x00\n  return\nstop\n\nsub_0: assembly {\n        /* \"Evm/zk/validators_verifier.sol\":394:26119  contract Verifier {... */\n      mstore(0x40, 0x80)\n      callvalue\n      dup1\n      iszero\n      tag_1\n      jumpi\n      revert(0x00, 0x00)\n    tag_1:\n      pop\n      jumpi(tag_2, lt(calldatasize, 0x04))\n      shr(0xe0, calldataload(0x00))\n      dup1\n      0x44f63692\n      eq\n      tag_3\n      jumpi\n      dup1\n      0x65c03259\n      eq\n      tag_4\n      jumpi\n      dup1\n      0x98c13db9\n      eq\n      tag_5\n      jumpi\n    tag_2:\n      revert(0x00, 0x00)\n        /* \"Evm/zk/validators_verifier.sol\":20219:20544  function compressProof(uint256[8] calldata proof)... */\n    tag_3:\n      tag_6\n      0x04\n      dup1\n      calldatasize\n      sub\n      dup2\n      add\n      swap1\n      tag_7\n      swap2\n      swap1\n      tag_8\n      jump\t// in\n    tag_7:\n      tag_9\n      jump\t// in\n    tag_6:\n      mload(0x40)\n      tag_10\n      swap2\n      swap1\n      tag_11\n      jump\t// in\n    tag_10:\n      mload(0x40)\n      dup1\n      swap2\n      sub\n      swap1\n      return\n        /* \"Evm/zk/validators_verifier.sol\":23942:26116  function verifyProof(... */\n    tag_4:\n      tag_12\n      0x04\n      dup1\n      calldatasize\n      sub\n      dup2\n      add\n      swap1\n      tag_13\n      swap2\n      swap1\n      tag_14\n      jump\t// in\n    tag_13:\n      tag_15\n      jump\t// in\n    tag_12:\n      stop\n        /* \"Evm/zk/validators_verifier.sol\":21103:23405  function verifyCompressedProof(... */\n    tag_5:\n      tag_16\n      0x04\n      dup1\n      calldatasize\n      sub\n      dup2\n      add\n      swap1\n      tag_17\n      swap2\n      swap1\n      tag_18\n      jump\t// in\n    tag_17:\n      tag_19\n      jump\t// in\n    tag_16:\n      stop\n        /* \"Evm/zk/validators_verifier.sol\":20219:20544  function compressProof(uint256[8] calldata proof)... */\n    tag_9:\n        /* \"Evm/zk/validators_verifier.sol\":20295:20323  uint256[4] memory compressed */\n      tag_20\n      tag_21\n      jump\t// in\n    tag_20:\n        /* \"Evm/zk/validators_verifier.sol\":20352:20383  compress_g1(proof[0], proof[1]) */\n      tag_23\n        /* \"Evm/zk/validators_verifier.sol\":20364:20369  proof */\n      dup3\n        /* \"Evm/zk/validators_verifier.sol\":20370:20371  0 */\n      0x00\n        /* \"Evm/zk/validators_verifier.sol\":20364:20372  proof[0] */\n      0x08\n      dup2\n      lt\n      tag_24\n      jumpi\n      tag_25\n      tag_26\n      jump\t// in\n    tag_25:\n    tag_24:\n      0x20\n      mul\n      add\n      calldataload\n        /* \"Evm/zk/validators_verifier.sol\":20374:20379  proof */\n      dup4\n        /* \"Evm/zk/validators_verifier.sol\":20380:20381  1 */\n      0x01\n        /* \"Evm/zk/validators_verifier.sol\":20374:20382  proof[1] */\n      0x08\n      dup2\n      lt\n      tag_27\n      jumpi\n      tag_28\n      tag_26\n      jump\t// in\n    tag_28:\n    tag_27:\n      0x20\n      mul\n      add\n      calldataload\n        /* \"Evm/zk/validators_verifier.sol\":20352:20363  compress_g1 */\n      tag_29\n        /* \"Evm/zk/validators_verifier.sol\":20352:20383  compress_g1(proof[0], proof[1]) */\n      jump\t// in\n    tag_23:\n        /* \"Evm/zk/validators_verifier.sol\":20336:20346  compressed */\n      dup2\n        /* \"Evm/zk/validators_verifier.sol\":20347:20348  0 */\n      0x00\n        /* \"Evm/zk/validators_verifier.sol\":20336:20349  compressed[0] */\n      0x04\n      dup2\n      lt\n      tag_30\n      jumpi\n      tag_31\n      tag_26\n      jump\t// in\n    tag_31:\n    tag_30:\n      0x20\n      mul\n      add\n        /* \"Evm/zk/validators_verifier.sol\":20336:20383  compressed[0] = compress_g1(proof[0], proof[1]) */\n      dup2\n      dup2\n      mstore\n      pop\n      pop\n        /* \"Evm/zk/validators_verifier.sol\":20427:20478  compress_g2(proof[3], proof[2], proof[5], proof[4]) */\n      tag_32\n        /* \"Evm/zk/validators_verifier.sol\":20439:20444  proof */\n      dup3\n        /* \"Evm/zk/validators_verifier.sol\":20445:20446  3 */\n      0x03\n        /* \"Evm/zk/validators_verifier.sol\":20439:20447  proof[3] */\n      0x08\n      dup2\n      lt\n      tag_33\n      jumpi\n      tag_34\n      tag_26\n      jump\t// in\n    tag_34:\n    tag_33:\n      0x20\n      mul\n      add\n      calldataload\n        /* \"Evm/zk/validators_verifier.sol\":20449:20454  proof */\n      dup4\n        /* \"Evm/zk/validators_verifier.sol\":20455:20456  2 */\n      0x02\n        /* \"Evm/zk/validators_verifier.sol\":20449:20457  proof[2] */\n      0x08\n      dup2\n      lt\n      tag_35\n      jumpi\n      tag_36\n      tag_26\n      jump\t// in\n    tag_36:\n    tag_35:\n      0x20\n      mul\n      add\n      calldataload\n        /* \"Evm/zk/validators_verifier.sol\":20459:20464  proof */\n      dup5\n        /* \"Evm/zk/validators_verifier.sol\":20465:20466  5 */\n      0x05\n        /* \"Evm/zk/validators_verifier.sol\":20459:20467  proof[5] */\n      0x08\n      dup2\n      lt\n      tag_37\n      jumpi\n      tag_38\n      tag_26\n      jump\t// in\n    tag_38:\n    tag_37:\n      0x20\n      mul\n      add\n      calldataload\n        /* \"Evm/zk/validators_verifier.sol\":20469:20474  proof */\n      dup6\n        /* \"Evm/zk/validators_verifier.sol\":20475:20476  4 */\n      0x04\n        /* \"Evm/zk/validators_verifier.sol\":20469:20477  proof[4] */\n      0x08\n      dup2\n      lt\n      tag_39\n      jumpi\n      tag_40\n      tag_26\n      jump\t// in\n    tag_40:\n    tag_39:\n      0x20\n      mul\n      add\n      calldataload\n        /* \"Evm/zk/validators_verifier.sol\":20427:20438  compress_g2 */\n      tag_41\n        /* \"Evm/zk/validators_verifier.sol\":20427:20478  compress_g2(proof[3], proof[2], proof[5], proof[4]) */\n      jump\t// in\n    tag_32:\n        /* \"Evm/zk/validators_verifier.sol\":20395:20405  compressed */\n      dup3\n        /* \"Evm/zk/validators_verifier.sol\":20406:20407  2 */\n      0x02\n        /* \"Evm/zk/validators_verifier.sol\":20395:20408  compressed[2] */\n      0x04\n      dup2\n      lt\n      tag_42\n      jumpi\n      tag_43\n      tag_26\n      jump\t// in\n    tag_43:\n    tag_42:\n      0x20\n      mul\n      add\n        /* \"Evm/zk/validators_verifier.sol\":20410:20420  compressed */\n      dup4\n        /* \"Evm/zk/validators_verifier.sol\":20421:20422  1 */\n      0x01\n        /* \"Evm/zk/validators_verifier.sol\":20410:20423  compressed[1] */\n      0x04\n      dup2\n      lt\n      tag_44\n      jumpi\n      tag_45\n      tag_26\n      jump\t// in\n    tag_45:\n    tag_44:\n      0x20\n      mul\n      add\n        /* \"Evm/zk/validators_verifier.sol\":20394:20478  (compressed[2], compressed[1]) = compress_g2(proof[3], proof[2], proof[5], proof[4]) */\n      dup3\n      dup2\n      mstore\n      pop\n      dup3\n      dup2\n      mstore\n      pop\n      pop\n      pop\n        /* \"Evm/zk/validators_verifier.sol\":20505:20536  compress_g1(proof[6], proof[7]) */\n      tag_46\n        /* \"Evm/zk/validators_verifier.sol\":20517:20522  proof */\n      dup3\n        /* \"Evm/zk/validators_verifier.sol\":20523:20524  6 */\n      0x06\n        /* \"Evm/zk/validators_verifier.sol\":20517:20525  proof[6] */\n      0x08\n      dup2\n      lt\n      tag_47\n      jumpi\n      tag_48\n      tag_26\n      jump\t// in\n    tag_48:\n    tag_47:\n      0x20\n      mul\n      add\n      calldataload\n        /* \"Evm/zk/validators_verifier.sol\":20527:20532  proof */\n      dup4\n        /* \"Evm/zk/validators_verifier.sol\":20533:20534  7 */\n      0x07\n        /* \"Evm/zk/validators_verifier.sol\":20527:20535  proof[7] */\n      0x08\n      dup2\n      lt\n      tag_49\n      jumpi\n      tag_50\n      tag_26\n      jump\t// in\n    tag_50:\n    tag_49:\n      0x20\n      mul\n      add\n      calldataload\n        /* \"Evm/zk/validators_verifier.sol\":20505:20516  compress_g1 */\n      tag_29\n        /* \"Evm/zk/validators_verifier.sol\":20505:20536  compress_g1(proof[6], proof[7]) */\n      jump\t// in\n    tag_46:\n        /* \"Evm/zk/validators_verifier.sol\":20489:20499  compressed */\n      dup2\n        /* \"Evm/zk/validators_verifier.sol\":20500:20501  3 */\n      0x03\n        /* \"Evm/zk/validators_verifier.sol\":20489:20502  compressed[3] */\n      0x04\n      dup2\n      lt\n      tag_51\n      jumpi\n      tag_52\n      tag_26\n      jump\t// in\n    tag_52:\n    tag_51:\n      0x20\n      mul\n      add\n        /* \"Evm/zk/validators_verifier.sol\":20489:20536  compressed[3] = compress_g1(proof[6], proof[7]) */\n      dup2\n      dup2\n      mstore\n      pop\n      pop\n        /* \"Evm/zk/validators_verifier.sol\":20219:20544  function compressProof(uint256[8] calldata proof)... */\n      swap2\n      swap1\n      pop\n      jump\t// out\n        /* \"Evm/zk/validators_verifier.sol\":23942:26116  function verifyProof(... */\n    tag_15:\n        /* \"Evm/zk/validators_verifier.sol\":24066:24075  uint256 x */\n      0x00\n        /* \"Evm/zk/validators_verifier.sol\":24077:24086  uint256 y */\n      0x00\n        /* \"Evm/zk/validators_verifier.sol\":24090:24111  publicInputMSM(input) */\n      tag_54\n        /* \"Evm/zk/validators_verifier.sol\":24105:24110  input */\n      dup4\n        /* \"Evm/zk/validators_verifier.sol\":24090:24104  publicInputMSM */\n      tag_55\n        /* \"Evm/zk/validators_verifier.sol\":24090:24111  publicInputMSM(input) */\n      jump\t// in\n    tag_54:\n        /* \"Evm/zk/validators_verifier.sol\":24065:24111  (uint256 x, uint256 y) = publicInputMSM(input) */\n      swap2\n      pop\n      swap2\n      pop\n        /* \"Evm/zk/validators_verifier.sol\":24302:24314  bool success */\n      0x00\n        /* \"Evm/zk/validators_verifier.sol\":24380:24384  0x40 */\n      0x40\n        /* \"Evm/zk/validators_verifier.sol\":24374:24385  mload(0x40) */\n      mload\n        /* \"Evm/zk/validators_verifier.sol\":24596:24601  0x100 */\n      0x0100\n        /* \"Evm/zk/validators_verifier.sol\":24589:24594  proof */\n      dup7\n        /* \"Evm/zk/validators_verifier.sol\":24586:24587  f */\n      dup3\n        /* \"Evm/zk/validators_verifier.sol\":24573:24602  calldatacopy(f, proof, 0x100) */\n      calldatacopy\n        /* \"Evm/zk/validators_verifier.sol\":24910:24923  DELTA_NEG_X_1 */\n      0x02726f86620461a7ab939720a72adb887a74fbaab08a690e752db52bec76628f\n        /* \"Evm/zk/validators_verifier.sol\":24902:24907  0x100 */\n      0x0100\n        /* \"Evm/zk/validators_verifier.sol\":24899:24900  f */\n      dup3\n        /* \"Evm/zk/validators_verifier.sol\":24895:24908  add(f, 0x100) */\n      add\n        /* \"Evm/zk/validators_verifier.sol\":24888:24924  mstore(add(f, 0x100), DELTA_NEG_X_1) */\n      mstore\n        /* \"Evm/zk/validators_verifier.sol\":24960:24973  DELTA_NEG_X_0 */\n      0x1e76ce8639edd037cd2c44fdd478ef620b36ebec457032967094785ccf9e30b3\n        /* \"Evm/zk/validators_verifier.sol\":24952:24957  0x120 */\n      0x0120\n        /* \"Evm/zk/validators_verifier.sol\":24949:24950  f */\n      dup3\n        /* \"Evm/zk/validators_verifier.sol\":24945:24958  add(f, 0x120) */\n      add\n        /* \"Evm/zk/validators_verifier.sol\":24938:24974  mstore(add(f, 0x120), DELTA_NEG_X_0) */\n      mstore\n        /* \"Evm/zk/validators_verifier.sol\":25010:25023  DELTA_NEG_Y_1 */\n      0x1641a69acd266f1f6139bb26de25227e59dfe11cd2be009dbaf130e50d7d644e\n        /* \"Evm/zk/validators_verifier.sol\":25002:25007  0x140 */\n      0x0140\n        /* \"Evm/zk/validators_verifier.sol\":24999:25000  f */\n      dup3\n        /* \"Evm/zk/validators_verifier.sol\":24995:25008  add(f, 0x140) */\n      add\n        /* \"Evm/zk/validators_verifier.sol\":24988:25024  mstore(add(f, 0x140), DELTA_NEG_Y_1) */\n      mstore\n        /* \"Evm/zk/validators_verifier.sol\":25060:25073  DELTA_NEG_Y_0 */\n      0x13add3d93bf72dca8875cc1fef240b901bdd4571e213fd26f7bfacb7479ae1de\n        /* \"Evm/zk/validators_verifier.sol\":25052:25057  0x160 */\n      0x0160\n        /* \"Evm/zk/validators_verifier.sol\":25049:25050  f */\n      dup3\n        /* \"Evm/zk/validators_verifier.sol\":25045:25058  add(f, 0x160) */\n      add\n        /* \"Evm/zk/validators_verifier.sol\":25038:25074  mstore(add(f, 0x160), DELTA_NEG_Y_0) */\n      mstore\n        /* \"Evm/zk/validators_verifier.sol\":25110:25117  ALPHA_X */\n      0x0d8d3d5d304499f3cb145eead07f0d83149f9c780fbbecd46ed0b982bfeee8bc\n        /* \"Evm/zk/validators_verifier.sol\":25102:25107  0x180 */\n      0x0180\n        /* \"Evm/zk/validators_verifier.sol\":25099:25100  f */\n      dup3\n        /* \"Evm/zk/validators_verifier.sol\":25095:25108  add(f, 0x180) */\n      add\n        /* \"Evm/zk/validators_verifier.sol\":25088:25118  mstore(add(f, 0x180), ALPHA_X) */\n      mstore\n        /* \"Evm/zk/validators_verifier.sol\":25154:25161  ALPHA_Y */\n      0x0cc17044379771e6bf6aad6c5b4b04e784f3bf4255a3622eea0ae5f1e4be70b7\n        /* \"Evm/zk/validators_verifier.sol\":25146:25151  0x1a0 */\n      0x01a0\n        /* \"Evm/zk/validators_verifier.sol\":25143:25144  f */\n      dup3\n        /* \"Evm/zk/validators_verifier.sol\":25139:25152  add(f, 0x1a0) */\n      add\n        /* \"Evm/zk/validators_verifier.sol\":25132:25162  mstore(add(f, 0x1a0), ALPHA_Y) */\n      mstore\n        /* \"Evm/zk/validators_verifier.sol\":25198:25210  BETA_NEG_X_1 */\n      0x1130845bae99ba7108cdc225a6a099b7cce3e844320cb2de5fa591249230d310\n        /* \"Evm/zk/validators_verifier.sol\":25190:25195  0x1c0 */\n      0x01c0\n        /* \"Evm/zk/validators_verifier.sol\":25187:25188  f */\n      dup3\n        /* \"Evm/zk/validators_verifier.sol\":25183:25196  add(f, 0x1c0) */\n      add\n        /* \"Evm/zk/validators_verifier.sol\":25176:25211  mstore(add(f, 0x1c0), BETA_NEG_X_1) */\n      mstore\n        /* \"Evm/zk/validators_verifier.sol\":25247:25259  BETA_NEG_X_0 */\n      0x1e5e686ce6a1efa2bd888320d98112a96e9a5b80cab2888d5c38f9c8ab13529a\n        /* \"Evm/zk/validators_verifier.sol\":25239:25244  0x1e0 */\n      0x01e0\n        /* \"Evm/zk/validators_verifier.sol\":25236:25237  f */\n      dup3\n        /* \"Evm/zk/validators_verifier.sol\":25232:25245  add(f, 0x1e0) */\n      add\n        /* \"Evm/zk/validators_verifier.sol\":25225:25260  mstore(add(f, 0x1e0), BETA_NEG_X_0) */\n      mstore\n        /* \"Evm/zk/validators_verifier.sol\":25296:25308  BETA_NEG_Y_1 */\n      0x25877f054e7fdc8e072ade4081eae7d81275ed3d5b8c3278f7977ab945703a1b\n        /* \"Evm/zk/validators_verifier.sol\":25288:25293  0x200 */\n      0x0200\n        /* \"Evm/zk/validators_verifier.sol\":25285:25286  f */\n      dup3\n        /* \"Evm/zk/validators_verifier.sol\":25281:25294  add(f, 0x200) */\n      add\n        /* \"Evm/zk/validators_verifier.sol\":25274:25309  mstore(add(f, 0x200), BETA_NEG_Y_1) */\n      mstore\n        /* \"Evm/zk/validators_verifier.sol\":25345:25357  BETA_NEG_Y_0 */\n      0x2c0eb915ddc31467549f3c1391b1da761068d788baa7ab71758786f9e26df184\n        /* \"Evm/zk/validators_verifier.sol\":25337:25342  0x220 */\n      0x0220\n        /* \"Evm/zk/validators_verifier.sol\":25334:25335  f */\n      dup3\n        /* \"Evm/zk/validators_verifier.sol\":25330:25343  add(f, 0x220) */\n      add\n        /* \"Evm/zk/validators_verifier.sol\":25323:25358  mstore(add(f, 0x220), BETA_NEG_Y_0) */\n      mstore\n        /* \"Evm/zk/validators_verifier.sol\":25394:25395  x */\n      dup4\n        /* \"Evm/zk/validators_verifier.sol\":25386:25391  0x240 */\n      0x0240\n        /* \"Evm/zk/validators_verifier.sol\":25383:25384  f */\n      dup3\n        /* \"Evm/zk/validators_verifier.sol\":25379:25392  add(f, 0x240) */\n      add\n        /* \"Evm/zk/validators_verifier.sol\":25372:25396  mstore(add(f, 0x240), x) */\n      mstore\n        /* \"Evm/zk/validators_verifier.sol\":25432:25433  y */\n      dup3\n        /* \"Evm/zk/validators_verifier.sol\":25424:25429  0x260 */\n      0x0260\n        /* \"Evm/zk/validators_verifier.sol\":25421:25422  f */\n      dup3\n        /* \"Evm/zk/validators_verifier.sol\":25417:25430  add(f, 0x260) */\n      add\n        /* \"Evm/zk/validators_verifier.sol\":25410:25434  mstore(add(f, 0x260), y) */\n      mstore\n        /* \"Evm/zk/validators_verifier.sol\":25470:25483  GAMMA_NEG_X_1 */\n      0x2aeef66db17ec822fe5bfa49d1f8e8f4d8aa410a443ba1ec624f5c034b4a5b81\n        /* \"Evm/zk/validators_verifier.sol\":25462:25467  0x280 */\n      0x0280\n        /* \"Evm/zk/validators_verifier.sol\":25459:25460  f */\n      dup3\n        /* \"Evm/zk/validators_verifier.sol\":25455:25468  add(f, 0x280) */\n      add\n        /* \"Evm/zk/validators_verifier.sol\":25448:25484  mstore(add(f, 0x280), GAMMA_NEG_X_1) */\n      mstore\n        /* \"Evm/zk/validators_verifier.sol\":25520:25533  GAMMA_NEG_X_0 */\n      0x0d5dd63b4e13fec5f90bf7b1529b6d59bcd714f0320dfa680a7428b026789148\n        /* \"Evm/zk/validators_verifier.sol\":25512:25517  0x2a0 */\n      0x02a0\n        /* \"Evm/zk/validators_verifier.sol\":25509:25510  f */\n      dup3\n        /* \"Evm/zk/validators_verifier.sol\":25505:25518  add(f, 0x2a0) */\n      add\n        /* \"Evm/zk/validators_verifier.sol\":25498:25534  mstore(add(f, 0x2a0), GAMMA_NEG_X_0) */\n      mstore\n        /* \"Evm/zk/validators_verifier.sol\":25570:25583  GAMMA_NEG_Y_1 */\n      0x2b1d2c7e797858d79ebb91534ef3ae9da7e6545640303a172384222d06b05490\n        /* \"Evm/zk/validators_verifier.sol\":25562:25567  0x2c0 */\n      0x02c0\n        /* \"Evm/zk/validators_verifier.sol\":25559:25560  f */\n      dup3\n        /* \"Evm/zk/validators_verifier.sol\":25555:25568  add(f, 0x2c0) */\n      add\n        /* \"Evm/zk/validators_verifier.sol\":25548:25584  mstore(add(f, 0x2c0), GAMMA_NEG_Y_1) */\n      mstore\n        /* \"Evm/zk/validators_verifier.sol\":25620:25633  GAMMA_NEG_Y_0 */\n      0x091420fbe454f7debb7717919f2befc2f04570488145f9baf58cf2db9038077f\n        /* \"Evm/zk/validators_verifier.sol\":25612:25617  0x2e0 */\n      0x02e0\n        /* \"Evm/zk/validators_verifier.sol\":25609:25610  f */\n      dup3\n        /* \"Evm/zk/validators_verifier.sol\":25605:25618  add(f, 0x2e0) */\n      add\n        /* \"Evm/zk/validators_verifier.sol\":25598:25634  mstore(add(f, 0x2e0), GAMMA_NEG_Y_0) */\n      mstore\n        /* \"Evm/zk/validators_verifier.sol\":25751:25755  0x20 */\n      0x20\n        /* \"Evm/zk/validators_verifier.sol\":25748:25749  f */\n      dup2\n        /* \"Evm/zk/validators_verifier.sol\":25741:25746  0x300 */\n      0x0300\n        /* \"Evm/zk/validators_verifier.sol\":25738:25739  f */\n      dup4\n        /* \"Evm/zk/validators_verifier.sol\":25719:25736  PRECOMPILE_VERIFY */\n      0x08\n        /* \"Evm/zk/validators_verifier.sol\":25712:25717  gas() */\n      gas\n        /* \"Evm/zk/validators_verifier.sol\":25701:25756  staticcall(gas(), PRECOMPILE_VERIFY, f, 0x300, f, 0x20) */\n      staticcall\n        /* \"Evm/zk/validators_verifier.sol\":25690:25756  success := staticcall(gas(), PRECOMPILE_VERIFY, f, 0x300, f, 0x20) */\n      swap2\n      pop\n        /* \"Evm/zk/validators_verifier.sol\":25868:25869  f */\n      dup1\n        /* \"Evm/zk/validators_verifier.sol\":25862:25870  mload(f) */\n      mload\n        /* \"Evm/zk/validators_verifier.sol\":25853:25860  success */\n      dup3\n        /* \"Evm/zk/validators_verifier.sol\":25849:25871  and(success, mload(f)) */\n      and\n        /* \"Evm/zk/validators_verifier.sol\":25838:25871  success := and(success, mload(f)) */\n      swap2\n      pop\n        /* \"Evm/zk/validators_verifier.sol\":24350:25882  {... */\n      pop\n        /* \"Evm/zk/validators_verifier.sol\":25897:25904  success */\n      dup1\n        /* \"Evm/zk/validators_verifier.sol\":25892:26109  if (!success) {... */\n      tag_56\n      jumpi\n        /* \"Evm/zk/validators_verifier.sol\":26083:26097  ProofInvalid() */\n      mload(0x40)\n      0x7fcdd1f400000000000000000000000000000000000000000000000000000000\n      dup2\n      mstore\n      0x04\n      add\n      mload(0x40)\n      dup1\n      swap2\n      sub\n      swap1\n      revert\n        /* \"Evm/zk/validators_verifier.sol\":25892:26109  if (!success) {... */\n    tag_56:\n        /* \"Evm/zk/validators_verifier.sol\":24054:26116  {... */\n      pop\n      pop\n      pop\n        /* \"Evm/zk/validators_verifier.sol\":23942:26116  function verifyProof(... */\n      pop\n      pop\n      jump\t// out\n        /* \"Evm/zk/validators_verifier.sol\":21103:23405  function verifyCompressedProof(... */\n    tag_19:\n        /* \"Evm/zk/validators_verifier.sol\":21246:21273  uint256[24] memory pairings */\n      tag_58\n      tag_59\n      jump\t// in\n    tag_58:\n        /* \"Evm/zk/validators_verifier.sol\":21302:21312  uint256 Ax */\n      0x00\n        /* \"Evm/zk/validators_verifier.sol\":21314:21324  uint256 Ay */\n      0x00\n        /* \"Evm/zk/validators_verifier.sol\":21328:21361  decompress_g1(compressedProof[0]) */\n      tag_60\n        /* \"Evm/zk/validators_verifier.sol\":21342:21357  compressedProof */\n      dup6\n        /* \"Evm/zk/validators_verifier.sol\":21358:21359  0 */\n      0x00\n        /* \"Evm/zk/validators_verifier.sol\":21342:21360  compressedProof[0] */\n      0x04\n      dup2\n      lt\n      tag_61\n      jumpi\n      tag_62\n      tag_26\n      jump\t// in\n    tag_62:\n    tag_61:\n      0x20\n      mul\n      add\n      calldataload\n        /* \"Evm/zk/validators_verifier.sol\":21328:21341  decompress_g1 */\n      tag_63\n        /* \"Evm/zk/validators_verifier.sol\":21328:21361  decompress_g1(compressedProof[0]) */\n      jump\t// in\n    tag_60:\n        /* \"Evm/zk/validators_verifier.sol\":21301:21361  (uint256 Ax, uint256 Ay) = decompress_g1(compressedProof[0]) */\n      swap2\n      pop\n      swap2\n      pop\n        /* \"Evm/zk/validators_verifier.sol\":21377:21388  uint256 Bx0 */\n      0x00\n        /* \"Evm/zk/validators_verifier.sol\":21390:21401  uint256 Bx1 */\n      0x00\n        /* \"Evm/zk/validators_verifier.sol\":21403:21414  uint256 By0 */\n      0x00\n        /* \"Evm/zk/validators_verifier.sol\":21416:21427  uint256 By1 */\n      0x00\n        /* \"Evm/zk/validators_verifier.sol\":21431:21484  decompress_g2(compressedProof[2], compressedProof[1]) */\n      tag_64\n        /* \"Evm/zk/validators_verifier.sol\":21445:21460  compressedProof */\n      dup10\n        /* \"Evm/zk/validators_verifier.sol\":21461:21462  2 */\n      0x02\n        /* \"Evm/zk/validators_verifier.sol\":21445:21463  compressedProof[2] */\n      0x04\n      dup2\n      lt\n      tag_65\n      jumpi\n      tag_66\n      tag_26\n      jump\t// in\n    tag_66:\n    tag_65:\n      0x20\n      mul\n      add\n      calldataload\n        /* \"Evm/zk/validators_verifier.sol\":21465:21480  compressedProof */\n      dup11\n        /* \"Evm/zk/validators_verifier.sol\":21481:21482  1 */\n      0x01\n        /* \"Evm/zk/validators_verifier.sol\":21465:21483  compressedProof[1] */\n      0x04\n      dup2\n      lt\n      tag_67\n      jumpi\n      tag_68\n      tag_26\n      jump\t// in\n    tag_68:\n    tag_67:\n      0x20\n      mul\n      add\n      calldataload\n        /* \"Evm/zk/validators_verifier.sol\":21431:21444  decompress_g2 */\n      tag_69\n        /* \"Evm/zk/validators_verifier.sol\":21431:21484  decompress_g2(compressedProof[2], compressedProof[1]) */\n      jump\t// in\n    tag_64:\n        /* \"Evm/zk/validators_verifier.sol\":21376:21484  (uint256 Bx0, uint256 Bx1, uint256 By0, uint256 By1) = decompress_g2(compressedProof[2], compressedProof[1]) */\n      swap4\n      pop\n      swap4\n      pop\n      swap4\n      pop\n      swap4\n      pop\n        /* \"Evm/zk/validators_verifier.sol\":21500:21510  uint256 Cx */\n      0x00\n        /* \"Evm/zk/validators_verifier.sol\":21512:21522  uint256 Cy */\n      0x00\n        /* \"Evm/zk/validators_verifier.sol\":21526:21559  decompress_g1(compressedProof[3]) */\n      tag_70\n        /* \"Evm/zk/validators_verifier.sol\":21540:21555  compressedProof */\n      dup12\n        /* \"Evm/zk/validators_verifier.sol\":21556:21557  3 */\n      0x03\n        /* \"Evm/zk/validators_verifier.sol\":21540:21558  compressedProof[3] */\n      0x04\n      dup2\n      lt\n      tag_71\n      jumpi\n      tag_72\n      tag_26\n      jump\t// in\n    tag_72:\n    tag_71:\n      0x20\n      mul\n      add\n      calldataload\n        /* \"Evm/zk/validators_verifier.sol\":21526:21539  decompress_g1 */\n      tag_63\n        /* \"Evm/zk/validators_verifier.sol\":21526:21559  decompress_g1(compressedProof[3]) */\n      jump\t// in\n    tag_70:\n        /* \"Evm/zk/validators_verifier.sol\":21499:21559  (uint256 Cx, uint256 Cy) = decompress_g1(compressedProof[3]) */\n      swap2\n      pop\n      swap2\n      pop\n        /* \"Evm/zk/validators_verifier.sol\":21575:21585  uint256 Lx */\n      0x00\n        /* \"Evm/zk/validators_verifier.sol\":21587:21597  uint256 Ly */\n      0x00\n        /* \"Evm/zk/validators_verifier.sol\":21601:21622  publicInputMSM(input) */\n      tag_73\n        /* \"Evm/zk/validators_verifier.sol\":21616:21621  input */\n      dup13\n        /* \"Evm/zk/validators_verifier.sol\":21601:21615  publicInputMSM */\n      tag_55\n        /* \"Evm/zk/validators_verifier.sol\":21601:21622  publicInputMSM(input) */\n      jump\t// in\n    tag_73:\n        /* \"Evm/zk/validators_verifier.sol\":21574:21622  (uint256 Lx, uint256 Ly) = publicInputMSM(input) */\n      swap2\n      pop\n      swap2\n      pop\n        /* \"Evm/zk/validators_verifier.sol\":21899:21901  Ax */\n      dup10\n        /* \"Evm/zk/validators_verifier.sol\":21884:21892  pairings */\n      dup12\n        /* \"Evm/zk/validators_verifier.sol\":21894:21895  0 */\n      0x00\n        /* \"Evm/zk/validators_verifier.sol\":21884:21896  pairings[ 0] */\n      0x18\n      dup2\n      lt\n      tag_74\n      jumpi\n      tag_75\n      tag_26\n      jump\t// in\n    tag_75:\n    tag_74:\n      0x20\n      mul\n      add\n        /* \"Evm/zk/validators_verifier.sol\":21884:21901  pairings[ 0] = Ax */\n      dup2\n      dup2\n      mstore\n      pop\n      pop\n        /* \"Evm/zk/validators_verifier.sol\":21931:21933  Ay */\n      dup9\n        /* \"Evm/zk/validators_verifier.sol\":21916:21924  pairings */\n      dup12\n        /* \"Evm/zk/validators_verifier.sol\":21926:21927  1 */\n      0x01\n        /* \"Evm/zk/validators_verifier.sol\":21916:21928  pairings[ 1] */\n      0x18\n      dup2\n      lt\n      tag_76\n      jumpi\n      tag_77\n      tag_26\n      jump\t// in\n    tag_77:\n    tag_76:\n      0x20\n      mul\n      add\n        /* \"Evm/zk/validators_verifier.sol\":21916:21933  pairings[ 1] = Ay */\n      dup2\n      dup2\n      mstore\n      pop\n      pop\n        /* \"Evm/zk/validators_verifier.sol\":21963:21966  Bx1 */\n      dup7\n        /* \"Evm/zk/validators_verifier.sol\":21948:21956  pairings */\n      dup12\n        /* \"Evm/zk/validators_verifier.sol\":21958:21959  2 */\n      0x02\n        /* \"Evm/zk/validators_verifier.sol\":21948:21960  pairings[ 2] */\n      0x18\n      dup2\n      lt\n      tag_78\n      jumpi\n      tag_79\n      tag_26\n      jump\t// in\n    tag_79:\n    tag_78:\n      0x20\n      mul\n      add\n        /* \"Evm/zk/validators_verifier.sol\":21948:21966  pairings[ 2] = Bx1 */\n      dup2\n      dup2\n      mstore\n      pop\n      pop\n        /* \"Evm/zk/validators_verifier.sol\":21996:21999  Bx0 */\n      dup8\n        /* \"Evm/zk/validators_verifier.sol\":21981:21989  pairings */\n      dup12\n        /* \"Evm/zk/validators_verifier.sol\":21991:21992  3 */\n      0x03\n        /* \"Evm/zk/validators_verifier.sol\":21981:21993  pairings[ 3] */\n      0x18\n      dup2\n      lt\n      tag_80\n      jumpi\n      tag_81\n      tag_26\n      jump\t// in\n    tag_81:\n    tag_80:\n      0x20\n      mul\n      add\n        /* \"Evm/zk/validators_verifier.sol\":21981:21999  pairings[ 3] = Bx0 */\n      dup2\n      dup2\n      mstore\n      pop\n      pop\n        /* \"Evm/zk/validators_verifier.sol\":22029:22032  By1 */\n      dup5\n        /* \"Evm/zk/validators_verifier.sol\":22014:22022  pairings */\n      dup12\n        /* \"Evm/zk/validators_verifier.sol\":22024:22025  4 */\n      0x04\n        /* \"Evm/zk/validators_verifier.sol\":22014:22026  pairings[ 4] */\n      0x18\n      dup2\n      lt\n      tag_82\n      jumpi\n      tag_83\n      tag_26\n      jump\t// in\n    tag_83:\n    tag_82:\n      0x20\n      mul\n      add\n        /* \"Evm/zk/validators_verifier.sol\":22014:22032  pairings[ 4] = By1 */\n      dup2\n      dup2\n      mstore\n      pop\n      pop\n        /* \"Evm/zk/validators_verifier.sol\":22062:22065  By0 */\n      dup6\n        /* \"Evm/zk/validators_verifier.sol\":22047:22055  pairings */\n      dup12\n        /* \"Evm/zk/validators_verifier.sol\":22057:22058  5 */\n      0x05\n        /* \"Evm/zk/validators_verifier.sol\":22047:22059  pairings[ 5] */\n      0x18\n      dup2\n      lt\n      tag_84\n      jumpi\n      tag_85\n      tag_26\n      jump\t// in\n    tag_85:\n    tag_84:\n      0x20\n      mul\n      add\n        /* \"Evm/zk/validators_verifier.sol\":22047:22065  pairings[ 5] = By0 */\n      dup2\n      dup2\n      mstore\n      pop\n      pop\n        /* \"Evm/zk/validators_verifier.sol\":22121:22123  Cx */\n      dup4\n        /* \"Evm/zk/validators_verifier.sol\":22106:22114  pairings */\n      dup12\n        /* \"Evm/zk/validators_verifier.sol\":22116:22117  6 */\n      0x06\n        /* \"Evm/zk/validators_verifier.sol\":22106:22118  pairings[ 6] */\n      0x18\n      dup2\n      lt\n      tag_86\n      jumpi\n      tag_87\n      tag_26\n      jump\t// in\n    tag_87:\n    tag_86:\n      0x20\n      mul\n      add\n        /* \"Evm/zk/validators_verifier.sol\":22106:22123  pairings[ 6] = Cx */\n      dup2\n      dup2\n      mstore\n      pop\n      pop\n        /* \"Evm/zk/validators_verifier.sol\":22153:22155  Cy */\n      dup3\n        /* \"Evm/zk/validators_verifier.sol\":22138:22146  pairings */\n      dup12\n        /* \"Evm/zk/validators_verifier.sol\":22148:22149  7 */\n      0x07\n        /* \"Evm/zk/validators_verifier.sol\":22138:22150  pairings[ 7] */\n      0x18\n      dup2\n      lt\n      tag_88\n      jumpi\n      tag_89\n      tag_26\n      jump\t// in\n    tag_89:\n    tag_88:\n      0x20\n      mul\n      add\n        /* \"Evm/zk/validators_verifier.sol\":22138:22155  pairings[ 7] = Cy */\n      dup2\n      dup2\n      mstore\n      pop\n      pop\n        /* \"Evm/zk/validators_verifier.sol\":4216:4292  1106815979351022754634534558936817756830205659670947528107377203558370140815 */\n      0x02726f86620461a7ab939720a72adb887a74fbaab08a690e752db52bec76628f\n        /* \"Evm/zk/validators_verifier.sol\":22170:22178  pairings */\n      dup12\n        /* \"Evm/zk/validators_verifier.sol\":22180:22181  8 */\n      0x08\n        /* \"Evm/zk/validators_verifier.sol\":22170:22182  pairings[ 8] */\n      0x18\n      dup2\n      lt\n      tag_90\n      jumpi\n      tag_91\n      tag_26\n      jump\t// in\n    tag_91:\n    tag_90:\n      0x20\n      mul\n      add\n        /* \"Evm/zk/validators_verifier.sol\":22170:22198  pairings[ 8] = DELTA_NEG_X_1 */\n      dup2\n      dup2\n      mstore\n      pop\n      pop\n        /* \"Evm/zk/validators_verifier.sol\":4099:4176  13779298789622764619930165921475610092305493600092346493894848097872552800435 */\n      0x1e76ce8639edd037cd2c44fdd478ef620b36ebec457032967094785ccf9e30b3\n        /* \"Evm/zk/validators_verifier.sol\":22213:22221  pairings */\n      dup12\n        /* \"Evm/zk/validators_verifier.sol\":22223:22224  9 */\n      0x09\n        /* \"Evm/zk/validators_verifier.sol\":22213:22225  pairings[ 9] */\n      0x18\n      dup2\n      lt\n      tag_92\n      jumpi\n      tag_93\n      tag_26\n      jump\t// in\n    tag_93:\n    tag_92:\n      0x20\n      mul\n      add\n        /* \"Evm/zk/validators_verifier.sol\":22213:22241  pairings[ 9] = DELTA_NEG_X_0 */\n      dup2\n      dup2\n      mstore\n      pop\n      pop\n        /* \"Evm/zk/validators_verifier.sol\":4448:4525  10066877591372640152869092301907087735302730823301939084136611601509013873742 */\n      0x1641a69acd266f1f6139bb26de25227e59dfe11cd2be009dbaf130e50d7d644e\n        /* \"Evm/zk/validators_verifier.sol\":22256:22264  pairings */\n      dup12\n        /* \"Evm/zk/validators_verifier.sol\":22265:22267  10 */\n      0x0a\n        /* \"Evm/zk/validators_verifier.sol\":22256:22268  pairings[10] */\n      0x18\n      dup2\n      lt\n      tag_94\n      jumpi\n      tag_95\n      tag_26\n      jump\t// in\n    tag_95:\n    tag_94:\n      0x20\n      mul\n      add\n        /* \"Evm/zk/validators_verifier.sol\":22256:22284  pairings[10] = DELTA_NEG_Y_1 */\n      dup2\n      dup2\n      mstore\n      pop\n      pop\n        /* \"Evm/zk/validators_verifier.sol\":4332:4408  8901070790391430147151047421123508886059838666548837706980023138277356397022 */\n      0x13add3d93bf72dca8875cc1fef240b901bdd4571e213fd26f7bfacb7479ae1de\n        /* \"Evm/zk/validators_verifier.sol\":22299:22307  pairings */\n      dup12\n        /* \"Evm/zk/validators_verifier.sol\":22308:22310  11 */\n      0x0b\n        /* \"Evm/zk/validators_verifier.sol\":22299:22311  pairings[11] */\n      0x18\n      dup2\n      lt\n      tag_96\n      jumpi\n      tag_97\n      tag_26\n      jump\t// in\n    tag_97:\n    tag_96:\n      0x20\n      mul\n      add\n        /* \"Evm/zk/validators_verifier.sol\":22299:22327  pairings[11] = DELTA_NEG_Y_0 */\n      dup2\n      dup2\n      mstore\n      pop\n      pop\n        /* \"Evm/zk/validators_verifier.sol\":2792:2868  6129615986601620478126188891825046351336065640888225981278972669095700261052 */\n      0x0d8d3d5d304499f3cb145eead07f0d83149f9c780fbbecd46ed0b982bfeee8bc\n        /* \"Evm/zk/validators_verifier.sol\":22369:22377  pairings */\n      dup12\n        /* \"Evm/zk/validators_verifier.sol\":22378:22380  12 */\n      0x0c\n        /* \"Evm/zk/validators_verifier.sol\":22369:22381  pairings[12] */\n      0x18\n      dup2\n      lt\n      tag_98\n      jumpi\n      tag_99\n      tag_26\n      jump\t// in\n    tag_99:\n    tag_98:\n      0x20\n      mul\n      add\n        /* \"Evm/zk/validators_verifier.sol\":22369:22391  pairings[12] = ALPHA_X */\n      dup2\n      dup2\n      mstore\n      pop\n      pop\n        /* \"Evm/zk/validators_verifier.sol\":2902:2978  5769530501223115616712610312446058382415353419881970432772822644868499009719 */\n      0x0cc17044379771e6bf6aad6c5b4b04e784f3bf4255a3622eea0ae5f1e4be70b7\n        /* \"Evm/zk/validators_verifier.sol\":22406:22414  pairings */\n      dup12\n        /* \"Evm/zk/validators_verifier.sol\":22415:22417  13 */\n      0x0d\n        /* \"Evm/zk/validators_verifier.sol\":22406:22418  pairings[13] */\n      0x18\n      dup2\n      lt\n      tag_100\n      jumpi\n      tag_101\n      tag_26\n      jump\t// in\n    tag_101:\n    tag_100:\n      0x20\n      mul\n      add\n        /* \"Evm/zk/validators_verifier.sol\":22406:22428  pairings[13] = ALPHA_Y */\n      dup2\n      dup2\n      mstore\n      pop\n      pop\n        /* \"Evm/zk/validators_verifier.sol\":3183:3259  7775040587285393014945753760569705398357709374755242788010194522920780354320 */\n      0x1130845bae99ba7108cdc225a6a099b7cce3e844320cb2de5fa591249230d310\n        /* \"Evm/zk/validators_verifier.sol\":22443:22451  pairings */\n      dup12\n        /* \"Evm/zk/validators_verifier.sol\":22452:22454  14 */\n      0x0e\n        /* \"Evm/zk/validators_verifier.sol\":22443:22455  pairings[14] */\n      0x18\n      dup2\n      lt\n      tag_102\n      jumpi\n      tag_103\n      tag_26\n      jump\t// in\n    tag_103:\n    tag_102:\n      0x20\n      mul\n      add\n        /* \"Evm/zk/validators_verifier.sol\":22443:22470  pairings[14] = BETA_NEG_X_1 */\n      dup2\n      dup2\n      mstore\n      pop\n      pop\n        /* \"Evm/zk/validators_verifier.sol\":3067:3144  13736189799169909771014278113063276203786228949879587573259475348816934425242 */\n      0x1e5e686ce6a1efa2bd888320d98112a96e9a5b80cab2888d5c38f9c8ab13529a\n        /* \"Evm/zk/validators_verifier.sol\":22485:22493  pairings */\n      dup12\n        /* \"Evm/zk/validators_verifier.sol\":22494:22496  15 */\n      0x0f\n        /* \"Evm/zk/validators_verifier.sol\":22485:22497  pairings[15] */\n      0x18\n      dup2\n      lt\n      tag_104\n      jumpi\n      tag_105\n      tag_26\n      jump\t// in\n    tag_105:\n    tag_104:\n      0x20\n      mul\n      add\n        /* \"Evm/zk/validators_verifier.sol\":22485:22512  pairings[15] = BETA_NEG_X_0 */\n      dup2\n      dup2\n      mstore\n      pop\n      pop\n        /* \"Evm/zk/validators_verifier.sol\":3414:3491  16974976416178671929397279989722725395818226222246592834190949210729082796571 */\n      0x25877f054e7fdc8e072ade4081eae7d81275ed3d5b8c3278f7977ab945703a1b\n        /* \"Evm/zk/validators_verifier.sol\":22527:22535  pairings */\n      dup12\n        /* \"Evm/zk/validators_verifier.sol\":22536:22538  16 */\n      0x10\n        /* \"Evm/zk/validators_verifier.sol\":22527:22539  pairings[16] */\n      0x18\n      dup2\n      lt\n      tag_106\n      jumpi\n      tag_107\n      tag_26\n      jump\t// in\n    tag_107:\n    tag_106:\n      0x20\n      mul\n      add\n        /* \"Evm/zk/validators_verifier.sol\":22527:22554  pairings[16] = BETA_NEG_Y_1 */\n      dup2\n      dup2\n      mstore\n      pop\n      pop\n        /* \"Evm/zk/validators_verifier.sol\":3298:3375  19927778609157922326802376969275601311134899406350968260394480515403521847684 */\n      0x2c0eb915ddc31467549f3c1391b1da761068d788baa7ab71758786f9e26df184\n        /* \"Evm/zk/validators_verifier.sol\":22569:22577  pairings */\n      dup12\n        /* \"Evm/zk/validators_verifier.sol\":22578:22580  17 */\n      0x11\n        /* \"Evm/zk/validators_verifier.sol\":22569:22581  pairings[17] */\n      0x18\n      dup2\n      lt\n      tag_108\n      jumpi\n      tag_109\n      tag_26\n      jump\t// in\n    tag_109:\n    tag_108:\n      0x20\n      mul\n      add\n        /* \"Evm/zk/validators_verifier.sol\":22569:22596  pairings[17] = BETA_NEG_Y_0 */\n      dup2\n      dup2\n      mstore\n      pop\n      pop\n        /* \"Evm/zk/validators_verifier.sol\":22656:22658  Lx */\n      dup2\n        /* \"Evm/zk/validators_verifier.sol\":22641:22649  pairings */\n      dup12\n        /* \"Evm/zk/validators_verifier.sol\":22650:22652  18 */\n      0x12\n        /* \"Evm/zk/validators_verifier.sol\":22641:22653  pairings[18] */\n      0x18\n      dup2\n      lt\n      tag_110\n      jumpi\n      tag_111\n      tag_26\n      jump\t// in\n    tag_111:\n    tag_110:\n      0x20\n      mul\n      add\n        /* \"Evm/zk/validators_verifier.sol\":22641:22658  pairings[18] = Lx */\n      dup2\n      dup2\n      mstore\n      pop\n      pop\n        /* \"Evm/zk/validators_verifier.sol\":22688:22690  Ly */\n      dup1\n        /* \"Evm/zk/validators_verifier.sol\":22673:22681  pairings */\n      dup12\n        /* \"Evm/zk/validators_verifier.sol\":22682:22684  19 */\n      0x13\n        /* \"Evm/zk/validators_verifier.sol\":22673:22685  pairings[19] */\n      0x18\n      dup2\n      lt\n      tag_112\n      jumpi\n      tag_113\n      tag_26\n      jump\t// in\n    tag_113:\n    tag_112:\n      0x20\n      mul\n      add\n        /* \"Evm/zk/validators_verifier.sol\":22673:22690  pairings[19] = Ly */\n      dup2\n      dup2\n      mstore\n      pop\n      pop\n        /* \"Evm/zk/validators_verifier.sol\":3698:3775  19419350028842371606389308529333851629912188599521110225722725511001459547009 */\n      0x2aeef66db17ec822fe5bfa49d1f8e8f4d8aa410a443ba1ec624f5c034b4a5b81\n        /* \"Evm/zk/validators_verifier.sol\":22705:22713  pairings */\n      dup12\n        /* \"Evm/zk/validators_verifier.sol\":22714:22716  20 */\n      0x14\n        /* \"Evm/zk/validators_verifier.sol\":22705:22717  pairings[20] */\n      0x18\n      dup2\n      lt\n      tag_114\n      jumpi\n      tag_115\n      tag_26\n      jump\t// in\n    tag_115:\n    tag_114:\n      0x20\n      mul\n      add\n        /* \"Evm/zk/validators_verifier.sol\":22705:22733  pairings[20] = GAMMA_NEG_X_1 */\n      dup2\n      dup2\n      mstore\n      pop\n      pop\n        /* \"Evm/zk/validators_verifier.sol\":3582:3658  6045862381184503635796348117316853467217821090421478190667955100014549176648 */\n      0x0d5dd63b4e13fec5f90bf7b1529b6d59bcd714f0320dfa680a7428b026789148\n        /* \"Evm/zk/validators_verifier.sol\":22748:22756  pairings */\n      dup12\n        /* \"Evm/zk/validators_verifier.sol\":22757:22759  21 */\n      0x15\n        /* \"Evm/zk/validators_verifier.sol\":22748:22760  pairings[21] */\n      0x18\n      dup2\n      lt\n      tag_116\n      jumpi\n      tag_117\n      tag_26\n      jump\t// in\n    tag_117:\n    tag_116:\n      0x20\n      mul\n      add\n        /* \"Evm/zk/validators_verifier.sol\":22748:22776  pairings[21] = GAMMA_NEG_X_0 */\n      dup2\n      dup2\n      mstore\n      pop\n      pop\n        /* \"Evm/zk/validators_verifier.sol\":3931:4008  19500998140543861884030053585633761459277000903100173277668314685528624616592 */\n      0x2b1d2c7e797858d79ebb91534ef3ae9da7e6545640303a172384222d06b05490\n        /* \"Evm/zk/validators_verifier.sol\":22791:22799  pairings */\n      dup12\n        /* \"Evm/zk/validators_verifier.sol\":22800:22802  22 */\n      0x16\n        /* \"Evm/zk/validators_verifier.sol\":22791:22803  pairings[22] */\n      0x18\n      dup2\n      lt\n      tag_118\n      jumpi\n      tag_119\n      tag_26\n      jump\t// in\n    tag_119:\n    tag_118:\n      0x20\n      mul\n      add\n        /* \"Evm/zk/validators_verifier.sol\":22791:22819  pairings[22] = GAMMA_NEG_Y_1 */\n      dup2\n      dup2\n      mstore\n      pop\n      pop\n        /* \"Evm/zk/validators_verifier.sol\":3815:3891  4106380225420832342748304297790692319122012716760632362916044904066021066623 */\n      0x091420fbe454f7debb7717919f2befc2f04570488145f9baf58cf2db9038077f\n        /* \"Evm/zk/validators_verifier.sol\":22834:22842  pairings */\n      dup12\n        /* \"Evm/zk/validators_verifier.sol\":22843:22845  23 */\n      0x17\n        /* \"Evm/zk/validators_verifier.sol\":22834:22846  pairings[23] */\n      0x18\n      dup2\n      lt\n      tag_120\n      jumpi\n      tag_121\n      tag_26\n      jump\t// in\n    tag_121:\n    tag_120:\n      0x20\n      mul\n      add\n        /* \"Evm/zk/validators_verifier.sol\":22834:22862  pairings[23] = GAMMA_NEG_Y_0 */\n      dup2\n      dup2\n      mstore\n      pop\n      pop\n        /* \"Evm/zk/validators_verifier.sol\":22919:22931  bool success */\n      0x00\n        /* \"Evm/zk/validators_verifier.sol\":22946:22970  uint256[1] memory output */\n      tag_122\n      tag_123\n      jump\t// in\n    tag_122:\n        /* \"Evm/zk/validators_verifier.sol\":23102:23106  0x20 */\n      0x20\n        /* \"Evm/zk/validators_verifier.sol\":23094:23100  output */\n      dup2\n        /* \"Evm/zk/validators_verifier.sol\":23087:23092  0x300 */\n      0x0300\n        /* \"Evm/zk/validators_verifier.sol\":23077:23085  pairings */\n      dup16\n        /* \"Evm/zk/validators_verifier.sol\":23058:23075  PRECOMPILE_VERIFY */\n      0x08\n        /* \"Evm/zk/validators_verifier.sol\":23051:23056  gas() */\n      gas\n        /* \"Evm/zk/validators_verifier.sol\":23040:23107  staticcall(gas(), PRECOMPILE_VERIFY, pairings, 0x300, output, 0x20) */\n      staticcall\n        /* \"Evm/zk/validators_verifier.sol\":23029:23107  success := staticcall(gas(), PRECOMPILE_VERIFY, pairings, 0x300, output, 0x20) */\n      swap2\n      pop\n        /* \"Evm/zk/validators_verifier.sol\":23141:23148  success */\n      dup2\n        /* \"Evm/zk/validators_verifier.sol\":23140:23148  !success */\n      iszero\n        /* \"Evm/zk/validators_verifier.sol\":23140:23166  !success || output[0] != 1 */\n      dup1\n      tag_124\n      jumpi\n      pop\n        /* \"Evm/zk/validators_verifier.sol\":23165:23166  1 */\n      0x01\n        /* \"Evm/zk/validators_verifier.sol\":23152:23158  output */\n      dup2\n        /* \"Evm/zk/validators_verifier.sol\":23159:23160  0 */\n      0x00\n        /* \"Evm/zk/validators_verifier.sol\":23152:23161  output[0] */\n      0x01\n      dup2\n      lt\n      tag_125\n      jumpi\n      tag_126\n      tag_26\n      jump\t// in\n    tag_126:\n    tag_125:\n      0x20\n      mul\n      add\n      mload\n        /* \"Evm/zk/validators_verifier.sol\":23152:23166  output[0] != 1 */\n      eq\n      iszero\n        /* \"Evm/zk/validators_verifier.sol\":23140:23166  !success || output[0] != 1 */\n    tag_124:\n        /* \"Evm/zk/validators_verifier.sol\":23136:23387  if (!success || output[0] != 1) {... */\n      iszero\n      tag_127\n      jumpi\n        /* \"Evm/zk/validators_verifier.sol\":23357:23371  ProofInvalid() */\n      mload(0x40)\n      0x7fcdd1f400000000000000000000000000000000000000000000000000000000\n      dup2\n      mstore\n      0x04\n      add\n      mload(0x40)\n      dup1\n      swap2\n      sub\n      swap1\n      revert\n        /* \"Evm/zk/validators_verifier.sol\":23136:23387  if (!success || output[0] != 1) {... */\n    tag_127:\n        /* \"Evm/zk/validators_verifier.sol\":21286:23398  {... */\n      pop\n      pop\n      pop\n      pop\n      pop\n      pop\n      pop\n      pop\n      pop\n      pop\n      pop\n      pop\n        /* \"Evm/zk/validators_verifier.sol\":21235:23405  {... */\n      pop\n        /* \"Evm/zk/validators_verifier.sol\":21103:23405  function verifyCompressedProof(... */\n      pop\n      pop\n      jump\t// out\n        /* \"Evm/zk/validators_verifier.sol\":10163:10883  function compress_g1(uint256 x, uint256 y) internal view returns (uint256 c) {... */\n    tag_29:\n        /* \"Evm/zk/validators_verifier.sol\":10229:10238  uint256 c */\n      0x00\n        /* \"Evm/zk/validators_verifier.sol\":1423:1489  0x30644e72e131a029b85045b68181585d97816a916871ca8d3c208c16d87cfd47 */\n      0x30644e72e131a029b85045b68181585d97816a916871ca8d3c208c16d87cfd47\n        /* \"Evm/zk/validators_verifier.sol\":10255:10256  x */\n      dup4\n        /* \"Evm/zk/validators_verifier.sol\":10255:10261  x >= P */\n      lt\n      iszero\n        /* \"Evm/zk/validators_verifier.sol\":10255:10271  x >= P || y >= P */\n      dup1\n      tag_129\n      jumpi\n      pop\n        /* \"Evm/zk/validators_verifier.sol\":1423:1489  0x30644e72e131a029b85045b68181585d97816a916871ca8d3c208c16d87cfd47 */\n      0x30644e72e131a029b85045b68181585d97816a916871ca8d3c208c16d87cfd47\n        /* \"Evm/zk/validators_verifier.sol\":10265:10266  y */\n      dup3\n        /* \"Evm/zk/validators_verifier.sol\":10265:10271  y >= P */\n      lt\n      iszero\n        /* \"Evm/zk/validators_verifier.sol\":10255:10271  x >= P || y >= P */\n    tag_129:\n        /* \"Evm/zk/validators_verifier.sol\":10251:10360  if (x >= P || y >= P) {... */\n      iszero\n      tag_130\n      jumpi\n        /* \"Evm/zk/validators_verifier.sol\":10334:10348  ProofInvalid() */\n      mload(0x40)\n      0x7fcdd1f400000000000000000000000000000000000000000000000000000000\n      dup2\n      mstore\n      0x04\n      add\n      mload(0x40)\n      dup1\n      swap2\n      sub\n      swap1\n      revert\n        /* \"Evm/zk/validators_verifier.sol\":10251:10360  if (x >= P || y >= P) {... */\n    tag_130:\n        /* \"Evm/zk/validators_verifier.sol\":10379:10380  0 */\n      0x00\n        /* \"Evm/zk/validators_verifier.sol\":10374:10375  x */\n      dup4\n        /* \"Evm/zk/validators_verifier.sol\":10374:10380  x == 0 */\n      eq\n        /* \"Evm/zk/validators_verifier.sol\":10374:10390  x == 0 && y == 0 */\n      dup1\n      iszero\n      tag_131\n      jumpi\n      pop\n        /* \"Evm/zk/validators_verifier.sol\":10389:10390  0 */\n      0x00\n        /* \"Evm/zk/validators_verifier.sol\":10384:10385  y */\n      dup3\n        /* \"Evm/zk/validators_verifier.sol\":10384:10390  y == 0 */\n      eq\n        /* \"Evm/zk/validators_verifier.sol\":10374:10390  x == 0 && y == 0 */\n    tag_131:\n        /* \"Evm/zk/validators_verifier.sol\":10370:10461  if (x == 0 && y == 0) {... */\n      iszero\n      tag_132\n      jumpi\n        /* \"Evm/zk/validators_verifier.sol\":10448:10449  0 */\n      0x00\n        /* \"Evm/zk/validators_verifier.sol\":10441:10449  return 0 */\n      swap1\n      pop\n      jump(tag_128)\n        /* \"Evm/zk/validators_verifier.sol\":10370:10461  if (x == 0 && y == 0) {... */\n    tag_132:\n        /* \"Evm/zk/validators_verifier.sol\":10566:10579  uint256 y_pos */\n      0x00\n        /* \"Evm/zk/validators_verifier.sol\":10582:10634  sqrt_Fp(addmod(mulmod(mulmod(x, x, P), x, P), 3, P)) */\n      tag_133\n        /* \"Evm/zk/validators_verifier.sol\":1423:1489  0x30644e72e131a029b85045b68181585d97816a916871ca8d3c208c16d87cfd47 */\n      0x30644e72e131a029b85045b68181585d97816a916871ca8d3c208c16d87cfd47\n        /* \"Evm/zk/validators_verifier.sol\":10590:10633  addmod(mulmod(mulmod(x, x, P), x, P), 3, P) */\n      dup1\n      tag_134\n      jumpi\n      tag_135\n      tag_136\n      jump\t// in\n    tag_135:\n    tag_134:\n        /* \"Evm/zk/validators_verifier.sol\":10628:10629  3 */\n      0x03\n        /* \"Evm/zk/validators_verifier.sol\":1423:1489  0x30644e72e131a029b85045b68181585d97816a916871ca8d3c208c16d87cfd47 */\n      0x30644e72e131a029b85045b68181585d97816a916871ca8d3c208c16d87cfd47\n        /* \"Evm/zk/validators_verifier.sol\":10597:10626  mulmod(mulmod(x, x, P), x, P) */\n      dup1\n      tag_137\n      jumpi\n      tag_138\n      tag_136\n      jump\t// in\n    tag_138:\n    tag_137:\n        /* \"Evm/zk/validators_verifier.sol\":10621:10622  x */\n      dup8\n        /* \"Evm/zk/validators_verifier.sol\":1423:1489  0x30644e72e131a029b85045b68181585d97816a916871ca8d3c208c16d87cfd47 */\n      0x30644e72e131a029b85045b68181585d97816a916871ca8d3c208c16d87cfd47\n        /* \"Evm/zk/validators_verifier.sol\":10604:10619  mulmod(x, x, P) */\n      dup1\n      tag_139\n      jumpi\n      tag_140\n      tag_136\n      jump\t// in\n    tag_140:\n    tag_139:\n        /* \"Evm/zk/validators_verifier.sol\":10614:10615  x */\n      dup10\n        /* \"Evm/zk/validators_verifier.sol\":10611:10612  x */\n      dup11\n        /* \"Evm/zk/validators_verifier.sol\":10604:10619  mulmod(x, x, P) */\n      mulmod\n        /* \"Evm/zk/validators_verifier.sol\":10597:10626  mulmod(mulmod(x, x, P), x, P) */\n      mulmod\n        /* \"Evm/zk/validators_verifier.sol\":10590:10633  addmod(mulmod(mulmod(x, x, P), x, P), 3, P) */\n      addmod\n        /* \"Evm/zk/validators_verifier.sol\":10582:10589  sqrt_Fp */\n      tag_141\n        /* \"Evm/zk/validators_verifier.sol\":10582:10634  sqrt_Fp(addmod(mulmod(mulmod(x, x, P), x, P), 3, P)) */\n      jump\t// in\n    tag_133:\n        /* \"Evm/zk/validators_verifier.sol\":10566:10634  uint256 y_pos = sqrt_Fp(addmod(mulmod(mulmod(x, x, P), x, P), 3, P)) */\n      swap1\n      pop\n        /* \"Evm/zk/validators_verifier.sol\":10654:10659  y_pos */\n      dup1\n        /* \"Evm/zk/validators_verifier.sol\":10649:10650  y */\n      dup4\n        /* \"Evm/zk/validators_verifier.sol\":10649:10659  y == y_pos */\n      sub\n        /* \"Evm/zk/validators_verifier.sol\":10645:10876  if (y == y_pos) {... */\n      tag_142\n      jumpi\n        /* \"Evm/zk/validators_verifier.sol\":10694:10695  0 */\n      0x00\n        /* \"Evm/zk/validators_verifier.sol\":10689:10690  1 */\n      0x01\n        /* \"Evm/zk/validators_verifier.sol\":10684:10685  x */\n      dup6\n        /* \"Evm/zk/validators_verifier.sol\":10684:10690  x << 1 */\n      swap1\n      shl\n        /* \"Evm/zk/validators_verifier.sol\":10683:10695  (x << 1) | 0 */\n      or\n        /* \"Evm/zk/validators_verifier.sol\":10676:10695  return (x << 1) | 0 */\n      swap2\n      pop\n      pop\n      jump(tag_128)\n        /* \"Evm/zk/validators_verifier.sol\":10645:10876  if (y == y_pos) {... */\n    tag_142:\n        /* \"Evm/zk/validators_verifier.sol\":10722:10735  negate(y_pos) */\n      tag_144\n        /* \"Evm/zk/validators_verifier.sol\":10729:10734  y_pos */\n      dup2\n        /* \"Evm/zk/validators_verifier.sol\":10722:10728  negate */\n      tag_145\n        /* \"Evm/zk/validators_verifier.sol\":10722:10735  negate(y_pos) */\n      jump\t// in\n    tag_144:\n        /* \"Evm/zk/validators_verifier.sol\":10717:10718  y */\n      dup4\n        /* \"Evm/zk/validators_verifier.sol\":10717:10735  y == negate(y_pos) */\n      sub\n        /* \"Evm/zk/validators_verifier.sol\":10713:10876  if (y == negate(y_pos)) {... */\n      tag_146\n      jumpi\n        /* \"Evm/zk/validators_verifier.sol\":10770:10771  1 */\n      0x01\n        /* \"Evm/zk/validators_verifier.sol\":10765:10766  1 */\n      dup1\n        /* \"Evm/zk/validators_verifier.sol\":10760:10761  x */\n      dup6\n        /* \"Evm/zk/validators_verifier.sol\":10760:10766  x << 1 */\n      swap1\n      shl\n        /* \"Evm/zk/validators_verifier.sol\":10759:10771  (x << 1) | 1 */\n      or\n        /* \"Evm/zk/validators_verifier.sol\":10752:10771  return (x << 1) | 1 */\n      swap2\n      pop\n      pop\n      jump(tag_128)\n        /* \"Evm/zk/validators_verifier.sol\":10713:10876  if (y == negate(y_pos)) {... */\n    tag_146:\n        /* \"Evm/zk/validators_verifier.sol\":10850:10864  ProofInvalid() */\n      mload(0x40)\n      0x7fcdd1f400000000000000000000000000000000000000000000000000000000\n      dup2\n      mstore\n      0x04\n      add\n      mload(0x40)\n      dup1\n      swap2\n      sub\n      swap1\n      revert\n        /* \"Evm/zk/validators_verifier.sol\":10163:10883  function compress_g1(uint256 x, uint256 y) internal view returns (uint256 c) {... */\n    tag_128:\n      swap3\n      swap2\n      pop\n      pop\n      jump\t// out\n        /* \"Evm/zk/validators_verifier.sol\":12921:14624  function compress_g2(uint256 x0, uint256 x1, uint256 y0, uint256 y1)... */\n    tag_41:\n        /* \"Evm/zk/validators_verifier.sol\":13018:13028  uint256 c0 */\n      0x00\n        /* \"Evm/zk/validators_verifier.sol\":13030:13040  uint256 c1 */\n      0x00\n        /* \"Evm/zk/validators_verifier.sol\":1423:1489  0x30644e72e131a029b85045b68181585d97816a916871ca8d3c208c16d87cfd47 */\n      0x30644e72e131a029b85045b68181585d97816a916871ca8d3c208c16d87cfd47\n        /* \"Evm/zk/validators_verifier.sol\":13057:13059  x0 */\n      dup7\n        /* \"Evm/zk/validators_verifier.sol\":13057:13064  x0 >= P */\n      lt\n      iszero\n        /* \"Evm/zk/validators_verifier.sol\":13057:13075  x0 >= P || x1 >= P */\n      dup1\n      tag_149\n      jumpi\n      pop\n        /* \"Evm/zk/validators_verifier.sol\":1423:1489  0x30644e72e131a029b85045b68181585d97816a916871ca8d3c208c16d87cfd47 */\n      0x30644e72e131a029b85045b68181585d97816a916871ca8d3c208c16d87cfd47\n        /* \"Evm/zk/validators_verifier.sol\":13068:13070  x1 */\n      dup6\n        /* \"Evm/zk/validators_verifier.sol\":13068:13075  x1 >= P */\n      lt\n      iszero\n        /* \"Evm/zk/validators_verifier.sol\":13057:13075  x0 >= P || x1 >= P */\n    tag_149:\n        /* \"Evm/zk/validators_verifier.sol\":13057:13086  x0 >= P || x1 >= P || y0 >= P */\n      dup1\n      tag_150\n      jumpi\n      pop\n        /* \"Evm/zk/validators_verifier.sol\":1423:1489  0x30644e72e131a029b85045b68181585d97816a916871ca8d3c208c16d87cfd47 */\n      0x30644e72e131a029b85045b68181585d97816a916871ca8d3c208c16d87cfd47\n        /* \"Evm/zk/validators_verifier.sol\":13079:13081  y0 */\n      dup5\n        /* \"Evm/zk/validators_verifier.sol\":13079:13086  y0 >= P */\n      lt\n      iszero\n        /* \"Evm/zk/validators_verifier.sol\":13057:13086  x0 >= P || x1 >= P || y0 >= P */\n    tag_150:\n        /* \"Evm/zk/validators_verifier.sol\":13057:13097  x0 >= P || x1 >= P || y0 >= P || y1 >= P */\n      dup1\n      tag_151\n      jumpi\n      pop\n        /* \"Evm/zk/validators_verifier.sol\":1423:1489  0x30644e72e131a029b85045b68181585d97816a916871ca8d3c208c16d87cfd47 */\n      0x30644e72e131a029b85045b68181585d97816a916871ca8d3c208c16d87cfd47\n        /* \"Evm/zk/validators_verifier.sol\":13090:13092  y1 */\n      dup4\n        /* \"Evm/zk/validators_verifier.sol\":13090:13097  y1 >= P */\n      lt\n      iszero\n        /* \"Evm/zk/validators_verifier.sol\":13057:13097  x0 >= P || x1 >= P || y0 >= P || y1 >= P */\n    tag_151:\n        /* \"Evm/zk/validators_verifier.sol\":13053:13186  if (x0 >= P || x1 >= P || y0 >= P || y1 >= P) {... */\n      iszero\n      tag_152\n      jumpi\n        /* \"Evm/zk/validators_verifier.sol\":13160:13174  ProofInvalid() */\n      mload(0x40)\n      0x7fcdd1f400000000000000000000000000000000000000000000000000000000\n      dup2\n      mstore\n      0x04\n      add\n      mload(0x40)\n      dup1\n      swap2\n      sub\n      swap1\n      revert\n        /* \"Evm/zk/validators_verifier.sol\":13053:13186  if (x0 >= P || x1 >= P || y0 >= P || y1 >= P) {... */\n    tag_152:\n        /* \"Evm/zk/validators_verifier.sol\":13223:13224  0 */\n      0x00\n        /* \"Evm/zk/validators_verifier.sol\":13216:13218  y1 */\n      dup4\n        /* \"Evm/zk/validators_verifier.sol\":13211:13213  y0 */\n      dup6\n        /* \"Evm/zk/validators_verifier.sol\":13206:13208  x1 */\n      dup8\n        /* \"Evm/zk/validators_verifier.sol\":13201:13203  x0 */\n      dup10\n        /* \"Evm/zk/validators_verifier.sol\":13201:13208  x0 | x1 */\n      or\n        /* \"Evm/zk/validators_verifier.sol\":13201:13213  x0 | x1 | y0 */\n      or\n        /* \"Evm/zk/validators_verifier.sol\":13201:13218  x0 | x1 | y0 | y1 */\n      or\n        /* \"Evm/zk/validators_verifier.sol\":13200:13224  (x0 | x1 | y0 | y1) == 0 */\n      sub\n        /* \"Evm/zk/validators_verifier.sol\":13196:13300  if ((x0 | x1 | y0 | y1) == 0) {... */\n      tag_153\n      jumpi\n        /* \"Evm/zk/validators_verifier.sol\":13283:13284  0 */\n      0x00\n        /* \"Evm/zk/validators_verifier.sol\":13286:13287  0 */\n      0x00\n        /* \"Evm/zk/validators_verifier.sol\":13275:13288  return (0, 0) */\n      swap2\n      pop\n      swap2\n      pop\n      jump(tag_148)\n        /* \"Evm/zk/validators_verifier.sol\":13196:13300  if ((x0 | x1 | y0 | y1) == 0) {... */\n    tag_153:\n        /* \"Evm/zk/validators_verifier.sol\":13410:13424  uint256 y0_pos */\n      0x00\n        /* \"Evm/zk/validators_verifier.sol\":13435:13449  uint256 y1_pos */\n      0x00\n        /* \"Evm/zk/validators_verifier.sol\":13475:13487  uint256 n3ab */\n      0x00\n        /* \"Evm/zk/validators_verifier.sol\":1423:1489  0x30644e72e131a029b85045b68181585d97816a916871ca8d3c208c16d87cfd47 */\n      0x30644e72e131a029b85045b68181585d97816a916871ca8d3c208c16d87cfd47\n        /* \"Evm/zk/validators_verifier.sol\":13490:13523  mulmod(mulmod(x0, x1, P), P-3, P) */\n      dup1\n      tag_154\n      jumpi\n      tag_155\n      tag_136\n      jump\t// in\n    tag_155:\n    tag_154:\n        /* \"Evm/zk/validators_verifier.sol\":13518:13519  3 */\n      0x03\n        /* \"Evm/zk/validators_verifier.sol\":1423:1489  0x30644e72e131a029b85045b68181585d97816a916871ca8d3c208c16d87cfd47 */\n      0x30644e72e131a029b85045b68181585d97816a916871ca8d3c208c16d87cfd47\n        /* \"Evm/zk/validators_verifier.sol\":13516:13519  P-3 */\n      tag_156\n      swap2\n      swap1\n      tag_157\n      jump\t// in\n    tag_156:\n        /* \"Evm/zk/validators_verifier.sol\":1423:1489  0x30644e72e131a029b85045b68181585d97816a916871ca8d3c208c16d87cfd47 */\n      0x30644e72e131a029b85045b68181585d97816a916871ca8d3c208c16d87cfd47\n        /* \"Evm/zk/validators_verifier.sol\":13497:13514  mulmod(x0, x1, P) */\n      dup1\n      tag_158\n      jumpi\n      tag_159\n      tag_136\n      jump\t// in\n    tag_159:\n    tag_158:\n        /* \"Evm/zk/validators_verifier.sol\":13508:13510  x1 */\n      dup11\n        /* \"Evm/zk/validators_verifier.sol\":13504:13506  x0 */\n      dup13\n        /* \"Evm/zk/validators_verifier.sol\":13497:13514  mulmod(x0, x1, P) */\n      mulmod\n        /* \"Evm/zk/validators_verifier.sol\":13490:13523  mulmod(mulmod(x0, x1, P), P-3, P) */\n      mulmod\n        /* \"Evm/zk/validators_verifier.sol\":13475:13523  uint256 n3ab = mulmod(mulmod(x0, x1, P), P-3, P) */\n      swap1\n      pop\n        /* \"Evm/zk/validators_verifier.sol\":13538:13549  uint256 a_3 */\n      0x00\n        /* \"Evm/zk/validators_verifier.sol\":1423:1489  0x30644e72e131a029b85045b68181585d97816a916871ca8d3c208c16d87cfd47 */\n      0x30644e72e131a029b85045b68181585d97816a916871ca8d3c208c16d87cfd47\n        /* \"Evm/zk/validators_verifier.sol\":13552:13584  mulmod(mulmod(x0, x0, P), x0, P) */\n      dup1\n      tag_160\n      jumpi\n      tag_161\n      tag_136\n      jump\t// in\n    tag_161:\n    tag_160:\n        /* \"Evm/zk/validators_verifier.sol\":13578:13580  x0 */\n      dup11\n        /* \"Evm/zk/validators_verifier.sol\":1423:1489  0x30644e72e131a029b85045b68181585d97816a916871ca8d3c208c16d87cfd47 */\n      0x30644e72e131a029b85045b68181585d97816a916871ca8d3c208c16d87cfd47\n        /* \"Evm/zk/validators_verifier.sol\":13559:13576  mulmod(x0, x0, P) */\n      dup1\n      tag_162\n      jumpi\n      tag_163\n      tag_136\n      jump\t// in\n    tag_163:\n    tag_162:\n        /* \"Evm/zk/validators_verifier.sol\":13570:13572  x0 */\n      dup13\n        /* \"Evm/zk/validators_verifier.sol\":13566:13568  x0 */\n      dup14\n        /* \"Evm/zk/validators_verifier.sol\":13559:13576  mulmod(x0, x0, P) */\n      mulmod\n        /* \"Evm/zk/validators_verifier.sol\":13552:13584  mulmod(mulmod(x0, x0, P), x0, P) */\n      mulmod\n        /* \"Evm/zk/validators_verifier.sol\":13538:13584  uint256 a_3 = mulmod(mulmod(x0, x0, P), x0, P) */\n      swap1\n      pop\n        /* \"Evm/zk/validators_verifier.sol\":13599:13610  uint256 b_3 */\n      0x00\n        /* \"Evm/zk/validators_verifier.sol\":1423:1489  0x30644e72e131a029b85045b68181585d97816a916871ca8d3c208c16d87cfd47 */\n      0x30644e72e131a029b85045b68181585d97816a916871ca8d3c208c16d87cfd47\n        /* \"Evm/zk/validators_verifier.sol\":13613:13645  mulmod(mulmod(x1, x1, P), x1, P) */\n      dup1\n      tag_164\n      jumpi\n      tag_165\n      tag_136\n      jump\t// in\n    tag_165:\n    tag_164:\n        /* \"Evm/zk/validators_verifier.sol\":13639:13641  x1 */\n      dup11\n        /* \"Evm/zk/validators_verifier.sol\":1423:1489  0x30644e72e131a029b85045b68181585d97816a916871ca8d3c208c16d87cfd47 */\n      0x30644e72e131a029b85045b68181585d97816a916871ca8d3c208c16d87cfd47\n        /* \"Evm/zk/validators_verifier.sol\":13620:13637  mulmod(x1, x1, P) */\n      dup1\n      tag_166\n      jumpi\n      tag_167\n      tag_136\n      jump\t// in\n    tag_167:\n    tag_166:\n        /* \"Evm/zk/validators_verifier.sol\":13631:13633  x1 */\n      dup13\n        /* \"Evm/zk/validators_verifier.sol\":13627:13629  x1 */\n      dup14\n        /* \"Evm/zk/validators_verifier.sol\":13620:13637  mulmod(x1, x1, P) */\n      mulmod\n        /* \"Evm/zk/validators_verifier.sol\":13613:13645  mulmod(mulmod(x1, x1, P), x1, P) */\n      mulmod\n        /* \"Evm/zk/validators_verifier.sol\":13599:13645  uint256 b_3 = mulmod(mulmod(x1, x1, P), x1, P) */\n      swap1\n      pop\n        /* \"Evm/zk/validators_verifier.sol\":1423:1489  0x30644e72e131a029b85045b68181585d97816a916871ca8d3c208c16d87cfd47 */\n      0x30644e72e131a029b85045b68181585d97816a916871ca8d3c208c16d87cfd47\n        /* \"Evm/zk/validators_verifier.sol\":13669:13734  addmod(FRACTION_27_82_FP, addmod(a_3, mulmod(n3ab, x1, P), P), P) */\n      dup1\n      tag_168\n      jumpi\n      tag_169\n      tag_136\n      jump\t// in\n    tag_169:\n    tag_168:\n        /* \"Evm/zk/validators_verifier.sol\":1423:1489  0x30644e72e131a029b85045b68181585d97816a916871ca8d3c208c16d87cfd47 */\n      0x30644e72e131a029b85045b68181585d97816a916871ca8d3c208c16d87cfd47\n        /* \"Evm/zk/validators_verifier.sol\":13695:13730  addmod(a_3, mulmod(n3ab, x1, P), P) */\n      dup1\n      tag_170\n      jumpi\n      tag_171\n      tag_136\n      jump\t// in\n    tag_171:\n    tag_170:\n        /* \"Evm/zk/validators_verifier.sol\":1423:1489  0x30644e72e131a029b85045b68181585d97816a916871ca8d3c208c16d87cfd47 */\n      0x30644e72e131a029b85045b68181585d97816a916871ca8d3c208c16d87cfd47\n        /* \"Evm/zk/validators_verifier.sol\":13707:13726  mulmod(n3ab, x1, P) */\n      dup1\n      tag_172\n      jumpi\n      tag_173\n      tag_136\n      jump\t// in\n    tag_173:\n    tag_172:\n        /* \"Evm/zk/validators_verifier.sol\":13720:13722  x1 */\n      dup13\n        /* \"Evm/zk/validators_verifier.sol\":13714:13718  n3ab */\n      dup7\n        /* \"Evm/zk/validators_verifier.sol\":13707:13726  mulmod(n3ab, x1, P) */\n      mulmod\n        /* \"Evm/zk/validators_verifier.sol\":13702:13705  a_3 */\n      dup5\n        /* \"Evm/zk/validators_verifier.sol\":13695:13730  addmod(a_3, mulmod(n3ab, x1, P), P) */\n      addmod\n        /* \"Evm/zk/validators_verifier.sol\":2254:2320  0x2b149d40ceb8aaae81be18991be06ac3b5b4c5e559dbefa33267e6dc24a138e5 */\n      0x2b149d40ceb8aaae81be18991be06ac3b5b4c5e559dbefa33267e6dc24a138e5\n        /* \"Evm/zk/validators_verifier.sol\":13669:13734  addmod(FRACTION_27_82_FP, addmod(a_3, mulmod(n3ab, x1, P), P), P) */\n      addmod\n        /* \"Evm/zk/validators_verifier.sol\":13660:13734  y0_pos = addmod(FRACTION_27_82_FP, addmod(a_3, mulmod(n3ab, x1, P), P), P) */\n      swap5\n      pop\n        /* \"Evm/zk/validators_verifier.sol\":13758:13831  negate(addmod(FRACTION_3_82_FP,  addmod(b_3, mulmod(n3ab, x0, P), P), P)) */\n      tag_174\n        /* \"Evm/zk/validators_verifier.sol\":1423:1489  0x30644e72e131a029b85045b68181585d97816a916871ca8d3c208c16d87cfd47 */\n      0x30644e72e131a029b85045b68181585d97816a916871ca8d3c208c16d87cfd47\n        /* \"Evm/zk/validators_verifier.sol\":13765:13830  addmod(FRACTION_3_82_FP,  addmod(b_3, mulmod(n3ab, x0, P), P), P) */\n      dup1\n      tag_175\n      jumpi\n      tag_176\n      tag_136\n      jump\t// in\n    tag_176:\n    tag_175:\n        /* \"Evm/zk/validators_verifier.sol\":1423:1489  0x30644e72e131a029b85045b68181585d97816a916871ca8d3c208c16d87cfd47 */\n      0x30644e72e131a029b85045b68181585d97816a916871ca8d3c208c16d87cfd47\n        /* \"Evm/zk/validators_verifier.sol\":13791:13826  addmod(b_3, mulmod(n3ab, x0, P), P) */\n      dup1\n      tag_177\n      jumpi\n      tag_178\n      tag_136\n      jump\t// in\n    tag_178:\n    tag_177:\n        /* \"Evm/zk/validators_verifier.sol\":1423:1489  0x30644e72e131a029b85045b68181585d97816a916871ca8d3c208c16d87cfd47 */\n      0x30644e72e131a029b85045b68181585d97816a916871ca8d3c208c16d87cfd47\n        /* \"Evm/zk/validators_verifier.sol\":13803:13822  mulmod(n3ab, x0, P) */\n      dup1\n      tag_179\n      jumpi\n      tag_180\n      tag_136\n      jump\t// in\n    tag_180:\n    tag_179:\n        /* \"Evm/zk/validators_verifier.sol\":13816:13818  x0 */\n      dup15\n        /* \"Evm/zk/validators_verifier.sol\":13810:13814  n3ab */\n      dup8\n        /* \"Evm/zk/validators_verifier.sol\":13803:13822  mulmod(n3ab, x0, P) */\n      mulmod\n        /* \"Evm/zk/validators_verifier.sol\":13798:13801  b_3 */\n      dup5\n        /* \"Evm/zk/validators_verifier.sol\":13791:13826  addmod(b_3, mulmod(n3ab, x0, P), P) */\n      addmod\n        /* \"Evm/zk/validators_verifier.sol\":2363:2429  0x2fcd3ac2a640a154eb23960892a85a68f031ca0c8344b23a577dcf1052b9e775 */\n      0x2fcd3ac2a640a154eb23960892a85a68f031ca0c8344b23a577dcf1052b9e775\n        /* \"Evm/zk/validators_verifier.sol\":13765:13830  addmod(FRACTION_3_82_FP,  addmod(b_3, mulmod(n3ab, x0, P), P), P) */\n      addmod\n        /* \"Evm/zk/validators_verifier.sol\":13758:13764  negate */\n      tag_145\n        /* \"Evm/zk/validators_verifier.sol\":13758:13831  negate(addmod(FRACTION_3_82_FP,  addmod(b_3, mulmod(n3ab, x0, P), P), P)) */\n      jump\t// in\n    tag_174:\n        /* \"Evm/zk/validators_verifier.sol\":13749:13831  y1_pos = negate(addmod(FRACTION_3_82_FP,  addmod(b_3, mulmod(n3ab, x0, P), P), P)) */\n      swap4\n      pop\n        /* \"Evm/zk/validators_verifier.sol\":13460:13843  {... */\n      pop\n      pop\n      pop\n        /* \"Evm/zk/validators_verifier.sol\":13955:13964  bool hint */\n      0x00\n        /* \"Evm/zk/validators_verifier.sol\":13990:13999  uint256 d */\n      0x00\n        /* \"Evm/zk/validators_verifier.sol\":14002:14074  sqrt_Fp(addmod(mulmod(y0_pos, y0_pos, P), mulmod(y1_pos, y1_pos, P), P)) */\n      tag_181\n        /* \"Evm/zk/validators_verifier.sol\":1423:1489  0x30644e72e131a029b85045b68181585d97816a916871ca8d3c208c16d87cfd47 */\n      0x30644e72e131a029b85045b68181585d97816a916871ca8d3c208c16d87cfd47\n        /* \"Evm/zk/validators_verifier.sol\":14010:14073  addmod(mulmod(y0_pos, y0_pos, P), mulmod(y1_pos, y1_pos, P), P) */\n      dup1\n      tag_182\n      jumpi\n      tag_183\n      tag_136\n      jump\t// in\n    tag_183:\n    tag_182:\n        /* \"Evm/zk/validators_verifier.sol\":1423:1489  0x30644e72e131a029b85045b68181585d97816a916871ca8d3c208c16d87cfd47 */\n      0x30644e72e131a029b85045b68181585d97816a916871ca8d3c208c16d87cfd47\n        /* \"Evm/zk/validators_verifier.sol\":14044:14069  mulmod(y1_pos, y1_pos, P) */\n      dup1\n      tag_184\n      jumpi\n      tag_185\n      tag_136\n      jump\t// in\n    tag_185:\n    tag_184:\n        /* \"Evm/zk/validators_verifier.sol\":14059:14065  y1_pos */\n      dup6\n        /* \"Evm/zk/validators_verifier.sol\":14051:14057  y1_pos */\n      dup7\n        /* \"Evm/zk/validators_verifier.sol\":14044:14069  mulmod(y1_pos, y1_pos, P) */\n      mulmod\n        /* \"Evm/zk/validators_verifier.sol\":1423:1489  0x30644e72e131a029b85045b68181585d97816a916871ca8d3c208c16d87cfd47 */\n      0x30644e72e131a029b85045b68181585d97816a916871ca8d3c208c16d87cfd47\n        /* \"Evm/zk/validators_verifier.sol\":14017:14042  mulmod(y0_pos, y0_pos, P) */\n      dup1\n      tag_186\n      jumpi\n      tag_187\n      tag_136\n      jump\t// in\n    tag_187:\n    tag_186:\n        /* \"Evm/zk/validators_verifier.sol\":14032:14038  y0_pos */\n      dup8\n        /* \"Evm/zk/validators_verifier.sol\":14024:14030  y0_pos */\n      dup9\n        /* \"Evm/zk/validators_verifier.sol\":14017:14042  mulmod(y0_pos, y0_pos, P) */\n      mulmod\n        /* \"Evm/zk/validators_verifier.sol\":14010:14073  addmod(mulmod(y0_pos, y0_pos, P), mulmod(y1_pos, y1_pos, P), P) */\n      addmod\n        /* \"Evm/zk/validators_verifier.sol\":14002:14009  sqrt_Fp */\n      tag_141\n        /* \"Evm/zk/validators_verifier.sol\":14002:14074  sqrt_Fp(addmod(mulmod(y0_pos, y0_pos, P), mulmod(y1_pos, y1_pos, P), P)) */\n      jump\t// in\n    tag_181:\n        /* \"Evm/zk/validators_verifier.sol\":13990:14074  uint256 d = sqrt_Fp(addmod(mulmod(y0_pos, y0_pos, P), mulmod(y1_pos, y1_pos, P), P)) */\n      swap1\n      pop\n        /* \"Evm/zk/validators_verifier.sol\":14097:14158  isSquare_Fp(mulmod(addmod(y0_pos, d, P), FRACTION_1_2_FP, P)) */\n      tag_188\n        /* \"Evm/zk/validators_verifier.sol\":1423:1489  0x30644e72e131a029b85045b68181585d97816a916871ca8d3c208c16d87cfd47 */\n      0x30644e72e131a029b85045b68181585d97816a916871ca8d3c208c16d87cfd47\n        /* \"Evm/zk/validators_verifier.sol\":14109:14157  mulmod(addmod(y0_pos, d, P), FRACTION_1_2_FP, P) */\n      dup1\n      tag_189\n      jumpi\n      tag_190\n      tag_136\n      jump\t// in\n    tag_190:\n    tag_189:\n        /* \"Evm/zk/validators_verifier.sol\":2144:2210  0x183227397098d014dc2822db40c0ac2ecbc0b548b438e5469e10460b6c3e7ea4 */\n      0x183227397098d014dc2822db40c0ac2ecbc0b548b438e5469e10460b6c3e7ea4\n        /* \"Evm/zk/validators_verifier.sol\":1423:1489  0x30644e72e131a029b85045b68181585d97816a916871ca8d3c208c16d87cfd47 */\n      0x30644e72e131a029b85045b68181585d97816a916871ca8d3c208c16d87cfd47\n        /* \"Evm/zk/validators_verifier.sol\":14116:14136  addmod(y0_pos, d, P) */\n      dup1\n      tag_191\n      jumpi\n      tag_192\n      tag_136\n      jump\t// in\n    tag_192:\n    tag_191:\n        /* \"Evm/zk/validators_verifier.sol\":14131:14132  d */\n      dup5\n        /* \"Evm/zk/validators_verifier.sol\":14123:14129  y0_pos */\n      dup9\n        /* \"Evm/zk/validators_verifier.sol\":14116:14136  addmod(y0_pos, d, P) */\n      addmod\n        /* \"Evm/zk/validators_verifier.sol\":14109:14157  mulmod(addmod(y0_pos, d, P), FRACTION_1_2_FP, P) */\n      mulmod\n        /* \"Evm/zk/validators_verifier.sol\":14097:14108  isSquare_Fp */\n      tag_193\n        /* \"Evm/zk/validators_verifier.sol\":14097:14158  isSquare_Fp(mulmod(addmod(y0_pos, d, P), FRACTION_1_2_FP, P)) */\n      jump\t// in\n    tag_188:\n        /* \"Evm/zk/validators_verifier.sol\":14096:14158  !isSquare_Fp(mulmod(addmod(y0_pos, d, P), FRACTION_1_2_FP, P)) */\n      iszero\n        /* \"Evm/zk/validators_verifier.sol\":14089:14158  hint = !isSquare_Fp(mulmod(addmod(y0_pos, d, P), FRACTION_1_2_FP, P)) */\n      swap2\n      pop\n        /* \"Evm/zk/validators_verifier.sol\":13975:14170  {... */\n      pop\n        /* \"Evm/zk/validators_verifier.sol\":14223:14253  sqrt_Fp2(y0_pos, y1_pos, hint) */\n      tag_194\n        /* \"Evm/zk/validators_verifier.sol\":14232:14238  y0_pos */\n      dup4\n        /* \"Evm/zk/validators_verifier.sol\":14240:14246  y1_pos */\n      dup4\n        /* \"Evm/zk/validators_verifier.sol\":14248:14252  hint */\n      dup4\n        /* \"Evm/zk/validators_verifier.sol\":14223:14231  sqrt_Fp2 */\n      tag_195\n        /* \"Evm/zk/validators_verifier.sol\":14223:14253  sqrt_Fp2(y0_pos, y1_pos, hint) */\n      jump\t// in\n    tag_194:\n        /* \"Evm/zk/validators_verifier.sol\":14204:14253  (y0_pos, y1_pos) = sqrt_Fp2(y0_pos, y1_pos, hint) */\n      dup1\n      swap4\n      pop\n      dup2\n      swap5\n      pop\n      pop\n      pop\n        /* \"Evm/zk/validators_verifier.sol\":14274:14280  y0_pos */\n      dup3\n        /* \"Evm/zk/validators_verifier.sol\":14268:14270  y0 */\n      dup8\n        /* \"Evm/zk/validators_verifier.sol\":14268:14280  y0 == y0_pos */\n      eq\n        /* \"Evm/zk/validators_verifier.sol\":14268:14296  y0 == y0_pos && y1 == y1_pos */\n      dup1\n      iszero\n      tag_196\n      jumpi\n      pop\n        /* \"Evm/zk/validators_verifier.sol\":14290:14296  y1_pos */\n      dup2\n        /* \"Evm/zk/validators_verifier.sol\":14284:14286  y1 */\n      dup7\n        /* \"Evm/zk/validators_verifier.sol\":14284:14296  y1 == y1_pos */\n      eq\n        /* \"Evm/zk/validators_verifier.sol\":14268:14296  y0 == y0_pos && y1 == y1_pos */\n    tag_196:\n        /* \"Evm/zk/validators_verifier.sol\":14264:14617  if (y0 == y0_pos && y1 == y1_pos) {... */\n      iszero\n      tag_197\n      jumpi\n        /* \"Evm/zk/validators_verifier.sol\":14348:14349  0 */\n      0x00\n        /* \"Evm/zk/validators_verifier.sol\":14331:14335  hint */\n      dup2\n        /* \"Evm/zk/validators_verifier.sol\":14331:14344  hint ? 2  : 0 */\n      tag_198\n      jumpi\n        /* \"Evm/zk/validators_verifier.sol\":14343:14344  0 */\n      0x00\n        /* \"Evm/zk/validators_verifier.sol\":14331:14344  hint ? 2  : 0 */\n      jump(tag_199)\n    tag_198:\n        /* \"Evm/zk/validators_verifier.sol\":14338:14339  2 */\n      0x02\n        /* \"Evm/zk/validators_verifier.sol\":14331:14344  hint ? 2  : 0 */\n    tag_199:\n        /* \"Evm/zk/validators_verifier.sol\":14318:14345  (x0 << 2) | (hint ? 2  : 0) */\n      0xff\n      and\n        /* \"Evm/zk/validators_verifier.sol\":14325:14326  2 */\n      0x02\n        /* \"Evm/zk/validators_verifier.sol\":14319:14321  x0 */\n      dup12\n        /* \"Evm/zk/validators_verifier.sol\":14319:14326  x0 << 2 */\n      swap1\n      shl\n        /* \"Evm/zk/validators_verifier.sol\":14318:14345  (x0 << 2) | (hint ? 2  : 0) */\n      or\n        /* \"Evm/zk/validators_verifier.sol\":14318:14349  (x0 << 2) | (hint ? 2  : 0) | 0 */\n      or\n        /* \"Evm/zk/validators_verifier.sol\":14313:14349  c0 = (x0 << 2) | (hint ? 2  : 0) | 0 */\n      swap5\n      pop\n        /* \"Evm/zk/validators_verifier.sol\":14369:14371  x1 */\n      dup8\n        /* \"Evm/zk/validators_verifier.sol\":14364:14371  c1 = x1 */\n      swap4\n      pop\n        /* \"Evm/zk/validators_verifier.sol\":14264:14617  if (y0 == y0_pos && y1 == y1_pos) {... */\n      jump(tag_200)\n    tag_197:\n        /* \"Evm/zk/validators_verifier.sol\":14399:14413  negate(y0_pos) */\n      tag_201\n        /* \"Evm/zk/validators_verifier.sol\":14406:14412  y0_pos */\n      dup4\n        /* \"Evm/zk/validators_verifier.sol\":14399:14405  negate */\n      tag_145\n        /* \"Evm/zk/validators_verifier.sol\":14399:14413  negate(y0_pos) */\n      jump\t// in\n    tag_201:\n        /* \"Evm/zk/validators_verifier.sol\":14393:14395  y0 */\n      dup8\n        /* \"Evm/zk/validators_verifier.sol\":14393:14413  y0 == negate(y0_pos) */\n      eq\n        /* \"Evm/zk/validators_verifier.sol\":14393:14437  y0 == negate(y0_pos) && y1 == negate(y1_pos) */\n      dup1\n      iszero\n      tag_202\n      jumpi\n      pop\n        /* \"Evm/zk/validators_verifier.sol\":14423:14437  negate(y1_pos) */\n      tag_203\n        /* \"Evm/zk/validators_verifier.sol\":14430:14436  y1_pos */\n      dup3\n        /* \"Evm/zk/validators_verifier.sol\":14423:14429  negate */\n      tag_145\n        /* \"Evm/zk/validators_verifier.sol\":14423:14437  negate(y1_pos) */\n      jump\t// in\n    tag_203:\n        /* \"Evm/zk/validators_verifier.sol\":14417:14419  y1 */\n      dup7\n        /* \"Evm/zk/validators_verifier.sol\":14417:14437  y1 == negate(y1_pos) */\n      eq\n        /* \"Evm/zk/validators_verifier.sol\":14393:14437  y0 == negate(y0_pos) && y1 == negate(y1_pos) */\n    tag_202:\n        /* \"Evm/zk/validators_verifier.sol\":14389:14617  if (y0 == negate(y0_pos) && y1 == negate(y1_pos)) {... */\n      iszero\n      tag_204\n      jumpi\n        /* \"Evm/zk/validators_verifier.sol\":14489:14490  1 */\n      0x01\n        /* \"Evm/zk/validators_verifier.sol\":14472:14476  hint */\n      dup2\n        /* \"Evm/zk/validators_verifier.sol\":14472:14485  hint ? 2  : 0 */\n      tag_205\n      jumpi\n        /* \"Evm/zk/validators_verifier.sol\":14484:14485  0 */\n      0x00\n        /* \"Evm/zk/validators_verifier.sol\":14472:14485  hint ? 2  : 0 */\n      jump(tag_206)\n    tag_205:\n        /* \"Evm/zk/validators_verifier.sol\":14479:14480  2 */\n      0x02\n        /* \"Evm/zk/validators_verifier.sol\":14472:14485  hint ? 2  : 0 */\n    tag_206:\n        /* \"Evm/zk/validators_verifier.sol\":14459:14486  (x0 << 2) | (hint ? 2  : 0) */\n      0xff\n      and\n        /* \"Evm/zk/validators_verifier.sol\":14466:14467  2 */\n      0x02\n        /* \"Evm/zk/validators_verifier.sol\":14460:14462  x0 */\n      dup12\n        /* \"Evm/zk/validators_verifier.sol\":14460:14467  x0 << 2 */\n      swap1\n      shl\n        /* \"Evm/zk/validators_verifier.sol\":14459:14486  (x0 << 2) | (hint ? 2  : 0) */\n      or\n        /* \"Evm/zk/validators_verifier.sol\":14459:14490  (x0 << 2) | (hint ? 2  : 0) | 1 */\n      or\n        /* \"Evm/zk/validators_verifier.sol\":14454:14490  c0 = (x0 << 2) | (hint ? 2  : 0) | 1 */\n      swap5\n      pop\n        /* \"Evm/zk/validators_verifier.sol\":14510:14512  x1 */\n      dup8\n        /* \"Evm/zk/validators_verifier.sol\":14505:14512  c1 = x1 */\n      swap4\n      pop\n        /* \"Evm/zk/validators_verifier.sol\":14389:14617  if (y0 == negate(y0_pos) && y1 == negate(y1_pos)) {... */\n      jump(tag_207)\n    tag_204:\n        /* \"Evm/zk/validators_verifier.sol\":14591:14605  ProofInvalid() */\n      mload(0x40)\n      0x7fcdd1f400000000000000000000000000000000000000000000000000000000\n      dup2\n      mstore\n      0x04\n      add\n      mload(0x40)\n      dup1\n      swap2\n      sub\n      swap1\n      revert\n        /* \"Evm/zk/validators_verifier.sol\":14389:14617  if (y0 == negate(y0_pos) && y1 == negate(y1_pos)) {... */\n    tag_207:\n        /* \"Evm/zk/validators_verifier.sol\":14264:14617  if (y0 == y0_pos && y1 == y1_pos) {... */\n    tag_200:\n        /* \"Evm/zk/validators_verifier.sol\":13042:14624  {... */\n      pop\n      pop\n      pop\n        /* \"Evm/zk/validators_verifier.sol\":12921:14624  function compress_g2(uint256 x0, uint256 x1, uint256 y0, uint256 y1)... */\n    tag_148:\n      swap5\n      pop\n      swap5\n      swap3\n      pop\n      pop\n      pop\n      jump\t// out\n        /* \"Evm/zk/validators_verifier.sol\":17294:19726  function publicInputMSM(uint256[3] calldata input)... */\n    tag_55:\n        /* \"Evm/zk/validators_verifier.sol\":17373:17382  uint256 x */\n      0x00\n        /* \"Evm/zk/validators_verifier.sol\":17384:17393  uint256 y */\n      0x00\n        /* \"Evm/zk/validators_verifier.sol\":18007:18019  bool success */\n      0x00\n        /* \"Evm/zk/validators_verifier.sol\":18022:18026  true */\n      0x01\n        /* \"Evm/zk/validators_verifier.sol\":18007:18026  bool success = true */\n      swap1\n      pop\n        /* \"Evm/zk/validators_verifier.sol\":18092:18096  0x40 */\n      0x40\n        /* \"Evm/zk/validators_verifier.sol\":18086:18097  mload(0x40) */\n      mload\n        /* \"Evm/zk/validators_verifier.sol\":18127:18131  0x40 */\n      0x40\n        /* \"Evm/zk/validators_verifier.sol\":18124:18125  f */\n      dup2\n        /* \"Evm/zk/validators_verifier.sol\":18120:18132  add(f, 0x40) */\n      add\n        /* \"Evm/zk/validators_verifier.sol\":18146:18151  let s */\n      0x00\n        /* \"Evm/zk/validators_verifier.sol\":18175:18185  CONSTANT_X */\n      0x0e6a4fbb7dbc77e938006ffe98ba377842d6c72597aedf5ca272041bb5116aa4\n        /* \"Evm/zk/validators_verifier.sol\":18172:18173  f */\n      dup4\n        /* \"Evm/zk/validators_verifier.sol\":18165:18186  mstore(f, CONSTANT_X) */\n      mstore\n        /* \"Evm/zk/validators_verifier.sol\":18221:18231  CONSTANT_Y */\n      0x0c3e0cd6ea3febba0c3434f4cafcc8d35b319346e29dca0b48d21b8b91a1f73e\n        /* \"Evm/zk/validators_verifier.sol\":18214:18218  0x20 */\n      0x20\n        /* \"Evm/zk/validators_verifier.sol\":18211:18212  f */\n      dup5\n        /* \"Evm/zk/validators_verifier.sol\":18207:18219  add(f, 0x20) */\n      add\n        /* \"Evm/zk/validators_verifier.sol\":18200:18232  mstore(add(f, 0x20), CONSTANT_Y) */\n      mstore\n        /* \"Evm/zk/validators_verifier.sol\":18256:18263  PUB_0_X */\n      0x2dce49b52aaaca92c8c6e8b1942287258c06bbae12db20ca60089ee8eda07e02\n        /* \"Evm/zk/validators_verifier.sol\":18253:18254  g */\n      dup3\n        /* \"Evm/zk/validators_verifier.sol\":18246:18264  mstore(g, PUB_0_X) */\n      mstore\n        /* \"Evm/zk/validators_verifier.sol\":18299:18306  PUB_0_Y */\n      0x2734ef5556b00472567353a018894070ac4113d82a0d744b6bb2b5ab2d0db5b7\n        /* \"Evm/zk/validators_verifier.sol\":18292:18296  0x20 */\n      0x20\n        /* \"Evm/zk/validators_verifier.sol\":18289:18290  g */\n      dup4\n        /* \"Evm/zk/validators_verifier.sol\":18285:18297  add(g, 0x20) */\n      add\n        /* \"Evm/zk/validators_verifier.sol\":18278:18307  mstore(add(g, 0x20), PUB_0_Y) */\n      mstore\n        /* \"Evm/zk/validators_verifier.sol\":18340:18345  input */\n      dup7\n        /* \"Evm/zk/validators_verifier.sol\":18327:18346  calldataload(input) */\n      calldataload\n        /* \"Evm/zk/validators_verifier.sol\":18321:18346  s :=  calldataload(input) */\n      swap1\n      pop\n        /* \"Evm/zk/validators_verifier.sol\":18381:18382  s */\n      dup1\n        /* \"Evm/zk/validators_verifier.sol\":18374:18378  0x40 */\n      0x40\n        /* \"Evm/zk/validators_verifier.sol\":18371:18372  g */\n      dup4\n        /* \"Evm/zk/validators_verifier.sol\":18367:18379  add(g, 0x40) */\n      add\n        /* \"Evm/zk/validators_verifier.sol\":18360:18383  mstore(add(g, 0x40), s) */\n      mstore\n        /* \"Evm/zk/validators_verifier.sol\":18427:18428  R */\n      0x30644e72e131a029b85045b68181585d2833e84879b9709143e1f593f0000001\n        /* \"Evm/zk/validators_verifier.sol\":18424:18425  s */\n      dup2\n        /* \"Evm/zk/validators_verifier.sol\":18421:18429  lt(s, R) */\n      lt\n        /* \"Evm/zk/validators_verifier.sol\":18412:18419  success */\n      dup5\n        /* \"Evm/zk/validators_verifier.sol\":18408:18430  and(success, lt(s, R)) */\n      and\n        /* \"Evm/zk/validators_verifier.sol\":18397:18430  success := and(success, lt(s, R)) */\n      swap4\n      pop\n        /* \"Evm/zk/validators_verifier.sol\":18514:18518  0x40 */\n      0x40\n        /* \"Evm/zk/validators_verifier.sol\":18511:18512  g */\n      dup3\n        /* \"Evm/zk/validators_verifier.sol\":18505:18509  0x60 */\n      0x60\n        /* \"Evm/zk/validators_verifier.sol\":18502:18503  g */\n      dup5\n        /* \"Evm/zk/validators_verifier.sol\":18486:18500  PRECOMPILE_MUL */\n      0x07\n        /* \"Evm/zk/validators_verifier.sol\":18479:18484  gas() */\n      gas\n        /* \"Evm/zk/validators_verifier.sol\":18468:18519  staticcall(gas(), PRECOMPILE_MUL, g, 0x60, g, 0x40) */\n      staticcall\n        /* \"Evm/zk/validators_verifier.sol\":18459:18466  success */\n      dup5\n        /* \"Evm/zk/validators_verifier.sol\":18455:18520  and(success, staticcall(gas(), PRECOMPILE_MUL, g, 0x60, g, 0x40)) */\n      and\n        /* \"Evm/zk/validators_verifier.sol\":18444:18520  success := and(success, staticcall(gas(), PRECOMPILE_MUL, g, 0x60, g, 0x40)) */\n      swap4\n      pop\n        /* \"Evm/zk/validators_verifier.sol\":18604:18608  0x40 */\n      0x40\n        /* \"Evm/zk/validators_verifier.sol\":18601:18602  f */\n      dup4\n        /* \"Evm/zk/validators_verifier.sol\":18595:18599  0x80 */\n      0x80\n        /* \"Evm/zk/validators_verifier.sol\":18592:18593  f */\n      dup6\n        /* \"Evm/zk/validators_verifier.sol\":18576:18590  PRECOMPILE_ADD */\n      0x06\n        /* \"Evm/zk/validators_verifier.sol\":18569:18574  gas() */\n      gas\n        /* \"Evm/zk/validators_verifier.sol\":18558:18609  staticcall(gas(), PRECOMPILE_ADD, f, 0x80, f, 0x40) */\n      staticcall\n        /* \"Evm/zk/validators_verifier.sol\":18549:18556  success */\n      dup5\n        /* \"Evm/zk/validators_verifier.sol\":18545:18610  and(success, staticcall(gas(), PRECOMPILE_ADD, f, 0x80, f, 0x40)) */\n      and\n        /* \"Evm/zk/validators_verifier.sol\":18534:18610  success := and(success, staticcall(gas(), PRECOMPILE_ADD, f, 0x80, f, 0x40)) */\n      swap4\n      pop\n        /* \"Evm/zk/validators_verifier.sol\":18634:18641  PUB_1_X */\n      0x17a4d635ae8ccfe72baf976255633ab850a4b9d91b67d822b2d0b416f9a80712\n        /* \"Evm/zk/validators_verifier.sol\":18631:18632  g */\n      dup3\n        /* \"Evm/zk/validators_verifier.sol\":18624:18642  mstore(g, PUB_1_X) */\n      mstore\n        /* \"Evm/zk/validators_verifier.sol\":18677:18684  PUB_1_Y */\n      0x243233e73b3ba87036fbcfdc674ef299b8a25acc6480392eb77762b82350c1\n        /* \"Evm/zk/validators_verifier.sol\":18670:18674  0x20 */\n      0x20\n        /* \"Evm/zk/validators_verifier.sol\":18667:18668  g */\n      dup4\n        /* \"Evm/zk/validators_verifier.sol\":18663:18675  add(g, 0x20) */\n      add\n        /* \"Evm/zk/validators_verifier.sol\":18656:18685  mstore(add(g, 0x20), PUB_1_Y) */\n      mstore\n        /* \"Evm/zk/validators_verifier.sol\":18729:18731  32 */\n      0x20\n        /* \"Evm/zk/validators_verifier.sol\":18722:18727  input */\n      dup8\n        /* \"Evm/zk/validators_verifier.sol\":18718:18732  add(input, 32) */\n      add\n        /* \"Evm/zk/validators_verifier.sol\":18705:18733  calldataload(add(input, 32)) */\n      calldataload\n        /* \"Evm/zk/validators_verifier.sol\":18699:18733  s :=  calldataload(add(input, 32)) */\n      swap1\n      pop\n        /* \"Evm/zk/validators_verifier.sol\":18768:18769  s */\n      dup1\n        /* \"Evm/zk/validators_verifier.sol\":18761:18765  0x40 */\n      0x40\n        /* \"Evm/zk/validators_verifier.sol\":18758:18759  g */\n      dup4\n        /* \"Evm/zk/validators_verifier.sol\":18754:18766  add(g, 0x40) */\n      add\n        /* \"Evm/zk/validators_verifier.sol\":18747:18770  mstore(add(g, 0x40), s) */\n      mstore\n        /* \"Evm/zk/validators_verifier.sol\":18814:18815  R */\n      0x30644e72e131a029b85045b68181585d2833e84879b9709143e1f593f0000001\n        /* \"Evm/zk/validators_verifier.sol\":18811:18812  s */\n      dup2\n        /* \"Evm/zk/validators_verifier.sol\":18808:18816  lt(s, R) */\n      lt\n        /* \"Evm/zk/validators_verifier.sol\":18799:18806  success */\n      dup5\n        /* \"Evm/zk/validators_verifier.sol\":18795:18817  and(success, lt(s, R)) */\n      and\n        /* \"Evm/zk/validators_verifier.sol\":18784:18817  success := and(success, lt(s, R)) */\n      swap4\n      pop\n        /* \"Evm/zk/validators_verifier.sol\":18901:18905  0x40 */\n      0x40\n        /* \"Evm/zk/validators_verifier.sol\":18898:18899  g */\n      dup3\n        /* \"Evm/zk/validators_verifier.sol\":18892:18896  0x60 */\n      0x60\n        /* \"Evm/zk/validators_verifier.sol\":18889:18890  g */\n      dup5\n        /* \"Evm/zk/validators_verifier.sol\":18873:18887  PRECOMPILE_MUL */\n      0x07\n        /* \"Evm/zk/validators_verifier.sol\":18866:18871  gas() */\n      gas\n        /* \"Evm/zk/validators_verifier.sol\":18855:18906  staticcall(gas(), PRECOMPILE_MUL, g, 0x60, g, 0x40) */\n      staticcall\n        /* \"Evm/zk/validators_verifier.sol\":18846:18853  success */\n      dup5\n        /* \"Evm/zk/validators_verifier.sol\":18842:18907  and(success, staticcall(gas(), PRECOMPILE_MUL, g, 0x60, g, 0x40)) */\n      and\n        /* \"Evm/zk/validators_verifier.sol\":18831:18907  success := and(success, staticcall(gas(), PRECOMPILE_MUL, g, 0x60, g, 0x40)) */\n      swap4\n      pop\n        /* \"Evm/zk/validators_verifier.sol\":18991:18995  0x40 */\n      0x40\n        /* \"Evm/zk/validators_verifier.sol\":18988:18989  f */\n      dup4\n        /* \"Evm/zk/validators_verifier.sol\":18982:18986  0x80 */\n      0x80\n        /* \"Evm/zk/validators_verifier.sol\":18979:18980  f */\n      dup6\n        /* \"Evm/zk/validators_verifier.sol\":18963:18977  PRECOMPILE_ADD */\n      0x06\n        /* \"Evm/zk/validators_verifier.sol\":18956:18961  gas() */\n      gas\n        /* \"Evm/zk/validators_verifier.sol\":18945:18996  staticcall(gas(), PRECOMPILE_ADD, f, 0x80, f, 0x40) */\n      staticcall\n        /* \"Evm/zk/validators_verifier.sol\":18936:18943  success */\n      dup5\n        /* \"Evm/zk/validators_verifier.sol\":18932:18997  and(success, staticcall(gas(), PRECOMPILE_ADD, f, 0x80, f, 0x40)) */\n      and\n        /* \"Evm/zk/validators_verifier.sol\":18921:18997  success := and(success, staticcall(gas(), PRECOMPILE_ADD, f, 0x80, f, 0x40)) */\n      swap4\n      pop\n        /* \"Evm/zk/validators_verifier.sol\":19021:19028  PUB_2_X */\n      0x15e8ad93d8e3c916ed7690e4d210d1d7e576eca14f7963c51f86f57ca45a96f5\n        /* \"Evm/zk/validators_verifier.sol\":19018:19019  g */\n      dup3\n        /* \"Evm/zk/validators_verifier.sol\":19011:19029  mstore(g, PUB_2_X) */\n      mstore\n        /* \"Evm/zk/validators_verifier.sol\":19064:19071  PUB_2_Y */\n      0x2a8dd1bcf86add4efce73b857b17e236574ff5e0a1490bc6748ecf884f75460a\n        /* \"Evm/zk/validators_verifier.sol\":19057:19061  0x20 */\n      0x20\n        /* \"Evm/zk/validators_verifier.sol\":19054:19055  g */\n      dup4\n        /* \"Evm/zk/validators_verifier.sol\":19050:19062  add(g, 0x20) */\n      add\n        /* \"Evm/zk/validators_verifier.sol\":19043:19072  mstore(add(g, 0x20), PUB_2_Y) */\n      mstore\n        /* \"Evm/zk/validators_verifier.sol\":19116:19118  64 */\n      0x40\n        /* \"Evm/zk/validators_verifier.sol\":19109:19114  input */\n      dup8\n        /* \"Evm/zk/validators_verifier.sol\":19105:19119  add(input, 64) */\n      add\n        /* \"Evm/zk/validators_verifier.sol\":19092:19120  calldataload(add(input, 64)) */\n      calldataload\n        /* \"Evm/zk/validators_verifier.sol\":19086:19120  s :=  calldataload(add(input, 64)) */\n      swap1\n      pop\n        /* \"Evm/zk/validators_verifier.sol\":19155:19156  s */\n      dup1\n        /* \"Evm/zk/validators_verifier.sol\":19148:19152  0x40 */\n      0x40\n        /* \"Evm/zk/validators_verifier.sol\":19145:19146  g */\n      dup4\n        /* \"Evm/zk/validators_verifier.sol\":19141:19153  add(g, 0x40) */\n      add\n        /* \"Evm/zk/validators_verifier.sol\":19134:19157  mstore(add(g, 0x40), s) */\n      mstore\n        /* \"Evm/zk/validators_verifier.sol\":19201:19202  R */\n      0x30644e72e131a029b85045b68181585d2833e84879b9709143e1f593f0000001\n        /* \"Evm/zk/validators_verifier.sol\":19198:19199  s */\n      dup2\n        /* \"Evm/zk/validators_verifier.sol\":19195:19203  lt(s, R) */\n      lt\n        /* \"Evm/zk/validators_verifier.sol\":19186:19193  success */\n      dup5\n        /* \"Evm/zk/validators_verifier.sol\":19182:19204  and(success, lt(s, R)) */\n      and\n        /* \"Evm/zk/validators_verifier.sol\":19171:19204  success := and(success, lt(s, R)) */\n      swap4\n      pop\n        /* \"Evm/zk/validators_verifier.sol\":19288:19292  0x40 */\n      0x40\n        /* \"Evm/zk/validators_verifier.sol\":19285:19286  g */\n      dup3\n        /* \"Evm/zk/validators_verifier.sol\":19279:19283  0x60 */\n      0x60\n        /* \"Evm/zk/validators_verifier.sol\":19276:19277  g */\n      dup5\n        /* \"Evm/zk/validators_verifier.sol\":19260:19274  PRECOMPILE_MUL */\n      0x07\n        /* \"Evm/zk/validators_verifier.sol\":19253:19258  gas() */\n      gas\n        /* \"Evm/zk/validators_verifier.sol\":19242:19293  staticcall(gas(), PRECOMPILE_MUL, g, 0x60, g, 0x40) */\n      staticcall\n        /* \"Evm/zk/validators_verifier.sol\":19233:19240  success */\n      dup5\n        /* \"Evm/zk/validators_verifier.sol\":19229:19294  and(success, staticcall(gas(), PRECOMPILE_MUL, g, 0x60, g, 0x40)) */\n      and\n        /* \"Evm/zk/validators_verifier.sol\":19218:19294  success := and(success, staticcall(gas(), PRECOMPILE_MUL, g, 0x60, g, 0x40)) */\n      swap4\n      pop\n        /* \"Evm/zk/validators_verifier.sol\":19378:19382  0x40 */\n      0x40\n        /* \"Evm/zk/validators_verifier.sol\":19375:19376  f */\n      dup4\n        /* \"Evm/zk/validators_verifier.sol\":19369:19373  0x80 */\n      0x80\n        /* \"Evm/zk/validators_verifier.sol\":19366:19367  f */\n      dup6\n        /* \"Evm/zk/validators_verifier.sol\":19350:19364  PRECOMPILE_ADD */\n      0x06\n        /* \"Evm/zk/validators_verifier.sol\":19343:19348  gas() */\n      gas\n        /* \"Evm/zk/validators_verifier.sol\":19332:19383  staticcall(gas(), PRECOMPILE_ADD, f, 0x80, f, 0x40) */\n      staticcall\n        /* \"Evm/zk/validators_verifier.sol\":19323:19330  success */\n      dup5\n        /* \"Evm/zk/validators_verifier.sol\":19319:19384  and(success, staticcall(gas(), PRECOMPILE_ADD, f, 0x80, f, 0x40)) */\n      and\n        /* \"Evm/zk/validators_verifier.sol\":19308:19384  success := and(success, staticcall(gas(), PRECOMPILE_ADD, f, 0x80, f, 0x40)) */\n      swap4\n      pop\n        /* \"Evm/zk/validators_verifier.sol\":19411:19412  f */\n      dup3\n        /* \"Evm/zk/validators_verifier.sol\":19405:19413  mload(f) */\n      mload\n        /* \"Evm/zk/validators_verifier.sol\":19400:19413  x := mload(f) */\n      swap6\n      pop\n        /* \"Evm/zk/validators_verifier.sol\":19445:19449  0x20 */\n      0x20\n        /* \"Evm/zk/validators_verifier.sol\":19442:19443  f */\n      dup4\n        /* \"Evm/zk/validators_verifier.sol\":19438:19450  add(f, 0x20) */\n      add\n        /* \"Evm/zk/validators_verifier.sol\":19432:19451  mload(add(f, 0x20)) */\n      mload\n        /* \"Evm/zk/validators_verifier.sol\":19427:19451  y := mload(add(f, 0x20)) */\n      swap5\n      pop\n        /* \"Evm/zk/validators_verifier.sol\":18062:19462  {... */\n      pop\n      pop\n      pop\n        /* \"Evm/zk/validators_verifier.sol\":19477:19484  success */\n      dup1\n        /* \"Evm/zk/validators_verifier.sol\":19472:19719  if (!success) {... */\n      tag_209\n      jumpi\n        /* \"Evm/zk/validators_verifier.sol\":19684:19707  PublicInputNotInField() */\n      mload(0x40)\n      0xa54f8e2700000000000000000000000000000000000000000000000000000000\n      dup2\n      mstore\n      0x04\n      add\n      mload(0x40)\n      dup1\n      swap2\n      sub\n      swap1\n      revert\n        /* \"Evm/zk/validators_verifier.sol\":19472:19719  if (!success) {... */\n    tag_209:\n        /* \"Evm/zk/validators_verifier.sol\":17395:19726  {... */\n      pop\n        /* \"Evm/zk/validators_verifier.sol\":17294:19726  function publicInputMSM(uint256[3] calldata input)... */\n      swap2\n      pop\n      swap2\n      jump\t// out\n        /* \"Evm/zk/validators_verifier.sol\":11242:12139  function decompress_g1(uint256 c) internal view returns (uint256 x, uint256 y) {... */\n    tag_63:\n        /* \"Evm/zk/validators_verifier.sol\":11299:11308  uint256 x */\n      0x00\n        /* \"Evm/zk/validators_verifier.sol\":11310:11319  uint256 y */\n      0x00\n        /* \"Evm/zk/validators_verifier.sol\":11489:11490  0 */\n      0x00\n        /* \"Evm/zk/validators_verifier.sol\":11484:11485  c */\n      dup4\n        /* \"Evm/zk/validators_verifier.sol\":11484:11490  c == 0 */\n      sub\n        /* \"Evm/zk/validators_verifier.sol\":11480:11599  if (c == 0) {... */\n      tag_211\n      jumpi\n        /* \"Evm/zk/validators_verifier.sol\":11582:11583  0 */\n      0x00\n        /* \"Evm/zk/validators_verifier.sol\":11585:11586  0 */\n      0x00\n        /* \"Evm/zk/validators_verifier.sol\":11574:11587  return (0, 0) */\n      swap2\n      pop\n      swap2\n      pop\n      jump(tag_210)\n        /* \"Evm/zk/validators_verifier.sol\":11480:11599  if (c == 0) {... */\n    tag_211:\n        /* \"Evm/zk/validators_verifier.sol\":11609:11626  bool negate_point */\n      0x00\n        /* \"Evm/zk/validators_verifier.sol\":11638:11639  1 */\n      0x01\n        /* \"Evm/zk/validators_verifier.sol\":11633:11634  1 */\n      dup1\n        /* \"Evm/zk/validators_verifier.sol\":11629:11630  c */\n      dup6\n        /* \"Evm/zk/validators_verifier.sol\":11629:11634  c & 1 */\n      and\n        /* \"Evm/zk/validators_verifier.sol\":11629:11639  c & 1 == 1 */\n      eq\n        /* \"Evm/zk/validators_verifier.sol\":11609:11639  bool negate_point = c & 1 == 1 */\n      swap1\n      pop\n        /* \"Evm/zk/validators_verifier.sol\":11659:11660  1 */\n      0x01\n        /* \"Evm/zk/validators_verifier.sol\":11654:11655  c */\n      dup5\n        /* \"Evm/zk/validators_verifier.sol\":11654:11660  c >> 1 */\n      swap1\n      shr\n        /* \"Evm/zk/validators_verifier.sol\":11650:11660  x = c >> 1 */\n      swap3\n      pop\n        /* \"Evm/zk/validators_verifier.sol\":1423:1489  0x30644e72e131a029b85045b68181585d97816a916871ca8d3c208c16d87cfd47 */\n      0x30644e72e131a029b85045b68181585d97816a916871ca8d3c208c16d87cfd47\n        /* \"Evm/zk/validators_verifier.sol\":11675:11676  x */\n      dup4\n        /* \"Evm/zk/validators_verifier.sol\":11675:11681  x >= P */\n      lt\n        /* \"Evm/zk/validators_verifier.sol\":11671:11777  if (x >= P) {... */\n      tag_212\n      jumpi\n        /* \"Evm/zk/validators_verifier.sol\":11751:11765  ProofInvalid() */\n      mload(0x40)\n      0x7fcdd1f400000000000000000000000000000000000000000000000000000000\n      dup2\n      mstore\n      0x04\n      add\n      mload(0x40)\n      dup1\n      swap2\n      sub\n      swap1\n      revert\n        /* \"Evm/zk/validators_verifier.sol\":11671:11777  if (x >= P) {... */\n    tag_212:\n        /* \"Evm/zk/validators_verifier.sol\":12011:12063  sqrt_Fp(addmod(mulmod(mulmod(x, x, P), x, P), 3, P)) */\n      tag_213\n        /* \"Evm/zk/validators_verifier.sol\":1423:1489  0x30644e72e131a029b85045b68181585d97816a916871ca8d3c208c16d87cfd47 */\n      0x30644e72e131a029b85045b68181585d97816a916871ca8d3c208c16d87cfd47\n        /* \"Evm/zk/validators_verifier.sol\":12019:12062  addmod(mulmod(mulmod(x, x, P), x, P), 3, P) */\n      dup1\n      tag_214\n      jumpi\n      tag_215\n      tag_136\n      jump\t// in\n    tag_215:\n    tag_214:\n        /* \"Evm/zk/validators_verifier.sol\":12057:12058  3 */\n      0x03\n        /* \"Evm/zk/validators_verifier.sol\":1423:1489  0x30644e72e131a029b85045b68181585d97816a916871ca8d3c208c16d87cfd47 */\n      0x30644e72e131a029b85045b68181585d97816a916871ca8d3c208c16d87cfd47\n        /* \"Evm/zk/validators_verifier.sol\":12026:12055  mulmod(mulmod(x, x, P), x, P) */\n      dup1\n      tag_216\n      jumpi\n      tag_217\n      tag_136\n      jump\t// in\n    tag_217:\n    tag_216:\n        /* \"Evm/zk/validators_verifier.sol\":12050:12051  x */\n      dup7\n        /* \"Evm/zk/validators_verifier.sol\":1423:1489  0x30644e72e131a029b85045b68181585d97816a916871ca8d3c208c16d87cfd47 */\n      0x30644e72e131a029b85045b68181585d97816a916871ca8d3c208c16d87cfd47\n        /* \"Evm/zk/validators_verifier.sol\":12033:12048  mulmod(x, x, P) */\n      dup1\n      tag_218\n      jumpi\n      tag_219\n      tag_136\n      jump\t// in\n    tag_219:\n    tag_218:\n        /* \"Evm/zk/validators_verifier.sol\":12043:12044  x */\n      dup9\n        /* \"Evm/zk/validators_verifier.sol\":12040:12041  x */\n      dup10\n        /* \"Evm/zk/validators_verifier.sol\":12033:12048  mulmod(x, x, P) */\n      mulmod\n        /* \"Evm/zk/validators_verifier.sol\":12026:12055  mulmod(mulmod(x, x, P), x, P) */\n      mulmod\n        /* \"Evm/zk/validators_verifier.sol\":12019:12062  addmod(mulmod(mulmod(x, x, P), x, P), 3, P) */\n      addmod\n        /* \"Evm/zk/validators_verifier.sol\":12011:12018  sqrt_Fp */\n      tag_141\n        /* \"Evm/zk/validators_verifier.sol\":12011:12063  sqrt_Fp(addmod(mulmod(mulmod(x, x, P), x, P), 3, P)) */\n      jump\t// in\n    tag_213:\n        /* \"Evm/zk/validators_verifier.sol\":12007:12063  y = sqrt_Fp(addmod(mulmod(mulmod(x, x, P), x, P), 3, P)) */\n      swap2\n      pop\n        /* \"Evm/zk/validators_verifier.sol\":12078:12090  negate_point */\n      dup1\n        /* \"Evm/zk/validators_verifier.sol\":12074:12132  if (negate_point) {... */\n      iszero\n      tag_220\n      jumpi\n        /* \"Evm/zk/validators_verifier.sol\":12111:12120  negate(y) */\n      tag_221\n        /* \"Evm/zk/validators_verifier.sol\":12118:12119  y */\n      dup3\n        /* \"Evm/zk/validators_verifier.sol\":12111:12117  negate */\n      tag_145\n        /* \"Evm/zk/validators_verifier.sol\":12111:12120  negate(y) */\n      jump\t// in\n    tag_221:\n        /* \"Evm/zk/validators_verifier.sol\":12107:12120  y = negate(y) */\n      swap2\n      pop\n        /* \"Evm/zk/validators_verifier.sol\":12074:12132  if (negate_point) {... */\n    tag_220:\n        /* \"Evm/zk/validators_verifier.sol\":11321:12139  {... */\n      pop\n        /* \"Evm/zk/validators_verifier.sol\":11242:12139  function decompress_g1(uint256 c) internal view returns (uint256 x, uint256 y) {... */\n    tag_210:\n      swap2\n      pop\n      swap2\n      jump\t// out\n        /* \"Evm/zk/validators_verifier.sol\":15375:16786  function decompress_g2(uint256 c0, uint256 c1)... */\n    tag_69:\n        /* \"Evm/zk/validators_verifier.sol\":15450:15460  uint256 x0 */\n      0x00\n        /* \"Evm/zk/validators_verifier.sol\":15462:15472  uint256 x1 */\n      0x00\n        /* \"Evm/zk/validators_verifier.sol\":15474:15484  uint256 y0 */\n      0x00\n        /* \"Evm/zk/validators_verifier.sol\":15486:15496  uint256 y1 */\n      0x00\n        /* \"Evm/zk/validators_verifier.sol\":15676:15677  0 */\n      0x00\n        /* \"Evm/zk/validators_verifier.sol\":15670:15672  c0 */\n      dup7\n        /* \"Evm/zk/validators_verifier.sol\":15670:15677  c0 == 0 */\n      eq\n        /* \"Evm/zk/validators_verifier.sol\":15670:15688  c0 == 0 && c1 == 0 */\n      dup1\n      iszero\n      tag_223\n      jumpi\n      pop\n        /* \"Evm/zk/validators_verifier.sol\":15687:15688  0 */\n      0x00\n        /* \"Evm/zk/validators_verifier.sol\":15681:15683  c1 */\n      dup6\n        /* \"Evm/zk/validators_verifier.sol\":15681:15688  c1 == 0 */\n      eq\n        /* \"Evm/zk/validators_verifier.sol\":15670:15688  c0 == 0 && c1 == 0 */\n    tag_223:\n        /* \"Evm/zk/validators_verifier.sol\":15666:15792  if (c0 == 0 && c1 == 0) {... */\n      iszero\n      tag_224\n      jumpi\n        /* \"Evm/zk/validators_verifier.sol\":15769:15770  0 */\n      0x00\n        /* \"Evm/zk/validators_verifier.sol\":15772:15773  0 */\n      0x00\n        /* \"Evm/zk/validators_verifier.sol\":15775:15776  0 */\n      0x00\n        /* \"Evm/zk/validators_verifier.sol\":15778:15779  0 */\n      0x00\n        /* \"Evm/zk/validators_verifier.sol\":15761:15780  return (0, 0, 0, 0) */\n      swap4\n      pop\n      swap4\n      pop\n      swap4\n      pop\n      swap4\n      pop\n      jump(tag_222)\n        /* \"Evm/zk/validators_verifier.sol\":15666:15792  if (c0 == 0 && c1 == 0) {... */\n    tag_224:\n        /* \"Evm/zk/validators_verifier.sol\":15802:15819  bool negate_point */\n      0x00\n        /* \"Evm/zk/validators_verifier.sol\":15832:15833  1 */\n      0x01\n        /* \"Evm/zk/validators_verifier.sol\":15827:15828  1 */\n      dup1\n        /* \"Evm/zk/validators_verifier.sol\":15822:15824  c0 */\n      dup9\n        /* \"Evm/zk/validators_verifier.sol\":15822:15828  c0 & 1 */\n      and\n        /* \"Evm/zk/validators_verifier.sol\":15822:15833  c0 & 1 == 1 */\n      eq\n        /* \"Evm/zk/validators_verifier.sol\":15802:15833  bool negate_point = c0 & 1 == 1 */\n      swap1\n      pop\n        /* \"Evm/zk/validators_verifier.sol\":15844:15853  bool hint */\n      0x00\n        /* \"Evm/zk/validators_verifier.sol\":15866:15867  2 */\n      0x02\n        /* \"Evm/zk/validators_verifier.sol\":15861:15862  2 */\n      dup1\n        /* \"Evm/zk/validators_verifier.sol\":15856:15858  c0 */\n      dup10\n        /* \"Evm/zk/validators_verifier.sol\":15856:15862  c0 & 2 */\n      and\n        /* \"Evm/zk/validators_verifier.sol\":15856:15867  c0 & 2 == 2 */\n      eq\n        /* \"Evm/zk/validators_verifier.sol\":15844:15867  bool hint = c0 & 2 == 2 */\n      swap1\n      pop\n        /* \"Evm/zk/validators_verifier.sol\":15889:15890  2 */\n      0x02\n        /* \"Evm/zk/validators_verifier.sol\":15883:15885  c0 */\n      dup9\n        /* \"Evm/zk/validators_verifier.sol\":15883:15890  c0 >> 2 */\n      swap1\n      shr\n        /* \"Evm/zk/validators_verifier.sol\":15878:15890  x0 = c0 >> 2 */\n      swap6\n      pop\n        /* \"Evm/zk/validators_verifier.sol\":15906:15908  c1 */\n      dup7\n        /* \"Evm/zk/validators_verifier.sol\":15901:15908  x1 = c1 */\n      swap5\n      pop\n        /* \"Evm/zk/validators_verifier.sol\":1423:1489  0x30644e72e131a029b85045b68181585d97816a916871ca8d3c208c16d87cfd47 */\n      0x30644e72e131a029b85045b68181585d97816a916871ca8d3c208c16d87cfd47\n        /* \"Evm/zk/validators_verifier.sol\":15923:15925  x0 */\n      dup7\n        /* \"Evm/zk/validators_verifier.sol\":15923:15930  x0 >= P */\n      lt\n      iszero\n        /* \"Evm/zk/validators_verifier.sol\":15923:15941  x0 >= P || x1 >= P */\n      dup1\n      tag_225\n      jumpi\n      pop\n        /* \"Evm/zk/validators_verifier.sol\":1423:1489  0x30644e72e131a029b85045b68181585d97816a916871ca8d3c208c16d87cfd47 */\n      0x30644e72e131a029b85045b68181585d97816a916871ca8d3c208c16d87cfd47\n        /* \"Evm/zk/validators_verifier.sol\":15934:15936  x1 */\n      dup6\n        /* \"Evm/zk/validators_verifier.sol\":15934:15941  x1 >= P */\n      lt\n      iszero\n        /* \"Evm/zk/validators_verifier.sol\":15923:15941  x0 >= P || x1 >= P */\n    tag_225:\n        /* \"Evm/zk/validators_verifier.sol\":15919:16045  if (x0 >= P || x1 >= P) {... */\n      iszero\n      tag_226\n      jumpi\n        /* \"Evm/zk/validators_verifier.sol\":16019:16033  ProofInvalid() */\n      mload(0x40)\n      0x7fcdd1f400000000000000000000000000000000000000000000000000000000\n      dup2\n      mstore\n      0x04\n      add\n      mload(0x40)\n      dup1\n      swap2\n      sub\n      swap1\n      revert\n        /* \"Evm/zk/validators_verifier.sol\":15919:16045  if (x0 >= P || x1 >= P) {... */\n    tag_226:\n        /* \"Evm/zk/validators_verifier.sol\":16057:16069  uint256 n3ab */\n      0x00\n        /* \"Evm/zk/validators_verifier.sol\":1423:1489  0x30644e72e131a029b85045b68181585d97816a916871ca8d3c208c16d87cfd47 */\n      0x30644e72e131a029b85045b68181585d97816a916871ca8d3c208c16d87cfd47\n        /* \"Evm/zk/validators_verifier.sol\":16072:16105  mulmod(mulmod(x0, x1, P), P-3, P) */\n      dup1\n      tag_227\n      jumpi\n      tag_228\n      tag_136\n      jump\t// in\n    tag_228:\n    tag_227:\n        /* \"Evm/zk/validators_verifier.sol\":16100:16101  3 */\n      0x03\n        /* \"Evm/zk/validators_verifier.sol\":1423:1489  0x30644e72e131a029b85045b68181585d97816a916871ca8d3c208c16d87cfd47 */\n      0x30644e72e131a029b85045b68181585d97816a916871ca8d3c208c16d87cfd47\n        /* \"Evm/zk/validators_verifier.sol\":16098:16101  P-3 */\n      tag_229\n      swap2\n      swap1\n      tag_157\n      jump\t// in\n    tag_229:\n        /* \"Evm/zk/validators_verifier.sol\":1423:1489  0x30644e72e131a029b85045b68181585d97816a916871ca8d3c208c16d87cfd47 */\n      0x30644e72e131a029b85045b68181585d97816a916871ca8d3c208c16d87cfd47\n        /* \"Evm/zk/validators_verifier.sol\":16079:16096  mulmod(x0, x1, P) */\n      dup1\n      tag_230\n      jumpi\n      tag_231\n      tag_136\n      jump\t// in\n    tag_231:\n    tag_230:\n        /* \"Evm/zk/validators_verifier.sol\":16090:16092  x1 */\n      dup9\n        /* \"Evm/zk/validators_verifier.sol\":16086:16088  x0 */\n      dup11\n        /* \"Evm/zk/validators_verifier.sol\":16079:16096  mulmod(x0, x1, P) */\n      mulmod\n        /* \"Evm/zk/validators_verifier.sol\":16072:16105  mulmod(mulmod(x0, x1, P), P-3, P) */\n      mulmod\n        /* \"Evm/zk/validators_verifier.sol\":16057:16105  uint256 n3ab = mulmod(mulmod(x0, x1, P), P-3, P) */\n      swap1\n      pop\n        /* \"Evm/zk/validators_verifier.sol\":16116:16127  uint256 a_3 */\n      0x00\n        /* \"Evm/zk/validators_verifier.sol\":1423:1489  0x30644e72e131a029b85045b68181585d97816a916871ca8d3c208c16d87cfd47 */\n      0x30644e72e131a029b85045b68181585d97816a916871ca8d3c208c16d87cfd47\n        /* \"Evm/zk/validators_verifier.sol\":16130:16162  mulmod(mulmod(x0, x0, P), x0, P) */\n      dup1\n      tag_232\n      jumpi\n      tag_233\n      tag_136\n      jump\t// in\n    tag_233:\n    tag_232:\n        /* \"Evm/zk/validators_verifier.sol\":16156:16158  x0 */\n      dup9\n        /* \"Evm/zk/validators_verifier.sol\":1423:1489  0x30644e72e131a029b85045b68181585d97816a916871ca8d3c208c16d87cfd47 */\n      0x30644e72e131a029b85045b68181585d97816a916871ca8d3c208c16d87cfd47\n        /* \"Evm/zk/validators_verifier.sol\":16137:16154  mulmod(x0, x0, P) */\n      dup1\n      tag_234\n      jumpi\n      tag_235\n      tag_136\n      jump\t// in\n    tag_235:\n    tag_234:\n        /* \"Evm/zk/validators_verifier.sol\":16148:16150  x0 */\n      dup11\n        /* \"Evm/zk/validators_verifier.sol\":16144:16146  x0 */\n      dup12\n        /* \"Evm/zk/validators_verifier.sol\":16137:16154  mulmod(x0, x0, P) */\n      mulmod\n        /* \"Evm/zk/validators_verifier.sol\":16130:16162  mulmod(mulmod(x0, x0, P), x0, P) */\n      mulmod\n        /* \"Evm/zk/validators_verifier.sol\":16116:16162  uint256 a_3 = mulmod(mulmod(x0, x0, P), x0, P) */\n      swap1\n      pop\n        /* \"Evm/zk/validators_verifier.sol\":16173:16184  uint256 b_3 */\n      0x00\n        /* \"Evm/zk/validators_verifier.sol\":1423:1489  0x30644e72e131a029b85045b68181585d97816a916871ca8d3c208c16d87cfd47 */\n      0x30644e72e131a029b85045b68181585d97816a916871ca8d3c208c16d87cfd47\n        /* \"Evm/zk/validators_verifier.sol\":16187:16219  mulmod(mulmod(x1, x1, P), x1, P) */\n      dup1\n      tag_236\n      jumpi\n      tag_237\n      tag_136\n      jump\t// in\n    tag_237:\n    tag_236:\n        /* \"Evm/zk/validators_verifier.sol\":16213:16215  x1 */\n      dup9\n        /* \"Evm/zk/validators_verifier.sol\":1423:1489  0x30644e72e131a029b85045b68181585d97816a916871ca8d3c208c16d87cfd47 */\n      0x30644e72e131a029b85045b68181585d97816a916871ca8d3c208c16d87cfd47\n        /* \"Evm/zk/validators_verifier.sol\":16194:16211  mulmod(x1, x1, P) */\n      dup1\n      tag_238\n      jumpi\n      tag_239\n      tag_136\n      jump\t// in\n    tag_239:\n    tag_238:\n        /* \"Evm/zk/validators_verifier.sol\":16205:16207  x1 */\n      dup11\n        /* \"Evm/zk/validators_verifier.sol\":16201:16203  x1 */\n      dup12\n        /* \"Evm/zk/validators_verifier.sol\":16194:16211  mulmod(x1, x1, P) */\n      mulmod\n        /* \"Evm/zk/validators_verifier.sol\":16187:16219  mulmod(mulmod(x1, x1, P), x1, P) */\n      mulmod\n        /* \"Evm/zk/validators_verifier.sol\":16173:16219  uint256 b_3 = mulmod(mulmod(x1, x1, P), x1, P) */\n      swap1\n      pop\n        /* \"Evm/zk/validators_verifier.sol\":1423:1489  0x30644e72e131a029b85045b68181585d97816a916871ca8d3c208c16d87cfd47 */\n      0x30644e72e131a029b85045b68181585d97816a916871ca8d3c208c16d87cfd47\n        /* \"Evm/zk/validators_verifier.sol\":16237:16302  addmod(FRACTION_27_82_FP, addmod(a_3, mulmod(n3ab, x1, P), P), P) */\n      dup1\n      tag_240\n      jumpi\n      tag_241\n      tag_136\n      jump\t// in\n    tag_241:\n    tag_240:\n        /* \"Evm/zk/validators_verifier.sol\":1423:1489  0x30644e72e131a029b85045b68181585d97816a916871ca8d3c208c16d87cfd47 */\n      0x30644e72e131a029b85045b68181585d97816a916871ca8d3c208c16d87cfd47\n        /* \"Evm/zk/validators_verifier.sol\":16263:16298  addmod(a_3, mulmod(n3ab, x1, P), P) */\n      dup1\n      tag_242\n      jumpi\n      tag_243\n      tag_136\n      jump\t// in\n    tag_243:\n    tag_242:\n        /* \"Evm/zk/validators_verifier.sol\":1423:1489  0x30644e72e131a029b85045b68181585d97816a916871ca8d3c208c16d87cfd47 */\n      0x30644e72e131a029b85045b68181585d97816a916871ca8d3c208c16d87cfd47\n        /* \"Evm/zk/validators_verifier.sol\":16275:16294  mulmod(n3ab, x1, P) */\n      dup1\n      tag_244\n      jumpi\n      tag_245\n      tag_136\n      jump\t// in\n    tag_245:\n    tag_244:\n        /* \"Evm/zk/validators_verifier.sol\":16288:16290  x1 */\n      dup11\n        /* \"Evm/zk/validators_verifier.sol\":16282:16286  n3ab */\n      dup7\n        /* \"Evm/zk/validators_verifier.sol\":16275:16294  mulmod(n3ab, x1, P) */\n      mulmod\n        /* \"Evm/zk/validators_verifier.sol\":16270:16273  a_3 */\n      dup5\n        /* \"Evm/zk/validators_verifier.sol\":16263:16298  addmod(a_3, mulmod(n3ab, x1, P), P) */\n      addmod\n        /* \"Evm/zk/validators_verifier.sol\":2254:2320  0x2b149d40ceb8aaae81be18991be06ac3b5b4c5e559dbefa33267e6dc24a138e5 */\n      0x2b149d40ceb8aaae81be18991be06ac3b5b4c5e559dbefa33267e6dc24a138e5\n        /* \"Evm/zk/validators_verifier.sol\":16237:16302  addmod(FRACTION_27_82_FP, addmod(a_3, mulmod(n3ab, x1, P), P), P) */\n      addmod\n        /* \"Evm/zk/validators_verifier.sol\":16232:16302  y0 = addmod(FRACTION_27_82_FP, addmod(a_3, mulmod(n3ab, x1, P), P), P) */\n      swap7\n      pop\n        /* \"Evm/zk/validators_verifier.sol\":16318:16391  negate(addmod(FRACTION_3_82_FP,  addmod(b_3, mulmod(n3ab, x0, P), P), P)) */\n      tag_246\n        /* \"Evm/zk/validators_verifier.sol\":1423:1489  0x30644e72e131a029b85045b68181585d97816a916871ca8d3c208c16d87cfd47 */\n      0x30644e72e131a029b85045b68181585d97816a916871ca8d3c208c16d87cfd47\n        /* \"Evm/zk/validators_verifier.sol\":16325:16390  addmod(FRACTION_3_82_FP,  addmod(b_3, mulmod(n3ab, x0, P), P), P) */\n      dup1\n      tag_247\n      jumpi\n      tag_248\n      tag_136\n      jump\t// in\n    tag_248:\n    tag_247:\n        /* \"Evm/zk/validators_verifier.sol\":1423:1489  0x30644e72e131a029b85045b68181585d97816a916871ca8d3c208c16d87cfd47 */\n      0x30644e72e131a029b85045b68181585d97816a916871ca8d3c208c16d87cfd47\n        /* \"Evm/zk/validators_verifier.sol\":16351:16386  addmod(b_3, mulmod(n3ab, x0, P), P) */\n      dup1\n      tag_249\n      jumpi\n      tag_250\n      tag_136\n      jump\t// in\n    tag_250:\n    tag_249:\n        /* \"Evm/zk/validators_verifier.sol\":1423:1489  0x30644e72e131a029b85045b68181585d97816a916871ca8d3c208c16d87cfd47 */\n      0x30644e72e131a029b85045b68181585d97816a916871ca8d3c208c16d87cfd47\n        /* \"Evm/zk/validators_verifier.sol\":16363:16382  mulmod(n3ab, x0, P) */\n      dup1\n      tag_251\n      jumpi\n      tag_252\n      tag_136\n      jump\t// in\n    tag_252:\n    tag_251:\n        /* \"Evm/zk/validators_verifier.sol\":16376:16378  x0 */\n      dup13\n        /* \"Evm/zk/validators_verifier.sol\":16370:16374  n3ab */\n      dup8\n        /* \"Evm/zk/validators_verifier.sol\":16363:16382  mulmod(n3ab, x0, P) */\n      mulmod\n        /* \"Evm/zk/validators_verifier.sol\":16358:16361  b_3 */\n      dup5\n        /* \"Evm/zk/validators_verifier.sol\":16351:16386  addmod(b_3, mulmod(n3ab, x0, P), P) */\n      addmod\n        /* \"Evm/zk/validators_verifier.sol\":2363:2429  0x2fcd3ac2a640a154eb23960892a85a68f031ca0c8344b23a577dcf1052b9e775 */\n      0x2fcd3ac2a640a154eb23960892a85a68f031ca0c8344b23a577dcf1052b9e775\n        /* \"Evm/zk/validators_verifier.sol\":16325:16390  addmod(FRACTION_3_82_FP,  addmod(b_3, mulmod(n3ab, x0, P), P), P) */\n      addmod\n        /* \"Evm/zk/validators_verifier.sol\":16318:16324  negate */\n      tag_145\n        /* \"Evm/zk/validators_verifier.sol\":16318:16391  negate(addmod(FRACTION_3_82_FP,  addmod(b_3, mulmod(n3ab, x0, P), P), P)) */\n      jump\t// in\n    tag_246:\n        /* \"Evm/zk/validators_verifier.sol\":16313:16391  y1 = negate(addmod(FRACTION_3_82_FP,  addmod(b_3, mulmod(n3ab, x0, P), P), P)) */\n      swap6\n      pop\n        /* \"Evm/zk/validators_verifier.sol\":16656:16678  sqrt_Fp2(y0, y1, hint) */\n      tag_253\n        /* \"Evm/zk/validators_verifier.sol\":16665:16667  y0 */\n      dup8\n        /* \"Evm/zk/validators_verifier.sol\":16669:16671  y1 */\n      dup8\n        /* \"Evm/zk/validators_verifier.sol\":16673:16677  hint */\n      dup7\n        /* \"Evm/zk/validators_verifier.sol\":16656:16664  sqrt_Fp2 */\n      tag_195\n        /* \"Evm/zk/validators_verifier.sol\":16656:16678  sqrt_Fp2(y0, y1, hint) */\n      jump\t// in\n    tag_253:\n        /* \"Evm/zk/validators_verifier.sol\":16645:16678  (y0, y1) = sqrt_Fp2(y0, y1, hint) */\n      dup1\n      swap8\n      pop\n      dup2\n      swap9\n      pop\n      pop\n      pop\n        /* \"Evm/zk/validators_verifier.sol\":16693:16705  negate_point */\n      dup5\n        /* \"Evm/zk/validators_verifier.sol\":16689:16779  if (negate_point) {... */\n      iszero\n      tag_254\n      jumpi\n        /* \"Evm/zk/validators_verifier.sol\":16727:16737  negate(y0) */\n      tag_255\n        /* \"Evm/zk/validators_verifier.sol\":16734:16736  y0 */\n      dup8\n        /* \"Evm/zk/validators_verifier.sol\":16727:16733  negate */\n      tag_145\n        /* \"Evm/zk/validators_verifier.sol\":16727:16737  negate(y0) */\n      jump\t// in\n    tag_255:\n        /* \"Evm/zk/validators_verifier.sol\":16722:16737  y0 = negate(y0) */\n      swap7\n      pop\n        /* \"Evm/zk/validators_verifier.sol\":16757:16767  negate(y1) */\n      tag_256\n        /* \"Evm/zk/validators_verifier.sol\":16764:16766  y1 */\n      dup7\n        /* \"Evm/zk/validators_verifier.sol\":16757:16763  negate */\n      tag_145\n        /* \"Evm/zk/validators_verifier.sol\":16757:16767  negate(y1) */\n      jump\t// in\n    tag_256:\n        /* \"Evm/zk/validators_verifier.sol\":16752:16767  y1 = negate(y1) */\n      swap6\n      pop\n        /* \"Evm/zk/validators_verifier.sol\":16689:16779  if (negate_point) {... */\n    tag_254:\n        /* \"Evm/zk/validators_verifier.sol\":15498:16786  {... */\n      pop\n      pop\n      pop\n      pop\n      pop\n        /* \"Evm/zk/validators_verifier.sol\":15375:16786  function decompress_g2(uint256 c0, uint256 c1)... */\n    tag_222:\n      swap3\n      swap6\n      swap2\n      swap5\n      pop\n      swap3\n      pop\n      jump\t// out\n        /* \"Evm/zk/validators_verifier.sol\":7586:7893  function sqrt_Fp(uint256 a) internal view returns (uint256 x) {... */\n    tag_141:\n        /* \"Evm/zk/validators_verifier.sol\":7637:7646  uint256 x */\n      0x00\n        /* \"Evm/zk/validators_verifier.sol\":7663:7682  exp(a, EXP_SQRT_FP) */\n      tag_258\n        /* \"Evm/zk/validators_verifier.sol\":7667:7668  a */\n      dup3\n        /* \"Evm/zk/validators_verifier.sol\":2641:2706  0xC19139CB84C680A6E14116DA060561765E05AA45A1C72A34F082305B61F3F52 */\n      0x0c19139cb84c680a6e14116da060561765e05aa45a1c72a34f082305b61f3f52\n        /* \"Evm/zk/validators_verifier.sol\":7663:7666  exp */\n      tag_259\n        /* \"Evm/zk/validators_verifier.sol\":7663:7682  exp(a, EXP_SQRT_FP) */\n      jump\t// in\n    tag_258:\n        /* \"Evm/zk/validators_verifier.sol\":7659:7682  x = exp(a, EXP_SQRT_FP) */\n      swap1\n      pop\n        /* \"Evm/zk/validators_verifier.sol\":7716:7717  a */\n      dup2\n        /* \"Evm/zk/validators_verifier.sol\":1423:1489  0x30644e72e131a029b85045b68181585d97816a916871ca8d3c208c16d87cfd47 */\n      0x30644e72e131a029b85045b68181585d97816a916871ca8d3c208c16d87cfd47\n        /* \"Evm/zk/validators_verifier.sol\":7697:7712  mulmod(x, x, P) */\n      dup1\n      tag_260\n      jumpi\n      tag_261\n      tag_136\n      jump\t// in\n    tag_261:\n    tag_260:\n        /* \"Evm/zk/validators_verifier.sol\":7707:7708  x */\n      dup3\n        /* \"Evm/zk/validators_verifier.sol\":7704:7705  x */\n      dup4\n        /* \"Evm/zk/validators_verifier.sol\":7697:7712  mulmod(x, x, P) */\n      mulmod\n        /* \"Evm/zk/validators_verifier.sol\":7697:7717  mulmod(x, x, P) != a */\n      eq\n        /* \"Evm/zk/validators_verifier.sol\":7693:7886  if (mulmod(x, x, P) != a) {... */\n      tag_262\n      jumpi\n        /* \"Evm/zk/validators_verifier.sol\":7860:7874  ProofInvalid() */\n      mload(0x40)\n      0x7fcdd1f400000000000000000000000000000000000000000000000000000000\n      dup2\n      mstore\n      0x04\n      add\n      mload(0x40)\n      dup1\n      swap2\n      sub\n      swap1\n      revert\n        /* \"Evm/zk/validators_verifier.sol\":7693:7886  if (mulmod(x, x, P) != a) {... */\n    tag_262:\n        /* \"Evm/zk/validators_verifier.sol\":7586:7893  function sqrt_Fp(uint256 a) internal view returns (uint256 x) {... */\n      swap2\n      swap1\n      pop\n      jump\t// out\n        /* \"Evm/zk/validators_verifier.sol\":5666:5839  function negate(uint256 a) internal pure returns (uint256 x) {... */\n    tag_145:\n        /* \"Evm/zk/validators_verifier.sol\":5716:5725  uint256 x */\n      0x00\n        /* \"Evm/zk/validators_verifier.sol\":1423:1489  0x30644e72e131a029b85045b68181585d97816a916871ca8d3c208c16d87cfd47 */\n      0x30644e72e131a029b85045b68181585d97816a916871ca8d3c208c16d87cfd47\n      dup1\n        /* \"Evm/zk/validators_verifier.sol\":5773:5774  a */\n      dup4\n        /* \"Evm/zk/validators_verifier.sol\":5773:5778  a % P */\n      dup2\n      tag_264\n      jumpi\n      tag_265\n      tag_136\n      jump\t// in\n    tag_265:\n    tag_264:\n      mod\n        /* \"Evm/zk/validators_verifier.sol\":1423:1489  0x30644e72e131a029b85045b68181585d97816a916871ca8d3c208c16d87cfd47 */\n      0x30644e72e131a029b85045b68181585d97816a916871ca8d3c208c16d87cfd47\n        /* \"Evm/zk/validators_verifier.sol\":5768:5779  P - (a % P) */\n      sub\n        /* \"Evm/zk/validators_verifier.sol\":5767:5784  (P - (a % P)) % P */\n      dup2\n      tag_266\n      jumpi\n      tag_267\n      tag_136\n      jump\t// in\n    tag_267:\n    tag_266:\n      mod\n        /* \"Evm/zk/validators_verifier.sol\":5763:5784  x = (P - (a % P)) % P */\n      swap1\n      pop\n        /* \"Evm/zk/validators_verifier.sol\":5666:5839  function negate(uint256 a) internal pure returns (uint256 x) {... */\n      swap2\n      swap1\n      pop\n      jump\t// out\n        /* \"Evm/zk/validators_verifier.sol\":8171:8320  function isSquare_Fp(uint256 a) internal view returns (bool) {... */\n    tag_193:\n        /* \"Evm/zk/validators_verifier.sol\":8226:8230  bool */\n      0x00\n        /* \"Evm/zk/validators_verifier.sol\":8243:8252  uint256 x */\n      0x00\n        /* \"Evm/zk/validators_verifier.sol\":8255:8274  exp(a, EXP_SQRT_FP) */\n      tag_269\n        /* \"Evm/zk/validators_verifier.sol\":8259:8260  a */\n      dup4\n        /* \"Evm/zk/validators_verifier.sol\":2641:2706  0xC19139CB84C680A6E14116DA060561765E05AA45A1C72A34F082305B61F3F52 */\n      0x0c19139cb84c680a6e14116da060561765e05aa45a1c72a34f082305b61f3f52\n        /* \"Evm/zk/validators_verifier.sol\":8255:8258  exp */\n      tag_259\n        /* \"Evm/zk/validators_verifier.sol\":8255:8274  exp(a, EXP_SQRT_FP) */\n      jump\t// in\n    tag_269:\n        /* \"Evm/zk/validators_verifier.sol\":8243:8274  uint256 x = exp(a, EXP_SQRT_FP) */\n      swap1\n      pop\n        /* \"Evm/zk/validators_verifier.sol\":8311:8312  a */\n      dup3\n        /* \"Evm/zk/validators_verifier.sol\":1423:1489  0x30644e72e131a029b85045b68181585d97816a916871ca8d3c208c16d87cfd47 */\n      0x30644e72e131a029b85045b68181585d97816a916871ca8d3c208c16d87cfd47\n        /* \"Evm/zk/validators_verifier.sol\":8292:8307  mulmod(x, x, P) */\n      dup1\n      tag_270\n      jumpi\n      tag_271\n      tag_136\n      jump\t// in\n    tag_271:\n    tag_270:\n        /* \"Evm/zk/validators_verifier.sol\":8302:8303  x */\n      dup3\n        /* \"Evm/zk/validators_verifier.sol\":8299:8300  x */\n      dup4\n        /* \"Evm/zk/validators_verifier.sol\":8292:8307  mulmod(x, x, P) */\n      mulmod\n        /* \"Evm/zk/validators_verifier.sol\":8292:8312  mulmod(x, x, P) == a */\n      eq\n        /* \"Evm/zk/validators_verifier.sol\":8285:8312  return mulmod(x, x, P) == a */\n      swap2\n      pop\n      pop\n        /* \"Evm/zk/validators_verifier.sol\":8171:8320  function isSquare_Fp(uint256 a) internal view returns (bool) {... */\n      swap2\n      swap1\n      pop\n      jump\t// out\n        /* \"Evm/zk/validators_verifier.sol\":8966:9773  function sqrt_Fp2(uint256 a0, uint256 a1, bool hint) internal view returns (uint256 x0, uint256 x1) {... */\n    tag_195:\n        /* \"Evm/zk/validators_verifier.sol\":9042:9052  uint256 x0 */\n      0x00\n        /* \"Evm/zk/validators_verifier.sol\":9054:9064  uint256 x1 */\n      0x00\n        /* \"Evm/zk/validators_verifier.sol\":9146:9155  uint256 d */\n      0x00\n        /* \"Evm/zk/validators_verifier.sol\":9158:9214  sqrt_Fp(addmod(mulmod(a0, a0, P), mulmod(a1, a1, P), P)) */\n      tag_273\n        /* \"Evm/zk/validators_verifier.sol\":1423:1489  0x30644e72e131a029b85045b68181585d97816a916871ca8d3c208c16d87cfd47 */\n      0x30644e72e131a029b85045b68181585d97816a916871ca8d3c208c16d87cfd47\n        /* \"Evm/zk/validators_verifier.sol\":9166:9213  addmod(mulmod(a0, a0, P), mulmod(a1, a1, P), P) */\n      dup1\n      tag_274\n      jumpi\n      tag_275\n      tag_136\n      jump\t// in\n    tag_275:\n    tag_274:\n        /* \"Evm/zk/validators_verifier.sol\":1423:1489  0x30644e72e131a029b85045b68181585d97816a916871ca8d3c208c16d87cfd47 */\n      0x30644e72e131a029b85045b68181585d97816a916871ca8d3c208c16d87cfd47\n        /* \"Evm/zk/validators_verifier.sol\":9192:9209  mulmod(a1, a1, P) */\n      dup1\n      tag_276\n      jumpi\n      tag_277\n      tag_136\n      jump\t// in\n    tag_277:\n    tag_276:\n        /* \"Evm/zk/validators_verifier.sol\":9203:9205  a1 */\n      dup8\n        /* \"Evm/zk/validators_verifier.sol\":9199:9201  a1 */\n      dup9\n        /* \"Evm/zk/validators_verifier.sol\":9192:9209  mulmod(a1, a1, P) */\n      mulmod\n        /* \"Evm/zk/validators_verifier.sol\":1423:1489  0x30644e72e131a029b85045b68181585d97816a916871ca8d3c208c16d87cfd47 */\n      0x30644e72e131a029b85045b68181585d97816a916871ca8d3c208c16d87cfd47\n        /* \"Evm/zk/validators_verifier.sol\":9173:9190  mulmod(a0, a0, P) */\n      dup1\n      tag_278\n      jumpi\n      tag_279\n      tag_136\n      jump\t// in\n    tag_279:\n    tag_278:\n        /* \"Evm/zk/validators_verifier.sol\":9184:9186  a0 */\n      dup10\n        /* \"Evm/zk/validators_verifier.sol\":9180:9182  a0 */\n      dup11\n        /* \"Evm/zk/validators_verifier.sol\":9173:9190  mulmod(a0, a0, P) */\n      mulmod\n        /* \"Evm/zk/validators_verifier.sol\":9166:9213  addmod(mulmod(a0, a0, P), mulmod(a1, a1, P), P) */\n      addmod\n        /* \"Evm/zk/validators_verifier.sol\":9158:9165  sqrt_Fp */\n      tag_141\n        /* \"Evm/zk/validators_verifier.sol\":9158:9214  sqrt_Fp(addmod(mulmod(a0, a0, P), mulmod(a1, a1, P), P)) */\n      jump\t// in\n    tag_273:\n        /* \"Evm/zk/validators_verifier.sol\":9146:9214  uint256 d = sqrt_Fp(addmod(mulmod(a0, a0, P), mulmod(a1, a1, P), P)) */\n      swap1\n      pop\n        /* \"Evm/zk/validators_verifier.sol\":9229:9233  hint */\n      dup4\n        /* \"Evm/zk/validators_verifier.sol\":9225:9275  if (hint) {... */\n      iszero\n      tag_280\n      jumpi\n        /* \"Evm/zk/validators_verifier.sol\":9254:9263  negate(d) */\n      tag_281\n        /* \"Evm/zk/validators_verifier.sol\":9261:9262  d */\n      dup2\n        /* \"Evm/zk/validators_verifier.sol\":9254:9260  negate */\n      tag_145\n        /* \"Evm/zk/validators_verifier.sol\":9254:9263  negate(d) */\n      jump\t// in\n    tag_281:\n        /* \"Evm/zk/validators_verifier.sol\":9250:9263  d = negate(d) */\n      swap1\n      pop\n        /* \"Evm/zk/validators_verifier.sol\":9225:9275  if (hint) {... */\n    tag_280:\n        /* \"Evm/zk/validators_verifier.sol\":9359:9412  sqrt_Fp(mulmod(addmod(a0, d, P), FRACTION_1_2_FP, P)) */\n      tag_282\n        /* \"Evm/zk/validators_verifier.sol\":1423:1489  0x30644e72e131a029b85045b68181585d97816a916871ca8d3c208c16d87cfd47 */\n      0x30644e72e131a029b85045b68181585d97816a916871ca8d3c208c16d87cfd47\n        /* \"Evm/zk/validators_verifier.sol\":9367:9411  mulmod(addmod(a0, d, P), FRACTION_1_2_FP, P) */\n      dup1\n      tag_283\n      jumpi\n      tag_284\n      tag_136\n      jump\t// in\n    tag_284:\n    tag_283:\n        /* \"Evm/zk/validators_verifier.sol\":2144:2210  0x183227397098d014dc2822db40c0ac2ecbc0b548b438e5469e10460b6c3e7ea4 */\n      0x183227397098d014dc2822db40c0ac2ecbc0b548b438e5469e10460b6c3e7ea4\n        /* \"Evm/zk/validators_verifier.sol\":1423:1489  0x30644e72e131a029b85045b68181585d97816a916871ca8d3c208c16d87cfd47 */\n      0x30644e72e131a029b85045b68181585d97816a916871ca8d3c208c16d87cfd47\n        /* \"Evm/zk/validators_verifier.sol\":9374:9390  addmod(a0, d, P) */\n      dup1\n      tag_285\n      jumpi\n      tag_286\n      tag_136\n      jump\t// in\n    tag_286:\n    tag_285:\n        /* \"Evm/zk/validators_verifier.sol\":9385:9386  d */\n      dup5\n        /* \"Evm/zk/validators_verifier.sol\":9381:9383  a0 */\n      dup11\n        /* \"Evm/zk/validators_verifier.sol\":9374:9390  addmod(a0, d, P) */\n      addmod\n        /* \"Evm/zk/validators_verifier.sol\":9367:9411  mulmod(addmod(a0, d, P), FRACTION_1_2_FP, P) */\n      mulmod\n        /* \"Evm/zk/validators_verifier.sol\":9359:9366  sqrt_Fp */\n      tag_141\n        /* \"Evm/zk/validators_verifier.sol\":9359:9412  sqrt_Fp(mulmod(addmod(a0, d, P), FRACTION_1_2_FP, P)) */\n      jump\t// in\n    tag_282:\n        /* \"Evm/zk/validators_verifier.sol\":9354:9412  x0 = sqrt_Fp(mulmod(addmod(a0, d, P), FRACTION_1_2_FP, P)) */\n      swap3\n      pop\n        /* \"Evm/zk/validators_verifier.sol\":1423:1489  0x30644e72e131a029b85045b68181585d97816a916871ca8d3c208c16d87cfd47 */\n      0x30644e72e131a029b85045b68181585d97816a916871ca8d3c208c16d87cfd47\n        /* \"Evm/zk/validators_verifier.sol\":9428:9470  mulmod(a1, invert_Fp(mulmod(x0, 2, P)), P) */\n      dup1\n      tag_287\n      jumpi\n      tag_288\n      tag_136\n      jump\t// in\n    tag_288:\n    tag_287:\n        /* \"Evm/zk/validators_verifier.sol\":9439:9466  invert_Fp(mulmod(x0, 2, P)) */\n      tag_289\n        /* \"Evm/zk/validators_verifier.sol\":1423:1489  0x30644e72e131a029b85045b68181585d97816a916871ca8d3c208c16d87cfd47 */\n      0x30644e72e131a029b85045b68181585d97816a916871ca8d3c208c16d87cfd47\n        /* \"Evm/zk/validators_verifier.sol\":9449:9465  mulmod(x0, 2, P) */\n      dup1\n      tag_290\n      jumpi\n      tag_291\n      tag_136\n      jump\t// in\n    tag_291:\n    tag_290:\n        /* \"Evm/zk/validators_verifier.sol\":9460:9461  2 */\n      0x02\n        /* \"Evm/zk/validators_verifier.sol\":9456:9458  x0 */\n      dup7\n        /* \"Evm/zk/validators_verifier.sol\":9449:9465  mulmod(x0, 2, P) */\n      mulmod\n        /* \"Evm/zk/validators_verifier.sol\":9439:9448  invert_Fp */\n      tag_292\n        /* \"Evm/zk/validators_verifier.sol\":9439:9466  invert_Fp(mulmod(x0, 2, P)) */\n      jump\t// in\n    tag_289:\n        /* \"Evm/zk/validators_verifier.sol\":9435:9437  a1 */\n      dup7\n        /* \"Evm/zk/validators_verifier.sol\":9428:9470  mulmod(a1, invert_Fp(mulmod(x0, 2, P)), P) */\n      mulmod\n        /* \"Evm/zk/validators_verifier.sol\":9423:9470  x1 = mulmod(a1, invert_Fp(mulmod(x0, 2, P)), P) */\n      swap2\n      pop\n        /* \"Evm/zk/validators_verifier.sol\":1423:1489  0x30644e72e131a029b85045b68181585d97816a916871ca8d3c208c16d87cfd47 */\n      0x30644e72e131a029b85045b68181585d97816a916871ca8d3c208c16d87cfd47\n        /* \"Evm/zk/validators_verifier.sol\":9610:9665  addmod(mulmod(x0, x0, P), negate(mulmod(x1, x1, P)), P) */\n      dup1\n      tag_293\n      jumpi\n      tag_294\n      tag_136\n      jump\t// in\n    tag_294:\n    tag_293:\n        /* \"Evm/zk/validators_verifier.sol\":9636:9661  negate(mulmod(x1, x1, P)) */\n      tag_295\n        /* \"Evm/zk/validators_verifier.sol\":1423:1489  0x30644e72e131a029b85045b68181585d97816a916871ca8d3c208c16d87cfd47 */\n      0x30644e72e131a029b85045b68181585d97816a916871ca8d3c208c16d87cfd47\n        /* \"Evm/zk/validators_verifier.sol\":9643:9660  mulmod(x1, x1, P) */\n      dup1\n      tag_296\n      jumpi\n      tag_297\n      tag_136\n      jump\t// in\n    tag_297:\n    tag_296:\n        /* \"Evm/zk/validators_verifier.sol\":9654:9656  x1 */\n      dup5\n        /* \"Evm/zk/validators_verifier.sol\":9650:9652  x1 */\n      dup6\n        /* \"Evm/zk/validators_verifier.sol\":9643:9660  mulmod(x1, x1, P) */\n      mulmod\n        /* \"Evm/zk/validators_verifier.sol\":9636:9642  negate */\n      tag_145\n        /* \"Evm/zk/validators_verifier.sol\":9636:9661  negate(mulmod(x1, x1, P)) */\n      jump\t// in\n    tag_295:\n        /* \"Evm/zk/validators_verifier.sol\":1423:1489  0x30644e72e131a029b85045b68181585d97816a916871ca8d3c208c16d87cfd47 */\n      0x30644e72e131a029b85045b68181585d97816a916871ca8d3c208c16d87cfd47\n        /* \"Evm/zk/validators_verifier.sol\":9617:9634  mulmod(x0, x0, P) */\n      dup1\n      tag_298\n      jumpi\n      tag_299\n      tag_136\n      jump\t// in\n    tag_299:\n    tag_298:\n        /* \"Evm/zk/validators_verifier.sol\":9628:9630  x0 */\n      dup6\n        /* \"Evm/zk/validators_verifier.sol\":9624:9626  x0 */\n      dup7\n        /* \"Evm/zk/validators_verifier.sol\":9617:9634  mulmod(x0, x0, P) */\n      mulmod\n        /* \"Evm/zk/validators_verifier.sol\":9610:9665  addmod(mulmod(x0, x0, P), negate(mulmod(x1, x1, P)), P) */\n      addmod\n        /* \"Evm/zk/validators_verifier.sol\":9604:9606  a0 */\n      dup7\n        /* \"Evm/zk/validators_verifier.sol\":9604:9665  a0 != addmod(mulmod(x0, x0, P), negate(mulmod(x1, x1, P)), P) */\n      eq\n      iszero\n        /* \"Evm/zk/validators_verifier.sol\":9604:9716  a0 != addmod(mulmod(x0, x0, P), negate(mulmod(x1, x1, P)), P)... */\n      dup1\n      tag_300\n      jumpi\n      pop\n        /* \"Evm/zk/validators_verifier.sol\":1423:1489  0x30644e72e131a029b85045b68181585d97816a916871ca8d3c208c16d87cfd47 */\n      0x30644e72e131a029b85045b68181585d97816a916871ca8d3c208c16d87cfd47\n        /* \"Evm/zk/validators_verifier.sol\":9685:9716  mulmod(2, mulmod(x0, x1, P), P) */\n      dup1\n      tag_301\n      jumpi\n      tag_302\n      tag_136\n      jump\t// in\n    tag_302:\n    tag_301:\n        /* \"Evm/zk/validators_verifier.sol\":1423:1489  0x30644e72e131a029b85045b68181585d97816a916871ca8d3c208c16d87cfd47 */\n      0x30644e72e131a029b85045b68181585d97816a916871ca8d3c208c16d87cfd47\n        /* \"Evm/zk/validators_verifier.sol\":9695:9712  mulmod(x0, x1, P) */\n      dup1\n      tag_303\n      jumpi\n      tag_304\n      tag_136\n      jump\t// in\n    tag_304:\n    tag_303:\n        /* \"Evm/zk/validators_verifier.sol\":9706:9708  x1 */\n      dup4\n        /* \"Evm/zk/validators_verifier.sol\":9702:9704  x0 */\n      dup6\n        /* \"Evm/zk/validators_verifier.sol\":9695:9712  mulmod(x0, x1, P) */\n      mulmod\n        /* \"Evm/zk/validators_verifier.sol\":9692:9693  2 */\n      0x02\n        /* \"Evm/zk/validators_verifier.sol\":9685:9716  mulmod(2, mulmod(x0, x1, P), P) */\n      mulmod\n        /* \"Evm/zk/validators_verifier.sol\":9679:9681  a1 */\n      dup6\n        /* \"Evm/zk/validators_verifier.sol\":9679:9716  a1 != mulmod(2, mulmod(x0, x1, P), P) */\n      eq\n      iszero\n        /* \"Evm/zk/validators_verifier.sol\":9604:9716  a0 != addmod(mulmod(x0, x0, P), negate(mulmod(x1, x1, P)), P)... */\n    tag_300:\n        /* \"Evm/zk/validators_verifier.sol\":9600:9766  if (a0 != addmod(mulmod(x0, x0, P), negate(mulmod(x1, x1, P)), P)... */\n      iszero\n      tag_305\n      jumpi\n        /* \"Evm/zk/validators_verifier.sol\":9740:9754  ProofInvalid() */\n      mload(0x40)\n      0x7fcdd1f400000000000000000000000000000000000000000000000000000000\n      dup2\n      mstore\n      0x04\n      add\n      mload(0x40)\n      dup1\n      swap2\n      sub\n      swap1\n      revert\n        /* \"Evm/zk/validators_verifier.sol\":9600:9766  if (a0 != addmod(mulmod(x0, x0, P), negate(mulmod(x1, x1, P)), P)... */\n    tag_305:\n        /* \"Evm/zk/validators_verifier.sol\":9066:9773  {... */\n      pop\n        /* \"Evm/zk/validators_verifier.sol\":8966:9773  function sqrt_Fp2(uint256 a0, uint256 a1, bool hint) internal view returns (uint256 x0, uint256 x1) {... */\n      swap4\n      pop\n      swap4\n      swap2\n      pop\n      pop\n      jump\t// out\n        /* \"Evm/zk/validators_verifier.sol\":6085:6738  function exp(uint256 a, uint256 e) internal view returns (uint256 x) {... */\n    tag_259:\n        /* \"Evm/zk/validators_verifier.sol\":6143:6152  uint256 x */\n      0x00\n        /* \"Evm/zk/validators_verifier.sol\":6165:6177  bool success */\n      0x00\n        /* \"Evm/zk/validators_verifier.sol\":6243:6247  0x40 */\n      0x40\n        /* \"Evm/zk/validators_verifier.sol\":6237:6248  mload(0x40) */\n      mload\n        /* \"Evm/zk/validators_verifier.sol\":6272:6276  0x20 */\n      0x20\n        /* \"Evm/zk/validators_verifier.sol\":6269:6270  f */\n      dup2\n        /* \"Evm/zk/validators_verifier.sol\":6262:6277  mstore(f, 0x20) */\n      mstore\n        /* \"Evm/zk/validators_verifier.sol\":6312:6316  0x20 */\n      0x20\n        /* \"Evm/zk/validators_verifier.sol\":6305:6309  0x20 */\n      dup1\n        /* \"Evm/zk/validators_verifier.sol\":6302:6303  f */\n      dup3\n        /* \"Evm/zk/validators_verifier.sol\":6298:6310  add(f, 0x20) */\n      add\n        /* \"Evm/zk/validators_verifier.sol\":6291:6317  mstore(add(f, 0x20), 0x20) */\n      mstore\n        /* \"Evm/zk/validators_verifier.sol\":6352:6356  0x20 */\n      0x20\n        /* \"Evm/zk/validators_verifier.sol\":6345:6349  0x40 */\n      0x40\n        /* \"Evm/zk/validators_verifier.sol\":6342:6343  f */\n      dup3\n        /* \"Evm/zk/validators_verifier.sol\":6338:6350  add(f, 0x40) */\n      add\n        /* \"Evm/zk/validators_verifier.sol\":6331:6357  mstore(add(f, 0x40), 0x20) */\n      mstore\n        /* \"Evm/zk/validators_verifier.sol\":6392:6393  a */\n      dup5\n        /* \"Evm/zk/validators_verifier.sol\":6385:6389  0x60 */\n      0x60\n        /* \"Evm/zk/validators_verifier.sol\":6382:6383  f */\n      dup3\n        /* \"Evm/zk/validators_verifier.sol\":6378:6390  add(f, 0x60) */\n      add\n        /* \"Evm/zk/validators_verifier.sol\":6371:6394  mstore(add(f, 0x60), a) */\n      mstore\n        /* \"Evm/zk/validators_verifier.sol\":6429:6430  e */\n      dup4\n        /* \"Evm/zk/validators_verifier.sol\":6422:6426  0x80 */\n      0x80\n        /* \"Evm/zk/validators_verifier.sol\":6419:6420  f */\n      dup3\n        /* \"Evm/zk/validators_verifier.sol\":6415:6427  add(f, 0x80) */\n      add\n        /* \"Evm/zk/validators_verifier.sol\":6408:6431  mstore(add(f, 0x80), e) */\n      mstore\n        /* \"Evm/zk/validators_verifier.sol\":6466:6467  P */\n      0x30644e72e131a029b85045b68181585d97816a916871ca8d3c208c16d87cfd47\n        /* \"Evm/zk/validators_verifier.sol\":6459:6463  0xa0 */\n      0xa0\n        /* \"Evm/zk/validators_verifier.sol\":6456:6457  f */\n      dup3\n        /* \"Evm/zk/validators_verifier.sol\":6452:6464  add(f, 0xa0) */\n      add\n        /* \"Evm/zk/validators_verifier.sol\":6445:6468  mstore(add(f, 0xa0), P) */\n      mstore\n        /* \"Evm/zk/validators_verifier.sol\":6542:6546  0x20 */\n      0x20\n        /* \"Evm/zk/validators_verifier.sol\":6539:6540  f */\n      dup2\n        /* \"Evm/zk/validators_verifier.sol\":6533:6537  0xc0 */\n      0xc0\n        /* \"Evm/zk/validators_verifier.sol\":6530:6531  f */\n      dup4\n        /* \"Evm/zk/validators_verifier.sol\":6511:6528  PRECOMPILE_MODEXP */\n      0x05\n        /* \"Evm/zk/validators_verifier.sol\":6504:6509  gas() */\n      gas\n        /* \"Evm/zk/validators_verifier.sol\":6493:6547  staticcall(gas(), PRECOMPILE_MODEXP, f, 0xc0, f, 0x20) */\n      staticcall\n        /* \"Evm/zk/validators_verifier.sol\":6482:6547  success := staticcall(gas(), PRECOMPILE_MODEXP, f, 0xc0, f, 0x20) */\n      swap2\n      pop\n        /* \"Evm/zk/validators_verifier.sol\":6572:6573  f */\n      dup1\n        /* \"Evm/zk/validators_verifier.sol\":6566:6574  mload(f) */\n      mload\n        /* \"Evm/zk/validators_verifier.sol\":6561:6574  x := mload(f) */\n      swap3\n      pop\n        /* \"Evm/zk/validators_verifier.sol\":6213:6585  {... */\n      pop\n        /* \"Evm/zk/validators_verifier.sol\":6600:6607  success */\n      dup1\n        /* \"Evm/zk/validators_verifier.sol\":6595:6731  if (!success) {... */\n      tag_307\n      jumpi\n        /* \"Evm/zk/validators_verifier.sol\":6705:6719  ProofInvalid() */\n      mload(0x40)\n      0x7fcdd1f400000000000000000000000000000000000000000000000000000000\n      dup2\n      mstore\n      0x04\n      add\n      mload(0x40)\n      dup1\n      swap2\n      sub\n      swap1\n      revert\n        /* \"Evm/zk/validators_verifier.sol\":6595:6731  if (!success) {... */\n    tag_307:\n        /* \"Evm/zk/validators_verifier.sol\":6154:6738  {... */\n      pop\n        /* \"Evm/zk/validators_verifier.sol\":6085:6738  function exp(uint256 a, uint256 e) internal view returns (uint256 x) {... */\n      swap3\n      swap2\n      pop\n      pop\n      jump\t// out\n        /* \"Evm/zk/validators_verifier.sol\":7027:7323  function invert_Fp(uint256 a) internal view returns (uint256 x) {... */\n    tag_292:\n        /* \"Evm/zk/validators_verifier.sol\":7080:7089  uint256 x */\n      0x00\n        /* \"Evm/zk/validators_verifier.sol\":7106:7128  exp(a, EXP_INVERSE_FP) */\n      tag_309\n        /* \"Evm/zk/validators_verifier.sol\":7110:7111  a */\n      dup3\n        /* \"Evm/zk/validators_verifier.sol\":2528:2594  0x30644E72E131A029B85045B68181585D97816A916871CA8D3C208C16D87CFD45 */\n      0x30644e72e131a029b85045b68181585d97816a916871ca8d3c208c16d87cfd45\n        /* \"Evm/zk/validators_verifier.sol\":7106:7109  exp */\n      tag_259\n        /* \"Evm/zk/validators_verifier.sol\":7106:7128  exp(a, EXP_INVERSE_FP) */\n      jump\t// in\n    tag_309:\n        /* \"Evm/zk/validators_verifier.sol\":7102:7128  x = exp(a, EXP_INVERSE_FP) */\n      swap1\n      pop\n        /* \"Evm/zk/validators_verifier.sol\":7162:7163  1 */\n      0x01\n        /* \"Evm/zk/validators_verifier.sol\":1423:1489  0x30644e72e131a029b85045b68181585d97816a916871ca8d3c208c16d87cfd47 */\n      0x30644e72e131a029b85045b68181585d97816a916871ca8d3c208c16d87cfd47\n        /* \"Evm/zk/validators_verifier.sol\":7143:7158  mulmod(a, x, P) */\n      dup1\n      tag_310\n      jumpi\n      tag_311\n      tag_136\n      jump\t// in\n    tag_311:\n    tag_310:\n        /* \"Evm/zk/validators_verifier.sol\":7153:7154  x */\n      dup3\n        /* \"Evm/zk/validators_verifier.sol\":7150:7151  a */\n      dup5\n        /* \"Evm/zk/validators_verifier.sol\":7143:7158  mulmod(a, x, P) */\n      mulmod\n        /* \"Evm/zk/validators_verifier.sol\":7143:7163  mulmod(a, x, P) != 1 */\n      eq\n        /* \"Evm/zk/validators_verifier.sol\":7139:7316  if (mulmod(a, x, P) != 1) {... */\n      tag_312\n      jumpi\n        /* \"Evm/zk/validators_verifier.sol\":7290:7304  ProofInvalid() */\n      mload(0x40)\n      0x7fcdd1f400000000000000000000000000000000000000000000000000000000\n      dup2\n      mstore\n      0x04\n      add\n      mload(0x40)\n      dup1\n      swap2\n      sub\n      swap1\n      revert\n        /* \"Evm/zk/validators_verifier.sol\":7139:7316  if (mulmod(a, x, P) != 1) {... */\n    tag_312:\n        /* \"Evm/zk/validators_verifier.sol\":7027:7323  function invert_Fp(uint256 a) internal view returns (uint256 x) {... */\n      swap2\n      swap1\n      pop\n      jump\t// out\n    tag_21:\n      mload(0x40)\n      dup1\n      0x80\n      add\n      0x40\n      mstore\n      dup1\n      0x04\n      swap1\n      0x20\n      dup3\n      mul\n      dup1\n      calldatasize\n      dup4\n      calldatacopy\n      dup1\n      dup3\n      add\n      swap2\n      pop\n      pop\n      swap1\n      pop\n      pop\n      swap1\n      jump\t// out\n    tag_59:\n      mload(0x40)\n      dup1\n      0x0300\n      add\n      0x40\n      mstore\n      dup1\n      0x18\n      swap1\n      0x20\n      dup3\n      mul\n      dup1\n      calldatasize\n      dup4\n      calldatacopy\n      dup1\n      dup3\n      add\n      swap2\n      pop\n      pop\n      swap1\n      pop\n      pop\n      swap1\n      jump\t// out\n    tag_123:\n      mload(0x40)\n      dup1\n      0x20\n      add\n      0x40\n      mstore\n      dup1\n      0x01\n      swap1\n      0x20\n      dup3\n      mul\n      dup1\n      calldatasize\n      dup4\n      calldatacopy\n      dup1\n      dup3\n      add\n      swap2\n      pop\n      pop\n      swap1\n      pop\n      pop\n      swap1\n      jump\t// out\n        /* \"#utility.yul\":88:205   */\n    tag_314:\n        /* \"#utility.yul\":197:198   */\n      0x00\n        /* \"#utility.yul\":194:195   */\n      0x00\n        /* \"#utility.yul\":187:199   */\n      revert\n        /* \"#utility.yul\":334:451   */\n    tag_316:\n        /* \"#utility.yul\":443:444   */\n      0x00\n        /* \"#utility.yul\":440:441   */\n      0x00\n        /* \"#utility.yul\":433:445   */\n      revert\n        /* \"#utility.yul\":475:724   */\n    tag_317:\n        /* \"#utility.yul\":546:554   */\n      0x00\n        /* \"#utility.yul\":577:583   */\n      dup2\n        /* \"#utility.yul\":565:583   */\n      swap1\n      pop\n        /* \"#utility.yul\":630:633   */\n      dup3\n        /* \"#utility.yul\":622:626   */\n      0x20\n        /* \"#utility.yul\":616:620   */\n      0x08\n        /* \"#utility.yul\":612:627   */\n      mul\n        /* \"#utility.yul\":602:610   */\n      dup3\n        /* \"#utility.yul\":598:628   */\n      add\n        /* \"#utility.yul\":595:634   */\n      gt\n        /* \"#utility.yul\":592:718   */\n      iszero\n      tag_335\n      jumpi\n        /* \"#utility.yul\":637:716   */\n      tag_336\n      tag_316\n      jump\t// in\n    tag_336:\n        /* \"#utility.yul\":592:718   */\n    tag_335:\n        /* \"#utility.yul\":475:724   */\n      swap3\n      swap2\n      pop\n      pop\n      jump\t// out\n        /* \"#utility.yul\":730:1110   */\n    tag_8:\n        /* \"#utility.yul\":814:820   */\n      0x00\n        /* \"#utility.yul\":863:866   */\n      0x0100\n        /* \"#utility.yul\":851:860   */\n      dup3\n        /* \"#utility.yul\":842:849   */\n      dup5\n        /* \"#utility.yul\":838:861   */\n      sub\n        /* \"#utility.yul\":834:867   */\n      slt\n        /* \"#utility.yul\":831:951   */\n      iszero\n      tag_338\n      jumpi\n        /* \"#utility.yul\":870:949   */\n      tag_339\n      tag_314\n      jump\t// in\n    tag_339:\n        /* \"#utility.yul\":831:951   */\n    tag_338:\n        /* \"#utility.yul\":990:991   */\n      0x00\n        /* \"#utility.yul\":1015:1093   */\n      tag_340\n        /* \"#utility.yul\":1085:1092   */\n      dup5\n        /* \"#utility.yul\":1076:1082   */\n      dup3\n        /* \"#utility.yul\":1065:1074   */\n      dup6\n        /* \"#utility.yul\":1061:1083   */\n      add\n        /* \"#utility.yul\":1015:1093   */\n      tag_317\n      jump\t// in\n    tag_340:\n        /* \"#utility.yul\":1005:1093   */\n      swap2\n      pop\n        /* \"#utility.yul\":961:1103   */\n      pop\n        /* \"#utility.yul\":730:1110   */\n      swap3\n      swap2\n      pop\n      pop\n      jump\t// out\n        /* \"#utility.yul\":1116:1220   */\n    tag_318:\n        /* \"#utility.yul\":1181:1187   */\n      0x00\n        /* \"#utility.yul\":1209:1213   */\n      0x04\n        /* \"#utility.yul\":1199:1213   */\n      swap1\n      pop\n        /* \"#utility.yul\":1116:1220   */\n      swap2\n      swap1\n      pop\n      jump\t// out\n        /* \"#utility.yul\":1226:1369   */\n    tag_319:\n        /* \"#utility.yul\":1323:1334   */\n      0x00\n        /* \"#utility.yul\":1360:1363   */\n      dup2\n        /* \"#utility.yul\":1345:1363   */\n      swap1\n      pop\n        /* \"#utility.yul\":1226:1369   */\n      swap3\n      swap2\n      pop\n      pop\n      jump\t// out\n        /* \"#utility.yul\":1375:1473   */\n    tag_320:\n        /* \"#utility.yul\":1440:1444   */\n      0x00\n        /* \"#utility.yul\":1463:1466   */\n      dup2\n        /* \"#utility.yul\":1455:1466   */\n      swap1\n      pop\n        /* \"#utility.yul\":1375:1473   */\n      swap2\n      swap1\n      pop\n      jump\t// out\n        /* \"#utility.yul\":1479:1556   */\n    tag_321:\n        /* \"#utility.yul\":1516:1523   */\n      0x00\n        /* \"#utility.yul\":1545:1550   */\n      dup2\n        /* \"#utility.yul\":1534:1550   */\n      swap1\n      pop\n        /* \"#utility.yul\":1479:1556   */\n      swap2\n      swap1\n      pop\n      jump\t// out\n        /* \"#utility.yul\":1562:1670   */\n    tag_322:\n        /* \"#utility.yul\":1639:1663   */\n      tag_346\n        /* \"#utility.yul\":1657:1662   */\n      dup2\n        /* \"#utility.yul\":1639:1663   */\n      tag_321\n      jump\t// in\n    tag_346:\n        /* \"#utility.yul\":1634:1637   */\n      dup3\n        /* \"#utility.yul\":1627:1664   */\n      mstore\n        /* \"#utility.yul\":1562:1670   */\n      pop\n      pop\n      jump\t// out\n        /* \"#utility.yul\":1676:1855   */\n    tag_323:\n        /* \"#utility.yul\":1745:1755   */\n      0x00\n        /* \"#utility.yul\":1766:1812   */\n      tag_348\n        /* \"#utility.yul\":1808:1811   */\n      dup4\n        /* \"#utility.yul\":1800:1806   */\n      dup4\n        /* \"#utility.yul\":1766:1812   */\n      tag_322\n      jump\t// in\n    tag_348:\n        /* \"#utility.yul\":1844:1848   */\n      0x20\n        /* \"#utility.yul\":1839:1842   */\n      dup4\n        /* \"#utility.yul\":1835:1849   */\n      add\n        /* \"#utility.yul\":1821:1849   */\n      swap1\n      pop\n        /* \"#utility.yul\":1676:1855   */\n      swap3\n      swap2\n      pop\n      pop\n      jump\t// out\n        /* \"#utility.yul\":1861:1972   */\n    tag_324:\n        /* \"#utility.yul\":1929:1933   */\n      0x00\n        /* \"#utility.yul\":1961:1965   */\n      0x20\n        /* \"#utility.yul\":1956:1959   */\n      dup3\n        /* \"#utility.yul\":1952:1966   */\n      add\n        /* \"#utility.yul\":1944:1966   */\n      swap1\n      pop\n        /* \"#utility.yul\":1861:1972   */\n      swap2\n      swap1\n      pop\n      jump\t// out\n        /* \"#utility.yul\":2010:2704   */\n    tag_325:\n        /* \"#utility.yul\":2146:2198   */\n      tag_351\n        /* \"#utility.yul\":2192:2197   */\n      dup2\n        /* \"#utility.yul\":2146:2198   */\n      tag_318\n      jump\t// in\n    tag_351:\n        /* \"#utility.yul\":2214:2298   */\n      tag_352\n        /* \"#utility.yul\":2291:2297   */\n      dup2\n        /* \"#utility.yul\":2286:2289   */\n      dup5\n        /* \"#utility.yul\":2214:2298   */\n      tag_319\n      jump\t// in\n    tag_352:\n        /* \"#utility.yul\":2207:2298   */\n      swap3\n      pop\n        /* \"#utility.yul\":2322:2376   */\n      tag_353\n        /* \"#utility.yul\":2370:2375   */\n      dup3\n        /* \"#utility.yul\":2322:2376   */\n      tag_320\n      jump\t// in\n    tag_353:\n        /* \"#utility.yul\":2399:2406   */\n      dup1\n        /* \"#utility.yul\":2430:2431   */\n      0x00\n        /* \"#utility.yul\":2415:2697   */\n    tag_354:\n        /* \"#utility.yul\":2440:2446   */\n      dup4\n        /* \"#utility.yul\":2437:2438   */\n      dup2\n        /* \"#utility.yul\":2434:2447   */\n      lt\n        /* \"#utility.yul\":2415:2697   */\n      iszero\n      tag_356\n      jumpi\n        /* \"#utility.yul\":2516:2522   */\n      dup2\n        /* \"#utility.yul\":2510:2523   */\n      mload\n        /* \"#utility.yul\":2543:2606   */\n      tag_357\n        /* \"#utility.yul\":2602:2605   */\n      dup8\n        /* \"#utility.yul\":2587:2600   */\n      dup3\n        /* \"#utility.yul\":2543:2606   */\n      tag_323\n      jump\t// in\n    tag_357:\n        /* \"#utility.yul\":2536:2606   */\n      swap7\n      pop\n        /* \"#utility.yul\":2629:2687   */\n      tag_358\n        /* \"#utility.yul\":2680:2686   */\n      dup4\n        /* \"#utility.yul\":2629:2687   */\n      tag_324\n      jump\t// in\n    tag_358:\n        /* \"#utility.yul\":2619:2687   */\n      swap3\n      pop\n        /* \"#utility.yul\":2475:2697   */\n      pop\n        /* \"#utility.yul\":2462:2463   */\n      0x01\n        /* \"#utility.yul\":2459:2460   */\n      dup2\n        /* \"#utility.yul\":2455:2464   */\n      add\n        /* \"#utility.yul\":2450:2464   */\n      swap1\n      pop\n        /* \"#utility.yul\":2415:2697   */\n      jump(tag_354)\n    tag_356:\n        /* \"#utility.yul\":2419:2433   */\n      pop\n        /* \"#utility.yul\":2122:2704   */\n      pop\n      pop\n      pop\n        /* \"#utility.yul\":2010:2704   */\n      pop\n      pop\n      jump\t// out\n        /* \"#utility.yul\":2710:3025   */\n    tag_11:\n        /* \"#utility.yul\":2849:2853   */\n      0x00\n        /* \"#utility.yul\":2887:2890   */\n      0x80\n        /* \"#utility.yul\":2876:2885   */\n      dup3\n        /* \"#utility.yul\":2872:2891   */\n      add\n        /* \"#utility.yul\":2864:2891   */\n      swap1\n      pop\n        /* \"#utility.yul\":2901:3018   */\n      tag_360\n        /* \"#utility.yul\":3015:3016   */\n      0x00\n        /* \"#utility.yul\":3004:3013   */\n      dup4\n        /* \"#utility.yul\":3000:3017   */\n      add\n        /* \"#utility.yul\":2991:2997   */\n      dup5\n        /* \"#utility.yul\":2901:3018   */\n      tag_325\n      jump\t// in\n    tag_360:\n        /* \"#utility.yul\":2710:3025   */\n      swap3\n      swap2\n      pop\n      pop\n      jump\t// out\n        /* \"#utility.yul\":3049:3298   */\n    tag_326:\n        /* \"#utility.yul\":3120:3128   */\n      0x00\n        /* \"#utility.yul\":3151:3157   */\n      dup2\n        /* \"#utility.yul\":3139:3157   */\n      swap1\n      pop\n        /* \"#utility.yul\":3204:3207   */\n      dup3\n        /* \"#utility.yul\":3196:3200   */\n      0x20\n        /* \"#utility.yul\":3190:3194   */\n      0x03\n        /* \"#utility.yul\":3186:3201   */\n      mul\n        /* \"#utility.yul\":3176:3184   */\n      dup3\n        /* \"#utility.yul\":3172:3202   */\n      add\n        /* \"#utility.yul\":3169:3208   */\n      gt\n        /* \"#utility.yul\":3166:3292   */\n      iszero\n      tag_362\n      jumpi\n        /* \"#utility.yul\":3211:3290   */\n      tag_363\n      tag_316\n      jump\t// in\n    tag_363:\n        /* \"#utility.yul\":3166:3292   */\n    tag_362:\n        /* \"#utility.yul\":3049:3298   */\n      swap3\n      swap2\n      pop\n      pop\n      jump\t// out\n        /* \"#utility.yul\":3304:3880   */\n    tag_14:\n        /* \"#utility.yul\":3422:3428   */\n      0x00\n        /* \"#utility.yul\":3430:3436   */\n      0x00\n        /* \"#utility.yul\":3479:3482   */\n      0x0160\n        /* \"#utility.yul\":3467:3476   */\n      dup4\n        /* \"#utility.yul\":3458:3465   */\n      dup6\n        /* \"#utility.yul\":3454:3477   */\n      sub\n        /* \"#utility.yul\":3450:3483   */\n      slt\n        /* \"#utility.yul\":3447:3567   */\n      iszero\n      tag_365\n      jumpi\n        /* \"#utility.yul\":3486:3565   */\n      tag_366\n      tag_314\n      jump\t// in\n    tag_366:\n        /* \"#utility.yul\":3447:3567   */\n    tag_365:\n        /* \"#utility.yul\":3606:3607   */\n      0x00\n        /* \"#utility.yul\":3631:3709   */\n      tag_367\n        /* \"#utility.yul\":3701:3708   */\n      dup6\n        /* \"#utility.yul\":3692:3698   */\n      dup3\n        /* \"#utility.yul\":3681:3690   */\n      dup7\n        /* \"#utility.yul\":3677:3699   */\n      add\n        /* \"#utility.yul\":3631:3709   */\n      tag_317\n      jump\t// in\n    tag_367:\n        /* \"#utility.yul\":3621:3709   */\n      swap3\n      pop\n        /* \"#utility.yul\":3577:3719   */\n      pop\n        /* \"#utility.yul\":3758:3761   */\n      0x0100\n        /* \"#utility.yul\":3785:3863   */\n      tag_368\n        /* \"#utility.yul\":3855:3862   */\n      dup6\n        /* \"#utility.yul\":3846:3852   */\n      dup3\n        /* \"#utility.yul\":3835:3844   */\n      dup7\n        /* \"#utility.yul\":3831:3853   */\n      add\n        /* \"#utility.yul\":3785:3863   */\n      tag_326\n      jump\t// in\n    tag_368:\n        /* \"#utility.yul\":3775:3863   */\n      swap2\n      pop\n        /* \"#utility.yul\":3729:3873   */\n      pop\n        /* \"#utility.yul\":3304:3880   */\n      swap3\n      pop\n      swap3\n      swap1\n      pop\n      jump\t// out\n        /* \"#utility.yul\":3904:4153   */\n    tag_327:\n        /* \"#utility.yul\":3975:3983   */\n      0x00\n        /* \"#utility.yul\":4006:4012   */\n      dup2\n        /* \"#utility.yul\":3994:4012   */\n      swap1\n      pop\n        /* \"#utility.yul\":4059:4062   */\n      dup3\n        /* \"#utility.yul\":4051:4055   */\n      0x20\n        /* \"#utility.yul\":4045:4049   */\n      0x04\n        /* \"#utility.yul\":4041:4056   */\n      mul\n        /* \"#utility.yul\":4031:4039   */\n      dup3\n        /* \"#utility.yul\":4027:4057   */\n      add\n        /* \"#utility.yul\":4024:4063   */\n      gt\n        /* \"#utility.yul\":4021:4147   */\n      iszero\n      tag_370\n      jumpi\n        /* \"#utility.yul\":4066:4145   */\n      tag_371\n      tag_316\n      jump\t// in\n    tag_371:\n        /* \"#utility.yul\":4021:4147   */\n    tag_370:\n        /* \"#utility.yul\":3904:4153   */\n      swap3\n      swap2\n      pop\n      pop\n      jump\t// out\n        /* \"#utility.yul\":4159:4735   */\n    tag_18:\n        /* \"#utility.yul\":4277:4283   */\n      0x00\n        /* \"#utility.yul\":4285:4291   */\n      0x00\n        /* \"#utility.yul\":4334:4337   */\n      0xe0\n        /* \"#utility.yul\":4322:4331   */\n      dup4\n        /* \"#utility.yul\":4313:4320   */\n      dup6\n        /* \"#utility.yul\":4309:4332   */\n      sub\n        /* \"#utility.yul\":4305:4338   */\n      slt\n        /* \"#utility.yul\":4302:4422   */\n      iszero\n      tag_373\n      jumpi\n        /* \"#utility.yul\":4341:4420   */\n      tag_374\n      tag_314\n      jump\t// in\n    tag_374:\n        /* \"#utility.yul\":4302:4422   */\n    tag_373:\n        /* \"#utility.yul\":4461:4462   */\n      0x00\n        /* \"#utility.yul\":4486:4564   */\n      tag_375\n        /* \"#utility.yul\":4556:4563   */\n      dup6\n        /* \"#utility.yul\":4547:4553   */\n      dup3\n        /* \"#utility.yul\":4536:4545   */\n      dup7\n        /* \"#utility.yul\":4532:4554   */\n      add\n        /* \"#utility.yul\":4486:4564   */\n      tag_327\n      jump\t// in\n    tag_375:\n        /* \"#utility.yul\":4476:4564   */\n      swap3\n      pop\n        /* \"#utility.yul\":4432:4574   */\n      pop\n        /* \"#utility.yul\":4613:4616   */\n      0x80\n        /* \"#utility.yul\":4640:4718   */\n      tag_376\n        /* \"#utility.yul\":4710:4717   */\n      dup6\n        /* \"#utility.yul\":4701:4707   */\n      dup3\n        /* \"#utility.yul\":4690:4699   */\n      dup7\n        /* \"#utility.yul\":4686:4708   */\n      add\n        /* \"#utility.yul\":4640:4718   */\n      tag_326\n      jump\t// in\n    tag_376:\n        /* \"#utility.yul\":4630:4718   */\n      swap2\n      pop\n        /* \"#utility.yul\":4584:4728   */\n      pop\n        /* \"#utility.yul\":4159:4735   */\n      swap3\n      pop\n      swap3\n      swap1\n      pop\n      jump\t// out\n        /* \"#utility.yul\":4741:4921   */\n    tag_26:\n        /* \"#utility.yul\":4789:4866   */\n      0x4e487b7100000000000000000000000000000000000000000000000000000000\n        /* \"#utility.yul\":4786:4787   */\n      0x00\n        /* \"#utility.yul\":4779:4867   */\n      mstore\n        /* \"#utility.yul\":4886:4890   */\n      0x32\n        /* \"#utility.yul\":4883:4884   */\n      0x04\n        /* \"#utility.yul\":4876:4891   */\n      mstore\n        /* \"#utility.yul\":4910:4914   */\n      0x24\n        /* \"#utility.yul\":4907:4908   */\n      0x00\n        /* \"#utility.yul\":4900:4915   */\n      revert\n        /* \"#utility.yul\":4927:5107   */\n    tag_136:\n        /* \"#utility.yul\":4975:5052   */\n      0x4e487b7100000000000000000000000000000000000000000000000000000000\n        /* \"#utility.yul\":4972:4973   */\n      0x00\n        /* \"#utility.yul\":4965:5053   */\n      mstore\n        /* \"#utility.yul\":5072:5076   */\n      0x12\n        /* \"#utility.yul\":5069:5070   */\n      0x04\n        /* \"#utility.yul\":5062:5077   */\n      mstore\n        /* \"#utility.yul\":5096:5100   */\n      0x24\n        /* \"#utility.yul\":5093:5094   */\n      0x00\n        /* \"#utility.yul\":5086:5101   */\n      revert\n        /* \"#utility.yul\":5113:5293   */\n    tag_328:\n        /* \"#utility.yul\":5161:5238   */\n      0x4e487b7100000000000000000000000000000000000000000000000000000000\n        /* \"#utility.yul\":5158:5159   */\n      0x00\n        /* \"#utility.yul\":5151:5239   */\n      mstore\n        /* \"#utility.yul\":5258:5262   */\n      0x11\n        /* \"#utility.yul\":5255:5256   */\n      0x04\n        /* \"#utility.yul\":5248:5263   */\n      mstore\n        /* \"#utility.yul\":5282:5286   */\n      0x24\n        /* \"#utility.yul\":5279:5280   */\n      0x00\n        /* \"#utility.yul\":5272:5287   */\n      revert\n        /* \"#utility.yul\":5299:5493   */\n    tag_157:\n        /* \"#utility.yul\":5339:5343   */\n      0x00\n        /* \"#utility.yul\":5359:5379   */\n      tag_381\n        /* \"#utility.yul\":5377:5378   */\n      dup3\n        /* \"#utility.yul\":5359:5379   */\n      tag_321\n      jump\t// in\n    tag_381:\n        /* \"#utility.yul\":5354:5379   */\n      swap2\n      pop\n        /* \"#utility.yul\":5393:5413   */\n      tag_382\n        /* \"#utility.yul\":5411:5412   */\n      dup4\n        /* \"#utility.yul\":5393:5413   */\n      tag_321\n      jump\t// in\n    tag_382:\n        /* \"#utility.yul\":5388:5413   */\n      swap3\n      pop\n        /* \"#utility.yul\":5437:5438   */\n      dup3\n        /* \"#utility.yul\":5434:5435   */\n      dup3\n        /* \"#utility.yul\":5430:5439   */\n      sub\n        /* \"#utility.yul\":5422:5439   */\n      swap1\n      pop\n        /* \"#utility.yul\":5461:5462   */\n      dup2\n        /* \"#utility.yul\":5455:5459   */\n      dup2\n        /* \"#utility.yul\":5452:5463   */\n      gt\n        /* \"#utility.yul\":5449:5486   */\n      iszero\n      tag_383\n      jumpi\n        /* \"#utility.yul\":5466:5484   */\n      tag_384\n      tag_328\n      jump\t// in\n    tag_384:\n        /* \"#utility.yul\":5449:5486   */\n    tag_383:\n        /* \"#utility.yul\":5299:5493   */\n      swap3\n      swap2\n      pop\n      pop\n      jump\t// out\n\n    auxdata: 0xa2646970667358221220b495bdda80056d1cf68d95b5bc94ddc7f4c0e1f5c0981ead9a92eb55c37e245f64736f6c634300081f0033\n}\n",
				"bytecode": {
					"linkReferences": {},
					"object": "6080604052348015600e575f5ffd5b506122288061001c5f395ff3fe608060405234801561000f575f5ffd5b506004361061003f575f3560e01c806344f636921461004357806365c032591461007357806398c13db91461008f575b5f5ffd5b61005d60048036038101906100589190611f85565b6100ab565b60405161006a919061205f565b60405180910390f35b61008d60048036038101906100889190612099565b61020a565b005b6100a960048036038101906100a491906120fa565b6104a5565b005b6100b3611ef5565b6100ec825f600881106100c9576100c8612138565b5b6020020135836001600881106100e2576100e1612138565b5b6020020135610a61565b815f600481106100ff576100fe612138565b5b6020020181815250506101748260036008811061011f5761011e612138565b5b60200201358360026008811061013857610137612138565b5b60200201358460056008811061015157610150612138565b5b60200201358560046008811061016a57610169612138565b5b6020020135610c0f565b8260026004811061018857610187612138565b5b60200201836001600481106101a05761019f612138565b5b60200201828152508281525050506101e8826006600881106101c5576101c4612138565b5b6020020135836007600881106101de576101dd612138565b5b6020020135610a61565b816003600481106101fc576101fb612138565b5b602002018181525050919050565b5f5f610215836111db565b915091505f6040516101008682377f02726f86620461a7ab939720a72adb887a74fbaab08a690e752db52bec76628f6101008201527f1e76ce8639edd037cd2c44fdd478ef620b36ebec457032967094785ccf9e30b36101208201527f1641a69acd266f1f6139bb26de25227e59dfe11cd2be009dbaf130e50d7d644e6101408201527f13add3d93bf72dca8875cc1fef240b901bdd4571e213fd26f7bfacb7479ae1de6101608201527f0d8d3d5d304499f3cb145eead07f0d83149f9c780fbbecd46ed0b982bfeee8bc6101808201527f0cc17044379771e6bf6aad6c5b4b04e784f3bf4255a3622eea0ae5f1e4be70b76101a08201527f1130845bae99ba7108cdc225a6a099b7cce3e844320cb2de5fa591249230d3106101c08201527f1e5e686ce6a1efa2bd888320d98112a96e9a5b80cab2888d5c38f9c8ab13529a6101e08201527f25877f054e7fdc8e072ade4081eae7d81275ed3d5b8c3278f7977ab945703a1b6102008201527f2c0eb915ddc31467549f3c1391b1da761068d788baa7ab71758786f9e26df18461022082015283610240820152826102608201527f2aeef66db17ec822fe5bfa49d1f8e8f4d8aa410a443ba1ec624f5c034b4a5b816102808201527f0d5dd63b4e13fec5f90bf7b1529b6d59bcd714f0320dfa680a7428b0267891486102a08201527f2b1d2c7e797858d79ebb91534ef3ae9da7e6545640303a172384222d06b054906102c08201527f091420fbe454f7debb7717919f2befc2f04570488145f9baf58cf2db9038077f6102e08201526020816103008360085afa9150805182169150508061049e576040517f7fcdd1f400000000000000000000000000000000000000000000000000000000815260040160405180910390fd5b5050505050565b6104ad611f17565b5f5f6104cf855f600481106104c5576104c4612138565b5b6020020135611445565b915091505f5f5f5f610511896002600481106104ee576104ed612138565b5b60200201358a60016004811061050757610506612138565b5b602002013561157a565b93509350935093505f5f61053c8b60036004811061053257610531612138565b5b6020020135611445565b915091505f5f61054b8c6111db565b91509150898b5f6018811061056357610562612138565b5b602002018181525050888b60016018811061058157610580612138565b5b602002018181525050868b60026018811061059f5761059e612138565b5b602002018181525050878b6003601881106105bd576105bc612138565b5b602002018181525050848b6004601881106105db576105da612138565b5b602002018181525050858b6005601881106105f9576105f8612138565b5b602002018181525050838b60066018811061061757610616612138565b5b602002018181525050828b60076018811061063557610634612138565b5b6020020181815250507f02726f86620461a7ab939720a72adb887a74fbaab08a690e752db52bec76628f8b60086018811061067357610672612138565b5b6020020181815250507f1e76ce8639edd037cd2c44fdd478ef620b36ebec457032967094785ccf9e30b38b6009601881106106b1576106b0612138565b5b6020020181815250507f1641a69acd266f1f6139bb26de25227e59dfe11cd2be009dbaf130e50d7d644e8b600a601881106106ef576106ee612138565b5b6020020181815250507f13add3d93bf72dca8875cc1fef240b901bdd4571e213fd26f7bfacb7479ae1de8b600b6018811061072d5761072c612138565b5b6020020181815250507f0d8d3d5d304499f3cb145eead07f0d83149f9c780fbbecd46ed0b982bfeee8bc8b600c6018811061076b5761076a612138565b5b6020020181815250507f0cc17044379771e6bf6aad6c5b4b04e784f3bf4255a3622eea0ae5f1e4be70b78b600d601881106107a9576107a8612138565b5b6020020181815250507f1130845bae99ba7108cdc225a6a099b7cce3e844320cb2de5fa591249230d3108b600e601881106107e7576107e6612138565b5b6020020181815250507f1e5e686ce6a1efa2bd888320d98112a96e9a5b80cab2888d5c38f9c8ab13529a8b600f6018811061082557610824612138565b5b6020020181815250507f25877f054e7fdc8e072ade4081eae7d81275ed3d5b8c3278f7977ab945703a1b8b60106018811061086357610862612138565b5b6020020181815250507f2c0eb915ddc31467549f3c1391b1da761068d788baa7ab71758786f9e26df1848b6011601881106108a1576108a0612138565b5b602002018181525050818b6012601881106108bf576108be612138565b5b602002018181525050808b6013601881106108dd576108dc612138565b5b6020020181815250507f2aeef66db17ec822fe5bfa49d1f8e8f4d8aa410a443ba1ec624f5c034b4a5b818b60146018811061091b5761091a612138565b5b6020020181815250507f0d5dd63b4e13fec5f90bf7b1529b6d59bcd714f0320dfa680a7428b0267891488b60156018811061095957610958612138565b5b6020020181815250507f2b1d2c7e797858d79ebb91534ef3ae9da7e6545640303a172384222d06b054908b60166018811061099757610996612138565b5b6020020181815250507f091420fbe454f7debb7717919f2befc2f04570488145f9baf58cf2db9038077f8b6017601881106109d5576109d4612138565b5b6020020181815250505f6109e7611f3a565b6020816103008f60085afa9150811580610a1957506001815f60018110610a1157610a10612138565b5b602002015114155b15610a50576040517f7fcdd1f400000000000000000000000000000000000000000000000000000000815260040160405180910390fd5b505050505050505050505050505050565b5f7f30644e72e131a029b85045b68181585d97816a916871ca8d3c208c16d87cfd4783101580610ab157507f30644e72e131a029b85045b68181585d97816a916871ca8d3c208c16d87cfd478210155b15610ae8576040517f7fcdd1f400000000000000000000000000000000000000000000000000000000815260040160405180910390fd5b5f83148015610af657505f82145b15610b03575f9050610c09565b5f610ba17f30644e72e131a029b85045b68181585d97816a916871ca8d3c208c16d87cfd4780610b3657610b35612165565b5b60037f30644e72e131a029b85045b68181585d97816a916871ca8d3c208c16d87cfd4780610b6757610b66612165565b5b877f30644e72e131a029b85045b68181585d97816a916871ca8d3c208c16d87cfd4780610b9757610b96612165565b5b898a090908611955565b9050808303610bb9575f600185901b17915050610c09565b610bc2816119f1565b8303610bd75760018085901b17915050610c09565b6040517f7fcdd1f400000000000000000000000000000000000000000000000000000000815260040160405180910390fd5b92915050565b5f5f7f30644e72e131a029b85045b68181585d97816a916871ca8d3c208c16d87cfd4786101580610c6057507f30644e72e131a029b85045b68181585d97816a916871ca8d3c208c16d87cfd478510155b80610c8b57507f30644e72e131a029b85045b68181585d97816a916871ca8d3c208c16d87cfd478410155b80610cb657507f30644e72e131a029b85045b68181585d97816a916871ca8d3c208c16d87cfd478310155b15610ced576040517f7fcdd1f400000000000000000000000000000000000000000000000000000000815260040160405180910390fd5b5f8385878917171703610d05575f5f915091506111d2565b5f5f5f7f30644e72e131a029b85045b68181585d97816a916871ca8d3c208c16d87cfd4780610d3757610d36612165565b5b60037f30644e72e131a029b85045b68181585d97816a916871ca8d3c208c16d87cfd47610d6491906121bf565b7f30644e72e131a029b85045b68181585d97816a916871ca8d3c208c16d87cfd4780610d9357610d92612165565b5b8a8c090990505f7f30644e72e131a029b85045b68181585d97816a916871ca8d3c208c16d87cfd4780610dc957610dc8612165565b5b8a7f30644e72e131a029b85045b68181585d97816a916871ca8d3c208c16d87cfd4780610df957610df8612165565b5b8c8d090990505f7f30644e72e131a029b85045b68181585d97816a916871ca8d3c208c16d87cfd4780610e2f57610e2e612165565b5b8a7f30644e72e131a029b85045b68181585d97816a916871ca8d3c208c16d87cfd4780610e5f57610e5e612165565b5b8c8d090990507f30644e72e131a029b85045b68181585d97816a916871ca8d3c208c16d87cfd4780610e9457610e93612165565b5b7f30644e72e131a029b85045b68181585d97816a916871ca8d3c208c16d87cfd4780610ec357610ec2612165565b5b7f30644e72e131a029b85045b68181585d97816a916871ca8d3c208c16d87cfd4780610ef257610ef1612165565b5b8c860984087f2b149d40ceb8aaae81be18991be06ac3b5b4c5e559dbefa33267e6dc24a138e5089450610fd77f30644e72e131a029b85045b68181585d97816a916871ca8d3c208c16d87cfd4780610f4d57610f4c612165565b5b7f30644e72e131a029b85045b68181585d97816a916871ca8d3c208c16d87cfd4780610f7c57610f7b612165565b5b7f30644e72e131a029b85045b68181585d97816a916871ca8d3c208c16d87cfd4780610fab57610faa612165565b5b8e870984087f2fcd3ac2a640a154eb23960892a85a68f031ca0c8344b23a577dcf1052b9e775086119f1565b93505050505f5f61107a7f30644e72e131a029b85045b68181585d97816a916871ca8d3c208c16d87cfd47806110105761100f612165565b5b7f30644e72e131a029b85045b68181585d97816a916871ca8d3c208c16d87cfd478061103f5761103e612165565b5b8586097f30644e72e131a029b85045b68181585d97816a916871ca8d3c208c16d87cfd478061107157611070612165565b5b87880908611955565b90506111077f30644e72e131a029b85045b68181585d97816a916871ca8d3c208c16d87cfd47806110ae576110ad612165565b5b7f183227397098d014dc2822db40c0ac2ecbc0b548b438e5469e10460b6c3e7ea47f30644e72e131a029b85045b68181585d97816a916871ca8d3c208c16d87cfd47806110fe576110fd612165565b5b84880809611a5c565b15915050611116838383611ac6565b8093508194505050828714801561112c57508186145b15611154575f8161113d575f611140565b60025b60ff1660028b901b171794508793506111ce565b61115d836119f1565b87148015611172575061116f826119f1565b86145b1561119b57600181611184575f611187565b60025b60ff1660028b901b171794508793506111cd565b6040517f7fcdd1f400000000000000000000000000000000000000000000000000000000815260040160405180910390fd5b5b5050505b94509492505050565b5f5f5f60019050604051604081015f7f0e6a4fbb7dbc77e938006ffe98ba377842d6c72597aedf5ca272041bb5116aa483527f0c3e0cd6ea3febba0c3434f4cafcc8d35b319346e29dca0b48d21b8b91a1f73e60208401527f2dce49b52aaaca92c8c6e8b1942287258c06bbae12db20ca60089ee8eda07e0282527f2734ef5556b00472567353a018894070ac4113d82a0d744b6bb2b5ab2d0db5b76020830152863590508060408301527f30644e72e131a029b85045b68181585d2833e84879b9709143e1f593f000000181108416935060408260608460075afa8416935060408360808560065afa841693507f17a4d635ae8ccfe72baf976255633ab850a4b9d91b67d822b2d0b416f9a8071282527e243233e73b3ba87036fbcfdc674ef299b8a25acc6480392eb77762b82350c16020830152602087013590508060408301527f30644e72e131a029b85045b68181585d2833e84879b9709143e1f593f000000181108416935060408260608460075afa8416935060408360808560065afa841693507f15e8ad93d8e3c916ed7690e4d210d1d7e576eca14f7963c51f86f57ca45a96f582527f2a8dd1bcf86add4efce73b857b17e236574ff5e0a1490bc6748ecf884f75460a6020830152604087013590508060408301527f30644e72e131a029b85045b68181585d2833e84879b9709143e1f593f000000181108416935060408260608460075afa8416935060408360808560065afa8416935082519550602083015194505050508061143f576040517fa54f8e2700000000000000000000000000000000000000000000000000000000815260040160405180910390fd5b50915091565b5f5f5f8303611459575f5f91509150611575565b5f6001808516149050600184901c92507f30644e72e131a029b85045b68181585d97816a916871ca8d3c208c16d87cfd4783106114c2576040517f7fcdd1f400000000000000000000000000000000000000000000000000000000815260040160405180910390fd5b61155f7f30644e72e131a029b85045b68181585d97816a916871ca8d3c208c16d87cfd47806114f4576114f3612165565b5b60037f30644e72e131a029b85045b68181585d97816a916871ca8d3c208c16d87cfd478061152557611524612165565b5b867f30644e72e131a029b85045b68181585d97816a916871ca8d3c208c16d87cfd478061155557611554612165565b5b8889090908611955565b9150801561157357611570826119f1565b91505b505b915091565b5f5f5f5f5f8614801561158c57505f85145b156115a2575f5f5f5f935093509350935061194c565b5f60018088161490505f6002808916149050600288901c95508694507f30644e72e131a029b85045b68181585d97816a916871ca8d3c208c16d87cfd478610158061160d57507f30644e72e131a029b85045b68181585d97816a916871ca8d3c208c16d87cfd478510155b15611644576040517f7fcdd1f400000000000000000000000000000000000000000000000000000000815260040160405180910390fd5b5f7f30644e72e131a029b85045b68181585d97816a916871ca8d3c208c16d87cfd478061167457611673612165565b5b60037f30644e72e131a029b85045b68181585d97816a916871ca8d3c208c16d87cfd476116a191906121bf565b7f30644e72e131a029b85045b68181585d97816a916871ca8d3c208c16d87cfd47806116d0576116cf612165565b5b888a090990505f7f30644e72e131a029b85045b68181585d97816a916871ca8d3c208c16d87cfd478061170657611705612165565b5b887f30644e72e131a029b85045b68181585d97816a916871ca8d3c208c16d87cfd478061173657611735612165565b5b8a8b090990505f7f30644e72e131a029b85045b68181585d97816a916871ca8d3c208c16d87cfd478061176c5761176b612165565b5b887f30644e72e131a029b85045b68181585d97816a916871ca8d3c208c16d87cfd478061179c5761179b612165565b5b8a8b090990507f30644e72e131a029b85045b68181585d97816a916871ca8d3c208c16d87cfd47806117d1576117d0612165565b5b7f30644e72e131a029b85045b68181585d97816a916871ca8d3c208c16d87cfd4780611800576117ff612165565b5b7f30644e72e131a029b85045b68181585d97816a916871ca8d3c208c16d87cfd478061182f5761182e612165565b5b8a860984087f2b149d40ceb8aaae81be18991be06ac3b5b4c5e559dbefa33267e6dc24a138e50896506119147f30644e72e131a029b85045b68181585d97816a916871ca8d3c208c16d87cfd478061188a57611889612165565b5b7f30644e72e131a029b85045b68181585d97816a916871ca8d3c208c16d87cfd47806118b9576118b8612165565b5b7f30644e72e131a029b85045b68181585d97816a916871ca8d3c208c16d87cfd47806118e8576118e7612165565b5b8c870984087f2fcd3ac2a640a154eb23960892a85a68f031ca0c8344b23a577dcf1052b9e775086119f1565b9550611921878786611ac6565b8097508198505050841561194657611938876119f1565b9650611943866119f1565b95505b50505050505b92959194509250565b5f611980827f0c19139cb84c680a6e14116da060561765e05aa45a1c72a34f082305b61f3f52611dc1565b9050817f30644e72e131a029b85045b68181585d97816a916871ca8d3c208c16d87cfd47806119b2576119b1612165565b5b828309146119ec576040517f7fcdd1f400000000000000000000000000000000000000000000000000000000815260040160405180910390fd5b919050565b5f7f30644e72e131a029b85045b68181585d97816a916871ca8d3c208c16d87cfd47808381611a2357611a22612165565b5b067f30644e72e131a029b85045b68181585d97816a916871ca8d3c208c16d87cfd470381611a5457611a53612165565b5b069050919050565b5f5f611a88837f0c19139cb84c680a6e14116da060561765e05aa45a1c72a34f082305b61f3f52611dc1565b9050827f30644e72e131a029b85045b68181585d97816a916871ca8d3c208c16d87cfd4780611aba57611ab9612165565b5b82830914915050919050565b5f5f5f611b657f30644e72e131a029b85045b68181585d97816a916871ca8d3c208c16d87cfd4780611afb57611afa612165565b5b7f30644e72e131a029b85045b68181585d97816a916871ca8d3c208c16d87cfd4780611b2a57611b29612165565b5b8788097f30644e72e131a029b85045b68181585d97816a916871ca8d3c208c16d87cfd4780611b5c57611b5b612165565b5b898a0908611955565b90508315611b7957611b76816119f1565b90505b611c047f30644e72e131a029b85045b68181585d97816a916871ca8d3c208c16d87cfd4780611bab57611baa612165565b5b7f183227397098d014dc2822db40c0ac2ecbc0b548b438e5469e10460b6c3e7ea47f30644e72e131a029b85045b68181585d97816a916871ca8d3c208c16d87cfd4780611bfb57611bfa612165565b5b848a0809611955565b92507f30644e72e131a029b85045b68181585d97816a916871ca8d3c208c16d87cfd4780611c3557611c34612165565b5b611c707f30644e72e131a029b85045b68181585d97816a916871ca8d3c208c16d87cfd4780611c6757611c66612165565b5b60028609611e58565b860991507f30644e72e131a029b85045b68181585d97816a916871ca8d3c208c16d87cfd4780611ca357611ca2612165565b5b611cdd7f30644e72e131a029b85045b68181585d97816a916871ca8d3c208c16d87cfd4780611cd557611cd4612165565b5b8485096119f1565b7f30644e72e131a029b85045b68181585d97816a916871ca8d3c208c16d87cfd4780611d0c57611d0b612165565b5b8586090886141580611d8157507f30644e72e131a029b85045b68181585d97816a916871ca8d3c208c16d87cfd4780611d4857611d47612165565b5b7f30644e72e131a029b85045b68181585d97816a916871ca8d3c208c16d87cfd4780611d7757611d76612165565b5b8385096002098514155b15611db8576040517f7fcdd1f400000000000000000000000000000000000000000000000000000000815260040160405180910390fd5b50935093915050565b5f5f60405160208152602080820152602060408201528460608201528360808201527f30644e72e131a029b85045b68181585d97816a916871ca8d3c208c16d87cfd4760a082015260208160c08360055afa9150805192505080611e51576040517f7fcdd1f400000000000000000000000000000000000000000000000000000000815260040160405180910390fd5b5092915050565b5f611e83827f30644e72e131a029b85045b68181585d97816a916871ca8d3c208c16d87cfd45611dc1565b905060017f30644e72e131a029b85045b68181585d97816a916871ca8d3c208c16d87cfd4780611eb657611eb5612165565b5b82840914611ef0576040517f7fcdd1f400000000000000000000000000000000000000000000000000000000815260040160405180910390fd5b919050565b6040518060800160405280600490602082028036833780820191505090505090565b604051806103000160405280601890602082028036833780820191505090505090565b6040518060200160405280600190602082028036833780820191505090505090565b5f5ffd5b5f5ffd5b5f81905082602060080282011115611f7f57611f7e611f60565b5b92915050565b5f6101008284031215611f9b57611f9a611f5c565b5b5f611fa884828501611f64565b91505092915050565b5f60049050919050565b5f81905092915050565b5f819050919050565b5f819050919050565b611fe081611fce565b82525050565b5f611ff18383611fd7565b60208301905092915050565b5f602082019050919050565b61201281611fb1565b61201c8184611fbb565b925061202782611fc5565b805f5b8381101561205757815161203e8782611fe6565b965061204983611ffd565b92505060018101905061202a565b505050505050565b5f6080820190506120725f830184612009565b92915050565b5f8190508260206003028201111561209357612092611f60565b5b92915050565b5f5f61016083850312156120b0576120af611f5c565b5b5f6120bd85828601611f64565b9250506101006120cf85828601612078565b9150509250929050565b5f819050826020600402820111156120f4576120f3611f60565b5b92915050565b5f5f60e083850312156121105761210f611f5c565b5b5f61211d858286016120d9565b925050608061212e85828601612078565b9150509250929050565b7f4e487b71000000000000000000000000000000000000000000000000000000005f52603260045260245ffd5b7f4e487b71000000000000000000000000000000000000000000000000000000005f52601260045260245ffd5b7f4e487b71000000000000000000000000000000000000000000000000000000005f52601160045260245ffd5b5f6121c982611fce565b91506121d483611fce565b92508282039050818111156121ec576121eb612192565b5b9291505056fea2646970667358221220b495bdda80056d1cf68d95b5bc94ddc7f4c0e1f5c0981ead9a92eb55c37e245f64736f6c634300081f0033",
					"opcodes": "PUSH1 0x80 PUSH1 0x40 MSTORE CALLVALUE DUP1 ISZERO PUSH1 0xE JUMPI PUSH0 PUSH0 REVERT JUMPDEST POP PUSH2 0x2228 DUP1 PUSH2 0x1C PUSH0 CODECOPY PUSH0 RETURN INVALID PUSH1 0x80 PUSH1 0x40 MSTORE CALLVALUE DUP1 ISZERO PUSH2 0xF JUMPI PUSH0 PUSH0 REVERT JUMPDEST POP PUSH1 0x4 CALLDATASIZE LT PUSH2 0x3F JUMPI PUSH0 CALLDATALOAD PUSH1 0xE0 SHR DUP1 PUSH4 0x44F63692 EQ PUSH2 0x43 JUMPI DUP1 PUSH4 0x65C03259 EQ PUSH2 0x73 JUMPI DUP1 PUSH4 0x98C13DB9 EQ PUSH2 0x8F JUMPI JUMPDEST PUSH0 PUSH0 REVERT JUMPDEST PUSH2 0x5D PUSH1 0x4 DUP1 CALLDATASIZE SUB DUP2 ADD SWAP1 PUSH2 0x58 SWAP2 SWAP1 PUSH2 0x1F85 JUMP JUMPDEST PUSH2 0xAB JUMP JUMPDEST PUSH1 0x40 MLOAD PUSH2 0x6A SWAP2 SWAP1 PUSH2 0x205F JUMP JUMPDEST PUSH1 0x40 MLOAD DUP1 SWAP2 SUB SWAP1 RETURN JUMPDEST PUSH2 0x8D PUSH1 0x4 DUP1 CALLDATASIZE SUB DUP2 ADD SWAP1 PUSH2 0x88 SWAP2 SWAP1 PUSH2 0x2099 JUMP JUMPDEST PUSH2 0x20A JUMP JUMPDEST STOP JUMPDEST PUSH2 0xA9 PUSH1 0x4 DUP1 CALLDATASIZE SUB DUP2 ADD SWAP1 PUSH2 0xA4 SWAP2 SWAP1 PUSH2 0x20FA JUMP JUMPDEST PUSH2 0x4A5 JUMP JUMPDEST STOP JUMPDEST PUSH2 0xB3 PUSH2 0x1EF5 JUMP JUMPDEST PUSH2 0xEC DUP3 PUSH0 PUSH1 0x8 DUP2 LT PUSH2 0xC9 JUMPI PUSH2 0xC8 PUSH2 0x2138 JUMP JUMPDEST JUMPDEST PUSH1 0x20 MUL ADD CALLDATALOAD DUP4 PUSH1 0x1 PUSH1 0x8 DUP2 LT PUSH2 0xE2 JUMPI PUSH2 0xE1 PUSH2 0x2138 JUMP JUMPDEST JUMPDEST PUSH1 0x20 MUL ADD CALLDATALOAD PUSH2 0xA61 JUMP JUMPDEST DUP2 PUSH0 PUSH1 0x4 DUP2 LT PUSH2 0xFF JUMPI PUSH2 0xFE PUSH2 0x2138 JUMP JUMPDEST JUMPDEST PUSH1 0x20 MUL ADD DUP2 DUP2 MSTORE POP POP PUSH2 0x174 DUP3 PUSH1 0x3 PUSH1 0x8 DUP2 LT PUSH2 0x11F JUMPI PUSH2 0x11E PUSH2 0x2138 JUMP JUMPDEST JUMPDEST PUSH1 0x20 MUL ADD CALLDATALOAD DUP4 PUSH1 0x2 PUSH1 0x8 DUP2 LT PUSH2 0x138 JUMPI PUSH2 0x137 PUSH2 0x2138 JUMP JUMPDEST JUMPDEST PUSH1 0x20 MUL ADD CALLDATALOAD DUP5 PUSH1 0x5 PUSH1 0x8 DUP2 LT PUSH2 0x151 JUMPI PUSH2 0x150 PUSH2 0x2138 JUMP JUMPDEST JUMPDEST PUSH1 0x20 MUL ADD CALLDATALOAD DUP6 PUSH1 0x4 PUSH1 0x8 DUP2 LT PUSH2 0x16A JUMPI PUSH2 0x169 PUSH2 0x2138 JUMP JUMPDEST JUMPDEST PUSH1 0x20 MUL ADD CALLDATALOAD PUSH2 0xC0F JUMP JUMPDEST DUP3 PUSH1 0x2 PUSH1 0x4 DUP2 LT PUSH2 0x188 JUMPI PUSH2 0x187 PUSH2 0x2138 JUMP JUMPDEST JUMPDEST PUSH1 0x20 MUL ADD DUP4 PUSH1 0x1 PUSH1 0x4 DUP2 LT PUSH2 0x1A0 JUMPI PUSH2 0x19F PUSH2 0x2138 JUMP JUMPDEST JUMPDEST PUSH1 0x20 MUL ADD DUP3 DUP2 MSTORE POP DUP3 DUP2 MSTORE POP POP POP PUSH2 0x1E8 DUP3 PUSH1 0x6 PUSH1 0x8 DUP2 LT PUSH2 0x1C5 JUMPI PUSH2 0x1C4 PUSH2 0x2138 JUMP JUMPDEST JUMPDEST PUSH1 0x20 MUL ADD CALLDATALOAD DUP4 PUSH1 0x7 PUSH1 0x8 DUP2 LT PUSH2 0x1DE JUMPI PUSH2 0x1DD PUSH2 0x2138 JUMP JUMPDEST JUMPDEST PUSH1 0x20 MUL ADD CALLDATALOAD PUSH2 0xA61 JUMP JUMPDEST DUP2 PUSH1 0x3 PUSH1 0x4 DUP2 LT PUSH2 0x1FC JUMPI PUSH2 0x1FB PUSH2 0x2138 JUMP JUMPDEST JUMPDEST PUSH1 0x20 MUL ADD DUP2 DUP2 MSTORE POP POP SWAP2 SWAP1 POP JUMP JUMPDEST PUSH0 PUSH0 PUSH2 0x215 DUP4 PUSH2 0x11DB JUMP JUMPDEST SWAP2 POP SWAP2 POP PUSH0 PUSH1 0x40 MLOAD PUSH2 0x100 DUP7 DUP3 CALLDATACOPY PUSH32 0x2726F86620461A7AB939720A72ADB887A74FBAAB08A690E752DB52BEC76628F PUSH2 0x100 DUP3 ADD MSTORE PUSH32 0x1E76CE8639EDD037CD2C44FDD478EF620B36EBEC457032967094785CCF9E30B3 PUSH2 0x120 DUP3 ADD MSTORE PUSH32 0x1641A69ACD266F1F6139BB26DE25227E59DFE11CD2BE009DBAF130E50D7D644E PUSH2 0x140 DUP3 ADD MSTORE PUSH32 0x13ADD3D93BF72DCA8875CC1FEF240B901BDD4571E213FD26F7BFACB7479AE1DE PUSH2 0x160 DUP3 ADD MSTORE PUSH32 0xD8D3D5D304499F3CB145EEAD07F0D83149F9C780FBBECD46ED0B982BFEEE8BC PUSH2 0x180 DUP3 ADD MSTORE PUSH32 0xCC17044379771E6BF6AAD6C5B4B04E784F3BF4255A3622EEA0AE5F1E4BE70B7 PUSH2 0x1A0 DUP3 ADD MSTORE PUSH32 0x1130845BAE99BA7108CDC225A6A099B7CCE3E844320CB2DE5FA591249230D310 PUSH2 0x1C0 DUP3 ADD MSTORE PUSH32 0x1E5E686CE6A1EFA2BD888320D98112A96E9A5B80CAB2888D5C38F9C8AB13529A PUSH2 0x1E0 DUP3 ADD MSTORE PUSH32 0x25877F054E7FDC8E072ADE4081EAE7D81275ED3D5B8C3278F7977AB945703A1B PUSH2 0x200 DUP3 ADD MSTORE PUSH32 0x2C0EB915DDC31467549F3C1391B1DA761068D788BAA7AB71758786F9E26DF184 PUSH2 0x220 DUP3 ADD MSTORE DUP4 PUSH2 0x240 DUP3 ADD MSTORE DUP3 PUSH2 0x260 DUP3 ADD MSTORE PUSH32 0x2AEEF66DB17EC822FE5BFA49D1F8E8F4D8AA410A443BA1EC624F5C034B4A5B81 PUSH2 0x280 DUP3 ADD MSTORE PUSH32 0xD5DD63B4E13FEC5F90BF7B1529B6D59BCD714F0320DFA680A7428B026789148 PUSH2 0x2A0 DUP3 ADD MSTORE PUSH32 0x2B1D2C7E797858D79EBB91534EF3AE9DA7E6545640303A172384222D06B05490 PUSH2 0x2C0 DUP3 ADD MSTORE PUSH32 0x91420FBE454F7DEBB7717919F2BEFC2F04570488145F9BAF58CF2DB9038077F PUSH2 0x2E0 DUP3 ADD MSTORE PUSH1 0x20 DUP2 PUSH2 0x300 DUP4 PUSH1 0x8 GAS STATICCALL SWAP2 POP DUP1 MLOAD DUP3 AND SWAP2 POP POP DUP1 PUSH2 0x49E JUMPI PUSH1 0x40 MLOAD PUSH32 0x7FCDD1F400000000000000000000000000000000000000000000000000000000 DUP2 MSTORE PUSH1 0x4 ADD PUSH1 0x40 MLOAD DUP1 SWAP2 SUB SWAP1 REVERT JUMPDEST POP POP POP POP POP JUMP JUMPDEST PUSH2 0x4AD PUSH2 0x1F17 JUMP JUMPDEST PUSH0 PUSH0 PUSH2 0x4CF DUP6 PUSH0 PUSH1 0x4 DUP2 LT PUSH2 0x4C5 JUMPI PUSH2 0x4C4 PUSH2 0x2138 JUMP JUMPDEST JUMPDEST PUSH1 0x20 MUL ADD CALLDATALOAD PUSH2 0x1445 JUMP JUMPDEST SWAP2 POP SWAP2 POP PUSH0 PUSH0 PUSH0 PUSH0 PUSH2 0x511 DUP10 PUSH1 0x2 PUSH1 0x4 DUP2 LT PUSH2 0x4EE JUMPI PUSH2 0x4ED PUSH2 0x2138 JUMP JUMPDEST JUMPDEST PUSH1 0x20 MUL ADD CALLDATALOAD DUP11 PUSH1 0x1 PUSH1 0x4 DUP2 LT PUSH2 0x507 JUMPI PUSH2 0x506 PUSH2 0x2138 JUMP JUMPDEST JUMPDEST PUSH1 0x20 MUL ADD CALLDATALOAD PUSH2 0x157A JUMP JUMPDEST SWAP4 POP SWAP4 POP SWAP4 POP SWAP4 POP PUSH0 PUSH0 PUSH2 0x53C DUP12 PUSH1 0x3 PUSH1 0x4 DUP2 LT PUSH2 0x532 JUMPI PUSH2 0x531 PUSH2 0x2138 JUMP JUMPDEST JUMPDEST PUSH1 0x20 MUL ADD CALLDATALOAD PUSH2 0x1445 JUMP JUMPDEST SWAP2 POP SWAP2 POP PUSH0 PUSH0 PUSH2 0x54B DUP13 PUSH2 0x11DB JUMP JUMPDEST SWAP2 POP SWAP2 POP DUP10 DUP12 PUSH0 PUSH1 0x18 DUP2 LT PUSH2 0x563 JUMPI PUSH2 0x562 PUSH2 0x2138 JUMP JUMPDEST JUMPDEST PUSH1 0x20 MUL ADD DUP2 DUP2 MSTORE POP POP DUP9 DUP12 PUSH1 0x1 PUSH1 0x18 DUP2 LT PUSH2 0x581 JUMPI PUSH2 0x580 PUSH2 0x2138 JUMP JUMPDEST JUMPDEST PUSH1 0x20 MUL ADD DUP2 DUP2 MSTORE POP POP DUP7 DUP12 PUSH1 0x2 PUSH1 0x18 DUP2 LT PUSH2 0x59F JUMPI PUSH2 0x59E PUSH2 0x2138 JUMP JUMPDEST JUMPDEST PUSH1 0x20 MUL ADD DUP2 DUP2 MSTORE POP POP DUP8 DUP12 PUSH1 0x3 PUSH1 0x18 DUP2 LT PUSH2 0x5BD JUMPI PUSH2 0x5BC PUSH2 0x2138 JUMP JUMPDEST JUMPDEST PUSH1 0x20 MUL ADD DUP2 DUP2 MSTORE POP POP DUP5 DUP12 PUSH1 0x4 PUSH1 0x18 DUP2 LT PUSH2 0x5DB JUMPI PUSH2 0x5DA PUSH2 0x2138 JUMP JUMPDEST JUMPDEST PUSH1 0x20 MUL ADD DUP2 DUP2 MSTORE POP POP DUP6 DUP12 PUSH1 0x5 PUSH1 0x18 DUP2 LT PUSH2 0x5F9 JUMPI PUSH2 0x5F8 PUSH2 0x2138 JUMP JUMPDEST JUMPDEST PUSH1 0x20 MUL ADD DUP2 DUP2 MSTORE POP POP DUP4 DUP12 PUSH1 0x6 PUSH1 0x18 DUP2 LT PUSH2 0x617 JUMPI PUSH2 0x616 PUSH2 0x2138 JUMP JUMPDEST JUMPDEST PUSH1 0x20 MUL ADD DUP2 DUP2 MSTORE POP POP DUP3 DUP12 PUSH1 0x7 PUSH1 0x18 DUP2 LT PUSH2 0x635 JUMPI PUSH2 0x634 PUSH2 0x2138 JUMP JUMPDEST JUMPDEST PUSH1 0x20 MUL ADD DUP2 DUP2 MSTORE POP POP PUSH32 0x2726F86620461A7AB939720A72ADB887A74FBAAB08A690E752DB52BEC76628F DUP12 PUSH1 0x8 PUSH1 0x18 DUP2 LT PUSH2 0x673 JUMPI PUSH2 0x672 PUSH2 0x2138 JUMP JUMPDEST JUMPDEST PUSH1 0x20 MUL ADD DUP2 DUP2 MSTORE POP POP PUSH32 0x1E76CE8639EDD037CD2C44FDD478EF620B36EBEC457032967094785CCF9E30B3 DUP12 PUSH1 0x9 PUSH1 0x18 DUP2 LT PUSH2 0x6B1 JUMPI PUSH2 0x6B0 PUSH2 0x2138 JUMP JUMPDEST JUMPDEST PUSH1 0x20 MUL ADD DUP2 DUP2 MSTORE POP POP PUSH32 0x1641A69ACD266F1F6139BB26DE25227E59DFE11CD2BE009DBAF130E50D7D644E DUP12 PUSH1 0xA PUSH1 0x18 DUP2 LT PUSH2 0x6EF JUMPI PUSH2 0x6EE PUSH2 0x2138 JUMP JUMPDEST JUMPDEST PUSH1 0x20 MUL ADD DUP2 DUP2 MSTORE POP POP PUSH32 0x13ADD3D93BF72DCA8875CC1FEF240B901BDD4571E213FD26F7BFACB7479AE1DE DUP12 PUSH1 0xB PUSH1 0x18 DUP2 LT PUSH2 0x72D JUMPI PUSH2 0x72C PUSH2 0x2138 JUMP JUMPDEST JUMPDEST PUSH1 0x20 MUL ADD DUP2 DUP2 MSTORE POP POP PUSH32 0xD8D3D5D304499F3CB145EEAD07F0D83149F9C780FBBECD46ED0B982BFEEE8BC DUP12 PUSH1 0xC PUSH1 0x18 DUP2 LT PUSH2 0x76B JUMPI PUSH2 0x76A PUSH2 0x2138 JUMP JUMPDEST JUMPDEST PUSH1 0x20 MUL ADD DUP2 DUP2 MSTORE POP POP PUSH32 0xCC17044379771E6BF6AAD6C5B4B04E784F3BF4255A3622EEA0AE5F1E4BE70B7 DUP12 PUSH1 0xD PUSH1 0x18 DUP2 LT PUSH2 0x7A9 JUMPI PUSH2 0x7A8 PUSH2 0x2138 JUMP JUMPDEST JUMPDEST PUSH1 0x20 MUL ADD DUP2 DUP2 MSTORE POP POP PUSH32 0x1130845BAE99BA7108CDC225A6A099B7CCE3E844320CB2DE5FA591249230D310 DUP12 PUSH1 0xE PUSH1 0x18 DUP2 LT PUSH2 0x7E7 JUMPI PUSH2 0x7E6 PUSH2 0x2138 JUMP JUMPDEST JUMPDEST PUSH1 0x20 MUL ADD DUP2 DUP2 MSTORE POP POP PUSH32 0x1E5E686CE6A1EFA2BD888320D98112A96E9A5B80CAB2888D5C38F9C8AB13529A DUP12 PUSH1 0xF PUSH1 0x18 DUP2 LT PUSH2 0x825 JUMPI PUSH2 0x824 PUSH2 0x2138 JUMP JUMPDEST JUMPDEST PUSH1 0x20 MUL ADD DUP2 DUP2 MSTORE POP POP PUSH32 0x25877F054E7FDC8E072ADE4081EAE7D81275ED3D5B8C3278F7977AB945703A1B DUP12 PUSH1 0x10 PUSH1 0x18 DUP2 LT PUSH2 0x863 JUMPI PUSH2 0x862 PUSH2 0x2138 JUMP JUMPDEST JUMPDEST PUSH1 0x20 MUL ADD DUP2 DUP2 MSTORE POP POP PUSH32 0x2C0EB915DDC31467549F3C1391B1DA761068D788BAA7AB71758786F9E26DF184 DUP12 PUSH1 0x11 PUSH1 0x18 DUP2 LT PUSH2 0x8A1 JUMPI PUSH2 0x8A0 PUSH2 0x2138 JUMP JUMPDEST JUMPDEST PUSH1 0x20 MUL ADD DUP2 DUP2 MSTORE POP POP DUP2 DUP12 PUSH1 0x12 PUSH1 0x18 DUP2 LT PUSH2 0x8BF JUMPI PUSH2 0x8BE PUSH2 0x2138 JUMP JUMPDEST JUMPDEST PUSH1 0x20 MUL ADD DUP2 DUP2 MSTORE POP POP DUP1 DUP12 PUSH1 0x13 PUSH1 0x18 DUP2 LT PUSH2 0x8DD JUMPI PUSH2 0x8DC PUSH2 0x2138 JUMP JUMPDEST JUMPDEST PUSH1 0x20 MUL ADD DUP2 DUP2 MSTORE POP POP PUSH32 0x2AEEF66DB17EC822FE5BFA49D1F8E8F4D8AA410A443BA1EC624F5C034B4A5B81 DUP12 PUSH1 0x14 PUSH1 0x18 DUP2 LT PUSH2 0x91B JUMPI PUSH2 0x91A PUSH2 0x2138 JUMP JUMPDEST JUMPDEST PUSH1 0x20 MUL ADD DUP2 DUP2 MSTORE POP POP PUSH32 0xD5DD63B4E13FEC5F90BF7B1529B6D59BCD714F0320DFA680A7428B026789148 DUP12 PUSH1 0x15 PUSH1 0x18 DUP2 LT PUSH2 0x959 JUMPI PUSH2 0x958 PUSH2 0x2138 JUMP JUMPDEST JUMPDEST PUSH1 0x20 MUL ADD DUP2 DUP2 MSTORE POP POP PUSH32 0x2B1D2C7E797858D79EBB91534EF3AE9DA7E6545640303A172384222D06B05490 DUP12 PUSH1 0x16 PUSH1 0x18 DUP2 LT PUSH2 0x997 JUMPI PUSH2 0x996 PUSH2 0x2138 JUMP JUMPDEST JUMPDEST PUSH1 0x20 MUL ADD DUP2 DUP2 MSTORE POP POP PUSH32 0x91420FBE454F7DEBB7717919F2BEFC2F04570488145F9BAF58CF2DB9038077F DUP12 PUSH1 0x17 PUSH1 0x18 DUP2 LT PUSH2 0x9D5 JUMPI PUSH2 0x9D4 PUSH2 0x2138 JUMP JUMPDEST JUMPDEST PUSH1 0x20 MUL ADD DUP2 DUP2 MSTORE POP POP PUSH0 PUSH2 0x9E7 PUSH2 0x1F3A JUMP JUMPDEST PUSH1 0x20 DUP2 PUSH2 0x300 DUP16 PUSH1 0x8 GAS STATICCALL SWAP2 POP DUP2 ISZERO DUP1 PUSH2 0xA19 JUMPI POP PUSH1 0x1 DUP2 PUSH0 PUSH1 0x1 DUP2 LT PUSH2 0xA11 JUMPI PUSH2 0xA10 PUSH2 0x2138 JUMP JUMPDEST JUMPDEST PUSH1 0x20 MUL ADD MLOAD EQ ISZERO JUMPDEST ISZERO PUSH2 0xA50 JUMPI PUSH1 0x40 MLOAD PUSH32 0x7FCDD1F400000000000000000000000000000000000000000000000000000000 DUP2 MSTORE PUSH1 0x4 ADD PUSH1 0x40 MLOAD DUP1 SWAP2 SUB SWAP1 REVERT JUMPDEST POP POP POP POP POP POP POP POP POP POP POP POP POP POP POP JUMP JUMPDEST PUSH0 PUSH32 0x30644E72E131A029B85045B68181585D97816A916871CA8D3C208C16D87CFD47 DUP4 LT ISZERO DUP1 PUSH2 0xAB1 JUMPI POP PUSH32 0x30644E72E131A029B85045B68181585D97816A916871CA8D3C208C16D87CFD47 DUP3 LT ISZERO JUMPDEST ISZERO PUSH2 0xAE8 JUMPI PUSH1 0x40 MLOAD PUSH32 0x7FCDD1F400000000000000000000000000000000000000000000000000000000 DUP2 MSTORE PUSH1 0x4 ADD PUSH1 0x40 MLOAD DUP1 SWAP2 SUB SWAP1 REVERT JUMPDEST PUSH0 DUP4 EQ DUP1 ISZERO PUSH2 0xAF6 JUMPI POP PUSH0 DUP3 EQ JUMPDEST ISZERO PUSH2 0xB03 JUMPI PUSH0 SWAP1 POP PUSH2 0xC09 JUMP JUMPDEST PUSH0 PUSH2 0xBA1 PUSH32 0x30644E72E131A029B85045B68181585D97816A916871CA8D3C208C16D87CFD47 DUP1 PUSH2 0xB36 JUMPI PUSH2 0xB35 PUSH2 0x2165 JUMP JUMPDEST JUMPDEST PUSH1 0x3 PUSH32 0x30644E72E131A029B85045B68181585D97816A916871CA8D3C208C16D87CFD47 DUP1 PUSH2 0xB67 JUMPI PUSH2 0xB66 PUSH2 0x2165 JUMP JUMPDEST JUMPDEST DUP8 PUSH32 0x30644E72E131A029B85045B68181585D97816A916871CA8D3C208C16D87CFD47 DUP1 PUSH2 0xB97 JUMPI PUSH2 0xB96 PUSH2 0x2165 JUMP JUMPDEST JUMPDEST DUP10 DUP11 MULMOD MULMOD ADDMOD PUSH2 0x1955 JUMP JUMPDEST SWAP1 POP DUP1 DUP4 SUB PUSH2 0xBB9 JUMPI PUSH0 PUSH1 0x1 DUP6 SWAP1 SHL OR SWAP2 POP POP PUSH2 0xC09 JUMP JUMPDEST PUSH2 0xBC2 DUP2 PUSH2 0x19F1 JUMP JUMPDEST DUP4 SUB PUSH2 0xBD7 JUMPI PUSH1 0x1 DUP1 DUP6 SWAP1 SHL OR SWAP2 POP POP PUSH2 0xC09 JUMP JUMPDEST PUSH1 0x40 MLOAD PUSH32 0x7FCDD1F400000000000000000000000000000000000000000000000000000000 DUP2 MSTORE PUSH1 0x4 ADD PUSH1 0x40 MLOAD DUP1 SWAP2 SUB SWAP1 REVERT JUMPDEST SWAP3 SWAP2 POP POP JUMP JUMPDEST PUSH0 PUSH0 PUSH32 0x30644E72E131A029B85045B68181585D97816A916871CA8D3C208C16D87CFD47 DUP7 LT ISZERO DUP1 PUSH2 0xC60 JUMPI POP PUSH32 0x30644E72E131A029B85045B68181585D97816A916871CA8D3C208C16D87CFD47 DUP6 LT ISZERO JUMPDEST DUP1 PUSH2 0xC8B JUMPI POP PUSH32 0x30644E72E131A029B85045B68181585D97816A916871CA8D3C208C16D87CFD47 DUP5 LT ISZERO JUMPDEST DUP1 PUSH2 0xCB6 JUMPI POP PUSH32 0x30644E72E131A029B85045B68181585D97816A916871CA8D3C208C16D87CFD47 DUP4 LT ISZERO JUMPDEST ISZERO PUSH2 0xCED JUMPI PUSH1 0x40 MLOAD PUSH32 0x7FCDD1F400000000000000000000000000000000000000000000000000000000 DUP2 MSTORE PUSH1 0x4 ADD PUSH1 0x40 MLOAD DUP1 SWAP2 SUB SWAP1 REVERT JUMPDEST PUSH0 DUP4 DUP6 DUP8 DUP10 OR OR OR SUB PUSH2 0xD05 JUMPI PUSH0 PUSH0 SWAP2 POP SWAP2 POP PUSH2 0x11D2 JUMP JUMPDEST PUSH0 PUSH0 PUSH0 PUSH32 0x30644E72E131A029B85045B68181585D97816A916871CA8D3C208C16D87CFD47 DUP1 PUSH2 0xD37 JUMPI PUSH2 0xD36 PUSH2 0x2165 JUMP JUMPDEST JUMPDEST PUSH1 0x3 PUSH32 0x30644E72E131A029B85045B68181585D97816A916871CA8D3C208C16D87CFD47 PUSH2 0xD64 SWAP2 SWAP1 PUSH2 0x21BF JUMP JUMPDEST PUSH32 0x30644E72E131A029B85045B68181585D97816A916871CA8D3C208C16D87CFD47 DUP1 PUSH2 0xD93 JUMPI PUSH2 0xD92 PUSH2 0x2165 JUMP JUMPDEST JUMPDEST DUP11 DUP13 MULMOD MULMOD SWAP1 POP PUSH0 PUSH32 0x30644E72E131A029B85045B68181585D97816A916871CA8D3C208C16D87CFD47 DUP1 PUSH2 0xDC9 JUMPI PUSH2 0xDC8 PUSH2 0x2165 JUMP JUMPDEST JUMPDEST DUP11 PUSH32 0x30644E72E131A029B85045B68181585D97816A916871CA8D3C208C16D87CFD47 DUP1 PUSH2 0xDF9 JUMPI PUSH2 0xDF8 PUSH2 0x2165 JUMP JUMPDEST JUMPDEST DUP13 DUP14 MULMOD MULMOD SWAP1 POP PUSH0 PUSH32 0x30644E72E131A029B85045B68181585D97816A916871CA8D3C208C16D87CFD47 DUP1 PUSH2 0xE2F JUMPI PUSH2 0xE2E PUSH2 0x2165 JUMP JUMPDEST JUMPDEST DUP11 PUSH32 0x30644E72E131A029B85045B68181585D97816A916871CA8D3C208C16D87CFD47 DUP1 PUSH2 0xE5F JUMPI PUSH2 0xE5E PUSH2 0x2165 JUMP JUMPDEST JUMPDEST DUP13 DUP14 MULMOD MULMOD SWAP1 POP PUSH32 0x30644E72E131A029B85045B68181585D97816A916871CA8D3C208C16D87CFD47 DUP1 PUSH2 0xE94 JUMPI PUSH2 0xE93 PUSH2 0x2165 JUMP JUMPDEST JUMPDEST PUSH32 0x30644E72E131A029B85045B68181585D97816A916871CA8D3C208C16D87CFD47 DUP1 PUSH2 0xEC3 JUMPI PUSH2 0xEC2 PUSH2 0x2165 JUMP JUMPDEST JUMPDEST PUSH32 0x30644E72E131A029B85045B68181585D97816A916871CA8D3C208C16D87CFD47 DUP1 PUSH2 0xEF2 JUMPI PUSH2 0xEF1 PUSH2 0x2165 JUMP JUMPDEST JUMPDEST DUP13 DUP7 MULMOD DUP5 ADDMOD PUSH32 0x2B149D40CEB8AAAE81BE18991BE06AC3B5B4C5E559DBEFA33267E6DC24A138E5 ADDMOD SWAP5 POP PUSH2 0xFD7 PUSH32 0x30644E72E131A029B85045B68181585D97816A916871CA8D3C208C16D87CFD47 DUP1 PUSH2 0xF4D JUMPI PUSH2 0xF4C PUSH2 0x2165 JUMP JUMPDEST JUMPDEST PUSH32 0x30644E72E131A029B85045B68181585D97816A916871CA8D3C208C16D87CFD47 DUP1 PUSH2 0xF7C JUMPI PUSH2 0xF7B PUSH2 0x2165 JUMP JUMPDEST JUMPDEST PUSH32 0x30644E72E131A029B85045B68181585D97816A916871CA8D3C208C16D87CFD47 DUP1 PUSH2 0xFAB JUMPI PUSH2 0xFAA PUSH2 0x2165 JUMP JUMPDEST JUMPDEST DUP15 DUP8 MULMOD DUP5 ADDMOD PUSH32 0x2FCD3AC2A640A154EB23960892A85A68F031CA0C8344B23A577DCF1052B9E775 ADDMOD PUSH2 0x19F1 JUMP JUMPDEST SWAP4 POP POP POP POP PUSH0 PUSH0 PUSH2 0x107A PUSH32 0x30644E72E131A029B85045B68181585D97816A916871CA8D3C208C16D87CFD47 DUP1 PUSH2 0x1010 JUMPI PUSH2 0x100F PUSH2 0x2165 JUMP JUMPDEST JUMPDEST PUSH32 0x30644E72E131A029B85045B68181585D97816A916871CA8D3C208C16D87CFD47 DUP1 PUSH2 0x103F JUMPI PUSH2 0x103E PUSH2 0x2165 JUMP JUMPDEST JUMPDEST DUP6 DUP7 MULMOD PUSH32 0x30644E72E131A029B85045B68181585D97816A916871CA8D3C208C16D87CFD47 DUP1 PUSH2 0x1071 JUMPI PUSH2 0x1070 PUSH2 0x2165 JUMP JUMPDEST JUMPDEST DUP8 DUP9 MULMOD ADDMOD PUSH2 0x1955 JUMP JUMPDEST SWAP1 POP PUSH2 0x1107 PUSH32 0x30644E72E131A029B85045B68181585D97816A916871CA8D3C208C16D87CFD47 DUP1 PUSH2 0x10AE JUMPI PUSH2 0x10AD PUSH2 0x2165 JUMP JUMPDEST JUMPDEST PUSH32 0x183227397098D014DC2822DB40C0AC2ECBC0B548B438E5469E10460B6C3E7EA4 PUSH32 0x30644E72E131A029B85045B68181585D97816A916871CA8D3C208C16D87CFD47 DUP1 PUSH2 0x10FE JUMPI PUSH2 0x10FD PUSH2 0x2165 JUMP JUMPDEST JUMPDEST DUP5 DUP9 ADDMOD MULMOD PUSH2 0x1A5C JUMP JUMPDEST ISZERO SWAP2 POP POP PUSH2 0x1116 DUP4 DUP4 DUP4 PUSH2 0x1AC6 JUMP JUMPDEST DUP1 SWAP4 POP DUP2 SWAP5 POP POP POP DUP3 DUP8 EQ DUP1 ISZERO PUSH2 0x112C JUMPI POP DUP2 DUP7 EQ JUMPDEST ISZERO PUSH2 0x1154 JUMPI PUSH0 DUP2 PUSH2 0x113D JUMPI PUSH0 PUSH2 0x1140 JUMP JUMPDEST PUSH1 0x2 JUMPDEST PUSH1 0xFF AND PUSH1 0x2 DUP12 SWAP1 SHL OR OR SWAP5 POP DUP8 SWAP4 POP PUSH2 0x11CE JUMP JUMPDEST PUSH2 0x115D DUP4 PUSH2 0x19F1 JUMP JUMPDEST DUP8 EQ DUP1 ISZERO PUSH2 0x1172 JUMPI POP PUSH2 0x116F DUP3 PUSH2 0x19F1 JUMP JUMPDEST DUP7 EQ JUMPDEST ISZERO PUSH2 0x119B JUMPI PUSH1 0x1 DUP2 PUSH2 0x1184 JUMPI PUSH0 PUSH2 0x1187 JUMP JUMPDEST PUSH1 0x2 JUMPDEST PUSH1 0xFF AND PUSH1 0x2 DUP12 SWAP1 SHL OR OR SWAP5 POP DUP8 SWAP4 POP PUSH2 0x11CD JUMP JUMPDEST PUSH1 0x40 MLOAD PUSH32 0x7FCDD1F400000000000000000000000000000000000000000000000000000000 DUP2 MSTORE PUSH1 0x4 ADD PUSH1 0x40 MLOAD DUP1 SWAP2 SUB SWAP1 REVERT JUMPDEST JUMPDEST POP POP POP JUMPDEST SWAP5 POP SWAP5 SWAP3 POP POP POP JUMP JUMPDEST PUSH0 PUSH0 PUSH0 PUSH1 0x1 SWAP1 POP PUSH1 0x40 MLOAD PUSH1 0x40 DUP2 ADD PUSH0 PUSH32 0xE6A4FBB7DBC77E938006FFE98BA377842D6C72597AEDF5CA272041BB5116AA4 DUP4 MSTORE PUSH32 0xC3E0CD6EA3FEBBA0C3434F4CAFCC8D35B319346E29DCA0B48D21B8B91A1F73E PUSH1 0x20 DUP5 ADD MSTORE PUSH32 0x2DCE49B52AAACA92C8C6E8B1942287258C06BBAE12DB20CA60089EE8EDA07E02 DUP3 MSTORE PUSH32 0x2734EF5556B00472567353A018894070AC4113D82A0D744B6BB2B5AB2D0DB5B7 PUSH1 0x20 DUP4 ADD MSTORE DUP7 CALLDATALOAD SWAP1 POP DUP1 PUSH1 0x40 DUP4 ADD MSTORE PUSH32 0x30644E72E131A029B85045B68181585D2833E84879B9709143E1F593F0000001 DUP2 LT DUP5 AND SWAP4 POP PUSH1 0x40 DUP3 PUSH1 0x60 DUP5 PUSH1 0x7 GAS STATICCALL DUP5 AND SWAP4 POP PUSH1 0x40 DUP4 PUSH1 0x80 DUP6 PUSH1 0x6 GAS STATICCALL DUP5 AND SWAP4 POP PUSH32 0x17A4D635AE8CCFE72BAF976255633AB850A4B9D91B67D822B2D0B416F9A80712 DUP3 MSTORE PUSH31 0x243233E73B3BA87036FBCFDC674EF299B8A25ACC6480392EB77762B82350C1 PUSH1 0x20 DUP4 ADD MSTORE PUSH1 0x20 DUP8 ADD CALLDATALOAD SWAP1 POP DUP1 PUSH1 0x40 DUP4 ADD MSTORE PUSH32 0x30644E72E131A029B85045B68181585D2833E84879B9709143E1F593F0000001 DUP2 LT DUP5 AND SWAP4 POP PUSH1 0x40 DUP3 PUSH1 0x60 DUP5 PUSH1 0x7 GAS STATICCALL DUP5 AND SWAP4 POP PUSH1 0x40 DUP4 PUSH1 0x80 DUP6 PUSH1 0x6 GAS STATICCALL DUP5 AND SWAP4 POP PUSH32 0x15E8AD93D8E3C916ED7690E4D210D1D7E576ECA14F7963C51F86F57CA45A96F5 DUP3 MSTORE PUSH32 0x2A8DD1BCF86ADD4EFCE73B857B17E236574FF5E0A1490BC6748ECF884F75460A PUSH1 0x20 DUP4 ADD MSTORE PUSH1 0x40 DUP8 ADD CALLDATALOAD SWAP1 POP DUP1 PUSH1 0x40 DUP4 ADD MSTORE PUSH32 0x30644E72E131A029B85045B68181585D2833E84879B9709143E1F593F0000001 DUP2 LT DUP5 AND SWAP4 POP PUSH1 0x40 DUP3 PUSH1 0x60 DUP5 PUSH1 0x7 GAS STATICCALL DUP5 AND SWAP4 POP PUSH1 0x40 DUP4 PUSH1 0x80 DUP6 PUSH1 0x6 GAS STATICCALL DUP5 AND SWAP4 POP DUP3 MLOAD SWAP6 POP PUSH1 0x20 DUP4 ADD MLOAD SWAP5 POP POP POP POP DUP1 PUSH2 0x143F JUMPI PUSH1 0x40 MLOAD PUSH32 0xA54F8E2700000000000000000000000000000000000000000000000000000000 DUP2 MSTORE PUSH1 0x4 ADD PUSH1 0x40 MLOAD DUP1 SWAP2 SUB SWAP1 REVERT JUMPDEST POP SWAP2 POP SWAP2 JUMP JUMPDEST PUSH0 PUSH0 PUSH0 DUP4 SUB PUSH2 0x1459 JUMPI PUSH0 PUSH0 SWAP2 POP SWAP2 POP PUSH2 0x1575 JUMP JUMPDEST PUSH0 PUSH1 0x1 DUP1 DUP6 AND EQ SWAP1 POP PUSH1 0x1 DUP5 SWAP1 SHR SWAP3 POP PUSH32 0x30644E72E131A029B85045B68181585D97816A916871CA8D3C208C16D87CFD47 DUP4 LT PUSH2 0x14C2 JUMPI PUSH1 0x40 MLOAD PUSH32 0x7FCDD1F400000000000000000000000000000000000000000000000000000000 DUP2 MSTORE PUSH1 0x4 ADD PUSH1 0x40 MLOAD DUP1 SWAP2 SUB SWAP1 REVERT JUMPDEST PUSH2 0x155F PUSH32 0x30644E72E131A029B85045B68181585D97816A916871CA8D3C208C16D87CFD47 DUP1 PUSH2 0x14F4 JUMPI PUSH2 0x14F3 PUSH2 0x2165 JUMP JUMPDEST JUMPDEST PUSH1 0x3 PUSH32 0x30644E72E131A029B85045B68181585D97816A916871CA8D3C208C16D87CFD47 DUP1 PUSH2 0x1525 JUMPI PUSH2 0x1524 PUSH2 0x2165 JUMP JUMPDEST JUMPDEST DUP7 PUSH32 0x30644E72E131A029B85045B68181585D97816A916871CA8D3C208C16D87CFD47 DUP1 PUSH2 0x1555 JUMPI PUSH2 0x1554 PUSH2 0x2165 JUMP JUMPDEST JUMPDEST DUP9 DUP10 MULMOD MULMOD ADDMOD PUSH2 0x1955 JUMP JUMPDEST SWAP2 POP DUP1 ISZERO PUSH2 0x1573 JUMPI PUSH2 0x1570 DUP3 PUSH2 0x19F1 JUMP JUMPDEST SWAP2 POP JUMPDEST POP JUMPDEST SWAP2 POP SWAP2 JUMP JUMPDEST PUSH0 PUSH0 PUSH0 PUSH0 PUSH0 DUP7 EQ DUP1 ISZERO PUSH2 0x158C JUMPI POP PUSH0 DUP6 EQ JUMPDEST ISZERO PUSH2 0x15A2 JUMPI PUSH0 PUSH0 PUSH0 PUSH0 SWAP4 POP SWAP4 POP SWAP4 POP SWAP4 POP PUSH2 0x194C JUMP JUMPDEST PUSH0 PUSH1 0x1 DUP1 DUP9 AND EQ SWAP1 POP PUSH0 PUSH1 0x2 DUP1 DUP10 AND EQ SWAP1 POP PUSH1 0x2 DUP9 SWAP1 SHR SWAP6 POP DUP7 SWAP5 POP PUSH32 0x30644E72E131A029B85045B68181585D97816A916871CA8D3C208C16D87CFD47 DUP7 LT ISZERO DUP1 PUSH2 0x160D JUMPI POP PUSH32 0x30644E72E131A029B85045B68181585D97816A916871CA8D3C208C16D87CFD47 DUP6 LT ISZERO JUMPDEST ISZERO PUSH2 0x1644 JUMPI PUSH1 0x40 MLOAD PUSH32 0x7FCDD1F400000000000000000000000000000000000000000000000000000000 DUP2 MSTORE PUSH1 0x4 ADD PUSH1 0x40 MLOAD DUP1 SWAP2 SUB SWAP1 REVERT JUMPDEST PUSH0 PUSH32 0x30644E72E131A029B85045B68181585D97816A916871CA8D3C208C16D87CFD47 DUP1 PUSH2 0x1674 JUMPI PUSH2 0x1673 PUSH2 0x2165 JUMP JUMPDEST JUMPDEST PUSH1 0x3 PUSH32 0x30644E72E131A029B85045B68181585D97816A916871CA8D3C208C16D87CFD47 PUSH2 0x16A1 SWAP2 SWAP1 PUSH2 0x21BF JUMP JUMPDEST PUSH32 0x30644E72E131A029B85045B68181585D97816A916871CA8D3C208C16D87CFD47 DUP1 PUSH2 0x16D0 JUMPI PUSH2 0x16CF PUSH2 0x2165 JUMP JUMPDEST JUMPDEST DUP9 DUP11 MULMOD MULMOD SWAP1 POP PUSH0 PUSH32 0x30644E72E131A029B85045B68181585D97816A916871CA8D3C208C16D87CFD47 DUP1 PUSH2 0x1706 JUMPI PUSH2 0x1705 PUSH2 0x2165 JUMP JUMPDEST JUMPDEST DUP9 PUSH32 0x30644E72E131A029B85045B68181585D97816A916871CA8D3C208C16D87CFD47 DUP1 PUSH2 0x1736 JUMPI PUSH2 0x1735 PUSH2 0x2165 JUMP JUMPDEST JUMPDEST DUP11 DUP12 MULMOD MULMOD SWAP1 POP PUSH0 PUSH32 0x30644E72E131A029B85045B68181585D97816A916871CA8D3C208C16D87CFD47 DUP1 PUSH2 0x176C JUMPI PUSH2 0x176B PUSH2 0x2165 JUMP JUMPDEST JUMPDEST DUP9 PUSH32 0x30644E72E131A029B85045B68181585D97816A916871CA8D3C208C16D87CFD47 DUP1 PUSH2 0x179C JUMPI PUSH2 0x179B PUSH2 0x2165 JUMP JUMPDEST JUMPDEST DUP11 DUP12 MULMOD MULMOD SWAP1 POP PUSH32 0x30644E72E131A029B85045B68181585D97816A916871CA8D3C208C16D87CFD47 DUP1 PUSH2 0x17D1 JUMPI PUSH2 0x17D0 PUSH2 0x2165 JUMP JUMPDEST JUMPDEST PUSH32 0x30644E72E131A029B85045B68181585D97816A916871CA8D3C208C16D87CFD47 DUP1 PUSH2 0x1800 JUMPI PUSH2 0x17FF PUSH2 0x2165 JUMP JUMPDEST JUMPDEST PUSH32 0x30644E72E131A029B85045B68181585D97816A916871CA8D3C208C16D87CFD47 DUP1 PUSH2 0x182F JUMPI PUSH2 0x182E PUSH2 0x2165 JUMP JUMPDEST JUMPDEST DUP11 DUP7 MULMOD DUP5 ADDMOD PUSH32 0x2B149D40CEB8AAAE81BE18991BE06AC3B5B4C5E559DBEFA33267E6DC24A138E5 ADDMOD SWAP7 POP PUSH2 0x1914 PUSH32 0x30644E72E131A029B85045B68181585D97816A916871CA8D3C208C16D87CFD47 DUP1 PUSH2 0x188A JUMPI PUSH2 0x1889 PUSH2 0x2165 JUMP JUMPDEST JUMPDEST PUSH32 0x30644E72E131A029B85045B68181585D97816A916871CA8D3C208C16D87CFD47 DUP1 PUSH2 0x18B9 JUMPI PUSH2 0x18B8 PUSH2 0x2165 JUMP JUMPDEST JUMPDEST PUSH32 0x30644E72E131A029B85045B68181585D97816A916871CA8D3C208C16D87CFD47 DUP1 PUSH2 0x18E8 JUMPI PUSH2 0x18E7 PUSH2 0x2165 JUMP JUMPDEST JUMPDEST DUP13 DUP8 MULMOD DUP5 ADDMOD PUSH32 0x2FCD3AC2A640A154EB23960892A85A68F031CA0C8344B23A577DCF1052B9E775 ADDMOD PUSH2 0x19F1 JUMP JUMPDEST SWAP6 POP PUSH2 0x1921 DUP8 DUP8 DUP7 PUSH2 0x1AC6 JUMP JUMPDEST DUP1 SWAP8 POP DUP2 SWAP9 POP POP POP DUP5 ISZERO PUSH2 0x1946 JUMPI PUSH2 0x1938 DUP8 PUSH2 0x19F1 JUMP JUMPDEST SWAP7 POP PUSH2 0x1943 DUP7 PUSH2 0x19F1 JUMP JUMPDEST SWAP6 POP JUMPDEST POP POP POP POP POP JUMPDEST SWAP3 SWAP6 SWAP2 SWAP5 POP SWAP3 POP JUMP JUMPDEST PUSH0 PUSH2 0x1980 DUP3 PUSH32 0xC19139CB84C680A6E14116DA060561765E05AA45A1C72A34F082305B61F3F52 PUSH2 0x1DC1 JUMP JUMPDEST SWAP1 POP DUP2 PUSH32 0x30644E72E131A029B85045B68181585D97816A916871CA8D3C208C16D87CFD47 DUP1 PUSH2 0x19B2 JUMPI PUSH2 0x19B1 PUSH2 0x2165 JUMP JUMPDEST JUMPDEST DUP3 DUP4 MULMOD EQ PUSH2 0x19EC JUMPI PUSH1 0x40 MLOAD PUSH32 0x7FCDD1F400000000000000000000000000000000000000000000000000000000 DUP2 MSTORE PUSH1 0x4 ADD PUSH1 0x40 MLOAD DUP1 SWAP2 SUB SWAP1 REVERT JUMPDEST SWAP2 SWAP1 POP JUMP JUMPDEST PUSH0 PUSH32 0x30644E72E131A029B85045B68181585D97816A916871CA8D3C208C16D87CFD47 DUP1 DUP4 DUP2 PUSH2 0x1A23 JUMPI PUSH2 0x1A22 PUSH2 0x2165 JUMP JUMPDEST JUMPDEST MOD PUSH32 0x30644E72E131A029B85045B68181585D97816A916871CA8D3C208C16D87CFD47 SUB DUP2 PUSH2 0x1A54 JUMPI PUSH2 0x1A53 PUSH2 0x2165 JUMP JUMPDEST JUMPDEST MOD SWAP1 POP SWAP2 SWAP1 POP JUMP JUMPDEST PUSH0 PUSH0 PUSH2 0x1A88 DUP4 PUSH32 0xC19139CB84C680A6E14116DA060561765E05AA45A1C72A34F082305B61F3F52 PUSH2 0x1DC1 JUMP JUMPDEST SWAP1 POP DUP3 PUSH32 0x30644E72E131A029B85045B68181585D97816A916871CA8D3C208C16D87CFD47 DUP1 PUSH2 0x1ABA JUMPI PUSH2 0x1AB9 PUSH2 0x2165 JUMP JUMPDEST JUMPDEST DUP3 DUP4 MULMOD EQ SWAP2 POP POP SWAP2 SWAP1 POP JUMP JUMPDEST PUSH0 PUSH0 PUSH0 PUSH2 0x1B65 PUSH32 0x30644E72E131A029B85045B68181585D97816A916871CA8D3C208C16D87CFD47 DUP1 PUSH2 0x1AFB JUMPI PUSH2 0x1AFA PUSH2 0x2165 JUMP JUMPDEST JUMPDEST PUSH32 0x30644E72E131A029B85045B68181585D97816A916871CA8D3C208C16D87CFD47 DUP1 PUSH2 0x1B2A JUMPI PUSH2 0x1B29 PUSH2 0x2165 JUMP JUMPDEST JUMPDEST DUP8 DUP9 MULMOD PUSH32 0x30644E72E131A029B85045B68181585D97816A916871CA8D3C208C16D87CFD47 DUP1 PUSH2 0x1B5C JUMPI PUSH2 0x1B5B PUSH2 0x2165 JUMP JUMPDEST JUMPDEST DUP10 DUP11 MULMOD ADDMOD PUSH2 0x1955 JUMP JUMPDEST SWAP1 POP DUP4 ISZERO PUSH2 0x1B79 JUMPI PUSH2 0x1B76 DUP2 PUSH2 0x19F1 JUMP JUMPDEST SWAP1 POP JUMPDEST PUSH2 0x1C04 PUSH32 0x30644E72E131A029B85045B68181585D97816A916871CA8D3C208C16D87CFD47 DUP1 PUSH2 0x1BAB JUMPI PUSH2 0x1BAA PUSH2 0x2165 JUMP JUMPDEST JUMPDEST PUSH32 0x183227397098D014DC2822DB40C0AC2ECBC0B548B438E5469E10460B6C3E7EA4 PUSH32 0x30644E72E131A029B85045B68181585D97816A916871CA8D3C208C16D87CFD47 DUP1 PUSH2 0x1BFB JUMPI PUSH2 0x1BFA PUSH2 0x2165 JUMP JUMPDEST JUMPDEST DUP5 DUP11 ADDMOD MULMOD PUSH2 0x1955 JUMP JUMPDEST SWAP3 POP PUSH32 0x30644E72E131A029B85045B68181585D97816A916871CA8D3C208C16D87CFD47 DUP1 PUSH2 0x1C35 JUMPI PUSH2 0x1C34 PUSH2 0x2165 JUMP JUMPDEST JUMPDEST PUSH2 0x1C70 PUSH32 0x30644E72E131A029B85045B68181585D97816A916871CA8D3C208C16D87CFD47 DUP1 PUSH2 0x1C67 JUMPI PUSH2 0x1C66 PUSH2 0x2165 JUMP JUMPDEST JUMPDEST PUSH1 0x2 DUP7 MULMOD PUSH2 0x1E58 JUMP JUMPDEST DUP7 MULMOD SWAP2 POP PUSH32 0x30644E72E131A029B85045B68181585D97816A916871CA8D3C208C16D87CFD47 DUP1 PUSH2 0x1CA3 JUMPI PUSH2 0x1CA2 PUSH2 0x2165 JUMP JUMPDEST JUMPDEST PUSH2 0x1CDD PUSH32 0x30644E72E131A029B85045B68181585D97816A916871CA8D3C208C16D87CFD47 DUP1 PUSH2 0x1CD5 JUMPI PUSH2 0x1CD4 PUSH2 0x2165 JUMP JUMPDEST JUMPDEST DUP5 DUP6 MULMOD PUSH2 0x19F1 JUMP JUMPDEST PUSH32 0x30644E72E131A029B85045B68181585D97816A916871CA8D3C208C16D87CFD47 DUP1 PUSH2 0x1D0C JUMPI PUSH2 0x1D0B PUSH2 0x2165 JUMP JUMPDEST JUMPDEST DUP6 DUP7 MULMOD ADDMOD DUP7 EQ ISZERO DUP1 PUSH2 0x1D81 JUMPI POP PUSH32 0x30644E72E131A029B85045B68181585D97816A916871CA8D3C208C16D87CFD47 DUP1 PUSH2 0x1D48 JUMPI PUSH2 0x1D47 PUSH2 0x2165 JUMP JUMPDEST JUMPDEST PUSH32 0x30644E72E131A029B85045B68181585D97816A916871CA8D3C208C16D87CFD47 DUP1 PUSH2 0x1D77 JUMPI PUSH2 0x1D76 PUSH2 0x2165 JUMP JUMPDEST JUMPDEST DUP4 DUP6 MULMOD PUSH1 0x2 MULMOD DUP6 EQ ISZERO JUMPDEST ISZERO PUSH2 0x1DB8 JUMPI PUSH1 0x40 MLOAD PUSH32 0x7FCDD1F400000000000000000000000000000000000000000000000000000000 DUP2 MSTORE PUSH1 0x4 ADD PUSH1 0x40 MLOAD DUP1 SWAP2 SUB SWAP1 REVERT JUMPDEST POP SWAP4 POP SWAP4 SWAP2 POP POP JUMP JUMPDEST PUSH0 PUSH0 PUSH1 0x40 MLOAD PUSH1 0x20 DUP2 MSTORE PUSH1 0x20 DUP1 DUP3 ADD MSTORE PUSH1 0x20 PUSH1 0x40 DUP3 ADD MSTORE DUP5 PUSH1 0x60 DUP3 ADD MSTORE DUP4 PUSH1 0x80 DUP3 ADD MSTORE PUSH32 0x30644E72E131A029B85045B68181585D97816A916871CA8D3C208C16D87CFD47 PUSH1 0xA0 DUP3 ADD MSTORE PUSH1 0x20 DUP2 PUSH1 0xC0 DUP4 PUSH1 0x5 GAS STATICCALL SWAP2 POP DUP1 MLOAD SWAP3 POP POP DUP1 PUSH2 0x1E51 JUMPI PUSH1 0x40 MLOAD PUSH32 0x7FCDD1F400000000000000000000000000000000000000000000000000000000 DUP2 MSTORE PUSH1 0x4 ADD PUSH1 0x40 MLOAD DUP1 SWAP2 SUB SWAP1 REVERT JUMPDEST POP SWAP3 SWAP2 POP POP JUMP JUMPDEST PUSH0 PUSH2 0x1E83 DUP3 PUSH32 0x30644E72E131A029B85045B68181585D97816A916871CA8D3C208C16D87CFD45 PUSH2 0x1DC1 JUMP JUMPDEST SWAP1 POP PUSH1 0x1 PUSH32 0x30644E72E131A029B85045B68181585D97816A916871CA8D3C208C16D87CFD47 DUP1 PUSH2 0x1EB6 JUMPI PUSH2 0x1EB5 PUSH2 0x2165 JUMP JUMPDEST JUMPDEST DUP3 DUP5 MULMOD EQ PUSH2 0x1EF0 JUMPI PUSH1 0x40 MLOAD PUSH32 0x7FCDD1F400000000000000000000000000000000000000000000000000000000 DUP2 MSTORE PUSH1 0x4 ADD PUSH1 0x40 MLOAD DUP1 SWAP2 SUB SWAP1 REVERT JUMPDEST SWAP2 SWAP1 POP JUMP JUMPDEST PUSH1 0x40 MLOAD DUP1 PUSH1 0x80 ADD PUSH1 0x40 MSTORE DUP1 PUSH1 0x4 SWAP1 PUSH1 0x20 DUP3 MUL DUP1 CALLDATASIZE DUP4 CALLDATACOPY DUP1 DUP3 ADD SWAP2 POP POP SWAP1 POP POP SWAP1 JUMP JUMPDEST PUSH1 0x40 MLOAD DUP1 PUSH2 0x300 ADD PUSH1 0x40 MSTORE DUP1 PUSH1 0x18 SWAP1 PUSH1 0x20 DUP3 MUL DUP1 CALLDATASIZE DUP4 CALLDATACOPY DUP1 DUP3 ADD SWAP2 POP POP SWAP1 POP POP SWAP1 JUMP JUMPDEST PUSH1 0x40 MLOAD DUP1 PUSH1 0x20 ADD PUSH1 0x40 MSTORE DUP1 PUSH1 0x1 SWAP1 PUSH1 0x20 DUP3 MUL DUP1 CALLDATASIZE DUP4 CALLDATACOPY DUP1 DUP3 ADD SWAP2 POP POP SWAP1 POP POP SWAP1 JUMP JUMPDEST PUSH0 PUSH0 REVERT JUMPDEST PUSH0 PUSH0 REVERT JUMPDEST PUSH0 DUP2 SWAP1 POP DUP3 PUSH1 0x20 PUSH1 0x8 MUL DUP3 ADD GT ISZERO PUSH2 0x1F7F JUMPI PUSH2 0x1F7E PUSH2 0x1F60 JUMP JUMPDEST JUMPDEST SWAP3 SWAP2 POP POP JUMP JUMPDEST PUSH0 PUSH2 0x100 DUP3 DUP5 SUB SLT ISZERO PUSH2 0x1F9B JUMPI PUSH2 0x1F9A PUSH2 0x1F5C JUMP JUMPDEST JUMPDEST PUSH0 PUSH2 0x1FA8 DUP5 DUP3 DUP6 ADD PUSH2 0x1F64 JUMP JUMPDEST SWAP2 POP POP SWAP3 SWAP2 POP POP JUMP JUMPDEST PUSH0 PUSH1 0x4 SWAP1 POP SWAP2 SWAP1 POP JUMP JUMPDEST PUSH0 DUP2 SWAP1 POP SWAP3 SWAP2 POP POP JUMP JUMPDEST PUSH0 DUP2 SWAP1 POP SWAP2 SWAP1 POP JUMP JUMPDEST PUSH0 DUP2 SWAP1 POP SWAP2 SWAP1 POP JUMP JUMPDEST PUSH2 0x1FE0 DUP2 PUSH2 0x1FCE JUMP JUMPDEST DUP3 MSTORE POP POP JUMP JUMPDEST PUSH0 PUSH2 0x1FF1 DUP4 DUP4 PUSH2 0x1FD7 JUMP JUMPDEST PUSH1 0x20 DUP4 ADD SWAP1 POP SWAP3 SWAP2 POP POP JUMP JUMPDEST PUSH0 PUSH1 0x20 DUP3 ADD SWAP1 POP SWAP2 SWAP1 POP JUMP JUMPDEST PUSH2 0x2012 DUP2 PUSH2 0x1FB1 JUMP JUMPDEST PUSH2 0x201C DUP2 DUP5 PUSH2 0x1FBB JUMP JUMPDEST SWAP3 POP PUSH2 0x2027 DUP3 PUSH2 0x1FC5 JUMP JUMPDEST DUP1 PUSH0 JUMPDEST DUP4 DUP2 LT ISZERO PUSH2 0x2057 JUMPI DUP2 MLOAD PUSH2 0x203E DUP8 DUP3 PUSH2 0x1FE6 JUMP JUMPDEST SWAP7 POP PUSH2 0x2049 DUP4 PUSH2 0x1FFD JUMP JUMPDEST SWAP3 POP POP PUSH1 0x1 DUP2 ADD SWAP1 POP PUSH2 0x202A JUMP JUMPDEST POP POP POP POP POP POP JUMP JUMPDEST PUSH0 PUSH1 0x80 DUP3 ADD SWAP1 POP PUSH2 0x2072 PUSH0 DUP4 ADD DUP5 PUSH2 0x2009 JUMP JUMPDEST SWAP3 SWAP2 POP POP JUMP JUMPDEST PUSH0 DUP2 SWAP1 POP DUP3 PUSH1 0x20 PUSH1 0x3 MUL DUP3 ADD GT ISZERO PUSH2 0x2093 JUMPI PUSH2 0x2092 PUSH2 0x1F60 JUMP JUMPDEST JUMPDEST SWAP3 SWAP2 POP POP JUMP JUMPDEST PUSH0 PUSH0 PUSH2 0x160 DUP4 DUP6 SUB SLT ISZERO PUSH2 0x20B0 JUMPI PUSH2 0x20AF PUSH2 0x1F5C JUMP JUMPDEST JUMPDEST PUSH0 PUSH2 0x20BD DUP6 DUP3 DUP7 ADD PUSH2 0x1F64 JUMP JUMPDEST SWAP3 POP POP PUSH2 0x100 PUSH2 0x20CF DUP6 DUP3 DUP7 ADD PUSH2 0x2078 JUMP JUMPDEST SWAP2 POP POP SWAP3 POP SWAP3 SWAP1 POP JUMP JUMPDEST PUSH0 DUP2 SWAP1 POP DUP3 PUSH1 0x20 PUSH1 0x4 MUL DUP3 ADD GT ISZERO PUSH2 0x20F4 JUMPI PUSH2 0x20F3 PUSH2 0x1F60 JUMP JUMPDEST JUMPDEST SWAP3 SWAP2 POP POP JUMP JUMPDEST PUSH0 PUSH0 PUSH1 0xE0 DUP4 DUP6 SUB SLT ISZERO PUSH2 0x2110 JUMPI PUSH2 0x210F PUSH2 0x1F5C JUMP JUMPDEST JUMPDEST PUSH0 PUSH2 0x211D DUP6 DUP3 DUP7 ADD PUSH2 0x20D9 JUMP JUMPDEST SWAP3 POP POP PUSH1 0x80 PUSH2 0x212E DUP6 DUP3 DUP7 ADD PUSH2 0x2078 JUMP JUMPDEST SWAP2 POP POP SWAP3 POP SWAP3 SWAP1 POP JUMP JUMPDEST PUSH32 0x4E487B7100000000000000000000000000000000000000000000000000000000 PUSH0 MSTORE PUSH1 0x32 PUSH1 0x4 MSTORE PUSH1 0x24 PUSH0 REVERT JUMPDEST PUSH32 0x4E487B7100000000000000000000000000000000000000000000000000000000 PUSH0 MSTORE PUSH1 0x12 PUSH1 0x4 MSTORE PUSH1 0x24 PUSH0 REVERT JUMPDEST PUSH32 0x4E487B7100000000000000000000000000000000000000000000000000000000 PUSH0 MSTORE PUSH1 0x11 PUSH1 0x4 MSTORE PUSH1 0x24 PUSH0 REVERT JUMPDEST PUSH0 PUSH2 0x21C9 DUP3 PUSH2 0x1FCE JUMP JUMPDEST SWAP2 POP PUSH2 0x21D4 DUP4 PUSH2 0x1FCE JUMP JUMPDEST SWAP3 POP DUP3 DUP3 SUB SWAP1 POP DUP2 DUP2 GT ISZERO PUSH2 0x21EC JUMPI PUSH2 0x21EB PUSH2 0x2192 JUMP JUMPDEST JUMPDEST SWAP3 SWAP2 POP POP JUMP INVALID LOG2 PUSH5 0x6970667358 0x22 SLT KECCAK256 0xB4 SWAP6 0xBD 0xDA DUP1 SDIV PUSH14 0x1CF68D95B5BC94DDC7F4C0E1F5C0 SWAP9 CLZ 0xAD SWAP11 SWAP3 0xEB SSTORE 0xC3 PUSH31 0x245F64736F6C634300081F0033000000000000000000000000000000000000 "
				},
				"gasEstimates": {
					"creation": {
						"codeDepositCost": "1748800",
						"executionCost": "1839",
						"totalCost": "1750639"
					},
					"external": {
						"compressProof(uint256[8])": "infinite",
						"verifyCompressedProof(uint256[4],uint256[3])": "infinite",
						"verifyProof(uint256[8],uint256[3])": "infinite"
					},
					"internal": {
						"compress_g1(uint256,uint256)": "infinite",
						"compress_g2(uint256,uint256,uint256,uint256)": "infinite",
						"decompress_g1(uint256)": "infinite",
						"decompress_g2(uint256,uint256)": "infinite",
						"exp(uint256,uint256)": "infinite",
						"invert_Fp(uint256)": "infinite",
						"isSquare_Fp(uint256)": "infinite",
						"negate(uint256)": "83",
						"publicInputMSM(uint256[3] calldata)": "infinite",
						"sqrt_Fp(uint256)": "infinite",
						"sqrt_Fp2(uint256,uint256,bool)": "infinite"
					}
				},
				"methodIdentifiers": {
					"compressProof(uint256[8])": "44f63692",
					"verifyCompressedProof(uint256[4],uint256[3])": "98c13db9",
					"verifyProof(uint256[8],uint256[3])": "65c03259"
				}
			},
			"storageLayout": {
				"storage": [],
				"types": null
			},
			"userdoc": {
				"errors": {
					"ProofInvalid()": [
						{
							"notice": "The proof is invalid."
						}
					],
					"PublicInputNotInField()": [
						{
							"notice": "Some of the provided public input values are larger than the field modulus."
						}
					]
				},
				"kind": "user",
				"methods": {
					"compressProof(uint256[8])": {
						"notice": "Compress a proof.Will revert with InvalidProof if the curve points are invalid, but does not verify the proof itself."
					},
					"verifyCompressedProof(uint256[4],uint256[3])": {
						"notice": "Verify a Groth16 proof with compressed points.Reverts with InvalidProof if the proof is invalid or with PublicInputNotInField the public input is not reduced.There is no return value. If the function does not revert, the proof was successfully verified."
					},
					"verifyProof(uint256[8],uint256[3])": {
						"notice": "Verify an uncompressed Groth16 proof.Reverts with InvalidProof if the proof is invalid or with PublicInputNotInField the public input is not reduced.There is no return value. If the function does not revert, the proof was successfully verified."
					}
				},
				"notice": "Supports verifying Groth16 proofs. Proofs can be in uncompressed (256 bytes) and compressed (128 bytes) format. A view function is provided to compress proofs.See <https://2π.com/23/bn254-compression> for further explanation.",
				"version": 1
			}
		}
	}
}