{
	"Evm/core/base/vault.sol": {
		"QiaraMultiAssetVault": {
			"abi": [
				{
					"inputs": [
						{
							"internalType": "address",
							"name": "_events",
							"type": "address"
						},
						{
							"internalType": "address",
							"name": "_variablesRegistry",
							"type": "address"
						},
						{
							"internalType": "address",
							"name": "_delegator",
							"type": "address"
						},
						{
							"internalType": "string",
							"name": "_providerName",
							"type": "string"
						}
					],
					"stateMutability": "nonpayable",
					"type": "constructor"
				},
				{
					"inputs": [
						{
							"internalType": "address",
							"name": "owner",
							"type": "address"
						}
					],
					"name": "OwnableInvalidOwner",
					"type": "error"
				},
				{
					"inputs": [
						{
							"internalType": "address",
							"name": "account",
							"type": "address"
						}
					],
					"name": "OwnableUnauthorizedAccount",
					"type": "error"
				},
				{
					"inputs": [
						{
							"internalType": "address",
							"name": "token",
							"type": "address"
						}
					],
					"name": "SafeERC20FailedOperation",
					"type": "error"
				},
				{
					"anonymous": false,
					"inputs": [
						{
							"indexed": true,
							"internalType": "address",
							"name": "user",
							"type": "address"
						},
						{
							"indexed": true,
							"internalType": "address",
							"name": "token",
							"type": "address"
						},
						{
							"indexed": false,
							"internalType": "uint256",
							"name": "amount",
							"type": "uint256"
						},
						{
							"indexed": false,
							"internalType": "string",
							"name": "provider",
							"type": "string"
						}
					],
					"name": "Deposit",
					"type": "event"
				},
				{
					"anonymous": false,
					"inputs": [
						{
							"indexed": true,
							"internalType": "address",
							"name": "user",
							"type": "address"
						},
						{
							"indexed": true,
							"internalType": "address",
							"name": "token",
							"type": "address"
						},
						{
							"indexed": false,
							"internalType": "uint256",
							"name": "amount",
							"type": "uint256"
						},
						{
							"indexed": false,
							"internalType": "string",
							"name": "provider",
							"type": "string"
						}
					],
					"name": "DirectWithdraw",
					"type": "event"
				},
				{
					"anonymous": false,
					"inputs": [
						{
							"indexed": true,
							"internalType": "address",
							"name": "previousOwner",
							"type": "address"
						},
						{
							"indexed": true,
							"internalType": "address",
							"name": "newOwner",
							"type": "address"
						}
					],
					"name": "OwnershipTransferred",
					"type": "event"
				},
				{
					"anonymous": false,
					"inputs": [
						{
							"indexed": true,
							"internalType": "address",
							"name": "token",
							"type": "address"
						},
						{
							"indexed": false,
							"internalType": "string",
							"name": "provider",
							"type": "string"
						}
					],
					"name": "TokenListed",
					"type": "event"
				},
				{
					"inputs": [
						{
							"internalType": "string",
							"name": "assetName",
							"type": "string"
						},
						{
							"internalType": "uint256",
							"name": "amount",
							"type": "uint256"
						}
					],
					"name": "deposit",
					"outputs": [],
					"stateMutability": "nonpayable",
					"type": "function"
				},
				{
					"inputs": [
						{
							"internalType": "address",
							"name": "user",
							"type": "address"
						},
						{
							"internalType": "string",
							"name": "assetName",
							"type": "string"
						},
						{
							"internalType": "uint256",
							"name": "amount",
							"type": "uint256"
						},
						{
							"internalType": "uint256",
							"name": "nullifier",
							"type": "uint256"
						}
					],
					"name": "directWithdraw",
					"outputs": [],
					"stateMutability": "nonpayable",
					"type": "function"
				},
				{
					"inputs": [],
					"name": "events",
					"outputs": [
						{
							"internalType": "contract IEvents",
							"name": "",
							"type": "address"
						}
					],
					"stateMutability": "view",
					"type": "function"
				},
				{
					"inputs": [
						{
							"internalType": "address",
							"name": "",
							"type": "address"
						}
					],
					"name": "isSupportedToken",
					"outputs": [
						{
							"internalType": "bool",
							"name": "",
							"type": "bool"
						}
					],
					"stateMutability": "view",
					"type": "function"
				},
				{
					"inputs": [
						{
							"internalType": "string",
							"name": "assetName",
							"type": "string"
						}
					],
					"name": "listNewToken",
					"outputs": [],
					"stateMutability": "nonpayable",
					"type": "function"
				},
				{
					"inputs": [
						{
							"internalType": "address",
							"name": "user",
							"type": "address"
						},
						{
							"internalType": "string",
							"name": "shared",
							"type": "string"
						},
						{
							"internalType": "string",
							"name": "assetName",
							"type": "string"
						},
						{
							"internalType": "uint256",
							"name": "amount",
							"type": "uint256"
						}
					],
					"name": "m_withdraw",
					"outputs": [],
					"stateMutability": "nonpayable",
					"type": "function"
				},
				{
					"inputs": [],
					"name": "owner",
					"outputs": [
						{
							"internalType": "address",
							"name": "",
							"type": "address"
						}
					],
					"stateMutability": "view",
					"type": "function"
				},
				{
					"inputs": [],
					"name": "providerName",
					"outputs": [
						{
							"internalType": "string",
							"name": "",
							"type": "string"
						}
					],
					"stateMutability": "view",
					"type": "function"
				},
				{
					"inputs": [],
					"name": "renounceOwnership",
					"outputs": [],
					"stateMutability": "nonpayable",
					"type": "function"
				},
				{
					"inputs": [
						{
							"internalType": "string",
							"name": "assetName",
							"type": "string"
						}
					],
					"name": "resolveAsset",
					"outputs": [
						{
							"internalType": "address",
							"name": "",
							"type": "address"
						}
					],
					"stateMutability": "view",
					"type": "function"
				},
				{
					"inputs": [
						{
							"internalType": "address",
							"name": "newOwner",
							"type": "address"
						}
					],
					"name": "transferOwnership",
					"outputs": [],
					"stateMutability": "nonpayable",
					"type": "function"
				},
				{
					"inputs": [],
					"name": "variablesRegistry",
					"outputs": [
						{
							"internalType": "contract IVariables",
							"name": "",
							"type": "address"
						}
					],
					"stateMutability": "view",
					"type": "function"
				}
			],
			"devdoc": {
				"errors": {
					"OwnableInvalidOwner(address)": [
						{
							"details": "The owner is not a valid owner account. (eg. `address(0)`)"
						}
					],
					"OwnableUnauthorizedAccount(address)": [
						{
							"details": "The caller account is not authorized to perform an operation."
						}
					],
					"SafeERC20FailedOperation(address)": [
						{
							"details": "An operation with an ERC-20 token failed."
						}
					]
				},
				"kind": "dev",
				"methods": {
					"directWithdraw(address,string,uint256,uint256)": {
						"details": "This function is called directly by the Delegator contract  after it has verified the ZK Proof and Signatures."
					},
					"m_withdraw(address,string,string,uint256)": {
						"details": "This function can be called by the user, consensus then processes this,  and if everything goes right, it then calls directWdirectWithdraw"
					},
					"owner()": {
						"details": "Returns the address of the current owner."
					},
					"renounceOwnership()": {
						"details": "Leaves the contract without owner. It will not be possible to call `onlyOwner` functions. Can only be called by the current owner. NOTE: Renouncing ownership will leave the contract without an owner, thereby disabling any functionality that is only available to the owner."
					},
					"transferOwnership(address)": {
						"details": "Transfers ownership of the contract to a new account (`newOwner`). Can only be called by the current owner."
					}
				},
				"version": 1
			},
			"evm": {
				"assembly": "    /* \"Evm/core/base/vault.sol\":561:5788  contract QiaraMultiAssetVault is Ownable {... */\n  mstore(0x40, 0xc0)\n    /* \"Evm/core/base/vault.sol\":1098:1413  constructor(... */\n  callvalue\n  dup1\n  iszero\n  tag_1\n  jumpi\n  revert(0x00, 0x00)\ntag_1:\n  pop\n  mload(0x40)\n  sub(codesize, bytecodeSize)\n  dup1\n  bytecodeSize\n  dup4\n  codecopy\n  dup2\n  dup2\n  add\n  0x40\n  mstore\n  dup2\n  add\n  swap1\n  tag_2\n  swap2\n  swap1\n  tag_3\n  jump\t// in\ntag_2:\n    /* \"Evm/core/base/vault.sol\":1257:1267  _delegator */\n  dup2\n    /* \"@openzeppelin/contracts/access/Ownable.sol\":1297:1298  0 */\n  0x00\n    /* \"@openzeppelin/contracts/access/Ownable.sol\":1273:1299  initialOwner == address(0) */\n  0xffffffffffffffffffffffffffffffffffffffff\n  and\n    /* \"@openzeppelin/contracts/access/Ownable.sol\":1273:1285  initialOwner */\n  dup2\n    /* \"@openzeppelin/contracts/access/Ownable.sol\":1273:1299  initialOwner == address(0) */\n  0xffffffffffffffffffffffffffffffffffffffff\n  and\n  sub\n    /* \"@openzeppelin/contracts/access/Ownable.sol\":1269:1364  if (initialOwner == address(0)) {... */\n  tag_7\n  jumpi\n    /* \"@openzeppelin/contracts/access/Ownable.sol\":1350:1351  0 */\n  0x00\n    /* \"@openzeppelin/contracts/access/Ownable.sol\":1322:1353  OwnableInvalidOwner(address(0)) */\n  mload(0x40)\n  0x1e4fbdf700000000000000000000000000000000000000000000000000000000\n  dup2\n  mstore\n  0x04\n  add\n  tag_8\n  swap2\n  swap1\n  tag_9\n  jump\t// in\ntag_8:\n  mload(0x40)\n  dup1\n  swap2\n  sub\n  swap1\n  revert\n    /* \"@openzeppelin/contracts/access/Ownable.sol\":1269:1364  if (initialOwner == address(0)) {... */\ntag_7:\n    /* \"@openzeppelin/contracts/access/Ownable.sol\":1373:1405  _transferOwnership(initialOwner) */\n  tag_10\n    /* \"@openzeppelin/contracts/access/Ownable.sol\":1392:1404  initialOwner */\n  dup2\n    /* \"@openzeppelin/contracts/access/Ownable.sol\":1373:1391  _transferOwnership */\n  shl(0x20, tag_11)\n    /* \"@openzeppelin/contracts/access/Ownable.sol\":1373:1405  _transferOwnership(initialOwner) */\n  0x20\n  shr\n  jump\t// in\ntag_10:\n    /* \"@openzeppelin/contracts/access/Ownable.sol\":1225:1412  constructor(address initialOwner) {... */\n  pop\n    /* \"Evm/core/base/vault.sol\":1297:1304  _events */\n  dup4\n    /* \"Evm/core/base/vault.sol\":1280:1305  events = IEvents(_events) */\n  0xffffffffffffffffffffffffffffffffffffffff\n  and\n  0xa0\n  dup2\n  0xffffffffffffffffffffffffffffffffffffffff\n  and\n  dup2\n  mstore\n  pop\n  pop\n    /* \"Evm/core/base/vault.sol\":1347:1365  _variablesRegistry */\n  dup3\n    /* \"Evm/core/base/vault.sol\":1316:1366  variablesRegistry = IVariables(_variablesRegistry) */\n  0xffffffffffffffffffffffffffffffffffffffff\n  and\n  0x80\n  dup2\n  0xffffffffffffffffffffffffffffffffffffffff\n  and\n  dup2\n  mstore\n  pop\n  pop\n    /* \"Evm/core/base/vault.sol\":1392:1405  _providerName */\n  dup1\n    /* \"Evm/core/base/vault.sol\":1377:1389  providerName */\n  0x01\n    /* \"Evm/core/base/vault.sol\":1377:1405  providerName = _providerName */\n  swap1\n  dup2\n  tag_13\n  swap2\n  swap1\n  tag_14\n  jump\t// in\ntag_13:\n  pop\n    /* \"Evm/core/base/vault.sol\":1098:1413  constructor(... */\n  pop\n  pop\n  pop\n  pop\n    /* \"Evm/core/base/vault.sol\":561:5788  contract QiaraMultiAssetVault is Ownable {... */\n  jump(tag_15)\n    /* \"@openzeppelin/contracts/access/Ownable.sol\":2912:3099  function _transferOwnership(address newOwner) internal virtual {... */\ntag_11:\n    /* \"@openzeppelin/contracts/access/Ownable.sol\":2985:3001  address oldOwner */\n  0x00\n    /* \"@openzeppelin/contracts/access/Ownable.sol\":3004:3010  _owner */\n  0x00\n  0x00\n  swap1\n  sload\n  swap1\n  0x0100\n  exp\n  swap1\n  div\n  0xffffffffffffffffffffffffffffffffffffffff\n  and\n    /* \"@openzeppelin/contracts/access/Ownable.sol\":2985:3010  address oldOwner = _owner */\n  swap1\n  pop\n    /* \"@openzeppelin/contracts/access/Ownable.sol\":3029:3037  newOwner */\n  dup2\n    /* \"@openzeppelin/contracts/access/Ownable.sol\":3020:3026  _owner */\n  0x00\n  0x00\n    /* \"@openzeppelin/contracts/access/Ownable.sol\":3020:3037  _owner = newOwner */\n  0x0100\n  exp\n  dup2\n  sload\n  dup2\n  0xffffffffffffffffffffffffffffffffffffffff\n  mul\n  not\n  and\n  swap1\n  dup4\n  0xffffffffffffffffffffffffffffffffffffffff\n  and\n  mul\n  or\n  swap1\n  sstore\n  pop\n    /* \"@openzeppelin/contracts/access/Ownable.sol\":3083:3091  newOwner */\n  dup2\n    /* \"@openzeppelin/contracts/access/Ownable.sol\":3052:3092  OwnershipTransferred(oldOwner, newOwner) */\n  0xffffffffffffffffffffffffffffffffffffffff\n  and\n    /* \"@openzeppelin/contracts/access/Ownable.sol\":3073:3081  oldOwner */\n  dup2\n    /* \"@openzeppelin/contracts/access/Ownable.sol\":3052:3092  OwnershipTransferred(oldOwner, newOwner) */\n  0xffffffffffffffffffffffffffffffffffffffff\n  and\n  0x8be0079c531659141344cd1fd0a4f28419497f9722a3daafe3b4186f6b6457e0\n  mload(0x40)\n  mload(0x40)\n  dup1\n  swap2\n  sub\n  swap1\n  log3\n    /* \"@openzeppelin/contracts/access/Ownable.sol\":2975:3099  {... */\n  pop\n    /* \"@openzeppelin/contracts/access/Ownable.sol\":2912:3099  function _transferOwnership(address newOwner) internal virtual {... */\n  pop\n  jump\t// out\n    /* \"#utility.yul\":7:82   */\ntag_17:\n    /* \"#utility.yul\":40:46   */\n  0x00\n    /* \"#utility.yul\":73:75   */\n  0x40\n    /* \"#utility.yul\":67:76   */\n  mload\n    /* \"#utility.yul\":57:76   */\n  swap1\n  pop\n    /* \"#utility.yul\":7:82   */\n  swap1\n  jump\t// out\n    /* \"#utility.yul\":88:205   */\ntag_18:\n    /* \"#utility.yul\":197:198   */\n  0x00\n    /* \"#utility.yul\":194:195   */\n  0x00\n    /* \"#utility.yul\":187:199   */\n  revert\n    /* \"#utility.yul\":211:328   */\ntag_19:\n    /* \"#utility.yul\":320:321   */\n  0x00\n    /* \"#utility.yul\":317:318   */\n  0x00\n    /* \"#utility.yul\":310:322   */\n  revert\n    /* \"#utility.yul\":334:460   */\ntag_20:\n    /* \"#utility.yul\":371:378   */\n  0x00\n    /* \"#utility.yul\":411:453   */\n  0xffffffffffffffffffffffffffffffffffffffff\n    /* \"#utility.yul\":404:409   */\n  dup3\n    /* \"#utility.yul\":400:454   */\n  and\n    /* \"#utility.yul\":389:454   */\n  swap1\n  pop\n    /* \"#utility.yul\":334:460   */\n  swap2\n  swap1\n  pop\n  jump\t// out\n    /* \"#utility.yul\":466:562   */\ntag_21:\n    /* \"#utility.yul\":503:510   */\n  0x00\n    /* \"#utility.yul\":532:556   */\n  tag_60\n    /* \"#utility.yul\":550:555   */\n  dup3\n    /* \"#utility.yul\":532:556   */\n  tag_20\n  jump\t// in\ntag_60:\n    /* \"#utility.yul\":521:556   */\n  swap1\n  pop\n    /* \"#utility.yul\":466:562   */\n  swap2\n  swap1\n  pop\n  jump\t// out\n    /* \"#utility.yul\":568:690   */\ntag_22:\n    /* \"#utility.yul\":641:665   */\n  tag_62\n    /* \"#utility.yul\":659:664   */\n  dup2\n    /* \"#utility.yul\":641:665   */\n  tag_21\n  jump\t// in\ntag_62:\n    /* \"#utility.yul\":634:639   */\n  dup2\n    /* \"#utility.yul\":631:666   */\n  eq\n    /* \"#utility.yul\":621:684   */\n  tag_63\n  jumpi\n    /* \"#utility.yul\":680:681   */\n  0x00\n    /* \"#utility.yul\":677:678   */\n  0x00\n    /* \"#utility.yul\":670:682   */\n  revert\n    /* \"#utility.yul\":621:684   */\ntag_63:\n    /* \"#utility.yul\":568:690   */\n  pop\n  jump\t// out\n    /* \"#utility.yul\":696:839   */\ntag_23:\n    /* \"#utility.yul\":753:758   */\n  0x00\n    /* \"#utility.yul\":784:790   */\n  dup2\n    /* \"#utility.yul\":778:791   */\n  mload\n    /* \"#utility.yul\":769:791   */\n  swap1\n  pop\n    /* \"#utility.yul\":800:833   */\n  tag_65\n    /* \"#utility.yul\":827:832   */\n  dup2\n    /* \"#utility.yul\":800:833   */\n  tag_22\n  jump\t// in\ntag_65:\n    /* \"#utility.yul\":696:839   */\n  swap3\n  swap2\n  pop\n  pop\n  jump\t// out\n    /* \"#utility.yul\":845:962   */\ntag_24:\n    /* \"#utility.yul\":954:955   */\n  0x00\n    /* \"#utility.yul\":951:952   */\n  0x00\n    /* \"#utility.yul\":944:956   */\n  revert\n    /* \"#utility.yul\":968:1085   */\ntag_25:\n    /* \"#utility.yul\":1077:1078   */\n  0x00\n    /* \"#utility.yul\":1074:1075   */\n  0x00\n    /* \"#utility.yul\":1067:1079   */\n  revert\n    /* \"#utility.yul\":1091:1193   */\ntag_26:\n    /* \"#utility.yul\":1132:1138   */\n  0x00\n    /* \"#utility.yul\":1183:1185   */\n  0x1f\n    /* \"#utility.yul\":1179:1186   */\n  not\n    /* \"#utility.yul\":1174:1176   */\n  0x1f\n    /* \"#utility.yul\":1167:1172   */\n  dup4\n    /* \"#utility.yul\":1163:1177   */\n  add\n    /* \"#utility.yul\":1159:1187   */\n  and\n    /* \"#utility.yul\":1149:1187   */\n  swap1\n  pop\n    /* \"#utility.yul\":1091:1193   */\n  swap2\n  swap1\n  pop\n  jump\t// out\n    /* \"#utility.yul\":1199:1379   */\ntag_27:\n    /* \"#utility.yul\":1247:1324   */\n  0x4e487b7100000000000000000000000000000000000000000000000000000000\n    /* \"#utility.yul\":1244:1245   */\n  0x00\n    /* \"#utility.yul\":1237:1325   */\n  mstore\n    /* \"#utility.yul\":1344:1348   */\n  0x41\n    /* \"#utility.yul\":1341:1342   */\n  0x04\n    /* \"#utility.yul\":1334:1349   */\n  mstore\n    /* \"#utility.yul\":1368:1372   */\n  0x24\n    /* \"#utility.yul\":1365:1366   */\n  0x00\n    /* \"#utility.yul\":1358:1373   */\n  revert\n    /* \"#utility.yul\":1385:1666   */\ntag_28:\n    /* \"#utility.yul\":1468:1495   */\n  tag_71\n    /* \"#utility.yul\":1490:1494   */\n  dup3\n    /* \"#utility.yul\":1468:1495   */\n  tag_26\n  jump\t// in\ntag_71:\n    /* \"#utility.yul\":1460:1466   */\n  dup2\n    /* \"#utility.yul\":1456:1496   */\n  add\n    /* \"#utility.yul\":1598:1604   */\n  dup2\n    /* \"#utility.yul\":1586:1596   */\n  dup2\n    /* \"#utility.yul\":1583:1605   */\n  lt\n    /* \"#utility.yul\":1562:1580   */\n  0xffffffffffffffff\n    /* \"#utility.yul\":1550:1560   */\n  dup3\n    /* \"#utility.yul\":1547:1581   */\n  gt\n    /* \"#utility.yul\":1544:1606   */\n  or\n    /* \"#utility.yul\":1541:1629   */\n  iszero\n  tag_72\n  jumpi\n    /* \"#utility.yul\":1609:1627   */\n  tag_73\n  tag_27\n  jump\t// in\ntag_73:\n    /* \"#utility.yul\":1541:1629   */\ntag_72:\n    /* \"#utility.yul\":1649:1659   */\n  dup1\n    /* \"#utility.yul\":1645:1647   */\n  0x40\n    /* \"#utility.yul\":1638:1660   */\n  mstore\n    /* \"#utility.yul\":1428:1666   */\n  pop\n    /* \"#utility.yul\":1385:1666   */\n  pop\n  pop\n  jump\t// out\n    /* \"#utility.yul\":1672:1801   */\ntag_29:\n    /* \"#utility.yul\":1706:1712   */\n  0x00\n    /* \"#utility.yul\":1733:1753   */\n  tag_75\n  tag_17\n  jump\t// in\ntag_75:\n    /* \"#utility.yul\":1723:1753   */\n  swap1\n  pop\n    /* \"#utility.yul\":1762:1795   */\n  tag_76\n    /* \"#utility.yul\":1790:1794   */\n  dup3\n    /* \"#utility.yul\":1782:1788   */\n  dup3\n    /* \"#utility.yul\":1762:1795   */\n  tag_28\n  jump\t// in\ntag_76:\n    /* \"#utility.yul\":1672:1801   */\n  swap2\n  swap1\n  pop\n  jump\t// out\n    /* \"#utility.yul\":1807:2115   */\ntag_30:\n    /* \"#utility.yul\":1869:1873   */\n  0x00\n    /* \"#utility.yul\":1959:1977   */\n  0xffffffffffffffff\n    /* \"#utility.yul\":1951:1957   */\n  dup3\n    /* \"#utility.yul\":1948:1978   */\n  gt\n    /* \"#utility.yul\":1945:2001   */\n  iszero\n  tag_78\n  jumpi\n    /* \"#utility.yul\":1981:1999   */\n  tag_79\n  tag_27\n  jump\t// in\ntag_79:\n    /* \"#utility.yul\":1945:2001   */\ntag_78:\n    /* \"#utility.yul\":2019:2048   */\n  tag_80\n    /* \"#utility.yul\":2041:2047   */\n  dup3\n    /* \"#utility.yul\":2019:2048   */\n  tag_26\n  jump\t// in\ntag_80:\n    /* \"#utility.yul\":2011:2048   */\n  swap1\n  pop\n    /* \"#utility.yul\":2103:2107   */\n  0x20\n    /* \"#utility.yul\":2097:2101   */\n  dup2\n    /* \"#utility.yul\":2093:2108   */\n  add\n    /* \"#utility.yul\":2085:2108   */\n  swap1\n  pop\n    /* \"#utility.yul\":1807:2115   */\n  swap2\n  swap1\n  pop\n  jump\t// out\n    /* \"#utility.yul\":2121:2260   */\ntag_31:\n    /* \"#utility.yul\":2210:2216   */\n  dup3\n    /* \"#utility.yul\":2205:2208   */\n  dup2\n    /* \"#utility.yul\":2200:2203   */\n  dup4\n    /* \"#utility.yul\":2194:2217   */\n  mcopy\n    /* \"#utility.yul\":2251:2252   */\n  0x00\n    /* \"#utility.yul\":2242:2248   */\n  dup4\n    /* \"#utility.yul\":2237:2240   */\n  dup4\n    /* \"#utility.yul\":2233:2249   */\n  add\n    /* \"#utility.yul\":2226:2253   */\n  mstore\n    /* \"#utility.yul\":2121:2260   */\n  pop\n  pop\n  pop\n  jump\t// out\n    /* \"#utility.yul\":2266:2700   */\ntag_32:\n    /* \"#utility.yul\":2355:2360   */\n  0x00\n    /* \"#utility.yul\":2380:2446   */\n  tag_83\n    /* \"#utility.yul\":2396:2445   */\n  tag_84\n    /* \"#utility.yul\":2438:2444   */\n  dup5\n    /* \"#utility.yul\":2396:2445   */\n  tag_30\n  jump\t// in\ntag_84:\n    /* \"#utility.yul\":2380:2446   */\n  tag_29\n  jump\t// in\ntag_83:\n    /* \"#utility.yul\":2371:2446   */\n  swap1\n  pop\n    /* \"#utility.yul\":2469:2475   */\n  dup3\n    /* \"#utility.yul\":2462:2467   */\n  dup2\n    /* \"#utility.yul\":2455:2476   */\n  mstore\n    /* \"#utility.yul\":2507:2511   */\n  0x20\n    /* \"#utility.yul\":2500:2505   */\n  dup2\n    /* \"#utility.yul\":2496:2512   */\n  add\n    /* \"#utility.yul\":2545:2548   */\n  dup5\n    /* \"#utility.yul\":2536:2542   */\n  dup5\n    /* \"#utility.yul\":2531:2534   */\n  dup5\n    /* \"#utility.yul\":2527:2543   */\n  add\n    /* \"#utility.yul\":2524:2549   */\n  gt\n    /* \"#utility.yul\":2521:2633   */\n  iszero\n  tag_85\n  jumpi\n    /* \"#utility.yul\":2552:2631   */\n  tag_86\n  tag_25\n  jump\t// in\ntag_86:\n    /* \"#utility.yul\":2521:2633   */\ntag_85:\n    /* \"#utility.yul\":2642:2694   */\n  tag_87\n    /* \"#utility.yul\":2687:2693   */\n  dup5\n    /* \"#utility.yul\":2682:2685   */\n  dup3\n    /* \"#utility.yul\":2677:2680   */\n  dup6\n    /* \"#utility.yul\":2642:2694   */\n  tag_31\n  jump\t// in\ntag_87:\n    /* \"#utility.yul\":2361:2700   */\n  pop\n    /* \"#utility.yul\":2266:2700   */\n  swap4\n  swap3\n  pop\n  pop\n  pop\n  jump\t// out\n    /* \"#utility.yul\":2720:3075   */\ntag_33:\n    /* \"#utility.yul\":2787:2792   */\n  0x00\n    /* \"#utility.yul\":2836:2839   */\n  dup3\n    /* \"#utility.yul\":2829:2833   */\n  0x1f\n    /* \"#utility.yul\":2821:2827   */\n  dup4\n    /* \"#utility.yul\":2817:2834   */\n  add\n    /* \"#utility.yul\":2813:2840   */\n  slt\n    /* \"#utility.yul\":2803:2925   */\n  tag_89\n  jumpi\n    /* \"#utility.yul\":2844:2923   */\n  tag_90\n  tag_24\n  jump\t// in\ntag_90:\n    /* \"#utility.yul\":2803:2925   */\ntag_89:\n    /* \"#utility.yul\":2954:2960   */\n  dup2\n    /* \"#utility.yul\":2948:2961   */\n  mload\n    /* \"#utility.yul\":2979:3069   */\n  tag_91\n    /* \"#utility.yul\":3065:3068   */\n  dup5\n    /* \"#utility.yul\":3057:3063   */\n  dup3\n    /* \"#utility.yul\":3050:3054   */\n  0x20\n    /* \"#utility.yul\":3042:3048   */\n  dup7\n    /* \"#utility.yul\":3038:3055   */\n  add\n    /* \"#utility.yul\":2979:3069   */\n  tag_32\n  jump\t// in\ntag_91:\n    /* \"#utility.yul\":2970:3069   */\n  swap2\n  pop\n    /* \"#utility.yul\":2793:3075   */\n  pop\n    /* \"#utility.yul\":2720:3075   */\n  swap3\n  swap2\n  pop\n  pop\n  jump\t// out\n    /* \"#utility.yul\":3081:4074   */\ntag_3:\n    /* \"#utility.yul\":3188:3194   */\n  0x00\n    /* \"#utility.yul\":3196:3202   */\n  0x00\n    /* \"#utility.yul\":3204:3210   */\n  0x00\n    /* \"#utility.yul\":3212:3218   */\n  0x00\n    /* \"#utility.yul\":3261:3264   */\n  0x80\n    /* \"#utility.yul\":3249:3258   */\n  dup6\n    /* \"#utility.yul\":3240:3247   */\n  dup8\n    /* \"#utility.yul\":3236:3259   */\n  sub\n    /* \"#utility.yul\":3232:3265   */\n  slt\n    /* \"#utility.yul\":3229:3349   */\n  iszero\n  tag_93\n  jumpi\n    /* \"#utility.yul\":3268:3347   */\n  tag_94\n  tag_18\n  jump\t// in\ntag_94:\n    /* \"#utility.yul\":3229:3349   */\ntag_93:\n    /* \"#utility.yul\":3388:3389   */\n  0x00\n    /* \"#utility.yul\":3413:3477   */\n  tag_95\n    /* \"#utility.yul\":3469:3476   */\n  dup8\n    /* \"#utility.yul\":3460:3466   */\n  dup3\n    /* \"#utility.yul\":3449:3458   */\n  dup9\n    /* \"#utility.yul\":3445:3467   */\n  add\n    /* \"#utility.yul\":3413:3477   */\n  tag_23\n  jump\t// in\ntag_95:\n    /* \"#utility.yul\":3403:3477   */\n  swap5\n  pop\n    /* \"#utility.yul\":3359:3487   */\n  pop\n    /* \"#utility.yul\":3526:3528   */\n  0x20\n    /* \"#utility.yul\":3552:3616   */\n  tag_96\n    /* \"#utility.yul\":3608:3615   */\n  dup8\n    /* \"#utility.yul\":3599:3605   */\n  dup3\n    /* \"#utility.yul\":3588:3597   */\n  dup9\n    /* \"#utility.yul\":3584:3606   */\n  add\n    /* \"#utility.yul\":3552:3616   */\n  tag_23\n  jump\t// in\ntag_96:\n    /* \"#utility.yul\":3542:3616   */\n  swap4\n  pop\n    /* \"#utility.yul\":3497:3626   */\n  pop\n    /* \"#utility.yul\":3665:3667   */\n  0x40\n    /* \"#utility.yul\":3691:3755   */\n  tag_97\n    /* \"#utility.yul\":3747:3754   */\n  dup8\n    /* \"#utility.yul\":3738:3744   */\n  dup3\n    /* \"#utility.yul\":3727:3736   */\n  dup9\n    /* \"#utility.yul\":3723:3745   */\n  add\n    /* \"#utility.yul\":3691:3755   */\n  tag_23\n  jump\t// in\ntag_97:\n    /* \"#utility.yul\":3681:3755   */\n  swap3\n  pop\n    /* \"#utility.yul\":3636:3765   */\n  pop\n    /* \"#utility.yul\":3825:3827   */\n  0x60\n    /* \"#utility.yul\":3814:3823   */\n  dup6\n    /* \"#utility.yul\":3810:3828   */\n  add\n    /* \"#utility.yul\":3804:3829   */\n  mload\n    /* \"#utility.yul\":3856:3874   */\n  0xffffffffffffffff\n    /* \"#utility.yul\":3848:3854   */\n  dup2\n    /* \"#utility.yul\":3845:3875   */\n  gt\n    /* \"#utility.yul\":3842:3959   */\n  iszero\n  tag_98\n  jumpi\n    /* \"#utility.yul\":3878:3957   */\n  tag_99\n  tag_19\n  jump\t// in\ntag_99:\n    /* \"#utility.yul\":3842:3959   */\ntag_98:\n    /* \"#utility.yul\":3983:4057   */\n  tag_100\n    /* \"#utility.yul\":4049:4056   */\n  dup8\n    /* \"#utility.yul\":4040:4046   */\n  dup3\n    /* \"#utility.yul\":4029:4038   */\n  dup9\n    /* \"#utility.yul\":4025:4047   */\n  add\n    /* \"#utility.yul\":3983:4057   */\n  tag_33\n  jump\t// in\ntag_100:\n    /* \"#utility.yul\":3973:4057   */\n  swap2\n  pop\n    /* \"#utility.yul\":3775:4067   */\n  pop\n    /* \"#utility.yul\":3081:4074   */\n  swap3\n  swap6\n  swap2\n  swap5\n  pop\n  swap3\n  pop\n  jump\t// out\n    /* \"#utility.yul\":4080:4198   */\ntag_34:\n    /* \"#utility.yul\":4167:4191   */\n  tag_102\n    /* \"#utility.yul\":4185:4190   */\n  dup2\n    /* \"#utility.yul\":4167:4191   */\n  tag_21\n  jump\t// in\ntag_102:\n    /* \"#utility.yul\":4162:4165   */\n  dup3\n    /* \"#utility.yul\":4155:4192   */\n  mstore\n    /* \"#utility.yul\":4080:4198   */\n  pop\n  pop\n  jump\t// out\n    /* \"#utility.yul\":4204:4426   */\ntag_9:\n    /* \"#utility.yul\":4297:4301   */\n  0x00\n    /* \"#utility.yul\":4335:4337   */\n  0x20\n    /* \"#utility.yul\":4324:4333   */\n  dup3\n    /* \"#utility.yul\":4320:4338   */\n  add\n    /* \"#utility.yul\":4312:4338   */\n  swap1\n  pop\n    /* \"#utility.yul\":4348:4419   */\n  tag_104\n    /* \"#utility.yul\":4416:4417   */\n  0x00\n    /* \"#utility.yul\":4405:4414   */\n  dup4\n    /* \"#utility.yul\":4401:4418   */\n  add\n    /* \"#utility.yul\":4392:4398   */\n  dup5\n    /* \"#utility.yul\":4348:4419   */\n  tag_34\n  jump\t// in\ntag_104:\n    /* \"#utility.yul\":4204:4426   */\n  swap3\n  swap2\n  pop\n  pop\n  jump\t// out\n    /* \"#utility.yul\":4432:4531   */\ntag_35:\n    /* \"#utility.yul\":4484:4490   */\n  0x00\n    /* \"#utility.yul\":4518:4523   */\n  dup2\n    /* \"#utility.yul\":4512:4524   */\n  mload\n    /* \"#utility.yul\":4502:4524   */\n  swap1\n  pop\n    /* \"#utility.yul\":4432:4531   */\n  swap2\n  swap1\n  pop\n  jump\t// out\n    /* \"#utility.yul\":4537:4717   */\ntag_36:\n    /* \"#utility.yul\":4585:4662   */\n  0x4e487b7100000000000000000000000000000000000000000000000000000000\n    /* \"#utility.yul\":4582:4583   */\n  0x00\n    /* \"#utility.yul\":4575:4663   */\n  mstore\n    /* \"#utility.yul\":4682:4686   */\n  0x22\n    /* \"#utility.yul\":4679:4680   */\n  0x04\n    /* \"#utility.yul\":4672:4687   */\n  mstore\n    /* \"#utility.yul\":4706:4710   */\n  0x24\n    /* \"#utility.yul\":4703:4704   */\n  0x00\n    /* \"#utility.yul\":4696:4711   */\n  revert\n    /* \"#utility.yul\":4723:5043   */\ntag_37:\n    /* \"#utility.yul\":4767:4773   */\n  0x00\n    /* \"#utility.yul\":4804:4805   */\n  0x02\n    /* \"#utility.yul\":4798:4802   */\n  dup3\n    /* \"#utility.yul\":4794:4806   */\n  div\n    /* \"#utility.yul\":4784:4806   */\n  swap1\n  pop\n    /* \"#utility.yul\":4851:4852   */\n  0x01\n    /* \"#utility.yul\":4845:4849   */\n  dup3\n    /* \"#utility.yul\":4841:4853   */\n  and\n    /* \"#utility.yul\":4872:4890   */\n  dup1\n    /* \"#utility.yul\":4862:4943   */\n  tag_108\n  jumpi\n    /* \"#utility.yul\":4928:4932   */\n  0x7f\n    /* \"#utility.yul\":4920:4926   */\n  dup3\n    /* \"#utility.yul\":4916:4933   */\n  and\n    /* \"#utility.yul\":4906:4933   */\n  swap2\n  pop\n    /* \"#utility.yul\":4862:4943   */\ntag_108:\n    /* \"#utility.yul\":4990:4992   */\n  0x20\n    /* \"#utility.yul\":4982:4988   */\n  dup3\n    /* \"#utility.yul\":4979:4993   */\n  lt\n    /* \"#utility.yul\":4959:4977   */\n  dup2\n    /* \"#utility.yul\":4956:4994   */\n  sub\n    /* \"#utility.yul\":4953:5037   */\n  tag_109\n  jumpi\n    /* \"#utility.yul\":5009:5027   */\n  tag_110\n  tag_36\n  jump\t// in\ntag_110:\n    /* \"#utility.yul\":4953:5037   */\ntag_109:\n    /* \"#utility.yul\":4774:5043   */\n  pop\n    /* \"#utility.yul\":4723:5043   */\n  swap2\n  swap1\n  pop\n  jump\t// out\n    /* \"#utility.yul\":5049:5190   */\ntag_38:\n    /* \"#utility.yul\":5098:5102   */\n  0x00\n    /* \"#utility.yul\":5121:5124   */\n  dup2\n    /* \"#utility.yul\":5113:5124   */\n  swap1\n  pop\n    /* \"#utility.yul\":5144:5147   */\n  dup2\n    /* \"#utility.yul\":5141:5142   */\n  0x00\n    /* \"#utility.yul\":5134:5148   */\n  mstore\n    /* \"#utility.yul\":5178:5182   */\n  0x20\n    /* \"#utility.yul\":5175:5176   */\n  0x00\n    /* \"#utility.yul\":5165:5183   */\n  keccak256\n    /* \"#utility.yul\":5157:5183   */\n  swap1\n  pop\n    /* \"#utility.yul\":5049:5190   */\n  swap2\n  swap1\n  pop\n  jump\t// out\n    /* \"#utility.yul\":5196:5289   */\ntag_39:\n    /* \"#utility.yul\":5233:5239   */\n  0x00\n    /* \"#utility.yul\":5280:5282   */\n  0x20\n    /* \"#utility.yul\":5275:5277   */\n  0x1f\n    /* \"#utility.yul\":5268:5273   */\n  dup4\n    /* \"#utility.yul\":5264:5278   */\n  add\n    /* \"#utility.yul\":5260:5283   */\n  div\n    /* \"#utility.yul\":5250:5283   */\n  swap1\n  pop\n    /* \"#utility.yul\":5196:5289   */\n  swap2\n  swap1\n  pop\n  jump\t// out\n    /* \"#utility.yul\":5295:5402   */\ntag_40:\n    /* \"#utility.yul\":5339:5347   */\n  0x00\n    /* \"#utility.yul\":5389:5394   */\n  dup3\n    /* \"#utility.yul\":5383:5387   */\n  dup3\n    /* \"#utility.yul\":5379:5395   */\n  shl\n    /* \"#utility.yul\":5358:5395   */\n  swap1\n  pop\n    /* \"#utility.yul\":5295:5402   */\n  swap3\n  swap2\n  pop\n  pop\n  jump\t// out\n    /* \"#utility.yul\":5408:5801   */\ntag_41:\n    /* \"#utility.yul\":5477:5483   */\n  0x00\n    /* \"#utility.yul\":5527:5528   */\n  0x08\n    /* \"#utility.yul\":5515:5525   */\n  dup4\n    /* \"#utility.yul\":5511:5529   */\n  mul\n    /* \"#utility.yul\":5550:5647   */\n  tag_115\n    /* \"#utility.yul\":5580:5646   */\n  0xffffffffffffffffffffffffffffffffffffffffffffffffffffffffffffffff\n    /* \"#utility.yul\":5569:5578   */\n  dup3\n    /* \"#utility.yul\":5550:5647   */\n  tag_40\n  jump\t// in\ntag_115:\n    /* \"#utility.yul\":5668:5707   */\n  tag_116\n    /* \"#utility.yul\":5698:5706   */\n  dup7\n    /* \"#utility.yul\":5687:5696   */\n  dup4\n    /* \"#utility.yul\":5668:5707   */\n  tag_40\n  jump\t// in\ntag_116:\n    /* \"#utility.yul\":5656:5707   */\n  swap6\n  pop\n    /* \"#utility.yul\":5740:5744   */\n  dup1\n    /* \"#utility.yul\":5736:5745   */\n  not\n    /* \"#utility.yul\":5729:5734   */\n  dup5\n    /* \"#utility.yul\":5725:5746   */\n  and\n    /* \"#utility.yul\":5716:5746   */\n  swap4\n  pop\n    /* \"#utility.yul\":5789:5793   */\n  dup1\n    /* \"#utility.yul\":5779:5787   */\n  dup7\n    /* \"#utility.yul\":5775:5794   */\n  and\n    /* \"#utility.yul\":5768:5773   */\n  dup5\n    /* \"#utility.yul\":5765:5795   */\n  or\n    /* \"#utility.yul\":5755:5795   */\n  swap3\n  pop\n    /* \"#utility.yul\":5484:5801   */\n  pop\n  pop\n    /* \"#utility.yul\":5408:5801   */\n  swap4\n  swap3\n  pop\n  pop\n  pop\n  jump\t// out\n    /* \"#utility.yul\":5807:5884   */\ntag_42:\n    /* \"#utility.yul\":5844:5851   */\n  0x00\n    /* \"#utility.yul\":5873:5878   */\n  dup2\n    /* \"#utility.yul\":5862:5878   */\n  swap1\n  pop\n    /* \"#utility.yul\":5807:5884   */\n  swap2\n  swap1\n  pop\n  jump\t// out\n    /* \"#utility.yul\":5890:5950   */\ntag_43:\n    /* \"#utility.yul\":5918:5921   */\n  0x00\n    /* \"#utility.yul\":5939:5944   */\n  dup2\n    /* \"#utility.yul\":5932:5944   */\n  swap1\n  pop\n    /* \"#utility.yul\":5890:5950   */\n  swap2\n  swap1\n  pop\n  jump\t// out\n    /* \"#utility.yul\":5956:6098   */\ntag_44:\n    /* \"#utility.yul\":6006:6015   */\n  0x00\n    /* \"#utility.yul\":6039:6092   */\n  tag_120\n    /* \"#utility.yul\":6057:6091   */\n  tag_121\n    /* \"#utility.yul\":6066:6090   */\n  tag_122\n    /* \"#utility.yul\":6084:6089   */\n  dup5\n    /* \"#utility.yul\":6066:6090   */\n  tag_42\n  jump\t// in\ntag_122:\n    /* \"#utility.yul\":6057:6091   */\n  tag_43\n  jump\t// in\ntag_121:\n    /* \"#utility.yul\":6039:6092   */\n  tag_42\n  jump\t// in\ntag_120:\n    /* \"#utility.yul\":6026:6092   */\n  swap1\n  pop\n    /* \"#utility.yul\":5956:6098   */\n  swap2\n  swap1\n  pop\n  jump\t// out\n    /* \"#utility.yul\":6104:6179   */\ntag_45:\n    /* \"#utility.yul\":6147:6150   */\n  0x00\n    /* \"#utility.yul\":6168:6173   */\n  dup2\n    /* \"#utility.yul\":6161:6173   */\n  swap1\n  pop\n    /* \"#utility.yul\":6104:6179   */\n  swap2\n  swap1\n  pop\n  jump\t// out\n    /* \"#utility.yul\":6185:6454   */\ntag_46:\n    /* \"#utility.yul\":6295:6334   */\n  tag_125\n    /* \"#utility.yul\":6326:6333   */\n  dup4\n    /* \"#utility.yul\":6295:6334   */\n  tag_44\n  jump\t// in\ntag_125:\n    /* \"#utility.yul\":6356:6447   */\n  tag_126\n    /* \"#utility.yul\":6405:6446   */\n  tag_127\n    /* \"#utility.yul\":6429:6445   */\n  dup3\n    /* \"#utility.yul\":6405:6446   */\n  tag_45\n  jump\t// in\ntag_127:\n    /* \"#utility.yul\":6397:6403   */\n  dup5\n    /* \"#utility.yul\":6390:6394   */\n  dup5\n    /* \"#utility.yul\":6384:6395   */\n  sload\n    /* \"#utility.yul\":6356:6447   */\n  tag_41\n  jump\t// in\ntag_126:\n    /* \"#utility.yul\":6350:6354   */\n  dup3\n    /* \"#utility.yul\":6343:6448   */\n  sstore\n    /* \"#utility.yul\":6261:6454   */\n  pop\n    /* \"#utility.yul\":6185:6454   */\n  pop\n  pop\n  pop\n  jump\t// out\n    /* \"#utility.yul\":6460:6533   */\ntag_47:\n    /* \"#utility.yul\":6505:6508   */\n  0x00\n    /* \"#utility.yul\":6526:6527   */\n  0x00\n    /* \"#utility.yul\":6519:6527   */\n  swap1\n  pop\n    /* \"#utility.yul\":6460:6533   */\n  swap1\n  jump\t// out\n    /* \"#utility.yul\":6539:6728   */\ntag_48:\n    /* \"#utility.yul\":6616:6648   */\n  tag_130\n  tag_47\n  jump\t// in\ntag_130:\n    /* \"#utility.yul\":6657:6722   */\n  tag_131\n    /* \"#utility.yul\":6715:6721   */\n  dup2\n    /* \"#utility.yul\":6707:6713   */\n  dup5\n    /* \"#utility.yul\":6701:6705   */\n  dup5\n    /* \"#utility.yul\":6657:6722   */\n  tag_46\n  jump\t// in\ntag_131:\n    /* \"#utility.yul\":6592:6728   */\n  pop\n    /* \"#utility.yul\":6539:6728   */\n  pop\n  pop\n  jump\t// out\n    /* \"#utility.yul\":6734:6920   */\ntag_49:\n    /* \"#utility.yul\":6794:6914   */\ntag_133:\n    /* \"#utility.yul\":6811:6814   */\n  dup2\n    /* \"#utility.yul\":6804:6809   */\n  dup2\n    /* \"#utility.yul\":6801:6815   */\n  lt\n    /* \"#utility.yul\":6794:6914   */\n  iszero\n  tag_135\n  jumpi\n    /* \"#utility.yul\":6865:6904   */\n  tag_136\n    /* \"#utility.yul\":6902:6903   */\n  0x00\n    /* \"#utility.yul\":6895:6900   */\n  dup3\n    /* \"#utility.yul\":6865:6904   */\n  tag_48\n  jump\t// in\ntag_136:\n    /* \"#utility.yul\":6838:6839   */\n  0x01\n    /* \"#utility.yul\":6831:6836   */\n  dup2\n    /* \"#utility.yul\":6827:6840   */\n  add\n    /* \"#utility.yul\":6818:6840   */\n  swap1\n  pop\n    /* \"#utility.yul\":6794:6914   */\n  jump(tag_133)\ntag_135:\n    /* \"#utility.yul\":6734:6920   */\n  pop\n  pop\n  jump\t// out\n    /* \"#utility.yul\":6926:7469   */\ntag_50:\n    /* \"#utility.yul\":7027:7029   */\n  0x1f\n    /* \"#utility.yul\":7022:7025   */\n  dup3\n    /* \"#utility.yul\":7019:7030   */\n  gt\n    /* \"#utility.yul\":7016:7462   */\n  iszero\n  tag_138\n  jumpi\n    /* \"#utility.yul\":7061:7099   */\n  tag_139\n    /* \"#utility.yul\":7093:7098   */\n  dup2\n    /* \"#utility.yul\":7061:7099   */\n  tag_38\n  jump\t// in\ntag_139:\n    /* \"#utility.yul\":7145:7174   */\n  tag_140\n    /* \"#utility.yul\":7163:7173   */\n  dup5\n    /* \"#utility.yul\":7145:7174   */\n  tag_39\n  jump\t// in\ntag_140:\n    /* \"#utility.yul\":7135:7143   */\n  dup2\n    /* \"#utility.yul\":7131:7175   */\n  add\n    /* \"#utility.yul\":7328:7330   */\n  0x20\n    /* \"#utility.yul\":7316:7326   */\n  dup6\n    /* \"#utility.yul\":7313:7331   */\n  lt\n    /* \"#utility.yul\":7310:7359   */\n  iszero\n  tag_141\n  jumpi\n    /* \"#utility.yul\":7349:7357   */\n  dup2\n    /* \"#utility.yul\":7334:7357   */\n  swap1\n  pop\n    /* \"#utility.yul\":7310:7359   */\ntag_141:\n    /* \"#utility.yul\":7372:7452   */\n  tag_142\n    /* \"#utility.yul\":7428:7450   */\n  tag_143\n    /* \"#utility.yul\":7446:7449   */\n  dup6\n    /* \"#utility.yul\":7428:7450   */\n  tag_39\n  jump\t// in\ntag_143:\n    /* \"#utility.yul\":7418:7426   */\n  dup4\n    /* \"#utility.yul\":7414:7451   */\n  add\n    /* \"#utility.yul\":7401:7412   */\n  dup3\n    /* \"#utility.yul\":7372:7452   */\n  tag_49\n  jump\t// in\ntag_142:\n    /* \"#utility.yul\":7031:7462   */\n  pop\n  pop\n    /* \"#utility.yul\":7016:7462   */\ntag_138:\n    /* \"#utility.yul\":6926:7469   */\n  pop\n  pop\n  pop\n  jump\t// out\n    /* \"#utility.yul\":7475:7592   */\ntag_51:\n    /* \"#utility.yul\":7529:7537   */\n  0x00\n    /* \"#utility.yul\":7579:7584   */\n  dup3\n    /* \"#utility.yul\":7573:7577   */\n  dup3\n    /* \"#utility.yul\":7569:7585   */\n  shr\n    /* \"#utility.yul\":7548:7585   */\n  swap1\n  pop\n    /* \"#utility.yul\":7475:7592   */\n  swap3\n  swap2\n  pop\n  pop\n  jump\t// out\n    /* \"#utility.yul\":7598:7767   */\ntag_52:\n    /* \"#utility.yul\":7642:7648   */\n  0x00\n    /* \"#utility.yul\":7675:7726   */\n  tag_146\n    /* \"#utility.yul\":7723:7724   */\n  0x00\n    /* \"#utility.yul\":7719:7725   */\n  not\n    /* \"#utility.yul\":7711:7716   */\n  dup5\n    /* \"#utility.yul\":7708:7709   */\n  0x08\n    /* \"#utility.yul\":7704:7717   */\n  mul\n    /* \"#utility.yul\":7675:7726   */\n  tag_51\n  jump\t// in\ntag_146:\n    /* \"#utility.yul\":7671:7727   */\n  not\n    /* \"#utility.yul\":7756:7760   */\n  dup1\n    /* \"#utility.yul\":7750:7754   */\n  dup4\n    /* \"#utility.yul\":7746:7761   */\n  and\n    /* \"#utility.yul\":7736:7761   */\n  swap2\n  pop\n    /* \"#utility.yul\":7649:7767   */\n  pop\n    /* \"#utility.yul\":7598:7767   */\n  swap3\n  swap2\n  pop\n  pop\n  jump\t// out\n    /* \"#utility.yul\":7772:8067   */\ntag_53:\n    /* \"#utility.yul\":7848:7852   */\n  0x00\n    /* \"#utility.yul\":7994:8023   */\n  tag_148\n    /* \"#utility.yul\":8019:8022   */\n  dup4\n    /* \"#utility.yul\":8013:8017   */\n  dup4\n    /* \"#utility.yul\":7994:8023   */\n  tag_52\n  jump\t// in\ntag_148:\n    /* \"#utility.yul\":7986:8023   */\n  swap2\n  pop\n    /* \"#utility.yul\":8056:8059   */\n  dup3\n    /* \"#utility.yul\":8053:8054   */\n  0x02\n    /* \"#utility.yul\":8049:8060   */\n  mul\n    /* \"#utility.yul\":8043:8047   */\n  dup3\n    /* \"#utility.yul\":8040:8061   */\n  or\n    /* \"#utility.yul\":8032:8061   */\n  swap1\n  pop\n    /* \"#utility.yul\":7772:8067   */\n  swap3\n  swap2\n  pop\n  pop\n  jump\t// out\n    /* \"#utility.yul\":8072:9467   */\ntag_14:\n    /* \"#utility.yul\":8189:8226   */\n  tag_150\n    /* \"#utility.yul\":8222:8225   */\n  dup3\n    /* \"#utility.yul\":8189:8226   */\n  tag_35\n  jump\t// in\ntag_150:\n    /* \"#utility.yul\":8291:8309   */\n  0xffffffffffffffff\n    /* \"#utility.yul\":8283:8289   */\n  dup2\n    /* \"#utility.yul\":8280:8310   */\n  gt\n    /* \"#utility.yul\":8277:8333   */\n  iszero\n  tag_151\n  jumpi\n    /* \"#utility.yul\":8313:8331   */\n  tag_152\n  tag_27\n  jump\t// in\ntag_152:\n    /* \"#utility.yul\":8277:8333   */\ntag_151:\n    /* \"#utility.yul\":8357:8395   */\n  tag_153\n    /* \"#utility.yul\":8389:8393   */\n  dup3\n    /* \"#utility.yul\":8383:8394   */\n  sload\n    /* \"#utility.yul\":8357:8395   */\n  tag_37\n  jump\t// in\ntag_153:\n    /* \"#utility.yul\":8442:8509   */\n  tag_154\n    /* \"#utility.yul\":8502:8508   */\n  dup3\n    /* \"#utility.yul\":8494:8500   */\n  dup3\n    /* \"#utility.yul\":8488:8492   */\n  dup6\n    /* \"#utility.yul\":8442:8509   */\n  tag_50\n  jump\t// in\ntag_154:\n    /* \"#utility.yul\":8536:8537   */\n  0x00\n    /* \"#utility.yul\":8560:8564   */\n  0x20\n    /* \"#utility.yul\":8547:8564   */\n  swap1\n  pop\n    /* \"#utility.yul\":8592:8594   */\n  0x1f\n    /* \"#utility.yul\":8584:8590   */\n  dup4\n    /* \"#utility.yul\":8581:8595   */\n  gt\n    /* \"#utility.yul\":8609:8610   */\n  0x01\n    /* \"#utility.yul\":8604:9222   */\n  dup2\n  eq\n  tag_156\n  jumpi\n    /* \"#utility.yul\":9266:9267   */\n  0x00\n    /* \"#utility.yul\":9283:9289   */\n  dup5\n    /* \"#utility.yul\":9280:9357   */\n  iszero\n  tag_157\n  jumpi\n    /* \"#utility.yul\":9332:9341   */\n  dup3\n    /* \"#utility.yul\":9327:9330   */\n  dup8\n    /* \"#utility.yul\":9323:9342   */\n  add\n    /* \"#utility.yul\":9317:9343   */\n  mload\n    /* \"#utility.yul\":9308:9343   */\n  swap1\n  pop\n    /* \"#utility.yul\":9280:9357   */\ntag_157:\n    /* \"#utility.yul\":9383:9450   */\n  tag_158\n    /* \"#utility.yul\":9443:9449   */\n  dup6\n    /* \"#utility.yul\":9436:9441   */\n  dup3\n    /* \"#utility.yul\":9383:9450   */\n  tag_53\n  jump\t// in\ntag_158:\n    /* \"#utility.yul\":9377:9381   */\n  dup7\n    /* \"#utility.yul\":9370:9451   */\n  sstore\n    /* \"#utility.yul\":9239:9461   */\n  pop\n    /* \"#utility.yul\":8574:9461   */\n  jump(tag_155)\n    /* \"#utility.yul\":8604:9222   */\ntag_156:\n    /* \"#utility.yul\":8656:8660   */\n  0x1f\n    /* \"#utility.yul\":8652:8661   */\n  not\n    /* \"#utility.yul\":8644:8650   */\n  dup5\n    /* \"#utility.yul\":8640:8662   */\n  and\n    /* \"#utility.yul\":8690:8727   */\n  tag_159\n    /* \"#utility.yul\":8722:8726   */\n  dup7\n    /* \"#utility.yul\":8690:8727   */\n  tag_38\n  jump\t// in\ntag_159:\n    /* \"#utility.yul\":8749:8750   */\n  0x00\n    /* \"#utility.yul\":8763:8971   */\ntag_160:\n    /* \"#utility.yul\":8777:8784   */\n  dup3\n    /* \"#utility.yul\":8774:8775   */\n  dup2\n    /* \"#utility.yul\":8771:8785   */\n  lt\n    /* \"#utility.yul\":8763:8971   */\n  iszero\n  tag_162\n  jumpi\n    /* \"#utility.yul\":8856:8865   */\n  dup5\n    /* \"#utility.yul\":8851:8854   */\n  dup10\n    /* \"#utility.yul\":8847:8866   */\n  add\n    /* \"#utility.yul\":8841:8867   */\n  mload\n    /* \"#utility.yul\":8833:8839   */\n  dup3\n    /* \"#utility.yul\":8826:8868   */\n  sstore\n    /* \"#utility.yul\":8907:8908   */\n  0x01\n    /* \"#utility.yul\":8899:8905   */\n  dup3\n    /* \"#utility.yul\":8895:8909   */\n  add\n    /* \"#utility.yul\":8885:8909   */\n  swap2\n  pop\n    /* \"#utility.yul\":8954:8956   */\n  0x20\n    /* \"#utility.yul\":8943:8952   */\n  dup6\n    /* \"#utility.yul\":8939:8957   */\n  add\n    /* \"#utility.yul\":8926:8957   */\n  swap5\n  pop\n    /* \"#utility.yul\":8800:8804   */\n  0x20\n    /* \"#utility.yul\":8797:8798   */\n  dup2\n    /* \"#utility.yul\":8793:8805   */\n  add\n    /* \"#utility.yul\":8788:8805   */\n  swap1\n  pop\n    /* \"#utility.yul\":8763:8971   */\n  jump(tag_160)\ntag_162:\n    /* \"#utility.yul\":8999:9005   */\n  dup7\n    /* \"#utility.yul\":8990:8997   */\n  dup4\n    /* \"#utility.yul\":8987:9006   */\n  lt\n    /* \"#utility.yul\":8984:9163   */\n  iszero\n  tag_163\n  jumpi\n    /* \"#utility.yul\":9057:9066   */\n  dup5\n    /* \"#utility.yul\":9052:9055   */\n  dup10\n    /* \"#utility.yul\":9048:9067   */\n  add\n    /* \"#utility.yul\":9042:9068   */\n  mload\n    /* \"#utility.yul\":9100:9148   */\n  tag_164\n    /* \"#utility.yul\":9142:9146   */\n  0x1f\n    /* \"#utility.yul\":9134:9140   */\n  dup10\n    /* \"#utility.yul\":9130:9147   */\n  and\n    /* \"#utility.yul\":9119:9128   */\n  dup3\n    /* \"#utility.yul\":9100:9148   */\n  tag_52\n  jump\t// in\ntag_164:\n    /* \"#utility.yul\":9092:9098   */\n  dup4\n    /* \"#utility.yul\":9085:9149   */\n  sstore\n    /* \"#utility.yul\":9007:9163   */\n  pop\n    /* \"#utility.yul\":8984:9163   */\ntag_163:\n    /* \"#utility.yul\":9209:9210   */\n  0x01\n    /* \"#utility.yul\":9205:9206   */\n  0x02\n    /* \"#utility.yul\":9197:9203   */\n  dup9\n    /* \"#utility.yul\":9193:9207   */\n  mul\n    /* \"#utility.yul\":9189:9211   */\n  add\n    /* \"#utility.yul\":9183:9187   */\n  dup9\n    /* \"#utility.yul\":9176:9212   */\n  sstore\n    /* \"#utility.yul\":8611:9222   */\n  pop\n  pop\n  pop\n    /* \"#utility.yul\":8574:9461   */\ntag_155:\n  pop\n    /* \"#utility.yul\":8164:9467   */\n  pop\n  pop\n  pop\n    /* \"#utility.yul\":8072:9467   */\n  pop\n  pop\n  jump\t// out\n    /* \"Evm/core/base/vault.sol\":561:5788  contract QiaraMultiAssetVault is Ownable {... */\ntag_15:\n  mload(0x80)\n  mload(0xa0)\n  codecopy(0x00, dataOffset(sub_0), dataSize(sub_0))\n  0x00\n  assignImmutable(\"0xa55f93089260f97cd16ec7a717e7ade24f99065bc4509014bd14fefe4d832ab6\")\n  0x00\n  assignImmutable(\"0x1067a32fc2bf4122310a8f066f11577e006583df65ce4c5172289c9680be102c\")\n  return(0x00, dataSize(sub_0))\nstop\n\nsub_0: assembly {\n        /* \"Evm/core/base/vault.sol\":561:5788  contract QiaraMultiAssetVault is Ownable {... */\n      mstore(0x40, 0x80)\n      callvalue\n      dup1\n      iszero\n      tag_1\n      jumpi\n      revert(0x00, 0x00)\n    tag_1:\n      pop\n      jumpi(tag_2, lt(calldatasize, 0x04))\n      shr(0xe0, calldataload(0x00))\n      dup1\n      0x8da5cb5b\n      gt\n      tag_15\n      jumpi\n      dup1\n      0x8da5cb5b\n      eq\n      tag_9\n      jumpi\n      dup1\n      0x8e27d719\n      eq\n      tag_10\n      jumpi\n      dup1\n      0xb5f8558c\n      eq\n      tag_11\n      jumpi\n      dup1\n      0xbf4d766e\n      eq\n      tag_12\n      jumpi\n      dup1\n      0xf139721c\n      eq\n      tag_13\n      jumpi\n      dup1\n      0xf2fde38b\n      eq\n      tag_14\n      jumpi\n      jump(tag_2)\n    tag_15:\n      dup1\n      0xdad7d4\n      eq\n      tag_3\n      jumpi\n      dup1\n      0x05d09fb1\n      eq\n      tag_4\n      jumpi\n      dup1\n      0x240028e8\n      eq\n      tag_5\n      jumpi\n      dup1\n      0x58104dbc\n      eq\n      tag_6\n      jumpi\n      dup1\n      0x715018a6\n      eq\n      tag_7\n      jumpi\n      dup1\n      0x7a9eceb4\n      eq\n      tag_8\n      jumpi\n    tag_2:\n      revert(0x00, 0x00)\n        /* \"Evm/core/base/vault.sol\":734:760  string public providerName */\n    tag_3:\n      tag_16\n      tag_17\n      jump\t// in\n    tag_16:\n      mload(0x40)\n      tag_18\n      swap2\n      swap1\n      tag_19\n      jump\t// in\n    tag_18:\n      mload(0x40)\n      dup1\n      swap2\n      sub\n      swap1\n      return\n        /* \"Evm/core/base/vault.sol\":1421:1947  function resolveAsset(string memory assetName) public view returns (address) {... */\n    tag_4:\n      tag_20\n      0x04\n      dup1\n      calldatasize\n      sub\n      dup2\n      add\n      swap1\n      tag_21\n      swap2\n      swap1\n      tag_22\n      jump\t// in\n    tag_21:\n      tag_23\n      jump\t// in\n    tag_20:\n      mload(0x40)\n      tag_24\n      swap2\n      swap1\n      tag_25\n      jump\t// in\n    tag_24:\n      mload(0x40)\n      dup1\n      swap2\n      sub\n      swap1\n      return\n        /* \"Evm/core/base/vault.sol\":770:818  mapping(address => bool) public isSupportedToken */\n    tag_5:\n      tag_26\n      0x04\n      dup1\n      calldatasize\n      sub\n      dup2\n      add\n      swap1\n      tag_27\n      swap2\n      swap1\n      tag_28\n      jump\t// in\n    tag_27:\n      tag_29\n      jump\t// in\n    tag_26:\n      mload(0x40)\n      tag_30\n      swap2\n      swap1\n      tag_31\n      jump\t// in\n    tag_30:\n      mload(0x40)\n      dup1\n      swap2\n      sub\n      swap1\n      return\n        /* \"Evm/core/base/vault.sol\":2353:3464  function m_withdraw(address user, string calldata shared, string calldata assetName, uint256 amount) external { ... */\n    tag_6:\n      tag_32\n      0x04\n      dup1\n      calldatasize\n      sub\n      dup2\n      add\n      swap1\n      tag_33\n      swap2\n      swap1\n      tag_34\n      jump\t// in\n    tag_33:\n      tag_35\n      jump\t// in\n    tag_32:\n      stop\n        /* \"@openzeppelin/contracts/access/Ownable.sol\":2293:2394  function renounceOwnership() public virtual onlyOwner {... */\n    tag_7:\n      tag_36\n      tag_37\n      jump\t// in\n    tag_36:\n      stop\n        /* \"Evm/core/base/vault.sol\":3622:4781  function directWithdraw(address user, string calldata assetName, uint256 amount, uint256 nullifier) external onlyOwner { // ONLY the Delegator contract can call this... */\n    tag_8:\n      tag_38\n      0x04\n      dup1\n      calldatasize\n      sub\n      dup2\n      add\n      swap1\n      tag_39\n      swap2\n      swap1\n      tag_40\n      jump\t// in\n    tag_39:\n      tag_41\n      jump\t// in\n    tag_38:\n      stop\n        /* \"@openzeppelin/contracts/access/Ownable.sol\":1638:1723  function owner() public view virtual returns (address) {... */\n    tag_9:\n      tag_42\n      tag_43\n      jump\t// in\n    tag_42:\n      mload(0x40)\n      tag_44\n      swap2\n      swap1\n      tag_25\n      jump\t// in\n    tag_44:\n      mload(0x40)\n      dup1\n      swap2\n      sub\n      swap1\n      return\n        /* \"Evm/core/base/vault.sol\":4789:5785  function deposit(string calldata assetName, uint256 amount) external {... */\n    tag_10:\n      tag_45\n      0x04\n      dup1\n      calldatasize\n      sub\n      dup2\n      add\n      swap1\n      tag_46\n      swap2\n      swap1\n      tag_47\n      jump\t// in\n    tag_46:\n      tag_48\n      jump\t// in\n    tag_45:\n      stop\n        /* \"Evm/core/base/vault.sol\":696:727  IEvents public immutable events */\n    tag_11:\n      tag_49\n      tag_50\n      jump\t// in\n    tag_49:\n      mload(0x40)\n      tag_51\n      swap2\n      swap1\n      tag_52\n      jump\t// in\n    tag_51:\n      mload(0x40)\n      dup1\n      swap2\n      sub\n      swap1\n      return\n        /* \"Evm/core/base/vault.sol\":644:689  IVariables public immutable variablesRegistry */\n    tag_12:\n      tag_53\n      tag_54\n      jump\t// in\n    tag_53:\n      mload(0x40)\n      tag_55\n      swap2\n      swap1\n      tag_56\n      jump\t// in\n    tag_55:\n      mload(0x40)\n      dup1\n      swap2\n      sub\n      swap1\n      return\n        /* \"Evm/core/base/vault.sol\":1955:2172  function listNewToken(string calldata assetName) external {... */\n    tag_13:\n      tag_57\n      0x04\n      dup1\n      calldatasize\n      sub\n      dup2\n      add\n      swap1\n      tag_58\n      swap2\n      swap1\n      tag_59\n      jump\t// in\n    tag_58:\n      tag_60\n      jump\t// in\n    tag_57:\n      stop\n        /* \"@openzeppelin/contracts/access/Ownable.sol\":2543:2758  function transferOwnership(address newOwner) public virtual onlyOwner {... */\n    tag_14:\n      tag_61\n      0x04\n      dup1\n      calldatasize\n      sub\n      dup2\n      add\n      swap1\n      tag_62\n      swap2\n      swap1\n      tag_28\n      jump\t// in\n    tag_62:\n      tag_63\n      jump\t// in\n    tag_61:\n      stop\n        /* \"Evm/core/base/vault.sol\":734:760  string public providerName */\n    tag_17:\n      0x01\n      dup1\n      sload\n      tag_64\n      swap1\n      tag_65\n      jump\t// in\n    tag_64:\n      dup1\n      0x1f\n      add\n      0x20\n      dup1\n      swap2\n      div\n      mul\n      0x20\n      add\n      mload(0x40)\n      swap1\n      dup2\n      add\n      0x40\n      mstore\n      dup1\n      swap3\n      swap2\n      swap1\n      dup2\n      dup2\n      mstore\n      0x20\n      add\n      dup3\n      dup1\n      sload\n      tag_66\n      swap1\n      tag_65\n      jump\t// in\n    tag_66:\n      dup1\n      iszero\n      tag_67\n      jumpi\n      dup1\n      0x1f\n      lt\n      tag_68\n      jumpi\n      0x0100\n      dup1\n      dup4\n      sload\n      div\n      mul\n      dup4\n      mstore\n      swap2\n      0x20\n      add\n      swap2\n      jump(tag_67)\n    tag_68:\n      dup3\n      add\n      swap2\n      swap1\n      0x00\n      mstore\n      keccak256(0x00, 0x20)\n      swap1\n    tag_69:\n      dup2\n      sload\n      dup2\n      mstore\n      swap1\n      0x01\n      add\n      swap1\n      0x20\n      add\n      dup1\n      dup4\n      gt\n      tag_69\n      jumpi\n      dup3\n      swap1\n      sub\n      0x1f\n      and\n      dup3\n      add\n      swap2\n    tag_67:\n      pop\n      pop\n      pop\n      pop\n      pop\n      dup2\n      jump\t// out\n        /* \"Evm/core/base/vault.sol\":1421:1947  function resolveAsset(string memory assetName) public view returns (address) {... */\n    tag_23:\n        /* \"Evm/core/base/vault.sol\":1489:1496  address */\n      0x00\n        /* \"Evm/core/base/vault.sol\":1509:1531  string memory tokenKey */\n      0x00\n        /* \"Evm/core/base/vault.sol\":1558:1567  assetName */\n      dup3\n        /* \"Evm/core/base/vault.sol\":1574:1586  providerName */\n      0x01\n        /* \"Evm/core/base/vault.sol\":1541:1587  abi.encodePacked(assetName, \"_\", providerName) */\n      add(0x20, mload(0x40))\n      tag_71\n      swap3\n      swap2\n      swap1\n      tag_72\n      jump\t// in\n    tag_71:\n      mload(0x40)\n      0x20\n      dup2\n      dup4\n      sub\n      sub\n      dup2\n      mstore\n      swap1\n      0x40\n      mstore\n        /* \"Evm/core/base/vault.sol\":1509:1588  string memory tokenKey = string(abi.encodePacked(assetName, \"_\", providerName)) */\n      swap1\n      pop\n        /* \"Evm/core/base/vault.sol\":1599:1622  bytes memory tokenBytes */\n      0x00\n        /* \"Evm/core/base/vault.sol\":1625:1642  variablesRegistry */\n      immutable(\"0x1067a32fc2bf4122310a8f066f11577e006583df65ce4c5172289c9680be102c\")\n        /* \"Evm/core/base/vault.sol\":1625:1660  variablesRegistry.getActiveVariable */\n      0xffffffffffffffffffffffffffffffffffffffff\n      and\n      0x16f1adc1\n        /* \"Evm/core/base/vault.sol\":1681:1689  tokenKey */\n      dup4\n        /* \"Evm/core/base/vault.sol\":1625:1690  variablesRegistry.getActiveVariable(\"QiaraMonadAssets\", tokenKey) */\n      mload(0x40)\n      dup3\n      0xffffffff\n      and\n      0xe0\n      shl\n      dup2\n      mstore\n      0x04\n      add\n      tag_73\n      swap2\n      swap1\n      tag_74\n      jump\t// in\n    tag_73:\n      0x00\n      mload(0x40)\n      dup1\n      dup4\n      sub\n      dup2\n      dup7\n      gas\n      staticcall\n      iszero\n      dup1\n      iszero\n      tag_76\n      jumpi\n      returndatacopy(0x00, 0x00, returndatasize)\n      revert(0x00, returndatasize)\n    tag_76:\n      pop\n      pop\n      pop\n      pop\n      mload(0x40)\n      returndatasize\n      0x00\n      dup3\n      returndatacopy\n      returndatasize\n      not(0x1f)\n      0x1f\n      dup3\n      add\n      and\n      dup3\n      add\n      dup1\n      0x40\n      mstore\n      pop\n      dup2\n      add\n      swap1\n      tag_77\n      swap2\n      swap1\n      tag_78\n      jump\t// in\n    tag_77:\n        /* \"Evm/core/base/vault.sol\":1599:1690  bytes memory tokenBytes = variablesRegistry.getActiveVariable(\"QiaraMonadAssets\", tokenKey) */\n      swap1\n      pop\n        /* \"Evm/core/base/vault.sol\":1740:1742  20 */\n      0x14\n        /* \"Evm/core/base/vault.sol\":1719:1729  tokenBytes */\n      dup2\n        /* \"Evm/core/base/vault.sol\":1719:1736  tokenBytes.length */\n      mload\n        /* \"Evm/core/base/vault.sol\":1719:1742  tokenBytes.length >= 20 */\n      lt\n      iszero\n        /* \"Evm/core/base/vault.sol\":1711:1781  require(tokenBytes.length >= 20, \"Vault: Asset not found in registry\") */\n      tag_79\n      jumpi\n      mload(0x40)\n      0x08c379a000000000000000000000000000000000000000000000000000000000\n      dup2\n      mstore\n      0x04\n      add\n      tag_80\n      swap1\n      tag_81\n      jump\t// in\n    tag_80:\n      mload(0x40)\n      dup1\n      swap2\n      sub\n      swap1\n      revert\n    tag_79:\n        /* \"Evm/core/base/vault.sol\":1802:1822  address assetAddress */\n      0x00\n        /* \"Evm/core/base/vault.sol\":1895:1897  20 */\n      0x14\n        /* \"Evm/core/base/vault.sol\":1883:1893  tokenBytes */\n      dup3\n        /* \"Evm/core/base/vault.sol\":1879:1898  add(tokenBytes, 20) */\n      add\n        /* \"Evm/core/base/vault.sol\":1873:1899  mload(add(tokenBytes, 20)) */\n      mload\n        /* \"Evm/core/base/vault.sol\":1857:1899  assetAddress := mload(add(tokenBytes, 20)) */\n      swap1\n      pop\n        /* \"Evm/core/base/vault.sol\":1927:1939  assetAddress */\n      dup1\n        /* \"Evm/core/base/vault.sol\":1920:1939  return assetAddress */\n      swap4\n      pop\n      pop\n      pop\n      pop\n        /* \"Evm/core/base/vault.sol\":1421:1947  function resolveAsset(string memory assetName) public view returns (address) {... */\n      swap2\n      swap1\n      pop\n      jump\t// out\n        /* \"Evm/core/base/vault.sol\":770:818  mapping(address => bool) public isSupportedToken */\n    tag_29:\n      mstore(0x20, 0x02)\n      dup1\n      0x00\n      mstore\n      keccak256(0x00, 0x40)\n      0x00\n      swap2\n      pop\n      sload\n      swap1\n      0x0100\n      exp\n      swap1\n      div\n      0xff\n      and\n      dup2\n      jump\t// out\n        /* \"Evm/core/base/vault.sol\":2353:3464  function m_withdraw(address user, string calldata shared, string calldata assetName, uint256 amount) external { ... */\n    tag_35:\n        /* \"Evm/core/base/vault.sol\":2571:2584  address token */\n      0x00\n        /* \"Evm/core/base/vault.sol\":2587:2610  resolveAsset(assetName) */\n      tag_83\n        /* \"Evm/core/base/vault.sol\":2600:2609  assetName */\n      dup5\n      dup5\n        /* \"Evm/core/base/vault.sol\":2587:2610  resolveAsset(assetName) */\n      dup1\n      dup1\n      0x1f\n      add\n      0x20\n      dup1\n      swap2\n      div\n      mul\n      0x20\n      add\n      mload(0x40)\n      swap1\n      dup2\n      add\n      0x40\n      mstore\n      dup1\n      swap4\n      swap3\n      swap2\n      swap1\n      dup2\n      dup2\n      mstore\n      0x20\n      add\n      dup4\n      dup4\n      dup1\n      dup3\n      dup5\n      calldatacopy\n      0x00\n      dup2\n      dup5\n      add\n      mstore\n      not(0x1f)\n      0x1f\n      dup3\n      add\n      and\n      swap1\n      pop\n      dup1\n      dup4\n      add\n      swap3\n      pop\n      pop\n      pop\n      pop\n      pop\n      pop\n      pop\n        /* \"Evm/core/base/vault.sol\":2587:2599  resolveAsset */\n      tag_23\n        /* \"Evm/core/base/vault.sol\":2587:2610  resolveAsset(assetName) */\n      jump\t// in\n    tag_83:\n        /* \"Evm/core/base/vault.sol\":2571:2610  address token = resolveAsset(assetName) */\n      swap1\n      pop\n        /* \"Evm/core/base/vault.sol\":2625:2641  isSupportedToken */\n      0x02\n        /* \"Evm/core/base/vault.sol\":2625:2648  isSupportedToken[token] */\n      0x00\n        /* \"Evm/core/base/vault.sol\":2642:2647  token */\n      dup3\n        /* \"Evm/core/base/vault.sol\":2625:2648  isSupportedToken[token] */\n      0xffffffffffffffffffffffffffffffffffffffff\n      and\n      0xffffffffffffffffffffffffffffffffffffffff\n      and\n      dup2\n      mstore\n      0x20\n      add\n      swap1\n      dup2\n      mstore\n      0x20\n      add\n      0x00\n      keccak256\n      0x00\n      swap1\n      sload\n      swap1\n      0x0100\n      exp\n      swap1\n      div\n      0xff\n      and\n        /* \"Evm/core/base/vault.sol\":2617:2679  require(isSupportedToken[token], \"Vault: Token not supported\") */\n      tag_84\n      jumpi\n      mload(0x40)\n      0x08c379a000000000000000000000000000000000000000000000000000000000\n      dup2\n      mstore\n      0x04\n      add\n      tag_85\n      swap1\n      tag_86\n      jump\t// in\n    tag_85:\n      mload(0x40)\n      dup1\n      swap2\n      sub\n      swap1\n      revert\n    tag_84:\n        /* \"Evm/core/base/vault.sol\":2733:2764  IEvents.Data[] memory eventData */\n      0x00\n        /* \"Evm/core/base/vault.sol\":2786:2787  6 */\n      0x06\n        /* \"Evm/core/base/vault.sol\":2767:2788  new IEvents.Data[](6) */\n      0xffffffffffffffff\n      dup2\n      gt\n      iszero\n      tag_87\n      jumpi\n      tag_88\n      tag_89\n      jump\t// in\n    tag_88:\n    tag_87:\n      mload(0x40)\n      swap1\n      dup1\n      dup3\n      mstore\n      dup1\n      0x20\n      mul\n      0x20\n      add\n      dup3\n      add\n      0x40\n      mstore\n      dup1\n      iszero\n      tag_90\n      jumpi\n      dup2\n      0x20\n      add\n    tag_91:\n      tag_92\n      tag_93\n      jump\t// in\n    tag_92:\n      dup2\n      mstore\n      0x20\n      add\n      swap1\n      0x01\n      swap1\n      sub\n      swap1\n      dup2\n      tag_91\n      jumpi\n      swap1\n      pop\n    tag_90:\n      pop\n        /* \"Evm/core/base/vault.sol\":2733:2788  IEvents.Data[] memory eventData = new IEvents.Data[](6) */\n      swap1\n      pop\n        /* \"Evm/core/base/vault.sol\":2816:2865  IEvents.Data(\"user\", \"address\", abi.encode(user)) */\n      mload(0x40)\n      dup1\n      0x60\n      add\n      0x40\n      mstore\n      dup1\n      mload(0x40)\n      dup1\n      0x40\n      add\n      0x40\n      mstore\n      dup1\n      0x04\n      dup2\n      mstore\n      0x20\n      add\n      0x7573657200000000000000000000000000000000000000000000000000000000\n      dup2\n      mstore\n      pop\n      dup2\n      mstore\n      0x20\n      add\n      mload(0x40)\n      dup1\n      0x40\n      add\n      0x40\n      mstore\n      dup1\n      0x07\n      dup2\n      mstore\n      0x20\n      add\n      0x6164647265737300000000000000000000000000000000000000000000000000\n      dup2\n      mstore\n      pop\n      dup2\n      mstore\n      0x20\n      add\n        /* \"Evm/core/base/vault.sol\":2859:2863  user */\n      dup10\n        /* \"Evm/core/base/vault.sol\":2848:2864  abi.encode(user) */\n      add(0x20, mload(0x40))\n      tag_94\n      swap2\n      swap1\n      tag_25\n      jump\t// in\n    tag_94:\n      mload(0x40)\n      0x20\n      dup2\n      dup4\n      sub\n      sub\n      dup2\n      mstore\n      swap1\n      0x40\n      mstore\n        /* \"Evm/core/base/vault.sol\":2816:2865  IEvents.Data(\"user\", \"address\", abi.encode(user)) */\n      dup2\n      mstore\n      pop\n        /* \"Evm/core/base/vault.sol\":2801:2810  eventData */\n      dup2\n        /* \"Evm/core/base/vault.sol\":2811:2812  0 */\n      0x00\n        /* \"Evm/core/base/vault.sol\":2801:2813  eventData[0] */\n      dup2\n      mload\n      dup2\n      lt\n      tag_95\n      jumpi\n      tag_96\n      tag_97\n      jump\t// in\n    tag_96:\n    tag_95:\n      0x20\n      mul\n      0x20\n      add\n      add\n        /* \"Evm/core/base/vault.sol\":2801:2865  eventData[0] = IEvents.Data(\"user\", \"address\", abi.encode(user)) */\n      dup2\n      swap1\n      mstore\n      pop\n        /* \"Evm/core/base/vault.sol\":2887:2940  IEvents.Data(\"shared\", \"address\", abi.encode(shared)) */\n      mload(0x40)\n      dup1\n      0x60\n      add\n      0x40\n      mstore\n      dup1\n      mload(0x40)\n      dup1\n      0x40\n      add\n      0x40\n      mstore\n      dup1\n      0x06\n      dup2\n      mstore\n      0x20\n      add\n      0x7368617265640000000000000000000000000000000000000000000000000000\n      dup2\n      mstore\n      pop\n      dup2\n      mstore\n      0x20\n      add\n      mload(0x40)\n      dup1\n      0x40\n      add\n      0x40\n      mstore\n      dup1\n      0x07\n      dup2\n      mstore\n      0x20\n      add\n      0x6164647265737300000000000000000000000000000000000000000000000000\n      dup2\n      mstore\n      pop\n      dup2\n      mstore\n      0x20\n      add\n        /* \"Evm/core/base/vault.sol\":2932:2938  shared */\n      dup9\n      dup9\n        /* \"Evm/core/base/vault.sol\":2921:2939  abi.encode(shared) */\n      add(0x20, mload(0x40))\n      tag_98\n      swap3\n      swap2\n      swap1\n      tag_99\n      jump\t// in\n    tag_98:\n      mload(0x40)\n      0x20\n      dup2\n      dup4\n      sub\n      sub\n      dup2\n      mstore\n      swap1\n      0x40\n      mstore\n        /* \"Evm/core/base/vault.sol\":2887:2940  IEvents.Data(\"shared\", \"address\", abi.encode(shared)) */\n      dup2\n      mstore\n      pop\n        /* \"Evm/core/base/vault.sol\":2872:2881  eventData */\n      dup2\n        /* \"Evm/core/base/vault.sol\":2882:2883  1 */\n      0x01\n        /* \"Evm/core/base/vault.sol\":2872:2884  eventData[1] */\n      dup2\n      mload\n      dup2\n      lt\n      tag_100\n      jumpi\n      tag_101\n      tag_97\n      jump\t// in\n    tag_101:\n    tag_100:\n      0x20\n      mul\n      0x20\n      add\n      add\n        /* \"Evm/core/base/vault.sol\":2872:2940  eventData[1] = IEvents.Data(\"shared\", \"address\", abi.encode(shared)) */\n      dup2\n      swap1\n      mstore\n      pop\n        /* \"Evm/core/base/vault.sol\":2962:3015  IEvents.Data(\"amount\", \"uint256\", abi.encode(amount)) */\n      mload(0x40)\n      dup1\n      0x60\n      add\n      0x40\n      mstore\n      dup1\n      mload(0x40)\n      dup1\n      0x40\n      add\n      0x40\n      mstore\n      dup1\n      0x06\n      dup2\n      mstore\n      0x20\n      add\n      0x616d6f756e740000000000000000000000000000000000000000000000000000\n      dup2\n      mstore\n      pop\n      dup2\n      mstore\n      0x20\n      add\n      mload(0x40)\n      dup1\n      0x40\n      add\n      0x40\n      mstore\n      dup1\n      0x07\n      dup2\n      mstore\n      0x20\n      add\n      0x75696e7432353600000000000000000000000000000000000000000000000000\n      dup2\n      mstore\n      pop\n      dup2\n      mstore\n      0x20\n      add\n        /* \"Evm/core/base/vault.sol\":3007:3013  amount */\n      dup5\n        /* \"Evm/core/base/vault.sol\":2996:3014  abi.encode(amount) */\n      add(0x20, mload(0x40))\n      tag_102\n      swap2\n      swap1\n      tag_103\n      jump\t// in\n    tag_102:\n      mload(0x40)\n      0x20\n      dup2\n      dup4\n      sub\n      sub\n      dup2\n      mstore\n      swap1\n      0x40\n      mstore\n        /* \"Evm/core/base/vault.sol\":2962:3015  IEvents.Data(\"amount\", \"uint256\", abi.encode(amount)) */\n      dup2\n      mstore\n      pop\n        /* \"Evm/core/base/vault.sol\":2947:2956  eventData */\n      dup2\n        /* \"Evm/core/base/vault.sol\":2957:2958  2 */\n      0x02\n        /* \"Evm/core/base/vault.sol\":2947:2959  eventData[2] */\n      dup2\n      mload\n      dup2\n      lt\n      tag_104\n      jumpi\n      tag_105\n      tag_97\n      jump\t// in\n    tag_105:\n    tag_104:\n      0x20\n      mul\n      0x20\n      add\n      add\n        /* \"Evm/core/base/vault.sol\":2947:3015  eventData[2] = IEvents.Data(\"amount\", \"uint256\", abi.encode(amount)) */\n      dup2\n      swap1\n      mstore\n      pop\n        /* \"Evm/core/base/vault.sol\":3037:3088  IEvents.Data(\"chain\", \"string\", abi.encode(\"base\")) */\n      mload(0x40)\n      dup1\n      0x60\n      add\n      0x40\n      mstore\n      dup1\n      mload(0x40)\n      dup1\n      0x40\n      add\n      0x40\n      mstore\n      dup1\n      0x05\n      dup2\n      mstore\n      0x20\n      add\n      0x636861696e000000000000000000000000000000000000000000000000000000\n      dup2\n      mstore\n      pop\n      dup2\n      mstore\n      0x20\n      add\n      mload(0x40)\n      dup1\n      0x40\n      add\n      0x40\n      mstore\n      dup1\n      0x06\n      dup2\n      mstore\n      0x20\n      add\n      0x737472696e670000000000000000000000000000000000000000000000000000\n      dup2\n      mstore\n      pop\n      dup2\n      mstore\n      0x20\n      add\n        /* \"Evm/core/base/vault.sol\":3069:3087  abi.encode(\"base\") */\n      add(0x20, mload(0x40))\n      tag_106\n      swap1\n      tag_107\n      jump\t// in\n    tag_106:\n      mload(0x40)\n      0x20\n      dup2\n      dup4\n      sub\n      sub\n      dup2\n      mstore\n      swap1\n      0x40\n      mstore\n        /* \"Evm/core/base/vault.sol\":3037:3088  IEvents.Data(\"chain\", \"string\", abi.encode(\"base\")) */\n      dup2\n      mstore\n      pop\n        /* \"Evm/core/base/vault.sol\":3022:3031  eventData */\n      dup2\n        /* \"Evm/core/base/vault.sol\":3032:3033  3 */\n      0x03\n        /* \"Evm/core/base/vault.sol\":3022:3034  eventData[3] */\n      dup2\n      mload\n      dup2\n      lt\n      tag_108\n      jumpi\n      tag_109\n      tag_97\n      jump\t// in\n    tag_109:\n    tag_108:\n      0x20\n      mul\n      0x20\n      add\n      add\n        /* \"Evm/core/base/vault.sol\":3022:3088  eventData[3] = IEvents.Data(\"chain\", \"string\", abi.encode(\"base\")) */\n      dup2\n      swap1\n      mstore\n      pop\n        /* \"Evm/core/base/vault.sol\":3110:3170  IEvents.Data(\"provider\", \"string\", abi.encode(providerName)) */\n      mload(0x40)\n      dup1\n      0x60\n      add\n      0x40\n      mstore\n      dup1\n      mload(0x40)\n      dup1\n      0x40\n      add\n      0x40\n      mstore\n      dup1\n      0x08\n      dup2\n      mstore\n      0x20\n      add\n      0x70726f7669646572000000000000000000000000000000000000000000000000\n      dup2\n      mstore\n      pop\n      dup2\n      mstore\n      0x20\n      add\n      mload(0x40)\n      dup1\n      0x40\n      add\n      0x40\n      mstore\n      dup1\n      0x06\n      dup2\n      mstore\n      0x20\n      add\n      0x737472696e670000000000000000000000000000000000000000000000000000\n      dup2\n      mstore\n      pop\n      dup2\n      mstore\n      0x20\n      add\n        /* \"Evm/core/base/vault.sol\":3156:3168  providerName */\n      0x01\n        /* \"Evm/core/base/vault.sol\":3145:3169  abi.encode(providerName) */\n      add(0x20, mload(0x40))\n      tag_110\n      swap2\n      swap1\n      tag_111\n      jump\t// in\n    tag_110:\n      mload(0x40)\n      0x20\n      dup2\n      dup4\n      sub\n      sub\n      dup2\n      mstore\n      swap1\n      0x40\n      mstore\n        /* \"Evm/core/base/vault.sol\":3110:3170  IEvents.Data(\"provider\", \"string\", abi.encode(providerName)) */\n      dup2\n      mstore\n      pop\n        /* \"Evm/core/base/vault.sol\":3095:3104  eventData */\n      dup2\n        /* \"Evm/core/base/vault.sol\":3105:3106  4 */\n      0x04\n        /* \"Evm/core/base/vault.sol\":3095:3107  eventData[4] */\n      dup2\n      mload\n      dup2\n      lt\n      tag_112\n      jumpi\n      tag_113\n      tag_97\n      jump\t// in\n    tag_113:\n    tag_112:\n      0x20\n      mul\n      0x20\n      add\n      add\n        /* \"Evm/core/base/vault.sol\":3095:3170  eventData[4] = IEvents.Data(\"provider\", \"string\", abi.encode(providerName)) */\n      dup2\n      swap1\n      mstore\n      pop\n        /* \"Evm/core/base/vault.sol\":3274:3328  IEvents.Data(\"token\", \"string\", abi.encode(assetName)) */\n      mload(0x40)\n      dup1\n      0x60\n      add\n      0x40\n      mstore\n      dup1\n      mload(0x40)\n      dup1\n      0x40\n      add\n      0x40\n      mstore\n      dup1\n      0x05\n      dup2\n      mstore\n      0x20\n      add\n      0x746f6b656e000000000000000000000000000000000000000000000000000000\n      dup2\n      mstore\n      pop\n      dup2\n      mstore\n      0x20\n      add\n      mload(0x40)\n      dup1\n      0x40\n      add\n      0x40\n      mstore\n      dup1\n      0x06\n      dup2\n      mstore\n      0x20\n      add\n      0x737472696e670000000000000000000000000000000000000000000000000000\n      dup2\n      mstore\n      pop\n      dup2\n      mstore\n      0x20\n      add\n        /* \"Evm/core/base/vault.sol\":3317:3326  assetName */\n      dup7\n      dup7\n        /* \"Evm/core/base/vault.sol\":3306:3327  abi.encode(assetName) */\n      add(0x20, mload(0x40))\n      tag_114\n      swap3\n      swap2\n      swap1\n      tag_99\n      jump\t// in\n    tag_114:\n      mload(0x40)\n      0x20\n      dup2\n      dup4\n      sub\n      sub\n      dup2\n      mstore\n      swap1\n      0x40\n      mstore\n        /* \"Evm/core/base/vault.sol\":3274:3328  IEvents.Data(\"token\", \"string\", abi.encode(assetName)) */\n      dup2\n      mstore\n      pop\n        /* \"Evm/core/base/vault.sol\":3259:3268  eventData */\n      dup2\n        /* \"Evm/core/base/vault.sol\":3269:3270  5 */\n      0x05\n        /* \"Evm/core/base/vault.sol\":3259:3271  eventData[5] */\n      dup2\n      mload\n      dup2\n      lt\n      tag_115\n      jumpi\n      tag_116\n      tag_97\n      jump\t// in\n    tag_116:\n    tag_115:\n      0x20\n      mul\n      0x20\n      add\n      add\n        /* \"Evm/core/base/vault.sol\":3259:3328  eventData[5] = IEvents.Data(\"token\", \"string\", abi.encode(assetName)) */\n      dup2\n      swap1\n      mstore\n      pop\n        /* \"Evm/core/base/vault.sol\":3408:3414  events */\n      immutable(\"0xa55f93089260f97cd16ec7a717e7ade24f99065bc4509014bd14fefe4d832ab6\")\n        /* \"Evm/core/base/vault.sol\":3408:3429  events.emitVaultEvent */\n      0xffffffffffffffffffffffffffffffffffffffff\n      and\n      0x7d64fa9b\n        /* \"Evm/core/base/vault.sol\":3450:3459  eventData */\n      dup3\n        /* \"Evm/core/base/vault.sol\":3408:3460  events.emitVaultEvent(\"Modular Withdraw\", eventData) */\n      mload(0x40)\n      dup3\n      0xffffffff\n      and\n      0xe0\n      shl\n      dup2\n      mstore\n      0x04\n      add\n      tag_117\n      swap2\n      swap1\n      tag_118\n      jump\t// in\n    tag_117:\n      0x00\n      mload(0x40)\n      dup1\n      dup4\n      sub\n      dup2\n      0x00\n      dup8\n      dup1\n      extcodesize\n      iszero\n      dup1\n      iszero\n      tag_119\n      jumpi\n      revert(0x00, 0x00)\n    tag_119:\n      pop\n      gas\n      call\n      iszero\n      dup1\n      iszero\n      tag_121\n      jumpi\n      returndatacopy(0x00, 0x00, returndatasize)\n      revert(0x00, returndatasize)\n    tag_121:\n      pop\n      pop\n      pop\n      pop\n        /* \"Evm/core/base/vault.sol\":2463:3464  { ... */\n      pop\n      pop\n        /* \"Evm/core/base/vault.sol\":2353:3464  function m_withdraw(address user, string calldata shared, string calldata assetName, uint256 amount) external { ... */\n      pop\n      pop\n      pop\n      pop\n      pop\n      pop\n      jump\t// out\n        /* \"@openzeppelin/contracts/access/Ownable.sol\":2293:2394  function renounceOwnership() public virtual onlyOwner {... */\n    tag_37:\n        /* \"@openzeppelin/contracts/access/Ownable.sol\":1531:1544  _checkOwner() */\n      tag_123\n        /* \"@openzeppelin/contracts/access/Ownable.sol\":1531:1542  _checkOwner */\n      tag_124\n        /* \"@openzeppelin/contracts/access/Ownable.sol\":1531:1544  _checkOwner() */\n      jump\t// in\n    tag_123:\n        /* \"@openzeppelin/contracts/access/Ownable.sol\":2357:2387  _transferOwnership(address(0)) */\n      tag_126\n        /* \"@openzeppelin/contracts/access/Ownable.sol\":2384:2385  0 */\n      0x00\n        /* \"@openzeppelin/contracts/access/Ownable.sol\":2357:2375  _transferOwnership */\n      tag_127\n        /* \"@openzeppelin/contracts/access/Ownable.sol\":2357:2387  _transferOwnership(address(0)) */\n      jump\t// in\n    tag_126:\n        /* \"@openzeppelin/contracts/access/Ownable.sol\":2293:2394  function renounceOwnership() public virtual onlyOwner {... */\n      jump\t// out\n        /* \"Evm/core/base/vault.sol\":3622:4781  function directWithdraw(address user, string calldata assetName, uint256 amount, uint256 nullifier) external onlyOwner { // ONLY the Delegator contract can call this... */\n    tag_41:\n        /* \"@openzeppelin/contracts/access/Ownable.sol\":1531:1544  _checkOwner() */\n      tag_129\n        /* \"@openzeppelin/contracts/access/Ownable.sol\":1531:1542  _checkOwner */\n      tag_124\n        /* \"@openzeppelin/contracts/access/Ownable.sol\":1531:1544  _checkOwner() */\n      jump\t// in\n    tag_129:\n        /* \"Evm/core/base/vault.sol\":3797:3810  address token */\n      0x00\n        /* \"Evm/core/base/vault.sol\":3813:3836  resolveAsset(assetName) */\n      tag_131\n        /* \"Evm/core/base/vault.sol\":3826:3835  assetName */\n      dup6\n      dup6\n        /* \"Evm/core/base/vault.sol\":3813:3836  resolveAsset(assetName) */\n      dup1\n      dup1\n      0x1f\n      add\n      0x20\n      dup1\n      swap2\n      div\n      mul\n      0x20\n      add\n      mload(0x40)\n      swap1\n      dup2\n      add\n      0x40\n      mstore\n      dup1\n      swap4\n      swap3\n      swap2\n      swap1\n      dup2\n      dup2\n      mstore\n      0x20\n      add\n      dup4\n      dup4\n      dup1\n      dup3\n      dup5\n      calldatacopy\n      0x00\n      dup2\n      dup5\n      add\n      mstore\n      not(0x1f)\n      0x1f\n      dup3\n      add\n      and\n      swap1\n      pop\n      dup1\n      dup4\n      add\n      swap3\n      pop\n      pop\n      pop\n      pop\n      pop\n      pop\n      pop\n        /* \"Evm/core/base/vault.sol\":3813:3825  resolveAsset */\n      tag_23\n        /* \"Evm/core/base/vault.sol\":3813:3836  resolveAsset(assetName) */\n      jump\t// in\n    tag_131:\n        /* \"Evm/core/base/vault.sol\":3797:3836  address token = resolveAsset(assetName) */\n      swap1\n      pop\n        /* \"Evm/core/base/vault.sol\":3855:3871  isSupportedToken */\n      0x02\n        /* \"Evm/core/base/vault.sol\":3855:3878  isSupportedToken[token] */\n      0x00\n        /* \"Evm/core/base/vault.sol\":3872:3877  token */\n      dup3\n        /* \"Evm/core/base/vault.sol\":3855:3878  isSupportedToken[token] */\n      0xffffffffffffffffffffffffffffffffffffffff\n      and\n      0xffffffffffffffffffffffffffffffffffffffff\n      and\n      dup2\n      mstore\n      0x20\n      add\n      swap1\n      dup2\n      mstore\n      0x20\n      add\n      0x00\n      keccak256\n      0x00\n      swap1\n      sload\n      swap1\n      0x0100\n      exp\n      swap1\n      div\n      0xff\n      and\n        /* \"Evm/core/base/vault.sol\":3847:3909  require(isSupportedToken[token], \"Vault: Token not supported\") */\n      tag_132\n      jumpi\n      mload(0x40)\n      0x08c379a000000000000000000000000000000000000000000000000000000000\n      dup2\n      mstore\n      0x04\n      add\n      tag_133\n      swap1\n      tag_86\n      jump\t// in\n    tag_133:\n      mload(0x40)\n      dup1\n      swap2\n      sub\n      swap1\n      revert\n    tag_132:\n        /* \"Evm/core/base/vault.sol\":3986:4026  IERC20(token).safeTransfer(user, amount) */\n      tag_134\n        /* \"Evm/core/base/vault.sol\":4013:4017  user */\n      dup7\n        /* \"Evm/core/base/vault.sol\":4019:4025  amount */\n      dup5\n        /* \"Evm/core/base/vault.sol\":3993:3998  token */\n      dup4\n        /* \"Evm/core/base/vault.sol\":3986:4012  IERC20(token).safeTransfer */\n      0xffffffffffffffffffffffffffffffffffffffff\n      and\n      tag_135\n      swap1\n        /* \"Evm/core/base/vault.sol\":3986:4026  IERC20(token).safeTransfer(user, amount) */\n      swap3\n      swap2\n      swap1\n      0xffffffff\n      and\n      jump\t// in\n    tag_134:\n        /* \"Evm/core/base/vault.sol\":4085:4116  IEvents.Data[] memory eventData */\n      0x00\n        /* \"Evm/core/base/vault.sol\":4138:4139  6 */\n      0x06\n        /* \"Evm/core/base/vault.sol\":4119:4140  new IEvents.Data[](6) */\n      0xffffffffffffffff\n      dup2\n      gt\n      iszero\n      tag_136\n      jumpi\n      tag_137\n      tag_89\n      jump\t// in\n    tag_137:\n    tag_136:\n      mload(0x40)\n      swap1\n      dup1\n      dup3\n      mstore\n      dup1\n      0x20\n      mul\n      0x20\n      add\n      dup3\n      add\n      0x40\n      mstore\n      dup1\n      iszero\n      tag_138\n      jumpi\n      dup2\n      0x20\n      add\n    tag_139:\n      tag_140\n      tag_93\n      jump\t// in\n    tag_140:\n      dup2\n      mstore\n      0x20\n      add\n      swap1\n      0x01\n      swap1\n      sub\n      swap1\n      dup2\n      tag_139\n      jumpi\n      swap1\n      pop\n    tag_138:\n      pop\n        /* \"Evm/core/base/vault.sol\":4085:4140  IEvents.Data[] memory eventData = new IEvents.Data[](6) */\n      swap1\n      pop\n        /* \"Evm/core/base/vault.sol\":4166:4215  IEvents.Data(\"user\", \"address\", abi.encode(user)) */\n      mload(0x40)\n      dup1\n      0x60\n      add\n      0x40\n      mstore\n      dup1\n      mload(0x40)\n      dup1\n      0x40\n      add\n      0x40\n      mstore\n      dup1\n      0x04\n      dup2\n      mstore\n      0x20\n      add\n      0x7573657200000000000000000000000000000000000000000000000000000000\n      dup2\n      mstore\n      pop\n      dup2\n      mstore\n      0x20\n      add\n      mload(0x40)\n      dup1\n      0x40\n      add\n      0x40\n      mstore\n      dup1\n      0x07\n      dup2\n      mstore\n      0x20\n      add\n      0x6164647265737300000000000000000000000000000000000000000000000000\n      dup2\n      mstore\n      pop\n      dup2\n      mstore\n      0x20\n      add\n        /* \"Evm/core/base/vault.sol\":4209:4213  user */\n      dup9\n        /* \"Evm/core/base/vault.sol\":4198:4214  abi.encode(user) */\n      add(0x20, mload(0x40))\n      tag_141\n      swap2\n      swap1\n      tag_25\n      jump\t// in\n    tag_141:\n      mload(0x40)\n      0x20\n      dup2\n      dup4\n      sub\n      sub\n      dup2\n      mstore\n      swap1\n      0x40\n      mstore\n        /* \"Evm/core/base/vault.sol\":4166:4215  IEvents.Data(\"user\", \"address\", abi.encode(user)) */\n      dup2\n      mstore\n      pop\n        /* \"Evm/core/base/vault.sol\":4151:4160  eventData */\n      dup2\n        /* \"Evm/core/base/vault.sol\":4161:4162  0 */\n      0x00\n        /* \"Evm/core/base/vault.sol\":4151:4163  eventData[0] */\n      dup2\n      mload\n      dup2\n      lt\n      tag_142\n      jumpi\n      tag_143\n      tag_97\n      jump\t// in\n    tag_143:\n    tag_142:\n      0x20\n      mul\n      0x20\n      add\n      add\n        /* \"Evm/core/base/vault.sol\":4151:4215  eventData[0] = IEvents.Data(\"user\", \"address\", abi.encode(user)) */\n      dup2\n      swap1\n      mstore\n      pop\n        /* \"Evm/core/base/vault.sol\":4241:4294  IEvents.Data(\"amount\", \"uint256\", abi.encode(amount)) */\n      mload(0x40)\n      dup1\n      0x60\n      add\n      0x40\n      mstore\n      dup1\n      mload(0x40)\n      dup1\n      0x40\n      add\n      0x40\n      mstore\n      dup1\n      0x06\n      dup2\n      mstore\n      0x20\n      add\n      0x616d6f756e740000000000000000000000000000000000000000000000000000\n      dup2\n      mstore\n      pop\n      dup2\n      mstore\n      0x20\n      add\n      mload(0x40)\n      dup1\n      0x40\n      add\n      0x40\n      mstore\n      dup1\n      0x07\n      dup2\n      mstore\n      0x20\n      add\n      0x75696e7432353600000000000000000000000000000000000000000000000000\n      dup2\n      mstore\n      pop\n      dup2\n      mstore\n      0x20\n      add\n        /* \"Evm/core/base/vault.sol\":4286:4292  amount */\n      dup6\n        /* \"Evm/core/base/vault.sol\":4275:4293  abi.encode(amount) */\n      add(0x20, mload(0x40))\n      tag_144\n      swap2\n      swap1\n      tag_103\n      jump\t// in\n    tag_144:\n      mload(0x40)\n      0x20\n      dup2\n      dup4\n      sub\n      sub\n      dup2\n      mstore\n      swap1\n      0x40\n      mstore\n        /* \"Evm/core/base/vault.sol\":4241:4294  IEvents.Data(\"amount\", \"uint256\", abi.encode(amount)) */\n      dup2\n      mstore\n      pop\n        /* \"Evm/core/base/vault.sol\":4226:4235  eventData */\n      dup2\n        /* \"Evm/core/base/vault.sol\":4236:4237  1 */\n      0x01\n        /* \"Evm/core/base/vault.sol\":4226:4238  eventData[1] */\n      dup2\n      mload\n      dup2\n      lt\n      tag_145\n      jumpi\n      tag_146\n      tag_97\n      jump\t// in\n    tag_146:\n    tag_145:\n      0x20\n      mul\n      0x20\n      add\n      add\n        /* \"Evm/core/base/vault.sol\":4226:4294  eventData[1] = IEvents.Data(\"amount\", \"uint256\", abi.encode(amount)) */\n      dup2\n      swap1\n      mstore\n      pop\n        /* \"Evm/core/base/vault.sol\":4320:4374  IEvents.Data(\"token\", \"string\", abi.encode(assetName)) */\n      mload(0x40)\n      dup1\n      0x60\n      add\n      0x40\n      mstore\n      dup1\n      mload(0x40)\n      dup1\n      0x40\n      add\n      0x40\n      mstore\n      dup1\n      0x05\n      dup2\n      mstore\n      0x20\n      add\n      0x746f6b656e000000000000000000000000000000000000000000000000000000\n      dup2\n      mstore\n      pop\n      dup2\n      mstore\n      0x20\n      add\n      mload(0x40)\n      dup1\n      0x40\n      add\n      0x40\n      mstore\n      dup1\n      0x06\n      dup2\n      mstore\n      0x20\n      add\n      0x737472696e670000000000000000000000000000000000000000000000000000\n      dup2\n      mstore\n      pop\n      dup2\n      mstore\n      0x20\n      add\n        /* \"Evm/core/base/vault.sol\":4363:4372  assetName */\n      dup8\n      dup8\n        /* \"Evm/core/base/vault.sol\":4352:4373  abi.encode(assetName) */\n      add(0x20, mload(0x40))\n      tag_147\n      swap3\n      swap2\n      swap1\n      tag_99\n      jump\t// in\n    tag_147:\n      mload(0x40)\n      0x20\n      dup2\n      dup4\n      sub\n      sub\n      dup2\n      mstore\n      swap1\n      0x40\n      mstore\n        /* \"Evm/core/base/vault.sol\":4320:4374  IEvents.Data(\"token\", \"string\", abi.encode(assetName)) */\n      dup2\n      mstore\n      pop\n        /* \"Evm/core/base/vault.sol\":4305:4314  eventData */\n      dup2\n        /* \"Evm/core/base/vault.sol\":4315:4316  2 */\n      0x02\n        /* \"Evm/core/base/vault.sol\":4305:4317  eventData[2] */\n      dup2\n      mload\n      dup2\n      lt\n      tag_148\n      jumpi\n      tag_149\n      tag_97\n      jump\t// in\n    tag_149:\n    tag_148:\n      0x20\n      mul\n      0x20\n      add\n      add\n        /* \"Evm/core/base/vault.sol\":4305:4374  eventData[2] = IEvents.Data(\"token\", \"string\", abi.encode(assetName)) */\n      dup2\n      swap1\n      mstore\n      pop\n        /* \"Evm/core/base/vault.sol\":4400:4460  IEvents.Data(\"provider\", \"string\", abi.encode(providerName)) */\n      mload(0x40)\n      dup1\n      0x60\n      add\n      0x40\n      mstore\n      dup1\n      mload(0x40)\n      dup1\n      0x40\n      add\n      0x40\n      mstore\n      dup1\n      0x08\n      dup2\n      mstore\n      0x20\n      add\n      0x70726f7669646572000000000000000000000000000000000000000000000000\n      dup2\n      mstore\n      pop\n      dup2\n      mstore\n      0x20\n      add\n      mload(0x40)\n      dup1\n      0x40\n      add\n      0x40\n      mstore\n      dup1\n      0x06\n      dup2\n      mstore\n      0x20\n      add\n      0x737472696e670000000000000000000000000000000000000000000000000000\n      dup2\n      mstore\n      pop\n      dup2\n      mstore\n      0x20\n      add\n        /* \"Evm/core/base/vault.sol\":4446:4458  providerName */\n      0x01\n        /* \"Evm/core/base/vault.sol\":4435:4459  abi.encode(providerName) */\n      add(0x20, mload(0x40))\n      tag_150\n      swap2\n      swap1\n      tag_111\n      jump\t// in\n    tag_150:\n      mload(0x40)\n      0x20\n      dup2\n      dup4\n      sub\n      sub\n      dup2\n      mstore\n      swap1\n      0x40\n      mstore\n        /* \"Evm/core/base/vault.sol\":4400:4460  IEvents.Data(\"provider\", \"string\", abi.encode(providerName)) */\n      dup2\n      mstore\n      pop\n        /* \"Evm/core/base/vault.sol\":4385:4394  eventData */\n      dup2\n        /* \"Evm/core/base/vault.sol\":4395:4396  3 */\n      0x03\n        /* \"Evm/core/base/vault.sol\":4385:4397  eventData[3] */\n      dup2\n      mload\n      dup2\n      lt\n      tag_151\n      jumpi\n      tag_152\n      tag_97\n      jump\t// in\n    tag_152:\n    tag_151:\n      0x20\n      mul\n      0x20\n      add\n      add\n        /* \"Evm/core/base/vault.sol\":4385:4460  eventData[3] = IEvents.Data(\"provider\", \"string\", abi.encode(providerName)) */\n      dup2\n      swap1\n      mstore\n      pop\n        /* \"Evm/core/base/vault.sol\":4486:4545  IEvents.Data(\"nullifier\", \"uint256\", abi.encode(nullifier)) */\n      mload(0x40)\n      dup1\n      0x60\n      add\n      0x40\n      mstore\n      dup1\n      mload(0x40)\n      dup1\n      0x40\n      add\n      0x40\n      mstore\n      dup1\n      0x09\n      dup2\n      mstore\n      0x20\n      add\n      0x6e756c6c69666965720000000000000000000000000000000000000000000000\n      dup2\n      mstore\n      pop\n      dup2\n      mstore\n      0x20\n      add\n      mload(0x40)\n      dup1\n      0x40\n      add\n      0x40\n      mstore\n      dup1\n      0x07\n      dup2\n      mstore\n      0x20\n      add\n      0x75696e7432353600000000000000000000000000000000000000000000000000\n      dup2\n      mstore\n      pop\n      dup2\n      mstore\n      0x20\n      add\n        /* \"Evm/core/base/vault.sol\":4534:4543  nullifier */\n      dup5\n        /* \"Evm/core/base/vault.sol\":4523:4544  abi.encode(nullifier) */\n      add(0x20, mload(0x40))\n      tag_153\n      swap2\n      swap1\n      tag_103\n      jump\t// in\n    tag_153:\n      mload(0x40)\n      0x20\n      dup2\n      dup4\n      sub\n      sub\n      dup2\n      mstore\n      swap1\n      0x40\n      mstore\n        /* \"Evm/core/base/vault.sol\":4486:4545  IEvents.Data(\"nullifier\", \"uint256\", abi.encode(nullifier)) */\n      dup2\n      mstore\n      pop\n        /* \"Evm/core/base/vault.sol\":4471:4480  eventData */\n      dup2\n        /* \"Evm/core/base/vault.sol\":4481:4482  4 */\n      0x04\n        /* \"Evm/core/base/vault.sol\":4471:4483  eventData[4] */\n      dup2\n      mload\n      dup2\n      lt\n      tag_154\n      jumpi\n      tag_155\n      tag_97\n      jump\t// in\n    tag_155:\n    tag_154:\n      0x20\n      mul\n      0x20\n      add\n      add\n        /* \"Evm/core/base/vault.sol\":4471:4545  eventData[4] = IEvents.Data(\"nullifier\", \"uint256\", abi.encode(nullifier)) */\n      dup2\n      swap1\n      mstore\n      pop\n        /* \"Evm/core/base/vault.sol\":4571:4636  IEvents.Data(\"timestamp\", \"uint256\", abi.encode(block.timestamp)) */\n      mload(0x40)\n      dup1\n      0x60\n      add\n      0x40\n      mstore\n      dup1\n      mload(0x40)\n      dup1\n      0x40\n      add\n      0x40\n      mstore\n      dup1\n      0x09\n      dup2\n      mstore\n      0x20\n      add\n      0x74696d657374616d700000000000000000000000000000000000000000000000\n      dup2\n      mstore\n      pop\n      dup2\n      mstore\n      0x20\n      add\n      mload(0x40)\n      dup1\n      0x40\n      add\n      0x40\n      mstore\n      dup1\n      0x07\n      dup2\n      mstore\n      0x20\n      add\n      0x75696e7432353600000000000000000000000000000000000000000000000000\n      dup2\n      mstore\n      pop\n      dup2\n      mstore\n      0x20\n      add\n        /* \"Evm/core/base/vault.sol\":4619:4634  block.timestamp */\n      timestamp\n        /* \"Evm/core/base/vault.sol\":4608:4635  abi.encode(block.timestamp) */\n      add(0x20, mload(0x40))\n      tag_156\n      swap2\n      swap1\n      tag_103\n      jump\t// in\n    tag_156:\n      mload(0x40)\n      0x20\n      dup2\n      dup4\n      sub\n      sub\n      dup2\n      mstore\n      swap1\n      0x40\n      mstore\n        /* \"Evm/core/base/vault.sol\":4571:4636  IEvents.Data(\"timestamp\", \"uint256\", abi.encode(block.timestamp)) */\n      dup2\n      mstore\n      pop\n        /* \"Evm/core/base/vault.sol\":4556:4565  eventData */\n      dup2\n        /* \"Evm/core/base/vault.sol\":4566:4567  5 */\n      0x05\n        /* \"Evm/core/base/vault.sol\":4556:4568  eventData[5] */\n      dup2\n      mload\n      dup2\n      lt\n      tag_157\n      jumpi\n      tag_158\n      tag_97\n      jump\t// in\n    tag_158:\n    tag_157:\n      0x20\n      mul\n      0x20\n      add\n      add\n        /* \"Evm/core/base/vault.sol\":4556:4636  eventData[5] = IEvents.Data(\"timestamp\", \"uint256\", abi.encode(block.timestamp)) */\n      dup2\n      swap1\n      mstore\n      pop\n        /* \"Evm/core/base/vault.sol\":4657:4663  events */\n      immutable(\"0xa55f93089260f97cd16ec7a717e7ade24f99065bc4509014bd14fefe4d832ab6\")\n        /* \"Evm/core/base/vault.sol\":4657:4678  events.emitVaultEvent */\n      0xffffffffffffffffffffffffffffffffffffffff\n      and\n      0x7d64fa9b\n        /* \"Evm/core/base/vault.sol\":4698:4707  eventData */\n      dup3\n        /* \"Evm/core/base/vault.sol\":4657:4708  events.emitVaultEvent(\"Direct Withdraw\", eventData) */\n      mload(0x40)\n      dup3\n      0xffffffff\n      and\n      0xe0\n      shl\n      dup2\n      mstore\n      0x04\n      add\n      tag_159\n      swap2\n      swap1\n      tag_160\n      jump\t// in\n    tag_159:\n      0x00\n      mload(0x40)\n      dup1\n      dup4\n      sub\n      dup2\n      0x00\n      dup8\n      dup1\n      extcodesize\n      iszero\n      dup1\n      iszero\n      tag_161\n      jumpi\n      revert(0x00, 0x00)\n    tag_161:\n      pop\n      gas\n      call\n      iszero\n      dup1\n      iszero\n      tag_163\n      jumpi\n      returndatacopy(0x00, 0x00, returndatasize)\n      revert(0x00, returndatasize)\n    tag_163:\n      pop\n      pop\n      pop\n      pop\n        /* \"Evm/core/base/vault.sol\":4745:4750  token */\n      dup2\n        /* \"Evm/core/base/vault.sol\":4724:4773  DirectWithdraw(user, token, amount, providerName) */\n      0xffffffffffffffffffffffffffffffffffffffff\n      and\n        /* \"Evm/core/base/vault.sol\":4739:4743  user */\n      dup8\n        /* \"Evm/core/base/vault.sol\":4724:4773  DirectWithdraw(user, token, amount, providerName) */\n      0xffffffffffffffffffffffffffffffffffffffff\n      and\n      0xcc4f8702356931e6d23a93d1b60beac6a7ea77d447ada4b1502a09d0b7125709\n        /* \"Evm/core/base/vault.sol\":4752:4758  amount */\n      dup7\n        /* \"Evm/core/base/vault.sol\":4760:4772  providerName */\n      0x01\n        /* \"Evm/core/base/vault.sol\":4724:4773  DirectWithdraw(user, token, amount, providerName) */\n      mload(0x40)\n      tag_164\n      swap3\n      swap2\n      swap1\n      tag_165\n      jump\t// in\n    tag_164:\n      mload(0x40)\n      dup1\n      swap2\n      sub\n      swap1\n      log3\n        /* \"Evm/core/base/vault.sol\":3741:4781  { // ONLY the Delegator contract can call this... */\n      pop\n      pop\n        /* \"Evm/core/base/vault.sol\":3622:4781  function directWithdraw(address user, string calldata assetName, uint256 amount, uint256 nullifier) external onlyOwner { // ONLY the Delegator contract can call this... */\n      pop\n      pop\n      pop\n      pop\n      pop\n      jump\t// out\n        /* \"@openzeppelin/contracts/access/Ownable.sol\":1638:1723  function owner() public view virtual returns (address) {... */\n    tag_43:\n        /* \"@openzeppelin/contracts/access/Ownable.sol\":1684:1691  address */\n      0x00\n        /* \"@openzeppelin/contracts/access/Ownable.sol\":1710:1716  _owner */\n      0x00\n      0x00\n      swap1\n      sload\n      swap1\n      0x0100\n      exp\n      swap1\n      div\n      0xffffffffffffffffffffffffffffffffffffffff\n      and\n        /* \"@openzeppelin/contracts/access/Ownable.sol\":1703:1716  return _owner */\n      swap1\n      pop\n        /* \"@openzeppelin/contracts/access/Ownable.sol\":1638:1723  function owner() public view virtual returns (address) {... */\n      swap1\n      jump\t// out\n        /* \"Evm/core/base/vault.sol\":4789:5785  function deposit(string calldata assetName, uint256 amount) external {... */\n    tag_48:\n        /* \"Evm/core/base/vault.sol\":4869:4882  address token */\n      0x00\n        /* \"Evm/core/base/vault.sol\":4885:4908  resolveAsset(assetName) */\n      tag_168\n        /* \"Evm/core/base/vault.sol\":4898:4907  assetName */\n      dup5\n      dup5\n        /* \"Evm/core/base/vault.sol\":4885:4908  resolveAsset(assetName) */\n      dup1\n      dup1\n      0x1f\n      add\n      0x20\n      dup1\n      swap2\n      div\n      mul\n      0x20\n      add\n      mload(0x40)\n      swap1\n      dup2\n      add\n      0x40\n      mstore\n      dup1\n      swap4\n      swap3\n      swap2\n      swap1\n      dup2\n      dup2\n      mstore\n      0x20\n      add\n      dup4\n      dup4\n      dup1\n      dup3\n      dup5\n      calldatacopy\n      0x00\n      dup2\n      dup5\n      add\n      mstore\n      not(0x1f)\n      0x1f\n      dup3\n      add\n      and\n      swap1\n      pop\n      dup1\n      dup4\n      add\n      swap3\n      pop\n      pop\n      pop\n      pop\n      pop\n      pop\n      pop\n        /* \"Evm/core/base/vault.sol\":4885:4897  resolveAsset */\n      tag_23\n        /* \"Evm/core/base/vault.sol\":4885:4908  resolveAsset(assetName) */\n      jump\t// in\n    tag_168:\n        /* \"Evm/core/base/vault.sol\":4869:4908  address token = resolveAsset(assetName) */\n      swap1\n      pop\n        /* \"Evm/core/base/vault.sol\":4927:4943  isSupportedToken */\n      0x02\n        /* \"Evm/core/base/vault.sol\":4927:4950  isSupportedToken[token] */\n      0x00\n        /* \"Evm/core/base/vault.sol\":4944:4949  token */\n      dup3\n        /* \"Evm/core/base/vault.sol\":4927:4950  isSupportedToken[token] */\n      0xffffffffffffffffffffffffffffffffffffffff\n      and\n      0xffffffffffffffffffffffffffffffffffffffff\n      and\n      dup2\n      mstore\n      0x20\n      add\n      swap1\n      dup2\n      mstore\n      0x20\n      add\n      0x00\n      keccak256\n      0x00\n      swap1\n      sload\n      swap1\n      0x0100\n      exp\n      swap1\n      div\n      0xff\n      and\n        /* \"Evm/core/base/vault.sol\":4919:4981  require(isSupportedToken[token], \"Vault: Token not supported\") */\n      tag_169\n      jumpi\n      mload(0x40)\n      0x08c379a000000000000000000000000000000000000000000000000000000000\n      dup2\n      mstore\n      0x04\n      add\n      tag_170\n      swap1\n      tag_86\n      jump\t// in\n    tag_170:\n      mload(0x40)\n      dup1\n      swap2\n      sub\n      swap1\n      revert\n    tag_169:\n        /* \"Evm/core/base/vault.sol\":5009:5010  0 */\n      0x00\n        /* \"Evm/core/base/vault.sol\":5000:5006  amount */\n      dup3\n        /* \"Evm/core/base/vault.sol\":5000:5010  amount > 0 */\n      gt\n        /* \"Evm/core/base/vault.sol\":4992:5041  require(amount > 0, \"Vault: Deposit must be > 0\") */\n      tag_171\n      jumpi\n      mload(0x40)\n      0x08c379a000000000000000000000000000000000000000000000000000000000\n      dup2\n      mstore\n      0x04\n      add\n      tag_172\n      swap1\n      tag_173\n      jump\t// in\n    tag_172:\n      mload(0x40)\n      dup1\n      swap2\n      sub\n      swap1\n      revert\n    tag_171:\n        /* \"Evm/core/base/vault.sol\":5107:5172  IERC20(token).safeTransferFrom(msg.sender, address(this), amount) */\n      tag_174\n        /* \"Evm/core/base/vault.sol\":5138:5148  msg.sender */\n      caller\n        /* \"Evm/core/base/vault.sol\":5158:5162  this */\n      address\n        /* \"Evm/core/base/vault.sol\":5165:5171  amount */\n      dup5\n        /* \"Evm/core/base/vault.sol\":5114:5119  token */\n      dup5\n        /* \"Evm/core/base/vault.sol\":5107:5137  IERC20(token).safeTransferFrom */\n      0xffffffffffffffffffffffffffffffffffffffff\n      and\n      tag_175\n      swap1\n        /* \"Evm/core/base/vault.sol\":5107:5172  IERC20(token).safeTransferFrom(msg.sender, address(this), amount) */\n      swap4\n      swap3\n      swap2\n      swap1\n      0xffffffff\n      and\n      jump\t// in\n    tag_174:\n        /* \"Evm/core/base/vault.sol\":5185:5216  IEvents.Data[] memory eventData */\n      0x00\n        /* \"Evm/core/base/vault.sol\":5238:5239  5 */\n      0x05\n        /* \"Evm/core/base/vault.sol\":5219:5240  new IEvents.Data[](5) */\n      0xffffffffffffffff\n      dup2\n      gt\n      iszero\n      tag_176\n      jumpi\n      tag_177\n      tag_89\n      jump\t// in\n    tag_177:\n    tag_176:\n      mload(0x40)\n      swap1\n      dup1\n      dup3\n      mstore\n      dup1\n      0x20\n      mul\n      0x20\n      add\n      dup3\n      add\n      0x40\n      mstore\n      dup1\n      iszero\n      tag_178\n      jumpi\n      dup2\n      0x20\n      add\n    tag_179:\n      tag_180\n      tag_93\n      jump\t// in\n    tag_180:\n      dup2\n      mstore\n      0x20\n      add\n      swap1\n      0x01\n      swap1\n      sub\n      swap1\n      dup2\n      tag_179\n      jumpi\n      swap1\n      pop\n    tag_178:\n      pop\n        /* \"Evm/core/base/vault.sol\":5185:5240  IEvents.Data[] memory eventData = new IEvents.Data[](5) */\n      swap1\n      pop\n        /* \"Evm/core/base/vault.sol\":5266:5321  IEvents.Data(\"user\", \"address\", abi.encode(msg.sender)) */\n      mload(0x40)\n      dup1\n      0x60\n      add\n      0x40\n      mstore\n      dup1\n      mload(0x40)\n      dup1\n      0x40\n      add\n      0x40\n      mstore\n      dup1\n      0x04\n      dup2\n      mstore\n      0x20\n      add\n      0x7573657200000000000000000000000000000000000000000000000000000000\n      dup2\n      mstore\n      pop\n      dup2\n      mstore\n      0x20\n      add\n      mload(0x40)\n      dup1\n      0x40\n      add\n      0x40\n      mstore\n      dup1\n      0x07\n      dup2\n      mstore\n      0x20\n      add\n      0x6164647265737300000000000000000000000000000000000000000000000000\n      dup2\n      mstore\n      pop\n      dup2\n      mstore\n      0x20\n      add\n        /* \"Evm/core/base/vault.sol\":5309:5319  msg.sender */\n      caller\n        /* \"Evm/core/base/vault.sol\":5298:5320  abi.encode(msg.sender) */\n      add(0x20, mload(0x40))\n      tag_181\n      swap2\n      swap1\n      tag_25\n      jump\t// in\n    tag_181:\n      mload(0x40)\n      0x20\n      dup2\n      dup4\n      sub\n      sub\n      dup2\n      mstore\n      swap1\n      0x40\n      mstore\n        /* \"Evm/core/base/vault.sol\":5266:5321  IEvents.Data(\"user\", \"address\", abi.encode(msg.sender)) */\n      dup2\n      mstore\n      pop\n        /* \"Evm/core/base/vault.sol\":5251:5260  eventData */\n      dup2\n        /* \"Evm/core/base/vault.sol\":5261:5262  0 */\n      0x00\n        /* \"Evm/core/base/vault.sol\":5251:5263  eventData[0] */\n      dup2\n      mload\n      dup2\n      lt\n      tag_182\n      jumpi\n      tag_183\n      tag_97\n      jump\t// in\n    tag_183:\n    tag_182:\n      0x20\n      mul\n      0x20\n      add\n      add\n        /* \"Evm/core/base/vault.sol\":5251:5321  eventData[0] = IEvents.Data(\"user\", \"address\", abi.encode(msg.sender)) */\n      dup2\n      swap1\n      mstore\n      pop\n        /* \"Evm/core/base/vault.sol\":5347:5400  IEvents.Data(\"amount\", \"uint256\", abi.encode(amount)) */\n      mload(0x40)\n      dup1\n      0x60\n      add\n      0x40\n      mstore\n      dup1\n      mload(0x40)\n      dup1\n      0x40\n      add\n      0x40\n      mstore\n      dup1\n      0x06\n      dup2\n      mstore\n      0x20\n      add\n      0x616d6f756e740000000000000000000000000000000000000000000000000000\n      dup2\n      mstore\n      pop\n      dup2\n      mstore\n      0x20\n      add\n      mload(0x40)\n      dup1\n      0x40\n      add\n      0x40\n      mstore\n      dup1\n      0x07\n      dup2\n      mstore\n      0x20\n      add\n      0x75696e7432353600000000000000000000000000000000000000000000000000\n      dup2\n      mstore\n      pop\n      dup2\n      mstore\n      0x20\n      add\n        /* \"Evm/core/base/vault.sol\":5392:5398  amount */\n      dup5\n        /* \"Evm/core/base/vault.sol\":5381:5399  abi.encode(amount) */\n      add(0x20, mload(0x40))\n      tag_184\n      swap2\n      swap1\n      tag_103\n      jump\t// in\n    tag_184:\n      mload(0x40)\n      0x20\n      dup2\n      dup4\n      sub\n      sub\n      dup2\n      mstore\n      swap1\n      0x40\n      mstore\n        /* \"Evm/core/base/vault.sol\":5347:5400  IEvents.Data(\"amount\", \"uint256\", abi.encode(amount)) */\n      dup2\n      mstore\n      pop\n        /* \"Evm/core/base/vault.sol\":5332:5341  eventData */\n      dup2\n        /* \"Evm/core/base/vault.sol\":5342:5343  1 */\n      0x01\n        /* \"Evm/core/base/vault.sol\":5332:5344  eventData[1] */\n      dup2\n      mload\n      dup2\n      lt\n      tag_185\n      jumpi\n      tag_186\n      tag_97\n      jump\t// in\n    tag_186:\n    tag_185:\n      0x20\n      mul\n      0x20\n      add\n      add\n        /* \"Evm/core/base/vault.sol\":5332:5400  eventData[1] = IEvents.Data(\"amount\", \"uint256\", abi.encode(amount)) */\n      dup2\n      swap1\n      mstore\n      pop\n        /* \"Evm/core/base/vault.sol\":5426:5480  IEvents.Data(\"token\", \"string\", abi.encode(assetName)) */\n      mload(0x40)\n      dup1\n      0x60\n      add\n      0x40\n      mstore\n      dup1\n      mload(0x40)\n      dup1\n      0x40\n      add\n      0x40\n      mstore\n      dup1\n      0x05\n      dup2\n      mstore\n      0x20\n      add\n      0x746f6b656e000000000000000000000000000000000000000000000000000000\n      dup2\n      mstore\n      pop\n      dup2\n      mstore\n      0x20\n      add\n      mload(0x40)\n      dup1\n      0x40\n      add\n      0x40\n      mstore\n      dup1\n      0x06\n      dup2\n      mstore\n      0x20\n      add\n      0x737472696e670000000000000000000000000000000000000000000000000000\n      dup2\n      mstore\n      pop\n      dup2\n      mstore\n      0x20\n      add\n        /* \"Evm/core/base/vault.sol\":5469:5478  assetName */\n      dup7\n      dup7\n        /* \"Evm/core/base/vault.sol\":5458:5479  abi.encode(assetName) */\n      add(0x20, mload(0x40))\n      tag_187\n      swap3\n      swap2\n      swap1\n      tag_99\n      jump\t// in\n    tag_187:\n      mload(0x40)\n      0x20\n      dup2\n      dup4\n      sub\n      sub\n      dup2\n      mstore\n      swap1\n      0x40\n      mstore\n        /* \"Evm/core/base/vault.sol\":5426:5480  IEvents.Data(\"token\", \"string\", abi.encode(assetName)) */\n      dup2\n      mstore\n      pop\n        /* \"Evm/core/base/vault.sol\":5411:5420  eventData */\n      dup2\n        /* \"Evm/core/base/vault.sol\":5421:5422  2 */\n      0x02\n        /* \"Evm/core/base/vault.sol\":5411:5423  eventData[2] */\n      dup2\n      mload\n      dup2\n      lt\n      tag_188\n      jumpi\n      tag_189\n      tag_97\n      jump\t// in\n    tag_189:\n    tag_188:\n      0x20\n      mul\n      0x20\n      add\n      add\n        /* \"Evm/core/base/vault.sol\":5411:5480  eventData[2] = IEvents.Data(\"token\", \"string\", abi.encode(assetName)) */\n      dup2\n      swap1\n      mstore\n      pop\n        /* \"Evm/core/base/vault.sol\":5506:5566  IEvents.Data(\"provider\", \"string\", abi.encode(providerName)) */\n      mload(0x40)\n      dup1\n      0x60\n      add\n      0x40\n      mstore\n      dup1\n      mload(0x40)\n      dup1\n      0x40\n      add\n      0x40\n      mstore\n      dup1\n      0x08\n      dup2\n      mstore\n      0x20\n      add\n      0x70726f7669646572000000000000000000000000000000000000000000000000\n      dup2\n      mstore\n      pop\n      dup2\n      mstore\n      0x20\n      add\n      mload(0x40)\n      dup1\n      0x40\n      add\n      0x40\n      mstore\n      dup1\n      0x06\n      dup2\n      mstore\n      0x20\n      add\n      0x737472696e670000000000000000000000000000000000000000000000000000\n      dup2\n      mstore\n      pop\n      dup2\n      mstore\n      0x20\n      add\n        /* \"Evm/core/base/vault.sol\":5552:5564  providerName */\n      0x01\n        /* \"Evm/core/base/vault.sol\":5541:5565  abi.encode(providerName) */\n      add(0x20, mload(0x40))\n      tag_190\n      swap2\n      swap1\n      tag_111\n      jump\t// in\n    tag_190:\n      mload(0x40)\n      0x20\n      dup2\n      dup4\n      sub\n      sub\n      dup2\n      mstore\n      swap1\n      0x40\n      mstore\n        /* \"Evm/core/base/vault.sol\":5506:5566  IEvents.Data(\"provider\", \"string\", abi.encode(providerName)) */\n      dup2\n      mstore\n      pop\n        /* \"Evm/core/base/vault.sol\":5491:5500  eventData */\n      dup2\n        /* \"Evm/core/base/vault.sol\":5501:5502  3 */\n      0x03\n        /* \"Evm/core/base/vault.sol\":5491:5503  eventData[3] */\n      dup2\n      mload\n      dup2\n      lt\n      tag_191\n      jumpi\n      tag_192\n      tag_97\n      jump\t// in\n    tag_192:\n    tag_191:\n      0x20\n      mul\n      0x20\n      add\n      add\n        /* \"Evm/core/base/vault.sol\":5491:5566  eventData[3] = IEvents.Data(\"provider\", \"string\", abi.encode(providerName)) */\n      dup2\n      swap1\n      mstore\n      pop\n        /* \"Evm/core/base/vault.sol\":5592:5657  IEvents.Data(\"timestamp\", \"uint256\", abi.encode(block.timestamp)) */\n      mload(0x40)\n      dup1\n      0x60\n      add\n      0x40\n      mstore\n      dup1\n      mload(0x40)\n      dup1\n      0x40\n      add\n      0x40\n      mstore\n      dup1\n      0x09\n      dup2\n      mstore\n      0x20\n      add\n      0x74696d657374616d700000000000000000000000000000000000000000000000\n      dup2\n      mstore\n      pop\n      dup2\n      mstore\n      0x20\n      add\n      mload(0x40)\n      dup1\n      0x40\n      add\n      0x40\n      mstore\n      dup1\n      0x07\n      dup2\n      mstore\n      0x20\n      add\n      0x75696e7432353600000000000000000000000000000000000000000000000000\n      dup2\n      mstore\n      pop\n      dup2\n      mstore\n      0x20\n      add\n        /* \"Evm/core/base/vault.sol\":5640:5655  block.timestamp */\n      timestamp\n        /* \"Evm/core/base/vault.sol\":5629:5656  abi.encode(block.timestamp) */\n      add(0x20, mload(0x40))\n      tag_193\n      swap2\n      swap1\n      tag_103\n      jump\t// in\n    tag_193:\n      mload(0x40)\n      0x20\n      dup2\n      dup4\n      sub\n      sub\n      dup2\n      mstore\n      swap1\n      0x40\n      mstore\n        /* \"Evm/core/base/vault.sol\":5592:5657  IEvents.Data(\"timestamp\", \"uint256\", abi.encode(block.timestamp)) */\n      dup2\n      mstore\n      pop\n        /* \"Evm/core/base/vault.sol\":5577:5586  eventData */\n      dup2\n        /* \"Evm/core/base/vault.sol\":5587:5588  4 */\n      0x04\n        /* \"Evm/core/base/vault.sol\":5577:5589  eventData[4] */\n      dup2\n      mload\n      dup2\n      lt\n      tag_194\n      jumpi\n      tag_195\n      tag_97\n      jump\t// in\n    tag_195:\n    tag_194:\n      0x20\n      mul\n      0x20\n      add\n      add\n        /* \"Evm/core/base/vault.sol\":5577:5657  eventData[4] = IEvents.Data(\"timestamp\", \"uint256\", abi.encode(block.timestamp)) */\n      dup2\n      swap1\n      mstore\n      pop\n        /* \"Evm/core/base/vault.sol\":5670:5676  events */\n      immutable(\"0xa55f93089260f97cd16ec7a717e7ade24f99065bc4509014bd14fefe4d832ab6\")\n        /* \"Evm/core/base/vault.sol\":5670:5691  events.emitVaultEvent */\n      0xffffffffffffffffffffffffffffffffffffffff\n      and\n      0x7d64fa9b\n        /* \"Evm/core/base/vault.sol\":5703:5712  eventData */\n      dup3\n        /* \"Evm/core/base/vault.sol\":5670:5713  events.emitVaultEvent(\"Deposit\", eventData) */\n      mload(0x40)\n      dup3\n      0xffffffff\n      and\n      0xe0\n      shl\n      dup2\n      mstore\n      0x04\n      add\n      tag_196\n      swap2\n      swap1\n      tag_197\n      jump\t// in\n    tag_196:\n      0x00\n      mload(0x40)\n      dup1\n      dup4\n      sub\n      dup2\n      0x00\n      dup8\n      dup1\n      extcodesize\n      iszero\n      dup1\n      iszero\n      tag_198\n      jumpi\n      revert(0x00, 0x00)\n    tag_198:\n      pop\n      gas\n      call\n      iszero\n      dup1\n      iszero\n      tag_200\n      jumpi\n      returndatacopy(0x00, 0x00, returndatasize)\n      revert(0x00, returndatasize)\n    tag_200:\n      pop\n      pop\n      pop\n      pop\n        /* \"Evm/core/base/vault.sol\":5749:5754  token */\n      dup2\n        /* \"Evm/core/base/vault.sol\":5729:5777  Deposit(msg.sender, token, amount, providerName) */\n      0xffffffffffffffffffffffffffffffffffffffff\n      and\n        /* \"Evm/core/base/vault.sol\":5737:5747  msg.sender */\n      caller\n        /* \"Evm/core/base/vault.sol\":5729:5777  Deposit(msg.sender, token, amount, providerName) */\n      0xffffffffffffffffffffffffffffffffffffffff\n      and\n      0xef519b7eb82aaf6ac376a6df2d793843ebfd593de5f1a0601d3cc6ab49ebb395\n        /* \"Evm/core/base/vault.sol\":5756:5762  amount */\n      dup6\n        /* \"Evm/core/base/vault.sol\":5764:5776  providerName */\n      0x01\n        /* \"Evm/core/base/vault.sol\":5729:5777  Deposit(msg.sender, token, amount, providerName) */\n      mload(0x40)\n      tag_201\n      swap3\n      swap2\n      swap1\n      tag_165\n      jump\t// in\n    tag_201:\n      mload(0x40)\n      dup1\n      swap2\n      sub\n      swap1\n      log3\n        /* \"Evm/core/base/vault.sol\":4858:5785  {... */\n      pop\n      pop\n        /* \"Evm/core/base/vault.sol\":4789:5785  function deposit(string calldata assetName, uint256 amount) external {... */\n      pop\n      pop\n      pop\n      jump\t// out\n        /* \"Evm/core/base/vault.sol\":696:727  IEvents public immutable events */\n    tag_50:\n      immutable(\"0xa55f93089260f97cd16ec7a717e7ade24f99065bc4509014bd14fefe4d832ab6\")\n      dup2\n      jump\t// out\n        /* \"Evm/core/base/vault.sol\":644:689  IVariables public immutable variablesRegistry */\n    tag_54:\n      immutable(\"0x1067a32fc2bf4122310a8f066f11577e006583df65ce4c5172289c9680be102c\")\n      dup2\n      jump\t// out\n        /* \"Evm/core/base/vault.sol\":1955:2172  function listNewToken(string calldata assetName) external {... */\n    tag_60:\n        /* \"Evm/core/base/vault.sol\":2024:2041  address tokenAddr */\n      0x00\n        /* \"Evm/core/base/vault.sol\":2044:2067  resolveAsset(assetName) */\n      tag_203\n        /* \"Evm/core/base/vault.sol\":2057:2066  assetName */\n      dup4\n      dup4\n        /* \"Evm/core/base/vault.sol\":2044:2067  resolveAsset(assetName) */\n      dup1\n      dup1\n      0x1f\n      add\n      0x20\n      dup1\n      swap2\n      div\n      mul\n      0x20\n      add\n      mload(0x40)\n      swap1\n      dup2\n      add\n      0x40\n      mstore\n      dup1\n      swap4\n      swap3\n      swap2\n      swap1\n      dup2\n      dup2\n      mstore\n      0x20\n      add\n      dup4\n      dup4\n      dup1\n      dup3\n      dup5\n      calldatacopy\n      0x00\n      dup2\n      dup5\n      add\n      mstore\n      not(0x1f)\n      0x1f\n      dup3\n      add\n      and\n      swap1\n      pop\n      dup1\n      dup4\n      add\n      swap3\n      pop\n      pop\n      pop\n      pop\n      pop\n      pop\n      pop\n        /* \"Evm/core/base/vault.sol\":2044:2056  resolveAsset */\n      tag_23\n        /* \"Evm/core/base/vault.sol\":2044:2067  resolveAsset(assetName) */\n      jump\t// in\n    tag_203:\n        /* \"Evm/core/base/vault.sol\":2024:2067  address tokenAddr = resolveAsset(assetName) */\n      swap1\n      pop\n        /* \"Evm/core/base/vault.sol\":2108:2112  true */\n      0x01\n        /* \"Evm/core/base/vault.sol\":2078:2094  isSupportedToken */\n      0x02\n        /* \"Evm/core/base/vault.sol\":2078:2105  isSupportedToken[tokenAddr] */\n      0x00\n        /* \"Evm/core/base/vault.sol\":2095:2104  tokenAddr */\n      dup4\n        /* \"Evm/core/base/vault.sol\":2078:2105  isSupportedToken[tokenAddr] */\n      0xffffffffffffffffffffffffffffffffffffffff\n      and\n      0xffffffffffffffffffffffffffffffffffffffff\n      and\n      dup2\n      mstore\n      0x20\n      add\n      swap1\n      dup2\n      mstore\n      0x20\n      add\n      0x00\n      keccak256\n      0x00\n        /* \"Evm/core/base/vault.sol\":2078:2112  isSupportedToken[tokenAddr] = true */\n      0x0100\n      exp\n      dup2\n      sload\n      dup2\n      0xff\n      mul\n      not\n      and\n      swap1\n      dup4\n      iszero\n      iszero\n      mul\n      or\n      swap1\n      sstore\n      pop\n        /* \"Evm/core/base/vault.sol\":2140:2149  tokenAddr */\n      dup1\n        /* \"Evm/core/base/vault.sol\":2128:2164  TokenListed(tokenAddr, providerName) */\n      0xffffffffffffffffffffffffffffffffffffffff\n      and\n      0xd57b1148efb91f418a2178fc1fb4ba12f9400a4dc8e71851fd59e85d337c609f\n        /* \"Evm/core/base/vault.sol\":2151:2163  providerName */\n      0x01\n        /* \"Evm/core/base/vault.sol\":2128:2164  TokenListed(tokenAddr, providerName) */\n      mload(0x40)\n      tag_204\n      swap2\n      swap1\n      tag_111\n      jump\t// in\n    tag_204:\n      mload(0x40)\n      dup1\n      swap2\n      sub\n      swap1\n      log2\n        /* \"Evm/core/base/vault.sol\":2013:2172  {... */\n      pop\n        /* \"Evm/core/base/vault.sol\":1955:2172  function listNewToken(string calldata assetName) external {... */\n      pop\n      pop\n      jump\t// out\n        /* \"@openzeppelin/contracts/access/Ownable.sol\":2543:2758  function transferOwnership(address newOwner) public virtual onlyOwner {... */\n    tag_63:\n        /* \"@openzeppelin/contracts/access/Ownable.sol\":1531:1544  _checkOwner() */\n      tag_206\n        /* \"@openzeppelin/contracts/access/Ownable.sol\":1531:1542  _checkOwner */\n      tag_124\n        /* \"@openzeppelin/contracts/access/Ownable.sol\":1531:1544  _checkOwner() */\n      jump\t// in\n    tag_206:\n        /* \"@openzeppelin/contracts/access/Ownable.sol\":2647:2648  0 */\n      0x00\n        /* \"@openzeppelin/contracts/access/Ownable.sol\":2627:2649  newOwner == address(0) */\n      0xffffffffffffffffffffffffffffffffffffffff\n      and\n        /* \"@openzeppelin/contracts/access/Ownable.sol\":2627:2635  newOwner */\n      dup2\n        /* \"@openzeppelin/contracts/access/Ownable.sol\":2627:2649  newOwner == address(0) */\n      0xffffffffffffffffffffffffffffffffffffffff\n      and\n      sub\n        /* \"@openzeppelin/contracts/access/Ownable.sol\":2623:2714  if (newOwner == address(0)) {... */\n      tag_208\n      jumpi\n        /* \"@openzeppelin/contracts/access/Ownable.sol\":2700:2701  0 */\n      0x00\n        /* \"@openzeppelin/contracts/access/Ownable.sol\":2672:2703  OwnableInvalidOwner(address(0)) */\n      mload(0x40)\n      0x1e4fbdf700000000000000000000000000000000000000000000000000000000\n      dup2\n      mstore\n      0x04\n      add\n      tag_209\n      swap2\n      swap1\n      tag_25\n      jump\t// in\n    tag_209:\n      mload(0x40)\n      dup1\n      swap2\n      sub\n      swap1\n      revert\n        /* \"@openzeppelin/contracts/access/Ownable.sol\":2623:2714  if (newOwner == address(0)) {... */\n    tag_208:\n        /* \"@openzeppelin/contracts/access/Ownable.sol\":2723:2751  _transferOwnership(newOwner) */\n      tag_210\n        /* \"@openzeppelin/contracts/access/Ownable.sol\":2742:2750  newOwner */\n      dup2\n        /* \"@openzeppelin/contracts/access/Ownable.sol\":2723:2741  _transferOwnership */\n      tag_127\n        /* \"@openzeppelin/contracts/access/Ownable.sol\":2723:2751  _transferOwnership(newOwner) */\n      jump\t// in\n    tag_210:\n        /* \"@openzeppelin/contracts/access/Ownable.sol\":2543:2758  function transferOwnership(address newOwner) public virtual onlyOwner {... */\n      pop\n      jump\t// out\n        /* \"@openzeppelin/contracts/access/Ownable.sol\":1796:1958  function _checkOwner() internal view virtual {... */\n    tag_124:\n        /* \"@openzeppelin/contracts/access/Ownable.sol\":1866:1878  _msgSender() */\n      tag_212\n        /* \"@openzeppelin/contracts/access/Ownable.sol\":1866:1876  _msgSender */\n      tag_213\n        /* \"@openzeppelin/contracts/access/Ownable.sol\":1866:1878  _msgSender() */\n      jump\t// in\n    tag_212:\n        /* \"@openzeppelin/contracts/access/Ownable.sol\":1855:1878  owner() != _msgSender() */\n      0xffffffffffffffffffffffffffffffffffffffff\n      and\n        /* \"@openzeppelin/contracts/access/Ownable.sol\":1855:1862  owner() */\n      tag_214\n        /* \"@openzeppelin/contracts/access/Ownable.sol\":1855:1860  owner */\n      tag_43\n        /* \"@openzeppelin/contracts/access/Ownable.sol\":1855:1862  owner() */\n      jump\t// in\n    tag_214:\n        /* \"@openzeppelin/contracts/access/Ownable.sol\":1855:1878  owner() != _msgSender() */\n      0xffffffffffffffffffffffffffffffffffffffff\n      and\n      eq\n        /* \"@openzeppelin/contracts/access/Ownable.sol\":1851:1952  if (owner() != _msgSender()) {... */\n      tag_215\n      jumpi\n        /* \"@openzeppelin/contracts/access/Ownable.sol\":1928:1940  _msgSender() */\n      tag_216\n        /* \"@openzeppelin/contracts/access/Ownable.sol\":1928:1938  _msgSender */\n      tag_213\n        /* \"@openzeppelin/contracts/access/Ownable.sol\":1928:1940  _msgSender() */\n      jump\t// in\n    tag_216:\n        /* \"@openzeppelin/contracts/access/Ownable.sol\":1901:1941  OwnableUnauthorizedAccount(_msgSender()) */\n      mload(0x40)\n      0x118cdaa700000000000000000000000000000000000000000000000000000000\n      dup2\n      mstore\n      0x04\n      add\n      tag_217\n      swap2\n      swap1\n      tag_25\n      jump\t// in\n    tag_217:\n      mload(0x40)\n      dup1\n      swap2\n      sub\n      swap1\n      revert\n        /* \"@openzeppelin/contracts/access/Ownable.sol\":1851:1952  if (owner() != _msgSender()) {... */\n    tag_215:\n        /* \"@openzeppelin/contracts/access/Ownable.sol\":1796:1958  function _checkOwner() internal view virtual {... */\n      jump\t// out\n        /* \"@openzeppelin/contracts/access/Ownable.sol\":2912:3099  function _transferOwnership(address newOwner) internal virtual {... */\n    tag_127:\n        /* \"@openzeppelin/contracts/access/Ownable.sol\":2985:3001  address oldOwner */\n      0x00\n        /* \"@openzeppelin/contracts/access/Ownable.sol\":3004:3010  _owner */\n      0x00\n      0x00\n      swap1\n      sload\n      swap1\n      0x0100\n      exp\n      swap1\n      div\n      0xffffffffffffffffffffffffffffffffffffffff\n      and\n        /* \"@openzeppelin/contracts/access/Ownable.sol\":2985:3010  address oldOwner = _owner */\n      swap1\n      pop\n        /* \"@openzeppelin/contracts/access/Ownable.sol\":3029:3037  newOwner */\n      dup2\n        /* \"@openzeppelin/contracts/access/Ownable.sol\":3020:3026  _owner */\n      0x00\n      0x00\n        /* \"@openzeppelin/contracts/access/Ownable.sol\":3020:3037  _owner = newOwner */\n      0x0100\n      exp\n      dup2\n      sload\n      dup2\n      0xffffffffffffffffffffffffffffffffffffffff\n      mul\n      not\n      and\n      swap1\n      dup4\n      0xffffffffffffffffffffffffffffffffffffffff\n      and\n      mul\n      or\n      swap1\n      sstore\n      pop\n        /* \"@openzeppelin/contracts/access/Ownable.sol\":3083:3091  newOwner */\n      dup2\n        /* \"@openzeppelin/contracts/access/Ownable.sol\":3052:3092  OwnershipTransferred(oldOwner, newOwner) */\n      0xffffffffffffffffffffffffffffffffffffffff\n      and\n        /* \"@openzeppelin/contracts/access/Ownable.sol\":3073:3081  oldOwner */\n      dup2\n        /* \"@openzeppelin/contracts/access/Ownable.sol\":3052:3092  OwnershipTransferred(oldOwner, newOwner) */\n      0xffffffffffffffffffffffffffffffffffffffff\n      and\n      0x8be0079c531659141344cd1fd0a4f28419497f9722a3daafe3b4186f6b6457e0\n      mload(0x40)\n      mload(0x40)\n      dup1\n      swap2\n      sub\n      swap1\n      log3\n        /* \"@openzeppelin/contracts/access/Ownable.sol\":2975:3099  {... */\n      pop\n        /* \"@openzeppelin/contracts/access/Ownable.sol\":2912:3099  function _transferOwnership(address newOwner) internal virtual {... */\n      pop\n      jump\t// out\n        /* \"@openzeppelin/contracts/token/ERC20/utils/SafeERC20.sol\":1219:1423  function safeTransfer(IERC20 token, address to, uint256 value) internal {... */\n    tag_135:\n        /* \"@openzeppelin/contracts/token/ERC20/utils/SafeERC20.sol\":1306:1343  _safeTransfer(token, to, value, true) */\n      tag_220\n        /* \"@openzeppelin/contracts/token/ERC20/utils/SafeERC20.sol\":1320:1325  token */\n      dup4\n        /* \"@openzeppelin/contracts/token/ERC20/utils/SafeERC20.sol\":1327:1329  to */\n      dup4\n        /* \"@openzeppelin/contracts/token/ERC20/utils/SafeERC20.sol\":1331:1336  value */\n      dup4\n        /* \"@openzeppelin/contracts/token/ERC20/utils/SafeERC20.sol\":1338:1342  true */\n      0x01\n        /* \"@openzeppelin/contracts/token/ERC20/utils/SafeERC20.sol\":1306:1319  _safeTransfer */\n      tag_221\n        /* \"@openzeppelin/contracts/token/ERC20/utils/SafeERC20.sol\":1306:1343  _safeTransfer(token, to, value, true) */\n      jump\t// in\n    tag_220:\n        /* \"@openzeppelin/contracts/token/ERC20/utils/SafeERC20.sol\":1301:1417  if (!_safeTransfer(token, to, value, true)) {... */\n      tag_222\n      jumpi\n        /* \"@openzeppelin/contracts/token/ERC20/utils/SafeERC20.sol\":1399:1404  token */\n      dup3\n        /* \"@openzeppelin/contracts/token/ERC20/utils/SafeERC20.sol\":1366:1406  SafeERC20FailedOperation(address(token)) */\n      mload(0x40)\n      0x5274afe700000000000000000000000000000000000000000000000000000000\n      dup2\n      mstore\n      0x04\n      add\n      tag_223\n      swap2\n      swap1\n      tag_25\n      jump\t// in\n    tag_223:\n      mload(0x40)\n      dup1\n      swap2\n      sub\n      swap1\n      revert\n        /* \"@openzeppelin/contracts/token/ERC20/utils/SafeERC20.sol\":1301:1417  if (!_safeTransfer(token, to, value, true)) {... */\n    tag_222:\n        /* \"@openzeppelin/contracts/token/ERC20/utils/SafeERC20.sol\":1219:1423  function safeTransfer(IERC20 token, address to, uint256 value) internal {... */\n      pop\n      pop\n      pop\n      jump\t// out\n        /* \"@openzeppelin/contracts/token/ERC20/utils/SafeERC20.sol\":1662:1894  function safeTransferFrom(IERC20 token, address from, address to, uint256 value) internal {... */\n    tag_175:\n        /* \"@openzeppelin/contracts/token/ERC20/utils/SafeERC20.sol\":1767:1814  _safeTransferFrom(token, from, to, value, true) */\n      tag_225\n        /* \"@openzeppelin/contracts/token/ERC20/utils/SafeERC20.sol\":1785:1790  token */\n      dup5\n        /* \"@openzeppelin/contracts/token/ERC20/utils/SafeERC20.sol\":1792:1796  from */\n      dup5\n        /* \"@openzeppelin/contracts/token/ERC20/utils/SafeERC20.sol\":1798:1800  to */\n      dup5\n        /* \"@openzeppelin/contracts/token/ERC20/utils/SafeERC20.sol\":1802:1807  value */\n      dup5\n        /* \"@openzeppelin/contracts/token/ERC20/utils/SafeERC20.sol\":1809:1813  true */\n      0x01\n        /* \"@openzeppelin/contracts/token/ERC20/utils/SafeERC20.sol\":1767:1784  _safeTransferFrom */\n      tag_226\n        /* \"@openzeppelin/contracts/token/ERC20/utils/SafeERC20.sol\":1767:1814  _safeTransferFrom(token, from, to, value, true) */\n      jump\t// in\n    tag_225:\n        /* \"@openzeppelin/contracts/token/ERC20/utils/SafeERC20.sol\":1762:1888  if (!_safeTransferFrom(token, from, to, value, true)) {... */\n      tag_227\n      jumpi\n        /* \"@openzeppelin/contracts/token/ERC20/utils/SafeERC20.sol\":1870:1875  token */\n      dup4\n        /* \"@openzeppelin/contracts/token/ERC20/utils/SafeERC20.sol\":1837:1877  SafeERC20FailedOperation(address(token)) */\n      mload(0x40)\n      0x5274afe700000000000000000000000000000000000000000000000000000000\n      dup2\n      mstore\n      0x04\n      add\n      tag_228\n      swap2\n      swap1\n      tag_25\n      jump\t// in\n    tag_228:\n      mload(0x40)\n      dup1\n      swap2\n      sub\n      swap1\n      revert\n        /* \"@openzeppelin/contracts/token/ERC20/utils/SafeERC20.sol\":1762:1888  if (!_safeTransferFrom(token, from, to, value, true)) {... */\n    tag_227:\n        /* \"@openzeppelin/contracts/token/ERC20/utils/SafeERC20.sol\":1662:1894  function safeTransferFrom(IERC20 token, address from, address to, uint256 value) internal {... */\n      pop\n      pop\n      pop\n      pop\n      jump\t// out\n        /* \"@openzeppelin/contracts/utils/Context.sol\":656:752  function _msgSender() internal view virtual returns (address) {... */\n    tag_213:\n        /* \"@openzeppelin/contracts/utils/Context.sol\":709:716  address */\n      0x00\n        /* \"@openzeppelin/contracts/utils/Context.sol\":735:745  msg.sender */\n      caller\n        /* \"@openzeppelin/contracts/utils/Context.sol\":728:745  return msg.sender */\n      swap1\n      pop\n        /* \"@openzeppelin/contracts/utils/Context.sol\":656:752  function _msgSender() internal view virtual returns (address) {... */\n      swap1\n      jump\t// out\n        /* \"@openzeppelin/contracts/token/ERC20/utils/SafeERC20.sol\":8373:9617  function _safeTransfer(IERC20 token, address to, uint256 value, bool bubble) private returns (bool success) {... */\n    tag_221:\n        /* \"@openzeppelin/contracts/token/ERC20/utils/SafeERC20.sol\":8467:8479  bool success */\n      0x00\n        /* \"@openzeppelin/contracts/token/ERC20/utils/SafeERC20.sol\":8491:8506  bytes4 selector */\n      0x00\n        /* \"@openzeppelin/contracts/token/ERC20/utils/SafeERC20.sol\":8509:8533  IERC20.transfer.selector */\n      shl(0xe0, 0xa9059cbb)\n        /* \"@openzeppelin/contracts/token/ERC20/utils/SafeERC20.sol\":8491:8533  bytes4 selector = IERC20.transfer.selector */\n      swap1\n      pop\n        /* \"@openzeppelin/contracts/token/ERC20/utils/SafeERC20.sol\":8600:8604  0x40 */\n      0x40\n        /* \"@openzeppelin/contracts/token/ERC20/utils/SafeERC20.sol\":8594:8605  mload(0x40) */\n      mload\n        /* \"@openzeppelin/contracts/token/ERC20/utils/SafeERC20.sol\":8631:8639  selector */\n      dup2\n        /* \"@openzeppelin/contracts/token/ERC20/utils/SafeERC20.sol\":8625:8629  0x00 */\n      0x00\n        /* \"@openzeppelin/contracts/token/ERC20/utils/SafeERC20.sol\":8618:8640  mstore(0x00, selector) */\n      mstore\n        /* \"@openzeppelin/contracts/token/ERC20/utils/SafeERC20.sol\":8686:8687  0 */\n      0x00\n        /* \"@openzeppelin/contracts/token/ERC20/utils/SafeERC20.sol\":8682:8688  not(0) */\n      not\n        /* \"@openzeppelin/contracts/token/ERC20/utils/SafeERC20.sol\":8678:8680  96 */\n      0x60\n        /* \"@openzeppelin/contracts/token/ERC20/utils/SafeERC20.sol\":8674:8689  shr(96, not(0)) */\n      shr\n        /* \"@openzeppelin/contracts/token/ERC20/utils/SafeERC20.sol\":8670:8672  to */\n      dup7\n        /* \"@openzeppelin/contracts/token/ERC20/utils/SafeERC20.sol\":8666:8690  and(to, shr(96, not(0))) */\n      and\n        /* \"@openzeppelin/contracts/token/ERC20/utils/SafeERC20.sol\":8660:8664  0x04 */\n      0x04\n        /* \"@openzeppelin/contracts/token/ERC20/utils/SafeERC20.sol\":8653:8691  mstore(0x04, and(to, shr(96, not(0)))) */\n      mstore\n        /* \"@openzeppelin/contracts/token/ERC20/utils/SafeERC20.sol\":8717:8722  value */\n      dup5\n        /* \"@openzeppelin/contracts/token/ERC20/utils/SafeERC20.sol\":8711:8715  0x24 */\n      0x24\n        /* \"@openzeppelin/contracts/token/ERC20/utils/SafeERC20.sol\":8704:8723  mstore(0x24, value) */\n      mstore\n        /* \"@openzeppelin/contracts/token/ERC20/utils/SafeERC20.sol\":8787:8791  0x20 */\n      0x20\n        /* \"@openzeppelin/contracts/token/ERC20/utils/SafeERC20.sol\":8781:8785  0x00 */\n      0x00\n        /* \"@openzeppelin/contracts/token/ERC20/utils/SafeERC20.sol\":8775:8779  0x44 */\n      0x44\n        /* \"@openzeppelin/contracts/token/ERC20/utils/SafeERC20.sol\":8769:8773  0x00 */\n      0x00\n        /* \"@openzeppelin/contracts/token/ERC20/utils/SafeERC20.sol\":8766:8767  0 */\n      0x00\n        /* \"@openzeppelin/contracts/token/ERC20/utils/SafeERC20.sol\":8759:8764  token */\n      dup12\n        /* \"@openzeppelin/contracts/token/ERC20/utils/SafeERC20.sol\":8752:8757  gas() */\n      gas\n        /* \"@openzeppelin/contracts/token/ERC20/utils/SafeERC20.sol\":8747:8792  call(gas(), token, 0, 0x00, 0x44, 0x00, 0x20) */\n      call\n        /* \"@openzeppelin/contracts/token/ERC20/utils/SafeERC20.sol\":8736:8792  success := call(gas(), token, 0, 0x00, 0x44, 0x00, 0x20) */\n      swap3\n      pop\n        /* \"@openzeppelin/contracts/token/ERC20/utils/SafeERC20.sol\":9004:9005  1 */\n      0x01\n        /* \"@openzeppelin/contracts/token/ERC20/utils/SafeERC20.sol\":8997:9001  0x00 */\n      0x00\n        /* \"@openzeppelin/contracts/token/ERC20/utils/SafeERC20.sol\":8991:9002  mload(0x00) */\n      mload\n        /* \"@openzeppelin/contracts/token/ERC20/utils/SafeERC20.sol\":8988:9006  eq(mload(0x00), 1) */\n      eq\n        /* \"@openzeppelin/contracts/token/ERC20/utils/SafeERC20.sol\":8979:8986  success */\n      dup4\n        /* \"@openzeppelin/contracts/token/ERC20/utils/SafeERC20.sol\":8975:9007  and(success, eq(mload(0x00), 1)) */\n      and\n        /* \"@openzeppelin/contracts/token/ERC20/utils/SafeERC20.sol\":8965:9571  if iszero(and(success, eq(mload(0x00), 1))) {... */\n      tag_231\n      jumpi\n        /* \"@openzeppelin/contracts/token/ERC20/utils/SafeERC20.sol\":9136:9142  bubble */\n      dup4\n        /* \"@openzeppelin/contracts/token/ERC20/utils/SafeERC20.sol\":9126:9133  success */\n      dup4\n        /* \"@openzeppelin/contracts/token/ERC20/utils/SafeERC20.sol\":9119:9134  iszero(success) */\n      iszero\n        /* \"@openzeppelin/contracts/token/ERC20/utils/SafeERC20.sol\":9115:9143  and(iszero(success), bubble) */\n      and\n        /* \"@openzeppelin/contracts/token/ERC20/utils/SafeERC20.sol\":9112:9277  if and(iszero(success), bubble) {... */\n      iszero\n      tag_232\n      jumpi\n        /* \"@openzeppelin/contracts/token/ERC20/utils/SafeERC20.sol\":9192:9208  returndatasize() */\n      returndatasize\n        /* \"@openzeppelin/contracts/token/ERC20/utils/SafeERC20.sol\":9186:9190  0x00 */\n      0x00\n        /* \"@openzeppelin/contracts/token/ERC20/utils/SafeERC20.sol\":9181:9184  fmp */\n      dup3\n        /* \"@openzeppelin/contracts/token/ERC20/utils/SafeERC20.sol\":9166:9209  returndatacopy(fmp, 0x00, returndatasize()) */\n      returndatacopy\n        /* \"@openzeppelin/contracts/token/ERC20/utils/SafeERC20.sol\":9242:9258  returndatasize() */\n      returndatasize\n        /* \"@openzeppelin/contracts/token/ERC20/utils/SafeERC20.sol\":9237:9240  fmp */\n      dup2\n        /* \"@openzeppelin/contracts/token/ERC20/utils/SafeERC20.sol\":9230:9259  revert(fmp, returndatasize()) */\n      revert\n        /* \"@openzeppelin/contracts/token/ERC20/utils/SafeERC20.sol\":9112:9277  if and(iszero(success), bubble) {... */\n    tag_232:\n        /* \"@openzeppelin/contracts/token/ERC20/utils/SafeERC20.sol\":9553:9554  0 */\n      0x00\n        /* \"@openzeppelin/contracts/token/ERC20/utils/SafeERC20.sol\":9545:9550  token */\n      dup8\n        /* \"@openzeppelin/contracts/token/ERC20/utils/SafeERC20.sol\":9533:9551  extcodesize(token) */\n      extcodesize\n        /* \"@openzeppelin/contracts/token/ERC20/utils/SafeERC20.sol\":9530:9555  gt(extcodesize(token), 0) */\n      gt\n        /* \"@openzeppelin/contracts/token/ERC20/utils/SafeERC20.sol\":9511:9527  returndatasize() */\n      returndatasize\n        /* \"@openzeppelin/contracts/token/ERC20/utils/SafeERC20.sol\":9504:9528  iszero(returndatasize()) */\n      iszero\n        /* \"@openzeppelin/contracts/token/ERC20/utils/SafeERC20.sol\":9500:9556  and(iszero(returndatasize()), gt(extcodesize(token), 0)) */\n      and\n        /* \"@openzeppelin/contracts/token/ERC20/utils/SafeERC20.sol\":9491:9498  success */\n      dup4\n        /* \"@openzeppelin/contracts/token/ERC20/utils/SafeERC20.sol\":9487:9557  and(success, and(iszero(returndatasize()), gt(extcodesize(token), 0))) */\n      and\n        /* \"@openzeppelin/contracts/token/ERC20/utils/SafeERC20.sol\":9476:9557  success := and(success, and(iszero(returndatasize()), gt(extcodesize(token), 0))) */\n      swap3\n      pop\n        /* \"@openzeppelin/contracts/token/ERC20/utils/SafeERC20.sol\":8965:9571  if iszero(and(success, eq(mload(0x00), 1))) {... */\n    tag_231:\n        /* \"@openzeppelin/contracts/token/ERC20/utils/SafeERC20.sol\":9597:9600  fmp */\n      dup1\n        /* \"@openzeppelin/contracts/token/ERC20/utils/SafeERC20.sol\":9591:9595  0x40 */\n      0x40\n        /* \"@openzeppelin/contracts/token/ERC20/utils/SafeERC20.sol\":9584:9601  mstore(0x40, fmp) */\n      mstore\n        /* \"@openzeppelin/contracts/token/ERC20/utils/SafeERC20.sol\":8569:9611  {... */\n      pop\n      pop\n        /* \"@openzeppelin/contracts/token/ERC20/utils/SafeERC20.sol\":8373:9617  function _safeTransfer(IERC20 token, address to, uint256 value, bool bubble) private returns (bool success) {... */\n      swap5\n      swap4\n      pop\n      pop\n      pop\n      pop\n      jump\t// out\n        /* \"@openzeppelin/contracts/token/ERC20/utils/SafeERC20.sol\":10165:11558  function _safeTransferFrom(... */\n    tag_226:\n        /* \"@openzeppelin/contracts/token/ERC20/utils/SafeERC20.sol\":10323:10335  bool success */\n      0x00\n        /* \"@openzeppelin/contracts/token/ERC20/utils/SafeERC20.sol\":10347:10362  bytes4 selector */\n      0x00\n        /* \"@openzeppelin/contracts/token/ERC20/utils/SafeERC20.sol\":10365:10393  IERC20.transferFrom.selector */\n      shl(0xe0, 0x23b872dd)\n        /* \"@openzeppelin/contracts/token/ERC20/utils/SafeERC20.sol\":10347:10393  bytes4 selector = IERC20.transferFrom.selector */\n      swap1\n      pop\n        /* \"@openzeppelin/contracts/token/ERC20/utils/SafeERC20.sol\":10460:10464  0x40 */\n      0x40\n        /* \"@openzeppelin/contracts/token/ERC20/utils/SafeERC20.sol\":10454:10465  mload(0x40) */\n      mload\n        /* \"@openzeppelin/contracts/token/ERC20/utils/SafeERC20.sol\":10491:10499  selector */\n      dup2\n        /* \"@openzeppelin/contracts/token/ERC20/utils/SafeERC20.sol\":10485:10489  0x00 */\n      0x00\n        /* \"@openzeppelin/contracts/token/ERC20/utils/SafeERC20.sol\":10478:10500  mstore(0x00, selector) */\n      mstore\n        /* \"@openzeppelin/contracts/token/ERC20/utils/SafeERC20.sol\":10548:10549  0 */\n      0x00\n        /* \"@openzeppelin/contracts/token/ERC20/utils/SafeERC20.sol\":10544:10550  not(0) */\n      not\n        /* \"@openzeppelin/contracts/token/ERC20/utils/SafeERC20.sol\":10540:10542  96 */\n      0x60\n        /* \"@openzeppelin/contracts/token/ERC20/utils/SafeERC20.sol\":10536:10551  shr(96, not(0)) */\n      shr\n        /* \"@openzeppelin/contracts/token/ERC20/utils/SafeERC20.sol\":10530:10534  from */\n      dup8\n        /* \"@openzeppelin/contracts/token/ERC20/utils/SafeERC20.sol\":10526:10552  and(from, shr(96, not(0))) */\n      and\n        /* \"@openzeppelin/contracts/token/ERC20/utils/SafeERC20.sol\":10520:10524  0x04 */\n      0x04\n        /* \"@openzeppelin/contracts/token/ERC20/utils/SafeERC20.sol\":10513:10553  mstore(0x04, and(from, shr(96, not(0)))) */\n      mstore\n        /* \"@openzeppelin/contracts/token/ERC20/utils/SafeERC20.sol\":10599:10600  0 */\n      0x00\n        /* \"@openzeppelin/contracts/token/ERC20/utils/SafeERC20.sol\":10595:10601  not(0) */\n      not\n        /* \"@openzeppelin/contracts/token/ERC20/utils/SafeERC20.sol\":10591:10593  96 */\n      0x60\n        /* \"@openzeppelin/contracts/token/ERC20/utils/SafeERC20.sol\":10587:10602  shr(96, not(0)) */\n      shr\n        /* \"@openzeppelin/contracts/token/ERC20/utils/SafeERC20.sol\":10583:10585  to */\n      dup7\n        /* \"@openzeppelin/contracts/token/ERC20/utils/SafeERC20.sol\":10579:10603  and(to, shr(96, not(0))) */\n      and\n        /* \"@openzeppelin/contracts/token/ERC20/utils/SafeERC20.sol\":10573:10577  0x24 */\n      0x24\n        /* \"@openzeppelin/contracts/token/ERC20/utils/SafeERC20.sol\":10566:10604  mstore(0x24, and(to, shr(96, not(0)))) */\n      mstore\n        /* \"@openzeppelin/contracts/token/ERC20/utils/SafeERC20.sol\":10630:10635  value */\n      dup5\n        /* \"@openzeppelin/contracts/token/ERC20/utils/SafeERC20.sol\":10624:10628  0x44 */\n      0x44\n        /* \"@openzeppelin/contracts/token/ERC20/utils/SafeERC20.sol\":10617:10636  mstore(0x44, value) */\n      mstore\n        /* \"@openzeppelin/contracts/token/ERC20/utils/SafeERC20.sol\":10700:10704  0x20 */\n      0x20\n        /* \"@openzeppelin/contracts/token/ERC20/utils/SafeERC20.sol\":10694:10698  0x00 */\n      0x00\n        /* \"@openzeppelin/contracts/token/ERC20/utils/SafeERC20.sol\":10688:10692  0x64 */\n      0x64\n        /* \"@openzeppelin/contracts/token/ERC20/utils/SafeERC20.sol\":10682:10686  0x00 */\n      0x00\n        /* \"@openzeppelin/contracts/token/ERC20/utils/SafeERC20.sol\":10679:10680  0 */\n      0x00\n        /* \"@openzeppelin/contracts/token/ERC20/utils/SafeERC20.sol\":10672:10677  token */\n      dup13\n        /* \"@openzeppelin/contracts/token/ERC20/utils/SafeERC20.sol\":10665:10670  gas() */\n      gas\n        /* \"@openzeppelin/contracts/token/ERC20/utils/SafeERC20.sol\":10660:10705  call(gas(), token, 0, 0x00, 0x64, 0x00, 0x20) */\n      call\n        /* \"@openzeppelin/contracts/token/ERC20/utils/SafeERC20.sol\":10649:10705  success := call(gas(), token, 0, 0x00, 0x64, 0x00, 0x20) */\n      swap3\n      pop\n        /* \"@openzeppelin/contracts/token/ERC20/utils/SafeERC20.sol\":10917:10918  1 */\n      0x01\n        /* \"@openzeppelin/contracts/token/ERC20/utils/SafeERC20.sol\":10910:10914  0x00 */\n      0x00\n        /* \"@openzeppelin/contracts/token/ERC20/utils/SafeERC20.sol\":10904:10915  mload(0x00) */\n      mload\n        /* \"@openzeppelin/contracts/token/ERC20/utils/SafeERC20.sol\":10901:10919  eq(mload(0x00), 1) */\n      eq\n        /* \"@openzeppelin/contracts/token/ERC20/utils/SafeERC20.sol\":10892:10899  success */\n      dup4\n        /* \"@openzeppelin/contracts/token/ERC20/utils/SafeERC20.sol\":10888:10920  and(success, eq(mload(0x00), 1)) */\n      and\n        /* \"@openzeppelin/contracts/token/ERC20/utils/SafeERC20.sol\":10878:11484  if iszero(and(success, eq(mload(0x00), 1))) {... */\n      tag_234\n      jumpi\n        /* \"@openzeppelin/contracts/token/ERC20/utils/SafeERC20.sol\":11049:11055  bubble */\n      dup4\n        /* \"@openzeppelin/contracts/token/ERC20/utils/SafeERC20.sol\":11039:11046  success */\n      dup4\n        /* \"@openzeppelin/contracts/token/ERC20/utils/SafeERC20.sol\":11032:11047  iszero(success) */\n      iszero\n        /* \"@openzeppelin/contracts/token/ERC20/utils/SafeERC20.sol\":11028:11056  and(iszero(success), bubble) */\n      and\n        /* \"@openzeppelin/contracts/token/ERC20/utils/SafeERC20.sol\":11025:11190  if and(iszero(success), bubble) {... */\n      iszero\n      tag_235\n      jumpi\n        /* \"@openzeppelin/contracts/token/ERC20/utils/SafeERC20.sol\":11105:11121  returndatasize() */\n      returndatasize\n        /* \"@openzeppelin/contracts/token/ERC20/utils/SafeERC20.sol\":11099:11103  0x00 */\n      0x00\n        /* \"@openzeppelin/contracts/token/ERC20/utils/SafeERC20.sol\":11094:11097  fmp */\n      dup3\n        /* \"@openzeppelin/contracts/token/ERC20/utils/SafeERC20.sol\":11079:11122  returndatacopy(fmp, 0x00, returndatasize()) */\n      returndatacopy\n        /* \"@openzeppelin/contracts/token/ERC20/utils/SafeERC20.sol\":11155:11171  returndatasize() */\n      returndatasize\n        /* \"@openzeppelin/contracts/token/ERC20/utils/SafeERC20.sol\":11150:11153  fmp */\n      dup2\n        /* \"@openzeppelin/contracts/token/ERC20/utils/SafeERC20.sol\":11143:11172  revert(fmp, returndatasize()) */\n      revert\n        /* \"@openzeppelin/contracts/token/ERC20/utils/SafeERC20.sol\":11025:11190  if and(iszero(success), bubble) {... */\n    tag_235:\n        /* \"@openzeppelin/contracts/token/ERC20/utils/SafeERC20.sol\":11466:11467  0 */\n      0x00\n        /* \"@openzeppelin/contracts/token/ERC20/utils/SafeERC20.sol\":11458:11463  token */\n      dup9\n        /* \"@openzeppelin/contracts/token/ERC20/utils/SafeERC20.sol\":11446:11464  extcodesize(token) */\n      extcodesize\n        /* \"@openzeppelin/contracts/token/ERC20/utils/SafeERC20.sol\":11443:11468  gt(extcodesize(token), 0) */\n      gt\n        /* \"@openzeppelin/contracts/token/ERC20/utils/SafeERC20.sol\":11424:11440  returndatasize() */\n      returndatasize\n        /* \"@openzeppelin/contracts/token/ERC20/utils/SafeERC20.sol\":11417:11441  iszero(returndatasize()) */\n      iszero\n        /* \"@openzeppelin/contracts/token/ERC20/utils/SafeERC20.sol\":11413:11469  and(iszero(returndatasize()), gt(extcodesize(token), 0)) */\n      and\n        /* \"@openzeppelin/contracts/token/ERC20/utils/SafeERC20.sol\":11404:11411  success */\n      dup4\n        /* \"@openzeppelin/contracts/token/ERC20/utils/SafeERC20.sol\":11400:11470  and(success, and(iszero(returndatasize()), gt(extcodesize(token), 0))) */\n      and\n        /* \"@openzeppelin/contracts/token/ERC20/utils/SafeERC20.sol\":11389:11470  success := and(success, and(iszero(returndatasize()), gt(extcodesize(token), 0))) */\n      swap3\n      pop\n        /* \"@openzeppelin/contracts/token/ERC20/utils/SafeERC20.sol\":10878:11484  if iszero(and(success, eq(mload(0x00), 1))) {... */\n    tag_234:\n        /* \"@openzeppelin/contracts/token/ERC20/utils/SafeERC20.sol\":11510:11513  fmp */\n      dup1\n        /* \"@openzeppelin/contracts/token/ERC20/utils/SafeERC20.sol\":11504:11508  0x40 */\n      0x40\n        /* \"@openzeppelin/contracts/token/ERC20/utils/SafeERC20.sol\":11497:11514  mstore(0x40, fmp) */\n      mstore\n        /* \"@openzeppelin/contracts/token/ERC20/utils/SafeERC20.sol\":11540:11541  0 */\n      0x00\n        /* \"@openzeppelin/contracts/token/ERC20/utils/SafeERC20.sol\":11534:11538  0x60 */\n      0x60\n        /* \"@openzeppelin/contracts/token/ERC20/utils/SafeERC20.sol\":11527:11542  mstore(0x60, 0) */\n      mstore\n        /* \"@openzeppelin/contracts/token/ERC20/utils/SafeERC20.sol\":10429:11552  {... */\n      pop\n      pop\n        /* \"@openzeppelin/contracts/token/ERC20/utils/SafeERC20.sol\":10165:11558  function _safeTransferFrom(... */\n      swap6\n      swap5\n      pop\n      pop\n      pop\n      pop\n      pop\n      jump\t// out\n    tag_93:\n      mload(0x40)\n      dup1\n      0x60\n      add\n      0x40\n      mstore\n      dup1\n      0x60\n      dup2\n      mstore\n      0x20\n      add\n      0x60\n      dup2\n      mstore\n      0x20\n      add\n      0x60\n      dup2\n      mstore\n      pop\n      swap1\n      jump\t// out\n        /* \"#utility.yul\":7:106   */\n    tag_236:\n        /* \"#utility.yul\":59:65   */\n      0x00\n        /* \"#utility.yul\":93:98   */\n      dup2\n        /* \"#utility.yul\":87:99   */\n      mload\n        /* \"#utility.yul\":77:99   */\n      swap1\n      pop\n        /* \"#utility.yul\":7:106   */\n      swap2\n      swap1\n      pop\n      jump\t// out\n        /* \"#utility.yul\":112:281   */\n    tag_237:\n        /* \"#utility.yul\":196:207   */\n      0x00\n        /* \"#utility.yul\":230:236   */\n      dup3\n        /* \"#utility.yul\":225:228   */\n      dup3\n        /* \"#utility.yul\":218:237   */\n      mstore\n        /* \"#utility.yul\":270:274   */\n      0x20\n        /* \"#utility.yul\":265:268   */\n      dup3\n        /* \"#utility.yul\":261:275   */\n      add\n        /* \"#utility.yul\":246:275   */\n      swap1\n      pop\n        /* \"#utility.yul\":112:281   */\n      swap3\n      swap2\n      pop\n      pop\n      jump\t// out\n        /* \"#utility.yul\":287:426   */\n    tag_238:\n        /* \"#utility.yul\":376:382   */\n      dup3\n        /* \"#utility.yul\":371:374   */\n      dup2\n        /* \"#utility.yul\":366:369   */\n      dup4\n        /* \"#utility.yul\":360:383   */\n      mcopy\n        /* \"#utility.yul\":417:418   */\n      0x00\n        /* \"#utility.yul\":408:414   */\n      dup4\n        /* \"#utility.yul\":403:406   */\n      dup4\n        /* \"#utility.yul\":399:415   */\n      add\n        /* \"#utility.yul\":392:419   */\n      mstore\n        /* \"#utility.yul\":287:426   */\n      pop\n      pop\n      pop\n      jump\t// out\n        /* \"#utility.yul\":432:534   */\n    tag_239:\n        /* \"#utility.yul\":473:479   */\n      0x00\n        /* \"#utility.yul\":524:526   */\n      0x1f\n        /* \"#utility.yul\":520:527   */\n      not\n        /* \"#utility.yul\":515:517   */\n      0x1f\n        /* \"#utility.yul\":508:513   */\n      dup4\n        /* \"#utility.yul\":504:518   */\n      add\n        /* \"#utility.yul\":500:528   */\n      and\n        /* \"#utility.yul\":490:528   */\n      swap1\n      pop\n        /* \"#utility.yul\":432:534   */\n      swap2\n      swap1\n      pop\n      jump\t// out\n        /* \"#utility.yul\":540:917   */\n    tag_240:\n        /* \"#utility.yul\":628:631   */\n      0x00\n        /* \"#utility.yul\":656:695   */\n      tag_319\n        /* \"#utility.yul\":689:694   */\n      dup3\n        /* \"#utility.yul\":656:695   */\n      tag_236\n      jump\t// in\n    tag_319:\n        /* \"#utility.yul\":711:782   */\n      tag_320\n        /* \"#utility.yul\":775:781   */\n      dup2\n        /* \"#utility.yul\":770:773   */\n      dup6\n        /* \"#utility.yul\":711:782   */\n      tag_237\n      jump\t// in\n    tag_320:\n        /* \"#utility.yul\":704:782   */\n      swap4\n      pop\n        /* \"#utility.yul\":791:856   */\n      tag_321\n        /* \"#utility.yul\":849:855   */\n      dup2\n        /* \"#utility.yul\":844:847   */\n      dup6\n        /* \"#utility.yul\":837:841   */\n      0x20\n        /* \"#utility.yul\":830:835   */\n      dup7\n        /* \"#utility.yul\":826:842   */\n      add\n        /* \"#utility.yul\":791:856   */\n      tag_238\n      jump\t// in\n    tag_321:\n        /* \"#utility.yul\":881:910   */\n      tag_322\n        /* \"#utility.yul\":903:909   */\n      dup2\n        /* \"#utility.yul\":881:910   */\n      tag_239\n      jump\t// in\n    tag_322:\n        /* \"#utility.yul\":876:879   */\n      dup5\n        /* \"#utility.yul\":872:911   */\n      add\n        /* \"#utility.yul\":865:911   */\n      swap2\n      pop\n        /* \"#utility.yul\":632:917   */\n      pop\n        /* \"#utility.yul\":540:917   */\n      swap3\n      swap2\n      pop\n      pop\n      jump\t// out\n        /* \"#utility.yul\":923:1236   */\n    tag_19:\n        /* \"#utility.yul\":1036:1040   */\n      0x00\n        /* \"#utility.yul\":1074:1076   */\n      0x20\n        /* \"#utility.yul\":1063:1072   */\n      dup3\n        /* \"#utility.yul\":1059:1077   */\n      add\n        /* \"#utility.yul\":1051:1077   */\n      swap1\n      pop\n        /* \"#utility.yul\":1123:1132   */\n      dup2\n        /* \"#utility.yul\":1117:1121   */\n      dup2\n        /* \"#utility.yul\":1113:1133   */\n      sub\n        /* \"#utility.yul\":1109:1110   */\n      0x00\n        /* \"#utility.yul\":1098:1107   */\n      dup4\n        /* \"#utility.yul\":1094:1111   */\n      add\n        /* \"#utility.yul\":1087:1134   */\n      mstore\n        /* \"#utility.yul\":1151:1229   */\n      tag_324\n        /* \"#utility.yul\":1224:1228   */\n      dup2\n        /* \"#utility.yul\":1215:1221   */\n      dup5\n        /* \"#utility.yul\":1151:1229   */\n      tag_240\n      jump\t// in\n    tag_324:\n        /* \"#utility.yul\":1143:1229   */\n      swap1\n      pop\n        /* \"#utility.yul\":923:1236   */\n      swap3\n      swap2\n      pop\n      pop\n      jump\t// out\n        /* \"#utility.yul\":1242:1317   */\n    tag_241:\n        /* \"#utility.yul\":1275:1281   */\n      0x00\n        /* \"#utility.yul\":1308:1310   */\n      0x40\n        /* \"#utility.yul\":1302:1311   */\n      mload\n        /* \"#utility.yul\":1292:1311   */\n      swap1\n      pop\n        /* \"#utility.yul\":1242:1317   */\n      swap1\n      jump\t// out\n        /* \"#utility.yul\":1323:1440   */\n    tag_242:\n        /* \"#utility.yul\":1432:1433   */\n      0x00\n        /* \"#utility.yul\":1429:1430   */\n      0x00\n        /* \"#utility.yul\":1422:1434   */\n      revert\n        /* \"#utility.yul\":1446:1563   */\n    tag_243:\n        /* \"#utility.yul\":1555:1556   */\n      0x00\n        /* \"#utility.yul\":1552:1553   */\n      0x00\n        /* \"#utility.yul\":1545:1557   */\n      revert\n        /* \"#utility.yul\":1569:1686   */\n    tag_244:\n        /* \"#utility.yul\":1678:1679   */\n      0x00\n        /* \"#utility.yul\":1675:1676   */\n      0x00\n        /* \"#utility.yul\":1668:1680   */\n      revert\n        /* \"#utility.yul\":1692:1809   */\n    tag_245:\n        /* \"#utility.yul\":1801:1802   */\n      0x00\n        /* \"#utility.yul\":1798:1799   */\n      0x00\n        /* \"#utility.yul\":1791:1803   */\n      revert\n        /* \"#utility.yul\":1815:1995   */\n    tag_89:\n        /* \"#utility.yul\":1863:1940   */\n      0x4e487b7100000000000000000000000000000000000000000000000000000000\n        /* \"#utility.yul\":1860:1861   */\n      0x00\n        /* \"#utility.yul\":1853:1941   */\n      mstore\n        /* \"#utility.yul\":1960:1964   */\n      0x41\n        /* \"#utility.yul\":1957:1958   */\n      0x04\n        /* \"#utility.yul\":1950:1965   */\n      mstore\n        /* \"#utility.yul\":1984:1988   */\n      0x24\n        /* \"#utility.yul\":1981:1982   */\n      0x00\n        /* \"#utility.yul\":1974:1989   */\n      revert\n        /* \"#utility.yul\":2001:2282   */\n    tag_246:\n        /* \"#utility.yul\":2084:2111   */\n      tag_332\n        /* \"#utility.yul\":2106:2110   */\n      dup3\n        /* \"#utility.yul\":2084:2111   */\n      tag_239\n      jump\t// in\n    tag_332:\n        /* \"#utility.yul\":2076:2082   */\n      dup2\n        /* \"#utility.yul\":2072:2112   */\n      add\n        /* \"#utility.yul\":2214:2220   */\n      dup2\n        /* \"#utility.yul\":2202:2212   */\n      dup2\n        /* \"#utility.yul\":2199:2221   */\n      lt\n        /* \"#utility.yul\":2178:2196   */\n      0xffffffffffffffff\n        /* \"#utility.yul\":2166:2176   */\n      dup3\n        /* \"#utility.yul\":2163:2197   */\n      gt\n        /* \"#utility.yul\":2160:2222   */\n      or\n        /* \"#utility.yul\":2157:2245   */\n      iszero\n      tag_333\n      jumpi\n        /* \"#utility.yul\":2225:2243   */\n      tag_334\n      tag_89\n      jump\t// in\n    tag_334:\n        /* \"#utility.yul\":2157:2245   */\n    tag_333:\n        /* \"#utility.yul\":2265:2275   */\n      dup1\n        /* \"#utility.yul\":2261:2263   */\n      0x40\n        /* \"#utility.yul\":2254:2276   */\n      mstore\n        /* \"#utility.yul\":2044:2282   */\n      pop\n        /* \"#utility.yul\":2001:2282   */\n      pop\n      pop\n      jump\t// out\n        /* \"#utility.yul\":2288:2417   */\n    tag_247:\n        /* \"#utility.yul\":2322:2328   */\n      0x00\n        /* \"#utility.yul\":2349:2369   */\n      tag_336\n      tag_241\n      jump\t// in\n    tag_336:\n        /* \"#utility.yul\":2339:2369   */\n      swap1\n      pop\n        /* \"#utility.yul\":2378:2411   */\n      tag_337\n        /* \"#utility.yul\":2406:2410   */\n      dup3\n        /* \"#utility.yul\":2398:2404   */\n      dup3\n        /* \"#utility.yul\":2378:2411   */\n      tag_246\n      jump\t// in\n    tag_337:\n        /* \"#utility.yul\":2288:2417   */\n      swap2\n      swap1\n      pop\n      jump\t// out\n        /* \"#utility.yul\":2423:2731   */\n    tag_248:\n        /* \"#utility.yul\":2485:2489   */\n      0x00\n        /* \"#utility.yul\":2575:2593   */\n      0xffffffffffffffff\n        /* \"#utility.yul\":2567:2573   */\n      dup3\n        /* \"#utility.yul\":2564:2594   */\n      gt\n        /* \"#utility.yul\":2561:2617   */\n      iszero\n      tag_339\n      jumpi\n        /* \"#utility.yul\":2597:2615   */\n      tag_340\n      tag_89\n      jump\t// in\n    tag_340:\n        /* \"#utility.yul\":2561:2617   */\n    tag_339:\n        /* \"#utility.yul\":2635:2664   */\n      tag_341\n        /* \"#utility.yul\":2657:2663   */\n      dup3\n        /* \"#utility.yul\":2635:2664   */\n      tag_239\n      jump\t// in\n    tag_341:\n        /* \"#utility.yul\":2627:2664   */\n      swap1\n      pop\n        /* \"#utility.yul\":2719:2723   */\n      0x20\n        /* \"#utility.yul\":2713:2717   */\n      dup2\n        /* \"#utility.yul\":2709:2724   */\n      add\n        /* \"#utility.yul\":2701:2724   */\n      swap1\n      pop\n        /* \"#utility.yul\":2423:2731   */\n      swap2\n      swap1\n      pop\n      jump\t// out\n        /* \"#utility.yul\":2737:2885   */\n    tag_249:\n        /* \"#utility.yul\":2835:2841   */\n      dup3\n        /* \"#utility.yul\":2830:2833   */\n      dup2\n        /* \"#utility.yul\":2825:2828   */\n      dup4\n        /* \"#utility.yul\":2812:2842   */\n      calldatacopy\n        /* \"#utility.yul\":2876:2877   */\n      0x00\n        /* \"#utility.yul\":2867:2873   */\n      dup4\n        /* \"#utility.yul\":2862:2865   */\n      dup4\n        /* \"#utility.yul\":2858:2874   */\n      add\n        /* \"#utility.yul\":2851:2878   */\n      mstore\n        /* \"#utility.yul\":2737:2885   */\n      pop\n      pop\n      pop\n      jump\t// out\n        /* \"#utility.yul\":2891:3316   */\n    tag_250:\n        /* \"#utility.yul\":2969:2974   */\n      0x00\n        /* \"#utility.yul\":2994:3060   */\n      tag_344\n        /* \"#utility.yul\":3010:3059   */\n      tag_345\n        /* \"#utility.yul\":3052:3058   */\n      dup5\n        /* \"#utility.yul\":3010:3059   */\n      tag_248\n      jump\t// in\n    tag_345:\n        /* \"#utility.yul\":2994:3060   */\n      tag_247\n      jump\t// in\n    tag_344:\n        /* \"#utility.yul\":2985:3060   */\n      swap1\n      pop\n        /* \"#utility.yul\":3083:3089   */\n      dup3\n        /* \"#utility.yul\":3076:3081   */\n      dup2\n        /* \"#utility.yul\":3069:3090   */\n      mstore\n        /* \"#utility.yul\":3121:3125   */\n      0x20\n        /* \"#utility.yul\":3114:3119   */\n      dup2\n        /* \"#utility.yul\":3110:3126   */\n      add\n        /* \"#utility.yul\":3159:3162   */\n      dup5\n        /* \"#utility.yul\":3150:3156   */\n      dup5\n        /* \"#utility.yul\":3145:3148   */\n      dup5\n        /* \"#utility.yul\":3141:3157   */\n      add\n        /* \"#utility.yul\":3138:3163   */\n      gt\n        /* \"#utility.yul\":3135:3247   */\n      iszero\n      tag_346\n      jumpi\n        /* \"#utility.yul\":3166:3245   */\n      tag_347\n      tag_245\n      jump\t// in\n    tag_347:\n        /* \"#utility.yul\":3135:3247   */\n    tag_346:\n        /* \"#utility.yul\":3256:3310   */\n      tag_348\n        /* \"#utility.yul\":3303:3309   */\n      dup5\n        /* \"#utility.yul\":3298:3301   */\n      dup3\n        /* \"#utility.yul\":3293:3296   */\n      dup6\n        /* \"#utility.yul\":3256:3310   */\n      tag_249\n      jump\t// in\n    tag_348:\n        /* \"#utility.yul\":2975:3316   */\n      pop\n        /* \"#utility.yul\":2891:3316   */\n      swap4\n      swap3\n      pop\n      pop\n      pop\n      jump\t// out\n        /* \"#utility.yul\":3336:3676   */\n    tag_251:\n        /* \"#utility.yul\":3392:3397   */\n      0x00\n        /* \"#utility.yul\":3441:3444   */\n      dup3\n        /* \"#utility.yul\":3434:3438   */\n      0x1f\n        /* \"#utility.yul\":3426:3432   */\n      dup4\n        /* \"#utility.yul\":3422:3439   */\n      add\n        /* \"#utility.yul\":3418:3445   */\n      slt\n        /* \"#utility.yul\":3408:3530   */\n      tag_350\n      jumpi\n        /* \"#utility.yul\":3449:3528   */\n      tag_351\n      tag_244\n      jump\t// in\n    tag_351:\n        /* \"#utility.yul\":3408:3530   */\n    tag_350:\n        /* \"#utility.yul\":3566:3572   */\n      dup2\n        /* \"#utility.yul\":3553:3573   */\n      calldataload\n        /* \"#utility.yul\":3591:3670   */\n      tag_352\n        /* \"#utility.yul\":3666:3669   */\n      dup5\n        /* \"#utility.yul\":3658:3664   */\n      dup3\n        /* \"#utility.yul\":3651:3655   */\n      0x20\n        /* \"#utility.yul\":3643:3649   */\n      dup7\n        /* \"#utility.yul\":3639:3656   */\n      add\n        /* \"#utility.yul\":3591:3670   */\n      tag_250\n      jump\t// in\n    tag_352:\n        /* \"#utility.yul\":3582:3670   */\n      swap2\n      pop\n        /* \"#utility.yul\":3398:3676   */\n      pop\n        /* \"#utility.yul\":3336:3676   */\n      swap3\n      swap2\n      pop\n      pop\n      jump\t// out\n        /* \"#utility.yul\":3682:4191   */\n    tag_22:\n        /* \"#utility.yul\":3751:3757   */\n      0x00\n        /* \"#utility.yul\":3800:3802   */\n      0x20\n        /* \"#utility.yul\":3788:3797   */\n      dup3\n        /* \"#utility.yul\":3779:3786   */\n      dup5\n        /* \"#utility.yul\":3775:3798   */\n      sub\n        /* \"#utility.yul\":3771:3803   */\n      slt\n        /* \"#utility.yul\":3768:3887   */\n      iszero\n      tag_354\n      jumpi\n        /* \"#utility.yul\":3806:3885   */\n      tag_355\n      tag_242\n      jump\t// in\n    tag_355:\n        /* \"#utility.yul\":3768:3887   */\n    tag_354:\n        /* \"#utility.yul\":3954:3955   */\n      0x00\n        /* \"#utility.yul\":3943:3952   */\n      dup3\n        /* \"#utility.yul\":3939:3956   */\n      add\n        /* \"#utility.yul\":3926:3957   */\n      calldataload\n        /* \"#utility.yul\":3984:4002   */\n      0xffffffffffffffff\n        /* \"#utility.yul\":3976:3982   */\n      dup2\n        /* \"#utility.yul\":3973:4003   */\n      gt\n        /* \"#utility.yul\":3970:4087   */\n      iszero\n      tag_356\n      jumpi\n        /* \"#utility.yul\":4006:4085   */\n      tag_357\n      tag_243\n      jump\t// in\n    tag_357:\n        /* \"#utility.yul\":3970:4087   */\n    tag_356:\n        /* \"#utility.yul\":4111:4174   */\n      tag_358\n        /* \"#utility.yul\":4166:4173   */\n      dup5\n        /* \"#utility.yul\":4157:4163   */\n      dup3\n        /* \"#utility.yul\":4146:4155   */\n      dup6\n        /* \"#utility.yul\":4142:4164   */\n      add\n        /* \"#utility.yul\":4111:4174   */\n      tag_251\n      jump\t// in\n    tag_358:\n        /* \"#utility.yul\":4101:4174   */\n      swap2\n      pop\n        /* \"#utility.yul\":3897:4184   */\n      pop\n        /* \"#utility.yul\":3682:4191   */\n      swap3\n      swap2\n      pop\n      pop\n      jump\t// out\n        /* \"#utility.yul\":4197:4323   */\n    tag_252:\n        /* \"#utility.yul\":4234:4241   */\n      0x00\n        /* \"#utility.yul\":4274:4316   */\n      0xffffffffffffffffffffffffffffffffffffffff\n        /* \"#utility.yul\":4267:4272   */\n      dup3\n        /* \"#utility.yul\":4263:4317   */\n      and\n        /* \"#utility.yul\":4252:4317   */\n      swap1\n      pop\n        /* \"#utility.yul\":4197:4323   */\n      swap2\n      swap1\n      pop\n      jump\t// out\n        /* \"#utility.yul\":4329:4425   */\n    tag_253:\n        /* \"#utility.yul\":4366:4373   */\n      0x00\n        /* \"#utility.yul\":4395:4419   */\n      tag_361\n        /* \"#utility.yul\":4413:4418   */\n      dup3\n        /* \"#utility.yul\":4395:4419   */\n      tag_252\n      jump\t// in\n    tag_361:\n        /* \"#utility.yul\":4384:4419   */\n      swap1\n      pop\n        /* \"#utility.yul\":4329:4425   */\n      swap2\n      swap1\n      pop\n      jump\t// out\n        /* \"#utility.yul\":4431:4549   */\n    tag_254:\n        /* \"#utility.yul\":4518:4542   */\n      tag_363\n        /* \"#utility.yul\":4536:4541   */\n      dup2\n        /* \"#utility.yul\":4518:4542   */\n      tag_253\n      jump\t// in\n    tag_363:\n        /* \"#utility.yul\":4513:4516   */\n      dup3\n        /* \"#utility.yul\":4506:4543   */\n      mstore\n        /* \"#utility.yul\":4431:4549   */\n      pop\n      pop\n      jump\t// out\n        /* \"#utility.yul\":4555:4777   */\n    tag_25:\n        /* \"#utility.yul\":4648:4652   */\n      0x00\n        /* \"#utility.yul\":4686:4688   */\n      0x20\n        /* \"#utility.yul\":4675:4684   */\n      dup3\n        /* \"#utility.yul\":4671:4689   */\n      add\n        /* \"#utility.yul\":4663:4689   */\n      swap1\n      pop\n        /* \"#utility.yul\":4699:4770   */\n      tag_365\n        /* \"#utility.yul\":4767:4768   */\n      0x00\n        /* \"#utility.yul\":4756:4765   */\n      dup4\n        /* \"#utility.yul\":4752:4769   */\n      add\n        /* \"#utility.yul\":4743:4749   */\n      dup5\n        /* \"#utility.yul\":4699:4770   */\n      tag_254\n      jump\t// in\n    tag_365:\n        /* \"#utility.yul\":4555:4777   */\n      swap3\n      swap2\n      pop\n      pop\n      jump\t// out\n        /* \"#utility.yul\":4783:4905   */\n    tag_255:\n        /* \"#utility.yul\":4856:4880   */\n      tag_367\n        /* \"#utility.yul\":4874:4879   */\n      dup2\n        /* \"#utility.yul\":4856:4880   */\n      tag_253\n      jump\t// in\n    tag_367:\n        /* \"#utility.yul\":4849:4854   */\n      dup2\n        /* \"#utility.yul\":4846:4881   */\n      eq\n        /* \"#utility.yul\":4836:4899   */\n      tag_368\n      jumpi\n        /* \"#utility.yul\":4895:4896   */\n      0x00\n        /* \"#utility.yul\":4892:4893   */\n      0x00\n        /* \"#utility.yul\":4885:4897   */\n      revert\n        /* \"#utility.yul\":4836:4899   */\n    tag_368:\n        /* \"#utility.yul\":4783:4905   */\n      pop\n      jump\t// out\n        /* \"#utility.yul\":4911:5050   */\n    tag_256:\n        /* \"#utility.yul\":4957:4962   */\n      0x00\n        /* \"#utility.yul\":4995:5001   */\n      dup2\n        /* \"#utility.yul\":4982:5002   */\n      calldataload\n        /* \"#utility.yul\":4973:5002   */\n      swap1\n      pop\n        /* \"#utility.yul\":5011:5044   */\n      tag_370\n        /* \"#utility.yul\":5038:5043   */\n      dup2\n        /* \"#utility.yul\":5011:5044   */\n      tag_255\n      jump\t// in\n    tag_370:\n        /* \"#utility.yul\":4911:5050   */\n      swap3\n      swap2\n      pop\n      pop\n      jump\t// out\n        /* \"#utility.yul\":5056:5385   */\n    tag_28:\n        /* \"#utility.yul\":5115:5121   */\n      0x00\n        /* \"#utility.yul\":5164:5166   */\n      0x20\n        /* \"#utility.yul\":5152:5161   */\n      dup3\n        /* \"#utility.yul\":5143:5150   */\n      dup5\n        /* \"#utility.yul\":5139:5162   */\n      sub\n        /* \"#utility.yul\":5135:5167   */\n      slt\n        /* \"#utility.yul\":5132:5251   */\n      iszero\n      tag_372\n      jumpi\n        /* \"#utility.yul\":5170:5249   */\n      tag_373\n      tag_242\n      jump\t// in\n    tag_373:\n        /* \"#utility.yul\":5132:5251   */\n    tag_372:\n        /* \"#utility.yul\":5290:5291   */\n      0x00\n        /* \"#utility.yul\":5315:5368   */\n      tag_374\n        /* \"#utility.yul\":5360:5367   */\n      dup5\n        /* \"#utility.yul\":5351:5357   */\n      dup3\n        /* \"#utility.yul\":5340:5349   */\n      dup6\n        /* \"#utility.yul\":5336:5358   */\n      add\n        /* \"#utility.yul\":5315:5368   */\n      tag_256\n      jump\t// in\n    tag_374:\n        /* \"#utility.yul\":5305:5368   */\n      swap2\n      pop\n        /* \"#utility.yul\":5261:5378   */\n      pop\n        /* \"#utility.yul\":5056:5385   */\n      swap3\n      swap2\n      pop\n      pop\n      jump\t// out\n        /* \"#utility.yul\":5391:5481   */\n    tag_257:\n        /* \"#utility.yul\":5425:5432   */\n      0x00\n        /* \"#utility.yul\":5468:5473   */\n      dup2\n        /* \"#utility.yul\":5461:5474   */\n      iszero\n        /* \"#utility.yul\":5454:5475   */\n      iszero\n        /* \"#utility.yul\":5443:5475   */\n      swap1\n      pop\n        /* \"#utility.yul\":5391:5481   */\n      swap2\n      swap1\n      pop\n      jump\t// out\n        /* \"#utility.yul\":5487:5596   */\n    tag_258:\n        /* \"#utility.yul\":5568:5589   */\n      tag_377\n        /* \"#utility.yul\":5583:5588   */\n      dup2\n        /* \"#utility.yul\":5568:5589   */\n      tag_257\n      jump\t// in\n    tag_377:\n        /* \"#utility.yul\":5563:5566   */\n      dup3\n        /* \"#utility.yul\":5556:5590   */\n      mstore\n        /* \"#utility.yul\":5487:5596   */\n      pop\n      pop\n      jump\t// out\n        /* \"#utility.yul\":5602:5812   */\n    tag_31:\n        /* \"#utility.yul\":5689:5693   */\n      0x00\n        /* \"#utility.yul\":5727:5729   */\n      0x20\n        /* \"#utility.yul\":5716:5725   */\n      dup3\n        /* \"#utility.yul\":5712:5730   */\n      add\n        /* \"#utility.yul\":5704:5730   */\n      swap1\n      pop\n        /* \"#utility.yul\":5740:5805   */\n      tag_379\n        /* \"#utility.yul\":5802:5803   */\n      0x00\n        /* \"#utility.yul\":5791:5800   */\n      dup4\n        /* \"#utility.yul\":5787:5804   */\n      add\n        /* \"#utility.yul\":5778:5784   */\n      dup5\n        /* \"#utility.yul\":5740:5805   */\n      tag_258\n      jump\t// in\n    tag_379:\n        /* \"#utility.yul\":5602:5812   */\n      swap3\n      swap2\n      pop\n      pop\n      jump\t// out\n        /* \"#utility.yul\":5818:5935   */\n    tag_259:\n        /* \"#utility.yul\":5927:5928   */\n      0x00\n        /* \"#utility.yul\":5924:5925   */\n      0x00\n        /* \"#utility.yul\":5917:5929   */\n      revert\n        /* \"#utility.yul\":5941:6058   */\n    tag_260:\n        /* \"#utility.yul\":6050:6051   */\n      0x00\n        /* \"#utility.yul\":6047:6048   */\n      0x00\n        /* \"#utility.yul\":6040:6052   */\n      revert\n        /* \"#utility.yul\":6078:6631   */\n    tag_261:\n        /* \"#utility.yul\":6136:6144   */\n      0x00\n        /* \"#utility.yul\":6146:6152   */\n      0x00\n        /* \"#utility.yul\":6196:6199   */\n      dup4\n        /* \"#utility.yul\":6189:6193   */\n      0x1f\n        /* \"#utility.yul\":6181:6187   */\n      dup5\n        /* \"#utility.yul\":6177:6194   */\n      add\n        /* \"#utility.yul\":6173:6200   */\n      slt\n        /* \"#utility.yul\":6163:6285   */\n      tag_383\n      jumpi\n        /* \"#utility.yul\":6204:6283   */\n      tag_384\n      tag_244\n      jump\t// in\n    tag_384:\n        /* \"#utility.yul\":6163:6285   */\n    tag_383:\n        /* \"#utility.yul\":6317:6323   */\n      dup3\n        /* \"#utility.yul\":6304:6324   */\n      calldataload\n        /* \"#utility.yul\":6294:6324   */\n      swap1\n      pop\n        /* \"#utility.yul\":6347:6365   */\n      0xffffffffffffffff\n        /* \"#utility.yul\":6339:6345   */\n      dup2\n        /* \"#utility.yul\":6336:6366   */\n      gt\n        /* \"#utility.yul\":6333:6450   */\n      iszero\n      tag_385\n      jumpi\n        /* \"#utility.yul\":6369:6448   */\n      tag_386\n      tag_259\n      jump\t// in\n    tag_386:\n        /* \"#utility.yul\":6333:6450   */\n    tag_385:\n        /* \"#utility.yul\":6483:6487   */\n      0x20\n        /* \"#utility.yul\":6475:6481   */\n      dup4\n        /* \"#utility.yul\":6471:6488   */\n      add\n        /* \"#utility.yul\":6459:6488   */\n      swap2\n      pop\n        /* \"#utility.yul\":6537:6540   */\n      dup4\n        /* \"#utility.yul\":6529:6533   */\n      0x01\n        /* \"#utility.yul\":6521:6527   */\n      dup3\n        /* \"#utility.yul\":6517:6534   */\n      mul\n        /* \"#utility.yul\":6507:6515   */\n      dup4\n        /* \"#utility.yul\":6503:6535   */\n      add\n        /* \"#utility.yul\":6500:6541   */\n      gt\n        /* \"#utility.yul\":6497:6625   */\n      iszero\n      tag_387\n      jumpi\n        /* \"#utility.yul\":6544:6623   */\n      tag_388\n      tag_260\n      jump\t// in\n    tag_388:\n        /* \"#utility.yul\":6497:6625   */\n    tag_387:\n        /* \"#utility.yul\":6078:6631   */\n      swap3\n      pop\n      swap3\n      swap1\n      pop\n      jump\t// out\n        /* \"#utility.yul\":6637:6714   */\n    tag_262:\n        /* \"#utility.yul\":6674:6681   */\n      0x00\n        /* \"#utility.yul\":6703:6708   */\n      dup2\n        /* \"#utility.yul\":6692:6708   */\n      swap1\n      pop\n        /* \"#utility.yul\":6637:6714   */\n      swap2\n      swap1\n      pop\n      jump\t// out\n        /* \"#utility.yul\":6720:6842   */\n    tag_263:\n        /* \"#utility.yul\":6793:6817   */\n      tag_391\n        /* \"#utility.yul\":6811:6816   */\n      dup2\n        /* \"#utility.yul\":6793:6817   */\n      tag_262\n      jump\t// in\n    tag_391:\n        /* \"#utility.yul\":6786:6791   */\n      dup2\n        /* \"#utility.yul\":6783:6818   */\n      eq\n        /* \"#utility.yul\":6773:6836   */\n      tag_392\n      jumpi\n        /* \"#utility.yul\":6832:6833   */\n      0x00\n        /* \"#utility.yul\":6829:6830   */\n      0x00\n        /* \"#utility.yul\":6822:6834   */\n      revert\n        /* \"#utility.yul\":6773:6836   */\n    tag_392:\n        /* \"#utility.yul\":6720:6842   */\n      pop\n      jump\t// out\n        /* \"#utility.yul\":6848:6987   */\n    tag_264:\n        /* \"#utility.yul\":6894:6899   */\n      0x00\n        /* \"#utility.yul\":6932:6938   */\n      dup2\n        /* \"#utility.yul\":6919:6939   */\n      calldataload\n        /* \"#utility.yul\":6910:6939   */\n      swap1\n      pop\n        /* \"#utility.yul\":6948:6981   */\n      tag_394\n        /* \"#utility.yul\":6975:6980   */\n      dup2\n        /* \"#utility.yul\":6948:6981   */\n      tag_263\n      jump\t// in\n    tag_394:\n        /* \"#utility.yul\":6848:6987   */\n      swap3\n      swap2\n      pop\n      pop\n      jump\t// out\n        /* \"#utility.yul\":6993:8158   */\n    tag_34:\n        /* \"#utility.yul\":7103:7109   */\n      0x00\n        /* \"#utility.yul\":7111:7117   */\n      0x00\n        /* \"#utility.yul\":7119:7125   */\n      0x00\n        /* \"#utility.yul\":7127:7133   */\n      0x00\n        /* \"#utility.yul\":7135:7141   */\n      0x00\n        /* \"#utility.yul\":7143:7149   */\n      0x00\n        /* \"#utility.yul\":7192:7195   */\n      0x80\n        /* \"#utility.yul\":7180:7189   */\n      dup8\n        /* \"#utility.yul\":7171:7178   */\n      dup10\n        /* \"#utility.yul\":7167:7190   */\n      sub\n        /* \"#utility.yul\":7163:7196   */\n      slt\n        /* \"#utility.yul\":7160:7280   */\n      iszero\n      tag_396\n      jumpi\n        /* \"#utility.yul\":7199:7278   */\n      tag_397\n      tag_242\n      jump\t// in\n    tag_397:\n        /* \"#utility.yul\":7160:7280   */\n    tag_396:\n        /* \"#utility.yul\":7319:7320   */\n      0x00\n        /* \"#utility.yul\":7344:7397   */\n      tag_398\n        /* \"#utility.yul\":7389:7396   */\n      dup10\n        /* \"#utility.yul\":7380:7386   */\n      dup3\n        /* \"#utility.yul\":7369:7378   */\n      dup11\n        /* \"#utility.yul\":7365:7387   */\n      add\n        /* \"#utility.yul\":7344:7397   */\n      tag_256\n      jump\t// in\n    tag_398:\n        /* \"#utility.yul\":7334:7397   */\n      swap7\n      pop\n        /* \"#utility.yul\":7290:7407   */\n      pop\n        /* \"#utility.yul\":7474:7476   */\n      0x20\n        /* \"#utility.yul\":7463:7472   */\n      dup8\n        /* \"#utility.yul\":7459:7477   */\n      add\n        /* \"#utility.yul\":7446:7478   */\n      calldataload\n        /* \"#utility.yul\":7505:7523   */\n      0xffffffffffffffff\n        /* \"#utility.yul\":7497:7503   */\n      dup2\n        /* \"#utility.yul\":7494:7524   */\n      gt\n        /* \"#utility.yul\":7491:7608   */\n      iszero\n      tag_399\n      jumpi\n        /* \"#utility.yul\":7527:7606   */\n      tag_400\n      tag_243\n      jump\t// in\n    tag_400:\n        /* \"#utility.yul\":7491:7608   */\n    tag_399:\n        /* \"#utility.yul\":7640:7705   */\n      tag_401\n        /* \"#utility.yul\":7697:7704   */\n      dup10\n        /* \"#utility.yul\":7688:7694   */\n      dup3\n        /* \"#utility.yul\":7677:7686   */\n      dup11\n        /* \"#utility.yul\":7673:7695   */\n      add\n        /* \"#utility.yul\":7640:7705   */\n      tag_261\n      jump\t// in\n    tag_401:\n        /* \"#utility.yul\":7622:7705   */\n      swap6\n      pop\n      swap6\n      pop\n        /* \"#utility.yul\":7417:7715   */\n      pop\n        /* \"#utility.yul\":7782:7784   */\n      0x40\n        /* \"#utility.yul\":7771:7780   */\n      dup8\n        /* \"#utility.yul\":7767:7785   */\n      add\n        /* \"#utility.yul\":7754:7786   */\n      calldataload\n        /* \"#utility.yul\":7813:7831   */\n      0xffffffffffffffff\n        /* \"#utility.yul\":7805:7811   */\n      dup2\n        /* \"#utility.yul\":7802:7832   */\n      gt\n        /* \"#utility.yul\":7799:7916   */\n      iszero\n      tag_402\n      jumpi\n        /* \"#utility.yul\":7835:7914   */\n      tag_403\n      tag_243\n      jump\t// in\n    tag_403:\n        /* \"#utility.yul\":7799:7916   */\n    tag_402:\n        /* \"#utility.yul\":7948:8013   */\n      tag_404\n        /* \"#utility.yul\":8005:8012   */\n      dup10\n        /* \"#utility.yul\":7996:8002   */\n      dup3\n        /* \"#utility.yul\":7985:7994   */\n      dup11\n        /* \"#utility.yul\":7981:8003   */\n      add\n        /* \"#utility.yul\":7948:8013   */\n      tag_261\n      jump\t// in\n    tag_404:\n        /* \"#utility.yul\":7930:8013   */\n      swap4\n      pop\n      swap4\n      pop\n        /* \"#utility.yul\":7725:8023   */\n      pop\n        /* \"#utility.yul\":8062:8064   */\n      0x60\n        /* \"#utility.yul\":8088:8141   */\n      tag_405\n        /* \"#utility.yul\":8133:8140   */\n      dup10\n        /* \"#utility.yul\":8124:8130   */\n      dup3\n        /* \"#utility.yul\":8113:8122   */\n      dup11\n        /* \"#utility.yul\":8109:8131   */\n      add\n        /* \"#utility.yul\":8088:8141   */\n      tag_264\n      jump\t// in\n    tag_405:\n        /* \"#utility.yul\":8078:8141   */\n      swap2\n      pop\n        /* \"#utility.yul\":8033:8151   */\n      pop\n        /* \"#utility.yul\":6993:8158   */\n      swap3\n      swap6\n      pop\n      swap3\n      swap6\n      pop\n      swap3\n      swap6\n      jump\t// out\n        /* \"#utility.yul\":8164:9129   */\n    tag_40:\n        /* \"#utility.yul\":8262:8268   */\n      0x00\n        /* \"#utility.yul\":8270:8276   */\n      0x00\n        /* \"#utility.yul\":8278:8284   */\n      0x00\n        /* \"#utility.yul\":8286:8292   */\n      0x00\n        /* \"#utility.yul\":8294:8300   */\n      0x00\n        /* \"#utility.yul\":8343:8346   */\n      0x80\n        /* \"#utility.yul\":8331:8340   */\n      dup7\n        /* \"#utility.yul\":8322:8329   */\n      dup9\n        /* \"#utility.yul\":8318:8341   */\n      sub\n        /* \"#utility.yul\":8314:8347   */\n      slt\n        /* \"#utility.yul\":8311:8431   */\n      iszero\n      tag_407\n      jumpi\n        /* \"#utility.yul\":8350:8429   */\n      tag_408\n      tag_242\n      jump\t// in\n    tag_408:\n        /* \"#utility.yul\":8311:8431   */\n    tag_407:\n        /* \"#utility.yul\":8470:8471   */\n      0x00\n        /* \"#utility.yul\":8495:8548   */\n      tag_409\n        /* \"#utility.yul\":8540:8547   */\n      dup9\n        /* \"#utility.yul\":8531:8537   */\n      dup3\n        /* \"#utility.yul\":8520:8529   */\n      dup10\n        /* \"#utility.yul\":8516:8538   */\n      add\n        /* \"#utility.yul\":8495:8548   */\n      tag_256\n      jump\t// in\n    tag_409:\n        /* \"#utility.yul\":8485:8548   */\n      swap6\n      pop\n        /* \"#utility.yul\":8441:8558   */\n      pop\n        /* \"#utility.yul\":8625:8627   */\n      0x20\n        /* \"#utility.yul\":8614:8623   */\n      dup7\n        /* \"#utility.yul\":8610:8628   */\n      add\n        /* \"#utility.yul\":8597:8629   */\n      calldataload\n        /* \"#utility.yul\":8656:8674   */\n      0xffffffffffffffff\n        /* \"#utility.yul\":8648:8654   */\n      dup2\n        /* \"#utility.yul\":8645:8675   */\n      gt\n        /* \"#utility.yul\":8642:8759   */\n      iszero\n      tag_410\n      jumpi\n        /* \"#utility.yul\":8678:8757   */\n      tag_411\n      tag_243\n      jump\t// in\n    tag_411:\n        /* \"#utility.yul\":8642:8759   */\n    tag_410:\n        /* \"#utility.yul\":8791:8856   */\n      tag_412\n        /* \"#utility.yul\":8848:8855   */\n      dup9\n        /* \"#utility.yul\":8839:8845   */\n      dup3\n        /* \"#utility.yul\":8828:8837   */\n      dup10\n        /* \"#utility.yul\":8824:8846   */\n      add\n        /* \"#utility.yul\":8791:8856   */\n      tag_261\n      jump\t// in\n    tag_412:\n        /* \"#utility.yul\":8773:8856   */\n      swap5\n      pop\n      swap5\n      pop\n        /* \"#utility.yul\":8568:8866   */\n      pop\n        /* \"#utility.yul\":8905:8907   */\n      0x40\n        /* \"#utility.yul\":8931:8984   */\n      tag_413\n        /* \"#utility.yul\":8976:8983   */\n      dup9\n        /* \"#utility.yul\":8967:8973   */\n      dup3\n        /* \"#utility.yul\":8956:8965   */\n      dup10\n        /* \"#utility.yul\":8952:8974   */\n      add\n        /* \"#utility.yul\":8931:8984   */\n      tag_264\n      jump\t// in\n    tag_413:\n        /* \"#utility.yul\":8921:8984   */\n      swap3\n      pop\n        /* \"#utility.yul\":8876:8994   */\n      pop\n        /* \"#utility.yul\":9033:9035   */\n      0x60\n        /* \"#utility.yul\":9059:9112   */\n      tag_414\n        /* \"#utility.yul\":9104:9111   */\n      dup9\n        /* \"#utility.yul\":9095:9101   */\n      dup3\n        /* \"#utility.yul\":9084:9093   */\n      dup10\n        /* \"#utility.yul\":9080:9102   */\n      add\n        /* \"#utility.yul\":9059:9112   */\n      tag_264\n      jump\t// in\n    tag_414:\n        /* \"#utility.yul\":9049:9112   */\n      swap2\n      pop\n        /* \"#utility.yul\":9004:9122   */\n      pop\n        /* \"#utility.yul\":8164:9129   */\n      swap3\n      swap6\n      pop\n      swap3\n      swap6\n      swap1\n      swap4\n      pop\n      jump\t// out\n        /* \"#utility.yul\":9135:9809   */\n    tag_47:\n        /* \"#utility.yul\":9215:9221   */\n      0x00\n        /* \"#utility.yul\":9223:9229   */\n      0x00\n        /* \"#utility.yul\":9231:9237   */\n      0x00\n        /* \"#utility.yul\":9280:9282   */\n      0x40\n        /* \"#utility.yul\":9268:9277   */\n      dup5\n        /* \"#utility.yul\":9259:9266   */\n      dup7\n        /* \"#utility.yul\":9255:9278   */\n      sub\n        /* \"#utility.yul\":9251:9283   */\n      slt\n        /* \"#utility.yul\":9248:9367   */\n      iszero\n      tag_416\n      jumpi\n        /* \"#utility.yul\":9286:9365   */\n      tag_417\n      tag_242\n      jump\t// in\n    tag_417:\n        /* \"#utility.yul\":9248:9367   */\n    tag_416:\n        /* \"#utility.yul\":9434:9435   */\n      0x00\n        /* \"#utility.yul\":9423:9432   */\n      dup5\n        /* \"#utility.yul\":9419:9436   */\n      add\n        /* \"#utility.yul\":9406:9437   */\n      calldataload\n        /* \"#utility.yul\":9464:9482   */\n      0xffffffffffffffff\n        /* \"#utility.yul\":9456:9462   */\n      dup2\n        /* \"#utility.yul\":9453:9483   */\n      gt\n        /* \"#utility.yul\":9450:9567   */\n      iszero\n      tag_418\n      jumpi\n        /* \"#utility.yul\":9486:9565   */\n      tag_419\n      tag_243\n      jump\t// in\n    tag_419:\n        /* \"#utility.yul\":9450:9567   */\n    tag_418:\n        /* \"#utility.yul\":9599:9664   */\n      tag_420\n        /* \"#utility.yul\":9656:9663   */\n      dup7\n        /* \"#utility.yul\":9647:9653   */\n      dup3\n        /* \"#utility.yul\":9636:9645   */\n      dup8\n        /* \"#utility.yul\":9632:9654   */\n      add\n        /* \"#utility.yul\":9599:9664   */\n      tag_261\n      jump\t// in\n    tag_420:\n        /* \"#utility.yul\":9581:9664   */\n      swap4\n      pop\n      swap4\n      pop\n        /* \"#utility.yul\":9377:9674   */\n      pop\n        /* \"#utility.yul\":9713:9715   */\n      0x20\n        /* \"#utility.yul\":9739:9792   */\n      tag_421\n        /* \"#utility.yul\":9784:9791   */\n      dup7\n        /* \"#utility.yul\":9775:9781   */\n      dup3\n        /* \"#utility.yul\":9764:9773   */\n      dup8\n        /* \"#utility.yul\":9760:9782   */\n      add\n        /* \"#utility.yul\":9739:9792   */\n      tag_264\n      jump\t// in\n    tag_421:\n        /* \"#utility.yul\":9729:9792   */\n      swap2\n      pop\n        /* \"#utility.yul\":9684:9802   */\n      pop\n        /* \"#utility.yul\":9135:9809   */\n      swap3\n      pop\n      swap3\n      pop\n      swap3\n      jump\t// out\n        /* \"#utility.yul\":9815:9875   */\n    tag_265:\n        /* \"#utility.yul\":9843:9846   */\n      0x00\n        /* \"#utility.yul\":9864:9869   */\n      dup2\n        /* \"#utility.yul\":9857:9869   */\n      swap1\n      pop\n        /* \"#utility.yul\":9815:9875   */\n      swap2\n      swap1\n      pop\n      jump\t// out\n        /* \"#utility.yul\":9881:10023   */\n    tag_266:\n        /* \"#utility.yul\":9931:9940   */\n      0x00\n        /* \"#utility.yul\":9964:10017   */\n      tag_424\n        /* \"#utility.yul\":9982:10016   */\n      tag_425\n        /* \"#utility.yul\":9991:10015   */\n      tag_426\n        /* \"#utility.yul\":10009:10014   */\n      dup5\n        /* \"#utility.yul\":9991:10015   */\n      tag_252\n      jump\t// in\n    tag_426:\n        /* \"#utility.yul\":9982:10016   */\n      tag_265\n      jump\t// in\n    tag_425:\n        /* \"#utility.yul\":9964:10017   */\n      tag_252\n      jump\t// in\n    tag_424:\n        /* \"#utility.yul\":9951:10017   */\n      swap1\n      pop\n        /* \"#utility.yul\":9881:10023   */\n      swap2\n      swap1\n      pop\n      jump\t// out\n        /* \"#utility.yul\":10029:10155   */\n    tag_267:\n        /* \"#utility.yul\":10079:10088   */\n      0x00\n        /* \"#utility.yul\":10112:10149   */\n      tag_428\n        /* \"#utility.yul\":10143:10148   */\n      dup3\n        /* \"#utility.yul\":10112:10149   */\n      tag_266\n      jump\t// in\n    tag_428:\n        /* \"#utility.yul\":10099:10149   */\n      swap1\n      pop\n        /* \"#utility.yul\":10029:10155   */\n      swap2\n      swap1\n      pop\n      jump\t// out\n        /* \"#utility.yul\":10161:10302   */\n    tag_268:\n        /* \"#utility.yul\":10226:10235   */\n      0x00\n        /* \"#utility.yul\":10259:10296   */\n      tag_430\n        /* \"#utility.yul\":10290:10295   */\n      dup3\n        /* \"#utility.yul\":10259:10296   */\n      tag_267\n      jump\t// in\n    tag_430:\n        /* \"#utility.yul\":10246:10296   */\n      swap1\n      pop\n        /* \"#utility.yul\":10161:10302   */\n      swap2\n      swap1\n      pop\n      jump\t// out\n        /* \"#utility.yul\":10308:10469   */\n    tag_269:\n        /* \"#utility.yul\":10410:10462   */\n      tag_432\n        /* \"#utility.yul\":10456:10461   */\n      dup2\n        /* \"#utility.yul\":10410:10462   */\n      tag_268\n      jump\t// in\n    tag_432:\n        /* \"#utility.yul\":10405:10408   */\n      dup3\n        /* \"#utility.yul\":10398:10463   */\n      mstore\n        /* \"#utility.yul\":10308:10469   */\n      pop\n      pop\n      jump\t// out\n        /* \"#utility.yul\":10475:10727   */\n    tag_52:\n        /* \"#utility.yul\":10583:10587   */\n      0x00\n        /* \"#utility.yul\":10621:10623   */\n      0x20\n        /* \"#utility.yul\":10610:10619   */\n      dup3\n        /* \"#utility.yul\":10606:10624   */\n      add\n        /* \"#utility.yul\":10598:10624   */\n      swap1\n      pop\n        /* \"#utility.yul\":10634:10720   */\n      tag_434\n        /* \"#utility.yul\":10717:10718   */\n      0x00\n        /* \"#utility.yul\":10706:10715   */\n      dup4\n        /* \"#utility.yul\":10702:10719   */\n      add\n        /* \"#utility.yul\":10693:10699   */\n      dup5\n        /* \"#utility.yul\":10634:10720   */\n      tag_269\n      jump\t// in\n    tag_434:\n        /* \"#utility.yul\":10475:10727   */\n      swap3\n      swap2\n      pop\n      pop\n      jump\t// out\n        /* \"#utility.yul\":10733:10877   */\n    tag_270:\n        /* \"#utility.yul\":10801:10810   */\n      0x00\n        /* \"#utility.yul\":10834:10871   */\n      tag_436\n        /* \"#utility.yul\":10865:10870   */\n      dup3\n        /* \"#utility.yul\":10834:10871   */\n      tag_267\n      jump\t// in\n    tag_436:\n        /* \"#utility.yul\":10821:10871   */\n      swap1\n      pop\n        /* \"#utility.yul\":10733:10877   */\n      swap2\n      swap1\n      pop\n      jump\t// out\n        /* \"#utility.yul\":10883:11050   */\n    tag_271:\n        /* \"#utility.yul\":10988:11043   */\n      tag_438\n        /* \"#utility.yul\":11037:11042   */\n      dup2\n        /* \"#utility.yul\":10988:11043   */\n      tag_270\n      jump\t// in\n    tag_438:\n        /* \"#utility.yul\":10983:10986   */\n      dup3\n        /* \"#utility.yul\":10976:11044   */\n      mstore\n        /* \"#utility.yul\":10883:11050   */\n      pop\n      pop\n      jump\t// out\n        /* \"#utility.yul\":11056:11314   */\n    tag_56:\n        /* \"#utility.yul\":11167:11171   */\n      0x00\n        /* \"#utility.yul\":11205:11207   */\n      0x20\n        /* \"#utility.yul\":11194:11203   */\n      dup3\n        /* \"#utility.yul\":11190:11208   */\n      add\n        /* \"#utility.yul\":11182:11208   */\n      swap1\n      pop\n        /* \"#utility.yul\":11218:11307   */\n      tag_440\n        /* \"#utility.yul\":11304:11305   */\n      0x00\n        /* \"#utility.yul\":11293:11302   */\n      dup4\n        /* \"#utility.yul\":11289:11306   */\n      add\n        /* \"#utility.yul\":11280:11286   */\n      dup5\n        /* \"#utility.yul\":11218:11307   */\n      tag_271\n      jump\t// in\n    tag_440:\n        /* \"#utility.yul\":11056:11314   */\n      swap3\n      swap2\n      pop\n      pop\n      jump\t// out\n        /* \"#utility.yul\":11320:11849   */\n    tag_59:\n        /* \"#utility.yul\":11391:11397   */\n      0x00\n        /* \"#utility.yul\":11399:11405   */\n      0x00\n        /* \"#utility.yul\":11448:11450   */\n      0x20\n        /* \"#utility.yul\":11436:11445   */\n      dup4\n        /* \"#utility.yul\":11427:11434   */\n      dup6\n        /* \"#utility.yul\":11423:11446   */\n      sub\n        /* \"#utility.yul\":11419:11451   */\n      slt\n        /* \"#utility.yul\":11416:11535   */\n      iszero\n      tag_442\n      jumpi\n        /* \"#utility.yul\":11454:11533   */\n      tag_443\n      tag_242\n      jump\t// in\n    tag_443:\n        /* \"#utility.yul\":11416:11535   */\n    tag_442:\n        /* \"#utility.yul\":11602:11603   */\n      0x00\n        /* \"#utility.yul\":11591:11600   */\n      dup4\n        /* \"#utility.yul\":11587:11604   */\n      add\n        /* \"#utility.yul\":11574:11605   */\n      calldataload\n        /* \"#utility.yul\":11632:11650   */\n      0xffffffffffffffff\n        /* \"#utility.yul\":11624:11630   */\n      dup2\n        /* \"#utility.yul\":11621:11651   */\n      gt\n        /* \"#utility.yul\":11618:11735   */\n      iszero\n      tag_444\n      jumpi\n        /* \"#utility.yul\":11654:11733   */\n      tag_445\n      tag_243\n      jump\t// in\n    tag_445:\n        /* \"#utility.yul\":11618:11735   */\n    tag_444:\n        /* \"#utility.yul\":11767:11832   */\n      tag_446\n        /* \"#utility.yul\":11824:11831   */\n      dup6\n        /* \"#utility.yul\":11815:11821   */\n      dup3\n        /* \"#utility.yul\":11804:11813   */\n      dup7\n        /* \"#utility.yul\":11800:11822   */\n      add\n        /* \"#utility.yul\":11767:11832   */\n      tag_261\n      jump\t// in\n    tag_446:\n        /* \"#utility.yul\":11749:11832   */\n      swap3\n      pop\n      swap3\n      pop\n        /* \"#utility.yul\":11545:11842   */\n      pop\n        /* \"#utility.yul\":11320:11849   */\n      swap3\n      pop\n      swap3\n      swap1\n      pop\n      jump\t// out\n        /* \"#utility.yul\":11855:12035   */\n    tag_272:\n        /* \"#utility.yul\":11903:11980   */\n      0x4e487b7100000000000000000000000000000000000000000000000000000000\n        /* \"#utility.yul\":11900:11901   */\n      0x00\n        /* \"#utility.yul\":11893:11981   */\n      mstore\n        /* \"#utility.yul\":12000:12004   */\n      0x22\n        /* \"#utility.yul\":11997:11998   */\n      0x04\n        /* \"#utility.yul\":11990:12005   */\n      mstore\n        /* \"#utility.yul\":12024:12028   */\n      0x24\n        /* \"#utility.yul\":12021:12022   */\n      0x00\n        /* \"#utility.yul\":12014:12029   */\n      revert\n        /* \"#utility.yul\":12041:12361   */\n    tag_65:\n        /* \"#utility.yul\":12085:12091   */\n      0x00\n        /* \"#utility.yul\":12122:12123   */\n      0x02\n        /* \"#utility.yul\":12116:12120   */\n      dup3\n        /* \"#utility.yul\":12112:12124   */\n      div\n        /* \"#utility.yul\":12102:12124   */\n      swap1\n      pop\n        /* \"#utility.yul\":12169:12170   */\n      0x01\n        /* \"#utility.yul\":12163:12167   */\n      dup3\n        /* \"#utility.yul\":12159:12171   */\n      and\n        /* \"#utility.yul\":12190:12208   */\n      dup1\n        /* \"#utility.yul\":12180:12261   */\n      tag_449\n      jumpi\n        /* \"#utility.yul\":12246:12250   */\n      0x7f\n        /* \"#utility.yul\":12238:12244   */\n      dup3\n        /* \"#utility.yul\":12234:12251   */\n      and\n        /* \"#utility.yul\":12224:12251   */\n      swap2\n      pop\n        /* \"#utility.yul\":12180:12261   */\n    tag_449:\n        /* \"#utility.yul\":12308:12310   */\n      0x20\n        /* \"#utility.yul\":12300:12306   */\n      dup3\n        /* \"#utility.yul\":12297:12311   */\n      lt\n        /* \"#utility.yul\":12277:12295   */\n      dup2\n        /* \"#utility.yul\":12274:12312   */\n      sub\n        /* \"#utility.yul\":12271:12355   */\n      tag_450\n      jumpi\n        /* \"#utility.yul\":12327:12345   */\n      tag_451\n      tag_272\n      jump\t// in\n    tag_451:\n        /* \"#utility.yul\":12271:12355   */\n    tag_450:\n        /* \"#utility.yul\":12092:12361   */\n      pop\n        /* \"#utility.yul\":12041:12361   */\n      swap2\n      swap1\n      pop\n      jump\t// out\n        /* \"#utility.yul\":12367:12515   */\n    tag_273:\n        /* \"#utility.yul\":12469:12480   */\n      0x00\n        /* \"#utility.yul\":12506:12509   */\n      dup2\n        /* \"#utility.yul\":12491:12509   */\n      swap1\n      pop\n        /* \"#utility.yul\":12367:12515   */\n      swap3\n      swap2\n      pop\n      pop\n      jump\t// out\n        /* \"#utility.yul\":12521:12911   */\n    tag_274:\n        /* \"#utility.yul\":12627:12630   */\n      0x00\n        /* \"#utility.yul\":12655:12694   */\n      tag_454\n        /* \"#utility.yul\":12688:12693   */\n      dup3\n        /* \"#utility.yul\":12655:12694   */\n      tag_236\n      jump\t// in\n    tag_454:\n        /* \"#utility.yul\":12710:12799   */\n      tag_455\n        /* \"#utility.yul\":12792:12798   */\n      dup2\n        /* \"#utility.yul\":12787:12790   */\n      dup6\n        /* \"#utility.yul\":12710:12799   */\n      tag_273\n      jump\t// in\n    tag_455:\n        /* \"#utility.yul\":12703:12799   */\n      swap4\n      pop\n        /* \"#utility.yul\":12808:12873   */\n      tag_456\n        /* \"#utility.yul\":12866:12872   */\n      dup2\n        /* \"#utility.yul\":12861:12864   */\n      dup6\n        /* \"#utility.yul\":12854:12858   */\n      0x20\n        /* \"#utility.yul\":12847:12852   */\n      dup7\n        /* \"#utility.yul\":12843:12859   */\n      add\n        /* \"#utility.yul\":12808:12873   */\n      tag_238\n      jump\t// in\n    tag_456:\n        /* \"#utility.yul\":12898:12904   */\n      dup1\n        /* \"#utility.yul\":12893:12896   */\n      dup5\n        /* \"#utility.yul\":12889:12905   */\n      add\n        /* \"#utility.yul\":12882:12905   */\n      swap2\n      pop\n        /* \"#utility.yul\":12631:12911   */\n      pop\n        /* \"#utility.yul\":12521:12911   */\n      swap3\n      swap2\n      pop\n      pop\n      jump\t// out\n        /* \"#utility.yul\":12917:13068   */\n    tag_275:\n        /* \"#utility.yul\":13057:13060   */\n      0x5f00000000000000000000000000000000000000000000000000000000000000\n        /* \"#utility.yul\":13053:13054   */\n      0x00\n        /* \"#utility.yul\":13045:13051   */\n      dup3\n        /* \"#utility.yul\":13041:13055   */\n      add\n        /* \"#utility.yul\":13034:13061   */\n      mstore\n        /* \"#utility.yul\":12917:13068   */\n      pop\n      jump\t// out\n        /* \"#utility.yul\":13074:13474   */\n    tag_276:\n        /* \"#utility.yul\":13234:13237   */\n      0x00\n        /* \"#utility.yul\":13255:13339   */\n      tag_459\n        /* \"#utility.yul\":13337:13338   */\n      0x01\n        /* \"#utility.yul\":13332:13335   */\n      dup4\n        /* \"#utility.yul\":13255:13339   */\n      tag_273\n      jump\t// in\n    tag_459:\n        /* \"#utility.yul\":13248:13339   */\n      swap2\n      pop\n        /* \"#utility.yul\":13348:13441   */\n      tag_460\n        /* \"#utility.yul\":13437:13440   */\n      dup3\n        /* \"#utility.yul\":13348:13441   */\n      tag_275\n      jump\t// in\n    tag_460:\n        /* \"#utility.yul\":13466:13467   */\n      0x01\n        /* \"#utility.yul\":13461:13464   */\n      dup3\n        /* \"#utility.yul\":13457:13468   */\n      add\n        /* \"#utility.yul\":13450:13468   */\n      swap1\n      pop\n        /* \"#utility.yul\":13074:13474   */\n      swap2\n      swap1\n      pop\n      jump\t// out\n        /* \"#utility.yul\":13480:13621   */\n    tag_277:\n        /* \"#utility.yul\":13529:13533   */\n      0x00\n        /* \"#utility.yul\":13552:13555   */\n      dup2\n        /* \"#utility.yul\":13544:13555   */\n      swap1\n      pop\n        /* \"#utility.yul\":13575:13578   */\n      dup2\n        /* \"#utility.yul\":13572:13573   */\n      0x00\n        /* \"#utility.yul\":13565:13579   */\n      mstore\n        /* \"#utility.yul\":13609:13613   */\n      0x20\n        /* \"#utility.yul\":13606:13607   */\n      0x00\n        /* \"#utility.yul\":13596:13614   */\n      keccak256\n        /* \"#utility.yul\":13588:13614   */\n      swap1\n      pop\n        /* \"#utility.yul\":13480:13621   */\n      swap2\n      swap1\n      pop\n      jump\t// out\n        /* \"#utility.yul\":13651:14525   */\n    tag_278:\n        /* \"#utility.yul\":13754:13757   */\n      0x00\n        /* \"#utility.yul\":13791:13796   */\n      dup2\n        /* \"#utility.yul\":13785:13797   */\n      sload\n        /* \"#utility.yul\":13820:13856   */\n      tag_463\n        /* \"#utility.yul\":13846:13855   */\n      dup2\n        /* \"#utility.yul\":13820:13856   */\n      tag_65\n      jump\t// in\n    tag_463:\n        /* \"#utility.yul\":13872:13961   */\n      tag_464\n        /* \"#utility.yul\":13954:13960   */\n      dup2\n        /* \"#utility.yul\":13949:13952   */\n      dup7\n        /* \"#utility.yul\":13872:13961   */\n      tag_273\n      jump\t// in\n    tag_464:\n        /* \"#utility.yul\":13865:13961   */\n      swap5\n      pop\n        /* \"#utility.yul\":13992:13993   */\n      0x01\n        /* \"#utility.yul\":13981:13990   */\n      dup3\n        /* \"#utility.yul\":13977:13994   */\n      and\n        /* \"#utility.yul\":14008:14009   */\n      0x00\n        /* \"#utility.yul\":14003:14169   */\n      dup2\n      eq\n      tag_466\n      jumpi\n        /* \"#utility.yul\":14183:14184   */\n      0x01\n        /* \"#utility.yul\":14178:14519   */\n      dup2\n      eq\n      tag_467\n      jumpi\n        /* \"#utility.yul\":13970:14519   */\n      jump(tag_465)\n        /* \"#utility.yul\":14003:14169   */\n    tag_466:\n        /* \"#utility.yul\":14087:14091   */\n      0xff\n        /* \"#utility.yul\":14083:14092   */\n      not\n        /* \"#utility.yul\":14072:14081   */\n      dup4\n        /* \"#utility.yul\":14068:14093   */\n      and\n        /* \"#utility.yul\":14063:14066   */\n      dup7\n        /* \"#utility.yul\":14056:14094   */\n      mstore\n        /* \"#utility.yul\":14149:14155   */\n      dup2\n        /* \"#utility.yul\":14142:14156   */\n      iszero\n        /* \"#utility.yul\":14135:14157   */\n      iszero\n        /* \"#utility.yul\":14127:14133   */\n      dup3\n        /* \"#utility.yul\":14123:14158   */\n      mul\n        /* \"#utility.yul\":14118:14121   */\n      dup7\n        /* \"#utility.yul\":14114:14159   */\n      add\n        /* \"#utility.yul\":14107:14159   */\n      swap4\n      pop\n        /* \"#utility.yul\":14003:14169   */\n      jump(tag_465)\n        /* \"#utility.yul\":14178:14519   */\n    tag_467:\n        /* \"#utility.yul\":14245:14283   */\n      tag_468\n        /* \"#utility.yul\":14277:14282   */\n      dup6\n        /* \"#utility.yul\":14245:14283   */\n      tag_277\n      jump\t// in\n    tag_468:\n        /* \"#utility.yul\":14305:14306   */\n      0x00\n        /* \"#utility.yul\":14319:14473   */\n    tag_469:\n        /* \"#utility.yul\":14333:14339   */\n      dup4\n        /* \"#utility.yul\":14330:14331   */\n      dup2\n        /* \"#utility.yul\":14327:14340   */\n      lt\n        /* \"#utility.yul\":14319:14473   */\n      iszero\n      tag_471\n      jumpi\n        /* \"#utility.yul\":14407:14414   */\n      dup2\n        /* \"#utility.yul\":14401:14415   */\n      sload\n        /* \"#utility.yul\":14397:14398   */\n      dup2\n        /* \"#utility.yul\":14392:14395   */\n      dup10\n        /* \"#utility.yul\":14388:14399   */\n      add\n        /* \"#utility.yul\":14381:14416   */\n      mstore\n        /* \"#utility.yul\":14457:14458   */\n      0x01\n        /* \"#utility.yul\":14448:14455   */\n      dup3\n        /* \"#utility.yul\":14444:14459   */\n      add\n        /* \"#utility.yul\":14433:14459   */\n      swap2\n      pop\n        /* \"#utility.yul\":14355:14359   */\n      0x20\n        /* \"#utility.yul\":14352:14353   */\n      dup2\n        /* \"#utility.yul\":14348:14360   */\n      add\n        /* \"#utility.yul\":14343:14360   */\n      swap1\n      pop\n        /* \"#utility.yul\":14319:14473   */\n      jump(tag_469)\n    tag_471:\n        /* \"#utility.yul\":14502:14508   */\n      dup4\n        /* \"#utility.yul\":14497:14500   */\n      dup9\n        /* \"#utility.yul\":14493:14509   */\n      add\n        /* \"#utility.yul\":14486:14509   */\n      swap6\n      pop\n        /* \"#utility.yul\":14185:14519   */\n      pop\n      pop\n        /* \"#utility.yul\":13970:14519   */\n    tag_465:\n      pop\n        /* \"#utility.yul\":13758:14525   */\n      pop\n      pop\n        /* \"#utility.yul\":13651:14525   */\n      swap3\n      swap2\n      pop\n      pop\n      jump\t// out\n        /* \"#utility.yul\":14531:15226   */\n    tag_72:\n        /* \"#utility.yul\":14809:14812   */\n      0x00\n        /* \"#utility.yul\":14831:14926   */\n      tag_473\n        /* \"#utility.yul\":14922:14925   */\n      dup3\n        /* \"#utility.yul\":14913:14919   */\n      dup6\n        /* \"#utility.yul\":14831:14926   */\n      tag_274\n      jump\t// in\n    tag_473:\n        /* \"#utility.yul\":14824:14926   */\n      swap2\n      pop\n        /* \"#utility.yul\":14943:15091   */\n      tag_474\n        /* \"#utility.yul\":15087:15090   */\n      dup3\n        /* \"#utility.yul\":14943:15091   */\n      tag_276\n      jump\t// in\n    tag_474:\n        /* \"#utility.yul\":14936:15091   */\n      swap2\n      pop\n        /* \"#utility.yul\":15108:15200   */\n      tag_475\n        /* \"#utility.yul\":15196:15199   */\n      dup3\n        /* \"#utility.yul\":15187:15193   */\n      dup5\n        /* \"#utility.yul\":15108:15200   */\n      tag_278\n      jump\t// in\n    tag_475:\n        /* \"#utility.yul\":15101:15200   */\n      swap2\n      pop\n        /* \"#utility.yul\":15217:15220   */\n      dup2\n        /* \"#utility.yul\":15210:15220   */\n      swap1\n      pop\n        /* \"#utility.yul\":14531:15226   */\n      swap4\n      swap3\n      pop\n      pop\n      pop\n      jump\t// out\n        /* \"#utility.yul\":15232:15398   */\n    tag_279:\n        /* \"#utility.yul\":15372:15390   */\n      0x51696172614d6f6e616441737365747300000000000000000000000000000000\n        /* \"#utility.yul\":15368:15369   */\n      0x00\n        /* \"#utility.yul\":15360:15366   */\n      dup3\n        /* \"#utility.yul\":15356:15370   */\n      add\n        /* \"#utility.yul\":15349:15391   */\n      mstore\n        /* \"#utility.yul\":15232:15398   */\n      pop\n      jump\t// out\n        /* \"#utility.yul\":15404:15770   */\n    tag_280:\n        /* \"#utility.yul\":15546:15549   */\n      0x00\n        /* \"#utility.yul\":15567:15634   */\n      tag_478\n        /* \"#utility.yul\":15631:15633   */\n      0x10\n        /* \"#utility.yul\":15626:15629   */\n      dup4\n        /* \"#utility.yul\":15567:15634   */\n      tag_237\n      jump\t// in\n    tag_478:\n        /* \"#utility.yul\":15560:15634   */\n      swap2\n      pop\n        /* \"#utility.yul\":15643:15736   */\n      tag_479\n        /* \"#utility.yul\":15732:15735   */\n      dup3\n        /* \"#utility.yul\":15643:15736   */\n      tag_279\n      jump\t// in\n    tag_479:\n        /* \"#utility.yul\":15761:15763   */\n      0x20\n        /* \"#utility.yul\":15756:15759   */\n      dup3\n        /* \"#utility.yul\":15752:15764   */\n      add\n        /* \"#utility.yul\":15745:15764   */\n      swap1\n      pop\n        /* \"#utility.yul\":15404:15770   */\n      swap2\n      swap1\n      pop\n      jump\t// out\n        /* \"#utility.yul\":15776:16396   */\n    tag_74:\n        /* \"#utility.yul\":15990:15994   */\n      0x00\n        /* \"#utility.yul\":16028:16030   */\n      0x40\n        /* \"#utility.yul\":16017:16026   */\n      dup3\n        /* \"#utility.yul\":16013:16031   */\n      add\n        /* \"#utility.yul\":16005:16031   */\n      swap1\n      pop\n        /* \"#utility.yul\":16077:16086   */\n      dup2\n        /* \"#utility.yul\":16071:16075   */\n      dup2\n        /* \"#utility.yul\":16067:16087   */\n      sub\n        /* \"#utility.yul\":16063:16064   */\n      0x00\n        /* \"#utility.yul\":16052:16061   */\n      dup4\n        /* \"#utility.yul\":16048:16065   */\n      add\n        /* \"#utility.yul\":16041:16088   */\n      mstore\n        /* \"#utility.yul\":16105:16236   */\n      tag_481\n        /* \"#utility.yul\":16231:16235   */\n      dup2\n        /* \"#utility.yul\":16105:16236   */\n      tag_280\n      jump\t// in\n    tag_481:\n        /* \"#utility.yul\":16097:16236   */\n      swap1\n      pop\n        /* \"#utility.yul\":16283:16292   */\n      dup2\n        /* \"#utility.yul\":16277:16281   */\n      dup2\n        /* \"#utility.yul\":16273:16293   */\n      sub\n        /* \"#utility.yul\":16268:16270   */\n      0x20\n        /* \"#utility.yul\":16257:16266   */\n      dup4\n        /* \"#utility.yul\":16253:16271   */\n      add\n        /* \"#utility.yul\":16246:16294   */\n      mstore\n        /* \"#utility.yul\":16311:16389   */\n      tag_482\n        /* \"#utility.yul\":16384:16388   */\n      dup2\n        /* \"#utility.yul\":16375:16381   */\n      dup5\n        /* \"#utility.yul\":16311:16389   */\n      tag_240\n      jump\t// in\n    tag_482:\n        /* \"#utility.yul\":16303:16389   */\n      swap1\n      pop\n        /* \"#utility.yul\":15776:16396   */\n      swap3\n      swap2\n      pop\n      pop\n      jump\t// out\n        /* \"#utility.yul\":16402:16709   */\n    tag_281:\n        /* \"#utility.yul\":16463:16467   */\n      0x00\n        /* \"#utility.yul\":16553:16571   */\n      0xffffffffffffffff\n        /* \"#utility.yul\":16545:16551   */\n      dup3\n        /* \"#utility.yul\":16542:16572   */\n      gt\n        /* \"#utility.yul\":16539:16595   */\n      iszero\n      tag_484\n      jumpi\n        /* \"#utility.yul\":16575:16593   */\n      tag_485\n      tag_89\n      jump\t// in\n    tag_485:\n        /* \"#utility.yul\":16539:16595   */\n    tag_484:\n        /* \"#utility.yul\":16613:16642   */\n      tag_486\n        /* \"#utility.yul\":16635:16641   */\n      dup3\n        /* \"#utility.yul\":16613:16642   */\n      tag_239\n      jump\t// in\n    tag_486:\n        /* \"#utility.yul\":16605:16642   */\n      swap1\n      pop\n        /* \"#utility.yul\":16697:16701   */\n      0x20\n        /* \"#utility.yul\":16691:16695   */\n      dup2\n        /* \"#utility.yul\":16687:16702   */\n      add\n        /* \"#utility.yul\":16679:16702   */\n      swap1\n      pop\n        /* \"#utility.yul\":16402:16709   */\n      swap2\n      swap1\n      pop\n      jump\t// out\n        /* \"#utility.yul\":16715:17147   */\n    tag_282:\n        /* \"#utility.yul\":16803:16808   */\n      0x00\n        /* \"#utility.yul\":16828:16893   */\n      tag_488\n        /* \"#utility.yul\":16844:16892   */\n      tag_489\n        /* \"#utility.yul\":16885:16891   */\n      dup5\n        /* \"#utility.yul\":16844:16892   */\n      tag_281\n      jump\t// in\n    tag_489:\n        /* \"#utility.yul\":16828:16893   */\n      tag_247\n      jump\t// in\n    tag_488:\n        /* \"#utility.yul\":16819:16893   */\n      swap1\n      pop\n        /* \"#utility.yul\":16916:16922   */\n      dup3\n        /* \"#utility.yul\":16909:16914   */\n      dup2\n        /* \"#utility.yul\":16902:16923   */\n      mstore\n        /* \"#utility.yul\":16954:16958   */\n      0x20\n        /* \"#utility.yul\":16947:16952   */\n      dup2\n        /* \"#utility.yul\":16943:16959   */\n      add\n        /* \"#utility.yul\":16992:16995   */\n      dup5\n        /* \"#utility.yul\":16983:16989   */\n      dup5\n        /* \"#utility.yul\":16978:16981   */\n      dup5\n        /* \"#utility.yul\":16974:16990   */\n      add\n        /* \"#utility.yul\":16971:16996   */\n      gt\n        /* \"#utility.yul\":16968:17080   */\n      iszero\n      tag_490\n      jumpi\n        /* \"#utility.yul\":16999:17078   */\n      tag_491\n      tag_245\n      jump\t// in\n    tag_491:\n        /* \"#utility.yul\":16968:17080   */\n    tag_490:\n        /* \"#utility.yul\":17089:17141   */\n      tag_492\n        /* \"#utility.yul\":17134:17140   */\n      dup5\n        /* \"#utility.yul\":17129:17132   */\n      dup3\n        /* \"#utility.yul\":17124:17127   */\n      dup6\n        /* \"#utility.yul\":17089:17141   */\n      tag_238\n      jump\t// in\n    tag_492:\n        /* \"#utility.yul\":16809:17147   */\n      pop\n        /* \"#utility.yul\":16715:17147   */\n      swap4\n      swap3\n      pop\n      pop\n      pop\n      jump\t// out\n        /* \"#utility.yul\":17166:17519   */\n    tag_283:\n        /* \"#utility.yul\":17232:17237   */\n      0x00\n        /* \"#utility.yul\":17281:17284   */\n      dup3\n        /* \"#utility.yul\":17274:17278   */\n      0x1f\n        /* \"#utility.yul\":17266:17272   */\n      dup4\n        /* \"#utility.yul\":17262:17279   */\n      add\n        /* \"#utility.yul\":17258:17285   */\n      slt\n        /* \"#utility.yul\":17248:17370   */\n      tag_494\n      jumpi\n        /* \"#utility.yul\":17289:17368   */\n      tag_495\n      tag_244\n      jump\t// in\n    tag_495:\n        /* \"#utility.yul\":17248:17370   */\n    tag_494:\n        /* \"#utility.yul\":17399:17405   */\n      dup2\n        /* \"#utility.yul\":17393:17406   */\n      mload\n        /* \"#utility.yul\":17424:17513   */\n      tag_496\n        /* \"#utility.yul\":17509:17512   */\n      dup5\n        /* \"#utility.yul\":17501:17507   */\n      dup3\n        /* \"#utility.yul\":17494:17498   */\n      0x20\n        /* \"#utility.yul\":17486:17492   */\n      dup7\n        /* \"#utility.yul\":17482:17499   */\n      add\n        /* \"#utility.yul\":17424:17513   */\n      tag_282\n      jump\t// in\n    tag_496:\n        /* \"#utility.yul\":17415:17513   */\n      swap2\n      pop\n        /* \"#utility.yul\":17238:17519   */\n      pop\n        /* \"#utility.yul\":17166:17519   */\n      swap3\n      swap2\n      pop\n      pop\n      jump\t// out\n        /* \"#utility.yul\":17525:18047   */\n    tag_78:\n        /* \"#utility.yul\":17604:17610   */\n      0x00\n        /* \"#utility.yul\":17653:17655   */\n      0x20\n        /* \"#utility.yul\":17641:17650   */\n      dup3\n        /* \"#utility.yul\":17632:17639   */\n      dup5\n        /* \"#utility.yul\":17628:17651   */\n      sub\n        /* \"#utility.yul\":17624:17656   */\n      slt\n        /* \"#utility.yul\":17621:17740   */\n      iszero\n      tag_498\n      jumpi\n        /* \"#utility.yul\":17659:17738   */\n      tag_499\n      tag_242\n      jump\t// in\n    tag_499:\n        /* \"#utility.yul\":17621:17740   */\n    tag_498:\n        /* \"#utility.yul\":17800:17801   */\n      0x00\n        /* \"#utility.yul\":17789:17798   */\n      dup3\n        /* \"#utility.yul\":17785:17802   */\n      add\n        /* \"#utility.yul\":17779:17803   */\n      mload\n        /* \"#utility.yul\":17830:17848   */\n      0xffffffffffffffff\n        /* \"#utility.yul\":17822:17828   */\n      dup2\n        /* \"#utility.yul\":17819:17849   */\n      gt\n        /* \"#utility.yul\":17816:17933   */\n      iszero\n      tag_500\n      jumpi\n        /* \"#utility.yul\":17852:17931   */\n      tag_501\n      tag_243\n      jump\t// in\n    tag_501:\n        /* \"#utility.yul\":17816:17933   */\n    tag_500:\n        /* \"#utility.yul\":17957:18030   */\n      tag_502\n        /* \"#utility.yul\":18022:18029   */\n      dup5\n        /* \"#utility.yul\":18013:18019   */\n      dup3\n        /* \"#utility.yul\":18002:18011   */\n      dup6\n        /* \"#utility.yul\":17998:18020   */\n      add\n        /* \"#utility.yul\":17957:18030   */\n      tag_283\n      jump\t// in\n    tag_502:\n        /* \"#utility.yul\":17947:18030   */\n      swap2\n      pop\n        /* \"#utility.yul\":17750:18040   */\n      pop\n        /* \"#utility.yul\":17525:18047   */\n      swap3\n      swap2\n      pop\n      pop\n      jump\t// out\n        /* \"#utility.yul\":18053:18274   */\n    tag_284:\n        /* \"#utility.yul\":18193:18227   */\n      0x5661756c743a204173736574206e6f7420666f756e6420696e20726567697374\n        /* \"#utility.yul\":18189:18190   */\n      0x00\n        /* \"#utility.yul\":18181:18187   */\n      dup3\n        /* \"#utility.yul\":18177:18191   */\n      add\n        /* \"#utility.yul\":18170:18228   */\n      mstore\n        /* \"#utility.yul\":18262:18266   */\n      0x7279000000000000000000000000000000000000000000000000000000000000\n        /* \"#utility.yul\":18257:18259   */\n      0x20\n        /* \"#utility.yul\":18249:18255   */\n      dup3\n        /* \"#utility.yul\":18245:18260   */\n      add\n        /* \"#utility.yul\":18238:18267   */\n      mstore\n        /* \"#utility.yul\":18053:18274   */\n      pop\n      jump\t// out\n        /* \"#utility.yul\":18280:18646   */\n    tag_285:\n        /* \"#utility.yul\":18422:18425   */\n      0x00\n        /* \"#utility.yul\":18443:18510   */\n      tag_505\n        /* \"#utility.yul\":18507:18509   */\n      0x22\n        /* \"#utility.yul\":18502:18505   */\n      dup4\n        /* \"#utility.yul\":18443:18510   */\n      tag_237\n      jump\t// in\n    tag_505:\n        /* \"#utility.yul\":18436:18510   */\n      swap2\n      pop\n        /* \"#utility.yul\":18519:18612   */\n      tag_506\n        /* \"#utility.yul\":18608:18611   */\n      dup3\n        /* \"#utility.yul\":18519:18612   */\n      tag_284\n      jump\t// in\n    tag_506:\n        /* \"#utility.yul\":18637:18639   */\n      0x40\n        /* \"#utility.yul\":18632:18635   */\n      dup3\n        /* \"#utility.yul\":18628:18640   */\n      add\n        /* \"#utility.yul\":18621:18640   */\n      swap1\n      pop\n        /* \"#utility.yul\":18280:18646   */\n      swap2\n      swap1\n      pop\n      jump\t// out\n        /* \"#utility.yul\":18652:19071   */\n    tag_81:\n        /* \"#utility.yul\":18818:18822   */\n      0x00\n        /* \"#utility.yul\":18856:18858   */\n      0x20\n        /* \"#utility.yul\":18845:18854   */\n      dup3\n        /* \"#utility.yul\":18841:18859   */\n      add\n        /* \"#utility.yul\":18833:18859   */\n      swap1\n      pop\n        /* \"#utility.yul\":18905:18914   */\n      dup2\n        /* \"#utility.yul\":18899:18903   */\n      dup2\n        /* \"#utility.yul\":18895:18915   */\n      sub\n        /* \"#utility.yul\":18891:18892   */\n      0x00\n        /* \"#utility.yul\":18880:18889   */\n      dup4\n        /* \"#utility.yul\":18876:18893   */\n      add\n        /* \"#utility.yul\":18869:18916   */\n      mstore\n        /* \"#utility.yul\":18933:19064   */\n      tag_508\n        /* \"#utility.yul\":19059:19063   */\n      dup2\n        /* \"#utility.yul\":18933:19064   */\n      tag_285\n      jump\t// in\n    tag_508:\n        /* \"#utility.yul\":18925:19064   */\n      swap1\n      pop\n        /* \"#utility.yul\":18652:19071   */\n      swap2\n      swap1\n      pop\n      jump\t// out\n        /* \"#utility.yul\":19077:19253   */\n    tag_286:\n        /* \"#utility.yul\":19217:19245   */\n      0x5661756c743a20546f6b656e206e6f7420737570706f72746564000000000000\n        /* \"#utility.yul\":19213:19214   */\n      0x00\n        /* \"#utility.yul\":19205:19211   */\n      dup3\n        /* \"#utility.yul\":19201:19215   */\n      add\n        /* \"#utility.yul\":19194:19246   */\n      mstore\n        /* \"#utility.yul\":19077:19253   */\n      pop\n      jump\t// out\n        /* \"#utility.yul\":19259:19625   */\n    tag_287:\n        /* \"#utility.yul\":19401:19404   */\n      0x00\n        /* \"#utility.yul\":19422:19489   */\n      tag_511\n        /* \"#utility.yul\":19486:19488   */\n      0x1a\n        /* \"#utility.yul\":19481:19484   */\n      dup4\n        /* \"#utility.yul\":19422:19489   */\n      tag_237\n      jump\t// in\n    tag_511:\n        /* \"#utility.yul\":19415:19489   */\n      swap2\n      pop\n        /* \"#utility.yul\":19498:19591   */\n      tag_512\n        /* \"#utility.yul\":19587:19590   */\n      dup3\n        /* \"#utility.yul\":19498:19591   */\n      tag_286\n      jump\t// in\n    tag_512:\n        /* \"#utility.yul\":19616:19618   */\n      0x20\n        /* \"#utility.yul\":19611:19614   */\n      dup3\n        /* \"#utility.yul\":19607:19619   */\n      add\n        /* \"#utility.yul\":19600:19619   */\n      swap1\n      pop\n        /* \"#utility.yul\":19259:19625   */\n      swap2\n      swap1\n      pop\n      jump\t// out\n        /* \"#utility.yul\":19631:20050   */\n    tag_86:\n        /* \"#utility.yul\":19797:19801   */\n      0x00\n        /* \"#utility.yul\":19835:19837   */\n      0x20\n        /* \"#utility.yul\":19824:19833   */\n      dup3\n        /* \"#utility.yul\":19820:19838   */\n      add\n        /* \"#utility.yul\":19812:19838   */\n      swap1\n      pop\n        /* \"#utility.yul\":19884:19893   */\n      dup2\n        /* \"#utility.yul\":19878:19882   */\n      dup2\n        /* \"#utility.yul\":19874:19894   */\n      sub\n        /* \"#utility.yul\":19870:19871   */\n      0x00\n        /* \"#utility.yul\":19859:19868   */\n      dup4\n        /* \"#utility.yul\":19855:19872   */\n      add\n        /* \"#utility.yul\":19848:19895   */\n      mstore\n        /* \"#utility.yul\":19912:20043   */\n      tag_514\n        /* \"#utility.yul\":20038:20042   */\n      dup2\n        /* \"#utility.yul\":19912:20043   */\n      tag_287\n      jump\t// in\n    tag_514:\n        /* \"#utility.yul\":19904:20043   */\n      swap1\n      pop\n        /* \"#utility.yul\":19631:20050   */\n      swap2\n      swap1\n      pop\n      jump\t// out\n        /* \"#utility.yul\":20056:20236   */\n    tag_97:\n        /* \"#utility.yul\":20104:20181   */\n      0x4e487b7100000000000000000000000000000000000000000000000000000000\n        /* \"#utility.yul\":20101:20102   */\n      0x00\n        /* \"#utility.yul\":20094:20182   */\n      mstore\n        /* \"#utility.yul\":20201:20205   */\n      0x32\n        /* \"#utility.yul\":20198:20199   */\n      0x04\n        /* \"#utility.yul\":20191:20206   */\n      mstore\n        /* \"#utility.yul\":20225:20229   */\n      0x24\n        /* \"#utility.yul\":20222:20223   */\n      0x00\n        /* \"#utility.yul\":20215:20230   */\n      revert\n        /* \"#utility.yul\":20266:20583   */\n    tag_288:\n        /* \"#utility.yul\":20364:20367   */\n      0x00\n        /* \"#utility.yul\":20385:20456   */\n      tag_517\n        /* \"#utility.yul\":20449:20455   */\n      dup4\n        /* \"#utility.yul\":20444:20447   */\n      dup6\n        /* \"#utility.yul\":20385:20456   */\n      tag_237\n      jump\t// in\n    tag_517:\n        /* \"#utility.yul\":20378:20456   */\n      swap4\n      pop\n        /* \"#utility.yul\":20466:20522   */\n      tag_518\n        /* \"#utility.yul\":20515:20521   */\n      dup4\n        /* \"#utility.yul\":20510:20513   */\n      dup6\n        /* \"#utility.yul\":20503:20508   */\n      dup5\n        /* \"#utility.yul\":20466:20522   */\n      tag_249\n      jump\t// in\n    tag_518:\n        /* \"#utility.yul\":20547:20576   */\n      tag_519\n        /* \"#utility.yul\":20569:20575   */\n      dup4\n        /* \"#utility.yul\":20547:20576   */\n      tag_239\n      jump\t// in\n    tag_519:\n        /* \"#utility.yul\":20542:20545   */\n      dup5\n        /* \"#utility.yul\":20538:20577   */\n      add\n        /* \"#utility.yul\":20531:20577   */\n      swap1\n      pop\n        /* \"#utility.yul\":20266:20583   */\n      swap4\n      swap3\n      pop\n      pop\n      pop\n      jump\t// out\n        /* \"#utility.yul\":20589:20922   */\n    tag_99:\n        /* \"#utility.yul\":20712:20716   */\n      0x00\n        /* \"#utility.yul\":20750:20752   */\n      0x20\n        /* \"#utility.yul\":20739:20748   */\n      dup3\n        /* \"#utility.yul\":20735:20753   */\n      add\n        /* \"#utility.yul\":20727:20753   */\n      swap1\n      pop\n        /* \"#utility.yul\":20799:20808   */\n      dup2\n        /* \"#utility.yul\":20793:20797   */\n      dup2\n        /* \"#utility.yul\":20789:20809   */\n      sub\n        /* \"#utility.yul\":20785:20786   */\n      0x00\n        /* \"#utility.yul\":20774:20783   */\n      dup4\n        /* \"#utility.yul\":20770:20787   */\n      add\n        /* \"#utility.yul\":20763:20810   */\n      mstore\n        /* \"#utility.yul\":20827:20915   */\n      tag_521\n        /* \"#utility.yul\":20910:20914   */\n      dup2\n        /* \"#utility.yul\":20901:20907   */\n      dup5\n        /* \"#utility.yul\":20893:20899   */\n      dup7\n        /* \"#utility.yul\":20827:20915   */\n      tag_288\n      jump\t// in\n    tag_521:\n        /* \"#utility.yul\":20819:20915   */\n      swap1\n      pop\n        /* \"#utility.yul\":20589:20922   */\n      swap4\n      swap3\n      pop\n      pop\n      pop\n      jump\t// out\n        /* \"#utility.yul\":20928:21046   */\n    tag_289:\n        /* \"#utility.yul\":21015:21039   */\n      tag_523\n        /* \"#utility.yul\":21033:21038   */\n      dup2\n        /* \"#utility.yul\":21015:21039   */\n      tag_262\n      jump\t// in\n    tag_523:\n        /* \"#utility.yul\":21010:21013   */\n      dup3\n        /* \"#utility.yul\":21003:21040   */\n      mstore\n        /* \"#utility.yul\":20928:21046   */\n      pop\n      pop\n      jump\t// out\n        /* \"#utility.yul\":21052:21274   */\n    tag_103:\n        /* \"#utility.yul\":21145:21149   */\n      0x00\n        /* \"#utility.yul\":21183:21185   */\n      0x20\n        /* \"#utility.yul\":21172:21181   */\n      dup3\n        /* \"#utility.yul\":21168:21186   */\n      add\n        /* \"#utility.yul\":21160:21186   */\n      swap1\n      pop\n        /* \"#utility.yul\":21196:21267   */\n      tag_525\n        /* \"#utility.yul\":21264:21265   */\n      0x00\n        /* \"#utility.yul\":21253:21262   */\n      dup4\n        /* \"#utility.yul\":21249:21266   */\n      add\n        /* \"#utility.yul\":21240:21246   */\n      dup5\n        /* \"#utility.yul\":21196:21267   */\n      tag_289\n      jump\t// in\n    tag_525:\n        /* \"#utility.yul\":21052:21274   */\n      swap3\n      swap2\n      pop\n      pop\n      jump\t// out\n        /* \"#utility.yul\":21280:21434   */\n    tag_290:\n        /* \"#utility.yul\":21420:21426   */\n      0x6261736500000000000000000000000000000000000000000000000000000000\n        /* \"#utility.yul\":21416:21417   */\n      0x00\n        /* \"#utility.yul\":21408:21414   */\n      dup3\n        /* \"#utility.yul\":21404:21418   */\n      add\n        /* \"#utility.yul\":21397:21427   */\n      mstore\n        /* \"#utility.yul\":21280:21434   */\n      pop\n      jump\t// out\n        /* \"#utility.yul\":21440:21805   */\n    tag_291:\n        /* \"#utility.yul\":21582:21585   */\n      0x00\n        /* \"#utility.yul\":21603:21669   */\n      tag_528\n        /* \"#utility.yul\":21667:21668   */\n      0x04\n        /* \"#utility.yul\":21662:21665   */\n      dup4\n        /* \"#utility.yul\":21603:21669   */\n      tag_237\n      jump\t// in\n    tag_528:\n        /* \"#utility.yul\":21596:21669   */\n      swap2\n      pop\n        /* \"#utility.yul\":21678:21771   */\n      tag_529\n        /* \"#utility.yul\":21767:21770   */\n      dup3\n        /* \"#utility.yul\":21678:21771   */\n      tag_290\n      jump\t// in\n    tag_529:\n        /* \"#utility.yul\":21796:21798   */\n      0x20\n        /* \"#utility.yul\":21791:21794   */\n      dup3\n        /* \"#utility.yul\":21787:21799   */\n      add\n        /* \"#utility.yul\":21780:21799   */\n      swap1\n      pop\n        /* \"#utility.yul\":21440:21805   */\n      swap2\n      swap1\n      pop\n      jump\t// out\n        /* \"#utility.yul\":21811:22230   */\n    tag_107:\n        /* \"#utility.yul\":21977:21981   */\n      0x00\n        /* \"#utility.yul\":22015:22017   */\n      0x20\n        /* \"#utility.yul\":22004:22013   */\n      dup3\n        /* \"#utility.yul\":22000:22018   */\n      add\n        /* \"#utility.yul\":21992:22018   */\n      swap1\n      pop\n        /* \"#utility.yul\":22064:22073   */\n      dup2\n        /* \"#utility.yul\":22058:22062   */\n      dup2\n        /* \"#utility.yul\":22054:22074   */\n      sub\n        /* \"#utility.yul\":22050:22051   */\n      0x00\n        /* \"#utility.yul\":22039:22048   */\n      dup4\n        /* \"#utility.yul\":22035:22052   */\n      add\n        /* \"#utility.yul\":22028:22075   */\n      mstore\n        /* \"#utility.yul\":22092:22223   */\n      tag_531\n        /* \"#utility.yul\":22218:22222   */\n      dup2\n        /* \"#utility.yul\":22092:22223   */\n      tag_291\n      jump\t// in\n    tag_531:\n        /* \"#utility.yul\":22084:22223   */\n      swap1\n      pop\n        /* \"#utility.yul\":21811:22230   */\n      swap2\n      swap1\n      pop\n      jump\t// out\n        /* \"#utility.yul\":22260:23091   */\n    tag_292:\n        /* \"#utility.yul\":22345:22348   */\n      0x00\n        /* \"#utility.yul\":22382:22387   */\n      dup2\n        /* \"#utility.yul\":22376:22388   */\n      sload\n        /* \"#utility.yul\":22411:22447   */\n      tag_533\n        /* \"#utility.yul\":22437:22446   */\n      dup2\n        /* \"#utility.yul\":22411:22447   */\n      tag_65\n      jump\t// in\n    tag_533:\n        /* \"#utility.yul\":22463:22534   */\n      tag_534\n        /* \"#utility.yul\":22527:22533   */\n      dup2\n        /* \"#utility.yul\":22522:22525   */\n      dup7\n        /* \"#utility.yul\":22463:22534   */\n      tag_237\n      jump\t// in\n    tag_534:\n        /* \"#utility.yul\":22456:22534   */\n      swap5\n      pop\n        /* \"#utility.yul\":22565:22566   */\n      0x01\n        /* \"#utility.yul\":22554:22563   */\n      dup3\n        /* \"#utility.yul\":22550:22567   */\n      and\n        /* \"#utility.yul\":22581:22582   */\n      0x00\n        /* \"#utility.yul\":22576:22740   */\n      dup2\n      eq\n      tag_536\n      jumpi\n        /* \"#utility.yul\":22754:22755   */\n      0x01\n        /* \"#utility.yul\":22749:23085   */\n      dup2\n      eq\n      tag_537\n      jumpi\n        /* \"#utility.yul\":22543:23085   */\n      jump(tag_535)\n        /* \"#utility.yul\":22576:22740   */\n    tag_536:\n        /* \"#utility.yul\":22660:22664   */\n      0xff\n        /* \"#utility.yul\":22656:22665   */\n      not\n        /* \"#utility.yul\":22645:22654   */\n      dup4\n        /* \"#utility.yul\":22641:22666   */\n      and\n        /* \"#utility.yul\":22636:22639   */\n      dup7\n        /* \"#utility.yul\":22629:22667   */\n      mstore\n        /* \"#utility.yul\":22720:22726   */\n      dup2\n        /* \"#utility.yul\":22713:22727   */\n      iszero\n        /* \"#utility.yul\":22706:22728   */\n      iszero\n        /* \"#utility.yul\":22700:22704   */\n      0x20\n        /* \"#utility.yul\":22696:22729   */\n      mul\n        /* \"#utility.yul\":22691:22694   */\n      dup7\n        /* \"#utility.yul\":22687:22730   */\n      add\n        /* \"#utility.yul\":22680:22730   */\n      swap4\n      pop\n        /* \"#utility.yul\":22576:22740   */\n      jump(tag_535)\n        /* \"#utility.yul\":22749:23085   */\n    tag_537:\n        /* \"#utility.yul\":22816:22854   */\n      tag_538\n        /* \"#utility.yul\":22848:22853   */\n      dup6\n        /* \"#utility.yul\":22816:22854   */\n      tag_277\n      jump\t// in\n    tag_538:\n        /* \"#utility.yul\":22876:22877   */\n      0x00\n        /* \"#utility.yul\":22890:23044   */\n    tag_539:\n        /* \"#utility.yul\":22904:22910   */\n      dup4\n        /* \"#utility.yul\":22901:22902   */\n      dup2\n        /* \"#utility.yul\":22898:22911   */\n      lt\n        /* \"#utility.yul\":22890:23044   */\n      iszero\n      tag_541\n      jumpi\n        /* \"#utility.yul\":22978:22985   */\n      dup2\n        /* \"#utility.yul\":22972:22986   */\n      sload\n        /* \"#utility.yul\":22968:22969   */\n      dup2\n        /* \"#utility.yul\":22963:22966   */\n      dup10\n        /* \"#utility.yul\":22959:22970   */\n      add\n        /* \"#utility.yul\":22952:22987   */\n      mstore\n        /* \"#utility.yul\":23028:23029   */\n      0x01\n        /* \"#utility.yul\":23019:23026   */\n      dup3\n        /* \"#utility.yul\":23015:23030   */\n      add\n        /* \"#utility.yul\":23004:23030   */\n      swap2\n      pop\n        /* \"#utility.yul\":22926:22930   */\n      0x20\n        /* \"#utility.yul\":22923:22924   */\n      dup2\n        /* \"#utility.yul\":22919:22931   */\n      add\n        /* \"#utility.yul\":22914:22931   */\n      swap1\n      pop\n        /* \"#utility.yul\":22890:23044   */\n      jump(tag_539)\n    tag_541:\n        /* \"#utility.yul\":23073:23074   */\n      dup1\n        /* \"#utility.yul\":23068:23071   */\n      dup9\n        /* \"#utility.yul\":23064:23075   */\n      add\n        /* \"#utility.yul\":23057:23075   */\n      swap6\n      pop\n        /* \"#utility.yul\":22756:23085   */\n      pop\n      pop\n        /* \"#utility.yul\":22543:23085   */\n    tag_535:\n      pop\n        /* \"#utility.yul\":22349:23091   */\n      pop\n      pop\n        /* \"#utility.yul\":22260:23091   */\n      swap3\n      swap2\n      pop\n      pop\n      jump\t// out\n        /* \"#utility.yul\":23097:23404   */\n    tag_111:\n        /* \"#utility.yul\":23207:23211   */\n      0x00\n        /* \"#utility.yul\":23245:23247   */\n      0x20\n        /* \"#utility.yul\":23234:23243   */\n      dup3\n        /* \"#utility.yul\":23230:23248   */\n      add\n        /* \"#utility.yul\":23222:23248   */\n      swap1\n      pop\n        /* \"#utility.yul\":23294:23303   */\n      dup2\n        /* \"#utility.yul\":23288:23292   */\n      dup2\n        /* \"#utility.yul\":23284:23304   */\n      sub\n        /* \"#utility.yul\":23280:23281   */\n      0x00\n        /* \"#utility.yul\":23269:23278   */\n      dup4\n        /* \"#utility.yul\":23265:23282   */\n      add\n        /* \"#utility.yul\":23258:23305   */\n      mstore\n        /* \"#utility.yul\":23322:23397   */\n      tag_543\n        /* \"#utility.yul\":23392:23396   */\n      dup2\n        /* \"#utility.yul\":23383:23389   */\n      dup5\n        /* \"#utility.yul\":23322:23397   */\n      tag_292\n      jump\t// in\n    tag_543:\n        /* \"#utility.yul\":23314:23397   */\n      swap1\n      pop\n        /* \"#utility.yul\":23097:23404   */\n      swap3\n      swap2\n      pop\n      pop\n      jump\t// out\n        /* \"#utility.yul\":23410:23576   */\n    tag_293:\n        /* \"#utility.yul\":23550:23568   */\n      0x4d6f64756c617220576974686472617700000000000000000000000000000000\n        /* \"#utility.yul\":23546:23547   */\n      0x00\n        /* \"#utility.yul\":23538:23544   */\n      dup3\n        /* \"#utility.yul\":23534:23548   */\n      add\n        /* \"#utility.yul\":23527:23569   */\n      mstore\n        /* \"#utility.yul\":23410:23576   */\n      pop\n      jump\t// out\n        /* \"#utility.yul\":23582:23948   */\n    tag_294:\n        /* \"#utility.yul\":23724:23727   */\n      0x00\n        /* \"#utility.yul\":23745:23812   */\n      tag_546\n        /* \"#utility.yul\":23809:23811   */\n      0x10\n        /* \"#utility.yul\":23804:23807   */\n      dup4\n        /* \"#utility.yul\":23745:23812   */\n      tag_237\n      jump\t// in\n    tag_546:\n        /* \"#utility.yul\":23738:23812   */\n      swap2\n      pop\n        /* \"#utility.yul\":23821:23914   */\n      tag_547\n        /* \"#utility.yul\":23910:23913   */\n      dup3\n        /* \"#utility.yul\":23821:23914   */\n      tag_293\n      jump\t// in\n    tag_547:\n        /* \"#utility.yul\":23939:23941   */\n      0x20\n        /* \"#utility.yul\":23934:23937   */\n      dup3\n        /* \"#utility.yul\":23930:23942   */\n      add\n        /* \"#utility.yul\":23923:23942   */\n      swap1\n      pop\n        /* \"#utility.yul\":23582:23948   */\n      swap2\n      swap1\n      pop\n      jump\t// out\n        /* \"#utility.yul\":23954:24089   */\n    tag_295:\n        /* \"#utility.yul\":24042:24048   */\n      0x00\n        /* \"#utility.yul\":24076:24081   */\n      dup2\n        /* \"#utility.yul\":24070:24082   */\n      mload\n        /* \"#utility.yul\":24060:24082   */\n      swap1\n      pop\n        /* \"#utility.yul\":23954:24089   */\n      swap2\n      swap1\n      pop\n      jump\t// out\n        /* \"#utility.yul\":24095:24300   */\n    tag_296:\n        /* \"#utility.yul\":24215:24226   */\n      0x00\n        /* \"#utility.yul\":24249:24255   */\n      dup3\n        /* \"#utility.yul\":24244:24247   */\n      dup3\n        /* \"#utility.yul\":24237:24256   */\n      mstore\n        /* \"#utility.yul\":24289:24293   */\n      0x20\n        /* \"#utility.yul\":24284:24287   */\n      dup3\n        /* \"#utility.yul\":24280:24294   */\n      add\n        /* \"#utility.yul\":24265:24294   */\n      swap1\n      pop\n        /* \"#utility.yul\":24095:24300   */\n      swap3\n      swap2\n      pop\n      pop\n      jump\t// out\n        /* \"#utility.yul\":24306:24459   */\n    tag_297:\n        /* \"#utility.yul\":24394:24398   */\n      0x00\n        /* \"#utility.yul\":24417:24420   */\n      dup2\n        /* \"#utility.yul\":24409:24420   */\n      swap1\n      pop\n        /* \"#utility.yul\":24447:24451   */\n      0x20\n        /* \"#utility.yul\":24442:24445   */\n      dup3\n        /* \"#utility.yul\":24438:24452   */\n      add\n        /* \"#utility.yul\":24430:24452   */\n      swap1\n      pop\n        /* \"#utility.yul\":24306:24459   */\n      swap2\n      swap1\n      pop\n      jump\t// out\n        /* \"#utility.yul\":24465:24624   */\n    tag_298:\n        /* \"#utility.yul\":24539:24550   */\n      0x00\n        /* \"#utility.yul\":24573:24579   */\n      dup3\n        /* \"#utility.yul\":24568:24571   */\n      dup3\n        /* \"#utility.yul\":24561:24580   */\n      mstore\n        /* \"#utility.yul\":24613:24617   */\n      0x20\n        /* \"#utility.yul\":24608:24611   */\n      dup3\n        /* \"#utility.yul\":24604:24618   */\n      add\n        /* \"#utility.yul\":24589:24618   */\n      swap1\n      pop\n        /* \"#utility.yul\":24465:24624   */\n      swap3\n      swap2\n      pop\n      pop\n      jump\t// out\n        /* \"#utility.yul\":24630:24987   */\n    tag_299:\n        /* \"#utility.yul\":24708:24711   */\n      0x00\n        /* \"#utility.yul\":24736:24775   */\n      tag_553\n        /* \"#utility.yul\":24769:24774   */\n      dup3\n        /* \"#utility.yul\":24736:24775   */\n      tag_236\n      jump\t// in\n    tag_553:\n        /* \"#utility.yul\":24791:24852   */\n      tag_554\n        /* \"#utility.yul\":24845:24851   */\n      dup2\n        /* \"#utility.yul\":24840:24843   */\n      dup6\n        /* \"#utility.yul\":24791:24852   */\n      tag_298\n      jump\t// in\n    tag_554:\n        /* \"#utility.yul\":24784:24852   */\n      swap4\n      pop\n        /* \"#utility.yul\":24861:24926   */\n      tag_555\n        /* \"#utility.yul\":24919:24925   */\n      dup2\n        /* \"#utility.yul\":24914:24917   */\n      dup6\n        /* \"#utility.yul\":24907:24911   */\n      0x20\n        /* \"#utility.yul\":24900:24905   */\n      dup7\n        /* \"#utility.yul\":24896:24912   */\n      add\n        /* \"#utility.yul\":24861:24926   */\n      tag_238\n      jump\t// in\n    tag_555:\n        /* \"#utility.yul\":24951:24980   */\n      tag_556\n        /* \"#utility.yul\":24973:24979   */\n      dup2\n        /* \"#utility.yul\":24951:24980   */\n      tag_239\n      jump\t// in\n    tag_556:\n        /* \"#utility.yul\":24946:24949   */\n      dup5\n        /* \"#utility.yul\":24942:24981   */\n      add\n        /* \"#utility.yul\":24935:24981   */\n      swap2\n      pop\n        /* \"#utility.yul\":24712:24987   */\n      pop\n        /* \"#utility.yul\":24630:24987   */\n      swap3\n      swap2\n      pop\n      pop\n      jump\t// out\n        /* \"#utility.yul\":24993:25091   */\n    tag_300:\n        /* \"#utility.yul\":25044:25050   */\n      0x00\n        /* \"#utility.yul\":25078:25083   */\n      dup2\n        /* \"#utility.yul\":25072:25084   */\n      mload\n        /* \"#utility.yul\":25062:25084   */\n      swap1\n      pop\n        /* \"#utility.yul\":24993:25091   */\n      swap2\n      swap1\n      pop\n      jump\t// out\n        /* \"#utility.yul\":25097:25255   */\n    tag_301:\n        /* \"#utility.yul\":25170:25181   */\n      0x00\n        /* \"#utility.yul\":25204:25210   */\n      dup3\n        /* \"#utility.yul\":25199:25202   */\n      dup3\n        /* \"#utility.yul\":25192:25211   */\n      mstore\n        /* \"#utility.yul\":25244:25248   */\n      0x20\n        /* \"#utility.yul\":25239:25242   */\n      dup3\n        /* \"#utility.yul\":25235:25249   */\n      add\n        /* \"#utility.yul\":25220:25249   */\n      swap1\n      pop\n        /* \"#utility.yul\":25097:25255   */\n      swap3\n      swap2\n      pop\n      pop\n      jump\t// out\n        /* \"#utility.yul\":25261:25614   */\n    tag_302:\n        /* \"#utility.yul\":25337:25340   */\n      0x00\n        /* \"#utility.yul\":25365:25403   */\n      tag_560\n        /* \"#utility.yul\":25397:25402   */\n      dup3\n        /* \"#utility.yul\":25365:25403   */\n      tag_300\n      jump\t// in\n    tag_560:\n        /* \"#utility.yul\":25419:25479   */\n      tag_561\n        /* \"#utility.yul\":25472:25478   */\n      dup2\n        /* \"#utility.yul\":25467:25470   */\n      dup6\n        /* \"#utility.yul\":25419:25479   */\n      tag_301\n      jump\t// in\n    tag_561:\n        /* \"#utility.yul\":25412:25479   */\n      swap4\n      pop\n        /* \"#utility.yul\":25488:25553   */\n      tag_562\n        /* \"#utility.yul\":25546:25552   */\n      dup2\n        /* \"#utility.yul\":25541:25544   */\n      dup6\n        /* \"#utility.yul\":25534:25538   */\n      0x20\n        /* \"#utility.yul\":25527:25532   */\n      dup7\n        /* \"#utility.yul\":25523:25539   */\n      add\n        /* \"#utility.yul\":25488:25553   */\n      tag_238\n      jump\t// in\n    tag_562:\n        /* \"#utility.yul\":25578:25607   */\n      tag_563\n        /* \"#utility.yul\":25600:25606   */\n      dup2\n        /* \"#utility.yul\":25578:25607   */\n      tag_239\n      jump\t// in\n    tag_563:\n        /* \"#utility.yul\":25573:25576   */\n      dup5\n        /* \"#utility.yul\":25569:25608   */\n      add\n        /* \"#utility.yul\":25562:25608   */\n      swap2\n      pop\n        /* \"#utility.yul\":25341:25614   */\n      pop\n        /* \"#utility.yul\":25261:25614   */\n      swap3\n      swap2\n      pop\n      pop\n      jump\t// out\n        /* \"#utility.yul\":25670:26577   */\n    tag_303:\n        /* \"#utility.yul\":25771:25774   */\n      0x00\n        /* \"#utility.yul\":25807:25811   */\n      0x60\n        /* \"#utility.yul\":25802:25805   */\n      dup4\n        /* \"#utility.yul\":25798:25812   */\n      add\n        /* \"#utility.yul\":25894:25898   */\n      0x00\n        /* \"#utility.yul\":25887:25892   */\n      dup4\n        /* \"#utility.yul\":25883:25899   */\n      add\n        /* \"#utility.yul\":25877:25900   */\n      mload\n        /* \"#utility.yul\":25947:25950   */\n      dup5\n        /* \"#utility.yul\":25941:25945   */\n      dup3\n        /* \"#utility.yul\":25937:25951   */\n      sub\n        /* \"#utility.yul\":25930:25934   */\n      0x00\n        /* \"#utility.yul\":25925:25928   */\n      dup7\n        /* \"#utility.yul\":25921:25935   */\n      add\n        /* \"#utility.yul\":25914:25952   */\n      mstore\n        /* \"#utility.yul\":25973:26046   */\n      tag_565\n        /* \"#utility.yul\":26041:26045   */\n      dup3\n        /* \"#utility.yul\":26027:26039   */\n      dup3\n        /* \"#utility.yul\":25973:26046   */\n      tag_299\n      jump\t// in\n    tag_565:\n        /* \"#utility.yul\":25965:26046   */\n      swap2\n      pop\n        /* \"#utility.yul\":25822:26057   */\n      pop\n        /* \"#utility.yul\":26143:26147   */\n      0x20\n        /* \"#utility.yul\":26136:26141   */\n      dup4\n        /* \"#utility.yul\":26132:26148   */\n      add\n        /* \"#utility.yul\":26126:26149   */\n      mload\n        /* \"#utility.yul\":26196:26199   */\n      dup5\n        /* \"#utility.yul\":26190:26194   */\n      dup3\n        /* \"#utility.yul\":26186:26200   */\n      sub\n        /* \"#utility.yul\":26179:26183   */\n      0x20\n        /* \"#utility.yul\":26174:26177   */\n      dup7\n        /* \"#utility.yul\":26170:26184   */\n      add\n        /* \"#utility.yul\":26163:26201   */\n      mstore\n        /* \"#utility.yul\":26222:26295   */\n      tag_566\n        /* \"#utility.yul\":26290:26294   */\n      dup3\n        /* \"#utility.yul\":26276:26288   */\n      dup3\n        /* \"#utility.yul\":26222:26295   */\n      tag_299\n      jump\t// in\n    tag_566:\n        /* \"#utility.yul\":26214:26295   */\n      swap2\n      pop\n        /* \"#utility.yul\":26067:26306   */\n      pop\n        /* \"#utility.yul\":26389:26393   */\n      0x40\n        /* \"#utility.yul\":26382:26387   */\n      dup4\n        /* \"#utility.yul\":26378:26394   */\n      add\n        /* \"#utility.yul\":26372:26395   */\n      mload\n        /* \"#utility.yul\":26442:26445   */\n      dup5\n        /* \"#utility.yul\":26436:26440   */\n      dup3\n        /* \"#utility.yul\":26432:26446   */\n      sub\n        /* \"#utility.yul\":26425:26429   */\n      0x40\n        /* \"#utility.yul\":26420:26423   */\n      dup7\n        /* \"#utility.yul\":26416:26430   */\n      add\n        /* \"#utility.yul\":26409:26447   */\n      mstore\n        /* \"#utility.yul\":26468:26539   */\n      tag_567\n        /* \"#utility.yul\":26534:26538   */\n      dup3\n        /* \"#utility.yul\":26520:26532   */\n      dup3\n        /* \"#utility.yul\":26468:26539   */\n      tag_302\n      jump\t// in\n    tag_567:\n        /* \"#utility.yul\":26460:26539   */\n      swap2\n      pop\n        /* \"#utility.yul\":26316:26550   */\n      pop\n        /* \"#utility.yul\":26567:26571   */\n      dup1\n        /* \"#utility.yul\":26560:26571   */\n      swap2\n      pop\n        /* \"#utility.yul\":25776:26577   */\n      pop\n        /* \"#utility.yul\":25670:26577   */\n      swap3\n      swap2\n      pop\n      pop\n      jump\t// out\n        /* \"#utility.yul\":26583:26823   */\n    tag_304:\n        /* \"#utility.yul\":26694:26704   */\n      0x00\n        /* \"#utility.yul\":26729:26817   */\n      tag_569\n        /* \"#utility.yul\":26813:26816   */\n      dup4\n        /* \"#utility.yul\":26805:26811   */\n      dup4\n        /* \"#utility.yul\":26729:26817   */\n      tag_303\n      jump\t// in\n    tag_569:\n        /* \"#utility.yul\":26715:26817   */\n      swap1\n      pop\n        /* \"#utility.yul\":26583:26823   */\n      swap3\n      swap2\n      pop\n      pop\n      jump\t// out\n        /* \"#utility.yul\":26829:26963   */\n    tag_305:\n        /* \"#utility.yul\":26920:26924   */\n      0x00\n        /* \"#utility.yul\":26952:26956   */\n      0x20\n        /* \"#utility.yul\":26947:26950   */\n      dup3\n        /* \"#utility.yul\":26943:26957   */\n      add\n        /* \"#utility.yul\":26935:26957   */\n      swap1\n      pop\n        /* \"#utility.yul\":26829:26963   */\n      swap2\n      swap1\n      pop\n      jump\t// out\n        /* \"#utility.yul\":27023:28102   */\n    tag_306:\n        /* \"#utility.yul\":27184:27187   */\n      0x00\n        /* \"#utility.yul\":27213:27288   */\n      tag_572\n        /* \"#utility.yul\":27282:27287   */\n      dup3\n        /* \"#utility.yul\":27213:27288   */\n      tag_295\n      jump\t// in\n    tag_572:\n        /* \"#utility.yul\":27304:27411   */\n      tag_573\n        /* \"#utility.yul\":27404:27410   */\n      dup2\n        /* \"#utility.yul\":27399:27402   */\n      dup6\n        /* \"#utility.yul\":27304:27411   */\n      tag_296\n      jump\t// in\n    tag_573:\n        /* \"#utility.yul\":27297:27411   */\n      swap4\n      pop\n        /* \"#utility.yul\":27437:27440   */\n      dup4\n        /* \"#utility.yul\":27482:27486   */\n      0x20\n        /* \"#utility.yul\":27474:27480   */\n      dup3\n        /* \"#utility.yul\":27470:27487   */\n      mul\n        /* \"#utility.yul\":27465:27468   */\n      dup6\n        /* \"#utility.yul\":27461:27488   */\n      add\n        /* \"#utility.yul\":27512:27589   */\n      tag_574\n        /* \"#utility.yul\":27583:27588   */\n      dup6\n        /* \"#utility.yul\":27512:27589   */\n      tag_297\n      jump\t// in\n    tag_574:\n        /* \"#utility.yul\":27612:27619   */\n      dup1\n        /* \"#utility.yul\":27643:27644   */\n      0x00\n        /* \"#utility.yul\":27628:28057   */\n    tag_575:\n        /* \"#utility.yul\":27653:27659   */\n      dup6\n        /* \"#utility.yul\":27650:27651   */\n      dup2\n        /* \"#utility.yul\":27647:27660   */\n      lt\n        /* \"#utility.yul\":27628:28057   */\n      iszero\n      tag_577\n      jumpi\n        /* \"#utility.yul\":27724:27733   */\n      dup5\n        /* \"#utility.yul\":27718:27722   */\n      dup5\n        /* \"#utility.yul\":27714:27734   */\n      sub\n        /* \"#utility.yul\":27709:27712   */\n      dup10\n        /* \"#utility.yul\":27702:27735   */\n      mstore\n        /* \"#utility.yul\":27775:27781   */\n      dup2\n        /* \"#utility.yul\":27769:27782   */\n      mload\n        /* \"#utility.yul\":27803:27909   */\n      tag_578\n        /* \"#utility.yul\":27904:27908   */\n      dup6\n        /* \"#utility.yul\":27889:27902   */\n      dup3\n        /* \"#utility.yul\":27803:27909   */\n      tag_304\n      jump\t// in\n    tag_578:\n        /* \"#utility.yul\":27795:27909   */\n      swap5\n      pop\n        /* \"#utility.yul\":27932:28013   */\n      tag_579\n        /* \"#utility.yul\":28006:28012   */\n      dup4\n        /* \"#utility.yul\":27932:28013   */\n      tag_305\n      jump\t// in\n    tag_579:\n        /* \"#utility.yul\":27922:28013   */\n      swap3\n      pop\n        /* \"#utility.yul\":28042:28046   */\n      0x20\n        /* \"#utility.yul\":28037:28040   */\n      dup11\n        /* \"#utility.yul\":28033:28047   */\n      add\n        /* \"#utility.yul\":28026:28047   */\n      swap10\n      pop\n        /* \"#utility.yul\":27688:28057   */\n      pop\n        /* \"#utility.yul\":27675:27676   */\n      0x01\n        /* \"#utility.yul\":27672:27673   */\n      dup2\n        /* \"#utility.yul\":27668:27677   */\n      add\n        /* \"#utility.yul\":27663:27677   */\n      swap1\n      pop\n        /* \"#utility.yul\":27628:28057   */\n      jump(tag_575)\n    tag_577:\n        /* \"#utility.yul\":27632:27646   */\n      pop\n        /* \"#utility.yul\":28073:28077   */\n      dup3\n        /* \"#utility.yul\":28066:28077   */\n      swap8\n      pop\n        /* \"#utility.yul\":28093:28096   */\n      dup8\n        /* \"#utility.yul\":28086:28096   */\n      swap6\n      pop\n        /* \"#utility.yul\":27189:28102   */\n      pop\n      pop\n      pop\n      pop\n      pop\n        /* \"#utility.yul\":27023:28102   */\n      swap3\n      swap2\n      pop\n      pop\n      jump\t// out\n        /* \"#utility.yul\":28108:28872   */\n    tag_118:\n        /* \"#utility.yul\":28394:28398   */\n      0x00\n        /* \"#utility.yul\":28432:28434   */\n      0x40\n        /* \"#utility.yul\":28421:28430   */\n      dup3\n        /* \"#utility.yul\":28417:28435   */\n      add\n        /* \"#utility.yul\":28409:28435   */\n      swap1\n      pop\n        /* \"#utility.yul\":28481:28490   */\n      dup2\n        /* \"#utility.yul\":28475:28479   */\n      dup2\n        /* \"#utility.yul\":28471:28491   */\n      sub\n        /* \"#utility.yul\":28467:28468   */\n      0x00\n        /* \"#utility.yul\":28456:28465   */\n      dup4\n        /* \"#utility.yul\":28452:28469   */\n      add\n        /* \"#utility.yul\":28445:28492   */\n      mstore\n        /* \"#utility.yul\":28509:28640   */\n      tag_581\n        /* \"#utility.yul\":28635:28639   */\n      dup2\n        /* \"#utility.yul\":28509:28640   */\n      tag_294\n      jump\t// in\n    tag_581:\n        /* \"#utility.yul\":28501:28640   */\n      swap1\n      pop\n        /* \"#utility.yul\":28687:28696   */\n      dup2\n        /* \"#utility.yul\":28681:28685   */\n      dup2\n        /* \"#utility.yul\":28677:28697   */\n      sub\n        /* \"#utility.yul\":28672:28674   */\n      0x20\n        /* \"#utility.yul\":28661:28670   */\n      dup4\n        /* \"#utility.yul\":28657:28675   */\n      add\n        /* \"#utility.yul\":28650:28698   */\n      mstore\n        /* \"#utility.yul\":28715:28865   */\n      tag_582\n        /* \"#utility.yul\":28860:28864   */\n      dup2\n        /* \"#utility.yul\":28851:28857   */\n      dup5\n        /* \"#utility.yul\":28715:28865   */\n      tag_306\n      jump\t// in\n    tag_582:\n        /* \"#utility.yul\":28707:28865   */\n      swap1\n      pop\n        /* \"#utility.yul\":28108:28872   */\n      swap3\n      swap2\n      pop\n      pop\n      jump\t// out\n        /* \"#utility.yul\":28878:29043   */\n    tag_307:\n        /* \"#utility.yul\":29018:29035   */\n      0x4469726563742057697468647261770000000000000000000000000000000000\n        /* \"#utility.yul\":29014:29015   */\n      0x00\n        /* \"#utility.yul\":29006:29012   */\n      dup3\n        /* \"#utility.yul\":29002:29016   */\n      add\n        /* \"#utility.yul\":28995:29036   */\n      mstore\n        /* \"#utility.yul\":28878:29043   */\n      pop\n      jump\t// out\n        /* \"#utility.yul\":29049:29415   */\n    tag_308:\n        /* \"#utility.yul\":29191:29194   */\n      0x00\n        /* \"#utility.yul\":29212:29279   */\n      tag_585\n        /* \"#utility.yul\":29276:29278   */\n      0x0f\n        /* \"#utility.yul\":29271:29274   */\n      dup4\n        /* \"#utility.yul\":29212:29279   */\n      tag_237\n      jump\t// in\n    tag_585:\n        /* \"#utility.yul\":29205:29279   */\n      swap2\n      pop\n        /* \"#utility.yul\":29288:29381   */\n      tag_586\n        /* \"#utility.yul\":29377:29380   */\n      dup3\n        /* \"#utility.yul\":29288:29381   */\n      tag_307\n      jump\t// in\n    tag_586:\n        /* \"#utility.yul\":29406:29408   */\n      0x20\n        /* \"#utility.yul\":29401:29404   */\n      dup3\n        /* \"#utility.yul\":29397:29409   */\n      add\n        /* \"#utility.yul\":29390:29409   */\n      swap1\n      pop\n        /* \"#utility.yul\":29049:29415   */\n      swap2\n      swap1\n      pop\n      jump\t// out\n        /* \"#utility.yul\":29421:30185   */\n    tag_160:\n        /* \"#utility.yul\":29707:29711   */\n      0x00\n        /* \"#utility.yul\":29745:29747   */\n      0x40\n        /* \"#utility.yul\":29734:29743   */\n      dup3\n        /* \"#utility.yul\":29730:29748   */\n      add\n        /* \"#utility.yul\":29722:29748   */\n      swap1\n      pop\n        /* \"#utility.yul\":29794:29803   */\n      dup2\n        /* \"#utility.yul\":29788:29792   */\n      dup2\n        /* \"#utility.yul\":29784:29804   */\n      sub\n        /* \"#utility.yul\":29780:29781   */\n      0x00\n        /* \"#utility.yul\":29769:29778   */\n      dup4\n        /* \"#utility.yul\":29765:29782   */\n      add\n        /* \"#utility.yul\":29758:29805   */\n      mstore\n        /* \"#utility.yul\":29822:29953   */\n      tag_588\n        /* \"#utility.yul\":29948:29952   */\n      dup2\n        /* \"#utility.yul\":29822:29953   */\n      tag_308\n      jump\t// in\n    tag_588:\n        /* \"#utility.yul\":29814:29953   */\n      swap1\n      pop\n        /* \"#utility.yul\":30000:30009   */\n      dup2\n        /* \"#utility.yul\":29994:29998   */\n      dup2\n        /* \"#utility.yul\":29990:30010   */\n      sub\n        /* \"#utility.yul\":29985:29987   */\n      0x20\n        /* \"#utility.yul\":29974:29983   */\n      dup4\n        /* \"#utility.yul\":29970:29988   */\n      add\n        /* \"#utility.yul\":29963:30011   */\n      mstore\n        /* \"#utility.yul\":30028:30178   */\n      tag_589\n        /* \"#utility.yul\":30173:30177   */\n      dup2\n        /* \"#utility.yul\":30164:30170   */\n      dup5\n        /* \"#utility.yul\":30028:30178   */\n      tag_306\n      jump\t// in\n    tag_589:\n        /* \"#utility.yul\":30020:30178   */\n      swap1\n      pop\n        /* \"#utility.yul\":29421:30185   */\n      swap3\n      swap2\n      pop\n      pop\n      jump\t// out\n        /* \"#utility.yul\":30191:30608   */\n    tag_165:\n        /* \"#utility.yul\":30329:30333   */\n      0x00\n        /* \"#utility.yul\":30367:30369   */\n      0x40\n        /* \"#utility.yul\":30356:30365   */\n      dup3\n        /* \"#utility.yul\":30352:30370   */\n      add\n        /* \"#utility.yul\":30344:30370   */\n      swap1\n      pop\n        /* \"#utility.yul\":30380:30451   */\n      tag_591\n        /* \"#utility.yul\":30448:30449   */\n      0x00\n        /* \"#utility.yul\":30437:30446   */\n      dup4\n        /* \"#utility.yul\":30433:30450   */\n      add\n        /* \"#utility.yul\":30424:30430   */\n      dup6\n        /* \"#utility.yul\":30380:30451   */\n      tag_289\n      jump\t// in\n    tag_591:\n        /* \"#utility.yul\":30498:30507   */\n      dup2\n        /* \"#utility.yul\":30492:30496   */\n      dup2\n        /* \"#utility.yul\":30488:30508   */\n      sub\n        /* \"#utility.yul\":30483:30485   */\n      0x20\n        /* \"#utility.yul\":30472:30481   */\n      dup4\n        /* \"#utility.yul\":30468:30486   */\n      add\n        /* \"#utility.yul\":30461:30509   */\n      mstore\n        /* \"#utility.yul\":30526:30601   */\n      tag_592\n        /* \"#utility.yul\":30596:30600   */\n      dup2\n        /* \"#utility.yul\":30587:30593   */\n      dup5\n        /* \"#utility.yul\":30526:30601   */\n      tag_292\n      jump\t// in\n    tag_592:\n        /* \"#utility.yul\":30518:30601   */\n      swap1\n      pop\n        /* \"#utility.yul\":30191:30608   */\n      swap4\n      swap3\n      pop\n      pop\n      pop\n      jump\t// out\n        /* \"#utility.yul\":30614:30790   */\n    tag_309:\n        /* \"#utility.yul\":30754:30782   */\n      0x5661756c743a204465706f736974206d757374206265203e2030000000000000\n        /* \"#utility.yul\":30750:30751   */\n      0x00\n        /* \"#utility.yul\":30742:30748   */\n      dup3\n        /* \"#utility.yul\":30738:30752   */\n      add\n        /* \"#utility.yul\":30731:30783   */\n      mstore\n        /* \"#utility.yul\":30614:30790   */\n      pop\n      jump\t// out\n        /* \"#utility.yul\":30796:31162   */\n    tag_310:\n        /* \"#utility.yul\":30938:30941   */\n      0x00\n        /* \"#utility.yul\":30959:31026   */\n      tag_595\n        /* \"#utility.yul\":31023:31025   */\n      0x1a\n        /* \"#utility.yul\":31018:31021   */\n      dup4\n        /* \"#utility.yul\":30959:31026   */\n      tag_237\n      jump\t// in\n    tag_595:\n        /* \"#utility.yul\":30952:31026   */\n      swap2\n      pop\n        /* \"#utility.yul\":31035:31128   */\n      tag_596\n        /* \"#utility.yul\":31124:31127   */\n      dup3\n        /* \"#utility.yul\":31035:31128   */\n      tag_309\n      jump\t// in\n    tag_596:\n        /* \"#utility.yul\":31153:31155   */\n      0x20\n        /* \"#utility.yul\":31148:31151   */\n      dup3\n        /* \"#utility.yul\":31144:31156   */\n      add\n        /* \"#utility.yul\":31137:31156   */\n      swap1\n      pop\n        /* \"#utility.yul\":30796:31162   */\n      swap2\n      swap1\n      pop\n      jump\t// out\n        /* \"#utility.yul\":31168:31587   */\n    tag_173:\n        /* \"#utility.yul\":31334:31338   */\n      0x00\n        /* \"#utility.yul\":31372:31374   */\n      0x20\n        /* \"#utility.yul\":31361:31370   */\n      dup3\n        /* \"#utility.yul\":31357:31375   */\n      add\n        /* \"#utility.yul\":31349:31375   */\n      swap1\n      pop\n        /* \"#utility.yul\":31421:31430   */\n      dup2\n        /* \"#utility.yul\":31415:31419   */\n      dup2\n        /* \"#utility.yul\":31411:31431   */\n      sub\n        /* \"#utility.yul\":31407:31408   */\n      0x00\n        /* \"#utility.yul\":31396:31405   */\n      dup4\n        /* \"#utility.yul\":31392:31409   */\n      add\n        /* \"#utility.yul\":31385:31432   */\n      mstore\n        /* \"#utility.yul\":31449:31580   */\n      tag_598\n        /* \"#utility.yul\":31575:31579   */\n      dup2\n        /* \"#utility.yul\":31449:31580   */\n      tag_310\n      jump\t// in\n    tag_598:\n        /* \"#utility.yul\":31441:31580   */\n      swap1\n      pop\n        /* \"#utility.yul\":31168:31587   */\n      swap2\n      swap1\n      pop\n      jump\t// out\n        /* \"#utility.yul\":31593:31750   */\n    tag_311:\n        /* \"#utility.yul\":31733:31742   */\n      0x4465706f73697400000000000000000000000000000000000000000000000000\n        /* \"#utility.yul\":31729:31730   */\n      0x00\n        /* \"#utility.yul\":31721:31727   */\n      dup3\n        /* \"#utility.yul\":31717:31731   */\n      add\n        /* \"#utility.yul\":31710:31743   */\n      mstore\n        /* \"#utility.yul\":31593:31750   */\n      pop\n      jump\t// out\n        /* \"#utility.yul\":31756:32121   */\n    tag_312:\n        /* \"#utility.yul\":31898:31901   */\n      0x00\n        /* \"#utility.yul\":31919:31985   */\n      tag_601\n        /* \"#utility.yul\":31983:31984   */\n      0x07\n        /* \"#utility.yul\":31978:31981   */\n      dup4\n        /* \"#utility.yul\":31919:31985   */\n      tag_237\n      jump\t// in\n    tag_601:\n        /* \"#utility.yul\":31912:31985   */\n      swap2\n      pop\n        /* \"#utility.yul\":31994:32087   */\n      tag_602\n        /* \"#utility.yul\":32083:32086   */\n      dup3\n        /* \"#utility.yul\":31994:32087   */\n      tag_311\n      jump\t// in\n    tag_602:\n        /* \"#utility.yul\":32112:32114   */\n      0x20\n        /* \"#utility.yul\":32107:32110   */\n      dup3\n        /* \"#utility.yul\":32103:32115   */\n      add\n        /* \"#utility.yul\":32096:32115   */\n      swap1\n      pop\n        /* \"#utility.yul\":31756:32121   */\n      swap2\n      swap1\n      pop\n      jump\t// out\n        /* \"#utility.yul\":32127:32891   */\n    tag_197:\n        /* \"#utility.yul\":32413:32417   */\n      0x00\n        /* \"#utility.yul\":32451:32453   */\n      0x40\n        /* \"#utility.yul\":32440:32449   */\n      dup3\n        /* \"#utility.yul\":32436:32454   */\n      add\n        /* \"#utility.yul\":32428:32454   */\n      swap1\n      pop\n        /* \"#utility.yul\":32500:32509   */\n      dup2\n        /* \"#utility.yul\":32494:32498   */\n      dup2\n        /* \"#utility.yul\":32490:32510   */\n      sub\n        /* \"#utility.yul\":32486:32487   */\n      0x00\n        /* \"#utility.yul\":32475:32484   */\n      dup4\n        /* \"#utility.yul\":32471:32488   */\n      add\n        /* \"#utility.yul\":32464:32511   */\n      mstore\n        /* \"#utility.yul\":32528:32659   */\n      tag_604\n        /* \"#utility.yul\":32654:32658   */\n      dup2\n        /* \"#utility.yul\":32528:32659   */\n      tag_312\n      jump\t// in\n    tag_604:\n        /* \"#utility.yul\":32520:32659   */\n      swap1\n      pop\n        /* \"#utility.yul\":32706:32715   */\n      dup2\n        /* \"#utility.yul\":32700:32704   */\n      dup2\n        /* \"#utility.yul\":32696:32716   */\n      sub\n        /* \"#utility.yul\":32691:32693   */\n      0x20\n        /* \"#utility.yul\":32680:32689   */\n      dup4\n        /* \"#utility.yul\":32676:32694   */\n      add\n        /* \"#utility.yul\":32669:32717   */\n      mstore\n        /* \"#utility.yul\":32734:32884   */\n      tag_605\n        /* \"#utility.yul\":32879:32883   */\n      dup2\n        /* \"#utility.yul\":32870:32876   */\n      dup5\n        /* \"#utility.yul\":32734:32884   */\n      tag_306\n      jump\t// in\n    tag_605:\n        /* \"#utility.yul\":32726:32884   */\n      swap1\n      pop\n        /* \"#utility.yul\":32127:32891   */\n      swap3\n      swap2\n      pop\n      pop\n      jump\t// out\n\n    auxdata: 0xa2646970667358221220c80f0ffa608871d83df6a10f2980762147417ca8afa9730dd979c472ebf7936b64736f6c634300081f0033\n}\n",
				"bytecode": {
					"linkReferences": {},
					"object": "60c060405234801561000f575f5ffd5b506040516133703803806133708339818101604052810190610031919061039b565b815f73ffffffffffffffffffffffffffffffffffffffff168173ffffffffffffffffffffffffffffffffffffffff16036100a2575f6040517f1e4fbdf7000000000000000000000000000000000000000000000000000000008152600401610099919061042a565b60405180910390fd5b6100b18161013360201b60201c565b508373ffffffffffffffffffffffffffffffffffffffff1660a08173ffffffffffffffffffffffffffffffffffffffff16815250508273ffffffffffffffffffffffffffffffffffffffff1660808173ffffffffffffffffffffffffffffffffffffffff168152505080600190816101299190610653565b5050505050610722565b5f5f5f9054906101000a900473ffffffffffffffffffffffffffffffffffffffff169050815f5f6101000a81548173ffffffffffffffffffffffffffffffffffffffff021916908373ffffffffffffffffffffffffffffffffffffffff1602179055508173ffffffffffffffffffffffffffffffffffffffff168173ffffffffffffffffffffffffffffffffffffffff167f8be0079c531659141344cd1fd0a4f28419497f9722a3daafe3b4186f6b6457e060405160405180910390a35050565b5f604051905090565b5f5ffd5b5f5ffd5b5f73ffffffffffffffffffffffffffffffffffffffff82169050919050565b5f61022e82610205565b9050919050565b61023e81610224565b8114610248575f5ffd5b50565b5f8151905061025981610235565b92915050565b5f5ffd5b5f5ffd5b5f601f19601f8301169050919050565b7f4e487b71000000000000000000000000000000000000000000000000000000005f52604160045260245ffd5b6102ad82610267565b810181811067ffffffffffffffff821117156102cc576102cb610277565b5b80604052505050565b5f6102de6101f4565b90506102ea82826102a4565b919050565b5f67ffffffffffffffff82111561030957610308610277565b5b61031282610267565b9050602081019050919050565b8281835e5f83830152505050565b5f61033f61033a846102ef565b6102d5565b90508281526020810184848401111561035b5761035a610263565b5b61036684828561031f565b509392505050565b5f82601f8301126103825761038161025f565b5b815161039284826020860161032d565b91505092915050565b5f5f5f5f608085870312156103b3576103b26101fd565b5b5f6103c08782880161024b565b94505060206103d18782880161024b565b93505060406103e28782880161024b565b925050606085015167ffffffffffffffff81111561040357610402610201565b5b61040f8782880161036e565b91505092959194509250565b61042481610224565b82525050565b5f60208201905061043d5f83018461041b565b92915050565b5f81519050919050565b7f4e487b71000000000000000000000000000000000000000000000000000000005f52602260045260245ffd5b5f600282049050600182168061049157607f821691505b6020821081036104a4576104a361044d565b5b50919050565b5f819050815f5260205f209050919050565b5f6020601f8301049050919050565b5f82821b905092915050565b5f600883026105067fffffffffffffffffffffffffffffffffffffffffffffffffffffffffffffffff826104cb565b61051086836104cb565b95508019841693508086168417925050509392505050565b5f819050919050565b5f819050919050565b5f61055461054f61054a84610528565b610531565b610528565b9050919050565b5f819050919050565b61056d8361053a565b6105816105798261055b565b8484546104d7565b825550505050565b5f5f905090565b610598610589565b6105a3818484610564565b505050565b5b818110156105c6576105bb5f82610590565b6001810190506105a9565b5050565b601f82111561060b576105dc816104aa565b6105e5846104bc565b810160208510156105f4578190505b610608610600856104bc565b8301826105a8565b50505b505050565b5f82821c905092915050565b5f61062b5f1984600802610610565b1980831691505092915050565b5f610643838361061c565b9150826002028217905092915050565b61065c82610443565b67ffffffffffffffff81111561067557610674610277565b5b61067f825461047a565b61068a8282856105ca565b5f60209050601f8311600181146106bb575f84156106a9578287015190505b6106b38582610638565b86555061071a565b601f1984166106c9866104aa565b5f5b828110156106f0578489015182556001820191506020850194506020810190506106cb565b8683101561070d5784890151610709601f89168261061c565b8355505b6001600288020188555050505b505050505050565b60805160a051612c1161075f5f395f81816109af01528181611049015281816116d701526117cc01525f81816102d901526117f00152612c115ff3fe608060405234801561000f575f5ffd5b50600436106100b1575f3560e01c80638da5cb5b1161006f5780638da5cb5b146101755780638e27d71914610193578063b5f8558c146101af578063bf4d766e146101cd578063f139721c146101eb578063f2fde38b14610207576100b1565b8062dad7d4146100b557806305d09fb1146100d3578063240028e81461010357806358104dbc14610133578063715018a61461014f5780637a9eceb414610159575b5f5ffd5b6100bd610223565b6040516100ca9190611ce9565b60405180910390f35b6100ed60048036038101906100e89190611e46565b6102af565b6040516100fa9190611ecc565b60405180910390f35b61011d60048036038101906101189190611f0f565b6103cc565b60405161012a9190611f54565b60405180910390f35b61014d60048036038101906101489190611ffd565b6103e9565b005b610157610a3d565b005b610173600480360381019061016e91906120a0565b610a50565b005b61017d61113e565b60405161018a9190611ecc565b60405180910390f35b6101ad60048036038101906101a89190612124565b611165565b005b6101b76117ca565b6040516101c491906121dc565b60405180910390f35b6101d56117ee565b6040516101e29190612215565b60405180910390f35b6102056004803603810190610200919061222e565b611812565b005b610221600480360381019061021c9190611f0f565b61190a565b005b60018054610230906122a6565b80601f016020809104026020016040519081016040528092919081815260200182805461025c906122a6565b80156102a75780601f1061027e576101008083540402835291602001916102a7565b820191905f5260205f20905b81548152906001019060200180831161028a57829003601f168201915b505050505081565b5f5f8260016040516020016102c59291906123ec565b60405160208183030381529060405290505f7f000000000000000000000000000000000000000000000000000000000000000073ffffffffffffffffffffffffffffffffffffffff166316f1adc1836040518263ffffffff1660e01b81526004016103309190612464565b5f60405180830381865afa15801561034a573d5f5f3e3d5ffd5b505050506040513d5f823e3d601f19601f820116820180604052508101906103729190612535565b90506014815110156103b9576040517f08c379a00000000000000000000000000000000000000000000000000000000081526004016103b0906125ec565b60405180910390fd5b5f60148201519050809350505050919050565b6002602052805f5260405f205f915054906101000a900460ff1681565b5f61043684848080601f0160208091040260200160405190810160405280939291908181526020018383808284375f81840152601f19601f820116905080830192505050505050506102af565b905060025f8273ffffffffffffffffffffffffffffffffffffffff1673ffffffffffffffffffffffffffffffffffffffff1681526020019081526020015f205f9054906101000a900460ff166104c1576040517f08c379a00000000000000000000000000000000000000000000000000000000081526004016104b890612654565b60405180910390fd5b5f600667ffffffffffffffff8111156104dd576104dc611d22565b5b60405190808252806020026020018201604052801561051657816020015b610503611c58565b8152602001906001900390816104fb5790505b50905060405180606001604052806040518060400160405280600481526020017f757365720000000000000000000000000000000000000000000000000000000081525081526020016040518060400160405280600781526020017f61646472657373000000000000000000000000000000000000000000000000008152508152602001896040516020016105ab9190611ecc565b604051602081830303815290604052815250815f815181106105d0576105cf612672565b5b602002602001018190525060405180606001604052806040518060400160405280600681526020017f736861726564000000000000000000000000000000000000000000000000000081525081526020016040518060400160405280600781526020017f61646472657373000000000000000000000000000000000000000000000000008152508152602001888860405160200161066f9291906126cb565b6040516020818303038152906040528152508160018151811061069557610694612672565b5b602002602001018190525060405180606001604052806040518060400160405280600681526020017f616d6f756e74000000000000000000000000000000000000000000000000000081525081526020016040518060400160405280600781526020017f75696e743235360000000000000000000000000000000000000000000000000081525081526020018460405160200161073291906126fc565b6040516020818303038152906040528152508160028151811061075857610757612672565b5b602002602001018190525060405180606001604052806040518060400160405280600581526020017f636861696e00000000000000000000000000000000000000000000000000000081525081526020016040518060400160405280600681526020017f737472696e67000000000000000000000000000000000000000000000000000081525081526020016040516020016107f39061275f565b6040516020818303038152906040528152508160038151811061081957610818612672565b5b602002602001018190525060405180606001604052806040518060400160405280600881526020017f70726f766964657200000000000000000000000000000000000000000000000081525081526020016040518060400160405280600681526020017f737472696e670000000000000000000000000000000000000000000000000000815250815260200160016040516020016108b791906127fe565b604051602081830303815290604052815250816004815181106108dd576108dc612672565b5b602002602001018190525060405180606001604052806040518060400160405280600581526020017f746f6b656e00000000000000000000000000000000000000000000000000000081525081526020016040518060400160405280600681526020017f737472696e6700000000000000000000000000000000000000000000000000008152508152602001868660405160200161097c9291906126cb565b604051602081830303815290604052815250816005815181106109a2576109a1612672565b5b60200260200101819052507f000000000000000000000000000000000000000000000000000000000000000073ffffffffffffffffffffffffffffffffffffffff16637d64fa9b826040518263ffffffff1660e01b8152600401610a069190612a18565b5f604051808303815f87803b158015610a1d575f5ffd5b505af1158015610a2f573d5f5f3e3d5ffd5b505050505050505050505050565b610a4561198e565b610a4e5f611a15565b565b610a5861198e565b5f610aa585858080601f0160208091040260200160405190810160405280939291908181526020018383808284375f81840152601f19601f820116905080830192505050505050506102af565b905060025f8273ffffffffffffffffffffffffffffffffffffffff1673ffffffffffffffffffffffffffffffffffffffff1681526020019081526020015f205f9054906101000a900460ff16610b30576040517f08c379a0000000000000000000000000000000000000000000000000000000008152600401610b2790612654565b60405180910390fd5b610b5b86848373ffffffffffffffffffffffffffffffffffffffff16611ad69092919063ffffffff16565b5f600667ffffffffffffffff811115610b7757610b76611d22565b5b604051908082528060200260200182016040528015610bb057816020015b610b9d611c58565b815260200190600190039081610b955790505b50905060405180606001604052806040518060400160405280600481526020017f757365720000000000000000000000000000000000000000000000000000000081525081526020016040518060400160405280600781526020017f6164647265737300000000000000000000000000000000000000000000000000815250815260200188604051602001610c459190611ecc565b604051602081830303815290604052815250815f81518110610c6a57610c69612672565b5b602002602001018190525060405180606001604052806040518060400160405280600681526020017f616d6f756e74000000000000000000000000000000000000000000000000000081525081526020016040518060400160405280600781526020017f75696e7432353600000000000000000000000000000000000000000000000000815250815260200185604051602001610d0791906126fc565b60405160208183030381529060405281525081600181518110610d2d57610d2c612672565b5b602002602001018190525060405180606001604052806040518060400160405280600581526020017f746f6b656e00000000000000000000000000000000000000000000000000000081525081526020016040518060400160405280600681526020017f737472696e67000000000000000000000000000000000000000000000000000081525081526020018787604051602001610dcc9291906126cb565b60405160208183030381529060405281525081600281518110610df257610df1612672565b5b602002602001018190525060405180606001604052806040518060400160405280600881526020017f70726f766964657200000000000000000000000000000000000000000000000081525081526020016040518060400160405280600681526020017f737472696e67000000000000000000000000000000000000000000000000000081525081526020016001604051602001610e9091906127fe565b60405160208183030381529060405281525081600381518110610eb657610eb5612672565b5b602002602001018190525060405180606001604052806040518060400160405280600981526020017f6e756c6c6966696572000000000000000000000000000000000000000000000081525081526020016040518060400160405280600781526020017f75696e7432353600000000000000000000000000000000000000000000000000815250815260200184604051602001610f5391906126fc565b60405160208183030381529060405281525081600481518110610f7957610f78612672565b5b602002602001018190525060405180606001604052806040518060400160405280600981526020017f74696d657374616d70000000000000000000000000000000000000000000000081525081526020016040518060400160405280600781526020017f75696e743235360000000000000000000000000000000000000000000000000081525081526020014260405160200161101691906126fc565b6040516020818303038152906040528152508160058151811061103c5761103b612672565b5b60200260200101819052507f000000000000000000000000000000000000000000000000000000000000000073ffffffffffffffffffffffffffffffffffffffff16637d64fa9b826040518263ffffffff1660e01b81526004016110a09190612a95565b5f604051808303815f87803b1580156110b7575f5ffd5b505af11580156110c9573d5f5f3e3d5ffd5b505050508173ffffffffffffffffffffffffffffffffffffffff168773ffffffffffffffffffffffffffffffffffffffff167fcc4f8702356931e6d23a93d1b60beac6a7ea77d447ada4b1502a09d0b712570986600160405161112d929190612ac8565b60405180910390a350505050505050565b5f5f5f9054906101000a900473ffffffffffffffffffffffffffffffffffffffff16905090565b5f6111b284848080601f0160208091040260200160405190810160405280939291908181526020018383808284375f81840152601f19601f820116905080830192505050505050506102af565b905060025f8273ffffffffffffffffffffffffffffffffffffffff1673ffffffffffffffffffffffffffffffffffffffff1681526020019081526020015f205f9054906101000a900460ff1661123d576040517f08c379a000000000000000000000000000000000000000000000000000000000815260040161123490612654565b60405180910390fd5b5f821161127f576040517f08c379a000000000000000000000000000000000000000000000000000000000815260040161127690612b40565b60405180910390fd5b6112ac3330848473ffffffffffffffffffffffffffffffffffffffff16611b29909392919063ffffffff16565b5f600567ffffffffffffffff8111156112c8576112c7611d22565b5b60405190808252806020026020018201604052801561130157816020015b6112ee611c58565b8152602001906001900390816112e65790505b50905060405180606001604052806040518060400160405280600481526020017f757365720000000000000000000000000000000000000000000000000000000081525081526020016040518060400160405280600781526020017f61646472657373000000000000000000000000000000000000000000000000008152508152602001336040516020016113969190611ecc565b604051602081830303815290604052815250815f815181106113bb576113ba612672565b5b602002602001018190525060405180606001604052806040518060400160405280600681526020017f616d6f756e74000000000000000000000000000000000000000000000000000081525081526020016040518060400160405280600781526020017f75696e743235360000000000000000000000000000000000000000000000000081525081526020018460405160200161145891906126fc565b6040516020818303038152906040528152508160018151811061147e5761147d612672565b5b602002602001018190525060405180606001604052806040518060400160405280600581526020017f746f6b656e00000000000000000000000000000000000000000000000000000081525081526020016040518060400160405280600681526020017f737472696e6700000000000000000000000000000000000000000000000000008152508152602001868660405160200161151d9291906126cb565b6040516020818303038152906040528152508160028151811061154357611542612672565b5b602002602001018190525060405180606001604052806040518060400160405280600881526020017f70726f766964657200000000000000000000000000000000000000000000000081525081526020016040518060400160405280600681526020017f737472696e670000000000000000000000000000000000000000000000000000815250815260200160016040516020016115e191906127fe565b6040516020818303038152906040528152508160038151811061160757611606612672565b5b602002602001018190525060405180606001604052806040518060400160405280600981526020017f74696d657374616d70000000000000000000000000000000000000000000000081525081526020016040518060400160405280600781526020017f75696e74323536000000000000000000000000000000000000000000000000008152508152602001426040516020016116a491906126fc565b604051602081830303815290604052815250816004815181106116ca576116c9612672565b5b60200260200101819052507f000000000000000000000000000000000000000000000000000000000000000073ffffffffffffffffffffffffffffffffffffffff16637d64fa9b826040518263ffffffff1660e01b815260040161172e9190612ba8565b5f604051808303815f87803b158015611745575f5ffd5b505af1158015611757573d5f5f3e3d5ffd5b505050508173ffffffffffffffffffffffffffffffffffffffff163373ffffffffffffffffffffffffffffffffffffffff167fef519b7eb82aaf6ac376a6df2d793843ebfd593de5f1a0601d3cc6ab49ebb3958560016040516117bb929190612ac8565b60405180910390a35050505050565b7f000000000000000000000000000000000000000000000000000000000000000081565b7f000000000000000000000000000000000000000000000000000000000000000081565b5f61185f83838080601f0160208091040260200160405190810160405280939291908181526020018383808284375f81840152601f19601f820116905080830192505050505050506102af565b9050600160025f8373ffffffffffffffffffffffffffffffffffffffff1673ffffffffffffffffffffffffffffffffffffffff1681526020019081526020015f205f6101000a81548160ff0219169083151502179055508073ffffffffffffffffffffffffffffffffffffffff167fd57b1148efb91f418a2178fc1fb4ba12f9400a4dc8e71851fd59e85d337c609f60016040516118fd91906127fe565b60405180910390a2505050565b61191261198e565b5f73ffffffffffffffffffffffffffffffffffffffff168173ffffffffffffffffffffffffffffffffffffffff1603611982575f6040517f1e4fbdf70000000000000000000000000000000000000000000000000000000081526004016119799190611ecc565b60405180910390fd5b61198b81611a15565b50565b611996611b7e565b73ffffffffffffffffffffffffffffffffffffffff166119b461113e565b73ffffffffffffffffffffffffffffffffffffffff1614611a13576119d7611b7e565b6040517f118cdaa7000000000000000000000000000000000000000000000000000000008152600401611a0a9190611ecc565b60405180910390fd5b565b5f5f5f9054906101000a900473ffffffffffffffffffffffffffffffffffffffff169050815f5f6101000a81548173ffffffffffffffffffffffffffffffffffffffff021916908373ffffffffffffffffffffffffffffffffffffffff1602179055508173ffffffffffffffffffffffffffffffffffffffff168173ffffffffffffffffffffffffffffffffffffffff167f8be0079c531659141344cd1fd0a4f28419497f9722a3daafe3b4186f6b6457e060405160405180910390a35050565b611ae38383836001611b85565b611b2457826040517f5274afe7000000000000000000000000000000000000000000000000000000008152600401611b1b9190611ecc565b60405180910390fd5b505050565b611b37848484846001611be7565b611b7857836040517f5274afe7000000000000000000000000000000000000000000000000000000008152600401611b6f9190611ecc565b60405180910390fd5b50505050565b5f33905090565b5f5f63a9059cbb60e01b9050604051815f525f1960601c86166004528460245260205f60445f5f8b5af1925060015f51148316611bd9578383151615611bcd573d5f823e3d81fd5b5f873b113d1516831692505b806040525050949350505050565b5f5f6323b872dd60e01b9050604051815f525f1960601c87166004525f1960601c86166024528460445260205f60645f5f8c5af1925060015f51148316611c45578383151615611c39573d5f823e3d81fd5b5f883b113d1516831692505b806040525f606052505095945050505050565b60405180606001604052806060815260200160608152602001606081525090565b5f81519050919050565b5f82825260208201905092915050565b8281835e5f83830152505050565b5f601f19601f8301169050919050565b5f611cbb82611c79565b611cc58185611c83565b9350611cd5818560208601611c93565b611cde81611ca1565b840191505092915050565b5f6020820190508181035f830152611d018184611cb1565b905092915050565b5f604051905090565b5f5ffd5b5f5ffd5b5f5ffd5b5f5ffd5b7f4e487b71000000000000000000000000000000000000000000000000000000005f52604160045260245ffd5b611d5882611ca1565b810181811067ffffffffffffffff82111715611d7757611d76611d22565b5b80604052505050565b5f611d89611d09565b9050611d958282611d4f565b919050565b5f67ffffffffffffffff821115611db457611db3611d22565b5b611dbd82611ca1565b9050602081019050919050565b828183375f83830152505050565b5f611dea611de584611d9a565b611d80565b905082815260208101848484011115611e0657611e05611d1e565b5b611e11848285611dca565b509392505050565b5f82601f830112611e2d57611e2c611d1a565b5b8135611e3d848260208601611dd8565b91505092915050565b5f60208284031215611e5b57611e5a611d12565b5b5f82013567ffffffffffffffff811115611e7857611e77611d16565b5b611e8484828501611e19565b91505092915050565b5f73ffffffffffffffffffffffffffffffffffffffff82169050919050565b5f611eb682611e8d565b9050919050565b611ec681611eac565b82525050565b5f602082019050611edf5f830184611ebd565b92915050565b611eee81611eac565b8114611ef8575f5ffd5b50565b5f81359050611f0981611ee5565b92915050565b5f60208284031215611f2457611f23611d12565b5b5f611f3184828501611efb565b91505092915050565b5f8115159050919050565b611f4e81611f3a565b82525050565b5f602082019050611f675f830184611f45565b92915050565b5f5ffd5b5f5ffd5b5f5f83601f840112611f8a57611f89611d1a565b5b8235905067ffffffffffffffff811115611fa757611fa6611f6d565b5b602083019150836001820283011115611fc357611fc2611f71565b5b9250929050565b5f819050919050565b611fdc81611fca565b8114611fe6575f5ffd5b50565b5f81359050611ff781611fd3565b92915050565b5f5f5f5f5f5f6080878903121561201757612016611d12565b5b5f61202489828a01611efb565b965050602087013567ffffffffffffffff81111561204557612044611d16565b5b61205189828a01611f75565b9550955050604087013567ffffffffffffffff81111561207457612073611d16565b5b61208089828a01611f75565b9350935050606061209389828a01611fe9565b9150509295509295509295565b5f5f5f5f5f608086880312156120b9576120b8611d12565b5b5f6120c688828901611efb565b955050602086013567ffffffffffffffff8111156120e7576120e6611d16565b5b6120f388828901611f75565b9450945050604061210688828901611fe9565b925050606061211788828901611fe9565b9150509295509295909350565b5f5f5f6040848603121561213b5761213a611d12565b5b5f84013567ffffffffffffffff81111561215857612157611d16565b5b61216486828701611f75565b9350935050602061217786828701611fe9565b9150509250925092565b5f819050919050565b5f6121a461219f61219a84611e8d565b612181565b611e8d565b9050919050565b5f6121b58261218a565b9050919050565b5f6121c6826121ab565b9050919050565b6121d6816121bc565b82525050565b5f6020820190506121ef5f8301846121cd565b92915050565b5f6121ff826121ab565b9050919050565b61220f816121f5565b82525050565b5f6020820190506122285f830184612206565b92915050565b5f5f6020838503121561224457612243611d12565b5b5f83013567ffffffffffffffff81111561226157612260611d16565b5b61226d85828601611f75565b92509250509250929050565b7f4e487b71000000000000000000000000000000000000000000000000000000005f52602260045260245ffd5b5f60028204905060018216806122bd57607f821691505b6020821081036122d0576122cf612279565b5b50919050565b5f81905092915050565b5f6122ea82611c79565b6122f481856122d6565b9350612304818560208601611c93565b80840191505092915050565b7f5f000000000000000000000000000000000000000000000000000000000000005f82015250565b5f6123446001836122d6565b915061234f82612310565b600182019050919050565b5f819050815f5260205f209050919050565b5f8154612378816122a6565b61238281866122d6565b9450600182165f811461239c57600181146123b1576123e3565b60ff19831686528115158202860193506123e3565b6123ba8561235a565b5f5b838110156123db578154818901526001820191506020810190506123bc565b838801955050505b50505092915050565b5f6123f782856122e0565b915061240282612338565b915061240e828461236c565b91508190509392505050565b7f51696172614d6f6e6164417373657473000000000000000000000000000000005f82015250565b5f61244e601083611c83565b91506124598261241a565b602082019050919050565b5f6040820190508181035f83015261247b81612442565b9050818103602083015261248f8184611cb1565b905092915050565b5f67ffffffffffffffff8211156124b1576124b0611d22565b5b6124ba82611ca1565b9050602081019050919050565b5f6124d96124d484612497565b611d80565b9050828152602081018484840111156124f5576124f4611d1e565b5b612500848285611c93565b509392505050565b5f82601f83011261251c5761251b611d1a565b5b815161252c8482602086016124c7565b91505092915050565b5f6020828403121561254a57612549611d12565b5b5f82015167ffffffffffffffff81111561256757612566611d16565b5b61257384828501612508565b91505092915050565b7f5661756c743a204173736574206e6f7420666f756e6420696e207265676973745f8201527f7279000000000000000000000000000000000000000000000000000000000000602082015250565b5f6125d6602283611c83565b91506125e18261257c565b604082019050919050565b5f6020820190508181035f830152612603816125ca565b9050919050565b7f5661756c743a20546f6b656e206e6f7420737570706f727465640000000000005f82015250565b5f61263e601a83611c83565b91506126498261260a565b602082019050919050565b5f6020820190508181035f83015261266b81612632565b9050919050565b7f4e487b71000000000000000000000000000000000000000000000000000000005f52603260045260245ffd5b5f6126aa8385611c83565b93506126b7838584611dca565b6126c083611ca1565b840190509392505050565b5f6020820190508181035f8301526126e481848661269f565b90509392505050565b6126f681611fca565b82525050565b5f60208201905061270f5f8301846126ed565b92915050565b7f62617365000000000000000000000000000000000000000000000000000000005f82015250565b5f612749600483611c83565b915061275482612715565b602082019050919050565b5f6020820190508181035f8301526127768161273d565b9050919050565b5f8154612789816122a6565b6127938186611c83565b9450600182165f81146127ad57600181146127c3576127f5565b60ff1983168652811515602002860193506127f5565b6127cc8561235a565b5f5b838110156127ed578154818901526001820191506020810190506127ce565b808801955050505b50505092915050565b5f6020820190508181035f830152612816818461277d565b905092915050565b7f4d6f64756c6172205769746864726177000000000000000000000000000000005f82015250565b5f612852601083611c83565b915061285d8261281e565b602082019050919050565b5f81519050919050565b5f82825260208201905092915050565b5f819050602082019050919050565b5f82825260208201905092915050565b5f6128ab82611c79565b6128b58185612891565b93506128c5818560208601611c93565b6128ce81611ca1565b840191505092915050565b5f81519050919050565b5f82825260208201905092915050565b5f6128fd826128d9565b61290781856128e3565b9350612917818560208601611c93565b61292081611ca1565b840191505092915050565b5f606083015f8301518482035f86015261294582826128a1565b9150506020830151848203602086015261295f82826128a1565b9150506040830151848203604086015261297982826128f3565b9150508091505092915050565b5f612991838361292b565b905092915050565b5f602082019050919050565b5f6129af82612868565b6129b98185612872565b9350836020820285016129cb85612882565b805f5b85811015612a0657848403895281516129e78582612986565b94506129f283612999565b925060208a019950506001810190506129ce565b50829750879550505050505092915050565b5f6040820190508181035f830152612a2f81612846565b90508181036020830152612a4381846129a5565b905092915050565b7f44697265637420576974686472617700000000000000000000000000000000005f82015250565b5f612a7f600f83611c83565b9150612a8a82612a4b565b602082019050919050565b5f6040820190508181035f830152612aac81612a73565b90508181036020830152612ac081846129a5565b905092915050565b5f604082019050612adb5f8301856126ed565b8181036020830152612aed818461277d565b90509392505050565b7f5661756c743a204465706f736974206d757374206265203e20300000000000005f82015250565b5f612b2a601a83611c83565b9150612b3582612af6565b602082019050919050565b5f6020820190508181035f830152612b5781612b1e565b9050919050565b7f4465706f736974000000000000000000000000000000000000000000000000005f82015250565b5f612b92600783611c83565b9150612b9d82612b5e565b602082019050919050565b5f6040820190508181035f830152612bbf81612b86565b90508181036020830152612bd381846129a5565b90509291505056fea2646970667358221220c80f0ffa608871d83df6a10f2980762147417ca8afa9730dd979c472ebf7936b64736f6c634300081f0033",
					"opcodes": "PUSH1 0xC0 PUSH1 0x40 MSTORE CALLVALUE DUP1 ISZERO PUSH2 0xF JUMPI PUSH0 PUSH0 REVERT JUMPDEST POP PUSH1 0x40 MLOAD PUSH2 0x3370 CODESIZE SUB DUP1 PUSH2 0x3370 DUP4 CODECOPY DUP2 DUP2 ADD PUSH1 0x40 MSTORE DUP2 ADD SWAP1 PUSH2 0x31 SWAP2 SWAP1 PUSH2 0x39B JUMP JUMPDEST DUP2 PUSH0 PUSH20 0xFFFFFFFFFFFFFFFFFFFFFFFFFFFFFFFFFFFFFFFF AND DUP2 PUSH20 0xFFFFFFFFFFFFFFFFFFFFFFFFFFFFFFFFFFFFFFFF AND SUB PUSH2 0xA2 JUMPI PUSH0 PUSH1 0x40 MLOAD PUSH32 0x1E4FBDF700000000000000000000000000000000000000000000000000000000 DUP2 MSTORE PUSH1 0x4 ADD PUSH2 0x99 SWAP2 SWAP1 PUSH2 0x42A JUMP JUMPDEST PUSH1 0x40 MLOAD DUP1 SWAP2 SUB SWAP1 REVERT JUMPDEST PUSH2 0xB1 DUP2 PUSH2 0x133 PUSH1 0x20 SHL PUSH1 0x20 SHR JUMP JUMPDEST POP DUP4 PUSH20 0xFFFFFFFFFFFFFFFFFFFFFFFFFFFFFFFFFFFFFFFF AND PUSH1 0xA0 DUP2 PUSH20 0xFFFFFFFFFFFFFFFFFFFFFFFFFFFFFFFFFFFFFFFF AND DUP2 MSTORE POP POP DUP3 PUSH20 0xFFFFFFFFFFFFFFFFFFFFFFFFFFFFFFFFFFFFFFFF AND PUSH1 0x80 DUP2 PUSH20 0xFFFFFFFFFFFFFFFFFFFFFFFFFFFFFFFFFFFFFFFF AND DUP2 MSTORE POP POP DUP1 PUSH1 0x1 SWAP1 DUP2 PUSH2 0x129 SWAP2 SWAP1 PUSH2 0x653 JUMP JUMPDEST POP POP POP POP POP PUSH2 0x722 JUMP JUMPDEST PUSH0 PUSH0 PUSH0 SWAP1 SLOAD SWAP1 PUSH2 0x100 EXP SWAP1 DIV PUSH20 0xFFFFFFFFFFFFFFFFFFFFFFFFFFFFFFFFFFFFFFFF AND SWAP1 POP DUP2 PUSH0 PUSH0 PUSH2 0x100 EXP DUP2 SLOAD DUP2 PUSH20 0xFFFFFFFFFFFFFFFFFFFFFFFFFFFFFFFFFFFFFFFF MUL NOT AND SWAP1 DUP4 PUSH20 0xFFFFFFFFFFFFFFFFFFFFFFFFFFFFFFFFFFFFFFFF AND MUL OR SWAP1 SSTORE POP DUP2 PUSH20 0xFFFFFFFFFFFFFFFFFFFFFFFFFFFFFFFFFFFFFFFF AND DUP2 PUSH20 0xFFFFFFFFFFFFFFFFFFFFFFFFFFFFFFFFFFFFFFFF AND PUSH32 0x8BE0079C531659141344CD1FD0A4F28419497F9722A3DAAFE3B4186F6B6457E0 PUSH1 0x40 MLOAD PUSH1 0x40 MLOAD DUP1 SWAP2 SUB SWAP1 LOG3 POP POP JUMP JUMPDEST PUSH0 PUSH1 0x40 MLOAD SWAP1 POP SWAP1 JUMP JUMPDEST PUSH0 PUSH0 REVERT JUMPDEST PUSH0 PUSH0 REVERT JUMPDEST PUSH0 PUSH20 0xFFFFFFFFFFFFFFFFFFFFFFFFFFFFFFFFFFFFFFFF DUP3 AND SWAP1 POP SWAP2 SWAP1 POP JUMP JUMPDEST PUSH0 PUSH2 0x22E DUP3 PUSH2 0x205 JUMP JUMPDEST SWAP1 POP SWAP2 SWAP1 POP JUMP JUMPDEST PUSH2 0x23E DUP2 PUSH2 0x224 JUMP JUMPDEST DUP2 EQ PUSH2 0x248 JUMPI PUSH0 PUSH0 REVERT JUMPDEST POP JUMP JUMPDEST PUSH0 DUP2 MLOAD SWAP1 POP PUSH2 0x259 DUP2 PUSH2 0x235 JUMP JUMPDEST SWAP3 SWAP2 POP POP JUMP JUMPDEST PUSH0 PUSH0 REVERT JUMPDEST PUSH0 PUSH0 REVERT JUMPDEST PUSH0 PUSH1 0x1F NOT PUSH1 0x1F DUP4 ADD AND SWAP1 POP SWAP2 SWAP1 POP JUMP JUMPDEST PUSH32 0x4E487B7100000000000000000000000000000000000000000000000000000000 PUSH0 MSTORE PUSH1 0x41 PUSH1 0x4 MSTORE PUSH1 0x24 PUSH0 REVERT JUMPDEST PUSH2 0x2AD DUP3 PUSH2 0x267 JUMP JUMPDEST DUP2 ADD DUP2 DUP2 LT PUSH8 0xFFFFFFFFFFFFFFFF DUP3 GT OR ISZERO PUSH2 0x2CC JUMPI PUSH2 0x2CB PUSH2 0x277 JUMP JUMPDEST JUMPDEST DUP1 PUSH1 0x40 MSTORE POP POP POP JUMP JUMPDEST PUSH0 PUSH2 0x2DE PUSH2 0x1F4 JUMP JUMPDEST SWAP1 POP PUSH2 0x2EA DUP3 DUP3 PUSH2 0x2A4 JUMP JUMPDEST SWAP2 SWAP1 POP JUMP JUMPDEST PUSH0 PUSH8 0xFFFFFFFFFFFFFFFF DUP3 GT ISZERO PUSH2 0x309 JUMPI PUSH2 0x308 PUSH2 0x277 JUMP JUMPDEST JUMPDEST PUSH2 0x312 DUP3 PUSH2 0x267 JUMP JUMPDEST SWAP1 POP PUSH1 0x20 DUP2 ADD SWAP1 POP SWAP2 SWAP1 POP JUMP JUMPDEST DUP3 DUP2 DUP4 MCOPY PUSH0 DUP4 DUP4 ADD MSTORE POP POP POP JUMP JUMPDEST PUSH0 PUSH2 0x33F PUSH2 0x33A DUP5 PUSH2 0x2EF JUMP JUMPDEST PUSH2 0x2D5 JUMP JUMPDEST SWAP1 POP DUP3 DUP2 MSTORE PUSH1 0x20 DUP2 ADD DUP5 DUP5 DUP5 ADD GT ISZERO PUSH2 0x35B JUMPI PUSH2 0x35A PUSH2 0x263 JUMP JUMPDEST JUMPDEST PUSH2 0x366 DUP5 DUP3 DUP6 PUSH2 0x31F JUMP JUMPDEST POP SWAP4 SWAP3 POP POP POP JUMP JUMPDEST PUSH0 DUP3 PUSH1 0x1F DUP4 ADD SLT PUSH2 0x382 JUMPI PUSH2 0x381 PUSH2 0x25F JUMP JUMPDEST JUMPDEST DUP2 MLOAD PUSH2 0x392 DUP5 DUP3 PUSH1 0x20 DUP7 ADD PUSH2 0x32D JUMP JUMPDEST SWAP2 POP POP SWAP3 SWAP2 POP POP JUMP JUMPDEST PUSH0 PUSH0 PUSH0 PUSH0 PUSH1 0x80 DUP6 DUP8 SUB SLT ISZERO PUSH2 0x3B3 JUMPI PUSH2 0x3B2 PUSH2 0x1FD JUMP JUMPDEST JUMPDEST PUSH0 PUSH2 0x3C0 DUP8 DUP3 DUP9 ADD PUSH2 0x24B JUMP JUMPDEST SWAP5 POP POP PUSH1 0x20 PUSH2 0x3D1 DUP8 DUP3 DUP9 ADD PUSH2 0x24B JUMP JUMPDEST SWAP4 POP POP PUSH1 0x40 PUSH2 0x3E2 DUP8 DUP3 DUP9 ADD PUSH2 0x24B JUMP JUMPDEST SWAP3 POP POP PUSH1 0x60 DUP6 ADD MLOAD PUSH8 0xFFFFFFFFFFFFFFFF DUP2 GT ISZERO PUSH2 0x403 JUMPI PUSH2 0x402 PUSH2 0x201 JUMP JUMPDEST JUMPDEST PUSH2 0x40F DUP8 DUP3 DUP9 ADD PUSH2 0x36E JUMP JUMPDEST SWAP2 POP POP SWAP3 SWAP6 SWAP2 SWAP5 POP SWAP3 POP JUMP JUMPDEST PUSH2 0x424 DUP2 PUSH2 0x224 JUMP JUMPDEST DUP3 MSTORE POP POP JUMP JUMPDEST PUSH0 PUSH1 0x20 DUP3 ADD SWAP1 POP PUSH2 0x43D PUSH0 DUP4 ADD DUP5 PUSH2 0x41B JUMP JUMPDEST SWAP3 SWAP2 POP POP JUMP JUMPDEST PUSH0 DUP2 MLOAD SWAP1 POP SWAP2 SWAP1 POP JUMP JUMPDEST PUSH32 0x4E487B7100000000000000000000000000000000000000000000000000000000 PUSH0 MSTORE PUSH1 0x22 PUSH1 0x4 MSTORE PUSH1 0x24 PUSH0 REVERT JUMPDEST PUSH0 PUSH1 0x2 DUP3 DIV SWAP1 POP PUSH1 0x1 DUP3 AND DUP1 PUSH2 0x491 JUMPI PUSH1 0x7F DUP3 AND SWAP2 POP JUMPDEST PUSH1 0x20 DUP3 LT DUP2 SUB PUSH2 0x4A4 JUMPI PUSH2 0x4A3 PUSH2 0x44D JUMP JUMPDEST JUMPDEST POP SWAP2 SWAP1 POP JUMP JUMPDEST PUSH0 DUP2 SWAP1 POP DUP2 PUSH0 MSTORE PUSH1 0x20 PUSH0 KECCAK256 SWAP1 POP SWAP2 SWAP1 POP JUMP JUMPDEST PUSH0 PUSH1 0x20 PUSH1 0x1F DUP4 ADD DIV SWAP1 POP SWAP2 SWAP1 POP JUMP JUMPDEST PUSH0 DUP3 DUP3 SHL SWAP1 POP SWAP3 SWAP2 POP POP JUMP JUMPDEST PUSH0 PUSH1 0x8 DUP4 MUL PUSH2 0x506 PUSH32 0xFFFFFFFFFFFFFFFFFFFFFFFFFFFFFFFFFFFFFFFFFFFFFFFFFFFFFFFFFFFFFFFF DUP3 PUSH2 0x4CB JUMP JUMPDEST PUSH2 0x510 DUP7 DUP4 PUSH2 0x4CB JUMP JUMPDEST SWAP6 POP DUP1 NOT DUP5 AND SWAP4 POP DUP1 DUP7 AND DUP5 OR SWAP3 POP POP POP SWAP4 SWAP3 POP POP POP JUMP JUMPDEST PUSH0 DUP2 SWAP1 POP SWAP2 SWAP1 POP JUMP JUMPDEST PUSH0 DUP2 SWAP1 POP SWAP2 SWAP1 POP JUMP JUMPDEST PUSH0 PUSH2 0x554 PUSH2 0x54F PUSH2 0x54A DUP5 PUSH2 0x528 JUMP JUMPDEST PUSH2 0x531 JUMP JUMPDEST PUSH2 0x528 JUMP JUMPDEST SWAP1 POP SWAP2 SWAP1 POP JUMP JUMPDEST PUSH0 DUP2 SWAP1 POP SWAP2 SWAP1 POP JUMP JUMPDEST PUSH2 0x56D DUP4 PUSH2 0x53A JUMP JUMPDEST PUSH2 0x581 PUSH2 0x579 DUP3 PUSH2 0x55B JUMP JUMPDEST DUP5 DUP5 SLOAD PUSH2 0x4D7 JUMP JUMPDEST DUP3 SSTORE POP POP POP POP JUMP JUMPDEST PUSH0 PUSH0 SWAP1 POP SWAP1 JUMP JUMPDEST PUSH2 0x598 PUSH2 0x589 JUMP JUMPDEST PUSH2 0x5A3 DUP2 DUP5 DUP5 PUSH2 0x564 JUMP JUMPDEST POP POP POP JUMP JUMPDEST JUMPDEST DUP2 DUP2 LT ISZERO PUSH2 0x5C6 JUMPI PUSH2 0x5BB PUSH0 DUP3 PUSH2 0x590 JUMP JUMPDEST PUSH1 0x1 DUP2 ADD SWAP1 POP PUSH2 0x5A9 JUMP JUMPDEST POP POP JUMP JUMPDEST PUSH1 0x1F DUP3 GT ISZERO PUSH2 0x60B JUMPI PUSH2 0x5DC DUP2 PUSH2 0x4AA JUMP JUMPDEST PUSH2 0x5E5 DUP5 PUSH2 0x4BC JUMP JUMPDEST DUP2 ADD PUSH1 0x20 DUP6 LT ISZERO PUSH2 0x5F4 JUMPI DUP2 SWAP1 POP JUMPDEST PUSH2 0x608 PUSH2 0x600 DUP6 PUSH2 0x4BC JUMP JUMPDEST DUP4 ADD DUP3 PUSH2 0x5A8 JUMP JUMPDEST POP POP JUMPDEST POP POP POP JUMP JUMPDEST PUSH0 DUP3 DUP3 SHR SWAP1 POP SWAP3 SWAP2 POP POP JUMP JUMPDEST PUSH0 PUSH2 0x62B PUSH0 NOT DUP5 PUSH1 0x8 MUL PUSH2 0x610 JUMP JUMPDEST NOT DUP1 DUP4 AND SWAP2 POP POP SWAP3 SWAP2 POP POP JUMP JUMPDEST PUSH0 PUSH2 0x643 DUP4 DUP4 PUSH2 0x61C JUMP JUMPDEST SWAP2 POP DUP3 PUSH1 0x2 MUL DUP3 OR SWAP1 POP SWAP3 SWAP2 POP POP JUMP JUMPDEST PUSH2 0x65C DUP3 PUSH2 0x443 JUMP JUMPDEST PUSH8 0xFFFFFFFFFFFFFFFF DUP2 GT ISZERO PUSH2 0x675 JUMPI PUSH2 0x674 PUSH2 0x277 JUMP JUMPDEST JUMPDEST PUSH2 0x67F DUP3 SLOAD PUSH2 0x47A JUMP JUMPDEST PUSH2 0x68A DUP3 DUP3 DUP6 PUSH2 0x5CA JUMP JUMPDEST PUSH0 PUSH1 0x20 SWAP1 POP PUSH1 0x1F DUP4 GT PUSH1 0x1 DUP2 EQ PUSH2 0x6BB JUMPI PUSH0 DUP5 ISZERO PUSH2 0x6A9 JUMPI DUP3 DUP8 ADD MLOAD SWAP1 POP JUMPDEST PUSH2 0x6B3 DUP6 DUP3 PUSH2 0x638 JUMP JUMPDEST DUP7 SSTORE POP PUSH2 0x71A JUMP JUMPDEST PUSH1 0x1F NOT DUP5 AND PUSH2 0x6C9 DUP7 PUSH2 0x4AA JUMP JUMPDEST PUSH0 JUMPDEST DUP3 DUP2 LT ISZERO PUSH2 0x6F0 JUMPI DUP5 DUP10 ADD MLOAD DUP3 SSTORE PUSH1 0x1 DUP3 ADD SWAP2 POP PUSH1 0x20 DUP6 ADD SWAP5 POP PUSH1 0x20 DUP2 ADD SWAP1 POP PUSH2 0x6CB JUMP JUMPDEST DUP7 DUP4 LT ISZERO PUSH2 0x70D JUMPI DUP5 DUP10 ADD MLOAD PUSH2 0x709 PUSH1 0x1F DUP10 AND DUP3 PUSH2 0x61C JUMP JUMPDEST DUP4 SSTORE POP JUMPDEST PUSH1 0x1 PUSH1 0x2 DUP9 MUL ADD DUP9 SSTORE POP POP POP JUMPDEST POP POP POP POP POP POP JUMP JUMPDEST PUSH1 0x80 MLOAD PUSH1 0xA0 MLOAD PUSH2 0x2C11 PUSH2 0x75F PUSH0 CODECOPY PUSH0 DUP2 DUP2 PUSH2 0x9AF ADD MSTORE DUP2 DUP2 PUSH2 0x1049 ADD MSTORE DUP2 DUP2 PUSH2 0x16D7 ADD MSTORE PUSH2 0x17CC ADD MSTORE PUSH0 DUP2 DUP2 PUSH2 0x2D9 ADD MSTORE PUSH2 0x17F0 ADD MSTORE PUSH2 0x2C11 PUSH0 RETURN INVALID PUSH1 0x80 PUSH1 0x40 MSTORE CALLVALUE DUP1 ISZERO PUSH2 0xF JUMPI PUSH0 PUSH0 REVERT JUMPDEST POP PUSH1 0x4 CALLDATASIZE LT PUSH2 0xB1 JUMPI PUSH0 CALLDATALOAD PUSH1 0xE0 SHR DUP1 PUSH4 0x8DA5CB5B GT PUSH2 0x6F JUMPI DUP1 PUSH4 0x8DA5CB5B EQ PUSH2 0x175 JUMPI DUP1 PUSH4 0x8E27D719 EQ PUSH2 0x193 JUMPI DUP1 PUSH4 0xB5F8558C EQ PUSH2 0x1AF JUMPI DUP1 PUSH4 0xBF4D766E EQ PUSH2 0x1CD JUMPI DUP1 PUSH4 0xF139721C EQ PUSH2 0x1EB JUMPI DUP1 PUSH4 0xF2FDE38B EQ PUSH2 0x207 JUMPI PUSH2 0xB1 JUMP JUMPDEST DUP1 PUSH3 0xDAD7D4 EQ PUSH2 0xB5 JUMPI DUP1 PUSH4 0x5D09FB1 EQ PUSH2 0xD3 JUMPI DUP1 PUSH4 0x240028E8 EQ PUSH2 0x103 JUMPI DUP1 PUSH4 0x58104DBC EQ PUSH2 0x133 JUMPI DUP1 PUSH4 0x715018A6 EQ PUSH2 0x14F JUMPI DUP1 PUSH4 0x7A9ECEB4 EQ PUSH2 0x159 JUMPI JUMPDEST PUSH0 PUSH0 REVERT JUMPDEST PUSH2 0xBD PUSH2 0x223 JUMP JUMPDEST PUSH1 0x40 MLOAD PUSH2 0xCA SWAP2 SWAP1 PUSH2 0x1CE9 JUMP JUMPDEST PUSH1 0x40 MLOAD DUP1 SWAP2 SUB SWAP1 RETURN JUMPDEST PUSH2 0xED PUSH1 0x4 DUP1 CALLDATASIZE SUB DUP2 ADD SWAP1 PUSH2 0xE8 SWAP2 SWAP1 PUSH2 0x1E46 JUMP JUMPDEST PUSH2 0x2AF JUMP JUMPDEST PUSH1 0x40 MLOAD PUSH2 0xFA SWAP2 SWAP1 PUSH2 0x1ECC JUMP JUMPDEST PUSH1 0x40 MLOAD DUP1 SWAP2 SUB SWAP1 RETURN JUMPDEST PUSH2 0x11D PUSH1 0x4 DUP1 CALLDATASIZE SUB DUP2 ADD SWAP1 PUSH2 0x118 SWAP2 SWAP1 PUSH2 0x1F0F JUMP JUMPDEST PUSH2 0x3CC JUMP JUMPDEST PUSH1 0x40 MLOAD PUSH2 0x12A SWAP2 SWAP1 PUSH2 0x1F54 JUMP JUMPDEST PUSH1 0x40 MLOAD DUP1 SWAP2 SUB SWAP1 RETURN JUMPDEST PUSH2 0x14D PUSH1 0x4 DUP1 CALLDATASIZE SUB DUP2 ADD SWAP1 PUSH2 0x148 SWAP2 SWAP1 PUSH2 0x1FFD JUMP JUMPDEST PUSH2 0x3E9 JUMP JUMPDEST STOP JUMPDEST PUSH2 0x157 PUSH2 0xA3D JUMP JUMPDEST STOP JUMPDEST PUSH2 0x173 PUSH1 0x4 DUP1 CALLDATASIZE SUB DUP2 ADD SWAP1 PUSH2 0x16E SWAP2 SWAP1 PUSH2 0x20A0 JUMP JUMPDEST PUSH2 0xA50 JUMP JUMPDEST STOP JUMPDEST PUSH2 0x17D PUSH2 0x113E JUMP JUMPDEST PUSH1 0x40 MLOAD PUSH2 0x18A SWAP2 SWAP1 PUSH2 0x1ECC JUMP JUMPDEST PUSH1 0x40 MLOAD DUP1 SWAP2 SUB SWAP1 RETURN JUMPDEST PUSH2 0x1AD PUSH1 0x4 DUP1 CALLDATASIZE SUB DUP2 ADD SWAP1 PUSH2 0x1A8 SWAP2 SWAP1 PUSH2 0x2124 JUMP JUMPDEST PUSH2 0x1165 JUMP JUMPDEST STOP JUMPDEST PUSH2 0x1B7 PUSH2 0x17CA JUMP JUMPDEST PUSH1 0x40 MLOAD PUSH2 0x1C4 SWAP2 SWAP1 PUSH2 0x21DC JUMP JUMPDEST PUSH1 0x40 MLOAD DUP1 SWAP2 SUB SWAP1 RETURN JUMPDEST PUSH2 0x1D5 PUSH2 0x17EE JUMP JUMPDEST PUSH1 0x40 MLOAD PUSH2 0x1E2 SWAP2 SWAP1 PUSH2 0x2215 JUMP JUMPDEST PUSH1 0x40 MLOAD DUP1 SWAP2 SUB SWAP1 RETURN JUMPDEST PUSH2 0x205 PUSH1 0x4 DUP1 CALLDATASIZE SUB DUP2 ADD SWAP1 PUSH2 0x200 SWAP2 SWAP1 PUSH2 0x222E JUMP JUMPDEST PUSH2 0x1812 JUMP JUMPDEST STOP JUMPDEST PUSH2 0x221 PUSH1 0x4 DUP1 CALLDATASIZE SUB DUP2 ADD SWAP1 PUSH2 0x21C SWAP2 SWAP1 PUSH2 0x1F0F JUMP JUMPDEST PUSH2 0x190A JUMP JUMPDEST STOP JUMPDEST PUSH1 0x1 DUP1 SLOAD PUSH2 0x230 SWAP1 PUSH2 0x22A6 JUMP JUMPDEST DUP1 PUSH1 0x1F ADD PUSH1 0x20 DUP1 SWAP2 DIV MUL PUSH1 0x20 ADD PUSH1 0x40 MLOAD SWAP1 DUP2 ADD PUSH1 0x40 MSTORE DUP1 SWAP3 SWAP2 SWAP1 DUP2 DUP2 MSTORE PUSH1 0x20 ADD DUP3 DUP1 SLOAD PUSH2 0x25C SWAP1 PUSH2 0x22A6 JUMP JUMPDEST DUP1 ISZERO PUSH2 0x2A7 JUMPI DUP1 PUSH1 0x1F LT PUSH2 0x27E JUMPI PUSH2 0x100 DUP1 DUP4 SLOAD DIV MUL DUP4 MSTORE SWAP2 PUSH1 0x20 ADD SWAP2 PUSH2 0x2A7 JUMP JUMPDEST DUP3 ADD SWAP2 SWAP1 PUSH0 MSTORE PUSH1 0x20 PUSH0 KECCAK256 SWAP1 JUMPDEST DUP2 SLOAD DUP2 MSTORE SWAP1 PUSH1 0x1 ADD SWAP1 PUSH1 0x20 ADD DUP1 DUP4 GT PUSH2 0x28A JUMPI DUP3 SWAP1 SUB PUSH1 0x1F AND DUP3 ADD SWAP2 JUMPDEST POP POP POP POP POP DUP2 JUMP JUMPDEST PUSH0 PUSH0 DUP3 PUSH1 0x1 PUSH1 0x40 MLOAD PUSH1 0x20 ADD PUSH2 0x2C5 SWAP3 SWAP2 SWAP1 PUSH2 0x23EC JUMP JUMPDEST PUSH1 0x40 MLOAD PUSH1 0x20 DUP2 DUP4 SUB SUB DUP2 MSTORE SWAP1 PUSH1 0x40 MSTORE SWAP1 POP PUSH0 PUSH32 0x0 PUSH20 0xFFFFFFFFFFFFFFFFFFFFFFFFFFFFFFFFFFFFFFFF AND PUSH4 0x16F1ADC1 DUP4 PUSH1 0x40 MLOAD DUP3 PUSH4 0xFFFFFFFF AND PUSH1 0xE0 SHL DUP2 MSTORE PUSH1 0x4 ADD PUSH2 0x330 SWAP2 SWAP1 PUSH2 0x2464 JUMP JUMPDEST PUSH0 PUSH1 0x40 MLOAD DUP1 DUP4 SUB DUP2 DUP7 GAS STATICCALL ISZERO DUP1 ISZERO PUSH2 0x34A JUMPI RETURNDATASIZE PUSH0 PUSH0 RETURNDATACOPY RETURNDATASIZE PUSH0 REVERT JUMPDEST POP POP POP POP PUSH1 0x40 MLOAD RETURNDATASIZE PUSH0 DUP3 RETURNDATACOPY RETURNDATASIZE PUSH1 0x1F NOT PUSH1 0x1F DUP3 ADD AND DUP3 ADD DUP1 PUSH1 0x40 MSTORE POP DUP2 ADD SWAP1 PUSH2 0x372 SWAP2 SWAP1 PUSH2 0x2535 JUMP JUMPDEST SWAP1 POP PUSH1 0x14 DUP2 MLOAD LT ISZERO PUSH2 0x3B9 JUMPI PUSH1 0x40 MLOAD PUSH32 0x8C379A000000000000000000000000000000000000000000000000000000000 DUP2 MSTORE PUSH1 0x4 ADD PUSH2 0x3B0 SWAP1 PUSH2 0x25EC JUMP JUMPDEST PUSH1 0x40 MLOAD DUP1 SWAP2 SUB SWAP1 REVERT JUMPDEST PUSH0 PUSH1 0x14 DUP3 ADD MLOAD SWAP1 POP DUP1 SWAP4 POP POP POP POP SWAP2 SWAP1 POP JUMP JUMPDEST PUSH1 0x2 PUSH1 0x20 MSTORE DUP1 PUSH0 MSTORE PUSH1 0x40 PUSH0 KECCAK256 PUSH0 SWAP2 POP SLOAD SWAP1 PUSH2 0x100 EXP SWAP1 DIV PUSH1 0xFF AND DUP2 JUMP JUMPDEST PUSH0 PUSH2 0x436 DUP5 DUP5 DUP1 DUP1 PUSH1 0x1F ADD PUSH1 0x20 DUP1 SWAP2 DIV MUL PUSH1 0x20 ADD PUSH1 0x40 MLOAD SWAP1 DUP2 ADD PUSH1 0x40 MSTORE DUP1 SWAP4 SWAP3 SWAP2 SWAP1 DUP2 DUP2 MSTORE PUSH1 0x20 ADD DUP4 DUP4 DUP1 DUP3 DUP5 CALLDATACOPY PUSH0 DUP2 DUP5 ADD MSTORE PUSH1 0x1F NOT PUSH1 0x1F DUP3 ADD AND SWAP1 POP DUP1 DUP4 ADD SWAP3 POP POP POP POP POP POP POP PUSH2 0x2AF JUMP JUMPDEST SWAP1 POP PUSH1 0x2 PUSH0 DUP3 PUSH20 0xFFFFFFFFFFFFFFFFFFFFFFFFFFFFFFFFFFFFFFFF AND PUSH20 0xFFFFFFFFFFFFFFFFFFFFFFFFFFFFFFFFFFFFFFFF AND DUP2 MSTORE PUSH1 0x20 ADD SWAP1 DUP2 MSTORE PUSH1 0x20 ADD PUSH0 KECCAK256 PUSH0 SWAP1 SLOAD SWAP1 PUSH2 0x100 EXP SWAP1 DIV PUSH1 0xFF AND PUSH2 0x4C1 JUMPI PUSH1 0x40 MLOAD PUSH32 0x8C379A000000000000000000000000000000000000000000000000000000000 DUP2 MSTORE PUSH1 0x4 ADD PUSH2 0x4B8 SWAP1 PUSH2 0x2654 JUMP JUMPDEST PUSH1 0x40 MLOAD DUP1 SWAP2 SUB SWAP1 REVERT JUMPDEST PUSH0 PUSH1 0x6 PUSH8 0xFFFFFFFFFFFFFFFF DUP2 GT ISZERO PUSH2 0x4DD JUMPI PUSH2 0x4DC PUSH2 0x1D22 JUMP JUMPDEST JUMPDEST PUSH1 0x40 MLOAD SWAP1 DUP1 DUP3 MSTORE DUP1 PUSH1 0x20 MUL PUSH1 0x20 ADD DUP3 ADD PUSH1 0x40 MSTORE DUP1 ISZERO PUSH2 0x516 JUMPI DUP2 PUSH1 0x20 ADD JUMPDEST PUSH2 0x503 PUSH2 0x1C58 JUMP JUMPDEST DUP2 MSTORE PUSH1 0x20 ADD SWAP1 PUSH1 0x1 SWAP1 SUB SWAP1 DUP2 PUSH2 0x4FB JUMPI SWAP1 POP JUMPDEST POP SWAP1 POP PUSH1 0x40 MLOAD DUP1 PUSH1 0x60 ADD PUSH1 0x40 MSTORE DUP1 PUSH1 0x40 MLOAD DUP1 PUSH1 0x40 ADD PUSH1 0x40 MSTORE DUP1 PUSH1 0x4 DUP2 MSTORE PUSH1 0x20 ADD PUSH32 0x7573657200000000000000000000000000000000000000000000000000000000 DUP2 MSTORE POP DUP2 MSTORE PUSH1 0x20 ADD PUSH1 0x40 MLOAD DUP1 PUSH1 0x40 ADD PUSH1 0x40 MSTORE DUP1 PUSH1 0x7 DUP2 MSTORE PUSH1 0x20 ADD PUSH32 0x6164647265737300000000000000000000000000000000000000000000000000 DUP2 MSTORE POP DUP2 MSTORE PUSH1 0x20 ADD DUP10 PUSH1 0x40 MLOAD PUSH1 0x20 ADD PUSH2 0x5AB SWAP2 SWAP1 PUSH2 0x1ECC JUMP JUMPDEST PUSH1 0x40 MLOAD PUSH1 0x20 DUP2 DUP4 SUB SUB DUP2 MSTORE SWAP1 PUSH1 0x40 MSTORE DUP2 MSTORE POP DUP2 PUSH0 DUP2 MLOAD DUP2 LT PUSH2 0x5D0 JUMPI PUSH2 0x5CF PUSH2 0x2672 JUMP JUMPDEST JUMPDEST PUSH1 0x20 MUL PUSH1 0x20 ADD ADD DUP2 SWAP1 MSTORE POP PUSH1 0x40 MLOAD DUP1 PUSH1 0x60 ADD PUSH1 0x40 MSTORE DUP1 PUSH1 0x40 MLOAD DUP1 PUSH1 0x40 ADD PUSH1 0x40 MSTORE DUP1 PUSH1 0x6 DUP2 MSTORE PUSH1 0x20 ADD PUSH32 0x7368617265640000000000000000000000000000000000000000000000000000 DUP2 MSTORE POP DUP2 MSTORE PUSH1 0x20 ADD PUSH1 0x40 MLOAD DUP1 PUSH1 0x40 ADD PUSH1 0x40 MSTORE DUP1 PUSH1 0x7 DUP2 MSTORE PUSH1 0x20 ADD PUSH32 0x6164647265737300000000000000000000000000000000000000000000000000 DUP2 MSTORE POP DUP2 MSTORE PUSH1 0x20 ADD DUP9 DUP9 PUSH1 0x40 MLOAD PUSH1 0x20 ADD PUSH2 0x66F SWAP3 SWAP2 SWAP1 PUSH2 0x26CB JUMP JUMPDEST PUSH1 0x40 MLOAD PUSH1 0x20 DUP2 DUP4 SUB SUB DUP2 MSTORE SWAP1 PUSH1 0x40 MSTORE DUP2 MSTORE POP DUP2 PUSH1 0x1 DUP2 MLOAD DUP2 LT PUSH2 0x695 JUMPI PUSH2 0x694 PUSH2 0x2672 JUMP JUMPDEST JUMPDEST PUSH1 0x20 MUL PUSH1 0x20 ADD ADD DUP2 SWAP1 MSTORE POP PUSH1 0x40 MLOAD DUP1 PUSH1 0x60 ADD PUSH1 0x40 MSTORE DUP1 PUSH1 0x40 MLOAD DUP1 PUSH1 0x40 ADD PUSH1 0x40 MSTORE DUP1 PUSH1 0x6 DUP2 MSTORE PUSH1 0x20 ADD PUSH32 0x616D6F756E740000000000000000000000000000000000000000000000000000 DUP2 MSTORE POP DUP2 MSTORE PUSH1 0x20 ADD PUSH1 0x40 MLOAD DUP1 PUSH1 0x40 ADD PUSH1 0x40 MSTORE DUP1 PUSH1 0x7 DUP2 MSTORE PUSH1 0x20 ADD PUSH32 0x75696E7432353600000000000000000000000000000000000000000000000000 DUP2 MSTORE POP DUP2 MSTORE PUSH1 0x20 ADD DUP5 PUSH1 0x40 MLOAD PUSH1 0x20 ADD PUSH2 0x732 SWAP2 SWAP1 PUSH2 0x26FC JUMP JUMPDEST PUSH1 0x40 MLOAD PUSH1 0x20 DUP2 DUP4 SUB SUB DUP2 MSTORE SWAP1 PUSH1 0x40 MSTORE DUP2 MSTORE POP DUP2 PUSH1 0x2 DUP2 MLOAD DUP2 LT PUSH2 0x758 JUMPI PUSH2 0x757 PUSH2 0x2672 JUMP JUMPDEST JUMPDEST PUSH1 0x20 MUL PUSH1 0x20 ADD ADD DUP2 SWAP1 MSTORE POP PUSH1 0x40 MLOAD DUP1 PUSH1 0x60 ADD PUSH1 0x40 MSTORE DUP1 PUSH1 0x40 MLOAD DUP1 PUSH1 0x40 ADD PUSH1 0x40 MSTORE DUP1 PUSH1 0x5 DUP2 MSTORE PUSH1 0x20 ADD PUSH32 0x636861696E000000000000000000000000000000000000000000000000000000 DUP2 MSTORE POP DUP2 MSTORE PUSH1 0x20 ADD PUSH1 0x40 MLOAD DUP1 PUSH1 0x40 ADD PUSH1 0x40 MSTORE DUP1 PUSH1 0x6 DUP2 MSTORE PUSH1 0x20 ADD PUSH32 0x737472696E670000000000000000000000000000000000000000000000000000 DUP2 MSTORE POP DUP2 MSTORE PUSH1 0x20 ADD PUSH1 0x40 MLOAD PUSH1 0x20 ADD PUSH2 0x7F3 SWAP1 PUSH2 0x275F JUMP JUMPDEST PUSH1 0x40 MLOAD PUSH1 0x20 DUP2 DUP4 SUB SUB DUP2 MSTORE SWAP1 PUSH1 0x40 MSTORE DUP2 MSTORE POP DUP2 PUSH1 0x3 DUP2 MLOAD DUP2 LT PUSH2 0x819 JUMPI PUSH2 0x818 PUSH2 0x2672 JUMP JUMPDEST JUMPDEST PUSH1 0x20 MUL PUSH1 0x20 ADD ADD DUP2 SWAP1 MSTORE POP PUSH1 0x40 MLOAD DUP1 PUSH1 0x60 ADD PUSH1 0x40 MSTORE DUP1 PUSH1 0x40 MLOAD DUP1 PUSH1 0x40 ADD PUSH1 0x40 MSTORE DUP1 PUSH1 0x8 DUP2 MSTORE PUSH1 0x20 ADD PUSH32 0x70726F7669646572000000000000000000000000000000000000000000000000 DUP2 MSTORE POP DUP2 MSTORE PUSH1 0x20 ADD PUSH1 0x40 MLOAD DUP1 PUSH1 0x40 ADD PUSH1 0x40 MSTORE DUP1 PUSH1 0x6 DUP2 MSTORE PUSH1 0x20 ADD PUSH32 0x737472696E670000000000000000000000000000000000000000000000000000 DUP2 MSTORE POP DUP2 MSTORE PUSH1 0x20 ADD PUSH1 0x1 PUSH1 0x40 MLOAD PUSH1 0x20 ADD PUSH2 0x8B7 SWAP2 SWAP1 PUSH2 0x27FE JUMP JUMPDEST PUSH1 0x40 MLOAD PUSH1 0x20 DUP2 DUP4 SUB SUB DUP2 MSTORE SWAP1 PUSH1 0x40 MSTORE DUP2 MSTORE POP DUP2 PUSH1 0x4 DUP2 MLOAD DUP2 LT PUSH2 0x8DD JUMPI PUSH2 0x8DC PUSH2 0x2672 JUMP JUMPDEST JUMPDEST PUSH1 0x20 MUL PUSH1 0x20 ADD ADD DUP2 SWAP1 MSTORE POP PUSH1 0x40 MLOAD DUP1 PUSH1 0x60 ADD PUSH1 0x40 MSTORE DUP1 PUSH1 0x40 MLOAD DUP1 PUSH1 0x40 ADD PUSH1 0x40 MSTORE DUP1 PUSH1 0x5 DUP2 MSTORE PUSH1 0x20 ADD PUSH32 0x746F6B656E000000000000000000000000000000000000000000000000000000 DUP2 MSTORE POP DUP2 MSTORE PUSH1 0x20 ADD PUSH1 0x40 MLOAD DUP1 PUSH1 0x40 ADD PUSH1 0x40 MSTORE DUP1 PUSH1 0x6 DUP2 MSTORE PUSH1 0x20 ADD PUSH32 0x737472696E670000000000000000000000000000000000000000000000000000 DUP2 MSTORE POP DUP2 MSTORE PUSH1 0x20 ADD DUP7 DUP7 PUSH1 0x40 MLOAD PUSH1 0x20 ADD PUSH2 0x97C SWAP3 SWAP2 SWAP1 PUSH2 0x26CB JUMP JUMPDEST PUSH1 0x40 MLOAD PUSH1 0x20 DUP2 DUP4 SUB SUB DUP2 MSTORE SWAP1 PUSH1 0x40 MSTORE DUP2 MSTORE POP DUP2 PUSH1 0x5 DUP2 MLOAD DUP2 LT PUSH2 0x9A2 JUMPI PUSH2 0x9A1 PUSH2 0x2672 JUMP JUMPDEST JUMPDEST PUSH1 0x20 MUL PUSH1 0x20 ADD ADD DUP2 SWAP1 MSTORE POP PUSH32 0x0 PUSH20 0xFFFFFFFFFFFFFFFFFFFFFFFFFFFFFFFFFFFFFFFF AND PUSH4 0x7D64FA9B DUP3 PUSH1 0x40 MLOAD DUP3 PUSH4 0xFFFFFFFF AND PUSH1 0xE0 SHL DUP2 MSTORE PUSH1 0x4 ADD PUSH2 0xA06 SWAP2 SWAP1 PUSH2 0x2A18 JUMP JUMPDEST PUSH0 PUSH1 0x40 MLOAD DUP1 DUP4 SUB DUP2 PUSH0 DUP8 DUP1 EXTCODESIZE ISZERO DUP1 ISZERO PUSH2 0xA1D JUMPI PUSH0 PUSH0 REVERT JUMPDEST POP GAS CALL ISZERO DUP1 ISZERO PUSH2 0xA2F JUMPI RETURNDATASIZE PUSH0 PUSH0 RETURNDATACOPY RETURNDATASIZE PUSH0 REVERT JUMPDEST POP POP POP POP POP POP POP POP POP POP POP POP JUMP JUMPDEST PUSH2 0xA45 PUSH2 0x198E JUMP JUMPDEST PUSH2 0xA4E PUSH0 PUSH2 0x1A15 JUMP JUMPDEST JUMP JUMPDEST PUSH2 0xA58 PUSH2 0x198E JUMP JUMPDEST PUSH0 PUSH2 0xAA5 DUP6 DUP6 DUP1 DUP1 PUSH1 0x1F ADD PUSH1 0x20 DUP1 SWAP2 DIV MUL PUSH1 0x20 ADD PUSH1 0x40 MLOAD SWAP1 DUP2 ADD PUSH1 0x40 MSTORE DUP1 SWAP4 SWAP3 SWAP2 SWAP1 DUP2 DUP2 MSTORE PUSH1 0x20 ADD DUP4 DUP4 DUP1 DUP3 DUP5 CALLDATACOPY PUSH0 DUP2 DUP5 ADD MSTORE PUSH1 0x1F NOT PUSH1 0x1F DUP3 ADD AND SWAP1 POP DUP1 DUP4 ADD SWAP3 POP POP POP POP POP POP POP PUSH2 0x2AF JUMP JUMPDEST SWAP1 POP PUSH1 0x2 PUSH0 DUP3 PUSH20 0xFFFFFFFFFFFFFFFFFFFFFFFFFFFFFFFFFFFFFFFF AND PUSH20 0xFFFFFFFFFFFFFFFFFFFFFFFFFFFFFFFFFFFFFFFF AND DUP2 MSTORE PUSH1 0x20 ADD SWAP1 DUP2 MSTORE PUSH1 0x20 ADD PUSH0 KECCAK256 PUSH0 SWAP1 SLOAD SWAP1 PUSH2 0x100 EXP SWAP1 DIV PUSH1 0xFF AND PUSH2 0xB30 JUMPI PUSH1 0x40 MLOAD PUSH32 0x8C379A000000000000000000000000000000000000000000000000000000000 DUP2 MSTORE PUSH1 0x4 ADD PUSH2 0xB27 SWAP1 PUSH2 0x2654 JUMP JUMPDEST PUSH1 0x40 MLOAD DUP1 SWAP2 SUB SWAP1 REVERT JUMPDEST PUSH2 0xB5B DUP7 DUP5 DUP4 PUSH20 0xFFFFFFFFFFFFFFFFFFFFFFFFFFFFFFFFFFFFFFFF AND PUSH2 0x1AD6 SWAP1 SWAP3 SWAP2 SWAP1 PUSH4 0xFFFFFFFF AND JUMP JUMPDEST PUSH0 PUSH1 0x6 PUSH8 0xFFFFFFFFFFFFFFFF DUP2 GT ISZERO PUSH2 0xB77 JUMPI PUSH2 0xB76 PUSH2 0x1D22 JUMP JUMPDEST JUMPDEST PUSH1 0x40 MLOAD SWAP1 DUP1 DUP3 MSTORE DUP1 PUSH1 0x20 MUL PUSH1 0x20 ADD DUP3 ADD PUSH1 0x40 MSTORE DUP1 ISZERO PUSH2 0xBB0 JUMPI DUP2 PUSH1 0x20 ADD JUMPDEST PUSH2 0xB9D PUSH2 0x1C58 JUMP JUMPDEST DUP2 MSTORE PUSH1 0x20 ADD SWAP1 PUSH1 0x1 SWAP1 SUB SWAP1 DUP2 PUSH2 0xB95 JUMPI SWAP1 POP JUMPDEST POP SWAP1 POP PUSH1 0x40 MLOAD DUP1 PUSH1 0x60 ADD PUSH1 0x40 MSTORE DUP1 PUSH1 0x40 MLOAD DUP1 PUSH1 0x40 ADD PUSH1 0x40 MSTORE DUP1 PUSH1 0x4 DUP2 MSTORE PUSH1 0x20 ADD PUSH32 0x7573657200000000000000000000000000000000000000000000000000000000 DUP2 MSTORE POP DUP2 MSTORE PUSH1 0x20 ADD PUSH1 0x40 MLOAD DUP1 PUSH1 0x40 ADD PUSH1 0x40 MSTORE DUP1 PUSH1 0x7 DUP2 MSTORE PUSH1 0x20 ADD PUSH32 0x6164647265737300000000000000000000000000000000000000000000000000 DUP2 MSTORE POP DUP2 MSTORE PUSH1 0x20 ADD DUP9 PUSH1 0x40 MLOAD PUSH1 0x20 ADD PUSH2 0xC45 SWAP2 SWAP1 PUSH2 0x1ECC JUMP JUMPDEST PUSH1 0x40 MLOAD PUSH1 0x20 DUP2 DUP4 SUB SUB DUP2 MSTORE SWAP1 PUSH1 0x40 MSTORE DUP2 MSTORE POP DUP2 PUSH0 DUP2 MLOAD DUP2 LT PUSH2 0xC6A JUMPI PUSH2 0xC69 PUSH2 0x2672 JUMP JUMPDEST JUMPDEST PUSH1 0x20 MUL PUSH1 0x20 ADD ADD DUP2 SWAP1 MSTORE POP PUSH1 0x40 MLOAD DUP1 PUSH1 0x60 ADD PUSH1 0x40 MSTORE DUP1 PUSH1 0x40 MLOAD DUP1 PUSH1 0x40 ADD PUSH1 0x40 MSTORE DUP1 PUSH1 0x6 DUP2 MSTORE PUSH1 0x20 ADD PUSH32 0x616D6F756E740000000000000000000000000000000000000000000000000000 DUP2 MSTORE POP DUP2 MSTORE PUSH1 0x20 ADD PUSH1 0x40 MLOAD DUP1 PUSH1 0x40 ADD PUSH1 0x40 MSTORE DUP1 PUSH1 0x7 DUP2 MSTORE PUSH1 0x20 ADD PUSH32 0x75696E7432353600000000000000000000000000000000000000000000000000 DUP2 MSTORE POP DUP2 MSTORE PUSH1 0x20 ADD DUP6 PUSH1 0x40 MLOAD PUSH1 0x20 ADD PUSH2 0xD07 SWAP2 SWAP1 PUSH2 0x26FC JUMP JUMPDEST PUSH1 0x40 MLOAD PUSH1 0x20 DUP2 DUP4 SUB SUB DUP2 MSTORE SWAP1 PUSH1 0x40 MSTORE DUP2 MSTORE POP DUP2 PUSH1 0x1 DUP2 MLOAD DUP2 LT PUSH2 0xD2D JUMPI PUSH2 0xD2C PUSH2 0x2672 JUMP JUMPDEST JUMPDEST PUSH1 0x20 MUL PUSH1 0x20 ADD ADD DUP2 SWAP1 MSTORE POP PUSH1 0x40 MLOAD DUP1 PUSH1 0x60 ADD PUSH1 0x40 MSTORE DUP1 PUSH1 0x40 MLOAD DUP1 PUSH1 0x40 ADD PUSH1 0x40 MSTORE DUP1 PUSH1 0x5 DUP2 MSTORE PUSH1 0x20 ADD PUSH32 0x746F6B656E000000000000000000000000000000000000000000000000000000 DUP2 MSTORE POP DUP2 MSTORE PUSH1 0x20 ADD PUSH1 0x40 MLOAD DUP1 PUSH1 0x40 ADD PUSH1 0x40 MSTORE DUP1 PUSH1 0x6 DUP2 MSTORE PUSH1 0x20 ADD PUSH32 0x737472696E670000000000000000000000000000000000000000000000000000 DUP2 MSTORE POP DUP2 MSTORE PUSH1 0x20 ADD DUP8 DUP8 PUSH1 0x40 MLOAD PUSH1 0x20 ADD PUSH2 0xDCC SWAP3 SWAP2 SWAP1 PUSH2 0x26CB JUMP JUMPDEST PUSH1 0x40 MLOAD PUSH1 0x20 DUP2 DUP4 SUB SUB DUP2 MSTORE SWAP1 PUSH1 0x40 MSTORE DUP2 MSTORE POP DUP2 PUSH1 0x2 DUP2 MLOAD DUP2 LT PUSH2 0xDF2 JUMPI PUSH2 0xDF1 PUSH2 0x2672 JUMP JUMPDEST JUMPDEST PUSH1 0x20 MUL PUSH1 0x20 ADD ADD DUP2 SWAP1 MSTORE POP PUSH1 0x40 MLOAD DUP1 PUSH1 0x60 ADD PUSH1 0x40 MSTORE DUP1 PUSH1 0x40 MLOAD DUP1 PUSH1 0x40 ADD PUSH1 0x40 MSTORE DUP1 PUSH1 0x8 DUP2 MSTORE PUSH1 0x20 ADD PUSH32 0x70726F7669646572000000000000000000000000000000000000000000000000 DUP2 MSTORE POP DUP2 MSTORE PUSH1 0x20 ADD PUSH1 0x40 MLOAD DUP1 PUSH1 0x40 ADD PUSH1 0x40 MSTORE DUP1 PUSH1 0x6 DUP2 MSTORE PUSH1 0x20 ADD PUSH32 0x737472696E670000000000000000000000000000000000000000000000000000 DUP2 MSTORE POP DUP2 MSTORE PUSH1 0x20 ADD PUSH1 0x1 PUSH1 0x40 MLOAD PUSH1 0x20 ADD PUSH2 0xE90 SWAP2 SWAP1 PUSH2 0x27FE JUMP JUMPDEST PUSH1 0x40 MLOAD PUSH1 0x20 DUP2 DUP4 SUB SUB DUP2 MSTORE SWAP1 PUSH1 0x40 MSTORE DUP2 MSTORE POP DUP2 PUSH1 0x3 DUP2 MLOAD DUP2 LT PUSH2 0xEB6 JUMPI PUSH2 0xEB5 PUSH2 0x2672 JUMP JUMPDEST JUMPDEST PUSH1 0x20 MUL PUSH1 0x20 ADD ADD DUP2 SWAP1 MSTORE POP PUSH1 0x40 MLOAD DUP1 PUSH1 0x60 ADD PUSH1 0x40 MSTORE DUP1 PUSH1 0x40 MLOAD DUP1 PUSH1 0x40 ADD PUSH1 0x40 MSTORE DUP1 PUSH1 0x9 DUP2 MSTORE PUSH1 0x20 ADD PUSH32 0x6E756C6C69666965720000000000000000000000000000000000000000000000 DUP2 MSTORE POP DUP2 MSTORE PUSH1 0x20 ADD PUSH1 0x40 MLOAD DUP1 PUSH1 0x40 ADD PUSH1 0x40 MSTORE DUP1 PUSH1 0x7 DUP2 MSTORE PUSH1 0x20 ADD PUSH32 0x75696E7432353600000000000000000000000000000000000000000000000000 DUP2 MSTORE POP DUP2 MSTORE PUSH1 0x20 ADD DUP5 PUSH1 0x40 MLOAD PUSH1 0x20 ADD PUSH2 0xF53 SWAP2 SWAP1 PUSH2 0x26FC JUMP JUMPDEST PUSH1 0x40 MLOAD PUSH1 0x20 DUP2 DUP4 SUB SUB DUP2 MSTORE SWAP1 PUSH1 0x40 MSTORE DUP2 MSTORE POP DUP2 PUSH1 0x4 DUP2 MLOAD DUP2 LT PUSH2 0xF79 JUMPI PUSH2 0xF78 PUSH2 0x2672 JUMP JUMPDEST JUMPDEST PUSH1 0x20 MUL PUSH1 0x20 ADD ADD DUP2 SWAP1 MSTORE POP PUSH1 0x40 MLOAD DUP1 PUSH1 0x60 ADD PUSH1 0x40 MSTORE DUP1 PUSH1 0x40 MLOAD DUP1 PUSH1 0x40 ADD PUSH1 0x40 MSTORE DUP1 PUSH1 0x9 DUP2 MSTORE PUSH1 0x20 ADD PUSH32 0x74696D657374616D700000000000000000000000000000000000000000000000 DUP2 MSTORE POP DUP2 MSTORE PUSH1 0x20 ADD PUSH1 0x40 MLOAD DUP1 PUSH1 0x40 ADD PUSH1 0x40 MSTORE DUP1 PUSH1 0x7 DUP2 MSTORE PUSH1 0x20 ADD PUSH32 0x75696E7432353600000000000000000000000000000000000000000000000000 DUP2 MSTORE POP DUP2 MSTORE PUSH1 0x20 ADD TIMESTAMP PUSH1 0x40 MLOAD PUSH1 0x20 ADD PUSH2 0x1016 SWAP2 SWAP1 PUSH2 0x26FC JUMP JUMPDEST PUSH1 0x40 MLOAD PUSH1 0x20 DUP2 DUP4 SUB SUB DUP2 MSTORE SWAP1 PUSH1 0x40 MSTORE DUP2 MSTORE POP DUP2 PUSH1 0x5 DUP2 MLOAD DUP2 LT PUSH2 0x103C JUMPI PUSH2 0x103B PUSH2 0x2672 JUMP JUMPDEST JUMPDEST PUSH1 0x20 MUL PUSH1 0x20 ADD ADD DUP2 SWAP1 MSTORE POP PUSH32 0x0 PUSH20 0xFFFFFFFFFFFFFFFFFFFFFFFFFFFFFFFFFFFFFFFF AND PUSH4 0x7D64FA9B DUP3 PUSH1 0x40 MLOAD DUP3 PUSH4 0xFFFFFFFF AND PUSH1 0xE0 SHL DUP2 MSTORE PUSH1 0x4 ADD PUSH2 0x10A0 SWAP2 SWAP1 PUSH2 0x2A95 JUMP JUMPDEST PUSH0 PUSH1 0x40 MLOAD DUP1 DUP4 SUB DUP2 PUSH0 DUP8 DUP1 EXTCODESIZE ISZERO DUP1 ISZERO PUSH2 0x10B7 JUMPI PUSH0 PUSH0 REVERT JUMPDEST POP GAS CALL ISZERO DUP1 ISZERO PUSH2 0x10C9 JUMPI RETURNDATASIZE PUSH0 PUSH0 RETURNDATACOPY RETURNDATASIZE PUSH0 REVERT JUMPDEST POP POP POP POP DUP2 PUSH20 0xFFFFFFFFFFFFFFFFFFFFFFFFFFFFFFFFFFFFFFFF AND DUP8 PUSH20 0xFFFFFFFFFFFFFFFFFFFFFFFFFFFFFFFFFFFFFFFF AND PUSH32 0xCC4F8702356931E6D23A93D1B60BEAC6A7EA77D447ADA4B1502A09D0B7125709 DUP7 PUSH1 0x1 PUSH1 0x40 MLOAD PUSH2 0x112D SWAP3 SWAP2 SWAP1 PUSH2 0x2AC8 JUMP JUMPDEST PUSH1 0x40 MLOAD DUP1 SWAP2 SUB SWAP1 LOG3 POP POP POP POP POP POP POP JUMP JUMPDEST PUSH0 PUSH0 PUSH0 SWAP1 SLOAD SWAP1 PUSH2 0x100 EXP SWAP1 DIV PUSH20 0xFFFFFFFFFFFFFFFFFFFFFFFFFFFFFFFFFFFFFFFF AND SWAP1 POP SWAP1 JUMP JUMPDEST PUSH0 PUSH2 0x11B2 DUP5 DUP5 DUP1 DUP1 PUSH1 0x1F ADD PUSH1 0x20 DUP1 SWAP2 DIV MUL PUSH1 0x20 ADD PUSH1 0x40 MLOAD SWAP1 DUP2 ADD PUSH1 0x40 MSTORE DUP1 SWAP4 SWAP3 SWAP2 SWAP1 DUP2 DUP2 MSTORE PUSH1 0x20 ADD DUP4 DUP4 DUP1 DUP3 DUP5 CALLDATACOPY PUSH0 DUP2 DUP5 ADD MSTORE PUSH1 0x1F NOT PUSH1 0x1F DUP3 ADD AND SWAP1 POP DUP1 DUP4 ADD SWAP3 POP POP POP POP POP POP POP PUSH2 0x2AF JUMP JUMPDEST SWAP1 POP PUSH1 0x2 PUSH0 DUP3 PUSH20 0xFFFFFFFFFFFFFFFFFFFFFFFFFFFFFFFFFFFFFFFF AND PUSH20 0xFFFFFFFFFFFFFFFFFFFFFFFFFFFFFFFFFFFFFFFF AND DUP2 MSTORE PUSH1 0x20 ADD SWAP1 DUP2 MSTORE PUSH1 0x20 ADD PUSH0 KECCAK256 PUSH0 SWAP1 SLOAD SWAP1 PUSH2 0x100 EXP SWAP1 DIV PUSH1 0xFF AND PUSH2 0x123D JUMPI PUSH1 0x40 MLOAD PUSH32 0x8C379A000000000000000000000000000000000000000000000000000000000 DUP2 MSTORE PUSH1 0x4 ADD PUSH2 0x1234 SWAP1 PUSH2 0x2654 JUMP JUMPDEST PUSH1 0x40 MLOAD DUP1 SWAP2 SUB SWAP1 REVERT JUMPDEST PUSH0 DUP3 GT PUSH2 0x127F JUMPI PUSH1 0x40 MLOAD PUSH32 0x8C379A000000000000000000000000000000000000000000000000000000000 DUP2 MSTORE PUSH1 0x4 ADD PUSH2 0x1276 SWAP1 PUSH2 0x2B40 JUMP JUMPDEST PUSH1 0x40 MLOAD DUP1 SWAP2 SUB SWAP1 REVERT JUMPDEST PUSH2 0x12AC CALLER ADDRESS DUP5 DUP5 PUSH20 0xFFFFFFFFFFFFFFFFFFFFFFFFFFFFFFFFFFFFFFFF AND PUSH2 0x1B29 SWAP1 SWAP4 SWAP3 SWAP2 SWAP1 PUSH4 0xFFFFFFFF AND JUMP JUMPDEST PUSH0 PUSH1 0x5 PUSH8 0xFFFFFFFFFFFFFFFF DUP2 GT ISZERO PUSH2 0x12C8 JUMPI PUSH2 0x12C7 PUSH2 0x1D22 JUMP JUMPDEST JUMPDEST PUSH1 0x40 MLOAD SWAP1 DUP1 DUP3 MSTORE DUP1 PUSH1 0x20 MUL PUSH1 0x20 ADD DUP3 ADD PUSH1 0x40 MSTORE DUP1 ISZERO PUSH2 0x1301 JUMPI DUP2 PUSH1 0x20 ADD JUMPDEST PUSH2 0x12EE PUSH2 0x1C58 JUMP JUMPDEST DUP2 MSTORE PUSH1 0x20 ADD SWAP1 PUSH1 0x1 SWAP1 SUB SWAP1 DUP2 PUSH2 0x12E6 JUMPI SWAP1 POP JUMPDEST POP SWAP1 POP PUSH1 0x40 MLOAD DUP1 PUSH1 0x60 ADD PUSH1 0x40 MSTORE DUP1 PUSH1 0x40 MLOAD DUP1 PUSH1 0x40 ADD PUSH1 0x40 MSTORE DUP1 PUSH1 0x4 DUP2 MSTORE PUSH1 0x20 ADD PUSH32 0x7573657200000000000000000000000000000000000000000000000000000000 DUP2 MSTORE POP DUP2 MSTORE PUSH1 0x20 ADD PUSH1 0x40 MLOAD DUP1 PUSH1 0x40 ADD PUSH1 0x40 MSTORE DUP1 PUSH1 0x7 DUP2 MSTORE PUSH1 0x20 ADD PUSH32 0x6164647265737300000000000000000000000000000000000000000000000000 DUP2 MSTORE POP DUP2 MSTORE PUSH1 0x20 ADD CALLER PUSH1 0x40 MLOAD PUSH1 0x20 ADD PUSH2 0x1396 SWAP2 SWAP1 PUSH2 0x1ECC JUMP JUMPDEST PUSH1 0x40 MLOAD PUSH1 0x20 DUP2 DUP4 SUB SUB DUP2 MSTORE SWAP1 PUSH1 0x40 MSTORE DUP2 MSTORE POP DUP2 PUSH0 DUP2 MLOAD DUP2 LT PUSH2 0x13BB JUMPI PUSH2 0x13BA PUSH2 0x2672 JUMP JUMPDEST JUMPDEST PUSH1 0x20 MUL PUSH1 0x20 ADD ADD DUP2 SWAP1 MSTORE POP PUSH1 0x40 MLOAD DUP1 PUSH1 0x60 ADD PUSH1 0x40 MSTORE DUP1 PUSH1 0x40 MLOAD DUP1 PUSH1 0x40 ADD PUSH1 0x40 MSTORE DUP1 PUSH1 0x6 DUP2 MSTORE PUSH1 0x20 ADD PUSH32 0x616D6F756E740000000000000000000000000000000000000000000000000000 DUP2 MSTORE POP DUP2 MSTORE PUSH1 0x20 ADD PUSH1 0x40 MLOAD DUP1 PUSH1 0x40 ADD PUSH1 0x40 MSTORE DUP1 PUSH1 0x7 DUP2 MSTORE PUSH1 0x20 ADD PUSH32 0x75696E7432353600000000000000000000000000000000000000000000000000 DUP2 MSTORE POP DUP2 MSTORE PUSH1 0x20 ADD DUP5 PUSH1 0x40 MLOAD PUSH1 0x20 ADD PUSH2 0x1458 SWAP2 SWAP1 PUSH2 0x26FC JUMP JUMPDEST PUSH1 0x40 MLOAD PUSH1 0x20 DUP2 DUP4 SUB SUB DUP2 MSTORE SWAP1 PUSH1 0x40 MSTORE DUP2 MSTORE POP DUP2 PUSH1 0x1 DUP2 MLOAD DUP2 LT PUSH2 0x147E JUMPI PUSH2 0x147D PUSH2 0x2672 JUMP JUMPDEST JUMPDEST PUSH1 0x20 MUL PUSH1 0x20 ADD ADD DUP2 SWAP1 MSTORE POP PUSH1 0x40 MLOAD DUP1 PUSH1 0x60 ADD PUSH1 0x40 MSTORE DUP1 PUSH1 0x40 MLOAD DUP1 PUSH1 0x40 ADD PUSH1 0x40 MSTORE DUP1 PUSH1 0x5 DUP2 MSTORE PUSH1 0x20 ADD PUSH32 0x746F6B656E000000000000000000000000000000000000000000000000000000 DUP2 MSTORE POP DUP2 MSTORE PUSH1 0x20 ADD PUSH1 0x40 MLOAD DUP1 PUSH1 0x40 ADD PUSH1 0x40 MSTORE DUP1 PUSH1 0x6 DUP2 MSTORE PUSH1 0x20 ADD PUSH32 0x737472696E670000000000000000000000000000000000000000000000000000 DUP2 MSTORE POP DUP2 MSTORE PUSH1 0x20 ADD DUP7 DUP7 PUSH1 0x40 MLOAD PUSH1 0x20 ADD PUSH2 0x151D SWAP3 SWAP2 SWAP1 PUSH2 0x26CB JUMP JUMPDEST PUSH1 0x40 MLOAD PUSH1 0x20 DUP2 DUP4 SUB SUB DUP2 MSTORE SWAP1 PUSH1 0x40 MSTORE DUP2 MSTORE POP DUP2 PUSH1 0x2 DUP2 MLOAD DUP2 LT PUSH2 0x1543 JUMPI PUSH2 0x1542 PUSH2 0x2672 JUMP JUMPDEST JUMPDEST PUSH1 0x20 MUL PUSH1 0x20 ADD ADD DUP2 SWAP1 MSTORE POP PUSH1 0x40 MLOAD DUP1 PUSH1 0x60 ADD PUSH1 0x40 MSTORE DUP1 PUSH1 0x40 MLOAD DUP1 PUSH1 0x40 ADD PUSH1 0x40 MSTORE DUP1 PUSH1 0x8 DUP2 MSTORE PUSH1 0x20 ADD PUSH32 0x70726F7669646572000000000000000000000000000000000000000000000000 DUP2 MSTORE POP DUP2 MSTORE PUSH1 0x20 ADD PUSH1 0x40 MLOAD DUP1 PUSH1 0x40 ADD PUSH1 0x40 MSTORE DUP1 PUSH1 0x6 DUP2 MSTORE PUSH1 0x20 ADD PUSH32 0x737472696E670000000000000000000000000000000000000000000000000000 DUP2 MSTORE POP DUP2 MSTORE PUSH1 0x20 ADD PUSH1 0x1 PUSH1 0x40 MLOAD PUSH1 0x20 ADD PUSH2 0x15E1 SWAP2 SWAP1 PUSH2 0x27FE JUMP JUMPDEST PUSH1 0x40 MLOAD PUSH1 0x20 DUP2 DUP4 SUB SUB DUP2 MSTORE SWAP1 PUSH1 0x40 MSTORE DUP2 MSTORE POP DUP2 PUSH1 0x3 DUP2 MLOAD DUP2 LT PUSH2 0x1607 JUMPI PUSH2 0x1606 PUSH2 0x2672 JUMP JUMPDEST JUMPDEST PUSH1 0x20 MUL PUSH1 0x20 ADD ADD DUP2 SWAP1 MSTORE POP PUSH1 0x40 MLOAD DUP1 PUSH1 0x60 ADD PUSH1 0x40 MSTORE DUP1 PUSH1 0x40 MLOAD DUP1 PUSH1 0x40 ADD PUSH1 0x40 MSTORE DUP1 PUSH1 0x9 DUP2 MSTORE PUSH1 0x20 ADD PUSH32 0x74696D657374616D700000000000000000000000000000000000000000000000 DUP2 MSTORE POP DUP2 MSTORE PUSH1 0x20 ADD PUSH1 0x40 MLOAD DUP1 PUSH1 0x40 ADD PUSH1 0x40 MSTORE DUP1 PUSH1 0x7 DUP2 MSTORE PUSH1 0x20 ADD PUSH32 0x75696E7432353600000000000000000000000000000000000000000000000000 DUP2 MSTORE POP DUP2 MSTORE PUSH1 0x20 ADD TIMESTAMP PUSH1 0x40 MLOAD PUSH1 0x20 ADD PUSH2 0x16A4 SWAP2 SWAP1 PUSH2 0x26FC JUMP JUMPDEST PUSH1 0x40 MLOAD PUSH1 0x20 DUP2 DUP4 SUB SUB DUP2 MSTORE SWAP1 PUSH1 0x40 MSTORE DUP2 MSTORE POP DUP2 PUSH1 0x4 DUP2 MLOAD DUP2 LT PUSH2 0x16CA JUMPI PUSH2 0x16C9 PUSH2 0x2672 JUMP JUMPDEST JUMPDEST PUSH1 0x20 MUL PUSH1 0x20 ADD ADD DUP2 SWAP1 MSTORE POP PUSH32 0x0 PUSH20 0xFFFFFFFFFFFFFFFFFFFFFFFFFFFFFFFFFFFFFFFF AND PUSH4 0x7D64FA9B DUP3 PUSH1 0x40 MLOAD DUP3 PUSH4 0xFFFFFFFF AND PUSH1 0xE0 SHL DUP2 MSTORE PUSH1 0x4 ADD PUSH2 0x172E SWAP2 SWAP1 PUSH2 0x2BA8 JUMP JUMPDEST PUSH0 PUSH1 0x40 MLOAD DUP1 DUP4 SUB DUP2 PUSH0 DUP8 DUP1 EXTCODESIZE ISZERO DUP1 ISZERO PUSH2 0x1745 JUMPI PUSH0 PUSH0 REVERT JUMPDEST POP GAS CALL ISZERO DUP1 ISZERO PUSH2 0x1757 JUMPI RETURNDATASIZE PUSH0 PUSH0 RETURNDATACOPY RETURNDATASIZE PUSH0 REVERT JUMPDEST POP POP POP POP DUP2 PUSH20 0xFFFFFFFFFFFFFFFFFFFFFFFFFFFFFFFFFFFFFFFF AND CALLER PUSH20 0xFFFFFFFFFFFFFFFFFFFFFFFFFFFFFFFFFFFFFFFF AND PUSH32 0xEF519B7EB82AAF6AC376A6DF2D793843EBFD593DE5F1A0601D3CC6AB49EBB395 DUP6 PUSH1 0x1 PUSH1 0x40 MLOAD PUSH2 0x17BB SWAP3 SWAP2 SWAP1 PUSH2 0x2AC8 JUMP JUMPDEST PUSH1 0x40 MLOAD DUP1 SWAP2 SUB SWAP1 LOG3 POP POP POP POP POP JUMP JUMPDEST PUSH32 0x0 DUP2 JUMP JUMPDEST PUSH32 0x0 DUP2 JUMP JUMPDEST PUSH0 PUSH2 0x185F DUP4 DUP4 DUP1 DUP1 PUSH1 0x1F ADD PUSH1 0x20 DUP1 SWAP2 DIV MUL PUSH1 0x20 ADD PUSH1 0x40 MLOAD SWAP1 DUP2 ADD PUSH1 0x40 MSTORE DUP1 SWAP4 SWAP3 SWAP2 SWAP1 DUP2 DUP2 MSTORE PUSH1 0x20 ADD DUP4 DUP4 DUP1 DUP3 DUP5 CALLDATACOPY PUSH0 DUP2 DUP5 ADD MSTORE PUSH1 0x1F NOT PUSH1 0x1F DUP3 ADD AND SWAP1 POP DUP1 DUP4 ADD SWAP3 POP POP POP POP POP POP POP PUSH2 0x2AF JUMP JUMPDEST SWAP1 POP PUSH1 0x1 PUSH1 0x2 PUSH0 DUP4 PUSH20 0xFFFFFFFFFFFFFFFFFFFFFFFFFFFFFFFFFFFFFFFF AND PUSH20 0xFFFFFFFFFFFFFFFFFFFFFFFFFFFFFFFFFFFFFFFF AND DUP2 MSTORE PUSH1 0x20 ADD SWAP1 DUP2 MSTORE PUSH1 0x20 ADD PUSH0 KECCAK256 PUSH0 PUSH2 0x100 EXP DUP2 SLOAD DUP2 PUSH1 0xFF MUL NOT AND SWAP1 DUP4 ISZERO ISZERO MUL OR SWAP1 SSTORE POP DUP1 PUSH20 0xFFFFFFFFFFFFFFFFFFFFFFFFFFFFFFFFFFFFFFFF AND PUSH32 0xD57B1148EFB91F418A2178FC1FB4BA12F9400A4DC8E71851FD59E85D337C609F PUSH1 0x1 PUSH1 0x40 MLOAD PUSH2 0x18FD SWAP2 SWAP1 PUSH2 0x27FE JUMP JUMPDEST PUSH1 0x40 MLOAD DUP1 SWAP2 SUB SWAP1 LOG2 POP POP POP JUMP JUMPDEST PUSH2 0x1912 PUSH2 0x198E JUMP JUMPDEST PUSH0 PUSH20 0xFFFFFFFFFFFFFFFFFFFFFFFFFFFFFFFFFFFFFFFF AND DUP2 PUSH20 0xFFFFFFFFFFFFFFFFFFFFFFFFFFFFFFFFFFFFFFFF AND SUB PUSH2 0x1982 JUMPI PUSH0 PUSH1 0x40 MLOAD PUSH32 0x1E4FBDF700000000000000000000000000000000000000000000000000000000 DUP2 MSTORE PUSH1 0x4 ADD PUSH2 0x1979 SWAP2 SWAP1 PUSH2 0x1ECC JUMP JUMPDEST PUSH1 0x40 MLOAD DUP1 SWAP2 SUB SWAP1 REVERT JUMPDEST PUSH2 0x198B DUP2 PUSH2 0x1A15 JUMP JUMPDEST POP JUMP JUMPDEST PUSH2 0x1996 PUSH2 0x1B7E JUMP JUMPDEST PUSH20 0xFFFFFFFFFFFFFFFFFFFFFFFFFFFFFFFFFFFFFFFF AND PUSH2 0x19B4 PUSH2 0x113E JUMP JUMPDEST PUSH20 0xFFFFFFFFFFFFFFFFFFFFFFFFFFFFFFFFFFFFFFFF AND EQ PUSH2 0x1A13 JUMPI PUSH2 0x19D7 PUSH2 0x1B7E JUMP JUMPDEST PUSH1 0x40 MLOAD PUSH32 0x118CDAA700000000000000000000000000000000000000000000000000000000 DUP2 MSTORE PUSH1 0x4 ADD PUSH2 0x1A0A SWAP2 SWAP1 PUSH2 0x1ECC JUMP JUMPDEST PUSH1 0x40 MLOAD DUP1 SWAP2 SUB SWAP1 REVERT JUMPDEST JUMP JUMPDEST PUSH0 PUSH0 PUSH0 SWAP1 SLOAD SWAP1 PUSH2 0x100 EXP SWAP1 DIV PUSH20 0xFFFFFFFFFFFFFFFFFFFFFFFFFFFFFFFFFFFFFFFF AND SWAP1 POP DUP2 PUSH0 PUSH0 PUSH2 0x100 EXP DUP2 SLOAD DUP2 PUSH20 0xFFFFFFFFFFFFFFFFFFFFFFFFFFFFFFFFFFFFFFFF MUL NOT AND SWAP1 DUP4 PUSH20 0xFFFFFFFFFFFFFFFFFFFFFFFFFFFFFFFFFFFFFFFF AND MUL OR SWAP1 SSTORE POP DUP2 PUSH20 0xFFFFFFFFFFFFFFFFFFFFFFFFFFFFFFFFFFFFFFFF AND DUP2 PUSH20 0xFFFFFFFFFFFFFFFFFFFFFFFFFFFFFFFFFFFFFFFF AND PUSH32 0x8BE0079C531659141344CD1FD0A4F28419497F9722A3DAAFE3B4186F6B6457E0 PUSH1 0x40 MLOAD PUSH1 0x40 MLOAD DUP1 SWAP2 SUB SWAP1 LOG3 POP POP JUMP JUMPDEST PUSH2 0x1AE3 DUP4 DUP4 DUP4 PUSH1 0x1 PUSH2 0x1B85 JUMP JUMPDEST PUSH2 0x1B24 JUMPI DUP3 PUSH1 0x40 MLOAD PUSH32 0x5274AFE700000000000000000000000000000000000000000000000000000000 DUP2 MSTORE PUSH1 0x4 ADD PUSH2 0x1B1B SWAP2 SWAP1 PUSH2 0x1ECC JUMP JUMPDEST PUSH1 0x40 MLOAD DUP1 SWAP2 SUB SWAP1 REVERT JUMPDEST POP POP POP JUMP JUMPDEST PUSH2 0x1B37 DUP5 DUP5 DUP5 DUP5 PUSH1 0x1 PUSH2 0x1BE7 JUMP JUMPDEST PUSH2 0x1B78 JUMPI DUP4 PUSH1 0x40 MLOAD PUSH32 0x5274AFE700000000000000000000000000000000000000000000000000000000 DUP2 MSTORE PUSH1 0x4 ADD PUSH2 0x1B6F SWAP2 SWAP1 PUSH2 0x1ECC JUMP JUMPDEST PUSH1 0x40 MLOAD DUP1 SWAP2 SUB SWAP1 REVERT JUMPDEST POP POP POP POP JUMP JUMPDEST PUSH0 CALLER SWAP1 POP SWAP1 JUMP JUMPDEST PUSH0 PUSH0 PUSH4 0xA9059CBB PUSH1 0xE0 SHL SWAP1 POP PUSH1 0x40 MLOAD DUP2 PUSH0 MSTORE PUSH0 NOT PUSH1 0x60 SHR DUP7 AND PUSH1 0x4 MSTORE DUP5 PUSH1 0x24 MSTORE PUSH1 0x20 PUSH0 PUSH1 0x44 PUSH0 PUSH0 DUP12 GAS CALL SWAP3 POP PUSH1 0x1 PUSH0 MLOAD EQ DUP4 AND PUSH2 0x1BD9 JUMPI DUP4 DUP4 ISZERO AND ISZERO PUSH2 0x1BCD JUMPI RETURNDATASIZE PUSH0 DUP3 RETURNDATACOPY RETURNDATASIZE DUP2 REVERT JUMPDEST PUSH0 DUP8 EXTCODESIZE GT RETURNDATASIZE ISZERO AND DUP4 AND SWAP3 POP JUMPDEST DUP1 PUSH1 0x40 MSTORE POP POP SWAP5 SWAP4 POP POP POP POP JUMP JUMPDEST PUSH0 PUSH0 PUSH4 0x23B872DD PUSH1 0xE0 SHL SWAP1 POP PUSH1 0x40 MLOAD DUP2 PUSH0 MSTORE PUSH0 NOT PUSH1 0x60 SHR DUP8 AND PUSH1 0x4 MSTORE PUSH0 NOT PUSH1 0x60 SHR DUP7 AND PUSH1 0x24 MSTORE DUP5 PUSH1 0x44 MSTORE PUSH1 0x20 PUSH0 PUSH1 0x64 PUSH0 PUSH0 DUP13 GAS CALL SWAP3 POP PUSH1 0x1 PUSH0 MLOAD EQ DUP4 AND PUSH2 0x1C45 JUMPI DUP4 DUP4 ISZERO AND ISZERO PUSH2 0x1C39 JUMPI RETURNDATASIZE PUSH0 DUP3 RETURNDATACOPY RETURNDATASIZE DUP2 REVERT JUMPDEST PUSH0 DUP9 EXTCODESIZE GT RETURNDATASIZE ISZERO AND DUP4 AND SWAP3 POP JUMPDEST DUP1 PUSH1 0x40 MSTORE PUSH0 PUSH1 0x60 MSTORE POP POP SWAP6 SWAP5 POP POP POP POP POP JUMP JUMPDEST PUSH1 0x40 MLOAD DUP1 PUSH1 0x60 ADD PUSH1 0x40 MSTORE DUP1 PUSH1 0x60 DUP2 MSTORE PUSH1 0x20 ADD PUSH1 0x60 DUP2 MSTORE PUSH1 0x20 ADD PUSH1 0x60 DUP2 MSTORE POP SWAP1 JUMP JUMPDEST PUSH0 DUP2 MLOAD SWAP1 POP SWAP2 SWAP1 POP JUMP JUMPDEST PUSH0 DUP3 DUP3 MSTORE PUSH1 0x20 DUP3 ADD SWAP1 POP SWAP3 SWAP2 POP POP JUMP JUMPDEST DUP3 DUP2 DUP4 MCOPY PUSH0 DUP4 DUP4 ADD MSTORE POP POP POP JUMP JUMPDEST PUSH0 PUSH1 0x1F NOT PUSH1 0x1F DUP4 ADD AND SWAP1 POP SWAP2 SWAP1 POP JUMP JUMPDEST PUSH0 PUSH2 0x1CBB DUP3 PUSH2 0x1C79 JUMP JUMPDEST PUSH2 0x1CC5 DUP2 DUP6 PUSH2 0x1C83 JUMP JUMPDEST SWAP4 POP PUSH2 0x1CD5 DUP2 DUP6 PUSH1 0x20 DUP7 ADD PUSH2 0x1C93 JUMP JUMPDEST PUSH2 0x1CDE DUP2 PUSH2 0x1CA1 JUMP JUMPDEST DUP5 ADD SWAP2 POP POP SWAP3 SWAP2 POP POP JUMP JUMPDEST PUSH0 PUSH1 0x20 DUP3 ADD SWAP1 POP DUP2 DUP2 SUB PUSH0 DUP4 ADD MSTORE PUSH2 0x1D01 DUP2 DUP5 PUSH2 0x1CB1 JUMP JUMPDEST SWAP1 POP SWAP3 SWAP2 POP POP JUMP JUMPDEST PUSH0 PUSH1 0x40 MLOAD SWAP1 POP SWAP1 JUMP JUMPDEST PUSH0 PUSH0 REVERT JUMPDEST PUSH0 PUSH0 REVERT JUMPDEST PUSH0 PUSH0 REVERT JUMPDEST PUSH0 PUSH0 REVERT JUMPDEST PUSH32 0x4E487B7100000000000000000000000000000000000000000000000000000000 PUSH0 MSTORE PUSH1 0x41 PUSH1 0x4 MSTORE PUSH1 0x24 PUSH0 REVERT JUMPDEST PUSH2 0x1D58 DUP3 PUSH2 0x1CA1 JUMP JUMPDEST DUP2 ADD DUP2 DUP2 LT PUSH8 0xFFFFFFFFFFFFFFFF DUP3 GT OR ISZERO PUSH2 0x1D77 JUMPI PUSH2 0x1D76 PUSH2 0x1D22 JUMP JUMPDEST JUMPDEST DUP1 PUSH1 0x40 MSTORE POP POP POP JUMP JUMPDEST PUSH0 PUSH2 0x1D89 PUSH2 0x1D09 JUMP JUMPDEST SWAP1 POP PUSH2 0x1D95 DUP3 DUP3 PUSH2 0x1D4F JUMP JUMPDEST SWAP2 SWAP1 POP JUMP JUMPDEST PUSH0 PUSH8 0xFFFFFFFFFFFFFFFF DUP3 GT ISZERO PUSH2 0x1DB4 JUMPI PUSH2 0x1DB3 PUSH2 0x1D22 JUMP JUMPDEST JUMPDEST PUSH2 0x1DBD DUP3 PUSH2 0x1CA1 JUMP JUMPDEST SWAP1 POP PUSH1 0x20 DUP2 ADD SWAP1 POP SWAP2 SWAP1 POP JUMP JUMPDEST DUP3 DUP2 DUP4 CALLDATACOPY PUSH0 DUP4 DUP4 ADD MSTORE POP POP POP JUMP JUMPDEST PUSH0 PUSH2 0x1DEA PUSH2 0x1DE5 DUP5 PUSH2 0x1D9A JUMP JUMPDEST PUSH2 0x1D80 JUMP JUMPDEST SWAP1 POP DUP3 DUP2 MSTORE PUSH1 0x20 DUP2 ADD DUP5 DUP5 DUP5 ADD GT ISZERO PUSH2 0x1E06 JUMPI PUSH2 0x1E05 PUSH2 0x1D1E JUMP JUMPDEST JUMPDEST PUSH2 0x1E11 DUP5 DUP3 DUP6 PUSH2 0x1DCA JUMP JUMPDEST POP SWAP4 SWAP3 POP POP POP JUMP JUMPDEST PUSH0 DUP3 PUSH1 0x1F DUP4 ADD SLT PUSH2 0x1E2D JUMPI PUSH2 0x1E2C PUSH2 0x1D1A JUMP JUMPDEST JUMPDEST DUP2 CALLDATALOAD PUSH2 0x1E3D DUP5 DUP3 PUSH1 0x20 DUP7 ADD PUSH2 0x1DD8 JUMP JUMPDEST SWAP2 POP POP SWAP3 SWAP2 POP POP JUMP JUMPDEST PUSH0 PUSH1 0x20 DUP3 DUP5 SUB SLT ISZERO PUSH2 0x1E5B JUMPI PUSH2 0x1E5A PUSH2 0x1D12 JUMP JUMPDEST JUMPDEST PUSH0 DUP3 ADD CALLDATALOAD PUSH8 0xFFFFFFFFFFFFFFFF DUP2 GT ISZERO PUSH2 0x1E78 JUMPI PUSH2 0x1E77 PUSH2 0x1D16 JUMP JUMPDEST JUMPDEST PUSH2 0x1E84 DUP5 DUP3 DUP6 ADD PUSH2 0x1E19 JUMP JUMPDEST SWAP2 POP POP SWAP3 SWAP2 POP POP JUMP JUMPDEST PUSH0 PUSH20 0xFFFFFFFFFFFFFFFFFFFFFFFFFFFFFFFFFFFFFFFF DUP3 AND SWAP1 POP SWAP2 SWAP1 POP JUMP JUMPDEST PUSH0 PUSH2 0x1EB6 DUP3 PUSH2 0x1E8D JUMP JUMPDEST SWAP1 POP SWAP2 SWAP1 POP JUMP JUMPDEST PUSH2 0x1EC6 DUP2 PUSH2 0x1EAC JUMP JUMPDEST DUP3 MSTORE POP POP JUMP JUMPDEST PUSH0 PUSH1 0x20 DUP3 ADD SWAP1 POP PUSH2 0x1EDF PUSH0 DUP4 ADD DUP5 PUSH2 0x1EBD JUMP JUMPDEST SWAP3 SWAP2 POP POP JUMP JUMPDEST PUSH2 0x1EEE DUP2 PUSH2 0x1EAC JUMP JUMPDEST DUP2 EQ PUSH2 0x1EF8 JUMPI PUSH0 PUSH0 REVERT JUMPDEST POP JUMP JUMPDEST PUSH0 DUP2 CALLDATALOAD SWAP1 POP PUSH2 0x1F09 DUP2 PUSH2 0x1EE5 JUMP JUMPDEST SWAP3 SWAP2 POP POP JUMP JUMPDEST PUSH0 PUSH1 0x20 DUP3 DUP5 SUB SLT ISZERO PUSH2 0x1F24 JUMPI PUSH2 0x1F23 PUSH2 0x1D12 JUMP JUMPDEST JUMPDEST PUSH0 PUSH2 0x1F31 DUP5 DUP3 DUP6 ADD PUSH2 0x1EFB JUMP JUMPDEST SWAP2 POP POP SWAP3 SWAP2 POP POP JUMP JUMPDEST PUSH0 DUP2 ISZERO ISZERO SWAP1 POP SWAP2 SWAP1 POP JUMP JUMPDEST PUSH2 0x1F4E DUP2 PUSH2 0x1F3A JUMP JUMPDEST DUP3 MSTORE POP POP JUMP JUMPDEST PUSH0 PUSH1 0x20 DUP3 ADD SWAP1 POP PUSH2 0x1F67 PUSH0 DUP4 ADD DUP5 PUSH2 0x1F45 JUMP JUMPDEST SWAP3 SWAP2 POP POP JUMP JUMPDEST PUSH0 PUSH0 REVERT JUMPDEST PUSH0 PUSH0 REVERT JUMPDEST PUSH0 PUSH0 DUP4 PUSH1 0x1F DUP5 ADD SLT PUSH2 0x1F8A JUMPI PUSH2 0x1F89 PUSH2 0x1D1A JUMP JUMPDEST JUMPDEST DUP3 CALLDATALOAD SWAP1 POP PUSH8 0xFFFFFFFFFFFFFFFF DUP2 GT ISZERO PUSH2 0x1FA7 JUMPI PUSH2 0x1FA6 PUSH2 0x1F6D JUMP JUMPDEST JUMPDEST PUSH1 0x20 DUP4 ADD SWAP2 POP DUP4 PUSH1 0x1 DUP3 MUL DUP4 ADD GT ISZERO PUSH2 0x1FC3 JUMPI PUSH2 0x1FC2 PUSH2 0x1F71 JUMP JUMPDEST JUMPDEST SWAP3 POP SWAP3 SWAP1 POP JUMP JUMPDEST PUSH0 DUP2 SWAP1 POP SWAP2 SWAP1 POP JUMP JUMPDEST PUSH2 0x1FDC DUP2 PUSH2 0x1FCA JUMP JUMPDEST DUP2 EQ PUSH2 0x1FE6 JUMPI PUSH0 PUSH0 REVERT JUMPDEST POP JUMP JUMPDEST PUSH0 DUP2 CALLDATALOAD SWAP1 POP PUSH2 0x1FF7 DUP2 PUSH2 0x1FD3 JUMP JUMPDEST SWAP3 SWAP2 POP POP JUMP JUMPDEST PUSH0 PUSH0 PUSH0 PUSH0 PUSH0 PUSH0 PUSH1 0x80 DUP8 DUP10 SUB SLT ISZERO PUSH2 0x2017 JUMPI PUSH2 0x2016 PUSH2 0x1D12 JUMP JUMPDEST JUMPDEST PUSH0 PUSH2 0x2024 DUP10 DUP3 DUP11 ADD PUSH2 0x1EFB JUMP JUMPDEST SWAP7 POP POP PUSH1 0x20 DUP8 ADD CALLDATALOAD PUSH8 0xFFFFFFFFFFFFFFFF DUP2 GT ISZERO PUSH2 0x2045 JUMPI PUSH2 0x2044 PUSH2 0x1D16 JUMP JUMPDEST JUMPDEST PUSH2 0x2051 DUP10 DUP3 DUP11 ADD PUSH2 0x1F75 JUMP JUMPDEST SWAP6 POP SWAP6 POP POP PUSH1 0x40 DUP8 ADD CALLDATALOAD PUSH8 0xFFFFFFFFFFFFFFFF DUP2 GT ISZERO PUSH2 0x2074 JUMPI PUSH2 0x2073 PUSH2 0x1D16 JUMP JUMPDEST JUMPDEST PUSH2 0x2080 DUP10 DUP3 DUP11 ADD PUSH2 0x1F75 JUMP JUMPDEST SWAP4 POP SWAP4 POP POP PUSH1 0x60 PUSH2 0x2093 DUP10 DUP3 DUP11 ADD PUSH2 0x1FE9 JUMP JUMPDEST SWAP2 POP POP SWAP3 SWAP6 POP SWAP3 SWAP6 POP SWAP3 SWAP6 JUMP JUMPDEST PUSH0 PUSH0 PUSH0 PUSH0 PUSH0 PUSH1 0x80 DUP7 DUP9 SUB SLT ISZERO PUSH2 0x20B9 JUMPI PUSH2 0x20B8 PUSH2 0x1D12 JUMP JUMPDEST JUMPDEST PUSH0 PUSH2 0x20C6 DUP9 DUP3 DUP10 ADD PUSH2 0x1EFB JUMP JUMPDEST SWAP6 POP POP PUSH1 0x20 DUP7 ADD CALLDATALOAD PUSH8 0xFFFFFFFFFFFFFFFF DUP2 GT ISZERO PUSH2 0x20E7 JUMPI PUSH2 0x20E6 PUSH2 0x1D16 JUMP JUMPDEST JUMPDEST PUSH2 0x20F3 DUP9 DUP3 DUP10 ADD PUSH2 0x1F75 JUMP JUMPDEST SWAP5 POP SWAP5 POP POP PUSH1 0x40 PUSH2 0x2106 DUP9 DUP3 DUP10 ADD PUSH2 0x1FE9 JUMP JUMPDEST SWAP3 POP POP PUSH1 0x60 PUSH2 0x2117 DUP9 DUP3 DUP10 ADD PUSH2 0x1FE9 JUMP JUMPDEST SWAP2 POP POP SWAP3 SWAP6 POP SWAP3 SWAP6 SWAP1 SWAP4 POP JUMP JUMPDEST PUSH0 PUSH0 PUSH0 PUSH1 0x40 DUP5 DUP7 SUB SLT ISZERO PUSH2 0x213B JUMPI PUSH2 0x213A PUSH2 0x1D12 JUMP JUMPDEST JUMPDEST PUSH0 DUP5 ADD CALLDATALOAD PUSH8 0xFFFFFFFFFFFFFFFF DUP2 GT ISZERO PUSH2 0x2158 JUMPI PUSH2 0x2157 PUSH2 0x1D16 JUMP JUMPDEST JUMPDEST PUSH2 0x2164 DUP7 DUP3 DUP8 ADD PUSH2 0x1F75 JUMP JUMPDEST SWAP4 POP SWAP4 POP POP PUSH1 0x20 PUSH2 0x2177 DUP7 DUP3 DUP8 ADD PUSH2 0x1FE9 JUMP JUMPDEST SWAP2 POP POP SWAP3 POP SWAP3 POP SWAP3 JUMP JUMPDEST PUSH0 DUP2 SWAP1 POP SWAP2 SWAP1 POP JUMP JUMPDEST PUSH0 PUSH2 0x21A4 PUSH2 0x219F PUSH2 0x219A DUP5 PUSH2 0x1E8D JUMP JUMPDEST PUSH2 0x2181 JUMP JUMPDEST PUSH2 0x1E8D JUMP JUMPDEST SWAP1 POP SWAP2 SWAP1 POP JUMP JUMPDEST PUSH0 PUSH2 0x21B5 DUP3 PUSH2 0x218A JUMP JUMPDEST SWAP1 POP SWAP2 SWAP1 POP JUMP JUMPDEST PUSH0 PUSH2 0x21C6 DUP3 PUSH2 0x21AB JUMP JUMPDEST SWAP1 POP SWAP2 SWAP1 POP JUMP JUMPDEST PUSH2 0x21D6 DUP2 PUSH2 0x21BC JUMP JUMPDEST DUP3 MSTORE POP POP JUMP JUMPDEST PUSH0 PUSH1 0x20 DUP3 ADD SWAP1 POP PUSH2 0x21EF PUSH0 DUP4 ADD DUP5 PUSH2 0x21CD JUMP JUMPDEST SWAP3 SWAP2 POP POP JUMP JUMPDEST PUSH0 PUSH2 0x21FF DUP3 PUSH2 0x21AB JUMP JUMPDEST SWAP1 POP SWAP2 SWAP1 POP JUMP JUMPDEST PUSH2 0x220F DUP2 PUSH2 0x21F5 JUMP JUMPDEST DUP3 MSTORE POP POP JUMP JUMPDEST PUSH0 PUSH1 0x20 DUP3 ADD SWAP1 POP PUSH2 0x2228 PUSH0 DUP4 ADD DUP5 PUSH2 0x2206 JUMP JUMPDEST SWAP3 SWAP2 POP POP JUMP JUMPDEST PUSH0 PUSH0 PUSH1 0x20 DUP4 DUP6 SUB SLT ISZERO PUSH2 0x2244 JUMPI PUSH2 0x2243 PUSH2 0x1D12 JUMP JUMPDEST JUMPDEST PUSH0 DUP4 ADD CALLDATALOAD PUSH8 0xFFFFFFFFFFFFFFFF DUP2 GT ISZERO PUSH2 0x2261 JUMPI PUSH2 0x2260 PUSH2 0x1D16 JUMP JUMPDEST JUMPDEST PUSH2 0x226D DUP6 DUP3 DUP7 ADD PUSH2 0x1F75 JUMP JUMPDEST SWAP3 POP SWAP3 POP POP SWAP3 POP SWAP3 SWAP1 POP JUMP JUMPDEST PUSH32 0x4E487B7100000000000000000000000000000000000000000000000000000000 PUSH0 MSTORE PUSH1 0x22 PUSH1 0x4 MSTORE PUSH1 0x24 PUSH0 REVERT JUMPDEST PUSH0 PUSH1 0x2 DUP3 DIV SWAP1 POP PUSH1 0x1 DUP3 AND DUP1 PUSH2 0x22BD JUMPI PUSH1 0x7F DUP3 AND SWAP2 POP JUMPDEST PUSH1 0x20 DUP3 LT DUP2 SUB PUSH2 0x22D0 JUMPI PUSH2 0x22CF PUSH2 0x2279 JUMP JUMPDEST JUMPDEST POP SWAP2 SWAP1 POP JUMP JUMPDEST PUSH0 DUP2 SWAP1 POP SWAP3 SWAP2 POP POP JUMP JUMPDEST PUSH0 PUSH2 0x22EA DUP3 PUSH2 0x1C79 JUMP JUMPDEST PUSH2 0x22F4 DUP2 DUP6 PUSH2 0x22D6 JUMP JUMPDEST SWAP4 POP PUSH2 0x2304 DUP2 DUP6 PUSH1 0x20 DUP7 ADD PUSH2 0x1C93 JUMP JUMPDEST DUP1 DUP5 ADD SWAP2 POP POP SWAP3 SWAP2 POP POP JUMP JUMPDEST PUSH32 0x5F00000000000000000000000000000000000000000000000000000000000000 PUSH0 DUP3 ADD MSTORE POP JUMP JUMPDEST PUSH0 PUSH2 0x2344 PUSH1 0x1 DUP4 PUSH2 0x22D6 JUMP JUMPDEST SWAP2 POP PUSH2 0x234F DUP3 PUSH2 0x2310 JUMP JUMPDEST PUSH1 0x1 DUP3 ADD SWAP1 POP SWAP2 SWAP1 POP JUMP JUMPDEST PUSH0 DUP2 SWAP1 POP DUP2 PUSH0 MSTORE PUSH1 0x20 PUSH0 KECCAK256 SWAP1 POP SWAP2 SWAP1 POP JUMP JUMPDEST PUSH0 DUP2 SLOAD PUSH2 0x2378 DUP2 PUSH2 0x22A6 JUMP JUMPDEST PUSH2 0x2382 DUP2 DUP7 PUSH2 0x22D6 JUMP JUMPDEST SWAP5 POP PUSH1 0x1 DUP3 AND PUSH0 DUP2 EQ PUSH2 0x239C JUMPI PUSH1 0x1 DUP2 EQ PUSH2 0x23B1 JUMPI PUSH2 0x23E3 JUMP JUMPDEST PUSH1 0xFF NOT DUP4 AND DUP7 MSTORE DUP2 ISZERO ISZERO DUP3 MUL DUP7 ADD SWAP4 POP PUSH2 0x23E3 JUMP JUMPDEST PUSH2 0x23BA DUP6 PUSH2 0x235A JUMP JUMPDEST PUSH0 JUMPDEST DUP4 DUP2 LT ISZERO PUSH2 0x23DB JUMPI DUP2 SLOAD DUP2 DUP10 ADD MSTORE PUSH1 0x1 DUP3 ADD SWAP2 POP PUSH1 0x20 DUP2 ADD SWAP1 POP PUSH2 0x23BC JUMP JUMPDEST DUP4 DUP9 ADD SWAP6 POP POP POP JUMPDEST POP POP POP SWAP3 SWAP2 POP POP JUMP JUMPDEST PUSH0 PUSH2 0x23F7 DUP3 DUP6 PUSH2 0x22E0 JUMP JUMPDEST SWAP2 POP PUSH2 0x2402 DUP3 PUSH2 0x2338 JUMP JUMPDEST SWAP2 POP PUSH2 0x240E DUP3 DUP5 PUSH2 0x236C JUMP JUMPDEST SWAP2 POP DUP2 SWAP1 POP SWAP4 SWAP3 POP POP POP JUMP JUMPDEST PUSH32 0x51696172614D6F6E616441737365747300000000000000000000000000000000 PUSH0 DUP3 ADD MSTORE POP JUMP JUMPDEST PUSH0 PUSH2 0x244E PUSH1 0x10 DUP4 PUSH2 0x1C83 JUMP JUMPDEST SWAP2 POP PUSH2 0x2459 DUP3 PUSH2 0x241A JUMP JUMPDEST PUSH1 0x20 DUP3 ADD SWAP1 POP SWAP2 SWAP1 POP JUMP JUMPDEST PUSH0 PUSH1 0x40 DUP3 ADD SWAP1 POP DUP2 DUP2 SUB PUSH0 DUP4 ADD MSTORE PUSH2 0x247B DUP2 PUSH2 0x2442 JUMP JUMPDEST SWAP1 POP DUP2 DUP2 SUB PUSH1 0x20 DUP4 ADD MSTORE PUSH2 0x248F DUP2 DUP5 PUSH2 0x1CB1 JUMP JUMPDEST SWAP1 POP SWAP3 SWAP2 POP POP JUMP JUMPDEST PUSH0 PUSH8 0xFFFFFFFFFFFFFFFF DUP3 GT ISZERO PUSH2 0x24B1 JUMPI PUSH2 0x24B0 PUSH2 0x1D22 JUMP JUMPDEST JUMPDEST PUSH2 0x24BA DUP3 PUSH2 0x1CA1 JUMP JUMPDEST SWAP1 POP PUSH1 0x20 DUP2 ADD SWAP1 POP SWAP2 SWAP1 POP JUMP JUMPDEST PUSH0 PUSH2 0x24D9 PUSH2 0x24D4 DUP5 PUSH2 0x2497 JUMP JUMPDEST PUSH2 0x1D80 JUMP JUMPDEST SWAP1 POP DUP3 DUP2 MSTORE PUSH1 0x20 DUP2 ADD DUP5 DUP5 DUP5 ADD GT ISZERO PUSH2 0x24F5 JUMPI PUSH2 0x24F4 PUSH2 0x1D1E JUMP JUMPDEST JUMPDEST PUSH2 0x2500 DUP5 DUP3 DUP6 PUSH2 0x1C93 JUMP JUMPDEST POP SWAP4 SWAP3 POP POP POP JUMP JUMPDEST PUSH0 DUP3 PUSH1 0x1F DUP4 ADD SLT PUSH2 0x251C JUMPI PUSH2 0x251B PUSH2 0x1D1A JUMP JUMPDEST JUMPDEST DUP2 MLOAD PUSH2 0x252C DUP5 DUP3 PUSH1 0x20 DUP7 ADD PUSH2 0x24C7 JUMP JUMPDEST SWAP2 POP POP SWAP3 SWAP2 POP POP JUMP JUMPDEST PUSH0 PUSH1 0x20 DUP3 DUP5 SUB SLT ISZERO PUSH2 0x254A JUMPI PUSH2 0x2549 PUSH2 0x1D12 JUMP JUMPDEST JUMPDEST PUSH0 DUP3 ADD MLOAD PUSH8 0xFFFFFFFFFFFFFFFF DUP2 GT ISZERO PUSH2 0x2567 JUMPI PUSH2 0x2566 PUSH2 0x1D16 JUMP JUMPDEST JUMPDEST PUSH2 0x2573 DUP5 DUP3 DUP6 ADD PUSH2 0x2508 JUMP JUMPDEST SWAP2 POP POP SWAP3 SWAP2 POP POP JUMP JUMPDEST PUSH32 0x5661756C743A204173736574206E6F7420666F756E6420696E20726567697374 PUSH0 DUP3 ADD MSTORE PUSH32 0x7279000000000000000000000000000000000000000000000000000000000000 PUSH1 0x20 DUP3 ADD MSTORE POP JUMP JUMPDEST PUSH0 PUSH2 0x25D6 PUSH1 0x22 DUP4 PUSH2 0x1C83 JUMP JUMPDEST SWAP2 POP PUSH2 0x25E1 DUP3 PUSH2 0x257C JUMP JUMPDEST PUSH1 0x40 DUP3 ADD SWAP1 POP SWAP2 SWAP1 POP JUMP JUMPDEST PUSH0 PUSH1 0x20 DUP3 ADD SWAP1 POP DUP2 DUP2 SUB PUSH0 DUP4 ADD MSTORE PUSH2 0x2603 DUP2 PUSH2 0x25CA JUMP JUMPDEST SWAP1 POP SWAP2 SWAP1 POP JUMP JUMPDEST PUSH32 0x5661756C743A20546F6B656E206E6F7420737570706F72746564000000000000 PUSH0 DUP3 ADD MSTORE POP JUMP JUMPDEST PUSH0 PUSH2 0x263E PUSH1 0x1A DUP4 PUSH2 0x1C83 JUMP JUMPDEST SWAP2 POP PUSH2 0x2649 DUP3 PUSH2 0x260A JUMP JUMPDEST PUSH1 0x20 DUP3 ADD SWAP1 POP SWAP2 SWAP1 POP JUMP JUMPDEST PUSH0 PUSH1 0x20 DUP3 ADD SWAP1 POP DUP2 DUP2 SUB PUSH0 DUP4 ADD MSTORE PUSH2 0x266B DUP2 PUSH2 0x2632 JUMP JUMPDEST SWAP1 POP SWAP2 SWAP1 POP JUMP JUMPDEST PUSH32 0x4E487B7100000000000000000000000000000000000000000000000000000000 PUSH0 MSTORE PUSH1 0x32 PUSH1 0x4 MSTORE PUSH1 0x24 PUSH0 REVERT JUMPDEST PUSH0 PUSH2 0x26AA DUP4 DUP6 PUSH2 0x1C83 JUMP JUMPDEST SWAP4 POP PUSH2 0x26B7 DUP4 DUP6 DUP5 PUSH2 0x1DCA JUMP JUMPDEST PUSH2 0x26C0 DUP4 PUSH2 0x1CA1 JUMP JUMPDEST DUP5 ADD SWAP1 POP SWAP4 SWAP3 POP POP POP JUMP JUMPDEST PUSH0 PUSH1 0x20 DUP3 ADD SWAP1 POP DUP2 DUP2 SUB PUSH0 DUP4 ADD MSTORE PUSH2 0x26E4 DUP2 DUP5 DUP7 PUSH2 0x269F JUMP JUMPDEST SWAP1 POP SWAP4 SWAP3 POP POP POP JUMP JUMPDEST PUSH2 0x26F6 DUP2 PUSH2 0x1FCA JUMP JUMPDEST DUP3 MSTORE POP POP JUMP JUMPDEST PUSH0 PUSH1 0x20 DUP3 ADD SWAP1 POP PUSH2 0x270F PUSH0 DUP4 ADD DUP5 PUSH2 0x26ED JUMP JUMPDEST SWAP3 SWAP2 POP POP JUMP JUMPDEST PUSH32 0x6261736500000000000000000000000000000000000000000000000000000000 PUSH0 DUP3 ADD MSTORE POP JUMP JUMPDEST PUSH0 PUSH2 0x2749 PUSH1 0x4 DUP4 PUSH2 0x1C83 JUMP JUMPDEST SWAP2 POP PUSH2 0x2754 DUP3 PUSH2 0x2715 JUMP JUMPDEST PUSH1 0x20 DUP3 ADD SWAP1 POP SWAP2 SWAP1 POP JUMP JUMPDEST PUSH0 PUSH1 0x20 DUP3 ADD SWAP1 POP DUP2 DUP2 SUB PUSH0 DUP4 ADD MSTORE PUSH2 0x2776 DUP2 PUSH2 0x273D JUMP JUMPDEST SWAP1 POP SWAP2 SWAP1 POP JUMP JUMPDEST PUSH0 DUP2 SLOAD PUSH2 0x2789 DUP2 PUSH2 0x22A6 JUMP JUMPDEST PUSH2 0x2793 DUP2 DUP7 PUSH2 0x1C83 JUMP JUMPDEST SWAP5 POP PUSH1 0x1 DUP3 AND PUSH0 DUP2 EQ PUSH2 0x27AD JUMPI PUSH1 0x1 DUP2 EQ PUSH2 0x27C3 JUMPI PUSH2 0x27F5 JUMP JUMPDEST PUSH1 0xFF NOT DUP4 AND DUP7 MSTORE DUP2 ISZERO ISZERO PUSH1 0x20 MUL DUP7 ADD SWAP4 POP PUSH2 0x27F5 JUMP JUMPDEST PUSH2 0x27CC DUP6 PUSH2 0x235A JUMP JUMPDEST PUSH0 JUMPDEST DUP4 DUP2 LT ISZERO PUSH2 0x27ED JUMPI DUP2 SLOAD DUP2 DUP10 ADD MSTORE PUSH1 0x1 DUP3 ADD SWAP2 POP PUSH1 0x20 DUP2 ADD SWAP1 POP PUSH2 0x27CE JUMP JUMPDEST DUP1 DUP9 ADD SWAP6 POP POP POP JUMPDEST POP POP POP SWAP3 SWAP2 POP POP JUMP JUMPDEST PUSH0 PUSH1 0x20 DUP3 ADD SWAP1 POP DUP2 DUP2 SUB PUSH0 DUP4 ADD MSTORE PUSH2 0x2816 DUP2 DUP5 PUSH2 0x277D JUMP JUMPDEST SWAP1 POP SWAP3 SWAP2 POP POP JUMP JUMPDEST PUSH32 0x4D6F64756C617220576974686472617700000000000000000000000000000000 PUSH0 DUP3 ADD MSTORE POP JUMP JUMPDEST PUSH0 PUSH2 0x2852 PUSH1 0x10 DUP4 PUSH2 0x1C83 JUMP JUMPDEST SWAP2 POP PUSH2 0x285D DUP3 PUSH2 0x281E JUMP JUMPDEST PUSH1 0x20 DUP3 ADD SWAP1 POP SWAP2 SWAP1 POP JUMP JUMPDEST PUSH0 DUP2 MLOAD SWAP1 POP SWAP2 SWAP1 POP JUMP JUMPDEST PUSH0 DUP3 DUP3 MSTORE PUSH1 0x20 DUP3 ADD SWAP1 POP SWAP3 SWAP2 POP POP JUMP JUMPDEST PUSH0 DUP2 SWAP1 POP PUSH1 0x20 DUP3 ADD SWAP1 POP SWAP2 SWAP1 POP JUMP JUMPDEST PUSH0 DUP3 DUP3 MSTORE PUSH1 0x20 DUP3 ADD SWAP1 POP SWAP3 SWAP2 POP POP JUMP JUMPDEST PUSH0 PUSH2 0x28AB DUP3 PUSH2 0x1C79 JUMP JUMPDEST PUSH2 0x28B5 DUP2 DUP6 PUSH2 0x2891 JUMP JUMPDEST SWAP4 POP PUSH2 0x28C5 DUP2 DUP6 PUSH1 0x20 DUP7 ADD PUSH2 0x1C93 JUMP JUMPDEST PUSH2 0x28CE DUP2 PUSH2 0x1CA1 JUMP JUMPDEST DUP5 ADD SWAP2 POP POP SWAP3 SWAP2 POP POP JUMP JUMPDEST PUSH0 DUP2 MLOAD SWAP1 POP SWAP2 SWAP1 POP JUMP JUMPDEST PUSH0 DUP3 DUP3 MSTORE PUSH1 0x20 DUP3 ADD SWAP1 POP SWAP3 SWAP2 POP POP JUMP JUMPDEST PUSH0 PUSH2 0x28FD DUP3 PUSH2 0x28D9 JUMP JUMPDEST PUSH2 0x2907 DUP2 DUP6 PUSH2 0x28E3 JUMP JUMPDEST SWAP4 POP PUSH2 0x2917 DUP2 DUP6 PUSH1 0x20 DUP7 ADD PUSH2 0x1C93 JUMP JUMPDEST PUSH2 0x2920 DUP2 PUSH2 0x1CA1 JUMP JUMPDEST DUP5 ADD SWAP2 POP POP SWAP3 SWAP2 POP POP JUMP JUMPDEST PUSH0 PUSH1 0x60 DUP4 ADD PUSH0 DUP4 ADD MLOAD DUP5 DUP3 SUB PUSH0 DUP7 ADD MSTORE PUSH2 0x2945 DUP3 DUP3 PUSH2 0x28A1 JUMP JUMPDEST SWAP2 POP POP PUSH1 0x20 DUP4 ADD MLOAD DUP5 DUP3 SUB PUSH1 0x20 DUP7 ADD MSTORE PUSH2 0x295F DUP3 DUP3 PUSH2 0x28A1 JUMP JUMPDEST SWAP2 POP POP PUSH1 0x40 DUP4 ADD MLOAD DUP5 DUP3 SUB PUSH1 0x40 DUP7 ADD MSTORE PUSH2 0x2979 DUP3 DUP3 PUSH2 0x28F3 JUMP JUMPDEST SWAP2 POP POP DUP1 SWAP2 POP POP SWAP3 SWAP2 POP POP JUMP JUMPDEST PUSH0 PUSH2 0x2991 DUP4 DUP4 PUSH2 0x292B JUMP JUMPDEST SWAP1 POP SWAP3 SWAP2 POP POP JUMP JUMPDEST PUSH0 PUSH1 0x20 DUP3 ADD SWAP1 POP SWAP2 SWAP1 POP JUMP JUMPDEST PUSH0 PUSH2 0x29AF DUP3 PUSH2 0x2868 JUMP JUMPDEST PUSH2 0x29B9 DUP2 DUP6 PUSH2 0x2872 JUMP JUMPDEST SWAP4 POP DUP4 PUSH1 0x20 DUP3 MUL DUP6 ADD PUSH2 0x29CB DUP6 PUSH2 0x2882 JUMP JUMPDEST DUP1 PUSH0 JUMPDEST DUP6 DUP2 LT ISZERO PUSH2 0x2A06 JUMPI DUP5 DUP5 SUB DUP10 MSTORE DUP2 MLOAD PUSH2 0x29E7 DUP6 DUP3 PUSH2 0x2986 JUMP JUMPDEST SWAP5 POP PUSH2 0x29F2 DUP4 PUSH2 0x2999 JUMP JUMPDEST SWAP3 POP PUSH1 0x20 DUP11 ADD SWAP10 POP POP PUSH1 0x1 DUP2 ADD SWAP1 POP PUSH2 0x29CE JUMP JUMPDEST POP DUP3 SWAP8 POP DUP8 SWAP6 POP POP POP POP POP POP SWAP3 SWAP2 POP POP JUMP JUMPDEST PUSH0 PUSH1 0x40 DUP3 ADD SWAP1 POP DUP2 DUP2 SUB PUSH0 DUP4 ADD MSTORE PUSH2 0x2A2F DUP2 PUSH2 0x2846 JUMP JUMPDEST SWAP1 POP DUP2 DUP2 SUB PUSH1 0x20 DUP4 ADD MSTORE PUSH2 0x2A43 DUP2 DUP5 PUSH2 0x29A5 JUMP JUMPDEST SWAP1 POP SWAP3 SWAP2 POP POP JUMP JUMPDEST PUSH32 0x4469726563742057697468647261770000000000000000000000000000000000 PUSH0 DUP3 ADD MSTORE POP JUMP JUMPDEST PUSH0 PUSH2 0x2A7F PUSH1 0xF DUP4 PUSH2 0x1C83 JUMP JUMPDEST SWAP2 POP PUSH2 0x2A8A DUP3 PUSH2 0x2A4B JUMP JUMPDEST PUSH1 0x20 DUP3 ADD SWAP1 POP SWAP2 SWAP1 POP JUMP JUMPDEST PUSH0 PUSH1 0x40 DUP3 ADD SWAP1 POP DUP2 DUP2 SUB PUSH0 DUP4 ADD MSTORE PUSH2 0x2AAC DUP2 PUSH2 0x2A73 JUMP JUMPDEST SWAP1 POP DUP2 DUP2 SUB PUSH1 0x20 DUP4 ADD MSTORE PUSH2 0x2AC0 DUP2 DUP5 PUSH2 0x29A5 JUMP JUMPDEST SWAP1 POP SWAP3 SWAP2 POP POP JUMP JUMPDEST PUSH0 PUSH1 0x40 DUP3 ADD SWAP1 POP PUSH2 0x2ADB PUSH0 DUP4 ADD DUP6 PUSH2 0x26ED JUMP JUMPDEST DUP2 DUP2 SUB PUSH1 0x20 DUP4 ADD MSTORE PUSH2 0x2AED DUP2 DUP5 PUSH2 0x277D JUMP JUMPDEST SWAP1 POP SWAP4 SWAP3 POP POP POP JUMP JUMPDEST PUSH32 0x5661756C743A204465706F736974206D757374206265203E2030000000000000 PUSH0 DUP3 ADD MSTORE POP JUMP JUMPDEST PUSH0 PUSH2 0x2B2A PUSH1 0x1A DUP4 PUSH2 0x1C83 JUMP JUMPDEST SWAP2 POP PUSH2 0x2B35 DUP3 PUSH2 0x2AF6 JUMP JUMPDEST PUSH1 0x20 DUP3 ADD SWAP1 POP SWAP2 SWAP1 POP JUMP JUMPDEST PUSH0 PUSH1 0x20 DUP3 ADD SWAP1 POP DUP2 DUP2 SUB PUSH0 DUP4 ADD MSTORE PUSH2 0x2B57 DUP2 PUSH2 0x2B1E JUMP JUMPDEST SWAP1 POP SWAP2 SWAP1 POP JUMP JUMPDEST PUSH32 0x4465706F73697400000000000000000000000000000000000000000000000000 PUSH0 DUP3 ADD MSTORE POP JUMP JUMPDEST PUSH0 PUSH2 0x2B92 PUSH1 0x7 DUP4 PUSH2 0x1C83 JUMP JUMPDEST SWAP2 POP PUSH2 0x2B9D DUP3 PUSH2 0x2B5E JUMP JUMPDEST PUSH1 0x20 DUP3 ADD SWAP1 POP SWAP2 SWAP1 POP JUMP JUMPDEST PUSH0 PUSH1 0x40 DUP3 ADD SWAP1 POP DUP2 DUP2 SUB PUSH0 DUP4 ADD MSTORE PUSH2 0x2BBF DUP2 PUSH2 0x2B86 JUMP JUMPDEST SWAP1 POP DUP2 DUP2 SUB PUSH1 0x20 DUP4 ADD MSTORE PUSH2 0x2BD3 DUP2 DUP5 PUSH2 0x29A5 JUMP JUMPDEST SWAP1 POP SWAP3 SWAP2 POP POP JUMP INVALID LOG2 PUSH5 0x6970667358 0x22 SLT KECCAK256 0xC8 0xF 0xF STATICCALL PUSH1 0x88 PUSH18 0xD83DF6A10F2980762147417CA8AFA9730DD9 PUSH26 0xC472EBF7936B64736F6C634300081F0033000000000000000000 "
				},
				"gasEstimates": {
					"creation": {
						"codeDepositCost": "2256200",
						"executionCost": "infinite",
						"totalCost": "infinite"
					},
					"external": {
						"deposit(string,uint256)": "infinite",
						"directWithdraw(address,string,uint256,uint256)": "infinite",
						"events()": "infinite",
						"isSupportedToken(address)": "2878",
						"listNewToken(string)": "infinite",
						"m_withdraw(address,string,string,uint256)": "infinite",
						"owner()": "2514",
						"providerName()": "infinite",
						"renounceOwnership()": "infinite",
						"resolveAsset(string)": "infinite",
						"transferOwnership(address)": "infinite",
						"variablesRegistry()": "infinite"
					}
				},
				"methodIdentifiers": {
					"deposit(string,uint256)": "8e27d719",
					"directWithdraw(address,string,uint256,uint256)": "7a9eceb4",
					"events()": "b5f8558c",
					"isSupportedToken(address)": "240028e8",
					"listNewToken(string)": "f139721c",
					"m_withdraw(address,string,string,uint256)": "58104dbc",
					"owner()": "8da5cb5b",
					"providerName()": "00dad7d4",
					"renounceOwnership()": "715018a6",
					"resolveAsset(string)": "05d09fb1",
					"transferOwnership(address)": "f2fde38b",
					"variablesRegistry()": "bf4d766e"
				}
			},
			"storageLayout": {
				"storage": [
					{
						"astId": 8,
						"contract": "Evm/core/base/vault.sol:QiaraMultiAssetVault",
						"label": "_owner",
						"offset": 0,
						"slot": "0",
						"type": "t_address"
					},
					{
						"astId": 858,
						"contract": "Evm/core/base/vault.sol:QiaraMultiAssetVault",
						"label": "providerName",
						"offset": 0,
						"slot": "1",
						"type": "t_string_storage"
					},
					{
						"astId": 862,
						"contract": "Evm/core/base/vault.sol:QiaraMultiAssetVault",
						"label": "isSupportedToken",
						"offset": 0,
						"slot": "2",
						"type": "t_mapping(t_address,t_bool)"
					}
				],
				"types": {
					"t_address": {
						"encoding": "inplace",
						"label": "address",
						"numberOfBytes": "20"
					},
					"t_bool": {
						"encoding": "inplace",
						"label": "bool",
						"numberOfBytes": "1"
					},
					"t_mapping(t_address,t_bool)": {
						"encoding": "mapping",
						"key": "t_address",
						"label": "mapping(address => bool)",
						"numberOfBytes": "32",
						"value": "t_bool"
					},
					"t_string_storage": {
						"encoding": "bytes",
						"label": "string",
						"numberOfBytes": "32"
					}
				}
			},
			"userdoc": {
				"kind": "user",
				"methods": {},
				"version": 1
			}
		}
	}
}