{
	"Evm/interfaces/perp_oders.sol": {
		"PerpOrdersInterface": {
			"abi": [
				{
					"inputs": [
						{
							"internalType": "address",
							"name": "_events",
							"type": "address"
						}
					],
					"stateMutability": "nonpayable",
					"type": "constructor"
				},
				{
					"inputs": [],
					"name": "events",
					"outputs": [
						{
							"internalType": "contract IEvents",
							"name": "",
							"type": "address"
						}
					],
					"stateMutability": "view",
					"type": "function"
				},
				{
					"inputs": [
						{
							"internalType": "bytes",
							"name": "user",
							"type": "bytes"
						},
						{
							"internalType": "string",
							"name": "shared",
							"type": "string"
						},
						{
							"internalType": "string",
							"name": "asset",
							"type": "string"
						},
						{
							"internalType": "uint64",
							"name": "size",
							"type": "uint64"
						},
						{
							"internalType": "uint128",
							"name": "desired_price",
							"type": "uint128"
						},
						{
							"internalType": "bool",
							"name": "isLong",
							"type": "bool"
						},
						{
							"internalType": "uint32",
							"name": "leverage",
							"type": "uint32"
						},
						{
							"internalType": "string",
							"name": "reserve_chain",
							"type": "string"
						},
						{
							"internalType": "string",
							"name": "reserve_provider",
							"type": "string"
						},
						{
							"internalType": "string",
							"name": "reserve_token",
							"type": "string"
						}
					],
					"name": "p_create_limit_order",
					"outputs": [],
					"stateMutability": "nonpayable",
					"type": "function"
				},
				{
					"inputs": [
						{
							"internalType": "bytes",
							"name": "user",
							"type": "bytes"
						},
						{
							"internalType": "string",
							"name": "shared",
							"type": "string"
						},
						{
							"internalType": "string",
							"name": "asset",
							"type": "string"
						},
						{
							"internalType": "uint64[]",
							"name": "periods",
							"type": "uint64[]"
						},
						{
							"internalType": "uint64[]",
							"name": "sizes",
							"type": "uint64[]"
						},
						{
							"internalType": "uint128",
							"name": "desired_price",
							"type": "uint128"
						},
						{
							"internalType": "bool",
							"name": "isLong",
							"type": "bool"
						},
						{
							"internalType": "uint32",
							"name": "leverage",
							"type": "uint32"
						},
						{
							"internalType": "string",
							"name": "reserve_chain",
							"type": "string"
						},
						{
							"internalType": "string",
							"name": "reserve_provider",
							"type": "string"
						},
						{
							"internalType": "string",
							"name": "reserve_token",
							"type": "string"
						}
					],
					"name": "p_create_twap_order",
					"outputs": [],
					"stateMutability": "nonpayable",
					"type": "function"
				},
				{
					"inputs": [
						{
							"internalType": "bytes",
							"name": "user",
							"type": "bytes"
						},
						{
							"internalType": "string",
							"name": "shared",
							"type": "string"
						},
						{
							"internalType": "uint64",
							"name": "id",
							"type": "uint64"
						}
					],
					"name": "p_remove_limit_order",
					"outputs": [],
					"stateMutability": "nonpayable",
					"type": "function"
				},
				{
					"inputs": [
						{
							"internalType": "bytes",
							"name": "user",
							"type": "bytes"
						},
						{
							"internalType": "string",
							"name": "shared",
							"type": "string"
						},
						{
							"internalType": "uint64",
							"name": "id",
							"type": "uint64"
						}
					],
					"name": "p_remove_twap_order",
					"outputs": [],
					"stateMutability": "nonpayable",
					"type": "function"
				}
			],
			"devdoc": {
				"kind": "dev",
				"methods": {},
				"version": 1
			},
			"evm": {
				"assembly": "    /* \"Evm/interfaces/perp_oders.sol\":417:5951  contract PerpOrdersInterface {... */\n  mstore(0x40, 0xa0)\n    /* \"Evm/interfaces/perp_oders.sol\":495:568  constructor(address _events) {... */\n  callvalue\n  dup1\n  iszero\n  tag_1\n  jumpi\n  revert(0x00, 0x00)\ntag_1:\n  pop\n  mload(0x40)\n  sub(codesize, bytecodeSize)\n  dup1\n  bytecodeSize\n  dup4\n  codecopy\n  dup2\n  dup2\n  add\n  0x40\n  mstore\n  dup2\n  add\n  swap1\n  tag_2\n  swap2\n  swap1\n  tag_3\n  jump\t// in\ntag_2:\n    /* \"Evm/interfaces/perp_oders.sol\":552:559  _events */\n  dup1\n    /* \"Evm/interfaces/perp_oders.sol\":535:560  events = IEvents(_events) */\n  0xffffffffffffffffffffffffffffffffffffffff\n  and\n  0x80\n  dup2\n  0xffffffffffffffffffffffffffffffffffffffff\n  and\n  dup2\n  mstore\n  pop\n  pop\n    /* \"Evm/interfaces/perp_oders.sol\":495:568  constructor(address _events) {... */\n  pop\n    /* \"Evm/interfaces/perp_oders.sol\":417:5951  contract PerpOrdersInterface {... */\n  jump(tag_6)\n    /* \"#utility.yul\":88:205   */\ntag_8:\n    /* \"#utility.yul\":197:198   */\n  0x00\n    /* \"#utility.yul\":194:195   */\n  0x00\n    /* \"#utility.yul\":187:199   */\n  revert\n    /* \"#utility.yul\":334:460   */\ntag_10:\n    /* \"#utility.yul\":371:378   */\n  0x00\n    /* \"#utility.yul\":411:453   */\n  0xffffffffffffffffffffffffffffffffffffffff\n    /* \"#utility.yul\":404:409   */\n  dup3\n    /* \"#utility.yul\":400:454   */\n  and\n    /* \"#utility.yul\":389:454   */\n  swap1\n  pop\n    /* \"#utility.yul\":334:460   */\n  swap2\n  swap1\n  pop\n  jump\t// out\n    /* \"#utility.yul\":466:562   */\ntag_11:\n    /* \"#utility.yul\":503:510   */\n  0x00\n    /* \"#utility.yul\":532:556   */\n  tag_20\n    /* \"#utility.yul\":550:555   */\n  dup3\n    /* \"#utility.yul\":532:556   */\n  tag_10\n  jump\t// in\ntag_20:\n    /* \"#utility.yul\":521:556   */\n  swap1\n  pop\n    /* \"#utility.yul\":466:562   */\n  swap2\n  swap1\n  pop\n  jump\t// out\n    /* \"#utility.yul\":568:690   */\ntag_12:\n    /* \"#utility.yul\":641:665   */\n  tag_22\n    /* \"#utility.yul\":659:664   */\n  dup2\n    /* \"#utility.yul\":641:665   */\n  tag_11\n  jump\t// in\ntag_22:\n    /* \"#utility.yul\":634:639   */\n  dup2\n    /* \"#utility.yul\":631:666   */\n  eq\n    /* \"#utility.yul\":621:684   */\n  tag_23\n  jumpi\n    /* \"#utility.yul\":680:681   */\n  0x00\n    /* \"#utility.yul\":677:678   */\n  0x00\n    /* \"#utility.yul\":670:682   */\n  revert\n    /* \"#utility.yul\":621:684   */\ntag_23:\n    /* \"#utility.yul\":568:690   */\n  pop\n  jump\t// out\n    /* \"#utility.yul\":696:839   */\ntag_13:\n    /* \"#utility.yul\":753:758   */\n  0x00\n    /* \"#utility.yul\":784:790   */\n  dup2\n    /* \"#utility.yul\":778:791   */\n  mload\n    /* \"#utility.yul\":769:791   */\n  swap1\n  pop\n    /* \"#utility.yul\":800:833   */\n  tag_25\n    /* \"#utility.yul\":827:832   */\n  dup2\n    /* \"#utility.yul\":800:833   */\n  tag_12\n  jump\t// in\ntag_25:\n    /* \"#utility.yul\":696:839   */\n  swap3\n  swap2\n  pop\n  pop\n  jump\t// out\n    /* \"#utility.yul\":845:1196   */\ntag_3:\n    /* \"#utility.yul\":915:921   */\n  0x00\n    /* \"#utility.yul\":964:966   */\n  0x20\n    /* \"#utility.yul\":952:961   */\n  dup3\n    /* \"#utility.yul\":943:950   */\n  dup5\n    /* \"#utility.yul\":939:962   */\n  sub\n    /* \"#utility.yul\":935:967   */\n  slt\n    /* \"#utility.yul\":932:1051   */\n  iszero\n  tag_27\n  jumpi\n    /* \"#utility.yul\":970:1049   */\n  tag_28\n  tag_8\n  jump\t// in\ntag_28:\n    /* \"#utility.yul\":932:1051   */\ntag_27:\n    /* \"#utility.yul\":1090:1091   */\n  0x00\n    /* \"#utility.yul\":1115:1179   */\n  tag_29\n    /* \"#utility.yul\":1171:1178   */\n  dup5\n    /* \"#utility.yul\":1162:1168   */\n  dup3\n    /* \"#utility.yul\":1151:1160   */\n  dup6\n    /* \"#utility.yul\":1147:1169   */\n  add\n    /* \"#utility.yul\":1115:1179   */\n  tag_13\n  jump\t// in\ntag_29:\n    /* \"#utility.yul\":1105:1179   */\n  swap2\n  pop\n    /* \"#utility.yul\":1061:1189   */\n  pop\n    /* \"#utility.yul\":845:1196   */\n  swap3\n  swap2\n  pop\n  pop\n  jump\t// out\n    /* \"Evm/interfaces/perp_oders.sol\":417:5951  contract PerpOrdersInterface {... */\ntag_6:\n  mload(0x80)\n  codecopy(0x00, dataOffset(sub_0), dataSize(sub_0))\n  0x00\n  assignImmutable(\"0x6d6142e7bc5885f8a3af14e4530d0fef2107c35d29b4827380ff447a51b70068\")\n  return(0x00, dataSize(sub_0))\nstop\n\nsub_0: assembly {\n        /* \"Evm/interfaces/perp_oders.sol\":417:5951  contract PerpOrdersInterface {... */\n      mstore(0x40, 0x80)\n      callvalue\n      dup1\n      iszero\n      tag_1\n      jumpi\n      revert(0x00, 0x00)\n    tag_1:\n      pop\n      jumpi(tag_2, lt(calldatasize, 0x04))\n      shr(0xe0, calldataload(0x00))\n      dup1\n      0x859b5d\n      eq\n      tag_3\n      jumpi\n      dup1\n      0xb0fd93d7\n      eq\n      tag_4\n      jumpi\n      dup1\n      0xb5f8558c\n      eq\n      tag_5\n      jumpi\n      dup1\n      0xc5bf2798\n      eq\n      tag_6\n      jumpi\n      dup1\n      0xcc301111\n      eq\n      tag_7\n      jumpi\n    tag_2:\n      revert(0x00, 0x00)\n        /* \"Evm/interfaces/perp_oders.sol\":3628:4107  function p_remove_twap_order(... */\n    tag_3:\n      tag_8\n      0x04\n      dup1\n      calldatasize\n      sub\n      dup2\n      add\n      swap1\n      tag_9\n      swap2\n      swap1\n      tag_10\n      jump\t// in\n    tag_9:\n      tag_11\n      jump\t// in\n    tag_8:\n      stop\n        /* \"Evm/interfaces/perp_oders.sol\":3139:3620  function p_remove_limit_order(... */\n    tag_4:\n      tag_12\n      0x04\n      dup1\n      calldatasize\n      sub\n      dup2\n      add\n      swap1\n      tag_13\n      swap2\n      swap1\n      tag_10\n      jump\t// in\n    tag_13:\n      tag_14\n      jump\t// in\n    tag_12:\n      stop\n        /* \"Evm/interfaces/perp_oders.sol\":455:486  IEvents public immutable events */\n    tag_5:\n      tag_15\n      tag_16\n      jump\t// in\n    tag_15:\n      mload(0x40)\n      tag_17\n      swap2\n      swap1\n      tag_18\n      jump\t// in\n    tag_17:\n      mload(0x40)\n      dup1\n      swap2\n      sub\n      swap1\n      return\n        /* \"Evm/interfaces/perp_oders.sol\":713:1863  function p_create_limit_order(... */\n    tag_6:\n      tag_19\n      0x04\n      dup1\n      calldatasize\n      sub\n      dup2\n      add\n      swap1\n      tag_20\n      swap2\n      swap1\n      tag_21\n      jump\t// in\n    tag_20:\n      tag_22\n      jump\t// in\n    tag_19:\n      stop\n        /* \"Evm/interfaces/perp_oders.sol\":1871:3131  function p_create_twap_order(... */\n    tag_7:\n      tag_23\n      0x04\n      dup1\n      calldatasize\n      sub\n      dup2\n      add\n      swap1\n      tag_24\n      swap2\n      swap1\n      tag_25\n      jump\t// in\n    tag_24:\n      tag_26\n      jump\t// in\n    tag_23:\n      stop\n        /* \"Evm/interfaces/perp_oders.sol\":3628:4107  function p_remove_twap_order(... */\n    tag_11:\n        /* \"Evm/interfaces/perp_oders.sol\":3763:3794  IEvents.Data[] memory eventData */\n      0x00\n        /* \"Evm/interfaces/perp_oders.sol\":3816:3817  4 */\n      0x04\n        /* \"Evm/interfaces/perp_oders.sol\":3797:3818  new IEvents.Data[](4) */\n      0xffffffffffffffff\n      dup2\n      gt\n      iszero\n      tag_28\n      jumpi\n      tag_29\n      tag_30\n      jump\t// in\n    tag_29:\n    tag_28:\n      mload(0x40)\n      swap1\n      dup1\n      dup3\n      mstore\n      dup1\n      0x20\n      mul\n      0x20\n      add\n      dup3\n      add\n      0x40\n      mstore\n      dup1\n      iszero\n      tag_31\n      jumpi\n      dup2\n      0x20\n      add\n    tag_32:\n      tag_33\n      tag_34\n      jump\t// in\n    tag_33:\n      dup2\n      mstore\n      0x20\n      add\n      swap1\n      0x01\n      swap1\n      sub\n      swap1\n      dup2\n      tag_32\n      jumpi\n      swap1\n      pop\n    tag_31:\n      pop\n        /* \"Evm/interfaces/perp_oders.sol\":3763:3818  IEvents.Data[] memory eventData = new IEvents.Data[](4) */\n      swap1\n      pop\n        /* \"Evm/interfaces/perp_oders.sol\":3831:3878  _addAddress(eventData, 0, \"sender\", msg.sender) */\n      tag_35\n        /* \"Evm/interfaces/perp_oders.sol\":3843:3852  eventData */\n      dup2\n        /* \"Evm/interfaces/perp_oders.sol\":3854:3855  0 */\n      0x00\n        /* \"Evm/interfaces/perp_oders.sol\":3831:3878  _addAddress(eventData, 0, \"sender\", msg.sender) */\n      mload(0x40)\n      dup1\n      0x40\n      add\n      0x40\n      mstore\n      dup1\n      0x06\n      dup2\n      mstore\n      0x20\n      add\n      0x73656e6465720000000000000000000000000000000000000000000000000000\n      dup2\n      mstore\n      pop\n        /* \"Evm/interfaces/perp_oders.sol\":3867:3877  msg.sender */\n      caller\n        /* \"Evm/interfaces/perp_oders.sol\":3831:3842  _addAddress */\n      tag_36\n        /* \"Evm/interfaces/perp_oders.sol\":3831:3878  _addAddress(eventData, 0, \"sender\", msg.sender) */\n      jump\t// in\n    tag_35:\n        /* \"Evm/interfaces/perp_oders.sol\":3889:3926  _addBytes(eventData, 1, \"user\", user) */\n      tag_37\n        /* \"Evm/interfaces/perp_oders.sol\":3899:3908  eventData */\n      dup2\n        /* \"Evm/interfaces/perp_oders.sol\":3910:3911  1 */\n      0x01\n        /* \"Evm/interfaces/perp_oders.sol\":3889:3926  _addBytes(eventData, 1, \"user\", user) */\n      mload(0x40)\n      dup1\n      0x40\n      add\n      0x40\n      mstore\n      dup1\n      0x04\n      dup2\n      mstore\n      0x20\n      add\n      0x7573657200000000000000000000000000000000000000000000000000000000\n      dup2\n      mstore\n      pop\n        /* \"Evm/interfaces/perp_oders.sol\":3921:3925  user */\n      dup8\n        /* \"Evm/interfaces/perp_oders.sol\":3889:3898  _addBytes */\n      tag_38\n        /* \"Evm/interfaces/perp_oders.sol\":3889:3926  _addBytes(eventData, 1, \"user\", user) */\n      jump\t// in\n    tag_37:\n        /* \"Evm/interfaces/perp_oders.sol\":3937:3979  _addString(eventData, 2, \"shared\", shared) */\n      tag_39\n        /* \"Evm/interfaces/perp_oders.sol\":3948:3957  eventData */\n      dup2\n        /* \"Evm/interfaces/perp_oders.sol\":3959:3960  2 */\n      0x02\n        /* \"Evm/interfaces/perp_oders.sol\":3937:3979  _addString(eventData, 2, \"shared\", shared) */\n      mload(0x40)\n      dup1\n      0x40\n      add\n      0x40\n      mstore\n      dup1\n      0x06\n      dup2\n      mstore\n      0x20\n      add\n      0x7368617265640000000000000000000000000000000000000000000000000000\n      dup2\n      mstore\n      pop\n        /* \"Evm/interfaces/perp_oders.sol\":3972:3978  shared */\n      dup7\n        /* \"Evm/interfaces/perp_oders.sol\":3937:3947  _addString */\n      tag_40\n        /* \"Evm/interfaces/perp_oders.sol\":3937:3979  _addString(eventData, 2, \"shared\", shared) */\n      jump\t// in\n    tag_39:\n        /* \"Evm/interfaces/perp_oders.sol\":3990:4024  _addUint64(eventData, 3, \"id\", id) */\n      tag_41\n        /* \"Evm/interfaces/perp_oders.sol\":4001:4010  eventData */\n      dup2\n        /* \"Evm/interfaces/perp_oders.sol\":4012:4013  3 */\n      0x03\n        /* \"Evm/interfaces/perp_oders.sol\":3990:4024  _addUint64(eventData, 3, \"id\", id) */\n      mload(0x40)\n      dup1\n      0x40\n      add\n      0x40\n      mstore\n      dup1\n      0x02\n      dup2\n      mstore\n      0x20\n      add\n      0x6964000000000000000000000000000000000000000000000000000000000000\n      dup2\n      mstore\n      pop\n        /* \"Evm/interfaces/perp_oders.sol\":4021:4023  id */\n      dup6\n        /* \"Evm/interfaces/perp_oders.sol\":3990:4000  _addUint64 */\n      tag_42\n        /* \"Evm/interfaces/perp_oders.sol\":3990:4024  _addUint64(eventData, 3, \"id\", id) */\n      jump\t// in\n    tag_41:\n        /* \"Evm/interfaces/perp_oders.sol\":4037:4043  events */\n      immutable(\"0x6d6142e7bc5885f8a3af14e4530d0fef2107c35d29b4827380ff447a51b70068\")\n        /* \"Evm/interfaces/perp_oders.sol\":4037:4058  events.emitVaultEvent */\n      0xffffffffffffffffffffffffffffffffffffffff\n      and\n      0x7d64fa9b\n        /* \"Evm/interfaces/perp_oders.sol\":4089:4098  eventData */\n      dup3\n        /* \"Evm/interfaces/perp_oders.sol\":4037:4099  events.emitVaultEvent(\"Modular TWAP Order Deleted\", eventData) */\n      mload(0x40)\n      dup3\n      0xffffffff\n      and\n      0xe0\n      shl\n      dup2\n      mstore\n      0x04\n      add\n      tag_43\n      swap2\n      swap1\n      tag_44\n      jump\t// in\n    tag_43:\n      0x00\n      mload(0x40)\n      dup1\n      dup4\n      sub\n      dup2\n      0x00\n      dup8\n      dup1\n      extcodesize\n      iszero\n      dup1\n      iszero\n      tag_45\n      jumpi\n      revert(0x00, 0x00)\n    tag_45:\n      pop\n      gas\n      call\n      iszero\n      dup1\n      iszero\n      tag_47\n      jumpi\n      returndatacopy(0x00, 0x00, returndatasize)\n      revert(0x00, returndatasize)\n    tag_47:\n      pop\n      pop\n      pop\n      pop\n        /* \"Evm/interfaces/perp_oders.sol\":3752:4107  {... */\n      pop\n        /* \"Evm/interfaces/perp_oders.sol\":3628:4107  function p_remove_twap_order(... */\n      pop\n      pop\n      pop\n      jump\t// out\n        /* \"Evm/interfaces/perp_oders.sol\":3139:3620  function p_remove_limit_order(... */\n    tag_14:\n        /* \"Evm/interfaces/perp_oders.sol\":3275:3306  IEvents.Data[] memory eventData */\n      0x00\n        /* \"Evm/interfaces/perp_oders.sol\":3328:3329  4 */\n      0x04\n        /* \"Evm/interfaces/perp_oders.sol\":3309:3330  new IEvents.Data[](4) */\n      0xffffffffffffffff\n      dup2\n      gt\n      iszero\n      tag_49\n      jumpi\n      tag_50\n      tag_30\n      jump\t// in\n    tag_50:\n    tag_49:\n      mload(0x40)\n      swap1\n      dup1\n      dup3\n      mstore\n      dup1\n      0x20\n      mul\n      0x20\n      add\n      dup3\n      add\n      0x40\n      mstore\n      dup1\n      iszero\n      tag_51\n      jumpi\n      dup2\n      0x20\n      add\n    tag_52:\n      tag_53\n      tag_34\n      jump\t// in\n    tag_53:\n      dup2\n      mstore\n      0x20\n      add\n      swap1\n      0x01\n      swap1\n      sub\n      swap1\n      dup2\n      tag_52\n      jumpi\n      swap1\n      pop\n    tag_51:\n      pop\n        /* \"Evm/interfaces/perp_oders.sol\":3275:3330  IEvents.Data[] memory eventData = new IEvents.Data[](4) */\n      swap1\n      pop\n        /* \"Evm/interfaces/perp_oders.sol\":3343:3390  _addAddress(eventData, 0, \"sender\", msg.sender) */\n      tag_54\n        /* \"Evm/interfaces/perp_oders.sol\":3355:3364  eventData */\n      dup2\n        /* \"Evm/interfaces/perp_oders.sol\":3366:3367  0 */\n      0x00\n        /* \"Evm/interfaces/perp_oders.sol\":3343:3390  _addAddress(eventData, 0, \"sender\", msg.sender) */\n      mload(0x40)\n      dup1\n      0x40\n      add\n      0x40\n      mstore\n      dup1\n      0x06\n      dup2\n      mstore\n      0x20\n      add\n      0x73656e6465720000000000000000000000000000000000000000000000000000\n      dup2\n      mstore\n      pop\n        /* \"Evm/interfaces/perp_oders.sol\":3379:3389  msg.sender */\n      caller\n        /* \"Evm/interfaces/perp_oders.sol\":3343:3354  _addAddress */\n      tag_36\n        /* \"Evm/interfaces/perp_oders.sol\":3343:3390  _addAddress(eventData, 0, \"sender\", msg.sender) */\n      jump\t// in\n    tag_54:\n        /* \"Evm/interfaces/perp_oders.sol\":3401:3438  _addBytes(eventData, 1, \"user\", user) */\n      tag_55\n        /* \"Evm/interfaces/perp_oders.sol\":3411:3420  eventData */\n      dup2\n        /* \"Evm/interfaces/perp_oders.sol\":3422:3423  1 */\n      0x01\n        /* \"Evm/interfaces/perp_oders.sol\":3401:3438  _addBytes(eventData, 1, \"user\", user) */\n      mload(0x40)\n      dup1\n      0x40\n      add\n      0x40\n      mstore\n      dup1\n      0x04\n      dup2\n      mstore\n      0x20\n      add\n      0x7573657200000000000000000000000000000000000000000000000000000000\n      dup2\n      mstore\n      pop\n        /* \"Evm/interfaces/perp_oders.sol\":3433:3437  user */\n      dup8\n        /* \"Evm/interfaces/perp_oders.sol\":3401:3410  _addBytes */\n      tag_38\n        /* \"Evm/interfaces/perp_oders.sol\":3401:3438  _addBytes(eventData, 1, \"user\", user) */\n      jump\t// in\n    tag_55:\n        /* \"Evm/interfaces/perp_oders.sol\":3449:3491  _addString(eventData, 2, \"shared\", shared) */\n      tag_56\n        /* \"Evm/interfaces/perp_oders.sol\":3460:3469  eventData */\n      dup2\n        /* \"Evm/interfaces/perp_oders.sol\":3471:3472  2 */\n      0x02\n        /* \"Evm/interfaces/perp_oders.sol\":3449:3491  _addString(eventData, 2, \"shared\", shared) */\n      mload(0x40)\n      dup1\n      0x40\n      add\n      0x40\n      mstore\n      dup1\n      0x06\n      dup2\n      mstore\n      0x20\n      add\n      0x7368617265640000000000000000000000000000000000000000000000000000\n      dup2\n      mstore\n      pop\n        /* \"Evm/interfaces/perp_oders.sol\":3484:3490  shared */\n      dup7\n        /* \"Evm/interfaces/perp_oders.sol\":3449:3459  _addString */\n      tag_40\n        /* \"Evm/interfaces/perp_oders.sol\":3449:3491  _addString(eventData, 2, \"shared\", shared) */\n      jump\t// in\n    tag_56:\n        /* \"Evm/interfaces/perp_oders.sol\":3502:3536  _addUint64(eventData, 3, \"id\", id) */\n      tag_57\n        /* \"Evm/interfaces/perp_oders.sol\":3513:3522  eventData */\n      dup2\n        /* \"Evm/interfaces/perp_oders.sol\":3524:3525  3 */\n      0x03\n        /* \"Evm/interfaces/perp_oders.sol\":3502:3536  _addUint64(eventData, 3, \"id\", id) */\n      mload(0x40)\n      dup1\n      0x40\n      add\n      0x40\n      mstore\n      dup1\n      0x02\n      dup2\n      mstore\n      0x20\n      add\n      0x6964000000000000000000000000000000000000000000000000000000000000\n      dup2\n      mstore\n      pop\n        /* \"Evm/interfaces/perp_oders.sol\":3533:3535  id */\n      dup6\n        /* \"Evm/interfaces/perp_oders.sol\":3502:3512  _addUint64 */\n      tag_42\n        /* \"Evm/interfaces/perp_oders.sol\":3502:3536  _addUint64(eventData, 3, \"id\", id) */\n      jump\t// in\n    tag_57:\n        /* \"Evm/interfaces/perp_oders.sol\":3549:3555  events */\n      immutable(\"0x6d6142e7bc5885f8a3af14e4530d0fef2107c35d29b4827380ff447a51b70068\")\n        /* \"Evm/interfaces/perp_oders.sol\":3549:3570  events.emitVaultEvent */\n      0xffffffffffffffffffffffffffffffffffffffff\n      and\n      0x7d64fa9b\n        /* \"Evm/interfaces/perp_oders.sol\":3602:3611  eventData */\n      dup3\n        /* \"Evm/interfaces/perp_oders.sol\":3549:3612  events.emitVaultEvent(\"Modular Limit Order Deleted\", eventData) */\n      mload(0x40)\n      dup3\n      0xffffffff\n      and\n      0xe0\n      shl\n      dup2\n      mstore\n      0x04\n      add\n      tag_58\n      swap2\n      swap1\n      tag_59\n      jump\t// in\n    tag_58:\n      0x00\n      mload(0x40)\n      dup1\n      dup4\n      sub\n      dup2\n      0x00\n      dup8\n      dup1\n      extcodesize\n      iszero\n      dup1\n      iszero\n      tag_60\n      jumpi\n      revert(0x00, 0x00)\n    tag_60:\n      pop\n      gas\n      call\n      iszero\n      dup1\n      iszero\n      tag_62\n      jumpi\n      returndatacopy(0x00, 0x00, returndatasize)\n      revert(0x00, returndatasize)\n    tag_62:\n      pop\n      pop\n      pop\n      pop\n        /* \"Evm/interfaces/perp_oders.sol\":3264:3620  {... */\n      pop\n        /* \"Evm/interfaces/perp_oders.sol\":3139:3620  function p_remove_limit_order(... */\n      pop\n      pop\n      pop\n      jump\t// out\n        /* \"Evm/interfaces/perp_oders.sol\":455:486  IEvents public immutable events */\n    tag_16:\n      immutable(\"0x6d6142e7bc5885f8a3af14e4530d0fef2107c35d29b4827380ff447a51b70068\")\n      dup2\n      jump\t// out\n        /* \"Evm/interfaces/perp_oders.sol\":713:1863  function p_create_limit_order(... */\n    tag_22:\n        /* \"Evm/interfaces/perp_oders.sol\":1078:1109  IEvents.Data[] memory eventData */\n      0x00\n        /* \"Evm/interfaces/perp_oders.sol\":1131:1133  11 */\n      0x0b\n        /* \"Evm/interfaces/perp_oders.sol\":1112:1134  new IEvents.Data[](11) */\n      0xffffffffffffffff\n      dup2\n      gt\n      iszero\n      tag_64\n      jumpi\n      tag_65\n      tag_30\n      jump\t// in\n    tag_65:\n    tag_64:\n      mload(0x40)\n      swap1\n      dup1\n      dup3\n      mstore\n      dup1\n      0x20\n      mul\n      0x20\n      add\n      dup3\n      add\n      0x40\n      mstore\n      dup1\n      iszero\n      tag_66\n      jumpi\n      dup2\n      0x20\n      add\n    tag_67:\n      tag_68\n      tag_34\n      jump\t// in\n    tag_68:\n      dup2\n      mstore\n      0x20\n      add\n      swap1\n      0x01\n      swap1\n      sub\n      swap1\n      dup2\n      tag_67\n      jumpi\n      swap1\n      pop\n    tag_66:\n      pop\n        /* \"Evm/interfaces/perp_oders.sol\":1078:1134  IEvents.Data[] memory eventData = new IEvents.Data[](11) */\n      swap1\n      pop\n        /* \"Evm/interfaces/perp_oders.sol\":1147:1194  _addAddress(eventData, 0, \"sender\", msg.sender) */\n      tag_69\n        /* \"Evm/interfaces/perp_oders.sol\":1159:1168  eventData */\n      dup2\n        /* \"Evm/interfaces/perp_oders.sol\":1170:1171  0 */\n      0x00\n        /* \"Evm/interfaces/perp_oders.sol\":1147:1194  _addAddress(eventData, 0, \"sender\", msg.sender) */\n      mload(0x40)\n      dup1\n      0x40\n      add\n      0x40\n      mstore\n      dup1\n      0x06\n      dup2\n      mstore\n      0x20\n      add\n      0x73656e6465720000000000000000000000000000000000000000000000000000\n      dup2\n      mstore\n      pop\n        /* \"Evm/interfaces/perp_oders.sol\":1183:1193  msg.sender */\n      caller\n        /* \"Evm/interfaces/perp_oders.sol\":1147:1158  _addAddress */\n      tag_36\n        /* \"Evm/interfaces/perp_oders.sol\":1147:1194  _addAddress(eventData, 0, \"sender\", msg.sender) */\n      jump\t// in\n    tag_69:\n        /* \"Evm/interfaces/perp_oders.sol\":1205:1242  _addBytes(eventData, 1, \"user\", user) */\n      tag_70\n        /* \"Evm/interfaces/perp_oders.sol\":1215:1224  eventData */\n      dup2\n        /* \"Evm/interfaces/perp_oders.sol\":1226:1227  1 */\n      0x01\n        /* \"Evm/interfaces/perp_oders.sol\":1205:1242  _addBytes(eventData, 1, \"user\", user) */\n      mload(0x40)\n      dup1\n      0x40\n      add\n      0x40\n      mstore\n      dup1\n      0x04\n      dup2\n      mstore\n      0x20\n      add\n      0x7573657200000000000000000000000000000000000000000000000000000000\n      dup2\n      mstore\n      pop\n        /* \"Evm/interfaces/perp_oders.sol\":1237:1241  user */\n      dup15\n        /* \"Evm/interfaces/perp_oders.sol\":1205:1214  _addBytes */\n      tag_38\n        /* \"Evm/interfaces/perp_oders.sol\":1205:1242  _addBytes(eventData, 1, \"user\", user) */\n      jump\t// in\n    tag_70:\n        /* \"Evm/interfaces/perp_oders.sol\":1253:1295  _addString(eventData, 2, \"shared\", shared) */\n      tag_71\n        /* \"Evm/interfaces/perp_oders.sol\":1264:1273  eventData */\n      dup2\n        /* \"Evm/interfaces/perp_oders.sol\":1275:1276  2 */\n      0x02\n        /* \"Evm/interfaces/perp_oders.sol\":1253:1295  _addString(eventData, 2, \"shared\", shared) */\n      mload(0x40)\n      dup1\n      0x40\n      add\n      0x40\n      mstore\n      dup1\n      0x06\n      dup2\n      mstore\n      0x20\n      add\n      0x7368617265640000000000000000000000000000000000000000000000000000\n      dup2\n      mstore\n      pop\n        /* \"Evm/interfaces/perp_oders.sol\":1288:1294  shared */\n      dup14\n        /* \"Evm/interfaces/perp_oders.sol\":1253:1263  _addString */\n      tag_40\n        /* \"Evm/interfaces/perp_oders.sol\":1253:1295  _addString(eventData, 2, \"shared\", shared) */\n      jump\t// in\n    tag_71:\n        /* \"Evm/interfaces/perp_oders.sol\":1306:1346  _addString(eventData, 3, \"asset\", asset) */\n      tag_72\n        /* \"Evm/interfaces/perp_oders.sol\":1317:1326  eventData */\n      dup2\n        /* \"Evm/interfaces/perp_oders.sol\":1328:1329  3 */\n      0x03\n        /* \"Evm/interfaces/perp_oders.sol\":1306:1346  _addString(eventData, 3, \"asset\", asset) */\n      mload(0x40)\n      dup1\n      0x40\n      add\n      0x40\n      mstore\n      dup1\n      0x05\n      dup2\n      mstore\n      0x20\n      add\n      0x6173736574000000000000000000000000000000000000000000000000000000\n      dup2\n      mstore\n      pop\n        /* \"Evm/interfaces/perp_oders.sol\":1340:1345  asset */\n      dup13\n        /* \"Evm/interfaces/perp_oders.sol\":1306:1316  _addString */\n      tag_40\n        /* \"Evm/interfaces/perp_oders.sol\":1306:1346  _addString(eventData, 3, \"asset\", asset) */\n      jump\t// in\n    tag_72:\n        /* \"Evm/interfaces/perp_oders.sol\":1357:1395  _addUint64(eventData, 4, \"size\", size) */\n      tag_73\n        /* \"Evm/interfaces/perp_oders.sol\":1368:1377  eventData */\n      dup2\n        /* \"Evm/interfaces/perp_oders.sol\":1379:1380  4 */\n      0x04\n        /* \"Evm/interfaces/perp_oders.sol\":1357:1395  _addUint64(eventData, 4, \"size\", size) */\n      mload(0x40)\n      dup1\n      0x40\n      add\n      0x40\n      mstore\n      dup1\n      0x04\n      dup2\n      mstore\n      0x20\n      add\n      0x73697a6500000000000000000000000000000000000000000000000000000000\n      dup2\n      mstore\n      pop\n        /* \"Evm/interfaces/perp_oders.sol\":1390:1394  size */\n      dup12\n        /* \"Evm/interfaces/perp_oders.sol\":1357:1367  _addUint64 */\n      tag_42\n        /* \"Evm/interfaces/perp_oders.sol\":1357:1395  _addUint64(eventData, 4, \"size\", size) */\n      jump\t// in\n    tag_73:\n        /* \"Evm/interfaces/perp_oders.sol\":1406:1452  _addUint32(eventData, 5, \"leverage\", leverage) */\n      tag_74\n        /* \"Evm/interfaces/perp_oders.sol\":1417:1426  eventData */\n      dup2\n        /* \"Evm/interfaces/perp_oders.sol\":1428:1429  5 */\n      0x05\n        /* \"Evm/interfaces/perp_oders.sol\":1406:1452  _addUint32(eventData, 5, \"leverage\", leverage) */\n      mload(0x40)\n      dup1\n      0x40\n      add\n      0x40\n      mstore\n      dup1\n      0x08\n      dup2\n      mstore\n      0x20\n      add\n      0x6c65766572616765000000000000000000000000000000000000000000000000\n      dup2\n      mstore\n      pop\n        /* \"Evm/interfaces/perp_oders.sol\":1443:1451  leverage */\n      dup9\n        /* \"Evm/interfaces/perp_oders.sol\":1406:1416  _addUint32 */\n      tag_75\n        /* \"Evm/interfaces/perp_oders.sol\":1406:1452  _addUint32(eventData, 5, \"leverage\", leverage) */\n      jump\t// in\n    tag_74:\n        /* \"Evm/interfaces/perp_oders.sol\":1463:1503  _addBool(eventData, 6, \"isLong\", isLong) */\n      tag_76\n        /* \"Evm/interfaces/perp_oders.sol\":1472:1481  eventData */\n      dup2\n        /* \"Evm/interfaces/perp_oders.sol\":1483:1484  6 */\n      0x06\n        /* \"Evm/interfaces/perp_oders.sol\":1463:1503  _addBool(eventData, 6, \"isLong\", isLong) */\n      mload(0x40)\n      dup1\n      0x40\n      add\n      0x40\n      mstore\n      dup1\n      0x06\n      dup2\n      mstore\n      0x20\n      add\n      0x69734c6f6e670000000000000000000000000000000000000000000000000000\n      dup2\n      mstore\n      pop\n        /* \"Evm/interfaces/perp_oders.sol\":1496:1502  isLong */\n      dup10\n        /* \"Evm/interfaces/perp_oders.sol\":1463:1471  _addBool */\n      tag_77\n        /* \"Evm/interfaces/perp_oders.sol\":1463:1503  _addBool(eventData, 6, \"isLong\", isLong) */\n      jump\t// in\n    tag_76:\n        /* \"Evm/interfaces/perp_oders.sol\":1514:1571  _addUint128(eventData, 7, \"desired_price\", desired_price) */\n      tag_78\n        /* \"Evm/interfaces/perp_oders.sol\":1526:1535  eventData */\n      dup2\n        /* \"Evm/interfaces/perp_oders.sol\":1537:1538  7 */\n      0x07\n        /* \"Evm/interfaces/perp_oders.sol\":1514:1571  _addUint128(eventData, 7, \"desired_price\", desired_price) */\n      mload(0x40)\n      dup1\n      0x40\n      add\n      0x40\n      mstore\n      dup1\n      0x0d\n      dup2\n      mstore\n      0x20\n      add\n      0x646573697265645f707269636500000000000000000000000000000000000000\n      dup2\n      mstore\n      pop\n        /* \"Evm/interfaces/perp_oders.sol\":1557:1570  desired_price */\n      dup11\n        /* \"Evm/interfaces/perp_oders.sol\":1514:1525  _addUint128 */\n      tag_79\n        /* \"Evm/interfaces/perp_oders.sol\":1514:1571  _addUint128(eventData, 7, \"desired_price\", desired_price) */\n      jump\t// in\n    tag_78:\n        /* \"Evm/interfaces/perp_oders.sol\":1582:1638  _addString(eventData, 8, \"reserve_chain\", reserve_chain) */\n      tag_80\n        /* \"Evm/interfaces/perp_oders.sol\":1593:1602  eventData */\n      dup2\n        /* \"Evm/interfaces/perp_oders.sol\":1604:1605  8 */\n      0x08\n        /* \"Evm/interfaces/perp_oders.sol\":1582:1638  _addString(eventData, 8, \"reserve_chain\", reserve_chain) */\n      mload(0x40)\n      dup1\n      0x40\n      add\n      0x40\n      mstore\n      dup1\n      0x0d\n      dup2\n      mstore\n      0x20\n      add\n      0x726573657276655f636861696e00000000000000000000000000000000000000\n      dup2\n      mstore\n      pop\n        /* \"Evm/interfaces/perp_oders.sol\":1624:1637  reserve_chain */\n      dup8\n        /* \"Evm/interfaces/perp_oders.sol\":1582:1592  _addString */\n      tag_40\n        /* \"Evm/interfaces/perp_oders.sol\":1582:1638  _addString(eventData, 8, \"reserve_chain\", reserve_chain) */\n      jump\t// in\n    tag_80:\n        /* \"Evm/interfaces/perp_oders.sol\":1649:1711  _addString(eventData, 9, \"reserve_provider\", reserve_provider) */\n      tag_81\n        /* \"Evm/interfaces/perp_oders.sol\":1660:1669  eventData */\n      dup2\n        /* \"Evm/interfaces/perp_oders.sol\":1671:1672  9 */\n      0x09\n        /* \"Evm/interfaces/perp_oders.sol\":1649:1711  _addString(eventData, 9, \"reserve_provider\", reserve_provider) */\n      mload(0x40)\n      dup1\n      0x40\n      add\n      0x40\n      mstore\n      dup1\n      0x10\n      dup2\n      mstore\n      0x20\n      add\n      0x726573657276655f70726f766964657200000000000000000000000000000000\n      dup2\n      mstore\n      pop\n        /* \"Evm/interfaces/perp_oders.sol\":1694:1710  reserve_provider */\n      dup7\n        /* \"Evm/interfaces/perp_oders.sol\":1649:1659  _addString */\n      tag_40\n        /* \"Evm/interfaces/perp_oders.sol\":1649:1711  _addString(eventData, 9, \"reserve_provider\", reserve_provider) */\n      jump\t// in\n    tag_81:\n        /* \"Evm/interfaces/perp_oders.sol\":1722:1779  _addString(eventData, 10, \"reserve_token\", reserve_token) */\n      tag_82\n        /* \"Evm/interfaces/perp_oders.sol\":1733:1742  eventData */\n      dup2\n        /* \"Evm/interfaces/perp_oders.sol\":1744:1746  10 */\n      0x0a\n        /* \"Evm/interfaces/perp_oders.sol\":1722:1779  _addString(eventData, 10, \"reserve_token\", reserve_token) */\n      mload(0x40)\n      dup1\n      0x40\n      add\n      0x40\n      mstore\n      dup1\n      0x0d\n      dup2\n      mstore\n      0x20\n      add\n      0x726573657276655f746f6b656e00000000000000000000000000000000000000\n      dup2\n      mstore\n      pop\n        /* \"Evm/interfaces/perp_oders.sol\":1765:1778  reserve_token */\n      dup6\n        /* \"Evm/interfaces/perp_oders.sol\":1722:1732  _addString */\n      tag_40\n        /* \"Evm/interfaces/perp_oders.sol\":1722:1779  _addString(eventData, 10, \"reserve_token\", reserve_token) */\n      jump\t// in\n    tag_82:\n        /* \"Evm/interfaces/perp_oders.sol\":1792:1798  events */\n      immutable(\"0x6d6142e7bc5885f8a3af14e4530d0fef2107c35d29b4827380ff447a51b70068\")\n        /* \"Evm/interfaces/perp_oders.sol\":1792:1813  events.emitVaultEvent */\n      0xffffffffffffffffffffffffffffffffffffffff\n      and\n      0x7d64fa9b\n        /* \"Evm/interfaces/perp_oders.sol\":1845:1854  eventData */\n      dup3\n        /* \"Evm/interfaces/perp_oders.sol\":1792:1855  events.emitVaultEvent(\"Modular Limit Order Created\", eventData) */\n      mload(0x40)\n      dup3\n      0xffffffff\n      and\n      0xe0\n      shl\n      dup2\n      mstore\n      0x04\n      add\n      tag_83\n      swap2\n      swap1\n      tag_84\n      jump\t// in\n    tag_83:\n      0x00\n      mload(0x40)\n      dup1\n      dup4\n      sub\n      dup2\n      0x00\n      dup8\n      dup1\n      extcodesize\n      iszero\n      dup1\n      iszero\n      tag_85\n      jumpi\n      revert(0x00, 0x00)\n    tag_85:\n      pop\n      gas\n      call\n      iszero\n      dup1\n      iszero\n      tag_87\n      jumpi\n      returndatacopy(0x00, 0x00, returndatasize)\n      revert(0x00, returndatasize)\n    tag_87:\n      pop\n      pop\n      pop\n      pop\n        /* \"Evm/interfaces/perp_oders.sol\":1067:1863  {... */\n      pop\n        /* \"Evm/interfaces/perp_oders.sol\":713:1863  function p_create_limit_order(... */\n      pop\n      pop\n      pop\n      pop\n      pop\n      pop\n      pop\n      pop\n      pop\n      pop\n      jump\t// out\n        /* \"Evm/interfaces/perp_oders.sol\":1871:3131  function p_create_twap_order(... */\n    tag_26:\n        /* \"Evm/interfaces/perp_oders.sol\":2279:2310  IEvents.Data[] memory eventData */\n      0x00\n        /* \"Evm/interfaces/perp_oders.sol\":2332:2334  12 */\n      0x0c\n        /* \"Evm/interfaces/perp_oders.sol\":2313:2335  new IEvents.Data[](12) */\n      0xffffffffffffffff\n      dup2\n      gt\n      iszero\n      tag_89\n      jumpi\n      tag_90\n      tag_30\n      jump\t// in\n    tag_90:\n    tag_89:\n      mload(0x40)\n      swap1\n      dup1\n      dup3\n      mstore\n      dup1\n      0x20\n      mul\n      0x20\n      add\n      dup3\n      add\n      0x40\n      mstore\n      dup1\n      iszero\n      tag_91\n      jumpi\n      dup2\n      0x20\n      add\n    tag_92:\n      tag_93\n      tag_34\n      jump\t// in\n    tag_93:\n      dup2\n      mstore\n      0x20\n      add\n      swap1\n      0x01\n      swap1\n      sub\n      swap1\n      dup2\n      tag_92\n      jumpi\n      swap1\n      pop\n    tag_91:\n      pop\n        /* \"Evm/interfaces/perp_oders.sol\":2279:2335  IEvents.Data[] memory eventData = new IEvents.Data[](12) */\n      swap1\n      pop\n        /* \"Evm/interfaces/perp_oders.sol\":2348:2395  _addAddress(eventData, 0, \"sender\", msg.sender) */\n      tag_94\n        /* \"Evm/interfaces/perp_oders.sol\":2360:2369  eventData */\n      dup2\n        /* \"Evm/interfaces/perp_oders.sol\":2371:2372  0 */\n      0x00\n        /* \"Evm/interfaces/perp_oders.sol\":2348:2395  _addAddress(eventData, 0, \"sender\", msg.sender) */\n      mload(0x40)\n      dup1\n      0x40\n      add\n      0x40\n      mstore\n      dup1\n      0x06\n      dup2\n      mstore\n      0x20\n      add\n      0x73656e6465720000000000000000000000000000000000000000000000000000\n      dup2\n      mstore\n      pop\n        /* \"Evm/interfaces/perp_oders.sol\":2384:2394  msg.sender */\n      caller\n        /* \"Evm/interfaces/perp_oders.sol\":2348:2359  _addAddress */\n      tag_36\n        /* \"Evm/interfaces/perp_oders.sol\":2348:2395  _addAddress(eventData, 0, \"sender\", msg.sender) */\n      jump\t// in\n    tag_94:\n        /* \"Evm/interfaces/perp_oders.sol\":2406:2443  _addBytes(eventData, 1, \"user\", user) */\n      tag_95\n        /* \"Evm/interfaces/perp_oders.sol\":2416:2425  eventData */\n      dup2\n        /* \"Evm/interfaces/perp_oders.sol\":2427:2428  1 */\n      0x01\n        /* \"Evm/interfaces/perp_oders.sol\":2406:2443  _addBytes(eventData, 1, \"user\", user) */\n      mload(0x40)\n      dup1\n      0x40\n      add\n      0x40\n      mstore\n      dup1\n      0x04\n      dup2\n      mstore\n      0x20\n      add\n      0x7573657200000000000000000000000000000000000000000000000000000000\n      dup2\n      mstore\n      pop\n        /* \"Evm/interfaces/perp_oders.sol\":2438:2442  user */\n      dup16\n        /* \"Evm/interfaces/perp_oders.sol\":2406:2415  _addBytes */\n      tag_38\n        /* \"Evm/interfaces/perp_oders.sol\":2406:2443  _addBytes(eventData, 1, \"user\", user) */\n      jump\t// in\n    tag_95:\n        /* \"Evm/interfaces/perp_oders.sol\":2454:2496  _addString(eventData, 2, \"shared\", shared) */\n      tag_96\n        /* \"Evm/interfaces/perp_oders.sol\":2465:2474  eventData */\n      dup2\n        /* \"Evm/interfaces/perp_oders.sol\":2476:2477  2 */\n      0x02\n        /* \"Evm/interfaces/perp_oders.sol\":2454:2496  _addString(eventData, 2, \"shared\", shared) */\n      mload(0x40)\n      dup1\n      0x40\n      add\n      0x40\n      mstore\n      dup1\n      0x06\n      dup2\n      mstore\n      0x20\n      add\n      0x7368617265640000000000000000000000000000000000000000000000000000\n      dup2\n      mstore\n      pop\n        /* \"Evm/interfaces/perp_oders.sol\":2489:2495  shared */\n      dup15\n        /* \"Evm/interfaces/perp_oders.sol\":2454:2464  _addString */\n      tag_40\n        /* \"Evm/interfaces/perp_oders.sol\":2454:2496  _addString(eventData, 2, \"shared\", shared) */\n      jump\t// in\n    tag_96:\n        /* \"Evm/interfaces/perp_oders.sol\":2507:2547  _addString(eventData, 3, \"asset\", asset) */\n      tag_97\n        /* \"Evm/interfaces/perp_oders.sol\":2518:2527  eventData */\n      dup2\n        /* \"Evm/interfaces/perp_oders.sol\":2529:2530  3 */\n      0x03\n        /* \"Evm/interfaces/perp_oders.sol\":2507:2547  _addString(eventData, 3, \"asset\", asset) */\n      mload(0x40)\n      dup1\n      0x40\n      add\n      0x40\n      mstore\n      dup1\n      0x05\n      dup2\n      mstore\n      0x20\n      add\n      0x6173736574000000000000000000000000000000000000000000000000000000\n      dup2\n      mstore\n      pop\n        /* \"Evm/interfaces/perp_oders.sol\":2541:2546  asset */\n      dup14\n        /* \"Evm/interfaces/perp_oders.sol\":2507:2517  _addString */\n      tag_40\n        /* \"Evm/interfaces/perp_oders.sol\":2507:2547  _addString(eventData, 3, \"asset\", asset) */\n      jump\t// in\n    tag_97:\n        /* \"Evm/interfaces/perp_oders.sol\":2558:2607  _addUint64Array(eventData, 4, \"periods\", periods) */\n      tag_98\n        /* \"Evm/interfaces/perp_oders.sol\":2574:2583  eventData */\n      dup2\n        /* \"Evm/interfaces/perp_oders.sol\":2585:2586  4 */\n      0x04\n        /* \"Evm/interfaces/perp_oders.sol\":2558:2607  _addUint64Array(eventData, 4, \"periods\", periods) */\n      mload(0x40)\n      dup1\n      0x40\n      add\n      0x40\n      mstore\n      dup1\n      0x07\n      dup2\n      mstore\n      0x20\n      add\n      0x706572696f647300000000000000000000000000000000000000000000000000\n      dup2\n      mstore\n      pop\n        /* \"Evm/interfaces/perp_oders.sol\":2599:2606  periods */\n      dup13\n        /* \"Evm/interfaces/perp_oders.sol\":2558:2573  _addUint64Array */\n      tag_99\n        /* \"Evm/interfaces/perp_oders.sol\":2558:2607  _addUint64Array(eventData, 4, \"periods\", periods) */\n      jump\t// in\n    tag_98:\n        /* \"Evm/interfaces/perp_oders.sol\":2618:2663  _addUint64Array(eventData, 5, \"sizes\", sizes) */\n      tag_100\n        /* \"Evm/interfaces/perp_oders.sol\":2634:2643  eventData */\n      dup2\n        /* \"Evm/interfaces/perp_oders.sol\":2645:2646  5 */\n      0x05\n        /* \"Evm/interfaces/perp_oders.sol\":2618:2663  _addUint64Array(eventData, 5, \"sizes\", sizes) */\n      mload(0x40)\n      dup1\n      0x40\n      add\n      0x40\n      mstore\n      dup1\n      0x05\n      dup2\n      mstore\n      0x20\n      add\n      0x73697a6573000000000000000000000000000000000000000000000000000000\n      dup2\n      mstore\n      pop\n        /* \"Evm/interfaces/perp_oders.sol\":2657:2662  sizes */\n      dup12\n        /* \"Evm/interfaces/perp_oders.sol\":2618:2633  _addUint64Array */\n      tag_99\n        /* \"Evm/interfaces/perp_oders.sol\":2618:2663  _addUint64Array(eventData, 5, \"sizes\", sizes) */\n      jump\t// in\n    tag_100:\n        /* \"Evm/interfaces/perp_oders.sol\":2674:2731  _addUint128(eventData, 6, \"desired_price\", desired_price) */\n      tag_101\n        /* \"Evm/interfaces/perp_oders.sol\":2686:2695  eventData */\n      dup2\n        /* \"Evm/interfaces/perp_oders.sol\":2697:2698  6 */\n      0x06\n        /* \"Evm/interfaces/perp_oders.sol\":2674:2731  _addUint128(eventData, 6, \"desired_price\", desired_price) */\n      mload(0x40)\n      dup1\n      0x40\n      add\n      0x40\n      mstore\n      dup1\n      0x0d\n      dup2\n      mstore\n      0x20\n      add\n      0x646573697265645f707269636500000000000000000000000000000000000000\n      dup2\n      mstore\n      pop\n        /* \"Evm/interfaces/perp_oders.sol\":2717:2730  desired_price */\n      dup11\n        /* \"Evm/interfaces/perp_oders.sol\":2674:2685  _addUint128 */\n      tag_79\n        /* \"Evm/interfaces/perp_oders.sol\":2674:2731  _addUint128(eventData, 6, \"desired_price\", desired_price) */\n      jump\t// in\n    tag_101:\n        /* \"Evm/interfaces/perp_oders.sol\":2742:2782  _addBool(eventData, 7, \"isLong\", isLong) */\n      tag_102\n        /* \"Evm/interfaces/perp_oders.sol\":2751:2760  eventData */\n      dup2\n        /* \"Evm/interfaces/perp_oders.sol\":2762:2763  7 */\n      0x07\n        /* \"Evm/interfaces/perp_oders.sol\":2742:2782  _addBool(eventData, 7, \"isLong\", isLong) */\n      mload(0x40)\n      dup1\n      0x40\n      add\n      0x40\n      mstore\n      dup1\n      0x06\n      dup2\n      mstore\n      0x20\n      add\n      0x69734c6f6e670000000000000000000000000000000000000000000000000000\n      dup2\n      mstore\n      pop\n        /* \"Evm/interfaces/perp_oders.sol\":2775:2781  isLong */\n      dup10\n        /* \"Evm/interfaces/perp_oders.sol\":2742:2750  _addBool */\n      tag_77\n        /* \"Evm/interfaces/perp_oders.sol\":2742:2782  _addBool(eventData, 7, \"isLong\", isLong) */\n      jump\t// in\n    tag_102:\n        /* \"Evm/interfaces/perp_oders.sol\":2793:2839  _addUint32(eventData, 8, \"leverage\", leverage) */\n      tag_103\n        /* \"Evm/interfaces/perp_oders.sol\":2804:2813  eventData */\n      dup2\n        /* \"Evm/interfaces/perp_oders.sol\":2815:2816  8 */\n      0x08\n        /* \"Evm/interfaces/perp_oders.sol\":2793:2839  _addUint32(eventData, 8, \"leverage\", leverage) */\n      mload(0x40)\n      dup1\n      0x40\n      add\n      0x40\n      mstore\n      dup1\n      0x08\n      dup2\n      mstore\n      0x20\n      add\n      0x6c65766572616765000000000000000000000000000000000000000000000000\n      dup2\n      mstore\n      pop\n        /* \"Evm/interfaces/perp_oders.sol\":2830:2838  leverage */\n      dup9\n        /* \"Evm/interfaces/perp_oders.sol\":2793:2803  _addUint32 */\n      tag_75\n        /* \"Evm/interfaces/perp_oders.sol\":2793:2839  _addUint32(eventData, 8, \"leverage\", leverage) */\n      jump\t// in\n    tag_103:\n        /* \"Evm/interfaces/perp_oders.sol\":2850:2906  _addString(eventData, 9, \"reserve_chain\", reserve_chain) */\n      tag_104\n        /* \"Evm/interfaces/perp_oders.sol\":2861:2870  eventData */\n      dup2\n        /* \"Evm/interfaces/perp_oders.sol\":2872:2873  9 */\n      0x09\n        /* \"Evm/interfaces/perp_oders.sol\":2850:2906  _addString(eventData, 9, \"reserve_chain\", reserve_chain) */\n      mload(0x40)\n      dup1\n      0x40\n      add\n      0x40\n      mstore\n      dup1\n      0x0d\n      dup2\n      mstore\n      0x20\n      add\n      0x726573657276655f636861696e00000000000000000000000000000000000000\n      dup2\n      mstore\n      pop\n        /* \"Evm/interfaces/perp_oders.sol\":2892:2905  reserve_chain */\n      dup8\n        /* \"Evm/interfaces/perp_oders.sol\":2850:2860  _addString */\n      tag_40\n        /* \"Evm/interfaces/perp_oders.sol\":2850:2906  _addString(eventData, 9, \"reserve_chain\", reserve_chain) */\n      jump\t// in\n    tag_104:\n        /* \"Evm/interfaces/perp_oders.sol\":2917:2980  _addString(eventData, 10, \"reserve_provider\", reserve_provider) */\n      tag_105\n        /* \"Evm/interfaces/perp_oders.sol\":2928:2937  eventData */\n      dup2\n        /* \"Evm/interfaces/perp_oders.sol\":2939:2941  10 */\n      0x0a\n        /* \"Evm/interfaces/perp_oders.sol\":2917:2980  _addString(eventData, 10, \"reserve_provider\", reserve_provider) */\n      mload(0x40)\n      dup1\n      0x40\n      add\n      0x40\n      mstore\n      dup1\n      0x10\n      dup2\n      mstore\n      0x20\n      add\n      0x726573657276655f70726f766964657200000000000000000000000000000000\n      dup2\n      mstore\n      pop\n        /* \"Evm/interfaces/perp_oders.sol\":2963:2979  reserve_provider */\n      dup7\n        /* \"Evm/interfaces/perp_oders.sol\":2917:2927  _addString */\n      tag_40\n        /* \"Evm/interfaces/perp_oders.sol\":2917:2980  _addString(eventData, 10, \"reserve_provider\", reserve_provider) */\n      jump\t// in\n    tag_105:\n        /* \"Evm/interfaces/perp_oders.sol\":2991:3048  _addString(eventData, 11, \"reserve_token\", reserve_token) */\n      tag_106\n        /* \"Evm/interfaces/perp_oders.sol\":3002:3011  eventData */\n      dup2\n        /* \"Evm/interfaces/perp_oders.sol\":3013:3015  11 */\n      0x0b\n        /* \"Evm/interfaces/perp_oders.sol\":2991:3048  _addString(eventData, 11, \"reserve_token\", reserve_token) */\n      mload(0x40)\n      dup1\n      0x40\n      add\n      0x40\n      mstore\n      dup1\n      0x0d\n      dup2\n      mstore\n      0x20\n      add\n      0x726573657276655f746f6b656e00000000000000000000000000000000000000\n      dup2\n      mstore\n      pop\n        /* \"Evm/interfaces/perp_oders.sol\":3034:3047  reserve_token */\n      dup6\n        /* \"Evm/interfaces/perp_oders.sol\":2991:3001  _addString */\n      tag_40\n        /* \"Evm/interfaces/perp_oders.sol\":2991:3048  _addString(eventData, 11, \"reserve_token\", reserve_token) */\n      jump\t// in\n    tag_106:\n        /* \"Evm/interfaces/perp_oders.sol\":3061:3067  events */\n      immutable(\"0x6d6142e7bc5885f8a3af14e4530d0fef2107c35d29b4827380ff447a51b70068\")\n        /* \"Evm/interfaces/perp_oders.sol\":3061:3082  events.emitVaultEvent */\n      0xffffffffffffffffffffffffffffffffffffffff\n      and\n      0x7d64fa9b\n        /* \"Evm/interfaces/perp_oders.sol\":3113:3122  eventData */\n      dup3\n        /* \"Evm/interfaces/perp_oders.sol\":3061:3123  events.emitVaultEvent(\"Modular TWAP Order Created\", eventData) */\n      mload(0x40)\n      dup3\n      0xffffffff\n      and\n      0xe0\n      shl\n      dup2\n      mstore\n      0x04\n      add\n      tag_107\n      swap2\n      swap1\n      tag_108\n      jump\t// in\n    tag_107:\n      0x00\n      mload(0x40)\n      dup1\n      dup4\n      sub\n      dup2\n      0x00\n      dup8\n      dup1\n      extcodesize\n      iszero\n      dup1\n      iszero\n      tag_109\n      jumpi\n      revert(0x00, 0x00)\n    tag_109:\n      pop\n      gas\n      call\n      iszero\n      dup1\n      iszero\n      tag_111\n      jumpi\n      returndatacopy(0x00, 0x00, returndatasize)\n      revert(0x00, returndatasize)\n    tag_111:\n      pop\n      pop\n      pop\n      pop\n        /* \"Evm/interfaces/perp_oders.sol\":2268:3131  {... */\n      pop\n        /* \"Evm/interfaces/perp_oders.sol\":1871:3131  function p_create_twap_order(... */\n      pop\n      pop\n      pop\n      pop\n      pop\n      pop\n      pop\n      pop\n      pop\n      pop\n      pop\n      jump\t// out\n        /* \"Evm/interfaces/perp_oders.sol\":4257:4461  function _addAddress(IEvents.Data[] memory eventData, uint256 index, string memory name, address value) internal pure {... */\n    tag_36:\n        /* \"Evm/interfaces/perp_oders.sol\":4405:4453  IEvents.Data(name, \"address\", abi.encode(value)) */\n      mload(0x40)\n      dup1\n      0x60\n      add\n      0x40\n      mstore\n      dup1\n        /* \"Evm/interfaces/perp_oders.sol\":4418:4422  name */\n      dup4\n        /* \"Evm/interfaces/perp_oders.sol\":4405:4453  IEvents.Data(name, \"address\", abi.encode(value)) */\n      dup2\n      mstore\n      0x20\n      add\n      mload(0x40)\n      dup1\n      0x40\n      add\n      0x40\n      mstore\n      dup1\n      0x07\n      dup2\n      mstore\n      0x20\n      add\n      0x6164647265737300000000000000000000000000000000000000000000000000\n      dup2\n      mstore\n      pop\n      dup2\n      mstore\n      0x20\n      add\n        /* \"Evm/interfaces/perp_oders.sol\":4446:4451  value */\n      dup3\n        /* \"Evm/interfaces/perp_oders.sol\":4435:4452  abi.encode(value) */\n      add(0x20, mload(0x40))\n      tag_113\n      swap2\n      swap1\n      tag_114\n      jump\t// in\n    tag_113:\n      mload(0x40)\n      0x20\n      dup2\n      dup4\n      sub\n      sub\n      dup2\n      mstore\n      swap1\n      0x40\n      mstore\n        /* \"Evm/interfaces/perp_oders.sol\":4405:4453  IEvents.Data(name, \"address\", abi.encode(value)) */\n      dup2\n      mstore\n      pop\n        /* \"Evm/interfaces/perp_oders.sol\":4386:4395  eventData */\n      dup5\n        /* \"Evm/interfaces/perp_oders.sol\":4396:4401  index */\n      dup5\n        /* \"Evm/interfaces/perp_oders.sol\":4386:4402  eventData[index] */\n      dup2\n      mload\n      dup2\n      lt\n      tag_115\n      jumpi\n      tag_116\n      tag_117\n      jump\t// in\n    tag_116:\n    tag_115:\n      0x20\n      mul\n      0x20\n      add\n      add\n        /* \"Evm/interfaces/perp_oders.sol\":4386:4453  eventData[index] = IEvents.Data(name, \"address\", abi.encode(value)) */\n      dup2\n      swap1\n      mstore\n      pop\n        /* \"Evm/interfaces/perp_oders.sol\":4257:4461  function _addAddress(IEvents.Data[] memory eventData, uint256 index, string memory name, address value) internal pure {... */\n      pop\n      pop\n      pop\n      pop\n      jump\t// out\n        /* \"Evm/interfaces/perp_oders.sol\":4469:4674  function _addBytes(IEvents.Data[] memory eventData, uint256 index, string memory name, bytes memory value) internal pure {... */\n    tag_38:\n        /* \"Evm/interfaces/perp_oders.sol\":4620:4666  IEvents.Data(name, \"bytes\", abi.encode(value)) */\n      mload(0x40)\n      dup1\n      0x60\n      add\n      0x40\n      mstore\n      dup1\n        /* \"Evm/interfaces/perp_oders.sol\":4633:4637  name */\n      dup4\n        /* \"Evm/interfaces/perp_oders.sol\":4620:4666  IEvents.Data(name, \"bytes\", abi.encode(value)) */\n      dup2\n      mstore\n      0x20\n      add\n      mload(0x40)\n      dup1\n      0x40\n      add\n      0x40\n      mstore\n      dup1\n      0x05\n      dup2\n      mstore\n      0x20\n      add\n      0x6279746573000000000000000000000000000000000000000000000000000000\n      dup2\n      mstore\n      pop\n      dup2\n      mstore\n      0x20\n      add\n        /* \"Evm/interfaces/perp_oders.sol\":4659:4664  value */\n      dup3\n        /* \"Evm/interfaces/perp_oders.sol\":4648:4665  abi.encode(value) */\n      add(0x20, mload(0x40))\n      tag_119\n      swap2\n      swap1\n      tag_120\n      jump\t// in\n    tag_119:\n      mload(0x40)\n      0x20\n      dup2\n      dup4\n      sub\n      sub\n      dup2\n      mstore\n      swap1\n      0x40\n      mstore\n        /* \"Evm/interfaces/perp_oders.sol\":4620:4666  IEvents.Data(name, \"bytes\", abi.encode(value)) */\n      dup2\n      mstore\n      pop\n        /* \"Evm/interfaces/perp_oders.sol\":4601:4610  eventData */\n      dup5\n        /* \"Evm/interfaces/perp_oders.sol\":4611:4616  index */\n      dup5\n        /* \"Evm/interfaces/perp_oders.sol\":4601:4617  eventData[index] */\n      dup2\n      mload\n      dup2\n      lt\n      tag_121\n      jumpi\n      tag_122\n      tag_117\n      jump\t// in\n    tag_122:\n    tag_121:\n      0x20\n      mul\n      0x20\n      add\n      add\n        /* \"Evm/interfaces/perp_oders.sol\":4601:4666  eventData[index] = IEvents.Data(name, \"bytes\", abi.encode(value)) */\n      dup2\n      swap1\n      mstore\n      pop\n        /* \"Evm/interfaces/perp_oders.sol\":4469:4674  function _addBytes(IEvents.Data[] memory eventData, uint256 index, string memory name, bytes memory value) internal pure {... */\n      pop\n      pop\n      pop\n      pop\n      jump\t// out\n        /* \"Evm/interfaces/perp_oders.sol\":4682:4890  function _addString(IEvents.Data[] memory eventData, uint256 index, string memory name, string memory value) internal pure {... */\n    tag_40:\n        /* \"Evm/interfaces/perp_oders.sol\":4835:4882  IEvents.Data(name, \"string\", abi.encode(value)) */\n      mload(0x40)\n      dup1\n      0x60\n      add\n      0x40\n      mstore\n      dup1\n        /* \"Evm/interfaces/perp_oders.sol\":4848:4852  name */\n      dup4\n        /* \"Evm/interfaces/perp_oders.sol\":4835:4882  IEvents.Data(name, \"string\", abi.encode(value)) */\n      dup2\n      mstore\n      0x20\n      add\n      mload(0x40)\n      dup1\n      0x40\n      add\n      0x40\n      mstore\n      dup1\n      0x06\n      dup2\n      mstore\n      0x20\n      add\n      0x737472696e670000000000000000000000000000000000000000000000000000\n      dup2\n      mstore\n      pop\n      dup2\n      mstore\n      0x20\n      add\n        /* \"Evm/interfaces/perp_oders.sol\":4875:4880  value */\n      dup3\n        /* \"Evm/interfaces/perp_oders.sol\":4864:4881  abi.encode(value) */\n      add(0x20, mload(0x40))\n      tag_124\n      swap2\n      swap1\n      tag_125\n      jump\t// in\n    tag_124:\n      mload(0x40)\n      0x20\n      dup2\n      dup4\n      sub\n      sub\n      dup2\n      mstore\n      swap1\n      0x40\n      mstore\n        /* \"Evm/interfaces/perp_oders.sol\":4835:4882  IEvents.Data(name, \"string\", abi.encode(value)) */\n      dup2\n      mstore\n      pop\n        /* \"Evm/interfaces/perp_oders.sol\":4816:4825  eventData */\n      dup5\n        /* \"Evm/interfaces/perp_oders.sol\":4826:4831  index */\n      dup5\n        /* \"Evm/interfaces/perp_oders.sol\":4816:4832  eventData[index] */\n      dup2\n      mload\n      dup2\n      lt\n      tag_126\n      jumpi\n      tag_127\n      tag_117\n      jump\t// in\n    tag_127:\n    tag_126:\n      0x20\n      mul\n      0x20\n      add\n      add\n        /* \"Evm/interfaces/perp_oders.sol\":4816:4882  eventData[index] = IEvents.Data(name, \"string\", abi.encode(value)) */\n      dup2\n      swap1\n      mstore\n      pop\n        /* \"Evm/interfaces/perp_oders.sol\":4682:4890  function _addString(IEvents.Data[] memory eventData, uint256 index, string memory name, string memory value) internal pure {... */\n      pop\n      pop\n      pop\n      pop\n      jump\t// out\n        /* \"Evm/interfaces/perp_oders.sol\":5110:5311  function _addUint64(IEvents.Data[] memory eventData, uint256 index, string memory name, uint64 value) internal pure {... */\n    tag_42:\n        /* \"Evm/interfaces/perp_oders.sol\":5256:5303  IEvents.Data(name, \"uint64\", abi.encode(value)) */\n      mload(0x40)\n      dup1\n      0x60\n      add\n      0x40\n      mstore\n      dup1\n        /* \"Evm/interfaces/perp_oders.sol\":5269:5273  name */\n      dup4\n        /* \"Evm/interfaces/perp_oders.sol\":5256:5303  IEvents.Data(name, \"uint64\", abi.encode(value)) */\n      dup2\n      mstore\n      0x20\n      add\n      mload(0x40)\n      dup1\n      0x40\n      add\n      0x40\n      mstore\n      dup1\n      0x06\n      dup2\n      mstore\n      0x20\n      add\n      0x75696e7436340000000000000000000000000000000000000000000000000000\n      dup2\n      mstore\n      pop\n      dup2\n      mstore\n      0x20\n      add\n        /* \"Evm/interfaces/perp_oders.sol\":5296:5301  value */\n      dup3\n        /* \"Evm/interfaces/perp_oders.sol\":5285:5302  abi.encode(value) */\n      add(0x20, mload(0x40))\n      tag_129\n      swap2\n      swap1\n      tag_130\n      jump\t// in\n    tag_129:\n      mload(0x40)\n      0x20\n      dup2\n      dup4\n      sub\n      sub\n      dup2\n      mstore\n      swap1\n      0x40\n      mstore\n        /* \"Evm/interfaces/perp_oders.sol\":5256:5303  IEvents.Data(name, \"uint64\", abi.encode(value)) */\n      dup2\n      mstore\n      pop\n        /* \"Evm/interfaces/perp_oders.sol\":5237:5246  eventData */\n      dup5\n        /* \"Evm/interfaces/perp_oders.sol\":5247:5252  index */\n      dup5\n        /* \"Evm/interfaces/perp_oders.sol\":5237:5253  eventData[index] */\n      dup2\n      mload\n      dup2\n      lt\n      tag_131\n      jumpi\n      tag_132\n      tag_117\n      jump\t// in\n    tag_132:\n    tag_131:\n      0x20\n      mul\n      0x20\n      add\n      add\n        /* \"Evm/interfaces/perp_oders.sol\":5237:5303  eventData[index] = IEvents.Data(name, \"uint64\", abi.encode(value)) */\n      dup2\n      swap1\n      mstore\n      pop\n        /* \"Evm/interfaces/perp_oders.sol\":5110:5311  function _addUint64(IEvents.Data[] memory eventData, uint256 index, string memory name, uint64 value) internal pure {... */\n      pop\n      pop\n      pop\n      pop\n      jump\t// out\n        /* \"Evm/interfaces/perp_oders.sol\":5319:5520  function _addUint32(IEvents.Data[] memory eventData, uint256 index, string memory name, uint32 value) internal pure {... */\n    tag_75:\n        /* \"Evm/interfaces/perp_oders.sol\":5465:5512  IEvents.Data(name, \"uint32\", abi.encode(value)) */\n      mload(0x40)\n      dup1\n      0x60\n      add\n      0x40\n      mstore\n      dup1\n        /* \"Evm/interfaces/perp_oders.sol\":5478:5482  name */\n      dup4\n        /* \"Evm/interfaces/perp_oders.sol\":5465:5512  IEvents.Data(name, \"uint32\", abi.encode(value)) */\n      dup2\n      mstore\n      0x20\n      add\n      mload(0x40)\n      dup1\n      0x40\n      add\n      0x40\n      mstore\n      dup1\n      0x06\n      dup2\n      mstore\n      0x20\n      add\n      0x75696e7433320000000000000000000000000000000000000000000000000000\n      dup2\n      mstore\n      pop\n      dup2\n      mstore\n      0x20\n      add\n        /* \"Evm/interfaces/perp_oders.sol\":5505:5510  value */\n      dup3\n        /* \"Evm/interfaces/perp_oders.sol\":5494:5511  abi.encode(value) */\n      add(0x20, mload(0x40))\n      tag_134\n      swap2\n      swap1\n      tag_135\n      jump\t// in\n    tag_134:\n      mload(0x40)\n      0x20\n      dup2\n      dup4\n      sub\n      sub\n      dup2\n      mstore\n      swap1\n      0x40\n      mstore\n        /* \"Evm/interfaces/perp_oders.sol\":5465:5512  IEvents.Data(name, \"uint32\", abi.encode(value)) */\n      dup2\n      mstore\n      pop\n        /* \"Evm/interfaces/perp_oders.sol\":5446:5455  eventData */\n      dup5\n        /* \"Evm/interfaces/perp_oders.sol\":5456:5461  index */\n      dup5\n        /* \"Evm/interfaces/perp_oders.sol\":5446:5462  eventData[index] */\n      dup2\n      mload\n      dup2\n      lt\n      tag_136\n      jumpi\n      tag_137\n      tag_117\n      jump\t// in\n    tag_137:\n    tag_136:\n      0x20\n      mul\n      0x20\n      add\n      add\n        /* \"Evm/interfaces/perp_oders.sol\":5446:5512  eventData[index] = IEvents.Data(name, \"uint32\", abi.encode(value)) */\n      dup2\n      swap1\n      mstore\n      pop\n        /* \"Evm/interfaces/perp_oders.sol\":5319:5520  function _addUint32(IEvents.Data[] memory eventData, uint256 index, string memory name, uint32 value) internal pure {... */\n      pop\n      pop\n      pop\n      pop\n      jump\t// out\n        /* \"Evm/interfaces/perp_oders.sol\":5528:5723  function _addBool(IEvents.Data[] memory eventData, uint256 index, string memory name, bool value) internal pure {... */\n    tag_77:\n        /* \"Evm/interfaces/perp_oders.sol\":5670:5715  IEvents.Data(name, \"bool\", abi.encode(value)) */\n      mload(0x40)\n      dup1\n      0x60\n      add\n      0x40\n      mstore\n      dup1\n        /* \"Evm/interfaces/perp_oders.sol\":5683:5687  name */\n      dup4\n        /* \"Evm/interfaces/perp_oders.sol\":5670:5715  IEvents.Data(name, \"bool\", abi.encode(value)) */\n      dup2\n      mstore\n      0x20\n      add\n      mload(0x40)\n      dup1\n      0x40\n      add\n      0x40\n      mstore\n      dup1\n      0x04\n      dup2\n      mstore\n      0x20\n      add\n      0x626f6f6c00000000000000000000000000000000000000000000000000000000\n      dup2\n      mstore\n      pop\n      dup2\n      mstore\n      0x20\n      add\n        /* \"Evm/interfaces/perp_oders.sol\":5708:5713  value */\n      dup3\n        /* \"Evm/interfaces/perp_oders.sol\":5697:5714  abi.encode(value) */\n      add(0x20, mload(0x40))\n      tag_139\n      swap2\n      swap1\n      tag_140\n      jump\t// in\n    tag_139:\n      mload(0x40)\n      0x20\n      dup2\n      dup4\n      sub\n      sub\n      dup2\n      mstore\n      swap1\n      0x40\n      mstore\n        /* \"Evm/interfaces/perp_oders.sol\":5670:5715  IEvents.Data(name, \"bool\", abi.encode(value)) */\n      dup2\n      mstore\n      pop\n        /* \"Evm/interfaces/perp_oders.sol\":5651:5660  eventData */\n      dup5\n        /* \"Evm/interfaces/perp_oders.sol\":5661:5666  index */\n      dup5\n        /* \"Evm/interfaces/perp_oders.sol\":5651:5667  eventData[index] */\n      dup2\n      mload\n      dup2\n      lt\n      tag_141\n      jumpi\n      tag_142\n      tag_117\n      jump\t// in\n    tag_142:\n    tag_141:\n      0x20\n      mul\n      0x20\n      add\n      add\n        /* \"Evm/interfaces/perp_oders.sol\":5651:5715  eventData[index] = IEvents.Data(name, \"bool\", abi.encode(value)) */\n      dup2\n      swap1\n      mstore\n      pop\n        /* \"Evm/interfaces/perp_oders.sol\":5528:5723  function _addBool(IEvents.Data[] memory eventData, uint256 index, string memory name, bool value) internal pure {... */\n      pop\n      pop\n      pop\n      pop\n      jump\t// out\n        /* \"Evm/interfaces/perp_oders.sol\":4898:5102  function _addUint128(IEvents.Data[] memory eventData, uint256 index, string memory name, uint128 value) internal pure {... */\n    tag_79:\n        /* \"Evm/interfaces/perp_oders.sol\":5046:5094  IEvents.Data(name, \"uint128\", abi.encode(value)) */\n      mload(0x40)\n      dup1\n      0x60\n      add\n      0x40\n      mstore\n      dup1\n        /* \"Evm/interfaces/perp_oders.sol\":5059:5063  name */\n      dup4\n        /* \"Evm/interfaces/perp_oders.sol\":5046:5094  IEvents.Data(name, \"uint128\", abi.encode(value)) */\n      dup2\n      mstore\n      0x20\n      add\n      mload(0x40)\n      dup1\n      0x40\n      add\n      0x40\n      mstore\n      dup1\n      0x07\n      dup2\n      mstore\n      0x20\n      add\n      0x75696e7431323800000000000000000000000000000000000000000000000000\n      dup2\n      mstore\n      pop\n      dup2\n      mstore\n      0x20\n      add\n        /* \"Evm/interfaces/perp_oders.sol\":5087:5092  value */\n      dup3\n        /* \"Evm/interfaces/perp_oders.sol\":5076:5093  abi.encode(value) */\n      add(0x20, mload(0x40))\n      tag_144\n      swap2\n      swap1\n      tag_145\n      jump\t// in\n    tag_144:\n      mload(0x40)\n      0x20\n      dup2\n      dup4\n      sub\n      sub\n      dup2\n      mstore\n      swap1\n      0x40\n      mstore\n        /* \"Evm/interfaces/perp_oders.sol\":5046:5094  IEvents.Data(name, \"uint128\", abi.encode(value)) */\n      dup2\n      mstore\n      pop\n        /* \"Evm/interfaces/perp_oders.sol\":5027:5036  eventData */\n      dup5\n        /* \"Evm/interfaces/perp_oders.sol\":5037:5042  index */\n      dup5\n        /* \"Evm/interfaces/perp_oders.sol\":5027:5043  eventData[index] */\n      dup2\n      mload\n      dup2\n      lt\n      tag_146\n      jumpi\n      tag_147\n      tag_117\n      jump\t// in\n    tag_147:\n    tag_146:\n      0x20\n      mul\n      0x20\n      add\n      add\n        /* \"Evm/interfaces/perp_oders.sol\":5027:5094  eventData[index] = IEvents.Data(name, \"uint128\", abi.encode(value)) */\n      dup2\n      swap1\n      mstore\n      pop\n        /* \"Evm/interfaces/perp_oders.sol\":4898:5102  function _addUint128(IEvents.Data[] memory eventData, uint256 index, string memory name, uint128 value) internal pure {... */\n      pop\n      pop\n      pop\n      pop\n      jump\t// out\n        /* \"Evm/interfaces/perp_oders.sol\":5731:5948  function _addUint64Array(IEvents.Data[] memory eventData, uint256 index, string memory name, uint64[] memory value) internal pure {... */\n    tag_99:\n        /* \"Evm/interfaces/perp_oders.sol\":5891:5940  IEvents.Data(name, \"uint64[]\", abi.encode(value)) */\n      mload(0x40)\n      dup1\n      0x60\n      add\n      0x40\n      mstore\n      dup1\n        /* \"Evm/interfaces/perp_oders.sol\":5904:5908  name */\n      dup4\n        /* \"Evm/interfaces/perp_oders.sol\":5891:5940  IEvents.Data(name, \"uint64[]\", abi.encode(value)) */\n      dup2\n      mstore\n      0x20\n      add\n      mload(0x40)\n      dup1\n      0x40\n      add\n      0x40\n      mstore\n      dup1\n      0x08\n      dup2\n      mstore\n      0x20\n      add\n      0x75696e7436345b5d000000000000000000000000000000000000000000000000\n      dup2\n      mstore\n      pop\n      dup2\n      mstore\n      0x20\n      add\n        /* \"Evm/interfaces/perp_oders.sol\":5933:5938  value */\n      dup3\n        /* \"Evm/interfaces/perp_oders.sol\":5922:5939  abi.encode(value) */\n      add(0x20, mload(0x40))\n      tag_149\n      swap2\n      swap1\n      tag_150\n      jump\t// in\n    tag_149:\n      mload(0x40)\n      0x20\n      dup2\n      dup4\n      sub\n      sub\n      dup2\n      mstore\n      swap1\n      0x40\n      mstore\n        /* \"Evm/interfaces/perp_oders.sol\":5891:5940  IEvents.Data(name, \"uint64[]\", abi.encode(value)) */\n      dup2\n      mstore\n      pop\n        /* \"Evm/interfaces/perp_oders.sol\":5872:5881  eventData */\n      dup5\n        /* \"Evm/interfaces/perp_oders.sol\":5882:5887  index */\n      dup5\n        /* \"Evm/interfaces/perp_oders.sol\":5872:5888  eventData[index] */\n      dup2\n      mload\n      dup2\n      lt\n      tag_151\n      jumpi\n      tag_152\n      tag_117\n      jump\t// in\n    tag_152:\n    tag_151:\n      0x20\n      mul\n      0x20\n      add\n      add\n        /* \"Evm/interfaces/perp_oders.sol\":5872:5940  eventData[index] = IEvents.Data(name, \"uint64[]\", abi.encode(value)) */\n      dup2\n      swap1\n      mstore\n      pop\n        /* \"Evm/interfaces/perp_oders.sol\":5731:5948  function _addUint64Array(IEvents.Data[] memory eventData, uint256 index, string memory name, uint64[] memory value) internal pure {... */\n      pop\n      pop\n      pop\n      pop\n      jump\t// out\n    tag_34:\n      mload(0x40)\n      dup1\n      0x60\n      add\n      0x40\n      mstore\n      dup1\n      0x60\n      dup2\n      mstore\n      0x20\n      add\n      0x60\n      dup2\n      mstore\n      0x20\n      add\n      0x60\n      dup2\n      mstore\n      pop\n      swap1\n      jump\t// out\n        /* \"#utility.yul\":7:82   */\n    tag_153:\n        /* \"#utility.yul\":40:46   */\n      0x00\n        /* \"#utility.yul\":73:75   */\n      0x40\n        /* \"#utility.yul\":67:76   */\n      mload\n        /* \"#utility.yul\":57:76   */\n      swap1\n      pop\n        /* \"#utility.yul\":7:82   */\n      swap1\n      jump\t// out\n        /* \"#utility.yul\":88:205   */\n    tag_154:\n        /* \"#utility.yul\":197:198   */\n      0x00\n        /* \"#utility.yul\":194:195   */\n      0x00\n        /* \"#utility.yul\":187:199   */\n      revert\n        /* \"#utility.yul\":211:328   */\n    tag_155:\n        /* \"#utility.yul\":320:321   */\n      0x00\n        /* \"#utility.yul\":317:318   */\n      0x00\n        /* \"#utility.yul\":310:322   */\n      revert\n        /* \"#utility.yul\":334:451   */\n    tag_156:\n        /* \"#utility.yul\":443:444   */\n      0x00\n        /* \"#utility.yul\":440:441   */\n      0x00\n        /* \"#utility.yul\":433:445   */\n      revert\n        /* \"#utility.yul\":457:574   */\n    tag_157:\n        /* \"#utility.yul\":566:567   */\n      0x00\n        /* \"#utility.yul\":563:564   */\n      0x00\n        /* \"#utility.yul\":556:568   */\n      revert\n        /* \"#utility.yul\":580:682   */\n    tag_158:\n        /* \"#utility.yul\":621:627   */\n      0x00\n        /* \"#utility.yul\":672:674   */\n      0x1f\n        /* \"#utility.yul\":668:675   */\n      not\n        /* \"#utility.yul\":663:665   */\n      0x1f\n        /* \"#utility.yul\":656:661   */\n      dup4\n        /* \"#utility.yul\":652:666   */\n      add\n        /* \"#utility.yul\":648:676   */\n      and\n        /* \"#utility.yul\":638:676   */\n      swap1\n      pop\n        /* \"#utility.yul\":580:682   */\n      swap2\n      swap1\n      pop\n      jump\t// out\n        /* \"#utility.yul\":688:868   */\n    tag_30:\n        /* \"#utility.yul\":736:813   */\n      0x4e487b7100000000000000000000000000000000000000000000000000000000\n        /* \"#utility.yul\":733:734   */\n      0x00\n        /* \"#utility.yul\":726:814   */\n      mstore\n        /* \"#utility.yul\":833:837   */\n      0x41\n        /* \"#utility.yul\":830:831   */\n      0x04\n        /* \"#utility.yul\":823:838   */\n      mstore\n        /* \"#utility.yul\":857:861   */\n      0x24\n        /* \"#utility.yul\":854:855   */\n      0x00\n        /* \"#utility.yul\":847:862   */\n      revert\n        /* \"#utility.yul\":874:1155   */\n    tag_159:\n        /* \"#utility.yul\":957:984   */\n      tag_238\n        /* \"#utility.yul\":979:983   */\n      dup3\n        /* \"#utility.yul\":957:984   */\n      tag_158\n      jump\t// in\n    tag_238:\n        /* \"#utility.yul\":949:955   */\n      dup2\n        /* \"#utility.yul\":945:985   */\n      add\n        /* \"#utility.yul\":1087:1093   */\n      dup2\n        /* \"#utility.yul\":1075:1085   */\n      dup2\n        /* \"#utility.yul\":1072:1094   */\n      lt\n        /* \"#utility.yul\":1051:1069   */\n      0xffffffffffffffff\n        /* \"#utility.yul\":1039:1049   */\n      dup3\n        /* \"#utility.yul\":1036:1070   */\n      gt\n        /* \"#utility.yul\":1033:1095   */\n      or\n        /* \"#utility.yul\":1030:1118   */\n      iszero\n      tag_239\n      jumpi\n        /* \"#utility.yul\":1098:1116   */\n      tag_240\n      tag_30\n      jump\t// in\n    tag_240:\n        /* \"#utility.yul\":1030:1118   */\n    tag_239:\n        /* \"#utility.yul\":1138:1148   */\n      dup1\n        /* \"#utility.yul\":1134:1136   */\n      0x40\n        /* \"#utility.yul\":1127:1149   */\n      mstore\n        /* \"#utility.yul\":917:1155   */\n      pop\n        /* \"#utility.yul\":874:1155   */\n      pop\n      pop\n      jump\t// out\n        /* \"#utility.yul\":1161:1290   */\n    tag_160:\n        /* \"#utility.yul\":1195:1201   */\n      0x00\n        /* \"#utility.yul\":1222:1242   */\n      tag_242\n      tag_153\n      jump\t// in\n    tag_242:\n        /* \"#utility.yul\":1212:1242   */\n      swap1\n      pop\n        /* \"#utility.yul\":1251:1284   */\n      tag_243\n        /* \"#utility.yul\":1279:1283   */\n      dup3\n        /* \"#utility.yul\":1271:1277   */\n      dup3\n        /* \"#utility.yul\":1251:1284   */\n      tag_159\n      jump\t// in\n    tag_243:\n        /* \"#utility.yul\":1161:1290   */\n      swap2\n      swap1\n      pop\n      jump\t// out\n        /* \"#utility.yul\":1296:1603   */\n    tag_161:\n        /* \"#utility.yul\":1357:1361   */\n      0x00\n        /* \"#utility.yul\":1447:1465   */\n      0xffffffffffffffff\n        /* \"#utility.yul\":1439:1445   */\n      dup3\n        /* \"#utility.yul\":1436:1466   */\n      gt\n        /* \"#utility.yul\":1433:1489   */\n      iszero\n      tag_245\n      jumpi\n        /* \"#utility.yul\":1469:1487   */\n      tag_246\n      tag_30\n      jump\t// in\n    tag_246:\n        /* \"#utility.yul\":1433:1489   */\n    tag_245:\n        /* \"#utility.yul\":1507:1536   */\n      tag_247\n        /* \"#utility.yul\":1529:1535   */\n      dup3\n        /* \"#utility.yul\":1507:1536   */\n      tag_158\n      jump\t// in\n    tag_247:\n        /* \"#utility.yul\":1499:1536   */\n      swap1\n      pop\n        /* \"#utility.yul\":1591:1595   */\n      0x20\n        /* \"#utility.yul\":1585:1589   */\n      dup2\n        /* \"#utility.yul\":1581:1596   */\n      add\n        /* \"#utility.yul\":1573:1596   */\n      swap1\n      pop\n        /* \"#utility.yul\":1296:1603   */\n      swap2\n      swap1\n      pop\n      jump\t// out\n        /* \"#utility.yul\":1609:1757   */\n    tag_162:\n        /* \"#utility.yul\":1707:1713   */\n      dup3\n        /* \"#utility.yul\":1702:1705   */\n      dup2\n        /* \"#utility.yul\":1697:1700   */\n      dup4\n        /* \"#utility.yul\":1684:1714   */\n      calldatacopy\n        /* \"#utility.yul\":1748:1749   */\n      0x00\n        /* \"#utility.yul\":1739:1745   */\n      dup4\n        /* \"#utility.yul\":1734:1737   */\n      dup4\n        /* \"#utility.yul\":1730:1746   */\n      add\n        /* \"#utility.yul\":1723:1750   */\n      mstore\n        /* \"#utility.yul\":1609:1757   */\n      pop\n      pop\n      pop\n      jump\t// out\n        /* \"#utility.yul\":1763:2186   */\n    tag_163:\n        /* \"#utility.yul\":1840:1845   */\n      0x00\n        /* \"#utility.yul\":1865:1930   */\n      tag_250\n        /* \"#utility.yul\":1881:1929   */\n      tag_251\n        /* \"#utility.yul\":1922:1928   */\n      dup5\n        /* \"#utility.yul\":1881:1929   */\n      tag_161\n      jump\t// in\n    tag_251:\n        /* \"#utility.yul\":1865:1930   */\n      tag_160\n      jump\t// in\n    tag_250:\n        /* \"#utility.yul\":1856:1930   */\n      swap1\n      pop\n        /* \"#utility.yul\":1953:1959   */\n      dup3\n        /* \"#utility.yul\":1946:1951   */\n      dup2\n        /* \"#utility.yul\":1939:1960   */\n      mstore\n        /* \"#utility.yul\":1991:1995   */\n      0x20\n        /* \"#utility.yul\":1984:1989   */\n      dup2\n        /* \"#utility.yul\":1980:1996   */\n      add\n        /* \"#utility.yul\":2029:2032   */\n      dup5\n        /* \"#utility.yul\":2020:2026   */\n      dup5\n        /* \"#utility.yul\":2015:2018   */\n      dup5\n        /* \"#utility.yul\":2011:2027   */\n      add\n        /* \"#utility.yul\":2008:2033   */\n      gt\n        /* \"#utility.yul\":2005:2117   */\n      iszero\n      tag_252\n      jumpi\n        /* \"#utility.yul\":2036:2115   */\n      tag_253\n      tag_157\n      jump\t// in\n    tag_253:\n        /* \"#utility.yul\":2005:2117   */\n    tag_252:\n        /* \"#utility.yul\":2126:2180   */\n      tag_254\n        /* \"#utility.yul\":2173:2179   */\n      dup5\n        /* \"#utility.yul\":2168:2171   */\n      dup3\n        /* \"#utility.yul\":2163:2166   */\n      dup6\n        /* \"#utility.yul\":2126:2180   */\n      tag_162\n      jump\t// in\n    tag_254:\n        /* \"#utility.yul\":1846:2186   */\n      pop\n        /* \"#utility.yul\":1763:2186   */\n      swap4\n      swap3\n      pop\n      pop\n      pop\n      jump\t// out\n        /* \"#utility.yul\":2205:2543   */\n    tag_164:\n        /* \"#utility.yul\":2260:2265   */\n      0x00\n        /* \"#utility.yul\":2309:2312   */\n      dup3\n        /* \"#utility.yul\":2302:2306   */\n      0x1f\n        /* \"#utility.yul\":2294:2300   */\n      dup4\n        /* \"#utility.yul\":2290:2307   */\n      add\n        /* \"#utility.yul\":2286:2313   */\n      slt\n        /* \"#utility.yul\":2276:2398   */\n      tag_256\n      jumpi\n        /* \"#utility.yul\":2317:2396   */\n      tag_257\n      tag_156\n      jump\t// in\n    tag_257:\n        /* \"#utility.yul\":2276:2398   */\n    tag_256:\n        /* \"#utility.yul\":2434:2440   */\n      dup2\n        /* \"#utility.yul\":2421:2441   */\n      calldataload\n        /* \"#utility.yul\":2459:2537   */\n      tag_258\n        /* \"#utility.yul\":2533:2536   */\n      dup5\n        /* \"#utility.yul\":2525:2531   */\n      dup3\n        /* \"#utility.yul\":2518:2522   */\n      0x20\n        /* \"#utility.yul\":2510:2516   */\n      dup7\n        /* \"#utility.yul\":2506:2523   */\n      add\n        /* \"#utility.yul\":2459:2537   */\n      tag_163\n      jump\t// in\n    tag_258:\n        /* \"#utility.yul\":2450:2537   */\n      swap2\n      pop\n        /* \"#utility.yul\":2266:2543   */\n      pop\n        /* \"#utility.yul\":2205:2543   */\n      swap3\n      swap2\n      pop\n      pop\n      jump\t// out\n        /* \"#utility.yul\":2549:2857   */\n    tag_165:\n        /* \"#utility.yul\":2611:2615   */\n      0x00\n        /* \"#utility.yul\":2701:2719   */\n      0xffffffffffffffff\n        /* \"#utility.yul\":2693:2699   */\n      dup3\n        /* \"#utility.yul\":2690:2720   */\n      gt\n        /* \"#utility.yul\":2687:2743   */\n      iszero\n      tag_260\n      jumpi\n        /* \"#utility.yul\":2723:2741   */\n      tag_261\n      tag_30\n      jump\t// in\n    tag_261:\n        /* \"#utility.yul\":2687:2743   */\n    tag_260:\n        /* \"#utility.yul\":2761:2790   */\n      tag_262\n        /* \"#utility.yul\":2783:2789   */\n      dup3\n        /* \"#utility.yul\":2761:2790   */\n      tag_158\n      jump\t// in\n    tag_262:\n        /* \"#utility.yul\":2753:2790   */\n      swap1\n      pop\n        /* \"#utility.yul\":2845:2849   */\n      0x20\n        /* \"#utility.yul\":2839:2843   */\n      dup2\n        /* \"#utility.yul\":2835:2850   */\n      add\n        /* \"#utility.yul\":2827:2850   */\n      swap1\n      pop\n        /* \"#utility.yul\":2549:2857   */\n      swap2\n      swap1\n      pop\n      jump\t// out\n        /* \"#utility.yul\":2863:3288   */\n    tag_166:\n        /* \"#utility.yul\":2941:2946   */\n      0x00\n        /* \"#utility.yul\":2966:3032   */\n      tag_264\n        /* \"#utility.yul\":2982:3031   */\n      tag_265\n        /* \"#utility.yul\":3024:3030   */\n      dup5\n        /* \"#utility.yul\":2982:3031   */\n      tag_165\n      jump\t// in\n    tag_265:\n        /* \"#utility.yul\":2966:3032   */\n      tag_160\n      jump\t// in\n    tag_264:\n        /* \"#utility.yul\":2957:3032   */\n      swap1\n      pop\n        /* \"#utility.yul\":3055:3061   */\n      dup3\n        /* \"#utility.yul\":3048:3053   */\n      dup2\n        /* \"#utility.yul\":3041:3062   */\n      mstore\n        /* \"#utility.yul\":3093:3097   */\n      0x20\n        /* \"#utility.yul\":3086:3091   */\n      dup2\n        /* \"#utility.yul\":3082:3098   */\n      add\n        /* \"#utility.yul\":3131:3134   */\n      dup5\n        /* \"#utility.yul\":3122:3128   */\n      dup5\n        /* \"#utility.yul\":3117:3120   */\n      dup5\n        /* \"#utility.yul\":3113:3129   */\n      add\n        /* \"#utility.yul\":3110:3135   */\n      gt\n        /* \"#utility.yul\":3107:3219   */\n      iszero\n      tag_266\n      jumpi\n        /* \"#utility.yul\":3138:3217   */\n      tag_267\n      tag_157\n      jump\t// in\n    tag_267:\n        /* \"#utility.yul\":3107:3219   */\n    tag_266:\n        /* \"#utility.yul\":3228:3282   */\n      tag_268\n        /* \"#utility.yul\":3275:3281   */\n      dup5\n        /* \"#utility.yul\":3270:3273   */\n      dup3\n        /* \"#utility.yul\":3265:3268   */\n      dup6\n        /* \"#utility.yul\":3228:3282   */\n      tag_162\n      jump\t// in\n    tag_268:\n        /* \"#utility.yul\":2947:3288   */\n      pop\n        /* \"#utility.yul\":2863:3288   */\n      swap4\n      swap3\n      pop\n      pop\n      pop\n      jump\t// out\n        /* \"#utility.yul\":3308:3648   */\n    tag_167:\n        /* \"#utility.yul\":3364:3369   */\n      0x00\n        /* \"#utility.yul\":3413:3416   */\n      dup3\n        /* \"#utility.yul\":3406:3410   */\n      0x1f\n        /* \"#utility.yul\":3398:3404   */\n      dup4\n        /* \"#utility.yul\":3394:3411   */\n      add\n        /* \"#utility.yul\":3390:3417   */\n      slt\n        /* \"#utility.yul\":3380:3502   */\n      tag_270\n      jumpi\n        /* \"#utility.yul\":3421:3500   */\n      tag_271\n      tag_156\n      jump\t// in\n    tag_271:\n        /* \"#utility.yul\":3380:3502   */\n    tag_270:\n        /* \"#utility.yul\":3538:3544   */\n      dup2\n        /* \"#utility.yul\":3525:3545   */\n      calldataload\n        /* \"#utility.yul\":3563:3642   */\n      tag_272\n        /* \"#utility.yul\":3638:3641   */\n      dup5\n        /* \"#utility.yul\":3630:3636   */\n      dup3\n        /* \"#utility.yul\":3623:3627   */\n      0x20\n        /* \"#utility.yul\":3615:3621   */\n      dup7\n        /* \"#utility.yul\":3611:3628   */\n      add\n        /* \"#utility.yul\":3563:3642   */\n      tag_166\n      jump\t// in\n    tag_272:\n        /* \"#utility.yul\":3554:3642   */\n      swap2\n      pop\n        /* \"#utility.yul\":3370:3648   */\n      pop\n        /* \"#utility.yul\":3308:3648   */\n      swap3\n      swap2\n      pop\n      pop\n      jump\t// out\n        /* \"#utility.yul\":3654:3755   */\n    tag_168:\n        /* \"#utility.yul\":3690:3697   */\n      0x00\n        /* \"#utility.yul\":3730:3748   */\n      0xffffffffffffffff\n        /* \"#utility.yul\":3723:3728   */\n      dup3\n        /* \"#utility.yul\":3719:3749   */\n      and\n        /* \"#utility.yul\":3708:3749   */\n      swap1\n      pop\n        /* \"#utility.yul\":3654:3755   */\n      swap2\n      swap1\n      pop\n      jump\t// out\n        /* \"#utility.yul\":3761:3881   */\n    tag_169:\n        /* \"#utility.yul\":3833:3856   */\n      tag_275\n        /* \"#utility.yul\":3850:3855   */\n      dup2\n        /* \"#utility.yul\":3833:3856   */\n      tag_168\n      jump\t// in\n    tag_275:\n        /* \"#utility.yul\":3826:3831   */\n      dup2\n        /* \"#utility.yul\":3823:3857   */\n      eq\n        /* \"#utility.yul\":3813:3875   */\n      tag_276\n      jumpi\n        /* \"#utility.yul\":3871:3872   */\n      0x00\n        /* \"#utility.yul\":3868:3869   */\n      0x00\n        /* \"#utility.yul\":3861:3873   */\n      revert\n        /* \"#utility.yul\":3813:3875   */\n    tag_276:\n        /* \"#utility.yul\":3761:3881   */\n      pop\n      jump\t// out\n        /* \"#utility.yul\":3887:4024   */\n    tag_170:\n        /* \"#utility.yul\":3932:3937   */\n      0x00\n        /* \"#utility.yul\":3970:3976   */\n      dup2\n        /* \"#utility.yul\":3957:3977   */\n      calldataload\n        /* \"#utility.yul\":3948:3977   */\n      swap1\n      pop\n        /* \"#utility.yul\":3986:4018   */\n      tag_278\n        /* \"#utility.yul\":4012:4017   */\n      dup2\n        /* \"#utility.yul\":3986:4018   */\n      tag_169\n      jump\t// in\n    tag_278:\n        /* \"#utility.yul\":3887:4024   */\n      swap3\n      swap2\n      pop\n      pop\n      jump\t// out\n        /* \"#utility.yul\":4030:5005   */\n    tag_10:\n        /* \"#utility.yul\":4125:4131   */\n      0x00\n        /* \"#utility.yul\":4133:4139   */\n      0x00\n        /* \"#utility.yul\":4141:4147   */\n      0x00\n        /* \"#utility.yul\":4190:4192   */\n      0x60\n        /* \"#utility.yul\":4178:4187   */\n      dup5\n        /* \"#utility.yul\":4169:4176   */\n      dup7\n        /* \"#utility.yul\":4165:4188   */\n      sub\n        /* \"#utility.yul\":4161:4193   */\n      slt\n        /* \"#utility.yul\":4158:4277   */\n      iszero\n      tag_280\n      jumpi\n        /* \"#utility.yul\":4196:4275   */\n      tag_281\n      tag_154\n      jump\t// in\n    tag_281:\n        /* \"#utility.yul\":4158:4277   */\n    tag_280:\n        /* \"#utility.yul\":4344:4345   */\n      0x00\n        /* \"#utility.yul\":4333:4342   */\n      dup5\n        /* \"#utility.yul\":4329:4346   */\n      add\n        /* \"#utility.yul\":4316:4347   */\n      calldataload\n        /* \"#utility.yul\":4374:4392   */\n      0xffffffffffffffff\n        /* \"#utility.yul\":4366:4372   */\n      dup2\n        /* \"#utility.yul\":4363:4393   */\n      gt\n        /* \"#utility.yul\":4360:4477   */\n      iszero\n      tag_282\n      jumpi\n        /* \"#utility.yul\":4396:4475   */\n      tag_283\n      tag_155\n      jump\t// in\n    tag_283:\n        /* \"#utility.yul\":4360:4477   */\n    tag_282:\n        /* \"#utility.yul\":4501:4563   */\n      tag_284\n        /* \"#utility.yul\":4555:4562   */\n      dup7\n        /* \"#utility.yul\":4546:4552   */\n      dup3\n        /* \"#utility.yul\":4535:4544   */\n      dup8\n        /* \"#utility.yul\":4531:4553   */\n      add\n        /* \"#utility.yul\":4501:4563   */\n      tag_164\n      jump\t// in\n    tag_284:\n        /* \"#utility.yul\":4491:4563   */\n      swap4\n      pop\n        /* \"#utility.yul\":4287:4573   */\n      pop\n        /* \"#utility.yul\":4640:4642   */\n      0x20\n        /* \"#utility.yul\":4629:4638   */\n      dup5\n        /* \"#utility.yul\":4625:4643   */\n      add\n        /* \"#utility.yul\":4612:4644   */\n      calldataload\n        /* \"#utility.yul\":4671:4689   */\n      0xffffffffffffffff\n        /* \"#utility.yul\":4663:4669   */\n      dup2\n        /* \"#utility.yul\":4660:4690   */\n      gt\n        /* \"#utility.yul\":4657:4774   */\n      iszero\n      tag_285\n      jumpi\n        /* \"#utility.yul\":4693:4772   */\n      tag_286\n      tag_155\n      jump\t// in\n    tag_286:\n        /* \"#utility.yul\":4657:4774   */\n    tag_285:\n        /* \"#utility.yul\":4798:4861   */\n      tag_287\n        /* \"#utility.yul\":4853:4860   */\n      dup7\n        /* \"#utility.yul\":4844:4850   */\n      dup3\n        /* \"#utility.yul\":4833:4842   */\n      dup8\n        /* \"#utility.yul\":4829:4851   */\n      add\n        /* \"#utility.yul\":4798:4861   */\n      tag_167\n      jump\t// in\n    tag_287:\n        /* \"#utility.yul\":4788:4861   */\n      swap3\n      pop\n        /* \"#utility.yul\":4583:4871   */\n      pop\n        /* \"#utility.yul\":4910:4912   */\n      0x40\n        /* \"#utility.yul\":4936:4988   */\n      tag_288\n        /* \"#utility.yul\":4980:4987   */\n      dup7\n        /* \"#utility.yul\":4971:4977   */\n      dup3\n        /* \"#utility.yul\":4960:4969   */\n      dup8\n        /* \"#utility.yul\":4956:4978   */\n      add\n        /* \"#utility.yul\":4936:4988   */\n      tag_170\n      jump\t// in\n    tag_288:\n        /* \"#utility.yul\":4926:4988   */\n      swap2\n      pop\n        /* \"#utility.yul\":4881:4998   */\n      pop\n        /* \"#utility.yul\":4030:5005   */\n      swap3\n      pop\n      swap3\n      pop\n      swap3\n      jump\t// out\n        /* \"#utility.yul\":5011:5137   */\n    tag_171:\n        /* \"#utility.yul\":5048:5055   */\n      0x00\n        /* \"#utility.yul\":5088:5130   */\n      0xffffffffffffffffffffffffffffffffffffffff\n        /* \"#utility.yul\":5081:5086   */\n      dup3\n        /* \"#utility.yul\":5077:5131   */\n      and\n        /* \"#utility.yul\":5066:5131   */\n      swap1\n      pop\n        /* \"#utility.yul\":5011:5137   */\n      swap2\n      swap1\n      pop\n      jump\t// out\n        /* \"#utility.yul\":5143:5203   */\n    tag_172:\n        /* \"#utility.yul\":5171:5174   */\n      0x00\n        /* \"#utility.yul\":5192:5197   */\n      dup2\n        /* \"#utility.yul\":5185:5197   */\n      swap1\n      pop\n        /* \"#utility.yul\":5143:5203   */\n      swap2\n      swap1\n      pop\n      jump\t// out\n        /* \"#utility.yul\":5209:5351   */\n    tag_173:\n        /* \"#utility.yul\":5259:5268   */\n      0x00\n        /* \"#utility.yul\":5292:5345   */\n      tag_292\n        /* \"#utility.yul\":5310:5344   */\n      tag_293\n        /* \"#utility.yul\":5319:5343   */\n      tag_294\n        /* \"#utility.yul\":5337:5342   */\n      dup5\n        /* \"#utility.yul\":5319:5343   */\n      tag_171\n      jump\t// in\n    tag_294:\n        /* \"#utility.yul\":5310:5344   */\n      tag_172\n      jump\t// in\n    tag_293:\n        /* \"#utility.yul\":5292:5345   */\n      tag_171\n      jump\t// in\n    tag_292:\n        /* \"#utility.yul\":5279:5345   */\n      swap1\n      pop\n        /* \"#utility.yul\":5209:5351   */\n      swap2\n      swap1\n      pop\n      jump\t// out\n        /* \"#utility.yul\":5357:5483   */\n    tag_174:\n        /* \"#utility.yul\":5407:5416   */\n      0x00\n        /* \"#utility.yul\":5440:5477   */\n      tag_296\n        /* \"#utility.yul\":5471:5476   */\n      dup3\n        /* \"#utility.yul\":5440:5477   */\n      tag_173\n      jump\t// in\n    tag_296:\n        /* \"#utility.yul\":5427:5477   */\n      swap1\n      pop\n        /* \"#utility.yul\":5357:5483   */\n      swap2\n      swap1\n      pop\n      jump\t// out\n        /* \"#utility.yul\":5489:5630   */\n    tag_175:\n        /* \"#utility.yul\":5554:5563   */\n      0x00\n        /* \"#utility.yul\":5587:5624   */\n      tag_298\n        /* \"#utility.yul\":5618:5623   */\n      dup3\n        /* \"#utility.yul\":5587:5624   */\n      tag_174\n      jump\t// in\n    tag_298:\n        /* \"#utility.yul\":5574:5624   */\n      swap1\n      pop\n        /* \"#utility.yul\":5489:5630   */\n      swap2\n      swap1\n      pop\n      jump\t// out\n        /* \"#utility.yul\":5636:5797   */\n    tag_176:\n        /* \"#utility.yul\":5738:5790   */\n      tag_300\n        /* \"#utility.yul\":5784:5789   */\n      dup2\n        /* \"#utility.yul\":5738:5790   */\n      tag_175\n      jump\t// in\n    tag_300:\n        /* \"#utility.yul\":5733:5736   */\n      dup3\n        /* \"#utility.yul\":5726:5791   */\n      mstore\n        /* \"#utility.yul\":5636:5797   */\n      pop\n      pop\n      jump\t// out\n        /* \"#utility.yul\":5803:6055   */\n    tag_18:\n        /* \"#utility.yul\":5911:5915   */\n      0x00\n        /* \"#utility.yul\":5949:5951   */\n      0x20\n        /* \"#utility.yul\":5938:5947   */\n      dup3\n        /* \"#utility.yul\":5934:5952   */\n      add\n        /* \"#utility.yul\":5926:5952   */\n      swap1\n      pop\n        /* \"#utility.yul\":5962:6048   */\n      tag_302\n        /* \"#utility.yul\":6045:6046   */\n      0x00\n        /* \"#utility.yul\":6034:6043   */\n      dup4\n        /* \"#utility.yul\":6030:6047   */\n      add\n        /* \"#utility.yul\":6021:6027   */\n      dup5\n        /* \"#utility.yul\":5962:6048   */\n      tag_176\n      jump\t// in\n    tag_302:\n        /* \"#utility.yul\":5803:6055   */\n      swap3\n      swap2\n      pop\n      pop\n      jump\t// out\n        /* \"#utility.yul\":6061:6179   */\n    tag_177:\n        /* \"#utility.yul\":6098:6105   */\n      0x00\n        /* \"#utility.yul\":6138:6172   */\n      0xffffffffffffffffffffffffffffffff\n        /* \"#utility.yul\":6131:6136   */\n      dup3\n        /* \"#utility.yul\":6127:6173   */\n      and\n        /* \"#utility.yul\":6116:6173   */\n      swap1\n      pop\n        /* \"#utility.yul\":6061:6179   */\n      swap2\n      swap1\n      pop\n      jump\t// out\n        /* \"#utility.yul\":6185:6307   */\n    tag_178:\n        /* \"#utility.yul\":6258:6282   */\n      tag_305\n        /* \"#utility.yul\":6276:6281   */\n      dup2\n        /* \"#utility.yul\":6258:6282   */\n      tag_177\n      jump\t// in\n    tag_305:\n        /* \"#utility.yul\":6251:6256   */\n      dup2\n        /* \"#utility.yul\":6248:6283   */\n      eq\n        /* \"#utility.yul\":6238:6301   */\n      tag_306\n      jumpi\n        /* \"#utility.yul\":6297:6298   */\n      0x00\n        /* \"#utility.yul\":6294:6295   */\n      0x00\n        /* \"#utility.yul\":6287:6299   */\n      revert\n        /* \"#utility.yul\":6238:6301   */\n    tag_306:\n        /* \"#utility.yul\":6185:6307   */\n      pop\n      jump\t// out\n        /* \"#utility.yul\":6313:6452   */\n    tag_179:\n        /* \"#utility.yul\":6359:6364   */\n      0x00\n        /* \"#utility.yul\":6397:6403   */\n      dup2\n        /* \"#utility.yul\":6384:6404   */\n      calldataload\n        /* \"#utility.yul\":6375:6404   */\n      swap1\n      pop\n        /* \"#utility.yul\":6413:6446   */\n      tag_308\n        /* \"#utility.yul\":6440:6445   */\n      dup2\n        /* \"#utility.yul\":6413:6446   */\n      tag_178\n      jump\t// in\n    tag_308:\n        /* \"#utility.yul\":6313:6452   */\n      swap3\n      swap2\n      pop\n      pop\n      jump\t// out\n        /* \"#utility.yul\":6458:6548   */\n    tag_180:\n        /* \"#utility.yul\":6492:6499   */\n      0x00\n        /* \"#utility.yul\":6535:6540   */\n      dup2\n        /* \"#utility.yul\":6528:6541   */\n      iszero\n        /* \"#utility.yul\":6521:6542   */\n      iszero\n        /* \"#utility.yul\":6510:6542   */\n      swap1\n      pop\n        /* \"#utility.yul\":6458:6548   */\n      swap2\n      swap1\n      pop\n      jump\t// out\n        /* \"#utility.yul\":6554:6670   */\n    tag_181:\n        /* \"#utility.yul\":6624:6645   */\n      tag_311\n        /* \"#utility.yul\":6639:6644   */\n      dup2\n        /* \"#utility.yul\":6624:6645   */\n      tag_180\n      jump\t// in\n    tag_311:\n        /* \"#utility.yul\":6617:6622   */\n      dup2\n        /* \"#utility.yul\":6614:6646   */\n      eq\n        /* \"#utility.yul\":6604:6664   */\n      tag_312\n      jumpi\n        /* \"#utility.yul\":6660:6661   */\n      0x00\n        /* \"#utility.yul\":6657:6658   */\n      0x00\n        /* \"#utility.yul\":6650:6662   */\n      revert\n        /* \"#utility.yul\":6604:6664   */\n    tag_312:\n        /* \"#utility.yul\":6554:6670   */\n      pop\n      jump\t// out\n        /* \"#utility.yul\":6676:6809   */\n    tag_182:\n        /* \"#utility.yul\":6719:6724   */\n      0x00\n        /* \"#utility.yul\":6757:6763   */\n      dup2\n        /* \"#utility.yul\":6744:6764   */\n      calldataload\n        /* \"#utility.yul\":6735:6764   */\n      swap1\n      pop\n        /* \"#utility.yul\":6773:6803   */\n      tag_314\n        /* \"#utility.yul\":6797:6802   */\n      dup2\n        /* \"#utility.yul\":6773:6803   */\n      tag_181\n      jump\t// in\n    tag_314:\n        /* \"#utility.yul\":6676:6809   */\n      swap3\n      swap2\n      pop\n      pop\n      jump\t// out\n        /* \"#utility.yul\":6815:6908   */\n    tag_183:\n        /* \"#utility.yul\":6851:6858   */\n      0x00\n        /* \"#utility.yul\":6891:6901   */\n      0xffffffff\n        /* \"#utility.yul\":6884:6889   */\n      dup3\n        /* \"#utility.yul\":6880:6902   */\n      and\n        /* \"#utility.yul\":6869:6902   */\n      swap1\n      pop\n        /* \"#utility.yul\":6815:6908   */\n      swap2\n      swap1\n      pop\n      jump\t// out\n        /* \"#utility.yul\":6914:7034   */\n    tag_184:\n        /* \"#utility.yul\":6986:7009   */\n      tag_317\n        /* \"#utility.yul\":7003:7008   */\n      dup2\n        /* \"#utility.yul\":6986:7009   */\n      tag_183\n      jump\t// in\n    tag_317:\n        /* \"#utility.yul\":6979:6984   */\n      dup2\n        /* \"#utility.yul\":6976:7010   */\n      eq\n        /* \"#utility.yul\":6966:7028   */\n      tag_318\n      jumpi\n        /* \"#utility.yul\":7024:7025   */\n      0x00\n        /* \"#utility.yul\":7021:7022   */\n      0x00\n        /* \"#utility.yul\":7014:7026   */\n      revert\n        /* \"#utility.yul\":6966:7028   */\n    tag_318:\n        /* \"#utility.yul\":6914:7034   */\n      pop\n      jump\t// out\n        /* \"#utility.yul\":7040:7177   */\n    tag_185:\n        /* \"#utility.yul\":7085:7090   */\n      0x00\n        /* \"#utility.yul\":7123:7129   */\n      dup2\n        /* \"#utility.yul\":7110:7130   */\n      calldataload\n        /* \"#utility.yul\":7101:7130   */\n      swap1\n      pop\n        /* \"#utility.yul\":7139:7171   */\n      tag_320\n        /* \"#utility.yul\":7165:7170   */\n      dup2\n        /* \"#utility.yul\":7139:7171   */\n      tag_184\n      jump\t// in\n    tag_320:\n        /* \"#utility.yul\":7040:7177   */\n      swap3\n      swap2\n      pop\n      pop\n      jump\t// out\n        /* \"#utility.yul\":7183:9892   */\n    tag_21:\n        /* \"#utility.yul\":7377:7383   */\n      0x00\n        /* \"#utility.yul\":7385:7391   */\n      0x00\n        /* \"#utility.yul\":7393:7399   */\n      0x00\n        /* \"#utility.yul\":7401:7407   */\n      0x00\n        /* \"#utility.yul\":7409:7415   */\n      0x00\n        /* \"#utility.yul\":7417:7423   */\n      0x00\n        /* \"#utility.yul\":7425:7431   */\n      0x00\n        /* \"#utility.yul\":7433:7439   */\n      0x00\n        /* \"#utility.yul\":7441:7447   */\n      0x00\n        /* \"#utility.yul\":7449:7455   */\n      0x00\n        /* \"#utility.yul\":7498:7501   */\n      0x0140\n        /* \"#utility.yul\":7486:7495   */\n      dup12\n        /* \"#utility.yul\":7477:7484   */\n      dup14\n        /* \"#utility.yul\":7473:7496   */\n      sub\n        /* \"#utility.yul\":7469:7502   */\n      slt\n        /* \"#utility.yul\":7466:7586   */\n      iszero\n      tag_322\n      jumpi\n        /* \"#utility.yul\":7505:7584   */\n      tag_323\n      tag_154\n      jump\t// in\n    tag_323:\n        /* \"#utility.yul\":7466:7586   */\n    tag_322:\n        /* \"#utility.yul\":7653:7654   */\n      0x00\n        /* \"#utility.yul\":7642:7651   */\n      dup12\n        /* \"#utility.yul\":7638:7655   */\n      add\n        /* \"#utility.yul\":7625:7656   */\n      calldataload\n        /* \"#utility.yul\":7683:7701   */\n      0xffffffffffffffff\n        /* \"#utility.yul\":7675:7681   */\n      dup2\n        /* \"#utility.yul\":7672:7702   */\n      gt\n        /* \"#utility.yul\":7669:7786   */\n      iszero\n      tag_324\n      jumpi\n        /* \"#utility.yul\":7705:7784   */\n      tag_325\n      tag_155\n      jump\t// in\n    tag_325:\n        /* \"#utility.yul\":7669:7786   */\n    tag_324:\n        /* \"#utility.yul\":7810:7872   */\n      tag_326\n        /* \"#utility.yul\":7864:7871   */\n      dup14\n        /* \"#utility.yul\":7855:7861   */\n      dup3\n        /* \"#utility.yul\":7844:7853   */\n      dup15\n        /* \"#utility.yul\":7840:7862   */\n      add\n        /* \"#utility.yul\":7810:7872   */\n      tag_164\n      jump\t// in\n    tag_326:\n        /* \"#utility.yul\":7800:7872   */\n      swap11\n      pop\n        /* \"#utility.yul\":7596:7882   */\n      pop\n        /* \"#utility.yul\":7949:7951   */\n      0x20\n        /* \"#utility.yul\":7938:7947   */\n      dup12\n        /* \"#utility.yul\":7934:7952   */\n      add\n        /* \"#utility.yul\":7921:7953   */\n      calldataload\n        /* \"#utility.yul\":7980:7998   */\n      0xffffffffffffffff\n        /* \"#utility.yul\":7972:7978   */\n      dup2\n        /* \"#utility.yul\":7969:7999   */\n      gt\n        /* \"#utility.yul\":7966:8083   */\n      iszero\n      tag_327\n      jumpi\n        /* \"#utility.yul\":8002:8081   */\n      tag_328\n      tag_155\n      jump\t// in\n    tag_328:\n        /* \"#utility.yul\":7966:8083   */\n    tag_327:\n        /* \"#utility.yul\":8107:8170   */\n      tag_329\n        /* \"#utility.yul\":8162:8169   */\n      dup14\n        /* \"#utility.yul\":8153:8159   */\n      dup3\n        /* \"#utility.yul\":8142:8151   */\n      dup15\n        /* \"#utility.yul\":8138:8160   */\n      add\n        /* \"#utility.yul\":8107:8170   */\n      tag_167\n      jump\t// in\n    tag_329:\n        /* \"#utility.yul\":8097:8170   */\n      swap10\n      pop\n        /* \"#utility.yul\":7892:8180   */\n      pop\n        /* \"#utility.yul\":8247:8249   */\n      0x40\n        /* \"#utility.yul\":8236:8245   */\n      dup12\n        /* \"#utility.yul\":8232:8250   */\n      add\n        /* \"#utility.yul\":8219:8251   */\n      calldataload\n        /* \"#utility.yul\":8278:8296   */\n      0xffffffffffffffff\n        /* \"#utility.yul\":8270:8276   */\n      dup2\n        /* \"#utility.yul\":8267:8297   */\n      gt\n        /* \"#utility.yul\":8264:8381   */\n      iszero\n      tag_330\n      jumpi\n        /* \"#utility.yul\":8300:8379   */\n      tag_331\n      tag_155\n      jump\t// in\n    tag_331:\n        /* \"#utility.yul\":8264:8381   */\n    tag_330:\n        /* \"#utility.yul\":8405:8468   */\n      tag_332\n        /* \"#utility.yul\":8460:8467   */\n      dup14\n        /* \"#utility.yul\":8451:8457   */\n      dup3\n        /* \"#utility.yul\":8440:8449   */\n      dup15\n        /* \"#utility.yul\":8436:8458   */\n      add\n        /* \"#utility.yul\":8405:8468   */\n      tag_167\n      jump\t// in\n    tag_332:\n        /* \"#utility.yul\":8395:8468   */\n      swap9\n      pop\n        /* \"#utility.yul\":8190:8478   */\n      pop\n        /* \"#utility.yul\":8517:8519   */\n      0x60\n        /* \"#utility.yul\":8543:8595   */\n      tag_333\n        /* \"#utility.yul\":8587:8594   */\n      dup14\n        /* \"#utility.yul\":8578:8584   */\n      dup3\n        /* \"#utility.yul\":8567:8576   */\n      dup15\n        /* \"#utility.yul\":8563:8585   */\n      add\n        /* \"#utility.yul\":8543:8595   */\n      tag_170\n      jump\t// in\n    tag_333:\n        /* \"#utility.yul\":8533:8595   */\n      swap8\n      pop\n        /* \"#utility.yul\":8488:8605   */\n      pop\n        /* \"#utility.yul\":8644:8647   */\n      0x80\n        /* \"#utility.yul\":8671:8724   */\n      tag_334\n        /* \"#utility.yul\":8716:8723   */\n      dup14\n        /* \"#utility.yul\":8707:8713   */\n      dup3\n        /* \"#utility.yul\":8696:8705   */\n      dup15\n        /* \"#utility.yul\":8692:8714   */\n      add\n        /* \"#utility.yul\":8671:8724   */\n      tag_179\n      jump\t// in\n    tag_334:\n        /* \"#utility.yul\":8661:8724   */\n      swap7\n      pop\n        /* \"#utility.yul\":8615:8734   */\n      pop\n        /* \"#utility.yul\":8773:8776   */\n      0xa0\n        /* \"#utility.yul\":8800:8850   */\n      tag_335\n        /* \"#utility.yul\":8842:8849   */\n      dup14\n        /* \"#utility.yul\":8833:8839   */\n      dup3\n        /* \"#utility.yul\":8822:8831   */\n      dup15\n        /* \"#utility.yul\":8818:8840   */\n      add\n        /* \"#utility.yul\":8800:8850   */\n      tag_182\n      jump\t// in\n    tag_335:\n        /* \"#utility.yul\":8790:8850   */\n      swap6\n      pop\n        /* \"#utility.yul\":8744:8860   */\n      pop\n        /* \"#utility.yul\":8899:8902   */\n      0xc0\n        /* \"#utility.yul\":8926:8978   */\n      tag_336\n        /* \"#utility.yul\":8970:8977   */\n      dup14\n        /* \"#utility.yul\":8961:8967   */\n      dup3\n        /* \"#utility.yul\":8950:8959   */\n      dup15\n        /* \"#utility.yul\":8946:8968   */\n      add\n        /* \"#utility.yul\":8926:8978   */\n      tag_185\n      jump\t// in\n    tag_336:\n        /* \"#utility.yul\":8916:8978   */\n      swap5\n      pop\n        /* \"#utility.yul\":8870:8988   */\n      pop\n        /* \"#utility.yul\":9055:9058   */\n      0xe0\n        /* \"#utility.yul\":9044:9053   */\n      dup12\n        /* \"#utility.yul\":9040:9059   */\n      add\n        /* \"#utility.yul\":9027:9060   */\n      calldataload\n        /* \"#utility.yul\":9087:9105   */\n      0xffffffffffffffff\n        /* \"#utility.yul\":9079:9085   */\n      dup2\n        /* \"#utility.yul\":9076:9106   */\n      gt\n        /* \"#utility.yul\":9073:9190   */\n      iszero\n      tag_337\n      jumpi\n        /* \"#utility.yul\":9109:9188   */\n      tag_338\n      tag_155\n      jump\t// in\n    tag_338:\n        /* \"#utility.yul\":9073:9190   */\n    tag_337:\n        /* \"#utility.yul\":9214:9277   */\n      tag_339\n        /* \"#utility.yul\":9269:9276   */\n      dup14\n        /* \"#utility.yul\":9260:9266   */\n      dup3\n        /* \"#utility.yul\":9249:9258   */\n      dup15\n        /* \"#utility.yul\":9245:9267   */\n      add\n        /* \"#utility.yul\":9214:9277   */\n      tag_167\n      jump\t// in\n    tag_339:\n        /* \"#utility.yul\":9204:9277   */\n      swap4\n      pop\n        /* \"#utility.yul\":8998:9287   */\n      pop\n        /* \"#utility.yul\":9354:9357   */\n      0x0100\n        /* \"#utility.yul\":9343:9352   */\n      dup12\n        /* \"#utility.yul\":9339:9358   */\n      add\n        /* \"#utility.yul\":9326:9359   */\n      calldataload\n        /* \"#utility.yul\":9386:9404   */\n      0xffffffffffffffff\n        /* \"#utility.yul\":9378:9384   */\n      dup2\n        /* \"#utility.yul\":9375:9405   */\n      gt\n        /* \"#utility.yul\":9372:9489   */\n      iszero\n      tag_340\n      jumpi\n        /* \"#utility.yul\":9408:9487   */\n      tag_341\n      tag_155\n      jump\t// in\n    tag_341:\n        /* \"#utility.yul\":9372:9489   */\n    tag_340:\n        /* \"#utility.yul\":9513:9576   */\n      tag_342\n        /* \"#utility.yul\":9568:9575   */\n      dup14\n        /* \"#utility.yul\":9559:9565   */\n      dup3\n        /* \"#utility.yul\":9548:9557   */\n      dup15\n        /* \"#utility.yul\":9544:9566   */\n      add\n        /* \"#utility.yul\":9513:9576   */\n      tag_167\n      jump\t// in\n    tag_342:\n        /* \"#utility.yul\":9503:9576   */\n      swap3\n      pop\n        /* \"#utility.yul\":9297:9586   */\n      pop\n        /* \"#utility.yul\":9653:9656   */\n      0x0120\n        /* \"#utility.yul\":9642:9651   */\n      dup12\n        /* \"#utility.yul\":9638:9657   */\n      add\n        /* \"#utility.yul\":9625:9658   */\n      calldataload\n        /* \"#utility.yul\":9685:9703   */\n      0xffffffffffffffff\n        /* \"#utility.yul\":9677:9683   */\n      dup2\n        /* \"#utility.yul\":9674:9704   */\n      gt\n        /* \"#utility.yul\":9671:9788   */\n      iszero\n      tag_343\n      jumpi\n        /* \"#utility.yul\":9707:9786   */\n      tag_344\n      tag_155\n      jump\t// in\n    tag_344:\n        /* \"#utility.yul\":9671:9788   */\n    tag_343:\n        /* \"#utility.yul\":9812:9875   */\n      tag_345\n        /* \"#utility.yul\":9867:9874   */\n      dup14\n        /* \"#utility.yul\":9858:9864   */\n      dup3\n        /* \"#utility.yul\":9847:9856   */\n      dup15\n        /* \"#utility.yul\":9843:9865   */\n      add\n        /* \"#utility.yul\":9812:9875   */\n      tag_167\n      jump\t// in\n    tag_345:\n        /* \"#utility.yul\":9802:9875   */\n      swap2\n      pop\n        /* \"#utility.yul\":9596:9885   */\n      pop\n        /* \"#utility.yul\":7183:9892   */\n      swap3\n      swap6\n      swap9\n      swap12\n      swap2\n      swap5\n      swap8\n      swap11\n      pop\n      swap3\n      swap6\n      swap9\n      pop\n      jump\t// out\n        /* \"#utility.yul\":9898:10208   */\n    tag_186:\n        /* \"#utility.yul\":9974:9978   */\n      0x00\n        /* \"#utility.yul\":10064:10082   */\n      0xffffffffffffffff\n        /* \"#utility.yul\":10056:10062   */\n      dup3\n        /* \"#utility.yul\":10053:10083   */\n      gt\n        /* \"#utility.yul\":10050:10106   */\n      iszero\n      tag_347\n      jumpi\n        /* \"#utility.yul\":10086:10104   */\n      tag_348\n      tag_30\n      jump\t// in\n    tag_348:\n        /* \"#utility.yul\":10050:10106   */\n    tag_347:\n        /* \"#utility.yul\":10136:10140   */\n      0x20\n        /* \"#utility.yul\":10128:10134   */\n      dup3\n        /* \"#utility.yul\":10124:10141   */\n      mul\n        /* \"#utility.yul\":10116:10141   */\n      swap1\n      pop\n        /* \"#utility.yul\":10196:10200   */\n      0x20\n        /* \"#utility.yul\":10190:10194   */\n      dup2\n        /* \"#utility.yul\":10186:10201   */\n      add\n        /* \"#utility.yul\":10178:10201   */\n      swap1\n      pop\n        /* \"#utility.yul\":9898:10208   */\n      swap2\n      swap1\n      pop\n      jump\t// out\n        /* \"#utility.yul\":10214:10331   */\n    tag_187:\n        /* \"#utility.yul\":10323:10324   */\n      0x00\n        /* \"#utility.yul\":10320:10321   */\n      0x00\n        /* \"#utility.yul\":10313:10325   */\n      revert\n        /* \"#utility.yul\":10353:11060   */\n    tag_188:\n        /* \"#utility.yul\":10448:10453   */\n      0x00\n        /* \"#utility.yul\":10473:10553   */\n      tag_351\n        /* \"#utility.yul\":10489:10552   */\n      tag_352\n        /* \"#utility.yul\":10545:10551   */\n      dup5\n        /* \"#utility.yul\":10489:10552   */\n      tag_186\n      jump\t// in\n    tag_352:\n        /* \"#utility.yul\":10473:10553   */\n      tag_160\n      jump\t// in\n    tag_351:\n        /* \"#utility.yul\":10464:10553   */\n      swap1\n      pop\n        /* \"#utility.yul\":10573:10578   */\n      dup1\n        /* \"#utility.yul\":10602:10608   */\n      dup4\n        /* \"#utility.yul\":10595:10600   */\n      dup3\n        /* \"#utility.yul\":10588:10609   */\n      mstore\n        /* \"#utility.yul\":10636:10640   */\n      0x20\n        /* \"#utility.yul\":10629:10634   */\n      dup3\n        /* \"#utility.yul\":10625:10641   */\n      add\n        /* \"#utility.yul\":10618:10641   */\n      swap1\n      pop\n        /* \"#utility.yul\":10689:10693   */\n      0x20\n        /* \"#utility.yul\":10681:10687   */\n      dup5\n        /* \"#utility.yul\":10677:10694   */\n      mul\n        /* \"#utility.yul\":10669:10675   */\n      dup4\n        /* \"#utility.yul\":10665:10695   */\n      add\n        /* \"#utility.yul\":10718:10721   */\n      dup6\n        /* \"#utility.yul\":10710:10716   */\n      dup2\n        /* \"#utility.yul\":10707:10722   */\n      gt\n        /* \"#utility.yul\":10704:10826   */\n      iszero\n      tag_353\n      jumpi\n        /* \"#utility.yul\":10737:10816   */\n      tag_354\n      tag_187\n      jump\t// in\n    tag_354:\n        /* \"#utility.yul\":10704:10826   */\n    tag_353:\n        /* \"#utility.yul\":10852:10858   */\n      dup4\n        /* \"#utility.yul\":10835:11054   */\n    tag_355:\n        /* \"#utility.yul\":10869:10875   */\n      dup2\n        /* \"#utility.yul\":10864:10867   */\n      dup2\n        /* \"#utility.yul\":10861:10876   */\n      lt\n        /* \"#utility.yul\":10835:11054   */\n      iszero\n      tag_357\n      jumpi\n        /* \"#utility.yul\":10944:10947   */\n      dup1\n        /* \"#utility.yul\":10973:11009   */\n      tag_358\n        /* \"#utility.yul\":11005:11008   */\n      dup9\n        /* \"#utility.yul\":10993:11003   */\n      dup3\n        /* \"#utility.yul\":10973:11009   */\n      tag_170\n      jump\t// in\n    tag_358:\n        /* \"#utility.yul\":10968:10971   */\n      dup5\n        /* \"#utility.yul\":10961:11010   */\n      mstore\n        /* \"#utility.yul\":11039:11043   */\n      0x20\n        /* \"#utility.yul\":11034:11037   */\n      dup5\n        /* \"#utility.yul\":11030:11044   */\n      add\n        /* \"#utility.yul\":11023:11044   */\n      swap4\n      pop\n        /* \"#utility.yul\":10911:11054   */\n      pop\n        /* \"#utility.yul\":10895:10899   */\n      0x20\n        /* \"#utility.yul\":10890:10893   */\n      dup2\n        /* \"#utility.yul\":10886:10900   */\n      add\n        /* \"#utility.yul\":10879:10900   */\n      swap1\n      pop\n        /* \"#utility.yul\":10835:11054   */\n      jump(tag_355)\n    tag_357:\n        /* \"#utility.yul\":10839:10860   */\n      pop\n        /* \"#utility.yul\":10454:11060   */\n      pop\n      pop\n        /* \"#utility.yul\":10353:11060   */\n      swap4\n      swap3\n      pop\n      pop\n      pop\n      jump\t// out\n        /* \"#utility.yul\":11082:11450   */\n    tag_189:\n        /* \"#utility.yul\":11152:11157   */\n      0x00\n        /* \"#utility.yul\":11201:11204   */\n      dup3\n        /* \"#utility.yul\":11194:11198   */\n      0x1f\n        /* \"#utility.yul\":11186:11192   */\n      dup4\n        /* \"#utility.yul\":11182:11199   */\n      add\n        /* \"#utility.yul\":11178:11205   */\n      slt\n        /* \"#utility.yul\":11168:11290   */\n      tag_360\n      jumpi\n        /* \"#utility.yul\":11209:11288   */\n      tag_361\n      tag_156\n      jump\t// in\n    tag_361:\n        /* \"#utility.yul\":11168:11290   */\n    tag_360:\n        /* \"#utility.yul\":11326:11332   */\n      dup2\n        /* \"#utility.yul\":11313:11333   */\n      calldataload\n        /* \"#utility.yul\":11351:11444   */\n      tag_362\n        /* \"#utility.yul\":11440:11443   */\n      dup5\n        /* \"#utility.yul\":11432:11438   */\n      dup3\n        /* \"#utility.yul\":11425:11429   */\n      0x20\n        /* \"#utility.yul\":11417:11423   */\n      dup7\n        /* \"#utility.yul\":11413:11430   */\n      add\n        /* \"#utility.yul\":11351:11444   */\n      tag_188\n      jump\t// in\n    tag_362:\n        /* \"#utility.yul\":11342:11444   */\n      swap2\n      pop\n        /* \"#utility.yul\":11158:11450   */\n      pop\n        /* \"#utility.yul\":11082:11450   */\n      swap3\n      swap2\n      pop\n      pop\n      jump\t// out\n        /* \"#utility.yul\":11456:14731   */\n    tag_25:\n        /* \"#utility.yul\":11708:11714   */\n      0x00\n        /* \"#utility.yul\":11716:11722   */\n      0x00\n        /* \"#utility.yul\":11724:11730   */\n      0x00\n        /* \"#utility.yul\":11732:11738   */\n      0x00\n        /* \"#utility.yul\":11740:11746   */\n      0x00\n        /* \"#utility.yul\":11748:11754   */\n      0x00\n        /* \"#utility.yul\":11756:11762   */\n      0x00\n        /* \"#utility.yul\":11764:11770   */\n      0x00\n        /* \"#utility.yul\":11772:11778   */\n      0x00\n        /* \"#utility.yul\":11780:11786   */\n      0x00\n        /* \"#utility.yul\":11788:11795   */\n      0x00\n        /* \"#utility.yul\":11838:11841   */\n      0x0160\n        /* \"#utility.yul\":11826:11835   */\n      dup13\n        /* \"#utility.yul\":11817:11824   */\n      dup15\n        /* \"#utility.yul\":11813:11836   */\n      sub\n        /* \"#utility.yul\":11809:11842   */\n      slt\n        /* \"#utility.yul\":11806:11926   */\n      iszero\n      tag_364\n      jumpi\n        /* \"#utility.yul\":11845:11924   */\n      tag_365\n      tag_154\n      jump\t// in\n    tag_365:\n        /* \"#utility.yul\":11806:11926   */\n    tag_364:\n        /* \"#utility.yul\":11993:11994   */\n      0x00\n        /* \"#utility.yul\":11982:11991   */\n      dup13\n        /* \"#utility.yul\":11978:11995   */\n      add\n        /* \"#utility.yul\":11965:11996   */\n      calldataload\n        /* \"#utility.yul\":12023:12041   */\n      0xffffffffffffffff\n        /* \"#utility.yul\":12015:12021   */\n      dup2\n        /* \"#utility.yul\":12012:12042   */\n      gt\n        /* \"#utility.yul\":12009:12126   */\n      iszero\n      tag_366\n      jumpi\n        /* \"#utility.yul\":12045:12124   */\n      tag_367\n      tag_155\n      jump\t// in\n    tag_367:\n        /* \"#utility.yul\":12009:12126   */\n    tag_366:\n        /* \"#utility.yul\":12150:12212   */\n      tag_368\n        /* \"#utility.yul\":12204:12211   */\n      dup15\n        /* \"#utility.yul\":12195:12201   */\n      dup3\n        /* \"#utility.yul\":12184:12193   */\n      dup16\n        /* \"#utility.yul\":12180:12202   */\n      add\n        /* \"#utility.yul\":12150:12212   */\n      tag_164\n      jump\t// in\n    tag_368:\n        /* \"#utility.yul\":12140:12212   */\n      swap12\n      pop\n        /* \"#utility.yul\":11936:12222   */\n      pop\n        /* \"#utility.yul\":12289:12291   */\n      0x20\n        /* \"#utility.yul\":12278:12287   */\n      dup13\n        /* \"#utility.yul\":12274:12292   */\n      add\n        /* \"#utility.yul\":12261:12293   */\n      calldataload\n        /* \"#utility.yul\":12320:12338   */\n      0xffffffffffffffff\n        /* \"#utility.yul\":12312:12318   */\n      dup2\n        /* \"#utility.yul\":12309:12339   */\n      gt\n        /* \"#utility.yul\":12306:12423   */\n      iszero\n      tag_369\n      jumpi\n        /* \"#utility.yul\":12342:12421   */\n      tag_370\n      tag_155\n      jump\t// in\n    tag_370:\n        /* \"#utility.yul\":12306:12423   */\n    tag_369:\n        /* \"#utility.yul\":12447:12510   */\n      tag_371\n        /* \"#utility.yul\":12502:12509   */\n      dup15\n        /* \"#utility.yul\":12493:12499   */\n      dup3\n        /* \"#utility.yul\":12482:12491   */\n      dup16\n        /* \"#utility.yul\":12478:12500   */\n      add\n        /* \"#utility.yul\":12447:12510   */\n      tag_167\n      jump\t// in\n    tag_371:\n        /* \"#utility.yul\":12437:12510   */\n      swap11\n      pop\n        /* \"#utility.yul\":12232:12520   */\n      pop\n        /* \"#utility.yul\":12587:12589   */\n      0x40\n        /* \"#utility.yul\":12576:12585   */\n      dup13\n        /* \"#utility.yul\":12572:12590   */\n      add\n        /* \"#utility.yul\":12559:12591   */\n      calldataload\n        /* \"#utility.yul\":12618:12636   */\n      0xffffffffffffffff\n        /* \"#utility.yul\":12610:12616   */\n      dup2\n        /* \"#utility.yul\":12607:12637   */\n      gt\n        /* \"#utility.yul\":12604:12721   */\n      iszero\n      tag_372\n      jumpi\n        /* \"#utility.yul\":12640:12719   */\n      tag_373\n      tag_155\n      jump\t// in\n    tag_373:\n        /* \"#utility.yul\":12604:12721   */\n    tag_372:\n        /* \"#utility.yul\":12745:12808   */\n      tag_374\n        /* \"#utility.yul\":12800:12807   */\n      dup15\n        /* \"#utility.yul\":12791:12797   */\n      dup3\n        /* \"#utility.yul\":12780:12789   */\n      dup16\n        /* \"#utility.yul\":12776:12798   */\n      add\n        /* \"#utility.yul\":12745:12808   */\n      tag_167\n      jump\t// in\n    tag_374:\n        /* \"#utility.yul\":12735:12808   */\n      swap10\n      pop\n        /* \"#utility.yul\":12530:12818   */\n      pop\n        /* \"#utility.yul\":12885:12887   */\n      0x60\n        /* \"#utility.yul\":12874:12883   */\n      dup13\n        /* \"#utility.yul\":12870:12888   */\n      add\n        /* \"#utility.yul\":12857:12889   */\n      calldataload\n        /* \"#utility.yul\":12916:12934   */\n      0xffffffffffffffff\n        /* \"#utility.yul\":12908:12914   */\n      dup2\n        /* \"#utility.yul\":12905:12935   */\n      gt\n        /* \"#utility.yul\":12902:13019   */\n      iszero\n      tag_375\n      jumpi\n        /* \"#utility.yul\":12938:13017   */\n      tag_376\n      tag_155\n      jump\t// in\n    tag_376:\n        /* \"#utility.yul\":12902:13019   */\n    tag_375:\n        /* \"#utility.yul\":13043:13120   */\n      tag_377\n        /* \"#utility.yul\":13112:13119   */\n      dup15\n        /* \"#utility.yul\":13103:13109   */\n      dup3\n        /* \"#utility.yul\":13092:13101   */\n      dup16\n        /* \"#utility.yul\":13088:13110   */\n      add\n        /* \"#utility.yul\":13043:13120   */\n      tag_189\n      jump\t// in\n    tag_377:\n        /* \"#utility.yul\":13033:13120   */\n      swap9\n      pop\n        /* \"#utility.yul\":12828:13130   */\n      pop\n        /* \"#utility.yul\":13197:13200   */\n      0x80\n        /* \"#utility.yul\":13186:13195   */\n      dup13\n        /* \"#utility.yul\":13182:13201   */\n      add\n        /* \"#utility.yul\":13169:13202   */\n      calldataload\n        /* \"#utility.yul\":13229:13247   */\n      0xffffffffffffffff\n        /* \"#utility.yul\":13221:13227   */\n      dup2\n        /* \"#utility.yul\":13218:13248   */\n      gt\n        /* \"#utility.yul\":13215:13332   */\n      iszero\n      tag_378\n      jumpi\n        /* \"#utility.yul\":13251:13330   */\n      tag_379\n      tag_155\n      jump\t// in\n    tag_379:\n        /* \"#utility.yul\":13215:13332   */\n    tag_378:\n        /* \"#utility.yul\":13356:13433   */\n      tag_380\n        /* \"#utility.yul\":13425:13432   */\n      dup15\n        /* \"#utility.yul\":13416:13422   */\n      dup3\n        /* \"#utility.yul\":13405:13414   */\n      dup16\n        /* \"#utility.yul\":13401:13423   */\n      add\n        /* \"#utility.yul\":13356:13433   */\n      tag_189\n      jump\t// in\n    tag_380:\n        /* \"#utility.yul\":13346:13433   */\n      swap8\n      pop\n        /* \"#utility.yul\":13140:13443   */\n      pop\n        /* \"#utility.yul\":13482:13485   */\n      0xa0\n        /* \"#utility.yul\":13509:13562   */\n      tag_381\n        /* \"#utility.yul\":13554:13561   */\n      dup15\n        /* \"#utility.yul\":13545:13551   */\n      dup3\n        /* \"#utility.yul\":13534:13543   */\n      dup16\n        /* \"#utility.yul\":13530:13552   */\n      add\n        /* \"#utility.yul\":13509:13562   */\n      tag_179\n      jump\t// in\n    tag_381:\n        /* \"#utility.yul\":13499:13562   */\n      swap7\n      pop\n        /* \"#utility.yul\":13453:13572   */\n      pop\n        /* \"#utility.yul\":13611:13614   */\n      0xc0\n        /* \"#utility.yul\":13638:13688   */\n      tag_382\n        /* \"#utility.yul\":13680:13687   */\n      dup15\n        /* \"#utility.yul\":13671:13677   */\n      dup3\n        /* \"#utility.yul\":13660:13669   */\n      dup16\n        /* \"#utility.yul\":13656:13678   */\n      add\n        /* \"#utility.yul\":13638:13688   */\n      tag_182\n      jump\t// in\n    tag_382:\n        /* \"#utility.yul\":13628:13688   */\n      swap6\n      pop\n        /* \"#utility.yul\":13582:13698   */\n      pop\n        /* \"#utility.yul\":13737:13740   */\n      0xe0\n        /* \"#utility.yul\":13764:13816   */\n      tag_383\n        /* \"#utility.yul\":13808:13815   */\n      dup15\n        /* \"#utility.yul\":13799:13805   */\n      dup3\n        /* \"#utility.yul\":13788:13797   */\n      dup16\n        /* \"#utility.yul\":13784:13806   */\n      add\n        /* \"#utility.yul\":13764:13816   */\n      tag_185\n      jump\t// in\n    tag_383:\n        /* \"#utility.yul\":13754:13816   */\n      swap5\n      pop\n        /* \"#utility.yul\":13708:13826   */\n      pop\n        /* \"#utility.yul\":13893:13896   */\n      0x0100\n        /* \"#utility.yul\":13882:13891   */\n      dup13\n        /* \"#utility.yul\":13878:13897   */\n      add\n        /* \"#utility.yul\":13865:13898   */\n      calldataload\n        /* \"#utility.yul\":13925:13943   */\n      0xffffffffffffffff\n        /* \"#utility.yul\":13917:13923   */\n      dup2\n        /* \"#utility.yul\":13914:13944   */\n      gt\n        /* \"#utility.yul\":13911:14028   */\n      iszero\n      tag_384\n      jumpi\n        /* \"#utility.yul\":13947:14026   */\n      tag_385\n      tag_155\n      jump\t// in\n    tag_385:\n        /* \"#utility.yul\":13911:14028   */\n    tag_384:\n        /* \"#utility.yul\":14052:14115   */\n      tag_386\n        /* \"#utility.yul\":14107:14114   */\n      dup15\n        /* \"#utility.yul\":14098:14104   */\n      dup3\n        /* \"#utility.yul\":14087:14096   */\n      dup16\n        /* \"#utility.yul\":14083:14105   */\n      add\n        /* \"#utility.yul\":14052:14115   */\n      tag_167\n      jump\t// in\n    tag_386:\n        /* \"#utility.yul\":14042:14115   */\n      swap4\n      pop\n        /* \"#utility.yul\":13836:14125   */\n      pop\n        /* \"#utility.yul\":14192:14195   */\n      0x0120\n        /* \"#utility.yul\":14181:14190   */\n      dup13\n        /* \"#utility.yul\":14177:14196   */\n      add\n        /* \"#utility.yul\":14164:14197   */\n      calldataload\n        /* \"#utility.yul\":14224:14242   */\n      0xffffffffffffffff\n        /* \"#utility.yul\":14216:14222   */\n      dup2\n        /* \"#utility.yul\":14213:14243   */\n      gt\n        /* \"#utility.yul\":14210:14327   */\n      iszero\n      tag_387\n      jumpi\n        /* \"#utility.yul\":14246:14325   */\n      tag_388\n      tag_155\n      jump\t// in\n    tag_388:\n        /* \"#utility.yul\":14210:14327   */\n    tag_387:\n        /* \"#utility.yul\":14351:14414   */\n      tag_389\n        /* \"#utility.yul\":14406:14413   */\n      dup15\n        /* \"#utility.yul\":14397:14403   */\n      dup3\n        /* \"#utility.yul\":14386:14395   */\n      dup16\n        /* \"#utility.yul\":14382:14404   */\n      add\n        /* \"#utility.yul\":14351:14414   */\n      tag_167\n      jump\t// in\n    tag_389:\n        /* \"#utility.yul\":14341:14414   */\n      swap3\n      pop\n        /* \"#utility.yul\":14135:14424   */\n      pop\n        /* \"#utility.yul\":14491:14494   */\n      0x0140\n        /* \"#utility.yul\":14480:14489   */\n      dup13\n        /* \"#utility.yul\":14476:14495   */\n      add\n        /* \"#utility.yul\":14463:14496   */\n      calldataload\n        /* \"#utility.yul\":14523:14541   */\n      0xffffffffffffffff\n        /* \"#utility.yul\":14515:14521   */\n      dup2\n        /* \"#utility.yul\":14512:14542   */\n      gt\n        /* \"#utility.yul\":14509:14626   */\n      iszero\n      tag_390\n      jumpi\n        /* \"#utility.yul\":14545:14624   */\n      tag_391\n      tag_155\n      jump\t// in\n    tag_391:\n        /* \"#utility.yul\":14509:14626   */\n    tag_390:\n        /* \"#utility.yul\":14651:14714   */\n      tag_392\n        /* \"#utility.yul\":14706:14713   */\n      dup15\n        /* \"#utility.yul\":14697:14703   */\n      dup3\n        /* \"#utility.yul\":14686:14695   */\n      dup16\n        /* \"#utility.yul\":14682:14704   */\n      add\n        /* \"#utility.yul\":14651:14714   */\n      tag_167\n      jump\t// in\n    tag_392:\n        /* \"#utility.yul\":14640:14714   */\n      swap2\n      pop\n        /* \"#utility.yul\":14434:14724   */\n      pop\n        /* \"#utility.yul\":11456:14731   */\n      swap3\n      swap6\n      swap9\n      swap12\n      pop\n      swap3\n      swap6\n      swap9\n      swap12\n      swap1\n      swap4\n      swap7\n      swap10\n      pop\n      jump\t// out\n        /* \"#utility.yul\":14737:14906   */\n    tag_190:\n        /* \"#utility.yul\":14821:14832   */\n      0x00\n        /* \"#utility.yul\":14855:14861   */\n      dup3\n        /* \"#utility.yul\":14850:14853   */\n      dup3\n        /* \"#utility.yul\":14843:14862   */\n      mstore\n        /* \"#utility.yul\":14895:14899   */\n      0x20\n        /* \"#utility.yul\":14890:14893   */\n      dup3\n        /* \"#utility.yul\":14886:14900   */\n      add\n        /* \"#utility.yul\":14871:14900   */\n      swap1\n      pop\n        /* \"#utility.yul\":14737:14906   */\n      swap3\n      swap2\n      pop\n      pop\n      jump\t// out\n        /* \"#utility.yul\":14912:15088   */\n    tag_191:\n        /* \"#utility.yul\":15052:15080   */\n      0x4d6f64756c61722054574150204f726465722044656c65746564000000000000\n        /* \"#utility.yul\":15048:15049   */\n      0x00\n        /* \"#utility.yul\":15040:15046   */\n      dup3\n        /* \"#utility.yul\":15036:15050   */\n      add\n        /* \"#utility.yul\":15029:15081   */\n      mstore\n        /* \"#utility.yul\":14912:15088   */\n      pop\n      jump\t// out\n        /* \"#utility.yul\":15094:15460   */\n    tag_192:\n        /* \"#utility.yul\":15236:15239   */\n      0x00\n        /* \"#utility.yul\":15257:15324   */\n      tag_396\n        /* \"#utility.yul\":15321:15323   */\n      0x1a\n        /* \"#utility.yul\":15316:15319   */\n      dup4\n        /* \"#utility.yul\":15257:15324   */\n      tag_190\n      jump\t// in\n    tag_396:\n        /* \"#utility.yul\":15250:15324   */\n      swap2\n      pop\n        /* \"#utility.yul\":15333:15426   */\n      tag_397\n        /* \"#utility.yul\":15422:15425   */\n      dup3\n        /* \"#utility.yul\":15333:15426   */\n      tag_191\n      jump\t// in\n    tag_397:\n        /* \"#utility.yul\":15451:15453   */\n      0x20\n        /* \"#utility.yul\":15446:15449   */\n      dup3\n        /* \"#utility.yul\":15442:15454   */\n      add\n        /* \"#utility.yul\":15435:15454   */\n      swap1\n      pop\n        /* \"#utility.yul\":15094:15460   */\n      swap2\n      swap1\n      pop\n      jump\t// out\n        /* \"#utility.yul\":15466:15601   */\n    tag_193:\n        /* \"#utility.yul\":15554:15560   */\n      0x00\n        /* \"#utility.yul\":15588:15593   */\n      dup2\n        /* \"#utility.yul\":15582:15594   */\n      mload\n        /* \"#utility.yul\":15572:15594   */\n      swap1\n      pop\n        /* \"#utility.yul\":15466:15601   */\n      swap2\n      swap1\n      pop\n      jump\t// out\n        /* \"#utility.yul\":15607:15812   */\n    tag_194:\n        /* \"#utility.yul\":15727:15738   */\n      0x00\n        /* \"#utility.yul\":15761:15767   */\n      dup3\n        /* \"#utility.yul\":15756:15759   */\n      dup3\n        /* \"#utility.yul\":15749:15768   */\n      mstore\n        /* \"#utility.yul\":15801:15805   */\n      0x20\n        /* \"#utility.yul\":15796:15799   */\n      dup3\n        /* \"#utility.yul\":15792:15806   */\n      add\n        /* \"#utility.yul\":15777:15806   */\n      swap1\n      pop\n        /* \"#utility.yul\":15607:15812   */\n      swap3\n      swap2\n      pop\n      pop\n      jump\t// out\n        /* \"#utility.yul\":15818:15971   */\n    tag_195:\n        /* \"#utility.yul\":15906:15910   */\n      0x00\n        /* \"#utility.yul\":15929:15932   */\n      dup2\n        /* \"#utility.yul\":15921:15932   */\n      swap1\n      pop\n        /* \"#utility.yul\":15959:15963   */\n      0x20\n        /* \"#utility.yul\":15954:15957   */\n      dup3\n        /* \"#utility.yul\":15950:15964   */\n      add\n        /* \"#utility.yul\":15942:15964   */\n      swap1\n      pop\n        /* \"#utility.yul\":15818:15971   */\n      swap2\n      swap1\n      pop\n      jump\t// out\n        /* \"#utility.yul\":15977:16076   */\n    tag_196:\n        /* \"#utility.yul\":16029:16035   */\n      0x00\n        /* \"#utility.yul\":16063:16068   */\n      dup2\n        /* \"#utility.yul\":16057:16069   */\n      mload\n        /* \"#utility.yul\":16047:16069   */\n      swap1\n      pop\n        /* \"#utility.yul\":15977:16076   */\n      swap2\n      swap1\n      pop\n      jump\t// out\n        /* \"#utility.yul\":16082:16241   */\n    tag_197:\n        /* \"#utility.yul\":16156:16167   */\n      0x00\n        /* \"#utility.yul\":16190:16196   */\n      dup3\n        /* \"#utility.yul\":16185:16188   */\n      dup3\n        /* \"#utility.yul\":16178:16197   */\n      mstore\n        /* \"#utility.yul\":16230:16234   */\n      0x20\n        /* \"#utility.yul\":16225:16228   */\n      dup3\n        /* \"#utility.yul\":16221:16235   */\n      add\n        /* \"#utility.yul\":16206:16235   */\n      swap1\n      pop\n        /* \"#utility.yul\":16082:16241   */\n      swap3\n      swap2\n      pop\n      pop\n      jump\t// out\n        /* \"#utility.yul\":16247:16386   */\n    tag_198:\n        /* \"#utility.yul\":16336:16342   */\n      dup3\n        /* \"#utility.yul\":16331:16334   */\n      dup2\n        /* \"#utility.yul\":16326:16329   */\n      dup4\n        /* \"#utility.yul\":16320:16343   */\n      mcopy\n        /* \"#utility.yul\":16377:16378   */\n      0x00\n        /* \"#utility.yul\":16368:16374   */\n      dup4\n        /* \"#utility.yul\":16363:16366   */\n      dup4\n        /* \"#utility.yul\":16359:16375   */\n      add\n        /* \"#utility.yul\":16352:16379   */\n      mstore\n        /* \"#utility.yul\":16247:16386   */\n      pop\n      pop\n      pop\n      jump\t// out\n        /* \"#utility.yul\":16392:16749   */\n    tag_199:\n        /* \"#utility.yul\":16470:16473   */\n      0x00\n        /* \"#utility.yul\":16498:16537   */\n      tag_405\n        /* \"#utility.yul\":16531:16536   */\n      dup3\n        /* \"#utility.yul\":16498:16537   */\n      tag_196\n      jump\t// in\n    tag_405:\n        /* \"#utility.yul\":16553:16614   */\n      tag_406\n        /* \"#utility.yul\":16607:16613   */\n      dup2\n        /* \"#utility.yul\":16602:16605   */\n      dup6\n        /* \"#utility.yul\":16553:16614   */\n      tag_197\n      jump\t// in\n    tag_406:\n        /* \"#utility.yul\":16546:16614   */\n      swap4\n      pop\n        /* \"#utility.yul\":16623:16688   */\n      tag_407\n        /* \"#utility.yul\":16681:16687   */\n      dup2\n        /* \"#utility.yul\":16676:16679   */\n      dup6\n        /* \"#utility.yul\":16669:16673   */\n      0x20\n        /* \"#utility.yul\":16662:16667   */\n      dup7\n        /* \"#utility.yul\":16658:16674   */\n      add\n        /* \"#utility.yul\":16623:16688   */\n      tag_198\n      jump\t// in\n    tag_407:\n        /* \"#utility.yul\":16713:16742   */\n      tag_408\n        /* \"#utility.yul\":16735:16741   */\n      dup2\n        /* \"#utility.yul\":16713:16742   */\n      tag_158\n      jump\t// in\n    tag_408:\n        /* \"#utility.yul\":16708:16711   */\n      dup5\n        /* \"#utility.yul\":16704:16743   */\n      add\n        /* \"#utility.yul\":16697:16743   */\n      swap2\n      pop\n        /* \"#utility.yul\":16474:16749   */\n      pop\n        /* \"#utility.yul\":16392:16749   */\n      swap3\n      swap2\n      pop\n      pop\n      jump\t// out\n        /* \"#utility.yul\":16755:16853   */\n    tag_200:\n        /* \"#utility.yul\":16806:16812   */\n      0x00\n        /* \"#utility.yul\":16840:16845   */\n      dup2\n        /* \"#utility.yul\":16834:16846   */\n      mload\n        /* \"#utility.yul\":16824:16846   */\n      swap1\n      pop\n        /* \"#utility.yul\":16755:16853   */\n      swap2\n      swap1\n      pop\n      jump\t// out\n        /* \"#utility.yul\":16859:17017   */\n    tag_201:\n        /* \"#utility.yul\":16932:16943   */\n      0x00\n        /* \"#utility.yul\":16966:16972   */\n      dup3\n        /* \"#utility.yul\":16961:16964   */\n      dup3\n        /* \"#utility.yul\":16954:16973   */\n      mstore\n        /* \"#utility.yul\":17006:17010   */\n      0x20\n        /* \"#utility.yul\":17001:17004   */\n      dup3\n        /* \"#utility.yul\":16997:17011   */\n      add\n        /* \"#utility.yul\":16982:17011   */\n      swap1\n      pop\n        /* \"#utility.yul\":16859:17017   */\n      swap3\n      swap2\n      pop\n      pop\n      jump\t// out\n        /* \"#utility.yul\":17023:17376   */\n    tag_202:\n        /* \"#utility.yul\":17099:17102   */\n      0x00\n        /* \"#utility.yul\":17127:17165   */\n      tag_412\n        /* \"#utility.yul\":17159:17164   */\n      dup3\n        /* \"#utility.yul\":17127:17165   */\n      tag_200\n      jump\t// in\n    tag_412:\n        /* \"#utility.yul\":17181:17241   */\n      tag_413\n        /* \"#utility.yul\":17234:17240   */\n      dup2\n        /* \"#utility.yul\":17229:17232   */\n      dup6\n        /* \"#utility.yul\":17181:17241   */\n      tag_201\n      jump\t// in\n    tag_413:\n        /* \"#utility.yul\":17174:17241   */\n      swap4\n      pop\n        /* \"#utility.yul\":17250:17315   */\n      tag_414\n        /* \"#utility.yul\":17308:17314   */\n      dup2\n        /* \"#utility.yul\":17303:17306   */\n      dup6\n        /* \"#utility.yul\":17296:17300   */\n      0x20\n        /* \"#utility.yul\":17289:17294   */\n      dup7\n        /* \"#utility.yul\":17285:17301   */\n      add\n        /* \"#utility.yul\":17250:17315   */\n      tag_198\n      jump\t// in\n    tag_414:\n        /* \"#utility.yul\":17340:17369   */\n      tag_415\n        /* \"#utility.yul\":17362:17368   */\n      dup2\n        /* \"#utility.yul\":17340:17369   */\n      tag_158\n      jump\t// in\n    tag_415:\n        /* \"#utility.yul\":17335:17338   */\n      dup5\n        /* \"#utility.yul\":17331:17370   */\n      add\n        /* \"#utility.yul\":17324:17370   */\n      swap2\n      pop\n        /* \"#utility.yul\":17103:17376   */\n      pop\n        /* \"#utility.yul\":17023:17376   */\n      swap3\n      swap2\n      pop\n      pop\n      jump\t// out\n        /* \"#utility.yul\":17432:18339   */\n    tag_203:\n        /* \"#utility.yul\":17533:17536   */\n      0x00\n        /* \"#utility.yul\":17569:17573   */\n      0x60\n        /* \"#utility.yul\":17564:17567   */\n      dup4\n        /* \"#utility.yul\":17560:17574   */\n      add\n        /* \"#utility.yul\":17656:17660   */\n      0x00\n        /* \"#utility.yul\":17649:17654   */\n      dup4\n        /* \"#utility.yul\":17645:17661   */\n      add\n        /* \"#utility.yul\":17639:17662   */\n      mload\n        /* \"#utility.yul\":17709:17712   */\n      dup5\n        /* \"#utility.yul\":17703:17707   */\n      dup3\n        /* \"#utility.yul\":17699:17713   */\n      sub\n        /* \"#utility.yul\":17692:17696   */\n      0x00\n        /* \"#utility.yul\":17687:17690   */\n      dup7\n        /* \"#utility.yul\":17683:17697   */\n      add\n        /* \"#utility.yul\":17676:17714   */\n      mstore\n        /* \"#utility.yul\":17735:17808   */\n      tag_417\n        /* \"#utility.yul\":17803:17807   */\n      dup3\n        /* \"#utility.yul\":17789:17801   */\n      dup3\n        /* \"#utility.yul\":17735:17808   */\n      tag_199\n      jump\t// in\n    tag_417:\n        /* \"#utility.yul\":17727:17808   */\n      swap2\n      pop\n        /* \"#utility.yul\":17584:17819   */\n      pop\n        /* \"#utility.yul\":17905:17909   */\n      0x20\n        /* \"#utility.yul\":17898:17903   */\n      dup4\n        /* \"#utility.yul\":17894:17910   */\n      add\n        /* \"#utility.yul\":17888:17911   */\n      mload\n        /* \"#utility.yul\":17958:17961   */\n      dup5\n        /* \"#utility.yul\":17952:17956   */\n      dup3\n        /* \"#utility.yul\":17948:17962   */\n      sub\n        /* \"#utility.yul\":17941:17945   */\n      0x20\n        /* \"#utility.yul\":17936:17939   */\n      dup7\n        /* \"#utility.yul\":17932:17946   */\n      add\n        /* \"#utility.yul\":17925:17963   */\n      mstore\n        /* \"#utility.yul\":17984:18057   */\n      tag_418\n        /* \"#utility.yul\":18052:18056   */\n      dup3\n        /* \"#utility.yul\":18038:18050   */\n      dup3\n        /* \"#utility.yul\":17984:18057   */\n      tag_199\n      jump\t// in\n    tag_418:\n        /* \"#utility.yul\":17976:18057   */\n      swap2\n      pop\n        /* \"#utility.yul\":17829:18068   */\n      pop\n        /* \"#utility.yul\":18151:18155   */\n      0x40\n        /* \"#utility.yul\":18144:18149   */\n      dup4\n        /* \"#utility.yul\":18140:18156   */\n      add\n        /* \"#utility.yul\":18134:18157   */\n      mload\n        /* \"#utility.yul\":18204:18207   */\n      dup5\n        /* \"#utility.yul\":18198:18202   */\n      dup3\n        /* \"#utility.yul\":18194:18208   */\n      sub\n        /* \"#utility.yul\":18187:18191   */\n      0x40\n        /* \"#utility.yul\":18182:18185   */\n      dup7\n        /* \"#utility.yul\":18178:18192   */\n      add\n        /* \"#utility.yul\":18171:18209   */\n      mstore\n        /* \"#utility.yul\":18230:18301   */\n      tag_419\n        /* \"#utility.yul\":18296:18300   */\n      dup3\n        /* \"#utility.yul\":18282:18294   */\n      dup3\n        /* \"#utility.yul\":18230:18301   */\n      tag_202\n      jump\t// in\n    tag_419:\n        /* \"#utility.yul\":18222:18301   */\n      swap2\n      pop\n        /* \"#utility.yul\":18078:18312   */\n      pop\n        /* \"#utility.yul\":18329:18333   */\n      dup1\n        /* \"#utility.yul\":18322:18333   */\n      swap2\n      pop\n        /* \"#utility.yul\":17538:18339   */\n      pop\n        /* \"#utility.yul\":17432:18339   */\n      swap3\n      swap2\n      pop\n      pop\n      jump\t// out\n        /* \"#utility.yul\":18345:18585   */\n    tag_204:\n        /* \"#utility.yul\":18456:18466   */\n      0x00\n        /* \"#utility.yul\":18491:18579   */\n      tag_421\n        /* \"#utility.yul\":18575:18578   */\n      dup4\n        /* \"#utility.yul\":18567:18573   */\n      dup4\n        /* \"#utility.yul\":18491:18579   */\n      tag_203\n      jump\t// in\n    tag_421:\n        /* \"#utility.yul\":18477:18579   */\n      swap1\n      pop\n        /* \"#utility.yul\":18345:18585   */\n      swap3\n      swap2\n      pop\n      pop\n      jump\t// out\n        /* \"#utility.yul\":18591:18725   */\n    tag_205:\n        /* \"#utility.yul\":18682:18686   */\n      0x00\n        /* \"#utility.yul\":18714:18718   */\n      0x20\n        /* \"#utility.yul\":18709:18712   */\n      dup3\n        /* \"#utility.yul\":18705:18719   */\n      add\n        /* \"#utility.yul\":18697:18719   */\n      swap1\n      pop\n        /* \"#utility.yul\":18591:18725   */\n      swap2\n      swap1\n      pop\n      jump\t// out\n        /* \"#utility.yul\":18785:19864   */\n    tag_206:\n        /* \"#utility.yul\":18946:18949   */\n      0x00\n        /* \"#utility.yul\":18975:19050   */\n      tag_424\n        /* \"#utility.yul\":19044:19049   */\n      dup3\n        /* \"#utility.yul\":18975:19050   */\n      tag_193\n      jump\t// in\n    tag_424:\n        /* \"#utility.yul\":19066:19173   */\n      tag_425\n        /* \"#utility.yul\":19166:19172   */\n      dup2\n        /* \"#utility.yul\":19161:19164   */\n      dup6\n        /* \"#utility.yul\":19066:19173   */\n      tag_194\n      jump\t// in\n    tag_425:\n        /* \"#utility.yul\":19059:19173   */\n      swap4\n      pop\n        /* \"#utility.yul\":19199:19202   */\n      dup4\n        /* \"#utility.yul\":19244:19248   */\n      0x20\n        /* \"#utility.yul\":19236:19242   */\n      dup3\n        /* \"#utility.yul\":19232:19249   */\n      mul\n        /* \"#utility.yul\":19227:19230   */\n      dup6\n        /* \"#utility.yul\":19223:19250   */\n      add\n        /* \"#utility.yul\":19274:19351   */\n      tag_426\n        /* \"#utility.yul\":19345:19350   */\n      dup6\n        /* \"#utility.yul\":19274:19351   */\n      tag_195\n      jump\t// in\n    tag_426:\n        /* \"#utility.yul\":19374:19381   */\n      dup1\n        /* \"#utility.yul\":19405:19406   */\n      0x00\n        /* \"#utility.yul\":19390:19819   */\n    tag_427:\n        /* \"#utility.yul\":19415:19421   */\n      dup6\n        /* \"#utility.yul\":19412:19413   */\n      dup2\n        /* \"#utility.yul\":19409:19422   */\n      lt\n        /* \"#utility.yul\":19390:19819   */\n      iszero\n      tag_429\n      jumpi\n        /* \"#utility.yul\":19486:19495   */\n      dup5\n        /* \"#utility.yul\":19480:19484   */\n      dup5\n        /* \"#utility.yul\":19476:19496   */\n      sub\n        /* \"#utility.yul\":19471:19474   */\n      dup10\n        /* \"#utility.yul\":19464:19497   */\n      mstore\n        /* \"#utility.yul\":19537:19543   */\n      dup2\n        /* \"#utility.yul\":19531:19544   */\n      mload\n        /* \"#utility.yul\":19565:19671   */\n      tag_430\n        /* \"#utility.yul\":19666:19670   */\n      dup6\n        /* \"#utility.yul\":19651:19664   */\n      dup3\n        /* \"#utility.yul\":19565:19671   */\n      tag_204\n      jump\t// in\n    tag_430:\n        /* \"#utility.yul\":19557:19671   */\n      swap5\n      pop\n        /* \"#utility.yul\":19694:19775   */\n      tag_431\n        /* \"#utility.yul\":19768:19774   */\n      dup4\n        /* \"#utility.yul\":19694:19775   */\n      tag_205\n      jump\t// in\n    tag_431:\n        /* \"#utility.yul\":19684:19775   */\n      swap3\n      pop\n        /* \"#utility.yul\":19804:19808   */\n      0x20\n        /* \"#utility.yul\":19799:19802   */\n      dup11\n        /* \"#utility.yul\":19795:19809   */\n      add\n        /* \"#utility.yul\":19788:19809   */\n      swap10\n      pop\n        /* \"#utility.yul\":19450:19819   */\n      pop\n        /* \"#utility.yul\":19437:19438   */\n      0x01\n        /* \"#utility.yul\":19434:19435   */\n      dup2\n        /* \"#utility.yul\":19430:19439   */\n      add\n        /* \"#utility.yul\":19425:19439   */\n      swap1\n      pop\n        /* \"#utility.yul\":19390:19819   */\n      jump(tag_427)\n    tag_429:\n        /* \"#utility.yul\":19394:19408   */\n      pop\n        /* \"#utility.yul\":19835:19839   */\n      dup3\n        /* \"#utility.yul\":19828:19839   */\n      swap8\n      pop\n        /* \"#utility.yul\":19855:19858   */\n      dup8\n        /* \"#utility.yul\":19848:19858   */\n      swap6\n      pop\n        /* \"#utility.yul\":18951:19864   */\n      pop\n      pop\n      pop\n      pop\n      pop\n        /* \"#utility.yul\":18785:19864   */\n      swap3\n      swap2\n      pop\n      pop\n      jump\t// out\n        /* \"#utility.yul\":19870:20634   */\n    tag_44:\n        /* \"#utility.yul\":20156:20160   */\n      0x00\n        /* \"#utility.yul\":20194:20196   */\n      0x40\n        /* \"#utility.yul\":20183:20192   */\n      dup3\n        /* \"#utility.yul\":20179:20197   */\n      add\n        /* \"#utility.yul\":20171:20197   */\n      swap1\n      pop\n        /* \"#utility.yul\":20243:20252   */\n      dup2\n        /* \"#utility.yul\":20237:20241   */\n      dup2\n        /* \"#utility.yul\":20233:20253   */\n      sub\n        /* \"#utility.yul\":20229:20230   */\n      0x00\n        /* \"#utility.yul\":20218:20227   */\n      dup4\n        /* \"#utility.yul\":20214:20231   */\n      add\n        /* \"#utility.yul\":20207:20254   */\n      mstore\n        /* \"#utility.yul\":20271:20402   */\n      tag_433\n        /* \"#utility.yul\":20397:20401   */\n      dup2\n        /* \"#utility.yul\":20271:20402   */\n      tag_192\n      jump\t// in\n    tag_433:\n        /* \"#utility.yul\":20263:20402   */\n      swap1\n      pop\n        /* \"#utility.yul\":20449:20458   */\n      dup2\n        /* \"#utility.yul\":20443:20447   */\n      dup2\n        /* \"#utility.yul\":20439:20459   */\n      sub\n        /* \"#utility.yul\":20434:20436   */\n      0x20\n        /* \"#utility.yul\":20423:20432   */\n      dup4\n        /* \"#utility.yul\":20419:20437   */\n      add\n        /* \"#utility.yul\":20412:20460   */\n      mstore\n        /* \"#utility.yul\":20477:20627   */\n      tag_434\n        /* \"#utility.yul\":20622:20626   */\n      dup2\n        /* \"#utility.yul\":20613:20619   */\n      dup5\n        /* \"#utility.yul\":20477:20627   */\n      tag_206\n      jump\t// in\n    tag_434:\n        /* \"#utility.yul\":20469:20627   */\n      swap1\n      pop\n        /* \"#utility.yul\":19870:20634   */\n      swap3\n      swap2\n      pop\n      pop\n      jump\t// out\n        /* \"#utility.yul\":20640:20817   */\n    tag_207:\n        /* \"#utility.yul\":20780:20809   */\n      0x4d6f64756c6172204c696d6974204f726465722044656c657465640000000000\n        /* \"#utility.yul\":20776:20777   */\n      0x00\n        /* \"#utility.yul\":20768:20774   */\n      dup3\n        /* \"#utility.yul\":20764:20778   */\n      add\n        /* \"#utility.yul\":20757:20810   */\n      mstore\n        /* \"#utility.yul\":20640:20817   */\n      pop\n      jump\t// out\n        /* \"#utility.yul\":20823:21189   */\n    tag_208:\n        /* \"#utility.yul\":20965:20968   */\n      0x00\n        /* \"#utility.yul\":20986:21053   */\n      tag_437\n        /* \"#utility.yul\":21050:21052   */\n      0x1b\n        /* \"#utility.yul\":21045:21048   */\n      dup4\n        /* \"#utility.yul\":20986:21053   */\n      tag_190\n      jump\t// in\n    tag_437:\n        /* \"#utility.yul\":20979:21053   */\n      swap2\n      pop\n        /* \"#utility.yul\":21062:21155   */\n      tag_438\n        /* \"#utility.yul\":21151:21154   */\n      dup3\n        /* \"#utility.yul\":21062:21155   */\n      tag_207\n      jump\t// in\n    tag_438:\n        /* \"#utility.yul\":21180:21182   */\n      0x20\n        /* \"#utility.yul\":21175:21178   */\n      dup3\n        /* \"#utility.yul\":21171:21183   */\n      add\n        /* \"#utility.yul\":21164:21183   */\n      swap1\n      pop\n        /* \"#utility.yul\":20823:21189   */\n      swap2\n      swap1\n      pop\n      jump\t// out\n        /* \"#utility.yul\":21195:21959   */\n    tag_59:\n        /* \"#utility.yul\":21481:21485   */\n      0x00\n        /* \"#utility.yul\":21519:21521   */\n      0x40\n        /* \"#utility.yul\":21508:21517   */\n      dup3\n        /* \"#utility.yul\":21504:21522   */\n      add\n        /* \"#utility.yul\":21496:21522   */\n      swap1\n      pop\n        /* \"#utility.yul\":21568:21577   */\n      dup2\n        /* \"#utility.yul\":21562:21566   */\n      dup2\n        /* \"#utility.yul\":21558:21578   */\n      sub\n        /* \"#utility.yul\":21554:21555   */\n      0x00\n        /* \"#utility.yul\":21543:21552   */\n      dup4\n        /* \"#utility.yul\":21539:21556   */\n      add\n        /* \"#utility.yul\":21532:21579   */\n      mstore\n        /* \"#utility.yul\":21596:21727   */\n      tag_440\n        /* \"#utility.yul\":21722:21726   */\n      dup2\n        /* \"#utility.yul\":21596:21727   */\n      tag_208\n      jump\t// in\n    tag_440:\n        /* \"#utility.yul\":21588:21727   */\n      swap1\n      pop\n        /* \"#utility.yul\":21774:21783   */\n      dup2\n        /* \"#utility.yul\":21768:21772   */\n      dup2\n        /* \"#utility.yul\":21764:21784   */\n      sub\n        /* \"#utility.yul\":21759:21761   */\n      0x20\n        /* \"#utility.yul\":21748:21757   */\n      dup4\n        /* \"#utility.yul\":21744:21762   */\n      add\n        /* \"#utility.yul\":21737:21785   */\n      mstore\n        /* \"#utility.yul\":21802:21952   */\n      tag_441\n        /* \"#utility.yul\":21947:21951   */\n      dup2\n        /* \"#utility.yul\":21938:21944   */\n      dup5\n        /* \"#utility.yul\":21802:21952   */\n      tag_206\n      jump\t// in\n    tag_441:\n        /* \"#utility.yul\":21794:21952   */\n      swap1\n      pop\n        /* \"#utility.yul\":21195:21959   */\n      swap3\n      swap2\n      pop\n      pop\n      jump\t// out\n        /* \"#utility.yul\":21965:22142   */\n    tag_209:\n        /* \"#utility.yul\":22105:22134   */\n      0x4d6f64756c6172204c696d6974204f7264657220437265617465640000000000\n        /* \"#utility.yul\":22101:22102   */\n      0x00\n        /* \"#utility.yul\":22093:22099   */\n      dup3\n        /* \"#utility.yul\":22089:22103   */\n      add\n        /* \"#utility.yul\":22082:22135   */\n      mstore\n        /* \"#utility.yul\":21965:22142   */\n      pop\n      jump\t// out\n        /* \"#utility.yul\":22148:22514   */\n    tag_210:\n        /* \"#utility.yul\":22290:22293   */\n      0x00\n        /* \"#utility.yul\":22311:22378   */\n      tag_444\n        /* \"#utility.yul\":22375:22377   */\n      0x1b\n        /* \"#utility.yul\":22370:22373   */\n      dup4\n        /* \"#utility.yul\":22311:22378   */\n      tag_190\n      jump\t// in\n    tag_444:\n        /* \"#utility.yul\":22304:22378   */\n      swap2\n      pop\n        /* \"#utility.yul\":22387:22480   */\n      tag_445\n        /* \"#utility.yul\":22476:22479   */\n      dup3\n        /* \"#utility.yul\":22387:22480   */\n      tag_209\n      jump\t// in\n    tag_445:\n        /* \"#utility.yul\":22505:22507   */\n      0x20\n        /* \"#utility.yul\":22500:22503   */\n      dup3\n        /* \"#utility.yul\":22496:22508   */\n      add\n        /* \"#utility.yul\":22489:22508   */\n      swap1\n      pop\n        /* \"#utility.yul\":22148:22514   */\n      swap2\n      swap1\n      pop\n      jump\t// out\n        /* \"#utility.yul\":22520:23284   */\n    tag_84:\n        /* \"#utility.yul\":22806:22810   */\n      0x00\n        /* \"#utility.yul\":22844:22846   */\n      0x40\n        /* \"#utility.yul\":22833:22842   */\n      dup3\n        /* \"#utility.yul\":22829:22847   */\n      add\n        /* \"#utility.yul\":22821:22847   */\n      swap1\n      pop\n        /* \"#utility.yul\":22893:22902   */\n      dup2\n        /* \"#utility.yul\":22887:22891   */\n      dup2\n        /* \"#utility.yul\":22883:22903   */\n      sub\n        /* \"#utility.yul\":22879:22880   */\n      0x00\n        /* \"#utility.yul\":22868:22877   */\n      dup4\n        /* \"#utility.yul\":22864:22881   */\n      add\n        /* \"#utility.yul\":22857:22904   */\n      mstore\n        /* \"#utility.yul\":22921:23052   */\n      tag_447\n        /* \"#utility.yul\":23047:23051   */\n      dup2\n        /* \"#utility.yul\":22921:23052   */\n      tag_210\n      jump\t// in\n    tag_447:\n        /* \"#utility.yul\":22913:23052   */\n      swap1\n      pop\n        /* \"#utility.yul\":23099:23108   */\n      dup2\n        /* \"#utility.yul\":23093:23097   */\n      dup2\n        /* \"#utility.yul\":23089:23109   */\n      sub\n        /* \"#utility.yul\":23084:23086   */\n      0x20\n        /* \"#utility.yul\":23073:23082   */\n      dup4\n        /* \"#utility.yul\":23069:23087   */\n      add\n        /* \"#utility.yul\":23062:23110   */\n      mstore\n        /* \"#utility.yul\":23127:23277   */\n      tag_448\n        /* \"#utility.yul\":23272:23276   */\n      dup2\n        /* \"#utility.yul\":23263:23269   */\n      dup5\n        /* \"#utility.yul\":23127:23277   */\n      tag_206\n      jump\t// in\n    tag_448:\n        /* \"#utility.yul\":23119:23277   */\n      swap1\n      pop\n        /* \"#utility.yul\":22520:23284   */\n      swap3\n      swap2\n      pop\n      pop\n      jump\t// out\n        /* \"#utility.yul\":23290:23466   */\n    tag_211:\n        /* \"#utility.yul\":23430:23458   */\n      0x4d6f64756c61722054574150204f726465722043726561746564000000000000\n        /* \"#utility.yul\":23426:23427   */\n      0x00\n        /* \"#utility.yul\":23418:23424   */\n      dup3\n        /* \"#utility.yul\":23414:23428   */\n      add\n        /* \"#utility.yul\":23407:23459   */\n      mstore\n        /* \"#utility.yul\":23290:23466   */\n      pop\n      jump\t// out\n        /* \"#utility.yul\":23472:23838   */\n    tag_212:\n        /* \"#utility.yul\":23614:23617   */\n      0x00\n        /* \"#utility.yul\":23635:23702   */\n      tag_451\n        /* \"#utility.yul\":23699:23701   */\n      0x1a\n        /* \"#utility.yul\":23694:23697   */\n      dup4\n        /* \"#utility.yul\":23635:23702   */\n      tag_190\n      jump\t// in\n    tag_451:\n        /* \"#utility.yul\":23628:23702   */\n      swap2\n      pop\n        /* \"#utility.yul\":23711:23804   */\n      tag_452\n        /* \"#utility.yul\":23800:23803   */\n      dup3\n        /* \"#utility.yul\":23711:23804   */\n      tag_211\n      jump\t// in\n    tag_452:\n        /* \"#utility.yul\":23829:23831   */\n      0x20\n        /* \"#utility.yul\":23824:23827   */\n      dup3\n        /* \"#utility.yul\":23820:23832   */\n      add\n        /* \"#utility.yul\":23813:23832   */\n      swap1\n      pop\n        /* \"#utility.yul\":23472:23838   */\n      swap2\n      swap1\n      pop\n      jump\t// out\n        /* \"#utility.yul\":23844:24608   */\n    tag_108:\n        /* \"#utility.yul\":24130:24134   */\n      0x00\n        /* \"#utility.yul\":24168:24170   */\n      0x40\n        /* \"#utility.yul\":24157:24166   */\n      dup3\n        /* \"#utility.yul\":24153:24171   */\n      add\n        /* \"#utility.yul\":24145:24171   */\n      swap1\n      pop\n        /* \"#utility.yul\":24217:24226   */\n      dup2\n        /* \"#utility.yul\":24211:24215   */\n      dup2\n        /* \"#utility.yul\":24207:24227   */\n      sub\n        /* \"#utility.yul\":24203:24204   */\n      0x00\n        /* \"#utility.yul\":24192:24201   */\n      dup4\n        /* \"#utility.yul\":24188:24205   */\n      add\n        /* \"#utility.yul\":24181:24228   */\n      mstore\n        /* \"#utility.yul\":24245:24376   */\n      tag_454\n        /* \"#utility.yul\":24371:24375   */\n      dup2\n        /* \"#utility.yul\":24245:24376   */\n      tag_212\n      jump\t// in\n    tag_454:\n        /* \"#utility.yul\":24237:24376   */\n      swap1\n      pop\n        /* \"#utility.yul\":24423:24432   */\n      dup2\n        /* \"#utility.yul\":24417:24421   */\n      dup2\n        /* \"#utility.yul\":24413:24433   */\n      sub\n        /* \"#utility.yul\":24408:24410   */\n      0x20\n        /* \"#utility.yul\":24397:24406   */\n      dup4\n        /* \"#utility.yul\":24393:24411   */\n      add\n        /* \"#utility.yul\":24386:24434   */\n      mstore\n        /* \"#utility.yul\":24451:24601   */\n      tag_455\n        /* \"#utility.yul\":24596:24600   */\n      dup2\n        /* \"#utility.yul\":24587:24593   */\n      dup5\n        /* \"#utility.yul\":24451:24601   */\n      tag_206\n      jump\t// in\n    tag_455:\n        /* \"#utility.yul\":24443:24601   */\n      swap1\n      pop\n        /* \"#utility.yul\":23844:24608   */\n      swap3\n      swap2\n      pop\n      pop\n      jump\t// out\n        /* \"#utility.yul\":24614:24710   */\n    tag_213:\n        /* \"#utility.yul\":24651:24658   */\n      0x00\n        /* \"#utility.yul\":24680:24704   */\n      tag_457\n        /* \"#utility.yul\":24698:24703   */\n      dup3\n        /* \"#utility.yul\":24680:24704   */\n      tag_171\n      jump\t// in\n    tag_457:\n        /* \"#utility.yul\":24669:24704   */\n      swap1\n      pop\n        /* \"#utility.yul\":24614:24710   */\n      swap2\n      swap1\n      pop\n      jump\t// out\n        /* \"#utility.yul\":24716:24834   */\n    tag_214:\n        /* \"#utility.yul\":24803:24827   */\n      tag_459\n        /* \"#utility.yul\":24821:24826   */\n      dup2\n        /* \"#utility.yul\":24803:24827   */\n      tag_213\n      jump\t// in\n    tag_459:\n        /* \"#utility.yul\":24798:24801   */\n      dup3\n        /* \"#utility.yul\":24791:24828   */\n      mstore\n        /* \"#utility.yul\":24716:24834   */\n      pop\n      pop\n      jump\t// out\n        /* \"#utility.yul\":24840:25062   */\n    tag_114:\n        /* \"#utility.yul\":24933:24937   */\n      0x00\n        /* \"#utility.yul\":24971:24973   */\n      0x20\n        /* \"#utility.yul\":24960:24969   */\n      dup3\n        /* \"#utility.yul\":24956:24974   */\n      add\n        /* \"#utility.yul\":24948:24974   */\n      swap1\n      pop\n        /* \"#utility.yul\":24984:25055   */\n      tag_461\n        /* \"#utility.yul\":25052:25053   */\n      0x00\n        /* \"#utility.yul\":25041:25050   */\n      dup4\n        /* \"#utility.yul\":25037:25054   */\n      add\n        /* \"#utility.yul\":25028:25034   */\n      dup5\n        /* \"#utility.yul\":24984:25055   */\n      tag_214\n      jump\t// in\n    tag_461:\n        /* \"#utility.yul\":24840:25062   */\n      swap3\n      swap2\n      pop\n      pop\n      jump\t// out\n        /* \"#utility.yul\":25068:25248   */\n    tag_117:\n        /* \"#utility.yul\":25116:25193   */\n      0x4e487b7100000000000000000000000000000000000000000000000000000000\n        /* \"#utility.yul\":25113:25114   */\n      0x00\n        /* \"#utility.yul\":25106:25194   */\n      mstore\n        /* \"#utility.yul\":25213:25217   */\n      0x32\n        /* \"#utility.yul\":25210:25211   */\n      0x04\n        /* \"#utility.yul\":25203:25218   */\n      mstore\n        /* \"#utility.yul\":25237:25241   */\n      0x24\n        /* \"#utility.yul\":25234:25235   */\n      0x00\n        /* \"#utility.yul\":25227:25242   */\n      revert\n        /* \"#utility.yul\":25254:25422   */\n    tag_215:\n        /* \"#utility.yul\":25337:25348   */\n      0x00\n        /* \"#utility.yul\":25371:25377   */\n      dup3\n        /* \"#utility.yul\":25366:25369   */\n      dup3\n        /* \"#utility.yul\":25359:25378   */\n      mstore\n        /* \"#utility.yul\":25411:25415   */\n      0x20\n        /* \"#utility.yul\":25406:25409   */\n      dup3\n        /* \"#utility.yul\":25402:25416   */\n      add\n        /* \"#utility.yul\":25387:25416   */\n      swap1\n      pop\n        /* \"#utility.yul\":25254:25422   */\n      swap3\n      swap2\n      pop\n      pop\n      jump\t// out\n        /* \"#utility.yul\":25428:25801   */\n    tag_216:\n        /* \"#utility.yul\":25514:25517   */\n      0x00\n        /* \"#utility.yul\":25542:25580   */\n      tag_465\n        /* \"#utility.yul\":25574:25579   */\n      dup3\n        /* \"#utility.yul\":25542:25580   */\n      tag_200\n      jump\t// in\n    tag_465:\n        /* \"#utility.yul\":25596:25666   */\n      tag_466\n        /* \"#utility.yul\":25659:25665   */\n      dup2\n        /* \"#utility.yul\":25654:25657   */\n      dup6\n        /* \"#utility.yul\":25596:25666   */\n      tag_215\n      jump\t// in\n    tag_466:\n        /* \"#utility.yul\":25589:25666   */\n      swap4\n      pop\n        /* \"#utility.yul\":25675:25740   */\n      tag_467\n        /* \"#utility.yul\":25733:25739   */\n      dup2\n        /* \"#utility.yul\":25728:25731   */\n      dup6\n        /* \"#utility.yul\":25721:25725   */\n      0x20\n        /* \"#utility.yul\":25714:25719   */\n      dup7\n        /* \"#utility.yul\":25710:25726   */\n      add\n        /* \"#utility.yul\":25675:25740   */\n      tag_198\n      jump\t// in\n    tag_467:\n        /* \"#utility.yul\":25765:25794   */\n      tag_468\n        /* \"#utility.yul\":25787:25793   */\n      dup2\n        /* \"#utility.yul\":25765:25794   */\n      tag_158\n      jump\t// in\n    tag_468:\n        /* \"#utility.yul\":25760:25763   */\n      dup5\n        /* \"#utility.yul\":25756:25795   */\n      add\n        /* \"#utility.yul\":25749:25795   */\n      swap2\n      pop\n        /* \"#utility.yul\":25518:25801   */\n      pop\n        /* \"#utility.yul\":25428:25801   */\n      swap3\n      swap2\n      pop\n      pop\n      jump\t// out\n        /* \"#utility.yul\":25807:26116   */\n    tag_120:\n        /* \"#utility.yul\":25918:25922   */\n      0x00\n        /* \"#utility.yul\":25956:25958   */\n      0x20\n        /* \"#utility.yul\":25945:25954   */\n      dup3\n        /* \"#utility.yul\":25941:25959   */\n      add\n        /* \"#utility.yul\":25933:25959   */\n      swap1\n      pop\n        /* \"#utility.yul\":26005:26014   */\n      dup2\n        /* \"#utility.yul\":25999:26003   */\n      dup2\n        /* \"#utility.yul\":25995:26015   */\n      sub\n        /* \"#utility.yul\":25991:25992   */\n      0x00\n        /* \"#utility.yul\":25980:25989   */\n      dup4\n        /* \"#utility.yul\":25976:25993   */\n      add\n        /* \"#utility.yul\":25969:26016   */\n      mstore\n        /* \"#utility.yul\":26033:26109   */\n      tag_470\n        /* \"#utility.yul\":26104:26108   */\n      dup2\n        /* \"#utility.yul\":26095:26101   */\n      dup5\n        /* \"#utility.yul\":26033:26109   */\n      tag_216\n      jump\t// in\n    tag_470:\n        /* \"#utility.yul\":26025:26109   */\n      swap1\n      pop\n        /* \"#utility.yul\":25807:26116   */\n      swap3\n      swap2\n      pop\n      pop\n      jump\t// out\n        /* \"#utility.yul\":26122:26499   */\n    tag_217:\n        /* \"#utility.yul\":26210:26213   */\n      0x00\n        /* \"#utility.yul\":26238:26277   */\n      tag_472\n        /* \"#utility.yul\":26271:26276   */\n      dup3\n        /* \"#utility.yul\":26238:26277   */\n      tag_196\n      jump\t// in\n    tag_472:\n        /* \"#utility.yul\":26293:26364   */\n      tag_473\n        /* \"#utility.yul\":26357:26363   */\n      dup2\n        /* \"#utility.yul\":26352:26355   */\n      dup6\n        /* \"#utility.yul\":26293:26364   */\n      tag_190\n      jump\t// in\n    tag_473:\n        /* \"#utility.yul\":26286:26364   */\n      swap4\n      pop\n        /* \"#utility.yul\":26373:26438   */\n      tag_474\n        /* \"#utility.yul\":26431:26437   */\n      dup2\n        /* \"#utility.yul\":26426:26429   */\n      dup6\n        /* \"#utility.yul\":26419:26423   */\n      0x20\n        /* \"#utility.yul\":26412:26417   */\n      dup7\n        /* \"#utility.yul\":26408:26424   */\n      add\n        /* \"#utility.yul\":26373:26438   */\n      tag_198\n      jump\t// in\n    tag_474:\n        /* \"#utility.yul\":26463:26492   */\n      tag_475\n        /* \"#utility.yul\":26485:26491   */\n      dup2\n        /* \"#utility.yul\":26463:26492   */\n      tag_158\n      jump\t// in\n    tag_475:\n        /* \"#utility.yul\":26458:26461   */\n      dup5\n        /* \"#utility.yul\":26454:26493   */\n      add\n        /* \"#utility.yul\":26447:26493   */\n      swap2\n      pop\n        /* \"#utility.yul\":26214:26499   */\n      pop\n        /* \"#utility.yul\":26122:26499   */\n      swap3\n      swap2\n      pop\n      pop\n      jump\t// out\n        /* \"#utility.yul\":26505:26818   */\n    tag_125:\n        /* \"#utility.yul\":26618:26622   */\n      0x00\n        /* \"#utility.yul\":26656:26658   */\n      0x20\n        /* \"#utility.yul\":26645:26654   */\n      dup3\n        /* \"#utility.yul\":26641:26659   */\n      add\n        /* \"#utility.yul\":26633:26659   */\n      swap1\n      pop\n        /* \"#utility.yul\":26705:26714   */\n      dup2\n        /* \"#utility.yul\":26699:26703   */\n      dup2\n        /* \"#utility.yul\":26695:26715   */\n      sub\n        /* \"#utility.yul\":26691:26692   */\n      0x00\n        /* \"#utility.yul\":26680:26689   */\n      dup4\n        /* \"#utility.yul\":26676:26693   */\n      add\n        /* \"#utility.yul\":26669:26716   */\n      mstore\n        /* \"#utility.yul\":26733:26811   */\n      tag_477\n        /* \"#utility.yul\":26806:26810   */\n      dup2\n        /* \"#utility.yul\":26797:26803   */\n      dup5\n        /* \"#utility.yul\":26733:26811   */\n      tag_217\n      jump\t// in\n    tag_477:\n        /* \"#utility.yul\":26725:26811   */\n      swap1\n      pop\n        /* \"#utility.yul\":26505:26818   */\n      swap3\n      swap2\n      pop\n      pop\n      jump\t// out\n        /* \"#utility.yul\":26824:26939   */\n    tag_218:\n        /* \"#utility.yul\":26909:26932   */\n      tag_479\n        /* \"#utility.yul\":26926:26931   */\n      dup2\n        /* \"#utility.yul\":26909:26932   */\n      tag_168\n      jump\t// in\n    tag_479:\n        /* \"#utility.yul\":26904:26907   */\n      dup3\n        /* \"#utility.yul\":26897:26933   */\n      mstore\n        /* \"#utility.yul\":26824:26939   */\n      pop\n      pop\n      jump\t// out\n        /* \"#utility.yul\":26945:27163   */\n    tag_130:\n        /* \"#utility.yul\":27036:27040   */\n      0x00\n        /* \"#utility.yul\":27074:27076   */\n      0x20\n        /* \"#utility.yul\":27063:27072   */\n      dup3\n        /* \"#utility.yul\":27059:27077   */\n      add\n        /* \"#utility.yul\":27051:27077   */\n      swap1\n      pop\n        /* \"#utility.yul\":27087:27156   */\n      tag_481\n        /* \"#utility.yul\":27153:27154   */\n      0x00\n        /* \"#utility.yul\":27142:27151   */\n      dup4\n        /* \"#utility.yul\":27138:27155   */\n      add\n        /* \"#utility.yul\":27129:27135   */\n      dup5\n        /* \"#utility.yul\":27087:27156   */\n      tag_218\n      jump\t// in\n    tag_481:\n        /* \"#utility.yul\":26945:27163   */\n      swap3\n      swap2\n      pop\n      pop\n      jump\t// out\n        /* \"#utility.yul\":27169:27284   */\n    tag_219:\n        /* \"#utility.yul\":27254:27277   */\n      tag_483\n        /* \"#utility.yul\":27271:27276   */\n      dup2\n        /* \"#utility.yul\":27254:27277   */\n      tag_183\n      jump\t// in\n    tag_483:\n        /* \"#utility.yul\":27249:27252   */\n      dup3\n        /* \"#utility.yul\":27242:27278   */\n      mstore\n        /* \"#utility.yul\":27169:27284   */\n      pop\n      pop\n      jump\t// out\n        /* \"#utility.yul\":27290:27508   */\n    tag_135:\n        /* \"#utility.yul\":27381:27385   */\n      0x00\n        /* \"#utility.yul\":27419:27421   */\n      0x20\n        /* \"#utility.yul\":27408:27417   */\n      dup3\n        /* \"#utility.yul\":27404:27422   */\n      add\n        /* \"#utility.yul\":27396:27422   */\n      swap1\n      pop\n        /* \"#utility.yul\":27432:27501   */\n      tag_485\n        /* \"#utility.yul\":27498:27499   */\n      0x00\n        /* \"#utility.yul\":27487:27496   */\n      dup4\n        /* \"#utility.yul\":27483:27500   */\n      add\n        /* \"#utility.yul\":27474:27480   */\n      dup5\n        /* \"#utility.yul\":27432:27501   */\n      tag_219\n      jump\t// in\n    tag_485:\n        /* \"#utility.yul\":27290:27508   */\n      swap3\n      swap2\n      pop\n      pop\n      jump\t// out\n        /* \"#utility.yul\":27514:27623   */\n    tag_220:\n        /* \"#utility.yul\":27595:27616   */\n      tag_487\n        /* \"#utility.yul\":27610:27615   */\n      dup2\n        /* \"#utility.yul\":27595:27616   */\n      tag_180\n      jump\t// in\n    tag_487:\n        /* \"#utility.yul\":27590:27593   */\n      dup3\n        /* \"#utility.yul\":27583:27617   */\n      mstore\n        /* \"#utility.yul\":27514:27623   */\n      pop\n      pop\n      jump\t// out\n        /* \"#utility.yul\":27629:27839   */\n    tag_140:\n        /* \"#utility.yul\":27716:27720   */\n      0x00\n        /* \"#utility.yul\":27754:27756   */\n      0x20\n        /* \"#utility.yul\":27743:27752   */\n      dup3\n        /* \"#utility.yul\":27739:27757   */\n      add\n        /* \"#utility.yul\":27731:27757   */\n      swap1\n      pop\n        /* \"#utility.yul\":27767:27832   */\n      tag_489\n        /* \"#utility.yul\":27829:27830   */\n      0x00\n        /* \"#utility.yul\":27818:27827   */\n      dup4\n        /* \"#utility.yul\":27814:27831   */\n      add\n        /* \"#utility.yul\":27805:27811   */\n      dup5\n        /* \"#utility.yul\":27767:27832   */\n      tag_220\n      jump\t// in\n    tag_489:\n        /* \"#utility.yul\":27629:27839   */\n      swap3\n      swap2\n      pop\n      pop\n      jump\t// out\n        /* \"#utility.yul\":27845:27963   */\n    tag_221:\n        /* \"#utility.yul\":27932:27956   */\n      tag_491\n        /* \"#utility.yul\":27950:27955   */\n      dup2\n        /* \"#utility.yul\":27932:27956   */\n      tag_177\n      jump\t// in\n    tag_491:\n        /* \"#utility.yul\":27927:27930   */\n      dup3\n        /* \"#utility.yul\":27920:27957   */\n      mstore\n        /* \"#utility.yul\":27845:27963   */\n      pop\n      pop\n      jump\t// out\n        /* \"#utility.yul\":27969:28191   */\n    tag_145:\n        /* \"#utility.yul\":28062:28066   */\n      0x00\n        /* \"#utility.yul\":28100:28102   */\n      0x20\n        /* \"#utility.yul\":28089:28098   */\n      dup3\n        /* \"#utility.yul\":28085:28103   */\n      add\n        /* \"#utility.yul\":28077:28103   */\n      swap1\n      pop\n        /* \"#utility.yul\":28113:28184   */\n      tag_493\n        /* \"#utility.yul\":28181:28182   */\n      0x00\n        /* \"#utility.yul\":28170:28179   */\n      dup4\n        /* \"#utility.yul\":28166:28183   */\n      add\n        /* \"#utility.yul\":28157:28163   */\n      dup5\n        /* \"#utility.yul\":28113:28184   */\n      tag_221\n      jump\t// in\n    tag_493:\n        /* \"#utility.yul\":27969:28191   */\n      swap3\n      swap2\n      pop\n      pop\n      jump\t// out\n        /* \"#utility.yul\":28197:28310   */\n    tag_222:\n        /* \"#utility.yul\":28263:28269   */\n      0x00\n        /* \"#utility.yul\":28297:28302   */\n      dup2\n        /* \"#utility.yul\":28291:28303   */\n      mload\n        /* \"#utility.yul\":28281:28303   */\n      swap1\n      pop\n        /* \"#utility.yul\":28197:28310   */\n      swap2\n      swap1\n      pop\n      jump\t// out\n        /* \"#utility.yul\":28316:28499   */\n    tag_223:\n        /* \"#utility.yul\":28414:28425   */\n      0x00\n        /* \"#utility.yul\":28448:28454   */\n      dup3\n        /* \"#utility.yul\":28443:28446   */\n      dup3\n        /* \"#utility.yul\":28436:28455   */\n      mstore\n        /* \"#utility.yul\":28488:28492   */\n      0x20\n        /* \"#utility.yul\":28483:28486   */\n      dup3\n        /* \"#utility.yul\":28479:28493   */\n      add\n        /* \"#utility.yul\":28464:28493   */\n      swap1\n      pop\n        /* \"#utility.yul\":28316:28499   */\n      swap3\n      swap2\n      pop\n      pop\n      jump\t// out\n        /* \"#utility.yul\":28505:28636   */\n    tag_224:\n        /* \"#utility.yul\":28571:28575   */\n      0x00\n        /* \"#utility.yul\":28594:28597   */\n      dup2\n        /* \"#utility.yul\":28586:28597   */\n      swap1\n      pop\n        /* \"#utility.yul\":28624:28628   */\n      0x20\n        /* \"#utility.yul\":28619:28622   */\n      dup3\n        /* \"#utility.yul\":28615:28629   */\n      add\n        /* \"#utility.yul\":28607:28629   */\n      swap1\n      pop\n        /* \"#utility.yul\":28505:28636   */\n      swap2\n      swap1\n      pop\n      jump\t// out\n        /* \"#utility.yul\":28642:28747   */\n    tag_225:\n        /* \"#utility.yul\":28717:28740   */\n      tag_498\n        /* \"#utility.yul\":28734:28739   */\n      dup2\n        /* \"#utility.yul\":28717:28740   */\n      tag_168\n      jump\t// in\n    tag_498:\n        /* \"#utility.yul\":28712:28715   */\n      dup3\n        /* \"#utility.yul\":28705:28741   */\n      mstore\n        /* \"#utility.yul\":28642:28747   */\n      pop\n      pop\n      jump\t// out\n        /* \"#utility.yul\":28753:28928   */\n    tag_226:\n        /* \"#utility.yul\":28820:28830   */\n      0x00\n        /* \"#utility.yul\":28841:28885   */\n      tag_500\n        /* \"#utility.yul\":28881:28884   */\n      dup4\n        /* \"#utility.yul\":28873:28879   */\n      dup4\n        /* \"#utility.yul\":28841:28885   */\n      tag_225\n      jump\t// in\n    tag_500:\n        /* \"#utility.yul\":28917:28921   */\n      0x20\n        /* \"#utility.yul\":28912:28915   */\n      dup4\n        /* \"#utility.yul\":28908:28922   */\n      add\n        /* \"#utility.yul\":28894:28922   */\n      swap1\n      pop\n        /* \"#utility.yul\":28753:28928   */\n      swap3\n      swap2\n      pop\n      pop\n      jump\t// out\n        /* \"#utility.yul\":28934:29046   */\n    tag_227:\n        /* \"#utility.yul\":29003:29007   */\n      0x00\n        /* \"#utility.yul\":29035:29039   */\n      0x20\n        /* \"#utility.yul\":29030:29033   */\n      dup3\n        /* \"#utility.yul\":29026:29040   */\n      add\n        /* \"#utility.yul\":29018:29040   */\n      swap1\n      pop\n        /* \"#utility.yul\":28934:29046   */\n      swap2\n      swap1\n      pop\n      jump\t// out\n        /* \"#utility.yul\":29080:29804   */\n    tag_228:\n        /* \"#utility.yul\":29197:29200   */\n      0x00\n        /* \"#utility.yul\":29226:29279   */\n      tag_503\n        /* \"#utility.yul\":29273:29278   */\n      dup3\n        /* \"#utility.yul\":29226:29279   */\n      tag_222\n      jump\t// in\n    tag_503:\n        /* \"#utility.yul\":29295:29380   */\n      tag_504\n        /* \"#utility.yul\":29373:29379   */\n      dup2\n        /* \"#utility.yul\":29368:29371   */\n      dup6\n        /* \"#utility.yul\":29295:29380   */\n      tag_223\n      jump\t// in\n    tag_504:\n        /* \"#utility.yul\":29288:29380   */\n      swap4\n      pop\n        /* \"#utility.yul\":29404:29459   */\n      tag_505\n        /* \"#utility.yul\":29453:29458   */\n      dup4\n        /* \"#utility.yul\":29404:29459   */\n      tag_224\n      jump\t// in\n    tag_505:\n        /* \"#utility.yul\":29482:29489   */\n      dup1\n        /* \"#utility.yul\":29513:29514   */\n      0x00\n        /* \"#utility.yul\":29498:29779   */\n    tag_506:\n        /* \"#utility.yul\":29523:29529   */\n      dup4\n        /* \"#utility.yul\":29520:29521   */\n      dup2\n        /* \"#utility.yul\":29517:29530   */\n      lt\n        /* \"#utility.yul\":29498:29779   */\n      iszero\n      tag_508\n      jumpi\n        /* \"#utility.yul\":29599:29605   */\n      dup2\n        /* \"#utility.yul\":29593:29606   */\n      mload\n        /* \"#utility.yul\":29626:29687   */\n      tag_509\n        /* \"#utility.yul\":29683:29686   */\n      dup9\n        /* \"#utility.yul\":29668:29681   */\n      dup3\n        /* \"#utility.yul\":29626:29687   */\n      tag_226\n      jump\t// in\n    tag_509:\n        /* \"#utility.yul\":29619:29687   */\n      swap8\n      pop\n        /* \"#utility.yul\":29710:29769   */\n      tag_510\n        /* \"#utility.yul\":29762:29768   */\n      dup4\n        /* \"#utility.yul\":29710:29769   */\n      tag_227\n      jump\t// in\n    tag_510:\n        /* \"#utility.yul\":29700:29769   */\n      swap3\n      pop\n        /* \"#utility.yul\":29558:29779   */\n      pop\n        /* \"#utility.yul\":29545:29546   */\n      0x01\n        /* \"#utility.yul\":29542:29543   */\n      dup2\n        /* \"#utility.yul\":29538:29547   */\n      add\n        /* \"#utility.yul\":29533:29547   */\n      swap1\n      pop\n        /* \"#utility.yul\":29498:29779   */\n      jump(tag_506)\n    tag_508:\n        /* \"#utility.yul\":29502:29516   */\n      pop\n        /* \"#utility.yul\":29795:29798   */\n      dup6\n        /* \"#utility.yul\":29788:29798   */\n      swap4\n      pop\n        /* \"#utility.yul\":29202:29804   */\n      pop\n      pop\n      pop\n        /* \"#utility.yul\":29080:29804   */\n      swap3\n      swap2\n      pop\n      pop\n      jump\t// out\n        /* \"#utility.yul\":29810:30179   */\n    tag_150:\n        /* \"#utility.yul\":29951:29955   */\n      0x00\n        /* \"#utility.yul\":29989:29991   */\n      0x20\n        /* \"#utility.yul\":29978:29987   */\n      dup3\n        /* \"#utility.yul\":29974:29992   */\n      add\n        /* \"#utility.yul\":29966:29992   */\n      swap1\n      pop\n        /* \"#utility.yul\":30038:30047   */\n      dup2\n        /* \"#utility.yul\":30032:30036   */\n      dup2\n        /* \"#utility.yul\":30028:30048   */\n      sub\n        /* \"#utility.yul\":30024:30025   */\n      0x00\n        /* \"#utility.yul\":30013:30022   */\n      dup4\n        /* \"#utility.yul\":30009:30026   */\n      add\n        /* \"#utility.yul\":30002:30049   */\n      mstore\n        /* \"#utility.yul\":30066:30172   */\n      tag_512\n        /* \"#utility.yul\":30167:30171   */\n      dup2\n        /* \"#utility.yul\":30158:30164   */\n      dup5\n        /* \"#utility.yul\":30066:30172   */\n      tag_228\n      jump\t// in\n    tag_512:\n        /* \"#utility.yul\":30058:30172   */\n      swap1\n      pop\n        /* \"#utility.yul\":29810:30179   */\n      swap3\n      swap2\n      pop\n      pop\n      jump\t// out\n\n    auxdata: 0xa264697066735822122095c9720323d1b28fc71b2d612044cbd576745845a9ba575f7e56d792753c06ec64736f6c634300081f0033\n}\n",
				"bytecode": {
					"linkReferences": {},
					"object": "60a060405234801561000f575f5ffd5b5060405161212b38038061212b833981810160405281019061003191906100c9565b8073ffffffffffffffffffffffffffffffffffffffff1660808173ffffffffffffffffffffffffffffffffffffffff1681525050506100f4565b5f5ffd5b5f73ffffffffffffffffffffffffffffffffffffffff82169050919050565b5f6100988261006f565b9050919050565b6100a88161008e565b81146100b2575f5ffd5b50565b5f815190506100c38161009f565b92915050565b5f602082840312156100de576100dd61006b565b5b5f6100eb848285016100b5565b91505092915050565b6080516120036101285f395f818161024701528181610432015281816104be0152818161080f0152610c1101526120035ff3fe608060405234801561000f575f5ffd5b5060043610610054575f3560e01c8062859b5d14610058578063b0fd93d714610074578063b5f8558c14610090578063c5bf2798146100ae578063cc301111146100ca575b5f5ffd5b610072600480360381019061006d9190611384565b6100e6565b005b61008e60048036038101906100899190611384565b6102d1565b005b6100986104bc565b6040516100a59190611486565b60405180910390f35b6100c860048036038101906100c39190611552565b6104e0565b005b6100e460048036038101906100df9190611797565b6108a0565b005b5f600467ffffffffffffffff81111561010257610101611185565b5b60405190808252806020026020018201604052801561013b57816020015b61012861113b565b8152602001906001900390816101205790505b50905061017f815f6040518060400160405280600681526020017f73656e646572000000000000000000000000000000000000000000000000000081525033610ca3565b6101c18160016040518060400160405280600481526020017f757365720000000000000000000000000000000000000000000000000000000081525087610d36565b6102038160026040518060400160405280600681526020017f736861726564000000000000000000000000000000000000000000000000000081525086610dc9565b6102458160036040518060400160405280600281526020017f696400000000000000000000000000000000000000000000000000000000000081525085610e5c565b7f000000000000000000000000000000000000000000000000000000000000000073ffffffffffffffffffffffffffffffffffffffff16637d64fa9b826040518263ffffffff1660e01b815260040161029e9190611b86565b5f604051808303815f87803b1580156102b5575f5ffd5b505af11580156102c7573d5f5f3e3d5ffd5b5050505050505050565b5f600467ffffffffffffffff8111156102ed576102ec611185565b5b60405190808252806020026020018201604052801561032657816020015b61031361113b565b81526020019060019003908161030b5790505b50905061036a815f6040518060400160405280600681526020017f73656e646572000000000000000000000000000000000000000000000000000081525033610ca3565b6103ac8160016040518060400160405280600481526020017f757365720000000000000000000000000000000000000000000000000000000081525087610d36565b6103ee8160026040518060400160405280600681526020017f736861726564000000000000000000000000000000000000000000000000000081525086610dc9565b6104308160036040518060400160405280600281526020017f696400000000000000000000000000000000000000000000000000000000000081525085610e5c565b7f000000000000000000000000000000000000000000000000000000000000000073ffffffffffffffffffffffffffffffffffffffff16637d64fa9b826040518263ffffffff1660e01b81526004016104899190611c03565b5f604051808303815f87803b1580156104a0575f5ffd5b505af11580156104b2573d5f5f3e3d5ffd5b5050505050505050565b7f000000000000000000000000000000000000000000000000000000000000000081565b5f600b67ffffffffffffffff8111156104fc576104fb611185565b5b60405190808252806020026020018201604052801561053557816020015b61052261113b565b81526020019060019003908161051a5790505b509050610579815f6040518060400160405280600681526020017f73656e646572000000000000000000000000000000000000000000000000000081525033610ca3565b6105bb8160016040518060400160405280600481526020017f75736572000000000000000000000000000000000000000000000000000000008152508e610d36565b6105fd8160026040518060400160405280600681526020017f73686172656400000000000000000000000000000000000000000000000000008152508d610dc9565b61063f8160036040518060400160405280600581526020017f61737365740000000000000000000000000000000000000000000000000000008152508c610dc9565b6106818160046040518060400160405280600481526020017f73697a65000000000000000000000000000000000000000000000000000000008152508b610e5c565b6106c38160056040518060400160405280600881526020017f6c6576657261676500000000000000000000000000000000000000000000000081525088610eef565b6107058160066040518060400160405280600681526020017f69734c6f6e67000000000000000000000000000000000000000000000000000081525089610f82565b6107478160076040518060400160405280600d81526020017f646573697265645f7072696365000000000000000000000000000000000000008152508a611015565b6107898160086040518060400160405280600d81526020017f726573657276655f636861696e0000000000000000000000000000000000000081525087610dc9565b6107cb8160096040518060400160405280601081526020017f726573657276655f70726f76696465720000000000000000000000000000000081525086610dc9565b61080d81600a6040518060400160405280600d81526020017f726573657276655f746f6b656e0000000000000000000000000000000000000081525085610dc9565b7f000000000000000000000000000000000000000000000000000000000000000073ffffffffffffffffffffffffffffffffffffffff16637d64fa9b826040518263ffffffff1660e01b81526004016108669190611c80565b5f604051808303815f87803b15801561087d575f5ffd5b505af115801561088f573d5f5f3e3d5ffd5b505050505050505050505050505050565b5f600c67ffffffffffffffff8111156108bc576108bb611185565b5b6040519080825280602002602001820160405280156108f557816020015b6108e261113b565b8152602001906001900390816108da5790505b509050610939815f6040518060400160405280600681526020017f73656e646572000000000000000000000000000000000000000000000000000081525033610ca3565b61097b8160016040518060400160405280600481526020017f75736572000000000000000000000000000000000000000000000000000000008152508f610d36565b6109bd8160026040518060400160405280600681526020017f73686172656400000000000000000000000000000000000000000000000000008152508e610dc9565b6109ff8160036040518060400160405280600581526020017f61737365740000000000000000000000000000000000000000000000000000008152508d610dc9565b610a418160046040518060400160405280600781526020017f706572696f6473000000000000000000000000000000000000000000000000008152508c6110a8565b610a838160056040518060400160405280600581526020017f73697a65730000000000000000000000000000000000000000000000000000008152508b6110a8565b610ac58160066040518060400160405280600d81526020017f646573697265645f7072696365000000000000000000000000000000000000008152508a611015565b610b078160076040518060400160405280600681526020017f69734c6f6e67000000000000000000000000000000000000000000000000000081525089610f82565b610b498160086040518060400160405280600881526020017f6c6576657261676500000000000000000000000000000000000000000000000081525088610eef565b610b8b8160096040518060400160405280600d81526020017f726573657276655f636861696e0000000000000000000000000000000000000081525087610dc9565b610bcd81600a6040518060400160405280601081526020017f726573657276655f70726f76696465720000000000000000000000000000000081525086610dc9565b610c0f81600b6040518060400160405280600d81526020017f726573657276655f746f6b656e0000000000000000000000000000000000000081525085610dc9565b7f000000000000000000000000000000000000000000000000000000000000000073ffffffffffffffffffffffffffffffffffffffff16637d64fa9b826040518263ffffffff1660e01b8152600401610c689190611cfd565b5f604051808303815f87803b158015610c7f575f5ffd5b505af1158015610c91573d5f5f3e3d5ffd5b50505050505050505050505050505050565b60405180606001604052808381526020016040518060400160405280600781526020017f6164647265737300000000000000000000000000000000000000000000000000815250815260200182604051602001610d009190611d50565b604051602081830303815290604052815250848481518110610d2557610d24611d69565b5b602002602001018190525050505050565b60405180606001604052808381526020016040518060400160405280600581526020017f6279746573000000000000000000000000000000000000000000000000000000815250815260200182604051602001610d939190611dde565b604051602081830303815290604052815250848481518110610db857610db7611d69565b5b602002602001018190525050505050565b60405180606001604052808381526020016040518060400160405280600681526020017f737472696e670000000000000000000000000000000000000000000000000000815250815260200182604051602001610e269190611e36565b604051602081830303815290604052815250848481518110610e4b57610e4a611d69565b5b602002602001018190525050505050565b60405180606001604052808381526020016040518060400160405280600681526020017f75696e7436340000000000000000000000000000000000000000000000000000815250815260200182604051602001610eb99190611e65565b604051602081830303815290604052815250848481518110610ede57610edd611d69565b5b602002602001018190525050505050565b60405180606001604052808381526020016040518060400160405280600681526020017f75696e7433320000000000000000000000000000000000000000000000000000815250815260200182604051602001610f4c9190611e8d565b604051602081830303815290604052815250848481518110610f7157610f70611d69565b5b602002602001018190525050505050565b60405180606001604052808381526020016040518060400160405280600481526020017f626f6f6c00000000000000000000000000000000000000000000000000000000815250815260200182604051602001610fdf9190611eb5565b60405160208183030381529060405281525084848151811061100457611003611d69565b5b602002602001018190525050505050565b60405180606001604052808381526020016040518060400160405280600781526020017f75696e74313238000000000000000000000000000000000000000000000000008152508152602001826040516020016110729190611edd565b60405160208183030381529060405281525084848151811061109757611096611d69565b5b602002602001018190525050505050565b60405180606001604052808381526020016040518060400160405280600881526020017f75696e7436345b5d0000000000000000000000000000000000000000000000008152508152602001826040516020016111059190611fad565b60405160208183030381529060405281525084848151811061112a57611129611d69565b5b602002602001018190525050505050565b60405180606001604052806060815260200160608152602001606081525090565b5f604051905090565b5f5ffd5b5f5ffd5b5f5ffd5b5f5ffd5b5f601f19601f8301169050919050565b7f4e487b71000000000000000000000000000000000000000000000000000000005f52604160045260245ffd5b6111bb82611175565b810181811067ffffffffffffffff821117156111da576111d9611185565b5b80604052505050565b5f6111ec61115c565b90506111f882826111b2565b919050565b5f67ffffffffffffffff82111561121757611216611185565b5b61122082611175565b9050602081019050919050565b828183375f83830152505050565b5f61124d611248846111fd565b6111e3565b90508281526020810184848401111561126957611268611171565b5b61127484828561122d565b509392505050565b5f82601f8301126112905761128f61116d565b5b81356112a084826020860161123b565b91505092915050565b5f67ffffffffffffffff8211156112c3576112c2611185565b5b6112cc82611175565b9050602081019050919050565b5f6112eb6112e6846112a9565b6111e3565b90508281526020810184848401111561130757611306611171565b5b61131284828561122d565b509392505050565b5f82601f83011261132e5761132d61116d565b5b813561133e8482602086016112d9565b91505092915050565b5f67ffffffffffffffff82169050919050565b61136381611347565b811461136d575f5ffd5b50565b5f8135905061137e8161135a565b92915050565b5f5f5f6060848603121561139b5761139a611165565b5b5f84013567ffffffffffffffff8111156113b8576113b7611169565b5b6113c48682870161127c565b935050602084013567ffffffffffffffff8111156113e5576113e4611169565b5b6113f18682870161131a565b925050604061140286828701611370565b9150509250925092565b5f73ffffffffffffffffffffffffffffffffffffffff82169050919050565b5f819050919050565b5f61144e6114496114448461140c565b61142b565b61140c565b9050919050565b5f61145f82611434565b9050919050565b5f61147082611455565b9050919050565b61148081611466565b82525050565b5f6020820190506114995f830184611477565b92915050565b5f6fffffffffffffffffffffffffffffffff82169050919050565b6114c38161149f565b81146114cd575f5ffd5b50565b5f813590506114de816114ba565b92915050565b5f8115159050919050565b6114f8816114e4565b8114611502575f5ffd5b50565b5f81359050611513816114ef565b92915050565b5f63ffffffff82169050919050565b61153181611519565b811461153b575f5ffd5b50565b5f8135905061154c81611528565b92915050565b5f5f5f5f5f5f5f5f5f5f6101408b8d03121561157157611570611165565b5b5f8b013567ffffffffffffffff81111561158e5761158d611169565b5b61159a8d828e0161127c565b9a505060208b013567ffffffffffffffff8111156115bb576115ba611169565b5b6115c78d828e0161131a565b99505060408b013567ffffffffffffffff8111156115e8576115e7611169565b5b6115f48d828e0161131a565b98505060606116058d828e01611370565b97505060806116168d828e016114d0565b96505060a06116278d828e01611505565b95505060c06116388d828e0161153e565b94505060e08b013567ffffffffffffffff81111561165957611658611169565b5b6116658d828e0161131a565b9350506101008b013567ffffffffffffffff81111561168757611686611169565b5b6116938d828e0161131a565b9250506101208b013567ffffffffffffffff8111156116b5576116b4611169565b5b6116c18d828e0161131a565b9150509295989b9194979a5092959850565b5f67ffffffffffffffff8211156116ed576116ec611185565b5b602082029050602081019050919050565b5f5ffd5b5f61171461170f846116d3565b6111e3565b90508083825260208201905060208402830185811115611737576117366116fe565b5b835b81811015611760578061174c8882611370565b845260208401935050602081019050611739565b5050509392505050565b5f82601f83011261177e5761177d61116d565b5b813561178e848260208601611702565b91505092915050565b5f5f5f5f5f5f5f5f5f5f5f6101608c8e0312156117b7576117b6611165565b5b5f8c013567ffffffffffffffff8111156117d4576117d3611169565b5b6117e08e828f0161127c565b9b505060208c013567ffffffffffffffff81111561180157611800611169565b5b61180d8e828f0161131a565b9a505060408c013567ffffffffffffffff81111561182e5761182d611169565b5b61183a8e828f0161131a565b99505060608c013567ffffffffffffffff81111561185b5761185a611169565b5b6118678e828f0161176a565b98505060808c013567ffffffffffffffff81111561188857611887611169565b5b6118948e828f0161176a565b97505060a06118a58e828f016114d0565b96505060c06118b68e828f01611505565b95505060e06118c78e828f0161153e565b9450506101008c013567ffffffffffffffff8111156118e9576118e8611169565b5b6118f58e828f0161131a565b9350506101208c013567ffffffffffffffff81111561191757611916611169565b5b6119238e828f0161131a565b9250506101408c013567ffffffffffffffff81111561194557611944611169565b5b6119518e828f0161131a565b9150509295989b509295989b9093969950565b5f82825260208201905092915050565b7f4d6f64756c61722054574150204f726465722044656c657465640000000000005f82015250565b5f6119a8601a83611964565b91506119b382611974565b602082019050919050565b5f81519050919050565b5f82825260208201905092915050565b5f819050602082019050919050565b5f81519050919050565b5f82825260208201905092915050565b8281835e5f83830152505050565b5f611a19826119e7565b611a2381856119f1565b9350611a33818560208601611a01565b611a3c81611175565b840191505092915050565b5f81519050919050565b5f82825260208201905092915050565b5f611a6b82611a47565b611a758185611a51565b9350611a85818560208601611a01565b611a8e81611175565b840191505092915050565b5f606083015f8301518482035f860152611ab38282611a0f565b91505060208301518482036020860152611acd8282611a0f565b91505060408301518482036040860152611ae78282611a61565b9150508091505092915050565b5f611aff8383611a99565b905092915050565b5f602082019050919050565b5f611b1d826119be565b611b2781856119c8565b935083602082028501611b39856119d8565b805f5b85811015611b745784840389528151611b558582611af4565b9450611b6083611b07565b925060208a01995050600181019050611b3c565b50829750879550505050505092915050565b5f6040820190508181035f830152611b9d8161199c565b90508181036020830152611bb18184611b13565b905092915050565b7f4d6f64756c6172204c696d6974204f726465722044656c6574656400000000005f82015250565b5f611bed601b83611964565b9150611bf882611bb9565b602082019050919050565b5f6040820190508181035f830152611c1a81611be1565b90508181036020830152611c2e8184611b13565b905092915050565b7f4d6f64756c6172204c696d6974204f72646572204372656174656400000000005f82015250565b5f611c6a601b83611964565b9150611c7582611c36565b602082019050919050565b5f6040820190508181035f830152611c9781611c5e565b90508181036020830152611cab8184611b13565b905092915050565b7f4d6f64756c61722054574150204f7264657220437265617465640000000000005f82015250565b5f611ce7601a83611964565b9150611cf282611cb3565b602082019050919050565b5f6040820190508181035f830152611d1481611cdb565b90508181036020830152611d288184611b13565b905092915050565b5f611d3a8261140c565b9050919050565b611d4a81611d30565b82525050565b5f602082019050611d635f830184611d41565b92915050565b7f4e487b71000000000000000000000000000000000000000000000000000000005f52603260045260245ffd5b5f82825260208201905092915050565b5f611db082611a47565b611dba8185611d96565b9350611dca818560208601611a01565b611dd381611175565b840191505092915050565b5f6020820190508181035f830152611df68184611da6565b905092915050565b5f611e08826119e7565b611e128185611964565b9350611e22818560208601611a01565b611e2b81611175565b840191505092915050565b5f6020820190508181035f830152611e4e8184611dfe565b905092915050565b611e5f81611347565b82525050565b5f602082019050611e785f830184611e56565b92915050565b611e8781611519565b82525050565b5f602082019050611ea05f830184611e7e565b92915050565b611eaf816114e4565b82525050565b5f602082019050611ec85f830184611ea6565b92915050565b611ed78161149f565b82525050565b5f602082019050611ef05f830184611ece565b92915050565b5f81519050919050565b5f82825260208201905092915050565b5f819050602082019050919050565b611f2881611347565b82525050565b5f611f398383611f1f565b60208301905092915050565b5f602082019050919050565b5f611f5b82611ef6565b611f658185611f00565b9350611f7083611f10565b805f5b83811015611fa0578151611f878882611f2e565b9750611f9283611f45565b925050600181019050611f73565b5085935050505092915050565b5f6020820190508181035f830152611fc58184611f51565b90509291505056fea264697066735822122095c9720323d1b28fc71b2d612044cbd576745845a9ba575f7e56d792753c06ec64736f6c634300081f0033",
					"opcodes": "PUSH1 0xA0 PUSH1 0x40 MSTORE CALLVALUE DUP1 ISZERO PUSH2 0xF JUMPI PUSH0 PUSH0 REVERT JUMPDEST POP PUSH1 0x40 MLOAD PUSH2 0x212B CODESIZE SUB DUP1 PUSH2 0x212B DUP4 CODECOPY DUP2 DUP2 ADD PUSH1 0x40 MSTORE DUP2 ADD SWAP1 PUSH2 0x31 SWAP2 SWAP1 PUSH2 0xC9 JUMP JUMPDEST DUP1 PUSH20 0xFFFFFFFFFFFFFFFFFFFFFFFFFFFFFFFFFFFFFFFF AND PUSH1 0x80 DUP2 PUSH20 0xFFFFFFFFFFFFFFFFFFFFFFFFFFFFFFFFFFFFFFFF AND DUP2 MSTORE POP POP POP PUSH2 0xF4 JUMP JUMPDEST PUSH0 PUSH0 REVERT JUMPDEST PUSH0 PUSH20 0xFFFFFFFFFFFFFFFFFFFFFFFFFFFFFFFFFFFFFFFF DUP3 AND SWAP1 POP SWAP2 SWAP1 POP JUMP JUMPDEST PUSH0 PUSH2 0x98 DUP3 PUSH2 0x6F JUMP JUMPDEST SWAP1 POP SWAP2 SWAP1 POP JUMP JUMPDEST PUSH2 0xA8 DUP2 PUSH2 0x8E JUMP JUMPDEST DUP2 EQ PUSH2 0xB2 JUMPI PUSH0 PUSH0 REVERT JUMPDEST POP JUMP JUMPDEST PUSH0 DUP2 MLOAD SWAP1 POP PUSH2 0xC3 DUP2 PUSH2 0x9F JUMP JUMPDEST SWAP3 SWAP2 POP POP JUMP JUMPDEST PUSH0 PUSH1 0x20 DUP3 DUP5 SUB SLT ISZERO PUSH2 0xDE JUMPI PUSH2 0xDD PUSH2 0x6B JUMP JUMPDEST JUMPDEST PUSH0 PUSH2 0xEB DUP5 DUP3 DUP6 ADD PUSH2 0xB5 JUMP JUMPDEST SWAP2 POP POP SWAP3 SWAP2 POP POP JUMP JUMPDEST PUSH1 0x80 MLOAD PUSH2 0x2003 PUSH2 0x128 PUSH0 CODECOPY PUSH0 DUP2 DUP2 PUSH2 0x247 ADD MSTORE DUP2 DUP2 PUSH2 0x432 ADD MSTORE DUP2 DUP2 PUSH2 0x4BE ADD MSTORE DUP2 DUP2 PUSH2 0x80F ADD MSTORE PUSH2 0xC11 ADD MSTORE PUSH2 0x2003 PUSH0 RETURN INVALID PUSH1 0x80 PUSH1 0x40 MSTORE CALLVALUE DUP1 ISZERO PUSH2 0xF JUMPI PUSH0 PUSH0 REVERT JUMPDEST POP PUSH1 0x4 CALLDATASIZE LT PUSH2 0x54 JUMPI PUSH0 CALLDATALOAD PUSH1 0xE0 SHR DUP1 PUSH3 0x859B5D EQ PUSH2 0x58 JUMPI DUP1 PUSH4 0xB0FD93D7 EQ PUSH2 0x74 JUMPI DUP1 PUSH4 0xB5F8558C EQ PUSH2 0x90 JUMPI DUP1 PUSH4 0xC5BF2798 EQ PUSH2 0xAE JUMPI DUP1 PUSH4 0xCC301111 EQ PUSH2 0xCA JUMPI JUMPDEST PUSH0 PUSH0 REVERT JUMPDEST PUSH2 0x72 PUSH1 0x4 DUP1 CALLDATASIZE SUB DUP2 ADD SWAP1 PUSH2 0x6D SWAP2 SWAP1 PUSH2 0x1384 JUMP JUMPDEST PUSH2 0xE6 JUMP JUMPDEST STOP JUMPDEST PUSH2 0x8E PUSH1 0x4 DUP1 CALLDATASIZE SUB DUP2 ADD SWAP1 PUSH2 0x89 SWAP2 SWAP1 PUSH2 0x1384 JUMP JUMPDEST PUSH2 0x2D1 JUMP JUMPDEST STOP JUMPDEST PUSH2 0x98 PUSH2 0x4BC JUMP JUMPDEST PUSH1 0x40 MLOAD PUSH2 0xA5 SWAP2 SWAP1 PUSH2 0x1486 JUMP JUMPDEST PUSH1 0x40 MLOAD DUP1 SWAP2 SUB SWAP1 RETURN JUMPDEST PUSH2 0xC8 PUSH1 0x4 DUP1 CALLDATASIZE SUB DUP2 ADD SWAP1 PUSH2 0xC3 SWAP2 SWAP1 PUSH2 0x1552 JUMP JUMPDEST PUSH2 0x4E0 JUMP JUMPDEST STOP JUMPDEST PUSH2 0xE4 PUSH1 0x4 DUP1 CALLDATASIZE SUB DUP2 ADD SWAP1 PUSH2 0xDF SWAP2 SWAP1 PUSH2 0x1797 JUMP JUMPDEST PUSH2 0x8A0 JUMP JUMPDEST STOP JUMPDEST PUSH0 PUSH1 0x4 PUSH8 0xFFFFFFFFFFFFFFFF DUP2 GT ISZERO PUSH2 0x102 JUMPI PUSH2 0x101 PUSH2 0x1185 JUMP JUMPDEST JUMPDEST PUSH1 0x40 MLOAD SWAP1 DUP1 DUP3 MSTORE DUP1 PUSH1 0x20 MUL PUSH1 0x20 ADD DUP3 ADD PUSH1 0x40 MSTORE DUP1 ISZERO PUSH2 0x13B JUMPI DUP2 PUSH1 0x20 ADD JUMPDEST PUSH2 0x128 PUSH2 0x113B JUMP JUMPDEST DUP2 MSTORE PUSH1 0x20 ADD SWAP1 PUSH1 0x1 SWAP1 SUB SWAP1 DUP2 PUSH2 0x120 JUMPI SWAP1 POP JUMPDEST POP SWAP1 POP PUSH2 0x17F DUP2 PUSH0 PUSH1 0x40 MLOAD DUP1 PUSH1 0x40 ADD PUSH1 0x40 MSTORE DUP1 PUSH1 0x6 DUP2 MSTORE PUSH1 0x20 ADD PUSH32 0x73656E6465720000000000000000000000000000000000000000000000000000 DUP2 MSTORE POP CALLER PUSH2 0xCA3 JUMP JUMPDEST PUSH2 0x1C1 DUP2 PUSH1 0x1 PUSH1 0x40 MLOAD DUP1 PUSH1 0x40 ADD PUSH1 0x40 MSTORE DUP1 PUSH1 0x4 DUP2 MSTORE PUSH1 0x20 ADD PUSH32 0x7573657200000000000000000000000000000000000000000000000000000000 DUP2 MSTORE POP DUP8 PUSH2 0xD36 JUMP JUMPDEST PUSH2 0x203 DUP2 PUSH1 0x2 PUSH1 0x40 MLOAD DUP1 PUSH1 0x40 ADD PUSH1 0x40 MSTORE DUP1 PUSH1 0x6 DUP2 MSTORE PUSH1 0x20 ADD PUSH32 0x7368617265640000000000000000000000000000000000000000000000000000 DUP2 MSTORE POP DUP7 PUSH2 0xDC9 JUMP JUMPDEST PUSH2 0x245 DUP2 PUSH1 0x3 PUSH1 0x40 MLOAD DUP1 PUSH1 0x40 ADD PUSH1 0x40 MSTORE DUP1 PUSH1 0x2 DUP2 MSTORE PUSH1 0x20 ADD PUSH32 0x6964000000000000000000000000000000000000000000000000000000000000 DUP2 MSTORE POP DUP6 PUSH2 0xE5C JUMP JUMPDEST PUSH32 0x0 PUSH20 0xFFFFFFFFFFFFFFFFFFFFFFFFFFFFFFFFFFFFFFFF AND PUSH4 0x7D64FA9B DUP3 PUSH1 0x40 MLOAD DUP3 PUSH4 0xFFFFFFFF AND PUSH1 0xE0 SHL DUP2 MSTORE PUSH1 0x4 ADD PUSH2 0x29E SWAP2 SWAP1 PUSH2 0x1B86 JUMP JUMPDEST PUSH0 PUSH1 0x40 MLOAD DUP1 DUP4 SUB DUP2 PUSH0 DUP8 DUP1 EXTCODESIZE ISZERO DUP1 ISZERO PUSH2 0x2B5 JUMPI PUSH0 PUSH0 REVERT JUMPDEST POP GAS CALL ISZERO DUP1 ISZERO PUSH2 0x2C7 JUMPI RETURNDATASIZE PUSH0 PUSH0 RETURNDATACOPY RETURNDATASIZE PUSH0 REVERT JUMPDEST POP POP POP POP POP POP POP POP JUMP JUMPDEST PUSH0 PUSH1 0x4 PUSH8 0xFFFFFFFFFFFFFFFF DUP2 GT ISZERO PUSH2 0x2ED JUMPI PUSH2 0x2EC PUSH2 0x1185 JUMP JUMPDEST JUMPDEST PUSH1 0x40 MLOAD SWAP1 DUP1 DUP3 MSTORE DUP1 PUSH1 0x20 MUL PUSH1 0x20 ADD DUP3 ADD PUSH1 0x40 MSTORE DUP1 ISZERO PUSH2 0x326 JUMPI DUP2 PUSH1 0x20 ADD JUMPDEST PUSH2 0x313 PUSH2 0x113B JUMP JUMPDEST DUP2 MSTORE PUSH1 0x20 ADD SWAP1 PUSH1 0x1 SWAP1 SUB SWAP1 DUP2 PUSH2 0x30B JUMPI SWAP1 POP JUMPDEST POP SWAP1 POP PUSH2 0x36A DUP2 PUSH0 PUSH1 0x40 MLOAD DUP1 PUSH1 0x40 ADD PUSH1 0x40 MSTORE DUP1 PUSH1 0x6 DUP2 MSTORE PUSH1 0x20 ADD PUSH32 0x73656E6465720000000000000000000000000000000000000000000000000000 DUP2 MSTORE POP CALLER PUSH2 0xCA3 JUMP JUMPDEST PUSH2 0x3AC DUP2 PUSH1 0x1 PUSH1 0x40 MLOAD DUP1 PUSH1 0x40 ADD PUSH1 0x40 MSTORE DUP1 PUSH1 0x4 DUP2 MSTORE PUSH1 0x20 ADD PUSH32 0x7573657200000000000000000000000000000000000000000000000000000000 DUP2 MSTORE POP DUP8 PUSH2 0xD36 JUMP JUMPDEST PUSH2 0x3EE DUP2 PUSH1 0x2 PUSH1 0x40 MLOAD DUP1 PUSH1 0x40 ADD PUSH1 0x40 MSTORE DUP1 PUSH1 0x6 DUP2 MSTORE PUSH1 0x20 ADD PUSH32 0x7368617265640000000000000000000000000000000000000000000000000000 DUP2 MSTORE POP DUP7 PUSH2 0xDC9 JUMP JUMPDEST PUSH2 0x430 DUP2 PUSH1 0x3 PUSH1 0x40 MLOAD DUP1 PUSH1 0x40 ADD PUSH1 0x40 MSTORE DUP1 PUSH1 0x2 DUP2 MSTORE PUSH1 0x20 ADD PUSH32 0x6964000000000000000000000000000000000000000000000000000000000000 DUP2 MSTORE POP DUP6 PUSH2 0xE5C JUMP JUMPDEST PUSH32 0x0 PUSH20 0xFFFFFFFFFFFFFFFFFFFFFFFFFFFFFFFFFFFFFFFF AND PUSH4 0x7D64FA9B DUP3 PUSH1 0x40 MLOAD DUP3 PUSH4 0xFFFFFFFF AND PUSH1 0xE0 SHL DUP2 MSTORE PUSH1 0x4 ADD PUSH2 0x489 SWAP2 SWAP1 PUSH2 0x1C03 JUMP JUMPDEST PUSH0 PUSH1 0x40 MLOAD DUP1 DUP4 SUB DUP2 PUSH0 DUP8 DUP1 EXTCODESIZE ISZERO DUP1 ISZERO PUSH2 0x4A0 JUMPI PUSH0 PUSH0 REVERT JUMPDEST POP GAS CALL ISZERO DUP1 ISZERO PUSH2 0x4B2 JUMPI RETURNDATASIZE PUSH0 PUSH0 RETURNDATACOPY RETURNDATASIZE PUSH0 REVERT JUMPDEST POP POP POP POP POP POP POP POP JUMP JUMPDEST PUSH32 0x0 DUP2 JUMP JUMPDEST PUSH0 PUSH1 0xB PUSH8 0xFFFFFFFFFFFFFFFF DUP2 GT ISZERO PUSH2 0x4FC JUMPI PUSH2 0x4FB PUSH2 0x1185 JUMP JUMPDEST JUMPDEST PUSH1 0x40 MLOAD SWAP1 DUP1 DUP3 MSTORE DUP1 PUSH1 0x20 MUL PUSH1 0x20 ADD DUP3 ADD PUSH1 0x40 MSTORE DUP1 ISZERO PUSH2 0x535 JUMPI DUP2 PUSH1 0x20 ADD JUMPDEST PUSH2 0x522 PUSH2 0x113B JUMP JUMPDEST DUP2 MSTORE PUSH1 0x20 ADD SWAP1 PUSH1 0x1 SWAP1 SUB SWAP1 DUP2 PUSH2 0x51A JUMPI SWAP1 POP JUMPDEST POP SWAP1 POP PUSH2 0x579 DUP2 PUSH0 PUSH1 0x40 MLOAD DUP1 PUSH1 0x40 ADD PUSH1 0x40 MSTORE DUP1 PUSH1 0x6 DUP2 MSTORE PUSH1 0x20 ADD PUSH32 0x73656E6465720000000000000000000000000000000000000000000000000000 DUP2 MSTORE POP CALLER PUSH2 0xCA3 JUMP JUMPDEST PUSH2 0x5BB DUP2 PUSH1 0x1 PUSH1 0x40 MLOAD DUP1 PUSH1 0x40 ADD PUSH1 0x40 MSTORE DUP1 PUSH1 0x4 DUP2 MSTORE PUSH1 0x20 ADD PUSH32 0x7573657200000000000000000000000000000000000000000000000000000000 DUP2 MSTORE POP DUP15 PUSH2 0xD36 JUMP JUMPDEST PUSH2 0x5FD DUP2 PUSH1 0x2 PUSH1 0x40 MLOAD DUP1 PUSH1 0x40 ADD PUSH1 0x40 MSTORE DUP1 PUSH1 0x6 DUP2 MSTORE PUSH1 0x20 ADD PUSH32 0x7368617265640000000000000000000000000000000000000000000000000000 DUP2 MSTORE POP DUP14 PUSH2 0xDC9 JUMP JUMPDEST PUSH2 0x63F DUP2 PUSH1 0x3 PUSH1 0x40 MLOAD DUP1 PUSH1 0x40 ADD PUSH1 0x40 MSTORE DUP1 PUSH1 0x5 DUP2 MSTORE PUSH1 0x20 ADD PUSH32 0x6173736574000000000000000000000000000000000000000000000000000000 DUP2 MSTORE POP DUP13 PUSH2 0xDC9 JUMP JUMPDEST PUSH2 0x681 DUP2 PUSH1 0x4 PUSH1 0x40 MLOAD DUP1 PUSH1 0x40 ADD PUSH1 0x40 MSTORE DUP1 PUSH1 0x4 DUP2 MSTORE PUSH1 0x20 ADD PUSH32 0x73697A6500000000000000000000000000000000000000000000000000000000 DUP2 MSTORE POP DUP12 PUSH2 0xE5C JUMP JUMPDEST PUSH2 0x6C3 DUP2 PUSH1 0x5 PUSH1 0x40 MLOAD DUP1 PUSH1 0x40 ADD PUSH1 0x40 MSTORE DUP1 PUSH1 0x8 DUP2 MSTORE PUSH1 0x20 ADD PUSH32 0x6C65766572616765000000000000000000000000000000000000000000000000 DUP2 MSTORE POP DUP9 PUSH2 0xEEF JUMP JUMPDEST PUSH2 0x705 DUP2 PUSH1 0x6 PUSH1 0x40 MLOAD DUP1 PUSH1 0x40 ADD PUSH1 0x40 MSTORE DUP1 PUSH1 0x6 DUP2 MSTORE PUSH1 0x20 ADD PUSH32 0x69734C6F6E670000000000000000000000000000000000000000000000000000 DUP2 MSTORE POP DUP10 PUSH2 0xF82 JUMP JUMPDEST PUSH2 0x747 DUP2 PUSH1 0x7 PUSH1 0x40 MLOAD DUP1 PUSH1 0x40 ADD PUSH1 0x40 MSTORE DUP1 PUSH1 0xD DUP2 MSTORE PUSH1 0x20 ADD PUSH32 0x646573697265645F707269636500000000000000000000000000000000000000 DUP2 MSTORE POP DUP11 PUSH2 0x1015 JUMP JUMPDEST PUSH2 0x789 DUP2 PUSH1 0x8 PUSH1 0x40 MLOAD DUP1 PUSH1 0x40 ADD PUSH1 0x40 MSTORE DUP1 PUSH1 0xD DUP2 MSTORE PUSH1 0x20 ADD PUSH32 0x726573657276655F636861696E00000000000000000000000000000000000000 DUP2 MSTORE POP DUP8 PUSH2 0xDC9 JUMP JUMPDEST PUSH2 0x7CB DUP2 PUSH1 0x9 PUSH1 0x40 MLOAD DUP1 PUSH1 0x40 ADD PUSH1 0x40 MSTORE DUP1 PUSH1 0x10 DUP2 MSTORE PUSH1 0x20 ADD PUSH32 0x726573657276655F70726F766964657200000000000000000000000000000000 DUP2 MSTORE POP DUP7 PUSH2 0xDC9 JUMP JUMPDEST PUSH2 0x80D DUP2 PUSH1 0xA PUSH1 0x40 MLOAD DUP1 PUSH1 0x40 ADD PUSH1 0x40 MSTORE DUP1 PUSH1 0xD DUP2 MSTORE PUSH1 0x20 ADD PUSH32 0x726573657276655F746F6B656E00000000000000000000000000000000000000 DUP2 MSTORE POP DUP6 PUSH2 0xDC9 JUMP JUMPDEST PUSH32 0x0 PUSH20 0xFFFFFFFFFFFFFFFFFFFFFFFFFFFFFFFFFFFFFFFF AND PUSH4 0x7D64FA9B DUP3 PUSH1 0x40 MLOAD DUP3 PUSH4 0xFFFFFFFF AND PUSH1 0xE0 SHL DUP2 MSTORE PUSH1 0x4 ADD PUSH2 0x866 SWAP2 SWAP1 PUSH2 0x1C80 JUMP JUMPDEST PUSH0 PUSH1 0x40 MLOAD DUP1 DUP4 SUB DUP2 PUSH0 DUP8 DUP1 EXTCODESIZE ISZERO DUP1 ISZERO PUSH2 0x87D JUMPI PUSH0 PUSH0 REVERT JUMPDEST POP GAS CALL ISZERO DUP1 ISZERO PUSH2 0x88F JUMPI RETURNDATASIZE PUSH0 PUSH0 RETURNDATACOPY RETURNDATASIZE PUSH0 REVERT JUMPDEST POP POP POP POP POP POP POP POP POP POP POP POP POP POP POP JUMP JUMPDEST PUSH0 PUSH1 0xC PUSH8 0xFFFFFFFFFFFFFFFF DUP2 GT ISZERO PUSH2 0x8BC JUMPI PUSH2 0x8BB PUSH2 0x1185 JUMP JUMPDEST JUMPDEST PUSH1 0x40 MLOAD SWAP1 DUP1 DUP3 MSTORE DUP1 PUSH1 0x20 MUL PUSH1 0x20 ADD DUP3 ADD PUSH1 0x40 MSTORE DUP1 ISZERO PUSH2 0x8F5 JUMPI DUP2 PUSH1 0x20 ADD JUMPDEST PUSH2 0x8E2 PUSH2 0x113B JUMP JUMPDEST DUP2 MSTORE PUSH1 0x20 ADD SWAP1 PUSH1 0x1 SWAP1 SUB SWAP1 DUP2 PUSH2 0x8DA JUMPI SWAP1 POP JUMPDEST POP SWAP1 POP PUSH2 0x939 DUP2 PUSH0 PUSH1 0x40 MLOAD DUP1 PUSH1 0x40 ADD PUSH1 0x40 MSTORE DUP1 PUSH1 0x6 DUP2 MSTORE PUSH1 0x20 ADD PUSH32 0x73656E6465720000000000000000000000000000000000000000000000000000 DUP2 MSTORE POP CALLER PUSH2 0xCA3 JUMP JUMPDEST PUSH2 0x97B DUP2 PUSH1 0x1 PUSH1 0x40 MLOAD DUP1 PUSH1 0x40 ADD PUSH1 0x40 MSTORE DUP1 PUSH1 0x4 DUP2 MSTORE PUSH1 0x20 ADD PUSH32 0x7573657200000000000000000000000000000000000000000000000000000000 DUP2 MSTORE POP DUP16 PUSH2 0xD36 JUMP JUMPDEST PUSH2 0x9BD DUP2 PUSH1 0x2 PUSH1 0x40 MLOAD DUP1 PUSH1 0x40 ADD PUSH1 0x40 MSTORE DUP1 PUSH1 0x6 DUP2 MSTORE PUSH1 0x20 ADD PUSH32 0x7368617265640000000000000000000000000000000000000000000000000000 DUP2 MSTORE POP DUP15 PUSH2 0xDC9 JUMP JUMPDEST PUSH2 0x9FF DUP2 PUSH1 0x3 PUSH1 0x40 MLOAD DUP1 PUSH1 0x40 ADD PUSH1 0x40 MSTORE DUP1 PUSH1 0x5 DUP2 MSTORE PUSH1 0x20 ADD PUSH32 0x6173736574000000000000000000000000000000000000000000000000000000 DUP2 MSTORE POP DUP14 PUSH2 0xDC9 JUMP JUMPDEST PUSH2 0xA41 DUP2 PUSH1 0x4 PUSH1 0x40 MLOAD DUP1 PUSH1 0x40 ADD PUSH1 0x40 MSTORE DUP1 PUSH1 0x7 DUP2 MSTORE PUSH1 0x20 ADD PUSH32 0x706572696F647300000000000000000000000000000000000000000000000000 DUP2 MSTORE POP DUP13 PUSH2 0x10A8 JUMP JUMPDEST PUSH2 0xA83 DUP2 PUSH1 0x5 PUSH1 0x40 MLOAD DUP1 PUSH1 0x40 ADD PUSH1 0x40 MSTORE DUP1 PUSH1 0x5 DUP2 MSTORE PUSH1 0x20 ADD PUSH32 0x73697A6573000000000000000000000000000000000000000000000000000000 DUP2 MSTORE POP DUP12 PUSH2 0x10A8 JUMP JUMPDEST PUSH2 0xAC5 DUP2 PUSH1 0x6 PUSH1 0x40 MLOAD DUP1 PUSH1 0x40 ADD PUSH1 0x40 MSTORE DUP1 PUSH1 0xD DUP2 MSTORE PUSH1 0x20 ADD PUSH32 0x646573697265645F707269636500000000000000000000000000000000000000 DUP2 MSTORE POP DUP11 PUSH2 0x1015 JUMP JUMPDEST PUSH2 0xB07 DUP2 PUSH1 0x7 PUSH1 0x40 MLOAD DUP1 PUSH1 0x40 ADD PUSH1 0x40 MSTORE DUP1 PUSH1 0x6 DUP2 MSTORE PUSH1 0x20 ADD PUSH32 0x69734C6F6E670000000000000000000000000000000000000000000000000000 DUP2 MSTORE POP DUP10 PUSH2 0xF82 JUMP JUMPDEST PUSH2 0xB49 DUP2 PUSH1 0x8 PUSH1 0x40 MLOAD DUP1 PUSH1 0x40 ADD PUSH1 0x40 MSTORE DUP1 PUSH1 0x8 DUP2 MSTORE PUSH1 0x20 ADD PUSH32 0x6C65766572616765000000000000000000000000000000000000000000000000 DUP2 MSTORE POP DUP9 PUSH2 0xEEF JUMP JUMPDEST PUSH2 0xB8B DUP2 PUSH1 0x9 PUSH1 0x40 MLOAD DUP1 PUSH1 0x40 ADD PUSH1 0x40 MSTORE DUP1 PUSH1 0xD DUP2 MSTORE PUSH1 0x20 ADD PUSH32 0x726573657276655F636861696E00000000000000000000000000000000000000 DUP2 MSTORE POP DUP8 PUSH2 0xDC9 JUMP JUMPDEST PUSH2 0xBCD DUP2 PUSH1 0xA PUSH1 0x40 MLOAD DUP1 PUSH1 0x40 ADD PUSH1 0x40 MSTORE DUP1 PUSH1 0x10 DUP2 MSTORE PUSH1 0x20 ADD PUSH32 0x726573657276655F70726F766964657200000000000000000000000000000000 DUP2 MSTORE POP DUP7 PUSH2 0xDC9 JUMP JUMPDEST PUSH2 0xC0F DUP2 PUSH1 0xB PUSH1 0x40 MLOAD DUP1 PUSH1 0x40 ADD PUSH1 0x40 MSTORE DUP1 PUSH1 0xD DUP2 MSTORE PUSH1 0x20 ADD PUSH32 0x726573657276655F746F6B656E00000000000000000000000000000000000000 DUP2 MSTORE POP DUP6 PUSH2 0xDC9 JUMP JUMPDEST PUSH32 0x0 PUSH20 0xFFFFFFFFFFFFFFFFFFFFFFFFFFFFFFFFFFFFFFFF AND PUSH4 0x7D64FA9B DUP3 PUSH1 0x40 MLOAD DUP3 PUSH4 0xFFFFFFFF AND PUSH1 0xE0 SHL DUP2 MSTORE PUSH1 0x4 ADD PUSH2 0xC68 SWAP2 SWAP1 PUSH2 0x1CFD JUMP JUMPDEST PUSH0 PUSH1 0x40 MLOAD DUP1 DUP4 SUB DUP2 PUSH0 DUP8 DUP1 EXTCODESIZE ISZERO DUP1 ISZERO PUSH2 0xC7F JUMPI PUSH0 PUSH0 REVERT JUMPDEST POP GAS CALL ISZERO DUP1 ISZERO PUSH2 0xC91 JUMPI RETURNDATASIZE PUSH0 PUSH0 RETURNDATACOPY RETURNDATASIZE PUSH0 REVERT JUMPDEST POP POP POP POP POP POP POP POP POP POP POP POP POP POP POP POP JUMP JUMPDEST PUSH1 0x40 MLOAD DUP1 PUSH1 0x60 ADD PUSH1 0x40 MSTORE DUP1 DUP4 DUP2 MSTORE PUSH1 0x20 ADD PUSH1 0x40 MLOAD DUP1 PUSH1 0x40 ADD PUSH1 0x40 MSTORE DUP1 PUSH1 0x7 DUP2 MSTORE PUSH1 0x20 ADD PUSH32 0x6164647265737300000000000000000000000000000000000000000000000000 DUP2 MSTORE POP DUP2 MSTORE PUSH1 0x20 ADD DUP3 PUSH1 0x40 MLOAD PUSH1 0x20 ADD PUSH2 0xD00 SWAP2 SWAP1 PUSH2 0x1D50 JUMP JUMPDEST PUSH1 0x40 MLOAD PUSH1 0x20 DUP2 DUP4 SUB SUB DUP2 MSTORE SWAP1 PUSH1 0x40 MSTORE DUP2 MSTORE POP DUP5 DUP5 DUP2 MLOAD DUP2 LT PUSH2 0xD25 JUMPI PUSH2 0xD24 PUSH2 0x1D69 JUMP JUMPDEST JUMPDEST PUSH1 0x20 MUL PUSH1 0x20 ADD ADD DUP2 SWAP1 MSTORE POP POP POP POP POP JUMP JUMPDEST PUSH1 0x40 MLOAD DUP1 PUSH1 0x60 ADD PUSH1 0x40 MSTORE DUP1 DUP4 DUP2 MSTORE PUSH1 0x20 ADD PUSH1 0x40 MLOAD DUP1 PUSH1 0x40 ADD PUSH1 0x40 MSTORE DUP1 PUSH1 0x5 DUP2 MSTORE PUSH1 0x20 ADD PUSH32 0x6279746573000000000000000000000000000000000000000000000000000000 DUP2 MSTORE POP DUP2 MSTORE PUSH1 0x20 ADD DUP3 PUSH1 0x40 MLOAD PUSH1 0x20 ADD PUSH2 0xD93 SWAP2 SWAP1 PUSH2 0x1DDE JUMP JUMPDEST PUSH1 0x40 MLOAD PUSH1 0x20 DUP2 DUP4 SUB SUB DUP2 MSTORE SWAP1 PUSH1 0x40 MSTORE DUP2 MSTORE POP DUP5 DUP5 DUP2 MLOAD DUP2 LT PUSH2 0xDB8 JUMPI PUSH2 0xDB7 PUSH2 0x1D69 JUMP JUMPDEST JUMPDEST PUSH1 0x20 MUL PUSH1 0x20 ADD ADD DUP2 SWAP1 MSTORE POP POP POP POP POP JUMP JUMPDEST PUSH1 0x40 MLOAD DUP1 PUSH1 0x60 ADD PUSH1 0x40 MSTORE DUP1 DUP4 DUP2 MSTORE PUSH1 0x20 ADD PUSH1 0x40 MLOAD DUP1 PUSH1 0x40 ADD PUSH1 0x40 MSTORE DUP1 PUSH1 0x6 DUP2 MSTORE PUSH1 0x20 ADD PUSH32 0x737472696E670000000000000000000000000000000000000000000000000000 DUP2 MSTORE POP DUP2 MSTORE PUSH1 0x20 ADD DUP3 PUSH1 0x40 MLOAD PUSH1 0x20 ADD PUSH2 0xE26 SWAP2 SWAP1 PUSH2 0x1E36 JUMP JUMPDEST PUSH1 0x40 MLOAD PUSH1 0x20 DUP2 DUP4 SUB SUB DUP2 MSTORE SWAP1 PUSH1 0x40 MSTORE DUP2 MSTORE POP DUP5 DUP5 DUP2 MLOAD DUP2 LT PUSH2 0xE4B JUMPI PUSH2 0xE4A PUSH2 0x1D69 JUMP JUMPDEST JUMPDEST PUSH1 0x20 MUL PUSH1 0x20 ADD ADD DUP2 SWAP1 MSTORE POP POP POP POP POP JUMP JUMPDEST PUSH1 0x40 MLOAD DUP1 PUSH1 0x60 ADD PUSH1 0x40 MSTORE DUP1 DUP4 DUP2 MSTORE PUSH1 0x20 ADD PUSH1 0x40 MLOAD DUP1 PUSH1 0x40 ADD PUSH1 0x40 MSTORE DUP1 PUSH1 0x6 DUP2 MSTORE PUSH1 0x20 ADD PUSH32 0x75696E7436340000000000000000000000000000000000000000000000000000 DUP2 MSTORE POP DUP2 MSTORE PUSH1 0x20 ADD DUP3 PUSH1 0x40 MLOAD PUSH1 0x20 ADD PUSH2 0xEB9 SWAP2 SWAP1 PUSH2 0x1E65 JUMP JUMPDEST PUSH1 0x40 MLOAD PUSH1 0x20 DUP2 DUP4 SUB SUB DUP2 MSTORE SWAP1 PUSH1 0x40 MSTORE DUP2 MSTORE POP DUP5 DUP5 DUP2 MLOAD DUP2 LT PUSH2 0xEDE JUMPI PUSH2 0xEDD PUSH2 0x1D69 JUMP JUMPDEST JUMPDEST PUSH1 0x20 MUL PUSH1 0x20 ADD ADD DUP2 SWAP1 MSTORE POP POP POP POP POP JUMP JUMPDEST PUSH1 0x40 MLOAD DUP1 PUSH1 0x60 ADD PUSH1 0x40 MSTORE DUP1 DUP4 DUP2 MSTORE PUSH1 0x20 ADD PUSH1 0x40 MLOAD DUP1 PUSH1 0x40 ADD PUSH1 0x40 MSTORE DUP1 PUSH1 0x6 DUP2 MSTORE PUSH1 0x20 ADD PUSH32 0x75696E7433320000000000000000000000000000000000000000000000000000 DUP2 MSTORE POP DUP2 MSTORE PUSH1 0x20 ADD DUP3 PUSH1 0x40 MLOAD PUSH1 0x20 ADD PUSH2 0xF4C SWAP2 SWAP1 PUSH2 0x1E8D JUMP JUMPDEST PUSH1 0x40 MLOAD PUSH1 0x20 DUP2 DUP4 SUB SUB DUP2 MSTORE SWAP1 PUSH1 0x40 MSTORE DUP2 MSTORE POP DUP5 DUP5 DUP2 MLOAD DUP2 LT PUSH2 0xF71 JUMPI PUSH2 0xF70 PUSH2 0x1D69 JUMP JUMPDEST JUMPDEST PUSH1 0x20 MUL PUSH1 0x20 ADD ADD DUP2 SWAP1 MSTORE POP POP POP POP POP JUMP JUMPDEST PUSH1 0x40 MLOAD DUP1 PUSH1 0x60 ADD PUSH1 0x40 MSTORE DUP1 DUP4 DUP2 MSTORE PUSH1 0x20 ADD PUSH1 0x40 MLOAD DUP1 PUSH1 0x40 ADD PUSH1 0x40 MSTORE DUP1 PUSH1 0x4 DUP2 MSTORE PUSH1 0x20 ADD PUSH32 0x626F6F6C00000000000000000000000000000000000000000000000000000000 DUP2 MSTORE POP DUP2 MSTORE PUSH1 0x20 ADD DUP3 PUSH1 0x40 MLOAD PUSH1 0x20 ADD PUSH2 0xFDF SWAP2 SWAP1 PUSH2 0x1EB5 JUMP JUMPDEST PUSH1 0x40 MLOAD PUSH1 0x20 DUP2 DUP4 SUB SUB DUP2 MSTORE SWAP1 PUSH1 0x40 MSTORE DUP2 MSTORE POP DUP5 DUP5 DUP2 MLOAD DUP2 LT PUSH2 0x1004 JUMPI PUSH2 0x1003 PUSH2 0x1D69 JUMP JUMPDEST JUMPDEST PUSH1 0x20 MUL PUSH1 0x20 ADD ADD DUP2 SWAP1 MSTORE POP POP POP POP POP JUMP JUMPDEST PUSH1 0x40 MLOAD DUP1 PUSH1 0x60 ADD PUSH1 0x40 MSTORE DUP1 DUP4 DUP2 MSTORE PUSH1 0x20 ADD PUSH1 0x40 MLOAD DUP1 PUSH1 0x40 ADD PUSH1 0x40 MSTORE DUP1 PUSH1 0x7 DUP2 MSTORE PUSH1 0x20 ADD PUSH32 0x75696E7431323800000000000000000000000000000000000000000000000000 DUP2 MSTORE POP DUP2 MSTORE PUSH1 0x20 ADD DUP3 PUSH1 0x40 MLOAD PUSH1 0x20 ADD PUSH2 0x1072 SWAP2 SWAP1 PUSH2 0x1EDD JUMP JUMPDEST PUSH1 0x40 MLOAD PUSH1 0x20 DUP2 DUP4 SUB SUB DUP2 MSTORE SWAP1 PUSH1 0x40 MSTORE DUP2 MSTORE POP DUP5 DUP5 DUP2 MLOAD DUP2 LT PUSH2 0x1097 JUMPI PUSH2 0x1096 PUSH2 0x1D69 JUMP JUMPDEST JUMPDEST PUSH1 0x20 MUL PUSH1 0x20 ADD ADD DUP2 SWAP1 MSTORE POP POP POP POP POP JUMP JUMPDEST PUSH1 0x40 MLOAD DUP1 PUSH1 0x60 ADD PUSH1 0x40 MSTORE DUP1 DUP4 DUP2 MSTORE PUSH1 0x20 ADD PUSH1 0x40 MLOAD DUP1 PUSH1 0x40 ADD PUSH1 0x40 MSTORE DUP1 PUSH1 0x8 DUP2 MSTORE PUSH1 0x20 ADD PUSH32 0x75696E7436345B5D000000000000000000000000000000000000000000000000 DUP2 MSTORE POP DUP2 MSTORE PUSH1 0x20 ADD DUP3 PUSH1 0x40 MLOAD PUSH1 0x20 ADD PUSH2 0x1105 SWAP2 SWAP1 PUSH2 0x1FAD JUMP JUMPDEST PUSH1 0x40 MLOAD PUSH1 0x20 DUP2 DUP4 SUB SUB DUP2 MSTORE SWAP1 PUSH1 0x40 MSTORE DUP2 MSTORE POP DUP5 DUP5 DUP2 MLOAD DUP2 LT PUSH2 0x112A JUMPI PUSH2 0x1129 PUSH2 0x1D69 JUMP JUMPDEST JUMPDEST PUSH1 0x20 MUL PUSH1 0x20 ADD ADD DUP2 SWAP1 MSTORE POP POP POP POP POP JUMP JUMPDEST PUSH1 0x40 MLOAD DUP1 PUSH1 0x60 ADD PUSH1 0x40 MSTORE DUP1 PUSH1 0x60 DUP2 MSTORE PUSH1 0x20 ADD PUSH1 0x60 DUP2 MSTORE PUSH1 0x20 ADD PUSH1 0x60 DUP2 MSTORE POP SWAP1 JUMP JUMPDEST PUSH0 PUSH1 0x40 MLOAD SWAP1 POP SWAP1 JUMP JUMPDEST PUSH0 PUSH0 REVERT JUMPDEST PUSH0 PUSH0 REVERT JUMPDEST PUSH0 PUSH0 REVERT JUMPDEST PUSH0 PUSH0 REVERT JUMPDEST PUSH0 PUSH1 0x1F NOT PUSH1 0x1F DUP4 ADD AND SWAP1 POP SWAP2 SWAP1 POP JUMP JUMPDEST PUSH32 0x4E487B7100000000000000000000000000000000000000000000000000000000 PUSH0 MSTORE PUSH1 0x41 PUSH1 0x4 MSTORE PUSH1 0x24 PUSH0 REVERT JUMPDEST PUSH2 0x11BB DUP3 PUSH2 0x1175 JUMP JUMPDEST DUP2 ADD DUP2 DUP2 LT PUSH8 0xFFFFFFFFFFFFFFFF DUP3 GT OR ISZERO PUSH2 0x11DA JUMPI PUSH2 0x11D9 PUSH2 0x1185 JUMP JUMPDEST JUMPDEST DUP1 PUSH1 0x40 MSTORE POP POP POP JUMP JUMPDEST PUSH0 PUSH2 0x11EC PUSH2 0x115C JUMP JUMPDEST SWAP1 POP PUSH2 0x11F8 DUP3 DUP3 PUSH2 0x11B2 JUMP JUMPDEST SWAP2 SWAP1 POP JUMP JUMPDEST PUSH0 PUSH8 0xFFFFFFFFFFFFFFFF DUP3 GT ISZERO PUSH2 0x1217 JUMPI PUSH2 0x1216 PUSH2 0x1185 JUMP JUMPDEST JUMPDEST PUSH2 0x1220 DUP3 PUSH2 0x1175 JUMP JUMPDEST SWAP1 POP PUSH1 0x20 DUP2 ADD SWAP1 POP SWAP2 SWAP1 POP JUMP JUMPDEST DUP3 DUP2 DUP4 CALLDATACOPY PUSH0 DUP4 DUP4 ADD MSTORE POP POP POP JUMP JUMPDEST PUSH0 PUSH2 0x124D PUSH2 0x1248 DUP5 PUSH2 0x11FD JUMP JUMPDEST PUSH2 0x11E3 JUMP JUMPDEST SWAP1 POP DUP3 DUP2 MSTORE PUSH1 0x20 DUP2 ADD DUP5 DUP5 DUP5 ADD GT ISZERO PUSH2 0x1269 JUMPI PUSH2 0x1268 PUSH2 0x1171 JUMP JUMPDEST JUMPDEST PUSH2 0x1274 DUP5 DUP3 DUP6 PUSH2 0x122D JUMP JUMPDEST POP SWAP4 SWAP3 POP POP POP JUMP JUMPDEST PUSH0 DUP3 PUSH1 0x1F DUP4 ADD SLT PUSH2 0x1290 JUMPI PUSH2 0x128F PUSH2 0x116D JUMP JUMPDEST JUMPDEST DUP2 CALLDATALOAD PUSH2 0x12A0 DUP5 DUP3 PUSH1 0x20 DUP7 ADD PUSH2 0x123B JUMP JUMPDEST SWAP2 POP POP SWAP3 SWAP2 POP POP JUMP JUMPDEST PUSH0 PUSH8 0xFFFFFFFFFFFFFFFF DUP3 GT ISZERO PUSH2 0x12C3 JUMPI PUSH2 0x12C2 PUSH2 0x1185 JUMP JUMPDEST JUMPDEST PUSH2 0x12CC DUP3 PUSH2 0x1175 JUMP JUMPDEST SWAP1 POP PUSH1 0x20 DUP2 ADD SWAP1 POP SWAP2 SWAP1 POP JUMP JUMPDEST PUSH0 PUSH2 0x12EB PUSH2 0x12E6 DUP5 PUSH2 0x12A9 JUMP JUMPDEST PUSH2 0x11E3 JUMP JUMPDEST SWAP1 POP DUP3 DUP2 MSTORE PUSH1 0x20 DUP2 ADD DUP5 DUP5 DUP5 ADD GT ISZERO PUSH2 0x1307 JUMPI PUSH2 0x1306 PUSH2 0x1171 JUMP JUMPDEST JUMPDEST PUSH2 0x1312 DUP5 DUP3 DUP6 PUSH2 0x122D JUMP JUMPDEST POP SWAP4 SWAP3 POP POP POP JUMP JUMPDEST PUSH0 DUP3 PUSH1 0x1F DUP4 ADD SLT PUSH2 0x132E JUMPI PUSH2 0x132D PUSH2 0x116D JUMP JUMPDEST JUMPDEST DUP2 CALLDATALOAD PUSH2 0x133E DUP5 DUP3 PUSH1 0x20 DUP7 ADD PUSH2 0x12D9 JUMP JUMPDEST SWAP2 POP POP SWAP3 SWAP2 POP POP JUMP JUMPDEST PUSH0 PUSH8 0xFFFFFFFFFFFFFFFF DUP3 AND SWAP1 POP SWAP2 SWAP1 POP JUMP JUMPDEST PUSH2 0x1363 DUP2 PUSH2 0x1347 JUMP JUMPDEST DUP2 EQ PUSH2 0x136D JUMPI PUSH0 PUSH0 REVERT JUMPDEST POP JUMP JUMPDEST PUSH0 DUP2 CALLDATALOAD SWAP1 POP PUSH2 0x137E DUP2 PUSH2 0x135A JUMP JUMPDEST SWAP3 SWAP2 POP POP JUMP JUMPDEST PUSH0 PUSH0 PUSH0 PUSH1 0x60 DUP5 DUP7 SUB SLT ISZERO PUSH2 0x139B JUMPI PUSH2 0x139A PUSH2 0x1165 JUMP JUMPDEST JUMPDEST PUSH0 DUP5 ADD CALLDATALOAD PUSH8 0xFFFFFFFFFFFFFFFF DUP2 GT ISZERO PUSH2 0x13B8 JUMPI PUSH2 0x13B7 PUSH2 0x1169 JUMP JUMPDEST JUMPDEST PUSH2 0x13C4 DUP7 DUP3 DUP8 ADD PUSH2 0x127C JUMP JUMPDEST SWAP4 POP POP PUSH1 0x20 DUP5 ADD CALLDATALOAD PUSH8 0xFFFFFFFFFFFFFFFF DUP2 GT ISZERO PUSH2 0x13E5 JUMPI PUSH2 0x13E4 PUSH2 0x1169 JUMP JUMPDEST JUMPDEST PUSH2 0x13F1 DUP7 DUP3 DUP8 ADD PUSH2 0x131A JUMP JUMPDEST SWAP3 POP POP PUSH1 0x40 PUSH2 0x1402 DUP7 DUP3 DUP8 ADD PUSH2 0x1370 JUMP JUMPDEST SWAP2 POP POP SWAP3 POP SWAP3 POP SWAP3 JUMP JUMPDEST PUSH0 PUSH20 0xFFFFFFFFFFFFFFFFFFFFFFFFFFFFFFFFFFFFFFFF DUP3 AND SWAP1 POP SWAP2 SWAP1 POP JUMP JUMPDEST PUSH0 DUP2 SWAP1 POP SWAP2 SWAP1 POP JUMP JUMPDEST PUSH0 PUSH2 0x144E PUSH2 0x1449 PUSH2 0x1444 DUP5 PUSH2 0x140C JUMP JUMPDEST PUSH2 0x142B JUMP JUMPDEST PUSH2 0x140C JUMP JUMPDEST SWAP1 POP SWAP2 SWAP1 POP JUMP JUMPDEST PUSH0 PUSH2 0x145F DUP3 PUSH2 0x1434 JUMP JUMPDEST SWAP1 POP SWAP2 SWAP1 POP JUMP JUMPDEST PUSH0 PUSH2 0x1470 DUP3 PUSH2 0x1455 JUMP JUMPDEST SWAP1 POP SWAP2 SWAP1 POP JUMP JUMPDEST PUSH2 0x1480 DUP2 PUSH2 0x1466 JUMP JUMPDEST DUP3 MSTORE POP POP JUMP JUMPDEST PUSH0 PUSH1 0x20 DUP3 ADD SWAP1 POP PUSH2 0x1499 PUSH0 DUP4 ADD DUP5 PUSH2 0x1477 JUMP JUMPDEST SWAP3 SWAP2 POP POP JUMP JUMPDEST PUSH0 PUSH16 0xFFFFFFFFFFFFFFFFFFFFFFFFFFFFFFFF DUP3 AND SWAP1 POP SWAP2 SWAP1 POP JUMP JUMPDEST PUSH2 0x14C3 DUP2 PUSH2 0x149F JUMP JUMPDEST DUP2 EQ PUSH2 0x14CD JUMPI PUSH0 PUSH0 REVERT JUMPDEST POP JUMP JUMPDEST PUSH0 DUP2 CALLDATALOAD SWAP1 POP PUSH2 0x14DE DUP2 PUSH2 0x14BA JUMP JUMPDEST SWAP3 SWAP2 POP POP JUMP JUMPDEST PUSH0 DUP2 ISZERO ISZERO SWAP1 POP SWAP2 SWAP1 POP JUMP JUMPDEST PUSH2 0x14F8 DUP2 PUSH2 0x14E4 JUMP JUMPDEST DUP2 EQ PUSH2 0x1502 JUMPI PUSH0 PUSH0 REVERT JUMPDEST POP JUMP JUMPDEST PUSH0 DUP2 CALLDATALOAD SWAP1 POP PUSH2 0x1513 DUP2 PUSH2 0x14EF JUMP JUMPDEST SWAP3 SWAP2 POP POP JUMP JUMPDEST PUSH0 PUSH4 0xFFFFFFFF DUP3 AND SWAP1 POP SWAP2 SWAP1 POP JUMP JUMPDEST PUSH2 0x1531 DUP2 PUSH2 0x1519 JUMP JUMPDEST DUP2 EQ PUSH2 0x153B JUMPI PUSH0 PUSH0 REVERT JUMPDEST POP JUMP JUMPDEST PUSH0 DUP2 CALLDATALOAD SWAP1 POP PUSH2 0x154C DUP2 PUSH2 0x1528 JUMP JUMPDEST SWAP3 SWAP2 POP POP JUMP JUMPDEST PUSH0 PUSH0 PUSH0 PUSH0 PUSH0 PUSH0 PUSH0 PUSH0 PUSH0 PUSH0 PUSH2 0x140 DUP12 DUP14 SUB SLT ISZERO PUSH2 0x1571 JUMPI PUSH2 0x1570 PUSH2 0x1165 JUMP JUMPDEST JUMPDEST PUSH0 DUP12 ADD CALLDATALOAD PUSH8 0xFFFFFFFFFFFFFFFF DUP2 GT ISZERO PUSH2 0x158E JUMPI PUSH2 0x158D PUSH2 0x1169 JUMP JUMPDEST JUMPDEST PUSH2 0x159A DUP14 DUP3 DUP15 ADD PUSH2 0x127C JUMP JUMPDEST SWAP11 POP POP PUSH1 0x20 DUP12 ADD CALLDATALOAD PUSH8 0xFFFFFFFFFFFFFFFF DUP2 GT ISZERO PUSH2 0x15BB JUMPI PUSH2 0x15BA PUSH2 0x1169 JUMP JUMPDEST JUMPDEST PUSH2 0x15C7 DUP14 DUP3 DUP15 ADD PUSH2 0x131A JUMP JUMPDEST SWAP10 POP POP PUSH1 0x40 DUP12 ADD CALLDATALOAD PUSH8 0xFFFFFFFFFFFFFFFF DUP2 GT ISZERO PUSH2 0x15E8 JUMPI PUSH2 0x15E7 PUSH2 0x1169 JUMP JUMPDEST JUMPDEST PUSH2 0x15F4 DUP14 DUP3 DUP15 ADD PUSH2 0x131A JUMP JUMPDEST SWAP9 POP POP PUSH1 0x60 PUSH2 0x1605 DUP14 DUP3 DUP15 ADD PUSH2 0x1370 JUMP JUMPDEST SWAP8 POP POP PUSH1 0x80 PUSH2 0x1616 DUP14 DUP3 DUP15 ADD PUSH2 0x14D0 JUMP JUMPDEST SWAP7 POP POP PUSH1 0xA0 PUSH2 0x1627 DUP14 DUP3 DUP15 ADD PUSH2 0x1505 JUMP JUMPDEST SWAP6 POP POP PUSH1 0xC0 PUSH2 0x1638 DUP14 DUP3 DUP15 ADD PUSH2 0x153E JUMP JUMPDEST SWAP5 POP POP PUSH1 0xE0 DUP12 ADD CALLDATALOAD PUSH8 0xFFFFFFFFFFFFFFFF DUP2 GT ISZERO PUSH2 0x1659 JUMPI PUSH2 0x1658 PUSH2 0x1169 JUMP JUMPDEST JUMPDEST PUSH2 0x1665 DUP14 DUP3 DUP15 ADD PUSH2 0x131A JUMP JUMPDEST SWAP4 POP POP PUSH2 0x100 DUP12 ADD CALLDATALOAD PUSH8 0xFFFFFFFFFFFFFFFF DUP2 GT ISZERO PUSH2 0x1687 JUMPI PUSH2 0x1686 PUSH2 0x1169 JUMP JUMPDEST JUMPDEST PUSH2 0x1693 DUP14 DUP3 DUP15 ADD PUSH2 0x131A JUMP JUMPDEST SWAP3 POP POP PUSH2 0x120 DUP12 ADD CALLDATALOAD PUSH8 0xFFFFFFFFFFFFFFFF DUP2 GT ISZERO PUSH2 0x16B5 JUMPI PUSH2 0x16B4 PUSH2 0x1169 JUMP JUMPDEST JUMPDEST PUSH2 0x16C1 DUP14 DUP3 DUP15 ADD PUSH2 0x131A JUMP JUMPDEST SWAP2 POP POP SWAP3 SWAP6 SWAP9 SWAP12 SWAP2 SWAP5 SWAP8 SWAP11 POP SWAP3 SWAP6 SWAP9 POP JUMP JUMPDEST PUSH0 PUSH8 0xFFFFFFFFFFFFFFFF DUP3 GT ISZERO PUSH2 0x16ED JUMPI PUSH2 0x16EC PUSH2 0x1185 JUMP JUMPDEST JUMPDEST PUSH1 0x20 DUP3 MUL SWAP1 POP PUSH1 0x20 DUP2 ADD SWAP1 POP SWAP2 SWAP1 POP JUMP JUMPDEST PUSH0 PUSH0 REVERT JUMPDEST PUSH0 PUSH2 0x1714 PUSH2 0x170F DUP5 PUSH2 0x16D3 JUMP JUMPDEST PUSH2 0x11E3 JUMP JUMPDEST SWAP1 POP DUP1 DUP4 DUP3 MSTORE PUSH1 0x20 DUP3 ADD SWAP1 POP PUSH1 0x20 DUP5 MUL DUP4 ADD DUP6 DUP2 GT ISZERO PUSH2 0x1737 JUMPI PUSH2 0x1736 PUSH2 0x16FE JUMP JUMPDEST JUMPDEST DUP4 JUMPDEST DUP2 DUP2 LT ISZERO PUSH2 0x1760 JUMPI DUP1 PUSH2 0x174C DUP9 DUP3 PUSH2 0x1370 JUMP JUMPDEST DUP5 MSTORE PUSH1 0x20 DUP5 ADD SWAP4 POP POP PUSH1 0x20 DUP2 ADD SWAP1 POP PUSH2 0x1739 JUMP JUMPDEST POP POP POP SWAP4 SWAP3 POP POP POP JUMP JUMPDEST PUSH0 DUP3 PUSH1 0x1F DUP4 ADD SLT PUSH2 0x177E JUMPI PUSH2 0x177D PUSH2 0x116D JUMP JUMPDEST JUMPDEST DUP2 CALLDATALOAD PUSH2 0x178E DUP5 DUP3 PUSH1 0x20 DUP7 ADD PUSH2 0x1702 JUMP JUMPDEST SWAP2 POP POP SWAP3 SWAP2 POP POP JUMP JUMPDEST PUSH0 PUSH0 PUSH0 PUSH0 PUSH0 PUSH0 PUSH0 PUSH0 PUSH0 PUSH0 PUSH0 PUSH2 0x160 DUP13 DUP15 SUB SLT ISZERO PUSH2 0x17B7 JUMPI PUSH2 0x17B6 PUSH2 0x1165 JUMP JUMPDEST JUMPDEST PUSH0 DUP13 ADD CALLDATALOAD PUSH8 0xFFFFFFFFFFFFFFFF DUP2 GT ISZERO PUSH2 0x17D4 JUMPI PUSH2 0x17D3 PUSH2 0x1169 JUMP JUMPDEST JUMPDEST PUSH2 0x17E0 DUP15 DUP3 DUP16 ADD PUSH2 0x127C JUMP JUMPDEST SWAP12 POP POP PUSH1 0x20 DUP13 ADD CALLDATALOAD PUSH8 0xFFFFFFFFFFFFFFFF DUP2 GT ISZERO PUSH2 0x1801 JUMPI PUSH2 0x1800 PUSH2 0x1169 JUMP JUMPDEST JUMPDEST PUSH2 0x180D DUP15 DUP3 DUP16 ADD PUSH2 0x131A JUMP JUMPDEST SWAP11 POP POP PUSH1 0x40 DUP13 ADD CALLDATALOAD PUSH8 0xFFFFFFFFFFFFFFFF DUP2 GT ISZERO PUSH2 0x182E JUMPI PUSH2 0x182D PUSH2 0x1169 JUMP JUMPDEST JUMPDEST PUSH2 0x183A DUP15 DUP3 DUP16 ADD PUSH2 0x131A JUMP JUMPDEST SWAP10 POP POP PUSH1 0x60 DUP13 ADD CALLDATALOAD PUSH8 0xFFFFFFFFFFFFFFFF DUP2 GT ISZERO PUSH2 0x185B JUMPI PUSH2 0x185A PUSH2 0x1169 JUMP JUMPDEST JUMPDEST PUSH2 0x1867 DUP15 DUP3 DUP16 ADD PUSH2 0x176A JUMP JUMPDEST SWAP9 POP POP PUSH1 0x80 DUP13 ADD CALLDATALOAD PUSH8 0xFFFFFFFFFFFFFFFF DUP2 GT ISZERO PUSH2 0x1888 JUMPI PUSH2 0x1887 PUSH2 0x1169 JUMP JUMPDEST JUMPDEST PUSH2 0x1894 DUP15 DUP3 DUP16 ADD PUSH2 0x176A JUMP JUMPDEST SWAP8 POP POP PUSH1 0xA0 PUSH2 0x18A5 DUP15 DUP3 DUP16 ADD PUSH2 0x14D0 JUMP JUMPDEST SWAP7 POP POP PUSH1 0xC0 PUSH2 0x18B6 DUP15 DUP3 DUP16 ADD PUSH2 0x1505 JUMP JUMPDEST SWAP6 POP POP PUSH1 0xE0 PUSH2 0x18C7 DUP15 DUP3 DUP16 ADD PUSH2 0x153E JUMP JUMPDEST SWAP5 POP POP PUSH2 0x100 DUP13 ADD CALLDATALOAD PUSH8 0xFFFFFFFFFFFFFFFF DUP2 GT ISZERO PUSH2 0x18E9 JUMPI PUSH2 0x18E8 PUSH2 0x1169 JUMP JUMPDEST JUMPDEST PUSH2 0x18F5 DUP15 DUP3 DUP16 ADD PUSH2 0x131A JUMP JUMPDEST SWAP4 POP POP PUSH2 0x120 DUP13 ADD CALLDATALOAD PUSH8 0xFFFFFFFFFFFFFFFF DUP2 GT ISZERO PUSH2 0x1917 JUMPI PUSH2 0x1916 PUSH2 0x1169 JUMP JUMPDEST JUMPDEST PUSH2 0x1923 DUP15 DUP3 DUP16 ADD PUSH2 0x131A JUMP JUMPDEST SWAP3 POP POP PUSH2 0x140 DUP13 ADD CALLDATALOAD PUSH8 0xFFFFFFFFFFFFFFFF DUP2 GT ISZERO PUSH2 0x1945 JUMPI PUSH2 0x1944 PUSH2 0x1169 JUMP JUMPDEST JUMPDEST PUSH2 0x1951 DUP15 DUP3 DUP16 ADD PUSH2 0x131A JUMP JUMPDEST SWAP2 POP POP SWAP3 SWAP6 SWAP9 SWAP12 POP SWAP3 SWAP6 SWAP9 SWAP12 SWAP1 SWAP4 SWAP7 SWAP10 POP JUMP JUMPDEST PUSH0 DUP3 DUP3 MSTORE PUSH1 0x20 DUP3 ADD SWAP1 POP SWAP3 SWAP2 POP POP JUMP JUMPDEST PUSH32 0x4D6F64756C61722054574150204F726465722044656C65746564000000000000 PUSH0 DUP3 ADD MSTORE POP JUMP JUMPDEST PUSH0 PUSH2 0x19A8 PUSH1 0x1A DUP4 PUSH2 0x1964 JUMP JUMPDEST SWAP2 POP PUSH2 0x19B3 DUP3 PUSH2 0x1974 JUMP JUMPDEST PUSH1 0x20 DUP3 ADD SWAP1 POP SWAP2 SWAP1 POP JUMP JUMPDEST PUSH0 DUP2 MLOAD SWAP1 POP SWAP2 SWAP1 POP JUMP JUMPDEST PUSH0 DUP3 DUP3 MSTORE PUSH1 0x20 DUP3 ADD SWAP1 POP SWAP3 SWAP2 POP POP JUMP JUMPDEST PUSH0 DUP2 SWAP1 POP PUSH1 0x20 DUP3 ADD SWAP1 POP SWAP2 SWAP1 POP JUMP JUMPDEST PUSH0 DUP2 MLOAD SWAP1 POP SWAP2 SWAP1 POP JUMP JUMPDEST PUSH0 DUP3 DUP3 MSTORE PUSH1 0x20 DUP3 ADD SWAP1 POP SWAP3 SWAP2 POP POP JUMP JUMPDEST DUP3 DUP2 DUP4 MCOPY PUSH0 DUP4 DUP4 ADD MSTORE POP POP POP JUMP JUMPDEST PUSH0 PUSH2 0x1A19 DUP3 PUSH2 0x19E7 JUMP JUMPDEST PUSH2 0x1A23 DUP2 DUP6 PUSH2 0x19F1 JUMP JUMPDEST SWAP4 POP PUSH2 0x1A33 DUP2 DUP6 PUSH1 0x20 DUP7 ADD PUSH2 0x1A01 JUMP JUMPDEST PUSH2 0x1A3C DUP2 PUSH2 0x1175 JUMP JUMPDEST DUP5 ADD SWAP2 POP POP SWAP3 SWAP2 POP POP JUMP JUMPDEST PUSH0 DUP2 MLOAD SWAP1 POP SWAP2 SWAP1 POP JUMP JUMPDEST PUSH0 DUP3 DUP3 MSTORE PUSH1 0x20 DUP3 ADD SWAP1 POP SWAP3 SWAP2 POP POP JUMP JUMPDEST PUSH0 PUSH2 0x1A6B DUP3 PUSH2 0x1A47 JUMP JUMPDEST PUSH2 0x1A75 DUP2 DUP6 PUSH2 0x1A51 JUMP JUMPDEST SWAP4 POP PUSH2 0x1A85 DUP2 DUP6 PUSH1 0x20 DUP7 ADD PUSH2 0x1A01 JUMP JUMPDEST PUSH2 0x1A8E DUP2 PUSH2 0x1175 JUMP JUMPDEST DUP5 ADD SWAP2 POP POP SWAP3 SWAP2 POP POP JUMP JUMPDEST PUSH0 PUSH1 0x60 DUP4 ADD PUSH0 DUP4 ADD MLOAD DUP5 DUP3 SUB PUSH0 DUP7 ADD MSTORE PUSH2 0x1AB3 DUP3 DUP3 PUSH2 0x1A0F JUMP JUMPDEST SWAP2 POP POP PUSH1 0x20 DUP4 ADD MLOAD DUP5 DUP3 SUB PUSH1 0x20 DUP7 ADD MSTORE PUSH2 0x1ACD DUP3 DUP3 PUSH2 0x1A0F JUMP JUMPDEST SWAP2 POP POP PUSH1 0x40 DUP4 ADD MLOAD DUP5 DUP3 SUB PUSH1 0x40 DUP7 ADD MSTORE PUSH2 0x1AE7 DUP3 DUP3 PUSH2 0x1A61 JUMP JUMPDEST SWAP2 POP POP DUP1 SWAP2 POP POP SWAP3 SWAP2 POP POP JUMP JUMPDEST PUSH0 PUSH2 0x1AFF DUP4 DUP4 PUSH2 0x1A99 JUMP JUMPDEST SWAP1 POP SWAP3 SWAP2 POP POP JUMP JUMPDEST PUSH0 PUSH1 0x20 DUP3 ADD SWAP1 POP SWAP2 SWAP1 POP JUMP JUMPDEST PUSH0 PUSH2 0x1B1D DUP3 PUSH2 0x19BE JUMP JUMPDEST PUSH2 0x1B27 DUP2 DUP6 PUSH2 0x19C8 JUMP JUMPDEST SWAP4 POP DUP4 PUSH1 0x20 DUP3 MUL DUP6 ADD PUSH2 0x1B39 DUP6 PUSH2 0x19D8 JUMP JUMPDEST DUP1 PUSH0 JUMPDEST DUP6 DUP2 LT ISZERO PUSH2 0x1B74 JUMPI DUP5 DUP5 SUB DUP10 MSTORE DUP2 MLOAD PUSH2 0x1B55 DUP6 DUP3 PUSH2 0x1AF4 JUMP JUMPDEST SWAP5 POP PUSH2 0x1B60 DUP4 PUSH2 0x1B07 JUMP JUMPDEST SWAP3 POP PUSH1 0x20 DUP11 ADD SWAP10 POP POP PUSH1 0x1 DUP2 ADD SWAP1 POP PUSH2 0x1B3C JUMP JUMPDEST POP DUP3 SWAP8 POP DUP8 SWAP6 POP POP POP POP POP POP SWAP3 SWAP2 POP POP JUMP JUMPDEST PUSH0 PUSH1 0x40 DUP3 ADD SWAP1 POP DUP2 DUP2 SUB PUSH0 DUP4 ADD MSTORE PUSH2 0x1B9D DUP2 PUSH2 0x199C JUMP JUMPDEST SWAP1 POP DUP2 DUP2 SUB PUSH1 0x20 DUP4 ADD MSTORE PUSH2 0x1BB1 DUP2 DUP5 PUSH2 0x1B13 JUMP JUMPDEST SWAP1 POP SWAP3 SWAP2 POP POP JUMP JUMPDEST PUSH32 0x4D6F64756C6172204C696D6974204F726465722044656C657465640000000000 PUSH0 DUP3 ADD MSTORE POP JUMP JUMPDEST PUSH0 PUSH2 0x1BED PUSH1 0x1B DUP4 PUSH2 0x1964 JUMP JUMPDEST SWAP2 POP PUSH2 0x1BF8 DUP3 PUSH2 0x1BB9 JUMP JUMPDEST PUSH1 0x20 DUP3 ADD SWAP1 POP SWAP2 SWAP1 POP JUMP JUMPDEST PUSH0 PUSH1 0x40 DUP3 ADD SWAP1 POP DUP2 DUP2 SUB PUSH0 DUP4 ADD MSTORE PUSH2 0x1C1A DUP2 PUSH2 0x1BE1 JUMP JUMPDEST SWAP1 POP DUP2 DUP2 SUB PUSH1 0x20 DUP4 ADD MSTORE PUSH2 0x1C2E DUP2 DUP5 PUSH2 0x1B13 JUMP JUMPDEST SWAP1 POP SWAP3 SWAP2 POP POP JUMP JUMPDEST PUSH32 0x4D6F64756C6172204C696D6974204F7264657220437265617465640000000000 PUSH0 DUP3 ADD MSTORE POP JUMP JUMPDEST PUSH0 PUSH2 0x1C6A PUSH1 0x1B DUP4 PUSH2 0x1964 JUMP JUMPDEST SWAP2 POP PUSH2 0x1C75 DUP3 PUSH2 0x1C36 JUMP JUMPDEST PUSH1 0x20 DUP3 ADD SWAP1 POP SWAP2 SWAP1 POP JUMP JUMPDEST PUSH0 PUSH1 0x40 DUP3 ADD SWAP1 POP DUP2 DUP2 SUB PUSH0 DUP4 ADD MSTORE PUSH2 0x1C97 DUP2 PUSH2 0x1C5E JUMP JUMPDEST SWAP1 POP DUP2 DUP2 SUB PUSH1 0x20 DUP4 ADD MSTORE PUSH2 0x1CAB DUP2 DUP5 PUSH2 0x1B13 JUMP JUMPDEST SWAP1 POP SWAP3 SWAP2 POP POP JUMP JUMPDEST PUSH32 0x4D6F64756C61722054574150204F726465722043726561746564000000000000 PUSH0 DUP3 ADD MSTORE POP JUMP JUMPDEST PUSH0 PUSH2 0x1CE7 PUSH1 0x1A DUP4 PUSH2 0x1964 JUMP JUMPDEST SWAP2 POP PUSH2 0x1CF2 DUP3 PUSH2 0x1CB3 JUMP JUMPDEST PUSH1 0x20 DUP3 ADD SWAP1 POP SWAP2 SWAP1 POP JUMP JUMPDEST PUSH0 PUSH1 0x40 DUP3 ADD SWAP1 POP DUP2 DUP2 SUB PUSH0 DUP4 ADD MSTORE PUSH2 0x1D14 DUP2 PUSH2 0x1CDB JUMP JUMPDEST SWAP1 POP DUP2 DUP2 SUB PUSH1 0x20 DUP4 ADD MSTORE PUSH2 0x1D28 DUP2 DUP5 PUSH2 0x1B13 JUMP JUMPDEST SWAP1 POP SWAP3 SWAP2 POP POP JUMP JUMPDEST PUSH0 PUSH2 0x1D3A DUP3 PUSH2 0x140C JUMP JUMPDEST SWAP1 POP SWAP2 SWAP1 POP JUMP JUMPDEST PUSH2 0x1D4A DUP2 PUSH2 0x1D30 JUMP JUMPDEST DUP3 MSTORE POP POP JUMP JUMPDEST PUSH0 PUSH1 0x20 DUP3 ADD SWAP1 POP PUSH2 0x1D63 PUSH0 DUP4 ADD DUP5 PUSH2 0x1D41 JUMP JUMPDEST SWAP3 SWAP2 POP POP JUMP JUMPDEST PUSH32 0x4E487B7100000000000000000000000000000000000000000000000000000000 PUSH0 MSTORE PUSH1 0x32 PUSH1 0x4 MSTORE PUSH1 0x24 PUSH0 REVERT JUMPDEST PUSH0 DUP3 DUP3 MSTORE PUSH1 0x20 DUP3 ADD SWAP1 POP SWAP3 SWAP2 POP POP JUMP JUMPDEST PUSH0 PUSH2 0x1DB0 DUP3 PUSH2 0x1A47 JUMP JUMPDEST PUSH2 0x1DBA DUP2 DUP6 PUSH2 0x1D96 JUMP JUMPDEST SWAP4 POP PUSH2 0x1DCA DUP2 DUP6 PUSH1 0x20 DUP7 ADD PUSH2 0x1A01 JUMP JUMPDEST PUSH2 0x1DD3 DUP2 PUSH2 0x1175 JUMP JUMPDEST DUP5 ADD SWAP2 POP POP SWAP3 SWAP2 POP POP JUMP JUMPDEST PUSH0 PUSH1 0x20 DUP3 ADD SWAP1 POP DUP2 DUP2 SUB PUSH0 DUP4 ADD MSTORE PUSH2 0x1DF6 DUP2 DUP5 PUSH2 0x1DA6 JUMP JUMPDEST SWAP1 POP SWAP3 SWAP2 POP POP JUMP JUMPDEST PUSH0 PUSH2 0x1E08 DUP3 PUSH2 0x19E7 JUMP JUMPDEST PUSH2 0x1E12 DUP2 DUP6 PUSH2 0x1964 JUMP JUMPDEST SWAP4 POP PUSH2 0x1E22 DUP2 DUP6 PUSH1 0x20 DUP7 ADD PUSH2 0x1A01 JUMP JUMPDEST PUSH2 0x1E2B DUP2 PUSH2 0x1175 JUMP JUMPDEST DUP5 ADD SWAP2 POP POP SWAP3 SWAP2 POP POP JUMP JUMPDEST PUSH0 PUSH1 0x20 DUP3 ADD SWAP1 POP DUP2 DUP2 SUB PUSH0 DUP4 ADD MSTORE PUSH2 0x1E4E DUP2 DUP5 PUSH2 0x1DFE JUMP JUMPDEST SWAP1 POP SWAP3 SWAP2 POP POP JUMP JUMPDEST PUSH2 0x1E5F DUP2 PUSH2 0x1347 JUMP JUMPDEST DUP3 MSTORE POP POP JUMP JUMPDEST PUSH0 PUSH1 0x20 DUP3 ADD SWAP1 POP PUSH2 0x1E78 PUSH0 DUP4 ADD DUP5 PUSH2 0x1E56 JUMP JUMPDEST SWAP3 SWAP2 POP POP JUMP JUMPDEST PUSH2 0x1E87 DUP2 PUSH2 0x1519 JUMP JUMPDEST DUP3 MSTORE POP POP JUMP JUMPDEST PUSH0 PUSH1 0x20 DUP3 ADD SWAP1 POP PUSH2 0x1EA0 PUSH0 DUP4 ADD DUP5 PUSH2 0x1E7E JUMP JUMPDEST SWAP3 SWAP2 POP POP JUMP JUMPDEST PUSH2 0x1EAF DUP2 PUSH2 0x14E4 JUMP JUMPDEST DUP3 MSTORE POP POP JUMP JUMPDEST PUSH0 PUSH1 0x20 DUP3 ADD SWAP1 POP PUSH2 0x1EC8 PUSH0 DUP4 ADD DUP5 PUSH2 0x1EA6 JUMP JUMPDEST SWAP3 SWAP2 POP POP JUMP JUMPDEST PUSH2 0x1ED7 DUP2 PUSH2 0x149F JUMP JUMPDEST DUP3 MSTORE POP POP JUMP JUMPDEST PUSH0 PUSH1 0x20 DUP3 ADD SWAP1 POP PUSH2 0x1EF0 PUSH0 DUP4 ADD DUP5 PUSH2 0x1ECE JUMP JUMPDEST SWAP3 SWAP2 POP POP JUMP JUMPDEST PUSH0 DUP2 MLOAD SWAP1 POP SWAP2 SWAP1 POP JUMP JUMPDEST PUSH0 DUP3 DUP3 MSTORE PUSH1 0x20 DUP3 ADD SWAP1 POP SWAP3 SWAP2 POP POP JUMP JUMPDEST PUSH0 DUP2 SWAP1 POP PUSH1 0x20 DUP3 ADD SWAP1 POP SWAP2 SWAP1 POP JUMP JUMPDEST PUSH2 0x1F28 DUP2 PUSH2 0x1347 JUMP JUMPDEST DUP3 MSTORE POP POP JUMP JUMPDEST PUSH0 PUSH2 0x1F39 DUP4 DUP4 PUSH2 0x1F1F JUMP JUMPDEST PUSH1 0x20 DUP4 ADD SWAP1 POP SWAP3 SWAP2 POP POP JUMP JUMPDEST PUSH0 PUSH1 0x20 DUP3 ADD SWAP1 POP SWAP2 SWAP1 POP JUMP JUMPDEST PUSH0 PUSH2 0x1F5B DUP3 PUSH2 0x1EF6 JUMP JUMPDEST PUSH2 0x1F65 DUP2 DUP6 PUSH2 0x1F00 JUMP JUMPDEST SWAP4 POP PUSH2 0x1F70 DUP4 PUSH2 0x1F10 JUMP JUMPDEST DUP1 PUSH0 JUMPDEST DUP4 DUP2 LT ISZERO PUSH2 0x1FA0 JUMPI DUP2 MLOAD PUSH2 0x1F87 DUP9 DUP3 PUSH2 0x1F2E JUMP JUMPDEST SWAP8 POP PUSH2 0x1F92 DUP4 PUSH2 0x1F45 JUMP JUMPDEST SWAP3 POP POP PUSH1 0x1 DUP2 ADD SWAP1 POP PUSH2 0x1F73 JUMP JUMPDEST POP DUP6 SWAP4 POP POP POP POP SWAP3 SWAP2 POP POP JUMP JUMPDEST PUSH0 PUSH1 0x20 DUP3 ADD SWAP1 POP DUP2 DUP2 SUB PUSH0 DUP4 ADD MSTORE PUSH2 0x1FC5 DUP2 DUP5 PUSH2 0x1F51 JUMP JUMPDEST SWAP1 POP SWAP3 SWAP2 POP POP JUMP INVALID LOG2 PUSH5 0x6970667358 0x22 SLT KECCAK256 SWAP6 0xC9 PUSH19 0x323D1B28FC71B2D612044CBD576745845A9BA JUMPI PUSH0 PUSH31 0x56D792753C06EC64736F6C634300081F003300000000000000000000000000 "
				},
				"gasEstimates": {
					"creation": {
						"codeDepositCost": "1639000",
						"executionCost": "infinite",
						"totalCost": "infinite"
					},
					"external": {
						"events()": "infinite",
						"p_create_limit_order(bytes,string,string,uint64,uint128,bool,uint32,string,string,string)": "infinite",
						"p_create_twap_order(bytes,string,string,uint64[],uint64[],uint128,bool,uint32,string,string,string)": "infinite",
						"p_remove_limit_order(bytes,string,uint64)": "infinite",
						"p_remove_twap_order(bytes,string,uint64)": "infinite"
					},
					"internal": {
						"_addAddress(struct IEvents.Data memory[] memory,uint256,string memory,address)": "infinite",
						"_addBool(struct IEvents.Data memory[] memory,uint256,string memory,bool)": "infinite",
						"_addBytes(struct IEvents.Data memory[] memory,uint256,string memory,bytes memory)": "infinite",
						"_addString(struct IEvents.Data memory[] memory,uint256,string memory,string memory)": "infinite",
						"_addUint128(struct IEvents.Data memory[] memory,uint256,string memory,uint128)": "infinite",
						"_addUint32(struct IEvents.Data memory[] memory,uint256,string memory,uint32)": "infinite",
						"_addUint64(struct IEvents.Data memory[] memory,uint256,string memory,uint64)": "infinite",
						"_addUint64Array(struct IEvents.Data memory[] memory,uint256,string memory,uint64[] memory)": "infinite"
					}
				},
				"methodIdentifiers": {
					"events()": "b5f8558c",
					"p_create_limit_order(bytes,string,string,uint64,uint128,bool,uint32,string,string,string)": "c5bf2798",
					"p_create_twap_order(bytes,string,string,uint64[],uint64[],uint128,bool,uint32,string,string,string)": "cc301111",
					"p_remove_limit_order(bytes,string,uint64)": "b0fd93d7",
					"p_remove_twap_order(bytes,string,uint64)": "00859b5d"
				}
			},
			"storageLayout": {
				"storage": [],
				"types": null
			},
			"userdoc": {
				"kind": "user",
				"methods": {},
				"version": 1
			}
		}
	}
}