{
	"Evm/core/base/vaultDelegator.sol": {
		"QiaraZKDelegator": {
			"abi": [
				{
					"inputs": [
						{
							"internalType": "address",
							"name": "_balance_verifier",
							"type": "address"
						},
						{
							"internalType": "address",
							"name": "_variable_verifier",
							"type": "address"
						},
						{
							"internalType": "address",
							"name": "_validator_verifier",
							"type": "address"
						},
						{
							"internalType": "address",
							"name": "_variablesRegistry",
							"type": "address"
						},
						{
							"internalType": "address",
							"name": "_validatorsRegistry",
							"type": "address"
						}
					],
					"stateMutability": "nonpayable",
					"type": "constructor"
				},
				{
					"inputs": [
						{
							"internalType": "address",
							"name": "owner",
							"type": "address"
						}
					],
					"name": "OwnableInvalidOwner",
					"type": "error"
				},
				{
					"inputs": [
						{
							"internalType": "address",
							"name": "account",
							"type": "address"
						}
					],
					"name": "OwnableUnauthorizedAccount",
					"type": "error"
				},
				{
					"anonymous": false,
					"inputs": [
						{
							"indexed": true,
							"internalType": "address",
							"name": "previousOwner",
							"type": "address"
						},
						{
							"indexed": true,
							"internalType": "address",
							"name": "newOwner",
							"type": "address"
						}
					],
					"name": "OwnershipTransferred",
					"type": "event"
				},
				{
					"inputs": [],
					"name": "balance_verifier",
					"outputs": [
						{
							"internalType": "contract IBalanceVerifier",
							"name": "",
							"type": "address"
						}
					],
					"stateMutability": "view",
					"type": "function"
				},
				{
					"inputs": [
						{
							"internalType": "uint256",
							"name": "xLow",
							"type": "uint256"
						},
						{
							"internalType": "uint256",
							"name": "xHigh",
							"type": "uint256"
						},
						{
							"internalType": "uint256",
							"name": "yLow",
							"type": "uint256"
						},
						{
							"internalType": "uint256",
							"name": "yHigh",
							"type": "uint256"
						}
					],
					"name": "deriveAddressFromSplitPubKey",
					"outputs": [
						{
							"internalType": "address",
							"name": "",
							"type": "address"
						}
					],
					"stateMutability": "pure",
					"type": "function"
				},
				{
					"inputs": [
						{
							"internalType": "uint256",
							"name": "_field",
							"type": "uint256"
						}
					],
					"name": "fieldToAddress",
					"outputs": [
						{
							"internalType": "address",
							"name": "",
							"type": "address"
						}
					],
					"stateMutability": "pure",
					"type": "function"
				},
				{
					"inputs": [
						{
							"internalType": "uint256",
							"name": "_field",
							"type": "uint256"
						}
					],
					"name": "fieldToBytes",
					"outputs": [
						{
							"internalType": "bytes",
							"name": "",
							"type": "bytes"
						}
					],
					"stateMutability": "pure",
					"type": "function"
				},
				{
					"inputs": [
						{
							"internalType": "uint256",
							"name": "_field",
							"type": "uint256"
						}
					],
					"name": "fieldToString",
					"outputs": [
						{
							"internalType": "string",
							"name": "",
							"type": "string"
						}
					],
					"stateMutability": "pure",
					"type": "function"
				},
				{
					"inputs": [
						{
							"internalType": "bytes32",
							"name": "_messageHash",
							"type": "bytes32"
						}
					],
					"name": "getEthSignedMessageHash",
					"outputs": [
						{
							"internalType": "bytes32",
							"name": "",
							"type": "bytes32"
						}
					],
					"stateMutability": "pure",
					"type": "function"
				},
				{
					"inputs": [],
					"name": "owner",
					"outputs": [
						{
							"internalType": "address",
							"name": "",
							"type": "address"
						}
					],
					"stateMutability": "view",
					"type": "function"
				},
				{
					"inputs": [
						{
							"internalType": "uint256[8]",
							"name": "proof",
							"type": "uint256[8]"
						},
						{
							"internalType": "uint256[7]",
							"name": "input",
							"type": "uint256[7]"
						},
						{
							"internalType": "bytes",
							"name": "_signatures",
							"type": "bytes"
						}
					],
					"name": "processZkValidator",
					"outputs": [],
					"stateMutability": "nonpayable",
					"type": "function"
				},
				{
					"inputs": [
						{
							"internalType": "uint256[8]",
							"name": "proof",
							"type": "uint256[8]"
						},
						{
							"internalType": "uint256[7]",
							"name": "input",
							"type": "uint256[7]"
						},
						{
							"internalType": "bytes",
							"name": "_signatures",
							"type": "bytes"
						}
					],
					"name": "processZkVariable",
					"outputs": [],
					"stateMutability": "nonpayable",
					"type": "function"
				},
				{
					"inputs": [
						{
							"internalType": "uint256[8]",
							"name": "proof",
							"type": "uint256[8]"
						},
						{
							"internalType": "uint256[6]",
							"name": "input",
							"type": "uint256[6]"
						},
						{
							"internalType": "bytes",
							"name": "_signatures",
							"type": "bytes"
						}
					],
					"name": "processZkWithdraw",
					"outputs": [],
					"stateMutability": "nonpayable",
					"type": "function"
				},
				{
					"inputs": [
						{
							"internalType": "bytes32",
							"name": "_ethSignedMessageHash",
							"type": "bytes32"
						},
						{
							"internalType": "bytes",
							"name": "_signature",
							"type": "bytes"
						}
					],
					"name": "recoverSigner",
					"outputs": [
						{
							"internalType": "address",
							"name": "",
							"type": "address"
						}
					],
					"stateMutability": "pure",
					"type": "function"
				},
				{
					"inputs": [],
					"name": "renounceOwnership",
					"outputs": [],
					"stateMutability": "nonpayable",
					"type": "function"
				},
				{
					"inputs": [
						{
							"internalType": "address",
							"name": "newOwner",
							"type": "address"
						}
					],
					"name": "transferOwnership",
					"outputs": [],
					"stateMutability": "nonpayable",
					"type": "function"
				},
				{
					"inputs": [
						{
							"internalType": "uint256",
							"name": "",
							"type": "uint256"
						}
					],
					"name": "usedNullifiers",
					"outputs": [
						{
							"internalType": "bool",
							"name": "",
							"type": "bool"
						}
					],
					"stateMutability": "view",
					"type": "function"
				},
				{
					"inputs": [],
					"name": "validator_verifier",
					"outputs": [
						{
							"internalType": "contract IValidatorVerifier",
							"name": "",
							"type": "address"
						}
					],
					"stateMutability": "view",
					"type": "function"
				},
				{
					"inputs": [],
					"name": "validatorsRegistry",
					"outputs": [
						{
							"internalType": "contract IValidators",
							"name": "",
							"type": "address"
						}
					],
					"stateMutability": "view",
					"type": "function"
				},
				{
					"inputs": [],
					"name": "variable_verifier",
					"outputs": [
						{
							"internalType": "contract IVariableVerifier",
							"name": "",
							"type": "address"
						}
					],
					"stateMutability": "view",
					"type": "function"
				},
				{
					"inputs": [],
					"name": "variablesRegistry",
					"outputs": [
						{
							"internalType": "contract IVariables",
							"name": "",
							"type": "address"
						}
					],
					"stateMutability": "view",
					"type": "function"
				}
			],
			"devdoc": {
				"errors": {
					"OwnableInvalidOwner(address)": [
						{
							"details": "The owner is not a valid owner account. (eg. `address(0)`)"
						}
					],
					"OwnableUnauthorizedAccount(address)": [
						{
							"details": "The caller account is not authorized to perform an operation."
						}
					]
				},
				"kind": "dev",
				"methods": {
					"owner()": {
						"details": "Returns the address of the current owner."
					},
					"renounceOwnership()": {
						"details": "Leaves the contract without owner. It will not be possible to call `onlyOwner` functions. Can only be called by the current owner. NOTE: Renouncing ownership will leave the contract without an owner, thereby disabling any functionality that is only available to the owner."
					},
					"transferOwnership(address)": {
						"details": "Transfers ownership of the contract to a new account (`newOwner`). Can only be called by the current owner."
					}
				},
				"version": 1
			},
			"evm": {
				"assembly": "    /* \"Evm/core/base/vaultDelegator.sol\":1049:11255  contract QiaraZKDelegator is Ownable {... */\n  mstore(0x40, 0x0120)\n    /* \"Evm/core/base/vaultDelegator.sol\":1479:1987  constructor(address _balance_verifier,address _variable_verifier,address _validator_verifier, address _variablesRegistry, address _validatorsRegistry) Ownable(msg.sender) {... */\n  callvalue\n  dup1\n  iszero\n  tag_1\n  jumpi\n  revert(0x00, 0x00)\ntag_1:\n  pop\n  mload(0x40)\n  sub(codesize, bytecodeSize)\n  dup1\n  bytecodeSize\n  dup4\n  codecopy\n  dup2\n  dup2\n  add\n  0x40\n  mstore\n  dup2\n  add\n  swap1\n  tag_2\n  swap2\n  swap1\n  tag_3\n  jump\t// in\ntag_2:\n    /* \"Evm/core/base/vaultDelegator.sol\":1638:1648  msg.sender */\n  caller\n    /* \"@openzeppelin/contracts/access/Ownable.sol\":1297:1298  0 */\n  0x00\n    /* \"@openzeppelin/contracts/access/Ownable.sol\":1273:1299  initialOwner == address(0) */\n  0xffffffffffffffffffffffffffffffffffffffff\n  and\n    /* \"@openzeppelin/contracts/access/Ownable.sol\":1273:1285  initialOwner */\n  dup2\n    /* \"@openzeppelin/contracts/access/Ownable.sol\":1273:1299  initialOwner == address(0) */\n  0xffffffffffffffffffffffffffffffffffffffff\n  and\n  sub\n    /* \"@openzeppelin/contracts/access/Ownable.sol\":1269:1364  if (initialOwner == address(0)) {... */\n  tag_7\n  jumpi\n    /* \"@openzeppelin/contracts/access/Ownable.sol\":1350:1351  0 */\n  0x00\n    /* \"@openzeppelin/contracts/access/Ownable.sol\":1322:1353  OwnableInvalidOwner(address(0)) */\n  mload(0x40)\n  0x1e4fbdf700000000000000000000000000000000000000000000000000000000\n  dup2\n  mstore\n  0x04\n  add\n  tag_8\n  swap2\n  swap1\n  tag_9\n  jump\t// in\ntag_8:\n  mload(0x40)\n  dup1\n  swap2\n  sub\n  swap1\n  revert\n    /* \"@openzeppelin/contracts/access/Ownable.sol\":1269:1364  if (initialOwner == address(0)) {... */\ntag_7:\n    /* \"@openzeppelin/contracts/access/Ownable.sol\":1373:1405  _transferOwnership(initialOwner) */\n  tag_10\n    /* \"@openzeppelin/contracts/access/Ownable.sol\":1392:1404  initialOwner */\n  dup2\n    /* \"@openzeppelin/contracts/access/Ownable.sol\":1373:1391  _transferOwnership */\n  shl(0x20, tag_11)\n    /* \"@openzeppelin/contracts/access/Ownable.sol\":1373:1405  _transferOwnership(initialOwner) */\n  0x20\n  shr\n  jump\t// in\ntag_10:\n    /* \"@openzeppelin/contracts/access/Ownable.sol\":1225:1412  constructor(address initialOwner) {... */\n  pop\n    /* \"Evm/core/base/vaultDelegator.sol\":1697:1714  _balance_verifier */\n  dup5\n    /* \"Evm/core/base/vaultDelegator.sol\":1661:1715  balance_verifier = IBalanceVerifier(_balance_verifier) */\n  0xffffffffffffffffffffffffffffffffffffffff\n  and\n  0x80\n  dup2\n  0xffffffffffffffffffffffffffffffffffffffff\n  and\n  dup2\n  mstore\n  pop\n  pop\n    /* \"Evm/core/base/vaultDelegator.sol\":1764:1782  _variable_verifier */\n  dup4\n    /* \"Evm/core/base/vaultDelegator.sol\":1726:1783  variable_verifier = IVariableVerifier(_variable_verifier) */\n  0xffffffffffffffffffffffffffffffffffffffff\n  and\n  0xa0\n  dup2\n  0xffffffffffffffffffffffffffffffffffffffff\n  and\n  dup2\n  mstore\n  pop\n  pop\n    /* \"Evm/core/base/vaultDelegator.sol\":1834:1853  _validator_verifier */\n  dup3\n    /* \"Evm/core/base/vaultDelegator.sol\":1794:1854  validator_verifier = IValidatorVerifier(_validator_verifier) */\n  0xffffffffffffffffffffffffffffffffffffffff\n  and\n  0xc0\n  dup2\n  0xffffffffffffffffffffffffffffffffffffffff\n  and\n  dup2\n  mstore\n  pop\n  pop\n    /* \"Evm/core/base/vaultDelegator.sol\":1896:1914  _variablesRegistry */\n  dup2\n    /* \"Evm/core/base/vaultDelegator.sol\":1865:1915  variablesRegistry = IVariables(_variablesRegistry) */\n  0xffffffffffffffffffffffffffffffffffffffff\n  and\n  0xe0\n  dup2\n  0xffffffffffffffffffffffffffffffffffffffff\n  and\n  dup2\n  mstore\n  pop\n  pop\n    /* \"Evm/core/base/vaultDelegator.sol\":1959:1978  _validatorsRegistry */\n  dup1\n    /* \"Evm/core/base/vaultDelegator.sol\":1926:1979  validatorsRegistry = IValidators(_validatorsRegistry) */\n  0xffffffffffffffffffffffffffffffffffffffff\n  and\n  0x0100\n  dup2\n  0xffffffffffffffffffffffffffffffffffffffff\n  and\n  dup2\n  mstore\n  pop\n  pop\n    /* \"Evm/core/base/vaultDelegator.sol\":1479:1987  constructor(address _balance_verifier,address _variable_verifier,address _validator_verifier, address _variablesRegistry, address _validatorsRegistry) Ownable(msg.sender) {... */\n  pop\n  pop\n  pop\n  pop\n  pop\n    /* \"Evm/core/base/vaultDelegator.sol\":1049:11255  contract QiaraZKDelegator is Ownable {... */\n  jump(tag_13)\n    /* \"@openzeppelin/contracts/access/Ownable.sol\":2912:3099  function _transferOwnership(address newOwner) internal virtual {... */\ntag_11:\n    /* \"@openzeppelin/contracts/access/Ownable.sol\":2985:3001  address oldOwner */\n  0x00\n    /* \"@openzeppelin/contracts/access/Ownable.sol\":3004:3010  _owner */\n  0x00\n  0x00\n  swap1\n  sload\n  swap1\n  0x0100\n  exp\n  swap1\n  div\n  0xffffffffffffffffffffffffffffffffffffffff\n  and\n    /* \"@openzeppelin/contracts/access/Ownable.sol\":2985:3010  address oldOwner = _owner */\n  swap1\n  pop\n    /* \"@openzeppelin/contracts/access/Ownable.sol\":3029:3037  newOwner */\n  dup2\n    /* \"@openzeppelin/contracts/access/Ownable.sol\":3020:3026  _owner */\n  0x00\n  0x00\n    /* \"@openzeppelin/contracts/access/Ownable.sol\":3020:3037  _owner = newOwner */\n  0x0100\n  exp\n  dup2\n  sload\n  dup2\n  0xffffffffffffffffffffffffffffffffffffffff\n  mul\n  not\n  and\n  swap1\n  dup4\n  0xffffffffffffffffffffffffffffffffffffffff\n  and\n  mul\n  or\n  swap1\n  sstore\n  pop\n    /* \"@openzeppelin/contracts/access/Ownable.sol\":3083:3091  newOwner */\n  dup2\n    /* \"@openzeppelin/contracts/access/Ownable.sol\":3052:3092  OwnershipTransferred(oldOwner, newOwner) */\n  0xffffffffffffffffffffffffffffffffffffffff\n  and\n    /* \"@openzeppelin/contracts/access/Ownable.sol\":3073:3081  oldOwner */\n  dup2\n    /* \"@openzeppelin/contracts/access/Ownable.sol\":3052:3092  OwnershipTransferred(oldOwner, newOwner) */\n  0xffffffffffffffffffffffffffffffffffffffff\n  and\n  0x8be0079c531659141344cd1fd0a4f28419497f9722a3daafe3b4186f6b6457e0\n  mload(0x40)\n  mload(0x40)\n  dup1\n  swap2\n  sub\n  swap1\n  log3\n    /* \"@openzeppelin/contracts/access/Ownable.sol\":2975:3099  {... */\n  pop\n    /* \"@openzeppelin/contracts/access/Ownable.sol\":2912:3099  function _transferOwnership(address newOwner) internal virtual {... */\n  pop\n  jump\t// out\n    /* \"#utility.yul\":88:205   */\ntag_16:\n    /* \"#utility.yul\":197:198   */\n  0x00\n    /* \"#utility.yul\":194:195   */\n  0x00\n    /* \"#utility.yul\":187:199   */\n  revert\n    /* \"#utility.yul\":334:460   */\ntag_18:\n    /* \"#utility.yul\":371:378   */\n  0x00\n    /* \"#utility.yul\":411:453   */\n  0xffffffffffffffffffffffffffffffffffffffff\n    /* \"#utility.yul\":404:409   */\n  dup3\n    /* \"#utility.yul\":400:454   */\n  and\n    /* \"#utility.yul\":389:454   */\n  swap1\n  pop\n    /* \"#utility.yul\":334:460   */\n  swap2\n  swap1\n  pop\n  jump\t// out\n    /* \"#utility.yul\":466:562   */\ntag_19:\n    /* \"#utility.yul\":503:510   */\n  0x00\n    /* \"#utility.yul\":532:556   */\n  tag_29\n    /* \"#utility.yul\":550:555   */\n  dup3\n    /* \"#utility.yul\":532:556   */\n  tag_18\n  jump\t// in\ntag_29:\n    /* \"#utility.yul\":521:556   */\n  swap1\n  pop\n    /* \"#utility.yul\":466:562   */\n  swap2\n  swap1\n  pop\n  jump\t// out\n    /* \"#utility.yul\":568:690   */\ntag_20:\n    /* \"#utility.yul\":641:665   */\n  tag_31\n    /* \"#utility.yul\":659:664   */\n  dup2\n    /* \"#utility.yul\":641:665   */\n  tag_19\n  jump\t// in\ntag_31:\n    /* \"#utility.yul\":634:639   */\n  dup2\n    /* \"#utility.yul\":631:666   */\n  eq\n    /* \"#utility.yul\":621:684   */\n  tag_32\n  jumpi\n    /* \"#utility.yul\":680:681   */\n  0x00\n    /* \"#utility.yul\":677:678   */\n  0x00\n    /* \"#utility.yul\":670:682   */\n  revert\n    /* \"#utility.yul\":621:684   */\ntag_32:\n    /* \"#utility.yul\":568:690   */\n  pop\n  jump\t// out\n    /* \"#utility.yul\":696:839   */\ntag_21:\n    /* \"#utility.yul\":753:758   */\n  0x00\n    /* \"#utility.yul\":784:790   */\n  dup2\n    /* \"#utility.yul\":778:791   */\n  mload\n    /* \"#utility.yul\":769:791   */\n  swap1\n  pop\n    /* \"#utility.yul\":800:833   */\n  tag_34\n    /* \"#utility.yul\":827:832   */\n  dup2\n    /* \"#utility.yul\":800:833   */\n  tag_20\n  jump\t// in\ntag_34:\n    /* \"#utility.yul\":696:839   */\n  swap3\n  swap2\n  pop\n  pop\n  jump\t// out\n    /* \"#utility.yul\":845:1822   */\ntag_3:\n    /* \"#utility.yul\":951:957   */\n  0x00\n    /* \"#utility.yul\":959:965   */\n  0x00\n    /* \"#utility.yul\":967:973   */\n  0x00\n    /* \"#utility.yul\":975:981   */\n  0x00\n    /* \"#utility.yul\":983:989   */\n  0x00\n    /* \"#utility.yul\":1032:1035   */\n  0xa0\n    /* \"#utility.yul\":1020:1029   */\n  dup7\n    /* \"#utility.yul\":1011:1018   */\n  dup9\n    /* \"#utility.yul\":1007:1030   */\n  sub\n    /* \"#utility.yul\":1003:1036   */\n  slt\n    /* \"#utility.yul\":1000:1120   */\n  iszero\n  tag_36\n  jumpi\n    /* \"#utility.yul\":1039:1118   */\n  tag_37\n  tag_16\n  jump\t// in\ntag_37:\n    /* \"#utility.yul\":1000:1120   */\ntag_36:\n    /* \"#utility.yul\":1159:1160   */\n  0x00\n    /* \"#utility.yul\":1184:1248   */\n  tag_38\n    /* \"#utility.yul\":1240:1247   */\n  dup9\n    /* \"#utility.yul\":1231:1237   */\n  dup3\n    /* \"#utility.yul\":1220:1229   */\n  dup10\n    /* \"#utility.yul\":1216:1238   */\n  add\n    /* \"#utility.yul\":1184:1248   */\n  tag_21\n  jump\t// in\ntag_38:\n    /* \"#utility.yul\":1174:1248   */\n  swap6\n  pop\n    /* \"#utility.yul\":1130:1258   */\n  pop\n    /* \"#utility.yul\":1297:1299   */\n  0x20\n    /* \"#utility.yul\":1323:1387   */\n  tag_39\n    /* \"#utility.yul\":1379:1386   */\n  dup9\n    /* \"#utility.yul\":1370:1376   */\n  dup3\n    /* \"#utility.yul\":1359:1368   */\n  dup10\n    /* \"#utility.yul\":1355:1377   */\n  add\n    /* \"#utility.yul\":1323:1387   */\n  tag_21\n  jump\t// in\ntag_39:\n    /* \"#utility.yul\":1313:1387   */\n  swap5\n  pop\n    /* \"#utility.yul\":1268:1397   */\n  pop\n    /* \"#utility.yul\":1436:1438   */\n  0x40\n    /* \"#utility.yul\":1462:1526   */\n  tag_40\n    /* \"#utility.yul\":1518:1525   */\n  dup9\n    /* \"#utility.yul\":1509:1515   */\n  dup3\n    /* \"#utility.yul\":1498:1507   */\n  dup10\n    /* \"#utility.yul\":1494:1516   */\n  add\n    /* \"#utility.yul\":1462:1526   */\n  tag_21\n  jump\t// in\ntag_40:\n    /* \"#utility.yul\":1452:1526   */\n  swap4\n  pop\n    /* \"#utility.yul\":1407:1536   */\n  pop\n    /* \"#utility.yul\":1575:1577   */\n  0x60\n    /* \"#utility.yul\":1601:1665   */\n  tag_41\n    /* \"#utility.yul\":1657:1664   */\n  dup9\n    /* \"#utility.yul\":1648:1654   */\n  dup3\n    /* \"#utility.yul\":1637:1646   */\n  dup10\n    /* \"#utility.yul\":1633:1655   */\n  add\n    /* \"#utility.yul\":1601:1665   */\n  tag_21\n  jump\t// in\ntag_41:\n    /* \"#utility.yul\":1591:1665   */\n  swap3\n  pop\n    /* \"#utility.yul\":1546:1675   */\n  pop\n    /* \"#utility.yul\":1714:1717   */\n  0x80\n    /* \"#utility.yul\":1741:1805   */\n  tag_42\n    /* \"#utility.yul\":1797:1804   */\n  dup9\n    /* \"#utility.yul\":1788:1794   */\n  dup3\n    /* \"#utility.yul\":1777:1786   */\n  dup10\n    /* \"#utility.yul\":1773:1795   */\n  add\n    /* \"#utility.yul\":1741:1805   */\n  tag_21\n  jump\t// in\ntag_42:\n    /* \"#utility.yul\":1731:1805   */\n  swap2\n  pop\n    /* \"#utility.yul\":1685:1815   */\n  pop\n    /* \"#utility.yul\":845:1822   */\n  swap3\n  swap6\n  pop\n  swap3\n  swap6\n  swap1\n  swap4\n  pop\n  jump\t// out\n    /* \"#utility.yul\":1828:1946   */\ntag_22:\n    /* \"#utility.yul\":1915:1939   */\n  tag_44\n    /* \"#utility.yul\":1933:1938   */\n  dup2\n    /* \"#utility.yul\":1915:1939   */\n  tag_19\n  jump\t// in\ntag_44:\n    /* \"#utility.yul\":1910:1913   */\n  dup3\n    /* \"#utility.yul\":1903:1940   */\n  mstore\n    /* \"#utility.yul\":1828:1946   */\n  pop\n  pop\n  jump\t// out\n    /* \"#utility.yul\":1952:2174   */\ntag_9:\n    /* \"#utility.yul\":2045:2049   */\n  0x00\n    /* \"#utility.yul\":2083:2085   */\n  0x20\n    /* \"#utility.yul\":2072:2081   */\n  dup3\n    /* \"#utility.yul\":2068:2086   */\n  add\n    /* \"#utility.yul\":2060:2086   */\n  swap1\n  pop\n    /* \"#utility.yul\":2096:2167   */\n  tag_46\n    /* \"#utility.yul\":2164:2165   */\n  0x00\n    /* \"#utility.yul\":2153:2162   */\n  dup4\n    /* \"#utility.yul\":2149:2166   */\n  add\n    /* \"#utility.yul\":2140:2146   */\n  dup5\n    /* \"#utility.yul\":2096:2167   */\n  tag_22\n  jump\t// in\ntag_46:\n    /* \"#utility.yul\":1952:2174   */\n  swap3\n  swap2\n  pop\n  pop\n  jump\t// out\n    /* \"Evm/core/base/vaultDelegator.sol\":1049:11255  contract QiaraZKDelegator is Ownable {... */\ntag_13:\n  mload(0x80)\n  mload(0xa0)\n  mload(0xc0)\n  mload(0xe0)\n  mload(0x0100)\n  codecopy(0x00, dataOffset(sub_0), dataSize(sub_0))\n  0x00\n  assignImmutable(\"0x98f4d6eec7613e33b36335f2ce6a27018d9a9f0999ab27807ed26ac6fd46f1a2\")\n  0x00\n  assignImmutable(\"0x980c46aeb242fb2816eec3c43a568cdc6adda404b46e62cce4e3fe7d929881e3\")\n  0x00\n  assignImmutable(\"0x7d2d5796d747fbd89dfac5294d9ace4e9994102d54e76e822233a2e75d4144b1\")\n  0x00\n  assignImmutable(\"0x7d94b1fd5befe75fac04677148728067a5c7750c4535d59cf8d692301dae078c\")\n  0x00\n  assignImmutable(\"0xb7020dd003fcd4d96af1507ff4dc7e2c1158f23ad0bacfdf3455869cf9fb4898\")\n  return(0x00, dataSize(sub_0))\nstop\n\nsub_0: assembly {\n        /* \"Evm/core/base/vaultDelegator.sol\":1049:11255  contract QiaraZKDelegator is Ownable {... */\n      mstore(0x40, 0x80)\n      callvalue\n      dup1\n      iszero\n      tag_1\n      jumpi\n      revert(0x00, 0x00)\n    tag_1:\n      pop\n      jumpi(tag_2, lt(calldatasize, 0x04))\n      shr(0xe0, calldataload(0x00))\n      dup1\n      0x97aba7f9\n      gt\n      tag_21\n      jumpi\n      dup1\n      0xb648f220\n      gt\n      tag_22\n      jumpi\n      dup1\n      0xb648f220\n      eq\n      tag_16\n      jumpi\n      dup1\n      0xbf4d766e\n      eq\n      tag_17\n      jumpi\n      dup1\n      0xf2fde38b\n      eq\n      tag_18\n      jumpi\n      dup1\n      0xf90c0f40\n      eq\n      tag_19\n      jumpi\n      dup1\n      0xfa540801\n      eq\n      tag_20\n      jumpi\n      jump(tag_2)\n    tag_22:\n      dup1\n      0x97aba7f9\n      eq\n      tag_12\n      jumpi\n      dup1\n      0xaad24061\n      eq\n      tag_13\n      jumpi\n      dup1\n      0xaed881d8\n      eq\n      tag_14\n      jumpi\n      dup1\n      0xb3d63003\n      eq\n      tag_15\n      jumpi\n      jump(tag_2)\n    tag_21:\n      dup1\n      0x4eb30d41\n      gt\n      tag_23\n      jumpi\n      dup1\n      0x4eb30d41\n      eq\n      tag_7\n      jumpi\n      dup1\n      0x715018a6\n      eq\n      tag_8\n      jumpi\n      dup1\n      0x76fbe04f\n      eq\n      tag_9\n      jumpi\n      dup1\n      0x7a988c54\n      eq\n      tag_10\n      jumpi\n      dup1\n      0x8da5cb5b\n      eq\n      tag_11\n      jumpi\n      jump(tag_2)\n    tag_23:\n      dup1\n      0x19b8c941\n      eq\n      tag_3\n      jumpi\n      dup1\n      0x34e1d6a6\n      eq\n      tag_4\n      jumpi\n      dup1\n      0x392c8731\n      eq\n      tag_5\n      jumpi\n      dup1\n      0x41e532ca\n      eq\n      tag_6\n      jumpi\n    tag_2:\n      revert(0x00, 0x00)\n        /* \"Evm/core/base/vaultDelegator.sol\":9787:9910  function fieldToBytes(uint256 _field) public pure returns (bytes memory) {... */\n    tag_3:\n      tag_24\n      0x04\n      dup1\n      calldatasize\n      sub\n      dup2\n      add\n      swap1\n      tag_25\n      swap2\n      swap1\n      tag_26\n      jump\t// in\n    tag_25:\n      tag_27\n      jump\t// in\n    tag_24:\n      mload(0x40)\n      tag_28\n      swap2\n      swap1\n      tag_29\n      jump\t// in\n    tag_28:\n      mload(0x40)\n      dup1\n      swap2\n      sub\n      swap1\n      return\n        /* \"Evm/core/base/vaultDelegator.sol\":4136:4882  function processZkValidator(uint[8] calldata proof, uint[7] calldata input,bytes calldata _signatures) external {... */\n    tag_4:\n      tag_30\n      0x04\n      dup1\n      calldatasize\n      sub\n      dup2\n      add\n      swap1\n      tag_31\n      swap2\n      swap1\n      tag_32\n      jump\t// in\n    tag_31:\n      tag_33\n      jump\t// in\n    tag_30:\n      stop\n        /* \"Evm/core/base/vaultDelegator.sol\":1995:3164  function processZkWithdraw(uint[8] calldata proof, uint[6] calldata input,  bytes calldata _signatures) external {... */\n    tag_5:\n      tag_34\n      0x04\n      dup1\n      calldatasize\n      sub\n      dup2\n      add\n      swap1\n      tag_35\n      swap2\n      swap1\n      tag_36\n      jump\t// in\n    tag_35:\n      tag_37\n      jump\t// in\n    tag_34:\n      stop\n        /* \"Evm/core/base/vaultDelegator.sol\":9920:10472  function deriveAddressFromSplitPubKey(uint256 xLow, uint256 xHigh,uint256 yLow, uint256 yHigh) public pure returns (address) {... */\n    tag_6:\n      tag_38\n      0x04\n      dup1\n      calldatasize\n      sub\n      dup2\n      add\n      swap1\n      tag_39\n      swap2\n      swap1\n      tag_40\n      jump\t// in\n    tag_39:\n      tag_41\n      jump\t// in\n    tag_38:\n      mload(0x40)\n      tag_42\n      swap2\n      swap1\n      tag_43\n      jump\t// in\n    tag_42:\n      mload(0x40)\n      dup1\n      swap2\n      sub\n      swap1\n      return\n        /* \"Evm/core/base/vaultDelegator.sol\":1150:1202  IVariableVerifier public immutable variable_verifier */\n    tag_7:\n      tag_44\n      tag_45\n      jump\t// in\n    tag_44:\n      mload(0x40)\n      tag_46\n      swap2\n      swap1\n      tag_47\n      jump\t// in\n    tag_46:\n      mload(0x40)\n      dup1\n      swap2\n      sub\n      swap1\n      return\n        /* \"@openzeppelin/contracts/access/Ownable.sol\":2293:2394  function renounceOwnership() public virtual onlyOwner {... */\n    tag_8:\n      tag_48\n      tag_49\n      jump\t// in\n    tag_48:\n      stop\n        /* \"Evm/core/base/vaultDelegator.sol\":3170:4130  function processZkVariable(uint[8] calldata proof, uint[7] calldata input, bytes calldata _signatures) external {... */\n    tag_9:\n      tag_50\n      0x04\n      dup1\n      calldatasize\n      sub\n      dup2\n      add\n      swap1\n      tag_51\n      swap2\n      swap1\n      tag_32\n      jump\t// in\n    tag_51:\n      tag_52\n      jump\t// in\n    tag_50:\n      stop\n        /* \"Evm/core/base/vaultDelegator.sol\":9661:9781  function fieldToAddress(uint256 _field) public pure returns (address) {... */\n    tag_10:\n      tag_53\n      0x04\n      dup1\n      calldatasize\n      sub\n      dup2\n      add\n      swap1\n      tag_54\n      swap2\n      swap1\n      tag_26\n      jump\t// in\n    tag_54:\n      tag_55\n      jump\t// in\n    tag_53:\n      mload(0x40)\n      tag_56\n      swap2\n      swap1\n      tag_43\n      jump\t// in\n    tag_56:\n      mload(0x40)\n      dup1\n      swap2\n      sub\n      swap1\n      return\n        /* \"@openzeppelin/contracts/access/Ownable.sol\":1638:1723  function owner() public view virtual returns (address) {... */\n    tag_11:\n      tag_57\n      tag_58\n      jump\t// in\n    tag_57:\n      mload(0x40)\n      tag_59\n      swap2\n      swap1\n      tag_43\n      jump\t// in\n    tag_59:\n      mload(0x40)\n      dup1\n      swap2\n      sub\n      swap1\n      return\n        /* \"Evm/core/base/vaultDelegator.sol\":10674:11252  function recoverSigner(bytes32 _ethSignedMessageHash, bytes memory _signature)public pure returns (address){... */\n    tag_12:\n      tag_60\n      0x04\n      dup1\n      calldatasize\n      sub\n      dup2\n      add\n      swap1\n      tag_61\n      swap2\n      swap1\n      tag_62\n      jump\t// in\n    tag_61:\n      tag_63\n      jump\t// in\n    tag_60:\n      mload(0x40)\n      tag_64\n      swap2\n      swap1\n      tag_43\n      jump\t// in\n    tag_64:\n      mload(0x40)\n      dup1\n      swap2\n      sub\n      swap1\n      return\n        /* \"Evm/core/base/vaultDelegator.sol\":1424:1470  mapping(uint256 => bool) public usedNullifiers */\n    tag_13:\n      tag_65\n      0x04\n      dup1\n      calldatasize\n      sub\n      dup2\n      add\n      swap1\n      tag_66\n      swap2\n      swap1\n      tag_26\n      jump\t// in\n    tag_66:\n      tag_67\n      jump\t// in\n    tag_65:\n      mload(0x40)\n      tag_68\n      swap2\n      swap1\n      tag_69\n      jump\t// in\n    tag_68:\n      mload(0x40)\n      dup1\n      swap2\n      sub\n      swap1\n      return\n        /* \"Evm/core/base/vaultDelegator.sol\":1322:1369  IValidators public immutable validatorsRegistry */\n    tag_14:\n      tag_70\n      tag_71\n      jump\t// in\n    tag_70:\n      mload(0x40)\n      tag_72\n      swap2\n      swap1\n      tag_73\n      jump\t// in\n    tag_72:\n      mload(0x40)\n      dup1\n      swap2\n      sub\n      swap1\n      return\n        /* \"Evm/core/base/vaultDelegator.sol\":1209:1263  IValidatorVerifier public immutable validator_verifier */\n    tag_15:\n      tag_74\n      tag_75\n      jump\t// in\n    tag_74:\n      mload(0x40)\n      tag_76\n      swap2\n      swap1\n      tag_77\n      jump\t// in\n    tag_76:\n      mload(0x40)\n      dup1\n      swap2\n      sub\n      swap1\n      return\n        /* \"Evm/core/base/vaultDelegator.sol\":8778:9655  function fieldToString(uint256 _field) public pure returns (string memory) {... */\n    tag_16:\n      tag_78\n      0x04\n      dup1\n      calldatasize\n      sub\n      dup2\n      add\n      swap1\n      tag_79\n      swap2\n      swap1\n      tag_26\n      jump\t// in\n    tag_79:\n      tag_80\n      jump\t// in\n    tag_78:\n      mload(0x40)\n      tag_81\n      swap2\n      swap1\n      tag_82\n      jump\t// in\n    tag_81:\n      mload(0x40)\n      dup1\n      swap2\n      sub\n      swap1\n      return\n        /* \"Evm/core/base/vaultDelegator.sol\":1270:1315  IVariables public immutable variablesRegistry */\n    tag_17:\n      tag_83\n      tag_84\n      jump\t// in\n    tag_83:\n      mload(0x40)\n      tag_85\n      swap2\n      swap1\n      tag_86\n      jump\t// in\n    tag_85:\n      mload(0x40)\n      dup1\n      swap2\n      sub\n      swap1\n      return\n        /* \"@openzeppelin/contracts/access/Ownable.sol\":2543:2758  function transferOwnership(address newOwner) public virtual onlyOwner {... */\n    tag_18:\n      tag_87\n      0x04\n      dup1\n      calldatasize\n      sub\n      dup2\n      add\n      swap1\n      tag_88\n      swap2\n      swap1\n      tag_89\n      jump\t// in\n    tag_88:\n      tag_90\n      jump\t// in\n    tag_87:\n      stop\n        /* \"Evm/core/base/vaultDelegator.sol\":1093:1143  IBalanceVerifier public immutable balance_verifier */\n    tag_19:\n      tag_91\n      tag_92\n      jump\t// in\n    tag_91:\n      mload(0x40)\n      tag_93\n      swap2\n      swap1\n      tag_94\n      jump\t// in\n    tag_93:\n      mload(0x40)\n      dup1\n      swap2\n      sub\n      swap1\n      return\n        /* \"Evm/core/base/vaultDelegator.sol\":10480:10668  function getEthSignedMessageHash(bytes32 _messageHash) public pure returns (bytes32) {... */\n    tag_20:\n      tag_95\n      0x04\n      dup1\n      calldatasize\n      sub\n      dup2\n      add\n      swap1\n      tag_96\n      swap2\n      swap1\n      tag_97\n      jump\t// in\n    tag_96:\n      tag_98\n      jump\t// in\n    tag_95:\n      mload(0x40)\n      tag_99\n      swap2\n      swap1\n      tag_100\n      jump\t// in\n    tag_99:\n      mload(0x40)\n      dup1\n      swap2\n      sub\n      swap1\n      return\n        /* \"Evm/core/base/vaultDelegator.sol\":9787:9910  function fieldToBytes(uint256 _field) public pure returns (bytes memory) {... */\n    tag_27:\n        /* \"Evm/core/base/vaultDelegator.sol\":9846:9858  bytes memory */\n      0x60\n        /* \"Evm/core/base/vaultDelegator.sol\":9895:9901  _field */\n      dup2\n        /* \"Evm/core/base/vaultDelegator.sol\":9878:9902  abi.encodePacked(_field) */\n      add(0x20, mload(0x40))\n      tag_102\n      swap2\n      swap1\n      tag_103\n      jump\t// in\n    tag_102:\n      mload(0x40)\n      0x20\n      dup2\n      dup4\n      sub\n      sub\n      dup2\n      mstore\n      swap1\n      0x40\n      mstore\n        /* \"Evm/core/base/vaultDelegator.sol\":9871:9902  return abi.encodePacked(_field) */\n      swap1\n      pop\n        /* \"Evm/core/base/vaultDelegator.sol\":9787:9910  function fieldToBytes(uint256 _field) public pure returns (bytes memory) {... */\n      swap2\n      swap1\n      pop\n      jump\t// out\n        /* \"Evm/core/base/vaultDelegator.sol\":4136:4882  function processZkValidator(uint[8] calldata proof, uint[7] calldata input,bytes calldata _signatures) external {... */\n    tag_33:\n        /* \"Evm/core/base/vaultDelegator.sol\":4290:4308  validator_verifier */\n      immutable(\"0x7d2d5796d747fbd89dfac5294d9ace4e9994102d54e76e822233a2e75d4144b1\")\n        /* \"Evm/core/base/vaultDelegator.sol\":4290:4320  validator_verifier.verifyProof */\n      0xffffffffffffffffffffffffffffffffffffffff\n      and\n      0x1042664e\n        /* \"Evm/core/base/vaultDelegator.sol\":4321:4326  proof */\n      dup6\n        /* \"Evm/core/base/vaultDelegator.sol\":4328:4333  input */\n      dup6\n        /* \"Evm/core/base/vaultDelegator.sol\":4290:4334  validator_verifier.verifyProof(proof, input) */\n      mload(0x40)\n      dup4\n      0xffffffff\n      and\n      0xe0\n      shl\n      dup2\n      mstore\n      0x04\n      add\n      tag_105\n      swap3\n      swap2\n      swap1\n      tag_106\n      jump\t// in\n    tag_105:\n      0x00\n      mload(0x40)\n      dup1\n      dup4\n      sub\n      dup2\n      dup7\n      dup1\n      extcodesize\n      iszero\n      dup1\n      iszero\n      tag_107\n      jumpi\n      revert(0x00, 0x00)\n    tag_107:\n      pop\n      gas\n      staticcall\n      iszero\n      dup1\n      iszero\n      tag_109\n      jumpi\n      returndatacopy(0x00, 0x00, returndatasize)\n      revert(0x00, returndatasize)\n    tag_109:\n      pop\n      pop\n      pop\n      pop\n        /* \"Evm/core/base/vaultDelegator.sol\":4347:4362  uint256 chainID */\n      0x00\n        /* \"Evm/core/base/vaultDelegator.sol\":4365:4370  input */\n      dup4\n        /* \"Evm/core/base/vaultDelegator.sol\":4371:4372  4 */\n      0x04\n        /* \"Evm/core/base/vaultDelegator.sol\":4365:4373  input[4] */\n      0x07\n      dup2\n      lt\n      tag_110\n      jumpi\n      tag_111\n      tag_112\n      jump\t// in\n    tag_111:\n    tag_110:\n      0x20\n      mul\n      add\n      calldataload\n        /* \"Evm/core/base/vaultDelegator.sol\":4347:4373  uint256 chainID = input[4] */\n      swap1\n      pop\n        /* \"Evm/core/base/vaultDelegator.sol\":4403:4416  block.chainid */\n      chainid\n        /* \"Evm/core/base/vaultDelegator.sol\":4392:4399  chainID */\n      dup2\n        /* \"Evm/core/base/vaultDelegator.sol\":4392:4416  chainID == block.chainid */\n      eq\n        /* \"Evm/core/base/vaultDelegator.sol\":4384:4444  require(chainID == block.chainid, \"Wrong destination chain\") */\n      tag_113\n      jumpi\n      mload(0x40)\n      0x08c379a000000000000000000000000000000000000000000000000000000000\n      dup2\n      mstore\n      0x04\n      add\n      tag_114\n      swap1\n      tag_115\n      jump\t// in\n    tag_114:\n      mload(0x40)\n      dup1\n      swap2\n      sub\n      swap1\n      revert\n    tag_113:\n        /* \"Evm/core/base/vaultDelegator.sol\":4505:4522  uint256 nullifier */\n      0x00\n        /* \"Evm/core/base/vaultDelegator.sol\":4525:4552  _calculateNullifier7(input) */\n      tag_116\n        /* \"Evm/core/base/vaultDelegator.sol\":4546:4551  input */\n      dup6\n        /* \"Evm/core/base/vaultDelegator.sol\":4525:4545  _calculateNullifier7 */\n      tag_117\n        /* \"Evm/core/base/vaultDelegator.sol\":4525:4552  _calculateNullifier7(input) */\n      jump\t// in\n    tag_116:\n        /* \"Evm/core/base/vaultDelegator.sol\":4505:4552  uint256 nullifier = _calculateNullifier7(input) */\n      swap1\n      pop\n        /* \"Evm/core/base/vaultDelegator.sol\":4563:4616  _verifyAllSignatures(bytes32(nullifier), _signatures) */\n      tag_118\n        /* \"Evm/core/base/vaultDelegator.sol\":4592:4601  nullifier */\n      dup2\n        /* \"Evm/core/base/vaultDelegator.sol\":4584:4602  bytes32(nullifier) */\n      0x00\n      shl\n        /* \"Evm/core/base/vaultDelegator.sol\":4604:4615  _signatures */\n      dup6\n      dup6\n        /* \"Evm/core/base/vaultDelegator.sol\":4563:4583  _verifyAllSignatures */\n      tag_119\n        /* \"Evm/core/base/vaultDelegator.sol\":4563:4616  _verifyAllSignatures(bytes32(nullifier), _signatures) */\n      jump\t// in\n    tag_118:\n        /* \"Evm/core/base/vaultDelegator.sol\":4636:4650  usedNullifiers */\n      0x01\n        /* \"Evm/core/base/vaultDelegator.sol\":4636:4661  usedNullifiers[nullifier] */\n      0x00\n        /* \"Evm/core/base/vaultDelegator.sol\":4651:4660  nullifier */\n      dup3\n        /* \"Evm/core/base/vaultDelegator.sol\":4636:4661  usedNullifiers[nullifier] */\n      dup2\n      mstore\n      0x20\n      add\n      swap1\n      dup2\n      mstore\n      0x20\n      add\n      0x00\n      keccak256\n      0x00\n      swap1\n      sload\n      swap1\n      0x0100\n      exp\n      swap1\n      div\n      0xff\n      and\n        /* \"Evm/core/base/vaultDelegator.sol\":4635:4661  !usedNullifiers[nullifier] */\n      iszero\n        /* \"Evm/core/base/vaultDelegator.sol\":4627:4688  require(!usedNullifiers[nullifier], \"Replay attack detected\") */\n      tag_120\n      jumpi\n      mload(0x40)\n      0x08c379a000000000000000000000000000000000000000000000000000000000\n      dup2\n      mstore\n      0x04\n      add\n      tag_121\n      swap1\n      tag_122\n      jump\t// in\n    tag_121:\n      mload(0x40)\n      dup1\n      swap2\n      sub\n      swap1\n      revert\n    tag_120:\n        /* \"Evm/core/base/vaultDelegator.sol\":4727:4731  true */\n      0x01\n        /* \"Evm/core/base/vaultDelegator.sol\":4699:4713  usedNullifiers */\n      dup1\n        /* \"Evm/core/base/vaultDelegator.sol\":4699:4724  usedNullifiers[nullifier] */\n      0x00\n        /* \"Evm/core/base/vaultDelegator.sol\":4714:4723  nullifier */\n      dup4\n        /* \"Evm/core/base/vaultDelegator.sol\":4699:4724  usedNullifiers[nullifier] */\n      dup2\n      mstore\n      0x20\n      add\n      swap1\n      dup2\n      mstore\n      0x20\n      add\n      0x00\n      keccak256\n      0x00\n        /* \"Evm/core/base/vaultDelegator.sol\":4699:4731  usedNullifiers[nullifier] = true */\n      0x0100\n      exp\n      dup2\n      sload\n      dup2\n      0xff\n      mul\n      not\n      and\n      swap1\n      dup4\n      iszero\n      iszero\n      mul\n      or\n      swap1\n      sstore\n      pop\n        /* \"Evm/core/base/vaultDelegator.sol\":4744:4761  address validator */\n      0x00\n        /* \"Evm/core/base/vaultDelegator.sol\":4764:4788  fieldToAddress(input[5]) */\n      tag_123\n        /* \"Evm/core/base/vaultDelegator.sol\":4779:4784  input */\n      dup7\n        /* \"Evm/core/base/vaultDelegator.sol\":4785:4786  5 */\n      0x05\n        /* \"Evm/core/base/vaultDelegator.sol\":4779:4787  input[5] */\n      0x07\n      dup2\n      lt\n      tag_124\n      jumpi\n      tag_125\n      tag_112\n      jump\t// in\n    tag_125:\n    tag_124:\n      0x20\n      mul\n      add\n      calldataload\n        /* \"Evm/core/base/vaultDelegator.sol\":4764:4778  fieldToAddress */\n      tag_55\n        /* \"Evm/core/base/vaultDelegator.sol\":4764:4788  fieldToAddress(input[5]) */\n      jump\t// in\n    tag_123:\n        /* \"Evm/core/base/vaultDelegator.sol\":4744:4788  address validator = fieldToAddress(input[5]) */\n      swap1\n      pop\n        /* \"Evm/core/base/vaultDelegator.sol\":4827:4845  validatorsRegistry */\n      immutable(\"0x98f4d6eec7613e33b36335f2ce6a27018d9a9f0999ab27807ed26ac6fd46f1a2\")\n        /* \"Evm/core/base/vaultDelegator.sol\":4827:4863  validatorsRegistry.addPendingAddress */\n      0xffffffffffffffffffffffffffffffffffffffff\n      and\n      0x1722e147\n        /* \"Evm/core/base/vaultDelegator.sol\":4864:4873  validator */\n      dup3\n        /* \"Evm/core/base/vaultDelegator.sol\":4827:4874  validatorsRegistry.addPendingAddress(validator) */\n      mload(0x40)\n      dup3\n      0xffffffff\n      and\n      0xe0\n      shl\n      dup2\n      mstore\n      0x04\n      add\n      tag_126\n      swap2\n      swap1\n      tag_43\n      jump\t// in\n    tag_126:\n      0x00\n      mload(0x40)\n      dup1\n      dup4\n      sub\n      dup2\n      0x00\n      dup8\n      dup1\n      extcodesize\n      iszero\n      dup1\n      iszero\n      tag_127\n      jumpi\n      revert(0x00, 0x00)\n    tag_127:\n      pop\n      gas\n      call\n      iszero\n      dup1\n      iszero\n      tag_129\n      jumpi\n      returndatacopy(0x00, 0x00, returndatasize)\n      revert(0x00, returndatasize)\n    tag_129:\n      pop\n      pop\n      pop\n      pop\n        /* \"Evm/core/base/vaultDelegator.sol\":4248:4882  {... */\n      pop\n      pop\n      pop\n        /* \"Evm/core/base/vaultDelegator.sol\":4136:4882  function processZkValidator(uint[8] calldata proof, uint[7] calldata input,bytes calldata _signatures) external {... */\n      pop\n      pop\n      pop\n      pop\n      jump\t// out\n        /* \"Evm/core/base/vaultDelegator.sol\":1995:3164  function processZkWithdraw(uint[8] calldata proof, uint[6] calldata input,  bytes calldata _signatures) external {... */\n    tag_37:\n        /* \"Evm/core/base/vaultDelegator.sol\":2150:2166  balance_verifier */\n      immutable(\"0xb7020dd003fcd4d96af1507ff4dc7e2c1158f23ad0bacfdf3455869cf9fb4898\")\n        /* \"Evm/core/base/vaultDelegator.sol\":2150:2178  balance_verifier.verifyProof */\n      0xffffffffffffffffffffffffffffffffffffffff\n      and\n      0x9cb28658\n        /* \"Evm/core/base/vaultDelegator.sol\":2179:2184  proof */\n      dup6\n        /* \"Evm/core/base/vaultDelegator.sol\":2186:2191  input */\n      dup6\n        /* \"Evm/core/base/vaultDelegator.sol\":2150:2192  balance_verifier.verifyProof(proof, input) */\n      mload(0x40)\n      dup4\n      0xffffffff\n      and\n      0xe0\n      shl\n      dup2\n      mstore\n      0x04\n      add\n      tag_131\n      swap3\n      swap2\n      swap1\n      tag_132\n      jump\t// in\n    tag_131:\n      0x00\n      mload(0x40)\n      dup1\n      dup4\n      sub\n      dup2\n      dup7\n      dup1\n      extcodesize\n      iszero\n      dup1\n      iszero\n      tag_133\n      jumpi\n      revert(0x00, 0x00)\n    tag_133:\n      pop\n      gas\n      staticcall\n      iszero\n      dup1\n      iszero\n      tag_135\n      jumpi\n      returndatacopy(0x00, 0x00, returndatasize)\n      revert(0x00, returndatasize)\n    tag_135:\n      pop\n      pop\n      pop\n      pop\n        /* \"Evm/core/base/vaultDelegator.sol\":2206:2220  uint256 amount */\n      0x00\n        /* \"Evm/core/base/vaultDelegator.sol\":2222:2239  address vaultAddr */\n      0x00\n        /* \"Evm/core/base/vaultDelegator.sol\":2241:2266  string memory storageName */\n      0x00\n        /* \"Evm/core/base/vaultDelegator.sol\":2270:2295  _prepareWithdrawal(input) */\n      tag_136\n        /* \"Evm/core/base/vaultDelegator.sol\":2289:2294  input */\n      dup7\n        /* \"Evm/core/base/vaultDelegator.sol\":2270:2288  _prepareWithdrawal */\n      tag_137\n        /* \"Evm/core/base/vaultDelegator.sol\":2270:2295  _prepareWithdrawal(input) */\n      jump\t// in\n    tag_136:\n        /* \"Evm/core/base/vaultDelegator.sol\":2205:2295  (uint256 amount, address vaultAddr, string memory storageName) = _prepareWithdrawal(input) */\n      swap3\n      pop\n      swap3\n      pop\n      swap3\n      pop\n        /* \"Evm/core/base/vaultDelegator.sol\":2339:2352  uint256 userL */\n      0x00\n        /* \"Evm/core/base/vaultDelegator.sol\":2355:2360  input */\n      dup7\n        /* \"Evm/core/base/vaultDelegator.sol\":2361:2362  2 */\n      0x02\n        /* \"Evm/core/base/vaultDelegator.sol\":2355:2363  input[2] */\n      0x06\n      dup2\n      lt\n      tag_138\n      jumpi\n      tag_139\n      tag_112\n      jump\t// in\n    tag_139:\n    tag_138:\n      0x20\n      mul\n      add\n      calldataload\n        /* \"Evm/core/base/vaultDelegator.sol\":2339:2363  uint256 userL = input[2] */\n      swap1\n      pop\n        /* \"Evm/core/base/vaultDelegator.sol\":2374:2387  uint256 userH */\n      0x00\n        /* \"Evm/core/base/vaultDelegator.sol\":2390:2395  input */\n      dup8\n        /* \"Evm/core/base/vaultDelegator.sol\":2396:2397  3 */\n      0x03\n        /* \"Evm/core/base/vaultDelegator.sol\":2390:2398  input[3] */\n      0x06\n      dup2\n      lt\n      tag_140\n      jumpi\n      tag_141\n      tag_112\n      jump\t// in\n    tag_141:\n    tag_140:\n      0x20\n      mul\n      add\n      calldataload\n        /* \"Evm/core/base/vaultDelegator.sol\":2374:2398  uint256 userH = input[3] */\n      swap1\n      pop\n        /* \"Evm/core/base/vaultDelegator.sol\":2443:2460  uint256 nullifier */\n      0x00\n        /* \"Evm/core/base/vaultDelegator.sol\":2463:2490  _calculateNullifier8(input) */\n      tag_142\n        /* \"Evm/core/base/vaultDelegator.sol\":2484:2489  input */\n      dup10\n        /* \"Evm/core/base/vaultDelegator.sol\":2463:2483  _calculateNullifier8 */\n      tag_143\n        /* \"Evm/core/base/vaultDelegator.sol\":2463:2490  _calculateNullifier8(input) */\n      jump\t// in\n    tag_142:\n        /* \"Evm/core/base/vaultDelegator.sol\":2443:2490  uint256 nullifier = _calculateNullifier8(input) */\n      swap1\n      pop\n        /* \"Evm/core/base/vaultDelegator.sol\":2696:2749  _verifyAllSignatures(bytes32(nullifier), _signatures) */\n      tag_144\n        /* \"Evm/core/base/vaultDelegator.sol\":2725:2734  nullifier */\n      dup2\n        /* \"Evm/core/base/vaultDelegator.sol\":2717:2735  bytes32(nullifier) */\n      0x00\n      shl\n        /* \"Evm/core/base/vaultDelegator.sol\":2737:2748  _signatures */\n      dup10\n      dup10\n        /* \"Evm/core/base/vaultDelegator.sol\":2696:2716  _verifyAllSignatures */\n      tag_119\n        /* \"Evm/core/base/vaultDelegator.sol\":2696:2749  _verifyAllSignatures(bytes32(nullifier), _signatures) */\n      jump\t// in\n    tag_144:\n        /* \"Evm/core/base/vaultDelegator.sol\":2769:2783  usedNullifiers */\n      0x01\n        /* \"Evm/core/base/vaultDelegator.sol\":2769:2794  usedNullifiers[nullifier] */\n      0x00\n        /* \"Evm/core/base/vaultDelegator.sol\":2784:2793  nullifier */\n      dup3\n        /* \"Evm/core/base/vaultDelegator.sol\":2769:2794  usedNullifiers[nullifier] */\n      dup2\n      mstore\n      0x20\n      add\n      swap1\n      dup2\n      mstore\n      0x20\n      add\n      0x00\n      keccak256\n      0x00\n      swap1\n      sload\n      swap1\n      0x0100\n      exp\n      swap1\n      div\n      0xff\n      and\n        /* \"Evm/core/base/vaultDelegator.sol\":2768:2794  !usedNullifiers[nullifier] */\n      iszero\n        /* \"Evm/core/base/vaultDelegator.sol\":2760:2821  require(!usedNullifiers[nullifier], \"Replay attack detected\") */\n      tag_145\n      jumpi\n      mload(0x40)\n      0x08c379a000000000000000000000000000000000000000000000000000000000\n      dup2\n      mstore\n      0x04\n      add\n      tag_146\n      swap1\n      tag_122\n      jump\t// in\n    tag_146:\n      mload(0x40)\n      dup1\n      swap2\n      sub\n      swap1\n      revert\n    tag_145:\n        /* \"Evm/core/base/vaultDelegator.sol\":2860:2864  true */\n      0x01\n        /* \"Evm/core/base/vaultDelegator.sol\":2832:2846  usedNullifiers */\n      dup1\n        /* \"Evm/core/base/vaultDelegator.sol\":2832:2857  usedNullifiers[nullifier] */\n      0x00\n        /* \"Evm/core/base/vaultDelegator.sol\":2847:2856  nullifier */\n      dup4\n        /* \"Evm/core/base/vaultDelegator.sol\":2832:2857  usedNullifiers[nullifier] */\n      dup2\n      mstore\n      0x20\n      add\n      swap1\n      dup2\n      mstore\n      0x20\n      add\n      0x00\n      keccak256\n      0x00\n        /* \"Evm/core/base/vaultDelegator.sol\":2832:2864  usedNullifiers[nullifier] = true */\n      0x0100\n      exp\n      dup2\n      sload\n      dup2\n      0xff\n      mul\n      not\n      and\n      swap1\n      dup4\n      iszero\n      iszero\n      mul\n      or\n      swap1\n      sstore\n      pop\n        /* \"Evm/core/base/vaultDelegator.sol\":2952:2964  address user */\n      0x00\n        /* \"Evm/core/base/vaultDelegator.sol\":3000:3005  userL */\n      dup4\n        /* \"Evm/core/base/vaultDelegator.sol\":2993:2996  128 */\n      0x80\n        /* \"Evm/core/base/vaultDelegator.sol\":2984:2989  userH */\n      dup5\n        /* \"Evm/core/base/vaultDelegator.sol\":2984:2996  userH << 128 */\n      swap1\n      shl\n        /* \"Evm/core/base/vaultDelegator.sol\":2983:3005  (userH << 128) | userL */\n      or\n        /* \"Evm/core/base/vaultDelegator.sol\":2952:3007  address user = address(uint160((userH << 128) | userL)) */\n      swap1\n      pop\n        /* \"Evm/core/base/vaultDelegator.sol\":3093:3102  vaultAddr */\n      dup6\n        /* \"Evm/core/base/vaultDelegator.sol\":3081:3118  IQiaraVault(vaultAddr).directWithdraw */\n      0xffffffffffffffffffffffffffffffffffffffff\n      and\n      0x7a9eceb4\n        /* \"Evm/core/base/vaultDelegator.sol\":3119:3123  user */\n      dup3\n        /* \"Evm/core/base/vaultDelegator.sol\":3125:3136  storageName */\n      dup8\n        /* \"Evm/core/base/vaultDelegator.sol\":3138:3144  amount */\n      dup11\n        /* \"Evm/core/base/vaultDelegator.sol\":3146:3155  nullifier */\n      dup7\n        /* \"Evm/core/base/vaultDelegator.sol\":3081:3156  IQiaraVault(vaultAddr).directWithdraw(user, storageName, amount, nullifier) */\n      mload(0x40)\n      dup6\n      0xffffffff\n      and\n      0xe0\n      shl\n      dup2\n      mstore\n      0x04\n      add\n      tag_147\n      swap5\n      swap4\n      swap3\n      swap2\n      swap1\n      tag_148\n      jump\t// in\n    tag_147:\n      0x00\n      mload(0x40)\n      dup1\n      dup4\n      sub\n      dup2\n      0x00\n      dup8\n      dup1\n      extcodesize\n      iszero\n      dup1\n      iszero\n      tag_149\n      jumpi\n      revert(0x00, 0x00)\n    tag_149:\n      pop\n      gas\n      call\n      iszero\n      dup1\n      iszero\n      tag_151\n      jumpi\n      returndatacopy(0x00, 0x00, returndatasize)\n      revert(0x00, returndatasize)\n    tag_151:\n      pop\n      pop\n      pop\n      pop\n        /* \"Evm/core/base/vaultDelegator.sol\":2108:3164  {... */\n      pop\n      pop\n      pop\n      pop\n      pop\n      pop\n      pop\n        /* \"Evm/core/base/vaultDelegator.sol\":1995:3164  function processZkWithdraw(uint[8] calldata proof, uint[6] calldata input,  bytes calldata _signatures) external {... */\n      pop\n      pop\n      pop\n      pop\n      jump\t// out\n        /* \"Evm/core/base/vaultDelegator.sol\":9920:10472  function deriveAddressFromSplitPubKey(uint256 xLow, uint256 xHigh,uint256 yLow, uint256 yHigh) public pure returns (address) {... */\n    tag_41:\n        /* \"Evm/core/base/vaultDelegator.sol\":10036:10043  address */\n      0x00\n        /* \"Evm/core/base/vaultDelegator.sol\":10135:10144  uint256 x */\n      0x00\n        /* \"Evm/core/base/vaultDelegator.sol\":10164:10168  xLow */\n      dup6\n        /* \"Evm/core/base/vaultDelegator.sol\":10157:10160  128 */\n      0x80\n        /* \"Evm/core/base/vaultDelegator.sol\":10148:10153  xHigh */\n      dup7\n        /* \"Evm/core/base/vaultDelegator.sol\":10148:10160  xHigh << 128 */\n      swap1\n      shl\n        /* \"Evm/core/base/vaultDelegator.sol\":10147:10168  (xHigh << 128) | xLow */\n      or\n        /* \"Evm/core/base/vaultDelegator.sol\":10135:10168  uint256 x = (xHigh << 128) | xLow */\n      swap1\n      pop\n        /* \"Evm/core/base/vaultDelegator.sol\":10179:10188  uint256 y */\n      0x00\n        /* \"Evm/core/base/vaultDelegator.sol\":10208:10212  yLow */\n      dup5\n        /* \"Evm/core/base/vaultDelegator.sol\":10201:10204  128 */\n      0x80\n        /* \"Evm/core/base/vaultDelegator.sol\":10192:10197  yHigh */\n      dup6\n        /* \"Evm/core/base/vaultDelegator.sol\":10192:10204  yHigh << 128 */\n      swap1\n      shl\n        /* \"Evm/core/base/vaultDelegator.sol\":10191:10212  (yHigh << 128) | yLow */\n      or\n        /* \"Evm/core/base/vaultDelegator.sol\":10179:10212  uint256 y = (yHigh << 128) | yLow */\n      swap1\n      pop\n        /* \"Evm/core/base/vaultDelegator.sol\":10455:10456  x */\n      dup2\n        /* \"Evm/core/base/vaultDelegator.sol\":10458:10459  y */\n      dup2\n        /* \"Evm/core/base/vaultDelegator.sol\":10438:10460  abi.encodePacked(x, y) */\n      add(0x20, mload(0x40))\n      tag_153\n      swap3\n      swap2\n      swap1\n      tag_154\n      jump\t// in\n    tag_153:\n      mload(0x40)\n      0x20\n      dup2\n      dup4\n      sub\n      sub\n      dup2\n      mstore\n      swap1\n      0x40\n      mstore\n        /* \"Evm/core/base/vaultDelegator.sol\":10428:10461  keccak256(abi.encodePacked(x, y)) */\n      dup1\n      mload\n      swap1\n      0x20\n      add\n      keccak256\n        /* \"Evm/core/base/vaultDelegator.sol\":10420:10462  uint256(keccak256(abi.encodePacked(x, y))) */\n      0x00\n      shr\n        /* \"Evm/core/base/vaultDelegator.sol\":10397:10464  return address(uint160(uint256(keccak256(abi.encodePacked(x, y))))) */\n      swap3\n      pop\n      pop\n      pop\n        /* \"Evm/core/base/vaultDelegator.sol\":9920:10472  function deriveAddressFromSplitPubKey(uint256 xLow, uint256 xHigh,uint256 yLow, uint256 yHigh) public pure returns (address) {... */\n      swap5\n      swap4\n      pop\n      pop\n      pop\n      pop\n      jump\t// out\n        /* \"Evm/core/base/vaultDelegator.sol\":1150:1202  IVariableVerifier public immutable variable_verifier */\n    tag_45:\n      immutable(\"0x7d94b1fd5befe75fac04677148728067a5c7750c4535d59cf8d692301dae078c\")\n      dup2\n      jump\t// out\n        /* \"@openzeppelin/contracts/access/Ownable.sol\":2293:2394  function renounceOwnership() public virtual onlyOwner {... */\n    tag_49:\n        /* \"@openzeppelin/contracts/access/Ownable.sol\":1531:1544  _checkOwner() */\n      tag_156\n        /* \"@openzeppelin/contracts/access/Ownable.sol\":1531:1542  _checkOwner */\n      tag_157\n        /* \"@openzeppelin/contracts/access/Ownable.sol\":1531:1544  _checkOwner() */\n      jump\t// in\n    tag_156:\n        /* \"@openzeppelin/contracts/access/Ownable.sol\":2357:2387  _transferOwnership(address(0)) */\n      tag_159\n        /* \"@openzeppelin/contracts/access/Ownable.sol\":2384:2385  0 */\n      0x00\n        /* \"@openzeppelin/contracts/access/Ownable.sol\":2357:2375  _transferOwnership */\n      tag_160\n        /* \"@openzeppelin/contracts/access/Ownable.sol\":2357:2387  _transferOwnership(address(0)) */\n      jump\t// in\n    tag_159:\n        /* \"@openzeppelin/contracts/access/Ownable.sol\":2293:2394  function renounceOwnership() public virtual onlyOwner {... */\n      jump\t// out\n        /* \"Evm/core/base/vaultDelegator.sol\":3170:4130  function processZkVariable(uint[8] calldata proof, uint[7] calldata input, bytes calldata _signatures) external {... */\n    tag_52:\n        /* \"Evm/core/base/vaultDelegator.sol\":3323:3340  variable_verifier */\n      immutable(\"0x7d94b1fd5befe75fac04677148728067a5c7750c4535d59cf8d692301dae078c\")\n        /* \"Evm/core/base/vaultDelegator.sol\":3323:3352  variable_verifier.verifyProof */\n      0xffffffffffffffffffffffffffffffffffffffff\n      and\n      0x1042664e\n        /* \"Evm/core/base/vaultDelegator.sol\":3353:3358  proof */\n      dup6\n        /* \"Evm/core/base/vaultDelegator.sol\":3360:3365  input */\n      dup6\n        /* \"Evm/core/base/vaultDelegator.sol\":3323:3366  variable_verifier.verifyProof(proof, input) */\n      mload(0x40)\n      dup4\n      0xffffffff\n      and\n      0xe0\n      shl\n      dup2\n      mstore\n      0x04\n      add\n      tag_162\n      swap3\n      swap2\n      swap1\n      tag_106\n      jump\t// in\n    tag_162:\n      0x00\n      mload(0x40)\n      dup1\n      dup4\n      sub\n      dup2\n      dup7\n      dup1\n      extcodesize\n      iszero\n      dup1\n      iszero\n      tag_163\n      jumpi\n      revert(0x00, 0x00)\n    tag_163:\n      pop\n      gas\n      staticcall\n      iszero\n      dup1\n      iszero\n      tag_165\n      jumpi\n      returndatacopy(0x00, 0x00, returndatasize)\n      revert(0x00, returndatasize)\n    tag_165:\n      pop\n      pop\n      pop\n      pop\n        /* \"Evm/core/base/vaultDelegator.sol\":3379:3394  uint256 chainID */\n      0x00\n        /* \"Evm/core/base/vaultDelegator.sol\":3397:3402  input */\n      dup4\n        /* \"Evm/core/base/vaultDelegator.sol\":3403:3404  5 */\n      0x05\n        /* \"Evm/core/base/vaultDelegator.sol\":3397:3405  input[5] */\n      0x07\n      dup2\n      lt\n      tag_166\n      jumpi\n      tag_167\n      tag_112\n      jump\t// in\n    tag_167:\n    tag_166:\n      0x20\n      mul\n      add\n      calldataload\n        /* \"Evm/core/base/vaultDelegator.sol\":3379:3405  uint256 chainID = input[5] */\n      swap1\n      pop\n        /* \"Evm/core/base/vaultDelegator.sol\":3435:3448  block.chainid */\n      chainid\n        /* \"Evm/core/base/vaultDelegator.sol\":3424:3431  chainID */\n      dup2\n        /* \"Evm/core/base/vaultDelegator.sol\":3424:3448  chainID == block.chainid */\n      eq\n        /* \"Evm/core/base/vaultDelegator.sol\":3416:3476  require(chainID == block.chainid, \"Wrong destination chain\") */\n      tag_168\n      jumpi\n      mload(0x40)\n      0x08c379a000000000000000000000000000000000000000000000000000000000\n      dup2\n      mstore\n      0x04\n      add\n      tag_169\n      swap1\n      tag_115\n      jump\t// in\n    tag_169:\n      mload(0x40)\n      dup1\n      swap2\n      sub\n      swap1\n      revert\n    tag_168:\n        /* \"Evm/core/base/vaultDelegator.sol\":3536:3562  string memory variableName */\n      0x00\n        /* \"Evm/core/base/vaultDelegator.sol\":3565:3588  fieldToString(input[3]) */\n      tag_170\n        /* \"Evm/core/base/vaultDelegator.sol\":3579:3584  input */\n      dup6\n        /* \"Evm/core/base/vaultDelegator.sol\":3585:3586  3 */\n      0x03\n        /* \"Evm/core/base/vaultDelegator.sol\":3579:3587  input[3] */\n      0x07\n      dup2\n      lt\n      tag_171\n      jumpi\n      tag_172\n      tag_112\n      jump\t// in\n    tag_172:\n    tag_171:\n      0x20\n      mul\n      add\n      calldataload\n        /* \"Evm/core/base/vaultDelegator.sol\":3565:3578  fieldToString */\n      tag_80\n        /* \"Evm/core/base/vaultDelegator.sol\":3565:3588  fieldToString(input[3]) */\n      jump\t// in\n    tag_170:\n        /* \"Evm/core/base/vaultDelegator.sol\":3536:3588  string memory variableName = fieldToString(input[3]) */\n      swap1\n      pop\n        /* \"Evm/core/base/vaultDelegator.sol\":3599:3627  string memory variableHeader */\n      0x00\n        /* \"Evm/core/base/vaultDelegator.sol\":3630:3653  fieldToString(input[2]) */\n      tag_173\n        /* \"Evm/core/base/vaultDelegator.sol\":3644:3649  input */\n      dup7\n        /* \"Evm/core/base/vaultDelegator.sol\":3650:3651  2 */\n      0x02\n        /* \"Evm/core/base/vaultDelegator.sol\":3644:3652  input[2] */\n      0x07\n      dup2\n      lt\n      tag_174\n      jumpi\n      tag_175\n      tag_112\n      jump\t// in\n    tag_175:\n    tag_174:\n      0x20\n      mul\n      add\n      calldataload\n        /* \"Evm/core/base/vaultDelegator.sol\":3630:3643  fieldToString */\n      tag_80\n        /* \"Evm/core/base/vaultDelegator.sol\":3630:3653  fieldToString(input[2]) */\n      jump\t// in\n    tag_173:\n        /* \"Evm/core/base/vaultDelegator.sol\":3599:3653  string memory variableHeader = fieldToString(input[2]) */\n      swap1\n      pop\n        /* \"Evm/core/base/vaultDelegator.sol\":3664:3690  bytes memory variableValue */\n      0x00\n        /* \"Evm/core/base/vaultDelegator.sol\":3693:3715  fieldToBytes(input[4]) */\n      tag_176\n        /* \"Evm/core/base/vaultDelegator.sol\":3706:3711  input */\n      dup8\n        /* \"Evm/core/base/vaultDelegator.sol\":3712:3713  4 */\n      0x04\n        /* \"Evm/core/base/vaultDelegator.sol\":3706:3714  input[4] */\n      0x07\n      dup2\n      lt\n      tag_177\n      jumpi\n      tag_178\n      tag_112\n      jump\t// in\n    tag_178:\n    tag_177:\n      0x20\n      mul\n      add\n      calldataload\n        /* \"Evm/core/base/vaultDelegator.sol\":3693:3705  fieldToBytes */\n      tag_27\n        /* \"Evm/core/base/vaultDelegator.sol\":3693:3715  fieldToBytes(input[4]) */\n      jump\t// in\n    tag_176:\n        /* \"Evm/core/base/vaultDelegator.sol\":3664:3715  bytes memory variableValue = fieldToBytes(input[4]) */\n      swap1\n      pop\n        /* \"Evm/core/base/vaultDelegator.sol\":3776:3793  uint256 nullifier */\n      0x00\n        /* \"Evm/core/base/vaultDelegator.sol\":3796:3823  _calculateNullifier7(input) */\n      tag_179\n        /* \"Evm/core/base/vaultDelegator.sol\":3817:3822  input */\n      dup9\n        /* \"Evm/core/base/vaultDelegator.sol\":3796:3816  _calculateNullifier7 */\n      tag_117\n        /* \"Evm/core/base/vaultDelegator.sol\":3796:3823  _calculateNullifier7(input) */\n      jump\t// in\n    tag_179:\n        /* \"Evm/core/base/vaultDelegator.sol\":3776:3823  uint256 nullifier = _calculateNullifier7(input) */\n      swap1\n      pop\n        /* \"Evm/core/base/vaultDelegator.sol\":3834:3887  _verifyAllSignatures(bytes32(nullifier), _signatures) */\n      tag_180\n        /* \"Evm/core/base/vaultDelegator.sol\":3863:3872  nullifier */\n      dup2\n        /* \"Evm/core/base/vaultDelegator.sol\":3855:3873  bytes32(nullifier) */\n      0x00\n      shl\n        /* \"Evm/core/base/vaultDelegator.sol\":3875:3886  _signatures */\n      dup9\n      dup9\n        /* \"Evm/core/base/vaultDelegator.sol\":3834:3854  _verifyAllSignatures */\n      tag_119\n        /* \"Evm/core/base/vaultDelegator.sol\":3834:3887  _verifyAllSignatures(bytes32(nullifier), _signatures) */\n      jump\t// in\n    tag_180:\n        /* \"Evm/core/base/vaultDelegator.sol\":3907:3921  usedNullifiers */\n      0x01\n        /* \"Evm/core/base/vaultDelegator.sol\":3907:3932  usedNullifiers[nullifier] */\n      0x00\n        /* \"Evm/core/base/vaultDelegator.sol\":3922:3931  nullifier */\n      dup3\n        /* \"Evm/core/base/vaultDelegator.sol\":3907:3932  usedNullifiers[nullifier] */\n      dup2\n      mstore\n      0x20\n      add\n      swap1\n      dup2\n      mstore\n      0x20\n      add\n      0x00\n      keccak256\n      0x00\n      swap1\n      sload\n      swap1\n      0x0100\n      exp\n      swap1\n      div\n      0xff\n      and\n        /* \"Evm/core/base/vaultDelegator.sol\":3906:3932  !usedNullifiers[nullifier] */\n      iszero\n        /* \"Evm/core/base/vaultDelegator.sol\":3898:3959  require(!usedNullifiers[nullifier], \"Replay attack detected\") */\n      tag_181\n      jumpi\n      mload(0x40)\n      0x08c379a000000000000000000000000000000000000000000000000000000000\n      dup2\n      mstore\n      0x04\n      add\n      tag_182\n      swap1\n      tag_122\n      jump\t// in\n    tag_182:\n      mload(0x40)\n      dup1\n      swap2\n      sub\n      swap1\n      revert\n    tag_181:\n        /* \"Evm/core/base/vaultDelegator.sol\":3998:4002  true */\n      0x01\n        /* \"Evm/core/base/vaultDelegator.sol\":3970:3984  usedNullifiers */\n      dup1\n        /* \"Evm/core/base/vaultDelegator.sol\":3970:3995  usedNullifiers[nullifier] */\n      0x00\n        /* \"Evm/core/base/vaultDelegator.sol\":3985:3994  nullifier */\n      dup4\n        /* \"Evm/core/base/vaultDelegator.sol\":3970:3995  usedNullifiers[nullifier] */\n      dup2\n      mstore\n      0x20\n      add\n      swap1\n      dup2\n      mstore\n      0x20\n      add\n      0x00\n      keccak256\n      0x00\n        /* \"Evm/core/base/vaultDelegator.sol\":3970:4002  usedNullifiers[nullifier] = true */\n      0x0100\n      exp\n      dup2\n      sload\n      dup2\n      0xff\n      mul\n      not\n      and\n      swap1\n      dup4\n      iszero\n      iszero\n      mul\n      or\n      swap1\n      sstore\n      pop\n        /* \"Evm/core/base/vaultDelegator.sol\":4041:4058  variablesRegistry */\n      immutable(\"0x980c46aeb242fb2816eec3c43a568cdc6adda404b46e62cce4e3fe7d929881e3\")\n        /* \"Evm/core/base/vaultDelegator.sol\":4041:4077  variablesRegistry.addPendingVariable */\n      0xffffffffffffffffffffffffffffffffffffffff\n      and\n      0x2e057b9b\n        /* \"Evm/core/base/vaultDelegator.sol\":4078:4092  variableHeader */\n      dup5\n        /* \"Evm/core/base/vaultDelegator.sol\":4094:4106  variableName */\n      dup7\n        /* \"Evm/core/base/vaultDelegator.sol\":4108:4121  variableValue */\n      dup6\n        /* \"Evm/core/base/vaultDelegator.sol\":4041:4122  variablesRegistry.addPendingVariable(variableHeader, variableName, variableValue) */\n      mload(0x40)\n      dup5\n      0xffffffff\n      and\n      0xe0\n      shl\n      dup2\n      mstore\n      0x04\n      add\n      tag_183\n      swap4\n      swap3\n      swap2\n      swap1\n      tag_184\n      jump\t// in\n    tag_183:\n      0x00\n      mload(0x40)\n      dup1\n      dup4\n      sub\n      dup2\n      0x00\n      dup8\n      dup1\n      extcodesize\n      iszero\n      dup1\n      iszero\n      tag_185\n      jumpi\n      revert(0x00, 0x00)\n    tag_185:\n      pop\n      gas\n      call\n      iszero\n      dup1\n      iszero\n      tag_187\n      jumpi\n      returndatacopy(0x00, 0x00, returndatasize)\n      revert(0x00, returndatasize)\n    tag_187:\n      pop\n      pop\n      pop\n      pop\n        /* \"Evm/core/base/vaultDelegator.sol\":3282:4130  {... */\n      pop\n      pop\n      pop\n      pop\n      pop\n        /* \"Evm/core/base/vaultDelegator.sol\":3170:4130  function processZkVariable(uint[8] calldata proof, uint[7] calldata input, bytes calldata _signatures) external {... */\n      pop\n      pop\n      pop\n      pop\n      jump\t// out\n        /* \"Evm/core/base/vaultDelegator.sol\":9661:9781  function fieldToAddress(uint256 _field) public pure returns (address) {... */\n    tag_55:\n        /* \"Evm/core/base/vaultDelegator.sol\":9722:9729  address */\n      0x00\n        /* \"Evm/core/base/vaultDelegator.sol\":9765:9771  _field */\n      dup2\n        /* \"Evm/core/base/vaultDelegator.sol\":9742:9773  return address(uint160(_field)) */\n      swap1\n      pop\n        /* \"Evm/core/base/vaultDelegator.sol\":9661:9781  function fieldToAddress(uint256 _field) public pure returns (address) {... */\n      swap2\n      swap1\n      pop\n      jump\t// out\n        /* \"@openzeppelin/contracts/access/Ownable.sol\":1638:1723  function owner() public view virtual returns (address) {... */\n    tag_58:\n        /* \"@openzeppelin/contracts/access/Ownable.sol\":1684:1691  address */\n      0x00\n        /* \"@openzeppelin/contracts/access/Ownable.sol\":1710:1716  _owner */\n      0x00\n      0x00\n      swap1\n      sload\n      swap1\n      0x0100\n      exp\n      swap1\n      div\n      0xffffffffffffffffffffffffffffffffffffffff\n      and\n        /* \"@openzeppelin/contracts/access/Ownable.sol\":1703:1716  return _owner */\n      swap1\n      pop\n        /* \"@openzeppelin/contracts/access/Ownable.sol\":1638:1723  function owner() public view virtual returns (address) {... */\n      swap1\n      jump\t// out\n        /* \"Evm/core/base/vaultDelegator.sol\":10674:11252  function recoverSigner(bytes32 _ethSignedMessageHash, bytes memory _signature)public pure returns (address){... */\n    tag_63:\n        /* \"Evm/core/base/vaultDelegator.sol\":10773:10780  address */\n      0x00\n        /* \"Evm/core/base/vaultDelegator.sol\":10821:10823  65 */\n      0x41\n        /* \"Evm/core/base/vaultDelegator.sol\":10800:10810  _signature */\n      dup3\n        /* \"Evm/core/base/vaultDelegator.sol\":10800:10817  _signature.length */\n      mload\n        /* \"Evm/core/base/vaultDelegator.sol\":10800:10823  _signature.length == 65 */\n      eq\n        /* \"Evm/core/base/vaultDelegator.sol\":10792:10852  require(_signature.length == 65, \"Invalid signature length\") */\n      tag_191\n      jumpi\n      mload(0x40)\n      0x08c379a000000000000000000000000000000000000000000000000000000000\n      dup2\n      mstore\n      0x04\n      add\n      tag_192\n      swap1\n      tag_193\n      jump\t// in\n    tag_192:\n      mload(0x40)\n      dup1\n      swap2\n      sub\n      swap1\n      revert\n    tag_191:\n        /* \"Evm/core/base/vaultDelegator.sol\":10865:10874  bytes32 r */\n      0x00\n        /* \"Evm/core/base/vaultDelegator.sol\":10885:10894  bytes32 s */\n      0x00\n        /* \"Evm/core/base/vaultDelegator.sol\":10905:10912  uint8 v */\n      0x00\n        /* \"Evm/core/base/vaultDelegator.sol\":11026:11028  32 */\n      0x20\n        /* \"Evm/core/base/vaultDelegator.sol\":11014:11024  _signature */\n      dup6\n        /* \"Evm/core/base/vaultDelegator.sol\":11010:11029  add(_signature, 32) */\n      add\n        /* \"Evm/core/base/vaultDelegator.sol\":11004:11030  mload(add(_signature, 32)) */\n      mload\n        /* \"Evm/core/base/vaultDelegator.sol\":10999:11030  r := mload(add(_signature, 32)) */\n      swap3\n      pop\n        /* \"Evm/core/base/vaultDelegator.sol\":11071:11073  64 */\n      0x40\n        /* \"Evm/core/base/vaultDelegator.sol\":11059:11069  _signature */\n      dup6\n        /* \"Evm/core/base/vaultDelegator.sol\":11055:11074  add(_signature, 64) */\n      add\n        /* \"Evm/core/base/vaultDelegator.sol\":11049:11075  mload(add(_signature, 64)) */\n      mload\n        /* \"Evm/core/base/vaultDelegator.sol\":11044:11075  s := mload(add(_signature, 64)) */\n      swap2\n      pop\n        /* \"Evm/core/base/vaultDelegator.sol\":11124:11126  96 */\n      0x60\n        /* \"Evm/core/base/vaultDelegator.sol\":11112:11122  _signature */\n      dup6\n        /* \"Evm/core/base/vaultDelegator.sol\":11108:11127  add(_signature, 96) */\n      add\n        /* \"Evm/core/base/vaultDelegator.sol\":11102:11128  mload(add(_signature, 96)) */\n      mload\n        /* \"Evm/core/base/vaultDelegator.sol\":11099:11100  0 */\n      0x00\n        /* \"Evm/core/base/vaultDelegator.sol\":11094:11129  byte(0, mload(add(_signature, 96))) */\n      byte\n        /* \"Evm/core/base/vaultDelegator.sol\":11089:11129  v := byte(0, mload(add(_signature, 96))) */\n      swap1\n      pop\n        /* \"Evm/core/base/vaultDelegator.sol\":11203:11244  ecrecover(_ethSignedMessageHash, v, r, s) */\n      0x01\n        /* \"Evm/core/base/vaultDelegator.sol\":11213:11234  _ethSignedMessageHash */\n      dup7\n        /* \"Evm/core/base/vaultDelegator.sol\":11236:11237  v */\n      dup3\n        /* \"Evm/core/base/vaultDelegator.sol\":11239:11240  r */\n      dup6\n        /* \"Evm/core/base/vaultDelegator.sol\":11242:11243  s */\n      dup6\n        /* \"Evm/core/base/vaultDelegator.sol\":11203:11244  ecrecover(_ethSignedMessageHash, v, r, s) */\n      mload(0x40)\n      0x00\n      dup2\n      mstore\n      0x20\n      add\n      0x40\n      mstore\n      mload(0x40)\n      tag_194\n      swap5\n      swap4\n      swap3\n      swap2\n      swap1\n      tag_195\n      jump\t// in\n    tag_194:\n      0x20\n      mload(0x40)\n      0x20\n      dup2\n      sub\n      swap1\n      dup1\n      dup5\n      sub\n      swap1\n      dup6\n      gas\n      staticcall\n      iszero\n      dup1\n      iszero\n      tag_197\n      jumpi\n      returndatacopy(0x00, 0x00, returndatasize)\n      revert(0x00, returndatasize)\n    tag_197:\n      pop\n      pop\n      pop\n      mload(sub(mload(0x40), 0x20))\n        /* \"Evm/core/base/vaultDelegator.sol\":11196:11244  return ecrecover(_ethSignedMessageHash, v, r, s) */\n      swap4\n      pop\n      pop\n      pop\n      pop\n        /* \"Evm/core/base/vaultDelegator.sol\":10674:11252  function recoverSigner(bytes32 _ethSignedMessageHash, bytes memory _signature)public pure returns (address){... */\n      swap3\n      swap2\n      pop\n      pop\n      jump\t// out\n        /* \"Evm/core/base/vaultDelegator.sol\":1424:1470  mapping(uint256 => bool) public usedNullifiers */\n    tag_67:\n      mstore(0x20, 0x01)\n      dup1\n      0x00\n      mstore\n      keccak256(0x00, 0x40)\n      0x00\n      swap2\n      pop\n      sload\n      swap1\n      0x0100\n      exp\n      swap1\n      div\n      0xff\n      and\n      dup2\n      jump\t// out\n        /* \"Evm/core/base/vaultDelegator.sol\":1322:1369  IValidators public immutable validatorsRegistry */\n    tag_71:\n      immutable(\"0x98f4d6eec7613e33b36335f2ce6a27018d9a9f0999ab27807ed26ac6fd46f1a2\")\n      dup2\n      jump\t// out\n        /* \"Evm/core/base/vaultDelegator.sol\":1209:1263  IValidatorVerifier public immutable validator_verifier */\n    tag_75:\n      immutable(\"0x7d2d5796d747fbd89dfac5294d9ace4e9994102d54e76e822233a2e75d4144b1\")\n      dup2\n      jump\t// out\n        /* \"Evm/core/base/vaultDelegator.sol\":8778:9655  function fieldToString(uint256 _field) public pure returns (string memory) {... */\n    tag_80:\n        /* \"Evm/core/base/vaultDelegator.sol\":8838:8851  string memory */\n      0x60\n        /* \"Evm/core/base/vaultDelegator.sol\":8878:8879  0 */\n      0x00\n        /* \"Evm/core/base/vaultDelegator.sol\":8868:8874  _field */\n      dup3\n        /* \"Evm/core/base/vaultDelegator.sol\":8868:8879  _field == 0 */\n      sub\n        /* \"Evm/core/base/vaultDelegator.sol\":8864:8890  if (_field == 0) return \"\" */\n      tag_199\n      jumpi\n        /* \"Evm/core/base/vaultDelegator.sol\":8881:8890  return \"\" */\n      mload(0x40)\n      dup1\n      0x20\n      add\n      0x40\n      mstore\n      dup1\n      0x00\n      dup2\n      mstore\n      pop\n      swap1\n      pop\n      jump(tag_198)\n        /* \"Evm/core/base/vaultDelegator.sol\":8864:8890  if (_field == 0) return \"\" */\n    tag_199:\n        /* \"Evm/core/base/vaultDelegator.sol\":8966:8977  bytes32 b32 */\n      0x00\n        /* \"Evm/core/base/vaultDelegator.sol\":8988:8994  _field */\n      dup3\n        /* \"Evm/core/base/vaultDelegator.sol\":8980:8995  bytes32(_field) */\n      0x00\n      shl\n        /* \"Evm/core/base/vaultDelegator.sol\":8966:8995  bytes32 b32 = bytes32(_field) */\n      swap1\n      pop\n        /* \"Evm/core/base/vaultDelegator.sol\":9087:9098  uint8 start */\n      0x00\n        /* \"Evm/core/base/vaultDelegator.sol\":9101:9102  0 */\n      0x00\n        /* \"Evm/core/base/vaultDelegator.sol\":9087:9102  uint8 start = 0 */\n      swap1\n      pop\n        /* \"Evm/core/base/vaultDelegator.sol\":9113:9185  while (start < 32 && b32[start] == 0) {... */\n    tag_200:\n        /* \"Evm/core/base/vaultDelegator.sol\":9128:9130  32 */\n      0x20\n        /* \"Evm/core/base/vaultDelegator.sol\":9120:9125  start */\n      dup2\n        /* \"Evm/core/base/vaultDelegator.sol\":9120:9130  start < 32 */\n      0xff\n      and\n      lt\n        /* \"Evm/core/base/vaultDelegator.sol\":9120:9149  start < 32 && b32[start] == 0 */\n      dup1\n      iszero\n      tag_202\n      jumpi\n      pop\n        /* \"Evm/core/base/vaultDelegator.sol\":9148:9149  0 */\n      0x00\n        /* \"Evm/core/base/vaultDelegator.sol\":9134:9149  b32[start] == 0 */\n      0xf8\n      shl\n        /* \"Evm/core/base/vaultDelegator.sol\":9134:9137  b32 */\n      dup3\n        /* \"Evm/core/base/vaultDelegator.sol\":9138:9143  start */\n      dup3\n        /* \"Evm/core/base/vaultDelegator.sol\":9134:9144  b32[start] */\n      0xff\n      and\n      0x20\n      dup2\n      lt\n      tag_203\n      jumpi\n      tag_204\n      tag_112\n      jump\t// in\n    tag_204:\n    tag_203:\n      byte\n      0xf8\n      shl\n        /* \"Evm/core/base/vaultDelegator.sol\":9134:9149  b32[start] == 0 */\n      not(0xffffffffffffffffffffffffffffffffffffffffffffffffffffffffffffff)\n      and\n      eq\n        /* \"Evm/core/base/vaultDelegator.sol\":9120:9149  start < 32 && b32[start] == 0 */\n    tag_202:\n        /* \"Evm/core/base/vaultDelegator.sol\":9113:9185  while (start < 32 && b32[start] == 0) {... */\n      iszero\n      tag_201\n      jumpi\n        /* \"Evm/core/base/vaultDelegator.sol\":9166:9173  start++ */\n      dup1\n      dup1\n      tag_205\n      swap1\n      tag_206\n      jump\t// in\n    tag_205:\n      swap2\n      pop\n      pop\n        /* \"Evm/core/base/vaultDelegator.sol\":9113:9185  while (start < 32 && b32[start] == 0) {... */\n      jump(tag_200)\n    tag_201:\n        /* \"Evm/core/base/vaultDelegator.sol\":9332:9341  uint8 end */\n      0x00\n        /* \"Evm/core/base/vaultDelegator.sol\":9344:9346  31 */\n      0x1f\n        /* \"Evm/core/base/vaultDelegator.sol\":9332:9346  uint8 end = 31 */\n      swap1\n      pop\n        /* \"Evm/core/base/vaultDelegator.sol\":9357:9426  while (end > start && b32[end] == 0) {... */\n    tag_207:\n        /* \"Evm/core/base/vaultDelegator.sol\":9370:9375  start */\n      dup2\n        /* \"Evm/core/base/vaultDelegator.sol\":9364:9375  end > start */\n      0xff\n      and\n        /* \"Evm/core/base/vaultDelegator.sol\":9364:9367  end */\n      dup2\n        /* \"Evm/core/base/vaultDelegator.sol\":9364:9375  end > start */\n      0xff\n      and\n      gt\n        /* \"Evm/core/base/vaultDelegator.sol\":9364:9392  end > start && b32[end] == 0 */\n      dup1\n      iszero\n      tag_209\n      jumpi\n      pop\n        /* \"Evm/core/base/vaultDelegator.sol\":9391:9392  0 */\n      0x00\n        /* \"Evm/core/base/vaultDelegator.sol\":9379:9392  b32[end] == 0 */\n      0xf8\n      shl\n        /* \"Evm/core/base/vaultDelegator.sol\":9379:9382  b32 */\n      dup4\n        /* \"Evm/core/base/vaultDelegator.sol\":9383:9386  end */\n      dup3\n        /* \"Evm/core/base/vaultDelegator.sol\":9379:9387  b32[end] */\n      0xff\n      and\n      0x20\n      dup2\n      lt\n      tag_210\n      jumpi\n      tag_211\n      tag_112\n      jump\t// in\n    tag_211:\n    tag_210:\n      byte\n      0xf8\n      shl\n        /* \"Evm/core/base/vaultDelegator.sol\":9379:9392  b32[end] == 0 */\n      not(0xffffffffffffffffffffffffffffffffffffffffffffffffffffffffffffff)\n      and\n      eq\n        /* \"Evm/core/base/vaultDelegator.sol\":9364:9392  end > start && b32[end] == 0 */\n    tag_209:\n        /* \"Evm/core/base/vaultDelegator.sol\":9357:9426  while (end > start && b32[end] == 0) {... */\n      iszero\n      tag_208\n      jumpi\n        /* \"Evm/core/base/vaultDelegator.sol\":9409:9414  end-- */\n      dup1\n      dup1\n      tag_212\n      swap1\n      tag_213\n      jump\t// in\n    tag_212:\n      swap2\n      pop\n      pop\n        /* \"Evm/core/base/vaultDelegator.sol\":9357:9426  while (end > start && b32[end] == 0) {... */\n      jump(tag_207)\n    tag_208:\n        /* \"Evm/core/base/vaultDelegator.sol\":9438:9447  uint8 len */\n      0x00\n        /* \"Evm/core/base/vaultDelegator.sol\":9466:9467  1 */\n      0x01\n        /* \"Evm/core/base/vaultDelegator.sol\":9457:9462  start */\n      dup4\n        /* \"Evm/core/base/vaultDelegator.sol\":9451:9454  end */\n      dup4\n        /* \"Evm/core/base/vaultDelegator.sol\":9451:9462  end - start */\n      tag_214\n      swap2\n      swap1\n      tag_215\n      jump\t// in\n    tag_214:\n        /* \"Evm/core/base/vaultDelegator.sol\":9450:9467  (end - start) + 1 */\n      tag_216\n      swap2\n      swap1\n      tag_217\n      jump\t// in\n    tag_216:\n        /* \"Evm/core/base/vaultDelegator.sol\":9438:9467  uint8 len = (end - start) + 1 */\n      swap1\n      pop\n        /* \"Evm/core/base/vaultDelegator.sol\":9478:9497  bytes memory result */\n      0x00\n        /* \"Evm/core/base/vaultDelegator.sol\":9510:9513  len */\n      dup2\n        /* \"Evm/core/base/vaultDelegator.sol\":9500:9514  new bytes(len) */\n      0xff\n      and\n      0xffffffffffffffff\n      dup2\n      gt\n      iszero\n      tag_218\n      jumpi\n      tag_219\n      tag_220\n      jump\t// in\n    tag_219:\n    tag_218:\n      mload(0x40)\n      swap1\n      dup1\n      dup3\n      mstore\n      dup1\n      0x1f\n      add\n      not(0x1f)\n      and\n      0x20\n      add\n      dup3\n      add\n      0x40\n      mstore\n      dup1\n      iszero\n      tag_221\n      jumpi\n      dup2\n      0x20\n      add\n      0x01\n      dup3\n      mul\n      dup1\n      calldatasize\n      dup4\n      calldatacopy\n      dup1\n      dup3\n      add\n      swap2\n      pop\n      pop\n      swap1\n      pop\n    tag_221:\n      pop\n        /* \"Evm/core/base/vaultDelegator.sol\":9478:9514  bytes memory result = new bytes(len) */\n      swap1\n      pop\n        /* \"Evm/core/base/vaultDelegator.sol\":9532:9541  uint256 i */\n      0x00\n        /* \"Evm/core/base/vaultDelegator.sol\":9544:9545  0 */\n      0x00\n        /* \"Evm/core/base/vaultDelegator.sol\":9532:9545  uint256 i = 0 */\n      swap1\n      pop\n        /* \"Evm/core/base/vaultDelegator.sol\":9527:9614  for (uint256 i = 0; i < len; i++) {... */\n    tag_222:\n        /* \"Evm/core/base/vaultDelegator.sol\":9551:9554  len */\n      dup3\n        /* \"Evm/core/base/vaultDelegator.sol\":9547:9554  i < len */\n      0xff\n      and\n        /* \"Evm/core/base/vaultDelegator.sol\":9547:9548  i */\n      dup2\n        /* \"Evm/core/base/vaultDelegator.sol\":9547:9554  i < len */\n      lt\n        /* \"Evm/core/base/vaultDelegator.sol\":9527:9614  for (uint256 i = 0; i < len; i++) {... */\n      iszero\n      tag_223\n      jumpi\n        /* \"Evm/core/base/vaultDelegator.sol\":9588:9591  b32 */\n      dup6\n        /* \"Evm/core/base/vaultDelegator.sol\":9600:9601  i */\n      dup2\n        /* \"Evm/core/base/vaultDelegator.sol\":9592:9597  start */\n      dup7\n        /* \"Evm/core/base/vaultDelegator.sol\":9592:9601  start + i */\n      0xff\n      and\n      tag_225\n      swap2\n      swap1\n      tag_226\n      jump\t// in\n    tag_225:\n        /* \"Evm/core/base/vaultDelegator.sol\":9588:9602  b32[start + i] */\n      0x20\n      dup2\n      lt\n      tag_227\n      jumpi\n      tag_228\n      tag_112\n      jump\t// in\n    tag_228:\n    tag_227:\n      byte\n      0xf8\n      shl\n        /* \"Evm/core/base/vaultDelegator.sol\":9576:9582  result */\n      dup3\n        /* \"Evm/core/base/vaultDelegator.sol\":9583:9584  i */\n      dup3\n        /* \"Evm/core/base/vaultDelegator.sol\":9576:9585  result[i] */\n      dup2\n      mload\n      dup2\n      lt\n      tag_229\n      jumpi\n      tag_230\n      tag_112\n      jump\t// in\n    tag_230:\n    tag_229:\n      0x20\n      add\n      add\n        /* \"Evm/core/base/vaultDelegator.sol\":9576:9602  result[i] = b32[start + i] */\n      swap1\n      not(0xffffffffffffffffffffffffffffffffffffffffffffffffffffffffffffff)\n      and\n      swap1\n      dup2\n      0x00\n      byte\n      swap1\n      mstore8\n      pop\n        /* \"Evm/core/base/vaultDelegator.sol\":9556:9559  i++ */\n      dup1\n      dup1\n      0x01\n      add\n      swap2\n      pop\n      pop\n        /* \"Evm/core/base/vaultDelegator.sol\":9527:9614  for (uint256 i = 0; i < len; i++) {... */\n      jump(tag_222)\n    tag_223:\n      pop\n        /* \"Evm/core/base/vaultDelegator.sol\":9640:9646  result */\n      dup1\n        /* \"Evm/core/base/vaultDelegator.sol\":9626:9647  return string(result) */\n      swap6\n      pop\n      pop\n      pop\n      pop\n      pop\n      pop\n        /* \"Evm/core/base/vaultDelegator.sol\":8778:9655  function fieldToString(uint256 _field) public pure returns (string memory) {... */\n    tag_198:\n      swap2\n      swap1\n      pop\n      jump\t// out\n        /* \"Evm/core/base/vaultDelegator.sol\":1270:1315  IVariables public immutable variablesRegistry */\n    tag_84:\n      immutable(\"0x980c46aeb242fb2816eec3c43a568cdc6adda404b46e62cce4e3fe7d929881e3\")\n      dup2\n      jump\t// out\n        /* \"@openzeppelin/contracts/access/Ownable.sol\":2543:2758  function transferOwnership(address newOwner) public virtual onlyOwner {... */\n    tag_90:\n        /* \"@openzeppelin/contracts/access/Ownable.sol\":1531:1544  _checkOwner() */\n      tag_232\n        /* \"@openzeppelin/contracts/access/Ownable.sol\":1531:1542  _checkOwner */\n      tag_157\n        /* \"@openzeppelin/contracts/access/Ownable.sol\":1531:1544  _checkOwner() */\n      jump\t// in\n    tag_232:\n        /* \"@openzeppelin/contracts/access/Ownable.sol\":2647:2648  0 */\n      0x00\n        /* \"@openzeppelin/contracts/access/Ownable.sol\":2627:2649  newOwner == address(0) */\n      0xffffffffffffffffffffffffffffffffffffffff\n      and\n        /* \"@openzeppelin/contracts/access/Ownable.sol\":2627:2635  newOwner */\n      dup2\n        /* \"@openzeppelin/contracts/access/Ownable.sol\":2627:2649  newOwner == address(0) */\n      0xffffffffffffffffffffffffffffffffffffffff\n      and\n      sub\n        /* \"@openzeppelin/contracts/access/Ownable.sol\":2623:2714  if (newOwner == address(0)) {... */\n      tag_234\n      jumpi\n        /* \"@openzeppelin/contracts/access/Ownable.sol\":2700:2701  0 */\n      0x00\n        /* \"@openzeppelin/contracts/access/Ownable.sol\":2672:2703  OwnableInvalidOwner(address(0)) */\n      mload(0x40)\n      0x1e4fbdf700000000000000000000000000000000000000000000000000000000\n      dup2\n      mstore\n      0x04\n      add\n      tag_235\n      swap2\n      swap1\n      tag_43\n      jump\t// in\n    tag_235:\n      mload(0x40)\n      dup1\n      swap2\n      sub\n      swap1\n      revert\n        /* \"@openzeppelin/contracts/access/Ownable.sol\":2623:2714  if (newOwner == address(0)) {... */\n    tag_234:\n        /* \"@openzeppelin/contracts/access/Ownable.sol\":2723:2751  _transferOwnership(newOwner) */\n      tag_236\n        /* \"@openzeppelin/contracts/access/Ownable.sol\":2742:2750  newOwner */\n      dup2\n        /* \"@openzeppelin/contracts/access/Ownable.sol\":2723:2741  _transferOwnership */\n      tag_160\n        /* \"@openzeppelin/contracts/access/Ownable.sol\":2723:2751  _transferOwnership(newOwner) */\n      jump\t// in\n    tag_236:\n        /* \"@openzeppelin/contracts/access/Ownable.sol\":2543:2758  function transferOwnership(address newOwner) public virtual onlyOwner {... */\n      pop\n      jump\t// out\n        /* \"Evm/core/base/vaultDelegator.sol\":1093:1143  IBalanceVerifier public immutable balance_verifier */\n    tag_92:\n      immutable(\"0xb7020dd003fcd4d96af1507ff4dc7e2c1158f23ad0bacfdf3455869cf9fb4898\")\n      dup2\n      jump\t// out\n        /* \"Evm/core/base/vaultDelegator.sol\":10480:10668  function getEthSignedMessageHash(bytes32 _messageHash) public pure returns (bytes32) {... */\n    tag_98:\n        /* \"Evm/core/base/vaultDelegator.sol\":10556:10563  bytes32 */\n      0x00\n        /* \"Evm/core/base/vaultDelegator.sol\":10646:10658  _messageHash */\n      dup2\n        /* \"Evm/core/base/vaultDelegator.sol\":10593:10659  abi.encodePacked(\"\\x19Ethereum Signed Message:\\n32\", _messageHash) */\n      add(0x20, mload(0x40))\n      tag_238\n      swap2\n      swap1\n      tag_239\n      jump\t// in\n    tag_238:\n      mload(0x40)\n      0x20\n      dup2\n      dup4\n      sub\n      sub\n      dup2\n      mstore\n      swap1\n      0x40\n      mstore\n        /* \"Evm/core/base/vaultDelegator.sol\":10583:10660  keccak256(abi.encodePacked(\"\\x19Ethereum Signed Message:\\n32\", _messageHash)) */\n      dup1\n      mload\n      swap1\n      0x20\n      add\n      keccak256\n        /* \"Evm/core/base/vaultDelegator.sol\":10576:10660  return keccak256(abi.encodePacked(\"\\x19Ethereum Signed Message:\\n32\", _messageHash)) */\n      swap1\n      pop\n        /* \"Evm/core/base/vaultDelegator.sol\":10480:10668  function getEthSignedMessageHash(bytes32 _messageHash) public pure returns (bytes32) {... */\n      swap2\n      swap1\n      pop\n      jump\t// out\n        /* \"Evm/core/base/vaultDelegator.sol\":5793:6354  function _calculateNullifier7(uint256[7] calldata input) internal pure returns (uint256) {... */\n    tag_117:\n        /* \"Evm/core/base/vaultDelegator.sol\":5873:5880  uint256 */\n      0x00\n        /* \"Evm/core/base/vaultDelegator.sol\":6066:6078  bytes32 hash */\n      0x00\n        /* \"Evm/core/base/vaultDelegator.sol\":6122:6127  input */\n      dup3\n        /* \"Evm/core/base/vaultDelegator.sol\":6128:6129  0 */\n      0x00\n        /* \"Evm/core/base/vaultDelegator.sol\":6122:6130  input[0] */\n      0x07\n      dup2\n      lt\n      tag_241\n      jumpi\n      tag_242\n      tag_112\n      jump\t// in\n    tag_242:\n    tag_241:\n      0x20\n      mul\n      add\n      calldataload\n        /* \"Evm/core/base/vaultDelegator.sol\":6145:6150  input */\n      dup4\n        /* \"Evm/core/base/vaultDelegator.sol\":6151:6152  1 */\n      0x01\n        /* \"Evm/core/base/vaultDelegator.sol\":6145:6153  input[1] */\n      0x07\n      dup2\n      lt\n      tag_243\n      jumpi\n      tag_244\n      tag_112\n      jump\t// in\n    tag_244:\n    tag_243:\n      0x20\n      mul\n      add\n      calldataload\n        /* \"Evm/core/base/vaultDelegator.sol\":6168:6173  input */\n      dup5\n        /* \"Evm/core/base/vaultDelegator.sol\":6174:6175  2 */\n      0x02\n        /* \"Evm/core/base/vaultDelegator.sol\":6168:6176  input[2] */\n      0x07\n      dup2\n      lt\n      tag_245\n      jumpi\n      tag_246\n      tag_112\n      jump\t// in\n    tag_246:\n    tag_245:\n      0x20\n      mul\n      add\n      calldataload\n        /* \"Evm/core/base/vaultDelegator.sol\":6191:6196  input */\n      dup6\n        /* \"Evm/core/base/vaultDelegator.sol\":6197:6198  3 */\n      0x03\n        /* \"Evm/core/base/vaultDelegator.sol\":6191:6199  input[3] */\n      0x07\n      dup2\n      lt\n      tag_247\n      jumpi\n      tag_248\n      tag_112\n      jump\t// in\n    tag_248:\n    tag_247:\n      0x20\n      mul\n      add\n      calldataload\n        /* \"Evm/core/base/vaultDelegator.sol\":6214:6219  input */\n      dup7\n        /* \"Evm/core/base/vaultDelegator.sol\":6220:6221  4 */\n      0x04\n        /* \"Evm/core/base/vaultDelegator.sol\":6214:6222  input[4] */\n      0x07\n      dup2\n      lt\n      tag_249\n      jumpi\n      tag_250\n      tag_112\n      jump\t// in\n    tag_250:\n    tag_249:\n      0x20\n      mul\n      add\n      calldataload\n        /* \"Evm/core/base/vaultDelegator.sol\":6237:6242  input */\n      dup8\n        /* \"Evm/core/base/vaultDelegator.sol\":6243:6244  5 */\n      0x05\n        /* \"Evm/core/base/vaultDelegator.sol\":6237:6245  input[5] */\n      0x07\n      dup2\n      lt\n      tag_251\n      jumpi\n      tag_252\n      tag_112\n      jump\t// in\n    tag_252:\n    tag_251:\n      0x20\n      mul\n      add\n      calldataload\n        /* \"Evm/core/base/vaultDelegator.sol\":6260:6265  input */\n      dup9\n        /* \"Evm/core/base/vaultDelegator.sol\":6266:6267  6 */\n      0x06\n        /* \"Evm/core/base/vaultDelegator.sol\":6260:6268  input[6] */\n      0x07\n      dup2\n      lt\n      tag_253\n      jumpi\n      tag_254\n      tag_112\n      jump\t// in\n    tag_254:\n    tag_253:\n      0x20\n      mul\n      add\n      calldataload\n        /* \"Evm/core/base/vaultDelegator.sol\":6091:6312  abi.encodePacked(... */\n      add(0x20, mload(0x40))\n      tag_255\n      swap8\n      swap7\n      swap6\n      swap5\n      swap4\n      swap3\n      swap2\n      swap1\n      tag_256\n      jump\t// in\n    tag_255:\n      mload(0x40)\n      0x20\n      dup2\n      dup4\n      sub\n      sub\n      dup2\n      mstore\n      swap1\n      0x40\n      mstore\n        /* \"Evm/core/base/vaultDelegator.sol\":6081:6313  keccak256(abi.encodePacked(... */\n      dup1\n      mload\n      swap1\n      0x20\n      add\n      keccak256\n        /* \"Evm/core/base/vaultDelegator.sol\":6066:6313  bytes32 hash = keccak256(abi.encodePacked(... */\n      swap1\n      pop\n        /* \"Evm/core/base/vaultDelegator.sol\":6341:6345  hash */\n      dup1\n        /* \"Evm/core/base/vaultDelegator.sol\":6333:6346  uint256(hash) */\n      0x00\n      shr\n        /* \"Evm/core/base/vaultDelegator.sol\":6326:6346  return uint256(hash) */\n      swap2\n      pop\n      pop\n        /* \"Evm/core/base/vaultDelegator.sol\":5793:6354  function _calculateNullifier7(uint256[7] calldata input) internal pure returns (uint256) {... */\n      swap2\n      swap1\n      pop\n      jump\t// out\n        /* \"Evm/core/base/vaultDelegator.sol\":7688:8770  function _verifyAllSignatures(bytes32 _messageHash, bytes calldata _signatures) internal view {... */\n    tag_119:\n        /* \"Evm/core/base/vaultDelegator.sol\":7793:7808  bytes32 ethHash */\n      0x00\n        /* \"Evm/core/base/vaultDelegator.sol\":7811:7848  getEthSignedMessageHash(_messageHash) */\n      tag_258\n        /* \"Evm/core/base/vaultDelegator.sol\":7835:7847  _messageHash */\n      dup5\n        /* \"Evm/core/base/vaultDelegator.sol\":7811:7834  getEthSignedMessageHash */\n      tag_98\n        /* \"Evm/core/base/vaultDelegator.sol\":7811:7848  getEthSignedMessageHash(_messageHash) */\n      jump\t// in\n    tag_258:\n        /* \"Evm/core/base/vaultDelegator.sol\":7793:7848  bytes32 ethHash = getEthSignedMessageHash(_messageHash) */\n      swap1\n      pop\n        /* \"Evm/core/base/vaultDelegator.sol\":7923:7957  address[] memory active_validators */\n      0x00\n        /* \"Evm/core/base/vaultDelegator.sol\":7960:7978  validatorsRegistry */\n      immutable(\"0x98f4d6eec7613e33b36335f2ce6a27018d9a9f0999ab27807ed26ac6fd46f1a2\")\n        /* \"Evm/core/base/vaultDelegator.sol\":7960:7997  validatorsRegistry.getActiveAddresses */\n      0xffffffffffffffffffffffffffffffffffffffff\n      and\n      0x1442e4c9\n        /* \"Evm/core/base/vaultDelegator.sol\":7960:7999  validatorsRegistry.getActiveAddresses() */\n      mload(0x40)\n      dup2\n      0xffffffff\n      and\n      0xe0\n      shl\n      dup2\n      mstore\n      0x04\n      add\n      0x00\n      mload(0x40)\n      dup1\n      dup4\n      sub\n      dup2\n      dup7\n      gas\n      staticcall\n      iszero\n      dup1\n      iszero\n      tag_260\n      jumpi\n      returndatacopy(0x00, 0x00, returndatasize)\n      revert(0x00, returndatasize)\n    tag_260:\n      pop\n      pop\n      pop\n      pop\n      mload(0x40)\n      returndatasize\n      0x00\n      dup3\n      returndatacopy\n      returndatasize\n      not(0x1f)\n      0x1f\n      dup3\n      add\n      and\n      dup3\n      add\n      dup1\n      0x40\n      mstore\n      pop\n      dup2\n      add\n      swap1\n      tag_261\n      swap2\n      swap1\n      tag_262\n      jump\t// in\n    tag_261:\n        /* \"Evm/core/base/vaultDelegator.sol\":7923:7999  address[] memory active_validators = validatorsRegistry.getActiveAddresses() */\n      swap1\n      pop\n        /* \"Evm/core/base/vaultDelegator.sol\":8015:8024  uint256 i */\n      0x00\n        /* \"Evm/core/base/vaultDelegator.sol\":8027:8028  0 */\n      0x00\n        /* \"Evm/core/base/vaultDelegator.sol\":8015:8028  uint256 i = 0 */\n      swap1\n      pop\n        /* \"Evm/core/base/vaultDelegator.sol\":8010:8763  for (uint256 i = 0; i < _signatures.length; i++) {... */\n    tag_263:\n        /* \"Evm/core/base/vaultDelegator.sol\":8034:8045  _signatures */\n      dup5\n      dup5\n        /* \"Evm/core/base/vaultDelegator.sol\":8034:8052  _signatures.length */\n      swap1\n      pop\n        /* \"Evm/core/base/vaultDelegator.sol\":8030:8031  i */\n      dup2\n        /* \"Evm/core/base/vaultDelegator.sol\":8030:8052  i < _signatures.length */\n      lt\n        /* \"Evm/core/base/vaultDelegator.sol\":8010:8763  for (uint256 i = 0; i < _signatures.length; i++) {... */\n      iszero\n      tag_264\n      jumpi\n        /* \"Evm/core/base/vaultDelegator.sol\":8074:8098  bytes calldata signature */\n      calldatasize\n      0x00\n        /* \"Evm/core/base/vaultDelegator.sol\":8101:8112  _signatures */\n      dup7\n      dup7\n        /* \"Evm/core/base/vaultDelegator.sol\":8117:8119  65 */\n      0x41\n        /* \"Evm/core/base/vaultDelegator.sol\":8113:8114  i */\n      dup6\n        /* \"Evm/core/base/vaultDelegator.sol\":8113:8119  i * 65 */\n      tag_266\n      swap2\n      swap1\n      tag_267\n      jump\t// in\n    tag_266:\n        /* \"Evm/core/base/vaultDelegator.sol\":8101:8135  _signatures[i * 65 : (i + 1) * 65] */\n      swap1\n        /* \"Evm/core/base/vaultDelegator.sol\":8132:8134  65 */\n      0x41\n        /* \"Evm/core/base/vaultDelegator.sol\":8127:8128  1 */\n      0x01\n        /* \"Evm/core/base/vaultDelegator.sol\":8123:8124  i */\n      dup8\n        /* \"Evm/core/base/vaultDelegator.sol\":8123:8128  i + 1 */\n      tag_268\n      swap2\n      swap1\n      tag_226\n      jump\t// in\n    tag_268:\n        /* \"Evm/core/base/vaultDelegator.sol\":8122:8134  (i + 1) * 65 */\n      tag_269\n      swap2\n      swap1\n      tag_267\n      jump\t// in\n    tag_269:\n        /* \"Evm/core/base/vaultDelegator.sol\":8101:8135  _signatures[i * 65 : (i + 1) * 65] */\n      swap3\n      tag_270\n      swap4\n      swap3\n      swap2\n      swap1\n      tag_271\n      jump\t// in\n    tag_270:\n        /* \"Evm/core/base/vaultDelegator.sol\":8074:8135  bytes calldata signature = _signatures[i * 65 : (i + 1) * 65] */\n      swap2\n      pop\n      swap2\n      pop\n        /* \"Evm/core/base/vaultDelegator.sol\":8189:8203  address signer */\n      0x00\n        /* \"Evm/core/base/vaultDelegator.sol\":8206:8239  recoverSigner(ethHash, signature) */\n      tag_272\n        /* \"Evm/core/base/vaultDelegator.sol\":8220:8227  ethHash */\n      dup7\n        /* \"Evm/core/base/vaultDelegator.sol\":8229:8238  signature */\n      dup5\n      dup5\n        /* \"Evm/core/base/vaultDelegator.sol\":8206:8239  recoverSigner(ethHash, signature) */\n      dup1\n      dup1\n      0x1f\n      add\n      0x20\n      dup1\n      swap2\n      div\n      mul\n      0x20\n      add\n      mload(0x40)\n      swap1\n      dup2\n      add\n      0x40\n      mstore\n      dup1\n      swap4\n      swap3\n      swap2\n      swap1\n      dup2\n      dup2\n      mstore\n      0x20\n      add\n      dup4\n      dup4\n      dup1\n      dup3\n      dup5\n      calldatacopy\n      0x00\n      dup2\n      dup5\n      add\n      mstore\n      not(0x1f)\n      0x1f\n      dup3\n      add\n      and\n      swap1\n      pop\n      dup1\n      dup4\n      add\n      swap3\n      pop\n      pop\n      pop\n      pop\n      pop\n      pop\n      pop\n        /* \"Evm/core/base/vaultDelegator.sol\":8206:8219  recoverSigner */\n      tag_63\n        /* \"Evm/core/base/vaultDelegator.sol\":8206:8239  recoverSigner(ethHash, signature) */\n      jump\t// in\n    tag_272:\n        /* \"Evm/core/base/vaultDelegator.sol\":8189:8239  address signer = recoverSigner(ethHash, signature) */\n      swap1\n      pop\n        /* \"Evm/core/base/vaultDelegator.sol\":8280:8281  0 */\n      0x00\n        /* \"Evm/core/base/vaultDelegator.sol\":8262:8282  signer != address(0) */\n      0xffffffffffffffffffffffffffffffffffffffff\n      and\n        /* \"Evm/core/base/vaultDelegator.sol\":8262:8268  signer */\n      dup2\n        /* \"Evm/core/base/vaultDelegator.sol\":8262:8282  signer != address(0) */\n      0xffffffffffffffffffffffffffffffffffffffff\n      and\n      sub\n        /* \"Evm/core/base/vaultDelegator.sol\":8254:8304  require(signer != address(0), \"Invalid signature\") */\n      tag_273\n      jumpi\n      mload(0x40)\n      0x08c379a000000000000000000000000000000000000000000000000000000000\n      dup2\n      mstore\n      0x04\n      add\n      tag_274\n      swap1\n      tag_275\n      jump\t// in\n    tag_274:\n      mload(0x40)\n      dup1\n      swap2\n      sub\n      swap1\n      revert\n    tag_273:\n        /* \"Evm/core/base/vaultDelegator.sol\":8390:8407  bool isAuthorized */\n      0x00\n        /* \"Evm/core/base/vaultDelegator.sol\":8410:8415  false */\n      0x00\n        /* \"Evm/core/base/vaultDelegator.sol\":8390:8415  bool isAuthorized = false */\n      swap1\n      pop\n        /* \"Evm/core/base/vaultDelegator.sol\":8435:8444  uint256 j */\n      0x00\n        /* \"Evm/core/base/vaultDelegator.sol\":8447:8448  0 */\n      0x00\n        /* \"Evm/core/base/vaultDelegator.sol\":8435:8448  uint256 j = 0 */\n      swap1\n      pop\n        /* \"Evm/core/base/vaultDelegator.sol\":8430:8645  for (uint256 j = 0; j < active_validators.length; j++) {... */\n    tag_276:\n        /* \"Evm/core/base/vaultDelegator.sol\":8454:8471  active_validators */\n      dup7\n        /* \"Evm/core/base/vaultDelegator.sol\":8454:8478  active_validators.length */\n      mload\n        /* \"Evm/core/base/vaultDelegator.sol\":8450:8451  j */\n      dup2\n        /* \"Evm/core/base/vaultDelegator.sol\":8450:8478  j < active_validators.length */\n      lt\n        /* \"Evm/core/base/vaultDelegator.sol\":8430:8645  for (uint256 j = 0; j < active_validators.length; j++) {... */\n      iszero\n      tag_277\n      jumpi\n        /* \"Evm/core/base/vaultDelegator.sol\":8532:8538  signer */\n      dup3\n        /* \"Evm/core/base/vaultDelegator.sol\":8508:8538  active_validators[j] == signer */\n      0xffffffffffffffffffffffffffffffffffffffff\n      and\n        /* \"Evm/core/base/vaultDelegator.sol\":8508:8525  active_validators */\n      dup8\n        /* \"Evm/core/base/vaultDelegator.sol\":8526:8527  j */\n      dup3\n        /* \"Evm/core/base/vaultDelegator.sol\":8508:8528  active_validators[j] */\n      dup2\n      mload\n      dup2\n      lt\n      tag_279\n      jumpi\n      tag_280\n      tag_112\n      jump\t// in\n    tag_280:\n    tag_279:\n      0x20\n      mul\n      0x20\n      add\n      add\n      mload\n        /* \"Evm/core/base/vaultDelegator.sol\":8508:8538  active_validators[j] == signer */\n      0xffffffffffffffffffffffffffffffffffffffff\n      and\n      sub\n        /* \"Evm/core/base/vaultDelegator.sol\":8504:8630  if (active_validators[j] == signer) {... */\n      tag_281\n      jumpi\n        /* \"Evm/core/base/vaultDelegator.sol\":8578:8582  true */\n      0x01\n        /* \"Evm/core/base/vaultDelegator.sol\":8563:8582  isAuthorized = true */\n      swap2\n      pop\n        /* \"Evm/core/base/vaultDelegator.sol\":8605:8610  break */\n      jump(tag_277)\n        /* \"Evm/core/base/vaultDelegator.sol\":8504:8630  if (active_validators[j] == signer) {... */\n    tag_281:\n        /* \"Evm/core/base/vaultDelegator.sol\":8480:8483  j++ */\n      dup1\n      dup1\n      0x01\n      add\n      swap2\n      pop\n      pop\n        /* \"Evm/core/base/vaultDelegator.sol\":8430:8645  for (uint256 j = 0; j < active_validators.length; j++) {... */\n      jump(tag_276)\n    tag_277:\n      pop\n        /* \"Evm/core/base/vaultDelegator.sol\":8667:8679  isAuthorized */\n      dup1\n        /* \"Evm/core/base/vaultDelegator.sol\":8659:8714  require(isAuthorized, \"Signer not an active validator\") */\n      tag_282\n      jumpi\n      mload(0x40)\n      0x08c379a000000000000000000000000000000000000000000000000000000000\n      dup2\n      mstore\n      0x04\n      add\n      tag_283\n      swap1\n      tag_284\n      jump\t// in\n    tag_283:\n      mload(0x40)\n      dup1\n      swap2\n      sub\n      swap1\n      revert\n    tag_282:\n        /* \"Evm/core/base/vaultDelegator.sol\":8059:8763  {... */\n      pop\n      pop\n      pop\n      pop\n        /* \"Evm/core/base/vaultDelegator.sol\":8054:8057  i++ */\n      dup1\n      dup1\n      0x01\n      add\n      swap2\n      pop\n      pop\n        /* \"Evm/core/base/vaultDelegator.sol\":8010:8763  for (uint256 i = 0; i < _signatures.length; i++) {... */\n      jump(tag_263)\n    tag_264:\n      pop\n        /* \"Evm/core/base/vaultDelegator.sol\":7782:8770  {... */\n      pop\n      pop\n        /* \"Evm/core/base/vaultDelegator.sol\":7688:8770  function _verifyAllSignatures(bytes32 _messageHash, bytes calldata _signatures) internal view {... */\n      pop\n      pop\n      pop\n      jump\t// out\n        /* \"Evm/core/base/vaultDelegator.sol\":6366:7680  function _prepareWithdrawal(uint[6] calldata input) internal view returns (uint256 amount, address vaultAddr, string memory storageName) {... */\n    tag_137:\n        /* \"Evm/core/base/vaultDelegator.sol\":6441:6455  uint256 amount */\n      0x00\n        /* \"Evm/core/base/vaultDelegator.sol\":6457:6474  address vaultAddr */\n      0x00\n        /* \"Evm/core/base/vaultDelegator.sol\":6476:6501  string memory storageName */\n      0x60\n        /* \"Evm/core/base/vaultDelegator.sol\":6560:6574  uint256 packed */\n      0x00\n        /* \"Evm/core/base/vaultDelegator.sol\":6577:6582  input */\n      dup5\n        /* \"Evm/core/base/vaultDelegator.sol\":6583:6584  5 */\n      0x05\n        /* \"Evm/core/base/vaultDelegator.sol\":6577:6585  input[5] */\n      0x06\n      dup2\n      lt\n      tag_286\n      jumpi\n      tag_287\n      tag_112\n      jump\t// in\n    tag_287:\n    tag_286:\n      0x20\n      mul\n      add\n      calldataload\n        /* \"Evm/core/base/vaultDelegator.sol\":6560:6585  uint256 packed = input[5] */\n      swap1\n      pop\n        /* \"Evm/core/base/vaultDelegator.sol\":6660:6666  packed */\n      dup1\n        /* \"Evm/core/base/vaultDelegator.sol\":6645:6668  uint256(uint64(packed)) */\n      0xffffffffffffffff\n      and\n        /* \"Evm/core/base/vaultDelegator.sol\":6636:6668  amount = uint256(uint64(packed)) */\n      swap4\n      pop\n        /* \"Evm/core/base/vaultDelegator.sol\":6722:6737  uint256 chainID */\n      0x00\n        /* \"Evm/core/base/vaultDelegator.sol\":6765:6767  64 */\n      0x40\n        /* \"Evm/core/base/vaultDelegator.sol\":6755:6761  packed */\n      dup3\n        /* \"Evm/core/base/vaultDelegator.sol\":6755:6767  packed >> 64 */\n      swap1\n      shr\n        /* \"Evm/core/base/vaultDelegator.sol\":6740:6769  uint256(uint32(packed >> 64)) */\n      0xffffffff\n      and\n        /* \"Evm/core/base/vaultDelegator.sol\":6722:6769  uint256 chainID = uint256(uint32(packed >> 64)) */\n      swap1\n      pop\n        /* \"Evm/core/base/vaultDelegator.sol\":6799:6812  block.chainid */\n      chainid\n        /* \"Evm/core/base/vaultDelegator.sol\":6788:6795  chainID */\n      dup2\n        /* \"Evm/core/base/vaultDelegator.sol\":6788:6812  chainID == block.chainid */\n      eq\n        /* \"Evm/core/base/vaultDelegator.sol\":6780:6840  require(chainID == block.chainid, \"Wrong destination chain\") */\n      tag_288\n      jumpi\n      mload(0x40)\n      0x08c379a000000000000000000000000000000000000000000000000000000000\n      dup2\n      mstore\n      0x04\n      add\n      tag_289\n      swap1\n      tag_115\n      jump\t// in\n    tag_289:\n      mload(0x40)\n      dup1\n      swap2\n      sub\n      swap1\n      revert\n    tag_288:\n        /* \"Evm/core/base/vaultDelegator.sol\":6948:6965  uint256 storageID */\n      0x00\n        /* \"Evm/core/base/vaultDelegator.sol\":6978:6981  128 */\n      0x80\n        /* \"Evm/core/base/vaultDelegator.sol\":6968:6974  packed */\n      dup4\n        /* \"Evm/core/base/vaultDelegator.sol\":6968:6981  packed >> 128 */\n      swap1\n      shr\n        /* \"Evm/core/base/vaultDelegator.sol\":6948:6981  uint256 storageID = packed >> 128 */\n      swap1\n      pop\n        /* \"Evm/core/base/vaultDelegator.sol\":7006:7030  fieldToString(storageID) */\n      tag_290\n        /* \"Evm/core/base/vaultDelegator.sol\":7020:7029  storageID */\n      dup2\n        /* \"Evm/core/base/vaultDelegator.sol\":7006:7019  fieldToString */\n      tag_80\n        /* \"Evm/core/base/vaultDelegator.sol\":7006:7030  fieldToString(storageID) */\n      jump\t// in\n    tag_290:\n        /* \"Evm/core/base/vaultDelegator.sol\":6992:7030  storageName = fieldToString(storageID) */\n      swap4\n      pop\n        /* \"Evm/core/base/vaultDelegator.sol\":7089:7115  string memory providerName */\n      0x00\n        /* \"Evm/core/base/vaultDelegator.sol\":7118:7141  fieldToString(input[4]) */\n      tag_291\n        /* \"Evm/core/base/vaultDelegator.sol\":7132:7137  input */\n      dup9\n        /* \"Evm/core/base/vaultDelegator.sol\":7138:7139  4 */\n      0x04\n        /* \"Evm/core/base/vaultDelegator.sol\":7132:7140  input[4] */\n      0x06\n      dup2\n      lt\n      tag_292\n      jumpi\n      tag_293\n      tag_112\n      jump\t// in\n    tag_293:\n    tag_292:\n      0x20\n      mul\n      add\n      calldataload\n        /* \"Evm/core/base/vaultDelegator.sol\":7118:7131  fieldToString */\n      tag_80\n        /* \"Evm/core/base/vaultDelegator.sol\":7118:7141  fieldToString(input[4]) */\n      jump\t// in\n    tag_291:\n        /* \"Evm/core/base/vaultDelegator.sol\":7089:7141  string memory providerName = fieldToString(input[4]) */\n      swap1\n      pop\n        /* \"Evm/core/base/vaultDelegator.sol\":7239:7261  string memory vaultKey */\n      0x00\n        /* \"Evm/core/base/vaultDelegator.sol\":7288:7300  providerName */\n      dup2\n        /* \"Evm/core/base/vaultDelegator.sol\":7271:7311  abi.encodePacked(providerName, \"_vault\") */\n      add(0x20, mload(0x40))\n      tag_294\n      swap2\n      swap1\n      tag_295\n      jump\t// in\n    tag_294:\n      mload(0x40)\n      0x20\n      dup2\n      dup4\n      sub\n      sub\n      dup2\n      mstore\n      swap1\n      0x40\n      mstore\n        /* \"Evm/core/base/vaultDelegator.sol\":7239:7312  string memory vaultKey = string(abi.encodePacked(providerName, \"_vault\")) */\n      swap1\n      pop\n        /* \"Evm/core/base/vaultDelegator.sol\":7356:7379  bytes memory vaultBytes */\n      0x00\n        /* \"Evm/core/base/vaultDelegator.sol\":7382:7399  variablesRegistry */\n      immutable(\"0x980c46aeb242fb2816eec3c43a568cdc6adda404b46e62cce4e3fe7d929881e3\")\n        /* \"Evm/core/base/vaultDelegator.sol\":7382:7417  variablesRegistry.getActiveVariable */\n      0xffffffffffffffffffffffffffffffffffffffff\n      and\n      0x16f1adc1\n        /* \"Evm/core/base/vaultDelegator.sol\":7437:7445  vaultKey */\n      dup4\n        /* \"Evm/core/base/vaultDelegator.sol\":7382:7446  variablesRegistry.getActiveVariable(\"QiaraBaseAssets\", vaultKey) */\n      mload(0x40)\n      dup3\n      0xffffffff\n      and\n      0xe0\n      shl\n      dup2\n      mstore\n      0x04\n      add\n      tag_296\n      swap2\n      swap1\n      tag_297\n      jump\t// in\n    tag_296:\n      0x00\n      mload(0x40)\n      dup1\n      dup4\n      sub\n      dup2\n      dup7\n      gas\n      staticcall\n      iszero\n      dup1\n      iszero\n      tag_299\n      jumpi\n      returndatacopy(0x00, 0x00, returndatasize)\n      revert(0x00, returndatasize)\n    tag_299:\n      pop\n      pop\n      pop\n      pop\n      mload(0x40)\n      returndatasize\n      0x00\n      dup3\n      returndatacopy\n      returndatasize\n      not(0x1f)\n      0x1f\n      dup3\n      add\n      and\n      dup3\n      add\n      dup1\n      0x40\n      mstore\n      pop\n      dup2\n      add\n      swap1\n      tag_300\n      swap2\n      swap1\n      tag_301\n      jump\t// in\n    tag_300:\n        /* \"Evm/core/base/vaultDelegator.sol\":7356:7446  bytes memory vaultBytes = variablesRegistry.getActiveVariable(\"QiaraBaseAssets\", vaultKey) */\n      swap1\n      pop\n        /* \"Evm/core/base/vaultDelegator.sol\":7518:7519  0 */\n      0x00\n        /* \"Evm/core/base/vaultDelegator.sol\":7498:7508  vaultBytes */\n      dup2\n        /* \"Evm/core/base/vaultDelegator.sol\":7498:7515  vaultBytes.length */\n      mload\n        /* \"Evm/core/base/vaultDelegator.sol\":7498:7519  vaultBytes.length > 0 */\n      gt\n        /* \"Evm/core/base/vaultDelegator.sol\":7490:7544  require(vaultBytes.length > 0, \"Vault not authorized\") */\n      tag_302\n      jumpi\n      mload(0x40)\n      0x08c379a000000000000000000000000000000000000000000000000000000000\n      dup2\n      mstore\n      0x04\n      add\n      tag_303\n      swap1\n      tag_304\n      jump\t// in\n    tag_303:\n      mload(0x40)\n      dup1\n      swap2\n      sub\n      swap1\n      revert\n    tag_302:\n        /* \"Evm/core/base/vaultDelegator.sol\":7625:7635  vaultBytes */\n      dup1\n        /* \"Evm/core/base/vaultDelegator.sol\":7617:7636  bytes20(vaultBytes) */\n      tag_305\n      swap1\n      tag_306\n      jump\t// in\n    tag_305:\n        /* \"Evm/core/base/vaultDelegator.sol\":7609:7637  uint160(bytes20(vaultBytes)) */\n      0x60\n      shr\n        /* \"Evm/core/base/vaultDelegator.sol\":7589:7638  vaultAddr = address(uint160(bytes20(vaultBytes))) */\n      swap8\n      pop\n        /* \"Evm/core/base/vaultDelegator.sol\":6503:7680  {... */\n      pop\n      pop\n      pop\n      pop\n      pop\n      pop\n        /* \"Evm/core/base/vaultDelegator.sol\":6366:7680  function _prepareWithdrawal(uint[6] calldata input) internal view returns (uint256 amount, address vaultAddr, string memory storageName) {... */\n      swap2\n      swap4\n      swap1\n      swap3\n      pop\n      jump\t// out\n        /* \"Evm/core/base/vaultDelegator.sol\":5062:5615  function _calculateNullifier8(uint256[6] calldata input) internal pure returns (uint256) {... */\n    tag_143:\n        /* \"Evm/core/base/vaultDelegator.sol\":5142:5149  uint256 */\n      0x00\n        /* \"Evm/core/base/vaultDelegator.sol\":5335:5347  bytes32 hash */\n      0x00\n        /* \"Evm/core/base/vaultDelegator.sol\":5391:5396  input */\n      dup3\n        /* \"Evm/core/base/vaultDelegator.sol\":5397:5398  0 */\n      0x00\n        /* \"Evm/core/base/vaultDelegator.sol\":5391:5399  input[0] */\n      0x06\n      dup2\n      lt\n      tag_308\n      jumpi\n      tag_309\n      tag_112\n      jump\t// in\n    tag_309:\n    tag_308:\n      0x20\n      mul\n      add\n      calldataload\n        /* \"Evm/core/base/vaultDelegator.sol\":5414:5419  input */\n      dup4\n        /* \"Evm/core/base/vaultDelegator.sol\":5420:5421  1 */\n      0x01\n        /* \"Evm/core/base/vaultDelegator.sol\":5414:5422  input[1] */\n      0x06\n      dup2\n      lt\n      tag_310\n      jumpi\n      tag_311\n      tag_112\n      jump\t// in\n    tag_311:\n    tag_310:\n      0x20\n      mul\n      add\n      calldataload\n        /* \"Evm/core/base/vaultDelegator.sol\":5437:5442  input */\n      dup5\n        /* \"Evm/core/base/vaultDelegator.sol\":5443:5444  2 */\n      0x02\n        /* \"Evm/core/base/vaultDelegator.sol\":5437:5445  input[2] */\n      0x06\n      dup2\n      lt\n      tag_312\n      jumpi\n      tag_313\n      tag_112\n      jump\t// in\n    tag_313:\n    tag_312:\n      0x20\n      mul\n      add\n      calldataload\n        /* \"Evm/core/base/vaultDelegator.sol\":5460:5465  input */\n      dup6\n        /* \"Evm/core/base/vaultDelegator.sol\":5466:5467  3 */\n      0x03\n        /* \"Evm/core/base/vaultDelegator.sol\":5460:5468  input[3] */\n      0x06\n      dup2\n      lt\n      tag_314\n      jumpi\n      tag_315\n      tag_112\n      jump\t// in\n    tag_315:\n    tag_314:\n      0x20\n      mul\n      add\n      calldataload\n        /* \"Evm/core/base/vaultDelegator.sol\":5483:5488  input */\n      dup7\n        /* \"Evm/core/base/vaultDelegator.sol\":5489:5490  4 */\n      0x04\n        /* \"Evm/core/base/vaultDelegator.sol\":5483:5491  input[4] */\n      0x06\n      dup2\n      lt\n      tag_316\n      jumpi\n      tag_317\n      tag_112\n      jump\t// in\n    tag_317:\n    tag_316:\n      0x20\n      mul\n      add\n      calldataload\n        /* \"Evm/core/base/vaultDelegator.sol\":5506:5511  input */\n      dup8\n        /* \"Evm/core/base/vaultDelegator.sol\":5512:5513  5 */\n      0x05\n        /* \"Evm/core/base/vaultDelegator.sol\":5506:5514  input[5] */\n      0x06\n      dup2\n      lt\n      tag_318\n      jumpi\n      tag_319\n      tag_112\n      jump\t// in\n    tag_319:\n    tag_318:\n      0x20\n      mul\n      add\n      calldataload\n        /* \"Evm/core/base/vaultDelegator.sol\":5360:5573  abi.encodePacked(... */\n      add(0x20, mload(0x40))\n      tag_320\n      swap7\n      swap6\n      swap5\n      swap4\n      swap3\n      swap2\n      swap1\n      tag_321\n      jump\t// in\n    tag_320:\n      mload(0x40)\n      0x20\n      dup2\n      dup4\n      sub\n      sub\n      dup2\n      mstore\n      swap1\n      0x40\n      mstore\n        /* \"Evm/core/base/vaultDelegator.sol\":5350:5574  keccak256(abi.encodePacked(... */\n      dup1\n      mload\n      swap1\n      0x20\n      add\n      keccak256\n        /* \"Evm/core/base/vaultDelegator.sol\":5335:5574  bytes32 hash = keccak256(abi.encodePacked(... */\n      swap1\n      pop\n        /* \"Evm/core/base/vaultDelegator.sol\":5602:5606  hash */\n      dup1\n        /* \"Evm/core/base/vaultDelegator.sol\":5594:5607  uint256(hash) */\n      0x00\n      shr\n        /* \"Evm/core/base/vaultDelegator.sol\":5587:5607  return uint256(hash) */\n      swap2\n      pop\n      pop\n        /* \"Evm/core/base/vaultDelegator.sol\":5062:5615  function _calculateNullifier8(uint256[6] calldata input) internal pure returns (uint256) {... */\n      swap2\n      swap1\n      pop\n      jump\t// out\n        /* \"@openzeppelin/contracts/access/Ownable.sol\":1796:1958  function _checkOwner() internal view virtual {... */\n    tag_157:\n        /* \"@openzeppelin/contracts/access/Ownable.sol\":1866:1878  _msgSender() */\n      tag_323\n        /* \"@openzeppelin/contracts/access/Ownable.sol\":1866:1876  _msgSender */\n      tag_324\n        /* \"@openzeppelin/contracts/access/Ownable.sol\":1866:1878  _msgSender() */\n      jump\t// in\n    tag_323:\n        /* \"@openzeppelin/contracts/access/Ownable.sol\":1855:1878  owner() != _msgSender() */\n      0xffffffffffffffffffffffffffffffffffffffff\n      and\n        /* \"@openzeppelin/contracts/access/Ownable.sol\":1855:1862  owner() */\n      tag_325\n        /* \"@openzeppelin/contracts/access/Ownable.sol\":1855:1860  owner */\n      tag_58\n        /* \"@openzeppelin/contracts/access/Ownable.sol\":1855:1862  owner() */\n      jump\t// in\n    tag_325:\n        /* \"@openzeppelin/contracts/access/Ownable.sol\":1855:1878  owner() != _msgSender() */\n      0xffffffffffffffffffffffffffffffffffffffff\n      and\n      eq\n        /* \"@openzeppelin/contracts/access/Ownable.sol\":1851:1952  if (owner() != _msgSender()) {... */\n      tag_326\n      jumpi\n        /* \"@openzeppelin/contracts/access/Ownable.sol\":1928:1940  _msgSender() */\n      tag_327\n        /* \"@openzeppelin/contracts/access/Ownable.sol\":1928:1938  _msgSender */\n      tag_324\n        /* \"@openzeppelin/contracts/access/Ownable.sol\":1928:1940  _msgSender() */\n      jump\t// in\n    tag_327:\n        /* \"@openzeppelin/contracts/access/Ownable.sol\":1901:1941  OwnableUnauthorizedAccount(_msgSender()) */\n      mload(0x40)\n      0x118cdaa700000000000000000000000000000000000000000000000000000000\n      dup2\n      mstore\n      0x04\n      add\n      tag_328\n      swap2\n      swap1\n      tag_43\n      jump\t// in\n    tag_328:\n      mload(0x40)\n      dup1\n      swap2\n      sub\n      swap1\n      revert\n        /* \"@openzeppelin/contracts/access/Ownable.sol\":1851:1952  if (owner() != _msgSender()) {... */\n    tag_326:\n        /* \"@openzeppelin/contracts/access/Ownable.sol\":1796:1958  function _checkOwner() internal view virtual {... */\n      jump\t// out\n        /* \"@openzeppelin/contracts/access/Ownable.sol\":2912:3099  function _transferOwnership(address newOwner) internal virtual {... */\n    tag_160:\n        /* \"@openzeppelin/contracts/access/Ownable.sol\":2985:3001  address oldOwner */\n      0x00\n        /* \"@openzeppelin/contracts/access/Ownable.sol\":3004:3010  _owner */\n      0x00\n      0x00\n      swap1\n      sload\n      swap1\n      0x0100\n      exp\n      swap1\n      div\n      0xffffffffffffffffffffffffffffffffffffffff\n      and\n        /* \"@openzeppelin/contracts/access/Ownable.sol\":2985:3010  address oldOwner = _owner */\n      swap1\n      pop\n        /* \"@openzeppelin/contracts/access/Ownable.sol\":3029:3037  newOwner */\n      dup2\n        /* \"@openzeppelin/contracts/access/Ownable.sol\":3020:3026  _owner */\n      0x00\n      0x00\n        /* \"@openzeppelin/contracts/access/Ownable.sol\":3020:3037  _owner = newOwner */\n      0x0100\n      exp\n      dup2\n      sload\n      dup2\n      0xffffffffffffffffffffffffffffffffffffffff\n      mul\n      not\n      and\n      swap1\n      dup4\n      0xffffffffffffffffffffffffffffffffffffffff\n      and\n      mul\n      or\n      swap1\n      sstore\n      pop\n        /* \"@openzeppelin/contracts/access/Ownable.sol\":3083:3091  newOwner */\n      dup2\n        /* \"@openzeppelin/contracts/access/Ownable.sol\":3052:3092  OwnershipTransferred(oldOwner, newOwner) */\n      0xffffffffffffffffffffffffffffffffffffffff\n      and\n        /* \"@openzeppelin/contracts/access/Ownable.sol\":3073:3081  oldOwner */\n      dup2\n        /* \"@openzeppelin/contracts/access/Ownable.sol\":3052:3092  OwnershipTransferred(oldOwner, newOwner) */\n      0xffffffffffffffffffffffffffffffffffffffff\n      and\n      0x8be0079c531659141344cd1fd0a4f28419497f9722a3daafe3b4186f6b6457e0\n      mload(0x40)\n      mload(0x40)\n      dup1\n      swap2\n      sub\n      swap1\n      log3\n        /* \"@openzeppelin/contracts/access/Ownable.sol\":2975:3099  {... */\n      pop\n        /* \"@openzeppelin/contracts/access/Ownable.sol\":2912:3099  function _transferOwnership(address newOwner) internal virtual {... */\n      pop\n      jump\t// out\n        /* \"@openzeppelin/contracts/utils/Context.sol\":656:752  function _msgSender() internal view virtual returns (address) {... */\n    tag_324:\n        /* \"@openzeppelin/contracts/utils/Context.sol\":709:716  address */\n      0x00\n        /* \"@openzeppelin/contracts/utils/Context.sol\":735:745  msg.sender */\n      caller\n        /* \"@openzeppelin/contracts/utils/Context.sol\":728:745  return msg.sender */\n      swap1\n      pop\n        /* \"@openzeppelin/contracts/utils/Context.sol\":656:752  function _msgSender() internal view virtual returns (address) {... */\n      swap1\n      jump\t// out\n        /* \"#utility.yul\":7:82   */\n    tag_331:\n        /* \"#utility.yul\":40:46   */\n      0x00\n        /* \"#utility.yul\":73:75   */\n      0x40\n        /* \"#utility.yul\":67:76   */\n      mload\n        /* \"#utility.yul\":57:76   */\n      swap1\n      pop\n        /* \"#utility.yul\":7:82   */\n      swap1\n      jump\t// out\n        /* \"#utility.yul\":88:205   */\n    tag_332:\n        /* \"#utility.yul\":197:198   */\n      0x00\n        /* \"#utility.yul\":194:195   */\n      0x00\n        /* \"#utility.yul\":187:199   */\n      revert\n        /* \"#utility.yul\":211:328   */\n    tag_333:\n        /* \"#utility.yul\":320:321   */\n      0x00\n        /* \"#utility.yul\":317:318   */\n      0x00\n        /* \"#utility.yul\":310:322   */\n      revert\n        /* \"#utility.yul\":334:411   */\n    tag_334:\n        /* \"#utility.yul\":371:378   */\n      0x00\n        /* \"#utility.yul\":400:405   */\n      dup2\n        /* \"#utility.yul\":389:405   */\n      swap1\n      pop\n        /* \"#utility.yul\":334:411   */\n      swap2\n      swap1\n      pop\n      jump\t// out\n        /* \"#utility.yul\":417:539   */\n    tag_335:\n        /* \"#utility.yul\":490:514   */\n      tag_433\n        /* \"#utility.yul\":508:513   */\n      dup2\n        /* \"#utility.yul\":490:514   */\n      tag_334\n      jump\t// in\n    tag_433:\n        /* \"#utility.yul\":483:488   */\n      dup2\n        /* \"#utility.yul\":480:515   */\n      eq\n        /* \"#utility.yul\":470:533   */\n      tag_434\n      jumpi\n        /* \"#utility.yul\":529:530   */\n      0x00\n        /* \"#utility.yul\":526:527   */\n      0x00\n        /* \"#utility.yul\":519:531   */\n      revert\n        /* \"#utility.yul\":470:533   */\n    tag_434:\n        /* \"#utility.yul\":417:539   */\n      pop\n      jump\t// out\n        /* \"#utility.yul\":545:684   */\n    tag_336:\n        /* \"#utility.yul\":591:596   */\n      0x00\n        /* \"#utility.yul\":629:635   */\n      dup2\n        /* \"#utility.yul\":616:636   */\n      calldataload\n        /* \"#utility.yul\":607:636   */\n      swap1\n      pop\n        /* \"#utility.yul\":645:678   */\n      tag_436\n        /* \"#utility.yul\":672:677   */\n      dup2\n        /* \"#utility.yul\":645:678   */\n      tag_335\n      jump\t// in\n    tag_436:\n        /* \"#utility.yul\":545:684   */\n      swap3\n      swap2\n      pop\n      pop\n      jump\t// out\n        /* \"#utility.yul\":690:1019   */\n    tag_26:\n        /* \"#utility.yul\":749:755   */\n      0x00\n        /* \"#utility.yul\":798:800   */\n      0x20\n        /* \"#utility.yul\":786:795   */\n      dup3\n        /* \"#utility.yul\":777:784   */\n      dup5\n        /* \"#utility.yul\":773:796   */\n      sub\n        /* \"#utility.yul\":769:801   */\n      slt\n        /* \"#utility.yul\":766:885   */\n      iszero\n      tag_438\n      jumpi\n        /* \"#utility.yul\":804:883   */\n      tag_439\n      tag_332\n      jump\t// in\n    tag_439:\n        /* \"#utility.yul\":766:885   */\n    tag_438:\n        /* \"#utility.yul\":924:925   */\n      0x00\n        /* \"#utility.yul\":949:1002   */\n      tag_440\n        /* \"#utility.yul\":994:1001   */\n      dup5\n        /* \"#utility.yul\":985:991   */\n      dup3\n        /* \"#utility.yul\":974:983   */\n      dup6\n        /* \"#utility.yul\":970:992   */\n      add\n        /* \"#utility.yul\":949:1002   */\n      tag_336\n      jump\t// in\n    tag_440:\n        /* \"#utility.yul\":939:1002   */\n      swap2\n      pop\n        /* \"#utility.yul\":895:1012   */\n      pop\n        /* \"#utility.yul\":690:1019   */\n      swap3\n      swap2\n      pop\n      pop\n      jump\t// out\n        /* \"#utility.yul\":1025:1123   */\n    tag_337:\n        /* \"#utility.yul\":1076:1082   */\n      0x00\n        /* \"#utility.yul\":1110:1115   */\n      dup2\n        /* \"#utility.yul\":1104:1116   */\n      mload\n        /* \"#utility.yul\":1094:1116   */\n      swap1\n      pop\n        /* \"#utility.yul\":1025:1123   */\n      swap2\n      swap1\n      pop\n      jump\t// out\n        /* \"#utility.yul\":1129:1297   */\n    tag_338:\n        /* \"#utility.yul\":1212:1223   */\n      0x00\n        /* \"#utility.yul\":1246:1252   */\n      dup3\n        /* \"#utility.yul\":1241:1244   */\n      dup3\n        /* \"#utility.yul\":1234:1253   */\n      mstore\n        /* \"#utility.yul\":1286:1290   */\n      0x20\n        /* \"#utility.yul\":1281:1284   */\n      dup3\n        /* \"#utility.yul\":1277:1291   */\n      add\n        /* \"#utility.yul\":1262:1291   */\n      swap1\n      pop\n        /* \"#utility.yul\":1129:1297   */\n      swap3\n      swap2\n      pop\n      pop\n      jump\t// out\n        /* \"#utility.yul\":1303:1442   */\n    tag_339:\n        /* \"#utility.yul\":1392:1398   */\n      dup3\n        /* \"#utility.yul\":1387:1390   */\n      dup2\n        /* \"#utility.yul\":1382:1385   */\n      dup4\n        /* \"#utility.yul\":1376:1399   */\n      mcopy\n        /* \"#utility.yul\":1433:1434   */\n      0x00\n        /* \"#utility.yul\":1424:1430   */\n      dup4\n        /* \"#utility.yul\":1419:1422   */\n      dup4\n        /* \"#utility.yul\":1415:1431   */\n      add\n        /* \"#utility.yul\":1408:1435   */\n      mstore\n        /* \"#utility.yul\":1303:1442   */\n      pop\n      pop\n      pop\n      jump\t// out\n        /* \"#utility.yul\":1448:1550   */\n    tag_340:\n        /* \"#utility.yul\":1489:1495   */\n      0x00\n        /* \"#utility.yul\":1540:1542   */\n      0x1f\n        /* \"#utility.yul\":1536:1543   */\n      not\n        /* \"#utility.yul\":1531:1533   */\n      0x1f\n        /* \"#utility.yul\":1524:1529   */\n      dup4\n        /* \"#utility.yul\":1520:1534   */\n      add\n        /* \"#utility.yul\":1516:1544   */\n      and\n        /* \"#utility.yul\":1506:1544   */\n      swap1\n      pop\n        /* \"#utility.yul\":1448:1550   */\n      swap2\n      swap1\n      pop\n      jump\t// out\n        /* \"#utility.yul\":1556:1929   */\n    tag_341:\n        /* \"#utility.yul\":1642:1645   */\n      0x00\n        /* \"#utility.yul\":1670:1708   */\n      tag_446\n        /* \"#utility.yul\":1702:1707   */\n      dup3\n        /* \"#utility.yul\":1670:1708   */\n      tag_337\n      jump\t// in\n    tag_446:\n        /* \"#utility.yul\":1724:1794   */\n      tag_447\n        /* \"#utility.yul\":1787:1793   */\n      dup2\n        /* \"#utility.yul\":1782:1785   */\n      dup6\n        /* \"#utility.yul\":1724:1794   */\n      tag_338\n      jump\t// in\n    tag_447:\n        /* \"#utility.yul\":1717:1794   */\n      swap4\n      pop\n        /* \"#utility.yul\":1803:1868   */\n      tag_448\n        /* \"#utility.yul\":1861:1867   */\n      dup2\n        /* \"#utility.yul\":1856:1859   */\n      dup6\n        /* \"#utility.yul\":1849:1853   */\n      0x20\n        /* \"#utility.yul\":1842:1847   */\n      dup7\n        /* \"#utility.yul\":1838:1854   */\n      add\n        /* \"#utility.yul\":1803:1868   */\n      tag_339\n      jump\t// in\n    tag_448:\n        /* \"#utility.yul\":1893:1922   */\n      tag_449\n        /* \"#utility.yul\":1915:1921   */\n      dup2\n        /* \"#utility.yul\":1893:1922   */\n      tag_340\n      jump\t// in\n    tag_449:\n        /* \"#utility.yul\":1888:1891   */\n      dup5\n        /* \"#utility.yul\":1884:1923   */\n      add\n        /* \"#utility.yul\":1877:1923   */\n      swap2\n      pop\n        /* \"#utility.yul\":1646:1929   */\n      pop\n        /* \"#utility.yul\":1556:1929   */\n      swap3\n      swap2\n      pop\n      pop\n      jump\t// out\n        /* \"#utility.yul\":1935:2244   */\n    tag_29:\n        /* \"#utility.yul\":2046:2050   */\n      0x00\n        /* \"#utility.yul\":2084:2086   */\n      0x20\n        /* \"#utility.yul\":2073:2082   */\n      dup3\n        /* \"#utility.yul\":2069:2087   */\n      add\n        /* \"#utility.yul\":2061:2087   */\n      swap1\n      pop\n        /* \"#utility.yul\":2133:2142   */\n      dup2\n        /* \"#utility.yul\":2127:2131   */\n      dup2\n        /* \"#utility.yul\":2123:2143   */\n      sub\n        /* \"#utility.yul\":2119:2120   */\n      0x00\n        /* \"#utility.yul\":2108:2117   */\n      dup4\n        /* \"#utility.yul\":2104:2121   */\n      add\n        /* \"#utility.yul\":2097:2144   */\n      mstore\n        /* \"#utility.yul\":2161:2237   */\n      tag_451\n        /* \"#utility.yul\":2232:2236   */\n      dup2\n        /* \"#utility.yul\":2223:2229   */\n      dup5\n        /* \"#utility.yul\":2161:2237   */\n      tag_341\n      jump\t// in\n    tag_451:\n        /* \"#utility.yul\":2153:2237   */\n      swap1\n      pop\n        /* \"#utility.yul\":1935:2244   */\n      swap3\n      swap2\n      pop\n      pop\n      jump\t// out\n        /* \"#utility.yul\":2250:2367   */\n    tag_342:\n        /* \"#utility.yul\":2359:2360   */\n      0x00\n        /* \"#utility.yul\":2356:2357   */\n      0x00\n        /* \"#utility.yul\":2349:2361   */\n      revert\n        /* \"#utility.yul\":2391:2640   */\n    tag_343:\n        /* \"#utility.yul\":2462:2470   */\n      0x00\n        /* \"#utility.yul\":2493:2499   */\n      dup2\n        /* \"#utility.yul\":2481:2499   */\n      swap1\n      pop\n        /* \"#utility.yul\":2546:2549   */\n      dup3\n        /* \"#utility.yul\":2538:2542   */\n      0x20\n        /* \"#utility.yul\":2532:2536   */\n      0x08\n        /* \"#utility.yul\":2528:2543   */\n      mul\n        /* \"#utility.yul\":2518:2526   */\n      dup3\n        /* \"#utility.yul\":2514:2544   */\n      add\n        /* \"#utility.yul\":2511:2550   */\n      gt\n        /* \"#utility.yul\":2508:2634   */\n      iszero\n      tag_454\n      jumpi\n        /* \"#utility.yul\":2553:2632   */\n      tag_455\n      tag_342\n      jump\t// in\n    tag_455:\n        /* \"#utility.yul\":2508:2634   */\n    tag_454:\n        /* \"#utility.yul\":2391:2640   */\n      swap3\n      swap2\n      pop\n      pop\n      jump\t// out\n        /* \"#utility.yul\":2664:2913   */\n    tag_344:\n        /* \"#utility.yul\":2735:2743   */\n      0x00\n        /* \"#utility.yul\":2766:2772   */\n      dup2\n        /* \"#utility.yul\":2754:2772   */\n      swap1\n      pop\n        /* \"#utility.yul\":2819:2822   */\n      dup3\n        /* \"#utility.yul\":2811:2815   */\n      0x20\n        /* \"#utility.yul\":2805:2809   */\n      0x07\n        /* \"#utility.yul\":2801:2816   */\n      mul\n        /* \"#utility.yul\":2791:2799   */\n      dup3\n        /* \"#utility.yul\":2787:2817   */\n      add\n        /* \"#utility.yul\":2784:2823   */\n      gt\n        /* \"#utility.yul\":2781:2907   */\n      iszero\n      tag_457\n      jumpi\n        /* \"#utility.yul\":2826:2905   */\n      tag_458\n      tag_342\n      jump\t// in\n    tag_458:\n        /* \"#utility.yul\":2781:2907   */\n    tag_457:\n        /* \"#utility.yul\":2664:2913   */\n      swap3\n      swap2\n      pop\n      pop\n      jump\t// out\n        /* \"#utility.yul\":2919:3036   */\n    tag_345:\n        /* \"#utility.yul\":3028:3029   */\n      0x00\n        /* \"#utility.yul\":3025:3026   */\n      0x00\n        /* \"#utility.yul\":3018:3030   */\n      revert\n        /* \"#utility.yul\":3042:3159   */\n    tag_346:\n        /* \"#utility.yul\":3151:3152   */\n      0x00\n        /* \"#utility.yul\":3148:3149   */\n      0x00\n        /* \"#utility.yul\":3141:3153   */\n      revert\n        /* \"#utility.yul\":3178:3730   */\n    tag_347:\n        /* \"#utility.yul\":3235:3243   */\n      0x00\n        /* \"#utility.yul\":3245:3251   */\n      0x00\n        /* \"#utility.yul\":3295:3298   */\n      dup4\n        /* \"#utility.yul\":3288:3292   */\n      0x1f\n        /* \"#utility.yul\":3280:3286   */\n      dup5\n        /* \"#utility.yul\":3276:3293   */\n      add\n        /* \"#utility.yul\":3272:3299   */\n      slt\n        /* \"#utility.yul\":3262:3384   */\n      tag_462\n      jumpi\n        /* \"#utility.yul\":3303:3382   */\n      tag_463\n      tag_345\n      jump\t// in\n    tag_463:\n        /* \"#utility.yul\":3262:3384   */\n    tag_462:\n        /* \"#utility.yul\":3416:3422   */\n      dup3\n        /* \"#utility.yul\":3403:3423   */\n      calldataload\n        /* \"#utility.yul\":3393:3423   */\n      swap1\n      pop\n        /* \"#utility.yul\":3446:3464   */\n      0xffffffffffffffff\n        /* \"#utility.yul\":3438:3444   */\n      dup2\n        /* \"#utility.yul\":3435:3465   */\n      gt\n        /* \"#utility.yul\":3432:3549   */\n      iszero\n      tag_464\n      jumpi\n        /* \"#utility.yul\":3468:3547   */\n      tag_465\n      tag_346\n      jump\t// in\n    tag_465:\n        /* \"#utility.yul\":3432:3549   */\n    tag_464:\n        /* \"#utility.yul\":3582:3586   */\n      0x20\n        /* \"#utility.yul\":3574:3580   */\n      dup4\n        /* \"#utility.yul\":3570:3587   */\n      add\n        /* \"#utility.yul\":3558:3587   */\n      swap2\n      pop\n        /* \"#utility.yul\":3636:3639   */\n      dup4\n        /* \"#utility.yul\":3628:3632   */\n      0x01\n        /* \"#utility.yul\":3620:3626   */\n      dup3\n        /* \"#utility.yul\":3616:3633   */\n      mul\n        /* \"#utility.yul\":3606:3614   */\n      dup4\n        /* \"#utility.yul\":3602:3634   */\n      add\n        /* \"#utility.yul\":3599:3640   */\n      gt\n        /* \"#utility.yul\":3596:3724   */\n      iszero\n      tag_466\n      jumpi\n        /* \"#utility.yul\":3643:3722   */\n      tag_467\n      tag_342\n      jump\t// in\n    tag_467:\n        /* \"#utility.yul\":3596:3724   */\n    tag_466:\n        /* \"#utility.yul\":3178:3730   */\n      swap3\n      pop\n      swap3\n      swap1\n      pop\n      jump\t// out\n        /* \"#utility.yul\":3736:4656   */\n    tag_32:\n        /* \"#utility.yul\":3874:3880   */\n      0x00\n        /* \"#utility.yul\":3882:3888   */\n      0x00\n        /* \"#utility.yul\":3890:3896   */\n      0x00\n        /* \"#utility.yul\":3898:3904   */\n      0x00\n        /* \"#utility.yul\":3947:3950   */\n      0x0200\n        /* \"#utility.yul\":3935:3944   */\n      dup6\n        /* \"#utility.yul\":3926:3933   */\n      dup8\n        /* \"#utility.yul\":3922:3945   */\n      sub\n        /* \"#utility.yul\":3918:3951   */\n      slt\n        /* \"#utility.yul\":3915:4035   */\n      iszero\n      tag_469\n      jumpi\n        /* \"#utility.yul\":3954:4033   */\n      tag_470\n      tag_332\n      jump\t// in\n    tag_470:\n        /* \"#utility.yul\":3915:4035   */\n    tag_469:\n        /* \"#utility.yul\":4074:4075   */\n      0x00\n        /* \"#utility.yul\":4099:4177   */\n      tag_471\n        /* \"#utility.yul\":4169:4176   */\n      dup8\n        /* \"#utility.yul\":4160:4166   */\n      dup3\n        /* \"#utility.yul\":4149:4158   */\n      dup9\n        /* \"#utility.yul\":4145:4167   */\n      add\n        /* \"#utility.yul\":4099:4177   */\n      tag_343\n      jump\t// in\n    tag_471:\n        /* \"#utility.yul\":4089:4177   */\n      swap5\n      pop\n        /* \"#utility.yul\":4045:4187   */\n      pop\n        /* \"#utility.yul\":4226:4229   */\n      0x0100\n        /* \"#utility.yul\":4253:4331   */\n      tag_472\n        /* \"#utility.yul\":4323:4330   */\n      dup8\n        /* \"#utility.yul\":4314:4320   */\n      dup3\n        /* \"#utility.yul\":4303:4312   */\n      dup9\n        /* \"#utility.yul\":4299:4321   */\n      add\n        /* \"#utility.yul\":4253:4331   */\n      tag_344\n      jump\t// in\n    tag_472:\n        /* \"#utility.yul\":4243:4331   */\n      swap4\n      pop\n        /* \"#utility.yul\":4197:4341   */\n      pop\n        /* \"#utility.yul\":4408:4411   */\n      0x01e0\n        /* \"#utility.yul\":4397:4406   */\n      dup6\n        /* \"#utility.yul\":4393:4412   */\n      add\n        /* \"#utility.yul\":4380:4413   */\n      calldataload\n        /* \"#utility.yul\":4440:4458   */\n      0xffffffffffffffff\n        /* \"#utility.yul\":4432:4438   */\n      dup2\n        /* \"#utility.yul\":4429:4459   */\n      gt\n        /* \"#utility.yul\":4426:4543   */\n      iszero\n      tag_473\n      jumpi\n        /* \"#utility.yul\":4462:4541   */\n      tag_474\n      tag_333\n      jump\t// in\n    tag_474:\n        /* \"#utility.yul\":4426:4543   */\n    tag_473:\n        /* \"#utility.yul\":4575:4639   */\n      tag_475\n        /* \"#utility.yul\":4631:4638   */\n      dup8\n        /* \"#utility.yul\":4622:4628   */\n      dup3\n        /* \"#utility.yul\":4611:4620   */\n      dup9\n        /* \"#utility.yul\":4607:4629   */\n      add\n        /* \"#utility.yul\":4575:4639   */\n      tag_347\n      jump\t// in\n    tag_475:\n        /* \"#utility.yul\":4557:4639   */\n      swap3\n      pop\n      swap3\n      pop\n        /* \"#utility.yul\":4351:4649   */\n      pop\n        /* \"#utility.yul\":3736:4656   */\n      swap3\n      swap6\n      swap2\n      swap5\n      pop\n      swap3\n      pop\n      jump\t// out\n        /* \"#utility.yul\":4680:4929   */\n    tag_348:\n        /* \"#utility.yul\":4751:4759   */\n      0x00\n        /* \"#utility.yul\":4782:4788   */\n      dup2\n        /* \"#utility.yul\":4770:4788   */\n      swap1\n      pop\n        /* \"#utility.yul\":4835:4838   */\n      dup3\n        /* \"#utility.yul\":4827:4831   */\n      0x20\n        /* \"#utility.yul\":4821:4825   */\n      0x06\n        /* \"#utility.yul\":4817:4832   */\n      mul\n        /* \"#utility.yul\":4807:4815   */\n      dup3\n        /* \"#utility.yul\":4803:4833   */\n      add\n        /* \"#utility.yul\":4800:4839   */\n      gt\n        /* \"#utility.yul\":4797:4923   */\n      iszero\n      tag_477\n      jumpi\n        /* \"#utility.yul\":4842:4921   */\n      tag_478\n      tag_342\n      jump\t// in\n    tag_478:\n        /* \"#utility.yul\":4797:4923   */\n    tag_477:\n        /* \"#utility.yul\":4680:4929   */\n      swap3\n      swap2\n      pop\n      pop\n      jump\t// out\n        /* \"#utility.yul\":4935:5855   */\n    tag_36:\n        /* \"#utility.yul\":5073:5079   */\n      0x00\n        /* \"#utility.yul\":5081:5087   */\n      0x00\n        /* \"#utility.yul\":5089:5095   */\n      0x00\n        /* \"#utility.yul\":5097:5103   */\n      0x00\n        /* \"#utility.yul\":5146:5149   */\n      0x01e0\n        /* \"#utility.yul\":5134:5143   */\n      dup6\n        /* \"#utility.yul\":5125:5132   */\n      dup8\n        /* \"#utility.yul\":5121:5144   */\n      sub\n        /* \"#utility.yul\":5117:5150   */\n      slt\n        /* \"#utility.yul\":5114:5234   */\n      iszero\n      tag_480\n      jumpi\n        /* \"#utility.yul\":5153:5232   */\n      tag_481\n      tag_332\n      jump\t// in\n    tag_481:\n        /* \"#utility.yul\":5114:5234   */\n    tag_480:\n        /* \"#utility.yul\":5273:5274   */\n      0x00\n        /* \"#utility.yul\":5298:5376   */\n      tag_482\n        /* \"#utility.yul\":5368:5375   */\n      dup8\n        /* \"#utility.yul\":5359:5365   */\n      dup3\n        /* \"#utility.yul\":5348:5357   */\n      dup9\n        /* \"#utility.yul\":5344:5366   */\n      add\n        /* \"#utility.yul\":5298:5376   */\n      tag_343\n      jump\t// in\n    tag_482:\n        /* \"#utility.yul\":5288:5376   */\n      swap5\n      pop\n        /* \"#utility.yul\":5244:5386   */\n      pop\n        /* \"#utility.yul\":5425:5428   */\n      0x0100\n        /* \"#utility.yul\":5452:5530   */\n      tag_483\n        /* \"#utility.yul\":5522:5529   */\n      dup8\n        /* \"#utility.yul\":5513:5519   */\n      dup3\n        /* \"#utility.yul\":5502:5511   */\n      dup9\n        /* \"#utility.yul\":5498:5520   */\n      add\n        /* \"#utility.yul\":5452:5530   */\n      tag_348\n      jump\t// in\n    tag_483:\n        /* \"#utility.yul\":5442:5530   */\n      swap4\n      pop\n        /* \"#utility.yul\":5396:5540   */\n      pop\n        /* \"#utility.yul\":5607:5610   */\n      0x01c0\n        /* \"#utility.yul\":5596:5605   */\n      dup6\n        /* \"#utility.yul\":5592:5611   */\n      add\n        /* \"#utility.yul\":5579:5612   */\n      calldataload\n        /* \"#utility.yul\":5639:5657   */\n      0xffffffffffffffff\n        /* \"#utility.yul\":5631:5637   */\n      dup2\n        /* \"#utility.yul\":5628:5658   */\n      gt\n        /* \"#utility.yul\":5625:5742   */\n      iszero\n      tag_484\n      jumpi\n        /* \"#utility.yul\":5661:5740   */\n      tag_485\n      tag_333\n      jump\t// in\n    tag_485:\n        /* \"#utility.yul\":5625:5742   */\n    tag_484:\n        /* \"#utility.yul\":5774:5838   */\n      tag_486\n        /* \"#utility.yul\":5830:5837   */\n      dup8\n        /* \"#utility.yul\":5821:5827   */\n      dup3\n        /* \"#utility.yul\":5810:5819   */\n      dup9\n        /* \"#utility.yul\":5806:5828   */\n      add\n        /* \"#utility.yul\":5774:5838   */\n      tag_347\n      jump\t// in\n    tag_486:\n        /* \"#utility.yul\":5756:5838   */\n      swap3\n      pop\n      swap3\n      pop\n        /* \"#utility.yul\":5550:5848   */\n      pop\n        /* \"#utility.yul\":4935:5855   */\n      swap3\n      swap6\n      swap2\n      swap5\n      pop\n      swap3\n      pop\n      jump\t// out\n        /* \"#utility.yul\":5861:6626   */\n    tag_40:\n        /* \"#utility.yul\":5947:5953   */\n      0x00\n        /* \"#utility.yul\":5955:5961   */\n      0x00\n        /* \"#utility.yul\":5963:5969   */\n      0x00\n        /* \"#utility.yul\":5971:5977   */\n      0x00\n        /* \"#utility.yul\":6020:6023   */\n      0x80\n        /* \"#utility.yul\":6008:6017   */\n      dup6\n        /* \"#utility.yul\":5999:6006   */\n      dup8\n        /* \"#utility.yul\":5995:6018   */\n      sub\n        /* \"#utility.yul\":5991:6024   */\n      slt\n        /* \"#utility.yul\":5988:6108   */\n      iszero\n      tag_488\n      jumpi\n        /* \"#utility.yul\":6027:6106   */\n      tag_489\n      tag_332\n      jump\t// in\n    tag_489:\n        /* \"#utility.yul\":5988:6108   */\n    tag_488:\n        /* \"#utility.yul\":6147:6148   */\n      0x00\n        /* \"#utility.yul\":6172:6225   */\n      tag_490\n        /* \"#utility.yul\":6217:6224   */\n      dup8\n        /* \"#utility.yul\":6208:6214   */\n      dup3\n        /* \"#utility.yul\":6197:6206   */\n      dup9\n        /* \"#utility.yul\":6193:6215   */\n      add\n        /* \"#utility.yul\":6172:6225   */\n      tag_336\n      jump\t// in\n    tag_490:\n        /* \"#utility.yul\":6162:6225   */\n      swap5\n      pop\n        /* \"#utility.yul\":6118:6235   */\n      pop\n        /* \"#utility.yul\":6274:6276   */\n      0x20\n        /* \"#utility.yul\":6300:6353   */\n      tag_491\n        /* \"#utility.yul\":6345:6352   */\n      dup8\n        /* \"#utility.yul\":6336:6342   */\n      dup3\n        /* \"#utility.yul\":6325:6334   */\n      dup9\n        /* \"#utility.yul\":6321:6343   */\n      add\n        /* \"#utility.yul\":6300:6353   */\n      tag_336\n      jump\t// in\n    tag_491:\n        /* \"#utility.yul\":6290:6353   */\n      swap4\n      pop\n        /* \"#utility.yul\":6245:6363   */\n      pop\n        /* \"#utility.yul\":6402:6404   */\n      0x40\n        /* \"#utility.yul\":6428:6481   */\n      tag_492\n        /* \"#utility.yul\":6473:6480   */\n      dup8\n        /* \"#utility.yul\":6464:6470   */\n      dup3\n        /* \"#utility.yul\":6453:6462   */\n      dup9\n        /* \"#utility.yul\":6449:6471   */\n      add\n        /* \"#utility.yul\":6428:6481   */\n      tag_336\n      jump\t// in\n    tag_492:\n        /* \"#utility.yul\":6418:6481   */\n      swap3\n      pop\n        /* \"#utility.yul\":6373:6491   */\n      pop\n        /* \"#utility.yul\":6530:6532   */\n      0x60\n        /* \"#utility.yul\":6556:6609   */\n      tag_493\n        /* \"#utility.yul\":6601:6608   */\n      dup8\n        /* \"#utility.yul\":6592:6598   */\n      dup3\n        /* \"#utility.yul\":6581:6590   */\n      dup9\n        /* \"#utility.yul\":6577:6599   */\n      add\n        /* \"#utility.yul\":6556:6609   */\n      tag_336\n      jump\t// in\n    tag_493:\n        /* \"#utility.yul\":6546:6609   */\n      swap2\n      pop\n        /* \"#utility.yul\":6501:6619   */\n      pop\n        /* \"#utility.yul\":5861:6626   */\n      swap3\n      swap6\n      swap2\n      swap5\n      pop\n      swap3\n      pop\n      jump\t// out\n        /* \"#utility.yul\":6632:6758   */\n    tag_349:\n        /* \"#utility.yul\":6669:6676   */\n      0x00\n        /* \"#utility.yul\":6709:6751   */\n      0xffffffffffffffffffffffffffffffffffffffff\n        /* \"#utility.yul\":6702:6707   */\n      dup3\n        /* \"#utility.yul\":6698:6752   */\n      and\n        /* \"#utility.yul\":6687:6752   */\n      swap1\n      pop\n        /* \"#utility.yul\":6632:6758   */\n      swap2\n      swap1\n      pop\n      jump\t// out\n        /* \"#utility.yul\":6764:6860   */\n    tag_350:\n        /* \"#utility.yul\":6801:6808   */\n      0x00\n        /* \"#utility.yul\":6830:6854   */\n      tag_496\n        /* \"#utility.yul\":6848:6853   */\n      dup3\n        /* \"#utility.yul\":6830:6854   */\n      tag_349\n      jump\t// in\n    tag_496:\n        /* \"#utility.yul\":6819:6854   */\n      swap1\n      pop\n        /* \"#utility.yul\":6764:6860   */\n      swap2\n      swap1\n      pop\n      jump\t// out\n        /* \"#utility.yul\":6866:6984   */\n    tag_351:\n        /* \"#utility.yul\":6953:6977   */\n      tag_498\n        /* \"#utility.yul\":6971:6976   */\n      dup2\n        /* \"#utility.yul\":6953:6977   */\n      tag_350\n      jump\t// in\n    tag_498:\n        /* \"#utility.yul\":6948:6951   */\n      dup3\n        /* \"#utility.yul\":6941:6978   */\n      mstore\n        /* \"#utility.yul\":6866:6984   */\n      pop\n      pop\n      jump\t// out\n        /* \"#utility.yul\":6990:7212   */\n    tag_43:\n        /* \"#utility.yul\":7083:7087   */\n      0x00\n        /* \"#utility.yul\":7121:7123   */\n      0x20\n        /* \"#utility.yul\":7110:7119   */\n      dup3\n        /* \"#utility.yul\":7106:7124   */\n      add\n        /* \"#utility.yul\":7098:7124   */\n      swap1\n      pop\n        /* \"#utility.yul\":7134:7205   */\n      tag_500\n        /* \"#utility.yul\":7202:7203   */\n      0x00\n        /* \"#utility.yul\":7191:7200   */\n      dup4\n        /* \"#utility.yul\":7187:7204   */\n      add\n        /* \"#utility.yul\":7178:7184   */\n      dup5\n        /* \"#utility.yul\":7134:7205   */\n      tag_351\n      jump\t// in\n    tag_500:\n        /* \"#utility.yul\":6990:7212   */\n      swap3\n      swap2\n      pop\n      pop\n      jump\t// out\n        /* \"#utility.yul\":7218:7278   */\n    tag_352:\n        /* \"#utility.yul\":7246:7249   */\n      0x00\n        /* \"#utility.yul\":7267:7272   */\n      dup2\n        /* \"#utility.yul\":7260:7272   */\n      swap1\n      pop\n        /* \"#utility.yul\":7218:7278   */\n      swap2\n      swap1\n      pop\n      jump\t// out\n        /* \"#utility.yul\":7284:7426   */\n    tag_353:\n        /* \"#utility.yul\":7334:7343   */\n      0x00\n        /* \"#utility.yul\":7367:7420   */\n      tag_503\n        /* \"#utility.yul\":7385:7419   */\n      tag_504\n        /* \"#utility.yul\":7394:7418   */\n      tag_505\n        /* \"#utility.yul\":7412:7417   */\n      dup5\n        /* \"#utility.yul\":7394:7418   */\n      tag_349\n      jump\t// in\n    tag_505:\n        /* \"#utility.yul\":7385:7419   */\n      tag_352\n      jump\t// in\n    tag_504:\n        /* \"#utility.yul\":7367:7420   */\n      tag_349\n      jump\t// in\n    tag_503:\n        /* \"#utility.yul\":7354:7420   */\n      swap1\n      pop\n        /* \"#utility.yul\":7284:7426   */\n      swap2\n      swap1\n      pop\n      jump\t// out\n        /* \"#utility.yul\":7432:7558   */\n    tag_354:\n        /* \"#utility.yul\":7482:7491   */\n      0x00\n        /* \"#utility.yul\":7515:7552   */\n      tag_507\n        /* \"#utility.yul\":7546:7551   */\n      dup3\n        /* \"#utility.yul\":7515:7552   */\n      tag_353\n      jump\t// in\n    tag_507:\n        /* \"#utility.yul\":7502:7552   */\n      swap1\n      pop\n        /* \"#utility.yul\":7432:7558   */\n      swap2\n      swap1\n      pop\n      jump\t// out\n        /* \"#utility.yul\":7564:7715   */\n    tag_355:\n        /* \"#utility.yul\":7639:7648   */\n      0x00\n        /* \"#utility.yul\":7672:7709   */\n      tag_509\n        /* \"#utility.yul\":7703:7708   */\n      dup3\n        /* \"#utility.yul\":7672:7709   */\n      tag_354\n      jump\t// in\n    tag_509:\n        /* \"#utility.yul\":7659:7709   */\n      swap1\n      pop\n        /* \"#utility.yul\":7564:7715   */\n      swap2\n      swap1\n      pop\n      jump\t// out\n        /* \"#utility.yul\":7721:7902   */\n    tag_356:\n        /* \"#utility.yul\":7833:7895   */\n      tag_511\n        /* \"#utility.yul\":7889:7894   */\n      dup2\n        /* \"#utility.yul\":7833:7895   */\n      tag_355\n      jump\t// in\n    tag_511:\n        /* \"#utility.yul\":7828:7831   */\n      dup3\n        /* \"#utility.yul\":7821:7896   */\n      mstore\n        /* \"#utility.yul\":7721:7902   */\n      pop\n      pop\n      jump\t// out\n        /* \"#utility.yul\":7908:8180   */\n    tag_47:\n        /* \"#utility.yul\":8026:8030   */\n      0x00\n        /* \"#utility.yul\":8064:8066   */\n      0x20\n        /* \"#utility.yul\":8053:8062   */\n      dup3\n        /* \"#utility.yul\":8049:8067   */\n      add\n        /* \"#utility.yul\":8041:8067   */\n      swap1\n      pop\n        /* \"#utility.yul\":8077:8173   */\n      tag_513\n        /* \"#utility.yul\":8170:8171   */\n      0x00\n        /* \"#utility.yul\":8159:8168   */\n      dup4\n        /* \"#utility.yul\":8155:8172   */\n      add\n        /* \"#utility.yul\":8146:8152   */\n      dup5\n        /* \"#utility.yul\":8077:8173   */\n      tag_356\n      jump\t// in\n    tag_513:\n        /* \"#utility.yul\":7908:8180   */\n      swap3\n      swap2\n      pop\n      pop\n      jump\t// out\n        /* \"#utility.yul\":8186:8263   */\n    tag_357:\n        /* \"#utility.yul\":8223:8230   */\n      0x00\n        /* \"#utility.yul\":8252:8257   */\n      dup2\n        /* \"#utility.yul\":8241:8257   */\n      swap1\n      pop\n        /* \"#utility.yul\":8186:8263   */\n      swap2\n      swap1\n      pop\n      jump\t// out\n        /* \"#utility.yul\":8269:8391   */\n    tag_358:\n        /* \"#utility.yul\":8342:8366   */\n      tag_516\n        /* \"#utility.yul\":8360:8365   */\n      dup2\n        /* \"#utility.yul\":8342:8366   */\n      tag_357\n      jump\t// in\n    tag_516:\n        /* \"#utility.yul\":8335:8340   */\n      dup2\n        /* \"#utility.yul\":8332:8367   */\n      eq\n        /* \"#utility.yul\":8322:8385   */\n      tag_517\n      jumpi\n        /* \"#utility.yul\":8381:8382   */\n      0x00\n        /* \"#utility.yul\":8378:8379   */\n      0x00\n        /* \"#utility.yul\":8371:8383   */\n      revert\n        /* \"#utility.yul\":8322:8385   */\n    tag_517:\n        /* \"#utility.yul\":8269:8391   */\n      pop\n      jump\t// out\n        /* \"#utility.yul\":8397:8536   */\n    tag_359:\n        /* \"#utility.yul\":8443:8448   */\n      0x00\n        /* \"#utility.yul\":8481:8487   */\n      dup2\n        /* \"#utility.yul\":8468:8488   */\n      calldataload\n        /* \"#utility.yul\":8459:8488   */\n      swap1\n      pop\n        /* \"#utility.yul\":8497:8530   */\n      tag_519\n        /* \"#utility.yul\":8524:8529   */\n      dup2\n        /* \"#utility.yul\":8497:8530   */\n      tag_358\n      jump\t// in\n    tag_519:\n        /* \"#utility.yul\":8397:8536   */\n      swap3\n      swap2\n      pop\n      pop\n      jump\t// out\n        /* \"#utility.yul\":8542:8659   */\n    tag_360:\n        /* \"#utility.yul\":8651:8652   */\n      0x00\n        /* \"#utility.yul\":8648:8649   */\n      0x00\n        /* \"#utility.yul\":8641:8653   */\n      revert\n        /* \"#utility.yul\":8665:8845   */\n    tag_220:\n        /* \"#utility.yul\":8713:8790   */\n      0x4e487b7100000000000000000000000000000000000000000000000000000000\n        /* \"#utility.yul\":8710:8711   */\n      0x00\n        /* \"#utility.yul\":8703:8791   */\n      mstore\n        /* \"#utility.yul\":8810:8814   */\n      0x41\n        /* \"#utility.yul\":8807:8808   */\n      0x04\n        /* \"#utility.yul\":8800:8815   */\n      mstore\n        /* \"#utility.yul\":8834:8838   */\n      0x24\n        /* \"#utility.yul\":8831:8832   */\n      0x00\n        /* \"#utility.yul\":8824:8839   */\n      revert\n        /* \"#utility.yul\":8851:9132   */\n    tag_361:\n        /* \"#utility.yul\":8934:8961   */\n      tag_523\n        /* \"#utility.yul\":8956:8960   */\n      dup3\n        /* \"#utility.yul\":8934:8961   */\n      tag_340\n      jump\t// in\n    tag_523:\n        /* \"#utility.yul\":8926:8932   */\n      dup2\n        /* \"#utility.yul\":8922:8962   */\n      add\n        /* \"#utility.yul\":9064:9070   */\n      dup2\n        /* \"#utility.yul\":9052:9062   */\n      dup2\n        /* \"#utility.yul\":9049:9071   */\n      lt\n        /* \"#utility.yul\":9028:9046   */\n      0xffffffffffffffff\n        /* \"#utility.yul\":9016:9026   */\n      dup3\n        /* \"#utility.yul\":9013:9047   */\n      gt\n        /* \"#utility.yul\":9010:9072   */\n      or\n        /* \"#utility.yul\":9007:9095   */\n      iszero\n      tag_524\n      jumpi\n        /* \"#utility.yul\":9075:9093   */\n      tag_525\n      tag_220\n      jump\t// in\n    tag_525:\n        /* \"#utility.yul\":9007:9095   */\n    tag_524:\n        /* \"#utility.yul\":9115:9125   */\n      dup1\n        /* \"#utility.yul\":9111:9113   */\n      0x40\n        /* \"#utility.yul\":9104:9126   */\n      mstore\n        /* \"#utility.yul\":8894:9132   */\n      pop\n        /* \"#utility.yul\":8851:9132   */\n      pop\n      pop\n      jump\t// out\n        /* \"#utility.yul\":9138:9267   */\n    tag_362:\n        /* \"#utility.yul\":9172:9178   */\n      0x00\n        /* \"#utility.yul\":9199:9219   */\n      tag_527\n      tag_331\n      jump\t// in\n    tag_527:\n        /* \"#utility.yul\":9189:9219   */\n      swap1\n      pop\n        /* \"#utility.yul\":9228:9261   */\n      tag_528\n        /* \"#utility.yul\":9256:9260   */\n      dup3\n        /* \"#utility.yul\":9248:9254   */\n      dup3\n        /* \"#utility.yul\":9228:9261   */\n      tag_361\n      jump\t// in\n    tag_528:\n        /* \"#utility.yul\":9138:9267   */\n      swap2\n      swap1\n      pop\n      jump\t// out\n        /* \"#utility.yul\":9273:9580   */\n    tag_363:\n        /* \"#utility.yul\":9334:9338   */\n      0x00\n        /* \"#utility.yul\":9424:9442   */\n      0xffffffffffffffff\n        /* \"#utility.yul\":9416:9422   */\n      dup3\n        /* \"#utility.yul\":9413:9443   */\n      gt\n        /* \"#utility.yul\":9410:9466   */\n      iszero\n      tag_530\n      jumpi\n        /* \"#utility.yul\":9446:9464   */\n      tag_531\n      tag_220\n      jump\t// in\n    tag_531:\n        /* \"#utility.yul\":9410:9466   */\n    tag_530:\n        /* \"#utility.yul\":9484:9513   */\n      tag_532\n        /* \"#utility.yul\":9506:9512   */\n      dup3\n        /* \"#utility.yul\":9484:9513   */\n      tag_340\n      jump\t// in\n    tag_532:\n        /* \"#utility.yul\":9476:9513   */\n      swap1\n      pop\n        /* \"#utility.yul\":9568:9572   */\n      0x20\n        /* \"#utility.yul\":9562:9566   */\n      dup2\n        /* \"#utility.yul\":9558:9573   */\n      add\n        /* \"#utility.yul\":9550:9573   */\n      swap1\n      pop\n        /* \"#utility.yul\":9273:9580   */\n      swap2\n      swap1\n      pop\n      jump\t// out\n        /* \"#utility.yul\":9586:9734   */\n    tag_364:\n        /* \"#utility.yul\":9684:9690   */\n      dup3\n        /* \"#utility.yul\":9679:9682   */\n      dup2\n        /* \"#utility.yul\":9674:9677   */\n      dup4\n        /* \"#utility.yul\":9661:9691   */\n      calldatacopy\n        /* \"#utility.yul\":9725:9726   */\n      0x00\n        /* \"#utility.yul\":9716:9722   */\n      dup4\n        /* \"#utility.yul\":9711:9714   */\n      dup4\n        /* \"#utility.yul\":9707:9723   */\n      add\n        /* \"#utility.yul\":9700:9727   */\n      mstore\n        /* \"#utility.yul\":9586:9734   */\n      pop\n      pop\n      pop\n      jump\t// out\n        /* \"#utility.yul\":9740:10163   */\n    tag_365:\n        /* \"#utility.yul\":9817:9822   */\n      0x00\n        /* \"#utility.yul\":9842:9907   */\n      tag_535\n        /* \"#utility.yul\":9858:9906   */\n      tag_536\n        /* \"#utility.yul\":9899:9905   */\n      dup5\n        /* \"#utility.yul\":9858:9906   */\n      tag_363\n      jump\t// in\n    tag_536:\n        /* \"#utility.yul\":9842:9907   */\n      tag_362\n      jump\t// in\n    tag_535:\n        /* \"#utility.yul\":9833:9907   */\n      swap1\n      pop\n        /* \"#utility.yul\":9930:9936   */\n      dup3\n        /* \"#utility.yul\":9923:9928   */\n      dup2\n        /* \"#utility.yul\":9916:9937   */\n      mstore\n        /* \"#utility.yul\":9968:9972   */\n      0x20\n        /* \"#utility.yul\":9961:9966   */\n      dup2\n        /* \"#utility.yul\":9957:9973   */\n      add\n        /* \"#utility.yul\":10006:10009   */\n      dup5\n        /* \"#utility.yul\":9997:10003   */\n      dup5\n        /* \"#utility.yul\":9992:9995   */\n      dup5\n        /* \"#utility.yul\":9988:10004   */\n      add\n        /* \"#utility.yul\":9985:10010   */\n      gt\n        /* \"#utility.yul\":9982:10094   */\n      iszero\n      tag_537\n      jumpi\n        /* \"#utility.yul\":10013:10092   */\n      tag_538\n      tag_360\n      jump\t// in\n    tag_538:\n        /* \"#utility.yul\":9982:10094   */\n    tag_537:\n        /* \"#utility.yul\":10103:10157   */\n      tag_539\n        /* \"#utility.yul\":10150:10156   */\n      dup5\n        /* \"#utility.yul\":10145:10148   */\n      dup3\n        /* \"#utility.yul\":10140:10143   */\n      dup6\n        /* \"#utility.yul\":10103:10157   */\n      tag_364\n      jump\t// in\n    tag_539:\n        /* \"#utility.yul\":9823:10163   */\n      pop\n        /* \"#utility.yul\":9740:10163   */\n      swap4\n      swap3\n      pop\n      pop\n      pop\n      jump\t// out\n        /* \"#utility.yul\":10182:10520   */\n    tag_366:\n        /* \"#utility.yul\":10237:10242   */\n      0x00\n        /* \"#utility.yul\":10286:10289   */\n      dup3\n        /* \"#utility.yul\":10279:10283   */\n      0x1f\n        /* \"#utility.yul\":10271:10277   */\n      dup4\n        /* \"#utility.yul\":10267:10284   */\n      add\n        /* \"#utility.yul\":10263:10290   */\n      slt\n        /* \"#utility.yul\":10253:10375   */\n      tag_541\n      jumpi\n        /* \"#utility.yul\":10294:10373   */\n      tag_542\n      tag_345\n      jump\t// in\n    tag_542:\n        /* \"#utility.yul\":10253:10375   */\n    tag_541:\n        /* \"#utility.yul\":10411:10417   */\n      dup2\n        /* \"#utility.yul\":10398:10418   */\n      calldataload\n        /* \"#utility.yul\":10436:10514   */\n      tag_543\n        /* \"#utility.yul\":10510:10513   */\n      dup5\n        /* \"#utility.yul\":10502:10508   */\n      dup3\n        /* \"#utility.yul\":10495:10499   */\n      0x20\n        /* \"#utility.yul\":10487:10493   */\n      dup7\n        /* \"#utility.yul\":10483:10500   */\n      add\n        /* \"#utility.yul\":10436:10514   */\n      tag_365\n      jump\t// in\n    tag_543:\n        /* \"#utility.yul\":10427:10514   */\n      swap2\n      pop\n        /* \"#utility.yul\":10243:10520   */\n      pop\n        /* \"#utility.yul\":10182:10520   */\n      swap3\n      swap2\n      pop\n      pop\n      jump\t// out\n        /* \"#utility.yul\":10526:11178   */\n    tag_62:\n        /* \"#utility.yul\":10603:10609   */\n      0x00\n        /* \"#utility.yul\":10611:10617   */\n      0x00\n        /* \"#utility.yul\":10660:10662   */\n      0x40\n        /* \"#utility.yul\":10648:10657   */\n      dup4\n        /* \"#utility.yul\":10639:10646   */\n      dup6\n        /* \"#utility.yul\":10635:10658   */\n      sub\n        /* \"#utility.yul\":10631:10663   */\n      slt\n        /* \"#utility.yul\":10628:10747   */\n      iszero\n      tag_545\n      jumpi\n        /* \"#utility.yul\":10666:10745   */\n      tag_546\n      tag_332\n      jump\t// in\n    tag_546:\n        /* \"#utility.yul\":10628:10747   */\n    tag_545:\n        /* \"#utility.yul\":10786:10787   */\n      0x00\n        /* \"#utility.yul\":10811:10864   */\n      tag_547\n        /* \"#utility.yul\":10856:10863   */\n      dup6\n        /* \"#utility.yul\":10847:10853   */\n      dup3\n        /* \"#utility.yul\":10836:10845   */\n      dup7\n        /* \"#utility.yul\":10832:10854   */\n      add\n        /* \"#utility.yul\":10811:10864   */\n      tag_359\n      jump\t// in\n    tag_547:\n        /* \"#utility.yul\":10801:10864   */\n      swap3\n      pop\n        /* \"#utility.yul\":10757:10874   */\n      pop\n        /* \"#utility.yul\":10941:10943   */\n      0x20\n        /* \"#utility.yul\":10930:10939   */\n      dup4\n        /* \"#utility.yul\":10926:10944   */\n      add\n        /* \"#utility.yul\":10913:10945   */\n      calldataload\n        /* \"#utility.yul\":10972:10990   */\n      0xffffffffffffffff\n        /* \"#utility.yul\":10964:10970   */\n      dup2\n        /* \"#utility.yul\":10961:10991   */\n      gt\n        /* \"#utility.yul\":10958:11075   */\n      iszero\n      tag_548\n      jumpi\n        /* \"#utility.yul\":10994:11073   */\n      tag_549\n      tag_333\n      jump\t// in\n    tag_549:\n        /* \"#utility.yul\":10958:11075   */\n    tag_548:\n        /* \"#utility.yul\":11099:11161   */\n      tag_550\n        /* \"#utility.yul\":11153:11160   */\n      dup6\n        /* \"#utility.yul\":11144:11150   */\n      dup3\n        /* \"#utility.yul\":11133:11142   */\n      dup7\n        /* \"#utility.yul\":11129:11151   */\n      add\n        /* \"#utility.yul\":11099:11161   */\n      tag_366\n      jump\t// in\n    tag_550:\n        /* \"#utility.yul\":11089:11161   */\n      swap2\n      pop\n        /* \"#utility.yul\":10884:11171   */\n      pop\n        /* \"#utility.yul\":10526:11178   */\n      swap3\n      pop\n      swap3\n      swap1\n      pop\n      jump\t// out\n        /* \"#utility.yul\":11184:11274   */\n    tag_367:\n        /* \"#utility.yul\":11218:11225   */\n      0x00\n        /* \"#utility.yul\":11261:11266   */\n      dup2\n        /* \"#utility.yul\":11254:11267   */\n      iszero\n        /* \"#utility.yul\":11247:11268   */\n      iszero\n        /* \"#utility.yul\":11236:11268   */\n      swap1\n      pop\n        /* \"#utility.yul\":11184:11274   */\n      swap2\n      swap1\n      pop\n      jump\t// out\n        /* \"#utility.yul\":11280:11389   */\n    tag_368:\n        /* \"#utility.yul\":11361:11382   */\n      tag_553\n        /* \"#utility.yul\":11376:11381   */\n      dup2\n        /* \"#utility.yul\":11361:11382   */\n      tag_367\n      jump\t// in\n    tag_553:\n        /* \"#utility.yul\":11356:11359   */\n      dup3\n        /* \"#utility.yul\":11349:11383   */\n      mstore\n        /* \"#utility.yul\":11280:11389   */\n      pop\n      pop\n      jump\t// out\n        /* \"#utility.yul\":11395:11605   */\n    tag_69:\n        /* \"#utility.yul\":11482:11486   */\n      0x00\n        /* \"#utility.yul\":11520:11522   */\n      0x20\n        /* \"#utility.yul\":11509:11518   */\n      dup3\n        /* \"#utility.yul\":11505:11523   */\n      add\n        /* \"#utility.yul\":11497:11523   */\n      swap1\n      pop\n        /* \"#utility.yul\":11533:11598   */\n      tag_555\n        /* \"#utility.yul\":11595:11596   */\n      0x00\n        /* \"#utility.yul\":11584:11593   */\n      dup4\n        /* \"#utility.yul\":11580:11597   */\n      add\n        /* \"#utility.yul\":11571:11577   */\n      dup5\n        /* \"#utility.yul\":11533:11598   */\n      tag_368\n      jump\t// in\n    tag_555:\n        /* \"#utility.yul\":11395:11605   */\n      swap3\n      swap2\n      pop\n      pop\n      jump\t// out\n        /* \"#utility.yul\":11611:11756   */\n    tag_369:\n        /* \"#utility.yul\":11680:11689   */\n      0x00\n        /* \"#utility.yul\":11713:11750   */\n      tag_557\n        /* \"#utility.yul\":11744:11749   */\n      dup3\n        /* \"#utility.yul\":11713:11750   */\n      tag_354\n      jump\t// in\n    tag_557:\n        /* \"#utility.yul\":11700:11750   */\n      swap1\n      pop\n        /* \"#utility.yul\":11611:11756   */\n      swap2\n      swap1\n      pop\n      jump\t// out\n        /* \"#utility.yul\":11762:11931   */\n    tag_370:\n        /* \"#utility.yul\":11868:11924   */\n      tag_559\n        /* \"#utility.yul\":11918:11923   */\n      dup2\n        /* \"#utility.yul\":11868:11924   */\n      tag_369\n      jump\t// in\n    tag_559:\n        /* \"#utility.yul\":11863:11866   */\n      dup3\n        /* \"#utility.yul\":11856:11925   */\n      mstore\n        /* \"#utility.yul\":11762:11931   */\n      pop\n      pop\n      jump\t// out\n        /* \"#utility.yul\":11937:12197   */\n    tag_73:\n        /* \"#utility.yul\":12049:12053   */\n      0x00\n        /* \"#utility.yul\":12087:12089   */\n      0x20\n        /* \"#utility.yul\":12076:12085   */\n      dup3\n        /* \"#utility.yul\":12072:12090   */\n      add\n        /* \"#utility.yul\":12064:12090   */\n      swap1\n      pop\n        /* \"#utility.yul\":12100:12190   */\n      tag_561\n        /* \"#utility.yul\":12187:12188   */\n      0x00\n        /* \"#utility.yul\":12176:12185   */\n      dup4\n        /* \"#utility.yul\":12172:12189   */\n      add\n        /* \"#utility.yul\":12163:12169   */\n      dup5\n        /* \"#utility.yul\":12100:12190   */\n      tag_370\n      jump\t// in\n    tag_561:\n        /* \"#utility.yul\":11937:12197   */\n      swap3\n      swap2\n      pop\n      pop\n      jump\t// out\n        /* \"#utility.yul\":12203:12355   */\n    tag_371:\n        /* \"#utility.yul\":12279:12288   */\n      0x00\n        /* \"#utility.yul\":12312:12349   */\n      tag_563\n        /* \"#utility.yul\":12343:12348   */\n      dup3\n        /* \"#utility.yul\":12312:12349   */\n      tag_354\n      jump\t// in\n    tag_563:\n        /* \"#utility.yul\":12299:12349   */\n      swap1\n      pop\n        /* \"#utility.yul\":12203:12355   */\n      swap2\n      swap1\n      pop\n      jump\t// out\n        /* \"#utility.yul\":12361:12544   */\n    tag_372:\n        /* \"#utility.yul\":12474:12537   */\n      tag_565\n        /* \"#utility.yul\":12531:12536   */\n      dup2\n        /* \"#utility.yul\":12474:12537   */\n      tag_371\n      jump\t// in\n    tag_565:\n        /* \"#utility.yul\":12469:12472   */\n      dup3\n        /* \"#utility.yul\":12462:12538   */\n      mstore\n        /* \"#utility.yul\":12361:12544   */\n      pop\n      pop\n      jump\t// out\n        /* \"#utility.yul\":12550:12824   */\n    tag_77:\n        /* \"#utility.yul\":12669:12673   */\n      0x00\n        /* \"#utility.yul\":12707:12709   */\n      0x20\n        /* \"#utility.yul\":12696:12705   */\n      dup3\n        /* \"#utility.yul\":12692:12710   */\n      add\n        /* \"#utility.yul\":12684:12710   */\n      swap1\n      pop\n        /* \"#utility.yul\":12720:12817   */\n      tag_567\n        /* \"#utility.yul\":12814:12815   */\n      0x00\n        /* \"#utility.yul\":12803:12812   */\n      dup4\n        /* \"#utility.yul\":12799:12816   */\n      add\n        /* \"#utility.yul\":12790:12796   */\n      dup5\n        /* \"#utility.yul\":12720:12817   */\n      tag_372\n      jump\t// in\n    tag_567:\n        /* \"#utility.yul\":12550:12824   */\n      swap3\n      swap2\n      pop\n      pop\n      jump\t// out\n        /* \"#utility.yul\":12830:12929   */\n    tag_373:\n        /* \"#utility.yul\":12882:12888   */\n      0x00\n        /* \"#utility.yul\":12916:12921   */\n      dup2\n        /* \"#utility.yul\":12910:12922   */\n      mload\n        /* \"#utility.yul\":12900:12922   */\n      swap1\n      pop\n        /* \"#utility.yul\":12830:12929   */\n      swap2\n      swap1\n      pop\n      jump\t// out\n        /* \"#utility.yul\":12935:13104   */\n    tag_374:\n        /* \"#utility.yul\":13019:13030   */\n      0x00\n        /* \"#utility.yul\":13053:13059   */\n      dup3\n        /* \"#utility.yul\":13048:13051   */\n      dup3\n        /* \"#utility.yul\":13041:13060   */\n      mstore\n        /* \"#utility.yul\":13093:13097   */\n      0x20\n        /* \"#utility.yul\":13088:13091   */\n      dup3\n        /* \"#utility.yul\":13084:13098   */\n      add\n        /* \"#utility.yul\":13069:13098   */\n      swap1\n      pop\n        /* \"#utility.yul\":12935:13104   */\n      swap3\n      swap2\n      pop\n      pop\n      jump\t// out\n        /* \"#utility.yul\":13110:13487   */\n    tag_375:\n        /* \"#utility.yul\":13198:13201   */\n      0x00\n        /* \"#utility.yul\":13226:13265   */\n      tag_571\n        /* \"#utility.yul\":13259:13264   */\n      dup3\n        /* \"#utility.yul\":13226:13265   */\n      tag_373\n      jump\t// in\n    tag_571:\n        /* \"#utility.yul\":13281:13352   */\n      tag_572\n        /* \"#utility.yul\":13345:13351   */\n      dup2\n        /* \"#utility.yul\":13340:13343   */\n      dup6\n        /* \"#utility.yul\":13281:13352   */\n      tag_374\n      jump\t// in\n    tag_572:\n        /* \"#utility.yul\":13274:13352   */\n      swap4\n      pop\n        /* \"#utility.yul\":13361:13426   */\n      tag_573\n        /* \"#utility.yul\":13419:13425   */\n      dup2\n        /* \"#utility.yul\":13414:13417   */\n      dup6\n        /* \"#utility.yul\":13407:13411   */\n      0x20\n        /* \"#utility.yul\":13400:13405   */\n      dup7\n        /* \"#utility.yul\":13396:13412   */\n      add\n        /* \"#utility.yul\":13361:13426   */\n      tag_339\n      jump\t// in\n    tag_573:\n        /* \"#utility.yul\":13451:13480   */\n      tag_574\n        /* \"#utility.yul\":13473:13479   */\n      dup2\n        /* \"#utility.yul\":13451:13480   */\n      tag_340\n      jump\t// in\n    tag_574:\n        /* \"#utility.yul\":13446:13449   */\n      dup5\n        /* \"#utility.yul\":13442:13481   */\n      add\n        /* \"#utility.yul\":13435:13481   */\n      swap2\n      pop\n        /* \"#utility.yul\":13202:13487   */\n      pop\n        /* \"#utility.yul\":13110:13487   */\n      swap3\n      swap2\n      pop\n      pop\n      jump\t// out\n        /* \"#utility.yul\":13493:13806   */\n    tag_82:\n        /* \"#utility.yul\":13606:13610   */\n      0x00\n        /* \"#utility.yul\":13644:13646   */\n      0x20\n        /* \"#utility.yul\":13633:13642   */\n      dup3\n        /* \"#utility.yul\":13629:13647   */\n      add\n        /* \"#utility.yul\":13621:13647   */\n      swap1\n      pop\n        /* \"#utility.yul\":13693:13702   */\n      dup2\n        /* \"#utility.yul\":13687:13691   */\n      dup2\n        /* \"#utility.yul\":13683:13703   */\n      sub\n        /* \"#utility.yul\":13679:13680   */\n      0x00\n        /* \"#utility.yul\":13668:13677   */\n      dup4\n        /* \"#utility.yul\":13664:13681   */\n      add\n        /* \"#utility.yul\":13657:13704   */\n      mstore\n        /* \"#utility.yul\":13721:13799   */\n      tag_576\n        /* \"#utility.yul\":13794:13798   */\n      dup2\n        /* \"#utility.yul\":13785:13791   */\n      dup5\n        /* \"#utility.yul\":13721:13799   */\n      tag_375\n      jump\t// in\n    tag_576:\n        /* \"#utility.yul\":13713:13799   */\n      swap1\n      pop\n        /* \"#utility.yul\":13493:13806   */\n      swap3\n      swap2\n      pop\n      pop\n      jump\t// out\n        /* \"#utility.yul\":13812:13956   */\n    tag_376:\n        /* \"#utility.yul\":13880:13889   */\n      0x00\n        /* \"#utility.yul\":13913:13950   */\n      tag_578\n        /* \"#utility.yul\":13944:13949   */\n      dup3\n        /* \"#utility.yul\":13913:13950   */\n      tag_354\n      jump\t// in\n    tag_578:\n        /* \"#utility.yul\":13900:13950   */\n      swap1\n      pop\n        /* \"#utility.yul\":13812:13956   */\n      swap2\n      swap1\n      pop\n      jump\t// out\n        /* \"#utility.yul\":13962:14129   */\n    tag_377:\n        /* \"#utility.yul\":14067:14122   */\n      tag_580\n        /* \"#utility.yul\":14116:14121   */\n      dup2\n        /* \"#utility.yul\":14067:14122   */\n      tag_376\n      jump\t// in\n    tag_580:\n        /* \"#utility.yul\":14062:14065   */\n      dup3\n        /* \"#utility.yul\":14055:14123   */\n      mstore\n        /* \"#utility.yul\":13962:14129   */\n      pop\n      pop\n      jump\t// out\n        /* \"#utility.yul\":14135:14393   */\n    tag_86:\n        /* \"#utility.yul\":14246:14250   */\n      0x00\n        /* \"#utility.yul\":14284:14286   */\n      0x20\n        /* \"#utility.yul\":14273:14282   */\n      dup3\n        /* \"#utility.yul\":14269:14287   */\n      add\n        /* \"#utility.yul\":14261:14287   */\n      swap1\n      pop\n        /* \"#utility.yul\":14297:14386   */\n      tag_582\n        /* \"#utility.yul\":14383:14384   */\n      0x00\n        /* \"#utility.yul\":14372:14381   */\n      dup4\n        /* \"#utility.yul\":14368:14385   */\n      add\n        /* \"#utility.yul\":14359:14365   */\n      dup5\n        /* \"#utility.yul\":14297:14386   */\n      tag_377\n      jump\t// in\n    tag_582:\n        /* \"#utility.yul\":14135:14393   */\n      swap3\n      swap2\n      pop\n      pop\n      jump\t// out\n        /* \"#utility.yul\":14399:14521   */\n    tag_378:\n        /* \"#utility.yul\":14472:14496   */\n      tag_584\n        /* \"#utility.yul\":14490:14495   */\n      dup2\n        /* \"#utility.yul\":14472:14496   */\n      tag_350\n      jump\t// in\n    tag_584:\n        /* \"#utility.yul\":14465:14470   */\n      dup2\n        /* \"#utility.yul\":14462:14497   */\n      eq\n        /* \"#utility.yul\":14452:14515   */\n      tag_585\n      jumpi\n        /* \"#utility.yul\":14511:14512   */\n      0x00\n        /* \"#utility.yul\":14508:14509   */\n      0x00\n        /* \"#utility.yul\":14501:14513   */\n      revert\n        /* \"#utility.yul\":14452:14515   */\n    tag_585:\n        /* \"#utility.yul\":14399:14521   */\n      pop\n      jump\t// out\n        /* \"#utility.yul\":14527:14666   */\n    tag_379:\n        /* \"#utility.yul\":14573:14578   */\n      0x00\n        /* \"#utility.yul\":14611:14617   */\n      dup2\n        /* \"#utility.yul\":14598:14618   */\n      calldataload\n        /* \"#utility.yul\":14589:14618   */\n      swap1\n      pop\n        /* \"#utility.yul\":14627:14660   */\n      tag_587\n        /* \"#utility.yul\":14654:14659   */\n      dup2\n        /* \"#utility.yul\":14627:14660   */\n      tag_378\n      jump\t// in\n    tag_587:\n        /* \"#utility.yul\":14527:14666   */\n      swap3\n      swap2\n      pop\n      pop\n      jump\t// out\n        /* \"#utility.yul\":14672:15001   */\n    tag_89:\n        /* \"#utility.yul\":14731:14737   */\n      0x00\n        /* \"#utility.yul\":14780:14782   */\n      0x20\n        /* \"#utility.yul\":14768:14777   */\n      dup3\n        /* \"#utility.yul\":14759:14766   */\n      dup5\n        /* \"#utility.yul\":14755:14778   */\n      sub\n        /* \"#utility.yul\":14751:14783   */\n      slt\n        /* \"#utility.yul\":14748:14867   */\n      iszero\n      tag_589\n      jumpi\n        /* \"#utility.yul\":14786:14865   */\n      tag_590\n      tag_332\n      jump\t// in\n    tag_590:\n        /* \"#utility.yul\":14748:14867   */\n    tag_589:\n        /* \"#utility.yul\":14906:14907   */\n      0x00\n        /* \"#utility.yul\":14931:14984   */\n      tag_591\n        /* \"#utility.yul\":14976:14983   */\n      dup5\n        /* \"#utility.yul\":14967:14973   */\n      dup3\n        /* \"#utility.yul\":14956:14965   */\n      dup6\n        /* \"#utility.yul\":14952:14974   */\n      add\n        /* \"#utility.yul\":14931:14984   */\n      tag_379\n      jump\t// in\n    tag_591:\n        /* \"#utility.yul\":14921:14984   */\n      swap2\n      pop\n        /* \"#utility.yul\":14877:14994   */\n      pop\n        /* \"#utility.yul\":14672:15001   */\n      swap3\n      swap2\n      pop\n      pop\n      jump\t// out\n        /* \"#utility.yul\":15007:15157   */\n    tag_380:\n        /* \"#utility.yul\":15081:15090   */\n      0x00\n        /* \"#utility.yul\":15114:15151   */\n      tag_593\n        /* \"#utility.yul\":15145:15150   */\n      dup3\n        /* \"#utility.yul\":15114:15151   */\n      tag_354\n      jump\t// in\n    tag_593:\n        /* \"#utility.yul\":15101:15151   */\n      swap1\n      pop\n        /* \"#utility.yul\":15007:15157   */\n      swap2\n      swap1\n      pop\n      jump\t// out\n        /* \"#utility.yul\":15163:15342   */\n    tag_381:\n        /* \"#utility.yul\":15274:15335   */\n      tag_595\n        /* \"#utility.yul\":15329:15334   */\n      dup2\n        /* \"#utility.yul\":15274:15335   */\n      tag_380\n      jump\t// in\n    tag_595:\n        /* \"#utility.yul\":15269:15272   */\n      dup3\n        /* \"#utility.yul\":15262:15336   */\n      mstore\n        /* \"#utility.yul\":15163:15342   */\n      pop\n      pop\n      jump\t// out\n        /* \"#utility.yul\":15348:15618   */\n    tag_94:\n        /* \"#utility.yul\":15465:15469   */\n      0x00\n        /* \"#utility.yul\":15503:15505   */\n      0x20\n        /* \"#utility.yul\":15492:15501   */\n      dup3\n        /* \"#utility.yul\":15488:15506   */\n      add\n        /* \"#utility.yul\":15480:15506   */\n      swap1\n      pop\n        /* \"#utility.yul\":15516:15611   */\n      tag_597\n        /* \"#utility.yul\":15608:15609   */\n      0x00\n        /* \"#utility.yul\":15597:15606   */\n      dup4\n        /* \"#utility.yul\":15593:15610   */\n      add\n        /* \"#utility.yul\":15584:15590   */\n      dup5\n        /* \"#utility.yul\":15516:15611   */\n      tag_381\n      jump\t// in\n    tag_597:\n        /* \"#utility.yul\":15348:15618   */\n      swap3\n      swap2\n      pop\n      pop\n      jump\t// out\n        /* \"#utility.yul\":15624:15953   */\n    tag_97:\n        /* \"#utility.yul\":15683:15689   */\n      0x00\n        /* \"#utility.yul\":15732:15734   */\n      0x20\n        /* \"#utility.yul\":15720:15729   */\n      dup3\n        /* \"#utility.yul\":15711:15718   */\n      dup5\n        /* \"#utility.yul\":15707:15730   */\n      sub\n        /* \"#utility.yul\":15703:15735   */\n      slt\n        /* \"#utility.yul\":15700:15819   */\n      iszero\n      tag_599\n      jumpi\n        /* \"#utility.yul\":15738:15817   */\n      tag_600\n      tag_332\n      jump\t// in\n    tag_600:\n        /* \"#utility.yul\":15700:15819   */\n    tag_599:\n        /* \"#utility.yul\":15858:15859   */\n      0x00\n        /* \"#utility.yul\":15883:15936   */\n      tag_601\n        /* \"#utility.yul\":15928:15935   */\n      dup5\n        /* \"#utility.yul\":15919:15925   */\n      dup3\n        /* \"#utility.yul\":15908:15917   */\n      dup6\n        /* \"#utility.yul\":15904:15926   */\n      add\n        /* \"#utility.yul\":15883:15936   */\n      tag_359\n      jump\t// in\n    tag_601:\n        /* \"#utility.yul\":15873:15936   */\n      swap2\n      pop\n        /* \"#utility.yul\":15829:15946   */\n      pop\n        /* \"#utility.yul\":15624:15953   */\n      swap3\n      swap2\n      pop\n      pop\n      jump\t// out\n        /* \"#utility.yul\":15959:16077   */\n    tag_382:\n        /* \"#utility.yul\":16046:16070   */\n      tag_603\n        /* \"#utility.yul\":16064:16069   */\n      dup2\n        /* \"#utility.yul\":16046:16070   */\n      tag_357\n      jump\t// in\n    tag_603:\n        /* \"#utility.yul\":16041:16044   */\n      dup3\n        /* \"#utility.yul\":16034:16071   */\n      mstore\n        /* \"#utility.yul\":15959:16077   */\n      pop\n      pop\n      jump\t// out\n        /* \"#utility.yul\":16083:16305   */\n    tag_100:\n        /* \"#utility.yul\":16176:16180   */\n      0x00\n        /* \"#utility.yul\":16214:16216   */\n      0x20\n        /* \"#utility.yul\":16203:16212   */\n      dup3\n        /* \"#utility.yul\":16199:16217   */\n      add\n        /* \"#utility.yul\":16191:16217   */\n      swap1\n      pop\n        /* \"#utility.yul\":16227:16298   */\n      tag_605\n        /* \"#utility.yul\":16295:16296   */\n      0x00\n        /* \"#utility.yul\":16284:16293   */\n      dup4\n        /* \"#utility.yul\":16280:16297   */\n      add\n        /* \"#utility.yul\":16271:16277   */\n      dup5\n        /* \"#utility.yul\":16227:16298   */\n      tag_382\n      jump\t// in\n    tag_605:\n        /* \"#utility.yul\":16083:16305   */\n      swap3\n      swap2\n      pop\n      pop\n      jump\t// out\n        /* \"#utility.yul\":16311:16390   */\n    tag_383:\n        /* \"#utility.yul\":16350:16357   */\n      0x00\n        /* \"#utility.yul\":16379:16384   */\n      dup2\n        /* \"#utility.yul\":16368:16384   */\n      swap1\n      pop\n        /* \"#utility.yul\":16311:16390   */\n      swap2\n      swap1\n      pop\n      jump\t// out\n        /* \"#utility.yul\":16396:16553   */\n    tag_384:\n        /* \"#utility.yul\":16501:16546   */\n      tag_608\n        /* \"#utility.yul\":16521:16545   */\n      tag_609\n        /* \"#utility.yul\":16539:16544   */\n      dup3\n        /* \"#utility.yul\":16521:16545   */\n      tag_334\n      jump\t// in\n    tag_609:\n        /* \"#utility.yul\":16501:16546   */\n      tag_383\n      jump\t// in\n    tag_608:\n        /* \"#utility.yul\":16496:16499   */\n      dup3\n        /* \"#utility.yul\":16489:16547   */\n      mstore\n        /* \"#utility.yul\":16396:16553   */\n      pop\n      pop\n      jump\t// out\n        /* \"#utility.yul\":16559:16815   */\n    tag_103:\n        /* \"#utility.yul\":16671:16674   */\n      0x00\n        /* \"#utility.yul\":16686:16761   */\n      tag_611\n        /* \"#utility.yul\":16757:16760   */\n      dup3\n        /* \"#utility.yul\":16748:16754   */\n      dup5\n        /* \"#utility.yul\":16686:16761   */\n      tag_384\n      jump\t// in\n    tag_611:\n        /* \"#utility.yul\":16786:16788   */\n      0x20\n        /* \"#utility.yul\":16781:16784   */\n      dup3\n        /* \"#utility.yul\":16777:16789   */\n      add\n        /* \"#utility.yul\":16770:16789   */\n      swap2\n      pop\n        /* \"#utility.yul\":16806:16809   */\n      dup2\n        /* \"#utility.yul\":16799:16809   */\n      swap1\n      pop\n        /* \"#utility.yul\":16559:16815   */\n      swap3\n      swap2\n      pop\n      pop\n      jump\t// out\n        /* \"#utility.yul\":16821:16920   */\n    tag_385:\n        /* \"#utility.yul\":16906:16912   */\n      dup3\n        /* \"#utility.yul\":16901:16904   */\n      dup2\n        /* \"#utility.yul\":16896:16899   */\n      dup4\n        /* \"#utility.yul\":16883:16913   */\n      calldatacopy\n        /* \"#utility.yul\":16821:16920   */\n      pop\n      pop\n      pop\n      jump\t// out\n        /* \"#utility.yul\":16958:17130   */\n    tag_386:\n        /* \"#utility.yul\":17081:17124   */\n      tag_614\n        /* \"#utility.yul\":17117:17123   */\n      0x0100\n        /* \"#utility.yul\":17112:17115   */\n      dup4\n        /* \"#utility.yul\":17105:17110   */\n      dup4\n        /* \"#utility.yul\":17081:17124   */\n      tag_385\n      jump\t// in\n    tag_614:\n        /* \"#utility.yul\":16958:17130   */\n      pop\n      pop\n      jump\t// out\n        /* \"#utility.yul\":17168:17338   */\n    tag_387:\n        /* \"#utility.yul\":17291:17332   */\n      tag_616\n        /* \"#utility.yul\":17327:17331   */\n      0xe0\n        /* \"#utility.yul\":17322:17325   */\n      dup4\n        /* \"#utility.yul\":17315:17320   */\n      dup4\n        /* \"#utility.yul\":17291:17332   */\n      tag_385\n      jump\t// in\n    tag_616:\n        /* \"#utility.yul\":17168:17338   */\n      pop\n      pop\n      jump\t// out\n        /* \"#utility.yul\":17344:17870   */\n    tag_106:\n        /* \"#utility.yul\":17561:17565   */\n      0x00\n        /* \"#utility.yul\":17599:17602   */\n      0x01e0\n        /* \"#utility.yul\":17588:17597   */\n      dup3\n        /* \"#utility.yul\":17584:17603   */\n      add\n        /* \"#utility.yul\":17576:17603   */\n      swap1\n      pop\n        /* \"#utility.yul\":17613:17732   */\n      tag_618\n        /* \"#utility.yul\":17729:17730   */\n      0x00\n        /* \"#utility.yul\":17718:17727   */\n      dup4\n        /* \"#utility.yul\":17714:17731   */\n      add\n        /* \"#utility.yul\":17705:17711   */\n      dup6\n        /* \"#utility.yul\":17613:17732   */\n      tag_386\n      jump\t// in\n    tag_618:\n        /* \"#utility.yul\":17742:17863   */\n      tag_619\n        /* \"#utility.yul\":17858:17861   */\n      0x0100\n        /* \"#utility.yul\":17847:17856   */\n      dup4\n        /* \"#utility.yul\":17843:17862   */\n      add\n        /* \"#utility.yul\":17834:17840   */\n      dup5\n        /* \"#utility.yul\":17742:17863   */\n      tag_387\n      jump\t// in\n    tag_619:\n        /* \"#utility.yul\":17344:17870   */\n      swap4\n      swap3\n      pop\n      pop\n      pop\n      jump\t// out\n        /* \"#utility.yul\":17876:18056   */\n    tag_112:\n        /* \"#utility.yul\":17924:18001   */\n      0x4e487b7100000000000000000000000000000000000000000000000000000000\n        /* \"#utility.yul\":17921:17922   */\n      0x00\n        /* \"#utility.yul\":17914:18002   */\n      mstore\n        /* \"#utility.yul\":18021:18025   */\n      0x32\n        /* \"#utility.yul\":18018:18019   */\n      0x04\n        /* \"#utility.yul\":18011:18026   */\n      mstore\n        /* \"#utility.yul\":18045:18049   */\n      0x24\n        /* \"#utility.yul\":18042:18043   */\n      0x00\n        /* \"#utility.yul\":18035:18050   */\n      revert\n        /* \"#utility.yul\":18062:18235   */\n    tag_388:\n        /* \"#utility.yul\":18202:18227   */\n      0x57726f6e672064657374696e6174696f6e20636861696e000000000000000000\n        /* \"#utility.yul\":18198:18199   */\n      0x00\n        /* \"#utility.yul\":18190:18196   */\n      dup3\n        /* \"#utility.yul\":18186:18200   */\n      add\n        /* \"#utility.yul\":18179:18228   */\n      mstore\n        /* \"#utility.yul\":18062:18235   */\n      pop\n      jump\t// out\n        /* \"#utility.yul\":18241:18607   */\n    tag_389:\n        /* \"#utility.yul\":18383:18386   */\n      0x00\n        /* \"#utility.yul\":18404:18471   */\n      tag_623\n        /* \"#utility.yul\":18468:18470   */\n      0x17\n        /* \"#utility.yul\":18463:18466   */\n      dup4\n        /* \"#utility.yul\":18404:18471   */\n      tag_374\n      jump\t// in\n    tag_623:\n        /* \"#utility.yul\":18397:18471   */\n      swap2\n      pop\n        /* \"#utility.yul\":18480:18573   */\n      tag_624\n        /* \"#utility.yul\":18569:18572   */\n      dup3\n        /* \"#utility.yul\":18480:18573   */\n      tag_388\n      jump\t// in\n    tag_624:\n        /* \"#utility.yul\":18598:18600   */\n      0x20\n        /* \"#utility.yul\":18593:18596   */\n      dup3\n        /* \"#utility.yul\":18589:18601   */\n      add\n        /* \"#utility.yul\":18582:18601   */\n      swap1\n      pop\n        /* \"#utility.yul\":18241:18607   */\n      swap2\n      swap1\n      pop\n      jump\t// out\n        /* \"#utility.yul\":18613:19032   */\n    tag_115:\n        /* \"#utility.yul\":18779:18783   */\n      0x00\n        /* \"#utility.yul\":18817:18819   */\n      0x20\n        /* \"#utility.yul\":18806:18815   */\n      dup3\n        /* \"#utility.yul\":18802:18820   */\n      add\n        /* \"#utility.yul\":18794:18820   */\n      swap1\n      pop\n        /* \"#utility.yul\":18866:18875   */\n      dup2\n        /* \"#utility.yul\":18860:18864   */\n      dup2\n        /* \"#utility.yul\":18856:18876   */\n      sub\n        /* \"#utility.yul\":18852:18853   */\n      0x00\n        /* \"#utility.yul\":18841:18850   */\n      dup4\n        /* \"#utility.yul\":18837:18854   */\n      add\n        /* \"#utility.yul\":18830:18877   */\n      mstore\n        /* \"#utility.yul\":18894:19025   */\n      tag_626\n        /* \"#utility.yul\":19020:19024   */\n      dup2\n        /* \"#utility.yul\":18894:19025   */\n      tag_389\n      jump\t// in\n    tag_626:\n        /* \"#utility.yul\":18886:19025   */\n      swap1\n      pop\n        /* \"#utility.yul\":18613:19032   */\n      swap2\n      swap1\n      pop\n      jump\t// out\n        /* \"#utility.yul\":19038:19210   */\n    tag_390:\n        /* \"#utility.yul\":19178:19202   */\n      0x5265706c61792061747461636b20646574656374656400000000000000000000\n        /* \"#utility.yul\":19174:19175   */\n      0x00\n        /* \"#utility.yul\":19166:19172   */\n      dup3\n        /* \"#utility.yul\":19162:19176   */\n      add\n        /* \"#utility.yul\":19155:19203   */\n      mstore\n        /* \"#utility.yul\":19038:19210   */\n      pop\n      jump\t// out\n        /* \"#utility.yul\":19216:19582   */\n    tag_391:\n        /* \"#utility.yul\":19358:19361   */\n      0x00\n        /* \"#utility.yul\":19379:19446   */\n      tag_629\n        /* \"#utility.yul\":19443:19445   */\n      0x16\n        /* \"#utility.yul\":19438:19441   */\n      dup4\n        /* \"#utility.yul\":19379:19446   */\n      tag_374\n      jump\t// in\n    tag_629:\n        /* \"#utility.yul\":19372:19446   */\n      swap2\n      pop\n        /* \"#utility.yul\":19455:19548   */\n      tag_630\n        /* \"#utility.yul\":19544:19547   */\n      dup3\n        /* \"#utility.yul\":19455:19548   */\n      tag_390\n      jump\t// in\n    tag_630:\n        /* \"#utility.yul\":19573:19575   */\n      0x20\n        /* \"#utility.yul\":19568:19571   */\n      dup3\n        /* \"#utility.yul\":19564:19576   */\n      add\n        /* \"#utility.yul\":19557:19576   */\n      swap1\n      pop\n        /* \"#utility.yul\":19216:19582   */\n      swap2\n      swap1\n      pop\n      jump\t// out\n        /* \"#utility.yul\":19588:20007   */\n    tag_122:\n        /* \"#utility.yul\":19754:19758   */\n      0x00\n        /* \"#utility.yul\":19792:19794   */\n      0x20\n        /* \"#utility.yul\":19781:19790   */\n      dup3\n        /* \"#utility.yul\":19777:19795   */\n      add\n        /* \"#utility.yul\":19769:19795   */\n      swap1\n      pop\n        /* \"#utility.yul\":19841:19850   */\n      dup2\n        /* \"#utility.yul\":19835:19839   */\n      dup2\n        /* \"#utility.yul\":19831:19851   */\n      sub\n        /* \"#utility.yul\":19827:19828   */\n      0x00\n        /* \"#utility.yul\":19816:19825   */\n      dup4\n        /* \"#utility.yul\":19812:19829   */\n      add\n        /* \"#utility.yul\":19805:19852   */\n      mstore\n        /* \"#utility.yul\":19869:20000   */\n      tag_632\n        /* \"#utility.yul\":19995:19999   */\n      dup2\n        /* \"#utility.yul\":19869:20000   */\n      tag_391\n      jump\t// in\n    tag_632:\n        /* \"#utility.yul\":19861:20000   */\n      swap1\n      pop\n        /* \"#utility.yul\":19588:20007   */\n      swap2\n      swap1\n      pop\n      jump\t// out\n        /* \"#utility.yul\":20045:20215   */\n    tag_392:\n        /* \"#utility.yul\":20168:20209   */\n      tag_634\n        /* \"#utility.yul\":20204:20208   */\n      0xc0\n        /* \"#utility.yul\":20199:20202   */\n      dup4\n        /* \"#utility.yul\":20192:20197   */\n      dup4\n        /* \"#utility.yul\":20168:20209   */\n      tag_385\n      jump\t// in\n    tag_634:\n        /* \"#utility.yul\":20045:20215   */\n      pop\n      pop\n      jump\t// out\n        /* \"#utility.yul\":20221:20747   */\n    tag_132:\n        /* \"#utility.yul\":20438:20442   */\n      0x00\n        /* \"#utility.yul\":20476:20479   */\n      0x01c0\n        /* \"#utility.yul\":20465:20474   */\n      dup3\n        /* \"#utility.yul\":20461:20480   */\n      add\n        /* \"#utility.yul\":20453:20480   */\n      swap1\n      pop\n        /* \"#utility.yul\":20490:20609   */\n      tag_636\n        /* \"#utility.yul\":20606:20607   */\n      0x00\n        /* \"#utility.yul\":20595:20604   */\n      dup4\n        /* \"#utility.yul\":20591:20608   */\n      add\n        /* \"#utility.yul\":20582:20588   */\n      dup6\n        /* \"#utility.yul\":20490:20609   */\n      tag_386\n      jump\t// in\n    tag_636:\n        /* \"#utility.yul\":20619:20740   */\n      tag_637\n        /* \"#utility.yul\":20735:20738   */\n      0x0100\n        /* \"#utility.yul\":20724:20733   */\n      dup4\n        /* \"#utility.yul\":20720:20739   */\n      add\n        /* \"#utility.yul\":20711:20717   */\n      dup5\n        /* \"#utility.yul\":20619:20740   */\n      tag_392\n      jump\t// in\n    tag_637:\n        /* \"#utility.yul\":20221:20747   */\n      swap4\n      swap3\n      pop\n      pop\n      pop\n      jump\t// out\n        /* \"#utility.yul\":20753:20871   */\n    tag_393:\n        /* \"#utility.yul\":20840:20864   */\n      tag_639\n        /* \"#utility.yul\":20858:20863   */\n      dup2\n        /* \"#utility.yul\":20840:20864   */\n      tag_334\n      jump\t// in\n    tag_639:\n        /* \"#utility.yul\":20835:20838   */\n      dup3\n        /* \"#utility.yul\":20828:20865   */\n      mstore\n        /* \"#utility.yul\":20753:20871   */\n      pop\n      pop\n      jump\t// out\n        /* \"#utility.yul\":20877:21521   */\n    tag_148:\n        /* \"#utility.yul\":21074:21078   */\n      0x00\n        /* \"#utility.yul\":21112:21115   */\n      0x80\n        /* \"#utility.yul\":21101:21110   */\n      dup3\n        /* \"#utility.yul\":21097:21116   */\n      add\n        /* \"#utility.yul\":21089:21116   */\n      swap1\n      pop\n        /* \"#utility.yul\":21126:21197   */\n      tag_641\n        /* \"#utility.yul\":21194:21195   */\n      0x00\n        /* \"#utility.yul\":21183:21192   */\n      dup4\n        /* \"#utility.yul\":21179:21196   */\n      add\n        /* \"#utility.yul\":21170:21176   */\n      dup8\n        /* \"#utility.yul\":21126:21197   */\n      tag_351\n      jump\t// in\n    tag_641:\n        /* \"#utility.yul\":21244:21253   */\n      dup2\n        /* \"#utility.yul\":21238:21242   */\n      dup2\n        /* \"#utility.yul\":21234:21254   */\n      sub\n        /* \"#utility.yul\":21229:21231   */\n      0x20\n        /* \"#utility.yul\":21218:21227   */\n      dup4\n        /* \"#utility.yul\":21214:21232   */\n      add\n        /* \"#utility.yul\":21207:21255   */\n      mstore\n        /* \"#utility.yul\":21272:21350   */\n      tag_642\n        /* \"#utility.yul\":21345:21349   */\n      dup2\n        /* \"#utility.yul\":21336:21342   */\n      dup7\n        /* \"#utility.yul\":21272:21350   */\n      tag_375\n      jump\t// in\n    tag_642:\n        /* \"#utility.yul\":21264:21350   */\n      swap1\n      pop\n        /* \"#utility.yul\":21360:21432   */\n      tag_643\n        /* \"#utility.yul\":21428:21430   */\n      0x40\n        /* \"#utility.yul\":21417:21426   */\n      dup4\n        /* \"#utility.yul\":21413:21431   */\n      add\n        /* \"#utility.yul\":21404:21410   */\n      dup6\n        /* \"#utility.yul\":21360:21432   */\n      tag_393\n      jump\t// in\n    tag_643:\n        /* \"#utility.yul\":21442:21514   */\n      tag_644\n        /* \"#utility.yul\":21510:21512   */\n      0x60\n        /* \"#utility.yul\":21499:21508   */\n      dup4\n        /* \"#utility.yul\":21495:21513   */\n      add\n        /* \"#utility.yul\":21486:21492   */\n      dup5\n        /* \"#utility.yul\":21442:21514   */\n      tag_393\n      jump\t// in\n    tag_644:\n        /* \"#utility.yul\":20877:21521   */\n      swap6\n      swap5\n      pop\n      pop\n      pop\n      pop\n      pop\n      jump\t// out\n        /* \"#utility.yul\":21527:21924   */\n    tag_154:\n        /* \"#utility.yul\":21667:21670   */\n      0x00\n        /* \"#utility.yul\":21682:21757   */\n      tag_646\n        /* \"#utility.yul\":21753:21756   */\n      dup3\n        /* \"#utility.yul\":21744:21750   */\n      dup6\n        /* \"#utility.yul\":21682:21757   */\n      tag_384\n      jump\t// in\n    tag_646:\n        /* \"#utility.yul\":21782:21784   */\n      0x20\n        /* \"#utility.yul\":21777:21780   */\n      dup3\n        /* \"#utility.yul\":21773:21785   */\n      add\n        /* \"#utility.yul\":21766:21785   */\n      swap2\n      pop\n        /* \"#utility.yul\":21795:21870   */\n      tag_647\n        /* \"#utility.yul\":21866:21869   */\n      dup3\n        /* \"#utility.yul\":21857:21863   */\n      dup5\n        /* \"#utility.yul\":21795:21870   */\n      tag_384\n      jump\t// in\n    tag_647:\n        /* \"#utility.yul\":21895:21897   */\n      0x20\n        /* \"#utility.yul\":21890:21893   */\n      dup3\n        /* \"#utility.yul\":21886:21898   */\n      add\n        /* \"#utility.yul\":21879:21898   */\n      swap2\n      pop\n        /* \"#utility.yul\":21915:21918   */\n      dup2\n        /* \"#utility.yul\":21908:21918   */\n      swap1\n      pop\n        /* \"#utility.yul\":21527:21924   */\n      swap4\n      swap3\n      pop\n      pop\n      pop\n      jump\t// out\n        /* \"#utility.yul\":21930:22641   */\n    tag_184:\n        /* \"#utility.yul\":22137:22141   */\n      0x00\n        /* \"#utility.yul\":22175:22177   */\n      0x60\n        /* \"#utility.yul\":22164:22173   */\n      dup3\n        /* \"#utility.yul\":22160:22178   */\n      add\n        /* \"#utility.yul\":22152:22178   */\n      swap1\n      pop\n        /* \"#utility.yul\":22224:22233   */\n      dup2\n        /* \"#utility.yul\":22218:22222   */\n      dup2\n        /* \"#utility.yul\":22214:22234   */\n      sub\n        /* \"#utility.yul\":22210:22211   */\n      0x00\n        /* \"#utility.yul\":22199:22208   */\n      dup4\n        /* \"#utility.yul\":22195:22212   */\n      add\n        /* \"#utility.yul\":22188:22235   */\n      mstore\n        /* \"#utility.yul\":22252:22330   */\n      tag_649\n        /* \"#utility.yul\":22325:22329   */\n      dup2\n        /* \"#utility.yul\":22316:22322   */\n      dup7\n        /* \"#utility.yul\":22252:22330   */\n      tag_375\n      jump\t// in\n    tag_649:\n        /* \"#utility.yul\":22244:22330   */\n      swap1\n      pop\n        /* \"#utility.yul\":22377:22386   */\n      dup2\n        /* \"#utility.yul\":22371:22375   */\n      dup2\n        /* \"#utility.yul\":22367:22387   */\n      sub\n        /* \"#utility.yul\":22362:22364   */\n      0x20\n        /* \"#utility.yul\":22351:22360   */\n      dup4\n        /* \"#utility.yul\":22347:22365   */\n      add\n        /* \"#utility.yul\":22340:22388   */\n      mstore\n        /* \"#utility.yul\":22405:22483   */\n      tag_650\n        /* \"#utility.yul\":22478:22482   */\n      dup2\n        /* \"#utility.yul\":22469:22475   */\n      dup6\n        /* \"#utility.yul\":22405:22483   */\n      tag_375\n      jump\t// in\n    tag_650:\n        /* \"#utility.yul\":22397:22483   */\n      swap1\n      pop\n        /* \"#utility.yul\":22530:22539   */\n      dup2\n        /* \"#utility.yul\":22524:22528   */\n      dup2\n        /* \"#utility.yul\":22520:22540   */\n      sub\n        /* \"#utility.yul\":22515:22517   */\n      0x40\n        /* \"#utility.yul\":22504:22513   */\n      dup4\n        /* \"#utility.yul\":22500:22518   */\n      add\n        /* \"#utility.yul\":22493:22541   */\n      mstore\n        /* \"#utility.yul\":22558:22634   */\n      tag_651\n        /* \"#utility.yul\":22629:22633   */\n      dup2\n        /* \"#utility.yul\":22620:22626   */\n      dup5\n        /* \"#utility.yul\":22558:22634   */\n      tag_341\n      jump\t// in\n    tag_651:\n        /* \"#utility.yul\":22550:22634   */\n      swap1\n      pop\n        /* \"#utility.yul\":21930:22641   */\n      swap5\n      swap4\n      pop\n      pop\n      pop\n      pop\n      jump\t// out\n        /* \"#utility.yul\":22647:22821   */\n    tag_394:\n        /* \"#utility.yul\":22787:22813   */\n      0x496e76616c6964207369676e6174757265206c656e6774680000000000000000\n        /* \"#utility.yul\":22783:22784   */\n      0x00\n        /* \"#utility.yul\":22775:22781   */\n      dup3\n        /* \"#utility.yul\":22771:22785   */\n      add\n        /* \"#utility.yul\":22764:22814   */\n      mstore\n        /* \"#utility.yul\":22647:22821   */\n      pop\n      jump\t// out\n        /* \"#utility.yul\":22827:23193   */\n    tag_395:\n        /* \"#utility.yul\":22969:22972   */\n      0x00\n        /* \"#utility.yul\":22990:23057   */\n      tag_654\n        /* \"#utility.yul\":23054:23056   */\n      0x18\n        /* \"#utility.yul\":23049:23052   */\n      dup4\n        /* \"#utility.yul\":22990:23057   */\n      tag_374\n      jump\t// in\n    tag_654:\n        /* \"#utility.yul\":22983:23057   */\n      swap2\n      pop\n        /* \"#utility.yul\":23066:23159   */\n      tag_655\n        /* \"#utility.yul\":23155:23158   */\n      dup3\n        /* \"#utility.yul\":23066:23159   */\n      tag_394\n      jump\t// in\n    tag_655:\n        /* \"#utility.yul\":23184:23186   */\n      0x20\n        /* \"#utility.yul\":23179:23182   */\n      dup3\n        /* \"#utility.yul\":23175:23187   */\n      add\n        /* \"#utility.yul\":23168:23187   */\n      swap1\n      pop\n        /* \"#utility.yul\":22827:23193   */\n      swap2\n      swap1\n      pop\n      jump\t// out\n        /* \"#utility.yul\":23199:23618   */\n    tag_193:\n        /* \"#utility.yul\":23365:23369   */\n      0x00\n        /* \"#utility.yul\":23403:23405   */\n      0x20\n        /* \"#utility.yul\":23392:23401   */\n      dup3\n        /* \"#utility.yul\":23388:23406   */\n      add\n        /* \"#utility.yul\":23380:23406   */\n      swap1\n      pop\n        /* \"#utility.yul\":23452:23461   */\n      dup2\n        /* \"#utility.yul\":23446:23450   */\n      dup2\n        /* \"#utility.yul\":23442:23462   */\n      sub\n        /* \"#utility.yul\":23438:23439   */\n      0x00\n        /* \"#utility.yul\":23427:23436   */\n      dup4\n        /* \"#utility.yul\":23423:23440   */\n      add\n        /* \"#utility.yul\":23416:23463   */\n      mstore\n        /* \"#utility.yul\":23480:23611   */\n      tag_657\n        /* \"#utility.yul\":23606:23610   */\n      dup2\n        /* \"#utility.yul\":23480:23611   */\n      tag_395\n      jump\t// in\n    tag_657:\n        /* \"#utility.yul\":23472:23611   */\n      swap1\n      pop\n        /* \"#utility.yul\":23199:23618   */\n      swap2\n      swap1\n      pop\n      jump\t// out\n        /* \"#utility.yul\":23624:23710   */\n    tag_396:\n        /* \"#utility.yul\":23659:23666   */\n      0x00\n        /* \"#utility.yul\":23699:23703   */\n      0xff\n        /* \"#utility.yul\":23692:23697   */\n      dup3\n        /* \"#utility.yul\":23688:23704   */\n      and\n        /* \"#utility.yul\":23677:23704   */\n      swap1\n      pop\n        /* \"#utility.yul\":23624:23710   */\n      swap2\n      swap1\n      pop\n      jump\t// out\n        /* \"#utility.yul\":23716:23828   */\n    tag_397:\n        /* \"#utility.yul\":23799:23821   */\n      tag_660\n        /* \"#utility.yul\":23815:23820   */\n      dup2\n        /* \"#utility.yul\":23799:23821   */\n      tag_396\n      jump\t// in\n    tag_660:\n        /* \"#utility.yul\":23794:23797   */\n      dup3\n        /* \"#utility.yul\":23787:23822   */\n      mstore\n        /* \"#utility.yul\":23716:23828   */\n      pop\n      pop\n      jump\t// out\n        /* \"#utility.yul\":23834:24379   */\n    tag_195:\n        /* \"#utility.yul\":24007:24011   */\n      0x00\n        /* \"#utility.yul\":24045:24048   */\n      0x80\n        /* \"#utility.yul\":24034:24043   */\n      dup3\n        /* \"#utility.yul\":24030:24049   */\n      add\n        /* \"#utility.yul\":24022:24049   */\n      swap1\n      pop\n        /* \"#utility.yul\":24059:24130   */\n      tag_662\n        /* \"#utility.yul\":24127:24128   */\n      0x00\n        /* \"#utility.yul\":24116:24125   */\n      dup4\n        /* \"#utility.yul\":24112:24129   */\n      add\n        /* \"#utility.yul\":24103:24109   */\n      dup8\n        /* \"#utility.yul\":24059:24130   */\n      tag_382\n      jump\t// in\n    tag_662:\n        /* \"#utility.yul\":24140:24208   */\n      tag_663\n        /* \"#utility.yul\":24204:24206   */\n      0x20\n        /* \"#utility.yul\":24193:24202   */\n      dup4\n        /* \"#utility.yul\":24189:24207   */\n      add\n        /* \"#utility.yul\":24180:24186   */\n      dup7\n        /* \"#utility.yul\":24140:24208   */\n      tag_397\n      jump\t// in\n    tag_663:\n        /* \"#utility.yul\":24218:24290   */\n      tag_664\n        /* \"#utility.yul\":24286:24288   */\n      0x40\n        /* \"#utility.yul\":24275:24284   */\n      dup4\n        /* \"#utility.yul\":24271:24289   */\n      add\n        /* \"#utility.yul\":24262:24268   */\n      dup6\n        /* \"#utility.yul\":24218:24290   */\n      tag_382\n      jump\t// in\n    tag_664:\n        /* \"#utility.yul\":24300:24372   */\n      tag_665\n        /* \"#utility.yul\":24368:24370   */\n      0x60\n        /* \"#utility.yul\":24357:24366   */\n      dup4\n        /* \"#utility.yul\":24353:24371   */\n      add\n        /* \"#utility.yul\":24344:24350   */\n      dup5\n        /* \"#utility.yul\":24300:24372   */\n      tag_382\n      jump\t// in\n    tag_665:\n        /* \"#utility.yul\":23834:24379   */\n      swap6\n      swap5\n      pop\n      pop\n      pop\n      pop\n      pop\n      jump\t// out\n        /* \"#utility.yul\":24385:24565   */\n    tag_398:\n        /* \"#utility.yul\":24433:24510   */\n      0x4e487b7100000000000000000000000000000000000000000000000000000000\n        /* \"#utility.yul\":24430:24431   */\n      0x00\n        /* \"#utility.yul\":24423:24511   */\n      mstore\n        /* \"#utility.yul\":24530:24534   */\n      0x11\n        /* \"#utility.yul\":24527:24528   */\n      0x04\n        /* \"#utility.yul\":24520:24535   */\n      mstore\n        /* \"#utility.yul\":24554:24558   */\n      0x24\n        /* \"#utility.yul\":24551:24552   */\n      0x00\n        /* \"#utility.yul\":24544:24559   */\n      revert\n        /* \"#utility.yul\":24571:24738   */\n    tag_206:\n        /* \"#utility.yul\":24608:24611   */\n      0x00\n        /* \"#utility.yul\":24631:24653   */\n      tag_668\n        /* \"#utility.yul\":24647:24652   */\n      dup3\n        /* \"#utility.yul\":24631:24653   */\n      tag_396\n      jump\t// in\n    tag_668:\n        /* \"#utility.yul\":24622:24653   */\n      swap2\n      pop\n        /* \"#utility.yul\":24675:24679   */\n      0xff\n        /* \"#utility.yul\":24668:24673   */\n      dup3\n        /* \"#utility.yul\":24665:24680   */\n      sub\n        /* \"#utility.yul\":24662:24703   */\n      tag_669\n      jumpi\n        /* \"#utility.yul\":24683:24701   */\n      tag_670\n      tag_398\n      jump\t// in\n    tag_670:\n        /* \"#utility.yul\":24662:24703   */\n    tag_669:\n        /* \"#utility.yul\":24730:24731   */\n      0x01\n        /* \"#utility.yul\":24723:24728   */\n      dup3\n        /* \"#utility.yul\":24719:24732   */\n      add\n        /* \"#utility.yul\":24712:24732   */\n      swap1\n      pop\n        /* \"#utility.yul\":24571:24738   */\n      swap2\n      swap1\n      pop\n      jump\t// out\n        /* \"#utility.yul\":24744:24911   */\n    tag_213:\n        /* \"#utility.yul\":24781:24784   */\n      0x00\n        /* \"#utility.yul\":24804:24826   */\n      tag_672\n        /* \"#utility.yul\":24820:24825   */\n      dup3\n        /* \"#utility.yul\":24804:24826   */\n      tag_396\n      jump\t// in\n    tag_672:\n        /* \"#utility.yul\":24795:24826   */\n      swap2\n      pop\n        /* \"#utility.yul\":24848:24852   */\n      0x00\n        /* \"#utility.yul\":24841:24846   */\n      dup3\n        /* \"#utility.yul\":24838:24853   */\n      sub\n        /* \"#utility.yul\":24835:24876   */\n      tag_673\n      jumpi\n        /* \"#utility.yul\":24856:24874   */\n      tag_674\n      tag_398\n      jump\t// in\n    tag_674:\n        /* \"#utility.yul\":24835:24876   */\n    tag_673:\n        /* \"#utility.yul\":24903:24904   */\n      0x01\n        /* \"#utility.yul\":24896:24901   */\n      dup3\n        /* \"#utility.yul\":24892:24905   */\n      sub\n        /* \"#utility.yul\":24885:24905   */\n      swap1\n      pop\n        /* \"#utility.yul\":24744:24911   */\n      swap2\n      swap1\n      pop\n      jump\t// out\n        /* \"#utility.yul\":24917:25108   */\n    tag_215:\n        /* \"#utility.yul\":24955:24959   */\n      0x00\n        /* \"#utility.yul\":24975:24993   */\n      tag_676\n        /* \"#utility.yul\":24991:24992   */\n      dup3\n        /* \"#utility.yul\":24975:24993   */\n      tag_396\n      jump\t// in\n    tag_676:\n        /* \"#utility.yul\":24970:24993   */\n      swap2\n      pop\n        /* \"#utility.yul\":25007:25025   */\n      tag_677\n        /* \"#utility.yul\":25023:25024   */\n      dup4\n        /* \"#utility.yul\":25007:25025   */\n      tag_396\n      jump\t// in\n    tag_677:\n        /* \"#utility.yul\":25002:25025   */\n      swap3\n      pop\n        /* \"#utility.yul\":25049:25050   */\n      dup3\n        /* \"#utility.yul\":25046:25047   */\n      dup3\n        /* \"#utility.yul\":25042:25051   */\n      sub\n        /* \"#utility.yul\":25034:25051   */\n      swap1\n      pop\n        /* \"#utility.yul\":25073:25077   */\n      0xff\n        /* \"#utility.yul\":25067:25071   */\n      dup2\n        /* \"#utility.yul\":25064:25078   */\n      gt\n        /* \"#utility.yul\":25061:25101   */\n      iszero\n      tag_678\n      jumpi\n        /* \"#utility.yul\":25081:25099   */\n      tag_679\n      tag_398\n      jump\t// in\n    tag_679:\n        /* \"#utility.yul\":25061:25101   */\n    tag_678:\n        /* \"#utility.yul\":24917:25108   */\n      swap3\n      swap2\n      pop\n      pop\n      jump\t// out\n        /* \"#utility.yul\":25114:25302   */\n    tag_217:\n        /* \"#utility.yul\":25152:25155   */\n      0x00\n        /* \"#utility.yul\":25171:25189   */\n      tag_681\n        /* \"#utility.yul\":25187:25188   */\n      dup3\n        /* \"#utility.yul\":25171:25189   */\n      tag_396\n      jump\t// in\n    tag_681:\n        /* \"#utility.yul\":25166:25189   */\n      swap2\n      pop\n        /* \"#utility.yul\":25203:25221   */\n      tag_682\n        /* \"#utility.yul\":25219:25220   */\n      dup4\n        /* \"#utility.yul\":25203:25221   */\n      tag_396\n      jump\t// in\n    tag_682:\n        /* \"#utility.yul\":25198:25221   */\n      swap3\n      pop\n        /* \"#utility.yul\":25244:25245   */\n      dup3\n        /* \"#utility.yul\":25241:25242   */\n      dup3\n        /* \"#utility.yul\":25237:25246   */\n      add\n        /* \"#utility.yul\":25230:25246   */\n      swap1\n      pop\n        /* \"#utility.yul\":25267:25271   */\n      0xff\n        /* \"#utility.yul\":25262:25265   */\n      dup2\n        /* \"#utility.yul\":25259:25272   */\n      gt\n        /* \"#utility.yul\":25256:25295   */\n      iszero\n      tag_683\n      jumpi\n        /* \"#utility.yul\":25275:25293   */\n      tag_684\n      tag_398\n      jump\t// in\n    tag_684:\n        /* \"#utility.yul\":25256:25295   */\n    tag_683:\n        /* \"#utility.yul\":25114:25302   */\n      swap3\n      swap2\n      pop\n      pop\n      jump\t// out\n        /* \"#utility.yul\":25308:25499   */\n    tag_226:\n        /* \"#utility.yul\":25348:25351   */\n      0x00\n        /* \"#utility.yul\":25367:25387   */\n      tag_686\n        /* \"#utility.yul\":25385:25386   */\n      dup3\n        /* \"#utility.yul\":25367:25387   */\n      tag_334\n      jump\t// in\n    tag_686:\n        /* \"#utility.yul\":25362:25387   */\n      swap2\n      pop\n        /* \"#utility.yul\":25401:25421   */\n      tag_687\n        /* \"#utility.yul\":25419:25420   */\n      dup4\n        /* \"#utility.yul\":25401:25421   */\n      tag_334\n      jump\t// in\n    tag_687:\n        /* \"#utility.yul\":25396:25421   */\n      swap3\n      pop\n        /* \"#utility.yul\":25444:25445   */\n      dup3\n        /* \"#utility.yul\":25441:25442   */\n      dup3\n        /* \"#utility.yul\":25437:25446   */\n      add\n        /* \"#utility.yul\":25430:25446   */\n      swap1\n      pop\n        /* \"#utility.yul\":25465:25468   */\n      dup1\n        /* \"#utility.yul\":25462:25463   */\n      dup3\n        /* \"#utility.yul\":25459:25469   */\n      gt\n        /* \"#utility.yul\":25456:25492   */\n      iszero\n      tag_688\n      jumpi\n        /* \"#utility.yul\":25472:25490   */\n      tag_689\n      tag_398\n      jump\t// in\n    tag_689:\n        /* \"#utility.yul\":25456:25492   */\n    tag_688:\n        /* \"#utility.yul\":25308:25499   */\n      swap3\n      swap2\n      pop\n      pop\n      jump\t// out\n        /* \"#utility.yul\":25505:25653   */\n    tag_399:\n        /* \"#utility.yul\":25607:25618   */\n      0x00\n        /* \"#utility.yul\":25644:25647   */\n      dup2\n        /* \"#utility.yul\":25629:25647   */\n      swap1\n      pop\n        /* \"#utility.yul\":25505:25653   */\n      swap3\n      swap2\n      pop\n      pop\n      jump\t// out\n        /* \"#utility.yul\":25659:25873   */\n    tag_400:\n        /* \"#utility.yul\":25799:25865   */\n      0x19457468657265756d205369676e6564204d6573736167653a0a333200000000\n        /* \"#utility.yul\":25795:25796   */\n      0x00\n        /* \"#utility.yul\":25787:25793   */\n      dup3\n        /* \"#utility.yul\":25783:25797   */\n      add\n        /* \"#utility.yul\":25776:25866   */\n      mstore\n        /* \"#utility.yul\":25659:25873   */\n      pop\n      jump\t// out\n        /* \"#utility.yul\":25879:26281   */\n    tag_401:\n        /* \"#utility.yul\":26039:26042   */\n      0x00\n        /* \"#utility.yul\":26060:26145   */\n      tag_693\n        /* \"#utility.yul\":26142:26144   */\n      0x1c\n        /* \"#utility.yul\":26137:26140   */\n      dup4\n        /* \"#utility.yul\":26060:26145   */\n      tag_399\n      jump\t// in\n    tag_693:\n        /* \"#utility.yul\":26053:26145   */\n      swap2\n      pop\n        /* \"#utility.yul\":26154:26247   */\n      tag_694\n        /* \"#utility.yul\":26243:26246   */\n      dup3\n        /* \"#utility.yul\":26154:26247   */\n      tag_400\n      jump\t// in\n    tag_694:\n        /* \"#utility.yul\":26272:26274   */\n      0x1c\n        /* \"#utility.yul\":26267:26270   */\n      dup3\n        /* \"#utility.yul\":26263:26275   */\n      add\n        /* \"#utility.yul\":26256:26275   */\n      swap1\n      pop\n        /* \"#utility.yul\":25879:26281   */\n      swap2\n      swap1\n      pop\n      jump\t// out\n        /* \"#utility.yul\":26287:26366   */\n    tag_402:\n        /* \"#utility.yul\":26326:26333   */\n      0x00\n        /* \"#utility.yul\":26355:26360   */\n      dup2\n        /* \"#utility.yul\":26344:26360   */\n      swap1\n      pop\n        /* \"#utility.yul\":26287:26366   */\n      swap2\n      swap1\n      pop\n      jump\t// out\n        /* \"#utility.yul\":26372:26529   */\n    tag_403:\n        /* \"#utility.yul\":26477:26522   */\n      tag_697\n        /* \"#utility.yul\":26497:26521   */\n      tag_698\n        /* \"#utility.yul\":26515:26520   */\n      dup3\n        /* \"#utility.yul\":26497:26521   */\n      tag_357\n      jump\t// in\n    tag_698:\n        /* \"#utility.yul\":26477:26522   */\n      tag_402\n      jump\t// in\n    tag_697:\n        /* \"#utility.yul\":26472:26475   */\n      dup3\n        /* \"#utility.yul\":26465:26523   */\n      mstore\n        /* \"#utility.yul\":26372:26529   */\n      pop\n      pop\n      jump\t// out\n        /* \"#utility.yul\":26535:27057   */\n    tag_239:\n        /* \"#utility.yul\":26748:26751   */\n      0x00\n        /* \"#utility.yul\":26770:26918   */\n      tag_700\n        /* \"#utility.yul\":26914:26917   */\n      dup3\n        /* \"#utility.yul\":26770:26918   */\n      tag_401\n      jump\t// in\n    tag_700:\n        /* \"#utility.yul\":26763:26918   */\n      swap2\n      pop\n        /* \"#utility.yul\":26928:27003   */\n      tag_701\n        /* \"#utility.yul\":26999:27002   */\n      dup3\n        /* \"#utility.yul\":26990:26996   */\n      dup5\n        /* \"#utility.yul\":26928:27003   */\n      tag_403\n      jump\t// in\n    tag_701:\n        /* \"#utility.yul\":27028:27030   */\n      0x20\n        /* \"#utility.yul\":27023:27026   */\n      dup3\n        /* \"#utility.yul\":27019:27031   */\n      add\n        /* \"#utility.yul\":27012:27031   */\n      swap2\n      pop\n        /* \"#utility.yul\":27048:27051   */\n      dup2\n        /* \"#utility.yul\":27041:27051   */\n      swap1\n      pop\n        /* \"#utility.yul\":26535:27057   */\n      swap3\n      swap2\n      pop\n      pop\n      jump\t// out\n        /* \"#utility.yul\":27063:28165   */\n    tag_256:\n        /* \"#utility.yul\":27343:27346   */\n      0x00\n        /* \"#utility.yul\":27358:27433   */\n      tag_703\n        /* \"#utility.yul\":27429:27432   */\n      dup3\n        /* \"#utility.yul\":27420:27426   */\n      dup11\n        /* \"#utility.yul\":27358:27433   */\n      tag_384\n      jump\t// in\n    tag_703:\n        /* \"#utility.yul\":27458:27460   */\n      0x20\n        /* \"#utility.yul\":27453:27456   */\n      dup3\n        /* \"#utility.yul\":27449:27461   */\n      add\n        /* \"#utility.yul\":27442:27461   */\n      swap2\n      pop\n        /* \"#utility.yul\":27471:27546   */\n      tag_704\n        /* \"#utility.yul\":27542:27545   */\n      dup3\n        /* \"#utility.yul\":27533:27539   */\n      dup10\n        /* \"#utility.yul\":27471:27546   */\n      tag_384\n      jump\t// in\n    tag_704:\n        /* \"#utility.yul\":27571:27573   */\n      0x20\n        /* \"#utility.yul\":27566:27569   */\n      dup3\n        /* \"#utility.yul\":27562:27574   */\n      add\n        /* \"#utility.yul\":27555:27574   */\n      swap2\n      pop\n        /* \"#utility.yul\":27584:27659   */\n      tag_705\n        /* \"#utility.yul\":27655:27658   */\n      dup3\n        /* \"#utility.yul\":27646:27652   */\n      dup9\n        /* \"#utility.yul\":27584:27659   */\n      tag_384\n      jump\t// in\n    tag_705:\n        /* \"#utility.yul\":27684:27686   */\n      0x20\n        /* \"#utility.yul\":27679:27682   */\n      dup3\n        /* \"#utility.yul\":27675:27687   */\n      add\n        /* \"#utility.yul\":27668:27687   */\n      swap2\n      pop\n        /* \"#utility.yul\":27697:27772   */\n      tag_706\n        /* \"#utility.yul\":27768:27771   */\n      dup3\n        /* \"#utility.yul\":27759:27765   */\n      dup8\n        /* \"#utility.yul\":27697:27772   */\n      tag_384\n      jump\t// in\n    tag_706:\n        /* \"#utility.yul\":27797:27799   */\n      0x20\n        /* \"#utility.yul\":27792:27795   */\n      dup3\n        /* \"#utility.yul\":27788:27800   */\n      add\n        /* \"#utility.yul\":27781:27800   */\n      swap2\n      pop\n        /* \"#utility.yul\":27810:27885   */\n      tag_707\n        /* \"#utility.yul\":27881:27884   */\n      dup3\n        /* \"#utility.yul\":27872:27878   */\n      dup7\n        /* \"#utility.yul\":27810:27885   */\n      tag_384\n      jump\t// in\n    tag_707:\n        /* \"#utility.yul\":27910:27912   */\n      0x20\n        /* \"#utility.yul\":27905:27908   */\n      dup3\n        /* \"#utility.yul\":27901:27913   */\n      add\n        /* \"#utility.yul\":27894:27913   */\n      swap2\n      pop\n        /* \"#utility.yul\":27923:27998   */\n      tag_708\n        /* \"#utility.yul\":27994:27997   */\n      dup3\n        /* \"#utility.yul\":27985:27991   */\n      dup6\n        /* \"#utility.yul\":27923:27998   */\n      tag_384\n      jump\t// in\n    tag_708:\n        /* \"#utility.yul\":28023:28025   */\n      0x20\n        /* \"#utility.yul\":28018:28021   */\n      dup3\n        /* \"#utility.yul\":28014:28026   */\n      add\n        /* \"#utility.yul\":28007:28026   */\n      swap2\n      pop\n        /* \"#utility.yul\":28036:28111   */\n      tag_709\n        /* \"#utility.yul\":28107:28110   */\n      dup3\n        /* \"#utility.yul\":28098:28104   */\n      dup5\n        /* \"#utility.yul\":28036:28111   */\n      tag_384\n      jump\t// in\n    tag_709:\n        /* \"#utility.yul\":28136:28138   */\n      0x20\n        /* \"#utility.yul\":28131:28134   */\n      dup3\n        /* \"#utility.yul\":28127:28139   */\n      add\n        /* \"#utility.yul\":28120:28139   */\n      swap2\n      pop\n        /* \"#utility.yul\":28156:28159   */\n      dup2\n        /* \"#utility.yul\":28149:28159   */\n      swap1\n      pop\n        /* \"#utility.yul\":27063:28165   */\n      swap9\n      swap8\n      pop\n      pop\n      pop\n      pop\n      pop\n      pop\n      pop\n      pop\n      jump\t// out\n        /* \"#utility.yul\":28171:28482   */\n    tag_404:\n        /* \"#utility.yul\":28248:28252   */\n      0x00\n        /* \"#utility.yul\":28338:28356   */\n      0xffffffffffffffff\n        /* \"#utility.yul\":28330:28336   */\n      dup3\n        /* \"#utility.yul\":28327:28357   */\n      gt\n        /* \"#utility.yul\":28324:28380   */\n      iszero\n      tag_711\n      jumpi\n        /* \"#utility.yul\":28360:28378   */\n      tag_712\n      tag_220\n      jump\t// in\n    tag_712:\n        /* \"#utility.yul\":28324:28380   */\n    tag_711:\n        /* \"#utility.yul\":28410:28414   */\n      0x20\n        /* \"#utility.yul\":28402:28408   */\n      dup3\n        /* \"#utility.yul\":28398:28415   */\n      mul\n        /* \"#utility.yul\":28390:28415   */\n      swap1\n      pop\n        /* \"#utility.yul\":28470:28474   */\n      0x20\n        /* \"#utility.yul\":28464:28468   */\n      dup2\n        /* \"#utility.yul\":28460:28475   */\n      add\n        /* \"#utility.yul\":28452:28475   */\n      swap1\n      pop\n        /* \"#utility.yul\":28171:28482   */\n      swap2\n      swap1\n      pop\n      jump\t// out\n        /* \"#utility.yul\":28488:28631   */\n    tag_405:\n        /* \"#utility.yul\":28545:28550   */\n      0x00\n        /* \"#utility.yul\":28576:28582   */\n      dup2\n        /* \"#utility.yul\":28570:28583   */\n      mload\n        /* \"#utility.yul\":28561:28583   */\n      swap1\n      pop\n        /* \"#utility.yul\":28592:28625   */\n      tag_714\n        /* \"#utility.yul\":28619:28624   */\n      dup2\n        /* \"#utility.yul\":28592:28625   */\n      tag_378\n      jump\t// in\n    tag_714:\n        /* \"#utility.yul\":28488:28631   */\n      swap3\n      swap2\n      pop\n      pop\n      jump\t// out\n        /* \"#utility.yul\":28654:29386   */\n    tag_406:\n        /* \"#utility.yul\":28761:28766   */\n      0x00\n        /* \"#utility.yul\":28786:28867   */\n      tag_716\n        /* \"#utility.yul\":28802:28866   */\n      tag_717\n        /* \"#utility.yul\":28859:28865   */\n      dup5\n        /* \"#utility.yul\":28802:28866   */\n      tag_404\n      jump\t// in\n    tag_717:\n        /* \"#utility.yul\":28786:28867   */\n      tag_362\n      jump\t// in\n    tag_716:\n        /* \"#utility.yul\":28777:28867   */\n      swap1\n      pop\n        /* \"#utility.yul\":28887:28892   */\n      dup1\n        /* \"#utility.yul\":28916:28922   */\n      dup4\n        /* \"#utility.yul\":28909:28914   */\n      dup3\n        /* \"#utility.yul\":28902:28923   */\n      mstore\n        /* \"#utility.yul\":28950:28954   */\n      0x20\n        /* \"#utility.yul\":28943:28948   */\n      dup3\n        /* \"#utility.yul\":28939:28955   */\n      add\n        /* \"#utility.yul\":28932:28955   */\n      swap1\n      pop\n        /* \"#utility.yul\":29003:29007   */\n      0x20\n        /* \"#utility.yul\":28995:29001   */\n      dup5\n        /* \"#utility.yul\":28991:29008   */\n      mul\n        /* \"#utility.yul\":28983:28989   */\n      dup4\n        /* \"#utility.yul\":28979:29009   */\n      add\n        /* \"#utility.yul\":29032:29035   */\n      dup6\n        /* \"#utility.yul\":29024:29030   */\n      dup2\n        /* \"#utility.yul\":29021:29036   */\n      gt\n        /* \"#utility.yul\":29018:29140   */\n      iszero\n      tag_718\n      jumpi\n        /* \"#utility.yul\":29051:29130   */\n      tag_719\n      tag_342\n      jump\t// in\n    tag_719:\n        /* \"#utility.yul\":29018:29140   */\n    tag_718:\n        /* \"#utility.yul\":29166:29172   */\n      dup4\n        /* \"#utility.yul\":29149:29380   */\n    tag_720:\n        /* \"#utility.yul\":29183:29189   */\n      dup2\n        /* \"#utility.yul\":29178:29181   */\n      dup2\n        /* \"#utility.yul\":29175:29190   */\n      lt\n        /* \"#utility.yul\":29149:29380   */\n      iszero\n      tag_722\n      jumpi\n        /* \"#utility.yul\":29258:29261   */\n      dup1\n        /* \"#utility.yul\":29287:29335   */\n      tag_723\n        /* \"#utility.yul\":29331:29334   */\n      dup9\n        /* \"#utility.yul\":29319:29329   */\n      dup3\n        /* \"#utility.yul\":29287:29335   */\n      tag_405\n      jump\t// in\n    tag_723:\n        /* \"#utility.yul\":29282:29285   */\n      dup5\n        /* \"#utility.yul\":29275:29336   */\n      mstore\n        /* \"#utility.yul\":29365:29369   */\n      0x20\n        /* \"#utility.yul\":29360:29363   */\n      dup5\n        /* \"#utility.yul\":29356:29370   */\n      add\n        /* \"#utility.yul\":29349:29370   */\n      swap4\n      pop\n        /* \"#utility.yul\":29225:29380   */\n      pop\n        /* \"#utility.yul\":29209:29213   */\n      0x20\n        /* \"#utility.yul\":29204:29207   */\n      dup2\n        /* \"#utility.yul\":29200:29214   */\n      add\n        /* \"#utility.yul\":29193:29214   */\n      swap1\n      pop\n        /* \"#utility.yul\":29149:29380   */\n      jump(tag_720)\n    tag_722:\n        /* \"#utility.yul\":29153:29174   */\n      pop\n        /* \"#utility.yul\":28767:29386   */\n      pop\n      pop\n        /* \"#utility.yul\":28654:29386   */\n      swap4\n      swap3\n      pop\n      pop\n      pop\n      jump\t// out\n        /* \"#utility.yul\":29409:29794   */\n    tag_407:\n        /* \"#utility.yul\":29491:29496   */\n      0x00\n        /* \"#utility.yul\":29540:29543   */\n      dup3\n        /* \"#utility.yul\":29533:29537   */\n      0x1f\n        /* \"#utility.yul\":29525:29531   */\n      dup4\n        /* \"#utility.yul\":29521:29538   */\n      add\n        /* \"#utility.yul\":29517:29544   */\n      slt\n        /* \"#utility.yul\":29507:29629   */\n      tag_725\n      jumpi\n        /* \"#utility.yul\":29548:29627   */\n      tag_726\n      tag_345\n      jump\t// in\n    tag_726:\n        /* \"#utility.yul\":29507:29629   */\n    tag_725:\n        /* \"#utility.yul\":29658:29664   */\n      dup2\n        /* \"#utility.yul\":29652:29665   */\n      mload\n        /* \"#utility.yul\":29683:29788   */\n      tag_727\n        /* \"#utility.yul\":29784:29787   */\n      dup5\n        /* \"#utility.yul\":29776:29782   */\n      dup3\n        /* \"#utility.yul\":29769:29773   */\n      0x20\n        /* \"#utility.yul\":29761:29767   */\n      dup7\n        /* \"#utility.yul\":29757:29774   */\n      add\n        /* \"#utility.yul\":29683:29788   */\n      tag_406\n      jump\t// in\n    tag_727:\n        /* \"#utility.yul\":29674:29788   */\n      swap2\n      pop\n        /* \"#utility.yul\":29497:29794   */\n      pop\n        /* \"#utility.yul\":29409:29794   */\n      swap3\n      swap2\n      pop\n      pop\n      jump\t// out\n        /* \"#utility.yul\":29800:30354   */\n    tag_262:\n        /* \"#utility.yul\":29895:29901   */\n      0x00\n        /* \"#utility.yul\":29944:29946   */\n      0x20\n        /* \"#utility.yul\":29932:29941   */\n      dup3\n        /* \"#utility.yul\":29923:29930   */\n      dup5\n        /* \"#utility.yul\":29919:29942   */\n      sub\n        /* \"#utility.yul\":29915:29947   */\n      slt\n        /* \"#utility.yul\":29912:30031   */\n      iszero\n      tag_729\n      jumpi\n        /* \"#utility.yul\":29950:30029   */\n      tag_730\n      tag_332\n      jump\t// in\n    tag_730:\n        /* \"#utility.yul\":29912:30031   */\n    tag_729:\n        /* \"#utility.yul\":30091:30092   */\n      0x00\n        /* \"#utility.yul\":30080:30089   */\n      dup3\n        /* \"#utility.yul\":30076:30093   */\n      add\n        /* \"#utility.yul\":30070:30094   */\n      mload\n        /* \"#utility.yul\":30121:30139   */\n      0xffffffffffffffff\n        /* \"#utility.yul\":30113:30119   */\n      dup2\n        /* \"#utility.yul\":30110:30140   */\n      gt\n        /* \"#utility.yul\":30107:30224   */\n      iszero\n      tag_731\n      jumpi\n        /* \"#utility.yul\":30143:30222   */\n      tag_732\n      tag_333\n      jump\t// in\n    tag_732:\n        /* \"#utility.yul\":30107:30224   */\n    tag_731:\n        /* \"#utility.yul\":30248:30337   */\n      tag_733\n        /* \"#utility.yul\":30329:30336   */\n      dup5\n        /* \"#utility.yul\":30320:30326   */\n      dup3\n        /* \"#utility.yul\":30309:30318   */\n      dup6\n        /* \"#utility.yul\":30305:30327   */\n      add\n        /* \"#utility.yul\":30248:30337   */\n      tag_407\n      jump\t// in\n    tag_733:\n        /* \"#utility.yul\":30238:30337   */\n      swap2\n      pop\n        /* \"#utility.yul\":30041:30347   */\n      pop\n        /* \"#utility.yul\":29800:30354   */\n      swap3\n      swap2\n      pop\n      pop\n      jump\t// out\n        /* \"#utility.yul\":30360:30770   */\n    tag_267:\n        /* \"#utility.yul\":30400:30407   */\n      0x00\n        /* \"#utility.yul\":30423:30443   */\n      tag_735\n        /* \"#utility.yul\":30441:30442   */\n      dup3\n        /* \"#utility.yul\":30423:30443   */\n      tag_334\n      jump\t// in\n    tag_735:\n        /* \"#utility.yul\":30418:30443   */\n      swap2\n      pop\n        /* \"#utility.yul\":30457:30477   */\n      tag_736\n        /* \"#utility.yul\":30475:30476   */\n      dup4\n        /* \"#utility.yul\":30457:30477   */\n      tag_334\n      jump\t// in\n    tag_736:\n        /* \"#utility.yul\":30452:30477   */\n      swap3\n      pop\n        /* \"#utility.yul\":30512:30513   */\n      dup3\n        /* \"#utility.yul\":30509:30510   */\n      dup3\n        /* \"#utility.yul\":30505:30514   */\n      mul\n        /* \"#utility.yul\":30534:30564   */\n      tag_737\n        /* \"#utility.yul\":30552:30563   */\n      dup2\n        /* \"#utility.yul\":30534:30564   */\n      tag_334\n      jump\t// in\n    tag_737:\n        /* \"#utility.yul\":30523:30564   */\n      swap2\n      pop\n        /* \"#utility.yul\":30713:30714   */\n      dup3\n        /* \"#utility.yul\":30704:30711   */\n      dup3\n        /* \"#utility.yul\":30700:30715   */\n      div\n        /* \"#utility.yul\":30697:30698   */\n      dup5\n        /* \"#utility.yul\":30694:30716   */\n      eq\n        /* \"#utility.yul\":30674:30675   */\n      dup4\n        /* \"#utility.yul\":30667:30676   */\n      iszero\n        /* \"#utility.yul\":30647:30730   */\n      or\n        /* \"#utility.yul\":30624:30763   */\n      tag_738\n      jumpi\n        /* \"#utility.yul\":30743:30761   */\n      tag_739\n      tag_398\n      jump\t// in\n    tag_739:\n        /* \"#utility.yul\":30624:30763   */\n    tag_738:\n        /* \"#utility.yul\":30408:30770   */\n      pop\n        /* \"#utility.yul\":30360:30770   */\n      swap3\n      swap2\n      pop\n      pop\n      jump\t// out\n        /* \"#utility.yul\":30776:30893   */\n    tag_408:\n        /* \"#utility.yul\":30885:30886   */\n      0x00\n        /* \"#utility.yul\":30882:30883   */\n      0x00\n        /* \"#utility.yul\":30875:30887   */\n      revert\n        /* \"#utility.yul\":30899:31016   */\n    tag_409:\n        /* \"#utility.yul\":31008:31009   */\n      0x00\n        /* \"#utility.yul\":31005:31006   */\n      0x00\n        /* \"#utility.yul\":30998:31010   */\n      revert\n        /* \"#utility.yul\":31022:31491   */\n    tag_271:\n        /* \"#utility.yul\":31127:31136   */\n      0x00\n        /* \"#utility.yul\":31138:31147   */\n      0x00\n        /* \"#utility.yul\":31176:31184   */\n      dup6\n        /* \"#utility.yul\":31164:31174   */\n      dup6\n        /* \"#utility.yul\":31161:31185   */\n      gt\n        /* \"#utility.yul\":31158:31269   */\n      iszero\n      tag_743\n      jumpi\n        /* \"#utility.yul\":31188:31267   */\n      tag_744\n      tag_408\n      jump\t// in\n    tag_744:\n        /* \"#utility.yul\":31158:31269   */\n    tag_743:\n        /* \"#utility.yul\":31294:31300   */\n      dup4\n        /* \"#utility.yul\":31284:31292   */\n      dup7\n        /* \"#utility.yul\":31281:31301   */\n      gt\n        /* \"#utility.yul\":31278:31385   */\n      iszero\n      tag_745\n      jumpi\n        /* \"#utility.yul\":31304:31383   */\n      tag_746\n      tag_409\n      jump\t// in\n    tag_746:\n        /* \"#utility.yul\":31278:31385   */\n    tag_745:\n        /* \"#utility.yul\":31435:31436   */\n      0x01\n        /* \"#utility.yul\":31423:31433   */\n      dup6\n        /* \"#utility.yul\":31419:31437   */\n      mul\n        /* \"#utility.yul\":31411:31417   */\n      dup4\n        /* \"#utility.yul\":31407:31438   */\n      add\n        /* \"#utility.yul\":31394:31438   */\n      swap2\n      pop\n        /* \"#utility.yul\":31474:31484   */\n      dup5\n        /* \"#utility.yul\":31464:31472   */\n      dup7\n        /* \"#utility.yul\":31460:31485   */\n      sub\n        /* \"#utility.yul\":31447:31485   */\n      swap1\n      pop\n        /* \"#utility.yul\":31022:31491   */\n      swap5\n      pop\n      swap5\n      swap3\n      pop\n      pop\n      pop\n      jump\t// out\n        /* \"#utility.yul\":31497:31664   */\n    tag_410:\n        /* \"#utility.yul\":31637:31656   */\n      0x496e76616c6964207369676e6174757265000000000000000000000000000000\n        /* \"#utility.yul\":31633:31634   */\n      0x00\n        /* \"#utility.yul\":31625:31631   */\n      dup3\n        /* \"#utility.yul\":31621:31635   */\n      add\n        /* \"#utility.yul\":31614:31657   */\n      mstore\n        /* \"#utility.yul\":31497:31664   */\n      pop\n      jump\t// out\n        /* \"#utility.yul\":31670:32036   */\n    tag_411:\n        /* \"#utility.yul\":31812:31815   */\n      0x00\n        /* \"#utility.yul\":31833:31900   */\n      tag_749\n        /* \"#utility.yul\":31897:31899   */\n      0x11\n        /* \"#utility.yul\":31892:31895   */\n      dup4\n        /* \"#utility.yul\":31833:31900   */\n      tag_374\n      jump\t// in\n    tag_749:\n        /* \"#utility.yul\":31826:31900   */\n      swap2\n      pop\n        /* \"#utility.yul\":31909:32002   */\n      tag_750\n        /* \"#utility.yul\":31998:32001   */\n      dup3\n        /* \"#utility.yul\":31909:32002   */\n      tag_410\n      jump\t// in\n    tag_750:\n        /* \"#utility.yul\":32027:32029   */\n      0x20\n        /* \"#utility.yul\":32022:32025   */\n      dup3\n        /* \"#utility.yul\":32018:32030   */\n      add\n        /* \"#utility.yul\":32011:32030   */\n      swap1\n      pop\n        /* \"#utility.yul\":31670:32036   */\n      swap2\n      swap1\n      pop\n      jump\t// out\n        /* \"#utility.yul\":32042:32461   */\n    tag_275:\n        /* \"#utility.yul\":32208:32212   */\n      0x00\n        /* \"#utility.yul\":32246:32248   */\n      0x20\n        /* \"#utility.yul\":32235:32244   */\n      dup3\n        /* \"#utility.yul\":32231:32249   */\n      add\n        /* \"#utility.yul\":32223:32249   */\n      swap1\n      pop\n        /* \"#utility.yul\":32295:32304   */\n      dup2\n        /* \"#utility.yul\":32289:32293   */\n      dup2\n        /* \"#utility.yul\":32285:32305   */\n      sub\n        /* \"#utility.yul\":32281:32282   */\n      0x00\n        /* \"#utility.yul\":32270:32279   */\n      dup4\n        /* \"#utility.yul\":32266:32283   */\n      add\n        /* \"#utility.yul\":32259:32306   */\n      mstore\n        /* \"#utility.yul\":32323:32454   */\n      tag_752\n        /* \"#utility.yul\":32449:32453   */\n      dup2\n        /* \"#utility.yul\":32323:32454   */\n      tag_411\n      jump\t// in\n    tag_752:\n        /* \"#utility.yul\":32315:32454   */\n      swap1\n      pop\n        /* \"#utility.yul\":32042:32461   */\n      swap2\n      swap1\n      pop\n      jump\t// out\n        /* \"#utility.yul\":32467:32647   */\n    tag_412:\n        /* \"#utility.yul\":32607:32639   */\n      0x5369676e6572206e6f7420616e206163746976652076616c696461746f720000\n        /* \"#utility.yul\":32603:32604   */\n      0x00\n        /* \"#utility.yul\":32595:32601   */\n      dup3\n        /* \"#utility.yul\":32591:32605   */\n      add\n        /* \"#utility.yul\":32584:32640   */\n      mstore\n        /* \"#utility.yul\":32467:32647   */\n      pop\n      jump\t// out\n        /* \"#utility.yul\":32653:33019   */\n    tag_413:\n        /* \"#utility.yul\":32795:32798   */\n      0x00\n        /* \"#utility.yul\":32816:32883   */\n      tag_755\n        /* \"#utility.yul\":32880:32882   */\n      0x1e\n        /* \"#utility.yul\":32875:32878   */\n      dup4\n        /* \"#utility.yul\":32816:32883   */\n      tag_374\n      jump\t// in\n    tag_755:\n        /* \"#utility.yul\":32809:32883   */\n      swap2\n      pop\n        /* \"#utility.yul\":32892:32985   */\n      tag_756\n        /* \"#utility.yul\":32981:32984   */\n      dup3\n        /* \"#utility.yul\":32892:32985   */\n      tag_412\n      jump\t// in\n    tag_756:\n        /* \"#utility.yul\":33010:33012   */\n      0x20\n        /* \"#utility.yul\":33005:33008   */\n      dup3\n        /* \"#utility.yul\":33001:33013   */\n      add\n        /* \"#utility.yul\":32994:33013   */\n      swap1\n      pop\n        /* \"#utility.yul\":32653:33019   */\n      swap2\n      swap1\n      pop\n      jump\t// out\n        /* \"#utility.yul\":33025:33444   */\n    tag_284:\n        /* \"#utility.yul\":33191:33195   */\n      0x00\n        /* \"#utility.yul\":33229:33231   */\n      0x20\n        /* \"#utility.yul\":33218:33227   */\n      dup3\n        /* \"#utility.yul\":33214:33232   */\n      add\n        /* \"#utility.yul\":33206:33232   */\n      swap1\n      pop\n        /* \"#utility.yul\":33278:33287   */\n      dup2\n        /* \"#utility.yul\":33272:33276   */\n      dup2\n        /* \"#utility.yul\":33268:33288   */\n      sub\n        /* \"#utility.yul\":33264:33265   */\n      0x00\n        /* \"#utility.yul\":33253:33262   */\n      dup4\n        /* \"#utility.yul\":33249:33266   */\n      add\n        /* \"#utility.yul\":33242:33289   */\n      mstore\n        /* \"#utility.yul\":33306:33437   */\n      tag_758\n        /* \"#utility.yul\":33432:33436   */\n      dup2\n        /* \"#utility.yul\":33306:33437   */\n      tag_413\n      jump\t// in\n    tag_758:\n        /* \"#utility.yul\":33298:33437   */\n      swap1\n      pop\n        /* \"#utility.yul\":33025:33444   */\n      swap2\n      swap1\n      pop\n      jump\t// out\n        /* \"#utility.yul\":33450:33840   */\n    tag_414:\n        /* \"#utility.yul\":33556:33559   */\n      0x00\n        /* \"#utility.yul\":33584:33623   */\n      tag_760\n        /* \"#utility.yul\":33617:33622   */\n      dup3\n        /* \"#utility.yul\":33584:33623   */\n      tag_373\n      jump\t// in\n    tag_760:\n        /* \"#utility.yul\":33639:33728   */\n      tag_761\n        /* \"#utility.yul\":33721:33727   */\n      dup2\n        /* \"#utility.yul\":33716:33719   */\n      dup6\n        /* \"#utility.yul\":33639:33728   */\n      tag_399\n      jump\t// in\n    tag_761:\n        /* \"#utility.yul\":33632:33728   */\n      swap4\n      pop\n        /* \"#utility.yul\":33737:33802   */\n      tag_762\n        /* \"#utility.yul\":33795:33801   */\n      dup2\n        /* \"#utility.yul\":33790:33793   */\n      dup6\n        /* \"#utility.yul\":33783:33787   */\n      0x20\n        /* \"#utility.yul\":33776:33781   */\n      dup7\n        /* \"#utility.yul\":33772:33788   */\n      add\n        /* \"#utility.yul\":33737:33802   */\n      tag_339\n      jump\t// in\n    tag_762:\n        /* \"#utility.yul\":33827:33833   */\n      dup1\n        /* \"#utility.yul\":33822:33825   */\n      dup5\n        /* \"#utility.yul\":33818:33834   */\n      add\n        /* \"#utility.yul\":33811:33834   */\n      swap2\n      pop\n        /* \"#utility.yul\":33560:33840   */\n      pop\n        /* \"#utility.yul\":33450:33840   */\n      swap3\n      swap2\n      pop\n      pop\n      jump\t// out\n        /* \"#utility.yul\":33846:34002   */\n    tag_415:\n        /* \"#utility.yul\":33986:33994   */\n      0x5f7661756c740000000000000000000000000000000000000000000000000000\n        /* \"#utility.yul\":33982:33983   */\n      0x00\n        /* \"#utility.yul\":33974:33980   */\n      dup3\n        /* \"#utility.yul\":33970:33984   */\n      add\n        /* \"#utility.yul\":33963:33995   */\n      mstore\n        /* \"#utility.yul\":33846:34002   */\n      pop\n      jump\t// out\n        /* \"#utility.yul\":34008:34408   */\n    tag_416:\n        /* \"#utility.yul\":34168:34171   */\n      0x00\n        /* \"#utility.yul\":34189:34273   */\n      tag_765\n        /* \"#utility.yul\":34271:34272   */\n      0x06\n        /* \"#utility.yul\":34266:34269   */\n      dup4\n        /* \"#utility.yul\":34189:34273   */\n      tag_399\n      jump\t// in\n    tag_765:\n        /* \"#utility.yul\":34182:34273   */\n      swap2\n      pop\n        /* \"#utility.yul\":34282:34375   */\n      tag_766\n        /* \"#utility.yul\":34371:34374   */\n      dup3\n        /* \"#utility.yul\":34282:34375   */\n      tag_415\n      jump\t// in\n    tag_766:\n        /* \"#utility.yul\":34400:34401   */\n      0x06\n        /* \"#utility.yul\":34395:34398   */\n      dup3\n        /* \"#utility.yul\":34391:34402   */\n      add\n        /* \"#utility.yul\":34384:34402   */\n      swap1\n      pop\n        /* \"#utility.yul\":34008:34408   */\n      swap2\n      swap1\n      pop\n      jump\t// out\n        /* \"#utility.yul\":34414:34955   */\n    tag_295:\n        /* \"#utility.yul\":34647:34650   */\n      0x00\n        /* \"#utility.yul\":34669:34764   */\n      tag_768\n        /* \"#utility.yul\":34760:34763   */\n      dup3\n        /* \"#utility.yul\":34751:34757   */\n      dup5\n        /* \"#utility.yul\":34669:34764   */\n      tag_414\n      jump\t// in\n    tag_768:\n        /* \"#utility.yul\":34662:34764   */\n      swap2\n      pop\n        /* \"#utility.yul\":34781:34929   */\n      tag_769\n        /* \"#utility.yul\":34925:34928   */\n      dup3\n        /* \"#utility.yul\":34781:34929   */\n      tag_416\n      jump\t// in\n    tag_769:\n        /* \"#utility.yul\":34774:34929   */\n      swap2\n      pop\n        /* \"#utility.yul\":34946:34949   */\n      dup2\n        /* \"#utility.yul\":34939:34949   */\n      swap1\n      pop\n        /* \"#utility.yul\":34414:34955   */\n      swap3\n      swap2\n      pop\n      pop\n      jump\t// out\n        /* \"#utility.yul\":34961:35126   */\n    tag_417:\n        /* \"#utility.yul\":35101:35118   */\n      0x5169617261426173654173736574730000000000000000000000000000000000\n        /* \"#utility.yul\":35097:35098   */\n      0x00\n        /* \"#utility.yul\":35089:35095   */\n      dup3\n        /* \"#utility.yul\":35085:35099   */\n      add\n        /* \"#utility.yul\":35078:35119   */\n      mstore\n        /* \"#utility.yul\":34961:35126   */\n      pop\n      jump\t// out\n        /* \"#utility.yul\":35132:35498   */\n    tag_418:\n        /* \"#utility.yul\":35274:35277   */\n      0x00\n        /* \"#utility.yul\":35295:35362   */\n      tag_772\n        /* \"#utility.yul\":35359:35361   */\n      0x0f\n        /* \"#utility.yul\":35354:35357   */\n      dup4\n        /* \"#utility.yul\":35295:35362   */\n      tag_374\n      jump\t// in\n    tag_772:\n        /* \"#utility.yul\":35288:35362   */\n      swap2\n      pop\n        /* \"#utility.yul\":35371:35464   */\n      tag_773\n        /* \"#utility.yul\":35460:35463   */\n      dup3\n        /* \"#utility.yul\":35371:35464   */\n      tag_417\n      jump\t// in\n    tag_773:\n        /* \"#utility.yul\":35489:35491   */\n      0x20\n        /* \"#utility.yul\":35484:35487   */\n      dup3\n        /* \"#utility.yul\":35480:35492   */\n      add\n        /* \"#utility.yul\":35473:35492   */\n      swap1\n      pop\n        /* \"#utility.yul\":35132:35498   */\n      swap2\n      swap1\n      pop\n      jump\t// out\n        /* \"#utility.yul\":35504:36124   */\n    tag_297:\n        /* \"#utility.yul\":35718:35722   */\n      0x00\n        /* \"#utility.yul\":35756:35758   */\n      0x40\n        /* \"#utility.yul\":35745:35754   */\n      dup3\n        /* \"#utility.yul\":35741:35759   */\n      add\n        /* \"#utility.yul\":35733:35759   */\n      swap1\n      pop\n        /* \"#utility.yul\":35805:35814   */\n      dup2\n        /* \"#utility.yul\":35799:35803   */\n      dup2\n        /* \"#utility.yul\":35795:35815   */\n      sub\n        /* \"#utility.yul\":35791:35792   */\n      0x00\n        /* \"#utility.yul\":35780:35789   */\n      dup4\n        /* \"#utility.yul\":35776:35793   */\n      add\n        /* \"#utility.yul\":35769:35816   */\n      mstore\n        /* \"#utility.yul\":35833:35964   */\n      tag_775\n        /* \"#utility.yul\":35959:35963   */\n      dup2\n        /* \"#utility.yul\":35833:35964   */\n      tag_418\n      jump\t// in\n    tag_775:\n        /* \"#utility.yul\":35825:35964   */\n      swap1\n      pop\n        /* \"#utility.yul\":36011:36020   */\n      dup2\n        /* \"#utility.yul\":36005:36009   */\n      dup2\n        /* \"#utility.yul\":36001:36021   */\n      sub\n        /* \"#utility.yul\":35996:35998   */\n      0x20\n        /* \"#utility.yul\":35985:35994   */\n      dup4\n        /* \"#utility.yul\":35981:35999   */\n      add\n        /* \"#utility.yul\":35974:36022   */\n      mstore\n        /* \"#utility.yul\":36039:36117   */\n      tag_776\n        /* \"#utility.yul\":36112:36116   */\n      dup2\n        /* \"#utility.yul\":36103:36109   */\n      dup5\n        /* \"#utility.yul\":36039:36117   */\n      tag_375\n      jump\t// in\n    tag_776:\n        /* \"#utility.yul\":36031:36117   */\n      swap1\n      pop\n        /* \"#utility.yul\":35504:36124   */\n      swap3\n      swap2\n      pop\n      pop\n      jump\t// out\n        /* \"#utility.yul\":36130:36562   */\n    tag_419:\n        /* \"#utility.yul\":36218:36223   */\n      0x00\n        /* \"#utility.yul\":36243:36308   */\n      tag_778\n        /* \"#utility.yul\":36259:36307   */\n      tag_779\n        /* \"#utility.yul\":36300:36306   */\n      dup5\n        /* \"#utility.yul\":36259:36307   */\n      tag_363\n      jump\t// in\n    tag_779:\n        /* \"#utility.yul\":36243:36308   */\n      tag_362\n      jump\t// in\n    tag_778:\n        /* \"#utility.yul\":36234:36308   */\n      swap1\n      pop\n        /* \"#utility.yul\":36331:36337   */\n      dup3\n        /* \"#utility.yul\":36324:36329   */\n      dup2\n        /* \"#utility.yul\":36317:36338   */\n      mstore\n        /* \"#utility.yul\":36369:36373   */\n      0x20\n        /* \"#utility.yul\":36362:36367   */\n      dup2\n        /* \"#utility.yul\":36358:36374   */\n      add\n        /* \"#utility.yul\":36407:36410   */\n      dup5\n        /* \"#utility.yul\":36398:36404   */\n      dup5\n        /* \"#utility.yul\":36393:36396   */\n      dup5\n        /* \"#utility.yul\":36389:36405   */\n      add\n        /* \"#utility.yul\":36386:36411   */\n      gt\n        /* \"#utility.yul\":36383:36495   */\n      iszero\n      tag_780\n      jumpi\n        /* \"#utility.yul\":36414:36493   */\n      tag_781\n      tag_360\n      jump\t// in\n    tag_781:\n        /* \"#utility.yul\":36383:36495   */\n    tag_780:\n        /* \"#utility.yul\":36504:36556   */\n      tag_782\n        /* \"#utility.yul\":36549:36555   */\n      dup5\n        /* \"#utility.yul\":36544:36547   */\n      dup3\n        /* \"#utility.yul\":36539:36542   */\n      dup6\n        /* \"#utility.yul\":36504:36556   */\n      tag_339\n      jump\t// in\n    tag_782:\n        /* \"#utility.yul\":36224:36562   */\n      pop\n        /* \"#utility.yul\":36130:36562   */\n      swap4\n      swap3\n      pop\n      pop\n      pop\n      jump\t// out\n        /* \"#utility.yul\":36581:36934   */\n    tag_420:\n        /* \"#utility.yul\":36647:36652   */\n      0x00\n        /* \"#utility.yul\":36696:36699   */\n      dup3\n        /* \"#utility.yul\":36689:36693   */\n      0x1f\n        /* \"#utility.yul\":36681:36687   */\n      dup4\n        /* \"#utility.yul\":36677:36694   */\n      add\n        /* \"#utility.yul\":36673:36700   */\n      slt\n        /* \"#utility.yul\":36663:36785   */\n      tag_784\n      jumpi\n        /* \"#utility.yul\":36704:36783   */\n      tag_785\n      tag_345\n      jump\t// in\n    tag_785:\n        /* \"#utility.yul\":36663:36785   */\n    tag_784:\n        /* \"#utility.yul\":36814:36820   */\n      dup2\n        /* \"#utility.yul\":36808:36821   */\n      mload\n        /* \"#utility.yul\":36839:36928   */\n      tag_786\n        /* \"#utility.yul\":36924:36927   */\n      dup5\n        /* \"#utility.yul\":36916:36922   */\n      dup3\n        /* \"#utility.yul\":36909:36913   */\n      0x20\n        /* \"#utility.yul\":36901:36907   */\n      dup7\n        /* \"#utility.yul\":36897:36914   */\n      add\n        /* \"#utility.yul\":36839:36928   */\n      tag_419\n      jump\t// in\n    tag_786:\n        /* \"#utility.yul\":36830:36928   */\n      swap2\n      pop\n        /* \"#utility.yul\":36653:36934   */\n      pop\n        /* \"#utility.yul\":36581:36934   */\n      swap3\n      swap2\n      pop\n      pop\n      jump\t// out\n        /* \"#utility.yul\":36940:37462   */\n    tag_301:\n        /* \"#utility.yul\":37019:37025   */\n      0x00\n        /* \"#utility.yul\":37068:37070   */\n      0x20\n        /* \"#utility.yul\":37056:37065   */\n      dup3\n        /* \"#utility.yul\":37047:37054   */\n      dup5\n        /* \"#utility.yul\":37043:37066   */\n      sub\n        /* \"#utility.yul\":37039:37071   */\n      slt\n        /* \"#utility.yul\":37036:37155   */\n      iszero\n      tag_788\n      jumpi\n        /* \"#utility.yul\":37074:37153   */\n      tag_789\n      tag_332\n      jump\t// in\n    tag_789:\n        /* \"#utility.yul\":37036:37155   */\n    tag_788:\n        /* \"#utility.yul\":37215:37216   */\n      0x00\n        /* \"#utility.yul\":37204:37213   */\n      dup3\n        /* \"#utility.yul\":37200:37217   */\n      add\n        /* \"#utility.yul\":37194:37218   */\n      mload\n        /* \"#utility.yul\":37245:37263   */\n      0xffffffffffffffff\n        /* \"#utility.yul\":37237:37243   */\n      dup2\n        /* \"#utility.yul\":37234:37264   */\n      gt\n        /* \"#utility.yul\":37231:37348   */\n      iszero\n      tag_790\n      jumpi\n        /* \"#utility.yul\":37267:37346   */\n      tag_791\n      tag_333\n      jump\t// in\n    tag_791:\n        /* \"#utility.yul\":37231:37348   */\n    tag_790:\n        /* \"#utility.yul\":37372:37445   */\n      tag_792\n        /* \"#utility.yul\":37437:37444   */\n      dup5\n        /* \"#utility.yul\":37428:37434   */\n      dup3\n        /* \"#utility.yul\":37417:37426   */\n      dup6\n        /* \"#utility.yul\":37413:37435   */\n      add\n        /* \"#utility.yul\":37372:37445   */\n      tag_420\n      jump\t// in\n    tag_792:\n        /* \"#utility.yul\":37362:37445   */\n      swap2\n      pop\n        /* \"#utility.yul\":37165:37455   */\n      pop\n        /* \"#utility.yul\":36940:37462   */\n      swap3\n      swap2\n      pop\n      pop\n      jump\t// out\n        /* \"#utility.yul\":37468:37638   */\n    tag_421:\n        /* \"#utility.yul\":37608:37630   */\n      0x5661756c74206e6f7420617574686f72697a6564000000000000000000000000\n        /* \"#utility.yul\":37604:37605   */\n      0x00\n        /* \"#utility.yul\":37596:37602   */\n      dup3\n        /* \"#utility.yul\":37592:37606   */\n      add\n        /* \"#utility.yul\":37585:37631   */\n      mstore\n        /* \"#utility.yul\":37468:37638   */\n      pop\n      jump\t// out\n        /* \"#utility.yul\":37644:38010   */\n    tag_422:\n        /* \"#utility.yul\":37786:37789   */\n      0x00\n        /* \"#utility.yul\":37807:37874   */\n      tag_795\n        /* \"#utility.yul\":37871:37873   */\n      0x14\n        /* \"#utility.yul\":37866:37869   */\n      dup4\n        /* \"#utility.yul\":37807:37874   */\n      tag_374\n      jump\t// in\n    tag_795:\n        /* \"#utility.yul\":37800:37874   */\n      swap2\n      pop\n        /* \"#utility.yul\":37883:37976   */\n      tag_796\n        /* \"#utility.yul\":37972:37975   */\n      dup3\n        /* \"#utility.yul\":37883:37976   */\n      tag_421\n      jump\t// in\n    tag_796:\n        /* \"#utility.yul\":38001:38003   */\n      0x20\n        /* \"#utility.yul\":37996:37999   */\n      dup3\n        /* \"#utility.yul\":37992:38004   */\n      add\n        /* \"#utility.yul\":37985:38004   */\n      swap1\n      pop\n        /* \"#utility.yul\":37644:38010   */\n      swap2\n      swap1\n      pop\n      jump\t// out\n        /* \"#utility.yul\":38016:38435   */\n    tag_304:\n        /* \"#utility.yul\":38182:38186   */\n      0x00\n        /* \"#utility.yul\":38220:38222   */\n      0x20\n        /* \"#utility.yul\":38209:38218   */\n      dup3\n        /* \"#utility.yul\":38205:38223   */\n      add\n        /* \"#utility.yul\":38197:38223   */\n      swap1\n      pop\n        /* \"#utility.yul\":38269:38278   */\n      dup2\n        /* \"#utility.yul\":38263:38267   */\n      dup2\n        /* \"#utility.yul\":38259:38279   */\n      sub\n        /* \"#utility.yul\":38255:38256   */\n      0x00\n        /* \"#utility.yul\":38244:38253   */\n      dup4\n        /* \"#utility.yul\":38240:38257   */\n      add\n        /* \"#utility.yul\":38233:38280   */\n      mstore\n        /* \"#utility.yul\":38297:38428   */\n      tag_798\n        /* \"#utility.yul\":38423:38427   */\n      dup2\n        /* \"#utility.yul\":38297:38428   */\n      tag_422\n      jump\t// in\n    tag_798:\n        /* \"#utility.yul\":38289:38428   */\n      swap1\n      pop\n        /* \"#utility.yul\":38016:38435   */\n      swap2\n      swap1\n      pop\n      jump\t// out\n        /* \"#utility.yul\":38441:38557   */\n    tag_423:\n        /* \"#utility.yul\":38492:38496   */\n      0x00\n        /* \"#utility.yul\":38515:38518   */\n      dup2\n        /* \"#utility.yul\":38507:38518   */\n      swap1\n      pop\n        /* \"#utility.yul\":38545:38549   */\n      0x20\n        /* \"#utility.yul\":38540:38543   */\n      dup3\n        /* \"#utility.yul\":38536:38550   */\n      add\n        /* \"#utility.yul\":38528:38550   */\n      swap1\n      pop\n        /* \"#utility.yul\":38441:38557   */\n      swap2\n      swap1\n      pop\n      jump\t// out\n        /* \"#utility.yul\":38563:38713   */\n    tag_424:\n        /* \"#utility.yul\":38600:38607   */\n      0x00\n        /* \"#utility.yul\":38640:38706   */\n      0xffffffffffffffffffffffffffffffffffffffff000000000000000000000000\n        /* \"#utility.yul\":38633:38638   */\n      dup3\n        /* \"#utility.yul\":38629:38707   */\n      and\n        /* \"#utility.yul\":38618:38707   */\n      swap1\n      pop\n        /* \"#utility.yul\":38563:38713   */\n      swap2\n      swap1\n      pop\n      jump\t// out\n        /* \"#utility.yul\":38719:38873   */\n    tag_425:\n        /* \"#utility.yul\":38762:38773   */\n      0x00\n        /* \"#utility.yul\":38798:38827   */\n      tag_802\n        /* \"#utility.yul\":38822:38825   */\n      dup3\n        /* \"#utility.yul\":38816:38826   */\n      mload\n        /* \"#utility.yul\":38798:38827   */\n      tag_424\n      jump\t// in\n    tag_802:\n        /* \"#utility.yul\":38861:38866   */\n      dup1\n        /* \"#utility.yul\":38837:38866   */\n      swap2\n      pop\n        /* \"#utility.yul\":38774:38873   */\n      pop\n        /* \"#utility.yul\":38719:38873   */\n      swap2\n      swap1\n      pop\n      jump\t// out\n        /* \"#utility.yul\":38879:38986   */\n    tag_426:\n        /* \"#utility.yul\":38923:38931   */\n      0x00\n        /* \"#utility.yul\":38973:38978   */\n      dup3\n        /* \"#utility.yul\":38967:38971   */\n      dup3\n        /* \"#utility.yul\":38963:38979   */\n      shl\n        /* \"#utility.yul\":38942:38979   */\n      swap1\n      pop\n        /* \"#utility.yul\":38879:38986   */\n      swap3\n      swap2\n      pop\n      pop\n      jump\t// out\n        /* \"#utility.yul\":38992:39586   */\n    tag_306:\n        /* \"#utility.yul\":39076:39081   */\n      0x00\n        /* \"#utility.yul\":39107:39145   */\n      tag_805\n        /* \"#utility.yul\":39139:39144   */\n      dup3\n        /* \"#utility.yul\":39107:39145   */\n      tag_337\n      jump\t// in\n    tag_805:\n        /* \"#utility.yul\":39170:39175   */\n      dup3\n        /* \"#utility.yul\":39197:39237   */\n      tag_806\n        /* \"#utility.yul\":39231:39236   */\n      dup5\n        /* \"#utility.yul\":39197:39237   */\n      tag_423\n      jump\t// in\n    tag_806:\n        /* \"#utility.yul\":39185:39237   */\n      swap1\n      pop\n        /* \"#utility.yul\":39256:39291   */\n      tag_807\n        /* \"#utility.yul\":39282:39290   */\n      dup2\n        /* \"#utility.yul\":39256:39291   */\n      tag_425\n      jump\t// in\n    tag_807:\n        /* \"#utility.yul\":39247:39291   */\n      swap3\n      pop\n        /* \"#utility.yul\":39315:39317   */\n      0x14\n        /* \"#utility.yul\":39307:39313   */\n      dup3\n        /* \"#utility.yul\":39304:39318   */\n      lt\n        /* \"#utility.yul\":39301:39579   */\n      iszero\n      tag_808\n      jumpi\n        /* \"#utility.yul\":39386:39555   */\n      tag_809\n        /* \"#utility.yul\":39471:39537   */\n      0xffffffffffffffffffffffffffffffffffffffff000000000000000000000000\n        /* \"#utility.yul\":39441:39447   */\n      dup4\n        /* \"#utility.yul\":39437:39439   */\n      0x14\n        /* \"#utility.yul\":39433:39448   */\n      sub\n        /* \"#utility.yul\":39430:39431   */\n      0x08\n        /* \"#utility.yul\":39426:39449   */\n      mul\n        /* \"#utility.yul\":39386:39555   */\n      tag_426\n      jump\t// in\n    tag_809:\n        /* \"#utility.yul\":39363:39368   */\n      dup4\n        /* \"#utility.yul\":39342:39569   */\n      and\n        /* \"#utility.yul\":39333:39569   */\n      swap3\n      pop\n        /* \"#utility.yul\":39301:39579   */\n    tag_808:\n        /* \"#utility.yul\":39082:39586   */\n      pop\n      pop\n        /* \"#utility.yul\":38992:39586   */\n      swap2\n      swap1\n      pop\n      jump\t// out\n        /* \"#utility.yul\":39592:40553   */\n    tag_321:\n        /* \"#utility.yul\":39844:39847   */\n      0x00\n        /* \"#utility.yul\":39859:39934   */\n      tag_811\n        /* \"#utility.yul\":39930:39933   */\n      dup3\n        /* \"#utility.yul\":39921:39927   */\n      dup10\n        /* \"#utility.yul\":39859:39934   */\n      tag_384\n      jump\t// in\n    tag_811:\n        /* \"#utility.yul\":39959:39961   */\n      0x20\n        /* \"#utility.yul\":39954:39957   */\n      dup3\n        /* \"#utility.yul\":39950:39962   */\n      add\n        /* \"#utility.yul\":39943:39962   */\n      swap2\n      pop\n        /* \"#utility.yul\":39972:40047   */\n      tag_812\n        /* \"#utility.yul\":40043:40046   */\n      dup3\n        /* \"#utility.yul\":40034:40040   */\n      dup9\n        /* \"#utility.yul\":39972:40047   */\n      tag_384\n      jump\t// in\n    tag_812:\n        /* \"#utility.yul\":40072:40074   */\n      0x20\n        /* \"#utility.yul\":40067:40070   */\n      dup3\n        /* \"#utility.yul\":40063:40075   */\n      add\n        /* \"#utility.yul\":40056:40075   */\n      swap2\n      pop\n        /* \"#utility.yul\":40085:40160   */\n      tag_813\n        /* \"#utility.yul\":40156:40159   */\n      dup3\n        /* \"#utility.yul\":40147:40153   */\n      dup8\n        /* \"#utility.yul\":40085:40160   */\n      tag_384\n      jump\t// in\n    tag_813:\n        /* \"#utility.yul\":40185:40187   */\n      0x20\n        /* \"#utility.yul\":40180:40183   */\n      dup3\n        /* \"#utility.yul\":40176:40188   */\n      add\n        /* \"#utility.yul\":40169:40188   */\n      swap2\n      pop\n        /* \"#utility.yul\":40198:40273   */\n      tag_814\n        /* \"#utility.yul\":40269:40272   */\n      dup3\n        /* \"#utility.yul\":40260:40266   */\n      dup7\n        /* \"#utility.yul\":40198:40273   */\n      tag_384\n      jump\t// in\n    tag_814:\n        /* \"#utility.yul\":40298:40300   */\n      0x20\n        /* \"#utility.yul\":40293:40296   */\n      dup3\n        /* \"#utility.yul\":40289:40301   */\n      add\n        /* \"#utility.yul\":40282:40301   */\n      swap2\n      pop\n        /* \"#utility.yul\":40311:40386   */\n      tag_815\n        /* \"#utility.yul\":40382:40385   */\n      dup3\n        /* \"#utility.yul\":40373:40379   */\n      dup6\n        /* \"#utility.yul\":40311:40386   */\n      tag_384\n      jump\t// in\n    tag_815:\n        /* \"#utility.yul\":40411:40413   */\n      0x20\n        /* \"#utility.yul\":40406:40409   */\n      dup3\n        /* \"#utility.yul\":40402:40414   */\n      add\n        /* \"#utility.yul\":40395:40414   */\n      swap2\n      pop\n        /* \"#utility.yul\":40424:40499   */\n      tag_816\n        /* \"#utility.yul\":40495:40498   */\n      dup3\n        /* \"#utility.yul\":40486:40492   */\n      dup5\n        /* \"#utility.yul\":40424:40499   */\n      tag_384\n      jump\t// in\n    tag_816:\n        /* \"#utility.yul\":40524:40526   */\n      0x20\n        /* \"#utility.yul\":40519:40522   */\n      dup3\n        /* \"#utility.yul\":40515:40527   */\n      add\n        /* \"#utility.yul\":40508:40527   */\n      swap2\n      pop\n        /* \"#utility.yul\":40544:40547   */\n      dup2\n        /* \"#utility.yul\":40537:40547   */\n      swap1\n      pop\n        /* \"#utility.yul\":39592:40553   */\n      swap8\n      swap7\n      pop\n      pop\n      pop\n      pop\n      pop\n      pop\n      pop\n      jump\t// out\n\n    auxdata: 0xa2646970667358221220b467fc34c2c89711455bfa9b7f4e8f6b777dc51897ddf71006f836a8ec46be4664736f6c634300081f0033\n}\n",
				"bytecode": {
					"linkReferences": {},
					"object": "610120604052348015610010575f5ffd5b50604051612dca380380612dca833981810160405281019061003291906102e1565b335f73ffffffffffffffffffffffffffffffffffffffff168173ffffffffffffffffffffffffffffffffffffffff16036100a3575f6040517f1e4fbdf700000000000000000000000000000000000000000000000000000000815260040161009a9190610367565b60405180910390fd5b6100b2816101c260201b60201c565b508473ffffffffffffffffffffffffffffffffffffffff1660808173ffffffffffffffffffffffffffffffffffffffff16815250508373ffffffffffffffffffffffffffffffffffffffff1660a08173ffffffffffffffffffffffffffffffffffffffff16815250508273ffffffffffffffffffffffffffffffffffffffff1660c08173ffffffffffffffffffffffffffffffffffffffff16815250508173ffffffffffffffffffffffffffffffffffffffff1660e08173ffffffffffffffffffffffffffffffffffffffff16815250508073ffffffffffffffffffffffffffffffffffffffff166101008173ffffffffffffffffffffffffffffffffffffffff16815250505050505050610380565b5f5f5f9054906101000a900473ffffffffffffffffffffffffffffffffffffffff169050815f5f6101000a81548173ffffffffffffffffffffffffffffffffffffffff021916908373ffffffffffffffffffffffffffffffffffffffff1602179055508173ffffffffffffffffffffffffffffffffffffffff168173ffffffffffffffffffffffffffffffffffffffff167f8be0079c531659141344cd1fd0a4f28419497f9722a3daafe3b4186f6b6457e060405160405180910390a35050565b5f5ffd5b5f73ffffffffffffffffffffffffffffffffffffffff82169050919050565b5f6102b082610287565b9050919050565b6102c0816102a6565b81146102ca575f5ffd5b50565b5f815190506102db816102b7565b92915050565b5f5f5f5f5f60a086880312156102fa576102f9610283565b5b5f610307888289016102cd565b9550506020610318888289016102cd565b9450506040610329888289016102cd565b935050606061033a888289016102cd565b925050608061034b888289016102cd565b9150509295509295909350565b610361816102a6565b82525050565b5f60208201905061037a5f830184610358565b92915050565b60805160a05160c05160e051610100516129dc6103ee5f395f818161056901528181610bf6015261103101525f8181610a5e01528181610e40015261137401525f81816103c10152610c1a01525f8181610837015261086e01525f81816105f80152610ee801526129dc5ff3fe608060405234801561000f575f5ffd5b5060043610610114575f3560e01c806397aba7f9116100a0578063b648f2201161006f578063b648f220146102de578063bf4d766e1461030e578063f2fde38b1461032c578063f90c0f4014610348578063fa5408011461036657610114565b806397aba7f914610242578063aad2406114610272578063aed881d8146102a2578063b3d63003146102c057610114565b80634eb30d41116100e75780634eb30d41146101b0578063715018a6146101ce57806376fbe04f146101d85780637a988c54146101f45780638da5cb5b1461022457610114565b806319b8c9411461011857806334e1d6a614610148578063392c87311461016457806341e532ca14610180575b5f5ffd5b610132600480360381019061012d91906116d0565b610396565b60405161013f919061176b565b60405180910390f35b610162600480360381019061015d919061182e565b6103bf565b005b61017e600480360381019061017991906118c3565b6105f6565b005b61019a60048036038101906101959190611937565b6107e9565b6040516101a791906119da565b60405180910390f35b6101b8610835565b6040516101c59190611a4e565b60405180910390f35b6101d6610859565b005b6101f260048036038101906101ed919061182e565b61086c565b005b61020e600480360381019061020991906116d0565b610af1565b60405161021b91906119da565b60405180910390f35b61022c610afa565b60405161023991906119da565b60405180910390f35b61025c60048036038101906102579190611bc2565b610b21565b60405161026991906119da565b60405180910390f35b61028c600480360381019061028791906116d0565b610bd7565b6040516102999190611c36565b60405180910390f35b6102aa610bf4565b6040516102b79190611c6f565b60405180910390f35b6102c8610c18565b6040516102d59190611ca8565b60405180910390f35b6102f860048036038101906102f391906116d0565b610c3c565b6040516103059190611d13565b60405180910390f35b610316610e3e565b6040516103239190611d53565b60405180910390f35b61034660048036038101906103419190611d96565b610e62565b005b610350610ee6565b60405161035d9190611de1565b60405180910390f35b610380600480360381019061037b9190611dfa565b610f0a565b60405161038d9190611e34565b60405180910390f35b6060816040516020016103a99190611e6d565b6040516020818303038152906040529050919050565b7f000000000000000000000000000000000000000000000000000000000000000073ffffffffffffffffffffffffffffffffffffffff16631042664e85856040518363ffffffff1660e01b815260040161041a929190611eb1565b5f6040518083038186803b158015610430575f5ffd5b505afa158015610442573d5f5f3e3d5ffd5b505050505f8360046007811061045b5761045a611eda565b5b602002013590504681146104a4576040517f08c379a000000000000000000000000000000000000000000000000000000000815260040161049b90611f51565b60405180910390fd5b5f6104ae85610f39565b90506104bd815f1b8585611022565b60015f8281526020019081526020015f205f9054906101000a900460ff161561051b576040517f08c379a000000000000000000000000000000000000000000000000000000000815260040161051290611fb9565b60405180910390fd5b6001805f8381526020019081526020015f205f6101000a81548160ff0219169083151502179055505f6105658660056007811061055b5761055a611eda565b5b6020020135610af1565b90507f000000000000000000000000000000000000000000000000000000000000000073ffffffffffffffffffffffffffffffffffffffff16631722e147826040518263ffffffff1660e01b81526004016105c091906119da565b5f604051808303815f87803b1580156105d7575f5ffd5b505af11580156105e9573d5f5f3e3d5ffd5b5050505050505050505050565b7f000000000000000000000000000000000000000000000000000000000000000073ffffffffffffffffffffffffffffffffffffffff16639cb2865885856040518363ffffffff1660e01b8152600401610651929190611fe7565b5f6040518083038186803b158015610667575f5ffd5b505afa158015610679573d5f5f3e3d5ffd5b505050505f5f5f6106898661129a565b9250925092505f866002600681106106a4576106a3611eda565b5b602002013590505f876003600681106106c0576106bf611eda565b5b602002013590505f6106d18961146e565b90506106e0815f1b8989611022565b60015f8281526020019081526020015f205f9054906101000a900460ff161561073e576040517f08c379a000000000000000000000000000000000000000000000000000000000815260040161073590611fb9565b60405180910390fd5b6001805f8381526020019081526020015f205f6101000a81548160ff0219169083151502179055505f83608084901b1790508573ffffffffffffffffffffffffffffffffffffffff16637a9eceb482878a866040518563ffffffff1660e01b81526004016107af949392919061201f565b5f604051808303815f87803b1580156107c6575f5ffd5b505af11580156107d8573d5f5f3e3d5ffd5b505050505050505050505050505050565b5f5f85608086901b1790505f84608085901b1790508181604051602001610811929190612069565b604051602081830303815290604052805190602001205f1c92505050949350505050565b7f000000000000000000000000000000000000000000000000000000000000000081565b61086161153d565b61086a5f6115c4565b565b7f000000000000000000000000000000000000000000000000000000000000000073ffffffffffffffffffffffffffffffffffffffff16631042664e85856040518363ffffffff1660e01b81526004016108c7929190611eb1565b5f6040518083038186803b1580156108dd575f5ffd5b505afa1580156108ef573d5f5f3e3d5ffd5b505050505f8360056007811061090857610907611eda565b5b60200201359050468114610951576040517f08c379a000000000000000000000000000000000000000000000000000000000815260040161094890611f51565b60405180910390fd5b5f6109738560036007811061096957610968611eda565b5b6020020135610c3c565b90505f6109978660026007811061098d5761098c611eda565b5b6020020135610c3c565b90505f6109bb876004600781106109b1576109b0611eda565b5b6020020135610396565b90505f6109c788610f39565b90506109d6815f1b8888611022565b60015f8281526020019081526020015f205f9054906101000a900460ff1615610a34576040517f08c379a0000000000000000000000000000000000000000000000000000000008152600401610a2b90611fb9565b60405180910390fd5b6001805f8381526020019081526020015f205f6101000a81548160ff0219169083151502179055507f000000000000000000000000000000000000000000000000000000000000000073ffffffffffffffffffffffffffffffffffffffff16632e057b9b8486856040518463ffffffff1660e01b8152600401610ab993929190612094565b5f604051808303815f87803b158015610ad0575f5ffd5b505af1158015610ae2573d5f5f3e3d5ffd5b50505050505050505050505050565b5f819050919050565b5f5f5f9054906101000a900473ffffffffffffffffffffffffffffffffffffffff16905090565b5f6041825114610b66576040517f08c379a0000000000000000000000000000000000000000000000000000000008152600401610b5d90612128565b60405180910390fd5b5f5f5f602085015192506040850151915060608501515f1a90506001868285856040515f8152602001604052604051610ba29493929190612161565b6020604051602081039080840390855afa158015610bc2573d5f5f3e3d5ffd5b50505060206040510351935050505092915050565b6001602052805f5260405f205f915054906101000a900460ff1681565b7f000000000000000000000000000000000000000000000000000000000000000081565b7f000000000000000000000000000000000000000000000000000000000000000081565b60605f8203610c5b5760405180602001604052805f8152509050610e39565b5f825f1b90505f5f90505b60208160ff16108015610cb657505f60f81b828260ff1660208110610c8e57610c8d611eda565b5b1a60f81b7effffffffffffffffffffffffffffffffffffffffffffffffffffffffffffff1916145b15610cce578080610cc6906121d1565b915050610c66565b5f601f90505b8160ff168160ff16118015610d2657505f60f81b838260ff1660208110610cfe57610cfd611eda565b5b1a60f81b7effffffffffffffffffffffffffffffffffffffffffffffffffffffffffffff1916145b15610d3e578080610d36906121f9565b915050610cd4565b5f60018383610d4d9190612220565b610d579190612254565b90505f8160ff1667ffffffffffffffff811115610d7757610d76611a9e565b5b6040519080825280601f01601f191660200182016040528015610da95781602001600182028036833780820191505090505b5090505f5f90505b8260ff16811015610e2f5785818660ff16610dcc9190612288565b60208110610ddd57610ddc611eda565b5b1a60f81b828281518110610df457610df3611eda565b5b60200101907effffffffffffffffffffffffffffffffffffffffffffffffffffffffffffff191690815f1a9053508080600101915050610db1565b5080955050505050505b919050565b7f000000000000000000000000000000000000000000000000000000000000000081565b610e6a61153d565b5f73ffffffffffffffffffffffffffffffffffffffff168173ffffffffffffffffffffffffffffffffffffffff1603610eda575f6040517f1e4fbdf7000000000000000000000000000000000000000000000000000000008152600401610ed191906119da565b60405180910390fd5b610ee3816115c4565b50565b7f000000000000000000000000000000000000000000000000000000000000000081565b5f81604051602001610f1c919061232f565b604051602081830303815290604052805190602001209050919050565b5f5f825f60078110610f4e57610f4d611eda565b5b602002013583600160078110610f6757610f66611eda565b5b602002013584600260078110610f8057610f7f611eda565b5b602002013585600360078110610f9957610f98611eda565b5b602002013586600460078110610fb257610fb1611eda565b5b602002013587600560078110610fcb57610fca611eda565b5b602002013588600660078110610fe457610fe3611eda565b5b6020020135604051602001610fff9796959493929190612354565b604051602081830303815290604052805190602001209050805f1c915050919050565b5f61102c84610f0a565b90505f7f000000000000000000000000000000000000000000000000000000000000000073ffffffffffffffffffffffffffffffffffffffff16631442e4c96040518163ffffffff1660e01b81526004015f60405180830381865afa158015611097573d5f5f3e3d5ffd5b505050506040513d5f823e3d601f19601f820116820180604052508101906110bf91906124a8565b90505f5f90505b8484905081101561129257365f86866041856110e291906124ef565b9060416001876110f29190612288565b6110fc91906124ef565b9261110993929190612538565b915091505f61115b8684848080601f0160208091040260200160405190810160405280939291908181526020018383808284375f81840152601f19601f82011690508083019250505050505050610b21565b90505f73ffffffffffffffffffffffffffffffffffffffff168173ffffffffffffffffffffffffffffffffffffffff16036111cb576040517f08c379a00000000000000000000000000000000000000000000000000000000081526004016111c2906125bc565b60405180910390fd5b5f5f90505f5f90505b8651811015611240578273ffffffffffffffffffffffffffffffffffffffff1687828151811061120757611206611eda565b5b602002602001015173ffffffffffffffffffffffffffffffffffffffff16036112335760019150611240565b80806001019150506111d4565b5080611281576040517f08c379a000000000000000000000000000000000000000000000000000000000815260040161127890612624565b60405180910390fd5b5050505080806001019150506110c6565b505050505050565b5f5f60605f846005600681106112b3576112b2611eda565b5b602002013590508067ffffffffffffffff1693505f604082901c63ffffffff169050468114611317576040517f08c379a000000000000000000000000000000000000000000000000000000000815260040161130e90611f51565b60405180910390fd5b5f608083901c905061132881610c3c565b93505f61134c8860046006811061134257611341611eda565b5b6020020135610c3c565b90505f8160405160200161136091906126bc565b60405160208183030381529060405290505f7f000000000000000000000000000000000000000000000000000000000000000073ffffffffffffffffffffffffffffffffffffffff166316f1adc1836040518263ffffffff1660e01b81526004016113cb9190612727565b5f60405180830381865afa1580156113e5573d5f5f3e3d5ffd5b505050506040513d5f823e3d601f19601f8201168201806040525081019061140d91906127c8565b90505f815111611452576040517f08c379a000000000000000000000000000000000000000000000000000000000815260040161144990612859565b60405180910390fd5b8061145c906128d1565b60601c97505050505050509193909250565b5f5f825f6006811061148357611482611eda565b5b60200201358360016006811061149c5761149b611eda565b5b6020020135846002600681106114b5576114b4611eda565b5b6020020135856003600681106114ce576114cd611eda565b5b6020020135866004600681106114e7576114e6611eda565b5b602002013587600560068110611500576114ff611eda565b5b602002013560405160200161151a96959493929190612937565b604051602081830303815290604052805190602001209050805f1c915050919050565b611545611685565b73ffffffffffffffffffffffffffffffffffffffff16611563610afa565b73ffffffffffffffffffffffffffffffffffffffff16146115c257611586611685565b6040517f118cdaa70000000000000000000000000000000000000000000000000000000081526004016115b991906119da565b60405180910390fd5b565b5f5f5f9054906101000a900473ffffffffffffffffffffffffffffffffffffffff169050815f5f6101000a81548173ffffffffffffffffffffffffffffffffffffffff021916908373ffffffffffffffffffffffffffffffffffffffff1602179055508173ffffffffffffffffffffffffffffffffffffffff168173ffffffffffffffffffffffffffffffffffffffff167f8be0079c531659141344cd1fd0a4f28419497f9722a3daafe3b4186f6b6457e060405160405180910390a35050565b5f33905090565b5f604051905090565b5f5ffd5b5f5ffd5b5f819050919050565b6116af8161169d565b81146116b9575f5ffd5b50565b5f813590506116ca816116a6565b92915050565b5f602082840312156116e5576116e4611695565b5b5f6116f2848285016116bc565b91505092915050565b5f81519050919050565b5f82825260208201905092915050565b8281835e5f83830152505050565b5f601f19601f8301169050919050565b5f61173d826116fb565b6117478185611705565b9350611757818560208601611715565b61176081611723565b840191505092915050565b5f6020820190508181035f8301526117838184611733565b905092915050565b5f5ffd5b5f819050826020600802820111156117aa576117a961178b565b5b92915050565b5f819050826020600702820111156117cb576117ca61178b565b5b92915050565b5f5ffd5b5f5ffd5b5f5f83601f8401126117ee576117ed6117d1565b5b8235905067ffffffffffffffff81111561180b5761180a6117d5565b5b6020830191508360018202830111156118275761182661178b565b5b9250929050565b5f5f5f5f610200858703121561184757611846611695565b5b5f6118548782880161178f565b945050610100611866878288016117b0565b9350506101e085013567ffffffffffffffff81111561188857611887611699565b5b611894878288016117d9565b925092505092959194509250565b5f819050826020600602820111156118bd576118bc61178b565b5b92915050565b5f5f5f5f6101e085870312156118dc576118db611695565b5b5f6118e98782880161178f565b9450506101006118fb878288016118a2565b9350506101c085013567ffffffffffffffff81111561191d5761191c611699565b5b611929878288016117d9565b925092505092959194509250565b5f5f5f5f6080858703121561194f5761194e611695565b5b5f61195c878288016116bc565b945050602061196d878288016116bc565b935050604061197e878288016116bc565b925050606061198f878288016116bc565b91505092959194509250565b5f73ffffffffffffffffffffffffffffffffffffffff82169050919050565b5f6119c48261199b565b9050919050565b6119d4816119ba565b82525050565b5f6020820190506119ed5f8301846119cb565b92915050565b5f819050919050565b5f611a16611a11611a0c8461199b565b6119f3565b61199b565b9050919050565b5f611a27826119fc565b9050919050565b5f611a3882611a1d565b9050919050565b611a4881611a2e565b82525050565b5f602082019050611a615f830184611a3f565b92915050565b5f819050919050565b611a7981611a67565b8114611a83575f5ffd5b50565b5f81359050611a9481611a70565b92915050565b5f5ffd5b7f4e487b71000000000000000000000000000000000000000000000000000000005f52604160045260245ffd5b611ad482611723565b810181811067ffffffffffffffff82111715611af357611af2611a9e565b5b80604052505050565b5f611b0561168c565b9050611b118282611acb565b919050565b5f67ffffffffffffffff821115611b3057611b2f611a9e565b5b611b3982611723565b9050602081019050919050565b828183375f83830152505050565b5f611b66611b6184611b16565b611afc565b905082815260208101848484011115611b8257611b81611a9a565b5b611b8d848285611b46565b509392505050565b5f82601f830112611ba957611ba86117d1565b5b8135611bb9848260208601611b54565b91505092915050565b5f5f60408385031215611bd857611bd7611695565b5b5f611be585828601611a86565b925050602083013567ffffffffffffffff811115611c0657611c05611699565b5b611c1285828601611b95565b9150509250929050565b5f8115159050919050565b611c3081611c1c565b82525050565b5f602082019050611c495f830184611c27565b92915050565b5f611c5982611a1d565b9050919050565b611c6981611c4f565b82525050565b5f602082019050611c825f830184611c60565b92915050565b5f611c9282611a1d565b9050919050565b611ca281611c88565b82525050565b5f602082019050611cbb5f830184611c99565b92915050565b5f81519050919050565b5f82825260208201905092915050565b5f611ce582611cc1565b611cef8185611ccb565b9350611cff818560208601611715565b611d0881611723565b840191505092915050565b5f6020820190508181035f830152611d2b8184611cdb565b905092915050565b5f611d3d82611a1d565b9050919050565b611d4d81611d33565b82525050565b5f602082019050611d665f830184611d44565b92915050565b611d75816119ba565b8114611d7f575f5ffd5b50565b5f81359050611d9081611d6c565b92915050565b5f60208284031215611dab57611daa611695565b5b5f611db884828501611d82565b91505092915050565b5f611dcb82611a1d565b9050919050565b611ddb81611dc1565b82525050565b5f602082019050611df45f830184611dd2565b92915050565b5f60208284031215611e0f57611e0e611695565b5b5f611e1c84828501611a86565b91505092915050565b611e2e81611a67565b82525050565b5f602082019050611e475f830184611e25565b92915050565b5f819050919050565b611e67611e628261169d565b611e4d565b82525050565b5f611e788284611e56565b60208201915081905092915050565b82818337505050565b611e9d6101008383611e87565b5050565b611ead60e08383611e87565b5050565b5f6101e082019050611ec55f830185611e90565b611ed3610100830184611ea1565b9392505050565b7f4e487b71000000000000000000000000000000000000000000000000000000005f52603260045260245ffd5b7f57726f6e672064657374696e6174696f6e20636861696e0000000000000000005f82015250565b5f611f3b601783611ccb565b9150611f4682611f07565b602082019050919050565b5f6020820190508181035f830152611f6881611f2f565b9050919050565b7f5265706c61792061747461636b206465746563746564000000000000000000005f82015250565b5f611fa3601683611ccb565b9150611fae82611f6f565b602082019050919050565b5f6020820190508181035f830152611fd081611f97565b9050919050565b611fe360c08383611e87565b5050565b5f6101c082019050611ffb5f830185611e90565b612009610100830184611fd7565b9392505050565b6120198161169d565b82525050565b5f6080820190506120325f8301876119cb565b81810360208301526120448186611cdb565b90506120536040830185612010565b6120606060830184612010565b95945050505050565b5f6120748285611e56565b6020820191506120848284611e56565b6020820191508190509392505050565b5f6060820190508181035f8301526120ac8186611cdb565b905081810360208301526120c08185611cdb565b905081810360408301526120d48184611733565b9050949350505050565b7f496e76616c6964207369676e6174757265206c656e67746800000000000000005f82015250565b5f612112601883611ccb565b915061211d826120de565b602082019050919050565b5f6020820190508181035f83015261213f81612106565b9050919050565b5f60ff82169050919050565b61215b81612146565b82525050565b5f6080820190506121745f830187611e25565b6121816020830186612152565b61218e6040830185611e25565b61219b6060830184611e25565b95945050505050565b7f4e487b71000000000000000000000000000000000000000000000000000000005f52601160045260245ffd5b5f6121db82612146565b915060ff82036121ee576121ed6121a4565b5b600182019050919050565b5f61220382612146565b91505f8203612215576122146121a4565b5b600182039050919050565b5f61222a82612146565b915061223583612146565b9250828203905060ff81111561224e5761224d6121a4565b5b92915050565b5f61225e82612146565b915061226983612146565b9250828201905060ff811115612282576122816121a4565b5b92915050565b5f6122928261169d565b915061229d8361169d565b92508282019050808211156122b5576122b46121a4565b5b92915050565b5f81905092915050565b7f19457468657265756d205369676e6564204d6573736167653a0a3332000000005f82015250565b5f6122f9601c836122bb565b9150612304826122c5565b601c82019050919050565b5f819050919050565b61232961232482611a67565b61230f565b82525050565b5f612339826122ed565b91506123458284612318565b60208201915081905092915050565b5f61235f828a611e56565b60208201915061236f8289611e56565b60208201915061237f8288611e56565b60208201915061238f8287611e56565b60208201915061239f8286611e56565b6020820191506123af8285611e56565b6020820191506123bf8284611e56565b60208201915081905098975050505050505050565b5f67ffffffffffffffff8211156123ee576123ed611a9e565b5b602082029050602081019050919050565b5f8151905061240d81611d6c565b92915050565b5f612425612420846123d4565b611afc565b905080838252602082019050602084028301858111156124485761244761178b565b5b835b81811015612471578061245d88826123ff565b84526020840193505060208101905061244a565b5050509392505050565b5f82601f83011261248f5761248e6117d1565b5b815161249f848260208601612413565b91505092915050565b5f602082840312156124bd576124bc611695565b5b5f82015167ffffffffffffffff8111156124da576124d9611699565b5b6124e68482850161247b565b91505092915050565b5f6124f98261169d565b91506125048361169d565b92508282026125128161169d565b91508282048414831517612529576125286121a4565b5b5092915050565b5f5ffd5b5f5ffd5b5f5f8585111561254b5761254a612530565b5b8386111561255c5761255b612534565b5b6001850283019150848603905094509492505050565b7f496e76616c6964207369676e61747572650000000000000000000000000000005f82015250565b5f6125a6601183611ccb565b91506125b182612572565b602082019050919050565b5f6020820190508181035f8301526125d38161259a565b9050919050565b7f5369676e6572206e6f7420616e206163746976652076616c696461746f7200005f82015250565b5f61260e601e83611ccb565b9150612619826125da565b602082019050919050565b5f6020820190508181035f83015261263b81612602565b9050919050565b5f61264c82611cc1565b61265681856122bb565b9350612666818560208601611715565b80840191505092915050565b7f5f7661756c7400000000000000000000000000000000000000000000000000005f82015250565b5f6126a66006836122bb565b91506126b182612672565b600682019050919050565b5f6126c78284612642565b91506126d28261269a565b915081905092915050565b7f51696172614261736541737365747300000000000000000000000000000000005f82015250565b5f612711600f83611ccb565b915061271c826126dd565b602082019050919050565b5f6040820190508181035f83015261273e81612705565b905081810360208301526127528184611cdb565b905092915050565b5f61276c61276784611b16565b611afc565b90508281526020810184848401111561278857612787611a9a565b5b612793848285611715565b509392505050565b5f82601f8301126127af576127ae6117d1565b5b81516127bf84826020860161275a565b91505092915050565b5f602082840312156127dd576127dc611695565b5b5f82015167ffffffffffffffff8111156127fa576127f9611699565b5b6128068482850161279b565b91505092915050565b7f5661756c74206e6f7420617574686f72697a65640000000000000000000000005f82015250565b5f612843601483611ccb565b915061284e8261280f565b602082019050919050565b5f6020820190508181035f83015261287081612837565b9050919050565b5f819050602082019050919050565b5f7fffffffffffffffffffffffffffffffffffffffff00000000000000000000000082169050919050565b5f6128bc8251612886565b80915050919050565b5f82821b905092915050565b5f6128db826116fb565b826128e584612877565b90506128f0816128b1565b925060148210156129305761292b7fffffffffffffffffffffffffffffffffffffffff000000000000000000000000836014036008026128c5565b831692505b5050919050565b5f6129428289611e56565b6020820191506129528288611e56565b6020820191506129628287611e56565b6020820191506129728286611e56565b6020820191506129828285611e56565b6020820191506129928284611e56565b60208201915081905097965050505050505056fea2646970667358221220b467fc34c2c89711455bfa9b7f4e8f6b777dc51897ddf71006f836a8ec46be4664736f6c634300081f0033",
					"opcodes": "PUSH2 0x120 PUSH1 0x40 MSTORE CALLVALUE DUP1 ISZERO PUSH2 0x10 JUMPI PUSH0 PUSH0 REVERT JUMPDEST POP PUSH1 0x40 MLOAD PUSH2 0x2DCA CODESIZE SUB DUP1 PUSH2 0x2DCA DUP4 CODECOPY DUP2 DUP2 ADD PUSH1 0x40 MSTORE DUP2 ADD SWAP1 PUSH2 0x32 SWAP2 SWAP1 PUSH2 0x2E1 JUMP JUMPDEST CALLER PUSH0 PUSH20 0xFFFFFFFFFFFFFFFFFFFFFFFFFFFFFFFFFFFFFFFF AND DUP2 PUSH20 0xFFFFFFFFFFFFFFFFFFFFFFFFFFFFFFFFFFFFFFFF AND SUB PUSH2 0xA3 JUMPI PUSH0 PUSH1 0x40 MLOAD PUSH32 0x1E4FBDF700000000000000000000000000000000000000000000000000000000 DUP2 MSTORE PUSH1 0x4 ADD PUSH2 0x9A SWAP2 SWAP1 PUSH2 0x367 JUMP JUMPDEST PUSH1 0x40 MLOAD DUP1 SWAP2 SUB SWAP1 REVERT JUMPDEST PUSH2 0xB2 DUP2 PUSH2 0x1C2 PUSH1 0x20 SHL PUSH1 0x20 SHR JUMP JUMPDEST POP DUP5 PUSH20 0xFFFFFFFFFFFFFFFFFFFFFFFFFFFFFFFFFFFFFFFF AND PUSH1 0x80 DUP2 PUSH20 0xFFFFFFFFFFFFFFFFFFFFFFFFFFFFFFFFFFFFFFFF AND DUP2 MSTORE POP POP DUP4 PUSH20 0xFFFFFFFFFFFFFFFFFFFFFFFFFFFFFFFFFFFFFFFF AND PUSH1 0xA0 DUP2 PUSH20 0xFFFFFFFFFFFFFFFFFFFFFFFFFFFFFFFFFFFFFFFF AND DUP2 MSTORE POP POP DUP3 PUSH20 0xFFFFFFFFFFFFFFFFFFFFFFFFFFFFFFFFFFFFFFFF AND PUSH1 0xC0 DUP2 PUSH20 0xFFFFFFFFFFFFFFFFFFFFFFFFFFFFFFFFFFFFFFFF AND DUP2 MSTORE POP POP DUP2 PUSH20 0xFFFFFFFFFFFFFFFFFFFFFFFFFFFFFFFFFFFFFFFF AND PUSH1 0xE0 DUP2 PUSH20 0xFFFFFFFFFFFFFFFFFFFFFFFFFFFFFFFFFFFFFFFF AND DUP2 MSTORE POP POP DUP1 PUSH20 0xFFFFFFFFFFFFFFFFFFFFFFFFFFFFFFFFFFFFFFFF AND PUSH2 0x100 DUP2 PUSH20 0xFFFFFFFFFFFFFFFFFFFFFFFFFFFFFFFFFFFFFFFF AND DUP2 MSTORE POP POP POP POP POP POP POP PUSH2 0x380 JUMP JUMPDEST PUSH0 PUSH0 PUSH0 SWAP1 SLOAD SWAP1 PUSH2 0x100 EXP SWAP1 DIV PUSH20 0xFFFFFFFFFFFFFFFFFFFFFFFFFFFFFFFFFFFFFFFF AND SWAP1 POP DUP2 PUSH0 PUSH0 PUSH2 0x100 EXP DUP2 SLOAD DUP2 PUSH20 0xFFFFFFFFFFFFFFFFFFFFFFFFFFFFFFFFFFFFFFFF MUL NOT AND SWAP1 DUP4 PUSH20 0xFFFFFFFFFFFFFFFFFFFFFFFFFFFFFFFFFFFFFFFF AND MUL OR SWAP1 SSTORE POP DUP2 PUSH20 0xFFFFFFFFFFFFFFFFFFFFFFFFFFFFFFFFFFFFFFFF AND DUP2 PUSH20 0xFFFFFFFFFFFFFFFFFFFFFFFFFFFFFFFFFFFFFFFF AND PUSH32 0x8BE0079C531659141344CD1FD0A4F28419497F9722A3DAAFE3B4186F6B6457E0 PUSH1 0x40 MLOAD PUSH1 0x40 MLOAD DUP1 SWAP2 SUB SWAP1 LOG3 POP POP JUMP JUMPDEST PUSH0 PUSH0 REVERT JUMPDEST PUSH0 PUSH20 0xFFFFFFFFFFFFFFFFFFFFFFFFFFFFFFFFFFFFFFFF DUP3 AND SWAP1 POP SWAP2 SWAP1 POP JUMP JUMPDEST PUSH0 PUSH2 0x2B0 DUP3 PUSH2 0x287 JUMP JUMPDEST SWAP1 POP SWAP2 SWAP1 POP JUMP JUMPDEST PUSH2 0x2C0 DUP2 PUSH2 0x2A6 JUMP JUMPDEST DUP2 EQ PUSH2 0x2CA JUMPI PUSH0 PUSH0 REVERT JUMPDEST POP JUMP JUMPDEST PUSH0 DUP2 MLOAD SWAP1 POP PUSH2 0x2DB DUP2 PUSH2 0x2B7 JUMP JUMPDEST SWAP3 SWAP2 POP POP JUMP JUMPDEST PUSH0 PUSH0 PUSH0 PUSH0 PUSH0 PUSH1 0xA0 DUP7 DUP9 SUB SLT ISZERO PUSH2 0x2FA JUMPI PUSH2 0x2F9 PUSH2 0x283 JUMP JUMPDEST JUMPDEST PUSH0 PUSH2 0x307 DUP9 DUP3 DUP10 ADD PUSH2 0x2CD JUMP JUMPDEST SWAP6 POP POP PUSH1 0x20 PUSH2 0x318 DUP9 DUP3 DUP10 ADD PUSH2 0x2CD JUMP JUMPDEST SWAP5 POP POP PUSH1 0x40 PUSH2 0x329 DUP9 DUP3 DUP10 ADD PUSH2 0x2CD JUMP JUMPDEST SWAP4 POP POP PUSH1 0x60 PUSH2 0x33A DUP9 DUP3 DUP10 ADD PUSH2 0x2CD JUMP JUMPDEST SWAP3 POP POP PUSH1 0x80 PUSH2 0x34B DUP9 DUP3 DUP10 ADD PUSH2 0x2CD JUMP JUMPDEST SWAP2 POP POP SWAP3 SWAP6 POP SWAP3 SWAP6 SWAP1 SWAP4 POP JUMP JUMPDEST PUSH2 0x361 DUP2 PUSH2 0x2A6 JUMP JUMPDEST DUP3 MSTORE POP POP JUMP JUMPDEST PUSH0 PUSH1 0x20 DUP3 ADD SWAP1 POP PUSH2 0x37A PUSH0 DUP4 ADD DUP5 PUSH2 0x358 JUMP JUMPDEST SWAP3 SWAP2 POP POP JUMP JUMPDEST PUSH1 0x80 MLOAD PUSH1 0xA0 MLOAD PUSH1 0xC0 MLOAD PUSH1 0xE0 MLOAD PUSH2 0x100 MLOAD PUSH2 0x29DC PUSH2 0x3EE PUSH0 CODECOPY PUSH0 DUP2 DUP2 PUSH2 0x569 ADD MSTORE DUP2 DUP2 PUSH2 0xBF6 ADD MSTORE PUSH2 0x1031 ADD MSTORE PUSH0 DUP2 DUP2 PUSH2 0xA5E ADD MSTORE DUP2 DUP2 PUSH2 0xE40 ADD MSTORE PUSH2 0x1374 ADD MSTORE PUSH0 DUP2 DUP2 PUSH2 0x3C1 ADD MSTORE PUSH2 0xC1A ADD MSTORE PUSH0 DUP2 DUP2 PUSH2 0x837 ADD MSTORE PUSH2 0x86E ADD MSTORE PUSH0 DUP2 DUP2 PUSH2 0x5F8 ADD MSTORE PUSH2 0xEE8 ADD MSTORE PUSH2 0x29DC PUSH0 RETURN INVALID PUSH1 0x80 PUSH1 0x40 MSTORE CALLVALUE DUP1 ISZERO PUSH2 0xF JUMPI PUSH0 PUSH0 REVERT JUMPDEST POP PUSH1 0x4 CALLDATASIZE LT PUSH2 0x114 JUMPI PUSH0 CALLDATALOAD PUSH1 0xE0 SHR DUP1 PUSH4 0x97ABA7F9 GT PUSH2 0xA0 JUMPI DUP1 PUSH4 0xB648F220 GT PUSH2 0x6F JUMPI DUP1 PUSH4 0xB648F220 EQ PUSH2 0x2DE JUMPI DUP1 PUSH4 0xBF4D766E EQ PUSH2 0x30E JUMPI DUP1 PUSH4 0xF2FDE38B EQ PUSH2 0x32C JUMPI DUP1 PUSH4 0xF90C0F40 EQ PUSH2 0x348 JUMPI DUP1 PUSH4 0xFA540801 EQ PUSH2 0x366 JUMPI PUSH2 0x114 JUMP JUMPDEST DUP1 PUSH4 0x97ABA7F9 EQ PUSH2 0x242 JUMPI DUP1 PUSH4 0xAAD24061 EQ PUSH2 0x272 JUMPI DUP1 PUSH4 0xAED881D8 EQ PUSH2 0x2A2 JUMPI DUP1 PUSH4 0xB3D63003 EQ PUSH2 0x2C0 JUMPI PUSH2 0x114 JUMP JUMPDEST DUP1 PUSH4 0x4EB30D41 GT PUSH2 0xE7 JUMPI DUP1 PUSH4 0x4EB30D41 EQ PUSH2 0x1B0 JUMPI DUP1 PUSH4 0x715018A6 EQ PUSH2 0x1CE JUMPI DUP1 PUSH4 0x76FBE04F EQ PUSH2 0x1D8 JUMPI DUP1 PUSH4 0x7A988C54 EQ PUSH2 0x1F4 JUMPI DUP1 PUSH4 0x8DA5CB5B EQ PUSH2 0x224 JUMPI PUSH2 0x114 JUMP JUMPDEST DUP1 PUSH4 0x19B8C941 EQ PUSH2 0x118 JUMPI DUP1 PUSH4 0x34E1D6A6 EQ PUSH2 0x148 JUMPI DUP1 PUSH4 0x392C8731 EQ PUSH2 0x164 JUMPI DUP1 PUSH4 0x41E532CA EQ PUSH2 0x180 JUMPI JUMPDEST PUSH0 PUSH0 REVERT JUMPDEST PUSH2 0x132 PUSH1 0x4 DUP1 CALLDATASIZE SUB DUP2 ADD SWAP1 PUSH2 0x12D SWAP2 SWAP1 PUSH2 0x16D0 JUMP JUMPDEST PUSH2 0x396 JUMP JUMPDEST PUSH1 0x40 MLOAD PUSH2 0x13F SWAP2 SWAP1 PUSH2 0x176B JUMP JUMPDEST PUSH1 0x40 MLOAD DUP1 SWAP2 SUB SWAP1 RETURN JUMPDEST PUSH2 0x162 PUSH1 0x4 DUP1 CALLDATASIZE SUB DUP2 ADD SWAP1 PUSH2 0x15D SWAP2 SWAP1 PUSH2 0x182E JUMP JUMPDEST PUSH2 0x3BF JUMP JUMPDEST STOP JUMPDEST PUSH2 0x17E PUSH1 0x4 DUP1 CALLDATASIZE SUB DUP2 ADD SWAP1 PUSH2 0x179 SWAP2 SWAP1 PUSH2 0x18C3 JUMP JUMPDEST PUSH2 0x5F6 JUMP JUMPDEST STOP JUMPDEST PUSH2 0x19A PUSH1 0x4 DUP1 CALLDATASIZE SUB DUP2 ADD SWAP1 PUSH2 0x195 SWAP2 SWAP1 PUSH2 0x1937 JUMP JUMPDEST PUSH2 0x7E9 JUMP JUMPDEST PUSH1 0x40 MLOAD PUSH2 0x1A7 SWAP2 SWAP1 PUSH2 0x19DA JUMP JUMPDEST PUSH1 0x40 MLOAD DUP1 SWAP2 SUB SWAP1 RETURN JUMPDEST PUSH2 0x1B8 PUSH2 0x835 JUMP JUMPDEST PUSH1 0x40 MLOAD PUSH2 0x1C5 SWAP2 SWAP1 PUSH2 0x1A4E JUMP JUMPDEST PUSH1 0x40 MLOAD DUP1 SWAP2 SUB SWAP1 RETURN JUMPDEST PUSH2 0x1D6 PUSH2 0x859 JUMP JUMPDEST STOP JUMPDEST PUSH2 0x1F2 PUSH1 0x4 DUP1 CALLDATASIZE SUB DUP2 ADD SWAP1 PUSH2 0x1ED SWAP2 SWAP1 PUSH2 0x182E JUMP JUMPDEST PUSH2 0x86C JUMP JUMPDEST STOP JUMPDEST PUSH2 0x20E PUSH1 0x4 DUP1 CALLDATASIZE SUB DUP2 ADD SWAP1 PUSH2 0x209 SWAP2 SWAP1 PUSH2 0x16D0 JUMP JUMPDEST PUSH2 0xAF1 JUMP JUMPDEST PUSH1 0x40 MLOAD PUSH2 0x21B SWAP2 SWAP1 PUSH2 0x19DA JUMP JUMPDEST PUSH1 0x40 MLOAD DUP1 SWAP2 SUB SWAP1 RETURN JUMPDEST PUSH2 0x22C PUSH2 0xAFA JUMP JUMPDEST PUSH1 0x40 MLOAD PUSH2 0x239 SWAP2 SWAP1 PUSH2 0x19DA JUMP JUMPDEST PUSH1 0x40 MLOAD DUP1 SWAP2 SUB SWAP1 RETURN JUMPDEST PUSH2 0x25C PUSH1 0x4 DUP1 CALLDATASIZE SUB DUP2 ADD SWAP1 PUSH2 0x257 SWAP2 SWAP1 PUSH2 0x1BC2 JUMP JUMPDEST PUSH2 0xB21 JUMP JUMPDEST PUSH1 0x40 MLOAD PUSH2 0x269 SWAP2 SWAP1 PUSH2 0x19DA JUMP JUMPDEST PUSH1 0x40 MLOAD DUP1 SWAP2 SUB SWAP1 RETURN JUMPDEST PUSH2 0x28C PUSH1 0x4 DUP1 CALLDATASIZE SUB DUP2 ADD SWAP1 PUSH2 0x287 SWAP2 SWAP1 PUSH2 0x16D0 JUMP JUMPDEST PUSH2 0xBD7 JUMP JUMPDEST PUSH1 0x40 MLOAD PUSH2 0x299 SWAP2 SWAP1 PUSH2 0x1C36 JUMP JUMPDEST PUSH1 0x40 MLOAD DUP1 SWAP2 SUB SWAP1 RETURN JUMPDEST PUSH2 0x2AA PUSH2 0xBF4 JUMP JUMPDEST PUSH1 0x40 MLOAD PUSH2 0x2B7 SWAP2 SWAP1 PUSH2 0x1C6F JUMP JUMPDEST PUSH1 0x40 MLOAD DUP1 SWAP2 SUB SWAP1 RETURN JUMPDEST PUSH2 0x2C8 PUSH2 0xC18 JUMP JUMPDEST PUSH1 0x40 MLOAD PUSH2 0x2D5 SWAP2 SWAP1 PUSH2 0x1CA8 JUMP JUMPDEST PUSH1 0x40 MLOAD DUP1 SWAP2 SUB SWAP1 RETURN JUMPDEST PUSH2 0x2F8 PUSH1 0x4 DUP1 CALLDATASIZE SUB DUP2 ADD SWAP1 PUSH2 0x2F3 SWAP2 SWAP1 PUSH2 0x16D0 JUMP JUMPDEST PUSH2 0xC3C JUMP JUMPDEST PUSH1 0x40 MLOAD PUSH2 0x305 SWAP2 SWAP1 PUSH2 0x1D13 JUMP JUMPDEST PUSH1 0x40 MLOAD DUP1 SWAP2 SUB SWAP1 RETURN JUMPDEST PUSH2 0x316 PUSH2 0xE3E JUMP JUMPDEST PUSH1 0x40 MLOAD PUSH2 0x323 SWAP2 SWAP1 PUSH2 0x1D53 JUMP JUMPDEST PUSH1 0x40 MLOAD DUP1 SWAP2 SUB SWAP1 RETURN JUMPDEST PUSH2 0x346 PUSH1 0x4 DUP1 CALLDATASIZE SUB DUP2 ADD SWAP1 PUSH2 0x341 SWAP2 SWAP1 PUSH2 0x1D96 JUMP JUMPDEST PUSH2 0xE62 JUMP JUMPDEST STOP JUMPDEST PUSH2 0x350 PUSH2 0xEE6 JUMP JUMPDEST PUSH1 0x40 MLOAD PUSH2 0x35D SWAP2 SWAP1 PUSH2 0x1DE1 JUMP JUMPDEST PUSH1 0x40 MLOAD DUP1 SWAP2 SUB SWAP1 RETURN JUMPDEST PUSH2 0x380 PUSH1 0x4 DUP1 CALLDATASIZE SUB DUP2 ADD SWAP1 PUSH2 0x37B SWAP2 SWAP1 PUSH2 0x1DFA JUMP JUMPDEST PUSH2 0xF0A JUMP JUMPDEST PUSH1 0x40 MLOAD PUSH2 0x38D SWAP2 SWAP1 PUSH2 0x1E34 JUMP JUMPDEST PUSH1 0x40 MLOAD DUP1 SWAP2 SUB SWAP1 RETURN JUMPDEST PUSH1 0x60 DUP2 PUSH1 0x40 MLOAD PUSH1 0x20 ADD PUSH2 0x3A9 SWAP2 SWAP1 PUSH2 0x1E6D JUMP JUMPDEST PUSH1 0x40 MLOAD PUSH1 0x20 DUP2 DUP4 SUB SUB DUP2 MSTORE SWAP1 PUSH1 0x40 MSTORE SWAP1 POP SWAP2 SWAP1 POP JUMP JUMPDEST PUSH32 0x0 PUSH20 0xFFFFFFFFFFFFFFFFFFFFFFFFFFFFFFFFFFFFFFFF AND PUSH4 0x1042664E DUP6 DUP6 PUSH1 0x40 MLOAD DUP4 PUSH4 0xFFFFFFFF AND PUSH1 0xE0 SHL DUP2 MSTORE PUSH1 0x4 ADD PUSH2 0x41A SWAP3 SWAP2 SWAP1 PUSH2 0x1EB1 JUMP JUMPDEST PUSH0 PUSH1 0x40 MLOAD DUP1 DUP4 SUB DUP2 DUP7 DUP1 EXTCODESIZE ISZERO DUP1 ISZERO PUSH2 0x430 JUMPI PUSH0 PUSH0 REVERT JUMPDEST POP GAS STATICCALL ISZERO DUP1 ISZERO PUSH2 0x442 JUMPI RETURNDATASIZE PUSH0 PUSH0 RETURNDATACOPY RETURNDATASIZE PUSH0 REVERT JUMPDEST POP POP POP POP PUSH0 DUP4 PUSH1 0x4 PUSH1 0x7 DUP2 LT PUSH2 0x45B JUMPI PUSH2 0x45A PUSH2 0x1EDA JUMP JUMPDEST JUMPDEST PUSH1 0x20 MUL ADD CALLDATALOAD SWAP1 POP CHAINID DUP2 EQ PUSH2 0x4A4 JUMPI PUSH1 0x40 MLOAD PUSH32 0x8C379A000000000000000000000000000000000000000000000000000000000 DUP2 MSTORE PUSH1 0x4 ADD PUSH2 0x49B SWAP1 PUSH2 0x1F51 JUMP JUMPDEST PUSH1 0x40 MLOAD DUP1 SWAP2 SUB SWAP1 REVERT JUMPDEST PUSH0 PUSH2 0x4AE DUP6 PUSH2 0xF39 JUMP JUMPDEST SWAP1 POP PUSH2 0x4BD DUP2 PUSH0 SHL DUP6 DUP6 PUSH2 0x1022 JUMP JUMPDEST PUSH1 0x1 PUSH0 DUP3 DUP2 MSTORE PUSH1 0x20 ADD SWAP1 DUP2 MSTORE PUSH1 0x20 ADD PUSH0 KECCAK256 PUSH0 SWAP1 SLOAD SWAP1 PUSH2 0x100 EXP SWAP1 DIV PUSH1 0xFF AND ISZERO PUSH2 0x51B JUMPI PUSH1 0x40 MLOAD PUSH32 0x8C379A000000000000000000000000000000000000000000000000000000000 DUP2 MSTORE PUSH1 0x4 ADD PUSH2 0x512 SWAP1 PUSH2 0x1FB9 JUMP JUMPDEST PUSH1 0x40 MLOAD DUP1 SWAP2 SUB SWAP1 REVERT JUMPDEST PUSH1 0x1 DUP1 PUSH0 DUP4 DUP2 MSTORE PUSH1 0x20 ADD SWAP1 DUP2 MSTORE PUSH1 0x20 ADD PUSH0 KECCAK256 PUSH0 PUSH2 0x100 EXP DUP2 SLOAD DUP2 PUSH1 0xFF MUL NOT AND SWAP1 DUP4 ISZERO ISZERO MUL OR SWAP1 SSTORE POP PUSH0 PUSH2 0x565 DUP7 PUSH1 0x5 PUSH1 0x7 DUP2 LT PUSH2 0x55B JUMPI PUSH2 0x55A PUSH2 0x1EDA JUMP JUMPDEST JUMPDEST PUSH1 0x20 MUL ADD CALLDATALOAD PUSH2 0xAF1 JUMP JUMPDEST SWAP1 POP PUSH32 0x0 PUSH20 0xFFFFFFFFFFFFFFFFFFFFFFFFFFFFFFFFFFFFFFFF AND PUSH4 0x1722E147 DUP3 PUSH1 0x40 MLOAD DUP3 PUSH4 0xFFFFFFFF AND PUSH1 0xE0 SHL DUP2 MSTORE PUSH1 0x4 ADD PUSH2 0x5C0 SWAP2 SWAP1 PUSH2 0x19DA JUMP JUMPDEST PUSH0 PUSH1 0x40 MLOAD DUP1 DUP4 SUB DUP2 PUSH0 DUP8 DUP1 EXTCODESIZE ISZERO DUP1 ISZERO PUSH2 0x5D7 JUMPI PUSH0 PUSH0 REVERT JUMPDEST POP GAS CALL ISZERO DUP1 ISZERO PUSH2 0x5E9 JUMPI RETURNDATASIZE PUSH0 PUSH0 RETURNDATACOPY RETURNDATASIZE PUSH0 REVERT JUMPDEST POP POP POP POP POP POP POP POP POP POP POP JUMP JUMPDEST PUSH32 0x0 PUSH20 0xFFFFFFFFFFFFFFFFFFFFFFFFFFFFFFFFFFFFFFFF AND PUSH4 0x9CB28658 DUP6 DUP6 PUSH1 0x40 MLOAD DUP4 PUSH4 0xFFFFFFFF AND PUSH1 0xE0 SHL DUP2 MSTORE PUSH1 0x4 ADD PUSH2 0x651 SWAP3 SWAP2 SWAP1 PUSH2 0x1FE7 JUMP JUMPDEST PUSH0 PUSH1 0x40 MLOAD DUP1 DUP4 SUB DUP2 DUP7 DUP1 EXTCODESIZE ISZERO DUP1 ISZERO PUSH2 0x667 JUMPI PUSH0 PUSH0 REVERT JUMPDEST POP GAS STATICCALL ISZERO DUP1 ISZERO PUSH2 0x679 JUMPI RETURNDATASIZE PUSH0 PUSH0 RETURNDATACOPY RETURNDATASIZE PUSH0 REVERT JUMPDEST POP POP POP POP PUSH0 PUSH0 PUSH0 PUSH2 0x689 DUP7 PUSH2 0x129A JUMP JUMPDEST SWAP3 POP SWAP3 POP SWAP3 POP PUSH0 DUP7 PUSH1 0x2 PUSH1 0x6 DUP2 LT PUSH2 0x6A4 JUMPI PUSH2 0x6A3 PUSH2 0x1EDA JUMP JUMPDEST JUMPDEST PUSH1 0x20 MUL ADD CALLDATALOAD SWAP1 POP PUSH0 DUP8 PUSH1 0x3 PUSH1 0x6 DUP2 LT PUSH2 0x6C0 JUMPI PUSH2 0x6BF PUSH2 0x1EDA JUMP JUMPDEST JUMPDEST PUSH1 0x20 MUL ADD CALLDATALOAD SWAP1 POP PUSH0 PUSH2 0x6D1 DUP10 PUSH2 0x146E JUMP JUMPDEST SWAP1 POP PUSH2 0x6E0 DUP2 PUSH0 SHL DUP10 DUP10 PUSH2 0x1022 JUMP JUMPDEST PUSH1 0x1 PUSH0 DUP3 DUP2 MSTORE PUSH1 0x20 ADD SWAP1 DUP2 MSTORE PUSH1 0x20 ADD PUSH0 KECCAK256 PUSH0 SWAP1 SLOAD SWAP1 PUSH2 0x100 EXP SWAP1 DIV PUSH1 0xFF AND ISZERO PUSH2 0x73E JUMPI PUSH1 0x40 MLOAD PUSH32 0x8C379A000000000000000000000000000000000000000000000000000000000 DUP2 MSTORE PUSH1 0x4 ADD PUSH2 0x735 SWAP1 PUSH2 0x1FB9 JUMP JUMPDEST PUSH1 0x40 MLOAD DUP1 SWAP2 SUB SWAP1 REVERT JUMPDEST PUSH1 0x1 DUP1 PUSH0 DUP4 DUP2 MSTORE PUSH1 0x20 ADD SWAP1 DUP2 MSTORE PUSH1 0x20 ADD PUSH0 KECCAK256 PUSH0 PUSH2 0x100 EXP DUP2 SLOAD DUP2 PUSH1 0xFF MUL NOT AND SWAP1 DUP4 ISZERO ISZERO MUL OR SWAP1 SSTORE POP PUSH0 DUP4 PUSH1 0x80 DUP5 SWAP1 SHL OR SWAP1 POP DUP6 PUSH20 0xFFFFFFFFFFFFFFFFFFFFFFFFFFFFFFFFFFFFFFFF AND PUSH4 0x7A9ECEB4 DUP3 DUP8 DUP11 DUP7 PUSH1 0x40 MLOAD DUP6 PUSH4 0xFFFFFFFF AND PUSH1 0xE0 SHL DUP2 MSTORE PUSH1 0x4 ADD PUSH2 0x7AF SWAP5 SWAP4 SWAP3 SWAP2 SWAP1 PUSH2 0x201F JUMP JUMPDEST PUSH0 PUSH1 0x40 MLOAD DUP1 DUP4 SUB DUP2 PUSH0 DUP8 DUP1 EXTCODESIZE ISZERO DUP1 ISZERO PUSH2 0x7C6 JUMPI PUSH0 PUSH0 REVERT JUMPDEST POP GAS CALL ISZERO DUP1 ISZERO PUSH2 0x7D8 JUMPI RETURNDATASIZE PUSH0 PUSH0 RETURNDATACOPY RETURNDATASIZE PUSH0 REVERT JUMPDEST POP POP POP POP POP POP POP POP POP POP POP POP POP POP POP JUMP JUMPDEST PUSH0 PUSH0 DUP6 PUSH1 0x80 DUP7 SWAP1 SHL OR SWAP1 POP PUSH0 DUP5 PUSH1 0x80 DUP6 SWAP1 SHL OR SWAP1 POP DUP2 DUP2 PUSH1 0x40 MLOAD PUSH1 0x20 ADD PUSH2 0x811 SWAP3 SWAP2 SWAP1 PUSH2 0x2069 JUMP JUMPDEST PUSH1 0x40 MLOAD PUSH1 0x20 DUP2 DUP4 SUB SUB DUP2 MSTORE SWAP1 PUSH1 0x40 MSTORE DUP1 MLOAD SWAP1 PUSH1 0x20 ADD KECCAK256 PUSH0 SHR SWAP3 POP POP POP SWAP5 SWAP4 POP POP POP POP JUMP JUMPDEST PUSH32 0x0 DUP2 JUMP JUMPDEST PUSH2 0x861 PUSH2 0x153D JUMP JUMPDEST PUSH2 0x86A PUSH0 PUSH2 0x15C4 JUMP JUMPDEST JUMP JUMPDEST PUSH32 0x0 PUSH20 0xFFFFFFFFFFFFFFFFFFFFFFFFFFFFFFFFFFFFFFFF AND PUSH4 0x1042664E DUP6 DUP6 PUSH1 0x40 MLOAD DUP4 PUSH4 0xFFFFFFFF AND PUSH1 0xE0 SHL DUP2 MSTORE PUSH1 0x4 ADD PUSH2 0x8C7 SWAP3 SWAP2 SWAP1 PUSH2 0x1EB1 JUMP JUMPDEST PUSH0 PUSH1 0x40 MLOAD DUP1 DUP4 SUB DUP2 DUP7 DUP1 EXTCODESIZE ISZERO DUP1 ISZERO PUSH2 0x8DD JUMPI PUSH0 PUSH0 REVERT JUMPDEST POP GAS STATICCALL ISZERO DUP1 ISZERO PUSH2 0x8EF JUMPI RETURNDATASIZE PUSH0 PUSH0 RETURNDATACOPY RETURNDATASIZE PUSH0 REVERT JUMPDEST POP POP POP POP PUSH0 DUP4 PUSH1 0x5 PUSH1 0x7 DUP2 LT PUSH2 0x908 JUMPI PUSH2 0x907 PUSH2 0x1EDA JUMP JUMPDEST JUMPDEST PUSH1 0x20 MUL ADD CALLDATALOAD SWAP1 POP CHAINID DUP2 EQ PUSH2 0x951 JUMPI PUSH1 0x40 MLOAD PUSH32 0x8C379A000000000000000000000000000000000000000000000000000000000 DUP2 MSTORE PUSH1 0x4 ADD PUSH2 0x948 SWAP1 PUSH2 0x1F51 JUMP JUMPDEST PUSH1 0x40 MLOAD DUP1 SWAP2 SUB SWAP1 REVERT JUMPDEST PUSH0 PUSH2 0x973 DUP6 PUSH1 0x3 PUSH1 0x7 DUP2 LT PUSH2 0x969 JUMPI PUSH2 0x968 PUSH2 0x1EDA JUMP JUMPDEST JUMPDEST PUSH1 0x20 MUL ADD CALLDATALOAD PUSH2 0xC3C JUMP JUMPDEST SWAP1 POP PUSH0 PUSH2 0x997 DUP7 PUSH1 0x2 PUSH1 0x7 DUP2 LT PUSH2 0x98D JUMPI PUSH2 0x98C PUSH2 0x1EDA JUMP JUMPDEST JUMPDEST PUSH1 0x20 MUL ADD CALLDATALOAD PUSH2 0xC3C JUMP JUMPDEST SWAP1 POP PUSH0 PUSH2 0x9BB DUP8 PUSH1 0x4 PUSH1 0x7 DUP2 LT PUSH2 0x9B1 JUMPI PUSH2 0x9B0 PUSH2 0x1EDA JUMP JUMPDEST JUMPDEST PUSH1 0x20 MUL ADD CALLDATALOAD PUSH2 0x396 JUMP JUMPDEST SWAP1 POP PUSH0 PUSH2 0x9C7 DUP9 PUSH2 0xF39 JUMP JUMPDEST SWAP1 POP PUSH2 0x9D6 DUP2 PUSH0 SHL DUP9 DUP9 PUSH2 0x1022 JUMP JUMPDEST PUSH1 0x1 PUSH0 DUP3 DUP2 MSTORE PUSH1 0x20 ADD SWAP1 DUP2 MSTORE PUSH1 0x20 ADD PUSH0 KECCAK256 PUSH0 SWAP1 SLOAD SWAP1 PUSH2 0x100 EXP SWAP1 DIV PUSH1 0xFF AND ISZERO PUSH2 0xA34 JUMPI PUSH1 0x40 MLOAD PUSH32 0x8C379A000000000000000000000000000000000000000000000000000000000 DUP2 MSTORE PUSH1 0x4 ADD PUSH2 0xA2B SWAP1 PUSH2 0x1FB9 JUMP JUMPDEST PUSH1 0x40 MLOAD DUP1 SWAP2 SUB SWAP1 REVERT JUMPDEST PUSH1 0x1 DUP1 PUSH0 DUP4 DUP2 MSTORE PUSH1 0x20 ADD SWAP1 DUP2 MSTORE PUSH1 0x20 ADD PUSH0 KECCAK256 PUSH0 PUSH2 0x100 EXP DUP2 SLOAD DUP2 PUSH1 0xFF MUL NOT AND SWAP1 DUP4 ISZERO ISZERO MUL OR SWAP1 SSTORE POP PUSH32 0x0 PUSH20 0xFFFFFFFFFFFFFFFFFFFFFFFFFFFFFFFFFFFFFFFF AND PUSH4 0x2E057B9B DUP5 DUP7 DUP6 PUSH1 0x40 MLOAD DUP5 PUSH4 0xFFFFFFFF AND PUSH1 0xE0 SHL DUP2 MSTORE PUSH1 0x4 ADD PUSH2 0xAB9 SWAP4 SWAP3 SWAP2 SWAP1 PUSH2 0x2094 JUMP JUMPDEST PUSH0 PUSH1 0x40 MLOAD DUP1 DUP4 SUB DUP2 PUSH0 DUP8 DUP1 EXTCODESIZE ISZERO DUP1 ISZERO PUSH2 0xAD0 JUMPI PUSH0 PUSH0 REVERT JUMPDEST POP GAS CALL ISZERO DUP1 ISZERO PUSH2 0xAE2 JUMPI RETURNDATASIZE PUSH0 PUSH0 RETURNDATACOPY RETURNDATASIZE PUSH0 REVERT JUMPDEST POP POP POP POP POP POP POP POP POP POP POP POP POP JUMP JUMPDEST PUSH0 DUP2 SWAP1 POP SWAP2 SWAP1 POP JUMP JUMPDEST PUSH0 PUSH0 PUSH0 SWAP1 SLOAD SWAP1 PUSH2 0x100 EXP SWAP1 DIV PUSH20 0xFFFFFFFFFFFFFFFFFFFFFFFFFFFFFFFFFFFFFFFF AND SWAP1 POP SWAP1 JUMP JUMPDEST PUSH0 PUSH1 0x41 DUP3 MLOAD EQ PUSH2 0xB66 JUMPI PUSH1 0x40 MLOAD PUSH32 0x8C379A000000000000000000000000000000000000000000000000000000000 DUP2 MSTORE PUSH1 0x4 ADD PUSH2 0xB5D SWAP1 PUSH2 0x2128 JUMP JUMPDEST PUSH1 0x40 MLOAD DUP1 SWAP2 SUB SWAP1 REVERT JUMPDEST PUSH0 PUSH0 PUSH0 PUSH1 0x20 DUP6 ADD MLOAD SWAP3 POP PUSH1 0x40 DUP6 ADD MLOAD SWAP2 POP PUSH1 0x60 DUP6 ADD MLOAD PUSH0 BYTE SWAP1 POP PUSH1 0x1 DUP7 DUP3 DUP6 DUP6 PUSH1 0x40 MLOAD PUSH0 DUP2 MSTORE PUSH1 0x20 ADD PUSH1 0x40 MSTORE PUSH1 0x40 MLOAD PUSH2 0xBA2 SWAP5 SWAP4 SWAP3 SWAP2 SWAP1 PUSH2 0x2161 JUMP JUMPDEST PUSH1 0x20 PUSH1 0x40 MLOAD PUSH1 0x20 DUP2 SUB SWAP1 DUP1 DUP5 SUB SWAP1 DUP6 GAS STATICCALL ISZERO DUP1 ISZERO PUSH2 0xBC2 JUMPI RETURNDATASIZE PUSH0 PUSH0 RETURNDATACOPY RETURNDATASIZE PUSH0 REVERT JUMPDEST POP POP POP PUSH1 0x20 PUSH1 0x40 MLOAD SUB MLOAD SWAP4 POP POP POP POP SWAP3 SWAP2 POP POP JUMP JUMPDEST PUSH1 0x1 PUSH1 0x20 MSTORE DUP1 PUSH0 MSTORE PUSH1 0x40 PUSH0 KECCAK256 PUSH0 SWAP2 POP SLOAD SWAP1 PUSH2 0x100 EXP SWAP1 DIV PUSH1 0xFF AND DUP2 JUMP JUMPDEST PUSH32 0x0 DUP2 JUMP JUMPDEST PUSH32 0x0 DUP2 JUMP JUMPDEST PUSH1 0x60 PUSH0 DUP3 SUB PUSH2 0xC5B JUMPI PUSH1 0x40 MLOAD DUP1 PUSH1 0x20 ADD PUSH1 0x40 MSTORE DUP1 PUSH0 DUP2 MSTORE POP SWAP1 POP PUSH2 0xE39 JUMP JUMPDEST PUSH0 DUP3 PUSH0 SHL SWAP1 POP PUSH0 PUSH0 SWAP1 POP JUMPDEST PUSH1 0x20 DUP2 PUSH1 0xFF AND LT DUP1 ISZERO PUSH2 0xCB6 JUMPI POP PUSH0 PUSH1 0xF8 SHL DUP3 DUP3 PUSH1 0xFF AND PUSH1 0x20 DUP2 LT PUSH2 0xC8E JUMPI PUSH2 0xC8D PUSH2 0x1EDA JUMP JUMPDEST JUMPDEST BYTE PUSH1 0xF8 SHL PUSH31 0xFFFFFFFFFFFFFFFFFFFFFFFFFFFFFFFFFFFFFFFFFFFFFFFFFFFFFFFFFFFFFF NOT AND EQ JUMPDEST ISZERO PUSH2 0xCCE JUMPI DUP1 DUP1 PUSH2 0xCC6 SWAP1 PUSH2 0x21D1 JUMP JUMPDEST SWAP2 POP POP PUSH2 0xC66 JUMP JUMPDEST PUSH0 PUSH1 0x1F SWAP1 POP JUMPDEST DUP2 PUSH1 0xFF AND DUP2 PUSH1 0xFF AND GT DUP1 ISZERO PUSH2 0xD26 JUMPI POP PUSH0 PUSH1 0xF8 SHL DUP4 DUP3 PUSH1 0xFF AND PUSH1 0x20 DUP2 LT PUSH2 0xCFE JUMPI PUSH2 0xCFD PUSH2 0x1EDA JUMP JUMPDEST JUMPDEST BYTE PUSH1 0xF8 SHL PUSH31 0xFFFFFFFFFFFFFFFFFFFFFFFFFFFFFFFFFFFFFFFFFFFFFFFFFFFFFFFFFFFFFF NOT AND EQ JUMPDEST ISZERO PUSH2 0xD3E JUMPI DUP1 DUP1 PUSH2 0xD36 SWAP1 PUSH2 0x21F9 JUMP JUMPDEST SWAP2 POP POP PUSH2 0xCD4 JUMP JUMPDEST PUSH0 PUSH1 0x1 DUP4 DUP4 PUSH2 0xD4D SWAP2 SWAP1 PUSH2 0x2220 JUMP JUMPDEST PUSH2 0xD57 SWAP2 SWAP1 PUSH2 0x2254 JUMP JUMPDEST SWAP1 POP PUSH0 DUP2 PUSH1 0xFF AND PUSH8 0xFFFFFFFFFFFFFFFF DUP2 GT ISZERO PUSH2 0xD77 JUMPI PUSH2 0xD76 PUSH2 0x1A9E JUMP JUMPDEST JUMPDEST PUSH1 0x40 MLOAD SWAP1 DUP1 DUP3 MSTORE DUP1 PUSH1 0x1F ADD PUSH1 0x1F NOT AND PUSH1 0x20 ADD DUP3 ADD PUSH1 0x40 MSTORE DUP1 ISZERO PUSH2 0xDA9 JUMPI DUP2 PUSH1 0x20 ADD PUSH1 0x1 DUP3 MUL DUP1 CALLDATASIZE DUP4 CALLDATACOPY DUP1 DUP3 ADD SWAP2 POP POP SWAP1 POP JUMPDEST POP SWAP1 POP PUSH0 PUSH0 SWAP1 POP JUMPDEST DUP3 PUSH1 0xFF AND DUP2 LT ISZERO PUSH2 0xE2F JUMPI DUP6 DUP2 DUP7 PUSH1 0xFF AND PUSH2 0xDCC SWAP2 SWAP1 PUSH2 0x2288 JUMP JUMPDEST PUSH1 0x20 DUP2 LT PUSH2 0xDDD JUMPI PUSH2 0xDDC PUSH2 0x1EDA JUMP JUMPDEST JUMPDEST BYTE PUSH1 0xF8 SHL DUP3 DUP3 DUP2 MLOAD DUP2 LT PUSH2 0xDF4 JUMPI PUSH2 0xDF3 PUSH2 0x1EDA JUMP JUMPDEST JUMPDEST PUSH1 0x20 ADD ADD SWAP1 PUSH31 0xFFFFFFFFFFFFFFFFFFFFFFFFFFFFFFFFFFFFFFFFFFFFFFFFFFFFFFFFFFFFFF NOT AND SWAP1 DUP2 PUSH0 BYTE SWAP1 MSTORE8 POP DUP1 DUP1 PUSH1 0x1 ADD SWAP2 POP POP PUSH2 0xDB1 JUMP JUMPDEST POP DUP1 SWAP6 POP POP POP POP POP POP JUMPDEST SWAP2 SWAP1 POP JUMP JUMPDEST PUSH32 0x0 DUP2 JUMP JUMPDEST PUSH2 0xE6A PUSH2 0x153D JUMP JUMPDEST PUSH0 PUSH20 0xFFFFFFFFFFFFFFFFFFFFFFFFFFFFFFFFFFFFFFFF AND DUP2 PUSH20 0xFFFFFFFFFFFFFFFFFFFFFFFFFFFFFFFFFFFFFFFF AND SUB PUSH2 0xEDA JUMPI PUSH0 PUSH1 0x40 MLOAD PUSH32 0x1E4FBDF700000000000000000000000000000000000000000000000000000000 DUP2 MSTORE PUSH1 0x4 ADD PUSH2 0xED1 SWAP2 SWAP1 PUSH2 0x19DA JUMP JUMPDEST PUSH1 0x40 MLOAD DUP1 SWAP2 SUB SWAP1 REVERT JUMPDEST PUSH2 0xEE3 DUP2 PUSH2 0x15C4 JUMP JUMPDEST POP JUMP JUMPDEST PUSH32 0x0 DUP2 JUMP JUMPDEST PUSH0 DUP2 PUSH1 0x40 MLOAD PUSH1 0x20 ADD PUSH2 0xF1C SWAP2 SWAP1 PUSH2 0x232F JUMP JUMPDEST PUSH1 0x40 MLOAD PUSH1 0x20 DUP2 DUP4 SUB SUB DUP2 MSTORE SWAP1 PUSH1 0x40 MSTORE DUP1 MLOAD SWAP1 PUSH1 0x20 ADD KECCAK256 SWAP1 POP SWAP2 SWAP1 POP JUMP JUMPDEST PUSH0 PUSH0 DUP3 PUSH0 PUSH1 0x7 DUP2 LT PUSH2 0xF4E JUMPI PUSH2 0xF4D PUSH2 0x1EDA JUMP JUMPDEST JUMPDEST PUSH1 0x20 MUL ADD CALLDATALOAD DUP4 PUSH1 0x1 PUSH1 0x7 DUP2 LT PUSH2 0xF67 JUMPI PUSH2 0xF66 PUSH2 0x1EDA JUMP JUMPDEST JUMPDEST PUSH1 0x20 MUL ADD CALLDATALOAD DUP5 PUSH1 0x2 PUSH1 0x7 DUP2 LT PUSH2 0xF80 JUMPI PUSH2 0xF7F PUSH2 0x1EDA JUMP JUMPDEST JUMPDEST PUSH1 0x20 MUL ADD CALLDATALOAD DUP6 PUSH1 0x3 PUSH1 0x7 DUP2 LT PUSH2 0xF99 JUMPI PUSH2 0xF98 PUSH2 0x1EDA JUMP JUMPDEST JUMPDEST PUSH1 0x20 MUL ADD CALLDATALOAD DUP7 PUSH1 0x4 PUSH1 0x7 DUP2 LT PUSH2 0xFB2 JUMPI PUSH2 0xFB1 PUSH2 0x1EDA JUMP JUMPDEST JUMPDEST PUSH1 0x20 MUL ADD CALLDATALOAD DUP8 PUSH1 0x5 PUSH1 0x7 DUP2 LT PUSH2 0xFCB JUMPI PUSH2 0xFCA PUSH2 0x1EDA JUMP JUMPDEST JUMPDEST PUSH1 0x20 MUL ADD CALLDATALOAD DUP9 PUSH1 0x6 PUSH1 0x7 DUP2 LT PUSH2 0xFE4 JUMPI PUSH2 0xFE3 PUSH2 0x1EDA JUMP JUMPDEST JUMPDEST PUSH1 0x20 MUL ADD CALLDATALOAD PUSH1 0x40 MLOAD PUSH1 0x20 ADD PUSH2 0xFFF SWAP8 SWAP7 SWAP6 SWAP5 SWAP4 SWAP3 SWAP2 SWAP1 PUSH2 0x2354 JUMP JUMPDEST PUSH1 0x40 MLOAD PUSH1 0x20 DUP2 DUP4 SUB SUB DUP2 MSTORE SWAP1 PUSH1 0x40 MSTORE DUP1 MLOAD SWAP1 PUSH1 0x20 ADD KECCAK256 SWAP1 POP DUP1 PUSH0 SHR SWAP2 POP POP SWAP2 SWAP1 POP JUMP JUMPDEST PUSH0 PUSH2 0x102C DUP5 PUSH2 0xF0A JUMP JUMPDEST SWAP1 POP PUSH0 PUSH32 0x0 PUSH20 0xFFFFFFFFFFFFFFFFFFFFFFFFFFFFFFFFFFFFFFFF AND PUSH4 0x1442E4C9 PUSH1 0x40 MLOAD DUP2 PUSH4 0xFFFFFFFF AND PUSH1 0xE0 SHL DUP2 MSTORE PUSH1 0x4 ADD PUSH0 PUSH1 0x40 MLOAD DUP1 DUP4 SUB DUP2 DUP7 GAS STATICCALL ISZERO DUP1 ISZERO PUSH2 0x1097 JUMPI RETURNDATASIZE PUSH0 PUSH0 RETURNDATACOPY RETURNDATASIZE PUSH0 REVERT JUMPDEST POP POP POP POP PUSH1 0x40 MLOAD RETURNDATASIZE PUSH0 DUP3 RETURNDATACOPY RETURNDATASIZE PUSH1 0x1F NOT PUSH1 0x1F DUP3 ADD AND DUP3 ADD DUP1 PUSH1 0x40 MSTORE POP DUP2 ADD SWAP1 PUSH2 0x10BF SWAP2 SWAP1 PUSH2 0x24A8 JUMP JUMPDEST SWAP1 POP PUSH0 PUSH0 SWAP1 POP JUMPDEST DUP5 DUP5 SWAP1 POP DUP2 LT ISZERO PUSH2 0x1292 JUMPI CALLDATASIZE PUSH0 DUP7 DUP7 PUSH1 0x41 DUP6 PUSH2 0x10E2 SWAP2 SWAP1 PUSH2 0x24EF JUMP JUMPDEST SWAP1 PUSH1 0x41 PUSH1 0x1 DUP8 PUSH2 0x10F2 SWAP2 SWAP1 PUSH2 0x2288 JUMP JUMPDEST PUSH2 0x10FC SWAP2 SWAP1 PUSH2 0x24EF JUMP JUMPDEST SWAP3 PUSH2 0x1109 SWAP4 SWAP3 SWAP2 SWAP1 PUSH2 0x2538 JUMP JUMPDEST SWAP2 POP SWAP2 POP PUSH0 PUSH2 0x115B DUP7 DUP5 DUP5 DUP1 DUP1 PUSH1 0x1F ADD PUSH1 0x20 DUP1 SWAP2 DIV MUL PUSH1 0x20 ADD PUSH1 0x40 MLOAD SWAP1 DUP2 ADD PUSH1 0x40 MSTORE DUP1 SWAP4 SWAP3 SWAP2 SWAP1 DUP2 DUP2 MSTORE PUSH1 0x20 ADD DUP4 DUP4 DUP1 DUP3 DUP5 CALLDATACOPY PUSH0 DUP2 DUP5 ADD MSTORE PUSH1 0x1F NOT PUSH1 0x1F DUP3 ADD AND SWAP1 POP DUP1 DUP4 ADD SWAP3 POP POP POP POP POP POP POP PUSH2 0xB21 JUMP JUMPDEST SWAP1 POP PUSH0 PUSH20 0xFFFFFFFFFFFFFFFFFFFFFFFFFFFFFFFFFFFFFFFF AND DUP2 PUSH20 0xFFFFFFFFFFFFFFFFFFFFFFFFFFFFFFFFFFFFFFFF AND SUB PUSH2 0x11CB JUMPI PUSH1 0x40 MLOAD PUSH32 0x8C379A000000000000000000000000000000000000000000000000000000000 DUP2 MSTORE PUSH1 0x4 ADD PUSH2 0x11C2 SWAP1 PUSH2 0x25BC JUMP JUMPDEST PUSH1 0x40 MLOAD DUP1 SWAP2 SUB SWAP1 REVERT JUMPDEST PUSH0 PUSH0 SWAP1 POP PUSH0 PUSH0 SWAP1 POP JUMPDEST DUP7 MLOAD DUP2 LT ISZERO PUSH2 0x1240 JUMPI DUP3 PUSH20 0xFFFFFFFFFFFFFFFFFFFFFFFFFFFFFFFFFFFFFFFF AND DUP8 DUP3 DUP2 MLOAD DUP2 LT PUSH2 0x1207 JUMPI PUSH2 0x1206 PUSH2 0x1EDA JUMP JUMPDEST JUMPDEST PUSH1 0x20 MUL PUSH1 0x20 ADD ADD MLOAD PUSH20 0xFFFFFFFFFFFFFFFFFFFFFFFFFFFFFFFFFFFFFFFF AND SUB PUSH2 0x1233 JUMPI PUSH1 0x1 SWAP2 POP PUSH2 0x1240 JUMP JUMPDEST DUP1 DUP1 PUSH1 0x1 ADD SWAP2 POP POP PUSH2 0x11D4 JUMP JUMPDEST POP DUP1 PUSH2 0x1281 JUMPI PUSH1 0x40 MLOAD PUSH32 0x8C379A000000000000000000000000000000000000000000000000000000000 DUP2 MSTORE PUSH1 0x4 ADD PUSH2 0x1278 SWAP1 PUSH2 0x2624 JUMP JUMPDEST PUSH1 0x40 MLOAD DUP1 SWAP2 SUB SWAP1 REVERT JUMPDEST POP POP POP POP DUP1 DUP1 PUSH1 0x1 ADD SWAP2 POP POP PUSH2 0x10C6 JUMP JUMPDEST POP POP POP POP POP POP JUMP JUMPDEST PUSH0 PUSH0 PUSH1 0x60 PUSH0 DUP5 PUSH1 0x5 PUSH1 0x6 DUP2 LT PUSH2 0x12B3 JUMPI PUSH2 0x12B2 PUSH2 0x1EDA JUMP JUMPDEST JUMPDEST PUSH1 0x20 MUL ADD CALLDATALOAD SWAP1 POP DUP1 PUSH8 0xFFFFFFFFFFFFFFFF AND SWAP4 POP PUSH0 PUSH1 0x40 DUP3 SWAP1 SHR PUSH4 0xFFFFFFFF AND SWAP1 POP CHAINID DUP2 EQ PUSH2 0x1317 JUMPI PUSH1 0x40 MLOAD PUSH32 0x8C379A000000000000000000000000000000000000000000000000000000000 DUP2 MSTORE PUSH1 0x4 ADD PUSH2 0x130E SWAP1 PUSH2 0x1F51 JUMP JUMPDEST PUSH1 0x40 MLOAD DUP1 SWAP2 SUB SWAP1 REVERT JUMPDEST PUSH0 PUSH1 0x80 DUP4 SWAP1 SHR SWAP1 POP PUSH2 0x1328 DUP2 PUSH2 0xC3C JUMP JUMPDEST SWAP4 POP PUSH0 PUSH2 0x134C DUP9 PUSH1 0x4 PUSH1 0x6 DUP2 LT PUSH2 0x1342 JUMPI PUSH2 0x1341 PUSH2 0x1EDA JUMP JUMPDEST JUMPDEST PUSH1 0x20 MUL ADD CALLDATALOAD PUSH2 0xC3C JUMP JUMPDEST SWAP1 POP PUSH0 DUP2 PUSH1 0x40 MLOAD PUSH1 0x20 ADD PUSH2 0x1360 SWAP2 SWAP1 PUSH2 0x26BC JUMP JUMPDEST PUSH1 0x40 MLOAD PUSH1 0x20 DUP2 DUP4 SUB SUB DUP2 MSTORE SWAP1 PUSH1 0x40 MSTORE SWAP1 POP PUSH0 PUSH32 0x0 PUSH20 0xFFFFFFFFFFFFFFFFFFFFFFFFFFFFFFFFFFFFFFFF AND PUSH4 0x16F1ADC1 DUP4 PUSH1 0x40 MLOAD DUP3 PUSH4 0xFFFFFFFF AND PUSH1 0xE0 SHL DUP2 MSTORE PUSH1 0x4 ADD PUSH2 0x13CB SWAP2 SWAP1 PUSH2 0x2727 JUMP JUMPDEST PUSH0 PUSH1 0x40 MLOAD DUP1 DUP4 SUB DUP2 DUP7 GAS STATICCALL ISZERO DUP1 ISZERO PUSH2 0x13E5 JUMPI RETURNDATASIZE PUSH0 PUSH0 RETURNDATACOPY RETURNDATASIZE PUSH0 REVERT JUMPDEST POP POP POP POP PUSH1 0x40 MLOAD RETURNDATASIZE PUSH0 DUP3 RETURNDATACOPY RETURNDATASIZE PUSH1 0x1F NOT PUSH1 0x1F DUP3 ADD AND DUP3 ADD DUP1 PUSH1 0x40 MSTORE POP DUP2 ADD SWAP1 PUSH2 0x140D SWAP2 SWAP1 PUSH2 0x27C8 JUMP JUMPDEST SWAP1 POP PUSH0 DUP2 MLOAD GT PUSH2 0x1452 JUMPI PUSH1 0x40 MLOAD PUSH32 0x8C379A000000000000000000000000000000000000000000000000000000000 DUP2 MSTORE PUSH1 0x4 ADD PUSH2 0x1449 SWAP1 PUSH2 0x2859 JUMP JUMPDEST PUSH1 0x40 MLOAD DUP1 SWAP2 SUB SWAP1 REVERT JUMPDEST DUP1 PUSH2 0x145C SWAP1 PUSH2 0x28D1 JUMP JUMPDEST PUSH1 0x60 SHR SWAP8 POP POP POP POP POP POP POP SWAP2 SWAP4 SWAP1 SWAP3 POP JUMP JUMPDEST PUSH0 PUSH0 DUP3 PUSH0 PUSH1 0x6 DUP2 LT PUSH2 0x1483 JUMPI PUSH2 0x1482 PUSH2 0x1EDA JUMP JUMPDEST JUMPDEST PUSH1 0x20 MUL ADD CALLDATALOAD DUP4 PUSH1 0x1 PUSH1 0x6 DUP2 LT PUSH2 0x149C JUMPI PUSH2 0x149B PUSH2 0x1EDA JUMP JUMPDEST JUMPDEST PUSH1 0x20 MUL ADD CALLDATALOAD DUP5 PUSH1 0x2 PUSH1 0x6 DUP2 LT PUSH2 0x14B5 JUMPI PUSH2 0x14B4 PUSH2 0x1EDA JUMP JUMPDEST JUMPDEST PUSH1 0x20 MUL ADD CALLDATALOAD DUP6 PUSH1 0x3 PUSH1 0x6 DUP2 LT PUSH2 0x14CE JUMPI PUSH2 0x14CD PUSH2 0x1EDA JUMP JUMPDEST JUMPDEST PUSH1 0x20 MUL ADD CALLDATALOAD DUP7 PUSH1 0x4 PUSH1 0x6 DUP2 LT PUSH2 0x14E7 JUMPI PUSH2 0x14E6 PUSH2 0x1EDA JUMP JUMPDEST JUMPDEST PUSH1 0x20 MUL ADD CALLDATALOAD DUP8 PUSH1 0x5 PUSH1 0x6 DUP2 LT PUSH2 0x1500 JUMPI PUSH2 0x14FF PUSH2 0x1EDA JUMP JUMPDEST JUMPDEST PUSH1 0x20 MUL ADD CALLDATALOAD PUSH1 0x40 MLOAD PUSH1 0x20 ADD PUSH2 0x151A SWAP7 SWAP6 SWAP5 SWAP4 SWAP3 SWAP2 SWAP1 PUSH2 0x2937 JUMP JUMPDEST PUSH1 0x40 MLOAD PUSH1 0x20 DUP2 DUP4 SUB SUB DUP2 MSTORE SWAP1 PUSH1 0x40 MSTORE DUP1 MLOAD SWAP1 PUSH1 0x20 ADD KECCAK256 SWAP1 POP DUP1 PUSH0 SHR SWAP2 POP POP SWAP2 SWAP1 POP JUMP JUMPDEST PUSH2 0x1545 PUSH2 0x1685 JUMP JUMPDEST PUSH20 0xFFFFFFFFFFFFFFFFFFFFFFFFFFFFFFFFFFFFFFFF AND PUSH2 0x1563 PUSH2 0xAFA JUMP JUMPDEST PUSH20 0xFFFFFFFFFFFFFFFFFFFFFFFFFFFFFFFFFFFFFFFF AND EQ PUSH2 0x15C2 JUMPI PUSH2 0x1586 PUSH2 0x1685 JUMP JUMPDEST PUSH1 0x40 MLOAD PUSH32 0x118CDAA700000000000000000000000000000000000000000000000000000000 DUP2 MSTORE PUSH1 0x4 ADD PUSH2 0x15B9 SWAP2 SWAP1 PUSH2 0x19DA JUMP JUMPDEST PUSH1 0x40 MLOAD DUP1 SWAP2 SUB SWAP1 REVERT JUMPDEST JUMP JUMPDEST PUSH0 PUSH0 PUSH0 SWAP1 SLOAD SWAP1 PUSH2 0x100 EXP SWAP1 DIV PUSH20 0xFFFFFFFFFFFFFFFFFFFFFFFFFFFFFFFFFFFFFFFF AND SWAP1 POP DUP2 PUSH0 PUSH0 PUSH2 0x100 EXP DUP2 SLOAD DUP2 PUSH20 0xFFFFFFFFFFFFFFFFFFFFFFFFFFFFFFFFFFFFFFFF MUL NOT AND SWAP1 DUP4 PUSH20 0xFFFFFFFFFFFFFFFFFFFFFFFFFFFFFFFFFFFFFFFF AND MUL OR SWAP1 SSTORE POP DUP2 PUSH20 0xFFFFFFFFFFFFFFFFFFFFFFFFFFFFFFFFFFFFFFFF AND DUP2 PUSH20 0xFFFFFFFFFFFFFFFFFFFFFFFFFFFFFFFFFFFFFFFF AND PUSH32 0x8BE0079C531659141344CD1FD0A4F28419497F9722A3DAAFE3B4186F6B6457E0 PUSH1 0x40 MLOAD PUSH1 0x40 MLOAD DUP1 SWAP2 SUB SWAP1 LOG3 POP POP JUMP JUMPDEST PUSH0 CALLER SWAP1 POP SWAP1 JUMP JUMPDEST PUSH0 PUSH1 0x40 MLOAD SWAP1 POP SWAP1 JUMP JUMPDEST PUSH0 PUSH0 REVERT JUMPDEST PUSH0 PUSH0 REVERT JUMPDEST PUSH0 DUP2 SWAP1 POP SWAP2 SWAP1 POP JUMP JUMPDEST PUSH2 0x16AF DUP2 PUSH2 0x169D JUMP JUMPDEST DUP2 EQ PUSH2 0x16B9 JUMPI PUSH0 PUSH0 REVERT JUMPDEST POP JUMP JUMPDEST PUSH0 DUP2 CALLDATALOAD SWAP1 POP PUSH2 0x16CA DUP2 PUSH2 0x16A6 JUMP JUMPDEST SWAP3 SWAP2 POP POP JUMP JUMPDEST PUSH0 PUSH1 0x20 DUP3 DUP5 SUB SLT ISZERO PUSH2 0x16E5 JUMPI PUSH2 0x16E4 PUSH2 0x1695 JUMP JUMPDEST JUMPDEST PUSH0 PUSH2 0x16F2 DUP5 DUP3 DUP6 ADD PUSH2 0x16BC JUMP JUMPDEST SWAP2 POP POP SWAP3 SWAP2 POP POP JUMP JUMPDEST PUSH0 DUP2 MLOAD SWAP1 POP SWAP2 SWAP1 POP JUMP JUMPDEST PUSH0 DUP3 DUP3 MSTORE PUSH1 0x20 DUP3 ADD SWAP1 POP SWAP3 SWAP2 POP POP JUMP JUMPDEST DUP3 DUP2 DUP4 MCOPY PUSH0 DUP4 DUP4 ADD MSTORE POP POP POP JUMP JUMPDEST PUSH0 PUSH1 0x1F NOT PUSH1 0x1F DUP4 ADD AND SWAP1 POP SWAP2 SWAP1 POP JUMP JUMPDEST PUSH0 PUSH2 0x173D DUP3 PUSH2 0x16FB JUMP JUMPDEST PUSH2 0x1747 DUP2 DUP6 PUSH2 0x1705 JUMP JUMPDEST SWAP4 POP PUSH2 0x1757 DUP2 DUP6 PUSH1 0x20 DUP7 ADD PUSH2 0x1715 JUMP JUMPDEST PUSH2 0x1760 DUP2 PUSH2 0x1723 JUMP JUMPDEST DUP5 ADD SWAP2 POP POP SWAP3 SWAP2 POP POP JUMP JUMPDEST PUSH0 PUSH1 0x20 DUP3 ADD SWAP1 POP DUP2 DUP2 SUB PUSH0 DUP4 ADD MSTORE PUSH2 0x1783 DUP2 DUP5 PUSH2 0x1733 JUMP JUMPDEST SWAP1 POP SWAP3 SWAP2 POP POP JUMP JUMPDEST PUSH0 PUSH0 REVERT JUMPDEST PUSH0 DUP2 SWAP1 POP DUP3 PUSH1 0x20 PUSH1 0x8 MUL DUP3 ADD GT ISZERO PUSH2 0x17AA JUMPI PUSH2 0x17A9 PUSH2 0x178B JUMP JUMPDEST JUMPDEST SWAP3 SWAP2 POP POP JUMP JUMPDEST PUSH0 DUP2 SWAP1 POP DUP3 PUSH1 0x20 PUSH1 0x7 MUL DUP3 ADD GT ISZERO PUSH2 0x17CB JUMPI PUSH2 0x17CA PUSH2 0x178B JUMP JUMPDEST JUMPDEST SWAP3 SWAP2 POP POP JUMP JUMPDEST PUSH0 PUSH0 REVERT JUMPDEST PUSH0 PUSH0 REVERT JUMPDEST PUSH0 PUSH0 DUP4 PUSH1 0x1F DUP5 ADD SLT PUSH2 0x17EE JUMPI PUSH2 0x17ED PUSH2 0x17D1 JUMP JUMPDEST JUMPDEST DUP3 CALLDATALOAD SWAP1 POP PUSH8 0xFFFFFFFFFFFFFFFF DUP2 GT ISZERO PUSH2 0x180B JUMPI PUSH2 0x180A PUSH2 0x17D5 JUMP JUMPDEST JUMPDEST PUSH1 0x20 DUP4 ADD SWAP2 POP DUP4 PUSH1 0x1 DUP3 MUL DUP4 ADD GT ISZERO PUSH2 0x1827 JUMPI PUSH2 0x1826 PUSH2 0x178B JUMP JUMPDEST JUMPDEST SWAP3 POP SWAP3 SWAP1 POP JUMP JUMPDEST PUSH0 PUSH0 PUSH0 PUSH0 PUSH2 0x200 DUP6 DUP8 SUB SLT ISZERO PUSH2 0x1847 JUMPI PUSH2 0x1846 PUSH2 0x1695 JUMP JUMPDEST JUMPDEST PUSH0 PUSH2 0x1854 DUP8 DUP3 DUP9 ADD PUSH2 0x178F JUMP JUMPDEST SWAP5 POP POP PUSH2 0x100 PUSH2 0x1866 DUP8 DUP3 DUP9 ADD PUSH2 0x17B0 JUMP JUMPDEST SWAP4 POP POP PUSH2 0x1E0 DUP6 ADD CALLDATALOAD PUSH8 0xFFFFFFFFFFFFFFFF DUP2 GT ISZERO PUSH2 0x1888 JUMPI PUSH2 0x1887 PUSH2 0x1699 JUMP JUMPDEST JUMPDEST PUSH2 0x1894 DUP8 DUP3 DUP9 ADD PUSH2 0x17D9 JUMP JUMPDEST SWAP3 POP SWAP3 POP POP SWAP3 SWAP6 SWAP2 SWAP5 POP SWAP3 POP JUMP JUMPDEST PUSH0 DUP2 SWAP1 POP DUP3 PUSH1 0x20 PUSH1 0x6 MUL DUP3 ADD GT ISZERO PUSH2 0x18BD JUMPI PUSH2 0x18BC PUSH2 0x178B JUMP JUMPDEST JUMPDEST SWAP3 SWAP2 POP POP JUMP JUMPDEST PUSH0 PUSH0 PUSH0 PUSH0 PUSH2 0x1E0 DUP6 DUP8 SUB SLT ISZERO PUSH2 0x18DC JUMPI PUSH2 0x18DB PUSH2 0x1695 JUMP JUMPDEST JUMPDEST PUSH0 PUSH2 0x18E9 DUP8 DUP3 DUP9 ADD PUSH2 0x178F JUMP JUMPDEST SWAP5 POP POP PUSH2 0x100 PUSH2 0x18FB DUP8 DUP3 DUP9 ADD PUSH2 0x18A2 JUMP JUMPDEST SWAP4 POP POP PUSH2 0x1C0 DUP6 ADD CALLDATALOAD PUSH8 0xFFFFFFFFFFFFFFFF DUP2 GT ISZERO PUSH2 0x191D JUMPI PUSH2 0x191C PUSH2 0x1699 JUMP JUMPDEST JUMPDEST PUSH2 0x1929 DUP8 DUP3 DUP9 ADD PUSH2 0x17D9 JUMP JUMPDEST SWAP3 POP SWAP3 POP POP SWAP3 SWAP6 SWAP2 SWAP5 POP SWAP3 POP JUMP JUMPDEST PUSH0 PUSH0 PUSH0 PUSH0 PUSH1 0x80 DUP6 DUP8 SUB SLT ISZERO PUSH2 0x194F JUMPI PUSH2 0x194E PUSH2 0x1695 JUMP JUMPDEST JUMPDEST PUSH0 PUSH2 0x195C DUP8 DUP3 DUP9 ADD PUSH2 0x16BC JUMP JUMPDEST SWAP5 POP POP PUSH1 0x20 PUSH2 0x196D DUP8 DUP3 DUP9 ADD PUSH2 0x16BC JUMP JUMPDEST SWAP4 POP POP PUSH1 0x40 PUSH2 0x197E DUP8 DUP3 DUP9 ADD PUSH2 0x16BC JUMP JUMPDEST SWAP3 POP POP PUSH1 0x60 PUSH2 0x198F DUP8 DUP3 DUP9 ADD PUSH2 0x16BC JUMP JUMPDEST SWAP2 POP POP SWAP3 SWAP6 SWAP2 SWAP5 POP SWAP3 POP JUMP JUMPDEST PUSH0 PUSH20 0xFFFFFFFFFFFFFFFFFFFFFFFFFFFFFFFFFFFFFFFF DUP3 AND SWAP1 POP SWAP2 SWAP1 POP JUMP JUMPDEST PUSH0 PUSH2 0x19C4 DUP3 PUSH2 0x199B JUMP JUMPDEST SWAP1 POP SWAP2 SWAP1 POP JUMP JUMPDEST PUSH2 0x19D4 DUP2 PUSH2 0x19BA JUMP JUMPDEST DUP3 MSTORE POP POP JUMP JUMPDEST PUSH0 PUSH1 0x20 DUP3 ADD SWAP1 POP PUSH2 0x19ED PUSH0 DUP4 ADD DUP5 PUSH2 0x19CB JUMP JUMPDEST SWAP3 SWAP2 POP POP JUMP JUMPDEST PUSH0 DUP2 SWAP1 POP SWAP2 SWAP1 POP JUMP JUMPDEST PUSH0 PUSH2 0x1A16 PUSH2 0x1A11 PUSH2 0x1A0C DUP5 PUSH2 0x199B JUMP JUMPDEST PUSH2 0x19F3 JUMP JUMPDEST PUSH2 0x199B JUMP JUMPDEST SWAP1 POP SWAP2 SWAP1 POP JUMP JUMPDEST PUSH0 PUSH2 0x1A27 DUP3 PUSH2 0x19FC JUMP JUMPDEST SWAP1 POP SWAP2 SWAP1 POP JUMP JUMPDEST PUSH0 PUSH2 0x1A38 DUP3 PUSH2 0x1A1D JUMP JUMPDEST SWAP1 POP SWAP2 SWAP1 POP JUMP JUMPDEST PUSH2 0x1A48 DUP2 PUSH2 0x1A2E JUMP JUMPDEST DUP3 MSTORE POP POP JUMP JUMPDEST PUSH0 PUSH1 0x20 DUP3 ADD SWAP1 POP PUSH2 0x1A61 PUSH0 DUP4 ADD DUP5 PUSH2 0x1A3F JUMP JUMPDEST SWAP3 SWAP2 POP POP JUMP JUMPDEST PUSH0 DUP2 SWAP1 POP SWAP2 SWAP1 POP JUMP JUMPDEST PUSH2 0x1A79 DUP2 PUSH2 0x1A67 JUMP JUMPDEST DUP2 EQ PUSH2 0x1A83 JUMPI PUSH0 PUSH0 REVERT JUMPDEST POP JUMP JUMPDEST PUSH0 DUP2 CALLDATALOAD SWAP1 POP PUSH2 0x1A94 DUP2 PUSH2 0x1A70 JUMP JUMPDEST SWAP3 SWAP2 POP POP JUMP JUMPDEST PUSH0 PUSH0 REVERT JUMPDEST PUSH32 0x4E487B7100000000000000000000000000000000000000000000000000000000 PUSH0 MSTORE PUSH1 0x41 PUSH1 0x4 MSTORE PUSH1 0x24 PUSH0 REVERT JUMPDEST PUSH2 0x1AD4 DUP3 PUSH2 0x1723 JUMP JUMPDEST DUP2 ADD DUP2 DUP2 LT PUSH8 0xFFFFFFFFFFFFFFFF DUP3 GT OR ISZERO PUSH2 0x1AF3 JUMPI PUSH2 0x1AF2 PUSH2 0x1A9E JUMP JUMPDEST JUMPDEST DUP1 PUSH1 0x40 MSTORE POP POP POP JUMP JUMPDEST PUSH0 PUSH2 0x1B05 PUSH2 0x168C JUMP JUMPDEST SWAP1 POP PUSH2 0x1B11 DUP3 DUP3 PUSH2 0x1ACB JUMP JUMPDEST SWAP2 SWAP1 POP JUMP JUMPDEST PUSH0 PUSH8 0xFFFFFFFFFFFFFFFF DUP3 GT ISZERO PUSH2 0x1B30 JUMPI PUSH2 0x1B2F PUSH2 0x1A9E JUMP JUMPDEST JUMPDEST PUSH2 0x1B39 DUP3 PUSH2 0x1723 JUMP JUMPDEST SWAP1 POP PUSH1 0x20 DUP2 ADD SWAP1 POP SWAP2 SWAP1 POP JUMP JUMPDEST DUP3 DUP2 DUP4 CALLDATACOPY PUSH0 DUP4 DUP4 ADD MSTORE POP POP POP JUMP JUMPDEST PUSH0 PUSH2 0x1B66 PUSH2 0x1B61 DUP5 PUSH2 0x1B16 JUMP JUMPDEST PUSH2 0x1AFC JUMP JUMPDEST SWAP1 POP DUP3 DUP2 MSTORE PUSH1 0x20 DUP2 ADD DUP5 DUP5 DUP5 ADD GT ISZERO PUSH2 0x1B82 JUMPI PUSH2 0x1B81 PUSH2 0x1A9A JUMP JUMPDEST JUMPDEST PUSH2 0x1B8D DUP5 DUP3 DUP6 PUSH2 0x1B46 JUMP JUMPDEST POP SWAP4 SWAP3 POP POP POP JUMP JUMPDEST PUSH0 DUP3 PUSH1 0x1F DUP4 ADD SLT PUSH2 0x1BA9 JUMPI PUSH2 0x1BA8 PUSH2 0x17D1 JUMP JUMPDEST JUMPDEST DUP2 CALLDATALOAD PUSH2 0x1BB9 DUP5 DUP3 PUSH1 0x20 DUP7 ADD PUSH2 0x1B54 JUMP JUMPDEST SWAP2 POP POP SWAP3 SWAP2 POP POP JUMP JUMPDEST PUSH0 PUSH0 PUSH1 0x40 DUP4 DUP6 SUB SLT ISZERO PUSH2 0x1BD8 JUMPI PUSH2 0x1BD7 PUSH2 0x1695 JUMP JUMPDEST JUMPDEST PUSH0 PUSH2 0x1BE5 DUP6 DUP3 DUP7 ADD PUSH2 0x1A86 JUMP JUMPDEST SWAP3 POP POP PUSH1 0x20 DUP4 ADD CALLDATALOAD PUSH8 0xFFFFFFFFFFFFFFFF DUP2 GT ISZERO PUSH2 0x1C06 JUMPI PUSH2 0x1C05 PUSH2 0x1699 JUMP JUMPDEST JUMPDEST PUSH2 0x1C12 DUP6 DUP3 DUP7 ADD PUSH2 0x1B95 JUMP JUMPDEST SWAP2 POP POP SWAP3 POP SWAP3 SWAP1 POP JUMP JUMPDEST PUSH0 DUP2 ISZERO ISZERO SWAP1 POP SWAP2 SWAP1 POP JUMP JUMPDEST PUSH2 0x1C30 DUP2 PUSH2 0x1C1C JUMP JUMPDEST DUP3 MSTORE POP POP JUMP JUMPDEST PUSH0 PUSH1 0x20 DUP3 ADD SWAP1 POP PUSH2 0x1C49 PUSH0 DUP4 ADD DUP5 PUSH2 0x1C27 JUMP JUMPDEST SWAP3 SWAP2 POP POP JUMP JUMPDEST PUSH0 PUSH2 0x1C59 DUP3 PUSH2 0x1A1D JUMP JUMPDEST SWAP1 POP SWAP2 SWAP1 POP JUMP JUMPDEST PUSH2 0x1C69 DUP2 PUSH2 0x1C4F JUMP JUMPDEST DUP3 MSTORE POP POP JUMP JUMPDEST PUSH0 PUSH1 0x20 DUP3 ADD SWAP1 POP PUSH2 0x1C82 PUSH0 DUP4 ADD DUP5 PUSH2 0x1C60 JUMP JUMPDEST SWAP3 SWAP2 POP POP JUMP JUMPDEST PUSH0 PUSH2 0x1C92 DUP3 PUSH2 0x1A1D JUMP JUMPDEST SWAP1 POP SWAP2 SWAP1 POP JUMP JUMPDEST PUSH2 0x1CA2 DUP2 PUSH2 0x1C88 JUMP JUMPDEST DUP3 MSTORE POP POP JUMP JUMPDEST PUSH0 PUSH1 0x20 DUP3 ADD SWAP1 POP PUSH2 0x1CBB PUSH0 DUP4 ADD DUP5 PUSH2 0x1C99 JUMP JUMPDEST SWAP3 SWAP2 POP POP JUMP JUMPDEST PUSH0 DUP2 MLOAD SWAP1 POP SWAP2 SWAP1 POP JUMP JUMPDEST PUSH0 DUP3 DUP3 MSTORE PUSH1 0x20 DUP3 ADD SWAP1 POP SWAP3 SWAP2 POP POP JUMP JUMPDEST PUSH0 PUSH2 0x1CE5 DUP3 PUSH2 0x1CC1 JUMP JUMPDEST PUSH2 0x1CEF DUP2 DUP6 PUSH2 0x1CCB JUMP JUMPDEST SWAP4 POP PUSH2 0x1CFF DUP2 DUP6 PUSH1 0x20 DUP7 ADD PUSH2 0x1715 JUMP JUMPDEST PUSH2 0x1D08 DUP2 PUSH2 0x1723 JUMP JUMPDEST DUP5 ADD SWAP2 POP POP SWAP3 SWAP2 POP POP JUMP JUMPDEST PUSH0 PUSH1 0x20 DUP3 ADD SWAP1 POP DUP2 DUP2 SUB PUSH0 DUP4 ADD MSTORE PUSH2 0x1D2B DUP2 DUP5 PUSH2 0x1CDB JUMP JUMPDEST SWAP1 POP SWAP3 SWAP2 POP POP JUMP JUMPDEST PUSH0 PUSH2 0x1D3D DUP3 PUSH2 0x1A1D JUMP JUMPDEST SWAP1 POP SWAP2 SWAP1 POP JUMP JUMPDEST PUSH2 0x1D4D DUP2 PUSH2 0x1D33 JUMP JUMPDEST DUP3 MSTORE POP POP JUMP JUMPDEST PUSH0 PUSH1 0x20 DUP3 ADD SWAP1 POP PUSH2 0x1D66 PUSH0 DUP4 ADD DUP5 PUSH2 0x1D44 JUMP JUMPDEST SWAP3 SWAP2 POP POP JUMP JUMPDEST PUSH2 0x1D75 DUP2 PUSH2 0x19BA JUMP JUMPDEST DUP2 EQ PUSH2 0x1D7F JUMPI PUSH0 PUSH0 REVERT JUMPDEST POP JUMP JUMPDEST PUSH0 DUP2 CALLDATALOAD SWAP1 POP PUSH2 0x1D90 DUP2 PUSH2 0x1D6C JUMP JUMPDEST SWAP3 SWAP2 POP POP JUMP JUMPDEST PUSH0 PUSH1 0x20 DUP3 DUP5 SUB SLT ISZERO PUSH2 0x1DAB JUMPI PUSH2 0x1DAA PUSH2 0x1695 JUMP JUMPDEST JUMPDEST PUSH0 PUSH2 0x1DB8 DUP5 DUP3 DUP6 ADD PUSH2 0x1D82 JUMP JUMPDEST SWAP2 POP POP SWAP3 SWAP2 POP POP JUMP JUMPDEST PUSH0 PUSH2 0x1DCB DUP3 PUSH2 0x1A1D JUMP JUMPDEST SWAP1 POP SWAP2 SWAP1 POP JUMP JUMPDEST PUSH2 0x1DDB DUP2 PUSH2 0x1DC1 JUMP JUMPDEST DUP3 MSTORE POP POP JUMP JUMPDEST PUSH0 PUSH1 0x20 DUP3 ADD SWAP1 POP PUSH2 0x1DF4 PUSH0 DUP4 ADD DUP5 PUSH2 0x1DD2 JUMP JUMPDEST SWAP3 SWAP2 POP POP JUMP JUMPDEST PUSH0 PUSH1 0x20 DUP3 DUP5 SUB SLT ISZERO PUSH2 0x1E0F JUMPI PUSH2 0x1E0E PUSH2 0x1695 JUMP JUMPDEST JUMPDEST PUSH0 PUSH2 0x1E1C DUP5 DUP3 DUP6 ADD PUSH2 0x1A86 JUMP JUMPDEST SWAP2 POP POP SWAP3 SWAP2 POP POP JUMP JUMPDEST PUSH2 0x1E2E DUP2 PUSH2 0x1A67 JUMP JUMPDEST DUP3 MSTORE POP POP JUMP JUMPDEST PUSH0 PUSH1 0x20 DUP3 ADD SWAP1 POP PUSH2 0x1E47 PUSH0 DUP4 ADD DUP5 PUSH2 0x1E25 JUMP JUMPDEST SWAP3 SWAP2 POP POP JUMP JUMPDEST PUSH0 DUP2 SWAP1 POP SWAP2 SWAP1 POP JUMP JUMPDEST PUSH2 0x1E67 PUSH2 0x1E62 DUP3 PUSH2 0x169D JUMP JUMPDEST PUSH2 0x1E4D JUMP JUMPDEST DUP3 MSTORE POP POP JUMP JUMPDEST PUSH0 PUSH2 0x1E78 DUP3 DUP5 PUSH2 0x1E56 JUMP JUMPDEST PUSH1 0x20 DUP3 ADD SWAP2 POP DUP2 SWAP1 POP SWAP3 SWAP2 POP POP JUMP JUMPDEST DUP3 DUP2 DUP4 CALLDATACOPY POP POP POP JUMP JUMPDEST PUSH2 0x1E9D PUSH2 0x100 DUP4 DUP4 PUSH2 0x1E87 JUMP JUMPDEST POP POP JUMP JUMPDEST PUSH2 0x1EAD PUSH1 0xE0 DUP4 DUP4 PUSH2 0x1E87 JUMP JUMPDEST POP POP JUMP JUMPDEST PUSH0 PUSH2 0x1E0 DUP3 ADD SWAP1 POP PUSH2 0x1EC5 PUSH0 DUP4 ADD DUP6 PUSH2 0x1E90 JUMP JUMPDEST PUSH2 0x1ED3 PUSH2 0x100 DUP4 ADD DUP5 PUSH2 0x1EA1 JUMP JUMPDEST SWAP4 SWAP3 POP POP POP JUMP JUMPDEST PUSH32 0x4E487B7100000000000000000000000000000000000000000000000000000000 PUSH0 MSTORE PUSH1 0x32 PUSH1 0x4 MSTORE PUSH1 0x24 PUSH0 REVERT JUMPDEST PUSH32 0x57726F6E672064657374696E6174696F6E20636861696E000000000000000000 PUSH0 DUP3 ADD MSTORE POP JUMP JUMPDEST PUSH0 PUSH2 0x1F3B PUSH1 0x17 DUP4 PUSH2 0x1CCB JUMP JUMPDEST SWAP2 POP PUSH2 0x1F46 DUP3 PUSH2 0x1F07 JUMP JUMPDEST PUSH1 0x20 DUP3 ADD SWAP1 POP SWAP2 SWAP1 POP JUMP JUMPDEST PUSH0 PUSH1 0x20 DUP3 ADD SWAP1 POP DUP2 DUP2 SUB PUSH0 DUP4 ADD MSTORE PUSH2 0x1F68 DUP2 PUSH2 0x1F2F JUMP JUMPDEST SWAP1 POP SWAP2 SWAP1 POP JUMP JUMPDEST PUSH32 0x5265706C61792061747461636B20646574656374656400000000000000000000 PUSH0 DUP3 ADD MSTORE POP JUMP JUMPDEST PUSH0 PUSH2 0x1FA3 PUSH1 0x16 DUP4 PUSH2 0x1CCB JUMP JUMPDEST SWAP2 POP PUSH2 0x1FAE DUP3 PUSH2 0x1F6F JUMP JUMPDEST PUSH1 0x20 DUP3 ADD SWAP1 POP SWAP2 SWAP1 POP JUMP JUMPDEST PUSH0 PUSH1 0x20 DUP3 ADD SWAP1 POP DUP2 DUP2 SUB PUSH0 DUP4 ADD MSTORE PUSH2 0x1FD0 DUP2 PUSH2 0x1F97 JUMP JUMPDEST SWAP1 POP SWAP2 SWAP1 POP JUMP JUMPDEST PUSH2 0x1FE3 PUSH1 0xC0 DUP4 DUP4 PUSH2 0x1E87 JUMP JUMPDEST POP POP JUMP JUMPDEST PUSH0 PUSH2 0x1C0 DUP3 ADD SWAP1 POP PUSH2 0x1FFB PUSH0 DUP4 ADD DUP6 PUSH2 0x1E90 JUMP JUMPDEST PUSH2 0x2009 PUSH2 0x100 DUP4 ADD DUP5 PUSH2 0x1FD7 JUMP JUMPDEST SWAP4 SWAP3 POP POP POP JUMP JUMPDEST PUSH2 0x2019 DUP2 PUSH2 0x169D JUMP JUMPDEST DUP3 MSTORE POP POP JUMP JUMPDEST PUSH0 PUSH1 0x80 DUP3 ADD SWAP1 POP PUSH2 0x2032 PUSH0 DUP4 ADD DUP8 PUSH2 0x19CB JUMP JUMPDEST DUP2 DUP2 SUB PUSH1 0x20 DUP4 ADD MSTORE PUSH2 0x2044 DUP2 DUP7 PUSH2 0x1CDB JUMP JUMPDEST SWAP1 POP PUSH2 0x2053 PUSH1 0x40 DUP4 ADD DUP6 PUSH2 0x2010 JUMP JUMPDEST PUSH2 0x2060 PUSH1 0x60 DUP4 ADD DUP5 PUSH2 0x2010 JUMP JUMPDEST SWAP6 SWAP5 POP POP POP POP POP JUMP JUMPDEST PUSH0 PUSH2 0x2074 DUP3 DUP6 PUSH2 0x1E56 JUMP JUMPDEST PUSH1 0x20 DUP3 ADD SWAP2 POP PUSH2 0x2084 DUP3 DUP5 PUSH2 0x1E56 JUMP JUMPDEST PUSH1 0x20 DUP3 ADD SWAP2 POP DUP2 SWAP1 POP SWAP4 SWAP3 POP POP POP JUMP JUMPDEST PUSH0 PUSH1 0x60 DUP3 ADD SWAP1 POP DUP2 DUP2 SUB PUSH0 DUP4 ADD MSTORE PUSH2 0x20AC DUP2 DUP7 PUSH2 0x1CDB JUMP JUMPDEST SWAP1 POP DUP2 DUP2 SUB PUSH1 0x20 DUP4 ADD MSTORE PUSH2 0x20C0 DUP2 DUP6 PUSH2 0x1CDB JUMP JUMPDEST SWAP1 POP DUP2 DUP2 SUB PUSH1 0x40 DUP4 ADD MSTORE PUSH2 0x20D4 DUP2 DUP5 PUSH2 0x1733 JUMP JUMPDEST SWAP1 POP SWAP5 SWAP4 POP POP POP POP JUMP JUMPDEST PUSH32 0x496E76616C6964207369676E6174757265206C656E6774680000000000000000 PUSH0 DUP3 ADD MSTORE POP JUMP JUMPDEST PUSH0 PUSH2 0x2112 PUSH1 0x18 DUP4 PUSH2 0x1CCB JUMP JUMPDEST SWAP2 POP PUSH2 0x211D DUP3 PUSH2 0x20DE JUMP JUMPDEST PUSH1 0x20 DUP3 ADD SWAP1 POP SWAP2 SWAP1 POP JUMP JUMPDEST PUSH0 PUSH1 0x20 DUP3 ADD SWAP1 POP DUP2 DUP2 SUB PUSH0 DUP4 ADD MSTORE PUSH2 0x213F DUP2 PUSH2 0x2106 JUMP JUMPDEST SWAP1 POP SWAP2 SWAP1 POP JUMP JUMPDEST PUSH0 PUSH1 0xFF DUP3 AND SWAP1 POP SWAP2 SWAP1 POP JUMP JUMPDEST PUSH2 0x215B DUP2 PUSH2 0x2146 JUMP JUMPDEST DUP3 MSTORE POP POP JUMP JUMPDEST PUSH0 PUSH1 0x80 DUP3 ADD SWAP1 POP PUSH2 0x2174 PUSH0 DUP4 ADD DUP8 PUSH2 0x1E25 JUMP JUMPDEST PUSH2 0x2181 PUSH1 0x20 DUP4 ADD DUP7 PUSH2 0x2152 JUMP JUMPDEST PUSH2 0x218E PUSH1 0x40 DUP4 ADD DUP6 PUSH2 0x1E25 JUMP JUMPDEST PUSH2 0x219B PUSH1 0x60 DUP4 ADD DUP5 PUSH2 0x1E25 JUMP JUMPDEST SWAP6 SWAP5 POP POP POP POP POP JUMP JUMPDEST PUSH32 0x4E487B7100000000000000000000000000000000000000000000000000000000 PUSH0 MSTORE PUSH1 0x11 PUSH1 0x4 MSTORE PUSH1 0x24 PUSH0 REVERT JUMPDEST PUSH0 PUSH2 0x21DB DUP3 PUSH2 0x2146 JUMP JUMPDEST SWAP2 POP PUSH1 0xFF DUP3 SUB PUSH2 0x21EE JUMPI PUSH2 0x21ED PUSH2 0x21A4 JUMP JUMPDEST JUMPDEST PUSH1 0x1 DUP3 ADD SWAP1 POP SWAP2 SWAP1 POP JUMP JUMPDEST PUSH0 PUSH2 0x2203 DUP3 PUSH2 0x2146 JUMP JUMPDEST SWAP2 POP PUSH0 DUP3 SUB PUSH2 0x2215 JUMPI PUSH2 0x2214 PUSH2 0x21A4 JUMP JUMPDEST JUMPDEST PUSH1 0x1 DUP3 SUB SWAP1 POP SWAP2 SWAP1 POP JUMP JUMPDEST PUSH0 PUSH2 0x222A DUP3 PUSH2 0x2146 JUMP JUMPDEST SWAP2 POP PUSH2 0x2235 DUP4 PUSH2 0x2146 JUMP JUMPDEST SWAP3 POP DUP3 DUP3 SUB SWAP1 POP PUSH1 0xFF DUP2 GT ISZERO PUSH2 0x224E JUMPI PUSH2 0x224D PUSH2 0x21A4 JUMP JUMPDEST JUMPDEST SWAP3 SWAP2 POP POP JUMP JUMPDEST PUSH0 PUSH2 0x225E DUP3 PUSH2 0x2146 JUMP JUMPDEST SWAP2 POP PUSH2 0x2269 DUP4 PUSH2 0x2146 JUMP JUMPDEST SWAP3 POP DUP3 DUP3 ADD SWAP1 POP PUSH1 0xFF DUP2 GT ISZERO PUSH2 0x2282 JUMPI PUSH2 0x2281 PUSH2 0x21A4 JUMP JUMPDEST JUMPDEST SWAP3 SWAP2 POP POP JUMP JUMPDEST PUSH0 PUSH2 0x2292 DUP3 PUSH2 0x169D JUMP JUMPDEST SWAP2 POP PUSH2 0x229D DUP4 PUSH2 0x169D JUMP JUMPDEST SWAP3 POP DUP3 DUP3 ADD SWAP1 POP DUP1 DUP3 GT ISZERO PUSH2 0x22B5 JUMPI PUSH2 0x22B4 PUSH2 0x21A4 JUMP JUMPDEST JUMPDEST SWAP3 SWAP2 POP POP JUMP JUMPDEST PUSH0 DUP2 SWAP1 POP SWAP3 SWAP2 POP POP JUMP JUMPDEST PUSH32 0x19457468657265756D205369676E6564204D6573736167653A0A333200000000 PUSH0 DUP3 ADD MSTORE POP JUMP JUMPDEST PUSH0 PUSH2 0x22F9 PUSH1 0x1C DUP4 PUSH2 0x22BB JUMP JUMPDEST SWAP2 POP PUSH2 0x2304 DUP3 PUSH2 0x22C5 JUMP JUMPDEST PUSH1 0x1C DUP3 ADD SWAP1 POP SWAP2 SWAP1 POP JUMP JUMPDEST PUSH0 DUP2 SWAP1 POP SWAP2 SWAP1 POP JUMP JUMPDEST PUSH2 0x2329 PUSH2 0x2324 DUP3 PUSH2 0x1A67 JUMP JUMPDEST PUSH2 0x230F JUMP JUMPDEST DUP3 MSTORE POP POP JUMP JUMPDEST PUSH0 PUSH2 0x2339 DUP3 PUSH2 0x22ED JUMP JUMPDEST SWAP2 POP PUSH2 0x2345 DUP3 DUP5 PUSH2 0x2318 JUMP JUMPDEST PUSH1 0x20 DUP3 ADD SWAP2 POP DUP2 SWAP1 POP SWAP3 SWAP2 POP POP JUMP JUMPDEST PUSH0 PUSH2 0x235F DUP3 DUP11 PUSH2 0x1E56 JUMP JUMPDEST PUSH1 0x20 DUP3 ADD SWAP2 POP PUSH2 0x236F DUP3 DUP10 PUSH2 0x1E56 JUMP JUMPDEST PUSH1 0x20 DUP3 ADD SWAP2 POP PUSH2 0x237F DUP3 DUP9 PUSH2 0x1E56 JUMP JUMPDEST PUSH1 0x20 DUP3 ADD SWAP2 POP PUSH2 0x238F DUP3 DUP8 PUSH2 0x1E56 JUMP JUMPDEST PUSH1 0x20 DUP3 ADD SWAP2 POP PUSH2 0x239F DUP3 DUP7 PUSH2 0x1E56 JUMP JUMPDEST PUSH1 0x20 DUP3 ADD SWAP2 POP PUSH2 0x23AF DUP3 DUP6 PUSH2 0x1E56 JUMP JUMPDEST PUSH1 0x20 DUP3 ADD SWAP2 POP PUSH2 0x23BF DUP3 DUP5 PUSH2 0x1E56 JUMP JUMPDEST PUSH1 0x20 DUP3 ADD SWAP2 POP DUP2 SWAP1 POP SWAP9 SWAP8 POP POP POP POP POP POP POP POP JUMP JUMPDEST PUSH0 PUSH8 0xFFFFFFFFFFFFFFFF DUP3 GT ISZERO PUSH2 0x23EE JUMPI PUSH2 0x23ED PUSH2 0x1A9E JUMP JUMPDEST JUMPDEST PUSH1 0x20 DUP3 MUL SWAP1 POP PUSH1 0x20 DUP2 ADD SWAP1 POP SWAP2 SWAP1 POP JUMP JUMPDEST PUSH0 DUP2 MLOAD SWAP1 POP PUSH2 0x240D DUP2 PUSH2 0x1D6C JUMP JUMPDEST SWAP3 SWAP2 POP POP JUMP JUMPDEST PUSH0 PUSH2 0x2425 PUSH2 0x2420 DUP5 PUSH2 0x23D4 JUMP JUMPDEST PUSH2 0x1AFC JUMP JUMPDEST SWAP1 POP DUP1 DUP4 DUP3 MSTORE PUSH1 0x20 DUP3 ADD SWAP1 POP PUSH1 0x20 DUP5 MUL DUP4 ADD DUP6 DUP2 GT ISZERO PUSH2 0x2448 JUMPI PUSH2 0x2447 PUSH2 0x178B JUMP JUMPDEST JUMPDEST DUP4 JUMPDEST DUP2 DUP2 LT ISZERO PUSH2 0x2471 JUMPI DUP1 PUSH2 0x245D DUP9 DUP3 PUSH2 0x23FF JUMP JUMPDEST DUP5 MSTORE PUSH1 0x20 DUP5 ADD SWAP4 POP POP PUSH1 0x20 DUP2 ADD SWAP1 POP PUSH2 0x244A JUMP JUMPDEST POP POP POP SWAP4 SWAP3 POP POP POP JUMP JUMPDEST PUSH0 DUP3 PUSH1 0x1F DUP4 ADD SLT PUSH2 0x248F JUMPI PUSH2 0x248E PUSH2 0x17D1 JUMP JUMPDEST JUMPDEST DUP2 MLOAD PUSH2 0x249F DUP5 DUP3 PUSH1 0x20 DUP7 ADD PUSH2 0x2413 JUMP JUMPDEST SWAP2 POP POP SWAP3 SWAP2 POP POP JUMP JUMPDEST PUSH0 PUSH1 0x20 DUP3 DUP5 SUB SLT ISZERO PUSH2 0x24BD JUMPI PUSH2 0x24BC PUSH2 0x1695 JUMP JUMPDEST JUMPDEST PUSH0 DUP3 ADD MLOAD PUSH8 0xFFFFFFFFFFFFFFFF DUP2 GT ISZERO PUSH2 0x24DA JUMPI PUSH2 0x24D9 PUSH2 0x1699 JUMP JUMPDEST JUMPDEST PUSH2 0x24E6 DUP5 DUP3 DUP6 ADD PUSH2 0x247B JUMP JUMPDEST SWAP2 POP POP SWAP3 SWAP2 POP POP JUMP JUMPDEST PUSH0 PUSH2 0x24F9 DUP3 PUSH2 0x169D JUMP JUMPDEST SWAP2 POP PUSH2 0x2504 DUP4 PUSH2 0x169D JUMP JUMPDEST SWAP3 POP DUP3 DUP3 MUL PUSH2 0x2512 DUP2 PUSH2 0x169D JUMP JUMPDEST SWAP2 POP DUP3 DUP3 DIV DUP5 EQ DUP4 ISZERO OR PUSH2 0x2529 JUMPI PUSH2 0x2528 PUSH2 0x21A4 JUMP JUMPDEST JUMPDEST POP SWAP3 SWAP2 POP POP JUMP JUMPDEST PUSH0 PUSH0 REVERT JUMPDEST PUSH0 PUSH0 REVERT JUMPDEST PUSH0 PUSH0 DUP6 DUP6 GT ISZERO PUSH2 0x254B JUMPI PUSH2 0x254A PUSH2 0x2530 JUMP JUMPDEST JUMPDEST DUP4 DUP7 GT ISZERO PUSH2 0x255C JUMPI PUSH2 0x255B PUSH2 0x2534 JUMP JUMPDEST JUMPDEST PUSH1 0x1 DUP6 MUL DUP4 ADD SWAP2 POP DUP5 DUP7 SUB SWAP1 POP SWAP5 POP SWAP5 SWAP3 POP POP POP JUMP JUMPDEST PUSH32 0x496E76616C6964207369676E6174757265000000000000000000000000000000 PUSH0 DUP3 ADD MSTORE POP JUMP JUMPDEST PUSH0 PUSH2 0x25A6 PUSH1 0x11 DUP4 PUSH2 0x1CCB JUMP JUMPDEST SWAP2 POP PUSH2 0x25B1 DUP3 PUSH2 0x2572 JUMP JUMPDEST PUSH1 0x20 DUP3 ADD SWAP1 POP SWAP2 SWAP1 POP JUMP JUMPDEST PUSH0 PUSH1 0x20 DUP3 ADD SWAP1 POP DUP2 DUP2 SUB PUSH0 DUP4 ADD MSTORE PUSH2 0x25D3 DUP2 PUSH2 0x259A JUMP JUMPDEST SWAP1 POP SWAP2 SWAP1 POP JUMP JUMPDEST PUSH32 0x5369676E6572206E6F7420616E206163746976652076616C696461746F720000 PUSH0 DUP3 ADD MSTORE POP JUMP JUMPDEST PUSH0 PUSH2 0x260E PUSH1 0x1E DUP4 PUSH2 0x1CCB JUMP JUMPDEST SWAP2 POP PUSH2 0x2619 DUP3 PUSH2 0x25DA JUMP JUMPDEST PUSH1 0x20 DUP3 ADD SWAP1 POP SWAP2 SWAP1 POP JUMP JUMPDEST PUSH0 PUSH1 0x20 DUP3 ADD SWAP1 POP DUP2 DUP2 SUB PUSH0 DUP4 ADD MSTORE PUSH2 0x263B DUP2 PUSH2 0x2602 JUMP JUMPDEST SWAP1 POP SWAP2 SWAP1 POP JUMP JUMPDEST PUSH0 PUSH2 0x264C DUP3 PUSH2 0x1CC1 JUMP JUMPDEST PUSH2 0x2656 DUP2 DUP6 PUSH2 0x22BB JUMP JUMPDEST SWAP4 POP PUSH2 0x2666 DUP2 DUP6 PUSH1 0x20 DUP7 ADD PUSH2 0x1715 JUMP JUMPDEST DUP1 DUP5 ADD SWAP2 POP POP SWAP3 SWAP2 POP POP JUMP JUMPDEST PUSH32 0x5F7661756C740000000000000000000000000000000000000000000000000000 PUSH0 DUP3 ADD MSTORE POP JUMP JUMPDEST PUSH0 PUSH2 0x26A6 PUSH1 0x6 DUP4 PUSH2 0x22BB JUMP JUMPDEST SWAP2 POP PUSH2 0x26B1 DUP3 PUSH2 0x2672 JUMP JUMPDEST PUSH1 0x6 DUP3 ADD SWAP1 POP SWAP2 SWAP1 POP JUMP JUMPDEST PUSH0 PUSH2 0x26C7 DUP3 DUP5 PUSH2 0x2642 JUMP JUMPDEST SWAP2 POP PUSH2 0x26D2 DUP3 PUSH2 0x269A JUMP JUMPDEST SWAP2 POP DUP2 SWAP1 POP SWAP3 SWAP2 POP POP JUMP JUMPDEST PUSH32 0x5169617261426173654173736574730000000000000000000000000000000000 PUSH0 DUP3 ADD MSTORE POP JUMP JUMPDEST PUSH0 PUSH2 0x2711 PUSH1 0xF DUP4 PUSH2 0x1CCB JUMP JUMPDEST SWAP2 POP PUSH2 0x271C DUP3 PUSH2 0x26DD JUMP JUMPDEST PUSH1 0x20 DUP3 ADD SWAP1 POP SWAP2 SWAP1 POP JUMP JUMPDEST PUSH0 PUSH1 0x40 DUP3 ADD SWAP1 POP DUP2 DUP2 SUB PUSH0 DUP4 ADD MSTORE PUSH2 0x273E DUP2 PUSH2 0x2705 JUMP JUMPDEST SWAP1 POP DUP2 DUP2 SUB PUSH1 0x20 DUP4 ADD MSTORE PUSH2 0x2752 DUP2 DUP5 PUSH2 0x1CDB JUMP JUMPDEST SWAP1 POP SWAP3 SWAP2 POP POP JUMP JUMPDEST PUSH0 PUSH2 0x276C PUSH2 0x2767 DUP5 PUSH2 0x1B16 JUMP JUMPDEST PUSH2 0x1AFC JUMP JUMPDEST SWAP1 POP DUP3 DUP2 MSTORE PUSH1 0x20 DUP2 ADD DUP5 DUP5 DUP5 ADD GT ISZERO PUSH2 0x2788 JUMPI PUSH2 0x2787 PUSH2 0x1A9A JUMP JUMPDEST JUMPDEST PUSH2 0x2793 DUP5 DUP3 DUP6 PUSH2 0x1715 JUMP JUMPDEST POP SWAP4 SWAP3 POP POP POP JUMP JUMPDEST PUSH0 DUP3 PUSH1 0x1F DUP4 ADD SLT PUSH2 0x27AF JUMPI PUSH2 0x27AE PUSH2 0x17D1 JUMP JUMPDEST JUMPDEST DUP2 MLOAD PUSH2 0x27BF DUP5 DUP3 PUSH1 0x20 DUP7 ADD PUSH2 0x275A JUMP JUMPDEST SWAP2 POP POP SWAP3 SWAP2 POP POP JUMP JUMPDEST PUSH0 PUSH1 0x20 DUP3 DUP5 SUB SLT ISZERO PUSH2 0x27DD JUMPI PUSH2 0x27DC PUSH2 0x1695 JUMP JUMPDEST JUMPDEST PUSH0 DUP3 ADD MLOAD PUSH8 0xFFFFFFFFFFFFFFFF DUP2 GT ISZERO PUSH2 0x27FA JUMPI PUSH2 0x27F9 PUSH2 0x1699 JUMP JUMPDEST JUMPDEST PUSH2 0x2806 DUP5 DUP3 DUP6 ADD PUSH2 0x279B JUMP JUMPDEST SWAP2 POP POP SWAP3 SWAP2 POP POP JUMP JUMPDEST PUSH32 0x5661756C74206E6F7420617574686F72697A6564000000000000000000000000 PUSH0 DUP3 ADD MSTORE POP JUMP JUMPDEST PUSH0 PUSH2 0x2843 PUSH1 0x14 DUP4 PUSH2 0x1CCB JUMP JUMPDEST SWAP2 POP PUSH2 0x284E DUP3 PUSH2 0x280F JUMP JUMPDEST PUSH1 0x20 DUP3 ADD SWAP1 POP SWAP2 SWAP1 POP JUMP JUMPDEST PUSH0 PUSH1 0x20 DUP3 ADD SWAP1 POP DUP2 DUP2 SUB PUSH0 DUP4 ADD MSTORE PUSH2 0x2870 DUP2 PUSH2 0x2837 JUMP JUMPDEST SWAP1 POP SWAP2 SWAP1 POP JUMP JUMPDEST PUSH0 DUP2 SWAP1 POP PUSH1 0x20 DUP3 ADD SWAP1 POP SWAP2 SWAP1 POP JUMP JUMPDEST PUSH0 PUSH32 0xFFFFFFFFFFFFFFFFFFFFFFFFFFFFFFFFFFFFFFFF000000000000000000000000 DUP3 AND SWAP1 POP SWAP2 SWAP1 POP JUMP JUMPDEST PUSH0 PUSH2 0x28BC DUP3 MLOAD PUSH2 0x2886 JUMP JUMPDEST DUP1 SWAP2 POP POP SWAP2 SWAP1 POP JUMP JUMPDEST PUSH0 DUP3 DUP3 SHL SWAP1 POP SWAP3 SWAP2 POP POP JUMP JUMPDEST PUSH0 PUSH2 0x28DB DUP3 PUSH2 0x16FB JUMP JUMPDEST DUP3 PUSH2 0x28E5 DUP5 PUSH2 0x2877 JUMP JUMPDEST SWAP1 POP PUSH2 0x28F0 DUP2 PUSH2 0x28B1 JUMP JUMPDEST SWAP3 POP PUSH1 0x14 DUP3 LT ISZERO PUSH2 0x2930 JUMPI PUSH2 0x292B PUSH32 0xFFFFFFFFFFFFFFFFFFFFFFFFFFFFFFFFFFFFFFFF000000000000000000000000 DUP4 PUSH1 0x14 SUB PUSH1 0x8 MUL PUSH2 0x28C5 JUMP JUMPDEST DUP4 AND SWAP3 POP JUMPDEST POP POP SWAP2 SWAP1 POP JUMP JUMPDEST PUSH0 PUSH2 0x2942 DUP3 DUP10 PUSH2 0x1E56 JUMP JUMPDEST PUSH1 0x20 DUP3 ADD SWAP2 POP PUSH2 0x2952 DUP3 DUP9 PUSH2 0x1E56 JUMP JUMPDEST PUSH1 0x20 DUP3 ADD SWAP2 POP PUSH2 0x2962 DUP3 DUP8 PUSH2 0x1E56 JUMP JUMPDEST PUSH1 0x20 DUP3 ADD SWAP2 POP PUSH2 0x2972 DUP3 DUP7 PUSH2 0x1E56 JUMP JUMPDEST PUSH1 0x20 DUP3 ADD SWAP2 POP PUSH2 0x2982 DUP3 DUP6 PUSH2 0x1E56 JUMP JUMPDEST PUSH1 0x20 DUP3 ADD SWAP2 POP PUSH2 0x2992 DUP3 DUP5 PUSH2 0x1E56 JUMP JUMPDEST PUSH1 0x20 DUP3 ADD SWAP2 POP DUP2 SWAP1 POP SWAP8 SWAP7 POP POP POP POP POP POP POP JUMP INVALID LOG2 PUSH5 0x6970667358 0x22 SLT KECCAK256 0xB4 PUSH8 0xFC34C2C89711455B STATICCALL SWAP12 PUSH32 0x4E8F6B777DC51897DDF71006F836A8EC46BE4664736F6C634300081F00330000 "
				},
				"gasEstimates": {
					"creation": {
						"codeDepositCost": "2143200",
						"executionCost": "infinite",
						"totalCost": "infinite"
					},
					"external": {
						"balance_verifier()": "infinite",
						"deriveAddressFromSplitPubKey(uint256,uint256,uint256,uint256)": "infinite",
						"fieldToAddress(uint256)": "730",
						"fieldToBytes(uint256)": "infinite",
						"fieldToString(uint256)": "infinite",
						"getEthSignedMessageHash(bytes32)": "infinite",
						"owner()": "2625",
						"processZkValidator(uint256[8],uint256[7],bytes)": "infinite",
						"processZkVariable(uint256[8],uint256[7],bytes)": "infinite",
						"processZkWithdraw(uint256[8],uint256[6],bytes)": "infinite",
						"recoverSigner(bytes32,bytes)": "infinite",
						"renounceOwnership()": "infinite",
						"transferOwnership(address)": "infinite",
						"usedNullifiers(uint256)": "2830",
						"validator_verifier()": "infinite",
						"validatorsRegistry()": "infinite",
						"variable_verifier()": "infinite",
						"variablesRegistry()": "infinite"
					},
					"internal": {
						"_calculateNullifier7(uint256[7] calldata)": "infinite",
						"_calculateNullifier8(uint256[6] calldata)": "infinite",
						"_prepareWithdrawal(uint256[6] calldata)": "infinite",
						"_verifyAllSignatures(bytes32,bytes calldata)": "infinite"
					}
				},
				"methodIdentifiers": {
					"balance_verifier()": "f90c0f40",
					"deriveAddressFromSplitPubKey(uint256,uint256,uint256,uint256)": "41e532ca",
					"fieldToAddress(uint256)": "7a988c54",
					"fieldToBytes(uint256)": "19b8c941",
					"fieldToString(uint256)": "b648f220",
					"getEthSignedMessageHash(bytes32)": "fa540801",
					"owner()": "8da5cb5b",
					"processZkValidator(uint256[8],uint256[7],bytes)": "34e1d6a6",
					"processZkVariable(uint256[8],uint256[7],bytes)": "76fbe04f",
					"processZkWithdraw(uint256[8],uint256[6],bytes)": "392c8731",
					"recoverSigner(bytes32,bytes)": "97aba7f9",
					"renounceOwnership()": "715018a6",
					"transferOwnership(address)": "f2fde38b",
					"usedNullifiers(uint256)": "aad24061",
					"validator_verifier()": "b3d63003",
					"validatorsRegistry()": "aed881d8",
					"variable_verifier()": "4eb30d41",
					"variablesRegistry()": "bf4d766e"
				}
			},
			"storageLayout": {
				"storage": [
					{
						"astId": 8,
						"contract": "Evm/core/base/vaultDelegator.sol:QiaraZKDelegator",
						"label": "_owner",
						"offset": 0,
						"slot": "0",
						"type": "t_address"
					},
					{
						"astId": 280,
						"contract": "Evm/core/base/vaultDelegator.sol:QiaraZKDelegator",
						"label": "usedNullifiers",
						"offset": 0,
						"slot": "1",
						"type": "t_mapping(t_uint256,t_bool)"
					}
				],
				"types": {
					"t_address": {
						"encoding": "inplace",
						"label": "address",
						"numberOfBytes": "20"
					},
					"t_bool": {
						"encoding": "inplace",
						"label": "bool",
						"numberOfBytes": "1"
					},
					"t_mapping(t_uint256,t_bool)": {
						"encoding": "mapping",
						"key": "t_uint256",
						"label": "mapping(uint256 => bool)",
						"numberOfBytes": "32",
						"value": "t_bool"
					},
					"t_uint256": {
						"encoding": "inplace",
						"label": "uint256",
						"numberOfBytes": "32"
					}
				}
			},
			"userdoc": {
				"kind": "user",
				"methods": {},
				"version": 1
			}
		}
	}
}