{
	"Evm/core/base/vaultDelegator.sol": {
		"QiaraZKDelegator": {
			"abi": [
				{
					"inputs": [
						{
							"internalType": "address",
							"name": "_balance_verifier",
							"type": "address"
						},
						{
							"internalType": "address",
							"name": "_variable_verifier",
							"type": "address"
						},
						{
							"internalType": "address",
							"name": "_validator_verifier",
							"type": "address"
						},
						{
							"internalType": "address",
							"name": "_variablesRegistry",
							"type": "address"
						},
						{
							"internalType": "address",
							"name": "_validatorsRegistry",
							"type": "address"
						}
					],
					"stateMutability": "nonpayable",
					"type": "constructor"
				},
				{
					"inputs": [
						{
							"internalType": "address",
							"name": "owner",
							"type": "address"
						}
					],
					"name": "OwnableInvalidOwner",
					"type": "error"
				},
				{
					"inputs": [
						{
							"internalType": "address",
							"name": "account",
							"type": "address"
						}
					],
					"name": "OwnableUnauthorizedAccount",
					"type": "error"
				},
				{
					"anonymous": false,
					"inputs": [
						{
							"indexed": true,
							"internalType": "address",
							"name": "previousOwner",
							"type": "address"
						},
						{
							"indexed": true,
							"internalType": "address",
							"name": "newOwner",
							"type": "address"
						}
					],
					"name": "OwnershipTransferred",
					"type": "event"
				},
				{
					"inputs": [],
					"name": "balance_verifier",
					"outputs": [
						{
							"internalType": "contract IBalanceVerifier",
							"name": "",
							"type": "address"
						}
					],
					"stateMutability": "view",
					"type": "function"
				},
				{
					"inputs": [
						{
							"internalType": "uint256",
							"name": "xLow",
							"type": "uint256"
						},
						{
							"internalType": "uint256",
							"name": "xHigh",
							"type": "uint256"
						},
						{
							"internalType": "uint256",
							"name": "yLow",
							"type": "uint256"
						},
						{
							"internalType": "uint256",
							"name": "yHigh",
							"type": "uint256"
						}
					],
					"name": "deriveAddressFromSplitPubKey",
					"outputs": [
						{
							"internalType": "address",
							"name": "",
							"type": "address"
						}
					],
					"stateMutability": "pure",
					"type": "function"
				},
				{
					"inputs": [
						{
							"internalType": "uint256",
							"name": "_field",
							"type": "uint256"
						}
					],
					"name": "fieldToAddress",
					"outputs": [
						{
							"internalType": "address",
							"name": "",
							"type": "address"
						}
					],
					"stateMutability": "pure",
					"type": "function"
				},
				{
					"inputs": [
						{
							"internalType": "uint256",
							"name": "_field",
							"type": "uint256"
						}
					],
					"name": "fieldToBytes",
					"outputs": [
						{
							"internalType": "bytes",
							"name": "",
							"type": "bytes"
						}
					],
					"stateMutability": "pure",
					"type": "function"
				},
				{
					"inputs": [
						{
							"internalType": "uint256",
							"name": "_field",
							"type": "uint256"
						}
					],
					"name": "fieldToString",
					"outputs": [
						{
							"internalType": "string",
							"name": "",
							"type": "string"
						}
					],
					"stateMutability": "pure",
					"type": "function"
				},
				{
					"inputs": [
						{
							"internalType": "bytes32",
							"name": "_messageHash",
							"type": "bytes32"
						}
					],
					"name": "getEthSignedMessageHash",
					"outputs": [
						{
							"internalType": "bytes32",
							"name": "",
							"type": "bytes32"
						}
					],
					"stateMutability": "pure",
					"type": "function"
				},
				{
					"inputs": [],
					"name": "owner",
					"outputs": [
						{
							"internalType": "address",
							"name": "",
							"type": "address"
						}
					],
					"stateMutability": "view",
					"type": "function"
				},
				{
					"inputs": [
						{
							"internalType": "uint256[8]",
							"name": "proof",
							"type": "uint256[8]"
						},
						{
							"internalType": "uint256[7]",
							"name": "input",
							"type": "uint256[7]"
						},
						{
							"internalType": "bytes",
							"name": "_signatures",
							"type": "bytes"
						}
					],
					"name": "processZkValidator",
					"outputs": [],
					"stateMutability": "nonpayable",
					"type": "function"
				},
				{
					"inputs": [
						{
							"internalType": "uint256[8]",
							"name": "proof",
							"type": "uint256[8]"
						},
						{
							"internalType": "uint256[7]",
							"name": "input",
							"type": "uint256[7]"
						},
						{
							"internalType": "bytes",
							"name": "_signatures",
							"type": "bytes"
						}
					],
					"name": "processZkVariable",
					"outputs": [],
					"stateMutability": "nonpayable",
					"type": "function"
				},
				{
					"inputs": [
						{
							"internalType": "uint256[8]",
							"name": "proof",
							"type": "uint256[8]"
						},
						{
							"internalType": "uint256[6]",
							"name": "input",
							"type": "uint256[6]"
						},
						{
							"internalType": "bytes",
							"name": "_signatures",
							"type": "bytes"
						}
					],
					"name": "processZkWithdraw",
					"outputs": [],
					"stateMutability": "nonpayable",
					"type": "function"
				},
				{
					"inputs": [
						{
							"internalType": "bytes32",
							"name": "_ethSignedMessageHash",
							"type": "bytes32"
						},
						{
							"internalType": "bytes",
							"name": "_signature",
							"type": "bytes"
						}
					],
					"name": "recoverSigner",
					"outputs": [
						{
							"internalType": "address",
							"name": "",
							"type": "address"
						}
					],
					"stateMutability": "pure",
					"type": "function"
				},
				{
					"inputs": [],
					"name": "renounceOwnership",
					"outputs": [],
					"stateMutability": "nonpayable",
					"type": "function"
				},
				{
					"inputs": [
						{
							"internalType": "address",
							"name": "newOwner",
							"type": "address"
						}
					],
					"name": "transferOwnership",
					"outputs": [],
					"stateMutability": "nonpayable",
					"type": "function"
				},
				{
					"inputs": [
						{
							"internalType": "uint256",
							"name": "",
							"type": "uint256"
						}
					],
					"name": "usedNullifiers",
					"outputs": [
						{
							"internalType": "bool",
							"name": "",
							"type": "bool"
						}
					],
					"stateMutability": "view",
					"type": "function"
				},
				{
					"inputs": [],
					"name": "validator_verifier",
					"outputs": [
						{
							"internalType": "contract IValidatorVerifier",
							"name": "",
							"type": "address"
						}
					],
					"stateMutability": "view",
					"type": "function"
				},
				{
					"inputs": [],
					"name": "validatorsRegistry",
					"outputs": [
						{
							"internalType": "contract IValidators",
							"name": "",
							"type": "address"
						}
					],
					"stateMutability": "view",
					"type": "function"
				},
				{
					"inputs": [],
					"name": "variable_verifier",
					"outputs": [
						{
							"internalType": "contract IVariableVerifier",
							"name": "",
							"type": "address"
						}
					],
					"stateMutability": "view",
					"type": "function"
				},
				{
					"inputs": [],
					"name": "variablesRegistry",
					"outputs": [
						{
							"internalType": "contract IVariables",
							"name": "",
							"type": "address"
						}
					],
					"stateMutability": "view",
					"type": "function"
				}
			],
			"devdoc": {
				"errors": {
					"OwnableInvalidOwner(address)": [
						{
							"details": "The owner is not a valid owner account. (eg. `address(0)`)"
						}
					],
					"OwnableUnauthorizedAccount(address)": [
						{
							"details": "The caller account is not authorized to perform an operation."
						}
					]
				},
				"kind": "dev",
				"methods": {
					"owner()": {
						"details": "Returns the address of the current owner."
					},
					"renounceOwnership()": {
						"details": "Leaves the contract without owner. It will not be possible to call `onlyOwner` functions. Can only be called by the current owner. NOTE: Renouncing ownership will leave the contract without an owner, thereby disabling any functionality that is only available to the owner."
					},
					"transferOwnership(address)": {
						"details": "Transfers ownership of the contract to a new account (`newOwner`). Can only be called by the current owner."
					}
				},
				"version": 1
			},
			"evm": {
				"assembly": "    /* \"Evm/core/base/vaultDelegator.sol\":1065:13970  contract QiaraZKDelegator is Ownable {... */\n  mstore(0x40, 0x0120)\n    /* \"Evm/core/base/vaultDelegator.sol\":1495:2003  constructor(address _balance_verifier,address _variable_verifier,address _validator_verifier, address _variablesRegistry, address _validatorsRegistry) Ownable(msg.sender) {... */\n  callvalue\n  dup1\n  iszero\n  tag_1\n  jumpi\n  revert(0x00, 0x00)\ntag_1:\n  pop\n  mload(0x40)\n  sub(codesize, bytecodeSize)\n  dup1\n  bytecodeSize\n  dup4\n  codecopy\n  dup2\n  dup2\n  add\n  0x40\n  mstore\n  dup2\n  add\n  swap1\n  tag_2\n  swap2\n  swap1\n  tag_3\n  jump\t// in\ntag_2:\n    /* \"Evm/core/base/vaultDelegator.sol\":1654:1664  msg.sender */\n  caller\n    /* \"@openzeppelin/contracts/access/Ownable.sol\":1297:1298  0 */\n  0x00\n    /* \"@openzeppelin/contracts/access/Ownable.sol\":1273:1299  initialOwner == address(0) */\n  0xffffffffffffffffffffffffffffffffffffffff\n  and\n    /* \"@openzeppelin/contracts/access/Ownable.sol\":1273:1285  initialOwner */\n  dup2\n    /* \"@openzeppelin/contracts/access/Ownable.sol\":1273:1299  initialOwner == address(0) */\n  0xffffffffffffffffffffffffffffffffffffffff\n  and\n  sub\n    /* \"@openzeppelin/contracts/access/Ownable.sol\":1269:1364  if (initialOwner == address(0)) {... */\n  tag_7\n  jumpi\n    /* \"@openzeppelin/contracts/access/Ownable.sol\":1350:1351  0 */\n  0x00\n    /* \"@openzeppelin/contracts/access/Ownable.sol\":1322:1353  OwnableInvalidOwner(address(0)) */\n  mload(0x40)\n  0x1e4fbdf700000000000000000000000000000000000000000000000000000000\n  dup2\n  mstore\n  0x04\n  add\n  tag_8\n  swap2\n  swap1\n  tag_9\n  jump\t// in\ntag_8:\n  mload(0x40)\n  dup1\n  swap2\n  sub\n  swap1\n  revert\n    /* \"@openzeppelin/contracts/access/Ownable.sol\":1269:1364  if (initialOwner == address(0)) {... */\ntag_7:\n    /* \"@openzeppelin/contracts/access/Ownable.sol\":1373:1405  _transferOwnership(initialOwner) */\n  tag_10\n    /* \"@openzeppelin/contracts/access/Ownable.sol\":1392:1404  initialOwner */\n  dup2\n    /* \"@openzeppelin/contracts/access/Ownable.sol\":1373:1391  _transferOwnership */\n  shl(0x20, tag_11)\n    /* \"@openzeppelin/contracts/access/Ownable.sol\":1373:1405  _transferOwnership(initialOwner) */\n  0x20\n  shr\n  jump\t// in\ntag_10:\n    /* \"@openzeppelin/contracts/access/Ownable.sol\":1225:1412  constructor(address initialOwner) {... */\n  pop\n    /* \"Evm/core/base/vaultDelegator.sol\":1713:1730  _balance_verifier */\n  dup5\n    /* \"Evm/core/base/vaultDelegator.sol\":1677:1731  balance_verifier = IBalanceVerifier(_balance_verifier) */\n  0xffffffffffffffffffffffffffffffffffffffff\n  and\n  0x80\n  dup2\n  0xffffffffffffffffffffffffffffffffffffffff\n  and\n  dup2\n  mstore\n  pop\n  pop\n    /* \"Evm/core/base/vaultDelegator.sol\":1780:1798  _variable_verifier */\n  dup4\n    /* \"Evm/core/base/vaultDelegator.sol\":1742:1799  variable_verifier = IVariableVerifier(_variable_verifier) */\n  0xffffffffffffffffffffffffffffffffffffffff\n  and\n  0xa0\n  dup2\n  0xffffffffffffffffffffffffffffffffffffffff\n  and\n  dup2\n  mstore\n  pop\n  pop\n    /* \"Evm/core/base/vaultDelegator.sol\":1850:1869  _validator_verifier */\n  dup3\n    /* \"Evm/core/base/vaultDelegator.sol\":1810:1870  validator_verifier = IValidatorVerifier(_validator_verifier) */\n  0xffffffffffffffffffffffffffffffffffffffff\n  and\n  0xc0\n  dup2\n  0xffffffffffffffffffffffffffffffffffffffff\n  and\n  dup2\n  mstore\n  pop\n  pop\n    /* \"Evm/core/base/vaultDelegator.sol\":1912:1930  _variablesRegistry */\n  dup2\n    /* \"Evm/core/base/vaultDelegator.sol\":1881:1931  variablesRegistry = IVariables(_variablesRegistry) */\n  0xffffffffffffffffffffffffffffffffffffffff\n  and\n  0xe0\n  dup2\n  0xffffffffffffffffffffffffffffffffffffffff\n  and\n  dup2\n  mstore\n  pop\n  pop\n    /* \"Evm/core/base/vaultDelegator.sol\":1975:1994  _validatorsRegistry */\n  dup1\n    /* \"Evm/core/base/vaultDelegator.sol\":1942:1995  validatorsRegistry = IValidators(_validatorsRegistry) */\n  0xffffffffffffffffffffffffffffffffffffffff\n  and\n  0x0100\n  dup2\n  0xffffffffffffffffffffffffffffffffffffffff\n  and\n  dup2\n  mstore\n  pop\n  pop\n    /* \"Evm/core/base/vaultDelegator.sol\":1495:2003  constructor(address _balance_verifier,address _variable_verifier,address _validator_verifier, address _variablesRegistry, address _validatorsRegistry) Ownable(msg.sender) {... */\n  pop\n  pop\n  pop\n  pop\n  pop\n    /* \"Evm/core/base/vaultDelegator.sol\":1065:13970  contract QiaraZKDelegator is Ownable {... */\n  jump(tag_13)\n    /* \"@openzeppelin/contracts/access/Ownable.sol\":2912:3099  function _transferOwnership(address newOwner) internal virtual {... */\ntag_11:\n    /* \"@openzeppelin/contracts/access/Ownable.sol\":2985:3001  address oldOwner */\n  0x00\n    /* \"@openzeppelin/contracts/access/Ownable.sol\":3004:3010  _owner */\n  0x00\n  0x00\n  swap1\n  sload\n  swap1\n  0x0100\n  exp\n  swap1\n  div\n  0xffffffffffffffffffffffffffffffffffffffff\n  and\n    /* \"@openzeppelin/contracts/access/Ownable.sol\":2985:3010  address oldOwner = _owner */\n  swap1\n  pop\n    /* \"@openzeppelin/contracts/access/Ownable.sol\":3029:3037  newOwner */\n  dup2\n    /* \"@openzeppelin/contracts/access/Ownable.sol\":3020:3026  _owner */\n  0x00\n  0x00\n    /* \"@openzeppelin/contracts/access/Ownable.sol\":3020:3037  _owner = newOwner */\n  0x0100\n  exp\n  dup2\n  sload\n  dup2\n  0xffffffffffffffffffffffffffffffffffffffff\n  mul\n  not\n  and\n  swap1\n  dup4\n  0xffffffffffffffffffffffffffffffffffffffff\n  and\n  mul\n  or\n  swap1\n  sstore\n  pop\n    /* \"@openzeppelin/contracts/access/Ownable.sol\":3083:3091  newOwner */\n  dup2\n    /* \"@openzeppelin/contracts/access/Ownable.sol\":3052:3092  OwnershipTransferred(oldOwner, newOwner) */\n  0xffffffffffffffffffffffffffffffffffffffff\n  and\n    /* \"@openzeppelin/contracts/access/Ownable.sol\":3073:3081  oldOwner */\n  dup2\n    /* \"@openzeppelin/contracts/access/Ownable.sol\":3052:3092  OwnershipTransferred(oldOwner, newOwner) */\n  0xffffffffffffffffffffffffffffffffffffffff\n  and\n  0x8be0079c531659141344cd1fd0a4f28419497f9722a3daafe3b4186f6b6457e0\n  mload(0x40)\n  mload(0x40)\n  dup1\n  swap2\n  sub\n  swap1\n  log3\n    /* \"@openzeppelin/contracts/access/Ownable.sol\":2975:3099  {... */\n  pop\n    /* \"@openzeppelin/contracts/access/Ownable.sol\":2912:3099  function _transferOwnership(address newOwner) internal virtual {... */\n  pop\n  jump\t// out\n    /* \"#utility.yul\":88:205   */\ntag_16:\n    /* \"#utility.yul\":197:198   */\n  0x00\n    /* \"#utility.yul\":194:195   */\n  0x00\n    /* \"#utility.yul\":187:199   */\n  revert\n    /* \"#utility.yul\":334:460   */\ntag_18:\n    /* \"#utility.yul\":371:378   */\n  0x00\n    /* \"#utility.yul\":411:453   */\n  0xffffffffffffffffffffffffffffffffffffffff\n    /* \"#utility.yul\":404:409   */\n  dup3\n    /* \"#utility.yul\":400:454   */\n  and\n    /* \"#utility.yul\":389:454   */\n  swap1\n  pop\n    /* \"#utility.yul\":334:460   */\n  swap2\n  swap1\n  pop\n  jump\t// out\n    /* \"#utility.yul\":466:562   */\ntag_19:\n    /* \"#utility.yul\":503:510   */\n  0x00\n    /* \"#utility.yul\":532:556   */\n  tag_29\n    /* \"#utility.yul\":550:555   */\n  dup3\n    /* \"#utility.yul\":532:556   */\n  tag_18\n  jump\t// in\ntag_29:\n    /* \"#utility.yul\":521:556   */\n  swap1\n  pop\n    /* \"#utility.yul\":466:562   */\n  swap2\n  swap1\n  pop\n  jump\t// out\n    /* \"#utility.yul\":568:690   */\ntag_20:\n    /* \"#utility.yul\":641:665   */\n  tag_31\n    /* \"#utility.yul\":659:664   */\n  dup2\n    /* \"#utility.yul\":641:665   */\n  tag_19\n  jump\t// in\ntag_31:\n    /* \"#utility.yul\":634:639   */\n  dup2\n    /* \"#utility.yul\":631:666   */\n  eq\n    /* \"#utility.yul\":621:684   */\n  tag_32\n  jumpi\n    /* \"#utility.yul\":680:681   */\n  0x00\n    /* \"#utility.yul\":677:678   */\n  0x00\n    /* \"#utility.yul\":670:682   */\n  revert\n    /* \"#utility.yul\":621:684   */\ntag_32:\n    /* \"#utility.yul\":568:690   */\n  pop\n  jump\t// out\n    /* \"#utility.yul\":696:839   */\ntag_21:\n    /* \"#utility.yul\":753:758   */\n  0x00\n    /* \"#utility.yul\":784:790   */\n  dup2\n    /* \"#utility.yul\":778:791   */\n  mload\n    /* \"#utility.yul\":769:791   */\n  swap1\n  pop\n    /* \"#utility.yul\":800:833   */\n  tag_34\n    /* \"#utility.yul\":827:832   */\n  dup2\n    /* \"#utility.yul\":800:833   */\n  tag_20\n  jump\t// in\ntag_34:\n    /* \"#utility.yul\":696:839   */\n  swap3\n  swap2\n  pop\n  pop\n  jump\t// out\n    /* \"#utility.yul\":845:1822   */\ntag_3:\n    /* \"#utility.yul\":951:957   */\n  0x00\n    /* \"#utility.yul\":959:965   */\n  0x00\n    /* \"#utility.yul\":967:973   */\n  0x00\n    /* \"#utility.yul\":975:981   */\n  0x00\n    /* \"#utility.yul\":983:989   */\n  0x00\n    /* \"#utility.yul\":1032:1035   */\n  0xa0\n    /* \"#utility.yul\":1020:1029   */\n  dup7\n    /* \"#utility.yul\":1011:1018   */\n  dup9\n    /* \"#utility.yul\":1007:1030   */\n  sub\n    /* \"#utility.yul\":1003:1036   */\n  slt\n    /* \"#utility.yul\":1000:1120   */\n  iszero\n  tag_36\n  jumpi\n    /* \"#utility.yul\":1039:1118   */\n  tag_37\n  tag_16\n  jump\t// in\ntag_37:\n    /* \"#utility.yul\":1000:1120   */\ntag_36:\n    /* \"#utility.yul\":1159:1160   */\n  0x00\n    /* \"#utility.yul\":1184:1248   */\n  tag_38\n    /* \"#utility.yul\":1240:1247   */\n  dup9\n    /* \"#utility.yul\":1231:1237   */\n  dup3\n    /* \"#utility.yul\":1220:1229   */\n  dup10\n    /* \"#utility.yul\":1216:1238   */\n  add\n    /* \"#utility.yul\":1184:1248   */\n  tag_21\n  jump\t// in\ntag_38:\n    /* \"#utility.yul\":1174:1248   */\n  swap6\n  pop\n    /* \"#utility.yul\":1130:1258   */\n  pop\n    /* \"#utility.yul\":1297:1299   */\n  0x20\n    /* \"#utility.yul\":1323:1387   */\n  tag_39\n    /* \"#utility.yul\":1379:1386   */\n  dup9\n    /* \"#utility.yul\":1370:1376   */\n  dup3\n    /* \"#utility.yul\":1359:1368   */\n  dup10\n    /* \"#utility.yul\":1355:1377   */\n  add\n    /* \"#utility.yul\":1323:1387   */\n  tag_21\n  jump\t// in\ntag_39:\n    /* \"#utility.yul\":1313:1387   */\n  swap5\n  pop\n    /* \"#utility.yul\":1268:1397   */\n  pop\n    /* \"#utility.yul\":1436:1438   */\n  0x40\n    /* \"#utility.yul\":1462:1526   */\n  tag_40\n    /* \"#utility.yul\":1518:1525   */\n  dup9\n    /* \"#utility.yul\":1509:1515   */\n  dup3\n    /* \"#utility.yul\":1498:1507   */\n  dup10\n    /* \"#utility.yul\":1494:1516   */\n  add\n    /* \"#utility.yul\":1462:1526   */\n  tag_21\n  jump\t// in\ntag_40:\n    /* \"#utility.yul\":1452:1526   */\n  swap4\n  pop\n    /* \"#utility.yul\":1407:1536   */\n  pop\n    /* \"#utility.yul\":1575:1577   */\n  0x60\n    /* \"#utility.yul\":1601:1665   */\n  tag_41\n    /* \"#utility.yul\":1657:1664   */\n  dup9\n    /* \"#utility.yul\":1648:1654   */\n  dup3\n    /* \"#utility.yul\":1637:1646   */\n  dup10\n    /* \"#utility.yul\":1633:1655   */\n  add\n    /* \"#utility.yul\":1601:1665   */\n  tag_21\n  jump\t// in\ntag_41:\n    /* \"#utility.yul\":1591:1665   */\n  swap3\n  pop\n    /* \"#utility.yul\":1546:1675   */\n  pop\n    /* \"#utility.yul\":1714:1717   */\n  0x80\n    /* \"#utility.yul\":1741:1805   */\n  tag_42\n    /* \"#utility.yul\":1797:1804   */\n  dup9\n    /* \"#utility.yul\":1788:1794   */\n  dup3\n    /* \"#utility.yul\":1777:1786   */\n  dup10\n    /* \"#utility.yul\":1773:1795   */\n  add\n    /* \"#utility.yul\":1741:1805   */\n  tag_21\n  jump\t// in\ntag_42:\n    /* \"#utility.yul\":1731:1805   */\n  swap2\n  pop\n    /* \"#utility.yul\":1685:1815   */\n  pop\n    /* \"#utility.yul\":845:1822   */\n  swap3\n  swap6\n  pop\n  swap3\n  swap6\n  swap1\n  swap4\n  pop\n  jump\t// out\n    /* \"#utility.yul\":1828:1946   */\ntag_22:\n    /* \"#utility.yul\":1915:1939   */\n  tag_44\n    /* \"#utility.yul\":1933:1938   */\n  dup2\n    /* \"#utility.yul\":1915:1939   */\n  tag_19\n  jump\t// in\ntag_44:\n    /* \"#utility.yul\":1910:1913   */\n  dup3\n    /* \"#utility.yul\":1903:1940   */\n  mstore\n    /* \"#utility.yul\":1828:1946   */\n  pop\n  pop\n  jump\t// out\n    /* \"#utility.yul\":1952:2174   */\ntag_9:\n    /* \"#utility.yul\":2045:2049   */\n  0x00\n    /* \"#utility.yul\":2083:2085   */\n  0x20\n    /* \"#utility.yul\":2072:2081   */\n  dup3\n    /* \"#utility.yul\":2068:2086   */\n  add\n    /* \"#utility.yul\":2060:2086   */\n  swap1\n  pop\n    /* \"#utility.yul\":2096:2167   */\n  tag_46\n    /* \"#utility.yul\":2164:2165   */\n  0x00\n    /* \"#utility.yul\":2153:2162   */\n  dup4\n    /* \"#utility.yul\":2149:2166   */\n  add\n    /* \"#utility.yul\":2140:2146   */\n  dup5\n    /* \"#utility.yul\":2096:2167   */\n  tag_22\n  jump\t// in\ntag_46:\n    /* \"#utility.yul\":1952:2174   */\n  swap3\n  swap2\n  pop\n  pop\n  jump\t// out\n    /* \"Evm/core/base/vaultDelegator.sol\":1065:13970  contract QiaraZKDelegator is Ownable {... */\ntag_13:\n  mload(0x80)\n  mload(0xa0)\n  mload(0xc0)\n  mload(0xe0)\n  mload(0x0100)\n  codecopy(0x00, dataOffset(sub_0), dataSize(sub_0))\n  0x00\n  assignImmutable(\"0x0d283e5f5b5d2526f34a5a92a1188385f6cf1a43607f82a114e6c2e937222ad5\")\n  0x00\n  assignImmutable(\"0xe54f8e4a5d17b2e4d97cb94ddb2a2b00b3620f93c06158e24f4515b3f1ad0dd8\")\n  0x00\n  assignImmutable(\"0x9c82694a9cf6c7b68ec93c5541ae0b2631d5f0fa3eec98f4ce497d015951b3ba\")\n  0x00\n  assignImmutable(\"0x273aa4908e152d529e25a9f5482459ad34b85c65a2a2eb2d4dcc86bed0f67292\")\n  0x00\n  assignImmutable(\"0x0c547abaeb802d560e2d858972ba2ab023d02ad4d4b45f6e7fe8ba1d5749bc58\")\n  return(0x00, dataSize(sub_0))\nstop\n\nsub_0: assembly {\n        /* \"Evm/core/base/vaultDelegator.sol\":1065:13970  contract QiaraZKDelegator is Ownable {... */\n      mstore(0x40, 0x80)\n      callvalue\n      dup1\n      iszero\n      tag_1\n      jumpi\n      revert(0x00, 0x00)\n    tag_1:\n      pop\n      jumpi(tag_2, lt(calldatasize, 0x04))\n      shr(0xe0, calldataload(0x00))\n      dup1\n      0x97aba7f9\n      gt\n      tag_21\n      jumpi\n      dup1\n      0xb648f220\n      gt\n      tag_22\n      jumpi\n      dup1\n      0xb648f220\n      eq\n      tag_16\n      jumpi\n      dup1\n      0xbf4d766e\n      eq\n      tag_17\n      jumpi\n      dup1\n      0xf2fde38b\n      eq\n      tag_18\n      jumpi\n      dup1\n      0xf90c0f40\n      eq\n      tag_19\n      jumpi\n      dup1\n      0xfa540801\n      eq\n      tag_20\n      jumpi\n      jump(tag_2)\n    tag_22:\n      dup1\n      0x97aba7f9\n      eq\n      tag_12\n      jumpi\n      dup1\n      0xaad24061\n      eq\n      tag_13\n      jumpi\n      dup1\n      0xaed881d8\n      eq\n      tag_14\n      jumpi\n      dup1\n      0xb3d63003\n      eq\n      tag_15\n      jumpi\n      jump(tag_2)\n    tag_21:\n      dup1\n      0x4eb30d41\n      gt\n      tag_23\n      jumpi\n      dup1\n      0x4eb30d41\n      eq\n      tag_7\n      jumpi\n      dup1\n      0x715018a6\n      eq\n      tag_8\n      jumpi\n      dup1\n      0x76fbe04f\n      eq\n      tag_9\n      jumpi\n      dup1\n      0x7a988c54\n      eq\n      tag_10\n      jumpi\n      dup1\n      0x8da5cb5b\n      eq\n      tag_11\n      jumpi\n      jump(tag_2)\n    tag_23:\n      dup1\n      0x19b8c941\n      eq\n      tag_3\n      jumpi\n      dup1\n      0x34e1d6a6\n      eq\n      tag_4\n      jumpi\n      dup1\n      0x392c8731\n      eq\n      tag_5\n      jumpi\n      dup1\n      0x41e532ca\n      eq\n      tag_6\n      jumpi\n    tag_2:\n      revert(0x00, 0x00)\n        /* \"Evm/core/base/vaultDelegator.sol\":12502:12625  function fieldToBytes(uint256 _field) public pure returns (bytes memory) {... */\n    tag_3:\n      tag_24\n      0x04\n      dup1\n      calldatasize\n      sub\n      dup2\n      add\n      swap1\n      tag_25\n      swap2\n      swap1\n      tag_26\n      jump\t// in\n    tag_25:\n      tag_27\n      jump\t// in\n    tag_24:\n      mload(0x40)\n      tag_28\n      swap2\n      swap1\n      tag_29\n      jump\t// in\n    tag_28:\n      mload(0x40)\n      dup1\n      swap2\n      sub\n      swap1\n      return\n        /* \"Evm/core/base/vaultDelegator.sol\":4151:7597  function processZkValidator(uint[8] calldata proof, uint[7] calldata input, bytes calldata _signatures) external {... */\n    tag_4:\n      tag_30\n      0x04\n      dup1\n      calldatasize\n      sub\n      dup2\n      add\n      swap1\n      tag_31\n      swap2\n      swap1\n      tag_32\n      jump\t// in\n    tag_31:\n      tag_33\n      jump\t// in\n    tag_30:\n      stop\n        /* \"Evm/core/base/vaultDelegator.sol\":2011:3180  function processZkWithdraw(uint[8] calldata proof, uint[6] calldata input,  bytes calldata _signatures) external {... */\n    tag_5:\n      tag_34\n      0x04\n      dup1\n      calldatasize\n      sub\n      dup2\n      add\n      swap1\n      tag_35\n      swap2\n      swap1\n      tag_36\n      jump\t// in\n    tag_35:\n      tag_37\n      jump\t// in\n    tag_34:\n      stop\n        /* \"Evm/core/base/vaultDelegator.sol\":12635:13187  function deriveAddressFromSplitPubKey(uint256 xLow, uint256 xHigh,uint256 yLow, uint256 yHigh) public pure returns (address) {... */\n    tag_6:\n      tag_38\n      0x04\n      dup1\n      calldatasize\n      sub\n      dup2\n      add\n      swap1\n      tag_39\n      swap2\n      swap1\n      tag_40\n      jump\t// in\n    tag_39:\n      tag_41\n      jump\t// in\n    tag_38:\n      mload(0x40)\n      tag_42\n      swap2\n      swap1\n      tag_43\n      jump\t// in\n    tag_42:\n      mload(0x40)\n      dup1\n      swap2\n      sub\n      swap1\n      return\n        /* \"Evm/core/base/vaultDelegator.sol\":1166:1218  IVariableVerifier public immutable variable_verifier */\n    tag_7:\n      tag_44\n      tag_45\n      jump\t// in\n    tag_44:\n      mload(0x40)\n      tag_46\n      swap2\n      swap1\n      tag_47\n      jump\t// in\n    tag_46:\n      mload(0x40)\n      dup1\n      swap2\n      sub\n      swap1\n      return\n        /* \"@openzeppelin/contracts/access/Ownable.sol\":2293:2394  function renounceOwnership() public virtual onlyOwner {... */\n    tag_8:\n      tag_48\n      tag_49\n      jump\t// in\n    tag_48:\n      stop\n        /* \"Evm/core/base/vaultDelegator.sol\":3186:4146  function processZkVariable(uint[8] calldata proof, uint[7] calldata input, bytes calldata _signatures) external {... */\n    tag_9:\n      tag_50\n      0x04\n      dup1\n      calldatasize\n      sub\n      dup2\n      add\n      swap1\n      tag_51\n      swap2\n      swap1\n      tag_32\n      jump\t// in\n    tag_51:\n      tag_52\n      jump\t// in\n    tag_50:\n      stop\n        /* \"Evm/core/base/vaultDelegator.sol\":12376:12496  function fieldToAddress(uint256 _field) public pure returns (address) {... */\n    tag_10:\n      tag_53\n      0x04\n      dup1\n      calldatasize\n      sub\n      dup2\n      add\n      swap1\n      tag_54\n      swap2\n      swap1\n      tag_26\n      jump\t// in\n    tag_54:\n      tag_55\n      jump\t// in\n    tag_53:\n      mload(0x40)\n      tag_56\n      swap2\n      swap1\n      tag_43\n      jump\t// in\n    tag_56:\n      mload(0x40)\n      dup1\n      swap2\n      sub\n      swap1\n      return\n        /* \"@openzeppelin/contracts/access/Ownable.sol\":1638:1723  function owner() public view virtual returns (address) {... */\n    tag_11:\n      tag_57\n      tag_58\n      jump\t// in\n    tag_57:\n      mload(0x40)\n      tag_59\n      swap2\n      swap1\n      tag_43\n      jump\t// in\n    tag_59:\n      mload(0x40)\n      dup1\n      swap2\n      sub\n      swap1\n      return\n        /* \"Evm/core/base/vaultDelegator.sol\":13389:13967  function recoverSigner(bytes32 _ethSignedMessageHash, bytes memory _signature)public pure returns (address){... */\n    tag_12:\n      tag_60\n      0x04\n      dup1\n      calldatasize\n      sub\n      dup2\n      add\n      swap1\n      tag_61\n      swap2\n      swap1\n      tag_62\n      jump\t// in\n    tag_61:\n      tag_63\n      jump\t// in\n    tag_60:\n      mload(0x40)\n      tag_64\n      swap2\n      swap1\n      tag_43\n      jump\t// in\n    tag_64:\n      mload(0x40)\n      dup1\n      swap2\n      sub\n      swap1\n      return\n        /* \"Evm/core/base/vaultDelegator.sol\":1440:1486  mapping(uint256 => bool) public usedNullifiers */\n    tag_13:\n      tag_65\n      0x04\n      dup1\n      calldatasize\n      sub\n      dup2\n      add\n      swap1\n      tag_66\n      swap2\n      swap1\n      tag_26\n      jump\t// in\n    tag_66:\n      tag_67\n      jump\t// in\n    tag_65:\n      mload(0x40)\n      tag_68\n      swap2\n      swap1\n      tag_69\n      jump\t// in\n    tag_68:\n      mload(0x40)\n      dup1\n      swap2\n      sub\n      swap1\n      return\n        /* \"Evm/core/base/vaultDelegator.sol\":1338:1385  IValidators public immutable validatorsRegistry */\n    tag_14:\n      tag_70\n      tag_71\n      jump\t// in\n    tag_70:\n      mload(0x40)\n      tag_72\n      swap2\n      swap1\n      tag_73\n      jump\t// in\n    tag_72:\n      mload(0x40)\n      dup1\n      swap2\n      sub\n      swap1\n      return\n        /* \"Evm/core/base/vaultDelegator.sol\":1225:1279  IValidatorVerifier public immutable validator_verifier */\n    tag_15:\n      tag_74\n      tag_75\n      jump\t// in\n    tag_74:\n      mload(0x40)\n      tag_76\n      swap2\n      swap1\n      tag_77\n      jump\t// in\n    tag_76:\n      mload(0x40)\n      dup1\n      swap2\n      sub\n      swap1\n      return\n        /* \"Evm/core/base/vaultDelegator.sol\":11493:12370  function fieldToString(uint256 _field) public pure returns (string memory) {... */\n    tag_16:\n      tag_78\n      0x04\n      dup1\n      calldatasize\n      sub\n      dup2\n      add\n      swap1\n      tag_79\n      swap2\n      swap1\n      tag_26\n      jump\t// in\n    tag_79:\n      tag_80\n      jump\t// in\n    tag_78:\n      mload(0x40)\n      tag_81\n      swap2\n      swap1\n      tag_82\n      jump\t// in\n    tag_81:\n      mload(0x40)\n      dup1\n      swap2\n      sub\n      swap1\n      return\n        /* \"Evm/core/base/vaultDelegator.sol\":1286:1331  IVariables public immutable variablesRegistry */\n    tag_17:\n      tag_83\n      tag_84\n      jump\t// in\n    tag_83:\n      mload(0x40)\n      tag_85\n      swap2\n      swap1\n      tag_86\n      jump\t// in\n    tag_85:\n      mload(0x40)\n      dup1\n      swap2\n      sub\n      swap1\n      return\n        /* \"@openzeppelin/contracts/access/Ownable.sol\":2543:2758  function transferOwnership(address newOwner) public virtual onlyOwner {... */\n    tag_18:\n      tag_87\n      0x04\n      dup1\n      calldatasize\n      sub\n      dup2\n      add\n      swap1\n      tag_88\n      swap2\n      swap1\n      tag_89\n      jump\t// in\n    tag_88:\n      tag_90\n      jump\t// in\n    tag_87:\n      stop\n        /* \"Evm/core/base/vaultDelegator.sol\":1109:1159  IBalanceVerifier public immutable balance_verifier */\n    tag_19:\n      tag_91\n      tag_92\n      jump\t// in\n    tag_91:\n      mload(0x40)\n      tag_93\n      swap2\n      swap1\n      tag_94\n      jump\t// in\n    tag_93:\n      mload(0x40)\n      dup1\n      swap2\n      sub\n      swap1\n      return\n        /* \"Evm/core/base/vaultDelegator.sol\":13195:13383  function getEthSignedMessageHash(bytes32 _messageHash) public pure returns (bytes32) {... */\n    tag_20:\n      tag_95\n      0x04\n      dup1\n      calldatasize\n      sub\n      dup2\n      add\n      swap1\n      tag_96\n      swap2\n      swap1\n      tag_97\n      jump\t// in\n    tag_96:\n      tag_98\n      jump\t// in\n    tag_95:\n      mload(0x40)\n      tag_99\n      swap2\n      swap1\n      tag_100\n      jump\t// in\n    tag_99:\n      mload(0x40)\n      dup1\n      swap2\n      sub\n      swap1\n      return\n        /* \"Evm/core/base/vaultDelegator.sol\":12502:12625  function fieldToBytes(uint256 _field) public pure returns (bytes memory) {... */\n    tag_27:\n        /* \"Evm/core/base/vaultDelegator.sol\":12561:12573  bytes memory */\n      0x60\n        /* \"Evm/core/base/vaultDelegator.sol\":12610:12616  _field */\n      dup2\n        /* \"Evm/core/base/vaultDelegator.sol\":12593:12617  abi.encodePacked(_field) */\n      add(0x20, mload(0x40))\n      tag_102\n      swap2\n      swap1\n      tag_103\n      jump\t// in\n    tag_102:\n      mload(0x40)\n      0x20\n      dup2\n      dup4\n      sub\n      sub\n      dup2\n      mstore\n      swap1\n      0x40\n      mstore\n        /* \"Evm/core/base/vaultDelegator.sol\":12586:12617  return abi.encodePacked(_field) */\n      swap1\n      pop\n        /* \"Evm/core/base/vaultDelegator.sol\":12502:12625  function fieldToBytes(uint256 _field) public pure returns (bytes memory) {... */\n      swap2\n      swap1\n      pop\n      jump\t// out\n        /* \"Evm/core/base/vaultDelegator.sol\":4151:7597  function processZkValidator(uint[8] calldata proof, uint[7] calldata input, bytes calldata _signatures) external {... */\n    tag_33:\n        /* \"Evm/core/base/vaultDelegator.sol\":4306:4324  validator_verifier */\n      immutable(\"0x9c82694a9cf6c7b68ec93c5541ae0b2631d5f0fa3eec98f4ce497d015951b3ba\")\n        /* \"Evm/core/base/vaultDelegator.sol\":4306:4336  validator_verifier.verifyProof */\n      0xffffffffffffffffffffffffffffffffffffffff\n      and\n      0x1042664e\n        /* \"Evm/core/base/vaultDelegator.sol\":4337:4342  proof */\n      dup6\n        /* \"Evm/core/base/vaultDelegator.sol\":4344:4349  input */\n      dup6\n        /* \"Evm/core/base/vaultDelegator.sol\":4306:4350  validator_verifier.verifyProof(proof, input) */\n      mload(0x40)\n      dup4\n      0xffffffff\n      and\n      0xe0\n      shl\n      dup2\n      mstore\n      0x04\n      add\n      tag_105\n      swap3\n      swap2\n      swap1\n      tag_106\n      jump\t// in\n    tag_105:\n      0x00\n      mload(0x40)\n      dup1\n      dup4\n      sub\n      dup2\n      dup7\n      dup1\n      extcodesize\n      iszero\n      dup1\n      iszero\n      tag_107\n      jumpi\n      revert(0x00, 0x00)\n    tag_107:\n      pop\n      gas\n      staticcall\n      iszero\n      dup1\n      iszero\n      tag_109\n      jumpi\n      returndatacopy(0x00, 0x00, returndatasize)\n      revert(0x00, returndatasize)\n    tag_109:\n      pop\n      pop\n      pop\n      pop\n        /* \"Evm/core/base/vaultDelegator.sol\":4507:4528  uint256 packedContext */\n      0x00\n        /* \"Evm/core/base/vaultDelegator.sol\":4531:4536  input */\n      dup4\n        /* \"Evm/core/base/vaultDelegator.sol\":4537:4538  2 */\n      0x02\n        /* \"Evm/core/base/vaultDelegator.sol\":4531:4539  input[2] */\n      0x07\n      dup2\n      lt\n      tag_110\n      jumpi\n      tag_111\n      tag_112\n      jump\t// in\n    tag_111:\n    tag_110:\n      0x20\n      mul\n      add\n      calldataload\n        /* \"Evm/core/base/vaultDelegator.sol\":4507:4539  uint256 packedContext = input[2] */\n      swap1\n      pop\n        /* \"Evm/core/base/vaultDelegator.sol\":4639:4653  bool isRemoval */\n      0x00\n        /* \"Evm/core/base/vaultDelegator.sol\":4685:4686  1 */\n      0x01\n        /* \"Evm/core/base/vaultDelegator.sol\":4680:4681  1 */\n      dup1\n        /* \"Evm/core/base/vaultDelegator.sol\":4674:4676  16 */\n      0x10\n        /* \"Evm/core/base/vaultDelegator.sol\":4657:4670  packedContext */\n      dup5\n        /* \"Evm/core/base/vaultDelegator.sol\":4657:4676  packedContext >> 16 */\n      swap1\n      shr\n        /* \"Evm/core/base/vaultDelegator.sol\":4656:4681  (packedContext >> 16) & 1 */\n      and\n        /* \"Evm/core/base/vaultDelegator.sol\":4656:4686  (packedContext >> 16) & 1 == 1 */\n      eq\n        /* \"Evm/core/base/vaultDelegator.sol\":4639:4686  bool isRemoval = (packedContext >> 16) & 1 == 1 */\n      swap1\n      pop\n        /* \"Evm/core/base/vaultDelegator.sol\":4742:4757  uint256 chainID */\n      0x00\n        /* \"Evm/core/base/vaultDelegator.sol\":4760:4765  input */\n      dup6\n        /* \"Evm/core/base/vaultDelegator.sol\":4766:4767  4 */\n      0x04\n        /* \"Evm/core/base/vaultDelegator.sol\":4760:4768  input[4] */\n      0x07\n      dup2\n      lt\n      tag_113\n      jumpi\n      tag_114\n      tag_112\n      jump\t// in\n    tag_114:\n    tag_113:\n      0x20\n      mul\n      add\n      calldataload\n        /* \"Evm/core/base/vaultDelegator.sol\":4742:4768  uint256 chainID = input[4] */\n      swap1\n      pop\n        /* \"Evm/core/base/vaultDelegator.sol\":4798:4811  block.chainid */\n      chainid\n        /* \"Evm/core/base/vaultDelegator.sol\":4787:4794  chainID */\n      dup2\n        /* \"Evm/core/base/vaultDelegator.sol\":4787:4811  chainID == block.chainid */\n      eq\n        /* \"Evm/core/base/vaultDelegator.sol\":4779:4839  require(chainID == block.chainid, \"Wrong destination chain\") */\n      tag_115\n      jumpi\n      mload(0x40)\n      0x08c379a000000000000000000000000000000000000000000000000000000000\n      dup2\n      mstore\n      0x04\n      add\n      tag_116\n      swap1\n      tag_117\n      jump\t// in\n    tag_116:\n      mload(0x40)\n      dup1\n      swap2\n      sub\n      swap1\n      revert\n    tag_115:\n        /* \"Evm/core/base/vaultDelegator.sol\":6533:6542  uint256 x */\n      0x00\n        /* \"Evm/core/base/vaultDelegator.sol\":6565:6570  input */\n      dup7\n        /* \"Evm/core/base/vaultDelegator.sol\":6571:6572  3 */\n      0x03\n        /* \"Evm/core/base/vaultDelegator.sol\":6565:6573  input[3] */\n      0x07\n      dup2\n      lt\n      tag_118\n      jumpi\n      tag_119\n      tag_112\n      jump\t// in\n    tag_119:\n    tag_118:\n      0x20\n      mul\n      add\n      calldataload\n        /* \"Evm/core/base/vaultDelegator.sol\":6558:6561  128 */\n      0x80\n        /* \"Evm/core/base/vaultDelegator.sol\":6546:6551  input */\n      dup9\n        /* \"Evm/core/base/vaultDelegator.sol\":6552:6553  4 */\n      0x04\n        /* \"Evm/core/base/vaultDelegator.sol\":6546:6554  input[4] */\n      0x07\n      dup2\n      lt\n      tag_120\n      jumpi\n      tag_121\n      tag_112\n      jump\t// in\n    tag_121:\n    tag_120:\n      0x20\n      mul\n      add\n      calldataload\n        /* \"Evm/core/base/vaultDelegator.sol\":6546:6561  input[4] << 128 */\n      swap1\n      shl\n        /* \"Evm/core/base/vaultDelegator.sol\":6545:6573  (input[4] << 128) | input[3] */\n      or\n        /* \"Evm/core/base/vaultDelegator.sol\":6533:6573  uint256 x = (input[4] << 128) | input[3] */\n      swap1\n      pop\n        /* \"Evm/core/base/vaultDelegator.sol\":6607:6616  uint256 y */\n      0x00\n        /* \"Evm/core/base/vaultDelegator.sol\":6639:6644  input */\n      dup8\n        /* \"Evm/core/base/vaultDelegator.sol\":6645:6646  5 */\n      0x05\n        /* \"Evm/core/base/vaultDelegator.sol\":6639:6647  input[5] */\n      0x07\n      dup2\n      lt\n      tag_122\n      jumpi\n      tag_123\n      tag_112\n      jump\t// in\n    tag_123:\n    tag_122:\n      0x20\n      mul\n      add\n      calldataload\n        /* \"Evm/core/base/vaultDelegator.sol\":6632:6635  128 */\n      0x80\n        /* \"Evm/core/base/vaultDelegator.sol\":6620:6625  input */\n      dup10\n        /* \"Evm/core/base/vaultDelegator.sol\":6626:6627  6 */\n      0x06\n        /* \"Evm/core/base/vaultDelegator.sol\":6620:6628  input[6] */\n      0x07\n      dup2\n      lt\n      tag_124\n      jumpi\n      tag_125\n      tag_112\n      jump\t// in\n    tag_125:\n    tag_124:\n      0x20\n      mul\n      add\n      calldataload\n        /* \"Evm/core/base/vaultDelegator.sol\":6620:6635  input[6] << 128 */\n      swap1\n      shl\n        /* \"Evm/core/base/vaultDelegator.sol\":6619:6647  (input[6] << 128) | input[5] */\n      or\n        /* \"Evm/core/base/vaultDelegator.sol\":6607:6647  uint256 y = (input[6] << 128) | input[5] */\n      swap1\n      pop\n        /* \"Evm/core/base/vaultDelegator.sol\":6850:6874  address validatorAddress */\n      0x00\n        /* \"Evm/core/base/vaultDelegator.sol\":6928:6929  x */\n      dup3\n        /* \"Evm/core/base/vaultDelegator.sol\":6931:6932  y */\n      dup3\n        /* \"Evm/core/base/vaultDelegator.sol\":6911:6933  abi.encodePacked(x, y) */\n      add(0x20, mload(0x40))\n      tag_126\n      swap3\n      swap2\n      swap1\n      tag_127\n      jump\t// in\n    tag_126:\n      mload(0x40)\n      0x20\n      dup2\n      dup4\n      sub\n      sub\n      dup2\n      mstore\n      swap1\n      0x40\n      mstore\n        /* \"Evm/core/base/vaultDelegator.sol\":6901:6934  keccak256(abi.encodePacked(x, y)) */\n      dup1\n      mload\n      swap1\n      0x20\n      add\n      keccak256\n        /* \"Evm/core/base/vaultDelegator.sol\":6893:6935  uint256(keccak256(abi.encodePacked(x, y))) */\n      0x00\n      shr\n        /* \"Evm/core/base/vaultDelegator.sol\":6850:6937  address validatorAddress = address(uint160(uint256(keccak256(abi.encodePacked(x, y))))) */\n      swap1\n      pop\n        /* \"Evm/core/base/vaultDelegator.sol\":7286:7303  uint256 nullifier */\n      0x00\n        /* \"Evm/core/base/vaultDelegator.sol\":7306:7333  _calculateNullifier7(input) */\n      tag_128\n        /* \"Evm/core/base/vaultDelegator.sol\":7327:7332  input */\n      dup11\n        /* \"Evm/core/base/vaultDelegator.sol\":7306:7326  _calculateNullifier7 */\n      tag_129\n        /* \"Evm/core/base/vaultDelegator.sol\":7306:7333  _calculateNullifier7(input) */\n      jump\t// in\n    tag_128:\n        /* \"Evm/core/base/vaultDelegator.sol\":7286:7333  uint256 nullifier = _calculateNullifier7(input) */\n      swap1\n      pop\n        /* \"Evm/core/base/vaultDelegator.sol\":7345:7398  _verifyAllSignatures(bytes32(nullifier), _signatures) */\n      tag_130\n        /* \"Evm/core/base/vaultDelegator.sol\":7374:7383  nullifier */\n      dup2\n        /* \"Evm/core/base/vaultDelegator.sol\":7366:7384  bytes32(nullifier) */\n      0x00\n      shl\n        /* \"Evm/core/base/vaultDelegator.sol\":7386:7397  _signatures */\n      dup11\n      dup11\n        /* \"Evm/core/base/vaultDelegator.sol\":7345:7365  _verifyAllSignatures */\n      tag_131\n        /* \"Evm/core/base/vaultDelegator.sol\":7345:7398  _verifyAllSignatures(bytes32(nullifier), _signatures) */\n      jump\t// in\n    tag_130:\n        /* \"Evm/core/base/vaultDelegator.sol\":7418:7432  usedNullifiers */\n      0x01\n        /* \"Evm/core/base/vaultDelegator.sol\":7418:7443  usedNullifiers[nullifier] */\n      0x00\n        /* \"Evm/core/base/vaultDelegator.sol\":7433:7442  nullifier */\n      dup3\n        /* \"Evm/core/base/vaultDelegator.sol\":7418:7443  usedNullifiers[nullifier] */\n      dup2\n      mstore\n      0x20\n      add\n      swap1\n      dup2\n      mstore\n      0x20\n      add\n      0x00\n      keccak256\n      0x00\n      swap1\n      sload\n      swap1\n      0x0100\n      exp\n      swap1\n      div\n      0xff\n      and\n        /* \"Evm/core/base/vaultDelegator.sol\":7417:7443  !usedNullifiers[nullifier] */\n      iszero\n        /* \"Evm/core/base/vaultDelegator.sol\":7409:7470  require(!usedNullifiers[nullifier], \"Replay attack detected\") */\n      tag_132\n      jumpi\n      mload(0x40)\n      0x08c379a000000000000000000000000000000000000000000000000000000000\n      dup2\n      mstore\n      0x04\n      add\n      tag_133\n      swap1\n      tag_134\n      jump\t// in\n    tag_133:\n      mload(0x40)\n      dup1\n      swap2\n      sub\n      swap1\n      revert\n    tag_132:\n        /* \"Evm/core/base/vaultDelegator.sol\":7509:7513  true */\n      0x01\n        /* \"Evm/core/base/vaultDelegator.sol\":7481:7495  usedNullifiers */\n      dup1\n        /* \"Evm/core/base/vaultDelegator.sol\":7481:7506  usedNullifiers[nullifier] */\n      0x00\n        /* \"Evm/core/base/vaultDelegator.sol\":7496:7505  nullifier */\n      dup4\n        /* \"Evm/core/base/vaultDelegator.sol\":7481:7506  usedNullifiers[nullifier] */\n      dup2\n      mstore\n      0x20\n      add\n      swap1\n      dup2\n      mstore\n      0x20\n      add\n      0x00\n      keccak256\n      0x00\n        /* \"Evm/core/base/vaultDelegator.sol\":7481:7513  usedNullifiers[nullifier] = true */\n      0x0100\n      exp\n      dup2\n      sload\n      dup2\n      0xff\n      mul\n      not\n      and\n      swap1\n      dup4\n      iszero\n      iszero\n      mul\n      or\n      swap1\n      sstore\n      pop\n        /* \"Evm/core/base/vaultDelegator.sol\":7524:7542  validatorsRegistry */\n      immutable(\"0x0d283e5f5b5d2526f34a5a92a1188385f6cf1a43607f82a114e6c2e937222ad5\")\n        /* \"Evm/core/base/vaultDelegator.sol\":7524:7560  validatorsRegistry.addPendingAddress */\n      0xffffffffffffffffffffffffffffffffffffffff\n      and\n      0x22ca098f\n        /* \"Evm/core/base/vaultDelegator.sol\":7561:7577  validatorAddress */\n      dup4\n        /* \"Evm/core/base/vaultDelegator.sol\":7579:7588  isRemoval */\n      dup9\n        /* \"Evm/core/base/vaultDelegator.sol\":7524:7589  validatorsRegistry.addPendingAddress(validatorAddress, isRemoval) */\n      mload(0x40)\n      dup4\n      0xffffffff\n      and\n      0xe0\n      shl\n      dup2\n      mstore\n      0x04\n      add\n      tag_135\n      swap3\n      swap2\n      swap1\n      tag_136\n      jump\t// in\n    tag_135:\n      0x00\n      mload(0x40)\n      dup1\n      dup4\n      sub\n      dup2\n      0x00\n      dup8\n      dup1\n      extcodesize\n      iszero\n      dup1\n      iszero\n      tag_137\n      jumpi\n      revert(0x00, 0x00)\n    tag_137:\n      pop\n      gas\n      call\n      iszero\n      dup1\n      iszero\n      tag_139\n      jumpi\n      returndatacopy(0x00, 0x00, returndatasize)\n      revert(0x00, returndatasize)\n    tag_139:\n      pop\n      pop\n      pop\n      pop\n        /* \"Evm/core/base/vaultDelegator.sol\":4264:7597  {... */\n      pop\n      pop\n      pop\n      pop\n      pop\n      pop\n      pop\n        /* \"Evm/core/base/vaultDelegator.sol\":4151:7597  function processZkValidator(uint[8] calldata proof, uint[7] calldata input, bytes calldata _signatures) external {... */\n      pop\n      pop\n      pop\n      pop\n      jump\t// out\n        /* \"Evm/core/base/vaultDelegator.sol\":2011:3180  function processZkWithdraw(uint[8] calldata proof, uint[6] calldata input,  bytes calldata _signatures) external {... */\n    tag_37:\n        /* \"Evm/core/base/vaultDelegator.sol\":2166:2182  balance_verifier */\n      immutable(\"0x0c547abaeb802d560e2d858972ba2ab023d02ad4d4b45f6e7fe8ba1d5749bc58\")\n        /* \"Evm/core/base/vaultDelegator.sol\":2166:2194  balance_verifier.verifyProof */\n      0xffffffffffffffffffffffffffffffffffffffff\n      and\n      0x9cb28658\n        /* \"Evm/core/base/vaultDelegator.sol\":2195:2200  proof */\n      dup6\n        /* \"Evm/core/base/vaultDelegator.sol\":2202:2207  input */\n      dup6\n        /* \"Evm/core/base/vaultDelegator.sol\":2166:2208  balance_verifier.verifyProof(proof, input) */\n      mload(0x40)\n      dup4\n      0xffffffff\n      and\n      0xe0\n      shl\n      dup2\n      mstore\n      0x04\n      add\n      tag_141\n      swap3\n      swap2\n      swap1\n      tag_142\n      jump\t// in\n    tag_141:\n      0x00\n      mload(0x40)\n      dup1\n      dup4\n      sub\n      dup2\n      dup7\n      dup1\n      extcodesize\n      iszero\n      dup1\n      iszero\n      tag_143\n      jumpi\n      revert(0x00, 0x00)\n    tag_143:\n      pop\n      gas\n      staticcall\n      iszero\n      dup1\n      iszero\n      tag_145\n      jumpi\n      returndatacopy(0x00, 0x00, returndatasize)\n      revert(0x00, returndatasize)\n    tag_145:\n      pop\n      pop\n      pop\n      pop\n        /* \"Evm/core/base/vaultDelegator.sol\":2222:2236  uint256 amount */\n      0x00\n        /* \"Evm/core/base/vaultDelegator.sol\":2238:2255  address vaultAddr */\n      0x00\n        /* \"Evm/core/base/vaultDelegator.sol\":2257:2282  string memory storageName */\n      0x00\n        /* \"Evm/core/base/vaultDelegator.sol\":2286:2311  _prepareWithdrawal(input) */\n      tag_146\n        /* \"Evm/core/base/vaultDelegator.sol\":2305:2310  input */\n      dup7\n        /* \"Evm/core/base/vaultDelegator.sol\":2286:2304  _prepareWithdrawal */\n      tag_147\n        /* \"Evm/core/base/vaultDelegator.sol\":2286:2311  _prepareWithdrawal(input) */\n      jump\t// in\n    tag_146:\n        /* \"Evm/core/base/vaultDelegator.sol\":2221:2311  (uint256 amount, address vaultAddr, string memory storageName) = _prepareWithdrawal(input) */\n      swap3\n      pop\n      swap3\n      pop\n      swap3\n      pop\n        /* \"Evm/core/base/vaultDelegator.sol\":2355:2368  uint256 userL */\n      0x00\n        /* \"Evm/core/base/vaultDelegator.sol\":2371:2376  input */\n      dup7\n        /* \"Evm/core/base/vaultDelegator.sol\":2377:2378  2 */\n      0x02\n        /* \"Evm/core/base/vaultDelegator.sol\":2371:2379  input[2] */\n      0x06\n      dup2\n      lt\n      tag_148\n      jumpi\n      tag_149\n      tag_112\n      jump\t// in\n    tag_149:\n    tag_148:\n      0x20\n      mul\n      add\n      calldataload\n        /* \"Evm/core/base/vaultDelegator.sol\":2355:2379  uint256 userL = input[2] */\n      swap1\n      pop\n        /* \"Evm/core/base/vaultDelegator.sol\":2390:2403  uint256 userH */\n      0x00\n        /* \"Evm/core/base/vaultDelegator.sol\":2406:2411  input */\n      dup8\n        /* \"Evm/core/base/vaultDelegator.sol\":2412:2413  3 */\n      0x03\n        /* \"Evm/core/base/vaultDelegator.sol\":2406:2414  input[3] */\n      0x06\n      dup2\n      lt\n      tag_150\n      jumpi\n      tag_151\n      tag_112\n      jump\t// in\n    tag_151:\n    tag_150:\n      0x20\n      mul\n      add\n      calldataload\n        /* \"Evm/core/base/vaultDelegator.sol\":2390:2414  uint256 userH = input[3] */\n      swap1\n      pop\n        /* \"Evm/core/base/vaultDelegator.sol\":2459:2476  uint256 nullifier */\n      0x00\n        /* \"Evm/core/base/vaultDelegator.sol\":2479:2506  _calculateNullifier8(input) */\n      tag_152\n        /* \"Evm/core/base/vaultDelegator.sol\":2500:2505  input */\n      dup10\n        /* \"Evm/core/base/vaultDelegator.sol\":2479:2499  _calculateNullifier8 */\n      tag_153\n        /* \"Evm/core/base/vaultDelegator.sol\":2479:2506  _calculateNullifier8(input) */\n      jump\t// in\n    tag_152:\n        /* \"Evm/core/base/vaultDelegator.sol\":2459:2506  uint256 nullifier = _calculateNullifier8(input) */\n      swap1\n      pop\n        /* \"Evm/core/base/vaultDelegator.sol\":2712:2765  _verifyAllSignatures(bytes32(nullifier), _signatures) */\n      tag_154\n        /* \"Evm/core/base/vaultDelegator.sol\":2741:2750  nullifier */\n      dup2\n        /* \"Evm/core/base/vaultDelegator.sol\":2733:2751  bytes32(nullifier) */\n      0x00\n      shl\n        /* \"Evm/core/base/vaultDelegator.sol\":2753:2764  _signatures */\n      dup10\n      dup10\n        /* \"Evm/core/base/vaultDelegator.sol\":2712:2732  _verifyAllSignatures */\n      tag_131\n        /* \"Evm/core/base/vaultDelegator.sol\":2712:2765  _verifyAllSignatures(bytes32(nullifier), _signatures) */\n      jump\t// in\n    tag_154:\n        /* \"Evm/core/base/vaultDelegator.sol\":2785:2799  usedNullifiers */\n      0x01\n        /* \"Evm/core/base/vaultDelegator.sol\":2785:2810  usedNullifiers[nullifier] */\n      0x00\n        /* \"Evm/core/base/vaultDelegator.sol\":2800:2809  nullifier */\n      dup3\n        /* \"Evm/core/base/vaultDelegator.sol\":2785:2810  usedNullifiers[nullifier] */\n      dup2\n      mstore\n      0x20\n      add\n      swap1\n      dup2\n      mstore\n      0x20\n      add\n      0x00\n      keccak256\n      0x00\n      swap1\n      sload\n      swap1\n      0x0100\n      exp\n      swap1\n      div\n      0xff\n      and\n        /* \"Evm/core/base/vaultDelegator.sol\":2784:2810  !usedNullifiers[nullifier] */\n      iszero\n        /* \"Evm/core/base/vaultDelegator.sol\":2776:2837  require(!usedNullifiers[nullifier], \"Replay attack detected\") */\n      tag_155\n      jumpi\n      mload(0x40)\n      0x08c379a000000000000000000000000000000000000000000000000000000000\n      dup2\n      mstore\n      0x04\n      add\n      tag_156\n      swap1\n      tag_134\n      jump\t// in\n    tag_156:\n      mload(0x40)\n      dup1\n      swap2\n      sub\n      swap1\n      revert\n    tag_155:\n        /* \"Evm/core/base/vaultDelegator.sol\":2876:2880  true */\n      0x01\n        /* \"Evm/core/base/vaultDelegator.sol\":2848:2862  usedNullifiers */\n      dup1\n        /* \"Evm/core/base/vaultDelegator.sol\":2848:2873  usedNullifiers[nullifier] */\n      0x00\n        /* \"Evm/core/base/vaultDelegator.sol\":2863:2872  nullifier */\n      dup4\n        /* \"Evm/core/base/vaultDelegator.sol\":2848:2873  usedNullifiers[nullifier] */\n      dup2\n      mstore\n      0x20\n      add\n      swap1\n      dup2\n      mstore\n      0x20\n      add\n      0x00\n      keccak256\n      0x00\n        /* \"Evm/core/base/vaultDelegator.sol\":2848:2880  usedNullifiers[nullifier] = true */\n      0x0100\n      exp\n      dup2\n      sload\n      dup2\n      0xff\n      mul\n      not\n      and\n      swap1\n      dup4\n      iszero\n      iszero\n      mul\n      or\n      swap1\n      sstore\n      pop\n        /* \"Evm/core/base/vaultDelegator.sol\":2968:2980  address user */\n      0x00\n        /* \"Evm/core/base/vaultDelegator.sol\":3016:3021  userL */\n      dup4\n        /* \"Evm/core/base/vaultDelegator.sol\":3009:3012  128 */\n      0x80\n        /* \"Evm/core/base/vaultDelegator.sol\":3000:3005  userH */\n      dup5\n        /* \"Evm/core/base/vaultDelegator.sol\":3000:3012  userH << 128 */\n      swap1\n      shl\n        /* \"Evm/core/base/vaultDelegator.sol\":2999:3021  (userH << 128) | userL */\n      or\n        /* \"Evm/core/base/vaultDelegator.sol\":2968:3023  address user = address(uint160((userH << 128) | userL)) */\n      swap1\n      pop\n        /* \"Evm/core/base/vaultDelegator.sol\":3109:3118  vaultAddr */\n      dup6\n        /* \"Evm/core/base/vaultDelegator.sol\":3097:3134  IQiaraVault(vaultAddr).directWithdraw */\n      0xffffffffffffffffffffffffffffffffffffffff\n      and\n      0x7a9eceb4\n        /* \"Evm/core/base/vaultDelegator.sol\":3135:3139  user */\n      dup3\n        /* \"Evm/core/base/vaultDelegator.sol\":3141:3152  storageName */\n      dup8\n        /* \"Evm/core/base/vaultDelegator.sol\":3154:3160  amount */\n      dup11\n        /* \"Evm/core/base/vaultDelegator.sol\":3162:3171  nullifier */\n      dup7\n        /* \"Evm/core/base/vaultDelegator.sol\":3097:3172  IQiaraVault(vaultAddr).directWithdraw(user, storageName, amount, nullifier) */\n      mload(0x40)\n      dup6\n      0xffffffff\n      and\n      0xe0\n      shl\n      dup2\n      mstore\n      0x04\n      add\n      tag_157\n      swap5\n      swap4\n      swap3\n      swap2\n      swap1\n      tag_158\n      jump\t// in\n    tag_157:\n      0x00\n      mload(0x40)\n      dup1\n      dup4\n      sub\n      dup2\n      0x00\n      dup8\n      dup1\n      extcodesize\n      iszero\n      dup1\n      iszero\n      tag_159\n      jumpi\n      revert(0x00, 0x00)\n    tag_159:\n      pop\n      gas\n      call\n      iszero\n      dup1\n      iszero\n      tag_161\n      jumpi\n      returndatacopy(0x00, 0x00, returndatasize)\n      revert(0x00, returndatasize)\n    tag_161:\n      pop\n      pop\n      pop\n      pop\n        /* \"Evm/core/base/vaultDelegator.sol\":2124:3180  {... */\n      pop\n      pop\n      pop\n      pop\n      pop\n      pop\n      pop\n        /* \"Evm/core/base/vaultDelegator.sol\":2011:3180  function processZkWithdraw(uint[8] calldata proof, uint[6] calldata input,  bytes calldata _signatures) external {... */\n      pop\n      pop\n      pop\n      pop\n      jump\t// out\n        /* \"Evm/core/base/vaultDelegator.sol\":12635:13187  function deriveAddressFromSplitPubKey(uint256 xLow, uint256 xHigh,uint256 yLow, uint256 yHigh) public pure returns (address) {... */\n    tag_41:\n        /* \"Evm/core/base/vaultDelegator.sol\":12751:12758  address */\n      0x00\n        /* \"Evm/core/base/vaultDelegator.sol\":12850:12859  uint256 x */\n      0x00\n        /* \"Evm/core/base/vaultDelegator.sol\":12879:12883  xLow */\n      dup6\n        /* \"Evm/core/base/vaultDelegator.sol\":12872:12875  128 */\n      0x80\n        /* \"Evm/core/base/vaultDelegator.sol\":12863:12868  xHigh */\n      dup7\n        /* \"Evm/core/base/vaultDelegator.sol\":12863:12875  xHigh << 128 */\n      swap1\n      shl\n        /* \"Evm/core/base/vaultDelegator.sol\":12862:12883  (xHigh << 128) | xLow */\n      or\n        /* \"Evm/core/base/vaultDelegator.sol\":12850:12883  uint256 x = (xHigh << 128) | xLow */\n      swap1\n      pop\n        /* \"Evm/core/base/vaultDelegator.sol\":12894:12903  uint256 y */\n      0x00\n        /* \"Evm/core/base/vaultDelegator.sol\":12923:12927  yLow */\n      dup5\n        /* \"Evm/core/base/vaultDelegator.sol\":12916:12919  128 */\n      0x80\n        /* \"Evm/core/base/vaultDelegator.sol\":12907:12912  yHigh */\n      dup6\n        /* \"Evm/core/base/vaultDelegator.sol\":12907:12919  yHigh << 128 */\n      swap1\n      shl\n        /* \"Evm/core/base/vaultDelegator.sol\":12906:12927  (yHigh << 128) | yLow */\n      or\n        /* \"Evm/core/base/vaultDelegator.sol\":12894:12927  uint256 y = (yHigh << 128) | yLow */\n      swap1\n      pop\n        /* \"Evm/core/base/vaultDelegator.sol\":13170:13171  x */\n      dup2\n        /* \"Evm/core/base/vaultDelegator.sol\":13173:13174  y */\n      dup2\n        /* \"Evm/core/base/vaultDelegator.sol\":13153:13175  abi.encodePacked(x, y) */\n      add(0x20, mload(0x40))\n      tag_163\n      swap3\n      swap2\n      swap1\n      tag_127\n      jump\t// in\n    tag_163:\n      mload(0x40)\n      0x20\n      dup2\n      dup4\n      sub\n      sub\n      dup2\n      mstore\n      swap1\n      0x40\n      mstore\n        /* \"Evm/core/base/vaultDelegator.sol\":13143:13176  keccak256(abi.encodePacked(x, y)) */\n      dup1\n      mload\n      swap1\n      0x20\n      add\n      keccak256\n        /* \"Evm/core/base/vaultDelegator.sol\":13135:13177  uint256(keccak256(abi.encodePacked(x, y))) */\n      0x00\n      shr\n        /* \"Evm/core/base/vaultDelegator.sol\":13112:13179  return address(uint160(uint256(keccak256(abi.encodePacked(x, y))))) */\n      swap3\n      pop\n      pop\n      pop\n        /* \"Evm/core/base/vaultDelegator.sol\":12635:13187  function deriveAddressFromSplitPubKey(uint256 xLow, uint256 xHigh,uint256 yLow, uint256 yHigh) public pure returns (address) {... */\n      swap5\n      swap4\n      pop\n      pop\n      pop\n      pop\n      jump\t// out\n        /* \"Evm/core/base/vaultDelegator.sol\":1166:1218  IVariableVerifier public immutable variable_verifier */\n    tag_45:\n      immutable(\"0x273aa4908e152d529e25a9f5482459ad34b85c65a2a2eb2d4dcc86bed0f67292\")\n      dup2\n      jump\t// out\n        /* \"@openzeppelin/contracts/access/Ownable.sol\":2293:2394  function renounceOwnership() public virtual onlyOwner {... */\n    tag_49:\n        /* \"@openzeppelin/contracts/access/Ownable.sol\":1531:1544  _checkOwner() */\n      tag_165\n        /* \"@openzeppelin/contracts/access/Ownable.sol\":1531:1542  _checkOwner */\n      tag_166\n        /* \"@openzeppelin/contracts/access/Ownable.sol\":1531:1544  _checkOwner() */\n      jump\t// in\n    tag_165:\n        /* \"@openzeppelin/contracts/access/Ownable.sol\":2357:2387  _transferOwnership(address(0)) */\n      tag_168\n        /* \"@openzeppelin/contracts/access/Ownable.sol\":2384:2385  0 */\n      0x00\n        /* \"@openzeppelin/contracts/access/Ownable.sol\":2357:2375  _transferOwnership */\n      tag_169\n        /* \"@openzeppelin/contracts/access/Ownable.sol\":2357:2387  _transferOwnership(address(0)) */\n      jump\t// in\n    tag_168:\n        /* \"@openzeppelin/contracts/access/Ownable.sol\":2293:2394  function renounceOwnership() public virtual onlyOwner {... */\n      jump\t// out\n        /* \"Evm/core/base/vaultDelegator.sol\":3186:4146  function processZkVariable(uint[8] calldata proof, uint[7] calldata input, bytes calldata _signatures) external {... */\n    tag_52:\n        /* \"Evm/core/base/vaultDelegator.sol\":3339:3356  variable_verifier */\n      immutable(\"0x273aa4908e152d529e25a9f5482459ad34b85c65a2a2eb2d4dcc86bed0f67292\")\n        /* \"Evm/core/base/vaultDelegator.sol\":3339:3368  variable_verifier.verifyProof */\n      0xffffffffffffffffffffffffffffffffffffffff\n      and\n      0x1042664e\n        /* \"Evm/core/base/vaultDelegator.sol\":3369:3374  proof */\n      dup6\n        /* \"Evm/core/base/vaultDelegator.sol\":3376:3381  input */\n      dup6\n        /* \"Evm/core/base/vaultDelegator.sol\":3339:3382  variable_verifier.verifyProof(proof, input) */\n      mload(0x40)\n      dup4\n      0xffffffff\n      and\n      0xe0\n      shl\n      dup2\n      mstore\n      0x04\n      add\n      tag_171\n      swap3\n      swap2\n      swap1\n      tag_106\n      jump\t// in\n    tag_171:\n      0x00\n      mload(0x40)\n      dup1\n      dup4\n      sub\n      dup2\n      dup7\n      dup1\n      extcodesize\n      iszero\n      dup1\n      iszero\n      tag_172\n      jumpi\n      revert(0x00, 0x00)\n    tag_172:\n      pop\n      gas\n      staticcall\n      iszero\n      dup1\n      iszero\n      tag_174\n      jumpi\n      returndatacopy(0x00, 0x00, returndatasize)\n      revert(0x00, returndatasize)\n    tag_174:\n      pop\n      pop\n      pop\n      pop\n        /* \"Evm/core/base/vaultDelegator.sol\":3395:3410  uint256 chainID */\n      0x00\n        /* \"Evm/core/base/vaultDelegator.sol\":3413:3418  input */\n      dup4\n        /* \"Evm/core/base/vaultDelegator.sol\":3419:3420  5 */\n      0x05\n        /* \"Evm/core/base/vaultDelegator.sol\":3413:3421  input[5] */\n      0x07\n      dup2\n      lt\n      tag_175\n      jumpi\n      tag_176\n      tag_112\n      jump\t// in\n    tag_176:\n    tag_175:\n      0x20\n      mul\n      add\n      calldataload\n        /* \"Evm/core/base/vaultDelegator.sol\":3395:3421  uint256 chainID = input[5] */\n      swap1\n      pop\n        /* \"Evm/core/base/vaultDelegator.sol\":3451:3464  block.chainid */\n      chainid\n        /* \"Evm/core/base/vaultDelegator.sol\":3440:3447  chainID */\n      dup2\n        /* \"Evm/core/base/vaultDelegator.sol\":3440:3464  chainID == block.chainid */\n      eq\n        /* \"Evm/core/base/vaultDelegator.sol\":3432:3492  require(chainID == block.chainid, \"Wrong destination chain\") */\n      tag_177\n      jumpi\n      mload(0x40)\n      0x08c379a000000000000000000000000000000000000000000000000000000000\n      dup2\n      mstore\n      0x04\n      add\n      tag_178\n      swap1\n      tag_117\n      jump\t// in\n    tag_178:\n      mload(0x40)\n      dup1\n      swap2\n      sub\n      swap1\n      revert\n    tag_177:\n        /* \"Evm/core/base/vaultDelegator.sol\":3552:3578  string memory variableName */\n      0x00\n        /* \"Evm/core/base/vaultDelegator.sol\":3581:3604  fieldToString(input[3]) */\n      tag_179\n        /* \"Evm/core/base/vaultDelegator.sol\":3595:3600  input */\n      dup6\n        /* \"Evm/core/base/vaultDelegator.sol\":3601:3602  3 */\n      0x03\n        /* \"Evm/core/base/vaultDelegator.sol\":3595:3603  input[3] */\n      0x07\n      dup2\n      lt\n      tag_180\n      jumpi\n      tag_181\n      tag_112\n      jump\t// in\n    tag_181:\n    tag_180:\n      0x20\n      mul\n      add\n      calldataload\n        /* \"Evm/core/base/vaultDelegator.sol\":3581:3594  fieldToString */\n      tag_80\n        /* \"Evm/core/base/vaultDelegator.sol\":3581:3604  fieldToString(input[3]) */\n      jump\t// in\n    tag_179:\n        /* \"Evm/core/base/vaultDelegator.sol\":3552:3604  string memory variableName = fieldToString(input[3]) */\n      swap1\n      pop\n        /* \"Evm/core/base/vaultDelegator.sol\":3615:3643  string memory variableHeader */\n      0x00\n        /* \"Evm/core/base/vaultDelegator.sol\":3646:3669  fieldToString(input[2]) */\n      tag_182\n        /* \"Evm/core/base/vaultDelegator.sol\":3660:3665  input */\n      dup7\n        /* \"Evm/core/base/vaultDelegator.sol\":3666:3667  2 */\n      0x02\n        /* \"Evm/core/base/vaultDelegator.sol\":3660:3668  input[2] */\n      0x07\n      dup2\n      lt\n      tag_183\n      jumpi\n      tag_184\n      tag_112\n      jump\t// in\n    tag_184:\n    tag_183:\n      0x20\n      mul\n      add\n      calldataload\n        /* \"Evm/core/base/vaultDelegator.sol\":3646:3659  fieldToString */\n      tag_80\n        /* \"Evm/core/base/vaultDelegator.sol\":3646:3669  fieldToString(input[2]) */\n      jump\t// in\n    tag_182:\n        /* \"Evm/core/base/vaultDelegator.sol\":3615:3669  string memory variableHeader = fieldToString(input[2]) */\n      swap1\n      pop\n        /* \"Evm/core/base/vaultDelegator.sol\":3680:3706  bytes memory variableValue */\n      0x00\n        /* \"Evm/core/base/vaultDelegator.sol\":3709:3731  fieldToBytes(input[4]) */\n      tag_185\n        /* \"Evm/core/base/vaultDelegator.sol\":3722:3727  input */\n      dup8\n        /* \"Evm/core/base/vaultDelegator.sol\":3728:3729  4 */\n      0x04\n        /* \"Evm/core/base/vaultDelegator.sol\":3722:3730  input[4] */\n      0x07\n      dup2\n      lt\n      tag_186\n      jumpi\n      tag_187\n      tag_112\n      jump\t// in\n    tag_187:\n    tag_186:\n      0x20\n      mul\n      add\n      calldataload\n        /* \"Evm/core/base/vaultDelegator.sol\":3709:3721  fieldToBytes */\n      tag_27\n        /* \"Evm/core/base/vaultDelegator.sol\":3709:3731  fieldToBytes(input[4]) */\n      jump\t// in\n    tag_185:\n        /* \"Evm/core/base/vaultDelegator.sol\":3680:3731  bytes memory variableValue = fieldToBytes(input[4]) */\n      swap1\n      pop\n        /* \"Evm/core/base/vaultDelegator.sol\":3792:3809  uint256 nullifier */\n      0x00\n        /* \"Evm/core/base/vaultDelegator.sol\":3812:3839  _calculateNullifier7(input) */\n      tag_188\n        /* \"Evm/core/base/vaultDelegator.sol\":3833:3838  input */\n      dup9\n        /* \"Evm/core/base/vaultDelegator.sol\":3812:3832  _calculateNullifier7 */\n      tag_129\n        /* \"Evm/core/base/vaultDelegator.sol\":3812:3839  _calculateNullifier7(input) */\n      jump\t// in\n    tag_188:\n        /* \"Evm/core/base/vaultDelegator.sol\":3792:3839  uint256 nullifier = _calculateNullifier7(input) */\n      swap1\n      pop\n        /* \"Evm/core/base/vaultDelegator.sol\":3850:3903  _verifyAllSignatures(bytes32(nullifier), _signatures) */\n      tag_189\n        /* \"Evm/core/base/vaultDelegator.sol\":3879:3888  nullifier */\n      dup2\n        /* \"Evm/core/base/vaultDelegator.sol\":3871:3889  bytes32(nullifier) */\n      0x00\n      shl\n        /* \"Evm/core/base/vaultDelegator.sol\":3891:3902  _signatures */\n      dup9\n      dup9\n        /* \"Evm/core/base/vaultDelegator.sol\":3850:3870  _verifyAllSignatures */\n      tag_131\n        /* \"Evm/core/base/vaultDelegator.sol\":3850:3903  _verifyAllSignatures(bytes32(nullifier), _signatures) */\n      jump\t// in\n    tag_189:\n        /* \"Evm/core/base/vaultDelegator.sol\":3923:3937  usedNullifiers */\n      0x01\n        /* \"Evm/core/base/vaultDelegator.sol\":3923:3948  usedNullifiers[nullifier] */\n      0x00\n        /* \"Evm/core/base/vaultDelegator.sol\":3938:3947  nullifier */\n      dup3\n        /* \"Evm/core/base/vaultDelegator.sol\":3923:3948  usedNullifiers[nullifier] */\n      dup2\n      mstore\n      0x20\n      add\n      swap1\n      dup2\n      mstore\n      0x20\n      add\n      0x00\n      keccak256\n      0x00\n      swap1\n      sload\n      swap1\n      0x0100\n      exp\n      swap1\n      div\n      0xff\n      and\n        /* \"Evm/core/base/vaultDelegator.sol\":3922:3948  !usedNullifiers[nullifier] */\n      iszero\n        /* \"Evm/core/base/vaultDelegator.sol\":3914:3975  require(!usedNullifiers[nullifier], \"Replay attack detected\") */\n      tag_190\n      jumpi\n      mload(0x40)\n      0x08c379a000000000000000000000000000000000000000000000000000000000\n      dup2\n      mstore\n      0x04\n      add\n      tag_191\n      swap1\n      tag_134\n      jump\t// in\n    tag_191:\n      mload(0x40)\n      dup1\n      swap2\n      sub\n      swap1\n      revert\n    tag_190:\n        /* \"Evm/core/base/vaultDelegator.sol\":4014:4018  true */\n      0x01\n        /* \"Evm/core/base/vaultDelegator.sol\":3986:4000  usedNullifiers */\n      dup1\n        /* \"Evm/core/base/vaultDelegator.sol\":3986:4011  usedNullifiers[nullifier] */\n      0x00\n        /* \"Evm/core/base/vaultDelegator.sol\":4001:4010  nullifier */\n      dup4\n        /* \"Evm/core/base/vaultDelegator.sol\":3986:4011  usedNullifiers[nullifier] */\n      dup2\n      mstore\n      0x20\n      add\n      swap1\n      dup2\n      mstore\n      0x20\n      add\n      0x00\n      keccak256\n      0x00\n        /* \"Evm/core/base/vaultDelegator.sol\":3986:4018  usedNullifiers[nullifier] = true */\n      0x0100\n      exp\n      dup2\n      sload\n      dup2\n      0xff\n      mul\n      not\n      and\n      swap1\n      dup4\n      iszero\n      iszero\n      mul\n      or\n      swap1\n      sstore\n      pop\n        /* \"Evm/core/base/vaultDelegator.sol\":4057:4074  variablesRegistry */\n      immutable(\"0xe54f8e4a5d17b2e4d97cb94ddb2a2b00b3620f93c06158e24f4515b3f1ad0dd8\")\n        /* \"Evm/core/base/vaultDelegator.sol\":4057:4093  variablesRegistry.addPendingVariable */\n      0xffffffffffffffffffffffffffffffffffffffff\n      and\n      0x2e057b9b\n        /* \"Evm/core/base/vaultDelegator.sol\":4094:4108  variableHeader */\n      dup5\n        /* \"Evm/core/base/vaultDelegator.sol\":4110:4122  variableName */\n      dup7\n        /* \"Evm/core/base/vaultDelegator.sol\":4124:4137  variableValue */\n      dup6\n        /* \"Evm/core/base/vaultDelegator.sol\":4057:4138  variablesRegistry.addPendingVariable(variableHeader, variableName, variableValue) */\n      mload(0x40)\n      dup5\n      0xffffffff\n      and\n      0xe0\n      shl\n      dup2\n      mstore\n      0x04\n      add\n      tag_192\n      swap4\n      swap3\n      swap2\n      swap1\n      tag_193\n      jump\t// in\n    tag_192:\n      0x00\n      mload(0x40)\n      dup1\n      dup4\n      sub\n      dup2\n      0x00\n      dup8\n      dup1\n      extcodesize\n      iszero\n      dup1\n      iszero\n      tag_194\n      jumpi\n      revert(0x00, 0x00)\n    tag_194:\n      pop\n      gas\n      call\n      iszero\n      dup1\n      iszero\n      tag_196\n      jumpi\n      returndatacopy(0x00, 0x00, returndatasize)\n      revert(0x00, returndatasize)\n    tag_196:\n      pop\n      pop\n      pop\n      pop\n        /* \"Evm/core/base/vaultDelegator.sol\":3298:4146  {... */\n      pop\n      pop\n      pop\n      pop\n      pop\n        /* \"Evm/core/base/vaultDelegator.sol\":3186:4146  function processZkVariable(uint[8] calldata proof, uint[7] calldata input, bytes calldata _signatures) external {... */\n      pop\n      pop\n      pop\n      pop\n      jump\t// out\n        /* \"Evm/core/base/vaultDelegator.sol\":12376:12496  function fieldToAddress(uint256 _field) public pure returns (address) {... */\n    tag_55:\n        /* \"Evm/core/base/vaultDelegator.sol\":12437:12444  address */\n      0x00\n        /* \"Evm/core/base/vaultDelegator.sol\":12480:12486  _field */\n      dup2\n        /* \"Evm/core/base/vaultDelegator.sol\":12457:12488  return address(uint160(_field)) */\n      swap1\n      pop\n        /* \"Evm/core/base/vaultDelegator.sol\":12376:12496  function fieldToAddress(uint256 _field) public pure returns (address) {... */\n      swap2\n      swap1\n      pop\n      jump\t// out\n        /* \"@openzeppelin/contracts/access/Ownable.sol\":1638:1723  function owner() public view virtual returns (address) {... */\n    tag_58:\n        /* \"@openzeppelin/contracts/access/Ownable.sol\":1684:1691  address */\n      0x00\n        /* \"@openzeppelin/contracts/access/Ownable.sol\":1710:1716  _owner */\n      0x00\n      0x00\n      swap1\n      sload\n      swap1\n      0x0100\n      exp\n      swap1\n      div\n      0xffffffffffffffffffffffffffffffffffffffff\n      and\n        /* \"@openzeppelin/contracts/access/Ownable.sol\":1703:1716  return _owner */\n      swap1\n      pop\n        /* \"@openzeppelin/contracts/access/Ownable.sol\":1638:1723  function owner() public view virtual returns (address) {... */\n      swap1\n      jump\t// out\n        /* \"Evm/core/base/vaultDelegator.sol\":13389:13967  function recoverSigner(bytes32 _ethSignedMessageHash, bytes memory _signature)public pure returns (address){... */\n    tag_63:\n        /* \"Evm/core/base/vaultDelegator.sol\":13488:13495  address */\n      0x00\n        /* \"Evm/core/base/vaultDelegator.sol\":13536:13538  65 */\n      0x41\n        /* \"Evm/core/base/vaultDelegator.sol\":13515:13525  _signature */\n      dup3\n        /* \"Evm/core/base/vaultDelegator.sol\":13515:13532  _signature.length */\n      mload\n        /* \"Evm/core/base/vaultDelegator.sol\":13515:13538  _signature.length == 65 */\n      eq\n        /* \"Evm/core/base/vaultDelegator.sol\":13507:13567  require(_signature.length == 65, \"Invalid signature length\") */\n      tag_200\n      jumpi\n      mload(0x40)\n      0x08c379a000000000000000000000000000000000000000000000000000000000\n      dup2\n      mstore\n      0x04\n      add\n      tag_201\n      swap1\n      tag_202\n      jump\t// in\n    tag_201:\n      mload(0x40)\n      dup1\n      swap2\n      sub\n      swap1\n      revert\n    tag_200:\n        /* \"Evm/core/base/vaultDelegator.sol\":13580:13589  bytes32 r */\n      0x00\n        /* \"Evm/core/base/vaultDelegator.sol\":13600:13609  bytes32 s */\n      0x00\n        /* \"Evm/core/base/vaultDelegator.sol\":13620:13627  uint8 v */\n      0x00\n        /* \"Evm/core/base/vaultDelegator.sol\":13741:13743  32 */\n      0x20\n        /* \"Evm/core/base/vaultDelegator.sol\":13729:13739  _signature */\n      dup6\n        /* \"Evm/core/base/vaultDelegator.sol\":13725:13744  add(_signature, 32) */\n      add\n        /* \"Evm/core/base/vaultDelegator.sol\":13719:13745  mload(add(_signature, 32)) */\n      mload\n        /* \"Evm/core/base/vaultDelegator.sol\":13714:13745  r := mload(add(_signature, 32)) */\n      swap3\n      pop\n        /* \"Evm/core/base/vaultDelegator.sol\":13786:13788  64 */\n      0x40\n        /* \"Evm/core/base/vaultDelegator.sol\":13774:13784  _signature */\n      dup6\n        /* \"Evm/core/base/vaultDelegator.sol\":13770:13789  add(_signature, 64) */\n      add\n        /* \"Evm/core/base/vaultDelegator.sol\":13764:13790  mload(add(_signature, 64)) */\n      mload\n        /* \"Evm/core/base/vaultDelegator.sol\":13759:13790  s := mload(add(_signature, 64)) */\n      swap2\n      pop\n        /* \"Evm/core/base/vaultDelegator.sol\":13839:13841  96 */\n      0x60\n        /* \"Evm/core/base/vaultDelegator.sol\":13827:13837  _signature */\n      dup6\n        /* \"Evm/core/base/vaultDelegator.sol\":13823:13842  add(_signature, 96) */\n      add\n        /* \"Evm/core/base/vaultDelegator.sol\":13817:13843  mload(add(_signature, 96)) */\n      mload\n        /* \"Evm/core/base/vaultDelegator.sol\":13814:13815  0 */\n      0x00\n        /* \"Evm/core/base/vaultDelegator.sol\":13809:13844  byte(0, mload(add(_signature, 96))) */\n      byte\n        /* \"Evm/core/base/vaultDelegator.sol\":13804:13844  v := byte(0, mload(add(_signature, 96))) */\n      swap1\n      pop\n        /* \"Evm/core/base/vaultDelegator.sol\":13918:13959  ecrecover(_ethSignedMessageHash, v, r, s) */\n      0x01\n        /* \"Evm/core/base/vaultDelegator.sol\":13928:13949  _ethSignedMessageHash */\n      dup7\n        /* \"Evm/core/base/vaultDelegator.sol\":13951:13952  v */\n      dup3\n        /* \"Evm/core/base/vaultDelegator.sol\":13954:13955  r */\n      dup6\n        /* \"Evm/core/base/vaultDelegator.sol\":13957:13958  s */\n      dup6\n        /* \"Evm/core/base/vaultDelegator.sol\":13918:13959  ecrecover(_ethSignedMessageHash, v, r, s) */\n      mload(0x40)\n      0x00\n      dup2\n      mstore\n      0x20\n      add\n      0x40\n      mstore\n      mload(0x40)\n      tag_203\n      swap5\n      swap4\n      swap3\n      swap2\n      swap1\n      tag_204\n      jump\t// in\n    tag_203:\n      0x20\n      mload(0x40)\n      0x20\n      dup2\n      sub\n      swap1\n      dup1\n      dup5\n      sub\n      swap1\n      dup6\n      gas\n      staticcall\n      iszero\n      dup1\n      iszero\n      tag_206\n      jumpi\n      returndatacopy(0x00, 0x00, returndatasize)\n      revert(0x00, returndatasize)\n    tag_206:\n      pop\n      pop\n      pop\n      mload(sub(mload(0x40), 0x20))\n        /* \"Evm/core/base/vaultDelegator.sol\":13911:13959  return ecrecover(_ethSignedMessageHash, v, r, s) */\n      swap4\n      pop\n      pop\n      pop\n      pop\n        /* \"Evm/core/base/vaultDelegator.sol\":13389:13967  function recoverSigner(bytes32 _ethSignedMessageHash, bytes memory _signature)public pure returns (address){... */\n      swap3\n      swap2\n      pop\n      pop\n      jump\t// out\n        /* \"Evm/core/base/vaultDelegator.sol\":1440:1486  mapping(uint256 => bool) public usedNullifiers */\n    tag_67:\n      mstore(0x20, 0x01)\n      dup1\n      0x00\n      mstore\n      keccak256(0x00, 0x40)\n      0x00\n      swap2\n      pop\n      sload\n      swap1\n      0x0100\n      exp\n      swap1\n      div\n      0xff\n      and\n      dup2\n      jump\t// out\n        /* \"Evm/core/base/vaultDelegator.sol\":1338:1385  IValidators public immutable validatorsRegistry */\n    tag_71:\n      immutable(\"0x0d283e5f5b5d2526f34a5a92a1188385f6cf1a43607f82a114e6c2e937222ad5\")\n      dup2\n      jump\t// out\n        /* \"Evm/core/base/vaultDelegator.sol\":1225:1279  IValidatorVerifier public immutable validator_verifier */\n    tag_75:\n      immutable(\"0x9c82694a9cf6c7b68ec93c5541ae0b2631d5f0fa3eec98f4ce497d015951b3ba\")\n      dup2\n      jump\t// out\n        /* \"Evm/core/base/vaultDelegator.sol\":11493:12370  function fieldToString(uint256 _field) public pure returns (string memory) {... */\n    tag_80:\n        /* \"Evm/core/base/vaultDelegator.sol\":11553:11566  string memory */\n      0x60\n        /* \"Evm/core/base/vaultDelegator.sol\":11593:11594  0 */\n      0x00\n        /* \"Evm/core/base/vaultDelegator.sol\":11583:11589  _field */\n      dup3\n        /* \"Evm/core/base/vaultDelegator.sol\":11583:11594  _field == 0 */\n      sub\n        /* \"Evm/core/base/vaultDelegator.sol\":11579:11605  if (_field == 0) return \"\" */\n      tag_208\n      jumpi\n        /* \"Evm/core/base/vaultDelegator.sol\":11596:11605  return \"\" */\n      mload(0x40)\n      dup1\n      0x20\n      add\n      0x40\n      mstore\n      dup1\n      0x00\n      dup2\n      mstore\n      pop\n      swap1\n      pop\n      jump(tag_207)\n        /* \"Evm/core/base/vaultDelegator.sol\":11579:11605  if (_field == 0) return \"\" */\n    tag_208:\n        /* \"Evm/core/base/vaultDelegator.sol\":11681:11692  bytes32 b32 */\n      0x00\n        /* \"Evm/core/base/vaultDelegator.sol\":11703:11709  _field */\n      dup3\n        /* \"Evm/core/base/vaultDelegator.sol\":11695:11710  bytes32(_field) */\n      0x00\n      shl\n        /* \"Evm/core/base/vaultDelegator.sol\":11681:11710  bytes32 b32 = bytes32(_field) */\n      swap1\n      pop\n        /* \"Evm/core/base/vaultDelegator.sol\":11802:11813  uint8 start */\n      0x00\n        /* \"Evm/core/base/vaultDelegator.sol\":11816:11817  0 */\n      0x00\n        /* \"Evm/core/base/vaultDelegator.sol\":11802:11817  uint8 start = 0 */\n      swap1\n      pop\n        /* \"Evm/core/base/vaultDelegator.sol\":11828:11900  while (start < 32 && b32[start] == 0) {... */\n    tag_209:\n        /* \"Evm/core/base/vaultDelegator.sol\":11843:11845  32 */\n      0x20\n        /* \"Evm/core/base/vaultDelegator.sol\":11835:11840  start */\n      dup2\n        /* \"Evm/core/base/vaultDelegator.sol\":11835:11845  start < 32 */\n      0xff\n      and\n      lt\n        /* \"Evm/core/base/vaultDelegator.sol\":11835:11864  start < 32 && b32[start] == 0 */\n      dup1\n      iszero\n      tag_211\n      jumpi\n      pop\n        /* \"Evm/core/base/vaultDelegator.sol\":11863:11864  0 */\n      0x00\n        /* \"Evm/core/base/vaultDelegator.sol\":11849:11864  b32[start] == 0 */\n      0xf8\n      shl\n        /* \"Evm/core/base/vaultDelegator.sol\":11849:11852  b32 */\n      dup3\n        /* \"Evm/core/base/vaultDelegator.sol\":11853:11858  start */\n      dup3\n        /* \"Evm/core/base/vaultDelegator.sol\":11849:11859  b32[start] */\n      0xff\n      and\n      0x20\n      dup2\n      lt\n      tag_212\n      jumpi\n      tag_213\n      tag_112\n      jump\t// in\n    tag_213:\n    tag_212:\n      byte\n      0xf8\n      shl\n        /* \"Evm/core/base/vaultDelegator.sol\":11849:11864  b32[start] == 0 */\n      not(0xffffffffffffffffffffffffffffffffffffffffffffffffffffffffffffff)\n      and\n      eq\n        /* \"Evm/core/base/vaultDelegator.sol\":11835:11864  start < 32 && b32[start] == 0 */\n    tag_211:\n        /* \"Evm/core/base/vaultDelegator.sol\":11828:11900  while (start < 32 && b32[start] == 0) {... */\n      iszero\n      tag_210\n      jumpi\n        /* \"Evm/core/base/vaultDelegator.sol\":11881:11888  start++ */\n      dup1\n      dup1\n      tag_214\n      swap1\n      tag_215\n      jump\t// in\n    tag_214:\n      swap2\n      pop\n      pop\n        /* \"Evm/core/base/vaultDelegator.sol\":11828:11900  while (start < 32 && b32[start] == 0) {... */\n      jump(tag_209)\n    tag_210:\n        /* \"Evm/core/base/vaultDelegator.sol\":12047:12056  uint8 end */\n      0x00\n        /* \"Evm/core/base/vaultDelegator.sol\":12059:12061  31 */\n      0x1f\n        /* \"Evm/core/base/vaultDelegator.sol\":12047:12061  uint8 end = 31 */\n      swap1\n      pop\n        /* \"Evm/core/base/vaultDelegator.sol\":12072:12141  while (end > start && b32[end] == 0) {... */\n    tag_216:\n        /* \"Evm/core/base/vaultDelegator.sol\":12085:12090  start */\n      dup2\n        /* \"Evm/core/base/vaultDelegator.sol\":12079:12090  end > start */\n      0xff\n      and\n        /* \"Evm/core/base/vaultDelegator.sol\":12079:12082  end */\n      dup2\n        /* \"Evm/core/base/vaultDelegator.sol\":12079:12090  end > start */\n      0xff\n      and\n      gt\n        /* \"Evm/core/base/vaultDelegator.sol\":12079:12107  end > start && b32[end] == 0 */\n      dup1\n      iszero\n      tag_218\n      jumpi\n      pop\n        /* \"Evm/core/base/vaultDelegator.sol\":12106:12107  0 */\n      0x00\n        /* \"Evm/core/base/vaultDelegator.sol\":12094:12107  b32[end] == 0 */\n      0xf8\n      shl\n        /* \"Evm/core/base/vaultDelegator.sol\":12094:12097  b32 */\n      dup4\n        /* \"Evm/core/base/vaultDelegator.sol\":12098:12101  end */\n      dup3\n        /* \"Evm/core/base/vaultDelegator.sol\":12094:12102  b32[end] */\n      0xff\n      and\n      0x20\n      dup2\n      lt\n      tag_219\n      jumpi\n      tag_220\n      tag_112\n      jump\t// in\n    tag_220:\n    tag_219:\n      byte\n      0xf8\n      shl\n        /* \"Evm/core/base/vaultDelegator.sol\":12094:12107  b32[end] == 0 */\n      not(0xffffffffffffffffffffffffffffffffffffffffffffffffffffffffffffff)\n      and\n      eq\n        /* \"Evm/core/base/vaultDelegator.sol\":12079:12107  end > start && b32[end] == 0 */\n    tag_218:\n        /* \"Evm/core/base/vaultDelegator.sol\":12072:12141  while (end > start && b32[end] == 0) {... */\n      iszero\n      tag_217\n      jumpi\n        /* \"Evm/core/base/vaultDelegator.sol\":12124:12129  end-- */\n      dup1\n      dup1\n      tag_221\n      swap1\n      tag_222\n      jump\t// in\n    tag_221:\n      swap2\n      pop\n      pop\n        /* \"Evm/core/base/vaultDelegator.sol\":12072:12141  while (end > start && b32[end] == 0) {... */\n      jump(tag_216)\n    tag_217:\n        /* \"Evm/core/base/vaultDelegator.sol\":12153:12162  uint8 len */\n      0x00\n        /* \"Evm/core/base/vaultDelegator.sol\":12181:12182  1 */\n      0x01\n        /* \"Evm/core/base/vaultDelegator.sol\":12172:12177  start */\n      dup4\n        /* \"Evm/core/base/vaultDelegator.sol\":12166:12169  end */\n      dup4\n        /* \"Evm/core/base/vaultDelegator.sol\":12166:12177  end - start */\n      tag_223\n      swap2\n      swap1\n      tag_224\n      jump\t// in\n    tag_223:\n        /* \"Evm/core/base/vaultDelegator.sol\":12165:12182  (end - start) + 1 */\n      tag_225\n      swap2\n      swap1\n      tag_226\n      jump\t// in\n    tag_225:\n        /* \"Evm/core/base/vaultDelegator.sol\":12153:12182  uint8 len = (end - start) + 1 */\n      swap1\n      pop\n        /* \"Evm/core/base/vaultDelegator.sol\":12193:12212  bytes memory result */\n      0x00\n        /* \"Evm/core/base/vaultDelegator.sol\":12225:12228  len */\n      dup2\n        /* \"Evm/core/base/vaultDelegator.sol\":12215:12229  new bytes(len) */\n      0xff\n      and\n      0xffffffffffffffff\n      dup2\n      gt\n      iszero\n      tag_227\n      jumpi\n      tag_228\n      tag_229\n      jump\t// in\n    tag_228:\n    tag_227:\n      mload(0x40)\n      swap1\n      dup1\n      dup3\n      mstore\n      dup1\n      0x1f\n      add\n      not(0x1f)\n      and\n      0x20\n      add\n      dup3\n      add\n      0x40\n      mstore\n      dup1\n      iszero\n      tag_230\n      jumpi\n      dup2\n      0x20\n      add\n      0x01\n      dup3\n      mul\n      dup1\n      calldatasize\n      dup4\n      calldatacopy\n      dup1\n      dup3\n      add\n      swap2\n      pop\n      pop\n      swap1\n      pop\n    tag_230:\n      pop\n        /* \"Evm/core/base/vaultDelegator.sol\":12193:12229  bytes memory result = new bytes(len) */\n      swap1\n      pop\n        /* \"Evm/core/base/vaultDelegator.sol\":12247:12256  uint256 i */\n      0x00\n        /* \"Evm/core/base/vaultDelegator.sol\":12259:12260  0 */\n      0x00\n        /* \"Evm/core/base/vaultDelegator.sol\":12247:12260  uint256 i = 0 */\n      swap1\n      pop\n        /* \"Evm/core/base/vaultDelegator.sol\":12242:12329  for (uint256 i = 0; i < len; i++) {... */\n    tag_231:\n        /* \"Evm/core/base/vaultDelegator.sol\":12266:12269  len */\n      dup3\n        /* \"Evm/core/base/vaultDelegator.sol\":12262:12269  i < len */\n      0xff\n      and\n        /* \"Evm/core/base/vaultDelegator.sol\":12262:12263  i */\n      dup2\n        /* \"Evm/core/base/vaultDelegator.sol\":12262:12269  i < len */\n      lt\n        /* \"Evm/core/base/vaultDelegator.sol\":12242:12329  for (uint256 i = 0; i < len; i++) {... */\n      iszero\n      tag_232\n      jumpi\n        /* \"Evm/core/base/vaultDelegator.sol\":12303:12306  b32 */\n      dup6\n        /* \"Evm/core/base/vaultDelegator.sol\":12315:12316  i */\n      dup2\n        /* \"Evm/core/base/vaultDelegator.sol\":12307:12312  start */\n      dup7\n        /* \"Evm/core/base/vaultDelegator.sol\":12307:12316  start + i */\n      0xff\n      and\n      tag_234\n      swap2\n      swap1\n      tag_235\n      jump\t// in\n    tag_234:\n        /* \"Evm/core/base/vaultDelegator.sol\":12303:12317  b32[start + i] */\n      0x20\n      dup2\n      lt\n      tag_236\n      jumpi\n      tag_237\n      tag_112\n      jump\t// in\n    tag_237:\n    tag_236:\n      byte\n      0xf8\n      shl\n        /* \"Evm/core/base/vaultDelegator.sol\":12291:12297  result */\n      dup3\n        /* \"Evm/core/base/vaultDelegator.sol\":12298:12299  i */\n      dup3\n        /* \"Evm/core/base/vaultDelegator.sol\":12291:12300  result[i] */\n      dup2\n      mload\n      dup2\n      lt\n      tag_238\n      jumpi\n      tag_239\n      tag_112\n      jump\t// in\n    tag_239:\n    tag_238:\n      0x20\n      add\n      add\n        /* \"Evm/core/base/vaultDelegator.sol\":12291:12317  result[i] = b32[start + i] */\n      swap1\n      not(0xffffffffffffffffffffffffffffffffffffffffffffffffffffffffffffff)\n      and\n      swap1\n      dup2\n      0x00\n      byte\n      swap1\n      mstore8\n      pop\n        /* \"Evm/core/base/vaultDelegator.sol\":12271:12274  i++ */\n      dup1\n      dup1\n      0x01\n      add\n      swap2\n      pop\n      pop\n        /* \"Evm/core/base/vaultDelegator.sol\":12242:12329  for (uint256 i = 0; i < len; i++) {... */\n      jump(tag_231)\n    tag_232:\n      pop\n        /* \"Evm/core/base/vaultDelegator.sol\":12355:12361  result */\n      dup1\n        /* \"Evm/core/base/vaultDelegator.sol\":12341:12362  return string(result) */\n      swap6\n      pop\n      pop\n      pop\n      pop\n      pop\n      pop\n        /* \"Evm/core/base/vaultDelegator.sol\":11493:12370  function fieldToString(uint256 _field) public pure returns (string memory) {... */\n    tag_207:\n      swap2\n      swap1\n      pop\n      jump\t// out\n        /* \"Evm/core/base/vaultDelegator.sol\":1286:1331  IVariables public immutable variablesRegistry */\n    tag_84:\n      immutable(\"0xe54f8e4a5d17b2e4d97cb94ddb2a2b00b3620f93c06158e24f4515b3f1ad0dd8\")\n      dup2\n      jump\t// out\n        /* \"@openzeppelin/contracts/access/Ownable.sol\":2543:2758  function transferOwnership(address newOwner) public virtual onlyOwner {... */\n    tag_90:\n        /* \"@openzeppelin/contracts/access/Ownable.sol\":1531:1544  _checkOwner() */\n      tag_241\n        /* \"@openzeppelin/contracts/access/Ownable.sol\":1531:1542  _checkOwner */\n      tag_166\n        /* \"@openzeppelin/contracts/access/Ownable.sol\":1531:1544  _checkOwner() */\n      jump\t// in\n    tag_241:\n        /* \"@openzeppelin/contracts/access/Ownable.sol\":2647:2648  0 */\n      0x00\n        /* \"@openzeppelin/contracts/access/Ownable.sol\":2627:2649  newOwner == address(0) */\n      0xffffffffffffffffffffffffffffffffffffffff\n      and\n        /* \"@openzeppelin/contracts/access/Ownable.sol\":2627:2635  newOwner */\n      dup2\n        /* \"@openzeppelin/contracts/access/Ownable.sol\":2627:2649  newOwner == address(0) */\n      0xffffffffffffffffffffffffffffffffffffffff\n      and\n      sub\n        /* \"@openzeppelin/contracts/access/Ownable.sol\":2623:2714  if (newOwner == address(0)) {... */\n      tag_243\n      jumpi\n        /* \"@openzeppelin/contracts/access/Ownable.sol\":2700:2701  0 */\n      0x00\n        /* \"@openzeppelin/contracts/access/Ownable.sol\":2672:2703  OwnableInvalidOwner(address(0)) */\n      mload(0x40)\n      0x1e4fbdf700000000000000000000000000000000000000000000000000000000\n      dup2\n      mstore\n      0x04\n      add\n      tag_244\n      swap2\n      swap1\n      tag_43\n      jump\t// in\n    tag_244:\n      mload(0x40)\n      dup1\n      swap2\n      sub\n      swap1\n      revert\n        /* \"@openzeppelin/contracts/access/Ownable.sol\":2623:2714  if (newOwner == address(0)) {... */\n    tag_243:\n        /* \"@openzeppelin/contracts/access/Ownable.sol\":2723:2751  _transferOwnership(newOwner) */\n      tag_245\n        /* \"@openzeppelin/contracts/access/Ownable.sol\":2742:2750  newOwner */\n      dup2\n        /* \"@openzeppelin/contracts/access/Ownable.sol\":2723:2741  _transferOwnership */\n      tag_169\n        /* \"@openzeppelin/contracts/access/Ownable.sol\":2723:2751  _transferOwnership(newOwner) */\n      jump\t// in\n    tag_245:\n        /* \"@openzeppelin/contracts/access/Ownable.sol\":2543:2758  function transferOwnership(address newOwner) public virtual onlyOwner {... */\n      pop\n      jump\t// out\n        /* \"Evm/core/base/vaultDelegator.sol\":1109:1159  IBalanceVerifier public immutable balance_verifier */\n    tag_92:\n      immutable(\"0x0c547abaeb802d560e2d858972ba2ab023d02ad4d4b45f6e7fe8ba1d5749bc58\")\n      dup2\n      jump\t// out\n        /* \"Evm/core/base/vaultDelegator.sol\":13195:13383  function getEthSignedMessageHash(bytes32 _messageHash) public pure returns (bytes32) {... */\n    tag_98:\n        /* \"Evm/core/base/vaultDelegator.sol\":13271:13278  bytes32 */\n      0x00\n        /* \"Evm/core/base/vaultDelegator.sol\":13361:13373  _messageHash */\n      dup2\n        /* \"Evm/core/base/vaultDelegator.sol\":13308:13374  abi.encodePacked(\"\\x19Ethereum Signed Message:\\n32\", _messageHash) */\n      add(0x20, mload(0x40))\n      tag_247\n      swap2\n      swap1\n      tag_248\n      jump\t// in\n    tag_247:\n      mload(0x40)\n      0x20\n      dup2\n      dup4\n      sub\n      sub\n      dup2\n      mstore\n      swap1\n      0x40\n      mstore\n        /* \"Evm/core/base/vaultDelegator.sol\":13298:13375  keccak256(abi.encodePacked(\"\\x19Ethereum Signed Message:\\n32\", _messageHash)) */\n      dup1\n      mload\n      swap1\n      0x20\n      add\n      keccak256\n        /* \"Evm/core/base/vaultDelegator.sol\":13291:13375  return keccak256(abi.encodePacked(\"\\x19Ethereum Signed Message:\\n32\", _messageHash)) */\n      swap1\n      pop\n        /* \"Evm/core/base/vaultDelegator.sol\":13195:13383  function getEthSignedMessageHash(bytes32 _messageHash) public pure returns (bytes32) {... */\n      swap2\n      swap1\n      pop\n      jump\t// out\n        /* \"Evm/core/base/vaultDelegator.sol\":8508:9069  function _calculateNullifier7(uint256[7] calldata input) internal pure returns (uint256) {... */\n    tag_129:\n        /* \"Evm/core/base/vaultDelegator.sol\":8588:8595  uint256 */\n      0x00\n        /* \"Evm/core/base/vaultDelegator.sol\":8781:8793  bytes32 hash */\n      0x00\n        /* \"Evm/core/base/vaultDelegator.sol\":8837:8842  input */\n      dup3\n        /* \"Evm/core/base/vaultDelegator.sol\":8843:8844  0 */\n      0x00\n        /* \"Evm/core/base/vaultDelegator.sol\":8837:8845  input[0] */\n      0x07\n      dup2\n      lt\n      tag_250\n      jumpi\n      tag_251\n      tag_112\n      jump\t// in\n    tag_251:\n    tag_250:\n      0x20\n      mul\n      add\n      calldataload\n        /* \"Evm/core/base/vaultDelegator.sol\":8860:8865  input */\n      dup4\n        /* \"Evm/core/base/vaultDelegator.sol\":8866:8867  1 */\n      0x01\n        /* \"Evm/core/base/vaultDelegator.sol\":8860:8868  input[1] */\n      0x07\n      dup2\n      lt\n      tag_252\n      jumpi\n      tag_253\n      tag_112\n      jump\t// in\n    tag_253:\n    tag_252:\n      0x20\n      mul\n      add\n      calldataload\n        /* \"Evm/core/base/vaultDelegator.sol\":8883:8888  input */\n      dup5\n        /* \"Evm/core/base/vaultDelegator.sol\":8889:8890  2 */\n      0x02\n        /* \"Evm/core/base/vaultDelegator.sol\":8883:8891  input[2] */\n      0x07\n      dup2\n      lt\n      tag_254\n      jumpi\n      tag_255\n      tag_112\n      jump\t// in\n    tag_255:\n    tag_254:\n      0x20\n      mul\n      add\n      calldataload\n        /* \"Evm/core/base/vaultDelegator.sol\":8906:8911  input */\n      dup6\n        /* \"Evm/core/base/vaultDelegator.sol\":8912:8913  3 */\n      0x03\n        /* \"Evm/core/base/vaultDelegator.sol\":8906:8914  input[3] */\n      0x07\n      dup2\n      lt\n      tag_256\n      jumpi\n      tag_257\n      tag_112\n      jump\t// in\n    tag_257:\n    tag_256:\n      0x20\n      mul\n      add\n      calldataload\n        /* \"Evm/core/base/vaultDelegator.sol\":8929:8934  input */\n      dup7\n        /* \"Evm/core/base/vaultDelegator.sol\":8935:8936  4 */\n      0x04\n        /* \"Evm/core/base/vaultDelegator.sol\":8929:8937  input[4] */\n      0x07\n      dup2\n      lt\n      tag_258\n      jumpi\n      tag_259\n      tag_112\n      jump\t// in\n    tag_259:\n    tag_258:\n      0x20\n      mul\n      add\n      calldataload\n        /* \"Evm/core/base/vaultDelegator.sol\":8952:8957  input */\n      dup8\n        /* \"Evm/core/base/vaultDelegator.sol\":8958:8959  5 */\n      0x05\n        /* \"Evm/core/base/vaultDelegator.sol\":8952:8960  input[5] */\n      0x07\n      dup2\n      lt\n      tag_260\n      jumpi\n      tag_261\n      tag_112\n      jump\t// in\n    tag_261:\n    tag_260:\n      0x20\n      mul\n      add\n      calldataload\n        /* \"Evm/core/base/vaultDelegator.sol\":8975:8980  input */\n      dup9\n        /* \"Evm/core/base/vaultDelegator.sol\":8981:8982  6 */\n      0x06\n        /* \"Evm/core/base/vaultDelegator.sol\":8975:8983  input[6] */\n      0x07\n      dup2\n      lt\n      tag_262\n      jumpi\n      tag_263\n      tag_112\n      jump\t// in\n    tag_263:\n    tag_262:\n      0x20\n      mul\n      add\n      calldataload\n        /* \"Evm/core/base/vaultDelegator.sol\":8806:9027  abi.encodePacked(... */\n      add(0x20, mload(0x40))\n      tag_264\n      swap8\n      swap7\n      swap6\n      swap5\n      swap4\n      swap3\n      swap2\n      swap1\n      tag_265\n      jump\t// in\n    tag_264:\n      mload(0x40)\n      0x20\n      dup2\n      dup4\n      sub\n      sub\n      dup2\n      mstore\n      swap1\n      0x40\n      mstore\n        /* \"Evm/core/base/vaultDelegator.sol\":8796:9028  keccak256(abi.encodePacked(... */\n      dup1\n      mload\n      swap1\n      0x20\n      add\n      keccak256\n        /* \"Evm/core/base/vaultDelegator.sol\":8781:9028  bytes32 hash = keccak256(abi.encodePacked(... */\n      swap1\n      pop\n        /* \"Evm/core/base/vaultDelegator.sol\":9056:9060  hash */\n      dup1\n        /* \"Evm/core/base/vaultDelegator.sol\":9048:9061  uint256(hash) */\n      0x00\n      shr\n        /* \"Evm/core/base/vaultDelegator.sol\":9041:9061  return uint256(hash) */\n      swap2\n      pop\n      pop\n        /* \"Evm/core/base/vaultDelegator.sol\":8508:9069  function _calculateNullifier7(uint256[7] calldata input) internal pure returns (uint256) {... */\n      swap2\n      swap1\n      pop\n      jump\t// out\n        /* \"Evm/core/base/vaultDelegator.sol\":10403:11485  function _verifyAllSignatures(bytes32 _messageHash, bytes calldata _signatures) internal view {... */\n    tag_131:\n        /* \"Evm/core/base/vaultDelegator.sol\":10508:10523  bytes32 ethHash */\n      0x00\n        /* \"Evm/core/base/vaultDelegator.sol\":10526:10563  getEthSignedMessageHash(_messageHash) */\n      tag_267\n        /* \"Evm/core/base/vaultDelegator.sol\":10550:10562  _messageHash */\n      dup5\n        /* \"Evm/core/base/vaultDelegator.sol\":10526:10549  getEthSignedMessageHash */\n      tag_98\n        /* \"Evm/core/base/vaultDelegator.sol\":10526:10563  getEthSignedMessageHash(_messageHash) */\n      jump\t// in\n    tag_267:\n        /* \"Evm/core/base/vaultDelegator.sol\":10508:10563  bytes32 ethHash = getEthSignedMessageHash(_messageHash) */\n      swap1\n      pop\n        /* \"Evm/core/base/vaultDelegator.sol\":10638:10672  address[] memory active_validators */\n      0x00\n        /* \"Evm/core/base/vaultDelegator.sol\":10675:10693  validatorsRegistry */\n      immutable(\"0x0d283e5f5b5d2526f34a5a92a1188385f6cf1a43607f82a114e6c2e937222ad5\")\n        /* \"Evm/core/base/vaultDelegator.sol\":10675:10712  validatorsRegistry.getActiveAddresses */\n      0xffffffffffffffffffffffffffffffffffffffff\n      and\n      0x1442e4c9\n        /* \"Evm/core/base/vaultDelegator.sol\":10675:10714  validatorsRegistry.getActiveAddresses() */\n      mload(0x40)\n      dup2\n      0xffffffff\n      and\n      0xe0\n      shl\n      dup2\n      mstore\n      0x04\n      add\n      0x00\n      mload(0x40)\n      dup1\n      dup4\n      sub\n      dup2\n      dup7\n      gas\n      staticcall\n      iszero\n      dup1\n      iszero\n      tag_269\n      jumpi\n      returndatacopy(0x00, 0x00, returndatasize)\n      revert(0x00, returndatasize)\n    tag_269:\n      pop\n      pop\n      pop\n      pop\n      mload(0x40)\n      returndatasize\n      0x00\n      dup3\n      returndatacopy\n      returndatasize\n      not(0x1f)\n      0x1f\n      dup3\n      add\n      and\n      dup3\n      add\n      dup1\n      0x40\n      mstore\n      pop\n      dup2\n      add\n      swap1\n      tag_270\n      swap2\n      swap1\n      tag_271\n      jump\t// in\n    tag_270:\n        /* \"Evm/core/base/vaultDelegator.sol\":10638:10714  address[] memory active_validators = validatorsRegistry.getActiveAddresses() */\n      swap1\n      pop\n        /* \"Evm/core/base/vaultDelegator.sol\":10730:10739  uint256 i */\n      0x00\n        /* \"Evm/core/base/vaultDelegator.sol\":10742:10743  0 */\n      0x00\n        /* \"Evm/core/base/vaultDelegator.sol\":10730:10743  uint256 i = 0 */\n      swap1\n      pop\n        /* \"Evm/core/base/vaultDelegator.sol\":10725:11478  for (uint256 i = 0; i < _signatures.length; i++) {... */\n    tag_272:\n        /* \"Evm/core/base/vaultDelegator.sol\":10749:10760  _signatures */\n      dup5\n      dup5\n        /* \"Evm/core/base/vaultDelegator.sol\":10749:10767  _signatures.length */\n      swap1\n      pop\n        /* \"Evm/core/base/vaultDelegator.sol\":10745:10746  i */\n      dup2\n        /* \"Evm/core/base/vaultDelegator.sol\":10745:10767  i < _signatures.length */\n      lt\n        /* \"Evm/core/base/vaultDelegator.sol\":10725:11478  for (uint256 i = 0; i < _signatures.length; i++) {... */\n      iszero\n      tag_273\n      jumpi\n        /* \"Evm/core/base/vaultDelegator.sol\":10789:10813  bytes calldata signature */\n      calldatasize\n      0x00\n        /* \"Evm/core/base/vaultDelegator.sol\":10816:10827  _signatures */\n      dup7\n      dup7\n        /* \"Evm/core/base/vaultDelegator.sol\":10832:10834  65 */\n      0x41\n        /* \"Evm/core/base/vaultDelegator.sol\":10828:10829  i */\n      dup6\n        /* \"Evm/core/base/vaultDelegator.sol\":10828:10834  i * 65 */\n      tag_275\n      swap2\n      swap1\n      tag_276\n      jump\t// in\n    tag_275:\n        /* \"Evm/core/base/vaultDelegator.sol\":10816:10850  _signatures[i * 65 : (i + 1) * 65] */\n      swap1\n        /* \"Evm/core/base/vaultDelegator.sol\":10847:10849  65 */\n      0x41\n        /* \"Evm/core/base/vaultDelegator.sol\":10842:10843  1 */\n      0x01\n        /* \"Evm/core/base/vaultDelegator.sol\":10838:10839  i */\n      dup8\n        /* \"Evm/core/base/vaultDelegator.sol\":10838:10843  i + 1 */\n      tag_277\n      swap2\n      swap1\n      tag_235\n      jump\t// in\n    tag_277:\n        /* \"Evm/core/base/vaultDelegator.sol\":10837:10849  (i + 1) * 65 */\n      tag_278\n      swap2\n      swap1\n      tag_276\n      jump\t// in\n    tag_278:\n        /* \"Evm/core/base/vaultDelegator.sol\":10816:10850  _signatures[i * 65 : (i + 1) * 65] */\n      swap3\n      tag_279\n      swap4\n      swap3\n      swap2\n      swap1\n      tag_280\n      jump\t// in\n    tag_279:\n        /* \"Evm/core/base/vaultDelegator.sol\":10789:10850  bytes calldata signature = _signatures[i * 65 : (i + 1) * 65] */\n      swap2\n      pop\n      swap2\n      pop\n        /* \"Evm/core/base/vaultDelegator.sol\":10904:10918  address signer */\n      0x00\n        /* \"Evm/core/base/vaultDelegator.sol\":10921:10954  recoverSigner(ethHash, signature) */\n      tag_281\n        /* \"Evm/core/base/vaultDelegator.sol\":10935:10942  ethHash */\n      dup7\n        /* \"Evm/core/base/vaultDelegator.sol\":10944:10953  signature */\n      dup5\n      dup5\n        /* \"Evm/core/base/vaultDelegator.sol\":10921:10954  recoverSigner(ethHash, signature) */\n      dup1\n      dup1\n      0x1f\n      add\n      0x20\n      dup1\n      swap2\n      div\n      mul\n      0x20\n      add\n      mload(0x40)\n      swap1\n      dup2\n      add\n      0x40\n      mstore\n      dup1\n      swap4\n      swap3\n      swap2\n      swap1\n      dup2\n      dup2\n      mstore\n      0x20\n      add\n      dup4\n      dup4\n      dup1\n      dup3\n      dup5\n      calldatacopy\n      0x00\n      dup2\n      dup5\n      add\n      mstore\n      not(0x1f)\n      0x1f\n      dup3\n      add\n      and\n      swap1\n      pop\n      dup1\n      dup4\n      add\n      swap3\n      pop\n      pop\n      pop\n      pop\n      pop\n      pop\n      pop\n        /* \"Evm/core/base/vaultDelegator.sol\":10921:10934  recoverSigner */\n      tag_63\n        /* \"Evm/core/base/vaultDelegator.sol\":10921:10954  recoverSigner(ethHash, signature) */\n      jump\t// in\n    tag_281:\n        /* \"Evm/core/base/vaultDelegator.sol\":10904:10954  address signer = recoverSigner(ethHash, signature) */\n      swap1\n      pop\n        /* \"Evm/core/base/vaultDelegator.sol\":10995:10996  0 */\n      0x00\n        /* \"Evm/core/base/vaultDelegator.sol\":10977:10997  signer != address(0) */\n      0xffffffffffffffffffffffffffffffffffffffff\n      and\n        /* \"Evm/core/base/vaultDelegator.sol\":10977:10983  signer */\n      dup2\n        /* \"Evm/core/base/vaultDelegator.sol\":10977:10997  signer != address(0) */\n      0xffffffffffffffffffffffffffffffffffffffff\n      and\n      sub\n        /* \"Evm/core/base/vaultDelegator.sol\":10969:11019  require(signer != address(0), \"Invalid signature\") */\n      tag_282\n      jumpi\n      mload(0x40)\n      0x08c379a000000000000000000000000000000000000000000000000000000000\n      dup2\n      mstore\n      0x04\n      add\n      tag_283\n      swap1\n      tag_284\n      jump\t// in\n    tag_283:\n      mload(0x40)\n      dup1\n      swap2\n      sub\n      swap1\n      revert\n    tag_282:\n        /* \"Evm/core/base/vaultDelegator.sol\":11105:11122  bool isAuthorized */\n      0x00\n        /* \"Evm/core/base/vaultDelegator.sol\":11125:11130  false */\n      0x00\n        /* \"Evm/core/base/vaultDelegator.sol\":11105:11130  bool isAuthorized = false */\n      swap1\n      pop\n        /* \"Evm/core/base/vaultDelegator.sol\":11150:11159  uint256 j */\n      0x00\n        /* \"Evm/core/base/vaultDelegator.sol\":11162:11163  0 */\n      0x00\n        /* \"Evm/core/base/vaultDelegator.sol\":11150:11163  uint256 j = 0 */\n      swap1\n      pop\n        /* \"Evm/core/base/vaultDelegator.sol\":11145:11360  for (uint256 j = 0; j < active_validators.length; j++) {... */\n    tag_285:\n        /* \"Evm/core/base/vaultDelegator.sol\":11169:11186  active_validators */\n      dup7\n        /* \"Evm/core/base/vaultDelegator.sol\":11169:11193  active_validators.length */\n      mload\n        /* \"Evm/core/base/vaultDelegator.sol\":11165:11166  j */\n      dup2\n        /* \"Evm/core/base/vaultDelegator.sol\":11165:11193  j < active_validators.length */\n      lt\n        /* \"Evm/core/base/vaultDelegator.sol\":11145:11360  for (uint256 j = 0; j < active_validators.length; j++) {... */\n      iszero\n      tag_286\n      jumpi\n        /* \"Evm/core/base/vaultDelegator.sol\":11247:11253  signer */\n      dup3\n        /* \"Evm/core/base/vaultDelegator.sol\":11223:11253  active_validators[j] == signer */\n      0xffffffffffffffffffffffffffffffffffffffff\n      and\n        /* \"Evm/core/base/vaultDelegator.sol\":11223:11240  active_validators */\n      dup8\n        /* \"Evm/core/base/vaultDelegator.sol\":11241:11242  j */\n      dup3\n        /* \"Evm/core/base/vaultDelegator.sol\":11223:11243  active_validators[j] */\n      dup2\n      mload\n      dup2\n      lt\n      tag_288\n      jumpi\n      tag_289\n      tag_112\n      jump\t// in\n    tag_289:\n    tag_288:\n      0x20\n      mul\n      0x20\n      add\n      add\n      mload\n        /* \"Evm/core/base/vaultDelegator.sol\":11223:11253  active_validators[j] == signer */\n      0xffffffffffffffffffffffffffffffffffffffff\n      and\n      sub\n        /* \"Evm/core/base/vaultDelegator.sol\":11219:11345  if (active_validators[j] == signer) {... */\n      tag_290\n      jumpi\n        /* \"Evm/core/base/vaultDelegator.sol\":11293:11297  true */\n      0x01\n        /* \"Evm/core/base/vaultDelegator.sol\":11278:11297  isAuthorized = true */\n      swap2\n      pop\n        /* \"Evm/core/base/vaultDelegator.sol\":11320:11325  break */\n      jump(tag_286)\n        /* \"Evm/core/base/vaultDelegator.sol\":11219:11345  if (active_validators[j] == signer) {... */\n    tag_290:\n        /* \"Evm/core/base/vaultDelegator.sol\":11195:11198  j++ */\n      dup1\n      dup1\n      0x01\n      add\n      swap2\n      pop\n      pop\n        /* \"Evm/core/base/vaultDelegator.sol\":11145:11360  for (uint256 j = 0; j < active_validators.length; j++) {... */\n      jump(tag_285)\n    tag_286:\n      pop\n        /* \"Evm/core/base/vaultDelegator.sol\":11382:11394  isAuthorized */\n      dup1\n        /* \"Evm/core/base/vaultDelegator.sol\":11374:11429  require(isAuthorized, \"Signer not an active validator\") */\n      tag_291\n      jumpi\n      mload(0x40)\n      0x08c379a000000000000000000000000000000000000000000000000000000000\n      dup2\n      mstore\n      0x04\n      add\n      tag_292\n      swap1\n      tag_293\n      jump\t// in\n    tag_292:\n      mload(0x40)\n      dup1\n      swap2\n      sub\n      swap1\n      revert\n    tag_291:\n        /* \"Evm/core/base/vaultDelegator.sol\":10774:11478  {... */\n      pop\n      pop\n      pop\n      pop\n        /* \"Evm/core/base/vaultDelegator.sol\":10769:10772  i++ */\n      dup1\n      dup1\n      0x01\n      add\n      swap2\n      pop\n      pop\n        /* \"Evm/core/base/vaultDelegator.sol\":10725:11478  for (uint256 i = 0; i < _signatures.length; i++) {... */\n      jump(tag_272)\n    tag_273:\n      pop\n        /* \"Evm/core/base/vaultDelegator.sol\":10497:11485  {... */\n      pop\n      pop\n        /* \"Evm/core/base/vaultDelegator.sol\":10403:11485  function _verifyAllSignatures(bytes32 _messageHash, bytes calldata _signatures) internal view {... */\n      pop\n      pop\n      pop\n      jump\t// out\n        /* \"Evm/core/base/vaultDelegator.sol\":9081:10395  function _prepareWithdrawal(uint[6] calldata input) internal view returns (uint256 amount, address vaultAddr, string memory storageName) {... */\n    tag_147:\n        /* \"Evm/core/base/vaultDelegator.sol\":9156:9170  uint256 amount */\n      0x00\n        /* \"Evm/core/base/vaultDelegator.sol\":9172:9189  address vaultAddr */\n      0x00\n        /* \"Evm/core/base/vaultDelegator.sol\":9191:9216  string memory storageName */\n      0x60\n        /* \"Evm/core/base/vaultDelegator.sol\":9275:9289  uint256 packed */\n      0x00\n        /* \"Evm/core/base/vaultDelegator.sol\":9292:9297  input */\n      dup5\n        /* \"Evm/core/base/vaultDelegator.sol\":9298:9299  5 */\n      0x05\n        /* \"Evm/core/base/vaultDelegator.sol\":9292:9300  input[5] */\n      0x06\n      dup2\n      lt\n      tag_295\n      jumpi\n      tag_296\n      tag_112\n      jump\t// in\n    tag_296:\n    tag_295:\n      0x20\n      mul\n      add\n      calldataload\n        /* \"Evm/core/base/vaultDelegator.sol\":9275:9300  uint256 packed = input[5] */\n      swap1\n      pop\n        /* \"Evm/core/base/vaultDelegator.sol\":9375:9381  packed */\n      dup1\n        /* \"Evm/core/base/vaultDelegator.sol\":9360:9383  uint256(uint64(packed)) */\n      0xffffffffffffffff\n      and\n        /* \"Evm/core/base/vaultDelegator.sol\":9351:9383  amount = uint256(uint64(packed)) */\n      swap4\n      pop\n        /* \"Evm/core/base/vaultDelegator.sol\":9437:9452  uint256 chainID */\n      0x00\n        /* \"Evm/core/base/vaultDelegator.sol\":9480:9482  64 */\n      0x40\n        /* \"Evm/core/base/vaultDelegator.sol\":9470:9476  packed */\n      dup3\n        /* \"Evm/core/base/vaultDelegator.sol\":9470:9482  packed >> 64 */\n      swap1\n      shr\n        /* \"Evm/core/base/vaultDelegator.sol\":9455:9484  uint256(uint32(packed >> 64)) */\n      0xffffffff\n      and\n        /* \"Evm/core/base/vaultDelegator.sol\":9437:9484  uint256 chainID = uint256(uint32(packed >> 64)) */\n      swap1\n      pop\n        /* \"Evm/core/base/vaultDelegator.sol\":9514:9527  block.chainid */\n      chainid\n        /* \"Evm/core/base/vaultDelegator.sol\":9503:9510  chainID */\n      dup2\n        /* \"Evm/core/base/vaultDelegator.sol\":9503:9527  chainID == block.chainid */\n      eq\n        /* \"Evm/core/base/vaultDelegator.sol\":9495:9555  require(chainID == block.chainid, \"Wrong destination chain\") */\n      tag_297\n      jumpi\n      mload(0x40)\n      0x08c379a000000000000000000000000000000000000000000000000000000000\n      dup2\n      mstore\n      0x04\n      add\n      tag_298\n      swap1\n      tag_117\n      jump\t// in\n    tag_298:\n      mload(0x40)\n      dup1\n      swap2\n      sub\n      swap1\n      revert\n    tag_297:\n        /* \"Evm/core/base/vaultDelegator.sol\":9663:9680  uint256 storageID */\n      0x00\n        /* \"Evm/core/base/vaultDelegator.sol\":9693:9696  128 */\n      0x80\n        /* \"Evm/core/base/vaultDelegator.sol\":9683:9689  packed */\n      dup4\n        /* \"Evm/core/base/vaultDelegator.sol\":9683:9696  packed >> 128 */\n      swap1\n      shr\n        /* \"Evm/core/base/vaultDelegator.sol\":9663:9696  uint256 storageID = packed >> 128 */\n      swap1\n      pop\n        /* \"Evm/core/base/vaultDelegator.sol\":9721:9745  fieldToString(storageID) */\n      tag_299\n        /* \"Evm/core/base/vaultDelegator.sol\":9735:9744  storageID */\n      dup2\n        /* \"Evm/core/base/vaultDelegator.sol\":9721:9734  fieldToString */\n      tag_80\n        /* \"Evm/core/base/vaultDelegator.sol\":9721:9745  fieldToString(storageID) */\n      jump\t// in\n    tag_299:\n        /* \"Evm/core/base/vaultDelegator.sol\":9707:9745  storageName = fieldToString(storageID) */\n      swap4\n      pop\n        /* \"Evm/core/base/vaultDelegator.sol\":9804:9830  string memory providerName */\n      0x00\n        /* \"Evm/core/base/vaultDelegator.sol\":9833:9856  fieldToString(input[4]) */\n      tag_300\n        /* \"Evm/core/base/vaultDelegator.sol\":9847:9852  input */\n      dup9\n        /* \"Evm/core/base/vaultDelegator.sol\":9853:9854  4 */\n      0x04\n        /* \"Evm/core/base/vaultDelegator.sol\":9847:9855  input[4] */\n      0x06\n      dup2\n      lt\n      tag_301\n      jumpi\n      tag_302\n      tag_112\n      jump\t// in\n    tag_302:\n    tag_301:\n      0x20\n      mul\n      add\n      calldataload\n        /* \"Evm/core/base/vaultDelegator.sol\":9833:9846  fieldToString */\n      tag_80\n        /* \"Evm/core/base/vaultDelegator.sol\":9833:9856  fieldToString(input[4]) */\n      jump\t// in\n    tag_300:\n        /* \"Evm/core/base/vaultDelegator.sol\":9804:9856  string memory providerName = fieldToString(input[4]) */\n      swap1\n      pop\n        /* \"Evm/core/base/vaultDelegator.sol\":9954:9976  string memory vaultKey */\n      0x00\n        /* \"Evm/core/base/vaultDelegator.sol\":10003:10015  providerName */\n      dup2\n        /* \"Evm/core/base/vaultDelegator.sol\":9986:10026  abi.encodePacked(providerName, \"_vault\") */\n      add(0x20, mload(0x40))\n      tag_303\n      swap2\n      swap1\n      tag_304\n      jump\t// in\n    tag_303:\n      mload(0x40)\n      0x20\n      dup2\n      dup4\n      sub\n      sub\n      dup2\n      mstore\n      swap1\n      0x40\n      mstore\n        /* \"Evm/core/base/vaultDelegator.sol\":9954:10027  string memory vaultKey = string(abi.encodePacked(providerName, \"_vault\")) */\n      swap1\n      pop\n        /* \"Evm/core/base/vaultDelegator.sol\":10071:10094  bytes memory vaultBytes */\n      0x00\n        /* \"Evm/core/base/vaultDelegator.sol\":10097:10114  variablesRegistry */\n      immutable(\"0xe54f8e4a5d17b2e4d97cb94ddb2a2b00b3620f93c06158e24f4515b3f1ad0dd8\")\n        /* \"Evm/core/base/vaultDelegator.sol\":10097:10132  variablesRegistry.getActiveVariable */\n      0xffffffffffffffffffffffffffffffffffffffff\n      and\n      0x16f1adc1\n        /* \"Evm/core/base/vaultDelegator.sol\":10152:10160  vaultKey */\n      dup4\n        /* \"Evm/core/base/vaultDelegator.sol\":10097:10161  variablesRegistry.getActiveVariable(\"QiaraBaseAssets\", vaultKey) */\n      mload(0x40)\n      dup3\n      0xffffffff\n      and\n      0xe0\n      shl\n      dup2\n      mstore\n      0x04\n      add\n      tag_305\n      swap2\n      swap1\n      tag_306\n      jump\t// in\n    tag_305:\n      0x00\n      mload(0x40)\n      dup1\n      dup4\n      sub\n      dup2\n      dup7\n      gas\n      staticcall\n      iszero\n      dup1\n      iszero\n      tag_308\n      jumpi\n      returndatacopy(0x00, 0x00, returndatasize)\n      revert(0x00, returndatasize)\n    tag_308:\n      pop\n      pop\n      pop\n      pop\n      mload(0x40)\n      returndatasize\n      0x00\n      dup3\n      returndatacopy\n      returndatasize\n      not(0x1f)\n      0x1f\n      dup3\n      add\n      and\n      dup3\n      add\n      dup1\n      0x40\n      mstore\n      pop\n      dup2\n      add\n      swap1\n      tag_309\n      swap2\n      swap1\n      tag_310\n      jump\t// in\n    tag_309:\n        /* \"Evm/core/base/vaultDelegator.sol\":10071:10161  bytes memory vaultBytes = variablesRegistry.getActiveVariable(\"QiaraBaseAssets\", vaultKey) */\n      swap1\n      pop\n        /* \"Evm/core/base/vaultDelegator.sol\":10233:10234  0 */\n      0x00\n        /* \"Evm/core/base/vaultDelegator.sol\":10213:10223  vaultBytes */\n      dup2\n        /* \"Evm/core/base/vaultDelegator.sol\":10213:10230  vaultBytes.length */\n      mload\n        /* \"Evm/core/base/vaultDelegator.sol\":10213:10234  vaultBytes.length > 0 */\n      gt\n        /* \"Evm/core/base/vaultDelegator.sol\":10205:10259  require(vaultBytes.length > 0, \"Vault not authorized\") */\n      tag_311\n      jumpi\n      mload(0x40)\n      0x08c379a000000000000000000000000000000000000000000000000000000000\n      dup2\n      mstore\n      0x04\n      add\n      tag_312\n      swap1\n      tag_313\n      jump\t// in\n    tag_312:\n      mload(0x40)\n      dup1\n      swap2\n      sub\n      swap1\n      revert\n    tag_311:\n        /* \"Evm/core/base/vaultDelegator.sol\":10340:10350  vaultBytes */\n      dup1\n        /* \"Evm/core/base/vaultDelegator.sol\":10332:10351  bytes20(vaultBytes) */\n      tag_314\n      swap1\n      tag_315\n      jump\t// in\n    tag_314:\n        /* \"Evm/core/base/vaultDelegator.sol\":10324:10352  uint160(bytes20(vaultBytes)) */\n      0x60\n      shr\n        /* \"Evm/core/base/vaultDelegator.sol\":10304:10353  vaultAddr = address(uint160(bytes20(vaultBytes))) */\n      swap8\n      pop\n        /* \"Evm/core/base/vaultDelegator.sol\":9218:10395  {... */\n      pop\n      pop\n      pop\n      pop\n      pop\n      pop\n        /* \"Evm/core/base/vaultDelegator.sol\":9081:10395  function _prepareWithdrawal(uint[6] calldata input) internal view returns (uint256 amount, address vaultAddr, string memory storageName) {... */\n      swap2\n      swap4\n      swap1\n      swap3\n      pop\n      jump\t// out\n        /* \"Evm/core/base/vaultDelegator.sol\":7777:8330  function _calculateNullifier8(uint256[6] calldata input) internal pure returns (uint256) {... */\n    tag_153:\n        /* \"Evm/core/base/vaultDelegator.sol\":7857:7864  uint256 */\n      0x00\n        /* \"Evm/core/base/vaultDelegator.sol\":8050:8062  bytes32 hash */\n      0x00\n        /* \"Evm/core/base/vaultDelegator.sol\":8106:8111  input */\n      dup3\n        /* \"Evm/core/base/vaultDelegator.sol\":8112:8113  0 */\n      0x00\n        /* \"Evm/core/base/vaultDelegator.sol\":8106:8114  input[0] */\n      0x06\n      dup2\n      lt\n      tag_317\n      jumpi\n      tag_318\n      tag_112\n      jump\t// in\n    tag_318:\n    tag_317:\n      0x20\n      mul\n      add\n      calldataload\n        /* \"Evm/core/base/vaultDelegator.sol\":8129:8134  input */\n      dup4\n        /* \"Evm/core/base/vaultDelegator.sol\":8135:8136  1 */\n      0x01\n        /* \"Evm/core/base/vaultDelegator.sol\":8129:8137  input[1] */\n      0x06\n      dup2\n      lt\n      tag_319\n      jumpi\n      tag_320\n      tag_112\n      jump\t// in\n    tag_320:\n    tag_319:\n      0x20\n      mul\n      add\n      calldataload\n        /* \"Evm/core/base/vaultDelegator.sol\":8152:8157  input */\n      dup5\n        /* \"Evm/core/base/vaultDelegator.sol\":8158:8159  2 */\n      0x02\n        /* \"Evm/core/base/vaultDelegator.sol\":8152:8160  input[2] */\n      0x06\n      dup2\n      lt\n      tag_321\n      jumpi\n      tag_322\n      tag_112\n      jump\t// in\n    tag_322:\n    tag_321:\n      0x20\n      mul\n      add\n      calldataload\n        /* \"Evm/core/base/vaultDelegator.sol\":8175:8180  input */\n      dup6\n        /* \"Evm/core/base/vaultDelegator.sol\":8181:8182  3 */\n      0x03\n        /* \"Evm/core/base/vaultDelegator.sol\":8175:8183  input[3] */\n      0x06\n      dup2\n      lt\n      tag_323\n      jumpi\n      tag_324\n      tag_112\n      jump\t// in\n    tag_324:\n    tag_323:\n      0x20\n      mul\n      add\n      calldataload\n        /* \"Evm/core/base/vaultDelegator.sol\":8198:8203  input */\n      dup7\n        /* \"Evm/core/base/vaultDelegator.sol\":8204:8205  4 */\n      0x04\n        /* \"Evm/core/base/vaultDelegator.sol\":8198:8206  input[4] */\n      0x06\n      dup2\n      lt\n      tag_325\n      jumpi\n      tag_326\n      tag_112\n      jump\t// in\n    tag_326:\n    tag_325:\n      0x20\n      mul\n      add\n      calldataload\n        /* \"Evm/core/base/vaultDelegator.sol\":8221:8226  input */\n      dup8\n        /* \"Evm/core/base/vaultDelegator.sol\":8227:8228  5 */\n      0x05\n        /* \"Evm/core/base/vaultDelegator.sol\":8221:8229  input[5] */\n      0x06\n      dup2\n      lt\n      tag_327\n      jumpi\n      tag_328\n      tag_112\n      jump\t// in\n    tag_328:\n    tag_327:\n      0x20\n      mul\n      add\n      calldataload\n        /* \"Evm/core/base/vaultDelegator.sol\":8075:8288  abi.encodePacked(... */\n      add(0x20, mload(0x40))\n      tag_329\n      swap7\n      swap6\n      swap5\n      swap4\n      swap3\n      swap2\n      swap1\n      tag_330\n      jump\t// in\n    tag_329:\n      mload(0x40)\n      0x20\n      dup2\n      dup4\n      sub\n      sub\n      dup2\n      mstore\n      swap1\n      0x40\n      mstore\n        /* \"Evm/core/base/vaultDelegator.sol\":8065:8289  keccak256(abi.encodePacked(... */\n      dup1\n      mload\n      swap1\n      0x20\n      add\n      keccak256\n        /* \"Evm/core/base/vaultDelegator.sol\":8050:8289  bytes32 hash = keccak256(abi.encodePacked(... */\n      swap1\n      pop\n        /* \"Evm/core/base/vaultDelegator.sol\":8317:8321  hash */\n      dup1\n        /* \"Evm/core/base/vaultDelegator.sol\":8309:8322  uint256(hash) */\n      0x00\n      shr\n        /* \"Evm/core/base/vaultDelegator.sol\":8302:8322  return uint256(hash) */\n      swap2\n      pop\n      pop\n        /* \"Evm/core/base/vaultDelegator.sol\":7777:8330  function _calculateNullifier8(uint256[6] calldata input) internal pure returns (uint256) {... */\n      swap2\n      swap1\n      pop\n      jump\t// out\n        /* \"@openzeppelin/contracts/access/Ownable.sol\":1796:1958  function _checkOwner() internal view virtual {... */\n    tag_166:\n        /* \"@openzeppelin/contracts/access/Ownable.sol\":1866:1878  _msgSender() */\n      tag_332\n        /* \"@openzeppelin/contracts/access/Ownable.sol\":1866:1876  _msgSender */\n      tag_333\n        /* \"@openzeppelin/contracts/access/Ownable.sol\":1866:1878  _msgSender() */\n      jump\t// in\n    tag_332:\n        /* \"@openzeppelin/contracts/access/Ownable.sol\":1855:1878  owner() != _msgSender() */\n      0xffffffffffffffffffffffffffffffffffffffff\n      and\n        /* \"@openzeppelin/contracts/access/Ownable.sol\":1855:1862  owner() */\n      tag_334\n        /* \"@openzeppelin/contracts/access/Ownable.sol\":1855:1860  owner */\n      tag_58\n        /* \"@openzeppelin/contracts/access/Ownable.sol\":1855:1862  owner() */\n      jump\t// in\n    tag_334:\n        /* \"@openzeppelin/contracts/access/Ownable.sol\":1855:1878  owner() != _msgSender() */\n      0xffffffffffffffffffffffffffffffffffffffff\n      and\n      eq\n        /* \"@openzeppelin/contracts/access/Ownable.sol\":1851:1952  if (owner() != _msgSender()) {... */\n      tag_335\n      jumpi\n        /* \"@openzeppelin/contracts/access/Ownable.sol\":1928:1940  _msgSender() */\n      tag_336\n        /* \"@openzeppelin/contracts/access/Ownable.sol\":1928:1938  _msgSender */\n      tag_333\n        /* \"@openzeppelin/contracts/access/Ownable.sol\":1928:1940  _msgSender() */\n      jump\t// in\n    tag_336:\n        /* \"@openzeppelin/contracts/access/Ownable.sol\":1901:1941  OwnableUnauthorizedAccount(_msgSender()) */\n      mload(0x40)\n      0x118cdaa700000000000000000000000000000000000000000000000000000000\n      dup2\n      mstore\n      0x04\n      add\n      tag_337\n      swap2\n      swap1\n      tag_43\n      jump\t// in\n    tag_337:\n      mload(0x40)\n      dup1\n      swap2\n      sub\n      swap1\n      revert\n        /* \"@openzeppelin/contracts/access/Ownable.sol\":1851:1952  if (owner() != _msgSender()) {... */\n    tag_335:\n        /* \"@openzeppelin/contracts/access/Ownable.sol\":1796:1958  function _checkOwner() internal view virtual {... */\n      jump\t// out\n        /* \"@openzeppelin/contracts/access/Ownable.sol\":2912:3099  function _transferOwnership(address newOwner) internal virtual {... */\n    tag_169:\n        /* \"@openzeppelin/contracts/access/Ownable.sol\":2985:3001  address oldOwner */\n      0x00\n        /* \"@openzeppelin/contracts/access/Ownable.sol\":3004:3010  _owner */\n      0x00\n      0x00\n      swap1\n      sload\n      swap1\n      0x0100\n      exp\n      swap1\n      div\n      0xffffffffffffffffffffffffffffffffffffffff\n      and\n        /* \"@openzeppelin/contracts/access/Ownable.sol\":2985:3010  address oldOwner = _owner */\n      swap1\n      pop\n        /* \"@openzeppelin/contracts/access/Ownable.sol\":3029:3037  newOwner */\n      dup2\n        /* \"@openzeppelin/contracts/access/Ownable.sol\":3020:3026  _owner */\n      0x00\n      0x00\n        /* \"@openzeppelin/contracts/access/Ownable.sol\":3020:3037  _owner = newOwner */\n      0x0100\n      exp\n      dup2\n      sload\n      dup2\n      0xffffffffffffffffffffffffffffffffffffffff\n      mul\n      not\n      and\n      swap1\n      dup4\n      0xffffffffffffffffffffffffffffffffffffffff\n      and\n      mul\n      or\n      swap1\n      sstore\n      pop\n        /* \"@openzeppelin/contracts/access/Ownable.sol\":3083:3091  newOwner */\n      dup2\n        /* \"@openzeppelin/contracts/access/Ownable.sol\":3052:3092  OwnershipTransferred(oldOwner, newOwner) */\n      0xffffffffffffffffffffffffffffffffffffffff\n      and\n        /* \"@openzeppelin/contracts/access/Ownable.sol\":3073:3081  oldOwner */\n      dup2\n        /* \"@openzeppelin/contracts/access/Ownable.sol\":3052:3092  OwnershipTransferred(oldOwner, newOwner) */\n      0xffffffffffffffffffffffffffffffffffffffff\n      and\n      0x8be0079c531659141344cd1fd0a4f28419497f9722a3daafe3b4186f6b6457e0\n      mload(0x40)\n      mload(0x40)\n      dup1\n      swap2\n      sub\n      swap1\n      log3\n        /* \"@openzeppelin/contracts/access/Ownable.sol\":2975:3099  {... */\n      pop\n        /* \"@openzeppelin/contracts/access/Ownable.sol\":2912:3099  function _transferOwnership(address newOwner) internal virtual {... */\n      pop\n      jump\t// out\n        /* \"@openzeppelin/contracts/utils/Context.sol\":656:752  function _msgSender() internal view virtual returns (address) {... */\n    tag_333:\n        /* \"@openzeppelin/contracts/utils/Context.sol\":709:716  address */\n      0x00\n        /* \"@openzeppelin/contracts/utils/Context.sol\":735:745  msg.sender */\n      caller\n        /* \"@openzeppelin/contracts/utils/Context.sol\":728:745  return msg.sender */\n      swap1\n      pop\n        /* \"@openzeppelin/contracts/utils/Context.sol\":656:752  function _msgSender() internal view virtual returns (address) {... */\n      swap1\n      jump\t// out\n        /* \"#utility.yul\":7:82   */\n    tag_340:\n        /* \"#utility.yul\":40:46   */\n      0x00\n        /* \"#utility.yul\":73:75   */\n      0x40\n        /* \"#utility.yul\":67:76   */\n      mload\n        /* \"#utility.yul\":57:76   */\n      swap1\n      pop\n        /* \"#utility.yul\":7:82   */\n      swap1\n      jump\t// out\n        /* \"#utility.yul\":88:205   */\n    tag_341:\n        /* \"#utility.yul\":197:198   */\n      0x00\n        /* \"#utility.yul\":194:195   */\n      0x00\n        /* \"#utility.yul\":187:199   */\n      revert\n        /* \"#utility.yul\":211:328   */\n    tag_342:\n        /* \"#utility.yul\":320:321   */\n      0x00\n        /* \"#utility.yul\":317:318   */\n      0x00\n        /* \"#utility.yul\":310:322   */\n      revert\n        /* \"#utility.yul\":334:411   */\n    tag_343:\n        /* \"#utility.yul\":371:378   */\n      0x00\n        /* \"#utility.yul\":400:405   */\n      dup2\n        /* \"#utility.yul\":389:405   */\n      swap1\n      pop\n        /* \"#utility.yul\":334:411   */\n      swap2\n      swap1\n      pop\n      jump\t// out\n        /* \"#utility.yul\":417:539   */\n    tag_344:\n        /* \"#utility.yul\":490:514   */\n      tag_442\n        /* \"#utility.yul\":508:513   */\n      dup2\n        /* \"#utility.yul\":490:514   */\n      tag_343\n      jump\t// in\n    tag_442:\n        /* \"#utility.yul\":483:488   */\n      dup2\n        /* \"#utility.yul\":480:515   */\n      eq\n        /* \"#utility.yul\":470:533   */\n      tag_443\n      jumpi\n        /* \"#utility.yul\":529:530   */\n      0x00\n        /* \"#utility.yul\":526:527   */\n      0x00\n        /* \"#utility.yul\":519:531   */\n      revert\n        /* \"#utility.yul\":470:533   */\n    tag_443:\n        /* \"#utility.yul\":417:539   */\n      pop\n      jump\t// out\n        /* \"#utility.yul\":545:684   */\n    tag_345:\n        /* \"#utility.yul\":591:596   */\n      0x00\n        /* \"#utility.yul\":629:635   */\n      dup2\n        /* \"#utility.yul\":616:636   */\n      calldataload\n        /* \"#utility.yul\":607:636   */\n      swap1\n      pop\n        /* \"#utility.yul\":645:678   */\n      tag_445\n        /* \"#utility.yul\":672:677   */\n      dup2\n        /* \"#utility.yul\":645:678   */\n      tag_344\n      jump\t// in\n    tag_445:\n        /* \"#utility.yul\":545:684   */\n      swap3\n      swap2\n      pop\n      pop\n      jump\t// out\n        /* \"#utility.yul\":690:1019   */\n    tag_26:\n        /* \"#utility.yul\":749:755   */\n      0x00\n        /* \"#utility.yul\":798:800   */\n      0x20\n        /* \"#utility.yul\":786:795   */\n      dup3\n        /* \"#utility.yul\":777:784   */\n      dup5\n        /* \"#utility.yul\":773:796   */\n      sub\n        /* \"#utility.yul\":769:801   */\n      slt\n        /* \"#utility.yul\":766:885   */\n      iszero\n      tag_447\n      jumpi\n        /* \"#utility.yul\":804:883   */\n      tag_448\n      tag_341\n      jump\t// in\n    tag_448:\n        /* \"#utility.yul\":766:885   */\n    tag_447:\n        /* \"#utility.yul\":924:925   */\n      0x00\n        /* \"#utility.yul\":949:1002   */\n      tag_449\n        /* \"#utility.yul\":994:1001   */\n      dup5\n        /* \"#utility.yul\":985:991   */\n      dup3\n        /* \"#utility.yul\":974:983   */\n      dup6\n        /* \"#utility.yul\":970:992   */\n      add\n        /* \"#utility.yul\":949:1002   */\n      tag_345\n      jump\t// in\n    tag_449:\n        /* \"#utility.yul\":939:1002   */\n      swap2\n      pop\n        /* \"#utility.yul\":895:1012   */\n      pop\n        /* \"#utility.yul\":690:1019   */\n      swap3\n      swap2\n      pop\n      pop\n      jump\t// out\n        /* \"#utility.yul\":1025:1123   */\n    tag_346:\n        /* \"#utility.yul\":1076:1082   */\n      0x00\n        /* \"#utility.yul\":1110:1115   */\n      dup2\n        /* \"#utility.yul\":1104:1116   */\n      mload\n        /* \"#utility.yul\":1094:1116   */\n      swap1\n      pop\n        /* \"#utility.yul\":1025:1123   */\n      swap2\n      swap1\n      pop\n      jump\t// out\n        /* \"#utility.yul\":1129:1297   */\n    tag_347:\n        /* \"#utility.yul\":1212:1223   */\n      0x00\n        /* \"#utility.yul\":1246:1252   */\n      dup3\n        /* \"#utility.yul\":1241:1244   */\n      dup3\n        /* \"#utility.yul\":1234:1253   */\n      mstore\n        /* \"#utility.yul\":1286:1290   */\n      0x20\n        /* \"#utility.yul\":1281:1284   */\n      dup3\n        /* \"#utility.yul\":1277:1291   */\n      add\n        /* \"#utility.yul\":1262:1291   */\n      swap1\n      pop\n        /* \"#utility.yul\":1129:1297   */\n      swap3\n      swap2\n      pop\n      pop\n      jump\t// out\n        /* \"#utility.yul\":1303:1442   */\n    tag_348:\n        /* \"#utility.yul\":1392:1398   */\n      dup3\n        /* \"#utility.yul\":1387:1390   */\n      dup2\n        /* \"#utility.yul\":1382:1385   */\n      dup4\n        /* \"#utility.yul\":1376:1399   */\n      mcopy\n        /* \"#utility.yul\":1433:1434   */\n      0x00\n        /* \"#utility.yul\":1424:1430   */\n      dup4\n        /* \"#utility.yul\":1419:1422   */\n      dup4\n        /* \"#utility.yul\":1415:1431   */\n      add\n        /* \"#utility.yul\":1408:1435   */\n      mstore\n        /* \"#utility.yul\":1303:1442   */\n      pop\n      pop\n      pop\n      jump\t// out\n        /* \"#utility.yul\":1448:1550   */\n    tag_349:\n        /* \"#utility.yul\":1489:1495   */\n      0x00\n        /* \"#utility.yul\":1540:1542   */\n      0x1f\n        /* \"#utility.yul\":1536:1543   */\n      not\n        /* \"#utility.yul\":1531:1533   */\n      0x1f\n        /* \"#utility.yul\":1524:1529   */\n      dup4\n        /* \"#utility.yul\":1520:1534   */\n      add\n        /* \"#utility.yul\":1516:1544   */\n      and\n        /* \"#utility.yul\":1506:1544   */\n      swap1\n      pop\n        /* \"#utility.yul\":1448:1550   */\n      swap2\n      swap1\n      pop\n      jump\t// out\n        /* \"#utility.yul\":1556:1929   */\n    tag_350:\n        /* \"#utility.yul\":1642:1645   */\n      0x00\n        /* \"#utility.yul\":1670:1708   */\n      tag_455\n        /* \"#utility.yul\":1702:1707   */\n      dup3\n        /* \"#utility.yul\":1670:1708   */\n      tag_346\n      jump\t// in\n    tag_455:\n        /* \"#utility.yul\":1724:1794   */\n      tag_456\n        /* \"#utility.yul\":1787:1793   */\n      dup2\n        /* \"#utility.yul\":1782:1785   */\n      dup6\n        /* \"#utility.yul\":1724:1794   */\n      tag_347\n      jump\t// in\n    tag_456:\n        /* \"#utility.yul\":1717:1794   */\n      swap4\n      pop\n        /* \"#utility.yul\":1803:1868   */\n      tag_457\n        /* \"#utility.yul\":1861:1867   */\n      dup2\n        /* \"#utility.yul\":1856:1859   */\n      dup6\n        /* \"#utility.yul\":1849:1853   */\n      0x20\n        /* \"#utility.yul\":1842:1847   */\n      dup7\n        /* \"#utility.yul\":1838:1854   */\n      add\n        /* \"#utility.yul\":1803:1868   */\n      tag_348\n      jump\t// in\n    tag_457:\n        /* \"#utility.yul\":1893:1922   */\n      tag_458\n        /* \"#utility.yul\":1915:1921   */\n      dup2\n        /* \"#utility.yul\":1893:1922   */\n      tag_349\n      jump\t// in\n    tag_458:\n        /* \"#utility.yul\":1888:1891   */\n      dup5\n        /* \"#utility.yul\":1884:1923   */\n      add\n        /* \"#utility.yul\":1877:1923   */\n      swap2\n      pop\n        /* \"#utility.yul\":1646:1929   */\n      pop\n        /* \"#utility.yul\":1556:1929   */\n      swap3\n      swap2\n      pop\n      pop\n      jump\t// out\n        /* \"#utility.yul\":1935:2244   */\n    tag_29:\n        /* \"#utility.yul\":2046:2050   */\n      0x00\n        /* \"#utility.yul\":2084:2086   */\n      0x20\n        /* \"#utility.yul\":2073:2082   */\n      dup3\n        /* \"#utility.yul\":2069:2087   */\n      add\n        /* \"#utility.yul\":2061:2087   */\n      swap1\n      pop\n        /* \"#utility.yul\":2133:2142   */\n      dup2\n        /* \"#utility.yul\":2127:2131   */\n      dup2\n        /* \"#utility.yul\":2123:2143   */\n      sub\n        /* \"#utility.yul\":2119:2120   */\n      0x00\n        /* \"#utility.yul\":2108:2117   */\n      dup4\n        /* \"#utility.yul\":2104:2121   */\n      add\n        /* \"#utility.yul\":2097:2144   */\n      mstore\n        /* \"#utility.yul\":2161:2237   */\n      tag_460\n        /* \"#utility.yul\":2232:2236   */\n      dup2\n        /* \"#utility.yul\":2223:2229   */\n      dup5\n        /* \"#utility.yul\":2161:2237   */\n      tag_350\n      jump\t// in\n    tag_460:\n        /* \"#utility.yul\":2153:2237   */\n      swap1\n      pop\n        /* \"#utility.yul\":1935:2244   */\n      swap3\n      swap2\n      pop\n      pop\n      jump\t// out\n        /* \"#utility.yul\":2250:2367   */\n    tag_351:\n        /* \"#utility.yul\":2359:2360   */\n      0x00\n        /* \"#utility.yul\":2356:2357   */\n      0x00\n        /* \"#utility.yul\":2349:2361   */\n      revert\n        /* \"#utility.yul\":2391:2640   */\n    tag_352:\n        /* \"#utility.yul\":2462:2470   */\n      0x00\n        /* \"#utility.yul\":2493:2499   */\n      dup2\n        /* \"#utility.yul\":2481:2499   */\n      swap1\n      pop\n        /* \"#utility.yul\":2546:2549   */\n      dup3\n        /* \"#utility.yul\":2538:2542   */\n      0x20\n        /* \"#utility.yul\":2532:2536   */\n      0x08\n        /* \"#utility.yul\":2528:2543   */\n      mul\n        /* \"#utility.yul\":2518:2526   */\n      dup3\n        /* \"#utility.yul\":2514:2544   */\n      add\n        /* \"#utility.yul\":2511:2550   */\n      gt\n        /* \"#utility.yul\":2508:2634   */\n      iszero\n      tag_463\n      jumpi\n        /* \"#utility.yul\":2553:2632   */\n      tag_464\n      tag_351\n      jump\t// in\n    tag_464:\n        /* \"#utility.yul\":2508:2634   */\n    tag_463:\n        /* \"#utility.yul\":2391:2640   */\n      swap3\n      swap2\n      pop\n      pop\n      jump\t// out\n        /* \"#utility.yul\":2664:2913   */\n    tag_353:\n        /* \"#utility.yul\":2735:2743   */\n      0x00\n        /* \"#utility.yul\":2766:2772   */\n      dup2\n        /* \"#utility.yul\":2754:2772   */\n      swap1\n      pop\n        /* \"#utility.yul\":2819:2822   */\n      dup3\n        /* \"#utility.yul\":2811:2815   */\n      0x20\n        /* \"#utility.yul\":2805:2809   */\n      0x07\n        /* \"#utility.yul\":2801:2816   */\n      mul\n        /* \"#utility.yul\":2791:2799   */\n      dup3\n        /* \"#utility.yul\":2787:2817   */\n      add\n        /* \"#utility.yul\":2784:2823   */\n      gt\n        /* \"#utility.yul\":2781:2907   */\n      iszero\n      tag_466\n      jumpi\n        /* \"#utility.yul\":2826:2905   */\n      tag_467\n      tag_351\n      jump\t// in\n    tag_467:\n        /* \"#utility.yul\":2781:2907   */\n    tag_466:\n        /* \"#utility.yul\":2664:2913   */\n      swap3\n      swap2\n      pop\n      pop\n      jump\t// out\n        /* \"#utility.yul\":2919:3036   */\n    tag_354:\n        /* \"#utility.yul\":3028:3029   */\n      0x00\n        /* \"#utility.yul\":3025:3026   */\n      0x00\n        /* \"#utility.yul\":3018:3030   */\n      revert\n        /* \"#utility.yul\":3042:3159   */\n    tag_355:\n        /* \"#utility.yul\":3151:3152   */\n      0x00\n        /* \"#utility.yul\":3148:3149   */\n      0x00\n        /* \"#utility.yul\":3141:3153   */\n      revert\n        /* \"#utility.yul\":3178:3730   */\n    tag_356:\n        /* \"#utility.yul\":3235:3243   */\n      0x00\n        /* \"#utility.yul\":3245:3251   */\n      0x00\n        /* \"#utility.yul\":3295:3298   */\n      dup4\n        /* \"#utility.yul\":3288:3292   */\n      0x1f\n        /* \"#utility.yul\":3280:3286   */\n      dup5\n        /* \"#utility.yul\":3276:3293   */\n      add\n        /* \"#utility.yul\":3272:3299   */\n      slt\n        /* \"#utility.yul\":3262:3384   */\n      tag_471\n      jumpi\n        /* \"#utility.yul\":3303:3382   */\n      tag_472\n      tag_354\n      jump\t// in\n    tag_472:\n        /* \"#utility.yul\":3262:3384   */\n    tag_471:\n        /* \"#utility.yul\":3416:3422   */\n      dup3\n        /* \"#utility.yul\":3403:3423   */\n      calldataload\n        /* \"#utility.yul\":3393:3423   */\n      swap1\n      pop\n        /* \"#utility.yul\":3446:3464   */\n      0xffffffffffffffff\n        /* \"#utility.yul\":3438:3444   */\n      dup2\n        /* \"#utility.yul\":3435:3465   */\n      gt\n        /* \"#utility.yul\":3432:3549   */\n      iszero\n      tag_473\n      jumpi\n        /* \"#utility.yul\":3468:3547   */\n      tag_474\n      tag_355\n      jump\t// in\n    tag_474:\n        /* \"#utility.yul\":3432:3549   */\n    tag_473:\n        /* \"#utility.yul\":3582:3586   */\n      0x20\n        /* \"#utility.yul\":3574:3580   */\n      dup4\n        /* \"#utility.yul\":3570:3587   */\n      add\n        /* \"#utility.yul\":3558:3587   */\n      swap2\n      pop\n        /* \"#utility.yul\":3636:3639   */\n      dup4\n        /* \"#utility.yul\":3628:3632   */\n      0x01\n        /* \"#utility.yul\":3620:3626   */\n      dup3\n        /* \"#utility.yul\":3616:3633   */\n      mul\n        /* \"#utility.yul\":3606:3614   */\n      dup4\n        /* \"#utility.yul\":3602:3634   */\n      add\n        /* \"#utility.yul\":3599:3640   */\n      gt\n        /* \"#utility.yul\":3596:3724   */\n      iszero\n      tag_475\n      jumpi\n        /* \"#utility.yul\":3643:3722   */\n      tag_476\n      tag_351\n      jump\t// in\n    tag_476:\n        /* \"#utility.yul\":3596:3724   */\n    tag_475:\n        /* \"#utility.yul\":3178:3730   */\n      swap3\n      pop\n      swap3\n      swap1\n      pop\n      jump\t// out\n        /* \"#utility.yul\":3736:4656   */\n    tag_32:\n        /* \"#utility.yul\":3874:3880   */\n      0x00\n        /* \"#utility.yul\":3882:3888   */\n      0x00\n        /* \"#utility.yul\":3890:3896   */\n      0x00\n        /* \"#utility.yul\":3898:3904   */\n      0x00\n        /* \"#utility.yul\":3947:3950   */\n      0x0200\n        /* \"#utility.yul\":3935:3944   */\n      dup6\n        /* \"#utility.yul\":3926:3933   */\n      dup8\n        /* \"#utility.yul\":3922:3945   */\n      sub\n        /* \"#utility.yul\":3918:3951   */\n      slt\n        /* \"#utility.yul\":3915:4035   */\n      iszero\n      tag_478\n      jumpi\n        /* \"#utility.yul\":3954:4033   */\n      tag_479\n      tag_341\n      jump\t// in\n    tag_479:\n        /* \"#utility.yul\":3915:4035   */\n    tag_478:\n        /* \"#utility.yul\":4074:4075   */\n      0x00\n        /* \"#utility.yul\":4099:4177   */\n      tag_480\n        /* \"#utility.yul\":4169:4176   */\n      dup8\n        /* \"#utility.yul\":4160:4166   */\n      dup3\n        /* \"#utility.yul\":4149:4158   */\n      dup9\n        /* \"#utility.yul\":4145:4167   */\n      add\n        /* \"#utility.yul\":4099:4177   */\n      tag_352\n      jump\t// in\n    tag_480:\n        /* \"#utility.yul\":4089:4177   */\n      swap5\n      pop\n        /* \"#utility.yul\":4045:4187   */\n      pop\n        /* \"#utility.yul\":4226:4229   */\n      0x0100\n        /* \"#utility.yul\":4253:4331   */\n      tag_481\n        /* \"#utility.yul\":4323:4330   */\n      dup8\n        /* \"#utility.yul\":4314:4320   */\n      dup3\n        /* \"#utility.yul\":4303:4312   */\n      dup9\n        /* \"#utility.yul\":4299:4321   */\n      add\n        /* \"#utility.yul\":4253:4331   */\n      tag_353\n      jump\t// in\n    tag_481:\n        /* \"#utility.yul\":4243:4331   */\n      swap4\n      pop\n        /* \"#utility.yul\":4197:4341   */\n      pop\n        /* \"#utility.yul\":4408:4411   */\n      0x01e0\n        /* \"#utility.yul\":4397:4406   */\n      dup6\n        /* \"#utility.yul\":4393:4412   */\n      add\n        /* \"#utility.yul\":4380:4413   */\n      calldataload\n        /* \"#utility.yul\":4440:4458   */\n      0xffffffffffffffff\n        /* \"#utility.yul\":4432:4438   */\n      dup2\n        /* \"#utility.yul\":4429:4459   */\n      gt\n        /* \"#utility.yul\":4426:4543   */\n      iszero\n      tag_482\n      jumpi\n        /* \"#utility.yul\":4462:4541   */\n      tag_483\n      tag_342\n      jump\t// in\n    tag_483:\n        /* \"#utility.yul\":4426:4543   */\n    tag_482:\n        /* \"#utility.yul\":4575:4639   */\n      tag_484\n        /* \"#utility.yul\":4631:4638   */\n      dup8\n        /* \"#utility.yul\":4622:4628   */\n      dup3\n        /* \"#utility.yul\":4611:4620   */\n      dup9\n        /* \"#utility.yul\":4607:4629   */\n      add\n        /* \"#utility.yul\":4575:4639   */\n      tag_356\n      jump\t// in\n    tag_484:\n        /* \"#utility.yul\":4557:4639   */\n      swap3\n      pop\n      swap3\n      pop\n        /* \"#utility.yul\":4351:4649   */\n      pop\n        /* \"#utility.yul\":3736:4656   */\n      swap3\n      swap6\n      swap2\n      swap5\n      pop\n      swap3\n      pop\n      jump\t// out\n        /* \"#utility.yul\":4680:4929   */\n    tag_357:\n        /* \"#utility.yul\":4751:4759   */\n      0x00\n        /* \"#utility.yul\":4782:4788   */\n      dup2\n        /* \"#utility.yul\":4770:4788   */\n      swap1\n      pop\n        /* \"#utility.yul\":4835:4838   */\n      dup3\n        /* \"#utility.yul\":4827:4831   */\n      0x20\n        /* \"#utility.yul\":4821:4825   */\n      0x06\n        /* \"#utility.yul\":4817:4832   */\n      mul\n        /* \"#utility.yul\":4807:4815   */\n      dup3\n        /* \"#utility.yul\":4803:4833   */\n      add\n        /* \"#utility.yul\":4800:4839   */\n      gt\n        /* \"#utility.yul\":4797:4923   */\n      iszero\n      tag_486\n      jumpi\n        /* \"#utility.yul\":4842:4921   */\n      tag_487\n      tag_351\n      jump\t// in\n    tag_487:\n        /* \"#utility.yul\":4797:4923   */\n    tag_486:\n        /* \"#utility.yul\":4680:4929   */\n      swap3\n      swap2\n      pop\n      pop\n      jump\t// out\n        /* \"#utility.yul\":4935:5855   */\n    tag_36:\n        /* \"#utility.yul\":5073:5079   */\n      0x00\n        /* \"#utility.yul\":5081:5087   */\n      0x00\n        /* \"#utility.yul\":5089:5095   */\n      0x00\n        /* \"#utility.yul\":5097:5103   */\n      0x00\n        /* \"#utility.yul\":5146:5149   */\n      0x01e0\n        /* \"#utility.yul\":5134:5143   */\n      dup6\n        /* \"#utility.yul\":5125:5132   */\n      dup8\n        /* \"#utility.yul\":5121:5144   */\n      sub\n        /* \"#utility.yul\":5117:5150   */\n      slt\n        /* \"#utility.yul\":5114:5234   */\n      iszero\n      tag_489\n      jumpi\n        /* \"#utility.yul\":5153:5232   */\n      tag_490\n      tag_341\n      jump\t// in\n    tag_490:\n        /* \"#utility.yul\":5114:5234   */\n    tag_489:\n        /* \"#utility.yul\":5273:5274   */\n      0x00\n        /* \"#utility.yul\":5298:5376   */\n      tag_491\n        /* \"#utility.yul\":5368:5375   */\n      dup8\n        /* \"#utility.yul\":5359:5365   */\n      dup3\n        /* \"#utility.yul\":5348:5357   */\n      dup9\n        /* \"#utility.yul\":5344:5366   */\n      add\n        /* \"#utility.yul\":5298:5376   */\n      tag_352\n      jump\t// in\n    tag_491:\n        /* \"#utility.yul\":5288:5376   */\n      swap5\n      pop\n        /* \"#utility.yul\":5244:5386   */\n      pop\n        /* \"#utility.yul\":5425:5428   */\n      0x0100\n        /* \"#utility.yul\":5452:5530   */\n      tag_492\n        /* \"#utility.yul\":5522:5529   */\n      dup8\n        /* \"#utility.yul\":5513:5519   */\n      dup3\n        /* \"#utility.yul\":5502:5511   */\n      dup9\n        /* \"#utility.yul\":5498:5520   */\n      add\n        /* \"#utility.yul\":5452:5530   */\n      tag_357\n      jump\t// in\n    tag_492:\n        /* \"#utility.yul\":5442:5530   */\n      swap4\n      pop\n        /* \"#utility.yul\":5396:5540   */\n      pop\n        /* \"#utility.yul\":5607:5610   */\n      0x01c0\n        /* \"#utility.yul\":5596:5605   */\n      dup6\n        /* \"#utility.yul\":5592:5611   */\n      add\n        /* \"#utility.yul\":5579:5612   */\n      calldataload\n        /* \"#utility.yul\":5639:5657   */\n      0xffffffffffffffff\n        /* \"#utility.yul\":5631:5637   */\n      dup2\n        /* \"#utility.yul\":5628:5658   */\n      gt\n        /* \"#utility.yul\":5625:5742   */\n      iszero\n      tag_493\n      jumpi\n        /* \"#utility.yul\":5661:5740   */\n      tag_494\n      tag_342\n      jump\t// in\n    tag_494:\n        /* \"#utility.yul\":5625:5742   */\n    tag_493:\n        /* \"#utility.yul\":5774:5838   */\n      tag_495\n        /* \"#utility.yul\":5830:5837   */\n      dup8\n        /* \"#utility.yul\":5821:5827   */\n      dup3\n        /* \"#utility.yul\":5810:5819   */\n      dup9\n        /* \"#utility.yul\":5806:5828   */\n      add\n        /* \"#utility.yul\":5774:5838   */\n      tag_356\n      jump\t// in\n    tag_495:\n        /* \"#utility.yul\":5756:5838   */\n      swap3\n      pop\n      swap3\n      pop\n        /* \"#utility.yul\":5550:5848   */\n      pop\n        /* \"#utility.yul\":4935:5855   */\n      swap3\n      swap6\n      swap2\n      swap5\n      pop\n      swap3\n      pop\n      jump\t// out\n        /* \"#utility.yul\":5861:6626   */\n    tag_40:\n        /* \"#utility.yul\":5947:5953   */\n      0x00\n        /* \"#utility.yul\":5955:5961   */\n      0x00\n        /* \"#utility.yul\":5963:5969   */\n      0x00\n        /* \"#utility.yul\":5971:5977   */\n      0x00\n        /* \"#utility.yul\":6020:6023   */\n      0x80\n        /* \"#utility.yul\":6008:6017   */\n      dup6\n        /* \"#utility.yul\":5999:6006   */\n      dup8\n        /* \"#utility.yul\":5995:6018   */\n      sub\n        /* \"#utility.yul\":5991:6024   */\n      slt\n        /* \"#utility.yul\":5988:6108   */\n      iszero\n      tag_497\n      jumpi\n        /* \"#utility.yul\":6027:6106   */\n      tag_498\n      tag_341\n      jump\t// in\n    tag_498:\n        /* \"#utility.yul\":5988:6108   */\n    tag_497:\n        /* \"#utility.yul\":6147:6148   */\n      0x00\n        /* \"#utility.yul\":6172:6225   */\n      tag_499\n        /* \"#utility.yul\":6217:6224   */\n      dup8\n        /* \"#utility.yul\":6208:6214   */\n      dup3\n        /* \"#utility.yul\":6197:6206   */\n      dup9\n        /* \"#utility.yul\":6193:6215   */\n      add\n        /* \"#utility.yul\":6172:6225   */\n      tag_345\n      jump\t// in\n    tag_499:\n        /* \"#utility.yul\":6162:6225   */\n      swap5\n      pop\n        /* \"#utility.yul\":6118:6235   */\n      pop\n        /* \"#utility.yul\":6274:6276   */\n      0x20\n        /* \"#utility.yul\":6300:6353   */\n      tag_500\n        /* \"#utility.yul\":6345:6352   */\n      dup8\n        /* \"#utility.yul\":6336:6342   */\n      dup3\n        /* \"#utility.yul\":6325:6334   */\n      dup9\n        /* \"#utility.yul\":6321:6343   */\n      add\n        /* \"#utility.yul\":6300:6353   */\n      tag_345\n      jump\t// in\n    tag_500:\n        /* \"#utility.yul\":6290:6353   */\n      swap4\n      pop\n        /* \"#utility.yul\":6245:6363   */\n      pop\n        /* \"#utility.yul\":6402:6404   */\n      0x40\n        /* \"#utility.yul\":6428:6481   */\n      tag_501\n        /* \"#utility.yul\":6473:6480   */\n      dup8\n        /* \"#utility.yul\":6464:6470   */\n      dup3\n        /* \"#utility.yul\":6453:6462   */\n      dup9\n        /* \"#utility.yul\":6449:6471   */\n      add\n        /* \"#utility.yul\":6428:6481   */\n      tag_345\n      jump\t// in\n    tag_501:\n        /* \"#utility.yul\":6418:6481   */\n      swap3\n      pop\n        /* \"#utility.yul\":6373:6491   */\n      pop\n        /* \"#utility.yul\":6530:6532   */\n      0x60\n        /* \"#utility.yul\":6556:6609   */\n      tag_502\n        /* \"#utility.yul\":6601:6608   */\n      dup8\n        /* \"#utility.yul\":6592:6598   */\n      dup3\n        /* \"#utility.yul\":6581:6590   */\n      dup9\n        /* \"#utility.yul\":6577:6599   */\n      add\n        /* \"#utility.yul\":6556:6609   */\n      tag_345\n      jump\t// in\n    tag_502:\n        /* \"#utility.yul\":6546:6609   */\n      swap2\n      pop\n        /* \"#utility.yul\":6501:6619   */\n      pop\n        /* \"#utility.yul\":5861:6626   */\n      swap3\n      swap6\n      swap2\n      swap5\n      pop\n      swap3\n      pop\n      jump\t// out\n        /* \"#utility.yul\":6632:6758   */\n    tag_358:\n        /* \"#utility.yul\":6669:6676   */\n      0x00\n        /* \"#utility.yul\":6709:6751   */\n      0xffffffffffffffffffffffffffffffffffffffff\n        /* \"#utility.yul\":6702:6707   */\n      dup3\n        /* \"#utility.yul\":6698:6752   */\n      and\n        /* \"#utility.yul\":6687:6752   */\n      swap1\n      pop\n        /* \"#utility.yul\":6632:6758   */\n      swap2\n      swap1\n      pop\n      jump\t// out\n        /* \"#utility.yul\":6764:6860   */\n    tag_359:\n        /* \"#utility.yul\":6801:6808   */\n      0x00\n        /* \"#utility.yul\":6830:6854   */\n      tag_505\n        /* \"#utility.yul\":6848:6853   */\n      dup3\n        /* \"#utility.yul\":6830:6854   */\n      tag_358\n      jump\t// in\n    tag_505:\n        /* \"#utility.yul\":6819:6854   */\n      swap1\n      pop\n        /* \"#utility.yul\":6764:6860   */\n      swap2\n      swap1\n      pop\n      jump\t// out\n        /* \"#utility.yul\":6866:6984   */\n    tag_360:\n        /* \"#utility.yul\":6953:6977   */\n      tag_507\n        /* \"#utility.yul\":6971:6976   */\n      dup2\n        /* \"#utility.yul\":6953:6977   */\n      tag_359\n      jump\t// in\n    tag_507:\n        /* \"#utility.yul\":6948:6951   */\n      dup3\n        /* \"#utility.yul\":6941:6978   */\n      mstore\n        /* \"#utility.yul\":6866:6984   */\n      pop\n      pop\n      jump\t// out\n        /* \"#utility.yul\":6990:7212   */\n    tag_43:\n        /* \"#utility.yul\":7083:7087   */\n      0x00\n        /* \"#utility.yul\":7121:7123   */\n      0x20\n        /* \"#utility.yul\":7110:7119   */\n      dup3\n        /* \"#utility.yul\":7106:7124   */\n      add\n        /* \"#utility.yul\":7098:7124   */\n      swap1\n      pop\n        /* \"#utility.yul\":7134:7205   */\n      tag_509\n        /* \"#utility.yul\":7202:7203   */\n      0x00\n        /* \"#utility.yul\":7191:7200   */\n      dup4\n        /* \"#utility.yul\":7187:7204   */\n      add\n        /* \"#utility.yul\":7178:7184   */\n      dup5\n        /* \"#utility.yul\":7134:7205   */\n      tag_360\n      jump\t// in\n    tag_509:\n        /* \"#utility.yul\":6990:7212   */\n      swap3\n      swap2\n      pop\n      pop\n      jump\t// out\n        /* \"#utility.yul\":7218:7278   */\n    tag_361:\n        /* \"#utility.yul\":7246:7249   */\n      0x00\n        /* \"#utility.yul\":7267:7272   */\n      dup2\n        /* \"#utility.yul\":7260:7272   */\n      swap1\n      pop\n        /* \"#utility.yul\":7218:7278   */\n      swap2\n      swap1\n      pop\n      jump\t// out\n        /* \"#utility.yul\":7284:7426   */\n    tag_362:\n        /* \"#utility.yul\":7334:7343   */\n      0x00\n        /* \"#utility.yul\":7367:7420   */\n      tag_512\n        /* \"#utility.yul\":7385:7419   */\n      tag_513\n        /* \"#utility.yul\":7394:7418   */\n      tag_514\n        /* \"#utility.yul\":7412:7417   */\n      dup5\n        /* \"#utility.yul\":7394:7418   */\n      tag_358\n      jump\t// in\n    tag_514:\n        /* \"#utility.yul\":7385:7419   */\n      tag_361\n      jump\t// in\n    tag_513:\n        /* \"#utility.yul\":7367:7420   */\n      tag_358\n      jump\t// in\n    tag_512:\n        /* \"#utility.yul\":7354:7420   */\n      swap1\n      pop\n        /* \"#utility.yul\":7284:7426   */\n      swap2\n      swap1\n      pop\n      jump\t// out\n        /* \"#utility.yul\":7432:7558   */\n    tag_363:\n        /* \"#utility.yul\":7482:7491   */\n      0x00\n        /* \"#utility.yul\":7515:7552   */\n      tag_516\n        /* \"#utility.yul\":7546:7551   */\n      dup3\n        /* \"#utility.yul\":7515:7552   */\n      tag_362\n      jump\t// in\n    tag_516:\n        /* \"#utility.yul\":7502:7552   */\n      swap1\n      pop\n        /* \"#utility.yul\":7432:7558   */\n      swap2\n      swap1\n      pop\n      jump\t// out\n        /* \"#utility.yul\":7564:7715   */\n    tag_364:\n        /* \"#utility.yul\":7639:7648   */\n      0x00\n        /* \"#utility.yul\":7672:7709   */\n      tag_518\n        /* \"#utility.yul\":7703:7708   */\n      dup3\n        /* \"#utility.yul\":7672:7709   */\n      tag_363\n      jump\t// in\n    tag_518:\n        /* \"#utility.yul\":7659:7709   */\n      swap1\n      pop\n        /* \"#utility.yul\":7564:7715   */\n      swap2\n      swap1\n      pop\n      jump\t// out\n        /* \"#utility.yul\":7721:7902   */\n    tag_365:\n        /* \"#utility.yul\":7833:7895   */\n      tag_520\n        /* \"#utility.yul\":7889:7894   */\n      dup2\n        /* \"#utility.yul\":7833:7895   */\n      tag_364\n      jump\t// in\n    tag_520:\n        /* \"#utility.yul\":7828:7831   */\n      dup3\n        /* \"#utility.yul\":7821:7896   */\n      mstore\n        /* \"#utility.yul\":7721:7902   */\n      pop\n      pop\n      jump\t// out\n        /* \"#utility.yul\":7908:8180   */\n    tag_47:\n        /* \"#utility.yul\":8026:8030   */\n      0x00\n        /* \"#utility.yul\":8064:8066   */\n      0x20\n        /* \"#utility.yul\":8053:8062   */\n      dup3\n        /* \"#utility.yul\":8049:8067   */\n      add\n        /* \"#utility.yul\":8041:8067   */\n      swap1\n      pop\n        /* \"#utility.yul\":8077:8173   */\n      tag_522\n        /* \"#utility.yul\":8170:8171   */\n      0x00\n        /* \"#utility.yul\":8159:8168   */\n      dup4\n        /* \"#utility.yul\":8155:8172   */\n      add\n        /* \"#utility.yul\":8146:8152   */\n      dup5\n        /* \"#utility.yul\":8077:8173   */\n      tag_365\n      jump\t// in\n    tag_522:\n        /* \"#utility.yul\":7908:8180   */\n      swap3\n      swap2\n      pop\n      pop\n      jump\t// out\n        /* \"#utility.yul\":8186:8263   */\n    tag_366:\n        /* \"#utility.yul\":8223:8230   */\n      0x00\n        /* \"#utility.yul\":8252:8257   */\n      dup2\n        /* \"#utility.yul\":8241:8257   */\n      swap1\n      pop\n        /* \"#utility.yul\":8186:8263   */\n      swap2\n      swap1\n      pop\n      jump\t// out\n        /* \"#utility.yul\":8269:8391   */\n    tag_367:\n        /* \"#utility.yul\":8342:8366   */\n      tag_525\n        /* \"#utility.yul\":8360:8365   */\n      dup2\n        /* \"#utility.yul\":8342:8366   */\n      tag_366\n      jump\t// in\n    tag_525:\n        /* \"#utility.yul\":8335:8340   */\n      dup2\n        /* \"#utility.yul\":8332:8367   */\n      eq\n        /* \"#utility.yul\":8322:8385   */\n      tag_526\n      jumpi\n        /* \"#utility.yul\":8381:8382   */\n      0x00\n        /* \"#utility.yul\":8378:8379   */\n      0x00\n        /* \"#utility.yul\":8371:8383   */\n      revert\n        /* \"#utility.yul\":8322:8385   */\n    tag_526:\n        /* \"#utility.yul\":8269:8391   */\n      pop\n      jump\t// out\n        /* \"#utility.yul\":8397:8536   */\n    tag_368:\n        /* \"#utility.yul\":8443:8448   */\n      0x00\n        /* \"#utility.yul\":8481:8487   */\n      dup2\n        /* \"#utility.yul\":8468:8488   */\n      calldataload\n        /* \"#utility.yul\":8459:8488   */\n      swap1\n      pop\n        /* \"#utility.yul\":8497:8530   */\n      tag_528\n        /* \"#utility.yul\":8524:8529   */\n      dup2\n        /* \"#utility.yul\":8497:8530   */\n      tag_367\n      jump\t// in\n    tag_528:\n        /* \"#utility.yul\":8397:8536   */\n      swap3\n      swap2\n      pop\n      pop\n      jump\t// out\n        /* \"#utility.yul\":8542:8659   */\n    tag_369:\n        /* \"#utility.yul\":8651:8652   */\n      0x00\n        /* \"#utility.yul\":8648:8649   */\n      0x00\n        /* \"#utility.yul\":8641:8653   */\n      revert\n        /* \"#utility.yul\":8665:8845   */\n    tag_229:\n        /* \"#utility.yul\":8713:8790   */\n      0x4e487b7100000000000000000000000000000000000000000000000000000000\n        /* \"#utility.yul\":8710:8711   */\n      0x00\n        /* \"#utility.yul\":8703:8791   */\n      mstore\n        /* \"#utility.yul\":8810:8814   */\n      0x41\n        /* \"#utility.yul\":8807:8808   */\n      0x04\n        /* \"#utility.yul\":8800:8815   */\n      mstore\n        /* \"#utility.yul\":8834:8838   */\n      0x24\n        /* \"#utility.yul\":8831:8832   */\n      0x00\n        /* \"#utility.yul\":8824:8839   */\n      revert\n        /* \"#utility.yul\":8851:9132   */\n    tag_370:\n        /* \"#utility.yul\":8934:8961   */\n      tag_532\n        /* \"#utility.yul\":8956:8960   */\n      dup3\n        /* \"#utility.yul\":8934:8961   */\n      tag_349\n      jump\t// in\n    tag_532:\n        /* \"#utility.yul\":8926:8932   */\n      dup2\n        /* \"#utility.yul\":8922:8962   */\n      add\n        /* \"#utility.yul\":9064:9070   */\n      dup2\n        /* \"#utility.yul\":9052:9062   */\n      dup2\n        /* \"#utility.yul\":9049:9071   */\n      lt\n        /* \"#utility.yul\":9028:9046   */\n      0xffffffffffffffff\n        /* \"#utility.yul\":9016:9026   */\n      dup3\n        /* \"#utility.yul\":9013:9047   */\n      gt\n        /* \"#utility.yul\":9010:9072   */\n      or\n        /* \"#utility.yul\":9007:9095   */\n      iszero\n      tag_533\n      jumpi\n        /* \"#utility.yul\":9075:9093   */\n      tag_534\n      tag_229\n      jump\t// in\n    tag_534:\n        /* \"#utility.yul\":9007:9095   */\n    tag_533:\n        /* \"#utility.yul\":9115:9125   */\n      dup1\n        /* \"#utility.yul\":9111:9113   */\n      0x40\n        /* \"#utility.yul\":9104:9126   */\n      mstore\n        /* \"#utility.yul\":8894:9132   */\n      pop\n        /* \"#utility.yul\":8851:9132   */\n      pop\n      pop\n      jump\t// out\n        /* \"#utility.yul\":9138:9267   */\n    tag_371:\n        /* \"#utility.yul\":9172:9178   */\n      0x00\n        /* \"#utility.yul\":9199:9219   */\n      tag_536\n      tag_340\n      jump\t// in\n    tag_536:\n        /* \"#utility.yul\":9189:9219   */\n      swap1\n      pop\n        /* \"#utility.yul\":9228:9261   */\n      tag_537\n        /* \"#utility.yul\":9256:9260   */\n      dup3\n        /* \"#utility.yul\":9248:9254   */\n      dup3\n        /* \"#utility.yul\":9228:9261   */\n      tag_370\n      jump\t// in\n    tag_537:\n        /* \"#utility.yul\":9138:9267   */\n      swap2\n      swap1\n      pop\n      jump\t// out\n        /* \"#utility.yul\":9273:9580   */\n    tag_372:\n        /* \"#utility.yul\":9334:9338   */\n      0x00\n        /* \"#utility.yul\":9424:9442   */\n      0xffffffffffffffff\n        /* \"#utility.yul\":9416:9422   */\n      dup3\n        /* \"#utility.yul\":9413:9443   */\n      gt\n        /* \"#utility.yul\":9410:9466   */\n      iszero\n      tag_539\n      jumpi\n        /* \"#utility.yul\":9446:9464   */\n      tag_540\n      tag_229\n      jump\t// in\n    tag_540:\n        /* \"#utility.yul\":9410:9466   */\n    tag_539:\n        /* \"#utility.yul\":9484:9513   */\n      tag_541\n        /* \"#utility.yul\":9506:9512   */\n      dup3\n        /* \"#utility.yul\":9484:9513   */\n      tag_349\n      jump\t// in\n    tag_541:\n        /* \"#utility.yul\":9476:9513   */\n      swap1\n      pop\n        /* \"#utility.yul\":9568:9572   */\n      0x20\n        /* \"#utility.yul\":9562:9566   */\n      dup2\n        /* \"#utility.yul\":9558:9573   */\n      add\n        /* \"#utility.yul\":9550:9573   */\n      swap1\n      pop\n        /* \"#utility.yul\":9273:9580   */\n      swap2\n      swap1\n      pop\n      jump\t// out\n        /* \"#utility.yul\":9586:9734   */\n    tag_373:\n        /* \"#utility.yul\":9684:9690   */\n      dup3\n        /* \"#utility.yul\":9679:9682   */\n      dup2\n        /* \"#utility.yul\":9674:9677   */\n      dup4\n        /* \"#utility.yul\":9661:9691   */\n      calldatacopy\n        /* \"#utility.yul\":9725:9726   */\n      0x00\n        /* \"#utility.yul\":9716:9722   */\n      dup4\n        /* \"#utility.yul\":9711:9714   */\n      dup4\n        /* \"#utility.yul\":9707:9723   */\n      add\n        /* \"#utility.yul\":9700:9727   */\n      mstore\n        /* \"#utility.yul\":9586:9734   */\n      pop\n      pop\n      pop\n      jump\t// out\n        /* \"#utility.yul\":9740:10163   */\n    tag_374:\n        /* \"#utility.yul\":9817:9822   */\n      0x00\n        /* \"#utility.yul\":9842:9907   */\n      tag_544\n        /* \"#utility.yul\":9858:9906   */\n      tag_545\n        /* \"#utility.yul\":9899:9905   */\n      dup5\n        /* \"#utility.yul\":9858:9906   */\n      tag_372\n      jump\t// in\n    tag_545:\n        /* \"#utility.yul\":9842:9907   */\n      tag_371\n      jump\t// in\n    tag_544:\n        /* \"#utility.yul\":9833:9907   */\n      swap1\n      pop\n        /* \"#utility.yul\":9930:9936   */\n      dup3\n        /* \"#utility.yul\":9923:9928   */\n      dup2\n        /* \"#utility.yul\":9916:9937   */\n      mstore\n        /* \"#utility.yul\":9968:9972   */\n      0x20\n        /* \"#utility.yul\":9961:9966   */\n      dup2\n        /* \"#utility.yul\":9957:9973   */\n      add\n        /* \"#utility.yul\":10006:10009   */\n      dup5\n        /* \"#utility.yul\":9997:10003   */\n      dup5\n        /* \"#utility.yul\":9992:9995   */\n      dup5\n        /* \"#utility.yul\":9988:10004   */\n      add\n        /* \"#utility.yul\":9985:10010   */\n      gt\n        /* \"#utility.yul\":9982:10094   */\n      iszero\n      tag_546\n      jumpi\n        /* \"#utility.yul\":10013:10092   */\n      tag_547\n      tag_369\n      jump\t// in\n    tag_547:\n        /* \"#utility.yul\":9982:10094   */\n    tag_546:\n        /* \"#utility.yul\":10103:10157   */\n      tag_548\n        /* \"#utility.yul\":10150:10156   */\n      dup5\n        /* \"#utility.yul\":10145:10148   */\n      dup3\n        /* \"#utility.yul\":10140:10143   */\n      dup6\n        /* \"#utility.yul\":10103:10157   */\n      tag_373\n      jump\t// in\n    tag_548:\n        /* \"#utility.yul\":9823:10163   */\n      pop\n        /* \"#utility.yul\":9740:10163   */\n      swap4\n      swap3\n      pop\n      pop\n      pop\n      jump\t// out\n        /* \"#utility.yul\":10182:10520   */\n    tag_375:\n        /* \"#utility.yul\":10237:10242   */\n      0x00\n        /* \"#utility.yul\":10286:10289   */\n      dup3\n        /* \"#utility.yul\":10279:10283   */\n      0x1f\n        /* \"#utility.yul\":10271:10277   */\n      dup4\n        /* \"#utility.yul\":10267:10284   */\n      add\n        /* \"#utility.yul\":10263:10290   */\n      slt\n        /* \"#utility.yul\":10253:10375   */\n      tag_550\n      jumpi\n        /* \"#utility.yul\":10294:10373   */\n      tag_551\n      tag_354\n      jump\t// in\n    tag_551:\n        /* \"#utility.yul\":10253:10375   */\n    tag_550:\n        /* \"#utility.yul\":10411:10417   */\n      dup2\n        /* \"#utility.yul\":10398:10418   */\n      calldataload\n        /* \"#utility.yul\":10436:10514   */\n      tag_552\n        /* \"#utility.yul\":10510:10513   */\n      dup5\n        /* \"#utility.yul\":10502:10508   */\n      dup3\n        /* \"#utility.yul\":10495:10499   */\n      0x20\n        /* \"#utility.yul\":10487:10493   */\n      dup7\n        /* \"#utility.yul\":10483:10500   */\n      add\n        /* \"#utility.yul\":10436:10514   */\n      tag_374\n      jump\t// in\n    tag_552:\n        /* \"#utility.yul\":10427:10514   */\n      swap2\n      pop\n        /* \"#utility.yul\":10243:10520   */\n      pop\n        /* \"#utility.yul\":10182:10520   */\n      swap3\n      swap2\n      pop\n      pop\n      jump\t// out\n        /* \"#utility.yul\":10526:11178   */\n    tag_62:\n        /* \"#utility.yul\":10603:10609   */\n      0x00\n        /* \"#utility.yul\":10611:10617   */\n      0x00\n        /* \"#utility.yul\":10660:10662   */\n      0x40\n        /* \"#utility.yul\":10648:10657   */\n      dup4\n        /* \"#utility.yul\":10639:10646   */\n      dup6\n        /* \"#utility.yul\":10635:10658   */\n      sub\n        /* \"#utility.yul\":10631:10663   */\n      slt\n        /* \"#utility.yul\":10628:10747   */\n      iszero\n      tag_554\n      jumpi\n        /* \"#utility.yul\":10666:10745   */\n      tag_555\n      tag_341\n      jump\t// in\n    tag_555:\n        /* \"#utility.yul\":10628:10747   */\n    tag_554:\n        /* \"#utility.yul\":10786:10787   */\n      0x00\n        /* \"#utility.yul\":10811:10864   */\n      tag_556\n        /* \"#utility.yul\":10856:10863   */\n      dup6\n        /* \"#utility.yul\":10847:10853   */\n      dup3\n        /* \"#utility.yul\":10836:10845   */\n      dup7\n        /* \"#utility.yul\":10832:10854   */\n      add\n        /* \"#utility.yul\":10811:10864   */\n      tag_368\n      jump\t// in\n    tag_556:\n        /* \"#utility.yul\":10801:10864   */\n      swap3\n      pop\n        /* \"#utility.yul\":10757:10874   */\n      pop\n        /* \"#utility.yul\":10941:10943   */\n      0x20\n        /* \"#utility.yul\":10930:10939   */\n      dup4\n        /* \"#utility.yul\":10926:10944   */\n      add\n        /* \"#utility.yul\":10913:10945   */\n      calldataload\n        /* \"#utility.yul\":10972:10990   */\n      0xffffffffffffffff\n        /* \"#utility.yul\":10964:10970   */\n      dup2\n        /* \"#utility.yul\":10961:10991   */\n      gt\n        /* \"#utility.yul\":10958:11075   */\n      iszero\n      tag_557\n      jumpi\n        /* \"#utility.yul\":10994:11073   */\n      tag_558\n      tag_342\n      jump\t// in\n    tag_558:\n        /* \"#utility.yul\":10958:11075   */\n    tag_557:\n        /* \"#utility.yul\":11099:11161   */\n      tag_559\n        /* \"#utility.yul\":11153:11160   */\n      dup6\n        /* \"#utility.yul\":11144:11150   */\n      dup3\n        /* \"#utility.yul\":11133:11142   */\n      dup7\n        /* \"#utility.yul\":11129:11151   */\n      add\n        /* \"#utility.yul\":11099:11161   */\n      tag_375\n      jump\t// in\n    tag_559:\n        /* \"#utility.yul\":11089:11161   */\n      swap2\n      pop\n        /* \"#utility.yul\":10884:11171   */\n      pop\n        /* \"#utility.yul\":10526:11178   */\n      swap3\n      pop\n      swap3\n      swap1\n      pop\n      jump\t// out\n        /* \"#utility.yul\":11184:11274   */\n    tag_376:\n        /* \"#utility.yul\":11218:11225   */\n      0x00\n        /* \"#utility.yul\":11261:11266   */\n      dup2\n        /* \"#utility.yul\":11254:11267   */\n      iszero\n        /* \"#utility.yul\":11247:11268   */\n      iszero\n        /* \"#utility.yul\":11236:11268   */\n      swap1\n      pop\n        /* \"#utility.yul\":11184:11274   */\n      swap2\n      swap1\n      pop\n      jump\t// out\n        /* \"#utility.yul\":11280:11389   */\n    tag_377:\n        /* \"#utility.yul\":11361:11382   */\n      tag_562\n        /* \"#utility.yul\":11376:11381   */\n      dup2\n        /* \"#utility.yul\":11361:11382   */\n      tag_376\n      jump\t// in\n    tag_562:\n        /* \"#utility.yul\":11356:11359   */\n      dup3\n        /* \"#utility.yul\":11349:11383   */\n      mstore\n        /* \"#utility.yul\":11280:11389   */\n      pop\n      pop\n      jump\t// out\n        /* \"#utility.yul\":11395:11605   */\n    tag_69:\n        /* \"#utility.yul\":11482:11486   */\n      0x00\n        /* \"#utility.yul\":11520:11522   */\n      0x20\n        /* \"#utility.yul\":11509:11518   */\n      dup3\n        /* \"#utility.yul\":11505:11523   */\n      add\n        /* \"#utility.yul\":11497:11523   */\n      swap1\n      pop\n        /* \"#utility.yul\":11533:11598   */\n      tag_564\n        /* \"#utility.yul\":11595:11596   */\n      0x00\n        /* \"#utility.yul\":11584:11593   */\n      dup4\n        /* \"#utility.yul\":11580:11597   */\n      add\n        /* \"#utility.yul\":11571:11577   */\n      dup5\n        /* \"#utility.yul\":11533:11598   */\n      tag_377\n      jump\t// in\n    tag_564:\n        /* \"#utility.yul\":11395:11605   */\n      swap3\n      swap2\n      pop\n      pop\n      jump\t// out\n        /* \"#utility.yul\":11611:11756   */\n    tag_378:\n        /* \"#utility.yul\":11680:11689   */\n      0x00\n        /* \"#utility.yul\":11713:11750   */\n      tag_566\n        /* \"#utility.yul\":11744:11749   */\n      dup3\n        /* \"#utility.yul\":11713:11750   */\n      tag_363\n      jump\t// in\n    tag_566:\n        /* \"#utility.yul\":11700:11750   */\n      swap1\n      pop\n        /* \"#utility.yul\":11611:11756   */\n      swap2\n      swap1\n      pop\n      jump\t// out\n        /* \"#utility.yul\":11762:11931   */\n    tag_379:\n        /* \"#utility.yul\":11868:11924   */\n      tag_568\n        /* \"#utility.yul\":11918:11923   */\n      dup2\n        /* \"#utility.yul\":11868:11924   */\n      tag_378\n      jump\t// in\n    tag_568:\n        /* \"#utility.yul\":11863:11866   */\n      dup3\n        /* \"#utility.yul\":11856:11925   */\n      mstore\n        /* \"#utility.yul\":11762:11931   */\n      pop\n      pop\n      jump\t// out\n        /* \"#utility.yul\":11937:12197   */\n    tag_73:\n        /* \"#utility.yul\":12049:12053   */\n      0x00\n        /* \"#utility.yul\":12087:12089   */\n      0x20\n        /* \"#utility.yul\":12076:12085   */\n      dup3\n        /* \"#utility.yul\":12072:12090   */\n      add\n        /* \"#utility.yul\":12064:12090   */\n      swap1\n      pop\n        /* \"#utility.yul\":12100:12190   */\n      tag_570\n        /* \"#utility.yul\":12187:12188   */\n      0x00\n        /* \"#utility.yul\":12176:12185   */\n      dup4\n        /* \"#utility.yul\":12172:12189   */\n      add\n        /* \"#utility.yul\":12163:12169   */\n      dup5\n        /* \"#utility.yul\":12100:12190   */\n      tag_379\n      jump\t// in\n    tag_570:\n        /* \"#utility.yul\":11937:12197   */\n      swap3\n      swap2\n      pop\n      pop\n      jump\t// out\n        /* \"#utility.yul\":12203:12355   */\n    tag_380:\n        /* \"#utility.yul\":12279:12288   */\n      0x00\n        /* \"#utility.yul\":12312:12349   */\n      tag_572\n        /* \"#utility.yul\":12343:12348   */\n      dup3\n        /* \"#utility.yul\":12312:12349   */\n      tag_363\n      jump\t// in\n    tag_572:\n        /* \"#utility.yul\":12299:12349   */\n      swap1\n      pop\n        /* \"#utility.yul\":12203:12355   */\n      swap2\n      swap1\n      pop\n      jump\t// out\n        /* \"#utility.yul\":12361:12544   */\n    tag_381:\n        /* \"#utility.yul\":12474:12537   */\n      tag_574\n        /* \"#utility.yul\":12531:12536   */\n      dup2\n        /* \"#utility.yul\":12474:12537   */\n      tag_380\n      jump\t// in\n    tag_574:\n        /* \"#utility.yul\":12469:12472   */\n      dup3\n        /* \"#utility.yul\":12462:12538   */\n      mstore\n        /* \"#utility.yul\":12361:12544   */\n      pop\n      pop\n      jump\t// out\n        /* \"#utility.yul\":12550:12824   */\n    tag_77:\n        /* \"#utility.yul\":12669:12673   */\n      0x00\n        /* \"#utility.yul\":12707:12709   */\n      0x20\n        /* \"#utility.yul\":12696:12705   */\n      dup3\n        /* \"#utility.yul\":12692:12710   */\n      add\n        /* \"#utility.yul\":12684:12710   */\n      swap1\n      pop\n        /* \"#utility.yul\":12720:12817   */\n      tag_576\n        /* \"#utility.yul\":12814:12815   */\n      0x00\n        /* \"#utility.yul\":12803:12812   */\n      dup4\n        /* \"#utility.yul\":12799:12816   */\n      add\n        /* \"#utility.yul\":12790:12796   */\n      dup5\n        /* \"#utility.yul\":12720:12817   */\n      tag_381\n      jump\t// in\n    tag_576:\n        /* \"#utility.yul\":12550:12824   */\n      swap3\n      swap2\n      pop\n      pop\n      jump\t// out\n        /* \"#utility.yul\":12830:12929   */\n    tag_382:\n        /* \"#utility.yul\":12882:12888   */\n      0x00\n        /* \"#utility.yul\":12916:12921   */\n      dup2\n        /* \"#utility.yul\":12910:12922   */\n      mload\n        /* \"#utility.yul\":12900:12922   */\n      swap1\n      pop\n        /* \"#utility.yul\":12830:12929   */\n      swap2\n      swap1\n      pop\n      jump\t// out\n        /* \"#utility.yul\":12935:13104   */\n    tag_383:\n        /* \"#utility.yul\":13019:13030   */\n      0x00\n        /* \"#utility.yul\":13053:13059   */\n      dup3\n        /* \"#utility.yul\":13048:13051   */\n      dup3\n        /* \"#utility.yul\":13041:13060   */\n      mstore\n        /* \"#utility.yul\":13093:13097   */\n      0x20\n        /* \"#utility.yul\":13088:13091   */\n      dup3\n        /* \"#utility.yul\":13084:13098   */\n      add\n        /* \"#utility.yul\":13069:13098   */\n      swap1\n      pop\n        /* \"#utility.yul\":12935:13104   */\n      swap3\n      swap2\n      pop\n      pop\n      jump\t// out\n        /* \"#utility.yul\":13110:13487   */\n    tag_384:\n        /* \"#utility.yul\":13198:13201   */\n      0x00\n        /* \"#utility.yul\":13226:13265   */\n      tag_580\n        /* \"#utility.yul\":13259:13264   */\n      dup3\n        /* \"#utility.yul\":13226:13265   */\n      tag_382\n      jump\t// in\n    tag_580:\n        /* \"#utility.yul\":13281:13352   */\n      tag_581\n        /* \"#utility.yul\":13345:13351   */\n      dup2\n        /* \"#utility.yul\":13340:13343   */\n      dup6\n        /* \"#utility.yul\":13281:13352   */\n      tag_383\n      jump\t// in\n    tag_581:\n        /* \"#utility.yul\":13274:13352   */\n      swap4\n      pop\n        /* \"#utility.yul\":13361:13426   */\n      tag_582\n        /* \"#utility.yul\":13419:13425   */\n      dup2\n        /* \"#utility.yul\":13414:13417   */\n      dup6\n        /* \"#utility.yul\":13407:13411   */\n      0x20\n        /* \"#utility.yul\":13400:13405   */\n      dup7\n        /* \"#utility.yul\":13396:13412   */\n      add\n        /* \"#utility.yul\":13361:13426   */\n      tag_348\n      jump\t// in\n    tag_582:\n        /* \"#utility.yul\":13451:13480   */\n      tag_583\n        /* \"#utility.yul\":13473:13479   */\n      dup2\n        /* \"#utility.yul\":13451:13480   */\n      tag_349\n      jump\t// in\n    tag_583:\n        /* \"#utility.yul\":13446:13449   */\n      dup5\n        /* \"#utility.yul\":13442:13481   */\n      add\n        /* \"#utility.yul\":13435:13481   */\n      swap2\n      pop\n        /* \"#utility.yul\":13202:13487   */\n      pop\n        /* \"#utility.yul\":13110:13487   */\n      swap3\n      swap2\n      pop\n      pop\n      jump\t// out\n        /* \"#utility.yul\":13493:13806   */\n    tag_82:\n        /* \"#utility.yul\":13606:13610   */\n      0x00\n        /* \"#utility.yul\":13644:13646   */\n      0x20\n        /* \"#utility.yul\":13633:13642   */\n      dup3\n        /* \"#utility.yul\":13629:13647   */\n      add\n        /* \"#utility.yul\":13621:13647   */\n      swap1\n      pop\n        /* \"#utility.yul\":13693:13702   */\n      dup2\n        /* \"#utility.yul\":13687:13691   */\n      dup2\n        /* \"#utility.yul\":13683:13703   */\n      sub\n        /* \"#utility.yul\":13679:13680   */\n      0x00\n        /* \"#utility.yul\":13668:13677   */\n      dup4\n        /* \"#utility.yul\":13664:13681   */\n      add\n        /* \"#utility.yul\":13657:13704   */\n      mstore\n        /* \"#utility.yul\":13721:13799   */\n      tag_585\n        /* \"#utility.yul\":13794:13798   */\n      dup2\n        /* \"#utility.yul\":13785:13791   */\n      dup5\n        /* \"#utility.yul\":13721:13799   */\n      tag_384\n      jump\t// in\n    tag_585:\n        /* \"#utility.yul\":13713:13799   */\n      swap1\n      pop\n        /* \"#utility.yul\":13493:13806   */\n      swap3\n      swap2\n      pop\n      pop\n      jump\t// out\n        /* \"#utility.yul\":13812:13956   */\n    tag_385:\n        /* \"#utility.yul\":13880:13889   */\n      0x00\n        /* \"#utility.yul\":13913:13950   */\n      tag_587\n        /* \"#utility.yul\":13944:13949   */\n      dup3\n        /* \"#utility.yul\":13913:13950   */\n      tag_363\n      jump\t// in\n    tag_587:\n        /* \"#utility.yul\":13900:13950   */\n      swap1\n      pop\n        /* \"#utility.yul\":13812:13956   */\n      swap2\n      swap1\n      pop\n      jump\t// out\n        /* \"#utility.yul\":13962:14129   */\n    tag_386:\n        /* \"#utility.yul\":14067:14122   */\n      tag_589\n        /* \"#utility.yul\":14116:14121   */\n      dup2\n        /* \"#utility.yul\":14067:14122   */\n      tag_385\n      jump\t// in\n    tag_589:\n        /* \"#utility.yul\":14062:14065   */\n      dup3\n        /* \"#utility.yul\":14055:14123   */\n      mstore\n        /* \"#utility.yul\":13962:14129   */\n      pop\n      pop\n      jump\t// out\n        /* \"#utility.yul\":14135:14393   */\n    tag_86:\n        /* \"#utility.yul\":14246:14250   */\n      0x00\n        /* \"#utility.yul\":14284:14286   */\n      0x20\n        /* \"#utility.yul\":14273:14282   */\n      dup3\n        /* \"#utility.yul\":14269:14287   */\n      add\n        /* \"#utility.yul\":14261:14287   */\n      swap1\n      pop\n        /* \"#utility.yul\":14297:14386   */\n      tag_591\n        /* \"#utility.yul\":14383:14384   */\n      0x00\n        /* \"#utility.yul\":14372:14381   */\n      dup4\n        /* \"#utility.yul\":14368:14385   */\n      add\n        /* \"#utility.yul\":14359:14365   */\n      dup5\n        /* \"#utility.yul\":14297:14386   */\n      tag_386\n      jump\t// in\n    tag_591:\n        /* \"#utility.yul\":14135:14393   */\n      swap3\n      swap2\n      pop\n      pop\n      jump\t// out\n        /* \"#utility.yul\":14399:14521   */\n    tag_387:\n        /* \"#utility.yul\":14472:14496   */\n      tag_593\n        /* \"#utility.yul\":14490:14495   */\n      dup2\n        /* \"#utility.yul\":14472:14496   */\n      tag_359\n      jump\t// in\n    tag_593:\n        /* \"#utility.yul\":14465:14470   */\n      dup2\n        /* \"#utility.yul\":14462:14497   */\n      eq\n        /* \"#utility.yul\":14452:14515   */\n      tag_594\n      jumpi\n        /* \"#utility.yul\":14511:14512   */\n      0x00\n        /* \"#utility.yul\":14508:14509   */\n      0x00\n        /* \"#utility.yul\":14501:14513   */\n      revert\n        /* \"#utility.yul\":14452:14515   */\n    tag_594:\n        /* \"#utility.yul\":14399:14521   */\n      pop\n      jump\t// out\n        /* \"#utility.yul\":14527:14666   */\n    tag_388:\n        /* \"#utility.yul\":14573:14578   */\n      0x00\n        /* \"#utility.yul\":14611:14617   */\n      dup2\n        /* \"#utility.yul\":14598:14618   */\n      calldataload\n        /* \"#utility.yul\":14589:14618   */\n      swap1\n      pop\n        /* \"#utility.yul\":14627:14660   */\n      tag_596\n        /* \"#utility.yul\":14654:14659   */\n      dup2\n        /* \"#utility.yul\":14627:14660   */\n      tag_387\n      jump\t// in\n    tag_596:\n        /* \"#utility.yul\":14527:14666   */\n      swap3\n      swap2\n      pop\n      pop\n      jump\t// out\n        /* \"#utility.yul\":14672:15001   */\n    tag_89:\n        /* \"#utility.yul\":14731:14737   */\n      0x00\n        /* \"#utility.yul\":14780:14782   */\n      0x20\n        /* \"#utility.yul\":14768:14777   */\n      dup3\n        /* \"#utility.yul\":14759:14766   */\n      dup5\n        /* \"#utility.yul\":14755:14778   */\n      sub\n        /* \"#utility.yul\":14751:14783   */\n      slt\n        /* \"#utility.yul\":14748:14867   */\n      iszero\n      tag_598\n      jumpi\n        /* \"#utility.yul\":14786:14865   */\n      tag_599\n      tag_341\n      jump\t// in\n    tag_599:\n        /* \"#utility.yul\":14748:14867   */\n    tag_598:\n        /* \"#utility.yul\":14906:14907   */\n      0x00\n        /* \"#utility.yul\":14931:14984   */\n      tag_600\n        /* \"#utility.yul\":14976:14983   */\n      dup5\n        /* \"#utility.yul\":14967:14973   */\n      dup3\n        /* \"#utility.yul\":14956:14965   */\n      dup6\n        /* \"#utility.yul\":14952:14974   */\n      add\n        /* \"#utility.yul\":14931:14984   */\n      tag_388\n      jump\t// in\n    tag_600:\n        /* \"#utility.yul\":14921:14984   */\n      swap2\n      pop\n        /* \"#utility.yul\":14877:14994   */\n      pop\n        /* \"#utility.yul\":14672:15001   */\n      swap3\n      swap2\n      pop\n      pop\n      jump\t// out\n        /* \"#utility.yul\":15007:15157   */\n    tag_389:\n        /* \"#utility.yul\":15081:15090   */\n      0x00\n        /* \"#utility.yul\":15114:15151   */\n      tag_602\n        /* \"#utility.yul\":15145:15150   */\n      dup3\n        /* \"#utility.yul\":15114:15151   */\n      tag_363\n      jump\t// in\n    tag_602:\n        /* \"#utility.yul\":15101:15151   */\n      swap1\n      pop\n        /* \"#utility.yul\":15007:15157   */\n      swap2\n      swap1\n      pop\n      jump\t// out\n        /* \"#utility.yul\":15163:15342   */\n    tag_390:\n        /* \"#utility.yul\":15274:15335   */\n      tag_604\n        /* \"#utility.yul\":15329:15334   */\n      dup2\n        /* \"#utility.yul\":15274:15335   */\n      tag_389\n      jump\t// in\n    tag_604:\n        /* \"#utility.yul\":15269:15272   */\n      dup3\n        /* \"#utility.yul\":15262:15336   */\n      mstore\n        /* \"#utility.yul\":15163:15342   */\n      pop\n      pop\n      jump\t// out\n        /* \"#utility.yul\":15348:15618   */\n    tag_94:\n        /* \"#utility.yul\":15465:15469   */\n      0x00\n        /* \"#utility.yul\":15503:15505   */\n      0x20\n        /* \"#utility.yul\":15492:15501   */\n      dup3\n        /* \"#utility.yul\":15488:15506   */\n      add\n        /* \"#utility.yul\":15480:15506   */\n      swap1\n      pop\n        /* \"#utility.yul\":15516:15611   */\n      tag_606\n        /* \"#utility.yul\":15608:15609   */\n      0x00\n        /* \"#utility.yul\":15597:15606   */\n      dup4\n        /* \"#utility.yul\":15593:15610   */\n      add\n        /* \"#utility.yul\":15584:15590   */\n      dup5\n        /* \"#utility.yul\":15516:15611   */\n      tag_390\n      jump\t// in\n    tag_606:\n        /* \"#utility.yul\":15348:15618   */\n      swap3\n      swap2\n      pop\n      pop\n      jump\t// out\n        /* \"#utility.yul\":15624:15953   */\n    tag_97:\n        /* \"#utility.yul\":15683:15689   */\n      0x00\n        /* \"#utility.yul\":15732:15734   */\n      0x20\n        /* \"#utility.yul\":15720:15729   */\n      dup3\n        /* \"#utility.yul\":15711:15718   */\n      dup5\n        /* \"#utility.yul\":15707:15730   */\n      sub\n        /* \"#utility.yul\":15703:15735   */\n      slt\n        /* \"#utility.yul\":15700:15819   */\n      iszero\n      tag_608\n      jumpi\n        /* \"#utility.yul\":15738:15817   */\n      tag_609\n      tag_341\n      jump\t// in\n    tag_609:\n        /* \"#utility.yul\":15700:15819   */\n    tag_608:\n        /* \"#utility.yul\":15858:15859   */\n      0x00\n        /* \"#utility.yul\":15883:15936   */\n      tag_610\n        /* \"#utility.yul\":15928:15935   */\n      dup5\n        /* \"#utility.yul\":15919:15925   */\n      dup3\n        /* \"#utility.yul\":15908:15917   */\n      dup6\n        /* \"#utility.yul\":15904:15926   */\n      add\n        /* \"#utility.yul\":15883:15936   */\n      tag_368\n      jump\t// in\n    tag_610:\n        /* \"#utility.yul\":15873:15936   */\n      swap2\n      pop\n        /* \"#utility.yul\":15829:15946   */\n      pop\n        /* \"#utility.yul\":15624:15953   */\n      swap3\n      swap2\n      pop\n      pop\n      jump\t// out\n        /* \"#utility.yul\":15959:16077   */\n    tag_391:\n        /* \"#utility.yul\":16046:16070   */\n      tag_612\n        /* \"#utility.yul\":16064:16069   */\n      dup2\n        /* \"#utility.yul\":16046:16070   */\n      tag_366\n      jump\t// in\n    tag_612:\n        /* \"#utility.yul\":16041:16044   */\n      dup3\n        /* \"#utility.yul\":16034:16071   */\n      mstore\n        /* \"#utility.yul\":15959:16077   */\n      pop\n      pop\n      jump\t// out\n        /* \"#utility.yul\":16083:16305   */\n    tag_100:\n        /* \"#utility.yul\":16176:16180   */\n      0x00\n        /* \"#utility.yul\":16214:16216   */\n      0x20\n        /* \"#utility.yul\":16203:16212   */\n      dup3\n        /* \"#utility.yul\":16199:16217   */\n      add\n        /* \"#utility.yul\":16191:16217   */\n      swap1\n      pop\n        /* \"#utility.yul\":16227:16298   */\n      tag_614\n        /* \"#utility.yul\":16295:16296   */\n      0x00\n        /* \"#utility.yul\":16284:16293   */\n      dup4\n        /* \"#utility.yul\":16280:16297   */\n      add\n        /* \"#utility.yul\":16271:16277   */\n      dup5\n        /* \"#utility.yul\":16227:16298   */\n      tag_391\n      jump\t// in\n    tag_614:\n        /* \"#utility.yul\":16083:16305   */\n      swap3\n      swap2\n      pop\n      pop\n      jump\t// out\n        /* \"#utility.yul\":16311:16390   */\n    tag_392:\n        /* \"#utility.yul\":16350:16357   */\n      0x00\n        /* \"#utility.yul\":16379:16384   */\n      dup2\n        /* \"#utility.yul\":16368:16384   */\n      swap1\n      pop\n        /* \"#utility.yul\":16311:16390   */\n      swap2\n      swap1\n      pop\n      jump\t// out\n        /* \"#utility.yul\":16396:16553   */\n    tag_393:\n        /* \"#utility.yul\":16501:16546   */\n      tag_617\n        /* \"#utility.yul\":16521:16545   */\n      tag_618\n        /* \"#utility.yul\":16539:16544   */\n      dup3\n        /* \"#utility.yul\":16521:16545   */\n      tag_343\n      jump\t// in\n    tag_618:\n        /* \"#utility.yul\":16501:16546   */\n      tag_392\n      jump\t// in\n    tag_617:\n        /* \"#utility.yul\":16496:16499   */\n      dup3\n        /* \"#utility.yul\":16489:16547   */\n      mstore\n        /* \"#utility.yul\":16396:16553   */\n      pop\n      pop\n      jump\t// out\n        /* \"#utility.yul\":16559:16815   */\n    tag_103:\n        /* \"#utility.yul\":16671:16674   */\n      0x00\n        /* \"#utility.yul\":16686:16761   */\n      tag_620\n        /* \"#utility.yul\":16757:16760   */\n      dup3\n        /* \"#utility.yul\":16748:16754   */\n      dup5\n        /* \"#utility.yul\":16686:16761   */\n      tag_393\n      jump\t// in\n    tag_620:\n        /* \"#utility.yul\":16786:16788   */\n      0x20\n        /* \"#utility.yul\":16781:16784   */\n      dup3\n        /* \"#utility.yul\":16777:16789   */\n      add\n        /* \"#utility.yul\":16770:16789   */\n      swap2\n      pop\n        /* \"#utility.yul\":16806:16809   */\n      dup2\n        /* \"#utility.yul\":16799:16809   */\n      swap1\n      pop\n        /* \"#utility.yul\":16559:16815   */\n      swap3\n      swap2\n      pop\n      pop\n      jump\t// out\n        /* \"#utility.yul\":16821:16920   */\n    tag_394:\n        /* \"#utility.yul\":16906:16912   */\n      dup3\n        /* \"#utility.yul\":16901:16904   */\n      dup2\n        /* \"#utility.yul\":16896:16899   */\n      dup4\n        /* \"#utility.yul\":16883:16913   */\n      calldatacopy\n        /* \"#utility.yul\":16821:16920   */\n      pop\n      pop\n      pop\n      jump\t// out\n        /* \"#utility.yul\":16958:17130   */\n    tag_395:\n        /* \"#utility.yul\":17081:17124   */\n      tag_623\n        /* \"#utility.yul\":17117:17123   */\n      0x0100\n        /* \"#utility.yul\":17112:17115   */\n      dup4\n        /* \"#utility.yul\":17105:17110   */\n      dup4\n        /* \"#utility.yul\":17081:17124   */\n      tag_394\n      jump\t// in\n    tag_623:\n        /* \"#utility.yul\":16958:17130   */\n      pop\n      pop\n      jump\t// out\n        /* \"#utility.yul\":17168:17338   */\n    tag_396:\n        /* \"#utility.yul\":17291:17332   */\n      tag_625\n        /* \"#utility.yul\":17327:17331   */\n      0xe0\n        /* \"#utility.yul\":17322:17325   */\n      dup4\n        /* \"#utility.yul\":17315:17320   */\n      dup4\n        /* \"#utility.yul\":17291:17332   */\n      tag_394\n      jump\t// in\n    tag_625:\n        /* \"#utility.yul\":17168:17338   */\n      pop\n      pop\n      jump\t// out\n        /* \"#utility.yul\":17344:17870   */\n    tag_106:\n        /* \"#utility.yul\":17561:17565   */\n      0x00\n        /* \"#utility.yul\":17599:17602   */\n      0x01e0\n        /* \"#utility.yul\":17588:17597   */\n      dup3\n        /* \"#utility.yul\":17584:17603   */\n      add\n        /* \"#utility.yul\":17576:17603   */\n      swap1\n      pop\n        /* \"#utility.yul\":17613:17732   */\n      tag_627\n        /* \"#utility.yul\":17729:17730   */\n      0x00\n        /* \"#utility.yul\":17718:17727   */\n      dup4\n        /* \"#utility.yul\":17714:17731   */\n      add\n        /* \"#utility.yul\":17705:17711   */\n      dup6\n        /* \"#utility.yul\":17613:17732   */\n      tag_395\n      jump\t// in\n    tag_627:\n        /* \"#utility.yul\":17742:17863   */\n      tag_628\n        /* \"#utility.yul\":17858:17861   */\n      0x0100\n        /* \"#utility.yul\":17847:17856   */\n      dup4\n        /* \"#utility.yul\":17843:17862   */\n      add\n        /* \"#utility.yul\":17834:17840   */\n      dup5\n        /* \"#utility.yul\":17742:17863   */\n      tag_396\n      jump\t// in\n    tag_628:\n        /* \"#utility.yul\":17344:17870   */\n      swap4\n      swap3\n      pop\n      pop\n      pop\n      jump\t// out\n        /* \"#utility.yul\":17876:18056   */\n    tag_112:\n        /* \"#utility.yul\":17924:18001   */\n      0x4e487b7100000000000000000000000000000000000000000000000000000000\n        /* \"#utility.yul\":17921:17922   */\n      0x00\n        /* \"#utility.yul\":17914:18002   */\n      mstore\n        /* \"#utility.yul\":18021:18025   */\n      0x32\n        /* \"#utility.yul\":18018:18019   */\n      0x04\n        /* \"#utility.yul\":18011:18026   */\n      mstore\n        /* \"#utility.yul\":18045:18049   */\n      0x24\n        /* \"#utility.yul\":18042:18043   */\n      0x00\n        /* \"#utility.yul\":18035:18050   */\n      revert\n        /* \"#utility.yul\":18062:18235   */\n    tag_397:\n        /* \"#utility.yul\":18202:18227   */\n      0x57726f6e672064657374696e6174696f6e20636861696e000000000000000000\n        /* \"#utility.yul\":18198:18199   */\n      0x00\n        /* \"#utility.yul\":18190:18196   */\n      dup3\n        /* \"#utility.yul\":18186:18200   */\n      add\n        /* \"#utility.yul\":18179:18228   */\n      mstore\n        /* \"#utility.yul\":18062:18235   */\n      pop\n      jump\t// out\n        /* \"#utility.yul\":18241:18607   */\n    tag_398:\n        /* \"#utility.yul\":18383:18386   */\n      0x00\n        /* \"#utility.yul\":18404:18471   */\n      tag_632\n        /* \"#utility.yul\":18468:18470   */\n      0x17\n        /* \"#utility.yul\":18463:18466   */\n      dup4\n        /* \"#utility.yul\":18404:18471   */\n      tag_383\n      jump\t// in\n    tag_632:\n        /* \"#utility.yul\":18397:18471   */\n      swap2\n      pop\n        /* \"#utility.yul\":18480:18573   */\n      tag_633\n        /* \"#utility.yul\":18569:18572   */\n      dup3\n        /* \"#utility.yul\":18480:18573   */\n      tag_397\n      jump\t// in\n    tag_633:\n        /* \"#utility.yul\":18598:18600   */\n      0x20\n        /* \"#utility.yul\":18593:18596   */\n      dup3\n        /* \"#utility.yul\":18589:18601   */\n      add\n        /* \"#utility.yul\":18582:18601   */\n      swap1\n      pop\n        /* \"#utility.yul\":18241:18607   */\n      swap2\n      swap1\n      pop\n      jump\t// out\n        /* \"#utility.yul\":18613:19032   */\n    tag_117:\n        /* \"#utility.yul\":18779:18783   */\n      0x00\n        /* \"#utility.yul\":18817:18819   */\n      0x20\n        /* \"#utility.yul\":18806:18815   */\n      dup3\n        /* \"#utility.yul\":18802:18820   */\n      add\n        /* \"#utility.yul\":18794:18820   */\n      swap1\n      pop\n        /* \"#utility.yul\":18866:18875   */\n      dup2\n        /* \"#utility.yul\":18860:18864   */\n      dup2\n        /* \"#utility.yul\":18856:18876   */\n      sub\n        /* \"#utility.yul\":18852:18853   */\n      0x00\n        /* \"#utility.yul\":18841:18850   */\n      dup4\n        /* \"#utility.yul\":18837:18854   */\n      add\n        /* \"#utility.yul\":18830:18877   */\n      mstore\n        /* \"#utility.yul\":18894:19025   */\n      tag_635\n        /* \"#utility.yul\":19020:19024   */\n      dup2\n        /* \"#utility.yul\":18894:19025   */\n      tag_398\n      jump\t// in\n    tag_635:\n        /* \"#utility.yul\":18886:19025   */\n      swap1\n      pop\n        /* \"#utility.yul\":18613:19032   */\n      swap2\n      swap1\n      pop\n      jump\t// out\n        /* \"#utility.yul\":19038:19435   */\n    tag_127:\n        /* \"#utility.yul\":19178:19181   */\n      0x00\n        /* \"#utility.yul\":19193:19268   */\n      tag_637\n        /* \"#utility.yul\":19264:19267   */\n      dup3\n        /* \"#utility.yul\":19255:19261   */\n      dup6\n        /* \"#utility.yul\":19193:19268   */\n      tag_393\n      jump\t// in\n    tag_637:\n        /* \"#utility.yul\":19293:19295   */\n      0x20\n        /* \"#utility.yul\":19288:19291   */\n      dup3\n        /* \"#utility.yul\":19284:19296   */\n      add\n        /* \"#utility.yul\":19277:19296   */\n      swap2\n      pop\n        /* \"#utility.yul\":19306:19381   */\n      tag_638\n        /* \"#utility.yul\":19377:19380   */\n      dup3\n        /* \"#utility.yul\":19368:19374   */\n      dup5\n        /* \"#utility.yul\":19306:19381   */\n      tag_393\n      jump\t// in\n    tag_638:\n        /* \"#utility.yul\":19406:19408   */\n      0x20\n        /* \"#utility.yul\":19401:19404   */\n      dup3\n        /* \"#utility.yul\":19397:19409   */\n      add\n        /* \"#utility.yul\":19390:19409   */\n      swap2\n      pop\n        /* \"#utility.yul\":19426:19429   */\n      dup2\n        /* \"#utility.yul\":19419:19429   */\n      swap1\n      pop\n        /* \"#utility.yul\":19038:19435   */\n      swap4\n      swap3\n      pop\n      pop\n      pop\n      jump\t// out\n        /* \"#utility.yul\":19441:19613   */\n    tag_399:\n        /* \"#utility.yul\":19581:19605   */\n      0x5265706c61792061747461636b20646574656374656400000000000000000000\n        /* \"#utility.yul\":19577:19578   */\n      0x00\n        /* \"#utility.yul\":19569:19575   */\n      dup3\n        /* \"#utility.yul\":19565:19579   */\n      add\n        /* \"#utility.yul\":19558:19606   */\n      mstore\n        /* \"#utility.yul\":19441:19613   */\n      pop\n      jump\t// out\n        /* \"#utility.yul\":19619:19985   */\n    tag_400:\n        /* \"#utility.yul\":19761:19764   */\n      0x00\n        /* \"#utility.yul\":19782:19849   */\n      tag_641\n        /* \"#utility.yul\":19846:19848   */\n      0x16\n        /* \"#utility.yul\":19841:19844   */\n      dup4\n        /* \"#utility.yul\":19782:19849   */\n      tag_383\n      jump\t// in\n    tag_641:\n        /* \"#utility.yul\":19775:19849   */\n      swap2\n      pop\n        /* \"#utility.yul\":19858:19951   */\n      tag_642\n        /* \"#utility.yul\":19947:19950   */\n      dup3\n        /* \"#utility.yul\":19858:19951   */\n      tag_399\n      jump\t// in\n    tag_642:\n        /* \"#utility.yul\":19976:19978   */\n      0x20\n        /* \"#utility.yul\":19971:19974   */\n      dup3\n        /* \"#utility.yul\":19967:19979   */\n      add\n        /* \"#utility.yul\":19960:19979   */\n      swap1\n      pop\n        /* \"#utility.yul\":19619:19985   */\n      swap2\n      swap1\n      pop\n      jump\t// out\n        /* \"#utility.yul\":19991:20410   */\n    tag_134:\n        /* \"#utility.yul\":20157:20161   */\n      0x00\n        /* \"#utility.yul\":20195:20197   */\n      0x20\n        /* \"#utility.yul\":20184:20193   */\n      dup3\n        /* \"#utility.yul\":20180:20198   */\n      add\n        /* \"#utility.yul\":20172:20198   */\n      swap1\n      pop\n        /* \"#utility.yul\":20244:20253   */\n      dup2\n        /* \"#utility.yul\":20238:20242   */\n      dup2\n        /* \"#utility.yul\":20234:20254   */\n      sub\n        /* \"#utility.yul\":20230:20231   */\n      0x00\n        /* \"#utility.yul\":20219:20228   */\n      dup4\n        /* \"#utility.yul\":20215:20232   */\n      add\n        /* \"#utility.yul\":20208:20255   */\n      mstore\n        /* \"#utility.yul\":20272:20403   */\n      tag_644\n        /* \"#utility.yul\":20398:20402   */\n      dup2\n        /* \"#utility.yul\":20272:20403   */\n      tag_400\n      jump\t// in\n    tag_644:\n        /* \"#utility.yul\":20264:20403   */\n      swap1\n      pop\n        /* \"#utility.yul\":19991:20410   */\n      swap2\n      swap1\n      pop\n      jump\t// out\n        /* \"#utility.yul\":20416:20736   */\n    tag_136:\n        /* \"#utility.yul\":20531:20535   */\n      0x00\n        /* \"#utility.yul\":20569:20571   */\n      0x40\n        /* \"#utility.yul\":20558:20567   */\n      dup3\n        /* \"#utility.yul\":20554:20572   */\n      add\n        /* \"#utility.yul\":20546:20572   */\n      swap1\n      pop\n        /* \"#utility.yul\":20582:20653   */\n      tag_646\n        /* \"#utility.yul\":20650:20651   */\n      0x00\n        /* \"#utility.yul\":20639:20648   */\n      dup4\n        /* \"#utility.yul\":20635:20652   */\n      add\n        /* \"#utility.yul\":20626:20632   */\n      dup6\n        /* \"#utility.yul\":20582:20653   */\n      tag_360\n      jump\t// in\n    tag_646:\n        /* \"#utility.yul\":20663:20729   */\n      tag_647\n        /* \"#utility.yul\":20725:20727   */\n      0x20\n        /* \"#utility.yul\":20714:20723   */\n      dup4\n        /* \"#utility.yul\":20710:20728   */\n      add\n        /* \"#utility.yul\":20701:20707   */\n      dup5\n        /* \"#utility.yul\":20663:20729   */\n      tag_377\n      jump\t// in\n    tag_647:\n        /* \"#utility.yul\":20416:20736   */\n      swap4\n      swap3\n      pop\n      pop\n      pop\n      jump\t// out\n        /* \"#utility.yul\":20774:20944   */\n    tag_401:\n        /* \"#utility.yul\":20897:20938   */\n      tag_649\n        /* \"#utility.yul\":20933:20937   */\n      0xc0\n        /* \"#utility.yul\":20928:20931   */\n      dup4\n        /* \"#utility.yul\":20921:20926   */\n      dup4\n        /* \"#utility.yul\":20897:20938   */\n      tag_394\n      jump\t// in\n    tag_649:\n        /* \"#utility.yul\":20774:20944   */\n      pop\n      pop\n      jump\t// out\n        /* \"#utility.yul\":20950:21476   */\n    tag_142:\n        /* \"#utility.yul\":21167:21171   */\n      0x00\n        /* \"#utility.yul\":21205:21208   */\n      0x01c0\n        /* \"#utility.yul\":21194:21203   */\n      dup3\n        /* \"#utility.yul\":21190:21209   */\n      add\n        /* \"#utility.yul\":21182:21209   */\n      swap1\n      pop\n        /* \"#utility.yul\":21219:21338   */\n      tag_651\n        /* \"#utility.yul\":21335:21336   */\n      0x00\n        /* \"#utility.yul\":21324:21333   */\n      dup4\n        /* \"#utility.yul\":21320:21337   */\n      add\n        /* \"#utility.yul\":21311:21317   */\n      dup6\n        /* \"#utility.yul\":21219:21338   */\n      tag_395\n      jump\t// in\n    tag_651:\n        /* \"#utility.yul\":21348:21469   */\n      tag_652\n        /* \"#utility.yul\":21464:21467   */\n      0x0100\n        /* \"#utility.yul\":21453:21462   */\n      dup4\n        /* \"#utility.yul\":21449:21468   */\n      add\n        /* \"#utility.yul\":21440:21446   */\n      dup5\n        /* \"#utility.yul\":21348:21469   */\n      tag_401\n      jump\t// in\n    tag_652:\n        /* \"#utility.yul\":20950:21476   */\n      swap4\n      swap3\n      pop\n      pop\n      pop\n      jump\t// out\n        /* \"#utility.yul\":21482:21600   */\n    tag_402:\n        /* \"#utility.yul\":21569:21593   */\n      tag_654\n        /* \"#utility.yul\":21587:21592   */\n      dup2\n        /* \"#utility.yul\":21569:21593   */\n      tag_343\n      jump\t// in\n    tag_654:\n        /* \"#utility.yul\":21564:21567   */\n      dup3\n        /* \"#utility.yul\":21557:21594   */\n      mstore\n        /* \"#utility.yul\":21482:21600   */\n      pop\n      pop\n      jump\t// out\n        /* \"#utility.yul\":21606:22250   */\n    tag_158:\n        /* \"#utility.yul\":21803:21807   */\n      0x00\n        /* \"#utility.yul\":21841:21844   */\n      0x80\n        /* \"#utility.yul\":21830:21839   */\n      dup3\n        /* \"#utility.yul\":21826:21845   */\n      add\n        /* \"#utility.yul\":21818:21845   */\n      swap1\n      pop\n        /* \"#utility.yul\":21855:21926   */\n      tag_656\n        /* \"#utility.yul\":21923:21924   */\n      0x00\n        /* \"#utility.yul\":21912:21921   */\n      dup4\n        /* \"#utility.yul\":21908:21925   */\n      add\n        /* \"#utility.yul\":21899:21905   */\n      dup8\n        /* \"#utility.yul\":21855:21926   */\n      tag_360\n      jump\t// in\n    tag_656:\n        /* \"#utility.yul\":21973:21982   */\n      dup2\n        /* \"#utility.yul\":21967:21971   */\n      dup2\n        /* \"#utility.yul\":21963:21983   */\n      sub\n        /* \"#utility.yul\":21958:21960   */\n      0x20\n        /* \"#utility.yul\":21947:21956   */\n      dup4\n        /* \"#utility.yul\":21943:21961   */\n      add\n        /* \"#utility.yul\":21936:21984   */\n      mstore\n        /* \"#utility.yul\":22001:22079   */\n      tag_657\n        /* \"#utility.yul\":22074:22078   */\n      dup2\n        /* \"#utility.yul\":22065:22071   */\n      dup7\n        /* \"#utility.yul\":22001:22079   */\n      tag_384\n      jump\t// in\n    tag_657:\n        /* \"#utility.yul\":21993:22079   */\n      swap1\n      pop\n        /* \"#utility.yul\":22089:22161   */\n      tag_658\n        /* \"#utility.yul\":22157:22159   */\n      0x40\n        /* \"#utility.yul\":22146:22155   */\n      dup4\n        /* \"#utility.yul\":22142:22160   */\n      add\n        /* \"#utility.yul\":22133:22139   */\n      dup6\n        /* \"#utility.yul\":22089:22161   */\n      tag_402\n      jump\t// in\n    tag_658:\n        /* \"#utility.yul\":22171:22243   */\n      tag_659\n        /* \"#utility.yul\":22239:22241   */\n      0x60\n        /* \"#utility.yul\":22228:22237   */\n      dup4\n        /* \"#utility.yul\":22224:22242   */\n      add\n        /* \"#utility.yul\":22215:22221   */\n      dup5\n        /* \"#utility.yul\":22171:22243   */\n      tag_402\n      jump\t// in\n    tag_659:\n        /* \"#utility.yul\":21606:22250   */\n      swap6\n      swap5\n      pop\n      pop\n      pop\n      pop\n      pop\n      jump\t// out\n        /* \"#utility.yul\":22256:22967   */\n    tag_193:\n        /* \"#utility.yul\":22463:22467   */\n      0x00\n        /* \"#utility.yul\":22501:22503   */\n      0x60\n        /* \"#utility.yul\":22490:22499   */\n      dup3\n        /* \"#utility.yul\":22486:22504   */\n      add\n        /* \"#utility.yul\":22478:22504   */\n      swap1\n      pop\n        /* \"#utility.yul\":22550:22559   */\n      dup2\n        /* \"#utility.yul\":22544:22548   */\n      dup2\n        /* \"#utility.yul\":22540:22560   */\n      sub\n        /* \"#utility.yul\":22536:22537   */\n      0x00\n        /* \"#utility.yul\":22525:22534   */\n      dup4\n        /* \"#utility.yul\":22521:22538   */\n      add\n        /* \"#utility.yul\":22514:22561   */\n      mstore\n        /* \"#utility.yul\":22578:22656   */\n      tag_661\n        /* \"#utility.yul\":22651:22655   */\n      dup2\n        /* \"#utility.yul\":22642:22648   */\n      dup7\n        /* \"#utility.yul\":22578:22656   */\n      tag_384\n      jump\t// in\n    tag_661:\n        /* \"#utility.yul\":22570:22656   */\n      swap1\n      pop\n        /* \"#utility.yul\":22703:22712   */\n      dup2\n        /* \"#utility.yul\":22697:22701   */\n      dup2\n        /* \"#utility.yul\":22693:22713   */\n      sub\n        /* \"#utility.yul\":22688:22690   */\n      0x20\n        /* \"#utility.yul\":22677:22686   */\n      dup4\n        /* \"#utility.yul\":22673:22691   */\n      add\n        /* \"#utility.yul\":22666:22714   */\n      mstore\n        /* \"#utility.yul\":22731:22809   */\n      tag_662\n        /* \"#utility.yul\":22804:22808   */\n      dup2\n        /* \"#utility.yul\":22795:22801   */\n      dup6\n        /* \"#utility.yul\":22731:22809   */\n      tag_384\n      jump\t// in\n    tag_662:\n        /* \"#utility.yul\":22723:22809   */\n      swap1\n      pop\n        /* \"#utility.yul\":22856:22865   */\n      dup2\n        /* \"#utility.yul\":22850:22854   */\n      dup2\n        /* \"#utility.yul\":22846:22866   */\n      sub\n        /* \"#utility.yul\":22841:22843   */\n      0x40\n        /* \"#utility.yul\":22830:22839   */\n      dup4\n        /* \"#utility.yul\":22826:22844   */\n      add\n        /* \"#utility.yul\":22819:22867   */\n      mstore\n        /* \"#utility.yul\":22884:22960   */\n      tag_663\n        /* \"#utility.yul\":22955:22959   */\n      dup2\n        /* \"#utility.yul\":22946:22952   */\n      dup5\n        /* \"#utility.yul\":22884:22960   */\n      tag_350\n      jump\t// in\n    tag_663:\n        /* \"#utility.yul\":22876:22960   */\n      swap1\n      pop\n        /* \"#utility.yul\":22256:22967   */\n      swap5\n      swap4\n      pop\n      pop\n      pop\n      pop\n      jump\t// out\n        /* \"#utility.yul\":22973:23147   */\n    tag_403:\n        /* \"#utility.yul\":23113:23139   */\n      0x496e76616c6964207369676e6174757265206c656e6774680000000000000000\n        /* \"#utility.yul\":23109:23110   */\n      0x00\n        /* \"#utility.yul\":23101:23107   */\n      dup3\n        /* \"#utility.yul\":23097:23111   */\n      add\n        /* \"#utility.yul\":23090:23140   */\n      mstore\n        /* \"#utility.yul\":22973:23147   */\n      pop\n      jump\t// out\n        /* \"#utility.yul\":23153:23519   */\n    tag_404:\n        /* \"#utility.yul\":23295:23298   */\n      0x00\n        /* \"#utility.yul\":23316:23383   */\n      tag_666\n        /* \"#utility.yul\":23380:23382   */\n      0x18\n        /* \"#utility.yul\":23375:23378   */\n      dup4\n        /* \"#utility.yul\":23316:23383   */\n      tag_383\n      jump\t// in\n    tag_666:\n        /* \"#utility.yul\":23309:23383   */\n      swap2\n      pop\n        /* \"#utility.yul\":23392:23485   */\n      tag_667\n        /* \"#utility.yul\":23481:23484   */\n      dup3\n        /* \"#utility.yul\":23392:23485   */\n      tag_403\n      jump\t// in\n    tag_667:\n        /* \"#utility.yul\":23510:23512   */\n      0x20\n        /* \"#utility.yul\":23505:23508   */\n      dup3\n        /* \"#utility.yul\":23501:23513   */\n      add\n        /* \"#utility.yul\":23494:23513   */\n      swap1\n      pop\n        /* \"#utility.yul\":23153:23519   */\n      swap2\n      swap1\n      pop\n      jump\t// out\n        /* \"#utility.yul\":23525:23944   */\n    tag_202:\n        /* \"#utility.yul\":23691:23695   */\n      0x00\n        /* \"#utility.yul\":23729:23731   */\n      0x20\n        /* \"#utility.yul\":23718:23727   */\n      dup3\n        /* \"#utility.yul\":23714:23732   */\n      add\n        /* \"#utility.yul\":23706:23732   */\n      swap1\n      pop\n        /* \"#utility.yul\":23778:23787   */\n      dup2\n        /* \"#utility.yul\":23772:23776   */\n      dup2\n        /* \"#utility.yul\":23768:23788   */\n      sub\n        /* \"#utility.yul\":23764:23765   */\n      0x00\n        /* \"#utility.yul\":23753:23762   */\n      dup4\n        /* \"#utility.yul\":23749:23766   */\n      add\n        /* \"#utility.yul\":23742:23789   */\n      mstore\n        /* \"#utility.yul\":23806:23937   */\n      tag_669\n        /* \"#utility.yul\":23932:23936   */\n      dup2\n        /* \"#utility.yul\":23806:23937   */\n      tag_404\n      jump\t// in\n    tag_669:\n        /* \"#utility.yul\":23798:23937   */\n      swap1\n      pop\n        /* \"#utility.yul\":23525:23944   */\n      swap2\n      swap1\n      pop\n      jump\t// out\n        /* \"#utility.yul\":23950:24036   */\n    tag_405:\n        /* \"#utility.yul\":23985:23992   */\n      0x00\n        /* \"#utility.yul\":24025:24029   */\n      0xff\n        /* \"#utility.yul\":24018:24023   */\n      dup3\n        /* \"#utility.yul\":24014:24030   */\n      and\n        /* \"#utility.yul\":24003:24030   */\n      swap1\n      pop\n        /* \"#utility.yul\":23950:24036   */\n      swap2\n      swap1\n      pop\n      jump\t// out\n        /* \"#utility.yul\":24042:24154   */\n    tag_406:\n        /* \"#utility.yul\":24125:24147   */\n      tag_672\n        /* \"#utility.yul\":24141:24146   */\n      dup2\n        /* \"#utility.yul\":24125:24147   */\n      tag_405\n      jump\t// in\n    tag_672:\n        /* \"#utility.yul\":24120:24123   */\n      dup3\n        /* \"#utility.yul\":24113:24148   */\n      mstore\n        /* \"#utility.yul\":24042:24154   */\n      pop\n      pop\n      jump\t// out\n        /* \"#utility.yul\":24160:24705   */\n    tag_204:\n        /* \"#utility.yul\":24333:24337   */\n      0x00\n        /* \"#utility.yul\":24371:24374   */\n      0x80\n        /* \"#utility.yul\":24360:24369   */\n      dup3\n        /* \"#utility.yul\":24356:24375   */\n      add\n        /* \"#utility.yul\":24348:24375   */\n      swap1\n      pop\n        /* \"#utility.yul\":24385:24456   */\n      tag_674\n        /* \"#utility.yul\":24453:24454   */\n      0x00\n        /* \"#utility.yul\":24442:24451   */\n      dup4\n        /* \"#utility.yul\":24438:24455   */\n      add\n        /* \"#utility.yul\":24429:24435   */\n      dup8\n        /* \"#utility.yul\":24385:24456   */\n      tag_391\n      jump\t// in\n    tag_674:\n        /* \"#utility.yul\":24466:24534   */\n      tag_675\n        /* \"#utility.yul\":24530:24532   */\n      0x20\n        /* \"#utility.yul\":24519:24528   */\n      dup4\n        /* \"#utility.yul\":24515:24533   */\n      add\n        /* \"#utility.yul\":24506:24512   */\n      dup7\n        /* \"#utility.yul\":24466:24534   */\n      tag_406\n      jump\t// in\n    tag_675:\n        /* \"#utility.yul\":24544:24616   */\n      tag_676\n        /* \"#utility.yul\":24612:24614   */\n      0x40\n        /* \"#utility.yul\":24601:24610   */\n      dup4\n        /* \"#utility.yul\":24597:24615   */\n      add\n        /* \"#utility.yul\":24588:24594   */\n      dup6\n        /* \"#utility.yul\":24544:24616   */\n      tag_391\n      jump\t// in\n    tag_676:\n        /* \"#utility.yul\":24626:24698   */\n      tag_677\n        /* \"#utility.yul\":24694:24696   */\n      0x60\n        /* \"#utility.yul\":24683:24692   */\n      dup4\n        /* \"#utility.yul\":24679:24697   */\n      add\n        /* \"#utility.yul\":24670:24676   */\n      dup5\n        /* \"#utility.yul\":24626:24698   */\n      tag_391\n      jump\t// in\n    tag_677:\n        /* \"#utility.yul\":24160:24705   */\n      swap6\n      swap5\n      pop\n      pop\n      pop\n      pop\n      pop\n      jump\t// out\n        /* \"#utility.yul\":24711:24891   */\n    tag_407:\n        /* \"#utility.yul\":24759:24836   */\n      0x4e487b7100000000000000000000000000000000000000000000000000000000\n        /* \"#utility.yul\":24756:24757   */\n      0x00\n        /* \"#utility.yul\":24749:24837   */\n      mstore\n        /* \"#utility.yul\":24856:24860   */\n      0x11\n        /* \"#utility.yul\":24853:24854   */\n      0x04\n        /* \"#utility.yul\":24846:24861   */\n      mstore\n        /* \"#utility.yul\":24880:24884   */\n      0x24\n        /* \"#utility.yul\":24877:24878   */\n      0x00\n        /* \"#utility.yul\":24870:24885   */\n      revert\n        /* \"#utility.yul\":24897:25064   */\n    tag_215:\n        /* \"#utility.yul\":24934:24937   */\n      0x00\n        /* \"#utility.yul\":24957:24979   */\n      tag_680\n        /* \"#utility.yul\":24973:24978   */\n      dup3\n        /* \"#utility.yul\":24957:24979   */\n      tag_405\n      jump\t// in\n    tag_680:\n        /* \"#utility.yul\":24948:24979   */\n      swap2\n      pop\n        /* \"#utility.yul\":25001:25005   */\n      0xff\n        /* \"#utility.yul\":24994:24999   */\n      dup3\n        /* \"#utility.yul\":24991:25006   */\n      sub\n        /* \"#utility.yul\":24988:25029   */\n      tag_681\n      jumpi\n        /* \"#utility.yul\":25009:25027   */\n      tag_682\n      tag_407\n      jump\t// in\n    tag_682:\n        /* \"#utility.yul\":24988:25029   */\n    tag_681:\n        /* \"#utility.yul\":25056:25057   */\n      0x01\n        /* \"#utility.yul\":25049:25054   */\n      dup3\n        /* \"#utility.yul\":25045:25058   */\n      add\n        /* \"#utility.yul\":25038:25058   */\n      swap1\n      pop\n        /* \"#utility.yul\":24897:25064   */\n      swap2\n      swap1\n      pop\n      jump\t// out\n        /* \"#utility.yul\":25070:25237   */\n    tag_222:\n        /* \"#utility.yul\":25107:25110   */\n      0x00\n        /* \"#utility.yul\":25130:25152   */\n      tag_684\n        /* \"#utility.yul\":25146:25151   */\n      dup3\n        /* \"#utility.yul\":25130:25152   */\n      tag_405\n      jump\t// in\n    tag_684:\n        /* \"#utility.yul\":25121:25152   */\n      swap2\n      pop\n        /* \"#utility.yul\":25174:25178   */\n      0x00\n        /* \"#utility.yul\":25167:25172   */\n      dup3\n        /* \"#utility.yul\":25164:25179   */\n      sub\n        /* \"#utility.yul\":25161:25202   */\n      tag_685\n      jumpi\n        /* \"#utility.yul\":25182:25200   */\n      tag_686\n      tag_407\n      jump\t// in\n    tag_686:\n        /* \"#utility.yul\":25161:25202   */\n    tag_685:\n        /* \"#utility.yul\":25229:25230   */\n      0x01\n        /* \"#utility.yul\":25222:25227   */\n      dup3\n        /* \"#utility.yul\":25218:25231   */\n      sub\n        /* \"#utility.yul\":25211:25231   */\n      swap1\n      pop\n        /* \"#utility.yul\":25070:25237   */\n      swap2\n      swap1\n      pop\n      jump\t// out\n        /* \"#utility.yul\":25243:25434   */\n    tag_224:\n        /* \"#utility.yul\":25281:25285   */\n      0x00\n        /* \"#utility.yul\":25301:25319   */\n      tag_688\n        /* \"#utility.yul\":25317:25318   */\n      dup3\n        /* \"#utility.yul\":25301:25319   */\n      tag_405\n      jump\t// in\n    tag_688:\n        /* \"#utility.yul\":25296:25319   */\n      swap2\n      pop\n        /* \"#utility.yul\":25333:25351   */\n      tag_689\n        /* \"#utility.yul\":25349:25350   */\n      dup4\n        /* \"#utility.yul\":25333:25351   */\n      tag_405\n      jump\t// in\n    tag_689:\n        /* \"#utility.yul\":25328:25351   */\n      swap3\n      pop\n        /* \"#utility.yul\":25375:25376   */\n      dup3\n        /* \"#utility.yul\":25372:25373   */\n      dup3\n        /* \"#utility.yul\":25368:25377   */\n      sub\n        /* \"#utility.yul\":25360:25377   */\n      swap1\n      pop\n        /* \"#utility.yul\":25399:25403   */\n      0xff\n        /* \"#utility.yul\":25393:25397   */\n      dup2\n        /* \"#utility.yul\":25390:25404   */\n      gt\n        /* \"#utility.yul\":25387:25427   */\n      iszero\n      tag_690\n      jumpi\n        /* \"#utility.yul\":25407:25425   */\n      tag_691\n      tag_407\n      jump\t// in\n    tag_691:\n        /* \"#utility.yul\":25387:25427   */\n    tag_690:\n        /* \"#utility.yul\":25243:25434   */\n      swap3\n      swap2\n      pop\n      pop\n      jump\t// out\n        /* \"#utility.yul\":25440:25628   */\n    tag_226:\n        /* \"#utility.yul\":25478:25481   */\n      0x00\n        /* \"#utility.yul\":25497:25515   */\n      tag_693\n        /* \"#utility.yul\":25513:25514   */\n      dup3\n        /* \"#utility.yul\":25497:25515   */\n      tag_405\n      jump\t// in\n    tag_693:\n        /* \"#utility.yul\":25492:25515   */\n      swap2\n      pop\n        /* \"#utility.yul\":25529:25547   */\n      tag_694\n        /* \"#utility.yul\":25545:25546   */\n      dup4\n        /* \"#utility.yul\":25529:25547   */\n      tag_405\n      jump\t// in\n    tag_694:\n        /* \"#utility.yul\":25524:25547   */\n      swap3\n      pop\n        /* \"#utility.yul\":25570:25571   */\n      dup3\n        /* \"#utility.yul\":25567:25568   */\n      dup3\n        /* \"#utility.yul\":25563:25572   */\n      add\n        /* \"#utility.yul\":25556:25572   */\n      swap1\n      pop\n        /* \"#utility.yul\":25593:25597   */\n      0xff\n        /* \"#utility.yul\":25588:25591   */\n      dup2\n        /* \"#utility.yul\":25585:25598   */\n      gt\n        /* \"#utility.yul\":25582:25621   */\n      iszero\n      tag_695\n      jumpi\n        /* \"#utility.yul\":25601:25619   */\n      tag_696\n      tag_407\n      jump\t// in\n    tag_696:\n        /* \"#utility.yul\":25582:25621   */\n    tag_695:\n        /* \"#utility.yul\":25440:25628   */\n      swap3\n      swap2\n      pop\n      pop\n      jump\t// out\n        /* \"#utility.yul\":25634:25825   */\n    tag_235:\n        /* \"#utility.yul\":25674:25677   */\n      0x00\n        /* \"#utility.yul\":25693:25713   */\n      tag_698\n        /* \"#utility.yul\":25711:25712   */\n      dup3\n        /* \"#utility.yul\":25693:25713   */\n      tag_343\n      jump\t// in\n    tag_698:\n        /* \"#utility.yul\":25688:25713   */\n      swap2\n      pop\n        /* \"#utility.yul\":25727:25747   */\n      tag_699\n        /* \"#utility.yul\":25745:25746   */\n      dup4\n        /* \"#utility.yul\":25727:25747   */\n      tag_343\n      jump\t// in\n    tag_699:\n        /* \"#utility.yul\":25722:25747   */\n      swap3\n      pop\n        /* \"#utility.yul\":25770:25771   */\n      dup3\n        /* \"#utility.yul\":25767:25768   */\n      dup3\n        /* \"#utility.yul\":25763:25772   */\n      add\n        /* \"#utility.yul\":25756:25772   */\n      swap1\n      pop\n        /* \"#utility.yul\":25791:25794   */\n      dup1\n        /* \"#utility.yul\":25788:25789   */\n      dup3\n        /* \"#utility.yul\":25785:25795   */\n      gt\n        /* \"#utility.yul\":25782:25818   */\n      iszero\n      tag_700\n      jumpi\n        /* \"#utility.yul\":25798:25816   */\n      tag_701\n      tag_407\n      jump\t// in\n    tag_701:\n        /* \"#utility.yul\":25782:25818   */\n    tag_700:\n        /* \"#utility.yul\":25634:25825   */\n      swap3\n      swap2\n      pop\n      pop\n      jump\t// out\n        /* \"#utility.yul\":25831:25979   */\n    tag_408:\n        /* \"#utility.yul\":25933:25944   */\n      0x00\n        /* \"#utility.yul\":25970:25973   */\n      dup2\n        /* \"#utility.yul\":25955:25973   */\n      swap1\n      pop\n        /* \"#utility.yul\":25831:25979   */\n      swap3\n      swap2\n      pop\n      pop\n      jump\t// out\n        /* \"#utility.yul\":25985:26199   */\n    tag_409:\n        /* \"#utility.yul\":26125:26191   */\n      0x19457468657265756d205369676e6564204d6573736167653a0a333200000000\n        /* \"#utility.yul\":26121:26122   */\n      0x00\n        /* \"#utility.yul\":26113:26119   */\n      dup3\n        /* \"#utility.yul\":26109:26123   */\n      add\n        /* \"#utility.yul\":26102:26192   */\n      mstore\n        /* \"#utility.yul\":25985:26199   */\n      pop\n      jump\t// out\n        /* \"#utility.yul\":26205:26607   */\n    tag_410:\n        /* \"#utility.yul\":26365:26368   */\n      0x00\n        /* \"#utility.yul\":26386:26471   */\n      tag_705\n        /* \"#utility.yul\":26468:26470   */\n      0x1c\n        /* \"#utility.yul\":26463:26466   */\n      dup4\n        /* \"#utility.yul\":26386:26471   */\n      tag_408\n      jump\t// in\n    tag_705:\n        /* \"#utility.yul\":26379:26471   */\n      swap2\n      pop\n        /* \"#utility.yul\":26480:26573   */\n      tag_706\n        /* \"#utility.yul\":26569:26572   */\n      dup3\n        /* \"#utility.yul\":26480:26573   */\n      tag_409\n      jump\t// in\n    tag_706:\n        /* \"#utility.yul\":26598:26600   */\n      0x1c\n        /* \"#utility.yul\":26593:26596   */\n      dup3\n        /* \"#utility.yul\":26589:26601   */\n      add\n        /* \"#utility.yul\":26582:26601   */\n      swap1\n      pop\n        /* \"#utility.yul\":26205:26607   */\n      swap2\n      swap1\n      pop\n      jump\t// out\n        /* \"#utility.yul\":26613:26692   */\n    tag_411:\n        /* \"#utility.yul\":26652:26659   */\n      0x00\n        /* \"#utility.yul\":26681:26686   */\n      dup2\n        /* \"#utility.yul\":26670:26686   */\n      swap1\n      pop\n        /* \"#utility.yul\":26613:26692   */\n      swap2\n      swap1\n      pop\n      jump\t// out\n        /* \"#utility.yul\":26698:26855   */\n    tag_412:\n        /* \"#utility.yul\":26803:26848   */\n      tag_709\n        /* \"#utility.yul\":26823:26847   */\n      tag_710\n        /* \"#utility.yul\":26841:26846   */\n      dup3\n        /* \"#utility.yul\":26823:26847   */\n      tag_366\n      jump\t// in\n    tag_710:\n        /* \"#utility.yul\":26803:26848   */\n      tag_411\n      jump\t// in\n    tag_709:\n        /* \"#utility.yul\":26798:26801   */\n      dup3\n        /* \"#utility.yul\":26791:26849   */\n      mstore\n        /* \"#utility.yul\":26698:26855   */\n      pop\n      pop\n      jump\t// out\n        /* \"#utility.yul\":26861:27383   */\n    tag_248:\n        /* \"#utility.yul\":27074:27077   */\n      0x00\n        /* \"#utility.yul\":27096:27244   */\n      tag_712\n        /* \"#utility.yul\":27240:27243   */\n      dup3\n        /* \"#utility.yul\":27096:27244   */\n      tag_410\n      jump\t// in\n    tag_712:\n        /* \"#utility.yul\":27089:27244   */\n      swap2\n      pop\n        /* \"#utility.yul\":27254:27329   */\n      tag_713\n        /* \"#utility.yul\":27325:27328   */\n      dup3\n        /* \"#utility.yul\":27316:27322   */\n      dup5\n        /* \"#utility.yul\":27254:27329   */\n      tag_412\n      jump\t// in\n    tag_713:\n        /* \"#utility.yul\":27354:27356   */\n      0x20\n        /* \"#utility.yul\":27349:27352   */\n      dup3\n        /* \"#utility.yul\":27345:27357   */\n      add\n        /* \"#utility.yul\":27338:27357   */\n      swap2\n      pop\n        /* \"#utility.yul\":27374:27377   */\n      dup2\n        /* \"#utility.yul\":27367:27377   */\n      swap1\n      pop\n        /* \"#utility.yul\":26861:27383   */\n      swap3\n      swap2\n      pop\n      pop\n      jump\t// out\n        /* \"#utility.yul\":27389:28491   */\n    tag_265:\n        /* \"#utility.yul\":27669:27672   */\n      0x00\n        /* \"#utility.yul\":27684:27759   */\n      tag_715\n        /* \"#utility.yul\":27755:27758   */\n      dup3\n        /* \"#utility.yul\":27746:27752   */\n      dup11\n        /* \"#utility.yul\":27684:27759   */\n      tag_393\n      jump\t// in\n    tag_715:\n        /* \"#utility.yul\":27784:27786   */\n      0x20\n        /* \"#utility.yul\":27779:27782   */\n      dup3\n        /* \"#utility.yul\":27775:27787   */\n      add\n        /* \"#utility.yul\":27768:27787   */\n      swap2\n      pop\n        /* \"#utility.yul\":27797:27872   */\n      tag_716\n        /* \"#utility.yul\":27868:27871   */\n      dup3\n        /* \"#utility.yul\":27859:27865   */\n      dup10\n        /* \"#utility.yul\":27797:27872   */\n      tag_393\n      jump\t// in\n    tag_716:\n        /* \"#utility.yul\":27897:27899   */\n      0x20\n        /* \"#utility.yul\":27892:27895   */\n      dup3\n        /* \"#utility.yul\":27888:27900   */\n      add\n        /* \"#utility.yul\":27881:27900   */\n      swap2\n      pop\n        /* \"#utility.yul\":27910:27985   */\n      tag_717\n        /* \"#utility.yul\":27981:27984   */\n      dup3\n        /* \"#utility.yul\":27972:27978   */\n      dup9\n        /* \"#utility.yul\":27910:27985   */\n      tag_393\n      jump\t// in\n    tag_717:\n        /* \"#utility.yul\":28010:28012   */\n      0x20\n        /* \"#utility.yul\":28005:28008   */\n      dup3\n        /* \"#utility.yul\":28001:28013   */\n      add\n        /* \"#utility.yul\":27994:28013   */\n      swap2\n      pop\n        /* \"#utility.yul\":28023:28098   */\n      tag_718\n        /* \"#utility.yul\":28094:28097   */\n      dup3\n        /* \"#utility.yul\":28085:28091   */\n      dup8\n        /* \"#utility.yul\":28023:28098   */\n      tag_393\n      jump\t// in\n    tag_718:\n        /* \"#utility.yul\":28123:28125   */\n      0x20\n        /* \"#utility.yul\":28118:28121   */\n      dup3\n        /* \"#utility.yul\":28114:28126   */\n      add\n        /* \"#utility.yul\":28107:28126   */\n      swap2\n      pop\n        /* \"#utility.yul\":28136:28211   */\n      tag_719\n        /* \"#utility.yul\":28207:28210   */\n      dup3\n        /* \"#utility.yul\":28198:28204   */\n      dup7\n        /* \"#utility.yul\":28136:28211   */\n      tag_393\n      jump\t// in\n    tag_719:\n        /* \"#utility.yul\":28236:28238   */\n      0x20\n        /* \"#utility.yul\":28231:28234   */\n      dup3\n        /* \"#utility.yul\":28227:28239   */\n      add\n        /* \"#utility.yul\":28220:28239   */\n      swap2\n      pop\n        /* \"#utility.yul\":28249:28324   */\n      tag_720\n        /* \"#utility.yul\":28320:28323   */\n      dup3\n        /* \"#utility.yul\":28311:28317   */\n      dup6\n        /* \"#utility.yul\":28249:28324   */\n      tag_393\n      jump\t// in\n    tag_720:\n        /* \"#utility.yul\":28349:28351   */\n      0x20\n        /* \"#utility.yul\":28344:28347   */\n      dup3\n        /* \"#utility.yul\":28340:28352   */\n      add\n        /* \"#utility.yul\":28333:28352   */\n      swap2\n      pop\n        /* \"#utility.yul\":28362:28437   */\n      tag_721\n        /* \"#utility.yul\":28433:28436   */\n      dup3\n        /* \"#utility.yul\":28424:28430   */\n      dup5\n        /* \"#utility.yul\":28362:28437   */\n      tag_393\n      jump\t// in\n    tag_721:\n        /* \"#utility.yul\":28462:28464   */\n      0x20\n        /* \"#utility.yul\":28457:28460   */\n      dup3\n        /* \"#utility.yul\":28453:28465   */\n      add\n        /* \"#utility.yul\":28446:28465   */\n      swap2\n      pop\n        /* \"#utility.yul\":28482:28485   */\n      dup2\n        /* \"#utility.yul\":28475:28485   */\n      swap1\n      pop\n        /* \"#utility.yul\":27389:28491   */\n      swap9\n      swap8\n      pop\n      pop\n      pop\n      pop\n      pop\n      pop\n      pop\n      pop\n      jump\t// out\n        /* \"#utility.yul\":28497:28808   */\n    tag_413:\n        /* \"#utility.yul\":28574:28578   */\n      0x00\n        /* \"#utility.yul\":28664:28682   */\n      0xffffffffffffffff\n        /* \"#utility.yul\":28656:28662   */\n      dup3\n        /* \"#utility.yul\":28653:28683   */\n      gt\n        /* \"#utility.yul\":28650:28706   */\n      iszero\n      tag_723\n      jumpi\n        /* \"#utility.yul\":28686:28704   */\n      tag_724\n      tag_229\n      jump\t// in\n    tag_724:\n        /* \"#utility.yul\":28650:28706   */\n    tag_723:\n        /* \"#utility.yul\":28736:28740   */\n      0x20\n        /* \"#utility.yul\":28728:28734   */\n      dup3\n        /* \"#utility.yul\":28724:28741   */\n      mul\n        /* \"#utility.yul\":28716:28741   */\n      swap1\n      pop\n        /* \"#utility.yul\":28796:28800   */\n      0x20\n        /* \"#utility.yul\":28790:28794   */\n      dup2\n        /* \"#utility.yul\":28786:28801   */\n      add\n        /* \"#utility.yul\":28778:28801   */\n      swap1\n      pop\n        /* \"#utility.yul\":28497:28808   */\n      swap2\n      swap1\n      pop\n      jump\t// out\n        /* \"#utility.yul\":28814:28957   */\n    tag_414:\n        /* \"#utility.yul\":28871:28876   */\n      0x00\n        /* \"#utility.yul\":28902:28908   */\n      dup2\n        /* \"#utility.yul\":28896:28909   */\n      mload\n        /* \"#utility.yul\":28887:28909   */\n      swap1\n      pop\n        /* \"#utility.yul\":28918:28951   */\n      tag_726\n        /* \"#utility.yul\":28945:28950   */\n      dup2\n        /* \"#utility.yul\":28918:28951   */\n      tag_387\n      jump\t// in\n    tag_726:\n        /* \"#utility.yul\":28814:28957   */\n      swap3\n      swap2\n      pop\n      pop\n      jump\t// out\n        /* \"#utility.yul\":28980:29712   */\n    tag_415:\n        /* \"#utility.yul\":29087:29092   */\n      0x00\n        /* \"#utility.yul\":29112:29193   */\n      tag_728\n        /* \"#utility.yul\":29128:29192   */\n      tag_729\n        /* \"#utility.yul\":29185:29191   */\n      dup5\n        /* \"#utility.yul\":29128:29192   */\n      tag_413\n      jump\t// in\n    tag_729:\n        /* \"#utility.yul\":29112:29193   */\n      tag_371\n      jump\t// in\n    tag_728:\n        /* \"#utility.yul\":29103:29193   */\n      swap1\n      pop\n        /* \"#utility.yul\":29213:29218   */\n      dup1\n        /* \"#utility.yul\":29242:29248   */\n      dup4\n        /* \"#utility.yul\":29235:29240   */\n      dup3\n        /* \"#utility.yul\":29228:29249   */\n      mstore\n        /* \"#utility.yul\":29276:29280   */\n      0x20\n        /* \"#utility.yul\":29269:29274   */\n      dup3\n        /* \"#utility.yul\":29265:29281   */\n      add\n        /* \"#utility.yul\":29258:29281   */\n      swap1\n      pop\n        /* \"#utility.yul\":29329:29333   */\n      0x20\n        /* \"#utility.yul\":29321:29327   */\n      dup5\n        /* \"#utility.yul\":29317:29334   */\n      mul\n        /* \"#utility.yul\":29309:29315   */\n      dup4\n        /* \"#utility.yul\":29305:29335   */\n      add\n        /* \"#utility.yul\":29358:29361   */\n      dup6\n        /* \"#utility.yul\":29350:29356   */\n      dup2\n        /* \"#utility.yul\":29347:29362   */\n      gt\n        /* \"#utility.yul\":29344:29466   */\n      iszero\n      tag_730\n      jumpi\n        /* \"#utility.yul\":29377:29456   */\n      tag_731\n      tag_351\n      jump\t// in\n    tag_731:\n        /* \"#utility.yul\":29344:29466   */\n    tag_730:\n        /* \"#utility.yul\":29492:29498   */\n      dup4\n        /* \"#utility.yul\":29475:29706   */\n    tag_732:\n        /* \"#utility.yul\":29509:29515   */\n      dup2\n        /* \"#utility.yul\":29504:29507   */\n      dup2\n        /* \"#utility.yul\":29501:29516   */\n      lt\n        /* \"#utility.yul\":29475:29706   */\n      iszero\n      tag_734\n      jumpi\n        /* \"#utility.yul\":29584:29587   */\n      dup1\n        /* \"#utility.yul\":29613:29661   */\n      tag_735\n        /* \"#utility.yul\":29657:29660   */\n      dup9\n        /* \"#utility.yul\":29645:29655   */\n      dup3\n        /* \"#utility.yul\":29613:29661   */\n      tag_414\n      jump\t// in\n    tag_735:\n        /* \"#utility.yul\":29608:29611   */\n      dup5\n        /* \"#utility.yul\":29601:29662   */\n      mstore\n        /* \"#utility.yul\":29691:29695   */\n      0x20\n        /* \"#utility.yul\":29686:29689   */\n      dup5\n        /* \"#utility.yul\":29682:29696   */\n      add\n        /* \"#utility.yul\":29675:29696   */\n      swap4\n      pop\n        /* \"#utility.yul\":29551:29706   */\n      pop\n        /* \"#utility.yul\":29535:29539   */\n      0x20\n        /* \"#utility.yul\":29530:29533   */\n      dup2\n        /* \"#utility.yul\":29526:29540   */\n      add\n        /* \"#utility.yul\":29519:29540   */\n      swap1\n      pop\n        /* \"#utility.yul\":29475:29706   */\n      jump(tag_732)\n    tag_734:\n        /* \"#utility.yul\":29479:29500   */\n      pop\n        /* \"#utility.yul\":29093:29712   */\n      pop\n      pop\n        /* \"#utility.yul\":28980:29712   */\n      swap4\n      swap3\n      pop\n      pop\n      pop\n      jump\t// out\n        /* \"#utility.yul\":29735:30120   */\n    tag_416:\n        /* \"#utility.yul\":29817:29822   */\n      0x00\n        /* \"#utility.yul\":29866:29869   */\n      dup3\n        /* \"#utility.yul\":29859:29863   */\n      0x1f\n        /* \"#utility.yul\":29851:29857   */\n      dup4\n        /* \"#utility.yul\":29847:29864   */\n      add\n        /* \"#utility.yul\":29843:29870   */\n      slt\n        /* \"#utility.yul\":29833:29955   */\n      tag_737\n      jumpi\n        /* \"#utility.yul\":29874:29953   */\n      tag_738\n      tag_354\n      jump\t// in\n    tag_738:\n        /* \"#utility.yul\":29833:29955   */\n    tag_737:\n        /* \"#utility.yul\":29984:29990   */\n      dup2\n        /* \"#utility.yul\":29978:29991   */\n      mload\n        /* \"#utility.yul\":30009:30114   */\n      tag_739\n        /* \"#utility.yul\":30110:30113   */\n      dup5\n        /* \"#utility.yul\":30102:30108   */\n      dup3\n        /* \"#utility.yul\":30095:30099   */\n      0x20\n        /* \"#utility.yul\":30087:30093   */\n      dup7\n        /* \"#utility.yul\":30083:30100   */\n      add\n        /* \"#utility.yul\":30009:30114   */\n      tag_415\n      jump\t// in\n    tag_739:\n        /* \"#utility.yul\":30000:30114   */\n      swap2\n      pop\n        /* \"#utility.yul\":29823:30120   */\n      pop\n        /* \"#utility.yul\":29735:30120   */\n      swap3\n      swap2\n      pop\n      pop\n      jump\t// out\n        /* \"#utility.yul\":30126:30680   */\n    tag_271:\n        /* \"#utility.yul\":30221:30227   */\n      0x00\n        /* \"#utility.yul\":30270:30272   */\n      0x20\n        /* \"#utility.yul\":30258:30267   */\n      dup3\n        /* \"#utility.yul\":30249:30256   */\n      dup5\n        /* \"#utility.yul\":30245:30268   */\n      sub\n        /* \"#utility.yul\":30241:30273   */\n      slt\n        /* \"#utility.yul\":30238:30357   */\n      iszero\n      tag_741\n      jumpi\n        /* \"#utility.yul\":30276:30355   */\n      tag_742\n      tag_341\n      jump\t// in\n    tag_742:\n        /* \"#utility.yul\":30238:30357   */\n    tag_741:\n        /* \"#utility.yul\":30417:30418   */\n      0x00\n        /* \"#utility.yul\":30406:30415   */\n      dup3\n        /* \"#utility.yul\":30402:30419   */\n      add\n        /* \"#utility.yul\":30396:30420   */\n      mload\n        /* \"#utility.yul\":30447:30465   */\n      0xffffffffffffffff\n        /* \"#utility.yul\":30439:30445   */\n      dup2\n        /* \"#utility.yul\":30436:30466   */\n      gt\n        /* \"#utility.yul\":30433:30550   */\n      iszero\n      tag_743\n      jumpi\n        /* \"#utility.yul\":30469:30548   */\n      tag_744\n      tag_342\n      jump\t// in\n    tag_744:\n        /* \"#utility.yul\":30433:30550   */\n    tag_743:\n        /* \"#utility.yul\":30574:30663   */\n      tag_745\n        /* \"#utility.yul\":30655:30662   */\n      dup5\n        /* \"#utility.yul\":30646:30652   */\n      dup3\n        /* \"#utility.yul\":30635:30644   */\n      dup6\n        /* \"#utility.yul\":30631:30653   */\n      add\n        /* \"#utility.yul\":30574:30663   */\n      tag_416\n      jump\t// in\n    tag_745:\n        /* \"#utility.yul\":30564:30663   */\n      swap2\n      pop\n        /* \"#utility.yul\":30367:30673   */\n      pop\n        /* \"#utility.yul\":30126:30680   */\n      swap3\n      swap2\n      pop\n      pop\n      jump\t// out\n        /* \"#utility.yul\":30686:31096   */\n    tag_276:\n        /* \"#utility.yul\":30726:30733   */\n      0x00\n        /* \"#utility.yul\":30749:30769   */\n      tag_747\n        /* \"#utility.yul\":30767:30768   */\n      dup3\n        /* \"#utility.yul\":30749:30769   */\n      tag_343\n      jump\t// in\n    tag_747:\n        /* \"#utility.yul\":30744:30769   */\n      swap2\n      pop\n        /* \"#utility.yul\":30783:30803   */\n      tag_748\n        /* \"#utility.yul\":30801:30802   */\n      dup4\n        /* \"#utility.yul\":30783:30803   */\n      tag_343\n      jump\t// in\n    tag_748:\n        /* \"#utility.yul\":30778:30803   */\n      swap3\n      pop\n        /* \"#utility.yul\":30838:30839   */\n      dup3\n        /* \"#utility.yul\":30835:30836   */\n      dup3\n        /* \"#utility.yul\":30831:30840   */\n      mul\n        /* \"#utility.yul\":30860:30890   */\n      tag_749\n        /* \"#utility.yul\":30878:30889   */\n      dup2\n        /* \"#utility.yul\":30860:30890   */\n      tag_343\n      jump\t// in\n    tag_749:\n        /* \"#utility.yul\":30849:30890   */\n      swap2\n      pop\n        /* \"#utility.yul\":31039:31040   */\n      dup3\n        /* \"#utility.yul\":31030:31037   */\n      dup3\n        /* \"#utility.yul\":31026:31041   */\n      div\n        /* \"#utility.yul\":31023:31024   */\n      dup5\n        /* \"#utility.yul\":31020:31042   */\n      eq\n        /* \"#utility.yul\":31000:31001   */\n      dup4\n        /* \"#utility.yul\":30993:31002   */\n      iszero\n        /* \"#utility.yul\":30973:31056   */\n      or\n        /* \"#utility.yul\":30950:31089   */\n      tag_750\n      jumpi\n        /* \"#utility.yul\":31069:31087   */\n      tag_751\n      tag_407\n      jump\t// in\n    tag_751:\n        /* \"#utility.yul\":30950:31089   */\n    tag_750:\n        /* \"#utility.yul\":30734:31096   */\n      pop\n        /* \"#utility.yul\":30686:31096   */\n      swap3\n      swap2\n      pop\n      pop\n      jump\t// out\n        /* \"#utility.yul\":31102:31219   */\n    tag_417:\n        /* \"#utility.yul\":31211:31212   */\n      0x00\n        /* \"#utility.yul\":31208:31209   */\n      0x00\n        /* \"#utility.yul\":31201:31213   */\n      revert\n        /* \"#utility.yul\":31225:31342   */\n    tag_418:\n        /* \"#utility.yul\":31334:31335   */\n      0x00\n        /* \"#utility.yul\":31331:31332   */\n      0x00\n        /* \"#utility.yul\":31324:31336   */\n      revert\n        /* \"#utility.yul\":31348:31817   */\n    tag_280:\n        /* \"#utility.yul\":31453:31462   */\n      0x00\n        /* \"#utility.yul\":31464:31473   */\n      0x00\n        /* \"#utility.yul\":31502:31510   */\n      dup6\n        /* \"#utility.yul\":31490:31500   */\n      dup6\n        /* \"#utility.yul\":31487:31511   */\n      gt\n        /* \"#utility.yul\":31484:31595   */\n      iszero\n      tag_755\n      jumpi\n        /* \"#utility.yul\":31514:31593   */\n      tag_756\n      tag_417\n      jump\t// in\n    tag_756:\n        /* \"#utility.yul\":31484:31595   */\n    tag_755:\n        /* \"#utility.yul\":31620:31626   */\n      dup4\n        /* \"#utility.yul\":31610:31618   */\n      dup7\n        /* \"#utility.yul\":31607:31627   */\n      gt\n        /* \"#utility.yul\":31604:31711   */\n      iszero\n      tag_757\n      jumpi\n        /* \"#utility.yul\":31630:31709   */\n      tag_758\n      tag_418\n      jump\t// in\n    tag_758:\n        /* \"#utility.yul\":31604:31711   */\n    tag_757:\n        /* \"#utility.yul\":31761:31762   */\n      0x01\n        /* \"#utility.yul\":31749:31759   */\n      dup6\n        /* \"#utility.yul\":31745:31763   */\n      mul\n        /* \"#utility.yul\":31737:31743   */\n      dup4\n        /* \"#utility.yul\":31733:31764   */\n      add\n        /* \"#utility.yul\":31720:31764   */\n      swap2\n      pop\n        /* \"#utility.yul\":31800:31810   */\n      dup5\n        /* \"#utility.yul\":31790:31798   */\n      dup7\n        /* \"#utility.yul\":31786:31811   */\n      sub\n        /* \"#utility.yul\":31773:31811   */\n      swap1\n      pop\n        /* \"#utility.yul\":31348:31817   */\n      swap5\n      pop\n      swap5\n      swap3\n      pop\n      pop\n      pop\n      jump\t// out\n        /* \"#utility.yul\":31823:31990   */\n    tag_419:\n        /* \"#utility.yul\":31963:31982   */\n      0x496e76616c6964207369676e6174757265000000000000000000000000000000\n        /* \"#utility.yul\":31959:31960   */\n      0x00\n        /* \"#utility.yul\":31951:31957   */\n      dup3\n        /* \"#utility.yul\":31947:31961   */\n      add\n        /* \"#utility.yul\":31940:31983   */\n      mstore\n        /* \"#utility.yul\":31823:31990   */\n      pop\n      jump\t// out\n        /* \"#utility.yul\":31996:32362   */\n    tag_420:\n        /* \"#utility.yul\":32138:32141   */\n      0x00\n        /* \"#utility.yul\":32159:32226   */\n      tag_761\n        /* \"#utility.yul\":32223:32225   */\n      0x11\n        /* \"#utility.yul\":32218:32221   */\n      dup4\n        /* \"#utility.yul\":32159:32226   */\n      tag_383\n      jump\t// in\n    tag_761:\n        /* \"#utility.yul\":32152:32226   */\n      swap2\n      pop\n        /* \"#utility.yul\":32235:32328   */\n      tag_762\n        /* \"#utility.yul\":32324:32327   */\n      dup3\n        /* \"#utility.yul\":32235:32328   */\n      tag_419\n      jump\t// in\n    tag_762:\n        /* \"#utility.yul\":32353:32355   */\n      0x20\n        /* \"#utility.yul\":32348:32351   */\n      dup3\n        /* \"#utility.yul\":32344:32356   */\n      add\n        /* \"#utility.yul\":32337:32356   */\n      swap1\n      pop\n        /* \"#utility.yul\":31996:32362   */\n      swap2\n      swap1\n      pop\n      jump\t// out\n        /* \"#utility.yul\":32368:32787   */\n    tag_284:\n        /* \"#utility.yul\":32534:32538   */\n      0x00\n        /* \"#utility.yul\":32572:32574   */\n      0x20\n        /* \"#utility.yul\":32561:32570   */\n      dup3\n        /* \"#utility.yul\":32557:32575   */\n      add\n        /* \"#utility.yul\":32549:32575   */\n      swap1\n      pop\n        /* \"#utility.yul\":32621:32630   */\n      dup2\n        /* \"#utility.yul\":32615:32619   */\n      dup2\n        /* \"#utility.yul\":32611:32631   */\n      sub\n        /* \"#utility.yul\":32607:32608   */\n      0x00\n        /* \"#utility.yul\":32596:32605   */\n      dup4\n        /* \"#utility.yul\":32592:32609   */\n      add\n        /* \"#utility.yul\":32585:32632   */\n      mstore\n        /* \"#utility.yul\":32649:32780   */\n      tag_764\n        /* \"#utility.yul\":32775:32779   */\n      dup2\n        /* \"#utility.yul\":32649:32780   */\n      tag_420\n      jump\t// in\n    tag_764:\n        /* \"#utility.yul\":32641:32780   */\n      swap1\n      pop\n        /* \"#utility.yul\":32368:32787   */\n      swap2\n      swap1\n      pop\n      jump\t// out\n        /* \"#utility.yul\":32793:32973   */\n    tag_421:\n        /* \"#utility.yul\":32933:32965   */\n      0x5369676e6572206e6f7420616e206163746976652076616c696461746f720000\n        /* \"#utility.yul\":32929:32930   */\n      0x00\n        /* \"#utility.yul\":32921:32927   */\n      dup3\n        /* \"#utility.yul\":32917:32931   */\n      add\n        /* \"#utility.yul\":32910:32966   */\n      mstore\n        /* \"#utility.yul\":32793:32973   */\n      pop\n      jump\t// out\n        /* \"#utility.yul\":32979:33345   */\n    tag_422:\n        /* \"#utility.yul\":33121:33124   */\n      0x00\n        /* \"#utility.yul\":33142:33209   */\n      tag_767\n        /* \"#utility.yul\":33206:33208   */\n      0x1e\n        /* \"#utility.yul\":33201:33204   */\n      dup4\n        /* \"#utility.yul\":33142:33209   */\n      tag_383\n      jump\t// in\n    tag_767:\n        /* \"#utility.yul\":33135:33209   */\n      swap2\n      pop\n        /* \"#utility.yul\":33218:33311   */\n      tag_768\n        /* \"#utility.yul\":33307:33310   */\n      dup3\n        /* \"#utility.yul\":33218:33311   */\n      tag_421\n      jump\t// in\n    tag_768:\n        /* \"#utility.yul\":33336:33338   */\n      0x20\n        /* \"#utility.yul\":33331:33334   */\n      dup3\n        /* \"#utility.yul\":33327:33339   */\n      add\n        /* \"#utility.yul\":33320:33339   */\n      swap1\n      pop\n        /* \"#utility.yul\":32979:33345   */\n      swap2\n      swap1\n      pop\n      jump\t// out\n        /* \"#utility.yul\":33351:33770   */\n    tag_293:\n        /* \"#utility.yul\":33517:33521   */\n      0x00\n        /* \"#utility.yul\":33555:33557   */\n      0x20\n        /* \"#utility.yul\":33544:33553   */\n      dup3\n        /* \"#utility.yul\":33540:33558   */\n      add\n        /* \"#utility.yul\":33532:33558   */\n      swap1\n      pop\n        /* \"#utility.yul\":33604:33613   */\n      dup2\n        /* \"#utility.yul\":33598:33602   */\n      dup2\n        /* \"#utility.yul\":33594:33614   */\n      sub\n        /* \"#utility.yul\":33590:33591   */\n      0x00\n        /* \"#utility.yul\":33579:33588   */\n      dup4\n        /* \"#utility.yul\":33575:33592   */\n      add\n        /* \"#utility.yul\":33568:33615   */\n      mstore\n        /* \"#utility.yul\":33632:33763   */\n      tag_770\n        /* \"#utility.yul\":33758:33762   */\n      dup2\n        /* \"#utility.yul\":33632:33763   */\n      tag_422\n      jump\t// in\n    tag_770:\n        /* \"#utility.yul\":33624:33763   */\n      swap1\n      pop\n        /* \"#utility.yul\":33351:33770   */\n      swap2\n      swap1\n      pop\n      jump\t// out\n        /* \"#utility.yul\":33776:34166   */\n    tag_423:\n        /* \"#utility.yul\":33882:33885   */\n      0x00\n        /* \"#utility.yul\":33910:33949   */\n      tag_772\n        /* \"#utility.yul\":33943:33948   */\n      dup3\n        /* \"#utility.yul\":33910:33949   */\n      tag_382\n      jump\t// in\n    tag_772:\n        /* \"#utility.yul\":33965:34054   */\n      tag_773\n        /* \"#utility.yul\":34047:34053   */\n      dup2\n        /* \"#utility.yul\":34042:34045   */\n      dup6\n        /* \"#utility.yul\":33965:34054   */\n      tag_408\n      jump\t// in\n    tag_773:\n        /* \"#utility.yul\":33958:34054   */\n      swap4\n      pop\n        /* \"#utility.yul\":34063:34128   */\n      tag_774\n        /* \"#utility.yul\":34121:34127   */\n      dup2\n        /* \"#utility.yul\":34116:34119   */\n      dup6\n        /* \"#utility.yul\":34109:34113   */\n      0x20\n        /* \"#utility.yul\":34102:34107   */\n      dup7\n        /* \"#utility.yul\":34098:34114   */\n      add\n        /* \"#utility.yul\":34063:34128   */\n      tag_348\n      jump\t// in\n    tag_774:\n        /* \"#utility.yul\":34153:34159   */\n      dup1\n        /* \"#utility.yul\":34148:34151   */\n      dup5\n        /* \"#utility.yul\":34144:34160   */\n      add\n        /* \"#utility.yul\":34137:34160   */\n      swap2\n      pop\n        /* \"#utility.yul\":33886:34166   */\n      pop\n        /* \"#utility.yul\":33776:34166   */\n      swap3\n      swap2\n      pop\n      pop\n      jump\t// out\n        /* \"#utility.yul\":34172:34328   */\n    tag_424:\n        /* \"#utility.yul\":34312:34320   */\n      0x5f7661756c740000000000000000000000000000000000000000000000000000\n        /* \"#utility.yul\":34308:34309   */\n      0x00\n        /* \"#utility.yul\":34300:34306   */\n      dup3\n        /* \"#utility.yul\":34296:34310   */\n      add\n        /* \"#utility.yul\":34289:34321   */\n      mstore\n        /* \"#utility.yul\":34172:34328   */\n      pop\n      jump\t// out\n        /* \"#utility.yul\":34334:34734   */\n    tag_425:\n        /* \"#utility.yul\":34494:34497   */\n      0x00\n        /* \"#utility.yul\":34515:34599   */\n      tag_777\n        /* \"#utility.yul\":34597:34598   */\n      0x06\n        /* \"#utility.yul\":34592:34595   */\n      dup4\n        /* \"#utility.yul\":34515:34599   */\n      tag_408\n      jump\t// in\n    tag_777:\n        /* \"#utility.yul\":34508:34599   */\n      swap2\n      pop\n        /* \"#utility.yul\":34608:34701   */\n      tag_778\n        /* \"#utility.yul\":34697:34700   */\n      dup3\n        /* \"#utility.yul\":34608:34701   */\n      tag_424\n      jump\t// in\n    tag_778:\n        /* \"#utility.yul\":34726:34727   */\n      0x06\n        /* \"#utility.yul\":34721:34724   */\n      dup3\n        /* \"#utility.yul\":34717:34728   */\n      add\n        /* \"#utility.yul\":34710:34728   */\n      swap1\n      pop\n        /* \"#utility.yul\":34334:34734   */\n      swap2\n      swap1\n      pop\n      jump\t// out\n        /* \"#utility.yul\":34740:35281   */\n    tag_304:\n        /* \"#utility.yul\":34973:34976   */\n      0x00\n        /* \"#utility.yul\":34995:35090   */\n      tag_780\n        /* \"#utility.yul\":35086:35089   */\n      dup3\n        /* \"#utility.yul\":35077:35083   */\n      dup5\n        /* \"#utility.yul\":34995:35090   */\n      tag_423\n      jump\t// in\n    tag_780:\n        /* \"#utility.yul\":34988:35090   */\n      swap2\n      pop\n        /* \"#utility.yul\":35107:35255   */\n      tag_781\n        /* \"#utility.yul\":35251:35254   */\n      dup3\n        /* \"#utility.yul\":35107:35255   */\n      tag_425\n      jump\t// in\n    tag_781:\n        /* \"#utility.yul\":35100:35255   */\n      swap2\n      pop\n        /* \"#utility.yul\":35272:35275   */\n      dup2\n        /* \"#utility.yul\":35265:35275   */\n      swap1\n      pop\n        /* \"#utility.yul\":34740:35281   */\n      swap3\n      swap2\n      pop\n      pop\n      jump\t// out\n        /* \"#utility.yul\":35287:35452   */\n    tag_426:\n        /* \"#utility.yul\":35427:35444   */\n      0x5169617261426173654173736574730000000000000000000000000000000000\n        /* \"#utility.yul\":35423:35424   */\n      0x00\n        /* \"#utility.yul\":35415:35421   */\n      dup3\n        /* \"#utility.yul\":35411:35425   */\n      add\n        /* \"#utility.yul\":35404:35445   */\n      mstore\n        /* \"#utility.yul\":35287:35452   */\n      pop\n      jump\t// out\n        /* \"#utility.yul\":35458:35824   */\n    tag_427:\n        /* \"#utility.yul\":35600:35603   */\n      0x00\n        /* \"#utility.yul\":35621:35688   */\n      tag_784\n        /* \"#utility.yul\":35685:35687   */\n      0x0f\n        /* \"#utility.yul\":35680:35683   */\n      dup4\n        /* \"#utility.yul\":35621:35688   */\n      tag_383\n      jump\t// in\n    tag_784:\n        /* \"#utility.yul\":35614:35688   */\n      swap2\n      pop\n        /* \"#utility.yul\":35697:35790   */\n      tag_785\n        /* \"#utility.yul\":35786:35789   */\n      dup3\n        /* \"#utility.yul\":35697:35790   */\n      tag_426\n      jump\t// in\n    tag_785:\n        /* \"#utility.yul\":35815:35817   */\n      0x20\n        /* \"#utility.yul\":35810:35813   */\n      dup3\n        /* \"#utility.yul\":35806:35818   */\n      add\n        /* \"#utility.yul\":35799:35818   */\n      swap1\n      pop\n        /* \"#utility.yul\":35458:35824   */\n      swap2\n      swap1\n      pop\n      jump\t// out\n        /* \"#utility.yul\":35830:36450   */\n    tag_306:\n        /* \"#utility.yul\":36044:36048   */\n      0x00\n        /* \"#utility.yul\":36082:36084   */\n      0x40\n        /* \"#utility.yul\":36071:36080   */\n      dup3\n        /* \"#utility.yul\":36067:36085   */\n      add\n        /* \"#utility.yul\":36059:36085   */\n      swap1\n      pop\n        /* \"#utility.yul\":36131:36140   */\n      dup2\n        /* \"#utility.yul\":36125:36129   */\n      dup2\n        /* \"#utility.yul\":36121:36141   */\n      sub\n        /* \"#utility.yul\":36117:36118   */\n      0x00\n        /* \"#utility.yul\":36106:36115   */\n      dup4\n        /* \"#utility.yul\":36102:36119   */\n      add\n        /* \"#utility.yul\":36095:36142   */\n      mstore\n        /* \"#utility.yul\":36159:36290   */\n      tag_787\n        /* \"#utility.yul\":36285:36289   */\n      dup2\n        /* \"#utility.yul\":36159:36290   */\n      tag_427\n      jump\t// in\n    tag_787:\n        /* \"#utility.yul\":36151:36290   */\n      swap1\n      pop\n        /* \"#utility.yul\":36337:36346   */\n      dup2\n        /* \"#utility.yul\":36331:36335   */\n      dup2\n        /* \"#utility.yul\":36327:36347   */\n      sub\n        /* \"#utility.yul\":36322:36324   */\n      0x20\n        /* \"#utility.yul\":36311:36320   */\n      dup4\n        /* \"#utility.yul\":36307:36325   */\n      add\n        /* \"#utility.yul\":36300:36348   */\n      mstore\n        /* \"#utility.yul\":36365:36443   */\n      tag_788\n        /* \"#utility.yul\":36438:36442   */\n      dup2\n        /* \"#utility.yul\":36429:36435   */\n      dup5\n        /* \"#utility.yul\":36365:36443   */\n      tag_384\n      jump\t// in\n    tag_788:\n        /* \"#utility.yul\":36357:36443   */\n      swap1\n      pop\n        /* \"#utility.yul\":35830:36450   */\n      swap3\n      swap2\n      pop\n      pop\n      jump\t// out\n        /* \"#utility.yul\":36456:36888   */\n    tag_428:\n        /* \"#utility.yul\":36544:36549   */\n      0x00\n        /* \"#utility.yul\":36569:36634   */\n      tag_790\n        /* \"#utility.yul\":36585:36633   */\n      tag_791\n        /* \"#utility.yul\":36626:36632   */\n      dup5\n        /* \"#utility.yul\":36585:36633   */\n      tag_372\n      jump\t// in\n    tag_791:\n        /* \"#utility.yul\":36569:36634   */\n      tag_371\n      jump\t// in\n    tag_790:\n        /* \"#utility.yul\":36560:36634   */\n      swap1\n      pop\n        /* \"#utility.yul\":36657:36663   */\n      dup3\n        /* \"#utility.yul\":36650:36655   */\n      dup2\n        /* \"#utility.yul\":36643:36664   */\n      mstore\n        /* \"#utility.yul\":36695:36699   */\n      0x20\n        /* \"#utility.yul\":36688:36693   */\n      dup2\n        /* \"#utility.yul\":36684:36700   */\n      add\n        /* \"#utility.yul\":36733:36736   */\n      dup5\n        /* \"#utility.yul\":36724:36730   */\n      dup5\n        /* \"#utility.yul\":36719:36722   */\n      dup5\n        /* \"#utility.yul\":36715:36731   */\n      add\n        /* \"#utility.yul\":36712:36737   */\n      gt\n        /* \"#utility.yul\":36709:36821   */\n      iszero\n      tag_792\n      jumpi\n        /* \"#utility.yul\":36740:36819   */\n      tag_793\n      tag_369\n      jump\t// in\n    tag_793:\n        /* \"#utility.yul\":36709:36821   */\n    tag_792:\n        /* \"#utility.yul\":36830:36882   */\n      tag_794\n        /* \"#utility.yul\":36875:36881   */\n      dup5\n        /* \"#utility.yul\":36870:36873   */\n      dup3\n        /* \"#utility.yul\":36865:36868   */\n      dup6\n        /* \"#utility.yul\":36830:36882   */\n      tag_348\n      jump\t// in\n    tag_794:\n        /* \"#utility.yul\":36550:36888   */\n      pop\n        /* \"#utility.yul\":36456:36888   */\n      swap4\n      swap3\n      pop\n      pop\n      pop\n      jump\t// out\n        /* \"#utility.yul\":36907:37260   */\n    tag_429:\n        /* \"#utility.yul\":36973:36978   */\n      0x00\n        /* \"#utility.yul\":37022:37025   */\n      dup3\n        /* \"#utility.yul\":37015:37019   */\n      0x1f\n        /* \"#utility.yul\":37007:37013   */\n      dup4\n        /* \"#utility.yul\":37003:37020   */\n      add\n        /* \"#utility.yul\":36999:37026   */\n      slt\n        /* \"#utility.yul\":36989:37111   */\n      tag_796\n      jumpi\n        /* \"#utility.yul\":37030:37109   */\n      tag_797\n      tag_354\n      jump\t// in\n    tag_797:\n        /* \"#utility.yul\":36989:37111   */\n    tag_796:\n        /* \"#utility.yul\":37140:37146   */\n      dup2\n        /* \"#utility.yul\":37134:37147   */\n      mload\n        /* \"#utility.yul\":37165:37254   */\n      tag_798\n        /* \"#utility.yul\":37250:37253   */\n      dup5\n        /* \"#utility.yul\":37242:37248   */\n      dup3\n        /* \"#utility.yul\":37235:37239   */\n      0x20\n        /* \"#utility.yul\":37227:37233   */\n      dup7\n        /* \"#utility.yul\":37223:37240   */\n      add\n        /* \"#utility.yul\":37165:37254   */\n      tag_428\n      jump\t// in\n    tag_798:\n        /* \"#utility.yul\":37156:37254   */\n      swap2\n      pop\n        /* \"#utility.yul\":36979:37260   */\n      pop\n        /* \"#utility.yul\":36907:37260   */\n      swap3\n      swap2\n      pop\n      pop\n      jump\t// out\n        /* \"#utility.yul\":37266:37788   */\n    tag_310:\n        /* \"#utility.yul\":37345:37351   */\n      0x00\n        /* \"#utility.yul\":37394:37396   */\n      0x20\n        /* \"#utility.yul\":37382:37391   */\n      dup3\n        /* \"#utility.yul\":37373:37380   */\n      dup5\n        /* \"#utility.yul\":37369:37392   */\n      sub\n        /* \"#utility.yul\":37365:37397   */\n      slt\n        /* \"#utility.yul\":37362:37481   */\n      iszero\n      tag_800\n      jumpi\n        /* \"#utility.yul\":37400:37479   */\n      tag_801\n      tag_341\n      jump\t// in\n    tag_801:\n        /* \"#utility.yul\":37362:37481   */\n    tag_800:\n        /* \"#utility.yul\":37541:37542   */\n      0x00\n        /* \"#utility.yul\":37530:37539   */\n      dup3\n        /* \"#utility.yul\":37526:37543   */\n      add\n        /* \"#utility.yul\":37520:37544   */\n      mload\n        /* \"#utility.yul\":37571:37589   */\n      0xffffffffffffffff\n        /* \"#utility.yul\":37563:37569   */\n      dup2\n        /* \"#utility.yul\":37560:37590   */\n      gt\n        /* \"#utility.yul\":37557:37674   */\n      iszero\n      tag_802\n      jumpi\n        /* \"#utility.yul\":37593:37672   */\n      tag_803\n      tag_342\n      jump\t// in\n    tag_803:\n        /* \"#utility.yul\":37557:37674   */\n    tag_802:\n        /* \"#utility.yul\":37698:37771   */\n      tag_804\n        /* \"#utility.yul\":37763:37770   */\n      dup5\n        /* \"#utility.yul\":37754:37760   */\n      dup3\n        /* \"#utility.yul\":37743:37752   */\n      dup6\n        /* \"#utility.yul\":37739:37761   */\n      add\n        /* \"#utility.yul\":37698:37771   */\n      tag_429\n      jump\t// in\n    tag_804:\n        /* \"#utility.yul\":37688:37771   */\n      swap2\n      pop\n        /* \"#utility.yul\":37491:37781   */\n      pop\n        /* \"#utility.yul\":37266:37788   */\n      swap3\n      swap2\n      pop\n      pop\n      jump\t// out\n        /* \"#utility.yul\":37794:37964   */\n    tag_430:\n        /* \"#utility.yul\":37934:37956   */\n      0x5661756c74206e6f7420617574686f72697a6564000000000000000000000000\n        /* \"#utility.yul\":37930:37931   */\n      0x00\n        /* \"#utility.yul\":37922:37928   */\n      dup3\n        /* \"#utility.yul\":37918:37932   */\n      add\n        /* \"#utility.yul\":37911:37957   */\n      mstore\n        /* \"#utility.yul\":37794:37964   */\n      pop\n      jump\t// out\n        /* \"#utility.yul\":37970:38336   */\n    tag_431:\n        /* \"#utility.yul\":38112:38115   */\n      0x00\n        /* \"#utility.yul\":38133:38200   */\n      tag_807\n        /* \"#utility.yul\":38197:38199   */\n      0x14\n        /* \"#utility.yul\":38192:38195   */\n      dup4\n        /* \"#utility.yul\":38133:38200   */\n      tag_383\n      jump\t// in\n    tag_807:\n        /* \"#utility.yul\":38126:38200   */\n      swap2\n      pop\n        /* \"#utility.yul\":38209:38302   */\n      tag_808\n        /* \"#utility.yul\":38298:38301   */\n      dup3\n        /* \"#utility.yul\":38209:38302   */\n      tag_430\n      jump\t// in\n    tag_808:\n        /* \"#utility.yul\":38327:38329   */\n      0x20\n        /* \"#utility.yul\":38322:38325   */\n      dup3\n        /* \"#utility.yul\":38318:38330   */\n      add\n        /* \"#utility.yul\":38311:38330   */\n      swap1\n      pop\n        /* \"#utility.yul\":37970:38336   */\n      swap2\n      swap1\n      pop\n      jump\t// out\n        /* \"#utility.yul\":38342:38761   */\n    tag_313:\n        /* \"#utility.yul\":38508:38512   */\n      0x00\n        /* \"#utility.yul\":38546:38548   */\n      0x20\n        /* \"#utility.yul\":38535:38544   */\n      dup3\n        /* \"#utility.yul\":38531:38549   */\n      add\n        /* \"#utility.yul\":38523:38549   */\n      swap1\n      pop\n        /* \"#utility.yul\":38595:38604   */\n      dup2\n        /* \"#utility.yul\":38589:38593   */\n      dup2\n        /* \"#utility.yul\":38585:38605   */\n      sub\n        /* \"#utility.yul\":38581:38582   */\n      0x00\n        /* \"#utility.yul\":38570:38579   */\n      dup4\n        /* \"#utility.yul\":38566:38583   */\n      add\n        /* \"#utility.yul\":38559:38606   */\n      mstore\n        /* \"#utility.yul\":38623:38754   */\n      tag_810\n        /* \"#utility.yul\":38749:38753   */\n      dup2\n        /* \"#utility.yul\":38623:38754   */\n      tag_431\n      jump\t// in\n    tag_810:\n        /* \"#utility.yul\":38615:38754   */\n      swap1\n      pop\n        /* \"#utility.yul\":38342:38761   */\n      swap2\n      swap1\n      pop\n      jump\t// out\n        /* \"#utility.yul\":38767:38883   */\n    tag_432:\n        /* \"#utility.yul\":38818:38822   */\n      0x00\n        /* \"#utility.yul\":38841:38844   */\n      dup2\n        /* \"#utility.yul\":38833:38844   */\n      swap1\n      pop\n        /* \"#utility.yul\":38871:38875   */\n      0x20\n        /* \"#utility.yul\":38866:38869   */\n      dup3\n        /* \"#utility.yul\":38862:38876   */\n      add\n        /* \"#utility.yul\":38854:38876   */\n      swap1\n      pop\n        /* \"#utility.yul\":38767:38883   */\n      swap2\n      swap1\n      pop\n      jump\t// out\n        /* \"#utility.yul\":38889:39039   */\n    tag_433:\n        /* \"#utility.yul\":38926:38933   */\n      0x00\n        /* \"#utility.yul\":38966:39032   */\n      0xffffffffffffffffffffffffffffffffffffffff000000000000000000000000\n        /* \"#utility.yul\":38959:38964   */\n      dup3\n        /* \"#utility.yul\":38955:39033   */\n      and\n        /* \"#utility.yul\":38944:39033   */\n      swap1\n      pop\n        /* \"#utility.yul\":38889:39039   */\n      swap2\n      swap1\n      pop\n      jump\t// out\n        /* \"#utility.yul\":39045:39199   */\n    tag_434:\n        /* \"#utility.yul\":39088:39099   */\n      0x00\n        /* \"#utility.yul\":39124:39153   */\n      tag_814\n        /* \"#utility.yul\":39148:39151   */\n      dup3\n        /* \"#utility.yul\":39142:39152   */\n      mload\n        /* \"#utility.yul\":39124:39153   */\n      tag_433\n      jump\t// in\n    tag_814:\n        /* \"#utility.yul\":39187:39192   */\n      dup1\n        /* \"#utility.yul\":39163:39192   */\n      swap2\n      pop\n        /* \"#utility.yul\":39100:39199   */\n      pop\n        /* \"#utility.yul\":39045:39199   */\n      swap2\n      swap1\n      pop\n      jump\t// out\n        /* \"#utility.yul\":39205:39312   */\n    tag_435:\n        /* \"#utility.yul\":39249:39257   */\n      0x00\n        /* \"#utility.yul\":39299:39304   */\n      dup3\n        /* \"#utility.yul\":39293:39297   */\n      dup3\n        /* \"#utility.yul\":39289:39305   */\n      shl\n        /* \"#utility.yul\":39268:39305   */\n      swap1\n      pop\n        /* \"#utility.yul\":39205:39312   */\n      swap3\n      swap2\n      pop\n      pop\n      jump\t// out\n        /* \"#utility.yul\":39318:39912   */\n    tag_315:\n        /* \"#utility.yul\":39402:39407   */\n      0x00\n        /* \"#utility.yul\":39433:39471   */\n      tag_817\n        /* \"#utility.yul\":39465:39470   */\n      dup3\n        /* \"#utility.yul\":39433:39471   */\n      tag_346\n      jump\t// in\n    tag_817:\n        /* \"#utility.yul\":39496:39501   */\n      dup3\n        /* \"#utility.yul\":39523:39563   */\n      tag_818\n        /* \"#utility.yul\":39557:39562   */\n      dup5\n        /* \"#utility.yul\":39523:39563   */\n      tag_432\n      jump\t// in\n    tag_818:\n        /* \"#utility.yul\":39511:39563   */\n      swap1\n      pop\n        /* \"#utility.yul\":39582:39617   */\n      tag_819\n        /* \"#utility.yul\":39608:39616   */\n      dup2\n        /* \"#utility.yul\":39582:39617   */\n      tag_434\n      jump\t// in\n    tag_819:\n        /* \"#utility.yul\":39573:39617   */\n      swap3\n      pop\n        /* \"#utility.yul\":39641:39643   */\n      0x14\n        /* \"#utility.yul\":39633:39639   */\n      dup3\n        /* \"#utility.yul\":39630:39644   */\n      lt\n        /* \"#utility.yul\":39627:39905   */\n      iszero\n      tag_820\n      jumpi\n        /* \"#utility.yul\":39712:39881   */\n      tag_821\n        /* \"#utility.yul\":39797:39863   */\n      0xffffffffffffffffffffffffffffffffffffffff000000000000000000000000\n        /* \"#utility.yul\":39767:39773   */\n      dup4\n        /* \"#utility.yul\":39763:39765   */\n      0x14\n        /* \"#utility.yul\":39759:39774   */\n      sub\n        /* \"#utility.yul\":39756:39757   */\n      0x08\n        /* \"#utility.yul\":39752:39775   */\n      mul\n        /* \"#utility.yul\":39712:39881   */\n      tag_435\n      jump\t// in\n    tag_821:\n        /* \"#utility.yul\":39689:39694   */\n      dup4\n        /* \"#utility.yul\":39668:39895   */\n      and\n        /* \"#utility.yul\":39659:39895   */\n      swap3\n      pop\n        /* \"#utility.yul\":39627:39905   */\n    tag_820:\n        /* \"#utility.yul\":39408:39912   */\n      pop\n      pop\n        /* \"#utility.yul\":39318:39912   */\n      swap2\n      swap1\n      pop\n      jump\t// out\n        /* \"#utility.yul\":39918:40879   */\n    tag_330:\n        /* \"#utility.yul\":40170:40173   */\n      0x00\n        /* \"#utility.yul\":40185:40260   */\n      tag_823\n        /* \"#utility.yul\":40256:40259   */\n      dup3\n        /* \"#utility.yul\":40247:40253   */\n      dup10\n        /* \"#utility.yul\":40185:40260   */\n      tag_393\n      jump\t// in\n    tag_823:\n        /* \"#utility.yul\":40285:40287   */\n      0x20\n        /* \"#utility.yul\":40280:40283   */\n      dup3\n        /* \"#utility.yul\":40276:40288   */\n      add\n        /* \"#utility.yul\":40269:40288   */\n      swap2\n      pop\n        /* \"#utility.yul\":40298:40373   */\n      tag_824\n        /* \"#utility.yul\":40369:40372   */\n      dup3\n        /* \"#utility.yul\":40360:40366   */\n      dup9\n        /* \"#utility.yul\":40298:40373   */\n      tag_393\n      jump\t// in\n    tag_824:\n        /* \"#utility.yul\":40398:40400   */\n      0x20\n        /* \"#utility.yul\":40393:40396   */\n      dup3\n        /* \"#utility.yul\":40389:40401   */\n      add\n        /* \"#utility.yul\":40382:40401   */\n      swap2\n      pop\n        /* \"#utility.yul\":40411:40486   */\n      tag_825\n        /* \"#utility.yul\":40482:40485   */\n      dup3\n        /* \"#utility.yul\":40473:40479   */\n      dup8\n        /* \"#utility.yul\":40411:40486   */\n      tag_393\n      jump\t// in\n    tag_825:\n        /* \"#utility.yul\":40511:40513   */\n      0x20\n        /* \"#utility.yul\":40506:40509   */\n      dup3\n        /* \"#utility.yul\":40502:40514   */\n      add\n        /* \"#utility.yul\":40495:40514   */\n      swap2\n      pop\n        /* \"#utility.yul\":40524:40599   */\n      tag_826\n        /* \"#utility.yul\":40595:40598   */\n      dup3\n        /* \"#utility.yul\":40586:40592   */\n      dup7\n        /* \"#utility.yul\":40524:40599   */\n      tag_393\n      jump\t// in\n    tag_826:\n        /* \"#utility.yul\":40624:40626   */\n      0x20\n        /* \"#utility.yul\":40619:40622   */\n      dup3\n        /* \"#utility.yul\":40615:40627   */\n      add\n        /* \"#utility.yul\":40608:40627   */\n      swap2\n      pop\n        /* \"#utility.yul\":40637:40712   */\n      tag_827\n        /* \"#utility.yul\":40708:40711   */\n      dup3\n        /* \"#utility.yul\":40699:40705   */\n      dup6\n        /* \"#utility.yul\":40637:40712   */\n      tag_393\n      jump\t// in\n    tag_827:\n        /* \"#utility.yul\":40737:40739   */\n      0x20\n        /* \"#utility.yul\":40732:40735   */\n      dup3\n        /* \"#utility.yul\":40728:40740   */\n      add\n        /* \"#utility.yul\":40721:40740   */\n      swap2\n      pop\n        /* \"#utility.yul\":40750:40825   */\n      tag_828\n        /* \"#utility.yul\":40821:40824   */\n      dup3\n        /* \"#utility.yul\":40812:40818   */\n      dup5\n        /* \"#utility.yul\":40750:40825   */\n      tag_393\n      jump\t// in\n    tag_828:\n        /* \"#utility.yul\":40850:40852   */\n      0x20\n        /* \"#utility.yul\":40845:40848   */\n      dup3\n        /* \"#utility.yul\":40841:40853   */\n      add\n        /* \"#utility.yul\":40834:40853   */\n      swap2\n      pop\n        /* \"#utility.yul\":40870:40873   */\n      dup2\n        /* \"#utility.yul\":40863:40873   */\n      swap1\n      pop\n        /* \"#utility.yul\":39918:40879   */\n      swap8\n      swap7\n      pop\n      pop\n      pop\n      pop\n      pop\n      pop\n      pop\n      jump\t// out\n\n    auxdata: 0xa264697066735822122038305061359ae8e9b4c92018cfd0a2e7bf0f8f3daf0658a8d14e372ed175d30e64736f6c634300081f0033\n}\n",
				"bytecode": {
					"linkReferences": {},
					"object": "610120604052348015610010575f5ffd5b50604051612e9e380380612e9e833981810160405281019061003291906102e1565b335f73ffffffffffffffffffffffffffffffffffffffff168173ffffffffffffffffffffffffffffffffffffffff16036100a3575f6040517f1e4fbdf700000000000000000000000000000000000000000000000000000000815260040161009a9190610367565b60405180910390fd5b6100b2816101c260201b60201c565b508473ffffffffffffffffffffffffffffffffffffffff1660808173ffffffffffffffffffffffffffffffffffffffff16815250508373ffffffffffffffffffffffffffffffffffffffff1660a08173ffffffffffffffffffffffffffffffffffffffff16815250508273ffffffffffffffffffffffffffffffffffffffff1660c08173ffffffffffffffffffffffffffffffffffffffff16815250508173ffffffffffffffffffffffffffffffffffffffff1660e08173ffffffffffffffffffffffffffffffffffffffff16815250508073ffffffffffffffffffffffffffffffffffffffff166101008173ffffffffffffffffffffffffffffffffffffffff16815250505050505050610380565b5f5f5f9054906101000a900473ffffffffffffffffffffffffffffffffffffffff169050815f5f6101000a81548173ffffffffffffffffffffffffffffffffffffffff021916908373ffffffffffffffffffffffffffffffffffffffff1602179055508173ffffffffffffffffffffffffffffffffffffffff168173ffffffffffffffffffffffffffffffffffffffff167f8be0079c531659141344cd1fd0a4f28419497f9722a3daafe3b4186f6b6457e060405160405180910390a35050565b5f5ffd5b5f73ffffffffffffffffffffffffffffffffffffffff82169050919050565b5f6102b082610287565b9050919050565b6102c0816102a6565b81146102ca575f5ffd5b50565b5f815190506102db816102b7565b92915050565b5f5f5f5f5f60a086880312156102fa576102f9610283565b5b5f610307888289016102cd565b9550506020610318888289016102cd565b9450506040610329888289016102cd565b935050606061033a888289016102cd565b925050608061034b888289016102cd565b9150509295509295909350565b610361816102a6565b82525050565b5f60208201905061037a5f830184610358565b92915050565b60805160a05160c05160e05161010051612ab06103ee5f395f818161061001528181610ca301526110de01525f8181610b0b01528181610eed015261142101525f81816103c10152610cc701525f81816108e4015261091b01525f81816106a50152610f950152612ab05ff3fe608060405234801561000f575f5ffd5b5060043610610114575f3560e01c806397aba7f9116100a0578063b648f2201161006f578063b648f220146102de578063bf4d766e1461030e578063f2fde38b1461032c578063f90c0f4014610348578063fa5408011461036657610114565b806397aba7f914610242578063aad2406114610272578063aed881d8146102a2578063b3d63003146102c057610114565b80634eb30d41116100e75780634eb30d41146101b0578063715018a6146101ce57806376fbe04f146101d85780637a988c54146101f45780638da5cb5b1461022457610114565b806319b8c9411461011857806334e1d6a614610148578063392c87311461016457806341e532ca14610180575b5f5ffd5b610132600480360381019061012d919061177d565b610396565b60405161013f9190611818565b60405180910390f35b610162600480360381019061015d91906118db565b6103bf565b005b61017e60048036038101906101799190611970565b6106a3565b005b61019a600480360381019061019591906119e4565b610896565b6040516101a79190611a87565b60405180910390f35b6101b86108e2565b6040516101c59190611afb565b60405180910390f35b6101d6610906565b005b6101f260048036038101906101ed91906118db565b610919565b005b61020e6004803603810190610209919061177d565b610b9e565b60405161021b9190611a87565b60405180910390f35b61022c610ba7565b6040516102399190611a87565b60405180910390f35b61025c60048036038101906102579190611c6f565b610bce565b6040516102699190611a87565b60405180910390f35b61028c6004803603810190610287919061177d565b610c84565b6040516102999190611ce3565b60405180910390f35b6102aa610ca1565b6040516102b79190611d1c565b60405180910390f35b6102c8610cc5565b6040516102d59190611d55565b60405180910390f35b6102f860048036038101906102f3919061177d565b610ce9565b6040516103059190611dc0565b60405180910390f35b610316610eeb565b6040516103239190611e00565b60405180910390f35b61034660048036038101906103419190611e43565b610f0f565b005b610350610f93565b60405161035d9190611e8e565b60405180910390f35b610380600480360381019061037b9190611ea7565b610fb7565b60405161038d9190611ee1565b60405180910390f35b6060816040516020016103a99190611f1a565b6040516020818303038152906040529050919050565b7f000000000000000000000000000000000000000000000000000000000000000073ffffffffffffffffffffffffffffffffffffffff16631042664e85856040518363ffffffff1660e01b815260040161041a929190611f5e565b5f6040518083038186803b158015610430575f5ffd5b505afa158015610442573d5f5f3e3d5ffd5b505050505f8360026007811061045b5761045a611f87565b5b602002013590505f600180601084901c161490505f8560046007811061048457610483611f87565b5b602002013590504681146104cd576040517f08c379a00000000000000000000000000000000000000000000000000000000081526004016104c490611ffe565b60405180910390fd5b5f866003600781106104e2576104e1611f87565b5b60200201356080886004600781106104fd576104fc611f87565b5b6020020135901b1790505f8760056007811061051c5761051b611f87565b5b602002013560808960066007811061053757610536611f87565b5b6020020135901b1790505f828260405160200161055592919061201c565b604051602081830303815290604052805190602001205f1c90505f6105798a610fe6565b9050610588815f1b8a8a6110cf565b60015f8281526020019081526020015f205f9054906101000a900460ff16156105e6576040517f08c379a00000000000000000000000000000000000000000000000000000000081526004016105dd90612091565b60405180910390fd5b6001805f8381526020019081526020015f205f6101000a81548160ff0219169083151502179055507f000000000000000000000000000000000000000000000000000000000000000073ffffffffffffffffffffffffffffffffffffffff166322ca098f83886040518363ffffffff1660e01b81526004016106699291906120af565b5f604051808303815f87803b158015610680575f5ffd5b505af1158015610692573d5f5f3e3d5ffd5b505050505050505050505050505050565b7f000000000000000000000000000000000000000000000000000000000000000073ffffffffffffffffffffffffffffffffffffffff16639cb2865885856040518363ffffffff1660e01b81526004016106fe9291906120e6565b5f6040518083038186803b158015610714575f5ffd5b505afa158015610726573d5f5f3e3d5ffd5b505050505f5f5f61073686611347565b9250925092505f8660026006811061075157610750611f87565b5b602002013590505f8760036006811061076d5761076c611f87565b5b602002013590505f61077e8961151b565b905061078d815f1b89896110cf565b60015f8281526020019081526020015f205f9054906101000a900460ff16156107eb576040517f08c379a00000000000000000000000000000000000000000000000000000000081526004016107e290612091565b60405180910390fd5b6001805f8381526020019081526020015f205f6101000a81548160ff0219169083151502179055505f83608084901b1790508573ffffffffffffffffffffffffffffffffffffffff16637a9eceb482878a866040518563ffffffff1660e01b815260040161085c949392919061211e565b5f604051808303815f87803b158015610873575f5ffd5b505af1158015610885573d5f5f3e3d5ffd5b505050505050505050505050505050565b5f5f85608086901b1790505f84608085901b17905081816040516020016108be92919061201c565b604051602081830303815290604052805190602001205f1c92505050949350505050565b7f000000000000000000000000000000000000000000000000000000000000000081565b61090e6115ea565b6109175f611671565b565b7f000000000000000000000000000000000000000000000000000000000000000073ffffffffffffffffffffffffffffffffffffffff16631042664e85856040518363ffffffff1660e01b8152600401610974929190611f5e565b5f6040518083038186803b15801561098a575f5ffd5b505afa15801561099c573d5f5f3e3d5ffd5b505050505f836005600781106109b5576109b4611f87565b5b602002013590504681146109fe576040517f08c379a00000000000000000000000000000000000000000000000000000000081526004016109f590611ffe565b60405180910390fd5b5f610a2085600360078110610a1657610a15611f87565b5b6020020135610ce9565b90505f610a4486600260078110610a3a57610a39611f87565b5b6020020135610ce9565b90505f610a6887600460078110610a5e57610a5d611f87565b5b6020020135610396565b90505f610a7488610fe6565b9050610a83815f1b88886110cf565b60015f8281526020019081526020015f205f9054906101000a900460ff1615610ae1576040517f08c379a0000000000000000000000000000000000000000000000000000000008152600401610ad890612091565b60405180910390fd5b6001805f8381526020019081526020015f205f6101000a81548160ff0219169083151502179055507f000000000000000000000000000000000000000000000000000000000000000073ffffffffffffffffffffffffffffffffffffffff16632e057b9b8486856040518463ffffffff1660e01b8152600401610b6693929190612168565b5f604051808303815f87803b158015610b7d575f5ffd5b505af1158015610b8f573d5f5f3e3d5ffd5b50505050505050505050505050565b5f819050919050565b5f5f5f9054906101000a900473ffffffffffffffffffffffffffffffffffffffff16905090565b5f6041825114610c13576040517f08c379a0000000000000000000000000000000000000000000000000000000008152600401610c0a906121fc565b60405180910390fd5b5f5f5f602085015192506040850151915060608501515f1a90506001868285856040515f8152602001604052604051610c4f9493929190612235565b6020604051602081039080840390855afa158015610c6f573d5f5f3e3d5ffd5b50505060206040510351935050505092915050565b6001602052805f5260405f205f915054906101000a900460ff1681565b7f000000000000000000000000000000000000000000000000000000000000000081565b7f000000000000000000000000000000000000000000000000000000000000000081565b60605f8203610d085760405180602001604052805f8152509050610ee6565b5f825f1b90505f5f90505b60208160ff16108015610d6357505f60f81b828260ff1660208110610d3b57610d3a611f87565b5b1a60f81b7effffffffffffffffffffffffffffffffffffffffffffffffffffffffffffff1916145b15610d7b578080610d73906122a5565b915050610d13565b5f601f90505b8160ff168160ff16118015610dd357505f60f81b838260ff1660208110610dab57610daa611f87565b5b1a60f81b7effffffffffffffffffffffffffffffffffffffffffffffffffffffffffffff1916145b15610deb578080610de3906122cd565b915050610d81565b5f60018383610dfa91906122f4565b610e049190612328565b90505f8160ff1667ffffffffffffffff811115610e2457610e23611b4b565b5b6040519080825280601f01601f191660200182016040528015610e565781602001600182028036833780820191505090505b5090505f5f90505b8260ff16811015610edc5785818660ff16610e79919061235c565b60208110610e8a57610e89611f87565b5b1a60f81b828281518110610ea157610ea0611f87565b5b60200101907effffffffffffffffffffffffffffffffffffffffffffffffffffffffffffff191690815f1a9053508080600101915050610e5e565b5080955050505050505b919050565b7f000000000000000000000000000000000000000000000000000000000000000081565b610f176115ea565b5f73ffffffffffffffffffffffffffffffffffffffff168173ffffffffffffffffffffffffffffffffffffffff1603610f87575f6040517f1e4fbdf7000000000000000000000000000000000000000000000000000000008152600401610f7e9190611a87565b60405180910390fd5b610f9081611671565b50565b7f000000000000000000000000000000000000000000000000000000000000000081565b5f81604051602001610fc99190612403565b604051602081830303815290604052805190602001209050919050565b5f5f825f60078110610ffb57610ffa611f87565b5b60200201358360016007811061101457611013611f87565b5b60200201358460026007811061102d5761102c611f87565b5b60200201358560036007811061104657611045611f87565b5b60200201358660046007811061105f5761105e611f87565b5b60200201358760056007811061107857611077611f87565b5b60200201358860066007811061109157611090611f87565b5b60200201356040516020016110ac9796959493929190612428565b604051602081830303815290604052805190602001209050805f1c915050919050565b5f6110d984610fb7565b90505f7f000000000000000000000000000000000000000000000000000000000000000073ffffffffffffffffffffffffffffffffffffffff16631442e4c96040518163ffffffff1660e01b81526004015f60405180830381865afa158015611144573d5f5f3e3d5ffd5b505050506040513d5f823e3d601f19601f8201168201806040525081019061116c919061257c565b90505f5f90505b8484905081101561133f57365f868660418561118f91906125c3565b90604160018761119f919061235c565b6111a991906125c3565b926111b69392919061260c565b915091505f6112088684848080601f0160208091040260200160405190810160405280939291908181526020018383808284375f81840152601f19601f82011690508083019250505050505050610bce565b90505f73ffffffffffffffffffffffffffffffffffffffff168173ffffffffffffffffffffffffffffffffffffffff1603611278576040517f08c379a000000000000000000000000000000000000000000000000000000000815260040161126f90612690565b60405180910390fd5b5f5f90505f5f90505b86518110156112ed578273ffffffffffffffffffffffffffffffffffffffff168782815181106112b4576112b3611f87565b5b602002602001015173ffffffffffffffffffffffffffffffffffffffff16036112e057600191506112ed565b8080600101915050611281565b508061132e576040517f08c379a0000000000000000000000000000000000000000000000000000000008152600401611325906126f8565b60405180910390fd5b505050508080600101915050611173565b505050505050565b5f5f60605f846005600681106113605761135f611f87565b5b602002013590508067ffffffffffffffff1693505f604082901c63ffffffff1690504681146113c4576040517f08c379a00000000000000000000000000000000000000000000000000000000081526004016113bb90611ffe565b60405180910390fd5b5f608083901c90506113d581610ce9565b93505f6113f9886004600681106113ef576113ee611f87565b5b6020020135610ce9565b90505f8160405160200161140d9190612790565b60405160208183030381529060405290505f7f000000000000000000000000000000000000000000000000000000000000000073ffffffffffffffffffffffffffffffffffffffff166316f1adc1836040518263ffffffff1660e01b815260040161147891906127fb565b5f60405180830381865afa158015611492573d5f5f3e3d5ffd5b505050506040513d5f823e3d601f19601f820116820180604052508101906114ba919061289c565b90505f8151116114ff576040517f08c379a00000000000000000000000000000000000000000000000000000000081526004016114f69061292d565b60405180910390fd5b80611509906129a5565b60601c97505050505050509193909250565b5f5f825f600681106115305761152f611f87565b5b60200201358360016006811061154957611548611f87565b5b60200201358460026006811061156257611561611f87565b5b60200201358560036006811061157b5761157a611f87565b5b60200201358660046006811061159457611593611f87565b5b6020020135876005600681106115ad576115ac611f87565b5b60200201356040516020016115c796959493929190612a0b565b604051602081830303815290604052805190602001209050805f1c915050919050565b6115f2611732565b73ffffffffffffffffffffffffffffffffffffffff16611610610ba7565b73ffffffffffffffffffffffffffffffffffffffff161461166f57611633611732565b6040517f118cdaa70000000000000000000000000000000000000000000000000000000081526004016116669190611a87565b60405180910390fd5b565b5f5f5f9054906101000a900473ffffffffffffffffffffffffffffffffffffffff169050815f5f6101000a81548173ffffffffffffffffffffffffffffffffffffffff021916908373ffffffffffffffffffffffffffffffffffffffff1602179055508173ffffffffffffffffffffffffffffffffffffffff168173ffffffffffffffffffffffffffffffffffffffff167f8be0079c531659141344cd1fd0a4f28419497f9722a3daafe3b4186f6b6457e060405160405180910390a35050565b5f33905090565b5f604051905090565b5f5ffd5b5f5ffd5b5f819050919050565b61175c8161174a565b8114611766575f5ffd5b50565b5f8135905061177781611753565b92915050565b5f6020828403121561179257611791611742565b5b5f61179f84828501611769565b91505092915050565b5f81519050919050565b5f82825260208201905092915050565b8281835e5f83830152505050565b5f601f19601f8301169050919050565b5f6117ea826117a8565b6117f481856117b2565b93506118048185602086016117c2565b61180d816117d0565b840191505092915050565b5f6020820190508181035f83015261183081846117e0565b905092915050565b5f5ffd5b5f8190508260206008028201111561185757611856611838565b5b92915050565b5f8190508260206007028201111561187857611877611838565b5b92915050565b5f5ffd5b5f5ffd5b5f5f83601f84011261189b5761189a61187e565b5b8235905067ffffffffffffffff8111156118b8576118b7611882565b5b6020830191508360018202830111156118d4576118d3611838565b5b9250929050565b5f5f5f5f61020085870312156118f4576118f3611742565b5b5f6119018782880161183c565b9450506101006119138782880161185d565b9350506101e085013567ffffffffffffffff81111561193557611934611746565b5b61194187828801611886565b925092505092959194509250565b5f8190508260206006028201111561196a57611969611838565b5b92915050565b5f5f5f5f6101e0858703121561198957611988611742565b5b5f6119968782880161183c565b9450506101006119a88782880161194f565b9350506101c085013567ffffffffffffffff8111156119ca576119c9611746565b5b6119d687828801611886565b925092505092959194509250565b5f5f5f5f608085870312156119fc576119fb611742565b5b5f611a0987828801611769565b9450506020611a1a87828801611769565b9350506040611a2b87828801611769565b9250506060611a3c87828801611769565b91505092959194509250565b5f73ffffffffffffffffffffffffffffffffffffffff82169050919050565b5f611a7182611a48565b9050919050565b611a8181611a67565b82525050565b5f602082019050611a9a5f830184611a78565b92915050565b5f819050919050565b5f611ac3611abe611ab984611a48565b611aa0565b611a48565b9050919050565b5f611ad482611aa9565b9050919050565b5f611ae582611aca565b9050919050565b611af581611adb565b82525050565b5f602082019050611b0e5f830184611aec565b92915050565b5f819050919050565b611b2681611b14565b8114611b30575f5ffd5b50565b5f81359050611b4181611b1d565b92915050565b5f5ffd5b7f4e487b71000000000000000000000000000000000000000000000000000000005f52604160045260245ffd5b611b81826117d0565b810181811067ffffffffffffffff82111715611ba057611b9f611b4b565b5b80604052505050565b5f611bb2611739565b9050611bbe8282611b78565b919050565b5f67ffffffffffffffff821115611bdd57611bdc611b4b565b5b611be6826117d0565b9050602081019050919050565b828183375f83830152505050565b5f611c13611c0e84611bc3565b611ba9565b905082815260208101848484011115611c2f57611c2e611b47565b5b611c3a848285611bf3565b509392505050565b5f82601f830112611c5657611c5561187e565b5b8135611c66848260208601611c01565b91505092915050565b5f5f60408385031215611c8557611c84611742565b5b5f611c9285828601611b33565b925050602083013567ffffffffffffffff811115611cb357611cb2611746565b5b611cbf85828601611c42565b9150509250929050565b5f8115159050919050565b611cdd81611cc9565b82525050565b5f602082019050611cf65f830184611cd4565b92915050565b5f611d0682611aca565b9050919050565b611d1681611cfc565b82525050565b5f602082019050611d2f5f830184611d0d565b92915050565b5f611d3f82611aca565b9050919050565b611d4f81611d35565b82525050565b5f602082019050611d685f830184611d46565b92915050565b5f81519050919050565b5f82825260208201905092915050565b5f611d9282611d6e565b611d9c8185611d78565b9350611dac8185602086016117c2565b611db5816117d0565b840191505092915050565b5f6020820190508181035f830152611dd88184611d88565b905092915050565b5f611dea82611aca565b9050919050565b611dfa81611de0565b82525050565b5f602082019050611e135f830184611df1565b92915050565b611e2281611a67565b8114611e2c575f5ffd5b50565b5f81359050611e3d81611e19565b92915050565b5f60208284031215611e5857611e57611742565b5b5f611e6584828501611e2f565b91505092915050565b5f611e7882611aca565b9050919050565b611e8881611e6e565b82525050565b5f602082019050611ea15f830184611e7f565b92915050565b5f60208284031215611ebc57611ebb611742565b5b5f611ec984828501611b33565b91505092915050565b611edb81611b14565b82525050565b5f602082019050611ef45f830184611ed2565b92915050565b5f819050919050565b611f14611f0f8261174a565b611efa565b82525050565b5f611f258284611f03565b60208201915081905092915050565b82818337505050565b611f4a6101008383611f34565b5050565b611f5a60e08383611f34565b5050565b5f6101e082019050611f725f830185611f3d565b611f80610100830184611f4e565b9392505050565b7f4e487b71000000000000000000000000000000000000000000000000000000005f52603260045260245ffd5b7f57726f6e672064657374696e6174696f6e20636861696e0000000000000000005f82015250565b5f611fe8601783611d78565b9150611ff382611fb4565b602082019050919050565b5f6020820190508181035f83015261201581611fdc565b9050919050565b5f6120278285611f03565b6020820191506120378284611f03565b6020820191508190509392505050565b7f5265706c61792061747461636b206465746563746564000000000000000000005f82015250565b5f61207b601683611d78565b915061208682612047565b602082019050919050565b5f6020820190508181035f8301526120a88161206f565b9050919050565b5f6040820190506120c25f830185611a78565b6120cf6020830184611cd4565b9392505050565b6120e260c08383611f34565b5050565b5f6101c0820190506120fa5f830185611f3d565b6121086101008301846120d6565b9392505050565b6121188161174a565b82525050565b5f6080820190506121315f830187611a78565b81810360208301526121438186611d88565b9050612152604083018561210f565b61215f606083018461210f565b95945050505050565b5f6060820190508181035f8301526121808186611d88565b905081810360208301526121948185611d88565b905081810360408301526121a881846117e0565b9050949350505050565b7f496e76616c6964207369676e6174757265206c656e67746800000000000000005f82015250565b5f6121e6601883611d78565b91506121f1826121b2565b602082019050919050565b5f6020820190508181035f830152612213816121da565b9050919050565b5f60ff82169050919050565b61222f8161221a565b82525050565b5f6080820190506122485f830187611ed2565b6122556020830186612226565b6122626040830185611ed2565b61226f6060830184611ed2565b95945050505050565b7f4e487b71000000000000000000000000000000000000000000000000000000005f52601160045260245ffd5b5f6122af8261221a565b915060ff82036122c2576122c1612278565b5b600182019050919050565b5f6122d78261221a565b91505f82036122e9576122e8612278565b5b600182039050919050565b5f6122fe8261221a565b91506123098361221a565b9250828203905060ff81111561232257612321612278565b5b92915050565b5f6123328261221a565b915061233d8361221a565b9250828201905060ff81111561235657612355612278565b5b92915050565b5f6123668261174a565b91506123718361174a565b925082820190508082111561238957612388612278565b5b92915050565b5f81905092915050565b7f19457468657265756d205369676e6564204d6573736167653a0a3332000000005f82015250565b5f6123cd601c8361238f565b91506123d882612399565b601c82019050919050565b5f819050919050565b6123fd6123f882611b14565b6123e3565b82525050565b5f61240d826123c1565b915061241982846123ec565b60208201915081905092915050565b5f612433828a611f03565b6020820191506124438289611f03565b6020820191506124538288611f03565b6020820191506124638287611f03565b6020820191506124738286611f03565b6020820191506124838285611f03565b6020820191506124938284611f03565b60208201915081905098975050505050505050565b5f67ffffffffffffffff8211156124c2576124c1611b4b565b5b602082029050602081019050919050565b5f815190506124e181611e19565b92915050565b5f6124f96124f4846124a8565b611ba9565b9050808382526020820190506020840283018581111561251c5761251b611838565b5b835b81811015612545578061253188826124d3565b84526020840193505060208101905061251e565b5050509392505050565b5f82601f8301126125635761256261187e565b5b81516125738482602086016124e7565b91505092915050565b5f6020828403121561259157612590611742565b5b5f82015167ffffffffffffffff8111156125ae576125ad611746565b5b6125ba8482850161254f565b91505092915050565b5f6125cd8261174a565b91506125d88361174a565b92508282026125e68161174a565b915082820484148315176125fd576125fc612278565b5b5092915050565b5f5ffd5b5f5ffd5b5f5f8585111561261f5761261e612604565b5b838611156126305761262f612608565b5b6001850283019150848603905094509492505050565b7f496e76616c6964207369676e61747572650000000000000000000000000000005f82015250565b5f61267a601183611d78565b915061268582612646565b602082019050919050565b5f6020820190508181035f8301526126a78161266e565b9050919050565b7f5369676e6572206e6f7420616e206163746976652076616c696461746f7200005f82015250565b5f6126e2601e83611d78565b91506126ed826126ae565b602082019050919050565b5f6020820190508181035f83015261270f816126d6565b9050919050565b5f61272082611d6e565b61272a818561238f565b935061273a8185602086016117c2565b80840191505092915050565b7f5f7661756c7400000000000000000000000000000000000000000000000000005f82015250565b5f61277a60068361238f565b915061278582612746565b600682019050919050565b5f61279b8284612716565b91506127a68261276e565b915081905092915050565b7f51696172614261736541737365747300000000000000000000000000000000005f82015250565b5f6127e5600f83611d78565b91506127f0826127b1565b602082019050919050565b5f6040820190508181035f830152612812816127d9565b905081810360208301526128268184611d88565b905092915050565b5f61284061283b84611bc3565b611ba9565b90508281526020810184848401111561285c5761285b611b47565b5b6128678482856117c2565b509392505050565b5f82601f8301126128835761288261187e565b5b815161289384826020860161282e565b91505092915050565b5f602082840312156128b1576128b0611742565b5b5f82015167ffffffffffffffff8111156128ce576128cd611746565b5b6128da8482850161286f565b91505092915050565b7f5661756c74206e6f7420617574686f72697a65640000000000000000000000005f82015250565b5f612917601483611d78565b9150612922826128e3565b602082019050919050565b5f6020820190508181035f8301526129448161290b565b9050919050565b5f819050602082019050919050565b5f7fffffffffffffffffffffffffffffffffffffffff00000000000000000000000082169050919050565b5f612990825161295a565b80915050919050565b5f82821b905092915050565b5f6129af826117a8565b826129b98461294b565b90506129c481612985565b92506014821015612a04576129ff7fffffffffffffffffffffffffffffffffffffffff00000000000000000000000083601403600802612999565b831692505b5050919050565b5f612a168289611f03565b602082019150612a268288611f03565b602082019150612a368287611f03565b602082019150612a468286611f03565b602082019150612a568285611f03565b602082019150612a668284611f03565b60208201915081905097965050505050505056fea264697066735822122038305061359ae8e9b4c92018cfd0a2e7bf0f8f3daf0658a8d14e372ed175d30e64736f6c634300081f0033",
					"opcodes": "PUSH2 0x120 PUSH1 0x40 MSTORE CALLVALUE DUP1 ISZERO PUSH2 0x10 JUMPI PUSH0 PUSH0 REVERT JUMPDEST POP PUSH1 0x40 MLOAD PUSH2 0x2E9E CODESIZE SUB DUP1 PUSH2 0x2E9E DUP4 CODECOPY DUP2 DUP2 ADD PUSH1 0x40 MSTORE DUP2 ADD SWAP1 PUSH2 0x32 SWAP2 SWAP1 PUSH2 0x2E1 JUMP JUMPDEST CALLER PUSH0 PUSH20 0xFFFFFFFFFFFFFFFFFFFFFFFFFFFFFFFFFFFFFFFF AND DUP2 PUSH20 0xFFFFFFFFFFFFFFFFFFFFFFFFFFFFFFFFFFFFFFFF AND SUB PUSH2 0xA3 JUMPI PUSH0 PUSH1 0x40 MLOAD PUSH32 0x1E4FBDF700000000000000000000000000000000000000000000000000000000 DUP2 MSTORE PUSH1 0x4 ADD PUSH2 0x9A SWAP2 SWAP1 PUSH2 0x367 JUMP JUMPDEST PUSH1 0x40 MLOAD DUP1 SWAP2 SUB SWAP1 REVERT JUMPDEST PUSH2 0xB2 DUP2 PUSH2 0x1C2 PUSH1 0x20 SHL PUSH1 0x20 SHR JUMP JUMPDEST POP DUP5 PUSH20 0xFFFFFFFFFFFFFFFFFFFFFFFFFFFFFFFFFFFFFFFF AND PUSH1 0x80 DUP2 PUSH20 0xFFFFFFFFFFFFFFFFFFFFFFFFFFFFFFFFFFFFFFFF AND DUP2 MSTORE POP POP DUP4 PUSH20 0xFFFFFFFFFFFFFFFFFFFFFFFFFFFFFFFFFFFFFFFF AND PUSH1 0xA0 DUP2 PUSH20 0xFFFFFFFFFFFFFFFFFFFFFFFFFFFFFFFFFFFFFFFF AND DUP2 MSTORE POP POP DUP3 PUSH20 0xFFFFFFFFFFFFFFFFFFFFFFFFFFFFFFFFFFFFFFFF AND PUSH1 0xC0 DUP2 PUSH20 0xFFFFFFFFFFFFFFFFFFFFFFFFFFFFFFFFFFFFFFFF AND DUP2 MSTORE POP POP DUP2 PUSH20 0xFFFFFFFFFFFFFFFFFFFFFFFFFFFFFFFFFFFFFFFF AND PUSH1 0xE0 DUP2 PUSH20 0xFFFFFFFFFFFFFFFFFFFFFFFFFFFFFFFFFFFFFFFF AND DUP2 MSTORE POP POP DUP1 PUSH20 0xFFFFFFFFFFFFFFFFFFFFFFFFFFFFFFFFFFFFFFFF AND PUSH2 0x100 DUP2 PUSH20 0xFFFFFFFFFFFFFFFFFFFFFFFFFFFFFFFFFFFFFFFF AND DUP2 MSTORE POP POP POP POP POP POP POP PUSH2 0x380 JUMP JUMPDEST PUSH0 PUSH0 PUSH0 SWAP1 SLOAD SWAP1 PUSH2 0x100 EXP SWAP1 DIV PUSH20 0xFFFFFFFFFFFFFFFFFFFFFFFFFFFFFFFFFFFFFFFF AND SWAP1 POP DUP2 PUSH0 PUSH0 PUSH2 0x100 EXP DUP2 SLOAD DUP2 PUSH20 0xFFFFFFFFFFFFFFFFFFFFFFFFFFFFFFFFFFFFFFFF MUL NOT AND SWAP1 DUP4 PUSH20 0xFFFFFFFFFFFFFFFFFFFFFFFFFFFFFFFFFFFFFFFF AND MUL OR SWAP1 SSTORE POP DUP2 PUSH20 0xFFFFFFFFFFFFFFFFFFFFFFFFFFFFFFFFFFFFFFFF AND DUP2 PUSH20 0xFFFFFFFFFFFFFFFFFFFFFFFFFFFFFFFFFFFFFFFF AND PUSH32 0x8BE0079C531659141344CD1FD0A4F28419497F9722A3DAAFE3B4186F6B6457E0 PUSH1 0x40 MLOAD PUSH1 0x40 MLOAD DUP1 SWAP2 SUB SWAP1 LOG3 POP POP JUMP JUMPDEST PUSH0 PUSH0 REVERT JUMPDEST PUSH0 PUSH20 0xFFFFFFFFFFFFFFFFFFFFFFFFFFFFFFFFFFFFFFFF DUP3 AND SWAP1 POP SWAP2 SWAP1 POP JUMP JUMPDEST PUSH0 PUSH2 0x2B0 DUP3 PUSH2 0x287 JUMP JUMPDEST SWAP1 POP SWAP2 SWAP1 POP JUMP JUMPDEST PUSH2 0x2C0 DUP2 PUSH2 0x2A6 JUMP JUMPDEST DUP2 EQ PUSH2 0x2CA JUMPI PUSH0 PUSH0 REVERT JUMPDEST POP JUMP JUMPDEST PUSH0 DUP2 MLOAD SWAP1 POP PUSH2 0x2DB DUP2 PUSH2 0x2B7 JUMP JUMPDEST SWAP3 SWAP2 POP POP JUMP JUMPDEST PUSH0 PUSH0 PUSH0 PUSH0 PUSH0 PUSH1 0xA0 DUP7 DUP9 SUB SLT ISZERO PUSH2 0x2FA JUMPI PUSH2 0x2F9 PUSH2 0x283 JUMP JUMPDEST JUMPDEST PUSH0 PUSH2 0x307 DUP9 DUP3 DUP10 ADD PUSH2 0x2CD JUMP JUMPDEST SWAP6 POP POP PUSH1 0x20 PUSH2 0x318 DUP9 DUP3 DUP10 ADD PUSH2 0x2CD JUMP JUMPDEST SWAP5 POP POP PUSH1 0x40 PUSH2 0x329 DUP9 DUP3 DUP10 ADD PUSH2 0x2CD JUMP JUMPDEST SWAP4 POP POP PUSH1 0x60 PUSH2 0x33A DUP9 DUP3 DUP10 ADD PUSH2 0x2CD JUMP JUMPDEST SWAP3 POP POP PUSH1 0x80 PUSH2 0x34B DUP9 DUP3 DUP10 ADD PUSH2 0x2CD JUMP JUMPDEST SWAP2 POP POP SWAP3 SWAP6 POP SWAP3 SWAP6 SWAP1 SWAP4 POP JUMP JUMPDEST PUSH2 0x361 DUP2 PUSH2 0x2A6 JUMP JUMPDEST DUP3 MSTORE POP POP JUMP JUMPDEST PUSH0 PUSH1 0x20 DUP3 ADD SWAP1 POP PUSH2 0x37A PUSH0 DUP4 ADD DUP5 PUSH2 0x358 JUMP JUMPDEST SWAP3 SWAP2 POP POP JUMP JUMPDEST PUSH1 0x80 MLOAD PUSH1 0xA0 MLOAD PUSH1 0xC0 MLOAD PUSH1 0xE0 MLOAD PUSH2 0x100 MLOAD PUSH2 0x2AB0 PUSH2 0x3EE PUSH0 CODECOPY PUSH0 DUP2 DUP2 PUSH2 0x610 ADD MSTORE DUP2 DUP2 PUSH2 0xCA3 ADD MSTORE PUSH2 0x10DE ADD MSTORE PUSH0 DUP2 DUP2 PUSH2 0xB0B ADD MSTORE DUP2 DUP2 PUSH2 0xEED ADD MSTORE PUSH2 0x1421 ADD MSTORE PUSH0 DUP2 DUP2 PUSH2 0x3C1 ADD MSTORE PUSH2 0xCC7 ADD MSTORE PUSH0 DUP2 DUP2 PUSH2 0x8E4 ADD MSTORE PUSH2 0x91B ADD MSTORE PUSH0 DUP2 DUP2 PUSH2 0x6A5 ADD MSTORE PUSH2 0xF95 ADD MSTORE PUSH2 0x2AB0 PUSH0 RETURN INVALID PUSH1 0x80 PUSH1 0x40 MSTORE CALLVALUE DUP1 ISZERO PUSH2 0xF JUMPI PUSH0 PUSH0 REVERT JUMPDEST POP PUSH1 0x4 CALLDATASIZE LT PUSH2 0x114 JUMPI PUSH0 CALLDATALOAD PUSH1 0xE0 SHR DUP1 PUSH4 0x97ABA7F9 GT PUSH2 0xA0 JUMPI DUP1 PUSH4 0xB648F220 GT PUSH2 0x6F JUMPI DUP1 PUSH4 0xB648F220 EQ PUSH2 0x2DE JUMPI DUP1 PUSH4 0xBF4D766E EQ PUSH2 0x30E JUMPI DUP1 PUSH4 0xF2FDE38B EQ PUSH2 0x32C JUMPI DUP1 PUSH4 0xF90C0F40 EQ PUSH2 0x348 JUMPI DUP1 PUSH4 0xFA540801 EQ PUSH2 0x366 JUMPI PUSH2 0x114 JUMP JUMPDEST DUP1 PUSH4 0x97ABA7F9 EQ PUSH2 0x242 JUMPI DUP1 PUSH4 0xAAD24061 EQ PUSH2 0x272 JUMPI DUP1 PUSH4 0xAED881D8 EQ PUSH2 0x2A2 JUMPI DUP1 PUSH4 0xB3D63003 EQ PUSH2 0x2C0 JUMPI PUSH2 0x114 JUMP JUMPDEST DUP1 PUSH4 0x4EB30D41 GT PUSH2 0xE7 JUMPI DUP1 PUSH4 0x4EB30D41 EQ PUSH2 0x1B0 JUMPI DUP1 PUSH4 0x715018A6 EQ PUSH2 0x1CE JUMPI DUP1 PUSH4 0x76FBE04F EQ PUSH2 0x1D8 JUMPI DUP1 PUSH4 0x7A988C54 EQ PUSH2 0x1F4 JUMPI DUP1 PUSH4 0x8DA5CB5B EQ PUSH2 0x224 JUMPI PUSH2 0x114 JUMP JUMPDEST DUP1 PUSH4 0x19B8C941 EQ PUSH2 0x118 JUMPI DUP1 PUSH4 0x34E1D6A6 EQ PUSH2 0x148 JUMPI DUP1 PUSH4 0x392C8731 EQ PUSH2 0x164 JUMPI DUP1 PUSH4 0x41E532CA EQ PUSH2 0x180 JUMPI JUMPDEST PUSH0 PUSH0 REVERT JUMPDEST PUSH2 0x132 PUSH1 0x4 DUP1 CALLDATASIZE SUB DUP2 ADD SWAP1 PUSH2 0x12D SWAP2 SWAP1 PUSH2 0x177D JUMP JUMPDEST PUSH2 0x396 JUMP JUMPDEST PUSH1 0x40 MLOAD PUSH2 0x13F SWAP2 SWAP1 PUSH2 0x1818 JUMP JUMPDEST PUSH1 0x40 MLOAD DUP1 SWAP2 SUB SWAP1 RETURN JUMPDEST PUSH2 0x162 PUSH1 0x4 DUP1 CALLDATASIZE SUB DUP2 ADD SWAP1 PUSH2 0x15D SWAP2 SWAP1 PUSH2 0x18DB JUMP JUMPDEST PUSH2 0x3BF JUMP JUMPDEST STOP JUMPDEST PUSH2 0x17E PUSH1 0x4 DUP1 CALLDATASIZE SUB DUP2 ADD SWAP1 PUSH2 0x179 SWAP2 SWAP1 PUSH2 0x1970 JUMP JUMPDEST PUSH2 0x6A3 JUMP JUMPDEST STOP JUMPDEST PUSH2 0x19A PUSH1 0x4 DUP1 CALLDATASIZE SUB DUP2 ADD SWAP1 PUSH2 0x195 SWAP2 SWAP1 PUSH2 0x19E4 JUMP JUMPDEST PUSH2 0x896 JUMP JUMPDEST PUSH1 0x40 MLOAD PUSH2 0x1A7 SWAP2 SWAP1 PUSH2 0x1A87 JUMP JUMPDEST PUSH1 0x40 MLOAD DUP1 SWAP2 SUB SWAP1 RETURN JUMPDEST PUSH2 0x1B8 PUSH2 0x8E2 JUMP JUMPDEST PUSH1 0x40 MLOAD PUSH2 0x1C5 SWAP2 SWAP1 PUSH2 0x1AFB JUMP JUMPDEST PUSH1 0x40 MLOAD DUP1 SWAP2 SUB SWAP1 RETURN JUMPDEST PUSH2 0x1D6 PUSH2 0x906 JUMP JUMPDEST STOP JUMPDEST PUSH2 0x1F2 PUSH1 0x4 DUP1 CALLDATASIZE SUB DUP2 ADD SWAP1 PUSH2 0x1ED SWAP2 SWAP1 PUSH2 0x18DB JUMP JUMPDEST PUSH2 0x919 JUMP JUMPDEST STOP JUMPDEST PUSH2 0x20E PUSH1 0x4 DUP1 CALLDATASIZE SUB DUP2 ADD SWAP1 PUSH2 0x209 SWAP2 SWAP1 PUSH2 0x177D JUMP JUMPDEST PUSH2 0xB9E JUMP JUMPDEST PUSH1 0x40 MLOAD PUSH2 0x21B SWAP2 SWAP1 PUSH2 0x1A87 JUMP JUMPDEST PUSH1 0x40 MLOAD DUP1 SWAP2 SUB SWAP1 RETURN JUMPDEST PUSH2 0x22C PUSH2 0xBA7 JUMP JUMPDEST PUSH1 0x40 MLOAD PUSH2 0x239 SWAP2 SWAP1 PUSH2 0x1A87 JUMP JUMPDEST PUSH1 0x40 MLOAD DUP1 SWAP2 SUB SWAP1 RETURN JUMPDEST PUSH2 0x25C PUSH1 0x4 DUP1 CALLDATASIZE SUB DUP2 ADD SWAP1 PUSH2 0x257 SWAP2 SWAP1 PUSH2 0x1C6F JUMP JUMPDEST PUSH2 0xBCE JUMP JUMPDEST PUSH1 0x40 MLOAD PUSH2 0x269 SWAP2 SWAP1 PUSH2 0x1A87 JUMP JUMPDEST PUSH1 0x40 MLOAD DUP1 SWAP2 SUB SWAP1 RETURN JUMPDEST PUSH2 0x28C PUSH1 0x4 DUP1 CALLDATASIZE SUB DUP2 ADD SWAP1 PUSH2 0x287 SWAP2 SWAP1 PUSH2 0x177D JUMP JUMPDEST PUSH2 0xC84 JUMP JUMPDEST PUSH1 0x40 MLOAD PUSH2 0x299 SWAP2 SWAP1 PUSH2 0x1CE3 JUMP JUMPDEST PUSH1 0x40 MLOAD DUP1 SWAP2 SUB SWAP1 RETURN JUMPDEST PUSH2 0x2AA PUSH2 0xCA1 JUMP JUMPDEST PUSH1 0x40 MLOAD PUSH2 0x2B7 SWAP2 SWAP1 PUSH2 0x1D1C JUMP JUMPDEST PUSH1 0x40 MLOAD DUP1 SWAP2 SUB SWAP1 RETURN JUMPDEST PUSH2 0x2C8 PUSH2 0xCC5 JUMP JUMPDEST PUSH1 0x40 MLOAD PUSH2 0x2D5 SWAP2 SWAP1 PUSH2 0x1D55 JUMP JUMPDEST PUSH1 0x40 MLOAD DUP1 SWAP2 SUB SWAP1 RETURN JUMPDEST PUSH2 0x2F8 PUSH1 0x4 DUP1 CALLDATASIZE SUB DUP2 ADD SWAP1 PUSH2 0x2F3 SWAP2 SWAP1 PUSH2 0x177D JUMP JUMPDEST PUSH2 0xCE9 JUMP JUMPDEST PUSH1 0x40 MLOAD PUSH2 0x305 SWAP2 SWAP1 PUSH2 0x1DC0 JUMP JUMPDEST PUSH1 0x40 MLOAD DUP1 SWAP2 SUB SWAP1 RETURN JUMPDEST PUSH2 0x316 PUSH2 0xEEB JUMP JUMPDEST PUSH1 0x40 MLOAD PUSH2 0x323 SWAP2 SWAP1 PUSH2 0x1E00 JUMP JUMPDEST PUSH1 0x40 MLOAD DUP1 SWAP2 SUB SWAP1 RETURN JUMPDEST PUSH2 0x346 PUSH1 0x4 DUP1 CALLDATASIZE SUB DUP2 ADD SWAP1 PUSH2 0x341 SWAP2 SWAP1 PUSH2 0x1E43 JUMP JUMPDEST PUSH2 0xF0F JUMP JUMPDEST STOP JUMPDEST PUSH2 0x350 PUSH2 0xF93 JUMP JUMPDEST PUSH1 0x40 MLOAD PUSH2 0x35D SWAP2 SWAP1 PUSH2 0x1E8E JUMP JUMPDEST PUSH1 0x40 MLOAD DUP1 SWAP2 SUB SWAP1 RETURN JUMPDEST PUSH2 0x380 PUSH1 0x4 DUP1 CALLDATASIZE SUB DUP2 ADD SWAP1 PUSH2 0x37B SWAP2 SWAP1 PUSH2 0x1EA7 JUMP JUMPDEST PUSH2 0xFB7 JUMP JUMPDEST PUSH1 0x40 MLOAD PUSH2 0x38D SWAP2 SWAP1 PUSH2 0x1EE1 JUMP JUMPDEST PUSH1 0x40 MLOAD DUP1 SWAP2 SUB SWAP1 RETURN JUMPDEST PUSH1 0x60 DUP2 PUSH1 0x40 MLOAD PUSH1 0x20 ADD PUSH2 0x3A9 SWAP2 SWAP1 PUSH2 0x1F1A JUMP JUMPDEST PUSH1 0x40 MLOAD PUSH1 0x20 DUP2 DUP4 SUB SUB DUP2 MSTORE SWAP1 PUSH1 0x40 MSTORE SWAP1 POP SWAP2 SWAP1 POP JUMP JUMPDEST PUSH32 0x0 PUSH20 0xFFFFFFFFFFFFFFFFFFFFFFFFFFFFFFFFFFFFFFFF AND PUSH4 0x1042664E DUP6 DUP6 PUSH1 0x40 MLOAD DUP4 PUSH4 0xFFFFFFFF AND PUSH1 0xE0 SHL DUP2 MSTORE PUSH1 0x4 ADD PUSH2 0x41A SWAP3 SWAP2 SWAP1 PUSH2 0x1F5E JUMP JUMPDEST PUSH0 PUSH1 0x40 MLOAD DUP1 DUP4 SUB DUP2 DUP7 DUP1 EXTCODESIZE ISZERO DUP1 ISZERO PUSH2 0x430 JUMPI PUSH0 PUSH0 REVERT JUMPDEST POP GAS STATICCALL ISZERO DUP1 ISZERO PUSH2 0x442 JUMPI RETURNDATASIZE PUSH0 PUSH0 RETURNDATACOPY RETURNDATASIZE PUSH0 REVERT JUMPDEST POP POP POP POP PUSH0 DUP4 PUSH1 0x2 PUSH1 0x7 DUP2 LT PUSH2 0x45B JUMPI PUSH2 0x45A PUSH2 0x1F87 JUMP JUMPDEST JUMPDEST PUSH1 0x20 MUL ADD CALLDATALOAD SWAP1 POP PUSH0 PUSH1 0x1 DUP1 PUSH1 0x10 DUP5 SWAP1 SHR AND EQ SWAP1 POP PUSH0 DUP6 PUSH1 0x4 PUSH1 0x7 DUP2 LT PUSH2 0x484 JUMPI PUSH2 0x483 PUSH2 0x1F87 JUMP JUMPDEST JUMPDEST PUSH1 0x20 MUL ADD CALLDATALOAD SWAP1 POP CHAINID DUP2 EQ PUSH2 0x4CD JUMPI PUSH1 0x40 MLOAD PUSH32 0x8C379A000000000000000000000000000000000000000000000000000000000 DUP2 MSTORE PUSH1 0x4 ADD PUSH2 0x4C4 SWAP1 PUSH2 0x1FFE JUMP JUMPDEST PUSH1 0x40 MLOAD DUP1 SWAP2 SUB SWAP1 REVERT JUMPDEST PUSH0 DUP7 PUSH1 0x3 PUSH1 0x7 DUP2 LT PUSH2 0x4E2 JUMPI PUSH2 0x4E1 PUSH2 0x1F87 JUMP JUMPDEST JUMPDEST PUSH1 0x20 MUL ADD CALLDATALOAD PUSH1 0x80 DUP9 PUSH1 0x4 PUSH1 0x7 DUP2 LT PUSH2 0x4FD JUMPI PUSH2 0x4FC PUSH2 0x1F87 JUMP JUMPDEST JUMPDEST PUSH1 0x20 MUL ADD CALLDATALOAD SWAP1 SHL OR SWAP1 POP PUSH0 DUP8 PUSH1 0x5 PUSH1 0x7 DUP2 LT PUSH2 0x51C JUMPI PUSH2 0x51B PUSH2 0x1F87 JUMP JUMPDEST JUMPDEST PUSH1 0x20 MUL ADD CALLDATALOAD PUSH1 0x80 DUP10 PUSH1 0x6 PUSH1 0x7 DUP2 LT PUSH2 0x537 JUMPI PUSH2 0x536 PUSH2 0x1F87 JUMP JUMPDEST JUMPDEST PUSH1 0x20 MUL ADD CALLDATALOAD SWAP1 SHL OR SWAP1 POP PUSH0 DUP3 DUP3 PUSH1 0x40 MLOAD PUSH1 0x20 ADD PUSH2 0x555 SWAP3 SWAP2 SWAP1 PUSH2 0x201C JUMP JUMPDEST PUSH1 0x40 MLOAD PUSH1 0x20 DUP2 DUP4 SUB SUB DUP2 MSTORE SWAP1 PUSH1 0x40 MSTORE DUP1 MLOAD SWAP1 PUSH1 0x20 ADD KECCAK256 PUSH0 SHR SWAP1 POP PUSH0 PUSH2 0x579 DUP11 PUSH2 0xFE6 JUMP JUMPDEST SWAP1 POP PUSH2 0x588 DUP2 PUSH0 SHL DUP11 DUP11 PUSH2 0x10CF JUMP JUMPDEST PUSH1 0x1 PUSH0 DUP3 DUP2 MSTORE PUSH1 0x20 ADD SWAP1 DUP2 MSTORE PUSH1 0x20 ADD PUSH0 KECCAK256 PUSH0 SWAP1 SLOAD SWAP1 PUSH2 0x100 EXP SWAP1 DIV PUSH1 0xFF AND ISZERO PUSH2 0x5E6 JUMPI PUSH1 0x40 MLOAD PUSH32 0x8C379A000000000000000000000000000000000000000000000000000000000 DUP2 MSTORE PUSH1 0x4 ADD PUSH2 0x5DD SWAP1 PUSH2 0x2091 JUMP JUMPDEST PUSH1 0x40 MLOAD DUP1 SWAP2 SUB SWAP1 REVERT JUMPDEST PUSH1 0x1 DUP1 PUSH0 DUP4 DUP2 MSTORE PUSH1 0x20 ADD SWAP1 DUP2 MSTORE PUSH1 0x20 ADD PUSH0 KECCAK256 PUSH0 PUSH2 0x100 EXP DUP2 SLOAD DUP2 PUSH1 0xFF MUL NOT AND SWAP1 DUP4 ISZERO ISZERO MUL OR SWAP1 SSTORE POP PUSH32 0x0 PUSH20 0xFFFFFFFFFFFFFFFFFFFFFFFFFFFFFFFFFFFFFFFF AND PUSH4 0x22CA098F DUP4 DUP9 PUSH1 0x40 MLOAD DUP4 PUSH4 0xFFFFFFFF AND PUSH1 0xE0 SHL DUP2 MSTORE PUSH1 0x4 ADD PUSH2 0x669 SWAP3 SWAP2 SWAP1 PUSH2 0x20AF JUMP JUMPDEST PUSH0 PUSH1 0x40 MLOAD DUP1 DUP4 SUB DUP2 PUSH0 DUP8 DUP1 EXTCODESIZE ISZERO DUP1 ISZERO PUSH2 0x680 JUMPI PUSH0 PUSH0 REVERT JUMPDEST POP GAS CALL ISZERO DUP1 ISZERO PUSH2 0x692 JUMPI RETURNDATASIZE PUSH0 PUSH0 RETURNDATACOPY RETURNDATASIZE PUSH0 REVERT JUMPDEST POP POP POP POP POP POP POP POP POP POP POP POP POP POP POP JUMP JUMPDEST PUSH32 0x0 PUSH20 0xFFFFFFFFFFFFFFFFFFFFFFFFFFFFFFFFFFFFFFFF AND PUSH4 0x9CB28658 DUP6 DUP6 PUSH1 0x40 MLOAD DUP4 PUSH4 0xFFFFFFFF AND PUSH1 0xE0 SHL DUP2 MSTORE PUSH1 0x4 ADD PUSH2 0x6FE SWAP3 SWAP2 SWAP1 PUSH2 0x20E6 JUMP JUMPDEST PUSH0 PUSH1 0x40 MLOAD DUP1 DUP4 SUB DUP2 DUP7 DUP1 EXTCODESIZE ISZERO DUP1 ISZERO PUSH2 0x714 JUMPI PUSH0 PUSH0 REVERT JUMPDEST POP GAS STATICCALL ISZERO DUP1 ISZERO PUSH2 0x726 JUMPI RETURNDATASIZE PUSH0 PUSH0 RETURNDATACOPY RETURNDATASIZE PUSH0 REVERT JUMPDEST POP POP POP POP PUSH0 PUSH0 PUSH0 PUSH2 0x736 DUP7 PUSH2 0x1347 JUMP JUMPDEST SWAP3 POP SWAP3 POP SWAP3 POP PUSH0 DUP7 PUSH1 0x2 PUSH1 0x6 DUP2 LT PUSH2 0x751 JUMPI PUSH2 0x750 PUSH2 0x1F87 JUMP JUMPDEST JUMPDEST PUSH1 0x20 MUL ADD CALLDATALOAD SWAP1 POP PUSH0 DUP8 PUSH1 0x3 PUSH1 0x6 DUP2 LT PUSH2 0x76D JUMPI PUSH2 0x76C PUSH2 0x1F87 JUMP JUMPDEST JUMPDEST PUSH1 0x20 MUL ADD CALLDATALOAD SWAP1 POP PUSH0 PUSH2 0x77E DUP10 PUSH2 0x151B JUMP JUMPDEST SWAP1 POP PUSH2 0x78D DUP2 PUSH0 SHL DUP10 DUP10 PUSH2 0x10CF JUMP JUMPDEST PUSH1 0x1 PUSH0 DUP3 DUP2 MSTORE PUSH1 0x20 ADD SWAP1 DUP2 MSTORE PUSH1 0x20 ADD PUSH0 KECCAK256 PUSH0 SWAP1 SLOAD SWAP1 PUSH2 0x100 EXP SWAP1 DIV PUSH1 0xFF AND ISZERO PUSH2 0x7EB JUMPI PUSH1 0x40 MLOAD PUSH32 0x8C379A000000000000000000000000000000000000000000000000000000000 DUP2 MSTORE PUSH1 0x4 ADD PUSH2 0x7E2 SWAP1 PUSH2 0x2091 JUMP JUMPDEST PUSH1 0x40 MLOAD DUP1 SWAP2 SUB SWAP1 REVERT JUMPDEST PUSH1 0x1 DUP1 PUSH0 DUP4 DUP2 MSTORE PUSH1 0x20 ADD SWAP1 DUP2 MSTORE PUSH1 0x20 ADD PUSH0 KECCAK256 PUSH0 PUSH2 0x100 EXP DUP2 SLOAD DUP2 PUSH1 0xFF MUL NOT AND SWAP1 DUP4 ISZERO ISZERO MUL OR SWAP1 SSTORE POP PUSH0 DUP4 PUSH1 0x80 DUP5 SWAP1 SHL OR SWAP1 POP DUP6 PUSH20 0xFFFFFFFFFFFFFFFFFFFFFFFFFFFFFFFFFFFFFFFF AND PUSH4 0x7A9ECEB4 DUP3 DUP8 DUP11 DUP7 PUSH1 0x40 MLOAD DUP6 PUSH4 0xFFFFFFFF AND PUSH1 0xE0 SHL DUP2 MSTORE PUSH1 0x4 ADD PUSH2 0x85C SWAP5 SWAP4 SWAP3 SWAP2 SWAP1 PUSH2 0x211E JUMP JUMPDEST PUSH0 PUSH1 0x40 MLOAD DUP1 DUP4 SUB DUP2 PUSH0 DUP8 DUP1 EXTCODESIZE ISZERO DUP1 ISZERO PUSH2 0x873 JUMPI PUSH0 PUSH0 REVERT JUMPDEST POP GAS CALL ISZERO DUP1 ISZERO PUSH2 0x885 JUMPI RETURNDATASIZE PUSH0 PUSH0 RETURNDATACOPY RETURNDATASIZE PUSH0 REVERT JUMPDEST POP POP POP POP POP POP POP POP POP POP POP POP POP POP POP JUMP JUMPDEST PUSH0 PUSH0 DUP6 PUSH1 0x80 DUP7 SWAP1 SHL OR SWAP1 POP PUSH0 DUP5 PUSH1 0x80 DUP6 SWAP1 SHL OR SWAP1 POP DUP2 DUP2 PUSH1 0x40 MLOAD PUSH1 0x20 ADD PUSH2 0x8BE SWAP3 SWAP2 SWAP1 PUSH2 0x201C JUMP JUMPDEST PUSH1 0x40 MLOAD PUSH1 0x20 DUP2 DUP4 SUB SUB DUP2 MSTORE SWAP1 PUSH1 0x40 MSTORE DUP1 MLOAD SWAP1 PUSH1 0x20 ADD KECCAK256 PUSH0 SHR SWAP3 POP POP POP SWAP5 SWAP4 POP POP POP POP JUMP JUMPDEST PUSH32 0x0 DUP2 JUMP JUMPDEST PUSH2 0x90E PUSH2 0x15EA JUMP JUMPDEST PUSH2 0x917 PUSH0 PUSH2 0x1671 JUMP JUMPDEST JUMP JUMPDEST PUSH32 0x0 PUSH20 0xFFFFFFFFFFFFFFFFFFFFFFFFFFFFFFFFFFFFFFFF AND PUSH4 0x1042664E DUP6 DUP6 PUSH1 0x40 MLOAD DUP4 PUSH4 0xFFFFFFFF AND PUSH1 0xE0 SHL DUP2 MSTORE PUSH1 0x4 ADD PUSH2 0x974 SWAP3 SWAP2 SWAP1 PUSH2 0x1F5E JUMP JUMPDEST PUSH0 PUSH1 0x40 MLOAD DUP1 DUP4 SUB DUP2 DUP7 DUP1 EXTCODESIZE ISZERO DUP1 ISZERO PUSH2 0x98A JUMPI PUSH0 PUSH0 REVERT JUMPDEST POP GAS STATICCALL ISZERO DUP1 ISZERO PUSH2 0x99C JUMPI RETURNDATASIZE PUSH0 PUSH0 RETURNDATACOPY RETURNDATASIZE PUSH0 REVERT JUMPDEST POP POP POP POP PUSH0 DUP4 PUSH1 0x5 PUSH1 0x7 DUP2 LT PUSH2 0x9B5 JUMPI PUSH2 0x9B4 PUSH2 0x1F87 JUMP JUMPDEST JUMPDEST PUSH1 0x20 MUL ADD CALLDATALOAD SWAP1 POP CHAINID DUP2 EQ PUSH2 0x9FE JUMPI PUSH1 0x40 MLOAD PUSH32 0x8C379A000000000000000000000000000000000000000000000000000000000 DUP2 MSTORE PUSH1 0x4 ADD PUSH2 0x9F5 SWAP1 PUSH2 0x1FFE JUMP JUMPDEST PUSH1 0x40 MLOAD DUP1 SWAP2 SUB SWAP1 REVERT JUMPDEST PUSH0 PUSH2 0xA20 DUP6 PUSH1 0x3 PUSH1 0x7 DUP2 LT PUSH2 0xA16 JUMPI PUSH2 0xA15 PUSH2 0x1F87 JUMP JUMPDEST JUMPDEST PUSH1 0x20 MUL ADD CALLDATALOAD PUSH2 0xCE9 JUMP JUMPDEST SWAP1 POP PUSH0 PUSH2 0xA44 DUP7 PUSH1 0x2 PUSH1 0x7 DUP2 LT PUSH2 0xA3A JUMPI PUSH2 0xA39 PUSH2 0x1F87 JUMP JUMPDEST JUMPDEST PUSH1 0x20 MUL ADD CALLDATALOAD PUSH2 0xCE9 JUMP JUMPDEST SWAP1 POP PUSH0 PUSH2 0xA68 DUP8 PUSH1 0x4 PUSH1 0x7 DUP2 LT PUSH2 0xA5E JUMPI PUSH2 0xA5D PUSH2 0x1F87 JUMP JUMPDEST JUMPDEST PUSH1 0x20 MUL ADD CALLDATALOAD PUSH2 0x396 JUMP JUMPDEST SWAP1 POP PUSH0 PUSH2 0xA74 DUP9 PUSH2 0xFE6 JUMP JUMPDEST SWAP1 POP PUSH2 0xA83 DUP2 PUSH0 SHL DUP9 DUP9 PUSH2 0x10CF JUMP JUMPDEST PUSH1 0x1 PUSH0 DUP3 DUP2 MSTORE PUSH1 0x20 ADD SWAP1 DUP2 MSTORE PUSH1 0x20 ADD PUSH0 KECCAK256 PUSH0 SWAP1 SLOAD SWAP1 PUSH2 0x100 EXP SWAP1 DIV PUSH1 0xFF AND ISZERO PUSH2 0xAE1 JUMPI PUSH1 0x40 MLOAD PUSH32 0x8C379A000000000000000000000000000000000000000000000000000000000 DUP2 MSTORE PUSH1 0x4 ADD PUSH2 0xAD8 SWAP1 PUSH2 0x2091 JUMP JUMPDEST PUSH1 0x40 MLOAD DUP1 SWAP2 SUB SWAP1 REVERT JUMPDEST PUSH1 0x1 DUP1 PUSH0 DUP4 DUP2 MSTORE PUSH1 0x20 ADD SWAP1 DUP2 MSTORE PUSH1 0x20 ADD PUSH0 KECCAK256 PUSH0 PUSH2 0x100 EXP DUP2 SLOAD DUP2 PUSH1 0xFF MUL NOT AND SWAP1 DUP4 ISZERO ISZERO MUL OR SWAP1 SSTORE POP PUSH32 0x0 PUSH20 0xFFFFFFFFFFFFFFFFFFFFFFFFFFFFFFFFFFFFFFFF AND PUSH4 0x2E057B9B DUP5 DUP7 DUP6 PUSH1 0x40 MLOAD DUP5 PUSH4 0xFFFFFFFF AND PUSH1 0xE0 SHL DUP2 MSTORE PUSH1 0x4 ADD PUSH2 0xB66 SWAP4 SWAP3 SWAP2 SWAP1 PUSH2 0x2168 JUMP JUMPDEST PUSH0 PUSH1 0x40 MLOAD DUP1 DUP4 SUB DUP2 PUSH0 DUP8 DUP1 EXTCODESIZE ISZERO DUP1 ISZERO PUSH2 0xB7D JUMPI PUSH0 PUSH0 REVERT JUMPDEST POP GAS CALL ISZERO DUP1 ISZERO PUSH2 0xB8F JUMPI RETURNDATASIZE PUSH0 PUSH0 RETURNDATACOPY RETURNDATASIZE PUSH0 REVERT JUMPDEST POP POP POP POP POP POP POP POP POP POP POP POP POP JUMP JUMPDEST PUSH0 DUP2 SWAP1 POP SWAP2 SWAP1 POP JUMP JUMPDEST PUSH0 PUSH0 PUSH0 SWAP1 SLOAD SWAP1 PUSH2 0x100 EXP SWAP1 DIV PUSH20 0xFFFFFFFFFFFFFFFFFFFFFFFFFFFFFFFFFFFFFFFF AND SWAP1 POP SWAP1 JUMP JUMPDEST PUSH0 PUSH1 0x41 DUP3 MLOAD EQ PUSH2 0xC13 JUMPI PUSH1 0x40 MLOAD PUSH32 0x8C379A000000000000000000000000000000000000000000000000000000000 DUP2 MSTORE PUSH1 0x4 ADD PUSH2 0xC0A SWAP1 PUSH2 0x21FC JUMP JUMPDEST PUSH1 0x40 MLOAD DUP1 SWAP2 SUB SWAP1 REVERT JUMPDEST PUSH0 PUSH0 PUSH0 PUSH1 0x20 DUP6 ADD MLOAD SWAP3 POP PUSH1 0x40 DUP6 ADD MLOAD SWAP2 POP PUSH1 0x60 DUP6 ADD MLOAD PUSH0 BYTE SWAP1 POP PUSH1 0x1 DUP7 DUP3 DUP6 DUP6 PUSH1 0x40 MLOAD PUSH0 DUP2 MSTORE PUSH1 0x20 ADD PUSH1 0x40 MSTORE PUSH1 0x40 MLOAD PUSH2 0xC4F SWAP5 SWAP4 SWAP3 SWAP2 SWAP1 PUSH2 0x2235 JUMP JUMPDEST PUSH1 0x20 PUSH1 0x40 MLOAD PUSH1 0x20 DUP2 SUB SWAP1 DUP1 DUP5 SUB SWAP1 DUP6 GAS STATICCALL ISZERO DUP1 ISZERO PUSH2 0xC6F JUMPI RETURNDATASIZE PUSH0 PUSH0 RETURNDATACOPY RETURNDATASIZE PUSH0 REVERT JUMPDEST POP POP POP PUSH1 0x20 PUSH1 0x40 MLOAD SUB MLOAD SWAP4 POP POP POP POP SWAP3 SWAP2 POP POP JUMP JUMPDEST PUSH1 0x1 PUSH1 0x20 MSTORE DUP1 PUSH0 MSTORE PUSH1 0x40 PUSH0 KECCAK256 PUSH0 SWAP2 POP SLOAD SWAP1 PUSH2 0x100 EXP SWAP1 DIV PUSH1 0xFF AND DUP2 JUMP JUMPDEST PUSH32 0x0 DUP2 JUMP JUMPDEST PUSH32 0x0 DUP2 JUMP JUMPDEST PUSH1 0x60 PUSH0 DUP3 SUB PUSH2 0xD08 JUMPI PUSH1 0x40 MLOAD DUP1 PUSH1 0x20 ADD PUSH1 0x40 MSTORE DUP1 PUSH0 DUP2 MSTORE POP SWAP1 POP PUSH2 0xEE6 JUMP JUMPDEST PUSH0 DUP3 PUSH0 SHL SWAP1 POP PUSH0 PUSH0 SWAP1 POP JUMPDEST PUSH1 0x20 DUP2 PUSH1 0xFF AND LT DUP1 ISZERO PUSH2 0xD63 JUMPI POP PUSH0 PUSH1 0xF8 SHL DUP3 DUP3 PUSH1 0xFF AND PUSH1 0x20 DUP2 LT PUSH2 0xD3B JUMPI PUSH2 0xD3A PUSH2 0x1F87 JUMP JUMPDEST JUMPDEST BYTE PUSH1 0xF8 SHL PUSH31 0xFFFFFFFFFFFFFFFFFFFFFFFFFFFFFFFFFFFFFFFFFFFFFFFFFFFFFFFFFFFFFF NOT AND EQ JUMPDEST ISZERO PUSH2 0xD7B JUMPI DUP1 DUP1 PUSH2 0xD73 SWAP1 PUSH2 0x22A5 JUMP JUMPDEST SWAP2 POP POP PUSH2 0xD13 JUMP JUMPDEST PUSH0 PUSH1 0x1F SWAP1 POP JUMPDEST DUP2 PUSH1 0xFF AND DUP2 PUSH1 0xFF AND GT DUP1 ISZERO PUSH2 0xDD3 JUMPI POP PUSH0 PUSH1 0xF8 SHL DUP4 DUP3 PUSH1 0xFF AND PUSH1 0x20 DUP2 LT PUSH2 0xDAB JUMPI PUSH2 0xDAA PUSH2 0x1F87 JUMP JUMPDEST JUMPDEST BYTE PUSH1 0xF8 SHL PUSH31 0xFFFFFFFFFFFFFFFFFFFFFFFFFFFFFFFFFFFFFFFFFFFFFFFFFFFFFFFFFFFFFF NOT AND EQ JUMPDEST ISZERO PUSH2 0xDEB JUMPI DUP1 DUP1 PUSH2 0xDE3 SWAP1 PUSH2 0x22CD JUMP JUMPDEST SWAP2 POP POP PUSH2 0xD81 JUMP JUMPDEST PUSH0 PUSH1 0x1 DUP4 DUP4 PUSH2 0xDFA SWAP2 SWAP1 PUSH2 0x22F4 JUMP JUMPDEST PUSH2 0xE04 SWAP2 SWAP1 PUSH2 0x2328 JUMP JUMPDEST SWAP1 POP PUSH0 DUP2 PUSH1 0xFF AND PUSH8 0xFFFFFFFFFFFFFFFF DUP2 GT ISZERO PUSH2 0xE24 JUMPI PUSH2 0xE23 PUSH2 0x1B4B JUMP JUMPDEST JUMPDEST PUSH1 0x40 MLOAD SWAP1 DUP1 DUP3 MSTORE DUP1 PUSH1 0x1F ADD PUSH1 0x1F NOT AND PUSH1 0x20 ADD DUP3 ADD PUSH1 0x40 MSTORE DUP1 ISZERO PUSH2 0xE56 JUMPI DUP2 PUSH1 0x20 ADD PUSH1 0x1 DUP3 MUL DUP1 CALLDATASIZE DUP4 CALLDATACOPY DUP1 DUP3 ADD SWAP2 POP POP SWAP1 POP JUMPDEST POP SWAP1 POP PUSH0 PUSH0 SWAP1 POP JUMPDEST DUP3 PUSH1 0xFF AND DUP2 LT ISZERO PUSH2 0xEDC JUMPI DUP6 DUP2 DUP7 PUSH1 0xFF AND PUSH2 0xE79 SWAP2 SWAP1 PUSH2 0x235C JUMP JUMPDEST PUSH1 0x20 DUP2 LT PUSH2 0xE8A JUMPI PUSH2 0xE89 PUSH2 0x1F87 JUMP JUMPDEST JUMPDEST BYTE PUSH1 0xF8 SHL DUP3 DUP3 DUP2 MLOAD DUP2 LT PUSH2 0xEA1 JUMPI PUSH2 0xEA0 PUSH2 0x1F87 JUMP JUMPDEST JUMPDEST PUSH1 0x20 ADD ADD SWAP1 PUSH31 0xFFFFFFFFFFFFFFFFFFFFFFFFFFFFFFFFFFFFFFFFFFFFFFFFFFFFFFFFFFFFFF NOT AND SWAP1 DUP2 PUSH0 BYTE SWAP1 MSTORE8 POP DUP1 DUP1 PUSH1 0x1 ADD SWAP2 POP POP PUSH2 0xE5E JUMP JUMPDEST POP DUP1 SWAP6 POP POP POP POP POP POP JUMPDEST SWAP2 SWAP1 POP JUMP JUMPDEST PUSH32 0x0 DUP2 JUMP JUMPDEST PUSH2 0xF17 PUSH2 0x15EA JUMP JUMPDEST PUSH0 PUSH20 0xFFFFFFFFFFFFFFFFFFFFFFFFFFFFFFFFFFFFFFFF AND DUP2 PUSH20 0xFFFFFFFFFFFFFFFFFFFFFFFFFFFFFFFFFFFFFFFF AND SUB PUSH2 0xF87 JUMPI PUSH0 PUSH1 0x40 MLOAD PUSH32 0x1E4FBDF700000000000000000000000000000000000000000000000000000000 DUP2 MSTORE PUSH1 0x4 ADD PUSH2 0xF7E SWAP2 SWAP1 PUSH2 0x1A87 JUMP JUMPDEST PUSH1 0x40 MLOAD DUP1 SWAP2 SUB SWAP1 REVERT JUMPDEST PUSH2 0xF90 DUP2 PUSH2 0x1671 JUMP JUMPDEST POP JUMP JUMPDEST PUSH32 0x0 DUP2 JUMP JUMPDEST PUSH0 DUP2 PUSH1 0x40 MLOAD PUSH1 0x20 ADD PUSH2 0xFC9 SWAP2 SWAP1 PUSH2 0x2403 JUMP JUMPDEST PUSH1 0x40 MLOAD PUSH1 0x20 DUP2 DUP4 SUB SUB DUP2 MSTORE SWAP1 PUSH1 0x40 MSTORE DUP1 MLOAD SWAP1 PUSH1 0x20 ADD KECCAK256 SWAP1 POP SWAP2 SWAP1 POP JUMP JUMPDEST PUSH0 PUSH0 DUP3 PUSH0 PUSH1 0x7 DUP2 LT PUSH2 0xFFB JUMPI PUSH2 0xFFA PUSH2 0x1F87 JUMP JUMPDEST JUMPDEST PUSH1 0x20 MUL ADD CALLDATALOAD DUP4 PUSH1 0x1 PUSH1 0x7 DUP2 LT PUSH2 0x1014 JUMPI PUSH2 0x1013 PUSH2 0x1F87 JUMP JUMPDEST JUMPDEST PUSH1 0x20 MUL ADD CALLDATALOAD DUP5 PUSH1 0x2 PUSH1 0x7 DUP2 LT PUSH2 0x102D JUMPI PUSH2 0x102C PUSH2 0x1F87 JUMP JUMPDEST JUMPDEST PUSH1 0x20 MUL ADD CALLDATALOAD DUP6 PUSH1 0x3 PUSH1 0x7 DUP2 LT PUSH2 0x1046 JUMPI PUSH2 0x1045 PUSH2 0x1F87 JUMP JUMPDEST JUMPDEST PUSH1 0x20 MUL ADD CALLDATALOAD DUP7 PUSH1 0x4 PUSH1 0x7 DUP2 LT PUSH2 0x105F JUMPI PUSH2 0x105E PUSH2 0x1F87 JUMP JUMPDEST JUMPDEST PUSH1 0x20 MUL ADD CALLDATALOAD DUP8 PUSH1 0x5 PUSH1 0x7 DUP2 LT PUSH2 0x1078 JUMPI PUSH2 0x1077 PUSH2 0x1F87 JUMP JUMPDEST JUMPDEST PUSH1 0x20 MUL ADD CALLDATALOAD DUP9 PUSH1 0x6 PUSH1 0x7 DUP2 LT PUSH2 0x1091 JUMPI PUSH2 0x1090 PUSH2 0x1F87 JUMP JUMPDEST JUMPDEST PUSH1 0x20 MUL ADD CALLDATALOAD PUSH1 0x40 MLOAD PUSH1 0x20 ADD PUSH2 0x10AC SWAP8 SWAP7 SWAP6 SWAP5 SWAP4 SWAP3 SWAP2 SWAP1 PUSH2 0x2428 JUMP JUMPDEST PUSH1 0x40 MLOAD PUSH1 0x20 DUP2 DUP4 SUB SUB DUP2 MSTORE SWAP1 PUSH1 0x40 MSTORE DUP1 MLOAD SWAP1 PUSH1 0x20 ADD KECCAK256 SWAP1 POP DUP1 PUSH0 SHR SWAP2 POP POP SWAP2 SWAP1 POP JUMP JUMPDEST PUSH0 PUSH2 0x10D9 DUP5 PUSH2 0xFB7 JUMP JUMPDEST SWAP1 POP PUSH0 PUSH32 0x0 PUSH20 0xFFFFFFFFFFFFFFFFFFFFFFFFFFFFFFFFFFFFFFFF AND PUSH4 0x1442E4C9 PUSH1 0x40 MLOAD DUP2 PUSH4 0xFFFFFFFF AND PUSH1 0xE0 SHL DUP2 MSTORE PUSH1 0x4 ADD PUSH0 PUSH1 0x40 MLOAD DUP1 DUP4 SUB DUP2 DUP7 GAS STATICCALL ISZERO DUP1 ISZERO PUSH2 0x1144 JUMPI RETURNDATASIZE PUSH0 PUSH0 RETURNDATACOPY RETURNDATASIZE PUSH0 REVERT JUMPDEST POP POP POP POP PUSH1 0x40 MLOAD RETURNDATASIZE PUSH0 DUP3 RETURNDATACOPY RETURNDATASIZE PUSH1 0x1F NOT PUSH1 0x1F DUP3 ADD AND DUP3 ADD DUP1 PUSH1 0x40 MSTORE POP DUP2 ADD SWAP1 PUSH2 0x116C SWAP2 SWAP1 PUSH2 0x257C JUMP JUMPDEST SWAP1 POP PUSH0 PUSH0 SWAP1 POP JUMPDEST DUP5 DUP5 SWAP1 POP DUP2 LT ISZERO PUSH2 0x133F JUMPI CALLDATASIZE PUSH0 DUP7 DUP7 PUSH1 0x41 DUP6 PUSH2 0x118F SWAP2 SWAP1 PUSH2 0x25C3 JUMP JUMPDEST SWAP1 PUSH1 0x41 PUSH1 0x1 DUP8 PUSH2 0x119F SWAP2 SWAP1 PUSH2 0x235C JUMP JUMPDEST PUSH2 0x11A9 SWAP2 SWAP1 PUSH2 0x25C3 JUMP JUMPDEST SWAP3 PUSH2 0x11B6 SWAP4 SWAP3 SWAP2 SWAP1 PUSH2 0x260C JUMP JUMPDEST SWAP2 POP SWAP2 POP PUSH0 PUSH2 0x1208 DUP7 DUP5 DUP5 DUP1 DUP1 PUSH1 0x1F ADD PUSH1 0x20 DUP1 SWAP2 DIV MUL PUSH1 0x20 ADD PUSH1 0x40 MLOAD SWAP1 DUP2 ADD PUSH1 0x40 MSTORE DUP1 SWAP4 SWAP3 SWAP2 SWAP1 DUP2 DUP2 MSTORE PUSH1 0x20 ADD DUP4 DUP4 DUP1 DUP3 DUP5 CALLDATACOPY PUSH0 DUP2 DUP5 ADD MSTORE PUSH1 0x1F NOT PUSH1 0x1F DUP3 ADD AND SWAP1 POP DUP1 DUP4 ADD SWAP3 POP POP POP POP POP POP POP PUSH2 0xBCE JUMP JUMPDEST SWAP1 POP PUSH0 PUSH20 0xFFFFFFFFFFFFFFFFFFFFFFFFFFFFFFFFFFFFFFFF AND DUP2 PUSH20 0xFFFFFFFFFFFFFFFFFFFFFFFFFFFFFFFFFFFFFFFF AND SUB PUSH2 0x1278 JUMPI PUSH1 0x40 MLOAD PUSH32 0x8C379A000000000000000000000000000000000000000000000000000000000 DUP2 MSTORE PUSH1 0x4 ADD PUSH2 0x126F SWAP1 PUSH2 0x2690 JUMP JUMPDEST PUSH1 0x40 MLOAD DUP1 SWAP2 SUB SWAP1 REVERT JUMPDEST PUSH0 PUSH0 SWAP1 POP PUSH0 PUSH0 SWAP1 POP JUMPDEST DUP7 MLOAD DUP2 LT ISZERO PUSH2 0x12ED JUMPI DUP3 PUSH20 0xFFFFFFFFFFFFFFFFFFFFFFFFFFFFFFFFFFFFFFFF AND DUP8 DUP3 DUP2 MLOAD DUP2 LT PUSH2 0x12B4 JUMPI PUSH2 0x12B3 PUSH2 0x1F87 JUMP JUMPDEST JUMPDEST PUSH1 0x20 MUL PUSH1 0x20 ADD ADD MLOAD PUSH20 0xFFFFFFFFFFFFFFFFFFFFFFFFFFFFFFFFFFFFFFFF AND SUB PUSH2 0x12E0 JUMPI PUSH1 0x1 SWAP2 POP PUSH2 0x12ED JUMP JUMPDEST DUP1 DUP1 PUSH1 0x1 ADD SWAP2 POP POP PUSH2 0x1281 JUMP JUMPDEST POP DUP1 PUSH2 0x132E JUMPI PUSH1 0x40 MLOAD PUSH32 0x8C379A000000000000000000000000000000000000000000000000000000000 DUP2 MSTORE PUSH1 0x4 ADD PUSH2 0x1325 SWAP1 PUSH2 0x26F8 JUMP JUMPDEST PUSH1 0x40 MLOAD DUP1 SWAP2 SUB SWAP1 REVERT JUMPDEST POP POP POP POP DUP1 DUP1 PUSH1 0x1 ADD SWAP2 POP POP PUSH2 0x1173 JUMP JUMPDEST POP POP POP POP POP POP JUMP JUMPDEST PUSH0 PUSH0 PUSH1 0x60 PUSH0 DUP5 PUSH1 0x5 PUSH1 0x6 DUP2 LT PUSH2 0x1360 JUMPI PUSH2 0x135F PUSH2 0x1F87 JUMP JUMPDEST JUMPDEST PUSH1 0x20 MUL ADD CALLDATALOAD SWAP1 POP DUP1 PUSH8 0xFFFFFFFFFFFFFFFF AND SWAP4 POP PUSH0 PUSH1 0x40 DUP3 SWAP1 SHR PUSH4 0xFFFFFFFF AND SWAP1 POP CHAINID DUP2 EQ PUSH2 0x13C4 JUMPI PUSH1 0x40 MLOAD PUSH32 0x8C379A000000000000000000000000000000000000000000000000000000000 DUP2 MSTORE PUSH1 0x4 ADD PUSH2 0x13BB SWAP1 PUSH2 0x1FFE JUMP JUMPDEST PUSH1 0x40 MLOAD DUP1 SWAP2 SUB SWAP1 REVERT JUMPDEST PUSH0 PUSH1 0x80 DUP4 SWAP1 SHR SWAP1 POP PUSH2 0x13D5 DUP2 PUSH2 0xCE9 JUMP JUMPDEST SWAP4 POP PUSH0 PUSH2 0x13F9 DUP9 PUSH1 0x4 PUSH1 0x6 DUP2 LT PUSH2 0x13EF JUMPI PUSH2 0x13EE PUSH2 0x1F87 JUMP JUMPDEST JUMPDEST PUSH1 0x20 MUL ADD CALLDATALOAD PUSH2 0xCE9 JUMP JUMPDEST SWAP1 POP PUSH0 DUP2 PUSH1 0x40 MLOAD PUSH1 0x20 ADD PUSH2 0x140D SWAP2 SWAP1 PUSH2 0x2790 JUMP JUMPDEST PUSH1 0x40 MLOAD PUSH1 0x20 DUP2 DUP4 SUB SUB DUP2 MSTORE SWAP1 PUSH1 0x40 MSTORE SWAP1 POP PUSH0 PUSH32 0x0 PUSH20 0xFFFFFFFFFFFFFFFFFFFFFFFFFFFFFFFFFFFFFFFF AND PUSH4 0x16F1ADC1 DUP4 PUSH1 0x40 MLOAD DUP3 PUSH4 0xFFFFFFFF AND PUSH1 0xE0 SHL DUP2 MSTORE PUSH1 0x4 ADD PUSH2 0x1478 SWAP2 SWAP1 PUSH2 0x27FB JUMP JUMPDEST PUSH0 PUSH1 0x40 MLOAD DUP1 DUP4 SUB DUP2 DUP7 GAS STATICCALL ISZERO DUP1 ISZERO PUSH2 0x1492 JUMPI RETURNDATASIZE PUSH0 PUSH0 RETURNDATACOPY RETURNDATASIZE PUSH0 REVERT JUMPDEST POP POP POP POP PUSH1 0x40 MLOAD RETURNDATASIZE PUSH0 DUP3 RETURNDATACOPY RETURNDATASIZE PUSH1 0x1F NOT PUSH1 0x1F DUP3 ADD AND DUP3 ADD DUP1 PUSH1 0x40 MSTORE POP DUP2 ADD SWAP1 PUSH2 0x14BA SWAP2 SWAP1 PUSH2 0x289C JUMP JUMPDEST SWAP1 POP PUSH0 DUP2 MLOAD GT PUSH2 0x14FF JUMPI PUSH1 0x40 MLOAD PUSH32 0x8C379A000000000000000000000000000000000000000000000000000000000 DUP2 MSTORE PUSH1 0x4 ADD PUSH2 0x14F6 SWAP1 PUSH2 0x292D JUMP JUMPDEST PUSH1 0x40 MLOAD DUP1 SWAP2 SUB SWAP1 REVERT JUMPDEST DUP1 PUSH2 0x1509 SWAP1 PUSH2 0x29A5 JUMP JUMPDEST PUSH1 0x60 SHR SWAP8 POP POP POP POP POP POP POP SWAP2 SWAP4 SWAP1 SWAP3 POP JUMP JUMPDEST PUSH0 PUSH0 DUP3 PUSH0 PUSH1 0x6 DUP2 LT PUSH2 0x1530 JUMPI PUSH2 0x152F PUSH2 0x1F87 JUMP JUMPDEST JUMPDEST PUSH1 0x20 MUL ADD CALLDATALOAD DUP4 PUSH1 0x1 PUSH1 0x6 DUP2 LT PUSH2 0x1549 JUMPI PUSH2 0x1548 PUSH2 0x1F87 JUMP JUMPDEST JUMPDEST PUSH1 0x20 MUL ADD CALLDATALOAD DUP5 PUSH1 0x2 PUSH1 0x6 DUP2 LT PUSH2 0x1562 JUMPI PUSH2 0x1561 PUSH2 0x1F87 JUMP JUMPDEST JUMPDEST PUSH1 0x20 MUL ADD CALLDATALOAD DUP6 PUSH1 0x3 PUSH1 0x6 DUP2 LT PUSH2 0x157B JUMPI PUSH2 0x157A PUSH2 0x1F87 JUMP JUMPDEST JUMPDEST PUSH1 0x20 MUL ADD CALLDATALOAD DUP7 PUSH1 0x4 PUSH1 0x6 DUP2 LT PUSH2 0x1594 JUMPI PUSH2 0x1593 PUSH2 0x1F87 JUMP JUMPDEST JUMPDEST PUSH1 0x20 MUL ADD CALLDATALOAD DUP8 PUSH1 0x5 PUSH1 0x6 DUP2 LT PUSH2 0x15AD JUMPI PUSH2 0x15AC PUSH2 0x1F87 JUMP JUMPDEST JUMPDEST PUSH1 0x20 MUL ADD CALLDATALOAD PUSH1 0x40 MLOAD PUSH1 0x20 ADD PUSH2 0x15C7 SWAP7 SWAP6 SWAP5 SWAP4 SWAP3 SWAP2 SWAP1 PUSH2 0x2A0B JUMP JUMPDEST PUSH1 0x40 MLOAD PUSH1 0x20 DUP2 DUP4 SUB SUB DUP2 MSTORE SWAP1 PUSH1 0x40 MSTORE DUP1 MLOAD SWAP1 PUSH1 0x20 ADD KECCAK256 SWAP1 POP DUP1 PUSH0 SHR SWAP2 POP POP SWAP2 SWAP1 POP JUMP JUMPDEST PUSH2 0x15F2 PUSH2 0x1732 JUMP JUMPDEST PUSH20 0xFFFFFFFFFFFFFFFFFFFFFFFFFFFFFFFFFFFFFFFF AND PUSH2 0x1610 PUSH2 0xBA7 JUMP JUMPDEST PUSH20 0xFFFFFFFFFFFFFFFFFFFFFFFFFFFFFFFFFFFFFFFF AND EQ PUSH2 0x166F JUMPI PUSH2 0x1633 PUSH2 0x1732 JUMP JUMPDEST PUSH1 0x40 MLOAD PUSH32 0x118CDAA700000000000000000000000000000000000000000000000000000000 DUP2 MSTORE PUSH1 0x4 ADD PUSH2 0x1666 SWAP2 SWAP1 PUSH2 0x1A87 JUMP JUMPDEST PUSH1 0x40 MLOAD DUP1 SWAP2 SUB SWAP1 REVERT JUMPDEST JUMP JUMPDEST PUSH0 PUSH0 PUSH0 SWAP1 SLOAD SWAP1 PUSH2 0x100 EXP SWAP1 DIV PUSH20 0xFFFFFFFFFFFFFFFFFFFFFFFFFFFFFFFFFFFFFFFF AND SWAP1 POP DUP2 PUSH0 PUSH0 PUSH2 0x100 EXP DUP2 SLOAD DUP2 PUSH20 0xFFFFFFFFFFFFFFFFFFFFFFFFFFFFFFFFFFFFFFFF MUL NOT AND SWAP1 DUP4 PUSH20 0xFFFFFFFFFFFFFFFFFFFFFFFFFFFFFFFFFFFFFFFF AND MUL OR SWAP1 SSTORE POP DUP2 PUSH20 0xFFFFFFFFFFFFFFFFFFFFFFFFFFFFFFFFFFFFFFFF AND DUP2 PUSH20 0xFFFFFFFFFFFFFFFFFFFFFFFFFFFFFFFFFFFFFFFF AND PUSH32 0x8BE0079C531659141344CD1FD0A4F28419497F9722A3DAAFE3B4186F6B6457E0 PUSH1 0x40 MLOAD PUSH1 0x40 MLOAD DUP1 SWAP2 SUB SWAP1 LOG3 POP POP JUMP JUMPDEST PUSH0 CALLER SWAP1 POP SWAP1 JUMP JUMPDEST PUSH0 PUSH1 0x40 MLOAD SWAP1 POP SWAP1 JUMP JUMPDEST PUSH0 PUSH0 REVERT JUMPDEST PUSH0 PUSH0 REVERT JUMPDEST PUSH0 DUP2 SWAP1 POP SWAP2 SWAP1 POP JUMP JUMPDEST PUSH2 0x175C DUP2 PUSH2 0x174A JUMP JUMPDEST DUP2 EQ PUSH2 0x1766 JUMPI PUSH0 PUSH0 REVERT JUMPDEST POP JUMP JUMPDEST PUSH0 DUP2 CALLDATALOAD SWAP1 POP PUSH2 0x1777 DUP2 PUSH2 0x1753 JUMP JUMPDEST SWAP3 SWAP2 POP POP JUMP JUMPDEST PUSH0 PUSH1 0x20 DUP3 DUP5 SUB SLT ISZERO PUSH2 0x1792 JUMPI PUSH2 0x1791 PUSH2 0x1742 JUMP JUMPDEST JUMPDEST PUSH0 PUSH2 0x179F DUP5 DUP3 DUP6 ADD PUSH2 0x1769 JUMP JUMPDEST SWAP2 POP POP SWAP3 SWAP2 POP POP JUMP JUMPDEST PUSH0 DUP2 MLOAD SWAP1 POP SWAP2 SWAP1 POP JUMP JUMPDEST PUSH0 DUP3 DUP3 MSTORE PUSH1 0x20 DUP3 ADD SWAP1 POP SWAP3 SWAP2 POP POP JUMP JUMPDEST DUP3 DUP2 DUP4 MCOPY PUSH0 DUP4 DUP4 ADD MSTORE POP POP POP JUMP JUMPDEST PUSH0 PUSH1 0x1F NOT PUSH1 0x1F DUP4 ADD AND SWAP1 POP SWAP2 SWAP1 POP JUMP JUMPDEST PUSH0 PUSH2 0x17EA DUP3 PUSH2 0x17A8 JUMP JUMPDEST PUSH2 0x17F4 DUP2 DUP6 PUSH2 0x17B2 JUMP JUMPDEST SWAP4 POP PUSH2 0x1804 DUP2 DUP6 PUSH1 0x20 DUP7 ADD PUSH2 0x17C2 JUMP JUMPDEST PUSH2 0x180D DUP2 PUSH2 0x17D0 JUMP JUMPDEST DUP5 ADD SWAP2 POP POP SWAP3 SWAP2 POP POP JUMP JUMPDEST PUSH0 PUSH1 0x20 DUP3 ADD SWAP1 POP DUP2 DUP2 SUB PUSH0 DUP4 ADD MSTORE PUSH2 0x1830 DUP2 DUP5 PUSH2 0x17E0 JUMP JUMPDEST SWAP1 POP SWAP3 SWAP2 POP POP JUMP JUMPDEST PUSH0 PUSH0 REVERT JUMPDEST PUSH0 DUP2 SWAP1 POP DUP3 PUSH1 0x20 PUSH1 0x8 MUL DUP3 ADD GT ISZERO PUSH2 0x1857 JUMPI PUSH2 0x1856 PUSH2 0x1838 JUMP JUMPDEST JUMPDEST SWAP3 SWAP2 POP POP JUMP JUMPDEST PUSH0 DUP2 SWAP1 POP DUP3 PUSH1 0x20 PUSH1 0x7 MUL DUP3 ADD GT ISZERO PUSH2 0x1878 JUMPI PUSH2 0x1877 PUSH2 0x1838 JUMP JUMPDEST JUMPDEST SWAP3 SWAP2 POP POP JUMP JUMPDEST PUSH0 PUSH0 REVERT JUMPDEST PUSH0 PUSH0 REVERT JUMPDEST PUSH0 PUSH0 DUP4 PUSH1 0x1F DUP5 ADD SLT PUSH2 0x189B JUMPI PUSH2 0x189A PUSH2 0x187E JUMP JUMPDEST JUMPDEST DUP3 CALLDATALOAD SWAP1 POP PUSH8 0xFFFFFFFFFFFFFFFF DUP2 GT ISZERO PUSH2 0x18B8 JUMPI PUSH2 0x18B7 PUSH2 0x1882 JUMP JUMPDEST JUMPDEST PUSH1 0x20 DUP4 ADD SWAP2 POP DUP4 PUSH1 0x1 DUP3 MUL DUP4 ADD GT ISZERO PUSH2 0x18D4 JUMPI PUSH2 0x18D3 PUSH2 0x1838 JUMP JUMPDEST JUMPDEST SWAP3 POP SWAP3 SWAP1 POP JUMP JUMPDEST PUSH0 PUSH0 PUSH0 PUSH0 PUSH2 0x200 DUP6 DUP8 SUB SLT ISZERO PUSH2 0x18F4 JUMPI PUSH2 0x18F3 PUSH2 0x1742 JUMP JUMPDEST JUMPDEST PUSH0 PUSH2 0x1901 DUP8 DUP3 DUP9 ADD PUSH2 0x183C JUMP JUMPDEST SWAP5 POP POP PUSH2 0x100 PUSH2 0x1913 DUP8 DUP3 DUP9 ADD PUSH2 0x185D JUMP JUMPDEST SWAP4 POP POP PUSH2 0x1E0 DUP6 ADD CALLDATALOAD PUSH8 0xFFFFFFFFFFFFFFFF DUP2 GT ISZERO PUSH2 0x1935 JUMPI PUSH2 0x1934 PUSH2 0x1746 JUMP JUMPDEST JUMPDEST PUSH2 0x1941 DUP8 DUP3 DUP9 ADD PUSH2 0x1886 JUMP JUMPDEST SWAP3 POP SWAP3 POP POP SWAP3 SWAP6 SWAP2 SWAP5 POP SWAP3 POP JUMP JUMPDEST PUSH0 DUP2 SWAP1 POP DUP3 PUSH1 0x20 PUSH1 0x6 MUL DUP3 ADD GT ISZERO PUSH2 0x196A JUMPI PUSH2 0x1969 PUSH2 0x1838 JUMP JUMPDEST JUMPDEST SWAP3 SWAP2 POP POP JUMP JUMPDEST PUSH0 PUSH0 PUSH0 PUSH0 PUSH2 0x1E0 DUP6 DUP8 SUB SLT ISZERO PUSH2 0x1989 JUMPI PUSH2 0x1988 PUSH2 0x1742 JUMP JUMPDEST JUMPDEST PUSH0 PUSH2 0x1996 DUP8 DUP3 DUP9 ADD PUSH2 0x183C JUMP JUMPDEST SWAP5 POP POP PUSH2 0x100 PUSH2 0x19A8 DUP8 DUP3 DUP9 ADD PUSH2 0x194F JUMP JUMPDEST SWAP4 POP POP PUSH2 0x1C0 DUP6 ADD CALLDATALOAD PUSH8 0xFFFFFFFFFFFFFFFF DUP2 GT ISZERO PUSH2 0x19CA JUMPI PUSH2 0x19C9 PUSH2 0x1746 JUMP JUMPDEST JUMPDEST PUSH2 0x19D6 DUP8 DUP3 DUP9 ADD PUSH2 0x1886 JUMP JUMPDEST SWAP3 POP SWAP3 POP POP SWAP3 SWAP6 SWAP2 SWAP5 POP SWAP3 POP JUMP JUMPDEST PUSH0 PUSH0 PUSH0 PUSH0 PUSH1 0x80 DUP6 DUP8 SUB SLT ISZERO PUSH2 0x19FC JUMPI PUSH2 0x19FB PUSH2 0x1742 JUMP JUMPDEST JUMPDEST PUSH0 PUSH2 0x1A09 DUP8 DUP3 DUP9 ADD PUSH2 0x1769 JUMP JUMPDEST SWAP5 POP POP PUSH1 0x20 PUSH2 0x1A1A DUP8 DUP3 DUP9 ADD PUSH2 0x1769 JUMP JUMPDEST SWAP4 POP POP PUSH1 0x40 PUSH2 0x1A2B DUP8 DUP3 DUP9 ADD PUSH2 0x1769 JUMP JUMPDEST SWAP3 POP POP PUSH1 0x60 PUSH2 0x1A3C DUP8 DUP3 DUP9 ADD PUSH2 0x1769 JUMP JUMPDEST SWAP2 POP POP SWAP3 SWAP6 SWAP2 SWAP5 POP SWAP3 POP JUMP JUMPDEST PUSH0 PUSH20 0xFFFFFFFFFFFFFFFFFFFFFFFFFFFFFFFFFFFFFFFF DUP3 AND SWAP1 POP SWAP2 SWAP1 POP JUMP JUMPDEST PUSH0 PUSH2 0x1A71 DUP3 PUSH2 0x1A48 JUMP JUMPDEST SWAP1 POP SWAP2 SWAP1 POP JUMP JUMPDEST PUSH2 0x1A81 DUP2 PUSH2 0x1A67 JUMP JUMPDEST DUP3 MSTORE POP POP JUMP JUMPDEST PUSH0 PUSH1 0x20 DUP3 ADD SWAP1 POP PUSH2 0x1A9A PUSH0 DUP4 ADD DUP5 PUSH2 0x1A78 JUMP JUMPDEST SWAP3 SWAP2 POP POP JUMP JUMPDEST PUSH0 DUP2 SWAP1 POP SWAP2 SWAP1 POP JUMP JUMPDEST PUSH0 PUSH2 0x1AC3 PUSH2 0x1ABE PUSH2 0x1AB9 DUP5 PUSH2 0x1A48 JUMP JUMPDEST PUSH2 0x1AA0 JUMP JUMPDEST PUSH2 0x1A48 JUMP JUMPDEST SWAP1 POP SWAP2 SWAP1 POP JUMP JUMPDEST PUSH0 PUSH2 0x1AD4 DUP3 PUSH2 0x1AA9 JUMP JUMPDEST SWAP1 POP SWAP2 SWAP1 POP JUMP JUMPDEST PUSH0 PUSH2 0x1AE5 DUP3 PUSH2 0x1ACA JUMP JUMPDEST SWAP1 POP SWAP2 SWAP1 POP JUMP JUMPDEST PUSH2 0x1AF5 DUP2 PUSH2 0x1ADB JUMP JUMPDEST DUP3 MSTORE POP POP JUMP JUMPDEST PUSH0 PUSH1 0x20 DUP3 ADD SWAP1 POP PUSH2 0x1B0E PUSH0 DUP4 ADD DUP5 PUSH2 0x1AEC JUMP JUMPDEST SWAP3 SWAP2 POP POP JUMP JUMPDEST PUSH0 DUP2 SWAP1 POP SWAP2 SWAP1 POP JUMP JUMPDEST PUSH2 0x1B26 DUP2 PUSH2 0x1B14 JUMP JUMPDEST DUP2 EQ PUSH2 0x1B30 JUMPI PUSH0 PUSH0 REVERT JUMPDEST POP JUMP JUMPDEST PUSH0 DUP2 CALLDATALOAD SWAP1 POP PUSH2 0x1B41 DUP2 PUSH2 0x1B1D JUMP JUMPDEST SWAP3 SWAP2 POP POP JUMP JUMPDEST PUSH0 PUSH0 REVERT JUMPDEST PUSH32 0x4E487B7100000000000000000000000000000000000000000000000000000000 PUSH0 MSTORE PUSH1 0x41 PUSH1 0x4 MSTORE PUSH1 0x24 PUSH0 REVERT JUMPDEST PUSH2 0x1B81 DUP3 PUSH2 0x17D0 JUMP JUMPDEST DUP2 ADD DUP2 DUP2 LT PUSH8 0xFFFFFFFFFFFFFFFF DUP3 GT OR ISZERO PUSH2 0x1BA0 JUMPI PUSH2 0x1B9F PUSH2 0x1B4B JUMP JUMPDEST JUMPDEST DUP1 PUSH1 0x40 MSTORE POP POP POP JUMP JUMPDEST PUSH0 PUSH2 0x1BB2 PUSH2 0x1739 JUMP JUMPDEST SWAP1 POP PUSH2 0x1BBE DUP3 DUP3 PUSH2 0x1B78 JUMP JUMPDEST SWAP2 SWAP1 POP JUMP JUMPDEST PUSH0 PUSH8 0xFFFFFFFFFFFFFFFF DUP3 GT ISZERO PUSH2 0x1BDD JUMPI PUSH2 0x1BDC PUSH2 0x1B4B JUMP JUMPDEST JUMPDEST PUSH2 0x1BE6 DUP3 PUSH2 0x17D0 JUMP JUMPDEST SWAP1 POP PUSH1 0x20 DUP2 ADD SWAP1 POP SWAP2 SWAP1 POP JUMP JUMPDEST DUP3 DUP2 DUP4 CALLDATACOPY PUSH0 DUP4 DUP4 ADD MSTORE POP POP POP JUMP JUMPDEST PUSH0 PUSH2 0x1C13 PUSH2 0x1C0E DUP5 PUSH2 0x1BC3 JUMP JUMPDEST PUSH2 0x1BA9 JUMP JUMPDEST SWAP1 POP DUP3 DUP2 MSTORE PUSH1 0x20 DUP2 ADD DUP5 DUP5 DUP5 ADD GT ISZERO PUSH2 0x1C2F JUMPI PUSH2 0x1C2E PUSH2 0x1B47 JUMP JUMPDEST JUMPDEST PUSH2 0x1C3A DUP5 DUP3 DUP6 PUSH2 0x1BF3 JUMP JUMPDEST POP SWAP4 SWAP3 POP POP POP JUMP JUMPDEST PUSH0 DUP3 PUSH1 0x1F DUP4 ADD SLT PUSH2 0x1C56 JUMPI PUSH2 0x1C55 PUSH2 0x187E JUMP JUMPDEST JUMPDEST DUP2 CALLDATALOAD PUSH2 0x1C66 DUP5 DUP3 PUSH1 0x20 DUP7 ADD PUSH2 0x1C01 JUMP JUMPDEST SWAP2 POP POP SWAP3 SWAP2 POP POP JUMP JUMPDEST PUSH0 PUSH0 PUSH1 0x40 DUP4 DUP6 SUB SLT ISZERO PUSH2 0x1C85 JUMPI PUSH2 0x1C84 PUSH2 0x1742 JUMP JUMPDEST JUMPDEST PUSH0 PUSH2 0x1C92 DUP6 DUP3 DUP7 ADD PUSH2 0x1B33 JUMP JUMPDEST SWAP3 POP POP PUSH1 0x20 DUP4 ADD CALLDATALOAD PUSH8 0xFFFFFFFFFFFFFFFF DUP2 GT ISZERO PUSH2 0x1CB3 JUMPI PUSH2 0x1CB2 PUSH2 0x1746 JUMP JUMPDEST JUMPDEST PUSH2 0x1CBF DUP6 DUP3 DUP7 ADD PUSH2 0x1C42 JUMP JUMPDEST SWAP2 POP POP SWAP3 POP SWAP3 SWAP1 POP JUMP JUMPDEST PUSH0 DUP2 ISZERO ISZERO SWAP1 POP SWAP2 SWAP1 POP JUMP JUMPDEST PUSH2 0x1CDD DUP2 PUSH2 0x1CC9 JUMP JUMPDEST DUP3 MSTORE POP POP JUMP JUMPDEST PUSH0 PUSH1 0x20 DUP3 ADD SWAP1 POP PUSH2 0x1CF6 PUSH0 DUP4 ADD DUP5 PUSH2 0x1CD4 JUMP JUMPDEST SWAP3 SWAP2 POP POP JUMP JUMPDEST PUSH0 PUSH2 0x1D06 DUP3 PUSH2 0x1ACA JUMP JUMPDEST SWAP1 POP SWAP2 SWAP1 POP JUMP JUMPDEST PUSH2 0x1D16 DUP2 PUSH2 0x1CFC JUMP JUMPDEST DUP3 MSTORE POP POP JUMP JUMPDEST PUSH0 PUSH1 0x20 DUP3 ADD SWAP1 POP PUSH2 0x1D2F PUSH0 DUP4 ADD DUP5 PUSH2 0x1D0D JUMP JUMPDEST SWAP3 SWAP2 POP POP JUMP JUMPDEST PUSH0 PUSH2 0x1D3F DUP3 PUSH2 0x1ACA JUMP JUMPDEST SWAP1 POP SWAP2 SWAP1 POP JUMP JUMPDEST PUSH2 0x1D4F DUP2 PUSH2 0x1D35 JUMP JUMPDEST DUP3 MSTORE POP POP JUMP JUMPDEST PUSH0 PUSH1 0x20 DUP3 ADD SWAP1 POP PUSH2 0x1D68 PUSH0 DUP4 ADD DUP5 PUSH2 0x1D46 JUMP JUMPDEST SWAP3 SWAP2 POP POP JUMP JUMPDEST PUSH0 DUP2 MLOAD SWAP1 POP SWAP2 SWAP1 POP JUMP JUMPDEST PUSH0 DUP3 DUP3 MSTORE PUSH1 0x20 DUP3 ADD SWAP1 POP SWAP3 SWAP2 POP POP JUMP JUMPDEST PUSH0 PUSH2 0x1D92 DUP3 PUSH2 0x1D6E JUMP JUMPDEST PUSH2 0x1D9C DUP2 DUP6 PUSH2 0x1D78 JUMP JUMPDEST SWAP4 POP PUSH2 0x1DAC DUP2 DUP6 PUSH1 0x20 DUP7 ADD PUSH2 0x17C2 JUMP JUMPDEST PUSH2 0x1DB5 DUP2 PUSH2 0x17D0 JUMP JUMPDEST DUP5 ADD SWAP2 POP POP SWAP3 SWAP2 POP POP JUMP JUMPDEST PUSH0 PUSH1 0x20 DUP3 ADD SWAP1 POP DUP2 DUP2 SUB PUSH0 DUP4 ADD MSTORE PUSH2 0x1DD8 DUP2 DUP5 PUSH2 0x1D88 JUMP JUMPDEST SWAP1 POP SWAP3 SWAP2 POP POP JUMP JUMPDEST PUSH0 PUSH2 0x1DEA DUP3 PUSH2 0x1ACA JUMP JUMPDEST SWAP1 POP SWAP2 SWAP1 POP JUMP JUMPDEST PUSH2 0x1DFA DUP2 PUSH2 0x1DE0 JUMP JUMPDEST DUP3 MSTORE POP POP JUMP JUMPDEST PUSH0 PUSH1 0x20 DUP3 ADD SWAP1 POP PUSH2 0x1E13 PUSH0 DUP4 ADD DUP5 PUSH2 0x1DF1 JUMP JUMPDEST SWAP3 SWAP2 POP POP JUMP JUMPDEST PUSH2 0x1E22 DUP2 PUSH2 0x1A67 JUMP JUMPDEST DUP2 EQ PUSH2 0x1E2C JUMPI PUSH0 PUSH0 REVERT JUMPDEST POP JUMP JUMPDEST PUSH0 DUP2 CALLDATALOAD SWAP1 POP PUSH2 0x1E3D DUP2 PUSH2 0x1E19 JUMP JUMPDEST SWAP3 SWAP2 POP POP JUMP JUMPDEST PUSH0 PUSH1 0x20 DUP3 DUP5 SUB SLT ISZERO PUSH2 0x1E58 JUMPI PUSH2 0x1E57 PUSH2 0x1742 JUMP JUMPDEST JUMPDEST PUSH0 PUSH2 0x1E65 DUP5 DUP3 DUP6 ADD PUSH2 0x1E2F JUMP JUMPDEST SWAP2 POP POP SWAP3 SWAP2 POP POP JUMP JUMPDEST PUSH0 PUSH2 0x1E78 DUP3 PUSH2 0x1ACA JUMP JUMPDEST SWAP1 POP SWAP2 SWAP1 POP JUMP JUMPDEST PUSH2 0x1E88 DUP2 PUSH2 0x1E6E JUMP JUMPDEST DUP3 MSTORE POP POP JUMP JUMPDEST PUSH0 PUSH1 0x20 DUP3 ADD SWAP1 POP PUSH2 0x1EA1 PUSH0 DUP4 ADD DUP5 PUSH2 0x1E7F JUMP JUMPDEST SWAP3 SWAP2 POP POP JUMP JUMPDEST PUSH0 PUSH1 0x20 DUP3 DUP5 SUB SLT ISZERO PUSH2 0x1EBC JUMPI PUSH2 0x1EBB PUSH2 0x1742 JUMP JUMPDEST JUMPDEST PUSH0 PUSH2 0x1EC9 DUP5 DUP3 DUP6 ADD PUSH2 0x1B33 JUMP JUMPDEST SWAP2 POP POP SWAP3 SWAP2 POP POP JUMP JUMPDEST PUSH2 0x1EDB DUP2 PUSH2 0x1B14 JUMP JUMPDEST DUP3 MSTORE POP POP JUMP JUMPDEST PUSH0 PUSH1 0x20 DUP3 ADD SWAP1 POP PUSH2 0x1EF4 PUSH0 DUP4 ADD DUP5 PUSH2 0x1ED2 JUMP JUMPDEST SWAP3 SWAP2 POP POP JUMP JUMPDEST PUSH0 DUP2 SWAP1 POP SWAP2 SWAP1 POP JUMP JUMPDEST PUSH2 0x1F14 PUSH2 0x1F0F DUP3 PUSH2 0x174A JUMP JUMPDEST PUSH2 0x1EFA JUMP JUMPDEST DUP3 MSTORE POP POP JUMP JUMPDEST PUSH0 PUSH2 0x1F25 DUP3 DUP5 PUSH2 0x1F03 JUMP JUMPDEST PUSH1 0x20 DUP3 ADD SWAP2 POP DUP2 SWAP1 POP SWAP3 SWAP2 POP POP JUMP JUMPDEST DUP3 DUP2 DUP4 CALLDATACOPY POP POP POP JUMP JUMPDEST PUSH2 0x1F4A PUSH2 0x100 DUP4 DUP4 PUSH2 0x1F34 JUMP JUMPDEST POP POP JUMP JUMPDEST PUSH2 0x1F5A PUSH1 0xE0 DUP4 DUP4 PUSH2 0x1F34 JUMP JUMPDEST POP POP JUMP JUMPDEST PUSH0 PUSH2 0x1E0 DUP3 ADD SWAP1 POP PUSH2 0x1F72 PUSH0 DUP4 ADD DUP6 PUSH2 0x1F3D JUMP JUMPDEST PUSH2 0x1F80 PUSH2 0x100 DUP4 ADD DUP5 PUSH2 0x1F4E JUMP JUMPDEST SWAP4 SWAP3 POP POP POP JUMP JUMPDEST PUSH32 0x4E487B7100000000000000000000000000000000000000000000000000000000 PUSH0 MSTORE PUSH1 0x32 PUSH1 0x4 MSTORE PUSH1 0x24 PUSH0 REVERT JUMPDEST PUSH32 0x57726F6E672064657374696E6174696F6E20636861696E000000000000000000 PUSH0 DUP3 ADD MSTORE POP JUMP JUMPDEST PUSH0 PUSH2 0x1FE8 PUSH1 0x17 DUP4 PUSH2 0x1D78 JUMP JUMPDEST SWAP2 POP PUSH2 0x1FF3 DUP3 PUSH2 0x1FB4 JUMP JUMPDEST PUSH1 0x20 DUP3 ADD SWAP1 POP SWAP2 SWAP1 POP JUMP JUMPDEST PUSH0 PUSH1 0x20 DUP3 ADD SWAP1 POP DUP2 DUP2 SUB PUSH0 DUP4 ADD MSTORE PUSH2 0x2015 DUP2 PUSH2 0x1FDC JUMP JUMPDEST SWAP1 POP SWAP2 SWAP1 POP JUMP JUMPDEST PUSH0 PUSH2 0x2027 DUP3 DUP6 PUSH2 0x1F03 JUMP JUMPDEST PUSH1 0x20 DUP3 ADD SWAP2 POP PUSH2 0x2037 DUP3 DUP5 PUSH2 0x1F03 JUMP JUMPDEST PUSH1 0x20 DUP3 ADD SWAP2 POP DUP2 SWAP1 POP SWAP4 SWAP3 POP POP POP JUMP JUMPDEST PUSH32 0x5265706C61792061747461636B20646574656374656400000000000000000000 PUSH0 DUP3 ADD MSTORE POP JUMP JUMPDEST PUSH0 PUSH2 0x207B PUSH1 0x16 DUP4 PUSH2 0x1D78 JUMP JUMPDEST SWAP2 POP PUSH2 0x2086 DUP3 PUSH2 0x2047 JUMP JUMPDEST PUSH1 0x20 DUP3 ADD SWAP1 POP SWAP2 SWAP1 POP JUMP JUMPDEST PUSH0 PUSH1 0x20 DUP3 ADD SWAP1 POP DUP2 DUP2 SUB PUSH0 DUP4 ADD MSTORE PUSH2 0x20A8 DUP2 PUSH2 0x206F JUMP JUMPDEST SWAP1 POP SWAP2 SWAP1 POP JUMP JUMPDEST PUSH0 PUSH1 0x40 DUP3 ADD SWAP1 POP PUSH2 0x20C2 PUSH0 DUP4 ADD DUP6 PUSH2 0x1A78 JUMP JUMPDEST PUSH2 0x20CF PUSH1 0x20 DUP4 ADD DUP5 PUSH2 0x1CD4 JUMP JUMPDEST SWAP4 SWAP3 POP POP POP JUMP JUMPDEST PUSH2 0x20E2 PUSH1 0xC0 DUP4 DUP4 PUSH2 0x1F34 JUMP JUMPDEST POP POP JUMP JUMPDEST PUSH0 PUSH2 0x1C0 DUP3 ADD SWAP1 POP PUSH2 0x20FA PUSH0 DUP4 ADD DUP6 PUSH2 0x1F3D JUMP JUMPDEST PUSH2 0x2108 PUSH2 0x100 DUP4 ADD DUP5 PUSH2 0x20D6 JUMP JUMPDEST SWAP4 SWAP3 POP POP POP JUMP JUMPDEST PUSH2 0x2118 DUP2 PUSH2 0x174A JUMP JUMPDEST DUP3 MSTORE POP POP JUMP JUMPDEST PUSH0 PUSH1 0x80 DUP3 ADD SWAP1 POP PUSH2 0x2131 PUSH0 DUP4 ADD DUP8 PUSH2 0x1A78 JUMP JUMPDEST DUP2 DUP2 SUB PUSH1 0x20 DUP4 ADD MSTORE PUSH2 0x2143 DUP2 DUP7 PUSH2 0x1D88 JUMP JUMPDEST SWAP1 POP PUSH2 0x2152 PUSH1 0x40 DUP4 ADD DUP6 PUSH2 0x210F JUMP JUMPDEST PUSH2 0x215F PUSH1 0x60 DUP4 ADD DUP5 PUSH2 0x210F JUMP JUMPDEST SWAP6 SWAP5 POP POP POP POP POP JUMP JUMPDEST PUSH0 PUSH1 0x60 DUP3 ADD SWAP1 POP DUP2 DUP2 SUB PUSH0 DUP4 ADD MSTORE PUSH2 0x2180 DUP2 DUP7 PUSH2 0x1D88 JUMP JUMPDEST SWAP1 POP DUP2 DUP2 SUB PUSH1 0x20 DUP4 ADD MSTORE PUSH2 0x2194 DUP2 DUP6 PUSH2 0x1D88 JUMP JUMPDEST SWAP1 POP DUP2 DUP2 SUB PUSH1 0x40 DUP4 ADD MSTORE PUSH2 0x21A8 DUP2 DUP5 PUSH2 0x17E0 JUMP JUMPDEST SWAP1 POP SWAP5 SWAP4 POP POP POP POP JUMP JUMPDEST PUSH32 0x496E76616C6964207369676E6174757265206C656E6774680000000000000000 PUSH0 DUP3 ADD MSTORE POP JUMP JUMPDEST PUSH0 PUSH2 0x21E6 PUSH1 0x18 DUP4 PUSH2 0x1D78 JUMP JUMPDEST SWAP2 POP PUSH2 0x21F1 DUP3 PUSH2 0x21B2 JUMP JUMPDEST PUSH1 0x20 DUP3 ADD SWAP1 POP SWAP2 SWAP1 POP JUMP JUMPDEST PUSH0 PUSH1 0x20 DUP3 ADD SWAP1 POP DUP2 DUP2 SUB PUSH0 DUP4 ADD MSTORE PUSH2 0x2213 DUP2 PUSH2 0x21DA JUMP JUMPDEST SWAP1 POP SWAP2 SWAP1 POP JUMP JUMPDEST PUSH0 PUSH1 0xFF DUP3 AND SWAP1 POP SWAP2 SWAP1 POP JUMP JUMPDEST PUSH2 0x222F DUP2 PUSH2 0x221A JUMP JUMPDEST DUP3 MSTORE POP POP JUMP JUMPDEST PUSH0 PUSH1 0x80 DUP3 ADD SWAP1 POP PUSH2 0x2248 PUSH0 DUP4 ADD DUP8 PUSH2 0x1ED2 JUMP JUMPDEST PUSH2 0x2255 PUSH1 0x20 DUP4 ADD DUP7 PUSH2 0x2226 JUMP JUMPDEST PUSH2 0x2262 PUSH1 0x40 DUP4 ADD DUP6 PUSH2 0x1ED2 JUMP JUMPDEST PUSH2 0x226F PUSH1 0x60 DUP4 ADD DUP5 PUSH2 0x1ED2 JUMP JUMPDEST SWAP6 SWAP5 POP POP POP POP POP JUMP JUMPDEST PUSH32 0x4E487B7100000000000000000000000000000000000000000000000000000000 PUSH0 MSTORE PUSH1 0x11 PUSH1 0x4 MSTORE PUSH1 0x24 PUSH0 REVERT JUMPDEST PUSH0 PUSH2 0x22AF DUP3 PUSH2 0x221A JUMP JUMPDEST SWAP2 POP PUSH1 0xFF DUP3 SUB PUSH2 0x22C2 JUMPI PUSH2 0x22C1 PUSH2 0x2278 JUMP JUMPDEST JUMPDEST PUSH1 0x1 DUP3 ADD SWAP1 POP SWAP2 SWAP1 POP JUMP JUMPDEST PUSH0 PUSH2 0x22D7 DUP3 PUSH2 0x221A JUMP JUMPDEST SWAP2 POP PUSH0 DUP3 SUB PUSH2 0x22E9 JUMPI PUSH2 0x22E8 PUSH2 0x2278 JUMP JUMPDEST JUMPDEST PUSH1 0x1 DUP3 SUB SWAP1 POP SWAP2 SWAP1 POP JUMP JUMPDEST PUSH0 PUSH2 0x22FE DUP3 PUSH2 0x221A JUMP JUMPDEST SWAP2 POP PUSH2 0x2309 DUP4 PUSH2 0x221A JUMP JUMPDEST SWAP3 POP DUP3 DUP3 SUB SWAP1 POP PUSH1 0xFF DUP2 GT ISZERO PUSH2 0x2322 JUMPI PUSH2 0x2321 PUSH2 0x2278 JUMP JUMPDEST JUMPDEST SWAP3 SWAP2 POP POP JUMP JUMPDEST PUSH0 PUSH2 0x2332 DUP3 PUSH2 0x221A JUMP JUMPDEST SWAP2 POP PUSH2 0x233D DUP4 PUSH2 0x221A JUMP JUMPDEST SWAP3 POP DUP3 DUP3 ADD SWAP1 POP PUSH1 0xFF DUP2 GT ISZERO PUSH2 0x2356 JUMPI PUSH2 0x2355 PUSH2 0x2278 JUMP JUMPDEST JUMPDEST SWAP3 SWAP2 POP POP JUMP JUMPDEST PUSH0 PUSH2 0x2366 DUP3 PUSH2 0x174A JUMP JUMPDEST SWAP2 POP PUSH2 0x2371 DUP4 PUSH2 0x174A JUMP JUMPDEST SWAP3 POP DUP3 DUP3 ADD SWAP1 POP DUP1 DUP3 GT ISZERO PUSH2 0x2389 JUMPI PUSH2 0x2388 PUSH2 0x2278 JUMP JUMPDEST JUMPDEST SWAP3 SWAP2 POP POP JUMP JUMPDEST PUSH0 DUP2 SWAP1 POP SWAP3 SWAP2 POP POP JUMP JUMPDEST PUSH32 0x19457468657265756D205369676E6564204D6573736167653A0A333200000000 PUSH0 DUP3 ADD MSTORE POP JUMP JUMPDEST PUSH0 PUSH2 0x23CD PUSH1 0x1C DUP4 PUSH2 0x238F JUMP JUMPDEST SWAP2 POP PUSH2 0x23D8 DUP3 PUSH2 0x2399 JUMP JUMPDEST PUSH1 0x1C DUP3 ADD SWAP1 POP SWAP2 SWAP1 POP JUMP JUMPDEST PUSH0 DUP2 SWAP1 POP SWAP2 SWAP1 POP JUMP JUMPDEST PUSH2 0x23FD PUSH2 0x23F8 DUP3 PUSH2 0x1B14 JUMP JUMPDEST PUSH2 0x23E3 JUMP JUMPDEST DUP3 MSTORE POP POP JUMP JUMPDEST PUSH0 PUSH2 0x240D DUP3 PUSH2 0x23C1 JUMP JUMPDEST SWAP2 POP PUSH2 0x2419 DUP3 DUP5 PUSH2 0x23EC JUMP JUMPDEST PUSH1 0x20 DUP3 ADD SWAP2 POP DUP2 SWAP1 POP SWAP3 SWAP2 POP POP JUMP JUMPDEST PUSH0 PUSH2 0x2433 DUP3 DUP11 PUSH2 0x1F03 JUMP JUMPDEST PUSH1 0x20 DUP3 ADD SWAP2 POP PUSH2 0x2443 DUP3 DUP10 PUSH2 0x1F03 JUMP JUMPDEST PUSH1 0x20 DUP3 ADD SWAP2 POP PUSH2 0x2453 DUP3 DUP9 PUSH2 0x1F03 JUMP JUMPDEST PUSH1 0x20 DUP3 ADD SWAP2 POP PUSH2 0x2463 DUP3 DUP8 PUSH2 0x1F03 JUMP JUMPDEST PUSH1 0x20 DUP3 ADD SWAP2 POP PUSH2 0x2473 DUP3 DUP7 PUSH2 0x1F03 JUMP JUMPDEST PUSH1 0x20 DUP3 ADD SWAP2 POP PUSH2 0x2483 DUP3 DUP6 PUSH2 0x1F03 JUMP JUMPDEST PUSH1 0x20 DUP3 ADD SWAP2 POP PUSH2 0x2493 DUP3 DUP5 PUSH2 0x1F03 JUMP JUMPDEST PUSH1 0x20 DUP3 ADD SWAP2 POP DUP2 SWAP1 POP SWAP9 SWAP8 POP POP POP POP POP POP POP POP JUMP JUMPDEST PUSH0 PUSH8 0xFFFFFFFFFFFFFFFF DUP3 GT ISZERO PUSH2 0x24C2 JUMPI PUSH2 0x24C1 PUSH2 0x1B4B JUMP JUMPDEST JUMPDEST PUSH1 0x20 DUP3 MUL SWAP1 POP PUSH1 0x20 DUP2 ADD SWAP1 POP SWAP2 SWAP1 POP JUMP JUMPDEST PUSH0 DUP2 MLOAD SWAP1 POP PUSH2 0x24E1 DUP2 PUSH2 0x1E19 JUMP JUMPDEST SWAP3 SWAP2 POP POP JUMP JUMPDEST PUSH0 PUSH2 0x24F9 PUSH2 0x24F4 DUP5 PUSH2 0x24A8 JUMP JUMPDEST PUSH2 0x1BA9 JUMP JUMPDEST SWAP1 POP DUP1 DUP4 DUP3 MSTORE PUSH1 0x20 DUP3 ADD SWAP1 POP PUSH1 0x20 DUP5 MUL DUP4 ADD DUP6 DUP2 GT ISZERO PUSH2 0x251C JUMPI PUSH2 0x251B PUSH2 0x1838 JUMP JUMPDEST JUMPDEST DUP4 JUMPDEST DUP2 DUP2 LT ISZERO PUSH2 0x2545 JUMPI DUP1 PUSH2 0x2531 DUP9 DUP3 PUSH2 0x24D3 JUMP JUMPDEST DUP5 MSTORE PUSH1 0x20 DUP5 ADD SWAP4 POP POP PUSH1 0x20 DUP2 ADD SWAP1 POP PUSH2 0x251E JUMP JUMPDEST POP POP POP SWAP4 SWAP3 POP POP POP JUMP JUMPDEST PUSH0 DUP3 PUSH1 0x1F DUP4 ADD SLT PUSH2 0x2563 JUMPI PUSH2 0x2562 PUSH2 0x187E JUMP JUMPDEST JUMPDEST DUP2 MLOAD PUSH2 0x2573 DUP5 DUP3 PUSH1 0x20 DUP7 ADD PUSH2 0x24E7 JUMP JUMPDEST SWAP2 POP POP SWAP3 SWAP2 POP POP JUMP JUMPDEST PUSH0 PUSH1 0x20 DUP3 DUP5 SUB SLT ISZERO PUSH2 0x2591 JUMPI PUSH2 0x2590 PUSH2 0x1742 JUMP JUMPDEST JUMPDEST PUSH0 DUP3 ADD MLOAD PUSH8 0xFFFFFFFFFFFFFFFF DUP2 GT ISZERO PUSH2 0x25AE JUMPI PUSH2 0x25AD PUSH2 0x1746 JUMP JUMPDEST JUMPDEST PUSH2 0x25BA DUP5 DUP3 DUP6 ADD PUSH2 0x254F JUMP JUMPDEST SWAP2 POP POP SWAP3 SWAP2 POP POP JUMP JUMPDEST PUSH0 PUSH2 0x25CD DUP3 PUSH2 0x174A JUMP JUMPDEST SWAP2 POP PUSH2 0x25D8 DUP4 PUSH2 0x174A JUMP JUMPDEST SWAP3 POP DUP3 DUP3 MUL PUSH2 0x25E6 DUP2 PUSH2 0x174A JUMP JUMPDEST SWAP2 POP DUP3 DUP3 DIV DUP5 EQ DUP4 ISZERO OR PUSH2 0x25FD JUMPI PUSH2 0x25FC PUSH2 0x2278 JUMP JUMPDEST JUMPDEST POP SWAP3 SWAP2 POP POP JUMP JUMPDEST PUSH0 PUSH0 REVERT JUMPDEST PUSH0 PUSH0 REVERT JUMPDEST PUSH0 PUSH0 DUP6 DUP6 GT ISZERO PUSH2 0x261F JUMPI PUSH2 0x261E PUSH2 0x2604 JUMP JUMPDEST JUMPDEST DUP4 DUP7 GT ISZERO PUSH2 0x2630 JUMPI PUSH2 0x262F PUSH2 0x2608 JUMP JUMPDEST JUMPDEST PUSH1 0x1 DUP6 MUL DUP4 ADD SWAP2 POP DUP5 DUP7 SUB SWAP1 POP SWAP5 POP SWAP5 SWAP3 POP POP POP JUMP JUMPDEST PUSH32 0x496E76616C6964207369676E6174757265000000000000000000000000000000 PUSH0 DUP3 ADD MSTORE POP JUMP JUMPDEST PUSH0 PUSH2 0x267A PUSH1 0x11 DUP4 PUSH2 0x1D78 JUMP JUMPDEST SWAP2 POP PUSH2 0x2685 DUP3 PUSH2 0x2646 JUMP JUMPDEST PUSH1 0x20 DUP3 ADD SWAP1 POP SWAP2 SWAP1 POP JUMP JUMPDEST PUSH0 PUSH1 0x20 DUP3 ADD SWAP1 POP DUP2 DUP2 SUB PUSH0 DUP4 ADD MSTORE PUSH2 0x26A7 DUP2 PUSH2 0x266E JUMP JUMPDEST SWAP1 POP SWAP2 SWAP1 POP JUMP JUMPDEST PUSH32 0x5369676E6572206E6F7420616E206163746976652076616C696461746F720000 PUSH0 DUP3 ADD MSTORE POP JUMP JUMPDEST PUSH0 PUSH2 0x26E2 PUSH1 0x1E DUP4 PUSH2 0x1D78 JUMP JUMPDEST SWAP2 POP PUSH2 0x26ED DUP3 PUSH2 0x26AE JUMP JUMPDEST PUSH1 0x20 DUP3 ADD SWAP1 POP SWAP2 SWAP1 POP JUMP JUMPDEST PUSH0 PUSH1 0x20 DUP3 ADD SWAP1 POP DUP2 DUP2 SUB PUSH0 DUP4 ADD MSTORE PUSH2 0x270F DUP2 PUSH2 0x26D6 JUMP JUMPDEST SWAP1 POP SWAP2 SWAP1 POP JUMP JUMPDEST PUSH0 PUSH2 0x2720 DUP3 PUSH2 0x1D6E JUMP JUMPDEST PUSH2 0x272A DUP2 DUP6 PUSH2 0x238F JUMP JUMPDEST SWAP4 POP PUSH2 0x273A DUP2 DUP6 PUSH1 0x20 DUP7 ADD PUSH2 0x17C2 JUMP JUMPDEST DUP1 DUP5 ADD SWAP2 POP POP SWAP3 SWAP2 POP POP JUMP JUMPDEST PUSH32 0x5F7661756C740000000000000000000000000000000000000000000000000000 PUSH0 DUP3 ADD MSTORE POP JUMP JUMPDEST PUSH0 PUSH2 0x277A PUSH1 0x6 DUP4 PUSH2 0x238F JUMP JUMPDEST SWAP2 POP PUSH2 0x2785 DUP3 PUSH2 0x2746 JUMP JUMPDEST PUSH1 0x6 DUP3 ADD SWAP1 POP SWAP2 SWAP1 POP JUMP JUMPDEST PUSH0 PUSH2 0x279B DUP3 DUP5 PUSH2 0x2716 JUMP JUMPDEST SWAP2 POP PUSH2 0x27A6 DUP3 PUSH2 0x276E JUMP JUMPDEST SWAP2 POP DUP2 SWAP1 POP SWAP3 SWAP2 POP POP JUMP JUMPDEST PUSH32 0x5169617261426173654173736574730000000000000000000000000000000000 PUSH0 DUP3 ADD MSTORE POP JUMP JUMPDEST PUSH0 PUSH2 0x27E5 PUSH1 0xF DUP4 PUSH2 0x1D78 JUMP JUMPDEST SWAP2 POP PUSH2 0x27F0 DUP3 PUSH2 0x27B1 JUMP JUMPDEST PUSH1 0x20 DUP3 ADD SWAP1 POP SWAP2 SWAP1 POP JUMP JUMPDEST PUSH0 PUSH1 0x40 DUP3 ADD SWAP1 POP DUP2 DUP2 SUB PUSH0 DUP4 ADD MSTORE PUSH2 0x2812 DUP2 PUSH2 0x27D9 JUMP JUMPDEST SWAP1 POP DUP2 DUP2 SUB PUSH1 0x20 DUP4 ADD MSTORE PUSH2 0x2826 DUP2 DUP5 PUSH2 0x1D88 JUMP JUMPDEST SWAP1 POP SWAP3 SWAP2 POP POP JUMP JUMPDEST PUSH0 PUSH2 0x2840 PUSH2 0x283B DUP5 PUSH2 0x1BC3 JUMP JUMPDEST PUSH2 0x1BA9 JUMP JUMPDEST SWAP1 POP DUP3 DUP2 MSTORE PUSH1 0x20 DUP2 ADD DUP5 DUP5 DUP5 ADD GT ISZERO PUSH2 0x285C JUMPI PUSH2 0x285B PUSH2 0x1B47 JUMP JUMPDEST JUMPDEST PUSH2 0x2867 DUP5 DUP3 DUP6 PUSH2 0x17C2 JUMP JUMPDEST POP SWAP4 SWAP3 POP POP POP JUMP JUMPDEST PUSH0 DUP3 PUSH1 0x1F DUP4 ADD SLT PUSH2 0x2883 JUMPI PUSH2 0x2882 PUSH2 0x187E JUMP JUMPDEST JUMPDEST DUP2 MLOAD PUSH2 0x2893 DUP5 DUP3 PUSH1 0x20 DUP7 ADD PUSH2 0x282E JUMP JUMPDEST SWAP2 POP POP SWAP3 SWAP2 POP POP JUMP JUMPDEST PUSH0 PUSH1 0x20 DUP3 DUP5 SUB SLT ISZERO PUSH2 0x28B1 JUMPI PUSH2 0x28B0 PUSH2 0x1742 JUMP JUMPDEST JUMPDEST PUSH0 DUP3 ADD MLOAD PUSH8 0xFFFFFFFFFFFFFFFF DUP2 GT ISZERO PUSH2 0x28CE JUMPI PUSH2 0x28CD PUSH2 0x1746 JUMP JUMPDEST JUMPDEST PUSH2 0x28DA DUP5 DUP3 DUP6 ADD PUSH2 0x286F JUMP JUMPDEST SWAP2 POP POP SWAP3 SWAP2 POP POP JUMP JUMPDEST PUSH32 0x5661756C74206E6F7420617574686F72697A6564000000000000000000000000 PUSH0 DUP3 ADD MSTORE POP JUMP JUMPDEST PUSH0 PUSH2 0x2917 PUSH1 0x14 DUP4 PUSH2 0x1D78 JUMP JUMPDEST SWAP2 POP PUSH2 0x2922 DUP3 PUSH2 0x28E3 JUMP JUMPDEST PUSH1 0x20 DUP3 ADD SWAP1 POP SWAP2 SWAP1 POP JUMP JUMPDEST PUSH0 PUSH1 0x20 DUP3 ADD SWAP1 POP DUP2 DUP2 SUB PUSH0 DUP4 ADD MSTORE PUSH2 0x2944 DUP2 PUSH2 0x290B JUMP JUMPDEST SWAP1 POP SWAP2 SWAP1 POP JUMP JUMPDEST PUSH0 DUP2 SWAP1 POP PUSH1 0x20 DUP3 ADD SWAP1 POP SWAP2 SWAP1 POP JUMP JUMPDEST PUSH0 PUSH32 0xFFFFFFFFFFFFFFFFFFFFFFFFFFFFFFFFFFFFFFFF000000000000000000000000 DUP3 AND SWAP1 POP SWAP2 SWAP1 POP JUMP JUMPDEST PUSH0 PUSH2 0x2990 DUP3 MLOAD PUSH2 0x295A JUMP JUMPDEST DUP1 SWAP2 POP POP SWAP2 SWAP1 POP JUMP JUMPDEST PUSH0 DUP3 DUP3 SHL SWAP1 POP SWAP3 SWAP2 POP POP JUMP JUMPDEST PUSH0 PUSH2 0x29AF DUP3 PUSH2 0x17A8 JUMP JUMPDEST DUP3 PUSH2 0x29B9 DUP5 PUSH2 0x294B JUMP JUMPDEST SWAP1 POP PUSH2 0x29C4 DUP2 PUSH2 0x2985 JUMP JUMPDEST SWAP3 POP PUSH1 0x14 DUP3 LT ISZERO PUSH2 0x2A04 JUMPI PUSH2 0x29FF PUSH32 0xFFFFFFFFFFFFFFFFFFFFFFFFFFFFFFFFFFFFFFFF000000000000000000000000 DUP4 PUSH1 0x14 SUB PUSH1 0x8 MUL PUSH2 0x2999 JUMP JUMPDEST DUP4 AND SWAP3 POP JUMPDEST POP POP SWAP2 SWAP1 POP JUMP JUMPDEST PUSH0 PUSH2 0x2A16 DUP3 DUP10 PUSH2 0x1F03 JUMP JUMPDEST PUSH1 0x20 DUP3 ADD SWAP2 POP PUSH2 0x2A26 DUP3 DUP9 PUSH2 0x1F03 JUMP JUMPDEST PUSH1 0x20 DUP3 ADD SWAP2 POP PUSH2 0x2A36 DUP3 DUP8 PUSH2 0x1F03 JUMP JUMPDEST PUSH1 0x20 DUP3 ADD SWAP2 POP PUSH2 0x2A46 DUP3 DUP7 PUSH2 0x1F03 JUMP JUMPDEST PUSH1 0x20 DUP3 ADD SWAP2 POP PUSH2 0x2A56 DUP3 DUP6 PUSH2 0x1F03 JUMP JUMPDEST PUSH1 0x20 DUP3 ADD SWAP2 POP PUSH2 0x2A66 DUP3 DUP5 PUSH2 0x1F03 JUMP JUMPDEST PUSH1 0x20 DUP3 ADD SWAP2 POP DUP2 SWAP1 POP SWAP8 SWAP7 POP POP POP POP POP POP POP JUMP INVALID LOG2 PUSH5 0x6970667358 0x22 SLT KECCAK256 CODESIZE ADDRESS POP PUSH2 0x359A 0xE8 0xE9 0xB4 0xC9 KECCAK256 XOR 0xCF 0xD0 LOG2 SWAPN 0xBF 0xF DUP16 RETURNDATASIZE 0xAF MOD PC 0xA8 DATALOADN 0x4E37 0x2E DATALOADN 0x75D3 0xE PUSH5 0x736F6C6343 STOP ADDMOD 0x1F STOP CALLER "
				},
				"gasEstimates": {
					"creation": {
						"codeDepositCost": "2185600",
						"executionCost": "infinite",
						"totalCost": "infinite"
					},
					"external": {
						"balance_verifier()": "infinite",
						"deriveAddressFromSplitPubKey(uint256,uint256,uint256,uint256)": "infinite",
						"fieldToAddress(uint256)": "730",
						"fieldToBytes(uint256)": "infinite",
						"fieldToString(uint256)": "infinite",
						"getEthSignedMessageHash(bytes32)": "infinite",
						"owner()": "2625",
						"processZkValidator(uint256[8],uint256[7],bytes)": "infinite",
						"processZkVariable(uint256[8],uint256[7],bytes)": "infinite",
						"processZkWithdraw(uint256[8],uint256[6],bytes)": "infinite",
						"recoverSigner(bytes32,bytes)": "infinite",
						"renounceOwnership()": "infinite",
						"transferOwnership(address)": "infinite",
						"usedNullifiers(uint256)": "2830",
						"validator_verifier()": "infinite",
						"validatorsRegistry()": "infinite",
						"variable_verifier()": "infinite",
						"variablesRegistry()": "infinite"
					},
					"internal": {
						"_calculateNullifier7(uint256[7] calldata)": "infinite",
						"_calculateNullifier8(uint256[6] calldata)": "infinite",
						"_prepareWithdrawal(uint256[6] calldata)": "infinite",
						"_verifyAllSignatures(bytes32,bytes calldata)": "infinite"
					}
				},
				"methodIdentifiers": {
					"balance_verifier()": "f90c0f40",
					"deriveAddressFromSplitPubKey(uint256,uint256,uint256,uint256)": "41e532ca",
					"fieldToAddress(uint256)": "7a988c54",
					"fieldToBytes(uint256)": "19b8c941",
					"fieldToString(uint256)": "b648f220",
					"getEthSignedMessageHash(bytes32)": "fa540801",
					"owner()": "8da5cb5b",
					"processZkValidator(uint256[8],uint256[7],bytes)": "34e1d6a6",
					"processZkVariable(uint256[8],uint256[7],bytes)": "76fbe04f",
					"processZkWithdraw(uint256[8],uint256[6],bytes)": "392c8731",
					"recoverSigner(bytes32,bytes)": "97aba7f9",
					"renounceOwnership()": "715018a6",
					"transferOwnership(address)": "f2fde38b",
					"usedNullifiers(uint256)": "aad24061",
					"validator_verifier()": "b3d63003",
					"validatorsRegistry()": "aed881d8",
					"variable_verifier()": "4eb30d41",
					"variablesRegistry()": "bf4d766e"
				}
			},
			"storageLayout": {
				"storage": [
					{
						"astId": 8,
						"contract": "Evm/core/base/vaultDelegator.sol:QiaraZKDelegator",
						"label": "_owner",
						"offset": 0,
						"slot": "0",
						"type": "t_address"
					},
					{
						"astId": 282,
						"contract": "Evm/core/base/vaultDelegator.sol:QiaraZKDelegator",
						"label": "usedNullifiers",
						"offset": 0,
						"slot": "1",
						"type": "t_mapping(t_uint256,t_bool)"
					}
				],
				"types": {
					"t_address": {
						"encoding": "inplace",
						"label": "address",
						"numberOfBytes": "20"
					},
					"t_bool": {
						"encoding": "inplace",
						"label": "bool",
						"numberOfBytes": "1"
					},
					"t_mapping(t_uint256,t_bool)": {
						"encoding": "mapping",
						"key": "t_uint256",
						"label": "mapping(uint256 => bool)",
						"numberOfBytes": "32",
						"value": "t_bool"
					},
					"t_uint256": {
						"encoding": "inplace",
						"label": "uint256",
						"numberOfBytes": "32"
					}
				}
			},
			"userdoc": {
				"kind": "user",
				"methods": {},
				"version": 1
			}
		}
	}
}