{
	"Evm/core/base/vault.sol": {
		"QiaraMultiAssetVault": {
			"abi": [
				{
					"inputs": [
						{
							"internalType": "address",
							"name": "_events",
							"type": "address"
						},
						{
							"internalType": "address",
							"name": "_variablesRegistry",
							"type": "address"
						},
						{
							"internalType": "address",
							"name": "delegator",
							"type": "address"
						},
						{
							"internalType": "string",
							"name": "_providerName",
							"type": "string"
						}
					],
					"stateMutability": "nonpayable",
					"type": "constructor"
				},
				{
					"inputs": [
						{
							"internalType": "address",
							"name": "owner",
							"type": "address"
						}
					],
					"name": "OwnableInvalidOwner",
					"type": "error"
				},
				{
					"inputs": [
						{
							"internalType": "address",
							"name": "account",
							"type": "address"
						}
					],
					"name": "OwnableUnauthorizedAccount",
					"type": "error"
				},
				{
					"inputs": [
						{
							"internalType": "address",
							"name": "token",
							"type": "address"
						}
					],
					"name": "SafeERC20FailedOperation",
					"type": "error"
				},
				{
					"anonymous": false,
					"inputs": [
						{
							"indexed": true,
							"internalType": "address",
							"name": "user",
							"type": "address"
						},
						{
							"indexed": true,
							"internalType": "address",
							"name": "token",
							"type": "address"
						},
						{
							"indexed": false,
							"internalType": "uint256",
							"name": "amount",
							"type": "uint256"
						},
						{
							"indexed": false,
							"internalType": "string",
							"name": "provider",
							"type": "string"
						}
					],
					"name": "Deposit",
					"type": "event"
				},
				{
					"anonymous": false,
					"inputs": [
						{
							"indexed": true,
							"internalType": "address",
							"name": "previousOwner",
							"type": "address"
						},
						{
							"indexed": true,
							"internalType": "address",
							"name": "newOwner",
							"type": "address"
						}
					],
					"name": "OwnershipTransferred",
					"type": "event"
				},
				{
					"anonymous": false,
					"inputs": [
						{
							"indexed": true,
							"internalType": "address",
							"name": "token",
							"type": "address"
						},
						{
							"indexed": false,
							"internalType": "string",
							"name": "provider",
							"type": "string"
						}
					],
					"name": "TokenListed",
					"type": "event"
				},
				{
					"inputs": [
						{
							"internalType": "address",
							"name": "",
							"type": "address"
						},
						{
							"internalType": "address",
							"name": "",
							"type": "address"
						}
					],
					"name": "claimableBalances",
					"outputs": [
						{
							"internalType": "uint256",
							"name": "",
							"type": "uint256"
						}
					],
					"stateMutability": "view",
					"type": "function"
				},
				{
					"inputs": [
						{
							"internalType": "string",
							"name": "assetName",
							"type": "string"
						},
						{
							"internalType": "uint256",
							"name": "amount",
							"type": "uint256"
						}
					],
					"name": "deposit",
					"outputs": [],
					"stateMutability": "nonpayable",
					"type": "function"
				},
				{
					"inputs": [],
					"name": "events",
					"outputs": [
						{
							"internalType": "contract IEvents",
							"name": "",
							"type": "address"
						}
					],
					"stateMutability": "view",
					"type": "function"
				},
				{
					"inputs": [
						{
							"internalType": "address",
							"name": "user",
							"type": "address"
						},
						{
							"internalType": "string",
							"name": "assetName",
							"type": "string"
						},
						{
							"internalType": "uint256",
							"name": "amount",
							"type": "uint256"
						},
						{
							"internalType": "uint256",
							"name": "nullifier",
							"type": "uint256"
						}
					],
					"name": "grantWithdrawalPermission",
					"outputs": [],
					"stateMutability": "nonpayable",
					"type": "function"
				},
				{
					"inputs": [
						{
							"internalType": "address",
							"name": "",
							"type": "address"
						}
					],
					"name": "isSupportedToken",
					"outputs": [
						{
							"internalType": "bool",
							"name": "",
							"type": "bool"
						}
					],
					"stateMutability": "view",
					"type": "function"
				},
				{
					"inputs": [
						{
							"internalType": "string",
							"name": "assetName",
							"type": "string"
						}
					],
					"name": "listNewToken",
					"outputs": [],
					"stateMutability": "nonpayable",
					"type": "function"
				},
				{
					"inputs": [],
					"name": "owner",
					"outputs": [
						{
							"internalType": "address",
							"name": "",
							"type": "address"
						}
					],
					"stateMutability": "view",
					"type": "function"
				},
				{
					"inputs": [],
					"name": "providerName",
					"outputs": [
						{
							"internalType": "string",
							"name": "",
							"type": "string"
						}
					],
					"stateMutability": "view",
					"type": "function"
				},
				{
					"inputs": [],
					"name": "renounceOwnership",
					"outputs": [],
					"stateMutability": "nonpayable",
					"type": "function"
				},
				{
					"inputs": [
						{
							"internalType": "string",
							"name": "assetName",
							"type": "string"
						}
					],
					"name": "resolveAsset",
					"outputs": [
						{
							"internalType": "address",
							"name": "",
							"type": "address"
						}
					],
					"stateMutability": "view",
					"type": "function"
				},
				{
					"inputs": [
						{
							"internalType": "address",
							"name": "newOwner",
							"type": "address"
						}
					],
					"name": "transferOwnership",
					"outputs": [],
					"stateMutability": "nonpayable",
					"type": "function"
				},
				{
					"inputs": [],
					"name": "variablesRegistry",
					"outputs": [
						{
							"internalType": "contract IVariables",
							"name": "",
							"type": "address"
						}
					],
					"stateMutability": "view",
					"type": "function"
				},
				{
					"inputs": [
						{
							"internalType": "string",
							"name": "assetName",
							"type": "string"
						},
						{
							"internalType": "uint256",
							"name": "amount",
							"type": "uint256"
						},
						{
							"internalType": "address",
							"name": "receiver",
							"type": "address"
						}
					],
					"name": "withdraw",
					"outputs": [],
					"stateMutability": "nonpayable",
					"type": "function"
				}
			],
			"devdoc": {
				"errors": {
					"OwnableInvalidOwner(address)": [
						{
							"details": "The owner is not a valid owner account. (eg. `address(0)`)"
						}
					],
					"OwnableUnauthorizedAccount(address)": [
						{
							"details": "The caller account is not authorized to perform an operation."
						}
					],
					"SafeERC20FailedOperation(address)": [
						{
							"details": "An operation with an ERC-20 token failed."
						}
					]
				},
				"kind": "dev",
				"methods": {
					"owner()": {
						"details": "Returns the address of the current owner."
					},
					"renounceOwnership()": {
						"details": "Leaves the contract without owner. It will not be possible to call `onlyOwner` functions. Can only be called by the current owner. NOTE: Renouncing ownership will leave the contract without an owner, thereby disabling any functionality that is only available to the owner."
					},
					"resolveAsset(string)": {
						"details": "Internal helper to resolve \"USDC\" -> 0xA0b... using registry"
					},
					"transferOwnership(address)": {
						"details": "Transfers ownership of the contract to a new account (`newOwner`). Can only be called by the current owner."
					}
				},
				"version": 1
			},
			"evm": {
				"assembly": "    /* \"Evm/core/base/vault.sol\":555:5177  contract QiaraMultiAssetVault is Ownable {... */\n  mstore(0x40, 0xc0)\n    /* \"Evm/core/base/vault.sol\":1064:1377  constructor(... */\n  callvalue\n  dup1\n  iszero\n  tag_1\n  jumpi\n  revert(0x00, 0x00)\ntag_1:\n  pop\n  mload(0x40)\n  sub(codesize, bytecodeSize)\n  dup1\n  bytecodeSize\n  dup4\n  codecopy\n  dup2\n  dup2\n  add\n  0x40\n  mstore\n  dup2\n  add\n  swap1\n  tag_2\n  swap2\n  swap1\n  tag_3\n  jump\t// in\ntag_2:\n    /* \"Evm/core/base/vault.sol\":1222:1231  delegator */\n  dup2\n    /* \"@openzeppelin/contracts/access/Ownable.sol\":1297:1298  0 */\n  0x00\n    /* \"@openzeppelin/contracts/access/Ownable.sol\":1273:1299  initialOwner == address(0) */\n  0xffffffffffffffffffffffffffffffffffffffff\n  and\n    /* \"@openzeppelin/contracts/access/Ownable.sol\":1273:1285  initialOwner */\n  dup2\n    /* \"@openzeppelin/contracts/access/Ownable.sol\":1273:1299  initialOwner == address(0) */\n  0xffffffffffffffffffffffffffffffffffffffff\n  and\n  sub\n    /* \"@openzeppelin/contracts/access/Ownable.sol\":1269:1364  if (initialOwner == address(0)) {... */\n  tag_7\n  jumpi\n    /* \"@openzeppelin/contracts/access/Ownable.sol\":1350:1351  0 */\n  0x00\n    /* \"@openzeppelin/contracts/access/Ownable.sol\":1322:1353  OwnableInvalidOwner(address(0)) */\n  mload(0x40)\n  0x1e4fbdf700000000000000000000000000000000000000000000000000000000\n  dup2\n  mstore\n  0x04\n  add\n  tag_8\n  swap2\n  swap1\n  tag_9\n  jump\t// in\ntag_8:\n  mload(0x40)\n  dup1\n  swap2\n  sub\n  swap1\n  revert\n    /* \"@openzeppelin/contracts/access/Ownable.sol\":1269:1364  if (initialOwner == address(0)) {... */\ntag_7:\n    /* \"@openzeppelin/contracts/access/Ownable.sol\":1373:1405  _transferOwnership(initialOwner) */\n  tag_10\n    /* \"@openzeppelin/contracts/access/Ownable.sol\":1392:1404  initialOwner */\n  dup2\n    /* \"@openzeppelin/contracts/access/Ownable.sol\":1373:1391  _transferOwnership */\n  shl(0x20, tag_11)\n    /* \"@openzeppelin/contracts/access/Ownable.sol\":1373:1405  _transferOwnership(initialOwner) */\n  0x20\n  shr\n  jump\t// in\ntag_10:\n    /* \"@openzeppelin/contracts/access/Ownable.sol\":1225:1412  constructor(address initialOwner) {... */\n  pop\n    /* \"Evm/core/base/vault.sol\":1261:1268  _events */\n  dup4\n    /* \"Evm/core/base/vault.sol\":1244:1269  events = IEvents(_events) */\n  0xffffffffffffffffffffffffffffffffffffffff\n  and\n  0xa0\n  dup2\n  0xffffffffffffffffffffffffffffffffffffffff\n  and\n  dup2\n  mstore\n  pop\n  pop\n    /* \"Evm/core/base/vault.sol\":1311:1329  _variablesRegistry */\n  dup3\n    /* \"Evm/core/base/vault.sol\":1280:1330  variablesRegistry = IVariables(_variablesRegistry) */\n  0xffffffffffffffffffffffffffffffffffffffff\n  and\n  0x80\n  dup2\n  0xffffffffffffffffffffffffffffffffffffffff\n  and\n  dup2\n  mstore\n  pop\n  pop\n    /* \"Evm/core/base/vault.sol\":1356:1369  _providerName */\n  dup1\n    /* \"Evm/core/base/vault.sol\":1341:1353  providerName */\n  0x01\n    /* \"Evm/core/base/vault.sol\":1341:1369  providerName = _providerName */\n  swap1\n  dup2\n  tag_13\n  swap2\n  swap1\n  tag_14\n  jump\t// in\ntag_13:\n  pop\n    /* \"Evm/core/base/vault.sol\":1064:1377  constructor(... */\n  pop\n  pop\n  pop\n  pop\n    /* \"Evm/core/base/vault.sol\":555:5177  contract QiaraMultiAssetVault is Ownable {... */\n  jump(tag_15)\n    /* \"@openzeppelin/contracts/access/Ownable.sol\":2912:3099  function _transferOwnership(address newOwner) internal virtual {... */\ntag_11:\n    /* \"@openzeppelin/contracts/access/Ownable.sol\":2985:3001  address oldOwner */\n  0x00\n    /* \"@openzeppelin/contracts/access/Ownable.sol\":3004:3010  _owner */\n  0x00\n  0x00\n  swap1\n  sload\n  swap1\n  0x0100\n  exp\n  swap1\n  div\n  0xffffffffffffffffffffffffffffffffffffffff\n  and\n    /* \"@openzeppelin/contracts/access/Ownable.sol\":2985:3010  address oldOwner = _owner */\n  swap1\n  pop\n    /* \"@openzeppelin/contracts/access/Ownable.sol\":3029:3037  newOwner */\n  dup2\n    /* \"@openzeppelin/contracts/access/Ownable.sol\":3020:3026  _owner */\n  0x00\n  0x00\n    /* \"@openzeppelin/contracts/access/Ownable.sol\":3020:3037  _owner = newOwner */\n  0x0100\n  exp\n  dup2\n  sload\n  dup2\n  0xffffffffffffffffffffffffffffffffffffffff\n  mul\n  not\n  and\n  swap1\n  dup4\n  0xffffffffffffffffffffffffffffffffffffffff\n  and\n  mul\n  or\n  swap1\n  sstore\n  pop\n    /* \"@openzeppelin/contracts/access/Ownable.sol\":3083:3091  newOwner */\n  dup2\n    /* \"@openzeppelin/contracts/access/Ownable.sol\":3052:3092  OwnershipTransferred(oldOwner, newOwner) */\n  0xffffffffffffffffffffffffffffffffffffffff\n  and\n    /* \"@openzeppelin/contracts/access/Ownable.sol\":3073:3081  oldOwner */\n  dup2\n    /* \"@openzeppelin/contracts/access/Ownable.sol\":3052:3092  OwnershipTransferred(oldOwner, newOwner) */\n  0xffffffffffffffffffffffffffffffffffffffff\n  and\n  0x8be0079c531659141344cd1fd0a4f28419497f9722a3daafe3b4186f6b6457e0\n  mload(0x40)\n  mload(0x40)\n  dup1\n  swap2\n  sub\n  swap1\n  log3\n    /* \"@openzeppelin/contracts/access/Ownable.sol\":2975:3099  {... */\n  pop\n    /* \"@openzeppelin/contracts/access/Ownable.sol\":2912:3099  function _transferOwnership(address newOwner) internal virtual {... */\n  pop\n  jump\t// out\n    /* \"#utility.yul\":7:82   */\ntag_17:\n    /* \"#utility.yul\":40:46   */\n  0x00\n    /* \"#utility.yul\":73:75   */\n  0x40\n    /* \"#utility.yul\":67:76   */\n  mload\n    /* \"#utility.yul\":57:76   */\n  swap1\n  pop\n    /* \"#utility.yul\":7:82   */\n  swap1\n  jump\t// out\n    /* \"#utility.yul\":88:205   */\ntag_18:\n    /* \"#utility.yul\":197:198   */\n  0x00\n    /* \"#utility.yul\":194:195   */\n  0x00\n    /* \"#utility.yul\":187:199   */\n  revert\n    /* \"#utility.yul\":211:328   */\ntag_19:\n    /* \"#utility.yul\":320:321   */\n  0x00\n    /* \"#utility.yul\":317:318   */\n  0x00\n    /* \"#utility.yul\":310:322   */\n  revert\n    /* \"#utility.yul\":334:460   */\ntag_20:\n    /* \"#utility.yul\":371:378   */\n  0x00\n    /* \"#utility.yul\":411:453   */\n  0xffffffffffffffffffffffffffffffffffffffff\n    /* \"#utility.yul\":404:409   */\n  dup3\n    /* \"#utility.yul\":400:454   */\n  and\n    /* \"#utility.yul\":389:454   */\n  swap1\n  pop\n    /* \"#utility.yul\":334:460   */\n  swap2\n  swap1\n  pop\n  jump\t// out\n    /* \"#utility.yul\":466:562   */\ntag_21:\n    /* \"#utility.yul\":503:510   */\n  0x00\n    /* \"#utility.yul\":532:556   */\n  tag_60\n    /* \"#utility.yul\":550:555   */\n  dup3\n    /* \"#utility.yul\":532:556   */\n  tag_20\n  jump\t// in\ntag_60:\n    /* \"#utility.yul\":521:556   */\n  swap1\n  pop\n    /* \"#utility.yul\":466:562   */\n  swap2\n  swap1\n  pop\n  jump\t// out\n    /* \"#utility.yul\":568:690   */\ntag_22:\n    /* \"#utility.yul\":641:665   */\n  tag_62\n    /* \"#utility.yul\":659:664   */\n  dup2\n    /* \"#utility.yul\":641:665   */\n  tag_21\n  jump\t// in\ntag_62:\n    /* \"#utility.yul\":634:639   */\n  dup2\n    /* \"#utility.yul\":631:666   */\n  eq\n    /* \"#utility.yul\":621:684   */\n  tag_63\n  jumpi\n    /* \"#utility.yul\":680:681   */\n  0x00\n    /* \"#utility.yul\":677:678   */\n  0x00\n    /* \"#utility.yul\":670:682   */\n  revert\n    /* \"#utility.yul\":621:684   */\ntag_63:\n    /* \"#utility.yul\":568:690   */\n  pop\n  jump\t// out\n    /* \"#utility.yul\":696:839   */\ntag_23:\n    /* \"#utility.yul\":753:758   */\n  0x00\n    /* \"#utility.yul\":784:790   */\n  dup2\n    /* \"#utility.yul\":778:791   */\n  mload\n    /* \"#utility.yul\":769:791   */\n  swap1\n  pop\n    /* \"#utility.yul\":800:833   */\n  tag_65\n    /* \"#utility.yul\":827:832   */\n  dup2\n    /* \"#utility.yul\":800:833   */\n  tag_22\n  jump\t// in\ntag_65:\n    /* \"#utility.yul\":696:839   */\n  swap3\n  swap2\n  pop\n  pop\n  jump\t// out\n    /* \"#utility.yul\":845:962   */\ntag_24:\n    /* \"#utility.yul\":954:955   */\n  0x00\n    /* \"#utility.yul\":951:952   */\n  0x00\n    /* \"#utility.yul\":944:956   */\n  revert\n    /* \"#utility.yul\":968:1085   */\ntag_25:\n    /* \"#utility.yul\":1077:1078   */\n  0x00\n    /* \"#utility.yul\":1074:1075   */\n  0x00\n    /* \"#utility.yul\":1067:1079   */\n  revert\n    /* \"#utility.yul\":1091:1193   */\ntag_26:\n    /* \"#utility.yul\":1132:1138   */\n  0x00\n    /* \"#utility.yul\":1183:1185   */\n  0x1f\n    /* \"#utility.yul\":1179:1186   */\n  not\n    /* \"#utility.yul\":1174:1176   */\n  0x1f\n    /* \"#utility.yul\":1167:1172   */\n  dup4\n    /* \"#utility.yul\":1163:1177   */\n  add\n    /* \"#utility.yul\":1159:1187   */\n  and\n    /* \"#utility.yul\":1149:1187   */\n  swap1\n  pop\n    /* \"#utility.yul\":1091:1193   */\n  swap2\n  swap1\n  pop\n  jump\t// out\n    /* \"#utility.yul\":1199:1379   */\ntag_27:\n    /* \"#utility.yul\":1247:1324   */\n  0x4e487b7100000000000000000000000000000000000000000000000000000000\n    /* \"#utility.yul\":1244:1245   */\n  0x00\n    /* \"#utility.yul\":1237:1325   */\n  mstore\n    /* \"#utility.yul\":1344:1348   */\n  0x41\n    /* \"#utility.yul\":1341:1342   */\n  0x04\n    /* \"#utility.yul\":1334:1349   */\n  mstore\n    /* \"#utility.yul\":1368:1372   */\n  0x24\n    /* \"#utility.yul\":1365:1366   */\n  0x00\n    /* \"#utility.yul\":1358:1373   */\n  revert\n    /* \"#utility.yul\":1385:1666   */\ntag_28:\n    /* \"#utility.yul\":1468:1495   */\n  tag_71\n    /* \"#utility.yul\":1490:1494   */\n  dup3\n    /* \"#utility.yul\":1468:1495   */\n  tag_26\n  jump\t// in\ntag_71:\n    /* \"#utility.yul\":1460:1466   */\n  dup2\n    /* \"#utility.yul\":1456:1496   */\n  add\n    /* \"#utility.yul\":1598:1604   */\n  dup2\n    /* \"#utility.yul\":1586:1596   */\n  dup2\n    /* \"#utility.yul\":1583:1605   */\n  lt\n    /* \"#utility.yul\":1562:1580   */\n  0xffffffffffffffff\n    /* \"#utility.yul\":1550:1560   */\n  dup3\n    /* \"#utility.yul\":1547:1581   */\n  gt\n    /* \"#utility.yul\":1544:1606   */\n  or\n    /* \"#utility.yul\":1541:1629   */\n  iszero\n  tag_72\n  jumpi\n    /* \"#utility.yul\":1609:1627   */\n  tag_73\n  tag_27\n  jump\t// in\ntag_73:\n    /* \"#utility.yul\":1541:1629   */\ntag_72:\n    /* \"#utility.yul\":1649:1659   */\n  dup1\n    /* \"#utility.yul\":1645:1647   */\n  0x40\n    /* \"#utility.yul\":1638:1660   */\n  mstore\n    /* \"#utility.yul\":1428:1666   */\n  pop\n    /* \"#utility.yul\":1385:1666   */\n  pop\n  pop\n  jump\t// out\n    /* \"#utility.yul\":1672:1801   */\ntag_29:\n    /* \"#utility.yul\":1706:1712   */\n  0x00\n    /* \"#utility.yul\":1733:1753   */\n  tag_75\n  tag_17\n  jump\t// in\ntag_75:\n    /* \"#utility.yul\":1723:1753   */\n  swap1\n  pop\n    /* \"#utility.yul\":1762:1795   */\n  tag_76\n    /* \"#utility.yul\":1790:1794   */\n  dup3\n    /* \"#utility.yul\":1782:1788   */\n  dup3\n    /* \"#utility.yul\":1762:1795   */\n  tag_28\n  jump\t// in\ntag_76:\n    /* \"#utility.yul\":1672:1801   */\n  swap2\n  swap1\n  pop\n  jump\t// out\n    /* \"#utility.yul\":1807:2115   */\ntag_30:\n    /* \"#utility.yul\":1869:1873   */\n  0x00\n    /* \"#utility.yul\":1959:1977   */\n  0xffffffffffffffff\n    /* \"#utility.yul\":1951:1957   */\n  dup3\n    /* \"#utility.yul\":1948:1978   */\n  gt\n    /* \"#utility.yul\":1945:2001   */\n  iszero\n  tag_78\n  jumpi\n    /* \"#utility.yul\":1981:1999   */\n  tag_79\n  tag_27\n  jump\t// in\ntag_79:\n    /* \"#utility.yul\":1945:2001   */\ntag_78:\n    /* \"#utility.yul\":2019:2048   */\n  tag_80\n    /* \"#utility.yul\":2041:2047   */\n  dup3\n    /* \"#utility.yul\":2019:2048   */\n  tag_26\n  jump\t// in\ntag_80:\n    /* \"#utility.yul\":2011:2048   */\n  swap1\n  pop\n    /* \"#utility.yul\":2103:2107   */\n  0x20\n    /* \"#utility.yul\":2097:2101   */\n  dup2\n    /* \"#utility.yul\":2093:2108   */\n  add\n    /* \"#utility.yul\":2085:2108   */\n  swap1\n  pop\n    /* \"#utility.yul\":1807:2115   */\n  swap2\n  swap1\n  pop\n  jump\t// out\n    /* \"#utility.yul\":2121:2260   */\ntag_31:\n    /* \"#utility.yul\":2210:2216   */\n  dup3\n    /* \"#utility.yul\":2205:2208   */\n  dup2\n    /* \"#utility.yul\":2200:2203   */\n  dup4\n    /* \"#utility.yul\":2194:2217   */\n  mcopy\n    /* \"#utility.yul\":2251:2252   */\n  0x00\n    /* \"#utility.yul\":2242:2248   */\n  dup4\n    /* \"#utility.yul\":2237:2240   */\n  dup4\n    /* \"#utility.yul\":2233:2249   */\n  add\n    /* \"#utility.yul\":2226:2253   */\n  mstore\n    /* \"#utility.yul\":2121:2260   */\n  pop\n  pop\n  pop\n  jump\t// out\n    /* \"#utility.yul\":2266:2700   */\ntag_32:\n    /* \"#utility.yul\":2355:2360   */\n  0x00\n    /* \"#utility.yul\":2380:2446   */\n  tag_83\n    /* \"#utility.yul\":2396:2445   */\n  tag_84\n    /* \"#utility.yul\":2438:2444   */\n  dup5\n    /* \"#utility.yul\":2396:2445   */\n  tag_30\n  jump\t// in\ntag_84:\n    /* \"#utility.yul\":2380:2446   */\n  tag_29\n  jump\t// in\ntag_83:\n    /* \"#utility.yul\":2371:2446   */\n  swap1\n  pop\n    /* \"#utility.yul\":2469:2475   */\n  dup3\n    /* \"#utility.yul\":2462:2467   */\n  dup2\n    /* \"#utility.yul\":2455:2476   */\n  mstore\n    /* \"#utility.yul\":2507:2511   */\n  0x20\n    /* \"#utility.yul\":2500:2505   */\n  dup2\n    /* \"#utility.yul\":2496:2512   */\n  add\n    /* \"#utility.yul\":2545:2548   */\n  dup5\n    /* \"#utility.yul\":2536:2542   */\n  dup5\n    /* \"#utility.yul\":2531:2534   */\n  dup5\n    /* \"#utility.yul\":2527:2543   */\n  add\n    /* \"#utility.yul\":2524:2549   */\n  gt\n    /* \"#utility.yul\":2521:2633   */\n  iszero\n  tag_85\n  jumpi\n    /* \"#utility.yul\":2552:2631   */\n  tag_86\n  tag_25\n  jump\t// in\ntag_86:\n    /* \"#utility.yul\":2521:2633   */\ntag_85:\n    /* \"#utility.yul\":2642:2694   */\n  tag_87\n    /* \"#utility.yul\":2687:2693   */\n  dup5\n    /* \"#utility.yul\":2682:2685   */\n  dup3\n    /* \"#utility.yul\":2677:2680   */\n  dup6\n    /* \"#utility.yul\":2642:2694   */\n  tag_31\n  jump\t// in\ntag_87:\n    /* \"#utility.yul\":2361:2700   */\n  pop\n    /* \"#utility.yul\":2266:2700   */\n  swap4\n  swap3\n  pop\n  pop\n  pop\n  jump\t// out\n    /* \"#utility.yul\":2720:3075   */\ntag_33:\n    /* \"#utility.yul\":2787:2792   */\n  0x00\n    /* \"#utility.yul\":2836:2839   */\n  dup3\n    /* \"#utility.yul\":2829:2833   */\n  0x1f\n    /* \"#utility.yul\":2821:2827   */\n  dup4\n    /* \"#utility.yul\":2817:2834   */\n  add\n    /* \"#utility.yul\":2813:2840   */\n  slt\n    /* \"#utility.yul\":2803:2925   */\n  tag_89\n  jumpi\n    /* \"#utility.yul\":2844:2923   */\n  tag_90\n  tag_24\n  jump\t// in\ntag_90:\n    /* \"#utility.yul\":2803:2925   */\ntag_89:\n    /* \"#utility.yul\":2954:2960   */\n  dup2\n    /* \"#utility.yul\":2948:2961   */\n  mload\n    /* \"#utility.yul\":2979:3069   */\n  tag_91\n    /* \"#utility.yul\":3065:3068   */\n  dup5\n    /* \"#utility.yul\":3057:3063   */\n  dup3\n    /* \"#utility.yul\":3050:3054   */\n  0x20\n    /* \"#utility.yul\":3042:3048   */\n  dup7\n    /* \"#utility.yul\":3038:3055   */\n  add\n    /* \"#utility.yul\":2979:3069   */\n  tag_32\n  jump\t// in\ntag_91:\n    /* \"#utility.yul\":2970:3069   */\n  swap2\n  pop\n    /* \"#utility.yul\":2793:3075   */\n  pop\n    /* \"#utility.yul\":2720:3075   */\n  swap3\n  swap2\n  pop\n  pop\n  jump\t// out\n    /* \"#utility.yul\":3081:4074   */\ntag_3:\n    /* \"#utility.yul\":3188:3194   */\n  0x00\n    /* \"#utility.yul\":3196:3202   */\n  0x00\n    /* \"#utility.yul\":3204:3210   */\n  0x00\n    /* \"#utility.yul\":3212:3218   */\n  0x00\n    /* \"#utility.yul\":3261:3264   */\n  0x80\n    /* \"#utility.yul\":3249:3258   */\n  dup6\n    /* \"#utility.yul\":3240:3247   */\n  dup8\n    /* \"#utility.yul\":3236:3259   */\n  sub\n    /* \"#utility.yul\":3232:3265   */\n  slt\n    /* \"#utility.yul\":3229:3349   */\n  iszero\n  tag_93\n  jumpi\n    /* \"#utility.yul\":3268:3347   */\n  tag_94\n  tag_18\n  jump\t// in\ntag_94:\n    /* \"#utility.yul\":3229:3349   */\ntag_93:\n    /* \"#utility.yul\":3388:3389   */\n  0x00\n    /* \"#utility.yul\":3413:3477   */\n  tag_95\n    /* \"#utility.yul\":3469:3476   */\n  dup8\n    /* \"#utility.yul\":3460:3466   */\n  dup3\n    /* \"#utility.yul\":3449:3458   */\n  dup9\n    /* \"#utility.yul\":3445:3467   */\n  add\n    /* \"#utility.yul\":3413:3477   */\n  tag_23\n  jump\t// in\ntag_95:\n    /* \"#utility.yul\":3403:3477   */\n  swap5\n  pop\n    /* \"#utility.yul\":3359:3487   */\n  pop\n    /* \"#utility.yul\":3526:3528   */\n  0x20\n    /* \"#utility.yul\":3552:3616   */\n  tag_96\n    /* \"#utility.yul\":3608:3615   */\n  dup8\n    /* \"#utility.yul\":3599:3605   */\n  dup3\n    /* \"#utility.yul\":3588:3597   */\n  dup9\n    /* \"#utility.yul\":3584:3606   */\n  add\n    /* \"#utility.yul\":3552:3616   */\n  tag_23\n  jump\t// in\ntag_96:\n    /* \"#utility.yul\":3542:3616   */\n  swap4\n  pop\n    /* \"#utility.yul\":3497:3626   */\n  pop\n    /* \"#utility.yul\":3665:3667   */\n  0x40\n    /* \"#utility.yul\":3691:3755   */\n  tag_97\n    /* \"#utility.yul\":3747:3754   */\n  dup8\n    /* \"#utility.yul\":3738:3744   */\n  dup3\n    /* \"#utility.yul\":3727:3736   */\n  dup9\n    /* \"#utility.yul\":3723:3745   */\n  add\n    /* \"#utility.yul\":3691:3755   */\n  tag_23\n  jump\t// in\ntag_97:\n    /* \"#utility.yul\":3681:3755   */\n  swap3\n  pop\n    /* \"#utility.yul\":3636:3765   */\n  pop\n    /* \"#utility.yul\":3825:3827   */\n  0x60\n    /* \"#utility.yul\":3814:3823   */\n  dup6\n    /* \"#utility.yul\":3810:3828   */\n  add\n    /* \"#utility.yul\":3804:3829   */\n  mload\n    /* \"#utility.yul\":3856:3874   */\n  0xffffffffffffffff\n    /* \"#utility.yul\":3848:3854   */\n  dup2\n    /* \"#utility.yul\":3845:3875   */\n  gt\n    /* \"#utility.yul\":3842:3959   */\n  iszero\n  tag_98\n  jumpi\n    /* \"#utility.yul\":3878:3957   */\n  tag_99\n  tag_19\n  jump\t// in\ntag_99:\n    /* \"#utility.yul\":3842:3959   */\ntag_98:\n    /* \"#utility.yul\":3983:4057   */\n  tag_100\n    /* \"#utility.yul\":4049:4056   */\n  dup8\n    /* \"#utility.yul\":4040:4046   */\n  dup3\n    /* \"#utility.yul\":4029:4038   */\n  dup9\n    /* \"#utility.yul\":4025:4047   */\n  add\n    /* \"#utility.yul\":3983:4057   */\n  tag_33\n  jump\t// in\ntag_100:\n    /* \"#utility.yul\":3973:4057   */\n  swap2\n  pop\n    /* \"#utility.yul\":3775:4067   */\n  pop\n    /* \"#utility.yul\":3081:4074   */\n  swap3\n  swap6\n  swap2\n  swap5\n  pop\n  swap3\n  pop\n  jump\t// out\n    /* \"#utility.yul\":4080:4198   */\ntag_34:\n    /* \"#utility.yul\":4167:4191   */\n  tag_102\n    /* \"#utility.yul\":4185:4190   */\n  dup2\n    /* \"#utility.yul\":4167:4191   */\n  tag_21\n  jump\t// in\ntag_102:\n    /* \"#utility.yul\":4162:4165   */\n  dup3\n    /* \"#utility.yul\":4155:4192   */\n  mstore\n    /* \"#utility.yul\":4080:4198   */\n  pop\n  pop\n  jump\t// out\n    /* \"#utility.yul\":4204:4426   */\ntag_9:\n    /* \"#utility.yul\":4297:4301   */\n  0x00\n    /* \"#utility.yul\":4335:4337   */\n  0x20\n    /* \"#utility.yul\":4324:4333   */\n  dup3\n    /* \"#utility.yul\":4320:4338   */\n  add\n    /* \"#utility.yul\":4312:4338   */\n  swap1\n  pop\n    /* \"#utility.yul\":4348:4419   */\n  tag_104\n    /* \"#utility.yul\":4416:4417   */\n  0x00\n    /* \"#utility.yul\":4405:4414   */\n  dup4\n    /* \"#utility.yul\":4401:4418   */\n  add\n    /* \"#utility.yul\":4392:4398   */\n  dup5\n    /* \"#utility.yul\":4348:4419   */\n  tag_34\n  jump\t// in\ntag_104:\n    /* \"#utility.yul\":4204:4426   */\n  swap3\n  swap2\n  pop\n  pop\n  jump\t// out\n    /* \"#utility.yul\":4432:4531   */\ntag_35:\n    /* \"#utility.yul\":4484:4490   */\n  0x00\n    /* \"#utility.yul\":4518:4523   */\n  dup2\n    /* \"#utility.yul\":4512:4524   */\n  mload\n    /* \"#utility.yul\":4502:4524   */\n  swap1\n  pop\n    /* \"#utility.yul\":4432:4531   */\n  swap2\n  swap1\n  pop\n  jump\t// out\n    /* \"#utility.yul\":4537:4717   */\ntag_36:\n    /* \"#utility.yul\":4585:4662   */\n  0x4e487b7100000000000000000000000000000000000000000000000000000000\n    /* \"#utility.yul\":4582:4583   */\n  0x00\n    /* \"#utility.yul\":4575:4663   */\n  mstore\n    /* \"#utility.yul\":4682:4686   */\n  0x22\n    /* \"#utility.yul\":4679:4680   */\n  0x04\n    /* \"#utility.yul\":4672:4687   */\n  mstore\n    /* \"#utility.yul\":4706:4710   */\n  0x24\n    /* \"#utility.yul\":4703:4704   */\n  0x00\n    /* \"#utility.yul\":4696:4711   */\n  revert\n    /* \"#utility.yul\":4723:5043   */\ntag_37:\n    /* \"#utility.yul\":4767:4773   */\n  0x00\n    /* \"#utility.yul\":4804:4805   */\n  0x02\n    /* \"#utility.yul\":4798:4802   */\n  dup3\n    /* \"#utility.yul\":4794:4806   */\n  div\n    /* \"#utility.yul\":4784:4806   */\n  swap1\n  pop\n    /* \"#utility.yul\":4851:4852   */\n  0x01\n    /* \"#utility.yul\":4845:4849   */\n  dup3\n    /* \"#utility.yul\":4841:4853   */\n  and\n    /* \"#utility.yul\":4872:4890   */\n  dup1\n    /* \"#utility.yul\":4862:4943   */\n  tag_108\n  jumpi\n    /* \"#utility.yul\":4928:4932   */\n  0x7f\n    /* \"#utility.yul\":4920:4926   */\n  dup3\n    /* \"#utility.yul\":4916:4933   */\n  and\n    /* \"#utility.yul\":4906:4933   */\n  swap2\n  pop\n    /* \"#utility.yul\":4862:4943   */\ntag_108:\n    /* \"#utility.yul\":4990:4992   */\n  0x20\n    /* \"#utility.yul\":4982:4988   */\n  dup3\n    /* \"#utility.yul\":4979:4993   */\n  lt\n    /* \"#utility.yul\":4959:4977   */\n  dup2\n    /* \"#utility.yul\":4956:4994   */\n  sub\n    /* \"#utility.yul\":4953:5037   */\n  tag_109\n  jumpi\n    /* \"#utility.yul\":5009:5027   */\n  tag_110\n  tag_36\n  jump\t// in\ntag_110:\n    /* \"#utility.yul\":4953:5037   */\ntag_109:\n    /* \"#utility.yul\":4774:5043   */\n  pop\n    /* \"#utility.yul\":4723:5043   */\n  swap2\n  swap1\n  pop\n  jump\t// out\n    /* \"#utility.yul\":5049:5190   */\ntag_38:\n    /* \"#utility.yul\":5098:5102   */\n  0x00\n    /* \"#utility.yul\":5121:5124   */\n  dup2\n    /* \"#utility.yul\":5113:5124   */\n  swap1\n  pop\n    /* \"#utility.yul\":5144:5147   */\n  dup2\n    /* \"#utility.yul\":5141:5142   */\n  0x00\n    /* \"#utility.yul\":5134:5148   */\n  mstore\n    /* \"#utility.yul\":5178:5182   */\n  0x20\n    /* \"#utility.yul\":5175:5176   */\n  0x00\n    /* \"#utility.yul\":5165:5183   */\n  keccak256\n    /* \"#utility.yul\":5157:5183   */\n  swap1\n  pop\n    /* \"#utility.yul\":5049:5190   */\n  swap2\n  swap1\n  pop\n  jump\t// out\n    /* \"#utility.yul\":5196:5289   */\ntag_39:\n    /* \"#utility.yul\":5233:5239   */\n  0x00\n    /* \"#utility.yul\":5280:5282   */\n  0x20\n    /* \"#utility.yul\":5275:5277   */\n  0x1f\n    /* \"#utility.yul\":5268:5273   */\n  dup4\n    /* \"#utility.yul\":5264:5278   */\n  add\n    /* \"#utility.yul\":5260:5283   */\n  div\n    /* \"#utility.yul\":5250:5283   */\n  swap1\n  pop\n    /* \"#utility.yul\":5196:5289   */\n  swap2\n  swap1\n  pop\n  jump\t// out\n    /* \"#utility.yul\":5295:5402   */\ntag_40:\n    /* \"#utility.yul\":5339:5347   */\n  0x00\n    /* \"#utility.yul\":5389:5394   */\n  dup3\n    /* \"#utility.yul\":5383:5387   */\n  dup3\n    /* \"#utility.yul\":5379:5395   */\n  shl\n    /* \"#utility.yul\":5358:5395   */\n  swap1\n  pop\n    /* \"#utility.yul\":5295:5402   */\n  swap3\n  swap2\n  pop\n  pop\n  jump\t// out\n    /* \"#utility.yul\":5408:5801   */\ntag_41:\n    /* \"#utility.yul\":5477:5483   */\n  0x00\n    /* \"#utility.yul\":5527:5528   */\n  0x08\n    /* \"#utility.yul\":5515:5525   */\n  dup4\n    /* \"#utility.yul\":5511:5529   */\n  mul\n    /* \"#utility.yul\":5550:5647   */\n  tag_115\n    /* \"#utility.yul\":5580:5646   */\n  0xffffffffffffffffffffffffffffffffffffffffffffffffffffffffffffffff\n    /* \"#utility.yul\":5569:5578   */\n  dup3\n    /* \"#utility.yul\":5550:5647   */\n  tag_40\n  jump\t// in\ntag_115:\n    /* \"#utility.yul\":5668:5707   */\n  tag_116\n    /* \"#utility.yul\":5698:5706   */\n  dup7\n    /* \"#utility.yul\":5687:5696   */\n  dup4\n    /* \"#utility.yul\":5668:5707   */\n  tag_40\n  jump\t// in\ntag_116:\n    /* \"#utility.yul\":5656:5707   */\n  swap6\n  pop\n    /* \"#utility.yul\":5740:5744   */\n  dup1\n    /* \"#utility.yul\":5736:5745   */\n  not\n    /* \"#utility.yul\":5729:5734   */\n  dup5\n    /* \"#utility.yul\":5725:5746   */\n  and\n    /* \"#utility.yul\":5716:5746   */\n  swap4\n  pop\n    /* \"#utility.yul\":5789:5793   */\n  dup1\n    /* \"#utility.yul\":5779:5787   */\n  dup7\n    /* \"#utility.yul\":5775:5794   */\n  and\n    /* \"#utility.yul\":5768:5773   */\n  dup5\n    /* \"#utility.yul\":5765:5795   */\n  or\n    /* \"#utility.yul\":5755:5795   */\n  swap3\n  pop\n    /* \"#utility.yul\":5484:5801   */\n  pop\n  pop\n    /* \"#utility.yul\":5408:5801   */\n  swap4\n  swap3\n  pop\n  pop\n  pop\n  jump\t// out\n    /* \"#utility.yul\":5807:5884   */\ntag_42:\n    /* \"#utility.yul\":5844:5851   */\n  0x00\n    /* \"#utility.yul\":5873:5878   */\n  dup2\n    /* \"#utility.yul\":5862:5878   */\n  swap1\n  pop\n    /* \"#utility.yul\":5807:5884   */\n  swap2\n  swap1\n  pop\n  jump\t// out\n    /* \"#utility.yul\":5890:5950   */\ntag_43:\n    /* \"#utility.yul\":5918:5921   */\n  0x00\n    /* \"#utility.yul\":5939:5944   */\n  dup2\n    /* \"#utility.yul\":5932:5944   */\n  swap1\n  pop\n    /* \"#utility.yul\":5890:5950   */\n  swap2\n  swap1\n  pop\n  jump\t// out\n    /* \"#utility.yul\":5956:6098   */\ntag_44:\n    /* \"#utility.yul\":6006:6015   */\n  0x00\n    /* \"#utility.yul\":6039:6092   */\n  tag_120\n    /* \"#utility.yul\":6057:6091   */\n  tag_121\n    /* \"#utility.yul\":6066:6090   */\n  tag_122\n    /* \"#utility.yul\":6084:6089   */\n  dup5\n    /* \"#utility.yul\":6066:6090   */\n  tag_42\n  jump\t// in\ntag_122:\n    /* \"#utility.yul\":6057:6091   */\n  tag_43\n  jump\t// in\ntag_121:\n    /* \"#utility.yul\":6039:6092   */\n  tag_42\n  jump\t// in\ntag_120:\n    /* \"#utility.yul\":6026:6092   */\n  swap1\n  pop\n    /* \"#utility.yul\":5956:6098   */\n  swap2\n  swap1\n  pop\n  jump\t// out\n    /* \"#utility.yul\":6104:6179   */\ntag_45:\n    /* \"#utility.yul\":6147:6150   */\n  0x00\n    /* \"#utility.yul\":6168:6173   */\n  dup2\n    /* \"#utility.yul\":6161:6173   */\n  swap1\n  pop\n    /* \"#utility.yul\":6104:6179   */\n  swap2\n  swap1\n  pop\n  jump\t// out\n    /* \"#utility.yul\":6185:6454   */\ntag_46:\n    /* \"#utility.yul\":6295:6334   */\n  tag_125\n    /* \"#utility.yul\":6326:6333   */\n  dup4\n    /* \"#utility.yul\":6295:6334   */\n  tag_44\n  jump\t// in\ntag_125:\n    /* \"#utility.yul\":6356:6447   */\n  tag_126\n    /* \"#utility.yul\":6405:6446   */\n  tag_127\n    /* \"#utility.yul\":6429:6445   */\n  dup3\n    /* \"#utility.yul\":6405:6446   */\n  tag_45\n  jump\t// in\ntag_127:\n    /* \"#utility.yul\":6397:6403   */\n  dup5\n    /* \"#utility.yul\":6390:6394   */\n  dup5\n    /* \"#utility.yul\":6384:6395   */\n  sload\n    /* \"#utility.yul\":6356:6447   */\n  tag_41\n  jump\t// in\ntag_126:\n    /* \"#utility.yul\":6350:6354   */\n  dup3\n    /* \"#utility.yul\":6343:6448   */\n  sstore\n    /* \"#utility.yul\":6261:6454   */\n  pop\n    /* \"#utility.yul\":6185:6454   */\n  pop\n  pop\n  pop\n  jump\t// out\n    /* \"#utility.yul\":6460:6533   */\ntag_47:\n    /* \"#utility.yul\":6505:6508   */\n  0x00\n    /* \"#utility.yul\":6526:6527   */\n  0x00\n    /* \"#utility.yul\":6519:6527   */\n  swap1\n  pop\n    /* \"#utility.yul\":6460:6533   */\n  swap1\n  jump\t// out\n    /* \"#utility.yul\":6539:6728   */\ntag_48:\n    /* \"#utility.yul\":6616:6648   */\n  tag_130\n  tag_47\n  jump\t// in\ntag_130:\n    /* \"#utility.yul\":6657:6722   */\n  tag_131\n    /* \"#utility.yul\":6715:6721   */\n  dup2\n    /* \"#utility.yul\":6707:6713   */\n  dup5\n    /* \"#utility.yul\":6701:6705   */\n  dup5\n    /* \"#utility.yul\":6657:6722   */\n  tag_46\n  jump\t// in\ntag_131:\n    /* \"#utility.yul\":6592:6728   */\n  pop\n    /* \"#utility.yul\":6539:6728   */\n  pop\n  pop\n  jump\t// out\n    /* \"#utility.yul\":6734:6920   */\ntag_49:\n    /* \"#utility.yul\":6794:6914   */\ntag_133:\n    /* \"#utility.yul\":6811:6814   */\n  dup2\n    /* \"#utility.yul\":6804:6809   */\n  dup2\n    /* \"#utility.yul\":6801:6815   */\n  lt\n    /* \"#utility.yul\":6794:6914   */\n  iszero\n  tag_135\n  jumpi\n    /* \"#utility.yul\":6865:6904   */\n  tag_136\n    /* \"#utility.yul\":6902:6903   */\n  0x00\n    /* \"#utility.yul\":6895:6900   */\n  dup3\n    /* \"#utility.yul\":6865:6904   */\n  tag_48\n  jump\t// in\ntag_136:\n    /* \"#utility.yul\":6838:6839   */\n  0x01\n    /* \"#utility.yul\":6831:6836   */\n  dup2\n    /* \"#utility.yul\":6827:6840   */\n  add\n    /* \"#utility.yul\":6818:6840   */\n  swap1\n  pop\n    /* \"#utility.yul\":6794:6914   */\n  jump(tag_133)\ntag_135:\n    /* \"#utility.yul\":6734:6920   */\n  pop\n  pop\n  jump\t// out\n    /* \"#utility.yul\":6926:7469   */\ntag_50:\n    /* \"#utility.yul\":7027:7029   */\n  0x1f\n    /* \"#utility.yul\":7022:7025   */\n  dup3\n    /* \"#utility.yul\":7019:7030   */\n  gt\n    /* \"#utility.yul\":7016:7462   */\n  iszero\n  tag_138\n  jumpi\n    /* \"#utility.yul\":7061:7099   */\n  tag_139\n    /* \"#utility.yul\":7093:7098   */\n  dup2\n    /* \"#utility.yul\":7061:7099   */\n  tag_38\n  jump\t// in\ntag_139:\n    /* \"#utility.yul\":7145:7174   */\n  tag_140\n    /* \"#utility.yul\":7163:7173   */\n  dup5\n    /* \"#utility.yul\":7145:7174   */\n  tag_39\n  jump\t// in\ntag_140:\n    /* \"#utility.yul\":7135:7143   */\n  dup2\n    /* \"#utility.yul\":7131:7175   */\n  add\n    /* \"#utility.yul\":7328:7330   */\n  0x20\n    /* \"#utility.yul\":7316:7326   */\n  dup6\n    /* \"#utility.yul\":7313:7331   */\n  lt\n    /* \"#utility.yul\":7310:7359   */\n  iszero\n  tag_141\n  jumpi\n    /* \"#utility.yul\":7349:7357   */\n  dup2\n    /* \"#utility.yul\":7334:7357   */\n  swap1\n  pop\n    /* \"#utility.yul\":7310:7359   */\ntag_141:\n    /* \"#utility.yul\":7372:7452   */\n  tag_142\n    /* \"#utility.yul\":7428:7450   */\n  tag_143\n    /* \"#utility.yul\":7446:7449   */\n  dup6\n    /* \"#utility.yul\":7428:7450   */\n  tag_39\n  jump\t// in\ntag_143:\n    /* \"#utility.yul\":7418:7426   */\n  dup4\n    /* \"#utility.yul\":7414:7451   */\n  add\n    /* \"#utility.yul\":7401:7412   */\n  dup3\n    /* \"#utility.yul\":7372:7452   */\n  tag_49\n  jump\t// in\ntag_142:\n    /* \"#utility.yul\":7031:7462   */\n  pop\n  pop\n    /* \"#utility.yul\":7016:7462   */\ntag_138:\n    /* \"#utility.yul\":6926:7469   */\n  pop\n  pop\n  pop\n  jump\t// out\n    /* \"#utility.yul\":7475:7592   */\ntag_51:\n    /* \"#utility.yul\":7529:7537   */\n  0x00\n    /* \"#utility.yul\":7579:7584   */\n  dup3\n    /* \"#utility.yul\":7573:7577   */\n  dup3\n    /* \"#utility.yul\":7569:7585   */\n  shr\n    /* \"#utility.yul\":7548:7585   */\n  swap1\n  pop\n    /* \"#utility.yul\":7475:7592   */\n  swap3\n  swap2\n  pop\n  pop\n  jump\t// out\n    /* \"#utility.yul\":7598:7767   */\ntag_52:\n    /* \"#utility.yul\":7642:7648   */\n  0x00\n    /* \"#utility.yul\":7675:7726   */\n  tag_146\n    /* \"#utility.yul\":7723:7724   */\n  0x00\n    /* \"#utility.yul\":7719:7725   */\n  not\n    /* \"#utility.yul\":7711:7716   */\n  dup5\n    /* \"#utility.yul\":7708:7709   */\n  0x08\n    /* \"#utility.yul\":7704:7717   */\n  mul\n    /* \"#utility.yul\":7675:7726   */\n  tag_51\n  jump\t// in\ntag_146:\n    /* \"#utility.yul\":7671:7727   */\n  not\n    /* \"#utility.yul\":7756:7760   */\n  dup1\n    /* \"#utility.yul\":7750:7754   */\n  dup4\n    /* \"#utility.yul\":7746:7761   */\n  and\n    /* \"#utility.yul\":7736:7761   */\n  swap2\n  pop\n    /* \"#utility.yul\":7649:7767   */\n  pop\n    /* \"#utility.yul\":7598:7767   */\n  swap3\n  swap2\n  pop\n  pop\n  jump\t// out\n    /* \"#utility.yul\":7772:8067   */\ntag_53:\n    /* \"#utility.yul\":7848:7852   */\n  0x00\n    /* \"#utility.yul\":7994:8023   */\n  tag_148\n    /* \"#utility.yul\":8019:8022   */\n  dup4\n    /* \"#utility.yul\":8013:8017   */\n  dup4\n    /* \"#utility.yul\":7994:8023   */\n  tag_52\n  jump\t// in\ntag_148:\n    /* \"#utility.yul\":7986:8023   */\n  swap2\n  pop\n    /* \"#utility.yul\":8056:8059   */\n  dup3\n    /* \"#utility.yul\":8053:8054   */\n  0x02\n    /* \"#utility.yul\":8049:8060   */\n  mul\n    /* \"#utility.yul\":8043:8047   */\n  dup3\n    /* \"#utility.yul\":8040:8061   */\n  or\n    /* \"#utility.yul\":8032:8061   */\n  swap1\n  pop\n    /* \"#utility.yul\":7772:8067   */\n  swap3\n  swap2\n  pop\n  pop\n  jump\t// out\n    /* \"#utility.yul\":8072:9467   */\ntag_14:\n    /* \"#utility.yul\":8189:8226   */\n  tag_150\n    /* \"#utility.yul\":8222:8225   */\n  dup3\n    /* \"#utility.yul\":8189:8226   */\n  tag_35\n  jump\t// in\ntag_150:\n    /* \"#utility.yul\":8291:8309   */\n  0xffffffffffffffff\n    /* \"#utility.yul\":8283:8289   */\n  dup2\n    /* \"#utility.yul\":8280:8310   */\n  gt\n    /* \"#utility.yul\":8277:8333   */\n  iszero\n  tag_151\n  jumpi\n    /* \"#utility.yul\":8313:8331   */\n  tag_152\n  tag_27\n  jump\t// in\ntag_152:\n    /* \"#utility.yul\":8277:8333   */\ntag_151:\n    /* \"#utility.yul\":8357:8395   */\n  tag_153\n    /* \"#utility.yul\":8389:8393   */\n  dup3\n    /* \"#utility.yul\":8383:8394   */\n  sload\n    /* \"#utility.yul\":8357:8395   */\n  tag_37\n  jump\t// in\ntag_153:\n    /* \"#utility.yul\":8442:8509   */\n  tag_154\n    /* \"#utility.yul\":8502:8508   */\n  dup3\n    /* \"#utility.yul\":8494:8500   */\n  dup3\n    /* \"#utility.yul\":8488:8492   */\n  dup6\n    /* \"#utility.yul\":8442:8509   */\n  tag_50\n  jump\t// in\ntag_154:\n    /* \"#utility.yul\":8536:8537   */\n  0x00\n    /* \"#utility.yul\":8560:8564   */\n  0x20\n    /* \"#utility.yul\":8547:8564   */\n  swap1\n  pop\n    /* \"#utility.yul\":8592:8594   */\n  0x1f\n    /* \"#utility.yul\":8584:8590   */\n  dup4\n    /* \"#utility.yul\":8581:8595   */\n  gt\n    /* \"#utility.yul\":8609:8610   */\n  0x01\n    /* \"#utility.yul\":8604:9222   */\n  dup2\n  eq\n  tag_156\n  jumpi\n    /* \"#utility.yul\":9266:9267   */\n  0x00\n    /* \"#utility.yul\":9283:9289   */\n  dup5\n    /* \"#utility.yul\":9280:9357   */\n  iszero\n  tag_157\n  jumpi\n    /* \"#utility.yul\":9332:9341   */\n  dup3\n    /* \"#utility.yul\":9327:9330   */\n  dup8\n    /* \"#utility.yul\":9323:9342   */\n  add\n    /* \"#utility.yul\":9317:9343   */\n  mload\n    /* \"#utility.yul\":9308:9343   */\n  swap1\n  pop\n    /* \"#utility.yul\":9280:9357   */\ntag_157:\n    /* \"#utility.yul\":9383:9450   */\n  tag_158\n    /* \"#utility.yul\":9443:9449   */\n  dup6\n    /* \"#utility.yul\":9436:9441   */\n  dup3\n    /* \"#utility.yul\":9383:9450   */\n  tag_53\n  jump\t// in\ntag_158:\n    /* \"#utility.yul\":9377:9381   */\n  dup7\n    /* \"#utility.yul\":9370:9451   */\n  sstore\n    /* \"#utility.yul\":9239:9461   */\n  pop\n    /* \"#utility.yul\":8574:9461   */\n  jump(tag_155)\n    /* \"#utility.yul\":8604:9222   */\ntag_156:\n    /* \"#utility.yul\":8656:8660   */\n  0x1f\n    /* \"#utility.yul\":8652:8661   */\n  not\n    /* \"#utility.yul\":8644:8650   */\n  dup5\n    /* \"#utility.yul\":8640:8662   */\n  and\n    /* \"#utility.yul\":8690:8727   */\n  tag_159\n    /* \"#utility.yul\":8722:8726   */\n  dup7\n    /* \"#utility.yul\":8690:8727   */\n  tag_38\n  jump\t// in\ntag_159:\n    /* \"#utility.yul\":8749:8750   */\n  0x00\n    /* \"#utility.yul\":8763:8971   */\ntag_160:\n    /* \"#utility.yul\":8777:8784   */\n  dup3\n    /* \"#utility.yul\":8774:8775   */\n  dup2\n    /* \"#utility.yul\":8771:8785   */\n  lt\n    /* \"#utility.yul\":8763:8971   */\n  iszero\n  tag_162\n  jumpi\n    /* \"#utility.yul\":8856:8865   */\n  dup5\n    /* \"#utility.yul\":8851:8854   */\n  dup10\n    /* \"#utility.yul\":8847:8866   */\n  add\n    /* \"#utility.yul\":8841:8867   */\n  mload\n    /* \"#utility.yul\":8833:8839   */\n  dup3\n    /* \"#utility.yul\":8826:8868   */\n  sstore\n    /* \"#utility.yul\":8907:8908   */\n  0x01\n    /* \"#utility.yul\":8899:8905   */\n  dup3\n    /* \"#utility.yul\":8895:8909   */\n  add\n    /* \"#utility.yul\":8885:8909   */\n  swap2\n  pop\n    /* \"#utility.yul\":8954:8956   */\n  0x20\n    /* \"#utility.yul\":8943:8952   */\n  dup6\n    /* \"#utility.yul\":8939:8957   */\n  add\n    /* \"#utility.yul\":8926:8957   */\n  swap5\n  pop\n    /* \"#utility.yul\":8800:8804   */\n  0x20\n    /* \"#utility.yul\":8797:8798   */\n  dup2\n    /* \"#utility.yul\":8793:8805   */\n  add\n    /* \"#utility.yul\":8788:8805   */\n  swap1\n  pop\n    /* \"#utility.yul\":8763:8971   */\n  jump(tag_160)\ntag_162:\n    /* \"#utility.yul\":8999:9005   */\n  dup7\n    /* \"#utility.yul\":8990:8997   */\n  dup4\n    /* \"#utility.yul\":8987:9006   */\n  lt\n    /* \"#utility.yul\":8984:9163   */\n  iszero\n  tag_163\n  jumpi\n    /* \"#utility.yul\":9057:9066   */\n  dup5\n    /* \"#utility.yul\":9052:9055   */\n  dup10\n    /* \"#utility.yul\":9048:9067   */\n  add\n    /* \"#utility.yul\":9042:9068   */\n  mload\n    /* \"#utility.yul\":9100:9148   */\n  tag_164\n    /* \"#utility.yul\":9142:9146   */\n  0x1f\n    /* \"#utility.yul\":9134:9140   */\n  dup10\n    /* \"#utility.yul\":9130:9147   */\n  and\n    /* \"#utility.yul\":9119:9128   */\n  dup3\n    /* \"#utility.yul\":9100:9148   */\n  tag_52\n  jump\t// in\ntag_164:\n    /* \"#utility.yul\":9092:9098   */\n  dup4\n    /* \"#utility.yul\":9085:9149   */\n  sstore\n    /* \"#utility.yul\":9007:9163   */\n  pop\n    /* \"#utility.yul\":8984:9163   */\ntag_163:\n    /* \"#utility.yul\":9209:9210   */\n  0x01\n    /* \"#utility.yul\":9205:9206   */\n  0x02\n    /* \"#utility.yul\":9197:9203   */\n  dup9\n    /* \"#utility.yul\":9193:9207   */\n  mul\n    /* \"#utility.yul\":9189:9211   */\n  add\n    /* \"#utility.yul\":9183:9187   */\n  dup9\n    /* \"#utility.yul\":9176:9212   */\n  sstore\n    /* \"#utility.yul\":8611:9222   */\n  pop\n  pop\n  pop\n    /* \"#utility.yul\":8574:9461   */\ntag_155:\n  pop\n    /* \"#utility.yul\":8164:9467   */\n  pop\n  pop\n  pop\n    /* \"#utility.yul\":8072:9467   */\n  pop\n  pop\n  jump\t// out\n    /* \"Evm/core/base/vault.sol\":555:5177  contract QiaraMultiAssetVault is Ownable {... */\ntag_15:\n  mload(0x80)\n  mload(0xa0)\n  codecopy(0x00, dataOffset(sub_0), dataSize(sub_0))\n  0x00\n  assignImmutable(\"0xa55f93089260f97cd16ec7a717e7ade24f99065bc4509014bd14fefe4d832ab6\")\n  0x00\n  assignImmutable(\"0x1067a32fc2bf4122310a8f066f11577e006583df65ce4c5172289c9680be102c\")\n  return(0x00, dataSize(sub_0))\nstop\n\nsub_0: assembly {\n        /* \"Evm/core/base/vault.sol\":555:5177  contract QiaraMultiAssetVault is Ownable {... */\n      mstore(0x40, 0x80)\n      callvalue\n      dup1\n      iszero\n      tag_1\n      jumpi\n      revert(0x00, 0x00)\n    tag_1:\n      pop\n      jumpi(tag_2, lt(calldatasize, 0x04))\n      shr(0xe0, calldataload(0x00))\n      dup1\n      0x7804e707\n      gt\n      tag_16\n      jumpi\n      dup1\n      0xb5f8558c\n      gt\n      tag_17\n      jumpi\n      dup1\n      0xb5f8558c\n      eq\n      tag_12\n      jumpi\n      dup1\n      0xbf4d766e\n      eq\n      tag_13\n      jumpi\n      dup1\n      0xf139721c\n      eq\n      tag_14\n      jumpi\n      dup1\n      0xf2fde38b\n      eq\n      tag_15\n      jumpi\n      jump(tag_2)\n    tag_17:\n      dup1\n      0x7804e707\n      eq\n      tag_9\n      jumpi\n      dup1\n      0x8da5cb5b\n      eq\n      tag_10\n      jumpi\n      dup1\n      0x8e27d719\n      eq\n      tag_11\n      jumpi\n      jump(tag_2)\n    tag_16:\n      dup1\n      0xdad7d4\n      eq\n      tag_3\n      jumpi\n      dup1\n      0x05d09fb1\n      eq\n      tag_4\n      jumpi\n      dup1\n      0x240028e8\n      eq\n      tag_5\n      jumpi\n      dup1\n      0x6afbf5d6\n      eq\n      tag_6\n      jumpi\n      dup1\n      0x715018a6\n      eq\n      tag_7\n      jumpi\n      dup1\n      0x76c13cbd\n      eq\n      tag_8\n      jumpi\n    tag_2:\n      revert(0x00, 0x00)\n        /* \"Evm/core/base/vault.sol\":728:754  string public providerName */\n    tag_3:\n      tag_18\n      tag_19\n      jump\t// in\n    tag_18:\n      mload(0x40)\n      tag_20\n      swap2\n      swap1\n      tag_21\n      jump\t// in\n    tag_20:\n      mload(0x40)\n      dup1\n      swap2\n      sub\n      swap1\n      return\n        /* \"Evm/core/base/vault.sol\":1477:1878  function resolveAsset(string memory assetName) public view returns (address) {... */\n    tag_4:\n      tag_22\n      0x04\n      dup1\n      calldatasize\n      sub\n      dup2\n      add\n      swap1\n      tag_23\n      swap2\n      swap1\n      tag_24\n      jump\t// in\n    tag_23:\n      tag_25\n      jump\t// in\n    tag_22:\n      mload(0x40)\n      tag_26\n      swap2\n      swap1\n      tag_27\n      jump\t// in\n    tag_26:\n      mload(0x40)\n      dup1\n      swap2\n      sub\n      swap1\n      return\n        /* \"Evm/core/base/vault.sol\":764:812  mapping(address => bool) public isSupportedToken */\n    tag_5:\n      tag_28\n      0x04\n      dup1\n      calldatasize\n      sub\n      dup2\n      add\n      swap1\n      tag_29\n      swap2\n      swap1\n      tag_30\n      jump\t// in\n    tag_29:\n      tag_31\n      jump\t// in\n    tag_28:\n      mload(0x40)\n      tag_32\n      swap2\n      swap1\n      tag_33\n      jump\t// in\n    tag_32:\n      mload(0x40)\n      dup1\n      swap2\n      sub\n      swap1\n      return\n        /* \"Evm/core/base/vault.sol\":2113:3130  function grantWithdrawalPermission(address user, string calldata assetName, uint256 amount, uint256 nullifier) external onlyOwner {... */\n    tag_6:\n      tag_34\n      0x04\n      dup1\n      calldatasize\n      sub\n      dup2\n      add\n      swap1\n      tag_35\n      swap2\n      swap1\n      tag_36\n      jump\t// in\n    tag_35:\n      tag_37\n      jump\t// in\n    tag_34:\n      stop\n        /* \"@openzeppelin/contracts/access/Ownable.sol\":2293:2394  function renounceOwnership() public virtual onlyOwner {... */\n    tag_7:\n      tag_38\n      tag_39\n      jump\t// in\n    tag_38:\n      stop\n        /* \"Evm/core/base/vault.sol\":819:891  mapping(address => mapping(address => uint256)) public claimableBalances */\n    tag_8:\n      tag_40\n      0x04\n      dup1\n      calldatasize\n      sub\n      dup2\n      add\n      swap1\n      tag_41\n      swap2\n      swap1\n      tag_42\n      jump\t// in\n    tag_41:\n      tag_43\n      jump\t// in\n    tag_40:\n      mload(0x40)\n      tag_44\n      swap2\n      swap1\n      tag_45\n      jump\t// in\n    tag_44:\n      mload(0x40)\n      dup1\n      swap2\n      sub\n      swap1\n      return\n        /* \"Evm/core/base/vault.sol\":4135:5174  function withdraw(string calldata assetName, uint256 amount, address receiver) external {... */\n    tag_9:\n      tag_46\n      0x04\n      dup1\n      calldatasize\n      sub\n      dup2\n      add\n      swap1\n      tag_47\n      swap2\n      swap1\n      tag_48\n      jump\t// in\n    tag_47:\n      tag_49\n      jump\t// in\n    tag_46:\n      stop\n        /* \"@openzeppelin/contracts/access/Ownable.sol\":1638:1723  function owner() public view virtual returns (address) {... */\n    tag_10:\n      tag_50\n      tag_51\n      jump\t// in\n    tag_50:\n      mload(0x40)\n      tag_52\n      swap2\n      swap1\n      tag_27\n      jump\t// in\n    tag_52:\n      mload(0x40)\n      dup1\n      swap2\n      sub\n      swap1\n      return\n        /* \"Evm/core/base/vault.sol\":3138:4127  function deposit(string calldata assetName, uint256 amount) external {... */\n    tag_11:\n      tag_53\n      0x04\n      dup1\n      calldatasize\n      sub\n      dup2\n      add\n      swap1\n      tag_54\n      swap2\n      swap1\n      tag_55\n      jump\t// in\n    tag_54:\n      tag_56\n      jump\t// in\n    tag_53:\n      stop\n        /* \"Evm/core/base/vault.sol\":690:721  IEvents public immutable events */\n    tag_12:\n      tag_57\n      tag_58\n      jump\t// in\n    tag_57:\n      mload(0x40)\n      tag_59\n      swap2\n      swap1\n      tag_60\n      jump\t// in\n    tag_59:\n      mload(0x40)\n      dup1\n      swap2\n      sub\n      swap1\n      return\n        /* \"Evm/core/base/vault.sol\":638:683  IVariables public immutable variablesRegistry */\n    tag_13:\n      tag_61\n      tag_62\n      jump\t// in\n    tag_61:\n      mload(0x40)\n      tag_63\n      swap2\n      swap1\n      tag_64\n      jump\t// in\n    tag_63:\n      mload(0x40)\n      dup1\n      swap2\n      sub\n      swap1\n      return\n        /* \"Evm/core/base/vault.sol\":1886:2103  function listNewToken(string calldata assetName) external {... */\n    tag_14:\n      tag_65\n      0x04\n      dup1\n      calldatasize\n      sub\n      dup2\n      add\n      swap1\n      tag_66\n      swap2\n      swap1\n      tag_67\n      jump\t// in\n    tag_66:\n      tag_68\n      jump\t// in\n    tag_65:\n      stop\n        /* \"@openzeppelin/contracts/access/Ownable.sol\":2543:2758  function transferOwnership(address newOwner) public virtual onlyOwner {... */\n    tag_15:\n      tag_69\n      0x04\n      dup1\n      calldatasize\n      sub\n      dup2\n      add\n      swap1\n      tag_70\n      swap2\n      swap1\n      tag_30\n      jump\t// in\n    tag_70:\n      tag_71\n      jump\t// in\n    tag_69:\n      stop\n        /* \"Evm/core/base/vault.sol\":728:754  string public providerName */\n    tag_19:\n      0x01\n      dup1\n      sload\n      tag_72\n      swap1\n      tag_73\n      jump\t// in\n    tag_72:\n      dup1\n      0x1f\n      add\n      0x20\n      dup1\n      swap2\n      div\n      mul\n      0x20\n      add\n      mload(0x40)\n      swap1\n      dup2\n      add\n      0x40\n      mstore\n      dup1\n      swap3\n      swap2\n      swap1\n      dup2\n      dup2\n      mstore\n      0x20\n      add\n      dup3\n      dup1\n      sload\n      tag_74\n      swap1\n      tag_73\n      jump\t// in\n    tag_74:\n      dup1\n      iszero\n      tag_75\n      jumpi\n      dup1\n      0x1f\n      lt\n      tag_76\n      jumpi\n      0x0100\n      dup1\n      dup4\n      sload\n      div\n      mul\n      dup4\n      mstore\n      swap2\n      0x20\n      add\n      swap2\n      jump(tag_75)\n    tag_76:\n      dup3\n      add\n      swap2\n      swap1\n      0x00\n      mstore\n      keccak256(0x00, 0x20)\n      swap1\n    tag_77:\n      dup2\n      sload\n      dup2\n      mstore\n      swap1\n      0x01\n      add\n      swap1\n      0x20\n      add\n      dup1\n      dup4\n      gt\n      tag_77\n      jumpi\n      dup3\n      swap1\n      sub\n      0x1f\n      and\n      dup3\n      add\n      swap2\n    tag_75:\n      pop\n      pop\n      pop\n      pop\n      pop\n      dup2\n      jump\t// out\n        /* \"Evm/core/base/vault.sol\":1477:1878  function resolveAsset(string memory assetName) public view returns (address) {... */\n    tag_25:\n        /* \"Evm/core/base/vault.sol\":1545:1552  address */\n      0x00\n        /* \"Evm/core/base/vault.sol\":1565:1587  string memory tokenKey */\n      0x00\n        /* \"Evm/core/base/vault.sol\":1614:1623  assetName */\n      dup3\n        /* \"Evm/core/base/vault.sol\":1630:1642  providerName */\n      0x01\n        /* \"Evm/core/base/vault.sol\":1597:1643  abi.encodePacked(assetName, \"_\", providerName) */\n      add(0x20, mload(0x40))\n      tag_79\n      swap3\n      swap2\n      swap1\n      tag_80\n      jump\t// in\n    tag_79:\n      mload(0x40)\n      0x20\n      dup2\n      dup4\n      sub\n      sub\n      dup2\n      mstore\n      swap1\n      0x40\n      mstore\n        /* \"Evm/core/base/vault.sol\":1565:1644  string memory tokenKey = string(abi.encodePacked(assetName, \"_\", providerName)) */\n      swap1\n      pop\n        /* \"Evm/core/base/vault.sol\":1655:1678  bytes memory tokenBytes */\n      0x00\n        /* \"Evm/core/base/vault.sol\":1681:1698  variablesRegistry */\n      immutable(\"0x1067a32fc2bf4122310a8f066f11577e006583df65ce4c5172289c9680be102c\")\n        /* \"Evm/core/base/vault.sol\":1681:1710  variablesRegistry.getVariable */\n      0xffffffffffffffffffffffffffffffffffffffff\n      and\n      0x0794a2d6\n        /* \"Evm/core/base/vault.sol\":1731:1739  tokenKey */\n      dup4\n        /* \"Evm/core/base/vault.sol\":1681:1740  variablesRegistry.getVariable(\"QiaraMonadAssets\", tokenKey) */\n      mload(0x40)\n      dup3\n      0xffffffff\n      and\n      0xe0\n      shl\n      dup2\n      mstore\n      0x04\n      add\n      tag_81\n      swap2\n      swap1\n      tag_82\n      jump\t// in\n    tag_81:\n      0x00\n      mload(0x40)\n      dup1\n      dup4\n      sub\n      dup2\n      dup7\n      gas\n      staticcall\n      iszero\n      dup1\n      iszero\n      tag_84\n      jumpi\n      returndatacopy(0x00, 0x00, returndatasize)\n      revert(0x00, returndatasize)\n    tag_84:\n      pop\n      pop\n      pop\n      pop\n      mload(0x40)\n      returndatasize\n      0x00\n      dup3\n      returndatacopy\n      returndatasize\n      not(0x1f)\n      0x1f\n      dup3\n      add\n      and\n      dup3\n      add\n      dup1\n      0x40\n      mstore\n      pop\n      dup2\n      add\n      swap1\n      tag_85\n      swap2\n      swap1\n      tag_86\n      jump\t// in\n    tag_85:\n        /* \"Evm/core/base/vault.sol\":1655:1740  bytes memory tokenBytes = variablesRegistry.getVariable(\"QiaraMonadAssets\", tokenKey) */\n      swap1\n      pop\n        /* \"Evm/core/base/vault.sol\":1779:1780  0 */\n      0x00\n        /* \"Evm/core/base/vault.sol\":1759:1769  tokenBytes */\n      dup2\n        /* \"Evm/core/base/vault.sol\":1759:1776  tokenBytes.length */\n      mload\n        /* \"Evm/core/base/vault.sol\":1759:1780  tokenBytes.length > 0 */\n      gt\n        /* \"Evm/core/base/vault.sol\":1751:1819  require(tokenBytes.length > 0, \"Vault: Asset not found in registry\") */\n      tag_87\n      jumpi\n      mload(0x40)\n      0x08c379a000000000000000000000000000000000000000000000000000000000\n      dup2\n      mstore\n      0x04\n      add\n      tag_88\n      swap1\n      tag_89\n      jump\t// in\n    tag_88:\n      mload(0x40)\n      dup1\n      swap2\n      sub\n      swap1\n      revert\n    tag_87:\n        /* \"Evm/core/base/vault.sol\":1848:1858  tokenBytes */\n      dup1\n        /* \"Evm/core/base/vault.sol\":1837:1870  abi.decode(tokenBytes, (address)) */\n      dup1\n      0x20\n      add\n      swap1\n      mload\n      dup2\n      add\n      swap1\n      tag_90\n      swap2\n      swap1\n      tag_91\n      jump\t// in\n    tag_90:\n        /* \"Evm/core/base/vault.sol\":1830:1870  return abi.decode(tokenBytes, (address)) */\n      swap3\n      pop\n      pop\n      pop\n        /* \"Evm/core/base/vault.sol\":1477:1878  function resolveAsset(string memory assetName) public view returns (address) {... */\n      swap2\n      swap1\n      pop\n      jump\t// out\n        /* \"Evm/core/base/vault.sol\":764:812  mapping(address => bool) public isSupportedToken */\n    tag_31:\n      mstore(0x20, 0x02)\n      dup1\n      0x00\n      mstore\n      keccak256(0x00, 0x40)\n      0x00\n      swap2\n      pop\n      sload\n      swap1\n      0x0100\n      exp\n      swap1\n      div\n      0xff\n      and\n      dup2\n      jump\t// out\n        /* \"Evm/core/base/vault.sol\":2113:3130  function grantWithdrawalPermission(address user, string calldata assetName, uint256 amount, uint256 nullifier) external onlyOwner {... */\n    tag_37:\n        /* \"@openzeppelin/contracts/access/Ownable.sol\":1531:1544  _checkOwner() */\n      tag_93\n        /* \"@openzeppelin/contracts/access/Ownable.sol\":1531:1542  _checkOwner */\n      tag_94\n        /* \"@openzeppelin/contracts/access/Ownable.sol\":1531:1544  _checkOwner() */\n      jump\t// in\n    tag_93:\n        /* \"Evm/core/base/vault.sol\":2254:2267  address token */\n      0x00\n        /* \"Evm/core/base/vault.sol\":2270:2293  resolveAsset(assetName) */\n      tag_96\n        /* \"Evm/core/base/vault.sol\":2283:2292  assetName */\n      dup6\n      dup6\n        /* \"Evm/core/base/vault.sol\":2270:2293  resolveAsset(assetName) */\n      dup1\n      dup1\n      0x1f\n      add\n      0x20\n      dup1\n      swap2\n      div\n      mul\n      0x20\n      add\n      mload(0x40)\n      swap1\n      dup2\n      add\n      0x40\n      mstore\n      dup1\n      swap4\n      swap3\n      swap2\n      swap1\n      dup2\n      dup2\n      mstore\n      0x20\n      add\n      dup4\n      dup4\n      dup1\n      dup3\n      dup5\n      calldatacopy\n      0x00\n      dup2\n      dup5\n      add\n      mstore\n      not(0x1f)\n      0x1f\n      dup3\n      add\n      and\n      swap1\n      pop\n      dup1\n      dup4\n      add\n      swap3\n      pop\n      pop\n      pop\n      pop\n      pop\n      pop\n      pop\n        /* \"Evm/core/base/vault.sol\":2270:2282  resolveAsset */\n      tag_25\n        /* \"Evm/core/base/vault.sol\":2270:2293  resolveAsset(assetName) */\n      jump\t// in\n    tag_96:\n        /* \"Evm/core/base/vault.sol\":2254:2293  address token = resolveAsset(assetName) */\n      swap1\n      pop\n        /* \"Evm/core/base/vault.sol\":2312:2328  isSupportedToken */\n      0x02\n        /* \"Evm/core/base/vault.sol\":2312:2335  isSupportedToken[token] */\n      0x00\n        /* \"Evm/core/base/vault.sol\":2329:2334  token */\n      dup3\n        /* \"Evm/core/base/vault.sol\":2312:2335  isSupportedToken[token] */\n      0xffffffffffffffffffffffffffffffffffffffff\n      and\n      0xffffffffffffffffffffffffffffffffffffffff\n      and\n      dup2\n      mstore\n      0x20\n      add\n      swap1\n      dup2\n      mstore\n      0x20\n      add\n      0x00\n      keccak256\n      0x00\n      swap1\n      sload\n      swap1\n      0x0100\n      exp\n      swap1\n      div\n      0xff\n      and\n        /* \"Evm/core/base/vault.sol\":2304:2366  require(isSupportedToken[token], \"Vault: Token not supported\") */\n      tag_97\n      jumpi\n      mload(0x40)\n      0x08c379a000000000000000000000000000000000000000000000000000000000\n      dup2\n      mstore\n      0x04\n      add\n      tag_98\n      swap1\n      tag_99\n      jump\t// in\n    tag_98:\n      mload(0x40)\n      dup1\n      swap2\n      sub\n      swap1\n      revert\n    tag_97:\n        /* \"Evm/core/base/vault.sol\":2421:2427  amount */\n      dup3\n        /* \"Evm/core/base/vault.sol\":2387:2404  claimableBalances */\n      0x03\n        /* \"Evm/core/base/vault.sol\":2387:2410  claimableBalances[user] */\n      0x00\n        /* \"Evm/core/base/vault.sol\":2405:2409  user */\n      dup9\n        /* \"Evm/core/base/vault.sol\":2387:2410  claimableBalances[user] */\n      0xffffffffffffffffffffffffffffffffffffffff\n      and\n      0xffffffffffffffffffffffffffffffffffffffff\n      and\n      dup2\n      mstore\n      0x20\n      add\n      swap1\n      dup2\n      mstore\n      0x20\n      add\n      0x00\n      keccak256\n        /* \"Evm/core/base/vault.sol\":2387:2417  claimableBalances[user][token] */\n      0x00\n        /* \"Evm/core/base/vault.sol\":2411:2416  token */\n      dup4\n        /* \"Evm/core/base/vault.sol\":2387:2417  claimableBalances[user][token] */\n      0xffffffffffffffffffffffffffffffffffffffff\n      and\n      0xffffffffffffffffffffffffffffffffffffffff\n      and\n      dup2\n      mstore\n      0x20\n      add\n      swap1\n      dup2\n      mstore\n      0x20\n      add\n      0x00\n      keccak256\n      0x00\n        /* \"Evm/core/base/vault.sol\":2387:2427  claimableBalances[user][token] += amount */\n      dup3\n      dup3\n      sload\n      tag_100\n      swap2\n      swap1\n      tag_101\n      jump\t// in\n    tag_100:\n      swap3\n      pop\n      pop\n      dup2\n      swap1\n      sstore\n      pop\n        /* \"Evm/core/base/vault.sol\":2440:2471  IEvents.Data[] memory eventData */\n      0x00\n        /* \"Evm/core/base/vault.sol\":2493:2494  6 */\n      0x06\n        /* \"Evm/core/base/vault.sol\":2474:2495  new IEvents.Data[](6) */\n      0xffffffffffffffff\n      dup2\n      gt\n      iszero\n      tag_102\n      jumpi\n      tag_103\n      tag_104\n      jump\t// in\n    tag_103:\n    tag_102:\n      mload(0x40)\n      swap1\n      dup1\n      dup3\n      mstore\n      dup1\n      0x20\n      mul\n      0x20\n      add\n      dup3\n      add\n      0x40\n      mstore\n      dup1\n      iszero\n      tag_105\n      jumpi\n      dup2\n      0x20\n      add\n    tag_106:\n      tag_107\n      tag_108\n      jump\t// in\n    tag_107:\n      dup2\n      mstore\n      0x20\n      add\n      swap1\n      0x01\n      swap1\n      sub\n      swap1\n      dup2\n      tag_106\n      jumpi\n      swap1\n      pop\n    tag_105:\n      pop\n        /* \"Evm/core/base/vault.sol\":2440:2495  IEvents.Data[] memory eventData = new IEvents.Data[](6) */\n      swap1\n      pop\n        /* \"Evm/core/base/vault.sol\":2521:2576  IEvents.Data(\"user\", \"address\", abi.encode(msg.sender)) */\n      mload(0x40)\n      dup1\n      0x60\n      add\n      0x40\n      mstore\n      dup1\n      mload(0x40)\n      dup1\n      0x40\n      add\n      0x40\n      mstore\n      dup1\n      0x04\n      dup2\n      mstore\n      0x20\n      add\n      0x7573657200000000000000000000000000000000000000000000000000000000\n      dup2\n      mstore\n      pop\n      dup2\n      mstore\n      0x20\n      add\n      mload(0x40)\n      dup1\n      0x40\n      add\n      0x40\n      mstore\n      dup1\n      0x07\n      dup2\n      mstore\n      0x20\n      add\n      0x6164647265737300000000000000000000000000000000000000000000000000\n      dup2\n      mstore\n      pop\n      dup2\n      mstore\n      0x20\n      add\n        /* \"Evm/core/base/vault.sol\":2564:2574  msg.sender */\n      caller\n        /* \"Evm/core/base/vault.sol\":2553:2575  abi.encode(msg.sender) */\n      add(0x20, mload(0x40))\n      tag_109\n      swap2\n      swap1\n      tag_27\n      jump\t// in\n    tag_109:\n      mload(0x40)\n      0x20\n      dup2\n      dup4\n      sub\n      sub\n      dup2\n      mstore\n      swap1\n      0x40\n      mstore\n        /* \"Evm/core/base/vault.sol\":2521:2576  IEvents.Data(\"user\", \"address\", abi.encode(msg.sender)) */\n      dup2\n      mstore\n      pop\n        /* \"Evm/core/base/vault.sol\":2506:2515  eventData */\n      dup2\n        /* \"Evm/core/base/vault.sol\":2516:2517  0 */\n      0x00\n        /* \"Evm/core/base/vault.sol\":2506:2518  eventData[0] */\n      dup2\n      mload\n      dup2\n      lt\n      tag_110\n      jumpi\n      tag_111\n      tag_112\n      jump\t// in\n    tag_111:\n    tag_110:\n      0x20\n      mul\n      0x20\n      add\n      add\n        /* \"Evm/core/base/vault.sol\":2506:2576  eventData[0] = IEvents.Data(\"user\", \"address\", abi.encode(msg.sender)) */\n      dup2\n      swap1\n      mstore\n      pop\n        /* \"Evm/core/base/vault.sol\":2602:2655  IEvents.Data(\"amount\", \"uint256\", abi.encode(amount)) */\n      mload(0x40)\n      dup1\n      0x60\n      add\n      0x40\n      mstore\n      dup1\n      mload(0x40)\n      dup1\n      0x40\n      add\n      0x40\n      mstore\n      dup1\n      0x06\n      dup2\n      mstore\n      0x20\n      add\n      0x616d6f756e740000000000000000000000000000000000000000000000000000\n      dup2\n      mstore\n      pop\n      dup2\n      mstore\n      0x20\n      add\n      mload(0x40)\n      dup1\n      0x40\n      add\n      0x40\n      mstore\n      dup1\n      0x07\n      dup2\n      mstore\n      0x20\n      add\n      0x75696e7432353600000000000000000000000000000000000000000000000000\n      dup2\n      mstore\n      pop\n      dup2\n      mstore\n      0x20\n      add\n        /* \"Evm/core/base/vault.sol\":2647:2653  amount */\n      dup6\n        /* \"Evm/core/base/vault.sol\":2636:2654  abi.encode(amount) */\n      add(0x20, mload(0x40))\n      tag_113\n      swap2\n      swap1\n      tag_45\n      jump\t// in\n    tag_113:\n      mload(0x40)\n      0x20\n      dup2\n      dup4\n      sub\n      sub\n      dup2\n      mstore\n      swap1\n      0x40\n      mstore\n        /* \"Evm/core/base/vault.sol\":2602:2655  IEvents.Data(\"amount\", \"uint256\", abi.encode(amount)) */\n      dup2\n      mstore\n      pop\n        /* \"Evm/core/base/vault.sol\":2587:2596  eventData */\n      dup2\n        /* \"Evm/core/base/vault.sol\":2597:2598  1 */\n      0x01\n        /* \"Evm/core/base/vault.sol\":2587:2599  eventData[1] */\n      dup2\n      mload\n      dup2\n      lt\n      tag_114\n      jumpi\n      tag_115\n      tag_112\n      jump\t// in\n    tag_115:\n    tag_114:\n      0x20\n      mul\n      0x20\n      add\n      add\n        /* \"Evm/core/base/vault.sol\":2587:2655  eventData[1] = IEvents.Data(\"amount\", \"uint256\", abi.encode(amount)) */\n      dup2\n      swap1\n      mstore\n      pop\n        /* \"Evm/core/base/vault.sol\":2681:2735  IEvents.Data(\"token\", \"string\", abi.encode(assetName)) */\n      mload(0x40)\n      dup1\n      0x60\n      add\n      0x40\n      mstore\n      dup1\n      mload(0x40)\n      dup1\n      0x40\n      add\n      0x40\n      mstore\n      dup1\n      0x05\n      dup2\n      mstore\n      0x20\n      add\n      0x746f6b656e000000000000000000000000000000000000000000000000000000\n      dup2\n      mstore\n      pop\n      dup2\n      mstore\n      0x20\n      add\n      mload(0x40)\n      dup1\n      0x40\n      add\n      0x40\n      mstore\n      dup1\n      0x06\n      dup2\n      mstore\n      0x20\n      add\n      0x737472696e670000000000000000000000000000000000000000000000000000\n      dup2\n      mstore\n      pop\n      dup2\n      mstore\n      0x20\n      add\n        /* \"Evm/core/base/vault.sol\":2724:2733  assetName */\n      dup8\n      dup8\n        /* \"Evm/core/base/vault.sol\":2713:2734  abi.encode(assetName) */\n      add(0x20, mload(0x40))\n      tag_116\n      swap3\n      swap2\n      swap1\n      tag_117\n      jump\t// in\n    tag_116:\n      mload(0x40)\n      0x20\n      dup2\n      dup4\n      sub\n      sub\n      dup2\n      mstore\n      swap1\n      0x40\n      mstore\n        /* \"Evm/core/base/vault.sol\":2681:2735  IEvents.Data(\"token\", \"string\", abi.encode(assetName)) */\n      dup2\n      mstore\n      pop\n        /* \"Evm/core/base/vault.sol\":2666:2675  eventData */\n      dup2\n        /* \"Evm/core/base/vault.sol\":2676:2677  2 */\n      0x02\n        /* \"Evm/core/base/vault.sol\":2666:2678  eventData[2] */\n      dup2\n      mload\n      dup2\n      lt\n      tag_118\n      jumpi\n      tag_119\n      tag_112\n      jump\t// in\n    tag_119:\n    tag_118:\n      0x20\n      mul\n      0x20\n      add\n      add\n        /* \"Evm/core/base/vault.sol\":2666:2735  eventData[2] = IEvents.Data(\"token\", \"string\", abi.encode(assetName)) */\n      dup2\n      swap1\n      mstore\n      pop\n        /* \"Evm/core/base/vault.sol\":2761:2821  IEvents.Data(\"provider\", \"string\", abi.encode(providerName)) */\n      mload(0x40)\n      dup1\n      0x60\n      add\n      0x40\n      mstore\n      dup1\n      mload(0x40)\n      dup1\n      0x40\n      add\n      0x40\n      mstore\n      dup1\n      0x08\n      dup2\n      mstore\n      0x20\n      add\n      0x70726f7669646572000000000000000000000000000000000000000000000000\n      dup2\n      mstore\n      pop\n      dup2\n      mstore\n      0x20\n      add\n      mload(0x40)\n      dup1\n      0x40\n      add\n      0x40\n      mstore\n      dup1\n      0x06\n      dup2\n      mstore\n      0x20\n      add\n      0x737472696e670000000000000000000000000000000000000000000000000000\n      dup2\n      mstore\n      pop\n      dup2\n      mstore\n      0x20\n      add\n        /* \"Evm/core/base/vault.sol\":2807:2819  providerName */\n      0x01\n        /* \"Evm/core/base/vault.sol\":2796:2820  abi.encode(providerName) */\n      add(0x20, mload(0x40))\n      tag_120\n      swap2\n      swap1\n      tag_121\n      jump\t// in\n    tag_120:\n      mload(0x40)\n      0x20\n      dup2\n      dup4\n      sub\n      sub\n      dup2\n      mstore\n      swap1\n      0x40\n      mstore\n        /* \"Evm/core/base/vault.sol\":2761:2821  IEvents.Data(\"provider\", \"string\", abi.encode(providerName)) */\n      dup2\n      mstore\n      pop\n        /* \"Evm/core/base/vault.sol\":2746:2755  eventData */\n      dup2\n        /* \"Evm/core/base/vault.sol\":2756:2757  3 */\n      0x03\n        /* \"Evm/core/base/vault.sol\":2746:2758  eventData[3] */\n      dup2\n      mload\n      dup2\n      lt\n      tag_122\n      jumpi\n      tag_123\n      tag_112\n      jump\t// in\n    tag_123:\n    tag_122:\n      0x20\n      mul\n      0x20\n      add\n      add\n        /* \"Evm/core/base/vault.sol\":2746:2821  eventData[3] = IEvents.Data(\"provider\", \"string\", abi.encode(providerName)) */\n      dup2\n      swap1\n      mstore\n      pop\n        /* \"Evm/core/base/vault.sol\":2847:2906  IEvents.Data(\"nullifier\", \"uint256\", abi.encode(nullifier)) */\n      mload(0x40)\n      dup1\n      0x60\n      add\n      0x40\n      mstore\n      dup1\n      mload(0x40)\n      dup1\n      0x40\n      add\n      0x40\n      mstore\n      dup1\n      0x09\n      dup2\n      mstore\n      0x20\n      add\n      0x6e756c6c69666965720000000000000000000000000000000000000000000000\n      dup2\n      mstore\n      pop\n      dup2\n      mstore\n      0x20\n      add\n      mload(0x40)\n      dup1\n      0x40\n      add\n      0x40\n      mstore\n      dup1\n      0x07\n      dup2\n      mstore\n      0x20\n      add\n      0x75696e7432353600000000000000000000000000000000000000000000000000\n      dup2\n      mstore\n      pop\n      dup2\n      mstore\n      0x20\n      add\n        /* \"Evm/core/base/vault.sol\":2895:2904  nullifier */\n      dup5\n        /* \"Evm/core/base/vault.sol\":2884:2905  abi.encode(nullifier) */\n      add(0x20, mload(0x40))\n      tag_124\n      swap2\n      swap1\n      tag_45\n      jump\t// in\n    tag_124:\n      mload(0x40)\n      0x20\n      dup2\n      dup4\n      sub\n      sub\n      dup2\n      mstore\n      swap1\n      0x40\n      mstore\n        /* \"Evm/core/base/vault.sol\":2847:2906  IEvents.Data(\"nullifier\", \"uint256\", abi.encode(nullifier)) */\n      dup2\n      mstore\n      pop\n        /* \"Evm/core/base/vault.sol\":2832:2841  eventData */\n      dup2\n        /* \"Evm/core/base/vault.sol\":2842:2843  4 */\n      0x04\n        /* \"Evm/core/base/vault.sol\":2832:2844  eventData[4] */\n      dup2\n      mload\n      dup2\n      lt\n      tag_125\n      jumpi\n      tag_126\n      tag_112\n      jump\t// in\n    tag_126:\n    tag_125:\n      0x20\n      mul\n      0x20\n      add\n      add\n        /* \"Evm/core/base/vault.sol\":2832:2906  eventData[4] = IEvents.Data(\"nullifier\", \"uint256\", abi.encode(nullifier)) */\n      dup2\n      swap1\n      mstore\n      pop\n        /* \"Evm/core/base/vault.sol\":2932:2994  IEvents.Data(\"timestamp\", \"u256\", abi.encode(block.timestamp)) */\n      mload(0x40)\n      dup1\n      0x60\n      add\n      0x40\n      mstore\n      dup1\n      mload(0x40)\n      dup1\n      0x40\n      add\n      0x40\n      mstore\n      dup1\n      0x09\n      dup2\n      mstore\n      0x20\n      add\n      0x74696d657374616d700000000000000000000000000000000000000000000000\n      dup2\n      mstore\n      pop\n      dup2\n      mstore\n      0x20\n      add\n      mload(0x40)\n      dup1\n      0x40\n      add\n      0x40\n      mstore\n      dup1\n      0x04\n      dup2\n      mstore\n      0x20\n      add\n      0x7532353600000000000000000000000000000000000000000000000000000000\n      dup2\n      mstore\n      pop\n      dup2\n      mstore\n      0x20\n      add\n        /* \"Evm/core/base/vault.sol\":2977:2992  block.timestamp */\n      timestamp\n        /* \"Evm/core/base/vault.sol\":2966:2993  abi.encode(block.timestamp) */\n      add(0x20, mload(0x40))\n      tag_127\n      swap2\n      swap1\n      tag_45\n      jump\t// in\n    tag_127:\n      mload(0x40)\n      0x20\n      dup2\n      dup4\n      sub\n      sub\n      dup2\n      mstore\n      swap1\n      0x40\n      mstore\n        /* \"Evm/core/base/vault.sol\":2932:2994  IEvents.Data(\"timestamp\", \"u256\", abi.encode(block.timestamp)) */\n      dup2\n      mstore\n      pop\n        /* \"Evm/core/base/vault.sol\":2917:2926  eventData */\n      dup2\n        /* \"Evm/core/base/vault.sol\":2927:2928  5 */\n      0x05\n        /* \"Evm/core/base/vault.sol\":2917:2929  eventData[5] */\n      dup2\n      mload\n      dup2\n      lt\n      tag_128\n      jumpi\n      tag_129\n      tag_112\n      jump\t// in\n    tag_129:\n    tag_128:\n      0x20\n      mul\n      0x20\n      add\n      add\n        /* \"Evm/core/base/vault.sol\":2917:2994  eventData[5] = IEvents.Data(\"timestamp\", \"u256\", abi.encode(block.timestamp)) */\n      dup2\n      swap1\n      mstore\n      pop\n        /* \"Evm/core/base/vault.sol\":3061:3067  events */\n      immutable(\"0xa55f93089260f97cd16ec7a717e7ade24f99065bc4509014bd14fefe4d832ab6\")\n        /* \"Evm/core/base/vault.sol\":3061:3082  events.emitVaultEvent */\n      0xffffffffffffffffffffffffffffffffffffffff\n      and\n      0x7d64fa9b\n        /* \"Evm/core/base/vault.sol\":3112:3121  eventData */\n      dup3\n        /* \"Evm/core/base/vault.sol\":3061:3122  events.emitVaultEvent(\"Grant Withdraw Permission\", eventData) */\n      mload(0x40)\n      dup3\n      0xffffffff\n      and\n      0xe0\n      shl\n      dup2\n      mstore\n      0x04\n      add\n      tag_130\n      swap2\n      swap1\n      tag_131\n      jump\t// in\n    tag_130:\n      0x00\n      mload(0x40)\n      dup1\n      dup4\n      sub\n      dup2\n      0x00\n      dup8\n      dup1\n      extcodesize\n      iszero\n      dup1\n      iszero\n      tag_132\n      jumpi\n      revert(0x00, 0x00)\n    tag_132:\n      pop\n      gas\n      call\n      iszero\n      dup1\n      iszero\n      tag_134\n      jumpi\n      returndatacopy(0x00, 0x00, returndatasize)\n      revert(0x00, returndatasize)\n    tag_134:\n      pop\n      pop\n      pop\n      pop\n        /* \"Evm/core/base/vault.sol\":2243:3130  {... */\n      pop\n      pop\n        /* \"Evm/core/base/vault.sol\":2113:3130  function grantWithdrawalPermission(address user, string calldata assetName, uint256 amount, uint256 nullifier) external onlyOwner {... */\n      pop\n      pop\n      pop\n      pop\n      pop\n      jump\t// out\n        /* \"@openzeppelin/contracts/access/Ownable.sol\":2293:2394  function renounceOwnership() public virtual onlyOwner {... */\n    tag_39:\n        /* \"@openzeppelin/contracts/access/Ownable.sol\":1531:1544  _checkOwner() */\n      tag_136\n        /* \"@openzeppelin/contracts/access/Ownable.sol\":1531:1542  _checkOwner */\n      tag_94\n        /* \"@openzeppelin/contracts/access/Ownable.sol\":1531:1544  _checkOwner() */\n      jump\t// in\n    tag_136:\n        /* \"@openzeppelin/contracts/access/Ownable.sol\":2357:2387  _transferOwnership(address(0)) */\n      tag_138\n        /* \"@openzeppelin/contracts/access/Ownable.sol\":2384:2385  0 */\n      0x00\n        /* \"@openzeppelin/contracts/access/Ownable.sol\":2357:2375  _transferOwnership */\n      tag_139\n        /* \"@openzeppelin/contracts/access/Ownable.sol\":2357:2387  _transferOwnership(address(0)) */\n      jump\t// in\n    tag_138:\n        /* \"@openzeppelin/contracts/access/Ownable.sol\":2293:2394  function renounceOwnership() public virtual onlyOwner {... */\n      jump\t// out\n        /* \"Evm/core/base/vault.sol\":819:891  mapping(address => mapping(address => uint256)) public claimableBalances */\n    tag_43:\n      mstore(0x20, 0x03)\n      dup2\n      0x00\n      mstore\n      mstore(0x20, keccak256(0x00, 0x40))\n      dup1\n      0x00\n      mstore\n      keccak256(0x00, 0x40)\n      0x00\n      swap2\n      pop\n      swap2\n      pop\n      pop\n      sload\n      dup2\n      jump\t// out\n        /* \"Evm/core/base/vault.sol\":4135:5174  function withdraw(string calldata assetName, uint256 amount, address receiver) external {... */\n    tag_49:\n        /* \"Evm/core/base/vault.sol\":4234:4247  address token */\n      0x00\n        /* \"Evm/core/base/vault.sol\":4250:4273  resolveAsset(assetName) */\n      tag_141\n        /* \"Evm/core/base/vault.sol\":4263:4272  assetName */\n      dup6\n      dup6\n        /* \"Evm/core/base/vault.sol\":4250:4273  resolveAsset(assetName) */\n      dup1\n      dup1\n      0x1f\n      add\n      0x20\n      dup1\n      swap2\n      div\n      mul\n      0x20\n      add\n      mload(0x40)\n      swap1\n      dup2\n      add\n      0x40\n      mstore\n      dup1\n      swap4\n      swap3\n      swap2\n      swap1\n      dup2\n      dup2\n      mstore\n      0x20\n      add\n      dup4\n      dup4\n      dup1\n      dup3\n      dup5\n      calldatacopy\n      0x00\n      dup2\n      dup5\n      add\n      mstore\n      not(0x1f)\n      0x1f\n      dup3\n      add\n      and\n      swap1\n      pop\n      dup1\n      dup4\n      add\n      swap3\n      pop\n      pop\n      pop\n      pop\n      pop\n      pop\n      pop\n        /* \"Evm/core/base/vault.sol\":4250:4262  resolveAsset */\n      tag_25\n        /* \"Evm/core/base/vault.sol\":4250:4273  resolveAsset(assetName) */\n      jump\t// in\n    tag_141:\n        /* \"Evm/core/base/vault.sol\":4234:4273  address token = resolveAsset(assetName) */\n      swap1\n      pop\n        /* \"Evm/core/base/vault.sol\":4292:4308  isSupportedToken */\n      0x02\n        /* \"Evm/core/base/vault.sol\":4292:4315  isSupportedToken[token] */\n      0x00\n        /* \"Evm/core/base/vault.sol\":4309:4314  token */\n      dup3\n        /* \"Evm/core/base/vault.sol\":4292:4315  isSupportedToken[token] */\n      0xffffffffffffffffffffffffffffffffffffffff\n      and\n      0xffffffffffffffffffffffffffffffffffffffff\n      and\n      dup2\n      mstore\n      0x20\n      add\n      swap1\n      dup2\n      mstore\n      0x20\n      add\n      0x00\n      keccak256\n      0x00\n      swap1\n      sload\n      swap1\n      0x0100\n      exp\n      swap1\n      div\n      0xff\n      and\n        /* \"Evm/core/base/vault.sol\":4284:4346  require(isSupportedToken[token], \"Vault: Token not supported\") */\n      tag_142\n      jumpi\n      mload(0x40)\n      0x08c379a000000000000000000000000000000000000000000000000000000000\n      dup2\n      mstore\n      0x04\n      add\n      tag_143\n      swap1\n      tag_99\n      jump\t// in\n    tag_143:\n      mload(0x40)\n      dup1\n      swap2\n      sub\n      swap1\n      revert\n    tag_142:\n        /* \"Evm/core/base/vault.sol\":4375:4392  claimableBalances */\n      0x03\n        /* \"Evm/core/base/vault.sol\":4375:4404  claimableBalances[msg.sender] */\n      0x00\n        /* \"Evm/core/base/vault.sol\":4393:4403  msg.sender */\n      caller\n        /* \"Evm/core/base/vault.sol\":4375:4404  claimableBalances[msg.sender] */\n      0xffffffffffffffffffffffffffffffffffffffff\n      and\n      0xffffffffffffffffffffffffffffffffffffffff\n      and\n      dup2\n      mstore\n      0x20\n      add\n      swap1\n      dup2\n      mstore\n      0x20\n      add\n      0x00\n      keccak256\n        /* \"Evm/core/base/vault.sol\":4375:4411  claimableBalances[msg.sender][token] */\n      0x00\n        /* \"Evm/core/base/vault.sol\":4405:4410  token */\n      dup3\n        /* \"Evm/core/base/vault.sol\":4375:4411  claimableBalances[msg.sender][token] */\n      0xffffffffffffffffffffffffffffffffffffffff\n      and\n      0xffffffffffffffffffffffffffffffffffffffff\n      and\n      dup2\n      mstore\n      0x20\n      add\n      swap1\n      dup2\n      mstore\n      0x20\n      add\n      0x00\n      keccak256\n      sload\n        /* \"Evm/core/base/vault.sol\":4365:4371  amount */\n      dup4\n        /* \"Evm/core/base/vault.sol\":4365:4411  amount <= claimableBalances[msg.sender][token] */\n      gt\n      iszero\n        /* \"Evm/core/base/vault.sol\":4357:4443  require(amount <= claimableBalances[msg.sender][token], \"Vault: Insufficient balance\") */\n      tag_144\n      jumpi\n      mload(0x40)\n      0x08c379a000000000000000000000000000000000000000000000000000000000\n      dup2\n      mstore\n      0x04\n      add\n      tag_145\n      swap1\n      tag_146\n      jump\t// in\n    tag_145:\n      mload(0x40)\n      dup1\n      swap2\n      sub\n      swap1\n      revert\n    tag_144:\n        /* \"Evm/core/base/vault.sol\":4504:4510  amount */\n      dup3\n        /* \"Evm/core/base/vault.sol\":4464:4481  claimableBalances */\n      0x03\n        /* \"Evm/core/base/vault.sol\":4464:4493  claimableBalances[msg.sender] */\n      0x00\n        /* \"Evm/core/base/vault.sol\":4482:4492  msg.sender */\n      caller\n        /* \"Evm/core/base/vault.sol\":4464:4493  claimableBalances[msg.sender] */\n      0xffffffffffffffffffffffffffffffffffffffff\n      and\n      0xffffffffffffffffffffffffffffffffffffffff\n      and\n      dup2\n      mstore\n      0x20\n      add\n      swap1\n      dup2\n      mstore\n      0x20\n      add\n      0x00\n      keccak256\n        /* \"Evm/core/base/vault.sol\":4464:4500  claimableBalances[msg.sender][token] */\n      0x00\n        /* \"Evm/core/base/vault.sol\":4494:4499  token */\n      dup4\n        /* \"Evm/core/base/vault.sol\":4464:4500  claimableBalances[msg.sender][token] */\n      0xffffffffffffffffffffffffffffffffffffffff\n      and\n      0xffffffffffffffffffffffffffffffffffffffff\n      and\n      dup2\n      mstore\n      0x20\n      add\n      swap1\n      dup2\n      mstore\n      0x20\n      add\n      0x00\n      keccak256\n      0x00\n        /* \"Evm/core/base/vault.sol\":4464:4510  claimableBalances[msg.sender][token] -= amount */\n      dup3\n      dup3\n      sload\n      tag_147\n      swap2\n      swap1\n      tag_148\n      jump\t// in\n    tag_147:\n      swap3\n      pop\n      pop\n      dup2\n      swap1\n      sstore\n      pop\n        /* \"Evm/core/base/vault.sol\":4521:4565  IERC20(token).safeTransfer(receiver, amount) */\n      tag_149\n        /* \"Evm/core/base/vault.sol\":4548:4556  receiver */\n      dup3\n        /* \"Evm/core/base/vault.sol\":4558:4564  amount */\n      dup5\n        /* \"Evm/core/base/vault.sol\":4528:4533  token */\n      dup4\n        /* \"Evm/core/base/vault.sol\":4521:4547  IERC20(token).safeTransfer */\n      0xffffffffffffffffffffffffffffffffffffffff\n      and\n      tag_150\n      swap1\n        /* \"Evm/core/base/vault.sol\":4521:4565  IERC20(token).safeTransfer(receiver, amount) */\n      swap3\n      swap2\n      swap1\n      0xffffffff\n      and\n      jump\t// in\n    tag_149:\n        /* \"Evm/core/base/vault.sol\":4586:4617  IEvents.Data[] memory eventData */\n      0x00\n        /* \"Evm/core/base/vault.sol\":4639:4640  5 */\n      0x05\n        /* \"Evm/core/base/vault.sol\":4620:4641  new IEvents.Data[](5) */\n      0xffffffffffffffff\n      dup2\n      gt\n      iszero\n      tag_151\n      jumpi\n      tag_152\n      tag_104\n      jump\t// in\n    tag_152:\n    tag_151:\n      mload(0x40)\n      swap1\n      dup1\n      dup3\n      mstore\n      dup1\n      0x20\n      mul\n      0x20\n      add\n      dup3\n      add\n      0x40\n      mstore\n      dup1\n      iszero\n      tag_153\n      jumpi\n      dup2\n      0x20\n      add\n    tag_154:\n      tag_155\n      tag_108\n      jump\t// in\n    tag_155:\n      dup2\n      mstore\n      0x20\n      add\n      swap1\n      0x01\n      swap1\n      sub\n      swap1\n      dup2\n      tag_154\n      jumpi\n      swap1\n      pop\n    tag_153:\n      pop\n        /* \"Evm/core/base/vault.sol\":4586:4641  IEvents.Data[] memory eventData = new IEvents.Data[](5) */\n      swap1\n      pop\n        /* \"Evm/core/base/vault.sol\":4667:4722  IEvents.Data(\"user\", \"address\", abi.encode(msg.sender)) */\n      mload(0x40)\n      dup1\n      0x60\n      add\n      0x40\n      mstore\n      dup1\n      mload(0x40)\n      dup1\n      0x40\n      add\n      0x40\n      mstore\n      dup1\n      0x04\n      dup2\n      mstore\n      0x20\n      add\n      0x7573657200000000000000000000000000000000000000000000000000000000\n      dup2\n      mstore\n      pop\n      dup2\n      mstore\n      0x20\n      add\n      mload(0x40)\n      dup1\n      0x40\n      add\n      0x40\n      mstore\n      dup1\n      0x07\n      dup2\n      mstore\n      0x20\n      add\n      0x6164647265737300000000000000000000000000000000000000000000000000\n      dup2\n      mstore\n      pop\n      dup2\n      mstore\n      0x20\n      add\n        /* \"Evm/core/base/vault.sol\":4710:4720  msg.sender */\n      caller\n        /* \"Evm/core/base/vault.sol\":4699:4721  abi.encode(msg.sender) */\n      add(0x20, mload(0x40))\n      tag_156\n      swap2\n      swap1\n      tag_27\n      jump\t// in\n    tag_156:\n      mload(0x40)\n      0x20\n      dup2\n      dup4\n      sub\n      sub\n      dup2\n      mstore\n      swap1\n      0x40\n      mstore\n        /* \"Evm/core/base/vault.sol\":4667:4722  IEvents.Data(\"user\", \"address\", abi.encode(msg.sender)) */\n      dup2\n      mstore\n      pop\n        /* \"Evm/core/base/vault.sol\":4652:4661  eventData */\n      dup2\n        /* \"Evm/core/base/vault.sol\":4662:4663  0 */\n      0x00\n        /* \"Evm/core/base/vault.sol\":4652:4664  eventData[0] */\n      dup2\n      mload\n      dup2\n      lt\n      tag_157\n      jumpi\n      tag_158\n      tag_112\n      jump\t// in\n    tag_158:\n    tag_157:\n      0x20\n      mul\n      0x20\n      add\n      add\n        /* \"Evm/core/base/vault.sol\":4652:4722  eventData[0] = IEvents.Data(\"user\", \"address\", abi.encode(msg.sender)) */\n      dup2\n      swap1\n      mstore\n      pop\n        /* \"Evm/core/base/vault.sol\":4748:4801  IEvents.Data(\"amount\", \"uint256\", abi.encode(amount)) */\n      mload(0x40)\n      dup1\n      0x60\n      add\n      0x40\n      mstore\n      dup1\n      mload(0x40)\n      dup1\n      0x40\n      add\n      0x40\n      mstore\n      dup1\n      0x06\n      dup2\n      mstore\n      0x20\n      add\n      0x616d6f756e740000000000000000000000000000000000000000000000000000\n      dup2\n      mstore\n      pop\n      dup2\n      mstore\n      0x20\n      add\n      mload(0x40)\n      dup1\n      0x40\n      add\n      0x40\n      mstore\n      dup1\n      0x07\n      dup2\n      mstore\n      0x20\n      add\n      0x75696e7432353600000000000000000000000000000000000000000000000000\n      dup2\n      mstore\n      pop\n      dup2\n      mstore\n      0x20\n      add\n        /* \"Evm/core/base/vault.sol\":4793:4799  amount */\n      dup6\n        /* \"Evm/core/base/vault.sol\":4782:4800  abi.encode(amount) */\n      add(0x20, mload(0x40))\n      tag_159\n      swap2\n      swap1\n      tag_45\n      jump\t// in\n    tag_159:\n      mload(0x40)\n      0x20\n      dup2\n      dup4\n      sub\n      sub\n      dup2\n      mstore\n      swap1\n      0x40\n      mstore\n        /* \"Evm/core/base/vault.sol\":4748:4801  IEvents.Data(\"amount\", \"uint256\", abi.encode(amount)) */\n      dup2\n      mstore\n      pop\n        /* \"Evm/core/base/vault.sol\":4733:4742  eventData */\n      dup2\n        /* \"Evm/core/base/vault.sol\":4743:4744  1 */\n      0x01\n        /* \"Evm/core/base/vault.sol\":4733:4745  eventData[1] */\n      dup2\n      mload\n      dup2\n      lt\n      tag_160\n      jumpi\n      tag_161\n      tag_112\n      jump\t// in\n    tag_161:\n    tag_160:\n      0x20\n      mul\n      0x20\n      add\n      add\n        /* \"Evm/core/base/vault.sol\":4733:4801  eventData[1] = IEvents.Data(\"amount\", \"uint256\", abi.encode(amount)) */\n      dup2\n      swap1\n      mstore\n      pop\n        /* \"Evm/core/base/vault.sol\":4827:4881  IEvents.Data(\"token\", \"string\", abi.encode(assetName)) */\n      mload(0x40)\n      dup1\n      0x60\n      add\n      0x40\n      mstore\n      dup1\n      mload(0x40)\n      dup1\n      0x40\n      add\n      0x40\n      mstore\n      dup1\n      0x05\n      dup2\n      mstore\n      0x20\n      add\n      0x746f6b656e000000000000000000000000000000000000000000000000000000\n      dup2\n      mstore\n      pop\n      dup2\n      mstore\n      0x20\n      add\n      mload(0x40)\n      dup1\n      0x40\n      add\n      0x40\n      mstore\n      dup1\n      0x06\n      dup2\n      mstore\n      0x20\n      add\n      0x737472696e670000000000000000000000000000000000000000000000000000\n      dup2\n      mstore\n      pop\n      dup2\n      mstore\n      0x20\n      add\n        /* \"Evm/core/base/vault.sol\":4870:4879  assetName */\n      dup8\n      dup8\n        /* \"Evm/core/base/vault.sol\":4859:4880  abi.encode(assetName) */\n      add(0x20, mload(0x40))\n      tag_162\n      swap3\n      swap2\n      swap1\n      tag_117\n      jump\t// in\n    tag_162:\n      mload(0x40)\n      0x20\n      dup2\n      dup4\n      sub\n      sub\n      dup2\n      mstore\n      swap1\n      0x40\n      mstore\n        /* \"Evm/core/base/vault.sol\":4827:4881  IEvents.Data(\"token\", \"string\", abi.encode(assetName)) */\n      dup2\n      mstore\n      pop\n        /* \"Evm/core/base/vault.sol\":4812:4821  eventData */\n      dup2\n        /* \"Evm/core/base/vault.sol\":4822:4823  2 */\n      0x02\n        /* \"Evm/core/base/vault.sol\":4812:4824  eventData[2] */\n      dup2\n      mload\n      dup2\n      lt\n      tag_163\n      jumpi\n      tag_164\n      tag_112\n      jump\t// in\n    tag_164:\n    tag_163:\n      0x20\n      mul\n      0x20\n      add\n      add\n        /* \"Evm/core/base/vault.sol\":4812:4881  eventData[2] = IEvents.Data(\"token\", \"string\", abi.encode(assetName)) */\n      dup2\n      swap1\n      mstore\n      pop\n        /* \"Evm/core/base/vault.sol\":4907:4967  IEvents.Data(\"provider\", \"string\", abi.encode(providerName)) */\n      mload(0x40)\n      dup1\n      0x60\n      add\n      0x40\n      mstore\n      dup1\n      mload(0x40)\n      dup1\n      0x40\n      add\n      0x40\n      mstore\n      dup1\n      0x08\n      dup2\n      mstore\n      0x20\n      add\n      0x70726f7669646572000000000000000000000000000000000000000000000000\n      dup2\n      mstore\n      pop\n      dup2\n      mstore\n      0x20\n      add\n      mload(0x40)\n      dup1\n      0x40\n      add\n      0x40\n      mstore\n      dup1\n      0x06\n      dup2\n      mstore\n      0x20\n      add\n      0x737472696e670000000000000000000000000000000000000000000000000000\n      dup2\n      mstore\n      pop\n      dup2\n      mstore\n      0x20\n      add\n        /* \"Evm/core/base/vault.sol\":4953:4965  providerName */\n      0x01\n        /* \"Evm/core/base/vault.sol\":4942:4966  abi.encode(providerName) */\n      add(0x20, mload(0x40))\n      tag_165\n      swap2\n      swap1\n      tag_121\n      jump\t// in\n    tag_165:\n      mload(0x40)\n      0x20\n      dup2\n      dup4\n      sub\n      sub\n      dup2\n      mstore\n      swap1\n      0x40\n      mstore\n        /* \"Evm/core/base/vault.sol\":4907:4967  IEvents.Data(\"provider\", \"string\", abi.encode(providerName)) */\n      dup2\n      mstore\n      pop\n        /* \"Evm/core/base/vault.sol\":4892:4901  eventData */\n      dup2\n        /* \"Evm/core/base/vault.sol\":4902:4903  3 */\n      0x03\n        /* \"Evm/core/base/vault.sol\":4892:4904  eventData[3] */\n      dup2\n      mload\n      dup2\n      lt\n      tag_166\n      jumpi\n      tag_167\n      tag_112\n      jump\t// in\n    tag_167:\n    tag_166:\n      0x20\n      mul\n      0x20\n      add\n      add\n        /* \"Evm/core/base/vault.sol\":4892:4967  eventData[3] = IEvents.Data(\"provider\", \"string\", abi.encode(providerName)) */\n      dup2\n      swap1\n      mstore\n      pop\n        /* \"Evm/core/base/vault.sol\":4993:5055  IEvents.Data(\"timestamp\", \"u256\", abi.encode(block.timestamp)) */\n      mload(0x40)\n      dup1\n      0x60\n      add\n      0x40\n      mstore\n      dup1\n      mload(0x40)\n      dup1\n      0x40\n      add\n      0x40\n      mstore\n      dup1\n      0x09\n      dup2\n      mstore\n      0x20\n      add\n      0x74696d657374616d700000000000000000000000000000000000000000000000\n      dup2\n      mstore\n      pop\n      dup2\n      mstore\n      0x20\n      add\n      mload(0x40)\n      dup1\n      0x40\n      add\n      0x40\n      mstore\n      dup1\n      0x04\n      dup2\n      mstore\n      0x20\n      add\n      0x7532353600000000000000000000000000000000000000000000000000000000\n      dup2\n      mstore\n      pop\n      dup2\n      mstore\n      0x20\n      add\n        /* \"Evm/core/base/vault.sol\":5038:5053  block.timestamp */\n      timestamp\n        /* \"Evm/core/base/vault.sol\":5027:5054  abi.encode(block.timestamp) */\n      add(0x20, mload(0x40))\n      tag_168\n      swap2\n      swap1\n      tag_45\n      jump\t// in\n    tag_168:\n      mload(0x40)\n      0x20\n      dup2\n      dup4\n      sub\n      sub\n      dup2\n      mstore\n      swap1\n      0x40\n      mstore\n        /* \"Evm/core/base/vault.sol\":4993:5055  IEvents.Data(\"timestamp\", \"u256\", abi.encode(block.timestamp)) */\n      dup2\n      mstore\n      pop\n        /* \"Evm/core/base/vault.sol\":4978:4987  eventData */\n      dup2\n        /* \"Evm/core/base/vault.sol\":4988:4989  4 */\n      0x04\n        /* \"Evm/core/base/vault.sol\":4978:4990  eventData[4] */\n      dup2\n      mload\n      dup2\n      lt\n      tag_169\n      jumpi\n      tag_170\n      tag_112\n      jump\t// in\n    tag_170:\n    tag_169:\n      0x20\n      mul\n      0x20\n      add\n      add\n        /* \"Evm/core/base/vault.sol\":4978:5055  eventData[4] = IEvents.Data(\"timestamp\", \"u256\", abi.encode(block.timestamp)) */\n      dup2\n      swap1\n      mstore\n      pop\n        /* \"Evm/core/base/vault.sol\":5122:5128  events */\n      immutable(\"0xa55f93089260f97cd16ec7a717e7ade24f99065bc4509014bd14fefe4d832ab6\")\n        /* \"Evm/core/base/vault.sol\":5122:5143  events.emitVaultEvent */\n      0xffffffffffffffffffffffffffffffffffffffff\n      and\n      0x7d64fa9b\n        /* \"Evm/core/base/vault.sol\":5156:5165  eventData */\n      dup3\n        /* \"Evm/core/base/vault.sol\":5122:5166  events.emitVaultEvent(\"Withdraw\", eventData) */\n      mload(0x40)\n      dup3\n      0xffffffff\n      and\n      0xe0\n      shl\n      dup2\n      mstore\n      0x04\n      add\n      tag_171\n      swap2\n      swap1\n      tag_172\n      jump\t// in\n    tag_171:\n      0x00\n      mload(0x40)\n      dup1\n      dup4\n      sub\n      dup2\n      0x00\n      dup8\n      dup1\n      extcodesize\n      iszero\n      dup1\n      iszero\n      tag_173\n      jumpi\n      revert(0x00, 0x00)\n    tag_173:\n      pop\n      gas\n      call\n      iszero\n      dup1\n      iszero\n      tag_175\n      jumpi\n      returndatacopy(0x00, 0x00, returndatasize)\n      revert(0x00, returndatasize)\n    tag_175:\n      pop\n      pop\n      pop\n      pop\n        /* \"Evm/core/base/vault.sol\":4223:5174  {... */\n      pop\n      pop\n        /* \"Evm/core/base/vault.sol\":4135:5174  function withdraw(string calldata assetName, uint256 amount, address receiver) external {... */\n      pop\n      pop\n      pop\n      pop\n      jump\t// out\n        /* \"@openzeppelin/contracts/access/Ownable.sol\":1638:1723  function owner() public view virtual returns (address) {... */\n    tag_51:\n        /* \"@openzeppelin/contracts/access/Ownable.sol\":1684:1691  address */\n      0x00\n        /* \"@openzeppelin/contracts/access/Ownable.sol\":1710:1716  _owner */\n      0x00\n      0x00\n      swap1\n      sload\n      swap1\n      0x0100\n      exp\n      swap1\n      div\n      0xffffffffffffffffffffffffffffffffffffffff\n      and\n        /* \"@openzeppelin/contracts/access/Ownable.sol\":1703:1716  return _owner */\n      swap1\n      pop\n        /* \"@openzeppelin/contracts/access/Ownable.sol\":1638:1723  function owner() public view virtual returns (address) {... */\n      swap1\n      jump\t// out\n        /* \"Evm/core/base/vault.sol\":3138:4127  function deposit(string calldata assetName, uint256 amount) external {... */\n    tag_56:\n        /* \"Evm/core/base/vault.sol\":3218:3231  address token */\n      0x00\n        /* \"Evm/core/base/vault.sol\":3234:3257  resolveAsset(assetName) */\n      tag_178\n        /* \"Evm/core/base/vault.sol\":3247:3256  assetName */\n      dup5\n      dup5\n        /* \"Evm/core/base/vault.sol\":3234:3257  resolveAsset(assetName) */\n      dup1\n      dup1\n      0x1f\n      add\n      0x20\n      dup1\n      swap2\n      div\n      mul\n      0x20\n      add\n      mload(0x40)\n      swap1\n      dup2\n      add\n      0x40\n      mstore\n      dup1\n      swap4\n      swap3\n      swap2\n      swap1\n      dup2\n      dup2\n      mstore\n      0x20\n      add\n      dup4\n      dup4\n      dup1\n      dup3\n      dup5\n      calldatacopy\n      0x00\n      dup2\n      dup5\n      add\n      mstore\n      not(0x1f)\n      0x1f\n      dup3\n      add\n      and\n      swap1\n      pop\n      dup1\n      dup4\n      add\n      swap3\n      pop\n      pop\n      pop\n      pop\n      pop\n      pop\n      pop\n        /* \"Evm/core/base/vault.sol\":3234:3246  resolveAsset */\n      tag_25\n        /* \"Evm/core/base/vault.sol\":3234:3257  resolveAsset(assetName) */\n      jump\t// in\n    tag_178:\n        /* \"Evm/core/base/vault.sol\":3218:3257  address token = resolveAsset(assetName) */\n      swap1\n      pop\n        /* \"Evm/core/base/vault.sol\":3276:3292  isSupportedToken */\n      0x02\n        /* \"Evm/core/base/vault.sol\":3276:3299  isSupportedToken[token] */\n      0x00\n        /* \"Evm/core/base/vault.sol\":3293:3298  token */\n      dup3\n        /* \"Evm/core/base/vault.sol\":3276:3299  isSupportedToken[token] */\n      0xffffffffffffffffffffffffffffffffffffffff\n      and\n      0xffffffffffffffffffffffffffffffffffffffff\n      and\n      dup2\n      mstore\n      0x20\n      add\n      swap1\n      dup2\n      mstore\n      0x20\n      add\n      0x00\n      keccak256\n      0x00\n      swap1\n      sload\n      swap1\n      0x0100\n      exp\n      swap1\n      div\n      0xff\n      and\n        /* \"Evm/core/base/vault.sol\":3268:3330  require(isSupportedToken[token], \"Vault: Token not supported\") */\n      tag_179\n      jumpi\n      mload(0x40)\n      0x08c379a000000000000000000000000000000000000000000000000000000000\n      dup2\n      mstore\n      0x04\n      add\n      tag_180\n      swap1\n      tag_99\n      jump\t// in\n    tag_180:\n      mload(0x40)\n      dup1\n      swap2\n      sub\n      swap1\n      revert\n    tag_179:\n        /* \"Evm/core/base/vault.sol\":3358:3359  0 */\n      0x00\n        /* \"Evm/core/base/vault.sol\":3349:3355  amount */\n      dup3\n        /* \"Evm/core/base/vault.sol\":3349:3359  amount > 0 */\n      gt\n        /* \"Evm/core/base/vault.sol\":3341:3390  require(amount > 0, \"Vault: Deposit must be > 0\") */\n      tag_181\n      jumpi\n      mload(0x40)\n      0x08c379a000000000000000000000000000000000000000000000000000000000\n      dup2\n      mstore\n      0x04\n      add\n      tag_182\n      swap1\n      tag_183\n      jump\t// in\n    tag_182:\n      mload(0x40)\n      dup1\n      swap2\n      sub\n      swap1\n      revert\n    tag_181:\n        /* \"Evm/core/base/vault.sol\":3403:3468  IERC20(token).safeTransferFrom(msg.sender, address(this), amount) */\n      tag_184\n        /* \"Evm/core/base/vault.sol\":3434:3444  msg.sender */\n      caller\n        /* \"Evm/core/base/vault.sol\":3454:3458  this */\n      address\n        /* \"Evm/core/base/vault.sol\":3461:3467  amount */\n      dup5\n        /* \"Evm/core/base/vault.sol\":3410:3415  token */\n      dup5\n        /* \"Evm/core/base/vault.sol\":3403:3433  IERC20(token).safeTransferFrom */\n      0xffffffffffffffffffffffffffffffffffffffff\n      and\n      tag_185\n      swap1\n        /* \"Evm/core/base/vault.sol\":3403:3468  IERC20(token).safeTransferFrom(msg.sender, address(this), amount) */\n      swap4\n      swap3\n      swap2\n      swap1\n      0xffffffff\n      and\n      jump\t// in\n    tag_184:\n        /* \"Evm/core/base/vault.sol\":3519:3525  amount */\n      dup2\n        /* \"Evm/core/base/vault.sol\":3479:3496  claimableBalances */\n      0x03\n        /* \"Evm/core/base/vault.sol\":3479:3508  claimableBalances[msg.sender] */\n      0x00\n        /* \"Evm/core/base/vault.sol\":3497:3507  msg.sender */\n      caller\n        /* \"Evm/core/base/vault.sol\":3479:3508  claimableBalances[msg.sender] */\n      0xffffffffffffffffffffffffffffffffffffffff\n      and\n      0xffffffffffffffffffffffffffffffffffffffff\n      and\n      dup2\n      mstore\n      0x20\n      add\n      swap1\n      dup2\n      mstore\n      0x20\n      add\n      0x00\n      keccak256\n        /* \"Evm/core/base/vault.sol\":3479:3515  claimableBalances[msg.sender][token] */\n      0x00\n        /* \"Evm/core/base/vault.sol\":3509:3514  token */\n      dup4\n        /* \"Evm/core/base/vault.sol\":3479:3515  claimableBalances[msg.sender][token] */\n      0xffffffffffffffffffffffffffffffffffffffff\n      and\n      0xffffffffffffffffffffffffffffffffffffffff\n      and\n      dup2\n      mstore\n      0x20\n      add\n      swap1\n      dup2\n      mstore\n      0x20\n      add\n      0x00\n      keccak256\n      0x00\n        /* \"Evm/core/base/vault.sol\":3479:3525  claimableBalances[msg.sender][token] += amount */\n      dup3\n      dup3\n      sload\n      tag_186\n      swap2\n      swap1\n      tag_101\n      jump\t// in\n    tag_186:\n      swap3\n      pop\n      pop\n      dup2\n      swap1\n      sstore\n      pop\n        /* \"Evm/core/base/vault.sol\":3538:3569  IEvents.Data[] memory eventData */\n      0x00\n        /* \"Evm/core/base/vault.sol\":3591:3592  5 */\n      0x05\n        /* \"Evm/core/base/vault.sol\":3572:3593  new IEvents.Data[](5) */\n      0xffffffffffffffff\n      dup2\n      gt\n      iszero\n      tag_187\n      jumpi\n      tag_188\n      tag_104\n      jump\t// in\n    tag_188:\n    tag_187:\n      mload(0x40)\n      swap1\n      dup1\n      dup3\n      mstore\n      dup1\n      0x20\n      mul\n      0x20\n      add\n      dup3\n      add\n      0x40\n      mstore\n      dup1\n      iszero\n      tag_189\n      jumpi\n      dup2\n      0x20\n      add\n    tag_190:\n      tag_191\n      tag_108\n      jump\t// in\n    tag_191:\n      dup2\n      mstore\n      0x20\n      add\n      swap1\n      0x01\n      swap1\n      sub\n      swap1\n      dup2\n      tag_190\n      jumpi\n      swap1\n      pop\n    tag_189:\n      pop\n        /* \"Evm/core/base/vault.sol\":3538:3593  IEvents.Data[] memory eventData = new IEvents.Data[](5) */\n      swap1\n      pop\n        /* \"Evm/core/base/vault.sol\":3619:3674  IEvents.Data(\"user\", \"address\", abi.encode(msg.sender)) */\n      mload(0x40)\n      dup1\n      0x60\n      add\n      0x40\n      mstore\n      dup1\n      mload(0x40)\n      dup1\n      0x40\n      add\n      0x40\n      mstore\n      dup1\n      0x04\n      dup2\n      mstore\n      0x20\n      add\n      0x7573657200000000000000000000000000000000000000000000000000000000\n      dup2\n      mstore\n      pop\n      dup2\n      mstore\n      0x20\n      add\n      mload(0x40)\n      dup1\n      0x40\n      add\n      0x40\n      mstore\n      dup1\n      0x07\n      dup2\n      mstore\n      0x20\n      add\n      0x6164647265737300000000000000000000000000000000000000000000000000\n      dup2\n      mstore\n      pop\n      dup2\n      mstore\n      0x20\n      add\n        /* \"Evm/core/base/vault.sol\":3662:3672  msg.sender */\n      caller\n        /* \"Evm/core/base/vault.sol\":3651:3673  abi.encode(msg.sender) */\n      add(0x20, mload(0x40))\n      tag_192\n      swap2\n      swap1\n      tag_27\n      jump\t// in\n    tag_192:\n      mload(0x40)\n      0x20\n      dup2\n      dup4\n      sub\n      sub\n      dup2\n      mstore\n      swap1\n      0x40\n      mstore\n        /* \"Evm/core/base/vault.sol\":3619:3674  IEvents.Data(\"user\", \"address\", abi.encode(msg.sender)) */\n      dup2\n      mstore\n      pop\n        /* \"Evm/core/base/vault.sol\":3604:3613  eventData */\n      dup2\n        /* \"Evm/core/base/vault.sol\":3614:3615  0 */\n      0x00\n        /* \"Evm/core/base/vault.sol\":3604:3616  eventData[0] */\n      dup2\n      mload\n      dup2\n      lt\n      tag_193\n      jumpi\n      tag_194\n      tag_112\n      jump\t// in\n    tag_194:\n    tag_193:\n      0x20\n      mul\n      0x20\n      add\n      add\n        /* \"Evm/core/base/vault.sol\":3604:3674  eventData[0] = IEvents.Data(\"user\", \"address\", abi.encode(msg.sender)) */\n      dup2\n      swap1\n      mstore\n      pop\n        /* \"Evm/core/base/vault.sol\":3700:3753  IEvents.Data(\"amount\", \"uint256\", abi.encode(amount)) */\n      mload(0x40)\n      dup1\n      0x60\n      add\n      0x40\n      mstore\n      dup1\n      mload(0x40)\n      dup1\n      0x40\n      add\n      0x40\n      mstore\n      dup1\n      0x06\n      dup2\n      mstore\n      0x20\n      add\n      0x616d6f756e740000000000000000000000000000000000000000000000000000\n      dup2\n      mstore\n      pop\n      dup2\n      mstore\n      0x20\n      add\n      mload(0x40)\n      dup1\n      0x40\n      add\n      0x40\n      mstore\n      dup1\n      0x07\n      dup2\n      mstore\n      0x20\n      add\n      0x75696e7432353600000000000000000000000000000000000000000000000000\n      dup2\n      mstore\n      pop\n      dup2\n      mstore\n      0x20\n      add\n        /* \"Evm/core/base/vault.sol\":3745:3751  amount */\n      dup5\n        /* \"Evm/core/base/vault.sol\":3734:3752  abi.encode(amount) */\n      add(0x20, mload(0x40))\n      tag_195\n      swap2\n      swap1\n      tag_45\n      jump\t// in\n    tag_195:\n      mload(0x40)\n      0x20\n      dup2\n      dup4\n      sub\n      sub\n      dup2\n      mstore\n      swap1\n      0x40\n      mstore\n        /* \"Evm/core/base/vault.sol\":3700:3753  IEvents.Data(\"amount\", \"uint256\", abi.encode(amount)) */\n      dup2\n      mstore\n      pop\n        /* \"Evm/core/base/vault.sol\":3685:3694  eventData */\n      dup2\n        /* \"Evm/core/base/vault.sol\":3695:3696  1 */\n      0x01\n        /* \"Evm/core/base/vault.sol\":3685:3697  eventData[1] */\n      dup2\n      mload\n      dup2\n      lt\n      tag_196\n      jumpi\n      tag_197\n      tag_112\n      jump\t// in\n    tag_197:\n    tag_196:\n      0x20\n      mul\n      0x20\n      add\n      add\n        /* \"Evm/core/base/vault.sol\":3685:3753  eventData[1] = IEvents.Data(\"amount\", \"uint256\", abi.encode(amount)) */\n      dup2\n      swap1\n      mstore\n      pop\n        /* \"Evm/core/base/vault.sol\":3779:3833  IEvents.Data(\"token\", \"string\", abi.encode(assetName)) */\n      mload(0x40)\n      dup1\n      0x60\n      add\n      0x40\n      mstore\n      dup1\n      mload(0x40)\n      dup1\n      0x40\n      add\n      0x40\n      mstore\n      dup1\n      0x05\n      dup2\n      mstore\n      0x20\n      add\n      0x746f6b656e000000000000000000000000000000000000000000000000000000\n      dup2\n      mstore\n      pop\n      dup2\n      mstore\n      0x20\n      add\n      mload(0x40)\n      dup1\n      0x40\n      add\n      0x40\n      mstore\n      dup1\n      0x06\n      dup2\n      mstore\n      0x20\n      add\n      0x737472696e670000000000000000000000000000000000000000000000000000\n      dup2\n      mstore\n      pop\n      dup2\n      mstore\n      0x20\n      add\n        /* \"Evm/core/base/vault.sol\":3822:3831  assetName */\n      dup7\n      dup7\n        /* \"Evm/core/base/vault.sol\":3811:3832  abi.encode(assetName) */\n      add(0x20, mload(0x40))\n      tag_198\n      swap3\n      swap2\n      swap1\n      tag_117\n      jump\t// in\n    tag_198:\n      mload(0x40)\n      0x20\n      dup2\n      dup4\n      sub\n      sub\n      dup2\n      mstore\n      swap1\n      0x40\n      mstore\n        /* \"Evm/core/base/vault.sol\":3779:3833  IEvents.Data(\"token\", \"string\", abi.encode(assetName)) */\n      dup2\n      mstore\n      pop\n        /* \"Evm/core/base/vault.sol\":3764:3773  eventData */\n      dup2\n        /* \"Evm/core/base/vault.sol\":3774:3775  2 */\n      0x02\n        /* \"Evm/core/base/vault.sol\":3764:3776  eventData[2] */\n      dup2\n      mload\n      dup2\n      lt\n      tag_199\n      jumpi\n      tag_200\n      tag_112\n      jump\t// in\n    tag_200:\n    tag_199:\n      0x20\n      mul\n      0x20\n      add\n      add\n        /* \"Evm/core/base/vault.sol\":3764:3833  eventData[2] = IEvents.Data(\"token\", \"string\", abi.encode(assetName)) */\n      dup2\n      swap1\n      mstore\n      pop\n        /* \"Evm/core/base/vault.sol\":3859:3919  IEvents.Data(\"provider\", \"string\", abi.encode(providerName)) */\n      mload(0x40)\n      dup1\n      0x60\n      add\n      0x40\n      mstore\n      dup1\n      mload(0x40)\n      dup1\n      0x40\n      add\n      0x40\n      mstore\n      dup1\n      0x08\n      dup2\n      mstore\n      0x20\n      add\n      0x70726f7669646572000000000000000000000000000000000000000000000000\n      dup2\n      mstore\n      pop\n      dup2\n      mstore\n      0x20\n      add\n      mload(0x40)\n      dup1\n      0x40\n      add\n      0x40\n      mstore\n      dup1\n      0x06\n      dup2\n      mstore\n      0x20\n      add\n      0x737472696e670000000000000000000000000000000000000000000000000000\n      dup2\n      mstore\n      pop\n      dup2\n      mstore\n      0x20\n      add\n        /* \"Evm/core/base/vault.sol\":3905:3917  providerName */\n      0x01\n        /* \"Evm/core/base/vault.sol\":3894:3918  abi.encode(providerName) */\n      add(0x20, mload(0x40))\n      tag_201\n      swap2\n      swap1\n      tag_121\n      jump\t// in\n    tag_201:\n      mload(0x40)\n      0x20\n      dup2\n      dup4\n      sub\n      sub\n      dup2\n      mstore\n      swap1\n      0x40\n      mstore\n        /* \"Evm/core/base/vault.sol\":3859:3919  IEvents.Data(\"provider\", \"string\", abi.encode(providerName)) */\n      dup2\n      mstore\n      pop\n        /* \"Evm/core/base/vault.sol\":3844:3853  eventData */\n      dup2\n        /* \"Evm/core/base/vault.sol\":3854:3855  3 */\n      0x03\n        /* \"Evm/core/base/vault.sol\":3844:3856  eventData[3] */\n      dup2\n      mload\n      dup2\n      lt\n      tag_202\n      jumpi\n      tag_203\n      tag_112\n      jump\t// in\n    tag_203:\n    tag_202:\n      0x20\n      mul\n      0x20\n      add\n      add\n        /* \"Evm/core/base/vault.sol\":3844:3919  eventData[3] = IEvents.Data(\"provider\", \"string\", abi.encode(providerName)) */\n      dup2\n      swap1\n      mstore\n      pop\n        /* \"Evm/core/base/vault.sol\":3945:4007  IEvents.Data(\"timestamp\", \"u256\", abi.encode(block.timestamp)) */\n      mload(0x40)\n      dup1\n      0x60\n      add\n      0x40\n      mstore\n      dup1\n      mload(0x40)\n      dup1\n      0x40\n      add\n      0x40\n      mstore\n      dup1\n      0x09\n      dup2\n      mstore\n      0x20\n      add\n      0x74696d657374616d700000000000000000000000000000000000000000000000\n      dup2\n      mstore\n      pop\n      dup2\n      mstore\n      0x20\n      add\n      mload(0x40)\n      dup1\n      0x40\n      add\n      0x40\n      mstore\n      dup1\n      0x04\n      dup2\n      mstore\n      0x20\n      add\n      0x7532353600000000000000000000000000000000000000000000000000000000\n      dup2\n      mstore\n      pop\n      dup2\n      mstore\n      0x20\n      add\n        /* \"Evm/core/base/vault.sol\":3990:4005  block.timestamp */\n      timestamp\n        /* \"Evm/core/base/vault.sol\":3979:4006  abi.encode(block.timestamp) */\n      add(0x20, mload(0x40))\n      tag_204\n      swap2\n      swap1\n      tag_45\n      jump\t// in\n    tag_204:\n      mload(0x40)\n      0x20\n      dup2\n      dup4\n      sub\n      sub\n      dup2\n      mstore\n      swap1\n      0x40\n      mstore\n        /* \"Evm/core/base/vault.sol\":3945:4007  IEvents.Data(\"timestamp\", \"u256\", abi.encode(block.timestamp)) */\n      dup2\n      mstore\n      pop\n        /* \"Evm/core/base/vault.sol\":3930:3939  eventData */\n      dup2\n        /* \"Evm/core/base/vault.sol\":3940:3941  4 */\n      0x04\n        /* \"Evm/core/base/vault.sol\":3930:3942  eventData[4] */\n      dup2\n      mload\n      dup2\n      lt\n      tag_205\n      jumpi\n      tag_206\n      tag_112\n      jump\t// in\n    tag_206:\n    tag_205:\n      0x20\n      mul\n      0x20\n      add\n      add\n        /* \"Evm/core/base/vault.sol\":3930:4007  eventData[4] = IEvents.Data(\"timestamp\", \"u256\", abi.encode(block.timestamp)) */\n      dup2\n      swap1\n      mstore\n      pop\n        /* \"Evm/core/base/vault.sol\":4076:4082  events */\n      immutable(\"0xa55f93089260f97cd16ec7a717e7ade24f99065bc4509014bd14fefe4d832ab6\")\n        /* \"Evm/core/base/vault.sol\":4076:4097  events.emitVaultEvent */\n      0xffffffffffffffffffffffffffffffffffffffff\n      and\n      0x7d64fa9b\n        /* \"Evm/core/base/vault.sol\":4109:4118  eventData */\n      dup3\n        /* \"Evm/core/base/vault.sol\":4076:4119  events.emitVaultEvent(\"Deposit\", eventData) */\n      mload(0x40)\n      dup3\n      0xffffffff\n      and\n      0xe0\n      shl\n      dup2\n      mstore\n      0x04\n      add\n      tag_207\n      swap2\n      swap1\n      tag_208\n      jump\t// in\n    tag_207:\n      0x00\n      mload(0x40)\n      dup1\n      dup4\n      sub\n      dup2\n      0x00\n      dup8\n      dup1\n      extcodesize\n      iszero\n      dup1\n      iszero\n      tag_209\n      jumpi\n      revert(0x00, 0x00)\n    tag_209:\n      pop\n      gas\n      call\n      iszero\n      dup1\n      iszero\n      tag_211\n      jumpi\n      returndatacopy(0x00, 0x00, returndatasize)\n      revert(0x00, returndatasize)\n    tag_211:\n      pop\n      pop\n      pop\n      pop\n        /* \"Evm/core/base/vault.sol\":3207:4127  {... */\n      pop\n      pop\n        /* \"Evm/core/base/vault.sol\":3138:4127  function deposit(string calldata assetName, uint256 amount) external {... */\n      pop\n      pop\n      pop\n      jump\t// out\n        /* \"Evm/core/base/vault.sol\":690:721  IEvents public immutable events */\n    tag_58:\n      immutable(\"0xa55f93089260f97cd16ec7a717e7ade24f99065bc4509014bd14fefe4d832ab6\")\n      dup2\n      jump\t// out\n        /* \"Evm/core/base/vault.sol\":638:683  IVariables public immutable variablesRegistry */\n    tag_62:\n      immutable(\"0x1067a32fc2bf4122310a8f066f11577e006583df65ce4c5172289c9680be102c\")\n      dup2\n      jump\t// out\n        /* \"Evm/core/base/vault.sol\":1886:2103  function listNewToken(string calldata assetName) external {... */\n    tag_68:\n        /* \"Evm/core/base/vault.sol\":1955:1972  address tokenAddr */\n      0x00\n        /* \"Evm/core/base/vault.sol\":1975:1998  resolveAsset(assetName) */\n      tag_213\n        /* \"Evm/core/base/vault.sol\":1988:1997  assetName */\n      dup4\n      dup4\n        /* \"Evm/core/base/vault.sol\":1975:1998  resolveAsset(assetName) */\n      dup1\n      dup1\n      0x1f\n      add\n      0x20\n      dup1\n      swap2\n      div\n      mul\n      0x20\n      add\n      mload(0x40)\n      swap1\n      dup2\n      add\n      0x40\n      mstore\n      dup1\n      swap4\n      swap3\n      swap2\n      swap1\n      dup2\n      dup2\n      mstore\n      0x20\n      add\n      dup4\n      dup4\n      dup1\n      dup3\n      dup5\n      calldatacopy\n      0x00\n      dup2\n      dup5\n      add\n      mstore\n      not(0x1f)\n      0x1f\n      dup3\n      add\n      and\n      swap1\n      pop\n      dup1\n      dup4\n      add\n      swap3\n      pop\n      pop\n      pop\n      pop\n      pop\n      pop\n      pop\n        /* \"Evm/core/base/vault.sol\":1975:1987  resolveAsset */\n      tag_25\n        /* \"Evm/core/base/vault.sol\":1975:1998  resolveAsset(assetName) */\n      jump\t// in\n    tag_213:\n        /* \"Evm/core/base/vault.sol\":1955:1998  address tokenAddr = resolveAsset(assetName) */\n      swap1\n      pop\n        /* \"Evm/core/base/vault.sol\":2039:2043  true */\n      0x01\n        /* \"Evm/core/base/vault.sol\":2009:2025  isSupportedToken */\n      0x02\n        /* \"Evm/core/base/vault.sol\":2009:2036  isSupportedToken[tokenAddr] */\n      0x00\n        /* \"Evm/core/base/vault.sol\":2026:2035  tokenAddr */\n      dup4\n        /* \"Evm/core/base/vault.sol\":2009:2036  isSupportedToken[tokenAddr] */\n      0xffffffffffffffffffffffffffffffffffffffff\n      and\n      0xffffffffffffffffffffffffffffffffffffffff\n      and\n      dup2\n      mstore\n      0x20\n      add\n      swap1\n      dup2\n      mstore\n      0x20\n      add\n      0x00\n      keccak256\n      0x00\n        /* \"Evm/core/base/vault.sol\":2009:2043  isSupportedToken[tokenAddr] = true */\n      0x0100\n      exp\n      dup2\n      sload\n      dup2\n      0xff\n      mul\n      not\n      and\n      swap1\n      dup4\n      iszero\n      iszero\n      mul\n      or\n      swap1\n      sstore\n      pop\n        /* \"Evm/core/base/vault.sol\":2071:2080  tokenAddr */\n      dup1\n        /* \"Evm/core/base/vault.sol\":2059:2095  TokenListed(tokenAddr, providerName) */\n      0xffffffffffffffffffffffffffffffffffffffff\n      and\n      0xd57b1148efb91f418a2178fc1fb4ba12f9400a4dc8e71851fd59e85d337c609f\n        /* \"Evm/core/base/vault.sol\":2082:2094  providerName */\n      0x01\n        /* \"Evm/core/base/vault.sol\":2059:2095  TokenListed(tokenAddr, providerName) */\n      mload(0x40)\n      tag_214\n      swap2\n      swap1\n      tag_121\n      jump\t// in\n    tag_214:\n      mload(0x40)\n      dup1\n      swap2\n      sub\n      swap1\n      log2\n        /* \"Evm/core/base/vault.sol\":1944:2103  {... */\n      pop\n        /* \"Evm/core/base/vault.sol\":1886:2103  function listNewToken(string calldata assetName) external {... */\n      pop\n      pop\n      jump\t// out\n        /* \"@openzeppelin/contracts/access/Ownable.sol\":2543:2758  function transferOwnership(address newOwner) public virtual onlyOwner {... */\n    tag_71:\n        /* \"@openzeppelin/contracts/access/Ownable.sol\":1531:1544  _checkOwner() */\n      tag_216\n        /* \"@openzeppelin/contracts/access/Ownable.sol\":1531:1542  _checkOwner */\n      tag_94\n        /* \"@openzeppelin/contracts/access/Ownable.sol\":1531:1544  _checkOwner() */\n      jump\t// in\n    tag_216:\n        /* \"@openzeppelin/contracts/access/Ownable.sol\":2647:2648  0 */\n      0x00\n        /* \"@openzeppelin/contracts/access/Ownable.sol\":2627:2649  newOwner == address(0) */\n      0xffffffffffffffffffffffffffffffffffffffff\n      and\n        /* \"@openzeppelin/contracts/access/Ownable.sol\":2627:2635  newOwner */\n      dup2\n        /* \"@openzeppelin/contracts/access/Ownable.sol\":2627:2649  newOwner == address(0) */\n      0xffffffffffffffffffffffffffffffffffffffff\n      and\n      sub\n        /* \"@openzeppelin/contracts/access/Ownable.sol\":2623:2714  if (newOwner == address(0)) {... */\n      tag_218\n      jumpi\n        /* \"@openzeppelin/contracts/access/Ownable.sol\":2700:2701  0 */\n      0x00\n        /* \"@openzeppelin/contracts/access/Ownable.sol\":2672:2703  OwnableInvalidOwner(address(0)) */\n      mload(0x40)\n      0x1e4fbdf700000000000000000000000000000000000000000000000000000000\n      dup2\n      mstore\n      0x04\n      add\n      tag_219\n      swap2\n      swap1\n      tag_27\n      jump\t// in\n    tag_219:\n      mload(0x40)\n      dup1\n      swap2\n      sub\n      swap1\n      revert\n        /* \"@openzeppelin/contracts/access/Ownable.sol\":2623:2714  if (newOwner == address(0)) {... */\n    tag_218:\n        /* \"@openzeppelin/contracts/access/Ownable.sol\":2723:2751  _transferOwnership(newOwner) */\n      tag_220\n        /* \"@openzeppelin/contracts/access/Ownable.sol\":2742:2750  newOwner */\n      dup2\n        /* \"@openzeppelin/contracts/access/Ownable.sol\":2723:2741  _transferOwnership */\n      tag_139\n        /* \"@openzeppelin/contracts/access/Ownable.sol\":2723:2751  _transferOwnership(newOwner) */\n      jump\t// in\n    tag_220:\n        /* \"@openzeppelin/contracts/access/Ownable.sol\":2543:2758  function transferOwnership(address newOwner) public virtual onlyOwner {... */\n      pop\n      jump\t// out\n        /* \"@openzeppelin/contracts/access/Ownable.sol\":1796:1958  function _checkOwner() internal view virtual {... */\n    tag_94:\n        /* \"@openzeppelin/contracts/access/Ownable.sol\":1866:1878  _msgSender() */\n      tag_222\n        /* \"@openzeppelin/contracts/access/Ownable.sol\":1866:1876  _msgSender */\n      tag_223\n        /* \"@openzeppelin/contracts/access/Ownable.sol\":1866:1878  _msgSender() */\n      jump\t// in\n    tag_222:\n        /* \"@openzeppelin/contracts/access/Ownable.sol\":1855:1878  owner() != _msgSender() */\n      0xffffffffffffffffffffffffffffffffffffffff\n      and\n        /* \"@openzeppelin/contracts/access/Ownable.sol\":1855:1862  owner() */\n      tag_224\n        /* \"@openzeppelin/contracts/access/Ownable.sol\":1855:1860  owner */\n      tag_51\n        /* \"@openzeppelin/contracts/access/Ownable.sol\":1855:1862  owner() */\n      jump\t// in\n    tag_224:\n        /* \"@openzeppelin/contracts/access/Ownable.sol\":1855:1878  owner() != _msgSender() */\n      0xffffffffffffffffffffffffffffffffffffffff\n      and\n      eq\n        /* \"@openzeppelin/contracts/access/Ownable.sol\":1851:1952  if (owner() != _msgSender()) {... */\n      tag_225\n      jumpi\n        /* \"@openzeppelin/contracts/access/Ownable.sol\":1928:1940  _msgSender() */\n      tag_226\n        /* \"@openzeppelin/contracts/access/Ownable.sol\":1928:1938  _msgSender */\n      tag_223\n        /* \"@openzeppelin/contracts/access/Ownable.sol\":1928:1940  _msgSender() */\n      jump\t// in\n    tag_226:\n        /* \"@openzeppelin/contracts/access/Ownable.sol\":1901:1941  OwnableUnauthorizedAccount(_msgSender()) */\n      mload(0x40)\n      0x118cdaa700000000000000000000000000000000000000000000000000000000\n      dup2\n      mstore\n      0x04\n      add\n      tag_227\n      swap2\n      swap1\n      tag_27\n      jump\t// in\n    tag_227:\n      mload(0x40)\n      dup1\n      swap2\n      sub\n      swap1\n      revert\n        /* \"@openzeppelin/contracts/access/Ownable.sol\":1851:1952  if (owner() != _msgSender()) {... */\n    tag_225:\n        /* \"@openzeppelin/contracts/access/Ownable.sol\":1796:1958  function _checkOwner() internal view virtual {... */\n      jump\t// out\n        /* \"@openzeppelin/contracts/access/Ownable.sol\":2912:3099  function _transferOwnership(address newOwner) internal virtual {... */\n    tag_139:\n        /* \"@openzeppelin/contracts/access/Ownable.sol\":2985:3001  address oldOwner */\n      0x00\n        /* \"@openzeppelin/contracts/access/Ownable.sol\":3004:3010  _owner */\n      0x00\n      0x00\n      swap1\n      sload\n      swap1\n      0x0100\n      exp\n      swap1\n      div\n      0xffffffffffffffffffffffffffffffffffffffff\n      and\n        /* \"@openzeppelin/contracts/access/Ownable.sol\":2985:3010  address oldOwner = _owner */\n      swap1\n      pop\n        /* \"@openzeppelin/contracts/access/Ownable.sol\":3029:3037  newOwner */\n      dup2\n        /* \"@openzeppelin/contracts/access/Ownable.sol\":3020:3026  _owner */\n      0x00\n      0x00\n        /* \"@openzeppelin/contracts/access/Ownable.sol\":3020:3037  _owner = newOwner */\n      0x0100\n      exp\n      dup2\n      sload\n      dup2\n      0xffffffffffffffffffffffffffffffffffffffff\n      mul\n      not\n      and\n      swap1\n      dup4\n      0xffffffffffffffffffffffffffffffffffffffff\n      and\n      mul\n      or\n      swap1\n      sstore\n      pop\n        /* \"@openzeppelin/contracts/access/Ownable.sol\":3083:3091  newOwner */\n      dup2\n        /* \"@openzeppelin/contracts/access/Ownable.sol\":3052:3092  OwnershipTransferred(oldOwner, newOwner) */\n      0xffffffffffffffffffffffffffffffffffffffff\n      and\n        /* \"@openzeppelin/contracts/access/Ownable.sol\":3073:3081  oldOwner */\n      dup2\n        /* \"@openzeppelin/contracts/access/Ownable.sol\":3052:3092  OwnershipTransferred(oldOwner, newOwner) */\n      0xffffffffffffffffffffffffffffffffffffffff\n      and\n      0x8be0079c531659141344cd1fd0a4f28419497f9722a3daafe3b4186f6b6457e0\n      mload(0x40)\n      mload(0x40)\n      dup1\n      swap2\n      sub\n      swap1\n      log3\n        /* \"@openzeppelin/contracts/access/Ownable.sol\":2975:3099  {... */\n      pop\n        /* \"@openzeppelin/contracts/access/Ownable.sol\":2912:3099  function _transferOwnership(address newOwner) internal virtual {... */\n      pop\n      jump\t// out\n        /* \"@openzeppelin/contracts/token/ERC20/utils/SafeERC20.sol\":1219:1423  function safeTransfer(IERC20 token, address to, uint256 value) internal {... */\n    tag_150:\n        /* \"@openzeppelin/contracts/token/ERC20/utils/SafeERC20.sol\":1306:1343  _safeTransfer(token, to, value, true) */\n      tag_230\n        /* \"@openzeppelin/contracts/token/ERC20/utils/SafeERC20.sol\":1320:1325  token */\n      dup4\n        /* \"@openzeppelin/contracts/token/ERC20/utils/SafeERC20.sol\":1327:1329  to */\n      dup4\n        /* \"@openzeppelin/contracts/token/ERC20/utils/SafeERC20.sol\":1331:1336  value */\n      dup4\n        /* \"@openzeppelin/contracts/token/ERC20/utils/SafeERC20.sol\":1338:1342  true */\n      0x01\n        /* \"@openzeppelin/contracts/token/ERC20/utils/SafeERC20.sol\":1306:1319  _safeTransfer */\n      tag_231\n        /* \"@openzeppelin/contracts/token/ERC20/utils/SafeERC20.sol\":1306:1343  _safeTransfer(token, to, value, true) */\n      jump\t// in\n    tag_230:\n        /* \"@openzeppelin/contracts/token/ERC20/utils/SafeERC20.sol\":1301:1417  if (!_safeTransfer(token, to, value, true)) {... */\n      tag_232\n      jumpi\n        /* \"@openzeppelin/contracts/token/ERC20/utils/SafeERC20.sol\":1399:1404  token */\n      dup3\n        /* \"@openzeppelin/contracts/token/ERC20/utils/SafeERC20.sol\":1366:1406  SafeERC20FailedOperation(address(token)) */\n      mload(0x40)\n      0x5274afe700000000000000000000000000000000000000000000000000000000\n      dup2\n      mstore\n      0x04\n      add\n      tag_233\n      swap2\n      swap1\n      tag_27\n      jump\t// in\n    tag_233:\n      mload(0x40)\n      dup1\n      swap2\n      sub\n      swap1\n      revert\n        /* \"@openzeppelin/contracts/token/ERC20/utils/SafeERC20.sol\":1301:1417  if (!_safeTransfer(token, to, value, true)) {... */\n    tag_232:\n        /* \"@openzeppelin/contracts/token/ERC20/utils/SafeERC20.sol\":1219:1423  function safeTransfer(IERC20 token, address to, uint256 value) internal {... */\n      pop\n      pop\n      pop\n      jump\t// out\n        /* \"@openzeppelin/contracts/token/ERC20/utils/SafeERC20.sol\":1662:1894  function safeTransferFrom(IERC20 token, address from, address to, uint256 value) internal {... */\n    tag_185:\n        /* \"@openzeppelin/contracts/token/ERC20/utils/SafeERC20.sol\":1767:1814  _safeTransferFrom(token, from, to, value, true) */\n      tag_235\n        /* \"@openzeppelin/contracts/token/ERC20/utils/SafeERC20.sol\":1785:1790  token */\n      dup5\n        /* \"@openzeppelin/contracts/token/ERC20/utils/SafeERC20.sol\":1792:1796  from */\n      dup5\n        /* \"@openzeppelin/contracts/token/ERC20/utils/SafeERC20.sol\":1798:1800  to */\n      dup5\n        /* \"@openzeppelin/contracts/token/ERC20/utils/SafeERC20.sol\":1802:1807  value */\n      dup5\n        /* \"@openzeppelin/contracts/token/ERC20/utils/SafeERC20.sol\":1809:1813  true */\n      0x01\n        /* \"@openzeppelin/contracts/token/ERC20/utils/SafeERC20.sol\":1767:1784  _safeTransferFrom */\n      tag_236\n        /* \"@openzeppelin/contracts/token/ERC20/utils/SafeERC20.sol\":1767:1814  _safeTransferFrom(token, from, to, value, true) */\n      jump\t// in\n    tag_235:\n        /* \"@openzeppelin/contracts/token/ERC20/utils/SafeERC20.sol\":1762:1888  if (!_safeTransferFrom(token, from, to, value, true)) {... */\n      tag_237\n      jumpi\n        /* \"@openzeppelin/contracts/token/ERC20/utils/SafeERC20.sol\":1870:1875  token */\n      dup4\n        /* \"@openzeppelin/contracts/token/ERC20/utils/SafeERC20.sol\":1837:1877  SafeERC20FailedOperation(address(token)) */\n      mload(0x40)\n      0x5274afe700000000000000000000000000000000000000000000000000000000\n      dup2\n      mstore\n      0x04\n      add\n      tag_238\n      swap2\n      swap1\n      tag_27\n      jump\t// in\n    tag_238:\n      mload(0x40)\n      dup1\n      swap2\n      sub\n      swap1\n      revert\n        /* \"@openzeppelin/contracts/token/ERC20/utils/SafeERC20.sol\":1762:1888  if (!_safeTransferFrom(token, from, to, value, true)) {... */\n    tag_237:\n        /* \"@openzeppelin/contracts/token/ERC20/utils/SafeERC20.sol\":1662:1894  function safeTransferFrom(IERC20 token, address from, address to, uint256 value) internal {... */\n      pop\n      pop\n      pop\n      pop\n      jump\t// out\n        /* \"@openzeppelin/contracts/utils/Context.sol\":656:752  function _msgSender() internal view virtual returns (address) {... */\n    tag_223:\n        /* \"@openzeppelin/contracts/utils/Context.sol\":709:716  address */\n      0x00\n        /* \"@openzeppelin/contracts/utils/Context.sol\":735:745  msg.sender */\n      caller\n        /* \"@openzeppelin/contracts/utils/Context.sol\":728:745  return msg.sender */\n      swap1\n      pop\n        /* \"@openzeppelin/contracts/utils/Context.sol\":656:752  function _msgSender() internal view virtual returns (address) {... */\n      swap1\n      jump\t// out\n        /* \"@openzeppelin/contracts/token/ERC20/utils/SafeERC20.sol\":8373:9617  function _safeTransfer(IERC20 token, address to, uint256 value, bool bubble) private returns (bool success) {... */\n    tag_231:\n        /* \"@openzeppelin/contracts/token/ERC20/utils/SafeERC20.sol\":8467:8479  bool success */\n      0x00\n        /* \"@openzeppelin/contracts/token/ERC20/utils/SafeERC20.sol\":8491:8506  bytes4 selector */\n      0x00\n        /* \"@openzeppelin/contracts/token/ERC20/utils/SafeERC20.sol\":8509:8533  IERC20.transfer.selector */\n      shl(0xe0, 0xa9059cbb)\n        /* \"@openzeppelin/contracts/token/ERC20/utils/SafeERC20.sol\":8491:8533  bytes4 selector = IERC20.transfer.selector */\n      swap1\n      pop\n        /* \"@openzeppelin/contracts/token/ERC20/utils/SafeERC20.sol\":8600:8604  0x40 */\n      0x40\n        /* \"@openzeppelin/contracts/token/ERC20/utils/SafeERC20.sol\":8594:8605  mload(0x40) */\n      mload\n        /* \"@openzeppelin/contracts/token/ERC20/utils/SafeERC20.sol\":8631:8639  selector */\n      dup2\n        /* \"@openzeppelin/contracts/token/ERC20/utils/SafeERC20.sol\":8625:8629  0x00 */\n      0x00\n        /* \"@openzeppelin/contracts/token/ERC20/utils/SafeERC20.sol\":8618:8640  mstore(0x00, selector) */\n      mstore\n        /* \"@openzeppelin/contracts/token/ERC20/utils/SafeERC20.sol\":8686:8687  0 */\n      0x00\n        /* \"@openzeppelin/contracts/token/ERC20/utils/SafeERC20.sol\":8682:8688  not(0) */\n      not\n        /* \"@openzeppelin/contracts/token/ERC20/utils/SafeERC20.sol\":8678:8680  96 */\n      0x60\n        /* \"@openzeppelin/contracts/token/ERC20/utils/SafeERC20.sol\":8674:8689  shr(96, not(0)) */\n      shr\n        /* \"@openzeppelin/contracts/token/ERC20/utils/SafeERC20.sol\":8670:8672  to */\n      dup7\n        /* \"@openzeppelin/contracts/token/ERC20/utils/SafeERC20.sol\":8666:8690  and(to, shr(96, not(0))) */\n      and\n        /* \"@openzeppelin/contracts/token/ERC20/utils/SafeERC20.sol\":8660:8664  0x04 */\n      0x04\n        /* \"@openzeppelin/contracts/token/ERC20/utils/SafeERC20.sol\":8653:8691  mstore(0x04, and(to, shr(96, not(0)))) */\n      mstore\n        /* \"@openzeppelin/contracts/token/ERC20/utils/SafeERC20.sol\":8717:8722  value */\n      dup5\n        /* \"@openzeppelin/contracts/token/ERC20/utils/SafeERC20.sol\":8711:8715  0x24 */\n      0x24\n        /* \"@openzeppelin/contracts/token/ERC20/utils/SafeERC20.sol\":8704:8723  mstore(0x24, value) */\n      mstore\n        /* \"@openzeppelin/contracts/token/ERC20/utils/SafeERC20.sol\":8787:8791  0x20 */\n      0x20\n        /* \"@openzeppelin/contracts/token/ERC20/utils/SafeERC20.sol\":8781:8785  0x00 */\n      0x00\n        /* \"@openzeppelin/contracts/token/ERC20/utils/SafeERC20.sol\":8775:8779  0x44 */\n      0x44\n        /* \"@openzeppelin/contracts/token/ERC20/utils/SafeERC20.sol\":8769:8773  0x00 */\n      0x00\n        /* \"@openzeppelin/contracts/token/ERC20/utils/SafeERC20.sol\":8766:8767  0 */\n      0x00\n        /* \"@openzeppelin/contracts/token/ERC20/utils/SafeERC20.sol\":8759:8764  token */\n      dup12\n        /* \"@openzeppelin/contracts/token/ERC20/utils/SafeERC20.sol\":8752:8757  gas() */\n      gas\n        /* \"@openzeppelin/contracts/token/ERC20/utils/SafeERC20.sol\":8747:8792  call(gas(), token, 0, 0x00, 0x44, 0x00, 0x20) */\n      call\n        /* \"@openzeppelin/contracts/token/ERC20/utils/SafeERC20.sol\":8736:8792  success := call(gas(), token, 0, 0x00, 0x44, 0x00, 0x20) */\n      swap3\n      pop\n        /* \"@openzeppelin/contracts/token/ERC20/utils/SafeERC20.sol\":9004:9005  1 */\n      0x01\n        /* \"@openzeppelin/contracts/token/ERC20/utils/SafeERC20.sol\":8997:9001  0x00 */\n      0x00\n        /* \"@openzeppelin/contracts/token/ERC20/utils/SafeERC20.sol\":8991:9002  mload(0x00) */\n      mload\n        /* \"@openzeppelin/contracts/token/ERC20/utils/SafeERC20.sol\":8988:9006  eq(mload(0x00), 1) */\n      eq\n        /* \"@openzeppelin/contracts/token/ERC20/utils/SafeERC20.sol\":8979:8986  success */\n      dup4\n        /* \"@openzeppelin/contracts/token/ERC20/utils/SafeERC20.sol\":8975:9007  and(success, eq(mload(0x00), 1)) */\n      and\n        /* \"@openzeppelin/contracts/token/ERC20/utils/SafeERC20.sol\":8965:9571  if iszero(and(success, eq(mload(0x00), 1))) {... */\n      tag_241\n      jumpi\n        /* \"@openzeppelin/contracts/token/ERC20/utils/SafeERC20.sol\":9136:9142  bubble */\n      dup4\n        /* \"@openzeppelin/contracts/token/ERC20/utils/SafeERC20.sol\":9126:9133  success */\n      dup4\n        /* \"@openzeppelin/contracts/token/ERC20/utils/SafeERC20.sol\":9119:9134  iszero(success) */\n      iszero\n        /* \"@openzeppelin/contracts/token/ERC20/utils/SafeERC20.sol\":9115:9143  and(iszero(success), bubble) */\n      and\n        /* \"@openzeppelin/contracts/token/ERC20/utils/SafeERC20.sol\":9112:9277  if and(iszero(success), bubble) {... */\n      iszero\n      tag_242\n      jumpi\n        /* \"@openzeppelin/contracts/token/ERC20/utils/SafeERC20.sol\":9192:9208  returndatasize() */\n      returndatasize\n        /* \"@openzeppelin/contracts/token/ERC20/utils/SafeERC20.sol\":9186:9190  0x00 */\n      0x00\n        /* \"@openzeppelin/contracts/token/ERC20/utils/SafeERC20.sol\":9181:9184  fmp */\n      dup3\n        /* \"@openzeppelin/contracts/token/ERC20/utils/SafeERC20.sol\":9166:9209  returndatacopy(fmp, 0x00, returndatasize()) */\n      returndatacopy\n        /* \"@openzeppelin/contracts/token/ERC20/utils/SafeERC20.sol\":9242:9258  returndatasize() */\n      returndatasize\n        /* \"@openzeppelin/contracts/token/ERC20/utils/SafeERC20.sol\":9237:9240  fmp */\n      dup2\n        /* \"@openzeppelin/contracts/token/ERC20/utils/SafeERC20.sol\":9230:9259  revert(fmp, returndatasize()) */\n      revert\n        /* \"@openzeppelin/contracts/token/ERC20/utils/SafeERC20.sol\":9112:9277  if and(iszero(success), bubble) {... */\n    tag_242:\n        /* \"@openzeppelin/contracts/token/ERC20/utils/SafeERC20.sol\":9553:9554  0 */\n      0x00\n        /* \"@openzeppelin/contracts/token/ERC20/utils/SafeERC20.sol\":9545:9550  token */\n      dup8\n        /* \"@openzeppelin/contracts/token/ERC20/utils/SafeERC20.sol\":9533:9551  extcodesize(token) */\n      extcodesize\n        /* \"@openzeppelin/contracts/token/ERC20/utils/SafeERC20.sol\":9530:9555  gt(extcodesize(token), 0) */\n      gt\n        /* \"@openzeppelin/contracts/token/ERC20/utils/SafeERC20.sol\":9511:9527  returndatasize() */\n      returndatasize\n        /* \"@openzeppelin/contracts/token/ERC20/utils/SafeERC20.sol\":9504:9528  iszero(returndatasize()) */\n      iszero\n        /* \"@openzeppelin/contracts/token/ERC20/utils/SafeERC20.sol\":9500:9556  and(iszero(returndatasize()), gt(extcodesize(token), 0)) */\n      and\n        /* \"@openzeppelin/contracts/token/ERC20/utils/SafeERC20.sol\":9491:9498  success */\n      dup4\n        /* \"@openzeppelin/contracts/token/ERC20/utils/SafeERC20.sol\":9487:9557  and(success, and(iszero(returndatasize()), gt(extcodesize(token), 0))) */\n      and\n        /* \"@openzeppelin/contracts/token/ERC20/utils/SafeERC20.sol\":9476:9557  success := and(success, and(iszero(returndatasize()), gt(extcodesize(token), 0))) */\n      swap3\n      pop\n        /* \"@openzeppelin/contracts/token/ERC20/utils/SafeERC20.sol\":8965:9571  if iszero(and(success, eq(mload(0x00), 1))) {... */\n    tag_241:\n        /* \"@openzeppelin/contracts/token/ERC20/utils/SafeERC20.sol\":9597:9600  fmp */\n      dup1\n        /* \"@openzeppelin/contracts/token/ERC20/utils/SafeERC20.sol\":9591:9595  0x40 */\n      0x40\n        /* \"@openzeppelin/contracts/token/ERC20/utils/SafeERC20.sol\":9584:9601  mstore(0x40, fmp) */\n      mstore\n        /* \"@openzeppelin/contracts/token/ERC20/utils/SafeERC20.sol\":8569:9611  {... */\n      pop\n      pop\n        /* \"@openzeppelin/contracts/token/ERC20/utils/SafeERC20.sol\":8373:9617  function _safeTransfer(IERC20 token, address to, uint256 value, bool bubble) private returns (bool success) {... */\n      swap5\n      swap4\n      pop\n      pop\n      pop\n      pop\n      jump\t// out\n        /* \"@openzeppelin/contracts/token/ERC20/utils/SafeERC20.sol\":10165:11558  function _safeTransferFrom(... */\n    tag_236:\n        /* \"@openzeppelin/contracts/token/ERC20/utils/SafeERC20.sol\":10323:10335  bool success */\n      0x00\n        /* \"@openzeppelin/contracts/token/ERC20/utils/SafeERC20.sol\":10347:10362  bytes4 selector */\n      0x00\n        /* \"@openzeppelin/contracts/token/ERC20/utils/SafeERC20.sol\":10365:10393  IERC20.transferFrom.selector */\n      shl(0xe0, 0x23b872dd)\n        /* \"@openzeppelin/contracts/token/ERC20/utils/SafeERC20.sol\":10347:10393  bytes4 selector = IERC20.transferFrom.selector */\n      swap1\n      pop\n        /* \"@openzeppelin/contracts/token/ERC20/utils/SafeERC20.sol\":10460:10464  0x40 */\n      0x40\n        /* \"@openzeppelin/contracts/token/ERC20/utils/SafeERC20.sol\":10454:10465  mload(0x40) */\n      mload\n        /* \"@openzeppelin/contracts/token/ERC20/utils/SafeERC20.sol\":10491:10499  selector */\n      dup2\n        /* \"@openzeppelin/contracts/token/ERC20/utils/SafeERC20.sol\":10485:10489  0x00 */\n      0x00\n        /* \"@openzeppelin/contracts/token/ERC20/utils/SafeERC20.sol\":10478:10500  mstore(0x00, selector) */\n      mstore\n        /* \"@openzeppelin/contracts/token/ERC20/utils/SafeERC20.sol\":10548:10549  0 */\n      0x00\n        /* \"@openzeppelin/contracts/token/ERC20/utils/SafeERC20.sol\":10544:10550  not(0) */\n      not\n        /* \"@openzeppelin/contracts/token/ERC20/utils/SafeERC20.sol\":10540:10542  96 */\n      0x60\n        /* \"@openzeppelin/contracts/token/ERC20/utils/SafeERC20.sol\":10536:10551  shr(96, not(0)) */\n      shr\n        /* \"@openzeppelin/contracts/token/ERC20/utils/SafeERC20.sol\":10530:10534  from */\n      dup8\n        /* \"@openzeppelin/contracts/token/ERC20/utils/SafeERC20.sol\":10526:10552  and(from, shr(96, not(0))) */\n      and\n        /* \"@openzeppelin/contracts/token/ERC20/utils/SafeERC20.sol\":10520:10524  0x04 */\n      0x04\n        /* \"@openzeppelin/contracts/token/ERC20/utils/SafeERC20.sol\":10513:10553  mstore(0x04, and(from, shr(96, not(0)))) */\n      mstore\n        /* \"@openzeppelin/contracts/token/ERC20/utils/SafeERC20.sol\":10599:10600  0 */\n      0x00\n        /* \"@openzeppelin/contracts/token/ERC20/utils/SafeERC20.sol\":10595:10601  not(0) */\n      not\n        /* \"@openzeppelin/contracts/token/ERC20/utils/SafeERC20.sol\":10591:10593  96 */\n      0x60\n        /* \"@openzeppelin/contracts/token/ERC20/utils/SafeERC20.sol\":10587:10602  shr(96, not(0)) */\n      shr\n        /* \"@openzeppelin/contracts/token/ERC20/utils/SafeERC20.sol\":10583:10585  to */\n      dup7\n        /* \"@openzeppelin/contracts/token/ERC20/utils/SafeERC20.sol\":10579:10603  and(to, shr(96, not(0))) */\n      and\n        /* \"@openzeppelin/contracts/token/ERC20/utils/SafeERC20.sol\":10573:10577  0x24 */\n      0x24\n        /* \"@openzeppelin/contracts/token/ERC20/utils/SafeERC20.sol\":10566:10604  mstore(0x24, and(to, shr(96, not(0)))) */\n      mstore\n        /* \"@openzeppelin/contracts/token/ERC20/utils/SafeERC20.sol\":10630:10635  value */\n      dup5\n        /* \"@openzeppelin/contracts/token/ERC20/utils/SafeERC20.sol\":10624:10628  0x44 */\n      0x44\n        /* \"@openzeppelin/contracts/token/ERC20/utils/SafeERC20.sol\":10617:10636  mstore(0x44, value) */\n      mstore\n        /* \"@openzeppelin/contracts/token/ERC20/utils/SafeERC20.sol\":10700:10704  0x20 */\n      0x20\n        /* \"@openzeppelin/contracts/token/ERC20/utils/SafeERC20.sol\":10694:10698  0x00 */\n      0x00\n        /* \"@openzeppelin/contracts/token/ERC20/utils/SafeERC20.sol\":10688:10692  0x64 */\n      0x64\n        /* \"@openzeppelin/contracts/token/ERC20/utils/SafeERC20.sol\":10682:10686  0x00 */\n      0x00\n        /* \"@openzeppelin/contracts/token/ERC20/utils/SafeERC20.sol\":10679:10680  0 */\n      0x00\n        /* \"@openzeppelin/contracts/token/ERC20/utils/SafeERC20.sol\":10672:10677  token */\n      dup13\n        /* \"@openzeppelin/contracts/token/ERC20/utils/SafeERC20.sol\":10665:10670  gas() */\n      gas\n        /* \"@openzeppelin/contracts/token/ERC20/utils/SafeERC20.sol\":10660:10705  call(gas(), token, 0, 0x00, 0x64, 0x00, 0x20) */\n      call\n        /* \"@openzeppelin/contracts/token/ERC20/utils/SafeERC20.sol\":10649:10705  success := call(gas(), token, 0, 0x00, 0x64, 0x00, 0x20) */\n      swap3\n      pop\n        /* \"@openzeppelin/contracts/token/ERC20/utils/SafeERC20.sol\":10917:10918  1 */\n      0x01\n        /* \"@openzeppelin/contracts/token/ERC20/utils/SafeERC20.sol\":10910:10914  0x00 */\n      0x00\n        /* \"@openzeppelin/contracts/token/ERC20/utils/SafeERC20.sol\":10904:10915  mload(0x00) */\n      mload\n        /* \"@openzeppelin/contracts/token/ERC20/utils/SafeERC20.sol\":10901:10919  eq(mload(0x00), 1) */\n      eq\n        /* \"@openzeppelin/contracts/token/ERC20/utils/SafeERC20.sol\":10892:10899  success */\n      dup4\n        /* \"@openzeppelin/contracts/token/ERC20/utils/SafeERC20.sol\":10888:10920  and(success, eq(mload(0x00), 1)) */\n      and\n        /* \"@openzeppelin/contracts/token/ERC20/utils/SafeERC20.sol\":10878:11484  if iszero(and(success, eq(mload(0x00), 1))) {... */\n      tag_244\n      jumpi\n        /* \"@openzeppelin/contracts/token/ERC20/utils/SafeERC20.sol\":11049:11055  bubble */\n      dup4\n        /* \"@openzeppelin/contracts/token/ERC20/utils/SafeERC20.sol\":11039:11046  success */\n      dup4\n        /* \"@openzeppelin/contracts/token/ERC20/utils/SafeERC20.sol\":11032:11047  iszero(success) */\n      iszero\n        /* \"@openzeppelin/contracts/token/ERC20/utils/SafeERC20.sol\":11028:11056  and(iszero(success), bubble) */\n      and\n        /* \"@openzeppelin/contracts/token/ERC20/utils/SafeERC20.sol\":11025:11190  if and(iszero(success), bubble) {... */\n      iszero\n      tag_245\n      jumpi\n        /* \"@openzeppelin/contracts/token/ERC20/utils/SafeERC20.sol\":11105:11121  returndatasize() */\n      returndatasize\n        /* \"@openzeppelin/contracts/token/ERC20/utils/SafeERC20.sol\":11099:11103  0x00 */\n      0x00\n        /* \"@openzeppelin/contracts/token/ERC20/utils/SafeERC20.sol\":11094:11097  fmp */\n      dup3\n        /* \"@openzeppelin/contracts/token/ERC20/utils/SafeERC20.sol\":11079:11122  returndatacopy(fmp, 0x00, returndatasize()) */\n      returndatacopy\n        /* \"@openzeppelin/contracts/token/ERC20/utils/SafeERC20.sol\":11155:11171  returndatasize() */\n      returndatasize\n        /* \"@openzeppelin/contracts/token/ERC20/utils/SafeERC20.sol\":11150:11153  fmp */\n      dup2\n        /* \"@openzeppelin/contracts/token/ERC20/utils/SafeERC20.sol\":11143:11172  revert(fmp, returndatasize()) */\n      revert\n        /* \"@openzeppelin/contracts/token/ERC20/utils/SafeERC20.sol\":11025:11190  if and(iszero(success), bubble) {... */\n    tag_245:\n        /* \"@openzeppelin/contracts/token/ERC20/utils/SafeERC20.sol\":11466:11467  0 */\n      0x00\n        /* \"@openzeppelin/contracts/token/ERC20/utils/SafeERC20.sol\":11458:11463  token */\n      dup9\n        /* \"@openzeppelin/contracts/token/ERC20/utils/SafeERC20.sol\":11446:11464  extcodesize(token) */\n      extcodesize\n        /* \"@openzeppelin/contracts/token/ERC20/utils/SafeERC20.sol\":11443:11468  gt(extcodesize(token), 0) */\n      gt\n        /* \"@openzeppelin/contracts/token/ERC20/utils/SafeERC20.sol\":11424:11440  returndatasize() */\n      returndatasize\n        /* \"@openzeppelin/contracts/token/ERC20/utils/SafeERC20.sol\":11417:11441  iszero(returndatasize()) */\n      iszero\n        /* \"@openzeppelin/contracts/token/ERC20/utils/SafeERC20.sol\":11413:11469  and(iszero(returndatasize()), gt(extcodesize(token), 0)) */\n      and\n        /* \"@openzeppelin/contracts/token/ERC20/utils/SafeERC20.sol\":11404:11411  success */\n      dup4\n        /* \"@openzeppelin/contracts/token/ERC20/utils/SafeERC20.sol\":11400:11470  and(success, and(iszero(returndatasize()), gt(extcodesize(token), 0))) */\n      and\n        /* \"@openzeppelin/contracts/token/ERC20/utils/SafeERC20.sol\":11389:11470  success := and(success, and(iszero(returndatasize()), gt(extcodesize(token), 0))) */\n      swap3\n      pop\n        /* \"@openzeppelin/contracts/token/ERC20/utils/SafeERC20.sol\":10878:11484  if iszero(and(success, eq(mload(0x00), 1))) {... */\n    tag_244:\n        /* \"@openzeppelin/contracts/token/ERC20/utils/SafeERC20.sol\":11510:11513  fmp */\n      dup1\n        /* \"@openzeppelin/contracts/token/ERC20/utils/SafeERC20.sol\":11504:11508  0x40 */\n      0x40\n        /* \"@openzeppelin/contracts/token/ERC20/utils/SafeERC20.sol\":11497:11514  mstore(0x40, fmp) */\n      mstore\n        /* \"@openzeppelin/contracts/token/ERC20/utils/SafeERC20.sol\":11540:11541  0 */\n      0x00\n        /* \"@openzeppelin/contracts/token/ERC20/utils/SafeERC20.sol\":11534:11538  0x60 */\n      0x60\n        /* \"@openzeppelin/contracts/token/ERC20/utils/SafeERC20.sol\":11527:11542  mstore(0x60, 0) */\n      mstore\n        /* \"@openzeppelin/contracts/token/ERC20/utils/SafeERC20.sol\":10429:11552  {... */\n      pop\n      pop\n        /* \"@openzeppelin/contracts/token/ERC20/utils/SafeERC20.sol\":10165:11558  function _safeTransferFrom(... */\n      swap6\n      swap5\n      pop\n      pop\n      pop\n      pop\n      pop\n      jump\t// out\n    tag_108:\n      mload(0x40)\n      dup1\n      0x60\n      add\n      0x40\n      mstore\n      dup1\n      0x60\n      dup2\n      mstore\n      0x20\n      add\n      0x60\n      dup2\n      mstore\n      0x20\n      add\n      0x60\n      dup2\n      mstore\n      pop\n      swap1\n      jump\t// out\n        /* \"#utility.yul\":7:106   */\n    tag_246:\n        /* \"#utility.yul\":59:65   */\n      0x00\n        /* \"#utility.yul\":93:98   */\n      dup2\n        /* \"#utility.yul\":87:99   */\n      mload\n        /* \"#utility.yul\":77:99   */\n      swap1\n      pop\n        /* \"#utility.yul\":7:106   */\n      swap2\n      swap1\n      pop\n      jump\t// out\n        /* \"#utility.yul\":112:281   */\n    tag_247:\n        /* \"#utility.yul\":196:207   */\n      0x00\n        /* \"#utility.yul\":230:236   */\n      dup3\n        /* \"#utility.yul\":225:228   */\n      dup3\n        /* \"#utility.yul\":218:237   */\n      mstore\n        /* \"#utility.yul\":270:274   */\n      0x20\n        /* \"#utility.yul\":265:268   */\n      dup3\n        /* \"#utility.yul\":261:275   */\n      add\n        /* \"#utility.yul\":246:275   */\n      swap1\n      pop\n        /* \"#utility.yul\":112:281   */\n      swap3\n      swap2\n      pop\n      pop\n      jump\t// out\n        /* \"#utility.yul\":287:426   */\n    tag_248:\n        /* \"#utility.yul\":376:382   */\n      dup3\n        /* \"#utility.yul\":371:374   */\n      dup2\n        /* \"#utility.yul\":366:369   */\n      dup4\n        /* \"#utility.yul\":360:383   */\n      mcopy\n        /* \"#utility.yul\":417:418   */\n      0x00\n        /* \"#utility.yul\":408:414   */\n      dup4\n        /* \"#utility.yul\":403:406   */\n      dup4\n        /* \"#utility.yul\":399:415   */\n      add\n        /* \"#utility.yul\":392:419   */\n      mstore\n        /* \"#utility.yul\":287:426   */\n      pop\n      pop\n      pop\n      jump\t// out\n        /* \"#utility.yul\":432:534   */\n    tag_249:\n        /* \"#utility.yul\":473:479   */\n      0x00\n        /* \"#utility.yul\":524:526   */\n      0x1f\n        /* \"#utility.yul\":520:527   */\n      not\n        /* \"#utility.yul\":515:517   */\n      0x1f\n        /* \"#utility.yul\":508:513   */\n      dup4\n        /* \"#utility.yul\":504:518   */\n      add\n        /* \"#utility.yul\":500:528   */\n      and\n        /* \"#utility.yul\":490:528   */\n      swap1\n      pop\n        /* \"#utility.yul\":432:534   */\n      swap2\n      swap1\n      pop\n      jump\t// out\n        /* \"#utility.yul\":540:917   */\n    tag_250:\n        /* \"#utility.yul\":628:631   */\n      0x00\n        /* \"#utility.yul\":656:695   */\n      tag_333\n        /* \"#utility.yul\":689:694   */\n      dup3\n        /* \"#utility.yul\":656:695   */\n      tag_246\n      jump\t// in\n    tag_333:\n        /* \"#utility.yul\":711:782   */\n      tag_334\n        /* \"#utility.yul\":775:781   */\n      dup2\n        /* \"#utility.yul\":770:773   */\n      dup6\n        /* \"#utility.yul\":711:782   */\n      tag_247\n      jump\t// in\n    tag_334:\n        /* \"#utility.yul\":704:782   */\n      swap4\n      pop\n        /* \"#utility.yul\":791:856   */\n      tag_335\n        /* \"#utility.yul\":849:855   */\n      dup2\n        /* \"#utility.yul\":844:847   */\n      dup6\n        /* \"#utility.yul\":837:841   */\n      0x20\n        /* \"#utility.yul\":830:835   */\n      dup7\n        /* \"#utility.yul\":826:842   */\n      add\n        /* \"#utility.yul\":791:856   */\n      tag_248\n      jump\t// in\n    tag_335:\n        /* \"#utility.yul\":881:910   */\n      tag_336\n        /* \"#utility.yul\":903:909   */\n      dup2\n        /* \"#utility.yul\":881:910   */\n      tag_249\n      jump\t// in\n    tag_336:\n        /* \"#utility.yul\":876:879   */\n      dup5\n        /* \"#utility.yul\":872:911   */\n      add\n        /* \"#utility.yul\":865:911   */\n      swap2\n      pop\n        /* \"#utility.yul\":632:917   */\n      pop\n        /* \"#utility.yul\":540:917   */\n      swap3\n      swap2\n      pop\n      pop\n      jump\t// out\n        /* \"#utility.yul\":923:1236   */\n    tag_21:\n        /* \"#utility.yul\":1036:1040   */\n      0x00\n        /* \"#utility.yul\":1074:1076   */\n      0x20\n        /* \"#utility.yul\":1063:1072   */\n      dup3\n        /* \"#utility.yul\":1059:1077   */\n      add\n        /* \"#utility.yul\":1051:1077   */\n      swap1\n      pop\n        /* \"#utility.yul\":1123:1132   */\n      dup2\n        /* \"#utility.yul\":1117:1121   */\n      dup2\n        /* \"#utility.yul\":1113:1133   */\n      sub\n        /* \"#utility.yul\":1109:1110   */\n      0x00\n        /* \"#utility.yul\":1098:1107   */\n      dup4\n        /* \"#utility.yul\":1094:1111   */\n      add\n        /* \"#utility.yul\":1087:1134   */\n      mstore\n        /* \"#utility.yul\":1151:1229   */\n      tag_338\n        /* \"#utility.yul\":1224:1228   */\n      dup2\n        /* \"#utility.yul\":1215:1221   */\n      dup5\n        /* \"#utility.yul\":1151:1229   */\n      tag_250\n      jump\t// in\n    tag_338:\n        /* \"#utility.yul\":1143:1229   */\n      swap1\n      pop\n        /* \"#utility.yul\":923:1236   */\n      swap3\n      swap2\n      pop\n      pop\n      jump\t// out\n        /* \"#utility.yul\":1242:1317   */\n    tag_251:\n        /* \"#utility.yul\":1275:1281   */\n      0x00\n        /* \"#utility.yul\":1308:1310   */\n      0x40\n        /* \"#utility.yul\":1302:1311   */\n      mload\n        /* \"#utility.yul\":1292:1311   */\n      swap1\n      pop\n        /* \"#utility.yul\":1242:1317   */\n      swap1\n      jump\t// out\n        /* \"#utility.yul\":1323:1440   */\n    tag_252:\n        /* \"#utility.yul\":1432:1433   */\n      0x00\n        /* \"#utility.yul\":1429:1430   */\n      0x00\n        /* \"#utility.yul\":1422:1434   */\n      revert\n        /* \"#utility.yul\":1446:1563   */\n    tag_253:\n        /* \"#utility.yul\":1555:1556   */\n      0x00\n        /* \"#utility.yul\":1552:1553   */\n      0x00\n        /* \"#utility.yul\":1545:1557   */\n      revert\n        /* \"#utility.yul\":1569:1686   */\n    tag_254:\n        /* \"#utility.yul\":1678:1679   */\n      0x00\n        /* \"#utility.yul\":1675:1676   */\n      0x00\n        /* \"#utility.yul\":1668:1680   */\n      revert\n        /* \"#utility.yul\":1692:1809   */\n    tag_255:\n        /* \"#utility.yul\":1801:1802   */\n      0x00\n        /* \"#utility.yul\":1798:1799   */\n      0x00\n        /* \"#utility.yul\":1791:1803   */\n      revert\n        /* \"#utility.yul\":1815:1995   */\n    tag_104:\n        /* \"#utility.yul\":1863:1940   */\n      0x4e487b7100000000000000000000000000000000000000000000000000000000\n        /* \"#utility.yul\":1860:1861   */\n      0x00\n        /* \"#utility.yul\":1853:1941   */\n      mstore\n        /* \"#utility.yul\":1960:1964   */\n      0x41\n        /* \"#utility.yul\":1957:1958   */\n      0x04\n        /* \"#utility.yul\":1950:1965   */\n      mstore\n        /* \"#utility.yul\":1984:1988   */\n      0x24\n        /* \"#utility.yul\":1981:1982   */\n      0x00\n        /* \"#utility.yul\":1974:1989   */\n      revert\n        /* \"#utility.yul\":2001:2282   */\n    tag_256:\n        /* \"#utility.yul\":2084:2111   */\n      tag_346\n        /* \"#utility.yul\":2106:2110   */\n      dup3\n        /* \"#utility.yul\":2084:2111   */\n      tag_249\n      jump\t// in\n    tag_346:\n        /* \"#utility.yul\":2076:2082   */\n      dup2\n        /* \"#utility.yul\":2072:2112   */\n      add\n        /* \"#utility.yul\":2214:2220   */\n      dup2\n        /* \"#utility.yul\":2202:2212   */\n      dup2\n        /* \"#utility.yul\":2199:2221   */\n      lt\n        /* \"#utility.yul\":2178:2196   */\n      0xffffffffffffffff\n        /* \"#utility.yul\":2166:2176   */\n      dup3\n        /* \"#utility.yul\":2163:2197   */\n      gt\n        /* \"#utility.yul\":2160:2222   */\n      or\n        /* \"#utility.yul\":2157:2245   */\n      iszero\n      tag_347\n      jumpi\n        /* \"#utility.yul\":2225:2243   */\n      tag_348\n      tag_104\n      jump\t// in\n    tag_348:\n        /* \"#utility.yul\":2157:2245   */\n    tag_347:\n        /* \"#utility.yul\":2265:2275   */\n      dup1\n        /* \"#utility.yul\":2261:2263   */\n      0x40\n        /* \"#utility.yul\":2254:2276   */\n      mstore\n        /* \"#utility.yul\":2044:2282   */\n      pop\n        /* \"#utility.yul\":2001:2282   */\n      pop\n      pop\n      jump\t// out\n        /* \"#utility.yul\":2288:2417   */\n    tag_257:\n        /* \"#utility.yul\":2322:2328   */\n      0x00\n        /* \"#utility.yul\":2349:2369   */\n      tag_350\n      tag_251\n      jump\t// in\n    tag_350:\n        /* \"#utility.yul\":2339:2369   */\n      swap1\n      pop\n        /* \"#utility.yul\":2378:2411   */\n      tag_351\n        /* \"#utility.yul\":2406:2410   */\n      dup3\n        /* \"#utility.yul\":2398:2404   */\n      dup3\n        /* \"#utility.yul\":2378:2411   */\n      tag_256\n      jump\t// in\n    tag_351:\n        /* \"#utility.yul\":2288:2417   */\n      swap2\n      swap1\n      pop\n      jump\t// out\n        /* \"#utility.yul\":2423:2731   */\n    tag_258:\n        /* \"#utility.yul\":2485:2489   */\n      0x00\n        /* \"#utility.yul\":2575:2593   */\n      0xffffffffffffffff\n        /* \"#utility.yul\":2567:2573   */\n      dup3\n        /* \"#utility.yul\":2564:2594   */\n      gt\n        /* \"#utility.yul\":2561:2617   */\n      iszero\n      tag_353\n      jumpi\n        /* \"#utility.yul\":2597:2615   */\n      tag_354\n      tag_104\n      jump\t// in\n    tag_354:\n        /* \"#utility.yul\":2561:2617   */\n    tag_353:\n        /* \"#utility.yul\":2635:2664   */\n      tag_355\n        /* \"#utility.yul\":2657:2663   */\n      dup3\n        /* \"#utility.yul\":2635:2664   */\n      tag_249\n      jump\t// in\n    tag_355:\n        /* \"#utility.yul\":2627:2664   */\n      swap1\n      pop\n        /* \"#utility.yul\":2719:2723   */\n      0x20\n        /* \"#utility.yul\":2713:2717   */\n      dup2\n        /* \"#utility.yul\":2709:2724   */\n      add\n        /* \"#utility.yul\":2701:2724   */\n      swap1\n      pop\n        /* \"#utility.yul\":2423:2731   */\n      swap2\n      swap1\n      pop\n      jump\t// out\n        /* \"#utility.yul\":2737:2885   */\n    tag_259:\n        /* \"#utility.yul\":2835:2841   */\n      dup3\n        /* \"#utility.yul\":2830:2833   */\n      dup2\n        /* \"#utility.yul\":2825:2828   */\n      dup4\n        /* \"#utility.yul\":2812:2842   */\n      calldatacopy\n        /* \"#utility.yul\":2876:2877   */\n      0x00\n        /* \"#utility.yul\":2867:2873   */\n      dup4\n        /* \"#utility.yul\":2862:2865   */\n      dup4\n        /* \"#utility.yul\":2858:2874   */\n      add\n        /* \"#utility.yul\":2851:2878   */\n      mstore\n        /* \"#utility.yul\":2737:2885   */\n      pop\n      pop\n      pop\n      jump\t// out\n        /* \"#utility.yul\":2891:3316   */\n    tag_260:\n        /* \"#utility.yul\":2969:2974   */\n      0x00\n        /* \"#utility.yul\":2994:3060   */\n      tag_358\n        /* \"#utility.yul\":3010:3059   */\n      tag_359\n        /* \"#utility.yul\":3052:3058   */\n      dup5\n        /* \"#utility.yul\":3010:3059   */\n      tag_258\n      jump\t// in\n    tag_359:\n        /* \"#utility.yul\":2994:3060   */\n      tag_257\n      jump\t// in\n    tag_358:\n        /* \"#utility.yul\":2985:3060   */\n      swap1\n      pop\n        /* \"#utility.yul\":3083:3089   */\n      dup3\n        /* \"#utility.yul\":3076:3081   */\n      dup2\n        /* \"#utility.yul\":3069:3090   */\n      mstore\n        /* \"#utility.yul\":3121:3125   */\n      0x20\n        /* \"#utility.yul\":3114:3119   */\n      dup2\n        /* \"#utility.yul\":3110:3126   */\n      add\n        /* \"#utility.yul\":3159:3162   */\n      dup5\n        /* \"#utility.yul\":3150:3156   */\n      dup5\n        /* \"#utility.yul\":3145:3148   */\n      dup5\n        /* \"#utility.yul\":3141:3157   */\n      add\n        /* \"#utility.yul\":3138:3163   */\n      gt\n        /* \"#utility.yul\":3135:3247   */\n      iszero\n      tag_360\n      jumpi\n        /* \"#utility.yul\":3166:3245   */\n      tag_361\n      tag_255\n      jump\t// in\n    tag_361:\n        /* \"#utility.yul\":3135:3247   */\n    tag_360:\n        /* \"#utility.yul\":3256:3310   */\n      tag_362\n        /* \"#utility.yul\":3303:3309   */\n      dup5\n        /* \"#utility.yul\":3298:3301   */\n      dup3\n        /* \"#utility.yul\":3293:3296   */\n      dup6\n        /* \"#utility.yul\":3256:3310   */\n      tag_259\n      jump\t// in\n    tag_362:\n        /* \"#utility.yul\":2975:3316   */\n      pop\n        /* \"#utility.yul\":2891:3316   */\n      swap4\n      swap3\n      pop\n      pop\n      pop\n      jump\t// out\n        /* \"#utility.yul\":3336:3676   */\n    tag_261:\n        /* \"#utility.yul\":3392:3397   */\n      0x00\n        /* \"#utility.yul\":3441:3444   */\n      dup3\n        /* \"#utility.yul\":3434:3438   */\n      0x1f\n        /* \"#utility.yul\":3426:3432   */\n      dup4\n        /* \"#utility.yul\":3422:3439   */\n      add\n        /* \"#utility.yul\":3418:3445   */\n      slt\n        /* \"#utility.yul\":3408:3530   */\n      tag_364\n      jumpi\n        /* \"#utility.yul\":3449:3528   */\n      tag_365\n      tag_254\n      jump\t// in\n    tag_365:\n        /* \"#utility.yul\":3408:3530   */\n    tag_364:\n        /* \"#utility.yul\":3566:3572   */\n      dup2\n        /* \"#utility.yul\":3553:3573   */\n      calldataload\n        /* \"#utility.yul\":3591:3670   */\n      tag_366\n        /* \"#utility.yul\":3666:3669   */\n      dup5\n        /* \"#utility.yul\":3658:3664   */\n      dup3\n        /* \"#utility.yul\":3651:3655   */\n      0x20\n        /* \"#utility.yul\":3643:3649   */\n      dup7\n        /* \"#utility.yul\":3639:3656   */\n      add\n        /* \"#utility.yul\":3591:3670   */\n      tag_260\n      jump\t// in\n    tag_366:\n        /* \"#utility.yul\":3582:3670   */\n      swap2\n      pop\n        /* \"#utility.yul\":3398:3676   */\n      pop\n        /* \"#utility.yul\":3336:3676   */\n      swap3\n      swap2\n      pop\n      pop\n      jump\t// out\n        /* \"#utility.yul\":3682:4191   */\n    tag_24:\n        /* \"#utility.yul\":3751:3757   */\n      0x00\n        /* \"#utility.yul\":3800:3802   */\n      0x20\n        /* \"#utility.yul\":3788:3797   */\n      dup3\n        /* \"#utility.yul\":3779:3786   */\n      dup5\n        /* \"#utility.yul\":3775:3798   */\n      sub\n        /* \"#utility.yul\":3771:3803   */\n      slt\n        /* \"#utility.yul\":3768:3887   */\n      iszero\n      tag_368\n      jumpi\n        /* \"#utility.yul\":3806:3885   */\n      tag_369\n      tag_252\n      jump\t// in\n    tag_369:\n        /* \"#utility.yul\":3768:3887   */\n    tag_368:\n        /* \"#utility.yul\":3954:3955   */\n      0x00\n        /* \"#utility.yul\":3943:3952   */\n      dup3\n        /* \"#utility.yul\":3939:3956   */\n      add\n        /* \"#utility.yul\":3926:3957   */\n      calldataload\n        /* \"#utility.yul\":3984:4002   */\n      0xffffffffffffffff\n        /* \"#utility.yul\":3976:3982   */\n      dup2\n        /* \"#utility.yul\":3973:4003   */\n      gt\n        /* \"#utility.yul\":3970:4087   */\n      iszero\n      tag_370\n      jumpi\n        /* \"#utility.yul\":4006:4085   */\n      tag_371\n      tag_253\n      jump\t// in\n    tag_371:\n        /* \"#utility.yul\":3970:4087   */\n    tag_370:\n        /* \"#utility.yul\":4111:4174   */\n      tag_372\n        /* \"#utility.yul\":4166:4173   */\n      dup5\n        /* \"#utility.yul\":4157:4163   */\n      dup3\n        /* \"#utility.yul\":4146:4155   */\n      dup6\n        /* \"#utility.yul\":4142:4164   */\n      add\n        /* \"#utility.yul\":4111:4174   */\n      tag_261\n      jump\t// in\n    tag_372:\n        /* \"#utility.yul\":4101:4174   */\n      swap2\n      pop\n        /* \"#utility.yul\":3897:4184   */\n      pop\n        /* \"#utility.yul\":3682:4191   */\n      swap3\n      swap2\n      pop\n      pop\n      jump\t// out\n        /* \"#utility.yul\":4197:4323   */\n    tag_262:\n        /* \"#utility.yul\":4234:4241   */\n      0x00\n        /* \"#utility.yul\":4274:4316   */\n      0xffffffffffffffffffffffffffffffffffffffff\n        /* \"#utility.yul\":4267:4272   */\n      dup3\n        /* \"#utility.yul\":4263:4317   */\n      and\n        /* \"#utility.yul\":4252:4317   */\n      swap1\n      pop\n        /* \"#utility.yul\":4197:4323   */\n      swap2\n      swap1\n      pop\n      jump\t// out\n        /* \"#utility.yul\":4329:4425   */\n    tag_263:\n        /* \"#utility.yul\":4366:4373   */\n      0x00\n        /* \"#utility.yul\":4395:4419   */\n      tag_375\n        /* \"#utility.yul\":4413:4418   */\n      dup3\n        /* \"#utility.yul\":4395:4419   */\n      tag_262\n      jump\t// in\n    tag_375:\n        /* \"#utility.yul\":4384:4419   */\n      swap1\n      pop\n        /* \"#utility.yul\":4329:4425   */\n      swap2\n      swap1\n      pop\n      jump\t// out\n        /* \"#utility.yul\":4431:4549   */\n    tag_264:\n        /* \"#utility.yul\":4518:4542   */\n      tag_377\n        /* \"#utility.yul\":4536:4541   */\n      dup2\n        /* \"#utility.yul\":4518:4542   */\n      tag_263\n      jump\t// in\n    tag_377:\n        /* \"#utility.yul\":4513:4516   */\n      dup3\n        /* \"#utility.yul\":4506:4543   */\n      mstore\n        /* \"#utility.yul\":4431:4549   */\n      pop\n      pop\n      jump\t// out\n        /* \"#utility.yul\":4555:4777   */\n    tag_27:\n        /* \"#utility.yul\":4648:4652   */\n      0x00\n        /* \"#utility.yul\":4686:4688   */\n      0x20\n        /* \"#utility.yul\":4675:4684   */\n      dup3\n        /* \"#utility.yul\":4671:4689   */\n      add\n        /* \"#utility.yul\":4663:4689   */\n      swap1\n      pop\n        /* \"#utility.yul\":4699:4770   */\n      tag_379\n        /* \"#utility.yul\":4767:4768   */\n      0x00\n        /* \"#utility.yul\":4756:4765   */\n      dup4\n        /* \"#utility.yul\":4752:4769   */\n      add\n        /* \"#utility.yul\":4743:4749   */\n      dup5\n        /* \"#utility.yul\":4699:4770   */\n      tag_264\n      jump\t// in\n    tag_379:\n        /* \"#utility.yul\":4555:4777   */\n      swap3\n      swap2\n      pop\n      pop\n      jump\t// out\n        /* \"#utility.yul\":4783:4905   */\n    tag_265:\n        /* \"#utility.yul\":4856:4880   */\n      tag_381\n        /* \"#utility.yul\":4874:4879   */\n      dup2\n        /* \"#utility.yul\":4856:4880   */\n      tag_263\n      jump\t// in\n    tag_381:\n        /* \"#utility.yul\":4849:4854   */\n      dup2\n        /* \"#utility.yul\":4846:4881   */\n      eq\n        /* \"#utility.yul\":4836:4899   */\n      tag_382\n      jumpi\n        /* \"#utility.yul\":4895:4896   */\n      0x00\n        /* \"#utility.yul\":4892:4893   */\n      0x00\n        /* \"#utility.yul\":4885:4897   */\n      revert\n        /* \"#utility.yul\":4836:4899   */\n    tag_382:\n        /* \"#utility.yul\":4783:4905   */\n      pop\n      jump\t// out\n        /* \"#utility.yul\":4911:5050   */\n    tag_266:\n        /* \"#utility.yul\":4957:4962   */\n      0x00\n        /* \"#utility.yul\":4995:5001   */\n      dup2\n        /* \"#utility.yul\":4982:5002   */\n      calldataload\n        /* \"#utility.yul\":4973:5002   */\n      swap1\n      pop\n        /* \"#utility.yul\":5011:5044   */\n      tag_384\n        /* \"#utility.yul\":5038:5043   */\n      dup2\n        /* \"#utility.yul\":5011:5044   */\n      tag_265\n      jump\t// in\n    tag_384:\n        /* \"#utility.yul\":4911:5050   */\n      swap3\n      swap2\n      pop\n      pop\n      jump\t// out\n        /* \"#utility.yul\":5056:5385   */\n    tag_30:\n        /* \"#utility.yul\":5115:5121   */\n      0x00\n        /* \"#utility.yul\":5164:5166   */\n      0x20\n        /* \"#utility.yul\":5152:5161   */\n      dup3\n        /* \"#utility.yul\":5143:5150   */\n      dup5\n        /* \"#utility.yul\":5139:5162   */\n      sub\n        /* \"#utility.yul\":5135:5167   */\n      slt\n        /* \"#utility.yul\":5132:5251   */\n      iszero\n      tag_386\n      jumpi\n        /* \"#utility.yul\":5170:5249   */\n      tag_387\n      tag_252\n      jump\t// in\n    tag_387:\n        /* \"#utility.yul\":5132:5251   */\n    tag_386:\n        /* \"#utility.yul\":5290:5291   */\n      0x00\n        /* \"#utility.yul\":5315:5368   */\n      tag_388\n        /* \"#utility.yul\":5360:5367   */\n      dup5\n        /* \"#utility.yul\":5351:5357   */\n      dup3\n        /* \"#utility.yul\":5340:5349   */\n      dup6\n        /* \"#utility.yul\":5336:5358   */\n      add\n        /* \"#utility.yul\":5315:5368   */\n      tag_266\n      jump\t// in\n    tag_388:\n        /* \"#utility.yul\":5305:5368   */\n      swap2\n      pop\n        /* \"#utility.yul\":5261:5378   */\n      pop\n        /* \"#utility.yul\":5056:5385   */\n      swap3\n      swap2\n      pop\n      pop\n      jump\t// out\n        /* \"#utility.yul\":5391:5481   */\n    tag_267:\n        /* \"#utility.yul\":5425:5432   */\n      0x00\n        /* \"#utility.yul\":5468:5473   */\n      dup2\n        /* \"#utility.yul\":5461:5474   */\n      iszero\n        /* \"#utility.yul\":5454:5475   */\n      iszero\n        /* \"#utility.yul\":5443:5475   */\n      swap1\n      pop\n        /* \"#utility.yul\":5391:5481   */\n      swap2\n      swap1\n      pop\n      jump\t// out\n        /* \"#utility.yul\":5487:5596   */\n    tag_268:\n        /* \"#utility.yul\":5568:5589   */\n      tag_391\n        /* \"#utility.yul\":5583:5588   */\n      dup2\n        /* \"#utility.yul\":5568:5589   */\n      tag_267\n      jump\t// in\n    tag_391:\n        /* \"#utility.yul\":5563:5566   */\n      dup3\n        /* \"#utility.yul\":5556:5590   */\n      mstore\n        /* \"#utility.yul\":5487:5596   */\n      pop\n      pop\n      jump\t// out\n        /* \"#utility.yul\":5602:5812   */\n    tag_33:\n        /* \"#utility.yul\":5689:5693   */\n      0x00\n        /* \"#utility.yul\":5727:5729   */\n      0x20\n        /* \"#utility.yul\":5716:5725   */\n      dup3\n        /* \"#utility.yul\":5712:5730   */\n      add\n        /* \"#utility.yul\":5704:5730   */\n      swap1\n      pop\n        /* \"#utility.yul\":5740:5805   */\n      tag_393\n        /* \"#utility.yul\":5802:5803   */\n      0x00\n        /* \"#utility.yul\":5791:5800   */\n      dup4\n        /* \"#utility.yul\":5787:5804   */\n      add\n        /* \"#utility.yul\":5778:5784   */\n      dup5\n        /* \"#utility.yul\":5740:5805   */\n      tag_268\n      jump\t// in\n    tag_393:\n        /* \"#utility.yul\":5602:5812   */\n      swap3\n      swap2\n      pop\n      pop\n      jump\t// out\n        /* \"#utility.yul\":5818:5935   */\n    tag_269:\n        /* \"#utility.yul\":5927:5928   */\n      0x00\n        /* \"#utility.yul\":5924:5925   */\n      0x00\n        /* \"#utility.yul\":5917:5929   */\n      revert\n        /* \"#utility.yul\":5941:6058   */\n    tag_270:\n        /* \"#utility.yul\":6050:6051   */\n      0x00\n        /* \"#utility.yul\":6047:6048   */\n      0x00\n        /* \"#utility.yul\":6040:6052   */\n      revert\n        /* \"#utility.yul\":6078:6631   */\n    tag_271:\n        /* \"#utility.yul\":6136:6144   */\n      0x00\n        /* \"#utility.yul\":6146:6152   */\n      0x00\n        /* \"#utility.yul\":6196:6199   */\n      dup4\n        /* \"#utility.yul\":6189:6193   */\n      0x1f\n        /* \"#utility.yul\":6181:6187   */\n      dup5\n        /* \"#utility.yul\":6177:6194   */\n      add\n        /* \"#utility.yul\":6173:6200   */\n      slt\n        /* \"#utility.yul\":6163:6285   */\n      tag_397\n      jumpi\n        /* \"#utility.yul\":6204:6283   */\n      tag_398\n      tag_254\n      jump\t// in\n    tag_398:\n        /* \"#utility.yul\":6163:6285   */\n    tag_397:\n        /* \"#utility.yul\":6317:6323   */\n      dup3\n        /* \"#utility.yul\":6304:6324   */\n      calldataload\n        /* \"#utility.yul\":6294:6324   */\n      swap1\n      pop\n        /* \"#utility.yul\":6347:6365   */\n      0xffffffffffffffff\n        /* \"#utility.yul\":6339:6345   */\n      dup2\n        /* \"#utility.yul\":6336:6366   */\n      gt\n        /* \"#utility.yul\":6333:6450   */\n      iszero\n      tag_399\n      jumpi\n        /* \"#utility.yul\":6369:6448   */\n      tag_400\n      tag_269\n      jump\t// in\n    tag_400:\n        /* \"#utility.yul\":6333:6450   */\n    tag_399:\n        /* \"#utility.yul\":6483:6487   */\n      0x20\n        /* \"#utility.yul\":6475:6481   */\n      dup4\n        /* \"#utility.yul\":6471:6488   */\n      add\n        /* \"#utility.yul\":6459:6488   */\n      swap2\n      pop\n        /* \"#utility.yul\":6537:6540   */\n      dup4\n        /* \"#utility.yul\":6529:6533   */\n      0x01\n        /* \"#utility.yul\":6521:6527   */\n      dup3\n        /* \"#utility.yul\":6517:6534   */\n      mul\n        /* \"#utility.yul\":6507:6515   */\n      dup4\n        /* \"#utility.yul\":6503:6535   */\n      add\n        /* \"#utility.yul\":6500:6541   */\n      gt\n        /* \"#utility.yul\":6497:6625   */\n      iszero\n      tag_401\n      jumpi\n        /* \"#utility.yul\":6544:6623   */\n      tag_402\n      tag_270\n      jump\t// in\n    tag_402:\n        /* \"#utility.yul\":6497:6625   */\n    tag_401:\n        /* \"#utility.yul\":6078:6631   */\n      swap3\n      pop\n      swap3\n      swap1\n      pop\n      jump\t// out\n        /* \"#utility.yul\":6637:6714   */\n    tag_272:\n        /* \"#utility.yul\":6674:6681   */\n      0x00\n        /* \"#utility.yul\":6703:6708   */\n      dup2\n        /* \"#utility.yul\":6692:6708   */\n      swap1\n      pop\n        /* \"#utility.yul\":6637:6714   */\n      swap2\n      swap1\n      pop\n      jump\t// out\n        /* \"#utility.yul\":6720:6842   */\n    tag_273:\n        /* \"#utility.yul\":6793:6817   */\n      tag_405\n        /* \"#utility.yul\":6811:6816   */\n      dup2\n        /* \"#utility.yul\":6793:6817   */\n      tag_272\n      jump\t// in\n    tag_405:\n        /* \"#utility.yul\":6786:6791   */\n      dup2\n        /* \"#utility.yul\":6783:6818   */\n      eq\n        /* \"#utility.yul\":6773:6836   */\n      tag_406\n      jumpi\n        /* \"#utility.yul\":6832:6833   */\n      0x00\n        /* \"#utility.yul\":6829:6830   */\n      0x00\n        /* \"#utility.yul\":6822:6834   */\n      revert\n        /* \"#utility.yul\":6773:6836   */\n    tag_406:\n        /* \"#utility.yul\":6720:6842   */\n      pop\n      jump\t// out\n        /* \"#utility.yul\":6848:6987   */\n    tag_274:\n        /* \"#utility.yul\":6894:6899   */\n      0x00\n        /* \"#utility.yul\":6932:6938   */\n      dup2\n        /* \"#utility.yul\":6919:6939   */\n      calldataload\n        /* \"#utility.yul\":6910:6939   */\n      swap1\n      pop\n        /* \"#utility.yul\":6948:6981   */\n      tag_408\n        /* \"#utility.yul\":6975:6980   */\n      dup2\n        /* \"#utility.yul\":6948:6981   */\n      tag_273\n      jump\t// in\n    tag_408:\n        /* \"#utility.yul\":6848:6987   */\n      swap3\n      swap2\n      pop\n      pop\n      jump\t// out\n        /* \"#utility.yul\":6993:7958   */\n    tag_36:\n        /* \"#utility.yul\":7091:7097   */\n      0x00\n        /* \"#utility.yul\":7099:7105   */\n      0x00\n        /* \"#utility.yul\":7107:7113   */\n      0x00\n        /* \"#utility.yul\":7115:7121   */\n      0x00\n        /* \"#utility.yul\":7123:7129   */\n      0x00\n        /* \"#utility.yul\":7172:7175   */\n      0x80\n        /* \"#utility.yul\":7160:7169   */\n      dup7\n        /* \"#utility.yul\":7151:7158   */\n      dup9\n        /* \"#utility.yul\":7147:7170   */\n      sub\n        /* \"#utility.yul\":7143:7176   */\n      slt\n        /* \"#utility.yul\":7140:7260   */\n      iszero\n      tag_410\n      jumpi\n        /* \"#utility.yul\":7179:7258   */\n      tag_411\n      tag_252\n      jump\t// in\n    tag_411:\n        /* \"#utility.yul\":7140:7260   */\n    tag_410:\n        /* \"#utility.yul\":7299:7300   */\n      0x00\n        /* \"#utility.yul\":7324:7377   */\n      tag_412\n        /* \"#utility.yul\":7369:7376   */\n      dup9\n        /* \"#utility.yul\":7360:7366   */\n      dup3\n        /* \"#utility.yul\":7349:7358   */\n      dup10\n        /* \"#utility.yul\":7345:7367   */\n      add\n        /* \"#utility.yul\":7324:7377   */\n      tag_266\n      jump\t// in\n    tag_412:\n        /* \"#utility.yul\":7314:7377   */\n      swap6\n      pop\n        /* \"#utility.yul\":7270:7387   */\n      pop\n        /* \"#utility.yul\":7454:7456   */\n      0x20\n        /* \"#utility.yul\":7443:7452   */\n      dup7\n        /* \"#utility.yul\":7439:7457   */\n      add\n        /* \"#utility.yul\":7426:7458   */\n      calldataload\n        /* \"#utility.yul\":7485:7503   */\n      0xffffffffffffffff\n        /* \"#utility.yul\":7477:7483   */\n      dup2\n        /* \"#utility.yul\":7474:7504   */\n      gt\n        /* \"#utility.yul\":7471:7588   */\n      iszero\n      tag_413\n      jumpi\n        /* \"#utility.yul\":7507:7586   */\n      tag_414\n      tag_253\n      jump\t// in\n    tag_414:\n        /* \"#utility.yul\":7471:7588   */\n    tag_413:\n        /* \"#utility.yul\":7620:7685   */\n      tag_415\n        /* \"#utility.yul\":7677:7684   */\n      dup9\n        /* \"#utility.yul\":7668:7674   */\n      dup3\n        /* \"#utility.yul\":7657:7666   */\n      dup10\n        /* \"#utility.yul\":7653:7675   */\n      add\n        /* \"#utility.yul\":7620:7685   */\n      tag_271\n      jump\t// in\n    tag_415:\n        /* \"#utility.yul\":7602:7685   */\n      swap5\n      pop\n      swap5\n      pop\n        /* \"#utility.yul\":7397:7695   */\n      pop\n        /* \"#utility.yul\":7734:7736   */\n      0x40\n        /* \"#utility.yul\":7760:7813   */\n      tag_416\n        /* \"#utility.yul\":7805:7812   */\n      dup9\n        /* \"#utility.yul\":7796:7802   */\n      dup3\n        /* \"#utility.yul\":7785:7794   */\n      dup10\n        /* \"#utility.yul\":7781:7803   */\n      add\n        /* \"#utility.yul\":7760:7813   */\n      tag_274\n      jump\t// in\n    tag_416:\n        /* \"#utility.yul\":7750:7813   */\n      swap3\n      pop\n        /* \"#utility.yul\":7705:7823   */\n      pop\n        /* \"#utility.yul\":7862:7864   */\n      0x60\n        /* \"#utility.yul\":7888:7941   */\n      tag_417\n        /* \"#utility.yul\":7933:7940   */\n      dup9\n        /* \"#utility.yul\":7924:7930   */\n      dup3\n        /* \"#utility.yul\":7913:7922   */\n      dup10\n        /* \"#utility.yul\":7909:7931   */\n      add\n        /* \"#utility.yul\":7888:7941   */\n      tag_274\n      jump\t// in\n    tag_417:\n        /* \"#utility.yul\":7878:7941   */\n      swap2\n      pop\n        /* \"#utility.yul\":7833:7951   */\n      pop\n        /* \"#utility.yul\":6993:7958   */\n      swap3\n      swap6\n      pop\n      swap3\n      swap6\n      swap1\n      swap4\n      pop\n      jump\t// out\n        /* \"#utility.yul\":7964:8438   */\n    tag_42:\n        /* \"#utility.yul\":8032:8038   */\n      0x00\n        /* \"#utility.yul\":8040:8046   */\n      0x00\n        /* \"#utility.yul\":8089:8091   */\n      0x40\n        /* \"#utility.yul\":8077:8086   */\n      dup4\n        /* \"#utility.yul\":8068:8075   */\n      dup6\n        /* \"#utility.yul\":8064:8087   */\n      sub\n        /* \"#utility.yul\":8060:8092   */\n      slt\n        /* \"#utility.yul\":8057:8176   */\n      iszero\n      tag_419\n      jumpi\n        /* \"#utility.yul\":8095:8174   */\n      tag_420\n      tag_252\n      jump\t// in\n    tag_420:\n        /* \"#utility.yul\":8057:8176   */\n    tag_419:\n        /* \"#utility.yul\":8215:8216   */\n      0x00\n        /* \"#utility.yul\":8240:8293   */\n      tag_421\n        /* \"#utility.yul\":8285:8292   */\n      dup6\n        /* \"#utility.yul\":8276:8282   */\n      dup3\n        /* \"#utility.yul\":8265:8274   */\n      dup7\n        /* \"#utility.yul\":8261:8283   */\n      add\n        /* \"#utility.yul\":8240:8293   */\n      tag_266\n      jump\t// in\n    tag_421:\n        /* \"#utility.yul\":8230:8293   */\n      swap3\n      pop\n        /* \"#utility.yul\":8186:8303   */\n      pop\n        /* \"#utility.yul\":8342:8344   */\n      0x20\n        /* \"#utility.yul\":8368:8421   */\n      tag_422\n        /* \"#utility.yul\":8413:8420   */\n      dup6\n        /* \"#utility.yul\":8404:8410   */\n      dup3\n        /* \"#utility.yul\":8393:8402   */\n      dup7\n        /* \"#utility.yul\":8389:8411   */\n      add\n        /* \"#utility.yul\":8368:8421   */\n      tag_266\n      jump\t// in\n    tag_422:\n        /* \"#utility.yul\":8358:8421   */\n      swap2\n      pop\n        /* \"#utility.yul\":8313:8431   */\n      pop\n        /* \"#utility.yul\":7964:8438   */\n      swap3\n      pop\n      swap3\n      swap1\n      pop\n      jump\t// out\n        /* \"#utility.yul\":8444:8562   */\n    tag_275:\n        /* \"#utility.yul\":8531:8555   */\n      tag_424\n        /* \"#utility.yul\":8549:8554   */\n      dup2\n        /* \"#utility.yul\":8531:8555   */\n      tag_272\n      jump\t// in\n    tag_424:\n        /* \"#utility.yul\":8526:8529   */\n      dup3\n        /* \"#utility.yul\":8519:8556   */\n      mstore\n        /* \"#utility.yul\":8444:8562   */\n      pop\n      pop\n      jump\t// out\n        /* \"#utility.yul\":8568:8790   */\n    tag_45:\n        /* \"#utility.yul\":8661:8665   */\n      0x00\n        /* \"#utility.yul\":8699:8701   */\n      0x20\n        /* \"#utility.yul\":8688:8697   */\n      dup3\n        /* \"#utility.yul\":8684:8702   */\n      add\n        /* \"#utility.yul\":8676:8702   */\n      swap1\n      pop\n        /* \"#utility.yul\":8712:8783   */\n      tag_426\n        /* \"#utility.yul\":8780:8781   */\n      0x00\n        /* \"#utility.yul\":8769:8778   */\n      dup4\n        /* \"#utility.yul\":8765:8782   */\n      add\n        /* \"#utility.yul\":8756:8762   */\n      dup5\n        /* \"#utility.yul\":8712:8783   */\n      tag_275\n      jump\t// in\n    tag_426:\n        /* \"#utility.yul\":8568:8790   */\n      swap3\n      swap2\n      pop\n      pop\n      jump\t// out\n        /* \"#utility.yul\":8796:9615   */\n    tag_48:\n        /* \"#utility.yul\":8885:8891   */\n      0x00\n        /* \"#utility.yul\":8893:8899   */\n      0x00\n        /* \"#utility.yul\":8901:8907   */\n      0x00\n        /* \"#utility.yul\":8909:8915   */\n      0x00\n        /* \"#utility.yul\":8958:8960   */\n      0x60\n        /* \"#utility.yul\":8946:8955   */\n      dup6\n        /* \"#utility.yul\":8937:8944   */\n      dup8\n        /* \"#utility.yul\":8933:8956   */\n      sub\n        /* \"#utility.yul\":8929:8961   */\n      slt\n        /* \"#utility.yul\":8926:9045   */\n      iszero\n      tag_428\n      jumpi\n        /* \"#utility.yul\":8964:9043   */\n      tag_429\n      tag_252\n      jump\t// in\n    tag_429:\n        /* \"#utility.yul\":8926:9045   */\n    tag_428:\n        /* \"#utility.yul\":9112:9113   */\n      0x00\n        /* \"#utility.yul\":9101:9110   */\n      dup6\n        /* \"#utility.yul\":9097:9114   */\n      add\n        /* \"#utility.yul\":9084:9115   */\n      calldataload\n        /* \"#utility.yul\":9142:9160   */\n      0xffffffffffffffff\n        /* \"#utility.yul\":9134:9140   */\n      dup2\n        /* \"#utility.yul\":9131:9161   */\n      gt\n        /* \"#utility.yul\":9128:9245   */\n      iszero\n      tag_430\n      jumpi\n        /* \"#utility.yul\":9164:9243   */\n      tag_431\n      tag_253\n      jump\t// in\n    tag_431:\n        /* \"#utility.yul\":9128:9245   */\n    tag_430:\n        /* \"#utility.yul\":9277:9342   */\n      tag_432\n        /* \"#utility.yul\":9334:9341   */\n      dup8\n        /* \"#utility.yul\":9325:9331   */\n      dup3\n        /* \"#utility.yul\":9314:9323   */\n      dup9\n        /* \"#utility.yul\":9310:9332   */\n      add\n        /* \"#utility.yul\":9277:9342   */\n      tag_271\n      jump\t// in\n    tag_432:\n        /* \"#utility.yul\":9259:9342   */\n      swap5\n      pop\n      swap5\n      pop\n        /* \"#utility.yul\":9055:9352   */\n      pop\n        /* \"#utility.yul\":9391:9393   */\n      0x20\n        /* \"#utility.yul\":9417:9470   */\n      tag_433\n        /* \"#utility.yul\":9462:9469   */\n      dup8\n        /* \"#utility.yul\":9453:9459   */\n      dup3\n        /* \"#utility.yul\":9442:9451   */\n      dup9\n        /* \"#utility.yul\":9438:9460   */\n      add\n        /* \"#utility.yul\":9417:9470   */\n      tag_274\n      jump\t// in\n    tag_433:\n        /* \"#utility.yul\":9407:9470   */\n      swap3\n      pop\n        /* \"#utility.yul\":9362:9480   */\n      pop\n        /* \"#utility.yul\":9519:9521   */\n      0x40\n        /* \"#utility.yul\":9545:9598   */\n      tag_434\n        /* \"#utility.yul\":9590:9597   */\n      dup8\n        /* \"#utility.yul\":9581:9587   */\n      dup3\n        /* \"#utility.yul\":9570:9579   */\n      dup9\n        /* \"#utility.yul\":9566:9588   */\n      add\n        /* \"#utility.yul\":9545:9598   */\n      tag_266\n      jump\t// in\n    tag_434:\n        /* \"#utility.yul\":9535:9598   */\n      swap2\n      pop\n        /* \"#utility.yul\":9490:9608   */\n      pop\n        /* \"#utility.yul\":8796:9615   */\n      swap3\n      swap6\n      swap2\n      swap5\n      pop\n      swap3\n      pop\n      jump\t// out\n        /* \"#utility.yul\":9621:10295   */\n    tag_55:\n        /* \"#utility.yul\":9701:9707   */\n      0x00\n        /* \"#utility.yul\":9709:9715   */\n      0x00\n        /* \"#utility.yul\":9717:9723   */\n      0x00\n        /* \"#utility.yul\":9766:9768   */\n      0x40\n        /* \"#utility.yul\":9754:9763   */\n      dup5\n        /* \"#utility.yul\":9745:9752   */\n      dup7\n        /* \"#utility.yul\":9741:9764   */\n      sub\n        /* \"#utility.yul\":9737:9769   */\n      slt\n        /* \"#utility.yul\":9734:9853   */\n      iszero\n      tag_436\n      jumpi\n        /* \"#utility.yul\":9772:9851   */\n      tag_437\n      tag_252\n      jump\t// in\n    tag_437:\n        /* \"#utility.yul\":9734:9853   */\n    tag_436:\n        /* \"#utility.yul\":9920:9921   */\n      0x00\n        /* \"#utility.yul\":9909:9918   */\n      dup5\n        /* \"#utility.yul\":9905:9922   */\n      add\n        /* \"#utility.yul\":9892:9923   */\n      calldataload\n        /* \"#utility.yul\":9950:9968   */\n      0xffffffffffffffff\n        /* \"#utility.yul\":9942:9948   */\n      dup2\n        /* \"#utility.yul\":9939:9969   */\n      gt\n        /* \"#utility.yul\":9936:10053   */\n      iszero\n      tag_438\n      jumpi\n        /* \"#utility.yul\":9972:10051   */\n      tag_439\n      tag_253\n      jump\t// in\n    tag_439:\n        /* \"#utility.yul\":9936:10053   */\n    tag_438:\n        /* \"#utility.yul\":10085:10150   */\n      tag_440\n        /* \"#utility.yul\":10142:10149   */\n      dup7\n        /* \"#utility.yul\":10133:10139   */\n      dup3\n        /* \"#utility.yul\":10122:10131   */\n      dup8\n        /* \"#utility.yul\":10118:10140   */\n      add\n        /* \"#utility.yul\":10085:10150   */\n      tag_271\n      jump\t// in\n    tag_440:\n        /* \"#utility.yul\":10067:10150   */\n      swap4\n      pop\n      swap4\n      pop\n        /* \"#utility.yul\":9863:10160   */\n      pop\n        /* \"#utility.yul\":10199:10201   */\n      0x20\n        /* \"#utility.yul\":10225:10278   */\n      tag_441\n        /* \"#utility.yul\":10270:10277   */\n      dup7\n        /* \"#utility.yul\":10261:10267   */\n      dup3\n        /* \"#utility.yul\":10250:10259   */\n      dup8\n        /* \"#utility.yul\":10246:10268   */\n      add\n        /* \"#utility.yul\":10225:10278   */\n      tag_274\n      jump\t// in\n    tag_441:\n        /* \"#utility.yul\":10215:10278   */\n      swap2\n      pop\n        /* \"#utility.yul\":10170:10288   */\n      pop\n        /* \"#utility.yul\":9621:10295   */\n      swap3\n      pop\n      swap3\n      pop\n      swap3\n      jump\t// out\n        /* \"#utility.yul\":10301:10361   */\n    tag_276:\n        /* \"#utility.yul\":10329:10332   */\n      0x00\n        /* \"#utility.yul\":10350:10355   */\n      dup2\n        /* \"#utility.yul\":10343:10355   */\n      swap1\n      pop\n        /* \"#utility.yul\":10301:10361   */\n      swap2\n      swap1\n      pop\n      jump\t// out\n        /* \"#utility.yul\":10367:10509   */\n    tag_277:\n        /* \"#utility.yul\":10417:10426   */\n      0x00\n        /* \"#utility.yul\":10450:10503   */\n      tag_444\n        /* \"#utility.yul\":10468:10502   */\n      tag_445\n        /* \"#utility.yul\":10477:10501   */\n      tag_446\n        /* \"#utility.yul\":10495:10500   */\n      dup5\n        /* \"#utility.yul\":10477:10501   */\n      tag_262\n      jump\t// in\n    tag_446:\n        /* \"#utility.yul\":10468:10502   */\n      tag_276\n      jump\t// in\n    tag_445:\n        /* \"#utility.yul\":10450:10503   */\n      tag_262\n      jump\t// in\n    tag_444:\n        /* \"#utility.yul\":10437:10503   */\n      swap1\n      pop\n        /* \"#utility.yul\":10367:10509   */\n      swap2\n      swap1\n      pop\n      jump\t// out\n        /* \"#utility.yul\":10515:10641   */\n    tag_278:\n        /* \"#utility.yul\":10565:10574   */\n      0x00\n        /* \"#utility.yul\":10598:10635   */\n      tag_448\n        /* \"#utility.yul\":10629:10634   */\n      dup3\n        /* \"#utility.yul\":10598:10635   */\n      tag_277\n      jump\t// in\n    tag_448:\n        /* \"#utility.yul\":10585:10635   */\n      swap1\n      pop\n        /* \"#utility.yul\":10515:10641   */\n      swap2\n      swap1\n      pop\n      jump\t// out\n        /* \"#utility.yul\":10647:10788   */\n    tag_279:\n        /* \"#utility.yul\":10712:10721   */\n      0x00\n        /* \"#utility.yul\":10745:10782   */\n      tag_450\n        /* \"#utility.yul\":10776:10781   */\n      dup3\n        /* \"#utility.yul\":10745:10782   */\n      tag_278\n      jump\t// in\n    tag_450:\n        /* \"#utility.yul\":10732:10782   */\n      swap1\n      pop\n        /* \"#utility.yul\":10647:10788   */\n      swap2\n      swap1\n      pop\n      jump\t// out\n        /* \"#utility.yul\":10794:10955   */\n    tag_280:\n        /* \"#utility.yul\":10896:10948   */\n      tag_452\n        /* \"#utility.yul\":10942:10947   */\n      dup2\n        /* \"#utility.yul\":10896:10948   */\n      tag_279\n      jump\t// in\n    tag_452:\n        /* \"#utility.yul\":10891:10894   */\n      dup3\n        /* \"#utility.yul\":10884:10949   */\n      mstore\n        /* \"#utility.yul\":10794:10955   */\n      pop\n      pop\n      jump\t// out\n        /* \"#utility.yul\":10961:11213   */\n    tag_60:\n        /* \"#utility.yul\":11069:11073   */\n      0x00\n        /* \"#utility.yul\":11107:11109   */\n      0x20\n        /* \"#utility.yul\":11096:11105   */\n      dup3\n        /* \"#utility.yul\":11092:11110   */\n      add\n        /* \"#utility.yul\":11084:11110   */\n      swap1\n      pop\n        /* \"#utility.yul\":11120:11206   */\n      tag_454\n        /* \"#utility.yul\":11203:11204   */\n      0x00\n        /* \"#utility.yul\":11192:11201   */\n      dup4\n        /* \"#utility.yul\":11188:11205   */\n      add\n        /* \"#utility.yul\":11179:11185   */\n      dup5\n        /* \"#utility.yul\":11120:11206   */\n      tag_280\n      jump\t// in\n    tag_454:\n        /* \"#utility.yul\":10961:11213   */\n      swap3\n      swap2\n      pop\n      pop\n      jump\t// out\n        /* \"#utility.yul\":11219:11363   */\n    tag_281:\n        /* \"#utility.yul\":11287:11296   */\n      0x00\n        /* \"#utility.yul\":11320:11357   */\n      tag_456\n        /* \"#utility.yul\":11351:11356   */\n      dup3\n        /* \"#utility.yul\":11320:11357   */\n      tag_278\n      jump\t// in\n    tag_456:\n        /* \"#utility.yul\":11307:11357   */\n      swap1\n      pop\n        /* \"#utility.yul\":11219:11363   */\n      swap2\n      swap1\n      pop\n      jump\t// out\n        /* \"#utility.yul\":11369:11536   */\n    tag_282:\n        /* \"#utility.yul\":11474:11529   */\n      tag_458\n        /* \"#utility.yul\":11523:11528   */\n      dup2\n        /* \"#utility.yul\":11474:11529   */\n      tag_281\n      jump\t// in\n    tag_458:\n        /* \"#utility.yul\":11469:11472   */\n      dup3\n        /* \"#utility.yul\":11462:11530   */\n      mstore\n        /* \"#utility.yul\":11369:11536   */\n      pop\n      pop\n      jump\t// out\n        /* \"#utility.yul\":11542:11800   */\n    tag_64:\n        /* \"#utility.yul\":11653:11657   */\n      0x00\n        /* \"#utility.yul\":11691:11693   */\n      0x20\n        /* \"#utility.yul\":11680:11689   */\n      dup3\n        /* \"#utility.yul\":11676:11694   */\n      add\n        /* \"#utility.yul\":11668:11694   */\n      swap1\n      pop\n        /* \"#utility.yul\":11704:11793   */\n      tag_460\n        /* \"#utility.yul\":11790:11791   */\n      0x00\n        /* \"#utility.yul\":11779:11788   */\n      dup4\n        /* \"#utility.yul\":11775:11792   */\n      add\n        /* \"#utility.yul\":11766:11772   */\n      dup5\n        /* \"#utility.yul\":11704:11793   */\n      tag_282\n      jump\t// in\n    tag_460:\n        /* \"#utility.yul\":11542:11800   */\n      swap3\n      swap2\n      pop\n      pop\n      jump\t// out\n        /* \"#utility.yul\":11806:12335   */\n    tag_67:\n        /* \"#utility.yul\":11877:11883   */\n      0x00\n        /* \"#utility.yul\":11885:11891   */\n      0x00\n        /* \"#utility.yul\":11934:11936   */\n      0x20\n        /* \"#utility.yul\":11922:11931   */\n      dup4\n        /* \"#utility.yul\":11913:11920   */\n      dup6\n        /* \"#utility.yul\":11909:11932   */\n      sub\n        /* \"#utility.yul\":11905:11937   */\n      slt\n        /* \"#utility.yul\":11902:12021   */\n      iszero\n      tag_462\n      jumpi\n        /* \"#utility.yul\":11940:12019   */\n      tag_463\n      tag_252\n      jump\t// in\n    tag_463:\n        /* \"#utility.yul\":11902:12021   */\n    tag_462:\n        /* \"#utility.yul\":12088:12089   */\n      0x00\n        /* \"#utility.yul\":12077:12086   */\n      dup4\n        /* \"#utility.yul\":12073:12090   */\n      add\n        /* \"#utility.yul\":12060:12091   */\n      calldataload\n        /* \"#utility.yul\":12118:12136   */\n      0xffffffffffffffff\n        /* \"#utility.yul\":12110:12116   */\n      dup2\n        /* \"#utility.yul\":12107:12137   */\n      gt\n        /* \"#utility.yul\":12104:12221   */\n      iszero\n      tag_464\n      jumpi\n        /* \"#utility.yul\":12140:12219   */\n      tag_465\n      tag_253\n      jump\t// in\n    tag_465:\n        /* \"#utility.yul\":12104:12221   */\n    tag_464:\n        /* \"#utility.yul\":12253:12318   */\n      tag_466\n        /* \"#utility.yul\":12310:12317   */\n      dup6\n        /* \"#utility.yul\":12301:12307   */\n      dup3\n        /* \"#utility.yul\":12290:12299   */\n      dup7\n        /* \"#utility.yul\":12286:12308   */\n      add\n        /* \"#utility.yul\":12253:12318   */\n      tag_271\n      jump\t// in\n    tag_466:\n        /* \"#utility.yul\":12235:12318   */\n      swap3\n      pop\n      swap3\n      pop\n        /* \"#utility.yul\":12031:12328   */\n      pop\n        /* \"#utility.yul\":11806:12335   */\n      swap3\n      pop\n      swap3\n      swap1\n      pop\n      jump\t// out\n        /* \"#utility.yul\":12341:12521   */\n    tag_283:\n        /* \"#utility.yul\":12389:12466   */\n      0x4e487b7100000000000000000000000000000000000000000000000000000000\n        /* \"#utility.yul\":12386:12387   */\n      0x00\n        /* \"#utility.yul\":12379:12467   */\n      mstore\n        /* \"#utility.yul\":12486:12490   */\n      0x22\n        /* \"#utility.yul\":12483:12484   */\n      0x04\n        /* \"#utility.yul\":12476:12491   */\n      mstore\n        /* \"#utility.yul\":12510:12514   */\n      0x24\n        /* \"#utility.yul\":12507:12508   */\n      0x00\n        /* \"#utility.yul\":12500:12515   */\n      revert\n        /* \"#utility.yul\":12527:12847   */\n    tag_73:\n        /* \"#utility.yul\":12571:12577   */\n      0x00\n        /* \"#utility.yul\":12608:12609   */\n      0x02\n        /* \"#utility.yul\":12602:12606   */\n      dup3\n        /* \"#utility.yul\":12598:12610   */\n      div\n        /* \"#utility.yul\":12588:12610   */\n      swap1\n      pop\n        /* \"#utility.yul\":12655:12656   */\n      0x01\n        /* \"#utility.yul\":12649:12653   */\n      dup3\n        /* \"#utility.yul\":12645:12657   */\n      and\n        /* \"#utility.yul\":12676:12694   */\n      dup1\n        /* \"#utility.yul\":12666:12747   */\n      tag_469\n      jumpi\n        /* \"#utility.yul\":12732:12736   */\n      0x7f\n        /* \"#utility.yul\":12724:12730   */\n      dup3\n        /* \"#utility.yul\":12720:12737   */\n      and\n        /* \"#utility.yul\":12710:12737   */\n      swap2\n      pop\n        /* \"#utility.yul\":12666:12747   */\n    tag_469:\n        /* \"#utility.yul\":12794:12796   */\n      0x20\n        /* \"#utility.yul\":12786:12792   */\n      dup3\n        /* \"#utility.yul\":12783:12797   */\n      lt\n        /* \"#utility.yul\":12763:12781   */\n      dup2\n        /* \"#utility.yul\":12760:12798   */\n      sub\n        /* \"#utility.yul\":12757:12841   */\n      tag_470\n      jumpi\n        /* \"#utility.yul\":12813:12831   */\n      tag_471\n      tag_283\n      jump\t// in\n    tag_471:\n        /* \"#utility.yul\":12757:12841   */\n    tag_470:\n        /* \"#utility.yul\":12578:12847   */\n      pop\n        /* \"#utility.yul\":12527:12847   */\n      swap2\n      swap1\n      pop\n      jump\t// out\n        /* \"#utility.yul\":12853:13001   */\n    tag_284:\n        /* \"#utility.yul\":12955:12966   */\n      0x00\n        /* \"#utility.yul\":12992:12995   */\n      dup2\n        /* \"#utility.yul\":12977:12995   */\n      swap1\n      pop\n        /* \"#utility.yul\":12853:13001   */\n      swap3\n      swap2\n      pop\n      pop\n      jump\t// out\n        /* \"#utility.yul\":13007:13397   */\n    tag_285:\n        /* \"#utility.yul\":13113:13116   */\n      0x00\n        /* \"#utility.yul\":13141:13180   */\n      tag_474\n        /* \"#utility.yul\":13174:13179   */\n      dup3\n        /* \"#utility.yul\":13141:13180   */\n      tag_246\n      jump\t// in\n    tag_474:\n        /* \"#utility.yul\":13196:13285   */\n      tag_475\n        /* \"#utility.yul\":13278:13284   */\n      dup2\n        /* \"#utility.yul\":13273:13276   */\n      dup6\n        /* \"#utility.yul\":13196:13285   */\n      tag_284\n      jump\t// in\n    tag_475:\n        /* \"#utility.yul\":13189:13285   */\n      swap4\n      pop\n        /* \"#utility.yul\":13294:13359   */\n      tag_476\n        /* \"#utility.yul\":13352:13358   */\n      dup2\n        /* \"#utility.yul\":13347:13350   */\n      dup6\n        /* \"#utility.yul\":13340:13344   */\n      0x20\n        /* \"#utility.yul\":13333:13338   */\n      dup7\n        /* \"#utility.yul\":13329:13345   */\n      add\n        /* \"#utility.yul\":13294:13359   */\n      tag_248\n      jump\t// in\n    tag_476:\n        /* \"#utility.yul\":13384:13390   */\n      dup1\n        /* \"#utility.yul\":13379:13382   */\n      dup5\n        /* \"#utility.yul\":13375:13391   */\n      add\n        /* \"#utility.yul\":13368:13391   */\n      swap2\n      pop\n        /* \"#utility.yul\":13117:13397   */\n      pop\n        /* \"#utility.yul\":13007:13397   */\n      swap3\n      swap2\n      pop\n      pop\n      jump\t// out\n        /* \"#utility.yul\":13403:13554   */\n    tag_286:\n        /* \"#utility.yul\":13543:13546   */\n      0x5f00000000000000000000000000000000000000000000000000000000000000\n        /* \"#utility.yul\":13539:13540   */\n      0x00\n        /* \"#utility.yul\":13531:13537   */\n      dup3\n        /* \"#utility.yul\":13527:13541   */\n      add\n        /* \"#utility.yul\":13520:13547   */\n      mstore\n        /* \"#utility.yul\":13403:13554   */\n      pop\n      jump\t// out\n        /* \"#utility.yul\":13560:13960   */\n    tag_287:\n        /* \"#utility.yul\":13720:13723   */\n      0x00\n        /* \"#utility.yul\":13741:13825   */\n      tag_479\n        /* \"#utility.yul\":13823:13824   */\n      0x01\n        /* \"#utility.yul\":13818:13821   */\n      dup4\n        /* \"#utility.yul\":13741:13825   */\n      tag_284\n      jump\t// in\n    tag_479:\n        /* \"#utility.yul\":13734:13825   */\n      swap2\n      pop\n        /* \"#utility.yul\":13834:13927   */\n      tag_480\n        /* \"#utility.yul\":13923:13926   */\n      dup3\n        /* \"#utility.yul\":13834:13927   */\n      tag_286\n      jump\t// in\n    tag_480:\n        /* \"#utility.yul\":13952:13953   */\n      0x01\n        /* \"#utility.yul\":13947:13950   */\n      dup3\n        /* \"#utility.yul\":13943:13954   */\n      add\n        /* \"#utility.yul\":13936:13954   */\n      swap1\n      pop\n        /* \"#utility.yul\":13560:13960   */\n      swap2\n      swap1\n      pop\n      jump\t// out\n        /* \"#utility.yul\":13966:14107   */\n    tag_288:\n        /* \"#utility.yul\":14015:14019   */\n      0x00\n        /* \"#utility.yul\":14038:14041   */\n      dup2\n        /* \"#utility.yul\":14030:14041   */\n      swap1\n      pop\n        /* \"#utility.yul\":14061:14064   */\n      dup2\n        /* \"#utility.yul\":14058:14059   */\n      0x00\n        /* \"#utility.yul\":14051:14065   */\n      mstore\n        /* \"#utility.yul\":14095:14099   */\n      0x20\n        /* \"#utility.yul\":14092:14093   */\n      0x00\n        /* \"#utility.yul\":14082:14100   */\n      keccak256\n        /* \"#utility.yul\":14074:14100   */\n      swap1\n      pop\n        /* \"#utility.yul\":13966:14107   */\n      swap2\n      swap1\n      pop\n      jump\t// out\n        /* \"#utility.yul\":14137:15011   */\n    tag_289:\n        /* \"#utility.yul\":14240:14243   */\n      0x00\n        /* \"#utility.yul\":14277:14282   */\n      dup2\n        /* \"#utility.yul\":14271:14283   */\n      sload\n        /* \"#utility.yul\":14306:14342   */\n      tag_483\n        /* \"#utility.yul\":14332:14341   */\n      dup2\n        /* \"#utility.yul\":14306:14342   */\n      tag_73\n      jump\t// in\n    tag_483:\n        /* \"#utility.yul\":14358:14447   */\n      tag_484\n        /* \"#utility.yul\":14440:14446   */\n      dup2\n        /* \"#utility.yul\":14435:14438   */\n      dup7\n        /* \"#utility.yul\":14358:14447   */\n      tag_284\n      jump\t// in\n    tag_484:\n        /* \"#utility.yul\":14351:14447   */\n      swap5\n      pop\n        /* \"#utility.yul\":14478:14479   */\n      0x01\n        /* \"#utility.yul\":14467:14476   */\n      dup3\n        /* \"#utility.yul\":14463:14480   */\n      and\n        /* \"#utility.yul\":14494:14495   */\n      0x00\n        /* \"#utility.yul\":14489:14655   */\n      dup2\n      eq\n      tag_486\n      jumpi\n        /* \"#utility.yul\":14669:14670   */\n      0x01\n        /* \"#utility.yul\":14664:15005   */\n      dup2\n      eq\n      tag_487\n      jumpi\n        /* \"#utility.yul\":14456:15005   */\n      jump(tag_485)\n        /* \"#utility.yul\":14489:14655   */\n    tag_486:\n        /* \"#utility.yul\":14573:14577   */\n      0xff\n        /* \"#utility.yul\":14569:14578   */\n      not\n        /* \"#utility.yul\":14558:14567   */\n      dup4\n        /* \"#utility.yul\":14554:14579   */\n      and\n        /* \"#utility.yul\":14549:14552   */\n      dup7\n        /* \"#utility.yul\":14542:14580   */\n      mstore\n        /* \"#utility.yul\":14635:14641   */\n      dup2\n        /* \"#utility.yul\":14628:14642   */\n      iszero\n        /* \"#utility.yul\":14621:14643   */\n      iszero\n        /* \"#utility.yul\":14613:14619   */\n      dup3\n        /* \"#utility.yul\":14609:14644   */\n      mul\n        /* \"#utility.yul\":14604:14607   */\n      dup7\n        /* \"#utility.yul\":14600:14645   */\n      add\n        /* \"#utility.yul\":14593:14645   */\n      swap4\n      pop\n        /* \"#utility.yul\":14489:14655   */\n      jump(tag_485)\n        /* \"#utility.yul\":14664:15005   */\n    tag_487:\n        /* \"#utility.yul\":14731:14769   */\n      tag_488\n        /* \"#utility.yul\":14763:14768   */\n      dup6\n        /* \"#utility.yul\":14731:14769   */\n      tag_288\n      jump\t// in\n    tag_488:\n        /* \"#utility.yul\":14791:14792   */\n      0x00\n        /* \"#utility.yul\":14805:14959   */\n    tag_489:\n        /* \"#utility.yul\":14819:14825   */\n      dup4\n        /* \"#utility.yul\":14816:14817   */\n      dup2\n        /* \"#utility.yul\":14813:14826   */\n      lt\n        /* \"#utility.yul\":14805:14959   */\n      iszero\n      tag_491\n      jumpi\n        /* \"#utility.yul\":14893:14900   */\n      dup2\n        /* \"#utility.yul\":14887:14901   */\n      sload\n        /* \"#utility.yul\":14883:14884   */\n      dup2\n        /* \"#utility.yul\":14878:14881   */\n      dup10\n        /* \"#utility.yul\":14874:14885   */\n      add\n        /* \"#utility.yul\":14867:14902   */\n      mstore\n        /* \"#utility.yul\":14943:14944   */\n      0x01\n        /* \"#utility.yul\":14934:14941   */\n      dup3\n        /* \"#utility.yul\":14930:14945   */\n      add\n        /* \"#utility.yul\":14919:14945   */\n      swap2\n      pop\n        /* \"#utility.yul\":14841:14845   */\n      0x20\n        /* \"#utility.yul\":14838:14839   */\n      dup2\n        /* \"#utility.yul\":14834:14846   */\n      add\n        /* \"#utility.yul\":14829:14846   */\n      swap1\n      pop\n        /* \"#utility.yul\":14805:14959   */\n      jump(tag_489)\n    tag_491:\n        /* \"#utility.yul\":14988:14994   */\n      dup4\n        /* \"#utility.yul\":14983:14986   */\n      dup9\n        /* \"#utility.yul\":14979:14995   */\n      add\n        /* \"#utility.yul\":14972:14995   */\n      swap6\n      pop\n        /* \"#utility.yul\":14671:15005   */\n      pop\n      pop\n        /* \"#utility.yul\":14456:15005   */\n    tag_485:\n      pop\n        /* \"#utility.yul\":14244:15011   */\n      pop\n      pop\n        /* \"#utility.yul\":14137:15011   */\n      swap3\n      swap2\n      pop\n      pop\n      jump\t// out\n        /* \"#utility.yul\":15017:15712   */\n    tag_80:\n        /* \"#utility.yul\":15295:15298   */\n      0x00\n        /* \"#utility.yul\":15317:15412   */\n      tag_493\n        /* \"#utility.yul\":15408:15411   */\n      dup3\n        /* \"#utility.yul\":15399:15405   */\n      dup6\n        /* \"#utility.yul\":15317:15412   */\n      tag_285\n      jump\t// in\n    tag_493:\n        /* \"#utility.yul\":15310:15412   */\n      swap2\n      pop\n        /* \"#utility.yul\":15429:15577   */\n      tag_494\n        /* \"#utility.yul\":15573:15576   */\n      dup3\n        /* \"#utility.yul\":15429:15577   */\n      tag_287\n      jump\t// in\n    tag_494:\n        /* \"#utility.yul\":15422:15577   */\n      swap2\n      pop\n        /* \"#utility.yul\":15594:15686   */\n      tag_495\n        /* \"#utility.yul\":15682:15685   */\n      dup3\n        /* \"#utility.yul\":15673:15679   */\n      dup5\n        /* \"#utility.yul\":15594:15686   */\n      tag_289\n      jump\t// in\n    tag_495:\n        /* \"#utility.yul\":15587:15686   */\n      swap2\n      pop\n        /* \"#utility.yul\":15703:15706   */\n      dup2\n        /* \"#utility.yul\":15696:15706   */\n      swap1\n      pop\n        /* \"#utility.yul\":15017:15712   */\n      swap4\n      swap3\n      pop\n      pop\n      pop\n      jump\t// out\n        /* \"#utility.yul\":15718:15884   */\n    tag_290:\n        /* \"#utility.yul\":15858:15876   */\n      0x51696172614d6f6e616441737365747300000000000000000000000000000000\n        /* \"#utility.yul\":15854:15855   */\n      0x00\n        /* \"#utility.yul\":15846:15852   */\n      dup3\n        /* \"#utility.yul\":15842:15856   */\n      add\n        /* \"#utility.yul\":15835:15877   */\n      mstore\n        /* \"#utility.yul\":15718:15884   */\n      pop\n      jump\t// out\n        /* \"#utility.yul\":15890:16256   */\n    tag_291:\n        /* \"#utility.yul\":16032:16035   */\n      0x00\n        /* \"#utility.yul\":16053:16120   */\n      tag_498\n        /* \"#utility.yul\":16117:16119   */\n      0x10\n        /* \"#utility.yul\":16112:16115   */\n      dup4\n        /* \"#utility.yul\":16053:16120   */\n      tag_247\n      jump\t// in\n    tag_498:\n        /* \"#utility.yul\":16046:16120   */\n      swap2\n      pop\n        /* \"#utility.yul\":16129:16222   */\n      tag_499\n        /* \"#utility.yul\":16218:16221   */\n      dup3\n        /* \"#utility.yul\":16129:16222   */\n      tag_290\n      jump\t// in\n    tag_499:\n        /* \"#utility.yul\":16247:16249   */\n      0x20\n        /* \"#utility.yul\":16242:16245   */\n      dup3\n        /* \"#utility.yul\":16238:16250   */\n      add\n        /* \"#utility.yul\":16231:16250   */\n      swap1\n      pop\n        /* \"#utility.yul\":15890:16256   */\n      swap2\n      swap1\n      pop\n      jump\t// out\n        /* \"#utility.yul\":16262:16882   */\n    tag_82:\n        /* \"#utility.yul\":16476:16480   */\n      0x00\n        /* \"#utility.yul\":16514:16516   */\n      0x40\n        /* \"#utility.yul\":16503:16512   */\n      dup3\n        /* \"#utility.yul\":16499:16517   */\n      add\n        /* \"#utility.yul\":16491:16517   */\n      swap1\n      pop\n        /* \"#utility.yul\":16563:16572   */\n      dup2\n        /* \"#utility.yul\":16557:16561   */\n      dup2\n        /* \"#utility.yul\":16553:16573   */\n      sub\n        /* \"#utility.yul\":16549:16550   */\n      0x00\n        /* \"#utility.yul\":16538:16547   */\n      dup4\n        /* \"#utility.yul\":16534:16551   */\n      add\n        /* \"#utility.yul\":16527:16574   */\n      mstore\n        /* \"#utility.yul\":16591:16722   */\n      tag_501\n        /* \"#utility.yul\":16717:16721   */\n      dup2\n        /* \"#utility.yul\":16591:16722   */\n      tag_291\n      jump\t// in\n    tag_501:\n        /* \"#utility.yul\":16583:16722   */\n      swap1\n      pop\n        /* \"#utility.yul\":16769:16778   */\n      dup2\n        /* \"#utility.yul\":16763:16767   */\n      dup2\n        /* \"#utility.yul\":16759:16779   */\n      sub\n        /* \"#utility.yul\":16754:16756   */\n      0x20\n        /* \"#utility.yul\":16743:16752   */\n      dup4\n        /* \"#utility.yul\":16739:16757   */\n      add\n        /* \"#utility.yul\":16732:16780   */\n      mstore\n        /* \"#utility.yul\":16797:16875   */\n      tag_502\n        /* \"#utility.yul\":16870:16874   */\n      dup2\n        /* \"#utility.yul\":16861:16867   */\n      dup5\n        /* \"#utility.yul\":16797:16875   */\n      tag_250\n      jump\t// in\n    tag_502:\n        /* \"#utility.yul\":16789:16875   */\n      swap1\n      pop\n        /* \"#utility.yul\":16262:16882   */\n      swap3\n      swap2\n      pop\n      pop\n      jump\t// out\n        /* \"#utility.yul\":16888:17195   */\n    tag_292:\n        /* \"#utility.yul\":16949:16953   */\n      0x00\n        /* \"#utility.yul\":17039:17057   */\n      0xffffffffffffffff\n        /* \"#utility.yul\":17031:17037   */\n      dup3\n        /* \"#utility.yul\":17028:17058   */\n      gt\n        /* \"#utility.yul\":17025:17081   */\n      iszero\n      tag_504\n      jumpi\n        /* \"#utility.yul\":17061:17079   */\n      tag_505\n      tag_104\n      jump\t// in\n    tag_505:\n        /* \"#utility.yul\":17025:17081   */\n    tag_504:\n        /* \"#utility.yul\":17099:17128   */\n      tag_506\n        /* \"#utility.yul\":17121:17127   */\n      dup3\n        /* \"#utility.yul\":17099:17128   */\n      tag_249\n      jump\t// in\n    tag_506:\n        /* \"#utility.yul\":17091:17128   */\n      swap1\n      pop\n        /* \"#utility.yul\":17183:17187   */\n      0x20\n        /* \"#utility.yul\":17177:17181   */\n      dup2\n        /* \"#utility.yul\":17173:17188   */\n      add\n        /* \"#utility.yul\":17165:17188   */\n      swap1\n      pop\n        /* \"#utility.yul\":16888:17195   */\n      swap2\n      swap1\n      pop\n      jump\t// out\n        /* \"#utility.yul\":17201:17633   */\n    tag_293:\n        /* \"#utility.yul\":17289:17294   */\n      0x00\n        /* \"#utility.yul\":17314:17379   */\n      tag_508\n        /* \"#utility.yul\":17330:17378   */\n      tag_509\n        /* \"#utility.yul\":17371:17377   */\n      dup5\n        /* \"#utility.yul\":17330:17378   */\n      tag_292\n      jump\t// in\n    tag_509:\n        /* \"#utility.yul\":17314:17379   */\n      tag_257\n      jump\t// in\n    tag_508:\n        /* \"#utility.yul\":17305:17379   */\n      swap1\n      pop\n        /* \"#utility.yul\":17402:17408   */\n      dup3\n        /* \"#utility.yul\":17395:17400   */\n      dup2\n        /* \"#utility.yul\":17388:17409   */\n      mstore\n        /* \"#utility.yul\":17440:17444   */\n      0x20\n        /* \"#utility.yul\":17433:17438   */\n      dup2\n        /* \"#utility.yul\":17429:17445   */\n      add\n        /* \"#utility.yul\":17478:17481   */\n      dup5\n        /* \"#utility.yul\":17469:17475   */\n      dup5\n        /* \"#utility.yul\":17464:17467   */\n      dup5\n        /* \"#utility.yul\":17460:17476   */\n      add\n        /* \"#utility.yul\":17457:17482   */\n      gt\n        /* \"#utility.yul\":17454:17566   */\n      iszero\n      tag_510\n      jumpi\n        /* \"#utility.yul\":17485:17564   */\n      tag_511\n      tag_255\n      jump\t// in\n    tag_511:\n        /* \"#utility.yul\":17454:17566   */\n    tag_510:\n        /* \"#utility.yul\":17575:17627   */\n      tag_512\n        /* \"#utility.yul\":17620:17626   */\n      dup5\n        /* \"#utility.yul\":17615:17618   */\n      dup3\n        /* \"#utility.yul\":17610:17613   */\n      dup6\n        /* \"#utility.yul\":17575:17627   */\n      tag_248\n      jump\t// in\n    tag_512:\n        /* \"#utility.yul\":17295:17633   */\n      pop\n        /* \"#utility.yul\":17201:17633   */\n      swap4\n      swap3\n      pop\n      pop\n      pop\n      jump\t// out\n        /* \"#utility.yul\":17652:18005   */\n    tag_294:\n        /* \"#utility.yul\":17718:17723   */\n      0x00\n        /* \"#utility.yul\":17767:17770   */\n      dup3\n        /* \"#utility.yul\":17760:17764   */\n      0x1f\n        /* \"#utility.yul\":17752:17758   */\n      dup4\n        /* \"#utility.yul\":17748:17765   */\n      add\n        /* \"#utility.yul\":17744:17771   */\n      slt\n        /* \"#utility.yul\":17734:17856   */\n      tag_514\n      jumpi\n        /* \"#utility.yul\":17775:17854   */\n      tag_515\n      tag_254\n      jump\t// in\n    tag_515:\n        /* \"#utility.yul\":17734:17856   */\n    tag_514:\n        /* \"#utility.yul\":17885:17891   */\n      dup2\n        /* \"#utility.yul\":17879:17892   */\n      mload\n        /* \"#utility.yul\":17910:17999   */\n      tag_516\n        /* \"#utility.yul\":17995:17998   */\n      dup5\n        /* \"#utility.yul\":17987:17993   */\n      dup3\n        /* \"#utility.yul\":17980:17984   */\n      0x20\n        /* \"#utility.yul\":17972:17978   */\n      dup7\n        /* \"#utility.yul\":17968:17985   */\n      add\n        /* \"#utility.yul\":17910:17999   */\n      tag_293\n      jump\t// in\n    tag_516:\n        /* \"#utility.yul\":17901:17999   */\n      swap2\n      pop\n        /* \"#utility.yul\":17724:18005   */\n      pop\n        /* \"#utility.yul\":17652:18005   */\n      swap3\n      swap2\n      pop\n      pop\n      jump\t// out\n        /* \"#utility.yul\":18011:18533   */\n    tag_86:\n        /* \"#utility.yul\":18090:18096   */\n      0x00\n        /* \"#utility.yul\":18139:18141   */\n      0x20\n        /* \"#utility.yul\":18127:18136   */\n      dup3\n        /* \"#utility.yul\":18118:18125   */\n      dup5\n        /* \"#utility.yul\":18114:18137   */\n      sub\n        /* \"#utility.yul\":18110:18142   */\n      slt\n        /* \"#utility.yul\":18107:18226   */\n      iszero\n      tag_518\n      jumpi\n        /* \"#utility.yul\":18145:18224   */\n      tag_519\n      tag_252\n      jump\t// in\n    tag_519:\n        /* \"#utility.yul\":18107:18226   */\n    tag_518:\n        /* \"#utility.yul\":18286:18287   */\n      0x00\n        /* \"#utility.yul\":18275:18284   */\n      dup3\n        /* \"#utility.yul\":18271:18288   */\n      add\n        /* \"#utility.yul\":18265:18289   */\n      mload\n        /* \"#utility.yul\":18316:18334   */\n      0xffffffffffffffff\n        /* \"#utility.yul\":18308:18314   */\n      dup2\n        /* \"#utility.yul\":18305:18335   */\n      gt\n        /* \"#utility.yul\":18302:18419   */\n      iszero\n      tag_520\n      jumpi\n        /* \"#utility.yul\":18338:18417   */\n      tag_521\n      tag_253\n      jump\t// in\n    tag_521:\n        /* \"#utility.yul\":18302:18419   */\n    tag_520:\n        /* \"#utility.yul\":18443:18516   */\n      tag_522\n        /* \"#utility.yul\":18508:18515   */\n      dup5\n        /* \"#utility.yul\":18499:18505   */\n      dup3\n        /* \"#utility.yul\":18488:18497   */\n      dup6\n        /* \"#utility.yul\":18484:18506   */\n      add\n        /* \"#utility.yul\":18443:18516   */\n      tag_294\n      jump\t// in\n    tag_522:\n        /* \"#utility.yul\":18433:18516   */\n      swap2\n      pop\n        /* \"#utility.yul\":18236:18526   */\n      pop\n        /* \"#utility.yul\":18011:18533   */\n      swap3\n      swap2\n      pop\n      pop\n      jump\t// out\n        /* \"#utility.yul\":18539:18760   */\n    tag_295:\n        /* \"#utility.yul\":18679:18713   */\n      0x5661756c743a204173736574206e6f7420666f756e6420696e20726567697374\n        /* \"#utility.yul\":18675:18676   */\n      0x00\n        /* \"#utility.yul\":18667:18673   */\n      dup3\n        /* \"#utility.yul\":18663:18677   */\n      add\n        /* \"#utility.yul\":18656:18714   */\n      mstore\n        /* \"#utility.yul\":18748:18752   */\n      0x7279000000000000000000000000000000000000000000000000000000000000\n        /* \"#utility.yul\":18743:18745   */\n      0x20\n        /* \"#utility.yul\":18735:18741   */\n      dup3\n        /* \"#utility.yul\":18731:18746   */\n      add\n        /* \"#utility.yul\":18724:18753   */\n      mstore\n        /* \"#utility.yul\":18539:18760   */\n      pop\n      jump\t// out\n        /* \"#utility.yul\":18766:19132   */\n    tag_296:\n        /* \"#utility.yul\":18908:18911   */\n      0x00\n        /* \"#utility.yul\":18929:18996   */\n      tag_525\n        /* \"#utility.yul\":18993:18995   */\n      0x22\n        /* \"#utility.yul\":18988:18991   */\n      dup4\n        /* \"#utility.yul\":18929:18996   */\n      tag_247\n      jump\t// in\n    tag_525:\n        /* \"#utility.yul\":18922:18996   */\n      swap2\n      pop\n        /* \"#utility.yul\":19005:19098   */\n      tag_526\n        /* \"#utility.yul\":19094:19097   */\n      dup3\n        /* \"#utility.yul\":19005:19098   */\n      tag_295\n      jump\t// in\n    tag_526:\n        /* \"#utility.yul\":19123:19125   */\n      0x40\n        /* \"#utility.yul\":19118:19121   */\n      dup3\n        /* \"#utility.yul\":19114:19126   */\n      add\n        /* \"#utility.yul\":19107:19126   */\n      swap1\n      pop\n        /* \"#utility.yul\":18766:19132   */\n      swap2\n      swap1\n      pop\n      jump\t// out\n        /* \"#utility.yul\":19138:19557   */\n    tag_89:\n        /* \"#utility.yul\":19304:19308   */\n      0x00\n        /* \"#utility.yul\":19342:19344   */\n      0x20\n        /* \"#utility.yul\":19331:19340   */\n      dup3\n        /* \"#utility.yul\":19327:19345   */\n      add\n        /* \"#utility.yul\":19319:19345   */\n      swap1\n      pop\n        /* \"#utility.yul\":19391:19400   */\n      dup2\n        /* \"#utility.yul\":19385:19389   */\n      dup2\n        /* \"#utility.yul\":19381:19401   */\n      sub\n        /* \"#utility.yul\":19377:19378   */\n      0x00\n        /* \"#utility.yul\":19366:19375   */\n      dup4\n        /* \"#utility.yul\":19362:19379   */\n      add\n        /* \"#utility.yul\":19355:19402   */\n      mstore\n        /* \"#utility.yul\":19419:19550   */\n      tag_528\n        /* \"#utility.yul\":19545:19549   */\n      dup2\n        /* \"#utility.yul\":19419:19550   */\n      tag_296\n      jump\t// in\n    tag_528:\n        /* \"#utility.yul\":19411:19550   */\n      swap1\n      pop\n        /* \"#utility.yul\":19138:19557   */\n      swap2\n      swap1\n      pop\n      jump\t// out\n        /* \"#utility.yul\":19563:19667   */\n    tag_297:\n        /* \"#utility.yul\":19608:19615   */\n      0x00\n        /* \"#utility.yul\":19637:19661   */\n      tag_530\n        /* \"#utility.yul\":19655:19660   */\n      dup3\n        /* \"#utility.yul\":19637:19661   */\n      tag_262\n      jump\t// in\n    tag_530:\n        /* \"#utility.yul\":19626:19661   */\n      swap1\n      pop\n        /* \"#utility.yul\":19563:19667   */\n      swap2\n      swap1\n      pop\n      jump\t// out\n        /* \"#utility.yul\":19673:19811   */\n    tag_298:\n        /* \"#utility.yul\":19754:19786   */\n      tag_532\n        /* \"#utility.yul\":19780:19785   */\n      dup2\n        /* \"#utility.yul\":19754:19786   */\n      tag_297\n      jump\t// in\n    tag_532:\n        /* \"#utility.yul\":19747:19752   */\n      dup2\n        /* \"#utility.yul\":19744:19787   */\n      eq\n        /* \"#utility.yul\":19734:19805   */\n      tag_533\n      jumpi\n        /* \"#utility.yul\":19801:19802   */\n      0x00\n        /* \"#utility.yul\":19798:19799   */\n      0x00\n        /* \"#utility.yul\":19791:19803   */\n      revert\n        /* \"#utility.yul\":19734:19805   */\n    tag_533:\n        /* \"#utility.yul\":19673:19811   */\n      pop\n      jump\t// out\n        /* \"#utility.yul\":19817:19976   */\n    tag_299:\n        /* \"#utility.yul\":19882:19887   */\n      0x00\n        /* \"#utility.yul\":19913:19919   */\n      dup2\n        /* \"#utility.yul\":19907:19920   */\n      mload\n        /* \"#utility.yul\":19898:19920   */\n      swap1\n      pop\n        /* \"#utility.yul\":19929:19970   */\n      tag_535\n        /* \"#utility.yul\":19964:19969   */\n      dup2\n        /* \"#utility.yul\":19929:19970   */\n      tag_298\n      jump\t// in\n    tag_535:\n        /* \"#utility.yul\":19817:19976   */\n      swap3\n      swap2\n      pop\n      pop\n      jump\t// out\n        /* \"#utility.yul\":19982:20349   */\n    tag_91:\n        /* \"#utility.yul\":20060:20066   */\n      0x00\n        /* \"#utility.yul\":20109:20111   */\n      0x20\n        /* \"#utility.yul\":20097:20106   */\n      dup3\n        /* \"#utility.yul\":20088:20095   */\n      dup5\n        /* \"#utility.yul\":20084:20107   */\n      sub\n        /* \"#utility.yul\":20080:20112   */\n      slt\n        /* \"#utility.yul\":20077:20196   */\n      iszero\n      tag_537\n      jumpi\n        /* \"#utility.yul\":20115:20194   */\n      tag_538\n      tag_252\n      jump\t// in\n    tag_538:\n        /* \"#utility.yul\":20077:20196   */\n    tag_537:\n        /* \"#utility.yul\":20235:20236   */\n      0x00\n        /* \"#utility.yul\":20260:20332   */\n      tag_539\n        /* \"#utility.yul\":20324:20331   */\n      dup5\n        /* \"#utility.yul\":20315:20321   */\n      dup3\n        /* \"#utility.yul\":20304:20313   */\n      dup6\n        /* \"#utility.yul\":20300:20322   */\n      add\n        /* \"#utility.yul\":20260:20332   */\n      tag_299\n      jump\t// in\n    tag_539:\n        /* \"#utility.yul\":20250:20332   */\n      swap2\n      pop\n        /* \"#utility.yul\":20206:20342   */\n      pop\n        /* \"#utility.yul\":19982:20349   */\n      swap3\n      swap2\n      pop\n      pop\n      jump\t// out\n        /* \"#utility.yul\":20355:20531   */\n    tag_300:\n        /* \"#utility.yul\":20495:20523   */\n      0x5661756c743a20546f6b656e206e6f7420737570706f72746564000000000000\n        /* \"#utility.yul\":20491:20492   */\n      0x00\n        /* \"#utility.yul\":20483:20489   */\n      dup3\n        /* \"#utility.yul\":20479:20493   */\n      add\n        /* \"#utility.yul\":20472:20524   */\n      mstore\n        /* \"#utility.yul\":20355:20531   */\n      pop\n      jump\t// out\n        /* \"#utility.yul\":20537:20903   */\n    tag_301:\n        /* \"#utility.yul\":20679:20682   */\n      0x00\n        /* \"#utility.yul\":20700:20767   */\n      tag_542\n        /* \"#utility.yul\":20764:20766   */\n      0x1a\n        /* \"#utility.yul\":20759:20762   */\n      dup4\n        /* \"#utility.yul\":20700:20767   */\n      tag_247\n      jump\t// in\n    tag_542:\n        /* \"#utility.yul\":20693:20767   */\n      swap2\n      pop\n        /* \"#utility.yul\":20776:20869   */\n      tag_543\n        /* \"#utility.yul\":20865:20868   */\n      dup3\n        /* \"#utility.yul\":20776:20869   */\n      tag_300\n      jump\t// in\n    tag_543:\n        /* \"#utility.yul\":20894:20896   */\n      0x20\n        /* \"#utility.yul\":20889:20892   */\n      dup3\n        /* \"#utility.yul\":20885:20897   */\n      add\n        /* \"#utility.yul\":20878:20897   */\n      swap1\n      pop\n        /* \"#utility.yul\":20537:20903   */\n      swap2\n      swap1\n      pop\n      jump\t// out\n        /* \"#utility.yul\":20909:21328   */\n    tag_99:\n        /* \"#utility.yul\":21075:21079   */\n      0x00\n        /* \"#utility.yul\":21113:21115   */\n      0x20\n        /* \"#utility.yul\":21102:21111   */\n      dup3\n        /* \"#utility.yul\":21098:21116   */\n      add\n        /* \"#utility.yul\":21090:21116   */\n      swap1\n      pop\n        /* \"#utility.yul\":21162:21171   */\n      dup2\n        /* \"#utility.yul\":21156:21160   */\n      dup2\n        /* \"#utility.yul\":21152:21172   */\n      sub\n        /* \"#utility.yul\":21148:21149   */\n      0x00\n        /* \"#utility.yul\":21137:21146   */\n      dup4\n        /* \"#utility.yul\":21133:21150   */\n      add\n        /* \"#utility.yul\":21126:21173   */\n      mstore\n        /* \"#utility.yul\":21190:21321   */\n      tag_545\n        /* \"#utility.yul\":21316:21320   */\n      dup2\n        /* \"#utility.yul\":21190:21321   */\n      tag_301\n      jump\t// in\n    tag_545:\n        /* \"#utility.yul\":21182:21321   */\n      swap1\n      pop\n        /* \"#utility.yul\":20909:21328   */\n      swap2\n      swap1\n      pop\n      jump\t// out\n        /* \"#utility.yul\":21334:21514   */\n    tag_302:\n        /* \"#utility.yul\":21382:21459   */\n      0x4e487b7100000000000000000000000000000000000000000000000000000000\n        /* \"#utility.yul\":21379:21380   */\n      0x00\n        /* \"#utility.yul\":21372:21460   */\n      mstore\n        /* \"#utility.yul\":21479:21483   */\n      0x11\n        /* \"#utility.yul\":21476:21477   */\n      0x04\n        /* \"#utility.yul\":21469:21484   */\n      mstore\n        /* \"#utility.yul\":21503:21507   */\n      0x24\n        /* \"#utility.yul\":21500:21501   */\n      0x00\n        /* \"#utility.yul\":21493:21508   */\n      revert\n        /* \"#utility.yul\":21520:21711   */\n    tag_101:\n        /* \"#utility.yul\":21560:21563   */\n      0x00\n        /* \"#utility.yul\":21579:21599   */\n      tag_548\n        /* \"#utility.yul\":21597:21598   */\n      dup3\n        /* \"#utility.yul\":21579:21599   */\n      tag_272\n      jump\t// in\n    tag_548:\n        /* \"#utility.yul\":21574:21599   */\n      swap2\n      pop\n        /* \"#utility.yul\":21613:21633   */\n      tag_549\n        /* \"#utility.yul\":21631:21632   */\n      dup4\n        /* \"#utility.yul\":21613:21633   */\n      tag_272\n      jump\t// in\n    tag_549:\n        /* \"#utility.yul\":21608:21633   */\n      swap3\n      pop\n        /* \"#utility.yul\":21656:21657   */\n      dup3\n        /* \"#utility.yul\":21653:21654   */\n      dup3\n        /* \"#utility.yul\":21649:21658   */\n      add\n        /* \"#utility.yul\":21642:21658   */\n      swap1\n      pop\n        /* \"#utility.yul\":21677:21680   */\n      dup1\n        /* \"#utility.yul\":21674:21675   */\n      dup3\n        /* \"#utility.yul\":21671:21681   */\n      gt\n        /* \"#utility.yul\":21668:21704   */\n      iszero\n      tag_550\n      jumpi\n        /* \"#utility.yul\":21684:21702   */\n      tag_551\n      tag_302\n      jump\t// in\n    tag_551:\n        /* \"#utility.yul\":21668:21704   */\n    tag_550:\n        /* \"#utility.yul\":21520:21711   */\n      swap3\n      swap2\n      pop\n      pop\n      jump\t// out\n        /* \"#utility.yul\":21717:21897   */\n    tag_112:\n        /* \"#utility.yul\":21765:21842   */\n      0x4e487b7100000000000000000000000000000000000000000000000000000000\n        /* \"#utility.yul\":21762:21763   */\n      0x00\n        /* \"#utility.yul\":21755:21843   */\n      mstore\n        /* \"#utility.yul\":21862:21866   */\n      0x32\n        /* \"#utility.yul\":21859:21860   */\n      0x04\n        /* \"#utility.yul\":21852:21867   */\n      mstore\n        /* \"#utility.yul\":21886:21890   */\n      0x24\n        /* \"#utility.yul\":21883:21884   */\n      0x00\n        /* \"#utility.yul\":21876:21891   */\n      revert\n        /* \"#utility.yul\":21927:22244   */\n    tag_303:\n        /* \"#utility.yul\":22025:22028   */\n      0x00\n        /* \"#utility.yul\":22046:22117   */\n      tag_554\n        /* \"#utility.yul\":22110:22116   */\n      dup4\n        /* \"#utility.yul\":22105:22108   */\n      dup6\n        /* \"#utility.yul\":22046:22117   */\n      tag_247\n      jump\t// in\n    tag_554:\n        /* \"#utility.yul\":22039:22117   */\n      swap4\n      pop\n        /* \"#utility.yul\":22127:22183   */\n      tag_555\n        /* \"#utility.yul\":22176:22182   */\n      dup4\n        /* \"#utility.yul\":22171:22174   */\n      dup6\n        /* \"#utility.yul\":22164:22169   */\n      dup5\n        /* \"#utility.yul\":22127:22183   */\n      tag_259\n      jump\t// in\n    tag_555:\n        /* \"#utility.yul\":22208:22237   */\n      tag_556\n        /* \"#utility.yul\":22230:22236   */\n      dup4\n        /* \"#utility.yul\":22208:22237   */\n      tag_249\n      jump\t// in\n    tag_556:\n        /* \"#utility.yul\":22203:22206   */\n      dup5\n        /* \"#utility.yul\":22199:22238   */\n      add\n        /* \"#utility.yul\":22192:22238   */\n      swap1\n      pop\n        /* \"#utility.yul\":21927:22244   */\n      swap4\n      swap3\n      pop\n      pop\n      pop\n      jump\t// out\n        /* \"#utility.yul\":22250:22583   */\n    tag_117:\n        /* \"#utility.yul\":22373:22377   */\n      0x00\n        /* \"#utility.yul\":22411:22413   */\n      0x20\n        /* \"#utility.yul\":22400:22409   */\n      dup3\n        /* \"#utility.yul\":22396:22414   */\n      add\n        /* \"#utility.yul\":22388:22414   */\n      swap1\n      pop\n        /* \"#utility.yul\":22460:22469   */\n      dup2\n        /* \"#utility.yul\":22454:22458   */\n      dup2\n        /* \"#utility.yul\":22450:22470   */\n      sub\n        /* \"#utility.yul\":22446:22447   */\n      0x00\n        /* \"#utility.yul\":22435:22444   */\n      dup4\n        /* \"#utility.yul\":22431:22448   */\n      add\n        /* \"#utility.yul\":22424:22471   */\n      mstore\n        /* \"#utility.yul\":22488:22576   */\n      tag_558\n        /* \"#utility.yul\":22571:22575   */\n      dup2\n        /* \"#utility.yul\":22562:22568   */\n      dup5\n        /* \"#utility.yul\":22554:22560   */\n      dup7\n        /* \"#utility.yul\":22488:22576   */\n      tag_303\n      jump\t// in\n    tag_558:\n        /* \"#utility.yul\":22480:22576   */\n      swap1\n      pop\n        /* \"#utility.yul\":22250:22583   */\n      swap4\n      swap3\n      pop\n      pop\n      pop\n      jump\t// out\n        /* \"#utility.yul\":22613:23444   */\n    tag_304:\n        /* \"#utility.yul\":22698:22701   */\n      0x00\n        /* \"#utility.yul\":22735:22740   */\n      dup2\n        /* \"#utility.yul\":22729:22741   */\n      sload\n        /* \"#utility.yul\":22764:22800   */\n      tag_560\n        /* \"#utility.yul\":22790:22799   */\n      dup2\n        /* \"#utility.yul\":22764:22800   */\n      tag_73\n      jump\t// in\n    tag_560:\n        /* \"#utility.yul\":22816:22887   */\n      tag_561\n        /* \"#utility.yul\":22880:22886   */\n      dup2\n        /* \"#utility.yul\":22875:22878   */\n      dup7\n        /* \"#utility.yul\":22816:22887   */\n      tag_247\n      jump\t// in\n    tag_561:\n        /* \"#utility.yul\":22809:22887   */\n      swap5\n      pop\n        /* \"#utility.yul\":22918:22919   */\n      0x01\n        /* \"#utility.yul\":22907:22916   */\n      dup3\n        /* \"#utility.yul\":22903:22920   */\n      and\n        /* \"#utility.yul\":22934:22935   */\n      0x00\n        /* \"#utility.yul\":22929:23093   */\n      dup2\n      eq\n      tag_563\n      jumpi\n        /* \"#utility.yul\":23107:23108   */\n      0x01\n        /* \"#utility.yul\":23102:23438   */\n      dup2\n      eq\n      tag_564\n      jumpi\n        /* \"#utility.yul\":22896:23438   */\n      jump(tag_562)\n        /* \"#utility.yul\":22929:23093   */\n    tag_563:\n        /* \"#utility.yul\":23013:23017   */\n      0xff\n        /* \"#utility.yul\":23009:23018   */\n      not\n        /* \"#utility.yul\":22998:23007   */\n      dup4\n        /* \"#utility.yul\":22994:23019   */\n      and\n        /* \"#utility.yul\":22989:22992   */\n      dup7\n        /* \"#utility.yul\":22982:23020   */\n      mstore\n        /* \"#utility.yul\":23073:23079   */\n      dup2\n        /* \"#utility.yul\":23066:23080   */\n      iszero\n        /* \"#utility.yul\":23059:23081   */\n      iszero\n        /* \"#utility.yul\":23053:23057   */\n      0x20\n        /* \"#utility.yul\":23049:23082   */\n      mul\n        /* \"#utility.yul\":23044:23047   */\n      dup7\n        /* \"#utility.yul\":23040:23083   */\n      add\n        /* \"#utility.yul\":23033:23083   */\n      swap4\n      pop\n        /* \"#utility.yul\":22929:23093   */\n      jump(tag_562)\n        /* \"#utility.yul\":23102:23438   */\n    tag_564:\n        /* \"#utility.yul\":23169:23207   */\n      tag_565\n        /* \"#utility.yul\":23201:23206   */\n      dup6\n        /* \"#utility.yul\":23169:23207   */\n      tag_288\n      jump\t// in\n    tag_565:\n        /* \"#utility.yul\":23229:23230   */\n      0x00\n        /* \"#utility.yul\":23243:23397   */\n    tag_566:\n        /* \"#utility.yul\":23257:23263   */\n      dup4\n        /* \"#utility.yul\":23254:23255   */\n      dup2\n        /* \"#utility.yul\":23251:23264   */\n      lt\n        /* \"#utility.yul\":23243:23397   */\n      iszero\n      tag_568\n      jumpi\n        /* \"#utility.yul\":23331:23338   */\n      dup2\n        /* \"#utility.yul\":23325:23339   */\n      sload\n        /* \"#utility.yul\":23321:23322   */\n      dup2\n        /* \"#utility.yul\":23316:23319   */\n      dup10\n        /* \"#utility.yul\":23312:23323   */\n      add\n        /* \"#utility.yul\":23305:23340   */\n      mstore\n        /* \"#utility.yul\":23381:23382   */\n      0x01\n        /* \"#utility.yul\":23372:23379   */\n      dup3\n        /* \"#utility.yul\":23368:23383   */\n      add\n        /* \"#utility.yul\":23357:23383   */\n      swap2\n      pop\n        /* \"#utility.yul\":23279:23283   */\n      0x20\n        /* \"#utility.yul\":23276:23277   */\n      dup2\n        /* \"#utility.yul\":23272:23284   */\n      add\n        /* \"#utility.yul\":23267:23284   */\n      swap1\n      pop\n        /* \"#utility.yul\":23243:23397   */\n      jump(tag_566)\n    tag_568:\n        /* \"#utility.yul\":23426:23427   */\n      dup1\n        /* \"#utility.yul\":23421:23424   */\n      dup9\n        /* \"#utility.yul\":23417:23428   */\n      add\n        /* \"#utility.yul\":23410:23428   */\n      swap6\n      pop\n        /* \"#utility.yul\":23109:23438   */\n      pop\n      pop\n        /* \"#utility.yul\":22896:23438   */\n    tag_562:\n      pop\n        /* \"#utility.yul\":22702:23444   */\n      pop\n      pop\n        /* \"#utility.yul\":22613:23444   */\n      swap3\n      swap2\n      pop\n      pop\n      jump\t// out\n        /* \"#utility.yul\":23450:23757   */\n    tag_121:\n        /* \"#utility.yul\":23560:23564   */\n      0x00\n        /* \"#utility.yul\":23598:23600   */\n      0x20\n        /* \"#utility.yul\":23587:23596   */\n      dup3\n        /* \"#utility.yul\":23583:23601   */\n      add\n        /* \"#utility.yul\":23575:23601   */\n      swap1\n      pop\n        /* \"#utility.yul\":23647:23656   */\n      dup2\n        /* \"#utility.yul\":23641:23645   */\n      dup2\n        /* \"#utility.yul\":23637:23657   */\n      sub\n        /* \"#utility.yul\":23633:23634   */\n      0x00\n        /* \"#utility.yul\":23622:23631   */\n      dup4\n        /* \"#utility.yul\":23618:23635   */\n      add\n        /* \"#utility.yul\":23611:23658   */\n      mstore\n        /* \"#utility.yul\":23675:23750   */\n      tag_570\n        /* \"#utility.yul\":23745:23749   */\n      dup2\n        /* \"#utility.yul\":23736:23742   */\n      dup5\n        /* \"#utility.yul\":23675:23750   */\n      tag_304\n      jump\t// in\n    tag_570:\n        /* \"#utility.yul\":23667:23750   */\n      swap1\n      pop\n        /* \"#utility.yul\":23450:23757   */\n      swap3\n      swap2\n      pop\n      pop\n      jump\t// out\n        /* \"#utility.yul\":23763:23938   */\n    tag_305:\n        /* \"#utility.yul\":23903:23930   */\n      0x4772616e74205769746864726177205065726d697373696f6e00000000000000\n        /* \"#utility.yul\":23899:23900   */\n      0x00\n        /* \"#utility.yul\":23891:23897   */\n      dup3\n        /* \"#utility.yul\":23887:23901   */\n      add\n        /* \"#utility.yul\":23880:23931   */\n      mstore\n        /* \"#utility.yul\":23763:23938   */\n      pop\n      jump\t// out\n        /* \"#utility.yul\":23944:24310   */\n    tag_306:\n        /* \"#utility.yul\":24086:24089   */\n      0x00\n        /* \"#utility.yul\":24107:24174   */\n      tag_573\n        /* \"#utility.yul\":24171:24173   */\n      0x19\n        /* \"#utility.yul\":24166:24169   */\n      dup4\n        /* \"#utility.yul\":24107:24174   */\n      tag_247\n      jump\t// in\n    tag_573:\n        /* \"#utility.yul\":24100:24174   */\n      swap2\n      pop\n        /* \"#utility.yul\":24183:24276   */\n      tag_574\n        /* \"#utility.yul\":24272:24275   */\n      dup3\n        /* \"#utility.yul\":24183:24276   */\n      tag_305\n      jump\t// in\n    tag_574:\n        /* \"#utility.yul\":24301:24303   */\n      0x20\n        /* \"#utility.yul\":24296:24299   */\n      dup3\n        /* \"#utility.yul\":24292:24304   */\n      add\n        /* \"#utility.yul\":24285:24304   */\n      swap1\n      pop\n        /* \"#utility.yul\":23944:24310   */\n      swap2\n      swap1\n      pop\n      jump\t// out\n        /* \"#utility.yul\":24316:24451   */\n    tag_307:\n        /* \"#utility.yul\":24404:24410   */\n      0x00\n        /* \"#utility.yul\":24438:24443   */\n      dup2\n        /* \"#utility.yul\":24432:24444   */\n      mload\n        /* \"#utility.yul\":24422:24444   */\n      swap1\n      pop\n        /* \"#utility.yul\":24316:24451   */\n      swap2\n      swap1\n      pop\n      jump\t// out\n        /* \"#utility.yul\":24457:24662   */\n    tag_308:\n        /* \"#utility.yul\":24577:24588   */\n      0x00\n        /* \"#utility.yul\":24611:24617   */\n      dup3\n        /* \"#utility.yul\":24606:24609   */\n      dup3\n        /* \"#utility.yul\":24599:24618   */\n      mstore\n        /* \"#utility.yul\":24651:24655   */\n      0x20\n        /* \"#utility.yul\":24646:24649   */\n      dup3\n        /* \"#utility.yul\":24642:24656   */\n      add\n        /* \"#utility.yul\":24627:24656   */\n      swap1\n      pop\n        /* \"#utility.yul\":24457:24662   */\n      swap3\n      swap2\n      pop\n      pop\n      jump\t// out\n        /* \"#utility.yul\":24668:24821   */\n    tag_309:\n        /* \"#utility.yul\":24756:24760   */\n      0x00\n        /* \"#utility.yul\":24779:24782   */\n      dup2\n        /* \"#utility.yul\":24771:24782   */\n      swap1\n      pop\n        /* \"#utility.yul\":24809:24813   */\n      0x20\n        /* \"#utility.yul\":24804:24807   */\n      dup3\n        /* \"#utility.yul\":24800:24814   */\n      add\n        /* \"#utility.yul\":24792:24814   */\n      swap1\n      pop\n        /* \"#utility.yul\":24668:24821   */\n      swap2\n      swap1\n      pop\n      jump\t// out\n        /* \"#utility.yul\":24827:24986   */\n    tag_310:\n        /* \"#utility.yul\":24901:24912   */\n      0x00\n        /* \"#utility.yul\":24935:24941   */\n      dup3\n        /* \"#utility.yul\":24930:24933   */\n      dup3\n        /* \"#utility.yul\":24923:24942   */\n      mstore\n        /* \"#utility.yul\":24975:24979   */\n      0x20\n        /* \"#utility.yul\":24970:24973   */\n      dup3\n        /* \"#utility.yul\":24966:24980   */\n      add\n        /* \"#utility.yul\":24951:24980   */\n      swap1\n      pop\n        /* \"#utility.yul\":24827:24986   */\n      swap3\n      swap2\n      pop\n      pop\n      jump\t// out\n        /* \"#utility.yul\":24992:25349   */\n    tag_311:\n        /* \"#utility.yul\":25070:25073   */\n      0x00\n        /* \"#utility.yul\":25098:25137   */\n      tag_580\n        /* \"#utility.yul\":25131:25136   */\n      dup3\n        /* \"#utility.yul\":25098:25137   */\n      tag_246\n      jump\t// in\n    tag_580:\n        /* \"#utility.yul\":25153:25214   */\n      tag_581\n        /* \"#utility.yul\":25207:25213   */\n      dup2\n        /* \"#utility.yul\":25202:25205   */\n      dup6\n        /* \"#utility.yul\":25153:25214   */\n      tag_310\n      jump\t// in\n    tag_581:\n        /* \"#utility.yul\":25146:25214   */\n      swap4\n      pop\n        /* \"#utility.yul\":25223:25288   */\n      tag_582\n        /* \"#utility.yul\":25281:25287   */\n      dup2\n        /* \"#utility.yul\":25276:25279   */\n      dup6\n        /* \"#utility.yul\":25269:25273   */\n      0x20\n        /* \"#utility.yul\":25262:25267   */\n      dup7\n        /* \"#utility.yul\":25258:25274   */\n      add\n        /* \"#utility.yul\":25223:25288   */\n      tag_248\n      jump\t// in\n    tag_582:\n        /* \"#utility.yul\":25313:25342   */\n      tag_583\n        /* \"#utility.yul\":25335:25341   */\n      dup2\n        /* \"#utility.yul\":25313:25342   */\n      tag_249\n      jump\t// in\n    tag_583:\n        /* \"#utility.yul\":25308:25311   */\n      dup5\n        /* \"#utility.yul\":25304:25343   */\n      add\n        /* \"#utility.yul\":25297:25343   */\n      swap2\n      pop\n        /* \"#utility.yul\":25074:25349   */\n      pop\n        /* \"#utility.yul\":24992:25349   */\n      swap3\n      swap2\n      pop\n      pop\n      jump\t// out\n        /* \"#utility.yul\":25355:25453   */\n    tag_312:\n        /* \"#utility.yul\":25406:25412   */\n      0x00\n        /* \"#utility.yul\":25440:25445   */\n      dup2\n        /* \"#utility.yul\":25434:25446   */\n      mload\n        /* \"#utility.yul\":25424:25446   */\n      swap1\n      pop\n        /* \"#utility.yul\":25355:25453   */\n      swap2\n      swap1\n      pop\n      jump\t// out\n        /* \"#utility.yul\":25459:25617   */\n    tag_313:\n        /* \"#utility.yul\":25532:25543   */\n      0x00\n        /* \"#utility.yul\":25566:25572   */\n      dup3\n        /* \"#utility.yul\":25561:25564   */\n      dup3\n        /* \"#utility.yul\":25554:25573   */\n      mstore\n        /* \"#utility.yul\":25606:25610   */\n      0x20\n        /* \"#utility.yul\":25601:25604   */\n      dup3\n        /* \"#utility.yul\":25597:25611   */\n      add\n        /* \"#utility.yul\":25582:25611   */\n      swap1\n      pop\n        /* \"#utility.yul\":25459:25617   */\n      swap3\n      swap2\n      pop\n      pop\n      jump\t// out\n        /* \"#utility.yul\":25623:25976   */\n    tag_314:\n        /* \"#utility.yul\":25699:25702   */\n      0x00\n        /* \"#utility.yul\":25727:25765   */\n      tag_587\n        /* \"#utility.yul\":25759:25764   */\n      dup3\n        /* \"#utility.yul\":25727:25765   */\n      tag_312\n      jump\t// in\n    tag_587:\n        /* \"#utility.yul\":25781:25841   */\n      tag_588\n        /* \"#utility.yul\":25834:25840   */\n      dup2\n        /* \"#utility.yul\":25829:25832   */\n      dup6\n        /* \"#utility.yul\":25781:25841   */\n      tag_313\n      jump\t// in\n    tag_588:\n        /* \"#utility.yul\":25774:25841   */\n      swap4\n      pop\n        /* \"#utility.yul\":25850:25915   */\n      tag_589\n        /* \"#utility.yul\":25908:25914   */\n      dup2\n        /* \"#utility.yul\":25903:25906   */\n      dup6\n        /* \"#utility.yul\":25896:25900   */\n      0x20\n        /* \"#utility.yul\":25889:25894   */\n      dup7\n        /* \"#utility.yul\":25885:25901   */\n      add\n        /* \"#utility.yul\":25850:25915   */\n      tag_248\n      jump\t// in\n    tag_589:\n        /* \"#utility.yul\":25940:25969   */\n      tag_590\n        /* \"#utility.yul\":25962:25968   */\n      dup2\n        /* \"#utility.yul\":25940:25969   */\n      tag_249\n      jump\t// in\n    tag_590:\n        /* \"#utility.yul\":25935:25938   */\n      dup5\n        /* \"#utility.yul\":25931:25970   */\n      add\n        /* \"#utility.yul\":25924:25970   */\n      swap2\n      pop\n        /* \"#utility.yul\":25703:25976   */\n      pop\n        /* \"#utility.yul\":25623:25976   */\n      swap3\n      swap2\n      pop\n      pop\n      jump\t// out\n        /* \"#utility.yul\":26032:26939   */\n    tag_315:\n        /* \"#utility.yul\":26133:26136   */\n      0x00\n        /* \"#utility.yul\":26169:26173   */\n      0x60\n        /* \"#utility.yul\":26164:26167   */\n      dup4\n        /* \"#utility.yul\":26160:26174   */\n      add\n        /* \"#utility.yul\":26256:26260   */\n      0x00\n        /* \"#utility.yul\":26249:26254   */\n      dup4\n        /* \"#utility.yul\":26245:26261   */\n      add\n        /* \"#utility.yul\":26239:26262   */\n      mload\n        /* \"#utility.yul\":26309:26312   */\n      dup5\n        /* \"#utility.yul\":26303:26307   */\n      dup3\n        /* \"#utility.yul\":26299:26313   */\n      sub\n        /* \"#utility.yul\":26292:26296   */\n      0x00\n        /* \"#utility.yul\":26287:26290   */\n      dup7\n        /* \"#utility.yul\":26283:26297   */\n      add\n        /* \"#utility.yul\":26276:26314   */\n      mstore\n        /* \"#utility.yul\":26335:26408   */\n      tag_592\n        /* \"#utility.yul\":26403:26407   */\n      dup3\n        /* \"#utility.yul\":26389:26401   */\n      dup3\n        /* \"#utility.yul\":26335:26408   */\n      tag_311\n      jump\t// in\n    tag_592:\n        /* \"#utility.yul\":26327:26408   */\n      swap2\n      pop\n        /* \"#utility.yul\":26184:26419   */\n      pop\n        /* \"#utility.yul\":26505:26509   */\n      0x20\n        /* \"#utility.yul\":26498:26503   */\n      dup4\n        /* \"#utility.yul\":26494:26510   */\n      add\n        /* \"#utility.yul\":26488:26511   */\n      mload\n        /* \"#utility.yul\":26558:26561   */\n      dup5\n        /* \"#utility.yul\":26552:26556   */\n      dup3\n        /* \"#utility.yul\":26548:26562   */\n      sub\n        /* \"#utility.yul\":26541:26545   */\n      0x20\n        /* \"#utility.yul\":26536:26539   */\n      dup7\n        /* \"#utility.yul\":26532:26546   */\n      add\n        /* \"#utility.yul\":26525:26563   */\n      mstore\n        /* \"#utility.yul\":26584:26657   */\n      tag_593\n        /* \"#utility.yul\":26652:26656   */\n      dup3\n        /* \"#utility.yul\":26638:26650   */\n      dup3\n        /* \"#utility.yul\":26584:26657   */\n      tag_311\n      jump\t// in\n    tag_593:\n        /* \"#utility.yul\":26576:26657   */\n      swap2\n      pop\n        /* \"#utility.yul\":26429:26668   */\n      pop\n        /* \"#utility.yul\":26751:26755   */\n      0x40\n        /* \"#utility.yul\":26744:26749   */\n      dup4\n        /* \"#utility.yul\":26740:26756   */\n      add\n        /* \"#utility.yul\":26734:26757   */\n      mload\n        /* \"#utility.yul\":26804:26807   */\n      dup5\n        /* \"#utility.yul\":26798:26802   */\n      dup3\n        /* \"#utility.yul\":26794:26808   */\n      sub\n        /* \"#utility.yul\":26787:26791   */\n      0x40\n        /* \"#utility.yul\":26782:26785   */\n      dup7\n        /* \"#utility.yul\":26778:26792   */\n      add\n        /* \"#utility.yul\":26771:26809   */\n      mstore\n        /* \"#utility.yul\":26830:26901   */\n      tag_594\n        /* \"#utility.yul\":26896:26900   */\n      dup3\n        /* \"#utility.yul\":26882:26894   */\n      dup3\n        /* \"#utility.yul\":26830:26901   */\n      tag_314\n      jump\t// in\n    tag_594:\n        /* \"#utility.yul\":26822:26901   */\n      swap2\n      pop\n        /* \"#utility.yul\":26678:26912   */\n      pop\n        /* \"#utility.yul\":26929:26933   */\n      dup1\n        /* \"#utility.yul\":26922:26933   */\n      swap2\n      pop\n        /* \"#utility.yul\":26138:26939   */\n      pop\n        /* \"#utility.yul\":26032:26939   */\n      swap3\n      swap2\n      pop\n      pop\n      jump\t// out\n        /* \"#utility.yul\":26945:27185   */\n    tag_316:\n        /* \"#utility.yul\":27056:27066   */\n      0x00\n        /* \"#utility.yul\":27091:27179   */\n      tag_596\n        /* \"#utility.yul\":27175:27178   */\n      dup4\n        /* \"#utility.yul\":27167:27173   */\n      dup4\n        /* \"#utility.yul\":27091:27179   */\n      tag_315\n      jump\t// in\n    tag_596:\n        /* \"#utility.yul\":27077:27179   */\n      swap1\n      pop\n        /* \"#utility.yul\":26945:27185   */\n      swap3\n      swap2\n      pop\n      pop\n      jump\t// out\n        /* \"#utility.yul\":27191:27325   */\n    tag_317:\n        /* \"#utility.yul\":27282:27286   */\n      0x00\n        /* \"#utility.yul\":27314:27318   */\n      0x20\n        /* \"#utility.yul\":27309:27312   */\n      dup3\n        /* \"#utility.yul\":27305:27319   */\n      add\n        /* \"#utility.yul\":27297:27319   */\n      swap1\n      pop\n        /* \"#utility.yul\":27191:27325   */\n      swap2\n      swap1\n      pop\n      jump\t// out\n        /* \"#utility.yul\":27385:28464   */\n    tag_318:\n        /* \"#utility.yul\":27546:27549   */\n      0x00\n        /* \"#utility.yul\":27575:27650   */\n      tag_599\n        /* \"#utility.yul\":27644:27649   */\n      dup3\n        /* \"#utility.yul\":27575:27650   */\n      tag_307\n      jump\t// in\n    tag_599:\n        /* \"#utility.yul\":27666:27773   */\n      tag_600\n        /* \"#utility.yul\":27766:27772   */\n      dup2\n        /* \"#utility.yul\":27761:27764   */\n      dup6\n        /* \"#utility.yul\":27666:27773   */\n      tag_308\n      jump\t// in\n    tag_600:\n        /* \"#utility.yul\":27659:27773   */\n      swap4\n      pop\n        /* \"#utility.yul\":27799:27802   */\n      dup4\n        /* \"#utility.yul\":27844:27848   */\n      0x20\n        /* \"#utility.yul\":27836:27842   */\n      dup3\n        /* \"#utility.yul\":27832:27849   */\n      mul\n        /* \"#utility.yul\":27827:27830   */\n      dup6\n        /* \"#utility.yul\":27823:27850   */\n      add\n        /* \"#utility.yul\":27874:27951   */\n      tag_601\n        /* \"#utility.yul\":27945:27950   */\n      dup6\n        /* \"#utility.yul\":27874:27951   */\n      tag_309\n      jump\t// in\n    tag_601:\n        /* \"#utility.yul\":27974:27981   */\n      dup1\n        /* \"#utility.yul\":28005:28006   */\n      0x00\n        /* \"#utility.yul\":27990:28419   */\n    tag_602:\n        /* \"#utility.yul\":28015:28021   */\n      dup6\n        /* \"#utility.yul\":28012:28013   */\n      dup2\n        /* \"#utility.yul\":28009:28022   */\n      lt\n        /* \"#utility.yul\":27990:28419   */\n      iszero\n      tag_604\n      jumpi\n        /* \"#utility.yul\":28086:28095   */\n      dup5\n        /* \"#utility.yul\":28080:28084   */\n      dup5\n        /* \"#utility.yul\":28076:28096   */\n      sub\n        /* \"#utility.yul\":28071:28074   */\n      dup10\n        /* \"#utility.yul\":28064:28097   */\n      mstore\n        /* \"#utility.yul\":28137:28143   */\n      dup2\n        /* \"#utility.yul\":28131:28144   */\n      mload\n        /* \"#utility.yul\":28165:28271   */\n      tag_605\n        /* \"#utility.yul\":28266:28270   */\n      dup6\n        /* \"#utility.yul\":28251:28264   */\n      dup3\n        /* \"#utility.yul\":28165:28271   */\n      tag_316\n      jump\t// in\n    tag_605:\n        /* \"#utility.yul\":28157:28271   */\n      swap5\n      pop\n        /* \"#utility.yul\":28294:28375   */\n      tag_606\n        /* \"#utility.yul\":28368:28374   */\n      dup4\n        /* \"#utility.yul\":28294:28375   */\n      tag_317\n      jump\t// in\n    tag_606:\n        /* \"#utility.yul\":28284:28375   */\n      swap3\n      pop\n        /* \"#utility.yul\":28404:28408   */\n      0x20\n        /* \"#utility.yul\":28399:28402   */\n      dup11\n        /* \"#utility.yul\":28395:28409   */\n      add\n        /* \"#utility.yul\":28388:28409   */\n      swap10\n      pop\n        /* \"#utility.yul\":28050:28419   */\n      pop\n        /* \"#utility.yul\":28037:28038   */\n      0x01\n        /* \"#utility.yul\":28034:28035   */\n      dup2\n        /* \"#utility.yul\":28030:28039   */\n      add\n        /* \"#utility.yul\":28025:28039   */\n      swap1\n      pop\n        /* \"#utility.yul\":27990:28419   */\n      jump(tag_602)\n    tag_604:\n        /* \"#utility.yul\":27994:28008   */\n      pop\n        /* \"#utility.yul\":28435:28439   */\n      dup3\n        /* \"#utility.yul\":28428:28439   */\n      swap8\n      pop\n        /* \"#utility.yul\":28455:28458   */\n      dup8\n        /* \"#utility.yul\":28448:28458   */\n      swap6\n      pop\n        /* \"#utility.yul\":27551:28464   */\n      pop\n      pop\n      pop\n      pop\n      pop\n        /* \"#utility.yul\":27385:28464   */\n      swap3\n      swap2\n      pop\n      pop\n      jump\t// out\n        /* \"#utility.yul\":28470:29234   */\n    tag_131:\n        /* \"#utility.yul\":28756:28760   */\n      0x00\n        /* \"#utility.yul\":28794:28796   */\n      0x40\n        /* \"#utility.yul\":28783:28792   */\n      dup3\n        /* \"#utility.yul\":28779:28797   */\n      add\n        /* \"#utility.yul\":28771:28797   */\n      swap1\n      pop\n        /* \"#utility.yul\":28843:28852   */\n      dup2\n        /* \"#utility.yul\":28837:28841   */\n      dup2\n        /* \"#utility.yul\":28833:28853   */\n      sub\n        /* \"#utility.yul\":28829:28830   */\n      0x00\n        /* \"#utility.yul\":28818:28827   */\n      dup4\n        /* \"#utility.yul\":28814:28831   */\n      add\n        /* \"#utility.yul\":28807:28854   */\n      mstore\n        /* \"#utility.yul\":28871:29002   */\n      tag_608\n        /* \"#utility.yul\":28997:29001   */\n      dup2\n        /* \"#utility.yul\":28871:29002   */\n      tag_306\n      jump\t// in\n    tag_608:\n        /* \"#utility.yul\":28863:29002   */\n      swap1\n      pop\n        /* \"#utility.yul\":29049:29058   */\n      dup2\n        /* \"#utility.yul\":29043:29047   */\n      dup2\n        /* \"#utility.yul\":29039:29059   */\n      sub\n        /* \"#utility.yul\":29034:29036   */\n      0x20\n        /* \"#utility.yul\":29023:29032   */\n      dup4\n        /* \"#utility.yul\":29019:29037   */\n      add\n        /* \"#utility.yul\":29012:29060   */\n      mstore\n        /* \"#utility.yul\":29077:29227   */\n      tag_609\n        /* \"#utility.yul\":29222:29226   */\n      dup2\n        /* \"#utility.yul\":29213:29219   */\n      dup5\n        /* \"#utility.yul\":29077:29227   */\n      tag_318\n      jump\t// in\n    tag_609:\n        /* \"#utility.yul\":29069:29227   */\n      swap1\n      pop\n        /* \"#utility.yul\":28470:29234   */\n      swap3\n      swap2\n      pop\n      pop\n      jump\t// out\n        /* \"#utility.yul\":29240:29417   */\n    tag_319:\n        /* \"#utility.yul\":29380:29409   */\n      0x5661756c743a20496e73756666696369656e742062616c616e63650000000000\n        /* \"#utility.yul\":29376:29377   */\n      0x00\n        /* \"#utility.yul\":29368:29374   */\n      dup3\n        /* \"#utility.yul\":29364:29378   */\n      add\n        /* \"#utility.yul\":29357:29410   */\n      mstore\n        /* \"#utility.yul\":29240:29417   */\n      pop\n      jump\t// out\n        /* \"#utility.yul\":29423:29789   */\n    tag_320:\n        /* \"#utility.yul\":29565:29568   */\n      0x00\n        /* \"#utility.yul\":29586:29653   */\n      tag_612\n        /* \"#utility.yul\":29650:29652   */\n      0x1b\n        /* \"#utility.yul\":29645:29648   */\n      dup4\n        /* \"#utility.yul\":29586:29653   */\n      tag_247\n      jump\t// in\n    tag_612:\n        /* \"#utility.yul\":29579:29653   */\n      swap2\n      pop\n        /* \"#utility.yul\":29662:29755   */\n      tag_613\n        /* \"#utility.yul\":29751:29754   */\n      dup3\n        /* \"#utility.yul\":29662:29755   */\n      tag_319\n      jump\t// in\n    tag_613:\n        /* \"#utility.yul\":29780:29782   */\n      0x20\n        /* \"#utility.yul\":29775:29778   */\n      dup3\n        /* \"#utility.yul\":29771:29783   */\n      add\n        /* \"#utility.yul\":29764:29783   */\n      swap1\n      pop\n        /* \"#utility.yul\":29423:29789   */\n      swap2\n      swap1\n      pop\n      jump\t// out\n        /* \"#utility.yul\":29795:30214   */\n    tag_146:\n        /* \"#utility.yul\":29961:29965   */\n      0x00\n        /* \"#utility.yul\":29999:30001   */\n      0x20\n        /* \"#utility.yul\":29988:29997   */\n      dup3\n        /* \"#utility.yul\":29984:30002   */\n      add\n        /* \"#utility.yul\":29976:30002   */\n      swap1\n      pop\n        /* \"#utility.yul\":30048:30057   */\n      dup2\n        /* \"#utility.yul\":30042:30046   */\n      dup2\n        /* \"#utility.yul\":30038:30058   */\n      sub\n        /* \"#utility.yul\":30034:30035   */\n      0x00\n        /* \"#utility.yul\":30023:30032   */\n      dup4\n        /* \"#utility.yul\":30019:30036   */\n      add\n        /* \"#utility.yul\":30012:30059   */\n      mstore\n        /* \"#utility.yul\":30076:30207   */\n      tag_615\n        /* \"#utility.yul\":30202:30206   */\n      dup2\n        /* \"#utility.yul\":30076:30207   */\n      tag_320\n      jump\t// in\n    tag_615:\n        /* \"#utility.yul\":30068:30207   */\n      swap1\n      pop\n        /* \"#utility.yul\":29795:30214   */\n      swap2\n      swap1\n      pop\n      jump\t// out\n        /* \"#utility.yul\":30220:30414   */\n    tag_148:\n        /* \"#utility.yul\":30260:30264   */\n      0x00\n        /* \"#utility.yul\":30280:30300   */\n      tag_617\n        /* \"#utility.yul\":30298:30299   */\n      dup3\n        /* \"#utility.yul\":30280:30300   */\n      tag_272\n      jump\t// in\n    tag_617:\n        /* \"#utility.yul\":30275:30300   */\n      swap2\n      pop\n        /* \"#utility.yul\":30314:30334   */\n      tag_618\n        /* \"#utility.yul\":30332:30333   */\n      dup4\n        /* \"#utility.yul\":30314:30334   */\n      tag_272\n      jump\t// in\n    tag_618:\n        /* \"#utility.yul\":30309:30334   */\n      swap3\n      pop\n        /* \"#utility.yul\":30358:30359   */\n      dup3\n        /* \"#utility.yul\":30355:30356   */\n      dup3\n        /* \"#utility.yul\":30351:30360   */\n      sub\n        /* \"#utility.yul\":30343:30360   */\n      swap1\n      pop\n        /* \"#utility.yul\":30382:30383   */\n      dup2\n        /* \"#utility.yul\":30376:30380   */\n      dup2\n        /* \"#utility.yul\":30373:30384   */\n      gt\n        /* \"#utility.yul\":30370:30407   */\n      iszero\n      tag_619\n      jumpi\n        /* \"#utility.yul\":30387:30405   */\n      tag_620\n      tag_302\n      jump\t// in\n    tag_620:\n        /* \"#utility.yul\":30370:30407   */\n    tag_619:\n        /* \"#utility.yul\":30220:30414   */\n      swap3\n      swap2\n      pop\n      pop\n      jump\t// out\n        /* \"#utility.yul\":30420:30578   */\n    tag_321:\n        /* \"#utility.yul\":30560:30570   */\n      0x5769746864726177000000000000000000000000000000000000000000000000\n        /* \"#utility.yul\":30556:30557   */\n      0x00\n        /* \"#utility.yul\":30548:30554   */\n      dup3\n        /* \"#utility.yul\":30544:30558   */\n      add\n        /* \"#utility.yul\":30537:30571   */\n      mstore\n        /* \"#utility.yul\":30420:30578   */\n      pop\n      jump\t// out\n        /* \"#utility.yul\":30584:30949   */\n    tag_322:\n        /* \"#utility.yul\":30726:30729   */\n      0x00\n        /* \"#utility.yul\":30747:30813   */\n      tag_623\n        /* \"#utility.yul\":30811:30812   */\n      0x08\n        /* \"#utility.yul\":30806:30809   */\n      dup4\n        /* \"#utility.yul\":30747:30813   */\n      tag_247\n      jump\t// in\n    tag_623:\n        /* \"#utility.yul\":30740:30813   */\n      swap2\n      pop\n        /* \"#utility.yul\":30822:30915   */\n      tag_624\n        /* \"#utility.yul\":30911:30914   */\n      dup3\n        /* \"#utility.yul\":30822:30915   */\n      tag_321\n      jump\t// in\n    tag_624:\n        /* \"#utility.yul\":30940:30942   */\n      0x20\n        /* \"#utility.yul\":30935:30938   */\n      dup3\n        /* \"#utility.yul\":30931:30943   */\n      add\n        /* \"#utility.yul\":30924:30943   */\n      swap1\n      pop\n        /* \"#utility.yul\":30584:30949   */\n      swap2\n      swap1\n      pop\n      jump\t// out\n        /* \"#utility.yul\":30955:31719   */\n    tag_172:\n        /* \"#utility.yul\":31241:31245   */\n      0x00\n        /* \"#utility.yul\":31279:31281   */\n      0x40\n        /* \"#utility.yul\":31268:31277   */\n      dup3\n        /* \"#utility.yul\":31264:31282   */\n      add\n        /* \"#utility.yul\":31256:31282   */\n      swap1\n      pop\n        /* \"#utility.yul\":31328:31337   */\n      dup2\n        /* \"#utility.yul\":31322:31326   */\n      dup2\n        /* \"#utility.yul\":31318:31338   */\n      sub\n        /* \"#utility.yul\":31314:31315   */\n      0x00\n        /* \"#utility.yul\":31303:31312   */\n      dup4\n        /* \"#utility.yul\":31299:31316   */\n      add\n        /* \"#utility.yul\":31292:31339   */\n      mstore\n        /* \"#utility.yul\":31356:31487   */\n      tag_626\n        /* \"#utility.yul\":31482:31486   */\n      dup2\n        /* \"#utility.yul\":31356:31487   */\n      tag_322\n      jump\t// in\n    tag_626:\n        /* \"#utility.yul\":31348:31487   */\n      swap1\n      pop\n        /* \"#utility.yul\":31534:31543   */\n      dup2\n        /* \"#utility.yul\":31528:31532   */\n      dup2\n        /* \"#utility.yul\":31524:31544   */\n      sub\n        /* \"#utility.yul\":31519:31521   */\n      0x20\n        /* \"#utility.yul\":31508:31517   */\n      dup4\n        /* \"#utility.yul\":31504:31522   */\n      add\n        /* \"#utility.yul\":31497:31545   */\n      mstore\n        /* \"#utility.yul\":31562:31712   */\n      tag_627\n        /* \"#utility.yul\":31707:31711   */\n      dup2\n        /* \"#utility.yul\":31698:31704   */\n      dup5\n        /* \"#utility.yul\":31562:31712   */\n      tag_318\n      jump\t// in\n    tag_627:\n        /* \"#utility.yul\":31554:31712   */\n      swap1\n      pop\n        /* \"#utility.yul\":30955:31719   */\n      swap3\n      swap2\n      pop\n      pop\n      jump\t// out\n        /* \"#utility.yul\":31725:31901   */\n    tag_323:\n        /* \"#utility.yul\":31865:31893   */\n      0x5661756c743a204465706f736974206d757374206265203e2030000000000000\n        /* \"#utility.yul\":31861:31862   */\n      0x00\n        /* \"#utility.yul\":31853:31859   */\n      dup3\n        /* \"#utility.yul\":31849:31863   */\n      add\n        /* \"#utility.yul\":31842:31894   */\n      mstore\n        /* \"#utility.yul\":31725:31901   */\n      pop\n      jump\t// out\n        /* \"#utility.yul\":31907:32273   */\n    tag_324:\n        /* \"#utility.yul\":32049:32052   */\n      0x00\n        /* \"#utility.yul\":32070:32137   */\n      tag_630\n        /* \"#utility.yul\":32134:32136   */\n      0x1a\n        /* \"#utility.yul\":32129:32132   */\n      dup4\n        /* \"#utility.yul\":32070:32137   */\n      tag_247\n      jump\t// in\n    tag_630:\n        /* \"#utility.yul\":32063:32137   */\n      swap2\n      pop\n        /* \"#utility.yul\":32146:32239   */\n      tag_631\n        /* \"#utility.yul\":32235:32238   */\n      dup3\n        /* \"#utility.yul\":32146:32239   */\n      tag_323\n      jump\t// in\n    tag_631:\n        /* \"#utility.yul\":32264:32266   */\n      0x20\n        /* \"#utility.yul\":32259:32262   */\n      dup3\n        /* \"#utility.yul\":32255:32267   */\n      add\n        /* \"#utility.yul\":32248:32267   */\n      swap1\n      pop\n        /* \"#utility.yul\":31907:32273   */\n      swap2\n      swap1\n      pop\n      jump\t// out\n        /* \"#utility.yul\":32279:32698   */\n    tag_183:\n        /* \"#utility.yul\":32445:32449   */\n      0x00\n        /* \"#utility.yul\":32483:32485   */\n      0x20\n        /* \"#utility.yul\":32472:32481   */\n      dup3\n        /* \"#utility.yul\":32468:32486   */\n      add\n        /* \"#utility.yul\":32460:32486   */\n      swap1\n      pop\n        /* \"#utility.yul\":32532:32541   */\n      dup2\n        /* \"#utility.yul\":32526:32530   */\n      dup2\n        /* \"#utility.yul\":32522:32542   */\n      sub\n        /* \"#utility.yul\":32518:32519   */\n      0x00\n        /* \"#utility.yul\":32507:32516   */\n      dup4\n        /* \"#utility.yul\":32503:32520   */\n      add\n        /* \"#utility.yul\":32496:32543   */\n      mstore\n        /* \"#utility.yul\":32560:32691   */\n      tag_633\n        /* \"#utility.yul\":32686:32690   */\n      dup2\n        /* \"#utility.yul\":32560:32691   */\n      tag_324\n      jump\t// in\n    tag_633:\n        /* \"#utility.yul\":32552:32691   */\n      swap1\n      pop\n        /* \"#utility.yul\":32279:32698   */\n      swap2\n      swap1\n      pop\n      jump\t// out\n        /* \"#utility.yul\":32704:32861   */\n    tag_325:\n        /* \"#utility.yul\":32844:32853   */\n      0x4465706f73697400000000000000000000000000000000000000000000000000\n        /* \"#utility.yul\":32840:32841   */\n      0x00\n        /* \"#utility.yul\":32832:32838   */\n      dup3\n        /* \"#utility.yul\":32828:32842   */\n      add\n        /* \"#utility.yul\":32821:32854   */\n      mstore\n        /* \"#utility.yul\":32704:32861   */\n      pop\n      jump\t// out\n        /* \"#utility.yul\":32867:33232   */\n    tag_326:\n        /* \"#utility.yul\":33009:33012   */\n      0x00\n        /* \"#utility.yul\":33030:33096   */\n      tag_636\n        /* \"#utility.yul\":33094:33095   */\n      0x07\n        /* \"#utility.yul\":33089:33092   */\n      dup4\n        /* \"#utility.yul\":33030:33096   */\n      tag_247\n      jump\t// in\n    tag_636:\n        /* \"#utility.yul\":33023:33096   */\n      swap2\n      pop\n        /* \"#utility.yul\":33105:33198   */\n      tag_637\n        /* \"#utility.yul\":33194:33197   */\n      dup3\n        /* \"#utility.yul\":33105:33198   */\n      tag_325\n      jump\t// in\n    tag_637:\n        /* \"#utility.yul\":33223:33225   */\n      0x20\n        /* \"#utility.yul\":33218:33221   */\n      dup3\n        /* \"#utility.yul\":33214:33226   */\n      add\n        /* \"#utility.yul\":33207:33226   */\n      swap1\n      pop\n        /* \"#utility.yul\":32867:33232   */\n      swap2\n      swap1\n      pop\n      jump\t// out\n        /* \"#utility.yul\":33238:34002   */\n    tag_208:\n        /* \"#utility.yul\":33524:33528   */\n      0x00\n        /* \"#utility.yul\":33562:33564   */\n      0x40\n        /* \"#utility.yul\":33551:33560   */\n      dup3\n        /* \"#utility.yul\":33547:33565   */\n      add\n        /* \"#utility.yul\":33539:33565   */\n      swap1\n      pop\n        /* \"#utility.yul\":33611:33620   */\n      dup2\n        /* \"#utility.yul\":33605:33609   */\n      dup2\n        /* \"#utility.yul\":33601:33621   */\n      sub\n        /* \"#utility.yul\":33597:33598   */\n      0x00\n        /* \"#utility.yul\":33586:33595   */\n      dup4\n        /* \"#utility.yul\":33582:33599   */\n      add\n        /* \"#utility.yul\":33575:33622   */\n      mstore\n        /* \"#utility.yul\":33639:33770   */\n      tag_639\n        /* \"#utility.yul\":33765:33769   */\n      dup2\n        /* \"#utility.yul\":33639:33770   */\n      tag_326\n      jump\t// in\n    tag_639:\n        /* \"#utility.yul\":33631:33770   */\n      swap1\n      pop\n        /* \"#utility.yul\":33817:33826   */\n      dup2\n        /* \"#utility.yul\":33811:33815   */\n      dup2\n        /* \"#utility.yul\":33807:33827   */\n      sub\n        /* \"#utility.yul\":33802:33804   */\n      0x20\n        /* \"#utility.yul\":33791:33800   */\n      dup4\n        /* \"#utility.yul\":33787:33805   */\n      add\n        /* \"#utility.yul\":33780:33828   */\n      mstore\n        /* \"#utility.yul\":33845:33995   */\n      tag_640\n        /* \"#utility.yul\":33990:33994   */\n      dup2\n        /* \"#utility.yul\":33981:33987   */\n      dup5\n        /* \"#utility.yul\":33845:33995   */\n      tag_318\n      jump\t// in\n    tag_640:\n        /* \"#utility.yul\":33837:33995   */\n      swap1\n      pop\n        /* \"#utility.yul\":33238:34002   */\n      swap3\n      swap2\n      pop\n      pop\n      jump\t// out\n\n    auxdata: 0xa264697066735822122038084d7a9c354339654d4dec7eaa008bc8c032384641d417ca01e2511a85be7b64736f6c634300081f0033\n}\n",
				"bytecode": {
					"linkReferences": {},
					"object": "60c060405234801561000f575f5ffd5b5060405161358a38038061358a8339818101604052810190610031919061039b565b815f73ffffffffffffffffffffffffffffffffffffffff168173ffffffffffffffffffffffffffffffffffffffff16036100a2575f6040517f1e4fbdf7000000000000000000000000000000000000000000000000000000008152600401610099919061042a565b60405180910390fd5b6100b18161013360201b60201c565b508373ffffffffffffffffffffffffffffffffffffffff1660a08173ffffffffffffffffffffffffffffffffffffffff16815250508273ffffffffffffffffffffffffffffffffffffffff1660808173ffffffffffffffffffffffffffffffffffffffff168152505080600190816101299190610653565b5050505050610722565b5f5f5f9054906101000a900473ffffffffffffffffffffffffffffffffffffffff169050815f5f6101000a81548173ffffffffffffffffffffffffffffffffffffffff021916908373ffffffffffffffffffffffffffffffffffffffff1602179055508173ffffffffffffffffffffffffffffffffffffffff168173ffffffffffffffffffffffffffffffffffffffff167f8be0079c531659141344cd1fd0a4f28419497f9722a3daafe3b4186f6b6457e060405160405180910390a35050565b5f604051905090565b5f5ffd5b5f5ffd5b5f73ffffffffffffffffffffffffffffffffffffffff82169050919050565b5f61022e82610205565b9050919050565b61023e81610224565b8114610248575f5ffd5b50565b5f8151905061025981610235565b92915050565b5f5ffd5b5f5ffd5b5f601f19601f8301169050919050565b7f4e487b71000000000000000000000000000000000000000000000000000000005f52604160045260245ffd5b6102ad82610267565b810181811067ffffffffffffffff821117156102cc576102cb610277565b5b80604052505050565b5f6102de6101f4565b90506102ea82826102a4565b919050565b5f67ffffffffffffffff82111561030957610308610277565b5b61031282610267565b9050602081019050919050565b8281835e5f83830152505050565b5f61033f61033a846102ef565b6102d5565b90508281526020810184848401111561035b5761035a610263565b5b61036684828561031f565b509392505050565b5f82601f8301126103825761038161025f565b5b815161039284826020860161032d565b91505092915050565b5f5f5f5f608085870312156103b3576103b26101fd565b5b5f6103c08782880161024b565b94505060206103d18782880161024b565b93505060406103e28782880161024b565b925050606085015167ffffffffffffffff81111561040357610402610201565b5b61040f8782880161036e565b91505092959194509250565b61042481610224565b82525050565b5f60208201905061043d5f83018461041b565b92915050565b5f81519050919050565b7f4e487b71000000000000000000000000000000000000000000000000000000005f52602260045260245ffd5b5f600282049050600182168061049157607f821691505b6020821081036104a4576104a361044d565b5b50919050565b5f819050815f5260205f209050919050565b5f6020601f8301049050919050565b5f82821b905092915050565b5f600883026105067fffffffffffffffffffffffffffffffffffffffffffffffffffffffffffffffff826104cb565b61051086836104cb565b95508019841693508086168417925050509392505050565b5f819050919050565b5f819050919050565b5f61055461054f61054a84610528565b610531565b610528565b9050919050565b5f819050919050565b61056d8361053a565b6105816105798261055b565b8484546104d7565b825550505050565b5f5f905090565b610598610589565b6105a3818484610564565b505050565b5b818110156105c6576105bb5f82610590565b6001810190506105a9565b5050565b601f82111561060b576105dc816104aa565b6105e5846104bc565b810160208510156105f4578190505b610608610600856104bc565b8301826105a8565b50505b505050565b5f82821c905092915050565b5f61062b5f1984600802610610565b1980831691505092915050565b5f610643838361061c565b9150826002028217905092915050565b61065c82610443565b67ffffffffffffffff81111561067557610674610277565b5b61067f825461047a565b61068a8282856105ca565b5f60209050601f8311600181146106bb575f84156106a9578287015190505b6106b38582610638565b86555061071a565b601f1984166106c9866104aa565b5f5b828110156106f0578489015182556001820191506020850194506020810190506106cb565b8683101561070d5784890151610709601f89168261061c565b8355505b6001600288020188555050505b505050505050565b60805160a051612e2b61075f5f395f8181610a98015281816111cf01528181611882015261190f01525f818161032401526119330152612e2b5ff3fe608060405234801561000f575f5ffd5b50600436106100cc575f3560e01c80637804e7071161008a578063b5f8558c11610064578063b5f8558c146101fa578063bf4d766e14610218578063f139721c14610236578063f2fde38b14610252576100cc565b80637804e707146101a45780638da5cb5b146101c05780638e27d719146101de576100cc565b8062dad7d4146100d057806305d09fb1146100ee578063240028e81461011e5780636afbf5d61461014e578063715018a61461016a57806376c13cbd14610174575b5f5ffd5b6100d861026e565b6040516100e59190611e2c565b60405180910390f35b61010860048036038101906101039190611f89565b6102fa565b604051610115919061200f565b60405180910390f35b61013860048036038101906101339190612052565b61041f565b6040516101459190612097565b60405180910390f35b61016860048036038101906101639190612140565b61043c565b005b610172610b25565b005b61018e600480360381019061018991906121c4565b610b38565b60405161019b9190612211565b60405180910390f35b6101be60048036038101906101b9919061222a565b610b58565b005b6101c861125b565b6040516101d5919061200f565b60405180910390f35b6101f860048036038101906101f3919061229b565b611282565b005b61020261190d565b60405161020f9190612353565b60405180910390f35b610220611931565b60405161022d919061238c565b60405180910390f35b610250600480360381019061024b91906123a5565b611955565b005b61026c60048036038101906102679190612052565b611a4d565b005b6001805461027b9061241d565b80601f01602080910402602001604051908101604052809291908181526020018280546102a79061241d565b80156102f25780601f106102c9576101008083540402835291602001916102f2565b820191905f5260205f20905b8154815290600101906020018083116102d557829003601f168201915b505050505081565b5f5f826001604051602001610310929190612563565b60405160208183030381529060405290505f7f000000000000000000000000000000000000000000000000000000000000000073ffffffffffffffffffffffffffffffffffffffff16630794a2d6836040518263ffffffff1660e01b815260040161037b91906125db565b5f60405180830381865afa158015610395573d5f5f3e3d5ffd5b505050506040513d5f823e3d601f19601f820116820180604052508101906103bd91906126ac565b90505f815111610402576040517f08c379a00000000000000000000000000000000000000000000000000000000081526004016103f990612763565b60405180910390fd5b8080602001905181019061041691906127bc565b92505050919050565b6002602052805f5260405f205f915054906101000a900460ff1681565b610444611ad1565b5f61049185858080601f0160208091040260200160405190810160405280939291908181526020018383808284375f81840152601f19601f820116905080830192505050505050506102fa565b905060025f8273ffffffffffffffffffffffffffffffffffffffff1673ffffffffffffffffffffffffffffffffffffffff1681526020019081526020015f205f9054906101000a900460ff1661051c576040517f08c379a000000000000000000000000000000000000000000000000000000000815260040161051390612831565b60405180910390fd5b8260035f8873ffffffffffffffffffffffffffffffffffffffff1673ffffffffffffffffffffffffffffffffffffffff1681526020019081526020015f205f8373ffffffffffffffffffffffffffffffffffffffff1673ffffffffffffffffffffffffffffffffffffffff1681526020019081526020015f205f8282546105a3919061287c565b925050819055505f600667ffffffffffffffff8111156105c6576105c5611e65565b5b6040519080825280602002602001820160405280156105ff57816020015b6105ec611d9b565b8152602001906001900390816105e45790505b50905060405180606001604052806040518060400160405280600481526020017f757365720000000000000000000000000000000000000000000000000000000081525081526020016040518060400160405280600781526020017f6164647265737300000000000000000000000000000000000000000000000000815250815260200133604051602001610694919061200f565b604051602081830303815290604052815250815f815181106106b9576106b86128af565b5b602002602001018190525060405180606001604052806040518060400160405280600681526020017f616d6f756e74000000000000000000000000000000000000000000000000000081525081526020016040518060400160405280600781526020017f75696e74323536000000000000000000000000000000000000000000000000008152508152602001856040516020016107569190612211565b6040516020818303038152906040528152508160018151811061077c5761077b6128af565b5b602002602001018190525060405180606001604052806040518060400160405280600581526020017f746f6b656e00000000000000000000000000000000000000000000000000000081525081526020016040518060400160405280600681526020017f737472696e6700000000000000000000000000000000000000000000000000008152508152602001878760405160200161081b929190612908565b60405160208183030381529060405281525081600281518110610841576108406128af565b5b602002602001018190525060405180606001604052806040518060400160405280600881526020017f70726f766964657200000000000000000000000000000000000000000000000081525081526020016040518060400160405280600681526020017f737472696e670000000000000000000000000000000000000000000000000000815250815260200160016040516020016108df91906129ab565b60405160208183030381529060405281525081600381518110610905576109046128af565b5b602002602001018190525060405180606001604052806040518060400160405280600981526020017f6e756c6c6966696572000000000000000000000000000000000000000000000081525081526020016040518060400160405280600781526020017f75696e74323536000000000000000000000000000000000000000000000000008152508152602001846040516020016109a29190612211565b604051602081830303815290604052815250816004815181106109c8576109c76128af565b5b602002602001018190525060405180606001604052806040518060400160405280600981526020017f74696d657374616d70000000000000000000000000000000000000000000000081525081526020016040518060400160405280600481526020017f7532353600000000000000000000000000000000000000000000000000000000815250815260200142604051602001610a659190612211565b60405160208183030381529060405281525081600581518110610a8b57610a8a6128af565b5b60200260200101819052507f000000000000000000000000000000000000000000000000000000000000000073ffffffffffffffffffffffffffffffffffffffff16637d64fa9b826040518263ffffffff1660e01b8152600401610aef9190612bc5565b5f604051808303815f87803b158015610b06575f5ffd5b505af1158015610b18573d5f5f3e3d5ffd5b5050505050505050505050565b610b2d611ad1565b610b365f611b58565b565b6003602052815f5260405f20602052805f5260405f205f91509150505481565b5f610ba585858080601f0160208091040260200160405190810160405280939291908181526020018383808284375f81840152601f19601f820116905080830192505050505050506102fa565b905060025f8273ffffffffffffffffffffffffffffffffffffffff1673ffffffffffffffffffffffffffffffffffffffff1681526020019081526020015f205f9054906101000a900460ff16610c30576040517f08c379a0000000000000000000000000000000000000000000000000000000008152600401610c2790612831565b60405180910390fd5b60035f3373ffffffffffffffffffffffffffffffffffffffff1673ffffffffffffffffffffffffffffffffffffffff1681526020019081526020015f205f8273ffffffffffffffffffffffffffffffffffffffff1673ffffffffffffffffffffffffffffffffffffffff1681526020019081526020015f2054831115610ceb576040517f08c379a0000000000000000000000000000000000000000000000000000000008152600401610ce290612c42565b60405180910390fd5b8260035f3373ffffffffffffffffffffffffffffffffffffffff1673ffffffffffffffffffffffffffffffffffffffff1681526020019081526020015f205f8373ffffffffffffffffffffffffffffffffffffffff1673ffffffffffffffffffffffffffffffffffffffff1681526020019081526020015f205f828254610d729190612c60565b92505081905550610da482848373ffffffffffffffffffffffffffffffffffffffff16611c199092919063ffffffff16565b5f600567ffffffffffffffff811115610dc057610dbf611e65565b5b604051908082528060200260200182016040528015610df957816020015b610de6611d9b565b815260200190600190039081610dde5790505b50905060405180606001604052806040518060400160405280600481526020017f757365720000000000000000000000000000000000000000000000000000000081525081526020016040518060400160405280600781526020017f6164647265737300000000000000000000000000000000000000000000000000815250815260200133604051602001610e8e919061200f565b604051602081830303815290604052815250815f81518110610eb357610eb26128af565b5b602002602001018190525060405180606001604052806040518060400160405280600681526020017f616d6f756e74000000000000000000000000000000000000000000000000000081525081526020016040518060400160405280600781526020017f75696e7432353600000000000000000000000000000000000000000000000000815250815260200185604051602001610f509190612211565b60405160208183030381529060405281525081600181518110610f7657610f756128af565b5b602002602001018190525060405180606001604052806040518060400160405280600581526020017f746f6b656e00000000000000000000000000000000000000000000000000000081525081526020016040518060400160405280600681526020017f737472696e67000000000000000000000000000000000000000000000000000081525081526020018787604051602001611015929190612908565b6040516020818303038152906040528152508160028151811061103b5761103a6128af565b5b602002602001018190525060405180606001604052806040518060400160405280600881526020017f70726f766964657200000000000000000000000000000000000000000000000081525081526020016040518060400160405280600681526020017f737472696e670000000000000000000000000000000000000000000000000000815250815260200160016040516020016110d991906129ab565b604051602081830303815290604052815250816003815181106110ff576110fe6128af565b5b602002602001018190525060405180606001604052806040518060400160405280600981526020017f74696d657374616d70000000000000000000000000000000000000000000000081525081526020016040518060400160405280600481526020017f753235360000000000000000000000000000000000000000000000000000000081525081526020014260405160200161119c9190612211565b604051602081830303815290604052815250816004815181106111c2576111c16128af565b5b60200260200101819052507f000000000000000000000000000000000000000000000000000000000000000073ffffffffffffffffffffffffffffffffffffffff16637d64fa9b826040518263ffffffff1660e01b81526004016112269190612cdd565b5f604051808303815f87803b15801561123d575f5ffd5b505af115801561124f573d5f5f3e3d5ffd5b50505050505050505050565b5f5f5f9054906101000a900473ffffffffffffffffffffffffffffffffffffffff16905090565b5f6112cf84848080601f0160208091040260200160405190810160405280939291908181526020018383808284375f81840152601f19601f820116905080830192505050505050506102fa565b905060025f8273ffffffffffffffffffffffffffffffffffffffff1673ffffffffffffffffffffffffffffffffffffffff1681526020019081526020015f205f9054906101000a900460ff1661135a576040517f08c379a000000000000000000000000000000000000000000000000000000000815260040161135190612831565b60405180910390fd5b5f821161139c576040517f08c379a000000000000000000000000000000000000000000000000000000000815260040161139390612d5a565b60405180910390fd5b6113c93330848473ffffffffffffffffffffffffffffffffffffffff16611c6c909392919063ffffffff16565b8160035f3373ffffffffffffffffffffffffffffffffffffffff1673ffffffffffffffffffffffffffffffffffffffff1681526020019081526020015f205f8373ffffffffffffffffffffffffffffffffffffffff1673ffffffffffffffffffffffffffffffffffffffff1681526020019081526020015f205f828254611450919061287c565b925050819055505f600567ffffffffffffffff81111561147357611472611e65565b5b6040519080825280602002602001820160405280156114ac57816020015b611499611d9b565b8152602001906001900390816114915790505b50905060405180606001604052806040518060400160405280600481526020017f757365720000000000000000000000000000000000000000000000000000000081525081526020016040518060400160405280600781526020017f6164647265737300000000000000000000000000000000000000000000000000815250815260200133604051602001611541919061200f565b604051602081830303815290604052815250815f81518110611566576115656128af565b5b602002602001018190525060405180606001604052806040518060400160405280600681526020017f616d6f756e74000000000000000000000000000000000000000000000000000081525081526020016040518060400160405280600781526020017f75696e74323536000000000000000000000000000000000000000000000000008152508152602001846040516020016116039190612211565b60405160208183030381529060405281525081600181518110611629576116286128af565b5b602002602001018190525060405180606001604052806040518060400160405280600581526020017f746f6b656e00000000000000000000000000000000000000000000000000000081525081526020016040518060400160405280600681526020017f737472696e670000000000000000000000000000000000000000000000000000815250815260200186866040516020016116c8929190612908565b604051602081830303815290604052815250816002815181106116ee576116ed6128af565b5b602002602001018190525060405180606001604052806040518060400160405280600881526020017f70726f766964657200000000000000000000000000000000000000000000000081525081526020016040518060400160405280600681526020017f737472696e6700000000000000000000000000000000000000000000000000008152508152602001600160405160200161178c91906129ab565b604051602081830303815290604052815250816003815181106117b2576117b16128af565b5b602002602001018190525060405180606001604052806040518060400160405280600981526020017f74696d657374616d70000000000000000000000000000000000000000000000081525081526020016040518060400160405280600481526020017f753235360000000000000000000000000000000000000000000000000000000081525081526020014260405160200161184f9190612211565b60405160208183030381529060405281525081600481518110611875576118746128af565b5b60200260200101819052507f000000000000000000000000000000000000000000000000000000000000000073ffffffffffffffffffffffffffffffffffffffff16637d64fa9b826040518263ffffffff1660e01b81526004016118d99190612dc2565b5f604051808303815f87803b1580156118f0575f5ffd5b505af1158015611902573d5f5f3e3d5ffd5b505050505050505050565b7f000000000000000000000000000000000000000000000000000000000000000081565b7f000000000000000000000000000000000000000000000000000000000000000081565b5f6119a283838080601f0160208091040260200160405190810160405280939291908181526020018383808284375f81840152601f19601f820116905080830192505050505050506102fa565b9050600160025f8373ffffffffffffffffffffffffffffffffffffffff1673ffffffffffffffffffffffffffffffffffffffff1681526020019081526020015f205f6101000a81548160ff0219169083151502179055508073ffffffffffffffffffffffffffffffffffffffff167fd57b1148efb91f418a2178fc1fb4ba12f9400a4dc8e71851fd59e85d337c609f6001604051611a4091906129ab565b60405180910390a2505050565b611a55611ad1565b5f73ffffffffffffffffffffffffffffffffffffffff168173ffffffffffffffffffffffffffffffffffffffff1603611ac5575f6040517f1e4fbdf7000000000000000000000000000000000000000000000000000000008152600401611abc919061200f565b60405180910390fd5b611ace81611b58565b50565b611ad9611cc1565b73ffffffffffffffffffffffffffffffffffffffff16611af761125b565b73ffffffffffffffffffffffffffffffffffffffff1614611b5657611b1a611cc1565b6040517f118cdaa7000000000000000000000000000000000000000000000000000000008152600401611b4d919061200f565b60405180910390fd5b565b5f5f5f9054906101000a900473ffffffffffffffffffffffffffffffffffffffff169050815f5f6101000a81548173ffffffffffffffffffffffffffffffffffffffff021916908373ffffffffffffffffffffffffffffffffffffffff1602179055508173ffffffffffffffffffffffffffffffffffffffff168173ffffffffffffffffffffffffffffffffffffffff167f8be0079c531659141344cd1fd0a4f28419497f9722a3daafe3b4186f6b6457e060405160405180910390a35050565b611c268383836001611cc8565b611c6757826040517f5274afe7000000000000000000000000000000000000000000000000000000008152600401611c5e919061200f565b60405180910390fd5b505050565b611c7a848484846001611d2a565b611cbb57836040517f5274afe7000000000000000000000000000000000000000000000000000000008152600401611cb2919061200f565b60405180910390fd5b50505050565b5f33905090565b5f5f63a9059cbb60e01b9050604051815f525f1960601c86166004528460245260205f60445f5f8b5af1925060015f51148316611d1c578383151615611d10573d5f823e3d81fd5b5f873b113d1516831692505b806040525050949350505050565b5f5f6323b872dd60e01b9050604051815f525f1960601c87166004525f1960601c86166024528460445260205f60645f5f8c5af1925060015f51148316611d88578383151615611d7c573d5f823e3d81fd5b5f883b113d1516831692505b806040525f606052505095945050505050565b60405180606001604052806060815260200160608152602001606081525090565b5f81519050919050565b5f82825260208201905092915050565b8281835e5f83830152505050565b5f601f19601f8301169050919050565b5f611dfe82611dbc565b611e088185611dc6565b9350611e18818560208601611dd6565b611e2181611de4565b840191505092915050565b5f6020820190508181035f830152611e448184611df4565b905092915050565b5f604051905090565b5f5ffd5b5f5ffd5b5f5ffd5b5f5ffd5b7f4e487b71000000000000000000000000000000000000000000000000000000005f52604160045260245ffd5b611e9b82611de4565b810181811067ffffffffffffffff82111715611eba57611eb9611e65565b5b80604052505050565b5f611ecc611e4c565b9050611ed88282611e92565b919050565b5f67ffffffffffffffff821115611ef757611ef6611e65565b5b611f0082611de4565b9050602081019050919050565b828183375f83830152505050565b5f611f2d611f2884611edd565b611ec3565b905082815260208101848484011115611f4957611f48611e61565b5b611f54848285611f0d565b509392505050565b5f82601f830112611f7057611f6f611e5d565b5b8135611f80848260208601611f1b565b91505092915050565b5f60208284031215611f9e57611f9d611e55565b5b5f82013567ffffffffffffffff811115611fbb57611fba611e59565b5b611fc784828501611f5c565b91505092915050565b5f73ffffffffffffffffffffffffffffffffffffffff82169050919050565b5f611ff982611fd0565b9050919050565b61200981611fef565b82525050565b5f6020820190506120225f830184612000565b92915050565b61203181611fef565b811461203b575f5ffd5b50565b5f8135905061204c81612028565b92915050565b5f6020828403121561206757612066611e55565b5b5f6120748482850161203e565b91505092915050565b5f8115159050919050565b6120918161207d565b82525050565b5f6020820190506120aa5f830184612088565b92915050565b5f5ffd5b5f5ffd5b5f5f83601f8401126120cd576120cc611e5d565b5b8235905067ffffffffffffffff8111156120ea576120e96120b0565b5b602083019150836001820283011115612106576121056120b4565b5b9250929050565b5f819050919050565b61211f8161210d565b8114612129575f5ffd5b50565b5f8135905061213a81612116565b92915050565b5f5f5f5f5f6080868803121561215957612158611e55565b5b5f6121668882890161203e565b955050602086013567ffffffffffffffff81111561218757612186611e59565b5b612193888289016120b8565b945094505060406121a68882890161212c565b92505060606121b78882890161212c565b9150509295509295909350565b5f5f604083850312156121da576121d9611e55565b5b5f6121e78582860161203e565b92505060206121f88582860161203e565b9150509250929050565b61220b8161210d565b82525050565b5f6020820190506122245f830184612202565b92915050565b5f5f5f5f6060858703121561224257612241611e55565b5b5f85013567ffffffffffffffff81111561225f5761225e611e59565b5b61226b878288016120b8565b9450945050602061227e8782880161212c565b925050604061228f8782880161203e565b91505092959194509250565b5f5f5f604084860312156122b2576122b1611e55565b5b5f84013567ffffffffffffffff8111156122cf576122ce611e59565b5b6122db868287016120b8565b935093505060206122ee8682870161212c565b9150509250925092565b5f819050919050565b5f61231b61231661231184611fd0565b6122f8565b611fd0565b9050919050565b5f61232c82612301565b9050919050565b5f61233d82612322565b9050919050565b61234d81612333565b82525050565b5f6020820190506123665f830184612344565b92915050565b5f61237682612322565b9050919050565b6123868161236c565b82525050565b5f60208201905061239f5f83018461237d565b92915050565b5f5f602083850312156123bb576123ba611e55565b5b5f83013567ffffffffffffffff8111156123d8576123d7611e59565b5b6123e4858286016120b8565b92509250509250929050565b7f4e487b71000000000000000000000000000000000000000000000000000000005f52602260045260245ffd5b5f600282049050600182168061243457607f821691505b602082108103612447576124466123f0565b5b50919050565b5f81905092915050565b5f61246182611dbc565b61246b818561244d565b935061247b818560208601611dd6565b80840191505092915050565b7f5f000000000000000000000000000000000000000000000000000000000000005f82015250565b5f6124bb60018361244d565b91506124c682612487565b600182019050919050565b5f819050815f5260205f209050919050565b5f81546124ef8161241d565b6124f9818661244d565b9450600182165f811461251357600181146125285761255a565b60ff198316865281151582028601935061255a565b612531856124d1565b5f5b8381101561255257815481890152600182019150602081019050612533565b838801955050505b50505092915050565b5f61256e8285612457565b9150612579826124af565b915061258582846124e3565b91508190509392505050565b7f51696172614d6f6e6164417373657473000000000000000000000000000000005f82015250565b5f6125c5601083611dc6565b91506125d082612591565b602082019050919050565b5f6040820190508181035f8301526125f2816125b9565b905081810360208301526126068184611df4565b905092915050565b5f67ffffffffffffffff82111561262857612627611e65565b5b61263182611de4565b9050602081019050919050565b5f61265061264b8461260e565b611ec3565b90508281526020810184848401111561266c5761266b611e61565b5b612677848285611dd6565b509392505050565b5f82601f83011261269357612692611e5d565b5b81516126a384826020860161263e565b91505092915050565b5f602082840312156126c1576126c0611e55565b5b5f82015167ffffffffffffffff8111156126de576126dd611e59565b5b6126ea8482850161267f565b91505092915050565b7f5661756c743a204173736574206e6f7420666f756e6420696e207265676973745f8201527f7279000000000000000000000000000000000000000000000000000000000000602082015250565b5f61274d602283611dc6565b9150612758826126f3565b604082019050919050565b5f6020820190508181035f83015261277a81612741565b9050919050565b5f61278b82611fd0565b9050919050565b61279b81612781565b81146127a5575f5ffd5b50565b5f815190506127b681612792565b92915050565b5f602082840312156127d1576127d0611e55565b5b5f6127de848285016127a8565b91505092915050565b7f5661756c743a20546f6b656e206e6f7420737570706f727465640000000000005f82015250565b5f61281b601a83611dc6565b9150612826826127e7565b602082019050919050565b5f6020820190508181035f8301526128488161280f565b9050919050565b7f4e487b71000000000000000000000000000000000000000000000000000000005f52601160045260245ffd5b5f6128868261210d565b91506128918361210d565b92508282019050808211156128a9576128a861284f565b5b92915050565b7f4e487b71000000000000000000000000000000000000000000000000000000005f52603260045260245ffd5b5f6128e78385611dc6565b93506128f4838584611f0d565b6128fd83611de4565b840190509392505050565b5f6020820190508181035f8301526129218184866128dc565b90509392505050565b5f81546129368161241d565b6129408186611dc6565b9450600182165f811461295a5760018114612970576129a2565b60ff1983168652811515602002860193506129a2565b612979856124d1565b5f5b8381101561299a5781548189015260018201915060208101905061297b565b808801955050505b50505092915050565b5f6020820190508181035f8301526129c3818461292a565b905092915050565b7f4772616e74205769746864726177205065726d697373696f6e000000000000005f82015250565b5f6129ff601983611dc6565b9150612a0a826129cb565b602082019050919050565b5f81519050919050565b5f82825260208201905092915050565b5f819050602082019050919050565b5f82825260208201905092915050565b5f612a5882611dbc565b612a628185612a3e565b9350612a72818560208601611dd6565b612a7b81611de4565b840191505092915050565b5f81519050919050565b5f82825260208201905092915050565b5f612aaa82612a86565b612ab48185612a90565b9350612ac4818560208601611dd6565b612acd81611de4565b840191505092915050565b5f606083015f8301518482035f860152612af28282612a4e565b91505060208301518482036020860152612b0c8282612a4e565b91505060408301518482036040860152612b268282612aa0565b9150508091505092915050565b5f612b3e8383612ad8565b905092915050565b5f602082019050919050565b5f612b5c82612a15565b612b668185612a1f565b935083602082028501612b7885612a2f565b805f5b85811015612bb35784840389528151612b948582612b33565b9450612b9f83612b46565b925060208a01995050600181019050612b7b565b50829750879550505050505092915050565b5f6040820190508181035f830152612bdc816129f3565b90508181036020830152612bf08184612b52565b905092915050565b7f5661756c743a20496e73756666696369656e742062616c616e636500000000005f82015250565b5f612c2c601b83611dc6565b9150612c3782612bf8565b602082019050919050565b5f6020820190508181035f830152612c5981612c20565b9050919050565b5f612c6a8261210d565b9150612c758361210d565b9250828203905081811115612c8d57612c8c61284f565b5b92915050565b7f57697468647261770000000000000000000000000000000000000000000000005f82015250565b5f612cc7600883611dc6565b9150612cd282612c93565b602082019050919050565b5f6040820190508181035f830152612cf481612cbb565b90508181036020830152612d088184612b52565b905092915050565b7f5661756c743a204465706f736974206d757374206265203e20300000000000005f82015250565b5f612d44601a83611dc6565b9150612d4f82612d10565b602082019050919050565b5f6020820190508181035f830152612d7181612d38565b9050919050565b7f4465706f736974000000000000000000000000000000000000000000000000005f82015250565b5f612dac600783611dc6565b9150612db782612d78565b602082019050919050565b5f6040820190508181035f830152612dd981612da0565b90508181036020830152612ded8184612b52565b90509291505056fea264697066735822122038084d7a9c354339654d4dec7eaa008bc8c032384641d417ca01e2511a85be7b64736f6c634300081f0033",
					"opcodes": "PUSH1 0xC0 PUSH1 0x40 MSTORE CALLVALUE DUP1 ISZERO PUSH2 0xF JUMPI PUSH0 PUSH0 REVERT JUMPDEST POP PUSH1 0x40 MLOAD PUSH2 0x358A CODESIZE SUB DUP1 PUSH2 0x358A DUP4 CODECOPY DUP2 DUP2 ADD PUSH1 0x40 MSTORE DUP2 ADD SWAP1 PUSH2 0x31 SWAP2 SWAP1 PUSH2 0x39B JUMP JUMPDEST DUP2 PUSH0 PUSH20 0xFFFFFFFFFFFFFFFFFFFFFFFFFFFFFFFFFFFFFFFF AND DUP2 PUSH20 0xFFFFFFFFFFFFFFFFFFFFFFFFFFFFFFFFFFFFFFFF AND SUB PUSH2 0xA2 JUMPI PUSH0 PUSH1 0x40 MLOAD PUSH32 0x1E4FBDF700000000000000000000000000000000000000000000000000000000 DUP2 MSTORE PUSH1 0x4 ADD PUSH2 0x99 SWAP2 SWAP1 PUSH2 0x42A JUMP JUMPDEST PUSH1 0x40 MLOAD DUP1 SWAP2 SUB SWAP1 REVERT JUMPDEST PUSH2 0xB1 DUP2 PUSH2 0x133 PUSH1 0x20 SHL PUSH1 0x20 SHR JUMP JUMPDEST POP DUP4 PUSH20 0xFFFFFFFFFFFFFFFFFFFFFFFFFFFFFFFFFFFFFFFF AND PUSH1 0xA0 DUP2 PUSH20 0xFFFFFFFFFFFFFFFFFFFFFFFFFFFFFFFFFFFFFFFF AND DUP2 MSTORE POP POP DUP3 PUSH20 0xFFFFFFFFFFFFFFFFFFFFFFFFFFFFFFFFFFFFFFFF AND PUSH1 0x80 DUP2 PUSH20 0xFFFFFFFFFFFFFFFFFFFFFFFFFFFFFFFFFFFFFFFF AND DUP2 MSTORE POP POP DUP1 PUSH1 0x1 SWAP1 DUP2 PUSH2 0x129 SWAP2 SWAP1 PUSH2 0x653 JUMP JUMPDEST POP POP POP POP POP PUSH2 0x722 JUMP JUMPDEST PUSH0 PUSH0 PUSH0 SWAP1 SLOAD SWAP1 PUSH2 0x100 EXP SWAP1 DIV PUSH20 0xFFFFFFFFFFFFFFFFFFFFFFFFFFFFFFFFFFFFFFFF AND SWAP1 POP DUP2 PUSH0 PUSH0 PUSH2 0x100 EXP DUP2 SLOAD DUP2 PUSH20 0xFFFFFFFFFFFFFFFFFFFFFFFFFFFFFFFFFFFFFFFF MUL NOT AND SWAP1 DUP4 PUSH20 0xFFFFFFFFFFFFFFFFFFFFFFFFFFFFFFFFFFFFFFFF AND MUL OR SWAP1 SSTORE POP DUP2 PUSH20 0xFFFFFFFFFFFFFFFFFFFFFFFFFFFFFFFFFFFFFFFF AND DUP2 PUSH20 0xFFFFFFFFFFFFFFFFFFFFFFFFFFFFFFFFFFFFFFFF AND PUSH32 0x8BE0079C531659141344CD1FD0A4F28419497F9722A3DAAFE3B4186F6B6457E0 PUSH1 0x40 MLOAD PUSH1 0x40 MLOAD DUP1 SWAP2 SUB SWAP1 LOG3 POP POP JUMP JUMPDEST PUSH0 PUSH1 0x40 MLOAD SWAP1 POP SWAP1 JUMP JUMPDEST PUSH0 PUSH0 REVERT JUMPDEST PUSH0 PUSH0 REVERT JUMPDEST PUSH0 PUSH20 0xFFFFFFFFFFFFFFFFFFFFFFFFFFFFFFFFFFFFFFFF DUP3 AND SWAP1 POP SWAP2 SWAP1 POP JUMP JUMPDEST PUSH0 PUSH2 0x22E DUP3 PUSH2 0x205 JUMP JUMPDEST SWAP1 POP SWAP2 SWAP1 POP JUMP JUMPDEST PUSH2 0x23E DUP2 PUSH2 0x224 JUMP JUMPDEST DUP2 EQ PUSH2 0x248 JUMPI PUSH0 PUSH0 REVERT JUMPDEST POP JUMP JUMPDEST PUSH0 DUP2 MLOAD SWAP1 POP PUSH2 0x259 DUP2 PUSH2 0x235 JUMP JUMPDEST SWAP3 SWAP2 POP POP JUMP JUMPDEST PUSH0 PUSH0 REVERT JUMPDEST PUSH0 PUSH0 REVERT JUMPDEST PUSH0 PUSH1 0x1F NOT PUSH1 0x1F DUP4 ADD AND SWAP1 POP SWAP2 SWAP1 POP JUMP JUMPDEST PUSH32 0x4E487B7100000000000000000000000000000000000000000000000000000000 PUSH0 MSTORE PUSH1 0x41 PUSH1 0x4 MSTORE PUSH1 0x24 PUSH0 REVERT JUMPDEST PUSH2 0x2AD DUP3 PUSH2 0x267 JUMP JUMPDEST DUP2 ADD DUP2 DUP2 LT PUSH8 0xFFFFFFFFFFFFFFFF DUP3 GT OR ISZERO PUSH2 0x2CC JUMPI PUSH2 0x2CB PUSH2 0x277 JUMP JUMPDEST JUMPDEST DUP1 PUSH1 0x40 MSTORE POP POP POP JUMP JUMPDEST PUSH0 PUSH2 0x2DE PUSH2 0x1F4 JUMP JUMPDEST SWAP1 POP PUSH2 0x2EA DUP3 DUP3 PUSH2 0x2A4 JUMP JUMPDEST SWAP2 SWAP1 POP JUMP JUMPDEST PUSH0 PUSH8 0xFFFFFFFFFFFFFFFF DUP3 GT ISZERO PUSH2 0x309 JUMPI PUSH2 0x308 PUSH2 0x277 JUMP JUMPDEST JUMPDEST PUSH2 0x312 DUP3 PUSH2 0x267 JUMP JUMPDEST SWAP1 POP PUSH1 0x20 DUP2 ADD SWAP1 POP SWAP2 SWAP1 POP JUMP JUMPDEST DUP3 DUP2 DUP4 MCOPY PUSH0 DUP4 DUP4 ADD MSTORE POP POP POP JUMP JUMPDEST PUSH0 PUSH2 0x33F PUSH2 0x33A DUP5 PUSH2 0x2EF JUMP JUMPDEST PUSH2 0x2D5 JUMP JUMPDEST SWAP1 POP DUP3 DUP2 MSTORE PUSH1 0x20 DUP2 ADD DUP5 DUP5 DUP5 ADD GT ISZERO PUSH2 0x35B JUMPI PUSH2 0x35A PUSH2 0x263 JUMP JUMPDEST JUMPDEST PUSH2 0x366 DUP5 DUP3 DUP6 PUSH2 0x31F JUMP JUMPDEST POP SWAP4 SWAP3 POP POP POP JUMP JUMPDEST PUSH0 DUP3 PUSH1 0x1F DUP4 ADD SLT PUSH2 0x382 JUMPI PUSH2 0x381 PUSH2 0x25F JUMP JUMPDEST JUMPDEST DUP2 MLOAD PUSH2 0x392 DUP5 DUP3 PUSH1 0x20 DUP7 ADD PUSH2 0x32D JUMP JUMPDEST SWAP2 POP POP SWAP3 SWAP2 POP POP JUMP JUMPDEST PUSH0 PUSH0 PUSH0 PUSH0 PUSH1 0x80 DUP6 DUP8 SUB SLT ISZERO PUSH2 0x3B3 JUMPI PUSH2 0x3B2 PUSH2 0x1FD JUMP JUMPDEST JUMPDEST PUSH0 PUSH2 0x3C0 DUP8 DUP3 DUP9 ADD PUSH2 0x24B JUMP JUMPDEST SWAP5 POP POP PUSH1 0x20 PUSH2 0x3D1 DUP8 DUP3 DUP9 ADD PUSH2 0x24B JUMP JUMPDEST SWAP4 POP POP PUSH1 0x40 PUSH2 0x3E2 DUP8 DUP3 DUP9 ADD PUSH2 0x24B JUMP JUMPDEST SWAP3 POP POP PUSH1 0x60 DUP6 ADD MLOAD PUSH8 0xFFFFFFFFFFFFFFFF DUP2 GT ISZERO PUSH2 0x403 JUMPI PUSH2 0x402 PUSH2 0x201 JUMP JUMPDEST JUMPDEST PUSH2 0x40F DUP8 DUP3 DUP9 ADD PUSH2 0x36E JUMP JUMPDEST SWAP2 POP POP SWAP3 SWAP6 SWAP2 SWAP5 POP SWAP3 POP JUMP JUMPDEST PUSH2 0x424 DUP2 PUSH2 0x224 JUMP JUMPDEST DUP3 MSTORE POP POP JUMP JUMPDEST PUSH0 PUSH1 0x20 DUP3 ADD SWAP1 POP PUSH2 0x43D PUSH0 DUP4 ADD DUP5 PUSH2 0x41B JUMP JUMPDEST SWAP3 SWAP2 POP POP JUMP JUMPDEST PUSH0 DUP2 MLOAD SWAP1 POP SWAP2 SWAP1 POP JUMP JUMPDEST PUSH32 0x4E487B7100000000000000000000000000000000000000000000000000000000 PUSH0 MSTORE PUSH1 0x22 PUSH1 0x4 MSTORE PUSH1 0x24 PUSH0 REVERT JUMPDEST PUSH0 PUSH1 0x2 DUP3 DIV SWAP1 POP PUSH1 0x1 DUP3 AND DUP1 PUSH2 0x491 JUMPI PUSH1 0x7F DUP3 AND SWAP2 POP JUMPDEST PUSH1 0x20 DUP3 LT DUP2 SUB PUSH2 0x4A4 JUMPI PUSH2 0x4A3 PUSH2 0x44D JUMP JUMPDEST JUMPDEST POP SWAP2 SWAP1 POP JUMP JUMPDEST PUSH0 DUP2 SWAP1 POP DUP2 PUSH0 MSTORE PUSH1 0x20 PUSH0 KECCAK256 SWAP1 POP SWAP2 SWAP1 POP JUMP JUMPDEST PUSH0 PUSH1 0x20 PUSH1 0x1F DUP4 ADD DIV SWAP1 POP SWAP2 SWAP1 POP JUMP JUMPDEST PUSH0 DUP3 DUP3 SHL SWAP1 POP SWAP3 SWAP2 POP POP JUMP JUMPDEST PUSH0 PUSH1 0x8 DUP4 MUL PUSH2 0x506 PUSH32 0xFFFFFFFFFFFFFFFFFFFFFFFFFFFFFFFFFFFFFFFFFFFFFFFFFFFFFFFFFFFFFFFF DUP3 PUSH2 0x4CB JUMP JUMPDEST PUSH2 0x510 DUP7 DUP4 PUSH2 0x4CB JUMP JUMPDEST SWAP6 POP DUP1 NOT DUP5 AND SWAP4 POP DUP1 DUP7 AND DUP5 OR SWAP3 POP POP POP SWAP4 SWAP3 POP POP POP JUMP JUMPDEST PUSH0 DUP2 SWAP1 POP SWAP2 SWAP1 POP JUMP JUMPDEST PUSH0 DUP2 SWAP1 POP SWAP2 SWAP1 POP JUMP JUMPDEST PUSH0 PUSH2 0x554 PUSH2 0x54F PUSH2 0x54A DUP5 PUSH2 0x528 JUMP JUMPDEST PUSH2 0x531 JUMP JUMPDEST PUSH2 0x528 JUMP JUMPDEST SWAP1 POP SWAP2 SWAP1 POP JUMP JUMPDEST PUSH0 DUP2 SWAP1 POP SWAP2 SWAP1 POP JUMP JUMPDEST PUSH2 0x56D DUP4 PUSH2 0x53A JUMP JUMPDEST PUSH2 0x581 PUSH2 0x579 DUP3 PUSH2 0x55B JUMP JUMPDEST DUP5 DUP5 SLOAD PUSH2 0x4D7 JUMP JUMPDEST DUP3 SSTORE POP POP POP POP JUMP JUMPDEST PUSH0 PUSH0 SWAP1 POP SWAP1 JUMP JUMPDEST PUSH2 0x598 PUSH2 0x589 JUMP JUMPDEST PUSH2 0x5A3 DUP2 DUP5 DUP5 PUSH2 0x564 JUMP JUMPDEST POP POP POP JUMP JUMPDEST JUMPDEST DUP2 DUP2 LT ISZERO PUSH2 0x5C6 JUMPI PUSH2 0x5BB PUSH0 DUP3 PUSH2 0x590 JUMP JUMPDEST PUSH1 0x1 DUP2 ADD SWAP1 POP PUSH2 0x5A9 JUMP JUMPDEST POP POP JUMP JUMPDEST PUSH1 0x1F DUP3 GT ISZERO PUSH2 0x60B JUMPI PUSH2 0x5DC DUP2 PUSH2 0x4AA JUMP JUMPDEST PUSH2 0x5E5 DUP5 PUSH2 0x4BC JUMP JUMPDEST DUP2 ADD PUSH1 0x20 DUP6 LT ISZERO PUSH2 0x5F4 JUMPI DUP2 SWAP1 POP JUMPDEST PUSH2 0x608 PUSH2 0x600 DUP6 PUSH2 0x4BC JUMP JUMPDEST DUP4 ADD DUP3 PUSH2 0x5A8 JUMP JUMPDEST POP POP JUMPDEST POP POP POP JUMP JUMPDEST PUSH0 DUP3 DUP3 SHR SWAP1 POP SWAP3 SWAP2 POP POP JUMP JUMPDEST PUSH0 PUSH2 0x62B PUSH0 NOT DUP5 PUSH1 0x8 MUL PUSH2 0x610 JUMP JUMPDEST NOT DUP1 DUP4 AND SWAP2 POP POP SWAP3 SWAP2 POP POP JUMP JUMPDEST PUSH0 PUSH2 0x643 DUP4 DUP4 PUSH2 0x61C JUMP JUMPDEST SWAP2 POP DUP3 PUSH1 0x2 MUL DUP3 OR SWAP1 POP SWAP3 SWAP2 POP POP JUMP JUMPDEST PUSH2 0x65C DUP3 PUSH2 0x443 JUMP JUMPDEST PUSH8 0xFFFFFFFFFFFFFFFF DUP2 GT ISZERO PUSH2 0x675 JUMPI PUSH2 0x674 PUSH2 0x277 JUMP JUMPDEST JUMPDEST PUSH2 0x67F DUP3 SLOAD PUSH2 0x47A JUMP JUMPDEST PUSH2 0x68A DUP3 DUP3 DUP6 PUSH2 0x5CA JUMP JUMPDEST PUSH0 PUSH1 0x20 SWAP1 POP PUSH1 0x1F DUP4 GT PUSH1 0x1 DUP2 EQ PUSH2 0x6BB JUMPI PUSH0 DUP5 ISZERO PUSH2 0x6A9 JUMPI DUP3 DUP8 ADD MLOAD SWAP1 POP JUMPDEST PUSH2 0x6B3 DUP6 DUP3 PUSH2 0x638 JUMP JUMPDEST DUP7 SSTORE POP PUSH2 0x71A JUMP JUMPDEST PUSH1 0x1F NOT DUP5 AND PUSH2 0x6C9 DUP7 PUSH2 0x4AA JUMP JUMPDEST PUSH0 JUMPDEST DUP3 DUP2 LT ISZERO PUSH2 0x6F0 JUMPI DUP5 DUP10 ADD MLOAD DUP3 SSTORE PUSH1 0x1 DUP3 ADD SWAP2 POP PUSH1 0x20 DUP6 ADD SWAP5 POP PUSH1 0x20 DUP2 ADD SWAP1 POP PUSH2 0x6CB JUMP JUMPDEST DUP7 DUP4 LT ISZERO PUSH2 0x70D JUMPI DUP5 DUP10 ADD MLOAD PUSH2 0x709 PUSH1 0x1F DUP10 AND DUP3 PUSH2 0x61C JUMP JUMPDEST DUP4 SSTORE POP JUMPDEST PUSH1 0x1 PUSH1 0x2 DUP9 MUL ADD DUP9 SSTORE POP POP POP JUMPDEST POP POP POP POP POP POP JUMP JUMPDEST PUSH1 0x80 MLOAD PUSH1 0xA0 MLOAD PUSH2 0x2E2B PUSH2 0x75F PUSH0 CODECOPY PUSH0 DUP2 DUP2 PUSH2 0xA98 ADD MSTORE DUP2 DUP2 PUSH2 0x11CF ADD MSTORE DUP2 DUP2 PUSH2 0x1882 ADD MSTORE PUSH2 0x190F ADD MSTORE PUSH0 DUP2 DUP2 PUSH2 0x324 ADD MSTORE PUSH2 0x1933 ADD MSTORE PUSH2 0x2E2B PUSH0 RETURN INVALID PUSH1 0x80 PUSH1 0x40 MSTORE CALLVALUE DUP1 ISZERO PUSH2 0xF JUMPI PUSH0 PUSH0 REVERT JUMPDEST POP PUSH1 0x4 CALLDATASIZE LT PUSH2 0xCC JUMPI PUSH0 CALLDATALOAD PUSH1 0xE0 SHR DUP1 PUSH4 0x7804E707 GT PUSH2 0x8A JUMPI DUP1 PUSH4 0xB5F8558C GT PUSH2 0x64 JUMPI DUP1 PUSH4 0xB5F8558C EQ PUSH2 0x1FA JUMPI DUP1 PUSH4 0xBF4D766E EQ PUSH2 0x218 JUMPI DUP1 PUSH4 0xF139721C EQ PUSH2 0x236 JUMPI DUP1 PUSH4 0xF2FDE38B EQ PUSH2 0x252 JUMPI PUSH2 0xCC JUMP JUMPDEST DUP1 PUSH4 0x7804E707 EQ PUSH2 0x1A4 JUMPI DUP1 PUSH4 0x8DA5CB5B EQ PUSH2 0x1C0 JUMPI DUP1 PUSH4 0x8E27D719 EQ PUSH2 0x1DE JUMPI PUSH2 0xCC JUMP JUMPDEST DUP1 PUSH3 0xDAD7D4 EQ PUSH2 0xD0 JUMPI DUP1 PUSH4 0x5D09FB1 EQ PUSH2 0xEE JUMPI DUP1 PUSH4 0x240028E8 EQ PUSH2 0x11E JUMPI DUP1 PUSH4 0x6AFBF5D6 EQ PUSH2 0x14E JUMPI DUP1 PUSH4 0x715018A6 EQ PUSH2 0x16A JUMPI DUP1 PUSH4 0x76C13CBD EQ PUSH2 0x174 JUMPI JUMPDEST PUSH0 PUSH0 REVERT JUMPDEST PUSH2 0xD8 PUSH2 0x26E JUMP JUMPDEST PUSH1 0x40 MLOAD PUSH2 0xE5 SWAP2 SWAP1 PUSH2 0x1E2C JUMP JUMPDEST PUSH1 0x40 MLOAD DUP1 SWAP2 SUB SWAP1 RETURN JUMPDEST PUSH2 0x108 PUSH1 0x4 DUP1 CALLDATASIZE SUB DUP2 ADD SWAP1 PUSH2 0x103 SWAP2 SWAP1 PUSH2 0x1F89 JUMP JUMPDEST PUSH2 0x2FA JUMP JUMPDEST PUSH1 0x40 MLOAD PUSH2 0x115 SWAP2 SWAP1 PUSH2 0x200F JUMP JUMPDEST PUSH1 0x40 MLOAD DUP1 SWAP2 SUB SWAP1 RETURN JUMPDEST PUSH2 0x138 PUSH1 0x4 DUP1 CALLDATASIZE SUB DUP2 ADD SWAP1 PUSH2 0x133 SWAP2 SWAP1 PUSH2 0x2052 JUMP JUMPDEST PUSH2 0x41F JUMP JUMPDEST PUSH1 0x40 MLOAD PUSH2 0x145 SWAP2 SWAP1 PUSH2 0x2097 JUMP JUMPDEST PUSH1 0x40 MLOAD DUP1 SWAP2 SUB SWAP1 RETURN JUMPDEST PUSH2 0x168 PUSH1 0x4 DUP1 CALLDATASIZE SUB DUP2 ADD SWAP1 PUSH2 0x163 SWAP2 SWAP1 PUSH2 0x2140 JUMP JUMPDEST PUSH2 0x43C JUMP JUMPDEST STOP JUMPDEST PUSH2 0x172 PUSH2 0xB25 JUMP JUMPDEST STOP JUMPDEST PUSH2 0x18E PUSH1 0x4 DUP1 CALLDATASIZE SUB DUP2 ADD SWAP1 PUSH2 0x189 SWAP2 SWAP1 PUSH2 0x21C4 JUMP JUMPDEST PUSH2 0xB38 JUMP JUMPDEST PUSH1 0x40 MLOAD PUSH2 0x19B SWAP2 SWAP1 PUSH2 0x2211 JUMP JUMPDEST PUSH1 0x40 MLOAD DUP1 SWAP2 SUB SWAP1 RETURN JUMPDEST PUSH2 0x1BE PUSH1 0x4 DUP1 CALLDATASIZE SUB DUP2 ADD SWAP1 PUSH2 0x1B9 SWAP2 SWAP1 PUSH2 0x222A JUMP JUMPDEST PUSH2 0xB58 JUMP JUMPDEST STOP JUMPDEST PUSH2 0x1C8 PUSH2 0x125B JUMP JUMPDEST PUSH1 0x40 MLOAD PUSH2 0x1D5 SWAP2 SWAP1 PUSH2 0x200F JUMP JUMPDEST PUSH1 0x40 MLOAD DUP1 SWAP2 SUB SWAP1 RETURN JUMPDEST PUSH2 0x1F8 PUSH1 0x4 DUP1 CALLDATASIZE SUB DUP2 ADD SWAP1 PUSH2 0x1F3 SWAP2 SWAP1 PUSH2 0x229B JUMP JUMPDEST PUSH2 0x1282 JUMP JUMPDEST STOP JUMPDEST PUSH2 0x202 PUSH2 0x190D JUMP JUMPDEST PUSH1 0x40 MLOAD PUSH2 0x20F SWAP2 SWAP1 PUSH2 0x2353 JUMP JUMPDEST PUSH1 0x40 MLOAD DUP1 SWAP2 SUB SWAP1 RETURN JUMPDEST PUSH2 0x220 PUSH2 0x1931 JUMP JUMPDEST PUSH1 0x40 MLOAD PUSH2 0x22D SWAP2 SWAP1 PUSH2 0x238C JUMP JUMPDEST PUSH1 0x40 MLOAD DUP1 SWAP2 SUB SWAP1 RETURN JUMPDEST PUSH2 0x250 PUSH1 0x4 DUP1 CALLDATASIZE SUB DUP2 ADD SWAP1 PUSH2 0x24B SWAP2 SWAP1 PUSH2 0x23A5 JUMP JUMPDEST PUSH2 0x1955 JUMP JUMPDEST STOP JUMPDEST PUSH2 0x26C PUSH1 0x4 DUP1 CALLDATASIZE SUB DUP2 ADD SWAP1 PUSH2 0x267 SWAP2 SWAP1 PUSH2 0x2052 JUMP JUMPDEST PUSH2 0x1A4D JUMP JUMPDEST STOP JUMPDEST PUSH1 0x1 DUP1 SLOAD PUSH2 0x27B SWAP1 PUSH2 0x241D JUMP JUMPDEST DUP1 PUSH1 0x1F ADD PUSH1 0x20 DUP1 SWAP2 DIV MUL PUSH1 0x20 ADD PUSH1 0x40 MLOAD SWAP1 DUP2 ADD PUSH1 0x40 MSTORE DUP1 SWAP3 SWAP2 SWAP1 DUP2 DUP2 MSTORE PUSH1 0x20 ADD DUP3 DUP1 SLOAD PUSH2 0x2A7 SWAP1 PUSH2 0x241D JUMP JUMPDEST DUP1 ISZERO PUSH2 0x2F2 JUMPI DUP1 PUSH1 0x1F LT PUSH2 0x2C9 JUMPI PUSH2 0x100 DUP1 DUP4 SLOAD DIV MUL DUP4 MSTORE SWAP2 PUSH1 0x20 ADD SWAP2 PUSH2 0x2F2 JUMP JUMPDEST DUP3 ADD SWAP2 SWAP1 PUSH0 MSTORE PUSH1 0x20 PUSH0 KECCAK256 SWAP1 JUMPDEST DUP2 SLOAD DUP2 MSTORE SWAP1 PUSH1 0x1 ADD SWAP1 PUSH1 0x20 ADD DUP1 DUP4 GT PUSH2 0x2D5 JUMPI DUP3 SWAP1 SUB PUSH1 0x1F AND DUP3 ADD SWAP2 JUMPDEST POP POP POP POP POP DUP2 JUMP JUMPDEST PUSH0 PUSH0 DUP3 PUSH1 0x1 PUSH1 0x40 MLOAD PUSH1 0x20 ADD PUSH2 0x310 SWAP3 SWAP2 SWAP1 PUSH2 0x2563 JUMP JUMPDEST PUSH1 0x40 MLOAD PUSH1 0x20 DUP2 DUP4 SUB SUB DUP2 MSTORE SWAP1 PUSH1 0x40 MSTORE SWAP1 POP PUSH0 PUSH32 0x0 PUSH20 0xFFFFFFFFFFFFFFFFFFFFFFFFFFFFFFFFFFFFFFFF AND PUSH4 0x794A2D6 DUP4 PUSH1 0x40 MLOAD DUP3 PUSH4 0xFFFFFFFF AND PUSH1 0xE0 SHL DUP2 MSTORE PUSH1 0x4 ADD PUSH2 0x37B SWAP2 SWAP1 PUSH2 0x25DB JUMP JUMPDEST PUSH0 PUSH1 0x40 MLOAD DUP1 DUP4 SUB DUP2 DUP7 GAS STATICCALL ISZERO DUP1 ISZERO PUSH2 0x395 JUMPI RETURNDATASIZE PUSH0 PUSH0 RETURNDATACOPY RETURNDATASIZE PUSH0 REVERT JUMPDEST POP POP POP POP PUSH1 0x40 MLOAD RETURNDATASIZE PUSH0 DUP3 RETURNDATACOPY RETURNDATASIZE PUSH1 0x1F NOT PUSH1 0x1F DUP3 ADD AND DUP3 ADD DUP1 PUSH1 0x40 MSTORE POP DUP2 ADD SWAP1 PUSH2 0x3BD SWAP2 SWAP1 PUSH2 0x26AC JUMP JUMPDEST SWAP1 POP PUSH0 DUP2 MLOAD GT PUSH2 0x402 JUMPI PUSH1 0x40 MLOAD PUSH32 0x8C379A000000000000000000000000000000000000000000000000000000000 DUP2 MSTORE PUSH1 0x4 ADD PUSH2 0x3F9 SWAP1 PUSH2 0x2763 JUMP JUMPDEST PUSH1 0x40 MLOAD DUP1 SWAP2 SUB SWAP1 REVERT JUMPDEST DUP1 DUP1 PUSH1 0x20 ADD SWAP1 MLOAD DUP2 ADD SWAP1 PUSH2 0x416 SWAP2 SWAP1 PUSH2 0x27BC JUMP JUMPDEST SWAP3 POP POP POP SWAP2 SWAP1 POP JUMP JUMPDEST PUSH1 0x2 PUSH1 0x20 MSTORE DUP1 PUSH0 MSTORE PUSH1 0x40 PUSH0 KECCAK256 PUSH0 SWAP2 POP SLOAD SWAP1 PUSH2 0x100 EXP SWAP1 DIV PUSH1 0xFF AND DUP2 JUMP JUMPDEST PUSH2 0x444 PUSH2 0x1AD1 JUMP JUMPDEST PUSH0 PUSH2 0x491 DUP6 DUP6 DUP1 DUP1 PUSH1 0x1F ADD PUSH1 0x20 DUP1 SWAP2 DIV MUL PUSH1 0x20 ADD PUSH1 0x40 MLOAD SWAP1 DUP2 ADD PUSH1 0x40 MSTORE DUP1 SWAP4 SWAP3 SWAP2 SWAP1 DUP2 DUP2 MSTORE PUSH1 0x20 ADD DUP4 DUP4 DUP1 DUP3 DUP5 CALLDATACOPY PUSH0 DUP2 DUP5 ADD MSTORE PUSH1 0x1F NOT PUSH1 0x1F DUP3 ADD AND SWAP1 POP DUP1 DUP4 ADD SWAP3 POP POP POP POP POP POP POP PUSH2 0x2FA JUMP JUMPDEST SWAP1 POP PUSH1 0x2 PUSH0 DUP3 PUSH20 0xFFFFFFFFFFFFFFFFFFFFFFFFFFFFFFFFFFFFFFFF AND PUSH20 0xFFFFFFFFFFFFFFFFFFFFFFFFFFFFFFFFFFFFFFFF AND DUP2 MSTORE PUSH1 0x20 ADD SWAP1 DUP2 MSTORE PUSH1 0x20 ADD PUSH0 KECCAK256 PUSH0 SWAP1 SLOAD SWAP1 PUSH2 0x100 EXP SWAP1 DIV PUSH1 0xFF AND PUSH2 0x51C JUMPI PUSH1 0x40 MLOAD PUSH32 0x8C379A000000000000000000000000000000000000000000000000000000000 DUP2 MSTORE PUSH1 0x4 ADD PUSH2 0x513 SWAP1 PUSH2 0x2831 JUMP JUMPDEST PUSH1 0x40 MLOAD DUP1 SWAP2 SUB SWAP1 REVERT JUMPDEST DUP3 PUSH1 0x3 PUSH0 DUP9 PUSH20 0xFFFFFFFFFFFFFFFFFFFFFFFFFFFFFFFFFFFFFFFF AND PUSH20 0xFFFFFFFFFFFFFFFFFFFFFFFFFFFFFFFFFFFFFFFF AND DUP2 MSTORE PUSH1 0x20 ADD SWAP1 DUP2 MSTORE PUSH1 0x20 ADD PUSH0 KECCAK256 PUSH0 DUP4 PUSH20 0xFFFFFFFFFFFFFFFFFFFFFFFFFFFFFFFFFFFFFFFF AND PUSH20 0xFFFFFFFFFFFFFFFFFFFFFFFFFFFFFFFFFFFFFFFF AND DUP2 MSTORE PUSH1 0x20 ADD SWAP1 DUP2 MSTORE PUSH1 0x20 ADD PUSH0 KECCAK256 PUSH0 DUP3 DUP3 SLOAD PUSH2 0x5A3 SWAP2 SWAP1 PUSH2 0x287C JUMP JUMPDEST SWAP3 POP POP DUP2 SWAP1 SSTORE POP PUSH0 PUSH1 0x6 PUSH8 0xFFFFFFFFFFFFFFFF DUP2 GT ISZERO PUSH2 0x5C6 JUMPI PUSH2 0x5C5 PUSH2 0x1E65 JUMP JUMPDEST JUMPDEST PUSH1 0x40 MLOAD SWAP1 DUP1 DUP3 MSTORE DUP1 PUSH1 0x20 MUL PUSH1 0x20 ADD DUP3 ADD PUSH1 0x40 MSTORE DUP1 ISZERO PUSH2 0x5FF JUMPI DUP2 PUSH1 0x20 ADD JUMPDEST PUSH2 0x5EC PUSH2 0x1D9B JUMP JUMPDEST DUP2 MSTORE PUSH1 0x20 ADD SWAP1 PUSH1 0x1 SWAP1 SUB SWAP1 DUP2 PUSH2 0x5E4 JUMPI SWAP1 POP JUMPDEST POP SWAP1 POP PUSH1 0x40 MLOAD DUP1 PUSH1 0x60 ADD PUSH1 0x40 MSTORE DUP1 PUSH1 0x40 MLOAD DUP1 PUSH1 0x40 ADD PUSH1 0x40 MSTORE DUP1 PUSH1 0x4 DUP2 MSTORE PUSH1 0x20 ADD PUSH32 0x7573657200000000000000000000000000000000000000000000000000000000 DUP2 MSTORE POP DUP2 MSTORE PUSH1 0x20 ADD PUSH1 0x40 MLOAD DUP1 PUSH1 0x40 ADD PUSH1 0x40 MSTORE DUP1 PUSH1 0x7 DUP2 MSTORE PUSH1 0x20 ADD PUSH32 0x6164647265737300000000000000000000000000000000000000000000000000 DUP2 MSTORE POP DUP2 MSTORE PUSH1 0x20 ADD CALLER PUSH1 0x40 MLOAD PUSH1 0x20 ADD PUSH2 0x694 SWAP2 SWAP1 PUSH2 0x200F JUMP JUMPDEST PUSH1 0x40 MLOAD PUSH1 0x20 DUP2 DUP4 SUB SUB DUP2 MSTORE SWAP1 PUSH1 0x40 MSTORE DUP2 MSTORE POP DUP2 PUSH0 DUP2 MLOAD DUP2 LT PUSH2 0x6B9 JUMPI PUSH2 0x6B8 PUSH2 0x28AF JUMP JUMPDEST JUMPDEST PUSH1 0x20 MUL PUSH1 0x20 ADD ADD DUP2 SWAP1 MSTORE POP PUSH1 0x40 MLOAD DUP1 PUSH1 0x60 ADD PUSH1 0x40 MSTORE DUP1 PUSH1 0x40 MLOAD DUP1 PUSH1 0x40 ADD PUSH1 0x40 MSTORE DUP1 PUSH1 0x6 DUP2 MSTORE PUSH1 0x20 ADD PUSH32 0x616D6F756E740000000000000000000000000000000000000000000000000000 DUP2 MSTORE POP DUP2 MSTORE PUSH1 0x20 ADD PUSH1 0x40 MLOAD DUP1 PUSH1 0x40 ADD PUSH1 0x40 MSTORE DUP1 PUSH1 0x7 DUP2 MSTORE PUSH1 0x20 ADD PUSH32 0x75696E7432353600000000000000000000000000000000000000000000000000 DUP2 MSTORE POP DUP2 MSTORE PUSH1 0x20 ADD DUP6 PUSH1 0x40 MLOAD PUSH1 0x20 ADD PUSH2 0x756 SWAP2 SWAP1 PUSH2 0x2211 JUMP JUMPDEST PUSH1 0x40 MLOAD PUSH1 0x20 DUP2 DUP4 SUB SUB DUP2 MSTORE SWAP1 PUSH1 0x40 MSTORE DUP2 MSTORE POP DUP2 PUSH1 0x1 DUP2 MLOAD DUP2 LT PUSH2 0x77C JUMPI PUSH2 0x77B PUSH2 0x28AF JUMP JUMPDEST JUMPDEST PUSH1 0x20 MUL PUSH1 0x20 ADD ADD DUP2 SWAP1 MSTORE POP PUSH1 0x40 MLOAD DUP1 PUSH1 0x60 ADD PUSH1 0x40 MSTORE DUP1 PUSH1 0x40 MLOAD DUP1 PUSH1 0x40 ADD PUSH1 0x40 MSTORE DUP1 PUSH1 0x5 DUP2 MSTORE PUSH1 0x20 ADD PUSH32 0x746F6B656E000000000000000000000000000000000000000000000000000000 DUP2 MSTORE POP DUP2 MSTORE PUSH1 0x20 ADD PUSH1 0x40 MLOAD DUP1 PUSH1 0x40 ADD PUSH1 0x40 MSTORE DUP1 PUSH1 0x6 DUP2 MSTORE PUSH1 0x20 ADD PUSH32 0x737472696E670000000000000000000000000000000000000000000000000000 DUP2 MSTORE POP DUP2 MSTORE PUSH1 0x20 ADD DUP8 DUP8 PUSH1 0x40 MLOAD PUSH1 0x20 ADD PUSH2 0x81B SWAP3 SWAP2 SWAP1 PUSH2 0x2908 JUMP JUMPDEST PUSH1 0x40 MLOAD PUSH1 0x20 DUP2 DUP4 SUB SUB DUP2 MSTORE SWAP1 PUSH1 0x40 MSTORE DUP2 MSTORE POP DUP2 PUSH1 0x2 DUP2 MLOAD DUP2 LT PUSH2 0x841 JUMPI PUSH2 0x840 PUSH2 0x28AF JUMP JUMPDEST JUMPDEST PUSH1 0x20 MUL PUSH1 0x20 ADD ADD DUP2 SWAP1 MSTORE POP PUSH1 0x40 MLOAD DUP1 PUSH1 0x60 ADD PUSH1 0x40 MSTORE DUP1 PUSH1 0x40 MLOAD DUP1 PUSH1 0x40 ADD PUSH1 0x40 MSTORE DUP1 PUSH1 0x8 DUP2 MSTORE PUSH1 0x20 ADD PUSH32 0x70726F7669646572000000000000000000000000000000000000000000000000 DUP2 MSTORE POP DUP2 MSTORE PUSH1 0x20 ADD PUSH1 0x40 MLOAD DUP1 PUSH1 0x40 ADD PUSH1 0x40 MSTORE DUP1 PUSH1 0x6 DUP2 MSTORE PUSH1 0x20 ADD PUSH32 0x737472696E670000000000000000000000000000000000000000000000000000 DUP2 MSTORE POP DUP2 MSTORE PUSH1 0x20 ADD PUSH1 0x1 PUSH1 0x40 MLOAD PUSH1 0x20 ADD PUSH2 0x8DF SWAP2 SWAP1 PUSH2 0x29AB JUMP JUMPDEST PUSH1 0x40 MLOAD PUSH1 0x20 DUP2 DUP4 SUB SUB DUP2 MSTORE SWAP1 PUSH1 0x40 MSTORE DUP2 MSTORE POP DUP2 PUSH1 0x3 DUP2 MLOAD DUP2 LT PUSH2 0x905 JUMPI PUSH2 0x904 PUSH2 0x28AF JUMP JUMPDEST JUMPDEST PUSH1 0x20 MUL PUSH1 0x20 ADD ADD DUP2 SWAP1 MSTORE POP PUSH1 0x40 MLOAD DUP1 PUSH1 0x60 ADD PUSH1 0x40 MSTORE DUP1 PUSH1 0x40 MLOAD DUP1 PUSH1 0x40 ADD PUSH1 0x40 MSTORE DUP1 PUSH1 0x9 DUP2 MSTORE PUSH1 0x20 ADD PUSH32 0x6E756C6C69666965720000000000000000000000000000000000000000000000 DUP2 MSTORE POP DUP2 MSTORE PUSH1 0x20 ADD PUSH1 0x40 MLOAD DUP1 PUSH1 0x40 ADD PUSH1 0x40 MSTORE DUP1 PUSH1 0x7 DUP2 MSTORE PUSH1 0x20 ADD PUSH32 0x75696E7432353600000000000000000000000000000000000000000000000000 DUP2 MSTORE POP DUP2 MSTORE PUSH1 0x20 ADD DUP5 PUSH1 0x40 MLOAD PUSH1 0x20 ADD PUSH2 0x9A2 SWAP2 SWAP1 PUSH2 0x2211 JUMP JUMPDEST PUSH1 0x40 MLOAD PUSH1 0x20 DUP2 DUP4 SUB SUB DUP2 MSTORE SWAP1 PUSH1 0x40 MSTORE DUP2 MSTORE POP DUP2 PUSH1 0x4 DUP2 MLOAD DUP2 LT PUSH2 0x9C8 JUMPI PUSH2 0x9C7 PUSH2 0x28AF JUMP JUMPDEST JUMPDEST PUSH1 0x20 MUL PUSH1 0x20 ADD ADD DUP2 SWAP1 MSTORE POP PUSH1 0x40 MLOAD DUP1 PUSH1 0x60 ADD PUSH1 0x40 MSTORE DUP1 PUSH1 0x40 MLOAD DUP1 PUSH1 0x40 ADD PUSH1 0x40 MSTORE DUP1 PUSH1 0x9 DUP2 MSTORE PUSH1 0x20 ADD PUSH32 0x74696D657374616D700000000000000000000000000000000000000000000000 DUP2 MSTORE POP DUP2 MSTORE PUSH1 0x20 ADD PUSH1 0x40 MLOAD DUP1 PUSH1 0x40 ADD PUSH1 0x40 MSTORE DUP1 PUSH1 0x4 DUP2 MSTORE PUSH1 0x20 ADD PUSH32 0x7532353600000000000000000000000000000000000000000000000000000000 DUP2 MSTORE POP DUP2 MSTORE PUSH1 0x20 ADD TIMESTAMP PUSH1 0x40 MLOAD PUSH1 0x20 ADD PUSH2 0xA65 SWAP2 SWAP1 PUSH2 0x2211 JUMP JUMPDEST PUSH1 0x40 MLOAD PUSH1 0x20 DUP2 DUP4 SUB SUB DUP2 MSTORE SWAP1 PUSH1 0x40 MSTORE DUP2 MSTORE POP DUP2 PUSH1 0x5 DUP2 MLOAD DUP2 LT PUSH2 0xA8B JUMPI PUSH2 0xA8A PUSH2 0x28AF JUMP JUMPDEST JUMPDEST PUSH1 0x20 MUL PUSH1 0x20 ADD ADD DUP2 SWAP1 MSTORE POP PUSH32 0x0 PUSH20 0xFFFFFFFFFFFFFFFFFFFFFFFFFFFFFFFFFFFFFFFF AND PUSH4 0x7D64FA9B DUP3 PUSH1 0x40 MLOAD DUP3 PUSH4 0xFFFFFFFF AND PUSH1 0xE0 SHL DUP2 MSTORE PUSH1 0x4 ADD PUSH2 0xAEF SWAP2 SWAP1 PUSH2 0x2BC5 JUMP JUMPDEST PUSH0 PUSH1 0x40 MLOAD DUP1 DUP4 SUB DUP2 PUSH0 DUP8 DUP1 EXTCODESIZE ISZERO DUP1 ISZERO PUSH2 0xB06 JUMPI PUSH0 PUSH0 REVERT JUMPDEST POP GAS CALL ISZERO DUP1 ISZERO PUSH2 0xB18 JUMPI RETURNDATASIZE PUSH0 PUSH0 RETURNDATACOPY RETURNDATASIZE PUSH0 REVERT JUMPDEST POP POP POP POP POP POP POP POP POP POP POP JUMP JUMPDEST PUSH2 0xB2D PUSH2 0x1AD1 JUMP JUMPDEST PUSH2 0xB36 PUSH0 PUSH2 0x1B58 JUMP JUMPDEST JUMP JUMPDEST PUSH1 0x3 PUSH1 0x20 MSTORE DUP2 PUSH0 MSTORE PUSH1 0x40 PUSH0 KECCAK256 PUSH1 0x20 MSTORE DUP1 PUSH0 MSTORE PUSH1 0x40 PUSH0 KECCAK256 PUSH0 SWAP2 POP SWAP2 POP POP SLOAD DUP2 JUMP JUMPDEST PUSH0 PUSH2 0xBA5 DUP6 DUP6 DUP1 DUP1 PUSH1 0x1F ADD PUSH1 0x20 DUP1 SWAP2 DIV MUL PUSH1 0x20 ADD PUSH1 0x40 MLOAD SWAP1 DUP2 ADD PUSH1 0x40 MSTORE DUP1 SWAP4 SWAP3 SWAP2 SWAP1 DUP2 DUP2 MSTORE PUSH1 0x20 ADD DUP4 DUP4 DUP1 DUP3 DUP5 CALLDATACOPY PUSH0 DUP2 DUP5 ADD MSTORE PUSH1 0x1F NOT PUSH1 0x1F DUP3 ADD AND SWAP1 POP DUP1 DUP4 ADD SWAP3 POP POP POP POP POP POP POP PUSH2 0x2FA JUMP JUMPDEST SWAP1 POP PUSH1 0x2 PUSH0 DUP3 PUSH20 0xFFFFFFFFFFFFFFFFFFFFFFFFFFFFFFFFFFFFFFFF AND PUSH20 0xFFFFFFFFFFFFFFFFFFFFFFFFFFFFFFFFFFFFFFFF AND DUP2 MSTORE PUSH1 0x20 ADD SWAP1 DUP2 MSTORE PUSH1 0x20 ADD PUSH0 KECCAK256 PUSH0 SWAP1 SLOAD SWAP1 PUSH2 0x100 EXP SWAP1 DIV PUSH1 0xFF AND PUSH2 0xC30 JUMPI PUSH1 0x40 MLOAD PUSH32 0x8C379A000000000000000000000000000000000000000000000000000000000 DUP2 MSTORE PUSH1 0x4 ADD PUSH2 0xC27 SWAP1 PUSH2 0x2831 JUMP JUMPDEST PUSH1 0x40 MLOAD DUP1 SWAP2 SUB SWAP1 REVERT JUMPDEST PUSH1 0x3 PUSH0 CALLER PUSH20 0xFFFFFFFFFFFFFFFFFFFFFFFFFFFFFFFFFFFFFFFF AND PUSH20 0xFFFFFFFFFFFFFFFFFFFFFFFFFFFFFFFFFFFFFFFF AND DUP2 MSTORE PUSH1 0x20 ADD SWAP1 DUP2 MSTORE PUSH1 0x20 ADD PUSH0 KECCAK256 PUSH0 DUP3 PUSH20 0xFFFFFFFFFFFFFFFFFFFFFFFFFFFFFFFFFFFFFFFF AND PUSH20 0xFFFFFFFFFFFFFFFFFFFFFFFFFFFFFFFFFFFFFFFF AND DUP2 MSTORE PUSH1 0x20 ADD SWAP1 DUP2 MSTORE PUSH1 0x20 ADD PUSH0 KECCAK256 SLOAD DUP4 GT ISZERO PUSH2 0xCEB JUMPI PUSH1 0x40 MLOAD PUSH32 0x8C379A000000000000000000000000000000000000000000000000000000000 DUP2 MSTORE PUSH1 0x4 ADD PUSH2 0xCE2 SWAP1 PUSH2 0x2C42 JUMP JUMPDEST PUSH1 0x40 MLOAD DUP1 SWAP2 SUB SWAP1 REVERT JUMPDEST DUP3 PUSH1 0x3 PUSH0 CALLER PUSH20 0xFFFFFFFFFFFFFFFFFFFFFFFFFFFFFFFFFFFFFFFF AND PUSH20 0xFFFFFFFFFFFFFFFFFFFFFFFFFFFFFFFFFFFFFFFF AND DUP2 MSTORE PUSH1 0x20 ADD SWAP1 DUP2 MSTORE PUSH1 0x20 ADD PUSH0 KECCAK256 PUSH0 DUP4 PUSH20 0xFFFFFFFFFFFFFFFFFFFFFFFFFFFFFFFFFFFFFFFF AND PUSH20 0xFFFFFFFFFFFFFFFFFFFFFFFFFFFFFFFFFFFFFFFF AND DUP2 MSTORE PUSH1 0x20 ADD SWAP1 DUP2 MSTORE PUSH1 0x20 ADD PUSH0 KECCAK256 PUSH0 DUP3 DUP3 SLOAD PUSH2 0xD72 SWAP2 SWAP1 PUSH2 0x2C60 JUMP JUMPDEST SWAP3 POP POP DUP2 SWAP1 SSTORE POP PUSH2 0xDA4 DUP3 DUP5 DUP4 PUSH20 0xFFFFFFFFFFFFFFFFFFFFFFFFFFFFFFFFFFFFFFFF AND PUSH2 0x1C19 SWAP1 SWAP3 SWAP2 SWAP1 PUSH4 0xFFFFFFFF AND JUMP JUMPDEST PUSH0 PUSH1 0x5 PUSH8 0xFFFFFFFFFFFFFFFF DUP2 GT ISZERO PUSH2 0xDC0 JUMPI PUSH2 0xDBF PUSH2 0x1E65 JUMP JUMPDEST JUMPDEST PUSH1 0x40 MLOAD SWAP1 DUP1 DUP3 MSTORE DUP1 PUSH1 0x20 MUL PUSH1 0x20 ADD DUP3 ADD PUSH1 0x40 MSTORE DUP1 ISZERO PUSH2 0xDF9 JUMPI DUP2 PUSH1 0x20 ADD JUMPDEST PUSH2 0xDE6 PUSH2 0x1D9B JUMP JUMPDEST DUP2 MSTORE PUSH1 0x20 ADD SWAP1 PUSH1 0x1 SWAP1 SUB SWAP1 DUP2 PUSH2 0xDDE JUMPI SWAP1 POP JUMPDEST POP SWAP1 POP PUSH1 0x40 MLOAD DUP1 PUSH1 0x60 ADD PUSH1 0x40 MSTORE DUP1 PUSH1 0x40 MLOAD DUP1 PUSH1 0x40 ADD PUSH1 0x40 MSTORE DUP1 PUSH1 0x4 DUP2 MSTORE PUSH1 0x20 ADD PUSH32 0x7573657200000000000000000000000000000000000000000000000000000000 DUP2 MSTORE POP DUP2 MSTORE PUSH1 0x20 ADD PUSH1 0x40 MLOAD DUP1 PUSH1 0x40 ADD PUSH1 0x40 MSTORE DUP1 PUSH1 0x7 DUP2 MSTORE PUSH1 0x20 ADD PUSH32 0x6164647265737300000000000000000000000000000000000000000000000000 DUP2 MSTORE POP DUP2 MSTORE PUSH1 0x20 ADD CALLER PUSH1 0x40 MLOAD PUSH1 0x20 ADD PUSH2 0xE8E SWAP2 SWAP1 PUSH2 0x200F JUMP JUMPDEST PUSH1 0x40 MLOAD PUSH1 0x20 DUP2 DUP4 SUB SUB DUP2 MSTORE SWAP1 PUSH1 0x40 MSTORE DUP2 MSTORE POP DUP2 PUSH0 DUP2 MLOAD DUP2 LT PUSH2 0xEB3 JUMPI PUSH2 0xEB2 PUSH2 0x28AF JUMP JUMPDEST JUMPDEST PUSH1 0x20 MUL PUSH1 0x20 ADD ADD DUP2 SWAP1 MSTORE POP PUSH1 0x40 MLOAD DUP1 PUSH1 0x60 ADD PUSH1 0x40 MSTORE DUP1 PUSH1 0x40 MLOAD DUP1 PUSH1 0x40 ADD PUSH1 0x40 MSTORE DUP1 PUSH1 0x6 DUP2 MSTORE PUSH1 0x20 ADD PUSH32 0x616D6F756E740000000000000000000000000000000000000000000000000000 DUP2 MSTORE POP DUP2 MSTORE PUSH1 0x20 ADD PUSH1 0x40 MLOAD DUP1 PUSH1 0x40 ADD PUSH1 0x40 MSTORE DUP1 PUSH1 0x7 DUP2 MSTORE PUSH1 0x20 ADD PUSH32 0x75696E7432353600000000000000000000000000000000000000000000000000 DUP2 MSTORE POP DUP2 MSTORE PUSH1 0x20 ADD DUP6 PUSH1 0x40 MLOAD PUSH1 0x20 ADD PUSH2 0xF50 SWAP2 SWAP1 PUSH2 0x2211 JUMP JUMPDEST PUSH1 0x40 MLOAD PUSH1 0x20 DUP2 DUP4 SUB SUB DUP2 MSTORE SWAP1 PUSH1 0x40 MSTORE DUP2 MSTORE POP DUP2 PUSH1 0x1 DUP2 MLOAD DUP2 LT PUSH2 0xF76 JUMPI PUSH2 0xF75 PUSH2 0x28AF JUMP JUMPDEST JUMPDEST PUSH1 0x20 MUL PUSH1 0x20 ADD ADD DUP2 SWAP1 MSTORE POP PUSH1 0x40 MLOAD DUP1 PUSH1 0x60 ADD PUSH1 0x40 MSTORE DUP1 PUSH1 0x40 MLOAD DUP1 PUSH1 0x40 ADD PUSH1 0x40 MSTORE DUP1 PUSH1 0x5 DUP2 MSTORE PUSH1 0x20 ADD PUSH32 0x746F6B656E000000000000000000000000000000000000000000000000000000 DUP2 MSTORE POP DUP2 MSTORE PUSH1 0x20 ADD PUSH1 0x40 MLOAD DUP1 PUSH1 0x40 ADD PUSH1 0x40 MSTORE DUP1 PUSH1 0x6 DUP2 MSTORE PUSH1 0x20 ADD PUSH32 0x737472696E670000000000000000000000000000000000000000000000000000 DUP2 MSTORE POP DUP2 MSTORE PUSH1 0x20 ADD DUP8 DUP8 PUSH1 0x40 MLOAD PUSH1 0x20 ADD PUSH2 0x1015 SWAP3 SWAP2 SWAP1 PUSH2 0x2908 JUMP JUMPDEST PUSH1 0x40 MLOAD PUSH1 0x20 DUP2 DUP4 SUB SUB DUP2 MSTORE SWAP1 PUSH1 0x40 MSTORE DUP2 MSTORE POP DUP2 PUSH1 0x2 DUP2 MLOAD DUP2 LT PUSH2 0x103B JUMPI PUSH2 0x103A PUSH2 0x28AF JUMP JUMPDEST JUMPDEST PUSH1 0x20 MUL PUSH1 0x20 ADD ADD DUP2 SWAP1 MSTORE POP PUSH1 0x40 MLOAD DUP1 PUSH1 0x60 ADD PUSH1 0x40 MSTORE DUP1 PUSH1 0x40 MLOAD DUP1 PUSH1 0x40 ADD PUSH1 0x40 MSTORE DUP1 PUSH1 0x8 DUP2 MSTORE PUSH1 0x20 ADD PUSH32 0x70726F7669646572000000000000000000000000000000000000000000000000 DUP2 MSTORE POP DUP2 MSTORE PUSH1 0x20 ADD PUSH1 0x40 MLOAD DUP1 PUSH1 0x40 ADD PUSH1 0x40 MSTORE DUP1 PUSH1 0x6 DUP2 MSTORE PUSH1 0x20 ADD PUSH32 0x737472696E670000000000000000000000000000000000000000000000000000 DUP2 MSTORE POP DUP2 MSTORE PUSH1 0x20 ADD PUSH1 0x1 PUSH1 0x40 MLOAD PUSH1 0x20 ADD PUSH2 0x10D9 SWAP2 SWAP1 PUSH2 0x29AB JUMP JUMPDEST PUSH1 0x40 MLOAD PUSH1 0x20 DUP2 DUP4 SUB SUB DUP2 MSTORE SWAP1 PUSH1 0x40 MSTORE DUP2 MSTORE POP DUP2 PUSH1 0x3 DUP2 MLOAD DUP2 LT PUSH2 0x10FF JUMPI PUSH2 0x10FE PUSH2 0x28AF JUMP JUMPDEST JUMPDEST PUSH1 0x20 MUL PUSH1 0x20 ADD ADD DUP2 SWAP1 MSTORE POP PUSH1 0x40 MLOAD DUP1 PUSH1 0x60 ADD PUSH1 0x40 MSTORE DUP1 PUSH1 0x40 MLOAD DUP1 PUSH1 0x40 ADD PUSH1 0x40 MSTORE DUP1 PUSH1 0x9 DUP2 MSTORE PUSH1 0x20 ADD PUSH32 0x74696D657374616D700000000000000000000000000000000000000000000000 DUP2 MSTORE POP DUP2 MSTORE PUSH1 0x20 ADD PUSH1 0x40 MLOAD DUP1 PUSH1 0x40 ADD PUSH1 0x40 MSTORE DUP1 PUSH1 0x4 DUP2 MSTORE PUSH1 0x20 ADD PUSH32 0x7532353600000000000000000000000000000000000000000000000000000000 DUP2 MSTORE POP DUP2 MSTORE PUSH1 0x20 ADD TIMESTAMP PUSH1 0x40 MLOAD PUSH1 0x20 ADD PUSH2 0x119C SWAP2 SWAP1 PUSH2 0x2211 JUMP JUMPDEST PUSH1 0x40 MLOAD PUSH1 0x20 DUP2 DUP4 SUB SUB DUP2 MSTORE SWAP1 PUSH1 0x40 MSTORE DUP2 MSTORE POP DUP2 PUSH1 0x4 DUP2 MLOAD DUP2 LT PUSH2 0x11C2 JUMPI PUSH2 0x11C1 PUSH2 0x28AF JUMP JUMPDEST JUMPDEST PUSH1 0x20 MUL PUSH1 0x20 ADD ADD DUP2 SWAP1 MSTORE POP PUSH32 0x0 PUSH20 0xFFFFFFFFFFFFFFFFFFFFFFFFFFFFFFFFFFFFFFFF AND PUSH4 0x7D64FA9B DUP3 PUSH1 0x40 MLOAD DUP3 PUSH4 0xFFFFFFFF AND PUSH1 0xE0 SHL DUP2 MSTORE PUSH1 0x4 ADD PUSH2 0x1226 SWAP2 SWAP1 PUSH2 0x2CDD JUMP JUMPDEST PUSH0 PUSH1 0x40 MLOAD DUP1 DUP4 SUB DUP2 PUSH0 DUP8 DUP1 EXTCODESIZE ISZERO DUP1 ISZERO PUSH2 0x123D JUMPI PUSH0 PUSH0 REVERT JUMPDEST POP GAS CALL ISZERO DUP1 ISZERO PUSH2 0x124F JUMPI RETURNDATASIZE PUSH0 PUSH0 RETURNDATACOPY RETURNDATASIZE PUSH0 REVERT JUMPDEST POP POP POP POP POP POP POP POP POP POP JUMP JUMPDEST PUSH0 PUSH0 PUSH0 SWAP1 SLOAD SWAP1 PUSH2 0x100 EXP SWAP1 DIV PUSH20 0xFFFFFFFFFFFFFFFFFFFFFFFFFFFFFFFFFFFFFFFF AND SWAP1 POP SWAP1 JUMP JUMPDEST PUSH0 PUSH2 0x12CF DUP5 DUP5 DUP1 DUP1 PUSH1 0x1F ADD PUSH1 0x20 DUP1 SWAP2 DIV MUL PUSH1 0x20 ADD PUSH1 0x40 MLOAD SWAP1 DUP2 ADD PUSH1 0x40 MSTORE DUP1 SWAP4 SWAP3 SWAP2 SWAP1 DUP2 DUP2 MSTORE PUSH1 0x20 ADD DUP4 DUP4 DUP1 DUP3 DUP5 CALLDATACOPY PUSH0 DUP2 DUP5 ADD MSTORE PUSH1 0x1F NOT PUSH1 0x1F DUP3 ADD AND SWAP1 POP DUP1 DUP4 ADD SWAP3 POP POP POP POP POP POP POP PUSH2 0x2FA JUMP JUMPDEST SWAP1 POP PUSH1 0x2 PUSH0 DUP3 PUSH20 0xFFFFFFFFFFFFFFFFFFFFFFFFFFFFFFFFFFFFFFFF AND PUSH20 0xFFFFFFFFFFFFFFFFFFFFFFFFFFFFFFFFFFFFFFFF AND DUP2 MSTORE PUSH1 0x20 ADD SWAP1 DUP2 MSTORE PUSH1 0x20 ADD PUSH0 KECCAK256 PUSH0 SWAP1 SLOAD SWAP1 PUSH2 0x100 EXP SWAP1 DIV PUSH1 0xFF AND PUSH2 0x135A JUMPI PUSH1 0x40 MLOAD PUSH32 0x8C379A000000000000000000000000000000000000000000000000000000000 DUP2 MSTORE PUSH1 0x4 ADD PUSH2 0x1351 SWAP1 PUSH2 0x2831 JUMP JUMPDEST PUSH1 0x40 MLOAD DUP1 SWAP2 SUB SWAP1 REVERT JUMPDEST PUSH0 DUP3 GT PUSH2 0x139C JUMPI PUSH1 0x40 MLOAD PUSH32 0x8C379A000000000000000000000000000000000000000000000000000000000 DUP2 MSTORE PUSH1 0x4 ADD PUSH2 0x1393 SWAP1 PUSH2 0x2D5A JUMP JUMPDEST PUSH1 0x40 MLOAD DUP1 SWAP2 SUB SWAP1 REVERT JUMPDEST PUSH2 0x13C9 CALLER ADDRESS DUP5 DUP5 PUSH20 0xFFFFFFFFFFFFFFFFFFFFFFFFFFFFFFFFFFFFFFFF AND PUSH2 0x1C6C SWAP1 SWAP4 SWAP3 SWAP2 SWAP1 PUSH4 0xFFFFFFFF AND JUMP JUMPDEST DUP2 PUSH1 0x3 PUSH0 CALLER PUSH20 0xFFFFFFFFFFFFFFFFFFFFFFFFFFFFFFFFFFFFFFFF AND PUSH20 0xFFFFFFFFFFFFFFFFFFFFFFFFFFFFFFFFFFFFFFFF AND DUP2 MSTORE PUSH1 0x20 ADD SWAP1 DUP2 MSTORE PUSH1 0x20 ADD PUSH0 KECCAK256 PUSH0 DUP4 PUSH20 0xFFFFFFFFFFFFFFFFFFFFFFFFFFFFFFFFFFFFFFFF AND PUSH20 0xFFFFFFFFFFFFFFFFFFFFFFFFFFFFFFFFFFFFFFFF AND DUP2 MSTORE PUSH1 0x20 ADD SWAP1 DUP2 MSTORE PUSH1 0x20 ADD PUSH0 KECCAK256 PUSH0 DUP3 DUP3 SLOAD PUSH2 0x1450 SWAP2 SWAP1 PUSH2 0x287C JUMP JUMPDEST SWAP3 POP POP DUP2 SWAP1 SSTORE POP PUSH0 PUSH1 0x5 PUSH8 0xFFFFFFFFFFFFFFFF DUP2 GT ISZERO PUSH2 0x1473 JUMPI PUSH2 0x1472 PUSH2 0x1E65 JUMP JUMPDEST JUMPDEST PUSH1 0x40 MLOAD SWAP1 DUP1 DUP3 MSTORE DUP1 PUSH1 0x20 MUL PUSH1 0x20 ADD DUP3 ADD PUSH1 0x40 MSTORE DUP1 ISZERO PUSH2 0x14AC JUMPI DUP2 PUSH1 0x20 ADD JUMPDEST PUSH2 0x1499 PUSH2 0x1D9B JUMP JUMPDEST DUP2 MSTORE PUSH1 0x20 ADD SWAP1 PUSH1 0x1 SWAP1 SUB SWAP1 DUP2 PUSH2 0x1491 JUMPI SWAP1 POP JUMPDEST POP SWAP1 POP PUSH1 0x40 MLOAD DUP1 PUSH1 0x60 ADD PUSH1 0x40 MSTORE DUP1 PUSH1 0x40 MLOAD DUP1 PUSH1 0x40 ADD PUSH1 0x40 MSTORE DUP1 PUSH1 0x4 DUP2 MSTORE PUSH1 0x20 ADD PUSH32 0x7573657200000000000000000000000000000000000000000000000000000000 DUP2 MSTORE POP DUP2 MSTORE PUSH1 0x20 ADD PUSH1 0x40 MLOAD DUP1 PUSH1 0x40 ADD PUSH1 0x40 MSTORE DUP1 PUSH1 0x7 DUP2 MSTORE PUSH1 0x20 ADD PUSH32 0x6164647265737300000000000000000000000000000000000000000000000000 DUP2 MSTORE POP DUP2 MSTORE PUSH1 0x20 ADD CALLER PUSH1 0x40 MLOAD PUSH1 0x20 ADD PUSH2 0x1541 SWAP2 SWAP1 PUSH2 0x200F JUMP JUMPDEST PUSH1 0x40 MLOAD PUSH1 0x20 DUP2 DUP4 SUB SUB DUP2 MSTORE SWAP1 PUSH1 0x40 MSTORE DUP2 MSTORE POP DUP2 PUSH0 DUP2 MLOAD DUP2 LT PUSH2 0x1566 JUMPI PUSH2 0x1565 PUSH2 0x28AF JUMP JUMPDEST JUMPDEST PUSH1 0x20 MUL PUSH1 0x20 ADD ADD DUP2 SWAP1 MSTORE POP PUSH1 0x40 MLOAD DUP1 PUSH1 0x60 ADD PUSH1 0x40 MSTORE DUP1 PUSH1 0x40 MLOAD DUP1 PUSH1 0x40 ADD PUSH1 0x40 MSTORE DUP1 PUSH1 0x6 DUP2 MSTORE PUSH1 0x20 ADD PUSH32 0x616D6F756E740000000000000000000000000000000000000000000000000000 DUP2 MSTORE POP DUP2 MSTORE PUSH1 0x20 ADD PUSH1 0x40 MLOAD DUP1 PUSH1 0x40 ADD PUSH1 0x40 MSTORE DUP1 PUSH1 0x7 DUP2 MSTORE PUSH1 0x20 ADD PUSH32 0x75696E7432353600000000000000000000000000000000000000000000000000 DUP2 MSTORE POP DUP2 MSTORE PUSH1 0x20 ADD DUP5 PUSH1 0x40 MLOAD PUSH1 0x20 ADD PUSH2 0x1603 SWAP2 SWAP1 PUSH2 0x2211 JUMP JUMPDEST PUSH1 0x40 MLOAD PUSH1 0x20 DUP2 DUP4 SUB SUB DUP2 MSTORE SWAP1 PUSH1 0x40 MSTORE DUP2 MSTORE POP DUP2 PUSH1 0x1 DUP2 MLOAD DUP2 LT PUSH2 0x1629 JUMPI PUSH2 0x1628 PUSH2 0x28AF JUMP JUMPDEST JUMPDEST PUSH1 0x20 MUL PUSH1 0x20 ADD ADD DUP2 SWAP1 MSTORE POP PUSH1 0x40 MLOAD DUP1 PUSH1 0x60 ADD PUSH1 0x40 MSTORE DUP1 PUSH1 0x40 MLOAD DUP1 PUSH1 0x40 ADD PUSH1 0x40 MSTORE DUP1 PUSH1 0x5 DUP2 MSTORE PUSH1 0x20 ADD PUSH32 0x746F6B656E000000000000000000000000000000000000000000000000000000 DUP2 MSTORE POP DUP2 MSTORE PUSH1 0x20 ADD PUSH1 0x40 MLOAD DUP1 PUSH1 0x40 ADD PUSH1 0x40 MSTORE DUP1 PUSH1 0x6 DUP2 MSTORE PUSH1 0x20 ADD PUSH32 0x737472696E670000000000000000000000000000000000000000000000000000 DUP2 MSTORE POP DUP2 MSTORE PUSH1 0x20 ADD DUP7 DUP7 PUSH1 0x40 MLOAD PUSH1 0x20 ADD PUSH2 0x16C8 SWAP3 SWAP2 SWAP1 PUSH2 0x2908 JUMP JUMPDEST PUSH1 0x40 MLOAD PUSH1 0x20 DUP2 DUP4 SUB SUB DUP2 MSTORE SWAP1 PUSH1 0x40 MSTORE DUP2 MSTORE POP DUP2 PUSH1 0x2 DUP2 MLOAD DUP2 LT PUSH2 0x16EE JUMPI PUSH2 0x16ED PUSH2 0x28AF JUMP JUMPDEST JUMPDEST PUSH1 0x20 MUL PUSH1 0x20 ADD ADD DUP2 SWAP1 MSTORE POP PUSH1 0x40 MLOAD DUP1 PUSH1 0x60 ADD PUSH1 0x40 MSTORE DUP1 PUSH1 0x40 MLOAD DUP1 PUSH1 0x40 ADD PUSH1 0x40 MSTORE DUP1 PUSH1 0x8 DUP2 MSTORE PUSH1 0x20 ADD PUSH32 0x70726F7669646572000000000000000000000000000000000000000000000000 DUP2 MSTORE POP DUP2 MSTORE PUSH1 0x20 ADD PUSH1 0x40 MLOAD DUP1 PUSH1 0x40 ADD PUSH1 0x40 MSTORE DUP1 PUSH1 0x6 DUP2 MSTORE PUSH1 0x20 ADD PUSH32 0x737472696E670000000000000000000000000000000000000000000000000000 DUP2 MSTORE POP DUP2 MSTORE PUSH1 0x20 ADD PUSH1 0x1 PUSH1 0x40 MLOAD PUSH1 0x20 ADD PUSH2 0x178C SWAP2 SWAP1 PUSH2 0x29AB JUMP JUMPDEST PUSH1 0x40 MLOAD PUSH1 0x20 DUP2 DUP4 SUB SUB DUP2 MSTORE SWAP1 PUSH1 0x40 MSTORE DUP2 MSTORE POP DUP2 PUSH1 0x3 DUP2 MLOAD DUP2 LT PUSH2 0x17B2 JUMPI PUSH2 0x17B1 PUSH2 0x28AF JUMP JUMPDEST JUMPDEST PUSH1 0x20 MUL PUSH1 0x20 ADD ADD DUP2 SWAP1 MSTORE POP PUSH1 0x40 MLOAD DUP1 PUSH1 0x60 ADD PUSH1 0x40 MSTORE DUP1 PUSH1 0x40 MLOAD DUP1 PUSH1 0x40 ADD PUSH1 0x40 MSTORE DUP1 PUSH1 0x9 DUP2 MSTORE PUSH1 0x20 ADD PUSH32 0x74696D657374616D700000000000000000000000000000000000000000000000 DUP2 MSTORE POP DUP2 MSTORE PUSH1 0x20 ADD PUSH1 0x40 MLOAD DUP1 PUSH1 0x40 ADD PUSH1 0x40 MSTORE DUP1 PUSH1 0x4 DUP2 MSTORE PUSH1 0x20 ADD PUSH32 0x7532353600000000000000000000000000000000000000000000000000000000 DUP2 MSTORE POP DUP2 MSTORE PUSH1 0x20 ADD TIMESTAMP PUSH1 0x40 MLOAD PUSH1 0x20 ADD PUSH2 0x184F SWAP2 SWAP1 PUSH2 0x2211 JUMP JUMPDEST PUSH1 0x40 MLOAD PUSH1 0x20 DUP2 DUP4 SUB SUB DUP2 MSTORE SWAP1 PUSH1 0x40 MSTORE DUP2 MSTORE POP DUP2 PUSH1 0x4 DUP2 MLOAD DUP2 LT PUSH2 0x1875 JUMPI PUSH2 0x1874 PUSH2 0x28AF JUMP JUMPDEST JUMPDEST PUSH1 0x20 MUL PUSH1 0x20 ADD ADD DUP2 SWAP1 MSTORE POP PUSH32 0x0 PUSH20 0xFFFFFFFFFFFFFFFFFFFFFFFFFFFFFFFFFFFFFFFF AND PUSH4 0x7D64FA9B DUP3 PUSH1 0x40 MLOAD DUP3 PUSH4 0xFFFFFFFF AND PUSH1 0xE0 SHL DUP2 MSTORE PUSH1 0x4 ADD PUSH2 0x18D9 SWAP2 SWAP1 PUSH2 0x2DC2 JUMP JUMPDEST PUSH0 PUSH1 0x40 MLOAD DUP1 DUP4 SUB DUP2 PUSH0 DUP8 DUP1 EXTCODESIZE ISZERO DUP1 ISZERO PUSH2 0x18F0 JUMPI PUSH0 PUSH0 REVERT JUMPDEST POP GAS CALL ISZERO DUP1 ISZERO PUSH2 0x1902 JUMPI RETURNDATASIZE PUSH0 PUSH0 RETURNDATACOPY RETURNDATASIZE PUSH0 REVERT JUMPDEST POP POP POP POP POP POP POP POP POP JUMP JUMPDEST PUSH32 0x0 DUP2 JUMP JUMPDEST PUSH32 0x0 DUP2 JUMP JUMPDEST PUSH0 PUSH2 0x19A2 DUP4 DUP4 DUP1 DUP1 PUSH1 0x1F ADD PUSH1 0x20 DUP1 SWAP2 DIV MUL PUSH1 0x20 ADD PUSH1 0x40 MLOAD SWAP1 DUP2 ADD PUSH1 0x40 MSTORE DUP1 SWAP4 SWAP3 SWAP2 SWAP1 DUP2 DUP2 MSTORE PUSH1 0x20 ADD DUP4 DUP4 DUP1 DUP3 DUP5 CALLDATACOPY PUSH0 DUP2 DUP5 ADD MSTORE PUSH1 0x1F NOT PUSH1 0x1F DUP3 ADD AND SWAP1 POP DUP1 DUP4 ADD SWAP3 POP POP POP POP POP POP POP PUSH2 0x2FA JUMP JUMPDEST SWAP1 POP PUSH1 0x1 PUSH1 0x2 PUSH0 DUP4 PUSH20 0xFFFFFFFFFFFFFFFFFFFFFFFFFFFFFFFFFFFFFFFF AND PUSH20 0xFFFFFFFFFFFFFFFFFFFFFFFFFFFFFFFFFFFFFFFF AND DUP2 MSTORE PUSH1 0x20 ADD SWAP1 DUP2 MSTORE PUSH1 0x20 ADD PUSH0 KECCAK256 PUSH0 PUSH2 0x100 EXP DUP2 SLOAD DUP2 PUSH1 0xFF MUL NOT AND SWAP1 DUP4 ISZERO ISZERO MUL OR SWAP1 SSTORE POP DUP1 PUSH20 0xFFFFFFFFFFFFFFFFFFFFFFFFFFFFFFFFFFFFFFFF AND PUSH32 0xD57B1148EFB91F418A2178FC1FB4BA12F9400A4DC8E71851FD59E85D337C609F PUSH1 0x1 PUSH1 0x40 MLOAD PUSH2 0x1A40 SWAP2 SWAP1 PUSH2 0x29AB JUMP JUMPDEST PUSH1 0x40 MLOAD DUP1 SWAP2 SUB SWAP1 LOG2 POP POP POP JUMP JUMPDEST PUSH2 0x1A55 PUSH2 0x1AD1 JUMP JUMPDEST PUSH0 PUSH20 0xFFFFFFFFFFFFFFFFFFFFFFFFFFFFFFFFFFFFFFFF AND DUP2 PUSH20 0xFFFFFFFFFFFFFFFFFFFFFFFFFFFFFFFFFFFFFFFF AND SUB PUSH2 0x1AC5 JUMPI PUSH0 PUSH1 0x40 MLOAD PUSH32 0x1E4FBDF700000000000000000000000000000000000000000000000000000000 DUP2 MSTORE PUSH1 0x4 ADD PUSH2 0x1ABC SWAP2 SWAP1 PUSH2 0x200F JUMP JUMPDEST PUSH1 0x40 MLOAD DUP1 SWAP2 SUB SWAP1 REVERT JUMPDEST PUSH2 0x1ACE DUP2 PUSH2 0x1B58 JUMP JUMPDEST POP JUMP JUMPDEST PUSH2 0x1AD9 PUSH2 0x1CC1 JUMP JUMPDEST PUSH20 0xFFFFFFFFFFFFFFFFFFFFFFFFFFFFFFFFFFFFFFFF AND PUSH2 0x1AF7 PUSH2 0x125B JUMP JUMPDEST PUSH20 0xFFFFFFFFFFFFFFFFFFFFFFFFFFFFFFFFFFFFFFFF AND EQ PUSH2 0x1B56 JUMPI PUSH2 0x1B1A PUSH2 0x1CC1 JUMP JUMPDEST PUSH1 0x40 MLOAD PUSH32 0x118CDAA700000000000000000000000000000000000000000000000000000000 DUP2 MSTORE PUSH1 0x4 ADD PUSH2 0x1B4D SWAP2 SWAP1 PUSH2 0x200F JUMP JUMPDEST PUSH1 0x40 MLOAD DUP1 SWAP2 SUB SWAP1 REVERT JUMPDEST JUMP JUMPDEST PUSH0 PUSH0 PUSH0 SWAP1 SLOAD SWAP1 PUSH2 0x100 EXP SWAP1 DIV PUSH20 0xFFFFFFFFFFFFFFFFFFFFFFFFFFFFFFFFFFFFFFFF AND SWAP1 POP DUP2 PUSH0 PUSH0 PUSH2 0x100 EXP DUP2 SLOAD DUP2 PUSH20 0xFFFFFFFFFFFFFFFFFFFFFFFFFFFFFFFFFFFFFFFF MUL NOT AND SWAP1 DUP4 PUSH20 0xFFFFFFFFFFFFFFFFFFFFFFFFFFFFFFFFFFFFFFFF AND MUL OR SWAP1 SSTORE POP DUP2 PUSH20 0xFFFFFFFFFFFFFFFFFFFFFFFFFFFFFFFFFFFFFFFF AND DUP2 PUSH20 0xFFFFFFFFFFFFFFFFFFFFFFFFFFFFFFFFFFFFFFFF AND PUSH32 0x8BE0079C531659141344CD1FD0A4F28419497F9722A3DAAFE3B4186F6B6457E0 PUSH1 0x40 MLOAD PUSH1 0x40 MLOAD DUP1 SWAP2 SUB SWAP1 LOG3 POP POP JUMP JUMPDEST PUSH2 0x1C26 DUP4 DUP4 DUP4 PUSH1 0x1 PUSH2 0x1CC8 JUMP JUMPDEST PUSH2 0x1C67 JUMPI DUP3 PUSH1 0x40 MLOAD PUSH32 0x5274AFE700000000000000000000000000000000000000000000000000000000 DUP2 MSTORE PUSH1 0x4 ADD PUSH2 0x1C5E SWAP2 SWAP1 PUSH2 0x200F JUMP JUMPDEST PUSH1 0x40 MLOAD DUP1 SWAP2 SUB SWAP1 REVERT JUMPDEST POP POP POP JUMP JUMPDEST PUSH2 0x1C7A DUP5 DUP5 DUP5 DUP5 PUSH1 0x1 PUSH2 0x1D2A JUMP JUMPDEST PUSH2 0x1CBB JUMPI DUP4 PUSH1 0x40 MLOAD PUSH32 0x5274AFE700000000000000000000000000000000000000000000000000000000 DUP2 MSTORE PUSH1 0x4 ADD PUSH2 0x1CB2 SWAP2 SWAP1 PUSH2 0x200F JUMP JUMPDEST PUSH1 0x40 MLOAD DUP1 SWAP2 SUB SWAP1 REVERT JUMPDEST POP POP POP POP JUMP JUMPDEST PUSH0 CALLER SWAP1 POP SWAP1 JUMP JUMPDEST PUSH0 PUSH0 PUSH4 0xA9059CBB PUSH1 0xE0 SHL SWAP1 POP PUSH1 0x40 MLOAD DUP2 PUSH0 MSTORE PUSH0 NOT PUSH1 0x60 SHR DUP7 AND PUSH1 0x4 MSTORE DUP5 PUSH1 0x24 MSTORE PUSH1 0x20 PUSH0 PUSH1 0x44 PUSH0 PUSH0 DUP12 GAS CALL SWAP3 POP PUSH1 0x1 PUSH0 MLOAD EQ DUP4 AND PUSH2 0x1D1C JUMPI DUP4 DUP4 ISZERO AND ISZERO PUSH2 0x1D10 JUMPI RETURNDATASIZE PUSH0 DUP3 RETURNDATACOPY RETURNDATASIZE DUP2 REVERT JUMPDEST PUSH0 DUP8 EXTCODESIZE GT RETURNDATASIZE ISZERO AND DUP4 AND SWAP3 POP JUMPDEST DUP1 PUSH1 0x40 MSTORE POP POP SWAP5 SWAP4 POP POP POP POP JUMP JUMPDEST PUSH0 PUSH0 PUSH4 0x23B872DD PUSH1 0xE0 SHL SWAP1 POP PUSH1 0x40 MLOAD DUP2 PUSH0 MSTORE PUSH0 NOT PUSH1 0x60 SHR DUP8 AND PUSH1 0x4 MSTORE PUSH0 NOT PUSH1 0x60 SHR DUP7 AND PUSH1 0x24 MSTORE DUP5 PUSH1 0x44 MSTORE PUSH1 0x20 PUSH0 PUSH1 0x64 PUSH0 PUSH0 DUP13 GAS CALL SWAP3 POP PUSH1 0x1 PUSH0 MLOAD EQ DUP4 AND PUSH2 0x1D88 JUMPI DUP4 DUP4 ISZERO AND ISZERO PUSH2 0x1D7C JUMPI RETURNDATASIZE PUSH0 DUP3 RETURNDATACOPY RETURNDATASIZE DUP2 REVERT JUMPDEST PUSH0 DUP9 EXTCODESIZE GT RETURNDATASIZE ISZERO AND DUP4 AND SWAP3 POP JUMPDEST DUP1 PUSH1 0x40 MSTORE PUSH0 PUSH1 0x60 MSTORE POP POP SWAP6 SWAP5 POP POP POP POP POP JUMP JUMPDEST PUSH1 0x40 MLOAD DUP1 PUSH1 0x60 ADD PUSH1 0x40 MSTORE DUP1 PUSH1 0x60 DUP2 MSTORE PUSH1 0x20 ADD PUSH1 0x60 DUP2 MSTORE PUSH1 0x20 ADD PUSH1 0x60 DUP2 MSTORE POP SWAP1 JUMP JUMPDEST PUSH0 DUP2 MLOAD SWAP1 POP SWAP2 SWAP1 POP JUMP JUMPDEST PUSH0 DUP3 DUP3 MSTORE PUSH1 0x20 DUP3 ADD SWAP1 POP SWAP3 SWAP2 POP POP JUMP JUMPDEST DUP3 DUP2 DUP4 MCOPY PUSH0 DUP4 DUP4 ADD MSTORE POP POP POP JUMP JUMPDEST PUSH0 PUSH1 0x1F NOT PUSH1 0x1F DUP4 ADD AND SWAP1 POP SWAP2 SWAP1 POP JUMP JUMPDEST PUSH0 PUSH2 0x1DFE DUP3 PUSH2 0x1DBC JUMP JUMPDEST PUSH2 0x1E08 DUP2 DUP6 PUSH2 0x1DC6 JUMP JUMPDEST SWAP4 POP PUSH2 0x1E18 DUP2 DUP6 PUSH1 0x20 DUP7 ADD PUSH2 0x1DD6 JUMP JUMPDEST PUSH2 0x1E21 DUP2 PUSH2 0x1DE4 JUMP JUMPDEST DUP5 ADD SWAP2 POP POP SWAP3 SWAP2 POP POP JUMP JUMPDEST PUSH0 PUSH1 0x20 DUP3 ADD SWAP1 POP DUP2 DUP2 SUB PUSH0 DUP4 ADD MSTORE PUSH2 0x1E44 DUP2 DUP5 PUSH2 0x1DF4 JUMP JUMPDEST SWAP1 POP SWAP3 SWAP2 POP POP JUMP JUMPDEST PUSH0 PUSH1 0x40 MLOAD SWAP1 POP SWAP1 JUMP JUMPDEST PUSH0 PUSH0 REVERT JUMPDEST PUSH0 PUSH0 REVERT JUMPDEST PUSH0 PUSH0 REVERT JUMPDEST PUSH0 PUSH0 REVERT JUMPDEST PUSH32 0x4E487B7100000000000000000000000000000000000000000000000000000000 PUSH0 MSTORE PUSH1 0x41 PUSH1 0x4 MSTORE PUSH1 0x24 PUSH0 REVERT JUMPDEST PUSH2 0x1E9B DUP3 PUSH2 0x1DE4 JUMP JUMPDEST DUP2 ADD DUP2 DUP2 LT PUSH8 0xFFFFFFFFFFFFFFFF DUP3 GT OR ISZERO PUSH2 0x1EBA JUMPI PUSH2 0x1EB9 PUSH2 0x1E65 JUMP JUMPDEST JUMPDEST DUP1 PUSH1 0x40 MSTORE POP POP POP JUMP JUMPDEST PUSH0 PUSH2 0x1ECC PUSH2 0x1E4C JUMP JUMPDEST SWAP1 POP PUSH2 0x1ED8 DUP3 DUP3 PUSH2 0x1E92 JUMP JUMPDEST SWAP2 SWAP1 POP JUMP JUMPDEST PUSH0 PUSH8 0xFFFFFFFFFFFFFFFF DUP3 GT ISZERO PUSH2 0x1EF7 JUMPI PUSH2 0x1EF6 PUSH2 0x1E65 JUMP JUMPDEST JUMPDEST PUSH2 0x1F00 DUP3 PUSH2 0x1DE4 JUMP JUMPDEST SWAP1 POP PUSH1 0x20 DUP2 ADD SWAP1 POP SWAP2 SWAP1 POP JUMP JUMPDEST DUP3 DUP2 DUP4 CALLDATACOPY PUSH0 DUP4 DUP4 ADD MSTORE POP POP POP JUMP JUMPDEST PUSH0 PUSH2 0x1F2D PUSH2 0x1F28 DUP5 PUSH2 0x1EDD JUMP JUMPDEST PUSH2 0x1EC3 JUMP JUMPDEST SWAP1 POP DUP3 DUP2 MSTORE PUSH1 0x20 DUP2 ADD DUP5 DUP5 DUP5 ADD GT ISZERO PUSH2 0x1F49 JUMPI PUSH2 0x1F48 PUSH2 0x1E61 JUMP JUMPDEST JUMPDEST PUSH2 0x1F54 DUP5 DUP3 DUP6 PUSH2 0x1F0D JUMP JUMPDEST POP SWAP4 SWAP3 POP POP POP JUMP JUMPDEST PUSH0 DUP3 PUSH1 0x1F DUP4 ADD SLT PUSH2 0x1F70 JUMPI PUSH2 0x1F6F PUSH2 0x1E5D JUMP JUMPDEST JUMPDEST DUP2 CALLDATALOAD PUSH2 0x1F80 DUP5 DUP3 PUSH1 0x20 DUP7 ADD PUSH2 0x1F1B JUMP JUMPDEST SWAP2 POP POP SWAP3 SWAP2 POP POP JUMP JUMPDEST PUSH0 PUSH1 0x20 DUP3 DUP5 SUB SLT ISZERO PUSH2 0x1F9E JUMPI PUSH2 0x1F9D PUSH2 0x1E55 JUMP JUMPDEST JUMPDEST PUSH0 DUP3 ADD CALLDATALOAD PUSH8 0xFFFFFFFFFFFFFFFF DUP2 GT ISZERO PUSH2 0x1FBB JUMPI PUSH2 0x1FBA PUSH2 0x1E59 JUMP JUMPDEST JUMPDEST PUSH2 0x1FC7 DUP5 DUP3 DUP6 ADD PUSH2 0x1F5C JUMP JUMPDEST SWAP2 POP POP SWAP3 SWAP2 POP POP JUMP JUMPDEST PUSH0 PUSH20 0xFFFFFFFFFFFFFFFFFFFFFFFFFFFFFFFFFFFFFFFF DUP3 AND SWAP1 POP SWAP2 SWAP1 POP JUMP JUMPDEST PUSH0 PUSH2 0x1FF9 DUP3 PUSH2 0x1FD0 JUMP JUMPDEST SWAP1 POP SWAP2 SWAP1 POP JUMP JUMPDEST PUSH2 0x2009 DUP2 PUSH2 0x1FEF JUMP JUMPDEST DUP3 MSTORE POP POP JUMP JUMPDEST PUSH0 PUSH1 0x20 DUP3 ADD SWAP1 POP PUSH2 0x2022 PUSH0 DUP4 ADD DUP5 PUSH2 0x2000 JUMP JUMPDEST SWAP3 SWAP2 POP POP JUMP JUMPDEST PUSH2 0x2031 DUP2 PUSH2 0x1FEF JUMP JUMPDEST DUP2 EQ PUSH2 0x203B JUMPI PUSH0 PUSH0 REVERT JUMPDEST POP JUMP JUMPDEST PUSH0 DUP2 CALLDATALOAD SWAP1 POP PUSH2 0x204C DUP2 PUSH2 0x2028 JUMP JUMPDEST SWAP3 SWAP2 POP POP JUMP JUMPDEST PUSH0 PUSH1 0x20 DUP3 DUP5 SUB SLT ISZERO PUSH2 0x2067 JUMPI PUSH2 0x2066 PUSH2 0x1E55 JUMP JUMPDEST JUMPDEST PUSH0 PUSH2 0x2074 DUP5 DUP3 DUP6 ADD PUSH2 0x203E JUMP JUMPDEST SWAP2 POP POP SWAP3 SWAP2 POP POP JUMP JUMPDEST PUSH0 DUP2 ISZERO ISZERO SWAP1 POP SWAP2 SWAP1 POP JUMP JUMPDEST PUSH2 0x2091 DUP2 PUSH2 0x207D JUMP JUMPDEST DUP3 MSTORE POP POP JUMP JUMPDEST PUSH0 PUSH1 0x20 DUP3 ADD SWAP1 POP PUSH2 0x20AA PUSH0 DUP4 ADD DUP5 PUSH2 0x2088 JUMP JUMPDEST SWAP3 SWAP2 POP POP JUMP JUMPDEST PUSH0 PUSH0 REVERT JUMPDEST PUSH0 PUSH0 REVERT JUMPDEST PUSH0 PUSH0 DUP4 PUSH1 0x1F DUP5 ADD SLT PUSH2 0x20CD JUMPI PUSH2 0x20CC PUSH2 0x1E5D JUMP JUMPDEST JUMPDEST DUP3 CALLDATALOAD SWAP1 POP PUSH8 0xFFFFFFFFFFFFFFFF DUP2 GT ISZERO PUSH2 0x20EA JUMPI PUSH2 0x20E9 PUSH2 0x20B0 JUMP JUMPDEST JUMPDEST PUSH1 0x20 DUP4 ADD SWAP2 POP DUP4 PUSH1 0x1 DUP3 MUL DUP4 ADD GT ISZERO PUSH2 0x2106 JUMPI PUSH2 0x2105 PUSH2 0x20B4 JUMP JUMPDEST JUMPDEST SWAP3 POP SWAP3 SWAP1 POP JUMP JUMPDEST PUSH0 DUP2 SWAP1 POP SWAP2 SWAP1 POP JUMP JUMPDEST PUSH2 0x211F DUP2 PUSH2 0x210D JUMP JUMPDEST DUP2 EQ PUSH2 0x2129 JUMPI PUSH0 PUSH0 REVERT JUMPDEST POP JUMP JUMPDEST PUSH0 DUP2 CALLDATALOAD SWAP1 POP PUSH2 0x213A DUP2 PUSH2 0x2116 JUMP JUMPDEST SWAP3 SWAP2 POP POP JUMP JUMPDEST PUSH0 PUSH0 PUSH0 PUSH0 PUSH0 PUSH1 0x80 DUP7 DUP9 SUB SLT ISZERO PUSH2 0x2159 JUMPI PUSH2 0x2158 PUSH2 0x1E55 JUMP JUMPDEST JUMPDEST PUSH0 PUSH2 0x2166 DUP9 DUP3 DUP10 ADD PUSH2 0x203E JUMP JUMPDEST SWAP6 POP POP PUSH1 0x20 DUP7 ADD CALLDATALOAD PUSH8 0xFFFFFFFFFFFFFFFF DUP2 GT ISZERO PUSH2 0x2187 JUMPI PUSH2 0x2186 PUSH2 0x1E59 JUMP JUMPDEST JUMPDEST PUSH2 0x2193 DUP9 DUP3 DUP10 ADD PUSH2 0x20B8 JUMP JUMPDEST SWAP5 POP SWAP5 POP POP PUSH1 0x40 PUSH2 0x21A6 DUP9 DUP3 DUP10 ADD PUSH2 0x212C JUMP JUMPDEST SWAP3 POP POP PUSH1 0x60 PUSH2 0x21B7 DUP9 DUP3 DUP10 ADD PUSH2 0x212C JUMP JUMPDEST SWAP2 POP POP SWAP3 SWAP6 POP SWAP3 SWAP6 SWAP1 SWAP4 POP JUMP JUMPDEST PUSH0 PUSH0 PUSH1 0x40 DUP4 DUP6 SUB SLT ISZERO PUSH2 0x21DA JUMPI PUSH2 0x21D9 PUSH2 0x1E55 JUMP JUMPDEST JUMPDEST PUSH0 PUSH2 0x21E7 DUP6 DUP3 DUP7 ADD PUSH2 0x203E JUMP JUMPDEST SWAP3 POP POP PUSH1 0x20 PUSH2 0x21F8 DUP6 DUP3 DUP7 ADD PUSH2 0x203E JUMP JUMPDEST SWAP2 POP POP SWAP3 POP SWAP3 SWAP1 POP JUMP JUMPDEST PUSH2 0x220B DUP2 PUSH2 0x210D JUMP JUMPDEST DUP3 MSTORE POP POP JUMP JUMPDEST PUSH0 PUSH1 0x20 DUP3 ADD SWAP1 POP PUSH2 0x2224 PUSH0 DUP4 ADD DUP5 PUSH2 0x2202 JUMP JUMPDEST SWAP3 SWAP2 POP POP JUMP JUMPDEST PUSH0 PUSH0 PUSH0 PUSH0 PUSH1 0x60 DUP6 DUP8 SUB SLT ISZERO PUSH2 0x2242 JUMPI PUSH2 0x2241 PUSH2 0x1E55 JUMP JUMPDEST JUMPDEST PUSH0 DUP6 ADD CALLDATALOAD PUSH8 0xFFFFFFFFFFFFFFFF DUP2 GT ISZERO PUSH2 0x225F JUMPI PUSH2 0x225E PUSH2 0x1E59 JUMP JUMPDEST JUMPDEST PUSH2 0x226B DUP8 DUP3 DUP9 ADD PUSH2 0x20B8 JUMP JUMPDEST SWAP5 POP SWAP5 POP POP PUSH1 0x20 PUSH2 0x227E DUP8 DUP3 DUP9 ADD PUSH2 0x212C JUMP JUMPDEST SWAP3 POP POP PUSH1 0x40 PUSH2 0x228F DUP8 DUP3 DUP9 ADD PUSH2 0x203E JUMP JUMPDEST SWAP2 POP POP SWAP3 SWAP6 SWAP2 SWAP5 POP SWAP3 POP JUMP JUMPDEST PUSH0 PUSH0 PUSH0 PUSH1 0x40 DUP5 DUP7 SUB SLT ISZERO PUSH2 0x22B2 JUMPI PUSH2 0x22B1 PUSH2 0x1E55 JUMP JUMPDEST JUMPDEST PUSH0 DUP5 ADD CALLDATALOAD PUSH8 0xFFFFFFFFFFFFFFFF DUP2 GT ISZERO PUSH2 0x22CF JUMPI PUSH2 0x22CE PUSH2 0x1E59 JUMP JUMPDEST JUMPDEST PUSH2 0x22DB DUP7 DUP3 DUP8 ADD PUSH2 0x20B8 JUMP JUMPDEST SWAP4 POP SWAP4 POP POP PUSH1 0x20 PUSH2 0x22EE DUP7 DUP3 DUP8 ADD PUSH2 0x212C JUMP JUMPDEST SWAP2 POP POP SWAP3 POP SWAP3 POP SWAP3 JUMP JUMPDEST PUSH0 DUP2 SWAP1 POP SWAP2 SWAP1 POP JUMP JUMPDEST PUSH0 PUSH2 0x231B PUSH2 0x2316 PUSH2 0x2311 DUP5 PUSH2 0x1FD0 JUMP JUMPDEST PUSH2 0x22F8 JUMP JUMPDEST PUSH2 0x1FD0 JUMP JUMPDEST SWAP1 POP SWAP2 SWAP1 POP JUMP JUMPDEST PUSH0 PUSH2 0x232C DUP3 PUSH2 0x2301 JUMP JUMPDEST SWAP1 POP SWAP2 SWAP1 POP JUMP JUMPDEST PUSH0 PUSH2 0x233D DUP3 PUSH2 0x2322 JUMP JUMPDEST SWAP1 POP SWAP2 SWAP1 POP JUMP JUMPDEST PUSH2 0x234D DUP2 PUSH2 0x2333 JUMP JUMPDEST DUP3 MSTORE POP POP JUMP JUMPDEST PUSH0 PUSH1 0x20 DUP3 ADD SWAP1 POP PUSH2 0x2366 PUSH0 DUP4 ADD DUP5 PUSH2 0x2344 JUMP JUMPDEST SWAP3 SWAP2 POP POP JUMP JUMPDEST PUSH0 PUSH2 0x2376 DUP3 PUSH2 0x2322 JUMP JUMPDEST SWAP1 POP SWAP2 SWAP1 POP JUMP JUMPDEST PUSH2 0x2386 DUP2 PUSH2 0x236C JUMP JUMPDEST DUP3 MSTORE POP POP JUMP JUMPDEST PUSH0 PUSH1 0x20 DUP3 ADD SWAP1 POP PUSH2 0x239F PUSH0 DUP4 ADD DUP5 PUSH2 0x237D JUMP JUMPDEST SWAP3 SWAP2 POP POP JUMP JUMPDEST PUSH0 PUSH0 PUSH1 0x20 DUP4 DUP6 SUB SLT ISZERO PUSH2 0x23BB JUMPI PUSH2 0x23BA PUSH2 0x1E55 JUMP JUMPDEST JUMPDEST PUSH0 DUP4 ADD CALLDATALOAD PUSH8 0xFFFFFFFFFFFFFFFF DUP2 GT ISZERO PUSH2 0x23D8 JUMPI PUSH2 0x23D7 PUSH2 0x1E59 JUMP JUMPDEST JUMPDEST PUSH2 0x23E4 DUP6 DUP3 DUP7 ADD PUSH2 0x20B8 JUMP JUMPDEST SWAP3 POP SWAP3 POP POP SWAP3 POP SWAP3 SWAP1 POP JUMP JUMPDEST PUSH32 0x4E487B7100000000000000000000000000000000000000000000000000000000 PUSH0 MSTORE PUSH1 0x22 PUSH1 0x4 MSTORE PUSH1 0x24 PUSH0 REVERT JUMPDEST PUSH0 PUSH1 0x2 DUP3 DIV SWAP1 POP PUSH1 0x1 DUP3 AND DUP1 PUSH2 0x2434 JUMPI PUSH1 0x7F DUP3 AND SWAP2 POP JUMPDEST PUSH1 0x20 DUP3 LT DUP2 SUB PUSH2 0x2447 JUMPI PUSH2 0x2446 PUSH2 0x23F0 JUMP JUMPDEST JUMPDEST POP SWAP2 SWAP1 POP JUMP JUMPDEST PUSH0 DUP2 SWAP1 POP SWAP3 SWAP2 POP POP JUMP JUMPDEST PUSH0 PUSH2 0x2461 DUP3 PUSH2 0x1DBC JUMP JUMPDEST PUSH2 0x246B DUP2 DUP6 PUSH2 0x244D JUMP JUMPDEST SWAP4 POP PUSH2 0x247B DUP2 DUP6 PUSH1 0x20 DUP7 ADD PUSH2 0x1DD6 JUMP JUMPDEST DUP1 DUP5 ADD SWAP2 POP POP SWAP3 SWAP2 POP POP JUMP JUMPDEST PUSH32 0x5F00000000000000000000000000000000000000000000000000000000000000 PUSH0 DUP3 ADD MSTORE POP JUMP JUMPDEST PUSH0 PUSH2 0x24BB PUSH1 0x1 DUP4 PUSH2 0x244D JUMP JUMPDEST SWAP2 POP PUSH2 0x24C6 DUP3 PUSH2 0x2487 JUMP JUMPDEST PUSH1 0x1 DUP3 ADD SWAP1 POP SWAP2 SWAP1 POP JUMP JUMPDEST PUSH0 DUP2 SWAP1 POP DUP2 PUSH0 MSTORE PUSH1 0x20 PUSH0 KECCAK256 SWAP1 POP SWAP2 SWAP1 POP JUMP JUMPDEST PUSH0 DUP2 SLOAD PUSH2 0x24EF DUP2 PUSH2 0x241D JUMP JUMPDEST PUSH2 0x24F9 DUP2 DUP7 PUSH2 0x244D JUMP JUMPDEST SWAP5 POP PUSH1 0x1 DUP3 AND PUSH0 DUP2 EQ PUSH2 0x2513 JUMPI PUSH1 0x1 DUP2 EQ PUSH2 0x2528 JUMPI PUSH2 0x255A JUMP JUMPDEST PUSH1 0xFF NOT DUP4 AND DUP7 MSTORE DUP2 ISZERO ISZERO DUP3 MUL DUP7 ADD SWAP4 POP PUSH2 0x255A JUMP JUMPDEST PUSH2 0x2531 DUP6 PUSH2 0x24D1 JUMP JUMPDEST PUSH0 JUMPDEST DUP4 DUP2 LT ISZERO PUSH2 0x2552 JUMPI DUP2 SLOAD DUP2 DUP10 ADD MSTORE PUSH1 0x1 DUP3 ADD SWAP2 POP PUSH1 0x20 DUP2 ADD SWAP1 POP PUSH2 0x2533 JUMP JUMPDEST DUP4 DUP9 ADD SWAP6 POP POP POP JUMPDEST POP POP POP SWAP3 SWAP2 POP POP JUMP JUMPDEST PUSH0 PUSH2 0x256E DUP3 DUP6 PUSH2 0x2457 JUMP JUMPDEST SWAP2 POP PUSH2 0x2579 DUP3 PUSH2 0x24AF JUMP JUMPDEST SWAP2 POP PUSH2 0x2585 DUP3 DUP5 PUSH2 0x24E3 JUMP JUMPDEST SWAP2 POP DUP2 SWAP1 POP SWAP4 SWAP3 POP POP POP JUMP JUMPDEST PUSH32 0x51696172614D6F6E616441737365747300000000000000000000000000000000 PUSH0 DUP3 ADD MSTORE POP JUMP JUMPDEST PUSH0 PUSH2 0x25C5 PUSH1 0x10 DUP4 PUSH2 0x1DC6 JUMP JUMPDEST SWAP2 POP PUSH2 0x25D0 DUP3 PUSH2 0x2591 JUMP JUMPDEST PUSH1 0x20 DUP3 ADD SWAP1 POP SWAP2 SWAP1 POP JUMP JUMPDEST PUSH0 PUSH1 0x40 DUP3 ADD SWAP1 POP DUP2 DUP2 SUB PUSH0 DUP4 ADD MSTORE PUSH2 0x25F2 DUP2 PUSH2 0x25B9 JUMP JUMPDEST SWAP1 POP DUP2 DUP2 SUB PUSH1 0x20 DUP4 ADD MSTORE PUSH2 0x2606 DUP2 DUP5 PUSH2 0x1DF4 JUMP JUMPDEST SWAP1 POP SWAP3 SWAP2 POP POP JUMP JUMPDEST PUSH0 PUSH8 0xFFFFFFFFFFFFFFFF DUP3 GT ISZERO PUSH2 0x2628 JUMPI PUSH2 0x2627 PUSH2 0x1E65 JUMP JUMPDEST JUMPDEST PUSH2 0x2631 DUP3 PUSH2 0x1DE4 JUMP JUMPDEST SWAP1 POP PUSH1 0x20 DUP2 ADD SWAP1 POP SWAP2 SWAP1 POP JUMP JUMPDEST PUSH0 PUSH2 0x2650 PUSH2 0x264B DUP5 PUSH2 0x260E JUMP JUMPDEST PUSH2 0x1EC3 JUMP JUMPDEST SWAP1 POP DUP3 DUP2 MSTORE PUSH1 0x20 DUP2 ADD DUP5 DUP5 DUP5 ADD GT ISZERO PUSH2 0x266C JUMPI PUSH2 0x266B PUSH2 0x1E61 JUMP JUMPDEST JUMPDEST PUSH2 0x2677 DUP5 DUP3 DUP6 PUSH2 0x1DD6 JUMP JUMPDEST POP SWAP4 SWAP3 POP POP POP JUMP JUMPDEST PUSH0 DUP3 PUSH1 0x1F DUP4 ADD SLT PUSH2 0x2693 JUMPI PUSH2 0x2692 PUSH2 0x1E5D JUMP JUMPDEST JUMPDEST DUP2 MLOAD PUSH2 0x26A3 DUP5 DUP3 PUSH1 0x20 DUP7 ADD PUSH2 0x263E JUMP JUMPDEST SWAP2 POP POP SWAP3 SWAP2 POP POP JUMP JUMPDEST PUSH0 PUSH1 0x20 DUP3 DUP5 SUB SLT ISZERO PUSH2 0x26C1 JUMPI PUSH2 0x26C0 PUSH2 0x1E55 JUMP JUMPDEST JUMPDEST PUSH0 DUP3 ADD MLOAD PUSH8 0xFFFFFFFFFFFFFFFF DUP2 GT ISZERO PUSH2 0x26DE JUMPI PUSH2 0x26DD PUSH2 0x1E59 JUMP JUMPDEST JUMPDEST PUSH2 0x26EA DUP5 DUP3 DUP6 ADD PUSH2 0x267F JUMP JUMPDEST SWAP2 POP POP SWAP3 SWAP2 POP POP JUMP JUMPDEST PUSH32 0x5661756C743A204173736574206E6F7420666F756E6420696E20726567697374 PUSH0 DUP3 ADD MSTORE PUSH32 0x7279000000000000000000000000000000000000000000000000000000000000 PUSH1 0x20 DUP3 ADD MSTORE POP JUMP JUMPDEST PUSH0 PUSH2 0x274D PUSH1 0x22 DUP4 PUSH2 0x1DC6 JUMP JUMPDEST SWAP2 POP PUSH2 0x2758 DUP3 PUSH2 0x26F3 JUMP JUMPDEST PUSH1 0x40 DUP3 ADD SWAP1 POP SWAP2 SWAP1 POP JUMP JUMPDEST PUSH0 PUSH1 0x20 DUP3 ADD SWAP1 POP DUP2 DUP2 SUB PUSH0 DUP4 ADD MSTORE PUSH2 0x277A DUP2 PUSH2 0x2741 JUMP JUMPDEST SWAP1 POP SWAP2 SWAP1 POP JUMP JUMPDEST PUSH0 PUSH2 0x278B DUP3 PUSH2 0x1FD0 JUMP JUMPDEST SWAP1 POP SWAP2 SWAP1 POP JUMP JUMPDEST PUSH2 0x279B DUP2 PUSH2 0x2781 JUMP JUMPDEST DUP2 EQ PUSH2 0x27A5 JUMPI PUSH0 PUSH0 REVERT JUMPDEST POP JUMP JUMPDEST PUSH0 DUP2 MLOAD SWAP1 POP PUSH2 0x27B6 DUP2 PUSH2 0x2792 JUMP JUMPDEST SWAP3 SWAP2 POP POP JUMP JUMPDEST PUSH0 PUSH1 0x20 DUP3 DUP5 SUB SLT ISZERO PUSH2 0x27D1 JUMPI PUSH2 0x27D0 PUSH2 0x1E55 JUMP JUMPDEST JUMPDEST PUSH0 PUSH2 0x27DE DUP5 DUP3 DUP6 ADD PUSH2 0x27A8 JUMP JUMPDEST SWAP2 POP POP SWAP3 SWAP2 POP POP JUMP JUMPDEST PUSH32 0x5661756C743A20546F6B656E206E6F7420737570706F72746564000000000000 PUSH0 DUP3 ADD MSTORE POP JUMP JUMPDEST PUSH0 PUSH2 0x281B PUSH1 0x1A DUP4 PUSH2 0x1DC6 JUMP JUMPDEST SWAP2 POP PUSH2 0x2826 DUP3 PUSH2 0x27E7 JUMP JUMPDEST PUSH1 0x20 DUP3 ADD SWAP1 POP SWAP2 SWAP1 POP JUMP JUMPDEST PUSH0 PUSH1 0x20 DUP3 ADD SWAP1 POP DUP2 DUP2 SUB PUSH0 DUP4 ADD MSTORE PUSH2 0x2848 DUP2 PUSH2 0x280F JUMP JUMPDEST SWAP1 POP SWAP2 SWAP1 POP JUMP JUMPDEST PUSH32 0x4E487B7100000000000000000000000000000000000000000000000000000000 PUSH0 MSTORE PUSH1 0x11 PUSH1 0x4 MSTORE PUSH1 0x24 PUSH0 REVERT JUMPDEST PUSH0 PUSH2 0x2886 DUP3 PUSH2 0x210D JUMP JUMPDEST SWAP2 POP PUSH2 0x2891 DUP4 PUSH2 0x210D JUMP JUMPDEST SWAP3 POP DUP3 DUP3 ADD SWAP1 POP DUP1 DUP3 GT ISZERO PUSH2 0x28A9 JUMPI PUSH2 0x28A8 PUSH2 0x284F JUMP JUMPDEST JUMPDEST SWAP3 SWAP2 POP POP JUMP JUMPDEST PUSH32 0x4E487B7100000000000000000000000000000000000000000000000000000000 PUSH0 MSTORE PUSH1 0x32 PUSH1 0x4 MSTORE PUSH1 0x24 PUSH0 REVERT JUMPDEST PUSH0 PUSH2 0x28E7 DUP4 DUP6 PUSH2 0x1DC6 JUMP JUMPDEST SWAP4 POP PUSH2 0x28F4 DUP4 DUP6 DUP5 PUSH2 0x1F0D JUMP JUMPDEST PUSH2 0x28FD DUP4 PUSH2 0x1DE4 JUMP JUMPDEST DUP5 ADD SWAP1 POP SWAP4 SWAP3 POP POP POP JUMP JUMPDEST PUSH0 PUSH1 0x20 DUP3 ADD SWAP1 POP DUP2 DUP2 SUB PUSH0 DUP4 ADD MSTORE PUSH2 0x2921 DUP2 DUP5 DUP7 PUSH2 0x28DC JUMP JUMPDEST SWAP1 POP SWAP4 SWAP3 POP POP POP JUMP JUMPDEST PUSH0 DUP2 SLOAD PUSH2 0x2936 DUP2 PUSH2 0x241D JUMP JUMPDEST PUSH2 0x2940 DUP2 DUP7 PUSH2 0x1DC6 JUMP JUMPDEST SWAP5 POP PUSH1 0x1 DUP3 AND PUSH0 DUP2 EQ PUSH2 0x295A JUMPI PUSH1 0x1 DUP2 EQ PUSH2 0x2970 JUMPI PUSH2 0x29A2 JUMP JUMPDEST PUSH1 0xFF NOT DUP4 AND DUP7 MSTORE DUP2 ISZERO ISZERO PUSH1 0x20 MUL DUP7 ADD SWAP4 POP PUSH2 0x29A2 JUMP JUMPDEST PUSH2 0x2979 DUP6 PUSH2 0x24D1 JUMP JUMPDEST PUSH0 JUMPDEST DUP4 DUP2 LT ISZERO PUSH2 0x299A JUMPI DUP2 SLOAD DUP2 DUP10 ADD MSTORE PUSH1 0x1 DUP3 ADD SWAP2 POP PUSH1 0x20 DUP2 ADD SWAP1 POP PUSH2 0x297B JUMP JUMPDEST DUP1 DUP9 ADD SWAP6 POP POP POP JUMPDEST POP POP POP SWAP3 SWAP2 POP POP JUMP JUMPDEST PUSH0 PUSH1 0x20 DUP3 ADD SWAP1 POP DUP2 DUP2 SUB PUSH0 DUP4 ADD MSTORE PUSH2 0x29C3 DUP2 DUP5 PUSH2 0x292A JUMP JUMPDEST SWAP1 POP SWAP3 SWAP2 POP POP JUMP JUMPDEST PUSH32 0x4772616E74205769746864726177205065726D697373696F6E00000000000000 PUSH0 DUP3 ADD MSTORE POP JUMP JUMPDEST PUSH0 PUSH2 0x29FF PUSH1 0x19 DUP4 PUSH2 0x1DC6 JUMP JUMPDEST SWAP2 POP PUSH2 0x2A0A DUP3 PUSH2 0x29CB JUMP JUMPDEST PUSH1 0x20 DUP3 ADD SWAP1 POP SWAP2 SWAP1 POP JUMP JUMPDEST PUSH0 DUP2 MLOAD SWAP1 POP SWAP2 SWAP1 POP JUMP JUMPDEST PUSH0 DUP3 DUP3 MSTORE PUSH1 0x20 DUP3 ADD SWAP1 POP SWAP3 SWAP2 POP POP JUMP JUMPDEST PUSH0 DUP2 SWAP1 POP PUSH1 0x20 DUP3 ADD SWAP1 POP SWAP2 SWAP1 POP JUMP JUMPDEST PUSH0 DUP3 DUP3 MSTORE PUSH1 0x20 DUP3 ADD SWAP1 POP SWAP3 SWAP2 POP POP JUMP JUMPDEST PUSH0 PUSH2 0x2A58 DUP3 PUSH2 0x1DBC JUMP JUMPDEST PUSH2 0x2A62 DUP2 DUP6 PUSH2 0x2A3E JUMP JUMPDEST SWAP4 POP PUSH2 0x2A72 DUP2 DUP6 PUSH1 0x20 DUP7 ADD PUSH2 0x1DD6 JUMP JUMPDEST PUSH2 0x2A7B DUP2 PUSH2 0x1DE4 JUMP JUMPDEST DUP5 ADD SWAP2 POP POP SWAP3 SWAP2 POP POP JUMP JUMPDEST PUSH0 DUP2 MLOAD SWAP1 POP SWAP2 SWAP1 POP JUMP JUMPDEST PUSH0 DUP3 DUP3 MSTORE PUSH1 0x20 DUP3 ADD SWAP1 POP SWAP3 SWAP2 POP POP JUMP JUMPDEST PUSH0 PUSH2 0x2AAA DUP3 PUSH2 0x2A86 JUMP JUMPDEST PUSH2 0x2AB4 DUP2 DUP6 PUSH2 0x2A90 JUMP JUMPDEST SWAP4 POP PUSH2 0x2AC4 DUP2 DUP6 PUSH1 0x20 DUP7 ADD PUSH2 0x1DD6 JUMP JUMPDEST PUSH2 0x2ACD DUP2 PUSH2 0x1DE4 JUMP JUMPDEST DUP5 ADD SWAP2 POP POP SWAP3 SWAP2 POP POP JUMP JUMPDEST PUSH0 PUSH1 0x60 DUP4 ADD PUSH0 DUP4 ADD MLOAD DUP5 DUP3 SUB PUSH0 DUP7 ADD MSTORE PUSH2 0x2AF2 DUP3 DUP3 PUSH2 0x2A4E JUMP JUMPDEST SWAP2 POP POP PUSH1 0x20 DUP4 ADD MLOAD DUP5 DUP3 SUB PUSH1 0x20 DUP7 ADD MSTORE PUSH2 0x2B0C DUP3 DUP3 PUSH2 0x2A4E JUMP JUMPDEST SWAP2 POP POP PUSH1 0x40 DUP4 ADD MLOAD DUP5 DUP3 SUB PUSH1 0x40 DUP7 ADD MSTORE PUSH2 0x2B26 DUP3 DUP3 PUSH2 0x2AA0 JUMP JUMPDEST SWAP2 POP POP DUP1 SWAP2 POP POP SWAP3 SWAP2 POP POP JUMP JUMPDEST PUSH0 PUSH2 0x2B3E DUP4 DUP4 PUSH2 0x2AD8 JUMP JUMPDEST SWAP1 POP SWAP3 SWAP2 POP POP JUMP JUMPDEST PUSH0 PUSH1 0x20 DUP3 ADD SWAP1 POP SWAP2 SWAP1 POP JUMP JUMPDEST PUSH0 PUSH2 0x2B5C DUP3 PUSH2 0x2A15 JUMP JUMPDEST PUSH2 0x2B66 DUP2 DUP6 PUSH2 0x2A1F JUMP JUMPDEST SWAP4 POP DUP4 PUSH1 0x20 DUP3 MUL DUP6 ADD PUSH2 0x2B78 DUP6 PUSH2 0x2A2F JUMP JUMPDEST DUP1 PUSH0 JUMPDEST DUP6 DUP2 LT ISZERO PUSH2 0x2BB3 JUMPI DUP5 DUP5 SUB DUP10 MSTORE DUP2 MLOAD PUSH2 0x2B94 DUP6 DUP3 PUSH2 0x2B33 JUMP JUMPDEST SWAP5 POP PUSH2 0x2B9F DUP4 PUSH2 0x2B46 JUMP JUMPDEST SWAP3 POP PUSH1 0x20 DUP11 ADD SWAP10 POP POP PUSH1 0x1 DUP2 ADD SWAP1 POP PUSH2 0x2B7B JUMP JUMPDEST POP DUP3 SWAP8 POP DUP8 SWAP6 POP POP POP POP POP POP SWAP3 SWAP2 POP POP JUMP JUMPDEST PUSH0 PUSH1 0x40 DUP3 ADD SWAP1 POP DUP2 DUP2 SUB PUSH0 DUP4 ADD MSTORE PUSH2 0x2BDC DUP2 PUSH2 0x29F3 JUMP JUMPDEST SWAP1 POP DUP2 DUP2 SUB PUSH1 0x20 DUP4 ADD MSTORE PUSH2 0x2BF0 DUP2 DUP5 PUSH2 0x2B52 JUMP JUMPDEST SWAP1 POP SWAP3 SWAP2 POP POP JUMP JUMPDEST PUSH32 0x5661756C743A20496E73756666696369656E742062616C616E63650000000000 PUSH0 DUP3 ADD MSTORE POP JUMP JUMPDEST PUSH0 PUSH2 0x2C2C PUSH1 0x1B DUP4 PUSH2 0x1DC6 JUMP JUMPDEST SWAP2 POP PUSH2 0x2C37 DUP3 PUSH2 0x2BF8 JUMP JUMPDEST PUSH1 0x20 DUP3 ADD SWAP1 POP SWAP2 SWAP1 POP JUMP JUMPDEST PUSH0 PUSH1 0x20 DUP3 ADD SWAP1 POP DUP2 DUP2 SUB PUSH0 DUP4 ADD MSTORE PUSH2 0x2C59 DUP2 PUSH2 0x2C20 JUMP JUMPDEST SWAP1 POP SWAP2 SWAP1 POP JUMP JUMPDEST PUSH0 PUSH2 0x2C6A DUP3 PUSH2 0x210D JUMP JUMPDEST SWAP2 POP PUSH2 0x2C75 DUP4 PUSH2 0x210D JUMP JUMPDEST SWAP3 POP DUP3 DUP3 SUB SWAP1 POP DUP2 DUP2 GT ISZERO PUSH2 0x2C8D JUMPI PUSH2 0x2C8C PUSH2 0x284F JUMP JUMPDEST JUMPDEST SWAP3 SWAP2 POP POP JUMP JUMPDEST PUSH32 0x5769746864726177000000000000000000000000000000000000000000000000 PUSH0 DUP3 ADD MSTORE POP JUMP JUMPDEST PUSH0 PUSH2 0x2CC7 PUSH1 0x8 DUP4 PUSH2 0x1DC6 JUMP JUMPDEST SWAP2 POP PUSH2 0x2CD2 DUP3 PUSH2 0x2C93 JUMP JUMPDEST PUSH1 0x20 DUP3 ADD SWAP1 POP SWAP2 SWAP1 POP JUMP JUMPDEST PUSH0 PUSH1 0x40 DUP3 ADD SWAP1 POP DUP2 DUP2 SUB PUSH0 DUP4 ADD MSTORE PUSH2 0x2CF4 DUP2 PUSH2 0x2CBB JUMP JUMPDEST SWAP1 POP DUP2 DUP2 SUB PUSH1 0x20 DUP4 ADD MSTORE PUSH2 0x2D08 DUP2 DUP5 PUSH2 0x2B52 JUMP JUMPDEST SWAP1 POP SWAP3 SWAP2 POP POP JUMP JUMPDEST PUSH32 0x5661756C743A204465706F736974206D757374206265203E2030000000000000 PUSH0 DUP3 ADD MSTORE POP JUMP JUMPDEST PUSH0 PUSH2 0x2D44 PUSH1 0x1A DUP4 PUSH2 0x1DC6 JUMP JUMPDEST SWAP2 POP PUSH2 0x2D4F DUP3 PUSH2 0x2D10 JUMP JUMPDEST PUSH1 0x20 DUP3 ADD SWAP1 POP SWAP2 SWAP1 POP JUMP JUMPDEST PUSH0 PUSH1 0x20 DUP3 ADD SWAP1 POP DUP2 DUP2 SUB PUSH0 DUP4 ADD MSTORE PUSH2 0x2D71 DUP2 PUSH2 0x2D38 JUMP JUMPDEST SWAP1 POP SWAP2 SWAP1 POP JUMP JUMPDEST PUSH32 0x4465706F73697400000000000000000000000000000000000000000000000000 PUSH0 DUP3 ADD MSTORE POP JUMP JUMPDEST PUSH0 PUSH2 0x2DAC PUSH1 0x7 DUP4 PUSH2 0x1DC6 JUMP JUMPDEST SWAP2 POP PUSH2 0x2DB7 DUP3 PUSH2 0x2D78 JUMP JUMPDEST PUSH1 0x20 DUP3 ADD SWAP1 POP SWAP2 SWAP1 POP JUMP JUMPDEST PUSH0 PUSH1 0x40 DUP3 ADD SWAP1 POP DUP2 DUP2 SUB PUSH0 DUP4 ADD MSTORE PUSH2 0x2DD9 DUP2 PUSH2 0x2DA0 JUMP JUMPDEST SWAP1 POP DUP2 DUP2 SUB PUSH1 0x20 DUP4 ADD MSTORE PUSH2 0x2DED DUP2 DUP5 PUSH2 0x2B52 JUMP JUMPDEST SWAP1 POP SWAP3 SWAP2 POP POP JUMP INVALID LOG2 PUSH5 0x6970667358 0x22 SLT KECCAK256 CODESIZE ADDMOD 0x4D PUSH27 0x9C354339654D4DEC7EAA008BC8C032384641D417CA01E2511A85BE PUSH28 0x64736F6C634300081F00330000000000000000000000000000000000 "
				},
				"gasEstimates": {
					"creation": {
						"codeDepositCost": "2363800",
						"executionCost": "infinite",
						"totalCost": "infinite"
					},
					"external": {
						"claimableBalances(address,address)": "infinite",
						"deposit(string,uint256)": "infinite",
						"events()": "infinite",
						"grantWithdrawalPermission(address,string,uint256,uint256)": "infinite",
						"isSupportedToken(address)": "2878",
						"listNewToken(string)": "infinite",
						"owner()": "2559",
						"providerName()": "infinite",
						"renounceOwnership()": "infinite",
						"resolveAsset(string)": "infinite",
						"transferOwnership(address)": "infinite",
						"variablesRegistry()": "infinite",
						"withdraw(string,uint256,address)": "infinite"
					}
				},
				"methodIdentifiers": {
					"claimableBalances(address,address)": "76c13cbd",
					"deposit(string,uint256)": "8e27d719",
					"events()": "b5f8558c",
					"grantWithdrawalPermission(address,string,uint256,uint256)": "6afbf5d6",
					"isSupportedToken(address)": "240028e8",
					"listNewToken(string)": "f139721c",
					"owner()": "8da5cb5b",
					"providerName()": "00dad7d4",
					"renounceOwnership()": "715018a6",
					"resolveAsset(string)": "05d09fb1",
					"transferOwnership(address)": "f2fde38b",
					"variablesRegistry()": "bf4d766e",
					"withdraw(string,uint256,address)": "7804e707"
				}
			},
			"storageLayout": {
				"storage": [
					{
						"astId": 8,
						"contract": "Evm/core/base/vault.sol:QiaraMultiAssetVault",
						"label": "_owner",
						"offset": 0,
						"slot": "0",
						"type": "t_address"
					},
					{
						"astId": 858,
						"contract": "Evm/core/base/vault.sol:QiaraMultiAssetVault",
						"label": "providerName",
						"offset": 0,
						"slot": "1",
						"type": "t_string_storage"
					},
					{
						"astId": 862,
						"contract": "Evm/core/base/vault.sol:QiaraMultiAssetVault",
						"label": "isSupportedToken",
						"offset": 0,
						"slot": "2",
						"type": "t_mapping(t_address,t_bool)"
					},
					{
						"astId": 868,
						"contract": "Evm/core/base/vault.sol:QiaraMultiAssetVault",
						"label": "claimableBalances",
						"offset": 0,
						"slot": "3",
						"type": "t_mapping(t_address,t_mapping(t_address,t_uint256))"
					}
				],
				"types": {
					"t_address": {
						"encoding": "inplace",
						"label": "address",
						"numberOfBytes": "20"
					},
					"t_bool": {
						"encoding": "inplace",
						"label": "bool",
						"numberOfBytes": "1"
					},
					"t_mapping(t_address,t_bool)": {
						"encoding": "mapping",
						"key": "t_address",
						"label": "mapping(address => bool)",
						"numberOfBytes": "32",
						"value": "t_bool"
					},
					"t_mapping(t_address,t_mapping(t_address,t_uint256))": {
						"encoding": "mapping",
						"key": "t_address",
						"label": "mapping(address => mapping(address => uint256))",
						"numberOfBytes": "32",
						"value": "t_mapping(t_address,t_uint256)"
					},
					"t_mapping(t_address,t_uint256)": {
						"encoding": "mapping",
						"key": "t_address",
						"label": "mapping(address => uint256)",
						"numberOfBytes": "32",
						"value": "t_uint256"
					},
					"t_string_storage": {
						"encoding": "bytes",
						"label": "string",
						"numberOfBytes": "32"
					},
					"t_uint256": {
						"encoding": "inplace",
						"label": "uint256",
						"numberOfBytes": "32"
					}
				}
			},
			"userdoc": {
				"kind": "user",
				"methods": {},
				"version": 1
			}
		}
	}
}