{
	"Evm/interfaces/shared.sol": {
		"ModularShared": {
			"abi": [
				{
					"inputs": [
						{
							"internalType": "address",
							"name": "_events",
							"type": "address"
						}
					],
					"stateMutability": "nonpayable",
					"type": "constructor"
				},
				{
					"inputs": [],
					"name": "events",
					"outputs": [
						{
							"internalType": "contract IEvents",
							"name": "",
							"type": "address"
						}
					],
					"stateMutability": "view",
					"type": "function"
				},
				{
					"inputs": [
						{
							"internalType": "string",
							"name": "name",
							"type": "string"
						}
					],
					"name": "m_create_shared_storage",
					"outputs": [],
					"stateMutability": "nonpayable",
					"type": "function"
				},
				{
					"inputs": [
						{
							"internalType": "string",
							"name": "name",
							"type": "string"
						},
						{
							"internalType": "address",
							"name": "sub_owner",
							"type": "address"
						}
					],
					"name": "p_allow_sub_owner",
					"outputs": [],
					"stateMutability": "nonpayable",
					"type": "function"
				},
				{
					"inputs": [
						{
							"internalType": "string",
							"name": "name",
							"type": "string"
						},
						{
							"internalType": "address",
							"name": "sub_owner",
							"type": "address"
						}
					],
					"name": "p_remove_sub_owner",
					"outputs": [],
					"stateMutability": "nonpayable",
					"type": "function"
				}
			],
			"devdoc": {
				"kind": "dev",
				"methods": {},
				"version": 1
			},
			"evm": {
				"assembly": "    /* \"Evm/interfaces/shared.sol\":419:1969  contract ModularShared  {... */\n  mstore(0x40, 0xa0)\n    /* \"Evm/interfaces/shared.sol\":492:566  constructor(address _events)  {... */\n  callvalue\n  dup1\n  iszero\n  tag_1\n  jumpi\n  revert(0x00, 0x00)\ntag_1:\n  pop\n  mload(0x40)\n  sub(codesize, bytecodeSize)\n  dup1\n  bytecodeSize\n  dup4\n  codecopy\n  dup2\n  dup2\n  add\n  0x40\n  mstore\n  dup2\n  add\n  swap1\n  tag_2\n  swap2\n  swap1\n  tag_3\n  jump\t// in\ntag_2:\n    /* \"Evm/interfaces/shared.sol\":550:557  _events */\n  dup1\n    /* \"Evm/interfaces/shared.sol\":533:558  events = IEvents(_events) */\n  0xffffffffffffffffffffffffffffffffffffffff\n  and\n  0x80\n  dup2\n  0xffffffffffffffffffffffffffffffffffffffff\n  and\n  dup2\n  mstore\n  pop\n  pop\n    /* \"Evm/interfaces/shared.sol\":492:566  constructor(address _events)  {... */\n  pop\n    /* \"Evm/interfaces/shared.sol\":419:1969  contract ModularShared  {... */\n  jump(tag_6)\n    /* \"#utility.yul\":88:205   */\ntag_8:\n    /* \"#utility.yul\":197:198   */\n  0x00\n    /* \"#utility.yul\":194:195   */\n  0x00\n    /* \"#utility.yul\":187:199   */\n  revert\n    /* \"#utility.yul\":334:460   */\ntag_10:\n    /* \"#utility.yul\":371:378   */\n  0x00\n    /* \"#utility.yul\":411:453   */\n  0xffffffffffffffffffffffffffffffffffffffff\n    /* \"#utility.yul\":404:409   */\n  dup3\n    /* \"#utility.yul\":400:454   */\n  and\n    /* \"#utility.yul\":389:454   */\n  swap1\n  pop\n    /* \"#utility.yul\":334:460   */\n  swap2\n  swap1\n  pop\n  jump\t// out\n    /* \"#utility.yul\":466:562   */\ntag_11:\n    /* \"#utility.yul\":503:510   */\n  0x00\n    /* \"#utility.yul\":532:556   */\n  tag_20\n    /* \"#utility.yul\":550:555   */\n  dup3\n    /* \"#utility.yul\":532:556   */\n  tag_10\n  jump\t// in\ntag_20:\n    /* \"#utility.yul\":521:556   */\n  swap1\n  pop\n    /* \"#utility.yul\":466:562   */\n  swap2\n  swap1\n  pop\n  jump\t// out\n    /* \"#utility.yul\":568:690   */\ntag_12:\n    /* \"#utility.yul\":641:665   */\n  tag_22\n    /* \"#utility.yul\":659:664   */\n  dup2\n    /* \"#utility.yul\":641:665   */\n  tag_11\n  jump\t// in\ntag_22:\n    /* \"#utility.yul\":634:639   */\n  dup2\n    /* \"#utility.yul\":631:666   */\n  eq\n    /* \"#utility.yul\":621:684   */\n  tag_23\n  jumpi\n    /* \"#utility.yul\":680:681   */\n  0x00\n    /* \"#utility.yul\":677:678   */\n  0x00\n    /* \"#utility.yul\":670:682   */\n  revert\n    /* \"#utility.yul\":621:684   */\ntag_23:\n    /* \"#utility.yul\":568:690   */\n  pop\n  jump\t// out\n    /* \"#utility.yul\":696:839   */\ntag_13:\n    /* \"#utility.yul\":753:758   */\n  0x00\n    /* \"#utility.yul\":784:790   */\n  dup2\n    /* \"#utility.yul\":778:791   */\n  mload\n    /* \"#utility.yul\":769:791   */\n  swap1\n  pop\n    /* \"#utility.yul\":800:833   */\n  tag_25\n    /* \"#utility.yul\":827:832   */\n  dup2\n    /* \"#utility.yul\":800:833   */\n  tag_12\n  jump\t// in\ntag_25:\n    /* \"#utility.yul\":696:839   */\n  swap3\n  swap2\n  pop\n  pop\n  jump\t// out\n    /* \"#utility.yul\":845:1196   */\ntag_3:\n    /* \"#utility.yul\":915:921   */\n  0x00\n    /* \"#utility.yul\":964:966   */\n  0x20\n    /* \"#utility.yul\":952:961   */\n  dup3\n    /* \"#utility.yul\":943:950   */\n  dup5\n    /* \"#utility.yul\":939:962   */\n  sub\n    /* \"#utility.yul\":935:967   */\n  slt\n    /* \"#utility.yul\":932:1051   */\n  iszero\n  tag_27\n  jumpi\n    /* \"#utility.yul\":970:1049   */\n  tag_28\n  tag_8\n  jump\t// in\ntag_28:\n    /* \"#utility.yul\":932:1051   */\ntag_27:\n    /* \"#utility.yul\":1090:1091   */\n  0x00\n    /* \"#utility.yul\":1115:1179   */\n  tag_29\n    /* \"#utility.yul\":1171:1178   */\n  dup5\n    /* \"#utility.yul\":1162:1168   */\n  dup3\n    /* \"#utility.yul\":1151:1160   */\n  dup6\n    /* \"#utility.yul\":1147:1169   */\n  add\n    /* \"#utility.yul\":1115:1179   */\n  tag_13\n  jump\t// in\ntag_29:\n    /* \"#utility.yul\":1105:1179   */\n  swap2\n  pop\n    /* \"#utility.yul\":1061:1189   */\n  pop\n    /* \"#utility.yul\":845:1196   */\n  swap3\n  swap2\n  pop\n  pop\n  jump\t// out\n    /* \"Evm/interfaces/shared.sol\":419:1969  contract ModularShared  {... */\ntag_6:\n  mload(0x80)\n  codecopy(0x00, dataOffset(sub_0), dataSize(sub_0))\n  0x00\n  assignImmutable(\"0x6d6142e7bc5885f8a3af14e4530d0fef2107c35d29b4827380ff447a51b70068\")\n  return(0x00, dataSize(sub_0))\nstop\n\nsub_0: assembly {\n        /* \"Evm/interfaces/shared.sol\":419:1969  contract ModularShared  {... */\n      mstore(0x40, 0x80)\n      callvalue\n      dup1\n      iszero\n      tag_1\n      jumpi\n      revert(0x00, 0x00)\n    tag_1:\n      pop\n      jumpi(tag_2, lt(calldatasize, 0x04))\n      shr(0xe0, calldataload(0x00))\n      dup1\n      0x8af83ae7\n      eq\n      tag_3\n      jumpi\n      dup1\n      0xb5f8558c\n      eq\n      tag_4\n      jumpi\n      dup1\n      0xda9650a1\n      eq\n      tag_5\n      jumpi\n      dup1\n      0xec3f01eb\n      eq\n      tag_6\n      jumpi\n    tag_2:\n      revert(0x00, 0x00)\n        /* \"Evm/interfaces/shared.sol\":576:963  function m_create_shared_storage(string calldata name) external { ... */\n    tag_3:\n      tag_7\n      0x04\n      dup1\n      calldatasize\n      sub\n      dup2\n      add\n      swap1\n      tag_8\n      swap2\n      swap1\n      tag_9\n      jump\t// in\n    tag_8:\n      tag_10\n      jump\t// in\n    tag_7:\n      stop\n        /* \"Evm/interfaces/shared.sol\":452:483  IEvents public immutable events */\n    tag_4:\n      tag_11\n      tag_12\n      jump\t// in\n    tag_11:\n      mload(0x40)\n      tag_13\n      swap2\n      swap1\n      tag_14\n      jump\t// in\n    tag_13:\n      mload(0x40)\n      dup1\n      swap2\n      sub\n      swap1\n      return\n        /* \"Evm/interfaces/shared.sol\":971:1463  function p_allow_sub_owner(string calldata name, address sub_owner) external { ... */\n    tag_5:\n      tag_15\n      0x04\n      dup1\n      calldatasize\n      sub\n      dup2\n      add\n      swap1\n      tag_16\n      swap2\n      swap1\n      tag_17\n      jump\t// in\n    tag_16:\n      tag_18\n      jump\t// in\n    tag_15:\n      stop\n        /* \"Evm/interfaces/shared.sol\":1471:1966  function p_remove_sub_owner(string calldata name, address sub_owner) external { ... */\n    tag_6:\n      tag_19\n      0x04\n      dup1\n      calldatasize\n      sub\n      dup2\n      add\n      swap1\n      tag_20\n      swap2\n      swap1\n      tag_17\n      jump\t// in\n    tag_20:\n      tag_21\n      jump\t// in\n    tag_19:\n      stop\n        /* \"Evm/interfaces/shared.sol\":576:963  function m_create_shared_storage(string calldata name) external { ... */\n    tag_10:\n        /* \"Evm/interfaces/shared.sol\":654:685  IEvents.Data[] memory eventData */\n      0x00\n        /* \"Evm/interfaces/shared.sol\":707:708  2 */\n      0x02\n        /* \"Evm/interfaces/shared.sol\":688:709  new IEvents.Data[](2) */\n      0xffffffffffffffff\n      dup2\n      gt\n      iszero\n      tag_23\n      jumpi\n      tag_24\n      tag_25\n      jump\t// in\n    tag_24:\n    tag_23:\n      mload(0x40)\n      swap1\n      dup1\n      dup3\n      mstore\n      dup1\n      0x20\n      mul\n      0x20\n      add\n      dup3\n      add\n      0x40\n      mstore\n      dup1\n      iszero\n      tag_26\n      jumpi\n      dup2\n      0x20\n      add\n    tag_27:\n      tag_28\n      tag_29\n      jump\t// in\n    tag_28:\n      dup2\n      mstore\n      0x20\n      add\n      swap1\n      0x01\n      swap1\n      sub\n      swap1\n      dup2\n      tag_27\n      jumpi\n      swap1\n      pop\n    tag_26:\n      pop\n        /* \"Evm/interfaces/shared.sol\":654:709  IEvents.Data[] memory eventData = new IEvents.Data[](2) */\n      swap1\n      pop\n        /* \"Evm/interfaces/shared.sol\":745:800  IEvents.Data(\"user\", \"address\", abi.encode(msg.sender)) */\n      mload(0x40)\n      dup1\n      0x60\n      add\n      0x40\n      mstore\n      dup1\n      mload(0x40)\n      dup1\n      0x40\n      add\n      0x40\n      mstore\n      dup1\n      0x04\n      dup2\n      mstore\n      0x20\n      add\n      0x7573657200000000000000000000000000000000000000000000000000000000\n      dup2\n      mstore\n      pop\n      dup2\n      mstore\n      0x20\n      add\n      mload(0x40)\n      dup1\n      0x40\n      add\n      0x40\n      mstore\n      dup1\n      0x07\n      dup2\n      mstore\n      0x20\n      add\n      0x6164647265737300000000000000000000000000000000000000000000000000\n      dup2\n      mstore\n      pop\n      dup2\n      mstore\n      0x20\n      add\n        /* \"Evm/interfaces/shared.sol\":788:798  msg.sender */\n      caller\n        /* \"Evm/interfaces/shared.sol\":777:799  abi.encode(msg.sender) */\n      add(0x20, mload(0x40))\n      tag_30\n      swap2\n      swap1\n      tag_31\n      jump\t// in\n    tag_30:\n      mload(0x40)\n      0x20\n      dup2\n      dup4\n      sub\n      sub\n      dup2\n      mstore\n      swap1\n      0x40\n      mstore\n        /* \"Evm/interfaces/shared.sol\":745:800  IEvents.Data(\"user\", \"address\", abi.encode(msg.sender)) */\n      dup2\n      mstore\n      pop\n        /* \"Evm/interfaces/shared.sol\":730:739  eventData */\n      dup2\n        /* \"Evm/interfaces/shared.sol\":740:741  0 */\n      0x00\n        /* \"Evm/interfaces/shared.sol\":730:742  eventData[0] */\n      dup2\n      mload\n      dup2\n      lt\n      tag_32\n      jumpi\n      tag_33\n      tag_34\n      jump\t// in\n    tag_33:\n    tag_32:\n      0x20\n      mul\n      0x20\n      add\n      add\n        /* \"Evm/interfaces/shared.sol\":730:800  eventData[0] = IEvents.Data(\"user\", \"address\", abi.encode(msg.sender)) */\n      dup2\n      swap1\n      mstore\n      pop\n        /* \"Evm/interfaces/shared.sol\":826:874  IEvents.Data(\"name\", \"string\", abi.encode(name)) */\n      mload(0x40)\n      dup1\n      0x60\n      add\n      0x40\n      mstore\n      dup1\n      mload(0x40)\n      dup1\n      0x40\n      add\n      0x40\n      mstore\n      dup1\n      0x04\n      dup2\n      mstore\n      0x20\n      add\n      0x6e616d6500000000000000000000000000000000000000000000000000000000\n      dup2\n      mstore\n      pop\n      dup2\n      mstore\n      0x20\n      add\n      mload(0x40)\n      dup1\n      0x40\n      add\n      0x40\n      mstore\n      dup1\n      0x06\n      dup2\n      mstore\n      0x20\n      add\n      0x737472696e670000000000000000000000000000000000000000000000000000\n      dup2\n      mstore\n      pop\n      dup2\n      mstore\n      0x20\n      add\n        /* \"Evm/interfaces/shared.sol\":868:872  name */\n      dup5\n      dup5\n        /* \"Evm/interfaces/shared.sol\":857:873  abi.encode(name) */\n      add(0x20, mload(0x40))\n      tag_35\n      swap3\n      swap2\n      swap1\n      tag_36\n      jump\t// in\n    tag_35:\n      mload(0x40)\n      0x20\n      dup2\n      dup4\n      sub\n      sub\n      dup2\n      mstore\n      swap1\n      0x40\n      mstore\n        /* \"Evm/interfaces/shared.sol\":826:874  IEvents.Data(\"name\", \"string\", abi.encode(name)) */\n      dup2\n      mstore\n      pop\n        /* \"Evm/interfaces/shared.sol\":811:820  eventData */\n      dup2\n        /* \"Evm/interfaces/shared.sol\":821:822  1 */\n      0x01\n        /* \"Evm/interfaces/shared.sol\":811:823  eventData[1] */\n      dup2\n      mload\n      dup2\n      lt\n      tag_37\n      jumpi\n      tag_38\n      tag_34\n      jump\t// in\n    tag_38:\n    tag_37:\n      0x20\n      mul\n      0x20\n      add\n      add\n        /* \"Evm/interfaces/shared.sol\":811:874  eventData[1] = IEvents.Data(\"name\", \"string\", abi.encode(name)) */\n      dup2\n      swap1\n      mstore\n      pop\n        /* \"Evm/interfaces/shared.sol\":895:901  events */\n      immutable(\"0x6d6142e7bc5885f8a3af14e4530d0fef2107c35d29b4827380ff447a51b70068\")\n        /* \"Evm/interfaces/shared.sol\":895:916  events.emitVaultEvent */\n      0xffffffffffffffffffffffffffffffffffffffff\n      and\n      0x7d64fa9b\n        /* \"Evm/interfaces/shared.sol\":945:954  eventData */\n      dup3\n        /* \"Evm/interfaces/shared.sol\":895:955  events.emitVaultEvent(\"Modular Storage Creation\", eventData) */\n      mload(0x40)\n      dup3\n      0xffffffff\n      and\n      0xe0\n      shl\n      dup2\n      mstore\n      0x04\n      add\n      tag_39\n      swap2\n      swap1\n      tag_40\n      jump\t// in\n    tag_39:\n      0x00\n      mload(0x40)\n      dup1\n      dup4\n      sub\n      dup2\n      0x00\n      dup8\n      dup1\n      extcodesize\n      iszero\n      dup1\n      iszero\n      tag_41\n      jumpi\n      revert(0x00, 0x00)\n    tag_41:\n      pop\n      gas\n      call\n      iszero\n      dup1\n      iszero\n      tag_43\n      jumpi\n      returndatacopy(0x00, 0x00, returndatasize)\n      revert(0x00, returndatasize)\n    tag_43:\n      pop\n      pop\n      pop\n      pop\n        /* \"Evm/interfaces/shared.sol\":640:963  { ... */\n      pop\n        /* \"Evm/interfaces/shared.sol\":576:963  function m_create_shared_storage(string calldata name) external { ... */\n      pop\n      pop\n      jump\t// out\n        /* \"Evm/interfaces/shared.sol\":452:483  IEvents public immutable events */\n    tag_12:\n      immutable(\"0x6d6142e7bc5885f8a3af14e4530d0fef2107c35d29b4827380ff447a51b70068\")\n      dup2\n      jump\t// out\n        /* \"Evm/interfaces/shared.sol\":971:1463  function p_allow_sub_owner(string calldata name, address sub_owner) external { ... */\n    tag_18:\n        /* \"Evm/interfaces/shared.sol\":1062:1093  IEvents.Data[] memory eventData */\n      0x00\n        /* \"Evm/interfaces/shared.sol\":1115:1116  3 */\n      0x03\n        /* \"Evm/interfaces/shared.sol\":1096:1117  new IEvents.Data[](3) */\n      0xffffffffffffffff\n      dup2\n      gt\n      iszero\n      tag_45\n      jumpi\n      tag_46\n      tag_25\n      jump\t// in\n    tag_46:\n    tag_45:\n      mload(0x40)\n      swap1\n      dup1\n      dup3\n      mstore\n      dup1\n      0x20\n      mul\n      0x20\n      add\n      dup3\n      add\n      0x40\n      mstore\n      dup1\n      iszero\n      tag_47\n      jumpi\n      dup2\n      0x20\n      add\n    tag_48:\n      tag_49\n      tag_29\n      jump\t// in\n    tag_49:\n      dup2\n      mstore\n      0x20\n      add\n      swap1\n      0x01\n      swap1\n      sub\n      swap1\n      dup2\n      tag_48\n      jumpi\n      swap1\n      pop\n    tag_47:\n      pop\n        /* \"Evm/interfaces/shared.sol\":1062:1117  IEvents.Data[] memory eventData = new IEvents.Data[](3) */\n      swap1\n      pop\n        /* \"Evm/interfaces/shared.sol\":1153:1208  IEvents.Data(\"user\", \"address\", abi.encode(msg.sender)) */\n      mload(0x40)\n      dup1\n      0x60\n      add\n      0x40\n      mstore\n      dup1\n      mload(0x40)\n      dup1\n      0x40\n      add\n      0x40\n      mstore\n      dup1\n      0x04\n      dup2\n      mstore\n      0x20\n      add\n      0x7573657200000000000000000000000000000000000000000000000000000000\n      dup2\n      mstore\n      pop\n      dup2\n      mstore\n      0x20\n      add\n      mload(0x40)\n      dup1\n      0x40\n      add\n      0x40\n      mstore\n      dup1\n      0x07\n      dup2\n      mstore\n      0x20\n      add\n      0x6164647265737300000000000000000000000000000000000000000000000000\n      dup2\n      mstore\n      pop\n      dup2\n      mstore\n      0x20\n      add\n        /* \"Evm/interfaces/shared.sol\":1196:1206  msg.sender */\n      caller\n        /* \"Evm/interfaces/shared.sol\":1185:1207  abi.encode(msg.sender) */\n      add(0x20, mload(0x40))\n      tag_50\n      swap2\n      swap1\n      tag_31\n      jump\t// in\n    tag_50:\n      mload(0x40)\n      0x20\n      dup2\n      dup4\n      sub\n      sub\n      dup2\n      mstore\n      swap1\n      0x40\n      mstore\n        /* \"Evm/interfaces/shared.sol\":1153:1208  IEvents.Data(\"user\", \"address\", abi.encode(msg.sender)) */\n      dup2\n      mstore\n      pop\n        /* \"Evm/interfaces/shared.sol\":1138:1147  eventData */\n      dup2\n        /* \"Evm/interfaces/shared.sol\":1148:1149  0 */\n      0x00\n        /* \"Evm/interfaces/shared.sol\":1138:1150  eventData[0] */\n      dup2\n      mload\n      dup2\n      lt\n      tag_51\n      jumpi\n      tag_52\n      tag_34\n      jump\t// in\n    tag_52:\n    tag_51:\n      0x20\n      mul\n      0x20\n      add\n      add\n        /* \"Evm/interfaces/shared.sol\":1138:1208  eventData[0] = IEvents.Data(\"user\", \"address\", abi.encode(msg.sender)) */\n      dup2\n      swap1\n      mstore\n      pop\n        /* \"Evm/interfaces/shared.sol\":1234:1293  IEvents.Data(\"sub_owner\", \"address\", abi.encode(sub_owner)) */\n      mload(0x40)\n      dup1\n      0x60\n      add\n      0x40\n      mstore\n      dup1\n      mload(0x40)\n      dup1\n      0x40\n      add\n      0x40\n      mstore\n      dup1\n      0x09\n      dup2\n      mstore\n      0x20\n      add\n      0x7375625f6f776e65720000000000000000000000000000000000000000000000\n      dup2\n      mstore\n      pop\n      dup2\n      mstore\n      0x20\n      add\n      mload(0x40)\n      dup1\n      0x40\n      add\n      0x40\n      mstore\n      dup1\n      0x07\n      dup2\n      mstore\n      0x20\n      add\n      0x6164647265737300000000000000000000000000000000000000000000000000\n      dup2\n      mstore\n      pop\n      dup2\n      mstore\n      0x20\n      add\n        /* \"Evm/interfaces/shared.sol\":1282:1291  sub_owner */\n      dup4\n        /* \"Evm/interfaces/shared.sol\":1271:1292  abi.encode(sub_owner) */\n      add(0x20, mload(0x40))\n      tag_53\n      swap2\n      swap1\n      tag_31\n      jump\t// in\n    tag_53:\n      mload(0x40)\n      0x20\n      dup2\n      dup4\n      sub\n      sub\n      dup2\n      mstore\n      swap1\n      0x40\n      mstore\n        /* \"Evm/interfaces/shared.sol\":1234:1293  IEvents.Data(\"sub_owner\", \"address\", abi.encode(sub_owner)) */\n      dup2\n      mstore\n      pop\n        /* \"Evm/interfaces/shared.sol\":1219:1228  eventData */\n      dup2\n        /* \"Evm/interfaces/shared.sol\":1229:1230  2 */\n      0x02\n        /* \"Evm/interfaces/shared.sol\":1219:1231  eventData[2] */\n      dup2\n      mload\n      dup2\n      lt\n      tag_54\n      jumpi\n      tag_55\n      tag_34\n      jump\t// in\n    tag_55:\n    tag_54:\n      0x20\n      mul\n      0x20\n      add\n      add\n        /* \"Evm/interfaces/shared.sol\":1219:1293  eventData[2] = IEvents.Data(\"sub_owner\", \"address\", abi.encode(sub_owner)) */\n      dup2\n      swap1\n      mstore\n      pop\n        /* \"Evm/interfaces/shared.sol\":1319:1367  IEvents.Data(\"name\", \"string\", abi.encode(name)) */\n      mload(0x40)\n      dup1\n      0x60\n      add\n      0x40\n      mstore\n      dup1\n      mload(0x40)\n      dup1\n      0x40\n      add\n      0x40\n      mstore\n      dup1\n      0x04\n      dup2\n      mstore\n      0x20\n      add\n      0x6e616d6500000000000000000000000000000000000000000000000000000000\n      dup2\n      mstore\n      pop\n      dup2\n      mstore\n      0x20\n      add\n      mload(0x40)\n      dup1\n      0x40\n      add\n      0x40\n      mstore\n      dup1\n      0x06\n      dup2\n      mstore\n      0x20\n      add\n      0x737472696e670000000000000000000000000000000000000000000000000000\n      dup2\n      mstore\n      pop\n      dup2\n      mstore\n      0x20\n      add\n        /* \"Evm/interfaces/shared.sol\":1361:1365  name */\n      dup6\n      dup6\n        /* \"Evm/interfaces/shared.sol\":1350:1366  abi.encode(name) */\n      add(0x20, mload(0x40))\n      tag_56\n      swap3\n      swap2\n      swap1\n      tag_36\n      jump\t// in\n    tag_56:\n      mload(0x40)\n      0x20\n      dup2\n      dup4\n      sub\n      sub\n      dup2\n      mstore\n      swap1\n      0x40\n      mstore\n        /* \"Evm/interfaces/shared.sol\":1319:1367  IEvents.Data(\"name\", \"string\", abi.encode(name)) */\n      dup2\n      mstore\n      pop\n        /* \"Evm/interfaces/shared.sol\":1304:1313  eventData */\n      dup2\n        /* \"Evm/interfaces/shared.sol\":1314:1315  3 */\n      0x03\n        /* \"Evm/interfaces/shared.sol\":1304:1316  eventData[3] */\n      dup2\n      mload\n      dup2\n      lt\n      tag_57\n      jumpi\n      tag_58\n      tag_34\n      jump\t// in\n    tag_58:\n    tag_57:\n      0x20\n      mul\n      0x20\n      add\n      add\n        /* \"Evm/interfaces/shared.sol\":1304:1367  eventData[3] = IEvents.Data(\"name\", \"string\", abi.encode(name)) */\n      dup2\n      swap1\n      mstore\n      pop\n        /* \"Evm/interfaces/shared.sol\":1388:1394  events */\n      immutable(\"0x6d6142e7bc5885f8a3af14e4530d0fef2107c35d29b4827380ff447a51b70068\")\n        /* \"Evm/interfaces/shared.sol\":1388:1409  events.emitVaultEvent */\n      0xffffffffffffffffffffffffffffffffffffffff\n      and\n      0x7d64fa9b\n        /* \"Evm/interfaces/shared.sol\":1445:1454  eventData */\n      dup3\n        /* \"Evm/interfaces/shared.sol\":1388:1455  events.emitVaultEvent(\"Modular Storage Sub Owner Added\", eventData) */\n      mload(0x40)\n      dup3\n      0xffffffff\n      and\n      0xe0\n      shl\n      dup2\n      mstore\n      0x04\n      add\n      tag_59\n      swap2\n      swap1\n      tag_60\n      jump\t// in\n    tag_59:\n      0x00\n      mload(0x40)\n      dup1\n      dup4\n      sub\n      dup2\n      0x00\n      dup8\n      dup1\n      extcodesize\n      iszero\n      dup1\n      iszero\n      tag_61\n      jumpi\n      revert(0x00, 0x00)\n    tag_61:\n      pop\n      gas\n      call\n      iszero\n      dup1\n      iszero\n      tag_63\n      jumpi\n      returndatacopy(0x00, 0x00, returndatasize)\n      revert(0x00, returndatasize)\n    tag_63:\n      pop\n      pop\n      pop\n      pop\n        /* \"Evm/interfaces/shared.sol\":1048:1463  { ... */\n      pop\n        /* \"Evm/interfaces/shared.sol\":971:1463  function p_allow_sub_owner(string calldata name, address sub_owner) external { ... */\n      pop\n      pop\n      pop\n      jump\t// out\n        /* \"Evm/interfaces/shared.sol\":1471:1966  function p_remove_sub_owner(string calldata name, address sub_owner) external { ... */\n    tag_21:\n        /* \"Evm/interfaces/shared.sol\":1563:1594  IEvents.Data[] memory eventData */\n      0x00\n        /* \"Evm/interfaces/shared.sol\":1616:1617  3 */\n      0x03\n        /* \"Evm/interfaces/shared.sol\":1597:1618  new IEvents.Data[](3) */\n      0xffffffffffffffff\n      dup2\n      gt\n      iszero\n      tag_65\n      jumpi\n      tag_66\n      tag_25\n      jump\t// in\n    tag_66:\n    tag_65:\n      mload(0x40)\n      swap1\n      dup1\n      dup3\n      mstore\n      dup1\n      0x20\n      mul\n      0x20\n      add\n      dup3\n      add\n      0x40\n      mstore\n      dup1\n      iszero\n      tag_67\n      jumpi\n      dup2\n      0x20\n      add\n    tag_68:\n      tag_69\n      tag_29\n      jump\t// in\n    tag_69:\n      dup2\n      mstore\n      0x20\n      add\n      swap1\n      0x01\n      swap1\n      sub\n      swap1\n      dup2\n      tag_68\n      jumpi\n      swap1\n      pop\n    tag_67:\n      pop\n        /* \"Evm/interfaces/shared.sol\":1563:1618  IEvents.Data[] memory eventData = new IEvents.Data[](3) */\n      swap1\n      pop\n        /* \"Evm/interfaces/shared.sol\":1654:1709  IEvents.Data(\"user\", \"address\", abi.encode(msg.sender)) */\n      mload(0x40)\n      dup1\n      0x60\n      add\n      0x40\n      mstore\n      dup1\n      mload(0x40)\n      dup1\n      0x40\n      add\n      0x40\n      mstore\n      dup1\n      0x04\n      dup2\n      mstore\n      0x20\n      add\n      0x7573657200000000000000000000000000000000000000000000000000000000\n      dup2\n      mstore\n      pop\n      dup2\n      mstore\n      0x20\n      add\n      mload(0x40)\n      dup1\n      0x40\n      add\n      0x40\n      mstore\n      dup1\n      0x07\n      dup2\n      mstore\n      0x20\n      add\n      0x6164647265737300000000000000000000000000000000000000000000000000\n      dup2\n      mstore\n      pop\n      dup2\n      mstore\n      0x20\n      add\n        /* \"Evm/interfaces/shared.sol\":1697:1707  msg.sender */\n      caller\n        /* \"Evm/interfaces/shared.sol\":1686:1708  abi.encode(msg.sender) */\n      add(0x20, mload(0x40))\n      tag_70\n      swap2\n      swap1\n      tag_31\n      jump\t// in\n    tag_70:\n      mload(0x40)\n      0x20\n      dup2\n      dup4\n      sub\n      sub\n      dup2\n      mstore\n      swap1\n      0x40\n      mstore\n        /* \"Evm/interfaces/shared.sol\":1654:1709  IEvents.Data(\"user\", \"address\", abi.encode(msg.sender)) */\n      dup2\n      mstore\n      pop\n        /* \"Evm/interfaces/shared.sol\":1639:1648  eventData */\n      dup2\n        /* \"Evm/interfaces/shared.sol\":1649:1650  0 */\n      0x00\n        /* \"Evm/interfaces/shared.sol\":1639:1651  eventData[0] */\n      dup2\n      mload\n      dup2\n      lt\n      tag_71\n      jumpi\n      tag_72\n      tag_34\n      jump\t// in\n    tag_72:\n    tag_71:\n      0x20\n      mul\n      0x20\n      add\n      add\n        /* \"Evm/interfaces/shared.sol\":1639:1709  eventData[0] = IEvents.Data(\"user\", \"address\", abi.encode(msg.sender)) */\n      dup2\n      swap1\n      mstore\n      pop\n        /* \"Evm/interfaces/shared.sol\":1735:1794  IEvents.Data(\"sub_owner\", \"address\", abi.encode(sub_owner)) */\n      mload(0x40)\n      dup1\n      0x60\n      add\n      0x40\n      mstore\n      dup1\n      mload(0x40)\n      dup1\n      0x40\n      add\n      0x40\n      mstore\n      dup1\n      0x09\n      dup2\n      mstore\n      0x20\n      add\n      0x7375625f6f776e65720000000000000000000000000000000000000000000000\n      dup2\n      mstore\n      pop\n      dup2\n      mstore\n      0x20\n      add\n      mload(0x40)\n      dup1\n      0x40\n      add\n      0x40\n      mstore\n      dup1\n      0x07\n      dup2\n      mstore\n      0x20\n      add\n      0x6164647265737300000000000000000000000000000000000000000000000000\n      dup2\n      mstore\n      pop\n      dup2\n      mstore\n      0x20\n      add\n        /* \"Evm/interfaces/shared.sol\":1783:1792  sub_owner */\n      dup4\n        /* \"Evm/interfaces/shared.sol\":1772:1793  abi.encode(sub_owner) */\n      add(0x20, mload(0x40))\n      tag_73\n      swap2\n      swap1\n      tag_31\n      jump\t// in\n    tag_73:\n      mload(0x40)\n      0x20\n      dup2\n      dup4\n      sub\n      sub\n      dup2\n      mstore\n      swap1\n      0x40\n      mstore\n        /* \"Evm/interfaces/shared.sol\":1735:1794  IEvents.Data(\"sub_owner\", \"address\", abi.encode(sub_owner)) */\n      dup2\n      mstore\n      pop\n        /* \"Evm/interfaces/shared.sol\":1720:1729  eventData */\n      dup2\n        /* \"Evm/interfaces/shared.sol\":1730:1731  2 */\n      0x02\n        /* \"Evm/interfaces/shared.sol\":1720:1732  eventData[2] */\n      dup2\n      mload\n      dup2\n      lt\n      tag_74\n      jumpi\n      tag_75\n      tag_34\n      jump\t// in\n    tag_75:\n    tag_74:\n      0x20\n      mul\n      0x20\n      add\n      add\n        /* \"Evm/interfaces/shared.sol\":1720:1794  eventData[2] = IEvents.Data(\"sub_owner\", \"address\", abi.encode(sub_owner)) */\n      dup2\n      swap1\n      mstore\n      pop\n        /* \"Evm/interfaces/shared.sol\":1820:1868  IEvents.Data(\"name\", \"string\", abi.encode(name)) */\n      mload(0x40)\n      dup1\n      0x60\n      add\n      0x40\n      mstore\n      dup1\n      mload(0x40)\n      dup1\n      0x40\n      add\n      0x40\n      mstore\n      dup1\n      0x04\n      dup2\n      mstore\n      0x20\n      add\n      0x6e616d6500000000000000000000000000000000000000000000000000000000\n      dup2\n      mstore\n      pop\n      dup2\n      mstore\n      0x20\n      add\n      mload(0x40)\n      dup1\n      0x40\n      add\n      0x40\n      mstore\n      dup1\n      0x06\n      dup2\n      mstore\n      0x20\n      add\n      0x737472696e670000000000000000000000000000000000000000000000000000\n      dup2\n      mstore\n      pop\n      dup2\n      mstore\n      0x20\n      add\n        /* \"Evm/interfaces/shared.sol\":1862:1866  name */\n      dup6\n      dup6\n        /* \"Evm/interfaces/shared.sol\":1851:1867  abi.encode(name) */\n      add(0x20, mload(0x40))\n      tag_76\n      swap3\n      swap2\n      swap1\n      tag_36\n      jump\t// in\n    tag_76:\n      mload(0x40)\n      0x20\n      dup2\n      dup4\n      sub\n      sub\n      dup2\n      mstore\n      swap1\n      0x40\n      mstore\n        /* \"Evm/interfaces/shared.sol\":1820:1868  IEvents.Data(\"name\", \"string\", abi.encode(name)) */\n      dup2\n      mstore\n      pop\n        /* \"Evm/interfaces/shared.sol\":1805:1814  eventData */\n      dup2\n        /* \"Evm/interfaces/shared.sol\":1815:1816  3 */\n      0x03\n        /* \"Evm/interfaces/shared.sol\":1805:1817  eventData[3] */\n      dup2\n      mload\n      dup2\n      lt\n      tag_77\n      jumpi\n      tag_78\n      tag_34\n      jump\t// in\n    tag_78:\n    tag_77:\n      0x20\n      mul\n      0x20\n      add\n      add\n        /* \"Evm/interfaces/shared.sol\":1805:1868  eventData[3] = IEvents.Data(\"name\", \"string\", abi.encode(name)) */\n      dup2\n      swap1\n      mstore\n      pop\n        /* \"Evm/interfaces/shared.sol\":1889:1895  events */\n      immutable(\"0x6d6142e7bc5885f8a3af14e4530d0fef2107c35d29b4827380ff447a51b70068\")\n        /* \"Evm/interfaces/shared.sol\":1889:1910  events.emitVaultEvent */\n      0xffffffffffffffffffffffffffffffffffffffff\n      and\n      0x7d64fa9b\n        /* \"Evm/interfaces/shared.sol\":1948:1957  eventData */\n      dup3\n        /* \"Evm/interfaces/shared.sol\":1889:1958  events.emitVaultEvent(\"Modular Storage Sub Owner Removed\", eventData) */\n      mload(0x40)\n      dup3\n      0xffffffff\n      and\n      0xe0\n      shl\n      dup2\n      mstore\n      0x04\n      add\n      tag_79\n      swap2\n      swap1\n      tag_80\n      jump\t// in\n    tag_79:\n      0x00\n      mload(0x40)\n      dup1\n      dup4\n      sub\n      dup2\n      0x00\n      dup8\n      dup1\n      extcodesize\n      iszero\n      dup1\n      iszero\n      tag_81\n      jumpi\n      revert(0x00, 0x00)\n    tag_81:\n      pop\n      gas\n      call\n      iszero\n      dup1\n      iszero\n      tag_83\n      jumpi\n      returndatacopy(0x00, 0x00, returndatasize)\n      revert(0x00, returndatasize)\n    tag_83:\n      pop\n      pop\n      pop\n      pop\n        /* \"Evm/interfaces/shared.sol\":1549:1966  { ... */\n      pop\n        /* \"Evm/interfaces/shared.sol\":1471:1966  function p_remove_sub_owner(string calldata name, address sub_owner) external { ... */\n      pop\n      pop\n      pop\n      jump\t// out\n    tag_29:\n      mload(0x40)\n      dup1\n      0x60\n      add\n      0x40\n      mstore\n      dup1\n      0x60\n      dup2\n      mstore\n      0x20\n      add\n      0x60\n      dup2\n      mstore\n      0x20\n      add\n      0x60\n      dup2\n      mstore\n      pop\n      swap1\n      jump\t// out\n        /* \"#utility.yul\":88:205   */\n    tag_85:\n        /* \"#utility.yul\":197:198   */\n      0x00\n        /* \"#utility.yul\":194:195   */\n      0x00\n        /* \"#utility.yul\":187:199   */\n      revert\n        /* \"#utility.yul\":211:328   */\n    tag_86:\n        /* \"#utility.yul\":320:321   */\n      0x00\n        /* \"#utility.yul\":317:318   */\n      0x00\n        /* \"#utility.yul\":310:322   */\n      revert\n        /* \"#utility.yul\":334:451   */\n    tag_87:\n        /* \"#utility.yul\":443:444   */\n      0x00\n        /* \"#utility.yul\":440:441   */\n      0x00\n        /* \"#utility.yul\":433:445   */\n      revert\n        /* \"#utility.yul\":457:574   */\n    tag_88:\n        /* \"#utility.yul\":566:567   */\n      0x00\n        /* \"#utility.yul\":563:564   */\n      0x00\n        /* \"#utility.yul\":556:568   */\n      revert\n        /* \"#utility.yul\":580:697   */\n    tag_89:\n        /* \"#utility.yul\":689:690   */\n      0x00\n        /* \"#utility.yul\":686:687   */\n      0x00\n        /* \"#utility.yul\":679:691   */\n      revert\n        /* \"#utility.yul\":717:1270   */\n    tag_90:\n        /* \"#utility.yul\":775:783   */\n      0x00\n        /* \"#utility.yul\":785:791   */\n      0x00\n        /* \"#utility.yul\":835:838   */\n      dup4\n        /* \"#utility.yul\":828:832   */\n      0x1f\n        /* \"#utility.yul\":820:826   */\n      dup5\n        /* \"#utility.yul\":816:833   */\n      add\n        /* \"#utility.yul\":812:839   */\n      slt\n        /* \"#utility.yul\":802:924   */\n      tag_133\n      jumpi\n        /* \"#utility.yul\":843:922   */\n      tag_134\n      tag_87\n      jump\t// in\n    tag_134:\n        /* \"#utility.yul\":802:924   */\n    tag_133:\n        /* \"#utility.yul\":956:962   */\n      dup3\n        /* \"#utility.yul\":943:963   */\n      calldataload\n        /* \"#utility.yul\":933:963   */\n      swap1\n      pop\n        /* \"#utility.yul\":986:1004   */\n      0xffffffffffffffff\n        /* \"#utility.yul\":978:984   */\n      dup2\n        /* \"#utility.yul\":975:1005   */\n      gt\n        /* \"#utility.yul\":972:1089   */\n      iszero\n      tag_135\n      jumpi\n        /* \"#utility.yul\":1008:1087   */\n      tag_136\n      tag_88\n      jump\t// in\n    tag_136:\n        /* \"#utility.yul\":972:1089   */\n    tag_135:\n        /* \"#utility.yul\":1122:1126   */\n      0x20\n        /* \"#utility.yul\":1114:1120   */\n      dup4\n        /* \"#utility.yul\":1110:1127   */\n      add\n        /* \"#utility.yul\":1098:1127   */\n      swap2\n      pop\n        /* \"#utility.yul\":1176:1179   */\n      dup4\n        /* \"#utility.yul\":1168:1172   */\n      0x01\n        /* \"#utility.yul\":1160:1166   */\n      dup3\n        /* \"#utility.yul\":1156:1173   */\n      mul\n        /* \"#utility.yul\":1146:1154   */\n      dup4\n        /* \"#utility.yul\":1142:1174   */\n      add\n        /* \"#utility.yul\":1139:1180   */\n      gt\n        /* \"#utility.yul\":1136:1264   */\n      iszero\n      tag_137\n      jumpi\n        /* \"#utility.yul\":1183:1262   */\n      tag_138\n      tag_89\n      jump\t// in\n    tag_138:\n        /* \"#utility.yul\":1136:1264   */\n    tag_137:\n        /* \"#utility.yul\":717:1270   */\n      swap3\n      pop\n      swap3\n      swap1\n      pop\n      jump\t// out\n        /* \"#utility.yul\":1276:1805   */\n    tag_9:\n        /* \"#utility.yul\":1347:1353   */\n      0x00\n        /* \"#utility.yul\":1355:1361   */\n      0x00\n        /* \"#utility.yul\":1404:1406   */\n      0x20\n        /* \"#utility.yul\":1392:1401   */\n      dup4\n        /* \"#utility.yul\":1383:1390   */\n      dup6\n        /* \"#utility.yul\":1379:1402   */\n      sub\n        /* \"#utility.yul\":1375:1407   */\n      slt\n        /* \"#utility.yul\":1372:1491   */\n      iszero\n      tag_140\n      jumpi\n        /* \"#utility.yul\":1410:1489   */\n      tag_141\n      tag_85\n      jump\t// in\n    tag_141:\n        /* \"#utility.yul\":1372:1491   */\n    tag_140:\n        /* \"#utility.yul\":1558:1559   */\n      0x00\n        /* \"#utility.yul\":1547:1556   */\n      dup4\n        /* \"#utility.yul\":1543:1560   */\n      add\n        /* \"#utility.yul\":1530:1561   */\n      calldataload\n        /* \"#utility.yul\":1588:1606   */\n      0xffffffffffffffff\n        /* \"#utility.yul\":1580:1586   */\n      dup2\n        /* \"#utility.yul\":1577:1607   */\n      gt\n        /* \"#utility.yul\":1574:1691   */\n      iszero\n      tag_142\n      jumpi\n        /* \"#utility.yul\":1610:1689   */\n      tag_143\n      tag_86\n      jump\t// in\n    tag_143:\n        /* \"#utility.yul\":1574:1691   */\n    tag_142:\n        /* \"#utility.yul\":1723:1788   */\n      tag_144\n        /* \"#utility.yul\":1780:1787   */\n      dup6\n        /* \"#utility.yul\":1771:1777   */\n      dup3\n        /* \"#utility.yul\":1760:1769   */\n      dup7\n        /* \"#utility.yul\":1756:1778   */\n      add\n        /* \"#utility.yul\":1723:1788   */\n      tag_90\n      jump\t// in\n    tag_144:\n        /* \"#utility.yul\":1705:1788   */\n      swap3\n      pop\n      swap3\n      pop\n        /* \"#utility.yul\":1501:1798   */\n      pop\n        /* \"#utility.yul\":1276:1805   */\n      swap3\n      pop\n      swap3\n      swap1\n      pop\n      jump\t// out\n        /* \"#utility.yul\":1811:1937   */\n    tag_91:\n        /* \"#utility.yul\":1848:1855   */\n      0x00\n        /* \"#utility.yul\":1888:1930   */\n      0xffffffffffffffffffffffffffffffffffffffff\n        /* \"#utility.yul\":1881:1886   */\n      dup3\n        /* \"#utility.yul\":1877:1931   */\n      and\n        /* \"#utility.yul\":1866:1931   */\n      swap1\n      pop\n        /* \"#utility.yul\":1811:1937   */\n      swap2\n      swap1\n      pop\n      jump\t// out\n        /* \"#utility.yul\":1943:2003   */\n    tag_92:\n        /* \"#utility.yul\":1971:1974   */\n      0x00\n        /* \"#utility.yul\":1992:1997   */\n      dup2\n        /* \"#utility.yul\":1985:1997   */\n      swap1\n      pop\n        /* \"#utility.yul\":1943:2003   */\n      swap2\n      swap1\n      pop\n      jump\t// out\n        /* \"#utility.yul\":2009:2151   */\n    tag_93:\n        /* \"#utility.yul\":2059:2068   */\n      0x00\n        /* \"#utility.yul\":2092:2145   */\n      tag_148\n        /* \"#utility.yul\":2110:2144   */\n      tag_149\n        /* \"#utility.yul\":2119:2143   */\n      tag_150\n        /* \"#utility.yul\":2137:2142   */\n      dup5\n        /* \"#utility.yul\":2119:2143   */\n      tag_91\n      jump\t// in\n    tag_150:\n        /* \"#utility.yul\":2110:2144   */\n      tag_92\n      jump\t// in\n    tag_149:\n        /* \"#utility.yul\":2092:2145   */\n      tag_91\n      jump\t// in\n    tag_148:\n        /* \"#utility.yul\":2079:2145   */\n      swap1\n      pop\n        /* \"#utility.yul\":2009:2151   */\n      swap2\n      swap1\n      pop\n      jump\t// out\n        /* \"#utility.yul\":2157:2283   */\n    tag_94:\n        /* \"#utility.yul\":2207:2216   */\n      0x00\n        /* \"#utility.yul\":2240:2277   */\n      tag_152\n        /* \"#utility.yul\":2271:2276   */\n      dup3\n        /* \"#utility.yul\":2240:2277   */\n      tag_93\n      jump\t// in\n    tag_152:\n        /* \"#utility.yul\":2227:2277   */\n      swap1\n      pop\n        /* \"#utility.yul\":2157:2283   */\n      swap2\n      swap1\n      pop\n      jump\t// out\n        /* \"#utility.yul\":2289:2430   */\n    tag_95:\n        /* \"#utility.yul\":2354:2363   */\n      0x00\n        /* \"#utility.yul\":2387:2424   */\n      tag_154\n        /* \"#utility.yul\":2418:2423   */\n      dup3\n        /* \"#utility.yul\":2387:2424   */\n      tag_94\n      jump\t// in\n    tag_154:\n        /* \"#utility.yul\":2374:2424   */\n      swap1\n      pop\n        /* \"#utility.yul\":2289:2430   */\n      swap2\n      swap1\n      pop\n      jump\t// out\n        /* \"#utility.yul\":2436:2597   */\n    tag_96:\n        /* \"#utility.yul\":2538:2590   */\n      tag_156\n        /* \"#utility.yul\":2584:2589   */\n      dup2\n        /* \"#utility.yul\":2538:2590   */\n      tag_95\n      jump\t// in\n    tag_156:\n        /* \"#utility.yul\":2533:2536   */\n      dup3\n        /* \"#utility.yul\":2526:2591   */\n      mstore\n        /* \"#utility.yul\":2436:2597   */\n      pop\n      pop\n      jump\t// out\n        /* \"#utility.yul\":2603:2855   */\n    tag_14:\n        /* \"#utility.yul\":2711:2715   */\n      0x00\n        /* \"#utility.yul\":2749:2751   */\n      0x20\n        /* \"#utility.yul\":2738:2747   */\n      dup3\n        /* \"#utility.yul\":2734:2752   */\n      add\n        /* \"#utility.yul\":2726:2752   */\n      swap1\n      pop\n        /* \"#utility.yul\":2762:2848   */\n      tag_158\n        /* \"#utility.yul\":2845:2846   */\n      0x00\n        /* \"#utility.yul\":2834:2843   */\n      dup4\n        /* \"#utility.yul\":2830:2847   */\n      add\n        /* \"#utility.yul\":2821:2827   */\n      dup5\n        /* \"#utility.yul\":2762:2848   */\n      tag_96\n      jump\t// in\n    tag_158:\n        /* \"#utility.yul\":2603:2855   */\n      swap3\n      swap2\n      pop\n      pop\n      jump\t// out\n        /* \"#utility.yul\":2861:2957   */\n    tag_97:\n        /* \"#utility.yul\":2898:2905   */\n      0x00\n        /* \"#utility.yul\":2927:2951   */\n      tag_160\n        /* \"#utility.yul\":2945:2950   */\n      dup3\n        /* \"#utility.yul\":2927:2951   */\n      tag_91\n      jump\t// in\n    tag_160:\n        /* \"#utility.yul\":2916:2951   */\n      swap1\n      pop\n        /* \"#utility.yul\":2861:2957   */\n      swap2\n      swap1\n      pop\n      jump\t// out\n        /* \"#utility.yul\":2963:3085   */\n    tag_98:\n        /* \"#utility.yul\":3036:3060   */\n      tag_162\n        /* \"#utility.yul\":3054:3059   */\n      dup2\n        /* \"#utility.yul\":3036:3060   */\n      tag_97\n      jump\t// in\n    tag_162:\n        /* \"#utility.yul\":3029:3034   */\n      dup2\n        /* \"#utility.yul\":3026:3061   */\n      eq\n        /* \"#utility.yul\":3016:3079   */\n      tag_163\n      jumpi\n        /* \"#utility.yul\":3075:3076   */\n      0x00\n        /* \"#utility.yul\":3072:3073   */\n      0x00\n        /* \"#utility.yul\":3065:3077   */\n      revert\n        /* \"#utility.yul\":3016:3079   */\n    tag_163:\n        /* \"#utility.yul\":2963:3085   */\n      pop\n      jump\t// out\n        /* \"#utility.yul\":3091:3230   */\n    tag_99:\n        /* \"#utility.yul\":3137:3142   */\n      0x00\n        /* \"#utility.yul\":3175:3181   */\n      dup2\n        /* \"#utility.yul\":3162:3182   */\n      calldataload\n        /* \"#utility.yul\":3153:3182   */\n      swap1\n      pop\n        /* \"#utility.yul\":3191:3224   */\n      tag_165\n        /* \"#utility.yul\":3218:3223   */\n      dup2\n        /* \"#utility.yul\":3191:3224   */\n      tag_98\n      jump\t// in\n    tag_165:\n        /* \"#utility.yul\":3091:3230   */\n      swap3\n      swap2\n      pop\n      pop\n      jump\t// out\n        /* \"#utility.yul\":3236:3910   */\n    tag_17:\n        /* \"#utility.yul\":3316:3322   */\n      0x00\n        /* \"#utility.yul\":3324:3330   */\n      0x00\n        /* \"#utility.yul\":3332:3338   */\n      0x00\n        /* \"#utility.yul\":3381:3383   */\n      0x40\n        /* \"#utility.yul\":3369:3378   */\n      dup5\n        /* \"#utility.yul\":3360:3367   */\n      dup7\n        /* \"#utility.yul\":3356:3379   */\n      sub\n        /* \"#utility.yul\":3352:3384   */\n      slt\n        /* \"#utility.yul\":3349:3468   */\n      iszero\n      tag_167\n      jumpi\n        /* \"#utility.yul\":3387:3466   */\n      tag_168\n      tag_85\n      jump\t// in\n    tag_168:\n        /* \"#utility.yul\":3349:3468   */\n    tag_167:\n        /* \"#utility.yul\":3535:3536   */\n      0x00\n        /* \"#utility.yul\":3524:3533   */\n      dup5\n        /* \"#utility.yul\":3520:3537   */\n      add\n        /* \"#utility.yul\":3507:3538   */\n      calldataload\n        /* \"#utility.yul\":3565:3583   */\n      0xffffffffffffffff\n        /* \"#utility.yul\":3557:3563   */\n      dup2\n        /* \"#utility.yul\":3554:3584   */\n      gt\n        /* \"#utility.yul\":3551:3668   */\n      iszero\n      tag_169\n      jumpi\n        /* \"#utility.yul\":3587:3666   */\n      tag_170\n      tag_86\n      jump\t// in\n    tag_170:\n        /* \"#utility.yul\":3551:3668   */\n    tag_169:\n        /* \"#utility.yul\":3700:3765   */\n      tag_171\n        /* \"#utility.yul\":3757:3764   */\n      dup7\n        /* \"#utility.yul\":3748:3754   */\n      dup3\n        /* \"#utility.yul\":3737:3746   */\n      dup8\n        /* \"#utility.yul\":3733:3755   */\n      add\n        /* \"#utility.yul\":3700:3765   */\n      tag_90\n      jump\t// in\n    tag_171:\n        /* \"#utility.yul\":3682:3765   */\n      swap4\n      pop\n      swap4\n      pop\n        /* \"#utility.yul\":3478:3775   */\n      pop\n        /* \"#utility.yul\":3814:3816   */\n      0x20\n        /* \"#utility.yul\":3840:3893   */\n      tag_172\n        /* \"#utility.yul\":3885:3892   */\n      dup7\n        /* \"#utility.yul\":3876:3882   */\n      dup3\n        /* \"#utility.yul\":3865:3874   */\n      dup8\n        /* \"#utility.yul\":3861:3883   */\n      add\n        /* \"#utility.yul\":3840:3893   */\n      tag_99\n      jump\t// in\n    tag_172:\n        /* \"#utility.yul\":3830:3893   */\n      swap2\n      pop\n        /* \"#utility.yul\":3785:3903   */\n      pop\n        /* \"#utility.yul\":3236:3910   */\n      swap3\n      pop\n      swap3\n      pop\n      swap3\n      jump\t// out\n        /* \"#utility.yul\":3916:4096   */\n    tag_25:\n        /* \"#utility.yul\":3964:4041   */\n      0x4e487b7100000000000000000000000000000000000000000000000000000000\n        /* \"#utility.yul\":3961:3962   */\n      0x00\n        /* \"#utility.yul\":3954:4042   */\n      mstore\n        /* \"#utility.yul\":4061:4065   */\n      0x41\n        /* \"#utility.yul\":4058:4059   */\n      0x04\n        /* \"#utility.yul\":4051:4066   */\n      mstore\n        /* \"#utility.yul\":4085:4089   */\n      0x24\n        /* \"#utility.yul\":4082:4083   */\n      0x00\n        /* \"#utility.yul\":4075:4090   */\n      revert\n        /* \"#utility.yul\":4102:4220   */\n    tag_100:\n        /* \"#utility.yul\":4189:4213   */\n      tag_175\n        /* \"#utility.yul\":4207:4212   */\n      dup2\n        /* \"#utility.yul\":4189:4213   */\n      tag_97\n      jump\t// in\n    tag_175:\n        /* \"#utility.yul\":4184:4187   */\n      dup3\n        /* \"#utility.yul\":4177:4214   */\n      mstore\n        /* \"#utility.yul\":4102:4220   */\n      pop\n      pop\n      jump\t// out\n        /* \"#utility.yul\":4226:4448   */\n    tag_31:\n        /* \"#utility.yul\":4319:4323   */\n      0x00\n        /* \"#utility.yul\":4357:4359   */\n      0x20\n        /* \"#utility.yul\":4346:4355   */\n      dup3\n        /* \"#utility.yul\":4342:4360   */\n      add\n        /* \"#utility.yul\":4334:4360   */\n      swap1\n      pop\n        /* \"#utility.yul\":4370:4441   */\n      tag_177\n        /* \"#utility.yul\":4438:4439   */\n      0x00\n        /* \"#utility.yul\":4427:4436   */\n      dup4\n        /* \"#utility.yul\":4423:4440   */\n      add\n        /* \"#utility.yul\":4414:4420   */\n      dup5\n        /* \"#utility.yul\":4370:4441   */\n      tag_100\n      jump\t// in\n    tag_177:\n        /* \"#utility.yul\":4226:4448   */\n      swap3\n      swap2\n      pop\n      pop\n      jump\t// out\n        /* \"#utility.yul\":4454:4634   */\n    tag_34:\n        /* \"#utility.yul\":4502:4579   */\n      0x4e487b7100000000000000000000000000000000000000000000000000000000\n        /* \"#utility.yul\":4499:4500   */\n      0x00\n        /* \"#utility.yul\":4492:4580   */\n      mstore\n        /* \"#utility.yul\":4599:4603   */\n      0x32\n        /* \"#utility.yul\":4596:4597   */\n      0x04\n        /* \"#utility.yul\":4589:4604   */\n      mstore\n        /* \"#utility.yul\":4623:4627   */\n      0x24\n        /* \"#utility.yul\":4620:4621   */\n      0x00\n        /* \"#utility.yul\":4613:4628   */\n      revert\n        /* \"#utility.yul\":4640:4809   */\n    tag_101:\n        /* \"#utility.yul\":4724:4735   */\n      0x00\n        /* \"#utility.yul\":4758:4764   */\n      dup3\n        /* \"#utility.yul\":4753:4756   */\n      dup3\n        /* \"#utility.yul\":4746:4765   */\n      mstore\n        /* \"#utility.yul\":4798:4802   */\n      0x20\n        /* \"#utility.yul\":4793:4796   */\n      dup3\n        /* \"#utility.yul\":4789:4803   */\n      add\n        /* \"#utility.yul\":4774:4803   */\n      swap1\n      pop\n        /* \"#utility.yul\":4640:4809   */\n      swap3\n      swap2\n      pop\n      pop\n      jump\t// out\n        /* \"#utility.yul\":4815:4963   */\n    tag_102:\n        /* \"#utility.yul\":4913:4919   */\n      dup3\n        /* \"#utility.yul\":4908:4911   */\n      dup2\n        /* \"#utility.yul\":4903:4906   */\n      dup4\n        /* \"#utility.yul\":4890:4920   */\n      calldatacopy\n        /* \"#utility.yul\":4954:4955   */\n      0x00\n        /* \"#utility.yul\":4945:4951   */\n      dup4\n        /* \"#utility.yul\":4940:4943   */\n      dup4\n        /* \"#utility.yul\":4936:4952   */\n      add\n        /* \"#utility.yul\":4929:4956   */\n      mstore\n        /* \"#utility.yul\":4815:4963   */\n      pop\n      pop\n      pop\n      jump\t// out\n        /* \"#utility.yul\":4969:5071   */\n    tag_103:\n        /* \"#utility.yul\":5010:5016   */\n      0x00\n        /* \"#utility.yul\":5061:5063   */\n      0x1f\n        /* \"#utility.yul\":5057:5064   */\n      not\n        /* \"#utility.yul\":5052:5054   */\n      0x1f\n        /* \"#utility.yul\":5045:5050   */\n      dup4\n        /* \"#utility.yul\":5041:5055   */\n      add\n        /* \"#utility.yul\":5037:5065   */\n      and\n        /* \"#utility.yul\":5027:5065   */\n      swap1\n      pop\n        /* \"#utility.yul\":4969:5071   */\n      swap2\n      swap1\n      pop\n      jump\t// out\n        /* \"#utility.yul\":5101:5418   */\n    tag_104:\n        /* \"#utility.yul\":5199:5202   */\n      0x00\n        /* \"#utility.yul\":5220:5291   */\n      tag_183\n        /* \"#utility.yul\":5284:5290   */\n      dup4\n        /* \"#utility.yul\":5279:5282   */\n      dup6\n        /* \"#utility.yul\":5220:5291   */\n      tag_101\n      jump\t// in\n    tag_183:\n        /* \"#utility.yul\":5213:5291   */\n      swap4\n      pop\n        /* \"#utility.yul\":5301:5357   */\n      tag_184\n        /* \"#utility.yul\":5350:5356   */\n      dup4\n        /* \"#utility.yul\":5345:5348   */\n      dup6\n        /* \"#utility.yul\":5338:5343   */\n      dup5\n        /* \"#utility.yul\":5301:5357   */\n      tag_102\n      jump\t// in\n    tag_184:\n        /* \"#utility.yul\":5382:5411   */\n      tag_185\n        /* \"#utility.yul\":5404:5410   */\n      dup4\n        /* \"#utility.yul\":5382:5411   */\n      tag_103\n      jump\t// in\n    tag_185:\n        /* \"#utility.yul\":5377:5380   */\n      dup5\n        /* \"#utility.yul\":5373:5412   */\n      add\n        /* \"#utility.yul\":5366:5412   */\n      swap1\n      pop\n        /* \"#utility.yul\":5101:5418   */\n      swap4\n      swap3\n      pop\n      pop\n      pop\n      jump\t// out\n        /* \"#utility.yul\":5424:5757   */\n    tag_36:\n        /* \"#utility.yul\":5547:5551   */\n      0x00\n        /* \"#utility.yul\":5585:5587   */\n      0x20\n        /* \"#utility.yul\":5574:5583   */\n      dup3\n        /* \"#utility.yul\":5570:5588   */\n      add\n        /* \"#utility.yul\":5562:5588   */\n      swap1\n      pop\n        /* \"#utility.yul\":5634:5643   */\n      dup2\n        /* \"#utility.yul\":5628:5632   */\n      dup2\n        /* \"#utility.yul\":5624:5644   */\n      sub\n        /* \"#utility.yul\":5620:5621   */\n      0x00\n        /* \"#utility.yul\":5609:5618   */\n      dup4\n        /* \"#utility.yul\":5605:5622   */\n      add\n        /* \"#utility.yul\":5598:5645   */\n      mstore\n        /* \"#utility.yul\":5662:5750   */\n      tag_187\n        /* \"#utility.yul\":5745:5749   */\n      dup2\n        /* \"#utility.yul\":5736:5742   */\n      dup5\n        /* \"#utility.yul\":5728:5734   */\n      dup7\n        /* \"#utility.yul\":5662:5750   */\n      tag_104\n      jump\t// in\n    tag_187:\n        /* \"#utility.yul\":5654:5750   */\n      swap1\n      pop\n        /* \"#utility.yul\":5424:5757   */\n      swap4\n      swap3\n      pop\n      pop\n      pop\n      jump\t// out\n        /* \"#utility.yul\":5763:5937   */\n    tag_105:\n        /* \"#utility.yul\":5903:5929   */\n      0x4d6f64756c61722053746f72616765204372656174696f6e0000000000000000\n        /* \"#utility.yul\":5899:5900   */\n      0x00\n        /* \"#utility.yul\":5891:5897   */\n      dup3\n        /* \"#utility.yul\":5887:5901   */\n      add\n        /* \"#utility.yul\":5880:5930   */\n      mstore\n        /* \"#utility.yul\":5763:5937   */\n      pop\n      jump\t// out\n        /* \"#utility.yul\":5943:6309   */\n    tag_106:\n        /* \"#utility.yul\":6085:6088   */\n      0x00\n        /* \"#utility.yul\":6106:6173   */\n      tag_190\n        /* \"#utility.yul\":6170:6172   */\n      0x18\n        /* \"#utility.yul\":6165:6168   */\n      dup4\n        /* \"#utility.yul\":6106:6173   */\n      tag_101\n      jump\t// in\n    tag_190:\n        /* \"#utility.yul\":6099:6173   */\n      swap2\n      pop\n        /* \"#utility.yul\":6182:6275   */\n      tag_191\n        /* \"#utility.yul\":6271:6274   */\n      dup3\n        /* \"#utility.yul\":6182:6275   */\n      tag_105\n      jump\t// in\n    tag_191:\n        /* \"#utility.yul\":6300:6302   */\n      0x20\n        /* \"#utility.yul\":6295:6298   */\n      dup3\n        /* \"#utility.yul\":6291:6303   */\n      add\n        /* \"#utility.yul\":6284:6303   */\n      swap1\n      pop\n        /* \"#utility.yul\":5943:6309   */\n      swap2\n      swap1\n      pop\n      jump\t// out\n        /* \"#utility.yul\":6315:6450   */\n    tag_107:\n        /* \"#utility.yul\":6403:6409   */\n      0x00\n        /* \"#utility.yul\":6437:6442   */\n      dup2\n        /* \"#utility.yul\":6431:6443   */\n      mload\n        /* \"#utility.yul\":6421:6443   */\n      swap1\n      pop\n        /* \"#utility.yul\":6315:6450   */\n      swap2\n      swap1\n      pop\n      jump\t// out\n        /* \"#utility.yul\":6456:6661   */\n    tag_108:\n        /* \"#utility.yul\":6576:6587   */\n      0x00\n        /* \"#utility.yul\":6610:6616   */\n      dup3\n        /* \"#utility.yul\":6605:6608   */\n      dup3\n        /* \"#utility.yul\":6598:6617   */\n      mstore\n        /* \"#utility.yul\":6650:6654   */\n      0x20\n        /* \"#utility.yul\":6645:6648   */\n      dup3\n        /* \"#utility.yul\":6641:6655   */\n      add\n        /* \"#utility.yul\":6626:6655   */\n      swap1\n      pop\n        /* \"#utility.yul\":6456:6661   */\n      swap3\n      swap2\n      pop\n      pop\n      jump\t// out\n        /* \"#utility.yul\":6667:6820   */\n    tag_109:\n        /* \"#utility.yul\":6755:6759   */\n      0x00\n        /* \"#utility.yul\":6778:6781   */\n      dup2\n        /* \"#utility.yul\":6770:6781   */\n      swap1\n      pop\n        /* \"#utility.yul\":6808:6812   */\n      0x20\n        /* \"#utility.yul\":6803:6806   */\n      dup3\n        /* \"#utility.yul\":6799:6813   */\n      add\n        /* \"#utility.yul\":6791:6813   */\n      swap1\n      pop\n        /* \"#utility.yul\":6667:6820   */\n      swap2\n      swap1\n      pop\n      jump\t// out\n        /* \"#utility.yul\":6826:6925   */\n    tag_110:\n        /* \"#utility.yul\":6878:6884   */\n      0x00\n        /* \"#utility.yul\":6912:6917   */\n      dup2\n        /* \"#utility.yul\":6906:6918   */\n      mload\n        /* \"#utility.yul\":6896:6918   */\n      swap1\n      pop\n        /* \"#utility.yul\":6826:6925   */\n      swap2\n      swap1\n      pop\n      jump\t// out\n        /* \"#utility.yul\":6931:7090   */\n    tag_111:\n        /* \"#utility.yul\":7005:7016   */\n      0x00\n        /* \"#utility.yul\":7039:7045   */\n      dup3\n        /* \"#utility.yul\":7034:7037   */\n      dup3\n        /* \"#utility.yul\":7027:7046   */\n      mstore\n        /* \"#utility.yul\":7079:7083   */\n      0x20\n        /* \"#utility.yul\":7074:7077   */\n      dup3\n        /* \"#utility.yul\":7070:7084   */\n      add\n        /* \"#utility.yul\":7055:7084   */\n      swap1\n      pop\n        /* \"#utility.yul\":6931:7090   */\n      swap3\n      swap2\n      pop\n      pop\n      jump\t// out\n        /* \"#utility.yul\":7096:7235   */\n    tag_112:\n        /* \"#utility.yul\":7185:7191   */\n      dup3\n        /* \"#utility.yul\":7180:7183   */\n      dup2\n        /* \"#utility.yul\":7175:7178   */\n      dup4\n        /* \"#utility.yul\":7169:7192   */\n      mcopy\n        /* \"#utility.yul\":7226:7227   */\n      0x00\n        /* \"#utility.yul\":7217:7223   */\n      dup4\n        /* \"#utility.yul\":7212:7215   */\n      dup4\n        /* \"#utility.yul\":7208:7224   */\n      add\n        /* \"#utility.yul\":7201:7228   */\n      mstore\n        /* \"#utility.yul\":7096:7235   */\n      pop\n      pop\n      pop\n      jump\t// out\n        /* \"#utility.yul\":7241:7598   */\n    tag_113:\n        /* \"#utility.yul\":7319:7322   */\n      0x00\n        /* \"#utility.yul\":7347:7386   */\n      tag_199\n        /* \"#utility.yul\":7380:7385   */\n      dup3\n        /* \"#utility.yul\":7347:7386   */\n      tag_110\n      jump\t// in\n    tag_199:\n        /* \"#utility.yul\":7402:7463   */\n      tag_200\n        /* \"#utility.yul\":7456:7462   */\n      dup2\n        /* \"#utility.yul\":7451:7454   */\n      dup6\n        /* \"#utility.yul\":7402:7463   */\n      tag_111\n      jump\t// in\n    tag_200:\n        /* \"#utility.yul\":7395:7463   */\n      swap4\n      pop\n        /* \"#utility.yul\":7472:7537   */\n      tag_201\n        /* \"#utility.yul\":7530:7536   */\n      dup2\n        /* \"#utility.yul\":7525:7528   */\n      dup6\n        /* \"#utility.yul\":7518:7522   */\n      0x20\n        /* \"#utility.yul\":7511:7516   */\n      dup7\n        /* \"#utility.yul\":7507:7523   */\n      add\n        /* \"#utility.yul\":7472:7537   */\n      tag_112\n      jump\t// in\n    tag_201:\n        /* \"#utility.yul\":7562:7591   */\n      tag_202\n        /* \"#utility.yul\":7584:7590   */\n      dup2\n        /* \"#utility.yul\":7562:7591   */\n      tag_103\n      jump\t// in\n    tag_202:\n        /* \"#utility.yul\":7557:7560   */\n      dup5\n        /* \"#utility.yul\":7553:7592   */\n      add\n        /* \"#utility.yul\":7546:7592   */\n      swap2\n      pop\n        /* \"#utility.yul\":7323:7598   */\n      pop\n        /* \"#utility.yul\":7241:7598   */\n      swap3\n      swap2\n      pop\n      pop\n      jump\t// out\n        /* \"#utility.yul\":7604:7702   */\n    tag_114:\n        /* \"#utility.yul\":7655:7661   */\n      0x00\n        /* \"#utility.yul\":7689:7694   */\n      dup2\n        /* \"#utility.yul\":7683:7695   */\n      mload\n        /* \"#utility.yul\":7673:7695   */\n      swap1\n      pop\n        /* \"#utility.yul\":7604:7702   */\n      swap2\n      swap1\n      pop\n      jump\t// out\n        /* \"#utility.yul\":7708:7866   */\n    tag_115:\n        /* \"#utility.yul\":7781:7792   */\n      0x00\n        /* \"#utility.yul\":7815:7821   */\n      dup3\n        /* \"#utility.yul\":7810:7813   */\n      dup3\n        /* \"#utility.yul\":7803:7822   */\n      mstore\n        /* \"#utility.yul\":7855:7859   */\n      0x20\n        /* \"#utility.yul\":7850:7853   */\n      dup3\n        /* \"#utility.yul\":7846:7860   */\n      add\n        /* \"#utility.yul\":7831:7860   */\n      swap1\n      pop\n        /* \"#utility.yul\":7708:7866   */\n      swap3\n      swap2\n      pop\n      pop\n      jump\t// out\n        /* \"#utility.yul\":7872:8225   */\n    tag_116:\n        /* \"#utility.yul\":7948:7951   */\n      0x00\n        /* \"#utility.yul\":7976:8014   */\n      tag_206\n        /* \"#utility.yul\":8008:8013   */\n      dup3\n        /* \"#utility.yul\":7976:8014   */\n      tag_114\n      jump\t// in\n    tag_206:\n        /* \"#utility.yul\":8030:8090   */\n      tag_207\n        /* \"#utility.yul\":8083:8089   */\n      dup2\n        /* \"#utility.yul\":8078:8081   */\n      dup6\n        /* \"#utility.yul\":8030:8090   */\n      tag_115\n      jump\t// in\n    tag_207:\n        /* \"#utility.yul\":8023:8090   */\n      swap4\n      pop\n        /* \"#utility.yul\":8099:8164   */\n      tag_208\n        /* \"#utility.yul\":8157:8163   */\n      dup2\n        /* \"#utility.yul\":8152:8155   */\n      dup6\n        /* \"#utility.yul\":8145:8149   */\n      0x20\n        /* \"#utility.yul\":8138:8143   */\n      dup7\n        /* \"#utility.yul\":8134:8150   */\n      add\n        /* \"#utility.yul\":8099:8164   */\n      tag_112\n      jump\t// in\n    tag_208:\n        /* \"#utility.yul\":8189:8218   */\n      tag_209\n        /* \"#utility.yul\":8211:8217   */\n      dup2\n        /* \"#utility.yul\":8189:8218   */\n      tag_103\n      jump\t// in\n    tag_209:\n        /* \"#utility.yul\":8184:8187   */\n      dup5\n        /* \"#utility.yul\":8180:8219   */\n      add\n        /* \"#utility.yul\":8173:8219   */\n      swap2\n      pop\n        /* \"#utility.yul\":7952:8225   */\n      pop\n        /* \"#utility.yul\":7872:8225   */\n      swap3\n      swap2\n      pop\n      pop\n      jump\t// out\n        /* \"#utility.yul\":8281:9188   */\n    tag_117:\n        /* \"#utility.yul\":8382:8385   */\n      0x00\n        /* \"#utility.yul\":8418:8422   */\n      0x60\n        /* \"#utility.yul\":8413:8416   */\n      dup4\n        /* \"#utility.yul\":8409:8423   */\n      add\n        /* \"#utility.yul\":8505:8509   */\n      0x00\n        /* \"#utility.yul\":8498:8503   */\n      dup4\n        /* \"#utility.yul\":8494:8510   */\n      add\n        /* \"#utility.yul\":8488:8511   */\n      mload\n        /* \"#utility.yul\":8558:8561   */\n      dup5\n        /* \"#utility.yul\":8552:8556   */\n      dup3\n        /* \"#utility.yul\":8548:8562   */\n      sub\n        /* \"#utility.yul\":8541:8545   */\n      0x00\n        /* \"#utility.yul\":8536:8539   */\n      dup7\n        /* \"#utility.yul\":8532:8546   */\n      add\n        /* \"#utility.yul\":8525:8563   */\n      mstore\n        /* \"#utility.yul\":8584:8657   */\n      tag_211\n        /* \"#utility.yul\":8652:8656   */\n      dup3\n        /* \"#utility.yul\":8638:8650   */\n      dup3\n        /* \"#utility.yul\":8584:8657   */\n      tag_113\n      jump\t// in\n    tag_211:\n        /* \"#utility.yul\":8576:8657   */\n      swap2\n      pop\n        /* \"#utility.yul\":8433:8668   */\n      pop\n        /* \"#utility.yul\":8754:8758   */\n      0x20\n        /* \"#utility.yul\":8747:8752   */\n      dup4\n        /* \"#utility.yul\":8743:8759   */\n      add\n        /* \"#utility.yul\":8737:8760   */\n      mload\n        /* \"#utility.yul\":8807:8810   */\n      dup5\n        /* \"#utility.yul\":8801:8805   */\n      dup3\n        /* \"#utility.yul\":8797:8811   */\n      sub\n        /* \"#utility.yul\":8790:8794   */\n      0x20\n        /* \"#utility.yul\":8785:8788   */\n      dup7\n        /* \"#utility.yul\":8781:8795   */\n      add\n        /* \"#utility.yul\":8774:8812   */\n      mstore\n        /* \"#utility.yul\":8833:8906   */\n      tag_212\n        /* \"#utility.yul\":8901:8905   */\n      dup3\n        /* \"#utility.yul\":8887:8899   */\n      dup3\n        /* \"#utility.yul\":8833:8906   */\n      tag_113\n      jump\t// in\n    tag_212:\n        /* \"#utility.yul\":8825:8906   */\n      swap2\n      pop\n        /* \"#utility.yul\":8678:8917   */\n      pop\n        /* \"#utility.yul\":9000:9004   */\n      0x40\n        /* \"#utility.yul\":8993:8998   */\n      dup4\n        /* \"#utility.yul\":8989:9005   */\n      add\n        /* \"#utility.yul\":8983:9006   */\n      mload\n        /* \"#utility.yul\":9053:9056   */\n      dup5\n        /* \"#utility.yul\":9047:9051   */\n      dup3\n        /* \"#utility.yul\":9043:9057   */\n      sub\n        /* \"#utility.yul\":9036:9040   */\n      0x40\n        /* \"#utility.yul\":9031:9034   */\n      dup7\n        /* \"#utility.yul\":9027:9041   */\n      add\n        /* \"#utility.yul\":9020:9058   */\n      mstore\n        /* \"#utility.yul\":9079:9150   */\n      tag_213\n        /* \"#utility.yul\":9145:9149   */\n      dup3\n        /* \"#utility.yul\":9131:9143   */\n      dup3\n        /* \"#utility.yul\":9079:9150   */\n      tag_116\n      jump\t// in\n    tag_213:\n        /* \"#utility.yul\":9071:9150   */\n      swap2\n      pop\n        /* \"#utility.yul\":8927:9161   */\n      pop\n        /* \"#utility.yul\":9178:9182   */\n      dup1\n        /* \"#utility.yul\":9171:9182   */\n      swap2\n      pop\n        /* \"#utility.yul\":8387:9188   */\n      pop\n        /* \"#utility.yul\":8281:9188   */\n      swap3\n      swap2\n      pop\n      pop\n      jump\t// out\n        /* \"#utility.yul\":9194:9434   */\n    tag_118:\n        /* \"#utility.yul\":9305:9315   */\n      0x00\n        /* \"#utility.yul\":9340:9428   */\n      tag_215\n        /* \"#utility.yul\":9424:9427   */\n      dup4\n        /* \"#utility.yul\":9416:9422   */\n      dup4\n        /* \"#utility.yul\":9340:9428   */\n      tag_117\n      jump\t// in\n    tag_215:\n        /* \"#utility.yul\":9326:9428   */\n      swap1\n      pop\n        /* \"#utility.yul\":9194:9434   */\n      swap3\n      swap2\n      pop\n      pop\n      jump\t// out\n        /* \"#utility.yul\":9440:9574   */\n    tag_119:\n        /* \"#utility.yul\":9531:9535   */\n      0x00\n        /* \"#utility.yul\":9563:9567   */\n      0x20\n        /* \"#utility.yul\":9558:9561   */\n      dup3\n        /* \"#utility.yul\":9554:9568   */\n      add\n        /* \"#utility.yul\":9546:9568   */\n      swap1\n      pop\n        /* \"#utility.yul\":9440:9574   */\n      swap2\n      swap1\n      pop\n      jump\t// out\n        /* \"#utility.yul\":9634:10713   */\n    tag_120:\n        /* \"#utility.yul\":9795:9798   */\n      0x00\n        /* \"#utility.yul\":9824:9899   */\n      tag_218\n        /* \"#utility.yul\":9893:9898   */\n      dup3\n        /* \"#utility.yul\":9824:9899   */\n      tag_107\n      jump\t// in\n    tag_218:\n        /* \"#utility.yul\":9915:10022   */\n      tag_219\n        /* \"#utility.yul\":10015:10021   */\n      dup2\n        /* \"#utility.yul\":10010:10013   */\n      dup6\n        /* \"#utility.yul\":9915:10022   */\n      tag_108\n      jump\t// in\n    tag_219:\n        /* \"#utility.yul\":9908:10022   */\n      swap4\n      pop\n        /* \"#utility.yul\":10048:10051   */\n      dup4\n        /* \"#utility.yul\":10093:10097   */\n      0x20\n        /* \"#utility.yul\":10085:10091   */\n      dup3\n        /* \"#utility.yul\":10081:10098   */\n      mul\n        /* \"#utility.yul\":10076:10079   */\n      dup6\n        /* \"#utility.yul\":10072:10099   */\n      add\n        /* \"#utility.yul\":10123:10200   */\n      tag_220\n        /* \"#utility.yul\":10194:10199   */\n      dup6\n        /* \"#utility.yul\":10123:10200   */\n      tag_109\n      jump\t// in\n    tag_220:\n        /* \"#utility.yul\":10223:10230   */\n      dup1\n        /* \"#utility.yul\":10254:10255   */\n      0x00\n        /* \"#utility.yul\":10239:10668   */\n    tag_221:\n        /* \"#utility.yul\":10264:10270   */\n      dup6\n        /* \"#utility.yul\":10261:10262   */\n      dup2\n        /* \"#utility.yul\":10258:10271   */\n      lt\n        /* \"#utility.yul\":10239:10668   */\n      iszero\n      tag_223\n      jumpi\n        /* \"#utility.yul\":10335:10344   */\n      dup5\n        /* \"#utility.yul\":10329:10333   */\n      dup5\n        /* \"#utility.yul\":10325:10345   */\n      sub\n        /* \"#utility.yul\":10320:10323   */\n      dup10\n        /* \"#utility.yul\":10313:10346   */\n      mstore\n        /* \"#utility.yul\":10386:10392   */\n      dup2\n        /* \"#utility.yul\":10380:10393   */\n      mload\n        /* \"#utility.yul\":10414:10520   */\n      tag_224\n        /* \"#utility.yul\":10515:10519   */\n      dup6\n        /* \"#utility.yul\":10500:10513   */\n      dup3\n        /* \"#utility.yul\":10414:10520   */\n      tag_118\n      jump\t// in\n    tag_224:\n        /* \"#utility.yul\":10406:10520   */\n      swap5\n      pop\n        /* \"#utility.yul\":10543:10624   */\n      tag_225\n        /* \"#utility.yul\":10617:10623   */\n      dup4\n        /* \"#utility.yul\":10543:10624   */\n      tag_119\n      jump\t// in\n    tag_225:\n        /* \"#utility.yul\":10533:10624   */\n      swap3\n      pop\n        /* \"#utility.yul\":10653:10657   */\n      0x20\n        /* \"#utility.yul\":10648:10651   */\n      dup11\n        /* \"#utility.yul\":10644:10658   */\n      add\n        /* \"#utility.yul\":10637:10658   */\n      swap10\n      pop\n        /* \"#utility.yul\":10299:10668   */\n      pop\n        /* \"#utility.yul\":10286:10287   */\n      0x01\n        /* \"#utility.yul\":10283:10284   */\n      dup2\n        /* \"#utility.yul\":10279:10288   */\n      add\n        /* \"#utility.yul\":10274:10288   */\n      swap1\n      pop\n        /* \"#utility.yul\":10239:10668   */\n      jump(tag_221)\n    tag_223:\n        /* \"#utility.yul\":10243:10257   */\n      pop\n        /* \"#utility.yul\":10684:10688   */\n      dup3\n        /* \"#utility.yul\":10677:10688   */\n      swap8\n      pop\n        /* \"#utility.yul\":10704:10707   */\n      dup8\n        /* \"#utility.yul\":10697:10707   */\n      swap6\n      pop\n        /* \"#utility.yul\":9800:10713   */\n      pop\n      pop\n      pop\n      pop\n      pop\n        /* \"#utility.yul\":9634:10713   */\n      swap3\n      swap2\n      pop\n      pop\n      jump\t// out\n        /* \"#utility.yul\":10719:11483   */\n    tag_40:\n        /* \"#utility.yul\":11005:11009   */\n      0x00\n        /* \"#utility.yul\":11043:11045   */\n      0x40\n        /* \"#utility.yul\":11032:11041   */\n      dup3\n        /* \"#utility.yul\":11028:11046   */\n      add\n        /* \"#utility.yul\":11020:11046   */\n      swap1\n      pop\n        /* \"#utility.yul\":11092:11101   */\n      dup2\n        /* \"#utility.yul\":11086:11090   */\n      dup2\n        /* \"#utility.yul\":11082:11102   */\n      sub\n        /* \"#utility.yul\":11078:11079   */\n      0x00\n        /* \"#utility.yul\":11067:11076   */\n      dup4\n        /* \"#utility.yul\":11063:11080   */\n      add\n        /* \"#utility.yul\":11056:11103   */\n      mstore\n        /* \"#utility.yul\":11120:11251   */\n      tag_227\n        /* \"#utility.yul\":11246:11250   */\n      dup2\n        /* \"#utility.yul\":11120:11251   */\n      tag_106\n      jump\t// in\n    tag_227:\n        /* \"#utility.yul\":11112:11251   */\n      swap1\n      pop\n        /* \"#utility.yul\":11298:11307   */\n      dup2\n        /* \"#utility.yul\":11292:11296   */\n      dup2\n        /* \"#utility.yul\":11288:11308   */\n      sub\n        /* \"#utility.yul\":11283:11285   */\n      0x20\n        /* \"#utility.yul\":11272:11281   */\n      dup4\n        /* \"#utility.yul\":11268:11286   */\n      add\n        /* \"#utility.yul\":11261:11309   */\n      mstore\n        /* \"#utility.yul\":11326:11476   */\n      tag_228\n        /* \"#utility.yul\":11471:11475   */\n      dup2\n        /* \"#utility.yul\":11462:11468   */\n      dup5\n        /* \"#utility.yul\":11326:11476   */\n      tag_120\n      jump\t// in\n    tag_228:\n        /* \"#utility.yul\":11318:11476   */\n      swap1\n      pop\n        /* \"#utility.yul\":10719:11483   */\n      swap3\n      swap2\n      pop\n      pop\n      jump\t// out\n        /* \"#utility.yul\":11489:11670   */\n    tag_121:\n        /* \"#utility.yul\":11629:11662   */\n      0x4d6f64756c61722053746f7261676520537562204f776e657220416464656400\n        /* \"#utility.yul\":11625:11626   */\n      0x00\n        /* \"#utility.yul\":11617:11623   */\n      dup3\n        /* \"#utility.yul\":11613:11627   */\n      add\n        /* \"#utility.yul\":11606:11663   */\n      mstore\n        /* \"#utility.yul\":11489:11670   */\n      pop\n      jump\t// out\n        /* \"#utility.yul\":11676:12042   */\n    tag_122:\n        /* \"#utility.yul\":11818:11821   */\n      0x00\n        /* \"#utility.yul\":11839:11906   */\n      tag_231\n        /* \"#utility.yul\":11903:11905   */\n      0x1f\n        /* \"#utility.yul\":11898:11901   */\n      dup4\n        /* \"#utility.yul\":11839:11906   */\n      tag_101\n      jump\t// in\n    tag_231:\n        /* \"#utility.yul\":11832:11906   */\n      swap2\n      pop\n        /* \"#utility.yul\":11915:12008   */\n      tag_232\n        /* \"#utility.yul\":12004:12007   */\n      dup3\n        /* \"#utility.yul\":11915:12008   */\n      tag_121\n      jump\t// in\n    tag_232:\n        /* \"#utility.yul\":12033:12035   */\n      0x20\n        /* \"#utility.yul\":12028:12031   */\n      dup3\n        /* \"#utility.yul\":12024:12036   */\n      add\n        /* \"#utility.yul\":12017:12036   */\n      swap1\n      pop\n        /* \"#utility.yul\":11676:12042   */\n      swap2\n      swap1\n      pop\n      jump\t// out\n        /* \"#utility.yul\":12048:12812   */\n    tag_60:\n        /* \"#utility.yul\":12334:12338   */\n      0x00\n        /* \"#utility.yul\":12372:12374   */\n      0x40\n        /* \"#utility.yul\":12361:12370   */\n      dup3\n        /* \"#utility.yul\":12357:12375   */\n      add\n        /* \"#utility.yul\":12349:12375   */\n      swap1\n      pop\n        /* \"#utility.yul\":12421:12430   */\n      dup2\n        /* \"#utility.yul\":12415:12419   */\n      dup2\n        /* \"#utility.yul\":12411:12431   */\n      sub\n        /* \"#utility.yul\":12407:12408   */\n      0x00\n        /* \"#utility.yul\":12396:12405   */\n      dup4\n        /* \"#utility.yul\":12392:12409   */\n      add\n        /* \"#utility.yul\":12385:12432   */\n      mstore\n        /* \"#utility.yul\":12449:12580   */\n      tag_234\n        /* \"#utility.yul\":12575:12579   */\n      dup2\n        /* \"#utility.yul\":12449:12580   */\n      tag_122\n      jump\t// in\n    tag_234:\n        /* \"#utility.yul\":12441:12580   */\n      swap1\n      pop\n        /* \"#utility.yul\":12627:12636   */\n      dup2\n        /* \"#utility.yul\":12621:12625   */\n      dup2\n        /* \"#utility.yul\":12617:12637   */\n      sub\n        /* \"#utility.yul\":12612:12614   */\n      0x20\n        /* \"#utility.yul\":12601:12610   */\n      dup4\n        /* \"#utility.yul\":12597:12615   */\n      add\n        /* \"#utility.yul\":12590:12638   */\n      mstore\n        /* \"#utility.yul\":12655:12805   */\n      tag_235\n        /* \"#utility.yul\":12800:12804   */\n      dup2\n        /* \"#utility.yul\":12791:12797   */\n      dup5\n        /* \"#utility.yul\":12655:12805   */\n      tag_120\n      jump\t// in\n    tag_235:\n        /* \"#utility.yul\":12647:12805   */\n      swap1\n      pop\n        /* \"#utility.yul\":12048:12812   */\n      swap3\n      swap2\n      pop\n      pop\n      jump\t// out\n        /* \"#utility.yul\":12818:13038   */\n    tag_123:\n        /* \"#utility.yul\":12958:12992   */\n      0x4d6f64756c61722053746f7261676520537562204f776e65722052656d6f7665\n        /* \"#utility.yul\":12954:12955   */\n      0x00\n        /* \"#utility.yul\":12946:12952   */\n      dup3\n        /* \"#utility.yul\":12942:12956   */\n      add\n        /* \"#utility.yul\":12935:12993   */\n      mstore\n        /* \"#utility.yul\":13027:13030   */\n      0x6400000000000000000000000000000000000000000000000000000000000000\n        /* \"#utility.yul\":13022:13024   */\n      0x20\n        /* \"#utility.yul\":13014:13020   */\n      dup3\n        /* \"#utility.yul\":13010:13025   */\n      add\n        /* \"#utility.yul\":13003:13031   */\n      mstore\n        /* \"#utility.yul\":12818:13038   */\n      pop\n      jump\t// out\n        /* \"#utility.yul\":13044:13410   */\n    tag_124:\n        /* \"#utility.yul\":13186:13189   */\n      0x00\n        /* \"#utility.yul\":13207:13274   */\n      tag_238\n        /* \"#utility.yul\":13271:13273   */\n      0x21\n        /* \"#utility.yul\":13266:13269   */\n      dup4\n        /* \"#utility.yul\":13207:13274   */\n      tag_101\n      jump\t// in\n    tag_238:\n        /* \"#utility.yul\":13200:13274   */\n      swap2\n      pop\n        /* \"#utility.yul\":13283:13376   */\n      tag_239\n        /* \"#utility.yul\":13372:13375   */\n      dup3\n        /* \"#utility.yul\":13283:13376   */\n      tag_123\n      jump\t// in\n    tag_239:\n        /* \"#utility.yul\":13401:13403   */\n      0x40\n        /* \"#utility.yul\":13396:13399   */\n      dup3\n        /* \"#utility.yul\":13392:13404   */\n      add\n        /* \"#utility.yul\":13385:13404   */\n      swap1\n      pop\n        /* \"#utility.yul\":13044:13410   */\n      swap2\n      swap1\n      pop\n      jump\t// out\n        /* \"#utility.yul\":13416:14180   */\n    tag_80:\n        /* \"#utility.yul\":13702:13706   */\n      0x00\n        /* \"#utility.yul\":13740:13742   */\n      0x40\n        /* \"#utility.yul\":13729:13738   */\n      dup3\n        /* \"#utility.yul\":13725:13743   */\n      add\n        /* \"#utility.yul\":13717:13743   */\n      swap1\n      pop\n        /* \"#utility.yul\":13789:13798   */\n      dup2\n        /* \"#utility.yul\":13783:13787   */\n      dup2\n        /* \"#utility.yul\":13779:13799   */\n      sub\n        /* \"#utility.yul\":13775:13776   */\n      0x00\n        /* \"#utility.yul\":13764:13773   */\n      dup4\n        /* \"#utility.yul\":13760:13777   */\n      add\n        /* \"#utility.yul\":13753:13800   */\n      mstore\n        /* \"#utility.yul\":13817:13948   */\n      tag_241\n        /* \"#utility.yul\":13943:13947   */\n      dup2\n        /* \"#utility.yul\":13817:13948   */\n      tag_124\n      jump\t// in\n    tag_241:\n        /* \"#utility.yul\":13809:13948   */\n      swap1\n      pop\n        /* \"#utility.yul\":13995:14004   */\n      dup2\n        /* \"#utility.yul\":13989:13993   */\n      dup2\n        /* \"#utility.yul\":13985:14005   */\n      sub\n        /* \"#utility.yul\":13980:13982   */\n      0x20\n        /* \"#utility.yul\":13969:13978   */\n      dup4\n        /* \"#utility.yul\":13965:13983   */\n      add\n        /* \"#utility.yul\":13958:14006   */\n      mstore\n        /* \"#utility.yul\":14023:14173   */\n      tag_242\n        /* \"#utility.yul\":14168:14172   */\n      dup2\n        /* \"#utility.yul\":14159:14165   */\n      dup5\n        /* \"#utility.yul\":14023:14173   */\n      tag_120\n      jump\t// in\n    tag_242:\n        /* \"#utility.yul\":14015:14173   */\n      swap1\n      pop\n        /* \"#utility.yul\":13416:14180   */\n      swap3\n      swap2\n      pop\n      pop\n      jump\t// out\n\n    auxdata: 0xa2646970667358221220ce22c54d3dc7f7445231a9028a78657bf0b2a1e19c9b1d8dcabc815b9ddf7a5164736f6c634300081f0033\n}\n",
				"bytecode": {
					"linkReferences": {},
					"object": "60a060405234801561000f575f5ffd5b50604051611164380380611164833981810160405281019061003191906100c9565b8073ffffffffffffffffffffffffffffffffffffffff1660808173ffffffffffffffffffffffffffffffffffffffff1681525050506100f4565b5f5ffd5b5f73ffffffffffffffffffffffffffffffffffffffff82169050919050565b5f6100988261006f565b9050919050565b6100a88161008e565b81146100b2575f5ffd5b50565b5f815190506100c38161009f565b92915050565b5f602082840312156100de576100dd61006b565b5b5f6100eb848285016100b5565b91505092915050565b6080516110436101215f395f81816102a10152818161032c015281816105f2015261092001526110435ff3fe608060405234801561000f575f5ffd5b506004361061004a575f3560e01c80638af83ae71461004e578063b5f8558c1461006a578063da9650a114610088578063ec3f01eb146100a4575b5f5ffd5b61006860048036038101906100639190610a34565b6100c0565b005b61007261032a565b60405161007f9190610af9565b60405180910390f35b6100a2600480360381019061009d9190610b4d565b61034e565b005b6100be60048036038101906100b99190610b4d565b61067c565b005b5f600267ffffffffffffffff8111156100dc576100db610baa565b5b60405190808252806020026020018201604052801561011557816020015b6101026109aa565b8152602001906001900390816100fa5790505b50905060405180606001604052806040518060400160405280600481526020017f757365720000000000000000000000000000000000000000000000000000000081525081526020016040518060400160405280600781526020017f61646472657373000000000000000000000000000000000000000000000000008152508152602001336040516020016101aa9190610be6565b604051602081830303815290604052815250815f815181106101cf576101ce610bff565b5b602002602001018190525060405180606001604052806040518060400160405280600481526020017f6e616d650000000000000000000000000000000000000000000000000000000081525081526020016040518060400160405280600681526020017f737472696e6700000000000000000000000000000000000000000000000000008152508152602001848460405160200161026e929190610c86565b6040516020818303038152906040528152508160018151811061029457610293610bff565b5b60200260200101819052507f000000000000000000000000000000000000000000000000000000000000000073ffffffffffffffffffffffffffffffffffffffff16637d64fa9b826040518263ffffffff1660e01b81526004016102f89190610eba565b5f604051808303815f87803b15801561030f575f5ffd5b505af1158015610321573d5f5f3e3d5ffd5b50505050505050565b7f000000000000000000000000000000000000000000000000000000000000000081565b5f600367ffffffffffffffff81111561036a57610369610baa565b5b6040519080825280602002602001820160405280156103a357816020015b6103906109aa565b8152602001906001900390816103885790505b50905060405180606001604052806040518060400160405280600481526020017f757365720000000000000000000000000000000000000000000000000000000081525081526020016040518060400160405280600781526020017f61646472657373000000000000000000000000000000000000000000000000008152508152602001336040516020016104389190610be6565b604051602081830303815290604052815250815f8151811061045d5761045c610bff565b5b602002602001018190525060405180606001604052806040518060400160405280600981526020017f7375625f6f776e6572000000000000000000000000000000000000000000000081525081526020016040518060400160405280600781526020017f61646472657373000000000000000000000000000000000000000000000000008152508152602001836040516020016104fa9190610be6565b604051602081830303815290604052815250816002815181106105205761051f610bff565b5b602002602001018190525060405180606001604052806040518060400160405280600481526020017f6e616d650000000000000000000000000000000000000000000000000000000081525081526020016040518060400160405280600681526020017f737472696e670000000000000000000000000000000000000000000000000000815250815260200185856040516020016105bf929190610c86565b604051602081830303815290604052815250816003815181106105e5576105e4610bff565b5b60200260200101819052507f000000000000000000000000000000000000000000000000000000000000000073ffffffffffffffffffffffffffffffffffffffff16637d64fa9b826040518263ffffffff1660e01b81526004016106499190610f37565b5f604051808303815f87803b158015610660575f5ffd5b505af1158015610672573d5f5f3e3d5ffd5b5050505050505050565b5f600367ffffffffffffffff81111561069857610697610baa565b5b6040519080825280602002602001820160405280156106d157816020015b6106be6109aa565b8152602001906001900390816106b65790505b50905060405180606001604052806040518060400160405280600481526020017f757365720000000000000000000000000000000000000000000000000000000081525081526020016040518060400160405280600781526020017f61646472657373000000000000000000000000000000000000000000000000008152508152602001336040516020016107669190610be6565b604051602081830303815290604052815250815f8151811061078b5761078a610bff565b5b602002602001018190525060405180606001604052806040518060400160405280600981526020017f7375625f6f776e6572000000000000000000000000000000000000000000000081525081526020016040518060400160405280600781526020017f61646472657373000000000000000000000000000000000000000000000000008152508152602001836040516020016108289190610be6565b6040516020818303038152906040528152508160028151811061084e5761084d610bff565b5b602002602001018190525060405180606001604052806040518060400160405280600481526020017f6e616d650000000000000000000000000000000000000000000000000000000081525081526020016040518060400160405280600681526020017f737472696e670000000000000000000000000000000000000000000000000000815250815260200185856040516020016108ed929190610c86565b6040516020818303038152906040528152508160038151811061091357610912610bff565b5b60200260200101819052507f000000000000000000000000000000000000000000000000000000000000000073ffffffffffffffffffffffffffffffffffffffff16637d64fa9b826040518263ffffffff1660e01b81526004016109779190610fda565b5f604051808303815f87803b15801561098e575f5ffd5b505af11580156109a0573d5f5f3e3d5ffd5b5050505050505050565b60405180606001604052806060815260200160608152602001606081525090565b5f5ffd5b5f5ffd5b5f5ffd5b5f5ffd5b5f5ffd5b5f5f83601f8401126109f4576109f36109d3565b5b8235905067ffffffffffffffff811115610a1157610a106109d7565b5b602083019150836001820283011115610a2d57610a2c6109db565b5b9250929050565b5f5f60208385031215610a4a57610a496109cb565b5b5f83013567ffffffffffffffff811115610a6757610a666109cf565b5b610a73858286016109df565b92509250509250929050565b5f73ffffffffffffffffffffffffffffffffffffffff82169050919050565b5f819050919050565b5f610ac1610abc610ab784610a7f565b610a9e565b610a7f565b9050919050565b5f610ad282610aa7565b9050919050565b5f610ae382610ac8565b9050919050565b610af381610ad9565b82525050565b5f602082019050610b0c5f830184610aea565b92915050565b5f610b1c82610a7f565b9050919050565b610b2c81610b12565b8114610b36575f5ffd5b50565b5f81359050610b4781610b23565b92915050565b5f5f5f60408486031215610b6457610b636109cb565b5b5f84013567ffffffffffffffff811115610b8157610b806109cf565b5b610b8d868287016109df565b93509350506020610ba086828701610b39565b9150509250925092565b7f4e487b71000000000000000000000000000000000000000000000000000000005f52604160045260245ffd5b610be081610b12565b82525050565b5f602082019050610bf95f830184610bd7565b92915050565b7f4e487b71000000000000000000000000000000000000000000000000000000005f52603260045260245ffd5b5f82825260208201905092915050565b828183375f83830152505050565b5f601f19601f8301169050919050565b5f610c658385610c2c565b9350610c72838584610c3c565b610c7b83610c4a565b840190509392505050565b5f6020820190508181035f830152610c9f818486610c5a565b90509392505050565b7f4d6f64756c61722053746f72616765204372656174696f6e00000000000000005f82015250565b5f610cdc601883610c2c565b9150610ce782610ca8565b602082019050919050565b5f81519050919050565b5f82825260208201905092915050565b5f819050602082019050919050565b5f81519050919050565b5f82825260208201905092915050565b8281835e5f83830152505050565b5f610d4d82610d1b565b610d578185610d25565b9350610d67818560208601610d35565b610d7081610c4a565b840191505092915050565b5f81519050919050565b5f82825260208201905092915050565b5f610d9f82610d7b565b610da98185610d85565b9350610db9818560208601610d35565b610dc281610c4a565b840191505092915050565b5f606083015f8301518482035f860152610de78282610d43565b91505060208301518482036020860152610e018282610d43565b91505060408301518482036040860152610e1b8282610d95565b9150508091505092915050565b5f610e338383610dcd565b905092915050565b5f602082019050919050565b5f610e5182610cf2565b610e5b8185610cfc565b935083602082028501610e6d85610d0c565b805f5b85811015610ea85784840389528151610e898582610e28565b9450610e9483610e3b565b925060208a01995050600181019050610e70565b50829750879550505050505092915050565b5f6040820190508181035f830152610ed181610cd0565b90508181036020830152610ee58184610e47565b905092915050565b7f4d6f64756c61722053746f7261676520537562204f776e6572204164646564005f82015250565b5f610f21601f83610c2c565b9150610f2c82610eed565b602082019050919050565b5f6040820190508181035f830152610f4e81610f15565b90508181036020830152610f628184610e47565b905092915050565b7f4d6f64756c61722053746f7261676520537562204f776e65722052656d6f76655f8201527f6400000000000000000000000000000000000000000000000000000000000000602082015250565b5f610fc4602183610c2c565b9150610fcf82610f6a565b604082019050919050565b5f6040820190508181035f830152610ff181610fb8565b905081810360208301526110058184610e47565b90509291505056fea2646970667358221220ce22c54d3dc7f7445231a9028a78657bf0b2a1e19c9b1d8dcabc815b9ddf7a5164736f6c634300081f0033",
					"opcodes": "PUSH1 0xA0 PUSH1 0x40 MSTORE CALLVALUE DUP1 ISZERO PUSH2 0xF JUMPI PUSH0 PUSH0 REVERT JUMPDEST POP PUSH1 0x40 MLOAD PUSH2 0x1164 CODESIZE SUB DUP1 PUSH2 0x1164 DUP4 CODECOPY DUP2 DUP2 ADD PUSH1 0x40 MSTORE DUP2 ADD SWAP1 PUSH2 0x31 SWAP2 SWAP1 PUSH2 0xC9 JUMP JUMPDEST DUP1 PUSH20 0xFFFFFFFFFFFFFFFFFFFFFFFFFFFFFFFFFFFFFFFF AND PUSH1 0x80 DUP2 PUSH20 0xFFFFFFFFFFFFFFFFFFFFFFFFFFFFFFFFFFFFFFFF AND DUP2 MSTORE POP POP POP PUSH2 0xF4 JUMP JUMPDEST PUSH0 PUSH0 REVERT JUMPDEST PUSH0 PUSH20 0xFFFFFFFFFFFFFFFFFFFFFFFFFFFFFFFFFFFFFFFF DUP3 AND SWAP1 POP SWAP2 SWAP1 POP JUMP JUMPDEST PUSH0 PUSH2 0x98 DUP3 PUSH2 0x6F JUMP JUMPDEST SWAP1 POP SWAP2 SWAP1 POP JUMP JUMPDEST PUSH2 0xA8 DUP2 PUSH2 0x8E JUMP JUMPDEST DUP2 EQ PUSH2 0xB2 JUMPI PUSH0 PUSH0 REVERT JUMPDEST POP JUMP JUMPDEST PUSH0 DUP2 MLOAD SWAP1 POP PUSH2 0xC3 DUP2 PUSH2 0x9F JUMP JUMPDEST SWAP3 SWAP2 POP POP JUMP JUMPDEST PUSH0 PUSH1 0x20 DUP3 DUP5 SUB SLT ISZERO PUSH2 0xDE JUMPI PUSH2 0xDD PUSH2 0x6B JUMP JUMPDEST JUMPDEST PUSH0 PUSH2 0xEB DUP5 DUP3 DUP6 ADD PUSH2 0xB5 JUMP JUMPDEST SWAP2 POP POP SWAP3 SWAP2 POP POP JUMP JUMPDEST PUSH1 0x80 MLOAD PUSH2 0x1043 PUSH2 0x121 PUSH0 CODECOPY PUSH0 DUP2 DUP2 PUSH2 0x2A1 ADD MSTORE DUP2 DUP2 PUSH2 0x32C ADD MSTORE DUP2 DUP2 PUSH2 0x5F2 ADD MSTORE PUSH2 0x920 ADD MSTORE PUSH2 0x1043 PUSH0 RETURN INVALID PUSH1 0x80 PUSH1 0x40 MSTORE CALLVALUE DUP1 ISZERO PUSH2 0xF JUMPI PUSH0 PUSH0 REVERT JUMPDEST POP PUSH1 0x4 CALLDATASIZE LT PUSH2 0x4A JUMPI PUSH0 CALLDATALOAD PUSH1 0xE0 SHR DUP1 PUSH4 0x8AF83AE7 EQ PUSH2 0x4E JUMPI DUP1 PUSH4 0xB5F8558C EQ PUSH2 0x6A JUMPI DUP1 PUSH4 0xDA9650A1 EQ PUSH2 0x88 JUMPI DUP1 PUSH4 0xEC3F01EB EQ PUSH2 0xA4 JUMPI JUMPDEST PUSH0 PUSH0 REVERT JUMPDEST PUSH2 0x68 PUSH1 0x4 DUP1 CALLDATASIZE SUB DUP2 ADD SWAP1 PUSH2 0x63 SWAP2 SWAP1 PUSH2 0xA34 JUMP JUMPDEST PUSH2 0xC0 JUMP JUMPDEST STOP JUMPDEST PUSH2 0x72 PUSH2 0x32A JUMP JUMPDEST PUSH1 0x40 MLOAD PUSH2 0x7F SWAP2 SWAP1 PUSH2 0xAF9 JUMP JUMPDEST PUSH1 0x40 MLOAD DUP1 SWAP2 SUB SWAP1 RETURN JUMPDEST PUSH2 0xA2 PUSH1 0x4 DUP1 CALLDATASIZE SUB DUP2 ADD SWAP1 PUSH2 0x9D SWAP2 SWAP1 PUSH2 0xB4D JUMP JUMPDEST PUSH2 0x34E JUMP JUMPDEST STOP JUMPDEST PUSH2 0xBE PUSH1 0x4 DUP1 CALLDATASIZE SUB DUP2 ADD SWAP1 PUSH2 0xB9 SWAP2 SWAP1 PUSH2 0xB4D JUMP JUMPDEST PUSH2 0x67C JUMP JUMPDEST STOP JUMPDEST PUSH0 PUSH1 0x2 PUSH8 0xFFFFFFFFFFFFFFFF DUP2 GT ISZERO PUSH2 0xDC JUMPI PUSH2 0xDB PUSH2 0xBAA JUMP JUMPDEST JUMPDEST PUSH1 0x40 MLOAD SWAP1 DUP1 DUP3 MSTORE DUP1 PUSH1 0x20 MUL PUSH1 0x20 ADD DUP3 ADD PUSH1 0x40 MSTORE DUP1 ISZERO PUSH2 0x115 JUMPI DUP2 PUSH1 0x20 ADD JUMPDEST PUSH2 0x102 PUSH2 0x9AA JUMP JUMPDEST DUP2 MSTORE PUSH1 0x20 ADD SWAP1 PUSH1 0x1 SWAP1 SUB SWAP1 DUP2 PUSH2 0xFA JUMPI SWAP1 POP JUMPDEST POP SWAP1 POP PUSH1 0x40 MLOAD DUP1 PUSH1 0x60 ADD PUSH1 0x40 MSTORE DUP1 PUSH1 0x40 MLOAD DUP1 PUSH1 0x40 ADD PUSH1 0x40 MSTORE DUP1 PUSH1 0x4 DUP2 MSTORE PUSH1 0x20 ADD PUSH32 0x7573657200000000000000000000000000000000000000000000000000000000 DUP2 MSTORE POP DUP2 MSTORE PUSH1 0x20 ADD PUSH1 0x40 MLOAD DUP1 PUSH1 0x40 ADD PUSH1 0x40 MSTORE DUP1 PUSH1 0x7 DUP2 MSTORE PUSH1 0x20 ADD PUSH32 0x6164647265737300000000000000000000000000000000000000000000000000 DUP2 MSTORE POP DUP2 MSTORE PUSH1 0x20 ADD CALLER PUSH1 0x40 MLOAD PUSH1 0x20 ADD PUSH2 0x1AA SWAP2 SWAP1 PUSH2 0xBE6 JUMP JUMPDEST PUSH1 0x40 MLOAD PUSH1 0x20 DUP2 DUP4 SUB SUB DUP2 MSTORE SWAP1 PUSH1 0x40 MSTORE DUP2 MSTORE POP DUP2 PUSH0 DUP2 MLOAD DUP2 LT PUSH2 0x1CF JUMPI PUSH2 0x1CE PUSH2 0xBFF JUMP JUMPDEST JUMPDEST PUSH1 0x20 MUL PUSH1 0x20 ADD ADD DUP2 SWAP1 MSTORE POP PUSH1 0x40 MLOAD DUP1 PUSH1 0x60 ADD PUSH1 0x40 MSTORE DUP1 PUSH1 0x40 MLOAD DUP1 PUSH1 0x40 ADD PUSH1 0x40 MSTORE DUP1 PUSH1 0x4 DUP2 MSTORE PUSH1 0x20 ADD PUSH32 0x6E616D6500000000000000000000000000000000000000000000000000000000 DUP2 MSTORE POP DUP2 MSTORE PUSH1 0x20 ADD PUSH1 0x40 MLOAD DUP1 PUSH1 0x40 ADD PUSH1 0x40 MSTORE DUP1 PUSH1 0x6 DUP2 MSTORE PUSH1 0x20 ADD PUSH32 0x737472696E670000000000000000000000000000000000000000000000000000 DUP2 MSTORE POP DUP2 MSTORE PUSH1 0x20 ADD DUP5 DUP5 PUSH1 0x40 MLOAD PUSH1 0x20 ADD PUSH2 0x26E SWAP3 SWAP2 SWAP1 PUSH2 0xC86 JUMP JUMPDEST PUSH1 0x40 MLOAD PUSH1 0x20 DUP2 DUP4 SUB SUB DUP2 MSTORE SWAP1 PUSH1 0x40 MSTORE DUP2 MSTORE POP DUP2 PUSH1 0x1 DUP2 MLOAD DUP2 LT PUSH2 0x294 JUMPI PUSH2 0x293 PUSH2 0xBFF JUMP JUMPDEST JUMPDEST PUSH1 0x20 MUL PUSH1 0x20 ADD ADD DUP2 SWAP1 MSTORE POP PUSH32 0x0 PUSH20 0xFFFFFFFFFFFFFFFFFFFFFFFFFFFFFFFFFFFFFFFF AND PUSH4 0x7D64FA9B DUP3 PUSH1 0x40 MLOAD DUP3 PUSH4 0xFFFFFFFF AND PUSH1 0xE0 SHL DUP2 MSTORE PUSH1 0x4 ADD PUSH2 0x2F8 SWAP2 SWAP1 PUSH2 0xEBA JUMP JUMPDEST PUSH0 PUSH1 0x40 MLOAD DUP1 DUP4 SUB DUP2 PUSH0 DUP8 DUP1 EXTCODESIZE ISZERO DUP1 ISZERO PUSH2 0x30F JUMPI PUSH0 PUSH0 REVERT JUMPDEST POP GAS CALL ISZERO DUP1 ISZERO PUSH2 0x321 JUMPI RETURNDATASIZE PUSH0 PUSH0 RETURNDATACOPY RETURNDATASIZE PUSH0 REVERT JUMPDEST POP POP POP POP POP POP POP JUMP JUMPDEST PUSH32 0x0 DUP2 JUMP JUMPDEST PUSH0 PUSH1 0x3 PUSH8 0xFFFFFFFFFFFFFFFF DUP2 GT ISZERO PUSH2 0x36A JUMPI PUSH2 0x369 PUSH2 0xBAA JUMP JUMPDEST JUMPDEST PUSH1 0x40 MLOAD SWAP1 DUP1 DUP3 MSTORE DUP1 PUSH1 0x20 MUL PUSH1 0x20 ADD DUP3 ADD PUSH1 0x40 MSTORE DUP1 ISZERO PUSH2 0x3A3 JUMPI DUP2 PUSH1 0x20 ADD JUMPDEST PUSH2 0x390 PUSH2 0x9AA JUMP JUMPDEST DUP2 MSTORE PUSH1 0x20 ADD SWAP1 PUSH1 0x1 SWAP1 SUB SWAP1 DUP2 PUSH2 0x388 JUMPI SWAP1 POP JUMPDEST POP SWAP1 POP PUSH1 0x40 MLOAD DUP1 PUSH1 0x60 ADD PUSH1 0x40 MSTORE DUP1 PUSH1 0x40 MLOAD DUP1 PUSH1 0x40 ADD PUSH1 0x40 MSTORE DUP1 PUSH1 0x4 DUP2 MSTORE PUSH1 0x20 ADD PUSH32 0x7573657200000000000000000000000000000000000000000000000000000000 DUP2 MSTORE POP DUP2 MSTORE PUSH1 0x20 ADD PUSH1 0x40 MLOAD DUP1 PUSH1 0x40 ADD PUSH1 0x40 MSTORE DUP1 PUSH1 0x7 DUP2 MSTORE PUSH1 0x20 ADD PUSH32 0x6164647265737300000000000000000000000000000000000000000000000000 DUP2 MSTORE POP DUP2 MSTORE PUSH1 0x20 ADD CALLER PUSH1 0x40 MLOAD PUSH1 0x20 ADD PUSH2 0x438 SWAP2 SWAP1 PUSH2 0xBE6 JUMP JUMPDEST PUSH1 0x40 MLOAD PUSH1 0x20 DUP2 DUP4 SUB SUB DUP2 MSTORE SWAP1 PUSH1 0x40 MSTORE DUP2 MSTORE POP DUP2 PUSH0 DUP2 MLOAD DUP2 LT PUSH2 0x45D JUMPI PUSH2 0x45C PUSH2 0xBFF JUMP JUMPDEST JUMPDEST PUSH1 0x20 MUL PUSH1 0x20 ADD ADD DUP2 SWAP1 MSTORE POP PUSH1 0x40 MLOAD DUP1 PUSH1 0x60 ADD PUSH1 0x40 MSTORE DUP1 PUSH1 0x40 MLOAD DUP1 PUSH1 0x40 ADD PUSH1 0x40 MSTORE DUP1 PUSH1 0x9 DUP2 MSTORE PUSH1 0x20 ADD PUSH32 0x7375625F6F776E65720000000000000000000000000000000000000000000000 DUP2 MSTORE POP DUP2 MSTORE PUSH1 0x20 ADD PUSH1 0x40 MLOAD DUP1 PUSH1 0x40 ADD PUSH1 0x40 MSTORE DUP1 PUSH1 0x7 DUP2 MSTORE PUSH1 0x20 ADD PUSH32 0x6164647265737300000000000000000000000000000000000000000000000000 DUP2 MSTORE POP DUP2 MSTORE PUSH1 0x20 ADD DUP4 PUSH1 0x40 MLOAD PUSH1 0x20 ADD PUSH2 0x4FA SWAP2 SWAP1 PUSH2 0xBE6 JUMP JUMPDEST PUSH1 0x40 MLOAD PUSH1 0x20 DUP2 DUP4 SUB SUB DUP2 MSTORE SWAP1 PUSH1 0x40 MSTORE DUP2 MSTORE POP DUP2 PUSH1 0x2 DUP2 MLOAD DUP2 LT PUSH2 0x520 JUMPI PUSH2 0x51F PUSH2 0xBFF JUMP JUMPDEST JUMPDEST PUSH1 0x20 MUL PUSH1 0x20 ADD ADD DUP2 SWAP1 MSTORE POP PUSH1 0x40 MLOAD DUP1 PUSH1 0x60 ADD PUSH1 0x40 MSTORE DUP1 PUSH1 0x40 MLOAD DUP1 PUSH1 0x40 ADD PUSH1 0x40 MSTORE DUP1 PUSH1 0x4 DUP2 MSTORE PUSH1 0x20 ADD PUSH32 0x6E616D6500000000000000000000000000000000000000000000000000000000 DUP2 MSTORE POP DUP2 MSTORE PUSH1 0x20 ADD PUSH1 0x40 MLOAD DUP1 PUSH1 0x40 ADD PUSH1 0x40 MSTORE DUP1 PUSH1 0x6 DUP2 MSTORE PUSH1 0x20 ADD PUSH32 0x737472696E670000000000000000000000000000000000000000000000000000 DUP2 MSTORE POP DUP2 MSTORE PUSH1 0x20 ADD DUP6 DUP6 PUSH1 0x40 MLOAD PUSH1 0x20 ADD PUSH2 0x5BF SWAP3 SWAP2 SWAP1 PUSH2 0xC86 JUMP JUMPDEST PUSH1 0x40 MLOAD PUSH1 0x20 DUP2 DUP4 SUB SUB DUP2 MSTORE SWAP1 PUSH1 0x40 MSTORE DUP2 MSTORE POP DUP2 PUSH1 0x3 DUP2 MLOAD DUP2 LT PUSH2 0x5E5 JUMPI PUSH2 0x5E4 PUSH2 0xBFF JUMP JUMPDEST JUMPDEST PUSH1 0x20 MUL PUSH1 0x20 ADD ADD DUP2 SWAP1 MSTORE POP PUSH32 0x0 PUSH20 0xFFFFFFFFFFFFFFFFFFFFFFFFFFFFFFFFFFFFFFFF AND PUSH4 0x7D64FA9B DUP3 PUSH1 0x40 MLOAD DUP3 PUSH4 0xFFFFFFFF AND PUSH1 0xE0 SHL DUP2 MSTORE PUSH1 0x4 ADD PUSH2 0x649 SWAP2 SWAP1 PUSH2 0xF37 JUMP JUMPDEST PUSH0 PUSH1 0x40 MLOAD DUP1 DUP4 SUB DUP2 PUSH0 DUP8 DUP1 EXTCODESIZE ISZERO DUP1 ISZERO PUSH2 0x660 JUMPI PUSH0 PUSH0 REVERT JUMPDEST POP GAS CALL ISZERO DUP1 ISZERO PUSH2 0x672 JUMPI RETURNDATASIZE PUSH0 PUSH0 RETURNDATACOPY RETURNDATASIZE PUSH0 REVERT JUMPDEST POP POP POP POP POP POP POP POP JUMP JUMPDEST PUSH0 PUSH1 0x3 PUSH8 0xFFFFFFFFFFFFFFFF DUP2 GT ISZERO PUSH2 0x698 JUMPI PUSH2 0x697 PUSH2 0xBAA JUMP JUMPDEST JUMPDEST PUSH1 0x40 MLOAD SWAP1 DUP1 DUP3 MSTORE DUP1 PUSH1 0x20 MUL PUSH1 0x20 ADD DUP3 ADD PUSH1 0x40 MSTORE DUP1 ISZERO PUSH2 0x6D1 JUMPI DUP2 PUSH1 0x20 ADD JUMPDEST PUSH2 0x6BE PUSH2 0x9AA JUMP JUMPDEST DUP2 MSTORE PUSH1 0x20 ADD SWAP1 PUSH1 0x1 SWAP1 SUB SWAP1 DUP2 PUSH2 0x6B6 JUMPI SWAP1 POP JUMPDEST POP SWAP1 POP PUSH1 0x40 MLOAD DUP1 PUSH1 0x60 ADD PUSH1 0x40 MSTORE DUP1 PUSH1 0x40 MLOAD DUP1 PUSH1 0x40 ADD PUSH1 0x40 MSTORE DUP1 PUSH1 0x4 DUP2 MSTORE PUSH1 0x20 ADD PUSH32 0x7573657200000000000000000000000000000000000000000000000000000000 DUP2 MSTORE POP DUP2 MSTORE PUSH1 0x20 ADD PUSH1 0x40 MLOAD DUP1 PUSH1 0x40 ADD PUSH1 0x40 MSTORE DUP1 PUSH1 0x7 DUP2 MSTORE PUSH1 0x20 ADD PUSH32 0x6164647265737300000000000000000000000000000000000000000000000000 DUP2 MSTORE POP DUP2 MSTORE PUSH1 0x20 ADD CALLER PUSH1 0x40 MLOAD PUSH1 0x20 ADD PUSH2 0x766 SWAP2 SWAP1 PUSH2 0xBE6 JUMP JUMPDEST PUSH1 0x40 MLOAD PUSH1 0x20 DUP2 DUP4 SUB SUB DUP2 MSTORE SWAP1 PUSH1 0x40 MSTORE DUP2 MSTORE POP DUP2 PUSH0 DUP2 MLOAD DUP2 LT PUSH2 0x78B JUMPI PUSH2 0x78A PUSH2 0xBFF JUMP JUMPDEST JUMPDEST PUSH1 0x20 MUL PUSH1 0x20 ADD ADD DUP2 SWAP1 MSTORE POP PUSH1 0x40 MLOAD DUP1 PUSH1 0x60 ADD PUSH1 0x40 MSTORE DUP1 PUSH1 0x40 MLOAD DUP1 PUSH1 0x40 ADD PUSH1 0x40 MSTORE DUP1 PUSH1 0x9 DUP2 MSTORE PUSH1 0x20 ADD PUSH32 0x7375625F6F776E65720000000000000000000000000000000000000000000000 DUP2 MSTORE POP DUP2 MSTORE PUSH1 0x20 ADD PUSH1 0x40 MLOAD DUP1 PUSH1 0x40 ADD PUSH1 0x40 MSTORE DUP1 PUSH1 0x7 DUP2 MSTORE PUSH1 0x20 ADD PUSH32 0x6164647265737300000000000000000000000000000000000000000000000000 DUP2 MSTORE POP DUP2 MSTORE PUSH1 0x20 ADD DUP4 PUSH1 0x40 MLOAD PUSH1 0x20 ADD PUSH2 0x828 SWAP2 SWAP1 PUSH2 0xBE6 JUMP JUMPDEST PUSH1 0x40 MLOAD PUSH1 0x20 DUP2 DUP4 SUB SUB DUP2 MSTORE SWAP1 PUSH1 0x40 MSTORE DUP2 MSTORE POP DUP2 PUSH1 0x2 DUP2 MLOAD DUP2 LT PUSH2 0x84E JUMPI PUSH2 0x84D PUSH2 0xBFF JUMP JUMPDEST JUMPDEST PUSH1 0x20 MUL PUSH1 0x20 ADD ADD DUP2 SWAP1 MSTORE POP PUSH1 0x40 MLOAD DUP1 PUSH1 0x60 ADD PUSH1 0x40 MSTORE DUP1 PUSH1 0x40 MLOAD DUP1 PUSH1 0x40 ADD PUSH1 0x40 MSTORE DUP1 PUSH1 0x4 DUP2 MSTORE PUSH1 0x20 ADD PUSH32 0x6E616D6500000000000000000000000000000000000000000000000000000000 DUP2 MSTORE POP DUP2 MSTORE PUSH1 0x20 ADD PUSH1 0x40 MLOAD DUP1 PUSH1 0x40 ADD PUSH1 0x40 MSTORE DUP1 PUSH1 0x6 DUP2 MSTORE PUSH1 0x20 ADD PUSH32 0x737472696E670000000000000000000000000000000000000000000000000000 DUP2 MSTORE POP DUP2 MSTORE PUSH1 0x20 ADD DUP6 DUP6 PUSH1 0x40 MLOAD PUSH1 0x20 ADD PUSH2 0x8ED SWAP3 SWAP2 SWAP1 PUSH2 0xC86 JUMP JUMPDEST PUSH1 0x40 MLOAD PUSH1 0x20 DUP2 DUP4 SUB SUB DUP2 MSTORE SWAP1 PUSH1 0x40 MSTORE DUP2 MSTORE POP DUP2 PUSH1 0x3 DUP2 MLOAD DUP2 LT PUSH2 0x913 JUMPI PUSH2 0x912 PUSH2 0xBFF JUMP JUMPDEST JUMPDEST PUSH1 0x20 MUL PUSH1 0x20 ADD ADD DUP2 SWAP1 MSTORE POP PUSH32 0x0 PUSH20 0xFFFFFFFFFFFFFFFFFFFFFFFFFFFFFFFFFFFFFFFF AND PUSH4 0x7D64FA9B DUP3 PUSH1 0x40 MLOAD DUP3 PUSH4 0xFFFFFFFF AND PUSH1 0xE0 SHL DUP2 MSTORE PUSH1 0x4 ADD PUSH2 0x977 SWAP2 SWAP1 PUSH2 0xFDA JUMP JUMPDEST PUSH0 PUSH1 0x40 MLOAD DUP1 DUP4 SUB DUP2 PUSH0 DUP8 DUP1 EXTCODESIZE ISZERO DUP1 ISZERO PUSH2 0x98E JUMPI PUSH0 PUSH0 REVERT JUMPDEST POP GAS CALL ISZERO DUP1 ISZERO PUSH2 0x9A0 JUMPI RETURNDATASIZE PUSH0 PUSH0 RETURNDATACOPY RETURNDATASIZE PUSH0 REVERT JUMPDEST POP POP POP POP POP POP POP POP JUMP JUMPDEST PUSH1 0x40 MLOAD DUP1 PUSH1 0x60 ADD PUSH1 0x40 MSTORE DUP1 PUSH1 0x60 DUP2 MSTORE PUSH1 0x20 ADD PUSH1 0x60 DUP2 MSTORE PUSH1 0x20 ADD PUSH1 0x60 DUP2 MSTORE POP SWAP1 JUMP JUMPDEST PUSH0 PUSH0 REVERT JUMPDEST PUSH0 PUSH0 REVERT JUMPDEST PUSH0 PUSH0 REVERT JUMPDEST PUSH0 PUSH0 REVERT JUMPDEST PUSH0 PUSH0 REVERT JUMPDEST PUSH0 PUSH0 DUP4 PUSH1 0x1F DUP5 ADD SLT PUSH2 0x9F4 JUMPI PUSH2 0x9F3 PUSH2 0x9D3 JUMP JUMPDEST JUMPDEST DUP3 CALLDATALOAD SWAP1 POP PUSH8 0xFFFFFFFFFFFFFFFF DUP2 GT ISZERO PUSH2 0xA11 JUMPI PUSH2 0xA10 PUSH2 0x9D7 JUMP JUMPDEST JUMPDEST PUSH1 0x20 DUP4 ADD SWAP2 POP DUP4 PUSH1 0x1 DUP3 MUL DUP4 ADD GT ISZERO PUSH2 0xA2D JUMPI PUSH2 0xA2C PUSH2 0x9DB JUMP JUMPDEST JUMPDEST SWAP3 POP SWAP3 SWAP1 POP JUMP JUMPDEST PUSH0 PUSH0 PUSH1 0x20 DUP4 DUP6 SUB SLT ISZERO PUSH2 0xA4A JUMPI PUSH2 0xA49 PUSH2 0x9CB JUMP JUMPDEST JUMPDEST PUSH0 DUP4 ADD CALLDATALOAD PUSH8 0xFFFFFFFFFFFFFFFF DUP2 GT ISZERO PUSH2 0xA67 JUMPI PUSH2 0xA66 PUSH2 0x9CF JUMP JUMPDEST JUMPDEST PUSH2 0xA73 DUP6 DUP3 DUP7 ADD PUSH2 0x9DF JUMP JUMPDEST SWAP3 POP SWAP3 POP POP SWAP3 POP SWAP3 SWAP1 POP JUMP JUMPDEST PUSH0 PUSH20 0xFFFFFFFFFFFFFFFFFFFFFFFFFFFFFFFFFFFFFFFF DUP3 AND SWAP1 POP SWAP2 SWAP1 POP JUMP JUMPDEST PUSH0 DUP2 SWAP1 POP SWAP2 SWAP1 POP JUMP JUMPDEST PUSH0 PUSH2 0xAC1 PUSH2 0xABC PUSH2 0xAB7 DUP5 PUSH2 0xA7F JUMP JUMPDEST PUSH2 0xA9E JUMP JUMPDEST PUSH2 0xA7F JUMP JUMPDEST SWAP1 POP SWAP2 SWAP1 POP JUMP JUMPDEST PUSH0 PUSH2 0xAD2 DUP3 PUSH2 0xAA7 JUMP JUMPDEST SWAP1 POP SWAP2 SWAP1 POP JUMP JUMPDEST PUSH0 PUSH2 0xAE3 DUP3 PUSH2 0xAC8 JUMP JUMPDEST SWAP1 POP SWAP2 SWAP1 POP JUMP JUMPDEST PUSH2 0xAF3 DUP2 PUSH2 0xAD9 JUMP JUMPDEST DUP3 MSTORE POP POP JUMP JUMPDEST PUSH0 PUSH1 0x20 DUP3 ADD SWAP1 POP PUSH2 0xB0C PUSH0 DUP4 ADD DUP5 PUSH2 0xAEA JUMP JUMPDEST SWAP3 SWAP2 POP POP JUMP JUMPDEST PUSH0 PUSH2 0xB1C DUP3 PUSH2 0xA7F JUMP JUMPDEST SWAP1 POP SWAP2 SWAP1 POP JUMP JUMPDEST PUSH2 0xB2C DUP2 PUSH2 0xB12 JUMP JUMPDEST DUP2 EQ PUSH2 0xB36 JUMPI PUSH0 PUSH0 REVERT JUMPDEST POP JUMP JUMPDEST PUSH0 DUP2 CALLDATALOAD SWAP1 POP PUSH2 0xB47 DUP2 PUSH2 0xB23 JUMP JUMPDEST SWAP3 SWAP2 POP POP JUMP JUMPDEST PUSH0 PUSH0 PUSH0 PUSH1 0x40 DUP5 DUP7 SUB SLT ISZERO PUSH2 0xB64 JUMPI PUSH2 0xB63 PUSH2 0x9CB JUMP JUMPDEST JUMPDEST PUSH0 DUP5 ADD CALLDATALOAD PUSH8 0xFFFFFFFFFFFFFFFF DUP2 GT ISZERO PUSH2 0xB81 JUMPI PUSH2 0xB80 PUSH2 0x9CF JUMP JUMPDEST JUMPDEST PUSH2 0xB8D DUP7 DUP3 DUP8 ADD PUSH2 0x9DF JUMP JUMPDEST SWAP4 POP SWAP4 POP POP PUSH1 0x20 PUSH2 0xBA0 DUP7 DUP3 DUP8 ADD PUSH2 0xB39 JUMP JUMPDEST SWAP2 POP POP SWAP3 POP SWAP3 POP SWAP3 JUMP JUMPDEST PUSH32 0x4E487B7100000000000000000000000000000000000000000000000000000000 PUSH0 MSTORE PUSH1 0x41 PUSH1 0x4 MSTORE PUSH1 0x24 PUSH0 REVERT JUMPDEST PUSH2 0xBE0 DUP2 PUSH2 0xB12 JUMP JUMPDEST DUP3 MSTORE POP POP JUMP JUMPDEST PUSH0 PUSH1 0x20 DUP3 ADD SWAP1 POP PUSH2 0xBF9 PUSH0 DUP4 ADD DUP5 PUSH2 0xBD7 JUMP JUMPDEST SWAP3 SWAP2 POP POP JUMP JUMPDEST PUSH32 0x4E487B7100000000000000000000000000000000000000000000000000000000 PUSH0 MSTORE PUSH1 0x32 PUSH1 0x4 MSTORE PUSH1 0x24 PUSH0 REVERT JUMPDEST PUSH0 DUP3 DUP3 MSTORE PUSH1 0x20 DUP3 ADD SWAP1 POP SWAP3 SWAP2 POP POP JUMP JUMPDEST DUP3 DUP2 DUP4 CALLDATACOPY PUSH0 DUP4 DUP4 ADD MSTORE POP POP POP JUMP JUMPDEST PUSH0 PUSH1 0x1F NOT PUSH1 0x1F DUP4 ADD AND SWAP1 POP SWAP2 SWAP1 POP JUMP JUMPDEST PUSH0 PUSH2 0xC65 DUP4 DUP6 PUSH2 0xC2C JUMP JUMPDEST SWAP4 POP PUSH2 0xC72 DUP4 DUP6 DUP5 PUSH2 0xC3C JUMP JUMPDEST PUSH2 0xC7B DUP4 PUSH2 0xC4A JUMP JUMPDEST DUP5 ADD SWAP1 POP SWAP4 SWAP3 POP POP POP JUMP JUMPDEST PUSH0 PUSH1 0x20 DUP3 ADD SWAP1 POP DUP2 DUP2 SUB PUSH0 DUP4 ADD MSTORE PUSH2 0xC9F DUP2 DUP5 DUP7 PUSH2 0xC5A JUMP JUMPDEST SWAP1 POP SWAP4 SWAP3 POP POP POP JUMP JUMPDEST PUSH32 0x4D6F64756C61722053746F72616765204372656174696F6E0000000000000000 PUSH0 DUP3 ADD MSTORE POP JUMP JUMPDEST PUSH0 PUSH2 0xCDC PUSH1 0x18 DUP4 PUSH2 0xC2C JUMP JUMPDEST SWAP2 POP PUSH2 0xCE7 DUP3 PUSH2 0xCA8 JUMP JUMPDEST PUSH1 0x20 DUP3 ADD SWAP1 POP SWAP2 SWAP1 POP JUMP JUMPDEST PUSH0 DUP2 MLOAD SWAP1 POP SWAP2 SWAP1 POP JUMP JUMPDEST PUSH0 DUP3 DUP3 MSTORE PUSH1 0x20 DUP3 ADD SWAP1 POP SWAP3 SWAP2 POP POP JUMP JUMPDEST PUSH0 DUP2 SWAP1 POP PUSH1 0x20 DUP3 ADD SWAP1 POP SWAP2 SWAP1 POP JUMP JUMPDEST PUSH0 DUP2 MLOAD SWAP1 POP SWAP2 SWAP1 POP JUMP JUMPDEST PUSH0 DUP3 DUP3 MSTORE PUSH1 0x20 DUP3 ADD SWAP1 POP SWAP3 SWAP2 POP POP JUMP JUMPDEST DUP3 DUP2 DUP4 MCOPY PUSH0 DUP4 DUP4 ADD MSTORE POP POP POP JUMP JUMPDEST PUSH0 PUSH2 0xD4D DUP3 PUSH2 0xD1B JUMP JUMPDEST PUSH2 0xD57 DUP2 DUP6 PUSH2 0xD25 JUMP JUMPDEST SWAP4 POP PUSH2 0xD67 DUP2 DUP6 PUSH1 0x20 DUP7 ADD PUSH2 0xD35 JUMP JUMPDEST PUSH2 0xD70 DUP2 PUSH2 0xC4A JUMP JUMPDEST DUP5 ADD SWAP2 POP POP SWAP3 SWAP2 POP POP JUMP JUMPDEST PUSH0 DUP2 MLOAD SWAP1 POP SWAP2 SWAP1 POP JUMP JUMPDEST PUSH0 DUP3 DUP3 MSTORE PUSH1 0x20 DUP3 ADD SWAP1 POP SWAP3 SWAP2 POP POP JUMP JUMPDEST PUSH0 PUSH2 0xD9F DUP3 PUSH2 0xD7B JUMP JUMPDEST PUSH2 0xDA9 DUP2 DUP6 PUSH2 0xD85 JUMP JUMPDEST SWAP4 POP PUSH2 0xDB9 DUP2 DUP6 PUSH1 0x20 DUP7 ADD PUSH2 0xD35 JUMP JUMPDEST PUSH2 0xDC2 DUP2 PUSH2 0xC4A JUMP JUMPDEST DUP5 ADD SWAP2 POP POP SWAP3 SWAP2 POP POP JUMP JUMPDEST PUSH0 PUSH1 0x60 DUP4 ADD PUSH0 DUP4 ADD MLOAD DUP5 DUP3 SUB PUSH0 DUP7 ADD MSTORE PUSH2 0xDE7 DUP3 DUP3 PUSH2 0xD43 JUMP JUMPDEST SWAP2 POP POP PUSH1 0x20 DUP4 ADD MLOAD DUP5 DUP3 SUB PUSH1 0x20 DUP7 ADD MSTORE PUSH2 0xE01 DUP3 DUP3 PUSH2 0xD43 JUMP JUMPDEST SWAP2 POP POP PUSH1 0x40 DUP4 ADD MLOAD DUP5 DUP3 SUB PUSH1 0x40 DUP7 ADD MSTORE PUSH2 0xE1B DUP3 DUP3 PUSH2 0xD95 JUMP JUMPDEST SWAP2 POP POP DUP1 SWAP2 POP POP SWAP3 SWAP2 POP POP JUMP JUMPDEST PUSH0 PUSH2 0xE33 DUP4 DUP4 PUSH2 0xDCD JUMP JUMPDEST SWAP1 POP SWAP3 SWAP2 POP POP JUMP JUMPDEST PUSH0 PUSH1 0x20 DUP3 ADD SWAP1 POP SWAP2 SWAP1 POP JUMP JUMPDEST PUSH0 PUSH2 0xE51 DUP3 PUSH2 0xCF2 JUMP JUMPDEST PUSH2 0xE5B DUP2 DUP6 PUSH2 0xCFC JUMP JUMPDEST SWAP4 POP DUP4 PUSH1 0x20 DUP3 MUL DUP6 ADD PUSH2 0xE6D DUP6 PUSH2 0xD0C JUMP JUMPDEST DUP1 PUSH0 JUMPDEST DUP6 DUP2 LT ISZERO PUSH2 0xEA8 JUMPI DUP5 DUP5 SUB DUP10 MSTORE DUP2 MLOAD PUSH2 0xE89 DUP6 DUP3 PUSH2 0xE28 JUMP JUMPDEST SWAP5 POP PUSH2 0xE94 DUP4 PUSH2 0xE3B JUMP JUMPDEST SWAP3 POP PUSH1 0x20 DUP11 ADD SWAP10 POP POP PUSH1 0x1 DUP2 ADD SWAP1 POP PUSH2 0xE70 JUMP JUMPDEST POP DUP3 SWAP8 POP DUP8 SWAP6 POP POP POP POP POP POP SWAP3 SWAP2 POP POP JUMP JUMPDEST PUSH0 PUSH1 0x40 DUP3 ADD SWAP1 POP DUP2 DUP2 SUB PUSH0 DUP4 ADD MSTORE PUSH2 0xED1 DUP2 PUSH2 0xCD0 JUMP JUMPDEST SWAP1 POP DUP2 DUP2 SUB PUSH1 0x20 DUP4 ADD MSTORE PUSH2 0xEE5 DUP2 DUP5 PUSH2 0xE47 JUMP JUMPDEST SWAP1 POP SWAP3 SWAP2 POP POP JUMP JUMPDEST PUSH32 0x4D6F64756C61722053746F7261676520537562204F776E657220416464656400 PUSH0 DUP3 ADD MSTORE POP JUMP JUMPDEST PUSH0 PUSH2 0xF21 PUSH1 0x1F DUP4 PUSH2 0xC2C JUMP JUMPDEST SWAP2 POP PUSH2 0xF2C DUP3 PUSH2 0xEED JUMP JUMPDEST PUSH1 0x20 DUP3 ADD SWAP1 POP SWAP2 SWAP1 POP JUMP JUMPDEST PUSH0 PUSH1 0x40 DUP3 ADD SWAP1 POP DUP2 DUP2 SUB PUSH0 DUP4 ADD MSTORE PUSH2 0xF4E DUP2 PUSH2 0xF15 JUMP JUMPDEST SWAP1 POP DUP2 DUP2 SUB PUSH1 0x20 DUP4 ADD MSTORE PUSH2 0xF62 DUP2 DUP5 PUSH2 0xE47 JUMP JUMPDEST SWAP1 POP SWAP3 SWAP2 POP POP JUMP JUMPDEST PUSH32 0x4D6F64756C61722053746F7261676520537562204F776E65722052656D6F7665 PUSH0 DUP3 ADD MSTORE PUSH32 0x6400000000000000000000000000000000000000000000000000000000000000 PUSH1 0x20 DUP3 ADD MSTORE POP JUMP JUMPDEST PUSH0 PUSH2 0xFC4 PUSH1 0x21 DUP4 PUSH2 0xC2C JUMP JUMPDEST SWAP2 POP PUSH2 0xFCF DUP3 PUSH2 0xF6A JUMP JUMPDEST PUSH1 0x40 DUP3 ADD SWAP1 POP SWAP2 SWAP1 POP JUMP JUMPDEST PUSH0 PUSH1 0x40 DUP3 ADD SWAP1 POP DUP2 DUP2 SUB PUSH0 DUP4 ADD MSTORE PUSH2 0xFF1 DUP2 PUSH2 0xFB8 JUMP JUMPDEST SWAP1 POP DUP2 DUP2 SUB PUSH1 0x20 DUP4 ADD MSTORE PUSH2 0x1005 DUP2 DUP5 PUSH2 0xE47 JUMP JUMPDEST SWAP1 POP SWAP3 SWAP2 POP POP JUMP INVALID LOG2 PUSH5 0x6970667358 0x22 SLT KECCAK256 0xCE 0x22 0xC5 0x4D RETURNDATASIZE 0xC7 0xF7 PREVRANDAO MSTORE BALANCE 0xA9 MUL DUP11 PUSH25 0x657BF0B2A1E19C9B1D8DCABC815B9DDF7A5164736F6C634300 ADDMOD 0x1F STOP CALLER "
				},
				"gasEstimates": {
					"creation": {
						"codeDepositCost": "832600",
						"executionCost": "infinite",
						"totalCost": "infinite"
					},
					"external": {
						"events()": "infinite",
						"m_create_shared_storage(string)": "infinite",
						"p_allow_sub_owner(string,address)": "infinite",
						"p_remove_sub_owner(string,address)": "infinite"
					}
				},
				"methodIdentifiers": {
					"events()": "b5f8558c",
					"m_create_shared_storage(string)": "8af83ae7",
					"p_allow_sub_owner(string,address)": "da9650a1",
					"p_remove_sub_owner(string,address)": "ec3f01eb"
				}
			},
			"storageLayout": {
				"storage": [],
				"types": null
			},
			"userdoc": {
				"kind": "user",
				"methods": {},
				"version": 1
			}
		}
	}
}