{
	"Evm/core/base/vaultDelegator.sol": {
		"QiaraZKDelegator": {
			"abi": [
				{
					"inputs": [
						{
							"internalType": "address",
							"name": "_balance_verifier",
							"type": "address"
						},
						{
							"internalType": "address",
							"name": "_variable_verifier",
							"type": "address"
						},
						{
							"internalType": "address",
							"name": "_validator_verifier",
							"type": "address"
						},
						{
							"internalType": "address",
							"name": "_variablesRegistry",
							"type": "address"
						},
						{
							"internalType": "address",
							"name": "_validatorsRegistry",
							"type": "address"
						}
					],
					"stateMutability": "nonpayable",
					"type": "constructor"
				},
				{
					"inputs": [
						{
							"internalType": "address",
							"name": "owner",
							"type": "address"
						}
					],
					"name": "OwnableInvalidOwner",
					"type": "error"
				},
				{
					"inputs": [
						{
							"internalType": "address",
							"name": "account",
							"type": "address"
						}
					],
					"name": "OwnableUnauthorizedAccount",
					"type": "error"
				},
				{
					"anonymous": false,
					"inputs": [
						{
							"indexed": true,
							"internalType": "address",
							"name": "previousOwner",
							"type": "address"
						},
						{
							"indexed": true,
							"internalType": "address",
							"name": "newOwner",
							"type": "address"
						}
					],
					"name": "OwnershipTransferred",
					"type": "event"
				},
				{
					"inputs": [],
					"name": "balance_verifier",
					"outputs": [
						{
							"internalType": "contract IBalanceVerifier",
							"name": "",
							"type": "address"
						}
					],
					"stateMutability": "view",
					"type": "function"
				},
				{
					"inputs": [
						{
							"internalType": "uint256",
							"name": "xLow",
							"type": "uint256"
						},
						{
							"internalType": "uint256",
							"name": "xHigh",
							"type": "uint256"
						},
						{
							"internalType": "uint256",
							"name": "yLow",
							"type": "uint256"
						},
						{
							"internalType": "uint256",
							"name": "yHigh",
							"type": "uint256"
						}
					],
					"name": "deriveAddressFromSplitPubKey",
					"outputs": [
						{
							"internalType": "address",
							"name": "",
							"type": "address"
						}
					],
					"stateMutability": "pure",
					"type": "function"
				},
				{
					"inputs": [
						{
							"internalType": "uint256",
							"name": "_field",
							"type": "uint256"
						}
					],
					"name": "fieldToAddress",
					"outputs": [
						{
							"internalType": "address",
							"name": "",
							"type": "address"
						}
					],
					"stateMutability": "pure",
					"type": "function"
				},
				{
					"inputs": [
						{
							"internalType": "uint256",
							"name": "_field",
							"type": "uint256"
						}
					],
					"name": "fieldToBytes",
					"outputs": [
						{
							"internalType": "bytes",
							"name": "",
							"type": "bytes"
						}
					],
					"stateMutability": "pure",
					"type": "function"
				},
				{
					"inputs": [
						{
							"internalType": "uint256",
							"name": "_field",
							"type": "uint256"
						}
					],
					"name": "fieldToString",
					"outputs": [
						{
							"internalType": "string",
							"name": "",
							"type": "string"
						}
					],
					"stateMutability": "pure",
					"type": "function"
				},
				{
					"inputs": [
						{
							"internalType": "bytes32",
							"name": "_messageHash",
							"type": "bytes32"
						}
					],
					"name": "getEthSignedMessageHash",
					"outputs": [
						{
							"internalType": "bytes32",
							"name": "",
							"type": "bytes32"
						}
					],
					"stateMutability": "pure",
					"type": "function"
				},
				{
					"inputs": [],
					"name": "owner",
					"outputs": [
						{
							"internalType": "address",
							"name": "",
							"type": "address"
						}
					],
					"stateMutability": "view",
					"type": "function"
				},
				{
					"inputs": [
						{
							"internalType": "uint256[8]",
							"name": "proof",
							"type": "uint256[8]"
						},
						{
							"internalType": "uint256[6]",
							"name": "input",
							"type": "uint256[6]"
						},
						{
							"internalType": "bytes",
							"name": "_signatures",
							"type": "bytes"
						}
					],
					"name": "processZkValidator",
					"outputs": [],
					"stateMutability": "nonpayable",
					"type": "function"
				},
				{
					"inputs": [
						{
							"internalType": "uint256[8]",
							"name": "proof",
							"type": "uint256[8]"
						},
						{
							"internalType": "uint256[6]",
							"name": "input",
							"type": "uint256[6]"
						},
						{
							"internalType": "bytes",
							"name": "_signatures",
							"type": "bytes"
						}
					],
					"name": "processZkVariable",
					"outputs": [],
					"stateMutability": "nonpayable",
					"type": "function"
				},
				{
					"inputs": [
						{
							"internalType": "uint256[8]",
							"name": "proof",
							"type": "uint256[8]"
						},
						{
							"internalType": "uint256[6]",
							"name": "input",
							"type": "uint256[6]"
						},
						{
							"internalType": "bytes",
							"name": "_signatures",
							"type": "bytes"
						}
					],
					"name": "processZkWithdraw",
					"outputs": [],
					"stateMutability": "nonpayable",
					"type": "function"
				},
				{
					"inputs": [
						{
							"internalType": "bytes32",
							"name": "_ethSignedMessageHash",
							"type": "bytes32"
						},
						{
							"internalType": "bytes",
							"name": "_signature",
							"type": "bytes"
						}
					],
					"name": "recoverSigner",
					"outputs": [
						{
							"internalType": "address",
							"name": "",
							"type": "address"
						}
					],
					"stateMutability": "pure",
					"type": "function"
				},
				{
					"inputs": [],
					"name": "renounceOwnership",
					"outputs": [],
					"stateMutability": "nonpayable",
					"type": "function"
				},
				{
					"inputs": [
						{
							"internalType": "address",
							"name": "newOwner",
							"type": "address"
						}
					],
					"name": "transferOwnership",
					"outputs": [],
					"stateMutability": "nonpayable",
					"type": "function"
				},
				{
					"inputs": [
						{
							"internalType": "uint256",
							"name": "",
							"type": "uint256"
						}
					],
					"name": "usedNullifiers",
					"outputs": [
						{
							"internalType": "bool",
							"name": "",
							"type": "bool"
						}
					],
					"stateMutability": "view",
					"type": "function"
				},
				{
					"inputs": [],
					"name": "validator_verifier",
					"outputs": [
						{
							"internalType": "contract IValidatorVerifier",
							"name": "",
							"type": "address"
						}
					],
					"stateMutability": "view",
					"type": "function"
				},
				{
					"inputs": [],
					"name": "validatorsRegistry",
					"outputs": [
						{
							"internalType": "contract IValidators",
							"name": "",
							"type": "address"
						}
					],
					"stateMutability": "view",
					"type": "function"
				},
				{
					"inputs": [],
					"name": "variable_verifier",
					"outputs": [
						{
							"internalType": "contract IVariableVerifier",
							"name": "",
							"type": "address"
						}
					],
					"stateMutability": "view",
					"type": "function"
				},
				{
					"inputs": [],
					"name": "variablesRegistry",
					"outputs": [
						{
							"internalType": "contract IVariables",
							"name": "",
							"type": "address"
						}
					],
					"stateMutability": "view",
					"type": "function"
				}
			],
			"devdoc": {
				"errors": {
					"OwnableInvalidOwner(address)": [
						{
							"details": "The owner is not a valid owner account. (eg. `address(0)`)"
						}
					],
					"OwnableUnauthorizedAccount(address)": [
						{
							"details": "The caller account is not authorized to perform an operation."
						}
					]
				},
				"kind": "dev",
				"methods": {
					"owner()": {
						"details": "Returns the address of the current owner."
					},
					"renounceOwnership()": {
						"details": "Leaves the contract without owner. It will not be possible to call `onlyOwner` functions. Can only be called by the current owner. NOTE: Renouncing ownership will leave the contract without an owner, thereby disabling any functionality that is only available to the owner."
					},
					"transferOwnership(address)": {
						"details": "Transfers ownership of the contract to a new account (`newOwner`). Can only be called by the current owner."
					}
				},
				"version": 1
			},
			"evm": {
				"assembly": "    /* \"Evm/core/base/vaultDelegator.sol\":1049:11202  contract QiaraZKDelegator is Ownable {... */\n  mstore(0x40, 0x0120)\n    /* \"Evm/core/base/vaultDelegator.sol\":1479:1987  constructor(address _balance_verifier,address _variable_verifier,address _validator_verifier, address _variablesRegistry, address _validatorsRegistry) Ownable(msg.sender) {... */\n  callvalue\n  dup1\n  iszero\n  tag_1\n  jumpi\n  revert(0x00, 0x00)\ntag_1:\n  pop\n  mload(0x40)\n  sub(codesize, bytecodeSize)\n  dup1\n  bytecodeSize\n  dup4\n  codecopy\n  dup2\n  dup2\n  add\n  0x40\n  mstore\n  dup2\n  add\n  swap1\n  tag_2\n  swap2\n  swap1\n  tag_3\n  jump\t// in\ntag_2:\n    /* \"Evm/core/base/vaultDelegator.sol\":1638:1648  msg.sender */\n  caller\n    /* \"@openzeppelin/contracts/access/Ownable.sol\":1297:1298  0 */\n  0x00\n    /* \"@openzeppelin/contracts/access/Ownable.sol\":1273:1299  initialOwner == address(0) */\n  0xffffffffffffffffffffffffffffffffffffffff\n  and\n    /* \"@openzeppelin/contracts/access/Ownable.sol\":1273:1285  initialOwner */\n  dup2\n    /* \"@openzeppelin/contracts/access/Ownable.sol\":1273:1299  initialOwner == address(0) */\n  0xffffffffffffffffffffffffffffffffffffffff\n  and\n  sub\n    /* \"@openzeppelin/contracts/access/Ownable.sol\":1269:1364  if (initialOwner == address(0)) {... */\n  tag_7\n  jumpi\n    /* \"@openzeppelin/contracts/access/Ownable.sol\":1350:1351  0 */\n  0x00\n    /* \"@openzeppelin/contracts/access/Ownable.sol\":1322:1353  OwnableInvalidOwner(address(0)) */\n  mload(0x40)\n  0x1e4fbdf700000000000000000000000000000000000000000000000000000000\n  dup2\n  mstore\n  0x04\n  add\n  tag_8\n  swap2\n  swap1\n  tag_9\n  jump\t// in\ntag_8:\n  mload(0x40)\n  dup1\n  swap2\n  sub\n  swap1\n  revert\n    /* \"@openzeppelin/contracts/access/Ownable.sol\":1269:1364  if (initialOwner == address(0)) {... */\ntag_7:\n    /* \"@openzeppelin/contracts/access/Ownable.sol\":1373:1405  _transferOwnership(initialOwner) */\n  tag_10\n    /* \"@openzeppelin/contracts/access/Ownable.sol\":1392:1404  initialOwner */\n  dup2\n    /* \"@openzeppelin/contracts/access/Ownable.sol\":1373:1391  _transferOwnership */\n  shl(0x20, tag_11)\n    /* \"@openzeppelin/contracts/access/Ownable.sol\":1373:1405  _transferOwnership(initialOwner) */\n  0x20\n  shr\n  jump\t// in\ntag_10:\n    /* \"@openzeppelin/contracts/access/Ownable.sol\":1225:1412  constructor(address initialOwner) {... */\n  pop\n    /* \"Evm/core/base/vaultDelegator.sol\":1697:1714  _balance_verifier */\n  dup5\n    /* \"Evm/core/base/vaultDelegator.sol\":1661:1715  balance_verifier = IBalanceVerifier(_balance_verifier) */\n  0xffffffffffffffffffffffffffffffffffffffff\n  and\n  0x80\n  dup2\n  0xffffffffffffffffffffffffffffffffffffffff\n  and\n  dup2\n  mstore\n  pop\n  pop\n    /* \"Evm/core/base/vaultDelegator.sol\":1764:1782  _variable_verifier */\n  dup4\n    /* \"Evm/core/base/vaultDelegator.sol\":1726:1783  variable_verifier = IVariableVerifier(_variable_verifier) */\n  0xffffffffffffffffffffffffffffffffffffffff\n  and\n  0xa0\n  dup2\n  0xffffffffffffffffffffffffffffffffffffffff\n  and\n  dup2\n  mstore\n  pop\n  pop\n    /* \"Evm/core/base/vaultDelegator.sol\":1834:1853  _validator_verifier */\n  dup3\n    /* \"Evm/core/base/vaultDelegator.sol\":1794:1854  validator_verifier = IValidatorVerifier(_validator_verifier) */\n  0xffffffffffffffffffffffffffffffffffffffff\n  and\n  0xc0\n  dup2\n  0xffffffffffffffffffffffffffffffffffffffff\n  and\n  dup2\n  mstore\n  pop\n  pop\n    /* \"Evm/core/base/vaultDelegator.sol\":1896:1914  _variablesRegistry */\n  dup2\n    /* \"Evm/core/base/vaultDelegator.sol\":1865:1915  variablesRegistry = IVariables(_variablesRegistry) */\n  0xffffffffffffffffffffffffffffffffffffffff\n  and\n  0xe0\n  dup2\n  0xffffffffffffffffffffffffffffffffffffffff\n  and\n  dup2\n  mstore\n  pop\n  pop\n    /* \"Evm/core/base/vaultDelegator.sol\":1959:1978  _validatorsRegistry */\n  dup1\n    /* \"Evm/core/base/vaultDelegator.sol\":1926:1979  validatorsRegistry = IValidators(_validatorsRegistry) */\n  0xffffffffffffffffffffffffffffffffffffffff\n  and\n  0x0100\n  dup2\n  0xffffffffffffffffffffffffffffffffffffffff\n  and\n  dup2\n  mstore\n  pop\n  pop\n    /* \"Evm/core/base/vaultDelegator.sol\":1479:1987  constructor(address _balance_verifier,address _variable_verifier,address _validator_verifier, address _variablesRegistry, address _validatorsRegistry) Ownable(msg.sender) {... */\n  pop\n  pop\n  pop\n  pop\n  pop\n    /* \"Evm/core/base/vaultDelegator.sol\":1049:11202  contract QiaraZKDelegator is Ownable {... */\n  jump(tag_13)\n    /* \"@openzeppelin/contracts/access/Ownable.sol\":2912:3099  function _transferOwnership(address newOwner) internal virtual {... */\ntag_11:\n    /* \"@openzeppelin/contracts/access/Ownable.sol\":2985:3001  address oldOwner */\n  0x00\n    /* \"@openzeppelin/contracts/access/Ownable.sol\":3004:3010  _owner */\n  0x00\n  0x00\n  swap1\n  sload\n  swap1\n  0x0100\n  exp\n  swap1\n  div\n  0xffffffffffffffffffffffffffffffffffffffff\n  and\n    /* \"@openzeppelin/contracts/access/Ownable.sol\":2985:3010  address oldOwner = _owner */\n  swap1\n  pop\n    /* \"@openzeppelin/contracts/access/Ownable.sol\":3029:3037  newOwner */\n  dup2\n    /* \"@openzeppelin/contracts/access/Ownable.sol\":3020:3026  _owner */\n  0x00\n  0x00\n    /* \"@openzeppelin/contracts/access/Ownable.sol\":3020:3037  _owner = newOwner */\n  0x0100\n  exp\n  dup2\n  sload\n  dup2\n  0xffffffffffffffffffffffffffffffffffffffff\n  mul\n  not\n  and\n  swap1\n  dup4\n  0xffffffffffffffffffffffffffffffffffffffff\n  and\n  mul\n  or\n  swap1\n  sstore\n  pop\n    /* \"@openzeppelin/contracts/access/Ownable.sol\":3083:3091  newOwner */\n  dup2\n    /* \"@openzeppelin/contracts/access/Ownable.sol\":3052:3092  OwnershipTransferred(oldOwner, newOwner) */\n  0xffffffffffffffffffffffffffffffffffffffff\n  and\n    /* \"@openzeppelin/contracts/access/Ownable.sol\":3073:3081  oldOwner */\n  dup2\n    /* \"@openzeppelin/contracts/access/Ownable.sol\":3052:3092  OwnershipTransferred(oldOwner, newOwner) */\n  0xffffffffffffffffffffffffffffffffffffffff\n  and\n  0x8be0079c531659141344cd1fd0a4f28419497f9722a3daafe3b4186f6b6457e0\n  mload(0x40)\n  mload(0x40)\n  dup1\n  swap2\n  sub\n  swap1\n  log3\n    /* \"@openzeppelin/contracts/access/Ownable.sol\":2975:3099  {... */\n  pop\n    /* \"@openzeppelin/contracts/access/Ownable.sol\":2912:3099  function _transferOwnership(address newOwner) internal virtual {... */\n  pop\n  jump\t// out\n    /* \"#utility.yul\":88:205   */\ntag_16:\n    /* \"#utility.yul\":197:198   */\n  0x00\n    /* \"#utility.yul\":194:195   */\n  0x00\n    /* \"#utility.yul\":187:199   */\n  revert\n    /* \"#utility.yul\":334:460   */\ntag_18:\n    /* \"#utility.yul\":371:378   */\n  0x00\n    /* \"#utility.yul\":411:453   */\n  0xffffffffffffffffffffffffffffffffffffffff\n    /* \"#utility.yul\":404:409   */\n  dup3\n    /* \"#utility.yul\":400:454   */\n  and\n    /* \"#utility.yul\":389:454   */\n  swap1\n  pop\n    /* \"#utility.yul\":334:460   */\n  swap2\n  swap1\n  pop\n  jump\t// out\n    /* \"#utility.yul\":466:562   */\ntag_19:\n    /* \"#utility.yul\":503:510   */\n  0x00\n    /* \"#utility.yul\":532:556   */\n  tag_29\n    /* \"#utility.yul\":550:555   */\n  dup3\n    /* \"#utility.yul\":532:556   */\n  tag_18\n  jump\t// in\ntag_29:\n    /* \"#utility.yul\":521:556   */\n  swap1\n  pop\n    /* \"#utility.yul\":466:562   */\n  swap2\n  swap1\n  pop\n  jump\t// out\n    /* \"#utility.yul\":568:690   */\ntag_20:\n    /* \"#utility.yul\":641:665   */\n  tag_31\n    /* \"#utility.yul\":659:664   */\n  dup2\n    /* \"#utility.yul\":641:665   */\n  tag_19\n  jump\t// in\ntag_31:\n    /* \"#utility.yul\":634:639   */\n  dup2\n    /* \"#utility.yul\":631:666   */\n  eq\n    /* \"#utility.yul\":621:684   */\n  tag_32\n  jumpi\n    /* \"#utility.yul\":680:681   */\n  0x00\n    /* \"#utility.yul\":677:678   */\n  0x00\n    /* \"#utility.yul\":670:682   */\n  revert\n    /* \"#utility.yul\":621:684   */\ntag_32:\n    /* \"#utility.yul\":568:690   */\n  pop\n  jump\t// out\n    /* \"#utility.yul\":696:839   */\ntag_21:\n    /* \"#utility.yul\":753:758   */\n  0x00\n    /* \"#utility.yul\":784:790   */\n  dup2\n    /* \"#utility.yul\":778:791   */\n  mload\n    /* \"#utility.yul\":769:791   */\n  swap1\n  pop\n    /* \"#utility.yul\":800:833   */\n  tag_34\n    /* \"#utility.yul\":827:832   */\n  dup2\n    /* \"#utility.yul\":800:833   */\n  tag_20\n  jump\t// in\ntag_34:\n    /* \"#utility.yul\":696:839   */\n  swap3\n  swap2\n  pop\n  pop\n  jump\t// out\n    /* \"#utility.yul\":845:1822   */\ntag_3:\n    /* \"#utility.yul\":951:957   */\n  0x00\n    /* \"#utility.yul\":959:965   */\n  0x00\n    /* \"#utility.yul\":967:973   */\n  0x00\n    /* \"#utility.yul\":975:981   */\n  0x00\n    /* \"#utility.yul\":983:989   */\n  0x00\n    /* \"#utility.yul\":1032:1035   */\n  0xa0\n    /* \"#utility.yul\":1020:1029   */\n  dup7\n    /* \"#utility.yul\":1011:1018   */\n  dup9\n    /* \"#utility.yul\":1007:1030   */\n  sub\n    /* \"#utility.yul\":1003:1036   */\n  slt\n    /* \"#utility.yul\":1000:1120   */\n  iszero\n  tag_36\n  jumpi\n    /* \"#utility.yul\":1039:1118   */\n  tag_37\n  tag_16\n  jump\t// in\ntag_37:\n    /* \"#utility.yul\":1000:1120   */\ntag_36:\n    /* \"#utility.yul\":1159:1160   */\n  0x00\n    /* \"#utility.yul\":1184:1248   */\n  tag_38\n    /* \"#utility.yul\":1240:1247   */\n  dup9\n    /* \"#utility.yul\":1231:1237   */\n  dup3\n    /* \"#utility.yul\":1220:1229   */\n  dup10\n    /* \"#utility.yul\":1216:1238   */\n  add\n    /* \"#utility.yul\":1184:1248   */\n  tag_21\n  jump\t// in\ntag_38:\n    /* \"#utility.yul\":1174:1248   */\n  swap6\n  pop\n    /* \"#utility.yul\":1130:1258   */\n  pop\n    /* \"#utility.yul\":1297:1299   */\n  0x20\n    /* \"#utility.yul\":1323:1387   */\n  tag_39\n    /* \"#utility.yul\":1379:1386   */\n  dup9\n    /* \"#utility.yul\":1370:1376   */\n  dup3\n    /* \"#utility.yul\":1359:1368   */\n  dup10\n    /* \"#utility.yul\":1355:1377   */\n  add\n    /* \"#utility.yul\":1323:1387   */\n  tag_21\n  jump\t// in\ntag_39:\n    /* \"#utility.yul\":1313:1387   */\n  swap5\n  pop\n    /* \"#utility.yul\":1268:1397   */\n  pop\n    /* \"#utility.yul\":1436:1438   */\n  0x40\n    /* \"#utility.yul\":1462:1526   */\n  tag_40\n    /* \"#utility.yul\":1518:1525   */\n  dup9\n    /* \"#utility.yul\":1509:1515   */\n  dup3\n    /* \"#utility.yul\":1498:1507   */\n  dup10\n    /* \"#utility.yul\":1494:1516   */\n  add\n    /* \"#utility.yul\":1462:1526   */\n  tag_21\n  jump\t// in\ntag_40:\n    /* \"#utility.yul\":1452:1526   */\n  swap4\n  pop\n    /* \"#utility.yul\":1407:1536   */\n  pop\n    /* \"#utility.yul\":1575:1577   */\n  0x60\n    /* \"#utility.yul\":1601:1665   */\n  tag_41\n    /* \"#utility.yul\":1657:1664   */\n  dup9\n    /* \"#utility.yul\":1648:1654   */\n  dup3\n    /* \"#utility.yul\":1637:1646   */\n  dup10\n    /* \"#utility.yul\":1633:1655   */\n  add\n    /* \"#utility.yul\":1601:1665   */\n  tag_21\n  jump\t// in\ntag_41:\n    /* \"#utility.yul\":1591:1665   */\n  swap3\n  pop\n    /* \"#utility.yul\":1546:1675   */\n  pop\n    /* \"#utility.yul\":1714:1717   */\n  0x80\n    /* \"#utility.yul\":1741:1805   */\n  tag_42\n    /* \"#utility.yul\":1797:1804   */\n  dup9\n    /* \"#utility.yul\":1788:1794   */\n  dup3\n    /* \"#utility.yul\":1777:1786   */\n  dup10\n    /* \"#utility.yul\":1773:1795   */\n  add\n    /* \"#utility.yul\":1741:1805   */\n  tag_21\n  jump\t// in\ntag_42:\n    /* \"#utility.yul\":1731:1805   */\n  swap2\n  pop\n    /* \"#utility.yul\":1685:1815   */\n  pop\n    /* \"#utility.yul\":845:1822   */\n  swap3\n  swap6\n  pop\n  swap3\n  swap6\n  swap1\n  swap4\n  pop\n  jump\t// out\n    /* \"#utility.yul\":1828:1946   */\ntag_22:\n    /* \"#utility.yul\":1915:1939   */\n  tag_44\n    /* \"#utility.yul\":1933:1938   */\n  dup2\n    /* \"#utility.yul\":1915:1939   */\n  tag_19\n  jump\t// in\ntag_44:\n    /* \"#utility.yul\":1910:1913   */\n  dup3\n    /* \"#utility.yul\":1903:1940   */\n  mstore\n    /* \"#utility.yul\":1828:1946   */\n  pop\n  pop\n  jump\t// out\n    /* \"#utility.yul\":1952:2174   */\ntag_9:\n    /* \"#utility.yul\":2045:2049   */\n  0x00\n    /* \"#utility.yul\":2083:2085   */\n  0x20\n    /* \"#utility.yul\":2072:2081   */\n  dup3\n    /* \"#utility.yul\":2068:2086   */\n  add\n    /* \"#utility.yul\":2060:2086   */\n  swap1\n  pop\n    /* \"#utility.yul\":2096:2167   */\n  tag_46\n    /* \"#utility.yul\":2164:2165   */\n  0x00\n    /* \"#utility.yul\":2153:2162   */\n  dup4\n    /* \"#utility.yul\":2149:2166   */\n  add\n    /* \"#utility.yul\":2140:2146   */\n  dup5\n    /* \"#utility.yul\":2096:2167   */\n  tag_22\n  jump\t// in\ntag_46:\n    /* \"#utility.yul\":1952:2174   */\n  swap3\n  swap2\n  pop\n  pop\n  jump\t// out\n    /* \"Evm/core/base/vaultDelegator.sol\":1049:11202  contract QiaraZKDelegator is Ownable {... */\ntag_13:\n  mload(0x80)\n  mload(0xa0)\n  mload(0xc0)\n  mload(0xe0)\n  mload(0x0100)\n  codecopy(0x00, dataOffset(sub_0), dataSize(sub_0))\n  0x00\n  assignImmutable(\"0x98f4d6eec7613e33b36335f2ce6a27018d9a9f0999ab27807ed26ac6fd46f1a2\")\n  0x00\n  assignImmutable(\"0x980c46aeb242fb2816eec3c43a568cdc6adda404b46e62cce4e3fe7d929881e3\")\n  0x00\n  assignImmutable(\"0x7d2d5796d747fbd89dfac5294d9ace4e9994102d54e76e822233a2e75d4144b1\")\n  0x00\n  assignImmutable(\"0x7d94b1fd5befe75fac04677148728067a5c7750c4535d59cf8d692301dae078c\")\n  0x00\n  assignImmutable(\"0xb7020dd003fcd4d96af1507ff4dc7e2c1158f23ad0bacfdf3455869cf9fb4898\")\n  return(0x00, dataSize(sub_0))\nstop\n\nsub_0: assembly {\n        /* \"Evm/core/base/vaultDelegator.sol\":1049:11202  contract QiaraZKDelegator is Ownable {... */\n      mstore(0x40, 0x80)\n      callvalue\n      dup1\n      iszero\n      tag_1\n      jumpi\n      revert(0x00, 0x00)\n    tag_1:\n      pop\n      jumpi(tag_2, lt(calldatasize, 0x04))\n      shr(0xe0, calldataload(0x00))\n      dup1\n      0xaed881d8\n      gt\n      tag_21\n      jumpi\n      dup1\n      0xbf4d766e\n      gt\n      tag_22\n      jumpi\n      dup1\n      0xbf4d766e\n      eq\n      tag_16\n      jumpi\n      dup1\n      0xf2fde38b\n      eq\n      tag_17\n      jumpi\n      dup1\n      0xf82d29d9\n      eq\n      tag_18\n      jumpi\n      dup1\n      0xf90c0f40\n      eq\n      tag_19\n      jumpi\n      dup1\n      0xfa540801\n      eq\n      tag_20\n      jumpi\n      jump(tag_2)\n    tag_22:\n      dup1\n      0xaed881d8\n      eq\n      tag_12\n      jumpi\n      dup1\n      0xb3d63003\n      eq\n      tag_13\n      jumpi\n      dup1\n      0xb648f220\n      eq\n      tag_14\n      jumpi\n      dup1\n      0xbdf877c9\n      eq\n      tag_15\n      jumpi\n      jump(tag_2)\n    tag_21:\n      dup1\n      0x715018a6\n      gt\n      tag_23\n      jumpi\n      dup1\n      0x715018a6\n      eq\n      tag_7\n      jumpi\n      dup1\n      0x7a988c54\n      eq\n      tag_8\n      jumpi\n      dup1\n      0x8da5cb5b\n      eq\n      tag_9\n      jumpi\n      dup1\n      0x97aba7f9\n      eq\n      tag_10\n      jumpi\n      dup1\n      0xaad24061\n      eq\n      tag_11\n      jumpi\n      jump(tag_2)\n    tag_23:\n      dup1\n      0x19b8c941\n      eq\n      tag_3\n      jumpi\n      dup1\n      0x392c8731\n      eq\n      tag_4\n      jumpi\n      dup1\n      0x41e532ca\n      eq\n      tag_5\n      jumpi\n      dup1\n      0x4eb30d41\n      eq\n      tag_6\n      jumpi\n    tag_2:\n      revert(0x00, 0x00)\n        /* \"Evm/core/base/vaultDelegator.sol\":9734:9857  function fieldToBytes(uint256 _field) public pure returns (bytes memory) {... */\n    tag_3:\n      tag_24\n      0x04\n      dup1\n      calldatasize\n      sub\n      dup2\n      add\n      swap1\n      tag_25\n      swap2\n      swap1\n      tag_26\n      jump\t// in\n    tag_25:\n      tag_27\n      jump\t// in\n    tag_24:\n      mload(0x40)\n      tag_28\n      swap2\n      swap1\n      tag_29\n      jump\t// in\n    tag_28:\n      mload(0x40)\n      dup1\n      swap2\n      sub\n      swap1\n      return\n        /* \"Evm/core/base/vaultDelegator.sol\":1995:3159  function processZkWithdraw(uint[8] calldata proof, uint[6] calldata input,  bytes calldata _signatures) external {... */\n    tag_4:\n      tag_30\n      0x04\n      dup1\n      calldatasize\n      sub\n      dup2\n      add\n      swap1\n      tag_31\n      swap2\n      swap1\n      tag_32\n      jump\t// in\n    tag_31:\n      tag_33\n      jump\t// in\n    tag_30:\n      stop\n        /* \"Evm/core/base/vaultDelegator.sol\":9867:10419  function deriveAddressFromSplitPubKey(uint256 xLow, uint256 xHigh,uint256 yLow, uint256 yHigh) public pure returns (address) {... */\n    tag_5:\n      tag_34\n      0x04\n      dup1\n      calldatasize\n      sub\n      dup2\n      add\n      swap1\n      tag_35\n      swap2\n      swap1\n      tag_36\n      jump\t// in\n    tag_35:\n      tag_37\n      jump\t// in\n    tag_34:\n      mload(0x40)\n      tag_38\n      swap2\n      swap1\n      tag_39\n      jump\t// in\n    tag_38:\n      mload(0x40)\n      dup1\n      swap2\n      sub\n      swap1\n      return\n        /* \"Evm/core/base/vaultDelegator.sol\":1150:1202  IVariableVerifier public immutable variable_verifier */\n    tag_6:\n      tag_40\n      tag_41\n      jump\t// in\n    tag_40:\n      mload(0x40)\n      tag_42\n      swap2\n      swap1\n      tag_43\n      jump\t// in\n    tag_42:\n      mload(0x40)\n      dup1\n      swap2\n      sub\n      swap1\n      return\n        /* \"@openzeppelin/contracts/access/Ownable.sol\":2293:2394  function renounceOwnership() public virtual onlyOwner {... */\n    tag_7:\n      tag_44\n      tag_45\n      jump\t// in\n    tag_44:\n      stop\n        /* \"Evm/core/base/vaultDelegator.sol\":9608:9728  function fieldToAddress(uint256 _field) public pure returns (address) {... */\n    tag_8:\n      tag_46\n      0x04\n      dup1\n      calldatasize\n      sub\n      dup2\n      add\n      swap1\n      tag_47\n      swap2\n      swap1\n      tag_26\n      jump\t// in\n    tag_47:\n      tag_48\n      jump\t// in\n    tag_46:\n      mload(0x40)\n      tag_49\n      swap2\n      swap1\n      tag_39\n      jump\t// in\n    tag_49:\n      mload(0x40)\n      dup1\n      swap2\n      sub\n      swap1\n      return\n        /* \"@openzeppelin/contracts/access/Ownable.sol\":1638:1723  function owner() public view virtual returns (address) {... */\n    tag_9:\n      tag_50\n      tag_51\n      jump\t// in\n    tag_50:\n      mload(0x40)\n      tag_52\n      swap2\n      swap1\n      tag_39\n      jump\t// in\n    tag_52:\n      mload(0x40)\n      dup1\n      swap2\n      sub\n      swap1\n      return\n        /* \"Evm/core/base/vaultDelegator.sol\":10621:11199  function recoverSigner(bytes32 _ethSignedMessageHash, bytes memory _signature)public pure returns (address){... */\n    tag_10:\n      tag_53\n      0x04\n      dup1\n      calldatasize\n      sub\n      dup2\n      add\n      swap1\n      tag_54\n      swap2\n      swap1\n      tag_55\n      jump\t// in\n    tag_54:\n      tag_56\n      jump\t// in\n    tag_53:\n      mload(0x40)\n      tag_57\n      swap2\n      swap1\n      tag_39\n      jump\t// in\n    tag_57:\n      mload(0x40)\n      dup1\n      swap2\n      sub\n      swap1\n      return\n        /* \"Evm/core/base/vaultDelegator.sol\":1424:1470  mapping(uint256 => bool) public usedNullifiers */\n    tag_11:\n      tag_58\n      0x04\n      dup1\n      calldatasize\n      sub\n      dup2\n      add\n      swap1\n      tag_59\n      swap2\n      swap1\n      tag_26\n      jump\t// in\n    tag_59:\n      tag_60\n      jump\t// in\n    tag_58:\n      mload(0x40)\n      tag_61\n      swap2\n      swap1\n      tag_62\n      jump\t// in\n    tag_61:\n      mload(0x40)\n      dup1\n      swap2\n      sub\n      swap1\n      return\n        /* \"Evm/core/base/vaultDelegator.sol\":1322:1369  IValidators public immutable validatorsRegistry */\n    tag_12:\n      tag_63\n      tag_64\n      jump\t// in\n    tag_63:\n      mload(0x40)\n      tag_65\n      swap2\n      swap1\n      tag_66\n      jump\t// in\n    tag_65:\n      mload(0x40)\n      dup1\n      swap2\n      sub\n      swap1\n      return\n        /* \"Evm/core/base/vaultDelegator.sol\":1209:1263  IValidatorVerifier public immutable validator_verifier */\n    tag_13:\n      tag_67\n      tag_68\n      jump\t// in\n    tag_67:\n      mload(0x40)\n      tag_69\n      swap2\n      swap1\n      tag_70\n      jump\t// in\n    tag_69:\n      mload(0x40)\n      dup1\n      swap2\n      sub\n      swap1\n      return\n        /* \"Evm/core/base/vaultDelegator.sol\":8725:9602  function fieldToString(uint256 _field) public pure returns (string memory) {... */\n    tag_14:\n      tag_71\n      0x04\n      dup1\n      calldatasize\n      sub\n      dup2\n      add\n      swap1\n      tag_72\n      swap2\n      swap1\n      tag_26\n      jump\t// in\n    tag_72:\n      tag_73\n      jump\t// in\n    tag_71:\n      mload(0x40)\n      tag_74\n      swap2\n      swap1\n      tag_75\n      jump\t// in\n    tag_74:\n      mload(0x40)\n      dup1\n      swap2\n      sub\n      swap1\n      return\n        /* \"Evm/core/base/vaultDelegator.sol\":4131:4877  function processZkValidator(uint[8] calldata proof, uint[6] calldata input,bytes calldata _signatures) external {... */\n    tag_15:\n      tag_76\n      0x04\n      dup1\n      calldatasize\n      sub\n      dup2\n      add\n      swap1\n      tag_77\n      swap2\n      swap1\n      tag_32\n      jump\t// in\n    tag_77:\n      tag_78\n      jump\t// in\n    tag_76:\n      stop\n        /* \"Evm/core/base/vaultDelegator.sol\":1270:1315  IVariables public immutable variablesRegistry */\n    tag_16:\n      tag_79\n      tag_80\n      jump\t// in\n    tag_79:\n      mload(0x40)\n      tag_81\n      swap2\n      swap1\n      tag_82\n      jump\t// in\n    tag_81:\n      mload(0x40)\n      dup1\n      swap2\n      sub\n      swap1\n      return\n        /* \"@openzeppelin/contracts/access/Ownable.sol\":2543:2758  function transferOwnership(address newOwner) public virtual onlyOwner {... */\n    tag_17:\n      tag_83\n      0x04\n      dup1\n      calldatasize\n      sub\n      dup2\n      add\n      swap1\n      tag_84\n      swap2\n      swap1\n      tag_85\n      jump\t// in\n    tag_84:\n      tag_86\n      jump\t// in\n    tag_83:\n      stop\n        /* \"Evm/core/base/vaultDelegator.sol\":3165:4125  function processZkVariable(uint[8] calldata proof, uint[6] calldata input, bytes calldata _signatures) external {... */\n    tag_18:\n      tag_87\n      0x04\n      dup1\n      calldatasize\n      sub\n      dup2\n      add\n      swap1\n      tag_88\n      swap2\n      swap1\n      tag_32\n      jump\t// in\n    tag_88:\n      tag_89\n      jump\t// in\n    tag_87:\n      stop\n        /* \"Evm/core/base/vaultDelegator.sol\":1093:1143  IBalanceVerifier public immutable balance_verifier */\n    tag_19:\n      tag_90\n      tag_91\n      jump\t// in\n    tag_90:\n      mload(0x40)\n      tag_92\n      swap2\n      swap1\n      tag_93\n      jump\t// in\n    tag_92:\n      mload(0x40)\n      dup1\n      swap2\n      sub\n      swap1\n      return\n        /* \"Evm/core/base/vaultDelegator.sol\":10427:10615  function getEthSignedMessageHash(bytes32 _messageHash) public pure returns (bytes32) {... */\n    tag_20:\n      tag_94\n      0x04\n      dup1\n      calldatasize\n      sub\n      dup2\n      add\n      swap1\n      tag_95\n      swap2\n      swap1\n      tag_96\n      jump\t// in\n    tag_95:\n      tag_97\n      jump\t// in\n    tag_94:\n      mload(0x40)\n      tag_98\n      swap2\n      swap1\n      tag_99\n      jump\t// in\n    tag_98:\n      mload(0x40)\n      dup1\n      swap2\n      sub\n      swap1\n      return\n        /* \"Evm/core/base/vaultDelegator.sol\":9734:9857  function fieldToBytes(uint256 _field) public pure returns (bytes memory) {... */\n    tag_27:\n        /* \"Evm/core/base/vaultDelegator.sol\":9793:9805  bytes memory */\n      0x60\n        /* \"Evm/core/base/vaultDelegator.sol\":9842:9848  _field */\n      dup2\n        /* \"Evm/core/base/vaultDelegator.sol\":9825:9849  abi.encodePacked(_field) */\n      add(0x20, mload(0x40))\n      tag_101\n      swap2\n      swap1\n      tag_102\n      jump\t// in\n    tag_101:\n      mload(0x40)\n      0x20\n      dup2\n      dup4\n      sub\n      sub\n      dup2\n      mstore\n      swap1\n      0x40\n      mstore\n        /* \"Evm/core/base/vaultDelegator.sol\":9818:9849  return abi.encodePacked(_field) */\n      swap1\n      pop\n        /* \"Evm/core/base/vaultDelegator.sol\":9734:9857  function fieldToBytes(uint256 _field) public pure returns (bytes memory) {... */\n      swap2\n      swap1\n      pop\n      jump\t// out\n        /* \"Evm/core/base/vaultDelegator.sol\":1995:3159  function processZkWithdraw(uint[8] calldata proof, uint[6] calldata input,  bytes calldata _signatures) external {... */\n    tag_33:\n        /* \"Evm/core/base/vaultDelegator.sol\":2150:2166  balance_verifier */\n      immutable(\"0xb7020dd003fcd4d96af1507ff4dc7e2c1158f23ad0bacfdf3455869cf9fb4898\")\n        /* \"Evm/core/base/vaultDelegator.sol\":2150:2178  balance_verifier.verifyProof */\n      0xffffffffffffffffffffffffffffffffffffffff\n      and\n      0x9cb28658\n        /* \"Evm/core/base/vaultDelegator.sol\":2179:2184  proof */\n      dup6\n        /* \"Evm/core/base/vaultDelegator.sol\":2186:2191  input */\n      dup6\n        /* \"Evm/core/base/vaultDelegator.sol\":2150:2192  balance_verifier.verifyProof(proof, input) */\n      mload(0x40)\n      dup4\n      0xffffffff\n      and\n      0xe0\n      shl\n      dup2\n      mstore\n      0x04\n      add\n      tag_104\n      swap3\n      swap2\n      swap1\n      tag_105\n      jump\t// in\n    tag_104:\n      0x00\n      mload(0x40)\n      dup1\n      dup4\n      sub\n      dup2\n      dup7\n      dup1\n      extcodesize\n      iszero\n      dup1\n      iszero\n      tag_106\n      jumpi\n      revert(0x00, 0x00)\n    tag_106:\n      pop\n      gas\n      staticcall\n      iszero\n      dup1\n      iszero\n      tag_108\n      jumpi\n      returndatacopy(0x00, 0x00, returndatasize)\n      revert(0x00, returndatasize)\n    tag_108:\n      pop\n      pop\n      pop\n      pop\n        /* \"Evm/core/base/vaultDelegator.sol\":2206:2220  uint256 amount */\n      0x00\n        /* \"Evm/core/base/vaultDelegator.sol\":2222:2239  address vaultAddr */\n      0x00\n        /* \"Evm/core/base/vaultDelegator.sol\":2241:2266  string memory storageName */\n      0x00\n        /* \"Evm/core/base/vaultDelegator.sol\":2270:2295  _prepareWithdrawal(input) */\n      tag_109\n        /* \"Evm/core/base/vaultDelegator.sol\":2289:2294  input */\n      dup7\n        /* \"Evm/core/base/vaultDelegator.sol\":2270:2288  _prepareWithdrawal */\n      tag_110\n        /* \"Evm/core/base/vaultDelegator.sol\":2270:2295  _prepareWithdrawal(input) */\n      jump\t// in\n    tag_109:\n        /* \"Evm/core/base/vaultDelegator.sol\":2205:2295  (uint256 amount, address vaultAddr, string memory storageName) = _prepareWithdrawal(input) */\n      swap3\n      pop\n      swap3\n      pop\n      swap3\n      pop\n        /* \"Evm/core/base/vaultDelegator.sol\":2339:2352  uint256 userL */\n      0x00\n        /* \"Evm/core/base/vaultDelegator.sol\":2355:2360  input */\n      dup7\n        /* \"Evm/core/base/vaultDelegator.sol\":2361:2362  2 */\n      0x02\n        /* \"Evm/core/base/vaultDelegator.sol\":2355:2363  input[2] */\n      0x06\n      dup2\n      lt\n      tag_111\n      jumpi\n      tag_112\n      tag_113\n      jump\t// in\n    tag_112:\n    tag_111:\n      0x20\n      mul\n      add\n      calldataload\n        /* \"Evm/core/base/vaultDelegator.sol\":2339:2363  uint256 userL = input[2] */\n      swap1\n      pop\n        /* \"Evm/core/base/vaultDelegator.sol\":2374:2387  uint256 userH */\n      0x00\n        /* \"Evm/core/base/vaultDelegator.sol\":2390:2395  input */\n      dup8\n        /* \"Evm/core/base/vaultDelegator.sol\":2396:2397  3 */\n      0x03\n        /* \"Evm/core/base/vaultDelegator.sol\":2390:2398  input[3] */\n      0x06\n      dup2\n      lt\n      tag_114\n      jumpi\n      tag_115\n      tag_113\n      jump\t// in\n    tag_115:\n    tag_114:\n      0x20\n      mul\n      add\n      calldataload\n        /* \"Evm/core/base/vaultDelegator.sol\":2374:2398  uint256 userH = input[3] */\n      swap1\n      pop\n        /* \"Evm/core/base/vaultDelegator.sol\":2443:2460  uint256 nullifier */\n      0x00\n        /* \"Evm/core/base/vaultDelegator.sol\":2463:2490  _calculateNullifier8(input) */\n      tag_116\n        /* \"Evm/core/base/vaultDelegator.sol\":2484:2489  input */\n      dup10\n        /* \"Evm/core/base/vaultDelegator.sol\":2463:2483  _calculateNullifier8 */\n      tag_117\n        /* \"Evm/core/base/vaultDelegator.sol\":2463:2490  _calculateNullifier8(input) */\n      jump\t// in\n    tag_116:\n        /* \"Evm/core/base/vaultDelegator.sol\":2443:2490  uint256 nullifier = _calculateNullifier8(input) */\n      swap1\n      pop\n        /* \"Evm/core/base/vaultDelegator.sol\":2696:2749  _verifyAllSignatures(bytes32(nullifier), _signatures) */\n      tag_118\n        /* \"Evm/core/base/vaultDelegator.sol\":2725:2734  nullifier */\n      dup2\n        /* \"Evm/core/base/vaultDelegator.sol\":2717:2735  bytes32(nullifier) */\n      0x00\n      shl\n        /* \"Evm/core/base/vaultDelegator.sol\":2737:2748  _signatures */\n      dup10\n      dup10\n        /* \"Evm/core/base/vaultDelegator.sol\":2696:2716  _verifyAllSignatures */\n      tag_119\n        /* \"Evm/core/base/vaultDelegator.sol\":2696:2749  _verifyAllSignatures(bytes32(nullifier), _signatures) */\n      jump\t// in\n    tag_118:\n        /* \"Evm/core/base/vaultDelegator.sol\":2769:2783  usedNullifiers */\n      0x01\n        /* \"Evm/core/base/vaultDelegator.sol\":2769:2794  usedNullifiers[nullifier] */\n      0x00\n        /* \"Evm/core/base/vaultDelegator.sol\":2784:2793  nullifier */\n      dup3\n        /* \"Evm/core/base/vaultDelegator.sol\":2769:2794  usedNullifiers[nullifier] */\n      dup2\n      mstore\n      0x20\n      add\n      swap1\n      dup2\n      mstore\n      0x20\n      add\n      0x00\n      keccak256\n      0x00\n      swap1\n      sload\n      swap1\n      0x0100\n      exp\n      swap1\n      div\n      0xff\n      and\n        /* \"Evm/core/base/vaultDelegator.sol\":2768:2794  !usedNullifiers[nullifier] */\n      iszero\n        /* \"Evm/core/base/vaultDelegator.sol\":2760:2821  require(!usedNullifiers[nullifier], \"Replay attack detected\") */\n      tag_120\n      jumpi\n      mload(0x40)\n      0x08c379a000000000000000000000000000000000000000000000000000000000\n      dup2\n      mstore\n      0x04\n      add\n      tag_121\n      swap1\n      tag_122\n      jump\t// in\n    tag_121:\n      mload(0x40)\n      dup1\n      swap2\n      sub\n      swap1\n      revert\n    tag_120:\n        /* \"Evm/core/base/vaultDelegator.sol\":2860:2864  true */\n      0x01\n        /* \"Evm/core/base/vaultDelegator.sol\":2832:2846  usedNullifiers */\n      dup1\n        /* \"Evm/core/base/vaultDelegator.sol\":2832:2857  usedNullifiers[nullifier] */\n      0x00\n        /* \"Evm/core/base/vaultDelegator.sol\":2847:2856  nullifier */\n      dup4\n        /* \"Evm/core/base/vaultDelegator.sol\":2832:2857  usedNullifiers[nullifier] */\n      dup2\n      mstore\n      0x20\n      add\n      swap1\n      dup2\n      mstore\n      0x20\n      add\n      0x00\n      keccak256\n      0x00\n        /* \"Evm/core/base/vaultDelegator.sol\":2832:2864  usedNullifiers[nullifier] = true */\n      0x0100\n      exp\n      dup2\n      sload\n      dup2\n      0xff\n      mul\n      not\n      and\n      swap1\n      dup4\n      iszero\n      iszero\n      mul\n      or\n      swap1\n      sstore\n      pop\n        /* \"Evm/core/base/vaultDelegator.sol\":2952:2964  address user */\n      0x00\n        /* \"Evm/core/base/vaultDelegator.sol\":3000:3005  userL */\n      dup4\n        /* \"Evm/core/base/vaultDelegator.sol\":2993:2996  128 */\n      0x80\n        /* \"Evm/core/base/vaultDelegator.sol\":2984:2989  userH */\n      dup5\n        /* \"Evm/core/base/vaultDelegator.sol\":2984:2996  userH << 128 */\n      swap1\n      shl\n        /* \"Evm/core/base/vaultDelegator.sol\":2983:3005  (userH << 128) | userL */\n      or\n        /* \"Evm/core/base/vaultDelegator.sol\":2952:3007  address user = address(uint160((userH << 128) | userL)) */\n      swap1\n      pop\n        /* \"Evm/core/base/vaultDelegator.sol\":3088:3097  vaultAddr */\n      dup6\n        /* \"Evm/core/base/vaultDelegator.sol\":3076:3113  IQiaraVault(vaultAddr).directWithdraw */\n      0xffffffffffffffffffffffffffffffffffffffff\n      and\n      0x7a9eceb4\n        /* \"Evm/core/base/vaultDelegator.sol\":3114:3118  user */\n      dup3\n        /* \"Evm/core/base/vaultDelegator.sol\":3120:3131  storageName */\n      dup8\n        /* \"Evm/core/base/vaultDelegator.sol\":3133:3139  amount */\n      dup11\n        /* \"Evm/core/base/vaultDelegator.sol\":3141:3150  nullifier */\n      dup7\n        /* \"Evm/core/base/vaultDelegator.sol\":3076:3151  IQiaraVault(vaultAddr).directWithdraw(user, storageName, amount, nullifier) */\n      mload(0x40)\n      dup6\n      0xffffffff\n      and\n      0xe0\n      shl\n      dup2\n      mstore\n      0x04\n      add\n      tag_123\n      swap5\n      swap4\n      swap3\n      swap2\n      swap1\n      tag_124\n      jump\t// in\n    tag_123:\n      0x00\n      mload(0x40)\n      dup1\n      dup4\n      sub\n      dup2\n      0x00\n      dup8\n      dup1\n      extcodesize\n      iszero\n      dup1\n      iszero\n      tag_125\n      jumpi\n      revert(0x00, 0x00)\n    tag_125:\n      pop\n      gas\n      call\n      iszero\n      dup1\n      iszero\n      tag_127\n      jumpi\n      returndatacopy(0x00, 0x00, returndatasize)\n      revert(0x00, returndatasize)\n    tag_127:\n      pop\n      pop\n      pop\n      pop\n        /* \"Evm/core/base/vaultDelegator.sol\":2108:3159  {... */\n      pop\n      pop\n      pop\n      pop\n      pop\n      pop\n      pop\n        /* \"Evm/core/base/vaultDelegator.sol\":1995:3159  function processZkWithdraw(uint[8] calldata proof, uint[6] calldata input,  bytes calldata _signatures) external {... */\n      pop\n      pop\n      pop\n      pop\n      jump\t// out\n        /* \"Evm/core/base/vaultDelegator.sol\":9867:10419  function deriveAddressFromSplitPubKey(uint256 xLow, uint256 xHigh,uint256 yLow, uint256 yHigh) public pure returns (address) {... */\n    tag_37:\n        /* \"Evm/core/base/vaultDelegator.sol\":9983:9990  address */\n      0x00\n        /* \"Evm/core/base/vaultDelegator.sol\":10082:10091  uint256 x */\n      0x00\n        /* \"Evm/core/base/vaultDelegator.sol\":10111:10115  xLow */\n      dup6\n        /* \"Evm/core/base/vaultDelegator.sol\":10104:10107  128 */\n      0x80\n        /* \"Evm/core/base/vaultDelegator.sol\":10095:10100  xHigh */\n      dup7\n        /* \"Evm/core/base/vaultDelegator.sol\":10095:10107  xHigh << 128 */\n      swap1\n      shl\n        /* \"Evm/core/base/vaultDelegator.sol\":10094:10115  (xHigh << 128) | xLow */\n      or\n        /* \"Evm/core/base/vaultDelegator.sol\":10082:10115  uint256 x = (xHigh << 128) | xLow */\n      swap1\n      pop\n        /* \"Evm/core/base/vaultDelegator.sol\":10126:10135  uint256 y */\n      0x00\n        /* \"Evm/core/base/vaultDelegator.sol\":10155:10159  yLow */\n      dup5\n        /* \"Evm/core/base/vaultDelegator.sol\":10148:10151  128 */\n      0x80\n        /* \"Evm/core/base/vaultDelegator.sol\":10139:10144  yHigh */\n      dup6\n        /* \"Evm/core/base/vaultDelegator.sol\":10139:10151  yHigh << 128 */\n      swap1\n      shl\n        /* \"Evm/core/base/vaultDelegator.sol\":10138:10159  (yHigh << 128) | yLow */\n      or\n        /* \"Evm/core/base/vaultDelegator.sol\":10126:10159  uint256 y = (yHigh << 128) | yLow */\n      swap1\n      pop\n        /* \"Evm/core/base/vaultDelegator.sol\":10402:10403  x */\n      dup2\n        /* \"Evm/core/base/vaultDelegator.sol\":10405:10406  y */\n      dup2\n        /* \"Evm/core/base/vaultDelegator.sol\":10385:10407  abi.encodePacked(x, y) */\n      add(0x20, mload(0x40))\n      tag_129\n      swap3\n      swap2\n      swap1\n      tag_130\n      jump\t// in\n    tag_129:\n      mload(0x40)\n      0x20\n      dup2\n      dup4\n      sub\n      sub\n      dup2\n      mstore\n      swap1\n      0x40\n      mstore\n        /* \"Evm/core/base/vaultDelegator.sol\":10375:10408  keccak256(abi.encodePacked(x, y)) */\n      dup1\n      mload\n      swap1\n      0x20\n      add\n      keccak256\n        /* \"Evm/core/base/vaultDelegator.sol\":10367:10409  uint256(keccak256(abi.encodePacked(x, y))) */\n      0x00\n      shr\n        /* \"Evm/core/base/vaultDelegator.sol\":10344:10411  return address(uint160(uint256(keccak256(abi.encodePacked(x, y))))) */\n      swap3\n      pop\n      pop\n      pop\n        /* \"Evm/core/base/vaultDelegator.sol\":9867:10419  function deriveAddressFromSplitPubKey(uint256 xLow, uint256 xHigh,uint256 yLow, uint256 yHigh) public pure returns (address) {... */\n      swap5\n      swap4\n      pop\n      pop\n      pop\n      pop\n      jump\t// out\n        /* \"Evm/core/base/vaultDelegator.sol\":1150:1202  IVariableVerifier public immutable variable_verifier */\n    tag_41:\n      immutable(\"0x7d94b1fd5befe75fac04677148728067a5c7750c4535d59cf8d692301dae078c\")\n      dup2\n      jump\t// out\n        /* \"@openzeppelin/contracts/access/Ownable.sol\":2293:2394  function renounceOwnership() public virtual onlyOwner {... */\n    tag_45:\n        /* \"@openzeppelin/contracts/access/Ownable.sol\":1531:1544  _checkOwner() */\n      tag_132\n        /* \"@openzeppelin/contracts/access/Ownable.sol\":1531:1542  _checkOwner */\n      tag_133\n        /* \"@openzeppelin/contracts/access/Ownable.sol\":1531:1544  _checkOwner() */\n      jump\t// in\n    tag_132:\n        /* \"@openzeppelin/contracts/access/Ownable.sol\":2357:2387  _transferOwnership(address(0)) */\n      tag_135\n        /* \"@openzeppelin/contracts/access/Ownable.sol\":2384:2385  0 */\n      0x00\n        /* \"@openzeppelin/contracts/access/Ownable.sol\":2357:2375  _transferOwnership */\n      tag_136\n        /* \"@openzeppelin/contracts/access/Ownable.sol\":2357:2387  _transferOwnership(address(0)) */\n      jump\t// in\n    tag_135:\n        /* \"@openzeppelin/contracts/access/Ownable.sol\":2293:2394  function renounceOwnership() public virtual onlyOwner {... */\n      jump\t// out\n        /* \"Evm/core/base/vaultDelegator.sol\":9608:9728  function fieldToAddress(uint256 _field) public pure returns (address) {... */\n    tag_48:\n        /* \"Evm/core/base/vaultDelegator.sol\":9669:9676  address */\n      0x00\n        /* \"Evm/core/base/vaultDelegator.sol\":9712:9718  _field */\n      dup2\n        /* \"Evm/core/base/vaultDelegator.sol\":9689:9720  return address(uint160(_field)) */\n      swap1\n      pop\n        /* \"Evm/core/base/vaultDelegator.sol\":9608:9728  function fieldToAddress(uint256 _field) public pure returns (address) {... */\n      swap2\n      swap1\n      pop\n      jump\t// out\n        /* \"@openzeppelin/contracts/access/Ownable.sol\":1638:1723  function owner() public view virtual returns (address) {... */\n    tag_51:\n        /* \"@openzeppelin/contracts/access/Ownable.sol\":1684:1691  address */\n      0x00\n        /* \"@openzeppelin/contracts/access/Ownable.sol\":1710:1716  _owner */\n      0x00\n      0x00\n      swap1\n      sload\n      swap1\n      0x0100\n      exp\n      swap1\n      div\n      0xffffffffffffffffffffffffffffffffffffffff\n      and\n        /* \"@openzeppelin/contracts/access/Ownable.sol\":1703:1716  return _owner */\n      swap1\n      pop\n        /* \"@openzeppelin/contracts/access/Ownable.sol\":1638:1723  function owner() public view virtual returns (address) {... */\n      swap1\n      jump\t// out\n        /* \"Evm/core/base/vaultDelegator.sol\":10621:11199  function recoverSigner(bytes32 _ethSignedMessageHash, bytes memory _signature)public pure returns (address){... */\n    tag_56:\n        /* \"Evm/core/base/vaultDelegator.sol\":10720:10727  address */\n      0x00\n        /* \"Evm/core/base/vaultDelegator.sol\":10768:10770  65 */\n      0x41\n        /* \"Evm/core/base/vaultDelegator.sol\":10747:10757  _signature */\n      dup3\n        /* \"Evm/core/base/vaultDelegator.sol\":10747:10764  _signature.length */\n      mload\n        /* \"Evm/core/base/vaultDelegator.sol\":10747:10770  _signature.length == 65 */\n      eq\n        /* \"Evm/core/base/vaultDelegator.sol\":10739:10799  require(_signature.length == 65, \"Invalid signature length\") */\n      tag_140\n      jumpi\n      mload(0x40)\n      0x08c379a000000000000000000000000000000000000000000000000000000000\n      dup2\n      mstore\n      0x04\n      add\n      tag_141\n      swap1\n      tag_142\n      jump\t// in\n    tag_141:\n      mload(0x40)\n      dup1\n      swap2\n      sub\n      swap1\n      revert\n    tag_140:\n        /* \"Evm/core/base/vaultDelegator.sol\":10812:10821  bytes32 r */\n      0x00\n        /* \"Evm/core/base/vaultDelegator.sol\":10832:10841  bytes32 s */\n      0x00\n        /* \"Evm/core/base/vaultDelegator.sol\":10852:10859  uint8 v */\n      0x00\n        /* \"Evm/core/base/vaultDelegator.sol\":10973:10975  32 */\n      0x20\n        /* \"Evm/core/base/vaultDelegator.sol\":10961:10971  _signature */\n      dup6\n        /* \"Evm/core/base/vaultDelegator.sol\":10957:10976  add(_signature, 32) */\n      add\n        /* \"Evm/core/base/vaultDelegator.sol\":10951:10977  mload(add(_signature, 32)) */\n      mload\n        /* \"Evm/core/base/vaultDelegator.sol\":10946:10977  r := mload(add(_signature, 32)) */\n      swap3\n      pop\n        /* \"Evm/core/base/vaultDelegator.sol\":11018:11020  64 */\n      0x40\n        /* \"Evm/core/base/vaultDelegator.sol\":11006:11016  _signature */\n      dup6\n        /* \"Evm/core/base/vaultDelegator.sol\":11002:11021  add(_signature, 64) */\n      add\n        /* \"Evm/core/base/vaultDelegator.sol\":10996:11022  mload(add(_signature, 64)) */\n      mload\n        /* \"Evm/core/base/vaultDelegator.sol\":10991:11022  s := mload(add(_signature, 64)) */\n      swap2\n      pop\n        /* \"Evm/core/base/vaultDelegator.sol\":11071:11073  96 */\n      0x60\n        /* \"Evm/core/base/vaultDelegator.sol\":11059:11069  _signature */\n      dup6\n        /* \"Evm/core/base/vaultDelegator.sol\":11055:11074  add(_signature, 96) */\n      add\n        /* \"Evm/core/base/vaultDelegator.sol\":11049:11075  mload(add(_signature, 96)) */\n      mload\n        /* \"Evm/core/base/vaultDelegator.sol\":11046:11047  0 */\n      0x00\n        /* \"Evm/core/base/vaultDelegator.sol\":11041:11076  byte(0, mload(add(_signature, 96))) */\n      byte\n        /* \"Evm/core/base/vaultDelegator.sol\":11036:11076  v := byte(0, mload(add(_signature, 96))) */\n      swap1\n      pop\n        /* \"Evm/core/base/vaultDelegator.sol\":11150:11191  ecrecover(_ethSignedMessageHash, v, r, s) */\n      0x01\n        /* \"Evm/core/base/vaultDelegator.sol\":11160:11181  _ethSignedMessageHash */\n      dup7\n        /* \"Evm/core/base/vaultDelegator.sol\":11183:11184  v */\n      dup3\n        /* \"Evm/core/base/vaultDelegator.sol\":11186:11187  r */\n      dup6\n        /* \"Evm/core/base/vaultDelegator.sol\":11189:11190  s */\n      dup6\n        /* \"Evm/core/base/vaultDelegator.sol\":11150:11191  ecrecover(_ethSignedMessageHash, v, r, s) */\n      mload(0x40)\n      0x00\n      dup2\n      mstore\n      0x20\n      add\n      0x40\n      mstore\n      mload(0x40)\n      tag_143\n      swap5\n      swap4\n      swap3\n      swap2\n      swap1\n      tag_144\n      jump\t// in\n    tag_143:\n      0x20\n      mload(0x40)\n      0x20\n      dup2\n      sub\n      swap1\n      dup1\n      dup5\n      sub\n      swap1\n      dup6\n      gas\n      staticcall\n      iszero\n      dup1\n      iszero\n      tag_146\n      jumpi\n      returndatacopy(0x00, 0x00, returndatasize)\n      revert(0x00, returndatasize)\n    tag_146:\n      pop\n      pop\n      pop\n      mload(sub(mload(0x40), 0x20))\n        /* \"Evm/core/base/vaultDelegator.sol\":11143:11191  return ecrecover(_ethSignedMessageHash, v, r, s) */\n      swap4\n      pop\n      pop\n      pop\n      pop\n        /* \"Evm/core/base/vaultDelegator.sol\":10621:11199  function recoverSigner(bytes32 _ethSignedMessageHash, bytes memory _signature)public pure returns (address){... */\n      swap3\n      swap2\n      pop\n      pop\n      jump\t// out\n        /* \"Evm/core/base/vaultDelegator.sol\":1424:1470  mapping(uint256 => bool) public usedNullifiers */\n    tag_60:\n      mstore(0x20, 0x01)\n      dup1\n      0x00\n      mstore\n      keccak256(0x00, 0x40)\n      0x00\n      swap2\n      pop\n      sload\n      swap1\n      0x0100\n      exp\n      swap1\n      div\n      0xff\n      and\n      dup2\n      jump\t// out\n        /* \"Evm/core/base/vaultDelegator.sol\":1322:1369  IValidators public immutable validatorsRegistry */\n    tag_64:\n      immutable(\"0x98f4d6eec7613e33b36335f2ce6a27018d9a9f0999ab27807ed26ac6fd46f1a2\")\n      dup2\n      jump\t// out\n        /* \"Evm/core/base/vaultDelegator.sol\":1209:1263  IValidatorVerifier public immutable validator_verifier */\n    tag_68:\n      immutable(\"0x7d2d5796d747fbd89dfac5294d9ace4e9994102d54e76e822233a2e75d4144b1\")\n      dup2\n      jump\t// out\n        /* \"Evm/core/base/vaultDelegator.sol\":8725:9602  function fieldToString(uint256 _field) public pure returns (string memory) {... */\n    tag_73:\n        /* \"Evm/core/base/vaultDelegator.sol\":8785:8798  string memory */\n      0x60\n        /* \"Evm/core/base/vaultDelegator.sol\":8825:8826  0 */\n      0x00\n        /* \"Evm/core/base/vaultDelegator.sol\":8815:8821  _field */\n      dup3\n        /* \"Evm/core/base/vaultDelegator.sol\":8815:8826  _field == 0 */\n      sub\n        /* \"Evm/core/base/vaultDelegator.sol\":8811:8837  if (_field == 0) return \"\" */\n      tag_148\n      jumpi\n        /* \"Evm/core/base/vaultDelegator.sol\":8828:8837  return \"\" */\n      mload(0x40)\n      dup1\n      0x20\n      add\n      0x40\n      mstore\n      dup1\n      0x00\n      dup2\n      mstore\n      pop\n      swap1\n      pop\n      jump(tag_147)\n        /* \"Evm/core/base/vaultDelegator.sol\":8811:8837  if (_field == 0) return \"\" */\n    tag_148:\n        /* \"Evm/core/base/vaultDelegator.sol\":8913:8924  bytes32 b32 */\n      0x00\n        /* \"Evm/core/base/vaultDelegator.sol\":8935:8941  _field */\n      dup3\n        /* \"Evm/core/base/vaultDelegator.sol\":8927:8942  bytes32(_field) */\n      0x00\n      shl\n        /* \"Evm/core/base/vaultDelegator.sol\":8913:8942  bytes32 b32 = bytes32(_field) */\n      swap1\n      pop\n        /* \"Evm/core/base/vaultDelegator.sol\":9034:9045  uint8 start */\n      0x00\n        /* \"Evm/core/base/vaultDelegator.sol\":9048:9049  0 */\n      0x00\n        /* \"Evm/core/base/vaultDelegator.sol\":9034:9049  uint8 start = 0 */\n      swap1\n      pop\n        /* \"Evm/core/base/vaultDelegator.sol\":9060:9132  while (start < 32 && b32[start] == 0) {... */\n    tag_149:\n        /* \"Evm/core/base/vaultDelegator.sol\":9075:9077  32 */\n      0x20\n        /* \"Evm/core/base/vaultDelegator.sol\":9067:9072  start */\n      dup2\n        /* \"Evm/core/base/vaultDelegator.sol\":9067:9077  start < 32 */\n      0xff\n      and\n      lt\n        /* \"Evm/core/base/vaultDelegator.sol\":9067:9096  start < 32 && b32[start] == 0 */\n      dup1\n      iszero\n      tag_151\n      jumpi\n      pop\n        /* \"Evm/core/base/vaultDelegator.sol\":9095:9096  0 */\n      0x00\n        /* \"Evm/core/base/vaultDelegator.sol\":9081:9096  b32[start] == 0 */\n      0xf8\n      shl\n        /* \"Evm/core/base/vaultDelegator.sol\":9081:9084  b32 */\n      dup3\n        /* \"Evm/core/base/vaultDelegator.sol\":9085:9090  start */\n      dup3\n        /* \"Evm/core/base/vaultDelegator.sol\":9081:9091  b32[start] */\n      0xff\n      and\n      0x20\n      dup2\n      lt\n      tag_152\n      jumpi\n      tag_153\n      tag_113\n      jump\t// in\n    tag_153:\n    tag_152:\n      byte\n      0xf8\n      shl\n        /* \"Evm/core/base/vaultDelegator.sol\":9081:9096  b32[start] == 0 */\n      not(0xffffffffffffffffffffffffffffffffffffffffffffffffffffffffffffff)\n      and\n      eq\n        /* \"Evm/core/base/vaultDelegator.sol\":9067:9096  start < 32 && b32[start] == 0 */\n    tag_151:\n        /* \"Evm/core/base/vaultDelegator.sol\":9060:9132  while (start < 32 && b32[start] == 0) {... */\n      iszero\n      tag_150\n      jumpi\n        /* \"Evm/core/base/vaultDelegator.sol\":9113:9120  start++ */\n      dup1\n      dup1\n      tag_154\n      swap1\n      tag_155\n      jump\t// in\n    tag_154:\n      swap2\n      pop\n      pop\n        /* \"Evm/core/base/vaultDelegator.sol\":9060:9132  while (start < 32 && b32[start] == 0) {... */\n      jump(tag_149)\n    tag_150:\n        /* \"Evm/core/base/vaultDelegator.sol\":9279:9288  uint8 end */\n      0x00\n        /* \"Evm/core/base/vaultDelegator.sol\":9291:9293  31 */\n      0x1f\n        /* \"Evm/core/base/vaultDelegator.sol\":9279:9293  uint8 end = 31 */\n      swap1\n      pop\n        /* \"Evm/core/base/vaultDelegator.sol\":9304:9373  while (end > start && b32[end] == 0) {... */\n    tag_156:\n        /* \"Evm/core/base/vaultDelegator.sol\":9317:9322  start */\n      dup2\n        /* \"Evm/core/base/vaultDelegator.sol\":9311:9322  end > start */\n      0xff\n      and\n        /* \"Evm/core/base/vaultDelegator.sol\":9311:9314  end */\n      dup2\n        /* \"Evm/core/base/vaultDelegator.sol\":9311:9322  end > start */\n      0xff\n      and\n      gt\n        /* \"Evm/core/base/vaultDelegator.sol\":9311:9339  end > start && b32[end] == 0 */\n      dup1\n      iszero\n      tag_158\n      jumpi\n      pop\n        /* \"Evm/core/base/vaultDelegator.sol\":9338:9339  0 */\n      0x00\n        /* \"Evm/core/base/vaultDelegator.sol\":9326:9339  b32[end] == 0 */\n      0xf8\n      shl\n        /* \"Evm/core/base/vaultDelegator.sol\":9326:9329  b32 */\n      dup4\n        /* \"Evm/core/base/vaultDelegator.sol\":9330:9333  end */\n      dup3\n        /* \"Evm/core/base/vaultDelegator.sol\":9326:9334  b32[end] */\n      0xff\n      and\n      0x20\n      dup2\n      lt\n      tag_159\n      jumpi\n      tag_160\n      tag_113\n      jump\t// in\n    tag_160:\n    tag_159:\n      byte\n      0xf8\n      shl\n        /* \"Evm/core/base/vaultDelegator.sol\":9326:9339  b32[end] == 0 */\n      not(0xffffffffffffffffffffffffffffffffffffffffffffffffffffffffffffff)\n      and\n      eq\n        /* \"Evm/core/base/vaultDelegator.sol\":9311:9339  end > start && b32[end] == 0 */\n    tag_158:\n        /* \"Evm/core/base/vaultDelegator.sol\":9304:9373  while (end > start && b32[end] == 0) {... */\n      iszero\n      tag_157\n      jumpi\n        /* \"Evm/core/base/vaultDelegator.sol\":9356:9361  end-- */\n      dup1\n      dup1\n      tag_161\n      swap1\n      tag_162\n      jump\t// in\n    tag_161:\n      swap2\n      pop\n      pop\n        /* \"Evm/core/base/vaultDelegator.sol\":9304:9373  while (end > start && b32[end] == 0) {... */\n      jump(tag_156)\n    tag_157:\n        /* \"Evm/core/base/vaultDelegator.sol\":9385:9394  uint8 len */\n      0x00\n        /* \"Evm/core/base/vaultDelegator.sol\":9413:9414  1 */\n      0x01\n        /* \"Evm/core/base/vaultDelegator.sol\":9404:9409  start */\n      dup4\n        /* \"Evm/core/base/vaultDelegator.sol\":9398:9401  end */\n      dup4\n        /* \"Evm/core/base/vaultDelegator.sol\":9398:9409  end - start */\n      tag_163\n      swap2\n      swap1\n      tag_164\n      jump\t// in\n    tag_163:\n        /* \"Evm/core/base/vaultDelegator.sol\":9397:9414  (end - start) + 1 */\n      tag_165\n      swap2\n      swap1\n      tag_166\n      jump\t// in\n    tag_165:\n        /* \"Evm/core/base/vaultDelegator.sol\":9385:9414  uint8 len = (end - start) + 1 */\n      swap1\n      pop\n        /* \"Evm/core/base/vaultDelegator.sol\":9425:9444  bytes memory result */\n      0x00\n        /* \"Evm/core/base/vaultDelegator.sol\":9457:9460  len */\n      dup2\n        /* \"Evm/core/base/vaultDelegator.sol\":9447:9461  new bytes(len) */\n      0xff\n      and\n      0xffffffffffffffff\n      dup2\n      gt\n      iszero\n      tag_167\n      jumpi\n      tag_168\n      tag_169\n      jump\t// in\n    tag_168:\n    tag_167:\n      mload(0x40)\n      swap1\n      dup1\n      dup3\n      mstore\n      dup1\n      0x1f\n      add\n      not(0x1f)\n      and\n      0x20\n      add\n      dup3\n      add\n      0x40\n      mstore\n      dup1\n      iszero\n      tag_170\n      jumpi\n      dup2\n      0x20\n      add\n      0x01\n      dup3\n      mul\n      dup1\n      calldatasize\n      dup4\n      calldatacopy\n      dup1\n      dup3\n      add\n      swap2\n      pop\n      pop\n      swap1\n      pop\n    tag_170:\n      pop\n        /* \"Evm/core/base/vaultDelegator.sol\":9425:9461  bytes memory result = new bytes(len) */\n      swap1\n      pop\n        /* \"Evm/core/base/vaultDelegator.sol\":9479:9488  uint256 i */\n      0x00\n        /* \"Evm/core/base/vaultDelegator.sol\":9491:9492  0 */\n      0x00\n        /* \"Evm/core/base/vaultDelegator.sol\":9479:9492  uint256 i = 0 */\n      swap1\n      pop\n        /* \"Evm/core/base/vaultDelegator.sol\":9474:9561  for (uint256 i = 0; i < len; i++) {... */\n    tag_171:\n        /* \"Evm/core/base/vaultDelegator.sol\":9498:9501  len */\n      dup3\n        /* \"Evm/core/base/vaultDelegator.sol\":9494:9501  i < len */\n      0xff\n      and\n        /* \"Evm/core/base/vaultDelegator.sol\":9494:9495  i */\n      dup2\n        /* \"Evm/core/base/vaultDelegator.sol\":9494:9501  i < len */\n      lt\n        /* \"Evm/core/base/vaultDelegator.sol\":9474:9561  for (uint256 i = 0; i < len; i++) {... */\n      iszero\n      tag_172\n      jumpi\n        /* \"Evm/core/base/vaultDelegator.sol\":9535:9538  b32 */\n      dup6\n        /* \"Evm/core/base/vaultDelegator.sol\":9547:9548  i */\n      dup2\n        /* \"Evm/core/base/vaultDelegator.sol\":9539:9544  start */\n      dup7\n        /* \"Evm/core/base/vaultDelegator.sol\":9539:9548  start + i */\n      0xff\n      and\n      tag_174\n      swap2\n      swap1\n      tag_175\n      jump\t// in\n    tag_174:\n        /* \"Evm/core/base/vaultDelegator.sol\":9535:9549  b32[start + i] */\n      0x20\n      dup2\n      lt\n      tag_176\n      jumpi\n      tag_177\n      tag_113\n      jump\t// in\n    tag_177:\n    tag_176:\n      byte\n      0xf8\n      shl\n        /* \"Evm/core/base/vaultDelegator.sol\":9523:9529  result */\n      dup3\n        /* \"Evm/core/base/vaultDelegator.sol\":9530:9531  i */\n      dup3\n        /* \"Evm/core/base/vaultDelegator.sol\":9523:9532  result[i] */\n      dup2\n      mload\n      dup2\n      lt\n      tag_178\n      jumpi\n      tag_179\n      tag_113\n      jump\t// in\n    tag_179:\n    tag_178:\n      0x20\n      add\n      add\n        /* \"Evm/core/base/vaultDelegator.sol\":9523:9549  result[i] = b32[start + i] */\n      swap1\n      not(0xffffffffffffffffffffffffffffffffffffffffffffffffffffffffffffff)\n      and\n      swap1\n      dup2\n      0x00\n      byte\n      swap1\n      mstore8\n      pop\n        /* \"Evm/core/base/vaultDelegator.sol\":9503:9506  i++ */\n      dup1\n      dup1\n      0x01\n      add\n      swap2\n      pop\n      pop\n        /* \"Evm/core/base/vaultDelegator.sol\":9474:9561  for (uint256 i = 0; i < len; i++) {... */\n      jump(tag_171)\n    tag_172:\n      pop\n        /* \"Evm/core/base/vaultDelegator.sol\":9587:9593  result */\n      dup1\n        /* \"Evm/core/base/vaultDelegator.sol\":9573:9594  return string(result) */\n      swap6\n      pop\n      pop\n      pop\n      pop\n      pop\n      pop\n        /* \"Evm/core/base/vaultDelegator.sol\":8725:9602  function fieldToString(uint256 _field) public pure returns (string memory) {... */\n    tag_147:\n      swap2\n      swap1\n      pop\n      jump\t// out\n        /* \"Evm/core/base/vaultDelegator.sol\":4131:4877  function processZkValidator(uint[8] calldata proof, uint[6] calldata input,bytes calldata _signatures) external {... */\n    tag_78:\n        /* \"Evm/core/base/vaultDelegator.sol\":4285:4303  validator_verifier */\n      immutable(\"0x7d2d5796d747fbd89dfac5294d9ace4e9994102d54e76e822233a2e75d4144b1\")\n        /* \"Evm/core/base/vaultDelegator.sol\":4285:4315  validator_verifier.verifyProof */\n      0xffffffffffffffffffffffffffffffffffffffff\n      and\n      0x9cb28658\n        /* \"Evm/core/base/vaultDelegator.sol\":4316:4321  proof */\n      dup6\n        /* \"Evm/core/base/vaultDelegator.sol\":4323:4328  input */\n      dup6\n        /* \"Evm/core/base/vaultDelegator.sol\":4285:4329  validator_verifier.verifyProof(proof, input) */\n      mload(0x40)\n      dup4\n      0xffffffff\n      and\n      0xe0\n      shl\n      dup2\n      mstore\n      0x04\n      add\n      tag_181\n      swap3\n      swap2\n      swap1\n      tag_105\n      jump\t// in\n    tag_181:\n      0x00\n      mload(0x40)\n      dup1\n      dup4\n      sub\n      dup2\n      dup7\n      dup1\n      extcodesize\n      iszero\n      dup1\n      iszero\n      tag_182\n      jumpi\n      revert(0x00, 0x00)\n    tag_182:\n      pop\n      gas\n      staticcall\n      iszero\n      dup1\n      iszero\n      tag_184\n      jumpi\n      returndatacopy(0x00, 0x00, returndatasize)\n      revert(0x00, returndatasize)\n    tag_184:\n      pop\n      pop\n      pop\n      pop\n        /* \"Evm/core/base/vaultDelegator.sol\":4342:4357  uint256 chainID */\n      0x00\n        /* \"Evm/core/base/vaultDelegator.sol\":4360:4365  input */\n      dup4\n        /* \"Evm/core/base/vaultDelegator.sol\":4366:4367  4 */\n      0x04\n        /* \"Evm/core/base/vaultDelegator.sol\":4360:4368  input[4] */\n      0x06\n      dup2\n      lt\n      tag_185\n      jumpi\n      tag_186\n      tag_113\n      jump\t// in\n    tag_186:\n    tag_185:\n      0x20\n      mul\n      add\n      calldataload\n        /* \"Evm/core/base/vaultDelegator.sol\":4342:4368  uint256 chainID = input[4] */\n      swap1\n      pop\n        /* \"Evm/core/base/vaultDelegator.sol\":4398:4411  block.chainid */\n      chainid\n        /* \"Evm/core/base/vaultDelegator.sol\":4387:4394  chainID */\n      dup2\n        /* \"Evm/core/base/vaultDelegator.sol\":4387:4411  chainID == block.chainid */\n      eq\n        /* \"Evm/core/base/vaultDelegator.sol\":4379:4439  require(chainID == block.chainid, \"Wrong destination chain\") */\n      tag_187\n      jumpi\n      mload(0x40)\n      0x08c379a000000000000000000000000000000000000000000000000000000000\n      dup2\n      mstore\n      0x04\n      add\n      tag_188\n      swap1\n      tag_189\n      jump\t// in\n    tag_188:\n      mload(0x40)\n      dup1\n      swap2\n      sub\n      swap1\n      revert\n    tag_187:\n        /* \"Evm/core/base/vaultDelegator.sol\":4500:4517  uint256 nullifier */\n      0x00\n        /* \"Evm/core/base/vaultDelegator.sol\":4520:4547  _calculateNullifier6(input) */\n      tag_190\n        /* \"Evm/core/base/vaultDelegator.sol\":4541:4546  input */\n      dup6\n        /* \"Evm/core/base/vaultDelegator.sol\":4520:4540  _calculateNullifier6 */\n      tag_191\n        /* \"Evm/core/base/vaultDelegator.sol\":4520:4547  _calculateNullifier6(input) */\n      jump\t// in\n    tag_190:\n        /* \"Evm/core/base/vaultDelegator.sol\":4500:4547  uint256 nullifier = _calculateNullifier6(input) */\n      swap1\n      pop\n        /* \"Evm/core/base/vaultDelegator.sol\":4558:4611  _verifyAllSignatures(bytes32(nullifier), _signatures) */\n      tag_192\n        /* \"Evm/core/base/vaultDelegator.sol\":4587:4596  nullifier */\n      dup2\n        /* \"Evm/core/base/vaultDelegator.sol\":4579:4597  bytes32(nullifier) */\n      0x00\n      shl\n        /* \"Evm/core/base/vaultDelegator.sol\":4599:4610  _signatures */\n      dup6\n      dup6\n        /* \"Evm/core/base/vaultDelegator.sol\":4558:4578  _verifyAllSignatures */\n      tag_119\n        /* \"Evm/core/base/vaultDelegator.sol\":4558:4611  _verifyAllSignatures(bytes32(nullifier), _signatures) */\n      jump\t// in\n    tag_192:\n        /* \"Evm/core/base/vaultDelegator.sol\":4631:4645  usedNullifiers */\n      0x01\n        /* \"Evm/core/base/vaultDelegator.sol\":4631:4656  usedNullifiers[nullifier] */\n      0x00\n        /* \"Evm/core/base/vaultDelegator.sol\":4646:4655  nullifier */\n      dup3\n        /* \"Evm/core/base/vaultDelegator.sol\":4631:4656  usedNullifiers[nullifier] */\n      dup2\n      mstore\n      0x20\n      add\n      swap1\n      dup2\n      mstore\n      0x20\n      add\n      0x00\n      keccak256\n      0x00\n      swap1\n      sload\n      swap1\n      0x0100\n      exp\n      swap1\n      div\n      0xff\n      and\n        /* \"Evm/core/base/vaultDelegator.sol\":4630:4656  !usedNullifiers[nullifier] */\n      iszero\n        /* \"Evm/core/base/vaultDelegator.sol\":4622:4683  require(!usedNullifiers[nullifier], \"Replay attack detected\") */\n      tag_193\n      jumpi\n      mload(0x40)\n      0x08c379a000000000000000000000000000000000000000000000000000000000\n      dup2\n      mstore\n      0x04\n      add\n      tag_194\n      swap1\n      tag_122\n      jump\t// in\n    tag_194:\n      mload(0x40)\n      dup1\n      swap2\n      sub\n      swap1\n      revert\n    tag_193:\n        /* \"Evm/core/base/vaultDelegator.sol\":4722:4726  true */\n      0x01\n        /* \"Evm/core/base/vaultDelegator.sol\":4694:4708  usedNullifiers */\n      dup1\n        /* \"Evm/core/base/vaultDelegator.sol\":4694:4719  usedNullifiers[nullifier] */\n      0x00\n        /* \"Evm/core/base/vaultDelegator.sol\":4709:4718  nullifier */\n      dup4\n        /* \"Evm/core/base/vaultDelegator.sol\":4694:4719  usedNullifiers[nullifier] */\n      dup2\n      mstore\n      0x20\n      add\n      swap1\n      dup2\n      mstore\n      0x20\n      add\n      0x00\n      keccak256\n      0x00\n        /* \"Evm/core/base/vaultDelegator.sol\":4694:4726  usedNullifiers[nullifier] = true */\n      0x0100\n      exp\n      dup2\n      sload\n      dup2\n      0xff\n      mul\n      not\n      and\n      swap1\n      dup4\n      iszero\n      iszero\n      mul\n      or\n      swap1\n      sstore\n      pop\n        /* \"Evm/core/base/vaultDelegator.sol\":4739:4756  address validator */\n      0x00\n        /* \"Evm/core/base/vaultDelegator.sol\":4759:4783  fieldToAddress(input[5]) */\n      tag_195\n        /* \"Evm/core/base/vaultDelegator.sol\":4774:4779  input */\n      dup7\n        /* \"Evm/core/base/vaultDelegator.sol\":4780:4781  5 */\n      0x05\n        /* \"Evm/core/base/vaultDelegator.sol\":4774:4782  input[5] */\n      0x06\n      dup2\n      lt\n      tag_196\n      jumpi\n      tag_197\n      tag_113\n      jump\t// in\n    tag_197:\n    tag_196:\n      0x20\n      mul\n      add\n      calldataload\n        /* \"Evm/core/base/vaultDelegator.sol\":4759:4773  fieldToAddress */\n      tag_48\n        /* \"Evm/core/base/vaultDelegator.sol\":4759:4783  fieldToAddress(input[5]) */\n      jump\t// in\n    tag_195:\n        /* \"Evm/core/base/vaultDelegator.sol\":4739:4783  address validator = fieldToAddress(input[5]) */\n      swap1\n      pop\n        /* \"Evm/core/base/vaultDelegator.sol\":4822:4840  validatorsRegistry */\n      immutable(\"0x98f4d6eec7613e33b36335f2ce6a27018d9a9f0999ab27807ed26ac6fd46f1a2\")\n        /* \"Evm/core/base/vaultDelegator.sol\":4822:4858  validatorsRegistry.addPendingAddress */\n      0xffffffffffffffffffffffffffffffffffffffff\n      and\n      0x1722e147\n        /* \"Evm/core/base/vaultDelegator.sol\":4859:4868  validator */\n      dup3\n        /* \"Evm/core/base/vaultDelegator.sol\":4822:4869  validatorsRegistry.addPendingAddress(validator) */\n      mload(0x40)\n      dup3\n      0xffffffff\n      and\n      0xe0\n      shl\n      dup2\n      mstore\n      0x04\n      add\n      tag_198\n      swap2\n      swap1\n      tag_39\n      jump\t// in\n    tag_198:\n      0x00\n      mload(0x40)\n      dup1\n      dup4\n      sub\n      dup2\n      0x00\n      dup8\n      dup1\n      extcodesize\n      iszero\n      dup1\n      iszero\n      tag_199\n      jumpi\n      revert(0x00, 0x00)\n    tag_199:\n      pop\n      gas\n      call\n      iszero\n      dup1\n      iszero\n      tag_201\n      jumpi\n      returndatacopy(0x00, 0x00, returndatasize)\n      revert(0x00, returndatasize)\n    tag_201:\n      pop\n      pop\n      pop\n      pop\n        /* \"Evm/core/base/vaultDelegator.sol\":4243:4877  {... */\n      pop\n      pop\n      pop\n        /* \"Evm/core/base/vaultDelegator.sol\":4131:4877  function processZkValidator(uint[8] calldata proof, uint[6] calldata input,bytes calldata _signatures) external {... */\n      pop\n      pop\n      pop\n      pop\n      jump\t// out\n        /* \"Evm/core/base/vaultDelegator.sol\":1270:1315  IVariables public immutable variablesRegistry */\n    tag_80:\n      immutable(\"0x980c46aeb242fb2816eec3c43a568cdc6adda404b46e62cce4e3fe7d929881e3\")\n      dup2\n      jump\t// out\n        /* \"@openzeppelin/contracts/access/Ownable.sol\":2543:2758  function transferOwnership(address newOwner) public virtual onlyOwner {... */\n    tag_86:\n        /* \"@openzeppelin/contracts/access/Ownable.sol\":1531:1544  _checkOwner() */\n      tag_203\n        /* \"@openzeppelin/contracts/access/Ownable.sol\":1531:1542  _checkOwner */\n      tag_133\n        /* \"@openzeppelin/contracts/access/Ownable.sol\":1531:1544  _checkOwner() */\n      jump\t// in\n    tag_203:\n        /* \"@openzeppelin/contracts/access/Ownable.sol\":2647:2648  0 */\n      0x00\n        /* \"@openzeppelin/contracts/access/Ownable.sol\":2627:2649  newOwner == address(0) */\n      0xffffffffffffffffffffffffffffffffffffffff\n      and\n        /* \"@openzeppelin/contracts/access/Ownable.sol\":2627:2635  newOwner */\n      dup2\n        /* \"@openzeppelin/contracts/access/Ownable.sol\":2627:2649  newOwner == address(0) */\n      0xffffffffffffffffffffffffffffffffffffffff\n      and\n      sub\n        /* \"@openzeppelin/contracts/access/Ownable.sol\":2623:2714  if (newOwner == address(0)) {... */\n      tag_205\n      jumpi\n        /* \"@openzeppelin/contracts/access/Ownable.sol\":2700:2701  0 */\n      0x00\n        /* \"@openzeppelin/contracts/access/Ownable.sol\":2672:2703  OwnableInvalidOwner(address(0)) */\n      mload(0x40)\n      0x1e4fbdf700000000000000000000000000000000000000000000000000000000\n      dup2\n      mstore\n      0x04\n      add\n      tag_206\n      swap2\n      swap1\n      tag_39\n      jump\t// in\n    tag_206:\n      mload(0x40)\n      dup1\n      swap2\n      sub\n      swap1\n      revert\n        /* \"@openzeppelin/contracts/access/Ownable.sol\":2623:2714  if (newOwner == address(0)) {... */\n    tag_205:\n        /* \"@openzeppelin/contracts/access/Ownable.sol\":2723:2751  _transferOwnership(newOwner) */\n      tag_207\n        /* \"@openzeppelin/contracts/access/Ownable.sol\":2742:2750  newOwner */\n      dup2\n        /* \"@openzeppelin/contracts/access/Ownable.sol\":2723:2741  _transferOwnership */\n      tag_136\n        /* \"@openzeppelin/contracts/access/Ownable.sol\":2723:2751  _transferOwnership(newOwner) */\n      jump\t// in\n    tag_207:\n        /* \"@openzeppelin/contracts/access/Ownable.sol\":2543:2758  function transferOwnership(address newOwner) public virtual onlyOwner {... */\n      pop\n      jump\t// out\n        /* \"Evm/core/base/vaultDelegator.sol\":3165:4125  function processZkVariable(uint[8] calldata proof, uint[6] calldata input, bytes calldata _signatures) external {... */\n    tag_89:\n        /* \"Evm/core/base/vaultDelegator.sol\":3318:3335  variable_verifier */\n      immutable(\"0x7d94b1fd5befe75fac04677148728067a5c7750c4535d59cf8d692301dae078c\")\n        /* \"Evm/core/base/vaultDelegator.sol\":3318:3347  variable_verifier.verifyProof */\n      0xffffffffffffffffffffffffffffffffffffffff\n      and\n      0x9cb28658\n        /* \"Evm/core/base/vaultDelegator.sol\":3348:3353  proof */\n      dup6\n        /* \"Evm/core/base/vaultDelegator.sol\":3355:3360  input */\n      dup6\n        /* \"Evm/core/base/vaultDelegator.sol\":3318:3361  variable_verifier.verifyProof(proof, input) */\n      mload(0x40)\n      dup4\n      0xffffffff\n      and\n      0xe0\n      shl\n      dup2\n      mstore\n      0x04\n      add\n      tag_209\n      swap3\n      swap2\n      swap1\n      tag_105\n      jump\t// in\n    tag_209:\n      0x00\n      mload(0x40)\n      dup1\n      dup4\n      sub\n      dup2\n      dup7\n      dup1\n      extcodesize\n      iszero\n      dup1\n      iszero\n      tag_210\n      jumpi\n      revert(0x00, 0x00)\n    tag_210:\n      pop\n      gas\n      staticcall\n      iszero\n      dup1\n      iszero\n      tag_212\n      jumpi\n      returndatacopy(0x00, 0x00, returndatasize)\n      revert(0x00, returndatasize)\n    tag_212:\n      pop\n      pop\n      pop\n      pop\n        /* \"Evm/core/base/vaultDelegator.sol\":3374:3389  uint256 chainID */\n      0x00\n        /* \"Evm/core/base/vaultDelegator.sol\":3392:3397  input */\n      dup4\n        /* \"Evm/core/base/vaultDelegator.sol\":3398:3399  5 */\n      0x05\n        /* \"Evm/core/base/vaultDelegator.sol\":3392:3400  input[5] */\n      0x06\n      dup2\n      lt\n      tag_213\n      jumpi\n      tag_214\n      tag_113\n      jump\t// in\n    tag_214:\n    tag_213:\n      0x20\n      mul\n      add\n      calldataload\n        /* \"Evm/core/base/vaultDelegator.sol\":3374:3400  uint256 chainID = input[5] */\n      swap1\n      pop\n        /* \"Evm/core/base/vaultDelegator.sol\":3430:3443  block.chainid */\n      chainid\n        /* \"Evm/core/base/vaultDelegator.sol\":3419:3426  chainID */\n      dup2\n        /* \"Evm/core/base/vaultDelegator.sol\":3419:3443  chainID == block.chainid */\n      eq\n        /* \"Evm/core/base/vaultDelegator.sol\":3411:3471  require(chainID == block.chainid, \"Wrong destination chain\") */\n      tag_215\n      jumpi\n      mload(0x40)\n      0x08c379a000000000000000000000000000000000000000000000000000000000\n      dup2\n      mstore\n      0x04\n      add\n      tag_216\n      swap1\n      tag_189\n      jump\t// in\n    tag_216:\n      mload(0x40)\n      dup1\n      swap2\n      sub\n      swap1\n      revert\n    tag_215:\n        /* \"Evm/core/base/vaultDelegator.sol\":3531:3557  string memory variableName */\n      0x00\n        /* \"Evm/core/base/vaultDelegator.sol\":3560:3583  fieldToString(input[3]) */\n      tag_217\n        /* \"Evm/core/base/vaultDelegator.sol\":3574:3579  input */\n      dup6\n        /* \"Evm/core/base/vaultDelegator.sol\":3580:3581  3 */\n      0x03\n        /* \"Evm/core/base/vaultDelegator.sol\":3574:3582  input[3] */\n      0x06\n      dup2\n      lt\n      tag_218\n      jumpi\n      tag_219\n      tag_113\n      jump\t// in\n    tag_219:\n    tag_218:\n      0x20\n      mul\n      add\n      calldataload\n        /* \"Evm/core/base/vaultDelegator.sol\":3560:3573  fieldToString */\n      tag_73\n        /* \"Evm/core/base/vaultDelegator.sol\":3560:3583  fieldToString(input[3]) */\n      jump\t// in\n    tag_217:\n        /* \"Evm/core/base/vaultDelegator.sol\":3531:3583  string memory variableName = fieldToString(input[3]) */\n      swap1\n      pop\n        /* \"Evm/core/base/vaultDelegator.sol\":3594:3622  string memory variableHeader */\n      0x00\n        /* \"Evm/core/base/vaultDelegator.sol\":3625:3648  fieldToString(input[2]) */\n      tag_220\n        /* \"Evm/core/base/vaultDelegator.sol\":3639:3644  input */\n      dup7\n        /* \"Evm/core/base/vaultDelegator.sol\":3645:3646  2 */\n      0x02\n        /* \"Evm/core/base/vaultDelegator.sol\":3639:3647  input[2] */\n      0x06\n      dup2\n      lt\n      tag_221\n      jumpi\n      tag_222\n      tag_113\n      jump\t// in\n    tag_222:\n    tag_221:\n      0x20\n      mul\n      add\n      calldataload\n        /* \"Evm/core/base/vaultDelegator.sol\":3625:3638  fieldToString */\n      tag_73\n        /* \"Evm/core/base/vaultDelegator.sol\":3625:3648  fieldToString(input[2]) */\n      jump\t// in\n    tag_220:\n        /* \"Evm/core/base/vaultDelegator.sol\":3594:3648  string memory variableHeader = fieldToString(input[2]) */\n      swap1\n      pop\n        /* \"Evm/core/base/vaultDelegator.sol\":3659:3685  bytes memory variableValue */\n      0x00\n        /* \"Evm/core/base/vaultDelegator.sol\":3688:3710  fieldToBytes(input[4]) */\n      tag_223\n        /* \"Evm/core/base/vaultDelegator.sol\":3701:3706  input */\n      dup8\n        /* \"Evm/core/base/vaultDelegator.sol\":3707:3708  4 */\n      0x04\n        /* \"Evm/core/base/vaultDelegator.sol\":3701:3709  input[4] */\n      0x06\n      dup2\n      lt\n      tag_224\n      jumpi\n      tag_225\n      tag_113\n      jump\t// in\n    tag_225:\n    tag_224:\n      0x20\n      mul\n      add\n      calldataload\n        /* \"Evm/core/base/vaultDelegator.sol\":3688:3700  fieldToBytes */\n      tag_27\n        /* \"Evm/core/base/vaultDelegator.sol\":3688:3710  fieldToBytes(input[4]) */\n      jump\t// in\n    tag_223:\n        /* \"Evm/core/base/vaultDelegator.sol\":3659:3710  bytes memory variableValue = fieldToBytes(input[4]) */\n      swap1\n      pop\n        /* \"Evm/core/base/vaultDelegator.sol\":3771:3788  uint256 nullifier */\n      0x00\n        /* \"Evm/core/base/vaultDelegator.sol\":3791:3818  _calculateNullifier8(input) */\n      tag_226\n        /* \"Evm/core/base/vaultDelegator.sol\":3812:3817  input */\n      dup9\n        /* \"Evm/core/base/vaultDelegator.sol\":3791:3811  _calculateNullifier8 */\n      tag_117\n        /* \"Evm/core/base/vaultDelegator.sol\":3791:3818  _calculateNullifier8(input) */\n      jump\t// in\n    tag_226:\n        /* \"Evm/core/base/vaultDelegator.sol\":3771:3818  uint256 nullifier = _calculateNullifier8(input) */\n      swap1\n      pop\n        /* \"Evm/core/base/vaultDelegator.sol\":3829:3882  _verifyAllSignatures(bytes32(nullifier), _signatures) */\n      tag_227\n        /* \"Evm/core/base/vaultDelegator.sol\":3858:3867  nullifier */\n      dup2\n        /* \"Evm/core/base/vaultDelegator.sol\":3850:3868  bytes32(nullifier) */\n      0x00\n      shl\n        /* \"Evm/core/base/vaultDelegator.sol\":3870:3881  _signatures */\n      dup9\n      dup9\n        /* \"Evm/core/base/vaultDelegator.sol\":3829:3849  _verifyAllSignatures */\n      tag_119\n        /* \"Evm/core/base/vaultDelegator.sol\":3829:3882  _verifyAllSignatures(bytes32(nullifier), _signatures) */\n      jump\t// in\n    tag_227:\n        /* \"Evm/core/base/vaultDelegator.sol\":3902:3916  usedNullifiers */\n      0x01\n        /* \"Evm/core/base/vaultDelegator.sol\":3902:3927  usedNullifiers[nullifier] */\n      0x00\n        /* \"Evm/core/base/vaultDelegator.sol\":3917:3926  nullifier */\n      dup3\n        /* \"Evm/core/base/vaultDelegator.sol\":3902:3927  usedNullifiers[nullifier] */\n      dup2\n      mstore\n      0x20\n      add\n      swap1\n      dup2\n      mstore\n      0x20\n      add\n      0x00\n      keccak256\n      0x00\n      swap1\n      sload\n      swap1\n      0x0100\n      exp\n      swap1\n      div\n      0xff\n      and\n        /* \"Evm/core/base/vaultDelegator.sol\":3901:3927  !usedNullifiers[nullifier] */\n      iszero\n        /* \"Evm/core/base/vaultDelegator.sol\":3893:3954  require(!usedNullifiers[nullifier], \"Replay attack detected\") */\n      tag_228\n      jumpi\n      mload(0x40)\n      0x08c379a000000000000000000000000000000000000000000000000000000000\n      dup2\n      mstore\n      0x04\n      add\n      tag_229\n      swap1\n      tag_122\n      jump\t// in\n    tag_229:\n      mload(0x40)\n      dup1\n      swap2\n      sub\n      swap1\n      revert\n    tag_228:\n        /* \"Evm/core/base/vaultDelegator.sol\":3993:3997  true */\n      0x01\n        /* \"Evm/core/base/vaultDelegator.sol\":3965:3979  usedNullifiers */\n      dup1\n        /* \"Evm/core/base/vaultDelegator.sol\":3965:3990  usedNullifiers[nullifier] */\n      0x00\n        /* \"Evm/core/base/vaultDelegator.sol\":3980:3989  nullifier */\n      dup4\n        /* \"Evm/core/base/vaultDelegator.sol\":3965:3990  usedNullifiers[nullifier] */\n      dup2\n      mstore\n      0x20\n      add\n      swap1\n      dup2\n      mstore\n      0x20\n      add\n      0x00\n      keccak256\n      0x00\n        /* \"Evm/core/base/vaultDelegator.sol\":3965:3997  usedNullifiers[nullifier] = true */\n      0x0100\n      exp\n      dup2\n      sload\n      dup2\n      0xff\n      mul\n      not\n      and\n      swap1\n      dup4\n      iszero\n      iszero\n      mul\n      or\n      swap1\n      sstore\n      pop\n        /* \"Evm/core/base/vaultDelegator.sol\":4036:4053  variablesRegistry */\n      immutable(\"0x980c46aeb242fb2816eec3c43a568cdc6adda404b46e62cce4e3fe7d929881e3\")\n        /* \"Evm/core/base/vaultDelegator.sol\":4036:4072  variablesRegistry.addPendingVariable */\n      0xffffffffffffffffffffffffffffffffffffffff\n      and\n      0x2e057b9b\n        /* \"Evm/core/base/vaultDelegator.sol\":4073:4087  variableHeader */\n      dup5\n        /* \"Evm/core/base/vaultDelegator.sol\":4089:4101  variableName */\n      dup7\n        /* \"Evm/core/base/vaultDelegator.sol\":4103:4116  variableValue */\n      dup6\n        /* \"Evm/core/base/vaultDelegator.sol\":4036:4117  variablesRegistry.addPendingVariable(variableHeader, variableName, variableValue) */\n      mload(0x40)\n      dup5\n      0xffffffff\n      and\n      0xe0\n      shl\n      dup2\n      mstore\n      0x04\n      add\n      tag_230\n      swap4\n      swap3\n      swap2\n      swap1\n      tag_231\n      jump\t// in\n    tag_230:\n      0x00\n      mload(0x40)\n      dup1\n      dup4\n      sub\n      dup2\n      0x00\n      dup8\n      dup1\n      extcodesize\n      iszero\n      dup1\n      iszero\n      tag_232\n      jumpi\n      revert(0x00, 0x00)\n    tag_232:\n      pop\n      gas\n      call\n      iszero\n      dup1\n      iszero\n      tag_234\n      jumpi\n      returndatacopy(0x00, 0x00, returndatasize)\n      revert(0x00, returndatasize)\n    tag_234:\n      pop\n      pop\n      pop\n      pop\n        /* \"Evm/core/base/vaultDelegator.sol\":3277:4125  {... */\n      pop\n      pop\n      pop\n      pop\n      pop\n        /* \"Evm/core/base/vaultDelegator.sol\":3165:4125  function processZkVariable(uint[8] calldata proof, uint[6] calldata input, bytes calldata _signatures) external {... */\n      pop\n      pop\n      pop\n      pop\n      jump\t// out\n        /* \"Evm/core/base/vaultDelegator.sol\":1093:1143  IBalanceVerifier public immutable balance_verifier */\n    tag_91:\n      immutable(\"0xb7020dd003fcd4d96af1507ff4dc7e2c1158f23ad0bacfdf3455869cf9fb4898\")\n      dup2\n      jump\t// out\n        /* \"Evm/core/base/vaultDelegator.sol\":10427:10615  function getEthSignedMessageHash(bytes32 _messageHash) public pure returns (bytes32) {... */\n    tag_97:\n        /* \"Evm/core/base/vaultDelegator.sol\":10503:10510  bytes32 */\n      0x00\n        /* \"Evm/core/base/vaultDelegator.sol\":10593:10605  _messageHash */\n      dup2\n        /* \"Evm/core/base/vaultDelegator.sol\":10540:10606  abi.encodePacked(\"\\x19Ethereum Signed Message:\\n32\", _messageHash) */\n      add(0x20, mload(0x40))\n      tag_236\n      swap2\n      swap1\n      tag_237\n      jump\t// in\n    tag_236:\n      mload(0x40)\n      0x20\n      dup2\n      dup4\n      sub\n      sub\n      dup2\n      mstore\n      swap1\n      0x40\n      mstore\n        /* \"Evm/core/base/vaultDelegator.sol\":10530:10607  keccak256(abi.encodePacked(\"\\x19Ethereum Signed Message:\\n32\", _messageHash)) */\n      dup1\n      mload\n      swap1\n      0x20\n      add\n      keccak256\n        /* \"Evm/core/base/vaultDelegator.sol\":10523:10607  return keccak256(abi.encodePacked(\"\\x19Ethereum Signed Message:\\n32\", _messageHash)) */\n      swap1\n      pop\n        /* \"Evm/core/base/vaultDelegator.sol\":10427:10615  function getEthSignedMessageHash(bytes32 _messageHash) public pure returns (bytes32) {... */\n      swap2\n      swap1\n      pop\n      jump\t// out\n        /* \"Evm/core/base/vaultDelegator.sol\":6313:7627  function _prepareWithdrawal(uint[6] calldata input) internal view returns (uint256 amount, address vaultAddr, string memory storageName) {... */\n    tag_110:\n        /* \"Evm/core/base/vaultDelegator.sol\":6388:6402  uint256 amount */\n      0x00\n        /* \"Evm/core/base/vaultDelegator.sol\":6404:6421  address vaultAddr */\n      0x00\n        /* \"Evm/core/base/vaultDelegator.sol\":6423:6448  string memory storageName */\n      0x60\n        /* \"Evm/core/base/vaultDelegator.sol\":6507:6521  uint256 packed */\n      0x00\n        /* \"Evm/core/base/vaultDelegator.sol\":6524:6529  input */\n      dup5\n        /* \"Evm/core/base/vaultDelegator.sol\":6530:6531  5 */\n      0x05\n        /* \"Evm/core/base/vaultDelegator.sol\":6524:6532  input[5] */\n      0x06\n      dup2\n      lt\n      tag_239\n      jumpi\n      tag_240\n      tag_113\n      jump\t// in\n    tag_240:\n    tag_239:\n      0x20\n      mul\n      add\n      calldataload\n        /* \"Evm/core/base/vaultDelegator.sol\":6507:6532  uint256 packed = input[5] */\n      swap1\n      pop\n        /* \"Evm/core/base/vaultDelegator.sol\":6607:6613  packed */\n      dup1\n        /* \"Evm/core/base/vaultDelegator.sol\":6592:6615  uint256(uint64(packed)) */\n      0xffffffffffffffff\n      and\n        /* \"Evm/core/base/vaultDelegator.sol\":6583:6615  amount = uint256(uint64(packed)) */\n      swap4\n      pop\n        /* \"Evm/core/base/vaultDelegator.sol\":6669:6684  uint256 chainID */\n      0x00\n        /* \"Evm/core/base/vaultDelegator.sol\":6712:6714  64 */\n      0x40\n        /* \"Evm/core/base/vaultDelegator.sol\":6702:6708  packed */\n      dup3\n        /* \"Evm/core/base/vaultDelegator.sol\":6702:6714  packed >> 64 */\n      swap1\n      shr\n        /* \"Evm/core/base/vaultDelegator.sol\":6687:6716  uint256(uint32(packed >> 64)) */\n      0xffffffff\n      and\n        /* \"Evm/core/base/vaultDelegator.sol\":6669:6716  uint256 chainID = uint256(uint32(packed >> 64)) */\n      swap1\n      pop\n        /* \"Evm/core/base/vaultDelegator.sol\":6746:6759  block.chainid */\n      chainid\n        /* \"Evm/core/base/vaultDelegator.sol\":6735:6742  chainID */\n      dup2\n        /* \"Evm/core/base/vaultDelegator.sol\":6735:6759  chainID == block.chainid */\n      eq\n        /* \"Evm/core/base/vaultDelegator.sol\":6727:6787  require(chainID == block.chainid, \"Wrong destination chain\") */\n      tag_241\n      jumpi\n      mload(0x40)\n      0x08c379a000000000000000000000000000000000000000000000000000000000\n      dup2\n      mstore\n      0x04\n      add\n      tag_242\n      swap1\n      tag_189\n      jump\t// in\n    tag_242:\n      mload(0x40)\n      dup1\n      swap2\n      sub\n      swap1\n      revert\n    tag_241:\n        /* \"Evm/core/base/vaultDelegator.sol\":6895:6912  uint256 storageID */\n      0x00\n        /* \"Evm/core/base/vaultDelegator.sol\":6925:6928  128 */\n      0x80\n        /* \"Evm/core/base/vaultDelegator.sol\":6915:6921  packed */\n      dup4\n        /* \"Evm/core/base/vaultDelegator.sol\":6915:6928  packed >> 128 */\n      swap1\n      shr\n        /* \"Evm/core/base/vaultDelegator.sol\":6895:6928  uint256 storageID = packed >> 128 */\n      swap1\n      pop\n        /* \"Evm/core/base/vaultDelegator.sol\":6953:6977  fieldToString(storageID) */\n      tag_243\n        /* \"Evm/core/base/vaultDelegator.sol\":6967:6976  storageID */\n      dup2\n        /* \"Evm/core/base/vaultDelegator.sol\":6953:6966  fieldToString */\n      tag_73\n        /* \"Evm/core/base/vaultDelegator.sol\":6953:6977  fieldToString(storageID) */\n      jump\t// in\n    tag_243:\n        /* \"Evm/core/base/vaultDelegator.sol\":6939:6977  storageName = fieldToString(storageID) */\n      swap4\n      pop\n        /* \"Evm/core/base/vaultDelegator.sol\":7036:7062  string memory providerName */\n      0x00\n        /* \"Evm/core/base/vaultDelegator.sol\":7065:7088  fieldToString(input[4]) */\n      tag_244\n        /* \"Evm/core/base/vaultDelegator.sol\":7079:7084  input */\n      dup9\n        /* \"Evm/core/base/vaultDelegator.sol\":7085:7086  4 */\n      0x04\n        /* \"Evm/core/base/vaultDelegator.sol\":7079:7087  input[4] */\n      0x06\n      dup2\n      lt\n      tag_245\n      jumpi\n      tag_246\n      tag_113\n      jump\t// in\n    tag_246:\n    tag_245:\n      0x20\n      mul\n      add\n      calldataload\n        /* \"Evm/core/base/vaultDelegator.sol\":7065:7078  fieldToString */\n      tag_73\n        /* \"Evm/core/base/vaultDelegator.sol\":7065:7088  fieldToString(input[4]) */\n      jump\t// in\n    tag_244:\n        /* \"Evm/core/base/vaultDelegator.sol\":7036:7088  string memory providerName = fieldToString(input[4]) */\n      swap1\n      pop\n        /* \"Evm/core/base/vaultDelegator.sol\":7186:7208  string memory vaultKey */\n      0x00\n        /* \"Evm/core/base/vaultDelegator.sol\":7235:7247  providerName */\n      dup2\n        /* \"Evm/core/base/vaultDelegator.sol\":7218:7258  abi.encodePacked(providerName, \"_vault\") */\n      add(0x20, mload(0x40))\n      tag_247\n      swap2\n      swap1\n      tag_248\n      jump\t// in\n    tag_247:\n      mload(0x40)\n      0x20\n      dup2\n      dup4\n      sub\n      sub\n      dup2\n      mstore\n      swap1\n      0x40\n      mstore\n        /* \"Evm/core/base/vaultDelegator.sol\":7186:7259  string memory vaultKey = string(abi.encodePacked(providerName, \"_vault\")) */\n      swap1\n      pop\n        /* \"Evm/core/base/vaultDelegator.sol\":7303:7326  bytes memory vaultBytes */\n      0x00\n        /* \"Evm/core/base/vaultDelegator.sol\":7329:7346  variablesRegistry */\n      immutable(\"0x980c46aeb242fb2816eec3c43a568cdc6adda404b46e62cce4e3fe7d929881e3\")\n        /* \"Evm/core/base/vaultDelegator.sol\":7329:7364  variablesRegistry.getActiveVariable */\n      0xffffffffffffffffffffffffffffffffffffffff\n      and\n      0x16f1adc1\n        /* \"Evm/core/base/vaultDelegator.sol\":7384:7392  vaultKey */\n      dup4\n        /* \"Evm/core/base/vaultDelegator.sol\":7329:7393  variablesRegistry.getActiveVariable(\"QiaraBaseAssets\", vaultKey) */\n      mload(0x40)\n      dup3\n      0xffffffff\n      and\n      0xe0\n      shl\n      dup2\n      mstore\n      0x04\n      add\n      tag_249\n      swap2\n      swap1\n      tag_250\n      jump\t// in\n    tag_249:\n      0x00\n      mload(0x40)\n      dup1\n      dup4\n      sub\n      dup2\n      dup7\n      gas\n      staticcall\n      iszero\n      dup1\n      iszero\n      tag_252\n      jumpi\n      returndatacopy(0x00, 0x00, returndatasize)\n      revert(0x00, returndatasize)\n    tag_252:\n      pop\n      pop\n      pop\n      pop\n      mload(0x40)\n      returndatasize\n      0x00\n      dup3\n      returndatacopy\n      returndatasize\n      not(0x1f)\n      0x1f\n      dup3\n      add\n      and\n      dup3\n      add\n      dup1\n      0x40\n      mstore\n      pop\n      dup2\n      add\n      swap1\n      tag_253\n      swap2\n      swap1\n      tag_254\n      jump\t// in\n    tag_253:\n        /* \"Evm/core/base/vaultDelegator.sol\":7303:7393  bytes memory vaultBytes = variablesRegistry.getActiveVariable(\"QiaraBaseAssets\", vaultKey) */\n      swap1\n      pop\n        /* \"Evm/core/base/vaultDelegator.sol\":7465:7466  0 */\n      0x00\n        /* \"Evm/core/base/vaultDelegator.sol\":7445:7455  vaultBytes */\n      dup2\n        /* \"Evm/core/base/vaultDelegator.sol\":7445:7462  vaultBytes.length */\n      mload\n        /* \"Evm/core/base/vaultDelegator.sol\":7445:7466  vaultBytes.length > 0 */\n      gt\n        /* \"Evm/core/base/vaultDelegator.sol\":7437:7491  require(vaultBytes.length > 0, \"Vault not authorized\") */\n      tag_255\n      jumpi\n      mload(0x40)\n      0x08c379a000000000000000000000000000000000000000000000000000000000\n      dup2\n      mstore\n      0x04\n      add\n      tag_256\n      swap1\n      tag_257\n      jump\t// in\n    tag_256:\n      mload(0x40)\n      dup1\n      swap2\n      sub\n      swap1\n      revert\n    tag_255:\n        /* \"Evm/core/base/vaultDelegator.sol\":7572:7582  vaultBytes */\n      dup1\n        /* \"Evm/core/base/vaultDelegator.sol\":7564:7583  bytes20(vaultBytes) */\n      tag_258\n      swap1\n      tag_259\n      jump\t// in\n    tag_258:\n        /* \"Evm/core/base/vaultDelegator.sol\":7556:7584  uint160(bytes20(vaultBytes)) */\n      0x60\n      shr\n        /* \"Evm/core/base/vaultDelegator.sol\":7536:7585  vaultAddr = address(uint160(bytes20(vaultBytes))) */\n      swap8\n      pop\n        /* \"Evm/core/base/vaultDelegator.sol\":6450:7627  {... */\n      pop\n      pop\n      pop\n      pop\n      pop\n      pop\n        /* \"Evm/core/base/vaultDelegator.sol\":6313:7627  function _prepareWithdrawal(uint[6] calldata input) internal view returns (uint256 amount, address vaultAddr, string memory storageName) {... */\n      swap2\n      swap4\n      swap1\n      swap3\n      pop\n      jump\t// out\n        /* \"Evm/core/base/vaultDelegator.sol\":5057:5610  function _calculateNullifier8(uint256[6] calldata input) internal pure returns (uint256) {... */\n    tag_117:\n        /* \"Evm/core/base/vaultDelegator.sol\":5137:5144  uint256 */\n      0x00\n        /* \"Evm/core/base/vaultDelegator.sol\":5330:5342  bytes32 hash */\n      0x00\n        /* \"Evm/core/base/vaultDelegator.sol\":5386:5391  input */\n      dup3\n        /* \"Evm/core/base/vaultDelegator.sol\":5392:5393  0 */\n      0x00\n        /* \"Evm/core/base/vaultDelegator.sol\":5386:5394  input[0] */\n      0x06\n      dup2\n      lt\n      tag_261\n      jumpi\n      tag_262\n      tag_113\n      jump\t// in\n    tag_262:\n    tag_261:\n      0x20\n      mul\n      add\n      calldataload\n        /* \"Evm/core/base/vaultDelegator.sol\":5409:5414  input */\n      dup4\n        /* \"Evm/core/base/vaultDelegator.sol\":5415:5416  1 */\n      0x01\n        /* \"Evm/core/base/vaultDelegator.sol\":5409:5417  input[1] */\n      0x06\n      dup2\n      lt\n      tag_263\n      jumpi\n      tag_264\n      tag_113\n      jump\t// in\n    tag_264:\n    tag_263:\n      0x20\n      mul\n      add\n      calldataload\n        /* \"Evm/core/base/vaultDelegator.sol\":5432:5437  input */\n      dup5\n        /* \"Evm/core/base/vaultDelegator.sol\":5438:5439  2 */\n      0x02\n        /* \"Evm/core/base/vaultDelegator.sol\":5432:5440  input[2] */\n      0x06\n      dup2\n      lt\n      tag_265\n      jumpi\n      tag_266\n      tag_113\n      jump\t// in\n    tag_266:\n    tag_265:\n      0x20\n      mul\n      add\n      calldataload\n        /* \"Evm/core/base/vaultDelegator.sol\":5455:5460  input */\n      dup6\n        /* \"Evm/core/base/vaultDelegator.sol\":5461:5462  3 */\n      0x03\n        /* \"Evm/core/base/vaultDelegator.sol\":5455:5463  input[3] */\n      0x06\n      dup2\n      lt\n      tag_267\n      jumpi\n      tag_268\n      tag_113\n      jump\t// in\n    tag_268:\n    tag_267:\n      0x20\n      mul\n      add\n      calldataload\n        /* \"Evm/core/base/vaultDelegator.sol\":5478:5483  input */\n      dup7\n        /* \"Evm/core/base/vaultDelegator.sol\":5484:5485  4 */\n      0x04\n        /* \"Evm/core/base/vaultDelegator.sol\":5478:5486  input[4] */\n      0x06\n      dup2\n      lt\n      tag_269\n      jumpi\n      tag_270\n      tag_113\n      jump\t// in\n    tag_270:\n    tag_269:\n      0x20\n      mul\n      add\n      calldataload\n        /* \"Evm/core/base/vaultDelegator.sol\":5501:5506  input */\n      dup8\n        /* \"Evm/core/base/vaultDelegator.sol\":5507:5508  5 */\n      0x05\n        /* \"Evm/core/base/vaultDelegator.sol\":5501:5509  input[5] */\n      0x06\n      dup2\n      lt\n      tag_271\n      jumpi\n      tag_272\n      tag_113\n      jump\t// in\n    tag_272:\n    tag_271:\n      0x20\n      mul\n      add\n      calldataload\n        /* \"Evm/core/base/vaultDelegator.sol\":5355:5568  abi.encodePacked(... */\n      add(0x20, mload(0x40))\n      tag_273\n      swap7\n      swap6\n      swap5\n      swap4\n      swap3\n      swap2\n      swap1\n      tag_274\n      jump\t// in\n    tag_273:\n      mload(0x40)\n      0x20\n      dup2\n      dup4\n      sub\n      sub\n      dup2\n      mstore\n      swap1\n      0x40\n      mstore\n        /* \"Evm/core/base/vaultDelegator.sol\":5345:5569  keccak256(abi.encodePacked(... */\n      dup1\n      mload\n      swap1\n      0x20\n      add\n      keccak256\n        /* \"Evm/core/base/vaultDelegator.sol\":5330:5569  bytes32 hash = keccak256(abi.encodePacked(... */\n      swap1\n      pop\n        /* \"Evm/core/base/vaultDelegator.sol\":5597:5601  hash */\n      dup1\n        /* \"Evm/core/base/vaultDelegator.sol\":5589:5602  uint256(hash) */\n      0x00\n      shr\n        /* \"Evm/core/base/vaultDelegator.sol\":5582:5602  return uint256(hash) */\n      swap2\n      pop\n      pop\n        /* \"Evm/core/base/vaultDelegator.sol\":5057:5610  function _calculateNullifier8(uint256[6] calldata input) internal pure returns (uint256) {... */\n      swap2\n      swap1\n      pop\n      jump\t// out\n        /* \"Evm/core/base/vaultDelegator.sol\":7635:8717  function _verifyAllSignatures(bytes32 _messageHash, bytes calldata _signatures) internal view {... */\n    tag_119:\n        /* \"Evm/core/base/vaultDelegator.sol\":7740:7755  bytes32 ethHash */\n      0x00\n        /* \"Evm/core/base/vaultDelegator.sol\":7758:7795  getEthSignedMessageHash(_messageHash) */\n      tag_276\n        /* \"Evm/core/base/vaultDelegator.sol\":7782:7794  _messageHash */\n      dup5\n        /* \"Evm/core/base/vaultDelegator.sol\":7758:7781  getEthSignedMessageHash */\n      tag_97\n        /* \"Evm/core/base/vaultDelegator.sol\":7758:7795  getEthSignedMessageHash(_messageHash) */\n      jump\t// in\n    tag_276:\n        /* \"Evm/core/base/vaultDelegator.sol\":7740:7795  bytes32 ethHash = getEthSignedMessageHash(_messageHash) */\n      swap1\n      pop\n        /* \"Evm/core/base/vaultDelegator.sol\":7870:7904  address[] memory active_validators */\n      0x00\n        /* \"Evm/core/base/vaultDelegator.sol\":7907:7925  validatorsRegistry */\n      immutable(\"0x98f4d6eec7613e33b36335f2ce6a27018d9a9f0999ab27807ed26ac6fd46f1a2\")\n        /* \"Evm/core/base/vaultDelegator.sol\":7907:7944  validatorsRegistry.getActiveAddresses */\n      0xffffffffffffffffffffffffffffffffffffffff\n      and\n      0x1442e4c9\n        /* \"Evm/core/base/vaultDelegator.sol\":7907:7946  validatorsRegistry.getActiveAddresses() */\n      mload(0x40)\n      dup2\n      0xffffffff\n      and\n      0xe0\n      shl\n      dup2\n      mstore\n      0x04\n      add\n      0x00\n      mload(0x40)\n      dup1\n      dup4\n      sub\n      dup2\n      dup7\n      gas\n      staticcall\n      iszero\n      dup1\n      iszero\n      tag_278\n      jumpi\n      returndatacopy(0x00, 0x00, returndatasize)\n      revert(0x00, returndatasize)\n    tag_278:\n      pop\n      pop\n      pop\n      pop\n      mload(0x40)\n      returndatasize\n      0x00\n      dup3\n      returndatacopy\n      returndatasize\n      not(0x1f)\n      0x1f\n      dup3\n      add\n      and\n      dup3\n      add\n      dup1\n      0x40\n      mstore\n      pop\n      dup2\n      add\n      swap1\n      tag_279\n      swap2\n      swap1\n      tag_280\n      jump\t// in\n    tag_279:\n        /* \"Evm/core/base/vaultDelegator.sol\":7870:7946  address[] memory active_validators = validatorsRegistry.getActiveAddresses() */\n      swap1\n      pop\n        /* \"Evm/core/base/vaultDelegator.sol\":7962:7971  uint256 i */\n      0x00\n        /* \"Evm/core/base/vaultDelegator.sol\":7974:7975  0 */\n      0x00\n        /* \"Evm/core/base/vaultDelegator.sol\":7962:7975  uint256 i = 0 */\n      swap1\n      pop\n        /* \"Evm/core/base/vaultDelegator.sol\":7957:8710  for (uint256 i = 0; i < _signatures.length; i++) {... */\n    tag_281:\n        /* \"Evm/core/base/vaultDelegator.sol\":7981:7992  _signatures */\n      dup5\n      dup5\n        /* \"Evm/core/base/vaultDelegator.sol\":7981:7999  _signatures.length */\n      swap1\n      pop\n        /* \"Evm/core/base/vaultDelegator.sol\":7977:7978  i */\n      dup2\n        /* \"Evm/core/base/vaultDelegator.sol\":7977:7999  i < _signatures.length */\n      lt\n        /* \"Evm/core/base/vaultDelegator.sol\":7957:8710  for (uint256 i = 0; i < _signatures.length; i++) {... */\n      iszero\n      tag_282\n      jumpi\n        /* \"Evm/core/base/vaultDelegator.sol\":8021:8045  bytes calldata signature */\n      calldatasize\n      0x00\n        /* \"Evm/core/base/vaultDelegator.sol\":8048:8059  _signatures */\n      dup7\n      dup7\n        /* \"Evm/core/base/vaultDelegator.sol\":8064:8066  65 */\n      0x41\n        /* \"Evm/core/base/vaultDelegator.sol\":8060:8061  i */\n      dup6\n        /* \"Evm/core/base/vaultDelegator.sol\":8060:8066  i * 65 */\n      tag_284\n      swap2\n      swap1\n      tag_285\n      jump\t// in\n    tag_284:\n        /* \"Evm/core/base/vaultDelegator.sol\":8048:8082  _signatures[i * 65 : (i + 1) * 65] */\n      swap1\n        /* \"Evm/core/base/vaultDelegator.sol\":8079:8081  65 */\n      0x41\n        /* \"Evm/core/base/vaultDelegator.sol\":8074:8075  1 */\n      0x01\n        /* \"Evm/core/base/vaultDelegator.sol\":8070:8071  i */\n      dup8\n        /* \"Evm/core/base/vaultDelegator.sol\":8070:8075  i + 1 */\n      tag_286\n      swap2\n      swap1\n      tag_175\n      jump\t// in\n    tag_286:\n        /* \"Evm/core/base/vaultDelegator.sol\":8069:8081  (i + 1) * 65 */\n      tag_287\n      swap2\n      swap1\n      tag_285\n      jump\t// in\n    tag_287:\n        /* \"Evm/core/base/vaultDelegator.sol\":8048:8082  _signatures[i * 65 : (i + 1) * 65] */\n      swap3\n      tag_288\n      swap4\n      swap3\n      swap2\n      swap1\n      tag_289\n      jump\t// in\n    tag_288:\n        /* \"Evm/core/base/vaultDelegator.sol\":8021:8082  bytes calldata signature = _signatures[i * 65 : (i + 1) * 65] */\n      swap2\n      pop\n      swap2\n      pop\n        /* \"Evm/core/base/vaultDelegator.sol\":8136:8150  address signer */\n      0x00\n        /* \"Evm/core/base/vaultDelegator.sol\":8153:8186  recoverSigner(ethHash, signature) */\n      tag_290\n        /* \"Evm/core/base/vaultDelegator.sol\":8167:8174  ethHash */\n      dup7\n        /* \"Evm/core/base/vaultDelegator.sol\":8176:8185  signature */\n      dup5\n      dup5\n        /* \"Evm/core/base/vaultDelegator.sol\":8153:8186  recoverSigner(ethHash, signature) */\n      dup1\n      dup1\n      0x1f\n      add\n      0x20\n      dup1\n      swap2\n      div\n      mul\n      0x20\n      add\n      mload(0x40)\n      swap1\n      dup2\n      add\n      0x40\n      mstore\n      dup1\n      swap4\n      swap3\n      swap2\n      swap1\n      dup2\n      dup2\n      mstore\n      0x20\n      add\n      dup4\n      dup4\n      dup1\n      dup3\n      dup5\n      calldatacopy\n      0x00\n      dup2\n      dup5\n      add\n      mstore\n      not(0x1f)\n      0x1f\n      dup3\n      add\n      and\n      swap1\n      pop\n      dup1\n      dup4\n      add\n      swap3\n      pop\n      pop\n      pop\n      pop\n      pop\n      pop\n      pop\n        /* \"Evm/core/base/vaultDelegator.sol\":8153:8166  recoverSigner */\n      tag_56\n        /* \"Evm/core/base/vaultDelegator.sol\":8153:8186  recoverSigner(ethHash, signature) */\n      jump\t// in\n    tag_290:\n        /* \"Evm/core/base/vaultDelegator.sol\":8136:8186  address signer = recoverSigner(ethHash, signature) */\n      swap1\n      pop\n        /* \"Evm/core/base/vaultDelegator.sol\":8227:8228  0 */\n      0x00\n        /* \"Evm/core/base/vaultDelegator.sol\":8209:8229  signer != address(0) */\n      0xffffffffffffffffffffffffffffffffffffffff\n      and\n        /* \"Evm/core/base/vaultDelegator.sol\":8209:8215  signer */\n      dup2\n        /* \"Evm/core/base/vaultDelegator.sol\":8209:8229  signer != address(0) */\n      0xffffffffffffffffffffffffffffffffffffffff\n      and\n      sub\n        /* \"Evm/core/base/vaultDelegator.sol\":8201:8251  require(signer != address(0), \"Invalid signature\") */\n      tag_291\n      jumpi\n      mload(0x40)\n      0x08c379a000000000000000000000000000000000000000000000000000000000\n      dup2\n      mstore\n      0x04\n      add\n      tag_292\n      swap1\n      tag_293\n      jump\t// in\n    tag_292:\n      mload(0x40)\n      dup1\n      swap2\n      sub\n      swap1\n      revert\n    tag_291:\n        /* \"Evm/core/base/vaultDelegator.sol\":8337:8354  bool isAuthorized */\n      0x00\n        /* \"Evm/core/base/vaultDelegator.sol\":8357:8362  false */\n      0x00\n        /* \"Evm/core/base/vaultDelegator.sol\":8337:8362  bool isAuthorized = false */\n      swap1\n      pop\n        /* \"Evm/core/base/vaultDelegator.sol\":8382:8391  uint256 j */\n      0x00\n        /* \"Evm/core/base/vaultDelegator.sol\":8394:8395  0 */\n      0x00\n        /* \"Evm/core/base/vaultDelegator.sol\":8382:8395  uint256 j = 0 */\n      swap1\n      pop\n        /* \"Evm/core/base/vaultDelegator.sol\":8377:8592  for (uint256 j = 0; j < active_validators.length; j++) {... */\n    tag_294:\n        /* \"Evm/core/base/vaultDelegator.sol\":8401:8418  active_validators */\n      dup7\n        /* \"Evm/core/base/vaultDelegator.sol\":8401:8425  active_validators.length */\n      mload\n        /* \"Evm/core/base/vaultDelegator.sol\":8397:8398  j */\n      dup2\n        /* \"Evm/core/base/vaultDelegator.sol\":8397:8425  j < active_validators.length */\n      lt\n        /* \"Evm/core/base/vaultDelegator.sol\":8377:8592  for (uint256 j = 0; j < active_validators.length; j++) {... */\n      iszero\n      tag_295\n      jumpi\n        /* \"Evm/core/base/vaultDelegator.sol\":8479:8485  signer */\n      dup3\n        /* \"Evm/core/base/vaultDelegator.sol\":8455:8485  active_validators[j] == signer */\n      0xffffffffffffffffffffffffffffffffffffffff\n      and\n        /* \"Evm/core/base/vaultDelegator.sol\":8455:8472  active_validators */\n      dup8\n        /* \"Evm/core/base/vaultDelegator.sol\":8473:8474  j */\n      dup3\n        /* \"Evm/core/base/vaultDelegator.sol\":8455:8475  active_validators[j] */\n      dup2\n      mload\n      dup2\n      lt\n      tag_297\n      jumpi\n      tag_298\n      tag_113\n      jump\t// in\n    tag_298:\n    tag_297:\n      0x20\n      mul\n      0x20\n      add\n      add\n      mload\n        /* \"Evm/core/base/vaultDelegator.sol\":8455:8485  active_validators[j] == signer */\n      0xffffffffffffffffffffffffffffffffffffffff\n      and\n      sub\n        /* \"Evm/core/base/vaultDelegator.sol\":8451:8577  if (active_validators[j] == signer) {... */\n      tag_299\n      jumpi\n        /* \"Evm/core/base/vaultDelegator.sol\":8525:8529  true */\n      0x01\n        /* \"Evm/core/base/vaultDelegator.sol\":8510:8529  isAuthorized = true */\n      swap2\n      pop\n        /* \"Evm/core/base/vaultDelegator.sol\":8552:8557  break */\n      jump(tag_295)\n        /* \"Evm/core/base/vaultDelegator.sol\":8451:8577  if (active_validators[j] == signer) {... */\n    tag_299:\n        /* \"Evm/core/base/vaultDelegator.sol\":8427:8430  j++ */\n      dup1\n      dup1\n      0x01\n      add\n      swap2\n      pop\n      pop\n        /* \"Evm/core/base/vaultDelegator.sol\":8377:8592  for (uint256 j = 0; j < active_validators.length; j++) {... */\n      jump(tag_294)\n    tag_295:\n      pop\n        /* \"Evm/core/base/vaultDelegator.sol\":8614:8626  isAuthorized */\n      dup1\n        /* \"Evm/core/base/vaultDelegator.sol\":8606:8661  require(isAuthorized, \"Signer not an active validator\") */\n      tag_300\n      jumpi\n      mload(0x40)\n      0x08c379a000000000000000000000000000000000000000000000000000000000\n      dup2\n      mstore\n      0x04\n      add\n      tag_301\n      swap1\n      tag_302\n      jump\t// in\n    tag_301:\n      mload(0x40)\n      dup1\n      swap2\n      sub\n      swap1\n      revert\n    tag_300:\n        /* \"Evm/core/base/vaultDelegator.sol\":8006:8710  {... */\n      pop\n      pop\n      pop\n      pop\n        /* \"Evm/core/base/vaultDelegator.sol\":8001:8004  i++ */\n      dup1\n      dup1\n      0x01\n      add\n      swap2\n      pop\n      pop\n        /* \"Evm/core/base/vaultDelegator.sol\":7957:8710  for (uint256 i = 0; i < _signatures.length; i++) {... */\n      jump(tag_281)\n    tag_282:\n      pop\n        /* \"Evm/core/base/vaultDelegator.sol\":7729:8717  {... */\n      pop\n      pop\n        /* \"Evm/core/base/vaultDelegator.sol\":7635:8717  function _verifyAllSignatures(bytes32 _messageHash, bytes calldata _signatures) internal view {... */\n      pop\n      pop\n      pop\n      jump\t// out\n        /* \"@openzeppelin/contracts/access/Ownable.sol\":1796:1958  function _checkOwner() internal view virtual {... */\n    tag_133:\n        /* \"@openzeppelin/contracts/access/Ownable.sol\":1866:1878  _msgSender() */\n      tag_304\n        /* \"@openzeppelin/contracts/access/Ownable.sol\":1866:1876  _msgSender */\n      tag_305\n        /* \"@openzeppelin/contracts/access/Ownable.sol\":1866:1878  _msgSender() */\n      jump\t// in\n    tag_304:\n        /* \"@openzeppelin/contracts/access/Ownable.sol\":1855:1878  owner() != _msgSender() */\n      0xffffffffffffffffffffffffffffffffffffffff\n      and\n        /* \"@openzeppelin/contracts/access/Ownable.sol\":1855:1862  owner() */\n      tag_306\n        /* \"@openzeppelin/contracts/access/Ownable.sol\":1855:1860  owner */\n      tag_51\n        /* \"@openzeppelin/contracts/access/Ownable.sol\":1855:1862  owner() */\n      jump\t// in\n    tag_306:\n        /* \"@openzeppelin/contracts/access/Ownable.sol\":1855:1878  owner() != _msgSender() */\n      0xffffffffffffffffffffffffffffffffffffffff\n      and\n      eq\n        /* \"@openzeppelin/contracts/access/Ownable.sol\":1851:1952  if (owner() != _msgSender()) {... */\n      tag_307\n      jumpi\n        /* \"@openzeppelin/contracts/access/Ownable.sol\":1928:1940  _msgSender() */\n      tag_308\n        /* \"@openzeppelin/contracts/access/Ownable.sol\":1928:1938  _msgSender */\n      tag_305\n        /* \"@openzeppelin/contracts/access/Ownable.sol\":1928:1940  _msgSender() */\n      jump\t// in\n    tag_308:\n        /* \"@openzeppelin/contracts/access/Ownable.sol\":1901:1941  OwnableUnauthorizedAccount(_msgSender()) */\n      mload(0x40)\n      0x118cdaa700000000000000000000000000000000000000000000000000000000\n      dup2\n      mstore\n      0x04\n      add\n      tag_309\n      swap2\n      swap1\n      tag_39\n      jump\t// in\n    tag_309:\n      mload(0x40)\n      dup1\n      swap2\n      sub\n      swap1\n      revert\n        /* \"@openzeppelin/contracts/access/Ownable.sol\":1851:1952  if (owner() != _msgSender()) {... */\n    tag_307:\n        /* \"@openzeppelin/contracts/access/Ownable.sol\":1796:1958  function _checkOwner() internal view virtual {... */\n      jump\t// out\n        /* \"@openzeppelin/contracts/access/Ownable.sol\":2912:3099  function _transferOwnership(address newOwner) internal virtual {... */\n    tag_136:\n        /* \"@openzeppelin/contracts/access/Ownable.sol\":2985:3001  address oldOwner */\n      0x00\n        /* \"@openzeppelin/contracts/access/Ownable.sol\":3004:3010  _owner */\n      0x00\n      0x00\n      swap1\n      sload\n      swap1\n      0x0100\n      exp\n      swap1\n      div\n      0xffffffffffffffffffffffffffffffffffffffff\n      and\n        /* \"@openzeppelin/contracts/access/Ownable.sol\":2985:3010  address oldOwner = _owner */\n      swap1\n      pop\n        /* \"@openzeppelin/contracts/access/Ownable.sol\":3029:3037  newOwner */\n      dup2\n        /* \"@openzeppelin/contracts/access/Ownable.sol\":3020:3026  _owner */\n      0x00\n      0x00\n        /* \"@openzeppelin/contracts/access/Ownable.sol\":3020:3037  _owner = newOwner */\n      0x0100\n      exp\n      dup2\n      sload\n      dup2\n      0xffffffffffffffffffffffffffffffffffffffff\n      mul\n      not\n      and\n      swap1\n      dup4\n      0xffffffffffffffffffffffffffffffffffffffff\n      and\n      mul\n      or\n      swap1\n      sstore\n      pop\n        /* \"@openzeppelin/contracts/access/Ownable.sol\":3083:3091  newOwner */\n      dup2\n        /* \"@openzeppelin/contracts/access/Ownable.sol\":3052:3092  OwnershipTransferred(oldOwner, newOwner) */\n      0xffffffffffffffffffffffffffffffffffffffff\n      and\n        /* \"@openzeppelin/contracts/access/Ownable.sol\":3073:3081  oldOwner */\n      dup2\n        /* \"@openzeppelin/contracts/access/Ownable.sol\":3052:3092  OwnershipTransferred(oldOwner, newOwner) */\n      0xffffffffffffffffffffffffffffffffffffffff\n      and\n      0x8be0079c531659141344cd1fd0a4f28419497f9722a3daafe3b4186f6b6457e0\n      mload(0x40)\n      mload(0x40)\n      dup1\n      swap2\n      sub\n      swap1\n      log3\n        /* \"@openzeppelin/contracts/access/Ownable.sol\":2975:3099  {... */\n      pop\n        /* \"@openzeppelin/contracts/access/Ownable.sol\":2912:3099  function _transferOwnership(address newOwner) internal virtual {... */\n      pop\n      jump\t// out\n        /* \"Evm/core/base/vaultDelegator.sol\":5788:6301  function _calculateNullifier6(uint256[6] calldata input) internal pure returns (uint256) {... */\n    tag_191:\n        /* \"Evm/core/base/vaultDelegator.sol\":5868:5875  uint256 */\n      0x00\n        /* \"Evm/core/base/vaultDelegator.sol\":6061:6073  bytes32 hash */\n      0x00\n        /* \"Evm/core/base/vaultDelegator.sol\":6117:6122  input */\n      dup3\n        /* \"Evm/core/base/vaultDelegator.sol\":6123:6124  0 */\n      0x00\n        /* \"Evm/core/base/vaultDelegator.sol\":6117:6125  input[0] */\n      0x06\n      dup2\n      lt\n      tag_312\n      jumpi\n      tag_313\n      tag_113\n      jump\t// in\n    tag_313:\n    tag_312:\n      0x20\n      mul\n      add\n      calldataload\n        /* \"Evm/core/base/vaultDelegator.sol\":6140:6145  input */\n      dup4\n        /* \"Evm/core/base/vaultDelegator.sol\":6146:6147  1 */\n      0x01\n        /* \"Evm/core/base/vaultDelegator.sol\":6140:6148  input[1] */\n      0x06\n      dup2\n      lt\n      tag_314\n      jumpi\n      tag_315\n      tag_113\n      jump\t// in\n    tag_315:\n    tag_314:\n      0x20\n      mul\n      add\n      calldataload\n        /* \"Evm/core/base/vaultDelegator.sol\":6163:6168  input */\n      dup5\n        /* \"Evm/core/base/vaultDelegator.sol\":6169:6170  2 */\n      0x02\n        /* \"Evm/core/base/vaultDelegator.sol\":6163:6171  input[2] */\n      0x06\n      dup2\n      lt\n      tag_316\n      jumpi\n      tag_317\n      tag_113\n      jump\t// in\n    tag_317:\n    tag_316:\n      0x20\n      mul\n      add\n      calldataload\n        /* \"Evm/core/base/vaultDelegator.sol\":6186:6191  input */\n      dup6\n        /* \"Evm/core/base/vaultDelegator.sol\":6192:6193  3 */\n      0x03\n        /* \"Evm/core/base/vaultDelegator.sol\":6186:6194  input[3] */\n      0x06\n      dup2\n      lt\n      tag_318\n      jumpi\n      tag_319\n      tag_113\n      jump\t// in\n    tag_319:\n    tag_318:\n      0x20\n      mul\n      add\n      calldataload\n        /* \"Evm/core/base/vaultDelegator.sol\":6209:6214  input */\n      dup7\n        /* \"Evm/core/base/vaultDelegator.sol\":6215:6216  4 */\n      0x04\n        /* \"Evm/core/base/vaultDelegator.sol\":6209:6217  input[4] */\n      0x06\n      dup2\n      lt\n      tag_320\n      jumpi\n      tag_321\n      tag_113\n      jump\t// in\n    tag_321:\n    tag_320:\n      0x20\n      mul\n      add\n      calldataload\n        /* \"Evm/core/base/vaultDelegator.sol\":6086:6259  abi.encodePacked(... */\n      add(0x20, mload(0x40))\n      tag_322\n      swap6\n      swap5\n      swap4\n      swap3\n      swap2\n      swap1\n      tag_323\n      jump\t// in\n    tag_322:\n      mload(0x40)\n      0x20\n      dup2\n      dup4\n      sub\n      sub\n      dup2\n      mstore\n      swap1\n      0x40\n      mstore\n        /* \"Evm/core/base/vaultDelegator.sol\":6076:6260  keccak256(abi.encodePacked(... */\n      dup1\n      mload\n      swap1\n      0x20\n      add\n      keccak256\n        /* \"Evm/core/base/vaultDelegator.sol\":6061:6260  bytes32 hash = keccak256(abi.encodePacked(... */\n      swap1\n      pop\n        /* \"Evm/core/base/vaultDelegator.sol\":6288:6292  hash */\n      dup1\n        /* \"Evm/core/base/vaultDelegator.sol\":6280:6293  uint256(hash) */\n      0x00\n      shr\n        /* \"Evm/core/base/vaultDelegator.sol\":6273:6293  return uint256(hash) */\n      swap2\n      pop\n      pop\n        /* \"Evm/core/base/vaultDelegator.sol\":5788:6301  function _calculateNullifier6(uint256[6] calldata input) internal pure returns (uint256) {... */\n      swap2\n      swap1\n      pop\n      jump\t// out\n        /* \"@openzeppelin/contracts/utils/Context.sol\":656:752  function _msgSender() internal view virtual returns (address) {... */\n    tag_305:\n        /* \"@openzeppelin/contracts/utils/Context.sol\":709:716  address */\n      0x00\n        /* \"@openzeppelin/contracts/utils/Context.sol\":735:745  msg.sender */\n      caller\n        /* \"@openzeppelin/contracts/utils/Context.sol\":728:745  return msg.sender */\n      swap1\n      pop\n        /* \"@openzeppelin/contracts/utils/Context.sol\":656:752  function _msgSender() internal view virtual returns (address) {... */\n      swap1\n      jump\t// out\n        /* \"#utility.yul\":7:82   */\n    tag_325:\n        /* \"#utility.yul\":40:46   */\n      0x00\n        /* \"#utility.yul\":73:75   */\n      0x40\n        /* \"#utility.yul\":67:76   */\n      mload\n        /* \"#utility.yul\":57:76   */\n      swap1\n      pop\n        /* \"#utility.yul\":7:82   */\n      swap1\n      jump\t// out\n        /* \"#utility.yul\":88:205   */\n    tag_326:\n        /* \"#utility.yul\":197:198   */\n      0x00\n        /* \"#utility.yul\":194:195   */\n      0x00\n        /* \"#utility.yul\":187:199   */\n      revert\n        /* \"#utility.yul\":211:328   */\n    tag_327:\n        /* \"#utility.yul\":320:321   */\n      0x00\n        /* \"#utility.yul\":317:318   */\n      0x00\n        /* \"#utility.yul\":310:322   */\n      revert\n        /* \"#utility.yul\":334:411   */\n    tag_328:\n        /* \"#utility.yul\":371:378   */\n      0x00\n        /* \"#utility.yul\":400:405   */\n      dup2\n        /* \"#utility.yul\":389:405   */\n      swap1\n      pop\n        /* \"#utility.yul\":334:411   */\n      swap2\n      swap1\n      pop\n      jump\t// out\n        /* \"#utility.yul\":417:539   */\n    tag_329:\n        /* \"#utility.yul\":490:514   */\n      tag_425\n        /* \"#utility.yul\":508:513   */\n      dup2\n        /* \"#utility.yul\":490:514   */\n      tag_328\n      jump\t// in\n    tag_425:\n        /* \"#utility.yul\":483:488   */\n      dup2\n        /* \"#utility.yul\":480:515   */\n      eq\n        /* \"#utility.yul\":470:533   */\n      tag_426\n      jumpi\n        /* \"#utility.yul\":529:530   */\n      0x00\n        /* \"#utility.yul\":526:527   */\n      0x00\n        /* \"#utility.yul\":519:531   */\n      revert\n        /* \"#utility.yul\":470:533   */\n    tag_426:\n        /* \"#utility.yul\":417:539   */\n      pop\n      jump\t// out\n        /* \"#utility.yul\":545:684   */\n    tag_330:\n        /* \"#utility.yul\":591:596   */\n      0x00\n        /* \"#utility.yul\":629:635   */\n      dup2\n        /* \"#utility.yul\":616:636   */\n      calldataload\n        /* \"#utility.yul\":607:636   */\n      swap1\n      pop\n        /* \"#utility.yul\":645:678   */\n      tag_428\n        /* \"#utility.yul\":672:677   */\n      dup2\n        /* \"#utility.yul\":645:678   */\n      tag_329\n      jump\t// in\n    tag_428:\n        /* \"#utility.yul\":545:684   */\n      swap3\n      swap2\n      pop\n      pop\n      jump\t// out\n        /* \"#utility.yul\":690:1019   */\n    tag_26:\n        /* \"#utility.yul\":749:755   */\n      0x00\n        /* \"#utility.yul\":798:800   */\n      0x20\n        /* \"#utility.yul\":786:795   */\n      dup3\n        /* \"#utility.yul\":777:784   */\n      dup5\n        /* \"#utility.yul\":773:796   */\n      sub\n        /* \"#utility.yul\":769:801   */\n      slt\n        /* \"#utility.yul\":766:885   */\n      iszero\n      tag_430\n      jumpi\n        /* \"#utility.yul\":804:883   */\n      tag_431\n      tag_326\n      jump\t// in\n    tag_431:\n        /* \"#utility.yul\":766:885   */\n    tag_430:\n        /* \"#utility.yul\":924:925   */\n      0x00\n        /* \"#utility.yul\":949:1002   */\n      tag_432\n        /* \"#utility.yul\":994:1001   */\n      dup5\n        /* \"#utility.yul\":985:991   */\n      dup3\n        /* \"#utility.yul\":974:983   */\n      dup6\n        /* \"#utility.yul\":970:992   */\n      add\n        /* \"#utility.yul\":949:1002   */\n      tag_330\n      jump\t// in\n    tag_432:\n        /* \"#utility.yul\":939:1002   */\n      swap2\n      pop\n        /* \"#utility.yul\":895:1012   */\n      pop\n        /* \"#utility.yul\":690:1019   */\n      swap3\n      swap2\n      pop\n      pop\n      jump\t// out\n        /* \"#utility.yul\":1025:1123   */\n    tag_331:\n        /* \"#utility.yul\":1076:1082   */\n      0x00\n        /* \"#utility.yul\":1110:1115   */\n      dup2\n        /* \"#utility.yul\":1104:1116   */\n      mload\n        /* \"#utility.yul\":1094:1116   */\n      swap1\n      pop\n        /* \"#utility.yul\":1025:1123   */\n      swap2\n      swap1\n      pop\n      jump\t// out\n        /* \"#utility.yul\":1129:1297   */\n    tag_332:\n        /* \"#utility.yul\":1212:1223   */\n      0x00\n        /* \"#utility.yul\":1246:1252   */\n      dup3\n        /* \"#utility.yul\":1241:1244   */\n      dup3\n        /* \"#utility.yul\":1234:1253   */\n      mstore\n        /* \"#utility.yul\":1286:1290   */\n      0x20\n        /* \"#utility.yul\":1281:1284   */\n      dup3\n        /* \"#utility.yul\":1277:1291   */\n      add\n        /* \"#utility.yul\":1262:1291   */\n      swap1\n      pop\n        /* \"#utility.yul\":1129:1297   */\n      swap3\n      swap2\n      pop\n      pop\n      jump\t// out\n        /* \"#utility.yul\":1303:1442   */\n    tag_333:\n        /* \"#utility.yul\":1392:1398   */\n      dup3\n        /* \"#utility.yul\":1387:1390   */\n      dup2\n        /* \"#utility.yul\":1382:1385   */\n      dup4\n        /* \"#utility.yul\":1376:1399   */\n      mcopy\n        /* \"#utility.yul\":1433:1434   */\n      0x00\n        /* \"#utility.yul\":1424:1430   */\n      dup4\n        /* \"#utility.yul\":1419:1422   */\n      dup4\n        /* \"#utility.yul\":1415:1431   */\n      add\n        /* \"#utility.yul\":1408:1435   */\n      mstore\n        /* \"#utility.yul\":1303:1442   */\n      pop\n      pop\n      pop\n      jump\t// out\n        /* \"#utility.yul\":1448:1550   */\n    tag_334:\n        /* \"#utility.yul\":1489:1495   */\n      0x00\n        /* \"#utility.yul\":1540:1542   */\n      0x1f\n        /* \"#utility.yul\":1536:1543   */\n      not\n        /* \"#utility.yul\":1531:1533   */\n      0x1f\n        /* \"#utility.yul\":1524:1529   */\n      dup4\n        /* \"#utility.yul\":1520:1534   */\n      add\n        /* \"#utility.yul\":1516:1544   */\n      and\n        /* \"#utility.yul\":1506:1544   */\n      swap1\n      pop\n        /* \"#utility.yul\":1448:1550   */\n      swap2\n      swap1\n      pop\n      jump\t// out\n        /* \"#utility.yul\":1556:1929   */\n    tag_335:\n        /* \"#utility.yul\":1642:1645   */\n      0x00\n        /* \"#utility.yul\":1670:1708   */\n      tag_438\n        /* \"#utility.yul\":1702:1707   */\n      dup3\n        /* \"#utility.yul\":1670:1708   */\n      tag_331\n      jump\t// in\n    tag_438:\n        /* \"#utility.yul\":1724:1794   */\n      tag_439\n        /* \"#utility.yul\":1787:1793   */\n      dup2\n        /* \"#utility.yul\":1782:1785   */\n      dup6\n        /* \"#utility.yul\":1724:1794   */\n      tag_332\n      jump\t// in\n    tag_439:\n        /* \"#utility.yul\":1717:1794   */\n      swap4\n      pop\n        /* \"#utility.yul\":1803:1868   */\n      tag_440\n        /* \"#utility.yul\":1861:1867   */\n      dup2\n        /* \"#utility.yul\":1856:1859   */\n      dup6\n        /* \"#utility.yul\":1849:1853   */\n      0x20\n        /* \"#utility.yul\":1842:1847   */\n      dup7\n        /* \"#utility.yul\":1838:1854   */\n      add\n        /* \"#utility.yul\":1803:1868   */\n      tag_333\n      jump\t// in\n    tag_440:\n        /* \"#utility.yul\":1893:1922   */\n      tag_441\n        /* \"#utility.yul\":1915:1921   */\n      dup2\n        /* \"#utility.yul\":1893:1922   */\n      tag_334\n      jump\t// in\n    tag_441:\n        /* \"#utility.yul\":1888:1891   */\n      dup5\n        /* \"#utility.yul\":1884:1923   */\n      add\n        /* \"#utility.yul\":1877:1923   */\n      swap2\n      pop\n        /* \"#utility.yul\":1646:1929   */\n      pop\n        /* \"#utility.yul\":1556:1929   */\n      swap3\n      swap2\n      pop\n      pop\n      jump\t// out\n        /* \"#utility.yul\":1935:2244   */\n    tag_29:\n        /* \"#utility.yul\":2046:2050   */\n      0x00\n        /* \"#utility.yul\":2084:2086   */\n      0x20\n        /* \"#utility.yul\":2073:2082   */\n      dup3\n        /* \"#utility.yul\":2069:2087   */\n      add\n        /* \"#utility.yul\":2061:2087   */\n      swap1\n      pop\n        /* \"#utility.yul\":2133:2142   */\n      dup2\n        /* \"#utility.yul\":2127:2131   */\n      dup2\n        /* \"#utility.yul\":2123:2143   */\n      sub\n        /* \"#utility.yul\":2119:2120   */\n      0x00\n        /* \"#utility.yul\":2108:2117   */\n      dup4\n        /* \"#utility.yul\":2104:2121   */\n      add\n        /* \"#utility.yul\":2097:2144   */\n      mstore\n        /* \"#utility.yul\":2161:2237   */\n      tag_443\n        /* \"#utility.yul\":2232:2236   */\n      dup2\n        /* \"#utility.yul\":2223:2229   */\n      dup5\n        /* \"#utility.yul\":2161:2237   */\n      tag_335\n      jump\t// in\n    tag_443:\n        /* \"#utility.yul\":2153:2237   */\n      swap1\n      pop\n        /* \"#utility.yul\":1935:2244   */\n      swap3\n      swap2\n      pop\n      pop\n      jump\t// out\n        /* \"#utility.yul\":2250:2367   */\n    tag_336:\n        /* \"#utility.yul\":2359:2360   */\n      0x00\n        /* \"#utility.yul\":2356:2357   */\n      0x00\n        /* \"#utility.yul\":2349:2361   */\n      revert\n        /* \"#utility.yul\":2391:2640   */\n    tag_337:\n        /* \"#utility.yul\":2462:2470   */\n      0x00\n        /* \"#utility.yul\":2493:2499   */\n      dup2\n        /* \"#utility.yul\":2481:2499   */\n      swap1\n      pop\n        /* \"#utility.yul\":2546:2549   */\n      dup3\n        /* \"#utility.yul\":2538:2542   */\n      0x20\n        /* \"#utility.yul\":2532:2536   */\n      0x08\n        /* \"#utility.yul\":2528:2543   */\n      mul\n        /* \"#utility.yul\":2518:2526   */\n      dup3\n        /* \"#utility.yul\":2514:2544   */\n      add\n        /* \"#utility.yul\":2511:2550   */\n      gt\n        /* \"#utility.yul\":2508:2634   */\n      iszero\n      tag_446\n      jumpi\n        /* \"#utility.yul\":2553:2632   */\n      tag_447\n      tag_336\n      jump\t// in\n    tag_447:\n        /* \"#utility.yul\":2508:2634   */\n    tag_446:\n        /* \"#utility.yul\":2391:2640   */\n      swap3\n      swap2\n      pop\n      pop\n      jump\t// out\n        /* \"#utility.yul\":2664:2913   */\n    tag_338:\n        /* \"#utility.yul\":2735:2743   */\n      0x00\n        /* \"#utility.yul\":2766:2772   */\n      dup2\n        /* \"#utility.yul\":2754:2772   */\n      swap1\n      pop\n        /* \"#utility.yul\":2819:2822   */\n      dup3\n        /* \"#utility.yul\":2811:2815   */\n      0x20\n        /* \"#utility.yul\":2805:2809   */\n      0x06\n        /* \"#utility.yul\":2801:2816   */\n      mul\n        /* \"#utility.yul\":2791:2799   */\n      dup3\n        /* \"#utility.yul\":2787:2817   */\n      add\n        /* \"#utility.yul\":2784:2823   */\n      gt\n        /* \"#utility.yul\":2781:2907   */\n      iszero\n      tag_449\n      jumpi\n        /* \"#utility.yul\":2826:2905   */\n      tag_450\n      tag_336\n      jump\t// in\n    tag_450:\n        /* \"#utility.yul\":2781:2907   */\n    tag_449:\n        /* \"#utility.yul\":2664:2913   */\n      swap3\n      swap2\n      pop\n      pop\n      jump\t// out\n        /* \"#utility.yul\":2919:3036   */\n    tag_339:\n        /* \"#utility.yul\":3028:3029   */\n      0x00\n        /* \"#utility.yul\":3025:3026   */\n      0x00\n        /* \"#utility.yul\":3018:3030   */\n      revert\n        /* \"#utility.yul\":3042:3159   */\n    tag_340:\n        /* \"#utility.yul\":3151:3152   */\n      0x00\n        /* \"#utility.yul\":3148:3149   */\n      0x00\n        /* \"#utility.yul\":3141:3153   */\n      revert\n        /* \"#utility.yul\":3178:3730   */\n    tag_341:\n        /* \"#utility.yul\":3235:3243   */\n      0x00\n        /* \"#utility.yul\":3245:3251   */\n      0x00\n        /* \"#utility.yul\":3295:3298   */\n      dup4\n        /* \"#utility.yul\":3288:3292   */\n      0x1f\n        /* \"#utility.yul\":3280:3286   */\n      dup5\n        /* \"#utility.yul\":3276:3293   */\n      add\n        /* \"#utility.yul\":3272:3299   */\n      slt\n        /* \"#utility.yul\":3262:3384   */\n      tag_454\n      jumpi\n        /* \"#utility.yul\":3303:3382   */\n      tag_455\n      tag_339\n      jump\t// in\n    tag_455:\n        /* \"#utility.yul\":3262:3384   */\n    tag_454:\n        /* \"#utility.yul\":3416:3422   */\n      dup3\n        /* \"#utility.yul\":3403:3423   */\n      calldataload\n        /* \"#utility.yul\":3393:3423   */\n      swap1\n      pop\n        /* \"#utility.yul\":3446:3464   */\n      0xffffffffffffffff\n        /* \"#utility.yul\":3438:3444   */\n      dup2\n        /* \"#utility.yul\":3435:3465   */\n      gt\n        /* \"#utility.yul\":3432:3549   */\n      iszero\n      tag_456\n      jumpi\n        /* \"#utility.yul\":3468:3547   */\n      tag_457\n      tag_340\n      jump\t// in\n    tag_457:\n        /* \"#utility.yul\":3432:3549   */\n    tag_456:\n        /* \"#utility.yul\":3582:3586   */\n      0x20\n        /* \"#utility.yul\":3574:3580   */\n      dup4\n        /* \"#utility.yul\":3570:3587   */\n      add\n        /* \"#utility.yul\":3558:3587   */\n      swap2\n      pop\n        /* \"#utility.yul\":3636:3639   */\n      dup4\n        /* \"#utility.yul\":3628:3632   */\n      0x01\n        /* \"#utility.yul\":3620:3626   */\n      dup3\n        /* \"#utility.yul\":3616:3633   */\n      mul\n        /* \"#utility.yul\":3606:3614   */\n      dup4\n        /* \"#utility.yul\":3602:3634   */\n      add\n        /* \"#utility.yul\":3599:3640   */\n      gt\n        /* \"#utility.yul\":3596:3724   */\n      iszero\n      tag_458\n      jumpi\n        /* \"#utility.yul\":3643:3722   */\n      tag_459\n      tag_336\n      jump\t// in\n    tag_459:\n        /* \"#utility.yul\":3596:3724   */\n    tag_458:\n        /* \"#utility.yul\":3178:3730   */\n      swap3\n      pop\n      swap3\n      swap1\n      pop\n      jump\t// out\n        /* \"#utility.yul\":3736:4656   */\n    tag_32:\n        /* \"#utility.yul\":3874:3880   */\n      0x00\n        /* \"#utility.yul\":3882:3888   */\n      0x00\n        /* \"#utility.yul\":3890:3896   */\n      0x00\n        /* \"#utility.yul\":3898:3904   */\n      0x00\n        /* \"#utility.yul\":3947:3950   */\n      0x01e0\n        /* \"#utility.yul\":3935:3944   */\n      dup6\n        /* \"#utility.yul\":3926:3933   */\n      dup8\n        /* \"#utility.yul\":3922:3945   */\n      sub\n        /* \"#utility.yul\":3918:3951   */\n      slt\n        /* \"#utility.yul\":3915:4035   */\n      iszero\n      tag_461\n      jumpi\n        /* \"#utility.yul\":3954:4033   */\n      tag_462\n      tag_326\n      jump\t// in\n    tag_462:\n        /* \"#utility.yul\":3915:4035   */\n    tag_461:\n        /* \"#utility.yul\":4074:4075   */\n      0x00\n        /* \"#utility.yul\":4099:4177   */\n      tag_463\n        /* \"#utility.yul\":4169:4176   */\n      dup8\n        /* \"#utility.yul\":4160:4166   */\n      dup3\n        /* \"#utility.yul\":4149:4158   */\n      dup9\n        /* \"#utility.yul\":4145:4167   */\n      add\n        /* \"#utility.yul\":4099:4177   */\n      tag_337\n      jump\t// in\n    tag_463:\n        /* \"#utility.yul\":4089:4177   */\n      swap5\n      pop\n        /* \"#utility.yul\":4045:4187   */\n      pop\n        /* \"#utility.yul\":4226:4229   */\n      0x0100\n        /* \"#utility.yul\":4253:4331   */\n      tag_464\n        /* \"#utility.yul\":4323:4330   */\n      dup8\n        /* \"#utility.yul\":4314:4320   */\n      dup3\n        /* \"#utility.yul\":4303:4312   */\n      dup9\n        /* \"#utility.yul\":4299:4321   */\n      add\n        /* \"#utility.yul\":4253:4331   */\n      tag_338\n      jump\t// in\n    tag_464:\n        /* \"#utility.yul\":4243:4331   */\n      swap4\n      pop\n        /* \"#utility.yul\":4197:4341   */\n      pop\n        /* \"#utility.yul\":4408:4411   */\n      0x01c0\n        /* \"#utility.yul\":4397:4406   */\n      dup6\n        /* \"#utility.yul\":4393:4412   */\n      add\n        /* \"#utility.yul\":4380:4413   */\n      calldataload\n        /* \"#utility.yul\":4440:4458   */\n      0xffffffffffffffff\n        /* \"#utility.yul\":4432:4438   */\n      dup2\n        /* \"#utility.yul\":4429:4459   */\n      gt\n        /* \"#utility.yul\":4426:4543   */\n      iszero\n      tag_465\n      jumpi\n        /* \"#utility.yul\":4462:4541   */\n      tag_466\n      tag_327\n      jump\t// in\n    tag_466:\n        /* \"#utility.yul\":4426:4543   */\n    tag_465:\n        /* \"#utility.yul\":4575:4639   */\n      tag_467\n        /* \"#utility.yul\":4631:4638   */\n      dup8\n        /* \"#utility.yul\":4622:4628   */\n      dup3\n        /* \"#utility.yul\":4611:4620   */\n      dup9\n        /* \"#utility.yul\":4607:4629   */\n      add\n        /* \"#utility.yul\":4575:4639   */\n      tag_341\n      jump\t// in\n    tag_467:\n        /* \"#utility.yul\":4557:4639   */\n      swap3\n      pop\n      swap3\n      pop\n        /* \"#utility.yul\":4351:4649   */\n      pop\n        /* \"#utility.yul\":3736:4656   */\n      swap3\n      swap6\n      swap2\n      swap5\n      pop\n      swap3\n      pop\n      jump\t// out\n        /* \"#utility.yul\":4662:5427   */\n    tag_36:\n        /* \"#utility.yul\":4748:4754   */\n      0x00\n        /* \"#utility.yul\":4756:4762   */\n      0x00\n        /* \"#utility.yul\":4764:4770   */\n      0x00\n        /* \"#utility.yul\":4772:4778   */\n      0x00\n        /* \"#utility.yul\":4821:4824   */\n      0x80\n        /* \"#utility.yul\":4809:4818   */\n      dup6\n        /* \"#utility.yul\":4800:4807   */\n      dup8\n        /* \"#utility.yul\":4796:4819   */\n      sub\n        /* \"#utility.yul\":4792:4825   */\n      slt\n        /* \"#utility.yul\":4789:4909   */\n      iszero\n      tag_469\n      jumpi\n        /* \"#utility.yul\":4828:4907   */\n      tag_470\n      tag_326\n      jump\t// in\n    tag_470:\n        /* \"#utility.yul\":4789:4909   */\n    tag_469:\n        /* \"#utility.yul\":4948:4949   */\n      0x00\n        /* \"#utility.yul\":4973:5026   */\n      tag_471\n        /* \"#utility.yul\":5018:5025   */\n      dup8\n        /* \"#utility.yul\":5009:5015   */\n      dup3\n        /* \"#utility.yul\":4998:5007   */\n      dup9\n        /* \"#utility.yul\":4994:5016   */\n      add\n        /* \"#utility.yul\":4973:5026   */\n      tag_330\n      jump\t// in\n    tag_471:\n        /* \"#utility.yul\":4963:5026   */\n      swap5\n      pop\n        /* \"#utility.yul\":4919:5036   */\n      pop\n        /* \"#utility.yul\":5075:5077   */\n      0x20\n        /* \"#utility.yul\":5101:5154   */\n      tag_472\n        /* \"#utility.yul\":5146:5153   */\n      dup8\n        /* \"#utility.yul\":5137:5143   */\n      dup3\n        /* \"#utility.yul\":5126:5135   */\n      dup9\n        /* \"#utility.yul\":5122:5144   */\n      add\n        /* \"#utility.yul\":5101:5154   */\n      tag_330\n      jump\t// in\n    tag_472:\n        /* \"#utility.yul\":5091:5154   */\n      swap4\n      pop\n        /* \"#utility.yul\":5046:5164   */\n      pop\n        /* \"#utility.yul\":5203:5205   */\n      0x40\n        /* \"#utility.yul\":5229:5282   */\n      tag_473\n        /* \"#utility.yul\":5274:5281   */\n      dup8\n        /* \"#utility.yul\":5265:5271   */\n      dup3\n        /* \"#utility.yul\":5254:5263   */\n      dup9\n        /* \"#utility.yul\":5250:5272   */\n      add\n        /* \"#utility.yul\":5229:5282   */\n      tag_330\n      jump\t// in\n    tag_473:\n        /* \"#utility.yul\":5219:5282   */\n      swap3\n      pop\n        /* \"#utility.yul\":5174:5292   */\n      pop\n        /* \"#utility.yul\":5331:5333   */\n      0x60\n        /* \"#utility.yul\":5357:5410   */\n      tag_474\n        /* \"#utility.yul\":5402:5409   */\n      dup8\n        /* \"#utility.yul\":5393:5399   */\n      dup3\n        /* \"#utility.yul\":5382:5391   */\n      dup9\n        /* \"#utility.yul\":5378:5400   */\n      add\n        /* \"#utility.yul\":5357:5410   */\n      tag_330\n      jump\t// in\n    tag_474:\n        /* \"#utility.yul\":5347:5410   */\n      swap2\n      pop\n        /* \"#utility.yul\":5302:5420   */\n      pop\n        /* \"#utility.yul\":4662:5427   */\n      swap3\n      swap6\n      swap2\n      swap5\n      pop\n      swap3\n      pop\n      jump\t// out\n        /* \"#utility.yul\":5433:5559   */\n    tag_342:\n        /* \"#utility.yul\":5470:5477   */\n      0x00\n        /* \"#utility.yul\":5510:5552   */\n      0xffffffffffffffffffffffffffffffffffffffff\n        /* \"#utility.yul\":5503:5508   */\n      dup3\n        /* \"#utility.yul\":5499:5553   */\n      and\n        /* \"#utility.yul\":5488:5553   */\n      swap1\n      pop\n        /* \"#utility.yul\":5433:5559   */\n      swap2\n      swap1\n      pop\n      jump\t// out\n        /* \"#utility.yul\":5565:5661   */\n    tag_343:\n        /* \"#utility.yul\":5602:5609   */\n      0x00\n        /* \"#utility.yul\":5631:5655   */\n      tag_477\n        /* \"#utility.yul\":5649:5654   */\n      dup3\n        /* \"#utility.yul\":5631:5655   */\n      tag_342\n      jump\t// in\n    tag_477:\n        /* \"#utility.yul\":5620:5655   */\n      swap1\n      pop\n        /* \"#utility.yul\":5565:5661   */\n      swap2\n      swap1\n      pop\n      jump\t// out\n        /* \"#utility.yul\":5667:5785   */\n    tag_344:\n        /* \"#utility.yul\":5754:5778   */\n      tag_479\n        /* \"#utility.yul\":5772:5777   */\n      dup2\n        /* \"#utility.yul\":5754:5778   */\n      tag_343\n      jump\t// in\n    tag_479:\n        /* \"#utility.yul\":5749:5752   */\n      dup3\n        /* \"#utility.yul\":5742:5779   */\n      mstore\n        /* \"#utility.yul\":5667:5785   */\n      pop\n      pop\n      jump\t// out\n        /* \"#utility.yul\":5791:6013   */\n    tag_39:\n        /* \"#utility.yul\":5884:5888   */\n      0x00\n        /* \"#utility.yul\":5922:5924   */\n      0x20\n        /* \"#utility.yul\":5911:5920   */\n      dup3\n        /* \"#utility.yul\":5907:5925   */\n      add\n        /* \"#utility.yul\":5899:5925   */\n      swap1\n      pop\n        /* \"#utility.yul\":5935:6006   */\n      tag_481\n        /* \"#utility.yul\":6003:6004   */\n      0x00\n        /* \"#utility.yul\":5992:6001   */\n      dup4\n        /* \"#utility.yul\":5988:6005   */\n      add\n        /* \"#utility.yul\":5979:5985   */\n      dup5\n        /* \"#utility.yul\":5935:6006   */\n      tag_344\n      jump\t// in\n    tag_481:\n        /* \"#utility.yul\":5791:6013   */\n      swap3\n      swap2\n      pop\n      pop\n      jump\t// out\n        /* \"#utility.yul\":6019:6079   */\n    tag_345:\n        /* \"#utility.yul\":6047:6050   */\n      0x00\n        /* \"#utility.yul\":6068:6073   */\n      dup2\n        /* \"#utility.yul\":6061:6073   */\n      swap1\n      pop\n        /* \"#utility.yul\":6019:6079   */\n      swap2\n      swap1\n      pop\n      jump\t// out\n        /* \"#utility.yul\":6085:6227   */\n    tag_346:\n        /* \"#utility.yul\":6135:6144   */\n      0x00\n        /* \"#utility.yul\":6168:6221   */\n      tag_484\n        /* \"#utility.yul\":6186:6220   */\n      tag_485\n        /* \"#utility.yul\":6195:6219   */\n      tag_486\n        /* \"#utility.yul\":6213:6218   */\n      dup5\n        /* \"#utility.yul\":6195:6219   */\n      tag_342\n      jump\t// in\n    tag_486:\n        /* \"#utility.yul\":6186:6220   */\n      tag_345\n      jump\t// in\n    tag_485:\n        /* \"#utility.yul\":6168:6221   */\n      tag_342\n      jump\t// in\n    tag_484:\n        /* \"#utility.yul\":6155:6221   */\n      swap1\n      pop\n        /* \"#utility.yul\":6085:6227   */\n      swap2\n      swap1\n      pop\n      jump\t// out\n        /* \"#utility.yul\":6233:6359   */\n    tag_347:\n        /* \"#utility.yul\":6283:6292   */\n      0x00\n        /* \"#utility.yul\":6316:6353   */\n      tag_488\n        /* \"#utility.yul\":6347:6352   */\n      dup3\n        /* \"#utility.yul\":6316:6353   */\n      tag_346\n      jump\t// in\n    tag_488:\n        /* \"#utility.yul\":6303:6353   */\n      swap1\n      pop\n        /* \"#utility.yul\":6233:6359   */\n      swap2\n      swap1\n      pop\n      jump\t// out\n        /* \"#utility.yul\":6365:6516   */\n    tag_348:\n        /* \"#utility.yul\":6440:6449   */\n      0x00\n        /* \"#utility.yul\":6473:6510   */\n      tag_490\n        /* \"#utility.yul\":6504:6509   */\n      dup3\n        /* \"#utility.yul\":6473:6510   */\n      tag_347\n      jump\t// in\n    tag_490:\n        /* \"#utility.yul\":6460:6510   */\n      swap1\n      pop\n        /* \"#utility.yul\":6365:6516   */\n      swap2\n      swap1\n      pop\n      jump\t// out\n        /* \"#utility.yul\":6522:6703   */\n    tag_349:\n        /* \"#utility.yul\":6634:6696   */\n      tag_492\n        /* \"#utility.yul\":6690:6695   */\n      dup2\n        /* \"#utility.yul\":6634:6696   */\n      tag_348\n      jump\t// in\n    tag_492:\n        /* \"#utility.yul\":6629:6632   */\n      dup3\n        /* \"#utility.yul\":6622:6697   */\n      mstore\n        /* \"#utility.yul\":6522:6703   */\n      pop\n      pop\n      jump\t// out\n        /* \"#utility.yul\":6709:6981   */\n    tag_43:\n        /* \"#utility.yul\":6827:6831   */\n      0x00\n        /* \"#utility.yul\":6865:6867   */\n      0x20\n        /* \"#utility.yul\":6854:6863   */\n      dup3\n        /* \"#utility.yul\":6850:6868   */\n      add\n        /* \"#utility.yul\":6842:6868   */\n      swap1\n      pop\n        /* \"#utility.yul\":6878:6974   */\n      tag_494\n        /* \"#utility.yul\":6971:6972   */\n      0x00\n        /* \"#utility.yul\":6960:6969   */\n      dup4\n        /* \"#utility.yul\":6956:6973   */\n      add\n        /* \"#utility.yul\":6947:6953   */\n      dup5\n        /* \"#utility.yul\":6878:6974   */\n      tag_349\n      jump\t// in\n    tag_494:\n        /* \"#utility.yul\":6709:6981   */\n      swap3\n      swap2\n      pop\n      pop\n      jump\t// out\n        /* \"#utility.yul\":6987:7064   */\n    tag_350:\n        /* \"#utility.yul\":7024:7031   */\n      0x00\n        /* \"#utility.yul\":7053:7058   */\n      dup2\n        /* \"#utility.yul\":7042:7058   */\n      swap1\n      pop\n        /* \"#utility.yul\":6987:7064   */\n      swap2\n      swap1\n      pop\n      jump\t// out\n        /* \"#utility.yul\":7070:7192   */\n    tag_351:\n        /* \"#utility.yul\":7143:7167   */\n      tag_497\n        /* \"#utility.yul\":7161:7166   */\n      dup2\n        /* \"#utility.yul\":7143:7167   */\n      tag_350\n      jump\t// in\n    tag_497:\n        /* \"#utility.yul\":7136:7141   */\n      dup2\n        /* \"#utility.yul\":7133:7168   */\n      eq\n        /* \"#utility.yul\":7123:7186   */\n      tag_498\n      jumpi\n        /* \"#utility.yul\":7182:7183   */\n      0x00\n        /* \"#utility.yul\":7179:7180   */\n      0x00\n        /* \"#utility.yul\":7172:7184   */\n      revert\n        /* \"#utility.yul\":7123:7186   */\n    tag_498:\n        /* \"#utility.yul\":7070:7192   */\n      pop\n      jump\t// out\n        /* \"#utility.yul\":7198:7337   */\n    tag_352:\n        /* \"#utility.yul\":7244:7249   */\n      0x00\n        /* \"#utility.yul\":7282:7288   */\n      dup2\n        /* \"#utility.yul\":7269:7289   */\n      calldataload\n        /* \"#utility.yul\":7260:7289   */\n      swap1\n      pop\n        /* \"#utility.yul\":7298:7331   */\n      tag_500\n        /* \"#utility.yul\":7325:7330   */\n      dup2\n        /* \"#utility.yul\":7298:7331   */\n      tag_351\n      jump\t// in\n    tag_500:\n        /* \"#utility.yul\":7198:7337   */\n      swap3\n      swap2\n      pop\n      pop\n      jump\t// out\n        /* \"#utility.yul\":7343:7460   */\n    tag_353:\n        /* \"#utility.yul\":7452:7453   */\n      0x00\n        /* \"#utility.yul\":7449:7450   */\n      0x00\n        /* \"#utility.yul\":7442:7454   */\n      revert\n        /* \"#utility.yul\":7466:7646   */\n    tag_169:\n        /* \"#utility.yul\":7514:7591   */\n      0x4e487b7100000000000000000000000000000000000000000000000000000000\n        /* \"#utility.yul\":7511:7512   */\n      0x00\n        /* \"#utility.yul\":7504:7592   */\n      mstore\n        /* \"#utility.yul\":7611:7615   */\n      0x41\n        /* \"#utility.yul\":7608:7609   */\n      0x04\n        /* \"#utility.yul\":7601:7616   */\n      mstore\n        /* \"#utility.yul\":7635:7639   */\n      0x24\n        /* \"#utility.yul\":7632:7633   */\n      0x00\n        /* \"#utility.yul\":7625:7640   */\n      revert\n        /* \"#utility.yul\":7652:7933   */\n    tag_354:\n        /* \"#utility.yul\":7735:7762   */\n      tag_504\n        /* \"#utility.yul\":7757:7761   */\n      dup3\n        /* \"#utility.yul\":7735:7762   */\n      tag_334\n      jump\t// in\n    tag_504:\n        /* \"#utility.yul\":7727:7733   */\n      dup2\n        /* \"#utility.yul\":7723:7763   */\n      add\n        /* \"#utility.yul\":7865:7871   */\n      dup2\n        /* \"#utility.yul\":7853:7863   */\n      dup2\n        /* \"#utility.yul\":7850:7872   */\n      lt\n        /* \"#utility.yul\":7829:7847   */\n      0xffffffffffffffff\n        /* \"#utility.yul\":7817:7827   */\n      dup3\n        /* \"#utility.yul\":7814:7848   */\n      gt\n        /* \"#utility.yul\":7811:7873   */\n      or\n        /* \"#utility.yul\":7808:7896   */\n      iszero\n      tag_505\n      jumpi\n        /* \"#utility.yul\":7876:7894   */\n      tag_506\n      tag_169\n      jump\t// in\n    tag_506:\n        /* \"#utility.yul\":7808:7896   */\n    tag_505:\n        /* \"#utility.yul\":7916:7926   */\n      dup1\n        /* \"#utility.yul\":7912:7914   */\n      0x40\n        /* \"#utility.yul\":7905:7927   */\n      mstore\n        /* \"#utility.yul\":7695:7933   */\n      pop\n        /* \"#utility.yul\":7652:7933   */\n      pop\n      pop\n      jump\t// out\n        /* \"#utility.yul\":7939:8068   */\n    tag_355:\n        /* \"#utility.yul\":7973:7979   */\n      0x00\n        /* \"#utility.yul\":8000:8020   */\n      tag_508\n      tag_325\n      jump\t// in\n    tag_508:\n        /* \"#utility.yul\":7990:8020   */\n      swap1\n      pop\n        /* \"#utility.yul\":8029:8062   */\n      tag_509\n        /* \"#utility.yul\":8057:8061   */\n      dup3\n        /* \"#utility.yul\":8049:8055   */\n      dup3\n        /* \"#utility.yul\":8029:8062   */\n      tag_354\n      jump\t// in\n    tag_509:\n        /* \"#utility.yul\":7939:8068   */\n      swap2\n      swap1\n      pop\n      jump\t// out\n        /* \"#utility.yul\":8074:8381   */\n    tag_356:\n        /* \"#utility.yul\":8135:8139   */\n      0x00\n        /* \"#utility.yul\":8225:8243   */\n      0xffffffffffffffff\n        /* \"#utility.yul\":8217:8223   */\n      dup3\n        /* \"#utility.yul\":8214:8244   */\n      gt\n        /* \"#utility.yul\":8211:8267   */\n      iszero\n      tag_511\n      jumpi\n        /* \"#utility.yul\":8247:8265   */\n      tag_512\n      tag_169\n      jump\t// in\n    tag_512:\n        /* \"#utility.yul\":8211:8267   */\n    tag_511:\n        /* \"#utility.yul\":8285:8314   */\n      tag_513\n        /* \"#utility.yul\":8307:8313   */\n      dup3\n        /* \"#utility.yul\":8285:8314   */\n      tag_334\n      jump\t// in\n    tag_513:\n        /* \"#utility.yul\":8277:8314   */\n      swap1\n      pop\n        /* \"#utility.yul\":8369:8373   */\n      0x20\n        /* \"#utility.yul\":8363:8367   */\n      dup2\n        /* \"#utility.yul\":8359:8374   */\n      add\n        /* \"#utility.yul\":8351:8374   */\n      swap1\n      pop\n        /* \"#utility.yul\":8074:8381   */\n      swap2\n      swap1\n      pop\n      jump\t// out\n        /* \"#utility.yul\":8387:8535   */\n    tag_357:\n        /* \"#utility.yul\":8485:8491   */\n      dup3\n        /* \"#utility.yul\":8480:8483   */\n      dup2\n        /* \"#utility.yul\":8475:8478   */\n      dup4\n        /* \"#utility.yul\":8462:8492   */\n      calldatacopy\n        /* \"#utility.yul\":8526:8527   */\n      0x00\n        /* \"#utility.yul\":8517:8523   */\n      dup4\n        /* \"#utility.yul\":8512:8515   */\n      dup4\n        /* \"#utility.yul\":8508:8524   */\n      add\n        /* \"#utility.yul\":8501:8528   */\n      mstore\n        /* \"#utility.yul\":8387:8535   */\n      pop\n      pop\n      pop\n      jump\t// out\n        /* \"#utility.yul\":8541:8964   */\n    tag_358:\n        /* \"#utility.yul\":8618:8623   */\n      0x00\n        /* \"#utility.yul\":8643:8708   */\n      tag_516\n        /* \"#utility.yul\":8659:8707   */\n      tag_517\n        /* \"#utility.yul\":8700:8706   */\n      dup5\n        /* \"#utility.yul\":8659:8707   */\n      tag_356\n      jump\t// in\n    tag_517:\n        /* \"#utility.yul\":8643:8708   */\n      tag_355\n      jump\t// in\n    tag_516:\n        /* \"#utility.yul\":8634:8708   */\n      swap1\n      pop\n        /* \"#utility.yul\":8731:8737   */\n      dup3\n        /* \"#utility.yul\":8724:8729   */\n      dup2\n        /* \"#utility.yul\":8717:8738   */\n      mstore\n        /* \"#utility.yul\":8769:8773   */\n      0x20\n        /* \"#utility.yul\":8762:8767   */\n      dup2\n        /* \"#utility.yul\":8758:8774   */\n      add\n        /* \"#utility.yul\":8807:8810   */\n      dup5\n        /* \"#utility.yul\":8798:8804   */\n      dup5\n        /* \"#utility.yul\":8793:8796   */\n      dup5\n        /* \"#utility.yul\":8789:8805   */\n      add\n        /* \"#utility.yul\":8786:8811   */\n      gt\n        /* \"#utility.yul\":8783:8895   */\n      iszero\n      tag_518\n      jumpi\n        /* \"#utility.yul\":8814:8893   */\n      tag_519\n      tag_353\n      jump\t// in\n    tag_519:\n        /* \"#utility.yul\":8783:8895   */\n    tag_518:\n        /* \"#utility.yul\":8904:8958   */\n      tag_520\n        /* \"#utility.yul\":8951:8957   */\n      dup5\n        /* \"#utility.yul\":8946:8949   */\n      dup3\n        /* \"#utility.yul\":8941:8944   */\n      dup6\n        /* \"#utility.yul\":8904:8958   */\n      tag_357\n      jump\t// in\n    tag_520:\n        /* \"#utility.yul\":8624:8964   */\n      pop\n        /* \"#utility.yul\":8541:8964   */\n      swap4\n      swap3\n      pop\n      pop\n      pop\n      jump\t// out\n        /* \"#utility.yul\":8983:9321   */\n    tag_359:\n        /* \"#utility.yul\":9038:9043   */\n      0x00\n        /* \"#utility.yul\":9087:9090   */\n      dup3\n        /* \"#utility.yul\":9080:9084   */\n      0x1f\n        /* \"#utility.yul\":9072:9078   */\n      dup4\n        /* \"#utility.yul\":9068:9085   */\n      add\n        /* \"#utility.yul\":9064:9091   */\n      slt\n        /* \"#utility.yul\":9054:9176   */\n      tag_522\n      jumpi\n        /* \"#utility.yul\":9095:9174   */\n      tag_523\n      tag_339\n      jump\t// in\n    tag_523:\n        /* \"#utility.yul\":9054:9176   */\n    tag_522:\n        /* \"#utility.yul\":9212:9218   */\n      dup2\n        /* \"#utility.yul\":9199:9219   */\n      calldataload\n        /* \"#utility.yul\":9237:9315   */\n      tag_524\n        /* \"#utility.yul\":9311:9314   */\n      dup5\n        /* \"#utility.yul\":9303:9309   */\n      dup3\n        /* \"#utility.yul\":9296:9300   */\n      0x20\n        /* \"#utility.yul\":9288:9294   */\n      dup7\n        /* \"#utility.yul\":9284:9301   */\n      add\n        /* \"#utility.yul\":9237:9315   */\n      tag_358\n      jump\t// in\n    tag_524:\n        /* \"#utility.yul\":9228:9315   */\n      swap2\n      pop\n        /* \"#utility.yul\":9044:9321   */\n      pop\n        /* \"#utility.yul\":8983:9321   */\n      swap3\n      swap2\n      pop\n      pop\n      jump\t// out\n        /* \"#utility.yul\":9327:9979   */\n    tag_55:\n        /* \"#utility.yul\":9404:9410   */\n      0x00\n        /* \"#utility.yul\":9412:9418   */\n      0x00\n        /* \"#utility.yul\":9461:9463   */\n      0x40\n        /* \"#utility.yul\":9449:9458   */\n      dup4\n        /* \"#utility.yul\":9440:9447   */\n      dup6\n        /* \"#utility.yul\":9436:9459   */\n      sub\n        /* \"#utility.yul\":9432:9464   */\n      slt\n        /* \"#utility.yul\":9429:9548   */\n      iszero\n      tag_526\n      jumpi\n        /* \"#utility.yul\":9467:9546   */\n      tag_527\n      tag_326\n      jump\t// in\n    tag_527:\n        /* \"#utility.yul\":9429:9548   */\n    tag_526:\n        /* \"#utility.yul\":9587:9588   */\n      0x00\n        /* \"#utility.yul\":9612:9665   */\n      tag_528\n        /* \"#utility.yul\":9657:9664   */\n      dup6\n        /* \"#utility.yul\":9648:9654   */\n      dup3\n        /* \"#utility.yul\":9637:9646   */\n      dup7\n        /* \"#utility.yul\":9633:9655   */\n      add\n        /* \"#utility.yul\":9612:9665   */\n      tag_352\n      jump\t// in\n    tag_528:\n        /* \"#utility.yul\":9602:9665   */\n      swap3\n      pop\n        /* \"#utility.yul\":9558:9675   */\n      pop\n        /* \"#utility.yul\":9742:9744   */\n      0x20\n        /* \"#utility.yul\":9731:9740   */\n      dup4\n        /* \"#utility.yul\":9727:9745   */\n      add\n        /* \"#utility.yul\":9714:9746   */\n      calldataload\n        /* \"#utility.yul\":9773:9791   */\n      0xffffffffffffffff\n        /* \"#utility.yul\":9765:9771   */\n      dup2\n        /* \"#utility.yul\":9762:9792   */\n      gt\n        /* \"#utility.yul\":9759:9876   */\n      iszero\n      tag_529\n      jumpi\n        /* \"#utility.yul\":9795:9874   */\n      tag_530\n      tag_327\n      jump\t// in\n    tag_530:\n        /* \"#utility.yul\":9759:9876   */\n    tag_529:\n        /* \"#utility.yul\":9900:9962   */\n      tag_531\n        /* \"#utility.yul\":9954:9961   */\n      dup6\n        /* \"#utility.yul\":9945:9951   */\n      dup3\n        /* \"#utility.yul\":9934:9943   */\n      dup7\n        /* \"#utility.yul\":9930:9952   */\n      add\n        /* \"#utility.yul\":9900:9962   */\n      tag_359\n      jump\t// in\n    tag_531:\n        /* \"#utility.yul\":9890:9962   */\n      swap2\n      pop\n        /* \"#utility.yul\":9685:9972   */\n      pop\n        /* \"#utility.yul\":9327:9979   */\n      swap3\n      pop\n      swap3\n      swap1\n      pop\n      jump\t// out\n        /* \"#utility.yul\":9985:10075   */\n    tag_360:\n        /* \"#utility.yul\":10019:10026   */\n      0x00\n        /* \"#utility.yul\":10062:10067   */\n      dup2\n        /* \"#utility.yul\":10055:10068   */\n      iszero\n        /* \"#utility.yul\":10048:10069   */\n      iszero\n        /* \"#utility.yul\":10037:10069   */\n      swap1\n      pop\n        /* \"#utility.yul\":9985:10075   */\n      swap2\n      swap1\n      pop\n      jump\t// out\n        /* \"#utility.yul\":10081:10190   */\n    tag_361:\n        /* \"#utility.yul\":10162:10183   */\n      tag_534\n        /* \"#utility.yul\":10177:10182   */\n      dup2\n        /* \"#utility.yul\":10162:10183   */\n      tag_360\n      jump\t// in\n    tag_534:\n        /* \"#utility.yul\":10157:10160   */\n      dup3\n        /* \"#utility.yul\":10150:10184   */\n      mstore\n        /* \"#utility.yul\":10081:10190   */\n      pop\n      pop\n      jump\t// out\n        /* \"#utility.yul\":10196:10406   */\n    tag_62:\n        /* \"#utility.yul\":10283:10287   */\n      0x00\n        /* \"#utility.yul\":10321:10323   */\n      0x20\n        /* \"#utility.yul\":10310:10319   */\n      dup3\n        /* \"#utility.yul\":10306:10324   */\n      add\n        /* \"#utility.yul\":10298:10324   */\n      swap1\n      pop\n        /* \"#utility.yul\":10334:10399   */\n      tag_536\n        /* \"#utility.yul\":10396:10397   */\n      0x00\n        /* \"#utility.yul\":10385:10394   */\n      dup4\n        /* \"#utility.yul\":10381:10398   */\n      add\n        /* \"#utility.yul\":10372:10378   */\n      dup5\n        /* \"#utility.yul\":10334:10399   */\n      tag_361\n      jump\t// in\n    tag_536:\n        /* \"#utility.yul\":10196:10406   */\n      swap3\n      swap2\n      pop\n      pop\n      jump\t// out\n        /* \"#utility.yul\":10412:10557   */\n    tag_362:\n        /* \"#utility.yul\":10481:10490   */\n      0x00\n        /* \"#utility.yul\":10514:10551   */\n      tag_538\n        /* \"#utility.yul\":10545:10550   */\n      dup3\n        /* \"#utility.yul\":10514:10551   */\n      tag_347\n      jump\t// in\n    tag_538:\n        /* \"#utility.yul\":10501:10551   */\n      swap1\n      pop\n        /* \"#utility.yul\":10412:10557   */\n      swap2\n      swap1\n      pop\n      jump\t// out\n        /* \"#utility.yul\":10563:10732   */\n    tag_363:\n        /* \"#utility.yul\":10669:10725   */\n      tag_540\n        /* \"#utility.yul\":10719:10724   */\n      dup2\n        /* \"#utility.yul\":10669:10725   */\n      tag_362\n      jump\t// in\n    tag_540:\n        /* \"#utility.yul\":10664:10667   */\n      dup3\n        /* \"#utility.yul\":10657:10726   */\n      mstore\n        /* \"#utility.yul\":10563:10732   */\n      pop\n      pop\n      jump\t// out\n        /* \"#utility.yul\":10738:10998   */\n    tag_66:\n        /* \"#utility.yul\":10850:10854   */\n      0x00\n        /* \"#utility.yul\":10888:10890   */\n      0x20\n        /* \"#utility.yul\":10877:10886   */\n      dup3\n        /* \"#utility.yul\":10873:10891   */\n      add\n        /* \"#utility.yul\":10865:10891   */\n      swap1\n      pop\n        /* \"#utility.yul\":10901:10991   */\n      tag_542\n        /* \"#utility.yul\":10988:10989   */\n      0x00\n        /* \"#utility.yul\":10977:10986   */\n      dup4\n        /* \"#utility.yul\":10973:10990   */\n      add\n        /* \"#utility.yul\":10964:10970   */\n      dup5\n        /* \"#utility.yul\":10901:10991   */\n      tag_363\n      jump\t// in\n    tag_542:\n        /* \"#utility.yul\":10738:10998   */\n      swap3\n      swap2\n      pop\n      pop\n      jump\t// out\n        /* \"#utility.yul\":11004:11156   */\n    tag_364:\n        /* \"#utility.yul\":11080:11089   */\n      0x00\n        /* \"#utility.yul\":11113:11150   */\n      tag_544\n        /* \"#utility.yul\":11144:11149   */\n      dup3\n        /* \"#utility.yul\":11113:11150   */\n      tag_347\n      jump\t// in\n    tag_544:\n        /* \"#utility.yul\":11100:11150   */\n      swap1\n      pop\n        /* \"#utility.yul\":11004:11156   */\n      swap2\n      swap1\n      pop\n      jump\t// out\n        /* \"#utility.yul\":11162:11345   */\n    tag_365:\n        /* \"#utility.yul\":11275:11338   */\n      tag_546\n        /* \"#utility.yul\":11332:11337   */\n      dup2\n        /* \"#utility.yul\":11275:11338   */\n      tag_364\n      jump\t// in\n    tag_546:\n        /* \"#utility.yul\":11270:11273   */\n      dup3\n        /* \"#utility.yul\":11263:11339   */\n      mstore\n        /* \"#utility.yul\":11162:11345   */\n      pop\n      pop\n      jump\t// out\n        /* \"#utility.yul\":11351:11625   */\n    tag_70:\n        /* \"#utility.yul\":11470:11474   */\n      0x00\n        /* \"#utility.yul\":11508:11510   */\n      0x20\n        /* \"#utility.yul\":11497:11506   */\n      dup3\n        /* \"#utility.yul\":11493:11511   */\n      add\n        /* \"#utility.yul\":11485:11511   */\n      swap1\n      pop\n        /* \"#utility.yul\":11521:11618   */\n      tag_548\n        /* \"#utility.yul\":11615:11616   */\n      0x00\n        /* \"#utility.yul\":11604:11613   */\n      dup4\n        /* \"#utility.yul\":11600:11617   */\n      add\n        /* \"#utility.yul\":11591:11597   */\n      dup5\n        /* \"#utility.yul\":11521:11618   */\n      tag_365\n      jump\t// in\n    tag_548:\n        /* \"#utility.yul\":11351:11625   */\n      swap3\n      swap2\n      pop\n      pop\n      jump\t// out\n        /* \"#utility.yul\":11631:11730   */\n    tag_366:\n        /* \"#utility.yul\":11683:11689   */\n      0x00\n        /* \"#utility.yul\":11717:11722   */\n      dup2\n        /* \"#utility.yul\":11711:11723   */\n      mload\n        /* \"#utility.yul\":11701:11723   */\n      swap1\n      pop\n        /* \"#utility.yul\":11631:11730   */\n      swap2\n      swap1\n      pop\n      jump\t// out\n        /* \"#utility.yul\":11736:11905   */\n    tag_367:\n        /* \"#utility.yul\":11820:11831   */\n      0x00\n        /* \"#utility.yul\":11854:11860   */\n      dup3\n        /* \"#utility.yul\":11849:11852   */\n      dup3\n        /* \"#utility.yul\":11842:11861   */\n      mstore\n        /* \"#utility.yul\":11894:11898   */\n      0x20\n        /* \"#utility.yul\":11889:11892   */\n      dup3\n        /* \"#utility.yul\":11885:11899   */\n      add\n        /* \"#utility.yul\":11870:11899   */\n      swap1\n      pop\n        /* \"#utility.yul\":11736:11905   */\n      swap3\n      swap2\n      pop\n      pop\n      jump\t// out\n        /* \"#utility.yul\":11911:12288   */\n    tag_368:\n        /* \"#utility.yul\":11999:12002   */\n      0x00\n        /* \"#utility.yul\":12027:12066   */\n      tag_552\n        /* \"#utility.yul\":12060:12065   */\n      dup3\n        /* \"#utility.yul\":12027:12066   */\n      tag_366\n      jump\t// in\n    tag_552:\n        /* \"#utility.yul\":12082:12153   */\n      tag_553\n        /* \"#utility.yul\":12146:12152   */\n      dup2\n        /* \"#utility.yul\":12141:12144   */\n      dup6\n        /* \"#utility.yul\":12082:12153   */\n      tag_367\n      jump\t// in\n    tag_553:\n        /* \"#utility.yul\":12075:12153   */\n      swap4\n      pop\n        /* \"#utility.yul\":12162:12227   */\n      tag_554\n        /* \"#utility.yul\":12220:12226   */\n      dup2\n        /* \"#utility.yul\":12215:12218   */\n      dup6\n        /* \"#utility.yul\":12208:12212   */\n      0x20\n        /* \"#utility.yul\":12201:12206   */\n      dup7\n        /* \"#utility.yul\":12197:12213   */\n      add\n        /* \"#utility.yul\":12162:12227   */\n      tag_333\n      jump\t// in\n    tag_554:\n        /* \"#utility.yul\":12252:12281   */\n      tag_555\n        /* \"#utility.yul\":12274:12280   */\n      dup2\n        /* \"#utility.yul\":12252:12281   */\n      tag_334\n      jump\t// in\n    tag_555:\n        /* \"#utility.yul\":12247:12250   */\n      dup5\n        /* \"#utility.yul\":12243:12282   */\n      add\n        /* \"#utility.yul\":12236:12282   */\n      swap2\n      pop\n        /* \"#utility.yul\":12003:12288   */\n      pop\n        /* \"#utility.yul\":11911:12288   */\n      swap3\n      swap2\n      pop\n      pop\n      jump\t// out\n        /* \"#utility.yul\":12294:12607   */\n    tag_75:\n        /* \"#utility.yul\":12407:12411   */\n      0x00\n        /* \"#utility.yul\":12445:12447   */\n      0x20\n        /* \"#utility.yul\":12434:12443   */\n      dup3\n        /* \"#utility.yul\":12430:12448   */\n      add\n        /* \"#utility.yul\":12422:12448   */\n      swap1\n      pop\n        /* \"#utility.yul\":12494:12503   */\n      dup2\n        /* \"#utility.yul\":12488:12492   */\n      dup2\n        /* \"#utility.yul\":12484:12504   */\n      sub\n        /* \"#utility.yul\":12480:12481   */\n      0x00\n        /* \"#utility.yul\":12469:12478   */\n      dup4\n        /* \"#utility.yul\":12465:12482   */\n      add\n        /* \"#utility.yul\":12458:12505   */\n      mstore\n        /* \"#utility.yul\":12522:12600   */\n      tag_557\n        /* \"#utility.yul\":12595:12599   */\n      dup2\n        /* \"#utility.yul\":12586:12592   */\n      dup5\n        /* \"#utility.yul\":12522:12600   */\n      tag_368\n      jump\t// in\n    tag_557:\n        /* \"#utility.yul\":12514:12600   */\n      swap1\n      pop\n        /* \"#utility.yul\":12294:12607   */\n      swap3\n      swap2\n      pop\n      pop\n      jump\t// out\n        /* \"#utility.yul\":12613:12757   */\n    tag_369:\n        /* \"#utility.yul\":12681:12690   */\n      0x00\n        /* \"#utility.yul\":12714:12751   */\n      tag_559\n        /* \"#utility.yul\":12745:12750   */\n      dup3\n        /* \"#utility.yul\":12714:12751   */\n      tag_347\n      jump\t// in\n    tag_559:\n        /* \"#utility.yul\":12701:12751   */\n      swap1\n      pop\n        /* \"#utility.yul\":12613:12757   */\n      swap2\n      swap1\n      pop\n      jump\t// out\n        /* \"#utility.yul\":12763:12930   */\n    tag_370:\n        /* \"#utility.yul\":12868:12923   */\n      tag_561\n        /* \"#utility.yul\":12917:12922   */\n      dup2\n        /* \"#utility.yul\":12868:12923   */\n      tag_369\n      jump\t// in\n    tag_561:\n        /* \"#utility.yul\":12863:12866   */\n      dup3\n        /* \"#utility.yul\":12856:12924   */\n      mstore\n        /* \"#utility.yul\":12763:12930   */\n      pop\n      pop\n      jump\t// out\n        /* \"#utility.yul\":12936:13194   */\n    tag_82:\n        /* \"#utility.yul\":13047:13051   */\n      0x00\n        /* \"#utility.yul\":13085:13087   */\n      0x20\n        /* \"#utility.yul\":13074:13083   */\n      dup3\n        /* \"#utility.yul\":13070:13088   */\n      add\n        /* \"#utility.yul\":13062:13088   */\n      swap1\n      pop\n        /* \"#utility.yul\":13098:13187   */\n      tag_563\n        /* \"#utility.yul\":13184:13185   */\n      0x00\n        /* \"#utility.yul\":13173:13182   */\n      dup4\n        /* \"#utility.yul\":13169:13186   */\n      add\n        /* \"#utility.yul\":13160:13166   */\n      dup5\n        /* \"#utility.yul\":13098:13187   */\n      tag_370\n      jump\t// in\n    tag_563:\n        /* \"#utility.yul\":12936:13194   */\n      swap3\n      swap2\n      pop\n      pop\n      jump\t// out\n        /* \"#utility.yul\":13200:13322   */\n    tag_371:\n        /* \"#utility.yul\":13273:13297   */\n      tag_565\n        /* \"#utility.yul\":13291:13296   */\n      dup2\n        /* \"#utility.yul\":13273:13297   */\n      tag_343\n      jump\t// in\n    tag_565:\n        /* \"#utility.yul\":13266:13271   */\n      dup2\n        /* \"#utility.yul\":13263:13298   */\n      eq\n        /* \"#utility.yul\":13253:13316   */\n      tag_566\n      jumpi\n        /* \"#utility.yul\":13312:13313   */\n      0x00\n        /* \"#utility.yul\":13309:13310   */\n      0x00\n        /* \"#utility.yul\":13302:13314   */\n      revert\n        /* \"#utility.yul\":13253:13316   */\n    tag_566:\n        /* \"#utility.yul\":13200:13322   */\n      pop\n      jump\t// out\n        /* \"#utility.yul\":13328:13467   */\n    tag_372:\n        /* \"#utility.yul\":13374:13379   */\n      0x00\n        /* \"#utility.yul\":13412:13418   */\n      dup2\n        /* \"#utility.yul\":13399:13419   */\n      calldataload\n        /* \"#utility.yul\":13390:13419   */\n      swap1\n      pop\n        /* \"#utility.yul\":13428:13461   */\n      tag_568\n        /* \"#utility.yul\":13455:13460   */\n      dup2\n        /* \"#utility.yul\":13428:13461   */\n      tag_371\n      jump\t// in\n    tag_568:\n        /* \"#utility.yul\":13328:13467   */\n      swap3\n      swap2\n      pop\n      pop\n      jump\t// out\n        /* \"#utility.yul\":13473:13802   */\n    tag_85:\n        /* \"#utility.yul\":13532:13538   */\n      0x00\n        /* \"#utility.yul\":13581:13583   */\n      0x20\n        /* \"#utility.yul\":13569:13578   */\n      dup3\n        /* \"#utility.yul\":13560:13567   */\n      dup5\n        /* \"#utility.yul\":13556:13579   */\n      sub\n        /* \"#utility.yul\":13552:13584   */\n      slt\n        /* \"#utility.yul\":13549:13668   */\n      iszero\n      tag_570\n      jumpi\n        /* \"#utility.yul\":13587:13666   */\n      tag_571\n      tag_326\n      jump\t// in\n    tag_571:\n        /* \"#utility.yul\":13549:13668   */\n    tag_570:\n        /* \"#utility.yul\":13707:13708   */\n      0x00\n        /* \"#utility.yul\":13732:13785   */\n      tag_572\n        /* \"#utility.yul\":13777:13784   */\n      dup5\n        /* \"#utility.yul\":13768:13774   */\n      dup3\n        /* \"#utility.yul\":13757:13766   */\n      dup6\n        /* \"#utility.yul\":13753:13775   */\n      add\n        /* \"#utility.yul\":13732:13785   */\n      tag_372\n      jump\t// in\n    tag_572:\n        /* \"#utility.yul\":13722:13785   */\n      swap2\n      pop\n        /* \"#utility.yul\":13678:13795   */\n      pop\n        /* \"#utility.yul\":13473:13802   */\n      swap3\n      swap2\n      pop\n      pop\n      jump\t// out\n        /* \"#utility.yul\":13808:13958   */\n    tag_373:\n        /* \"#utility.yul\":13882:13891   */\n      0x00\n        /* \"#utility.yul\":13915:13952   */\n      tag_574\n        /* \"#utility.yul\":13946:13951   */\n      dup3\n        /* \"#utility.yul\":13915:13952   */\n      tag_347\n      jump\t// in\n    tag_574:\n        /* \"#utility.yul\":13902:13952   */\n      swap1\n      pop\n        /* \"#utility.yul\":13808:13958   */\n      swap2\n      swap1\n      pop\n      jump\t// out\n        /* \"#utility.yul\":13964:14143   */\n    tag_374:\n        /* \"#utility.yul\":14075:14136   */\n      tag_576\n        /* \"#utility.yul\":14130:14135   */\n      dup2\n        /* \"#utility.yul\":14075:14136   */\n      tag_373\n      jump\t// in\n    tag_576:\n        /* \"#utility.yul\":14070:14073   */\n      dup3\n        /* \"#utility.yul\":14063:14137   */\n      mstore\n        /* \"#utility.yul\":13964:14143   */\n      pop\n      pop\n      jump\t// out\n        /* \"#utility.yul\":14149:14419   */\n    tag_93:\n        /* \"#utility.yul\":14266:14270   */\n      0x00\n        /* \"#utility.yul\":14304:14306   */\n      0x20\n        /* \"#utility.yul\":14293:14302   */\n      dup3\n        /* \"#utility.yul\":14289:14307   */\n      add\n        /* \"#utility.yul\":14281:14307   */\n      swap1\n      pop\n        /* \"#utility.yul\":14317:14412   */\n      tag_578\n        /* \"#utility.yul\":14409:14410   */\n      0x00\n        /* \"#utility.yul\":14398:14407   */\n      dup4\n        /* \"#utility.yul\":14394:14411   */\n      add\n        /* \"#utility.yul\":14385:14391   */\n      dup5\n        /* \"#utility.yul\":14317:14412   */\n      tag_374\n      jump\t// in\n    tag_578:\n        /* \"#utility.yul\":14149:14419   */\n      swap3\n      swap2\n      pop\n      pop\n      jump\t// out\n        /* \"#utility.yul\":14425:14754   */\n    tag_96:\n        /* \"#utility.yul\":14484:14490   */\n      0x00\n        /* \"#utility.yul\":14533:14535   */\n      0x20\n        /* \"#utility.yul\":14521:14530   */\n      dup3\n        /* \"#utility.yul\":14512:14519   */\n      dup5\n        /* \"#utility.yul\":14508:14531   */\n      sub\n        /* \"#utility.yul\":14504:14536   */\n      slt\n        /* \"#utility.yul\":14501:14620   */\n      iszero\n      tag_580\n      jumpi\n        /* \"#utility.yul\":14539:14618   */\n      tag_581\n      tag_326\n      jump\t// in\n    tag_581:\n        /* \"#utility.yul\":14501:14620   */\n    tag_580:\n        /* \"#utility.yul\":14659:14660   */\n      0x00\n        /* \"#utility.yul\":14684:14737   */\n      tag_582\n        /* \"#utility.yul\":14729:14736   */\n      dup5\n        /* \"#utility.yul\":14720:14726   */\n      dup3\n        /* \"#utility.yul\":14709:14718   */\n      dup6\n        /* \"#utility.yul\":14705:14727   */\n      add\n        /* \"#utility.yul\":14684:14737   */\n      tag_352\n      jump\t// in\n    tag_582:\n        /* \"#utility.yul\":14674:14737   */\n      swap2\n      pop\n        /* \"#utility.yul\":14630:14747   */\n      pop\n        /* \"#utility.yul\":14425:14754   */\n      swap3\n      swap2\n      pop\n      pop\n      jump\t// out\n        /* \"#utility.yul\":14760:14878   */\n    tag_375:\n        /* \"#utility.yul\":14847:14871   */\n      tag_584\n        /* \"#utility.yul\":14865:14870   */\n      dup2\n        /* \"#utility.yul\":14847:14871   */\n      tag_350\n      jump\t// in\n    tag_584:\n        /* \"#utility.yul\":14842:14845   */\n      dup3\n        /* \"#utility.yul\":14835:14872   */\n      mstore\n        /* \"#utility.yul\":14760:14878   */\n      pop\n      pop\n      jump\t// out\n        /* \"#utility.yul\":14884:15106   */\n    tag_99:\n        /* \"#utility.yul\":14977:14981   */\n      0x00\n        /* \"#utility.yul\":15015:15017   */\n      0x20\n        /* \"#utility.yul\":15004:15013   */\n      dup3\n        /* \"#utility.yul\":15000:15018   */\n      add\n        /* \"#utility.yul\":14992:15018   */\n      swap1\n      pop\n        /* \"#utility.yul\":15028:15099   */\n      tag_586\n        /* \"#utility.yul\":15096:15097   */\n      0x00\n        /* \"#utility.yul\":15085:15094   */\n      dup4\n        /* \"#utility.yul\":15081:15098   */\n      add\n        /* \"#utility.yul\":15072:15078   */\n      dup5\n        /* \"#utility.yul\":15028:15099   */\n      tag_375\n      jump\t// in\n    tag_586:\n        /* \"#utility.yul\":14884:15106   */\n      swap3\n      swap2\n      pop\n      pop\n      jump\t// out\n        /* \"#utility.yul\":15112:15191   */\n    tag_376:\n        /* \"#utility.yul\":15151:15158   */\n      0x00\n        /* \"#utility.yul\":15180:15185   */\n      dup2\n        /* \"#utility.yul\":15169:15185   */\n      swap1\n      pop\n        /* \"#utility.yul\":15112:15191   */\n      swap2\n      swap1\n      pop\n      jump\t// out\n        /* \"#utility.yul\":15197:15354   */\n    tag_377:\n        /* \"#utility.yul\":15302:15347   */\n      tag_589\n        /* \"#utility.yul\":15322:15346   */\n      tag_590\n        /* \"#utility.yul\":15340:15345   */\n      dup3\n        /* \"#utility.yul\":15322:15346   */\n      tag_328\n      jump\t// in\n    tag_590:\n        /* \"#utility.yul\":15302:15347   */\n      tag_376\n      jump\t// in\n    tag_589:\n        /* \"#utility.yul\":15297:15300   */\n      dup3\n        /* \"#utility.yul\":15290:15348   */\n      mstore\n        /* \"#utility.yul\":15197:15354   */\n      pop\n      pop\n      jump\t// out\n        /* \"#utility.yul\":15360:15616   */\n    tag_102:\n        /* \"#utility.yul\":15472:15475   */\n      0x00\n        /* \"#utility.yul\":15487:15562   */\n      tag_592\n        /* \"#utility.yul\":15558:15561   */\n      dup3\n        /* \"#utility.yul\":15549:15555   */\n      dup5\n        /* \"#utility.yul\":15487:15562   */\n      tag_377\n      jump\t// in\n    tag_592:\n        /* \"#utility.yul\":15587:15589   */\n      0x20\n        /* \"#utility.yul\":15582:15585   */\n      dup3\n        /* \"#utility.yul\":15578:15590   */\n      add\n        /* \"#utility.yul\":15571:15590   */\n      swap2\n      pop\n        /* \"#utility.yul\":15607:15610   */\n      dup2\n        /* \"#utility.yul\":15600:15610   */\n      swap1\n      pop\n        /* \"#utility.yul\":15360:15616   */\n      swap3\n      swap2\n      pop\n      pop\n      jump\t// out\n        /* \"#utility.yul\":15622:15721   */\n    tag_378:\n        /* \"#utility.yul\":15707:15713   */\n      dup3\n        /* \"#utility.yul\":15702:15705   */\n      dup2\n        /* \"#utility.yul\":15697:15700   */\n      dup4\n        /* \"#utility.yul\":15684:15714   */\n      calldatacopy\n        /* \"#utility.yul\":15622:15721   */\n      pop\n      pop\n      pop\n      jump\t// out\n        /* \"#utility.yul\":15759:15931   */\n    tag_379:\n        /* \"#utility.yul\":15882:15925   */\n      tag_595\n        /* \"#utility.yul\":15918:15924   */\n      0x0100\n        /* \"#utility.yul\":15913:15916   */\n      dup4\n        /* \"#utility.yul\":15906:15911   */\n      dup4\n        /* \"#utility.yul\":15882:15925   */\n      tag_378\n      jump\t// in\n    tag_595:\n        /* \"#utility.yul\":15759:15931   */\n      pop\n      pop\n      jump\t// out\n        /* \"#utility.yul\":15969:16139   */\n    tag_380:\n        /* \"#utility.yul\":16092:16133   */\n      tag_597\n        /* \"#utility.yul\":16128:16132   */\n      0xc0\n        /* \"#utility.yul\":16123:16126   */\n      dup4\n        /* \"#utility.yul\":16116:16121   */\n      dup4\n        /* \"#utility.yul\":16092:16133   */\n      tag_378\n      jump\t// in\n    tag_597:\n        /* \"#utility.yul\":15969:16139   */\n      pop\n      pop\n      jump\t// out\n        /* \"#utility.yul\":16145:16671   */\n    tag_105:\n        /* \"#utility.yul\":16362:16366   */\n      0x00\n        /* \"#utility.yul\":16400:16403   */\n      0x01c0\n        /* \"#utility.yul\":16389:16398   */\n      dup3\n        /* \"#utility.yul\":16385:16404   */\n      add\n        /* \"#utility.yul\":16377:16404   */\n      swap1\n      pop\n        /* \"#utility.yul\":16414:16533   */\n      tag_599\n        /* \"#utility.yul\":16530:16531   */\n      0x00\n        /* \"#utility.yul\":16519:16528   */\n      dup4\n        /* \"#utility.yul\":16515:16532   */\n      add\n        /* \"#utility.yul\":16506:16512   */\n      dup6\n        /* \"#utility.yul\":16414:16533   */\n      tag_379\n      jump\t// in\n    tag_599:\n        /* \"#utility.yul\":16543:16664   */\n      tag_600\n        /* \"#utility.yul\":16659:16662   */\n      0x0100\n        /* \"#utility.yul\":16648:16657   */\n      dup4\n        /* \"#utility.yul\":16644:16663   */\n      add\n        /* \"#utility.yul\":16635:16641   */\n      dup5\n        /* \"#utility.yul\":16543:16664   */\n      tag_380\n      jump\t// in\n    tag_600:\n        /* \"#utility.yul\":16145:16671   */\n      swap4\n      swap3\n      pop\n      pop\n      pop\n      jump\t// out\n        /* \"#utility.yul\":16677:16857   */\n    tag_113:\n        /* \"#utility.yul\":16725:16802   */\n      0x4e487b7100000000000000000000000000000000000000000000000000000000\n        /* \"#utility.yul\":16722:16723   */\n      0x00\n        /* \"#utility.yul\":16715:16803   */\n      mstore\n        /* \"#utility.yul\":16822:16826   */\n      0x32\n        /* \"#utility.yul\":16819:16820   */\n      0x04\n        /* \"#utility.yul\":16812:16827   */\n      mstore\n        /* \"#utility.yul\":16846:16850   */\n      0x24\n        /* \"#utility.yul\":16843:16844   */\n      0x00\n        /* \"#utility.yul\":16836:16851   */\n      revert\n        /* \"#utility.yul\":16863:17035   */\n    tag_381:\n        /* \"#utility.yul\":17003:17027   */\n      0x5265706c61792061747461636b20646574656374656400000000000000000000\n        /* \"#utility.yul\":16999:17000   */\n      0x00\n        /* \"#utility.yul\":16991:16997   */\n      dup3\n        /* \"#utility.yul\":16987:17001   */\n      add\n        /* \"#utility.yul\":16980:17028   */\n      mstore\n        /* \"#utility.yul\":16863:17035   */\n      pop\n      jump\t// out\n        /* \"#utility.yul\":17041:17407   */\n    tag_382:\n        /* \"#utility.yul\":17183:17186   */\n      0x00\n        /* \"#utility.yul\":17204:17271   */\n      tag_604\n        /* \"#utility.yul\":17268:17270   */\n      0x16\n        /* \"#utility.yul\":17263:17266   */\n      dup4\n        /* \"#utility.yul\":17204:17271   */\n      tag_367\n      jump\t// in\n    tag_604:\n        /* \"#utility.yul\":17197:17271   */\n      swap2\n      pop\n        /* \"#utility.yul\":17280:17373   */\n      tag_605\n        /* \"#utility.yul\":17369:17372   */\n      dup3\n        /* \"#utility.yul\":17280:17373   */\n      tag_381\n      jump\t// in\n    tag_605:\n        /* \"#utility.yul\":17398:17400   */\n      0x20\n        /* \"#utility.yul\":17393:17396   */\n      dup3\n        /* \"#utility.yul\":17389:17401   */\n      add\n        /* \"#utility.yul\":17382:17401   */\n      swap1\n      pop\n        /* \"#utility.yul\":17041:17407   */\n      swap2\n      swap1\n      pop\n      jump\t// out\n        /* \"#utility.yul\":17413:17832   */\n    tag_122:\n        /* \"#utility.yul\":17579:17583   */\n      0x00\n        /* \"#utility.yul\":17617:17619   */\n      0x20\n        /* \"#utility.yul\":17606:17615   */\n      dup3\n        /* \"#utility.yul\":17602:17620   */\n      add\n        /* \"#utility.yul\":17594:17620   */\n      swap1\n      pop\n        /* \"#utility.yul\":17666:17675   */\n      dup2\n        /* \"#utility.yul\":17660:17664   */\n      dup2\n        /* \"#utility.yul\":17656:17676   */\n      sub\n        /* \"#utility.yul\":17652:17653   */\n      0x00\n        /* \"#utility.yul\":17641:17650   */\n      dup4\n        /* \"#utility.yul\":17637:17654   */\n      add\n        /* \"#utility.yul\":17630:17677   */\n      mstore\n        /* \"#utility.yul\":17694:17825   */\n      tag_607\n        /* \"#utility.yul\":17820:17824   */\n      dup2\n        /* \"#utility.yul\":17694:17825   */\n      tag_382\n      jump\t// in\n    tag_607:\n        /* \"#utility.yul\":17686:17825   */\n      swap1\n      pop\n        /* \"#utility.yul\":17413:17832   */\n      swap2\n      swap1\n      pop\n      jump\t// out\n        /* \"#utility.yul\":17838:17956   */\n    tag_383:\n        /* \"#utility.yul\":17925:17949   */\n      tag_609\n        /* \"#utility.yul\":17943:17948   */\n      dup2\n        /* \"#utility.yul\":17925:17949   */\n      tag_328\n      jump\t// in\n    tag_609:\n        /* \"#utility.yul\":17920:17923   */\n      dup3\n        /* \"#utility.yul\":17913:17950   */\n      mstore\n        /* \"#utility.yul\":17838:17956   */\n      pop\n      pop\n      jump\t// out\n        /* \"#utility.yul\":17962:18606   */\n    tag_124:\n        /* \"#utility.yul\":18159:18163   */\n      0x00\n        /* \"#utility.yul\":18197:18200   */\n      0x80\n        /* \"#utility.yul\":18186:18195   */\n      dup3\n        /* \"#utility.yul\":18182:18201   */\n      add\n        /* \"#utility.yul\":18174:18201   */\n      swap1\n      pop\n        /* \"#utility.yul\":18211:18282   */\n      tag_611\n        /* \"#utility.yul\":18279:18280   */\n      0x00\n        /* \"#utility.yul\":18268:18277   */\n      dup4\n        /* \"#utility.yul\":18264:18281   */\n      add\n        /* \"#utility.yul\":18255:18261   */\n      dup8\n        /* \"#utility.yul\":18211:18282   */\n      tag_344\n      jump\t// in\n    tag_611:\n        /* \"#utility.yul\":18329:18338   */\n      dup2\n        /* \"#utility.yul\":18323:18327   */\n      dup2\n        /* \"#utility.yul\":18319:18339   */\n      sub\n        /* \"#utility.yul\":18314:18316   */\n      0x20\n        /* \"#utility.yul\":18303:18312   */\n      dup4\n        /* \"#utility.yul\":18299:18317   */\n      add\n        /* \"#utility.yul\":18292:18340   */\n      mstore\n        /* \"#utility.yul\":18357:18435   */\n      tag_612\n        /* \"#utility.yul\":18430:18434   */\n      dup2\n        /* \"#utility.yul\":18421:18427   */\n      dup7\n        /* \"#utility.yul\":18357:18435   */\n      tag_368\n      jump\t// in\n    tag_612:\n        /* \"#utility.yul\":18349:18435   */\n      swap1\n      pop\n        /* \"#utility.yul\":18445:18517   */\n      tag_613\n        /* \"#utility.yul\":18513:18515   */\n      0x40\n        /* \"#utility.yul\":18502:18511   */\n      dup4\n        /* \"#utility.yul\":18498:18516   */\n      add\n        /* \"#utility.yul\":18489:18495   */\n      dup6\n        /* \"#utility.yul\":18445:18517   */\n      tag_383\n      jump\t// in\n    tag_613:\n        /* \"#utility.yul\":18527:18599   */\n      tag_614\n        /* \"#utility.yul\":18595:18597   */\n      0x60\n        /* \"#utility.yul\":18584:18593   */\n      dup4\n        /* \"#utility.yul\":18580:18598   */\n      add\n        /* \"#utility.yul\":18571:18577   */\n      dup5\n        /* \"#utility.yul\":18527:18599   */\n      tag_383\n      jump\t// in\n    tag_614:\n        /* \"#utility.yul\":17962:18606   */\n      swap6\n      swap5\n      pop\n      pop\n      pop\n      pop\n      pop\n      jump\t// out\n        /* \"#utility.yul\":18612:19009   */\n    tag_130:\n        /* \"#utility.yul\":18752:18755   */\n      0x00\n        /* \"#utility.yul\":18767:18842   */\n      tag_616\n        /* \"#utility.yul\":18838:18841   */\n      dup3\n        /* \"#utility.yul\":18829:18835   */\n      dup6\n        /* \"#utility.yul\":18767:18842   */\n      tag_377\n      jump\t// in\n    tag_616:\n        /* \"#utility.yul\":18867:18869   */\n      0x20\n        /* \"#utility.yul\":18862:18865   */\n      dup3\n        /* \"#utility.yul\":18858:18870   */\n      add\n        /* \"#utility.yul\":18851:18870   */\n      swap2\n      pop\n        /* \"#utility.yul\":18880:18955   */\n      tag_617\n        /* \"#utility.yul\":18951:18954   */\n      dup3\n        /* \"#utility.yul\":18942:18948   */\n      dup5\n        /* \"#utility.yul\":18880:18955   */\n      tag_377\n      jump\t// in\n    tag_617:\n        /* \"#utility.yul\":18980:18982   */\n      0x20\n        /* \"#utility.yul\":18975:18978   */\n      dup3\n        /* \"#utility.yul\":18971:18983   */\n      add\n        /* \"#utility.yul\":18964:18983   */\n      swap2\n      pop\n        /* \"#utility.yul\":19000:19003   */\n      dup2\n        /* \"#utility.yul\":18993:19003   */\n      swap1\n      pop\n        /* \"#utility.yul\":18612:19009   */\n      swap4\n      swap3\n      pop\n      pop\n      pop\n      jump\t// out\n        /* \"#utility.yul\":19015:19189   */\n    tag_384:\n        /* \"#utility.yul\":19155:19181   */\n      0x496e76616c6964207369676e6174757265206c656e6774680000000000000000\n        /* \"#utility.yul\":19151:19152   */\n      0x00\n        /* \"#utility.yul\":19143:19149   */\n      dup3\n        /* \"#utility.yul\":19139:19153   */\n      add\n        /* \"#utility.yul\":19132:19182   */\n      mstore\n        /* \"#utility.yul\":19015:19189   */\n      pop\n      jump\t// out\n        /* \"#utility.yul\":19195:19561   */\n    tag_385:\n        /* \"#utility.yul\":19337:19340   */\n      0x00\n        /* \"#utility.yul\":19358:19425   */\n      tag_620\n        /* \"#utility.yul\":19422:19424   */\n      0x18\n        /* \"#utility.yul\":19417:19420   */\n      dup4\n        /* \"#utility.yul\":19358:19425   */\n      tag_367\n      jump\t// in\n    tag_620:\n        /* \"#utility.yul\":19351:19425   */\n      swap2\n      pop\n        /* \"#utility.yul\":19434:19527   */\n      tag_621\n        /* \"#utility.yul\":19523:19526   */\n      dup3\n        /* \"#utility.yul\":19434:19527   */\n      tag_384\n      jump\t// in\n    tag_621:\n        /* \"#utility.yul\":19552:19554   */\n      0x20\n        /* \"#utility.yul\":19547:19550   */\n      dup3\n        /* \"#utility.yul\":19543:19555   */\n      add\n        /* \"#utility.yul\":19536:19555   */\n      swap1\n      pop\n        /* \"#utility.yul\":19195:19561   */\n      swap2\n      swap1\n      pop\n      jump\t// out\n        /* \"#utility.yul\":19567:19986   */\n    tag_142:\n        /* \"#utility.yul\":19733:19737   */\n      0x00\n        /* \"#utility.yul\":19771:19773   */\n      0x20\n        /* \"#utility.yul\":19760:19769   */\n      dup3\n        /* \"#utility.yul\":19756:19774   */\n      add\n        /* \"#utility.yul\":19748:19774   */\n      swap1\n      pop\n        /* \"#utility.yul\":19820:19829   */\n      dup2\n        /* \"#utility.yul\":19814:19818   */\n      dup2\n        /* \"#utility.yul\":19810:19830   */\n      sub\n        /* \"#utility.yul\":19806:19807   */\n      0x00\n        /* \"#utility.yul\":19795:19804   */\n      dup4\n        /* \"#utility.yul\":19791:19808   */\n      add\n        /* \"#utility.yul\":19784:19831   */\n      mstore\n        /* \"#utility.yul\":19848:19979   */\n      tag_623\n        /* \"#utility.yul\":19974:19978   */\n      dup2\n        /* \"#utility.yul\":19848:19979   */\n      tag_385\n      jump\t// in\n    tag_623:\n        /* \"#utility.yul\":19840:19979   */\n      swap1\n      pop\n        /* \"#utility.yul\":19567:19986   */\n      swap2\n      swap1\n      pop\n      jump\t// out\n        /* \"#utility.yul\":19992:20078   */\n    tag_386:\n        /* \"#utility.yul\":20027:20034   */\n      0x00\n        /* \"#utility.yul\":20067:20071   */\n      0xff\n        /* \"#utility.yul\":20060:20065   */\n      dup3\n        /* \"#utility.yul\":20056:20072   */\n      and\n        /* \"#utility.yul\":20045:20072   */\n      swap1\n      pop\n        /* \"#utility.yul\":19992:20078   */\n      swap2\n      swap1\n      pop\n      jump\t// out\n        /* \"#utility.yul\":20084:20196   */\n    tag_387:\n        /* \"#utility.yul\":20167:20189   */\n      tag_626\n        /* \"#utility.yul\":20183:20188   */\n      dup2\n        /* \"#utility.yul\":20167:20189   */\n      tag_386\n      jump\t// in\n    tag_626:\n        /* \"#utility.yul\":20162:20165   */\n      dup3\n        /* \"#utility.yul\":20155:20190   */\n      mstore\n        /* \"#utility.yul\":20084:20196   */\n      pop\n      pop\n      jump\t// out\n        /* \"#utility.yul\":20202:20747   */\n    tag_144:\n        /* \"#utility.yul\":20375:20379   */\n      0x00\n        /* \"#utility.yul\":20413:20416   */\n      0x80\n        /* \"#utility.yul\":20402:20411   */\n      dup3\n        /* \"#utility.yul\":20398:20417   */\n      add\n        /* \"#utility.yul\":20390:20417   */\n      swap1\n      pop\n        /* \"#utility.yul\":20427:20498   */\n      tag_628\n        /* \"#utility.yul\":20495:20496   */\n      0x00\n        /* \"#utility.yul\":20484:20493   */\n      dup4\n        /* \"#utility.yul\":20480:20497   */\n      add\n        /* \"#utility.yul\":20471:20477   */\n      dup8\n        /* \"#utility.yul\":20427:20498   */\n      tag_375\n      jump\t// in\n    tag_628:\n        /* \"#utility.yul\":20508:20576   */\n      tag_629\n        /* \"#utility.yul\":20572:20574   */\n      0x20\n        /* \"#utility.yul\":20561:20570   */\n      dup4\n        /* \"#utility.yul\":20557:20575   */\n      add\n        /* \"#utility.yul\":20548:20554   */\n      dup7\n        /* \"#utility.yul\":20508:20576   */\n      tag_387\n      jump\t// in\n    tag_629:\n        /* \"#utility.yul\":20586:20658   */\n      tag_630\n        /* \"#utility.yul\":20654:20656   */\n      0x40\n        /* \"#utility.yul\":20643:20652   */\n      dup4\n        /* \"#utility.yul\":20639:20657   */\n      add\n        /* \"#utility.yul\":20630:20636   */\n      dup6\n        /* \"#utility.yul\":20586:20658   */\n      tag_375\n      jump\t// in\n    tag_630:\n        /* \"#utility.yul\":20668:20740   */\n      tag_631\n        /* \"#utility.yul\":20736:20738   */\n      0x60\n        /* \"#utility.yul\":20725:20734   */\n      dup4\n        /* \"#utility.yul\":20721:20739   */\n      add\n        /* \"#utility.yul\":20712:20718   */\n      dup5\n        /* \"#utility.yul\":20668:20740   */\n      tag_375\n      jump\t// in\n    tag_631:\n        /* \"#utility.yul\":20202:20747   */\n      swap6\n      swap5\n      pop\n      pop\n      pop\n      pop\n      pop\n      jump\t// out\n        /* \"#utility.yul\":20753:20933   */\n    tag_388:\n        /* \"#utility.yul\":20801:20878   */\n      0x4e487b7100000000000000000000000000000000000000000000000000000000\n        /* \"#utility.yul\":20798:20799   */\n      0x00\n        /* \"#utility.yul\":20791:20879   */\n      mstore\n        /* \"#utility.yul\":20898:20902   */\n      0x11\n        /* \"#utility.yul\":20895:20896   */\n      0x04\n        /* \"#utility.yul\":20888:20903   */\n      mstore\n        /* \"#utility.yul\":20922:20926   */\n      0x24\n        /* \"#utility.yul\":20919:20920   */\n      0x00\n        /* \"#utility.yul\":20912:20927   */\n      revert\n        /* \"#utility.yul\":20939:21106   */\n    tag_155:\n        /* \"#utility.yul\":20976:20979   */\n      0x00\n        /* \"#utility.yul\":20999:21021   */\n      tag_634\n        /* \"#utility.yul\":21015:21020   */\n      dup3\n        /* \"#utility.yul\":20999:21021   */\n      tag_386\n      jump\t// in\n    tag_634:\n        /* \"#utility.yul\":20990:21021   */\n      swap2\n      pop\n        /* \"#utility.yul\":21043:21047   */\n      0xff\n        /* \"#utility.yul\":21036:21041   */\n      dup3\n        /* \"#utility.yul\":21033:21048   */\n      sub\n        /* \"#utility.yul\":21030:21071   */\n      tag_635\n      jumpi\n        /* \"#utility.yul\":21051:21069   */\n      tag_636\n      tag_388\n      jump\t// in\n    tag_636:\n        /* \"#utility.yul\":21030:21071   */\n    tag_635:\n        /* \"#utility.yul\":21098:21099   */\n      0x01\n        /* \"#utility.yul\":21091:21096   */\n      dup3\n        /* \"#utility.yul\":21087:21100   */\n      add\n        /* \"#utility.yul\":21080:21100   */\n      swap1\n      pop\n        /* \"#utility.yul\":20939:21106   */\n      swap2\n      swap1\n      pop\n      jump\t// out\n        /* \"#utility.yul\":21112:21279   */\n    tag_162:\n        /* \"#utility.yul\":21149:21152   */\n      0x00\n        /* \"#utility.yul\":21172:21194   */\n      tag_638\n        /* \"#utility.yul\":21188:21193   */\n      dup3\n        /* \"#utility.yul\":21172:21194   */\n      tag_386\n      jump\t// in\n    tag_638:\n        /* \"#utility.yul\":21163:21194   */\n      swap2\n      pop\n        /* \"#utility.yul\":21216:21220   */\n      0x00\n        /* \"#utility.yul\":21209:21214   */\n      dup3\n        /* \"#utility.yul\":21206:21221   */\n      sub\n        /* \"#utility.yul\":21203:21244   */\n      tag_639\n      jumpi\n        /* \"#utility.yul\":21224:21242   */\n      tag_640\n      tag_388\n      jump\t// in\n    tag_640:\n        /* \"#utility.yul\":21203:21244   */\n    tag_639:\n        /* \"#utility.yul\":21271:21272   */\n      0x01\n        /* \"#utility.yul\":21264:21269   */\n      dup3\n        /* \"#utility.yul\":21260:21273   */\n      sub\n        /* \"#utility.yul\":21253:21273   */\n      swap1\n      pop\n        /* \"#utility.yul\":21112:21279   */\n      swap2\n      swap1\n      pop\n      jump\t// out\n        /* \"#utility.yul\":21285:21476   */\n    tag_164:\n        /* \"#utility.yul\":21323:21327   */\n      0x00\n        /* \"#utility.yul\":21343:21361   */\n      tag_642\n        /* \"#utility.yul\":21359:21360   */\n      dup3\n        /* \"#utility.yul\":21343:21361   */\n      tag_386\n      jump\t// in\n    tag_642:\n        /* \"#utility.yul\":21338:21361   */\n      swap2\n      pop\n        /* \"#utility.yul\":21375:21393   */\n      tag_643\n        /* \"#utility.yul\":21391:21392   */\n      dup4\n        /* \"#utility.yul\":21375:21393   */\n      tag_386\n      jump\t// in\n    tag_643:\n        /* \"#utility.yul\":21370:21393   */\n      swap3\n      pop\n        /* \"#utility.yul\":21417:21418   */\n      dup3\n        /* \"#utility.yul\":21414:21415   */\n      dup3\n        /* \"#utility.yul\":21410:21419   */\n      sub\n        /* \"#utility.yul\":21402:21419   */\n      swap1\n      pop\n        /* \"#utility.yul\":21441:21445   */\n      0xff\n        /* \"#utility.yul\":21435:21439   */\n      dup2\n        /* \"#utility.yul\":21432:21446   */\n      gt\n        /* \"#utility.yul\":21429:21469   */\n      iszero\n      tag_644\n      jumpi\n        /* \"#utility.yul\":21449:21467   */\n      tag_645\n      tag_388\n      jump\t// in\n    tag_645:\n        /* \"#utility.yul\":21429:21469   */\n    tag_644:\n        /* \"#utility.yul\":21285:21476   */\n      swap3\n      swap2\n      pop\n      pop\n      jump\t// out\n        /* \"#utility.yul\":21482:21670   */\n    tag_166:\n        /* \"#utility.yul\":21520:21523   */\n      0x00\n        /* \"#utility.yul\":21539:21557   */\n      tag_647\n        /* \"#utility.yul\":21555:21556   */\n      dup3\n        /* \"#utility.yul\":21539:21557   */\n      tag_386\n      jump\t// in\n    tag_647:\n        /* \"#utility.yul\":21534:21557   */\n      swap2\n      pop\n        /* \"#utility.yul\":21571:21589   */\n      tag_648\n        /* \"#utility.yul\":21587:21588   */\n      dup4\n        /* \"#utility.yul\":21571:21589   */\n      tag_386\n      jump\t// in\n    tag_648:\n        /* \"#utility.yul\":21566:21589   */\n      swap3\n      pop\n        /* \"#utility.yul\":21612:21613   */\n      dup3\n        /* \"#utility.yul\":21609:21610   */\n      dup3\n        /* \"#utility.yul\":21605:21614   */\n      add\n        /* \"#utility.yul\":21598:21614   */\n      swap1\n      pop\n        /* \"#utility.yul\":21635:21639   */\n      0xff\n        /* \"#utility.yul\":21630:21633   */\n      dup2\n        /* \"#utility.yul\":21627:21640   */\n      gt\n        /* \"#utility.yul\":21624:21663   */\n      iszero\n      tag_649\n      jumpi\n        /* \"#utility.yul\":21643:21661   */\n      tag_650\n      tag_388\n      jump\t// in\n    tag_650:\n        /* \"#utility.yul\":21624:21663   */\n    tag_649:\n        /* \"#utility.yul\":21482:21670   */\n      swap3\n      swap2\n      pop\n      pop\n      jump\t// out\n        /* \"#utility.yul\":21676:21867   */\n    tag_175:\n        /* \"#utility.yul\":21716:21719   */\n      0x00\n        /* \"#utility.yul\":21735:21755   */\n      tag_652\n        /* \"#utility.yul\":21753:21754   */\n      dup3\n        /* \"#utility.yul\":21735:21755   */\n      tag_328\n      jump\t// in\n    tag_652:\n        /* \"#utility.yul\":21730:21755   */\n      swap2\n      pop\n        /* \"#utility.yul\":21769:21789   */\n      tag_653\n        /* \"#utility.yul\":21787:21788   */\n      dup4\n        /* \"#utility.yul\":21769:21789   */\n      tag_328\n      jump\t// in\n    tag_653:\n        /* \"#utility.yul\":21764:21789   */\n      swap3\n      pop\n        /* \"#utility.yul\":21812:21813   */\n      dup3\n        /* \"#utility.yul\":21809:21810   */\n      dup3\n        /* \"#utility.yul\":21805:21814   */\n      add\n        /* \"#utility.yul\":21798:21814   */\n      swap1\n      pop\n        /* \"#utility.yul\":21833:21836   */\n      dup1\n        /* \"#utility.yul\":21830:21831   */\n      dup3\n        /* \"#utility.yul\":21827:21837   */\n      gt\n        /* \"#utility.yul\":21824:21860   */\n      iszero\n      tag_654\n      jumpi\n        /* \"#utility.yul\":21840:21858   */\n      tag_655\n      tag_388\n      jump\t// in\n    tag_655:\n        /* \"#utility.yul\":21824:21860   */\n    tag_654:\n        /* \"#utility.yul\":21676:21867   */\n      swap3\n      swap2\n      pop\n      pop\n      jump\t// out\n        /* \"#utility.yul\":21873:22046   */\n    tag_389:\n        /* \"#utility.yul\":22013:22038   */\n      0x57726f6e672064657374696e6174696f6e20636861696e000000000000000000\n        /* \"#utility.yul\":22009:22010   */\n      0x00\n        /* \"#utility.yul\":22001:22007   */\n      dup3\n        /* \"#utility.yul\":21997:22011   */\n      add\n        /* \"#utility.yul\":21990:22039   */\n      mstore\n        /* \"#utility.yul\":21873:22046   */\n      pop\n      jump\t// out\n        /* \"#utility.yul\":22052:22418   */\n    tag_390:\n        /* \"#utility.yul\":22194:22197   */\n      0x00\n        /* \"#utility.yul\":22215:22282   */\n      tag_658\n        /* \"#utility.yul\":22279:22281   */\n      0x17\n        /* \"#utility.yul\":22274:22277   */\n      dup4\n        /* \"#utility.yul\":22215:22282   */\n      tag_367\n      jump\t// in\n    tag_658:\n        /* \"#utility.yul\":22208:22282   */\n      swap2\n      pop\n        /* \"#utility.yul\":22291:22384   */\n      tag_659\n        /* \"#utility.yul\":22380:22383   */\n      dup3\n        /* \"#utility.yul\":22291:22384   */\n      tag_389\n      jump\t// in\n    tag_659:\n        /* \"#utility.yul\":22409:22411   */\n      0x20\n        /* \"#utility.yul\":22404:22407   */\n      dup3\n        /* \"#utility.yul\":22400:22412   */\n      add\n        /* \"#utility.yul\":22393:22412   */\n      swap1\n      pop\n        /* \"#utility.yul\":22052:22418   */\n      swap2\n      swap1\n      pop\n      jump\t// out\n        /* \"#utility.yul\":22424:22843   */\n    tag_189:\n        /* \"#utility.yul\":22590:22594   */\n      0x00\n        /* \"#utility.yul\":22628:22630   */\n      0x20\n        /* \"#utility.yul\":22617:22626   */\n      dup3\n        /* \"#utility.yul\":22613:22631   */\n      add\n        /* \"#utility.yul\":22605:22631   */\n      swap1\n      pop\n        /* \"#utility.yul\":22677:22686   */\n      dup2\n        /* \"#utility.yul\":22671:22675   */\n      dup2\n        /* \"#utility.yul\":22667:22687   */\n      sub\n        /* \"#utility.yul\":22663:22664   */\n      0x00\n        /* \"#utility.yul\":22652:22661   */\n      dup4\n        /* \"#utility.yul\":22648:22665   */\n      add\n        /* \"#utility.yul\":22641:22688   */\n      mstore\n        /* \"#utility.yul\":22705:22836   */\n      tag_661\n        /* \"#utility.yul\":22831:22835   */\n      dup2\n        /* \"#utility.yul\":22705:22836   */\n      tag_390\n      jump\t// in\n    tag_661:\n        /* \"#utility.yul\":22697:22836   */\n      swap1\n      pop\n        /* \"#utility.yul\":22424:22843   */\n      swap2\n      swap1\n      pop\n      jump\t// out\n        /* \"#utility.yul\":22849:23560   */\n    tag_231:\n        /* \"#utility.yul\":23056:23060   */\n      0x00\n        /* \"#utility.yul\":23094:23096   */\n      0x60\n        /* \"#utility.yul\":23083:23092   */\n      dup3\n        /* \"#utility.yul\":23079:23097   */\n      add\n        /* \"#utility.yul\":23071:23097   */\n      swap1\n      pop\n        /* \"#utility.yul\":23143:23152   */\n      dup2\n        /* \"#utility.yul\":23137:23141   */\n      dup2\n        /* \"#utility.yul\":23133:23153   */\n      sub\n        /* \"#utility.yul\":23129:23130   */\n      0x00\n        /* \"#utility.yul\":23118:23127   */\n      dup4\n        /* \"#utility.yul\":23114:23131   */\n      add\n        /* \"#utility.yul\":23107:23154   */\n      mstore\n        /* \"#utility.yul\":23171:23249   */\n      tag_663\n        /* \"#utility.yul\":23244:23248   */\n      dup2\n        /* \"#utility.yul\":23235:23241   */\n      dup7\n        /* \"#utility.yul\":23171:23249   */\n      tag_368\n      jump\t// in\n    tag_663:\n        /* \"#utility.yul\":23163:23249   */\n      swap1\n      pop\n        /* \"#utility.yul\":23296:23305   */\n      dup2\n        /* \"#utility.yul\":23290:23294   */\n      dup2\n        /* \"#utility.yul\":23286:23306   */\n      sub\n        /* \"#utility.yul\":23281:23283   */\n      0x20\n        /* \"#utility.yul\":23270:23279   */\n      dup4\n        /* \"#utility.yul\":23266:23284   */\n      add\n        /* \"#utility.yul\":23259:23307   */\n      mstore\n        /* \"#utility.yul\":23324:23402   */\n      tag_664\n        /* \"#utility.yul\":23397:23401   */\n      dup2\n        /* \"#utility.yul\":23388:23394   */\n      dup6\n        /* \"#utility.yul\":23324:23402   */\n      tag_368\n      jump\t// in\n    tag_664:\n        /* \"#utility.yul\":23316:23402   */\n      swap1\n      pop\n        /* \"#utility.yul\":23449:23458   */\n      dup2\n        /* \"#utility.yul\":23443:23447   */\n      dup2\n        /* \"#utility.yul\":23439:23459   */\n      sub\n        /* \"#utility.yul\":23434:23436   */\n      0x40\n        /* \"#utility.yul\":23423:23432   */\n      dup4\n        /* \"#utility.yul\":23419:23437   */\n      add\n        /* \"#utility.yul\":23412:23460   */\n      mstore\n        /* \"#utility.yul\":23477:23553   */\n      tag_665\n        /* \"#utility.yul\":23548:23552   */\n      dup2\n        /* \"#utility.yul\":23539:23545   */\n      dup5\n        /* \"#utility.yul\":23477:23553   */\n      tag_335\n      jump\t// in\n    tag_665:\n        /* \"#utility.yul\":23469:23553   */\n      swap1\n      pop\n        /* \"#utility.yul\":22849:23560   */\n      swap5\n      swap4\n      pop\n      pop\n      pop\n      pop\n      jump\t// out\n        /* \"#utility.yul\":23566:23714   */\n    tag_391:\n        /* \"#utility.yul\":23668:23679   */\n      0x00\n        /* \"#utility.yul\":23705:23708   */\n      dup2\n        /* \"#utility.yul\":23690:23708   */\n      swap1\n      pop\n        /* \"#utility.yul\":23566:23714   */\n      swap3\n      swap2\n      pop\n      pop\n      jump\t// out\n        /* \"#utility.yul\":23720:23934   */\n    tag_392:\n        /* \"#utility.yul\":23860:23926   */\n      0x19457468657265756d205369676e6564204d6573736167653a0a333200000000\n        /* \"#utility.yul\":23856:23857   */\n      0x00\n        /* \"#utility.yul\":23848:23854   */\n      dup3\n        /* \"#utility.yul\":23844:23858   */\n      add\n        /* \"#utility.yul\":23837:23927   */\n      mstore\n        /* \"#utility.yul\":23720:23934   */\n      pop\n      jump\t// out\n        /* \"#utility.yul\":23940:24342   */\n    tag_393:\n        /* \"#utility.yul\":24100:24103   */\n      0x00\n        /* \"#utility.yul\":24121:24206   */\n      tag_669\n        /* \"#utility.yul\":24203:24205   */\n      0x1c\n        /* \"#utility.yul\":24198:24201   */\n      dup4\n        /* \"#utility.yul\":24121:24206   */\n      tag_391\n      jump\t// in\n    tag_669:\n        /* \"#utility.yul\":24114:24206   */\n      swap2\n      pop\n        /* \"#utility.yul\":24215:24308   */\n      tag_670\n        /* \"#utility.yul\":24304:24307   */\n      dup3\n        /* \"#utility.yul\":24215:24308   */\n      tag_392\n      jump\t// in\n    tag_670:\n        /* \"#utility.yul\":24333:24335   */\n      0x1c\n        /* \"#utility.yul\":24328:24331   */\n      dup3\n        /* \"#utility.yul\":24324:24336   */\n      add\n        /* \"#utility.yul\":24317:24336   */\n      swap1\n      pop\n        /* \"#utility.yul\":23940:24342   */\n      swap2\n      swap1\n      pop\n      jump\t// out\n        /* \"#utility.yul\":24348:24427   */\n    tag_394:\n        /* \"#utility.yul\":24387:24394   */\n      0x00\n        /* \"#utility.yul\":24416:24421   */\n      dup2\n        /* \"#utility.yul\":24405:24421   */\n      swap1\n      pop\n        /* \"#utility.yul\":24348:24427   */\n      swap2\n      swap1\n      pop\n      jump\t// out\n        /* \"#utility.yul\":24433:24590   */\n    tag_395:\n        /* \"#utility.yul\":24538:24583   */\n      tag_673\n        /* \"#utility.yul\":24558:24582   */\n      tag_674\n        /* \"#utility.yul\":24576:24581   */\n      dup3\n        /* \"#utility.yul\":24558:24582   */\n      tag_350\n      jump\t// in\n    tag_674:\n        /* \"#utility.yul\":24538:24583   */\n      tag_394\n      jump\t// in\n    tag_673:\n        /* \"#utility.yul\":24533:24536   */\n      dup3\n        /* \"#utility.yul\":24526:24584   */\n      mstore\n        /* \"#utility.yul\":24433:24590   */\n      pop\n      pop\n      jump\t// out\n        /* \"#utility.yul\":24596:25118   */\n    tag_237:\n        /* \"#utility.yul\":24809:24812   */\n      0x00\n        /* \"#utility.yul\":24831:24979   */\n      tag_676\n        /* \"#utility.yul\":24975:24978   */\n      dup3\n        /* \"#utility.yul\":24831:24979   */\n      tag_393\n      jump\t// in\n    tag_676:\n        /* \"#utility.yul\":24824:24979   */\n      swap2\n      pop\n        /* \"#utility.yul\":24989:25064   */\n      tag_677\n        /* \"#utility.yul\":25060:25063   */\n      dup3\n        /* \"#utility.yul\":25051:25057   */\n      dup5\n        /* \"#utility.yul\":24989:25064   */\n      tag_395\n      jump\t// in\n    tag_677:\n        /* \"#utility.yul\":25089:25091   */\n      0x20\n        /* \"#utility.yul\":25084:25087   */\n      dup3\n        /* \"#utility.yul\":25080:25092   */\n      add\n        /* \"#utility.yul\":25073:25092   */\n      swap2\n      pop\n        /* \"#utility.yul\":25109:25112   */\n      dup2\n        /* \"#utility.yul\":25102:25112   */\n      swap1\n      pop\n        /* \"#utility.yul\":24596:25118   */\n      swap3\n      swap2\n      pop\n      pop\n      jump\t// out\n        /* \"#utility.yul\":25124:25514   */\n    tag_396:\n        /* \"#utility.yul\":25230:25233   */\n      0x00\n        /* \"#utility.yul\":25258:25297   */\n      tag_679\n        /* \"#utility.yul\":25291:25296   */\n      dup3\n        /* \"#utility.yul\":25258:25297   */\n      tag_366\n      jump\t// in\n    tag_679:\n        /* \"#utility.yul\":25313:25402   */\n      tag_680\n        /* \"#utility.yul\":25395:25401   */\n      dup2\n        /* \"#utility.yul\":25390:25393   */\n      dup6\n        /* \"#utility.yul\":25313:25402   */\n      tag_391\n      jump\t// in\n    tag_680:\n        /* \"#utility.yul\":25306:25402   */\n      swap4\n      pop\n        /* \"#utility.yul\":25411:25476   */\n      tag_681\n        /* \"#utility.yul\":25469:25475   */\n      dup2\n        /* \"#utility.yul\":25464:25467   */\n      dup6\n        /* \"#utility.yul\":25457:25461   */\n      0x20\n        /* \"#utility.yul\":25450:25455   */\n      dup7\n        /* \"#utility.yul\":25446:25462   */\n      add\n        /* \"#utility.yul\":25411:25476   */\n      tag_333\n      jump\t// in\n    tag_681:\n        /* \"#utility.yul\":25501:25507   */\n      dup1\n        /* \"#utility.yul\":25496:25499   */\n      dup5\n        /* \"#utility.yul\":25492:25508   */\n      add\n        /* \"#utility.yul\":25485:25508   */\n      swap2\n      pop\n        /* \"#utility.yul\":25234:25514   */\n      pop\n        /* \"#utility.yul\":25124:25514   */\n      swap3\n      swap2\n      pop\n      pop\n      jump\t// out\n        /* \"#utility.yul\":25520:25676   */\n    tag_397:\n        /* \"#utility.yul\":25660:25668   */\n      0x5f7661756c740000000000000000000000000000000000000000000000000000\n        /* \"#utility.yul\":25656:25657   */\n      0x00\n        /* \"#utility.yul\":25648:25654   */\n      dup3\n        /* \"#utility.yul\":25644:25658   */\n      add\n        /* \"#utility.yul\":25637:25669   */\n      mstore\n        /* \"#utility.yul\":25520:25676   */\n      pop\n      jump\t// out\n        /* \"#utility.yul\":25682:26082   */\n    tag_398:\n        /* \"#utility.yul\":25842:25845   */\n      0x00\n        /* \"#utility.yul\":25863:25947   */\n      tag_684\n        /* \"#utility.yul\":25945:25946   */\n      0x06\n        /* \"#utility.yul\":25940:25943   */\n      dup4\n        /* \"#utility.yul\":25863:25947   */\n      tag_391\n      jump\t// in\n    tag_684:\n        /* \"#utility.yul\":25856:25947   */\n      swap2\n      pop\n        /* \"#utility.yul\":25956:26049   */\n      tag_685\n        /* \"#utility.yul\":26045:26048   */\n      dup3\n        /* \"#utility.yul\":25956:26049   */\n      tag_397\n      jump\t// in\n    tag_685:\n        /* \"#utility.yul\":26074:26075   */\n      0x06\n        /* \"#utility.yul\":26069:26072   */\n      dup3\n        /* \"#utility.yul\":26065:26076   */\n      add\n        /* \"#utility.yul\":26058:26076   */\n      swap1\n      pop\n        /* \"#utility.yul\":25682:26082   */\n      swap2\n      swap1\n      pop\n      jump\t// out\n        /* \"#utility.yul\":26088:26629   */\n    tag_248:\n        /* \"#utility.yul\":26321:26324   */\n      0x00\n        /* \"#utility.yul\":26343:26438   */\n      tag_687\n        /* \"#utility.yul\":26434:26437   */\n      dup3\n        /* \"#utility.yul\":26425:26431   */\n      dup5\n        /* \"#utility.yul\":26343:26438   */\n      tag_396\n      jump\t// in\n    tag_687:\n        /* \"#utility.yul\":26336:26438   */\n      swap2\n      pop\n        /* \"#utility.yul\":26455:26603   */\n      tag_688\n        /* \"#utility.yul\":26599:26602   */\n      dup3\n        /* \"#utility.yul\":26455:26603   */\n      tag_398\n      jump\t// in\n    tag_688:\n        /* \"#utility.yul\":26448:26603   */\n      swap2\n      pop\n        /* \"#utility.yul\":26620:26623   */\n      dup2\n        /* \"#utility.yul\":26613:26623   */\n      swap1\n      pop\n        /* \"#utility.yul\":26088:26629   */\n      swap3\n      swap2\n      pop\n      pop\n      jump\t// out\n        /* \"#utility.yul\":26635:26800   */\n    tag_399:\n        /* \"#utility.yul\":26775:26792   */\n      0x5169617261426173654173736574730000000000000000000000000000000000\n        /* \"#utility.yul\":26771:26772   */\n      0x00\n        /* \"#utility.yul\":26763:26769   */\n      dup3\n        /* \"#utility.yul\":26759:26773   */\n      add\n        /* \"#utility.yul\":26752:26793   */\n      mstore\n        /* \"#utility.yul\":26635:26800   */\n      pop\n      jump\t// out\n        /* \"#utility.yul\":26806:27172   */\n    tag_400:\n        /* \"#utility.yul\":26948:26951   */\n      0x00\n        /* \"#utility.yul\":26969:27036   */\n      tag_691\n        /* \"#utility.yul\":27033:27035   */\n      0x0f\n        /* \"#utility.yul\":27028:27031   */\n      dup4\n        /* \"#utility.yul\":26969:27036   */\n      tag_367\n      jump\t// in\n    tag_691:\n        /* \"#utility.yul\":26962:27036   */\n      swap2\n      pop\n        /* \"#utility.yul\":27045:27138   */\n      tag_692\n        /* \"#utility.yul\":27134:27137   */\n      dup3\n        /* \"#utility.yul\":27045:27138   */\n      tag_399\n      jump\t// in\n    tag_692:\n        /* \"#utility.yul\":27163:27165   */\n      0x20\n        /* \"#utility.yul\":27158:27161   */\n      dup3\n        /* \"#utility.yul\":27154:27166   */\n      add\n        /* \"#utility.yul\":27147:27166   */\n      swap1\n      pop\n        /* \"#utility.yul\":26806:27172   */\n      swap2\n      swap1\n      pop\n      jump\t// out\n        /* \"#utility.yul\":27178:27798   */\n    tag_250:\n        /* \"#utility.yul\":27392:27396   */\n      0x00\n        /* \"#utility.yul\":27430:27432   */\n      0x40\n        /* \"#utility.yul\":27419:27428   */\n      dup3\n        /* \"#utility.yul\":27415:27433   */\n      add\n        /* \"#utility.yul\":27407:27433   */\n      swap1\n      pop\n        /* \"#utility.yul\":27479:27488   */\n      dup2\n        /* \"#utility.yul\":27473:27477   */\n      dup2\n        /* \"#utility.yul\":27469:27489   */\n      sub\n        /* \"#utility.yul\":27465:27466   */\n      0x00\n        /* \"#utility.yul\":27454:27463   */\n      dup4\n        /* \"#utility.yul\":27450:27467   */\n      add\n        /* \"#utility.yul\":27443:27490   */\n      mstore\n        /* \"#utility.yul\":27507:27638   */\n      tag_694\n        /* \"#utility.yul\":27633:27637   */\n      dup2\n        /* \"#utility.yul\":27507:27638   */\n      tag_400\n      jump\t// in\n    tag_694:\n        /* \"#utility.yul\":27499:27638   */\n      swap1\n      pop\n        /* \"#utility.yul\":27685:27694   */\n      dup2\n        /* \"#utility.yul\":27679:27683   */\n      dup2\n        /* \"#utility.yul\":27675:27695   */\n      sub\n        /* \"#utility.yul\":27670:27672   */\n      0x20\n        /* \"#utility.yul\":27659:27668   */\n      dup4\n        /* \"#utility.yul\":27655:27673   */\n      add\n        /* \"#utility.yul\":27648:27696   */\n      mstore\n        /* \"#utility.yul\":27713:27791   */\n      tag_695\n        /* \"#utility.yul\":27786:27790   */\n      dup2\n        /* \"#utility.yul\":27777:27783   */\n      dup5\n        /* \"#utility.yul\":27713:27791   */\n      tag_368\n      jump\t// in\n    tag_695:\n        /* \"#utility.yul\":27705:27791   */\n      swap1\n      pop\n        /* \"#utility.yul\":27178:27798   */\n      swap3\n      swap2\n      pop\n      pop\n      jump\t// out\n        /* \"#utility.yul\":27804:28236   */\n    tag_401:\n        /* \"#utility.yul\":27892:27897   */\n      0x00\n        /* \"#utility.yul\":27917:27982   */\n      tag_697\n        /* \"#utility.yul\":27933:27981   */\n      tag_698\n        /* \"#utility.yul\":27974:27980   */\n      dup5\n        /* \"#utility.yul\":27933:27981   */\n      tag_356\n      jump\t// in\n    tag_698:\n        /* \"#utility.yul\":27917:27982   */\n      tag_355\n      jump\t// in\n    tag_697:\n        /* \"#utility.yul\":27908:27982   */\n      swap1\n      pop\n        /* \"#utility.yul\":28005:28011   */\n      dup3\n        /* \"#utility.yul\":27998:28003   */\n      dup2\n        /* \"#utility.yul\":27991:28012   */\n      mstore\n        /* \"#utility.yul\":28043:28047   */\n      0x20\n        /* \"#utility.yul\":28036:28041   */\n      dup2\n        /* \"#utility.yul\":28032:28048   */\n      add\n        /* \"#utility.yul\":28081:28084   */\n      dup5\n        /* \"#utility.yul\":28072:28078   */\n      dup5\n        /* \"#utility.yul\":28067:28070   */\n      dup5\n        /* \"#utility.yul\":28063:28079   */\n      add\n        /* \"#utility.yul\":28060:28085   */\n      gt\n        /* \"#utility.yul\":28057:28169   */\n      iszero\n      tag_699\n      jumpi\n        /* \"#utility.yul\":28088:28167   */\n      tag_700\n      tag_353\n      jump\t// in\n    tag_700:\n        /* \"#utility.yul\":28057:28169   */\n    tag_699:\n        /* \"#utility.yul\":28178:28230   */\n      tag_701\n        /* \"#utility.yul\":28223:28229   */\n      dup5\n        /* \"#utility.yul\":28218:28221   */\n      dup3\n        /* \"#utility.yul\":28213:28216   */\n      dup6\n        /* \"#utility.yul\":28178:28230   */\n      tag_333\n      jump\t// in\n    tag_701:\n        /* \"#utility.yul\":27898:28236   */\n      pop\n        /* \"#utility.yul\":27804:28236   */\n      swap4\n      swap3\n      pop\n      pop\n      pop\n      jump\t// out\n        /* \"#utility.yul\":28255:28608   */\n    tag_402:\n        /* \"#utility.yul\":28321:28326   */\n      0x00\n        /* \"#utility.yul\":28370:28373   */\n      dup3\n        /* \"#utility.yul\":28363:28367   */\n      0x1f\n        /* \"#utility.yul\":28355:28361   */\n      dup4\n        /* \"#utility.yul\":28351:28368   */\n      add\n        /* \"#utility.yul\":28347:28374   */\n      slt\n        /* \"#utility.yul\":28337:28459   */\n      tag_703\n      jumpi\n        /* \"#utility.yul\":28378:28457   */\n      tag_704\n      tag_339\n      jump\t// in\n    tag_704:\n        /* \"#utility.yul\":28337:28459   */\n    tag_703:\n        /* \"#utility.yul\":28488:28494   */\n      dup2\n        /* \"#utility.yul\":28482:28495   */\n      mload\n        /* \"#utility.yul\":28513:28602   */\n      tag_705\n        /* \"#utility.yul\":28598:28601   */\n      dup5\n        /* \"#utility.yul\":28590:28596   */\n      dup3\n        /* \"#utility.yul\":28583:28587   */\n      0x20\n        /* \"#utility.yul\":28575:28581   */\n      dup7\n        /* \"#utility.yul\":28571:28588   */\n      add\n        /* \"#utility.yul\":28513:28602   */\n      tag_401\n      jump\t// in\n    tag_705:\n        /* \"#utility.yul\":28504:28602   */\n      swap2\n      pop\n        /* \"#utility.yul\":28327:28608   */\n      pop\n        /* \"#utility.yul\":28255:28608   */\n      swap3\n      swap2\n      pop\n      pop\n      jump\t// out\n        /* \"#utility.yul\":28614:29136   */\n    tag_254:\n        /* \"#utility.yul\":28693:28699   */\n      0x00\n        /* \"#utility.yul\":28742:28744   */\n      0x20\n        /* \"#utility.yul\":28730:28739   */\n      dup3\n        /* \"#utility.yul\":28721:28728   */\n      dup5\n        /* \"#utility.yul\":28717:28740   */\n      sub\n        /* \"#utility.yul\":28713:28745   */\n      slt\n        /* \"#utility.yul\":28710:28829   */\n      iszero\n      tag_707\n      jumpi\n        /* \"#utility.yul\":28748:28827   */\n      tag_708\n      tag_326\n      jump\t// in\n    tag_708:\n        /* \"#utility.yul\":28710:28829   */\n    tag_707:\n        /* \"#utility.yul\":28889:28890   */\n      0x00\n        /* \"#utility.yul\":28878:28887   */\n      dup3\n        /* \"#utility.yul\":28874:28891   */\n      add\n        /* \"#utility.yul\":28868:28892   */\n      mload\n        /* \"#utility.yul\":28919:28937   */\n      0xffffffffffffffff\n        /* \"#utility.yul\":28911:28917   */\n      dup2\n        /* \"#utility.yul\":28908:28938   */\n      gt\n        /* \"#utility.yul\":28905:29022   */\n      iszero\n      tag_709\n      jumpi\n        /* \"#utility.yul\":28941:29020   */\n      tag_710\n      tag_327\n      jump\t// in\n    tag_710:\n        /* \"#utility.yul\":28905:29022   */\n    tag_709:\n        /* \"#utility.yul\":29046:29119   */\n      tag_711\n        /* \"#utility.yul\":29111:29118   */\n      dup5\n        /* \"#utility.yul\":29102:29108   */\n      dup3\n        /* \"#utility.yul\":29091:29100   */\n      dup6\n        /* \"#utility.yul\":29087:29109   */\n      add\n        /* \"#utility.yul\":29046:29119   */\n      tag_402\n      jump\t// in\n    tag_711:\n        /* \"#utility.yul\":29036:29119   */\n      swap2\n      pop\n        /* \"#utility.yul\":28839:29129   */\n      pop\n        /* \"#utility.yul\":28614:29136   */\n      swap3\n      swap2\n      pop\n      pop\n      jump\t// out\n        /* \"#utility.yul\":29142:29312   */\n    tag_403:\n        /* \"#utility.yul\":29282:29304   */\n      0x5661756c74206e6f7420617574686f72697a6564000000000000000000000000\n        /* \"#utility.yul\":29278:29279   */\n      0x00\n        /* \"#utility.yul\":29270:29276   */\n      dup3\n        /* \"#utility.yul\":29266:29280   */\n      add\n        /* \"#utility.yul\":29259:29305   */\n      mstore\n        /* \"#utility.yul\":29142:29312   */\n      pop\n      jump\t// out\n        /* \"#utility.yul\":29318:29684   */\n    tag_404:\n        /* \"#utility.yul\":29460:29463   */\n      0x00\n        /* \"#utility.yul\":29481:29548   */\n      tag_714\n        /* \"#utility.yul\":29545:29547   */\n      0x14\n        /* \"#utility.yul\":29540:29543   */\n      dup4\n        /* \"#utility.yul\":29481:29548   */\n      tag_367\n      jump\t// in\n    tag_714:\n        /* \"#utility.yul\":29474:29548   */\n      swap2\n      pop\n        /* \"#utility.yul\":29557:29650   */\n      tag_715\n        /* \"#utility.yul\":29646:29649   */\n      dup3\n        /* \"#utility.yul\":29557:29650   */\n      tag_403\n      jump\t// in\n    tag_715:\n        /* \"#utility.yul\":29675:29677   */\n      0x20\n        /* \"#utility.yul\":29670:29673   */\n      dup3\n        /* \"#utility.yul\":29666:29678   */\n      add\n        /* \"#utility.yul\":29659:29678   */\n      swap1\n      pop\n        /* \"#utility.yul\":29318:29684   */\n      swap2\n      swap1\n      pop\n      jump\t// out\n        /* \"#utility.yul\":29690:30109   */\n    tag_257:\n        /* \"#utility.yul\":29856:29860   */\n      0x00\n        /* \"#utility.yul\":29894:29896   */\n      0x20\n        /* \"#utility.yul\":29883:29892   */\n      dup3\n        /* \"#utility.yul\":29879:29897   */\n      add\n        /* \"#utility.yul\":29871:29897   */\n      swap1\n      pop\n        /* \"#utility.yul\":29943:29952   */\n      dup2\n        /* \"#utility.yul\":29937:29941   */\n      dup2\n        /* \"#utility.yul\":29933:29953   */\n      sub\n        /* \"#utility.yul\":29929:29930   */\n      0x00\n        /* \"#utility.yul\":29918:29927   */\n      dup4\n        /* \"#utility.yul\":29914:29931   */\n      add\n        /* \"#utility.yul\":29907:29954   */\n      mstore\n        /* \"#utility.yul\":29971:30102   */\n      tag_717\n        /* \"#utility.yul\":30097:30101   */\n      dup2\n        /* \"#utility.yul\":29971:30102   */\n      tag_404\n      jump\t// in\n    tag_717:\n        /* \"#utility.yul\":29963:30102   */\n      swap1\n      pop\n        /* \"#utility.yul\":29690:30109   */\n      swap2\n      swap1\n      pop\n      jump\t// out\n        /* \"#utility.yul\":30115:30231   */\n    tag_405:\n        /* \"#utility.yul\":30166:30170   */\n      0x00\n        /* \"#utility.yul\":30189:30192   */\n      dup2\n        /* \"#utility.yul\":30181:30192   */\n      swap1\n      pop\n        /* \"#utility.yul\":30219:30223   */\n      0x20\n        /* \"#utility.yul\":30214:30217   */\n      dup3\n        /* \"#utility.yul\":30210:30224   */\n      add\n        /* \"#utility.yul\":30202:30224   */\n      swap1\n      pop\n        /* \"#utility.yul\":30115:30231   */\n      swap2\n      swap1\n      pop\n      jump\t// out\n        /* \"#utility.yul\":30237:30387   */\n    tag_406:\n        /* \"#utility.yul\":30274:30281   */\n      0x00\n        /* \"#utility.yul\":30314:30380   */\n      0xffffffffffffffffffffffffffffffffffffffff000000000000000000000000\n        /* \"#utility.yul\":30307:30312   */\n      dup3\n        /* \"#utility.yul\":30303:30381   */\n      and\n        /* \"#utility.yul\":30292:30381   */\n      swap1\n      pop\n        /* \"#utility.yul\":30237:30387   */\n      swap2\n      swap1\n      pop\n      jump\t// out\n        /* \"#utility.yul\":30393:30547   */\n    tag_407:\n        /* \"#utility.yul\":30436:30447   */\n      0x00\n        /* \"#utility.yul\":30472:30501   */\n      tag_721\n        /* \"#utility.yul\":30496:30499   */\n      dup3\n        /* \"#utility.yul\":30490:30500   */\n      mload\n        /* \"#utility.yul\":30472:30501   */\n      tag_406\n      jump\t// in\n    tag_721:\n        /* \"#utility.yul\":30535:30540   */\n      dup1\n        /* \"#utility.yul\":30511:30540   */\n      swap2\n      pop\n        /* \"#utility.yul\":30448:30547   */\n      pop\n        /* \"#utility.yul\":30393:30547   */\n      swap2\n      swap1\n      pop\n      jump\t// out\n        /* \"#utility.yul\":30553:30660   */\n    tag_408:\n        /* \"#utility.yul\":30597:30605   */\n      0x00\n        /* \"#utility.yul\":30647:30652   */\n      dup3\n        /* \"#utility.yul\":30641:30645   */\n      dup3\n        /* \"#utility.yul\":30637:30653   */\n      shl\n        /* \"#utility.yul\":30616:30653   */\n      swap1\n      pop\n        /* \"#utility.yul\":30553:30660   */\n      swap3\n      swap2\n      pop\n      pop\n      jump\t// out\n        /* \"#utility.yul\":30666:31260   */\n    tag_259:\n        /* \"#utility.yul\":30750:30755   */\n      0x00\n        /* \"#utility.yul\":30781:30819   */\n      tag_724\n        /* \"#utility.yul\":30813:30818   */\n      dup3\n        /* \"#utility.yul\":30781:30819   */\n      tag_331\n      jump\t// in\n    tag_724:\n        /* \"#utility.yul\":30844:30849   */\n      dup3\n        /* \"#utility.yul\":30871:30911   */\n      tag_725\n        /* \"#utility.yul\":30905:30910   */\n      dup5\n        /* \"#utility.yul\":30871:30911   */\n      tag_405\n      jump\t// in\n    tag_725:\n        /* \"#utility.yul\":30859:30911   */\n      swap1\n      pop\n        /* \"#utility.yul\":30930:30965   */\n      tag_726\n        /* \"#utility.yul\":30956:30964   */\n      dup2\n        /* \"#utility.yul\":30930:30965   */\n      tag_407\n      jump\t// in\n    tag_726:\n        /* \"#utility.yul\":30921:30965   */\n      swap3\n      pop\n        /* \"#utility.yul\":30989:30991   */\n      0x14\n        /* \"#utility.yul\":30981:30987   */\n      dup3\n        /* \"#utility.yul\":30978:30992   */\n      lt\n        /* \"#utility.yul\":30975:31253   */\n      iszero\n      tag_727\n      jumpi\n        /* \"#utility.yul\":31060:31229   */\n      tag_728\n        /* \"#utility.yul\":31145:31211   */\n      0xffffffffffffffffffffffffffffffffffffffff000000000000000000000000\n        /* \"#utility.yul\":31115:31121   */\n      dup4\n        /* \"#utility.yul\":31111:31113   */\n      0x14\n        /* \"#utility.yul\":31107:31122   */\n      sub\n        /* \"#utility.yul\":31104:31105   */\n      0x08\n        /* \"#utility.yul\":31100:31123   */\n      mul\n        /* \"#utility.yul\":31060:31229   */\n      tag_408\n      jump\t// in\n    tag_728:\n        /* \"#utility.yul\":31037:31042   */\n      dup4\n        /* \"#utility.yul\":31016:31243   */\n      and\n        /* \"#utility.yul\":31007:31243   */\n      swap3\n      pop\n        /* \"#utility.yul\":30975:31253   */\n    tag_727:\n        /* \"#utility.yul\":30756:31260   */\n      pop\n      pop\n        /* \"#utility.yul\":30666:31260   */\n      swap2\n      swap1\n      pop\n      jump\t// out\n        /* \"#utility.yul\":31266:32227   */\n    tag_274:\n        /* \"#utility.yul\":31518:31521   */\n      0x00\n        /* \"#utility.yul\":31533:31608   */\n      tag_730\n        /* \"#utility.yul\":31604:31607   */\n      dup3\n        /* \"#utility.yul\":31595:31601   */\n      dup10\n        /* \"#utility.yul\":31533:31608   */\n      tag_377\n      jump\t// in\n    tag_730:\n        /* \"#utility.yul\":31633:31635   */\n      0x20\n        /* \"#utility.yul\":31628:31631   */\n      dup3\n        /* \"#utility.yul\":31624:31636   */\n      add\n        /* \"#utility.yul\":31617:31636   */\n      swap2\n      pop\n        /* \"#utility.yul\":31646:31721   */\n      tag_731\n        /* \"#utility.yul\":31717:31720   */\n      dup3\n        /* \"#utility.yul\":31708:31714   */\n      dup9\n        /* \"#utility.yul\":31646:31721   */\n      tag_377\n      jump\t// in\n    tag_731:\n        /* \"#utility.yul\":31746:31748   */\n      0x20\n        /* \"#utility.yul\":31741:31744   */\n      dup3\n        /* \"#utility.yul\":31737:31749   */\n      add\n        /* \"#utility.yul\":31730:31749   */\n      swap2\n      pop\n        /* \"#utility.yul\":31759:31834   */\n      tag_732\n        /* \"#utility.yul\":31830:31833   */\n      dup3\n        /* \"#utility.yul\":31821:31827   */\n      dup8\n        /* \"#utility.yul\":31759:31834   */\n      tag_377\n      jump\t// in\n    tag_732:\n        /* \"#utility.yul\":31859:31861   */\n      0x20\n        /* \"#utility.yul\":31854:31857   */\n      dup3\n        /* \"#utility.yul\":31850:31862   */\n      add\n        /* \"#utility.yul\":31843:31862   */\n      swap2\n      pop\n        /* \"#utility.yul\":31872:31947   */\n      tag_733\n        /* \"#utility.yul\":31943:31946   */\n      dup3\n        /* \"#utility.yul\":31934:31940   */\n      dup7\n        /* \"#utility.yul\":31872:31947   */\n      tag_377\n      jump\t// in\n    tag_733:\n        /* \"#utility.yul\":31972:31974   */\n      0x20\n        /* \"#utility.yul\":31967:31970   */\n      dup3\n        /* \"#utility.yul\":31963:31975   */\n      add\n        /* \"#utility.yul\":31956:31975   */\n      swap2\n      pop\n        /* \"#utility.yul\":31985:32060   */\n      tag_734\n        /* \"#utility.yul\":32056:32059   */\n      dup3\n        /* \"#utility.yul\":32047:32053   */\n      dup6\n        /* \"#utility.yul\":31985:32060   */\n      tag_377\n      jump\t// in\n    tag_734:\n        /* \"#utility.yul\":32085:32087   */\n      0x20\n        /* \"#utility.yul\":32080:32083   */\n      dup3\n        /* \"#utility.yul\":32076:32088   */\n      add\n        /* \"#utility.yul\":32069:32088   */\n      swap2\n      pop\n        /* \"#utility.yul\":32098:32173   */\n      tag_735\n        /* \"#utility.yul\":32169:32172   */\n      dup3\n        /* \"#utility.yul\":32160:32166   */\n      dup5\n        /* \"#utility.yul\":32098:32173   */\n      tag_377\n      jump\t// in\n    tag_735:\n        /* \"#utility.yul\":32198:32200   */\n      0x20\n        /* \"#utility.yul\":32193:32196   */\n      dup3\n        /* \"#utility.yul\":32189:32201   */\n      add\n        /* \"#utility.yul\":32182:32201   */\n      swap2\n      pop\n        /* \"#utility.yul\":32218:32221   */\n      dup2\n        /* \"#utility.yul\":32211:32221   */\n      swap1\n      pop\n        /* \"#utility.yul\":31266:32227   */\n      swap8\n      swap7\n      pop\n      pop\n      pop\n      pop\n      pop\n      pop\n      pop\n      jump\t// out\n        /* \"#utility.yul\":32233:32544   */\n    tag_409:\n        /* \"#utility.yul\":32310:32314   */\n      0x00\n        /* \"#utility.yul\":32400:32418   */\n      0xffffffffffffffff\n        /* \"#utility.yul\":32392:32398   */\n      dup3\n        /* \"#utility.yul\":32389:32419   */\n      gt\n        /* \"#utility.yul\":32386:32442   */\n      iszero\n      tag_737\n      jumpi\n        /* \"#utility.yul\":32422:32440   */\n      tag_738\n      tag_169\n      jump\t// in\n    tag_738:\n        /* \"#utility.yul\":32386:32442   */\n    tag_737:\n        /* \"#utility.yul\":32472:32476   */\n      0x20\n        /* \"#utility.yul\":32464:32470   */\n      dup3\n        /* \"#utility.yul\":32460:32477   */\n      mul\n        /* \"#utility.yul\":32452:32477   */\n      swap1\n      pop\n        /* \"#utility.yul\":32532:32536   */\n      0x20\n        /* \"#utility.yul\":32526:32530   */\n      dup2\n        /* \"#utility.yul\":32522:32537   */\n      add\n        /* \"#utility.yul\":32514:32537   */\n      swap1\n      pop\n        /* \"#utility.yul\":32233:32544   */\n      swap2\n      swap1\n      pop\n      jump\t// out\n        /* \"#utility.yul\":32550:32693   */\n    tag_410:\n        /* \"#utility.yul\":32607:32612   */\n      0x00\n        /* \"#utility.yul\":32638:32644   */\n      dup2\n        /* \"#utility.yul\":32632:32645   */\n      mload\n        /* \"#utility.yul\":32623:32645   */\n      swap1\n      pop\n        /* \"#utility.yul\":32654:32687   */\n      tag_740\n        /* \"#utility.yul\":32681:32686   */\n      dup2\n        /* \"#utility.yul\":32654:32687   */\n      tag_371\n      jump\t// in\n    tag_740:\n        /* \"#utility.yul\":32550:32693   */\n      swap3\n      swap2\n      pop\n      pop\n      jump\t// out\n        /* \"#utility.yul\":32716:33448   */\n    tag_411:\n        /* \"#utility.yul\":32823:32828   */\n      0x00\n        /* \"#utility.yul\":32848:32929   */\n      tag_742\n        /* \"#utility.yul\":32864:32928   */\n      tag_743\n        /* \"#utility.yul\":32921:32927   */\n      dup5\n        /* \"#utility.yul\":32864:32928   */\n      tag_409\n      jump\t// in\n    tag_743:\n        /* \"#utility.yul\":32848:32929   */\n      tag_355\n      jump\t// in\n    tag_742:\n        /* \"#utility.yul\":32839:32929   */\n      swap1\n      pop\n        /* \"#utility.yul\":32949:32954   */\n      dup1\n        /* \"#utility.yul\":32978:32984   */\n      dup4\n        /* \"#utility.yul\":32971:32976   */\n      dup3\n        /* \"#utility.yul\":32964:32985   */\n      mstore\n        /* \"#utility.yul\":33012:33016   */\n      0x20\n        /* \"#utility.yul\":33005:33010   */\n      dup3\n        /* \"#utility.yul\":33001:33017   */\n      add\n        /* \"#utility.yul\":32994:33017   */\n      swap1\n      pop\n        /* \"#utility.yul\":33065:33069   */\n      0x20\n        /* \"#utility.yul\":33057:33063   */\n      dup5\n        /* \"#utility.yul\":33053:33070   */\n      mul\n        /* \"#utility.yul\":33045:33051   */\n      dup4\n        /* \"#utility.yul\":33041:33071   */\n      add\n        /* \"#utility.yul\":33094:33097   */\n      dup6\n        /* \"#utility.yul\":33086:33092   */\n      dup2\n        /* \"#utility.yul\":33083:33098   */\n      gt\n        /* \"#utility.yul\":33080:33202   */\n      iszero\n      tag_744\n      jumpi\n        /* \"#utility.yul\":33113:33192   */\n      tag_745\n      tag_336\n      jump\t// in\n    tag_745:\n        /* \"#utility.yul\":33080:33202   */\n    tag_744:\n        /* \"#utility.yul\":33228:33234   */\n      dup4\n        /* \"#utility.yul\":33211:33442   */\n    tag_746:\n        /* \"#utility.yul\":33245:33251   */\n      dup2\n        /* \"#utility.yul\":33240:33243   */\n      dup2\n        /* \"#utility.yul\":33237:33252   */\n      lt\n        /* \"#utility.yul\":33211:33442   */\n      iszero\n      tag_748\n      jumpi\n        /* \"#utility.yul\":33320:33323   */\n      dup1\n        /* \"#utility.yul\":33349:33397   */\n      tag_749\n        /* \"#utility.yul\":33393:33396   */\n      dup9\n        /* \"#utility.yul\":33381:33391   */\n      dup3\n        /* \"#utility.yul\":33349:33397   */\n      tag_410\n      jump\t// in\n    tag_749:\n        /* \"#utility.yul\":33344:33347   */\n      dup5\n        /* \"#utility.yul\":33337:33398   */\n      mstore\n        /* \"#utility.yul\":33427:33431   */\n      0x20\n        /* \"#utility.yul\":33422:33425   */\n      dup5\n        /* \"#utility.yul\":33418:33432   */\n      add\n        /* \"#utility.yul\":33411:33432   */\n      swap4\n      pop\n        /* \"#utility.yul\":33287:33442   */\n      pop\n        /* \"#utility.yul\":33271:33275   */\n      0x20\n        /* \"#utility.yul\":33266:33269   */\n      dup2\n        /* \"#utility.yul\":33262:33276   */\n      add\n        /* \"#utility.yul\":33255:33276   */\n      swap1\n      pop\n        /* \"#utility.yul\":33211:33442   */\n      jump(tag_746)\n    tag_748:\n        /* \"#utility.yul\":33215:33236   */\n      pop\n        /* \"#utility.yul\":32829:33448   */\n      pop\n      pop\n        /* \"#utility.yul\":32716:33448   */\n      swap4\n      swap3\n      pop\n      pop\n      pop\n      jump\t// out\n        /* \"#utility.yul\":33471:33856   */\n    tag_412:\n        /* \"#utility.yul\":33553:33558   */\n      0x00\n        /* \"#utility.yul\":33602:33605   */\n      dup3\n        /* \"#utility.yul\":33595:33599   */\n      0x1f\n        /* \"#utility.yul\":33587:33593   */\n      dup4\n        /* \"#utility.yul\":33583:33600   */\n      add\n        /* \"#utility.yul\":33579:33606   */\n      slt\n        /* \"#utility.yul\":33569:33691   */\n      tag_751\n      jumpi\n        /* \"#utility.yul\":33610:33689   */\n      tag_752\n      tag_339\n      jump\t// in\n    tag_752:\n        /* \"#utility.yul\":33569:33691   */\n    tag_751:\n        /* \"#utility.yul\":33720:33726   */\n      dup2\n        /* \"#utility.yul\":33714:33727   */\n      mload\n        /* \"#utility.yul\":33745:33850   */\n      tag_753\n        /* \"#utility.yul\":33846:33849   */\n      dup5\n        /* \"#utility.yul\":33838:33844   */\n      dup3\n        /* \"#utility.yul\":33831:33835   */\n      0x20\n        /* \"#utility.yul\":33823:33829   */\n      dup7\n        /* \"#utility.yul\":33819:33836   */\n      add\n        /* \"#utility.yul\":33745:33850   */\n      tag_411\n      jump\t// in\n    tag_753:\n        /* \"#utility.yul\":33736:33850   */\n      swap2\n      pop\n        /* \"#utility.yul\":33559:33856   */\n      pop\n        /* \"#utility.yul\":33471:33856   */\n      swap3\n      swap2\n      pop\n      pop\n      jump\t// out\n        /* \"#utility.yul\":33862:34416   */\n    tag_280:\n        /* \"#utility.yul\":33957:33963   */\n      0x00\n        /* \"#utility.yul\":34006:34008   */\n      0x20\n        /* \"#utility.yul\":33994:34003   */\n      dup3\n        /* \"#utility.yul\":33985:33992   */\n      dup5\n        /* \"#utility.yul\":33981:34004   */\n      sub\n        /* \"#utility.yul\":33977:34009   */\n      slt\n        /* \"#utility.yul\":33974:34093   */\n      iszero\n      tag_755\n      jumpi\n        /* \"#utility.yul\":34012:34091   */\n      tag_756\n      tag_326\n      jump\t// in\n    tag_756:\n        /* \"#utility.yul\":33974:34093   */\n    tag_755:\n        /* \"#utility.yul\":34153:34154   */\n      0x00\n        /* \"#utility.yul\":34142:34151   */\n      dup3\n        /* \"#utility.yul\":34138:34155   */\n      add\n        /* \"#utility.yul\":34132:34156   */\n      mload\n        /* \"#utility.yul\":34183:34201   */\n      0xffffffffffffffff\n        /* \"#utility.yul\":34175:34181   */\n      dup2\n        /* \"#utility.yul\":34172:34202   */\n      gt\n        /* \"#utility.yul\":34169:34286   */\n      iszero\n      tag_757\n      jumpi\n        /* \"#utility.yul\":34205:34284   */\n      tag_758\n      tag_327\n      jump\t// in\n    tag_758:\n        /* \"#utility.yul\":34169:34286   */\n    tag_757:\n        /* \"#utility.yul\":34310:34399   */\n      tag_759\n        /* \"#utility.yul\":34391:34398   */\n      dup5\n        /* \"#utility.yul\":34382:34388   */\n      dup3\n        /* \"#utility.yul\":34371:34380   */\n      dup6\n        /* \"#utility.yul\":34367:34389   */\n      add\n        /* \"#utility.yul\":34310:34399   */\n      tag_412\n      jump\t// in\n    tag_759:\n        /* \"#utility.yul\":34300:34399   */\n      swap2\n      pop\n        /* \"#utility.yul\":34103:34409   */\n      pop\n        /* \"#utility.yul\":33862:34416   */\n      swap3\n      swap2\n      pop\n      pop\n      jump\t// out\n        /* \"#utility.yul\":34422:34832   */\n    tag_285:\n        /* \"#utility.yul\":34462:34469   */\n      0x00\n        /* \"#utility.yul\":34485:34505   */\n      tag_761\n        /* \"#utility.yul\":34503:34504   */\n      dup3\n        /* \"#utility.yul\":34485:34505   */\n      tag_328\n      jump\t// in\n    tag_761:\n        /* \"#utility.yul\":34480:34505   */\n      swap2\n      pop\n        /* \"#utility.yul\":34519:34539   */\n      tag_762\n        /* \"#utility.yul\":34537:34538   */\n      dup4\n        /* \"#utility.yul\":34519:34539   */\n      tag_328\n      jump\t// in\n    tag_762:\n        /* \"#utility.yul\":34514:34539   */\n      swap3\n      pop\n        /* \"#utility.yul\":34574:34575   */\n      dup3\n        /* \"#utility.yul\":34571:34572   */\n      dup3\n        /* \"#utility.yul\":34567:34576   */\n      mul\n        /* \"#utility.yul\":34596:34626   */\n      tag_763\n        /* \"#utility.yul\":34614:34625   */\n      dup2\n        /* \"#utility.yul\":34596:34626   */\n      tag_328\n      jump\t// in\n    tag_763:\n        /* \"#utility.yul\":34585:34626   */\n      swap2\n      pop\n        /* \"#utility.yul\":34775:34776   */\n      dup3\n        /* \"#utility.yul\":34766:34773   */\n      dup3\n        /* \"#utility.yul\":34762:34777   */\n      div\n        /* \"#utility.yul\":34759:34760   */\n      dup5\n        /* \"#utility.yul\":34756:34778   */\n      eq\n        /* \"#utility.yul\":34736:34737   */\n      dup4\n        /* \"#utility.yul\":34729:34738   */\n      iszero\n        /* \"#utility.yul\":34709:34792   */\n      or\n        /* \"#utility.yul\":34686:34825   */\n      tag_764\n      jumpi\n        /* \"#utility.yul\":34805:34823   */\n      tag_765\n      tag_388\n      jump\t// in\n    tag_765:\n        /* \"#utility.yul\":34686:34825   */\n    tag_764:\n        /* \"#utility.yul\":34470:34832   */\n      pop\n        /* \"#utility.yul\":34422:34832   */\n      swap3\n      swap2\n      pop\n      pop\n      jump\t// out\n        /* \"#utility.yul\":34838:34955   */\n    tag_413:\n        /* \"#utility.yul\":34947:34948   */\n      0x00\n        /* \"#utility.yul\":34944:34945   */\n      0x00\n        /* \"#utility.yul\":34937:34949   */\n      revert\n        /* \"#utility.yul\":34961:35078   */\n    tag_414:\n        /* \"#utility.yul\":35070:35071   */\n      0x00\n        /* \"#utility.yul\":35067:35068   */\n      0x00\n        /* \"#utility.yul\":35060:35072   */\n      revert\n        /* \"#utility.yul\":35084:35553   */\n    tag_289:\n        /* \"#utility.yul\":35189:35198   */\n      0x00\n        /* \"#utility.yul\":35200:35209   */\n      0x00\n        /* \"#utility.yul\":35238:35246   */\n      dup6\n        /* \"#utility.yul\":35226:35236   */\n      dup6\n        /* \"#utility.yul\":35223:35247   */\n      gt\n        /* \"#utility.yul\":35220:35331   */\n      iszero\n      tag_769\n      jumpi\n        /* \"#utility.yul\":35250:35329   */\n      tag_770\n      tag_413\n      jump\t// in\n    tag_770:\n        /* \"#utility.yul\":35220:35331   */\n    tag_769:\n        /* \"#utility.yul\":35356:35362   */\n      dup4\n        /* \"#utility.yul\":35346:35354   */\n      dup7\n        /* \"#utility.yul\":35343:35363   */\n      gt\n        /* \"#utility.yul\":35340:35447   */\n      iszero\n      tag_771\n      jumpi\n        /* \"#utility.yul\":35366:35445   */\n      tag_772\n      tag_414\n      jump\t// in\n    tag_772:\n        /* \"#utility.yul\":35340:35447   */\n    tag_771:\n        /* \"#utility.yul\":35497:35498   */\n      0x01\n        /* \"#utility.yul\":35485:35495   */\n      dup6\n        /* \"#utility.yul\":35481:35499   */\n      mul\n        /* \"#utility.yul\":35473:35479   */\n      dup4\n        /* \"#utility.yul\":35469:35500   */\n      add\n        /* \"#utility.yul\":35456:35500   */\n      swap2\n      pop\n        /* \"#utility.yul\":35536:35546   */\n      dup5\n        /* \"#utility.yul\":35526:35534   */\n      dup7\n        /* \"#utility.yul\":35522:35547   */\n      sub\n        /* \"#utility.yul\":35509:35547   */\n      swap1\n      pop\n        /* \"#utility.yul\":35084:35553   */\n      swap5\n      pop\n      swap5\n      swap3\n      pop\n      pop\n      pop\n      jump\t// out\n        /* \"#utility.yul\":35559:35726   */\n    tag_415:\n        /* \"#utility.yul\":35699:35718   */\n      0x496e76616c6964207369676e6174757265000000000000000000000000000000\n        /* \"#utility.yul\":35695:35696   */\n      0x00\n        /* \"#utility.yul\":35687:35693   */\n      dup3\n        /* \"#utility.yul\":35683:35697   */\n      add\n        /* \"#utility.yul\":35676:35719   */\n      mstore\n        /* \"#utility.yul\":35559:35726   */\n      pop\n      jump\t// out\n        /* \"#utility.yul\":35732:36098   */\n    tag_416:\n        /* \"#utility.yul\":35874:35877   */\n      0x00\n        /* \"#utility.yul\":35895:35962   */\n      tag_775\n        /* \"#utility.yul\":35959:35961   */\n      0x11\n        /* \"#utility.yul\":35954:35957   */\n      dup4\n        /* \"#utility.yul\":35895:35962   */\n      tag_367\n      jump\t// in\n    tag_775:\n        /* \"#utility.yul\":35888:35962   */\n      swap2\n      pop\n        /* \"#utility.yul\":35971:36064   */\n      tag_776\n        /* \"#utility.yul\":36060:36063   */\n      dup3\n        /* \"#utility.yul\":35971:36064   */\n      tag_415\n      jump\t// in\n    tag_776:\n        /* \"#utility.yul\":36089:36091   */\n      0x20\n        /* \"#utility.yul\":36084:36087   */\n      dup3\n        /* \"#utility.yul\":36080:36092   */\n      add\n        /* \"#utility.yul\":36073:36092   */\n      swap1\n      pop\n        /* \"#utility.yul\":35732:36098   */\n      swap2\n      swap1\n      pop\n      jump\t// out\n        /* \"#utility.yul\":36104:36523   */\n    tag_293:\n        /* \"#utility.yul\":36270:36274   */\n      0x00\n        /* \"#utility.yul\":36308:36310   */\n      0x20\n        /* \"#utility.yul\":36297:36306   */\n      dup3\n        /* \"#utility.yul\":36293:36311   */\n      add\n        /* \"#utility.yul\":36285:36311   */\n      swap1\n      pop\n        /* \"#utility.yul\":36357:36366   */\n      dup2\n        /* \"#utility.yul\":36351:36355   */\n      dup2\n        /* \"#utility.yul\":36347:36367   */\n      sub\n        /* \"#utility.yul\":36343:36344   */\n      0x00\n        /* \"#utility.yul\":36332:36341   */\n      dup4\n        /* \"#utility.yul\":36328:36345   */\n      add\n        /* \"#utility.yul\":36321:36368   */\n      mstore\n        /* \"#utility.yul\":36385:36516   */\n      tag_778\n        /* \"#utility.yul\":36511:36515   */\n      dup2\n        /* \"#utility.yul\":36385:36516   */\n      tag_416\n      jump\t// in\n    tag_778:\n        /* \"#utility.yul\":36377:36516   */\n      swap1\n      pop\n        /* \"#utility.yul\":36104:36523   */\n      swap2\n      swap1\n      pop\n      jump\t// out\n        /* \"#utility.yul\":36529:36709   */\n    tag_417:\n        /* \"#utility.yul\":36669:36701   */\n      0x5369676e6572206e6f7420616e206163746976652076616c696461746f720000\n        /* \"#utility.yul\":36665:36666   */\n      0x00\n        /* \"#utility.yul\":36657:36663   */\n      dup3\n        /* \"#utility.yul\":36653:36667   */\n      add\n        /* \"#utility.yul\":36646:36702   */\n      mstore\n        /* \"#utility.yul\":36529:36709   */\n      pop\n      jump\t// out\n        /* \"#utility.yul\":36715:37081   */\n    tag_418:\n        /* \"#utility.yul\":36857:36860   */\n      0x00\n        /* \"#utility.yul\":36878:36945   */\n      tag_781\n        /* \"#utility.yul\":36942:36944   */\n      0x1e\n        /* \"#utility.yul\":36937:36940   */\n      dup4\n        /* \"#utility.yul\":36878:36945   */\n      tag_367\n      jump\t// in\n    tag_781:\n        /* \"#utility.yul\":36871:36945   */\n      swap2\n      pop\n        /* \"#utility.yul\":36954:37047   */\n      tag_782\n        /* \"#utility.yul\":37043:37046   */\n      dup3\n        /* \"#utility.yul\":36954:37047   */\n      tag_417\n      jump\t// in\n    tag_782:\n        /* \"#utility.yul\":37072:37074   */\n      0x20\n        /* \"#utility.yul\":37067:37070   */\n      dup3\n        /* \"#utility.yul\":37063:37075   */\n      add\n        /* \"#utility.yul\":37056:37075   */\n      swap1\n      pop\n        /* \"#utility.yul\":36715:37081   */\n      swap2\n      swap1\n      pop\n      jump\t// out\n        /* \"#utility.yul\":37087:37506   */\n    tag_302:\n        /* \"#utility.yul\":37253:37257   */\n      0x00\n        /* \"#utility.yul\":37291:37293   */\n      0x20\n        /* \"#utility.yul\":37280:37289   */\n      dup3\n        /* \"#utility.yul\":37276:37294   */\n      add\n        /* \"#utility.yul\":37268:37294   */\n      swap1\n      pop\n        /* \"#utility.yul\":37340:37349   */\n      dup2\n        /* \"#utility.yul\":37334:37338   */\n      dup2\n        /* \"#utility.yul\":37330:37350   */\n      sub\n        /* \"#utility.yul\":37326:37327   */\n      0x00\n        /* \"#utility.yul\":37315:37324   */\n      dup4\n        /* \"#utility.yul\":37311:37328   */\n      add\n        /* \"#utility.yul\":37304:37351   */\n      mstore\n        /* \"#utility.yul\":37368:37499   */\n      tag_784\n        /* \"#utility.yul\":37494:37498   */\n      dup2\n        /* \"#utility.yul\":37368:37499   */\n      tag_418\n      jump\t// in\n    tag_784:\n        /* \"#utility.yul\":37360:37499   */\n      swap1\n      pop\n        /* \"#utility.yul\":37087:37506   */\n      swap2\n      swap1\n      pop\n      jump\t// out\n        /* \"#utility.yul\":37512:38332   */\n    tag_323:\n        /* \"#utility.yul\":37736:37739   */\n      0x00\n        /* \"#utility.yul\":37751:37826   */\n      tag_786\n        /* \"#utility.yul\":37822:37825   */\n      dup3\n        /* \"#utility.yul\":37813:37819   */\n      dup9\n        /* \"#utility.yul\":37751:37826   */\n      tag_377\n      jump\t// in\n    tag_786:\n        /* \"#utility.yul\":37851:37853   */\n      0x20\n        /* \"#utility.yul\":37846:37849   */\n      dup3\n        /* \"#utility.yul\":37842:37854   */\n      add\n        /* \"#utility.yul\":37835:37854   */\n      swap2\n      pop\n        /* \"#utility.yul\":37864:37939   */\n      tag_787\n        /* \"#utility.yul\":37935:37938   */\n      dup3\n        /* \"#utility.yul\":37926:37932   */\n      dup8\n        /* \"#utility.yul\":37864:37939   */\n      tag_377\n      jump\t// in\n    tag_787:\n        /* \"#utility.yul\":37964:37966   */\n      0x20\n        /* \"#utility.yul\":37959:37962   */\n      dup3\n        /* \"#utility.yul\":37955:37967   */\n      add\n        /* \"#utility.yul\":37948:37967   */\n      swap2\n      pop\n        /* \"#utility.yul\":37977:38052   */\n      tag_788\n        /* \"#utility.yul\":38048:38051   */\n      dup3\n        /* \"#utility.yul\":38039:38045   */\n      dup7\n        /* \"#utility.yul\":37977:38052   */\n      tag_377\n      jump\t// in\n    tag_788:\n        /* \"#utility.yul\":38077:38079   */\n      0x20\n        /* \"#utility.yul\":38072:38075   */\n      dup3\n        /* \"#utility.yul\":38068:38080   */\n      add\n        /* \"#utility.yul\":38061:38080   */\n      swap2\n      pop\n        /* \"#utility.yul\":38090:38165   */\n      tag_789\n        /* \"#utility.yul\":38161:38164   */\n      dup3\n        /* \"#utility.yul\":38152:38158   */\n      dup6\n        /* \"#utility.yul\":38090:38165   */\n      tag_377\n      jump\t// in\n    tag_789:\n        /* \"#utility.yul\":38190:38192   */\n      0x20\n        /* \"#utility.yul\":38185:38188   */\n      dup3\n        /* \"#utility.yul\":38181:38193   */\n      add\n        /* \"#utility.yul\":38174:38193   */\n      swap2\n      pop\n        /* \"#utility.yul\":38203:38278   */\n      tag_790\n        /* \"#utility.yul\":38274:38277   */\n      dup3\n        /* \"#utility.yul\":38265:38271   */\n      dup5\n        /* \"#utility.yul\":38203:38278   */\n      tag_377\n      jump\t// in\n    tag_790:\n        /* \"#utility.yul\":38303:38305   */\n      0x20\n        /* \"#utility.yul\":38298:38301   */\n      dup3\n        /* \"#utility.yul\":38294:38306   */\n      add\n        /* \"#utility.yul\":38287:38306   */\n      swap2\n      pop\n        /* \"#utility.yul\":38323:38326   */\n      dup2\n        /* \"#utility.yul\":38316:38326   */\n      swap1\n      pop\n        /* \"#utility.yul\":37512:38332   */\n      swap7\n      swap6\n      pop\n      pop\n      pop\n      pop\n      pop\n      pop\n      jump\t// out\n\n    auxdata: 0xa26469706673582212206f037d830704bdd4a25ad41b2cc4928f87d1c83999d4bbe8b27994dc1db2f1bd64736f6c634300081f0033\n}\n",
				"bytecode": {
					"linkReferences": {},
					"object": "610120604052348015610010575f5ffd5b50604051612ca6380380612ca6833981810160405281019061003291906102e1565b335f73ffffffffffffffffffffffffffffffffffffffff168173ffffffffffffffffffffffffffffffffffffffff16036100a3575f6040517f1e4fbdf700000000000000000000000000000000000000000000000000000000815260040161009a9190610367565b60405180910390fd5b6100b2816101c260201b60201c565b508473ffffffffffffffffffffffffffffffffffffffff1660808173ffffffffffffffffffffffffffffffffffffffff16815250508373ffffffffffffffffffffffffffffffffffffffff1660a08173ffffffffffffffffffffffffffffffffffffffff16815250508273ffffffffffffffffffffffffffffffffffffffff1660c08173ffffffffffffffffffffffffffffffffffffffff16815250508173ffffffffffffffffffffffffffffffffffffffff1660e08173ffffffffffffffffffffffffffffffffffffffff16815250508073ffffffffffffffffffffffffffffffffffffffff166101008173ffffffffffffffffffffffffffffffffffffffff16815250505050505050610380565b5f5f5f9054906101000a900473ffffffffffffffffffffffffffffffffffffffff169050815f5f6101000a81548173ffffffffffffffffffffffffffffffffffffffff021916908373ffffffffffffffffffffffffffffffffffffffff1602179055508173ffffffffffffffffffffffffffffffffffffffff168173ffffffffffffffffffffffffffffffffffffffff167f8be0079c531659141344cd1fd0a4f28419497f9722a3daafe3b4186f6b6457e060405160405180910390a35050565b5f5ffd5b5f73ffffffffffffffffffffffffffffffffffffffff82169050919050565b5f6102b082610287565b9050919050565b6102c0816102a6565b81146102ca575f5ffd5b50565b5f815190506102db816102b7565b92915050565b5f5f5f5f5f60a086880312156102fa576102f9610283565b5b5f610307888289016102cd565b9550506020610318888289016102cd565b9450506040610329888289016102cd565b935050606061033a888289016102cd565b925050608061034b888289016102cd565b9150509295509295909350565b610361816102a6565b82525050565b5f60208201905061037a5f830184610358565b92915050565b60805160a05160c05160e051610100516128b86103ee5f395f818161073a01528181610b2c01526111eb01525f8181610bbb01528181610e53015261101301525f818161075e015261098401525f81816106000152610c6301525f81816103c10152610ee801526128b85ff3fe608060405234801561000f575f5ffd5b5060043610610114575f3560e01c8063aed881d8116100a0578063bf4d766e1161006f578063bf4d766e146102f2578063f2fde38b14610310578063f82d29d91461032c578063f90c0f4014610348578063fa5408011461036657610114565b8063aed881d81461026a578063b3d6300314610288578063b648f220146102a6578063bdf877c9146102d657610114565b8063715018a6116100e7578063715018a6146101b25780637a988c54146101bc5780638da5cb5b146101ec57806397aba7f91461020a578063aad240611461023a57610114565b806319b8c94114610118578063392c87311461014857806341e532ca146101645780634eb30d4114610194575b5f5ffd5b610132600480360381019061012d919061169c565b610396565b60405161013f9190611737565b60405180910390f35b610162600480360381019061015d91906117fa565b6103bf565b005b61017e6004803603810190610179919061186e565b6105b2565b60405161018b9190611911565b60405180910390f35b61019c6105fe565b6040516101a99190611985565b60405180910390f35b6101ba610622565b005b6101d660048036038101906101d1919061169c565b610635565b6040516101e39190611911565b60405180910390f35b6101f461063e565b6040516102019190611911565b60405180910390f35b610224600480360381019061021f9190611af9565b610665565b6040516102319190611911565b60405180910390f35b610254600480360381019061024f919061169c565b61071b565b6040516102619190611b6d565b60405180910390f35b610272610738565b60405161027f9190611ba6565b60405180910390f35b61029061075c565b60405161029d9190611bdf565b60405180910390f35b6102c060048036038101906102bb919061169c565b610780565b6040516102cd9190611c4a565b60405180910390f35b6102f060048036038101906102eb91906117fa565b610982565b005b6102fa610bb9565b6040516103079190611c8a565b60405180910390f35b61032a60048036038101906103259190611ccd565b610bdd565b005b610346600480360381019061034191906117fa565b610c61565b005b610350610ee6565b60405161035d9190611d18565b60405180910390f35b610380600480360381019061037b9190611d31565b610f0a565b60405161038d9190611d6b565b60405180910390f35b6060816040516020016103a99190611da4565b6040516020818303038152906040529050919050565b7f000000000000000000000000000000000000000000000000000000000000000073ffffffffffffffffffffffffffffffffffffffff16639cb2865885856040518363ffffffff1660e01b815260040161041a929190611de8565b5f6040518083038186803b158015610430575f5ffd5b505afa158015610442573d5f5f3e3d5ffd5b505050505f5f5f61045286610f39565b9250925092505f8660026006811061046d5761046c611e11565b5b602002013590505f8760036006811061048957610488611e11565b5b602002013590505f61049a8961110d565b90506104a9815f1b89896111dc565b60015f8281526020019081526020015f205f9054906101000a900460ff1615610507576040517f08c379a00000000000000000000000000000000000000000000000000000000081526004016104fe90611e88565b60405180910390fd5b6001805f8381526020019081526020015f205f6101000a81548160ff0219169083151502179055505f83608084901b1790508573ffffffffffffffffffffffffffffffffffffffff16637a9eceb482878a866040518563ffffffff1660e01b81526004016105789493929190611eb5565b5f604051808303815f87803b15801561058f575f5ffd5b505af11580156105a1573d5f5f3e3d5ffd5b505050505050505050505050505050565b5f5f85608086901b1790505f84608085901b17905081816040516020016105da929190611eff565b604051602081830303815290604052805190602001205f1c92505050949350505050565b7f000000000000000000000000000000000000000000000000000000000000000081565b61062a611454565b6106335f6114db565b565b5f819050919050565b5f5f5f9054906101000a900473ffffffffffffffffffffffffffffffffffffffff16905090565b5f60418251146106aa576040517f08c379a00000000000000000000000000000000000000000000000000000000081526004016106a190611f74565b60405180910390fd5b5f5f5f602085015192506040850151915060608501515f1a90506001868285856040515f81526020016040526040516106e69493929190611fad565b6020604051602081039080840390855afa158015610706573d5f5f3e3d5ffd5b50505060206040510351935050505092915050565b6001602052805f5260405f205f915054906101000a900460ff1681565b7f000000000000000000000000000000000000000000000000000000000000000081565b7f000000000000000000000000000000000000000000000000000000000000000081565b60605f820361079f5760405180602001604052805f815250905061097d565b5f825f1b90505f5f90505b60208160ff161080156107fa57505f60f81b828260ff16602081106107d2576107d1611e11565b5b1a60f81b7effffffffffffffffffffffffffffffffffffffffffffffffffffffffffffff1916145b1561081257808061080a9061201d565b9150506107aa565b5f601f90505b8160ff168160ff1611801561086a57505f60f81b838260ff166020811061084257610841611e11565b5b1a60f81b7effffffffffffffffffffffffffffffffffffffffffffffffffffffffffffff1916145b1561088257808061087a90612045565b915050610818565b5f60018383610891919061206c565b61089b91906120a0565b90505f8160ff1667ffffffffffffffff8111156108bb576108ba6119d5565b5b6040519080825280601f01601f1916602001820160405280156108ed5781602001600182028036833780820191505090505b5090505f5f90505b8260ff168110156109735785818660ff1661091091906120d4565b6020811061092157610920611e11565b5b1a60f81b82828151811061093857610937611e11565b5b60200101907effffffffffffffffffffffffffffffffffffffffffffffffffffffffffffff191690815f1a90535080806001019150506108f5565b5080955050505050505b919050565b7f000000000000000000000000000000000000000000000000000000000000000073ffffffffffffffffffffffffffffffffffffffff16639cb2865885856040518363ffffffff1660e01b81526004016109dd929190611de8565b5f6040518083038186803b1580156109f3575f5ffd5b505afa158015610a05573d5f5f3e3d5ffd5b505050505f83600460068110610a1e57610a1d611e11565b5b60200201359050468114610a67576040517f08c379a0000000000000000000000000000000000000000000000000000000008152600401610a5e90612151565b60405180910390fd5b5f610a718561159c565b9050610a80815f1b85856111dc565b60015f8281526020019081526020015f205f9054906101000a900460ff1615610ade576040517f08c379a0000000000000000000000000000000000000000000000000000000008152600401610ad590611e88565b60405180910390fd5b6001805f8381526020019081526020015f205f6101000a81548160ff0219169083151502179055505f610b2886600560068110610b1e57610b1d611e11565b5b6020020135610635565b90507f000000000000000000000000000000000000000000000000000000000000000073ffffffffffffffffffffffffffffffffffffffff16631722e147826040518263ffffffff1660e01b8152600401610b839190611911565b5f604051808303815f87803b158015610b9a575f5ffd5b505af1158015610bac573d5f5f3e3d5ffd5b5050505050505050505050565b7f000000000000000000000000000000000000000000000000000000000000000081565b610be5611454565b5f73ffffffffffffffffffffffffffffffffffffffff168173ffffffffffffffffffffffffffffffffffffffff1603610c55575f6040517f1e4fbdf7000000000000000000000000000000000000000000000000000000008152600401610c4c9190611911565b60405180910390fd5b610c5e816114db565b50565b7f000000000000000000000000000000000000000000000000000000000000000073ffffffffffffffffffffffffffffffffffffffff16639cb2865885856040518363ffffffff1660e01b8152600401610cbc929190611de8565b5f6040518083038186803b158015610cd2575f5ffd5b505afa158015610ce4573d5f5f3e3d5ffd5b505050505f83600560068110610cfd57610cfc611e11565b5b60200201359050468114610d46576040517f08c379a0000000000000000000000000000000000000000000000000000000008152600401610d3d90612151565b60405180910390fd5b5f610d6885600360068110610d5e57610d5d611e11565b5b6020020135610780565b90505f610d8c86600260068110610d8257610d81611e11565b5b6020020135610780565b90505f610db087600460068110610da657610da5611e11565b5b6020020135610396565b90505f610dbc8861110d565b9050610dcb815f1b88886111dc565b60015f8281526020019081526020015f205f9054906101000a900460ff1615610e29576040517f08c379a0000000000000000000000000000000000000000000000000000000008152600401610e2090611e88565b60405180910390fd5b6001805f8381526020019081526020015f205f6101000a81548160ff0219169083151502179055507f000000000000000000000000000000000000000000000000000000000000000073ffffffffffffffffffffffffffffffffffffffff16632e057b9b8486856040518463ffffffff1660e01b8152600401610eae9392919061216f565b5f604051808303815f87803b158015610ec5575f5ffd5b505af1158015610ed7573d5f5f3e3d5ffd5b50505050505050505050505050565b7f000000000000000000000000000000000000000000000000000000000000000081565b5f81604051602001610f1c919061222d565b604051602081830303815290604052805190602001209050919050565b5f5f60605f84600560068110610f5257610f51611e11565b5b602002013590508067ffffffffffffffff1693505f604082901c63ffffffff169050468114610fb6576040517f08c379a0000000000000000000000000000000000000000000000000000000008152600401610fad90612151565b60405180910390fd5b5f608083901c9050610fc781610780565b93505f610feb88600460068110610fe157610fe0611e11565b5b6020020135610780565b90505f81604051602001610fff91906122cc565b60405160208183030381529060405290505f7f000000000000000000000000000000000000000000000000000000000000000073ffffffffffffffffffffffffffffffffffffffff166316f1adc1836040518263ffffffff1660e01b815260040161106a9190612337565b5f60405180830381865afa158015611084573d5f5f3e3d5ffd5b505050506040513d5f823e3d601f19601f820116820180604052508101906110ac91906123d8565b90505f8151116110f1576040517f08c379a00000000000000000000000000000000000000000000000000000000081526004016110e890612469565b60405180910390fd5b806110fb906124e1565b60601c97505050505050509193909250565b5f5f825f6006811061112257611121611e11565b5b60200201358360016006811061113b5761113a611e11565b5b60200201358460026006811061115457611153611e11565b5b60200201358560036006811061116d5761116c611e11565b5b60200201358660046006811061118657611185611e11565b5b60200201358760056006811061119f5761119e611e11565b5b60200201356040516020016111b996959493929190612547565b604051602081830303815290604052805190602001209050805f1c915050919050565b5f6111e684610f0a565b90505f7f000000000000000000000000000000000000000000000000000000000000000073ffffffffffffffffffffffffffffffffffffffff16631442e4c96040518163ffffffff1660e01b81526004015f60405180830381865afa158015611251573d5f5f3e3d5ffd5b505050506040513d5f823e3d601f19601f82011682018060405250810190611279919061268a565b90505f5f90505b8484905081101561144c57365f868660418561129c91906126d1565b9060416001876112ac91906120d4565b6112b691906126d1565b926112c39392919061271a565b915091505f6113158684848080601f0160208091040260200160405190810160405280939291908181526020018383808284375f81840152601f19601f82011690508083019250505050505050610665565b90505f73ffffffffffffffffffffffffffffffffffffffff168173ffffffffffffffffffffffffffffffffffffffff1603611385576040517f08c379a000000000000000000000000000000000000000000000000000000000815260040161137c9061279e565b60405180910390fd5b5f5f90505f5f90505b86518110156113fa578273ffffffffffffffffffffffffffffffffffffffff168782815181106113c1576113c0611e11565b5b602002602001015173ffffffffffffffffffffffffffffffffffffffff16036113ed57600191506113fa565b808060010191505061138e565b508061143b576040517f08c379a000000000000000000000000000000000000000000000000000000000815260040161143290612806565b60405180910390fd5b505050508080600101915050611280565b505050505050565b61145c611651565b73ffffffffffffffffffffffffffffffffffffffff1661147a61063e565b73ffffffffffffffffffffffffffffffffffffffff16146114d95761149d611651565b6040517f118cdaa70000000000000000000000000000000000000000000000000000000081526004016114d09190611911565b60405180910390fd5b565b5f5f5f9054906101000a900473ffffffffffffffffffffffffffffffffffffffff169050815f5f6101000a81548173ffffffffffffffffffffffffffffffffffffffff021916908373ffffffffffffffffffffffffffffffffffffffff1602179055508173ffffffffffffffffffffffffffffffffffffffff168173ffffffffffffffffffffffffffffffffffffffff167f8be0079c531659141344cd1fd0a4f28419497f9722a3daafe3b4186f6b6457e060405160405180910390a35050565b5f5f825f600681106115b1576115b0611e11565b5b6020020135836001600681106115ca576115c9611e11565b5b6020020135846002600681106115e3576115e2611e11565b5b6020020135856003600681106115fc576115fb611e11565b5b60200201358660046006811061161557611614611e11565b5b602002013560405160200161162e959493929190612824565b604051602081830303815290604052805190602001209050805f1c915050919050565b5f33905090565b5f604051905090565b5f5ffd5b5f5ffd5b5f819050919050565b61167b81611669565b8114611685575f5ffd5b50565b5f8135905061169681611672565b92915050565b5f602082840312156116b1576116b0611661565b5b5f6116be84828501611688565b91505092915050565b5f81519050919050565b5f82825260208201905092915050565b8281835e5f83830152505050565b5f601f19601f8301169050919050565b5f611709826116c7565b61171381856116d1565b93506117238185602086016116e1565b61172c816116ef565b840191505092915050565b5f6020820190508181035f83015261174f81846116ff565b905092915050565b5f5ffd5b5f8190508260206008028201111561177657611775611757565b5b92915050565b5f8190508260206006028201111561179757611796611757565b5b92915050565b5f5ffd5b5f5ffd5b5f5f83601f8401126117ba576117b961179d565b5b8235905067ffffffffffffffff8111156117d7576117d66117a1565b5b6020830191508360018202830111156117f3576117f2611757565b5b9250929050565b5f5f5f5f6101e0858703121561181357611812611661565b5b5f6118208782880161175b565b9450506101006118328782880161177c565b9350506101c085013567ffffffffffffffff81111561185457611853611665565b5b611860878288016117a5565b925092505092959194509250565b5f5f5f5f6080858703121561188657611885611661565b5b5f61189387828801611688565b94505060206118a487828801611688565b93505060406118b587828801611688565b92505060606118c687828801611688565b91505092959194509250565b5f73ffffffffffffffffffffffffffffffffffffffff82169050919050565b5f6118fb826118d2565b9050919050565b61190b816118f1565b82525050565b5f6020820190506119245f830184611902565b92915050565b5f819050919050565b5f61194d611948611943846118d2565b61192a565b6118d2565b9050919050565b5f61195e82611933565b9050919050565b5f61196f82611954565b9050919050565b61197f81611965565b82525050565b5f6020820190506119985f830184611976565b92915050565b5f819050919050565b6119b08161199e565b81146119ba575f5ffd5b50565b5f813590506119cb816119a7565b92915050565b5f5ffd5b7f4e487b71000000000000000000000000000000000000000000000000000000005f52604160045260245ffd5b611a0b826116ef565b810181811067ffffffffffffffff82111715611a2a57611a296119d5565b5b80604052505050565b5f611a3c611658565b9050611a488282611a02565b919050565b5f67ffffffffffffffff821115611a6757611a666119d5565b5b611a70826116ef565b9050602081019050919050565b828183375f83830152505050565b5f611a9d611a9884611a4d565b611a33565b905082815260208101848484011115611ab957611ab86119d1565b5b611ac4848285611a7d565b509392505050565b5f82601f830112611ae057611adf61179d565b5b8135611af0848260208601611a8b565b91505092915050565b5f5f60408385031215611b0f57611b0e611661565b5b5f611b1c858286016119bd565b925050602083013567ffffffffffffffff811115611b3d57611b3c611665565b5b611b4985828601611acc565b9150509250929050565b5f8115159050919050565b611b6781611b53565b82525050565b5f602082019050611b805f830184611b5e565b92915050565b5f611b9082611954565b9050919050565b611ba081611b86565b82525050565b5f602082019050611bb95f830184611b97565b92915050565b5f611bc982611954565b9050919050565b611bd981611bbf565b82525050565b5f602082019050611bf25f830184611bd0565b92915050565b5f81519050919050565b5f82825260208201905092915050565b5f611c1c82611bf8565b611c268185611c02565b9350611c368185602086016116e1565b611c3f816116ef565b840191505092915050565b5f6020820190508181035f830152611c628184611c12565b905092915050565b5f611c7482611954565b9050919050565b611c8481611c6a565b82525050565b5f602082019050611c9d5f830184611c7b565b92915050565b611cac816118f1565b8114611cb6575f5ffd5b50565b5f81359050611cc781611ca3565b92915050565b5f60208284031215611ce257611ce1611661565b5b5f611cef84828501611cb9565b91505092915050565b5f611d0282611954565b9050919050565b611d1281611cf8565b82525050565b5f602082019050611d2b5f830184611d09565b92915050565b5f60208284031215611d4657611d45611661565b5b5f611d53848285016119bd565b91505092915050565b611d658161199e565b82525050565b5f602082019050611d7e5f830184611d5c565b92915050565b5f819050919050565b611d9e611d9982611669565b611d84565b82525050565b5f611daf8284611d8d565b60208201915081905092915050565b82818337505050565b611dd46101008383611dbe565b5050565b611de460c08383611dbe565b5050565b5f6101c082019050611dfc5f830185611dc7565b611e0a610100830184611dd8565b9392505050565b7f4e487b71000000000000000000000000000000000000000000000000000000005f52603260045260245ffd5b7f5265706c61792061747461636b206465746563746564000000000000000000005f82015250565b5f611e72601683611c02565b9150611e7d82611e3e565b602082019050919050565b5f6020820190508181035f830152611e9f81611e66565b9050919050565b611eaf81611669565b82525050565b5f608082019050611ec85f830187611902565b8181036020830152611eda8186611c12565b9050611ee96040830185611ea6565b611ef66060830184611ea6565b95945050505050565b5f611f0a8285611d8d565b602082019150611f1a8284611d8d565b6020820191508190509392505050565b7f496e76616c6964207369676e6174757265206c656e67746800000000000000005f82015250565b5f611f5e601883611c02565b9150611f6982611f2a565b602082019050919050565b5f6020820190508181035f830152611f8b81611f52565b9050919050565b5f60ff82169050919050565b611fa781611f92565b82525050565b5f608082019050611fc05f830187611d5c565b611fcd6020830186611f9e565b611fda6040830185611d5c565b611fe76060830184611d5c565b95945050505050565b7f4e487b71000000000000000000000000000000000000000000000000000000005f52601160045260245ffd5b5f61202782611f92565b915060ff820361203a57612039611ff0565b5b600182019050919050565b5f61204f82611f92565b91505f820361206157612060611ff0565b5b600182039050919050565b5f61207682611f92565b915061208183611f92565b9250828203905060ff81111561209a57612099611ff0565b5b92915050565b5f6120aa82611f92565b91506120b583611f92565b9250828201905060ff8111156120ce576120cd611ff0565b5b92915050565b5f6120de82611669565b91506120e983611669565b925082820190508082111561210157612100611ff0565b5b92915050565b7f57726f6e672064657374696e6174696f6e20636861696e0000000000000000005f82015250565b5f61213b601783611c02565b915061214682612107565b602082019050919050565b5f6020820190508181035f8301526121688161212f565b9050919050565b5f6060820190508181035f8301526121878186611c12565b9050818103602083015261219b8185611c12565b905081810360408301526121af81846116ff565b9050949350505050565b5f81905092915050565b7f19457468657265756d205369676e6564204d6573736167653a0a3332000000005f82015250565b5f6121f7601c836121b9565b9150612202826121c3565b601c82019050919050565b5f819050919050565b6122276122228261199e565b61220d565b82525050565b5f612237826121eb565b91506122438284612216565b60208201915081905092915050565b5f61225c82611bf8565b61226681856121b9565b93506122768185602086016116e1565b80840191505092915050565b7f5f7661756c7400000000000000000000000000000000000000000000000000005f82015250565b5f6122b66006836121b9565b91506122c182612282565b600682019050919050565b5f6122d78284612252565b91506122e2826122aa565b915081905092915050565b7f51696172614261736541737365747300000000000000000000000000000000005f82015250565b5f612321600f83611c02565b915061232c826122ed565b602082019050919050565b5f6040820190508181035f83015261234e81612315565b905081810360208301526123628184611c12565b905092915050565b5f61237c61237784611a4d565b611a33565b905082815260208101848484011115612398576123976119d1565b5b6123a38482856116e1565b509392505050565b5f82601f8301126123bf576123be61179d565b5b81516123cf84826020860161236a565b91505092915050565b5f602082840312156123ed576123ec611661565b5b5f82015167ffffffffffffffff81111561240a57612409611665565b5b612416848285016123ab565b91505092915050565b7f5661756c74206e6f7420617574686f72697a65640000000000000000000000005f82015250565b5f612453601483611c02565b915061245e8261241f565b602082019050919050565b5f6020820190508181035f83015261248081612447565b9050919050565b5f819050602082019050919050565b5f7fffffffffffffffffffffffffffffffffffffffff00000000000000000000000082169050919050565b5f6124cc8251612496565b80915050919050565b5f82821b905092915050565b5f6124eb826116c7565b826124f584612487565b9050612500816124c1565b925060148210156125405761253b7fffffffffffffffffffffffffffffffffffffffff000000000000000000000000836014036008026124d5565b831692505b5050919050565b5f6125528289611d8d565b6020820191506125628288611d8d565b6020820191506125728287611d8d565b6020820191506125828286611d8d565b6020820191506125928285611d8d565b6020820191506125a28284611d8d565b602082019150819050979650505050505050565b5f67ffffffffffffffff8211156125d0576125cf6119d5565b5b602082029050602081019050919050565b5f815190506125ef81611ca3565b92915050565b5f612607612602846125b6565b611a33565b9050808382526020820190506020840283018581111561262a57612629611757565b5b835b81811015612653578061263f88826125e1565b84526020840193505060208101905061262c565b5050509392505050565b5f82601f8301126126715761267061179d565b5b81516126818482602086016125f5565b91505092915050565b5f6020828403121561269f5761269e611661565b5b5f82015167ffffffffffffffff8111156126bc576126bb611665565b5b6126c88482850161265d565b91505092915050565b5f6126db82611669565b91506126e683611669565b92508282026126f481611669565b9150828204841483151761270b5761270a611ff0565b5b5092915050565b5f5ffd5b5f5ffd5b5f5f8585111561272d5761272c612712565b5b8386111561273e5761273d612716565b5b6001850283019150848603905094509492505050565b7f496e76616c6964207369676e61747572650000000000000000000000000000005f82015250565b5f612788601183611c02565b915061279382612754565b602082019050919050565b5f6020820190508181035f8301526127b58161277c565b9050919050565b7f5369676e6572206e6f7420616e206163746976652076616c696461746f7200005f82015250565b5f6127f0601e83611c02565b91506127fb826127bc565b602082019050919050565b5f6020820190508181035f83015261281d816127e4565b9050919050565b5f61282f8288611d8d565b60208201915061283f8287611d8d565b60208201915061284f8286611d8d565b60208201915061285f8285611d8d565b60208201915061286f8284611d8d565b602082019150819050969550505050505056fea26469706673582212206f037d830704bdd4a25ad41b2cc4928f87d1c83999d4bbe8b27994dc1db2f1bd64736f6c634300081f0033",
					"opcodes": "PUSH2 0x120 PUSH1 0x40 MSTORE CALLVALUE DUP1 ISZERO PUSH2 0x10 JUMPI PUSH0 PUSH0 REVERT JUMPDEST POP PUSH1 0x40 MLOAD PUSH2 0x2CA6 CODESIZE SUB DUP1 PUSH2 0x2CA6 DUP4 CODECOPY DUP2 DUP2 ADD PUSH1 0x40 MSTORE DUP2 ADD SWAP1 PUSH2 0x32 SWAP2 SWAP1 PUSH2 0x2E1 JUMP JUMPDEST CALLER PUSH0 PUSH20 0xFFFFFFFFFFFFFFFFFFFFFFFFFFFFFFFFFFFFFFFF AND DUP2 PUSH20 0xFFFFFFFFFFFFFFFFFFFFFFFFFFFFFFFFFFFFFFFF AND SUB PUSH2 0xA3 JUMPI PUSH0 PUSH1 0x40 MLOAD PUSH32 0x1E4FBDF700000000000000000000000000000000000000000000000000000000 DUP2 MSTORE PUSH1 0x4 ADD PUSH2 0x9A SWAP2 SWAP1 PUSH2 0x367 JUMP JUMPDEST PUSH1 0x40 MLOAD DUP1 SWAP2 SUB SWAP1 REVERT JUMPDEST PUSH2 0xB2 DUP2 PUSH2 0x1C2 PUSH1 0x20 SHL PUSH1 0x20 SHR JUMP JUMPDEST POP DUP5 PUSH20 0xFFFFFFFFFFFFFFFFFFFFFFFFFFFFFFFFFFFFFFFF AND PUSH1 0x80 DUP2 PUSH20 0xFFFFFFFFFFFFFFFFFFFFFFFFFFFFFFFFFFFFFFFF AND DUP2 MSTORE POP POP DUP4 PUSH20 0xFFFFFFFFFFFFFFFFFFFFFFFFFFFFFFFFFFFFFFFF AND PUSH1 0xA0 DUP2 PUSH20 0xFFFFFFFFFFFFFFFFFFFFFFFFFFFFFFFFFFFFFFFF AND DUP2 MSTORE POP POP DUP3 PUSH20 0xFFFFFFFFFFFFFFFFFFFFFFFFFFFFFFFFFFFFFFFF AND PUSH1 0xC0 DUP2 PUSH20 0xFFFFFFFFFFFFFFFFFFFFFFFFFFFFFFFFFFFFFFFF AND DUP2 MSTORE POP POP DUP2 PUSH20 0xFFFFFFFFFFFFFFFFFFFFFFFFFFFFFFFFFFFFFFFF AND PUSH1 0xE0 DUP2 PUSH20 0xFFFFFFFFFFFFFFFFFFFFFFFFFFFFFFFFFFFFFFFF AND DUP2 MSTORE POP POP DUP1 PUSH20 0xFFFFFFFFFFFFFFFFFFFFFFFFFFFFFFFFFFFFFFFF AND PUSH2 0x100 DUP2 PUSH20 0xFFFFFFFFFFFFFFFFFFFFFFFFFFFFFFFFFFFFFFFF AND DUP2 MSTORE POP POP POP POP POP POP POP PUSH2 0x380 JUMP JUMPDEST PUSH0 PUSH0 PUSH0 SWAP1 SLOAD SWAP1 PUSH2 0x100 EXP SWAP1 DIV PUSH20 0xFFFFFFFFFFFFFFFFFFFFFFFFFFFFFFFFFFFFFFFF AND SWAP1 POP DUP2 PUSH0 PUSH0 PUSH2 0x100 EXP DUP2 SLOAD DUP2 PUSH20 0xFFFFFFFFFFFFFFFFFFFFFFFFFFFFFFFFFFFFFFFF MUL NOT AND SWAP1 DUP4 PUSH20 0xFFFFFFFFFFFFFFFFFFFFFFFFFFFFFFFFFFFFFFFF AND MUL OR SWAP1 SSTORE POP DUP2 PUSH20 0xFFFFFFFFFFFFFFFFFFFFFFFFFFFFFFFFFFFFFFFF AND DUP2 PUSH20 0xFFFFFFFFFFFFFFFFFFFFFFFFFFFFFFFFFFFFFFFF AND PUSH32 0x8BE0079C531659141344CD1FD0A4F28419497F9722A3DAAFE3B4186F6B6457E0 PUSH1 0x40 MLOAD PUSH1 0x40 MLOAD DUP1 SWAP2 SUB SWAP1 LOG3 POP POP JUMP JUMPDEST PUSH0 PUSH0 REVERT JUMPDEST PUSH0 PUSH20 0xFFFFFFFFFFFFFFFFFFFFFFFFFFFFFFFFFFFFFFFF DUP3 AND SWAP1 POP SWAP2 SWAP1 POP JUMP JUMPDEST PUSH0 PUSH2 0x2B0 DUP3 PUSH2 0x287 JUMP JUMPDEST SWAP1 POP SWAP2 SWAP1 POP JUMP JUMPDEST PUSH2 0x2C0 DUP2 PUSH2 0x2A6 JUMP JUMPDEST DUP2 EQ PUSH2 0x2CA JUMPI PUSH0 PUSH0 REVERT JUMPDEST POP JUMP JUMPDEST PUSH0 DUP2 MLOAD SWAP1 POP PUSH2 0x2DB DUP2 PUSH2 0x2B7 JUMP JUMPDEST SWAP3 SWAP2 POP POP JUMP JUMPDEST PUSH0 PUSH0 PUSH0 PUSH0 PUSH0 PUSH1 0xA0 DUP7 DUP9 SUB SLT ISZERO PUSH2 0x2FA JUMPI PUSH2 0x2F9 PUSH2 0x283 JUMP JUMPDEST JUMPDEST PUSH0 PUSH2 0x307 DUP9 DUP3 DUP10 ADD PUSH2 0x2CD JUMP JUMPDEST SWAP6 POP POP PUSH1 0x20 PUSH2 0x318 DUP9 DUP3 DUP10 ADD PUSH2 0x2CD JUMP JUMPDEST SWAP5 POP POP PUSH1 0x40 PUSH2 0x329 DUP9 DUP3 DUP10 ADD PUSH2 0x2CD JUMP JUMPDEST SWAP4 POP POP PUSH1 0x60 PUSH2 0x33A DUP9 DUP3 DUP10 ADD PUSH2 0x2CD JUMP JUMPDEST SWAP3 POP POP PUSH1 0x80 PUSH2 0x34B DUP9 DUP3 DUP10 ADD PUSH2 0x2CD JUMP JUMPDEST SWAP2 POP POP SWAP3 SWAP6 POP SWAP3 SWAP6 SWAP1 SWAP4 POP JUMP JUMPDEST PUSH2 0x361 DUP2 PUSH2 0x2A6 JUMP JUMPDEST DUP3 MSTORE POP POP JUMP JUMPDEST PUSH0 PUSH1 0x20 DUP3 ADD SWAP1 POP PUSH2 0x37A PUSH0 DUP4 ADD DUP5 PUSH2 0x358 JUMP JUMPDEST SWAP3 SWAP2 POP POP JUMP JUMPDEST PUSH1 0x80 MLOAD PUSH1 0xA0 MLOAD PUSH1 0xC0 MLOAD PUSH1 0xE0 MLOAD PUSH2 0x100 MLOAD PUSH2 0x28B8 PUSH2 0x3EE PUSH0 CODECOPY PUSH0 DUP2 DUP2 PUSH2 0x73A ADD MSTORE DUP2 DUP2 PUSH2 0xB2C ADD MSTORE PUSH2 0x11EB ADD MSTORE PUSH0 DUP2 DUP2 PUSH2 0xBBB ADD MSTORE DUP2 DUP2 PUSH2 0xE53 ADD MSTORE PUSH2 0x1013 ADD MSTORE PUSH0 DUP2 DUP2 PUSH2 0x75E ADD MSTORE PUSH2 0x984 ADD MSTORE PUSH0 DUP2 DUP2 PUSH2 0x600 ADD MSTORE PUSH2 0xC63 ADD MSTORE PUSH0 DUP2 DUP2 PUSH2 0x3C1 ADD MSTORE PUSH2 0xEE8 ADD MSTORE PUSH2 0x28B8 PUSH0 RETURN INVALID PUSH1 0x80 PUSH1 0x40 MSTORE CALLVALUE DUP1 ISZERO PUSH2 0xF JUMPI PUSH0 PUSH0 REVERT JUMPDEST POP PUSH1 0x4 CALLDATASIZE LT PUSH2 0x114 JUMPI PUSH0 CALLDATALOAD PUSH1 0xE0 SHR DUP1 PUSH4 0xAED881D8 GT PUSH2 0xA0 JUMPI DUP1 PUSH4 0xBF4D766E GT PUSH2 0x6F JUMPI DUP1 PUSH4 0xBF4D766E EQ PUSH2 0x2F2 JUMPI DUP1 PUSH4 0xF2FDE38B EQ PUSH2 0x310 JUMPI DUP1 PUSH4 0xF82D29D9 EQ PUSH2 0x32C JUMPI DUP1 PUSH4 0xF90C0F40 EQ PUSH2 0x348 JUMPI DUP1 PUSH4 0xFA540801 EQ PUSH2 0x366 JUMPI PUSH2 0x114 JUMP JUMPDEST DUP1 PUSH4 0xAED881D8 EQ PUSH2 0x26A JUMPI DUP1 PUSH4 0xB3D63003 EQ PUSH2 0x288 JUMPI DUP1 PUSH4 0xB648F220 EQ PUSH2 0x2A6 JUMPI DUP1 PUSH4 0xBDF877C9 EQ PUSH2 0x2D6 JUMPI PUSH2 0x114 JUMP JUMPDEST DUP1 PUSH4 0x715018A6 GT PUSH2 0xE7 JUMPI DUP1 PUSH4 0x715018A6 EQ PUSH2 0x1B2 JUMPI DUP1 PUSH4 0x7A988C54 EQ PUSH2 0x1BC JUMPI DUP1 PUSH4 0x8DA5CB5B EQ PUSH2 0x1EC JUMPI DUP1 PUSH4 0x97ABA7F9 EQ PUSH2 0x20A JUMPI DUP1 PUSH4 0xAAD24061 EQ PUSH2 0x23A JUMPI PUSH2 0x114 JUMP JUMPDEST DUP1 PUSH4 0x19B8C941 EQ PUSH2 0x118 JUMPI DUP1 PUSH4 0x392C8731 EQ PUSH2 0x148 JUMPI DUP1 PUSH4 0x41E532CA EQ PUSH2 0x164 JUMPI DUP1 PUSH4 0x4EB30D41 EQ PUSH2 0x194 JUMPI JUMPDEST PUSH0 PUSH0 REVERT JUMPDEST PUSH2 0x132 PUSH1 0x4 DUP1 CALLDATASIZE SUB DUP2 ADD SWAP1 PUSH2 0x12D SWAP2 SWAP1 PUSH2 0x169C JUMP JUMPDEST PUSH2 0x396 JUMP JUMPDEST PUSH1 0x40 MLOAD PUSH2 0x13F SWAP2 SWAP1 PUSH2 0x1737 JUMP JUMPDEST PUSH1 0x40 MLOAD DUP1 SWAP2 SUB SWAP1 RETURN JUMPDEST PUSH2 0x162 PUSH1 0x4 DUP1 CALLDATASIZE SUB DUP2 ADD SWAP1 PUSH2 0x15D SWAP2 SWAP1 PUSH2 0x17FA JUMP JUMPDEST PUSH2 0x3BF JUMP JUMPDEST STOP JUMPDEST PUSH2 0x17E PUSH1 0x4 DUP1 CALLDATASIZE SUB DUP2 ADD SWAP1 PUSH2 0x179 SWAP2 SWAP1 PUSH2 0x186E JUMP JUMPDEST PUSH2 0x5B2 JUMP JUMPDEST PUSH1 0x40 MLOAD PUSH2 0x18B SWAP2 SWAP1 PUSH2 0x1911 JUMP JUMPDEST PUSH1 0x40 MLOAD DUP1 SWAP2 SUB SWAP1 RETURN JUMPDEST PUSH2 0x19C PUSH2 0x5FE JUMP JUMPDEST PUSH1 0x40 MLOAD PUSH2 0x1A9 SWAP2 SWAP1 PUSH2 0x1985 JUMP JUMPDEST PUSH1 0x40 MLOAD DUP1 SWAP2 SUB SWAP1 RETURN JUMPDEST PUSH2 0x1BA PUSH2 0x622 JUMP JUMPDEST STOP JUMPDEST PUSH2 0x1D6 PUSH1 0x4 DUP1 CALLDATASIZE SUB DUP2 ADD SWAP1 PUSH2 0x1D1 SWAP2 SWAP1 PUSH2 0x169C JUMP JUMPDEST PUSH2 0x635 JUMP JUMPDEST PUSH1 0x40 MLOAD PUSH2 0x1E3 SWAP2 SWAP1 PUSH2 0x1911 JUMP JUMPDEST PUSH1 0x40 MLOAD DUP1 SWAP2 SUB SWAP1 RETURN JUMPDEST PUSH2 0x1F4 PUSH2 0x63E JUMP JUMPDEST PUSH1 0x40 MLOAD PUSH2 0x201 SWAP2 SWAP1 PUSH2 0x1911 JUMP JUMPDEST PUSH1 0x40 MLOAD DUP1 SWAP2 SUB SWAP1 RETURN JUMPDEST PUSH2 0x224 PUSH1 0x4 DUP1 CALLDATASIZE SUB DUP2 ADD SWAP1 PUSH2 0x21F SWAP2 SWAP1 PUSH2 0x1AF9 JUMP JUMPDEST PUSH2 0x665 JUMP JUMPDEST PUSH1 0x40 MLOAD PUSH2 0x231 SWAP2 SWAP1 PUSH2 0x1911 JUMP JUMPDEST PUSH1 0x40 MLOAD DUP1 SWAP2 SUB SWAP1 RETURN JUMPDEST PUSH2 0x254 PUSH1 0x4 DUP1 CALLDATASIZE SUB DUP2 ADD SWAP1 PUSH2 0x24F SWAP2 SWAP1 PUSH2 0x169C JUMP JUMPDEST PUSH2 0x71B JUMP JUMPDEST PUSH1 0x40 MLOAD PUSH2 0x261 SWAP2 SWAP1 PUSH2 0x1B6D JUMP JUMPDEST PUSH1 0x40 MLOAD DUP1 SWAP2 SUB SWAP1 RETURN JUMPDEST PUSH2 0x272 PUSH2 0x738 JUMP JUMPDEST PUSH1 0x40 MLOAD PUSH2 0x27F SWAP2 SWAP1 PUSH2 0x1BA6 JUMP JUMPDEST PUSH1 0x40 MLOAD DUP1 SWAP2 SUB SWAP1 RETURN JUMPDEST PUSH2 0x290 PUSH2 0x75C JUMP JUMPDEST PUSH1 0x40 MLOAD PUSH2 0x29D SWAP2 SWAP1 PUSH2 0x1BDF JUMP JUMPDEST PUSH1 0x40 MLOAD DUP1 SWAP2 SUB SWAP1 RETURN JUMPDEST PUSH2 0x2C0 PUSH1 0x4 DUP1 CALLDATASIZE SUB DUP2 ADD SWAP1 PUSH2 0x2BB SWAP2 SWAP1 PUSH2 0x169C JUMP JUMPDEST PUSH2 0x780 JUMP JUMPDEST PUSH1 0x40 MLOAD PUSH2 0x2CD SWAP2 SWAP1 PUSH2 0x1C4A JUMP JUMPDEST PUSH1 0x40 MLOAD DUP1 SWAP2 SUB SWAP1 RETURN JUMPDEST PUSH2 0x2F0 PUSH1 0x4 DUP1 CALLDATASIZE SUB DUP2 ADD SWAP1 PUSH2 0x2EB SWAP2 SWAP1 PUSH2 0x17FA JUMP JUMPDEST PUSH2 0x982 JUMP JUMPDEST STOP JUMPDEST PUSH2 0x2FA PUSH2 0xBB9 JUMP JUMPDEST PUSH1 0x40 MLOAD PUSH2 0x307 SWAP2 SWAP1 PUSH2 0x1C8A JUMP JUMPDEST PUSH1 0x40 MLOAD DUP1 SWAP2 SUB SWAP1 RETURN JUMPDEST PUSH2 0x32A PUSH1 0x4 DUP1 CALLDATASIZE SUB DUP2 ADD SWAP1 PUSH2 0x325 SWAP2 SWAP1 PUSH2 0x1CCD JUMP JUMPDEST PUSH2 0xBDD JUMP JUMPDEST STOP JUMPDEST PUSH2 0x346 PUSH1 0x4 DUP1 CALLDATASIZE SUB DUP2 ADD SWAP1 PUSH2 0x341 SWAP2 SWAP1 PUSH2 0x17FA JUMP JUMPDEST PUSH2 0xC61 JUMP JUMPDEST STOP JUMPDEST PUSH2 0x350 PUSH2 0xEE6 JUMP JUMPDEST PUSH1 0x40 MLOAD PUSH2 0x35D SWAP2 SWAP1 PUSH2 0x1D18 JUMP JUMPDEST PUSH1 0x40 MLOAD DUP1 SWAP2 SUB SWAP1 RETURN JUMPDEST PUSH2 0x380 PUSH1 0x4 DUP1 CALLDATASIZE SUB DUP2 ADD SWAP1 PUSH2 0x37B SWAP2 SWAP1 PUSH2 0x1D31 JUMP JUMPDEST PUSH2 0xF0A JUMP JUMPDEST PUSH1 0x40 MLOAD PUSH2 0x38D SWAP2 SWAP1 PUSH2 0x1D6B JUMP JUMPDEST PUSH1 0x40 MLOAD DUP1 SWAP2 SUB SWAP1 RETURN JUMPDEST PUSH1 0x60 DUP2 PUSH1 0x40 MLOAD PUSH1 0x20 ADD PUSH2 0x3A9 SWAP2 SWAP1 PUSH2 0x1DA4 JUMP JUMPDEST PUSH1 0x40 MLOAD PUSH1 0x20 DUP2 DUP4 SUB SUB DUP2 MSTORE SWAP1 PUSH1 0x40 MSTORE SWAP1 POP SWAP2 SWAP1 POP JUMP JUMPDEST PUSH32 0x0 PUSH20 0xFFFFFFFFFFFFFFFFFFFFFFFFFFFFFFFFFFFFFFFF AND PUSH4 0x9CB28658 DUP6 DUP6 PUSH1 0x40 MLOAD DUP4 PUSH4 0xFFFFFFFF AND PUSH1 0xE0 SHL DUP2 MSTORE PUSH1 0x4 ADD PUSH2 0x41A SWAP3 SWAP2 SWAP1 PUSH2 0x1DE8 JUMP JUMPDEST PUSH0 PUSH1 0x40 MLOAD DUP1 DUP4 SUB DUP2 DUP7 DUP1 EXTCODESIZE ISZERO DUP1 ISZERO PUSH2 0x430 JUMPI PUSH0 PUSH0 REVERT JUMPDEST POP GAS STATICCALL ISZERO DUP1 ISZERO PUSH2 0x442 JUMPI RETURNDATASIZE PUSH0 PUSH0 RETURNDATACOPY RETURNDATASIZE PUSH0 REVERT JUMPDEST POP POP POP POP PUSH0 PUSH0 PUSH0 PUSH2 0x452 DUP7 PUSH2 0xF39 JUMP JUMPDEST SWAP3 POP SWAP3 POP SWAP3 POP PUSH0 DUP7 PUSH1 0x2 PUSH1 0x6 DUP2 LT PUSH2 0x46D JUMPI PUSH2 0x46C PUSH2 0x1E11 JUMP JUMPDEST JUMPDEST PUSH1 0x20 MUL ADD CALLDATALOAD SWAP1 POP PUSH0 DUP8 PUSH1 0x3 PUSH1 0x6 DUP2 LT PUSH2 0x489 JUMPI PUSH2 0x488 PUSH2 0x1E11 JUMP JUMPDEST JUMPDEST PUSH1 0x20 MUL ADD CALLDATALOAD SWAP1 POP PUSH0 PUSH2 0x49A DUP10 PUSH2 0x110D JUMP JUMPDEST SWAP1 POP PUSH2 0x4A9 DUP2 PUSH0 SHL DUP10 DUP10 PUSH2 0x11DC JUMP JUMPDEST PUSH1 0x1 PUSH0 DUP3 DUP2 MSTORE PUSH1 0x20 ADD SWAP1 DUP2 MSTORE PUSH1 0x20 ADD PUSH0 KECCAK256 PUSH0 SWAP1 SLOAD SWAP1 PUSH2 0x100 EXP SWAP1 DIV PUSH1 0xFF AND ISZERO PUSH2 0x507 JUMPI PUSH1 0x40 MLOAD PUSH32 0x8C379A000000000000000000000000000000000000000000000000000000000 DUP2 MSTORE PUSH1 0x4 ADD PUSH2 0x4FE SWAP1 PUSH2 0x1E88 JUMP JUMPDEST PUSH1 0x40 MLOAD DUP1 SWAP2 SUB SWAP1 REVERT JUMPDEST PUSH1 0x1 DUP1 PUSH0 DUP4 DUP2 MSTORE PUSH1 0x20 ADD SWAP1 DUP2 MSTORE PUSH1 0x20 ADD PUSH0 KECCAK256 PUSH0 PUSH2 0x100 EXP DUP2 SLOAD DUP2 PUSH1 0xFF MUL NOT AND SWAP1 DUP4 ISZERO ISZERO MUL OR SWAP1 SSTORE POP PUSH0 DUP4 PUSH1 0x80 DUP5 SWAP1 SHL OR SWAP1 POP DUP6 PUSH20 0xFFFFFFFFFFFFFFFFFFFFFFFFFFFFFFFFFFFFFFFF AND PUSH4 0x7A9ECEB4 DUP3 DUP8 DUP11 DUP7 PUSH1 0x40 MLOAD DUP6 PUSH4 0xFFFFFFFF AND PUSH1 0xE0 SHL DUP2 MSTORE PUSH1 0x4 ADD PUSH2 0x578 SWAP5 SWAP4 SWAP3 SWAP2 SWAP1 PUSH2 0x1EB5 JUMP JUMPDEST PUSH0 PUSH1 0x40 MLOAD DUP1 DUP4 SUB DUP2 PUSH0 DUP8 DUP1 EXTCODESIZE ISZERO DUP1 ISZERO PUSH2 0x58F JUMPI PUSH0 PUSH0 REVERT JUMPDEST POP GAS CALL ISZERO DUP1 ISZERO PUSH2 0x5A1 JUMPI RETURNDATASIZE PUSH0 PUSH0 RETURNDATACOPY RETURNDATASIZE PUSH0 REVERT JUMPDEST POP POP POP POP POP POP POP POP POP POP POP POP POP POP POP JUMP JUMPDEST PUSH0 PUSH0 DUP6 PUSH1 0x80 DUP7 SWAP1 SHL OR SWAP1 POP PUSH0 DUP5 PUSH1 0x80 DUP6 SWAP1 SHL OR SWAP1 POP DUP2 DUP2 PUSH1 0x40 MLOAD PUSH1 0x20 ADD PUSH2 0x5DA SWAP3 SWAP2 SWAP1 PUSH2 0x1EFF JUMP JUMPDEST PUSH1 0x40 MLOAD PUSH1 0x20 DUP2 DUP4 SUB SUB DUP2 MSTORE SWAP1 PUSH1 0x40 MSTORE DUP1 MLOAD SWAP1 PUSH1 0x20 ADD KECCAK256 PUSH0 SHR SWAP3 POP POP POP SWAP5 SWAP4 POP POP POP POP JUMP JUMPDEST PUSH32 0x0 DUP2 JUMP JUMPDEST PUSH2 0x62A PUSH2 0x1454 JUMP JUMPDEST PUSH2 0x633 PUSH0 PUSH2 0x14DB JUMP JUMPDEST JUMP JUMPDEST PUSH0 DUP2 SWAP1 POP SWAP2 SWAP1 POP JUMP JUMPDEST PUSH0 PUSH0 PUSH0 SWAP1 SLOAD SWAP1 PUSH2 0x100 EXP SWAP1 DIV PUSH20 0xFFFFFFFFFFFFFFFFFFFFFFFFFFFFFFFFFFFFFFFF AND SWAP1 POP SWAP1 JUMP JUMPDEST PUSH0 PUSH1 0x41 DUP3 MLOAD EQ PUSH2 0x6AA JUMPI PUSH1 0x40 MLOAD PUSH32 0x8C379A000000000000000000000000000000000000000000000000000000000 DUP2 MSTORE PUSH1 0x4 ADD PUSH2 0x6A1 SWAP1 PUSH2 0x1F74 JUMP JUMPDEST PUSH1 0x40 MLOAD DUP1 SWAP2 SUB SWAP1 REVERT JUMPDEST PUSH0 PUSH0 PUSH0 PUSH1 0x20 DUP6 ADD MLOAD SWAP3 POP PUSH1 0x40 DUP6 ADD MLOAD SWAP2 POP PUSH1 0x60 DUP6 ADD MLOAD PUSH0 BYTE SWAP1 POP PUSH1 0x1 DUP7 DUP3 DUP6 DUP6 PUSH1 0x40 MLOAD PUSH0 DUP2 MSTORE PUSH1 0x20 ADD PUSH1 0x40 MSTORE PUSH1 0x40 MLOAD PUSH2 0x6E6 SWAP5 SWAP4 SWAP3 SWAP2 SWAP1 PUSH2 0x1FAD JUMP JUMPDEST PUSH1 0x20 PUSH1 0x40 MLOAD PUSH1 0x20 DUP2 SUB SWAP1 DUP1 DUP5 SUB SWAP1 DUP6 GAS STATICCALL ISZERO DUP1 ISZERO PUSH2 0x706 JUMPI RETURNDATASIZE PUSH0 PUSH0 RETURNDATACOPY RETURNDATASIZE PUSH0 REVERT JUMPDEST POP POP POP PUSH1 0x20 PUSH1 0x40 MLOAD SUB MLOAD SWAP4 POP POP POP POP SWAP3 SWAP2 POP POP JUMP JUMPDEST PUSH1 0x1 PUSH1 0x20 MSTORE DUP1 PUSH0 MSTORE PUSH1 0x40 PUSH0 KECCAK256 PUSH0 SWAP2 POP SLOAD SWAP1 PUSH2 0x100 EXP SWAP1 DIV PUSH1 0xFF AND DUP2 JUMP JUMPDEST PUSH32 0x0 DUP2 JUMP JUMPDEST PUSH32 0x0 DUP2 JUMP JUMPDEST PUSH1 0x60 PUSH0 DUP3 SUB PUSH2 0x79F JUMPI PUSH1 0x40 MLOAD DUP1 PUSH1 0x20 ADD PUSH1 0x40 MSTORE DUP1 PUSH0 DUP2 MSTORE POP SWAP1 POP PUSH2 0x97D JUMP JUMPDEST PUSH0 DUP3 PUSH0 SHL SWAP1 POP PUSH0 PUSH0 SWAP1 POP JUMPDEST PUSH1 0x20 DUP2 PUSH1 0xFF AND LT DUP1 ISZERO PUSH2 0x7FA JUMPI POP PUSH0 PUSH1 0xF8 SHL DUP3 DUP3 PUSH1 0xFF AND PUSH1 0x20 DUP2 LT PUSH2 0x7D2 JUMPI PUSH2 0x7D1 PUSH2 0x1E11 JUMP JUMPDEST JUMPDEST BYTE PUSH1 0xF8 SHL PUSH31 0xFFFFFFFFFFFFFFFFFFFFFFFFFFFFFFFFFFFFFFFFFFFFFFFFFFFFFFFFFFFFFF NOT AND EQ JUMPDEST ISZERO PUSH2 0x812 JUMPI DUP1 DUP1 PUSH2 0x80A SWAP1 PUSH2 0x201D JUMP JUMPDEST SWAP2 POP POP PUSH2 0x7AA JUMP JUMPDEST PUSH0 PUSH1 0x1F SWAP1 POP JUMPDEST DUP2 PUSH1 0xFF AND DUP2 PUSH1 0xFF AND GT DUP1 ISZERO PUSH2 0x86A JUMPI POP PUSH0 PUSH1 0xF8 SHL DUP4 DUP3 PUSH1 0xFF AND PUSH1 0x20 DUP2 LT PUSH2 0x842 JUMPI PUSH2 0x841 PUSH2 0x1E11 JUMP JUMPDEST JUMPDEST BYTE PUSH1 0xF8 SHL PUSH31 0xFFFFFFFFFFFFFFFFFFFFFFFFFFFFFFFFFFFFFFFFFFFFFFFFFFFFFFFFFFFFFF NOT AND EQ JUMPDEST ISZERO PUSH2 0x882 JUMPI DUP1 DUP1 PUSH2 0x87A SWAP1 PUSH2 0x2045 JUMP JUMPDEST SWAP2 POP POP PUSH2 0x818 JUMP JUMPDEST PUSH0 PUSH1 0x1 DUP4 DUP4 PUSH2 0x891 SWAP2 SWAP1 PUSH2 0x206C JUMP JUMPDEST PUSH2 0x89B SWAP2 SWAP1 PUSH2 0x20A0 JUMP JUMPDEST SWAP1 POP PUSH0 DUP2 PUSH1 0xFF AND PUSH8 0xFFFFFFFFFFFFFFFF DUP2 GT ISZERO PUSH2 0x8BB JUMPI PUSH2 0x8BA PUSH2 0x19D5 JUMP JUMPDEST JUMPDEST PUSH1 0x40 MLOAD SWAP1 DUP1 DUP3 MSTORE DUP1 PUSH1 0x1F ADD PUSH1 0x1F NOT AND PUSH1 0x20 ADD DUP3 ADD PUSH1 0x40 MSTORE DUP1 ISZERO PUSH2 0x8ED JUMPI DUP2 PUSH1 0x20 ADD PUSH1 0x1 DUP3 MUL DUP1 CALLDATASIZE DUP4 CALLDATACOPY DUP1 DUP3 ADD SWAP2 POP POP SWAP1 POP JUMPDEST POP SWAP1 POP PUSH0 PUSH0 SWAP1 POP JUMPDEST DUP3 PUSH1 0xFF AND DUP2 LT ISZERO PUSH2 0x973 JUMPI DUP6 DUP2 DUP7 PUSH1 0xFF AND PUSH2 0x910 SWAP2 SWAP1 PUSH2 0x20D4 JUMP JUMPDEST PUSH1 0x20 DUP2 LT PUSH2 0x921 JUMPI PUSH2 0x920 PUSH2 0x1E11 JUMP JUMPDEST JUMPDEST BYTE PUSH1 0xF8 SHL DUP3 DUP3 DUP2 MLOAD DUP2 LT PUSH2 0x938 JUMPI PUSH2 0x937 PUSH2 0x1E11 JUMP JUMPDEST JUMPDEST PUSH1 0x20 ADD ADD SWAP1 PUSH31 0xFFFFFFFFFFFFFFFFFFFFFFFFFFFFFFFFFFFFFFFFFFFFFFFFFFFFFFFFFFFFFF NOT AND SWAP1 DUP2 PUSH0 BYTE SWAP1 MSTORE8 POP DUP1 DUP1 PUSH1 0x1 ADD SWAP2 POP POP PUSH2 0x8F5 JUMP JUMPDEST POP DUP1 SWAP6 POP POP POP POP POP POP JUMPDEST SWAP2 SWAP1 POP JUMP JUMPDEST PUSH32 0x0 PUSH20 0xFFFFFFFFFFFFFFFFFFFFFFFFFFFFFFFFFFFFFFFF AND PUSH4 0x9CB28658 DUP6 DUP6 PUSH1 0x40 MLOAD DUP4 PUSH4 0xFFFFFFFF AND PUSH1 0xE0 SHL DUP2 MSTORE PUSH1 0x4 ADD PUSH2 0x9DD SWAP3 SWAP2 SWAP1 PUSH2 0x1DE8 JUMP JUMPDEST PUSH0 PUSH1 0x40 MLOAD DUP1 DUP4 SUB DUP2 DUP7 DUP1 EXTCODESIZE ISZERO DUP1 ISZERO PUSH2 0x9F3 JUMPI PUSH0 PUSH0 REVERT JUMPDEST POP GAS STATICCALL ISZERO DUP1 ISZERO PUSH2 0xA05 JUMPI RETURNDATASIZE PUSH0 PUSH0 RETURNDATACOPY RETURNDATASIZE PUSH0 REVERT JUMPDEST POP POP POP POP PUSH0 DUP4 PUSH1 0x4 PUSH1 0x6 DUP2 LT PUSH2 0xA1E JUMPI PUSH2 0xA1D PUSH2 0x1E11 JUMP JUMPDEST JUMPDEST PUSH1 0x20 MUL ADD CALLDATALOAD SWAP1 POP CHAINID DUP2 EQ PUSH2 0xA67 JUMPI PUSH1 0x40 MLOAD PUSH32 0x8C379A000000000000000000000000000000000000000000000000000000000 DUP2 MSTORE PUSH1 0x4 ADD PUSH2 0xA5E SWAP1 PUSH2 0x2151 JUMP JUMPDEST PUSH1 0x40 MLOAD DUP1 SWAP2 SUB SWAP1 REVERT JUMPDEST PUSH0 PUSH2 0xA71 DUP6 PUSH2 0x159C JUMP JUMPDEST SWAP1 POP PUSH2 0xA80 DUP2 PUSH0 SHL DUP6 DUP6 PUSH2 0x11DC JUMP JUMPDEST PUSH1 0x1 PUSH0 DUP3 DUP2 MSTORE PUSH1 0x20 ADD SWAP1 DUP2 MSTORE PUSH1 0x20 ADD PUSH0 KECCAK256 PUSH0 SWAP1 SLOAD SWAP1 PUSH2 0x100 EXP SWAP1 DIV PUSH1 0xFF AND ISZERO PUSH2 0xADE JUMPI PUSH1 0x40 MLOAD PUSH32 0x8C379A000000000000000000000000000000000000000000000000000000000 DUP2 MSTORE PUSH1 0x4 ADD PUSH2 0xAD5 SWAP1 PUSH2 0x1E88 JUMP JUMPDEST PUSH1 0x40 MLOAD DUP1 SWAP2 SUB SWAP1 REVERT JUMPDEST PUSH1 0x1 DUP1 PUSH0 DUP4 DUP2 MSTORE PUSH1 0x20 ADD SWAP1 DUP2 MSTORE PUSH1 0x20 ADD PUSH0 KECCAK256 PUSH0 PUSH2 0x100 EXP DUP2 SLOAD DUP2 PUSH1 0xFF MUL NOT AND SWAP1 DUP4 ISZERO ISZERO MUL OR SWAP1 SSTORE POP PUSH0 PUSH2 0xB28 DUP7 PUSH1 0x5 PUSH1 0x6 DUP2 LT PUSH2 0xB1E JUMPI PUSH2 0xB1D PUSH2 0x1E11 JUMP JUMPDEST JUMPDEST PUSH1 0x20 MUL ADD CALLDATALOAD PUSH2 0x635 JUMP JUMPDEST SWAP1 POP PUSH32 0x0 PUSH20 0xFFFFFFFFFFFFFFFFFFFFFFFFFFFFFFFFFFFFFFFF AND PUSH4 0x1722E147 DUP3 PUSH1 0x40 MLOAD DUP3 PUSH4 0xFFFFFFFF AND PUSH1 0xE0 SHL DUP2 MSTORE PUSH1 0x4 ADD PUSH2 0xB83 SWAP2 SWAP1 PUSH2 0x1911 JUMP JUMPDEST PUSH0 PUSH1 0x40 MLOAD DUP1 DUP4 SUB DUP2 PUSH0 DUP8 DUP1 EXTCODESIZE ISZERO DUP1 ISZERO PUSH2 0xB9A JUMPI PUSH0 PUSH0 REVERT JUMPDEST POP GAS CALL ISZERO DUP1 ISZERO PUSH2 0xBAC JUMPI RETURNDATASIZE PUSH0 PUSH0 RETURNDATACOPY RETURNDATASIZE PUSH0 REVERT JUMPDEST POP POP POP POP POP POP POP POP POP POP POP JUMP JUMPDEST PUSH32 0x0 DUP2 JUMP JUMPDEST PUSH2 0xBE5 PUSH2 0x1454 JUMP JUMPDEST PUSH0 PUSH20 0xFFFFFFFFFFFFFFFFFFFFFFFFFFFFFFFFFFFFFFFF AND DUP2 PUSH20 0xFFFFFFFFFFFFFFFFFFFFFFFFFFFFFFFFFFFFFFFF AND SUB PUSH2 0xC55 JUMPI PUSH0 PUSH1 0x40 MLOAD PUSH32 0x1E4FBDF700000000000000000000000000000000000000000000000000000000 DUP2 MSTORE PUSH1 0x4 ADD PUSH2 0xC4C SWAP2 SWAP1 PUSH2 0x1911 JUMP JUMPDEST PUSH1 0x40 MLOAD DUP1 SWAP2 SUB SWAP1 REVERT JUMPDEST PUSH2 0xC5E DUP2 PUSH2 0x14DB JUMP JUMPDEST POP JUMP JUMPDEST PUSH32 0x0 PUSH20 0xFFFFFFFFFFFFFFFFFFFFFFFFFFFFFFFFFFFFFFFF AND PUSH4 0x9CB28658 DUP6 DUP6 PUSH1 0x40 MLOAD DUP4 PUSH4 0xFFFFFFFF AND PUSH1 0xE0 SHL DUP2 MSTORE PUSH1 0x4 ADD PUSH2 0xCBC SWAP3 SWAP2 SWAP1 PUSH2 0x1DE8 JUMP JUMPDEST PUSH0 PUSH1 0x40 MLOAD DUP1 DUP4 SUB DUP2 DUP7 DUP1 EXTCODESIZE ISZERO DUP1 ISZERO PUSH2 0xCD2 JUMPI PUSH0 PUSH0 REVERT JUMPDEST POP GAS STATICCALL ISZERO DUP1 ISZERO PUSH2 0xCE4 JUMPI RETURNDATASIZE PUSH0 PUSH0 RETURNDATACOPY RETURNDATASIZE PUSH0 REVERT JUMPDEST POP POP POP POP PUSH0 DUP4 PUSH1 0x5 PUSH1 0x6 DUP2 LT PUSH2 0xCFD JUMPI PUSH2 0xCFC PUSH2 0x1E11 JUMP JUMPDEST JUMPDEST PUSH1 0x20 MUL ADD CALLDATALOAD SWAP1 POP CHAINID DUP2 EQ PUSH2 0xD46 JUMPI PUSH1 0x40 MLOAD PUSH32 0x8C379A000000000000000000000000000000000000000000000000000000000 DUP2 MSTORE PUSH1 0x4 ADD PUSH2 0xD3D SWAP1 PUSH2 0x2151 JUMP JUMPDEST PUSH1 0x40 MLOAD DUP1 SWAP2 SUB SWAP1 REVERT JUMPDEST PUSH0 PUSH2 0xD68 DUP6 PUSH1 0x3 PUSH1 0x6 DUP2 LT PUSH2 0xD5E JUMPI PUSH2 0xD5D PUSH2 0x1E11 JUMP JUMPDEST JUMPDEST PUSH1 0x20 MUL ADD CALLDATALOAD PUSH2 0x780 JUMP JUMPDEST SWAP1 POP PUSH0 PUSH2 0xD8C DUP7 PUSH1 0x2 PUSH1 0x6 DUP2 LT PUSH2 0xD82 JUMPI PUSH2 0xD81 PUSH2 0x1E11 JUMP JUMPDEST JUMPDEST PUSH1 0x20 MUL ADD CALLDATALOAD PUSH2 0x780 JUMP JUMPDEST SWAP1 POP PUSH0 PUSH2 0xDB0 DUP8 PUSH1 0x4 PUSH1 0x6 DUP2 LT PUSH2 0xDA6 JUMPI PUSH2 0xDA5 PUSH2 0x1E11 JUMP JUMPDEST JUMPDEST PUSH1 0x20 MUL ADD CALLDATALOAD PUSH2 0x396 JUMP JUMPDEST SWAP1 POP PUSH0 PUSH2 0xDBC DUP9 PUSH2 0x110D JUMP JUMPDEST SWAP1 POP PUSH2 0xDCB DUP2 PUSH0 SHL DUP9 DUP9 PUSH2 0x11DC JUMP JUMPDEST PUSH1 0x1 PUSH0 DUP3 DUP2 MSTORE PUSH1 0x20 ADD SWAP1 DUP2 MSTORE PUSH1 0x20 ADD PUSH0 KECCAK256 PUSH0 SWAP1 SLOAD SWAP1 PUSH2 0x100 EXP SWAP1 DIV PUSH1 0xFF AND ISZERO PUSH2 0xE29 JUMPI PUSH1 0x40 MLOAD PUSH32 0x8C379A000000000000000000000000000000000000000000000000000000000 DUP2 MSTORE PUSH1 0x4 ADD PUSH2 0xE20 SWAP1 PUSH2 0x1E88 JUMP JUMPDEST PUSH1 0x40 MLOAD DUP1 SWAP2 SUB SWAP1 REVERT JUMPDEST PUSH1 0x1 DUP1 PUSH0 DUP4 DUP2 MSTORE PUSH1 0x20 ADD SWAP1 DUP2 MSTORE PUSH1 0x20 ADD PUSH0 KECCAK256 PUSH0 PUSH2 0x100 EXP DUP2 SLOAD DUP2 PUSH1 0xFF MUL NOT AND SWAP1 DUP4 ISZERO ISZERO MUL OR SWAP1 SSTORE POP PUSH32 0x0 PUSH20 0xFFFFFFFFFFFFFFFFFFFFFFFFFFFFFFFFFFFFFFFF AND PUSH4 0x2E057B9B DUP5 DUP7 DUP6 PUSH1 0x40 MLOAD DUP5 PUSH4 0xFFFFFFFF AND PUSH1 0xE0 SHL DUP2 MSTORE PUSH1 0x4 ADD PUSH2 0xEAE SWAP4 SWAP3 SWAP2 SWAP1 PUSH2 0x216F JUMP JUMPDEST PUSH0 PUSH1 0x40 MLOAD DUP1 DUP4 SUB DUP2 PUSH0 DUP8 DUP1 EXTCODESIZE ISZERO DUP1 ISZERO PUSH2 0xEC5 JUMPI PUSH0 PUSH0 REVERT JUMPDEST POP GAS CALL ISZERO DUP1 ISZERO PUSH2 0xED7 JUMPI RETURNDATASIZE PUSH0 PUSH0 RETURNDATACOPY RETURNDATASIZE PUSH0 REVERT JUMPDEST POP POP POP POP POP POP POP POP POP POP POP POP POP JUMP JUMPDEST PUSH32 0x0 DUP2 JUMP JUMPDEST PUSH0 DUP2 PUSH1 0x40 MLOAD PUSH1 0x20 ADD PUSH2 0xF1C SWAP2 SWAP1 PUSH2 0x222D JUMP JUMPDEST PUSH1 0x40 MLOAD PUSH1 0x20 DUP2 DUP4 SUB SUB DUP2 MSTORE SWAP1 PUSH1 0x40 MSTORE DUP1 MLOAD SWAP1 PUSH1 0x20 ADD KECCAK256 SWAP1 POP SWAP2 SWAP1 POP JUMP JUMPDEST PUSH0 PUSH0 PUSH1 0x60 PUSH0 DUP5 PUSH1 0x5 PUSH1 0x6 DUP2 LT PUSH2 0xF52 JUMPI PUSH2 0xF51 PUSH2 0x1E11 JUMP JUMPDEST JUMPDEST PUSH1 0x20 MUL ADD CALLDATALOAD SWAP1 POP DUP1 PUSH8 0xFFFFFFFFFFFFFFFF AND SWAP4 POP PUSH0 PUSH1 0x40 DUP3 SWAP1 SHR PUSH4 0xFFFFFFFF AND SWAP1 POP CHAINID DUP2 EQ PUSH2 0xFB6 JUMPI PUSH1 0x40 MLOAD PUSH32 0x8C379A000000000000000000000000000000000000000000000000000000000 DUP2 MSTORE PUSH1 0x4 ADD PUSH2 0xFAD SWAP1 PUSH2 0x2151 JUMP JUMPDEST PUSH1 0x40 MLOAD DUP1 SWAP2 SUB SWAP1 REVERT JUMPDEST PUSH0 PUSH1 0x80 DUP4 SWAP1 SHR SWAP1 POP PUSH2 0xFC7 DUP2 PUSH2 0x780 JUMP JUMPDEST SWAP4 POP PUSH0 PUSH2 0xFEB DUP9 PUSH1 0x4 PUSH1 0x6 DUP2 LT PUSH2 0xFE1 JUMPI PUSH2 0xFE0 PUSH2 0x1E11 JUMP JUMPDEST JUMPDEST PUSH1 0x20 MUL ADD CALLDATALOAD PUSH2 0x780 JUMP JUMPDEST SWAP1 POP PUSH0 DUP2 PUSH1 0x40 MLOAD PUSH1 0x20 ADD PUSH2 0xFFF SWAP2 SWAP1 PUSH2 0x22CC JUMP JUMPDEST PUSH1 0x40 MLOAD PUSH1 0x20 DUP2 DUP4 SUB SUB DUP2 MSTORE SWAP1 PUSH1 0x40 MSTORE SWAP1 POP PUSH0 PUSH32 0x0 PUSH20 0xFFFFFFFFFFFFFFFFFFFFFFFFFFFFFFFFFFFFFFFF AND PUSH4 0x16F1ADC1 DUP4 PUSH1 0x40 MLOAD DUP3 PUSH4 0xFFFFFFFF AND PUSH1 0xE0 SHL DUP2 MSTORE PUSH1 0x4 ADD PUSH2 0x106A SWAP2 SWAP1 PUSH2 0x2337 JUMP JUMPDEST PUSH0 PUSH1 0x40 MLOAD DUP1 DUP4 SUB DUP2 DUP7 GAS STATICCALL ISZERO DUP1 ISZERO PUSH2 0x1084 JUMPI RETURNDATASIZE PUSH0 PUSH0 RETURNDATACOPY RETURNDATASIZE PUSH0 REVERT JUMPDEST POP POP POP POP PUSH1 0x40 MLOAD RETURNDATASIZE PUSH0 DUP3 RETURNDATACOPY RETURNDATASIZE PUSH1 0x1F NOT PUSH1 0x1F DUP3 ADD AND DUP3 ADD DUP1 PUSH1 0x40 MSTORE POP DUP2 ADD SWAP1 PUSH2 0x10AC SWAP2 SWAP1 PUSH2 0x23D8 JUMP JUMPDEST SWAP1 POP PUSH0 DUP2 MLOAD GT PUSH2 0x10F1 JUMPI PUSH1 0x40 MLOAD PUSH32 0x8C379A000000000000000000000000000000000000000000000000000000000 DUP2 MSTORE PUSH1 0x4 ADD PUSH2 0x10E8 SWAP1 PUSH2 0x2469 JUMP JUMPDEST PUSH1 0x40 MLOAD DUP1 SWAP2 SUB SWAP1 REVERT JUMPDEST DUP1 PUSH2 0x10FB SWAP1 PUSH2 0x24E1 JUMP JUMPDEST PUSH1 0x60 SHR SWAP8 POP POP POP POP POP POP POP SWAP2 SWAP4 SWAP1 SWAP3 POP JUMP JUMPDEST PUSH0 PUSH0 DUP3 PUSH0 PUSH1 0x6 DUP2 LT PUSH2 0x1122 JUMPI PUSH2 0x1121 PUSH2 0x1E11 JUMP JUMPDEST JUMPDEST PUSH1 0x20 MUL ADD CALLDATALOAD DUP4 PUSH1 0x1 PUSH1 0x6 DUP2 LT PUSH2 0x113B JUMPI PUSH2 0x113A PUSH2 0x1E11 JUMP JUMPDEST JUMPDEST PUSH1 0x20 MUL ADD CALLDATALOAD DUP5 PUSH1 0x2 PUSH1 0x6 DUP2 LT PUSH2 0x1154 JUMPI PUSH2 0x1153 PUSH2 0x1E11 JUMP JUMPDEST JUMPDEST PUSH1 0x20 MUL ADD CALLDATALOAD DUP6 PUSH1 0x3 PUSH1 0x6 DUP2 LT PUSH2 0x116D JUMPI PUSH2 0x116C PUSH2 0x1E11 JUMP JUMPDEST JUMPDEST PUSH1 0x20 MUL ADD CALLDATALOAD DUP7 PUSH1 0x4 PUSH1 0x6 DUP2 LT PUSH2 0x1186 JUMPI PUSH2 0x1185 PUSH2 0x1E11 JUMP JUMPDEST JUMPDEST PUSH1 0x20 MUL ADD CALLDATALOAD DUP8 PUSH1 0x5 PUSH1 0x6 DUP2 LT PUSH2 0x119F JUMPI PUSH2 0x119E PUSH2 0x1E11 JUMP JUMPDEST JUMPDEST PUSH1 0x20 MUL ADD CALLDATALOAD PUSH1 0x40 MLOAD PUSH1 0x20 ADD PUSH2 0x11B9 SWAP7 SWAP6 SWAP5 SWAP4 SWAP3 SWAP2 SWAP1 PUSH2 0x2547 JUMP JUMPDEST PUSH1 0x40 MLOAD PUSH1 0x20 DUP2 DUP4 SUB SUB DUP2 MSTORE SWAP1 PUSH1 0x40 MSTORE DUP1 MLOAD SWAP1 PUSH1 0x20 ADD KECCAK256 SWAP1 POP DUP1 PUSH0 SHR SWAP2 POP POP SWAP2 SWAP1 POP JUMP JUMPDEST PUSH0 PUSH2 0x11E6 DUP5 PUSH2 0xF0A JUMP JUMPDEST SWAP1 POP PUSH0 PUSH32 0x0 PUSH20 0xFFFFFFFFFFFFFFFFFFFFFFFFFFFFFFFFFFFFFFFF AND PUSH4 0x1442E4C9 PUSH1 0x40 MLOAD DUP2 PUSH4 0xFFFFFFFF AND PUSH1 0xE0 SHL DUP2 MSTORE PUSH1 0x4 ADD PUSH0 PUSH1 0x40 MLOAD DUP1 DUP4 SUB DUP2 DUP7 GAS STATICCALL ISZERO DUP1 ISZERO PUSH2 0x1251 JUMPI RETURNDATASIZE PUSH0 PUSH0 RETURNDATACOPY RETURNDATASIZE PUSH0 REVERT JUMPDEST POP POP POP POP PUSH1 0x40 MLOAD RETURNDATASIZE PUSH0 DUP3 RETURNDATACOPY RETURNDATASIZE PUSH1 0x1F NOT PUSH1 0x1F DUP3 ADD AND DUP3 ADD DUP1 PUSH1 0x40 MSTORE POP DUP2 ADD SWAP1 PUSH2 0x1279 SWAP2 SWAP1 PUSH2 0x268A JUMP JUMPDEST SWAP1 POP PUSH0 PUSH0 SWAP1 POP JUMPDEST DUP5 DUP5 SWAP1 POP DUP2 LT ISZERO PUSH2 0x144C JUMPI CALLDATASIZE PUSH0 DUP7 DUP7 PUSH1 0x41 DUP6 PUSH2 0x129C SWAP2 SWAP1 PUSH2 0x26D1 JUMP JUMPDEST SWAP1 PUSH1 0x41 PUSH1 0x1 DUP8 PUSH2 0x12AC SWAP2 SWAP1 PUSH2 0x20D4 JUMP JUMPDEST PUSH2 0x12B6 SWAP2 SWAP1 PUSH2 0x26D1 JUMP JUMPDEST SWAP3 PUSH2 0x12C3 SWAP4 SWAP3 SWAP2 SWAP1 PUSH2 0x271A JUMP JUMPDEST SWAP2 POP SWAP2 POP PUSH0 PUSH2 0x1315 DUP7 DUP5 DUP5 DUP1 DUP1 PUSH1 0x1F ADD PUSH1 0x20 DUP1 SWAP2 DIV MUL PUSH1 0x20 ADD PUSH1 0x40 MLOAD SWAP1 DUP2 ADD PUSH1 0x40 MSTORE DUP1 SWAP4 SWAP3 SWAP2 SWAP1 DUP2 DUP2 MSTORE PUSH1 0x20 ADD DUP4 DUP4 DUP1 DUP3 DUP5 CALLDATACOPY PUSH0 DUP2 DUP5 ADD MSTORE PUSH1 0x1F NOT PUSH1 0x1F DUP3 ADD AND SWAP1 POP DUP1 DUP4 ADD SWAP3 POP POP POP POP POP POP POP PUSH2 0x665 JUMP JUMPDEST SWAP1 POP PUSH0 PUSH20 0xFFFFFFFFFFFFFFFFFFFFFFFFFFFFFFFFFFFFFFFF AND DUP2 PUSH20 0xFFFFFFFFFFFFFFFFFFFFFFFFFFFFFFFFFFFFFFFF AND SUB PUSH2 0x1385 JUMPI PUSH1 0x40 MLOAD PUSH32 0x8C379A000000000000000000000000000000000000000000000000000000000 DUP2 MSTORE PUSH1 0x4 ADD PUSH2 0x137C SWAP1 PUSH2 0x279E JUMP JUMPDEST PUSH1 0x40 MLOAD DUP1 SWAP2 SUB SWAP1 REVERT JUMPDEST PUSH0 PUSH0 SWAP1 POP PUSH0 PUSH0 SWAP1 POP JUMPDEST DUP7 MLOAD DUP2 LT ISZERO PUSH2 0x13FA JUMPI DUP3 PUSH20 0xFFFFFFFFFFFFFFFFFFFFFFFFFFFFFFFFFFFFFFFF AND DUP8 DUP3 DUP2 MLOAD DUP2 LT PUSH2 0x13C1 JUMPI PUSH2 0x13C0 PUSH2 0x1E11 JUMP JUMPDEST JUMPDEST PUSH1 0x20 MUL PUSH1 0x20 ADD ADD MLOAD PUSH20 0xFFFFFFFFFFFFFFFFFFFFFFFFFFFFFFFFFFFFFFFF AND SUB PUSH2 0x13ED JUMPI PUSH1 0x1 SWAP2 POP PUSH2 0x13FA JUMP JUMPDEST DUP1 DUP1 PUSH1 0x1 ADD SWAP2 POP POP PUSH2 0x138E JUMP JUMPDEST POP DUP1 PUSH2 0x143B JUMPI PUSH1 0x40 MLOAD PUSH32 0x8C379A000000000000000000000000000000000000000000000000000000000 DUP2 MSTORE PUSH1 0x4 ADD PUSH2 0x1432 SWAP1 PUSH2 0x2806 JUMP JUMPDEST PUSH1 0x40 MLOAD DUP1 SWAP2 SUB SWAP1 REVERT JUMPDEST POP POP POP POP DUP1 DUP1 PUSH1 0x1 ADD SWAP2 POP POP PUSH2 0x1280 JUMP JUMPDEST POP POP POP POP POP POP JUMP JUMPDEST PUSH2 0x145C PUSH2 0x1651 JUMP JUMPDEST PUSH20 0xFFFFFFFFFFFFFFFFFFFFFFFFFFFFFFFFFFFFFFFF AND PUSH2 0x147A PUSH2 0x63E JUMP JUMPDEST PUSH20 0xFFFFFFFFFFFFFFFFFFFFFFFFFFFFFFFFFFFFFFFF AND EQ PUSH2 0x14D9 JUMPI PUSH2 0x149D PUSH2 0x1651 JUMP JUMPDEST PUSH1 0x40 MLOAD PUSH32 0x118CDAA700000000000000000000000000000000000000000000000000000000 DUP2 MSTORE PUSH1 0x4 ADD PUSH2 0x14D0 SWAP2 SWAP1 PUSH2 0x1911 JUMP JUMPDEST PUSH1 0x40 MLOAD DUP1 SWAP2 SUB SWAP1 REVERT JUMPDEST JUMP JUMPDEST PUSH0 PUSH0 PUSH0 SWAP1 SLOAD SWAP1 PUSH2 0x100 EXP SWAP1 DIV PUSH20 0xFFFFFFFFFFFFFFFFFFFFFFFFFFFFFFFFFFFFFFFF AND SWAP1 POP DUP2 PUSH0 PUSH0 PUSH2 0x100 EXP DUP2 SLOAD DUP2 PUSH20 0xFFFFFFFFFFFFFFFFFFFFFFFFFFFFFFFFFFFFFFFF MUL NOT AND SWAP1 DUP4 PUSH20 0xFFFFFFFFFFFFFFFFFFFFFFFFFFFFFFFFFFFFFFFF AND MUL OR SWAP1 SSTORE POP DUP2 PUSH20 0xFFFFFFFFFFFFFFFFFFFFFFFFFFFFFFFFFFFFFFFF AND DUP2 PUSH20 0xFFFFFFFFFFFFFFFFFFFFFFFFFFFFFFFFFFFFFFFF AND PUSH32 0x8BE0079C531659141344CD1FD0A4F28419497F9722A3DAAFE3B4186F6B6457E0 PUSH1 0x40 MLOAD PUSH1 0x40 MLOAD DUP1 SWAP2 SUB SWAP1 LOG3 POP POP JUMP JUMPDEST PUSH0 PUSH0 DUP3 PUSH0 PUSH1 0x6 DUP2 LT PUSH2 0x15B1 JUMPI PUSH2 0x15B0 PUSH2 0x1E11 JUMP JUMPDEST JUMPDEST PUSH1 0x20 MUL ADD CALLDATALOAD DUP4 PUSH1 0x1 PUSH1 0x6 DUP2 LT PUSH2 0x15CA JUMPI PUSH2 0x15C9 PUSH2 0x1E11 JUMP JUMPDEST JUMPDEST PUSH1 0x20 MUL ADD CALLDATALOAD DUP5 PUSH1 0x2 PUSH1 0x6 DUP2 LT PUSH2 0x15E3 JUMPI PUSH2 0x15E2 PUSH2 0x1E11 JUMP JUMPDEST JUMPDEST PUSH1 0x20 MUL ADD CALLDATALOAD DUP6 PUSH1 0x3 PUSH1 0x6 DUP2 LT PUSH2 0x15FC JUMPI PUSH2 0x15FB PUSH2 0x1E11 JUMP JUMPDEST JUMPDEST PUSH1 0x20 MUL ADD CALLDATALOAD DUP7 PUSH1 0x4 PUSH1 0x6 DUP2 LT PUSH2 0x1615 JUMPI PUSH2 0x1614 PUSH2 0x1E11 JUMP JUMPDEST JUMPDEST PUSH1 0x20 MUL ADD CALLDATALOAD PUSH1 0x40 MLOAD PUSH1 0x20 ADD PUSH2 0x162E SWAP6 SWAP5 SWAP4 SWAP3 SWAP2 SWAP1 PUSH2 0x2824 JUMP JUMPDEST PUSH1 0x40 MLOAD PUSH1 0x20 DUP2 DUP4 SUB SUB DUP2 MSTORE SWAP1 PUSH1 0x40 MSTORE DUP1 MLOAD SWAP1 PUSH1 0x20 ADD KECCAK256 SWAP1 POP DUP1 PUSH0 SHR SWAP2 POP POP SWAP2 SWAP1 POP JUMP JUMPDEST PUSH0 CALLER SWAP1 POP SWAP1 JUMP JUMPDEST PUSH0 PUSH1 0x40 MLOAD SWAP1 POP SWAP1 JUMP JUMPDEST PUSH0 PUSH0 REVERT JUMPDEST PUSH0 PUSH0 REVERT JUMPDEST PUSH0 DUP2 SWAP1 POP SWAP2 SWAP1 POP JUMP JUMPDEST PUSH2 0x167B DUP2 PUSH2 0x1669 JUMP JUMPDEST DUP2 EQ PUSH2 0x1685 JUMPI PUSH0 PUSH0 REVERT JUMPDEST POP JUMP JUMPDEST PUSH0 DUP2 CALLDATALOAD SWAP1 POP PUSH2 0x1696 DUP2 PUSH2 0x1672 JUMP JUMPDEST SWAP3 SWAP2 POP POP JUMP JUMPDEST PUSH0 PUSH1 0x20 DUP3 DUP5 SUB SLT ISZERO PUSH2 0x16B1 JUMPI PUSH2 0x16B0 PUSH2 0x1661 JUMP JUMPDEST JUMPDEST PUSH0 PUSH2 0x16BE DUP5 DUP3 DUP6 ADD PUSH2 0x1688 JUMP JUMPDEST SWAP2 POP POP SWAP3 SWAP2 POP POP JUMP JUMPDEST PUSH0 DUP2 MLOAD SWAP1 POP SWAP2 SWAP1 POP JUMP JUMPDEST PUSH0 DUP3 DUP3 MSTORE PUSH1 0x20 DUP3 ADD SWAP1 POP SWAP3 SWAP2 POP POP JUMP JUMPDEST DUP3 DUP2 DUP4 MCOPY PUSH0 DUP4 DUP4 ADD MSTORE POP POP POP JUMP JUMPDEST PUSH0 PUSH1 0x1F NOT PUSH1 0x1F DUP4 ADD AND SWAP1 POP SWAP2 SWAP1 POP JUMP JUMPDEST PUSH0 PUSH2 0x1709 DUP3 PUSH2 0x16C7 JUMP JUMPDEST PUSH2 0x1713 DUP2 DUP6 PUSH2 0x16D1 JUMP JUMPDEST SWAP4 POP PUSH2 0x1723 DUP2 DUP6 PUSH1 0x20 DUP7 ADD PUSH2 0x16E1 JUMP JUMPDEST PUSH2 0x172C DUP2 PUSH2 0x16EF JUMP JUMPDEST DUP5 ADD SWAP2 POP POP SWAP3 SWAP2 POP POP JUMP JUMPDEST PUSH0 PUSH1 0x20 DUP3 ADD SWAP1 POP DUP2 DUP2 SUB PUSH0 DUP4 ADD MSTORE PUSH2 0x174F DUP2 DUP5 PUSH2 0x16FF JUMP JUMPDEST SWAP1 POP SWAP3 SWAP2 POP POP JUMP JUMPDEST PUSH0 PUSH0 REVERT JUMPDEST PUSH0 DUP2 SWAP1 POP DUP3 PUSH1 0x20 PUSH1 0x8 MUL DUP3 ADD GT ISZERO PUSH2 0x1776 JUMPI PUSH2 0x1775 PUSH2 0x1757 JUMP JUMPDEST JUMPDEST SWAP3 SWAP2 POP POP JUMP JUMPDEST PUSH0 DUP2 SWAP1 POP DUP3 PUSH1 0x20 PUSH1 0x6 MUL DUP3 ADD GT ISZERO PUSH2 0x1797 JUMPI PUSH2 0x1796 PUSH2 0x1757 JUMP JUMPDEST JUMPDEST SWAP3 SWAP2 POP POP JUMP JUMPDEST PUSH0 PUSH0 REVERT JUMPDEST PUSH0 PUSH0 REVERT JUMPDEST PUSH0 PUSH0 DUP4 PUSH1 0x1F DUP5 ADD SLT PUSH2 0x17BA JUMPI PUSH2 0x17B9 PUSH2 0x179D JUMP JUMPDEST JUMPDEST DUP3 CALLDATALOAD SWAP1 POP PUSH8 0xFFFFFFFFFFFFFFFF DUP2 GT ISZERO PUSH2 0x17D7 JUMPI PUSH2 0x17D6 PUSH2 0x17A1 JUMP JUMPDEST JUMPDEST PUSH1 0x20 DUP4 ADD SWAP2 POP DUP4 PUSH1 0x1 DUP3 MUL DUP4 ADD GT ISZERO PUSH2 0x17F3 JUMPI PUSH2 0x17F2 PUSH2 0x1757 JUMP JUMPDEST JUMPDEST SWAP3 POP SWAP3 SWAP1 POP JUMP JUMPDEST PUSH0 PUSH0 PUSH0 PUSH0 PUSH2 0x1E0 DUP6 DUP8 SUB SLT ISZERO PUSH2 0x1813 JUMPI PUSH2 0x1812 PUSH2 0x1661 JUMP JUMPDEST JUMPDEST PUSH0 PUSH2 0x1820 DUP8 DUP3 DUP9 ADD PUSH2 0x175B JUMP JUMPDEST SWAP5 POP POP PUSH2 0x100 PUSH2 0x1832 DUP8 DUP3 DUP9 ADD PUSH2 0x177C JUMP JUMPDEST SWAP4 POP POP PUSH2 0x1C0 DUP6 ADD CALLDATALOAD PUSH8 0xFFFFFFFFFFFFFFFF DUP2 GT ISZERO PUSH2 0x1854 JUMPI PUSH2 0x1853 PUSH2 0x1665 JUMP JUMPDEST JUMPDEST PUSH2 0x1860 DUP8 DUP3 DUP9 ADD PUSH2 0x17A5 JUMP JUMPDEST SWAP3 POP SWAP3 POP POP SWAP3 SWAP6 SWAP2 SWAP5 POP SWAP3 POP JUMP JUMPDEST PUSH0 PUSH0 PUSH0 PUSH0 PUSH1 0x80 DUP6 DUP8 SUB SLT ISZERO PUSH2 0x1886 JUMPI PUSH2 0x1885 PUSH2 0x1661 JUMP JUMPDEST JUMPDEST PUSH0 PUSH2 0x1893 DUP8 DUP3 DUP9 ADD PUSH2 0x1688 JUMP JUMPDEST SWAP5 POP POP PUSH1 0x20 PUSH2 0x18A4 DUP8 DUP3 DUP9 ADD PUSH2 0x1688 JUMP JUMPDEST SWAP4 POP POP PUSH1 0x40 PUSH2 0x18B5 DUP8 DUP3 DUP9 ADD PUSH2 0x1688 JUMP JUMPDEST SWAP3 POP POP PUSH1 0x60 PUSH2 0x18C6 DUP8 DUP3 DUP9 ADD PUSH2 0x1688 JUMP JUMPDEST SWAP2 POP POP SWAP3 SWAP6 SWAP2 SWAP5 POP SWAP3 POP JUMP JUMPDEST PUSH0 PUSH20 0xFFFFFFFFFFFFFFFFFFFFFFFFFFFFFFFFFFFFFFFF DUP3 AND SWAP1 POP SWAP2 SWAP1 POP JUMP JUMPDEST PUSH0 PUSH2 0x18FB DUP3 PUSH2 0x18D2 JUMP JUMPDEST SWAP1 POP SWAP2 SWAP1 POP JUMP JUMPDEST PUSH2 0x190B DUP2 PUSH2 0x18F1 JUMP JUMPDEST DUP3 MSTORE POP POP JUMP JUMPDEST PUSH0 PUSH1 0x20 DUP3 ADD SWAP1 POP PUSH2 0x1924 PUSH0 DUP4 ADD DUP5 PUSH2 0x1902 JUMP JUMPDEST SWAP3 SWAP2 POP POP JUMP JUMPDEST PUSH0 DUP2 SWAP1 POP SWAP2 SWAP1 POP JUMP JUMPDEST PUSH0 PUSH2 0x194D PUSH2 0x1948 PUSH2 0x1943 DUP5 PUSH2 0x18D2 JUMP JUMPDEST PUSH2 0x192A JUMP JUMPDEST PUSH2 0x18D2 JUMP JUMPDEST SWAP1 POP SWAP2 SWAP1 POP JUMP JUMPDEST PUSH0 PUSH2 0x195E DUP3 PUSH2 0x1933 JUMP JUMPDEST SWAP1 POP SWAP2 SWAP1 POP JUMP JUMPDEST PUSH0 PUSH2 0x196F DUP3 PUSH2 0x1954 JUMP JUMPDEST SWAP1 POP SWAP2 SWAP1 POP JUMP JUMPDEST PUSH2 0x197F DUP2 PUSH2 0x1965 JUMP JUMPDEST DUP3 MSTORE POP POP JUMP JUMPDEST PUSH0 PUSH1 0x20 DUP3 ADD SWAP1 POP PUSH2 0x1998 PUSH0 DUP4 ADD DUP5 PUSH2 0x1976 JUMP JUMPDEST SWAP3 SWAP2 POP POP JUMP JUMPDEST PUSH0 DUP2 SWAP1 POP SWAP2 SWAP1 POP JUMP JUMPDEST PUSH2 0x19B0 DUP2 PUSH2 0x199E JUMP JUMPDEST DUP2 EQ PUSH2 0x19BA JUMPI PUSH0 PUSH0 REVERT JUMPDEST POP JUMP JUMPDEST PUSH0 DUP2 CALLDATALOAD SWAP1 POP PUSH2 0x19CB DUP2 PUSH2 0x19A7 JUMP JUMPDEST SWAP3 SWAP2 POP POP JUMP JUMPDEST PUSH0 PUSH0 REVERT JUMPDEST PUSH32 0x4E487B7100000000000000000000000000000000000000000000000000000000 PUSH0 MSTORE PUSH1 0x41 PUSH1 0x4 MSTORE PUSH1 0x24 PUSH0 REVERT JUMPDEST PUSH2 0x1A0B DUP3 PUSH2 0x16EF JUMP JUMPDEST DUP2 ADD DUP2 DUP2 LT PUSH8 0xFFFFFFFFFFFFFFFF DUP3 GT OR ISZERO PUSH2 0x1A2A JUMPI PUSH2 0x1A29 PUSH2 0x19D5 JUMP JUMPDEST JUMPDEST DUP1 PUSH1 0x40 MSTORE POP POP POP JUMP JUMPDEST PUSH0 PUSH2 0x1A3C PUSH2 0x1658 JUMP JUMPDEST SWAP1 POP PUSH2 0x1A48 DUP3 DUP3 PUSH2 0x1A02 JUMP JUMPDEST SWAP2 SWAP1 POP JUMP JUMPDEST PUSH0 PUSH8 0xFFFFFFFFFFFFFFFF DUP3 GT ISZERO PUSH2 0x1A67 JUMPI PUSH2 0x1A66 PUSH2 0x19D5 JUMP JUMPDEST JUMPDEST PUSH2 0x1A70 DUP3 PUSH2 0x16EF JUMP JUMPDEST SWAP1 POP PUSH1 0x20 DUP2 ADD SWAP1 POP SWAP2 SWAP1 POP JUMP JUMPDEST DUP3 DUP2 DUP4 CALLDATACOPY PUSH0 DUP4 DUP4 ADD MSTORE POP POP POP JUMP JUMPDEST PUSH0 PUSH2 0x1A9D PUSH2 0x1A98 DUP5 PUSH2 0x1A4D JUMP JUMPDEST PUSH2 0x1A33 JUMP JUMPDEST SWAP1 POP DUP3 DUP2 MSTORE PUSH1 0x20 DUP2 ADD DUP5 DUP5 DUP5 ADD GT ISZERO PUSH2 0x1AB9 JUMPI PUSH2 0x1AB8 PUSH2 0x19D1 JUMP JUMPDEST JUMPDEST PUSH2 0x1AC4 DUP5 DUP3 DUP6 PUSH2 0x1A7D JUMP JUMPDEST POP SWAP4 SWAP3 POP POP POP JUMP JUMPDEST PUSH0 DUP3 PUSH1 0x1F DUP4 ADD SLT PUSH2 0x1AE0 JUMPI PUSH2 0x1ADF PUSH2 0x179D JUMP JUMPDEST JUMPDEST DUP2 CALLDATALOAD PUSH2 0x1AF0 DUP5 DUP3 PUSH1 0x20 DUP7 ADD PUSH2 0x1A8B JUMP JUMPDEST SWAP2 POP POP SWAP3 SWAP2 POP POP JUMP JUMPDEST PUSH0 PUSH0 PUSH1 0x40 DUP4 DUP6 SUB SLT ISZERO PUSH2 0x1B0F JUMPI PUSH2 0x1B0E PUSH2 0x1661 JUMP JUMPDEST JUMPDEST PUSH0 PUSH2 0x1B1C DUP6 DUP3 DUP7 ADD PUSH2 0x19BD JUMP JUMPDEST SWAP3 POP POP PUSH1 0x20 DUP4 ADD CALLDATALOAD PUSH8 0xFFFFFFFFFFFFFFFF DUP2 GT ISZERO PUSH2 0x1B3D JUMPI PUSH2 0x1B3C PUSH2 0x1665 JUMP JUMPDEST JUMPDEST PUSH2 0x1B49 DUP6 DUP3 DUP7 ADD PUSH2 0x1ACC JUMP JUMPDEST SWAP2 POP POP SWAP3 POP SWAP3 SWAP1 POP JUMP JUMPDEST PUSH0 DUP2 ISZERO ISZERO SWAP1 POP SWAP2 SWAP1 POP JUMP JUMPDEST PUSH2 0x1B67 DUP2 PUSH2 0x1B53 JUMP JUMPDEST DUP3 MSTORE POP POP JUMP JUMPDEST PUSH0 PUSH1 0x20 DUP3 ADD SWAP1 POP PUSH2 0x1B80 PUSH0 DUP4 ADD DUP5 PUSH2 0x1B5E JUMP JUMPDEST SWAP3 SWAP2 POP POP JUMP JUMPDEST PUSH0 PUSH2 0x1B90 DUP3 PUSH2 0x1954 JUMP JUMPDEST SWAP1 POP SWAP2 SWAP1 POP JUMP JUMPDEST PUSH2 0x1BA0 DUP2 PUSH2 0x1B86 JUMP JUMPDEST DUP3 MSTORE POP POP JUMP JUMPDEST PUSH0 PUSH1 0x20 DUP3 ADD SWAP1 POP PUSH2 0x1BB9 PUSH0 DUP4 ADD DUP5 PUSH2 0x1B97 JUMP JUMPDEST SWAP3 SWAP2 POP POP JUMP JUMPDEST PUSH0 PUSH2 0x1BC9 DUP3 PUSH2 0x1954 JUMP JUMPDEST SWAP1 POP SWAP2 SWAP1 POP JUMP JUMPDEST PUSH2 0x1BD9 DUP2 PUSH2 0x1BBF JUMP JUMPDEST DUP3 MSTORE POP POP JUMP JUMPDEST PUSH0 PUSH1 0x20 DUP3 ADD SWAP1 POP PUSH2 0x1BF2 PUSH0 DUP4 ADD DUP5 PUSH2 0x1BD0 JUMP JUMPDEST SWAP3 SWAP2 POP POP JUMP JUMPDEST PUSH0 DUP2 MLOAD SWAP1 POP SWAP2 SWAP1 POP JUMP JUMPDEST PUSH0 DUP3 DUP3 MSTORE PUSH1 0x20 DUP3 ADD SWAP1 POP SWAP3 SWAP2 POP POP JUMP JUMPDEST PUSH0 PUSH2 0x1C1C DUP3 PUSH2 0x1BF8 JUMP JUMPDEST PUSH2 0x1C26 DUP2 DUP6 PUSH2 0x1C02 JUMP JUMPDEST SWAP4 POP PUSH2 0x1C36 DUP2 DUP6 PUSH1 0x20 DUP7 ADD PUSH2 0x16E1 JUMP JUMPDEST PUSH2 0x1C3F DUP2 PUSH2 0x16EF JUMP JUMPDEST DUP5 ADD SWAP2 POP POP SWAP3 SWAP2 POP POP JUMP JUMPDEST PUSH0 PUSH1 0x20 DUP3 ADD SWAP1 POP DUP2 DUP2 SUB PUSH0 DUP4 ADD MSTORE PUSH2 0x1C62 DUP2 DUP5 PUSH2 0x1C12 JUMP JUMPDEST SWAP1 POP SWAP3 SWAP2 POP POP JUMP JUMPDEST PUSH0 PUSH2 0x1C74 DUP3 PUSH2 0x1954 JUMP JUMPDEST SWAP1 POP SWAP2 SWAP1 POP JUMP JUMPDEST PUSH2 0x1C84 DUP2 PUSH2 0x1C6A JUMP JUMPDEST DUP3 MSTORE POP POP JUMP JUMPDEST PUSH0 PUSH1 0x20 DUP3 ADD SWAP1 POP PUSH2 0x1C9D PUSH0 DUP4 ADD DUP5 PUSH2 0x1C7B JUMP JUMPDEST SWAP3 SWAP2 POP POP JUMP JUMPDEST PUSH2 0x1CAC DUP2 PUSH2 0x18F1 JUMP JUMPDEST DUP2 EQ PUSH2 0x1CB6 JUMPI PUSH0 PUSH0 REVERT JUMPDEST POP JUMP JUMPDEST PUSH0 DUP2 CALLDATALOAD SWAP1 POP PUSH2 0x1CC7 DUP2 PUSH2 0x1CA3 JUMP JUMPDEST SWAP3 SWAP2 POP POP JUMP JUMPDEST PUSH0 PUSH1 0x20 DUP3 DUP5 SUB SLT ISZERO PUSH2 0x1CE2 JUMPI PUSH2 0x1CE1 PUSH2 0x1661 JUMP JUMPDEST JUMPDEST PUSH0 PUSH2 0x1CEF DUP5 DUP3 DUP6 ADD PUSH2 0x1CB9 JUMP JUMPDEST SWAP2 POP POP SWAP3 SWAP2 POP POP JUMP JUMPDEST PUSH0 PUSH2 0x1D02 DUP3 PUSH2 0x1954 JUMP JUMPDEST SWAP1 POP SWAP2 SWAP1 POP JUMP JUMPDEST PUSH2 0x1D12 DUP2 PUSH2 0x1CF8 JUMP JUMPDEST DUP3 MSTORE POP POP JUMP JUMPDEST PUSH0 PUSH1 0x20 DUP3 ADD SWAP1 POP PUSH2 0x1D2B PUSH0 DUP4 ADD DUP5 PUSH2 0x1D09 JUMP JUMPDEST SWAP3 SWAP2 POP POP JUMP JUMPDEST PUSH0 PUSH1 0x20 DUP3 DUP5 SUB SLT ISZERO PUSH2 0x1D46 JUMPI PUSH2 0x1D45 PUSH2 0x1661 JUMP JUMPDEST JUMPDEST PUSH0 PUSH2 0x1D53 DUP5 DUP3 DUP6 ADD PUSH2 0x19BD JUMP JUMPDEST SWAP2 POP POP SWAP3 SWAP2 POP POP JUMP JUMPDEST PUSH2 0x1D65 DUP2 PUSH2 0x199E JUMP JUMPDEST DUP3 MSTORE POP POP JUMP JUMPDEST PUSH0 PUSH1 0x20 DUP3 ADD SWAP1 POP PUSH2 0x1D7E PUSH0 DUP4 ADD DUP5 PUSH2 0x1D5C JUMP JUMPDEST SWAP3 SWAP2 POP POP JUMP JUMPDEST PUSH0 DUP2 SWAP1 POP SWAP2 SWAP1 POP JUMP JUMPDEST PUSH2 0x1D9E PUSH2 0x1D99 DUP3 PUSH2 0x1669 JUMP JUMPDEST PUSH2 0x1D84 JUMP JUMPDEST DUP3 MSTORE POP POP JUMP JUMPDEST PUSH0 PUSH2 0x1DAF DUP3 DUP5 PUSH2 0x1D8D JUMP JUMPDEST PUSH1 0x20 DUP3 ADD SWAP2 POP DUP2 SWAP1 POP SWAP3 SWAP2 POP POP JUMP JUMPDEST DUP3 DUP2 DUP4 CALLDATACOPY POP POP POP JUMP JUMPDEST PUSH2 0x1DD4 PUSH2 0x100 DUP4 DUP4 PUSH2 0x1DBE JUMP JUMPDEST POP POP JUMP JUMPDEST PUSH2 0x1DE4 PUSH1 0xC0 DUP4 DUP4 PUSH2 0x1DBE JUMP JUMPDEST POP POP JUMP JUMPDEST PUSH0 PUSH2 0x1C0 DUP3 ADD SWAP1 POP PUSH2 0x1DFC PUSH0 DUP4 ADD DUP6 PUSH2 0x1DC7 JUMP JUMPDEST PUSH2 0x1E0A PUSH2 0x100 DUP4 ADD DUP5 PUSH2 0x1DD8 JUMP JUMPDEST SWAP4 SWAP3 POP POP POP JUMP JUMPDEST PUSH32 0x4E487B7100000000000000000000000000000000000000000000000000000000 PUSH0 MSTORE PUSH1 0x32 PUSH1 0x4 MSTORE PUSH1 0x24 PUSH0 REVERT JUMPDEST PUSH32 0x5265706C61792061747461636B20646574656374656400000000000000000000 PUSH0 DUP3 ADD MSTORE POP JUMP JUMPDEST PUSH0 PUSH2 0x1E72 PUSH1 0x16 DUP4 PUSH2 0x1C02 JUMP JUMPDEST SWAP2 POP PUSH2 0x1E7D DUP3 PUSH2 0x1E3E JUMP JUMPDEST PUSH1 0x20 DUP3 ADD SWAP1 POP SWAP2 SWAP1 POP JUMP JUMPDEST PUSH0 PUSH1 0x20 DUP3 ADD SWAP1 POP DUP2 DUP2 SUB PUSH0 DUP4 ADD MSTORE PUSH2 0x1E9F DUP2 PUSH2 0x1E66 JUMP JUMPDEST SWAP1 POP SWAP2 SWAP1 POP JUMP JUMPDEST PUSH2 0x1EAF DUP2 PUSH2 0x1669 JUMP JUMPDEST DUP3 MSTORE POP POP JUMP JUMPDEST PUSH0 PUSH1 0x80 DUP3 ADD SWAP1 POP PUSH2 0x1EC8 PUSH0 DUP4 ADD DUP8 PUSH2 0x1902 JUMP JUMPDEST DUP2 DUP2 SUB PUSH1 0x20 DUP4 ADD MSTORE PUSH2 0x1EDA DUP2 DUP7 PUSH2 0x1C12 JUMP JUMPDEST SWAP1 POP PUSH2 0x1EE9 PUSH1 0x40 DUP4 ADD DUP6 PUSH2 0x1EA6 JUMP JUMPDEST PUSH2 0x1EF6 PUSH1 0x60 DUP4 ADD DUP5 PUSH2 0x1EA6 JUMP JUMPDEST SWAP6 SWAP5 POP POP POP POP POP JUMP JUMPDEST PUSH0 PUSH2 0x1F0A DUP3 DUP6 PUSH2 0x1D8D JUMP JUMPDEST PUSH1 0x20 DUP3 ADD SWAP2 POP PUSH2 0x1F1A DUP3 DUP5 PUSH2 0x1D8D JUMP JUMPDEST PUSH1 0x20 DUP3 ADD SWAP2 POP DUP2 SWAP1 POP SWAP4 SWAP3 POP POP POP JUMP JUMPDEST PUSH32 0x496E76616C6964207369676E6174757265206C656E6774680000000000000000 PUSH0 DUP3 ADD MSTORE POP JUMP JUMPDEST PUSH0 PUSH2 0x1F5E PUSH1 0x18 DUP4 PUSH2 0x1C02 JUMP JUMPDEST SWAP2 POP PUSH2 0x1F69 DUP3 PUSH2 0x1F2A JUMP JUMPDEST PUSH1 0x20 DUP3 ADD SWAP1 POP SWAP2 SWAP1 POP JUMP JUMPDEST PUSH0 PUSH1 0x20 DUP3 ADD SWAP1 POP DUP2 DUP2 SUB PUSH0 DUP4 ADD MSTORE PUSH2 0x1F8B DUP2 PUSH2 0x1F52 JUMP JUMPDEST SWAP1 POP SWAP2 SWAP1 POP JUMP JUMPDEST PUSH0 PUSH1 0xFF DUP3 AND SWAP1 POP SWAP2 SWAP1 POP JUMP JUMPDEST PUSH2 0x1FA7 DUP2 PUSH2 0x1F92 JUMP JUMPDEST DUP3 MSTORE POP POP JUMP JUMPDEST PUSH0 PUSH1 0x80 DUP3 ADD SWAP1 POP PUSH2 0x1FC0 PUSH0 DUP4 ADD DUP8 PUSH2 0x1D5C JUMP JUMPDEST PUSH2 0x1FCD PUSH1 0x20 DUP4 ADD DUP7 PUSH2 0x1F9E JUMP JUMPDEST PUSH2 0x1FDA PUSH1 0x40 DUP4 ADD DUP6 PUSH2 0x1D5C JUMP JUMPDEST PUSH2 0x1FE7 PUSH1 0x60 DUP4 ADD DUP5 PUSH2 0x1D5C JUMP JUMPDEST SWAP6 SWAP5 POP POP POP POP POP JUMP JUMPDEST PUSH32 0x4E487B7100000000000000000000000000000000000000000000000000000000 PUSH0 MSTORE PUSH1 0x11 PUSH1 0x4 MSTORE PUSH1 0x24 PUSH0 REVERT JUMPDEST PUSH0 PUSH2 0x2027 DUP3 PUSH2 0x1F92 JUMP JUMPDEST SWAP2 POP PUSH1 0xFF DUP3 SUB PUSH2 0x203A JUMPI PUSH2 0x2039 PUSH2 0x1FF0 JUMP JUMPDEST JUMPDEST PUSH1 0x1 DUP3 ADD SWAP1 POP SWAP2 SWAP1 POP JUMP JUMPDEST PUSH0 PUSH2 0x204F DUP3 PUSH2 0x1F92 JUMP JUMPDEST SWAP2 POP PUSH0 DUP3 SUB PUSH2 0x2061 JUMPI PUSH2 0x2060 PUSH2 0x1FF0 JUMP JUMPDEST JUMPDEST PUSH1 0x1 DUP3 SUB SWAP1 POP SWAP2 SWAP1 POP JUMP JUMPDEST PUSH0 PUSH2 0x2076 DUP3 PUSH2 0x1F92 JUMP JUMPDEST SWAP2 POP PUSH2 0x2081 DUP4 PUSH2 0x1F92 JUMP JUMPDEST SWAP3 POP DUP3 DUP3 SUB SWAP1 POP PUSH1 0xFF DUP2 GT ISZERO PUSH2 0x209A JUMPI PUSH2 0x2099 PUSH2 0x1FF0 JUMP JUMPDEST JUMPDEST SWAP3 SWAP2 POP POP JUMP JUMPDEST PUSH0 PUSH2 0x20AA DUP3 PUSH2 0x1F92 JUMP JUMPDEST SWAP2 POP PUSH2 0x20B5 DUP4 PUSH2 0x1F92 JUMP JUMPDEST SWAP3 POP DUP3 DUP3 ADD SWAP1 POP PUSH1 0xFF DUP2 GT ISZERO PUSH2 0x20CE JUMPI PUSH2 0x20CD PUSH2 0x1FF0 JUMP JUMPDEST JUMPDEST SWAP3 SWAP2 POP POP JUMP JUMPDEST PUSH0 PUSH2 0x20DE DUP3 PUSH2 0x1669 JUMP JUMPDEST SWAP2 POP PUSH2 0x20E9 DUP4 PUSH2 0x1669 JUMP JUMPDEST SWAP3 POP DUP3 DUP3 ADD SWAP1 POP DUP1 DUP3 GT ISZERO PUSH2 0x2101 JUMPI PUSH2 0x2100 PUSH2 0x1FF0 JUMP JUMPDEST JUMPDEST SWAP3 SWAP2 POP POP JUMP JUMPDEST PUSH32 0x57726F6E672064657374696E6174696F6E20636861696E000000000000000000 PUSH0 DUP3 ADD MSTORE POP JUMP JUMPDEST PUSH0 PUSH2 0x213B PUSH1 0x17 DUP4 PUSH2 0x1C02 JUMP JUMPDEST SWAP2 POP PUSH2 0x2146 DUP3 PUSH2 0x2107 JUMP JUMPDEST PUSH1 0x20 DUP3 ADD SWAP1 POP SWAP2 SWAP1 POP JUMP JUMPDEST PUSH0 PUSH1 0x20 DUP3 ADD SWAP1 POP DUP2 DUP2 SUB PUSH0 DUP4 ADD MSTORE PUSH2 0x2168 DUP2 PUSH2 0x212F JUMP JUMPDEST SWAP1 POP SWAP2 SWAP1 POP JUMP JUMPDEST PUSH0 PUSH1 0x60 DUP3 ADD SWAP1 POP DUP2 DUP2 SUB PUSH0 DUP4 ADD MSTORE PUSH2 0x2187 DUP2 DUP7 PUSH2 0x1C12 JUMP JUMPDEST SWAP1 POP DUP2 DUP2 SUB PUSH1 0x20 DUP4 ADD MSTORE PUSH2 0x219B DUP2 DUP6 PUSH2 0x1C12 JUMP JUMPDEST SWAP1 POP DUP2 DUP2 SUB PUSH1 0x40 DUP4 ADD MSTORE PUSH2 0x21AF DUP2 DUP5 PUSH2 0x16FF JUMP JUMPDEST SWAP1 POP SWAP5 SWAP4 POP POP POP POP JUMP JUMPDEST PUSH0 DUP2 SWAP1 POP SWAP3 SWAP2 POP POP JUMP JUMPDEST PUSH32 0x19457468657265756D205369676E6564204D6573736167653A0A333200000000 PUSH0 DUP3 ADD MSTORE POP JUMP JUMPDEST PUSH0 PUSH2 0x21F7 PUSH1 0x1C DUP4 PUSH2 0x21B9 JUMP JUMPDEST SWAP2 POP PUSH2 0x2202 DUP3 PUSH2 0x21C3 JUMP JUMPDEST PUSH1 0x1C DUP3 ADD SWAP1 POP SWAP2 SWAP1 POP JUMP JUMPDEST PUSH0 DUP2 SWAP1 POP SWAP2 SWAP1 POP JUMP JUMPDEST PUSH2 0x2227 PUSH2 0x2222 DUP3 PUSH2 0x199E JUMP JUMPDEST PUSH2 0x220D JUMP JUMPDEST DUP3 MSTORE POP POP JUMP JUMPDEST PUSH0 PUSH2 0x2237 DUP3 PUSH2 0x21EB JUMP JUMPDEST SWAP2 POP PUSH2 0x2243 DUP3 DUP5 PUSH2 0x2216 JUMP JUMPDEST PUSH1 0x20 DUP3 ADD SWAP2 POP DUP2 SWAP1 POP SWAP3 SWAP2 POP POP JUMP JUMPDEST PUSH0 PUSH2 0x225C DUP3 PUSH2 0x1BF8 JUMP JUMPDEST PUSH2 0x2266 DUP2 DUP6 PUSH2 0x21B9 JUMP JUMPDEST SWAP4 POP PUSH2 0x2276 DUP2 DUP6 PUSH1 0x20 DUP7 ADD PUSH2 0x16E1 JUMP JUMPDEST DUP1 DUP5 ADD SWAP2 POP POP SWAP3 SWAP2 POP POP JUMP JUMPDEST PUSH32 0x5F7661756C740000000000000000000000000000000000000000000000000000 PUSH0 DUP3 ADD MSTORE POP JUMP JUMPDEST PUSH0 PUSH2 0x22B6 PUSH1 0x6 DUP4 PUSH2 0x21B9 JUMP JUMPDEST SWAP2 POP PUSH2 0x22C1 DUP3 PUSH2 0x2282 JUMP JUMPDEST PUSH1 0x6 DUP3 ADD SWAP1 POP SWAP2 SWAP1 POP JUMP JUMPDEST PUSH0 PUSH2 0x22D7 DUP3 DUP5 PUSH2 0x2252 JUMP JUMPDEST SWAP2 POP PUSH2 0x22E2 DUP3 PUSH2 0x22AA JUMP JUMPDEST SWAP2 POP DUP2 SWAP1 POP SWAP3 SWAP2 POP POP JUMP JUMPDEST PUSH32 0x5169617261426173654173736574730000000000000000000000000000000000 PUSH0 DUP3 ADD MSTORE POP JUMP JUMPDEST PUSH0 PUSH2 0x2321 PUSH1 0xF DUP4 PUSH2 0x1C02 JUMP JUMPDEST SWAP2 POP PUSH2 0x232C DUP3 PUSH2 0x22ED JUMP JUMPDEST PUSH1 0x20 DUP3 ADD SWAP1 POP SWAP2 SWAP1 POP JUMP JUMPDEST PUSH0 PUSH1 0x40 DUP3 ADD SWAP1 POP DUP2 DUP2 SUB PUSH0 DUP4 ADD MSTORE PUSH2 0x234E DUP2 PUSH2 0x2315 JUMP JUMPDEST SWAP1 POP DUP2 DUP2 SUB PUSH1 0x20 DUP4 ADD MSTORE PUSH2 0x2362 DUP2 DUP5 PUSH2 0x1C12 JUMP JUMPDEST SWAP1 POP SWAP3 SWAP2 POP POP JUMP JUMPDEST PUSH0 PUSH2 0x237C PUSH2 0x2377 DUP5 PUSH2 0x1A4D JUMP JUMPDEST PUSH2 0x1A33 JUMP JUMPDEST SWAP1 POP DUP3 DUP2 MSTORE PUSH1 0x20 DUP2 ADD DUP5 DUP5 DUP5 ADD GT ISZERO PUSH2 0x2398 JUMPI PUSH2 0x2397 PUSH2 0x19D1 JUMP JUMPDEST JUMPDEST PUSH2 0x23A3 DUP5 DUP3 DUP6 PUSH2 0x16E1 JUMP JUMPDEST POP SWAP4 SWAP3 POP POP POP JUMP JUMPDEST PUSH0 DUP3 PUSH1 0x1F DUP4 ADD SLT PUSH2 0x23BF JUMPI PUSH2 0x23BE PUSH2 0x179D JUMP JUMPDEST JUMPDEST DUP2 MLOAD PUSH2 0x23CF DUP5 DUP3 PUSH1 0x20 DUP7 ADD PUSH2 0x236A JUMP JUMPDEST SWAP2 POP POP SWAP3 SWAP2 POP POP JUMP JUMPDEST PUSH0 PUSH1 0x20 DUP3 DUP5 SUB SLT ISZERO PUSH2 0x23ED JUMPI PUSH2 0x23EC PUSH2 0x1661 JUMP JUMPDEST JUMPDEST PUSH0 DUP3 ADD MLOAD PUSH8 0xFFFFFFFFFFFFFFFF DUP2 GT ISZERO PUSH2 0x240A JUMPI PUSH2 0x2409 PUSH2 0x1665 JUMP JUMPDEST JUMPDEST PUSH2 0x2416 DUP5 DUP3 DUP6 ADD PUSH2 0x23AB JUMP JUMPDEST SWAP2 POP POP SWAP3 SWAP2 POP POP JUMP JUMPDEST PUSH32 0x5661756C74206E6F7420617574686F72697A6564000000000000000000000000 PUSH0 DUP3 ADD MSTORE POP JUMP JUMPDEST PUSH0 PUSH2 0x2453 PUSH1 0x14 DUP4 PUSH2 0x1C02 JUMP JUMPDEST SWAP2 POP PUSH2 0x245E DUP3 PUSH2 0x241F JUMP JUMPDEST PUSH1 0x20 DUP3 ADD SWAP1 POP SWAP2 SWAP1 POP JUMP JUMPDEST PUSH0 PUSH1 0x20 DUP3 ADD SWAP1 POP DUP2 DUP2 SUB PUSH0 DUP4 ADD MSTORE PUSH2 0x2480 DUP2 PUSH2 0x2447 JUMP JUMPDEST SWAP1 POP SWAP2 SWAP1 POP JUMP JUMPDEST PUSH0 DUP2 SWAP1 POP PUSH1 0x20 DUP3 ADD SWAP1 POP SWAP2 SWAP1 POP JUMP JUMPDEST PUSH0 PUSH32 0xFFFFFFFFFFFFFFFFFFFFFFFFFFFFFFFFFFFFFFFF000000000000000000000000 DUP3 AND SWAP1 POP SWAP2 SWAP1 POP JUMP JUMPDEST PUSH0 PUSH2 0x24CC DUP3 MLOAD PUSH2 0x2496 JUMP JUMPDEST DUP1 SWAP2 POP POP SWAP2 SWAP1 POP JUMP JUMPDEST PUSH0 DUP3 DUP3 SHL SWAP1 POP SWAP3 SWAP2 POP POP JUMP JUMPDEST PUSH0 PUSH2 0x24EB DUP3 PUSH2 0x16C7 JUMP JUMPDEST DUP3 PUSH2 0x24F5 DUP5 PUSH2 0x2487 JUMP JUMPDEST SWAP1 POP PUSH2 0x2500 DUP2 PUSH2 0x24C1 JUMP JUMPDEST SWAP3 POP PUSH1 0x14 DUP3 LT ISZERO PUSH2 0x2540 JUMPI PUSH2 0x253B PUSH32 0xFFFFFFFFFFFFFFFFFFFFFFFFFFFFFFFFFFFFFFFF000000000000000000000000 DUP4 PUSH1 0x14 SUB PUSH1 0x8 MUL PUSH2 0x24D5 JUMP JUMPDEST DUP4 AND SWAP3 POP JUMPDEST POP POP SWAP2 SWAP1 POP JUMP JUMPDEST PUSH0 PUSH2 0x2552 DUP3 DUP10 PUSH2 0x1D8D JUMP JUMPDEST PUSH1 0x20 DUP3 ADD SWAP2 POP PUSH2 0x2562 DUP3 DUP9 PUSH2 0x1D8D JUMP JUMPDEST PUSH1 0x20 DUP3 ADD SWAP2 POP PUSH2 0x2572 DUP3 DUP8 PUSH2 0x1D8D JUMP JUMPDEST PUSH1 0x20 DUP3 ADD SWAP2 POP PUSH2 0x2582 DUP3 DUP7 PUSH2 0x1D8D JUMP JUMPDEST PUSH1 0x20 DUP3 ADD SWAP2 POP PUSH2 0x2592 DUP3 DUP6 PUSH2 0x1D8D JUMP JUMPDEST PUSH1 0x20 DUP3 ADD SWAP2 POP PUSH2 0x25A2 DUP3 DUP5 PUSH2 0x1D8D JUMP JUMPDEST PUSH1 0x20 DUP3 ADD SWAP2 POP DUP2 SWAP1 POP SWAP8 SWAP7 POP POP POP POP POP POP POP JUMP JUMPDEST PUSH0 PUSH8 0xFFFFFFFFFFFFFFFF DUP3 GT ISZERO PUSH2 0x25D0 JUMPI PUSH2 0x25CF PUSH2 0x19D5 JUMP JUMPDEST JUMPDEST PUSH1 0x20 DUP3 MUL SWAP1 POP PUSH1 0x20 DUP2 ADD SWAP1 POP SWAP2 SWAP1 POP JUMP JUMPDEST PUSH0 DUP2 MLOAD SWAP1 POP PUSH2 0x25EF DUP2 PUSH2 0x1CA3 JUMP JUMPDEST SWAP3 SWAP2 POP POP JUMP JUMPDEST PUSH0 PUSH2 0x2607 PUSH2 0x2602 DUP5 PUSH2 0x25B6 JUMP JUMPDEST PUSH2 0x1A33 JUMP JUMPDEST SWAP1 POP DUP1 DUP4 DUP3 MSTORE PUSH1 0x20 DUP3 ADD SWAP1 POP PUSH1 0x20 DUP5 MUL DUP4 ADD DUP6 DUP2 GT ISZERO PUSH2 0x262A JUMPI PUSH2 0x2629 PUSH2 0x1757 JUMP JUMPDEST JUMPDEST DUP4 JUMPDEST DUP2 DUP2 LT ISZERO PUSH2 0x2653 JUMPI DUP1 PUSH2 0x263F DUP9 DUP3 PUSH2 0x25E1 JUMP JUMPDEST DUP5 MSTORE PUSH1 0x20 DUP5 ADD SWAP4 POP POP PUSH1 0x20 DUP2 ADD SWAP1 POP PUSH2 0x262C JUMP JUMPDEST POP POP POP SWAP4 SWAP3 POP POP POP JUMP JUMPDEST PUSH0 DUP3 PUSH1 0x1F DUP4 ADD SLT PUSH2 0x2671 JUMPI PUSH2 0x2670 PUSH2 0x179D JUMP JUMPDEST JUMPDEST DUP2 MLOAD PUSH2 0x2681 DUP5 DUP3 PUSH1 0x20 DUP7 ADD PUSH2 0x25F5 JUMP JUMPDEST SWAP2 POP POP SWAP3 SWAP2 POP POP JUMP JUMPDEST PUSH0 PUSH1 0x20 DUP3 DUP5 SUB SLT ISZERO PUSH2 0x269F JUMPI PUSH2 0x269E PUSH2 0x1661 JUMP JUMPDEST JUMPDEST PUSH0 DUP3 ADD MLOAD PUSH8 0xFFFFFFFFFFFFFFFF DUP2 GT ISZERO PUSH2 0x26BC JUMPI PUSH2 0x26BB PUSH2 0x1665 JUMP JUMPDEST JUMPDEST PUSH2 0x26C8 DUP5 DUP3 DUP6 ADD PUSH2 0x265D JUMP JUMPDEST SWAP2 POP POP SWAP3 SWAP2 POP POP JUMP JUMPDEST PUSH0 PUSH2 0x26DB DUP3 PUSH2 0x1669 JUMP JUMPDEST SWAP2 POP PUSH2 0x26E6 DUP4 PUSH2 0x1669 JUMP JUMPDEST SWAP3 POP DUP3 DUP3 MUL PUSH2 0x26F4 DUP2 PUSH2 0x1669 JUMP JUMPDEST SWAP2 POP DUP3 DUP3 DIV DUP5 EQ DUP4 ISZERO OR PUSH2 0x270B JUMPI PUSH2 0x270A PUSH2 0x1FF0 JUMP JUMPDEST JUMPDEST POP SWAP3 SWAP2 POP POP JUMP JUMPDEST PUSH0 PUSH0 REVERT JUMPDEST PUSH0 PUSH0 REVERT JUMPDEST PUSH0 PUSH0 DUP6 DUP6 GT ISZERO PUSH2 0x272D JUMPI PUSH2 0x272C PUSH2 0x2712 JUMP JUMPDEST JUMPDEST DUP4 DUP7 GT ISZERO PUSH2 0x273E JUMPI PUSH2 0x273D PUSH2 0x2716 JUMP JUMPDEST JUMPDEST PUSH1 0x1 DUP6 MUL DUP4 ADD SWAP2 POP DUP5 DUP7 SUB SWAP1 POP SWAP5 POP SWAP5 SWAP3 POP POP POP JUMP JUMPDEST PUSH32 0x496E76616C6964207369676E6174757265000000000000000000000000000000 PUSH0 DUP3 ADD MSTORE POP JUMP JUMPDEST PUSH0 PUSH2 0x2788 PUSH1 0x11 DUP4 PUSH2 0x1C02 JUMP JUMPDEST SWAP2 POP PUSH2 0x2793 DUP3 PUSH2 0x2754 JUMP JUMPDEST PUSH1 0x20 DUP3 ADD SWAP1 POP SWAP2 SWAP1 POP JUMP JUMPDEST PUSH0 PUSH1 0x20 DUP3 ADD SWAP1 POP DUP2 DUP2 SUB PUSH0 DUP4 ADD MSTORE PUSH2 0x27B5 DUP2 PUSH2 0x277C JUMP JUMPDEST SWAP1 POP SWAP2 SWAP1 POP JUMP JUMPDEST PUSH32 0x5369676E6572206E6F7420616E206163746976652076616C696461746F720000 PUSH0 DUP3 ADD MSTORE POP JUMP JUMPDEST PUSH0 PUSH2 0x27F0 PUSH1 0x1E DUP4 PUSH2 0x1C02 JUMP JUMPDEST SWAP2 POP PUSH2 0x27FB DUP3 PUSH2 0x27BC JUMP JUMPDEST PUSH1 0x20 DUP3 ADD SWAP1 POP SWAP2 SWAP1 POP JUMP JUMPDEST PUSH0 PUSH1 0x20 DUP3 ADD SWAP1 POP DUP2 DUP2 SUB PUSH0 DUP4 ADD MSTORE PUSH2 0x281D DUP2 PUSH2 0x27E4 JUMP JUMPDEST SWAP1 POP SWAP2 SWAP1 POP JUMP JUMPDEST PUSH0 PUSH2 0x282F DUP3 DUP9 PUSH2 0x1D8D JUMP JUMPDEST PUSH1 0x20 DUP3 ADD SWAP2 POP PUSH2 0x283F DUP3 DUP8 PUSH2 0x1D8D JUMP JUMPDEST PUSH1 0x20 DUP3 ADD SWAP2 POP PUSH2 0x284F DUP3 DUP7 PUSH2 0x1D8D JUMP JUMPDEST PUSH1 0x20 DUP3 ADD SWAP2 POP PUSH2 0x285F DUP3 DUP6 PUSH2 0x1D8D JUMP JUMPDEST PUSH1 0x20 DUP3 ADD SWAP2 POP PUSH2 0x286F DUP3 DUP5 PUSH2 0x1D8D JUMP JUMPDEST PUSH1 0x20 DUP3 ADD SWAP2 POP DUP2 SWAP1 POP SWAP7 SWAP6 POP POP POP POP POP POP JUMP INVALID LOG2 PUSH5 0x6970667358 0x22 SLT KECCAK256 PUSH16 0x37D830704BDD4A25AD41B2CC4928F87 DATALOADN 0xC839 SWAP10 0xD4 0xBB 0xE8 0xB2 PUSH26 0x94DC1DB2F1BD64736F6C634300081F0033000000000000000000 "
				},
				"gasEstimates": {
					"creation": {
						"codeDepositCost": "2084800",
						"executionCost": "infinite",
						"totalCost": "infinite"
					},
					"external": {
						"balance_verifier()": "infinite",
						"deriveAddressFromSplitPubKey(uint256,uint256,uint256,uint256)": "infinite",
						"fieldToAddress(uint256)": "686",
						"fieldToBytes(uint256)": "infinite",
						"fieldToString(uint256)": "infinite",
						"getEthSignedMessageHash(bytes32)": "infinite",
						"owner()": "2581",
						"processZkValidator(uint256[8],uint256[6],bytes)": "infinite",
						"processZkVariable(uint256[8],uint256[6],bytes)": "infinite",
						"processZkWithdraw(uint256[8],uint256[6],bytes)": "infinite",
						"recoverSigner(bytes32,bytes)": "infinite",
						"renounceOwnership()": "infinite",
						"transferOwnership(address)": "infinite",
						"usedNullifiers(uint256)": "2896",
						"validator_verifier()": "infinite",
						"validatorsRegistry()": "infinite",
						"variable_verifier()": "infinite",
						"variablesRegistry()": "infinite"
					},
					"internal": {
						"_calculateNullifier6(uint256[6] calldata)": "infinite",
						"_calculateNullifier8(uint256[6] calldata)": "infinite",
						"_prepareWithdrawal(uint256[6] calldata)": "infinite",
						"_verifyAllSignatures(bytes32,bytes calldata)": "infinite"
					}
				},
				"methodIdentifiers": {
					"balance_verifier()": "f90c0f40",
					"deriveAddressFromSplitPubKey(uint256,uint256,uint256,uint256)": "41e532ca",
					"fieldToAddress(uint256)": "7a988c54",
					"fieldToBytes(uint256)": "19b8c941",
					"fieldToString(uint256)": "b648f220",
					"getEthSignedMessageHash(bytes32)": "fa540801",
					"owner()": "8da5cb5b",
					"processZkValidator(uint256[8],uint256[6],bytes)": "bdf877c9",
					"processZkVariable(uint256[8],uint256[6],bytes)": "f82d29d9",
					"processZkWithdraw(uint256[8],uint256[6],bytes)": "392c8731",
					"recoverSigner(bytes32,bytes)": "97aba7f9",
					"renounceOwnership()": "715018a6",
					"transferOwnership(address)": "f2fde38b",
					"usedNullifiers(uint256)": "aad24061",
					"validator_verifier()": "b3d63003",
					"validatorsRegistry()": "aed881d8",
					"variable_verifier()": "4eb30d41",
					"variablesRegistry()": "bf4d766e"
				}
			},
			"storageLayout": {
				"storage": [
					{
						"astId": 8,
						"contract": "Evm/core/base/vaultDelegator.sol:QiaraZKDelegator",
						"label": "_owner",
						"offset": 0,
						"slot": "0",
						"type": "t_address"
					},
					{
						"astId": 280,
						"contract": "Evm/core/base/vaultDelegator.sol:QiaraZKDelegator",
						"label": "usedNullifiers",
						"offset": 0,
						"slot": "1",
						"type": "t_mapping(t_uint256,t_bool)"
					}
				],
				"types": {
					"t_address": {
						"encoding": "inplace",
						"label": "address",
						"numberOfBytes": "20"
					},
					"t_bool": {
						"encoding": "inplace",
						"label": "bool",
						"numberOfBytes": "1"
					},
					"t_mapping(t_uint256,t_bool)": {
						"encoding": "mapping",
						"key": "t_uint256",
						"label": "mapping(uint256 => bool)",
						"numberOfBytes": "32",
						"value": "t_bool"
					},
					"t_uint256": {
						"encoding": "inplace",
						"label": "uint256",
						"numberOfBytes": "32"
					}
				}
			},
			"userdoc": {
				"kind": "user",
				"methods": {},
				"version": 1
			}
		}
	}
}