{
	"Evm/zk/balance_verifier.sol": {
		"Verifier": {
			"abi": [
				{
					"inputs": [],
					"name": "ProofInvalid",
					"type": "error"
				},
				{
					"inputs": [],
					"name": "PublicInputNotInField",
					"type": "error"
				},
				{
					"inputs": [
						{
							"internalType": "uint256[8]",
							"name": "proof",
							"type": "uint256[8]"
						}
					],
					"name": "compressProof",
					"outputs": [
						{
							"internalType": "uint256[4]",
							"name": "compressed",
							"type": "uint256[4]"
						}
					],
					"stateMutability": "view",
					"type": "function"
				},
				{
					"inputs": [
						{
							"internalType": "uint256[4]",
							"name": "compressedProof",
							"type": "uint256[4]"
						},
						{
							"internalType": "uint256[6]",
							"name": "input",
							"type": "uint256[6]"
						}
					],
					"name": "verifyCompressedProof",
					"outputs": [],
					"stateMutability": "view",
					"type": "function"
				},
				{
					"inputs": [
						{
							"internalType": "uint256[8]",
							"name": "proof",
							"type": "uint256[8]"
						},
						{
							"internalType": "uint256[6]",
							"name": "input",
							"type": "uint256[6]"
						}
					],
					"name": "verifyProof",
					"outputs": [],
					"stateMutability": "view",
					"type": "function"
				}
			],
			"devdoc": {
				"author": "Remco Bloemen",
				"errors": {
					"ProofInvalid()": [
						{
							"details": "This can mean that provided Groth16 proof points are not on their curves, that pairing equation fails, or that the proof is not for the provided public input."
						}
					],
					"PublicInputNotInField()": [
						{
							"details": "Public input elements are not automatically reduced, as this is can be a dangerous source of bugs."
						}
					]
				},
				"kind": "dev",
				"methods": {
					"compressProof(uint256[8])": {
						"params": {
							"proof": "The uncompressed Groth16 proof. Elements are in the same order as for verifyProof. I.e. Groth16 points (A, B, C) encoded as in EIP-197."
						},
						"returns": {
							"compressed": "The compressed proof. Elements are in the same order as for verifyCompressedProof. I.e. points (A, B, C) in compressed format."
						}
					},
					"verifyCompressedProof(uint256[4],uint256[6])": {
						"params": {
							"compressedProof": "the points (A, B, C) in compressed format matching the output of compressProof.",
							"input": "the public input field elements in the scalar field Fr. Elements must be reduced."
						}
					},
					"verifyProof(uint256[8],uint256[6])": {
						"params": {
							"input": "the public input field elements in the scalar field Fr. Elements must be reduced.",
							"proof": "the points (A, B, C) in EIP-197 format matching the output of compressProof."
						}
					}
				},
				"title": "Groth16 verifier template.",
				"version": 1
			},
			"evm": {
				"assembly": "    /* \"Evm/zk/balance_verifier.sol\":394:27796  contract Verifier {... */\n  mstore(0x40, 0x80)\n  callvalue\n  dup1\n  iszero\n  tag_1\n  jumpi\n  revert(0x00, 0x00)\ntag_1:\n  pop\n  dataSize(sub_0)\n  dup1\n  dataOffset(sub_0)\n  0x00\n  codecopy\n  0x00\n  return\nstop\n\nsub_0: assembly {\n        /* \"Evm/zk/balance_verifier.sol\":394:27796  contract Verifier {... */\n      mstore(0x40, 0x80)\n      callvalue\n      dup1\n      iszero\n      tag_1\n      jumpi\n      revert(0x00, 0x00)\n    tag_1:\n      pop\n      jumpi(tag_2, lt(calldatasize, 0x04))\n      shr(0xe0, calldataload(0x00))\n      dup1\n      0x44f63692\n      eq\n      tag_3\n      jumpi\n      dup1\n      0x9cb28658\n      eq\n      tag_4\n      jumpi\n      dup1\n      0xf7169189\n      eq\n      tag_5\n      jumpi\n    tag_2:\n      revert(0x00, 0x00)\n        /* \"Evm/zk/balance_verifier.sol\":21896:22221  function compressProof(uint256[8] calldata proof)... */\n    tag_3:\n      tag_6\n      0x04\n      dup1\n      calldatasize\n      sub\n      dup2\n      add\n      swap1\n      tag_7\n      swap2\n      swap1\n      tag_8\n      jump\t// in\n    tag_7:\n      tag_9\n      jump\t// in\n    tag_6:\n      mload(0x40)\n      tag_10\n      swap2\n      swap1\n      tag_11\n      jump\t// in\n    tag_10:\n      mload(0x40)\n      dup1\n      swap2\n      sub\n      swap1\n      return\n        /* \"Evm/zk/balance_verifier.sol\":25619:27793  function verifyProof(... */\n    tag_4:\n      tag_12\n      0x04\n      dup1\n      calldatasize\n      sub\n      dup2\n      add\n      swap1\n      tag_13\n      swap2\n      swap1\n      tag_14\n      jump\t// in\n    tag_13:\n      tag_15\n      jump\t// in\n    tag_12:\n      stop\n        /* \"Evm/zk/balance_verifier.sol\":22780:25082  function verifyCompressedProof(... */\n    tag_5:\n      tag_16\n      0x04\n      dup1\n      calldatasize\n      sub\n      dup2\n      add\n      swap1\n      tag_17\n      swap2\n      swap1\n      tag_18\n      jump\t// in\n    tag_17:\n      tag_19\n      jump\t// in\n    tag_16:\n      stop\n        /* \"Evm/zk/balance_verifier.sol\":21896:22221  function compressProof(uint256[8] calldata proof)... */\n    tag_9:\n        /* \"Evm/zk/balance_verifier.sol\":21972:22000  uint256[4] memory compressed */\n      tag_20\n      tag_21\n      jump\t// in\n    tag_20:\n        /* \"Evm/zk/balance_verifier.sol\":22029:22060  compress_g1(proof[0], proof[1]) */\n      tag_23\n        /* \"Evm/zk/balance_verifier.sol\":22041:22046  proof */\n      dup3\n        /* \"Evm/zk/balance_verifier.sol\":22047:22048  0 */\n      0x00\n        /* \"Evm/zk/balance_verifier.sol\":22041:22049  proof[0] */\n      0x08\n      dup2\n      lt\n      tag_24\n      jumpi\n      tag_25\n      tag_26\n      jump\t// in\n    tag_25:\n    tag_24:\n      0x20\n      mul\n      add\n      calldataload\n        /* \"Evm/zk/balance_verifier.sol\":22051:22056  proof */\n      dup4\n        /* \"Evm/zk/balance_verifier.sol\":22057:22058  1 */\n      0x01\n        /* \"Evm/zk/balance_verifier.sol\":22051:22059  proof[1] */\n      0x08\n      dup2\n      lt\n      tag_27\n      jumpi\n      tag_28\n      tag_26\n      jump\t// in\n    tag_28:\n    tag_27:\n      0x20\n      mul\n      add\n      calldataload\n        /* \"Evm/zk/balance_verifier.sol\":22029:22040  compress_g1 */\n      tag_29\n        /* \"Evm/zk/balance_verifier.sol\":22029:22060  compress_g1(proof[0], proof[1]) */\n      jump\t// in\n    tag_23:\n        /* \"Evm/zk/balance_verifier.sol\":22013:22023  compressed */\n      dup2\n        /* \"Evm/zk/balance_verifier.sol\":22024:22025  0 */\n      0x00\n        /* \"Evm/zk/balance_verifier.sol\":22013:22026  compressed[0] */\n      0x04\n      dup2\n      lt\n      tag_30\n      jumpi\n      tag_31\n      tag_26\n      jump\t// in\n    tag_31:\n    tag_30:\n      0x20\n      mul\n      add\n        /* \"Evm/zk/balance_verifier.sol\":22013:22060  compressed[0] = compress_g1(proof[0], proof[1]) */\n      dup2\n      dup2\n      mstore\n      pop\n      pop\n        /* \"Evm/zk/balance_verifier.sol\":22104:22155  compress_g2(proof[3], proof[2], proof[5], proof[4]) */\n      tag_32\n        /* \"Evm/zk/balance_verifier.sol\":22116:22121  proof */\n      dup3\n        /* \"Evm/zk/balance_verifier.sol\":22122:22123  3 */\n      0x03\n        /* \"Evm/zk/balance_verifier.sol\":22116:22124  proof[3] */\n      0x08\n      dup2\n      lt\n      tag_33\n      jumpi\n      tag_34\n      tag_26\n      jump\t// in\n    tag_34:\n    tag_33:\n      0x20\n      mul\n      add\n      calldataload\n        /* \"Evm/zk/balance_verifier.sol\":22126:22131  proof */\n      dup4\n        /* \"Evm/zk/balance_verifier.sol\":22132:22133  2 */\n      0x02\n        /* \"Evm/zk/balance_verifier.sol\":22126:22134  proof[2] */\n      0x08\n      dup2\n      lt\n      tag_35\n      jumpi\n      tag_36\n      tag_26\n      jump\t// in\n    tag_36:\n    tag_35:\n      0x20\n      mul\n      add\n      calldataload\n        /* \"Evm/zk/balance_verifier.sol\":22136:22141  proof */\n      dup5\n        /* \"Evm/zk/balance_verifier.sol\":22142:22143  5 */\n      0x05\n        /* \"Evm/zk/balance_verifier.sol\":22136:22144  proof[5] */\n      0x08\n      dup2\n      lt\n      tag_37\n      jumpi\n      tag_38\n      tag_26\n      jump\t// in\n    tag_38:\n    tag_37:\n      0x20\n      mul\n      add\n      calldataload\n        /* \"Evm/zk/balance_verifier.sol\":22146:22151  proof */\n      dup6\n        /* \"Evm/zk/balance_verifier.sol\":22152:22153  4 */\n      0x04\n        /* \"Evm/zk/balance_verifier.sol\":22146:22154  proof[4] */\n      0x08\n      dup2\n      lt\n      tag_39\n      jumpi\n      tag_40\n      tag_26\n      jump\t// in\n    tag_40:\n    tag_39:\n      0x20\n      mul\n      add\n      calldataload\n        /* \"Evm/zk/balance_verifier.sol\":22104:22115  compress_g2 */\n      tag_41\n        /* \"Evm/zk/balance_verifier.sol\":22104:22155  compress_g2(proof[3], proof[2], proof[5], proof[4]) */\n      jump\t// in\n    tag_32:\n        /* \"Evm/zk/balance_verifier.sol\":22072:22082  compressed */\n      dup3\n        /* \"Evm/zk/balance_verifier.sol\":22083:22084  2 */\n      0x02\n        /* \"Evm/zk/balance_verifier.sol\":22072:22085  compressed[2] */\n      0x04\n      dup2\n      lt\n      tag_42\n      jumpi\n      tag_43\n      tag_26\n      jump\t// in\n    tag_43:\n    tag_42:\n      0x20\n      mul\n      add\n        /* \"Evm/zk/balance_verifier.sol\":22087:22097  compressed */\n      dup4\n        /* \"Evm/zk/balance_verifier.sol\":22098:22099  1 */\n      0x01\n        /* \"Evm/zk/balance_verifier.sol\":22087:22100  compressed[1] */\n      0x04\n      dup2\n      lt\n      tag_44\n      jumpi\n      tag_45\n      tag_26\n      jump\t// in\n    tag_45:\n    tag_44:\n      0x20\n      mul\n      add\n        /* \"Evm/zk/balance_verifier.sol\":22071:22155  (compressed[2], compressed[1]) = compress_g2(proof[3], proof[2], proof[5], proof[4]) */\n      dup3\n      dup2\n      mstore\n      pop\n      dup3\n      dup2\n      mstore\n      pop\n      pop\n      pop\n        /* \"Evm/zk/balance_verifier.sol\":22182:22213  compress_g1(proof[6], proof[7]) */\n      tag_46\n        /* \"Evm/zk/balance_verifier.sol\":22194:22199  proof */\n      dup3\n        /* \"Evm/zk/balance_verifier.sol\":22200:22201  6 */\n      0x06\n        /* \"Evm/zk/balance_verifier.sol\":22194:22202  proof[6] */\n      0x08\n      dup2\n      lt\n      tag_47\n      jumpi\n      tag_48\n      tag_26\n      jump\t// in\n    tag_48:\n    tag_47:\n      0x20\n      mul\n      add\n      calldataload\n        /* \"Evm/zk/balance_verifier.sol\":22204:22209  proof */\n      dup4\n        /* \"Evm/zk/balance_verifier.sol\":22210:22211  7 */\n      0x07\n        /* \"Evm/zk/balance_verifier.sol\":22204:22212  proof[7] */\n      0x08\n      dup2\n      lt\n      tag_49\n      jumpi\n      tag_50\n      tag_26\n      jump\t// in\n    tag_50:\n    tag_49:\n      0x20\n      mul\n      add\n      calldataload\n        /* \"Evm/zk/balance_verifier.sol\":22182:22193  compress_g1 */\n      tag_29\n        /* \"Evm/zk/balance_verifier.sol\":22182:22213  compress_g1(proof[6], proof[7]) */\n      jump\t// in\n    tag_46:\n        /* \"Evm/zk/balance_verifier.sol\":22166:22176  compressed */\n      dup2\n        /* \"Evm/zk/balance_verifier.sol\":22177:22178  3 */\n      0x03\n        /* \"Evm/zk/balance_verifier.sol\":22166:22179  compressed[3] */\n      0x04\n      dup2\n      lt\n      tag_51\n      jumpi\n      tag_52\n      tag_26\n      jump\t// in\n    tag_52:\n    tag_51:\n      0x20\n      mul\n      add\n        /* \"Evm/zk/balance_verifier.sol\":22166:22213  compressed[3] = compress_g1(proof[6], proof[7]) */\n      dup2\n      dup2\n      mstore\n      pop\n      pop\n        /* \"Evm/zk/balance_verifier.sol\":21896:22221  function compressProof(uint256[8] calldata proof)... */\n      swap2\n      swap1\n      pop\n      jump\t// out\n        /* \"Evm/zk/balance_verifier.sol\":25619:27793  function verifyProof(... */\n    tag_15:\n        /* \"Evm/zk/balance_verifier.sol\":25743:25752  uint256 x */\n      0x00\n        /* \"Evm/zk/balance_verifier.sol\":25754:25763  uint256 y */\n      0x00\n        /* \"Evm/zk/balance_verifier.sol\":25767:25788  publicInputMSM(input) */\n      tag_54\n        /* \"Evm/zk/balance_verifier.sol\":25782:25787  input */\n      dup4\n        /* \"Evm/zk/balance_verifier.sol\":25767:25781  publicInputMSM */\n      tag_55\n        /* \"Evm/zk/balance_verifier.sol\":25767:25788  publicInputMSM(input) */\n      jump\t// in\n    tag_54:\n        /* \"Evm/zk/balance_verifier.sol\":25742:25788  (uint256 x, uint256 y) = publicInputMSM(input) */\n      swap2\n      pop\n      swap2\n      pop\n        /* \"Evm/zk/balance_verifier.sol\":25979:25991  bool success */\n      0x00\n        /* \"Evm/zk/balance_verifier.sol\":26057:26061  0x40 */\n      0x40\n        /* \"Evm/zk/balance_verifier.sol\":26051:26062  mload(0x40) */\n      mload\n        /* \"Evm/zk/balance_verifier.sol\":26273:26278  0x100 */\n      0x0100\n        /* \"Evm/zk/balance_verifier.sol\":26266:26271  proof */\n      dup7\n        /* \"Evm/zk/balance_verifier.sol\":26263:26264  f */\n      dup3\n        /* \"Evm/zk/balance_verifier.sol\":26250:26279  calldatacopy(f, proof, 0x100) */\n      calldatacopy\n        /* \"Evm/zk/balance_verifier.sol\":26587:26600  DELTA_NEG_X_1 */\n      0x205818a13ccbd197376df9df5c7b3187ba6a330db5826603456b0032324b0077\n        /* \"Evm/zk/balance_verifier.sol\":26579:26584  0x100 */\n      0x0100\n        /* \"Evm/zk/balance_verifier.sol\":26576:26577  f */\n      dup3\n        /* \"Evm/zk/balance_verifier.sol\":26572:26585  add(f, 0x100) */\n      add\n        /* \"Evm/zk/balance_verifier.sol\":26565:26601  mstore(add(f, 0x100), DELTA_NEG_X_1) */\n      mstore\n        /* \"Evm/zk/balance_verifier.sol\":26637:26650  DELTA_NEG_X_0 */\n      0x04480ef8576713af36b96aae5f9044fd73f6f4ad7037c4778c764379e12abcd4\n        /* \"Evm/zk/balance_verifier.sol\":26629:26634  0x120 */\n      0x0120\n        /* \"Evm/zk/balance_verifier.sol\":26626:26627  f */\n      dup3\n        /* \"Evm/zk/balance_verifier.sol\":26622:26635  add(f, 0x120) */\n      add\n        /* \"Evm/zk/balance_verifier.sol\":26615:26651  mstore(add(f, 0x120), DELTA_NEG_X_0) */\n      mstore\n        /* \"Evm/zk/balance_verifier.sol\":26687:26700  DELTA_NEG_Y_1 */\n      0x29af77d88e394ae15342aae4d6557b1a68b6c8010073c28008fc12578a532f2e\n        /* \"Evm/zk/balance_verifier.sol\":26679:26684  0x140 */\n      0x0140\n        /* \"Evm/zk/balance_verifier.sol\":26676:26677  f */\n      dup3\n        /* \"Evm/zk/balance_verifier.sol\":26672:26685  add(f, 0x140) */\n      add\n        /* \"Evm/zk/balance_verifier.sol\":26665:26701  mstore(add(f, 0x140), DELTA_NEG_Y_1) */\n      mstore\n        /* \"Evm/zk/balance_verifier.sol\":26737:26750  DELTA_NEG_Y_0 */\n      0x1f50ae538a90dab5325611e5768a7cccf28bb29129d4dbbd61da0139ee9598c0\n        /* \"Evm/zk/balance_verifier.sol\":26729:26734  0x160 */\n      0x0160\n        /* \"Evm/zk/balance_verifier.sol\":26726:26727  f */\n      dup3\n        /* \"Evm/zk/balance_verifier.sol\":26722:26735  add(f, 0x160) */\n      add\n        /* \"Evm/zk/balance_verifier.sol\":26715:26751  mstore(add(f, 0x160), DELTA_NEG_Y_0) */\n      mstore\n        /* \"Evm/zk/balance_verifier.sol\":26787:26794  ALPHA_X */\n      0x2eca3c4a537a830ea534e3763694f7519197e4b8b3a65b2a942223a8ff66f793\n        /* \"Evm/zk/balance_verifier.sol\":26779:26784  0x180 */\n      0x0180\n        /* \"Evm/zk/balance_verifier.sol\":26776:26777  f */\n      dup3\n        /* \"Evm/zk/balance_verifier.sol\":26772:26785  add(f, 0x180) */\n      add\n        /* \"Evm/zk/balance_verifier.sol\":26765:26795  mstore(add(f, 0x180), ALPHA_X) */\n      mstore\n        /* \"Evm/zk/balance_verifier.sol\":26831:26838  ALPHA_Y */\n      0x2bd19544c1ffcdc0d64ff4b989edbf567d1177ba5b60c03bfce962508e2b9b9f\n        /* \"Evm/zk/balance_verifier.sol\":26823:26828  0x1a0 */\n      0x01a0\n        /* \"Evm/zk/balance_verifier.sol\":26820:26821  f */\n      dup3\n        /* \"Evm/zk/balance_verifier.sol\":26816:26829  add(f, 0x1a0) */\n      add\n        /* \"Evm/zk/balance_verifier.sol\":26809:26839  mstore(add(f, 0x1a0), ALPHA_Y) */\n      mstore\n        /* \"Evm/zk/balance_verifier.sol\":26875:26887  BETA_NEG_X_1 */\n      0x21d1ba5cb674a7c33bfaeb6bbb1f0769699591503e88d5878d250114c224fd43\n        /* \"Evm/zk/balance_verifier.sol\":26867:26872  0x1c0 */\n      0x01c0\n        /* \"Evm/zk/balance_verifier.sol\":26864:26865  f */\n      dup3\n        /* \"Evm/zk/balance_verifier.sol\":26860:26873  add(f, 0x1c0) */\n      add\n        /* \"Evm/zk/balance_verifier.sol\":26853:26888  mstore(add(f, 0x1c0), BETA_NEG_X_1) */\n      mstore\n        /* \"Evm/zk/balance_verifier.sol\":26924:26936  BETA_NEG_X_0 */\n      0x150185eacfbb1caa100e4b49f6074c2c117e1dd8ad46387414a50b875167ffe0\n        /* \"Evm/zk/balance_verifier.sol\":26916:26921  0x1e0 */\n      0x01e0\n        /* \"Evm/zk/balance_verifier.sol\":26913:26914  f */\n      dup3\n        /* \"Evm/zk/balance_verifier.sol\":26909:26922  add(f, 0x1e0) */\n      add\n        /* \"Evm/zk/balance_verifier.sol\":26902:26937  mstore(add(f, 0x1e0), BETA_NEG_X_0) */\n      mstore\n        /* \"Evm/zk/balance_verifier.sol\":26973:26985  BETA_NEG_Y_1 */\n      0x158a3e0956b85f6031ec6a74a6190546528f44145b808e48b17e637fa5246d6b\n        /* \"Evm/zk/balance_verifier.sol\":26965:26970  0x200 */\n      0x0200\n        /* \"Evm/zk/balance_verifier.sol\":26962:26963  f */\n      dup3\n        /* \"Evm/zk/balance_verifier.sol\":26958:26971  add(f, 0x200) */\n      add\n        /* \"Evm/zk/balance_verifier.sol\":26951:26986  mstore(add(f, 0x200), BETA_NEG_Y_1) */\n      mstore\n        /* \"Evm/zk/balance_verifier.sol\":27022:27034  BETA_NEG_Y_0 */\n      0x13d7bdac8d88f977f1c304d4927a72026bcc92c2cdfe2e84475017e072094232\n        /* \"Evm/zk/balance_verifier.sol\":27014:27019  0x220 */\n      0x0220\n        /* \"Evm/zk/balance_verifier.sol\":27011:27012  f */\n      dup3\n        /* \"Evm/zk/balance_verifier.sol\":27007:27020  add(f, 0x220) */\n      add\n        /* \"Evm/zk/balance_verifier.sol\":27000:27035  mstore(add(f, 0x220), BETA_NEG_Y_0) */\n      mstore\n        /* \"Evm/zk/balance_verifier.sol\":27071:27072  x */\n      dup4\n        /* \"Evm/zk/balance_verifier.sol\":27063:27068  0x240 */\n      0x0240\n        /* \"Evm/zk/balance_verifier.sol\":27060:27061  f */\n      dup3\n        /* \"Evm/zk/balance_verifier.sol\":27056:27069  add(f, 0x240) */\n      add\n        /* \"Evm/zk/balance_verifier.sol\":27049:27073  mstore(add(f, 0x240), x) */\n      mstore\n        /* \"Evm/zk/balance_verifier.sol\":27109:27110  y */\n      dup3\n        /* \"Evm/zk/balance_verifier.sol\":27101:27106  0x260 */\n      0x0260\n        /* \"Evm/zk/balance_verifier.sol\":27098:27099  f */\n      dup3\n        /* \"Evm/zk/balance_verifier.sol\":27094:27107  add(f, 0x260) */\n      add\n        /* \"Evm/zk/balance_verifier.sol\":27087:27111  mstore(add(f, 0x260), y) */\n      mstore\n        /* \"Evm/zk/balance_verifier.sol\":27147:27160  GAMMA_NEG_X_1 */\n      0x0efc2e6a8395e78aa3ad8343d38305063074040f19beac327dd1cc163b608f7a\n        /* \"Evm/zk/balance_verifier.sol\":27139:27144  0x280 */\n      0x0280\n        /* \"Evm/zk/balance_verifier.sol\":27136:27137  f */\n      dup3\n        /* \"Evm/zk/balance_verifier.sol\":27132:27145  add(f, 0x280) */\n      add\n        /* \"Evm/zk/balance_verifier.sol\":27125:27161  mstore(add(f, 0x280), GAMMA_NEG_X_1) */\n      mstore\n        /* \"Evm/zk/balance_verifier.sol\":27197:27210  GAMMA_NEG_X_0 */\n      0x03f9101f90567b08e1cc967677e11870c91f0ebbd2a744b3de38bbf0acfd7886\n        /* \"Evm/zk/balance_verifier.sol\":27189:27194  0x2a0 */\n      0x02a0\n        /* \"Evm/zk/balance_verifier.sol\":27186:27187  f */\n      dup3\n        /* \"Evm/zk/balance_verifier.sol\":27182:27195  add(f, 0x2a0) */\n      add\n        /* \"Evm/zk/balance_verifier.sol\":27175:27211  mstore(add(f, 0x2a0), GAMMA_NEG_X_0) */\n      mstore\n        /* \"Evm/zk/balance_verifier.sol\":27247:27260  GAMMA_NEG_Y_1 */\n      0x041dc00ca96d0fd58ac3ddb242e13e829d30d73f8ef0de9cb115d2885b0e1f9a\n        /* \"Evm/zk/balance_verifier.sol\":27239:27244  0x2c0 */\n      0x02c0\n        /* \"Evm/zk/balance_verifier.sol\":27236:27237  f */\n      dup3\n        /* \"Evm/zk/balance_verifier.sol\":27232:27245  add(f, 0x2c0) */\n      add\n        /* \"Evm/zk/balance_verifier.sol\":27225:27261  mstore(add(f, 0x2c0), GAMMA_NEG_Y_1) */\n      mstore\n        /* \"Evm/zk/balance_verifier.sol\":27297:27310  GAMMA_NEG_Y_0 */\n      0x226ebad0e5dba64f7b7e548efa315aaa4ec3db0053cdec997599e7275d483060\n        /* \"Evm/zk/balance_verifier.sol\":27289:27294  0x2e0 */\n      0x02e0\n        /* \"Evm/zk/balance_verifier.sol\":27286:27287  f */\n      dup3\n        /* \"Evm/zk/balance_verifier.sol\":27282:27295  add(f, 0x2e0) */\n      add\n        /* \"Evm/zk/balance_verifier.sol\":27275:27311  mstore(add(f, 0x2e0), GAMMA_NEG_Y_0) */\n      mstore\n        /* \"Evm/zk/balance_verifier.sol\":27428:27432  0x20 */\n      0x20\n        /* \"Evm/zk/balance_verifier.sol\":27425:27426  f */\n      dup2\n        /* \"Evm/zk/balance_verifier.sol\":27418:27423  0x300 */\n      0x0300\n        /* \"Evm/zk/balance_verifier.sol\":27415:27416  f */\n      dup4\n        /* \"Evm/zk/balance_verifier.sol\":27396:27413  PRECOMPILE_VERIFY */\n      0x08\n        /* \"Evm/zk/balance_verifier.sol\":27389:27394  gas() */\n      gas\n        /* \"Evm/zk/balance_verifier.sol\":27378:27433  staticcall(gas(), PRECOMPILE_VERIFY, f, 0x300, f, 0x20) */\n      staticcall\n        /* \"Evm/zk/balance_verifier.sol\":27367:27433  success := staticcall(gas(), PRECOMPILE_VERIFY, f, 0x300, f, 0x20) */\n      swap2\n      pop\n        /* \"Evm/zk/balance_verifier.sol\":27545:27546  f */\n      dup1\n        /* \"Evm/zk/balance_verifier.sol\":27539:27547  mload(f) */\n      mload\n        /* \"Evm/zk/balance_verifier.sol\":27530:27537  success */\n      dup3\n        /* \"Evm/zk/balance_verifier.sol\":27526:27548  and(success, mload(f)) */\n      and\n        /* \"Evm/zk/balance_verifier.sol\":27515:27548  success := and(success, mload(f)) */\n      swap2\n      pop\n        /* \"Evm/zk/balance_verifier.sol\":26027:27559  {... */\n      pop\n        /* \"Evm/zk/balance_verifier.sol\":27574:27581  success */\n      dup1\n        /* \"Evm/zk/balance_verifier.sol\":27569:27786  if (!success) {... */\n      tag_56\n      jumpi\n        /* \"Evm/zk/balance_verifier.sol\":27760:27774  ProofInvalid() */\n      mload(0x40)\n      0x7fcdd1f400000000000000000000000000000000000000000000000000000000\n      dup2\n      mstore\n      0x04\n      add\n      mload(0x40)\n      dup1\n      swap2\n      sub\n      swap1\n      revert\n        /* \"Evm/zk/balance_verifier.sol\":27569:27786  if (!success) {... */\n    tag_56:\n        /* \"Evm/zk/balance_verifier.sol\":25731:27793  {... */\n      pop\n      pop\n      pop\n        /* \"Evm/zk/balance_verifier.sol\":25619:27793  function verifyProof(... */\n      pop\n      pop\n      jump\t// out\n        /* \"Evm/zk/balance_verifier.sol\":22780:25082  function verifyCompressedProof(... */\n    tag_19:\n        /* \"Evm/zk/balance_verifier.sol\":22923:22950  uint256[24] memory pairings */\n      tag_58\n      tag_59\n      jump\t// in\n    tag_58:\n        /* \"Evm/zk/balance_verifier.sol\":22979:22989  uint256 Ax */\n      0x00\n        /* \"Evm/zk/balance_verifier.sol\":22991:23001  uint256 Ay */\n      0x00\n        /* \"Evm/zk/balance_verifier.sol\":23005:23038  decompress_g1(compressedProof[0]) */\n      tag_60\n        /* \"Evm/zk/balance_verifier.sol\":23019:23034  compressedProof */\n      dup6\n        /* \"Evm/zk/balance_verifier.sol\":23035:23036  0 */\n      0x00\n        /* \"Evm/zk/balance_verifier.sol\":23019:23037  compressedProof[0] */\n      0x04\n      dup2\n      lt\n      tag_61\n      jumpi\n      tag_62\n      tag_26\n      jump\t// in\n    tag_62:\n    tag_61:\n      0x20\n      mul\n      add\n      calldataload\n        /* \"Evm/zk/balance_verifier.sol\":23005:23018  decompress_g1 */\n      tag_63\n        /* \"Evm/zk/balance_verifier.sol\":23005:23038  decompress_g1(compressedProof[0]) */\n      jump\t// in\n    tag_60:\n        /* \"Evm/zk/balance_verifier.sol\":22978:23038  (uint256 Ax, uint256 Ay) = decompress_g1(compressedProof[0]) */\n      swap2\n      pop\n      swap2\n      pop\n        /* \"Evm/zk/balance_verifier.sol\":23054:23065  uint256 Bx0 */\n      0x00\n        /* \"Evm/zk/balance_verifier.sol\":23067:23078  uint256 Bx1 */\n      0x00\n        /* \"Evm/zk/balance_verifier.sol\":23080:23091  uint256 By0 */\n      0x00\n        /* \"Evm/zk/balance_verifier.sol\":23093:23104  uint256 By1 */\n      0x00\n        /* \"Evm/zk/balance_verifier.sol\":23108:23161  decompress_g2(compressedProof[2], compressedProof[1]) */\n      tag_64\n        /* \"Evm/zk/balance_verifier.sol\":23122:23137  compressedProof */\n      dup10\n        /* \"Evm/zk/balance_verifier.sol\":23138:23139  2 */\n      0x02\n        /* \"Evm/zk/balance_verifier.sol\":23122:23140  compressedProof[2] */\n      0x04\n      dup2\n      lt\n      tag_65\n      jumpi\n      tag_66\n      tag_26\n      jump\t// in\n    tag_66:\n    tag_65:\n      0x20\n      mul\n      add\n      calldataload\n        /* \"Evm/zk/balance_verifier.sol\":23142:23157  compressedProof */\n      dup11\n        /* \"Evm/zk/balance_verifier.sol\":23158:23159  1 */\n      0x01\n        /* \"Evm/zk/balance_verifier.sol\":23142:23160  compressedProof[1] */\n      0x04\n      dup2\n      lt\n      tag_67\n      jumpi\n      tag_68\n      tag_26\n      jump\t// in\n    tag_68:\n    tag_67:\n      0x20\n      mul\n      add\n      calldataload\n        /* \"Evm/zk/balance_verifier.sol\":23108:23121  decompress_g2 */\n      tag_69\n        /* \"Evm/zk/balance_verifier.sol\":23108:23161  decompress_g2(compressedProof[2], compressedProof[1]) */\n      jump\t// in\n    tag_64:\n        /* \"Evm/zk/balance_verifier.sol\":23053:23161  (uint256 Bx0, uint256 Bx1, uint256 By0, uint256 By1) = decompress_g2(compressedProof[2], compressedProof[1]) */\n      swap4\n      pop\n      swap4\n      pop\n      swap4\n      pop\n      swap4\n      pop\n        /* \"Evm/zk/balance_verifier.sol\":23177:23187  uint256 Cx */\n      0x00\n        /* \"Evm/zk/balance_verifier.sol\":23189:23199  uint256 Cy */\n      0x00\n        /* \"Evm/zk/balance_verifier.sol\":23203:23236  decompress_g1(compressedProof[3]) */\n      tag_70\n        /* \"Evm/zk/balance_verifier.sol\":23217:23232  compressedProof */\n      dup12\n        /* \"Evm/zk/balance_verifier.sol\":23233:23234  3 */\n      0x03\n        /* \"Evm/zk/balance_verifier.sol\":23217:23235  compressedProof[3] */\n      0x04\n      dup2\n      lt\n      tag_71\n      jumpi\n      tag_72\n      tag_26\n      jump\t// in\n    tag_72:\n    tag_71:\n      0x20\n      mul\n      add\n      calldataload\n        /* \"Evm/zk/balance_verifier.sol\":23203:23216  decompress_g1 */\n      tag_63\n        /* \"Evm/zk/balance_verifier.sol\":23203:23236  decompress_g1(compressedProof[3]) */\n      jump\t// in\n    tag_70:\n        /* \"Evm/zk/balance_verifier.sol\":23176:23236  (uint256 Cx, uint256 Cy) = decompress_g1(compressedProof[3]) */\n      swap2\n      pop\n      swap2\n      pop\n        /* \"Evm/zk/balance_verifier.sol\":23252:23262  uint256 Lx */\n      0x00\n        /* \"Evm/zk/balance_verifier.sol\":23264:23274  uint256 Ly */\n      0x00\n        /* \"Evm/zk/balance_verifier.sol\":23278:23299  publicInputMSM(input) */\n      tag_73\n        /* \"Evm/zk/balance_verifier.sol\":23293:23298  input */\n      dup13\n        /* \"Evm/zk/balance_verifier.sol\":23278:23292  publicInputMSM */\n      tag_55\n        /* \"Evm/zk/balance_verifier.sol\":23278:23299  publicInputMSM(input) */\n      jump\t// in\n    tag_73:\n        /* \"Evm/zk/balance_verifier.sol\":23251:23299  (uint256 Lx, uint256 Ly) = publicInputMSM(input) */\n      swap2\n      pop\n      swap2\n      pop\n        /* \"Evm/zk/balance_verifier.sol\":23576:23578  Ax */\n      dup10\n        /* \"Evm/zk/balance_verifier.sol\":23561:23569  pairings */\n      dup12\n        /* \"Evm/zk/balance_verifier.sol\":23571:23572  0 */\n      0x00\n        /* \"Evm/zk/balance_verifier.sol\":23561:23573  pairings[ 0] */\n      0x18\n      dup2\n      lt\n      tag_74\n      jumpi\n      tag_75\n      tag_26\n      jump\t// in\n    tag_75:\n    tag_74:\n      0x20\n      mul\n      add\n        /* \"Evm/zk/balance_verifier.sol\":23561:23578  pairings[ 0] = Ax */\n      dup2\n      dup2\n      mstore\n      pop\n      pop\n        /* \"Evm/zk/balance_verifier.sol\":23608:23610  Ay */\n      dup9\n        /* \"Evm/zk/balance_verifier.sol\":23593:23601  pairings */\n      dup12\n        /* \"Evm/zk/balance_verifier.sol\":23603:23604  1 */\n      0x01\n        /* \"Evm/zk/balance_verifier.sol\":23593:23605  pairings[ 1] */\n      0x18\n      dup2\n      lt\n      tag_76\n      jumpi\n      tag_77\n      tag_26\n      jump\t// in\n    tag_77:\n    tag_76:\n      0x20\n      mul\n      add\n        /* \"Evm/zk/balance_verifier.sol\":23593:23610  pairings[ 1] = Ay */\n      dup2\n      dup2\n      mstore\n      pop\n      pop\n        /* \"Evm/zk/balance_verifier.sol\":23640:23643  Bx1 */\n      dup7\n        /* \"Evm/zk/balance_verifier.sol\":23625:23633  pairings */\n      dup12\n        /* \"Evm/zk/balance_verifier.sol\":23635:23636  2 */\n      0x02\n        /* \"Evm/zk/balance_verifier.sol\":23625:23637  pairings[ 2] */\n      0x18\n      dup2\n      lt\n      tag_78\n      jumpi\n      tag_79\n      tag_26\n      jump\t// in\n    tag_79:\n    tag_78:\n      0x20\n      mul\n      add\n        /* \"Evm/zk/balance_verifier.sol\":23625:23643  pairings[ 2] = Bx1 */\n      dup2\n      dup2\n      mstore\n      pop\n      pop\n        /* \"Evm/zk/balance_verifier.sol\":23673:23676  Bx0 */\n      dup8\n        /* \"Evm/zk/balance_verifier.sol\":23658:23666  pairings */\n      dup12\n        /* \"Evm/zk/balance_verifier.sol\":23668:23669  3 */\n      0x03\n        /* \"Evm/zk/balance_verifier.sol\":23658:23670  pairings[ 3] */\n      0x18\n      dup2\n      lt\n      tag_80\n      jumpi\n      tag_81\n      tag_26\n      jump\t// in\n    tag_81:\n    tag_80:\n      0x20\n      mul\n      add\n        /* \"Evm/zk/balance_verifier.sol\":23658:23676  pairings[ 3] = Bx0 */\n      dup2\n      dup2\n      mstore\n      pop\n      pop\n        /* \"Evm/zk/balance_verifier.sol\":23706:23709  By1 */\n      dup5\n        /* \"Evm/zk/balance_verifier.sol\":23691:23699  pairings */\n      dup12\n        /* \"Evm/zk/balance_verifier.sol\":23701:23702  4 */\n      0x04\n        /* \"Evm/zk/balance_verifier.sol\":23691:23703  pairings[ 4] */\n      0x18\n      dup2\n      lt\n      tag_82\n      jumpi\n      tag_83\n      tag_26\n      jump\t// in\n    tag_83:\n    tag_82:\n      0x20\n      mul\n      add\n        /* \"Evm/zk/balance_verifier.sol\":23691:23709  pairings[ 4] = By1 */\n      dup2\n      dup2\n      mstore\n      pop\n      pop\n        /* \"Evm/zk/balance_verifier.sol\":23739:23742  By0 */\n      dup6\n        /* \"Evm/zk/balance_verifier.sol\":23724:23732  pairings */\n      dup12\n        /* \"Evm/zk/balance_verifier.sol\":23734:23735  5 */\n      0x05\n        /* \"Evm/zk/balance_verifier.sol\":23724:23736  pairings[ 5] */\n      0x18\n      dup2\n      lt\n      tag_84\n      jumpi\n      tag_85\n      tag_26\n      jump\t// in\n    tag_85:\n    tag_84:\n      0x20\n      mul\n      add\n        /* \"Evm/zk/balance_verifier.sol\":23724:23742  pairings[ 5] = By0 */\n      dup2\n      dup2\n      mstore\n      pop\n      pop\n        /* \"Evm/zk/balance_verifier.sol\":23798:23800  Cx */\n      dup4\n        /* \"Evm/zk/balance_verifier.sol\":23783:23791  pairings */\n      dup12\n        /* \"Evm/zk/balance_verifier.sol\":23793:23794  6 */\n      0x06\n        /* \"Evm/zk/balance_verifier.sol\":23783:23795  pairings[ 6] */\n      0x18\n      dup2\n      lt\n      tag_86\n      jumpi\n      tag_87\n      tag_26\n      jump\t// in\n    tag_87:\n    tag_86:\n      0x20\n      mul\n      add\n        /* \"Evm/zk/balance_verifier.sol\":23783:23800  pairings[ 6] = Cx */\n      dup2\n      dup2\n      mstore\n      pop\n      pop\n        /* \"Evm/zk/balance_verifier.sol\":23830:23832  Cy */\n      dup3\n        /* \"Evm/zk/balance_verifier.sol\":23815:23823  pairings */\n      dup12\n        /* \"Evm/zk/balance_verifier.sol\":23825:23826  7 */\n      0x07\n        /* \"Evm/zk/balance_verifier.sol\":23815:23827  pairings[ 7] */\n      0x18\n      dup2\n      lt\n      tag_88\n      jumpi\n      tag_89\n      tag_26\n      jump\t// in\n    tag_89:\n    tag_88:\n      0x20\n      mul\n      add\n        /* \"Evm/zk/balance_verifier.sol\":23815:23832  pairings[ 7] = Cy */\n      dup2\n      dup2\n      mstore\n      pop\n      pop\n        /* \"Evm/zk/balance_verifier.sol\":4214:4291  14629663685231342289383832952789659592472488510677938312142322572965047894135 */\n      0x205818a13ccbd197376df9df5c7b3187ba6a330db5826603456b0032324b0077\n        /* \"Evm/zk/balance_verifier.sol\":23847:23855  pairings */\n      dup12\n        /* \"Evm/zk/balance_verifier.sol\":23857:23858  8 */\n      0x08\n        /* \"Evm/zk/balance_verifier.sol\":23847:23859  pairings[ 8] */\n      0x18\n      dup2\n      lt\n      tag_90\n      jumpi\n      tag_91\n      tag_26\n      jump\t// in\n    tag_91:\n    tag_90:\n      0x20\n      mul\n      add\n        /* \"Evm/zk/balance_verifier.sol\":23847:23875  pairings[ 8] = DELTA_NEG_X_1 */\n      dup2\n      dup2\n      mstore\n      pop\n      pop\n        /* \"Evm/zk/balance_verifier.sol\":4098:4174  1936567702717310495647963677759456746967701863203772185249464596821332114644 */\n      0x04480ef8576713af36b96aae5f9044fd73f6f4ad7037c4778c764379e12abcd4\n        /* \"Evm/zk/balance_verifier.sol\":23890:23898  pairings */\n      dup12\n        /* \"Evm/zk/balance_verifier.sol\":23900:23901  9 */\n      0x09\n        /* \"Evm/zk/balance_verifier.sol\":23890:23902  pairings[ 9] */\n      0x18\n      dup2\n      lt\n      tag_92\n      jumpi\n      tag_93\n      tag_26\n      jump\t// in\n    tag_93:\n    tag_92:\n      0x20\n      mul\n      add\n        /* \"Evm/zk/balance_verifier.sol\":23890:23918  pairings[ 9] = DELTA_NEG_X_0 */\n      dup2\n      dup2\n      mstore\n      pop\n      pop\n        /* \"Evm/zk/balance_verifier.sol\":4448:4525  18854852174391801547293920900312415914721600234992752876990047212848809193262 */\n      0x29af77d88e394ae15342aae4d6557b1a68b6c8010073c28008fc12578a532f2e\n        /* \"Evm/zk/balance_verifier.sol\":23933:23941  pairings */\n      dup12\n        /* \"Evm/zk/balance_verifier.sol\":23942:23944  10 */\n      0x0a\n        /* \"Evm/zk/balance_verifier.sol\":23933:23945  pairings[10] */\n      0x18\n      dup2\n      lt\n      tag_94\n      jumpi\n      tag_95\n      tag_26\n      jump\t// in\n    tag_95:\n    tag_94:\n      0x20\n      mul\n      add\n        /* \"Evm/zk/balance_verifier.sol\":23933:23961  pairings[10] = DELTA_NEG_Y_1 */\n      dup2\n      dup2\n      mstore\n      pop\n      pop\n        /* \"Evm/zk/balance_verifier.sol\":4331:4408  14164249227396129581749587409577691498488472808500676876508606556480235477184 */\n      0x1f50ae538a90dab5325611e5768a7cccf28bb29129d4dbbd61da0139ee9598c0\n        /* \"Evm/zk/balance_verifier.sol\":23976:23984  pairings */\n      dup12\n        /* \"Evm/zk/balance_verifier.sol\":23985:23987  11 */\n      0x0b\n        /* \"Evm/zk/balance_verifier.sol\":23976:23988  pairings[11] */\n      0x18\n      dup2\n      lt\n      tag_96\n      jumpi\n      tag_97\n      tag_26\n      jump\t// in\n    tag_97:\n    tag_96:\n      0x20\n      mul\n      add\n        /* \"Evm/zk/balance_verifier.sol\":23976:24004  pairings[11] = DELTA_NEG_Y_0 */\n      dup2\n      dup2\n      mstore\n      pop\n      pop\n        /* \"Evm/zk/balance_verifier.sol\":2792:2869  21163710250523667001025947799907790651846733969772468123564583631793114511251 */\n      0x2eca3c4a537a830ea534e3763694f7519197e4b8b3a65b2a942223a8ff66f793\n        /* \"Evm/zk/balance_verifier.sol\":24046:24054  pairings */\n      dup12\n        /* \"Evm/zk/balance_verifier.sol\":24055:24057  12 */\n      0x0c\n        /* \"Evm/zk/balance_verifier.sol\":24046:24058  pairings[12] */\n      0x18\n      dup2\n      lt\n      tag_98\n      jumpi\n      tag_99\n      tag_26\n      jump\t// in\n    tag_99:\n    tag_98:\n      0x20\n      mul\n      add\n        /* \"Evm/zk/balance_verifier.sol\":24046:24068  pairings[12] = ALPHA_X */\n      dup2\n      dup2\n      mstore\n      pop\n      pop\n        /* \"Evm/zk/balance_verifier.sol\":2903:2980  19819753739531686025501975078009913174287217213125134657793315977161473760159 */\n      0x2bd19544c1ffcdc0d64ff4b989edbf567d1177ba5b60c03bfce962508e2b9b9f\n        /* \"Evm/zk/balance_verifier.sol\":24083:24091  pairings */\n      dup12\n        /* \"Evm/zk/balance_verifier.sol\":24092:24094  13 */\n      0x0d\n        /* \"Evm/zk/balance_verifier.sol\":24083:24095  pairings[13] */\n      0x18\n      dup2\n      lt\n      tag_100\n      jumpi\n      tag_101\n      tag_26\n      jump\t// in\n    tag_101:\n    tag_100:\n      0x20\n      mul\n      add\n        /* \"Evm/zk/balance_verifier.sol\":24083:24105  pairings[13] = ALPHA_Y */\n      dup2\n      dup2\n      mstore\n      pop\n      pop\n        /* \"Evm/zk/balance_verifier.sol\":3184:3261  15296881264136895863924592158700435584558754498339839281438283816990708923715 */\n      0x21d1ba5cb674a7c33bfaeb6bbb1f0769699591503e88d5878d250114c224fd43\n        /* \"Evm/zk/balance_verifier.sol\":24120:24128  pairings */\n      dup12\n        /* \"Evm/zk/balance_verifier.sol\":24129:24131  14 */\n      0x0e\n        /* \"Evm/zk/balance_verifier.sol\":24120:24132  pairings[14] */\n      0x18\n      dup2\n      lt\n      tag_102\n      jumpi\n      tag_103\n      tag_26\n      jump\t// in\n    tag_103:\n    tag_102:\n      0x20\n      mul\n      add\n        /* \"Evm/zk/balance_verifier.sol\":24120:24147  pairings[14] = BETA_NEG_X_1 */\n      dup2\n      dup2\n      mstore\n      pop\n      pop\n        /* \"Evm/zk/balance_verifier.sol\":3069:3145  9501260930081633573615157693494663582761461504590390339878116676014071873504 */\n      0x150185eacfbb1caa100e4b49f6074c2c117e1dd8ad46387414a50b875167ffe0\n        /* \"Evm/zk/balance_verifier.sol\":24162:24170  pairings */\n      dup12\n        /* \"Evm/zk/balance_verifier.sol\":24171:24173  15 */\n      0x0f\n        /* \"Evm/zk/balance_verifier.sol\":24162:24174  pairings[15] */\n      0x18\n      dup2\n      lt\n      tag_104\n      jumpi\n      tag_105\n      tag_26\n      jump\t// in\n    tag_105:\n    tag_104:\n      0x20\n      mul\n      add\n        /* \"Evm/zk/balance_verifier.sol\":24162:24189  pairings[15] = BETA_NEG_X_0 */\n      dup2\n      dup2\n      mstore\n      pop\n      pop\n        /* \"Evm/zk/balance_verifier.sol\":3415:3491  9742822875233735768705666904178158146313039699445541938921846429792732474731 */\n      0x158a3e0956b85f6031ec6a74a6190546528f44145b808e48b17e637fa5246d6b\n        /* \"Evm/zk/balance_verifier.sol\":24204:24212  pairings */\n      dup12\n        /* \"Evm/zk/balance_verifier.sol\":24213:24215  16 */\n      0x10\n        /* \"Evm/zk/balance_verifier.sol\":24204:24216  pairings[16] */\n      0x18\n      dup2\n      lt\n      tag_106\n      jumpi\n      tag_107\n      tag_26\n      jump\t// in\n    tag_107:\n    tag_106:\n      0x20\n      mul\n      add\n        /* \"Evm/zk/balance_verifier.sol\":24204:24231  pairings[16] = BETA_NEG_Y_1 */\n      dup2\n      dup2\n      mstore\n      pop\n      pop\n        /* \"Evm/zk/balance_verifier.sol\":3300:3376  8975125324085165337111031089526617642065182275434487910334446952582004425266 */\n      0x13d7bdac8d88f977f1c304d4927a72026bcc92c2cdfe2e84475017e072094232\n        /* \"Evm/zk/balance_verifier.sol\":24246:24254  pairings */\n      dup12\n        /* \"Evm/zk/balance_verifier.sol\":24255:24257  17 */\n      0x11\n        /* \"Evm/zk/balance_verifier.sol\":24246:24258  pairings[17] */\n      0x18\n      dup2\n      lt\n      tag_108\n      jumpi\n      tag_109\n      tag_26\n      jump\t// in\n    tag_109:\n    tag_108:\n      0x20\n      mul\n      add\n        /* \"Evm/zk/balance_verifier.sol\":24246:24273  pairings[17] = BETA_NEG_Y_0 */\n      dup2\n      dup2\n      mstore\n      pop\n      pop\n        /* \"Evm/zk/balance_verifier.sol\":24333:24335  Lx */\n      dup2\n        /* \"Evm/zk/balance_verifier.sol\":24318:24326  pairings */\n      dup12\n        /* \"Evm/zk/balance_verifier.sol\":24327:24329  18 */\n      0x12\n        /* \"Evm/zk/balance_verifier.sol\":24318:24330  pairings[18] */\n      0x18\n      dup2\n      lt\n      tag_110\n      jumpi\n      tag_111\n      tag_26\n      jump\t// in\n    tag_111:\n    tag_110:\n      0x20\n      mul\n      add\n        /* \"Evm/zk/balance_verifier.sol\":24318:24335  pairings[18] = Lx */\n      dup2\n      dup2\n      mstore\n      pop\n      pop\n        /* \"Evm/zk/balance_verifier.sol\":24365:24367  Ly */\n      dup1\n        /* \"Evm/zk/balance_verifier.sol\":24350:24358  pairings */\n      dup12\n        /* \"Evm/zk/balance_verifier.sol\":24359:24361  19 */\n      0x13\n        /* \"Evm/zk/balance_verifier.sol\":24350:24362  pairings[19] */\n      0x18\n      dup2\n      lt\n      tag_112\n      jumpi\n      tag_113\n      tag_26\n      jump\t// in\n    tag_113:\n    tag_112:\n      0x20\n      mul\n      add\n        /* \"Evm/zk/balance_verifier.sol\":24350:24367  pairings[19] = Ly */\n      dup2\n      dup2\n      mstore\n      pop\n      pop\n        /* \"Evm/zk/balance_verifier.sol\":3698:3774  6777945692433758698466406729597117909301947452861311283867434131700899155834 */\n      0x0efc2e6a8395e78aa3ad8343d38305063074040f19beac327dd1cc163b608f7a\n        /* \"Evm/zk/balance_verifier.sol\":24382:24390  pairings */\n      dup12\n        /* \"Evm/zk/balance_verifier.sol\":24391:24393  20 */\n      0x14\n        /* \"Evm/zk/balance_verifier.sol\":24382:24394  pairings[20] */\n      0x18\n      dup2\n      lt\n      tag_114\n      jumpi\n      tag_115\n      tag_26\n      jump\t// in\n    tag_115:\n    tag_114:\n      0x20\n      mul\n      add\n        /* \"Evm/zk/balance_verifier.sol\":24382:24410  pairings[20] = GAMMA_NEG_X_1 */\n      dup2\n      dup2\n      mstore\n      pop\n      pop\n        /* \"Evm/zk/balance_verifier.sol\":3582:3658  1796994743780058251264124262398374239733791292098261156292601995213890484358 */\n      0x03f9101f90567b08e1cc967677e11870c91f0ebbd2a744b3de38bbf0acfd7886\n        /* \"Evm/zk/balance_verifier.sol\":24425:24433  pairings */\n      dup12\n        /* \"Evm/zk/balance_verifier.sol\":24434:24436  21 */\n      0x15\n        /* \"Evm/zk/balance_verifier.sol\":24425:24437  pairings[21] */\n      0x18\n      dup2\n      lt\n      tag_116\n      jumpi\n      tag_117\n      tag_26\n      jump\t// in\n    tag_117:\n    tag_116:\n      0x20\n      mul\n      add\n        /* \"Evm/zk/balance_verifier.sol\":24425:24453  pairings[21] = GAMMA_NEG_X_0 */\n      dup2\n      dup2\n      mstore\n      pop\n      pop\n        /* \"Evm/zk/balance_verifier.sol\":3931:4007  1861815435872225228775088606307964047240415345079368661610962921232664502170 */\n      0x041dc00ca96d0fd58ac3ddb242e13e829d30d73f8ef0de9cb115d2885b0e1f9a\n        /* \"Evm/zk/balance_verifier.sol\":24468:24476  pairings */\n      dup12\n        /* \"Evm/zk/balance_verifier.sol\":24477:24479  22 */\n      0x16\n        /* \"Evm/zk/balance_verifier.sol\":24468:24480  pairings[22] */\n      0x18\n      dup2\n      lt\n      tag_118\n      jumpi\n      tag_119\n      tag_26\n      jump\t// in\n    tag_119:\n    tag_118:\n      0x20\n      mul\n      add\n        /* \"Evm/zk/balance_verifier.sol\":24468:24496  pairings[22] = GAMMA_NEG_Y_1 */\n      dup2\n      dup2\n      mstore\n      pop\n      pop\n        /* \"Evm/zk/balance_verifier.sol\":3814:3891  15574279385652962710392091463343516776373503306667757741896211161534752632928 */\n      0x226ebad0e5dba64f7b7e548efa315aaa4ec3db0053cdec997599e7275d483060\n        /* \"Evm/zk/balance_verifier.sol\":24511:24519  pairings */\n      dup12\n        /* \"Evm/zk/balance_verifier.sol\":24520:24522  23 */\n      0x17\n        /* \"Evm/zk/balance_verifier.sol\":24511:24523  pairings[23] */\n      0x18\n      dup2\n      lt\n      tag_120\n      jumpi\n      tag_121\n      tag_26\n      jump\t// in\n    tag_121:\n    tag_120:\n      0x20\n      mul\n      add\n        /* \"Evm/zk/balance_verifier.sol\":24511:24539  pairings[23] = GAMMA_NEG_Y_0 */\n      dup2\n      dup2\n      mstore\n      pop\n      pop\n        /* \"Evm/zk/balance_verifier.sol\":24596:24608  bool success */\n      0x00\n        /* \"Evm/zk/balance_verifier.sol\":24623:24647  uint256[1] memory output */\n      tag_122\n      tag_123\n      jump\t// in\n    tag_122:\n        /* \"Evm/zk/balance_verifier.sol\":24779:24783  0x20 */\n      0x20\n        /* \"Evm/zk/balance_verifier.sol\":24771:24777  output */\n      dup2\n        /* \"Evm/zk/balance_verifier.sol\":24764:24769  0x300 */\n      0x0300\n        /* \"Evm/zk/balance_verifier.sol\":24754:24762  pairings */\n      dup16\n        /* \"Evm/zk/balance_verifier.sol\":24735:24752  PRECOMPILE_VERIFY */\n      0x08\n        /* \"Evm/zk/balance_verifier.sol\":24728:24733  gas() */\n      gas\n        /* \"Evm/zk/balance_verifier.sol\":24717:24784  staticcall(gas(), PRECOMPILE_VERIFY, pairings, 0x300, output, 0x20) */\n      staticcall\n        /* \"Evm/zk/balance_verifier.sol\":24706:24784  success := staticcall(gas(), PRECOMPILE_VERIFY, pairings, 0x300, output, 0x20) */\n      swap2\n      pop\n        /* \"Evm/zk/balance_verifier.sol\":24818:24825  success */\n      dup2\n        /* \"Evm/zk/balance_verifier.sol\":24817:24825  !success */\n      iszero\n        /* \"Evm/zk/balance_verifier.sol\":24817:24843  !success || output[0] != 1 */\n      dup1\n      tag_124\n      jumpi\n      pop\n        /* \"Evm/zk/balance_verifier.sol\":24842:24843  1 */\n      0x01\n        /* \"Evm/zk/balance_verifier.sol\":24829:24835  output */\n      dup2\n        /* \"Evm/zk/balance_verifier.sol\":24836:24837  0 */\n      0x00\n        /* \"Evm/zk/balance_verifier.sol\":24829:24838  output[0] */\n      0x01\n      dup2\n      lt\n      tag_125\n      jumpi\n      tag_126\n      tag_26\n      jump\t// in\n    tag_126:\n    tag_125:\n      0x20\n      mul\n      add\n      mload\n        /* \"Evm/zk/balance_verifier.sol\":24829:24843  output[0] != 1 */\n      eq\n      iszero\n        /* \"Evm/zk/balance_verifier.sol\":24817:24843  !success || output[0] != 1 */\n    tag_124:\n        /* \"Evm/zk/balance_verifier.sol\":24813:25064  if (!success || output[0] != 1) {... */\n      iszero\n      tag_127\n      jumpi\n        /* \"Evm/zk/balance_verifier.sol\":25034:25048  ProofInvalid() */\n      mload(0x40)\n      0x7fcdd1f400000000000000000000000000000000000000000000000000000000\n      dup2\n      mstore\n      0x04\n      add\n      mload(0x40)\n      dup1\n      swap2\n      sub\n      swap1\n      revert\n        /* \"Evm/zk/balance_verifier.sol\":24813:25064  if (!success || output[0] != 1) {... */\n    tag_127:\n        /* \"Evm/zk/balance_verifier.sol\":22963:25075  {... */\n      pop\n      pop\n      pop\n      pop\n      pop\n      pop\n      pop\n      pop\n      pop\n      pop\n      pop\n      pop\n        /* \"Evm/zk/balance_verifier.sol\":22912:25082  {... */\n      pop\n        /* \"Evm/zk/balance_verifier.sol\":22780:25082  function verifyCompressedProof(... */\n      pop\n      pop\n      jump\t// out\n        /* \"Evm/zk/balance_verifier.sol\":10677:11397  function compress_g1(uint256 x, uint256 y) internal view returns (uint256 c) {... */\n    tag_29:\n        /* \"Evm/zk/balance_verifier.sol\":10743:10752  uint256 c */\n      0x00\n        /* \"Evm/zk/balance_verifier.sol\":1423:1489  0x30644e72e131a029b85045b68181585d97816a916871ca8d3c208c16d87cfd47 */\n      0x30644e72e131a029b85045b68181585d97816a916871ca8d3c208c16d87cfd47\n        /* \"Evm/zk/balance_verifier.sol\":10769:10770  x */\n      dup4\n        /* \"Evm/zk/balance_verifier.sol\":10769:10775  x >= P */\n      lt\n      iszero\n        /* \"Evm/zk/balance_verifier.sol\":10769:10785  x >= P || y >= P */\n      dup1\n      tag_129\n      jumpi\n      pop\n        /* \"Evm/zk/balance_verifier.sol\":1423:1489  0x30644e72e131a029b85045b68181585d97816a916871ca8d3c208c16d87cfd47 */\n      0x30644e72e131a029b85045b68181585d97816a916871ca8d3c208c16d87cfd47\n        /* \"Evm/zk/balance_verifier.sol\":10779:10780  y */\n      dup3\n        /* \"Evm/zk/balance_verifier.sol\":10779:10785  y >= P */\n      lt\n      iszero\n        /* \"Evm/zk/balance_verifier.sol\":10769:10785  x >= P || y >= P */\n    tag_129:\n        /* \"Evm/zk/balance_verifier.sol\":10765:10874  if (x >= P || y >= P) {... */\n      iszero\n      tag_130\n      jumpi\n        /* \"Evm/zk/balance_verifier.sol\":10848:10862  ProofInvalid() */\n      mload(0x40)\n      0x7fcdd1f400000000000000000000000000000000000000000000000000000000\n      dup2\n      mstore\n      0x04\n      add\n      mload(0x40)\n      dup1\n      swap2\n      sub\n      swap1\n      revert\n        /* \"Evm/zk/balance_verifier.sol\":10765:10874  if (x >= P || y >= P) {... */\n    tag_130:\n        /* \"Evm/zk/balance_verifier.sol\":10893:10894  0 */\n      0x00\n        /* \"Evm/zk/balance_verifier.sol\":10888:10889  x */\n      dup4\n        /* \"Evm/zk/balance_verifier.sol\":10888:10894  x == 0 */\n      eq\n        /* \"Evm/zk/balance_verifier.sol\":10888:10904  x == 0 && y == 0 */\n      dup1\n      iszero\n      tag_131\n      jumpi\n      pop\n        /* \"Evm/zk/balance_verifier.sol\":10903:10904  0 */\n      0x00\n        /* \"Evm/zk/balance_verifier.sol\":10898:10899  y */\n      dup3\n        /* \"Evm/zk/balance_verifier.sol\":10898:10904  y == 0 */\n      eq\n        /* \"Evm/zk/balance_verifier.sol\":10888:10904  x == 0 && y == 0 */\n    tag_131:\n        /* \"Evm/zk/balance_verifier.sol\":10884:10975  if (x == 0 && y == 0) {... */\n      iszero\n      tag_132\n      jumpi\n        /* \"Evm/zk/balance_verifier.sol\":10962:10963  0 */\n      0x00\n        /* \"Evm/zk/balance_verifier.sol\":10955:10963  return 0 */\n      swap1\n      pop\n      jump(tag_128)\n        /* \"Evm/zk/balance_verifier.sol\":10884:10975  if (x == 0 && y == 0) {... */\n    tag_132:\n        /* \"Evm/zk/balance_verifier.sol\":11080:11093  uint256 y_pos */\n      0x00\n        /* \"Evm/zk/balance_verifier.sol\":11096:11148  sqrt_Fp(addmod(mulmod(mulmod(x, x, P), x, P), 3, P)) */\n      tag_133\n        /* \"Evm/zk/balance_verifier.sol\":1423:1489  0x30644e72e131a029b85045b68181585d97816a916871ca8d3c208c16d87cfd47 */\n      0x30644e72e131a029b85045b68181585d97816a916871ca8d3c208c16d87cfd47\n        /* \"Evm/zk/balance_verifier.sol\":11104:11147  addmod(mulmod(mulmod(x, x, P), x, P), 3, P) */\n      dup1\n      tag_134\n      jumpi\n      tag_135\n      tag_136\n      jump\t// in\n    tag_135:\n    tag_134:\n        /* \"Evm/zk/balance_verifier.sol\":11142:11143  3 */\n      0x03\n        /* \"Evm/zk/balance_verifier.sol\":1423:1489  0x30644e72e131a029b85045b68181585d97816a916871ca8d3c208c16d87cfd47 */\n      0x30644e72e131a029b85045b68181585d97816a916871ca8d3c208c16d87cfd47\n        /* \"Evm/zk/balance_verifier.sol\":11111:11140  mulmod(mulmod(x, x, P), x, P) */\n      dup1\n      tag_137\n      jumpi\n      tag_138\n      tag_136\n      jump\t// in\n    tag_138:\n    tag_137:\n        /* \"Evm/zk/balance_verifier.sol\":11135:11136  x */\n      dup8\n        /* \"Evm/zk/balance_verifier.sol\":1423:1489  0x30644e72e131a029b85045b68181585d97816a916871ca8d3c208c16d87cfd47 */\n      0x30644e72e131a029b85045b68181585d97816a916871ca8d3c208c16d87cfd47\n        /* \"Evm/zk/balance_verifier.sol\":11118:11133  mulmod(x, x, P) */\n      dup1\n      tag_139\n      jumpi\n      tag_140\n      tag_136\n      jump\t// in\n    tag_140:\n    tag_139:\n        /* \"Evm/zk/balance_verifier.sol\":11128:11129  x */\n      dup10\n        /* \"Evm/zk/balance_verifier.sol\":11125:11126  x */\n      dup11\n        /* \"Evm/zk/balance_verifier.sol\":11118:11133  mulmod(x, x, P) */\n      mulmod\n        /* \"Evm/zk/balance_verifier.sol\":11111:11140  mulmod(mulmod(x, x, P), x, P) */\n      mulmod\n        /* \"Evm/zk/balance_verifier.sol\":11104:11147  addmod(mulmod(mulmod(x, x, P), x, P), 3, P) */\n      addmod\n        /* \"Evm/zk/balance_verifier.sol\":11096:11103  sqrt_Fp */\n      tag_141\n        /* \"Evm/zk/balance_verifier.sol\":11096:11148  sqrt_Fp(addmod(mulmod(mulmod(x, x, P), x, P), 3, P)) */\n      jump\t// in\n    tag_133:\n        /* \"Evm/zk/balance_verifier.sol\":11080:11148  uint256 y_pos = sqrt_Fp(addmod(mulmod(mulmod(x, x, P), x, P), 3, P)) */\n      swap1\n      pop\n        /* \"Evm/zk/balance_verifier.sol\":11168:11173  y_pos */\n      dup1\n        /* \"Evm/zk/balance_verifier.sol\":11163:11164  y */\n      dup4\n        /* \"Evm/zk/balance_verifier.sol\":11163:11173  y == y_pos */\n      sub\n        /* \"Evm/zk/balance_verifier.sol\":11159:11390  if (y == y_pos) {... */\n      tag_142\n      jumpi\n        /* \"Evm/zk/balance_verifier.sol\":11208:11209  0 */\n      0x00\n        /* \"Evm/zk/balance_verifier.sol\":11203:11204  1 */\n      0x01\n        /* \"Evm/zk/balance_verifier.sol\":11198:11199  x */\n      dup6\n        /* \"Evm/zk/balance_verifier.sol\":11198:11204  x << 1 */\n      swap1\n      shl\n        /* \"Evm/zk/balance_verifier.sol\":11197:11209  (x << 1) | 0 */\n      or\n        /* \"Evm/zk/balance_verifier.sol\":11190:11209  return (x << 1) | 0 */\n      swap2\n      pop\n      pop\n      jump(tag_128)\n        /* \"Evm/zk/balance_verifier.sol\":11159:11390  if (y == y_pos) {... */\n    tag_142:\n        /* \"Evm/zk/balance_verifier.sol\":11236:11249  negate(y_pos) */\n      tag_144\n        /* \"Evm/zk/balance_verifier.sol\":11243:11248  y_pos */\n      dup2\n        /* \"Evm/zk/balance_verifier.sol\":11236:11242  negate */\n      tag_145\n        /* \"Evm/zk/balance_verifier.sol\":11236:11249  negate(y_pos) */\n      jump\t// in\n    tag_144:\n        /* \"Evm/zk/balance_verifier.sol\":11231:11232  y */\n      dup4\n        /* \"Evm/zk/balance_verifier.sol\":11231:11249  y == negate(y_pos) */\n      sub\n        /* \"Evm/zk/balance_verifier.sol\":11227:11390  if (y == negate(y_pos)) {... */\n      tag_146\n      jumpi\n        /* \"Evm/zk/balance_verifier.sol\":11284:11285  1 */\n      0x01\n        /* \"Evm/zk/balance_verifier.sol\":11279:11280  1 */\n      dup1\n        /* \"Evm/zk/balance_verifier.sol\":11274:11275  x */\n      dup6\n        /* \"Evm/zk/balance_verifier.sol\":11274:11280  x << 1 */\n      swap1\n      shl\n        /* \"Evm/zk/balance_verifier.sol\":11273:11285  (x << 1) | 1 */\n      or\n        /* \"Evm/zk/balance_verifier.sol\":11266:11285  return (x << 1) | 1 */\n      swap2\n      pop\n      pop\n      jump(tag_128)\n        /* \"Evm/zk/balance_verifier.sol\":11227:11390  if (y == negate(y_pos)) {... */\n    tag_146:\n        /* \"Evm/zk/balance_verifier.sol\":11364:11378  ProofInvalid() */\n      mload(0x40)\n      0x7fcdd1f400000000000000000000000000000000000000000000000000000000\n      dup2\n      mstore\n      0x04\n      add\n      mload(0x40)\n      dup1\n      swap2\n      sub\n      swap1\n      revert\n        /* \"Evm/zk/balance_verifier.sol\":10677:11397  function compress_g1(uint256 x, uint256 y) internal view returns (uint256 c) {... */\n    tag_128:\n      swap3\n      swap2\n      pop\n      pop\n      jump\t// out\n        /* \"Evm/zk/balance_verifier.sol\":13435:15138  function compress_g2(uint256 x0, uint256 x1, uint256 y0, uint256 y1)... */\n    tag_41:\n        /* \"Evm/zk/balance_verifier.sol\":13532:13542  uint256 c0 */\n      0x00\n        /* \"Evm/zk/balance_verifier.sol\":13544:13554  uint256 c1 */\n      0x00\n        /* \"Evm/zk/balance_verifier.sol\":1423:1489  0x30644e72e131a029b85045b68181585d97816a916871ca8d3c208c16d87cfd47 */\n      0x30644e72e131a029b85045b68181585d97816a916871ca8d3c208c16d87cfd47\n        /* \"Evm/zk/balance_verifier.sol\":13571:13573  x0 */\n      dup7\n        /* \"Evm/zk/balance_verifier.sol\":13571:13578  x0 >= P */\n      lt\n      iszero\n        /* \"Evm/zk/balance_verifier.sol\":13571:13589  x0 >= P || x1 >= P */\n      dup1\n      tag_149\n      jumpi\n      pop\n        /* \"Evm/zk/balance_verifier.sol\":1423:1489  0x30644e72e131a029b85045b68181585d97816a916871ca8d3c208c16d87cfd47 */\n      0x30644e72e131a029b85045b68181585d97816a916871ca8d3c208c16d87cfd47\n        /* \"Evm/zk/balance_verifier.sol\":13582:13584  x1 */\n      dup6\n        /* \"Evm/zk/balance_verifier.sol\":13582:13589  x1 >= P */\n      lt\n      iszero\n        /* \"Evm/zk/balance_verifier.sol\":13571:13589  x0 >= P || x1 >= P */\n    tag_149:\n        /* \"Evm/zk/balance_verifier.sol\":13571:13600  x0 >= P || x1 >= P || y0 >= P */\n      dup1\n      tag_150\n      jumpi\n      pop\n        /* \"Evm/zk/balance_verifier.sol\":1423:1489  0x30644e72e131a029b85045b68181585d97816a916871ca8d3c208c16d87cfd47 */\n      0x30644e72e131a029b85045b68181585d97816a916871ca8d3c208c16d87cfd47\n        /* \"Evm/zk/balance_verifier.sol\":13593:13595  y0 */\n      dup5\n        /* \"Evm/zk/balance_verifier.sol\":13593:13600  y0 >= P */\n      lt\n      iszero\n        /* \"Evm/zk/balance_verifier.sol\":13571:13600  x0 >= P || x1 >= P || y0 >= P */\n    tag_150:\n        /* \"Evm/zk/balance_verifier.sol\":13571:13611  x0 >= P || x1 >= P || y0 >= P || y1 >= P */\n      dup1\n      tag_151\n      jumpi\n      pop\n        /* \"Evm/zk/balance_verifier.sol\":1423:1489  0x30644e72e131a029b85045b68181585d97816a916871ca8d3c208c16d87cfd47 */\n      0x30644e72e131a029b85045b68181585d97816a916871ca8d3c208c16d87cfd47\n        /* \"Evm/zk/balance_verifier.sol\":13604:13606  y1 */\n      dup4\n        /* \"Evm/zk/balance_verifier.sol\":13604:13611  y1 >= P */\n      lt\n      iszero\n        /* \"Evm/zk/balance_verifier.sol\":13571:13611  x0 >= P || x1 >= P || y0 >= P || y1 >= P */\n    tag_151:\n        /* \"Evm/zk/balance_verifier.sol\":13567:13700  if (x0 >= P || x1 >= P || y0 >= P || y1 >= P) {... */\n      iszero\n      tag_152\n      jumpi\n        /* \"Evm/zk/balance_verifier.sol\":13674:13688  ProofInvalid() */\n      mload(0x40)\n      0x7fcdd1f400000000000000000000000000000000000000000000000000000000\n      dup2\n      mstore\n      0x04\n      add\n      mload(0x40)\n      dup1\n      swap2\n      sub\n      swap1\n      revert\n        /* \"Evm/zk/balance_verifier.sol\":13567:13700  if (x0 >= P || x1 >= P || y0 >= P || y1 >= P) {... */\n    tag_152:\n        /* \"Evm/zk/balance_verifier.sol\":13737:13738  0 */\n      0x00\n        /* \"Evm/zk/balance_verifier.sol\":13730:13732  y1 */\n      dup4\n        /* \"Evm/zk/balance_verifier.sol\":13725:13727  y0 */\n      dup6\n        /* \"Evm/zk/balance_verifier.sol\":13720:13722  x1 */\n      dup8\n        /* \"Evm/zk/balance_verifier.sol\":13715:13717  x0 */\n      dup10\n        /* \"Evm/zk/balance_verifier.sol\":13715:13722  x0 | x1 */\n      or\n        /* \"Evm/zk/balance_verifier.sol\":13715:13727  x0 | x1 | y0 */\n      or\n        /* \"Evm/zk/balance_verifier.sol\":13715:13732  x0 | x1 | y0 | y1 */\n      or\n        /* \"Evm/zk/balance_verifier.sol\":13714:13738  (x0 | x1 | y0 | y1) == 0 */\n      sub\n        /* \"Evm/zk/balance_verifier.sol\":13710:13814  if ((x0 | x1 | y0 | y1) == 0) {... */\n      tag_153\n      jumpi\n        /* \"Evm/zk/balance_verifier.sol\":13797:13798  0 */\n      0x00\n        /* \"Evm/zk/balance_verifier.sol\":13800:13801  0 */\n      0x00\n        /* \"Evm/zk/balance_verifier.sol\":13789:13802  return (0, 0) */\n      swap2\n      pop\n      swap2\n      pop\n      jump(tag_148)\n        /* \"Evm/zk/balance_verifier.sol\":13710:13814  if ((x0 | x1 | y0 | y1) == 0) {... */\n    tag_153:\n        /* \"Evm/zk/balance_verifier.sol\":13924:13938  uint256 y0_pos */\n      0x00\n        /* \"Evm/zk/balance_verifier.sol\":13949:13963  uint256 y1_pos */\n      0x00\n        /* \"Evm/zk/balance_verifier.sol\":13989:14001  uint256 n3ab */\n      0x00\n        /* \"Evm/zk/balance_verifier.sol\":1423:1489  0x30644e72e131a029b85045b68181585d97816a916871ca8d3c208c16d87cfd47 */\n      0x30644e72e131a029b85045b68181585d97816a916871ca8d3c208c16d87cfd47\n        /* \"Evm/zk/balance_verifier.sol\":14004:14037  mulmod(mulmod(x0, x1, P), P-3, P) */\n      dup1\n      tag_154\n      jumpi\n      tag_155\n      tag_136\n      jump\t// in\n    tag_155:\n    tag_154:\n        /* \"Evm/zk/balance_verifier.sol\":14032:14033  3 */\n      0x03\n        /* \"Evm/zk/balance_verifier.sol\":1423:1489  0x30644e72e131a029b85045b68181585d97816a916871ca8d3c208c16d87cfd47 */\n      0x30644e72e131a029b85045b68181585d97816a916871ca8d3c208c16d87cfd47\n        /* \"Evm/zk/balance_verifier.sol\":14030:14033  P-3 */\n      tag_156\n      swap2\n      swap1\n      tag_157\n      jump\t// in\n    tag_156:\n        /* \"Evm/zk/balance_verifier.sol\":1423:1489  0x30644e72e131a029b85045b68181585d97816a916871ca8d3c208c16d87cfd47 */\n      0x30644e72e131a029b85045b68181585d97816a916871ca8d3c208c16d87cfd47\n        /* \"Evm/zk/balance_verifier.sol\":14011:14028  mulmod(x0, x1, P) */\n      dup1\n      tag_158\n      jumpi\n      tag_159\n      tag_136\n      jump\t// in\n    tag_159:\n    tag_158:\n        /* \"Evm/zk/balance_verifier.sol\":14022:14024  x1 */\n      dup11\n        /* \"Evm/zk/balance_verifier.sol\":14018:14020  x0 */\n      dup13\n        /* \"Evm/zk/balance_verifier.sol\":14011:14028  mulmod(x0, x1, P) */\n      mulmod\n        /* \"Evm/zk/balance_verifier.sol\":14004:14037  mulmod(mulmod(x0, x1, P), P-3, P) */\n      mulmod\n        /* \"Evm/zk/balance_verifier.sol\":13989:14037  uint256 n3ab = mulmod(mulmod(x0, x1, P), P-3, P) */\n      swap1\n      pop\n        /* \"Evm/zk/balance_verifier.sol\":14052:14063  uint256 a_3 */\n      0x00\n        /* \"Evm/zk/balance_verifier.sol\":1423:1489  0x30644e72e131a029b85045b68181585d97816a916871ca8d3c208c16d87cfd47 */\n      0x30644e72e131a029b85045b68181585d97816a916871ca8d3c208c16d87cfd47\n        /* \"Evm/zk/balance_verifier.sol\":14066:14098  mulmod(mulmod(x0, x0, P), x0, P) */\n      dup1\n      tag_160\n      jumpi\n      tag_161\n      tag_136\n      jump\t// in\n    tag_161:\n    tag_160:\n        /* \"Evm/zk/balance_verifier.sol\":14092:14094  x0 */\n      dup11\n        /* \"Evm/zk/balance_verifier.sol\":1423:1489  0x30644e72e131a029b85045b68181585d97816a916871ca8d3c208c16d87cfd47 */\n      0x30644e72e131a029b85045b68181585d97816a916871ca8d3c208c16d87cfd47\n        /* \"Evm/zk/balance_verifier.sol\":14073:14090  mulmod(x0, x0, P) */\n      dup1\n      tag_162\n      jumpi\n      tag_163\n      tag_136\n      jump\t// in\n    tag_163:\n    tag_162:\n        /* \"Evm/zk/balance_verifier.sol\":14084:14086  x0 */\n      dup13\n        /* \"Evm/zk/balance_verifier.sol\":14080:14082  x0 */\n      dup14\n        /* \"Evm/zk/balance_verifier.sol\":14073:14090  mulmod(x0, x0, P) */\n      mulmod\n        /* \"Evm/zk/balance_verifier.sol\":14066:14098  mulmod(mulmod(x0, x0, P), x0, P) */\n      mulmod\n        /* \"Evm/zk/balance_verifier.sol\":14052:14098  uint256 a_3 = mulmod(mulmod(x0, x0, P), x0, P) */\n      swap1\n      pop\n        /* \"Evm/zk/balance_verifier.sol\":14113:14124  uint256 b_3 */\n      0x00\n        /* \"Evm/zk/balance_verifier.sol\":1423:1489  0x30644e72e131a029b85045b68181585d97816a916871ca8d3c208c16d87cfd47 */\n      0x30644e72e131a029b85045b68181585d97816a916871ca8d3c208c16d87cfd47\n        /* \"Evm/zk/balance_verifier.sol\":14127:14159  mulmod(mulmod(x1, x1, P), x1, P) */\n      dup1\n      tag_164\n      jumpi\n      tag_165\n      tag_136\n      jump\t// in\n    tag_165:\n    tag_164:\n        /* \"Evm/zk/balance_verifier.sol\":14153:14155  x1 */\n      dup11\n        /* \"Evm/zk/balance_verifier.sol\":1423:1489  0x30644e72e131a029b85045b68181585d97816a916871ca8d3c208c16d87cfd47 */\n      0x30644e72e131a029b85045b68181585d97816a916871ca8d3c208c16d87cfd47\n        /* \"Evm/zk/balance_verifier.sol\":14134:14151  mulmod(x1, x1, P) */\n      dup1\n      tag_166\n      jumpi\n      tag_167\n      tag_136\n      jump\t// in\n    tag_167:\n    tag_166:\n        /* \"Evm/zk/balance_verifier.sol\":14145:14147  x1 */\n      dup13\n        /* \"Evm/zk/balance_verifier.sol\":14141:14143  x1 */\n      dup14\n        /* \"Evm/zk/balance_verifier.sol\":14134:14151  mulmod(x1, x1, P) */\n      mulmod\n        /* \"Evm/zk/balance_verifier.sol\":14127:14159  mulmod(mulmod(x1, x1, P), x1, P) */\n      mulmod\n        /* \"Evm/zk/balance_verifier.sol\":14113:14159  uint256 b_3 = mulmod(mulmod(x1, x1, P), x1, P) */\n      swap1\n      pop\n        /* \"Evm/zk/balance_verifier.sol\":1423:1489  0x30644e72e131a029b85045b68181585d97816a916871ca8d3c208c16d87cfd47 */\n      0x30644e72e131a029b85045b68181585d97816a916871ca8d3c208c16d87cfd47\n        /* \"Evm/zk/balance_verifier.sol\":14183:14248  addmod(FRACTION_27_82_FP, addmod(a_3, mulmod(n3ab, x1, P), P), P) */\n      dup1\n      tag_168\n      jumpi\n      tag_169\n      tag_136\n      jump\t// in\n    tag_169:\n    tag_168:\n        /* \"Evm/zk/balance_verifier.sol\":1423:1489  0x30644e72e131a029b85045b68181585d97816a916871ca8d3c208c16d87cfd47 */\n      0x30644e72e131a029b85045b68181585d97816a916871ca8d3c208c16d87cfd47\n        /* \"Evm/zk/balance_verifier.sol\":14209:14244  addmod(a_3, mulmod(n3ab, x1, P), P) */\n      dup1\n      tag_170\n      jumpi\n      tag_171\n      tag_136\n      jump\t// in\n    tag_171:\n    tag_170:\n        /* \"Evm/zk/balance_verifier.sol\":1423:1489  0x30644e72e131a029b85045b68181585d97816a916871ca8d3c208c16d87cfd47 */\n      0x30644e72e131a029b85045b68181585d97816a916871ca8d3c208c16d87cfd47\n        /* \"Evm/zk/balance_verifier.sol\":14221:14240  mulmod(n3ab, x1, P) */\n      dup1\n      tag_172\n      jumpi\n      tag_173\n      tag_136\n      jump\t// in\n    tag_173:\n    tag_172:\n        /* \"Evm/zk/balance_verifier.sol\":14234:14236  x1 */\n      dup13\n        /* \"Evm/zk/balance_verifier.sol\":14228:14232  n3ab */\n      dup7\n        /* \"Evm/zk/balance_verifier.sol\":14221:14240  mulmod(n3ab, x1, P) */\n      mulmod\n        /* \"Evm/zk/balance_verifier.sol\":14216:14219  a_3 */\n      dup5\n        /* \"Evm/zk/balance_verifier.sol\":14209:14244  addmod(a_3, mulmod(n3ab, x1, P), P) */\n      addmod\n        /* \"Evm/zk/balance_verifier.sol\":2254:2320  0x2b149d40ceb8aaae81be18991be06ac3b5b4c5e559dbefa33267e6dc24a138e5 */\n      0x2b149d40ceb8aaae81be18991be06ac3b5b4c5e559dbefa33267e6dc24a138e5\n        /* \"Evm/zk/balance_verifier.sol\":14183:14248  addmod(FRACTION_27_82_FP, addmod(a_3, mulmod(n3ab, x1, P), P), P) */\n      addmod\n        /* \"Evm/zk/balance_verifier.sol\":14174:14248  y0_pos = addmod(FRACTION_27_82_FP, addmod(a_3, mulmod(n3ab, x1, P), P), P) */\n      swap5\n      pop\n        /* \"Evm/zk/balance_verifier.sol\":14272:14345  negate(addmod(FRACTION_3_82_FP,  addmod(b_3, mulmod(n3ab, x0, P), P), P)) */\n      tag_174\n        /* \"Evm/zk/balance_verifier.sol\":1423:1489  0x30644e72e131a029b85045b68181585d97816a916871ca8d3c208c16d87cfd47 */\n      0x30644e72e131a029b85045b68181585d97816a916871ca8d3c208c16d87cfd47\n        /* \"Evm/zk/balance_verifier.sol\":14279:14344  addmod(FRACTION_3_82_FP,  addmod(b_3, mulmod(n3ab, x0, P), P), P) */\n      dup1\n      tag_175\n      jumpi\n      tag_176\n      tag_136\n      jump\t// in\n    tag_176:\n    tag_175:\n        /* \"Evm/zk/balance_verifier.sol\":1423:1489  0x30644e72e131a029b85045b68181585d97816a916871ca8d3c208c16d87cfd47 */\n      0x30644e72e131a029b85045b68181585d97816a916871ca8d3c208c16d87cfd47\n        /* \"Evm/zk/balance_verifier.sol\":14305:14340  addmod(b_3, mulmod(n3ab, x0, P), P) */\n      dup1\n      tag_177\n      jumpi\n      tag_178\n      tag_136\n      jump\t// in\n    tag_178:\n    tag_177:\n        /* \"Evm/zk/balance_verifier.sol\":1423:1489  0x30644e72e131a029b85045b68181585d97816a916871ca8d3c208c16d87cfd47 */\n      0x30644e72e131a029b85045b68181585d97816a916871ca8d3c208c16d87cfd47\n        /* \"Evm/zk/balance_verifier.sol\":14317:14336  mulmod(n3ab, x0, P) */\n      dup1\n      tag_179\n      jumpi\n      tag_180\n      tag_136\n      jump\t// in\n    tag_180:\n    tag_179:\n        /* \"Evm/zk/balance_verifier.sol\":14330:14332  x0 */\n      dup15\n        /* \"Evm/zk/balance_verifier.sol\":14324:14328  n3ab */\n      dup8\n        /* \"Evm/zk/balance_verifier.sol\":14317:14336  mulmod(n3ab, x0, P) */\n      mulmod\n        /* \"Evm/zk/balance_verifier.sol\":14312:14315  b_3 */\n      dup5\n        /* \"Evm/zk/balance_verifier.sol\":14305:14340  addmod(b_3, mulmod(n3ab, x0, P), P) */\n      addmod\n        /* \"Evm/zk/balance_verifier.sol\":2363:2429  0x2fcd3ac2a640a154eb23960892a85a68f031ca0c8344b23a577dcf1052b9e775 */\n      0x2fcd3ac2a640a154eb23960892a85a68f031ca0c8344b23a577dcf1052b9e775\n        /* \"Evm/zk/balance_verifier.sol\":14279:14344  addmod(FRACTION_3_82_FP,  addmod(b_3, mulmod(n3ab, x0, P), P), P) */\n      addmod\n        /* \"Evm/zk/balance_verifier.sol\":14272:14278  negate */\n      tag_145\n        /* \"Evm/zk/balance_verifier.sol\":14272:14345  negate(addmod(FRACTION_3_82_FP,  addmod(b_3, mulmod(n3ab, x0, P), P), P)) */\n      jump\t// in\n    tag_174:\n        /* \"Evm/zk/balance_verifier.sol\":14263:14345  y1_pos = negate(addmod(FRACTION_3_82_FP,  addmod(b_3, mulmod(n3ab, x0, P), P), P)) */\n      swap4\n      pop\n        /* \"Evm/zk/balance_verifier.sol\":13974:14357  {... */\n      pop\n      pop\n      pop\n        /* \"Evm/zk/balance_verifier.sol\":14469:14478  bool hint */\n      0x00\n        /* \"Evm/zk/balance_verifier.sol\":14504:14513  uint256 d */\n      0x00\n        /* \"Evm/zk/balance_verifier.sol\":14516:14588  sqrt_Fp(addmod(mulmod(y0_pos, y0_pos, P), mulmod(y1_pos, y1_pos, P), P)) */\n      tag_181\n        /* \"Evm/zk/balance_verifier.sol\":1423:1489  0x30644e72e131a029b85045b68181585d97816a916871ca8d3c208c16d87cfd47 */\n      0x30644e72e131a029b85045b68181585d97816a916871ca8d3c208c16d87cfd47\n        /* \"Evm/zk/balance_verifier.sol\":14524:14587  addmod(mulmod(y0_pos, y0_pos, P), mulmod(y1_pos, y1_pos, P), P) */\n      dup1\n      tag_182\n      jumpi\n      tag_183\n      tag_136\n      jump\t// in\n    tag_183:\n    tag_182:\n        /* \"Evm/zk/balance_verifier.sol\":1423:1489  0x30644e72e131a029b85045b68181585d97816a916871ca8d3c208c16d87cfd47 */\n      0x30644e72e131a029b85045b68181585d97816a916871ca8d3c208c16d87cfd47\n        /* \"Evm/zk/balance_verifier.sol\":14558:14583  mulmod(y1_pos, y1_pos, P) */\n      dup1\n      tag_184\n      jumpi\n      tag_185\n      tag_136\n      jump\t// in\n    tag_185:\n    tag_184:\n        /* \"Evm/zk/balance_verifier.sol\":14573:14579  y1_pos */\n      dup6\n        /* \"Evm/zk/balance_verifier.sol\":14565:14571  y1_pos */\n      dup7\n        /* \"Evm/zk/balance_verifier.sol\":14558:14583  mulmod(y1_pos, y1_pos, P) */\n      mulmod\n        /* \"Evm/zk/balance_verifier.sol\":1423:1489  0x30644e72e131a029b85045b68181585d97816a916871ca8d3c208c16d87cfd47 */\n      0x30644e72e131a029b85045b68181585d97816a916871ca8d3c208c16d87cfd47\n        /* \"Evm/zk/balance_verifier.sol\":14531:14556  mulmod(y0_pos, y0_pos, P) */\n      dup1\n      tag_186\n      jumpi\n      tag_187\n      tag_136\n      jump\t// in\n    tag_187:\n    tag_186:\n        /* \"Evm/zk/balance_verifier.sol\":14546:14552  y0_pos */\n      dup8\n        /* \"Evm/zk/balance_verifier.sol\":14538:14544  y0_pos */\n      dup9\n        /* \"Evm/zk/balance_verifier.sol\":14531:14556  mulmod(y0_pos, y0_pos, P) */\n      mulmod\n        /* \"Evm/zk/balance_verifier.sol\":14524:14587  addmod(mulmod(y0_pos, y0_pos, P), mulmod(y1_pos, y1_pos, P), P) */\n      addmod\n        /* \"Evm/zk/balance_verifier.sol\":14516:14523  sqrt_Fp */\n      tag_141\n        /* \"Evm/zk/balance_verifier.sol\":14516:14588  sqrt_Fp(addmod(mulmod(y0_pos, y0_pos, P), mulmod(y1_pos, y1_pos, P), P)) */\n      jump\t// in\n    tag_181:\n        /* \"Evm/zk/balance_verifier.sol\":14504:14588  uint256 d = sqrt_Fp(addmod(mulmod(y0_pos, y0_pos, P), mulmod(y1_pos, y1_pos, P), P)) */\n      swap1\n      pop\n        /* \"Evm/zk/balance_verifier.sol\":14611:14672  isSquare_Fp(mulmod(addmod(y0_pos, d, P), FRACTION_1_2_FP, P)) */\n      tag_188\n        /* \"Evm/zk/balance_verifier.sol\":1423:1489  0x30644e72e131a029b85045b68181585d97816a916871ca8d3c208c16d87cfd47 */\n      0x30644e72e131a029b85045b68181585d97816a916871ca8d3c208c16d87cfd47\n        /* \"Evm/zk/balance_verifier.sol\":14623:14671  mulmod(addmod(y0_pos, d, P), FRACTION_1_2_FP, P) */\n      dup1\n      tag_189\n      jumpi\n      tag_190\n      tag_136\n      jump\t// in\n    tag_190:\n    tag_189:\n        /* \"Evm/zk/balance_verifier.sol\":2144:2210  0x183227397098d014dc2822db40c0ac2ecbc0b548b438e5469e10460b6c3e7ea4 */\n      0x183227397098d014dc2822db40c0ac2ecbc0b548b438e5469e10460b6c3e7ea4\n        /* \"Evm/zk/balance_verifier.sol\":1423:1489  0x30644e72e131a029b85045b68181585d97816a916871ca8d3c208c16d87cfd47 */\n      0x30644e72e131a029b85045b68181585d97816a916871ca8d3c208c16d87cfd47\n        /* \"Evm/zk/balance_verifier.sol\":14630:14650  addmod(y0_pos, d, P) */\n      dup1\n      tag_191\n      jumpi\n      tag_192\n      tag_136\n      jump\t// in\n    tag_192:\n    tag_191:\n        /* \"Evm/zk/balance_verifier.sol\":14645:14646  d */\n      dup5\n        /* \"Evm/zk/balance_verifier.sol\":14637:14643  y0_pos */\n      dup9\n        /* \"Evm/zk/balance_verifier.sol\":14630:14650  addmod(y0_pos, d, P) */\n      addmod\n        /* \"Evm/zk/balance_verifier.sol\":14623:14671  mulmod(addmod(y0_pos, d, P), FRACTION_1_2_FP, P) */\n      mulmod\n        /* \"Evm/zk/balance_verifier.sol\":14611:14622  isSquare_Fp */\n      tag_193\n        /* \"Evm/zk/balance_verifier.sol\":14611:14672  isSquare_Fp(mulmod(addmod(y0_pos, d, P), FRACTION_1_2_FP, P)) */\n      jump\t// in\n    tag_188:\n        /* \"Evm/zk/balance_verifier.sol\":14610:14672  !isSquare_Fp(mulmod(addmod(y0_pos, d, P), FRACTION_1_2_FP, P)) */\n      iszero\n        /* \"Evm/zk/balance_verifier.sol\":14603:14672  hint = !isSquare_Fp(mulmod(addmod(y0_pos, d, P), FRACTION_1_2_FP, P)) */\n      swap2\n      pop\n        /* \"Evm/zk/balance_verifier.sol\":14489:14684  {... */\n      pop\n        /* \"Evm/zk/balance_verifier.sol\":14737:14767  sqrt_Fp2(y0_pos, y1_pos, hint) */\n      tag_194\n        /* \"Evm/zk/balance_verifier.sol\":14746:14752  y0_pos */\n      dup4\n        /* \"Evm/zk/balance_verifier.sol\":14754:14760  y1_pos */\n      dup4\n        /* \"Evm/zk/balance_verifier.sol\":14762:14766  hint */\n      dup4\n        /* \"Evm/zk/balance_verifier.sol\":14737:14745  sqrt_Fp2 */\n      tag_195\n        /* \"Evm/zk/balance_verifier.sol\":14737:14767  sqrt_Fp2(y0_pos, y1_pos, hint) */\n      jump\t// in\n    tag_194:\n        /* \"Evm/zk/balance_verifier.sol\":14718:14767  (y0_pos, y1_pos) = sqrt_Fp2(y0_pos, y1_pos, hint) */\n      dup1\n      swap4\n      pop\n      dup2\n      swap5\n      pop\n      pop\n      pop\n        /* \"Evm/zk/balance_verifier.sol\":14788:14794  y0_pos */\n      dup3\n        /* \"Evm/zk/balance_verifier.sol\":14782:14784  y0 */\n      dup8\n        /* \"Evm/zk/balance_verifier.sol\":14782:14794  y0 == y0_pos */\n      eq\n        /* \"Evm/zk/balance_verifier.sol\":14782:14810  y0 == y0_pos && y1 == y1_pos */\n      dup1\n      iszero\n      tag_196\n      jumpi\n      pop\n        /* \"Evm/zk/balance_verifier.sol\":14804:14810  y1_pos */\n      dup2\n        /* \"Evm/zk/balance_verifier.sol\":14798:14800  y1 */\n      dup7\n        /* \"Evm/zk/balance_verifier.sol\":14798:14810  y1 == y1_pos */\n      eq\n        /* \"Evm/zk/balance_verifier.sol\":14782:14810  y0 == y0_pos && y1 == y1_pos */\n    tag_196:\n        /* \"Evm/zk/balance_verifier.sol\":14778:15131  if (y0 == y0_pos && y1 == y1_pos) {... */\n      iszero\n      tag_197\n      jumpi\n        /* \"Evm/zk/balance_verifier.sol\":14862:14863  0 */\n      0x00\n        /* \"Evm/zk/balance_verifier.sol\":14845:14849  hint */\n      dup2\n        /* \"Evm/zk/balance_verifier.sol\":14845:14858  hint ? 2  : 0 */\n      tag_198\n      jumpi\n        /* \"Evm/zk/balance_verifier.sol\":14857:14858  0 */\n      0x00\n        /* \"Evm/zk/balance_verifier.sol\":14845:14858  hint ? 2  : 0 */\n      jump(tag_199)\n    tag_198:\n        /* \"Evm/zk/balance_verifier.sol\":14852:14853  2 */\n      0x02\n        /* \"Evm/zk/balance_verifier.sol\":14845:14858  hint ? 2  : 0 */\n    tag_199:\n        /* \"Evm/zk/balance_verifier.sol\":14832:14859  (x0 << 2) | (hint ? 2  : 0) */\n      0xff\n      and\n        /* \"Evm/zk/balance_verifier.sol\":14839:14840  2 */\n      0x02\n        /* \"Evm/zk/balance_verifier.sol\":14833:14835  x0 */\n      dup12\n        /* \"Evm/zk/balance_verifier.sol\":14833:14840  x0 << 2 */\n      swap1\n      shl\n        /* \"Evm/zk/balance_verifier.sol\":14832:14859  (x0 << 2) | (hint ? 2  : 0) */\n      or\n        /* \"Evm/zk/balance_verifier.sol\":14832:14863  (x0 << 2) | (hint ? 2  : 0) | 0 */\n      or\n        /* \"Evm/zk/balance_verifier.sol\":14827:14863  c0 = (x0 << 2) | (hint ? 2  : 0) | 0 */\n      swap5\n      pop\n        /* \"Evm/zk/balance_verifier.sol\":14883:14885  x1 */\n      dup8\n        /* \"Evm/zk/balance_verifier.sol\":14878:14885  c1 = x1 */\n      swap4\n      pop\n        /* \"Evm/zk/balance_verifier.sol\":14778:15131  if (y0 == y0_pos && y1 == y1_pos) {... */\n      jump(tag_200)\n    tag_197:\n        /* \"Evm/zk/balance_verifier.sol\":14913:14927  negate(y0_pos) */\n      tag_201\n        /* \"Evm/zk/balance_verifier.sol\":14920:14926  y0_pos */\n      dup4\n        /* \"Evm/zk/balance_verifier.sol\":14913:14919  negate */\n      tag_145\n        /* \"Evm/zk/balance_verifier.sol\":14913:14927  negate(y0_pos) */\n      jump\t// in\n    tag_201:\n        /* \"Evm/zk/balance_verifier.sol\":14907:14909  y0 */\n      dup8\n        /* \"Evm/zk/balance_verifier.sol\":14907:14927  y0 == negate(y0_pos) */\n      eq\n        /* \"Evm/zk/balance_verifier.sol\":14907:14951  y0 == negate(y0_pos) && y1 == negate(y1_pos) */\n      dup1\n      iszero\n      tag_202\n      jumpi\n      pop\n        /* \"Evm/zk/balance_verifier.sol\":14937:14951  negate(y1_pos) */\n      tag_203\n        /* \"Evm/zk/balance_verifier.sol\":14944:14950  y1_pos */\n      dup3\n        /* \"Evm/zk/balance_verifier.sol\":14937:14943  negate */\n      tag_145\n        /* \"Evm/zk/balance_verifier.sol\":14937:14951  negate(y1_pos) */\n      jump\t// in\n    tag_203:\n        /* \"Evm/zk/balance_verifier.sol\":14931:14933  y1 */\n      dup7\n        /* \"Evm/zk/balance_verifier.sol\":14931:14951  y1 == negate(y1_pos) */\n      eq\n        /* \"Evm/zk/balance_verifier.sol\":14907:14951  y0 == negate(y0_pos) && y1 == negate(y1_pos) */\n    tag_202:\n        /* \"Evm/zk/balance_verifier.sol\":14903:15131  if (y0 == negate(y0_pos) && y1 == negate(y1_pos)) {... */\n      iszero\n      tag_204\n      jumpi\n        /* \"Evm/zk/balance_verifier.sol\":15003:15004  1 */\n      0x01\n        /* \"Evm/zk/balance_verifier.sol\":14986:14990  hint */\n      dup2\n        /* \"Evm/zk/balance_verifier.sol\":14986:14999  hint ? 2  : 0 */\n      tag_205\n      jumpi\n        /* \"Evm/zk/balance_verifier.sol\":14998:14999  0 */\n      0x00\n        /* \"Evm/zk/balance_verifier.sol\":14986:14999  hint ? 2  : 0 */\n      jump(tag_206)\n    tag_205:\n        /* \"Evm/zk/balance_verifier.sol\":14993:14994  2 */\n      0x02\n        /* \"Evm/zk/balance_verifier.sol\":14986:14999  hint ? 2  : 0 */\n    tag_206:\n        /* \"Evm/zk/balance_verifier.sol\":14973:15000  (x0 << 2) | (hint ? 2  : 0) */\n      0xff\n      and\n        /* \"Evm/zk/balance_verifier.sol\":14980:14981  2 */\n      0x02\n        /* \"Evm/zk/balance_verifier.sol\":14974:14976  x0 */\n      dup12\n        /* \"Evm/zk/balance_verifier.sol\":14974:14981  x0 << 2 */\n      swap1\n      shl\n        /* \"Evm/zk/balance_verifier.sol\":14973:15000  (x0 << 2) | (hint ? 2  : 0) */\n      or\n        /* \"Evm/zk/balance_verifier.sol\":14973:15004  (x0 << 2) | (hint ? 2  : 0) | 1 */\n      or\n        /* \"Evm/zk/balance_verifier.sol\":14968:15004  c0 = (x0 << 2) | (hint ? 2  : 0) | 1 */\n      swap5\n      pop\n        /* \"Evm/zk/balance_verifier.sol\":15024:15026  x1 */\n      dup8\n        /* \"Evm/zk/balance_verifier.sol\":15019:15026  c1 = x1 */\n      swap4\n      pop\n        /* \"Evm/zk/balance_verifier.sol\":14903:15131  if (y0 == negate(y0_pos) && y1 == negate(y1_pos)) {... */\n      jump(tag_207)\n    tag_204:\n        /* \"Evm/zk/balance_verifier.sol\":15105:15119  ProofInvalid() */\n      mload(0x40)\n      0x7fcdd1f400000000000000000000000000000000000000000000000000000000\n      dup2\n      mstore\n      0x04\n      add\n      mload(0x40)\n      dup1\n      swap2\n      sub\n      swap1\n      revert\n        /* \"Evm/zk/balance_verifier.sol\":14903:15131  if (y0 == negate(y0_pos) && y1 == negate(y1_pos)) {... */\n    tag_207:\n        /* \"Evm/zk/balance_verifier.sol\":14778:15131  if (y0 == y0_pos && y1 == y1_pos) {... */\n    tag_200:\n        /* \"Evm/zk/balance_verifier.sol\":13556:15138  {... */\n      pop\n      pop\n      pop\n        /* \"Evm/zk/balance_verifier.sol\":13435:15138  function compress_g2(uint256 x0, uint256 x1, uint256 y0, uint256 y1)... */\n    tag_148:\n      swap5\n      pop\n      swap5\n      swap3\n      pop\n      pop\n      pop\n      jump\t// out\n        /* \"Evm/zk/balance_verifier.sol\":17808:21403  function publicInputMSM(uint256[6] calldata input)... */\n    tag_55:\n        /* \"Evm/zk/balance_verifier.sol\":17887:17896  uint256 x */\n      0x00\n        /* \"Evm/zk/balance_verifier.sol\":17898:17907  uint256 y */\n      0x00\n        /* \"Evm/zk/balance_verifier.sol\":18521:18533  bool success */\n      0x00\n        /* \"Evm/zk/balance_verifier.sol\":18536:18540  true */\n      0x01\n        /* \"Evm/zk/balance_verifier.sol\":18521:18540  bool success = true */\n      swap1\n      pop\n        /* \"Evm/zk/balance_verifier.sol\":18606:18610  0x40 */\n      0x40\n        /* \"Evm/zk/balance_verifier.sol\":18600:18611  mload(0x40) */\n      mload\n        /* \"Evm/zk/balance_verifier.sol\":18641:18645  0x40 */\n      0x40\n        /* \"Evm/zk/balance_verifier.sol\":18638:18639  f */\n      dup2\n        /* \"Evm/zk/balance_verifier.sol\":18634:18646  add(f, 0x40) */\n      add\n        /* \"Evm/zk/balance_verifier.sol\":18660:18665  let s */\n      0x00\n        /* \"Evm/zk/balance_verifier.sol\":18689:18699  CONSTANT_X */\n      0x2ad53ae3f81122123797f2b78b4ba9e8a9385cdd15067e2820586e3b42ce3e78\n        /* \"Evm/zk/balance_verifier.sol\":18686:18687  f */\n      dup4\n        /* \"Evm/zk/balance_verifier.sol\":18679:18700  mstore(f, CONSTANT_X) */\n      mstore\n        /* \"Evm/zk/balance_verifier.sol\":18735:18745  CONSTANT_Y */\n      0x17322cafec6e6ab50971a3405d24c0218c34bac7d68c3098a02f5b05564b0932\n        /* \"Evm/zk/balance_verifier.sol\":18728:18732  0x20 */\n      0x20\n        /* \"Evm/zk/balance_verifier.sol\":18725:18726  f */\n      dup5\n        /* \"Evm/zk/balance_verifier.sol\":18721:18733  add(f, 0x20) */\n      add\n        /* \"Evm/zk/balance_verifier.sol\":18714:18746  mstore(add(f, 0x20), CONSTANT_Y) */\n      mstore\n        /* \"Evm/zk/balance_verifier.sol\":18770:18777  PUB_0_X */\n      0x0365f4f4bfe37f271afb70296fbcfc1be0d1af8630cf61a9203a606b871b6223\n        /* \"Evm/zk/balance_verifier.sol\":18767:18768  g */\n      dup3\n        /* \"Evm/zk/balance_verifier.sol\":18760:18778  mstore(g, PUB_0_X) */\n      mstore\n        /* \"Evm/zk/balance_verifier.sol\":18813:18820  PUB_0_Y */\n      0x03a200293dda046e0c58b47e9f6a829e4ae1ae81c120d5bc1773d760668b57f6\n        /* \"Evm/zk/balance_verifier.sol\":18806:18810  0x20 */\n      0x20\n        /* \"Evm/zk/balance_verifier.sol\":18803:18804  g */\n      dup4\n        /* \"Evm/zk/balance_verifier.sol\":18799:18811  add(g, 0x20) */\n      add\n        /* \"Evm/zk/balance_verifier.sol\":18792:18821  mstore(add(g, 0x20), PUB_0_Y) */\n      mstore\n        /* \"Evm/zk/balance_verifier.sol\":18854:18859  input */\n      dup7\n        /* \"Evm/zk/balance_verifier.sol\":18841:18860  calldataload(input) */\n      calldataload\n        /* \"Evm/zk/balance_verifier.sol\":18835:18860  s :=  calldataload(input) */\n      swap1\n      pop\n        /* \"Evm/zk/balance_verifier.sol\":18895:18896  s */\n      dup1\n        /* \"Evm/zk/balance_verifier.sol\":18888:18892  0x40 */\n      0x40\n        /* \"Evm/zk/balance_verifier.sol\":18885:18886  g */\n      dup4\n        /* \"Evm/zk/balance_verifier.sol\":18881:18893  add(g, 0x40) */\n      add\n        /* \"Evm/zk/balance_verifier.sol\":18874:18897  mstore(add(g, 0x40), s) */\n      mstore\n        /* \"Evm/zk/balance_verifier.sol\":18941:18942  R */\n      0x30644e72e131a029b85045b68181585d2833e84879b9709143e1f593f0000001\n        /* \"Evm/zk/balance_verifier.sol\":18938:18939  s */\n      dup2\n        /* \"Evm/zk/balance_verifier.sol\":18935:18943  lt(s, R) */\n      lt\n        /* \"Evm/zk/balance_verifier.sol\":18926:18933  success */\n      dup5\n        /* \"Evm/zk/balance_verifier.sol\":18922:18944  and(success, lt(s, R)) */\n      and\n        /* \"Evm/zk/balance_verifier.sol\":18911:18944  success := and(success, lt(s, R)) */\n      swap4\n      pop\n        /* \"Evm/zk/balance_verifier.sol\":19028:19032  0x40 */\n      0x40\n        /* \"Evm/zk/balance_verifier.sol\":19025:19026  g */\n      dup3\n        /* \"Evm/zk/balance_verifier.sol\":19019:19023  0x60 */\n      0x60\n        /* \"Evm/zk/balance_verifier.sol\":19016:19017  g */\n      dup5\n        /* \"Evm/zk/balance_verifier.sol\":19000:19014  PRECOMPILE_MUL */\n      0x07\n        /* \"Evm/zk/balance_verifier.sol\":18993:18998  gas() */\n      gas\n        /* \"Evm/zk/balance_verifier.sol\":18982:19033  staticcall(gas(), PRECOMPILE_MUL, g, 0x60, g, 0x40) */\n      staticcall\n        /* \"Evm/zk/balance_verifier.sol\":18973:18980  success */\n      dup5\n        /* \"Evm/zk/balance_verifier.sol\":18969:19034  and(success, staticcall(gas(), PRECOMPILE_MUL, g, 0x60, g, 0x40)) */\n      and\n        /* \"Evm/zk/balance_verifier.sol\":18958:19034  success := and(success, staticcall(gas(), PRECOMPILE_MUL, g, 0x60, g, 0x40)) */\n      swap4\n      pop\n        /* \"Evm/zk/balance_verifier.sol\":19118:19122  0x40 */\n      0x40\n        /* \"Evm/zk/balance_verifier.sol\":19115:19116  f */\n      dup4\n        /* \"Evm/zk/balance_verifier.sol\":19109:19113  0x80 */\n      0x80\n        /* \"Evm/zk/balance_verifier.sol\":19106:19107  f */\n      dup6\n        /* \"Evm/zk/balance_verifier.sol\":19090:19104  PRECOMPILE_ADD */\n      0x06\n        /* \"Evm/zk/balance_verifier.sol\":19083:19088  gas() */\n      gas\n        /* \"Evm/zk/balance_verifier.sol\":19072:19123  staticcall(gas(), PRECOMPILE_ADD, f, 0x80, f, 0x40) */\n      staticcall\n        /* \"Evm/zk/balance_verifier.sol\":19063:19070  success */\n      dup5\n        /* \"Evm/zk/balance_verifier.sol\":19059:19124  and(success, staticcall(gas(), PRECOMPILE_ADD, f, 0x80, f, 0x40)) */\n      and\n        /* \"Evm/zk/balance_verifier.sol\":19048:19124  success := and(success, staticcall(gas(), PRECOMPILE_ADD, f, 0x80, f, 0x40)) */\n      swap4\n      pop\n        /* \"Evm/zk/balance_verifier.sol\":19148:19155  PUB_1_X */\n      0x2e04bbd8d29b409121ff0d86aec3ff0bf00a2d42104c9e264c8c3c0b097c6b69\n        /* \"Evm/zk/balance_verifier.sol\":19145:19146  g */\n      dup3\n        /* \"Evm/zk/balance_verifier.sol\":19138:19156  mstore(g, PUB_1_X) */\n      mstore\n        /* \"Evm/zk/balance_verifier.sol\":19191:19198  PUB_1_Y */\n      0x1048cd6ad5b7549fda6c4bbf20e827b365288c43954c6014c248d8fa40d7c7f5\n        /* \"Evm/zk/balance_verifier.sol\":19184:19188  0x20 */\n      0x20\n        /* \"Evm/zk/balance_verifier.sol\":19181:19182  g */\n      dup4\n        /* \"Evm/zk/balance_verifier.sol\":19177:19189  add(g, 0x20) */\n      add\n        /* \"Evm/zk/balance_verifier.sol\":19170:19199  mstore(add(g, 0x20), PUB_1_Y) */\n      mstore\n        /* \"Evm/zk/balance_verifier.sol\":19243:19245  32 */\n      0x20\n        /* \"Evm/zk/balance_verifier.sol\":19236:19241  input */\n      dup8\n        /* \"Evm/zk/balance_verifier.sol\":19232:19246  add(input, 32) */\n      add\n        /* \"Evm/zk/balance_verifier.sol\":19219:19247  calldataload(add(input, 32)) */\n      calldataload\n        /* \"Evm/zk/balance_verifier.sol\":19213:19247  s :=  calldataload(add(input, 32)) */\n      swap1\n      pop\n        /* \"Evm/zk/balance_verifier.sol\":19282:19283  s */\n      dup1\n        /* \"Evm/zk/balance_verifier.sol\":19275:19279  0x40 */\n      0x40\n        /* \"Evm/zk/balance_verifier.sol\":19272:19273  g */\n      dup4\n        /* \"Evm/zk/balance_verifier.sol\":19268:19280  add(g, 0x40) */\n      add\n        /* \"Evm/zk/balance_verifier.sol\":19261:19284  mstore(add(g, 0x40), s) */\n      mstore\n        /* \"Evm/zk/balance_verifier.sol\":19328:19329  R */\n      0x30644e72e131a029b85045b68181585d2833e84879b9709143e1f593f0000001\n        /* \"Evm/zk/balance_verifier.sol\":19325:19326  s */\n      dup2\n        /* \"Evm/zk/balance_verifier.sol\":19322:19330  lt(s, R) */\n      lt\n        /* \"Evm/zk/balance_verifier.sol\":19313:19320  success */\n      dup5\n        /* \"Evm/zk/balance_verifier.sol\":19309:19331  and(success, lt(s, R)) */\n      and\n        /* \"Evm/zk/balance_verifier.sol\":19298:19331  success := and(success, lt(s, R)) */\n      swap4\n      pop\n        /* \"Evm/zk/balance_verifier.sol\":19415:19419  0x40 */\n      0x40\n        /* \"Evm/zk/balance_verifier.sol\":19412:19413  g */\n      dup3\n        /* \"Evm/zk/balance_verifier.sol\":19406:19410  0x60 */\n      0x60\n        /* \"Evm/zk/balance_verifier.sol\":19403:19404  g */\n      dup5\n        /* \"Evm/zk/balance_verifier.sol\":19387:19401  PRECOMPILE_MUL */\n      0x07\n        /* \"Evm/zk/balance_verifier.sol\":19380:19385  gas() */\n      gas\n        /* \"Evm/zk/balance_verifier.sol\":19369:19420  staticcall(gas(), PRECOMPILE_MUL, g, 0x60, g, 0x40) */\n      staticcall\n        /* \"Evm/zk/balance_verifier.sol\":19360:19367  success */\n      dup5\n        /* \"Evm/zk/balance_verifier.sol\":19356:19421  and(success, staticcall(gas(), PRECOMPILE_MUL, g, 0x60, g, 0x40)) */\n      and\n        /* \"Evm/zk/balance_verifier.sol\":19345:19421  success := and(success, staticcall(gas(), PRECOMPILE_MUL, g, 0x60, g, 0x40)) */\n      swap4\n      pop\n        /* \"Evm/zk/balance_verifier.sol\":19505:19509  0x40 */\n      0x40\n        /* \"Evm/zk/balance_verifier.sol\":19502:19503  f */\n      dup4\n        /* \"Evm/zk/balance_verifier.sol\":19496:19500  0x80 */\n      0x80\n        /* \"Evm/zk/balance_verifier.sol\":19493:19494  f */\n      dup6\n        /* \"Evm/zk/balance_verifier.sol\":19477:19491  PRECOMPILE_ADD */\n      0x06\n        /* \"Evm/zk/balance_verifier.sol\":19470:19475  gas() */\n      gas\n        /* \"Evm/zk/balance_verifier.sol\":19459:19510  staticcall(gas(), PRECOMPILE_ADD, f, 0x80, f, 0x40) */\n      staticcall\n        /* \"Evm/zk/balance_verifier.sol\":19450:19457  success */\n      dup5\n        /* \"Evm/zk/balance_verifier.sol\":19446:19511  and(success, staticcall(gas(), PRECOMPILE_ADD, f, 0x80, f, 0x40)) */\n      and\n        /* \"Evm/zk/balance_verifier.sol\":19435:19511  success := and(success, staticcall(gas(), PRECOMPILE_ADD, f, 0x80, f, 0x40)) */\n      swap4\n      pop\n        /* \"Evm/zk/balance_verifier.sol\":19535:19542  PUB_2_X */\n      0x17c27e91a4717a4d757b51838a291f162c5a8cffa155c39732280e6acb345a9d\n        /* \"Evm/zk/balance_verifier.sol\":19532:19533  g */\n      dup3\n        /* \"Evm/zk/balance_verifier.sol\":19525:19543  mstore(g, PUB_2_X) */\n      mstore\n        /* \"Evm/zk/balance_verifier.sol\":19578:19585  PUB_2_Y */\n      0x03361f7d2f02a1a448d4370aa60d46b14d58993ee00ad5f18db0745fbfaf89e8\n        /* \"Evm/zk/balance_verifier.sol\":19571:19575  0x20 */\n      0x20\n        /* \"Evm/zk/balance_verifier.sol\":19568:19569  g */\n      dup4\n        /* \"Evm/zk/balance_verifier.sol\":19564:19576  add(g, 0x20) */\n      add\n        /* \"Evm/zk/balance_verifier.sol\":19557:19586  mstore(add(g, 0x20), PUB_2_Y) */\n      mstore\n        /* \"Evm/zk/balance_verifier.sol\":19630:19632  64 */\n      0x40\n        /* \"Evm/zk/balance_verifier.sol\":19623:19628  input */\n      dup8\n        /* \"Evm/zk/balance_verifier.sol\":19619:19633  add(input, 64) */\n      add\n        /* \"Evm/zk/balance_verifier.sol\":19606:19634  calldataload(add(input, 64)) */\n      calldataload\n        /* \"Evm/zk/balance_verifier.sol\":19600:19634  s :=  calldataload(add(input, 64)) */\n      swap1\n      pop\n        /* \"Evm/zk/balance_verifier.sol\":19669:19670  s */\n      dup1\n        /* \"Evm/zk/balance_verifier.sol\":19662:19666  0x40 */\n      0x40\n        /* \"Evm/zk/balance_verifier.sol\":19659:19660  g */\n      dup4\n        /* \"Evm/zk/balance_verifier.sol\":19655:19667  add(g, 0x40) */\n      add\n        /* \"Evm/zk/balance_verifier.sol\":19648:19671  mstore(add(g, 0x40), s) */\n      mstore\n        /* \"Evm/zk/balance_verifier.sol\":19715:19716  R */\n      0x30644e72e131a029b85045b68181585d2833e84879b9709143e1f593f0000001\n        /* \"Evm/zk/balance_verifier.sol\":19712:19713  s */\n      dup2\n        /* \"Evm/zk/balance_verifier.sol\":19709:19717  lt(s, R) */\n      lt\n        /* \"Evm/zk/balance_verifier.sol\":19700:19707  success */\n      dup5\n        /* \"Evm/zk/balance_verifier.sol\":19696:19718  and(success, lt(s, R)) */\n      and\n        /* \"Evm/zk/balance_verifier.sol\":19685:19718  success := and(success, lt(s, R)) */\n      swap4\n      pop\n        /* \"Evm/zk/balance_verifier.sol\":19802:19806  0x40 */\n      0x40\n        /* \"Evm/zk/balance_verifier.sol\":19799:19800  g */\n      dup3\n        /* \"Evm/zk/balance_verifier.sol\":19793:19797  0x60 */\n      0x60\n        /* \"Evm/zk/balance_verifier.sol\":19790:19791  g */\n      dup5\n        /* \"Evm/zk/balance_verifier.sol\":19774:19788  PRECOMPILE_MUL */\n      0x07\n        /* \"Evm/zk/balance_verifier.sol\":19767:19772  gas() */\n      gas\n        /* \"Evm/zk/balance_verifier.sol\":19756:19807  staticcall(gas(), PRECOMPILE_MUL, g, 0x60, g, 0x40) */\n      staticcall\n        /* \"Evm/zk/balance_verifier.sol\":19747:19754  success */\n      dup5\n        /* \"Evm/zk/balance_verifier.sol\":19743:19808  and(success, staticcall(gas(), PRECOMPILE_MUL, g, 0x60, g, 0x40)) */\n      and\n        /* \"Evm/zk/balance_verifier.sol\":19732:19808  success := and(success, staticcall(gas(), PRECOMPILE_MUL, g, 0x60, g, 0x40)) */\n      swap4\n      pop\n        /* \"Evm/zk/balance_verifier.sol\":19892:19896  0x40 */\n      0x40\n        /* \"Evm/zk/balance_verifier.sol\":19889:19890  f */\n      dup4\n        /* \"Evm/zk/balance_verifier.sol\":19883:19887  0x80 */\n      0x80\n        /* \"Evm/zk/balance_verifier.sol\":19880:19881  f */\n      dup6\n        /* \"Evm/zk/balance_verifier.sol\":19864:19878  PRECOMPILE_ADD */\n      0x06\n        /* \"Evm/zk/balance_verifier.sol\":19857:19862  gas() */\n      gas\n        /* \"Evm/zk/balance_verifier.sol\":19846:19897  staticcall(gas(), PRECOMPILE_ADD, f, 0x80, f, 0x40) */\n      staticcall\n        /* \"Evm/zk/balance_verifier.sol\":19837:19844  success */\n      dup5\n        /* \"Evm/zk/balance_verifier.sol\":19833:19898  and(success, staticcall(gas(), PRECOMPILE_ADD, f, 0x80, f, 0x40)) */\n      and\n        /* \"Evm/zk/balance_verifier.sol\":19822:19898  success := and(success, staticcall(gas(), PRECOMPILE_ADD, f, 0x80, f, 0x40)) */\n      swap4\n      pop\n        /* \"Evm/zk/balance_verifier.sol\":19922:19929  PUB_3_X */\n      0x2cca904853cf4e653ff22ab6580a20ee3b1f1499f45c1a0bdddedeb3d2353e1a\n        /* \"Evm/zk/balance_verifier.sol\":19919:19920  g */\n      dup3\n        /* \"Evm/zk/balance_verifier.sol\":19912:19930  mstore(g, PUB_3_X) */\n      mstore\n        /* \"Evm/zk/balance_verifier.sol\":19965:19972  PUB_3_Y */\n      0x18decc191dce3f27fcad86d09ac47050dc583e3c7a0d4ae86b6849ddce7990de\n        /* \"Evm/zk/balance_verifier.sol\":19958:19962  0x20 */\n      0x20\n        /* \"Evm/zk/balance_verifier.sol\":19955:19956  g */\n      dup4\n        /* \"Evm/zk/balance_verifier.sol\":19951:19963  add(g, 0x20) */\n      add\n        /* \"Evm/zk/balance_verifier.sol\":19944:19973  mstore(add(g, 0x20), PUB_3_Y) */\n      mstore\n        /* \"Evm/zk/balance_verifier.sol\":20017:20019  96 */\n      0x60\n        /* \"Evm/zk/balance_verifier.sol\":20010:20015  input */\n      dup8\n        /* \"Evm/zk/balance_verifier.sol\":20006:20020  add(input, 96) */\n      add\n        /* \"Evm/zk/balance_verifier.sol\":19993:20021  calldataload(add(input, 96)) */\n      calldataload\n        /* \"Evm/zk/balance_verifier.sol\":19987:20021  s :=  calldataload(add(input, 96)) */\n      swap1\n      pop\n        /* \"Evm/zk/balance_verifier.sol\":20056:20057  s */\n      dup1\n        /* \"Evm/zk/balance_verifier.sol\":20049:20053  0x40 */\n      0x40\n        /* \"Evm/zk/balance_verifier.sol\":20046:20047  g */\n      dup4\n        /* \"Evm/zk/balance_verifier.sol\":20042:20054  add(g, 0x40) */\n      add\n        /* \"Evm/zk/balance_verifier.sol\":20035:20058  mstore(add(g, 0x40), s) */\n      mstore\n        /* \"Evm/zk/balance_verifier.sol\":20102:20103  R */\n      0x30644e72e131a029b85045b68181585d2833e84879b9709143e1f593f0000001\n        /* \"Evm/zk/balance_verifier.sol\":20099:20100  s */\n      dup2\n        /* \"Evm/zk/balance_verifier.sol\":20096:20104  lt(s, R) */\n      lt\n        /* \"Evm/zk/balance_verifier.sol\":20087:20094  success */\n      dup5\n        /* \"Evm/zk/balance_verifier.sol\":20083:20105  and(success, lt(s, R)) */\n      and\n        /* \"Evm/zk/balance_verifier.sol\":20072:20105  success := and(success, lt(s, R)) */\n      swap4\n      pop\n        /* \"Evm/zk/balance_verifier.sol\":20189:20193  0x40 */\n      0x40\n        /* \"Evm/zk/balance_verifier.sol\":20186:20187  g */\n      dup3\n        /* \"Evm/zk/balance_verifier.sol\":20180:20184  0x60 */\n      0x60\n        /* \"Evm/zk/balance_verifier.sol\":20177:20178  g */\n      dup5\n        /* \"Evm/zk/balance_verifier.sol\":20161:20175  PRECOMPILE_MUL */\n      0x07\n        /* \"Evm/zk/balance_verifier.sol\":20154:20159  gas() */\n      gas\n        /* \"Evm/zk/balance_verifier.sol\":20143:20194  staticcall(gas(), PRECOMPILE_MUL, g, 0x60, g, 0x40) */\n      staticcall\n        /* \"Evm/zk/balance_verifier.sol\":20134:20141  success */\n      dup5\n        /* \"Evm/zk/balance_verifier.sol\":20130:20195  and(success, staticcall(gas(), PRECOMPILE_MUL, g, 0x60, g, 0x40)) */\n      and\n        /* \"Evm/zk/balance_verifier.sol\":20119:20195  success := and(success, staticcall(gas(), PRECOMPILE_MUL, g, 0x60, g, 0x40)) */\n      swap4\n      pop\n        /* \"Evm/zk/balance_verifier.sol\":20279:20283  0x40 */\n      0x40\n        /* \"Evm/zk/balance_verifier.sol\":20276:20277  f */\n      dup4\n        /* \"Evm/zk/balance_verifier.sol\":20270:20274  0x80 */\n      0x80\n        /* \"Evm/zk/balance_verifier.sol\":20267:20268  f */\n      dup6\n        /* \"Evm/zk/balance_verifier.sol\":20251:20265  PRECOMPILE_ADD */\n      0x06\n        /* \"Evm/zk/balance_verifier.sol\":20244:20249  gas() */\n      gas\n        /* \"Evm/zk/balance_verifier.sol\":20233:20284  staticcall(gas(), PRECOMPILE_ADD, f, 0x80, f, 0x40) */\n      staticcall\n        /* \"Evm/zk/balance_verifier.sol\":20224:20231  success */\n      dup5\n        /* \"Evm/zk/balance_verifier.sol\":20220:20285  and(success, staticcall(gas(), PRECOMPILE_ADD, f, 0x80, f, 0x40)) */\n      and\n        /* \"Evm/zk/balance_verifier.sol\":20209:20285  success := and(success, staticcall(gas(), PRECOMPILE_ADD, f, 0x80, f, 0x40)) */\n      swap4\n      pop\n        /* \"Evm/zk/balance_verifier.sol\":20309:20316  PUB_4_X */\n      0x00\n        /* \"Evm/zk/balance_verifier.sol\":20306:20307  g */\n      dup3\n        /* \"Evm/zk/balance_verifier.sol\":20299:20317  mstore(g, PUB_4_X) */\n      mstore\n        /* \"Evm/zk/balance_verifier.sol\":20352:20359  PUB_4_Y */\n      0x00\n        /* \"Evm/zk/balance_verifier.sol\":20345:20349  0x20 */\n      0x20\n        /* \"Evm/zk/balance_verifier.sol\":20342:20343  g */\n      dup4\n        /* \"Evm/zk/balance_verifier.sol\":20338:20350  add(g, 0x20) */\n      add\n        /* \"Evm/zk/balance_verifier.sol\":20331:20360  mstore(add(g, 0x20), PUB_4_Y) */\n      mstore\n        /* \"Evm/zk/balance_verifier.sol\":20404:20407  128 */\n      0x80\n        /* \"Evm/zk/balance_verifier.sol\":20397:20402  input */\n      dup8\n        /* \"Evm/zk/balance_verifier.sol\":20393:20408  add(input, 128) */\n      add\n        /* \"Evm/zk/balance_verifier.sol\":20380:20409  calldataload(add(input, 128)) */\n      calldataload\n        /* \"Evm/zk/balance_verifier.sol\":20374:20409  s :=  calldataload(add(input, 128)) */\n      swap1\n      pop\n        /* \"Evm/zk/balance_verifier.sol\":20444:20445  s */\n      dup1\n        /* \"Evm/zk/balance_verifier.sol\":20437:20441  0x40 */\n      0x40\n        /* \"Evm/zk/balance_verifier.sol\":20434:20435  g */\n      dup4\n        /* \"Evm/zk/balance_verifier.sol\":20430:20442  add(g, 0x40) */\n      add\n        /* \"Evm/zk/balance_verifier.sol\":20423:20446  mstore(add(g, 0x40), s) */\n      mstore\n        /* \"Evm/zk/balance_verifier.sol\":20490:20491  R */\n      0x30644e72e131a029b85045b68181585d2833e84879b9709143e1f593f0000001\n        /* \"Evm/zk/balance_verifier.sol\":20487:20488  s */\n      dup2\n        /* \"Evm/zk/balance_verifier.sol\":20484:20492  lt(s, R) */\n      lt\n        /* \"Evm/zk/balance_verifier.sol\":20475:20482  success */\n      dup5\n        /* \"Evm/zk/balance_verifier.sol\":20471:20493  and(success, lt(s, R)) */\n      and\n        /* \"Evm/zk/balance_verifier.sol\":20460:20493  success := and(success, lt(s, R)) */\n      swap4\n      pop\n        /* \"Evm/zk/balance_verifier.sol\":20577:20581  0x40 */\n      0x40\n        /* \"Evm/zk/balance_verifier.sol\":20574:20575  g */\n      dup3\n        /* \"Evm/zk/balance_verifier.sol\":20568:20572  0x60 */\n      0x60\n        /* \"Evm/zk/balance_verifier.sol\":20565:20566  g */\n      dup5\n        /* \"Evm/zk/balance_verifier.sol\":20549:20563  PRECOMPILE_MUL */\n      0x07\n        /* \"Evm/zk/balance_verifier.sol\":20542:20547  gas() */\n      gas\n        /* \"Evm/zk/balance_verifier.sol\":20531:20582  staticcall(gas(), PRECOMPILE_MUL, g, 0x60, g, 0x40) */\n      staticcall\n        /* \"Evm/zk/balance_verifier.sol\":20522:20529  success */\n      dup5\n        /* \"Evm/zk/balance_verifier.sol\":20518:20583  and(success, staticcall(gas(), PRECOMPILE_MUL, g, 0x60, g, 0x40)) */\n      and\n        /* \"Evm/zk/balance_verifier.sol\":20507:20583  success := and(success, staticcall(gas(), PRECOMPILE_MUL, g, 0x60, g, 0x40)) */\n      swap4\n      pop\n        /* \"Evm/zk/balance_verifier.sol\":20667:20671  0x40 */\n      0x40\n        /* \"Evm/zk/balance_verifier.sol\":20664:20665  f */\n      dup4\n        /* \"Evm/zk/balance_verifier.sol\":20658:20662  0x80 */\n      0x80\n        /* \"Evm/zk/balance_verifier.sol\":20655:20656  f */\n      dup6\n        /* \"Evm/zk/balance_verifier.sol\":20639:20653  PRECOMPILE_ADD */\n      0x06\n        /* \"Evm/zk/balance_verifier.sol\":20632:20637  gas() */\n      gas\n        /* \"Evm/zk/balance_verifier.sol\":20621:20672  staticcall(gas(), PRECOMPILE_ADD, f, 0x80, f, 0x40) */\n      staticcall\n        /* \"Evm/zk/balance_verifier.sol\":20612:20619  success */\n      dup5\n        /* \"Evm/zk/balance_verifier.sol\":20608:20673  and(success, staticcall(gas(), PRECOMPILE_ADD, f, 0x80, f, 0x40)) */\n      and\n        /* \"Evm/zk/balance_verifier.sol\":20597:20673  success := and(success, staticcall(gas(), PRECOMPILE_ADD, f, 0x80, f, 0x40)) */\n      swap4\n      pop\n        /* \"Evm/zk/balance_verifier.sol\":20697:20704  PUB_5_X */\n      0x0c5fc71213ff8dfb619367f7490666f29d57404508d55526cd035cefd7a497f9\n        /* \"Evm/zk/balance_verifier.sol\":20694:20695  g */\n      dup3\n        /* \"Evm/zk/balance_verifier.sol\":20687:20705  mstore(g, PUB_5_X) */\n      mstore\n        /* \"Evm/zk/balance_verifier.sol\":20740:20747  PUB_5_Y */\n      0x07e68ccd70ee91aa4a100036a19944eb04d654e65d2a83e496dc70372b880818\n        /* \"Evm/zk/balance_verifier.sol\":20733:20737  0x20 */\n      0x20\n        /* \"Evm/zk/balance_verifier.sol\":20730:20731  g */\n      dup4\n        /* \"Evm/zk/balance_verifier.sol\":20726:20738  add(g, 0x20) */\n      add\n        /* \"Evm/zk/balance_verifier.sol\":20719:20748  mstore(add(g, 0x20), PUB_5_Y) */\n      mstore\n        /* \"Evm/zk/balance_verifier.sol\":20792:20795  160 */\n      0xa0\n        /* \"Evm/zk/balance_verifier.sol\":20785:20790  input */\n      dup8\n        /* \"Evm/zk/balance_verifier.sol\":20781:20796  add(input, 160) */\n      add\n        /* \"Evm/zk/balance_verifier.sol\":20768:20797  calldataload(add(input, 160)) */\n      calldataload\n        /* \"Evm/zk/balance_verifier.sol\":20762:20797  s :=  calldataload(add(input, 160)) */\n      swap1\n      pop\n        /* \"Evm/zk/balance_verifier.sol\":20832:20833  s */\n      dup1\n        /* \"Evm/zk/balance_verifier.sol\":20825:20829  0x40 */\n      0x40\n        /* \"Evm/zk/balance_verifier.sol\":20822:20823  g */\n      dup4\n        /* \"Evm/zk/balance_verifier.sol\":20818:20830  add(g, 0x40) */\n      add\n        /* \"Evm/zk/balance_verifier.sol\":20811:20834  mstore(add(g, 0x40), s) */\n      mstore\n        /* \"Evm/zk/balance_verifier.sol\":20878:20879  R */\n      0x30644e72e131a029b85045b68181585d2833e84879b9709143e1f593f0000001\n        /* \"Evm/zk/balance_verifier.sol\":20875:20876  s */\n      dup2\n        /* \"Evm/zk/balance_verifier.sol\":20872:20880  lt(s, R) */\n      lt\n        /* \"Evm/zk/balance_verifier.sol\":20863:20870  success */\n      dup5\n        /* \"Evm/zk/balance_verifier.sol\":20859:20881  and(success, lt(s, R)) */\n      and\n        /* \"Evm/zk/balance_verifier.sol\":20848:20881  success := and(success, lt(s, R)) */\n      swap4\n      pop\n        /* \"Evm/zk/balance_verifier.sol\":20965:20969  0x40 */\n      0x40\n        /* \"Evm/zk/balance_verifier.sol\":20962:20963  g */\n      dup3\n        /* \"Evm/zk/balance_verifier.sol\":20956:20960  0x60 */\n      0x60\n        /* \"Evm/zk/balance_verifier.sol\":20953:20954  g */\n      dup5\n        /* \"Evm/zk/balance_verifier.sol\":20937:20951  PRECOMPILE_MUL */\n      0x07\n        /* \"Evm/zk/balance_verifier.sol\":20930:20935  gas() */\n      gas\n        /* \"Evm/zk/balance_verifier.sol\":20919:20970  staticcall(gas(), PRECOMPILE_MUL, g, 0x60, g, 0x40) */\n      staticcall\n        /* \"Evm/zk/balance_verifier.sol\":20910:20917  success */\n      dup5\n        /* \"Evm/zk/balance_verifier.sol\":20906:20971  and(success, staticcall(gas(), PRECOMPILE_MUL, g, 0x60, g, 0x40)) */\n      and\n        /* \"Evm/zk/balance_verifier.sol\":20895:20971  success := and(success, staticcall(gas(), PRECOMPILE_MUL, g, 0x60, g, 0x40)) */\n      swap4\n      pop\n        /* \"Evm/zk/balance_verifier.sol\":21055:21059  0x40 */\n      0x40\n        /* \"Evm/zk/balance_verifier.sol\":21052:21053  f */\n      dup4\n        /* \"Evm/zk/balance_verifier.sol\":21046:21050  0x80 */\n      0x80\n        /* \"Evm/zk/balance_verifier.sol\":21043:21044  f */\n      dup6\n        /* \"Evm/zk/balance_verifier.sol\":21027:21041  PRECOMPILE_ADD */\n      0x06\n        /* \"Evm/zk/balance_verifier.sol\":21020:21025  gas() */\n      gas\n        /* \"Evm/zk/balance_verifier.sol\":21009:21060  staticcall(gas(), PRECOMPILE_ADD, f, 0x80, f, 0x40) */\n      staticcall\n        /* \"Evm/zk/balance_verifier.sol\":21000:21007  success */\n      dup5\n        /* \"Evm/zk/balance_verifier.sol\":20996:21061  and(success, staticcall(gas(), PRECOMPILE_ADD, f, 0x80, f, 0x40)) */\n      and\n        /* \"Evm/zk/balance_verifier.sol\":20985:21061  success := and(success, staticcall(gas(), PRECOMPILE_ADD, f, 0x80, f, 0x40)) */\n      swap4\n      pop\n        /* \"Evm/zk/balance_verifier.sol\":21088:21089  f */\n      dup3\n        /* \"Evm/zk/balance_verifier.sol\":21082:21090  mload(f) */\n      mload\n        /* \"Evm/zk/balance_verifier.sol\":21077:21090  x := mload(f) */\n      swap6\n      pop\n        /* \"Evm/zk/balance_verifier.sol\":21122:21126  0x20 */\n      0x20\n        /* \"Evm/zk/balance_verifier.sol\":21119:21120  f */\n      dup4\n        /* \"Evm/zk/balance_verifier.sol\":21115:21127  add(f, 0x20) */\n      add\n        /* \"Evm/zk/balance_verifier.sol\":21109:21128  mload(add(f, 0x20)) */\n      mload\n        /* \"Evm/zk/balance_verifier.sol\":21104:21128  y := mload(add(f, 0x20)) */\n      swap5\n      pop\n        /* \"Evm/zk/balance_verifier.sol\":18576:21139  {... */\n      pop\n      pop\n      pop\n        /* \"Evm/zk/balance_verifier.sol\":21154:21161  success */\n      dup1\n        /* \"Evm/zk/balance_verifier.sol\":21149:21396  if (!success) {... */\n      tag_209\n      jumpi\n        /* \"Evm/zk/balance_verifier.sol\":21361:21384  PublicInputNotInField() */\n      mload(0x40)\n      0xa54f8e2700000000000000000000000000000000000000000000000000000000\n      dup2\n      mstore\n      0x04\n      add\n      mload(0x40)\n      dup1\n      swap2\n      sub\n      swap1\n      revert\n        /* \"Evm/zk/balance_verifier.sol\":21149:21396  if (!success) {... */\n    tag_209:\n        /* \"Evm/zk/balance_verifier.sol\":17909:21403  {... */\n      pop\n        /* \"Evm/zk/balance_verifier.sol\":17808:21403  function publicInputMSM(uint256[6] calldata input)... */\n      swap2\n      pop\n      swap2\n      jump\t// out\n        /* \"Evm/zk/balance_verifier.sol\":11756:12653  function decompress_g1(uint256 c) internal view returns (uint256 x, uint256 y) {... */\n    tag_63:\n        /* \"Evm/zk/balance_verifier.sol\":11813:11822  uint256 x */\n      0x00\n        /* \"Evm/zk/balance_verifier.sol\":11824:11833  uint256 y */\n      0x00\n        /* \"Evm/zk/balance_verifier.sol\":12003:12004  0 */\n      0x00\n        /* \"Evm/zk/balance_verifier.sol\":11998:11999  c */\n      dup4\n        /* \"Evm/zk/balance_verifier.sol\":11998:12004  c == 0 */\n      sub\n        /* \"Evm/zk/balance_verifier.sol\":11994:12113  if (c == 0) {... */\n      tag_211\n      jumpi\n        /* \"Evm/zk/balance_verifier.sol\":12096:12097  0 */\n      0x00\n        /* \"Evm/zk/balance_verifier.sol\":12099:12100  0 */\n      0x00\n        /* \"Evm/zk/balance_verifier.sol\":12088:12101  return (0, 0) */\n      swap2\n      pop\n      swap2\n      pop\n      jump(tag_210)\n        /* \"Evm/zk/balance_verifier.sol\":11994:12113  if (c == 0) {... */\n    tag_211:\n        /* \"Evm/zk/balance_verifier.sol\":12123:12140  bool negate_point */\n      0x00\n        /* \"Evm/zk/balance_verifier.sol\":12152:12153  1 */\n      0x01\n        /* \"Evm/zk/balance_verifier.sol\":12147:12148  1 */\n      dup1\n        /* \"Evm/zk/balance_verifier.sol\":12143:12144  c */\n      dup6\n        /* \"Evm/zk/balance_verifier.sol\":12143:12148  c & 1 */\n      and\n        /* \"Evm/zk/balance_verifier.sol\":12143:12153  c & 1 == 1 */\n      eq\n        /* \"Evm/zk/balance_verifier.sol\":12123:12153  bool negate_point = c & 1 == 1 */\n      swap1\n      pop\n        /* \"Evm/zk/balance_verifier.sol\":12173:12174  1 */\n      0x01\n        /* \"Evm/zk/balance_verifier.sol\":12168:12169  c */\n      dup5\n        /* \"Evm/zk/balance_verifier.sol\":12168:12174  c >> 1 */\n      swap1\n      shr\n        /* \"Evm/zk/balance_verifier.sol\":12164:12174  x = c >> 1 */\n      swap3\n      pop\n        /* \"Evm/zk/balance_verifier.sol\":1423:1489  0x30644e72e131a029b85045b68181585d97816a916871ca8d3c208c16d87cfd47 */\n      0x30644e72e131a029b85045b68181585d97816a916871ca8d3c208c16d87cfd47\n        /* \"Evm/zk/balance_verifier.sol\":12189:12190  x */\n      dup4\n        /* \"Evm/zk/balance_verifier.sol\":12189:12195  x >= P */\n      lt\n        /* \"Evm/zk/balance_verifier.sol\":12185:12291  if (x >= P) {... */\n      tag_212\n      jumpi\n        /* \"Evm/zk/balance_verifier.sol\":12265:12279  ProofInvalid() */\n      mload(0x40)\n      0x7fcdd1f400000000000000000000000000000000000000000000000000000000\n      dup2\n      mstore\n      0x04\n      add\n      mload(0x40)\n      dup1\n      swap2\n      sub\n      swap1\n      revert\n        /* \"Evm/zk/balance_verifier.sol\":12185:12291  if (x >= P) {... */\n    tag_212:\n        /* \"Evm/zk/balance_verifier.sol\":12525:12577  sqrt_Fp(addmod(mulmod(mulmod(x, x, P), x, P), 3, P)) */\n      tag_213\n        /* \"Evm/zk/balance_verifier.sol\":1423:1489  0x30644e72e131a029b85045b68181585d97816a916871ca8d3c208c16d87cfd47 */\n      0x30644e72e131a029b85045b68181585d97816a916871ca8d3c208c16d87cfd47\n        /* \"Evm/zk/balance_verifier.sol\":12533:12576  addmod(mulmod(mulmod(x, x, P), x, P), 3, P) */\n      dup1\n      tag_214\n      jumpi\n      tag_215\n      tag_136\n      jump\t// in\n    tag_215:\n    tag_214:\n        /* \"Evm/zk/balance_verifier.sol\":12571:12572  3 */\n      0x03\n        /* \"Evm/zk/balance_verifier.sol\":1423:1489  0x30644e72e131a029b85045b68181585d97816a916871ca8d3c208c16d87cfd47 */\n      0x30644e72e131a029b85045b68181585d97816a916871ca8d3c208c16d87cfd47\n        /* \"Evm/zk/balance_verifier.sol\":12540:12569  mulmod(mulmod(x, x, P), x, P) */\n      dup1\n      tag_216\n      jumpi\n      tag_217\n      tag_136\n      jump\t// in\n    tag_217:\n    tag_216:\n        /* \"Evm/zk/balance_verifier.sol\":12564:12565  x */\n      dup7\n        /* \"Evm/zk/balance_verifier.sol\":1423:1489  0x30644e72e131a029b85045b68181585d97816a916871ca8d3c208c16d87cfd47 */\n      0x30644e72e131a029b85045b68181585d97816a916871ca8d3c208c16d87cfd47\n        /* \"Evm/zk/balance_verifier.sol\":12547:12562  mulmod(x, x, P) */\n      dup1\n      tag_218\n      jumpi\n      tag_219\n      tag_136\n      jump\t// in\n    tag_219:\n    tag_218:\n        /* \"Evm/zk/balance_verifier.sol\":12557:12558  x */\n      dup9\n        /* \"Evm/zk/balance_verifier.sol\":12554:12555  x */\n      dup10\n        /* \"Evm/zk/balance_verifier.sol\":12547:12562  mulmod(x, x, P) */\n      mulmod\n        /* \"Evm/zk/balance_verifier.sol\":12540:12569  mulmod(mulmod(x, x, P), x, P) */\n      mulmod\n        /* \"Evm/zk/balance_verifier.sol\":12533:12576  addmod(mulmod(mulmod(x, x, P), x, P), 3, P) */\n      addmod\n        /* \"Evm/zk/balance_verifier.sol\":12525:12532  sqrt_Fp */\n      tag_141\n        /* \"Evm/zk/balance_verifier.sol\":12525:12577  sqrt_Fp(addmod(mulmod(mulmod(x, x, P), x, P), 3, P)) */\n      jump\t// in\n    tag_213:\n        /* \"Evm/zk/balance_verifier.sol\":12521:12577  y = sqrt_Fp(addmod(mulmod(mulmod(x, x, P), x, P), 3, P)) */\n      swap2\n      pop\n        /* \"Evm/zk/balance_verifier.sol\":12592:12604  negate_point */\n      dup1\n        /* \"Evm/zk/balance_verifier.sol\":12588:12646  if (negate_point) {... */\n      iszero\n      tag_220\n      jumpi\n        /* \"Evm/zk/balance_verifier.sol\":12625:12634  negate(y) */\n      tag_221\n        /* \"Evm/zk/balance_verifier.sol\":12632:12633  y */\n      dup3\n        /* \"Evm/zk/balance_verifier.sol\":12625:12631  negate */\n      tag_145\n        /* \"Evm/zk/balance_verifier.sol\":12625:12634  negate(y) */\n      jump\t// in\n    tag_221:\n        /* \"Evm/zk/balance_verifier.sol\":12621:12634  y = negate(y) */\n      swap2\n      pop\n        /* \"Evm/zk/balance_verifier.sol\":12588:12646  if (negate_point) {... */\n    tag_220:\n        /* \"Evm/zk/balance_verifier.sol\":11835:12653  {... */\n      pop\n        /* \"Evm/zk/balance_verifier.sol\":11756:12653  function decompress_g1(uint256 c) internal view returns (uint256 x, uint256 y) {... */\n    tag_210:\n      swap2\n      pop\n      swap2\n      jump\t// out\n        /* \"Evm/zk/balance_verifier.sol\":15889:17300  function decompress_g2(uint256 c0, uint256 c1)... */\n    tag_69:\n        /* \"Evm/zk/balance_verifier.sol\":15964:15974  uint256 x0 */\n      0x00\n        /* \"Evm/zk/balance_verifier.sol\":15976:15986  uint256 x1 */\n      0x00\n        /* \"Evm/zk/balance_verifier.sol\":15988:15998  uint256 y0 */\n      0x00\n        /* \"Evm/zk/balance_verifier.sol\":16000:16010  uint256 y1 */\n      0x00\n        /* \"Evm/zk/balance_verifier.sol\":16190:16191  0 */\n      0x00\n        /* \"Evm/zk/balance_verifier.sol\":16184:16186  c0 */\n      dup7\n        /* \"Evm/zk/balance_verifier.sol\":16184:16191  c0 == 0 */\n      eq\n        /* \"Evm/zk/balance_verifier.sol\":16184:16202  c0 == 0 && c1 == 0 */\n      dup1\n      iszero\n      tag_223\n      jumpi\n      pop\n        /* \"Evm/zk/balance_verifier.sol\":16201:16202  0 */\n      0x00\n        /* \"Evm/zk/balance_verifier.sol\":16195:16197  c1 */\n      dup6\n        /* \"Evm/zk/balance_verifier.sol\":16195:16202  c1 == 0 */\n      eq\n        /* \"Evm/zk/balance_verifier.sol\":16184:16202  c0 == 0 && c1 == 0 */\n    tag_223:\n        /* \"Evm/zk/balance_verifier.sol\":16180:16306  if (c0 == 0 && c1 == 0) {... */\n      iszero\n      tag_224\n      jumpi\n        /* \"Evm/zk/balance_verifier.sol\":16283:16284  0 */\n      0x00\n        /* \"Evm/zk/balance_verifier.sol\":16286:16287  0 */\n      0x00\n        /* \"Evm/zk/balance_verifier.sol\":16289:16290  0 */\n      0x00\n        /* \"Evm/zk/balance_verifier.sol\":16292:16293  0 */\n      0x00\n        /* \"Evm/zk/balance_verifier.sol\":16275:16294  return (0, 0, 0, 0) */\n      swap4\n      pop\n      swap4\n      pop\n      swap4\n      pop\n      swap4\n      pop\n      jump(tag_222)\n        /* \"Evm/zk/balance_verifier.sol\":16180:16306  if (c0 == 0 && c1 == 0) {... */\n    tag_224:\n        /* \"Evm/zk/balance_verifier.sol\":16316:16333  bool negate_point */\n      0x00\n        /* \"Evm/zk/balance_verifier.sol\":16346:16347  1 */\n      0x01\n        /* \"Evm/zk/balance_verifier.sol\":16341:16342  1 */\n      dup1\n        /* \"Evm/zk/balance_verifier.sol\":16336:16338  c0 */\n      dup9\n        /* \"Evm/zk/balance_verifier.sol\":16336:16342  c0 & 1 */\n      and\n        /* \"Evm/zk/balance_verifier.sol\":16336:16347  c0 & 1 == 1 */\n      eq\n        /* \"Evm/zk/balance_verifier.sol\":16316:16347  bool negate_point = c0 & 1 == 1 */\n      swap1\n      pop\n        /* \"Evm/zk/balance_verifier.sol\":16358:16367  bool hint */\n      0x00\n        /* \"Evm/zk/balance_verifier.sol\":16380:16381  2 */\n      0x02\n        /* \"Evm/zk/balance_verifier.sol\":16375:16376  2 */\n      dup1\n        /* \"Evm/zk/balance_verifier.sol\":16370:16372  c0 */\n      dup10\n        /* \"Evm/zk/balance_verifier.sol\":16370:16376  c0 & 2 */\n      and\n        /* \"Evm/zk/balance_verifier.sol\":16370:16381  c0 & 2 == 2 */\n      eq\n        /* \"Evm/zk/balance_verifier.sol\":16358:16381  bool hint = c0 & 2 == 2 */\n      swap1\n      pop\n        /* \"Evm/zk/balance_verifier.sol\":16403:16404  2 */\n      0x02\n        /* \"Evm/zk/balance_verifier.sol\":16397:16399  c0 */\n      dup9\n        /* \"Evm/zk/balance_verifier.sol\":16397:16404  c0 >> 2 */\n      swap1\n      shr\n        /* \"Evm/zk/balance_verifier.sol\":16392:16404  x0 = c0 >> 2 */\n      swap6\n      pop\n        /* \"Evm/zk/balance_verifier.sol\":16420:16422  c1 */\n      dup7\n        /* \"Evm/zk/balance_verifier.sol\":16415:16422  x1 = c1 */\n      swap5\n      pop\n        /* \"Evm/zk/balance_verifier.sol\":1423:1489  0x30644e72e131a029b85045b68181585d97816a916871ca8d3c208c16d87cfd47 */\n      0x30644e72e131a029b85045b68181585d97816a916871ca8d3c208c16d87cfd47\n        /* \"Evm/zk/balance_verifier.sol\":16437:16439  x0 */\n      dup7\n        /* \"Evm/zk/balance_verifier.sol\":16437:16444  x0 >= P */\n      lt\n      iszero\n        /* \"Evm/zk/balance_verifier.sol\":16437:16455  x0 >= P || x1 >= P */\n      dup1\n      tag_225\n      jumpi\n      pop\n        /* \"Evm/zk/balance_verifier.sol\":1423:1489  0x30644e72e131a029b85045b68181585d97816a916871ca8d3c208c16d87cfd47 */\n      0x30644e72e131a029b85045b68181585d97816a916871ca8d3c208c16d87cfd47\n        /* \"Evm/zk/balance_verifier.sol\":16448:16450  x1 */\n      dup6\n        /* \"Evm/zk/balance_verifier.sol\":16448:16455  x1 >= P */\n      lt\n      iszero\n        /* \"Evm/zk/balance_verifier.sol\":16437:16455  x0 >= P || x1 >= P */\n    tag_225:\n        /* \"Evm/zk/balance_verifier.sol\":16433:16559  if (x0 >= P || x1 >= P) {... */\n      iszero\n      tag_226\n      jumpi\n        /* \"Evm/zk/balance_verifier.sol\":16533:16547  ProofInvalid() */\n      mload(0x40)\n      0x7fcdd1f400000000000000000000000000000000000000000000000000000000\n      dup2\n      mstore\n      0x04\n      add\n      mload(0x40)\n      dup1\n      swap2\n      sub\n      swap1\n      revert\n        /* \"Evm/zk/balance_verifier.sol\":16433:16559  if (x0 >= P || x1 >= P) {... */\n    tag_226:\n        /* \"Evm/zk/balance_verifier.sol\":16571:16583  uint256 n3ab */\n      0x00\n        /* \"Evm/zk/balance_verifier.sol\":1423:1489  0x30644e72e131a029b85045b68181585d97816a916871ca8d3c208c16d87cfd47 */\n      0x30644e72e131a029b85045b68181585d97816a916871ca8d3c208c16d87cfd47\n        /* \"Evm/zk/balance_verifier.sol\":16586:16619  mulmod(mulmod(x0, x1, P), P-3, P) */\n      dup1\n      tag_227\n      jumpi\n      tag_228\n      tag_136\n      jump\t// in\n    tag_228:\n    tag_227:\n        /* \"Evm/zk/balance_verifier.sol\":16614:16615  3 */\n      0x03\n        /* \"Evm/zk/balance_verifier.sol\":1423:1489  0x30644e72e131a029b85045b68181585d97816a916871ca8d3c208c16d87cfd47 */\n      0x30644e72e131a029b85045b68181585d97816a916871ca8d3c208c16d87cfd47\n        /* \"Evm/zk/balance_verifier.sol\":16612:16615  P-3 */\n      tag_229\n      swap2\n      swap1\n      tag_157\n      jump\t// in\n    tag_229:\n        /* \"Evm/zk/balance_verifier.sol\":1423:1489  0x30644e72e131a029b85045b68181585d97816a916871ca8d3c208c16d87cfd47 */\n      0x30644e72e131a029b85045b68181585d97816a916871ca8d3c208c16d87cfd47\n        /* \"Evm/zk/balance_verifier.sol\":16593:16610  mulmod(x0, x1, P) */\n      dup1\n      tag_230\n      jumpi\n      tag_231\n      tag_136\n      jump\t// in\n    tag_231:\n    tag_230:\n        /* \"Evm/zk/balance_verifier.sol\":16604:16606  x1 */\n      dup9\n        /* \"Evm/zk/balance_verifier.sol\":16600:16602  x0 */\n      dup11\n        /* \"Evm/zk/balance_verifier.sol\":16593:16610  mulmod(x0, x1, P) */\n      mulmod\n        /* \"Evm/zk/balance_verifier.sol\":16586:16619  mulmod(mulmod(x0, x1, P), P-3, P) */\n      mulmod\n        /* \"Evm/zk/balance_verifier.sol\":16571:16619  uint256 n3ab = mulmod(mulmod(x0, x1, P), P-3, P) */\n      swap1\n      pop\n        /* \"Evm/zk/balance_verifier.sol\":16630:16641  uint256 a_3 */\n      0x00\n        /* \"Evm/zk/balance_verifier.sol\":1423:1489  0x30644e72e131a029b85045b68181585d97816a916871ca8d3c208c16d87cfd47 */\n      0x30644e72e131a029b85045b68181585d97816a916871ca8d3c208c16d87cfd47\n        /* \"Evm/zk/balance_verifier.sol\":16644:16676  mulmod(mulmod(x0, x0, P), x0, P) */\n      dup1\n      tag_232\n      jumpi\n      tag_233\n      tag_136\n      jump\t// in\n    tag_233:\n    tag_232:\n        /* \"Evm/zk/balance_verifier.sol\":16670:16672  x0 */\n      dup9\n        /* \"Evm/zk/balance_verifier.sol\":1423:1489  0x30644e72e131a029b85045b68181585d97816a916871ca8d3c208c16d87cfd47 */\n      0x30644e72e131a029b85045b68181585d97816a916871ca8d3c208c16d87cfd47\n        /* \"Evm/zk/balance_verifier.sol\":16651:16668  mulmod(x0, x0, P) */\n      dup1\n      tag_234\n      jumpi\n      tag_235\n      tag_136\n      jump\t// in\n    tag_235:\n    tag_234:\n        /* \"Evm/zk/balance_verifier.sol\":16662:16664  x0 */\n      dup11\n        /* \"Evm/zk/balance_verifier.sol\":16658:16660  x0 */\n      dup12\n        /* \"Evm/zk/balance_verifier.sol\":16651:16668  mulmod(x0, x0, P) */\n      mulmod\n        /* \"Evm/zk/balance_verifier.sol\":16644:16676  mulmod(mulmod(x0, x0, P), x0, P) */\n      mulmod\n        /* \"Evm/zk/balance_verifier.sol\":16630:16676  uint256 a_3 = mulmod(mulmod(x0, x0, P), x0, P) */\n      swap1\n      pop\n        /* \"Evm/zk/balance_verifier.sol\":16687:16698  uint256 b_3 */\n      0x00\n        /* \"Evm/zk/balance_verifier.sol\":1423:1489  0x30644e72e131a029b85045b68181585d97816a916871ca8d3c208c16d87cfd47 */\n      0x30644e72e131a029b85045b68181585d97816a916871ca8d3c208c16d87cfd47\n        /* \"Evm/zk/balance_verifier.sol\":16701:16733  mulmod(mulmod(x1, x1, P), x1, P) */\n      dup1\n      tag_236\n      jumpi\n      tag_237\n      tag_136\n      jump\t// in\n    tag_237:\n    tag_236:\n        /* \"Evm/zk/balance_verifier.sol\":16727:16729  x1 */\n      dup9\n        /* \"Evm/zk/balance_verifier.sol\":1423:1489  0x30644e72e131a029b85045b68181585d97816a916871ca8d3c208c16d87cfd47 */\n      0x30644e72e131a029b85045b68181585d97816a916871ca8d3c208c16d87cfd47\n        /* \"Evm/zk/balance_verifier.sol\":16708:16725  mulmod(x1, x1, P) */\n      dup1\n      tag_238\n      jumpi\n      tag_239\n      tag_136\n      jump\t// in\n    tag_239:\n    tag_238:\n        /* \"Evm/zk/balance_verifier.sol\":16719:16721  x1 */\n      dup11\n        /* \"Evm/zk/balance_verifier.sol\":16715:16717  x1 */\n      dup12\n        /* \"Evm/zk/balance_verifier.sol\":16708:16725  mulmod(x1, x1, P) */\n      mulmod\n        /* \"Evm/zk/balance_verifier.sol\":16701:16733  mulmod(mulmod(x1, x1, P), x1, P) */\n      mulmod\n        /* \"Evm/zk/balance_verifier.sol\":16687:16733  uint256 b_3 = mulmod(mulmod(x1, x1, P), x1, P) */\n      swap1\n      pop\n        /* \"Evm/zk/balance_verifier.sol\":1423:1489  0x30644e72e131a029b85045b68181585d97816a916871ca8d3c208c16d87cfd47 */\n      0x30644e72e131a029b85045b68181585d97816a916871ca8d3c208c16d87cfd47\n        /* \"Evm/zk/balance_verifier.sol\":16751:16816  addmod(FRACTION_27_82_FP, addmod(a_3, mulmod(n3ab, x1, P), P), P) */\n      dup1\n      tag_240\n      jumpi\n      tag_241\n      tag_136\n      jump\t// in\n    tag_241:\n    tag_240:\n        /* \"Evm/zk/balance_verifier.sol\":1423:1489  0x30644e72e131a029b85045b68181585d97816a916871ca8d3c208c16d87cfd47 */\n      0x30644e72e131a029b85045b68181585d97816a916871ca8d3c208c16d87cfd47\n        /* \"Evm/zk/balance_verifier.sol\":16777:16812  addmod(a_3, mulmod(n3ab, x1, P), P) */\n      dup1\n      tag_242\n      jumpi\n      tag_243\n      tag_136\n      jump\t// in\n    tag_243:\n    tag_242:\n        /* \"Evm/zk/balance_verifier.sol\":1423:1489  0x30644e72e131a029b85045b68181585d97816a916871ca8d3c208c16d87cfd47 */\n      0x30644e72e131a029b85045b68181585d97816a916871ca8d3c208c16d87cfd47\n        /* \"Evm/zk/balance_verifier.sol\":16789:16808  mulmod(n3ab, x1, P) */\n      dup1\n      tag_244\n      jumpi\n      tag_245\n      tag_136\n      jump\t// in\n    tag_245:\n    tag_244:\n        /* \"Evm/zk/balance_verifier.sol\":16802:16804  x1 */\n      dup11\n        /* \"Evm/zk/balance_verifier.sol\":16796:16800  n3ab */\n      dup7\n        /* \"Evm/zk/balance_verifier.sol\":16789:16808  mulmod(n3ab, x1, P) */\n      mulmod\n        /* \"Evm/zk/balance_verifier.sol\":16784:16787  a_3 */\n      dup5\n        /* \"Evm/zk/balance_verifier.sol\":16777:16812  addmod(a_3, mulmod(n3ab, x1, P), P) */\n      addmod\n        /* \"Evm/zk/balance_verifier.sol\":2254:2320  0x2b149d40ceb8aaae81be18991be06ac3b5b4c5e559dbefa33267e6dc24a138e5 */\n      0x2b149d40ceb8aaae81be18991be06ac3b5b4c5e559dbefa33267e6dc24a138e5\n        /* \"Evm/zk/balance_verifier.sol\":16751:16816  addmod(FRACTION_27_82_FP, addmod(a_3, mulmod(n3ab, x1, P), P), P) */\n      addmod\n        /* \"Evm/zk/balance_verifier.sol\":16746:16816  y0 = addmod(FRACTION_27_82_FP, addmod(a_3, mulmod(n3ab, x1, P), P), P) */\n      swap7\n      pop\n        /* \"Evm/zk/balance_verifier.sol\":16832:16905  negate(addmod(FRACTION_3_82_FP,  addmod(b_3, mulmod(n3ab, x0, P), P), P)) */\n      tag_246\n        /* \"Evm/zk/balance_verifier.sol\":1423:1489  0x30644e72e131a029b85045b68181585d97816a916871ca8d3c208c16d87cfd47 */\n      0x30644e72e131a029b85045b68181585d97816a916871ca8d3c208c16d87cfd47\n        /* \"Evm/zk/balance_verifier.sol\":16839:16904  addmod(FRACTION_3_82_FP,  addmod(b_3, mulmod(n3ab, x0, P), P), P) */\n      dup1\n      tag_247\n      jumpi\n      tag_248\n      tag_136\n      jump\t// in\n    tag_248:\n    tag_247:\n        /* \"Evm/zk/balance_verifier.sol\":1423:1489  0x30644e72e131a029b85045b68181585d97816a916871ca8d3c208c16d87cfd47 */\n      0x30644e72e131a029b85045b68181585d97816a916871ca8d3c208c16d87cfd47\n        /* \"Evm/zk/balance_verifier.sol\":16865:16900  addmod(b_3, mulmod(n3ab, x0, P), P) */\n      dup1\n      tag_249\n      jumpi\n      tag_250\n      tag_136\n      jump\t// in\n    tag_250:\n    tag_249:\n        /* \"Evm/zk/balance_verifier.sol\":1423:1489  0x30644e72e131a029b85045b68181585d97816a916871ca8d3c208c16d87cfd47 */\n      0x30644e72e131a029b85045b68181585d97816a916871ca8d3c208c16d87cfd47\n        /* \"Evm/zk/balance_verifier.sol\":16877:16896  mulmod(n3ab, x0, P) */\n      dup1\n      tag_251\n      jumpi\n      tag_252\n      tag_136\n      jump\t// in\n    tag_252:\n    tag_251:\n        /* \"Evm/zk/balance_verifier.sol\":16890:16892  x0 */\n      dup13\n        /* \"Evm/zk/balance_verifier.sol\":16884:16888  n3ab */\n      dup8\n        /* \"Evm/zk/balance_verifier.sol\":16877:16896  mulmod(n3ab, x0, P) */\n      mulmod\n        /* \"Evm/zk/balance_verifier.sol\":16872:16875  b_3 */\n      dup5\n        /* \"Evm/zk/balance_verifier.sol\":16865:16900  addmod(b_3, mulmod(n3ab, x0, P), P) */\n      addmod\n        /* \"Evm/zk/balance_verifier.sol\":2363:2429  0x2fcd3ac2a640a154eb23960892a85a68f031ca0c8344b23a577dcf1052b9e775 */\n      0x2fcd3ac2a640a154eb23960892a85a68f031ca0c8344b23a577dcf1052b9e775\n        /* \"Evm/zk/balance_verifier.sol\":16839:16904  addmod(FRACTION_3_82_FP,  addmod(b_3, mulmod(n3ab, x0, P), P), P) */\n      addmod\n        /* \"Evm/zk/balance_verifier.sol\":16832:16838  negate */\n      tag_145\n        /* \"Evm/zk/balance_verifier.sol\":16832:16905  negate(addmod(FRACTION_3_82_FP,  addmod(b_3, mulmod(n3ab, x0, P), P), P)) */\n      jump\t// in\n    tag_246:\n        /* \"Evm/zk/balance_verifier.sol\":16827:16905  y1 = negate(addmod(FRACTION_3_82_FP,  addmod(b_3, mulmod(n3ab, x0, P), P), P)) */\n      swap6\n      pop\n        /* \"Evm/zk/balance_verifier.sol\":17170:17192  sqrt_Fp2(y0, y1, hint) */\n      tag_253\n        /* \"Evm/zk/balance_verifier.sol\":17179:17181  y0 */\n      dup8\n        /* \"Evm/zk/balance_verifier.sol\":17183:17185  y1 */\n      dup8\n        /* \"Evm/zk/balance_verifier.sol\":17187:17191  hint */\n      dup7\n        /* \"Evm/zk/balance_verifier.sol\":17170:17178  sqrt_Fp2 */\n      tag_195\n        /* \"Evm/zk/balance_verifier.sol\":17170:17192  sqrt_Fp2(y0, y1, hint) */\n      jump\t// in\n    tag_253:\n        /* \"Evm/zk/balance_verifier.sol\":17159:17192  (y0, y1) = sqrt_Fp2(y0, y1, hint) */\n      dup1\n      swap8\n      pop\n      dup2\n      swap9\n      pop\n      pop\n      pop\n        /* \"Evm/zk/balance_verifier.sol\":17207:17219  negate_point */\n      dup5\n        /* \"Evm/zk/balance_verifier.sol\":17203:17293  if (negate_point) {... */\n      iszero\n      tag_254\n      jumpi\n        /* \"Evm/zk/balance_verifier.sol\":17241:17251  negate(y0) */\n      tag_255\n        /* \"Evm/zk/balance_verifier.sol\":17248:17250  y0 */\n      dup8\n        /* \"Evm/zk/balance_verifier.sol\":17241:17247  negate */\n      tag_145\n        /* \"Evm/zk/balance_verifier.sol\":17241:17251  negate(y0) */\n      jump\t// in\n    tag_255:\n        /* \"Evm/zk/balance_verifier.sol\":17236:17251  y0 = negate(y0) */\n      swap7\n      pop\n        /* \"Evm/zk/balance_verifier.sol\":17271:17281  negate(y1) */\n      tag_256\n        /* \"Evm/zk/balance_verifier.sol\":17278:17280  y1 */\n      dup7\n        /* \"Evm/zk/balance_verifier.sol\":17271:17277  negate */\n      tag_145\n        /* \"Evm/zk/balance_verifier.sol\":17271:17281  negate(y1) */\n      jump\t// in\n    tag_256:\n        /* \"Evm/zk/balance_verifier.sol\":17266:17281  y1 = negate(y1) */\n      swap6\n      pop\n        /* \"Evm/zk/balance_verifier.sol\":17203:17293  if (negate_point) {... */\n    tag_254:\n        /* \"Evm/zk/balance_verifier.sol\":16012:17300  {... */\n      pop\n      pop\n      pop\n      pop\n      pop\n        /* \"Evm/zk/balance_verifier.sol\":15889:17300  function decompress_g2(uint256 c0, uint256 c1)... */\n    tag_222:\n      swap3\n      swap6\n      swap2\n      swap5\n      pop\n      swap3\n      pop\n      jump\t// out\n        /* \"Evm/zk/balance_verifier.sol\":8100:8407  function sqrt_Fp(uint256 a) internal view returns (uint256 x) {... */\n    tag_141:\n        /* \"Evm/zk/balance_verifier.sol\":8151:8160  uint256 x */\n      0x00\n        /* \"Evm/zk/balance_verifier.sol\":8177:8196  exp(a, EXP_SQRT_FP) */\n      tag_258\n        /* \"Evm/zk/balance_verifier.sol\":8181:8182  a */\n      dup3\n        /* \"Evm/zk/balance_verifier.sol\":2641:2706  0xC19139CB84C680A6E14116DA060561765E05AA45A1C72A34F082305B61F3F52 */\n      0x0c19139cb84c680a6e14116da060561765e05aa45a1c72a34f082305b61f3f52\n        /* \"Evm/zk/balance_verifier.sol\":8177:8180  exp */\n      tag_259\n        /* \"Evm/zk/balance_verifier.sol\":8177:8196  exp(a, EXP_SQRT_FP) */\n      jump\t// in\n    tag_258:\n        /* \"Evm/zk/balance_verifier.sol\":8173:8196  x = exp(a, EXP_SQRT_FP) */\n      swap1\n      pop\n        /* \"Evm/zk/balance_verifier.sol\":8230:8231  a */\n      dup2\n        /* \"Evm/zk/balance_verifier.sol\":1423:1489  0x30644e72e131a029b85045b68181585d97816a916871ca8d3c208c16d87cfd47 */\n      0x30644e72e131a029b85045b68181585d97816a916871ca8d3c208c16d87cfd47\n        /* \"Evm/zk/balance_verifier.sol\":8211:8226  mulmod(x, x, P) */\n      dup1\n      tag_260\n      jumpi\n      tag_261\n      tag_136\n      jump\t// in\n    tag_261:\n    tag_260:\n        /* \"Evm/zk/balance_verifier.sol\":8221:8222  x */\n      dup3\n        /* \"Evm/zk/balance_verifier.sol\":8218:8219  x */\n      dup4\n        /* \"Evm/zk/balance_verifier.sol\":8211:8226  mulmod(x, x, P) */\n      mulmod\n        /* \"Evm/zk/balance_verifier.sol\":8211:8231  mulmod(x, x, P) != a */\n      eq\n        /* \"Evm/zk/balance_verifier.sol\":8207:8400  if (mulmod(x, x, P) != a) {... */\n      tag_262\n      jumpi\n        /* \"Evm/zk/balance_verifier.sol\":8374:8388  ProofInvalid() */\n      mload(0x40)\n      0x7fcdd1f400000000000000000000000000000000000000000000000000000000\n      dup2\n      mstore\n      0x04\n      add\n      mload(0x40)\n      dup1\n      swap2\n      sub\n      swap1\n      revert\n        /* \"Evm/zk/balance_verifier.sol\":8207:8400  if (mulmod(x, x, P) != a) {... */\n    tag_262:\n        /* \"Evm/zk/balance_verifier.sol\":8100:8407  function sqrt_Fp(uint256 a) internal view returns (uint256 x) {... */\n      swap2\n      swap1\n      pop\n      jump\t// out\n        /* \"Evm/zk/balance_verifier.sol\":6180:6353  function negate(uint256 a) internal pure returns (uint256 x) {... */\n    tag_145:\n        /* \"Evm/zk/balance_verifier.sol\":6230:6239  uint256 x */\n      0x00\n        /* \"Evm/zk/balance_verifier.sol\":1423:1489  0x30644e72e131a029b85045b68181585d97816a916871ca8d3c208c16d87cfd47 */\n      0x30644e72e131a029b85045b68181585d97816a916871ca8d3c208c16d87cfd47\n      dup1\n        /* \"Evm/zk/balance_verifier.sol\":6287:6288  a */\n      dup4\n        /* \"Evm/zk/balance_verifier.sol\":6287:6292  a % P */\n      dup2\n      tag_264\n      jumpi\n      tag_265\n      tag_136\n      jump\t// in\n    tag_265:\n    tag_264:\n      mod\n        /* \"Evm/zk/balance_verifier.sol\":1423:1489  0x30644e72e131a029b85045b68181585d97816a916871ca8d3c208c16d87cfd47 */\n      0x30644e72e131a029b85045b68181585d97816a916871ca8d3c208c16d87cfd47\n        /* \"Evm/zk/balance_verifier.sol\":6282:6293  P - (a % P) */\n      sub\n        /* \"Evm/zk/balance_verifier.sol\":6281:6298  (P - (a % P)) % P */\n      dup2\n      tag_266\n      jumpi\n      tag_267\n      tag_136\n      jump\t// in\n    tag_267:\n    tag_266:\n      mod\n        /* \"Evm/zk/balance_verifier.sol\":6277:6298  x = (P - (a % P)) % P */\n      swap1\n      pop\n        /* \"Evm/zk/balance_verifier.sol\":6180:6353  function negate(uint256 a) internal pure returns (uint256 x) {... */\n      swap2\n      swap1\n      pop\n      jump\t// out\n        /* \"Evm/zk/balance_verifier.sol\":8685:8834  function isSquare_Fp(uint256 a) internal view returns (bool) {... */\n    tag_193:\n        /* \"Evm/zk/balance_verifier.sol\":8740:8744  bool */\n      0x00\n        /* \"Evm/zk/balance_verifier.sol\":8757:8766  uint256 x */\n      0x00\n        /* \"Evm/zk/balance_verifier.sol\":8769:8788  exp(a, EXP_SQRT_FP) */\n      tag_269\n        /* \"Evm/zk/balance_verifier.sol\":8773:8774  a */\n      dup4\n        /* \"Evm/zk/balance_verifier.sol\":2641:2706  0xC19139CB84C680A6E14116DA060561765E05AA45A1C72A34F082305B61F3F52 */\n      0x0c19139cb84c680a6e14116da060561765e05aa45a1c72a34f082305b61f3f52\n        /* \"Evm/zk/balance_verifier.sol\":8769:8772  exp */\n      tag_259\n        /* \"Evm/zk/balance_verifier.sol\":8769:8788  exp(a, EXP_SQRT_FP) */\n      jump\t// in\n    tag_269:\n        /* \"Evm/zk/balance_verifier.sol\":8757:8788  uint256 x = exp(a, EXP_SQRT_FP) */\n      swap1\n      pop\n        /* \"Evm/zk/balance_verifier.sol\":8825:8826  a */\n      dup3\n        /* \"Evm/zk/balance_verifier.sol\":1423:1489  0x30644e72e131a029b85045b68181585d97816a916871ca8d3c208c16d87cfd47 */\n      0x30644e72e131a029b85045b68181585d97816a916871ca8d3c208c16d87cfd47\n        /* \"Evm/zk/balance_verifier.sol\":8806:8821  mulmod(x, x, P) */\n      dup1\n      tag_270\n      jumpi\n      tag_271\n      tag_136\n      jump\t// in\n    tag_271:\n    tag_270:\n        /* \"Evm/zk/balance_verifier.sol\":8816:8817  x */\n      dup3\n        /* \"Evm/zk/balance_verifier.sol\":8813:8814  x */\n      dup4\n        /* \"Evm/zk/balance_verifier.sol\":8806:8821  mulmod(x, x, P) */\n      mulmod\n        /* \"Evm/zk/balance_verifier.sol\":8806:8826  mulmod(x, x, P) == a */\n      eq\n        /* \"Evm/zk/balance_verifier.sol\":8799:8826  return mulmod(x, x, P) == a */\n      swap2\n      pop\n      pop\n        /* \"Evm/zk/balance_verifier.sol\":8685:8834  function isSquare_Fp(uint256 a) internal view returns (bool) {... */\n      swap2\n      swap1\n      pop\n      jump\t// out\n        /* \"Evm/zk/balance_verifier.sol\":9480:10287  function sqrt_Fp2(uint256 a0, uint256 a1, bool hint) internal view returns (uint256 x0, uint256 x1) {... */\n    tag_195:\n        /* \"Evm/zk/balance_verifier.sol\":9556:9566  uint256 x0 */\n      0x00\n        /* \"Evm/zk/balance_verifier.sol\":9568:9578  uint256 x1 */\n      0x00\n        /* \"Evm/zk/balance_verifier.sol\":9660:9669  uint256 d */\n      0x00\n        /* \"Evm/zk/balance_verifier.sol\":9672:9728  sqrt_Fp(addmod(mulmod(a0, a0, P), mulmod(a1, a1, P), P)) */\n      tag_273\n        /* \"Evm/zk/balance_verifier.sol\":1423:1489  0x30644e72e131a029b85045b68181585d97816a916871ca8d3c208c16d87cfd47 */\n      0x30644e72e131a029b85045b68181585d97816a916871ca8d3c208c16d87cfd47\n        /* \"Evm/zk/balance_verifier.sol\":9680:9727  addmod(mulmod(a0, a0, P), mulmod(a1, a1, P), P) */\n      dup1\n      tag_274\n      jumpi\n      tag_275\n      tag_136\n      jump\t// in\n    tag_275:\n    tag_274:\n        /* \"Evm/zk/balance_verifier.sol\":1423:1489  0x30644e72e131a029b85045b68181585d97816a916871ca8d3c208c16d87cfd47 */\n      0x30644e72e131a029b85045b68181585d97816a916871ca8d3c208c16d87cfd47\n        /* \"Evm/zk/balance_verifier.sol\":9706:9723  mulmod(a1, a1, P) */\n      dup1\n      tag_276\n      jumpi\n      tag_277\n      tag_136\n      jump\t// in\n    tag_277:\n    tag_276:\n        /* \"Evm/zk/balance_verifier.sol\":9717:9719  a1 */\n      dup8\n        /* \"Evm/zk/balance_verifier.sol\":9713:9715  a1 */\n      dup9\n        /* \"Evm/zk/balance_verifier.sol\":9706:9723  mulmod(a1, a1, P) */\n      mulmod\n        /* \"Evm/zk/balance_verifier.sol\":1423:1489  0x30644e72e131a029b85045b68181585d97816a916871ca8d3c208c16d87cfd47 */\n      0x30644e72e131a029b85045b68181585d97816a916871ca8d3c208c16d87cfd47\n        /* \"Evm/zk/balance_verifier.sol\":9687:9704  mulmod(a0, a0, P) */\n      dup1\n      tag_278\n      jumpi\n      tag_279\n      tag_136\n      jump\t// in\n    tag_279:\n    tag_278:\n        /* \"Evm/zk/balance_verifier.sol\":9698:9700  a0 */\n      dup10\n        /* \"Evm/zk/balance_verifier.sol\":9694:9696  a0 */\n      dup11\n        /* \"Evm/zk/balance_verifier.sol\":9687:9704  mulmod(a0, a0, P) */\n      mulmod\n        /* \"Evm/zk/balance_verifier.sol\":9680:9727  addmod(mulmod(a0, a0, P), mulmod(a1, a1, P), P) */\n      addmod\n        /* \"Evm/zk/balance_verifier.sol\":9672:9679  sqrt_Fp */\n      tag_141\n        /* \"Evm/zk/balance_verifier.sol\":9672:9728  sqrt_Fp(addmod(mulmod(a0, a0, P), mulmod(a1, a1, P), P)) */\n      jump\t// in\n    tag_273:\n        /* \"Evm/zk/balance_verifier.sol\":9660:9728  uint256 d = sqrt_Fp(addmod(mulmod(a0, a0, P), mulmod(a1, a1, P), P)) */\n      swap1\n      pop\n        /* \"Evm/zk/balance_verifier.sol\":9743:9747  hint */\n      dup4\n        /* \"Evm/zk/balance_verifier.sol\":9739:9789  if (hint) {... */\n      iszero\n      tag_280\n      jumpi\n        /* \"Evm/zk/balance_verifier.sol\":9768:9777  negate(d) */\n      tag_281\n        /* \"Evm/zk/balance_verifier.sol\":9775:9776  d */\n      dup2\n        /* \"Evm/zk/balance_verifier.sol\":9768:9774  negate */\n      tag_145\n        /* \"Evm/zk/balance_verifier.sol\":9768:9777  negate(d) */\n      jump\t// in\n    tag_281:\n        /* \"Evm/zk/balance_verifier.sol\":9764:9777  d = negate(d) */\n      swap1\n      pop\n        /* \"Evm/zk/balance_verifier.sol\":9739:9789  if (hint) {... */\n    tag_280:\n        /* \"Evm/zk/balance_verifier.sol\":9873:9926  sqrt_Fp(mulmod(addmod(a0, d, P), FRACTION_1_2_FP, P)) */\n      tag_282\n        /* \"Evm/zk/balance_verifier.sol\":1423:1489  0x30644e72e131a029b85045b68181585d97816a916871ca8d3c208c16d87cfd47 */\n      0x30644e72e131a029b85045b68181585d97816a916871ca8d3c208c16d87cfd47\n        /* \"Evm/zk/balance_verifier.sol\":9881:9925  mulmod(addmod(a0, d, P), FRACTION_1_2_FP, P) */\n      dup1\n      tag_283\n      jumpi\n      tag_284\n      tag_136\n      jump\t// in\n    tag_284:\n    tag_283:\n        /* \"Evm/zk/balance_verifier.sol\":2144:2210  0x183227397098d014dc2822db40c0ac2ecbc0b548b438e5469e10460b6c3e7ea4 */\n      0x183227397098d014dc2822db40c0ac2ecbc0b548b438e5469e10460b6c3e7ea4\n        /* \"Evm/zk/balance_verifier.sol\":1423:1489  0x30644e72e131a029b85045b68181585d97816a916871ca8d3c208c16d87cfd47 */\n      0x30644e72e131a029b85045b68181585d97816a916871ca8d3c208c16d87cfd47\n        /* \"Evm/zk/balance_verifier.sol\":9888:9904  addmod(a0, d, P) */\n      dup1\n      tag_285\n      jumpi\n      tag_286\n      tag_136\n      jump\t// in\n    tag_286:\n    tag_285:\n        /* \"Evm/zk/balance_verifier.sol\":9899:9900  d */\n      dup5\n        /* \"Evm/zk/balance_verifier.sol\":9895:9897  a0 */\n      dup11\n        /* \"Evm/zk/balance_verifier.sol\":9888:9904  addmod(a0, d, P) */\n      addmod\n        /* \"Evm/zk/balance_verifier.sol\":9881:9925  mulmod(addmod(a0, d, P), FRACTION_1_2_FP, P) */\n      mulmod\n        /* \"Evm/zk/balance_verifier.sol\":9873:9880  sqrt_Fp */\n      tag_141\n        /* \"Evm/zk/balance_verifier.sol\":9873:9926  sqrt_Fp(mulmod(addmod(a0, d, P), FRACTION_1_2_FP, P)) */\n      jump\t// in\n    tag_282:\n        /* \"Evm/zk/balance_verifier.sol\":9868:9926  x0 = sqrt_Fp(mulmod(addmod(a0, d, P), FRACTION_1_2_FP, P)) */\n      swap3\n      pop\n        /* \"Evm/zk/balance_verifier.sol\":1423:1489  0x30644e72e131a029b85045b68181585d97816a916871ca8d3c208c16d87cfd47 */\n      0x30644e72e131a029b85045b68181585d97816a916871ca8d3c208c16d87cfd47\n        /* \"Evm/zk/balance_verifier.sol\":9942:9984  mulmod(a1, invert_Fp(mulmod(x0, 2, P)), P) */\n      dup1\n      tag_287\n      jumpi\n      tag_288\n      tag_136\n      jump\t// in\n    tag_288:\n    tag_287:\n        /* \"Evm/zk/balance_verifier.sol\":9953:9980  invert_Fp(mulmod(x0, 2, P)) */\n      tag_289\n        /* \"Evm/zk/balance_verifier.sol\":1423:1489  0x30644e72e131a029b85045b68181585d97816a916871ca8d3c208c16d87cfd47 */\n      0x30644e72e131a029b85045b68181585d97816a916871ca8d3c208c16d87cfd47\n        /* \"Evm/zk/balance_verifier.sol\":9963:9979  mulmod(x0, 2, P) */\n      dup1\n      tag_290\n      jumpi\n      tag_291\n      tag_136\n      jump\t// in\n    tag_291:\n    tag_290:\n        /* \"Evm/zk/balance_verifier.sol\":9974:9975  2 */\n      0x02\n        /* \"Evm/zk/balance_verifier.sol\":9970:9972  x0 */\n      dup7\n        /* \"Evm/zk/balance_verifier.sol\":9963:9979  mulmod(x0, 2, P) */\n      mulmod\n        /* \"Evm/zk/balance_verifier.sol\":9953:9962  invert_Fp */\n      tag_292\n        /* \"Evm/zk/balance_verifier.sol\":9953:9980  invert_Fp(mulmod(x0, 2, P)) */\n      jump\t// in\n    tag_289:\n        /* \"Evm/zk/balance_verifier.sol\":9949:9951  a1 */\n      dup7\n        /* \"Evm/zk/balance_verifier.sol\":9942:9984  mulmod(a1, invert_Fp(mulmod(x0, 2, P)), P) */\n      mulmod\n        /* \"Evm/zk/balance_verifier.sol\":9937:9984  x1 = mulmod(a1, invert_Fp(mulmod(x0, 2, P)), P) */\n      swap2\n      pop\n        /* \"Evm/zk/balance_verifier.sol\":1423:1489  0x30644e72e131a029b85045b68181585d97816a916871ca8d3c208c16d87cfd47 */\n      0x30644e72e131a029b85045b68181585d97816a916871ca8d3c208c16d87cfd47\n        /* \"Evm/zk/balance_verifier.sol\":10124:10179  addmod(mulmod(x0, x0, P), negate(mulmod(x1, x1, P)), P) */\n      dup1\n      tag_293\n      jumpi\n      tag_294\n      tag_136\n      jump\t// in\n    tag_294:\n    tag_293:\n        /* \"Evm/zk/balance_verifier.sol\":10150:10175  negate(mulmod(x1, x1, P)) */\n      tag_295\n        /* \"Evm/zk/balance_verifier.sol\":1423:1489  0x30644e72e131a029b85045b68181585d97816a916871ca8d3c208c16d87cfd47 */\n      0x30644e72e131a029b85045b68181585d97816a916871ca8d3c208c16d87cfd47\n        /* \"Evm/zk/balance_verifier.sol\":10157:10174  mulmod(x1, x1, P) */\n      dup1\n      tag_296\n      jumpi\n      tag_297\n      tag_136\n      jump\t// in\n    tag_297:\n    tag_296:\n        /* \"Evm/zk/balance_verifier.sol\":10168:10170  x1 */\n      dup5\n        /* \"Evm/zk/balance_verifier.sol\":10164:10166  x1 */\n      dup6\n        /* \"Evm/zk/balance_verifier.sol\":10157:10174  mulmod(x1, x1, P) */\n      mulmod\n        /* \"Evm/zk/balance_verifier.sol\":10150:10156  negate */\n      tag_145\n        /* \"Evm/zk/balance_verifier.sol\":10150:10175  negate(mulmod(x1, x1, P)) */\n      jump\t// in\n    tag_295:\n        /* \"Evm/zk/balance_verifier.sol\":1423:1489  0x30644e72e131a029b85045b68181585d97816a916871ca8d3c208c16d87cfd47 */\n      0x30644e72e131a029b85045b68181585d97816a916871ca8d3c208c16d87cfd47\n        /* \"Evm/zk/balance_verifier.sol\":10131:10148  mulmod(x0, x0, P) */\n      dup1\n      tag_298\n      jumpi\n      tag_299\n      tag_136\n      jump\t// in\n    tag_299:\n    tag_298:\n        /* \"Evm/zk/balance_verifier.sol\":10142:10144  x0 */\n      dup6\n        /* \"Evm/zk/balance_verifier.sol\":10138:10140  x0 */\n      dup7\n        /* \"Evm/zk/balance_verifier.sol\":10131:10148  mulmod(x0, x0, P) */\n      mulmod\n        /* \"Evm/zk/balance_verifier.sol\":10124:10179  addmod(mulmod(x0, x0, P), negate(mulmod(x1, x1, P)), P) */\n      addmod\n        /* \"Evm/zk/balance_verifier.sol\":10118:10120  a0 */\n      dup7\n        /* \"Evm/zk/balance_verifier.sol\":10118:10179  a0 != addmod(mulmod(x0, x0, P), negate(mulmod(x1, x1, P)), P) */\n      eq\n      iszero\n        /* \"Evm/zk/balance_verifier.sol\":10118:10230  a0 != addmod(mulmod(x0, x0, P), negate(mulmod(x1, x1, P)), P)... */\n      dup1\n      tag_300\n      jumpi\n      pop\n        /* \"Evm/zk/balance_verifier.sol\":1423:1489  0x30644e72e131a029b85045b68181585d97816a916871ca8d3c208c16d87cfd47 */\n      0x30644e72e131a029b85045b68181585d97816a916871ca8d3c208c16d87cfd47\n        /* \"Evm/zk/balance_verifier.sol\":10199:10230  mulmod(2, mulmod(x0, x1, P), P) */\n      dup1\n      tag_301\n      jumpi\n      tag_302\n      tag_136\n      jump\t// in\n    tag_302:\n    tag_301:\n        /* \"Evm/zk/balance_verifier.sol\":1423:1489  0x30644e72e131a029b85045b68181585d97816a916871ca8d3c208c16d87cfd47 */\n      0x30644e72e131a029b85045b68181585d97816a916871ca8d3c208c16d87cfd47\n        /* \"Evm/zk/balance_verifier.sol\":10209:10226  mulmod(x0, x1, P) */\n      dup1\n      tag_303\n      jumpi\n      tag_304\n      tag_136\n      jump\t// in\n    tag_304:\n    tag_303:\n        /* \"Evm/zk/balance_verifier.sol\":10220:10222  x1 */\n      dup4\n        /* \"Evm/zk/balance_verifier.sol\":10216:10218  x0 */\n      dup6\n        /* \"Evm/zk/balance_verifier.sol\":10209:10226  mulmod(x0, x1, P) */\n      mulmod\n        /* \"Evm/zk/balance_verifier.sol\":10206:10207  2 */\n      0x02\n        /* \"Evm/zk/balance_verifier.sol\":10199:10230  mulmod(2, mulmod(x0, x1, P), P) */\n      mulmod\n        /* \"Evm/zk/balance_verifier.sol\":10193:10195  a1 */\n      dup6\n        /* \"Evm/zk/balance_verifier.sol\":10193:10230  a1 != mulmod(2, mulmod(x0, x1, P), P) */\n      eq\n      iszero\n        /* \"Evm/zk/balance_verifier.sol\":10118:10230  a0 != addmod(mulmod(x0, x0, P), negate(mulmod(x1, x1, P)), P)... */\n    tag_300:\n        /* \"Evm/zk/balance_verifier.sol\":10114:10280  if (a0 != addmod(mulmod(x0, x0, P), negate(mulmod(x1, x1, P)), P)... */\n      iszero\n      tag_305\n      jumpi\n        /* \"Evm/zk/balance_verifier.sol\":10254:10268  ProofInvalid() */\n      mload(0x40)\n      0x7fcdd1f400000000000000000000000000000000000000000000000000000000\n      dup2\n      mstore\n      0x04\n      add\n      mload(0x40)\n      dup1\n      swap2\n      sub\n      swap1\n      revert\n        /* \"Evm/zk/balance_verifier.sol\":10114:10280  if (a0 != addmod(mulmod(x0, x0, P), negate(mulmod(x1, x1, P)), P)... */\n    tag_305:\n        /* \"Evm/zk/balance_verifier.sol\":9580:10287  {... */\n      pop\n        /* \"Evm/zk/balance_verifier.sol\":9480:10287  function sqrt_Fp2(uint256 a0, uint256 a1, bool hint) internal view returns (uint256 x0, uint256 x1) {... */\n      swap4\n      pop\n      swap4\n      swap2\n      pop\n      pop\n      jump\t// out\n        /* \"Evm/zk/balance_verifier.sol\":6599:7252  function exp(uint256 a, uint256 e) internal view returns (uint256 x) {... */\n    tag_259:\n        /* \"Evm/zk/balance_verifier.sol\":6657:6666  uint256 x */\n      0x00\n        /* \"Evm/zk/balance_verifier.sol\":6679:6691  bool success */\n      0x00\n        /* \"Evm/zk/balance_verifier.sol\":6757:6761  0x40 */\n      0x40\n        /* \"Evm/zk/balance_verifier.sol\":6751:6762  mload(0x40) */\n      mload\n        /* \"Evm/zk/balance_verifier.sol\":6786:6790  0x20 */\n      0x20\n        /* \"Evm/zk/balance_verifier.sol\":6783:6784  f */\n      dup2\n        /* \"Evm/zk/balance_verifier.sol\":6776:6791  mstore(f, 0x20) */\n      mstore\n        /* \"Evm/zk/balance_verifier.sol\":6826:6830  0x20 */\n      0x20\n        /* \"Evm/zk/balance_verifier.sol\":6819:6823  0x20 */\n      dup1\n        /* \"Evm/zk/balance_verifier.sol\":6816:6817  f */\n      dup3\n        /* \"Evm/zk/balance_verifier.sol\":6812:6824  add(f, 0x20) */\n      add\n        /* \"Evm/zk/balance_verifier.sol\":6805:6831  mstore(add(f, 0x20), 0x20) */\n      mstore\n        /* \"Evm/zk/balance_verifier.sol\":6866:6870  0x20 */\n      0x20\n        /* \"Evm/zk/balance_verifier.sol\":6859:6863  0x40 */\n      0x40\n        /* \"Evm/zk/balance_verifier.sol\":6856:6857  f */\n      dup3\n        /* \"Evm/zk/balance_verifier.sol\":6852:6864  add(f, 0x40) */\n      add\n        /* \"Evm/zk/balance_verifier.sol\":6845:6871  mstore(add(f, 0x40), 0x20) */\n      mstore\n        /* \"Evm/zk/balance_verifier.sol\":6906:6907  a */\n      dup5\n        /* \"Evm/zk/balance_verifier.sol\":6899:6903  0x60 */\n      0x60\n        /* \"Evm/zk/balance_verifier.sol\":6896:6897  f */\n      dup3\n        /* \"Evm/zk/balance_verifier.sol\":6892:6904  add(f, 0x60) */\n      add\n        /* \"Evm/zk/balance_verifier.sol\":6885:6908  mstore(add(f, 0x60), a) */\n      mstore\n        /* \"Evm/zk/balance_verifier.sol\":6943:6944  e */\n      dup4\n        /* \"Evm/zk/balance_verifier.sol\":6936:6940  0x80 */\n      0x80\n        /* \"Evm/zk/balance_verifier.sol\":6933:6934  f */\n      dup3\n        /* \"Evm/zk/balance_verifier.sol\":6929:6941  add(f, 0x80) */\n      add\n        /* \"Evm/zk/balance_verifier.sol\":6922:6945  mstore(add(f, 0x80), e) */\n      mstore\n        /* \"Evm/zk/balance_verifier.sol\":6980:6981  P */\n      0x30644e72e131a029b85045b68181585d97816a916871ca8d3c208c16d87cfd47\n        /* \"Evm/zk/balance_verifier.sol\":6973:6977  0xa0 */\n      0xa0\n        /* \"Evm/zk/balance_verifier.sol\":6970:6971  f */\n      dup3\n        /* \"Evm/zk/balance_verifier.sol\":6966:6978  add(f, 0xa0) */\n      add\n        /* \"Evm/zk/balance_verifier.sol\":6959:6982  mstore(add(f, 0xa0), P) */\n      mstore\n        /* \"Evm/zk/balance_verifier.sol\":7056:7060  0x20 */\n      0x20\n        /* \"Evm/zk/balance_verifier.sol\":7053:7054  f */\n      dup2\n        /* \"Evm/zk/balance_verifier.sol\":7047:7051  0xc0 */\n      0xc0\n        /* \"Evm/zk/balance_verifier.sol\":7044:7045  f */\n      dup4\n        /* \"Evm/zk/balance_verifier.sol\":7025:7042  PRECOMPILE_MODEXP */\n      0x05\n        /* \"Evm/zk/balance_verifier.sol\":7018:7023  gas() */\n      gas\n        /* \"Evm/zk/balance_verifier.sol\":7007:7061  staticcall(gas(), PRECOMPILE_MODEXP, f, 0xc0, f, 0x20) */\n      staticcall\n        /* \"Evm/zk/balance_verifier.sol\":6996:7061  success := staticcall(gas(), PRECOMPILE_MODEXP, f, 0xc0, f, 0x20) */\n      swap2\n      pop\n        /* \"Evm/zk/balance_verifier.sol\":7086:7087  f */\n      dup1\n        /* \"Evm/zk/balance_verifier.sol\":7080:7088  mload(f) */\n      mload\n        /* \"Evm/zk/balance_verifier.sol\":7075:7088  x := mload(f) */\n      swap3\n      pop\n        /* \"Evm/zk/balance_verifier.sol\":6727:7099  {... */\n      pop\n        /* \"Evm/zk/balance_verifier.sol\":7114:7121  success */\n      dup1\n        /* \"Evm/zk/balance_verifier.sol\":7109:7245  if (!success) {... */\n      tag_307\n      jumpi\n        /* \"Evm/zk/balance_verifier.sol\":7219:7233  ProofInvalid() */\n      mload(0x40)\n      0x7fcdd1f400000000000000000000000000000000000000000000000000000000\n      dup2\n      mstore\n      0x04\n      add\n      mload(0x40)\n      dup1\n      swap2\n      sub\n      swap1\n      revert\n        /* \"Evm/zk/balance_verifier.sol\":7109:7245  if (!success) {... */\n    tag_307:\n        /* \"Evm/zk/balance_verifier.sol\":6668:7252  {... */\n      pop\n        /* \"Evm/zk/balance_verifier.sol\":6599:7252  function exp(uint256 a, uint256 e) internal view returns (uint256 x) {... */\n      swap3\n      swap2\n      pop\n      pop\n      jump\t// out\n        /* \"Evm/zk/balance_verifier.sol\":7541:7837  function invert_Fp(uint256 a) internal view returns (uint256 x) {... */\n    tag_292:\n        /* \"Evm/zk/balance_verifier.sol\":7594:7603  uint256 x */\n      0x00\n        /* \"Evm/zk/balance_verifier.sol\":7620:7642  exp(a, EXP_INVERSE_FP) */\n      tag_309\n        /* \"Evm/zk/balance_verifier.sol\":7624:7625  a */\n      dup3\n        /* \"Evm/zk/balance_verifier.sol\":2528:2594  0x30644E72E131A029B85045B68181585D97816A916871CA8D3C208C16D87CFD45 */\n      0x30644e72e131a029b85045b68181585d97816a916871ca8d3c208c16d87cfd45\n        /* \"Evm/zk/balance_verifier.sol\":7620:7623  exp */\n      tag_259\n        /* \"Evm/zk/balance_verifier.sol\":7620:7642  exp(a, EXP_INVERSE_FP) */\n      jump\t// in\n    tag_309:\n        /* \"Evm/zk/balance_verifier.sol\":7616:7642  x = exp(a, EXP_INVERSE_FP) */\n      swap1\n      pop\n        /* \"Evm/zk/balance_verifier.sol\":7676:7677  1 */\n      0x01\n        /* \"Evm/zk/balance_verifier.sol\":1423:1489  0x30644e72e131a029b85045b68181585d97816a916871ca8d3c208c16d87cfd47 */\n      0x30644e72e131a029b85045b68181585d97816a916871ca8d3c208c16d87cfd47\n        /* \"Evm/zk/balance_verifier.sol\":7657:7672  mulmod(a, x, P) */\n      dup1\n      tag_310\n      jumpi\n      tag_311\n      tag_136\n      jump\t// in\n    tag_311:\n    tag_310:\n        /* \"Evm/zk/balance_verifier.sol\":7667:7668  x */\n      dup3\n        /* \"Evm/zk/balance_verifier.sol\":7664:7665  a */\n      dup5\n        /* \"Evm/zk/balance_verifier.sol\":7657:7672  mulmod(a, x, P) */\n      mulmod\n        /* \"Evm/zk/balance_verifier.sol\":7657:7677  mulmod(a, x, P) != 1 */\n      eq\n        /* \"Evm/zk/balance_verifier.sol\":7653:7830  if (mulmod(a, x, P) != 1) {... */\n      tag_312\n      jumpi\n        /* \"Evm/zk/balance_verifier.sol\":7804:7818  ProofInvalid() */\n      mload(0x40)\n      0x7fcdd1f400000000000000000000000000000000000000000000000000000000\n      dup2\n      mstore\n      0x04\n      add\n      mload(0x40)\n      dup1\n      swap2\n      sub\n      swap1\n      revert\n        /* \"Evm/zk/balance_verifier.sol\":7653:7830  if (mulmod(a, x, P) != 1) {... */\n    tag_312:\n        /* \"Evm/zk/balance_verifier.sol\":7541:7837  function invert_Fp(uint256 a) internal view returns (uint256 x) {... */\n      swap2\n      swap1\n      pop\n      jump\t// out\n    tag_21:\n      mload(0x40)\n      dup1\n      0x80\n      add\n      0x40\n      mstore\n      dup1\n      0x04\n      swap1\n      0x20\n      dup3\n      mul\n      dup1\n      calldatasize\n      dup4\n      calldatacopy\n      dup1\n      dup3\n      add\n      swap2\n      pop\n      pop\n      swap1\n      pop\n      pop\n      swap1\n      jump\t// out\n    tag_59:\n      mload(0x40)\n      dup1\n      0x0300\n      add\n      0x40\n      mstore\n      dup1\n      0x18\n      swap1\n      0x20\n      dup3\n      mul\n      dup1\n      calldatasize\n      dup4\n      calldatacopy\n      dup1\n      dup3\n      add\n      swap2\n      pop\n      pop\n      swap1\n      pop\n      pop\n      swap1\n      jump\t// out\n    tag_123:\n      mload(0x40)\n      dup1\n      0x20\n      add\n      0x40\n      mstore\n      dup1\n      0x01\n      swap1\n      0x20\n      dup3\n      mul\n      dup1\n      calldatasize\n      dup4\n      calldatacopy\n      dup1\n      dup3\n      add\n      swap2\n      pop\n      pop\n      swap1\n      pop\n      pop\n      swap1\n      jump\t// out\n        /* \"#utility.yul\":88:205   */\n    tag_314:\n        /* \"#utility.yul\":197:198   */\n      0x00\n        /* \"#utility.yul\":194:195   */\n      0x00\n        /* \"#utility.yul\":187:199   */\n      revert\n        /* \"#utility.yul\":334:451   */\n    tag_316:\n        /* \"#utility.yul\":443:444   */\n      0x00\n        /* \"#utility.yul\":440:441   */\n      0x00\n        /* \"#utility.yul\":433:445   */\n      revert\n        /* \"#utility.yul\":475:724   */\n    tag_317:\n        /* \"#utility.yul\":546:554   */\n      0x00\n        /* \"#utility.yul\":577:583   */\n      dup2\n        /* \"#utility.yul\":565:583   */\n      swap1\n      pop\n        /* \"#utility.yul\":630:633   */\n      dup3\n        /* \"#utility.yul\":622:626   */\n      0x20\n        /* \"#utility.yul\":616:620   */\n      0x08\n        /* \"#utility.yul\":612:627   */\n      mul\n        /* \"#utility.yul\":602:610   */\n      dup3\n        /* \"#utility.yul\":598:628   */\n      add\n        /* \"#utility.yul\":595:634   */\n      gt\n        /* \"#utility.yul\":592:718   */\n      iszero\n      tag_335\n      jumpi\n        /* \"#utility.yul\":637:716   */\n      tag_336\n      tag_316\n      jump\t// in\n    tag_336:\n        /* \"#utility.yul\":592:718   */\n    tag_335:\n        /* \"#utility.yul\":475:724   */\n      swap3\n      swap2\n      pop\n      pop\n      jump\t// out\n        /* \"#utility.yul\":730:1110   */\n    tag_8:\n        /* \"#utility.yul\":814:820   */\n      0x00\n        /* \"#utility.yul\":863:866   */\n      0x0100\n        /* \"#utility.yul\":851:860   */\n      dup3\n        /* \"#utility.yul\":842:849   */\n      dup5\n        /* \"#utility.yul\":838:861   */\n      sub\n        /* \"#utility.yul\":834:867   */\n      slt\n        /* \"#utility.yul\":831:951   */\n      iszero\n      tag_338\n      jumpi\n        /* \"#utility.yul\":870:949   */\n      tag_339\n      tag_314\n      jump\t// in\n    tag_339:\n        /* \"#utility.yul\":831:951   */\n    tag_338:\n        /* \"#utility.yul\":990:991   */\n      0x00\n        /* \"#utility.yul\":1015:1093   */\n      tag_340\n        /* \"#utility.yul\":1085:1092   */\n      dup5\n        /* \"#utility.yul\":1076:1082   */\n      dup3\n        /* \"#utility.yul\":1065:1074   */\n      dup6\n        /* \"#utility.yul\":1061:1083   */\n      add\n        /* \"#utility.yul\":1015:1093   */\n      tag_317\n      jump\t// in\n    tag_340:\n        /* \"#utility.yul\":1005:1093   */\n      swap2\n      pop\n        /* \"#utility.yul\":961:1103   */\n      pop\n        /* \"#utility.yul\":730:1110   */\n      swap3\n      swap2\n      pop\n      pop\n      jump\t// out\n        /* \"#utility.yul\":1116:1220   */\n    tag_318:\n        /* \"#utility.yul\":1181:1187   */\n      0x00\n        /* \"#utility.yul\":1209:1213   */\n      0x04\n        /* \"#utility.yul\":1199:1213   */\n      swap1\n      pop\n        /* \"#utility.yul\":1116:1220   */\n      swap2\n      swap1\n      pop\n      jump\t// out\n        /* \"#utility.yul\":1226:1369   */\n    tag_319:\n        /* \"#utility.yul\":1323:1334   */\n      0x00\n        /* \"#utility.yul\":1360:1363   */\n      dup2\n        /* \"#utility.yul\":1345:1363   */\n      swap1\n      pop\n        /* \"#utility.yul\":1226:1369   */\n      swap3\n      swap2\n      pop\n      pop\n      jump\t// out\n        /* \"#utility.yul\":1375:1473   */\n    tag_320:\n        /* \"#utility.yul\":1440:1444   */\n      0x00\n        /* \"#utility.yul\":1463:1466   */\n      dup2\n        /* \"#utility.yul\":1455:1466   */\n      swap1\n      pop\n        /* \"#utility.yul\":1375:1473   */\n      swap2\n      swap1\n      pop\n      jump\t// out\n        /* \"#utility.yul\":1479:1556   */\n    tag_321:\n        /* \"#utility.yul\":1516:1523   */\n      0x00\n        /* \"#utility.yul\":1545:1550   */\n      dup2\n        /* \"#utility.yul\":1534:1550   */\n      swap1\n      pop\n        /* \"#utility.yul\":1479:1556   */\n      swap2\n      swap1\n      pop\n      jump\t// out\n        /* \"#utility.yul\":1562:1670   */\n    tag_322:\n        /* \"#utility.yul\":1639:1663   */\n      tag_346\n        /* \"#utility.yul\":1657:1662   */\n      dup2\n        /* \"#utility.yul\":1639:1663   */\n      tag_321\n      jump\t// in\n    tag_346:\n        /* \"#utility.yul\":1634:1637   */\n      dup3\n        /* \"#utility.yul\":1627:1664   */\n      mstore\n        /* \"#utility.yul\":1562:1670   */\n      pop\n      pop\n      jump\t// out\n        /* \"#utility.yul\":1676:1855   */\n    tag_323:\n        /* \"#utility.yul\":1745:1755   */\n      0x00\n        /* \"#utility.yul\":1766:1812   */\n      tag_348\n        /* \"#utility.yul\":1808:1811   */\n      dup4\n        /* \"#utility.yul\":1800:1806   */\n      dup4\n        /* \"#utility.yul\":1766:1812   */\n      tag_322\n      jump\t// in\n    tag_348:\n        /* \"#utility.yul\":1844:1848   */\n      0x20\n        /* \"#utility.yul\":1839:1842   */\n      dup4\n        /* \"#utility.yul\":1835:1849   */\n      add\n        /* \"#utility.yul\":1821:1849   */\n      swap1\n      pop\n        /* \"#utility.yul\":1676:1855   */\n      swap3\n      swap2\n      pop\n      pop\n      jump\t// out\n        /* \"#utility.yul\":1861:1972   */\n    tag_324:\n        /* \"#utility.yul\":1929:1933   */\n      0x00\n        /* \"#utility.yul\":1961:1965   */\n      0x20\n        /* \"#utility.yul\":1956:1959   */\n      dup3\n        /* \"#utility.yul\":1952:1966   */\n      add\n        /* \"#utility.yul\":1944:1966   */\n      swap1\n      pop\n        /* \"#utility.yul\":1861:1972   */\n      swap2\n      swap1\n      pop\n      jump\t// out\n        /* \"#utility.yul\":2010:2704   */\n    tag_325:\n        /* \"#utility.yul\":2146:2198   */\n      tag_351\n        /* \"#utility.yul\":2192:2197   */\n      dup2\n        /* \"#utility.yul\":2146:2198   */\n      tag_318\n      jump\t// in\n    tag_351:\n        /* \"#utility.yul\":2214:2298   */\n      tag_352\n        /* \"#utility.yul\":2291:2297   */\n      dup2\n        /* \"#utility.yul\":2286:2289   */\n      dup5\n        /* \"#utility.yul\":2214:2298   */\n      tag_319\n      jump\t// in\n    tag_352:\n        /* \"#utility.yul\":2207:2298   */\n      swap3\n      pop\n        /* \"#utility.yul\":2322:2376   */\n      tag_353\n        /* \"#utility.yul\":2370:2375   */\n      dup3\n        /* \"#utility.yul\":2322:2376   */\n      tag_320\n      jump\t// in\n    tag_353:\n        /* \"#utility.yul\":2399:2406   */\n      dup1\n        /* \"#utility.yul\":2430:2431   */\n      0x00\n        /* \"#utility.yul\":2415:2697   */\n    tag_354:\n        /* \"#utility.yul\":2440:2446   */\n      dup4\n        /* \"#utility.yul\":2437:2438   */\n      dup2\n        /* \"#utility.yul\":2434:2447   */\n      lt\n        /* \"#utility.yul\":2415:2697   */\n      iszero\n      tag_356\n      jumpi\n        /* \"#utility.yul\":2516:2522   */\n      dup2\n        /* \"#utility.yul\":2510:2523   */\n      mload\n        /* \"#utility.yul\":2543:2606   */\n      tag_357\n        /* \"#utility.yul\":2602:2605   */\n      dup8\n        /* \"#utility.yul\":2587:2600   */\n      dup3\n        /* \"#utility.yul\":2543:2606   */\n      tag_323\n      jump\t// in\n    tag_357:\n        /* \"#utility.yul\":2536:2606   */\n      swap7\n      pop\n        /* \"#utility.yul\":2629:2687   */\n      tag_358\n        /* \"#utility.yul\":2680:2686   */\n      dup4\n        /* \"#utility.yul\":2629:2687   */\n      tag_324\n      jump\t// in\n    tag_358:\n        /* \"#utility.yul\":2619:2687   */\n      swap3\n      pop\n        /* \"#utility.yul\":2475:2697   */\n      pop\n        /* \"#utility.yul\":2462:2463   */\n      0x01\n        /* \"#utility.yul\":2459:2460   */\n      dup2\n        /* \"#utility.yul\":2455:2464   */\n      add\n        /* \"#utility.yul\":2450:2464   */\n      swap1\n      pop\n        /* \"#utility.yul\":2415:2697   */\n      jump(tag_354)\n    tag_356:\n        /* \"#utility.yul\":2419:2433   */\n      pop\n        /* \"#utility.yul\":2122:2704   */\n      pop\n      pop\n      pop\n        /* \"#utility.yul\":2010:2704   */\n      pop\n      pop\n      jump\t// out\n        /* \"#utility.yul\":2710:3025   */\n    tag_11:\n        /* \"#utility.yul\":2849:2853   */\n      0x00\n        /* \"#utility.yul\":2887:2890   */\n      0x80\n        /* \"#utility.yul\":2876:2885   */\n      dup3\n        /* \"#utility.yul\":2872:2891   */\n      add\n        /* \"#utility.yul\":2864:2891   */\n      swap1\n      pop\n        /* \"#utility.yul\":2901:3018   */\n      tag_360\n        /* \"#utility.yul\":3015:3016   */\n      0x00\n        /* \"#utility.yul\":3004:3013   */\n      dup4\n        /* \"#utility.yul\":3000:3017   */\n      add\n        /* \"#utility.yul\":2991:2997   */\n      dup5\n        /* \"#utility.yul\":2901:3018   */\n      tag_325\n      jump\t// in\n    tag_360:\n        /* \"#utility.yul\":2710:3025   */\n      swap3\n      swap2\n      pop\n      pop\n      jump\t// out\n        /* \"#utility.yul\":3049:3298   */\n    tag_326:\n        /* \"#utility.yul\":3120:3128   */\n      0x00\n        /* \"#utility.yul\":3151:3157   */\n      dup2\n        /* \"#utility.yul\":3139:3157   */\n      swap1\n      pop\n        /* \"#utility.yul\":3204:3207   */\n      dup3\n        /* \"#utility.yul\":3196:3200   */\n      0x20\n        /* \"#utility.yul\":3190:3194   */\n      0x06\n        /* \"#utility.yul\":3186:3201   */\n      mul\n        /* \"#utility.yul\":3176:3184   */\n      dup3\n        /* \"#utility.yul\":3172:3202   */\n      add\n        /* \"#utility.yul\":3169:3208   */\n      gt\n        /* \"#utility.yul\":3166:3292   */\n      iszero\n      tag_362\n      jumpi\n        /* \"#utility.yul\":3211:3290   */\n      tag_363\n      tag_316\n      jump\t// in\n    tag_363:\n        /* \"#utility.yul\":3166:3292   */\n    tag_362:\n        /* \"#utility.yul\":3049:3298   */\n      swap3\n      swap2\n      pop\n      pop\n      jump\t// out\n        /* \"#utility.yul\":3304:3880   */\n    tag_14:\n        /* \"#utility.yul\":3422:3428   */\n      0x00\n        /* \"#utility.yul\":3430:3436   */\n      0x00\n        /* \"#utility.yul\":3479:3482   */\n      0x01c0\n        /* \"#utility.yul\":3467:3476   */\n      dup4\n        /* \"#utility.yul\":3458:3465   */\n      dup6\n        /* \"#utility.yul\":3454:3477   */\n      sub\n        /* \"#utility.yul\":3450:3483   */\n      slt\n        /* \"#utility.yul\":3447:3567   */\n      iszero\n      tag_365\n      jumpi\n        /* \"#utility.yul\":3486:3565   */\n      tag_366\n      tag_314\n      jump\t// in\n    tag_366:\n        /* \"#utility.yul\":3447:3567   */\n    tag_365:\n        /* \"#utility.yul\":3606:3607   */\n      0x00\n        /* \"#utility.yul\":3631:3709   */\n      tag_367\n        /* \"#utility.yul\":3701:3708   */\n      dup6\n        /* \"#utility.yul\":3692:3698   */\n      dup3\n        /* \"#utility.yul\":3681:3690   */\n      dup7\n        /* \"#utility.yul\":3677:3699   */\n      add\n        /* \"#utility.yul\":3631:3709   */\n      tag_317\n      jump\t// in\n    tag_367:\n        /* \"#utility.yul\":3621:3709   */\n      swap3\n      pop\n        /* \"#utility.yul\":3577:3719   */\n      pop\n        /* \"#utility.yul\":3758:3761   */\n      0x0100\n        /* \"#utility.yul\":3785:3863   */\n      tag_368\n        /* \"#utility.yul\":3855:3862   */\n      dup6\n        /* \"#utility.yul\":3846:3852   */\n      dup3\n        /* \"#utility.yul\":3835:3844   */\n      dup7\n        /* \"#utility.yul\":3831:3853   */\n      add\n        /* \"#utility.yul\":3785:3863   */\n      tag_326\n      jump\t// in\n    tag_368:\n        /* \"#utility.yul\":3775:3863   */\n      swap2\n      pop\n        /* \"#utility.yul\":3729:3873   */\n      pop\n        /* \"#utility.yul\":3304:3880   */\n      swap3\n      pop\n      swap3\n      swap1\n      pop\n      jump\t// out\n        /* \"#utility.yul\":3904:4153   */\n    tag_327:\n        /* \"#utility.yul\":3975:3983   */\n      0x00\n        /* \"#utility.yul\":4006:4012   */\n      dup2\n        /* \"#utility.yul\":3994:4012   */\n      swap1\n      pop\n        /* \"#utility.yul\":4059:4062   */\n      dup3\n        /* \"#utility.yul\":4051:4055   */\n      0x20\n        /* \"#utility.yul\":4045:4049   */\n      0x04\n        /* \"#utility.yul\":4041:4056   */\n      mul\n        /* \"#utility.yul\":4031:4039   */\n      dup3\n        /* \"#utility.yul\":4027:4057   */\n      add\n        /* \"#utility.yul\":4024:4063   */\n      gt\n        /* \"#utility.yul\":4021:4147   */\n      iszero\n      tag_370\n      jumpi\n        /* \"#utility.yul\":4066:4145   */\n      tag_371\n      tag_316\n      jump\t// in\n    tag_371:\n        /* \"#utility.yul\":4021:4147   */\n    tag_370:\n        /* \"#utility.yul\":3904:4153   */\n      swap3\n      swap2\n      pop\n      pop\n      jump\t// out\n        /* \"#utility.yul\":4159:4735   */\n    tag_18:\n        /* \"#utility.yul\":4277:4283   */\n      0x00\n        /* \"#utility.yul\":4285:4291   */\n      0x00\n        /* \"#utility.yul\":4334:4337   */\n      0x0140\n        /* \"#utility.yul\":4322:4331   */\n      dup4\n        /* \"#utility.yul\":4313:4320   */\n      dup6\n        /* \"#utility.yul\":4309:4332   */\n      sub\n        /* \"#utility.yul\":4305:4338   */\n      slt\n        /* \"#utility.yul\":4302:4422   */\n      iszero\n      tag_373\n      jumpi\n        /* \"#utility.yul\":4341:4420   */\n      tag_374\n      tag_314\n      jump\t// in\n    tag_374:\n        /* \"#utility.yul\":4302:4422   */\n    tag_373:\n        /* \"#utility.yul\":4461:4462   */\n      0x00\n        /* \"#utility.yul\":4486:4564   */\n      tag_375\n        /* \"#utility.yul\":4556:4563   */\n      dup6\n        /* \"#utility.yul\":4547:4553   */\n      dup3\n        /* \"#utility.yul\":4536:4545   */\n      dup7\n        /* \"#utility.yul\":4532:4554   */\n      add\n        /* \"#utility.yul\":4486:4564   */\n      tag_327\n      jump\t// in\n    tag_375:\n        /* \"#utility.yul\":4476:4564   */\n      swap3\n      pop\n        /* \"#utility.yul\":4432:4574   */\n      pop\n        /* \"#utility.yul\":4613:4616   */\n      0x80\n        /* \"#utility.yul\":4640:4718   */\n      tag_376\n        /* \"#utility.yul\":4710:4717   */\n      dup6\n        /* \"#utility.yul\":4701:4707   */\n      dup3\n        /* \"#utility.yul\":4690:4699   */\n      dup7\n        /* \"#utility.yul\":4686:4708   */\n      add\n        /* \"#utility.yul\":4640:4718   */\n      tag_326\n      jump\t// in\n    tag_376:\n        /* \"#utility.yul\":4630:4718   */\n      swap2\n      pop\n        /* \"#utility.yul\":4584:4728   */\n      pop\n        /* \"#utility.yul\":4159:4735   */\n      swap3\n      pop\n      swap3\n      swap1\n      pop\n      jump\t// out\n        /* \"#utility.yul\":4741:4921   */\n    tag_26:\n        /* \"#utility.yul\":4789:4866   */\n      0x4e487b7100000000000000000000000000000000000000000000000000000000\n        /* \"#utility.yul\":4786:4787   */\n      0x00\n        /* \"#utility.yul\":4779:4867   */\n      mstore\n        /* \"#utility.yul\":4886:4890   */\n      0x32\n        /* \"#utility.yul\":4883:4884   */\n      0x04\n        /* \"#utility.yul\":4876:4891   */\n      mstore\n        /* \"#utility.yul\":4910:4914   */\n      0x24\n        /* \"#utility.yul\":4907:4908   */\n      0x00\n        /* \"#utility.yul\":4900:4915   */\n      revert\n        /* \"#utility.yul\":4927:5107   */\n    tag_136:\n        /* \"#utility.yul\":4975:5052   */\n      0x4e487b7100000000000000000000000000000000000000000000000000000000\n        /* \"#utility.yul\":4972:4973   */\n      0x00\n        /* \"#utility.yul\":4965:5053   */\n      mstore\n        /* \"#utility.yul\":5072:5076   */\n      0x12\n        /* \"#utility.yul\":5069:5070   */\n      0x04\n        /* \"#utility.yul\":5062:5077   */\n      mstore\n        /* \"#utility.yul\":5096:5100   */\n      0x24\n        /* \"#utility.yul\":5093:5094   */\n      0x00\n        /* \"#utility.yul\":5086:5101   */\n      revert\n        /* \"#utility.yul\":5113:5293   */\n    tag_328:\n        /* \"#utility.yul\":5161:5238   */\n      0x4e487b7100000000000000000000000000000000000000000000000000000000\n        /* \"#utility.yul\":5158:5159   */\n      0x00\n        /* \"#utility.yul\":5151:5239   */\n      mstore\n        /* \"#utility.yul\":5258:5262   */\n      0x11\n        /* \"#utility.yul\":5255:5256   */\n      0x04\n        /* \"#utility.yul\":5248:5263   */\n      mstore\n        /* \"#utility.yul\":5282:5286   */\n      0x24\n        /* \"#utility.yul\":5279:5280   */\n      0x00\n        /* \"#utility.yul\":5272:5287   */\n      revert\n        /* \"#utility.yul\":5299:5493   */\n    tag_157:\n        /* \"#utility.yul\":5339:5343   */\n      0x00\n        /* \"#utility.yul\":5359:5379   */\n      tag_381\n        /* \"#utility.yul\":5377:5378   */\n      dup3\n        /* \"#utility.yul\":5359:5379   */\n      tag_321\n      jump\t// in\n    tag_381:\n        /* \"#utility.yul\":5354:5379   */\n      swap2\n      pop\n        /* \"#utility.yul\":5393:5413   */\n      tag_382\n        /* \"#utility.yul\":5411:5412   */\n      dup4\n        /* \"#utility.yul\":5393:5413   */\n      tag_321\n      jump\t// in\n    tag_382:\n        /* \"#utility.yul\":5388:5413   */\n      swap3\n      pop\n        /* \"#utility.yul\":5437:5438   */\n      dup3\n        /* \"#utility.yul\":5434:5435   */\n      dup3\n        /* \"#utility.yul\":5430:5439   */\n      sub\n        /* \"#utility.yul\":5422:5439   */\n      swap1\n      pop\n        /* \"#utility.yul\":5461:5462   */\n      dup2\n        /* \"#utility.yul\":5455:5459   */\n      dup2\n        /* \"#utility.yul\":5452:5463   */\n      gt\n        /* \"#utility.yul\":5449:5486   */\n      iszero\n      tag_383\n      jumpi\n        /* \"#utility.yul\":5466:5484   */\n      tag_384\n      tag_328\n      jump\t// in\n    tag_384:\n        /* \"#utility.yul\":5449:5486   */\n    tag_383:\n        /* \"#utility.yul\":5299:5493   */\n      swap3\n      swap2\n      pop\n      pop\n      jump\t// out\n\n    auxdata: 0xa2646970667358221220430d0c4430c043431786cb29615396e6b9727a7772cb9c62ce34442afd9415ea64736f6c634300081f0033\n}\n",
				"bytecode": {
					"linkReferences": {},
					"object": "6080604052348015600e575f5ffd5b506123b58061001c5f395ff3fe608060405234801561000f575f5ffd5b506004361061003f575f3560e01c806344f63692146100435780639cb2865814610073578063f71691891461008f575b5f5ffd5b61005d60048036038101906100589190612111565b6100ab565b60405161006a91906121eb565b60405180910390f35b61008d60048036038101906100889190612225565b61020a565b005b6100a960048036038101906100a49190612286565b6104a5565b005b6100b3612081565b6100ec825f600881106100c9576100c86122c5565b5b6020020135836001600881106100e2576100e16122c5565b5b6020020135610a61565b815f600481106100ff576100fe6122c5565b5b6020020181815250506101748260036008811061011f5761011e6122c5565b5b602002013583600260088110610138576101376122c5565b5b602002013584600560088110610151576101506122c5565b5b60200201358560046008811061016a576101696122c5565b5b6020020135610c0f565b82600260048110610188576101876122c5565b5b60200201836001600481106101a05761019f6122c5565b5b60200201828152508281525050506101e8826006600881106101c5576101c46122c5565b5b6020020135836007600881106101de576101dd6122c5565b5b6020020135610a61565b816003600481106101fc576101fb6122c5565b5b602002018181525050919050565b5f5f610215836111db565b915091505f6040516101008682377f205818a13ccbd197376df9df5c7b3187ba6a330db5826603456b0032324b00776101008201527f04480ef8576713af36b96aae5f9044fd73f6f4ad7037c4778c764379e12abcd46101208201527f29af77d88e394ae15342aae4d6557b1a68b6c8010073c28008fc12578a532f2e6101408201527f1f50ae538a90dab5325611e5768a7cccf28bb29129d4dbbd61da0139ee9598c06101608201527f2eca3c4a537a830ea534e3763694f7519197e4b8b3a65b2a942223a8ff66f7936101808201527f2bd19544c1ffcdc0d64ff4b989edbf567d1177ba5b60c03bfce962508e2b9b9f6101a08201527f21d1ba5cb674a7c33bfaeb6bbb1f0769699591503e88d5878d250114c224fd436101c08201527f150185eacfbb1caa100e4b49f6074c2c117e1dd8ad46387414a50b875167ffe06101e08201527f158a3e0956b85f6031ec6a74a6190546528f44145b808e48b17e637fa5246d6b6102008201527f13d7bdac8d88f977f1c304d4927a72026bcc92c2cdfe2e84475017e07209423261022082015283610240820152826102608201527f0efc2e6a8395e78aa3ad8343d38305063074040f19beac327dd1cc163b608f7a6102808201527f03f9101f90567b08e1cc967677e11870c91f0ebbd2a744b3de38bbf0acfd78866102a08201527f041dc00ca96d0fd58ac3ddb242e13e829d30d73f8ef0de9cb115d2885b0e1f9a6102c08201527f226ebad0e5dba64f7b7e548efa315aaa4ec3db0053cdec997599e7275d4830606102e08201526020816103008360085afa9150805182169150508061049e576040517f7fcdd1f400000000000000000000000000000000000000000000000000000000815260040160405180910390fd5b5050505050565b6104ad6120a3565b5f5f6104cf855f600481106104c5576104c46122c5565b5b60200201356115d1565b915091505f5f5f5f610511896002600481106104ee576104ed6122c5565b5b60200201358a600160048110610507576105066122c5565b5b6020020135611706565b93509350935093505f5f61053c8b600360048110610532576105316122c5565b5b60200201356115d1565b915091505f5f61054b8c6111db565b91509150898b5f60188110610563576105626122c5565b5b602002018181525050888b600160188110610581576105806122c5565b5b602002018181525050868b60026018811061059f5761059e6122c5565b5b602002018181525050878b6003601881106105bd576105bc6122c5565b5b602002018181525050848b6004601881106105db576105da6122c5565b5b602002018181525050858b6005601881106105f9576105f86122c5565b5b602002018181525050838b600660188110610617576106166122c5565b5b602002018181525050828b600760188110610635576106346122c5565b5b6020020181815250507f205818a13ccbd197376df9df5c7b3187ba6a330db5826603456b0032324b00778b600860188110610673576106726122c5565b5b6020020181815250507f04480ef8576713af36b96aae5f9044fd73f6f4ad7037c4778c764379e12abcd48b6009601881106106b1576106b06122c5565b5b6020020181815250507f29af77d88e394ae15342aae4d6557b1a68b6c8010073c28008fc12578a532f2e8b600a601881106106ef576106ee6122c5565b5b6020020181815250507f1f50ae538a90dab5325611e5768a7cccf28bb29129d4dbbd61da0139ee9598c08b600b6018811061072d5761072c6122c5565b5b6020020181815250507f2eca3c4a537a830ea534e3763694f7519197e4b8b3a65b2a942223a8ff66f7938b600c6018811061076b5761076a6122c5565b5b6020020181815250507f2bd19544c1ffcdc0d64ff4b989edbf567d1177ba5b60c03bfce962508e2b9b9f8b600d601881106107a9576107a86122c5565b5b6020020181815250507f21d1ba5cb674a7c33bfaeb6bbb1f0769699591503e88d5878d250114c224fd438b600e601881106107e7576107e66122c5565b5b6020020181815250507f150185eacfbb1caa100e4b49f6074c2c117e1dd8ad46387414a50b875167ffe08b600f60188110610825576108246122c5565b5b6020020181815250507f158a3e0956b85f6031ec6a74a6190546528f44145b808e48b17e637fa5246d6b8b601060188110610863576108626122c5565b5b6020020181815250507f13d7bdac8d88f977f1c304d4927a72026bcc92c2cdfe2e84475017e0720942328b6011601881106108a1576108a06122c5565b5b602002018181525050818b6012601881106108bf576108be6122c5565b5b602002018181525050808b6013601881106108dd576108dc6122c5565b5b6020020181815250507f0efc2e6a8395e78aa3ad8343d38305063074040f19beac327dd1cc163b608f7a8b60146018811061091b5761091a6122c5565b5b6020020181815250507f03f9101f90567b08e1cc967677e11870c91f0ebbd2a744b3de38bbf0acfd78868b601560188110610959576109586122c5565b5b6020020181815250507f041dc00ca96d0fd58ac3ddb242e13e829d30d73f8ef0de9cb115d2885b0e1f9a8b601660188110610997576109966122c5565b5b6020020181815250507f226ebad0e5dba64f7b7e548efa315aaa4ec3db0053cdec997599e7275d4830608b6017601881106109d5576109d46122c5565b5b6020020181815250505f6109e76120c6565b6020816103008f60085afa9150811580610a1957506001815f60018110610a1157610a106122c5565b5b602002015114155b15610a50576040517f7fcdd1f400000000000000000000000000000000000000000000000000000000815260040160405180910390fd5b505050505050505050505050505050565b5f7f30644e72e131a029b85045b68181585d97816a916871ca8d3c208c16d87cfd4783101580610ab157507f30644e72e131a029b85045b68181585d97816a916871ca8d3c208c16d87cfd478210155b15610ae8576040517f7fcdd1f400000000000000000000000000000000000000000000000000000000815260040160405180910390fd5b5f83148015610af657505f82145b15610b03575f9050610c09565b5f610ba17f30644e72e131a029b85045b68181585d97816a916871ca8d3c208c16d87cfd4780610b3657610b356122f2565b5b60037f30644e72e131a029b85045b68181585d97816a916871ca8d3c208c16d87cfd4780610b6757610b666122f2565b5b877f30644e72e131a029b85045b68181585d97816a916871ca8d3c208c16d87cfd4780610b9757610b966122f2565b5b898a090908611ae1565b9050808303610bb9575f600185901b17915050610c09565b610bc281611b7d565b8303610bd75760018085901b17915050610c09565b6040517f7fcdd1f400000000000000000000000000000000000000000000000000000000815260040160405180910390fd5b92915050565b5f5f7f30644e72e131a029b85045b68181585d97816a916871ca8d3c208c16d87cfd4786101580610c6057507f30644e72e131a029b85045b68181585d97816a916871ca8d3c208c16d87cfd478510155b80610c8b57507f30644e72e131a029b85045b68181585d97816a916871ca8d3c208c16d87cfd478410155b80610cb657507f30644e72e131a029b85045b68181585d97816a916871ca8d3c208c16d87cfd478310155b15610ced576040517f7fcdd1f400000000000000000000000000000000000000000000000000000000815260040160405180910390fd5b5f8385878917171703610d05575f5f915091506111d2565b5f5f5f7f30644e72e131a029b85045b68181585d97816a916871ca8d3c208c16d87cfd4780610d3757610d366122f2565b5b60037f30644e72e131a029b85045b68181585d97816a916871ca8d3c208c16d87cfd47610d64919061234c565b7f30644e72e131a029b85045b68181585d97816a916871ca8d3c208c16d87cfd4780610d9357610d926122f2565b5b8a8c090990505f7f30644e72e131a029b85045b68181585d97816a916871ca8d3c208c16d87cfd4780610dc957610dc86122f2565b5b8a7f30644e72e131a029b85045b68181585d97816a916871ca8d3c208c16d87cfd4780610df957610df86122f2565b5b8c8d090990505f7f30644e72e131a029b85045b68181585d97816a916871ca8d3c208c16d87cfd4780610e2f57610e2e6122f2565b5b8a7f30644e72e131a029b85045b68181585d97816a916871ca8d3c208c16d87cfd4780610e5f57610e5e6122f2565b5b8c8d090990507f30644e72e131a029b85045b68181585d97816a916871ca8d3c208c16d87cfd4780610e9457610e936122f2565b5b7f30644e72e131a029b85045b68181585d97816a916871ca8d3c208c16d87cfd4780610ec357610ec26122f2565b5b7f30644e72e131a029b85045b68181585d97816a916871ca8d3c208c16d87cfd4780610ef257610ef16122f2565b5b8c860984087f2b149d40ceb8aaae81be18991be06ac3b5b4c5e559dbefa33267e6dc24a138e5089450610fd77f30644e72e131a029b85045b68181585d97816a916871ca8d3c208c16d87cfd4780610f4d57610f4c6122f2565b5b7f30644e72e131a029b85045b68181585d97816a916871ca8d3c208c16d87cfd4780610f7c57610f7b6122f2565b5b7f30644e72e131a029b85045b68181585d97816a916871ca8d3c208c16d87cfd4780610fab57610faa6122f2565b5b8e870984087f2fcd3ac2a640a154eb23960892a85a68f031ca0c8344b23a577dcf1052b9e77508611b7d565b93505050505f5f61107a7f30644e72e131a029b85045b68181585d97816a916871ca8d3c208c16d87cfd47806110105761100f6122f2565b5b7f30644e72e131a029b85045b68181585d97816a916871ca8d3c208c16d87cfd478061103f5761103e6122f2565b5b8586097f30644e72e131a029b85045b68181585d97816a916871ca8d3c208c16d87cfd4780611071576110706122f2565b5b87880908611ae1565b90506111077f30644e72e131a029b85045b68181585d97816a916871ca8d3c208c16d87cfd47806110ae576110ad6122f2565b5b7f183227397098d014dc2822db40c0ac2ecbc0b548b438e5469e10460b6c3e7ea47f30644e72e131a029b85045b68181585d97816a916871ca8d3c208c16d87cfd47806110fe576110fd6122f2565b5b84880809611be8565b15915050611116838383611c52565b8093508194505050828714801561112c57508186145b15611154575f8161113d575f611140565b60025b60ff1660028b901b171794508793506111ce565b61115d83611b7d565b87148015611172575061116f82611b7d565b86145b1561119b57600181611184575f611187565b60025b60ff1660028b901b171794508793506111cd565b6040517f7fcdd1f400000000000000000000000000000000000000000000000000000000815260040160405180910390fd5b5b5050505b94509492505050565b5f5f5f60019050604051604081015f7f2ad53ae3f81122123797f2b78b4ba9e8a9385cdd15067e2820586e3b42ce3e7883527f17322cafec6e6ab50971a3405d24c0218c34bac7d68c3098a02f5b05564b093260208401527f0365f4f4bfe37f271afb70296fbcfc1be0d1af8630cf61a9203a606b871b622382527f03a200293dda046e0c58b47e9f6a829e4ae1ae81c120d5bc1773d760668b57f66020830152863590508060408301527f30644e72e131a029b85045b68181585d2833e84879b9709143e1f593f000000181108416935060408260608460075afa8416935060408360808560065afa841693507f2e04bbd8d29b409121ff0d86aec3ff0bf00a2d42104c9e264c8c3c0b097c6b6982527f1048cd6ad5b7549fda6c4bbf20e827b365288c43954c6014c248d8fa40d7c7f56020830152602087013590508060408301527f30644e72e131a029b85045b68181585d2833e84879b9709143e1f593f000000181108416935060408260608460075afa8416935060408360808560065afa841693507f17c27e91a4717a4d757b51838a291f162c5a8cffa155c39732280e6acb345a9d82527f03361f7d2f02a1a448d4370aa60d46b14d58993ee00ad5f18db0745fbfaf89e86020830152604087013590508060408301527f30644e72e131a029b85045b68181585d2833e84879b9709143e1f593f000000181108416935060408260608460075afa8416935060408360808560065afa841693507f2cca904853cf4e653ff22ab6580a20ee3b1f1499f45c1a0bdddedeb3d2353e1a82527f18decc191dce3f27fcad86d09ac47050dc583e3c7a0d4ae86b6849ddce7990de6020830152606087013590508060408301527f30644e72e131a029b85045b68181585d2833e84879b9709143e1f593f000000181108416935060408260608460075afa8416935060408360808560065afa841693505f82525f6020830152608087013590508060408301527f30644e72e131a029b85045b68181585d2833e84879b9709143e1f593f000000181108416935060408260608460075afa8416935060408360808560065afa841693507f0c5fc71213ff8dfb619367f7490666f29d57404508d55526cd035cefd7a497f982527f07e68ccd70ee91aa4a100036a19944eb04d654e65d2a83e496dc70372b880818602083015260a087013590508060408301527f30644e72e131a029b85045b68181585d2833e84879b9709143e1f593f000000181108416935060408260608460075afa8416935060408360808560065afa841693508251955060208301519450505050806115cb576040517fa54f8e2700000000000000000000000000000000000000000000000000000000815260040160405180910390fd5b50915091565b5f5f5f83036115e5575f5f91509150611701565b5f6001808516149050600184901c92507f30644e72e131a029b85045b68181585d97816a916871ca8d3c208c16d87cfd47831061164e576040517f7fcdd1f400000000000000000000000000000000000000000000000000000000815260040160405180910390fd5b6116eb7f30644e72e131a029b85045b68181585d97816a916871ca8d3c208c16d87cfd47806116805761167f6122f2565b5b60037f30644e72e131a029b85045b68181585d97816a916871ca8d3c208c16d87cfd47806116b1576116b06122f2565b5b867f30644e72e131a029b85045b68181585d97816a916871ca8d3c208c16d87cfd47806116e1576116e06122f2565b5b8889090908611ae1565b915080156116ff576116fc82611b7d565b91505b505b915091565b5f5f5f5f5f8614801561171857505f85145b1561172e575f5f5f5f9350935093509350611ad8565b5f60018088161490505f6002808916149050600288901c95508694507f30644e72e131a029b85045b68181585d97816a916871ca8d3c208c16d87cfd478610158061179957507f30644e72e131a029b85045b68181585d97816a916871ca8d3c208c16d87cfd478510155b156117d0576040517f7fcdd1f400000000000000000000000000000000000000000000000000000000815260040160405180910390fd5b5f7f30644e72e131a029b85045b68181585d97816a916871ca8d3c208c16d87cfd4780611800576117ff6122f2565b5b60037f30644e72e131a029b85045b68181585d97816a916871ca8d3c208c16d87cfd4761182d919061234c565b7f30644e72e131a029b85045b68181585d97816a916871ca8d3c208c16d87cfd478061185c5761185b6122f2565b5b888a090990505f7f30644e72e131a029b85045b68181585d97816a916871ca8d3c208c16d87cfd4780611892576118916122f2565b5b887f30644e72e131a029b85045b68181585d97816a916871ca8d3c208c16d87cfd47806118c2576118c16122f2565b5b8a8b090990505f7f30644e72e131a029b85045b68181585d97816a916871ca8d3c208c16d87cfd47806118f8576118f76122f2565b5b887f30644e72e131a029b85045b68181585d97816a916871ca8d3c208c16d87cfd4780611928576119276122f2565b5b8a8b090990507f30644e72e131a029b85045b68181585d97816a916871ca8d3c208c16d87cfd478061195d5761195c6122f2565b5b7f30644e72e131a029b85045b68181585d97816a916871ca8d3c208c16d87cfd478061198c5761198b6122f2565b5b7f30644e72e131a029b85045b68181585d97816a916871ca8d3c208c16d87cfd47806119bb576119ba6122f2565b5b8a860984087f2b149d40ceb8aaae81be18991be06ac3b5b4c5e559dbefa33267e6dc24a138e5089650611aa07f30644e72e131a029b85045b68181585d97816a916871ca8d3c208c16d87cfd4780611a1657611a156122f2565b5b7f30644e72e131a029b85045b68181585d97816a916871ca8d3c208c16d87cfd4780611a4557611a446122f2565b5b7f30644e72e131a029b85045b68181585d97816a916871ca8d3c208c16d87cfd4780611a7457611a736122f2565b5b8c870984087f2fcd3ac2a640a154eb23960892a85a68f031ca0c8344b23a577dcf1052b9e77508611b7d565b9550611aad878786611c52565b80975081985050508415611ad257611ac487611b7d565b9650611acf86611b7d565b95505b50505050505b92959194509250565b5f611b0c827f0c19139cb84c680a6e14116da060561765e05aa45a1c72a34f082305b61f3f52611f4d565b9050817f30644e72e131a029b85045b68181585d97816a916871ca8d3c208c16d87cfd4780611b3e57611b3d6122f2565b5b82830914611b78576040517f7fcdd1f400000000000000000000000000000000000000000000000000000000815260040160405180910390fd5b919050565b5f7f30644e72e131a029b85045b68181585d97816a916871ca8d3c208c16d87cfd47808381611baf57611bae6122f2565b5b067f30644e72e131a029b85045b68181585d97816a916871ca8d3c208c16d87cfd470381611be057611bdf6122f2565b5b069050919050565b5f5f611c14837f0c19139cb84c680a6e14116da060561765e05aa45a1c72a34f082305b61f3f52611f4d565b9050827f30644e72e131a029b85045b68181585d97816a916871ca8d3c208c16d87cfd4780611c4657611c456122f2565b5b82830914915050919050565b5f5f5f611cf17f30644e72e131a029b85045b68181585d97816a916871ca8d3c208c16d87cfd4780611c8757611c866122f2565b5b7f30644e72e131a029b85045b68181585d97816a916871ca8d3c208c16d87cfd4780611cb657611cb56122f2565b5b8788097f30644e72e131a029b85045b68181585d97816a916871ca8d3c208c16d87cfd4780611ce857611ce76122f2565b5b898a0908611ae1565b90508315611d0557611d0281611b7d565b90505b611d907f30644e72e131a029b85045b68181585d97816a916871ca8d3c208c16d87cfd4780611d3757611d366122f2565b5b7f183227397098d014dc2822db40c0ac2ecbc0b548b438e5469e10460b6c3e7ea47f30644e72e131a029b85045b68181585d97816a916871ca8d3c208c16d87cfd4780611d8757611d866122f2565b5b848a0809611ae1565b92507f30644e72e131a029b85045b68181585d97816a916871ca8d3c208c16d87cfd4780611dc157611dc06122f2565b5b611dfc7f30644e72e131a029b85045b68181585d97816a916871ca8d3c208c16d87cfd4780611df357611df26122f2565b5b60028609611fe4565b860991507f30644e72e131a029b85045b68181585d97816a916871ca8d3c208c16d87cfd4780611e2f57611e2e6122f2565b5b611e697f30644e72e131a029b85045b68181585d97816a916871ca8d3c208c16d87cfd4780611e6157611e606122f2565b5b848509611b7d565b7f30644e72e131a029b85045b68181585d97816a916871ca8d3c208c16d87cfd4780611e9857611e976122f2565b5b8586090886141580611f0d57507f30644e72e131a029b85045b68181585d97816a916871ca8d3c208c16d87cfd4780611ed457611ed36122f2565b5b7f30644e72e131a029b85045b68181585d97816a916871ca8d3c208c16d87cfd4780611f0357611f026122f2565b5b8385096002098514155b15611f44576040517f7fcdd1f400000000000000000000000000000000000000000000000000000000815260040160405180910390fd5b50935093915050565b5f5f60405160208152602080820152602060408201528460608201528360808201527f30644e72e131a029b85045b68181585d97816a916871ca8d3c208c16d87cfd4760a082015260208160c08360055afa9150805192505080611fdd576040517f7fcdd1f400000000000000000000000000000000000000000000000000000000815260040160405180910390fd5b5092915050565b5f61200f827f30644e72e131a029b85045b68181585d97816a916871ca8d3c208c16d87cfd45611f4d565b905060017f30644e72e131a029b85045b68181585d97816a916871ca8d3c208c16d87cfd4780612042576120416122f2565b5b8284091461207c576040517f7fcdd1f400000000000000000000000000000000000000000000000000000000815260040160405180910390fd5b919050565b6040518060800160405280600490602082028036833780820191505090505090565b604051806103000160405280601890602082028036833780820191505090505090565b6040518060200160405280600190602082028036833780820191505090505090565b5f5ffd5b5f5ffd5b5f8190508260206008028201111561210b5761210a6120ec565b5b92915050565b5f6101008284031215612127576121266120e8565b5b5f612134848285016120f0565b91505092915050565b5f60049050919050565b5f81905092915050565b5f819050919050565b5f819050919050565b61216c8161215a565b82525050565b5f61217d8383612163565b60208301905092915050565b5f602082019050919050565b61219e8161213d565b6121a88184612147565b92506121b382612151565b805f5b838110156121e35781516121ca8782612172565b96506121d583612189565b9250506001810190506121b6565b505050505050565b5f6080820190506121fe5f830184612195565b92915050565b5f8190508260206006028201111561221f5761221e6120ec565b5b92915050565b5f5f6101c0838503121561223c5761223b6120e8565b5b5f612249858286016120f0565b92505061010061225b85828601612204565b9150509250929050565b5f819050826020600402820111156122805761227f6120ec565b5b92915050565b5f5f610140838503121561229d5761229c6120e8565b5b5f6122aa85828601612265565b92505060806122bb85828601612204565b9150509250929050565b7f4e487b71000000000000000000000000000000000000000000000000000000005f52603260045260245ffd5b7f4e487b71000000000000000000000000000000000000000000000000000000005f52601260045260245ffd5b7f4e487b71000000000000000000000000000000000000000000000000000000005f52601160045260245ffd5b5f6123568261215a565b91506123618361215a565b92508282039050818111156123795761237861231f565b5b9291505056fea2646970667358221220430d0c4430c043431786cb29615396e6b9727a7772cb9c62ce34442afd9415ea64736f6c634300081f0033",
					"opcodes": "PUSH1 0x80 PUSH1 0x40 MSTORE CALLVALUE DUP1 ISZERO PUSH1 0xE JUMPI PUSH0 PUSH0 REVERT JUMPDEST POP PUSH2 0x23B5 DUP1 PUSH2 0x1C PUSH0 CODECOPY PUSH0 RETURN INVALID PUSH1 0x80 PUSH1 0x40 MSTORE CALLVALUE DUP1 ISZERO PUSH2 0xF JUMPI PUSH0 PUSH0 REVERT JUMPDEST POP PUSH1 0x4 CALLDATASIZE LT PUSH2 0x3F JUMPI PUSH0 CALLDATALOAD PUSH1 0xE0 SHR DUP1 PUSH4 0x44F63692 EQ PUSH2 0x43 JUMPI DUP1 PUSH4 0x9CB28658 EQ PUSH2 0x73 JUMPI DUP1 PUSH4 0xF7169189 EQ PUSH2 0x8F JUMPI JUMPDEST PUSH0 PUSH0 REVERT JUMPDEST PUSH2 0x5D PUSH1 0x4 DUP1 CALLDATASIZE SUB DUP2 ADD SWAP1 PUSH2 0x58 SWAP2 SWAP1 PUSH2 0x2111 JUMP JUMPDEST PUSH2 0xAB JUMP JUMPDEST PUSH1 0x40 MLOAD PUSH2 0x6A SWAP2 SWAP1 PUSH2 0x21EB JUMP JUMPDEST PUSH1 0x40 MLOAD DUP1 SWAP2 SUB SWAP1 RETURN JUMPDEST PUSH2 0x8D PUSH1 0x4 DUP1 CALLDATASIZE SUB DUP2 ADD SWAP1 PUSH2 0x88 SWAP2 SWAP1 PUSH2 0x2225 JUMP JUMPDEST PUSH2 0x20A JUMP JUMPDEST STOP JUMPDEST PUSH2 0xA9 PUSH1 0x4 DUP1 CALLDATASIZE SUB DUP2 ADD SWAP1 PUSH2 0xA4 SWAP2 SWAP1 PUSH2 0x2286 JUMP JUMPDEST PUSH2 0x4A5 JUMP JUMPDEST STOP JUMPDEST PUSH2 0xB3 PUSH2 0x2081 JUMP JUMPDEST PUSH2 0xEC DUP3 PUSH0 PUSH1 0x8 DUP2 LT PUSH2 0xC9 JUMPI PUSH2 0xC8 PUSH2 0x22C5 JUMP JUMPDEST JUMPDEST PUSH1 0x20 MUL ADD CALLDATALOAD DUP4 PUSH1 0x1 PUSH1 0x8 DUP2 LT PUSH2 0xE2 JUMPI PUSH2 0xE1 PUSH2 0x22C5 JUMP JUMPDEST JUMPDEST PUSH1 0x20 MUL ADD CALLDATALOAD PUSH2 0xA61 JUMP JUMPDEST DUP2 PUSH0 PUSH1 0x4 DUP2 LT PUSH2 0xFF JUMPI PUSH2 0xFE PUSH2 0x22C5 JUMP JUMPDEST JUMPDEST PUSH1 0x20 MUL ADD DUP2 DUP2 MSTORE POP POP PUSH2 0x174 DUP3 PUSH1 0x3 PUSH1 0x8 DUP2 LT PUSH2 0x11F JUMPI PUSH2 0x11E PUSH2 0x22C5 JUMP JUMPDEST JUMPDEST PUSH1 0x20 MUL ADD CALLDATALOAD DUP4 PUSH1 0x2 PUSH1 0x8 DUP2 LT PUSH2 0x138 JUMPI PUSH2 0x137 PUSH2 0x22C5 JUMP JUMPDEST JUMPDEST PUSH1 0x20 MUL ADD CALLDATALOAD DUP5 PUSH1 0x5 PUSH1 0x8 DUP2 LT PUSH2 0x151 JUMPI PUSH2 0x150 PUSH2 0x22C5 JUMP JUMPDEST JUMPDEST PUSH1 0x20 MUL ADD CALLDATALOAD DUP6 PUSH1 0x4 PUSH1 0x8 DUP2 LT PUSH2 0x16A JUMPI PUSH2 0x169 PUSH2 0x22C5 JUMP JUMPDEST JUMPDEST PUSH1 0x20 MUL ADD CALLDATALOAD PUSH2 0xC0F JUMP JUMPDEST DUP3 PUSH1 0x2 PUSH1 0x4 DUP2 LT PUSH2 0x188 JUMPI PUSH2 0x187 PUSH2 0x22C5 JUMP JUMPDEST JUMPDEST PUSH1 0x20 MUL ADD DUP4 PUSH1 0x1 PUSH1 0x4 DUP2 LT PUSH2 0x1A0 JUMPI PUSH2 0x19F PUSH2 0x22C5 JUMP JUMPDEST JUMPDEST PUSH1 0x20 MUL ADD DUP3 DUP2 MSTORE POP DUP3 DUP2 MSTORE POP POP POP PUSH2 0x1E8 DUP3 PUSH1 0x6 PUSH1 0x8 DUP2 LT PUSH2 0x1C5 JUMPI PUSH2 0x1C4 PUSH2 0x22C5 JUMP JUMPDEST JUMPDEST PUSH1 0x20 MUL ADD CALLDATALOAD DUP4 PUSH1 0x7 PUSH1 0x8 DUP2 LT PUSH2 0x1DE JUMPI PUSH2 0x1DD PUSH2 0x22C5 JUMP JUMPDEST JUMPDEST PUSH1 0x20 MUL ADD CALLDATALOAD PUSH2 0xA61 JUMP JUMPDEST DUP2 PUSH1 0x3 PUSH1 0x4 DUP2 LT PUSH2 0x1FC JUMPI PUSH2 0x1FB PUSH2 0x22C5 JUMP JUMPDEST JUMPDEST PUSH1 0x20 MUL ADD DUP2 DUP2 MSTORE POP POP SWAP2 SWAP1 POP JUMP JUMPDEST PUSH0 PUSH0 PUSH2 0x215 DUP4 PUSH2 0x11DB JUMP JUMPDEST SWAP2 POP SWAP2 POP PUSH0 PUSH1 0x40 MLOAD PUSH2 0x100 DUP7 DUP3 CALLDATACOPY PUSH32 0x205818A13CCBD197376DF9DF5C7B3187BA6A330DB5826603456B0032324B0077 PUSH2 0x100 DUP3 ADD MSTORE PUSH32 0x4480EF8576713AF36B96AAE5F9044FD73F6F4AD7037C4778C764379E12ABCD4 PUSH2 0x120 DUP3 ADD MSTORE PUSH32 0x29AF77D88E394AE15342AAE4D6557B1A68B6C8010073C28008FC12578A532F2E PUSH2 0x140 DUP3 ADD MSTORE PUSH32 0x1F50AE538A90DAB5325611E5768A7CCCF28BB29129D4DBBD61DA0139EE9598C0 PUSH2 0x160 DUP3 ADD MSTORE PUSH32 0x2ECA3C4A537A830EA534E3763694F7519197E4B8B3A65B2A942223A8FF66F793 PUSH2 0x180 DUP3 ADD MSTORE PUSH32 0x2BD19544C1FFCDC0D64FF4B989EDBF567D1177BA5B60C03BFCE962508E2B9B9F PUSH2 0x1A0 DUP3 ADD MSTORE PUSH32 0x21D1BA5CB674A7C33BFAEB6BBB1F0769699591503E88D5878D250114C224FD43 PUSH2 0x1C0 DUP3 ADD MSTORE PUSH32 0x150185EACFBB1CAA100E4B49F6074C2C117E1DD8AD46387414A50B875167FFE0 PUSH2 0x1E0 DUP3 ADD MSTORE PUSH32 0x158A3E0956B85F6031EC6A74A6190546528F44145B808E48B17E637FA5246D6B PUSH2 0x200 DUP3 ADD MSTORE PUSH32 0x13D7BDAC8D88F977F1C304D4927A72026BCC92C2CDFE2E84475017E072094232 PUSH2 0x220 DUP3 ADD MSTORE DUP4 PUSH2 0x240 DUP3 ADD MSTORE DUP3 PUSH2 0x260 DUP3 ADD MSTORE PUSH32 0xEFC2E6A8395E78AA3AD8343D38305063074040F19BEAC327DD1CC163B608F7A PUSH2 0x280 DUP3 ADD MSTORE PUSH32 0x3F9101F90567B08E1CC967677E11870C91F0EBBD2A744B3DE38BBF0ACFD7886 PUSH2 0x2A0 DUP3 ADD MSTORE PUSH32 0x41DC00CA96D0FD58AC3DDB242E13E829D30D73F8EF0DE9CB115D2885B0E1F9A PUSH2 0x2C0 DUP3 ADD MSTORE PUSH32 0x226EBAD0E5DBA64F7B7E548EFA315AAA4EC3DB0053CDEC997599E7275D483060 PUSH2 0x2E0 DUP3 ADD MSTORE PUSH1 0x20 DUP2 PUSH2 0x300 DUP4 PUSH1 0x8 GAS STATICCALL SWAP2 POP DUP1 MLOAD DUP3 AND SWAP2 POP POP DUP1 PUSH2 0x49E JUMPI PUSH1 0x40 MLOAD PUSH32 0x7FCDD1F400000000000000000000000000000000000000000000000000000000 DUP2 MSTORE PUSH1 0x4 ADD PUSH1 0x40 MLOAD DUP1 SWAP2 SUB SWAP1 REVERT JUMPDEST POP POP POP POP POP JUMP JUMPDEST PUSH2 0x4AD PUSH2 0x20A3 JUMP JUMPDEST PUSH0 PUSH0 PUSH2 0x4CF DUP6 PUSH0 PUSH1 0x4 DUP2 LT PUSH2 0x4C5 JUMPI PUSH2 0x4C4 PUSH2 0x22C5 JUMP JUMPDEST JUMPDEST PUSH1 0x20 MUL ADD CALLDATALOAD PUSH2 0x15D1 JUMP JUMPDEST SWAP2 POP SWAP2 POP PUSH0 PUSH0 PUSH0 PUSH0 PUSH2 0x511 DUP10 PUSH1 0x2 PUSH1 0x4 DUP2 LT PUSH2 0x4EE JUMPI PUSH2 0x4ED PUSH2 0x22C5 JUMP JUMPDEST JUMPDEST PUSH1 0x20 MUL ADD CALLDATALOAD DUP11 PUSH1 0x1 PUSH1 0x4 DUP2 LT PUSH2 0x507 JUMPI PUSH2 0x506 PUSH2 0x22C5 JUMP JUMPDEST JUMPDEST PUSH1 0x20 MUL ADD CALLDATALOAD PUSH2 0x1706 JUMP JUMPDEST SWAP4 POP SWAP4 POP SWAP4 POP SWAP4 POP PUSH0 PUSH0 PUSH2 0x53C DUP12 PUSH1 0x3 PUSH1 0x4 DUP2 LT PUSH2 0x532 JUMPI PUSH2 0x531 PUSH2 0x22C5 JUMP JUMPDEST JUMPDEST PUSH1 0x20 MUL ADD CALLDATALOAD PUSH2 0x15D1 JUMP JUMPDEST SWAP2 POP SWAP2 POP PUSH0 PUSH0 PUSH2 0x54B DUP13 PUSH2 0x11DB JUMP JUMPDEST SWAP2 POP SWAP2 POP DUP10 DUP12 PUSH0 PUSH1 0x18 DUP2 LT PUSH2 0x563 JUMPI PUSH2 0x562 PUSH2 0x22C5 JUMP JUMPDEST JUMPDEST PUSH1 0x20 MUL ADD DUP2 DUP2 MSTORE POP POP DUP9 DUP12 PUSH1 0x1 PUSH1 0x18 DUP2 LT PUSH2 0x581 JUMPI PUSH2 0x580 PUSH2 0x22C5 JUMP JUMPDEST JUMPDEST PUSH1 0x20 MUL ADD DUP2 DUP2 MSTORE POP POP DUP7 DUP12 PUSH1 0x2 PUSH1 0x18 DUP2 LT PUSH2 0x59F JUMPI PUSH2 0x59E PUSH2 0x22C5 JUMP JUMPDEST JUMPDEST PUSH1 0x20 MUL ADD DUP2 DUP2 MSTORE POP POP DUP8 DUP12 PUSH1 0x3 PUSH1 0x18 DUP2 LT PUSH2 0x5BD JUMPI PUSH2 0x5BC PUSH2 0x22C5 JUMP JUMPDEST JUMPDEST PUSH1 0x20 MUL ADD DUP2 DUP2 MSTORE POP POP DUP5 DUP12 PUSH1 0x4 PUSH1 0x18 DUP2 LT PUSH2 0x5DB JUMPI PUSH2 0x5DA PUSH2 0x22C5 JUMP JUMPDEST JUMPDEST PUSH1 0x20 MUL ADD DUP2 DUP2 MSTORE POP POP DUP6 DUP12 PUSH1 0x5 PUSH1 0x18 DUP2 LT PUSH2 0x5F9 JUMPI PUSH2 0x5F8 PUSH2 0x22C5 JUMP JUMPDEST JUMPDEST PUSH1 0x20 MUL ADD DUP2 DUP2 MSTORE POP POP DUP4 DUP12 PUSH1 0x6 PUSH1 0x18 DUP2 LT PUSH2 0x617 JUMPI PUSH2 0x616 PUSH2 0x22C5 JUMP JUMPDEST JUMPDEST PUSH1 0x20 MUL ADD DUP2 DUP2 MSTORE POP POP DUP3 DUP12 PUSH1 0x7 PUSH1 0x18 DUP2 LT PUSH2 0x635 JUMPI PUSH2 0x634 PUSH2 0x22C5 JUMP JUMPDEST JUMPDEST PUSH1 0x20 MUL ADD DUP2 DUP2 MSTORE POP POP PUSH32 0x205818A13CCBD197376DF9DF5C7B3187BA6A330DB5826603456B0032324B0077 DUP12 PUSH1 0x8 PUSH1 0x18 DUP2 LT PUSH2 0x673 JUMPI PUSH2 0x672 PUSH2 0x22C5 JUMP JUMPDEST JUMPDEST PUSH1 0x20 MUL ADD DUP2 DUP2 MSTORE POP POP PUSH32 0x4480EF8576713AF36B96AAE5F9044FD73F6F4AD7037C4778C764379E12ABCD4 DUP12 PUSH1 0x9 PUSH1 0x18 DUP2 LT PUSH2 0x6B1 JUMPI PUSH2 0x6B0 PUSH2 0x22C5 JUMP JUMPDEST JUMPDEST PUSH1 0x20 MUL ADD DUP2 DUP2 MSTORE POP POP PUSH32 0x29AF77D88E394AE15342AAE4D6557B1A68B6C8010073C28008FC12578A532F2E DUP12 PUSH1 0xA PUSH1 0x18 DUP2 LT PUSH2 0x6EF JUMPI PUSH2 0x6EE PUSH2 0x22C5 JUMP JUMPDEST JUMPDEST PUSH1 0x20 MUL ADD DUP2 DUP2 MSTORE POP POP PUSH32 0x1F50AE538A90DAB5325611E5768A7CCCF28BB29129D4DBBD61DA0139EE9598C0 DUP12 PUSH1 0xB PUSH1 0x18 DUP2 LT PUSH2 0x72D JUMPI PUSH2 0x72C PUSH2 0x22C5 JUMP JUMPDEST JUMPDEST PUSH1 0x20 MUL ADD DUP2 DUP2 MSTORE POP POP PUSH32 0x2ECA3C4A537A830EA534E3763694F7519197E4B8B3A65B2A942223A8FF66F793 DUP12 PUSH1 0xC PUSH1 0x18 DUP2 LT PUSH2 0x76B JUMPI PUSH2 0x76A PUSH2 0x22C5 JUMP JUMPDEST JUMPDEST PUSH1 0x20 MUL ADD DUP2 DUP2 MSTORE POP POP PUSH32 0x2BD19544C1FFCDC0D64FF4B989EDBF567D1177BA5B60C03BFCE962508E2B9B9F DUP12 PUSH1 0xD PUSH1 0x18 DUP2 LT PUSH2 0x7A9 JUMPI PUSH2 0x7A8 PUSH2 0x22C5 JUMP JUMPDEST JUMPDEST PUSH1 0x20 MUL ADD DUP2 DUP2 MSTORE POP POP PUSH32 0x21D1BA5CB674A7C33BFAEB6BBB1F0769699591503E88D5878D250114C224FD43 DUP12 PUSH1 0xE PUSH1 0x18 DUP2 LT PUSH2 0x7E7 JUMPI PUSH2 0x7E6 PUSH2 0x22C5 JUMP JUMPDEST JUMPDEST PUSH1 0x20 MUL ADD DUP2 DUP2 MSTORE POP POP PUSH32 0x150185EACFBB1CAA100E4B49F6074C2C117E1DD8AD46387414A50B875167FFE0 DUP12 PUSH1 0xF PUSH1 0x18 DUP2 LT PUSH2 0x825 JUMPI PUSH2 0x824 PUSH2 0x22C5 JUMP JUMPDEST JUMPDEST PUSH1 0x20 MUL ADD DUP2 DUP2 MSTORE POP POP PUSH32 0x158A3E0956B85F6031EC6A74A6190546528F44145B808E48B17E637FA5246D6B DUP12 PUSH1 0x10 PUSH1 0x18 DUP2 LT PUSH2 0x863 JUMPI PUSH2 0x862 PUSH2 0x22C5 JUMP JUMPDEST JUMPDEST PUSH1 0x20 MUL ADD DUP2 DUP2 MSTORE POP POP PUSH32 0x13D7BDAC8D88F977F1C304D4927A72026BCC92C2CDFE2E84475017E072094232 DUP12 PUSH1 0x11 PUSH1 0x18 DUP2 LT PUSH2 0x8A1 JUMPI PUSH2 0x8A0 PUSH2 0x22C5 JUMP JUMPDEST JUMPDEST PUSH1 0x20 MUL ADD DUP2 DUP2 MSTORE POP POP DUP2 DUP12 PUSH1 0x12 PUSH1 0x18 DUP2 LT PUSH2 0x8BF JUMPI PUSH2 0x8BE PUSH2 0x22C5 JUMP JUMPDEST JUMPDEST PUSH1 0x20 MUL ADD DUP2 DUP2 MSTORE POP POP DUP1 DUP12 PUSH1 0x13 PUSH1 0x18 DUP2 LT PUSH2 0x8DD JUMPI PUSH2 0x8DC PUSH2 0x22C5 JUMP JUMPDEST JUMPDEST PUSH1 0x20 MUL ADD DUP2 DUP2 MSTORE POP POP PUSH32 0xEFC2E6A8395E78AA3AD8343D38305063074040F19BEAC327DD1CC163B608F7A DUP12 PUSH1 0x14 PUSH1 0x18 DUP2 LT PUSH2 0x91B JUMPI PUSH2 0x91A PUSH2 0x22C5 JUMP JUMPDEST JUMPDEST PUSH1 0x20 MUL ADD DUP2 DUP2 MSTORE POP POP PUSH32 0x3F9101F90567B08E1CC967677E11870C91F0EBBD2A744B3DE38BBF0ACFD7886 DUP12 PUSH1 0x15 PUSH1 0x18 DUP2 LT PUSH2 0x959 JUMPI PUSH2 0x958 PUSH2 0x22C5 JUMP JUMPDEST JUMPDEST PUSH1 0x20 MUL ADD DUP2 DUP2 MSTORE POP POP PUSH32 0x41DC00CA96D0FD58AC3DDB242E13E829D30D73F8EF0DE9CB115D2885B0E1F9A DUP12 PUSH1 0x16 PUSH1 0x18 DUP2 LT PUSH2 0x997 JUMPI PUSH2 0x996 PUSH2 0x22C5 JUMP JUMPDEST JUMPDEST PUSH1 0x20 MUL ADD DUP2 DUP2 MSTORE POP POP PUSH32 0x226EBAD0E5DBA64F7B7E548EFA315AAA4EC3DB0053CDEC997599E7275D483060 DUP12 PUSH1 0x17 PUSH1 0x18 DUP2 LT PUSH2 0x9D5 JUMPI PUSH2 0x9D4 PUSH2 0x22C5 JUMP JUMPDEST JUMPDEST PUSH1 0x20 MUL ADD DUP2 DUP2 MSTORE POP POP PUSH0 PUSH2 0x9E7 PUSH2 0x20C6 JUMP JUMPDEST PUSH1 0x20 DUP2 PUSH2 0x300 DUP16 PUSH1 0x8 GAS STATICCALL SWAP2 POP DUP2 ISZERO DUP1 PUSH2 0xA19 JUMPI POP PUSH1 0x1 DUP2 PUSH0 PUSH1 0x1 DUP2 LT PUSH2 0xA11 JUMPI PUSH2 0xA10 PUSH2 0x22C5 JUMP JUMPDEST JUMPDEST PUSH1 0x20 MUL ADD MLOAD EQ ISZERO JUMPDEST ISZERO PUSH2 0xA50 JUMPI PUSH1 0x40 MLOAD PUSH32 0x7FCDD1F400000000000000000000000000000000000000000000000000000000 DUP2 MSTORE PUSH1 0x4 ADD PUSH1 0x40 MLOAD DUP1 SWAP2 SUB SWAP1 REVERT JUMPDEST POP POP POP POP POP POP POP POP POP POP POP POP POP POP POP JUMP JUMPDEST PUSH0 PUSH32 0x30644E72E131A029B85045B68181585D97816A916871CA8D3C208C16D87CFD47 DUP4 LT ISZERO DUP1 PUSH2 0xAB1 JUMPI POP PUSH32 0x30644E72E131A029B85045B68181585D97816A916871CA8D3C208C16D87CFD47 DUP3 LT ISZERO JUMPDEST ISZERO PUSH2 0xAE8 JUMPI PUSH1 0x40 MLOAD PUSH32 0x7FCDD1F400000000000000000000000000000000000000000000000000000000 DUP2 MSTORE PUSH1 0x4 ADD PUSH1 0x40 MLOAD DUP1 SWAP2 SUB SWAP1 REVERT JUMPDEST PUSH0 DUP4 EQ DUP1 ISZERO PUSH2 0xAF6 JUMPI POP PUSH0 DUP3 EQ JUMPDEST ISZERO PUSH2 0xB03 JUMPI PUSH0 SWAP1 POP PUSH2 0xC09 JUMP JUMPDEST PUSH0 PUSH2 0xBA1 PUSH32 0x30644E72E131A029B85045B68181585D97816A916871CA8D3C208C16D87CFD47 DUP1 PUSH2 0xB36 JUMPI PUSH2 0xB35 PUSH2 0x22F2 JUMP JUMPDEST JUMPDEST PUSH1 0x3 PUSH32 0x30644E72E131A029B85045B68181585D97816A916871CA8D3C208C16D87CFD47 DUP1 PUSH2 0xB67 JUMPI PUSH2 0xB66 PUSH2 0x22F2 JUMP JUMPDEST JUMPDEST DUP8 PUSH32 0x30644E72E131A029B85045B68181585D97816A916871CA8D3C208C16D87CFD47 DUP1 PUSH2 0xB97 JUMPI PUSH2 0xB96 PUSH2 0x22F2 JUMP JUMPDEST JUMPDEST DUP10 DUP11 MULMOD MULMOD ADDMOD PUSH2 0x1AE1 JUMP JUMPDEST SWAP1 POP DUP1 DUP4 SUB PUSH2 0xBB9 JUMPI PUSH0 PUSH1 0x1 DUP6 SWAP1 SHL OR SWAP2 POP POP PUSH2 0xC09 JUMP JUMPDEST PUSH2 0xBC2 DUP2 PUSH2 0x1B7D JUMP JUMPDEST DUP4 SUB PUSH2 0xBD7 JUMPI PUSH1 0x1 DUP1 DUP6 SWAP1 SHL OR SWAP2 POP POP PUSH2 0xC09 JUMP JUMPDEST PUSH1 0x40 MLOAD PUSH32 0x7FCDD1F400000000000000000000000000000000000000000000000000000000 DUP2 MSTORE PUSH1 0x4 ADD PUSH1 0x40 MLOAD DUP1 SWAP2 SUB SWAP1 REVERT JUMPDEST SWAP3 SWAP2 POP POP JUMP JUMPDEST PUSH0 PUSH0 PUSH32 0x30644E72E131A029B85045B68181585D97816A916871CA8D3C208C16D87CFD47 DUP7 LT ISZERO DUP1 PUSH2 0xC60 JUMPI POP PUSH32 0x30644E72E131A029B85045B68181585D97816A916871CA8D3C208C16D87CFD47 DUP6 LT ISZERO JUMPDEST DUP1 PUSH2 0xC8B JUMPI POP PUSH32 0x30644E72E131A029B85045B68181585D97816A916871CA8D3C208C16D87CFD47 DUP5 LT ISZERO JUMPDEST DUP1 PUSH2 0xCB6 JUMPI POP PUSH32 0x30644E72E131A029B85045B68181585D97816A916871CA8D3C208C16D87CFD47 DUP4 LT ISZERO JUMPDEST ISZERO PUSH2 0xCED JUMPI PUSH1 0x40 MLOAD PUSH32 0x7FCDD1F400000000000000000000000000000000000000000000000000000000 DUP2 MSTORE PUSH1 0x4 ADD PUSH1 0x40 MLOAD DUP1 SWAP2 SUB SWAP1 REVERT JUMPDEST PUSH0 DUP4 DUP6 DUP8 DUP10 OR OR OR SUB PUSH2 0xD05 JUMPI PUSH0 PUSH0 SWAP2 POP SWAP2 POP PUSH2 0x11D2 JUMP JUMPDEST PUSH0 PUSH0 PUSH0 PUSH32 0x30644E72E131A029B85045B68181585D97816A916871CA8D3C208C16D87CFD47 DUP1 PUSH2 0xD37 JUMPI PUSH2 0xD36 PUSH2 0x22F2 JUMP JUMPDEST JUMPDEST PUSH1 0x3 PUSH32 0x30644E72E131A029B85045B68181585D97816A916871CA8D3C208C16D87CFD47 PUSH2 0xD64 SWAP2 SWAP1 PUSH2 0x234C JUMP JUMPDEST PUSH32 0x30644E72E131A029B85045B68181585D97816A916871CA8D3C208C16D87CFD47 DUP1 PUSH2 0xD93 JUMPI PUSH2 0xD92 PUSH2 0x22F2 JUMP JUMPDEST JUMPDEST DUP11 DUP13 MULMOD MULMOD SWAP1 POP PUSH0 PUSH32 0x30644E72E131A029B85045B68181585D97816A916871CA8D3C208C16D87CFD47 DUP1 PUSH2 0xDC9 JUMPI PUSH2 0xDC8 PUSH2 0x22F2 JUMP JUMPDEST JUMPDEST DUP11 PUSH32 0x30644E72E131A029B85045B68181585D97816A916871CA8D3C208C16D87CFD47 DUP1 PUSH2 0xDF9 JUMPI PUSH2 0xDF8 PUSH2 0x22F2 JUMP JUMPDEST JUMPDEST DUP13 DUP14 MULMOD MULMOD SWAP1 POP PUSH0 PUSH32 0x30644E72E131A029B85045B68181585D97816A916871CA8D3C208C16D87CFD47 DUP1 PUSH2 0xE2F JUMPI PUSH2 0xE2E PUSH2 0x22F2 JUMP JUMPDEST JUMPDEST DUP11 PUSH32 0x30644E72E131A029B85045B68181585D97816A916871CA8D3C208C16D87CFD47 DUP1 PUSH2 0xE5F JUMPI PUSH2 0xE5E PUSH2 0x22F2 JUMP JUMPDEST JUMPDEST DUP13 DUP14 MULMOD MULMOD SWAP1 POP PUSH32 0x30644E72E131A029B85045B68181585D97816A916871CA8D3C208C16D87CFD47 DUP1 PUSH2 0xE94 JUMPI PUSH2 0xE93 PUSH2 0x22F2 JUMP JUMPDEST JUMPDEST PUSH32 0x30644E72E131A029B85045B68181585D97816A916871CA8D3C208C16D87CFD47 DUP1 PUSH2 0xEC3 JUMPI PUSH2 0xEC2 PUSH2 0x22F2 JUMP JUMPDEST JUMPDEST PUSH32 0x30644E72E131A029B85045B68181585D97816A916871CA8D3C208C16D87CFD47 DUP1 PUSH2 0xEF2 JUMPI PUSH2 0xEF1 PUSH2 0x22F2 JUMP JUMPDEST JUMPDEST DUP13 DUP7 MULMOD DUP5 ADDMOD PUSH32 0x2B149D40CEB8AAAE81BE18991BE06AC3B5B4C5E559DBEFA33267E6DC24A138E5 ADDMOD SWAP5 POP PUSH2 0xFD7 PUSH32 0x30644E72E131A029B85045B68181585D97816A916871CA8D3C208C16D87CFD47 DUP1 PUSH2 0xF4D JUMPI PUSH2 0xF4C PUSH2 0x22F2 JUMP JUMPDEST JUMPDEST PUSH32 0x30644E72E131A029B85045B68181585D97816A916871CA8D3C208C16D87CFD47 DUP1 PUSH2 0xF7C JUMPI PUSH2 0xF7B PUSH2 0x22F2 JUMP JUMPDEST JUMPDEST PUSH32 0x30644E72E131A029B85045B68181585D97816A916871CA8D3C208C16D87CFD47 DUP1 PUSH2 0xFAB JUMPI PUSH2 0xFAA PUSH2 0x22F2 JUMP JUMPDEST JUMPDEST DUP15 DUP8 MULMOD DUP5 ADDMOD PUSH32 0x2FCD3AC2A640A154EB23960892A85A68F031CA0C8344B23A577DCF1052B9E775 ADDMOD PUSH2 0x1B7D JUMP JUMPDEST SWAP4 POP POP POP POP PUSH0 PUSH0 PUSH2 0x107A PUSH32 0x30644E72E131A029B85045B68181585D97816A916871CA8D3C208C16D87CFD47 DUP1 PUSH2 0x1010 JUMPI PUSH2 0x100F PUSH2 0x22F2 JUMP JUMPDEST JUMPDEST PUSH32 0x30644E72E131A029B85045B68181585D97816A916871CA8D3C208C16D87CFD47 DUP1 PUSH2 0x103F JUMPI PUSH2 0x103E PUSH2 0x22F2 JUMP JUMPDEST JUMPDEST DUP6 DUP7 MULMOD PUSH32 0x30644E72E131A029B85045B68181585D97816A916871CA8D3C208C16D87CFD47 DUP1 PUSH2 0x1071 JUMPI PUSH2 0x1070 PUSH2 0x22F2 JUMP JUMPDEST JUMPDEST DUP8 DUP9 MULMOD ADDMOD PUSH2 0x1AE1 JUMP JUMPDEST SWAP1 POP PUSH2 0x1107 PUSH32 0x30644E72E131A029B85045B68181585D97816A916871CA8D3C208C16D87CFD47 DUP1 PUSH2 0x10AE JUMPI PUSH2 0x10AD PUSH2 0x22F2 JUMP JUMPDEST JUMPDEST PUSH32 0x183227397098D014DC2822DB40C0AC2ECBC0B548B438E5469E10460B6C3E7EA4 PUSH32 0x30644E72E131A029B85045B68181585D97816A916871CA8D3C208C16D87CFD47 DUP1 PUSH2 0x10FE JUMPI PUSH2 0x10FD PUSH2 0x22F2 JUMP JUMPDEST JUMPDEST DUP5 DUP9 ADDMOD MULMOD PUSH2 0x1BE8 JUMP JUMPDEST ISZERO SWAP2 POP POP PUSH2 0x1116 DUP4 DUP4 DUP4 PUSH2 0x1C52 JUMP JUMPDEST DUP1 SWAP4 POP DUP2 SWAP5 POP POP POP DUP3 DUP8 EQ DUP1 ISZERO PUSH2 0x112C JUMPI POP DUP2 DUP7 EQ JUMPDEST ISZERO PUSH2 0x1154 JUMPI PUSH0 DUP2 PUSH2 0x113D JUMPI PUSH0 PUSH2 0x1140 JUMP JUMPDEST PUSH1 0x2 JUMPDEST PUSH1 0xFF AND PUSH1 0x2 DUP12 SWAP1 SHL OR OR SWAP5 POP DUP8 SWAP4 POP PUSH2 0x11CE JUMP JUMPDEST PUSH2 0x115D DUP4 PUSH2 0x1B7D JUMP JUMPDEST DUP8 EQ DUP1 ISZERO PUSH2 0x1172 JUMPI POP PUSH2 0x116F DUP3 PUSH2 0x1B7D JUMP JUMPDEST DUP7 EQ JUMPDEST ISZERO PUSH2 0x119B JUMPI PUSH1 0x1 DUP2 PUSH2 0x1184 JUMPI PUSH0 PUSH2 0x1187 JUMP JUMPDEST PUSH1 0x2 JUMPDEST PUSH1 0xFF AND PUSH1 0x2 DUP12 SWAP1 SHL OR OR SWAP5 POP DUP8 SWAP4 POP PUSH2 0x11CD JUMP JUMPDEST PUSH1 0x40 MLOAD PUSH32 0x7FCDD1F400000000000000000000000000000000000000000000000000000000 DUP2 MSTORE PUSH1 0x4 ADD PUSH1 0x40 MLOAD DUP1 SWAP2 SUB SWAP1 REVERT JUMPDEST JUMPDEST POP POP POP JUMPDEST SWAP5 POP SWAP5 SWAP3 POP POP POP JUMP JUMPDEST PUSH0 PUSH0 PUSH0 PUSH1 0x1 SWAP1 POP PUSH1 0x40 MLOAD PUSH1 0x40 DUP2 ADD PUSH0 PUSH32 0x2AD53AE3F81122123797F2B78B4BA9E8A9385CDD15067E2820586E3B42CE3E78 DUP4 MSTORE PUSH32 0x17322CAFEC6E6AB50971A3405D24C0218C34BAC7D68C3098A02F5B05564B0932 PUSH1 0x20 DUP5 ADD MSTORE PUSH32 0x365F4F4BFE37F271AFB70296FBCFC1BE0D1AF8630CF61A9203A606B871B6223 DUP3 MSTORE PUSH32 0x3A200293DDA046E0C58B47E9F6A829E4AE1AE81C120D5BC1773D760668B57F6 PUSH1 0x20 DUP4 ADD MSTORE DUP7 CALLDATALOAD SWAP1 POP DUP1 PUSH1 0x40 DUP4 ADD MSTORE PUSH32 0x30644E72E131A029B85045B68181585D2833E84879B9709143E1F593F0000001 DUP2 LT DUP5 AND SWAP4 POP PUSH1 0x40 DUP3 PUSH1 0x60 DUP5 PUSH1 0x7 GAS STATICCALL DUP5 AND SWAP4 POP PUSH1 0x40 DUP4 PUSH1 0x80 DUP6 PUSH1 0x6 GAS STATICCALL DUP5 AND SWAP4 POP PUSH32 0x2E04BBD8D29B409121FF0D86AEC3FF0BF00A2D42104C9E264C8C3C0B097C6B69 DUP3 MSTORE PUSH32 0x1048CD6AD5B7549FDA6C4BBF20E827B365288C43954C6014C248D8FA40D7C7F5 PUSH1 0x20 DUP4 ADD MSTORE PUSH1 0x20 DUP8 ADD CALLDATALOAD SWAP1 POP DUP1 PUSH1 0x40 DUP4 ADD MSTORE PUSH32 0x30644E72E131A029B85045B68181585D2833E84879B9709143E1F593F0000001 DUP2 LT DUP5 AND SWAP4 POP PUSH1 0x40 DUP3 PUSH1 0x60 DUP5 PUSH1 0x7 GAS STATICCALL DUP5 AND SWAP4 POP PUSH1 0x40 DUP4 PUSH1 0x80 DUP6 PUSH1 0x6 GAS STATICCALL DUP5 AND SWAP4 POP PUSH32 0x17C27E91A4717A4D757B51838A291F162C5A8CFFA155C39732280E6ACB345A9D DUP3 MSTORE PUSH32 0x3361F7D2F02A1A448D4370AA60D46B14D58993EE00AD5F18DB0745FBFAF89E8 PUSH1 0x20 DUP4 ADD MSTORE PUSH1 0x40 DUP8 ADD CALLDATALOAD SWAP1 POP DUP1 PUSH1 0x40 DUP4 ADD MSTORE PUSH32 0x30644E72E131A029B85045B68181585D2833E84879B9709143E1F593F0000001 DUP2 LT DUP5 AND SWAP4 POP PUSH1 0x40 DUP3 PUSH1 0x60 DUP5 PUSH1 0x7 GAS STATICCALL DUP5 AND SWAP4 POP PUSH1 0x40 DUP4 PUSH1 0x80 DUP6 PUSH1 0x6 GAS STATICCALL DUP5 AND SWAP4 POP PUSH32 0x2CCA904853CF4E653FF22AB6580A20EE3B1F1499F45C1A0BDDDEDEB3D2353E1A DUP3 MSTORE PUSH32 0x18DECC191DCE3F27FCAD86D09AC47050DC583E3C7A0D4AE86B6849DDCE7990DE PUSH1 0x20 DUP4 ADD MSTORE PUSH1 0x60 DUP8 ADD CALLDATALOAD SWAP1 POP DUP1 PUSH1 0x40 DUP4 ADD MSTORE PUSH32 0x30644E72E131A029B85045B68181585D2833E84879B9709143E1F593F0000001 DUP2 LT DUP5 AND SWAP4 POP PUSH1 0x40 DUP3 PUSH1 0x60 DUP5 PUSH1 0x7 GAS STATICCALL DUP5 AND SWAP4 POP PUSH1 0x40 DUP4 PUSH1 0x80 DUP6 PUSH1 0x6 GAS STATICCALL DUP5 AND SWAP4 POP PUSH0 DUP3 MSTORE PUSH0 PUSH1 0x20 DUP4 ADD MSTORE PUSH1 0x80 DUP8 ADD CALLDATALOAD SWAP1 POP DUP1 PUSH1 0x40 DUP4 ADD MSTORE PUSH32 0x30644E72E131A029B85045B68181585D2833E84879B9709143E1F593F0000001 DUP2 LT DUP5 AND SWAP4 POP PUSH1 0x40 DUP3 PUSH1 0x60 DUP5 PUSH1 0x7 GAS STATICCALL DUP5 AND SWAP4 POP PUSH1 0x40 DUP4 PUSH1 0x80 DUP6 PUSH1 0x6 GAS STATICCALL DUP5 AND SWAP4 POP PUSH32 0xC5FC71213FF8DFB619367F7490666F29D57404508D55526CD035CEFD7A497F9 DUP3 MSTORE PUSH32 0x7E68CCD70EE91AA4A100036A19944EB04D654E65D2A83E496DC70372B880818 PUSH1 0x20 DUP4 ADD MSTORE PUSH1 0xA0 DUP8 ADD CALLDATALOAD SWAP1 POP DUP1 PUSH1 0x40 DUP4 ADD MSTORE PUSH32 0x30644E72E131A029B85045B68181585D2833E84879B9709143E1F593F0000001 DUP2 LT DUP5 AND SWAP4 POP PUSH1 0x40 DUP3 PUSH1 0x60 DUP5 PUSH1 0x7 GAS STATICCALL DUP5 AND SWAP4 POP PUSH1 0x40 DUP4 PUSH1 0x80 DUP6 PUSH1 0x6 GAS STATICCALL DUP5 AND SWAP4 POP DUP3 MLOAD SWAP6 POP PUSH1 0x20 DUP4 ADD MLOAD SWAP5 POP POP POP POP DUP1 PUSH2 0x15CB JUMPI PUSH1 0x40 MLOAD PUSH32 0xA54F8E2700000000000000000000000000000000000000000000000000000000 DUP2 MSTORE PUSH1 0x4 ADD PUSH1 0x40 MLOAD DUP1 SWAP2 SUB SWAP1 REVERT JUMPDEST POP SWAP2 POP SWAP2 JUMP JUMPDEST PUSH0 PUSH0 PUSH0 DUP4 SUB PUSH2 0x15E5 JUMPI PUSH0 PUSH0 SWAP2 POP SWAP2 POP PUSH2 0x1701 JUMP JUMPDEST PUSH0 PUSH1 0x1 DUP1 DUP6 AND EQ SWAP1 POP PUSH1 0x1 DUP5 SWAP1 SHR SWAP3 POP PUSH32 0x30644E72E131A029B85045B68181585D97816A916871CA8D3C208C16D87CFD47 DUP4 LT PUSH2 0x164E JUMPI PUSH1 0x40 MLOAD PUSH32 0x7FCDD1F400000000000000000000000000000000000000000000000000000000 DUP2 MSTORE PUSH1 0x4 ADD PUSH1 0x40 MLOAD DUP1 SWAP2 SUB SWAP1 REVERT JUMPDEST PUSH2 0x16EB PUSH32 0x30644E72E131A029B85045B68181585D97816A916871CA8D3C208C16D87CFD47 DUP1 PUSH2 0x1680 JUMPI PUSH2 0x167F PUSH2 0x22F2 JUMP JUMPDEST JUMPDEST PUSH1 0x3 PUSH32 0x30644E72E131A029B85045B68181585D97816A916871CA8D3C208C16D87CFD47 DUP1 PUSH2 0x16B1 JUMPI PUSH2 0x16B0 PUSH2 0x22F2 JUMP JUMPDEST JUMPDEST DUP7 PUSH32 0x30644E72E131A029B85045B68181585D97816A916871CA8D3C208C16D87CFD47 DUP1 PUSH2 0x16E1 JUMPI PUSH2 0x16E0 PUSH2 0x22F2 JUMP JUMPDEST JUMPDEST DUP9 DUP10 MULMOD MULMOD ADDMOD PUSH2 0x1AE1 JUMP JUMPDEST SWAP2 POP DUP1 ISZERO PUSH2 0x16FF JUMPI PUSH2 0x16FC DUP3 PUSH2 0x1B7D JUMP JUMPDEST SWAP2 POP JUMPDEST POP JUMPDEST SWAP2 POP SWAP2 JUMP JUMPDEST PUSH0 PUSH0 PUSH0 PUSH0 PUSH0 DUP7 EQ DUP1 ISZERO PUSH2 0x1718 JUMPI POP PUSH0 DUP6 EQ JUMPDEST ISZERO PUSH2 0x172E JUMPI PUSH0 PUSH0 PUSH0 PUSH0 SWAP4 POP SWAP4 POP SWAP4 POP SWAP4 POP PUSH2 0x1AD8 JUMP JUMPDEST PUSH0 PUSH1 0x1 DUP1 DUP9 AND EQ SWAP1 POP PUSH0 PUSH1 0x2 DUP1 DUP10 AND EQ SWAP1 POP PUSH1 0x2 DUP9 SWAP1 SHR SWAP6 POP DUP7 SWAP5 POP PUSH32 0x30644E72E131A029B85045B68181585D97816A916871CA8D3C208C16D87CFD47 DUP7 LT ISZERO DUP1 PUSH2 0x1799 JUMPI POP PUSH32 0x30644E72E131A029B85045B68181585D97816A916871CA8D3C208C16D87CFD47 DUP6 LT ISZERO JUMPDEST ISZERO PUSH2 0x17D0 JUMPI PUSH1 0x40 MLOAD PUSH32 0x7FCDD1F400000000000000000000000000000000000000000000000000000000 DUP2 MSTORE PUSH1 0x4 ADD PUSH1 0x40 MLOAD DUP1 SWAP2 SUB SWAP1 REVERT JUMPDEST PUSH0 PUSH32 0x30644E72E131A029B85045B68181585D97816A916871CA8D3C208C16D87CFD47 DUP1 PUSH2 0x1800 JUMPI PUSH2 0x17FF PUSH2 0x22F2 JUMP JUMPDEST JUMPDEST PUSH1 0x3 PUSH32 0x30644E72E131A029B85045B68181585D97816A916871CA8D3C208C16D87CFD47 PUSH2 0x182D SWAP2 SWAP1 PUSH2 0x234C JUMP JUMPDEST PUSH32 0x30644E72E131A029B85045B68181585D97816A916871CA8D3C208C16D87CFD47 DUP1 PUSH2 0x185C JUMPI PUSH2 0x185B PUSH2 0x22F2 JUMP JUMPDEST JUMPDEST DUP9 DUP11 MULMOD MULMOD SWAP1 POP PUSH0 PUSH32 0x30644E72E131A029B85045B68181585D97816A916871CA8D3C208C16D87CFD47 DUP1 PUSH2 0x1892 JUMPI PUSH2 0x1891 PUSH2 0x22F2 JUMP JUMPDEST JUMPDEST DUP9 PUSH32 0x30644E72E131A029B85045B68181585D97816A916871CA8D3C208C16D87CFD47 DUP1 PUSH2 0x18C2 JUMPI PUSH2 0x18C1 PUSH2 0x22F2 JUMP JUMPDEST JUMPDEST DUP11 DUP12 MULMOD MULMOD SWAP1 POP PUSH0 PUSH32 0x30644E72E131A029B85045B68181585D97816A916871CA8D3C208C16D87CFD47 DUP1 PUSH2 0x18F8 JUMPI PUSH2 0x18F7 PUSH2 0x22F2 JUMP JUMPDEST JUMPDEST DUP9 PUSH32 0x30644E72E131A029B85045B68181585D97816A916871CA8D3C208C16D87CFD47 DUP1 PUSH2 0x1928 JUMPI PUSH2 0x1927 PUSH2 0x22F2 JUMP JUMPDEST JUMPDEST DUP11 DUP12 MULMOD MULMOD SWAP1 POP PUSH32 0x30644E72E131A029B85045B68181585D97816A916871CA8D3C208C16D87CFD47 DUP1 PUSH2 0x195D JUMPI PUSH2 0x195C PUSH2 0x22F2 JUMP JUMPDEST JUMPDEST PUSH32 0x30644E72E131A029B85045B68181585D97816A916871CA8D3C208C16D87CFD47 DUP1 PUSH2 0x198C JUMPI PUSH2 0x198B PUSH2 0x22F2 JUMP JUMPDEST JUMPDEST PUSH32 0x30644E72E131A029B85045B68181585D97816A916871CA8D3C208C16D87CFD47 DUP1 PUSH2 0x19BB JUMPI PUSH2 0x19BA PUSH2 0x22F2 JUMP JUMPDEST JUMPDEST DUP11 DUP7 MULMOD DUP5 ADDMOD PUSH32 0x2B149D40CEB8AAAE81BE18991BE06AC3B5B4C5E559DBEFA33267E6DC24A138E5 ADDMOD SWAP7 POP PUSH2 0x1AA0 PUSH32 0x30644E72E131A029B85045B68181585D97816A916871CA8D3C208C16D87CFD47 DUP1 PUSH2 0x1A16 JUMPI PUSH2 0x1A15 PUSH2 0x22F2 JUMP JUMPDEST JUMPDEST PUSH32 0x30644E72E131A029B85045B68181585D97816A916871CA8D3C208C16D87CFD47 DUP1 PUSH2 0x1A45 JUMPI PUSH2 0x1A44 PUSH2 0x22F2 JUMP JUMPDEST JUMPDEST PUSH32 0x30644E72E131A029B85045B68181585D97816A916871CA8D3C208C16D87CFD47 DUP1 PUSH2 0x1A74 JUMPI PUSH2 0x1A73 PUSH2 0x22F2 JUMP JUMPDEST JUMPDEST DUP13 DUP8 MULMOD DUP5 ADDMOD PUSH32 0x2FCD3AC2A640A154EB23960892A85A68F031CA0C8344B23A577DCF1052B9E775 ADDMOD PUSH2 0x1B7D JUMP JUMPDEST SWAP6 POP PUSH2 0x1AAD DUP8 DUP8 DUP7 PUSH2 0x1C52 JUMP JUMPDEST DUP1 SWAP8 POP DUP2 SWAP9 POP POP POP DUP5 ISZERO PUSH2 0x1AD2 JUMPI PUSH2 0x1AC4 DUP8 PUSH2 0x1B7D JUMP JUMPDEST SWAP7 POP PUSH2 0x1ACF DUP7 PUSH2 0x1B7D JUMP JUMPDEST SWAP6 POP JUMPDEST POP POP POP POP POP JUMPDEST SWAP3 SWAP6 SWAP2 SWAP5 POP SWAP3 POP JUMP JUMPDEST PUSH0 PUSH2 0x1B0C DUP3 PUSH32 0xC19139CB84C680A6E14116DA060561765E05AA45A1C72A34F082305B61F3F52 PUSH2 0x1F4D JUMP JUMPDEST SWAP1 POP DUP2 PUSH32 0x30644E72E131A029B85045B68181585D97816A916871CA8D3C208C16D87CFD47 DUP1 PUSH2 0x1B3E JUMPI PUSH2 0x1B3D PUSH2 0x22F2 JUMP JUMPDEST JUMPDEST DUP3 DUP4 MULMOD EQ PUSH2 0x1B78 JUMPI PUSH1 0x40 MLOAD PUSH32 0x7FCDD1F400000000000000000000000000000000000000000000000000000000 DUP2 MSTORE PUSH1 0x4 ADD PUSH1 0x40 MLOAD DUP1 SWAP2 SUB SWAP1 REVERT JUMPDEST SWAP2 SWAP1 POP JUMP JUMPDEST PUSH0 PUSH32 0x30644E72E131A029B85045B68181585D97816A916871CA8D3C208C16D87CFD47 DUP1 DUP4 DUP2 PUSH2 0x1BAF JUMPI PUSH2 0x1BAE PUSH2 0x22F2 JUMP JUMPDEST JUMPDEST MOD PUSH32 0x30644E72E131A029B85045B68181585D97816A916871CA8D3C208C16D87CFD47 SUB DUP2 PUSH2 0x1BE0 JUMPI PUSH2 0x1BDF PUSH2 0x22F2 JUMP JUMPDEST JUMPDEST MOD SWAP1 POP SWAP2 SWAP1 POP JUMP JUMPDEST PUSH0 PUSH0 PUSH2 0x1C14 DUP4 PUSH32 0xC19139CB84C680A6E14116DA060561765E05AA45A1C72A34F082305B61F3F52 PUSH2 0x1F4D JUMP JUMPDEST SWAP1 POP DUP3 PUSH32 0x30644E72E131A029B85045B68181585D97816A916871CA8D3C208C16D87CFD47 DUP1 PUSH2 0x1C46 JUMPI PUSH2 0x1C45 PUSH2 0x22F2 JUMP JUMPDEST JUMPDEST DUP3 DUP4 MULMOD EQ SWAP2 POP POP SWAP2 SWAP1 POP JUMP JUMPDEST PUSH0 PUSH0 PUSH0 PUSH2 0x1CF1 PUSH32 0x30644E72E131A029B85045B68181585D97816A916871CA8D3C208C16D87CFD47 DUP1 PUSH2 0x1C87 JUMPI PUSH2 0x1C86 PUSH2 0x22F2 JUMP JUMPDEST JUMPDEST PUSH32 0x30644E72E131A029B85045B68181585D97816A916871CA8D3C208C16D87CFD47 DUP1 PUSH2 0x1CB6 JUMPI PUSH2 0x1CB5 PUSH2 0x22F2 JUMP JUMPDEST JUMPDEST DUP8 DUP9 MULMOD PUSH32 0x30644E72E131A029B85045B68181585D97816A916871CA8D3C208C16D87CFD47 DUP1 PUSH2 0x1CE8 JUMPI PUSH2 0x1CE7 PUSH2 0x22F2 JUMP JUMPDEST JUMPDEST DUP10 DUP11 MULMOD ADDMOD PUSH2 0x1AE1 JUMP JUMPDEST SWAP1 POP DUP4 ISZERO PUSH2 0x1D05 JUMPI PUSH2 0x1D02 DUP2 PUSH2 0x1B7D JUMP JUMPDEST SWAP1 POP JUMPDEST PUSH2 0x1D90 PUSH32 0x30644E72E131A029B85045B68181585D97816A916871CA8D3C208C16D87CFD47 DUP1 PUSH2 0x1D37 JUMPI PUSH2 0x1D36 PUSH2 0x22F2 JUMP JUMPDEST JUMPDEST PUSH32 0x183227397098D014DC2822DB40C0AC2ECBC0B548B438E5469E10460B6C3E7EA4 PUSH32 0x30644E72E131A029B85045B68181585D97816A916871CA8D3C208C16D87CFD47 DUP1 PUSH2 0x1D87 JUMPI PUSH2 0x1D86 PUSH2 0x22F2 JUMP JUMPDEST JUMPDEST DUP5 DUP11 ADDMOD MULMOD PUSH2 0x1AE1 JUMP JUMPDEST SWAP3 POP PUSH32 0x30644E72E131A029B85045B68181585D97816A916871CA8D3C208C16D87CFD47 DUP1 PUSH2 0x1DC1 JUMPI PUSH2 0x1DC0 PUSH2 0x22F2 JUMP JUMPDEST JUMPDEST PUSH2 0x1DFC PUSH32 0x30644E72E131A029B85045B68181585D97816A916871CA8D3C208C16D87CFD47 DUP1 PUSH2 0x1DF3 JUMPI PUSH2 0x1DF2 PUSH2 0x22F2 JUMP JUMPDEST JUMPDEST PUSH1 0x2 DUP7 MULMOD PUSH2 0x1FE4 JUMP JUMPDEST DUP7 MULMOD SWAP2 POP PUSH32 0x30644E72E131A029B85045B68181585D97816A916871CA8D3C208C16D87CFD47 DUP1 PUSH2 0x1E2F JUMPI PUSH2 0x1E2E PUSH2 0x22F2 JUMP JUMPDEST JUMPDEST PUSH2 0x1E69 PUSH32 0x30644E72E131A029B85045B68181585D97816A916871CA8D3C208C16D87CFD47 DUP1 PUSH2 0x1E61 JUMPI PUSH2 0x1E60 PUSH2 0x22F2 JUMP JUMPDEST JUMPDEST DUP5 DUP6 MULMOD PUSH2 0x1B7D JUMP JUMPDEST PUSH32 0x30644E72E131A029B85045B68181585D97816A916871CA8D3C208C16D87CFD47 DUP1 PUSH2 0x1E98 JUMPI PUSH2 0x1E97 PUSH2 0x22F2 JUMP JUMPDEST JUMPDEST DUP6 DUP7 MULMOD ADDMOD DUP7 EQ ISZERO DUP1 PUSH2 0x1F0D JUMPI POP PUSH32 0x30644E72E131A029B85045B68181585D97816A916871CA8D3C208C16D87CFD47 DUP1 PUSH2 0x1ED4 JUMPI PUSH2 0x1ED3 PUSH2 0x22F2 JUMP JUMPDEST JUMPDEST PUSH32 0x30644E72E131A029B85045B68181585D97816A916871CA8D3C208C16D87CFD47 DUP1 PUSH2 0x1F03 JUMPI PUSH2 0x1F02 PUSH2 0x22F2 JUMP JUMPDEST JUMPDEST DUP4 DUP6 MULMOD PUSH1 0x2 MULMOD DUP6 EQ ISZERO JUMPDEST ISZERO PUSH2 0x1F44 JUMPI PUSH1 0x40 MLOAD PUSH32 0x7FCDD1F400000000000000000000000000000000000000000000000000000000 DUP2 MSTORE PUSH1 0x4 ADD PUSH1 0x40 MLOAD DUP1 SWAP2 SUB SWAP1 REVERT JUMPDEST POP SWAP4 POP SWAP4 SWAP2 POP POP JUMP JUMPDEST PUSH0 PUSH0 PUSH1 0x40 MLOAD PUSH1 0x20 DUP2 MSTORE PUSH1 0x20 DUP1 DUP3 ADD MSTORE PUSH1 0x20 PUSH1 0x40 DUP3 ADD MSTORE DUP5 PUSH1 0x60 DUP3 ADD MSTORE DUP4 PUSH1 0x80 DUP3 ADD MSTORE PUSH32 0x30644E72E131A029B85045B68181585D97816A916871CA8D3C208C16D87CFD47 PUSH1 0xA0 DUP3 ADD MSTORE PUSH1 0x20 DUP2 PUSH1 0xC0 DUP4 PUSH1 0x5 GAS STATICCALL SWAP2 POP DUP1 MLOAD SWAP3 POP POP DUP1 PUSH2 0x1FDD JUMPI PUSH1 0x40 MLOAD PUSH32 0x7FCDD1F400000000000000000000000000000000000000000000000000000000 DUP2 MSTORE PUSH1 0x4 ADD PUSH1 0x40 MLOAD DUP1 SWAP2 SUB SWAP1 REVERT JUMPDEST POP SWAP3 SWAP2 POP POP JUMP JUMPDEST PUSH0 PUSH2 0x200F DUP3 PUSH32 0x30644E72E131A029B85045B68181585D97816A916871CA8D3C208C16D87CFD45 PUSH2 0x1F4D JUMP JUMPDEST SWAP1 POP PUSH1 0x1 PUSH32 0x30644E72E131A029B85045B68181585D97816A916871CA8D3C208C16D87CFD47 DUP1 PUSH2 0x2042 JUMPI PUSH2 0x2041 PUSH2 0x22F2 JUMP JUMPDEST JUMPDEST DUP3 DUP5 MULMOD EQ PUSH2 0x207C JUMPI PUSH1 0x40 MLOAD PUSH32 0x7FCDD1F400000000000000000000000000000000000000000000000000000000 DUP2 MSTORE PUSH1 0x4 ADD PUSH1 0x40 MLOAD DUP1 SWAP2 SUB SWAP1 REVERT JUMPDEST SWAP2 SWAP1 POP JUMP JUMPDEST PUSH1 0x40 MLOAD DUP1 PUSH1 0x80 ADD PUSH1 0x40 MSTORE DUP1 PUSH1 0x4 SWAP1 PUSH1 0x20 DUP3 MUL DUP1 CALLDATASIZE DUP4 CALLDATACOPY DUP1 DUP3 ADD SWAP2 POP POP SWAP1 POP POP SWAP1 JUMP JUMPDEST PUSH1 0x40 MLOAD DUP1 PUSH2 0x300 ADD PUSH1 0x40 MSTORE DUP1 PUSH1 0x18 SWAP1 PUSH1 0x20 DUP3 MUL DUP1 CALLDATASIZE DUP4 CALLDATACOPY DUP1 DUP3 ADD SWAP2 POP POP SWAP1 POP POP SWAP1 JUMP JUMPDEST PUSH1 0x40 MLOAD DUP1 PUSH1 0x20 ADD PUSH1 0x40 MSTORE DUP1 PUSH1 0x1 SWAP1 PUSH1 0x20 DUP3 MUL DUP1 CALLDATASIZE DUP4 CALLDATACOPY DUP1 DUP3 ADD SWAP2 POP POP SWAP1 POP POP SWAP1 JUMP JUMPDEST PUSH0 PUSH0 REVERT JUMPDEST PUSH0 PUSH0 REVERT JUMPDEST PUSH0 DUP2 SWAP1 POP DUP3 PUSH1 0x20 PUSH1 0x8 MUL DUP3 ADD GT ISZERO PUSH2 0x210B JUMPI PUSH2 0x210A PUSH2 0x20EC JUMP JUMPDEST JUMPDEST SWAP3 SWAP2 POP POP JUMP JUMPDEST PUSH0 PUSH2 0x100 DUP3 DUP5 SUB SLT ISZERO PUSH2 0x2127 JUMPI PUSH2 0x2126 PUSH2 0x20E8 JUMP JUMPDEST JUMPDEST PUSH0 PUSH2 0x2134 DUP5 DUP3 DUP6 ADD PUSH2 0x20F0 JUMP JUMPDEST SWAP2 POP POP SWAP3 SWAP2 POP POP JUMP JUMPDEST PUSH0 PUSH1 0x4 SWAP1 POP SWAP2 SWAP1 POP JUMP JUMPDEST PUSH0 DUP2 SWAP1 POP SWAP3 SWAP2 POP POP JUMP JUMPDEST PUSH0 DUP2 SWAP1 POP SWAP2 SWAP1 POP JUMP JUMPDEST PUSH0 DUP2 SWAP1 POP SWAP2 SWAP1 POP JUMP JUMPDEST PUSH2 0x216C DUP2 PUSH2 0x215A JUMP JUMPDEST DUP3 MSTORE POP POP JUMP JUMPDEST PUSH0 PUSH2 0x217D DUP4 DUP4 PUSH2 0x2163 JUMP JUMPDEST PUSH1 0x20 DUP4 ADD SWAP1 POP SWAP3 SWAP2 POP POP JUMP JUMPDEST PUSH0 PUSH1 0x20 DUP3 ADD SWAP1 POP SWAP2 SWAP1 POP JUMP JUMPDEST PUSH2 0x219E DUP2 PUSH2 0x213D JUMP JUMPDEST PUSH2 0x21A8 DUP2 DUP5 PUSH2 0x2147 JUMP JUMPDEST SWAP3 POP PUSH2 0x21B3 DUP3 PUSH2 0x2151 JUMP JUMPDEST DUP1 PUSH0 JUMPDEST DUP4 DUP2 LT ISZERO PUSH2 0x21E3 JUMPI DUP2 MLOAD PUSH2 0x21CA DUP8 DUP3 PUSH2 0x2172 JUMP JUMPDEST SWAP7 POP PUSH2 0x21D5 DUP4 PUSH2 0x2189 JUMP JUMPDEST SWAP3 POP POP PUSH1 0x1 DUP2 ADD SWAP1 POP PUSH2 0x21B6 JUMP JUMPDEST POP POP POP POP POP POP JUMP JUMPDEST PUSH0 PUSH1 0x80 DUP3 ADD SWAP1 POP PUSH2 0x21FE PUSH0 DUP4 ADD DUP5 PUSH2 0x2195 JUMP JUMPDEST SWAP3 SWAP2 POP POP JUMP JUMPDEST PUSH0 DUP2 SWAP1 POP DUP3 PUSH1 0x20 PUSH1 0x6 MUL DUP3 ADD GT ISZERO PUSH2 0x221F JUMPI PUSH2 0x221E PUSH2 0x20EC JUMP JUMPDEST JUMPDEST SWAP3 SWAP2 POP POP JUMP JUMPDEST PUSH0 PUSH0 PUSH2 0x1C0 DUP4 DUP6 SUB SLT ISZERO PUSH2 0x223C JUMPI PUSH2 0x223B PUSH2 0x20E8 JUMP JUMPDEST JUMPDEST PUSH0 PUSH2 0x2249 DUP6 DUP3 DUP7 ADD PUSH2 0x20F0 JUMP JUMPDEST SWAP3 POP POP PUSH2 0x100 PUSH2 0x225B DUP6 DUP3 DUP7 ADD PUSH2 0x2204 JUMP JUMPDEST SWAP2 POP POP SWAP3 POP SWAP3 SWAP1 POP JUMP JUMPDEST PUSH0 DUP2 SWAP1 POP DUP3 PUSH1 0x20 PUSH1 0x4 MUL DUP3 ADD GT ISZERO PUSH2 0x2280 JUMPI PUSH2 0x227F PUSH2 0x20EC JUMP JUMPDEST JUMPDEST SWAP3 SWAP2 POP POP JUMP JUMPDEST PUSH0 PUSH0 PUSH2 0x140 DUP4 DUP6 SUB SLT ISZERO PUSH2 0x229D JUMPI PUSH2 0x229C PUSH2 0x20E8 JUMP JUMPDEST JUMPDEST PUSH0 PUSH2 0x22AA DUP6 DUP3 DUP7 ADD PUSH2 0x2265 JUMP JUMPDEST SWAP3 POP POP PUSH1 0x80 PUSH2 0x22BB DUP6 DUP3 DUP7 ADD PUSH2 0x2204 JUMP JUMPDEST SWAP2 POP POP SWAP3 POP SWAP3 SWAP1 POP JUMP JUMPDEST PUSH32 0x4E487B7100000000000000000000000000000000000000000000000000000000 PUSH0 MSTORE PUSH1 0x32 PUSH1 0x4 MSTORE PUSH1 0x24 PUSH0 REVERT JUMPDEST PUSH32 0x4E487B7100000000000000000000000000000000000000000000000000000000 PUSH0 MSTORE PUSH1 0x12 PUSH1 0x4 MSTORE PUSH1 0x24 PUSH0 REVERT JUMPDEST PUSH32 0x4E487B7100000000000000000000000000000000000000000000000000000000 PUSH0 MSTORE PUSH1 0x11 PUSH1 0x4 MSTORE PUSH1 0x24 PUSH0 REVERT JUMPDEST PUSH0 PUSH2 0x2356 DUP3 PUSH2 0x215A JUMP JUMPDEST SWAP2 POP PUSH2 0x2361 DUP4 PUSH2 0x215A JUMP JUMPDEST SWAP3 POP DUP3 DUP3 SUB SWAP1 POP DUP2 DUP2 GT ISZERO PUSH2 0x2379 JUMPI PUSH2 0x2378 PUSH2 0x231F JUMP JUMPDEST JUMPDEST SWAP3 SWAP2 POP POP JUMP INVALID LOG2 PUSH5 0x6970667358 0x22 SLT KECCAK256 NUMBER 0xD 0xC PREVRANDAO ADDRESS 0xC0 NUMBER NUMBER OR DUP7 0xCB 0x29 PUSH2 0x5396 DUPN 0xB9 PUSH19 0x7A7772CB9C62CE34442AFD9415EA64736F6C63 NUMBER STOP ADDMOD 0x1F STOP CALLER "
				},
				"gasEstimates": {
					"creation": {
						"codeDepositCost": "1828200",
						"executionCost": "1924",
						"totalCost": "1830124"
					},
					"external": {
						"compressProof(uint256[8])": "infinite",
						"verifyCompressedProof(uint256[4],uint256[6])": "infinite",
						"verifyProof(uint256[8],uint256[6])": "infinite"
					},
					"internal": {
						"compress_g1(uint256,uint256)": "infinite",
						"compress_g2(uint256,uint256,uint256,uint256)": "infinite",
						"decompress_g1(uint256)": "infinite",
						"decompress_g2(uint256,uint256)": "infinite",
						"exp(uint256,uint256)": "infinite",
						"invert_Fp(uint256)": "infinite",
						"isSquare_Fp(uint256)": "infinite",
						"negate(uint256)": "83",
						"publicInputMSM(uint256[6] calldata)": "infinite",
						"sqrt_Fp(uint256)": "infinite",
						"sqrt_Fp2(uint256,uint256,bool)": "infinite"
					}
				},
				"methodIdentifiers": {
					"compressProof(uint256[8])": "44f63692",
					"verifyCompressedProof(uint256[4],uint256[6])": "f7169189",
					"verifyProof(uint256[8],uint256[6])": "9cb28658"
				}
			},
			"storageLayout": {
				"storage": [],
				"types": null
			},
			"userdoc": {
				"errors": {
					"ProofInvalid()": [
						{
							"notice": "The proof is invalid."
						}
					],
					"PublicInputNotInField()": [
						{
							"notice": "Some of the provided public input values are larger than the field modulus."
						}
					]
				},
				"kind": "user",
				"methods": {
					"compressProof(uint256[8])": {
						"notice": "Compress a proof.Will revert with InvalidProof if the curve points are invalid, but does not verify the proof itself."
					},
					"verifyCompressedProof(uint256[4],uint256[6])": {
						"notice": "Verify a Groth16 proof with compressed points.Reverts with InvalidProof if the proof is invalid or with PublicInputNotInField the public input is not reduced.There is no return value. If the function does not revert, the proof was successfully verified."
					},
					"verifyProof(uint256[8],uint256[6])": {
						"notice": "Verify an uncompressed Groth16 proof.Reverts with InvalidProof if the proof is invalid or with PublicInputNotInField the public input is not reduced.There is no return value. If the function does not revert, the proof was successfully verified."
					}
				},
				"notice": "Supports verifying Groth16 proofs. Proofs can be in uncompressed (256 bytes) and compressed (128 bytes) format. A view function is provided to compress proofs.See <https://2π.com/23/bn254-compression> for further explanation.",
				"version": 1
			}
		}
	}
}