{
	"Evm/core/base/vault.sol": {
		"QiaraMultiAssetVault": {
			"abi": [
				{
					"inputs": [
						{
							"internalType": "address",
							"name": "_events",
							"type": "address"
						},
						{
							"internalType": "address",
							"name": "_variablesRegistry",
							"type": "address"
						},
						{
							"internalType": "address",
							"name": "_delegator",
							"type": "address"
						},
						{
							"internalType": "string",
							"name": "_providerName",
							"type": "string"
						},
						{
							"internalType": "uint256",
							"name": "_min",
							"type": "uint256"
						},
						{
							"internalType": "uint256",
							"name": "_max",
							"type": "uint256"
						}
					],
					"stateMutability": "nonpayable",
					"type": "constructor"
				},
				{
					"inputs": [
						{
							"internalType": "address",
							"name": "owner",
							"type": "address"
						}
					],
					"name": "OwnableInvalidOwner",
					"type": "error"
				},
				{
					"inputs": [
						{
							"internalType": "address",
							"name": "account",
							"type": "address"
						}
					],
					"name": "OwnableUnauthorizedAccount",
					"type": "error"
				},
				{
					"inputs": [
						{
							"internalType": "address",
							"name": "token",
							"type": "address"
						}
					],
					"name": "SafeERC20FailedOperation",
					"type": "error"
				},
				{
					"anonymous": false,
					"inputs": [
						{
							"indexed": true,
							"internalType": "address",
							"name": "user",
							"type": "address"
						},
						{
							"indexed": true,
							"internalType": "address",
							"name": "token",
							"type": "address"
						},
						{
							"indexed": false,
							"internalType": "uint256",
							"name": "amount",
							"type": "uint256"
						},
						{
							"indexed": false,
							"internalType": "string",
							"name": "provider",
							"type": "string"
						}
					],
					"name": "Deposit",
					"type": "event"
				},
				{
					"anonymous": false,
					"inputs": [
						{
							"indexed": true,
							"internalType": "address",
							"name": "user",
							"type": "address"
						},
						{
							"indexed": true,
							"internalType": "address",
							"name": "token",
							"type": "address"
						},
						{
							"indexed": false,
							"internalType": "uint256",
							"name": "amount",
							"type": "uint256"
						},
						{
							"indexed": false,
							"internalType": "string",
							"name": "provider",
							"type": "string"
						}
					],
					"name": "DirectWithdraw",
					"type": "event"
				},
				{
					"anonymous": false,
					"inputs": [
						{
							"indexed": true,
							"internalType": "address",
							"name": "previousOwner",
							"type": "address"
						},
						{
							"indexed": true,
							"internalType": "address",
							"name": "newOwner",
							"type": "address"
						}
					],
					"name": "OwnershipTransferred",
					"type": "event"
				},
				{
					"anonymous": false,
					"inputs": [
						{
							"indexed": true,
							"internalType": "address",
							"name": "token",
							"type": "address"
						},
						{
							"indexed": false,
							"internalType": "string",
							"name": "provider",
							"type": "string"
						}
					],
					"name": "TokenListed",
					"type": "event"
				},
				{
					"inputs": [
						{
							"internalType": "string",
							"name": "assetName",
							"type": "string"
						},
						{
							"internalType": "uint256",
							"name": "amount",
							"type": "uint256"
						}
					],
					"name": "deposit",
					"outputs": [],
					"stateMutability": "nonpayable",
					"type": "function"
				},
				{
					"inputs": [
						{
							"internalType": "address",
							"name": "user",
							"type": "address"
						},
						{
							"internalType": "string",
							"name": "assetName",
							"type": "string"
						},
						{
							"internalType": "uint256",
							"name": "amount",
							"type": "uint256"
						},
						{
							"internalType": "uint256",
							"name": "nullifier",
							"type": "uint256"
						}
					],
					"name": "directWithdraw",
					"outputs": [],
					"stateMutability": "nonpayable",
					"type": "function"
				},
				{
					"inputs": [],
					"name": "events",
					"outputs": [
						{
							"internalType": "contract IEvents",
							"name": "",
							"type": "address"
						}
					],
					"stateMutability": "view",
					"type": "function"
				},
				{
					"inputs": [
						{
							"internalType": "address",
							"name": "",
							"type": "address"
						}
					],
					"name": "isSupportedToken",
					"outputs": [
						{
							"internalType": "bool",
							"name": "",
							"type": "bool"
						}
					],
					"stateMutability": "view",
					"type": "function"
				},
				{
					"inputs": [
						{
							"internalType": "address",
							"name": "",
							"type": "address"
						},
						{
							"internalType": "address",
							"name": "",
							"type": "address"
						}
					],
					"name": "lastInteracted",
					"outputs": [
						{
							"internalType": "uint256",
							"name": "",
							"type": "uint256"
						}
					],
					"stateMutability": "view",
					"type": "function"
				},
				{
					"inputs": [
						{
							"internalType": "string",
							"name": "assetName",
							"type": "string"
						}
					],
					"name": "listNewToken",
					"outputs": [],
					"stateMutability": "nonpayable",
					"type": "function"
				},
				{
					"inputs": [
						{
							"internalType": "bytes",
							"name": "user",
							"type": "bytes"
						},
						{
							"internalType": "string",
							"name": "shared",
							"type": "string"
						},
						{
							"internalType": "string",
							"name": "assetName",
							"type": "string"
						},
						{
							"internalType": "uint256",
							"name": "amount",
							"type": "uint256"
						}
					],
					"name": "m_withdraw",
					"outputs": [],
					"stateMutability": "nonpayable",
					"type": "function"
				},
				{
					"inputs": [],
					"name": "max",
					"outputs": [
						{
							"internalType": "uint256",
							"name": "",
							"type": "uint256"
						}
					],
					"stateMutability": "view",
					"type": "function"
				},
				{
					"inputs": [],
					"name": "min",
					"outputs": [
						{
							"internalType": "uint256",
							"name": "",
							"type": "uint256"
						}
					],
					"stateMutability": "view",
					"type": "function"
				},
				{
					"inputs": [],
					"name": "owner",
					"outputs": [
						{
							"internalType": "address",
							"name": "",
							"type": "address"
						}
					],
					"stateMutability": "view",
					"type": "function"
				},
				{
					"inputs": [],
					"name": "providerName",
					"outputs": [
						{
							"internalType": "string",
							"name": "",
							"type": "string"
						}
					],
					"stateMutability": "view",
					"type": "function"
				},
				{
					"inputs": [],
					"name": "renounceOwnership",
					"outputs": [],
					"stateMutability": "nonpayable",
					"type": "function"
				},
				{
					"inputs": [
						{
							"internalType": "string",
							"name": "assetName",
							"type": "string"
						}
					],
					"name": "resolveAsset",
					"outputs": [
						{
							"internalType": "address",
							"name": "",
							"type": "address"
						}
					],
					"stateMutability": "view",
					"type": "function"
				},
				{
					"inputs": [
						{
							"internalType": "address",
							"name": "newOwner",
							"type": "address"
						}
					],
					"name": "transferOwnership",
					"outputs": [],
					"stateMutability": "nonpayable",
					"type": "function"
				},
				{
					"inputs": [
						{
							"internalType": "address",
							"name": "",
							"type": "address"
						},
						{
							"internalType": "address",
							"name": "",
							"type": "address"
						}
					],
					"name": "userBalances",
					"outputs": [
						{
							"internalType": "uint256",
							"name": "",
							"type": "uint256"
						}
					],
					"stateMutability": "view",
					"type": "function"
				},
				{
					"inputs": [],
					"name": "variablesRegistry",
					"outputs": [
						{
							"internalType": "contract IVariables",
							"name": "",
							"type": "address"
						}
					],
					"stateMutability": "view",
					"type": "function"
				}
			],
			"devdoc": {
				"errors": {
					"OwnableInvalidOwner(address)": [
						{
							"details": "The owner is not a valid owner account. (eg. `address(0)`)"
						}
					],
					"OwnableUnauthorizedAccount(address)": [
						{
							"details": "The caller account is not authorized to perform an operation."
						}
					],
					"SafeERC20FailedOperation(address)": [
						{
							"details": "An operation with an ERC-20 token failed."
						}
					]
				},
				"kind": "dev",
				"methods": {
					"directWithdraw(address,string,uint256,uint256)": {
						"details": "This function is called directly by the Delegator contract  after it has verified the ZK Proof and Signatures."
					},
					"m_withdraw(bytes,string,string,uint256)": {
						"details": "This function can be called by the user, consensus then processes this,  and if everything goes right, it then calls directWithdraw"
					},
					"owner()": {
						"details": "Returns the address of the current owner."
					},
					"renounceOwnership()": {
						"details": "Leaves the contract without owner. It will not be possible to call `onlyOwner` functions. Can only be called by the current owner. NOTE: Renouncing ownership will leave the contract without an owner, thereby disabling any functionality that is only available to the owner."
					},
					"transferOwnership(address)": {
						"details": "Transfers ownership of the contract to a new account (`newOwner`). Can only be called by the current owner."
					}
				},
				"version": 1
			},
			"evm": {
				"assembly": "    /* \"Evm/core/base/vault.sol\":561:8565  contract QiaraMultiAssetVault is Ownable {... */\n  mstore(0x40, 0xc0)\n    /* \"Evm/core/base/vault.sol\":1552:1955  constructor(... */\n  callvalue\n  dup1\n  iszero\n  tag_1\n  jumpi\n  revert(0x00, 0x00)\ntag_1:\n  pop\n  mload(0x40)\n  sub(codesize, bytecodeSize)\n  dup1\n  bytecodeSize\n  dup4\n  codecopy\n  dup2\n  dup2\n  add\n  0x40\n  mstore\n  dup2\n  add\n  swap1\n  tag_2\n  swap2\n  swap1\n  tag_3\n  jump\t// in\ntag_2:\n    /* \"Evm/core/base/vault.sol\":1757:1767  _delegator */\n  dup4\n    /* \"@openzeppelin/contracts/access/Ownable.sol\":1297:1298  0 */\n  0x00\n    /* \"@openzeppelin/contracts/access/Ownable.sol\":1273:1299  initialOwner == address(0) */\n  0xffffffffffffffffffffffffffffffffffffffff\n  and\n    /* \"@openzeppelin/contracts/access/Ownable.sol\":1273:1285  initialOwner */\n  dup2\n    /* \"@openzeppelin/contracts/access/Ownable.sol\":1273:1299  initialOwner == address(0) */\n  0xffffffffffffffffffffffffffffffffffffffff\n  and\n  sub\n    /* \"@openzeppelin/contracts/access/Ownable.sol\":1269:1364  if (initialOwner == address(0)) {... */\n  tag_7\n  jumpi\n    /* \"@openzeppelin/contracts/access/Ownable.sol\":1350:1351  0 */\n  0x00\n    /* \"@openzeppelin/contracts/access/Ownable.sol\":1322:1353  OwnableInvalidOwner(address(0)) */\n  mload(0x40)\n  0x1e4fbdf700000000000000000000000000000000000000000000000000000000\n  dup2\n  mstore\n  0x04\n  add\n  tag_8\n  swap2\n  swap1\n  tag_9\n  jump\t// in\ntag_8:\n  mload(0x40)\n  dup1\n  swap2\n  sub\n  swap1\n  revert\n    /* \"@openzeppelin/contracts/access/Ownable.sol\":1269:1364  if (initialOwner == address(0)) {... */\ntag_7:\n    /* \"@openzeppelin/contracts/access/Ownable.sol\":1373:1405  _transferOwnership(initialOwner) */\n  tag_10\n    /* \"@openzeppelin/contracts/access/Ownable.sol\":1392:1404  initialOwner */\n  dup2\n    /* \"@openzeppelin/contracts/access/Ownable.sol\":1373:1391  _transferOwnership */\n  shl(0x20, tag_11)\n    /* \"@openzeppelin/contracts/access/Ownable.sol\":1373:1405  _transferOwnership(initialOwner) */\n  0x20\n  shr\n  jump\t// in\ntag_10:\n    /* \"@openzeppelin/contracts/access/Ownable.sol\":1225:1412  constructor(address initialOwner) {... */\n  pop\n    /* \"Evm/core/base/vault.sol\":1797:1804  _events */\n  dup6\n    /* \"Evm/core/base/vault.sol\":1780:1805  events = IEvents(_events) */\n  0xffffffffffffffffffffffffffffffffffffffff\n  and\n  0xa0\n  dup2\n  0xffffffffffffffffffffffffffffffffffffffff\n  and\n  dup2\n  mstore\n  pop\n  pop\n    /* \"Evm/core/base/vault.sol\":1822:1826  _min */\n  dup2\n    /* \"Evm/core/base/vault.sol\":1816:1819  min */\n  0x02\n    /* \"Evm/core/base/vault.sol\":1816:1826  min = _min */\n  dup2\n  swap1\n  sstore\n  pop\n    /* \"Evm/core/base/vault.sol\":1843:1847  _max */\n  dup1\n    /* \"Evm/core/base/vault.sol\":1837:1840  max */\n  0x03\n    /* \"Evm/core/base/vault.sol\":1837:1847  max = _max */\n  dup2\n  swap1\n  sstore\n  pop\n    /* \"Evm/core/base/vault.sol\":1889:1907  _variablesRegistry */\n  dup5\n    /* \"Evm/core/base/vault.sol\":1858:1908  variablesRegistry = IVariables(_variablesRegistry) */\n  0xffffffffffffffffffffffffffffffffffffffff\n  and\n  0x80\n  dup2\n  0xffffffffffffffffffffffffffffffffffffffff\n  and\n  dup2\n  mstore\n  pop\n  pop\n    /* \"Evm/core/base/vault.sol\":1934:1947  _providerName */\n  dup3\n    /* \"Evm/core/base/vault.sol\":1919:1931  providerName */\n  0x01\n    /* \"Evm/core/base/vault.sol\":1919:1947  providerName = _providerName */\n  swap1\n  dup2\n  tag_13\n  swap2\n  swap1\n  tag_14\n  jump\t// in\ntag_13:\n  pop\n    /* \"Evm/core/base/vault.sol\":1552:1955  constructor(... */\n  pop\n  pop\n  pop\n  pop\n  pop\n  pop\n    /* \"Evm/core/base/vault.sol\":561:8565  contract QiaraMultiAssetVault is Ownable {... */\n  jump(tag_15)\n    /* \"@openzeppelin/contracts/access/Ownable.sol\":2912:3099  function _transferOwnership(address newOwner) internal virtual {... */\ntag_11:\n    /* \"@openzeppelin/contracts/access/Ownable.sol\":2985:3001  address oldOwner */\n  0x00\n    /* \"@openzeppelin/contracts/access/Ownable.sol\":3004:3010  _owner */\n  0x00\n  0x00\n  swap1\n  sload\n  swap1\n  0x0100\n  exp\n  swap1\n  div\n  0xffffffffffffffffffffffffffffffffffffffff\n  and\n    /* \"@openzeppelin/contracts/access/Ownable.sol\":2985:3010  address oldOwner = _owner */\n  swap1\n  pop\n    /* \"@openzeppelin/contracts/access/Ownable.sol\":3029:3037  newOwner */\n  dup2\n    /* \"@openzeppelin/contracts/access/Ownable.sol\":3020:3026  _owner */\n  0x00\n  0x00\n    /* \"@openzeppelin/contracts/access/Ownable.sol\":3020:3037  _owner = newOwner */\n  0x0100\n  exp\n  dup2\n  sload\n  dup2\n  0xffffffffffffffffffffffffffffffffffffffff\n  mul\n  not\n  and\n  swap1\n  dup4\n  0xffffffffffffffffffffffffffffffffffffffff\n  and\n  mul\n  or\n  swap1\n  sstore\n  pop\n    /* \"@openzeppelin/contracts/access/Ownable.sol\":3083:3091  newOwner */\n  dup2\n    /* \"@openzeppelin/contracts/access/Ownable.sol\":3052:3092  OwnershipTransferred(oldOwner, newOwner) */\n  0xffffffffffffffffffffffffffffffffffffffff\n  and\n    /* \"@openzeppelin/contracts/access/Ownable.sol\":3073:3081  oldOwner */\n  dup2\n    /* \"@openzeppelin/contracts/access/Ownable.sol\":3052:3092  OwnershipTransferred(oldOwner, newOwner) */\n  0xffffffffffffffffffffffffffffffffffffffff\n  and\n  0x8be0079c531659141344cd1fd0a4f28419497f9722a3daafe3b4186f6b6457e0\n  mload(0x40)\n  mload(0x40)\n  dup1\n  swap2\n  sub\n  swap1\n  log3\n    /* \"@openzeppelin/contracts/access/Ownable.sol\":2975:3099  {... */\n  pop\n    /* \"@openzeppelin/contracts/access/Ownable.sol\":2912:3099  function _transferOwnership(address newOwner) internal virtual {... */\n  pop\n  jump\t// out\n    /* \"#utility.yul\":7:82   */\ntag_17:\n    /* \"#utility.yul\":40:46   */\n  0x00\n    /* \"#utility.yul\":73:75   */\n  0x40\n    /* \"#utility.yul\":67:76   */\n  mload\n    /* \"#utility.yul\":57:76   */\n  swap1\n  pop\n    /* \"#utility.yul\":7:82   */\n  swap1\n  jump\t// out\n    /* \"#utility.yul\":88:205   */\ntag_18:\n    /* \"#utility.yul\":197:198   */\n  0x00\n    /* \"#utility.yul\":194:195   */\n  0x00\n    /* \"#utility.yul\":187:199   */\n  revert\n    /* \"#utility.yul\":211:328   */\ntag_19:\n    /* \"#utility.yul\":320:321   */\n  0x00\n    /* \"#utility.yul\":317:318   */\n  0x00\n    /* \"#utility.yul\":310:322   */\n  revert\n    /* \"#utility.yul\":334:460   */\ntag_20:\n    /* \"#utility.yul\":371:378   */\n  0x00\n    /* \"#utility.yul\":411:453   */\n  0xffffffffffffffffffffffffffffffffffffffff\n    /* \"#utility.yul\":404:409   */\n  dup3\n    /* \"#utility.yul\":400:454   */\n  and\n    /* \"#utility.yul\":389:454   */\n  swap1\n  pop\n    /* \"#utility.yul\":334:460   */\n  swap2\n  swap1\n  pop\n  jump\t// out\n    /* \"#utility.yul\":466:562   */\ntag_21:\n    /* \"#utility.yul\":503:510   */\n  0x00\n    /* \"#utility.yul\":532:556   */\n  tag_62\n    /* \"#utility.yul\":550:555   */\n  dup3\n    /* \"#utility.yul\":532:556   */\n  tag_20\n  jump\t// in\ntag_62:\n    /* \"#utility.yul\":521:556   */\n  swap1\n  pop\n    /* \"#utility.yul\":466:562   */\n  swap2\n  swap1\n  pop\n  jump\t// out\n    /* \"#utility.yul\":568:690   */\ntag_22:\n    /* \"#utility.yul\":641:665   */\n  tag_64\n    /* \"#utility.yul\":659:664   */\n  dup2\n    /* \"#utility.yul\":641:665   */\n  tag_21\n  jump\t// in\ntag_64:\n    /* \"#utility.yul\":634:639   */\n  dup2\n    /* \"#utility.yul\":631:666   */\n  eq\n    /* \"#utility.yul\":621:684   */\n  tag_65\n  jumpi\n    /* \"#utility.yul\":680:681   */\n  0x00\n    /* \"#utility.yul\":677:678   */\n  0x00\n    /* \"#utility.yul\":670:682   */\n  revert\n    /* \"#utility.yul\":621:684   */\ntag_65:\n    /* \"#utility.yul\":568:690   */\n  pop\n  jump\t// out\n    /* \"#utility.yul\":696:839   */\ntag_23:\n    /* \"#utility.yul\":753:758   */\n  0x00\n    /* \"#utility.yul\":784:790   */\n  dup2\n    /* \"#utility.yul\":778:791   */\n  mload\n    /* \"#utility.yul\":769:791   */\n  swap1\n  pop\n    /* \"#utility.yul\":800:833   */\n  tag_67\n    /* \"#utility.yul\":827:832   */\n  dup2\n    /* \"#utility.yul\":800:833   */\n  tag_22\n  jump\t// in\ntag_67:\n    /* \"#utility.yul\":696:839   */\n  swap3\n  swap2\n  pop\n  pop\n  jump\t// out\n    /* \"#utility.yul\":845:962   */\ntag_24:\n    /* \"#utility.yul\":954:955   */\n  0x00\n    /* \"#utility.yul\":951:952   */\n  0x00\n    /* \"#utility.yul\":944:956   */\n  revert\n    /* \"#utility.yul\":968:1085   */\ntag_25:\n    /* \"#utility.yul\":1077:1078   */\n  0x00\n    /* \"#utility.yul\":1074:1075   */\n  0x00\n    /* \"#utility.yul\":1067:1079   */\n  revert\n    /* \"#utility.yul\":1091:1193   */\ntag_26:\n    /* \"#utility.yul\":1132:1138   */\n  0x00\n    /* \"#utility.yul\":1183:1185   */\n  0x1f\n    /* \"#utility.yul\":1179:1186   */\n  not\n    /* \"#utility.yul\":1174:1176   */\n  0x1f\n    /* \"#utility.yul\":1167:1172   */\n  dup4\n    /* \"#utility.yul\":1163:1177   */\n  add\n    /* \"#utility.yul\":1159:1187   */\n  and\n    /* \"#utility.yul\":1149:1187   */\n  swap1\n  pop\n    /* \"#utility.yul\":1091:1193   */\n  swap2\n  swap1\n  pop\n  jump\t// out\n    /* \"#utility.yul\":1199:1379   */\ntag_27:\n    /* \"#utility.yul\":1247:1324   */\n  0x4e487b7100000000000000000000000000000000000000000000000000000000\n    /* \"#utility.yul\":1244:1245   */\n  0x00\n    /* \"#utility.yul\":1237:1325   */\n  mstore\n    /* \"#utility.yul\":1344:1348   */\n  0x41\n    /* \"#utility.yul\":1341:1342   */\n  0x04\n    /* \"#utility.yul\":1334:1349   */\n  mstore\n    /* \"#utility.yul\":1368:1372   */\n  0x24\n    /* \"#utility.yul\":1365:1366   */\n  0x00\n    /* \"#utility.yul\":1358:1373   */\n  revert\n    /* \"#utility.yul\":1385:1666   */\ntag_28:\n    /* \"#utility.yul\":1468:1495   */\n  tag_73\n    /* \"#utility.yul\":1490:1494   */\n  dup3\n    /* \"#utility.yul\":1468:1495   */\n  tag_26\n  jump\t// in\ntag_73:\n    /* \"#utility.yul\":1460:1466   */\n  dup2\n    /* \"#utility.yul\":1456:1496   */\n  add\n    /* \"#utility.yul\":1598:1604   */\n  dup2\n    /* \"#utility.yul\":1586:1596   */\n  dup2\n    /* \"#utility.yul\":1583:1605   */\n  lt\n    /* \"#utility.yul\":1562:1580   */\n  0xffffffffffffffff\n    /* \"#utility.yul\":1550:1560   */\n  dup3\n    /* \"#utility.yul\":1547:1581   */\n  gt\n    /* \"#utility.yul\":1544:1606   */\n  or\n    /* \"#utility.yul\":1541:1629   */\n  iszero\n  tag_74\n  jumpi\n    /* \"#utility.yul\":1609:1627   */\n  tag_75\n  tag_27\n  jump\t// in\ntag_75:\n    /* \"#utility.yul\":1541:1629   */\ntag_74:\n    /* \"#utility.yul\":1649:1659   */\n  dup1\n    /* \"#utility.yul\":1645:1647   */\n  0x40\n    /* \"#utility.yul\":1638:1660   */\n  mstore\n    /* \"#utility.yul\":1428:1666   */\n  pop\n    /* \"#utility.yul\":1385:1666   */\n  pop\n  pop\n  jump\t// out\n    /* \"#utility.yul\":1672:1801   */\ntag_29:\n    /* \"#utility.yul\":1706:1712   */\n  0x00\n    /* \"#utility.yul\":1733:1753   */\n  tag_77\n  tag_17\n  jump\t// in\ntag_77:\n    /* \"#utility.yul\":1723:1753   */\n  swap1\n  pop\n    /* \"#utility.yul\":1762:1795   */\n  tag_78\n    /* \"#utility.yul\":1790:1794   */\n  dup3\n    /* \"#utility.yul\":1782:1788   */\n  dup3\n    /* \"#utility.yul\":1762:1795   */\n  tag_28\n  jump\t// in\ntag_78:\n    /* \"#utility.yul\":1672:1801   */\n  swap2\n  swap1\n  pop\n  jump\t// out\n    /* \"#utility.yul\":1807:2115   */\ntag_30:\n    /* \"#utility.yul\":1869:1873   */\n  0x00\n    /* \"#utility.yul\":1959:1977   */\n  0xffffffffffffffff\n    /* \"#utility.yul\":1951:1957   */\n  dup3\n    /* \"#utility.yul\":1948:1978   */\n  gt\n    /* \"#utility.yul\":1945:2001   */\n  iszero\n  tag_80\n  jumpi\n    /* \"#utility.yul\":1981:1999   */\n  tag_81\n  tag_27\n  jump\t// in\ntag_81:\n    /* \"#utility.yul\":1945:2001   */\ntag_80:\n    /* \"#utility.yul\":2019:2048   */\n  tag_82\n    /* \"#utility.yul\":2041:2047   */\n  dup3\n    /* \"#utility.yul\":2019:2048   */\n  tag_26\n  jump\t// in\ntag_82:\n    /* \"#utility.yul\":2011:2048   */\n  swap1\n  pop\n    /* \"#utility.yul\":2103:2107   */\n  0x20\n    /* \"#utility.yul\":2097:2101   */\n  dup2\n    /* \"#utility.yul\":2093:2108   */\n  add\n    /* \"#utility.yul\":2085:2108   */\n  swap1\n  pop\n    /* \"#utility.yul\":1807:2115   */\n  swap2\n  swap1\n  pop\n  jump\t// out\n    /* \"#utility.yul\":2121:2260   */\ntag_31:\n    /* \"#utility.yul\":2210:2216   */\n  dup3\n    /* \"#utility.yul\":2205:2208   */\n  dup2\n    /* \"#utility.yul\":2200:2203   */\n  dup4\n    /* \"#utility.yul\":2194:2217   */\n  mcopy\n    /* \"#utility.yul\":2251:2252   */\n  0x00\n    /* \"#utility.yul\":2242:2248   */\n  dup4\n    /* \"#utility.yul\":2237:2240   */\n  dup4\n    /* \"#utility.yul\":2233:2249   */\n  add\n    /* \"#utility.yul\":2226:2253   */\n  mstore\n    /* \"#utility.yul\":2121:2260   */\n  pop\n  pop\n  pop\n  jump\t// out\n    /* \"#utility.yul\":2266:2700   */\ntag_32:\n    /* \"#utility.yul\":2355:2360   */\n  0x00\n    /* \"#utility.yul\":2380:2446   */\n  tag_85\n    /* \"#utility.yul\":2396:2445   */\n  tag_86\n    /* \"#utility.yul\":2438:2444   */\n  dup5\n    /* \"#utility.yul\":2396:2445   */\n  tag_30\n  jump\t// in\ntag_86:\n    /* \"#utility.yul\":2380:2446   */\n  tag_29\n  jump\t// in\ntag_85:\n    /* \"#utility.yul\":2371:2446   */\n  swap1\n  pop\n    /* \"#utility.yul\":2469:2475   */\n  dup3\n    /* \"#utility.yul\":2462:2467   */\n  dup2\n    /* \"#utility.yul\":2455:2476   */\n  mstore\n    /* \"#utility.yul\":2507:2511   */\n  0x20\n    /* \"#utility.yul\":2500:2505   */\n  dup2\n    /* \"#utility.yul\":2496:2512   */\n  add\n    /* \"#utility.yul\":2545:2548   */\n  dup5\n    /* \"#utility.yul\":2536:2542   */\n  dup5\n    /* \"#utility.yul\":2531:2534   */\n  dup5\n    /* \"#utility.yul\":2527:2543   */\n  add\n    /* \"#utility.yul\":2524:2549   */\n  gt\n    /* \"#utility.yul\":2521:2633   */\n  iszero\n  tag_87\n  jumpi\n    /* \"#utility.yul\":2552:2631   */\n  tag_88\n  tag_25\n  jump\t// in\ntag_88:\n    /* \"#utility.yul\":2521:2633   */\ntag_87:\n    /* \"#utility.yul\":2642:2694   */\n  tag_89\n    /* \"#utility.yul\":2687:2693   */\n  dup5\n    /* \"#utility.yul\":2682:2685   */\n  dup3\n    /* \"#utility.yul\":2677:2680   */\n  dup6\n    /* \"#utility.yul\":2642:2694   */\n  tag_31\n  jump\t// in\ntag_89:\n    /* \"#utility.yul\":2361:2700   */\n  pop\n    /* \"#utility.yul\":2266:2700   */\n  swap4\n  swap3\n  pop\n  pop\n  pop\n  jump\t// out\n    /* \"#utility.yul\":2720:3075   */\ntag_33:\n    /* \"#utility.yul\":2787:2792   */\n  0x00\n    /* \"#utility.yul\":2836:2839   */\n  dup3\n    /* \"#utility.yul\":2829:2833   */\n  0x1f\n    /* \"#utility.yul\":2821:2827   */\n  dup4\n    /* \"#utility.yul\":2817:2834   */\n  add\n    /* \"#utility.yul\":2813:2840   */\n  slt\n    /* \"#utility.yul\":2803:2925   */\n  tag_91\n  jumpi\n    /* \"#utility.yul\":2844:2923   */\n  tag_92\n  tag_24\n  jump\t// in\ntag_92:\n    /* \"#utility.yul\":2803:2925   */\ntag_91:\n    /* \"#utility.yul\":2954:2960   */\n  dup2\n    /* \"#utility.yul\":2948:2961   */\n  mload\n    /* \"#utility.yul\":2979:3069   */\n  tag_93\n    /* \"#utility.yul\":3065:3068   */\n  dup5\n    /* \"#utility.yul\":3057:3063   */\n  dup3\n    /* \"#utility.yul\":3050:3054   */\n  0x20\n    /* \"#utility.yul\":3042:3048   */\n  dup7\n    /* \"#utility.yul\":3038:3055   */\n  add\n    /* \"#utility.yul\":2979:3069   */\n  tag_32\n  jump\t// in\ntag_93:\n    /* \"#utility.yul\":2970:3069   */\n  swap2\n  pop\n    /* \"#utility.yul\":2793:3075   */\n  pop\n    /* \"#utility.yul\":2720:3075   */\n  swap3\n  swap2\n  pop\n  pop\n  jump\t// out\n    /* \"#utility.yul\":3081:3158   */\ntag_34:\n    /* \"#utility.yul\":3118:3125   */\n  0x00\n    /* \"#utility.yul\":3147:3152   */\n  dup2\n    /* \"#utility.yul\":3136:3152   */\n  swap1\n  pop\n    /* \"#utility.yul\":3081:3158   */\n  swap2\n  swap1\n  pop\n  jump\t// out\n    /* \"#utility.yul\":3164:3286   */\ntag_35:\n    /* \"#utility.yul\":3237:3261   */\n  tag_96\n    /* \"#utility.yul\":3255:3260   */\n  dup2\n    /* \"#utility.yul\":3237:3261   */\n  tag_34\n  jump\t// in\ntag_96:\n    /* \"#utility.yul\":3230:3235   */\n  dup2\n    /* \"#utility.yul\":3227:3262   */\n  eq\n    /* \"#utility.yul\":3217:3280   */\n  tag_97\n  jumpi\n    /* \"#utility.yul\":3276:3277   */\n  0x00\n    /* \"#utility.yul\":3273:3274   */\n  0x00\n    /* \"#utility.yul\":3266:3278   */\n  revert\n    /* \"#utility.yul\":3217:3280   */\ntag_97:\n    /* \"#utility.yul\":3164:3286   */\n  pop\n  jump\t// out\n    /* \"#utility.yul\":3292:3435   */\ntag_36:\n    /* \"#utility.yul\":3349:3354   */\n  0x00\n    /* \"#utility.yul\":3380:3386   */\n  dup2\n    /* \"#utility.yul\":3374:3387   */\n  mload\n    /* \"#utility.yul\":3365:3387   */\n  swap1\n  pop\n    /* \"#utility.yul\":3396:3429   */\n  tag_99\n    /* \"#utility.yul\":3423:3428   */\n  dup2\n    /* \"#utility.yul\":3396:3429   */\n  tag_35\n  jump\t// in\ntag_99:\n    /* \"#utility.yul\":3292:3435   */\n  swap3\n  swap2\n  pop\n  pop\n  jump\t// out\n    /* \"#utility.yul\":3441:4748   */\ntag_3:\n    /* \"#utility.yul\":3566:3572   */\n  0x00\n    /* \"#utility.yul\":3574:3580   */\n  0x00\n    /* \"#utility.yul\":3582:3588   */\n  0x00\n    /* \"#utility.yul\":3590:3596   */\n  0x00\n    /* \"#utility.yul\":3598:3604   */\n  0x00\n    /* \"#utility.yul\":3606:3612   */\n  0x00\n    /* \"#utility.yul\":3655:3658   */\n  0xc0\n    /* \"#utility.yul\":3643:3652   */\n  dup8\n    /* \"#utility.yul\":3634:3641   */\n  dup10\n    /* \"#utility.yul\":3630:3653   */\n  sub\n    /* \"#utility.yul\":3626:3659   */\n  slt\n    /* \"#utility.yul\":3623:3743   */\n  iszero\n  tag_101\n  jumpi\n    /* \"#utility.yul\":3662:3741   */\n  tag_102\n  tag_18\n  jump\t// in\ntag_102:\n    /* \"#utility.yul\":3623:3743   */\ntag_101:\n    /* \"#utility.yul\":3782:3783   */\n  0x00\n    /* \"#utility.yul\":3807:3871   */\n  tag_103\n    /* \"#utility.yul\":3863:3870   */\n  dup10\n    /* \"#utility.yul\":3854:3860   */\n  dup3\n    /* \"#utility.yul\":3843:3852   */\n  dup11\n    /* \"#utility.yul\":3839:3861   */\n  add\n    /* \"#utility.yul\":3807:3871   */\n  tag_23\n  jump\t// in\ntag_103:\n    /* \"#utility.yul\":3797:3871   */\n  swap7\n  pop\n    /* \"#utility.yul\":3753:3881   */\n  pop\n    /* \"#utility.yul\":3920:3922   */\n  0x20\n    /* \"#utility.yul\":3946:4010   */\n  tag_104\n    /* \"#utility.yul\":4002:4009   */\n  dup10\n    /* \"#utility.yul\":3993:3999   */\n  dup3\n    /* \"#utility.yul\":3982:3991   */\n  dup11\n    /* \"#utility.yul\":3978:4000   */\n  add\n    /* \"#utility.yul\":3946:4010   */\n  tag_23\n  jump\t// in\ntag_104:\n    /* \"#utility.yul\":3936:4010   */\n  swap6\n  pop\n    /* \"#utility.yul\":3891:4020   */\n  pop\n    /* \"#utility.yul\":4059:4061   */\n  0x40\n    /* \"#utility.yul\":4085:4149   */\n  tag_105\n    /* \"#utility.yul\":4141:4148   */\n  dup10\n    /* \"#utility.yul\":4132:4138   */\n  dup3\n    /* \"#utility.yul\":4121:4130   */\n  dup11\n    /* \"#utility.yul\":4117:4139   */\n  add\n    /* \"#utility.yul\":4085:4149   */\n  tag_23\n  jump\t// in\ntag_105:\n    /* \"#utility.yul\":4075:4149   */\n  swap5\n  pop\n    /* \"#utility.yul\":4030:4159   */\n  pop\n    /* \"#utility.yul\":4219:4221   */\n  0x60\n    /* \"#utility.yul\":4208:4217   */\n  dup8\n    /* \"#utility.yul\":4204:4222   */\n  add\n    /* \"#utility.yul\":4198:4223   */\n  mload\n    /* \"#utility.yul\":4250:4268   */\n  0xffffffffffffffff\n    /* \"#utility.yul\":4242:4248   */\n  dup2\n    /* \"#utility.yul\":4239:4269   */\n  gt\n    /* \"#utility.yul\":4236:4353   */\n  iszero\n  tag_106\n  jumpi\n    /* \"#utility.yul\":4272:4351   */\n  tag_107\n  tag_19\n  jump\t// in\ntag_107:\n    /* \"#utility.yul\":4236:4353   */\ntag_106:\n    /* \"#utility.yul\":4377:4451   */\n  tag_108\n    /* \"#utility.yul\":4443:4450   */\n  dup10\n    /* \"#utility.yul\":4434:4440   */\n  dup3\n    /* \"#utility.yul\":4423:4432   */\n  dup11\n    /* \"#utility.yul\":4419:4441   */\n  add\n    /* \"#utility.yul\":4377:4451   */\n  tag_33\n  jump\t// in\ntag_108:\n    /* \"#utility.yul\":4367:4451   */\n  swap4\n  pop\n    /* \"#utility.yul\":4169:4461   */\n  pop\n    /* \"#utility.yul\":4500:4503   */\n  0x80\n    /* \"#utility.yul\":4527:4591   */\n  tag_109\n    /* \"#utility.yul\":4583:4590   */\n  dup10\n    /* \"#utility.yul\":4574:4580   */\n  dup3\n    /* \"#utility.yul\":4563:4572   */\n  dup11\n    /* \"#utility.yul\":4559:4581   */\n  add\n    /* \"#utility.yul\":4527:4591   */\n  tag_36\n  jump\t// in\ntag_109:\n    /* \"#utility.yul\":4517:4591   */\n  swap3\n  pop\n    /* \"#utility.yul\":4471:4601   */\n  pop\n    /* \"#utility.yul\":4640:4643   */\n  0xa0\n    /* \"#utility.yul\":4667:4731   */\n  tag_110\n    /* \"#utility.yul\":4723:4730   */\n  dup10\n    /* \"#utility.yul\":4714:4720   */\n  dup3\n    /* \"#utility.yul\":4703:4712   */\n  dup11\n    /* \"#utility.yul\":4699:4721   */\n  add\n    /* \"#utility.yul\":4667:4731   */\n  tag_36\n  jump\t// in\ntag_110:\n    /* \"#utility.yul\":4657:4731   */\n  swap2\n  pop\n    /* \"#utility.yul\":4611:4741   */\n  pop\n    /* \"#utility.yul\":3441:4748   */\n  swap3\n  swap6\n  pop\n  swap3\n  swap6\n  pop\n  swap3\n  swap6\n  jump\t// out\n    /* \"#utility.yul\":4754:4872   */\ntag_37:\n    /* \"#utility.yul\":4841:4865   */\n  tag_112\n    /* \"#utility.yul\":4859:4864   */\n  dup2\n    /* \"#utility.yul\":4841:4865   */\n  tag_21\n  jump\t// in\ntag_112:\n    /* \"#utility.yul\":4836:4839   */\n  dup3\n    /* \"#utility.yul\":4829:4866   */\n  mstore\n    /* \"#utility.yul\":4754:4872   */\n  pop\n  pop\n  jump\t// out\n    /* \"#utility.yul\":4878:5100   */\ntag_9:\n    /* \"#utility.yul\":4971:4975   */\n  0x00\n    /* \"#utility.yul\":5009:5011   */\n  0x20\n    /* \"#utility.yul\":4998:5007   */\n  dup3\n    /* \"#utility.yul\":4994:5012   */\n  add\n    /* \"#utility.yul\":4986:5012   */\n  swap1\n  pop\n    /* \"#utility.yul\":5022:5093   */\n  tag_114\n    /* \"#utility.yul\":5090:5091   */\n  0x00\n    /* \"#utility.yul\":5079:5088   */\n  dup4\n    /* \"#utility.yul\":5075:5092   */\n  add\n    /* \"#utility.yul\":5066:5072   */\n  dup5\n    /* \"#utility.yul\":5022:5093   */\n  tag_37\n  jump\t// in\ntag_114:\n    /* \"#utility.yul\":4878:5100   */\n  swap3\n  swap2\n  pop\n  pop\n  jump\t// out\n    /* \"#utility.yul\":5106:5205   */\ntag_38:\n    /* \"#utility.yul\":5158:5164   */\n  0x00\n    /* \"#utility.yul\":5192:5197   */\n  dup2\n    /* \"#utility.yul\":5186:5198   */\n  mload\n    /* \"#utility.yul\":5176:5198   */\n  swap1\n  pop\n    /* \"#utility.yul\":5106:5205   */\n  swap2\n  swap1\n  pop\n  jump\t// out\n    /* \"#utility.yul\":5211:5391   */\ntag_39:\n    /* \"#utility.yul\":5259:5336   */\n  0x4e487b7100000000000000000000000000000000000000000000000000000000\n    /* \"#utility.yul\":5256:5257   */\n  0x00\n    /* \"#utility.yul\":5249:5337   */\n  mstore\n    /* \"#utility.yul\":5356:5360   */\n  0x22\n    /* \"#utility.yul\":5353:5354   */\n  0x04\n    /* \"#utility.yul\":5346:5361   */\n  mstore\n    /* \"#utility.yul\":5380:5384   */\n  0x24\n    /* \"#utility.yul\":5377:5378   */\n  0x00\n    /* \"#utility.yul\":5370:5385   */\n  revert\n    /* \"#utility.yul\":5397:5717   */\ntag_40:\n    /* \"#utility.yul\":5441:5447   */\n  0x00\n    /* \"#utility.yul\":5478:5479   */\n  0x02\n    /* \"#utility.yul\":5472:5476   */\n  dup3\n    /* \"#utility.yul\":5468:5480   */\n  div\n    /* \"#utility.yul\":5458:5480   */\n  swap1\n  pop\n    /* \"#utility.yul\":5525:5526   */\n  0x01\n    /* \"#utility.yul\":5519:5523   */\n  dup3\n    /* \"#utility.yul\":5515:5527   */\n  and\n    /* \"#utility.yul\":5546:5564   */\n  dup1\n    /* \"#utility.yul\":5536:5617   */\n  tag_118\n  jumpi\n    /* \"#utility.yul\":5602:5606   */\n  0x7f\n    /* \"#utility.yul\":5594:5600   */\n  dup3\n    /* \"#utility.yul\":5590:5607   */\n  and\n    /* \"#utility.yul\":5580:5607   */\n  swap2\n  pop\n    /* \"#utility.yul\":5536:5617   */\ntag_118:\n    /* \"#utility.yul\":5664:5666   */\n  0x20\n    /* \"#utility.yul\":5656:5662   */\n  dup3\n    /* \"#utility.yul\":5653:5667   */\n  lt\n    /* \"#utility.yul\":5633:5651   */\n  dup2\n    /* \"#utility.yul\":5630:5668   */\n  sub\n    /* \"#utility.yul\":5627:5711   */\n  tag_119\n  jumpi\n    /* \"#utility.yul\":5683:5701   */\n  tag_120\n  tag_39\n  jump\t// in\ntag_120:\n    /* \"#utility.yul\":5627:5711   */\ntag_119:\n    /* \"#utility.yul\":5448:5717   */\n  pop\n    /* \"#utility.yul\":5397:5717   */\n  swap2\n  swap1\n  pop\n  jump\t// out\n    /* \"#utility.yul\":5723:5864   */\ntag_41:\n    /* \"#utility.yul\":5772:5776   */\n  0x00\n    /* \"#utility.yul\":5795:5798   */\n  dup2\n    /* \"#utility.yul\":5787:5798   */\n  swap1\n  pop\n    /* \"#utility.yul\":5818:5821   */\n  dup2\n    /* \"#utility.yul\":5815:5816   */\n  0x00\n    /* \"#utility.yul\":5808:5822   */\n  mstore\n    /* \"#utility.yul\":5852:5856   */\n  0x20\n    /* \"#utility.yul\":5849:5850   */\n  0x00\n    /* \"#utility.yul\":5839:5857   */\n  keccak256\n    /* \"#utility.yul\":5831:5857   */\n  swap1\n  pop\n    /* \"#utility.yul\":5723:5864   */\n  swap2\n  swap1\n  pop\n  jump\t// out\n    /* \"#utility.yul\":5870:5963   */\ntag_42:\n    /* \"#utility.yul\":5907:5913   */\n  0x00\n    /* \"#utility.yul\":5954:5956   */\n  0x20\n    /* \"#utility.yul\":5949:5951   */\n  0x1f\n    /* \"#utility.yul\":5942:5947   */\n  dup4\n    /* \"#utility.yul\":5938:5952   */\n  add\n    /* \"#utility.yul\":5934:5957   */\n  div\n    /* \"#utility.yul\":5924:5957   */\n  swap1\n  pop\n    /* \"#utility.yul\":5870:5963   */\n  swap2\n  swap1\n  pop\n  jump\t// out\n    /* \"#utility.yul\":5969:6076   */\ntag_43:\n    /* \"#utility.yul\":6013:6021   */\n  0x00\n    /* \"#utility.yul\":6063:6068   */\n  dup3\n    /* \"#utility.yul\":6057:6061   */\n  dup3\n    /* \"#utility.yul\":6053:6069   */\n  shl\n    /* \"#utility.yul\":6032:6069   */\n  swap1\n  pop\n    /* \"#utility.yul\":5969:6076   */\n  swap3\n  swap2\n  pop\n  pop\n  jump\t// out\n    /* \"#utility.yul\":6082:6475   */\ntag_44:\n    /* \"#utility.yul\":6151:6157   */\n  0x00\n    /* \"#utility.yul\":6201:6202   */\n  0x08\n    /* \"#utility.yul\":6189:6199   */\n  dup4\n    /* \"#utility.yul\":6185:6203   */\n  mul\n    /* \"#utility.yul\":6224:6321   */\n  tag_125\n    /* \"#utility.yul\":6254:6320   */\n  0xffffffffffffffffffffffffffffffffffffffffffffffffffffffffffffffff\n    /* \"#utility.yul\":6243:6252   */\n  dup3\n    /* \"#utility.yul\":6224:6321   */\n  tag_43\n  jump\t// in\ntag_125:\n    /* \"#utility.yul\":6342:6381   */\n  tag_126\n    /* \"#utility.yul\":6372:6380   */\n  dup7\n    /* \"#utility.yul\":6361:6370   */\n  dup4\n    /* \"#utility.yul\":6342:6381   */\n  tag_43\n  jump\t// in\ntag_126:\n    /* \"#utility.yul\":6330:6381   */\n  swap6\n  pop\n    /* \"#utility.yul\":6414:6418   */\n  dup1\n    /* \"#utility.yul\":6410:6419   */\n  not\n    /* \"#utility.yul\":6403:6408   */\n  dup5\n    /* \"#utility.yul\":6399:6420   */\n  and\n    /* \"#utility.yul\":6390:6420   */\n  swap4\n  pop\n    /* \"#utility.yul\":6463:6467   */\n  dup1\n    /* \"#utility.yul\":6453:6461   */\n  dup7\n    /* \"#utility.yul\":6449:6468   */\n  and\n    /* \"#utility.yul\":6442:6447   */\n  dup5\n    /* \"#utility.yul\":6439:6469   */\n  or\n    /* \"#utility.yul\":6429:6469   */\n  swap3\n  pop\n    /* \"#utility.yul\":6158:6475   */\n  pop\n  pop\n    /* \"#utility.yul\":6082:6475   */\n  swap4\n  swap3\n  pop\n  pop\n  pop\n  jump\t// out\n    /* \"#utility.yul\":6481:6541   */\ntag_45:\n    /* \"#utility.yul\":6509:6512   */\n  0x00\n    /* \"#utility.yul\":6530:6535   */\n  dup2\n    /* \"#utility.yul\":6523:6535   */\n  swap1\n  pop\n    /* \"#utility.yul\":6481:6541   */\n  swap2\n  swap1\n  pop\n  jump\t// out\n    /* \"#utility.yul\":6547:6689   */\ntag_46:\n    /* \"#utility.yul\":6597:6606   */\n  0x00\n    /* \"#utility.yul\":6630:6683   */\n  tag_129\n    /* \"#utility.yul\":6648:6682   */\n  tag_130\n    /* \"#utility.yul\":6657:6681   */\n  tag_131\n    /* \"#utility.yul\":6675:6680   */\n  dup5\n    /* \"#utility.yul\":6657:6681   */\n  tag_34\n  jump\t// in\ntag_131:\n    /* \"#utility.yul\":6648:6682   */\n  tag_45\n  jump\t// in\ntag_130:\n    /* \"#utility.yul\":6630:6683   */\n  tag_34\n  jump\t// in\ntag_129:\n    /* \"#utility.yul\":6617:6683   */\n  swap1\n  pop\n    /* \"#utility.yul\":6547:6689   */\n  swap2\n  swap1\n  pop\n  jump\t// out\n    /* \"#utility.yul\":6695:6770   */\ntag_47:\n    /* \"#utility.yul\":6738:6741   */\n  0x00\n    /* \"#utility.yul\":6759:6764   */\n  dup2\n    /* \"#utility.yul\":6752:6764   */\n  swap1\n  pop\n    /* \"#utility.yul\":6695:6770   */\n  swap2\n  swap1\n  pop\n  jump\t// out\n    /* \"#utility.yul\":6776:7045   */\ntag_48:\n    /* \"#utility.yul\":6886:6925   */\n  tag_134\n    /* \"#utility.yul\":6917:6924   */\n  dup4\n    /* \"#utility.yul\":6886:6925   */\n  tag_46\n  jump\t// in\ntag_134:\n    /* \"#utility.yul\":6947:7038   */\n  tag_135\n    /* \"#utility.yul\":6996:7037   */\n  tag_136\n    /* \"#utility.yul\":7020:7036   */\n  dup3\n    /* \"#utility.yul\":6996:7037   */\n  tag_47\n  jump\t// in\ntag_136:\n    /* \"#utility.yul\":6988:6994   */\n  dup5\n    /* \"#utility.yul\":6981:6985   */\n  dup5\n    /* \"#utility.yul\":6975:6986   */\n  sload\n    /* \"#utility.yul\":6947:7038   */\n  tag_44\n  jump\t// in\ntag_135:\n    /* \"#utility.yul\":6941:6945   */\n  dup3\n    /* \"#utility.yul\":6934:7039   */\n  sstore\n    /* \"#utility.yul\":6852:7045   */\n  pop\n    /* \"#utility.yul\":6776:7045   */\n  pop\n  pop\n  pop\n  jump\t// out\n    /* \"#utility.yul\":7051:7124   */\ntag_49:\n    /* \"#utility.yul\":7096:7099   */\n  0x00\n    /* \"#utility.yul\":7117:7118   */\n  0x00\n    /* \"#utility.yul\":7110:7118   */\n  swap1\n  pop\n    /* \"#utility.yul\":7051:7124   */\n  swap1\n  jump\t// out\n    /* \"#utility.yul\":7130:7319   */\ntag_50:\n    /* \"#utility.yul\":7207:7239   */\n  tag_139\n  tag_49\n  jump\t// in\ntag_139:\n    /* \"#utility.yul\":7248:7313   */\n  tag_140\n    /* \"#utility.yul\":7306:7312   */\n  dup2\n    /* \"#utility.yul\":7298:7304   */\n  dup5\n    /* \"#utility.yul\":7292:7296   */\n  dup5\n    /* \"#utility.yul\":7248:7313   */\n  tag_48\n  jump\t// in\ntag_140:\n    /* \"#utility.yul\":7183:7319   */\n  pop\n    /* \"#utility.yul\":7130:7319   */\n  pop\n  pop\n  jump\t// out\n    /* \"#utility.yul\":7325:7511   */\ntag_51:\n    /* \"#utility.yul\":7385:7505   */\ntag_142:\n    /* \"#utility.yul\":7402:7405   */\n  dup2\n    /* \"#utility.yul\":7395:7400   */\n  dup2\n    /* \"#utility.yul\":7392:7406   */\n  lt\n    /* \"#utility.yul\":7385:7505   */\n  iszero\n  tag_144\n  jumpi\n    /* \"#utility.yul\":7456:7495   */\n  tag_145\n    /* \"#utility.yul\":7493:7494   */\n  0x00\n    /* \"#utility.yul\":7486:7491   */\n  dup3\n    /* \"#utility.yul\":7456:7495   */\n  tag_50\n  jump\t// in\ntag_145:\n    /* \"#utility.yul\":7429:7430   */\n  0x01\n    /* \"#utility.yul\":7422:7427   */\n  dup2\n    /* \"#utility.yul\":7418:7431   */\n  add\n    /* \"#utility.yul\":7409:7431   */\n  swap1\n  pop\n    /* \"#utility.yul\":7385:7505   */\n  jump(tag_142)\ntag_144:\n    /* \"#utility.yul\":7325:7511   */\n  pop\n  pop\n  jump\t// out\n    /* \"#utility.yul\":7517:8060   */\ntag_52:\n    /* \"#utility.yul\":7618:7620   */\n  0x1f\n    /* \"#utility.yul\":7613:7616   */\n  dup3\n    /* \"#utility.yul\":7610:7621   */\n  gt\n    /* \"#utility.yul\":7607:8053   */\n  iszero\n  tag_147\n  jumpi\n    /* \"#utility.yul\":7652:7690   */\n  tag_148\n    /* \"#utility.yul\":7684:7689   */\n  dup2\n    /* \"#utility.yul\":7652:7690   */\n  tag_41\n  jump\t// in\ntag_148:\n    /* \"#utility.yul\":7736:7765   */\n  tag_149\n    /* \"#utility.yul\":7754:7764   */\n  dup5\n    /* \"#utility.yul\":7736:7765   */\n  tag_42\n  jump\t// in\ntag_149:\n    /* \"#utility.yul\":7726:7734   */\n  dup2\n    /* \"#utility.yul\":7722:7766   */\n  add\n    /* \"#utility.yul\":7919:7921   */\n  0x20\n    /* \"#utility.yul\":7907:7917   */\n  dup6\n    /* \"#utility.yul\":7904:7922   */\n  lt\n    /* \"#utility.yul\":7901:7950   */\n  iszero\n  tag_150\n  jumpi\n    /* \"#utility.yul\":7940:7948   */\n  dup2\n    /* \"#utility.yul\":7925:7948   */\n  swap1\n  pop\n    /* \"#utility.yul\":7901:7950   */\ntag_150:\n    /* \"#utility.yul\":7963:8043   */\n  tag_151\n    /* \"#utility.yul\":8019:8041   */\n  tag_152\n    /* \"#utility.yul\":8037:8040   */\n  dup6\n    /* \"#utility.yul\":8019:8041   */\n  tag_42\n  jump\t// in\ntag_152:\n    /* \"#utility.yul\":8009:8017   */\n  dup4\n    /* \"#utility.yul\":8005:8042   */\n  add\n    /* \"#utility.yul\":7992:8003   */\n  dup3\n    /* \"#utility.yul\":7963:8043   */\n  tag_51\n  jump\t// in\ntag_151:\n    /* \"#utility.yul\":7622:8053   */\n  pop\n  pop\n    /* \"#utility.yul\":7607:8053   */\ntag_147:\n    /* \"#utility.yul\":7517:8060   */\n  pop\n  pop\n  pop\n  jump\t// out\n    /* \"#utility.yul\":8066:8183   */\ntag_53:\n    /* \"#utility.yul\":8120:8128   */\n  0x00\n    /* \"#utility.yul\":8170:8175   */\n  dup3\n    /* \"#utility.yul\":8164:8168   */\n  dup3\n    /* \"#utility.yul\":8160:8176   */\n  shr\n    /* \"#utility.yul\":8139:8176   */\n  swap1\n  pop\n    /* \"#utility.yul\":8066:8183   */\n  swap3\n  swap2\n  pop\n  pop\n  jump\t// out\n    /* \"#utility.yul\":8189:8358   */\ntag_54:\n    /* \"#utility.yul\":8233:8239   */\n  0x00\n    /* \"#utility.yul\":8266:8317   */\n  tag_155\n    /* \"#utility.yul\":8314:8315   */\n  0x00\n    /* \"#utility.yul\":8310:8316   */\n  not\n    /* \"#utility.yul\":8302:8307   */\n  dup5\n    /* \"#utility.yul\":8299:8300   */\n  0x08\n    /* \"#utility.yul\":8295:8308   */\n  mul\n    /* \"#utility.yul\":8266:8317   */\n  tag_53\n  jump\t// in\ntag_155:\n    /* \"#utility.yul\":8262:8318   */\n  not\n    /* \"#utility.yul\":8347:8351   */\n  dup1\n    /* \"#utility.yul\":8341:8345   */\n  dup4\n    /* \"#utility.yul\":8337:8352   */\n  and\n    /* \"#utility.yul\":8327:8352   */\n  swap2\n  pop\n    /* \"#utility.yul\":8240:8358   */\n  pop\n    /* \"#utility.yul\":8189:8358   */\n  swap3\n  swap2\n  pop\n  pop\n  jump\t// out\n    /* \"#utility.yul\":8363:8658   */\ntag_55:\n    /* \"#utility.yul\":8439:8443   */\n  0x00\n    /* \"#utility.yul\":8585:8614   */\n  tag_157\n    /* \"#utility.yul\":8610:8613   */\n  dup4\n    /* \"#utility.yul\":8604:8608   */\n  dup4\n    /* \"#utility.yul\":8585:8614   */\n  tag_54\n  jump\t// in\ntag_157:\n    /* \"#utility.yul\":8577:8614   */\n  swap2\n  pop\n    /* \"#utility.yul\":8647:8650   */\n  dup3\n    /* \"#utility.yul\":8644:8645   */\n  0x02\n    /* \"#utility.yul\":8640:8651   */\n  mul\n    /* \"#utility.yul\":8634:8638   */\n  dup3\n    /* \"#utility.yul\":8631:8652   */\n  or\n    /* \"#utility.yul\":8623:8652   */\n  swap1\n  pop\n    /* \"#utility.yul\":8363:8658   */\n  swap3\n  swap2\n  pop\n  pop\n  jump\t// out\n    /* \"#utility.yul\":8663:10058   */\ntag_14:\n    /* \"#utility.yul\":8780:8817   */\n  tag_159\n    /* \"#utility.yul\":8813:8816   */\n  dup3\n    /* \"#utility.yul\":8780:8817   */\n  tag_38\n  jump\t// in\ntag_159:\n    /* \"#utility.yul\":8882:8900   */\n  0xffffffffffffffff\n    /* \"#utility.yul\":8874:8880   */\n  dup2\n    /* \"#utility.yul\":8871:8901   */\n  gt\n    /* \"#utility.yul\":8868:8924   */\n  iszero\n  tag_160\n  jumpi\n    /* \"#utility.yul\":8904:8922   */\n  tag_161\n  tag_27\n  jump\t// in\ntag_161:\n    /* \"#utility.yul\":8868:8924   */\ntag_160:\n    /* \"#utility.yul\":8948:8986   */\n  tag_162\n    /* \"#utility.yul\":8980:8984   */\n  dup3\n    /* \"#utility.yul\":8974:8985   */\n  sload\n    /* \"#utility.yul\":8948:8986   */\n  tag_40\n  jump\t// in\ntag_162:\n    /* \"#utility.yul\":9033:9100   */\n  tag_163\n    /* \"#utility.yul\":9093:9099   */\n  dup3\n    /* \"#utility.yul\":9085:9091   */\n  dup3\n    /* \"#utility.yul\":9079:9083   */\n  dup6\n    /* \"#utility.yul\":9033:9100   */\n  tag_52\n  jump\t// in\ntag_163:\n    /* \"#utility.yul\":9127:9128   */\n  0x00\n    /* \"#utility.yul\":9151:9155   */\n  0x20\n    /* \"#utility.yul\":9138:9155   */\n  swap1\n  pop\n    /* \"#utility.yul\":9183:9185   */\n  0x1f\n    /* \"#utility.yul\":9175:9181   */\n  dup4\n    /* \"#utility.yul\":9172:9186   */\n  gt\n    /* \"#utility.yul\":9200:9201   */\n  0x01\n    /* \"#utility.yul\":9195:9813   */\n  dup2\n  eq\n  tag_165\n  jumpi\n    /* \"#utility.yul\":9857:9858   */\n  0x00\n    /* \"#utility.yul\":9874:9880   */\n  dup5\n    /* \"#utility.yul\":9871:9948   */\n  iszero\n  tag_166\n  jumpi\n    /* \"#utility.yul\":9923:9932   */\n  dup3\n    /* \"#utility.yul\":9918:9921   */\n  dup8\n    /* \"#utility.yul\":9914:9933   */\n  add\n    /* \"#utility.yul\":9908:9934   */\n  mload\n    /* \"#utility.yul\":9899:9934   */\n  swap1\n  pop\n    /* \"#utility.yul\":9871:9948   */\ntag_166:\n    /* \"#utility.yul\":9974:10041   */\n  tag_167\n    /* \"#utility.yul\":10034:10040   */\n  dup6\n    /* \"#utility.yul\":10027:10032   */\n  dup3\n    /* \"#utility.yul\":9974:10041   */\n  tag_55\n  jump\t// in\ntag_167:\n    /* \"#utility.yul\":9968:9972   */\n  dup7\n    /* \"#utility.yul\":9961:10042   */\n  sstore\n    /* \"#utility.yul\":9830:10052   */\n  pop\n    /* \"#utility.yul\":9165:10052   */\n  jump(tag_164)\n    /* \"#utility.yul\":9195:9813   */\ntag_165:\n    /* \"#utility.yul\":9247:9251   */\n  0x1f\n    /* \"#utility.yul\":9243:9252   */\n  not\n    /* \"#utility.yul\":9235:9241   */\n  dup5\n    /* \"#utility.yul\":9231:9253   */\n  and\n    /* \"#utility.yul\":9281:9318   */\n  tag_168\n    /* \"#utility.yul\":9313:9317   */\n  dup7\n    /* \"#utility.yul\":9281:9318   */\n  tag_41\n  jump\t// in\ntag_168:\n    /* \"#utility.yul\":9340:9341   */\n  0x00\n    /* \"#utility.yul\":9354:9562   */\ntag_169:\n    /* \"#utility.yul\":9368:9375   */\n  dup3\n    /* \"#utility.yul\":9365:9366   */\n  dup2\n    /* \"#utility.yul\":9362:9376   */\n  lt\n    /* \"#utility.yul\":9354:9562   */\n  iszero\n  tag_171\n  jumpi\n    /* \"#utility.yul\":9447:9456   */\n  dup5\n    /* \"#utility.yul\":9442:9445   */\n  dup10\n    /* \"#utility.yul\":9438:9457   */\n  add\n    /* \"#utility.yul\":9432:9458   */\n  mload\n    /* \"#utility.yul\":9424:9430   */\n  dup3\n    /* \"#utility.yul\":9417:9459   */\n  sstore\n    /* \"#utility.yul\":9498:9499   */\n  0x01\n    /* \"#utility.yul\":9490:9496   */\n  dup3\n    /* \"#utility.yul\":9486:9500   */\n  add\n    /* \"#utility.yul\":9476:9500   */\n  swap2\n  pop\n    /* \"#utility.yul\":9545:9547   */\n  0x20\n    /* \"#utility.yul\":9534:9543   */\n  dup6\n    /* \"#utility.yul\":9530:9548   */\n  add\n    /* \"#utility.yul\":9517:9548   */\n  swap5\n  pop\n    /* \"#utility.yul\":9391:9395   */\n  0x20\n    /* \"#utility.yul\":9388:9389   */\n  dup2\n    /* \"#utility.yul\":9384:9396   */\n  add\n    /* \"#utility.yul\":9379:9396   */\n  swap1\n  pop\n    /* \"#utility.yul\":9354:9562   */\n  jump(tag_169)\ntag_171:\n    /* \"#utility.yul\":9590:9596   */\n  dup7\n    /* \"#utility.yul\":9581:9588   */\n  dup4\n    /* \"#utility.yul\":9578:9597   */\n  lt\n    /* \"#utility.yul\":9575:9754   */\n  iszero\n  tag_172\n  jumpi\n    /* \"#utility.yul\":9648:9657   */\n  dup5\n    /* \"#utility.yul\":9643:9646   */\n  dup10\n    /* \"#utility.yul\":9639:9658   */\n  add\n    /* \"#utility.yul\":9633:9659   */\n  mload\n    /* \"#utility.yul\":9691:9739   */\n  tag_173\n    /* \"#utility.yul\":9733:9737   */\n  0x1f\n    /* \"#utility.yul\":9725:9731   */\n  dup10\n    /* \"#utility.yul\":9721:9738   */\n  and\n    /* \"#utility.yul\":9710:9719   */\n  dup3\n    /* \"#utility.yul\":9691:9739   */\n  tag_54\n  jump\t// in\ntag_173:\n    /* \"#utility.yul\":9683:9689   */\n  dup4\n    /* \"#utility.yul\":9676:9740   */\n  sstore\n    /* \"#utility.yul\":9598:9754   */\n  pop\n    /* \"#utility.yul\":9575:9754   */\ntag_172:\n    /* \"#utility.yul\":9800:9801   */\n  0x01\n    /* \"#utility.yul\":9796:9797   */\n  0x02\n    /* \"#utility.yul\":9788:9794   */\n  dup9\n    /* \"#utility.yul\":9784:9798   */\n  mul\n    /* \"#utility.yul\":9780:9802   */\n  add\n    /* \"#utility.yul\":9774:9778   */\n  dup9\n    /* \"#utility.yul\":9767:9803   */\n  sstore\n    /* \"#utility.yul\":9202:9813   */\n  pop\n  pop\n  pop\n    /* \"#utility.yul\":9165:10052   */\ntag_164:\n  pop\n    /* \"#utility.yul\":8755:10058   */\n  pop\n  pop\n  pop\n    /* \"#utility.yul\":8663:10058   */\n  pop\n  pop\n  jump\t// out\n    /* \"Evm/core/base/vault.sol\":561:8565  contract QiaraMultiAssetVault is Ownable {... */\ntag_15:\n  mload(0x80)\n  mload(0xa0)\n  codecopy(0x00, dataOffset(sub_0), dataSize(sub_0))\n  0x00\n  assignImmutable(\"0xa55f93089260f97cd16ec7a717e7ade24f99065bc4509014bd14fefe4d832ab6\")\n  0x00\n  assignImmutable(\"0x1067a32fc2bf4122310a8f066f11577e006583df65ce4c5172289c9680be102c\")\n  return(0x00, dataSize(sub_0))\nstop\n\nsub_0: assembly {\n        /* \"Evm/core/base/vault.sol\":561:8565  contract QiaraMultiAssetVault is Ownable {... */\n      mstore(0x40, 0x80)\n      callvalue\n      dup1\n      iszero\n      tag_1\n      jumpi\n      revert(0x00, 0x00)\n    tag_1:\n      pop\n      jumpi(tag_2, lt(calldatasize, 0x04))\n      shr(0xe0, calldataload(0x00))\n      dup1\n      0x8e27d719\n      gt\n      tag_19\n      jumpi\n      dup1\n      0xd23ce9e5\n      gt\n      tag_20\n      jumpi\n      dup1\n      0xd23ce9e5\n      eq\n      tag_15\n      jumpi\n      dup1\n      0xf139721c\n      eq\n      tag_16\n      jumpi\n      dup1\n      0xf2fde38b\n      eq\n      tag_17\n      jumpi\n      dup1\n      0xf8897945\n      eq\n      tag_18\n      jumpi\n      jump(tag_2)\n    tag_20:\n      dup1\n      0x8e27d719\n      eq\n      tag_11\n      jumpi\n      dup1\n      0xadb51980\n      eq\n      tag_12\n      jumpi\n      dup1\n      0xb5f8558c\n      eq\n      tag_13\n      jumpi\n      dup1\n      0xbf4d766e\n      eq\n      tag_14\n      jumpi\n      jump(tag_2)\n    tag_19:\n      dup1\n      0x6ac5db19\n      gt\n      tag_21\n      jumpi\n      dup1\n      0x6ac5db19\n      eq\n      tag_7\n      jumpi\n      dup1\n      0x715018a6\n      eq\n      tag_8\n      jumpi\n      dup1\n      0x7a9eceb4\n      eq\n      tag_9\n      jumpi\n      dup1\n      0x8da5cb5b\n      eq\n      tag_10\n      jumpi\n      jump(tag_2)\n    tag_21:\n      dup1\n      0xdad7d4\n      eq\n      tag_3\n      jumpi\n      dup1\n      0x05d09fb1\n      eq\n      tag_4\n      jumpi\n      dup1\n      0x240028e8\n      eq\n      tag_5\n      jumpi\n      dup1\n      0x5137959f\n      eq\n      tag_6\n      jumpi\n    tag_2:\n      revert(0x00, 0x00)\n        /* \"Evm/core/base/vault.sol\":734:760  string public providerName */\n    tag_3:\n      tag_22\n      tag_23\n      jump\t// in\n    tag_22:\n      mload(0x40)\n      tag_24\n      swap2\n      swap1\n      tag_25\n      jump\t// in\n    tag_24:\n      mload(0x40)\n      dup1\n      swap2\n      sub\n      swap1\n      return\n        /* \"Evm/core/base/vault.sol\":1963:2489  function resolveAsset(string memory assetName) public view returns (address) {... */\n    tag_4:\n      tag_26\n      0x04\n      dup1\n      calldatasize\n      sub\n      dup2\n      add\n      swap1\n      tag_27\n      swap2\n      swap1\n      tag_28\n      jump\t// in\n    tag_27:\n      tag_29\n      jump\t// in\n    tag_26:\n      mload(0x40)\n      tag_30\n      swap2\n      swap1\n      tag_31\n      jump\t// in\n    tag_30:\n      mload(0x40)\n      dup1\n      swap2\n      sub\n      swap1\n      return\n        /* \"Evm/core/base/vault.sol\":1226:1274  mapping(address => bool) public isSupportedToken */\n    tag_5:\n      tag_32\n      0x04\n      dup1\n      calldatasize\n      sub\n      dup2\n      add\n      swap1\n      tag_33\n      swap2\n      swap1\n      tag_34\n      jump\t// in\n    tag_33:\n      tag_35\n      jump\t// in\n    tag_32:\n      mload(0x40)\n      tag_36\n      swap2\n      swap1\n      tag_37\n      jump\t// in\n    tag_36:\n      mload(0x40)\n      dup1\n      swap2\n      sub\n      swap1\n      return\n        /* \"Evm/core/base/vault.sol\":1148:1217  mapping(address => mapping(address => uint256)) public lastInteracted */\n    tag_6:\n      tag_38\n      0x04\n      dup1\n      calldatasize\n      sub\n      dup2\n      add\n      swap1\n      tag_39\n      swap2\n      swap1\n      tag_40\n      jump\t// in\n    tag_39:\n      tag_41\n      jump\t// in\n    tag_38:\n      mload(0x40)\n      tag_42\n      swap2\n      swap1\n      tag_43\n      jump\t// in\n    tag_42:\n      mload(0x40)\n      dup1\n      swap2\n      sub\n      swap1\n      return\n        /* \"Evm/core/base/vault.sol\":793:811  uint256 public max */\n    tag_7:\n      tag_44\n      tag_45\n      jump\t// in\n    tag_44:\n      mload(0x40)\n      tag_46\n      swap2\n      swap1\n      tag_43\n      jump\t// in\n    tag_46:\n      mload(0x40)\n      dup1\n      swap2\n      sub\n      swap1\n      return\n        /* \"@openzeppelin/contracts/access/Ownable.sol\":2293:2394  function renounceOwnership() public virtual onlyOwner {... */\n    tag_8:\n      tag_47\n      tag_48\n      jump\t// in\n    tag_47:\n      stop\n        /* \"Evm/core/base/vault.sol\":3925:5966  function directWithdraw(address user, string calldata assetName, uint256 amount, uint256 nullifier) external onlyOwner { ... */\n    tag_9:\n      tag_49\n      0x04\n      dup1\n      calldatasize\n      sub\n      dup2\n      add\n      swap1\n      tag_50\n      swap2\n      swap1\n      tag_51\n      jump\t// in\n    tag_50:\n      tag_52\n      jump\t// in\n    tag_49:\n      stop\n        /* \"@openzeppelin/contracts/access/Ownable.sol\":1638:1723  function owner() public view virtual returns (address) {... */\n    tag_10:\n      tag_53\n      tag_54\n      jump\t// in\n    tag_53:\n      mload(0x40)\n      tag_55\n      swap2\n      swap1\n      tag_31\n      jump\t// in\n    tag_55:\n      mload(0x40)\n      dup1\n      swap2\n      sub\n      swap1\n      return\n        /* \"Evm/core/base/vault.sol\":5974:8142  function deposit(string calldata assetName, uint256 amount) external {... */\n    tag_11:\n      tag_56\n      0x04\n      dup1\n      calldatasize\n      sub\n      dup2\n      add\n      swap1\n      tag_57\n      swap2\n      swap1\n      tag_58\n      jump\t// in\n    tag_57:\n      tag_59\n      jump\t// in\n    tag_56:\n      stop\n        /* \"Evm/core/base/vault.sol\":1018:1085  mapping(address => mapping(address => uint256)) public userBalances */\n    tag_12:\n      tag_60\n      0x04\n      dup1\n      calldatasize\n      sub\n      dup2\n      add\n      swap1\n      tag_61\n      swap2\n      swap1\n      tag_40\n      jump\t// in\n    tag_61:\n      tag_62\n      jump\t// in\n    tag_60:\n      mload(0x40)\n      tag_63\n      swap2\n      swap1\n      tag_43\n      jump\t// in\n    tag_63:\n      mload(0x40)\n      dup1\n      swap2\n      sub\n      swap1\n      return\n        /* \"Evm/core/base/vault.sol\":696:727  IEvents public immutable events */\n    tag_13:\n      tag_64\n      tag_65\n      jump\t// in\n    tag_64:\n      mload(0x40)\n      tag_66\n      swap2\n      swap1\n      tag_67\n      jump\t// in\n    tag_66:\n      mload(0x40)\n      dup1\n      swap2\n      sub\n      swap1\n      return\n        /* \"Evm/core/base/vault.sol\":644:689  IVariables public immutable variablesRegistry */\n    tag_14:\n      tag_68\n      tag_69\n      jump\t// in\n    tag_68:\n      mload(0x40)\n      tag_70\n      swap2\n      swap1\n      tag_71\n      jump\t// in\n    tag_70:\n      mload(0x40)\n      dup1\n      swap2\n      sub\n      swap1\n      return\n        /* \"Evm/core/base/vault.sol\":2893:3767  function m_withdraw(bytes calldata user, string calldata shared, string calldata assetName, uint256 amount) external { ... */\n    tag_15:\n      tag_72\n      0x04\n      dup1\n      calldatasize\n      sub\n      dup2\n      add\n      swap1\n      tag_73\n      swap2\n      swap1\n      tag_74\n      jump\t// in\n    tag_73:\n      tag_75\n      jump\t// in\n    tag_72:\n      stop\n        /* \"Evm/core/base/vault.sol\":2497:2714  function listNewToken(string calldata assetName) external {... */\n    tag_16:\n      tag_76\n      0x04\n      dup1\n      calldatasize\n      sub\n      dup2\n      add\n      swap1\n      tag_77\n      swap2\n      swap1\n      tag_78\n      jump\t// in\n    tag_77:\n      tag_79\n      jump\t// in\n    tag_76:\n      stop\n        /* \"@openzeppelin/contracts/access/Ownable.sol\":2543:2758  function transferOwnership(address newOwner) public virtual onlyOwner {... */\n    tag_17:\n      tag_80\n      0x04\n      dup1\n      calldatasize\n      sub\n      dup2\n      add\n      swap1\n      tag_81\n      swap2\n      swap1\n      tag_34\n      jump\t// in\n    tag_81:\n      tag_82\n      jump\t// in\n    tag_80:\n      stop\n        /* \"Evm/core/base/vault.sol\":768:786  uint256 public min */\n    tag_18:\n      tag_83\n      tag_84\n      jump\t// in\n    tag_83:\n      mload(0x40)\n      tag_85\n      swap2\n      swap1\n      tag_43\n      jump\t// in\n    tag_85:\n      mload(0x40)\n      dup1\n      swap2\n      sub\n      swap1\n      return\n        /* \"Evm/core/base/vault.sol\":734:760  string public providerName */\n    tag_23:\n      0x01\n      dup1\n      sload\n      tag_86\n      swap1\n      tag_87\n      jump\t// in\n    tag_86:\n      dup1\n      0x1f\n      add\n      0x20\n      dup1\n      swap2\n      div\n      mul\n      0x20\n      add\n      mload(0x40)\n      swap1\n      dup2\n      add\n      0x40\n      mstore\n      dup1\n      swap3\n      swap2\n      swap1\n      dup2\n      dup2\n      mstore\n      0x20\n      add\n      dup3\n      dup1\n      sload\n      tag_88\n      swap1\n      tag_87\n      jump\t// in\n    tag_88:\n      dup1\n      iszero\n      tag_89\n      jumpi\n      dup1\n      0x1f\n      lt\n      tag_90\n      jumpi\n      0x0100\n      dup1\n      dup4\n      sload\n      div\n      mul\n      dup4\n      mstore\n      swap2\n      0x20\n      add\n      swap2\n      jump(tag_89)\n    tag_90:\n      dup3\n      add\n      swap2\n      swap1\n      0x00\n      mstore\n      keccak256(0x00, 0x20)\n      swap1\n    tag_91:\n      dup2\n      sload\n      dup2\n      mstore\n      swap1\n      0x01\n      add\n      swap1\n      0x20\n      add\n      dup1\n      dup4\n      gt\n      tag_91\n      jumpi\n      dup3\n      swap1\n      sub\n      0x1f\n      and\n      dup3\n      add\n      swap2\n    tag_89:\n      pop\n      pop\n      pop\n      pop\n      pop\n      dup2\n      jump\t// out\n        /* \"Evm/core/base/vault.sol\":1963:2489  function resolveAsset(string memory assetName) public view returns (address) {... */\n    tag_29:\n        /* \"Evm/core/base/vault.sol\":2031:2038  address */\n      0x00\n        /* \"Evm/core/base/vault.sol\":2051:2073  string memory tokenKey */\n      0x00\n        /* \"Evm/core/base/vault.sol\":2100:2109  assetName */\n      dup3\n        /* \"Evm/core/base/vault.sol\":2116:2128  providerName */\n      0x01\n        /* \"Evm/core/base/vault.sol\":2083:2129  abi.encodePacked(assetName, \"_\", providerName) */\n      add(0x20, mload(0x40))\n      tag_93\n      swap3\n      swap2\n      swap1\n      tag_94\n      jump\t// in\n    tag_93:\n      mload(0x40)\n      0x20\n      dup2\n      dup4\n      sub\n      sub\n      dup2\n      mstore\n      swap1\n      0x40\n      mstore\n        /* \"Evm/core/base/vault.sol\":2051:2130  string memory tokenKey = string(abi.encodePacked(assetName, \"_\", providerName)) */\n      swap1\n      pop\n        /* \"Evm/core/base/vault.sol\":2141:2164  bytes memory tokenBytes */\n      0x00\n        /* \"Evm/core/base/vault.sol\":2167:2184  variablesRegistry */\n      immutable(\"0x1067a32fc2bf4122310a8f066f11577e006583df65ce4c5172289c9680be102c\")\n        /* \"Evm/core/base/vault.sol\":2167:2202  variablesRegistry.getActiveVariable */\n      0xffffffffffffffffffffffffffffffffffffffff\n      and\n      0x16f1adc1\n        /* \"Evm/core/base/vault.sol\":2223:2231  tokenKey */\n      dup4\n        /* \"Evm/core/base/vault.sol\":2167:2232  variablesRegistry.getActiveVariable(\"QiaraMonadAssets\", tokenKey) */\n      mload(0x40)\n      dup3\n      0xffffffff\n      and\n      0xe0\n      shl\n      dup2\n      mstore\n      0x04\n      add\n      tag_95\n      swap2\n      swap1\n      tag_96\n      jump\t// in\n    tag_95:\n      0x00\n      mload(0x40)\n      dup1\n      dup4\n      sub\n      dup2\n      dup7\n      gas\n      staticcall\n      iszero\n      dup1\n      iszero\n      tag_98\n      jumpi\n      returndatacopy(0x00, 0x00, returndatasize)\n      revert(0x00, returndatasize)\n    tag_98:\n      pop\n      pop\n      pop\n      pop\n      mload(0x40)\n      returndatasize\n      0x00\n      dup3\n      returndatacopy\n      returndatasize\n      not(0x1f)\n      0x1f\n      dup3\n      add\n      and\n      dup3\n      add\n      dup1\n      0x40\n      mstore\n      pop\n      dup2\n      add\n      swap1\n      tag_99\n      swap2\n      swap1\n      tag_100\n      jump\t// in\n    tag_99:\n        /* \"Evm/core/base/vault.sol\":2141:2232  bytes memory tokenBytes = variablesRegistry.getActiveVariable(\"QiaraMonadAssets\", tokenKey) */\n      swap1\n      pop\n        /* \"Evm/core/base/vault.sol\":2282:2284  20 */\n      0x14\n        /* \"Evm/core/base/vault.sol\":2261:2271  tokenBytes */\n      dup2\n        /* \"Evm/core/base/vault.sol\":2261:2278  tokenBytes.length */\n      mload\n        /* \"Evm/core/base/vault.sol\":2261:2284  tokenBytes.length >= 20 */\n      lt\n      iszero\n        /* \"Evm/core/base/vault.sol\":2253:2323  require(tokenBytes.length >= 20, \"Vault: Asset not found in registry\") */\n      tag_101\n      jumpi\n      mload(0x40)\n      0x08c379a000000000000000000000000000000000000000000000000000000000\n      dup2\n      mstore\n      0x04\n      add\n      tag_102\n      swap1\n      tag_103\n      jump\t// in\n    tag_102:\n      mload(0x40)\n      dup1\n      swap2\n      sub\n      swap1\n      revert\n    tag_101:\n        /* \"Evm/core/base/vault.sol\":2344:2364  address assetAddress */\n      0x00\n        /* \"Evm/core/base/vault.sol\":2437:2439  20 */\n      0x14\n        /* \"Evm/core/base/vault.sol\":2425:2435  tokenBytes */\n      dup3\n        /* \"Evm/core/base/vault.sol\":2421:2440  add(tokenBytes, 20) */\n      add\n        /* \"Evm/core/base/vault.sol\":2415:2441  mload(add(tokenBytes, 20)) */\n      mload\n        /* \"Evm/core/base/vault.sol\":2399:2441  assetAddress := mload(add(tokenBytes, 20)) */\n      swap1\n      pop\n        /* \"Evm/core/base/vault.sol\":2469:2481  assetAddress */\n      dup1\n        /* \"Evm/core/base/vault.sol\":2462:2481  return assetAddress */\n      swap4\n      pop\n      pop\n      pop\n      pop\n        /* \"Evm/core/base/vault.sol\":1963:2489  function resolveAsset(string memory assetName) public view returns (address) {... */\n      swap2\n      swap1\n      pop\n      jump\t// out\n        /* \"Evm/core/base/vault.sol\":1226:1274  mapping(address => bool) public isSupportedToken */\n    tag_35:\n      mstore(0x20, 0x07)\n      dup1\n      0x00\n      mstore\n      keccak256(0x00, 0x40)\n      0x00\n      swap2\n      pop\n      sload\n      swap1\n      0x0100\n      exp\n      swap1\n      div\n      0xff\n      and\n      dup2\n      jump\t// out\n        /* \"Evm/core/base/vault.sol\":1148:1217  mapping(address => mapping(address => uint256)) public lastInteracted */\n    tag_41:\n      mstore(0x20, 0x06)\n      dup2\n      0x00\n      mstore\n      mstore(0x20, keccak256(0x00, 0x40))\n      dup1\n      0x00\n      mstore\n      keccak256(0x00, 0x40)\n      0x00\n      swap2\n      pop\n      swap2\n      pop\n      pop\n      sload\n      dup2\n      jump\t// out\n        /* \"Evm/core/base/vault.sol\":793:811  uint256 public max */\n    tag_45:\n      sload(0x03)\n      dup2\n      jump\t// out\n        /* \"@openzeppelin/contracts/access/Ownable.sol\":2293:2394  function renounceOwnership() public virtual onlyOwner {... */\n    tag_48:\n        /* \"@openzeppelin/contracts/access/Ownable.sol\":1531:1544  _checkOwner() */\n      tag_105\n        /* \"@openzeppelin/contracts/access/Ownable.sol\":1531:1542  _checkOwner */\n      tag_106\n        /* \"@openzeppelin/contracts/access/Ownable.sol\":1531:1544  _checkOwner() */\n      jump\t// in\n    tag_105:\n        /* \"@openzeppelin/contracts/access/Ownable.sol\":2357:2387  _transferOwnership(address(0)) */\n      tag_108\n        /* \"@openzeppelin/contracts/access/Ownable.sol\":2384:2385  0 */\n      0x00\n        /* \"@openzeppelin/contracts/access/Ownable.sol\":2357:2375  _transferOwnership */\n      tag_109\n        /* \"@openzeppelin/contracts/access/Ownable.sol\":2357:2387  _transferOwnership(address(0)) */\n      jump\t// in\n    tag_108:\n        /* \"@openzeppelin/contracts/access/Ownable.sol\":2293:2394  function renounceOwnership() public virtual onlyOwner {... */\n      jump\t// out\n        /* \"Evm/core/base/vault.sol\":3925:5966  function directWithdraw(address user, string calldata assetName, uint256 amount, uint256 nullifier) external onlyOwner { ... */\n    tag_52:\n        /* \"@openzeppelin/contracts/access/Ownable.sol\":1531:1544  _checkOwner() */\n      tag_111\n        /* \"@openzeppelin/contracts/access/Ownable.sol\":1531:1542  _checkOwner */\n      tag_106\n        /* \"@openzeppelin/contracts/access/Ownable.sol\":1531:1544  _checkOwner() */\n      jump\t// in\n    tag_111:\n        /* \"Evm/core/base/vault.sol\":4056:4069  address token */\n      0x00\n        /* \"Evm/core/base/vault.sol\":4072:4095  resolveAsset(assetName) */\n      tag_113\n        /* \"Evm/core/base/vault.sol\":4085:4094  assetName */\n      dup6\n      dup6\n        /* \"Evm/core/base/vault.sol\":4072:4095  resolveAsset(assetName) */\n      dup1\n      dup1\n      0x1f\n      add\n      0x20\n      dup1\n      swap2\n      div\n      mul\n      0x20\n      add\n      mload(0x40)\n      swap1\n      dup2\n      add\n      0x40\n      mstore\n      dup1\n      swap4\n      swap3\n      swap2\n      swap1\n      dup2\n      dup2\n      mstore\n      0x20\n      add\n      dup4\n      dup4\n      dup1\n      dup3\n      dup5\n      calldatacopy\n      0x00\n      dup2\n      dup5\n      add\n      mstore\n      not(0x1f)\n      0x1f\n      dup3\n      add\n      and\n      swap1\n      pop\n      dup1\n      dup4\n      add\n      swap3\n      pop\n      pop\n      pop\n      pop\n      pop\n      pop\n      pop\n        /* \"Evm/core/base/vault.sol\":4072:4084  resolveAsset */\n      tag_29\n        /* \"Evm/core/base/vault.sol\":4072:4095  resolveAsset(assetName) */\n      jump\t// in\n    tag_113:\n        /* \"Evm/core/base/vault.sol\":4056:4095  address token = resolveAsset(assetName) */\n      swap1\n      pop\n        /* \"Evm/core/base/vault.sol\":4114:4130  isSupportedToken */\n      0x07\n        /* \"Evm/core/base/vault.sol\":4114:4137  isSupportedToken[token] */\n      0x00\n        /* \"Evm/core/base/vault.sol\":4131:4136  token */\n      dup3\n        /* \"Evm/core/base/vault.sol\":4114:4137  isSupportedToken[token] */\n      0xffffffffffffffffffffffffffffffffffffffff\n      and\n      0xffffffffffffffffffffffffffffffffffffffff\n      and\n      dup2\n      mstore\n      0x20\n      add\n      swap1\n      dup2\n      mstore\n      0x20\n      add\n      0x00\n      keccak256\n      0x00\n      swap1\n      sload\n      swap1\n      0x0100\n      exp\n      swap1\n      div\n      0xff\n      and\n        /* \"Evm/core/base/vault.sol\":4106:4168  require(isSupportedToken[token], \"Vault: Token not supported\") */\n      tag_114\n      jumpi\n      mload(0x40)\n      0x08c379a000000000000000000000000000000000000000000000000000000000\n      dup2\n      mstore\n      0x04\n      add\n      tag_115\n      swap1\n      tag_116\n      jump\t// in\n    tag_115:\n      mload(0x40)\n      dup1\n      swap2\n      sub\n      swap1\n      revert\n    tag_114:\n        /* \"Evm/core/base/vault.sol\":4189:4201  uint256 rate */\n      0x00\n        /* \"Evm/core/base/vault.sol\":4204:4227  _getPseudoRandomRange() */\n      tag_117\n        /* \"Evm/core/base/vault.sol\":4204:4225  _getPseudoRandomRange */\n      tag_118\n        /* \"Evm/core/base/vault.sol\":4204:4227  _getPseudoRandomRange() */\n      jump\t// in\n    tag_117:\n        /* \"Evm/core/base/vault.sol\":4189:4227  uint256 rate = _getPseudoRandomRange() */\n      swap1\n      pop\n        /* \"Evm/core/base/vault.sol\":4238:4253  uint256 rewards */\n      0x00\n        /* \"Evm/core/base/vault.sol\":4256:4257  0 */\n      0x00\n        /* \"Evm/core/base/vault.sol\":4238:4257  uint256 rewards = 0 */\n      swap1\n      pop\n        /* \"Evm/core/base/vault.sol\":4268:4291  uint256 previousBalance */\n      0x00\n        /* \"Evm/core/base/vault.sol\":4294:4306  userBalances */\n      0x05\n        /* \"Evm/core/base/vault.sol\":4294:4312  userBalances[user] */\n      0x00\n        /* \"Evm/core/base/vault.sol\":4307:4311  user */\n      dup11\n        /* \"Evm/core/base/vault.sol\":4294:4312  userBalances[user] */\n      0xffffffffffffffffffffffffffffffffffffffff\n      and\n      0xffffffffffffffffffffffffffffffffffffffff\n      and\n      dup2\n      mstore\n      0x20\n      add\n      swap1\n      dup2\n      mstore\n      0x20\n      add\n      0x00\n      keccak256\n        /* \"Evm/core/base/vault.sol\":4294:4319  userBalances[user][token] */\n      0x00\n        /* \"Evm/core/base/vault.sol\":4313:4318  token */\n      dup6\n        /* \"Evm/core/base/vault.sol\":4294:4319  userBalances[user][token] */\n      0xffffffffffffffffffffffffffffffffffffffff\n      and\n      0xffffffffffffffffffffffffffffffffffffffff\n      and\n      dup2\n      mstore\n      0x20\n      add\n      swap1\n      dup2\n      mstore\n      0x20\n      add\n      0x00\n      keccak256\n      sload\n        /* \"Evm/core/base/vault.sol\":4268:4319  uint256 previousBalance = userBalances[user][token] */\n      swap1\n      pop\n        /* \"Evm/core/base/vault.sol\":4330:4346  uint256 lastTime */\n      0x00\n        /* \"Evm/core/base/vault.sol\":4349:4363  lastInteracted */\n      0x06\n        /* \"Evm/core/base/vault.sol\":4349:4369  lastInteracted[user] */\n      0x00\n        /* \"Evm/core/base/vault.sol\":4364:4368  user */\n      dup12\n        /* \"Evm/core/base/vault.sol\":4349:4369  lastInteracted[user] */\n      0xffffffffffffffffffffffffffffffffffffffff\n      and\n      0xffffffffffffffffffffffffffffffffffffffff\n      and\n      dup2\n      mstore\n      0x20\n      add\n      swap1\n      dup2\n      mstore\n      0x20\n      add\n      0x00\n      keccak256\n        /* \"Evm/core/base/vault.sol\":4349:4376  lastInteracted[user][token] */\n      0x00\n        /* \"Evm/core/base/vault.sol\":4370:4375  token */\n      dup7\n        /* \"Evm/core/base/vault.sol\":4349:4376  lastInteracted[user][token] */\n      0xffffffffffffffffffffffffffffffffffffffff\n      and\n      0xffffffffffffffffffffffffffffffffffffffff\n      and\n      dup2\n      mstore\n      0x20\n      add\n      swap1\n      dup2\n      mstore\n      0x20\n      add\n      0x00\n      keccak256\n      sload\n        /* \"Evm/core/base/vault.sol\":4330:4376  uint256 lastTime = lastInteracted[user][token] */\n      swap1\n      pop\n        /* \"Evm/core/base/vault.sol\":4468:4469  0 */\n      0x00\n        /* \"Evm/core/base/vault.sol\":4450:4465  previousBalance */\n      dup3\n        /* \"Evm/core/base/vault.sol\":4450:4469  previousBalance > 0 */\n      gt\n        /* \"Evm/core/base/vault.sol\":4450:4485  previousBalance > 0 && lastTime > 0 */\n      dup1\n      iszero\n      tag_119\n      jumpi\n      pop\n        /* \"Evm/core/base/vault.sol\":4484:4485  0 */\n      0x00\n        /* \"Evm/core/base/vault.sol\":4473:4481  lastTime */\n      dup2\n        /* \"Evm/core/base/vault.sol\":4473:4485  lastTime > 0 */\n      gt\n        /* \"Evm/core/base/vault.sol\":4450:4485  previousBalance > 0 && lastTime > 0 */\n    tag_119:\n        /* \"Evm/core/base/vault.sol\":4450:4515  previousBalance > 0 && lastTime > 0 && block.timestamp > lastTime */\n      dup1\n      iszero\n      tag_120\n      jumpi\n      pop\n        /* \"Evm/core/base/vault.sol\":4507:4515  lastTime */\n      dup1\n        /* \"Evm/core/base/vault.sol\":4489:4504  block.timestamp */\n      timestamp\n        /* \"Evm/core/base/vault.sol\":4489:4515  block.timestamp > lastTime */\n      gt\n        /* \"Evm/core/base/vault.sol\":4450:4515  previousBalance > 0 && lastTime > 0 && block.timestamp > lastTime */\n    tag_120:\n        /* \"Evm/core/base/vault.sol\":4446:4786  if (previousBalance > 0 && lastTime > 0 && block.timestamp > lastTime) {... */\n      iszero\n      tag_121\n      jumpi\n        /* \"Evm/core/base/vault.sol\":4532:4547  uint256 elapsed */\n      0x00\n        /* \"Evm/core/base/vault.sol\":4568:4576  lastTime */\n      dup2\n        /* \"Evm/core/base/vault.sol\":4550:4565  block.timestamp */\n      timestamp\n        /* \"Evm/core/base/vault.sol\":4550:4576  block.timestamp - lastTime */\n      tag_122\n      swap2\n      swap1\n      tag_123\n      jump\t// in\n    tag_122:\n        /* \"Evm/core/base/vault.sol\":4532:4576  uint256 elapsed = block.timestamp - lastTime */\n      swap1\n      pop\n        /* \"Evm/core/base/vault.sol\":4749:4773  100_000_000 * 31_536_000 */\n      0x0b342eb7c38000\n        /* \"Evm/core/base/vault.sol\":4737:4744  elapsed */\n      dup2\n        /* \"Evm/core/base/vault.sol\":4730:4734  rate */\n      dup7\n        /* \"Evm/core/base/vault.sol\":4712:4727  previousBalance */\n      dup6\n        /* \"Evm/core/base/vault.sol\":4712:4734  previousBalance * rate */\n      tag_124\n      swap2\n      swap1\n      tag_125\n      jump\t// in\n    tag_124:\n        /* \"Evm/core/base/vault.sol\":4712:4744  previousBalance * rate * elapsed */\n      tag_126\n      swap2\n      swap1\n      tag_125\n      jump\t// in\n    tag_126:\n        /* \"Evm/core/base/vault.sol\":4711:4774  (previousBalance * rate * elapsed) / (100_000_000 * 31_536_000) */\n      tag_127\n      swap2\n      swap1\n      tag_128\n      jump\t// in\n    tag_127:\n        /* \"Evm/core/base/vault.sol\":4701:4774  rewards = (previousBalance * rate * elapsed) / (100_000_000 * 31_536_000) */\n      swap4\n      pop\n        /* \"Evm/core/base/vault.sol\":4517:4786  {... */\n      pop\n        /* \"Evm/core/base/vault.sol\":4446:4786  if (previousBalance > 0 && lastTime > 0 && block.timestamp > lastTime) {... */\n    tag_121:\n        /* \"Evm/core/base/vault.sol\":4798:4820  uint256 totalAvailable */\n      0x00\n        /* \"Evm/core/base/vault.sol\":4841:4848  rewards */\n      dup4\n        /* \"Evm/core/base/vault.sol\":4823:4838  previousBalance */\n      dup4\n        /* \"Evm/core/base/vault.sol\":4823:4848  previousBalance + rewards */\n      tag_129\n      swap2\n      swap1\n      tag_130\n      jump\t// in\n    tag_129:\n        /* \"Evm/core/base/vault.sol\":4798:4848  uint256 totalAvailable = previousBalance + rewards */\n      swap1\n      pop\n        /* \"Evm/core/base/vault.sol\":4885:4891  amount */\n      dup8\n        /* \"Evm/core/base/vault.sol\":4867:4881  totalAvailable */\n      dup2\n        /* \"Evm/core/base/vault.sol\":4867:4891  totalAvailable >= amount */\n      lt\n      iszero\n        /* \"Evm/core/base/vault.sol\":4859:4923  require(totalAvailable >= amount, \"Vault: Insufficient balance\") */\n      tag_131\n      jumpi\n      mload(0x40)\n      0x08c379a000000000000000000000000000000000000000000000000000000000\n      dup2\n      mstore\n      0x04\n      add\n      tag_132\n      swap1\n      tag_133\n      jump\t// in\n    tag_132:\n      mload(0x40)\n      dup1\n      swap2\n      sub\n      swap1\n      revert\n    tag_131:\n        /* \"Evm/core/base/vault.sol\":5038:5044  amount */\n      dup8\n        /* \"Evm/core/base/vault.sol\":5021:5035  totalAvailable */\n      dup2\n        /* \"Evm/core/base/vault.sol\":5021:5044  totalAvailable - amount */\n      tag_134\n      swap2\n      swap1\n      tag_123\n      jump\t// in\n    tag_134:\n        /* \"Evm/core/base/vault.sol\":4993:5005  userBalances */\n      0x05\n        /* \"Evm/core/base/vault.sol\":4993:5011  userBalances[user] */\n      0x00\n        /* \"Evm/core/base/vault.sol\":5006:5010  user */\n      dup14\n        /* \"Evm/core/base/vault.sol\":4993:5011  userBalances[user] */\n      0xffffffffffffffffffffffffffffffffffffffff\n      and\n      0xffffffffffffffffffffffffffffffffffffffff\n      and\n      dup2\n      mstore\n      0x20\n      add\n      swap1\n      dup2\n      mstore\n      0x20\n      add\n      0x00\n      keccak256\n        /* \"Evm/core/base/vault.sol\":4993:5018  userBalances[user][token] */\n      0x00\n        /* \"Evm/core/base/vault.sol\":5012:5017  token */\n      dup9\n        /* \"Evm/core/base/vault.sol\":4993:5018  userBalances[user][token] */\n      0xffffffffffffffffffffffffffffffffffffffff\n      and\n      0xffffffffffffffffffffffffffffffffffffffff\n      and\n      dup2\n      mstore\n      0x20\n      add\n      swap1\n      dup2\n      mstore\n      0x20\n      add\n      0x00\n      keccak256\n        /* \"Evm/core/base/vault.sol\":4993:5044  userBalances[user][token] = totalAvailable - amount */\n      dup2\n      swap1\n      sstore\n      pop\n        /* \"Evm/core/base/vault.sol\":5085:5100  block.timestamp */\n      timestamp\n        /* \"Evm/core/base/vault.sol\":5055:5069  lastInteracted */\n      0x06\n        /* \"Evm/core/base/vault.sol\":5055:5075  lastInteracted[user] */\n      0x00\n        /* \"Evm/core/base/vault.sol\":5070:5074  user */\n      dup14\n        /* \"Evm/core/base/vault.sol\":5055:5075  lastInteracted[user] */\n      0xffffffffffffffffffffffffffffffffffffffff\n      and\n      0xffffffffffffffffffffffffffffffffffffffff\n      and\n      dup2\n      mstore\n      0x20\n      add\n      swap1\n      dup2\n      mstore\n      0x20\n      add\n      0x00\n      keccak256\n        /* \"Evm/core/base/vault.sol\":5055:5082  lastInteracted[user][token] */\n      0x00\n        /* \"Evm/core/base/vault.sol\":5076:5081  token */\n      dup9\n        /* \"Evm/core/base/vault.sol\":5055:5082  lastInteracted[user][token] */\n      0xffffffffffffffffffffffffffffffffffffffff\n      and\n      0xffffffffffffffffffffffffffffffffffffffff\n      and\n      dup2\n      mstore\n      0x20\n      add\n      swap1\n      dup2\n      mstore\n      0x20\n      add\n      0x00\n      keccak256\n        /* \"Evm/core/base/vault.sol\":5055:5100  lastInteracted[user][token] = block.timestamp */\n      dup2\n      swap1\n      sstore\n      pop\n        /* \"Evm/core/base/vault.sol\":5171:5211  IERC20(token).safeTransfer(user, amount) */\n      tag_135\n        /* \"Evm/core/base/vault.sol\":5198:5202  user */\n      dup12\n        /* \"Evm/core/base/vault.sol\":5204:5210  amount */\n      dup10\n        /* \"Evm/core/base/vault.sol\":5178:5183  token */\n      dup9\n        /* \"Evm/core/base/vault.sol\":5171:5197  IERC20(token).safeTransfer */\n      0xffffffffffffffffffffffffffffffffffffffff\n      and\n      tag_136\n      swap1\n        /* \"Evm/core/base/vault.sol\":5171:5211  IERC20(token).safeTransfer(user, amount) */\n      swap3\n      swap2\n      swap1\n      0xffffffff\n      and\n      jump\t// in\n    tag_135:\n        /* \"Evm/core/base/vault.sol\":5270:5301  IEvents.Data[] memory eventData */\n      0x00\n        /* \"Evm/core/base/vault.sol\":5323:5324  6 */\n      0x06\n        /* \"Evm/core/base/vault.sol\":5304:5325  new IEvents.Data[](6) */\n      0xffffffffffffffff\n      dup2\n      gt\n      iszero\n      tag_137\n      jumpi\n      tag_138\n      tag_139\n      jump\t// in\n    tag_138:\n    tag_137:\n      mload(0x40)\n      swap1\n      dup1\n      dup3\n      mstore\n      dup1\n      0x20\n      mul\n      0x20\n      add\n      dup3\n      add\n      0x40\n      mstore\n      dup1\n      iszero\n      tag_140\n      jumpi\n      dup2\n      0x20\n      add\n    tag_141:\n      tag_142\n      tag_143\n      jump\t// in\n    tag_142:\n      dup2\n      mstore\n      0x20\n      add\n      swap1\n      0x01\n      swap1\n      sub\n      swap1\n      dup2\n      tag_141\n      jumpi\n      swap1\n      pop\n    tag_140:\n      pop\n        /* \"Evm/core/base/vault.sol\":5270:5325  IEvents.Data[] memory eventData = new IEvents.Data[](6) */\n      swap1\n      pop\n        /* \"Evm/core/base/vault.sol\":5351:5400  IEvents.Data(\"user\", \"address\", abi.encode(user)) */\n      mload(0x40)\n      dup1\n      0x60\n      add\n      0x40\n      mstore\n      dup1\n      mload(0x40)\n      dup1\n      0x40\n      add\n      0x40\n      mstore\n      dup1\n      0x04\n      dup2\n      mstore\n      0x20\n      add\n      0x7573657200000000000000000000000000000000000000000000000000000000\n      dup2\n      mstore\n      pop\n      dup2\n      mstore\n      0x20\n      add\n      mload(0x40)\n      dup1\n      0x40\n      add\n      0x40\n      mstore\n      dup1\n      0x07\n      dup2\n      mstore\n      0x20\n      add\n      0x6164647265737300000000000000000000000000000000000000000000000000\n      dup2\n      mstore\n      pop\n      dup2\n      mstore\n      0x20\n      add\n        /* \"Evm/core/base/vault.sol\":5394:5398  user */\n      dup14\n        /* \"Evm/core/base/vault.sol\":5383:5399  abi.encode(user) */\n      add(0x20, mload(0x40))\n      tag_144\n      swap2\n      swap1\n      tag_31\n      jump\t// in\n    tag_144:\n      mload(0x40)\n      0x20\n      dup2\n      dup4\n      sub\n      sub\n      dup2\n      mstore\n      swap1\n      0x40\n      mstore\n        /* \"Evm/core/base/vault.sol\":5351:5400  IEvents.Data(\"user\", \"address\", abi.encode(user)) */\n      dup2\n      mstore\n      pop\n        /* \"Evm/core/base/vault.sol\":5336:5345  eventData */\n      dup2\n        /* \"Evm/core/base/vault.sol\":5346:5347  0 */\n      0x00\n        /* \"Evm/core/base/vault.sol\":5336:5348  eventData[0] */\n      dup2\n      mload\n      dup2\n      lt\n      tag_145\n      jumpi\n      tag_146\n      tag_147\n      jump\t// in\n    tag_146:\n    tag_145:\n      0x20\n      mul\n      0x20\n      add\n      add\n        /* \"Evm/core/base/vault.sol\":5336:5400  eventData[0] = IEvents.Data(\"user\", \"address\", abi.encode(user)) */\n      dup2\n      swap1\n      mstore\n      pop\n        /* \"Evm/core/base/vault.sol\":5426:5479  IEvents.Data(\"amount\", \"uint256\", abi.encode(amount)) */\n      mload(0x40)\n      dup1\n      0x60\n      add\n      0x40\n      mstore\n      dup1\n      mload(0x40)\n      dup1\n      0x40\n      add\n      0x40\n      mstore\n      dup1\n      0x06\n      dup2\n      mstore\n      0x20\n      add\n      0x616d6f756e740000000000000000000000000000000000000000000000000000\n      dup2\n      mstore\n      pop\n      dup2\n      mstore\n      0x20\n      add\n      mload(0x40)\n      dup1\n      0x40\n      add\n      0x40\n      mstore\n      dup1\n      0x07\n      dup2\n      mstore\n      0x20\n      add\n      0x75696e7432353600000000000000000000000000000000000000000000000000\n      dup2\n      mstore\n      pop\n      dup2\n      mstore\n      0x20\n      add\n        /* \"Evm/core/base/vault.sol\":5471:5477  amount */\n      dup11\n        /* \"Evm/core/base/vault.sol\":5460:5478  abi.encode(amount) */\n      add(0x20, mload(0x40))\n      tag_148\n      swap2\n      swap1\n      tag_43\n      jump\t// in\n    tag_148:\n      mload(0x40)\n      0x20\n      dup2\n      dup4\n      sub\n      sub\n      dup2\n      mstore\n      swap1\n      0x40\n      mstore\n        /* \"Evm/core/base/vault.sol\":5426:5479  IEvents.Data(\"amount\", \"uint256\", abi.encode(amount)) */\n      dup2\n      mstore\n      pop\n        /* \"Evm/core/base/vault.sol\":5411:5420  eventData */\n      dup2\n        /* \"Evm/core/base/vault.sol\":5421:5422  1 */\n      0x01\n        /* \"Evm/core/base/vault.sol\":5411:5423  eventData[1] */\n      dup2\n      mload\n      dup2\n      lt\n      tag_149\n      jumpi\n      tag_150\n      tag_147\n      jump\t// in\n    tag_150:\n    tag_149:\n      0x20\n      mul\n      0x20\n      add\n      add\n        /* \"Evm/core/base/vault.sol\":5411:5479  eventData[1] = IEvents.Data(\"amount\", \"uint256\", abi.encode(amount)) */\n      dup2\n      swap1\n      mstore\n      pop\n        /* \"Evm/core/base/vault.sol\":5505:5559  IEvents.Data(\"token\", \"string\", abi.encode(assetName)) */\n      mload(0x40)\n      dup1\n      0x60\n      add\n      0x40\n      mstore\n      dup1\n      mload(0x40)\n      dup1\n      0x40\n      add\n      0x40\n      mstore\n      dup1\n      0x05\n      dup2\n      mstore\n      0x20\n      add\n      0x746f6b656e000000000000000000000000000000000000000000000000000000\n      dup2\n      mstore\n      pop\n      dup2\n      mstore\n      0x20\n      add\n      mload(0x40)\n      dup1\n      0x40\n      add\n      0x40\n      mstore\n      dup1\n      0x06\n      dup2\n      mstore\n      0x20\n      add\n      0x737472696e670000000000000000000000000000000000000000000000000000\n      dup2\n      mstore\n      pop\n      dup2\n      mstore\n      0x20\n      add\n        /* \"Evm/core/base/vault.sol\":5548:5557  assetName */\n      dup13\n      dup13\n        /* \"Evm/core/base/vault.sol\":5537:5558  abi.encode(assetName) */\n      add(0x20, mload(0x40))\n      tag_151\n      swap3\n      swap2\n      swap1\n      tag_152\n      jump\t// in\n    tag_151:\n      mload(0x40)\n      0x20\n      dup2\n      dup4\n      sub\n      sub\n      dup2\n      mstore\n      swap1\n      0x40\n      mstore\n        /* \"Evm/core/base/vault.sol\":5505:5559  IEvents.Data(\"token\", \"string\", abi.encode(assetName)) */\n      dup2\n      mstore\n      pop\n        /* \"Evm/core/base/vault.sol\":5490:5499  eventData */\n      dup2\n        /* \"Evm/core/base/vault.sol\":5500:5501  2 */\n      0x02\n        /* \"Evm/core/base/vault.sol\":5490:5502  eventData[2] */\n      dup2\n      mload\n      dup2\n      lt\n      tag_153\n      jumpi\n      tag_154\n      tag_147\n      jump\t// in\n    tag_154:\n    tag_153:\n      0x20\n      mul\n      0x20\n      add\n      add\n        /* \"Evm/core/base/vault.sol\":5490:5559  eventData[2] = IEvents.Data(\"token\", \"string\", abi.encode(assetName)) */\n      dup2\n      swap1\n      mstore\n      pop\n        /* \"Evm/core/base/vault.sol\":5585:5645  IEvents.Data(\"provider\", \"string\", abi.encode(providerName)) */\n      mload(0x40)\n      dup1\n      0x60\n      add\n      0x40\n      mstore\n      dup1\n      mload(0x40)\n      dup1\n      0x40\n      add\n      0x40\n      mstore\n      dup1\n      0x08\n      dup2\n      mstore\n      0x20\n      add\n      0x70726f7669646572000000000000000000000000000000000000000000000000\n      dup2\n      mstore\n      pop\n      dup2\n      mstore\n      0x20\n      add\n      mload(0x40)\n      dup1\n      0x40\n      add\n      0x40\n      mstore\n      dup1\n      0x06\n      dup2\n      mstore\n      0x20\n      add\n      0x737472696e670000000000000000000000000000000000000000000000000000\n      dup2\n      mstore\n      pop\n      dup2\n      mstore\n      0x20\n      add\n        /* \"Evm/core/base/vault.sol\":5631:5643  providerName */\n      0x01\n        /* \"Evm/core/base/vault.sol\":5620:5644  abi.encode(providerName) */\n      add(0x20, mload(0x40))\n      tag_155\n      swap2\n      swap1\n      tag_156\n      jump\t// in\n    tag_155:\n      mload(0x40)\n      0x20\n      dup2\n      dup4\n      sub\n      sub\n      dup2\n      mstore\n      swap1\n      0x40\n      mstore\n        /* \"Evm/core/base/vault.sol\":5585:5645  IEvents.Data(\"provider\", \"string\", abi.encode(providerName)) */\n      dup2\n      mstore\n      pop\n        /* \"Evm/core/base/vault.sol\":5570:5579  eventData */\n      dup2\n        /* \"Evm/core/base/vault.sol\":5580:5581  3 */\n      0x03\n        /* \"Evm/core/base/vault.sol\":5570:5582  eventData[3] */\n      dup2\n      mload\n      dup2\n      lt\n      tag_157\n      jumpi\n      tag_158\n      tag_147\n      jump\t// in\n    tag_158:\n    tag_157:\n      0x20\n      mul\n      0x20\n      add\n      add\n        /* \"Evm/core/base/vault.sol\":5570:5645  eventData[3] = IEvents.Data(\"provider\", \"string\", abi.encode(providerName)) */\n      dup2\n      swap1\n      mstore\n      pop\n        /* \"Evm/core/base/vault.sol\":5671:5730  IEvents.Data(\"nullifier\", \"uint256\", abi.encode(nullifier)) */\n      mload(0x40)\n      dup1\n      0x60\n      add\n      0x40\n      mstore\n      dup1\n      mload(0x40)\n      dup1\n      0x40\n      add\n      0x40\n      mstore\n      dup1\n      0x09\n      dup2\n      mstore\n      0x20\n      add\n      0x6e756c6c69666965720000000000000000000000000000000000000000000000\n      dup2\n      mstore\n      pop\n      dup2\n      mstore\n      0x20\n      add\n      mload(0x40)\n      dup1\n      0x40\n      add\n      0x40\n      mstore\n      dup1\n      0x07\n      dup2\n      mstore\n      0x20\n      add\n      0x75696e7432353600000000000000000000000000000000000000000000000000\n      dup2\n      mstore\n      pop\n      dup2\n      mstore\n      0x20\n      add\n        /* \"Evm/core/base/vault.sol\":5719:5728  nullifier */\n      dup10\n        /* \"Evm/core/base/vault.sol\":5708:5729  abi.encode(nullifier) */\n      add(0x20, mload(0x40))\n      tag_159\n      swap2\n      swap1\n      tag_43\n      jump\t// in\n    tag_159:\n      mload(0x40)\n      0x20\n      dup2\n      dup4\n      sub\n      sub\n      dup2\n      mstore\n      swap1\n      0x40\n      mstore\n        /* \"Evm/core/base/vault.sol\":5671:5730  IEvents.Data(\"nullifier\", \"uint256\", abi.encode(nullifier)) */\n      dup2\n      mstore\n      pop\n        /* \"Evm/core/base/vault.sol\":5656:5665  eventData */\n      dup2\n        /* \"Evm/core/base/vault.sol\":5666:5667  4 */\n      0x04\n        /* \"Evm/core/base/vault.sol\":5656:5668  eventData[4] */\n      dup2\n      mload\n      dup2\n      lt\n      tag_160\n      jumpi\n      tag_161\n      tag_147\n      jump\t// in\n    tag_161:\n    tag_160:\n      0x20\n      mul\n      0x20\n      add\n      add\n        /* \"Evm/core/base/vault.sol\":5656:5730  eventData[4] = IEvents.Data(\"nullifier\", \"uint256\", abi.encode(nullifier)) */\n      dup2\n      swap1\n      mstore\n      pop\n        /* \"Evm/core/base/vault.sol\":5756:5821  IEvents.Data(\"timestamp\", \"uint256\", abi.encode(block.timestamp)) */\n      mload(0x40)\n      dup1\n      0x60\n      add\n      0x40\n      mstore\n      dup1\n      mload(0x40)\n      dup1\n      0x40\n      add\n      0x40\n      mstore\n      dup1\n      0x09\n      dup2\n      mstore\n      0x20\n      add\n      0x74696d657374616d700000000000000000000000000000000000000000000000\n      dup2\n      mstore\n      pop\n      dup2\n      mstore\n      0x20\n      add\n      mload(0x40)\n      dup1\n      0x40\n      add\n      0x40\n      mstore\n      dup1\n      0x07\n      dup2\n      mstore\n      0x20\n      add\n      0x75696e7432353600000000000000000000000000000000000000000000000000\n      dup2\n      mstore\n      pop\n      dup2\n      mstore\n      0x20\n      add\n        /* \"Evm/core/base/vault.sol\":5804:5819  block.timestamp */\n      timestamp\n        /* \"Evm/core/base/vault.sol\":5793:5820  abi.encode(block.timestamp) */\n      add(0x20, mload(0x40))\n      tag_162\n      swap2\n      swap1\n      tag_43\n      jump\t// in\n    tag_162:\n      mload(0x40)\n      0x20\n      dup2\n      dup4\n      sub\n      sub\n      dup2\n      mstore\n      swap1\n      0x40\n      mstore\n        /* \"Evm/core/base/vault.sol\":5756:5821  IEvents.Data(\"timestamp\", \"uint256\", abi.encode(block.timestamp)) */\n      dup2\n      mstore\n      pop\n        /* \"Evm/core/base/vault.sol\":5741:5750  eventData */\n      dup2\n        /* \"Evm/core/base/vault.sol\":5751:5752  5 */\n      0x05\n        /* \"Evm/core/base/vault.sol\":5741:5753  eventData[5] */\n      dup2\n      mload\n      dup2\n      lt\n      tag_163\n      jumpi\n      tag_164\n      tag_147\n      jump\t// in\n    tag_164:\n    tag_163:\n      0x20\n      mul\n      0x20\n      add\n      add\n        /* \"Evm/core/base/vault.sol\":5741:5821  eventData[5] = IEvents.Data(\"timestamp\", \"uint256\", abi.encode(block.timestamp)) */\n      dup2\n      swap1\n      mstore\n      pop\n        /* \"Evm/core/base/vault.sol\":5842:5848  events */\n      immutable(\"0xa55f93089260f97cd16ec7a717e7ade24f99065bc4509014bd14fefe4d832ab6\")\n        /* \"Evm/core/base/vault.sol\":5842:5863  events.emitVaultEvent */\n      0xffffffffffffffffffffffffffffffffffffffff\n      and\n      0x7d64fa9b\n        /* \"Evm/core/base/vault.sol\":5883:5892  eventData */\n      dup3\n        /* \"Evm/core/base/vault.sol\":5842:5893  events.emitVaultEvent(\"Direct Withdraw\", eventData) */\n      mload(0x40)\n      dup3\n      0xffffffff\n      and\n      0xe0\n      shl\n      dup2\n      mstore\n      0x04\n      add\n      tag_165\n      swap2\n      swap1\n      tag_166\n      jump\t// in\n    tag_165:\n      0x00\n      mload(0x40)\n      dup1\n      dup4\n      sub\n      dup2\n      0x00\n      dup8\n      dup1\n      extcodesize\n      iszero\n      dup1\n      iszero\n      tag_167\n      jumpi\n      revert(0x00, 0x00)\n    tag_167:\n      pop\n      gas\n      call\n      iszero\n      dup1\n      iszero\n      tag_169\n      jumpi\n      returndatacopy(0x00, 0x00, returndatasize)\n      revert(0x00, returndatasize)\n    tag_169:\n      pop\n      pop\n      pop\n      pop\n        /* \"Evm/core/base/vault.sol\":5930:5935  token */\n      dup7\n        /* \"Evm/core/base/vault.sol\":5909:5958  DirectWithdraw(user, token, amount, providerName) */\n      0xffffffffffffffffffffffffffffffffffffffff\n      and\n        /* \"Evm/core/base/vault.sol\":5924:5928  user */\n      dup13\n        /* \"Evm/core/base/vault.sol\":5909:5958  DirectWithdraw(user, token, amount, providerName) */\n      0xffffffffffffffffffffffffffffffffffffffff\n      and\n      0xcc4f8702356931e6d23a93d1b60beac6a7ea77d447ada4b1502a09d0b7125709\n        /* \"Evm/core/base/vault.sol\":5937:5943  amount */\n      dup12\n        /* \"Evm/core/base/vault.sol\":5945:5957  providerName */\n      0x01\n        /* \"Evm/core/base/vault.sol\":5909:5958  DirectWithdraw(user, token, amount, providerName) */\n      mload(0x40)\n      tag_170\n      swap3\n      swap2\n      swap1\n      tag_171\n      jump\t// in\n    tag_170:\n      mload(0x40)\n      dup1\n      swap2\n      sub\n      swap1\n      log3\n        /* \"Evm/core/base/vault.sol\":4044:5966  { ... */\n      pop\n      pop\n      pop\n      pop\n      pop\n      pop\n      pop\n        /* \"Evm/core/base/vault.sol\":3925:5966  function directWithdraw(address user, string calldata assetName, uint256 amount, uint256 nullifier) external onlyOwner { ... */\n      pop\n      pop\n      pop\n      pop\n      pop\n      jump\t// out\n        /* \"@openzeppelin/contracts/access/Ownable.sol\":1638:1723  function owner() public view virtual returns (address) {... */\n    tag_54:\n        /* \"@openzeppelin/contracts/access/Ownable.sol\":1684:1691  address */\n      0x00\n        /* \"@openzeppelin/contracts/access/Ownable.sol\":1710:1716  _owner */\n      0x00\n      0x00\n      swap1\n      sload\n      swap1\n      0x0100\n      exp\n      swap1\n      div\n      0xffffffffffffffffffffffffffffffffffffffff\n      and\n        /* \"@openzeppelin/contracts/access/Ownable.sol\":1703:1716  return _owner */\n      swap1\n      pop\n        /* \"@openzeppelin/contracts/access/Ownable.sol\":1638:1723  function owner() public view virtual returns (address) {... */\n      swap1\n      jump\t// out\n        /* \"Evm/core/base/vault.sol\":5974:8142  function deposit(string calldata assetName, uint256 amount) external {... */\n    tag_59:\n        /* \"Evm/core/base/vault.sol\":6054:6067  address token */\n      0x00\n        /* \"Evm/core/base/vault.sol\":6070:6093  resolveAsset(assetName) */\n      tag_174\n        /* \"Evm/core/base/vault.sol\":6083:6092  assetName */\n      dup5\n      dup5\n        /* \"Evm/core/base/vault.sol\":6070:6093  resolveAsset(assetName) */\n      dup1\n      dup1\n      0x1f\n      add\n      0x20\n      dup1\n      swap2\n      div\n      mul\n      0x20\n      add\n      mload(0x40)\n      swap1\n      dup2\n      add\n      0x40\n      mstore\n      dup1\n      swap4\n      swap3\n      swap2\n      swap1\n      dup2\n      dup2\n      mstore\n      0x20\n      add\n      dup4\n      dup4\n      dup1\n      dup3\n      dup5\n      calldatacopy\n      0x00\n      dup2\n      dup5\n      add\n      mstore\n      not(0x1f)\n      0x1f\n      dup3\n      add\n      and\n      swap1\n      pop\n      dup1\n      dup4\n      add\n      swap3\n      pop\n      pop\n      pop\n      pop\n      pop\n      pop\n      pop\n        /* \"Evm/core/base/vault.sol\":6070:6082  resolveAsset */\n      tag_29\n        /* \"Evm/core/base/vault.sol\":6070:6093  resolveAsset(assetName) */\n      jump\t// in\n    tag_174:\n        /* \"Evm/core/base/vault.sol\":6054:6093  address token = resolveAsset(assetName) */\n      swap1\n      pop\n        /* \"Evm/core/base/vault.sol\":6112:6128  isSupportedToken */\n      0x07\n        /* \"Evm/core/base/vault.sol\":6112:6135  isSupportedToken[token] */\n      0x00\n        /* \"Evm/core/base/vault.sol\":6129:6134  token */\n      dup3\n        /* \"Evm/core/base/vault.sol\":6112:6135  isSupportedToken[token] */\n      0xffffffffffffffffffffffffffffffffffffffff\n      and\n      0xffffffffffffffffffffffffffffffffffffffff\n      and\n      dup2\n      mstore\n      0x20\n      add\n      swap1\n      dup2\n      mstore\n      0x20\n      add\n      0x00\n      keccak256\n      0x00\n      swap1\n      sload\n      swap1\n      0x0100\n      exp\n      swap1\n      div\n      0xff\n      and\n        /* \"Evm/core/base/vault.sol\":6104:6166  require(isSupportedToken[token], \"Vault: Token not supported\") */\n      tag_175\n      jumpi\n      mload(0x40)\n      0x08c379a000000000000000000000000000000000000000000000000000000000\n      dup2\n      mstore\n      0x04\n      add\n      tag_176\n      swap1\n      tag_116\n      jump\t// in\n    tag_176:\n      mload(0x40)\n      dup1\n      swap2\n      sub\n      swap1\n      revert\n    tag_175:\n        /* \"Evm/core/base/vault.sol\":6194:6195  0 */\n      0x00\n        /* \"Evm/core/base/vault.sol\":6185:6191  amount */\n      dup3\n        /* \"Evm/core/base/vault.sol\":6185:6195  amount > 0 */\n      gt\n        /* \"Evm/core/base/vault.sol\":6177:6226  require(amount > 0, \"Vault: Deposit must be > 0\") */\n      tag_177\n      jumpi\n      mload(0x40)\n      0x08c379a000000000000000000000000000000000000000000000000000000000\n      dup2\n      mstore\n      0x04\n      add\n      tag_178\n      swap1\n      tag_179\n      jump\t// in\n    tag_178:\n      mload(0x40)\n      dup1\n      swap2\n      sub\n      swap1\n      revert\n    tag_177:\n        /* \"Evm/core/base/vault.sol\":6239:6251  uint256 rate */\n      0x00\n        /* \"Evm/core/base/vault.sol\":6254:6277  _getPseudoRandomRange() */\n      tag_180\n        /* \"Evm/core/base/vault.sol\":6254:6275  _getPseudoRandomRange */\n      tag_118\n        /* \"Evm/core/base/vault.sol\":6254:6277  _getPseudoRandomRange() */\n      jump\t// in\n    tag_180:\n        /* \"Evm/core/base/vault.sol\":6239:6277  uint256 rate = _getPseudoRandomRange() */\n      swap1\n      pop\n        /* \"Evm/core/base/vault.sol\":6288:6303  uint256 rewards */\n      0x00\n        /* \"Evm/core/base/vault.sol\":6306:6307  0 */\n      0x00\n        /* \"Evm/core/base/vault.sol\":6288:6307  uint256 rewards = 0 */\n      swap1\n      pop\n        /* \"Evm/core/base/vault.sol\":6318:6341  uint256 previousBalance */\n      0x00\n        /* \"Evm/core/base/vault.sol\":6344:6356  userBalances */\n      0x05\n        /* \"Evm/core/base/vault.sol\":6344:6368  userBalances[msg.sender] */\n      0x00\n        /* \"Evm/core/base/vault.sol\":6357:6367  msg.sender */\n      caller\n        /* \"Evm/core/base/vault.sol\":6344:6368  userBalances[msg.sender] */\n      0xffffffffffffffffffffffffffffffffffffffff\n      and\n      0xffffffffffffffffffffffffffffffffffffffff\n      and\n      dup2\n      mstore\n      0x20\n      add\n      swap1\n      dup2\n      mstore\n      0x20\n      add\n      0x00\n      keccak256\n        /* \"Evm/core/base/vault.sol\":6344:6375  userBalances[msg.sender][token] */\n      0x00\n        /* \"Evm/core/base/vault.sol\":6369:6374  token */\n      dup6\n        /* \"Evm/core/base/vault.sol\":6344:6375  userBalances[msg.sender][token] */\n      0xffffffffffffffffffffffffffffffffffffffff\n      and\n      0xffffffffffffffffffffffffffffffffffffffff\n      and\n      dup2\n      mstore\n      0x20\n      add\n      swap1\n      dup2\n      mstore\n      0x20\n      add\n      0x00\n      keccak256\n      sload\n        /* \"Evm/core/base/vault.sol\":6318:6375  uint256 previousBalance = userBalances[msg.sender][token] */\n      swap1\n      pop\n        /* \"Evm/core/base/vault.sol\":6386:6402  uint256 lastTime */\n      0x00\n        /* \"Evm/core/base/vault.sol\":6405:6419  lastInteracted */\n      0x06\n        /* \"Evm/core/base/vault.sol\":6405:6431  lastInteracted[msg.sender] */\n      0x00\n        /* \"Evm/core/base/vault.sol\":6420:6430  msg.sender */\n      caller\n        /* \"Evm/core/base/vault.sol\":6405:6431  lastInteracted[msg.sender] */\n      0xffffffffffffffffffffffffffffffffffffffff\n      and\n      0xffffffffffffffffffffffffffffffffffffffff\n      and\n      dup2\n      mstore\n      0x20\n      add\n      swap1\n      dup2\n      mstore\n      0x20\n      add\n      0x00\n      keccak256\n        /* \"Evm/core/base/vault.sol\":6405:6438  lastInteracted[msg.sender][token] */\n      0x00\n        /* \"Evm/core/base/vault.sol\":6432:6437  token */\n      dup7\n        /* \"Evm/core/base/vault.sol\":6405:6438  lastInteracted[msg.sender][token] */\n      0xffffffffffffffffffffffffffffffffffffffff\n      and\n      0xffffffffffffffffffffffffffffffffffffffff\n      and\n      dup2\n      mstore\n      0x20\n      add\n      swap1\n      dup2\n      mstore\n      0x20\n      add\n      0x00\n      keccak256\n      sload\n        /* \"Evm/core/base/vault.sol\":6386:6438  uint256 lastTime = lastInteracted[msg.sender][token] */\n      swap1\n      pop\n        /* \"Evm/core/base/vault.sol\":6568:6569  0 */\n      0x00\n        /* \"Evm/core/base/vault.sol\":6550:6565  previousBalance */\n      dup3\n        /* \"Evm/core/base/vault.sol\":6550:6569  previousBalance > 0 */\n      gt\n        /* \"Evm/core/base/vault.sol\":6550:6585  previousBalance > 0 && lastTime > 0 */\n      dup1\n      iszero\n      tag_181\n      jumpi\n      pop\n        /* \"Evm/core/base/vault.sol\":6584:6585  0 */\n      0x00\n        /* \"Evm/core/base/vault.sol\":6573:6581  lastTime */\n      dup2\n        /* \"Evm/core/base/vault.sol\":6573:6585  lastTime > 0 */\n      gt\n        /* \"Evm/core/base/vault.sol\":6550:6585  previousBalance > 0 && lastTime > 0 */\n    tag_181:\n        /* \"Evm/core/base/vault.sol\":6550:6615  previousBalance > 0 && lastTime > 0 && block.timestamp > lastTime */\n      dup1\n      iszero\n      tag_182\n      jumpi\n      pop\n        /* \"Evm/core/base/vault.sol\":6607:6615  lastTime */\n      dup1\n        /* \"Evm/core/base/vault.sol\":6589:6604  block.timestamp */\n      timestamp\n        /* \"Evm/core/base/vault.sol\":6589:6615  block.timestamp > lastTime */\n      gt\n        /* \"Evm/core/base/vault.sol\":6550:6615  previousBalance > 0 && lastTime > 0 && block.timestamp > lastTime */\n    tag_182:\n        /* \"Evm/core/base/vault.sol\":6546:6886  if (previousBalance > 0 && lastTime > 0 && block.timestamp > lastTime) {... */\n      iszero\n      tag_183\n      jumpi\n        /* \"Evm/core/base/vault.sol\":6632:6647  uint256 elapsed */\n      0x00\n        /* \"Evm/core/base/vault.sol\":6668:6676  lastTime */\n      dup2\n        /* \"Evm/core/base/vault.sol\":6650:6665  block.timestamp */\n      timestamp\n        /* \"Evm/core/base/vault.sol\":6650:6676  block.timestamp - lastTime */\n      tag_184\n      swap2\n      swap1\n      tag_123\n      jump\t// in\n    tag_184:\n        /* \"Evm/core/base/vault.sol\":6632:6676  uint256 elapsed = block.timestamp - lastTime */\n      swap1\n      pop\n        /* \"Evm/core/base/vault.sol\":6849:6873  100_000_000 * 31_536_000 */\n      0x0b342eb7c38000\n        /* \"Evm/core/base/vault.sol\":6837:6844  elapsed */\n      dup2\n        /* \"Evm/core/base/vault.sol\":6830:6834  rate */\n      dup7\n        /* \"Evm/core/base/vault.sol\":6812:6827  previousBalance */\n      dup6\n        /* \"Evm/core/base/vault.sol\":6812:6834  previousBalance * rate */\n      tag_185\n      swap2\n      swap1\n      tag_125\n      jump\t// in\n    tag_185:\n        /* \"Evm/core/base/vault.sol\":6812:6844  previousBalance * rate * elapsed */\n      tag_186\n      swap2\n      swap1\n      tag_125\n      jump\t// in\n    tag_186:\n        /* \"Evm/core/base/vault.sol\":6811:6874  (previousBalance * rate * elapsed) / (100_000_000 * 31_536_000) */\n      tag_187\n      swap2\n      swap1\n      tag_128\n      jump\t// in\n    tag_187:\n        /* \"Evm/core/base/vault.sol\":6801:6874  rewards = (previousBalance * rate * elapsed) / (100_000_000 * 31_536_000) */\n      swap4\n      pop\n        /* \"Evm/core/base/vault.sol\":6617:6886  {... */\n      pop\n        /* \"Evm/core/base/vault.sol\":6546:6886  if (previousBalance > 0 && lastTime > 0 && block.timestamp > lastTime) {... */\n    tag_183:\n        /* \"Evm/core/base/vault.sol\":6953:7018  IERC20(token).safeTransferFrom(msg.sender, address(this), amount) */\n      tag_188\n        /* \"Evm/core/base/vault.sol\":6984:6994  msg.sender */\n      caller\n        /* \"Evm/core/base/vault.sol\":7004:7008  this */\n      address\n        /* \"Evm/core/base/vault.sol\":7011:7017  amount */\n      dup9\n        /* \"Evm/core/base/vault.sol\":6960:6965  token */\n      dup9\n        /* \"Evm/core/base/vault.sol\":6953:6983  IERC20(token).safeTransferFrom */\n      0xffffffffffffffffffffffffffffffffffffffff\n      and\n      tag_189\n      swap1\n        /* \"Evm/core/base/vault.sol\":6953:7018  IERC20(token).safeTransferFrom(msg.sender, address(this), amount) */\n      swap4\n      swap3\n      swap2\n      swap1\n      0xffffffff\n      and\n      jump\t// in\n    tag_188:\n        /* \"Evm/core/base/vault.sol\":7188:7195  rewards */\n      dup3\n        /* \"Evm/core/base/vault.sol\":7179:7185  amount */\n      dup7\n        /* \"Evm/core/base/vault.sol\":7161:7176  previousBalance */\n      dup4\n        /* \"Evm/core/base/vault.sol\":7161:7185  previousBalance + amount */\n      tag_190\n      swap2\n      swap1\n      tag_130\n      jump\t// in\n    tag_190:\n        /* \"Evm/core/base/vault.sol\":7161:7195  previousBalance + amount + rewards */\n      tag_191\n      swap2\n      swap1\n      tag_130\n      jump\t// in\n    tag_191:\n        /* \"Evm/core/base/vault.sol\":7127:7139  userBalances */\n      0x05\n        /* \"Evm/core/base/vault.sol\":7127:7151  userBalances[msg.sender] */\n      0x00\n        /* \"Evm/core/base/vault.sol\":7140:7150  msg.sender */\n      caller\n        /* \"Evm/core/base/vault.sol\":7127:7151  userBalances[msg.sender] */\n      0xffffffffffffffffffffffffffffffffffffffff\n      and\n      0xffffffffffffffffffffffffffffffffffffffff\n      and\n      dup2\n      mstore\n      0x20\n      add\n      swap1\n      dup2\n      mstore\n      0x20\n      add\n      0x00\n      keccak256\n        /* \"Evm/core/base/vault.sol\":7127:7158  userBalances[msg.sender][token] */\n      0x00\n        /* \"Evm/core/base/vault.sol\":7152:7157  token */\n      dup8\n        /* \"Evm/core/base/vault.sol\":7127:7158  userBalances[msg.sender][token] */\n      0xffffffffffffffffffffffffffffffffffffffff\n      and\n      0xffffffffffffffffffffffffffffffffffffffff\n      and\n      dup2\n      mstore\n      0x20\n      add\n      swap1\n      dup2\n      mstore\n      0x20\n      add\n      0x00\n      keccak256\n        /* \"Evm/core/base/vault.sol\":7127:7195  userBalances[msg.sender][token] = previousBalance + amount + rewards */\n      dup2\n      swap1\n      sstore\n      pop\n        /* \"Evm/core/base/vault.sol\":7242:7257  block.timestamp */\n      timestamp\n        /* \"Evm/core/base/vault.sol\":7206:7220  lastInteracted */\n      0x06\n        /* \"Evm/core/base/vault.sol\":7206:7232  lastInteracted[msg.sender] */\n      0x00\n        /* \"Evm/core/base/vault.sol\":7221:7231  msg.sender */\n      caller\n        /* \"Evm/core/base/vault.sol\":7206:7232  lastInteracted[msg.sender] */\n      0xffffffffffffffffffffffffffffffffffffffff\n      and\n      0xffffffffffffffffffffffffffffffffffffffff\n      and\n      dup2\n      mstore\n      0x20\n      add\n      swap1\n      dup2\n      mstore\n      0x20\n      add\n      0x00\n      keccak256\n        /* \"Evm/core/base/vault.sol\":7206:7239  lastInteracted[msg.sender][token] */\n      0x00\n        /* \"Evm/core/base/vault.sol\":7233:7238  token */\n      dup8\n        /* \"Evm/core/base/vault.sol\":7206:7239  lastInteracted[msg.sender][token] */\n      0xffffffffffffffffffffffffffffffffffffffff\n      and\n      0xffffffffffffffffffffffffffffffffffffffff\n      and\n      dup2\n      mstore\n      0x20\n      add\n      swap1\n      dup2\n      mstore\n      0x20\n      add\n      0x00\n      keccak256\n        /* \"Evm/core/base/vault.sol\":7206:7257  lastInteracted[msg.sender][token] = block.timestamp */\n      dup2\n      swap1\n      sstore\n      pop\n        /* \"Evm/core/base/vault.sol\":7354:7385  IEvents.Data[] memory eventData */\n      0x00\n        /* \"Evm/core/base/vault.sol\":7407:7408  7 */\n      0x07\n        /* \"Evm/core/base/vault.sol\":7388:7409  new IEvents.Data[](7) */\n      0xffffffffffffffff\n      dup2\n      gt\n      iszero\n      tag_192\n      jumpi\n      tag_193\n      tag_139\n      jump\t// in\n    tag_193:\n    tag_192:\n      mload(0x40)\n      swap1\n      dup1\n      dup3\n      mstore\n      dup1\n      0x20\n      mul\n      0x20\n      add\n      dup3\n      add\n      0x40\n      mstore\n      dup1\n      iszero\n      tag_194\n      jumpi\n      dup2\n      0x20\n      add\n    tag_195:\n      tag_196\n      tag_143\n      jump\t// in\n    tag_196:\n      dup2\n      mstore\n      0x20\n      add\n      swap1\n      0x01\n      swap1\n      sub\n      swap1\n      dup2\n      tag_195\n      jumpi\n      swap1\n      pop\n    tag_194:\n      pop\n        /* \"Evm/core/base/vault.sol\":7354:7409  IEvents.Data[] memory eventData = new IEvents.Data[](7) */\n      swap1\n      pop\n        /* \"Evm/core/base/vault.sol\":7435:7490  IEvents.Data(\"user\", \"address\", abi.encode(msg.sender)) */\n      mload(0x40)\n      dup1\n      0x60\n      add\n      0x40\n      mstore\n      dup1\n      mload(0x40)\n      dup1\n      0x40\n      add\n      0x40\n      mstore\n      dup1\n      0x04\n      dup2\n      mstore\n      0x20\n      add\n      0x7573657200000000000000000000000000000000000000000000000000000000\n      dup2\n      mstore\n      pop\n      dup2\n      mstore\n      0x20\n      add\n      mload(0x40)\n      dup1\n      0x40\n      add\n      0x40\n      mstore\n      dup1\n      0x07\n      dup2\n      mstore\n      0x20\n      add\n      0x6164647265737300000000000000000000000000000000000000000000000000\n      dup2\n      mstore\n      pop\n      dup2\n      mstore\n      0x20\n      add\n        /* \"Evm/core/base/vault.sol\":7478:7488  msg.sender */\n      caller\n        /* \"Evm/core/base/vault.sol\":7467:7489  abi.encode(msg.sender) */\n      add(0x20, mload(0x40))\n      tag_197\n      swap2\n      swap1\n      tag_31\n      jump\t// in\n    tag_197:\n      mload(0x40)\n      0x20\n      dup2\n      dup4\n      sub\n      sub\n      dup2\n      mstore\n      swap1\n      0x40\n      mstore\n        /* \"Evm/core/base/vault.sol\":7435:7490  IEvents.Data(\"user\", \"address\", abi.encode(msg.sender)) */\n      dup2\n      mstore\n      pop\n        /* \"Evm/core/base/vault.sol\":7420:7429  eventData */\n      dup2\n        /* \"Evm/core/base/vault.sol\":7430:7431  0 */\n      0x00\n        /* \"Evm/core/base/vault.sol\":7420:7432  eventData[0] */\n      dup2\n      mload\n      dup2\n      lt\n      tag_198\n      jumpi\n      tag_199\n      tag_147\n      jump\t// in\n    tag_199:\n    tag_198:\n      0x20\n      mul\n      0x20\n      add\n      add\n        /* \"Evm/core/base/vault.sol\":7420:7490  eventData[0] = IEvents.Data(\"user\", \"address\", abi.encode(msg.sender)) */\n      dup2\n      swap1\n      mstore\n      pop\n        /* \"Evm/core/base/vault.sol\":7516:7569  IEvents.Data(\"amount\", \"uint256\", abi.encode(amount)) */\n      mload(0x40)\n      dup1\n      0x60\n      add\n      0x40\n      mstore\n      dup1\n      mload(0x40)\n      dup1\n      0x40\n      add\n      0x40\n      mstore\n      dup1\n      0x06\n      dup2\n      mstore\n      0x20\n      add\n      0x616d6f756e740000000000000000000000000000000000000000000000000000\n      dup2\n      mstore\n      pop\n      dup2\n      mstore\n      0x20\n      add\n      mload(0x40)\n      dup1\n      0x40\n      add\n      0x40\n      mstore\n      dup1\n      0x07\n      dup2\n      mstore\n      0x20\n      add\n      0x75696e7432353600000000000000000000000000000000000000000000000000\n      dup2\n      mstore\n      pop\n      dup2\n      mstore\n      0x20\n      add\n        /* \"Evm/core/base/vault.sol\":7561:7567  amount */\n      dup9\n        /* \"Evm/core/base/vault.sol\":7550:7568  abi.encode(amount) */\n      add(0x20, mload(0x40))\n      tag_200\n      swap2\n      swap1\n      tag_43\n      jump\t// in\n    tag_200:\n      mload(0x40)\n      0x20\n      dup2\n      dup4\n      sub\n      sub\n      dup2\n      mstore\n      swap1\n      0x40\n      mstore\n        /* \"Evm/core/base/vault.sol\":7516:7569  IEvents.Data(\"amount\", \"uint256\", abi.encode(amount)) */\n      dup2\n      mstore\n      pop\n        /* \"Evm/core/base/vault.sol\":7501:7510  eventData */\n      dup2\n        /* \"Evm/core/base/vault.sol\":7511:7512  1 */\n      0x01\n        /* \"Evm/core/base/vault.sol\":7501:7513  eventData[1] */\n      dup2\n      mload\n      dup2\n      lt\n      tag_201\n      jumpi\n      tag_202\n      tag_147\n      jump\t// in\n    tag_202:\n    tag_201:\n      0x20\n      mul\n      0x20\n      add\n      add\n        /* \"Evm/core/base/vault.sol\":7501:7569  eventData[1] = IEvents.Data(\"amount\", \"uint256\", abi.encode(amount)) */\n      dup2\n      swap1\n      mstore\n      pop\n        /* \"Evm/core/base/vault.sol\":7595:7649  IEvents.Data(\"token\", \"string\", abi.encode(assetName)) */\n      mload(0x40)\n      dup1\n      0x60\n      add\n      0x40\n      mstore\n      dup1\n      mload(0x40)\n      dup1\n      0x40\n      add\n      0x40\n      mstore\n      dup1\n      0x05\n      dup2\n      mstore\n      0x20\n      add\n      0x746f6b656e000000000000000000000000000000000000000000000000000000\n      dup2\n      mstore\n      pop\n      dup2\n      mstore\n      0x20\n      add\n      mload(0x40)\n      dup1\n      0x40\n      add\n      0x40\n      mstore\n      dup1\n      0x06\n      dup2\n      mstore\n      0x20\n      add\n      0x737472696e670000000000000000000000000000000000000000000000000000\n      dup2\n      mstore\n      pop\n      dup2\n      mstore\n      0x20\n      add\n        /* \"Evm/core/base/vault.sol\":7638:7647  assetName */\n      dup11\n      dup11\n        /* \"Evm/core/base/vault.sol\":7627:7648  abi.encode(assetName) */\n      add(0x20, mload(0x40))\n      tag_203\n      swap3\n      swap2\n      swap1\n      tag_152\n      jump\t// in\n    tag_203:\n      mload(0x40)\n      0x20\n      dup2\n      dup4\n      sub\n      sub\n      dup2\n      mstore\n      swap1\n      0x40\n      mstore\n        /* \"Evm/core/base/vault.sol\":7595:7649  IEvents.Data(\"token\", \"string\", abi.encode(assetName)) */\n      dup2\n      mstore\n      pop\n        /* \"Evm/core/base/vault.sol\":7580:7589  eventData */\n      dup2\n        /* \"Evm/core/base/vault.sol\":7590:7591  2 */\n      0x02\n        /* \"Evm/core/base/vault.sol\":7580:7592  eventData[2] */\n      dup2\n      mload\n      dup2\n      lt\n      tag_204\n      jumpi\n      tag_205\n      tag_147\n      jump\t// in\n    tag_205:\n    tag_204:\n      0x20\n      mul\n      0x20\n      add\n      add\n        /* \"Evm/core/base/vault.sol\":7580:7649  eventData[2] = IEvents.Data(\"token\", \"string\", abi.encode(assetName)) */\n      dup2\n      swap1\n      mstore\n      pop\n        /* \"Evm/core/base/vault.sol\":7675:7735  IEvents.Data(\"provider\", \"string\", abi.encode(providerName)) */\n      mload(0x40)\n      dup1\n      0x60\n      add\n      0x40\n      mstore\n      dup1\n      mload(0x40)\n      dup1\n      0x40\n      add\n      0x40\n      mstore\n      dup1\n      0x08\n      dup2\n      mstore\n      0x20\n      add\n      0x70726f7669646572000000000000000000000000000000000000000000000000\n      dup2\n      mstore\n      pop\n      dup2\n      mstore\n      0x20\n      add\n      mload(0x40)\n      dup1\n      0x40\n      add\n      0x40\n      mstore\n      dup1\n      0x06\n      dup2\n      mstore\n      0x20\n      add\n      0x737472696e670000000000000000000000000000000000000000000000000000\n      dup2\n      mstore\n      pop\n      dup2\n      mstore\n      0x20\n      add\n        /* \"Evm/core/base/vault.sol\":7721:7733  providerName */\n      0x01\n        /* \"Evm/core/base/vault.sol\":7710:7734  abi.encode(providerName) */\n      add(0x20, mload(0x40))\n      tag_206\n      swap2\n      swap1\n      tag_156\n      jump\t// in\n    tag_206:\n      mload(0x40)\n      0x20\n      dup2\n      dup4\n      sub\n      sub\n      dup2\n      mstore\n      swap1\n      0x40\n      mstore\n        /* \"Evm/core/base/vault.sol\":7675:7735  IEvents.Data(\"provider\", \"string\", abi.encode(providerName)) */\n      dup2\n      mstore\n      pop\n        /* \"Evm/core/base/vault.sol\":7660:7669  eventData */\n      dup2\n        /* \"Evm/core/base/vault.sol\":7670:7671  3 */\n      0x03\n        /* \"Evm/core/base/vault.sol\":7660:7672  eventData[3] */\n      dup2\n      mload\n      dup2\n      lt\n      tag_207\n      jumpi\n      tag_208\n      tag_147\n      jump\t// in\n    tag_208:\n    tag_207:\n      0x20\n      mul\n      0x20\n      add\n      add\n        /* \"Evm/core/base/vault.sol\":7660:7735  eventData[3] = IEvents.Data(\"provider\", \"string\", abi.encode(providerName)) */\n      dup2\n      swap1\n      mstore\n      pop\n        /* \"Evm/core/base/vault.sol\":7761:7826  IEvents.Data(\"timestamp\", \"uint256\", abi.encode(block.timestamp)) */\n      mload(0x40)\n      dup1\n      0x60\n      add\n      0x40\n      mstore\n      dup1\n      mload(0x40)\n      dup1\n      0x40\n      add\n      0x40\n      mstore\n      dup1\n      0x09\n      dup2\n      mstore\n      0x20\n      add\n      0x74696d657374616d700000000000000000000000000000000000000000000000\n      dup2\n      mstore\n      pop\n      dup2\n      mstore\n      0x20\n      add\n      mload(0x40)\n      dup1\n      0x40\n      add\n      0x40\n      mstore\n      dup1\n      0x07\n      dup2\n      mstore\n      0x20\n      add\n      0x75696e7432353600000000000000000000000000000000000000000000000000\n      dup2\n      mstore\n      pop\n      dup2\n      mstore\n      0x20\n      add\n        /* \"Evm/core/base/vault.sol\":7809:7824  block.timestamp */\n      timestamp\n        /* \"Evm/core/base/vault.sol\":7798:7825  abi.encode(block.timestamp) */\n      add(0x20, mload(0x40))\n      tag_209\n      swap2\n      swap1\n      tag_43\n      jump\t// in\n    tag_209:\n      mload(0x40)\n      0x20\n      dup2\n      dup4\n      sub\n      sub\n      dup2\n      mstore\n      swap1\n      0x40\n      mstore\n        /* \"Evm/core/base/vault.sol\":7761:7826  IEvents.Data(\"timestamp\", \"uint256\", abi.encode(block.timestamp)) */\n      dup2\n      mstore\n      pop\n        /* \"Evm/core/base/vault.sol\":7746:7755  eventData */\n      dup2\n        /* \"Evm/core/base/vault.sol\":7756:7757  4 */\n      0x04\n        /* \"Evm/core/base/vault.sol\":7746:7758  eventData[4] */\n      dup2\n      mload\n      dup2\n      lt\n      tag_210\n      jumpi\n      tag_211\n      tag_147\n      jump\t// in\n    tag_211:\n    tag_210:\n      0x20\n      mul\n      0x20\n      add\n      add\n        /* \"Evm/core/base/vault.sol\":7746:7826  eventData[4] = IEvents.Data(\"timestamp\", \"uint256\", abi.encode(block.timestamp)) */\n      dup2\n      swap1\n      mstore\n      pop\n        /* \"Evm/core/base/vault.sol\":7852:7901  IEvents.Data(\"rate\", \"uint256\", abi.encode(rate)) */\n      mload(0x40)\n      dup1\n      0x60\n      add\n      0x40\n      mstore\n      dup1\n      mload(0x40)\n      dup1\n      0x40\n      add\n      0x40\n      mstore\n      dup1\n      0x04\n      dup2\n      mstore\n      0x20\n      add\n      0x7261746500000000000000000000000000000000000000000000000000000000\n      dup2\n      mstore\n      pop\n      dup2\n      mstore\n      0x20\n      add\n      mload(0x40)\n      dup1\n      0x40\n      add\n      0x40\n      mstore\n      dup1\n      0x07\n      dup2\n      mstore\n      0x20\n      add\n      0x75696e7432353600000000000000000000000000000000000000000000000000\n      dup2\n      mstore\n      pop\n      dup2\n      mstore\n      0x20\n      add\n        /* \"Evm/core/base/vault.sol\":7895:7899  rate */\n      dup7\n        /* \"Evm/core/base/vault.sol\":7884:7900  abi.encode(rate) */\n      add(0x20, mload(0x40))\n      tag_212\n      swap2\n      swap1\n      tag_43\n      jump\t// in\n    tag_212:\n      mload(0x40)\n      0x20\n      dup2\n      dup4\n      sub\n      sub\n      dup2\n      mstore\n      swap1\n      0x40\n      mstore\n        /* \"Evm/core/base/vault.sol\":7852:7901  IEvents.Data(\"rate\", \"uint256\", abi.encode(rate)) */\n      dup2\n      mstore\n      pop\n        /* \"Evm/core/base/vault.sol\":7837:7846  eventData */\n      dup2\n        /* \"Evm/core/base/vault.sol\":7847:7848  5 */\n      0x05\n        /* \"Evm/core/base/vault.sol\":7837:7849  eventData[5] */\n      dup2\n      mload\n      dup2\n      lt\n      tag_213\n      jumpi\n      tag_214\n      tag_147\n      jump\t// in\n    tag_214:\n    tag_213:\n      0x20\n      mul\n      0x20\n      add\n      add\n        /* \"Evm/core/base/vault.sol\":7837:7901  eventData[5] = IEvents.Data(\"rate\", \"uint256\", abi.encode(rate)) */\n      dup2\n      swap1\n      mstore\n      pop\n        /* \"Evm/core/base/vault.sol\":7927:7982  IEvents.Data(\"rewards\", \"uint256\", abi.encode(rewards)) */\n      mload(0x40)\n      dup1\n      0x60\n      add\n      0x40\n      mstore\n      dup1\n      mload(0x40)\n      dup1\n      0x40\n      add\n      0x40\n      mstore\n      dup1\n      0x07\n      dup2\n      mstore\n      0x20\n      add\n      0x7265776172647300000000000000000000000000000000000000000000000000\n      dup2\n      mstore\n      pop\n      dup2\n      mstore\n      0x20\n      add\n      mload(0x40)\n      dup1\n      0x40\n      add\n      0x40\n      mstore\n      dup1\n      0x07\n      dup2\n      mstore\n      0x20\n      add\n      0x75696e7432353600000000000000000000000000000000000000000000000000\n      dup2\n      mstore\n      pop\n      dup2\n      mstore\n      0x20\n      add\n        /* \"Evm/core/base/vault.sol\":7973:7980  rewards */\n      dup6\n        /* \"Evm/core/base/vault.sol\":7962:7981  abi.encode(rewards) */\n      add(0x20, mload(0x40))\n      tag_215\n      swap2\n      swap1\n      tag_43\n      jump\t// in\n    tag_215:\n      mload(0x40)\n      0x20\n      dup2\n      dup4\n      sub\n      sub\n      dup2\n      mstore\n      swap1\n      0x40\n      mstore\n        /* \"Evm/core/base/vault.sol\":7927:7982  IEvents.Data(\"rewards\", \"uint256\", abi.encode(rewards)) */\n      dup2\n      mstore\n      pop\n        /* \"Evm/core/base/vault.sol\":7912:7921  eventData */\n      dup2\n        /* \"Evm/core/base/vault.sol\":7922:7923  6 */\n      0x06\n        /* \"Evm/core/base/vault.sol\":7912:7924  eventData[6] */\n      dup2\n      mload\n      dup2\n      lt\n      tag_216\n      jumpi\n      tag_217\n      tag_147\n      jump\t// in\n    tag_217:\n    tag_216:\n      0x20\n      mul\n      0x20\n      add\n      add\n        /* \"Evm/core/base/vault.sol\":7912:7982  eventData[6] = IEvents.Data(\"rewards\", \"uint256\", abi.encode(rewards)) */\n      dup2\n      swap1\n      mstore\n      pop\n        /* \"Evm/core/base/vault.sol\":8027:8033  events */\n      immutable(\"0xa55f93089260f97cd16ec7a717e7ade24f99065bc4509014bd14fefe4d832ab6\")\n        /* \"Evm/core/base/vault.sol\":8027:8048  events.emitVaultEvent */\n      0xffffffffffffffffffffffffffffffffffffffff\n      and\n      0x7d64fa9b\n        /* \"Evm/core/base/vault.sol\":8060:8069  eventData */\n      dup3\n        /* \"Evm/core/base/vault.sol\":8027:8070  events.emitVaultEvent(\"Deposit\", eventData) */\n      mload(0x40)\n      dup3\n      0xffffffff\n      and\n      0xe0\n      shl\n      dup2\n      mstore\n      0x04\n      add\n      tag_218\n      swap2\n      swap1\n      tag_219\n      jump\t// in\n    tag_218:\n      0x00\n      mload(0x40)\n      dup1\n      dup4\n      sub\n      dup2\n      0x00\n      dup8\n      dup1\n      extcodesize\n      iszero\n      dup1\n      iszero\n      tag_220\n      jumpi\n      revert(0x00, 0x00)\n    tag_220:\n      pop\n      gas\n      call\n      iszero\n      dup1\n      iszero\n      tag_222\n      jumpi\n      returndatacopy(0x00, 0x00, returndatasize)\n      revert(0x00, returndatasize)\n    tag_222:\n      pop\n      pop\n      pop\n      pop\n        /* \"Evm/core/base/vault.sol\":8106:8111  token */\n      dup6\n        /* \"Evm/core/base/vault.sol\":8086:8134  Deposit(msg.sender, token, amount, providerName) */\n      0xffffffffffffffffffffffffffffffffffffffff\n      and\n        /* \"Evm/core/base/vault.sol\":8094:8104  msg.sender */\n      caller\n        /* \"Evm/core/base/vault.sol\":8086:8134  Deposit(msg.sender, token, amount, providerName) */\n      0xffffffffffffffffffffffffffffffffffffffff\n      and\n      0xef519b7eb82aaf6ac376a6df2d793843ebfd593de5f1a0601d3cc6ab49ebb395\n        /* \"Evm/core/base/vault.sol\":8113:8119  amount */\n      dup10\n        /* \"Evm/core/base/vault.sol\":8121:8133  providerName */\n      0x01\n        /* \"Evm/core/base/vault.sol\":8086:8134  Deposit(msg.sender, token, amount, providerName) */\n      mload(0x40)\n      tag_223\n      swap3\n      swap2\n      swap1\n      tag_171\n      jump\t// in\n    tag_223:\n      mload(0x40)\n      dup1\n      swap2\n      sub\n      swap1\n      log3\n        /* \"Evm/core/base/vault.sol\":6043:8142  {... */\n      pop\n      pop\n      pop\n      pop\n      pop\n      pop\n        /* \"Evm/core/base/vault.sol\":5974:8142  function deposit(string calldata assetName, uint256 amount) external {... */\n      pop\n      pop\n      pop\n      jump\t// out\n        /* \"Evm/core/base/vault.sol\":1018:1085  mapping(address => mapping(address => uint256)) public userBalances */\n    tag_62:\n      mstore(0x20, 0x05)\n      dup2\n      0x00\n      mstore\n      mstore(0x20, keccak256(0x00, 0x40))\n      dup1\n      0x00\n      mstore\n      keccak256(0x00, 0x40)\n      0x00\n      swap2\n      pop\n      swap2\n      pop\n      pop\n      sload\n      dup2\n      jump\t// out\n        /* \"Evm/core/base/vault.sol\":696:727  IEvents public immutable events */\n    tag_65:\n      immutable(\"0xa55f93089260f97cd16ec7a717e7ade24f99065bc4509014bd14fefe4d832ab6\")\n      dup2\n      jump\t// out\n        /* \"Evm/core/base/vault.sol\":644:689  IVariables public immutable variablesRegistry */\n    tag_69:\n      immutable(\"0x1067a32fc2bf4122310a8f066f11577e006583df65ce4c5172289c9680be102c\")\n      dup2\n      jump\t// out\n        /* \"Evm/core/base/vault.sol\":2893:3767  function m_withdraw(bytes calldata user, string calldata shared, string calldata assetName, uint256 amount) external { ... */\n    tag_75:\n        /* \"Evm/core/base/vault.sol\":3022:3035  address token */\n      0x00\n        /* \"Evm/core/base/vault.sol\":3038:3061  resolveAsset(assetName) */\n      tag_225\n        /* \"Evm/core/base/vault.sol\":3051:3060  assetName */\n      dup5\n      dup5\n        /* \"Evm/core/base/vault.sol\":3038:3061  resolveAsset(assetName) */\n      dup1\n      dup1\n      0x1f\n      add\n      0x20\n      dup1\n      swap2\n      div\n      mul\n      0x20\n      add\n      mload(0x40)\n      swap1\n      dup2\n      add\n      0x40\n      mstore\n      dup1\n      swap4\n      swap3\n      swap2\n      swap1\n      dup2\n      dup2\n      mstore\n      0x20\n      add\n      dup4\n      dup4\n      dup1\n      dup3\n      dup5\n      calldatacopy\n      0x00\n      dup2\n      dup5\n      add\n      mstore\n      not(0x1f)\n      0x1f\n      dup3\n      add\n      and\n      swap1\n      pop\n      dup1\n      dup4\n      add\n      swap3\n      pop\n      pop\n      pop\n      pop\n      pop\n      pop\n      pop\n        /* \"Evm/core/base/vault.sol\":3038:3050  resolveAsset */\n      tag_29\n        /* \"Evm/core/base/vault.sol\":3038:3061  resolveAsset(assetName) */\n      jump\t// in\n    tag_225:\n        /* \"Evm/core/base/vault.sol\":3022:3061  address token = resolveAsset(assetName) */\n      swap1\n      pop\n        /* \"Evm/core/base/vault.sol\":3080:3096  isSupportedToken */\n      0x07\n        /* \"Evm/core/base/vault.sol\":3080:3103  isSupportedToken[token] */\n      0x00\n        /* \"Evm/core/base/vault.sol\":3097:3102  token */\n      dup3\n        /* \"Evm/core/base/vault.sol\":3080:3103  isSupportedToken[token] */\n      0xffffffffffffffffffffffffffffffffffffffff\n      and\n      0xffffffffffffffffffffffffffffffffffffffff\n      and\n      dup2\n      mstore\n      0x20\n      add\n      swap1\n      dup2\n      mstore\n      0x20\n      add\n      0x00\n      keccak256\n      0x00\n      swap1\n      sload\n      swap1\n      0x0100\n      exp\n      swap1\n      div\n      0xff\n      and\n        /* \"Evm/core/base/vault.sol\":3072:3134  require(isSupportedToken[token], \"Vault: Token not supported\") */\n      tag_226\n      jumpi\n      mload(0x40)\n      0x08c379a000000000000000000000000000000000000000000000000000000000\n      dup2\n      mstore\n      0x04\n      add\n      tag_227\n      swap1\n      tag_116\n      jump\t// in\n    tag_227:\n      mload(0x40)\n      dup1\n      swap2\n      sub\n      swap1\n      revert\n    tag_226:\n        /* \"Evm/core/base/vault.sol\":3147:3178  IEvents.Data[] memory eventData */\n      0x00\n        /* \"Evm/core/base/vault.sol\":3200:3201  6 */\n      0x06\n        /* \"Evm/core/base/vault.sol\":3181:3202  new IEvents.Data[](6) */\n      0xffffffffffffffff\n      dup2\n      gt\n      iszero\n      tag_228\n      jumpi\n      tag_229\n      tag_139\n      jump\t// in\n    tag_229:\n    tag_228:\n      mload(0x40)\n      swap1\n      dup1\n      dup3\n      mstore\n      dup1\n      0x20\n      mul\n      0x20\n      add\n      dup3\n      add\n      0x40\n      mstore\n      dup1\n      iszero\n      tag_230\n      jumpi\n      dup2\n      0x20\n      add\n    tag_231:\n      tag_232\n      tag_143\n      jump\t// in\n    tag_232:\n      dup2\n      mstore\n      0x20\n      add\n      swap1\n      0x01\n      swap1\n      sub\n      swap1\n      dup2\n      tag_231\n      jumpi\n      swap1\n      pop\n    tag_230:\n      pop\n        /* \"Evm/core/base/vault.sol\":3147:3202  IEvents.Data[] memory eventData = new IEvents.Data[](6) */\n      swap1\n      pop\n        /* \"Evm/core/base/vault.sol\":3238:3285  IEvents.Data(\"user\", \"bytes\", abi.encode(user)) */\n      mload(0x40)\n      dup1\n      0x60\n      add\n      0x40\n      mstore\n      dup1\n      mload(0x40)\n      dup1\n      0x40\n      add\n      0x40\n      mstore\n      dup1\n      0x04\n      dup2\n      mstore\n      0x20\n      add\n      0x7573657200000000000000000000000000000000000000000000000000000000\n      dup2\n      mstore\n      pop\n      dup2\n      mstore\n      0x20\n      add\n      mload(0x40)\n      dup1\n      0x40\n      add\n      0x40\n      mstore\n      dup1\n      0x05\n      dup2\n      mstore\n      0x20\n      add\n      0x6279746573000000000000000000000000000000000000000000000000000000\n      dup2\n      mstore\n      pop\n      dup2\n      mstore\n      0x20\n      add\n        /* \"Evm/core/base/vault.sol\":3279:3283  user */\n      dup11\n      dup11\n        /* \"Evm/core/base/vault.sol\":3268:3284  abi.encode(user) */\n      add(0x20, mload(0x40))\n      tag_233\n      swap3\n      swap2\n      swap1\n      tag_234\n      jump\t// in\n    tag_233:\n      mload(0x40)\n      0x20\n      dup2\n      dup4\n      sub\n      sub\n      dup2\n      mstore\n      swap1\n      0x40\n      mstore\n        /* \"Evm/core/base/vault.sol\":3238:3285  IEvents.Data(\"user\", \"bytes\", abi.encode(user)) */\n      dup2\n      mstore\n      pop\n        /* \"Evm/core/base/vault.sol\":3223:3232  eventData */\n      dup2\n        /* \"Evm/core/base/vault.sol\":3233:3234  0 */\n      0x00\n        /* \"Evm/core/base/vault.sol\":3223:3235  eventData[0] */\n      dup2\n      mload\n      dup2\n      lt\n      tag_235\n      jumpi\n      tag_236\n      tag_147\n      jump\t// in\n    tag_236:\n    tag_235:\n      0x20\n      mul\n      0x20\n      add\n      add\n        /* \"Evm/core/base/vault.sol\":3223:3285  eventData[0] = IEvents.Data(\"user\", \"bytes\", abi.encode(user)) */\n      dup2\n      swap1\n      mstore\n      pop\n        /* \"Evm/core/base/vault.sol\":3311:3364  IEvents.Data(\"shared\", \"address\", abi.encode(shared)) */\n      mload(0x40)\n      dup1\n      0x60\n      add\n      0x40\n      mstore\n      dup1\n      mload(0x40)\n      dup1\n      0x40\n      add\n      0x40\n      mstore\n      dup1\n      0x06\n      dup2\n      mstore\n      0x20\n      add\n      0x7368617265640000000000000000000000000000000000000000000000000000\n      dup2\n      mstore\n      pop\n      dup2\n      mstore\n      0x20\n      add\n      mload(0x40)\n      dup1\n      0x40\n      add\n      0x40\n      mstore\n      dup1\n      0x07\n      dup2\n      mstore\n      0x20\n      add\n      0x6164647265737300000000000000000000000000000000000000000000000000\n      dup2\n      mstore\n      pop\n      dup2\n      mstore\n      0x20\n      add\n        /* \"Evm/core/base/vault.sol\":3356:3362  shared */\n      dup9\n      dup9\n        /* \"Evm/core/base/vault.sol\":3345:3363  abi.encode(shared) */\n      add(0x20, mload(0x40))\n      tag_237\n      swap3\n      swap2\n      swap1\n      tag_152\n      jump\t// in\n    tag_237:\n      mload(0x40)\n      0x20\n      dup2\n      dup4\n      sub\n      sub\n      dup2\n      mstore\n      swap1\n      0x40\n      mstore\n        /* \"Evm/core/base/vault.sol\":3311:3364  IEvents.Data(\"shared\", \"address\", abi.encode(shared)) */\n      dup2\n      mstore\n      pop\n        /* \"Evm/core/base/vault.sol\":3296:3305  eventData */\n      dup2\n        /* \"Evm/core/base/vault.sol\":3306:3307  1 */\n      0x01\n        /* \"Evm/core/base/vault.sol\":3296:3308  eventData[1] */\n      dup2\n      mload\n      dup2\n      lt\n      tag_238\n      jumpi\n      tag_239\n      tag_147\n      jump\t// in\n    tag_239:\n    tag_238:\n      0x20\n      mul\n      0x20\n      add\n      add\n        /* \"Evm/core/base/vault.sol\":3296:3364  eventData[1] = IEvents.Data(\"shared\", \"address\", abi.encode(shared)) */\n      dup2\n      swap1\n      mstore\n      pop\n        /* \"Evm/core/base/vault.sol\":3390:3443  IEvents.Data(\"amount\", \"uint256\", abi.encode(amount)) */\n      mload(0x40)\n      dup1\n      0x60\n      add\n      0x40\n      mstore\n      dup1\n      mload(0x40)\n      dup1\n      0x40\n      add\n      0x40\n      mstore\n      dup1\n      0x06\n      dup2\n      mstore\n      0x20\n      add\n      0x616d6f756e740000000000000000000000000000000000000000000000000000\n      dup2\n      mstore\n      pop\n      dup2\n      mstore\n      0x20\n      add\n      mload(0x40)\n      dup1\n      0x40\n      add\n      0x40\n      mstore\n      dup1\n      0x07\n      dup2\n      mstore\n      0x20\n      add\n      0x75696e7432353600000000000000000000000000000000000000000000000000\n      dup2\n      mstore\n      pop\n      dup2\n      mstore\n      0x20\n      add\n        /* \"Evm/core/base/vault.sol\":3435:3441  amount */\n      dup5\n        /* \"Evm/core/base/vault.sol\":3424:3442  abi.encode(amount) */\n      add(0x20, mload(0x40))\n      tag_240\n      swap2\n      swap1\n      tag_43\n      jump\t// in\n    tag_240:\n      mload(0x40)\n      0x20\n      dup2\n      dup4\n      sub\n      sub\n      dup2\n      mstore\n      swap1\n      0x40\n      mstore\n        /* \"Evm/core/base/vault.sol\":3390:3443  IEvents.Data(\"amount\", \"uint256\", abi.encode(amount)) */\n      dup2\n      mstore\n      pop\n        /* \"Evm/core/base/vault.sol\":3375:3384  eventData */\n      dup2\n        /* \"Evm/core/base/vault.sol\":3385:3386  2 */\n      0x02\n        /* \"Evm/core/base/vault.sol\":3375:3387  eventData[2] */\n      dup2\n      mload\n      dup2\n      lt\n      tag_241\n      jumpi\n      tag_242\n      tag_147\n      jump\t// in\n    tag_242:\n    tag_241:\n      0x20\n      mul\n      0x20\n      add\n      add\n        /* \"Evm/core/base/vault.sol\":3375:3443  eventData[2] = IEvents.Data(\"amount\", \"uint256\", abi.encode(amount)) */\n      dup2\n      swap1\n      mstore\n      pop\n        /* \"Evm/core/base/vault.sol\":3469:3520  IEvents.Data(\"chain\", \"string\", abi.encode(\"base\")) */\n      mload(0x40)\n      dup1\n      0x60\n      add\n      0x40\n      mstore\n      dup1\n      mload(0x40)\n      dup1\n      0x40\n      add\n      0x40\n      mstore\n      dup1\n      0x05\n      dup2\n      mstore\n      0x20\n      add\n      0x636861696e000000000000000000000000000000000000000000000000000000\n      dup2\n      mstore\n      pop\n      dup2\n      mstore\n      0x20\n      add\n      mload(0x40)\n      dup1\n      0x40\n      add\n      0x40\n      mstore\n      dup1\n      0x06\n      dup2\n      mstore\n      0x20\n      add\n      0x737472696e670000000000000000000000000000000000000000000000000000\n      dup2\n      mstore\n      pop\n      dup2\n      mstore\n      0x20\n      add\n        /* \"Evm/core/base/vault.sol\":3501:3519  abi.encode(\"base\") */\n      add(0x20, mload(0x40))\n      tag_243\n      swap1\n      tag_244\n      jump\t// in\n    tag_243:\n      mload(0x40)\n      0x20\n      dup2\n      dup4\n      sub\n      sub\n      dup2\n      mstore\n      swap1\n      0x40\n      mstore\n        /* \"Evm/core/base/vault.sol\":3469:3520  IEvents.Data(\"chain\", \"string\", abi.encode(\"base\")) */\n      dup2\n      mstore\n      pop\n        /* \"Evm/core/base/vault.sol\":3454:3463  eventData */\n      dup2\n        /* \"Evm/core/base/vault.sol\":3464:3465  3 */\n      0x03\n        /* \"Evm/core/base/vault.sol\":3454:3466  eventData[3] */\n      dup2\n      mload\n      dup2\n      lt\n      tag_245\n      jumpi\n      tag_246\n      tag_147\n      jump\t// in\n    tag_246:\n    tag_245:\n      0x20\n      mul\n      0x20\n      add\n      add\n        /* \"Evm/core/base/vault.sol\":3454:3520  eventData[3] = IEvents.Data(\"chain\", \"string\", abi.encode(\"base\")) */\n      dup2\n      swap1\n      mstore\n      pop\n        /* \"Evm/core/base/vault.sol\":3546:3606  IEvents.Data(\"provider\", \"string\", abi.encode(providerName)) */\n      mload(0x40)\n      dup1\n      0x60\n      add\n      0x40\n      mstore\n      dup1\n      mload(0x40)\n      dup1\n      0x40\n      add\n      0x40\n      mstore\n      dup1\n      0x08\n      dup2\n      mstore\n      0x20\n      add\n      0x70726f7669646572000000000000000000000000000000000000000000000000\n      dup2\n      mstore\n      pop\n      dup2\n      mstore\n      0x20\n      add\n      mload(0x40)\n      dup1\n      0x40\n      add\n      0x40\n      mstore\n      dup1\n      0x06\n      dup2\n      mstore\n      0x20\n      add\n      0x737472696e670000000000000000000000000000000000000000000000000000\n      dup2\n      mstore\n      pop\n      dup2\n      mstore\n      0x20\n      add\n        /* \"Evm/core/base/vault.sol\":3592:3604  providerName */\n      0x01\n        /* \"Evm/core/base/vault.sol\":3581:3605  abi.encode(providerName) */\n      add(0x20, mload(0x40))\n      tag_247\n      swap2\n      swap1\n      tag_156\n      jump\t// in\n    tag_247:\n      mload(0x40)\n      0x20\n      dup2\n      dup4\n      sub\n      sub\n      dup2\n      mstore\n      swap1\n      0x40\n      mstore\n        /* \"Evm/core/base/vault.sol\":3546:3606  IEvents.Data(\"provider\", \"string\", abi.encode(providerName)) */\n      dup2\n      mstore\n      pop\n        /* \"Evm/core/base/vault.sol\":3531:3540  eventData */\n      dup2\n        /* \"Evm/core/base/vault.sol\":3541:3542  4 */\n      0x04\n        /* \"Evm/core/base/vault.sol\":3531:3543  eventData[4] */\n      dup2\n      mload\n      dup2\n      lt\n      tag_248\n      jumpi\n      tag_249\n      tag_147\n      jump\t// in\n    tag_249:\n    tag_248:\n      0x20\n      mul\n      0x20\n      add\n      add\n        /* \"Evm/core/base/vault.sol\":3531:3606  eventData[4] = IEvents.Data(\"provider\", \"string\", abi.encode(providerName)) */\n      dup2\n      swap1\n      mstore\n      pop\n        /* \"Evm/core/base/vault.sol\":3632:3686  IEvents.Data(\"token\", \"string\", abi.encode(assetName)) */\n      mload(0x40)\n      dup1\n      0x60\n      add\n      0x40\n      mstore\n      dup1\n      mload(0x40)\n      dup1\n      0x40\n      add\n      0x40\n      mstore\n      dup1\n      0x05\n      dup2\n      mstore\n      0x20\n      add\n      0x746f6b656e000000000000000000000000000000000000000000000000000000\n      dup2\n      mstore\n      pop\n      dup2\n      mstore\n      0x20\n      add\n      mload(0x40)\n      dup1\n      0x40\n      add\n      0x40\n      mstore\n      dup1\n      0x06\n      dup2\n      mstore\n      0x20\n      add\n      0x737472696e670000000000000000000000000000000000000000000000000000\n      dup2\n      mstore\n      pop\n      dup2\n      mstore\n      0x20\n      add\n        /* \"Evm/core/base/vault.sol\":3675:3684  assetName */\n      dup7\n      dup7\n        /* \"Evm/core/base/vault.sol\":3664:3685  abi.encode(assetName) */\n      add(0x20, mload(0x40))\n      tag_250\n      swap3\n      swap2\n      swap1\n      tag_152\n      jump\t// in\n    tag_250:\n      mload(0x40)\n      0x20\n      dup2\n      dup4\n      sub\n      sub\n      dup2\n      mstore\n      swap1\n      0x40\n      mstore\n        /* \"Evm/core/base/vault.sol\":3632:3686  IEvents.Data(\"token\", \"string\", abi.encode(assetName)) */\n      dup2\n      mstore\n      pop\n        /* \"Evm/core/base/vault.sol\":3617:3626  eventData */\n      dup2\n        /* \"Evm/core/base/vault.sol\":3627:3628  5 */\n      0x05\n        /* \"Evm/core/base/vault.sol\":3617:3629  eventData[5] */\n      dup2\n      mload\n      dup2\n      lt\n      tag_251\n      jumpi\n      tag_252\n      tag_147\n      jump\t// in\n    tag_252:\n    tag_251:\n      0x20\n      mul\n      0x20\n      add\n      add\n        /* \"Evm/core/base/vault.sol\":3617:3686  eventData[5] = IEvents.Data(\"token\", \"string\", abi.encode(assetName)) */\n      dup2\n      swap1\n      mstore\n      pop\n        /* \"Evm/core/base/vault.sol\":3707:3713  events */\n      immutable(\"0xa55f93089260f97cd16ec7a717e7ade24f99065bc4509014bd14fefe4d832ab6\")\n        /* \"Evm/core/base/vault.sol\":3707:3728  events.emitVaultEvent */\n      0xffffffffffffffffffffffffffffffffffffffff\n      and\n      0x7d64fa9b\n        /* \"Evm/core/base/vault.sol\":3749:3758  eventData */\n      dup3\n        /* \"Evm/core/base/vault.sol\":3707:3759  events.emitVaultEvent(\"Modular Withdraw\", eventData) */\n      mload(0x40)\n      dup3\n      0xffffffff\n      and\n      0xe0\n      shl\n      dup2\n      mstore\n      0x04\n      add\n      tag_253\n      swap2\n      swap1\n      tag_254\n      jump\t// in\n    tag_253:\n      0x00\n      mload(0x40)\n      dup1\n      dup4\n      sub\n      dup2\n      0x00\n      dup8\n      dup1\n      extcodesize\n      iszero\n      dup1\n      iszero\n      tag_255\n      jumpi\n      revert(0x00, 0x00)\n    tag_255:\n      pop\n      gas\n      call\n      iszero\n      dup1\n      iszero\n      tag_257\n      jumpi\n      returndatacopy(0x00, 0x00, returndatasize)\n      revert(0x00, returndatasize)\n    tag_257:\n      pop\n      pop\n      pop\n      pop\n        /* \"Evm/core/base/vault.sol\":3010:3767  { ... */\n      pop\n      pop\n        /* \"Evm/core/base/vault.sol\":2893:3767  function m_withdraw(bytes calldata user, string calldata shared, string calldata assetName, uint256 amount) external { ... */\n      pop\n      pop\n      pop\n      pop\n      pop\n      pop\n      pop\n      jump\t// out\n        /* \"Evm/core/base/vault.sol\":2497:2714  function listNewToken(string calldata assetName) external {... */\n    tag_79:\n        /* \"Evm/core/base/vault.sol\":2566:2583  address tokenAddr */\n      0x00\n        /* \"Evm/core/base/vault.sol\":2586:2609  resolveAsset(assetName) */\n      tag_259\n        /* \"Evm/core/base/vault.sol\":2599:2608  assetName */\n      dup4\n      dup4\n        /* \"Evm/core/base/vault.sol\":2586:2609  resolveAsset(assetName) */\n      dup1\n      dup1\n      0x1f\n      add\n      0x20\n      dup1\n      swap2\n      div\n      mul\n      0x20\n      add\n      mload(0x40)\n      swap1\n      dup2\n      add\n      0x40\n      mstore\n      dup1\n      swap4\n      swap3\n      swap2\n      swap1\n      dup2\n      dup2\n      mstore\n      0x20\n      add\n      dup4\n      dup4\n      dup1\n      dup3\n      dup5\n      calldatacopy\n      0x00\n      dup2\n      dup5\n      add\n      mstore\n      not(0x1f)\n      0x1f\n      dup3\n      add\n      and\n      swap1\n      pop\n      dup1\n      dup4\n      add\n      swap3\n      pop\n      pop\n      pop\n      pop\n      pop\n      pop\n      pop\n        /* \"Evm/core/base/vault.sol\":2586:2598  resolveAsset */\n      tag_29\n        /* \"Evm/core/base/vault.sol\":2586:2609  resolveAsset(assetName) */\n      jump\t// in\n    tag_259:\n        /* \"Evm/core/base/vault.sol\":2566:2609  address tokenAddr = resolveAsset(assetName) */\n      swap1\n      pop\n        /* \"Evm/core/base/vault.sol\":2650:2654  true */\n      0x01\n        /* \"Evm/core/base/vault.sol\":2620:2636  isSupportedToken */\n      0x07\n        /* \"Evm/core/base/vault.sol\":2620:2647  isSupportedToken[tokenAddr] */\n      0x00\n        /* \"Evm/core/base/vault.sol\":2637:2646  tokenAddr */\n      dup4\n        /* \"Evm/core/base/vault.sol\":2620:2647  isSupportedToken[tokenAddr] */\n      0xffffffffffffffffffffffffffffffffffffffff\n      and\n      0xffffffffffffffffffffffffffffffffffffffff\n      and\n      dup2\n      mstore\n      0x20\n      add\n      swap1\n      dup2\n      mstore\n      0x20\n      add\n      0x00\n      keccak256\n      0x00\n        /* \"Evm/core/base/vault.sol\":2620:2654  isSupportedToken[tokenAddr] = true */\n      0x0100\n      exp\n      dup2\n      sload\n      dup2\n      0xff\n      mul\n      not\n      and\n      swap1\n      dup4\n      iszero\n      iszero\n      mul\n      or\n      swap1\n      sstore\n      pop\n        /* \"Evm/core/base/vault.sol\":2682:2691  tokenAddr */\n      dup1\n        /* \"Evm/core/base/vault.sol\":2670:2706  TokenListed(tokenAddr, providerName) */\n      0xffffffffffffffffffffffffffffffffffffffff\n      and\n      0xd57b1148efb91f418a2178fc1fb4ba12f9400a4dc8e71851fd59e85d337c609f\n        /* \"Evm/core/base/vault.sol\":2693:2705  providerName */\n      0x01\n        /* \"Evm/core/base/vault.sol\":2670:2706  TokenListed(tokenAddr, providerName) */\n      mload(0x40)\n      tag_260\n      swap2\n      swap1\n      tag_156\n      jump\t// in\n    tag_260:\n      mload(0x40)\n      dup1\n      swap2\n      sub\n      swap1\n      log2\n        /* \"Evm/core/base/vault.sol\":2555:2714  {... */\n      pop\n        /* \"Evm/core/base/vault.sol\":2497:2714  function listNewToken(string calldata assetName) external {... */\n      pop\n      pop\n      jump\t// out\n        /* \"@openzeppelin/contracts/access/Ownable.sol\":2543:2758  function transferOwnership(address newOwner) public virtual onlyOwner {... */\n    tag_82:\n        /* \"@openzeppelin/contracts/access/Ownable.sol\":1531:1544  _checkOwner() */\n      tag_262\n        /* \"@openzeppelin/contracts/access/Ownable.sol\":1531:1542  _checkOwner */\n      tag_106\n        /* \"@openzeppelin/contracts/access/Ownable.sol\":1531:1544  _checkOwner() */\n      jump\t// in\n    tag_262:\n        /* \"@openzeppelin/contracts/access/Ownable.sol\":2647:2648  0 */\n      0x00\n        /* \"@openzeppelin/contracts/access/Ownable.sol\":2627:2649  newOwner == address(0) */\n      0xffffffffffffffffffffffffffffffffffffffff\n      and\n        /* \"@openzeppelin/contracts/access/Ownable.sol\":2627:2635  newOwner */\n      dup2\n        /* \"@openzeppelin/contracts/access/Ownable.sol\":2627:2649  newOwner == address(0) */\n      0xffffffffffffffffffffffffffffffffffffffff\n      and\n      sub\n        /* \"@openzeppelin/contracts/access/Ownable.sol\":2623:2714  if (newOwner == address(0)) {... */\n      tag_264\n      jumpi\n        /* \"@openzeppelin/contracts/access/Ownable.sol\":2700:2701  0 */\n      0x00\n        /* \"@openzeppelin/contracts/access/Ownable.sol\":2672:2703  OwnableInvalidOwner(address(0)) */\n      mload(0x40)\n      0x1e4fbdf700000000000000000000000000000000000000000000000000000000\n      dup2\n      mstore\n      0x04\n      add\n      tag_265\n      swap2\n      swap1\n      tag_31\n      jump\t// in\n    tag_265:\n      mload(0x40)\n      dup1\n      swap2\n      sub\n      swap1\n      revert\n        /* \"@openzeppelin/contracts/access/Ownable.sol\":2623:2714  if (newOwner == address(0)) {... */\n    tag_264:\n        /* \"@openzeppelin/contracts/access/Ownable.sol\":2723:2751  _transferOwnership(newOwner) */\n      tag_266\n        /* \"@openzeppelin/contracts/access/Ownable.sol\":2742:2750  newOwner */\n      dup2\n        /* \"@openzeppelin/contracts/access/Ownable.sol\":2723:2741  _transferOwnership */\n      tag_109\n        /* \"@openzeppelin/contracts/access/Ownable.sol\":2723:2751  _transferOwnership(newOwner) */\n      jump\t// in\n    tag_266:\n        /* \"@openzeppelin/contracts/access/Ownable.sol\":2543:2758  function transferOwnership(address newOwner) public virtual onlyOwner {... */\n      pop\n      jump\t// out\n        /* \"Evm/core/base/vault.sol\":768:786  uint256 public min */\n    tag_84:\n      sload(0x02)\n      dup2\n      jump\t// out\n        /* \"@openzeppelin/contracts/access/Ownable.sol\":1796:1958  function _checkOwner() internal view virtual {... */\n    tag_106:\n        /* \"@openzeppelin/contracts/access/Ownable.sol\":1866:1878  _msgSender() */\n      tag_268\n        /* \"@openzeppelin/contracts/access/Ownable.sol\":1866:1876  _msgSender */\n      tag_269\n        /* \"@openzeppelin/contracts/access/Ownable.sol\":1866:1878  _msgSender() */\n      jump\t// in\n    tag_268:\n        /* \"@openzeppelin/contracts/access/Ownable.sol\":1855:1878  owner() != _msgSender() */\n      0xffffffffffffffffffffffffffffffffffffffff\n      and\n        /* \"@openzeppelin/contracts/access/Ownable.sol\":1855:1862  owner() */\n      tag_270\n        /* \"@openzeppelin/contracts/access/Ownable.sol\":1855:1860  owner */\n      tag_54\n        /* \"@openzeppelin/contracts/access/Ownable.sol\":1855:1862  owner() */\n      jump\t// in\n    tag_270:\n        /* \"@openzeppelin/contracts/access/Ownable.sol\":1855:1878  owner() != _msgSender() */\n      0xffffffffffffffffffffffffffffffffffffffff\n      and\n      eq\n        /* \"@openzeppelin/contracts/access/Ownable.sol\":1851:1952  if (owner() != _msgSender()) {... */\n      tag_271\n      jumpi\n        /* \"@openzeppelin/contracts/access/Ownable.sol\":1928:1940  _msgSender() */\n      tag_272\n        /* \"@openzeppelin/contracts/access/Ownable.sol\":1928:1938  _msgSender */\n      tag_269\n        /* \"@openzeppelin/contracts/access/Ownable.sol\":1928:1940  _msgSender() */\n      jump\t// in\n    tag_272:\n        /* \"@openzeppelin/contracts/access/Ownable.sol\":1901:1941  OwnableUnauthorizedAccount(_msgSender()) */\n      mload(0x40)\n      0x118cdaa700000000000000000000000000000000000000000000000000000000\n      dup2\n      mstore\n      0x04\n      add\n      tag_273\n      swap2\n      swap1\n      tag_31\n      jump\t// in\n    tag_273:\n      mload(0x40)\n      dup1\n      swap2\n      sub\n      swap1\n      revert\n        /* \"@openzeppelin/contracts/access/Ownable.sol\":1851:1952  if (owner() != _msgSender()) {... */\n    tag_271:\n        /* \"@openzeppelin/contracts/access/Ownable.sol\":1796:1958  function _checkOwner() internal view virtual {... */\n      jump\t// out\n        /* \"@openzeppelin/contracts/access/Ownable.sol\":2912:3099  function _transferOwnership(address newOwner) internal virtual {... */\n    tag_109:\n        /* \"@openzeppelin/contracts/access/Ownable.sol\":2985:3001  address oldOwner */\n      0x00\n        /* \"@openzeppelin/contracts/access/Ownable.sol\":3004:3010  _owner */\n      0x00\n      0x00\n      swap1\n      sload\n      swap1\n      0x0100\n      exp\n      swap1\n      div\n      0xffffffffffffffffffffffffffffffffffffffff\n      and\n        /* \"@openzeppelin/contracts/access/Ownable.sol\":2985:3010  address oldOwner = _owner */\n      swap1\n      pop\n        /* \"@openzeppelin/contracts/access/Ownable.sol\":3029:3037  newOwner */\n      dup2\n        /* \"@openzeppelin/contracts/access/Ownable.sol\":3020:3026  _owner */\n      0x00\n      0x00\n        /* \"@openzeppelin/contracts/access/Ownable.sol\":3020:3037  _owner = newOwner */\n      0x0100\n      exp\n      dup2\n      sload\n      dup2\n      0xffffffffffffffffffffffffffffffffffffffff\n      mul\n      not\n      and\n      swap1\n      dup4\n      0xffffffffffffffffffffffffffffffffffffffff\n      and\n      mul\n      or\n      swap1\n      sstore\n      pop\n        /* \"@openzeppelin/contracts/access/Ownable.sol\":3083:3091  newOwner */\n      dup2\n        /* \"@openzeppelin/contracts/access/Ownable.sol\":3052:3092  OwnershipTransferred(oldOwner, newOwner) */\n      0xffffffffffffffffffffffffffffffffffffffff\n      and\n        /* \"@openzeppelin/contracts/access/Ownable.sol\":3073:3081  oldOwner */\n      dup2\n        /* \"@openzeppelin/contracts/access/Ownable.sol\":3052:3092  OwnershipTransferred(oldOwner, newOwner) */\n      0xffffffffffffffffffffffffffffffffffffffff\n      and\n      0x8be0079c531659141344cd1fd0a4f28419497f9722a3daafe3b4186f6b6457e0\n      mload(0x40)\n      mload(0x40)\n      dup1\n      swap2\n      sub\n      swap1\n      log3\n        /* \"@openzeppelin/contracts/access/Ownable.sol\":2975:3099  {... */\n      pop\n        /* \"@openzeppelin/contracts/access/Ownable.sol\":2912:3099  function _transferOwnership(address newOwner) internal virtual {... */\n      pop\n      jump\t// out\n        /* \"Evm/core/base/vault.sol\":8150:8562  function _getPseudoRandomRange() internal view returns (uint256) {... */\n    tag_118:\n        /* \"Evm/core/base/vault.sol\":8206:8213  uint256 */\n      0x00\n        /* \"Evm/core/base/vault.sol\":8241:8244  min */\n      sload(0x02)\n        /* \"Evm/core/base/vault.sol\":8234:8237  max */\n      sload(0x03)\n        /* \"Evm/core/base/vault.sol\":8234:8244  max >= min */\n      lt\n      iszero\n        /* \"Evm/core/base/vault.sol\":8226:8274  require(max >= min, \"Vault: Max must be >= Min\") */\n      tag_276\n      jumpi\n      mload(0x40)\n      0x08c379a000000000000000000000000000000000000000000000000000000000\n      dup2\n      mstore\n      0x04\n      add\n      tag_277\n      swap1\n      tag_278\n      jump\t// in\n    tag_277:\n      mload(0x40)\n      dup1\n      swap2\n      sub\n      swap1\n      revert\n    tag_276:\n        /* \"Evm/core/base/vault.sol\":8295:8312  uint256 rangeSpan */\n      0x00\n        /* \"Evm/core/base/vault.sol\":8327:8328  1 */\n      0x01\n        /* \"Evm/core/base/vault.sol\":8321:8324  min */\n      sload(0x02)\n        /* \"Evm/core/base/vault.sol\":8315:8318  max */\n      sload(0x03)\n        /* \"Evm/core/base/vault.sol\":8315:8324  max - min */\n      tag_279\n      swap2\n      swap1\n      tag_123\n      jump\t// in\n    tag_279:\n        /* \"Evm/core/base/vault.sol\":8315:8328  max - min + 1 */\n      tag_280\n      swap2\n      swap1\n      tag_130\n      jump\t// in\n    tag_280:\n        /* \"Evm/core/base/vault.sol\":8295:8328  uint256 rangeSpan = max - min + 1 */\n      swap1\n      pop\n        /* \"Evm/core/base/vault.sol\":8341:8353  bytes32 hash */\n      0x00\n        /* \"Evm/core/base/vault.sol\":8397:8412  block.timestamp */\n      timestamp\n        /* \"Evm/core/base/vault.sol\":8427:8443  block.prevrandao */\n      prevrandao\n        /* \"Evm/core/base/vault.sol\":8459:8469  msg.sender */\n      caller\n        /* \"Evm/core/base/vault.sol\":8484:8489  nonce */\n      sload(0x04)\n        /* \"Evm/core/base/vault.sol\":8366:8500  abi.encodePacked(... */\n      add(0x20, mload(0x40))\n      tag_281\n      swap5\n      swap4\n      swap3\n      swap2\n      swap1\n      tag_282\n      jump\t// in\n    tag_281:\n      mload(0x40)\n      0x20\n      dup2\n      dup4\n      sub\n      sub\n      dup2\n      mstore\n      swap1\n      0x40\n      mstore\n        /* \"Evm/core/base/vault.sol\":8356:8501  keccak256(abi.encodePacked(... */\n      dup1\n      mload\n      swap1\n      0x20\n      add\n      keccak256\n        /* \"Evm/core/base/vault.sol\":8341:8501  bytes32 hash = keccak256(abi.encodePacked(... */\n      swap1\n      pop\n        /* \"Evm/core/base/vault.sol\":8544:8553  rangeSpan */\n      dup2\n        /* \"Evm/core/base/vault.sol\":8536:8540  hash */\n      dup2\n        /* \"Evm/core/base/vault.sol\":8528:8541  uint256(hash) */\n      0x00\n      shr\n        /* \"Evm/core/base/vault.sol\":8528:8553  uint256(hash) % rangeSpan */\n      tag_283\n      swap2\n      swap1\n      tag_284\n      jump\t// in\n    tag_283:\n        /* \"Evm/core/base/vault.sol\":8521:8524  min */\n      sload(0x02)\n        /* \"Evm/core/base/vault.sol\":8521:8554  min + (uint256(hash) % rangeSpan) */\n      tag_285\n      swap2\n      swap1\n      tag_130\n      jump\t// in\n    tag_285:\n        /* \"Evm/core/base/vault.sol\":8514:8554  return min + (uint256(hash) % rangeSpan) */\n      swap3\n      pop\n      pop\n      pop\n        /* \"Evm/core/base/vault.sol\":8150:8562  function _getPseudoRandomRange() internal view returns (uint256) {... */\n      swap1\n      jump\t// out\n        /* \"@openzeppelin/contracts/token/ERC20/utils/SafeERC20.sol\":1219:1423  function safeTransfer(IERC20 token, address to, uint256 value) internal {... */\n    tag_136:\n        /* \"@openzeppelin/contracts/token/ERC20/utils/SafeERC20.sol\":1306:1343  _safeTransfer(token, to, value, true) */\n      tag_287\n        /* \"@openzeppelin/contracts/token/ERC20/utils/SafeERC20.sol\":1320:1325  token */\n      dup4\n        /* \"@openzeppelin/contracts/token/ERC20/utils/SafeERC20.sol\":1327:1329  to */\n      dup4\n        /* \"@openzeppelin/contracts/token/ERC20/utils/SafeERC20.sol\":1331:1336  value */\n      dup4\n        /* \"@openzeppelin/contracts/token/ERC20/utils/SafeERC20.sol\":1338:1342  true */\n      0x01\n        /* \"@openzeppelin/contracts/token/ERC20/utils/SafeERC20.sol\":1306:1319  _safeTransfer */\n      tag_288\n        /* \"@openzeppelin/contracts/token/ERC20/utils/SafeERC20.sol\":1306:1343  _safeTransfer(token, to, value, true) */\n      jump\t// in\n    tag_287:\n        /* \"@openzeppelin/contracts/token/ERC20/utils/SafeERC20.sol\":1301:1417  if (!_safeTransfer(token, to, value, true)) {... */\n      tag_289\n      jumpi\n        /* \"@openzeppelin/contracts/token/ERC20/utils/SafeERC20.sol\":1399:1404  token */\n      dup3\n        /* \"@openzeppelin/contracts/token/ERC20/utils/SafeERC20.sol\":1366:1406  SafeERC20FailedOperation(address(token)) */\n      mload(0x40)\n      0x5274afe700000000000000000000000000000000000000000000000000000000\n      dup2\n      mstore\n      0x04\n      add\n      tag_290\n      swap2\n      swap1\n      tag_31\n      jump\t// in\n    tag_290:\n      mload(0x40)\n      dup1\n      swap2\n      sub\n      swap1\n      revert\n        /* \"@openzeppelin/contracts/token/ERC20/utils/SafeERC20.sol\":1301:1417  if (!_safeTransfer(token, to, value, true)) {... */\n    tag_289:\n        /* \"@openzeppelin/contracts/token/ERC20/utils/SafeERC20.sol\":1219:1423  function safeTransfer(IERC20 token, address to, uint256 value) internal {... */\n      pop\n      pop\n      pop\n      jump\t// out\n        /* \"@openzeppelin/contracts/token/ERC20/utils/SafeERC20.sol\":1662:1894  function safeTransferFrom(IERC20 token, address from, address to, uint256 value) internal {... */\n    tag_189:\n        /* \"@openzeppelin/contracts/token/ERC20/utils/SafeERC20.sol\":1767:1814  _safeTransferFrom(token, from, to, value, true) */\n      tag_292\n        /* \"@openzeppelin/contracts/token/ERC20/utils/SafeERC20.sol\":1785:1790  token */\n      dup5\n        /* \"@openzeppelin/contracts/token/ERC20/utils/SafeERC20.sol\":1792:1796  from */\n      dup5\n        /* \"@openzeppelin/contracts/token/ERC20/utils/SafeERC20.sol\":1798:1800  to */\n      dup5\n        /* \"@openzeppelin/contracts/token/ERC20/utils/SafeERC20.sol\":1802:1807  value */\n      dup5\n        /* \"@openzeppelin/contracts/token/ERC20/utils/SafeERC20.sol\":1809:1813  true */\n      0x01\n        /* \"@openzeppelin/contracts/token/ERC20/utils/SafeERC20.sol\":1767:1784  _safeTransferFrom */\n      tag_293\n        /* \"@openzeppelin/contracts/token/ERC20/utils/SafeERC20.sol\":1767:1814  _safeTransferFrom(token, from, to, value, true) */\n      jump\t// in\n    tag_292:\n        /* \"@openzeppelin/contracts/token/ERC20/utils/SafeERC20.sol\":1762:1888  if (!_safeTransferFrom(token, from, to, value, true)) {... */\n      tag_294\n      jumpi\n        /* \"@openzeppelin/contracts/token/ERC20/utils/SafeERC20.sol\":1870:1875  token */\n      dup4\n        /* \"@openzeppelin/contracts/token/ERC20/utils/SafeERC20.sol\":1837:1877  SafeERC20FailedOperation(address(token)) */\n      mload(0x40)\n      0x5274afe700000000000000000000000000000000000000000000000000000000\n      dup2\n      mstore\n      0x04\n      add\n      tag_295\n      swap2\n      swap1\n      tag_31\n      jump\t// in\n    tag_295:\n      mload(0x40)\n      dup1\n      swap2\n      sub\n      swap1\n      revert\n        /* \"@openzeppelin/contracts/token/ERC20/utils/SafeERC20.sol\":1762:1888  if (!_safeTransferFrom(token, from, to, value, true)) {... */\n    tag_294:\n        /* \"@openzeppelin/contracts/token/ERC20/utils/SafeERC20.sol\":1662:1894  function safeTransferFrom(IERC20 token, address from, address to, uint256 value) internal {... */\n      pop\n      pop\n      pop\n      pop\n      jump\t// out\n        /* \"@openzeppelin/contracts/utils/Context.sol\":656:752  function _msgSender() internal view virtual returns (address) {... */\n    tag_269:\n        /* \"@openzeppelin/contracts/utils/Context.sol\":709:716  address */\n      0x00\n        /* \"@openzeppelin/contracts/utils/Context.sol\":735:745  msg.sender */\n      caller\n        /* \"@openzeppelin/contracts/utils/Context.sol\":728:745  return msg.sender */\n      swap1\n      pop\n        /* \"@openzeppelin/contracts/utils/Context.sol\":656:752  function _msgSender() internal view virtual returns (address) {... */\n      swap1\n      jump\t// out\n        /* \"@openzeppelin/contracts/token/ERC20/utils/SafeERC20.sol\":8373:9617  function _safeTransfer(IERC20 token, address to, uint256 value, bool bubble) private returns (bool success) {... */\n    tag_288:\n        /* \"@openzeppelin/contracts/token/ERC20/utils/SafeERC20.sol\":8467:8479  bool success */\n      0x00\n        /* \"@openzeppelin/contracts/token/ERC20/utils/SafeERC20.sol\":8491:8506  bytes4 selector */\n      0x00\n        /* \"@openzeppelin/contracts/token/ERC20/utils/SafeERC20.sol\":8509:8533  IERC20.transfer.selector */\n      shl(0xe0, 0xa9059cbb)\n        /* \"@openzeppelin/contracts/token/ERC20/utils/SafeERC20.sol\":8491:8533  bytes4 selector = IERC20.transfer.selector */\n      swap1\n      pop\n        /* \"@openzeppelin/contracts/token/ERC20/utils/SafeERC20.sol\":8600:8604  0x40 */\n      0x40\n        /* \"@openzeppelin/contracts/token/ERC20/utils/SafeERC20.sol\":8594:8605  mload(0x40) */\n      mload\n        /* \"@openzeppelin/contracts/token/ERC20/utils/SafeERC20.sol\":8631:8639  selector */\n      dup2\n        /* \"@openzeppelin/contracts/token/ERC20/utils/SafeERC20.sol\":8625:8629  0x00 */\n      0x00\n        /* \"@openzeppelin/contracts/token/ERC20/utils/SafeERC20.sol\":8618:8640  mstore(0x00, selector) */\n      mstore\n        /* \"@openzeppelin/contracts/token/ERC20/utils/SafeERC20.sol\":8686:8687  0 */\n      0x00\n        /* \"@openzeppelin/contracts/token/ERC20/utils/SafeERC20.sol\":8682:8688  not(0) */\n      not\n        /* \"@openzeppelin/contracts/token/ERC20/utils/SafeERC20.sol\":8678:8680  96 */\n      0x60\n        /* \"@openzeppelin/contracts/token/ERC20/utils/SafeERC20.sol\":8674:8689  shr(96, not(0)) */\n      shr\n        /* \"@openzeppelin/contracts/token/ERC20/utils/SafeERC20.sol\":8670:8672  to */\n      dup7\n        /* \"@openzeppelin/contracts/token/ERC20/utils/SafeERC20.sol\":8666:8690  and(to, shr(96, not(0))) */\n      and\n        /* \"@openzeppelin/contracts/token/ERC20/utils/SafeERC20.sol\":8660:8664  0x04 */\n      0x04\n        /* \"@openzeppelin/contracts/token/ERC20/utils/SafeERC20.sol\":8653:8691  mstore(0x04, and(to, shr(96, not(0)))) */\n      mstore\n        /* \"@openzeppelin/contracts/token/ERC20/utils/SafeERC20.sol\":8717:8722  value */\n      dup5\n        /* \"@openzeppelin/contracts/token/ERC20/utils/SafeERC20.sol\":8711:8715  0x24 */\n      0x24\n        /* \"@openzeppelin/contracts/token/ERC20/utils/SafeERC20.sol\":8704:8723  mstore(0x24, value) */\n      mstore\n        /* \"@openzeppelin/contracts/token/ERC20/utils/SafeERC20.sol\":8787:8791  0x20 */\n      0x20\n        /* \"@openzeppelin/contracts/token/ERC20/utils/SafeERC20.sol\":8781:8785  0x00 */\n      0x00\n        /* \"@openzeppelin/contracts/token/ERC20/utils/SafeERC20.sol\":8775:8779  0x44 */\n      0x44\n        /* \"@openzeppelin/contracts/token/ERC20/utils/SafeERC20.sol\":8769:8773  0x00 */\n      0x00\n        /* \"@openzeppelin/contracts/token/ERC20/utils/SafeERC20.sol\":8766:8767  0 */\n      0x00\n        /* \"@openzeppelin/contracts/token/ERC20/utils/SafeERC20.sol\":8759:8764  token */\n      dup12\n        /* \"@openzeppelin/contracts/token/ERC20/utils/SafeERC20.sol\":8752:8757  gas() */\n      gas\n        /* \"@openzeppelin/contracts/token/ERC20/utils/SafeERC20.sol\":8747:8792  call(gas(), token, 0, 0x00, 0x44, 0x00, 0x20) */\n      call\n        /* \"@openzeppelin/contracts/token/ERC20/utils/SafeERC20.sol\":8736:8792  success := call(gas(), token, 0, 0x00, 0x44, 0x00, 0x20) */\n      swap3\n      pop\n        /* \"@openzeppelin/contracts/token/ERC20/utils/SafeERC20.sol\":9004:9005  1 */\n      0x01\n        /* \"@openzeppelin/contracts/token/ERC20/utils/SafeERC20.sol\":8997:9001  0x00 */\n      0x00\n        /* \"@openzeppelin/contracts/token/ERC20/utils/SafeERC20.sol\":8991:9002  mload(0x00) */\n      mload\n        /* \"@openzeppelin/contracts/token/ERC20/utils/SafeERC20.sol\":8988:9006  eq(mload(0x00), 1) */\n      eq\n        /* \"@openzeppelin/contracts/token/ERC20/utils/SafeERC20.sol\":8979:8986  success */\n      dup4\n        /* \"@openzeppelin/contracts/token/ERC20/utils/SafeERC20.sol\":8975:9007  and(success, eq(mload(0x00), 1)) */\n      and\n        /* \"@openzeppelin/contracts/token/ERC20/utils/SafeERC20.sol\":8965:9571  if iszero(and(success, eq(mload(0x00), 1))) {... */\n      tag_298\n      jumpi\n        /* \"@openzeppelin/contracts/token/ERC20/utils/SafeERC20.sol\":9136:9142  bubble */\n      dup4\n        /* \"@openzeppelin/contracts/token/ERC20/utils/SafeERC20.sol\":9126:9133  success */\n      dup4\n        /* \"@openzeppelin/contracts/token/ERC20/utils/SafeERC20.sol\":9119:9134  iszero(success) */\n      iszero\n        /* \"@openzeppelin/contracts/token/ERC20/utils/SafeERC20.sol\":9115:9143  and(iszero(success), bubble) */\n      and\n        /* \"@openzeppelin/contracts/token/ERC20/utils/SafeERC20.sol\":9112:9277  if and(iszero(success), bubble) {... */\n      iszero\n      tag_299\n      jumpi\n        /* \"@openzeppelin/contracts/token/ERC20/utils/SafeERC20.sol\":9192:9208  returndatasize() */\n      returndatasize\n        /* \"@openzeppelin/contracts/token/ERC20/utils/SafeERC20.sol\":9186:9190  0x00 */\n      0x00\n        /* \"@openzeppelin/contracts/token/ERC20/utils/SafeERC20.sol\":9181:9184  fmp */\n      dup3\n        /* \"@openzeppelin/contracts/token/ERC20/utils/SafeERC20.sol\":9166:9209  returndatacopy(fmp, 0x00, returndatasize()) */\n      returndatacopy\n        /* \"@openzeppelin/contracts/token/ERC20/utils/SafeERC20.sol\":9242:9258  returndatasize() */\n      returndatasize\n        /* \"@openzeppelin/contracts/token/ERC20/utils/SafeERC20.sol\":9237:9240  fmp */\n      dup2\n        /* \"@openzeppelin/contracts/token/ERC20/utils/SafeERC20.sol\":9230:9259  revert(fmp, returndatasize()) */\n      revert\n        /* \"@openzeppelin/contracts/token/ERC20/utils/SafeERC20.sol\":9112:9277  if and(iszero(success), bubble) {... */\n    tag_299:\n        /* \"@openzeppelin/contracts/token/ERC20/utils/SafeERC20.sol\":9553:9554  0 */\n      0x00\n        /* \"@openzeppelin/contracts/token/ERC20/utils/SafeERC20.sol\":9545:9550  token */\n      dup8\n        /* \"@openzeppelin/contracts/token/ERC20/utils/SafeERC20.sol\":9533:9551  extcodesize(token) */\n      extcodesize\n        /* \"@openzeppelin/contracts/token/ERC20/utils/SafeERC20.sol\":9530:9555  gt(extcodesize(token), 0) */\n      gt\n        /* \"@openzeppelin/contracts/token/ERC20/utils/SafeERC20.sol\":9511:9527  returndatasize() */\n      returndatasize\n        /* \"@openzeppelin/contracts/token/ERC20/utils/SafeERC20.sol\":9504:9528  iszero(returndatasize()) */\n      iszero\n        /* \"@openzeppelin/contracts/token/ERC20/utils/SafeERC20.sol\":9500:9556  and(iszero(returndatasize()), gt(extcodesize(token), 0)) */\n      and\n        /* \"@openzeppelin/contracts/token/ERC20/utils/SafeERC20.sol\":9491:9498  success */\n      dup4\n        /* \"@openzeppelin/contracts/token/ERC20/utils/SafeERC20.sol\":9487:9557  and(success, and(iszero(returndatasize()), gt(extcodesize(token), 0))) */\n      and\n        /* \"@openzeppelin/contracts/token/ERC20/utils/SafeERC20.sol\":9476:9557  success := and(success, and(iszero(returndatasize()), gt(extcodesize(token), 0))) */\n      swap3\n      pop\n        /* \"@openzeppelin/contracts/token/ERC20/utils/SafeERC20.sol\":8965:9571  if iszero(and(success, eq(mload(0x00), 1))) {... */\n    tag_298:\n        /* \"@openzeppelin/contracts/token/ERC20/utils/SafeERC20.sol\":9597:9600  fmp */\n      dup1\n        /* \"@openzeppelin/contracts/token/ERC20/utils/SafeERC20.sol\":9591:9595  0x40 */\n      0x40\n        /* \"@openzeppelin/contracts/token/ERC20/utils/SafeERC20.sol\":9584:9601  mstore(0x40, fmp) */\n      mstore\n        /* \"@openzeppelin/contracts/token/ERC20/utils/SafeERC20.sol\":8569:9611  {... */\n      pop\n      pop\n        /* \"@openzeppelin/contracts/token/ERC20/utils/SafeERC20.sol\":8373:9617  function _safeTransfer(IERC20 token, address to, uint256 value, bool bubble) private returns (bool success) {... */\n      swap5\n      swap4\n      pop\n      pop\n      pop\n      pop\n      jump\t// out\n        /* \"@openzeppelin/contracts/token/ERC20/utils/SafeERC20.sol\":10165:11558  function _safeTransferFrom(... */\n    tag_293:\n        /* \"@openzeppelin/contracts/token/ERC20/utils/SafeERC20.sol\":10323:10335  bool success */\n      0x00\n        /* \"@openzeppelin/contracts/token/ERC20/utils/SafeERC20.sol\":10347:10362  bytes4 selector */\n      0x00\n        /* \"@openzeppelin/contracts/token/ERC20/utils/SafeERC20.sol\":10365:10393  IERC20.transferFrom.selector */\n      shl(0xe0, 0x23b872dd)\n        /* \"@openzeppelin/contracts/token/ERC20/utils/SafeERC20.sol\":10347:10393  bytes4 selector = IERC20.transferFrom.selector */\n      swap1\n      pop\n        /* \"@openzeppelin/contracts/token/ERC20/utils/SafeERC20.sol\":10460:10464  0x40 */\n      0x40\n        /* \"@openzeppelin/contracts/token/ERC20/utils/SafeERC20.sol\":10454:10465  mload(0x40) */\n      mload\n        /* \"@openzeppelin/contracts/token/ERC20/utils/SafeERC20.sol\":10491:10499  selector */\n      dup2\n        /* \"@openzeppelin/contracts/token/ERC20/utils/SafeERC20.sol\":10485:10489  0x00 */\n      0x00\n        /* \"@openzeppelin/contracts/token/ERC20/utils/SafeERC20.sol\":10478:10500  mstore(0x00, selector) */\n      mstore\n        /* \"@openzeppelin/contracts/token/ERC20/utils/SafeERC20.sol\":10548:10549  0 */\n      0x00\n        /* \"@openzeppelin/contracts/token/ERC20/utils/SafeERC20.sol\":10544:10550  not(0) */\n      not\n        /* \"@openzeppelin/contracts/token/ERC20/utils/SafeERC20.sol\":10540:10542  96 */\n      0x60\n        /* \"@openzeppelin/contracts/token/ERC20/utils/SafeERC20.sol\":10536:10551  shr(96, not(0)) */\n      shr\n        /* \"@openzeppelin/contracts/token/ERC20/utils/SafeERC20.sol\":10530:10534  from */\n      dup8\n        /* \"@openzeppelin/contracts/token/ERC20/utils/SafeERC20.sol\":10526:10552  and(from, shr(96, not(0))) */\n      and\n        /* \"@openzeppelin/contracts/token/ERC20/utils/SafeERC20.sol\":10520:10524  0x04 */\n      0x04\n        /* \"@openzeppelin/contracts/token/ERC20/utils/SafeERC20.sol\":10513:10553  mstore(0x04, and(from, shr(96, not(0)))) */\n      mstore\n        /* \"@openzeppelin/contracts/token/ERC20/utils/SafeERC20.sol\":10599:10600  0 */\n      0x00\n        /* \"@openzeppelin/contracts/token/ERC20/utils/SafeERC20.sol\":10595:10601  not(0) */\n      not\n        /* \"@openzeppelin/contracts/token/ERC20/utils/SafeERC20.sol\":10591:10593  96 */\n      0x60\n        /* \"@openzeppelin/contracts/token/ERC20/utils/SafeERC20.sol\":10587:10602  shr(96, not(0)) */\n      shr\n        /* \"@openzeppelin/contracts/token/ERC20/utils/SafeERC20.sol\":10583:10585  to */\n      dup7\n        /* \"@openzeppelin/contracts/token/ERC20/utils/SafeERC20.sol\":10579:10603  and(to, shr(96, not(0))) */\n      and\n        /* \"@openzeppelin/contracts/token/ERC20/utils/SafeERC20.sol\":10573:10577  0x24 */\n      0x24\n        /* \"@openzeppelin/contracts/token/ERC20/utils/SafeERC20.sol\":10566:10604  mstore(0x24, and(to, shr(96, not(0)))) */\n      mstore\n        /* \"@openzeppelin/contracts/token/ERC20/utils/SafeERC20.sol\":10630:10635  value */\n      dup5\n        /* \"@openzeppelin/contracts/token/ERC20/utils/SafeERC20.sol\":10624:10628  0x44 */\n      0x44\n        /* \"@openzeppelin/contracts/token/ERC20/utils/SafeERC20.sol\":10617:10636  mstore(0x44, value) */\n      mstore\n        /* \"@openzeppelin/contracts/token/ERC20/utils/SafeERC20.sol\":10700:10704  0x20 */\n      0x20\n        /* \"@openzeppelin/contracts/token/ERC20/utils/SafeERC20.sol\":10694:10698  0x00 */\n      0x00\n        /* \"@openzeppelin/contracts/token/ERC20/utils/SafeERC20.sol\":10688:10692  0x64 */\n      0x64\n        /* \"@openzeppelin/contracts/token/ERC20/utils/SafeERC20.sol\":10682:10686  0x00 */\n      0x00\n        /* \"@openzeppelin/contracts/token/ERC20/utils/SafeERC20.sol\":10679:10680  0 */\n      0x00\n        /* \"@openzeppelin/contracts/token/ERC20/utils/SafeERC20.sol\":10672:10677  token */\n      dup13\n        /* \"@openzeppelin/contracts/token/ERC20/utils/SafeERC20.sol\":10665:10670  gas() */\n      gas\n        /* \"@openzeppelin/contracts/token/ERC20/utils/SafeERC20.sol\":10660:10705  call(gas(), token, 0, 0x00, 0x64, 0x00, 0x20) */\n      call\n        /* \"@openzeppelin/contracts/token/ERC20/utils/SafeERC20.sol\":10649:10705  success := call(gas(), token, 0, 0x00, 0x64, 0x00, 0x20) */\n      swap3\n      pop\n        /* \"@openzeppelin/contracts/token/ERC20/utils/SafeERC20.sol\":10917:10918  1 */\n      0x01\n        /* \"@openzeppelin/contracts/token/ERC20/utils/SafeERC20.sol\":10910:10914  0x00 */\n      0x00\n        /* \"@openzeppelin/contracts/token/ERC20/utils/SafeERC20.sol\":10904:10915  mload(0x00) */\n      mload\n        /* \"@openzeppelin/contracts/token/ERC20/utils/SafeERC20.sol\":10901:10919  eq(mload(0x00), 1) */\n      eq\n        /* \"@openzeppelin/contracts/token/ERC20/utils/SafeERC20.sol\":10892:10899  success */\n      dup4\n        /* \"@openzeppelin/contracts/token/ERC20/utils/SafeERC20.sol\":10888:10920  and(success, eq(mload(0x00), 1)) */\n      and\n        /* \"@openzeppelin/contracts/token/ERC20/utils/SafeERC20.sol\":10878:11484  if iszero(and(success, eq(mload(0x00), 1))) {... */\n      tag_301\n      jumpi\n        /* \"@openzeppelin/contracts/token/ERC20/utils/SafeERC20.sol\":11049:11055  bubble */\n      dup4\n        /* \"@openzeppelin/contracts/token/ERC20/utils/SafeERC20.sol\":11039:11046  success */\n      dup4\n        /* \"@openzeppelin/contracts/token/ERC20/utils/SafeERC20.sol\":11032:11047  iszero(success) */\n      iszero\n        /* \"@openzeppelin/contracts/token/ERC20/utils/SafeERC20.sol\":11028:11056  and(iszero(success), bubble) */\n      and\n        /* \"@openzeppelin/contracts/token/ERC20/utils/SafeERC20.sol\":11025:11190  if and(iszero(success), bubble) {... */\n      iszero\n      tag_302\n      jumpi\n        /* \"@openzeppelin/contracts/token/ERC20/utils/SafeERC20.sol\":11105:11121  returndatasize() */\n      returndatasize\n        /* \"@openzeppelin/contracts/token/ERC20/utils/SafeERC20.sol\":11099:11103  0x00 */\n      0x00\n        /* \"@openzeppelin/contracts/token/ERC20/utils/SafeERC20.sol\":11094:11097  fmp */\n      dup3\n        /* \"@openzeppelin/contracts/token/ERC20/utils/SafeERC20.sol\":11079:11122  returndatacopy(fmp, 0x00, returndatasize()) */\n      returndatacopy\n        /* \"@openzeppelin/contracts/token/ERC20/utils/SafeERC20.sol\":11155:11171  returndatasize() */\n      returndatasize\n        /* \"@openzeppelin/contracts/token/ERC20/utils/SafeERC20.sol\":11150:11153  fmp */\n      dup2\n        /* \"@openzeppelin/contracts/token/ERC20/utils/SafeERC20.sol\":11143:11172  revert(fmp, returndatasize()) */\n      revert\n        /* \"@openzeppelin/contracts/token/ERC20/utils/SafeERC20.sol\":11025:11190  if and(iszero(success), bubble) {... */\n    tag_302:\n        /* \"@openzeppelin/contracts/token/ERC20/utils/SafeERC20.sol\":11466:11467  0 */\n      0x00\n        /* \"@openzeppelin/contracts/token/ERC20/utils/SafeERC20.sol\":11458:11463  token */\n      dup9\n        /* \"@openzeppelin/contracts/token/ERC20/utils/SafeERC20.sol\":11446:11464  extcodesize(token) */\n      extcodesize\n        /* \"@openzeppelin/contracts/token/ERC20/utils/SafeERC20.sol\":11443:11468  gt(extcodesize(token), 0) */\n      gt\n        /* \"@openzeppelin/contracts/token/ERC20/utils/SafeERC20.sol\":11424:11440  returndatasize() */\n      returndatasize\n        /* \"@openzeppelin/contracts/token/ERC20/utils/SafeERC20.sol\":11417:11441  iszero(returndatasize()) */\n      iszero\n        /* \"@openzeppelin/contracts/token/ERC20/utils/SafeERC20.sol\":11413:11469  and(iszero(returndatasize()), gt(extcodesize(token), 0)) */\n      and\n        /* \"@openzeppelin/contracts/token/ERC20/utils/SafeERC20.sol\":11404:11411  success */\n      dup4\n        /* \"@openzeppelin/contracts/token/ERC20/utils/SafeERC20.sol\":11400:11470  and(success, and(iszero(returndatasize()), gt(extcodesize(token), 0))) */\n      and\n        /* \"@openzeppelin/contracts/token/ERC20/utils/SafeERC20.sol\":11389:11470  success := and(success, and(iszero(returndatasize()), gt(extcodesize(token), 0))) */\n      swap3\n      pop\n        /* \"@openzeppelin/contracts/token/ERC20/utils/SafeERC20.sol\":10878:11484  if iszero(and(success, eq(mload(0x00), 1))) {... */\n    tag_301:\n        /* \"@openzeppelin/contracts/token/ERC20/utils/SafeERC20.sol\":11510:11513  fmp */\n      dup1\n        /* \"@openzeppelin/contracts/token/ERC20/utils/SafeERC20.sol\":11504:11508  0x40 */\n      0x40\n        /* \"@openzeppelin/contracts/token/ERC20/utils/SafeERC20.sol\":11497:11514  mstore(0x40, fmp) */\n      mstore\n        /* \"@openzeppelin/contracts/token/ERC20/utils/SafeERC20.sol\":11540:11541  0 */\n      0x00\n        /* \"@openzeppelin/contracts/token/ERC20/utils/SafeERC20.sol\":11534:11538  0x60 */\n      0x60\n        /* \"@openzeppelin/contracts/token/ERC20/utils/SafeERC20.sol\":11527:11542  mstore(0x60, 0) */\n      mstore\n        /* \"@openzeppelin/contracts/token/ERC20/utils/SafeERC20.sol\":10429:11552  {... */\n      pop\n      pop\n        /* \"@openzeppelin/contracts/token/ERC20/utils/SafeERC20.sol\":10165:11558  function _safeTransferFrom(... */\n      swap6\n      swap5\n      pop\n      pop\n      pop\n      pop\n      pop\n      jump\t// out\n    tag_143:\n      mload(0x40)\n      dup1\n      0x60\n      add\n      0x40\n      mstore\n      dup1\n      0x60\n      dup2\n      mstore\n      0x20\n      add\n      0x60\n      dup2\n      mstore\n      0x20\n      add\n      0x60\n      dup2\n      mstore\n      pop\n      swap1\n      jump\t// out\n        /* \"#utility.yul\":7:106   */\n    tag_303:\n        /* \"#utility.yul\":59:65   */\n      0x00\n        /* \"#utility.yul\":93:98   */\n      dup2\n        /* \"#utility.yul\":87:99   */\n      mload\n        /* \"#utility.yul\":77:99   */\n      swap1\n      pop\n        /* \"#utility.yul\":7:106   */\n      swap2\n      swap1\n      pop\n      jump\t// out\n        /* \"#utility.yul\":112:281   */\n    tag_304:\n        /* \"#utility.yul\":196:207   */\n      0x00\n        /* \"#utility.yul\":230:236   */\n      dup3\n        /* \"#utility.yul\":225:228   */\n      dup3\n        /* \"#utility.yul\":218:237   */\n      mstore\n        /* \"#utility.yul\":270:274   */\n      0x20\n        /* \"#utility.yul\":265:268   */\n      dup3\n        /* \"#utility.yul\":261:275   */\n      add\n        /* \"#utility.yul\":246:275   */\n      swap1\n      pop\n        /* \"#utility.yul\":112:281   */\n      swap3\n      swap2\n      pop\n      pop\n      jump\t// out\n        /* \"#utility.yul\":287:426   */\n    tag_305:\n        /* \"#utility.yul\":376:382   */\n      dup3\n        /* \"#utility.yul\":371:374   */\n      dup2\n        /* \"#utility.yul\":366:369   */\n      dup4\n        /* \"#utility.yul\":360:383   */\n      mcopy\n        /* \"#utility.yul\":417:418   */\n      0x00\n        /* \"#utility.yul\":408:414   */\n      dup4\n        /* \"#utility.yul\":403:406   */\n      dup4\n        /* \"#utility.yul\":399:415   */\n      add\n        /* \"#utility.yul\":392:419   */\n      mstore\n        /* \"#utility.yul\":287:426   */\n      pop\n      pop\n      pop\n      jump\t// out\n        /* \"#utility.yul\":432:534   */\n    tag_306:\n        /* \"#utility.yul\":473:479   */\n      0x00\n        /* \"#utility.yul\":524:526   */\n      0x1f\n        /* \"#utility.yul\":520:527   */\n      not\n        /* \"#utility.yul\":515:517   */\n      0x1f\n        /* \"#utility.yul\":508:513   */\n      dup4\n        /* \"#utility.yul\":504:518   */\n      add\n        /* \"#utility.yul\":500:528   */\n      and\n        /* \"#utility.yul\":490:528   */\n      swap1\n      pop\n        /* \"#utility.yul\":432:534   */\n      swap2\n      swap1\n      pop\n      jump\t// out\n        /* \"#utility.yul\":540:917   */\n    tag_307:\n        /* \"#utility.yul\":628:631   */\n      0x00\n        /* \"#utility.yul\":656:695   */\n      tag_401\n        /* \"#utility.yul\":689:694   */\n      dup3\n        /* \"#utility.yul\":656:695   */\n      tag_303\n      jump\t// in\n    tag_401:\n        /* \"#utility.yul\":711:782   */\n      tag_402\n        /* \"#utility.yul\":775:781   */\n      dup2\n        /* \"#utility.yul\":770:773   */\n      dup6\n        /* \"#utility.yul\":711:782   */\n      tag_304\n      jump\t// in\n    tag_402:\n        /* \"#utility.yul\":704:782   */\n      swap4\n      pop\n        /* \"#utility.yul\":791:856   */\n      tag_403\n        /* \"#utility.yul\":849:855   */\n      dup2\n        /* \"#utility.yul\":844:847   */\n      dup6\n        /* \"#utility.yul\":837:841   */\n      0x20\n        /* \"#utility.yul\":830:835   */\n      dup7\n        /* \"#utility.yul\":826:842   */\n      add\n        /* \"#utility.yul\":791:856   */\n      tag_305\n      jump\t// in\n    tag_403:\n        /* \"#utility.yul\":881:910   */\n      tag_404\n        /* \"#utility.yul\":903:909   */\n      dup2\n        /* \"#utility.yul\":881:910   */\n      tag_306\n      jump\t// in\n    tag_404:\n        /* \"#utility.yul\":876:879   */\n      dup5\n        /* \"#utility.yul\":872:911   */\n      add\n        /* \"#utility.yul\":865:911   */\n      swap2\n      pop\n        /* \"#utility.yul\":632:917   */\n      pop\n        /* \"#utility.yul\":540:917   */\n      swap3\n      swap2\n      pop\n      pop\n      jump\t// out\n        /* \"#utility.yul\":923:1236   */\n    tag_25:\n        /* \"#utility.yul\":1036:1040   */\n      0x00\n        /* \"#utility.yul\":1074:1076   */\n      0x20\n        /* \"#utility.yul\":1063:1072   */\n      dup3\n        /* \"#utility.yul\":1059:1077   */\n      add\n        /* \"#utility.yul\":1051:1077   */\n      swap1\n      pop\n        /* \"#utility.yul\":1123:1132   */\n      dup2\n        /* \"#utility.yul\":1117:1121   */\n      dup2\n        /* \"#utility.yul\":1113:1133   */\n      sub\n        /* \"#utility.yul\":1109:1110   */\n      0x00\n        /* \"#utility.yul\":1098:1107   */\n      dup4\n        /* \"#utility.yul\":1094:1111   */\n      add\n        /* \"#utility.yul\":1087:1134   */\n      mstore\n        /* \"#utility.yul\":1151:1229   */\n      tag_406\n        /* \"#utility.yul\":1224:1228   */\n      dup2\n        /* \"#utility.yul\":1215:1221   */\n      dup5\n        /* \"#utility.yul\":1151:1229   */\n      tag_307\n      jump\t// in\n    tag_406:\n        /* \"#utility.yul\":1143:1229   */\n      swap1\n      pop\n        /* \"#utility.yul\":923:1236   */\n      swap3\n      swap2\n      pop\n      pop\n      jump\t// out\n        /* \"#utility.yul\":1242:1317   */\n    tag_308:\n        /* \"#utility.yul\":1275:1281   */\n      0x00\n        /* \"#utility.yul\":1308:1310   */\n      0x40\n        /* \"#utility.yul\":1302:1311   */\n      mload\n        /* \"#utility.yul\":1292:1311   */\n      swap1\n      pop\n        /* \"#utility.yul\":1242:1317   */\n      swap1\n      jump\t// out\n        /* \"#utility.yul\":1323:1440   */\n    tag_309:\n        /* \"#utility.yul\":1432:1433   */\n      0x00\n        /* \"#utility.yul\":1429:1430   */\n      0x00\n        /* \"#utility.yul\":1422:1434   */\n      revert\n        /* \"#utility.yul\":1446:1563   */\n    tag_310:\n        /* \"#utility.yul\":1555:1556   */\n      0x00\n        /* \"#utility.yul\":1552:1553   */\n      0x00\n        /* \"#utility.yul\":1545:1557   */\n      revert\n        /* \"#utility.yul\":1569:1686   */\n    tag_311:\n        /* \"#utility.yul\":1678:1679   */\n      0x00\n        /* \"#utility.yul\":1675:1676   */\n      0x00\n        /* \"#utility.yul\":1668:1680   */\n      revert\n        /* \"#utility.yul\":1692:1809   */\n    tag_312:\n        /* \"#utility.yul\":1801:1802   */\n      0x00\n        /* \"#utility.yul\":1798:1799   */\n      0x00\n        /* \"#utility.yul\":1791:1803   */\n      revert\n        /* \"#utility.yul\":1815:1995   */\n    tag_139:\n        /* \"#utility.yul\":1863:1940   */\n      0x4e487b7100000000000000000000000000000000000000000000000000000000\n        /* \"#utility.yul\":1860:1861   */\n      0x00\n        /* \"#utility.yul\":1853:1941   */\n      mstore\n        /* \"#utility.yul\":1960:1964   */\n      0x41\n        /* \"#utility.yul\":1957:1958   */\n      0x04\n        /* \"#utility.yul\":1950:1965   */\n      mstore\n        /* \"#utility.yul\":1984:1988   */\n      0x24\n        /* \"#utility.yul\":1981:1982   */\n      0x00\n        /* \"#utility.yul\":1974:1989   */\n      revert\n        /* \"#utility.yul\":2001:2282   */\n    tag_313:\n        /* \"#utility.yul\":2084:2111   */\n      tag_414\n        /* \"#utility.yul\":2106:2110   */\n      dup3\n        /* \"#utility.yul\":2084:2111   */\n      tag_306\n      jump\t// in\n    tag_414:\n        /* \"#utility.yul\":2076:2082   */\n      dup2\n        /* \"#utility.yul\":2072:2112   */\n      add\n        /* \"#utility.yul\":2214:2220   */\n      dup2\n        /* \"#utility.yul\":2202:2212   */\n      dup2\n        /* \"#utility.yul\":2199:2221   */\n      lt\n        /* \"#utility.yul\":2178:2196   */\n      0xffffffffffffffff\n        /* \"#utility.yul\":2166:2176   */\n      dup3\n        /* \"#utility.yul\":2163:2197   */\n      gt\n        /* \"#utility.yul\":2160:2222   */\n      or\n        /* \"#utility.yul\":2157:2245   */\n      iszero\n      tag_415\n      jumpi\n        /* \"#utility.yul\":2225:2243   */\n      tag_416\n      tag_139\n      jump\t// in\n    tag_416:\n        /* \"#utility.yul\":2157:2245   */\n    tag_415:\n        /* \"#utility.yul\":2265:2275   */\n      dup1\n        /* \"#utility.yul\":2261:2263   */\n      0x40\n        /* \"#utility.yul\":2254:2276   */\n      mstore\n        /* \"#utility.yul\":2044:2282   */\n      pop\n        /* \"#utility.yul\":2001:2282   */\n      pop\n      pop\n      jump\t// out\n        /* \"#utility.yul\":2288:2417   */\n    tag_314:\n        /* \"#utility.yul\":2322:2328   */\n      0x00\n        /* \"#utility.yul\":2349:2369   */\n      tag_418\n      tag_308\n      jump\t// in\n    tag_418:\n        /* \"#utility.yul\":2339:2369   */\n      swap1\n      pop\n        /* \"#utility.yul\":2378:2411   */\n      tag_419\n        /* \"#utility.yul\":2406:2410   */\n      dup3\n        /* \"#utility.yul\":2398:2404   */\n      dup3\n        /* \"#utility.yul\":2378:2411   */\n      tag_313\n      jump\t// in\n    tag_419:\n        /* \"#utility.yul\":2288:2417   */\n      swap2\n      swap1\n      pop\n      jump\t// out\n        /* \"#utility.yul\":2423:2731   */\n    tag_315:\n        /* \"#utility.yul\":2485:2489   */\n      0x00\n        /* \"#utility.yul\":2575:2593   */\n      0xffffffffffffffff\n        /* \"#utility.yul\":2567:2573   */\n      dup3\n        /* \"#utility.yul\":2564:2594   */\n      gt\n        /* \"#utility.yul\":2561:2617   */\n      iszero\n      tag_421\n      jumpi\n        /* \"#utility.yul\":2597:2615   */\n      tag_422\n      tag_139\n      jump\t// in\n    tag_422:\n        /* \"#utility.yul\":2561:2617   */\n    tag_421:\n        /* \"#utility.yul\":2635:2664   */\n      tag_423\n        /* \"#utility.yul\":2657:2663   */\n      dup3\n        /* \"#utility.yul\":2635:2664   */\n      tag_306\n      jump\t// in\n    tag_423:\n        /* \"#utility.yul\":2627:2664   */\n      swap1\n      pop\n        /* \"#utility.yul\":2719:2723   */\n      0x20\n        /* \"#utility.yul\":2713:2717   */\n      dup2\n        /* \"#utility.yul\":2709:2724   */\n      add\n        /* \"#utility.yul\":2701:2724   */\n      swap1\n      pop\n        /* \"#utility.yul\":2423:2731   */\n      swap2\n      swap1\n      pop\n      jump\t// out\n        /* \"#utility.yul\":2737:2885   */\n    tag_316:\n        /* \"#utility.yul\":2835:2841   */\n      dup3\n        /* \"#utility.yul\":2830:2833   */\n      dup2\n        /* \"#utility.yul\":2825:2828   */\n      dup4\n        /* \"#utility.yul\":2812:2842   */\n      calldatacopy\n        /* \"#utility.yul\":2876:2877   */\n      0x00\n        /* \"#utility.yul\":2867:2873   */\n      dup4\n        /* \"#utility.yul\":2862:2865   */\n      dup4\n        /* \"#utility.yul\":2858:2874   */\n      add\n        /* \"#utility.yul\":2851:2878   */\n      mstore\n        /* \"#utility.yul\":2737:2885   */\n      pop\n      pop\n      pop\n      jump\t// out\n        /* \"#utility.yul\":2891:3316   */\n    tag_317:\n        /* \"#utility.yul\":2969:2974   */\n      0x00\n        /* \"#utility.yul\":2994:3060   */\n      tag_426\n        /* \"#utility.yul\":3010:3059   */\n      tag_427\n        /* \"#utility.yul\":3052:3058   */\n      dup5\n        /* \"#utility.yul\":3010:3059   */\n      tag_315\n      jump\t// in\n    tag_427:\n        /* \"#utility.yul\":2994:3060   */\n      tag_314\n      jump\t// in\n    tag_426:\n        /* \"#utility.yul\":2985:3060   */\n      swap1\n      pop\n        /* \"#utility.yul\":3083:3089   */\n      dup3\n        /* \"#utility.yul\":3076:3081   */\n      dup2\n        /* \"#utility.yul\":3069:3090   */\n      mstore\n        /* \"#utility.yul\":3121:3125   */\n      0x20\n        /* \"#utility.yul\":3114:3119   */\n      dup2\n        /* \"#utility.yul\":3110:3126   */\n      add\n        /* \"#utility.yul\":3159:3162   */\n      dup5\n        /* \"#utility.yul\":3150:3156   */\n      dup5\n        /* \"#utility.yul\":3145:3148   */\n      dup5\n        /* \"#utility.yul\":3141:3157   */\n      add\n        /* \"#utility.yul\":3138:3163   */\n      gt\n        /* \"#utility.yul\":3135:3247   */\n      iszero\n      tag_428\n      jumpi\n        /* \"#utility.yul\":3166:3245   */\n      tag_429\n      tag_312\n      jump\t// in\n    tag_429:\n        /* \"#utility.yul\":3135:3247   */\n    tag_428:\n        /* \"#utility.yul\":3256:3310   */\n      tag_430\n        /* \"#utility.yul\":3303:3309   */\n      dup5\n        /* \"#utility.yul\":3298:3301   */\n      dup3\n        /* \"#utility.yul\":3293:3296   */\n      dup6\n        /* \"#utility.yul\":3256:3310   */\n      tag_316\n      jump\t// in\n    tag_430:\n        /* \"#utility.yul\":2975:3316   */\n      pop\n        /* \"#utility.yul\":2891:3316   */\n      swap4\n      swap3\n      pop\n      pop\n      pop\n      jump\t// out\n        /* \"#utility.yul\":3336:3676   */\n    tag_318:\n        /* \"#utility.yul\":3392:3397   */\n      0x00\n        /* \"#utility.yul\":3441:3444   */\n      dup3\n        /* \"#utility.yul\":3434:3438   */\n      0x1f\n        /* \"#utility.yul\":3426:3432   */\n      dup4\n        /* \"#utility.yul\":3422:3439   */\n      add\n        /* \"#utility.yul\":3418:3445   */\n      slt\n        /* \"#utility.yul\":3408:3530   */\n      tag_432\n      jumpi\n        /* \"#utility.yul\":3449:3528   */\n      tag_433\n      tag_311\n      jump\t// in\n    tag_433:\n        /* \"#utility.yul\":3408:3530   */\n    tag_432:\n        /* \"#utility.yul\":3566:3572   */\n      dup2\n        /* \"#utility.yul\":3553:3573   */\n      calldataload\n        /* \"#utility.yul\":3591:3670   */\n      tag_434\n        /* \"#utility.yul\":3666:3669   */\n      dup5\n        /* \"#utility.yul\":3658:3664   */\n      dup3\n        /* \"#utility.yul\":3651:3655   */\n      0x20\n        /* \"#utility.yul\":3643:3649   */\n      dup7\n        /* \"#utility.yul\":3639:3656   */\n      add\n        /* \"#utility.yul\":3591:3670   */\n      tag_317\n      jump\t// in\n    tag_434:\n        /* \"#utility.yul\":3582:3670   */\n      swap2\n      pop\n        /* \"#utility.yul\":3398:3676   */\n      pop\n        /* \"#utility.yul\":3336:3676   */\n      swap3\n      swap2\n      pop\n      pop\n      jump\t// out\n        /* \"#utility.yul\":3682:4191   */\n    tag_28:\n        /* \"#utility.yul\":3751:3757   */\n      0x00\n        /* \"#utility.yul\":3800:3802   */\n      0x20\n        /* \"#utility.yul\":3788:3797   */\n      dup3\n        /* \"#utility.yul\":3779:3786   */\n      dup5\n        /* \"#utility.yul\":3775:3798   */\n      sub\n        /* \"#utility.yul\":3771:3803   */\n      slt\n        /* \"#utility.yul\":3768:3887   */\n      iszero\n      tag_436\n      jumpi\n        /* \"#utility.yul\":3806:3885   */\n      tag_437\n      tag_309\n      jump\t// in\n    tag_437:\n        /* \"#utility.yul\":3768:3887   */\n    tag_436:\n        /* \"#utility.yul\":3954:3955   */\n      0x00\n        /* \"#utility.yul\":3943:3952   */\n      dup3\n        /* \"#utility.yul\":3939:3956   */\n      add\n        /* \"#utility.yul\":3926:3957   */\n      calldataload\n        /* \"#utility.yul\":3984:4002   */\n      0xffffffffffffffff\n        /* \"#utility.yul\":3976:3982   */\n      dup2\n        /* \"#utility.yul\":3973:4003   */\n      gt\n        /* \"#utility.yul\":3970:4087   */\n      iszero\n      tag_438\n      jumpi\n        /* \"#utility.yul\":4006:4085   */\n      tag_439\n      tag_310\n      jump\t// in\n    tag_439:\n        /* \"#utility.yul\":3970:4087   */\n    tag_438:\n        /* \"#utility.yul\":4111:4174   */\n      tag_440\n        /* \"#utility.yul\":4166:4173   */\n      dup5\n        /* \"#utility.yul\":4157:4163   */\n      dup3\n        /* \"#utility.yul\":4146:4155   */\n      dup6\n        /* \"#utility.yul\":4142:4164   */\n      add\n        /* \"#utility.yul\":4111:4174   */\n      tag_318\n      jump\t// in\n    tag_440:\n        /* \"#utility.yul\":4101:4174   */\n      swap2\n      pop\n        /* \"#utility.yul\":3897:4184   */\n      pop\n        /* \"#utility.yul\":3682:4191   */\n      swap3\n      swap2\n      pop\n      pop\n      jump\t// out\n        /* \"#utility.yul\":4197:4323   */\n    tag_319:\n        /* \"#utility.yul\":4234:4241   */\n      0x00\n        /* \"#utility.yul\":4274:4316   */\n      0xffffffffffffffffffffffffffffffffffffffff\n        /* \"#utility.yul\":4267:4272   */\n      dup3\n        /* \"#utility.yul\":4263:4317   */\n      and\n        /* \"#utility.yul\":4252:4317   */\n      swap1\n      pop\n        /* \"#utility.yul\":4197:4323   */\n      swap2\n      swap1\n      pop\n      jump\t// out\n        /* \"#utility.yul\":4329:4425   */\n    tag_320:\n        /* \"#utility.yul\":4366:4373   */\n      0x00\n        /* \"#utility.yul\":4395:4419   */\n      tag_443\n        /* \"#utility.yul\":4413:4418   */\n      dup3\n        /* \"#utility.yul\":4395:4419   */\n      tag_319\n      jump\t// in\n    tag_443:\n        /* \"#utility.yul\":4384:4419   */\n      swap1\n      pop\n        /* \"#utility.yul\":4329:4425   */\n      swap2\n      swap1\n      pop\n      jump\t// out\n        /* \"#utility.yul\":4431:4549   */\n    tag_321:\n        /* \"#utility.yul\":4518:4542   */\n      tag_445\n        /* \"#utility.yul\":4536:4541   */\n      dup2\n        /* \"#utility.yul\":4518:4542   */\n      tag_320\n      jump\t// in\n    tag_445:\n        /* \"#utility.yul\":4513:4516   */\n      dup3\n        /* \"#utility.yul\":4506:4543   */\n      mstore\n        /* \"#utility.yul\":4431:4549   */\n      pop\n      pop\n      jump\t// out\n        /* \"#utility.yul\":4555:4777   */\n    tag_31:\n        /* \"#utility.yul\":4648:4652   */\n      0x00\n        /* \"#utility.yul\":4686:4688   */\n      0x20\n        /* \"#utility.yul\":4675:4684   */\n      dup3\n        /* \"#utility.yul\":4671:4689   */\n      add\n        /* \"#utility.yul\":4663:4689   */\n      swap1\n      pop\n        /* \"#utility.yul\":4699:4770   */\n      tag_447\n        /* \"#utility.yul\":4767:4768   */\n      0x00\n        /* \"#utility.yul\":4756:4765   */\n      dup4\n        /* \"#utility.yul\":4752:4769   */\n      add\n        /* \"#utility.yul\":4743:4749   */\n      dup5\n        /* \"#utility.yul\":4699:4770   */\n      tag_321\n      jump\t// in\n    tag_447:\n        /* \"#utility.yul\":4555:4777   */\n      swap3\n      swap2\n      pop\n      pop\n      jump\t// out\n        /* \"#utility.yul\":4783:4905   */\n    tag_322:\n        /* \"#utility.yul\":4856:4880   */\n      tag_449\n        /* \"#utility.yul\":4874:4879   */\n      dup2\n        /* \"#utility.yul\":4856:4880   */\n      tag_320\n      jump\t// in\n    tag_449:\n        /* \"#utility.yul\":4849:4854   */\n      dup2\n        /* \"#utility.yul\":4846:4881   */\n      eq\n        /* \"#utility.yul\":4836:4899   */\n      tag_450\n      jumpi\n        /* \"#utility.yul\":4895:4896   */\n      0x00\n        /* \"#utility.yul\":4892:4893   */\n      0x00\n        /* \"#utility.yul\":4885:4897   */\n      revert\n        /* \"#utility.yul\":4836:4899   */\n    tag_450:\n        /* \"#utility.yul\":4783:4905   */\n      pop\n      jump\t// out\n        /* \"#utility.yul\":4911:5050   */\n    tag_323:\n        /* \"#utility.yul\":4957:4962   */\n      0x00\n        /* \"#utility.yul\":4995:5001   */\n      dup2\n        /* \"#utility.yul\":4982:5002   */\n      calldataload\n        /* \"#utility.yul\":4973:5002   */\n      swap1\n      pop\n        /* \"#utility.yul\":5011:5044   */\n      tag_452\n        /* \"#utility.yul\":5038:5043   */\n      dup2\n        /* \"#utility.yul\":5011:5044   */\n      tag_322\n      jump\t// in\n    tag_452:\n        /* \"#utility.yul\":4911:5050   */\n      swap3\n      swap2\n      pop\n      pop\n      jump\t// out\n        /* \"#utility.yul\":5056:5385   */\n    tag_34:\n        /* \"#utility.yul\":5115:5121   */\n      0x00\n        /* \"#utility.yul\":5164:5166   */\n      0x20\n        /* \"#utility.yul\":5152:5161   */\n      dup3\n        /* \"#utility.yul\":5143:5150   */\n      dup5\n        /* \"#utility.yul\":5139:5162   */\n      sub\n        /* \"#utility.yul\":5135:5167   */\n      slt\n        /* \"#utility.yul\":5132:5251   */\n      iszero\n      tag_454\n      jumpi\n        /* \"#utility.yul\":5170:5249   */\n      tag_455\n      tag_309\n      jump\t// in\n    tag_455:\n        /* \"#utility.yul\":5132:5251   */\n    tag_454:\n        /* \"#utility.yul\":5290:5291   */\n      0x00\n        /* \"#utility.yul\":5315:5368   */\n      tag_456\n        /* \"#utility.yul\":5360:5367   */\n      dup5\n        /* \"#utility.yul\":5351:5357   */\n      dup3\n        /* \"#utility.yul\":5340:5349   */\n      dup6\n        /* \"#utility.yul\":5336:5358   */\n      add\n        /* \"#utility.yul\":5315:5368   */\n      tag_323\n      jump\t// in\n    tag_456:\n        /* \"#utility.yul\":5305:5368   */\n      swap2\n      pop\n        /* \"#utility.yul\":5261:5378   */\n      pop\n        /* \"#utility.yul\":5056:5385   */\n      swap3\n      swap2\n      pop\n      pop\n      jump\t// out\n        /* \"#utility.yul\":5391:5481   */\n    tag_324:\n        /* \"#utility.yul\":5425:5432   */\n      0x00\n        /* \"#utility.yul\":5468:5473   */\n      dup2\n        /* \"#utility.yul\":5461:5474   */\n      iszero\n        /* \"#utility.yul\":5454:5475   */\n      iszero\n        /* \"#utility.yul\":5443:5475   */\n      swap1\n      pop\n        /* \"#utility.yul\":5391:5481   */\n      swap2\n      swap1\n      pop\n      jump\t// out\n        /* \"#utility.yul\":5487:5596   */\n    tag_325:\n        /* \"#utility.yul\":5568:5589   */\n      tag_459\n        /* \"#utility.yul\":5583:5588   */\n      dup2\n        /* \"#utility.yul\":5568:5589   */\n      tag_324\n      jump\t// in\n    tag_459:\n        /* \"#utility.yul\":5563:5566   */\n      dup3\n        /* \"#utility.yul\":5556:5590   */\n      mstore\n        /* \"#utility.yul\":5487:5596   */\n      pop\n      pop\n      jump\t// out\n        /* \"#utility.yul\":5602:5812   */\n    tag_37:\n        /* \"#utility.yul\":5689:5693   */\n      0x00\n        /* \"#utility.yul\":5727:5729   */\n      0x20\n        /* \"#utility.yul\":5716:5725   */\n      dup3\n        /* \"#utility.yul\":5712:5730   */\n      add\n        /* \"#utility.yul\":5704:5730   */\n      swap1\n      pop\n        /* \"#utility.yul\":5740:5805   */\n      tag_461\n        /* \"#utility.yul\":5802:5803   */\n      0x00\n        /* \"#utility.yul\":5791:5800   */\n      dup4\n        /* \"#utility.yul\":5787:5804   */\n      add\n        /* \"#utility.yul\":5778:5784   */\n      dup5\n        /* \"#utility.yul\":5740:5805   */\n      tag_325\n      jump\t// in\n    tag_461:\n        /* \"#utility.yul\":5602:5812   */\n      swap3\n      swap2\n      pop\n      pop\n      jump\t// out\n        /* \"#utility.yul\":5818:6292   */\n    tag_40:\n        /* \"#utility.yul\":5886:5892   */\n      0x00\n        /* \"#utility.yul\":5894:5900   */\n      0x00\n        /* \"#utility.yul\":5943:5945   */\n      0x40\n        /* \"#utility.yul\":5931:5940   */\n      dup4\n        /* \"#utility.yul\":5922:5929   */\n      dup6\n        /* \"#utility.yul\":5918:5941   */\n      sub\n        /* \"#utility.yul\":5914:5946   */\n      slt\n        /* \"#utility.yul\":5911:6030   */\n      iszero\n      tag_463\n      jumpi\n        /* \"#utility.yul\":5949:6028   */\n      tag_464\n      tag_309\n      jump\t// in\n    tag_464:\n        /* \"#utility.yul\":5911:6030   */\n    tag_463:\n        /* \"#utility.yul\":6069:6070   */\n      0x00\n        /* \"#utility.yul\":6094:6147   */\n      tag_465\n        /* \"#utility.yul\":6139:6146   */\n      dup6\n        /* \"#utility.yul\":6130:6136   */\n      dup3\n        /* \"#utility.yul\":6119:6128   */\n      dup7\n        /* \"#utility.yul\":6115:6137   */\n      add\n        /* \"#utility.yul\":6094:6147   */\n      tag_323\n      jump\t// in\n    tag_465:\n        /* \"#utility.yul\":6084:6147   */\n      swap3\n      pop\n        /* \"#utility.yul\":6040:6157   */\n      pop\n        /* \"#utility.yul\":6196:6198   */\n      0x20\n        /* \"#utility.yul\":6222:6275   */\n      tag_466\n        /* \"#utility.yul\":6267:6274   */\n      dup6\n        /* \"#utility.yul\":6258:6264   */\n      dup3\n        /* \"#utility.yul\":6247:6256   */\n      dup7\n        /* \"#utility.yul\":6243:6265   */\n      add\n        /* \"#utility.yul\":6222:6275   */\n      tag_323\n      jump\t// in\n    tag_466:\n        /* \"#utility.yul\":6212:6275   */\n      swap2\n      pop\n        /* \"#utility.yul\":6167:6285   */\n      pop\n        /* \"#utility.yul\":5818:6292   */\n      swap3\n      pop\n      swap3\n      swap1\n      pop\n      jump\t// out\n        /* \"#utility.yul\":6298:6375   */\n    tag_326:\n        /* \"#utility.yul\":6335:6342   */\n      0x00\n        /* \"#utility.yul\":6364:6369   */\n      dup2\n        /* \"#utility.yul\":6353:6369   */\n      swap1\n      pop\n        /* \"#utility.yul\":6298:6375   */\n      swap2\n      swap1\n      pop\n      jump\t// out\n        /* \"#utility.yul\":6381:6499   */\n    tag_327:\n        /* \"#utility.yul\":6468:6492   */\n      tag_469\n        /* \"#utility.yul\":6486:6491   */\n      dup2\n        /* \"#utility.yul\":6468:6492   */\n      tag_326\n      jump\t// in\n    tag_469:\n        /* \"#utility.yul\":6463:6466   */\n      dup3\n        /* \"#utility.yul\":6456:6493   */\n      mstore\n        /* \"#utility.yul\":6381:6499   */\n      pop\n      pop\n      jump\t// out\n        /* \"#utility.yul\":6505:6727   */\n    tag_43:\n        /* \"#utility.yul\":6598:6602   */\n      0x00\n        /* \"#utility.yul\":6636:6638   */\n      0x20\n        /* \"#utility.yul\":6625:6634   */\n      dup3\n        /* \"#utility.yul\":6621:6639   */\n      add\n        /* \"#utility.yul\":6613:6639   */\n      swap1\n      pop\n        /* \"#utility.yul\":6649:6720   */\n      tag_471\n        /* \"#utility.yul\":6717:6718   */\n      0x00\n        /* \"#utility.yul\":6706:6715   */\n      dup4\n        /* \"#utility.yul\":6702:6719   */\n      add\n        /* \"#utility.yul\":6693:6699   */\n      dup5\n        /* \"#utility.yul\":6649:6720   */\n      tag_327\n      jump\t// in\n    tag_471:\n        /* \"#utility.yul\":6505:6727   */\n      swap3\n      swap2\n      pop\n      pop\n      jump\t// out\n        /* \"#utility.yul\":6733:6850   */\n    tag_328:\n        /* \"#utility.yul\":6842:6843   */\n      0x00\n        /* \"#utility.yul\":6839:6840   */\n      0x00\n        /* \"#utility.yul\":6832:6844   */\n      revert\n        /* \"#utility.yul\":6856:6973   */\n    tag_329:\n        /* \"#utility.yul\":6965:6966   */\n      0x00\n        /* \"#utility.yul\":6962:6963   */\n      0x00\n        /* \"#utility.yul\":6955:6967   */\n      revert\n        /* \"#utility.yul\":6993:7546   */\n    tag_330:\n        /* \"#utility.yul\":7051:7059   */\n      0x00\n        /* \"#utility.yul\":7061:7067   */\n      0x00\n        /* \"#utility.yul\":7111:7114   */\n      dup4\n        /* \"#utility.yul\":7104:7108   */\n      0x1f\n        /* \"#utility.yul\":7096:7102   */\n      dup5\n        /* \"#utility.yul\":7092:7109   */\n      add\n        /* \"#utility.yul\":7088:7115   */\n      slt\n        /* \"#utility.yul\":7078:7200   */\n      tag_475\n      jumpi\n        /* \"#utility.yul\":7119:7198   */\n      tag_476\n      tag_311\n      jump\t// in\n    tag_476:\n        /* \"#utility.yul\":7078:7200   */\n    tag_475:\n        /* \"#utility.yul\":7232:7238   */\n      dup3\n        /* \"#utility.yul\":7219:7239   */\n      calldataload\n        /* \"#utility.yul\":7209:7239   */\n      swap1\n      pop\n        /* \"#utility.yul\":7262:7280   */\n      0xffffffffffffffff\n        /* \"#utility.yul\":7254:7260   */\n      dup2\n        /* \"#utility.yul\":7251:7281   */\n      gt\n        /* \"#utility.yul\":7248:7365   */\n      iszero\n      tag_477\n      jumpi\n        /* \"#utility.yul\":7284:7363   */\n      tag_478\n      tag_328\n      jump\t// in\n    tag_478:\n        /* \"#utility.yul\":7248:7365   */\n    tag_477:\n        /* \"#utility.yul\":7398:7402   */\n      0x20\n        /* \"#utility.yul\":7390:7396   */\n      dup4\n        /* \"#utility.yul\":7386:7403   */\n      add\n        /* \"#utility.yul\":7374:7403   */\n      swap2\n      pop\n        /* \"#utility.yul\":7452:7455   */\n      dup4\n        /* \"#utility.yul\":7444:7448   */\n      0x01\n        /* \"#utility.yul\":7436:7442   */\n      dup3\n        /* \"#utility.yul\":7432:7449   */\n      mul\n        /* \"#utility.yul\":7422:7430   */\n      dup4\n        /* \"#utility.yul\":7418:7450   */\n      add\n        /* \"#utility.yul\":7415:7456   */\n      gt\n        /* \"#utility.yul\":7412:7540   */\n      iszero\n      tag_479\n      jumpi\n        /* \"#utility.yul\":7459:7538   */\n      tag_480\n      tag_329\n      jump\t// in\n    tag_480:\n        /* \"#utility.yul\":7412:7540   */\n    tag_479:\n        /* \"#utility.yul\":6993:7546   */\n      swap3\n      pop\n      swap3\n      swap1\n      pop\n      jump\t// out\n        /* \"#utility.yul\":7552:7674   */\n    tag_331:\n        /* \"#utility.yul\":7625:7649   */\n      tag_482\n        /* \"#utility.yul\":7643:7648   */\n      dup2\n        /* \"#utility.yul\":7625:7649   */\n      tag_326\n      jump\t// in\n    tag_482:\n        /* \"#utility.yul\":7618:7623   */\n      dup2\n        /* \"#utility.yul\":7615:7650   */\n      eq\n        /* \"#utility.yul\":7605:7668   */\n      tag_483\n      jumpi\n        /* \"#utility.yul\":7664:7665   */\n      0x00\n        /* \"#utility.yul\":7661:7662   */\n      0x00\n        /* \"#utility.yul\":7654:7666   */\n      revert\n        /* \"#utility.yul\":7605:7668   */\n    tag_483:\n        /* \"#utility.yul\":7552:7674   */\n      pop\n      jump\t// out\n        /* \"#utility.yul\":7680:7819   */\n    tag_332:\n        /* \"#utility.yul\":7726:7731   */\n      0x00\n        /* \"#utility.yul\":7764:7770   */\n      dup2\n        /* \"#utility.yul\":7751:7771   */\n      calldataload\n        /* \"#utility.yul\":7742:7771   */\n      swap1\n      pop\n        /* \"#utility.yul\":7780:7813   */\n      tag_485\n        /* \"#utility.yul\":7807:7812   */\n      dup2\n        /* \"#utility.yul\":7780:7813   */\n      tag_331\n      jump\t// in\n    tag_485:\n        /* \"#utility.yul\":7680:7819   */\n      swap3\n      swap2\n      pop\n      pop\n      jump\t// out\n        /* \"#utility.yul\":7825:8790   */\n    tag_51:\n        /* \"#utility.yul\":7923:7929   */\n      0x00\n        /* \"#utility.yul\":7931:7937   */\n      0x00\n        /* \"#utility.yul\":7939:7945   */\n      0x00\n        /* \"#utility.yul\":7947:7953   */\n      0x00\n        /* \"#utility.yul\":7955:7961   */\n      0x00\n        /* \"#utility.yul\":8004:8007   */\n      0x80\n        /* \"#utility.yul\":7992:8001   */\n      dup7\n        /* \"#utility.yul\":7983:7990   */\n      dup9\n        /* \"#utility.yul\":7979:8002   */\n      sub\n        /* \"#utility.yul\":7975:8008   */\n      slt\n        /* \"#utility.yul\":7972:8092   */\n      iszero\n      tag_487\n      jumpi\n        /* \"#utility.yul\":8011:8090   */\n      tag_488\n      tag_309\n      jump\t// in\n    tag_488:\n        /* \"#utility.yul\":7972:8092   */\n    tag_487:\n        /* \"#utility.yul\":8131:8132   */\n      0x00\n        /* \"#utility.yul\":8156:8209   */\n      tag_489\n        /* \"#utility.yul\":8201:8208   */\n      dup9\n        /* \"#utility.yul\":8192:8198   */\n      dup3\n        /* \"#utility.yul\":8181:8190   */\n      dup10\n        /* \"#utility.yul\":8177:8199   */\n      add\n        /* \"#utility.yul\":8156:8209   */\n      tag_323\n      jump\t// in\n    tag_489:\n        /* \"#utility.yul\":8146:8209   */\n      swap6\n      pop\n        /* \"#utility.yul\":8102:8219   */\n      pop\n        /* \"#utility.yul\":8286:8288   */\n      0x20\n        /* \"#utility.yul\":8275:8284   */\n      dup7\n        /* \"#utility.yul\":8271:8289   */\n      add\n        /* \"#utility.yul\":8258:8290   */\n      calldataload\n        /* \"#utility.yul\":8317:8335   */\n      0xffffffffffffffff\n        /* \"#utility.yul\":8309:8315   */\n      dup2\n        /* \"#utility.yul\":8306:8336   */\n      gt\n        /* \"#utility.yul\":8303:8420   */\n      iszero\n      tag_490\n      jumpi\n        /* \"#utility.yul\":8339:8418   */\n      tag_491\n      tag_310\n      jump\t// in\n    tag_491:\n        /* \"#utility.yul\":8303:8420   */\n    tag_490:\n        /* \"#utility.yul\":8452:8517   */\n      tag_492\n        /* \"#utility.yul\":8509:8516   */\n      dup9\n        /* \"#utility.yul\":8500:8506   */\n      dup3\n        /* \"#utility.yul\":8489:8498   */\n      dup10\n        /* \"#utility.yul\":8485:8507   */\n      add\n        /* \"#utility.yul\":8452:8517   */\n      tag_330\n      jump\t// in\n    tag_492:\n        /* \"#utility.yul\":8434:8517   */\n      swap5\n      pop\n      swap5\n      pop\n        /* \"#utility.yul\":8229:8527   */\n      pop\n        /* \"#utility.yul\":8566:8568   */\n      0x40\n        /* \"#utility.yul\":8592:8645   */\n      tag_493\n        /* \"#utility.yul\":8637:8644   */\n      dup9\n        /* \"#utility.yul\":8628:8634   */\n      dup3\n        /* \"#utility.yul\":8617:8626   */\n      dup10\n        /* \"#utility.yul\":8613:8635   */\n      add\n        /* \"#utility.yul\":8592:8645   */\n      tag_332\n      jump\t// in\n    tag_493:\n        /* \"#utility.yul\":8582:8645   */\n      swap3\n      pop\n        /* \"#utility.yul\":8537:8655   */\n      pop\n        /* \"#utility.yul\":8694:8696   */\n      0x60\n        /* \"#utility.yul\":8720:8773   */\n      tag_494\n        /* \"#utility.yul\":8765:8772   */\n      dup9\n        /* \"#utility.yul\":8756:8762   */\n      dup3\n        /* \"#utility.yul\":8745:8754   */\n      dup10\n        /* \"#utility.yul\":8741:8763   */\n      add\n        /* \"#utility.yul\":8720:8773   */\n      tag_332\n      jump\t// in\n    tag_494:\n        /* \"#utility.yul\":8710:8773   */\n      swap2\n      pop\n        /* \"#utility.yul\":8665:8783   */\n      pop\n        /* \"#utility.yul\":7825:8790   */\n      swap3\n      swap6\n      pop\n      swap3\n      swap6\n      swap1\n      swap4\n      pop\n      jump\t// out\n        /* \"#utility.yul\":8796:9470   */\n    tag_58:\n        /* \"#utility.yul\":8876:8882   */\n      0x00\n        /* \"#utility.yul\":8884:8890   */\n      0x00\n        /* \"#utility.yul\":8892:8898   */\n      0x00\n        /* \"#utility.yul\":8941:8943   */\n      0x40\n        /* \"#utility.yul\":8929:8938   */\n      dup5\n        /* \"#utility.yul\":8920:8927   */\n      dup7\n        /* \"#utility.yul\":8916:8939   */\n      sub\n        /* \"#utility.yul\":8912:8944   */\n      slt\n        /* \"#utility.yul\":8909:9028   */\n      iszero\n      tag_496\n      jumpi\n        /* \"#utility.yul\":8947:9026   */\n      tag_497\n      tag_309\n      jump\t// in\n    tag_497:\n        /* \"#utility.yul\":8909:9028   */\n    tag_496:\n        /* \"#utility.yul\":9095:9096   */\n      0x00\n        /* \"#utility.yul\":9084:9093   */\n      dup5\n        /* \"#utility.yul\":9080:9097   */\n      add\n        /* \"#utility.yul\":9067:9098   */\n      calldataload\n        /* \"#utility.yul\":9125:9143   */\n      0xffffffffffffffff\n        /* \"#utility.yul\":9117:9123   */\n      dup2\n        /* \"#utility.yul\":9114:9144   */\n      gt\n        /* \"#utility.yul\":9111:9228   */\n      iszero\n      tag_498\n      jumpi\n        /* \"#utility.yul\":9147:9226   */\n      tag_499\n      tag_310\n      jump\t// in\n    tag_499:\n        /* \"#utility.yul\":9111:9228   */\n    tag_498:\n        /* \"#utility.yul\":9260:9325   */\n      tag_500\n        /* \"#utility.yul\":9317:9324   */\n      dup7\n        /* \"#utility.yul\":9308:9314   */\n      dup3\n        /* \"#utility.yul\":9297:9306   */\n      dup8\n        /* \"#utility.yul\":9293:9315   */\n      add\n        /* \"#utility.yul\":9260:9325   */\n      tag_330\n      jump\t// in\n    tag_500:\n        /* \"#utility.yul\":9242:9325   */\n      swap4\n      pop\n      swap4\n      pop\n        /* \"#utility.yul\":9038:9335   */\n      pop\n        /* \"#utility.yul\":9374:9376   */\n      0x20\n        /* \"#utility.yul\":9400:9453   */\n      tag_501\n        /* \"#utility.yul\":9445:9452   */\n      dup7\n        /* \"#utility.yul\":9436:9442   */\n      dup3\n        /* \"#utility.yul\":9425:9434   */\n      dup8\n        /* \"#utility.yul\":9421:9443   */\n      add\n        /* \"#utility.yul\":9400:9453   */\n      tag_332\n      jump\t// in\n    tag_501:\n        /* \"#utility.yul\":9390:9453   */\n      swap2\n      pop\n        /* \"#utility.yul\":9345:9463   */\n      pop\n        /* \"#utility.yul\":8796:9470   */\n      swap3\n      pop\n      swap3\n      pop\n      swap3\n      jump\t// out\n        /* \"#utility.yul\":9476:9536   */\n    tag_333:\n        /* \"#utility.yul\":9504:9507   */\n      0x00\n        /* \"#utility.yul\":9525:9530   */\n      dup2\n        /* \"#utility.yul\":9518:9530   */\n      swap1\n      pop\n        /* \"#utility.yul\":9476:9536   */\n      swap2\n      swap1\n      pop\n      jump\t// out\n        /* \"#utility.yul\":9542:9684   */\n    tag_334:\n        /* \"#utility.yul\":9592:9601   */\n      0x00\n        /* \"#utility.yul\":9625:9678   */\n      tag_504\n        /* \"#utility.yul\":9643:9677   */\n      tag_505\n        /* \"#utility.yul\":9652:9676   */\n      tag_506\n        /* \"#utility.yul\":9670:9675   */\n      dup5\n        /* \"#utility.yul\":9652:9676   */\n      tag_319\n      jump\t// in\n    tag_506:\n        /* \"#utility.yul\":9643:9677   */\n      tag_333\n      jump\t// in\n    tag_505:\n        /* \"#utility.yul\":9625:9678   */\n      tag_319\n      jump\t// in\n    tag_504:\n        /* \"#utility.yul\":9612:9678   */\n      swap1\n      pop\n        /* \"#utility.yul\":9542:9684   */\n      swap2\n      swap1\n      pop\n      jump\t// out\n        /* \"#utility.yul\":9690:9816   */\n    tag_335:\n        /* \"#utility.yul\":9740:9749   */\n      0x00\n        /* \"#utility.yul\":9773:9810   */\n      tag_508\n        /* \"#utility.yul\":9804:9809   */\n      dup3\n        /* \"#utility.yul\":9773:9810   */\n      tag_334\n      jump\t// in\n    tag_508:\n        /* \"#utility.yul\":9760:9810   */\n      swap1\n      pop\n        /* \"#utility.yul\":9690:9816   */\n      swap2\n      swap1\n      pop\n      jump\t// out\n        /* \"#utility.yul\":9822:9963   */\n    tag_336:\n        /* \"#utility.yul\":9887:9896   */\n      0x00\n        /* \"#utility.yul\":9920:9957   */\n      tag_510\n        /* \"#utility.yul\":9951:9956   */\n      dup3\n        /* \"#utility.yul\":9920:9957   */\n      tag_335\n      jump\t// in\n    tag_510:\n        /* \"#utility.yul\":9907:9957   */\n      swap1\n      pop\n        /* \"#utility.yul\":9822:9963   */\n      swap2\n      swap1\n      pop\n      jump\t// out\n        /* \"#utility.yul\":9969:10130   */\n    tag_337:\n        /* \"#utility.yul\":10071:10123   */\n      tag_512\n        /* \"#utility.yul\":10117:10122   */\n      dup2\n        /* \"#utility.yul\":10071:10123   */\n      tag_336\n      jump\t// in\n    tag_512:\n        /* \"#utility.yul\":10066:10069   */\n      dup3\n        /* \"#utility.yul\":10059:10124   */\n      mstore\n        /* \"#utility.yul\":9969:10130   */\n      pop\n      pop\n      jump\t// out\n        /* \"#utility.yul\":10136:10388   */\n    tag_67:\n        /* \"#utility.yul\":10244:10248   */\n      0x00\n        /* \"#utility.yul\":10282:10284   */\n      0x20\n        /* \"#utility.yul\":10271:10280   */\n      dup3\n        /* \"#utility.yul\":10267:10285   */\n      add\n        /* \"#utility.yul\":10259:10285   */\n      swap1\n      pop\n        /* \"#utility.yul\":10295:10381   */\n      tag_514\n        /* \"#utility.yul\":10378:10379   */\n      0x00\n        /* \"#utility.yul\":10367:10376   */\n      dup4\n        /* \"#utility.yul\":10363:10380   */\n      add\n        /* \"#utility.yul\":10354:10360   */\n      dup5\n        /* \"#utility.yul\":10295:10381   */\n      tag_337\n      jump\t// in\n    tag_514:\n        /* \"#utility.yul\":10136:10388   */\n      swap3\n      swap2\n      pop\n      pop\n      jump\t// out\n        /* \"#utility.yul\":10394:10538   */\n    tag_338:\n        /* \"#utility.yul\":10462:10471   */\n      0x00\n        /* \"#utility.yul\":10495:10532   */\n      tag_516\n        /* \"#utility.yul\":10526:10531   */\n      dup3\n        /* \"#utility.yul\":10495:10532   */\n      tag_335\n      jump\t// in\n    tag_516:\n        /* \"#utility.yul\":10482:10532   */\n      swap1\n      pop\n        /* \"#utility.yul\":10394:10538   */\n      swap2\n      swap1\n      pop\n      jump\t// out\n        /* \"#utility.yul\":10544:10711   */\n    tag_339:\n        /* \"#utility.yul\":10649:10704   */\n      tag_518\n        /* \"#utility.yul\":10698:10703   */\n      dup2\n        /* \"#utility.yul\":10649:10704   */\n      tag_338\n      jump\t// in\n    tag_518:\n        /* \"#utility.yul\":10644:10647   */\n      dup3\n        /* \"#utility.yul\":10637:10705   */\n      mstore\n        /* \"#utility.yul\":10544:10711   */\n      pop\n      pop\n      jump\t// out\n        /* \"#utility.yul\":10717:10975   */\n    tag_71:\n        /* \"#utility.yul\":10828:10832   */\n      0x00\n        /* \"#utility.yul\":10866:10868   */\n      0x20\n        /* \"#utility.yul\":10855:10864   */\n      dup3\n        /* \"#utility.yul\":10851:10869   */\n      add\n        /* \"#utility.yul\":10843:10869   */\n      swap1\n      pop\n        /* \"#utility.yul\":10879:10968   */\n      tag_520\n        /* \"#utility.yul\":10965:10966   */\n      0x00\n        /* \"#utility.yul\":10954:10963   */\n      dup4\n        /* \"#utility.yul\":10950:10967   */\n      add\n        /* \"#utility.yul\":10941:10947   */\n      dup5\n        /* \"#utility.yul\":10879:10968   */\n      tag_339\n      jump\t// in\n    tag_520:\n        /* \"#utility.yul\":10717:10975   */\n      swap3\n      swap2\n      pop\n      pop\n      jump\t// out\n        /* \"#utility.yul\":10994:11546   */\n    tag_340:\n        /* \"#utility.yul\":11051:11059   */\n      0x00\n        /* \"#utility.yul\":11061:11067   */\n      0x00\n        /* \"#utility.yul\":11111:11114   */\n      dup4\n        /* \"#utility.yul\":11104:11108   */\n      0x1f\n        /* \"#utility.yul\":11096:11102   */\n      dup5\n        /* \"#utility.yul\":11092:11109   */\n      add\n        /* \"#utility.yul\":11088:11115   */\n      slt\n        /* \"#utility.yul\":11078:11200   */\n      tag_522\n      jumpi\n        /* \"#utility.yul\":11119:11198   */\n      tag_523\n      tag_311\n      jump\t// in\n    tag_523:\n        /* \"#utility.yul\":11078:11200   */\n    tag_522:\n        /* \"#utility.yul\":11232:11238   */\n      dup3\n        /* \"#utility.yul\":11219:11239   */\n      calldataload\n        /* \"#utility.yul\":11209:11239   */\n      swap1\n      pop\n        /* \"#utility.yul\":11262:11280   */\n      0xffffffffffffffff\n        /* \"#utility.yul\":11254:11260   */\n      dup2\n        /* \"#utility.yul\":11251:11281   */\n      gt\n        /* \"#utility.yul\":11248:11365   */\n      iszero\n      tag_524\n      jumpi\n        /* \"#utility.yul\":11284:11363   */\n      tag_525\n      tag_328\n      jump\t// in\n    tag_525:\n        /* \"#utility.yul\":11248:11365   */\n    tag_524:\n        /* \"#utility.yul\":11398:11402   */\n      0x20\n        /* \"#utility.yul\":11390:11396   */\n      dup4\n        /* \"#utility.yul\":11386:11403   */\n      add\n        /* \"#utility.yul\":11374:11403   */\n      swap2\n      pop\n        /* \"#utility.yul\":11452:11455   */\n      dup4\n        /* \"#utility.yul\":11444:11448   */\n      0x01\n        /* \"#utility.yul\":11436:11442   */\n      dup3\n        /* \"#utility.yul\":11432:11449   */\n      mul\n        /* \"#utility.yul\":11422:11430   */\n      dup4\n        /* \"#utility.yul\":11418:11450   */\n      add\n        /* \"#utility.yul\":11415:11456   */\n      gt\n        /* \"#utility.yul\":11412:11540   */\n      iszero\n      tag_526\n      jumpi\n        /* \"#utility.yul\":11459:11538   */\n      tag_527\n      tag_329\n      jump\t// in\n    tag_527:\n        /* \"#utility.yul\":11412:11540   */\n    tag_526:\n        /* \"#utility.yul\":10994:11546   */\n      swap3\n      pop\n      swap3\n      swap1\n      pop\n      jump\t// out\n        /* \"#utility.yul\":11552:12915   */\n    tag_74:\n        /* \"#utility.yul\":11673:11679   */\n      0x00\n        /* \"#utility.yul\":11681:11687   */\n      0x00\n        /* \"#utility.yul\":11689:11695   */\n      0x00\n        /* \"#utility.yul\":11697:11703   */\n      0x00\n        /* \"#utility.yul\":11705:11711   */\n      0x00\n        /* \"#utility.yul\":11713:11719   */\n      0x00\n        /* \"#utility.yul\":11721:11727   */\n      0x00\n        /* \"#utility.yul\":11770:11773   */\n      0x80\n        /* \"#utility.yul\":11758:11767   */\n      dup9\n        /* \"#utility.yul\":11749:11756   */\n      dup11\n        /* \"#utility.yul\":11745:11768   */\n      sub\n        /* \"#utility.yul\":11741:11774   */\n      slt\n        /* \"#utility.yul\":11738:11858   */\n      iszero\n      tag_529\n      jumpi\n        /* \"#utility.yul\":11777:11856   */\n      tag_530\n      tag_309\n      jump\t// in\n    tag_530:\n        /* \"#utility.yul\":11738:11858   */\n    tag_529:\n        /* \"#utility.yul\":11925:11926   */\n      0x00\n        /* \"#utility.yul\":11914:11923   */\n      dup9\n        /* \"#utility.yul\":11910:11927   */\n      add\n        /* \"#utility.yul\":11897:11928   */\n      calldataload\n        /* \"#utility.yul\":11955:11973   */\n      0xffffffffffffffff\n        /* \"#utility.yul\":11947:11953   */\n      dup2\n        /* \"#utility.yul\":11944:11974   */\n      gt\n        /* \"#utility.yul\":11941:12058   */\n      iszero\n      tag_531\n      jumpi\n        /* \"#utility.yul\":11977:12056   */\n      tag_532\n      tag_310\n      jump\t// in\n    tag_532:\n        /* \"#utility.yul\":11941:12058   */\n    tag_531:\n        /* \"#utility.yul\":12090:12154   */\n      tag_533\n        /* \"#utility.yul\":12146:12153   */\n      dup11\n        /* \"#utility.yul\":12137:12143   */\n      dup3\n        /* \"#utility.yul\":12126:12135   */\n      dup12\n        /* \"#utility.yul\":12122:12144   */\n      add\n        /* \"#utility.yul\":12090:12154   */\n      tag_340\n      jump\t// in\n    tag_533:\n        /* \"#utility.yul\":12072:12154   */\n      swap8\n      pop\n      swap8\n      pop\n        /* \"#utility.yul\":11868:12164   */\n      pop\n        /* \"#utility.yul\":12231:12233   */\n      0x20\n        /* \"#utility.yul\":12220:12229   */\n      dup9\n        /* \"#utility.yul\":12216:12234   */\n      add\n        /* \"#utility.yul\":12203:12235   */\n      calldataload\n        /* \"#utility.yul\":12262:12280   */\n      0xffffffffffffffff\n        /* \"#utility.yul\":12254:12260   */\n      dup2\n        /* \"#utility.yul\":12251:12281   */\n      gt\n        /* \"#utility.yul\":12248:12365   */\n      iszero\n      tag_534\n      jumpi\n        /* \"#utility.yul\":12284:12363   */\n      tag_535\n      tag_310\n      jump\t// in\n    tag_535:\n        /* \"#utility.yul\":12248:12365   */\n    tag_534:\n        /* \"#utility.yul\":12397:12462   */\n      tag_536\n        /* \"#utility.yul\":12454:12461   */\n      dup11\n        /* \"#utility.yul\":12445:12451   */\n      dup3\n        /* \"#utility.yul\":12434:12443   */\n      dup12\n        /* \"#utility.yul\":12430:12452   */\n      add\n        /* \"#utility.yul\":12397:12462   */\n      tag_330\n      jump\t// in\n    tag_536:\n        /* \"#utility.yul\":12379:12462   */\n      swap6\n      pop\n      swap6\n      pop\n        /* \"#utility.yul\":12174:12472   */\n      pop\n        /* \"#utility.yul\":12539:12541   */\n      0x40\n        /* \"#utility.yul\":12528:12537   */\n      dup9\n        /* \"#utility.yul\":12524:12542   */\n      add\n        /* \"#utility.yul\":12511:12543   */\n      calldataload\n        /* \"#utility.yul\":12570:12588   */\n      0xffffffffffffffff\n        /* \"#utility.yul\":12562:12568   */\n      dup2\n        /* \"#utility.yul\":12559:12589   */\n      gt\n        /* \"#utility.yul\":12556:12673   */\n      iszero\n      tag_537\n      jumpi\n        /* \"#utility.yul\":12592:12671   */\n      tag_538\n      tag_310\n      jump\t// in\n    tag_538:\n        /* \"#utility.yul\":12556:12673   */\n    tag_537:\n        /* \"#utility.yul\":12705:12770   */\n      tag_539\n        /* \"#utility.yul\":12762:12769   */\n      dup11\n        /* \"#utility.yul\":12753:12759   */\n      dup3\n        /* \"#utility.yul\":12742:12751   */\n      dup12\n        /* \"#utility.yul\":12738:12760   */\n      add\n        /* \"#utility.yul\":12705:12770   */\n      tag_330\n      jump\t// in\n    tag_539:\n        /* \"#utility.yul\":12687:12770   */\n      swap4\n      pop\n      swap4\n      pop\n        /* \"#utility.yul\":12482:12780   */\n      pop\n        /* \"#utility.yul\":12819:12821   */\n      0x60\n        /* \"#utility.yul\":12845:12898   */\n      tag_540\n        /* \"#utility.yul\":12890:12897   */\n      dup11\n        /* \"#utility.yul\":12881:12887   */\n      dup3\n        /* \"#utility.yul\":12870:12879   */\n      dup12\n        /* \"#utility.yul\":12866:12888   */\n      add\n        /* \"#utility.yul\":12845:12898   */\n      tag_332\n      jump\t// in\n    tag_540:\n        /* \"#utility.yul\":12835:12898   */\n      swap2\n      pop\n        /* \"#utility.yul\":12790:12908   */\n      pop\n        /* \"#utility.yul\":11552:12915   */\n      swap3\n      swap6\n      swap9\n      swap2\n      swap5\n      swap8\n      pop\n      swap3\n      swap6\n      pop\n      jump\t// out\n        /* \"#utility.yul\":12921:13450   */\n    tag_78:\n        /* \"#utility.yul\":12992:12998   */\n      0x00\n        /* \"#utility.yul\":13000:13006   */\n      0x00\n        /* \"#utility.yul\":13049:13051   */\n      0x20\n        /* \"#utility.yul\":13037:13046   */\n      dup4\n        /* \"#utility.yul\":13028:13035   */\n      dup6\n        /* \"#utility.yul\":13024:13047   */\n      sub\n        /* \"#utility.yul\":13020:13052   */\n      slt\n        /* \"#utility.yul\":13017:13136   */\n      iszero\n      tag_542\n      jumpi\n        /* \"#utility.yul\":13055:13134   */\n      tag_543\n      tag_309\n      jump\t// in\n    tag_543:\n        /* \"#utility.yul\":13017:13136   */\n    tag_542:\n        /* \"#utility.yul\":13203:13204   */\n      0x00\n        /* \"#utility.yul\":13192:13201   */\n      dup4\n        /* \"#utility.yul\":13188:13205   */\n      add\n        /* \"#utility.yul\":13175:13206   */\n      calldataload\n        /* \"#utility.yul\":13233:13251   */\n      0xffffffffffffffff\n        /* \"#utility.yul\":13225:13231   */\n      dup2\n        /* \"#utility.yul\":13222:13252   */\n      gt\n        /* \"#utility.yul\":13219:13336   */\n      iszero\n      tag_544\n      jumpi\n        /* \"#utility.yul\":13255:13334   */\n      tag_545\n      tag_310\n      jump\t// in\n    tag_545:\n        /* \"#utility.yul\":13219:13336   */\n    tag_544:\n        /* \"#utility.yul\":13368:13433   */\n      tag_546\n        /* \"#utility.yul\":13425:13432   */\n      dup6\n        /* \"#utility.yul\":13416:13422   */\n      dup3\n        /* \"#utility.yul\":13405:13414   */\n      dup7\n        /* \"#utility.yul\":13401:13423   */\n      add\n        /* \"#utility.yul\":13368:13433   */\n      tag_330\n      jump\t// in\n    tag_546:\n        /* \"#utility.yul\":13350:13433   */\n      swap3\n      pop\n      swap3\n      pop\n        /* \"#utility.yul\":13146:13443   */\n      pop\n        /* \"#utility.yul\":12921:13450   */\n      swap3\n      pop\n      swap3\n      swap1\n      pop\n      jump\t// out\n        /* \"#utility.yul\":13456:13636   */\n    tag_341:\n        /* \"#utility.yul\":13504:13581   */\n      0x4e487b7100000000000000000000000000000000000000000000000000000000\n        /* \"#utility.yul\":13501:13502   */\n      0x00\n        /* \"#utility.yul\":13494:13582   */\n      mstore\n        /* \"#utility.yul\":13601:13605   */\n      0x22\n        /* \"#utility.yul\":13598:13599   */\n      0x04\n        /* \"#utility.yul\":13591:13606   */\n      mstore\n        /* \"#utility.yul\":13625:13629   */\n      0x24\n        /* \"#utility.yul\":13622:13623   */\n      0x00\n        /* \"#utility.yul\":13615:13630   */\n      revert\n        /* \"#utility.yul\":13642:13962   */\n    tag_87:\n        /* \"#utility.yul\":13686:13692   */\n      0x00\n        /* \"#utility.yul\":13723:13724   */\n      0x02\n        /* \"#utility.yul\":13717:13721   */\n      dup3\n        /* \"#utility.yul\":13713:13725   */\n      div\n        /* \"#utility.yul\":13703:13725   */\n      swap1\n      pop\n        /* \"#utility.yul\":13770:13771   */\n      0x01\n        /* \"#utility.yul\":13764:13768   */\n      dup3\n        /* \"#utility.yul\":13760:13772   */\n      and\n        /* \"#utility.yul\":13791:13809   */\n      dup1\n        /* \"#utility.yul\":13781:13862   */\n      tag_549\n      jumpi\n        /* \"#utility.yul\":13847:13851   */\n      0x7f\n        /* \"#utility.yul\":13839:13845   */\n      dup3\n        /* \"#utility.yul\":13835:13852   */\n      and\n        /* \"#utility.yul\":13825:13852   */\n      swap2\n      pop\n        /* \"#utility.yul\":13781:13862   */\n    tag_549:\n        /* \"#utility.yul\":13909:13911   */\n      0x20\n        /* \"#utility.yul\":13901:13907   */\n      dup3\n        /* \"#utility.yul\":13898:13912   */\n      lt\n        /* \"#utility.yul\":13878:13896   */\n      dup2\n        /* \"#utility.yul\":13875:13913   */\n      sub\n        /* \"#utility.yul\":13872:13956   */\n      tag_550\n      jumpi\n        /* \"#utility.yul\":13928:13946   */\n      tag_551\n      tag_341\n      jump\t// in\n    tag_551:\n        /* \"#utility.yul\":13872:13956   */\n    tag_550:\n        /* \"#utility.yul\":13693:13962   */\n      pop\n        /* \"#utility.yul\":13642:13962   */\n      swap2\n      swap1\n      pop\n      jump\t// out\n        /* \"#utility.yul\":13968:14116   */\n    tag_342:\n        /* \"#utility.yul\":14070:14081   */\n      0x00\n        /* \"#utility.yul\":14107:14110   */\n      dup2\n        /* \"#utility.yul\":14092:14110   */\n      swap1\n      pop\n        /* \"#utility.yul\":13968:14116   */\n      swap3\n      swap2\n      pop\n      pop\n      jump\t// out\n        /* \"#utility.yul\":14122:14512   */\n    tag_343:\n        /* \"#utility.yul\":14228:14231   */\n      0x00\n        /* \"#utility.yul\":14256:14295   */\n      tag_554\n        /* \"#utility.yul\":14289:14294   */\n      dup3\n        /* \"#utility.yul\":14256:14295   */\n      tag_303\n      jump\t// in\n    tag_554:\n        /* \"#utility.yul\":14311:14400   */\n      tag_555\n        /* \"#utility.yul\":14393:14399   */\n      dup2\n        /* \"#utility.yul\":14388:14391   */\n      dup6\n        /* \"#utility.yul\":14311:14400   */\n      tag_342\n      jump\t// in\n    tag_555:\n        /* \"#utility.yul\":14304:14400   */\n      swap4\n      pop\n        /* \"#utility.yul\":14409:14474   */\n      tag_556\n        /* \"#utility.yul\":14467:14473   */\n      dup2\n        /* \"#utility.yul\":14462:14465   */\n      dup6\n        /* \"#utility.yul\":14455:14459   */\n      0x20\n        /* \"#utility.yul\":14448:14453   */\n      dup7\n        /* \"#utility.yul\":14444:14460   */\n      add\n        /* \"#utility.yul\":14409:14474   */\n      tag_305\n      jump\t// in\n    tag_556:\n        /* \"#utility.yul\":14499:14505   */\n      dup1\n        /* \"#utility.yul\":14494:14497   */\n      dup5\n        /* \"#utility.yul\":14490:14506   */\n      add\n        /* \"#utility.yul\":14483:14506   */\n      swap2\n      pop\n        /* \"#utility.yul\":14232:14512   */\n      pop\n        /* \"#utility.yul\":14122:14512   */\n      swap3\n      swap2\n      pop\n      pop\n      jump\t// out\n        /* \"#utility.yul\":14518:14669   */\n    tag_344:\n        /* \"#utility.yul\":14658:14661   */\n      0x5f00000000000000000000000000000000000000000000000000000000000000\n        /* \"#utility.yul\":14654:14655   */\n      0x00\n        /* \"#utility.yul\":14646:14652   */\n      dup3\n        /* \"#utility.yul\":14642:14656   */\n      add\n        /* \"#utility.yul\":14635:14662   */\n      mstore\n        /* \"#utility.yul\":14518:14669   */\n      pop\n      jump\t// out\n        /* \"#utility.yul\":14675:15075   */\n    tag_345:\n        /* \"#utility.yul\":14835:14838   */\n      0x00\n        /* \"#utility.yul\":14856:14940   */\n      tag_559\n        /* \"#utility.yul\":14938:14939   */\n      0x01\n        /* \"#utility.yul\":14933:14936   */\n      dup4\n        /* \"#utility.yul\":14856:14940   */\n      tag_342\n      jump\t// in\n    tag_559:\n        /* \"#utility.yul\":14849:14940   */\n      swap2\n      pop\n        /* \"#utility.yul\":14949:15042   */\n      tag_560\n        /* \"#utility.yul\":15038:15041   */\n      dup3\n        /* \"#utility.yul\":14949:15042   */\n      tag_344\n      jump\t// in\n    tag_560:\n        /* \"#utility.yul\":15067:15068   */\n      0x01\n        /* \"#utility.yul\":15062:15065   */\n      dup3\n        /* \"#utility.yul\":15058:15069   */\n      add\n        /* \"#utility.yul\":15051:15069   */\n      swap1\n      pop\n        /* \"#utility.yul\":14675:15075   */\n      swap2\n      swap1\n      pop\n      jump\t// out\n        /* \"#utility.yul\":15081:15222   */\n    tag_346:\n        /* \"#utility.yul\":15130:15134   */\n      0x00\n        /* \"#utility.yul\":15153:15156   */\n      dup2\n        /* \"#utility.yul\":15145:15156   */\n      swap1\n      pop\n        /* \"#utility.yul\":15176:15179   */\n      dup2\n        /* \"#utility.yul\":15173:15174   */\n      0x00\n        /* \"#utility.yul\":15166:15180   */\n      mstore\n        /* \"#utility.yul\":15210:15214   */\n      0x20\n        /* \"#utility.yul\":15207:15208   */\n      0x00\n        /* \"#utility.yul\":15197:15215   */\n      keccak256\n        /* \"#utility.yul\":15189:15215   */\n      swap1\n      pop\n        /* \"#utility.yul\":15081:15222   */\n      swap2\n      swap1\n      pop\n      jump\t// out\n        /* \"#utility.yul\":15252:16126   */\n    tag_347:\n        /* \"#utility.yul\":15355:15358   */\n      0x00\n        /* \"#utility.yul\":15392:15397   */\n      dup2\n        /* \"#utility.yul\":15386:15398   */\n      sload\n        /* \"#utility.yul\":15421:15457   */\n      tag_563\n        /* \"#utility.yul\":15447:15456   */\n      dup2\n        /* \"#utility.yul\":15421:15457   */\n      tag_87\n      jump\t// in\n    tag_563:\n        /* \"#utility.yul\":15473:15562   */\n      tag_564\n        /* \"#utility.yul\":15555:15561   */\n      dup2\n        /* \"#utility.yul\":15550:15553   */\n      dup7\n        /* \"#utility.yul\":15473:15562   */\n      tag_342\n      jump\t// in\n    tag_564:\n        /* \"#utility.yul\":15466:15562   */\n      swap5\n      pop\n        /* \"#utility.yul\":15593:15594   */\n      0x01\n        /* \"#utility.yul\":15582:15591   */\n      dup3\n        /* \"#utility.yul\":15578:15595   */\n      and\n        /* \"#utility.yul\":15609:15610   */\n      0x00\n        /* \"#utility.yul\":15604:15770   */\n      dup2\n      eq\n      tag_566\n      jumpi\n        /* \"#utility.yul\":15784:15785   */\n      0x01\n        /* \"#utility.yul\":15779:16120   */\n      dup2\n      eq\n      tag_567\n      jumpi\n        /* \"#utility.yul\":15571:16120   */\n      jump(tag_565)\n        /* \"#utility.yul\":15604:15770   */\n    tag_566:\n        /* \"#utility.yul\":15688:15692   */\n      0xff\n        /* \"#utility.yul\":15684:15693   */\n      not\n        /* \"#utility.yul\":15673:15682   */\n      dup4\n        /* \"#utility.yul\":15669:15694   */\n      and\n        /* \"#utility.yul\":15664:15667   */\n      dup7\n        /* \"#utility.yul\":15657:15695   */\n      mstore\n        /* \"#utility.yul\":15750:15756   */\n      dup2\n        /* \"#utility.yul\":15743:15757   */\n      iszero\n        /* \"#utility.yul\":15736:15758   */\n      iszero\n        /* \"#utility.yul\":15728:15734   */\n      dup3\n        /* \"#utility.yul\":15724:15759   */\n      mul\n        /* \"#utility.yul\":15719:15722   */\n      dup7\n        /* \"#utility.yul\":15715:15760   */\n      add\n        /* \"#utility.yul\":15708:15760   */\n      swap4\n      pop\n        /* \"#utility.yul\":15604:15770   */\n      jump(tag_565)\n        /* \"#utility.yul\":15779:16120   */\n    tag_567:\n        /* \"#utility.yul\":15846:15884   */\n      tag_568\n        /* \"#utility.yul\":15878:15883   */\n      dup6\n        /* \"#utility.yul\":15846:15884   */\n      tag_346\n      jump\t// in\n    tag_568:\n        /* \"#utility.yul\":15906:15907   */\n      0x00\n        /* \"#utility.yul\":15920:16074   */\n    tag_569:\n        /* \"#utility.yul\":15934:15940   */\n      dup4\n        /* \"#utility.yul\":15931:15932   */\n      dup2\n        /* \"#utility.yul\":15928:15941   */\n      lt\n        /* \"#utility.yul\":15920:16074   */\n      iszero\n      tag_571\n      jumpi\n        /* \"#utility.yul\":16008:16015   */\n      dup2\n        /* \"#utility.yul\":16002:16016   */\n      sload\n        /* \"#utility.yul\":15998:15999   */\n      dup2\n        /* \"#utility.yul\":15993:15996   */\n      dup10\n        /* \"#utility.yul\":15989:16000   */\n      add\n        /* \"#utility.yul\":15982:16017   */\n      mstore\n        /* \"#utility.yul\":16058:16059   */\n      0x01\n        /* \"#utility.yul\":16049:16056   */\n      dup3\n        /* \"#utility.yul\":16045:16060   */\n      add\n        /* \"#utility.yul\":16034:16060   */\n      swap2\n      pop\n        /* \"#utility.yul\":15956:15960   */\n      0x20\n        /* \"#utility.yul\":15953:15954   */\n      dup2\n        /* \"#utility.yul\":15949:15961   */\n      add\n        /* \"#utility.yul\":15944:15961   */\n      swap1\n      pop\n        /* \"#utility.yul\":15920:16074   */\n      jump(tag_569)\n    tag_571:\n        /* \"#utility.yul\":16103:16109   */\n      dup4\n        /* \"#utility.yul\":16098:16101   */\n      dup9\n        /* \"#utility.yul\":16094:16110   */\n      add\n        /* \"#utility.yul\":16087:16110   */\n      swap6\n      pop\n        /* \"#utility.yul\":15786:16120   */\n      pop\n      pop\n        /* \"#utility.yul\":15571:16120   */\n    tag_565:\n      pop\n        /* \"#utility.yul\":15359:16126   */\n      pop\n      pop\n        /* \"#utility.yul\":15252:16126   */\n      swap3\n      swap2\n      pop\n      pop\n      jump\t// out\n        /* \"#utility.yul\":16132:16827   */\n    tag_94:\n        /* \"#utility.yul\":16410:16413   */\n      0x00\n        /* \"#utility.yul\":16432:16527   */\n      tag_573\n        /* \"#utility.yul\":16523:16526   */\n      dup3\n        /* \"#utility.yul\":16514:16520   */\n      dup6\n        /* \"#utility.yul\":16432:16527   */\n      tag_343\n      jump\t// in\n    tag_573:\n        /* \"#utility.yul\":16425:16527   */\n      swap2\n      pop\n        /* \"#utility.yul\":16544:16692   */\n      tag_574\n        /* \"#utility.yul\":16688:16691   */\n      dup3\n        /* \"#utility.yul\":16544:16692   */\n      tag_345\n      jump\t// in\n    tag_574:\n        /* \"#utility.yul\":16537:16692   */\n      swap2\n      pop\n        /* \"#utility.yul\":16709:16801   */\n      tag_575\n        /* \"#utility.yul\":16797:16800   */\n      dup3\n        /* \"#utility.yul\":16788:16794   */\n      dup5\n        /* \"#utility.yul\":16709:16801   */\n      tag_347\n      jump\t// in\n    tag_575:\n        /* \"#utility.yul\":16702:16801   */\n      swap2\n      pop\n        /* \"#utility.yul\":16818:16821   */\n      dup2\n        /* \"#utility.yul\":16811:16821   */\n      swap1\n      pop\n        /* \"#utility.yul\":16132:16827   */\n      swap4\n      swap3\n      pop\n      pop\n      pop\n      jump\t// out\n        /* \"#utility.yul\":16833:16999   */\n    tag_348:\n        /* \"#utility.yul\":16973:16991   */\n      0x51696172614d6f6e616441737365747300000000000000000000000000000000\n        /* \"#utility.yul\":16969:16970   */\n      0x00\n        /* \"#utility.yul\":16961:16967   */\n      dup3\n        /* \"#utility.yul\":16957:16971   */\n      add\n        /* \"#utility.yul\":16950:16992   */\n      mstore\n        /* \"#utility.yul\":16833:16999   */\n      pop\n      jump\t// out\n        /* \"#utility.yul\":17005:17371   */\n    tag_349:\n        /* \"#utility.yul\":17147:17150   */\n      0x00\n        /* \"#utility.yul\":17168:17235   */\n      tag_578\n        /* \"#utility.yul\":17232:17234   */\n      0x10\n        /* \"#utility.yul\":17227:17230   */\n      dup4\n        /* \"#utility.yul\":17168:17235   */\n      tag_304\n      jump\t// in\n    tag_578:\n        /* \"#utility.yul\":17161:17235   */\n      swap2\n      pop\n        /* \"#utility.yul\":17244:17337   */\n      tag_579\n        /* \"#utility.yul\":17333:17336   */\n      dup3\n        /* \"#utility.yul\":17244:17337   */\n      tag_348\n      jump\t// in\n    tag_579:\n        /* \"#utility.yul\":17362:17364   */\n      0x20\n        /* \"#utility.yul\":17357:17360   */\n      dup3\n        /* \"#utility.yul\":17353:17365   */\n      add\n        /* \"#utility.yul\":17346:17365   */\n      swap1\n      pop\n        /* \"#utility.yul\":17005:17371   */\n      swap2\n      swap1\n      pop\n      jump\t// out\n        /* \"#utility.yul\":17377:17997   */\n    tag_96:\n        /* \"#utility.yul\":17591:17595   */\n      0x00\n        /* \"#utility.yul\":17629:17631   */\n      0x40\n        /* \"#utility.yul\":17618:17627   */\n      dup3\n        /* \"#utility.yul\":17614:17632   */\n      add\n        /* \"#utility.yul\":17606:17632   */\n      swap1\n      pop\n        /* \"#utility.yul\":17678:17687   */\n      dup2\n        /* \"#utility.yul\":17672:17676   */\n      dup2\n        /* \"#utility.yul\":17668:17688   */\n      sub\n        /* \"#utility.yul\":17664:17665   */\n      0x00\n        /* \"#utility.yul\":17653:17662   */\n      dup4\n        /* \"#utility.yul\":17649:17666   */\n      add\n        /* \"#utility.yul\":17642:17689   */\n      mstore\n        /* \"#utility.yul\":17706:17837   */\n      tag_581\n        /* \"#utility.yul\":17832:17836   */\n      dup2\n        /* \"#utility.yul\":17706:17837   */\n      tag_349\n      jump\t// in\n    tag_581:\n        /* \"#utility.yul\":17698:17837   */\n      swap1\n      pop\n        /* \"#utility.yul\":17884:17893   */\n      dup2\n        /* \"#utility.yul\":17878:17882   */\n      dup2\n        /* \"#utility.yul\":17874:17894   */\n      sub\n        /* \"#utility.yul\":17869:17871   */\n      0x20\n        /* \"#utility.yul\":17858:17867   */\n      dup4\n        /* \"#utility.yul\":17854:17872   */\n      add\n        /* \"#utility.yul\":17847:17895   */\n      mstore\n        /* \"#utility.yul\":17912:17990   */\n      tag_582\n        /* \"#utility.yul\":17985:17989   */\n      dup2\n        /* \"#utility.yul\":17976:17982   */\n      dup5\n        /* \"#utility.yul\":17912:17990   */\n      tag_307\n      jump\t// in\n    tag_582:\n        /* \"#utility.yul\":17904:17990   */\n      swap1\n      pop\n        /* \"#utility.yul\":17377:17997   */\n      swap3\n      swap2\n      pop\n      pop\n      jump\t// out\n        /* \"#utility.yul\":18003:18310   */\n    tag_350:\n        /* \"#utility.yul\":18064:18068   */\n      0x00\n        /* \"#utility.yul\":18154:18172   */\n      0xffffffffffffffff\n        /* \"#utility.yul\":18146:18152   */\n      dup3\n        /* \"#utility.yul\":18143:18173   */\n      gt\n        /* \"#utility.yul\":18140:18196   */\n      iszero\n      tag_584\n      jumpi\n        /* \"#utility.yul\":18176:18194   */\n      tag_585\n      tag_139\n      jump\t// in\n    tag_585:\n        /* \"#utility.yul\":18140:18196   */\n    tag_584:\n        /* \"#utility.yul\":18214:18243   */\n      tag_586\n        /* \"#utility.yul\":18236:18242   */\n      dup3\n        /* \"#utility.yul\":18214:18243   */\n      tag_306\n      jump\t// in\n    tag_586:\n        /* \"#utility.yul\":18206:18243   */\n      swap1\n      pop\n        /* \"#utility.yul\":18298:18302   */\n      0x20\n        /* \"#utility.yul\":18292:18296   */\n      dup2\n        /* \"#utility.yul\":18288:18303   */\n      add\n        /* \"#utility.yul\":18280:18303   */\n      swap1\n      pop\n        /* \"#utility.yul\":18003:18310   */\n      swap2\n      swap1\n      pop\n      jump\t// out\n        /* \"#utility.yul\":18316:18748   */\n    tag_351:\n        /* \"#utility.yul\":18404:18409   */\n      0x00\n        /* \"#utility.yul\":18429:18494   */\n      tag_588\n        /* \"#utility.yul\":18445:18493   */\n      tag_589\n        /* \"#utility.yul\":18486:18492   */\n      dup5\n        /* \"#utility.yul\":18445:18493   */\n      tag_350\n      jump\t// in\n    tag_589:\n        /* \"#utility.yul\":18429:18494   */\n      tag_314\n      jump\t// in\n    tag_588:\n        /* \"#utility.yul\":18420:18494   */\n      swap1\n      pop\n        /* \"#utility.yul\":18517:18523   */\n      dup3\n        /* \"#utility.yul\":18510:18515   */\n      dup2\n        /* \"#utility.yul\":18503:18524   */\n      mstore\n        /* \"#utility.yul\":18555:18559   */\n      0x20\n        /* \"#utility.yul\":18548:18553   */\n      dup2\n        /* \"#utility.yul\":18544:18560   */\n      add\n        /* \"#utility.yul\":18593:18596   */\n      dup5\n        /* \"#utility.yul\":18584:18590   */\n      dup5\n        /* \"#utility.yul\":18579:18582   */\n      dup5\n        /* \"#utility.yul\":18575:18591   */\n      add\n        /* \"#utility.yul\":18572:18597   */\n      gt\n        /* \"#utility.yul\":18569:18681   */\n      iszero\n      tag_590\n      jumpi\n        /* \"#utility.yul\":18600:18679   */\n      tag_591\n      tag_312\n      jump\t// in\n    tag_591:\n        /* \"#utility.yul\":18569:18681   */\n    tag_590:\n        /* \"#utility.yul\":18690:18742   */\n      tag_592\n        /* \"#utility.yul\":18735:18741   */\n      dup5\n        /* \"#utility.yul\":18730:18733   */\n      dup3\n        /* \"#utility.yul\":18725:18728   */\n      dup6\n        /* \"#utility.yul\":18690:18742   */\n      tag_305\n      jump\t// in\n    tag_592:\n        /* \"#utility.yul\":18410:18748   */\n      pop\n        /* \"#utility.yul\":18316:18748   */\n      swap4\n      swap3\n      pop\n      pop\n      pop\n      jump\t// out\n        /* \"#utility.yul\":18767:19120   */\n    tag_352:\n        /* \"#utility.yul\":18833:18838   */\n      0x00\n        /* \"#utility.yul\":18882:18885   */\n      dup3\n        /* \"#utility.yul\":18875:18879   */\n      0x1f\n        /* \"#utility.yul\":18867:18873   */\n      dup4\n        /* \"#utility.yul\":18863:18880   */\n      add\n        /* \"#utility.yul\":18859:18886   */\n      slt\n        /* \"#utility.yul\":18849:18971   */\n      tag_594\n      jumpi\n        /* \"#utility.yul\":18890:18969   */\n      tag_595\n      tag_311\n      jump\t// in\n    tag_595:\n        /* \"#utility.yul\":18849:18971   */\n    tag_594:\n        /* \"#utility.yul\":19000:19006   */\n      dup2\n        /* \"#utility.yul\":18994:19007   */\n      mload\n        /* \"#utility.yul\":19025:19114   */\n      tag_596\n        /* \"#utility.yul\":19110:19113   */\n      dup5\n        /* \"#utility.yul\":19102:19108   */\n      dup3\n        /* \"#utility.yul\":19095:19099   */\n      0x20\n        /* \"#utility.yul\":19087:19093   */\n      dup7\n        /* \"#utility.yul\":19083:19100   */\n      add\n        /* \"#utility.yul\":19025:19114   */\n      tag_351\n      jump\t// in\n    tag_596:\n        /* \"#utility.yul\":19016:19114   */\n      swap2\n      pop\n        /* \"#utility.yul\":18839:19120   */\n      pop\n        /* \"#utility.yul\":18767:19120   */\n      swap3\n      swap2\n      pop\n      pop\n      jump\t// out\n        /* \"#utility.yul\":19126:19648   */\n    tag_100:\n        /* \"#utility.yul\":19205:19211   */\n      0x00\n        /* \"#utility.yul\":19254:19256   */\n      0x20\n        /* \"#utility.yul\":19242:19251   */\n      dup3\n        /* \"#utility.yul\":19233:19240   */\n      dup5\n        /* \"#utility.yul\":19229:19252   */\n      sub\n        /* \"#utility.yul\":19225:19257   */\n      slt\n        /* \"#utility.yul\":19222:19341   */\n      iszero\n      tag_598\n      jumpi\n        /* \"#utility.yul\":19260:19339   */\n      tag_599\n      tag_309\n      jump\t// in\n    tag_599:\n        /* \"#utility.yul\":19222:19341   */\n    tag_598:\n        /* \"#utility.yul\":19401:19402   */\n      0x00\n        /* \"#utility.yul\":19390:19399   */\n      dup3\n        /* \"#utility.yul\":19386:19403   */\n      add\n        /* \"#utility.yul\":19380:19404   */\n      mload\n        /* \"#utility.yul\":19431:19449   */\n      0xffffffffffffffff\n        /* \"#utility.yul\":19423:19429   */\n      dup2\n        /* \"#utility.yul\":19420:19450   */\n      gt\n        /* \"#utility.yul\":19417:19534   */\n      iszero\n      tag_600\n      jumpi\n        /* \"#utility.yul\":19453:19532   */\n      tag_601\n      tag_310\n      jump\t// in\n    tag_601:\n        /* \"#utility.yul\":19417:19534   */\n    tag_600:\n        /* \"#utility.yul\":19558:19631   */\n      tag_602\n        /* \"#utility.yul\":19623:19630   */\n      dup5\n        /* \"#utility.yul\":19614:19620   */\n      dup3\n        /* \"#utility.yul\":19603:19612   */\n      dup6\n        /* \"#utility.yul\":19599:19621   */\n      add\n        /* \"#utility.yul\":19558:19631   */\n      tag_352\n      jump\t// in\n    tag_602:\n        /* \"#utility.yul\":19548:19631   */\n      swap2\n      pop\n        /* \"#utility.yul\":19351:19641   */\n      pop\n        /* \"#utility.yul\":19126:19648   */\n      swap3\n      swap2\n      pop\n      pop\n      jump\t// out\n        /* \"#utility.yul\":19654:19875   */\n    tag_353:\n        /* \"#utility.yul\":19794:19828   */\n      0x5661756c743a204173736574206e6f7420666f756e6420696e20726567697374\n        /* \"#utility.yul\":19790:19791   */\n      0x00\n        /* \"#utility.yul\":19782:19788   */\n      dup3\n        /* \"#utility.yul\":19778:19792   */\n      add\n        /* \"#utility.yul\":19771:19829   */\n      mstore\n        /* \"#utility.yul\":19863:19867   */\n      0x7279000000000000000000000000000000000000000000000000000000000000\n        /* \"#utility.yul\":19858:19860   */\n      0x20\n        /* \"#utility.yul\":19850:19856   */\n      dup3\n        /* \"#utility.yul\":19846:19861   */\n      add\n        /* \"#utility.yul\":19839:19868   */\n      mstore\n        /* \"#utility.yul\":19654:19875   */\n      pop\n      jump\t// out\n        /* \"#utility.yul\":19881:20247   */\n    tag_354:\n        /* \"#utility.yul\":20023:20026   */\n      0x00\n        /* \"#utility.yul\":20044:20111   */\n      tag_605\n        /* \"#utility.yul\":20108:20110   */\n      0x22\n        /* \"#utility.yul\":20103:20106   */\n      dup4\n        /* \"#utility.yul\":20044:20111   */\n      tag_304\n      jump\t// in\n    tag_605:\n        /* \"#utility.yul\":20037:20111   */\n      swap2\n      pop\n        /* \"#utility.yul\":20120:20213   */\n      tag_606\n        /* \"#utility.yul\":20209:20212   */\n      dup3\n        /* \"#utility.yul\":20120:20213   */\n      tag_353\n      jump\t// in\n    tag_606:\n        /* \"#utility.yul\":20238:20240   */\n      0x40\n        /* \"#utility.yul\":20233:20236   */\n      dup3\n        /* \"#utility.yul\":20229:20241   */\n      add\n        /* \"#utility.yul\":20222:20241   */\n      swap1\n      pop\n        /* \"#utility.yul\":19881:20247   */\n      swap2\n      swap1\n      pop\n      jump\t// out\n        /* \"#utility.yul\":20253:20672   */\n    tag_103:\n        /* \"#utility.yul\":20419:20423   */\n      0x00\n        /* \"#utility.yul\":20457:20459   */\n      0x20\n        /* \"#utility.yul\":20446:20455   */\n      dup3\n        /* \"#utility.yul\":20442:20460   */\n      add\n        /* \"#utility.yul\":20434:20460   */\n      swap1\n      pop\n        /* \"#utility.yul\":20506:20515   */\n      dup2\n        /* \"#utility.yul\":20500:20504   */\n      dup2\n        /* \"#utility.yul\":20496:20516   */\n      sub\n        /* \"#utility.yul\":20492:20493   */\n      0x00\n        /* \"#utility.yul\":20481:20490   */\n      dup4\n        /* \"#utility.yul\":20477:20494   */\n      add\n        /* \"#utility.yul\":20470:20517   */\n      mstore\n        /* \"#utility.yul\":20534:20665   */\n      tag_608\n        /* \"#utility.yul\":20660:20664   */\n      dup2\n        /* \"#utility.yul\":20534:20665   */\n      tag_354\n      jump\t// in\n    tag_608:\n        /* \"#utility.yul\":20526:20665   */\n      swap1\n      pop\n        /* \"#utility.yul\":20253:20672   */\n      swap2\n      swap1\n      pop\n      jump\t// out\n        /* \"#utility.yul\":20678:20854   */\n    tag_355:\n        /* \"#utility.yul\":20818:20846   */\n      0x5661756c743a20546f6b656e206e6f7420737570706f72746564000000000000\n        /* \"#utility.yul\":20814:20815   */\n      0x00\n        /* \"#utility.yul\":20806:20812   */\n      dup3\n        /* \"#utility.yul\":20802:20816   */\n      add\n        /* \"#utility.yul\":20795:20847   */\n      mstore\n        /* \"#utility.yul\":20678:20854   */\n      pop\n      jump\t// out\n        /* \"#utility.yul\":20860:21226   */\n    tag_356:\n        /* \"#utility.yul\":21002:21005   */\n      0x00\n        /* \"#utility.yul\":21023:21090   */\n      tag_611\n        /* \"#utility.yul\":21087:21089   */\n      0x1a\n        /* \"#utility.yul\":21082:21085   */\n      dup4\n        /* \"#utility.yul\":21023:21090   */\n      tag_304\n      jump\t// in\n    tag_611:\n        /* \"#utility.yul\":21016:21090   */\n      swap2\n      pop\n        /* \"#utility.yul\":21099:21192   */\n      tag_612\n        /* \"#utility.yul\":21188:21191   */\n      dup3\n        /* \"#utility.yul\":21099:21192   */\n      tag_355\n      jump\t// in\n    tag_612:\n        /* \"#utility.yul\":21217:21219   */\n      0x20\n        /* \"#utility.yul\":21212:21215   */\n      dup3\n        /* \"#utility.yul\":21208:21220   */\n      add\n        /* \"#utility.yul\":21201:21220   */\n      swap1\n      pop\n        /* \"#utility.yul\":20860:21226   */\n      swap2\n      swap1\n      pop\n      jump\t// out\n        /* \"#utility.yul\":21232:21651   */\n    tag_116:\n        /* \"#utility.yul\":21398:21402   */\n      0x00\n        /* \"#utility.yul\":21436:21438   */\n      0x20\n        /* \"#utility.yul\":21425:21434   */\n      dup3\n        /* \"#utility.yul\":21421:21439   */\n      add\n        /* \"#utility.yul\":21413:21439   */\n      swap1\n      pop\n        /* \"#utility.yul\":21485:21494   */\n      dup2\n        /* \"#utility.yul\":21479:21483   */\n      dup2\n        /* \"#utility.yul\":21475:21495   */\n      sub\n        /* \"#utility.yul\":21471:21472   */\n      0x00\n        /* \"#utility.yul\":21460:21469   */\n      dup4\n        /* \"#utility.yul\":21456:21473   */\n      add\n        /* \"#utility.yul\":21449:21496   */\n      mstore\n        /* \"#utility.yul\":21513:21644   */\n      tag_614\n        /* \"#utility.yul\":21639:21643   */\n      dup2\n        /* \"#utility.yul\":21513:21644   */\n      tag_356\n      jump\t// in\n    tag_614:\n        /* \"#utility.yul\":21505:21644   */\n      swap1\n      pop\n        /* \"#utility.yul\":21232:21651   */\n      swap2\n      swap1\n      pop\n      jump\t// out\n        /* \"#utility.yul\":21657:21837   */\n    tag_357:\n        /* \"#utility.yul\":21705:21782   */\n      0x4e487b7100000000000000000000000000000000000000000000000000000000\n        /* \"#utility.yul\":21702:21703   */\n      0x00\n        /* \"#utility.yul\":21695:21783   */\n      mstore\n        /* \"#utility.yul\":21802:21806   */\n      0x11\n        /* \"#utility.yul\":21799:21800   */\n      0x04\n        /* \"#utility.yul\":21792:21807   */\n      mstore\n        /* \"#utility.yul\":21826:21830   */\n      0x24\n        /* \"#utility.yul\":21823:21824   */\n      0x00\n        /* \"#utility.yul\":21816:21831   */\n      revert\n        /* \"#utility.yul\":21843:22037   */\n    tag_123:\n        /* \"#utility.yul\":21883:21887   */\n      0x00\n        /* \"#utility.yul\":21903:21923   */\n      tag_617\n        /* \"#utility.yul\":21921:21922   */\n      dup3\n        /* \"#utility.yul\":21903:21923   */\n      tag_326\n      jump\t// in\n    tag_617:\n        /* \"#utility.yul\":21898:21923   */\n      swap2\n      pop\n        /* \"#utility.yul\":21937:21957   */\n      tag_618\n        /* \"#utility.yul\":21955:21956   */\n      dup4\n        /* \"#utility.yul\":21937:21957   */\n      tag_326\n      jump\t// in\n    tag_618:\n        /* \"#utility.yul\":21932:21957   */\n      swap3\n      pop\n        /* \"#utility.yul\":21981:21982   */\n      dup3\n        /* \"#utility.yul\":21978:21979   */\n      dup3\n        /* \"#utility.yul\":21974:21983   */\n      sub\n        /* \"#utility.yul\":21966:21983   */\n      swap1\n      pop\n        /* \"#utility.yul\":22005:22006   */\n      dup2\n        /* \"#utility.yul\":21999:22003   */\n      dup2\n        /* \"#utility.yul\":21996:22007   */\n      gt\n        /* \"#utility.yul\":21993:22030   */\n      iszero\n      tag_619\n      jumpi\n        /* \"#utility.yul\":22010:22028   */\n      tag_620\n      tag_357\n      jump\t// in\n    tag_620:\n        /* \"#utility.yul\":21993:22030   */\n    tag_619:\n        /* \"#utility.yul\":21843:22037   */\n      swap3\n      swap2\n      pop\n      pop\n      jump\t// out\n        /* \"#utility.yul\":22043:22453   */\n    tag_125:\n        /* \"#utility.yul\":22083:22090   */\n      0x00\n        /* \"#utility.yul\":22106:22126   */\n      tag_622\n        /* \"#utility.yul\":22124:22125   */\n      dup3\n        /* \"#utility.yul\":22106:22126   */\n      tag_326\n      jump\t// in\n    tag_622:\n        /* \"#utility.yul\":22101:22126   */\n      swap2\n      pop\n        /* \"#utility.yul\":22140:22160   */\n      tag_623\n        /* \"#utility.yul\":22158:22159   */\n      dup4\n        /* \"#utility.yul\":22140:22160   */\n      tag_326\n      jump\t// in\n    tag_623:\n        /* \"#utility.yul\":22135:22160   */\n      swap3\n      pop\n        /* \"#utility.yul\":22195:22196   */\n      dup3\n        /* \"#utility.yul\":22192:22193   */\n      dup3\n        /* \"#utility.yul\":22188:22197   */\n      mul\n        /* \"#utility.yul\":22217:22247   */\n      tag_624\n        /* \"#utility.yul\":22235:22246   */\n      dup2\n        /* \"#utility.yul\":22217:22247   */\n      tag_326\n      jump\t// in\n    tag_624:\n        /* \"#utility.yul\":22206:22247   */\n      swap2\n      pop\n        /* \"#utility.yul\":22396:22397   */\n      dup3\n        /* \"#utility.yul\":22387:22394   */\n      dup3\n        /* \"#utility.yul\":22383:22398   */\n      div\n        /* \"#utility.yul\":22380:22381   */\n      dup5\n        /* \"#utility.yul\":22377:22399   */\n      eq\n        /* \"#utility.yul\":22357:22358   */\n      dup4\n        /* \"#utility.yul\":22350:22359   */\n      iszero\n        /* \"#utility.yul\":22330:22413   */\n      or\n        /* \"#utility.yul\":22307:22446   */\n      tag_625\n      jumpi\n        /* \"#utility.yul\":22426:22444   */\n      tag_626\n      tag_357\n      jump\t// in\n    tag_626:\n        /* \"#utility.yul\":22307:22446   */\n    tag_625:\n        /* \"#utility.yul\":22091:22453   */\n      pop\n        /* \"#utility.yul\":22043:22453   */\n      swap3\n      swap2\n      pop\n      pop\n      jump\t// out\n        /* \"#utility.yul\":22459:22639   */\n    tag_358:\n        /* \"#utility.yul\":22507:22584   */\n      0x4e487b7100000000000000000000000000000000000000000000000000000000\n        /* \"#utility.yul\":22504:22505   */\n      0x00\n        /* \"#utility.yul\":22497:22585   */\n      mstore\n        /* \"#utility.yul\":22604:22608   */\n      0x12\n        /* \"#utility.yul\":22601:22602   */\n      0x04\n        /* \"#utility.yul\":22594:22609   */\n      mstore\n        /* \"#utility.yul\":22628:22632   */\n      0x24\n        /* \"#utility.yul\":22625:22626   */\n      0x00\n        /* \"#utility.yul\":22618:22633   */\n      revert\n        /* \"#utility.yul\":22645:22830   */\n    tag_128:\n        /* \"#utility.yul\":22685:22686   */\n      0x00\n        /* \"#utility.yul\":22702:22722   */\n      tag_629\n        /* \"#utility.yul\":22720:22721   */\n      dup3\n        /* \"#utility.yul\":22702:22722   */\n      tag_326\n      jump\t// in\n    tag_629:\n        /* \"#utility.yul\":22697:22722   */\n      swap2\n      pop\n        /* \"#utility.yul\":22736:22756   */\n      tag_630\n        /* \"#utility.yul\":22754:22755   */\n      dup4\n        /* \"#utility.yul\":22736:22756   */\n      tag_326\n      jump\t// in\n    tag_630:\n        /* \"#utility.yul\":22731:22756   */\n      swap3\n      pop\n        /* \"#utility.yul\":22775:22776   */\n      dup3\n        /* \"#utility.yul\":22765:22800   */\n      tag_631\n      jumpi\n        /* \"#utility.yul\":22780:22798   */\n      tag_632\n      tag_358\n      jump\t// in\n    tag_632:\n        /* \"#utility.yul\":22765:22800   */\n    tag_631:\n        /* \"#utility.yul\":22822:22823   */\n      dup3\n        /* \"#utility.yul\":22819:22820   */\n      dup3\n        /* \"#utility.yul\":22815:22824   */\n      div\n        /* \"#utility.yul\":22810:22824   */\n      swap1\n      pop\n        /* \"#utility.yul\":22645:22830   */\n      swap3\n      swap2\n      pop\n      pop\n      jump\t// out\n        /* \"#utility.yul\":22836:23027   */\n    tag_130:\n        /* \"#utility.yul\":22876:22879   */\n      0x00\n        /* \"#utility.yul\":22895:22915   */\n      tag_634\n        /* \"#utility.yul\":22913:22914   */\n      dup3\n        /* \"#utility.yul\":22895:22915   */\n      tag_326\n      jump\t// in\n    tag_634:\n        /* \"#utility.yul\":22890:22915   */\n      swap2\n      pop\n        /* \"#utility.yul\":22929:22949   */\n      tag_635\n        /* \"#utility.yul\":22947:22948   */\n      dup4\n        /* \"#utility.yul\":22929:22949   */\n      tag_326\n      jump\t// in\n    tag_635:\n        /* \"#utility.yul\":22924:22949   */\n      swap3\n      pop\n        /* \"#utility.yul\":22972:22973   */\n      dup3\n        /* \"#utility.yul\":22969:22970   */\n      dup3\n        /* \"#utility.yul\":22965:22974   */\n      add\n        /* \"#utility.yul\":22958:22974   */\n      swap1\n      pop\n        /* \"#utility.yul\":22993:22996   */\n      dup1\n        /* \"#utility.yul\":22990:22991   */\n      dup3\n        /* \"#utility.yul\":22987:22997   */\n      gt\n        /* \"#utility.yul\":22984:23020   */\n      iszero\n      tag_636\n      jumpi\n        /* \"#utility.yul\":23000:23018   */\n      tag_637\n      tag_357\n      jump\t// in\n    tag_637:\n        /* \"#utility.yul\":22984:23020   */\n    tag_636:\n        /* \"#utility.yul\":22836:23027   */\n      swap3\n      swap2\n      pop\n      pop\n      jump\t// out\n        /* \"#utility.yul\":23033:23210   */\n    tag_359:\n        /* \"#utility.yul\":23173:23202   */\n      0x5661756c743a20496e73756666696369656e742062616c616e63650000000000\n        /* \"#utility.yul\":23169:23170   */\n      0x00\n        /* \"#utility.yul\":23161:23167   */\n      dup3\n        /* \"#utility.yul\":23157:23171   */\n      add\n        /* \"#utility.yul\":23150:23203   */\n      mstore\n        /* \"#utility.yul\":23033:23210   */\n      pop\n      jump\t// out\n        /* \"#utility.yul\":23216:23582   */\n    tag_360:\n        /* \"#utility.yul\":23358:23361   */\n      0x00\n        /* \"#utility.yul\":23379:23446   */\n      tag_640\n        /* \"#utility.yul\":23443:23445   */\n      0x1b\n        /* \"#utility.yul\":23438:23441   */\n      dup4\n        /* \"#utility.yul\":23379:23446   */\n      tag_304\n      jump\t// in\n    tag_640:\n        /* \"#utility.yul\":23372:23446   */\n      swap2\n      pop\n        /* \"#utility.yul\":23455:23548   */\n      tag_641\n        /* \"#utility.yul\":23544:23547   */\n      dup3\n        /* \"#utility.yul\":23455:23548   */\n      tag_359\n      jump\t// in\n    tag_641:\n        /* \"#utility.yul\":23573:23575   */\n      0x20\n        /* \"#utility.yul\":23568:23571   */\n      dup3\n        /* \"#utility.yul\":23564:23576   */\n      add\n        /* \"#utility.yul\":23557:23576   */\n      swap1\n      pop\n        /* \"#utility.yul\":23216:23582   */\n      swap2\n      swap1\n      pop\n      jump\t// out\n        /* \"#utility.yul\":23588:24007   */\n    tag_133:\n        /* \"#utility.yul\":23754:23758   */\n      0x00\n        /* \"#utility.yul\":23792:23794   */\n      0x20\n        /* \"#utility.yul\":23781:23790   */\n      dup3\n        /* \"#utility.yul\":23777:23795   */\n      add\n        /* \"#utility.yul\":23769:23795   */\n      swap1\n      pop\n        /* \"#utility.yul\":23841:23850   */\n      dup2\n        /* \"#utility.yul\":23835:23839   */\n      dup2\n        /* \"#utility.yul\":23831:23851   */\n      sub\n        /* \"#utility.yul\":23827:23828   */\n      0x00\n        /* \"#utility.yul\":23816:23825   */\n      dup4\n        /* \"#utility.yul\":23812:23829   */\n      add\n        /* \"#utility.yul\":23805:23852   */\n      mstore\n        /* \"#utility.yul\":23869:24000   */\n      tag_643\n        /* \"#utility.yul\":23995:23999   */\n      dup2\n        /* \"#utility.yul\":23869:24000   */\n      tag_360\n      jump\t// in\n    tag_643:\n        /* \"#utility.yul\":23861:24000   */\n      swap1\n      pop\n        /* \"#utility.yul\":23588:24007   */\n      swap2\n      swap1\n      pop\n      jump\t// out\n        /* \"#utility.yul\":24013:24193   */\n    tag_147:\n        /* \"#utility.yul\":24061:24138   */\n      0x4e487b7100000000000000000000000000000000000000000000000000000000\n        /* \"#utility.yul\":24058:24059   */\n      0x00\n        /* \"#utility.yul\":24051:24139   */\n      mstore\n        /* \"#utility.yul\":24158:24162   */\n      0x32\n        /* \"#utility.yul\":24155:24156   */\n      0x04\n        /* \"#utility.yul\":24148:24163   */\n      mstore\n        /* \"#utility.yul\":24182:24186   */\n      0x24\n        /* \"#utility.yul\":24179:24180   */\n      0x00\n        /* \"#utility.yul\":24172:24187   */\n      revert\n        /* \"#utility.yul\":24223:24540   */\n    tag_361:\n        /* \"#utility.yul\":24321:24324   */\n      0x00\n        /* \"#utility.yul\":24342:24413   */\n      tag_646\n        /* \"#utility.yul\":24406:24412   */\n      dup4\n        /* \"#utility.yul\":24401:24404   */\n      dup6\n        /* \"#utility.yul\":24342:24413   */\n      tag_304\n      jump\t// in\n    tag_646:\n        /* \"#utility.yul\":24335:24413   */\n      swap4\n      pop\n        /* \"#utility.yul\":24423:24479   */\n      tag_647\n        /* \"#utility.yul\":24472:24478   */\n      dup4\n        /* \"#utility.yul\":24467:24470   */\n      dup6\n        /* \"#utility.yul\":24460:24465   */\n      dup5\n        /* \"#utility.yul\":24423:24479   */\n      tag_316\n      jump\t// in\n    tag_647:\n        /* \"#utility.yul\":24504:24533   */\n      tag_648\n        /* \"#utility.yul\":24526:24532   */\n      dup4\n        /* \"#utility.yul\":24504:24533   */\n      tag_306\n      jump\t// in\n    tag_648:\n        /* \"#utility.yul\":24499:24502   */\n      dup5\n        /* \"#utility.yul\":24495:24534   */\n      add\n        /* \"#utility.yul\":24488:24534   */\n      swap1\n      pop\n        /* \"#utility.yul\":24223:24540   */\n      swap4\n      swap3\n      pop\n      pop\n      pop\n      jump\t// out\n        /* \"#utility.yul\":24546:24879   */\n    tag_152:\n        /* \"#utility.yul\":24669:24673   */\n      0x00\n        /* \"#utility.yul\":24707:24709   */\n      0x20\n        /* \"#utility.yul\":24696:24705   */\n      dup3\n        /* \"#utility.yul\":24692:24710   */\n      add\n        /* \"#utility.yul\":24684:24710   */\n      swap1\n      pop\n        /* \"#utility.yul\":24756:24765   */\n      dup2\n        /* \"#utility.yul\":24750:24754   */\n      dup2\n        /* \"#utility.yul\":24746:24766   */\n      sub\n        /* \"#utility.yul\":24742:24743   */\n      0x00\n        /* \"#utility.yul\":24731:24740   */\n      dup4\n        /* \"#utility.yul\":24727:24744   */\n      add\n        /* \"#utility.yul\":24720:24767   */\n      mstore\n        /* \"#utility.yul\":24784:24872   */\n      tag_650\n        /* \"#utility.yul\":24867:24871   */\n      dup2\n        /* \"#utility.yul\":24858:24864   */\n      dup5\n        /* \"#utility.yul\":24850:24856   */\n      dup7\n        /* \"#utility.yul\":24784:24872   */\n      tag_361\n      jump\t// in\n    tag_650:\n        /* \"#utility.yul\":24776:24872   */\n      swap1\n      pop\n        /* \"#utility.yul\":24546:24879   */\n      swap4\n      swap3\n      pop\n      pop\n      pop\n      jump\t// out\n        /* \"#utility.yul\":24909:25740   */\n    tag_362:\n        /* \"#utility.yul\":24994:24997   */\n      0x00\n        /* \"#utility.yul\":25031:25036   */\n      dup2\n        /* \"#utility.yul\":25025:25037   */\n      sload\n        /* \"#utility.yul\":25060:25096   */\n      tag_652\n        /* \"#utility.yul\":25086:25095   */\n      dup2\n        /* \"#utility.yul\":25060:25096   */\n      tag_87\n      jump\t// in\n    tag_652:\n        /* \"#utility.yul\":25112:25183   */\n      tag_653\n        /* \"#utility.yul\":25176:25182   */\n      dup2\n        /* \"#utility.yul\":25171:25174   */\n      dup7\n        /* \"#utility.yul\":25112:25183   */\n      tag_304\n      jump\t// in\n    tag_653:\n        /* \"#utility.yul\":25105:25183   */\n      swap5\n      pop\n        /* \"#utility.yul\":25214:25215   */\n      0x01\n        /* \"#utility.yul\":25203:25212   */\n      dup3\n        /* \"#utility.yul\":25199:25216   */\n      and\n        /* \"#utility.yul\":25230:25231   */\n      0x00\n        /* \"#utility.yul\":25225:25389   */\n      dup2\n      eq\n      tag_655\n      jumpi\n        /* \"#utility.yul\":25403:25404   */\n      0x01\n        /* \"#utility.yul\":25398:25734   */\n      dup2\n      eq\n      tag_656\n      jumpi\n        /* \"#utility.yul\":25192:25734   */\n      jump(tag_654)\n        /* \"#utility.yul\":25225:25389   */\n    tag_655:\n        /* \"#utility.yul\":25309:25313   */\n      0xff\n        /* \"#utility.yul\":25305:25314   */\n      not\n        /* \"#utility.yul\":25294:25303   */\n      dup4\n        /* \"#utility.yul\":25290:25315   */\n      and\n        /* \"#utility.yul\":25285:25288   */\n      dup7\n        /* \"#utility.yul\":25278:25316   */\n      mstore\n        /* \"#utility.yul\":25369:25375   */\n      dup2\n        /* \"#utility.yul\":25362:25376   */\n      iszero\n        /* \"#utility.yul\":25355:25377   */\n      iszero\n        /* \"#utility.yul\":25349:25353   */\n      0x20\n        /* \"#utility.yul\":25345:25378   */\n      mul\n        /* \"#utility.yul\":25340:25343   */\n      dup7\n        /* \"#utility.yul\":25336:25379   */\n      add\n        /* \"#utility.yul\":25329:25379   */\n      swap4\n      pop\n        /* \"#utility.yul\":25225:25389   */\n      jump(tag_654)\n        /* \"#utility.yul\":25398:25734   */\n    tag_656:\n        /* \"#utility.yul\":25465:25503   */\n      tag_657\n        /* \"#utility.yul\":25497:25502   */\n      dup6\n        /* \"#utility.yul\":25465:25503   */\n      tag_346\n      jump\t// in\n    tag_657:\n        /* \"#utility.yul\":25525:25526   */\n      0x00\n        /* \"#utility.yul\":25539:25693   */\n    tag_658:\n        /* \"#utility.yul\":25553:25559   */\n      dup4\n        /* \"#utility.yul\":25550:25551   */\n      dup2\n        /* \"#utility.yul\":25547:25560   */\n      lt\n        /* \"#utility.yul\":25539:25693   */\n      iszero\n      tag_660\n      jumpi\n        /* \"#utility.yul\":25627:25634   */\n      dup2\n        /* \"#utility.yul\":25621:25635   */\n      sload\n        /* \"#utility.yul\":25617:25618   */\n      dup2\n        /* \"#utility.yul\":25612:25615   */\n      dup10\n        /* \"#utility.yul\":25608:25619   */\n      add\n        /* \"#utility.yul\":25601:25636   */\n      mstore\n        /* \"#utility.yul\":25677:25678   */\n      0x01\n        /* \"#utility.yul\":25668:25675   */\n      dup3\n        /* \"#utility.yul\":25664:25679   */\n      add\n        /* \"#utility.yul\":25653:25679   */\n      swap2\n      pop\n        /* \"#utility.yul\":25575:25579   */\n      0x20\n        /* \"#utility.yul\":25572:25573   */\n      dup2\n        /* \"#utility.yul\":25568:25580   */\n      add\n        /* \"#utility.yul\":25563:25580   */\n      swap1\n      pop\n        /* \"#utility.yul\":25539:25693   */\n      jump(tag_658)\n    tag_660:\n        /* \"#utility.yul\":25722:25723   */\n      dup1\n        /* \"#utility.yul\":25717:25720   */\n      dup9\n        /* \"#utility.yul\":25713:25724   */\n      add\n        /* \"#utility.yul\":25706:25724   */\n      swap6\n      pop\n        /* \"#utility.yul\":25405:25734   */\n      pop\n      pop\n        /* \"#utility.yul\":25192:25734   */\n    tag_654:\n      pop\n        /* \"#utility.yul\":24998:25740   */\n      pop\n      pop\n        /* \"#utility.yul\":24909:25740   */\n      swap3\n      swap2\n      pop\n      pop\n      jump\t// out\n        /* \"#utility.yul\":25746:26053   */\n    tag_156:\n        /* \"#utility.yul\":25856:25860   */\n      0x00\n        /* \"#utility.yul\":25894:25896   */\n      0x20\n        /* \"#utility.yul\":25883:25892   */\n      dup3\n        /* \"#utility.yul\":25879:25897   */\n      add\n        /* \"#utility.yul\":25871:25897   */\n      swap1\n      pop\n        /* \"#utility.yul\":25943:25952   */\n      dup2\n        /* \"#utility.yul\":25937:25941   */\n      dup2\n        /* \"#utility.yul\":25933:25953   */\n      sub\n        /* \"#utility.yul\":25929:25930   */\n      0x00\n        /* \"#utility.yul\":25918:25927   */\n      dup4\n        /* \"#utility.yul\":25914:25931   */\n      add\n        /* \"#utility.yul\":25907:25954   */\n      mstore\n        /* \"#utility.yul\":25971:26046   */\n      tag_662\n        /* \"#utility.yul\":26041:26045   */\n      dup2\n        /* \"#utility.yul\":26032:26038   */\n      dup5\n        /* \"#utility.yul\":25971:26046   */\n      tag_362\n      jump\t// in\n    tag_662:\n        /* \"#utility.yul\":25963:26046   */\n      swap1\n      pop\n        /* \"#utility.yul\":25746:26053   */\n      swap3\n      swap2\n      pop\n      pop\n      jump\t// out\n        /* \"#utility.yul\":26059:26224   */\n    tag_363:\n        /* \"#utility.yul\":26199:26216   */\n      0x4469726563742057697468647261770000000000000000000000000000000000\n        /* \"#utility.yul\":26195:26196   */\n      0x00\n        /* \"#utility.yul\":26187:26193   */\n      dup3\n        /* \"#utility.yul\":26183:26197   */\n      add\n        /* \"#utility.yul\":26176:26217   */\n      mstore\n        /* \"#utility.yul\":26059:26224   */\n      pop\n      jump\t// out\n        /* \"#utility.yul\":26230:26596   */\n    tag_364:\n        /* \"#utility.yul\":26372:26375   */\n      0x00\n        /* \"#utility.yul\":26393:26460   */\n      tag_665\n        /* \"#utility.yul\":26457:26459   */\n      0x0f\n        /* \"#utility.yul\":26452:26455   */\n      dup4\n        /* \"#utility.yul\":26393:26460   */\n      tag_304\n      jump\t// in\n    tag_665:\n        /* \"#utility.yul\":26386:26460   */\n      swap2\n      pop\n        /* \"#utility.yul\":26469:26562   */\n      tag_666\n        /* \"#utility.yul\":26558:26561   */\n      dup3\n        /* \"#utility.yul\":26469:26562   */\n      tag_363\n      jump\t// in\n    tag_666:\n        /* \"#utility.yul\":26587:26589   */\n      0x20\n        /* \"#utility.yul\":26582:26585   */\n      dup3\n        /* \"#utility.yul\":26578:26590   */\n      add\n        /* \"#utility.yul\":26571:26590   */\n      swap1\n      pop\n        /* \"#utility.yul\":26230:26596   */\n      swap2\n      swap1\n      pop\n      jump\t// out\n        /* \"#utility.yul\":26602:26737   */\n    tag_365:\n        /* \"#utility.yul\":26690:26696   */\n      0x00\n        /* \"#utility.yul\":26724:26729   */\n      dup2\n        /* \"#utility.yul\":26718:26730   */\n      mload\n        /* \"#utility.yul\":26708:26730   */\n      swap1\n      pop\n        /* \"#utility.yul\":26602:26737   */\n      swap2\n      swap1\n      pop\n      jump\t// out\n        /* \"#utility.yul\":26743:26948   */\n    tag_366:\n        /* \"#utility.yul\":26863:26874   */\n      0x00\n        /* \"#utility.yul\":26897:26903   */\n      dup3\n        /* \"#utility.yul\":26892:26895   */\n      dup3\n        /* \"#utility.yul\":26885:26904   */\n      mstore\n        /* \"#utility.yul\":26937:26941   */\n      0x20\n        /* \"#utility.yul\":26932:26935   */\n      dup3\n        /* \"#utility.yul\":26928:26942   */\n      add\n        /* \"#utility.yul\":26913:26942   */\n      swap1\n      pop\n        /* \"#utility.yul\":26743:26948   */\n      swap3\n      swap2\n      pop\n      pop\n      jump\t// out\n        /* \"#utility.yul\":26954:27107   */\n    tag_367:\n        /* \"#utility.yul\":27042:27046   */\n      0x00\n        /* \"#utility.yul\":27065:27068   */\n      dup2\n        /* \"#utility.yul\":27057:27068   */\n      swap1\n      pop\n        /* \"#utility.yul\":27095:27099   */\n      0x20\n        /* \"#utility.yul\":27090:27093   */\n      dup3\n        /* \"#utility.yul\":27086:27100   */\n      add\n        /* \"#utility.yul\":27078:27100   */\n      swap1\n      pop\n        /* \"#utility.yul\":26954:27107   */\n      swap2\n      swap1\n      pop\n      jump\t// out\n        /* \"#utility.yul\":27113:27272   */\n    tag_368:\n        /* \"#utility.yul\":27187:27198   */\n      0x00\n        /* \"#utility.yul\":27221:27227   */\n      dup3\n        /* \"#utility.yul\":27216:27219   */\n      dup3\n        /* \"#utility.yul\":27209:27228   */\n      mstore\n        /* \"#utility.yul\":27261:27265   */\n      0x20\n        /* \"#utility.yul\":27256:27259   */\n      dup3\n        /* \"#utility.yul\":27252:27266   */\n      add\n        /* \"#utility.yul\":27237:27266   */\n      swap1\n      pop\n        /* \"#utility.yul\":27113:27272   */\n      swap3\n      swap2\n      pop\n      pop\n      jump\t// out\n        /* \"#utility.yul\":27278:27635   */\n    tag_369:\n        /* \"#utility.yul\":27356:27359   */\n      0x00\n        /* \"#utility.yul\":27384:27423   */\n      tag_672\n        /* \"#utility.yul\":27417:27422   */\n      dup3\n        /* \"#utility.yul\":27384:27423   */\n      tag_303\n      jump\t// in\n    tag_672:\n        /* \"#utility.yul\":27439:27500   */\n      tag_673\n        /* \"#utility.yul\":27493:27499   */\n      dup2\n        /* \"#utility.yul\":27488:27491   */\n      dup6\n        /* \"#utility.yul\":27439:27500   */\n      tag_368\n      jump\t// in\n    tag_673:\n        /* \"#utility.yul\":27432:27500   */\n      swap4\n      pop\n        /* \"#utility.yul\":27509:27574   */\n      tag_674\n        /* \"#utility.yul\":27567:27573   */\n      dup2\n        /* \"#utility.yul\":27562:27565   */\n      dup6\n        /* \"#utility.yul\":27555:27559   */\n      0x20\n        /* \"#utility.yul\":27548:27553   */\n      dup7\n        /* \"#utility.yul\":27544:27560   */\n      add\n        /* \"#utility.yul\":27509:27574   */\n      tag_305\n      jump\t// in\n    tag_674:\n        /* \"#utility.yul\":27599:27628   */\n      tag_675\n        /* \"#utility.yul\":27621:27627   */\n      dup2\n        /* \"#utility.yul\":27599:27628   */\n      tag_306\n      jump\t// in\n    tag_675:\n        /* \"#utility.yul\":27594:27597   */\n      dup5\n        /* \"#utility.yul\":27590:27629   */\n      add\n        /* \"#utility.yul\":27583:27629   */\n      swap2\n      pop\n        /* \"#utility.yul\":27360:27635   */\n      pop\n        /* \"#utility.yul\":27278:27635   */\n      swap3\n      swap2\n      pop\n      pop\n      jump\t// out\n        /* \"#utility.yul\":27641:27739   */\n    tag_370:\n        /* \"#utility.yul\":27692:27698   */\n      0x00\n        /* \"#utility.yul\":27726:27731   */\n      dup2\n        /* \"#utility.yul\":27720:27732   */\n      mload\n        /* \"#utility.yul\":27710:27732   */\n      swap1\n      pop\n        /* \"#utility.yul\":27641:27739   */\n      swap2\n      swap1\n      pop\n      jump\t// out\n        /* \"#utility.yul\":27745:27903   */\n    tag_371:\n        /* \"#utility.yul\":27818:27829   */\n      0x00\n        /* \"#utility.yul\":27852:27858   */\n      dup3\n        /* \"#utility.yul\":27847:27850   */\n      dup3\n        /* \"#utility.yul\":27840:27859   */\n      mstore\n        /* \"#utility.yul\":27892:27896   */\n      0x20\n        /* \"#utility.yul\":27887:27890   */\n      dup3\n        /* \"#utility.yul\":27883:27897   */\n      add\n        /* \"#utility.yul\":27868:27897   */\n      swap1\n      pop\n        /* \"#utility.yul\":27745:27903   */\n      swap3\n      swap2\n      pop\n      pop\n      jump\t// out\n        /* \"#utility.yul\":27909:28262   */\n    tag_372:\n        /* \"#utility.yul\":27985:27988   */\n      0x00\n        /* \"#utility.yul\":28013:28051   */\n      tag_679\n        /* \"#utility.yul\":28045:28050   */\n      dup3\n        /* \"#utility.yul\":28013:28051   */\n      tag_370\n      jump\t// in\n    tag_679:\n        /* \"#utility.yul\":28067:28127   */\n      tag_680\n        /* \"#utility.yul\":28120:28126   */\n      dup2\n        /* \"#utility.yul\":28115:28118   */\n      dup6\n        /* \"#utility.yul\":28067:28127   */\n      tag_371\n      jump\t// in\n    tag_680:\n        /* \"#utility.yul\":28060:28127   */\n      swap4\n      pop\n        /* \"#utility.yul\":28136:28201   */\n      tag_681\n        /* \"#utility.yul\":28194:28200   */\n      dup2\n        /* \"#utility.yul\":28189:28192   */\n      dup6\n        /* \"#utility.yul\":28182:28186   */\n      0x20\n        /* \"#utility.yul\":28175:28180   */\n      dup7\n        /* \"#utility.yul\":28171:28187   */\n      add\n        /* \"#utility.yul\":28136:28201   */\n      tag_305\n      jump\t// in\n    tag_681:\n        /* \"#utility.yul\":28226:28255   */\n      tag_682\n        /* \"#utility.yul\":28248:28254   */\n      dup2\n        /* \"#utility.yul\":28226:28255   */\n      tag_306\n      jump\t// in\n    tag_682:\n        /* \"#utility.yul\":28221:28224   */\n      dup5\n        /* \"#utility.yul\":28217:28256   */\n      add\n        /* \"#utility.yul\":28210:28256   */\n      swap2\n      pop\n        /* \"#utility.yul\":27989:28262   */\n      pop\n        /* \"#utility.yul\":27909:28262   */\n      swap3\n      swap2\n      pop\n      pop\n      jump\t// out\n        /* \"#utility.yul\":28318:29225   */\n    tag_373:\n        /* \"#utility.yul\":28419:28422   */\n      0x00\n        /* \"#utility.yul\":28455:28459   */\n      0x60\n        /* \"#utility.yul\":28450:28453   */\n      dup4\n        /* \"#utility.yul\":28446:28460   */\n      add\n        /* \"#utility.yul\":28542:28546   */\n      0x00\n        /* \"#utility.yul\":28535:28540   */\n      dup4\n        /* \"#utility.yul\":28531:28547   */\n      add\n        /* \"#utility.yul\":28525:28548   */\n      mload\n        /* \"#utility.yul\":28595:28598   */\n      dup5\n        /* \"#utility.yul\":28589:28593   */\n      dup3\n        /* \"#utility.yul\":28585:28599   */\n      sub\n        /* \"#utility.yul\":28578:28582   */\n      0x00\n        /* \"#utility.yul\":28573:28576   */\n      dup7\n        /* \"#utility.yul\":28569:28583   */\n      add\n        /* \"#utility.yul\":28562:28600   */\n      mstore\n        /* \"#utility.yul\":28621:28694   */\n      tag_684\n        /* \"#utility.yul\":28689:28693   */\n      dup3\n        /* \"#utility.yul\":28675:28687   */\n      dup3\n        /* \"#utility.yul\":28621:28694   */\n      tag_369\n      jump\t// in\n    tag_684:\n        /* \"#utility.yul\":28613:28694   */\n      swap2\n      pop\n        /* \"#utility.yul\":28470:28705   */\n      pop\n        /* \"#utility.yul\":28791:28795   */\n      0x20\n        /* \"#utility.yul\":28784:28789   */\n      dup4\n        /* \"#utility.yul\":28780:28796   */\n      add\n        /* \"#utility.yul\":28774:28797   */\n      mload\n        /* \"#utility.yul\":28844:28847   */\n      dup5\n        /* \"#utility.yul\":28838:28842   */\n      dup3\n        /* \"#utility.yul\":28834:28848   */\n      sub\n        /* \"#utility.yul\":28827:28831   */\n      0x20\n        /* \"#utility.yul\":28822:28825   */\n      dup7\n        /* \"#utility.yul\":28818:28832   */\n      add\n        /* \"#utility.yul\":28811:28849   */\n      mstore\n        /* \"#utility.yul\":28870:28943   */\n      tag_685\n        /* \"#utility.yul\":28938:28942   */\n      dup3\n        /* \"#utility.yul\":28924:28936   */\n      dup3\n        /* \"#utility.yul\":28870:28943   */\n      tag_369\n      jump\t// in\n    tag_685:\n        /* \"#utility.yul\":28862:28943   */\n      swap2\n      pop\n        /* \"#utility.yul\":28715:28954   */\n      pop\n        /* \"#utility.yul\":29037:29041   */\n      0x40\n        /* \"#utility.yul\":29030:29035   */\n      dup4\n        /* \"#utility.yul\":29026:29042   */\n      add\n        /* \"#utility.yul\":29020:29043   */\n      mload\n        /* \"#utility.yul\":29090:29093   */\n      dup5\n        /* \"#utility.yul\":29084:29088   */\n      dup3\n        /* \"#utility.yul\":29080:29094   */\n      sub\n        /* \"#utility.yul\":29073:29077   */\n      0x40\n        /* \"#utility.yul\":29068:29071   */\n      dup7\n        /* \"#utility.yul\":29064:29078   */\n      add\n        /* \"#utility.yul\":29057:29095   */\n      mstore\n        /* \"#utility.yul\":29116:29187   */\n      tag_686\n        /* \"#utility.yul\":29182:29186   */\n      dup3\n        /* \"#utility.yul\":29168:29180   */\n      dup3\n        /* \"#utility.yul\":29116:29187   */\n      tag_372\n      jump\t// in\n    tag_686:\n        /* \"#utility.yul\":29108:29187   */\n      swap2\n      pop\n        /* \"#utility.yul\":28964:29198   */\n      pop\n        /* \"#utility.yul\":29215:29219   */\n      dup1\n        /* \"#utility.yul\":29208:29219   */\n      swap2\n      pop\n        /* \"#utility.yul\":28424:29225   */\n      pop\n        /* \"#utility.yul\":28318:29225   */\n      swap3\n      swap2\n      pop\n      pop\n      jump\t// out\n        /* \"#utility.yul\":29231:29471   */\n    tag_374:\n        /* \"#utility.yul\":29342:29352   */\n      0x00\n        /* \"#utility.yul\":29377:29465   */\n      tag_688\n        /* \"#utility.yul\":29461:29464   */\n      dup4\n        /* \"#utility.yul\":29453:29459   */\n      dup4\n        /* \"#utility.yul\":29377:29465   */\n      tag_373\n      jump\t// in\n    tag_688:\n        /* \"#utility.yul\":29363:29465   */\n      swap1\n      pop\n        /* \"#utility.yul\":29231:29471   */\n      swap3\n      swap2\n      pop\n      pop\n      jump\t// out\n        /* \"#utility.yul\":29477:29611   */\n    tag_375:\n        /* \"#utility.yul\":29568:29572   */\n      0x00\n        /* \"#utility.yul\":29600:29604   */\n      0x20\n        /* \"#utility.yul\":29595:29598   */\n      dup3\n        /* \"#utility.yul\":29591:29605   */\n      add\n        /* \"#utility.yul\":29583:29605   */\n      swap1\n      pop\n        /* \"#utility.yul\":29477:29611   */\n      swap2\n      swap1\n      pop\n      jump\t// out\n        /* \"#utility.yul\":29671:30750   */\n    tag_376:\n        /* \"#utility.yul\":29832:29835   */\n      0x00\n        /* \"#utility.yul\":29861:29936   */\n      tag_691\n        /* \"#utility.yul\":29930:29935   */\n      dup3\n        /* \"#utility.yul\":29861:29936   */\n      tag_365\n      jump\t// in\n    tag_691:\n        /* \"#utility.yul\":29952:30059   */\n      tag_692\n        /* \"#utility.yul\":30052:30058   */\n      dup2\n        /* \"#utility.yul\":30047:30050   */\n      dup6\n        /* \"#utility.yul\":29952:30059   */\n      tag_366\n      jump\t// in\n    tag_692:\n        /* \"#utility.yul\":29945:30059   */\n      swap4\n      pop\n        /* \"#utility.yul\":30085:30088   */\n      dup4\n        /* \"#utility.yul\":30130:30134   */\n      0x20\n        /* \"#utility.yul\":30122:30128   */\n      dup3\n        /* \"#utility.yul\":30118:30135   */\n      mul\n        /* \"#utility.yul\":30113:30116   */\n      dup6\n        /* \"#utility.yul\":30109:30136   */\n      add\n        /* \"#utility.yul\":30160:30237   */\n      tag_693\n        /* \"#utility.yul\":30231:30236   */\n      dup6\n        /* \"#utility.yul\":30160:30237   */\n      tag_367\n      jump\t// in\n    tag_693:\n        /* \"#utility.yul\":30260:30267   */\n      dup1\n        /* \"#utility.yul\":30291:30292   */\n      0x00\n        /* \"#utility.yul\":30276:30705   */\n    tag_694:\n        /* \"#utility.yul\":30301:30307   */\n      dup6\n        /* \"#utility.yul\":30298:30299   */\n      dup2\n        /* \"#utility.yul\":30295:30308   */\n      lt\n        /* \"#utility.yul\":30276:30705   */\n      iszero\n      tag_696\n      jumpi\n        /* \"#utility.yul\":30372:30381   */\n      dup5\n        /* \"#utility.yul\":30366:30370   */\n      dup5\n        /* \"#utility.yul\":30362:30382   */\n      sub\n        /* \"#utility.yul\":30357:30360   */\n      dup10\n        /* \"#utility.yul\":30350:30383   */\n      mstore\n        /* \"#utility.yul\":30423:30429   */\n      dup2\n        /* \"#utility.yul\":30417:30430   */\n      mload\n        /* \"#utility.yul\":30451:30557   */\n      tag_697\n        /* \"#utility.yul\":30552:30556   */\n      dup6\n        /* \"#utility.yul\":30537:30550   */\n      dup3\n        /* \"#utility.yul\":30451:30557   */\n      tag_374\n      jump\t// in\n    tag_697:\n        /* \"#utility.yul\":30443:30557   */\n      swap5\n      pop\n        /* \"#utility.yul\":30580:30661   */\n      tag_698\n        /* \"#utility.yul\":30654:30660   */\n      dup4\n        /* \"#utility.yul\":30580:30661   */\n      tag_375\n      jump\t// in\n    tag_698:\n        /* \"#utility.yul\":30570:30661   */\n      swap3\n      pop\n        /* \"#utility.yul\":30690:30694   */\n      0x20\n        /* \"#utility.yul\":30685:30688   */\n      dup11\n        /* \"#utility.yul\":30681:30695   */\n      add\n        /* \"#utility.yul\":30674:30695   */\n      swap10\n      pop\n        /* \"#utility.yul\":30336:30705   */\n      pop\n        /* \"#utility.yul\":30323:30324   */\n      0x01\n        /* \"#utility.yul\":30320:30321   */\n      dup2\n        /* \"#utility.yul\":30316:30325   */\n      add\n        /* \"#utility.yul\":30311:30325   */\n      swap1\n      pop\n        /* \"#utility.yul\":30276:30705   */\n      jump(tag_694)\n    tag_696:\n        /* \"#utility.yul\":30280:30294   */\n      pop\n        /* \"#utility.yul\":30721:30725   */\n      dup3\n        /* \"#utility.yul\":30714:30725   */\n      swap8\n      pop\n        /* \"#utility.yul\":30741:30744   */\n      dup8\n        /* \"#utility.yul\":30734:30744   */\n      swap6\n      pop\n        /* \"#utility.yul\":29837:30750   */\n      pop\n      pop\n      pop\n      pop\n      pop\n        /* \"#utility.yul\":29671:30750   */\n      swap3\n      swap2\n      pop\n      pop\n      jump\t// out\n        /* \"#utility.yul\":30756:31520   */\n    tag_166:\n        /* \"#utility.yul\":31042:31046   */\n      0x00\n        /* \"#utility.yul\":31080:31082   */\n      0x40\n        /* \"#utility.yul\":31069:31078   */\n      dup3\n        /* \"#utility.yul\":31065:31083   */\n      add\n        /* \"#utility.yul\":31057:31083   */\n      swap1\n      pop\n        /* \"#utility.yul\":31129:31138   */\n      dup2\n        /* \"#utility.yul\":31123:31127   */\n      dup2\n        /* \"#utility.yul\":31119:31139   */\n      sub\n        /* \"#utility.yul\":31115:31116   */\n      0x00\n        /* \"#utility.yul\":31104:31113   */\n      dup4\n        /* \"#utility.yul\":31100:31117   */\n      add\n        /* \"#utility.yul\":31093:31140   */\n      mstore\n        /* \"#utility.yul\":31157:31288   */\n      tag_700\n        /* \"#utility.yul\":31283:31287   */\n      dup2\n        /* \"#utility.yul\":31157:31288   */\n      tag_364\n      jump\t// in\n    tag_700:\n        /* \"#utility.yul\":31149:31288   */\n      swap1\n      pop\n        /* \"#utility.yul\":31335:31344   */\n      dup2\n        /* \"#utility.yul\":31329:31333   */\n      dup2\n        /* \"#utility.yul\":31325:31345   */\n      sub\n        /* \"#utility.yul\":31320:31322   */\n      0x20\n        /* \"#utility.yul\":31309:31318   */\n      dup4\n        /* \"#utility.yul\":31305:31323   */\n      add\n        /* \"#utility.yul\":31298:31346   */\n      mstore\n        /* \"#utility.yul\":31363:31513   */\n      tag_701\n        /* \"#utility.yul\":31508:31512   */\n      dup2\n        /* \"#utility.yul\":31499:31505   */\n      dup5\n        /* \"#utility.yul\":31363:31513   */\n      tag_376\n      jump\t// in\n    tag_701:\n        /* \"#utility.yul\":31355:31513   */\n      swap1\n      pop\n        /* \"#utility.yul\":30756:31520   */\n      swap3\n      swap2\n      pop\n      pop\n      jump\t// out\n        /* \"#utility.yul\":31526:31943   */\n    tag_171:\n        /* \"#utility.yul\":31664:31668   */\n      0x00\n        /* \"#utility.yul\":31702:31704   */\n      0x40\n        /* \"#utility.yul\":31691:31700   */\n      dup3\n        /* \"#utility.yul\":31687:31705   */\n      add\n        /* \"#utility.yul\":31679:31705   */\n      swap1\n      pop\n        /* \"#utility.yul\":31715:31786   */\n      tag_703\n        /* \"#utility.yul\":31783:31784   */\n      0x00\n        /* \"#utility.yul\":31772:31781   */\n      dup4\n        /* \"#utility.yul\":31768:31785   */\n      add\n        /* \"#utility.yul\":31759:31765   */\n      dup6\n        /* \"#utility.yul\":31715:31786   */\n      tag_327\n      jump\t// in\n    tag_703:\n        /* \"#utility.yul\":31833:31842   */\n      dup2\n        /* \"#utility.yul\":31827:31831   */\n      dup2\n        /* \"#utility.yul\":31823:31843   */\n      sub\n        /* \"#utility.yul\":31818:31820   */\n      0x20\n        /* \"#utility.yul\":31807:31816   */\n      dup4\n        /* \"#utility.yul\":31803:31821   */\n      add\n        /* \"#utility.yul\":31796:31844   */\n      mstore\n        /* \"#utility.yul\":31861:31936   */\n      tag_704\n        /* \"#utility.yul\":31931:31935   */\n      dup2\n        /* \"#utility.yul\":31922:31928   */\n      dup5\n        /* \"#utility.yul\":31861:31936   */\n      tag_362\n      jump\t// in\n    tag_704:\n        /* \"#utility.yul\":31853:31936   */\n      swap1\n      pop\n        /* \"#utility.yul\":31526:31943   */\n      swap4\n      swap3\n      pop\n      pop\n      pop\n      jump\t// out\n        /* \"#utility.yul\":31949:32125   */\n    tag_377:\n        /* \"#utility.yul\":32089:32117   */\n      0x5661756c743a204465706f736974206d757374206265203e2030000000000000\n        /* \"#utility.yul\":32085:32086   */\n      0x00\n        /* \"#utility.yul\":32077:32083   */\n      dup3\n        /* \"#utility.yul\":32073:32087   */\n      add\n        /* \"#utility.yul\":32066:32118   */\n      mstore\n        /* \"#utility.yul\":31949:32125   */\n      pop\n      jump\t// out\n        /* \"#utility.yul\":32131:32497   */\n    tag_378:\n        /* \"#utility.yul\":32273:32276   */\n      0x00\n        /* \"#utility.yul\":32294:32361   */\n      tag_707\n        /* \"#utility.yul\":32358:32360   */\n      0x1a\n        /* \"#utility.yul\":32353:32356   */\n      dup4\n        /* \"#utility.yul\":32294:32361   */\n      tag_304\n      jump\t// in\n    tag_707:\n        /* \"#utility.yul\":32287:32361   */\n      swap2\n      pop\n        /* \"#utility.yul\":32370:32463   */\n      tag_708\n        /* \"#utility.yul\":32459:32462   */\n      dup3\n        /* \"#utility.yul\":32370:32463   */\n      tag_377\n      jump\t// in\n    tag_708:\n        /* \"#utility.yul\":32488:32490   */\n      0x20\n        /* \"#utility.yul\":32483:32486   */\n      dup3\n        /* \"#utility.yul\":32479:32491   */\n      add\n        /* \"#utility.yul\":32472:32491   */\n      swap1\n      pop\n        /* \"#utility.yul\":32131:32497   */\n      swap2\n      swap1\n      pop\n      jump\t// out\n        /* \"#utility.yul\":32503:32922   */\n    tag_179:\n        /* \"#utility.yul\":32669:32673   */\n      0x00\n        /* \"#utility.yul\":32707:32709   */\n      0x20\n        /* \"#utility.yul\":32696:32705   */\n      dup3\n        /* \"#utility.yul\":32692:32710   */\n      add\n        /* \"#utility.yul\":32684:32710   */\n      swap1\n      pop\n        /* \"#utility.yul\":32756:32765   */\n      dup2\n        /* \"#utility.yul\":32750:32754   */\n      dup2\n        /* \"#utility.yul\":32746:32766   */\n      sub\n        /* \"#utility.yul\":32742:32743   */\n      0x00\n        /* \"#utility.yul\":32731:32740   */\n      dup4\n        /* \"#utility.yul\":32727:32744   */\n      add\n        /* \"#utility.yul\":32720:32767   */\n      mstore\n        /* \"#utility.yul\":32784:32915   */\n      tag_710\n        /* \"#utility.yul\":32910:32914   */\n      dup2\n        /* \"#utility.yul\":32784:32915   */\n      tag_378\n      jump\t// in\n    tag_710:\n        /* \"#utility.yul\":32776:32915   */\n      swap1\n      pop\n        /* \"#utility.yul\":32503:32922   */\n      swap2\n      swap1\n      pop\n      jump\t// out\n        /* \"#utility.yul\":32928:33085   */\n    tag_379:\n        /* \"#utility.yul\":33068:33077   */\n      0x4465706f73697400000000000000000000000000000000000000000000000000\n        /* \"#utility.yul\":33064:33065   */\n      0x00\n        /* \"#utility.yul\":33056:33062   */\n      dup3\n        /* \"#utility.yul\":33052:33066   */\n      add\n        /* \"#utility.yul\":33045:33078   */\n      mstore\n        /* \"#utility.yul\":32928:33085   */\n      pop\n      jump\t// out\n        /* \"#utility.yul\":33091:33456   */\n    tag_380:\n        /* \"#utility.yul\":33233:33236   */\n      0x00\n        /* \"#utility.yul\":33254:33320   */\n      tag_713\n        /* \"#utility.yul\":33318:33319   */\n      0x07\n        /* \"#utility.yul\":33313:33316   */\n      dup4\n        /* \"#utility.yul\":33254:33320   */\n      tag_304\n      jump\t// in\n    tag_713:\n        /* \"#utility.yul\":33247:33320   */\n      swap2\n      pop\n        /* \"#utility.yul\":33329:33422   */\n      tag_714\n        /* \"#utility.yul\":33418:33421   */\n      dup3\n        /* \"#utility.yul\":33329:33422   */\n      tag_379\n      jump\t// in\n    tag_714:\n        /* \"#utility.yul\":33447:33449   */\n      0x20\n        /* \"#utility.yul\":33442:33445   */\n      dup3\n        /* \"#utility.yul\":33438:33450   */\n      add\n        /* \"#utility.yul\":33431:33450   */\n      swap1\n      pop\n        /* \"#utility.yul\":33091:33456   */\n      swap2\n      swap1\n      pop\n      jump\t// out\n        /* \"#utility.yul\":33462:34226   */\n    tag_219:\n        /* \"#utility.yul\":33748:33752   */\n      0x00\n        /* \"#utility.yul\":33786:33788   */\n      0x40\n        /* \"#utility.yul\":33775:33784   */\n      dup3\n        /* \"#utility.yul\":33771:33789   */\n      add\n        /* \"#utility.yul\":33763:33789   */\n      swap1\n      pop\n        /* \"#utility.yul\":33835:33844   */\n      dup2\n        /* \"#utility.yul\":33829:33833   */\n      dup2\n        /* \"#utility.yul\":33825:33845   */\n      sub\n        /* \"#utility.yul\":33821:33822   */\n      0x00\n        /* \"#utility.yul\":33810:33819   */\n      dup4\n        /* \"#utility.yul\":33806:33823   */\n      add\n        /* \"#utility.yul\":33799:33846   */\n      mstore\n        /* \"#utility.yul\":33863:33994   */\n      tag_716\n        /* \"#utility.yul\":33989:33993   */\n      dup2\n        /* \"#utility.yul\":33863:33994   */\n      tag_380\n      jump\t// in\n    tag_716:\n        /* \"#utility.yul\":33855:33994   */\n      swap1\n      pop\n        /* \"#utility.yul\":34041:34050   */\n      dup2\n        /* \"#utility.yul\":34035:34039   */\n      dup2\n        /* \"#utility.yul\":34031:34051   */\n      sub\n        /* \"#utility.yul\":34026:34028   */\n      0x20\n        /* \"#utility.yul\":34015:34024   */\n      dup4\n        /* \"#utility.yul\":34011:34029   */\n      add\n        /* \"#utility.yul\":34004:34052   */\n      mstore\n        /* \"#utility.yul\":34069:34219   */\n      tag_717\n        /* \"#utility.yul\":34214:34218   */\n      dup2\n        /* \"#utility.yul\":34205:34211   */\n      dup5\n        /* \"#utility.yul\":34069:34219   */\n      tag_376\n      jump\t// in\n    tag_717:\n        /* \"#utility.yul\":34061:34219   */\n      swap1\n      pop\n        /* \"#utility.yul\":33462:34226   */\n      swap3\n      swap2\n      pop\n      pop\n      jump\t// out\n        /* \"#utility.yul\":34232:34400   */\n    tag_381:\n        /* \"#utility.yul\":34315:34326   */\n      0x00\n        /* \"#utility.yul\":34349:34355   */\n      dup3\n        /* \"#utility.yul\":34344:34347   */\n      dup3\n        /* \"#utility.yul\":34337:34356   */\n      mstore\n        /* \"#utility.yul\":34389:34393   */\n      0x20\n        /* \"#utility.yul\":34384:34387   */\n      dup3\n        /* \"#utility.yul\":34380:34394   */\n      add\n        /* \"#utility.yul\":34365:34394   */\n      swap1\n      pop\n        /* \"#utility.yul\":34232:34400   */\n      swap3\n      swap2\n      pop\n      pop\n      jump\t// out\n        /* \"#utility.yul\":34428:34742   */\n    tag_382:\n        /* \"#utility.yul\":34524:34527   */\n      0x00\n        /* \"#utility.yul\":34545:34615   */\n      tag_720\n        /* \"#utility.yul\":34608:34614   */\n      dup4\n        /* \"#utility.yul\":34603:34606   */\n      dup6\n        /* \"#utility.yul\":34545:34615   */\n      tag_381\n      jump\t// in\n    tag_720:\n        /* \"#utility.yul\":34538:34615   */\n      swap4\n      pop\n        /* \"#utility.yul\":34625:34681   */\n      tag_721\n        /* \"#utility.yul\":34674:34680   */\n      dup4\n        /* \"#utility.yul\":34669:34672   */\n      dup6\n        /* \"#utility.yul\":34662:34667   */\n      dup5\n        /* \"#utility.yul\":34625:34681   */\n      tag_316\n      jump\t// in\n    tag_721:\n        /* \"#utility.yul\":34706:34735   */\n      tag_722\n        /* \"#utility.yul\":34728:34734   */\n      dup4\n        /* \"#utility.yul\":34706:34735   */\n      tag_306\n      jump\t// in\n    tag_722:\n        /* \"#utility.yul\":34701:34704   */\n      dup5\n        /* \"#utility.yul\":34697:34736   */\n      add\n        /* \"#utility.yul\":34690:34736   */\n      swap1\n      pop\n        /* \"#utility.yul\":34428:34742   */\n      swap4\n      swap3\n      pop\n      pop\n      pop\n      jump\t// out\n        /* \"#utility.yul\":34748:35077   */\n    tag_234:\n        /* \"#utility.yul\":34869:34873   */\n      0x00\n        /* \"#utility.yul\":34907:34909   */\n      0x20\n        /* \"#utility.yul\":34896:34905   */\n      dup3\n        /* \"#utility.yul\":34892:34910   */\n      add\n        /* \"#utility.yul\":34884:34910   */\n      swap1\n      pop\n        /* \"#utility.yul\":34956:34965   */\n      dup2\n        /* \"#utility.yul\":34950:34954   */\n      dup2\n        /* \"#utility.yul\":34946:34966   */\n      sub\n        /* \"#utility.yul\":34942:34943   */\n      0x00\n        /* \"#utility.yul\":34931:34940   */\n      dup4\n        /* \"#utility.yul\":34927:34944   */\n      add\n        /* \"#utility.yul\":34920:34967   */\n      mstore\n        /* \"#utility.yul\":34984:35070   */\n      tag_724\n        /* \"#utility.yul\":35065:35069   */\n      dup2\n        /* \"#utility.yul\":35056:35062   */\n      dup5\n        /* \"#utility.yul\":35048:35054   */\n      dup7\n        /* \"#utility.yul\":34984:35070   */\n      tag_382\n      jump\t// in\n    tag_724:\n        /* \"#utility.yul\":34976:35070   */\n      swap1\n      pop\n        /* \"#utility.yul\":34748:35077   */\n      swap4\n      swap3\n      pop\n      pop\n      pop\n      jump\t// out\n        /* \"#utility.yul\":35083:35237   */\n    tag_383:\n        /* \"#utility.yul\":35223:35229   */\n      0x6261736500000000000000000000000000000000000000000000000000000000\n        /* \"#utility.yul\":35219:35220   */\n      0x00\n        /* \"#utility.yul\":35211:35217   */\n      dup3\n        /* \"#utility.yul\":35207:35221   */\n      add\n        /* \"#utility.yul\":35200:35230   */\n      mstore\n        /* \"#utility.yul\":35083:35237   */\n      pop\n      jump\t// out\n        /* \"#utility.yul\":35243:35608   */\n    tag_384:\n        /* \"#utility.yul\":35385:35388   */\n      0x00\n        /* \"#utility.yul\":35406:35472   */\n      tag_727\n        /* \"#utility.yul\":35470:35471   */\n      0x04\n        /* \"#utility.yul\":35465:35468   */\n      dup4\n        /* \"#utility.yul\":35406:35472   */\n      tag_304\n      jump\t// in\n    tag_727:\n        /* \"#utility.yul\":35399:35472   */\n      swap2\n      pop\n        /* \"#utility.yul\":35481:35574   */\n      tag_728\n        /* \"#utility.yul\":35570:35573   */\n      dup3\n        /* \"#utility.yul\":35481:35574   */\n      tag_383\n      jump\t// in\n    tag_728:\n        /* \"#utility.yul\":35599:35601   */\n      0x20\n        /* \"#utility.yul\":35594:35597   */\n      dup3\n        /* \"#utility.yul\":35590:35602   */\n      add\n        /* \"#utility.yul\":35583:35602   */\n      swap1\n      pop\n        /* \"#utility.yul\":35243:35608   */\n      swap2\n      swap1\n      pop\n      jump\t// out\n        /* \"#utility.yul\":35614:36033   */\n    tag_244:\n        /* \"#utility.yul\":35780:35784   */\n      0x00\n        /* \"#utility.yul\":35818:35820   */\n      0x20\n        /* \"#utility.yul\":35807:35816   */\n      dup3\n        /* \"#utility.yul\":35803:35821   */\n      add\n        /* \"#utility.yul\":35795:35821   */\n      swap1\n      pop\n        /* \"#utility.yul\":35867:35876   */\n      dup2\n        /* \"#utility.yul\":35861:35865   */\n      dup2\n        /* \"#utility.yul\":35857:35877   */\n      sub\n        /* \"#utility.yul\":35853:35854   */\n      0x00\n        /* \"#utility.yul\":35842:35851   */\n      dup4\n        /* \"#utility.yul\":35838:35855   */\n      add\n        /* \"#utility.yul\":35831:35878   */\n      mstore\n        /* \"#utility.yul\":35895:36026   */\n      tag_730\n        /* \"#utility.yul\":36021:36025   */\n      dup2\n        /* \"#utility.yul\":35895:36026   */\n      tag_384\n      jump\t// in\n    tag_730:\n        /* \"#utility.yul\":35887:36026   */\n      swap1\n      pop\n        /* \"#utility.yul\":35614:36033   */\n      swap2\n      swap1\n      pop\n      jump\t// out\n        /* \"#utility.yul\":36039:36205   */\n    tag_385:\n        /* \"#utility.yul\":36179:36197   */\n      0x4d6f64756c617220576974686472617700000000000000000000000000000000\n        /* \"#utility.yul\":36175:36176   */\n      0x00\n        /* \"#utility.yul\":36167:36173   */\n      dup3\n        /* \"#utility.yul\":36163:36177   */\n      add\n        /* \"#utility.yul\":36156:36198   */\n      mstore\n        /* \"#utility.yul\":36039:36205   */\n      pop\n      jump\t// out\n        /* \"#utility.yul\":36211:36577   */\n    tag_386:\n        /* \"#utility.yul\":36353:36356   */\n      0x00\n        /* \"#utility.yul\":36374:36441   */\n      tag_733\n        /* \"#utility.yul\":36438:36440   */\n      0x10\n        /* \"#utility.yul\":36433:36436   */\n      dup4\n        /* \"#utility.yul\":36374:36441   */\n      tag_304\n      jump\t// in\n    tag_733:\n        /* \"#utility.yul\":36367:36441   */\n      swap2\n      pop\n        /* \"#utility.yul\":36450:36543   */\n      tag_734\n        /* \"#utility.yul\":36539:36542   */\n      dup3\n        /* \"#utility.yul\":36450:36543   */\n      tag_385\n      jump\t// in\n    tag_734:\n        /* \"#utility.yul\":36568:36570   */\n      0x20\n        /* \"#utility.yul\":36563:36566   */\n      dup3\n        /* \"#utility.yul\":36559:36571   */\n      add\n        /* \"#utility.yul\":36552:36571   */\n      swap1\n      pop\n        /* \"#utility.yul\":36211:36577   */\n      swap2\n      swap1\n      pop\n      jump\t// out\n        /* \"#utility.yul\":36583:37347   */\n    tag_254:\n        /* \"#utility.yul\":36869:36873   */\n      0x00\n        /* \"#utility.yul\":36907:36909   */\n      0x40\n        /* \"#utility.yul\":36896:36905   */\n      dup3\n        /* \"#utility.yul\":36892:36910   */\n      add\n        /* \"#utility.yul\":36884:36910   */\n      swap1\n      pop\n        /* \"#utility.yul\":36956:36965   */\n      dup2\n        /* \"#utility.yul\":36950:36954   */\n      dup2\n        /* \"#utility.yul\":36946:36966   */\n      sub\n        /* \"#utility.yul\":36942:36943   */\n      0x00\n        /* \"#utility.yul\":36931:36940   */\n      dup4\n        /* \"#utility.yul\":36927:36944   */\n      add\n        /* \"#utility.yul\":36920:36967   */\n      mstore\n        /* \"#utility.yul\":36984:37115   */\n      tag_736\n        /* \"#utility.yul\":37110:37114   */\n      dup2\n        /* \"#utility.yul\":36984:37115   */\n      tag_386\n      jump\t// in\n    tag_736:\n        /* \"#utility.yul\":36976:37115   */\n      swap1\n      pop\n        /* \"#utility.yul\":37162:37171   */\n      dup2\n        /* \"#utility.yul\":37156:37160   */\n      dup2\n        /* \"#utility.yul\":37152:37172   */\n      sub\n        /* \"#utility.yul\":37147:37149   */\n      0x20\n        /* \"#utility.yul\":37136:37145   */\n      dup4\n        /* \"#utility.yul\":37132:37150   */\n      add\n        /* \"#utility.yul\":37125:37173   */\n      mstore\n        /* \"#utility.yul\":37190:37340   */\n      tag_737\n        /* \"#utility.yul\":37335:37339   */\n      dup2\n        /* \"#utility.yul\":37326:37332   */\n      dup5\n        /* \"#utility.yul\":37190:37340   */\n      tag_376\n      jump\t// in\n    tag_737:\n        /* \"#utility.yul\":37182:37340   */\n      swap1\n      pop\n        /* \"#utility.yul\":36583:37347   */\n      swap3\n      swap2\n      pop\n      pop\n      jump\t// out\n        /* \"#utility.yul\":37353:37528   */\n    tag_387:\n        /* \"#utility.yul\":37493:37520   */\n      0x5661756c743a204d6178206d757374206265203e3d204d696e00000000000000\n        /* \"#utility.yul\":37489:37490   */\n      0x00\n        /* \"#utility.yul\":37481:37487   */\n      dup3\n        /* \"#utility.yul\":37477:37491   */\n      add\n        /* \"#utility.yul\":37470:37521   */\n      mstore\n        /* \"#utility.yul\":37353:37528   */\n      pop\n      jump\t// out\n        /* \"#utility.yul\":37534:37900   */\n    tag_388:\n        /* \"#utility.yul\":37676:37679   */\n      0x00\n        /* \"#utility.yul\":37697:37764   */\n      tag_740\n        /* \"#utility.yul\":37761:37763   */\n      0x19\n        /* \"#utility.yul\":37756:37759   */\n      dup4\n        /* \"#utility.yul\":37697:37764   */\n      tag_304\n      jump\t// in\n    tag_740:\n        /* \"#utility.yul\":37690:37764   */\n      swap2\n      pop\n        /* \"#utility.yul\":37773:37866   */\n      tag_741\n        /* \"#utility.yul\":37862:37865   */\n      dup3\n        /* \"#utility.yul\":37773:37866   */\n      tag_387\n      jump\t// in\n    tag_741:\n        /* \"#utility.yul\":37891:37893   */\n      0x20\n        /* \"#utility.yul\":37886:37889   */\n      dup3\n        /* \"#utility.yul\":37882:37894   */\n      add\n        /* \"#utility.yul\":37875:37894   */\n      swap1\n      pop\n        /* \"#utility.yul\":37534:37900   */\n      swap2\n      swap1\n      pop\n      jump\t// out\n        /* \"#utility.yul\":37906:38325   */\n    tag_278:\n        /* \"#utility.yul\":38072:38076   */\n      0x00\n        /* \"#utility.yul\":38110:38112   */\n      0x20\n        /* \"#utility.yul\":38099:38108   */\n      dup3\n        /* \"#utility.yul\":38095:38113   */\n      add\n        /* \"#utility.yul\":38087:38113   */\n      swap1\n      pop\n        /* \"#utility.yul\":38159:38168   */\n      dup2\n        /* \"#utility.yul\":38153:38157   */\n      dup2\n        /* \"#utility.yul\":38149:38169   */\n      sub\n        /* \"#utility.yul\":38145:38146   */\n      0x00\n        /* \"#utility.yul\":38134:38143   */\n      dup4\n        /* \"#utility.yul\":38130:38147   */\n      add\n        /* \"#utility.yul\":38123:38170   */\n      mstore\n        /* \"#utility.yul\":38187:38318   */\n      tag_743\n        /* \"#utility.yul\":38313:38317   */\n      dup2\n        /* \"#utility.yul\":38187:38318   */\n      tag_388\n      jump\t// in\n    tag_743:\n        /* \"#utility.yul\":38179:38318   */\n      swap1\n      pop\n        /* \"#utility.yul\":37906:38325   */\n      swap2\n      swap1\n      pop\n      jump\t// out\n        /* \"#utility.yul\":38331:38410   */\n    tag_389:\n        /* \"#utility.yul\":38370:38377   */\n      0x00\n        /* \"#utility.yul\":38399:38404   */\n      dup2\n        /* \"#utility.yul\":38388:38404   */\n      swap1\n      pop\n        /* \"#utility.yul\":38331:38410   */\n      swap2\n      swap1\n      pop\n      jump\t// out\n        /* \"#utility.yul\":38416:38573   */\n    tag_390:\n        /* \"#utility.yul\":38521:38566   */\n      tag_746\n        /* \"#utility.yul\":38541:38565   */\n      tag_747\n        /* \"#utility.yul\":38559:38564   */\n      dup3\n        /* \"#utility.yul\":38541:38565   */\n      tag_326\n      jump\t// in\n    tag_747:\n        /* \"#utility.yul\":38521:38566   */\n      tag_389\n      jump\t// in\n    tag_746:\n        /* \"#utility.yul\":38516:38519   */\n      dup3\n        /* \"#utility.yul\":38509:38567   */\n      mstore\n        /* \"#utility.yul\":38416:38573   */\n      pop\n      pop\n      jump\t// out\n        /* \"#utility.yul\":38579:38673   */\n    tag_391:\n        /* \"#utility.yul\":38612:38620   */\n      0x00\n        /* \"#utility.yul\":38660:38665   */\n      dup2\n        /* \"#utility.yul\":38656:38658   */\n      0x60\n        /* \"#utility.yul\":38652:38666   */\n      shl\n        /* \"#utility.yul\":38631:38666   */\n      swap1\n      pop\n        /* \"#utility.yul\":38579:38673   */\n      swap2\n      swap1\n      pop\n      jump\t// out\n        /* \"#utility.yul\":38679:38773   */\n    tag_392:\n        /* \"#utility.yul\":38718:38725   */\n      0x00\n        /* \"#utility.yul\":38747:38767   */\n      tag_750\n        /* \"#utility.yul\":38761:38766   */\n      dup3\n        /* \"#utility.yul\":38747:38767   */\n      tag_391\n      jump\t// in\n    tag_750:\n        /* \"#utility.yul\":38736:38767   */\n      swap1\n      pop\n        /* \"#utility.yul\":38679:38773   */\n      swap2\n      swap1\n      pop\n      jump\t// out\n        /* \"#utility.yul\":38779:38879   */\n    tag_393:\n        /* \"#utility.yul\":38818:38825   */\n      0x00\n        /* \"#utility.yul\":38847:38873   */\n      tag_752\n        /* \"#utility.yul\":38867:38872   */\n      dup3\n        /* \"#utility.yul\":38847:38873   */\n      tag_392\n      jump\t// in\n    tag_752:\n        /* \"#utility.yul\":38836:38873   */\n      swap1\n      pop\n        /* \"#utility.yul\":38779:38879   */\n      swap2\n      swap1\n      pop\n      jump\t// out\n        /* \"#utility.yul\":38885:39042   */\n    tag_394:\n        /* \"#utility.yul\":38990:39035   */\n      tag_754\n        /* \"#utility.yul\":39010:39034   */\n      tag_755\n        /* \"#utility.yul\":39028:39033   */\n      dup3\n        /* \"#utility.yul\":39010:39034   */\n      tag_320\n      jump\t// in\n    tag_755:\n        /* \"#utility.yul\":38990:39035   */\n      tag_393\n      jump\t// in\n    tag_754:\n        /* \"#utility.yul\":38985:38988   */\n      dup3\n        /* \"#utility.yul\":38978:39036   */\n      mstore\n        /* \"#utility.yul\":38885:39042   */\n      pop\n      pop\n      jump\t// out\n        /* \"#utility.yul\":39048:39727   */\n    tag_282:\n        /* \"#utility.yul\":39244:39247   */\n      0x00\n        /* \"#utility.yul\":39259:39334   */\n      tag_757\n        /* \"#utility.yul\":39330:39333   */\n      dup3\n        /* \"#utility.yul\":39321:39327   */\n      dup8\n        /* \"#utility.yul\":39259:39334   */\n      tag_390\n      jump\t// in\n    tag_757:\n        /* \"#utility.yul\":39359:39361   */\n      0x20\n        /* \"#utility.yul\":39354:39357   */\n      dup3\n        /* \"#utility.yul\":39350:39362   */\n      add\n        /* \"#utility.yul\":39343:39362   */\n      swap2\n      pop\n        /* \"#utility.yul\":39372:39447   */\n      tag_758\n        /* \"#utility.yul\":39443:39446   */\n      dup3\n        /* \"#utility.yul\":39434:39440   */\n      dup7\n        /* \"#utility.yul\":39372:39447   */\n      tag_390\n      jump\t// in\n    tag_758:\n        /* \"#utility.yul\":39472:39474   */\n      0x20\n        /* \"#utility.yul\":39467:39470   */\n      dup3\n        /* \"#utility.yul\":39463:39475   */\n      add\n        /* \"#utility.yul\":39456:39475   */\n      swap2\n      pop\n        /* \"#utility.yul\":39485:39560   */\n      tag_759\n        /* \"#utility.yul\":39556:39559   */\n      dup3\n        /* \"#utility.yul\":39547:39553   */\n      dup6\n        /* \"#utility.yul\":39485:39560   */\n      tag_394\n      jump\t// in\n    tag_759:\n        /* \"#utility.yul\":39585:39587   */\n      0x14\n        /* \"#utility.yul\":39580:39583   */\n      dup3\n        /* \"#utility.yul\":39576:39588   */\n      add\n        /* \"#utility.yul\":39569:39588   */\n      swap2\n      pop\n        /* \"#utility.yul\":39598:39673   */\n      tag_760\n        /* \"#utility.yul\":39669:39672   */\n      dup3\n        /* \"#utility.yul\":39660:39666   */\n      dup5\n        /* \"#utility.yul\":39598:39673   */\n      tag_390\n      jump\t// in\n    tag_760:\n        /* \"#utility.yul\":39698:39700   */\n      0x20\n        /* \"#utility.yul\":39693:39696   */\n      dup3\n        /* \"#utility.yul\":39689:39701   */\n      add\n        /* \"#utility.yul\":39682:39701   */\n      swap2\n      pop\n        /* \"#utility.yul\":39718:39721   */\n      dup2\n        /* \"#utility.yul\":39711:39721   */\n      swap1\n      pop\n        /* \"#utility.yul\":39048:39727   */\n      swap6\n      swap5\n      pop\n      pop\n      pop\n      pop\n      pop\n      jump\t// out\n        /* \"#utility.yul\":39733:39909   */\n    tag_284:\n        /* \"#utility.yul\":39765:39766   */\n      0x00\n        /* \"#utility.yul\":39782:39802   */\n      tag_762\n        /* \"#utility.yul\":39800:39801   */\n      dup3\n        /* \"#utility.yul\":39782:39802   */\n      tag_326\n      jump\t// in\n    tag_762:\n        /* \"#utility.yul\":39777:39802   */\n      swap2\n      pop\n        /* \"#utility.yul\":39816:39836   */\n      tag_763\n        /* \"#utility.yul\":39834:39835   */\n      dup4\n        /* \"#utility.yul\":39816:39836   */\n      tag_326\n      jump\t// in\n    tag_763:\n        /* \"#utility.yul\":39811:39836   */\n      swap3\n      pop\n        /* \"#utility.yul\":39855:39856   */\n      dup3\n        /* \"#utility.yul\":39845:39880   */\n      tag_764\n      jumpi\n        /* \"#utility.yul\":39860:39878   */\n      tag_765\n      tag_358\n      jump\t// in\n    tag_765:\n        /* \"#utility.yul\":39845:39880   */\n    tag_764:\n        /* \"#utility.yul\":39901:39902   */\n      dup3\n        /* \"#utility.yul\":39898:39899   */\n      dup3\n        /* \"#utility.yul\":39894:39903   */\n      mod\n        /* \"#utility.yul\":39889:39903   */\n      swap1\n      pop\n        /* \"#utility.yul\":39733:39909   */\n      swap3\n      swap2\n      pop\n      pop\n      jump\t// out\n\n    auxdata: 0xa2646970667358221220bcd904414b2c8fc85759022b310d9c10f5867830f6c720e1d4939265d367f75c64736f6c634300081f0033\n}\n",
				"bytecode": {
					"linkReferences": {},
					"object": "60c060405234801561000f575f5ffd5b5060405161406e38038061406e833981810160405281019061003191906103de565b835f73ffffffffffffffffffffffffffffffffffffffff168173ffffffffffffffffffffffffffffffffffffffff16036100a2575f6040517f1e4fbdf70000000000000000000000000000000000000000000000000000000081526004016100999190610492565b60405180910390fd5b6100b18161014360201b60201c565b508573ffffffffffffffffffffffffffffffffffffffff1660a08173ffffffffffffffffffffffffffffffffffffffff168152505081600281905550806003819055508473ffffffffffffffffffffffffffffffffffffffff1660808173ffffffffffffffffffffffffffffffffffffffff1681525050826001908161013791906106b2565b50505050505050610781565b5f5f5f9054906101000a900473ffffffffffffffffffffffffffffffffffffffff169050815f5f6101000a81548173ffffffffffffffffffffffffffffffffffffffff021916908373ffffffffffffffffffffffffffffffffffffffff1602179055508173ffffffffffffffffffffffffffffffffffffffff168173ffffffffffffffffffffffffffffffffffffffff167f8be0079c531659141344cd1fd0a4f28419497f9722a3daafe3b4186f6b6457e060405160405180910390a35050565b5f604051905090565b5f5ffd5b5f5ffd5b5f73ffffffffffffffffffffffffffffffffffffffff82169050919050565b5f61023e82610215565b9050919050565b61024e81610234565b8114610258575f5ffd5b50565b5f8151905061026981610245565b92915050565b5f5ffd5b5f5ffd5b5f601f19601f8301169050919050565b7f4e487b71000000000000000000000000000000000000000000000000000000005f52604160045260245ffd5b6102bd82610277565b810181811067ffffffffffffffff821117156102dc576102db610287565b5b80604052505050565b5f6102ee610204565b90506102fa82826102b4565b919050565b5f67ffffffffffffffff82111561031957610318610287565b5b61032282610277565b9050602081019050919050565b8281835e5f83830152505050565b5f61034f61034a846102ff565b6102e5565b90508281526020810184848401111561036b5761036a610273565b5b61037684828561032f565b509392505050565b5f82601f8301126103925761039161026f565b5b81516103a284826020860161033d565b91505092915050565b5f819050919050565b6103bd816103ab565b81146103c7575f5ffd5b50565b5f815190506103d8816103b4565b92915050565b5f5f5f5f5f5f60c087890312156103f8576103f761020d565b5b5f61040589828a0161025b565b965050602061041689828a0161025b565b955050604061042789828a0161025b565b945050606087015167ffffffffffffffff81111561044857610447610211565b5b61045489828a0161037e565b935050608061046589828a016103ca565b92505060a061047689828a016103ca565b9150509295509295509295565b61048c81610234565b82525050565b5f6020820190506104a55f830184610483565b92915050565b5f81519050919050565b7f4e487b71000000000000000000000000000000000000000000000000000000005f52602260045260245ffd5b5f60028204905060018216806104f957607f821691505b60208210810361050c5761050b6104b5565b5b50919050565b5f819050815f5260205f209050919050565b5f6020601f8301049050919050565b5f82821b905092915050565b5f6008830261056e7fffffffffffffffffffffffffffffffffffffffffffffffffffffffffffffffff82610533565b6105788683610533565b95508019841693508086168417925050509392505050565b5f819050919050565b5f6105b36105ae6105a9846103ab565b610590565b6103ab565b9050919050565b5f819050919050565b6105cc83610599565b6105e06105d8826105ba565b84845461053f565b825550505050565b5f5f905090565b6105f76105e8565b6106028184846105c3565b505050565b5b818110156106255761061a5f826105ef565b600181019050610608565b5050565b601f82111561066a5761063b81610512565b61064484610524565b81016020851015610653578190505b61066761065f85610524565b830182610607565b50505b505050565b5f82821c905092915050565b5f61068a5f198460080261066f565b1980831691505092915050565b5f6106a2838361067b565b9150826002028217905092915050565b6106bb826104ab565b67ffffffffffffffff8111156106d4576106d3610287565b5b6106de82546104e2565b6106e9828285610629565b5f60209050601f83116001811461071a575f8415610708578287015190505b6107128582610697565b865550610779565b601f19841661072886610512565b5f5b8281101561074f5784890151825560018201915060208501945060208101905061072a565b8683101561076c5784890151610768601f89168261067b565b8355505b6001600288020188555050505b505050505050565b60805160a0516138b06107be5f395f8181610dbb015281816118450152818161195e0152611f6c01525f81816103c1015261198201526138b05ff3fe608060405234801561000f575f5ffd5b50600436106100fd575f3560e01c80638e27d71911610095578063d23ce9e511610064578063d23ce9e514610299578063f139721c146102b5578063f2fde38b146102d1578063f8897945146102ed576100fd565b80638e27d71914610211578063adb519801461022d578063b5f8558c1461025d578063bf4d766e1461027b576100fd565b80636ac5db19116100d15780636ac5db19146101af578063715018a6146101cd5780637a9eceb4146101d75780638da5cb5b146101f3576100fd565b8062dad7d41461010157806305d09fb11461011f578063240028e81461014f5780635137959f1461017f575b5f5ffd5b61010961030b565b6040516101169190612593565b60405180910390f35b610139600480360381019061013491906126f0565b610397565b6040516101469190612776565b60405180910390f35b610169600480360381019061016491906127b9565b6104b4565b60405161017691906127fe565b60405180910390f35b61019960048036038101906101949190612817565b6104d1565b6040516101a6919061286d565b60405180910390f35b6101b76104f1565b6040516101c4919061286d565b60405180910390f35b6101d56104f7565b005b6101f160048036038101906101ec919061290d565b61050a565b005b6101fb610eb5565b6040516102089190612776565b60405180910390f35b61022b60048036038101906102269190612991565b610edc565b005b61024760048036038101906102429190612817565b61193c565b604051610254919061286d565b60405180910390f35b61026561195c565b6040516102729190612a49565b60405180910390f35b610283611980565b6040516102909190612a82565b60405180910390f35b6102b360048036038101906102ae9190612af0565b6119a4565b005b6102cf60048036038101906102ca9190612bb4565b611ffb565b005b6102eb60048036038101906102e691906127b9565b6120f3565b005b6102f5612177565b604051610302919061286d565b60405180910390f35b6001805461031890612c2c565b80601f016020809104026020016040519081016040528092919081815260200182805461034490612c2c565b801561038f5780601f106103665761010080835404028352916020019161038f565b820191905f5260205f20905b81548152906001019060200180831161037257829003601f168201915b505050505081565b5f5f8260016040516020016103ad929190612d72565b60405160208183030381529060405290505f7f000000000000000000000000000000000000000000000000000000000000000073ffffffffffffffffffffffffffffffffffffffff166316f1adc1836040518263ffffffff1660e01b81526004016104189190612dea565b5f60405180830381865afa158015610432573d5f5f3e3d5ffd5b505050506040513d5f823e3d601f19601f8201168201806040525081019061045a9190612ebb565b90506014815110156104a1576040517f08c379a000000000000000000000000000000000000000000000000000000000815260040161049890612f72565b60405180910390fd5b5f60148201519050809350505050919050565b6007602052805f5260405f205f915054906101000a900460ff1681565b6006602052815f5260405f20602052805f5260405f205f91509150505481565b60035481565b6104ff61217d565b6105085f612204565b565b61051261217d565b5f61055f85858080601f0160208091040260200160405190810160405280939291908181526020018383808284375f81840152601f19601f82011690508083019250505050505050610397565b905060075f8273ffffffffffffffffffffffffffffffffffffffff1673ffffffffffffffffffffffffffffffffffffffff1681526020019081526020015f205f9054906101000a900460ff166105ea576040517f08c379a00000000000000000000000000000000000000000000000000000000081526004016105e190612fda565b60405180910390fd5b5f6105f36122c5565b90505f5f90505f60055f8a73ffffffffffffffffffffffffffffffffffffffff1673ffffffffffffffffffffffffffffffffffffffff1681526020019081526020015f205f8573ffffffffffffffffffffffffffffffffffffffff1673ffffffffffffffffffffffffffffffffffffffff1681526020019081526020015f205490505f60065f8b73ffffffffffffffffffffffffffffffffffffffff1673ffffffffffffffffffffffffffffffffffffffff1681526020019081526020015f205f8673ffffffffffffffffffffffffffffffffffffffff1673ffffffffffffffffffffffffffffffffffffffff1681526020019081526020015f205490505f821180156106ff57505f81115b801561070a57508042115b1561074b575f814261071c9190613025565b9050660b342eb7c380008186856107339190613058565b61073d9190613058565b61074791906130c6565b9350505b5f838361075891906130f6565b90508781101561079d576040517f08c379a000000000000000000000000000000000000000000000000000000000815260040161079490613173565b60405180910390fd5b87816107a99190613025565b60055f8d73ffffffffffffffffffffffffffffffffffffffff1673ffffffffffffffffffffffffffffffffffffffff1681526020019081526020015f205f8873ffffffffffffffffffffffffffffffffffffffff1673ffffffffffffffffffffffffffffffffffffffff1681526020019081526020015f20819055504260065f8d73ffffffffffffffffffffffffffffffffffffffff1673ffffffffffffffffffffffffffffffffffffffff1681526020019081526020015f205f8873ffffffffffffffffffffffffffffffffffffffff1673ffffffffffffffffffffffffffffffffffffffff1681526020019081526020015f20819055506108cd8b898873ffffffffffffffffffffffffffffffffffffffff166123809092919063ffffffff16565b5f600667ffffffffffffffff8111156108e9576108e86125cc565b5b60405190808252806020026020018201604052801561092257816020015b61090f612502565b8152602001906001900390816109075790505b50905060405180606001604052806040518060400160405280600481526020017f757365720000000000000000000000000000000000000000000000000000000081525081526020016040518060400160405280600781526020017f616464726573730000000000000000000000000000000000000000000000000081525081526020018d6040516020016109b79190612776565b604051602081830303815290604052815250815f815181106109dc576109db613191565b5b602002602001018190525060405180606001604052806040518060400160405280600681526020017f616d6f756e74000000000000000000000000000000000000000000000000000081525081526020016040518060400160405280600781526020017f75696e743235360000000000000000000000000000000000000000000000000081525081526020018a604051602001610a79919061286d565b60405160208183030381529060405281525081600181518110610a9f57610a9e613191565b5b602002602001018190525060405180606001604052806040518060400160405280600581526020017f746f6b656e00000000000000000000000000000000000000000000000000000081525081526020016040518060400160405280600681526020017f737472696e67000000000000000000000000000000000000000000000000000081525081526020018c8c604051602001610b3e9291906131ea565b60405160208183030381529060405281525081600281518110610b6457610b63613191565b5b602002602001018190525060405180606001604052806040518060400160405280600881526020017f70726f766964657200000000000000000000000000000000000000000000000081525081526020016040518060400160405280600681526020017f737472696e67000000000000000000000000000000000000000000000000000081525081526020016001604051602001610c02919061328d565b60405160208183030381529060405281525081600381518110610c2857610c27613191565b5b602002602001018190525060405180606001604052806040518060400160405280600981526020017f6e756c6c6966696572000000000000000000000000000000000000000000000081525081526020016040518060400160405280600781526020017f75696e7432353600000000000000000000000000000000000000000000000000815250815260200189604051602001610cc5919061286d565b60405160208183030381529060405281525081600481518110610ceb57610cea613191565b5b602002602001018190525060405180606001604052806040518060400160405280600981526020017f74696d657374616d70000000000000000000000000000000000000000000000081525081526020016040518060400160405280600781526020017f75696e7432353600000000000000000000000000000000000000000000000000815250815260200142604051602001610d88919061286d565b60405160208183030381529060405281525081600581518110610dae57610dad613191565b5b60200260200101819052507f000000000000000000000000000000000000000000000000000000000000000073ffffffffffffffffffffffffffffffffffffffff16637d64fa9b826040518263ffffffff1660e01b8152600401610e1291906134a7565b5f604051808303815f87803b158015610e29575f5ffd5b505af1158015610e3b573d5f5f3e3d5ffd5b505050508673ffffffffffffffffffffffffffffffffffffffff168c73ffffffffffffffffffffffffffffffffffffffff167fcc4f8702356931e6d23a93d1b60beac6a7ea77d447ada4b1502a09d0b71257098b6001604051610e9f9291906134da565b60405180910390a3505050505050505050505050565b5f5f5f9054906101000a900473ffffffffffffffffffffffffffffffffffffffff16905090565b5f610f2984848080601f0160208091040260200160405190810160405280939291908181526020018383808284375f81840152601f19601f82011690508083019250505050505050610397565b905060075f8273ffffffffffffffffffffffffffffffffffffffff1673ffffffffffffffffffffffffffffffffffffffff1681526020019081526020015f205f9054906101000a900460ff16610fb4576040517f08c379a0000000000000000000000000000000000000000000000000000000008152600401610fab90612fda565b60405180910390fd5b5f8211610ff6576040517f08c379a0000000000000000000000000000000000000000000000000000000008152600401610fed90613552565b60405180910390fd5b5f610fff6122c5565b90505f5f90505f60055f3373ffffffffffffffffffffffffffffffffffffffff1673ffffffffffffffffffffffffffffffffffffffff1681526020019081526020015f205f8573ffffffffffffffffffffffffffffffffffffffff1673ffffffffffffffffffffffffffffffffffffffff1681526020019081526020015f205490505f60065f3373ffffffffffffffffffffffffffffffffffffffff1673ffffffffffffffffffffffffffffffffffffffff1681526020019081526020015f205f8673ffffffffffffffffffffffffffffffffffffffff1673ffffffffffffffffffffffffffffffffffffffff1681526020019081526020015f205490505f8211801561110b57505f81115b801561111657508042115b15611157575f81426111289190613025565b9050660b342eb7c3800081868561113f9190613058565b6111499190613058565b61115391906130c6565b9350505b6111843330888873ffffffffffffffffffffffffffffffffffffffff166123d3909392919063ffffffff16565b82868361119191906130f6565b61119b91906130f6565b60055f3373ffffffffffffffffffffffffffffffffffffffff1673ffffffffffffffffffffffffffffffffffffffff1681526020019081526020015f205f8773ffffffffffffffffffffffffffffffffffffffff1673ffffffffffffffffffffffffffffffffffffffff1681526020019081526020015f20819055504260065f3373ffffffffffffffffffffffffffffffffffffffff1673ffffffffffffffffffffffffffffffffffffffff1681526020019081526020015f205f8773ffffffffffffffffffffffffffffffffffffffff1673ffffffffffffffffffffffffffffffffffffffff1681526020019081526020015f20819055505f600767ffffffffffffffff8111156112b0576112af6125cc565b5b6040519080825280602002602001820160405280156112e957816020015b6112d6612502565b8152602001906001900390816112ce5790505b50905060405180606001604052806040518060400160405280600481526020017f757365720000000000000000000000000000000000000000000000000000000081525081526020016040518060400160405280600781526020017f616464726573730000000000000000000000000000000000000000000000000081525081526020013360405160200161137e9190612776565b604051602081830303815290604052815250815f815181106113a3576113a2613191565b5b602002602001018190525060405180606001604052806040518060400160405280600681526020017f616d6f756e74000000000000000000000000000000000000000000000000000081525081526020016040518060400160405280600781526020017f75696e7432353600000000000000000000000000000000000000000000000000815250815260200188604051602001611440919061286d565b6040516020818303038152906040528152508160018151811061146657611465613191565b5b602002602001018190525060405180606001604052806040518060400160405280600581526020017f746f6b656e00000000000000000000000000000000000000000000000000000081525081526020016040518060400160405280600681526020017f737472696e67000000000000000000000000000000000000000000000000000081525081526020018a8a6040516020016115059291906131ea565b6040516020818303038152906040528152508160028151811061152b5761152a613191565b5b602002602001018190525060405180606001604052806040518060400160405280600881526020017f70726f766964657200000000000000000000000000000000000000000000000081525081526020016040518060400160405280600681526020017f737472696e670000000000000000000000000000000000000000000000000000815250815260200160016040516020016115c9919061328d565b604051602081830303815290604052815250816003815181106115ef576115ee613191565b5b602002602001018190525060405180606001604052806040518060400160405280600981526020017f74696d657374616d70000000000000000000000000000000000000000000000081525081526020016040518060400160405280600781526020017f75696e743235360000000000000000000000000000000000000000000000000081525081526020014260405160200161168c919061286d565b604051602081830303815290604052815250816004815181106116b2576116b1613191565b5b602002602001018190525060405180606001604052806040518060400160405280600481526020017f726174650000000000000000000000000000000000000000000000000000000081525081526020016040518060400160405280600781526020017f75696e743235360000000000000000000000000000000000000000000000000081525081526020018660405160200161174f919061286d565b6040516020818303038152906040528152508160058151811061177557611774613191565b5b602002602001018190525060405180606001604052806040518060400160405280600781526020017f726577617264730000000000000000000000000000000000000000000000000081525081526020016040518060400160405280600781526020017f75696e7432353600000000000000000000000000000000000000000000000000815250815260200185604051602001611812919061286d565b6040516020818303038152906040528152508160068151811061183857611837613191565b5b60200260200101819052507f000000000000000000000000000000000000000000000000000000000000000073ffffffffffffffffffffffffffffffffffffffff16637d64fa9b826040518263ffffffff1660e01b815260040161189c91906135ba565b5f604051808303815f87803b1580156118b3575f5ffd5b505af11580156118c5573d5f5f3e3d5ffd5b505050508573ffffffffffffffffffffffffffffffffffffffff163373ffffffffffffffffffffffffffffffffffffffff167fef519b7eb82aaf6ac376a6df2d793843ebfd593de5f1a0601d3cc6ab49ebb3958960016040516119299291906134da565b60405180910390a3505050505050505050565b6005602052815f5260405f20602052805f5260405f205f91509150505481565b7f000000000000000000000000000000000000000000000000000000000000000081565b7f000000000000000000000000000000000000000000000000000000000000000081565b5f6119f184848080601f0160208091040260200160405190810160405280939291908181526020018383808284375f81840152601f19601f82011690508083019250505050505050610397565b905060075f8273ffffffffffffffffffffffffffffffffffffffff1673ffffffffffffffffffffffffffffffffffffffff1681526020019081526020015f205f9054906101000a900460ff16611a7c576040517f08c379a0000000000000000000000000000000000000000000000000000000008152600401611a7390612fda565b60405180910390fd5b5f600667ffffffffffffffff811115611a9857611a976125cc565b5b604051908082528060200260200182016040528015611ad157816020015b611abe612502565b815260200190600190039081611ab65790505b50905060405180606001604052806040518060400160405280600481526020017f757365720000000000000000000000000000000000000000000000000000000081525081526020016040518060400160405280600581526020017f627974657300000000000000000000000000000000000000000000000000000081525081526020018a8a604051602001611b68929190613629565b604051602081830303815290604052815250815f81518110611b8d57611b8c613191565b5b602002602001018190525060405180606001604052806040518060400160405280600681526020017f736861726564000000000000000000000000000000000000000000000000000081525081526020016040518060400160405280600781526020017f616464726573730000000000000000000000000000000000000000000000000081525081526020018888604051602001611c2c9291906131ea565b60405160208183030381529060405281525081600181518110611c5257611c51613191565b5b602002602001018190525060405180606001604052806040518060400160405280600681526020017f616d6f756e74000000000000000000000000000000000000000000000000000081525081526020016040518060400160405280600781526020017f75696e7432353600000000000000000000000000000000000000000000000000815250815260200184604051602001611cef919061286d565b60405160208183030381529060405281525081600281518110611d1557611d14613191565b5b602002602001018190525060405180606001604052806040518060400160405280600581526020017f636861696e00000000000000000000000000000000000000000000000000000081525081526020016040518060400160405280600681526020017f737472696e6700000000000000000000000000000000000000000000000000008152508152602001604051602001611db090613695565b60405160208183030381529060405281525081600381518110611dd657611dd5613191565b5b602002602001018190525060405180606001604052806040518060400160405280600881526020017f70726f766964657200000000000000000000000000000000000000000000000081525081526020016040518060400160405280600681526020017f737472696e67000000000000000000000000000000000000000000000000000081525081526020016001604051602001611e74919061328d565b60405160208183030381529060405281525081600481518110611e9a57611e99613191565b5b602002602001018190525060405180606001604052806040518060400160405280600581526020017f746f6b656e00000000000000000000000000000000000000000000000000000081525081526020016040518060400160405280600681526020017f737472696e67000000000000000000000000000000000000000000000000000081525081526020018686604051602001611f399291906131ea565b60405160208183030381529060405281525081600581518110611f5f57611f5e613191565b5b60200260200101819052507f000000000000000000000000000000000000000000000000000000000000000073ffffffffffffffffffffffffffffffffffffffff16637d64fa9b826040518263ffffffff1660e01b8152600401611fc391906136fd565b5f604051808303815f87803b158015611fda575f5ffd5b505af1158015611fec573d5f5f3e3d5ffd5b50505050505050505050505050565b5f61204883838080601f0160208091040260200160405190810160405280939291908181526020018383808284375f81840152601f19601f82011690508083019250505050505050610397565b9050600160075f8373ffffffffffffffffffffffffffffffffffffffff1673ffffffffffffffffffffffffffffffffffffffff1681526020019081526020015f205f6101000a81548160ff0219169083151502179055508073ffffffffffffffffffffffffffffffffffffffff167fd57b1148efb91f418a2178fc1fb4ba12f9400a4dc8e71851fd59e85d337c609f60016040516120e6919061328d565b60405180910390a2505050565b6120fb61217d565b5f73ffffffffffffffffffffffffffffffffffffffff168173ffffffffffffffffffffffffffffffffffffffff160361216b575f6040517f1e4fbdf70000000000000000000000000000000000000000000000000000000081526004016121629190612776565b60405180910390fd5b61217481612204565b50565b60025481565b612185612428565b73ffffffffffffffffffffffffffffffffffffffff166121a3610eb5565b73ffffffffffffffffffffffffffffffffffffffff1614612202576121c6612428565b6040517f118cdaa70000000000000000000000000000000000000000000000000000000081526004016121f99190612776565b60405180910390fd5b565b5f5f5f9054906101000a900473ffffffffffffffffffffffffffffffffffffffff169050815f5f6101000a81548173ffffffffffffffffffffffffffffffffffffffff021916908373ffffffffffffffffffffffffffffffffffffffff1602179055508173ffffffffffffffffffffffffffffffffffffffff168173ffffffffffffffffffffffffffffffffffffffff167f8be0079c531659141344cd1fd0a4f28419497f9722a3daafe3b4186f6b6457e060405160405180910390a35050565b5f600254600354101561230d576040517f08c379a00000000000000000000000000000000000000000000000000000000081526004016123049061377a565b60405180910390fd5b5f60016002546003546123209190613025565b61232a91906130f6565b90505f42443360045460405160200161234694939291906137fd565b60405160208183030381529060405280519060200120905081815f1c61236c919061384a565b60025461237991906130f6565b9250505090565b61238d838383600161242f565b6123ce57826040517f5274afe70000000000000000000000000000000000000000000000000000000081526004016123c59190612776565b60405180910390fd5b505050565b6123e1848484846001612491565b61242257836040517f5274afe70000000000000000000000000000000000000000000000000000000081526004016124199190612776565b60405180910390fd5b50505050565b5f33905090565b5f5f63a9059cbb60e01b9050604051815f525f1960601c86166004528460245260205f60445f5f8b5af1925060015f51148316612483578383151615612477573d5f823e3d81fd5b5f873b113d1516831692505b806040525050949350505050565b5f5f6323b872dd60e01b9050604051815f525f1960601c87166004525f1960601c86166024528460445260205f60645f5f8c5af1925060015f511483166124ef5783831516156124e3573d5f823e3d81fd5b5f883b113d1516831692505b806040525f606052505095945050505050565b60405180606001604052806060815260200160608152602001606081525090565b5f81519050919050565b5f82825260208201905092915050565b8281835e5f83830152505050565b5f601f19601f8301169050919050565b5f61256582612523565b61256f818561252d565b935061257f81856020860161253d565b6125888161254b565b840191505092915050565b5f6020820190508181035f8301526125ab818461255b565b905092915050565b5f604051905090565b5f5ffd5b5f5ffd5b5f5ffd5b5f5ffd5b7f4e487b71000000000000000000000000000000000000000000000000000000005f52604160045260245ffd5b6126028261254b565b810181811067ffffffffffffffff82111715612621576126206125cc565b5b80604052505050565b5f6126336125b3565b905061263f82826125f9565b919050565b5f67ffffffffffffffff82111561265e5761265d6125cc565b5b6126678261254b565b9050602081019050919050565b828183375f83830152505050565b5f61269461268f84612644565b61262a565b9050828152602081018484840111156126b0576126af6125c8565b5b6126bb848285612674565b509392505050565b5f82601f8301126126d7576126d66125c4565b5b81356126e7848260208601612682565b91505092915050565b5f60208284031215612705576127046125bc565b5b5f82013567ffffffffffffffff811115612722576127216125c0565b5b61272e848285016126c3565b91505092915050565b5f73ffffffffffffffffffffffffffffffffffffffff82169050919050565b5f61276082612737565b9050919050565b61277081612756565b82525050565b5f6020820190506127895f830184612767565b92915050565b61279881612756565b81146127a2575f5ffd5b50565b5f813590506127b38161278f565b92915050565b5f602082840312156127ce576127cd6125bc565b5b5f6127db848285016127a5565b91505092915050565b5f8115159050919050565b6127f8816127e4565b82525050565b5f6020820190506128115f8301846127ef565b92915050565b5f5f6040838503121561282d5761282c6125bc565b5b5f61283a858286016127a5565b925050602061284b858286016127a5565b9150509250929050565b5f819050919050565b61286781612855565b82525050565b5f6020820190506128805f83018461285e565b92915050565b5f5ffd5b5f5ffd5b5f5f83601f8401126128a3576128a26125c4565b5b8235905067ffffffffffffffff8111156128c0576128bf612886565b5b6020830191508360018202830111156128dc576128db61288a565b5b9250929050565b6128ec81612855565b81146128f6575f5ffd5b50565b5f81359050612907816128e3565b92915050565b5f5f5f5f5f60808688031215612926576129256125bc565b5b5f612933888289016127a5565b955050602086013567ffffffffffffffff811115612954576129536125c0565b5b6129608882890161288e565b94509450506040612973888289016128f9565b9250506060612984888289016128f9565b9150509295509295909350565b5f5f5f604084860312156129a8576129a76125bc565b5b5f84013567ffffffffffffffff8111156129c5576129c46125c0565b5b6129d18682870161288e565b935093505060206129e4868287016128f9565b9150509250925092565b5f819050919050565b5f612a11612a0c612a0784612737565b6129ee565b612737565b9050919050565b5f612a22826129f7565b9050919050565b5f612a3382612a18565b9050919050565b612a4381612a29565b82525050565b5f602082019050612a5c5f830184612a3a565b92915050565b5f612a6c82612a18565b9050919050565b612a7c81612a62565b82525050565b5f602082019050612a955f830184612a73565b92915050565b5f5f83601f840112612ab057612aaf6125c4565b5b8235905067ffffffffffffffff811115612acd57612acc612886565b5b602083019150836001820283011115612ae957612ae861288a565b5b9250929050565b5f5f5f5f5f5f5f6080888a031215612b0b57612b0a6125bc565b5b5f88013567ffffffffffffffff811115612b2857612b276125c0565b5b612b348a828b01612a9b565b9750975050602088013567ffffffffffffffff811115612b5757612b566125c0565b5b612b638a828b0161288e565b9550955050604088013567ffffffffffffffff811115612b8657612b856125c0565b5b612b928a828b0161288e565b93509350506060612ba58a828b016128f9565b91505092959891949750929550565b5f5f60208385031215612bca57612bc96125bc565b5b5f83013567ffffffffffffffff811115612be757612be66125c0565b5b612bf38582860161288e565b92509250509250929050565b7f4e487b71000000000000000000000000000000000000000000000000000000005f52602260045260245ffd5b5f6002820490506001821680612c4357607f821691505b602082108103612c5657612c55612bff565b5b50919050565b5f81905092915050565b5f612c7082612523565b612c7a8185612c5c565b9350612c8a81856020860161253d565b80840191505092915050565b7f5f000000000000000000000000000000000000000000000000000000000000005f82015250565b5f612cca600183612c5c565b9150612cd582612c96565b600182019050919050565b5f819050815f5260205f209050919050565b5f8154612cfe81612c2c565b612d088186612c5c565b9450600182165f8114612d225760018114612d3757612d69565b60ff1983168652811515820286019350612d69565b612d4085612ce0565b5f5b83811015612d6157815481890152600182019150602081019050612d42565b838801955050505b50505092915050565b5f612d7d8285612c66565b9150612d8882612cbe565b9150612d948284612cf2565b91508190509392505050565b7f51696172614d6f6e6164417373657473000000000000000000000000000000005f82015250565b5f612dd460108361252d565b9150612ddf82612da0565b602082019050919050565b5f6040820190508181035f830152612e0181612dc8565b90508181036020830152612e15818461255b565b905092915050565b5f67ffffffffffffffff821115612e3757612e366125cc565b5b612e408261254b565b9050602081019050919050565b5f612e5f612e5a84612e1d565b61262a565b905082815260208101848484011115612e7b57612e7a6125c8565b5b612e8684828561253d565b509392505050565b5f82601f830112612ea257612ea16125c4565b5b8151612eb2848260208601612e4d565b91505092915050565b5f60208284031215612ed057612ecf6125bc565b5b5f82015167ffffffffffffffff811115612eed57612eec6125c0565b5b612ef984828501612e8e565b91505092915050565b7f5661756c743a204173736574206e6f7420666f756e6420696e207265676973745f8201527f7279000000000000000000000000000000000000000000000000000000000000602082015250565b5f612f5c60228361252d565b9150612f6782612f02565b604082019050919050565b5f6020820190508181035f830152612f8981612f50565b9050919050565b7f5661756c743a20546f6b656e206e6f7420737570706f727465640000000000005f82015250565b5f612fc4601a8361252d565b9150612fcf82612f90565b602082019050919050565b5f6020820190508181035f830152612ff181612fb8565b9050919050565b7f4e487b71000000000000000000000000000000000000000000000000000000005f52601160045260245ffd5b5f61302f82612855565b915061303a83612855565b925082820390508181111561305257613051612ff8565b5b92915050565b5f61306282612855565b915061306d83612855565b925082820261307b81612855565b9150828204841483151761309257613091612ff8565b5b5092915050565b7f4e487b71000000000000000000000000000000000000000000000000000000005f52601260045260245ffd5b5f6130d082612855565b91506130db83612855565b9250826130eb576130ea613099565b5b828204905092915050565b5f61310082612855565b915061310b83612855565b925082820190508082111561312357613122612ff8565b5b92915050565b7f5661756c743a20496e73756666696369656e742062616c616e636500000000005f82015250565b5f61315d601b8361252d565b915061316882613129565b602082019050919050565b5f6020820190508181035f83015261318a81613151565b9050919050565b7f4e487b71000000000000000000000000000000000000000000000000000000005f52603260045260245ffd5b5f6131c9838561252d565b93506131d6838584612674565b6131df8361254b565b840190509392505050565b5f6020820190508181035f8301526132038184866131be565b90509392505050565b5f815461321881612c2c565b613222818661252d565b9450600182165f811461323c576001811461325257613284565b60ff198316865281151560200286019350613284565b61325b85612ce0565b5f5b8381101561327c5781548189015260018201915060208101905061325d565b808801955050505b50505092915050565b5f6020820190508181035f8301526132a5818461320c565b905092915050565b7f44697265637420576974686472617700000000000000000000000000000000005f82015250565b5f6132e1600f8361252d565b91506132ec826132ad565b602082019050919050565b5f81519050919050565b5f82825260208201905092915050565b5f819050602082019050919050565b5f82825260208201905092915050565b5f61333a82612523565b6133448185613320565b935061335481856020860161253d565b61335d8161254b565b840191505092915050565b5f81519050919050565b5f82825260208201905092915050565b5f61338c82613368565b6133968185613372565b93506133a681856020860161253d565b6133af8161254b565b840191505092915050565b5f606083015f8301518482035f8601526133d48282613330565b915050602083015184820360208601526133ee8282613330565b915050604083015184820360408601526134088282613382565b9150508091505092915050565b5f61342083836133ba565b905092915050565b5f602082019050919050565b5f61343e826132f7565b6134488185613301565b93508360208202850161345a85613311565b805f5b8581101561349557848403895281516134768582613415565b945061348183613428565b925060208a0199505060018101905061345d565b50829750879550505050505092915050565b5f6040820190508181035f8301526134be816132d5565b905081810360208301526134d28184613434565b905092915050565b5f6040820190506134ed5f83018561285e565b81810360208301526134ff818461320c565b90509392505050565b7f5661756c743a204465706f736974206d757374206265203e20300000000000005f82015250565b5f61353c601a8361252d565b915061354782613508565b602082019050919050565b5f6020820190508181035f83015261356981613530565b9050919050565b7f4465706f736974000000000000000000000000000000000000000000000000005f82015250565b5f6135a460078361252d565b91506135af82613570565b602082019050919050565b5f6040820190508181035f8301526135d181613598565b905081810360208301526135e58184613434565b905092915050565b5f82825260208201905092915050565b5f61360883856135ed565b9350613615838584612674565b61361e8361254b565b840190509392505050565b5f6020820190508181035f8301526136428184866135fd565b90509392505050565b7f62617365000000000000000000000000000000000000000000000000000000005f82015250565b5f61367f60048361252d565b915061368a8261364b565b602082019050919050565b5f6020820190508181035f8301526136ac81613673565b9050919050565b7f4d6f64756c6172205769746864726177000000000000000000000000000000005f82015250565b5f6136e760108361252d565b91506136f2826136b3565b602082019050919050565b5f6040820190508181035f830152613714816136db565b905081810360208301526137288184613434565b905092915050565b7f5661756c743a204d6178206d757374206265203e3d204d696e000000000000005f82015250565b5f61376460198361252d565b915061376f82613730565b602082019050919050565b5f6020820190508181035f83015261379181613758565b9050919050565b5f819050919050565b6137b26137ad82612855565b613798565b82525050565b5f8160601b9050919050565b5f6137ce826137b8565b9050919050565b5f6137df826137c4565b9050919050565b6137f76137f282612756565b6137d5565b82525050565b5f61380882876137a1565b60208201915061381882866137a1565b60208201915061382882856137e6565b60148201915061383882846137a1565b60208201915081905095945050505050565b5f61385482612855565b915061385f83612855565b92508261386f5761386e613099565b5b82820690509291505056fea2646970667358221220bcd904414b2c8fc85759022b310d9c10f5867830f6c720e1d4939265d367f75c64736f6c634300081f0033",
					"opcodes": "PUSH1 0xC0 PUSH1 0x40 MSTORE CALLVALUE DUP1 ISZERO PUSH2 0xF JUMPI PUSH0 PUSH0 REVERT JUMPDEST POP PUSH1 0x40 MLOAD PUSH2 0x406E CODESIZE SUB DUP1 PUSH2 0x406E DUP4 CODECOPY DUP2 DUP2 ADD PUSH1 0x40 MSTORE DUP2 ADD SWAP1 PUSH2 0x31 SWAP2 SWAP1 PUSH2 0x3DE JUMP JUMPDEST DUP4 PUSH0 PUSH20 0xFFFFFFFFFFFFFFFFFFFFFFFFFFFFFFFFFFFFFFFF AND DUP2 PUSH20 0xFFFFFFFFFFFFFFFFFFFFFFFFFFFFFFFFFFFFFFFF AND SUB PUSH2 0xA2 JUMPI PUSH0 PUSH1 0x40 MLOAD PUSH32 0x1E4FBDF700000000000000000000000000000000000000000000000000000000 DUP2 MSTORE PUSH1 0x4 ADD PUSH2 0x99 SWAP2 SWAP1 PUSH2 0x492 JUMP JUMPDEST PUSH1 0x40 MLOAD DUP1 SWAP2 SUB SWAP1 REVERT JUMPDEST PUSH2 0xB1 DUP2 PUSH2 0x143 PUSH1 0x20 SHL PUSH1 0x20 SHR JUMP JUMPDEST POP DUP6 PUSH20 0xFFFFFFFFFFFFFFFFFFFFFFFFFFFFFFFFFFFFFFFF AND PUSH1 0xA0 DUP2 PUSH20 0xFFFFFFFFFFFFFFFFFFFFFFFFFFFFFFFFFFFFFFFF AND DUP2 MSTORE POP POP DUP2 PUSH1 0x2 DUP2 SWAP1 SSTORE POP DUP1 PUSH1 0x3 DUP2 SWAP1 SSTORE POP DUP5 PUSH20 0xFFFFFFFFFFFFFFFFFFFFFFFFFFFFFFFFFFFFFFFF AND PUSH1 0x80 DUP2 PUSH20 0xFFFFFFFFFFFFFFFFFFFFFFFFFFFFFFFFFFFFFFFF AND DUP2 MSTORE POP POP DUP3 PUSH1 0x1 SWAP1 DUP2 PUSH2 0x137 SWAP2 SWAP1 PUSH2 0x6B2 JUMP JUMPDEST POP POP POP POP POP POP POP PUSH2 0x781 JUMP JUMPDEST PUSH0 PUSH0 PUSH0 SWAP1 SLOAD SWAP1 PUSH2 0x100 EXP SWAP1 DIV PUSH20 0xFFFFFFFFFFFFFFFFFFFFFFFFFFFFFFFFFFFFFFFF AND SWAP1 POP DUP2 PUSH0 PUSH0 PUSH2 0x100 EXP DUP2 SLOAD DUP2 PUSH20 0xFFFFFFFFFFFFFFFFFFFFFFFFFFFFFFFFFFFFFFFF MUL NOT AND SWAP1 DUP4 PUSH20 0xFFFFFFFFFFFFFFFFFFFFFFFFFFFFFFFFFFFFFFFF AND MUL OR SWAP1 SSTORE POP DUP2 PUSH20 0xFFFFFFFFFFFFFFFFFFFFFFFFFFFFFFFFFFFFFFFF AND DUP2 PUSH20 0xFFFFFFFFFFFFFFFFFFFFFFFFFFFFFFFFFFFFFFFF AND PUSH32 0x8BE0079C531659141344CD1FD0A4F28419497F9722A3DAAFE3B4186F6B6457E0 PUSH1 0x40 MLOAD PUSH1 0x40 MLOAD DUP1 SWAP2 SUB SWAP1 LOG3 POP POP JUMP JUMPDEST PUSH0 PUSH1 0x40 MLOAD SWAP1 POP SWAP1 JUMP JUMPDEST PUSH0 PUSH0 REVERT JUMPDEST PUSH0 PUSH0 REVERT JUMPDEST PUSH0 PUSH20 0xFFFFFFFFFFFFFFFFFFFFFFFFFFFFFFFFFFFFFFFF DUP3 AND SWAP1 POP SWAP2 SWAP1 POP JUMP JUMPDEST PUSH0 PUSH2 0x23E DUP3 PUSH2 0x215 JUMP JUMPDEST SWAP1 POP SWAP2 SWAP1 POP JUMP JUMPDEST PUSH2 0x24E DUP2 PUSH2 0x234 JUMP JUMPDEST DUP2 EQ PUSH2 0x258 JUMPI PUSH0 PUSH0 REVERT JUMPDEST POP JUMP JUMPDEST PUSH0 DUP2 MLOAD SWAP1 POP PUSH2 0x269 DUP2 PUSH2 0x245 JUMP JUMPDEST SWAP3 SWAP2 POP POP JUMP JUMPDEST PUSH0 PUSH0 REVERT JUMPDEST PUSH0 PUSH0 REVERT JUMPDEST PUSH0 PUSH1 0x1F NOT PUSH1 0x1F DUP4 ADD AND SWAP1 POP SWAP2 SWAP1 POP JUMP JUMPDEST PUSH32 0x4E487B7100000000000000000000000000000000000000000000000000000000 PUSH0 MSTORE PUSH1 0x41 PUSH1 0x4 MSTORE PUSH1 0x24 PUSH0 REVERT JUMPDEST PUSH2 0x2BD DUP3 PUSH2 0x277 JUMP JUMPDEST DUP2 ADD DUP2 DUP2 LT PUSH8 0xFFFFFFFFFFFFFFFF DUP3 GT OR ISZERO PUSH2 0x2DC JUMPI PUSH2 0x2DB PUSH2 0x287 JUMP JUMPDEST JUMPDEST DUP1 PUSH1 0x40 MSTORE POP POP POP JUMP JUMPDEST PUSH0 PUSH2 0x2EE PUSH2 0x204 JUMP JUMPDEST SWAP1 POP PUSH2 0x2FA DUP3 DUP3 PUSH2 0x2B4 JUMP JUMPDEST SWAP2 SWAP1 POP JUMP JUMPDEST PUSH0 PUSH8 0xFFFFFFFFFFFFFFFF DUP3 GT ISZERO PUSH2 0x319 JUMPI PUSH2 0x318 PUSH2 0x287 JUMP JUMPDEST JUMPDEST PUSH2 0x322 DUP3 PUSH2 0x277 JUMP JUMPDEST SWAP1 POP PUSH1 0x20 DUP2 ADD SWAP1 POP SWAP2 SWAP1 POP JUMP JUMPDEST DUP3 DUP2 DUP4 MCOPY PUSH0 DUP4 DUP4 ADD MSTORE POP POP POP JUMP JUMPDEST PUSH0 PUSH2 0x34F PUSH2 0x34A DUP5 PUSH2 0x2FF JUMP JUMPDEST PUSH2 0x2E5 JUMP JUMPDEST SWAP1 POP DUP3 DUP2 MSTORE PUSH1 0x20 DUP2 ADD DUP5 DUP5 DUP5 ADD GT ISZERO PUSH2 0x36B JUMPI PUSH2 0x36A PUSH2 0x273 JUMP JUMPDEST JUMPDEST PUSH2 0x376 DUP5 DUP3 DUP6 PUSH2 0x32F JUMP JUMPDEST POP SWAP4 SWAP3 POP POP POP JUMP JUMPDEST PUSH0 DUP3 PUSH1 0x1F DUP4 ADD SLT PUSH2 0x392 JUMPI PUSH2 0x391 PUSH2 0x26F JUMP JUMPDEST JUMPDEST DUP2 MLOAD PUSH2 0x3A2 DUP5 DUP3 PUSH1 0x20 DUP7 ADD PUSH2 0x33D JUMP JUMPDEST SWAP2 POP POP SWAP3 SWAP2 POP POP JUMP JUMPDEST PUSH0 DUP2 SWAP1 POP SWAP2 SWAP1 POP JUMP JUMPDEST PUSH2 0x3BD DUP2 PUSH2 0x3AB JUMP JUMPDEST DUP2 EQ PUSH2 0x3C7 JUMPI PUSH0 PUSH0 REVERT JUMPDEST POP JUMP JUMPDEST PUSH0 DUP2 MLOAD SWAP1 POP PUSH2 0x3D8 DUP2 PUSH2 0x3B4 JUMP JUMPDEST SWAP3 SWAP2 POP POP JUMP JUMPDEST PUSH0 PUSH0 PUSH0 PUSH0 PUSH0 PUSH0 PUSH1 0xC0 DUP8 DUP10 SUB SLT ISZERO PUSH2 0x3F8 JUMPI PUSH2 0x3F7 PUSH2 0x20D JUMP JUMPDEST JUMPDEST PUSH0 PUSH2 0x405 DUP10 DUP3 DUP11 ADD PUSH2 0x25B JUMP JUMPDEST SWAP7 POP POP PUSH1 0x20 PUSH2 0x416 DUP10 DUP3 DUP11 ADD PUSH2 0x25B JUMP JUMPDEST SWAP6 POP POP PUSH1 0x40 PUSH2 0x427 DUP10 DUP3 DUP11 ADD PUSH2 0x25B JUMP JUMPDEST SWAP5 POP POP PUSH1 0x60 DUP8 ADD MLOAD PUSH8 0xFFFFFFFFFFFFFFFF DUP2 GT ISZERO PUSH2 0x448 JUMPI PUSH2 0x447 PUSH2 0x211 JUMP JUMPDEST JUMPDEST PUSH2 0x454 DUP10 DUP3 DUP11 ADD PUSH2 0x37E JUMP JUMPDEST SWAP4 POP POP PUSH1 0x80 PUSH2 0x465 DUP10 DUP3 DUP11 ADD PUSH2 0x3CA JUMP JUMPDEST SWAP3 POP POP PUSH1 0xA0 PUSH2 0x476 DUP10 DUP3 DUP11 ADD PUSH2 0x3CA JUMP JUMPDEST SWAP2 POP POP SWAP3 SWAP6 POP SWAP3 SWAP6 POP SWAP3 SWAP6 JUMP JUMPDEST PUSH2 0x48C DUP2 PUSH2 0x234 JUMP JUMPDEST DUP3 MSTORE POP POP JUMP JUMPDEST PUSH0 PUSH1 0x20 DUP3 ADD SWAP1 POP PUSH2 0x4A5 PUSH0 DUP4 ADD DUP5 PUSH2 0x483 JUMP JUMPDEST SWAP3 SWAP2 POP POP JUMP JUMPDEST PUSH0 DUP2 MLOAD SWAP1 POP SWAP2 SWAP1 POP JUMP JUMPDEST PUSH32 0x4E487B7100000000000000000000000000000000000000000000000000000000 PUSH0 MSTORE PUSH1 0x22 PUSH1 0x4 MSTORE PUSH1 0x24 PUSH0 REVERT JUMPDEST PUSH0 PUSH1 0x2 DUP3 DIV SWAP1 POP PUSH1 0x1 DUP3 AND DUP1 PUSH2 0x4F9 JUMPI PUSH1 0x7F DUP3 AND SWAP2 POP JUMPDEST PUSH1 0x20 DUP3 LT DUP2 SUB PUSH2 0x50C JUMPI PUSH2 0x50B PUSH2 0x4B5 JUMP JUMPDEST JUMPDEST POP SWAP2 SWAP1 POP JUMP JUMPDEST PUSH0 DUP2 SWAP1 POP DUP2 PUSH0 MSTORE PUSH1 0x20 PUSH0 KECCAK256 SWAP1 POP SWAP2 SWAP1 POP JUMP JUMPDEST PUSH0 PUSH1 0x20 PUSH1 0x1F DUP4 ADD DIV SWAP1 POP SWAP2 SWAP1 POP JUMP JUMPDEST PUSH0 DUP3 DUP3 SHL SWAP1 POP SWAP3 SWAP2 POP POP JUMP JUMPDEST PUSH0 PUSH1 0x8 DUP4 MUL PUSH2 0x56E PUSH32 0xFFFFFFFFFFFFFFFFFFFFFFFFFFFFFFFFFFFFFFFFFFFFFFFFFFFFFFFFFFFFFFFF DUP3 PUSH2 0x533 JUMP JUMPDEST PUSH2 0x578 DUP7 DUP4 PUSH2 0x533 JUMP JUMPDEST SWAP6 POP DUP1 NOT DUP5 AND SWAP4 POP DUP1 DUP7 AND DUP5 OR SWAP3 POP POP POP SWAP4 SWAP3 POP POP POP JUMP JUMPDEST PUSH0 DUP2 SWAP1 POP SWAP2 SWAP1 POP JUMP JUMPDEST PUSH0 PUSH2 0x5B3 PUSH2 0x5AE PUSH2 0x5A9 DUP5 PUSH2 0x3AB JUMP JUMPDEST PUSH2 0x590 JUMP JUMPDEST PUSH2 0x3AB JUMP JUMPDEST SWAP1 POP SWAP2 SWAP1 POP JUMP JUMPDEST PUSH0 DUP2 SWAP1 POP SWAP2 SWAP1 POP JUMP JUMPDEST PUSH2 0x5CC DUP4 PUSH2 0x599 JUMP JUMPDEST PUSH2 0x5E0 PUSH2 0x5D8 DUP3 PUSH2 0x5BA JUMP JUMPDEST DUP5 DUP5 SLOAD PUSH2 0x53F JUMP JUMPDEST DUP3 SSTORE POP POP POP POP JUMP JUMPDEST PUSH0 PUSH0 SWAP1 POP SWAP1 JUMP JUMPDEST PUSH2 0x5F7 PUSH2 0x5E8 JUMP JUMPDEST PUSH2 0x602 DUP2 DUP5 DUP5 PUSH2 0x5C3 JUMP JUMPDEST POP POP POP JUMP JUMPDEST JUMPDEST DUP2 DUP2 LT ISZERO PUSH2 0x625 JUMPI PUSH2 0x61A PUSH0 DUP3 PUSH2 0x5EF JUMP JUMPDEST PUSH1 0x1 DUP2 ADD SWAP1 POP PUSH2 0x608 JUMP JUMPDEST POP POP JUMP JUMPDEST PUSH1 0x1F DUP3 GT ISZERO PUSH2 0x66A JUMPI PUSH2 0x63B DUP2 PUSH2 0x512 JUMP JUMPDEST PUSH2 0x644 DUP5 PUSH2 0x524 JUMP JUMPDEST DUP2 ADD PUSH1 0x20 DUP6 LT ISZERO PUSH2 0x653 JUMPI DUP2 SWAP1 POP JUMPDEST PUSH2 0x667 PUSH2 0x65F DUP6 PUSH2 0x524 JUMP JUMPDEST DUP4 ADD DUP3 PUSH2 0x607 JUMP JUMPDEST POP POP JUMPDEST POP POP POP JUMP JUMPDEST PUSH0 DUP3 DUP3 SHR SWAP1 POP SWAP3 SWAP2 POP POP JUMP JUMPDEST PUSH0 PUSH2 0x68A PUSH0 NOT DUP5 PUSH1 0x8 MUL PUSH2 0x66F JUMP JUMPDEST NOT DUP1 DUP4 AND SWAP2 POP POP SWAP3 SWAP2 POP POP JUMP JUMPDEST PUSH0 PUSH2 0x6A2 DUP4 DUP4 PUSH2 0x67B JUMP JUMPDEST SWAP2 POP DUP3 PUSH1 0x2 MUL DUP3 OR SWAP1 POP SWAP3 SWAP2 POP POP JUMP JUMPDEST PUSH2 0x6BB DUP3 PUSH2 0x4AB JUMP JUMPDEST PUSH8 0xFFFFFFFFFFFFFFFF DUP2 GT ISZERO PUSH2 0x6D4 JUMPI PUSH2 0x6D3 PUSH2 0x287 JUMP JUMPDEST JUMPDEST PUSH2 0x6DE DUP3 SLOAD PUSH2 0x4E2 JUMP JUMPDEST PUSH2 0x6E9 DUP3 DUP3 DUP6 PUSH2 0x629 JUMP JUMPDEST PUSH0 PUSH1 0x20 SWAP1 POP PUSH1 0x1F DUP4 GT PUSH1 0x1 DUP2 EQ PUSH2 0x71A JUMPI PUSH0 DUP5 ISZERO PUSH2 0x708 JUMPI DUP3 DUP8 ADD MLOAD SWAP1 POP JUMPDEST PUSH2 0x712 DUP6 DUP3 PUSH2 0x697 JUMP JUMPDEST DUP7 SSTORE POP PUSH2 0x779 JUMP JUMPDEST PUSH1 0x1F NOT DUP5 AND PUSH2 0x728 DUP7 PUSH2 0x512 JUMP JUMPDEST PUSH0 JUMPDEST DUP3 DUP2 LT ISZERO PUSH2 0x74F JUMPI DUP5 DUP10 ADD MLOAD DUP3 SSTORE PUSH1 0x1 DUP3 ADD SWAP2 POP PUSH1 0x20 DUP6 ADD SWAP5 POP PUSH1 0x20 DUP2 ADD SWAP1 POP PUSH2 0x72A JUMP JUMPDEST DUP7 DUP4 LT ISZERO PUSH2 0x76C JUMPI DUP5 DUP10 ADD MLOAD PUSH2 0x768 PUSH1 0x1F DUP10 AND DUP3 PUSH2 0x67B JUMP JUMPDEST DUP4 SSTORE POP JUMPDEST PUSH1 0x1 PUSH1 0x2 DUP9 MUL ADD DUP9 SSTORE POP POP POP JUMPDEST POP POP POP POP POP POP JUMP JUMPDEST PUSH1 0x80 MLOAD PUSH1 0xA0 MLOAD PUSH2 0x38B0 PUSH2 0x7BE PUSH0 CODECOPY PUSH0 DUP2 DUP2 PUSH2 0xDBB ADD MSTORE DUP2 DUP2 PUSH2 0x1845 ADD MSTORE DUP2 DUP2 PUSH2 0x195E ADD MSTORE PUSH2 0x1F6C ADD MSTORE PUSH0 DUP2 DUP2 PUSH2 0x3C1 ADD MSTORE PUSH2 0x1982 ADD MSTORE PUSH2 0x38B0 PUSH0 RETURN INVALID PUSH1 0x80 PUSH1 0x40 MSTORE CALLVALUE DUP1 ISZERO PUSH2 0xF JUMPI PUSH0 PUSH0 REVERT JUMPDEST POP PUSH1 0x4 CALLDATASIZE LT PUSH2 0xFD JUMPI PUSH0 CALLDATALOAD PUSH1 0xE0 SHR DUP1 PUSH4 0x8E27D719 GT PUSH2 0x95 JUMPI DUP1 PUSH4 0xD23CE9E5 GT PUSH2 0x64 JUMPI DUP1 PUSH4 0xD23CE9E5 EQ PUSH2 0x299 JUMPI DUP1 PUSH4 0xF139721C EQ PUSH2 0x2B5 JUMPI DUP1 PUSH4 0xF2FDE38B EQ PUSH2 0x2D1 JUMPI DUP1 PUSH4 0xF8897945 EQ PUSH2 0x2ED JUMPI PUSH2 0xFD JUMP JUMPDEST DUP1 PUSH4 0x8E27D719 EQ PUSH2 0x211 JUMPI DUP1 PUSH4 0xADB51980 EQ PUSH2 0x22D JUMPI DUP1 PUSH4 0xB5F8558C EQ PUSH2 0x25D JUMPI DUP1 PUSH4 0xBF4D766E EQ PUSH2 0x27B JUMPI PUSH2 0xFD JUMP JUMPDEST DUP1 PUSH4 0x6AC5DB19 GT PUSH2 0xD1 JUMPI DUP1 PUSH4 0x6AC5DB19 EQ PUSH2 0x1AF JUMPI DUP1 PUSH4 0x715018A6 EQ PUSH2 0x1CD JUMPI DUP1 PUSH4 0x7A9ECEB4 EQ PUSH2 0x1D7 JUMPI DUP1 PUSH4 0x8DA5CB5B EQ PUSH2 0x1F3 JUMPI PUSH2 0xFD JUMP JUMPDEST DUP1 PUSH3 0xDAD7D4 EQ PUSH2 0x101 JUMPI DUP1 PUSH4 0x5D09FB1 EQ PUSH2 0x11F JUMPI DUP1 PUSH4 0x240028E8 EQ PUSH2 0x14F JUMPI DUP1 PUSH4 0x5137959F EQ PUSH2 0x17F JUMPI JUMPDEST PUSH0 PUSH0 REVERT JUMPDEST PUSH2 0x109 PUSH2 0x30B JUMP JUMPDEST PUSH1 0x40 MLOAD PUSH2 0x116 SWAP2 SWAP1 PUSH2 0x2593 JUMP JUMPDEST PUSH1 0x40 MLOAD DUP1 SWAP2 SUB SWAP1 RETURN JUMPDEST PUSH2 0x139 PUSH1 0x4 DUP1 CALLDATASIZE SUB DUP2 ADD SWAP1 PUSH2 0x134 SWAP2 SWAP1 PUSH2 0x26F0 JUMP JUMPDEST PUSH2 0x397 JUMP JUMPDEST PUSH1 0x40 MLOAD PUSH2 0x146 SWAP2 SWAP1 PUSH2 0x2776 JUMP JUMPDEST PUSH1 0x40 MLOAD DUP1 SWAP2 SUB SWAP1 RETURN JUMPDEST PUSH2 0x169 PUSH1 0x4 DUP1 CALLDATASIZE SUB DUP2 ADD SWAP1 PUSH2 0x164 SWAP2 SWAP1 PUSH2 0x27B9 JUMP JUMPDEST PUSH2 0x4B4 JUMP JUMPDEST PUSH1 0x40 MLOAD PUSH2 0x176 SWAP2 SWAP1 PUSH2 0x27FE JUMP JUMPDEST PUSH1 0x40 MLOAD DUP1 SWAP2 SUB SWAP1 RETURN JUMPDEST PUSH2 0x199 PUSH1 0x4 DUP1 CALLDATASIZE SUB DUP2 ADD SWAP1 PUSH2 0x194 SWAP2 SWAP1 PUSH2 0x2817 JUMP JUMPDEST PUSH2 0x4D1 JUMP JUMPDEST PUSH1 0x40 MLOAD PUSH2 0x1A6 SWAP2 SWAP1 PUSH2 0x286D JUMP JUMPDEST PUSH1 0x40 MLOAD DUP1 SWAP2 SUB SWAP1 RETURN JUMPDEST PUSH2 0x1B7 PUSH2 0x4F1 JUMP JUMPDEST PUSH1 0x40 MLOAD PUSH2 0x1C4 SWAP2 SWAP1 PUSH2 0x286D JUMP JUMPDEST PUSH1 0x40 MLOAD DUP1 SWAP2 SUB SWAP1 RETURN JUMPDEST PUSH2 0x1D5 PUSH2 0x4F7 JUMP JUMPDEST STOP JUMPDEST PUSH2 0x1F1 PUSH1 0x4 DUP1 CALLDATASIZE SUB DUP2 ADD SWAP1 PUSH2 0x1EC SWAP2 SWAP1 PUSH2 0x290D JUMP JUMPDEST PUSH2 0x50A JUMP JUMPDEST STOP JUMPDEST PUSH2 0x1FB PUSH2 0xEB5 JUMP JUMPDEST PUSH1 0x40 MLOAD PUSH2 0x208 SWAP2 SWAP1 PUSH2 0x2776 JUMP JUMPDEST PUSH1 0x40 MLOAD DUP1 SWAP2 SUB SWAP1 RETURN JUMPDEST PUSH2 0x22B PUSH1 0x4 DUP1 CALLDATASIZE SUB DUP2 ADD SWAP1 PUSH2 0x226 SWAP2 SWAP1 PUSH2 0x2991 JUMP JUMPDEST PUSH2 0xEDC JUMP JUMPDEST STOP JUMPDEST PUSH2 0x247 PUSH1 0x4 DUP1 CALLDATASIZE SUB DUP2 ADD SWAP1 PUSH2 0x242 SWAP2 SWAP1 PUSH2 0x2817 JUMP JUMPDEST PUSH2 0x193C JUMP JUMPDEST PUSH1 0x40 MLOAD PUSH2 0x254 SWAP2 SWAP1 PUSH2 0x286D JUMP JUMPDEST PUSH1 0x40 MLOAD DUP1 SWAP2 SUB SWAP1 RETURN JUMPDEST PUSH2 0x265 PUSH2 0x195C JUMP JUMPDEST PUSH1 0x40 MLOAD PUSH2 0x272 SWAP2 SWAP1 PUSH2 0x2A49 JUMP JUMPDEST PUSH1 0x40 MLOAD DUP1 SWAP2 SUB SWAP1 RETURN JUMPDEST PUSH2 0x283 PUSH2 0x1980 JUMP JUMPDEST PUSH1 0x40 MLOAD PUSH2 0x290 SWAP2 SWAP1 PUSH2 0x2A82 JUMP JUMPDEST PUSH1 0x40 MLOAD DUP1 SWAP2 SUB SWAP1 RETURN JUMPDEST PUSH2 0x2B3 PUSH1 0x4 DUP1 CALLDATASIZE SUB DUP2 ADD SWAP1 PUSH2 0x2AE SWAP2 SWAP1 PUSH2 0x2AF0 JUMP JUMPDEST PUSH2 0x19A4 JUMP JUMPDEST STOP JUMPDEST PUSH2 0x2CF PUSH1 0x4 DUP1 CALLDATASIZE SUB DUP2 ADD SWAP1 PUSH2 0x2CA SWAP2 SWAP1 PUSH2 0x2BB4 JUMP JUMPDEST PUSH2 0x1FFB JUMP JUMPDEST STOP JUMPDEST PUSH2 0x2EB PUSH1 0x4 DUP1 CALLDATASIZE SUB DUP2 ADD SWAP1 PUSH2 0x2E6 SWAP2 SWAP1 PUSH2 0x27B9 JUMP JUMPDEST PUSH2 0x20F3 JUMP JUMPDEST STOP JUMPDEST PUSH2 0x2F5 PUSH2 0x2177 JUMP JUMPDEST PUSH1 0x40 MLOAD PUSH2 0x302 SWAP2 SWAP1 PUSH2 0x286D JUMP JUMPDEST PUSH1 0x40 MLOAD DUP1 SWAP2 SUB SWAP1 RETURN JUMPDEST PUSH1 0x1 DUP1 SLOAD PUSH2 0x318 SWAP1 PUSH2 0x2C2C JUMP JUMPDEST DUP1 PUSH1 0x1F ADD PUSH1 0x20 DUP1 SWAP2 DIV MUL PUSH1 0x20 ADD PUSH1 0x40 MLOAD SWAP1 DUP2 ADD PUSH1 0x40 MSTORE DUP1 SWAP3 SWAP2 SWAP1 DUP2 DUP2 MSTORE PUSH1 0x20 ADD DUP3 DUP1 SLOAD PUSH2 0x344 SWAP1 PUSH2 0x2C2C JUMP JUMPDEST DUP1 ISZERO PUSH2 0x38F JUMPI DUP1 PUSH1 0x1F LT PUSH2 0x366 JUMPI PUSH2 0x100 DUP1 DUP4 SLOAD DIV MUL DUP4 MSTORE SWAP2 PUSH1 0x20 ADD SWAP2 PUSH2 0x38F JUMP JUMPDEST DUP3 ADD SWAP2 SWAP1 PUSH0 MSTORE PUSH1 0x20 PUSH0 KECCAK256 SWAP1 JUMPDEST DUP2 SLOAD DUP2 MSTORE SWAP1 PUSH1 0x1 ADD SWAP1 PUSH1 0x20 ADD DUP1 DUP4 GT PUSH2 0x372 JUMPI DUP3 SWAP1 SUB PUSH1 0x1F AND DUP3 ADD SWAP2 JUMPDEST POP POP POP POP POP DUP2 JUMP JUMPDEST PUSH0 PUSH0 DUP3 PUSH1 0x1 PUSH1 0x40 MLOAD PUSH1 0x20 ADD PUSH2 0x3AD SWAP3 SWAP2 SWAP1 PUSH2 0x2D72 JUMP JUMPDEST PUSH1 0x40 MLOAD PUSH1 0x20 DUP2 DUP4 SUB SUB DUP2 MSTORE SWAP1 PUSH1 0x40 MSTORE SWAP1 POP PUSH0 PUSH32 0x0 PUSH20 0xFFFFFFFFFFFFFFFFFFFFFFFFFFFFFFFFFFFFFFFF AND PUSH4 0x16F1ADC1 DUP4 PUSH1 0x40 MLOAD DUP3 PUSH4 0xFFFFFFFF AND PUSH1 0xE0 SHL DUP2 MSTORE PUSH1 0x4 ADD PUSH2 0x418 SWAP2 SWAP1 PUSH2 0x2DEA JUMP JUMPDEST PUSH0 PUSH1 0x40 MLOAD DUP1 DUP4 SUB DUP2 DUP7 GAS STATICCALL ISZERO DUP1 ISZERO PUSH2 0x432 JUMPI RETURNDATASIZE PUSH0 PUSH0 RETURNDATACOPY RETURNDATASIZE PUSH0 REVERT JUMPDEST POP POP POP POP PUSH1 0x40 MLOAD RETURNDATASIZE PUSH0 DUP3 RETURNDATACOPY RETURNDATASIZE PUSH1 0x1F NOT PUSH1 0x1F DUP3 ADD AND DUP3 ADD DUP1 PUSH1 0x40 MSTORE POP DUP2 ADD SWAP1 PUSH2 0x45A SWAP2 SWAP1 PUSH2 0x2EBB JUMP JUMPDEST SWAP1 POP PUSH1 0x14 DUP2 MLOAD LT ISZERO PUSH2 0x4A1 JUMPI PUSH1 0x40 MLOAD PUSH32 0x8C379A000000000000000000000000000000000000000000000000000000000 DUP2 MSTORE PUSH1 0x4 ADD PUSH2 0x498 SWAP1 PUSH2 0x2F72 JUMP JUMPDEST PUSH1 0x40 MLOAD DUP1 SWAP2 SUB SWAP1 REVERT JUMPDEST PUSH0 PUSH1 0x14 DUP3 ADD MLOAD SWAP1 POP DUP1 SWAP4 POP POP POP POP SWAP2 SWAP1 POP JUMP JUMPDEST PUSH1 0x7 PUSH1 0x20 MSTORE DUP1 PUSH0 MSTORE PUSH1 0x40 PUSH0 KECCAK256 PUSH0 SWAP2 POP SLOAD SWAP1 PUSH2 0x100 EXP SWAP1 DIV PUSH1 0xFF AND DUP2 JUMP JUMPDEST PUSH1 0x6 PUSH1 0x20 MSTORE DUP2 PUSH0 MSTORE PUSH1 0x40 PUSH0 KECCAK256 PUSH1 0x20 MSTORE DUP1 PUSH0 MSTORE PUSH1 0x40 PUSH0 KECCAK256 PUSH0 SWAP2 POP SWAP2 POP POP SLOAD DUP2 JUMP JUMPDEST PUSH1 0x3 SLOAD DUP2 JUMP JUMPDEST PUSH2 0x4FF PUSH2 0x217D JUMP JUMPDEST PUSH2 0x508 PUSH0 PUSH2 0x2204 JUMP JUMPDEST JUMP JUMPDEST PUSH2 0x512 PUSH2 0x217D JUMP JUMPDEST PUSH0 PUSH2 0x55F DUP6 DUP6 DUP1 DUP1 PUSH1 0x1F ADD PUSH1 0x20 DUP1 SWAP2 DIV MUL PUSH1 0x20 ADD PUSH1 0x40 MLOAD SWAP1 DUP2 ADD PUSH1 0x40 MSTORE DUP1 SWAP4 SWAP3 SWAP2 SWAP1 DUP2 DUP2 MSTORE PUSH1 0x20 ADD DUP4 DUP4 DUP1 DUP3 DUP5 CALLDATACOPY PUSH0 DUP2 DUP5 ADD MSTORE PUSH1 0x1F NOT PUSH1 0x1F DUP3 ADD AND SWAP1 POP DUP1 DUP4 ADD SWAP3 POP POP POP POP POP POP POP PUSH2 0x397 JUMP JUMPDEST SWAP1 POP PUSH1 0x7 PUSH0 DUP3 PUSH20 0xFFFFFFFFFFFFFFFFFFFFFFFFFFFFFFFFFFFFFFFF AND PUSH20 0xFFFFFFFFFFFFFFFFFFFFFFFFFFFFFFFFFFFFFFFF AND DUP2 MSTORE PUSH1 0x20 ADD SWAP1 DUP2 MSTORE PUSH1 0x20 ADD PUSH0 KECCAK256 PUSH0 SWAP1 SLOAD SWAP1 PUSH2 0x100 EXP SWAP1 DIV PUSH1 0xFF AND PUSH2 0x5EA JUMPI PUSH1 0x40 MLOAD PUSH32 0x8C379A000000000000000000000000000000000000000000000000000000000 DUP2 MSTORE PUSH1 0x4 ADD PUSH2 0x5E1 SWAP1 PUSH2 0x2FDA JUMP JUMPDEST PUSH1 0x40 MLOAD DUP1 SWAP2 SUB SWAP1 REVERT JUMPDEST PUSH0 PUSH2 0x5F3 PUSH2 0x22C5 JUMP JUMPDEST SWAP1 POP PUSH0 PUSH0 SWAP1 POP PUSH0 PUSH1 0x5 PUSH0 DUP11 PUSH20 0xFFFFFFFFFFFFFFFFFFFFFFFFFFFFFFFFFFFFFFFF AND PUSH20 0xFFFFFFFFFFFFFFFFFFFFFFFFFFFFFFFFFFFFFFFF AND DUP2 MSTORE PUSH1 0x20 ADD SWAP1 DUP2 MSTORE PUSH1 0x20 ADD PUSH0 KECCAK256 PUSH0 DUP6 PUSH20 0xFFFFFFFFFFFFFFFFFFFFFFFFFFFFFFFFFFFFFFFF AND PUSH20 0xFFFFFFFFFFFFFFFFFFFFFFFFFFFFFFFFFFFFFFFF AND DUP2 MSTORE PUSH1 0x20 ADD SWAP1 DUP2 MSTORE PUSH1 0x20 ADD PUSH0 KECCAK256 SLOAD SWAP1 POP PUSH0 PUSH1 0x6 PUSH0 DUP12 PUSH20 0xFFFFFFFFFFFFFFFFFFFFFFFFFFFFFFFFFFFFFFFF AND PUSH20 0xFFFFFFFFFFFFFFFFFFFFFFFFFFFFFFFFFFFFFFFF AND DUP2 MSTORE PUSH1 0x20 ADD SWAP1 DUP2 MSTORE PUSH1 0x20 ADD PUSH0 KECCAK256 PUSH0 DUP7 PUSH20 0xFFFFFFFFFFFFFFFFFFFFFFFFFFFFFFFFFFFFFFFF AND PUSH20 0xFFFFFFFFFFFFFFFFFFFFFFFFFFFFFFFFFFFFFFFF AND DUP2 MSTORE PUSH1 0x20 ADD SWAP1 DUP2 MSTORE PUSH1 0x20 ADD PUSH0 KECCAK256 SLOAD SWAP1 POP PUSH0 DUP3 GT DUP1 ISZERO PUSH2 0x6FF JUMPI POP PUSH0 DUP2 GT JUMPDEST DUP1 ISZERO PUSH2 0x70A JUMPI POP DUP1 TIMESTAMP GT JUMPDEST ISZERO PUSH2 0x74B JUMPI PUSH0 DUP2 TIMESTAMP PUSH2 0x71C SWAP2 SWAP1 PUSH2 0x3025 JUMP JUMPDEST SWAP1 POP PUSH7 0xB342EB7C38000 DUP2 DUP7 DUP6 PUSH2 0x733 SWAP2 SWAP1 PUSH2 0x3058 JUMP JUMPDEST PUSH2 0x73D SWAP2 SWAP1 PUSH2 0x3058 JUMP JUMPDEST PUSH2 0x747 SWAP2 SWAP1 PUSH2 0x30C6 JUMP JUMPDEST SWAP4 POP POP JUMPDEST PUSH0 DUP4 DUP4 PUSH2 0x758 SWAP2 SWAP1 PUSH2 0x30F6 JUMP JUMPDEST SWAP1 POP DUP8 DUP2 LT ISZERO PUSH2 0x79D JUMPI PUSH1 0x40 MLOAD PUSH32 0x8C379A000000000000000000000000000000000000000000000000000000000 DUP2 MSTORE PUSH1 0x4 ADD PUSH2 0x794 SWAP1 PUSH2 0x3173 JUMP JUMPDEST PUSH1 0x40 MLOAD DUP1 SWAP2 SUB SWAP1 REVERT JUMPDEST DUP8 DUP2 PUSH2 0x7A9 SWAP2 SWAP1 PUSH2 0x3025 JUMP JUMPDEST PUSH1 0x5 PUSH0 DUP14 PUSH20 0xFFFFFFFFFFFFFFFFFFFFFFFFFFFFFFFFFFFFFFFF AND PUSH20 0xFFFFFFFFFFFFFFFFFFFFFFFFFFFFFFFFFFFFFFFF AND DUP2 MSTORE PUSH1 0x20 ADD SWAP1 DUP2 MSTORE PUSH1 0x20 ADD PUSH0 KECCAK256 PUSH0 DUP9 PUSH20 0xFFFFFFFFFFFFFFFFFFFFFFFFFFFFFFFFFFFFFFFF AND PUSH20 0xFFFFFFFFFFFFFFFFFFFFFFFFFFFFFFFFFFFFFFFF AND DUP2 MSTORE PUSH1 0x20 ADD SWAP1 DUP2 MSTORE PUSH1 0x20 ADD PUSH0 KECCAK256 DUP2 SWAP1 SSTORE POP TIMESTAMP PUSH1 0x6 PUSH0 DUP14 PUSH20 0xFFFFFFFFFFFFFFFFFFFFFFFFFFFFFFFFFFFFFFFF AND PUSH20 0xFFFFFFFFFFFFFFFFFFFFFFFFFFFFFFFFFFFFFFFF AND DUP2 MSTORE PUSH1 0x20 ADD SWAP1 DUP2 MSTORE PUSH1 0x20 ADD PUSH0 KECCAK256 PUSH0 DUP9 PUSH20 0xFFFFFFFFFFFFFFFFFFFFFFFFFFFFFFFFFFFFFFFF AND PUSH20 0xFFFFFFFFFFFFFFFFFFFFFFFFFFFFFFFFFFFFFFFF AND DUP2 MSTORE PUSH1 0x20 ADD SWAP1 DUP2 MSTORE PUSH1 0x20 ADD PUSH0 KECCAK256 DUP2 SWAP1 SSTORE POP PUSH2 0x8CD DUP12 DUP10 DUP9 PUSH20 0xFFFFFFFFFFFFFFFFFFFFFFFFFFFFFFFFFFFFFFFF AND PUSH2 0x2380 SWAP1 SWAP3 SWAP2 SWAP1 PUSH4 0xFFFFFFFF AND JUMP JUMPDEST PUSH0 PUSH1 0x6 PUSH8 0xFFFFFFFFFFFFFFFF DUP2 GT ISZERO PUSH2 0x8E9 JUMPI PUSH2 0x8E8 PUSH2 0x25CC JUMP JUMPDEST JUMPDEST PUSH1 0x40 MLOAD SWAP1 DUP1 DUP3 MSTORE DUP1 PUSH1 0x20 MUL PUSH1 0x20 ADD DUP3 ADD PUSH1 0x40 MSTORE DUP1 ISZERO PUSH2 0x922 JUMPI DUP2 PUSH1 0x20 ADD JUMPDEST PUSH2 0x90F PUSH2 0x2502 JUMP JUMPDEST DUP2 MSTORE PUSH1 0x20 ADD SWAP1 PUSH1 0x1 SWAP1 SUB SWAP1 DUP2 PUSH2 0x907 JUMPI SWAP1 POP JUMPDEST POP SWAP1 POP PUSH1 0x40 MLOAD DUP1 PUSH1 0x60 ADD PUSH1 0x40 MSTORE DUP1 PUSH1 0x40 MLOAD DUP1 PUSH1 0x40 ADD PUSH1 0x40 MSTORE DUP1 PUSH1 0x4 DUP2 MSTORE PUSH1 0x20 ADD PUSH32 0x7573657200000000000000000000000000000000000000000000000000000000 DUP2 MSTORE POP DUP2 MSTORE PUSH1 0x20 ADD PUSH1 0x40 MLOAD DUP1 PUSH1 0x40 ADD PUSH1 0x40 MSTORE DUP1 PUSH1 0x7 DUP2 MSTORE PUSH1 0x20 ADD PUSH32 0x6164647265737300000000000000000000000000000000000000000000000000 DUP2 MSTORE POP DUP2 MSTORE PUSH1 0x20 ADD DUP14 PUSH1 0x40 MLOAD PUSH1 0x20 ADD PUSH2 0x9B7 SWAP2 SWAP1 PUSH2 0x2776 JUMP JUMPDEST PUSH1 0x40 MLOAD PUSH1 0x20 DUP2 DUP4 SUB SUB DUP2 MSTORE SWAP1 PUSH1 0x40 MSTORE DUP2 MSTORE POP DUP2 PUSH0 DUP2 MLOAD DUP2 LT PUSH2 0x9DC JUMPI PUSH2 0x9DB PUSH2 0x3191 JUMP JUMPDEST JUMPDEST PUSH1 0x20 MUL PUSH1 0x20 ADD ADD DUP2 SWAP1 MSTORE POP PUSH1 0x40 MLOAD DUP1 PUSH1 0x60 ADD PUSH1 0x40 MSTORE DUP1 PUSH1 0x40 MLOAD DUP1 PUSH1 0x40 ADD PUSH1 0x40 MSTORE DUP1 PUSH1 0x6 DUP2 MSTORE PUSH1 0x20 ADD PUSH32 0x616D6F756E740000000000000000000000000000000000000000000000000000 DUP2 MSTORE POP DUP2 MSTORE PUSH1 0x20 ADD PUSH1 0x40 MLOAD DUP1 PUSH1 0x40 ADD PUSH1 0x40 MSTORE DUP1 PUSH1 0x7 DUP2 MSTORE PUSH1 0x20 ADD PUSH32 0x75696E7432353600000000000000000000000000000000000000000000000000 DUP2 MSTORE POP DUP2 MSTORE PUSH1 0x20 ADD DUP11 PUSH1 0x40 MLOAD PUSH1 0x20 ADD PUSH2 0xA79 SWAP2 SWAP1 PUSH2 0x286D JUMP JUMPDEST PUSH1 0x40 MLOAD PUSH1 0x20 DUP2 DUP4 SUB SUB DUP2 MSTORE SWAP1 PUSH1 0x40 MSTORE DUP2 MSTORE POP DUP2 PUSH1 0x1 DUP2 MLOAD DUP2 LT PUSH2 0xA9F JUMPI PUSH2 0xA9E PUSH2 0x3191 JUMP JUMPDEST JUMPDEST PUSH1 0x20 MUL PUSH1 0x20 ADD ADD DUP2 SWAP1 MSTORE POP PUSH1 0x40 MLOAD DUP1 PUSH1 0x60 ADD PUSH1 0x40 MSTORE DUP1 PUSH1 0x40 MLOAD DUP1 PUSH1 0x40 ADD PUSH1 0x40 MSTORE DUP1 PUSH1 0x5 DUP2 MSTORE PUSH1 0x20 ADD PUSH32 0x746F6B656E000000000000000000000000000000000000000000000000000000 DUP2 MSTORE POP DUP2 MSTORE PUSH1 0x20 ADD PUSH1 0x40 MLOAD DUP1 PUSH1 0x40 ADD PUSH1 0x40 MSTORE DUP1 PUSH1 0x6 DUP2 MSTORE PUSH1 0x20 ADD PUSH32 0x737472696E670000000000000000000000000000000000000000000000000000 DUP2 MSTORE POP DUP2 MSTORE PUSH1 0x20 ADD DUP13 DUP13 PUSH1 0x40 MLOAD PUSH1 0x20 ADD PUSH2 0xB3E SWAP3 SWAP2 SWAP1 PUSH2 0x31EA JUMP JUMPDEST PUSH1 0x40 MLOAD PUSH1 0x20 DUP2 DUP4 SUB SUB DUP2 MSTORE SWAP1 PUSH1 0x40 MSTORE DUP2 MSTORE POP DUP2 PUSH1 0x2 DUP2 MLOAD DUP2 LT PUSH2 0xB64 JUMPI PUSH2 0xB63 PUSH2 0x3191 JUMP JUMPDEST JUMPDEST PUSH1 0x20 MUL PUSH1 0x20 ADD ADD DUP2 SWAP1 MSTORE POP PUSH1 0x40 MLOAD DUP1 PUSH1 0x60 ADD PUSH1 0x40 MSTORE DUP1 PUSH1 0x40 MLOAD DUP1 PUSH1 0x40 ADD PUSH1 0x40 MSTORE DUP1 PUSH1 0x8 DUP2 MSTORE PUSH1 0x20 ADD PUSH32 0x70726F7669646572000000000000000000000000000000000000000000000000 DUP2 MSTORE POP DUP2 MSTORE PUSH1 0x20 ADD PUSH1 0x40 MLOAD DUP1 PUSH1 0x40 ADD PUSH1 0x40 MSTORE DUP1 PUSH1 0x6 DUP2 MSTORE PUSH1 0x20 ADD PUSH32 0x737472696E670000000000000000000000000000000000000000000000000000 DUP2 MSTORE POP DUP2 MSTORE PUSH1 0x20 ADD PUSH1 0x1 PUSH1 0x40 MLOAD PUSH1 0x20 ADD PUSH2 0xC02 SWAP2 SWAP1 PUSH2 0x328D JUMP JUMPDEST PUSH1 0x40 MLOAD PUSH1 0x20 DUP2 DUP4 SUB SUB DUP2 MSTORE SWAP1 PUSH1 0x40 MSTORE DUP2 MSTORE POP DUP2 PUSH1 0x3 DUP2 MLOAD DUP2 LT PUSH2 0xC28 JUMPI PUSH2 0xC27 PUSH2 0x3191 JUMP JUMPDEST JUMPDEST PUSH1 0x20 MUL PUSH1 0x20 ADD ADD DUP2 SWAP1 MSTORE POP PUSH1 0x40 MLOAD DUP1 PUSH1 0x60 ADD PUSH1 0x40 MSTORE DUP1 PUSH1 0x40 MLOAD DUP1 PUSH1 0x40 ADD PUSH1 0x40 MSTORE DUP1 PUSH1 0x9 DUP2 MSTORE PUSH1 0x20 ADD PUSH32 0x6E756C6C69666965720000000000000000000000000000000000000000000000 DUP2 MSTORE POP DUP2 MSTORE PUSH1 0x20 ADD PUSH1 0x40 MLOAD DUP1 PUSH1 0x40 ADD PUSH1 0x40 MSTORE DUP1 PUSH1 0x7 DUP2 MSTORE PUSH1 0x20 ADD PUSH32 0x75696E7432353600000000000000000000000000000000000000000000000000 DUP2 MSTORE POP DUP2 MSTORE PUSH1 0x20 ADD DUP10 PUSH1 0x40 MLOAD PUSH1 0x20 ADD PUSH2 0xCC5 SWAP2 SWAP1 PUSH2 0x286D JUMP JUMPDEST PUSH1 0x40 MLOAD PUSH1 0x20 DUP2 DUP4 SUB SUB DUP2 MSTORE SWAP1 PUSH1 0x40 MSTORE DUP2 MSTORE POP DUP2 PUSH1 0x4 DUP2 MLOAD DUP2 LT PUSH2 0xCEB JUMPI PUSH2 0xCEA PUSH2 0x3191 JUMP JUMPDEST JUMPDEST PUSH1 0x20 MUL PUSH1 0x20 ADD ADD DUP2 SWAP1 MSTORE POP PUSH1 0x40 MLOAD DUP1 PUSH1 0x60 ADD PUSH1 0x40 MSTORE DUP1 PUSH1 0x40 MLOAD DUP1 PUSH1 0x40 ADD PUSH1 0x40 MSTORE DUP1 PUSH1 0x9 DUP2 MSTORE PUSH1 0x20 ADD PUSH32 0x74696D657374616D700000000000000000000000000000000000000000000000 DUP2 MSTORE POP DUP2 MSTORE PUSH1 0x20 ADD PUSH1 0x40 MLOAD DUP1 PUSH1 0x40 ADD PUSH1 0x40 MSTORE DUP1 PUSH1 0x7 DUP2 MSTORE PUSH1 0x20 ADD PUSH32 0x75696E7432353600000000000000000000000000000000000000000000000000 DUP2 MSTORE POP DUP2 MSTORE PUSH1 0x20 ADD TIMESTAMP PUSH1 0x40 MLOAD PUSH1 0x20 ADD PUSH2 0xD88 SWAP2 SWAP1 PUSH2 0x286D JUMP JUMPDEST PUSH1 0x40 MLOAD PUSH1 0x20 DUP2 DUP4 SUB SUB DUP2 MSTORE SWAP1 PUSH1 0x40 MSTORE DUP2 MSTORE POP DUP2 PUSH1 0x5 DUP2 MLOAD DUP2 LT PUSH2 0xDAE JUMPI PUSH2 0xDAD PUSH2 0x3191 JUMP JUMPDEST JUMPDEST PUSH1 0x20 MUL PUSH1 0x20 ADD ADD DUP2 SWAP1 MSTORE POP PUSH32 0x0 PUSH20 0xFFFFFFFFFFFFFFFFFFFFFFFFFFFFFFFFFFFFFFFF AND PUSH4 0x7D64FA9B DUP3 PUSH1 0x40 MLOAD DUP3 PUSH4 0xFFFFFFFF AND PUSH1 0xE0 SHL DUP2 MSTORE PUSH1 0x4 ADD PUSH2 0xE12 SWAP2 SWAP1 PUSH2 0x34A7 JUMP JUMPDEST PUSH0 PUSH1 0x40 MLOAD DUP1 DUP4 SUB DUP2 PUSH0 DUP8 DUP1 EXTCODESIZE ISZERO DUP1 ISZERO PUSH2 0xE29 JUMPI PUSH0 PUSH0 REVERT JUMPDEST POP GAS CALL ISZERO DUP1 ISZERO PUSH2 0xE3B JUMPI RETURNDATASIZE PUSH0 PUSH0 RETURNDATACOPY RETURNDATASIZE PUSH0 REVERT JUMPDEST POP POP POP POP DUP7 PUSH20 0xFFFFFFFFFFFFFFFFFFFFFFFFFFFFFFFFFFFFFFFF AND DUP13 PUSH20 0xFFFFFFFFFFFFFFFFFFFFFFFFFFFFFFFFFFFFFFFF AND PUSH32 0xCC4F8702356931E6D23A93D1B60BEAC6A7EA77D447ADA4B1502A09D0B7125709 DUP12 PUSH1 0x1 PUSH1 0x40 MLOAD PUSH2 0xE9F SWAP3 SWAP2 SWAP1 PUSH2 0x34DA JUMP JUMPDEST PUSH1 0x40 MLOAD DUP1 SWAP2 SUB SWAP1 LOG3 POP POP POP POP POP POP POP POP POP POP POP POP JUMP JUMPDEST PUSH0 PUSH0 PUSH0 SWAP1 SLOAD SWAP1 PUSH2 0x100 EXP SWAP1 DIV PUSH20 0xFFFFFFFFFFFFFFFFFFFFFFFFFFFFFFFFFFFFFFFF AND SWAP1 POP SWAP1 JUMP JUMPDEST PUSH0 PUSH2 0xF29 DUP5 DUP5 DUP1 DUP1 PUSH1 0x1F ADD PUSH1 0x20 DUP1 SWAP2 DIV MUL PUSH1 0x20 ADD PUSH1 0x40 MLOAD SWAP1 DUP2 ADD PUSH1 0x40 MSTORE DUP1 SWAP4 SWAP3 SWAP2 SWAP1 DUP2 DUP2 MSTORE PUSH1 0x20 ADD DUP4 DUP4 DUP1 DUP3 DUP5 CALLDATACOPY PUSH0 DUP2 DUP5 ADD MSTORE PUSH1 0x1F NOT PUSH1 0x1F DUP3 ADD AND SWAP1 POP DUP1 DUP4 ADD SWAP3 POP POP POP POP POP POP POP PUSH2 0x397 JUMP JUMPDEST SWAP1 POP PUSH1 0x7 PUSH0 DUP3 PUSH20 0xFFFFFFFFFFFFFFFFFFFFFFFFFFFFFFFFFFFFFFFF AND PUSH20 0xFFFFFFFFFFFFFFFFFFFFFFFFFFFFFFFFFFFFFFFF AND DUP2 MSTORE PUSH1 0x20 ADD SWAP1 DUP2 MSTORE PUSH1 0x20 ADD PUSH0 KECCAK256 PUSH0 SWAP1 SLOAD SWAP1 PUSH2 0x100 EXP SWAP1 DIV PUSH1 0xFF AND PUSH2 0xFB4 JUMPI PUSH1 0x40 MLOAD PUSH32 0x8C379A000000000000000000000000000000000000000000000000000000000 DUP2 MSTORE PUSH1 0x4 ADD PUSH2 0xFAB SWAP1 PUSH2 0x2FDA JUMP JUMPDEST PUSH1 0x40 MLOAD DUP1 SWAP2 SUB SWAP1 REVERT JUMPDEST PUSH0 DUP3 GT PUSH2 0xFF6 JUMPI PUSH1 0x40 MLOAD PUSH32 0x8C379A000000000000000000000000000000000000000000000000000000000 DUP2 MSTORE PUSH1 0x4 ADD PUSH2 0xFED SWAP1 PUSH2 0x3552 JUMP JUMPDEST PUSH1 0x40 MLOAD DUP1 SWAP2 SUB SWAP1 REVERT JUMPDEST PUSH0 PUSH2 0xFFF PUSH2 0x22C5 JUMP JUMPDEST SWAP1 POP PUSH0 PUSH0 SWAP1 POP PUSH0 PUSH1 0x5 PUSH0 CALLER PUSH20 0xFFFFFFFFFFFFFFFFFFFFFFFFFFFFFFFFFFFFFFFF AND PUSH20 0xFFFFFFFFFFFFFFFFFFFFFFFFFFFFFFFFFFFFFFFF AND DUP2 MSTORE PUSH1 0x20 ADD SWAP1 DUP2 MSTORE PUSH1 0x20 ADD PUSH0 KECCAK256 PUSH0 DUP6 PUSH20 0xFFFFFFFFFFFFFFFFFFFFFFFFFFFFFFFFFFFFFFFF AND PUSH20 0xFFFFFFFFFFFFFFFFFFFFFFFFFFFFFFFFFFFFFFFF AND DUP2 MSTORE PUSH1 0x20 ADD SWAP1 DUP2 MSTORE PUSH1 0x20 ADD PUSH0 KECCAK256 SLOAD SWAP1 POP PUSH0 PUSH1 0x6 PUSH0 CALLER PUSH20 0xFFFFFFFFFFFFFFFFFFFFFFFFFFFFFFFFFFFFFFFF AND PUSH20 0xFFFFFFFFFFFFFFFFFFFFFFFFFFFFFFFFFFFFFFFF AND DUP2 MSTORE PUSH1 0x20 ADD SWAP1 DUP2 MSTORE PUSH1 0x20 ADD PUSH0 KECCAK256 PUSH0 DUP7 PUSH20 0xFFFFFFFFFFFFFFFFFFFFFFFFFFFFFFFFFFFFFFFF AND PUSH20 0xFFFFFFFFFFFFFFFFFFFFFFFFFFFFFFFFFFFFFFFF AND DUP2 MSTORE PUSH1 0x20 ADD SWAP1 DUP2 MSTORE PUSH1 0x20 ADD PUSH0 KECCAK256 SLOAD SWAP1 POP PUSH0 DUP3 GT DUP1 ISZERO PUSH2 0x110B JUMPI POP PUSH0 DUP2 GT JUMPDEST DUP1 ISZERO PUSH2 0x1116 JUMPI POP DUP1 TIMESTAMP GT JUMPDEST ISZERO PUSH2 0x1157 JUMPI PUSH0 DUP2 TIMESTAMP PUSH2 0x1128 SWAP2 SWAP1 PUSH2 0x3025 JUMP JUMPDEST SWAP1 POP PUSH7 0xB342EB7C38000 DUP2 DUP7 DUP6 PUSH2 0x113F SWAP2 SWAP1 PUSH2 0x3058 JUMP JUMPDEST PUSH2 0x1149 SWAP2 SWAP1 PUSH2 0x3058 JUMP JUMPDEST PUSH2 0x1153 SWAP2 SWAP1 PUSH2 0x30C6 JUMP JUMPDEST SWAP4 POP POP JUMPDEST PUSH2 0x1184 CALLER ADDRESS DUP9 DUP9 PUSH20 0xFFFFFFFFFFFFFFFFFFFFFFFFFFFFFFFFFFFFFFFF AND PUSH2 0x23D3 SWAP1 SWAP4 SWAP3 SWAP2 SWAP1 PUSH4 0xFFFFFFFF AND JUMP JUMPDEST DUP3 DUP7 DUP4 PUSH2 0x1191 SWAP2 SWAP1 PUSH2 0x30F6 JUMP JUMPDEST PUSH2 0x119B SWAP2 SWAP1 PUSH2 0x30F6 JUMP JUMPDEST PUSH1 0x5 PUSH0 CALLER PUSH20 0xFFFFFFFFFFFFFFFFFFFFFFFFFFFFFFFFFFFFFFFF AND PUSH20 0xFFFFFFFFFFFFFFFFFFFFFFFFFFFFFFFFFFFFFFFF AND DUP2 MSTORE PUSH1 0x20 ADD SWAP1 DUP2 MSTORE PUSH1 0x20 ADD PUSH0 KECCAK256 PUSH0 DUP8 PUSH20 0xFFFFFFFFFFFFFFFFFFFFFFFFFFFFFFFFFFFFFFFF AND PUSH20 0xFFFFFFFFFFFFFFFFFFFFFFFFFFFFFFFFFFFFFFFF AND DUP2 MSTORE PUSH1 0x20 ADD SWAP1 DUP2 MSTORE PUSH1 0x20 ADD PUSH0 KECCAK256 DUP2 SWAP1 SSTORE POP TIMESTAMP PUSH1 0x6 PUSH0 CALLER PUSH20 0xFFFFFFFFFFFFFFFFFFFFFFFFFFFFFFFFFFFFFFFF AND PUSH20 0xFFFFFFFFFFFFFFFFFFFFFFFFFFFFFFFFFFFFFFFF AND DUP2 MSTORE PUSH1 0x20 ADD SWAP1 DUP2 MSTORE PUSH1 0x20 ADD PUSH0 KECCAK256 PUSH0 DUP8 PUSH20 0xFFFFFFFFFFFFFFFFFFFFFFFFFFFFFFFFFFFFFFFF AND PUSH20 0xFFFFFFFFFFFFFFFFFFFFFFFFFFFFFFFFFFFFFFFF AND DUP2 MSTORE PUSH1 0x20 ADD SWAP1 DUP2 MSTORE PUSH1 0x20 ADD PUSH0 KECCAK256 DUP2 SWAP1 SSTORE POP PUSH0 PUSH1 0x7 PUSH8 0xFFFFFFFFFFFFFFFF DUP2 GT ISZERO PUSH2 0x12B0 JUMPI PUSH2 0x12AF PUSH2 0x25CC JUMP JUMPDEST JUMPDEST PUSH1 0x40 MLOAD SWAP1 DUP1 DUP3 MSTORE DUP1 PUSH1 0x20 MUL PUSH1 0x20 ADD DUP3 ADD PUSH1 0x40 MSTORE DUP1 ISZERO PUSH2 0x12E9 JUMPI DUP2 PUSH1 0x20 ADD JUMPDEST PUSH2 0x12D6 PUSH2 0x2502 JUMP JUMPDEST DUP2 MSTORE PUSH1 0x20 ADD SWAP1 PUSH1 0x1 SWAP1 SUB SWAP1 DUP2 PUSH2 0x12CE JUMPI SWAP1 POP JUMPDEST POP SWAP1 POP PUSH1 0x40 MLOAD DUP1 PUSH1 0x60 ADD PUSH1 0x40 MSTORE DUP1 PUSH1 0x40 MLOAD DUP1 PUSH1 0x40 ADD PUSH1 0x40 MSTORE DUP1 PUSH1 0x4 DUP2 MSTORE PUSH1 0x20 ADD PUSH32 0x7573657200000000000000000000000000000000000000000000000000000000 DUP2 MSTORE POP DUP2 MSTORE PUSH1 0x20 ADD PUSH1 0x40 MLOAD DUP1 PUSH1 0x40 ADD PUSH1 0x40 MSTORE DUP1 PUSH1 0x7 DUP2 MSTORE PUSH1 0x20 ADD PUSH32 0x6164647265737300000000000000000000000000000000000000000000000000 DUP2 MSTORE POP DUP2 MSTORE PUSH1 0x20 ADD CALLER PUSH1 0x40 MLOAD PUSH1 0x20 ADD PUSH2 0x137E SWAP2 SWAP1 PUSH2 0x2776 JUMP JUMPDEST PUSH1 0x40 MLOAD PUSH1 0x20 DUP2 DUP4 SUB SUB DUP2 MSTORE SWAP1 PUSH1 0x40 MSTORE DUP2 MSTORE POP DUP2 PUSH0 DUP2 MLOAD DUP2 LT PUSH2 0x13A3 JUMPI PUSH2 0x13A2 PUSH2 0x3191 JUMP JUMPDEST JUMPDEST PUSH1 0x20 MUL PUSH1 0x20 ADD ADD DUP2 SWAP1 MSTORE POP PUSH1 0x40 MLOAD DUP1 PUSH1 0x60 ADD PUSH1 0x40 MSTORE DUP1 PUSH1 0x40 MLOAD DUP1 PUSH1 0x40 ADD PUSH1 0x40 MSTORE DUP1 PUSH1 0x6 DUP2 MSTORE PUSH1 0x20 ADD PUSH32 0x616D6F756E740000000000000000000000000000000000000000000000000000 DUP2 MSTORE POP DUP2 MSTORE PUSH1 0x20 ADD PUSH1 0x40 MLOAD DUP1 PUSH1 0x40 ADD PUSH1 0x40 MSTORE DUP1 PUSH1 0x7 DUP2 MSTORE PUSH1 0x20 ADD PUSH32 0x75696E7432353600000000000000000000000000000000000000000000000000 DUP2 MSTORE POP DUP2 MSTORE PUSH1 0x20 ADD DUP9 PUSH1 0x40 MLOAD PUSH1 0x20 ADD PUSH2 0x1440 SWAP2 SWAP1 PUSH2 0x286D JUMP JUMPDEST PUSH1 0x40 MLOAD PUSH1 0x20 DUP2 DUP4 SUB SUB DUP2 MSTORE SWAP1 PUSH1 0x40 MSTORE DUP2 MSTORE POP DUP2 PUSH1 0x1 DUP2 MLOAD DUP2 LT PUSH2 0x1466 JUMPI PUSH2 0x1465 PUSH2 0x3191 JUMP JUMPDEST JUMPDEST PUSH1 0x20 MUL PUSH1 0x20 ADD ADD DUP2 SWAP1 MSTORE POP PUSH1 0x40 MLOAD DUP1 PUSH1 0x60 ADD PUSH1 0x40 MSTORE DUP1 PUSH1 0x40 MLOAD DUP1 PUSH1 0x40 ADD PUSH1 0x40 MSTORE DUP1 PUSH1 0x5 DUP2 MSTORE PUSH1 0x20 ADD PUSH32 0x746F6B656E000000000000000000000000000000000000000000000000000000 DUP2 MSTORE POP DUP2 MSTORE PUSH1 0x20 ADD PUSH1 0x40 MLOAD DUP1 PUSH1 0x40 ADD PUSH1 0x40 MSTORE DUP1 PUSH1 0x6 DUP2 MSTORE PUSH1 0x20 ADD PUSH32 0x737472696E670000000000000000000000000000000000000000000000000000 DUP2 MSTORE POP DUP2 MSTORE PUSH1 0x20 ADD DUP11 DUP11 PUSH1 0x40 MLOAD PUSH1 0x20 ADD PUSH2 0x1505 SWAP3 SWAP2 SWAP1 PUSH2 0x31EA JUMP JUMPDEST PUSH1 0x40 MLOAD PUSH1 0x20 DUP2 DUP4 SUB SUB DUP2 MSTORE SWAP1 PUSH1 0x40 MSTORE DUP2 MSTORE POP DUP2 PUSH1 0x2 DUP2 MLOAD DUP2 LT PUSH2 0x152B JUMPI PUSH2 0x152A PUSH2 0x3191 JUMP JUMPDEST JUMPDEST PUSH1 0x20 MUL PUSH1 0x20 ADD ADD DUP2 SWAP1 MSTORE POP PUSH1 0x40 MLOAD DUP1 PUSH1 0x60 ADD PUSH1 0x40 MSTORE DUP1 PUSH1 0x40 MLOAD DUP1 PUSH1 0x40 ADD PUSH1 0x40 MSTORE DUP1 PUSH1 0x8 DUP2 MSTORE PUSH1 0x20 ADD PUSH32 0x70726F7669646572000000000000000000000000000000000000000000000000 DUP2 MSTORE POP DUP2 MSTORE PUSH1 0x20 ADD PUSH1 0x40 MLOAD DUP1 PUSH1 0x40 ADD PUSH1 0x40 MSTORE DUP1 PUSH1 0x6 DUP2 MSTORE PUSH1 0x20 ADD PUSH32 0x737472696E670000000000000000000000000000000000000000000000000000 DUP2 MSTORE POP DUP2 MSTORE PUSH1 0x20 ADD PUSH1 0x1 PUSH1 0x40 MLOAD PUSH1 0x20 ADD PUSH2 0x15C9 SWAP2 SWAP1 PUSH2 0x328D JUMP JUMPDEST PUSH1 0x40 MLOAD PUSH1 0x20 DUP2 DUP4 SUB SUB DUP2 MSTORE SWAP1 PUSH1 0x40 MSTORE DUP2 MSTORE POP DUP2 PUSH1 0x3 DUP2 MLOAD DUP2 LT PUSH2 0x15EF JUMPI PUSH2 0x15EE PUSH2 0x3191 JUMP JUMPDEST JUMPDEST PUSH1 0x20 MUL PUSH1 0x20 ADD ADD DUP2 SWAP1 MSTORE POP PUSH1 0x40 MLOAD DUP1 PUSH1 0x60 ADD PUSH1 0x40 MSTORE DUP1 PUSH1 0x40 MLOAD DUP1 PUSH1 0x40 ADD PUSH1 0x40 MSTORE DUP1 PUSH1 0x9 DUP2 MSTORE PUSH1 0x20 ADD PUSH32 0x74696D657374616D700000000000000000000000000000000000000000000000 DUP2 MSTORE POP DUP2 MSTORE PUSH1 0x20 ADD PUSH1 0x40 MLOAD DUP1 PUSH1 0x40 ADD PUSH1 0x40 MSTORE DUP1 PUSH1 0x7 DUP2 MSTORE PUSH1 0x20 ADD PUSH32 0x75696E7432353600000000000000000000000000000000000000000000000000 DUP2 MSTORE POP DUP2 MSTORE PUSH1 0x20 ADD TIMESTAMP PUSH1 0x40 MLOAD PUSH1 0x20 ADD PUSH2 0x168C SWAP2 SWAP1 PUSH2 0x286D JUMP JUMPDEST PUSH1 0x40 MLOAD PUSH1 0x20 DUP2 DUP4 SUB SUB DUP2 MSTORE SWAP1 PUSH1 0x40 MSTORE DUP2 MSTORE POP DUP2 PUSH1 0x4 DUP2 MLOAD DUP2 LT PUSH2 0x16B2 JUMPI PUSH2 0x16B1 PUSH2 0x3191 JUMP JUMPDEST JUMPDEST PUSH1 0x20 MUL PUSH1 0x20 ADD ADD DUP2 SWAP1 MSTORE POP PUSH1 0x40 MLOAD DUP1 PUSH1 0x60 ADD PUSH1 0x40 MSTORE DUP1 PUSH1 0x40 MLOAD DUP1 PUSH1 0x40 ADD PUSH1 0x40 MSTORE DUP1 PUSH1 0x4 DUP2 MSTORE PUSH1 0x20 ADD PUSH32 0x7261746500000000000000000000000000000000000000000000000000000000 DUP2 MSTORE POP DUP2 MSTORE PUSH1 0x20 ADD PUSH1 0x40 MLOAD DUP1 PUSH1 0x40 ADD PUSH1 0x40 MSTORE DUP1 PUSH1 0x7 DUP2 MSTORE PUSH1 0x20 ADD PUSH32 0x75696E7432353600000000000000000000000000000000000000000000000000 DUP2 MSTORE POP DUP2 MSTORE PUSH1 0x20 ADD DUP7 PUSH1 0x40 MLOAD PUSH1 0x20 ADD PUSH2 0x174F SWAP2 SWAP1 PUSH2 0x286D JUMP JUMPDEST PUSH1 0x40 MLOAD PUSH1 0x20 DUP2 DUP4 SUB SUB DUP2 MSTORE SWAP1 PUSH1 0x40 MSTORE DUP2 MSTORE POP DUP2 PUSH1 0x5 DUP2 MLOAD DUP2 LT PUSH2 0x1775 JUMPI PUSH2 0x1774 PUSH2 0x3191 JUMP JUMPDEST JUMPDEST PUSH1 0x20 MUL PUSH1 0x20 ADD ADD DUP2 SWAP1 MSTORE POP PUSH1 0x40 MLOAD DUP1 PUSH1 0x60 ADD PUSH1 0x40 MSTORE DUP1 PUSH1 0x40 MLOAD DUP1 PUSH1 0x40 ADD PUSH1 0x40 MSTORE DUP1 PUSH1 0x7 DUP2 MSTORE PUSH1 0x20 ADD PUSH32 0x7265776172647300000000000000000000000000000000000000000000000000 DUP2 MSTORE POP DUP2 MSTORE PUSH1 0x20 ADD PUSH1 0x40 MLOAD DUP1 PUSH1 0x40 ADD PUSH1 0x40 MSTORE DUP1 PUSH1 0x7 DUP2 MSTORE PUSH1 0x20 ADD PUSH32 0x75696E7432353600000000000000000000000000000000000000000000000000 DUP2 MSTORE POP DUP2 MSTORE PUSH1 0x20 ADD DUP6 PUSH1 0x40 MLOAD PUSH1 0x20 ADD PUSH2 0x1812 SWAP2 SWAP1 PUSH2 0x286D JUMP JUMPDEST PUSH1 0x40 MLOAD PUSH1 0x20 DUP2 DUP4 SUB SUB DUP2 MSTORE SWAP1 PUSH1 0x40 MSTORE DUP2 MSTORE POP DUP2 PUSH1 0x6 DUP2 MLOAD DUP2 LT PUSH2 0x1838 JUMPI PUSH2 0x1837 PUSH2 0x3191 JUMP JUMPDEST JUMPDEST PUSH1 0x20 MUL PUSH1 0x20 ADD ADD DUP2 SWAP1 MSTORE POP PUSH32 0x0 PUSH20 0xFFFFFFFFFFFFFFFFFFFFFFFFFFFFFFFFFFFFFFFF AND PUSH4 0x7D64FA9B DUP3 PUSH1 0x40 MLOAD DUP3 PUSH4 0xFFFFFFFF AND PUSH1 0xE0 SHL DUP2 MSTORE PUSH1 0x4 ADD PUSH2 0x189C SWAP2 SWAP1 PUSH2 0x35BA JUMP JUMPDEST PUSH0 PUSH1 0x40 MLOAD DUP1 DUP4 SUB DUP2 PUSH0 DUP8 DUP1 EXTCODESIZE ISZERO DUP1 ISZERO PUSH2 0x18B3 JUMPI PUSH0 PUSH0 REVERT JUMPDEST POP GAS CALL ISZERO DUP1 ISZERO PUSH2 0x18C5 JUMPI RETURNDATASIZE PUSH0 PUSH0 RETURNDATACOPY RETURNDATASIZE PUSH0 REVERT JUMPDEST POP POP POP POP DUP6 PUSH20 0xFFFFFFFFFFFFFFFFFFFFFFFFFFFFFFFFFFFFFFFF AND CALLER PUSH20 0xFFFFFFFFFFFFFFFFFFFFFFFFFFFFFFFFFFFFFFFF AND PUSH32 0xEF519B7EB82AAF6AC376A6DF2D793843EBFD593DE5F1A0601D3CC6AB49EBB395 DUP10 PUSH1 0x1 PUSH1 0x40 MLOAD PUSH2 0x1929 SWAP3 SWAP2 SWAP1 PUSH2 0x34DA JUMP JUMPDEST PUSH1 0x40 MLOAD DUP1 SWAP2 SUB SWAP1 LOG3 POP POP POP POP POP POP POP POP POP JUMP JUMPDEST PUSH1 0x5 PUSH1 0x20 MSTORE DUP2 PUSH0 MSTORE PUSH1 0x40 PUSH0 KECCAK256 PUSH1 0x20 MSTORE DUP1 PUSH0 MSTORE PUSH1 0x40 PUSH0 KECCAK256 PUSH0 SWAP2 POP SWAP2 POP POP SLOAD DUP2 JUMP JUMPDEST PUSH32 0x0 DUP2 JUMP JUMPDEST PUSH32 0x0 DUP2 JUMP JUMPDEST PUSH0 PUSH2 0x19F1 DUP5 DUP5 DUP1 DUP1 PUSH1 0x1F ADD PUSH1 0x20 DUP1 SWAP2 DIV MUL PUSH1 0x20 ADD PUSH1 0x40 MLOAD SWAP1 DUP2 ADD PUSH1 0x40 MSTORE DUP1 SWAP4 SWAP3 SWAP2 SWAP1 DUP2 DUP2 MSTORE PUSH1 0x20 ADD DUP4 DUP4 DUP1 DUP3 DUP5 CALLDATACOPY PUSH0 DUP2 DUP5 ADD MSTORE PUSH1 0x1F NOT PUSH1 0x1F DUP3 ADD AND SWAP1 POP DUP1 DUP4 ADD SWAP3 POP POP POP POP POP POP POP PUSH2 0x397 JUMP JUMPDEST SWAP1 POP PUSH1 0x7 PUSH0 DUP3 PUSH20 0xFFFFFFFFFFFFFFFFFFFFFFFFFFFFFFFFFFFFFFFF AND PUSH20 0xFFFFFFFFFFFFFFFFFFFFFFFFFFFFFFFFFFFFFFFF AND DUP2 MSTORE PUSH1 0x20 ADD SWAP1 DUP2 MSTORE PUSH1 0x20 ADD PUSH0 KECCAK256 PUSH0 SWAP1 SLOAD SWAP1 PUSH2 0x100 EXP SWAP1 DIV PUSH1 0xFF AND PUSH2 0x1A7C JUMPI PUSH1 0x40 MLOAD PUSH32 0x8C379A000000000000000000000000000000000000000000000000000000000 DUP2 MSTORE PUSH1 0x4 ADD PUSH2 0x1A73 SWAP1 PUSH2 0x2FDA JUMP JUMPDEST PUSH1 0x40 MLOAD DUP1 SWAP2 SUB SWAP1 REVERT JUMPDEST PUSH0 PUSH1 0x6 PUSH8 0xFFFFFFFFFFFFFFFF DUP2 GT ISZERO PUSH2 0x1A98 JUMPI PUSH2 0x1A97 PUSH2 0x25CC JUMP JUMPDEST JUMPDEST PUSH1 0x40 MLOAD SWAP1 DUP1 DUP3 MSTORE DUP1 PUSH1 0x20 MUL PUSH1 0x20 ADD DUP3 ADD PUSH1 0x40 MSTORE DUP1 ISZERO PUSH2 0x1AD1 JUMPI DUP2 PUSH1 0x20 ADD JUMPDEST PUSH2 0x1ABE PUSH2 0x2502 JUMP JUMPDEST DUP2 MSTORE PUSH1 0x20 ADD SWAP1 PUSH1 0x1 SWAP1 SUB SWAP1 DUP2 PUSH2 0x1AB6 JUMPI SWAP1 POP JUMPDEST POP SWAP1 POP PUSH1 0x40 MLOAD DUP1 PUSH1 0x60 ADD PUSH1 0x40 MSTORE DUP1 PUSH1 0x40 MLOAD DUP1 PUSH1 0x40 ADD PUSH1 0x40 MSTORE DUP1 PUSH1 0x4 DUP2 MSTORE PUSH1 0x20 ADD PUSH32 0x7573657200000000000000000000000000000000000000000000000000000000 DUP2 MSTORE POP DUP2 MSTORE PUSH1 0x20 ADD PUSH1 0x40 MLOAD DUP1 PUSH1 0x40 ADD PUSH1 0x40 MSTORE DUP1 PUSH1 0x5 DUP2 MSTORE PUSH1 0x20 ADD PUSH32 0x6279746573000000000000000000000000000000000000000000000000000000 DUP2 MSTORE POP DUP2 MSTORE PUSH1 0x20 ADD DUP11 DUP11 PUSH1 0x40 MLOAD PUSH1 0x20 ADD PUSH2 0x1B68 SWAP3 SWAP2 SWAP1 PUSH2 0x3629 JUMP JUMPDEST PUSH1 0x40 MLOAD PUSH1 0x20 DUP2 DUP4 SUB SUB DUP2 MSTORE SWAP1 PUSH1 0x40 MSTORE DUP2 MSTORE POP DUP2 PUSH0 DUP2 MLOAD DUP2 LT PUSH2 0x1B8D JUMPI PUSH2 0x1B8C PUSH2 0x3191 JUMP JUMPDEST JUMPDEST PUSH1 0x20 MUL PUSH1 0x20 ADD ADD DUP2 SWAP1 MSTORE POP PUSH1 0x40 MLOAD DUP1 PUSH1 0x60 ADD PUSH1 0x40 MSTORE DUP1 PUSH1 0x40 MLOAD DUP1 PUSH1 0x40 ADD PUSH1 0x40 MSTORE DUP1 PUSH1 0x6 DUP2 MSTORE PUSH1 0x20 ADD PUSH32 0x7368617265640000000000000000000000000000000000000000000000000000 DUP2 MSTORE POP DUP2 MSTORE PUSH1 0x20 ADD PUSH1 0x40 MLOAD DUP1 PUSH1 0x40 ADD PUSH1 0x40 MSTORE DUP1 PUSH1 0x7 DUP2 MSTORE PUSH1 0x20 ADD PUSH32 0x6164647265737300000000000000000000000000000000000000000000000000 DUP2 MSTORE POP DUP2 MSTORE PUSH1 0x20 ADD DUP9 DUP9 PUSH1 0x40 MLOAD PUSH1 0x20 ADD PUSH2 0x1C2C SWAP3 SWAP2 SWAP1 PUSH2 0x31EA JUMP JUMPDEST PUSH1 0x40 MLOAD PUSH1 0x20 DUP2 DUP4 SUB SUB DUP2 MSTORE SWAP1 PUSH1 0x40 MSTORE DUP2 MSTORE POP DUP2 PUSH1 0x1 DUP2 MLOAD DUP2 LT PUSH2 0x1C52 JUMPI PUSH2 0x1C51 PUSH2 0x3191 JUMP JUMPDEST JUMPDEST PUSH1 0x20 MUL PUSH1 0x20 ADD ADD DUP2 SWAP1 MSTORE POP PUSH1 0x40 MLOAD DUP1 PUSH1 0x60 ADD PUSH1 0x40 MSTORE DUP1 PUSH1 0x40 MLOAD DUP1 PUSH1 0x40 ADD PUSH1 0x40 MSTORE DUP1 PUSH1 0x6 DUP2 MSTORE PUSH1 0x20 ADD PUSH32 0x616D6F756E740000000000000000000000000000000000000000000000000000 DUP2 MSTORE POP DUP2 MSTORE PUSH1 0x20 ADD PUSH1 0x40 MLOAD DUP1 PUSH1 0x40 ADD PUSH1 0x40 MSTORE DUP1 PUSH1 0x7 DUP2 MSTORE PUSH1 0x20 ADD PUSH32 0x75696E7432353600000000000000000000000000000000000000000000000000 DUP2 MSTORE POP DUP2 MSTORE PUSH1 0x20 ADD DUP5 PUSH1 0x40 MLOAD PUSH1 0x20 ADD PUSH2 0x1CEF SWAP2 SWAP1 PUSH2 0x286D JUMP JUMPDEST PUSH1 0x40 MLOAD PUSH1 0x20 DUP2 DUP4 SUB SUB DUP2 MSTORE SWAP1 PUSH1 0x40 MSTORE DUP2 MSTORE POP DUP2 PUSH1 0x2 DUP2 MLOAD DUP2 LT PUSH2 0x1D15 JUMPI PUSH2 0x1D14 PUSH2 0x3191 JUMP JUMPDEST JUMPDEST PUSH1 0x20 MUL PUSH1 0x20 ADD ADD DUP2 SWAP1 MSTORE POP PUSH1 0x40 MLOAD DUP1 PUSH1 0x60 ADD PUSH1 0x40 MSTORE DUP1 PUSH1 0x40 MLOAD DUP1 PUSH1 0x40 ADD PUSH1 0x40 MSTORE DUP1 PUSH1 0x5 DUP2 MSTORE PUSH1 0x20 ADD PUSH32 0x636861696E000000000000000000000000000000000000000000000000000000 DUP2 MSTORE POP DUP2 MSTORE PUSH1 0x20 ADD PUSH1 0x40 MLOAD DUP1 PUSH1 0x40 ADD PUSH1 0x40 MSTORE DUP1 PUSH1 0x6 DUP2 MSTORE PUSH1 0x20 ADD PUSH32 0x737472696E670000000000000000000000000000000000000000000000000000 DUP2 MSTORE POP DUP2 MSTORE PUSH1 0x20 ADD PUSH1 0x40 MLOAD PUSH1 0x20 ADD PUSH2 0x1DB0 SWAP1 PUSH2 0x3695 JUMP JUMPDEST PUSH1 0x40 MLOAD PUSH1 0x20 DUP2 DUP4 SUB SUB DUP2 MSTORE SWAP1 PUSH1 0x40 MSTORE DUP2 MSTORE POP DUP2 PUSH1 0x3 DUP2 MLOAD DUP2 LT PUSH2 0x1DD6 JUMPI PUSH2 0x1DD5 PUSH2 0x3191 JUMP JUMPDEST JUMPDEST PUSH1 0x20 MUL PUSH1 0x20 ADD ADD DUP2 SWAP1 MSTORE POP PUSH1 0x40 MLOAD DUP1 PUSH1 0x60 ADD PUSH1 0x40 MSTORE DUP1 PUSH1 0x40 MLOAD DUP1 PUSH1 0x40 ADD PUSH1 0x40 MSTORE DUP1 PUSH1 0x8 DUP2 MSTORE PUSH1 0x20 ADD PUSH32 0x70726F7669646572000000000000000000000000000000000000000000000000 DUP2 MSTORE POP DUP2 MSTORE PUSH1 0x20 ADD PUSH1 0x40 MLOAD DUP1 PUSH1 0x40 ADD PUSH1 0x40 MSTORE DUP1 PUSH1 0x6 DUP2 MSTORE PUSH1 0x20 ADD PUSH32 0x737472696E670000000000000000000000000000000000000000000000000000 DUP2 MSTORE POP DUP2 MSTORE PUSH1 0x20 ADD PUSH1 0x1 PUSH1 0x40 MLOAD PUSH1 0x20 ADD PUSH2 0x1E74 SWAP2 SWAP1 PUSH2 0x328D JUMP JUMPDEST PUSH1 0x40 MLOAD PUSH1 0x20 DUP2 DUP4 SUB SUB DUP2 MSTORE SWAP1 PUSH1 0x40 MSTORE DUP2 MSTORE POP DUP2 PUSH1 0x4 DUP2 MLOAD DUP2 LT PUSH2 0x1E9A JUMPI PUSH2 0x1E99 PUSH2 0x3191 JUMP JUMPDEST JUMPDEST PUSH1 0x20 MUL PUSH1 0x20 ADD ADD DUP2 SWAP1 MSTORE POP PUSH1 0x40 MLOAD DUP1 PUSH1 0x60 ADD PUSH1 0x40 MSTORE DUP1 PUSH1 0x40 MLOAD DUP1 PUSH1 0x40 ADD PUSH1 0x40 MSTORE DUP1 PUSH1 0x5 DUP2 MSTORE PUSH1 0x20 ADD PUSH32 0x746F6B656E000000000000000000000000000000000000000000000000000000 DUP2 MSTORE POP DUP2 MSTORE PUSH1 0x20 ADD PUSH1 0x40 MLOAD DUP1 PUSH1 0x40 ADD PUSH1 0x40 MSTORE DUP1 PUSH1 0x6 DUP2 MSTORE PUSH1 0x20 ADD PUSH32 0x737472696E670000000000000000000000000000000000000000000000000000 DUP2 MSTORE POP DUP2 MSTORE PUSH1 0x20 ADD DUP7 DUP7 PUSH1 0x40 MLOAD PUSH1 0x20 ADD PUSH2 0x1F39 SWAP3 SWAP2 SWAP1 PUSH2 0x31EA JUMP JUMPDEST PUSH1 0x40 MLOAD PUSH1 0x20 DUP2 DUP4 SUB SUB DUP2 MSTORE SWAP1 PUSH1 0x40 MSTORE DUP2 MSTORE POP DUP2 PUSH1 0x5 DUP2 MLOAD DUP2 LT PUSH2 0x1F5F JUMPI PUSH2 0x1F5E PUSH2 0x3191 JUMP JUMPDEST JUMPDEST PUSH1 0x20 MUL PUSH1 0x20 ADD ADD DUP2 SWAP1 MSTORE POP PUSH32 0x0 PUSH20 0xFFFFFFFFFFFFFFFFFFFFFFFFFFFFFFFFFFFFFFFF AND PUSH4 0x7D64FA9B DUP3 PUSH1 0x40 MLOAD DUP3 PUSH4 0xFFFFFFFF AND PUSH1 0xE0 SHL DUP2 MSTORE PUSH1 0x4 ADD PUSH2 0x1FC3 SWAP2 SWAP1 PUSH2 0x36FD JUMP JUMPDEST PUSH0 PUSH1 0x40 MLOAD DUP1 DUP4 SUB DUP2 PUSH0 DUP8 DUP1 EXTCODESIZE ISZERO DUP1 ISZERO PUSH2 0x1FDA JUMPI PUSH0 PUSH0 REVERT JUMPDEST POP GAS CALL ISZERO DUP1 ISZERO PUSH2 0x1FEC JUMPI RETURNDATASIZE PUSH0 PUSH0 RETURNDATACOPY RETURNDATASIZE PUSH0 REVERT JUMPDEST POP POP POP POP POP POP POP POP POP POP POP POP POP JUMP JUMPDEST PUSH0 PUSH2 0x2048 DUP4 DUP4 DUP1 DUP1 PUSH1 0x1F ADD PUSH1 0x20 DUP1 SWAP2 DIV MUL PUSH1 0x20 ADD PUSH1 0x40 MLOAD SWAP1 DUP2 ADD PUSH1 0x40 MSTORE DUP1 SWAP4 SWAP3 SWAP2 SWAP1 DUP2 DUP2 MSTORE PUSH1 0x20 ADD DUP4 DUP4 DUP1 DUP3 DUP5 CALLDATACOPY PUSH0 DUP2 DUP5 ADD MSTORE PUSH1 0x1F NOT PUSH1 0x1F DUP3 ADD AND SWAP1 POP DUP1 DUP4 ADD SWAP3 POP POP POP POP POP POP POP PUSH2 0x397 JUMP JUMPDEST SWAP1 POP PUSH1 0x1 PUSH1 0x7 PUSH0 DUP4 PUSH20 0xFFFFFFFFFFFFFFFFFFFFFFFFFFFFFFFFFFFFFFFF AND PUSH20 0xFFFFFFFFFFFFFFFFFFFFFFFFFFFFFFFFFFFFFFFF AND DUP2 MSTORE PUSH1 0x20 ADD SWAP1 DUP2 MSTORE PUSH1 0x20 ADD PUSH0 KECCAK256 PUSH0 PUSH2 0x100 EXP DUP2 SLOAD DUP2 PUSH1 0xFF MUL NOT AND SWAP1 DUP4 ISZERO ISZERO MUL OR SWAP1 SSTORE POP DUP1 PUSH20 0xFFFFFFFFFFFFFFFFFFFFFFFFFFFFFFFFFFFFFFFF AND PUSH32 0xD57B1148EFB91F418A2178FC1FB4BA12F9400A4DC8E71851FD59E85D337C609F PUSH1 0x1 PUSH1 0x40 MLOAD PUSH2 0x20E6 SWAP2 SWAP1 PUSH2 0x328D JUMP JUMPDEST PUSH1 0x40 MLOAD DUP1 SWAP2 SUB SWAP1 LOG2 POP POP POP JUMP JUMPDEST PUSH2 0x20FB PUSH2 0x217D JUMP JUMPDEST PUSH0 PUSH20 0xFFFFFFFFFFFFFFFFFFFFFFFFFFFFFFFFFFFFFFFF AND DUP2 PUSH20 0xFFFFFFFFFFFFFFFFFFFFFFFFFFFFFFFFFFFFFFFF AND SUB PUSH2 0x216B JUMPI PUSH0 PUSH1 0x40 MLOAD PUSH32 0x1E4FBDF700000000000000000000000000000000000000000000000000000000 DUP2 MSTORE PUSH1 0x4 ADD PUSH2 0x2162 SWAP2 SWAP1 PUSH2 0x2776 JUMP JUMPDEST PUSH1 0x40 MLOAD DUP1 SWAP2 SUB SWAP1 REVERT JUMPDEST PUSH2 0x2174 DUP2 PUSH2 0x2204 JUMP JUMPDEST POP JUMP JUMPDEST PUSH1 0x2 SLOAD DUP2 JUMP JUMPDEST PUSH2 0x2185 PUSH2 0x2428 JUMP JUMPDEST PUSH20 0xFFFFFFFFFFFFFFFFFFFFFFFFFFFFFFFFFFFFFFFF AND PUSH2 0x21A3 PUSH2 0xEB5 JUMP JUMPDEST PUSH20 0xFFFFFFFFFFFFFFFFFFFFFFFFFFFFFFFFFFFFFFFF AND EQ PUSH2 0x2202 JUMPI PUSH2 0x21C6 PUSH2 0x2428 JUMP JUMPDEST PUSH1 0x40 MLOAD PUSH32 0x118CDAA700000000000000000000000000000000000000000000000000000000 DUP2 MSTORE PUSH1 0x4 ADD PUSH2 0x21F9 SWAP2 SWAP1 PUSH2 0x2776 JUMP JUMPDEST PUSH1 0x40 MLOAD DUP1 SWAP2 SUB SWAP1 REVERT JUMPDEST JUMP JUMPDEST PUSH0 PUSH0 PUSH0 SWAP1 SLOAD SWAP1 PUSH2 0x100 EXP SWAP1 DIV PUSH20 0xFFFFFFFFFFFFFFFFFFFFFFFFFFFFFFFFFFFFFFFF AND SWAP1 POP DUP2 PUSH0 PUSH0 PUSH2 0x100 EXP DUP2 SLOAD DUP2 PUSH20 0xFFFFFFFFFFFFFFFFFFFFFFFFFFFFFFFFFFFFFFFF MUL NOT AND SWAP1 DUP4 PUSH20 0xFFFFFFFFFFFFFFFFFFFFFFFFFFFFFFFFFFFFFFFF AND MUL OR SWAP1 SSTORE POP DUP2 PUSH20 0xFFFFFFFFFFFFFFFFFFFFFFFFFFFFFFFFFFFFFFFF AND DUP2 PUSH20 0xFFFFFFFFFFFFFFFFFFFFFFFFFFFFFFFFFFFFFFFF AND PUSH32 0x8BE0079C531659141344CD1FD0A4F28419497F9722A3DAAFE3B4186F6B6457E0 PUSH1 0x40 MLOAD PUSH1 0x40 MLOAD DUP1 SWAP2 SUB SWAP1 LOG3 POP POP JUMP JUMPDEST PUSH0 PUSH1 0x2 SLOAD PUSH1 0x3 SLOAD LT ISZERO PUSH2 0x230D JUMPI PUSH1 0x40 MLOAD PUSH32 0x8C379A000000000000000000000000000000000000000000000000000000000 DUP2 MSTORE PUSH1 0x4 ADD PUSH2 0x2304 SWAP1 PUSH2 0x377A JUMP JUMPDEST PUSH1 0x40 MLOAD DUP1 SWAP2 SUB SWAP1 REVERT JUMPDEST PUSH0 PUSH1 0x1 PUSH1 0x2 SLOAD PUSH1 0x3 SLOAD PUSH2 0x2320 SWAP2 SWAP1 PUSH2 0x3025 JUMP JUMPDEST PUSH2 0x232A SWAP2 SWAP1 PUSH2 0x30F6 JUMP JUMPDEST SWAP1 POP PUSH0 TIMESTAMP PREVRANDAO CALLER PUSH1 0x4 SLOAD PUSH1 0x40 MLOAD PUSH1 0x20 ADD PUSH2 0x2346 SWAP5 SWAP4 SWAP3 SWAP2 SWAP1 PUSH2 0x37FD JUMP JUMPDEST PUSH1 0x40 MLOAD PUSH1 0x20 DUP2 DUP4 SUB SUB DUP2 MSTORE SWAP1 PUSH1 0x40 MSTORE DUP1 MLOAD SWAP1 PUSH1 0x20 ADD KECCAK256 SWAP1 POP DUP2 DUP2 PUSH0 SHR PUSH2 0x236C SWAP2 SWAP1 PUSH2 0x384A JUMP JUMPDEST PUSH1 0x2 SLOAD PUSH2 0x2379 SWAP2 SWAP1 PUSH2 0x30F6 JUMP JUMPDEST SWAP3 POP POP POP SWAP1 JUMP JUMPDEST PUSH2 0x238D DUP4 DUP4 DUP4 PUSH1 0x1 PUSH2 0x242F JUMP JUMPDEST PUSH2 0x23CE JUMPI DUP3 PUSH1 0x40 MLOAD PUSH32 0x5274AFE700000000000000000000000000000000000000000000000000000000 DUP2 MSTORE PUSH1 0x4 ADD PUSH2 0x23C5 SWAP2 SWAP1 PUSH2 0x2776 JUMP JUMPDEST PUSH1 0x40 MLOAD DUP1 SWAP2 SUB SWAP1 REVERT JUMPDEST POP POP POP JUMP JUMPDEST PUSH2 0x23E1 DUP5 DUP5 DUP5 DUP5 PUSH1 0x1 PUSH2 0x2491 JUMP JUMPDEST PUSH2 0x2422 JUMPI DUP4 PUSH1 0x40 MLOAD PUSH32 0x5274AFE700000000000000000000000000000000000000000000000000000000 DUP2 MSTORE PUSH1 0x4 ADD PUSH2 0x2419 SWAP2 SWAP1 PUSH2 0x2776 JUMP JUMPDEST PUSH1 0x40 MLOAD DUP1 SWAP2 SUB SWAP1 REVERT JUMPDEST POP POP POP POP JUMP JUMPDEST PUSH0 CALLER SWAP1 POP SWAP1 JUMP JUMPDEST PUSH0 PUSH0 PUSH4 0xA9059CBB PUSH1 0xE0 SHL SWAP1 POP PUSH1 0x40 MLOAD DUP2 PUSH0 MSTORE PUSH0 NOT PUSH1 0x60 SHR DUP7 AND PUSH1 0x4 MSTORE DUP5 PUSH1 0x24 MSTORE PUSH1 0x20 PUSH0 PUSH1 0x44 PUSH0 PUSH0 DUP12 GAS CALL SWAP3 POP PUSH1 0x1 PUSH0 MLOAD EQ DUP4 AND PUSH2 0x2483 JUMPI DUP4 DUP4 ISZERO AND ISZERO PUSH2 0x2477 JUMPI RETURNDATASIZE PUSH0 DUP3 RETURNDATACOPY RETURNDATASIZE DUP2 REVERT JUMPDEST PUSH0 DUP8 EXTCODESIZE GT RETURNDATASIZE ISZERO AND DUP4 AND SWAP3 POP JUMPDEST DUP1 PUSH1 0x40 MSTORE POP POP SWAP5 SWAP4 POP POP POP POP JUMP JUMPDEST PUSH0 PUSH0 PUSH4 0x23B872DD PUSH1 0xE0 SHL SWAP1 POP PUSH1 0x40 MLOAD DUP2 PUSH0 MSTORE PUSH0 NOT PUSH1 0x60 SHR DUP8 AND PUSH1 0x4 MSTORE PUSH0 NOT PUSH1 0x60 SHR DUP7 AND PUSH1 0x24 MSTORE DUP5 PUSH1 0x44 MSTORE PUSH1 0x20 PUSH0 PUSH1 0x64 PUSH0 PUSH0 DUP13 GAS CALL SWAP3 POP PUSH1 0x1 PUSH0 MLOAD EQ DUP4 AND PUSH2 0x24EF JUMPI DUP4 DUP4 ISZERO AND ISZERO PUSH2 0x24E3 JUMPI RETURNDATASIZE PUSH0 DUP3 RETURNDATACOPY RETURNDATASIZE DUP2 REVERT JUMPDEST PUSH0 DUP9 EXTCODESIZE GT RETURNDATASIZE ISZERO AND DUP4 AND SWAP3 POP JUMPDEST DUP1 PUSH1 0x40 MSTORE PUSH0 PUSH1 0x60 MSTORE POP POP SWAP6 SWAP5 POP POP POP POP POP JUMP JUMPDEST PUSH1 0x40 MLOAD DUP1 PUSH1 0x60 ADD PUSH1 0x40 MSTORE DUP1 PUSH1 0x60 DUP2 MSTORE PUSH1 0x20 ADD PUSH1 0x60 DUP2 MSTORE PUSH1 0x20 ADD PUSH1 0x60 DUP2 MSTORE POP SWAP1 JUMP JUMPDEST PUSH0 DUP2 MLOAD SWAP1 POP SWAP2 SWAP1 POP JUMP JUMPDEST PUSH0 DUP3 DUP3 MSTORE PUSH1 0x20 DUP3 ADD SWAP1 POP SWAP3 SWAP2 POP POP JUMP JUMPDEST DUP3 DUP2 DUP4 MCOPY PUSH0 DUP4 DUP4 ADD MSTORE POP POP POP JUMP JUMPDEST PUSH0 PUSH1 0x1F NOT PUSH1 0x1F DUP4 ADD AND SWAP1 POP SWAP2 SWAP1 POP JUMP JUMPDEST PUSH0 PUSH2 0x2565 DUP3 PUSH2 0x2523 JUMP JUMPDEST PUSH2 0x256F DUP2 DUP6 PUSH2 0x252D JUMP JUMPDEST SWAP4 POP PUSH2 0x257F DUP2 DUP6 PUSH1 0x20 DUP7 ADD PUSH2 0x253D JUMP JUMPDEST PUSH2 0x2588 DUP2 PUSH2 0x254B JUMP JUMPDEST DUP5 ADD SWAP2 POP POP SWAP3 SWAP2 POP POP JUMP JUMPDEST PUSH0 PUSH1 0x20 DUP3 ADD SWAP1 POP DUP2 DUP2 SUB PUSH0 DUP4 ADD MSTORE PUSH2 0x25AB DUP2 DUP5 PUSH2 0x255B JUMP JUMPDEST SWAP1 POP SWAP3 SWAP2 POP POP JUMP JUMPDEST PUSH0 PUSH1 0x40 MLOAD SWAP1 POP SWAP1 JUMP JUMPDEST PUSH0 PUSH0 REVERT JUMPDEST PUSH0 PUSH0 REVERT JUMPDEST PUSH0 PUSH0 REVERT JUMPDEST PUSH0 PUSH0 REVERT JUMPDEST PUSH32 0x4E487B7100000000000000000000000000000000000000000000000000000000 PUSH0 MSTORE PUSH1 0x41 PUSH1 0x4 MSTORE PUSH1 0x24 PUSH0 REVERT JUMPDEST PUSH2 0x2602 DUP3 PUSH2 0x254B JUMP JUMPDEST DUP2 ADD DUP2 DUP2 LT PUSH8 0xFFFFFFFFFFFFFFFF DUP3 GT OR ISZERO PUSH2 0x2621 JUMPI PUSH2 0x2620 PUSH2 0x25CC JUMP JUMPDEST JUMPDEST DUP1 PUSH1 0x40 MSTORE POP POP POP JUMP JUMPDEST PUSH0 PUSH2 0x2633 PUSH2 0x25B3 JUMP JUMPDEST SWAP1 POP PUSH2 0x263F DUP3 DUP3 PUSH2 0x25F9 JUMP JUMPDEST SWAP2 SWAP1 POP JUMP JUMPDEST PUSH0 PUSH8 0xFFFFFFFFFFFFFFFF DUP3 GT ISZERO PUSH2 0x265E JUMPI PUSH2 0x265D PUSH2 0x25CC JUMP JUMPDEST JUMPDEST PUSH2 0x2667 DUP3 PUSH2 0x254B JUMP JUMPDEST SWAP1 POP PUSH1 0x20 DUP2 ADD SWAP1 POP SWAP2 SWAP1 POP JUMP JUMPDEST DUP3 DUP2 DUP4 CALLDATACOPY PUSH0 DUP4 DUP4 ADD MSTORE POP POP POP JUMP JUMPDEST PUSH0 PUSH2 0x2694 PUSH2 0x268F DUP5 PUSH2 0x2644 JUMP JUMPDEST PUSH2 0x262A JUMP JUMPDEST SWAP1 POP DUP3 DUP2 MSTORE PUSH1 0x20 DUP2 ADD DUP5 DUP5 DUP5 ADD GT ISZERO PUSH2 0x26B0 JUMPI PUSH2 0x26AF PUSH2 0x25C8 JUMP JUMPDEST JUMPDEST PUSH2 0x26BB DUP5 DUP3 DUP6 PUSH2 0x2674 JUMP JUMPDEST POP SWAP4 SWAP3 POP POP POP JUMP JUMPDEST PUSH0 DUP3 PUSH1 0x1F DUP4 ADD SLT PUSH2 0x26D7 JUMPI PUSH2 0x26D6 PUSH2 0x25C4 JUMP JUMPDEST JUMPDEST DUP2 CALLDATALOAD PUSH2 0x26E7 DUP5 DUP3 PUSH1 0x20 DUP7 ADD PUSH2 0x2682 JUMP JUMPDEST SWAP2 POP POP SWAP3 SWAP2 POP POP JUMP JUMPDEST PUSH0 PUSH1 0x20 DUP3 DUP5 SUB SLT ISZERO PUSH2 0x2705 JUMPI PUSH2 0x2704 PUSH2 0x25BC JUMP JUMPDEST JUMPDEST PUSH0 DUP3 ADD CALLDATALOAD PUSH8 0xFFFFFFFFFFFFFFFF DUP2 GT ISZERO PUSH2 0x2722 JUMPI PUSH2 0x2721 PUSH2 0x25C0 JUMP JUMPDEST JUMPDEST PUSH2 0x272E DUP5 DUP3 DUP6 ADD PUSH2 0x26C3 JUMP JUMPDEST SWAP2 POP POP SWAP3 SWAP2 POP POP JUMP JUMPDEST PUSH0 PUSH20 0xFFFFFFFFFFFFFFFFFFFFFFFFFFFFFFFFFFFFFFFF DUP3 AND SWAP1 POP SWAP2 SWAP1 POP JUMP JUMPDEST PUSH0 PUSH2 0x2760 DUP3 PUSH2 0x2737 JUMP JUMPDEST SWAP1 POP SWAP2 SWAP1 POP JUMP JUMPDEST PUSH2 0x2770 DUP2 PUSH2 0x2756 JUMP JUMPDEST DUP3 MSTORE POP POP JUMP JUMPDEST PUSH0 PUSH1 0x20 DUP3 ADD SWAP1 POP PUSH2 0x2789 PUSH0 DUP4 ADD DUP5 PUSH2 0x2767 JUMP JUMPDEST SWAP3 SWAP2 POP POP JUMP JUMPDEST PUSH2 0x2798 DUP2 PUSH2 0x2756 JUMP JUMPDEST DUP2 EQ PUSH2 0x27A2 JUMPI PUSH0 PUSH0 REVERT JUMPDEST POP JUMP JUMPDEST PUSH0 DUP2 CALLDATALOAD SWAP1 POP PUSH2 0x27B3 DUP2 PUSH2 0x278F JUMP JUMPDEST SWAP3 SWAP2 POP POP JUMP JUMPDEST PUSH0 PUSH1 0x20 DUP3 DUP5 SUB SLT ISZERO PUSH2 0x27CE JUMPI PUSH2 0x27CD PUSH2 0x25BC JUMP JUMPDEST JUMPDEST PUSH0 PUSH2 0x27DB DUP5 DUP3 DUP6 ADD PUSH2 0x27A5 JUMP JUMPDEST SWAP2 POP POP SWAP3 SWAP2 POP POP JUMP JUMPDEST PUSH0 DUP2 ISZERO ISZERO SWAP1 POP SWAP2 SWAP1 POP JUMP JUMPDEST PUSH2 0x27F8 DUP2 PUSH2 0x27E4 JUMP JUMPDEST DUP3 MSTORE POP POP JUMP JUMPDEST PUSH0 PUSH1 0x20 DUP3 ADD SWAP1 POP PUSH2 0x2811 PUSH0 DUP4 ADD DUP5 PUSH2 0x27EF JUMP JUMPDEST SWAP3 SWAP2 POP POP JUMP JUMPDEST PUSH0 PUSH0 PUSH1 0x40 DUP4 DUP6 SUB SLT ISZERO PUSH2 0x282D JUMPI PUSH2 0x282C PUSH2 0x25BC JUMP JUMPDEST JUMPDEST PUSH0 PUSH2 0x283A DUP6 DUP3 DUP7 ADD PUSH2 0x27A5 JUMP JUMPDEST SWAP3 POP POP PUSH1 0x20 PUSH2 0x284B DUP6 DUP3 DUP7 ADD PUSH2 0x27A5 JUMP JUMPDEST SWAP2 POP POP SWAP3 POP SWAP3 SWAP1 POP JUMP JUMPDEST PUSH0 DUP2 SWAP1 POP SWAP2 SWAP1 POP JUMP JUMPDEST PUSH2 0x2867 DUP2 PUSH2 0x2855 JUMP JUMPDEST DUP3 MSTORE POP POP JUMP JUMPDEST PUSH0 PUSH1 0x20 DUP3 ADD SWAP1 POP PUSH2 0x2880 PUSH0 DUP4 ADD DUP5 PUSH2 0x285E JUMP JUMPDEST SWAP3 SWAP2 POP POP JUMP JUMPDEST PUSH0 PUSH0 REVERT JUMPDEST PUSH0 PUSH0 REVERT JUMPDEST PUSH0 PUSH0 DUP4 PUSH1 0x1F DUP5 ADD SLT PUSH2 0x28A3 JUMPI PUSH2 0x28A2 PUSH2 0x25C4 JUMP JUMPDEST JUMPDEST DUP3 CALLDATALOAD SWAP1 POP PUSH8 0xFFFFFFFFFFFFFFFF DUP2 GT ISZERO PUSH2 0x28C0 JUMPI PUSH2 0x28BF PUSH2 0x2886 JUMP JUMPDEST JUMPDEST PUSH1 0x20 DUP4 ADD SWAP2 POP DUP4 PUSH1 0x1 DUP3 MUL DUP4 ADD GT ISZERO PUSH2 0x28DC JUMPI PUSH2 0x28DB PUSH2 0x288A JUMP JUMPDEST JUMPDEST SWAP3 POP SWAP3 SWAP1 POP JUMP JUMPDEST PUSH2 0x28EC DUP2 PUSH2 0x2855 JUMP JUMPDEST DUP2 EQ PUSH2 0x28F6 JUMPI PUSH0 PUSH0 REVERT JUMPDEST POP JUMP JUMPDEST PUSH0 DUP2 CALLDATALOAD SWAP1 POP PUSH2 0x2907 DUP2 PUSH2 0x28E3 JUMP JUMPDEST SWAP3 SWAP2 POP POP JUMP JUMPDEST PUSH0 PUSH0 PUSH0 PUSH0 PUSH0 PUSH1 0x80 DUP7 DUP9 SUB SLT ISZERO PUSH2 0x2926 JUMPI PUSH2 0x2925 PUSH2 0x25BC JUMP JUMPDEST JUMPDEST PUSH0 PUSH2 0x2933 DUP9 DUP3 DUP10 ADD PUSH2 0x27A5 JUMP JUMPDEST SWAP6 POP POP PUSH1 0x20 DUP7 ADD CALLDATALOAD PUSH8 0xFFFFFFFFFFFFFFFF DUP2 GT ISZERO PUSH2 0x2954 JUMPI PUSH2 0x2953 PUSH2 0x25C0 JUMP JUMPDEST JUMPDEST PUSH2 0x2960 DUP9 DUP3 DUP10 ADD PUSH2 0x288E JUMP JUMPDEST SWAP5 POP SWAP5 POP POP PUSH1 0x40 PUSH2 0x2973 DUP9 DUP3 DUP10 ADD PUSH2 0x28F9 JUMP JUMPDEST SWAP3 POP POP PUSH1 0x60 PUSH2 0x2984 DUP9 DUP3 DUP10 ADD PUSH2 0x28F9 JUMP JUMPDEST SWAP2 POP POP SWAP3 SWAP6 POP SWAP3 SWAP6 SWAP1 SWAP4 POP JUMP JUMPDEST PUSH0 PUSH0 PUSH0 PUSH1 0x40 DUP5 DUP7 SUB SLT ISZERO PUSH2 0x29A8 JUMPI PUSH2 0x29A7 PUSH2 0x25BC JUMP JUMPDEST JUMPDEST PUSH0 DUP5 ADD CALLDATALOAD PUSH8 0xFFFFFFFFFFFFFFFF DUP2 GT ISZERO PUSH2 0x29C5 JUMPI PUSH2 0x29C4 PUSH2 0x25C0 JUMP JUMPDEST JUMPDEST PUSH2 0x29D1 DUP7 DUP3 DUP8 ADD PUSH2 0x288E JUMP JUMPDEST SWAP4 POP SWAP4 POP POP PUSH1 0x20 PUSH2 0x29E4 DUP7 DUP3 DUP8 ADD PUSH2 0x28F9 JUMP JUMPDEST SWAP2 POP POP SWAP3 POP SWAP3 POP SWAP3 JUMP JUMPDEST PUSH0 DUP2 SWAP1 POP SWAP2 SWAP1 POP JUMP JUMPDEST PUSH0 PUSH2 0x2A11 PUSH2 0x2A0C PUSH2 0x2A07 DUP5 PUSH2 0x2737 JUMP JUMPDEST PUSH2 0x29EE JUMP JUMPDEST PUSH2 0x2737 JUMP JUMPDEST SWAP1 POP SWAP2 SWAP1 POP JUMP JUMPDEST PUSH0 PUSH2 0x2A22 DUP3 PUSH2 0x29F7 JUMP JUMPDEST SWAP1 POP SWAP2 SWAP1 POP JUMP JUMPDEST PUSH0 PUSH2 0x2A33 DUP3 PUSH2 0x2A18 JUMP JUMPDEST SWAP1 POP SWAP2 SWAP1 POP JUMP JUMPDEST PUSH2 0x2A43 DUP2 PUSH2 0x2A29 JUMP JUMPDEST DUP3 MSTORE POP POP JUMP JUMPDEST PUSH0 PUSH1 0x20 DUP3 ADD SWAP1 POP PUSH2 0x2A5C PUSH0 DUP4 ADD DUP5 PUSH2 0x2A3A JUMP JUMPDEST SWAP3 SWAP2 POP POP JUMP JUMPDEST PUSH0 PUSH2 0x2A6C DUP3 PUSH2 0x2A18 JUMP JUMPDEST SWAP1 POP SWAP2 SWAP1 POP JUMP JUMPDEST PUSH2 0x2A7C DUP2 PUSH2 0x2A62 JUMP JUMPDEST DUP3 MSTORE POP POP JUMP JUMPDEST PUSH0 PUSH1 0x20 DUP3 ADD SWAP1 POP PUSH2 0x2A95 PUSH0 DUP4 ADD DUP5 PUSH2 0x2A73 JUMP JUMPDEST SWAP3 SWAP2 POP POP JUMP JUMPDEST PUSH0 PUSH0 DUP4 PUSH1 0x1F DUP5 ADD SLT PUSH2 0x2AB0 JUMPI PUSH2 0x2AAF PUSH2 0x25C4 JUMP JUMPDEST JUMPDEST DUP3 CALLDATALOAD SWAP1 POP PUSH8 0xFFFFFFFFFFFFFFFF DUP2 GT ISZERO PUSH2 0x2ACD JUMPI PUSH2 0x2ACC PUSH2 0x2886 JUMP JUMPDEST JUMPDEST PUSH1 0x20 DUP4 ADD SWAP2 POP DUP4 PUSH1 0x1 DUP3 MUL DUP4 ADD GT ISZERO PUSH2 0x2AE9 JUMPI PUSH2 0x2AE8 PUSH2 0x288A JUMP JUMPDEST JUMPDEST SWAP3 POP SWAP3 SWAP1 POP JUMP JUMPDEST PUSH0 PUSH0 PUSH0 PUSH0 PUSH0 PUSH0 PUSH0 PUSH1 0x80 DUP9 DUP11 SUB SLT ISZERO PUSH2 0x2B0B JUMPI PUSH2 0x2B0A PUSH2 0x25BC JUMP JUMPDEST JUMPDEST PUSH0 DUP9 ADD CALLDATALOAD PUSH8 0xFFFFFFFFFFFFFFFF DUP2 GT ISZERO PUSH2 0x2B28 JUMPI PUSH2 0x2B27 PUSH2 0x25C0 JUMP JUMPDEST JUMPDEST PUSH2 0x2B34 DUP11 DUP3 DUP12 ADD PUSH2 0x2A9B JUMP JUMPDEST SWAP8 POP SWAP8 POP POP PUSH1 0x20 DUP9 ADD CALLDATALOAD PUSH8 0xFFFFFFFFFFFFFFFF DUP2 GT ISZERO PUSH2 0x2B57 JUMPI PUSH2 0x2B56 PUSH2 0x25C0 JUMP JUMPDEST JUMPDEST PUSH2 0x2B63 DUP11 DUP3 DUP12 ADD PUSH2 0x288E JUMP JUMPDEST SWAP6 POP SWAP6 POP POP PUSH1 0x40 DUP9 ADD CALLDATALOAD PUSH8 0xFFFFFFFFFFFFFFFF DUP2 GT ISZERO PUSH2 0x2B86 JUMPI PUSH2 0x2B85 PUSH2 0x25C0 JUMP JUMPDEST JUMPDEST PUSH2 0x2B92 DUP11 DUP3 DUP12 ADD PUSH2 0x288E JUMP JUMPDEST SWAP4 POP SWAP4 POP POP PUSH1 0x60 PUSH2 0x2BA5 DUP11 DUP3 DUP12 ADD PUSH2 0x28F9 JUMP JUMPDEST SWAP2 POP POP SWAP3 SWAP6 SWAP9 SWAP2 SWAP5 SWAP8 POP SWAP3 SWAP6 POP JUMP JUMPDEST PUSH0 PUSH0 PUSH1 0x20 DUP4 DUP6 SUB SLT ISZERO PUSH2 0x2BCA JUMPI PUSH2 0x2BC9 PUSH2 0x25BC JUMP JUMPDEST JUMPDEST PUSH0 DUP4 ADD CALLDATALOAD PUSH8 0xFFFFFFFFFFFFFFFF DUP2 GT ISZERO PUSH2 0x2BE7 JUMPI PUSH2 0x2BE6 PUSH2 0x25C0 JUMP JUMPDEST JUMPDEST PUSH2 0x2BF3 DUP6 DUP3 DUP7 ADD PUSH2 0x288E JUMP JUMPDEST SWAP3 POP SWAP3 POP POP SWAP3 POP SWAP3 SWAP1 POP JUMP JUMPDEST PUSH32 0x4E487B7100000000000000000000000000000000000000000000000000000000 PUSH0 MSTORE PUSH1 0x22 PUSH1 0x4 MSTORE PUSH1 0x24 PUSH0 REVERT JUMPDEST PUSH0 PUSH1 0x2 DUP3 DIV SWAP1 POP PUSH1 0x1 DUP3 AND DUP1 PUSH2 0x2C43 JUMPI PUSH1 0x7F DUP3 AND SWAP2 POP JUMPDEST PUSH1 0x20 DUP3 LT DUP2 SUB PUSH2 0x2C56 JUMPI PUSH2 0x2C55 PUSH2 0x2BFF JUMP JUMPDEST JUMPDEST POP SWAP2 SWAP1 POP JUMP JUMPDEST PUSH0 DUP2 SWAP1 POP SWAP3 SWAP2 POP POP JUMP JUMPDEST PUSH0 PUSH2 0x2C70 DUP3 PUSH2 0x2523 JUMP JUMPDEST PUSH2 0x2C7A DUP2 DUP6 PUSH2 0x2C5C JUMP JUMPDEST SWAP4 POP PUSH2 0x2C8A DUP2 DUP6 PUSH1 0x20 DUP7 ADD PUSH2 0x253D JUMP JUMPDEST DUP1 DUP5 ADD SWAP2 POP POP SWAP3 SWAP2 POP POP JUMP JUMPDEST PUSH32 0x5F00000000000000000000000000000000000000000000000000000000000000 PUSH0 DUP3 ADD MSTORE POP JUMP JUMPDEST PUSH0 PUSH2 0x2CCA PUSH1 0x1 DUP4 PUSH2 0x2C5C JUMP JUMPDEST SWAP2 POP PUSH2 0x2CD5 DUP3 PUSH2 0x2C96 JUMP JUMPDEST PUSH1 0x1 DUP3 ADD SWAP1 POP SWAP2 SWAP1 POP JUMP JUMPDEST PUSH0 DUP2 SWAP1 POP DUP2 PUSH0 MSTORE PUSH1 0x20 PUSH0 KECCAK256 SWAP1 POP SWAP2 SWAP1 POP JUMP JUMPDEST PUSH0 DUP2 SLOAD PUSH2 0x2CFE DUP2 PUSH2 0x2C2C JUMP JUMPDEST PUSH2 0x2D08 DUP2 DUP7 PUSH2 0x2C5C JUMP JUMPDEST SWAP5 POP PUSH1 0x1 DUP3 AND PUSH0 DUP2 EQ PUSH2 0x2D22 JUMPI PUSH1 0x1 DUP2 EQ PUSH2 0x2D37 JUMPI PUSH2 0x2D69 JUMP JUMPDEST PUSH1 0xFF NOT DUP4 AND DUP7 MSTORE DUP2 ISZERO ISZERO DUP3 MUL DUP7 ADD SWAP4 POP PUSH2 0x2D69 JUMP JUMPDEST PUSH2 0x2D40 DUP6 PUSH2 0x2CE0 JUMP JUMPDEST PUSH0 JUMPDEST DUP4 DUP2 LT ISZERO PUSH2 0x2D61 JUMPI DUP2 SLOAD DUP2 DUP10 ADD MSTORE PUSH1 0x1 DUP3 ADD SWAP2 POP PUSH1 0x20 DUP2 ADD SWAP1 POP PUSH2 0x2D42 JUMP JUMPDEST DUP4 DUP9 ADD SWAP6 POP POP POP JUMPDEST POP POP POP SWAP3 SWAP2 POP POP JUMP JUMPDEST PUSH0 PUSH2 0x2D7D DUP3 DUP6 PUSH2 0x2C66 JUMP JUMPDEST SWAP2 POP PUSH2 0x2D88 DUP3 PUSH2 0x2CBE JUMP JUMPDEST SWAP2 POP PUSH2 0x2D94 DUP3 DUP5 PUSH2 0x2CF2 JUMP JUMPDEST SWAP2 POP DUP2 SWAP1 POP SWAP4 SWAP3 POP POP POP JUMP JUMPDEST PUSH32 0x51696172614D6F6E616441737365747300000000000000000000000000000000 PUSH0 DUP3 ADD MSTORE POP JUMP JUMPDEST PUSH0 PUSH2 0x2DD4 PUSH1 0x10 DUP4 PUSH2 0x252D JUMP JUMPDEST SWAP2 POP PUSH2 0x2DDF DUP3 PUSH2 0x2DA0 JUMP JUMPDEST PUSH1 0x20 DUP3 ADD SWAP1 POP SWAP2 SWAP1 POP JUMP JUMPDEST PUSH0 PUSH1 0x40 DUP3 ADD SWAP1 POP DUP2 DUP2 SUB PUSH0 DUP4 ADD MSTORE PUSH2 0x2E01 DUP2 PUSH2 0x2DC8 JUMP JUMPDEST SWAP1 POP DUP2 DUP2 SUB PUSH1 0x20 DUP4 ADD MSTORE PUSH2 0x2E15 DUP2 DUP5 PUSH2 0x255B JUMP JUMPDEST SWAP1 POP SWAP3 SWAP2 POP POP JUMP JUMPDEST PUSH0 PUSH8 0xFFFFFFFFFFFFFFFF DUP3 GT ISZERO PUSH2 0x2E37 JUMPI PUSH2 0x2E36 PUSH2 0x25CC JUMP JUMPDEST JUMPDEST PUSH2 0x2E40 DUP3 PUSH2 0x254B JUMP JUMPDEST SWAP1 POP PUSH1 0x20 DUP2 ADD SWAP1 POP SWAP2 SWAP1 POP JUMP JUMPDEST PUSH0 PUSH2 0x2E5F PUSH2 0x2E5A DUP5 PUSH2 0x2E1D JUMP JUMPDEST PUSH2 0x262A JUMP JUMPDEST SWAP1 POP DUP3 DUP2 MSTORE PUSH1 0x20 DUP2 ADD DUP5 DUP5 DUP5 ADD GT ISZERO PUSH2 0x2E7B JUMPI PUSH2 0x2E7A PUSH2 0x25C8 JUMP JUMPDEST JUMPDEST PUSH2 0x2E86 DUP5 DUP3 DUP6 PUSH2 0x253D JUMP JUMPDEST POP SWAP4 SWAP3 POP POP POP JUMP JUMPDEST PUSH0 DUP3 PUSH1 0x1F DUP4 ADD SLT PUSH2 0x2EA2 JUMPI PUSH2 0x2EA1 PUSH2 0x25C4 JUMP JUMPDEST JUMPDEST DUP2 MLOAD PUSH2 0x2EB2 DUP5 DUP3 PUSH1 0x20 DUP7 ADD PUSH2 0x2E4D JUMP JUMPDEST SWAP2 POP POP SWAP3 SWAP2 POP POP JUMP JUMPDEST PUSH0 PUSH1 0x20 DUP3 DUP5 SUB SLT ISZERO PUSH2 0x2ED0 JUMPI PUSH2 0x2ECF PUSH2 0x25BC JUMP JUMPDEST JUMPDEST PUSH0 DUP3 ADD MLOAD PUSH8 0xFFFFFFFFFFFFFFFF DUP2 GT ISZERO PUSH2 0x2EED JUMPI PUSH2 0x2EEC PUSH2 0x25C0 JUMP JUMPDEST JUMPDEST PUSH2 0x2EF9 DUP5 DUP3 DUP6 ADD PUSH2 0x2E8E JUMP JUMPDEST SWAP2 POP POP SWAP3 SWAP2 POP POP JUMP JUMPDEST PUSH32 0x5661756C743A204173736574206E6F7420666F756E6420696E20726567697374 PUSH0 DUP3 ADD MSTORE PUSH32 0x7279000000000000000000000000000000000000000000000000000000000000 PUSH1 0x20 DUP3 ADD MSTORE POP JUMP JUMPDEST PUSH0 PUSH2 0x2F5C PUSH1 0x22 DUP4 PUSH2 0x252D JUMP JUMPDEST SWAP2 POP PUSH2 0x2F67 DUP3 PUSH2 0x2F02 JUMP JUMPDEST PUSH1 0x40 DUP3 ADD SWAP1 POP SWAP2 SWAP1 POP JUMP JUMPDEST PUSH0 PUSH1 0x20 DUP3 ADD SWAP1 POP DUP2 DUP2 SUB PUSH0 DUP4 ADD MSTORE PUSH2 0x2F89 DUP2 PUSH2 0x2F50 JUMP JUMPDEST SWAP1 POP SWAP2 SWAP1 POP JUMP JUMPDEST PUSH32 0x5661756C743A20546F6B656E206E6F7420737570706F72746564000000000000 PUSH0 DUP3 ADD MSTORE POP JUMP JUMPDEST PUSH0 PUSH2 0x2FC4 PUSH1 0x1A DUP4 PUSH2 0x252D JUMP JUMPDEST SWAP2 POP PUSH2 0x2FCF DUP3 PUSH2 0x2F90 JUMP JUMPDEST PUSH1 0x20 DUP3 ADD SWAP1 POP SWAP2 SWAP1 POP JUMP JUMPDEST PUSH0 PUSH1 0x20 DUP3 ADD SWAP1 POP DUP2 DUP2 SUB PUSH0 DUP4 ADD MSTORE PUSH2 0x2FF1 DUP2 PUSH2 0x2FB8 JUMP JUMPDEST SWAP1 POP SWAP2 SWAP1 POP JUMP JUMPDEST PUSH32 0x4E487B7100000000000000000000000000000000000000000000000000000000 PUSH0 MSTORE PUSH1 0x11 PUSH1 0x4 MSTORE PUSH1 0x24 PUSH0 REVERT JUMPDEST PUSH0 PUSH2 0x302F DUP3 PUSH2 0x2855 JUMP JUMPDEST SWAP2 POP PUSH2 0x303A DUP4 PUSH2 0x2855 JUMP JUMPDEST SWAP3 POP DUP3 DUP3 SUB SWAP1 POP DUP2 DUP2 GT ISZERO PUSH2 0x3052 JUMPI PUSH2 0x3051 PUSH2 0x2FF8 JUMP JUMPDEST JUMPDEST SWAP3 SWAP2 POP POP JUMP JUMPDEST PUSH0 PUSH2 0x3062 DUP3 PUSH2 0x2855 JUMP JUMPDEST SWAP2 POP PUSH2 0x306D DUP4 PUSH2 0x2855 JUMP JUMPDEST SWAP3 POP DUP3 DUP3 MUL PUSH2 0x307B DUP2 PUSH2 0x2855 JUMP JUMPDEST SWAP2 POP DUP3 DUP3 DIV DUP5 EQ DUP4 ISZERO OR PUSH2 0x3092 JUMPI PUSH2 0x3091 PUSH2 0x2FF8 JUMP JUMPDEST JUMPDEST POP SWAP3 SWAP2 POP POP JUMP JUMPDEST PUSH32 0x4E487B7100000000000000000000000000000000000000000000000000000000 PUSH0 MSTORE PUSH1 0x12 PUSH1 0x4 MSTORE PUSH1 0x24 PUSH0 REVERT JUMPDEST PUSH0 PUSH2 0x30D0 DUP3 PUSH2 0x2855 JUMP JUMPDEST SWAP2 POP PUSH2 0x30DB DUP4 PUSH2 0x2855 JUMP JUMPDEST SWAP3 POP DUP3 PUSH2 0x30EB JUMPI PUSH2 0x30EA PUSH2 0x3099 JUMP JUMPDEST JUMPDEST DUP3 DUP3 DIV SWAP1 POP SWAP3 SWAP2 POP POP JUMP JUMPDEST PUSH0 PUSH2 0x3100 DUP3 PUSH2 0x2855 JUMP JUMPDEST SWAP2 POP PUSH2 0x310B DUP4 PUSH2 0x2855 JUMP JUMPDEST SWAP3 POP DUP3 DUP3 ADD SWAP1 POP DUP1 DUP3 GT ISZERO PUSH2 0x3123 JUMPI PUSH2 0x3122 PUSH2 0x2FF8 JUMP JUMPDEST JUMPDEST SWAP3 SWAP2 POP POP JUMP JUMPDEST PUSH32 0x5661756C743A20496E73756666696369656E742062616C616E63650000000000 PUSH0 DUP3 ADD MSTORE POP JUMP JUMPDEST PUSH0 PUSH2 0x315D PUSH1 0x1B DUP4 PUSH2 0x252D JUMP JUMPDEST SWAP2 POP PUSH2 0x3168 DUP3 PUSH2 0x3129 JUMP JUMPDEST PUSH1 0x20 DUP3 ADD SWAP1 POP SWAP2 SWAP1 POP JUMP JUMPDEST PUSH0 PUSH1 0x20 DUP3 ADD SWAP1 POP DUP2 DUP2 SUB PUSH0 DUP4 ADD MSTORE PUSH2 0x318A DUP2 PUSH2 0x3151 JUMP JUMPDEST SWAP1 POP SWAP2 SWAP1 POP JUMP JUMPDEST PUSH32 0x4E487B7100000000000000000000000000000000000000000000000000000000 PUSH0 MSTORE PUSH1 0x32 PUSH1 0x4 MSTORE PUSH1 0x24 PUSH0 REVERT JUMPDEST PUSH0 PUSH2 0x31C9 DUP4 DUP6 PUSH2 0x252D JUMP JUMPDEST SWAP4 POP PUSH2 0x31D6 DUP4 DUP6 DUP5 PUSH2 0x2674 JUMP JUMPDEST PUSH2 0x31DF DUP4 PUSH2 0x254B JUMP JUMPDEST DUP5 ADD SWAP1 POP SWAP4 SWAP3 POP POP POP JUMP JUMPDEST PUSH0 PUSH1 0x20 DUP3 ADD SWAP1 POP DUP2 DUP2 SUB PUSH0 DUP4 ADD MSTORE PUSH2 0x3203 DUP2 DUP5 DUP7 PUSH2 0x31BE JUMP JUMPDEST SWAP1 POP SWAP4 SWAP3 POP POP POP JUMP JUMPDEST PUSH0 DUP2 SLOAD PUSH2 0x3218 DUP2 PUSH2 0x2C2C JUMP JUMPDEST PUSH2 0x3222 DUP2 DUP7 PUSH2 0x252D JUMP JUMPDEST SWAP5 POP PUSH1 0x1 DUP3 AND PUSH0 DUP2 EQ PUSH2 0x323C JUMPI PUSH1 0x1 DUP2 EQ PUSH2 0x3252 JUMPI PUSH2 0x3284 JUMP JUMPDEST PUSH1 0xFF NOT DUP4 AND DUP7 MSTORE DUP2 ISZERO ISZERO PUSH1 0x20 MUL DUP7 ADD SWAP4 POP PUSH2 0x3284 JUMP JUMPDEST PUSH2 0x325B DUP6 PUSH2 0x2CE0 JUMP JUMPDEST PUSH0 JUMPDEST DUP4 DUP2 LT ISZERO PUSH2 0x327C JUMPI DUP2 SLOAD DUP2 DUP10 ADD MSTORE PUSH1 0x1 DUP3 ADD SWAP2 POP PUSH1 0x20 DUP2 ADD SWAP1 POP PUSH2 0x325D JUMP JUMPDEST DUP1 DUP9 ADD SWAP6 POP POP POP JUMPDEST POP POP POP SWAP3 SWAP2 POP POP JUMP JUMPDEST PUSH0 PUSH1 0x20 DUP3 ADD SWAP1 POP DUP2 DUP2 SUB PUSH0 DUP4 ADD MSTORE PUSH2 0x32A5 DUP2 DUP5 PUSH2 0x320C JUMP JUMPDEST SWAP1 POP SWAP3 SWAP2 POP POP JUMP JUMPDEST PUSH32 0x4469726563742057697468647261770000000000000000000000000000000000 PUSH0 DUP3 ADD MSTORE POP JUMP JUMPDEST PUSH0 PUSH2 0x32E1 PUSH1 0xF DUP4 PUSH2 0x252D JUMP JUMPDEST SWAP2 POP PUSH2 0x32EC DUP3 PUSH2 0x32AD JUMP JUMPDEST PUSH1 0x20 DUP3 ADD SWAP1 POP SWAP2 SWAP1 POP JUMP JUMPDEST PUSH0 DUP2 MLOAD SWAP1 POP SWAP2 SWAP1 POP JUMP JUMPDEST PUSH0 DUP3 DUP3 MSTORE PUSH1 0x20 DUP3 ADD SWAP1 POP SWAP3 SWAP2 POP POP JUMP JUMPDEST PUSH0 DUP2 SWAP1 POP PUSH1 0x20 DUP3 ADD SWAP1 POP SWAP2 SWAP1 POP JUMP JUMPDEST PUSH0 DUP3 DUP3 MSTORE PUSH1 0x20 DUP3 ADD SWAP1 POP SWAP3 SWAP2 POP POP JUMP JUMPDEST PUSH0 PUSH2 0x333A DUP3 PUSH2 0x2523 JUMP JUMPDEST PUSH2 0x3344 DUP2 DUP6 PUSH2 0x3320 JUMP JUMPDEST SWAP4 POP PUSH2 0x3354 DUP2 DUP6 PUSH1 0x20 DUP7 ADD PUSH2 0x253D JUMP JUMPDEST PUSH2 0x335D DUP2 PUSH2 0x254B JUMP JUMPDEST DUP5 ADD SWAP2 POP POP SWAP3 SWAP2 POP POP JUMP JUMPDEST PUSH0 DUP2 MLOAD SWAP1 POP SWAP2 SWAP1 POP JUMP JUMPDEST PUSH0 DUP3 DUP3 MSTORE PUSH1 0x20 DUP3 ADD SWAP1 POP SWAP3 SWAP2 POP POP JUMP JUMPDEST PUSH0 PUSH2 0x338C DUP3 PUSH2 0x3368 JUMP JUMPDEST PUSH2 0x3396 DUP2 DUP6 PUSH2 0x3372 JUMP JUMPDEST SWAP4 POP PUSH2 0x33A6 DUP2 DUP6 PUSH1 0x20 DUP7 ADD PUSH2 0x253D JUMP JUMPDEST PUSH2 0x33AF DUP2 PUSH2 0x254B JUMP JUMPDEST DUP5 ADD SWAP2 POP POP SWAP3 SWAP2 POP POP JUMP JUMPDEST PUSH0 PUSH1 0x60 DUP4 ADD PUSH0 DUP4 ADD MLOAD DUP5 DUP3 SUB PUSH0 DUP7 ADD MSTORE PUSH2 0x33D4 DUP3 DUP3 PUSH2 0x3330 JUMP JUMPDEST SWAP2 POP POP PUSH1 0x20 DUP4 ADD MLOAD DUP5 DUP3 SUB PUSH1 0x20 DUP7 ADD MSTORE PUSH2 0x33EE DUP3 DUP3 PUSH2 0x3330 JUMP JUMPDEST SWAP2 POP POP PUSH1 0x40 DUP4 ADD MLOAD DUP5 DUP3 SUB PUSH1 0x40 DUP7 ADD MSTORE PUSH2 0x3408 DUP3 DUP3 PUSH2 0x3382 JUMP JUMPDEST SWAP2 POP POP DUP1 SWAP2 POP POP SWAP3 SWAP2 POP POP JUMP JUMPDEST PUSH0 PUSH2 0x3420 DUP4 DUP4 PUSH2 0x33BA JUMP JUMPDEST SWAP1 POP SWAP3 SWAP2 POP POP JUMP JUMPDEST PUSH0 PUSH1 0x20 DUP3 ADD SWAP1 POP SWAP2 SWAP1 POP JUMP JUMPDEST PUSH0 PUSH2 0x343E DUP3 PUSH2 0x32F7 JUMP JUMPDEST PUSH2 0x3448 DUP2 DUP6 PUSH2 0x3301 JUMP JUMPDEST SWAP4 POP DUP4 PUSH1 0x20 DUP3 MUL DUP6 ADD PUSH2 0x345A DUP6 PUSH2 0x3311 JUMP JUMPDEST DUP1 PUSH0 JUMPDEST DUP6 DUP2 LT ISZERO PUSH2 0x3495 JUMPI DUP5 DUP5 SUB DUP10 MSTORE DUP2 MLOAD PUSH2 0x3476 DUP6 DUP3 PUSH2 0x3415 JUMP JUMPDEST SWAP5 POP PUSH2 0x3481 DUP4 PUSH2 0x3428 JUMP JUMPDEST SWAP3 POP PUSH1 0x20 DUP11 ADD SWAP10 POP POP PUSH1 0x1 DUP2 ADD SWAP1 POP PUSH2 0x345D JUMP JUMPDEST POP DUP3 SWAP8 POP DUP8 SWAP6 POP POP POP POP POP POP SWAP3 SWAP2 POP POP JUMP JUMPDEST PUSH0 PUSH1 0x40 DUP3 ADD SWAP1 POP DUP2 DUP2 SUB PUSH0 DUP4 ADD MSTORE PUSH2 0x34BE DUP2 PUSH2 0x32D5 JUMP JUMPDEST SWAP1 POP DUP2 DUP2 SUB PUSH1 0x20 DUP4 ADD MSTORE PUSH2 0x34D2 DUP2 DUP5 PUSH2 0x3434 JUMP JUMPDEST SWAP1 POP SWAP3 SWAP2 POP POP JUMP JUMPDEST PUSH0 PUSH1 0x40 DUP3 ADD SWAP1 POP PUSH2 0x34ED PUSH0 DUP4 ADD DUP6 PUSH2 0x285E JUMP JUMPDEST DUP2 DUP2 SUB PUSH1 0x20 DUP4 ADD MSTORE PUSH2 0x34FF DUP2 DUP5 PUSH2 0x320C JUMP JUMPDEST SWAP1 POP SWAP4 SWAP3 POP POP POP JUMP JUMPDEST PUSH32 0x5661756C743A204465706F736974206D757374206265203E2030000000000000 PUSH0 DUP3 ADD MSTORE POP JUMP JUMPDEST PUSH0 PUSH2 0x353C PUSH1 0x1A DUP4 PUSH2 0x252D JUMP JUMPDEST SWAP2 POP PUSH2 0x3547 DUP3 PUSH2 0x3508 JUMP JUMPDEST PUSH1 0x20 DUP3 ADD SWAP1 POP SWAP2 SWAP1 POP JUMP JUMPDEST PUSH0 PUSH1 0x20 DUP3 ADD SWAP1 POP DUP2 DUP2 SUB PUSH0 DUP4 ADD MSTORE PUSH2 0x3569 DUP2 PUSH2 0x3530 JUMP JUMPDEST SWAP1 POP SWAP2 SWAP1 POP JUMP JUMPDEST PUSH32 0x4465706F73697400000000000000000000000000000000000000000000000000 PUSH0 DUP3 ADD MSTORE POP JUMP JUMPDEST PUSH0 PUSH2 0x35A4 PUSH1 0x7 DUP4 PUSH2 0x252D JUMP JUMPDEST SWAP2 POP PUSH2 0x35AF DUP3 PUSH2 0x3570 JUMP JUMPDEST PUSH1 0x20 DUP3 ADD SWAP1 POP SWAP2 SWAP1 POP JUMP JUMPDEST PUSH0 PUSH1 0x40 DUP3 ADD SWAP1 POP DUP2 DUP2 SUB PUSH0 DUP4 ADD MSTORE PUSH2 0x35D1 DUP2 PUSH2 0x3598 JUMP JUMPDEST SWAP1 POP DUP2 DUP2 SUB PUSH1 0x20 DUP4 ADD MSTORE PUSH2 0x35E5 DUP2 DUP5 PUSH2 0x3434 JUMP JUMPDEST SWAP1 POP SWAP3 SWAP2 POP POP JUMP JUMPDEST PUSH0 DUP3 DUP3 MSTORE PUSH1 0x20 DUP3 ADD SWAP1 POP SWAP3 SWAP2 POP POP JUMP JUMPDEST PUSH0 PUSH2 0x3608 DUP4 DUP6 PUSH2 0x35ED JUMP JUMPDEST SWAP4 POP PUSH2 0x3615 DUP4 DUP6 DUP5 PUSH2 0x2674 JUMP JUMPDEST PUSH2 0x361E DUP4 PUSH2 0x254B JUMP JUMPDEST DUP5 ADD SWAP1 POP SWAP4 SWAP3 POP POP POP JUMP JUMPDEST PUSH0 PUSH1 0x20 DUP3 ADD SWAP1 POP DUP2 DUP2 SUB PUSH0 DUP4 ADD MSTORE PUSH2 0x3642 DUP2 DUP5 DUP7 PUSH2 0x35FD JUMP JUMPDEST SWAP1 POP SWAP4 SWAP3 POP POP POP JUMP JUMPDEST PUSH32 0x6261736500000000000000000000000000000000000000000000000000000000 PUSH0 DUP3 ADD MSTORE POP JUMP JUMPDEST PUSH0 PUSH2 0x367F PUSH1 0x4 DUP4 PUSH2 0x252D JUMP JUMPDEST SWAP2 POP PUSH2 0x368A DUP3 PUSH2 0x364B JUMP JUMPDEST PUSH1 0x20 DUP3 ADD SWAP1 POP SWAP2 SWAP1 POP JUMP JUMPDEST PUSH0 PUSH1 0x20 DUP3 ADD SWAP1 POP DUP2 DUP2 SUB PUSH0 DUP4 ADD MSTORE PUSH2 0x36AC DUP2 PUSH2 0x3673 JUMP JUMPDEST SWAP1 POP SWAP2 SWAP1 POP JUMP JUMPDEST PUSH32 0x4D6F64756C617220576974686472617700000000000000000000000000000000 PUSH0 DUP3 ADD MSTORE POP JUMP JUMPDEST PUSH0 PUSH2 0x36E7 PUSH1 0x10 DUP4 PUSH2 0x252D JUMP JUMPDEST SWAP2 POP PUSH2 0x36F2 DUP3 PUSH2 0x36B3 JUMP JUMPDEST PUSH1 0x20 DUP3 ADD SWAP1 POP SWAP2 SWAP1 POP JUMP JUMPDEST PUSH0 PUSH1 0x40 DUP3 ADD SWAP1 POP DUP2 DUP2 SUB PUSH0 DUP4 ADD MSTORE PUSH2 0x3714 DUP2 PUSH2 0x36DB JUMP JUMPDEST SWAP1 POP DUP2 DUP2 SUB PUSH1 0x20 DUP4 ADD MSTORE PUSH2 0x3728 DUP2 DUP5 PUSH2 0x3434 JUMP JUMPDEST SWAP1 POP SWAP3 SWAP2 POP POP JUMP JUMPDEST PUSH32 0x5661756C743A204D6178206D757374206265203E3D204D696E00000000000000 PUSH0 DUP3 ADD MSTORE POP JUMP JUMPDEST PUSH0 PUSH2 0x3764 PUSH1 0x19 DUP4 PUSH2 0x252D JUMP JUMPDEST SWAP2 POP PUSH2 0x376F DUP3 PUSH2 0x3730 JUMP JUMPDEST PUSH1 0x20 DUP3 ADD SWAP1 POP SWAP2 SWAP1 POP JUMP JUMPDEST PUSH0 PUSH1 0x20 DUP3 ADD SWAP1 POP DUP2 DUP2 SUB PUSH0 DUP4 ADD MSTORE PUSH2 0x3791 DUP2 PUSH2 0x3758 JUMP JUMPDEST SWAP1 POP SWAP2 SWAP1 POP JUMP JUMPDEST PUSH0 DUP2 SWAP1 POP SWAP2 SWAP1 POP JUMP JUMPDEST PUSH2 0x37B2 PUSH2 0x37AD DUP3 PUSH2 0x2855 JUMP JUMPDEST PUSH2 0x3798 JUMP JUMPDEST DUP3 MSTORE POP POP JUMP JUMPDEST PUSH0 DUP2 PUSH1 0x60 SHL SWAP1 POP SWAP2 SWAP1 POP JUMP JUMPDEST PUSH0 PUSH2 0x37CE DUP3 PUSH2 0x37B8 JUMP JUMPDEST SWAP1 POP SWAP2 SWAP1 POP JUMP JUMPDEST PUSH0 PUSH2 0x37DF DUP3 PUSH2 0x37C4 JUMP JUMPDEST SWAP1 POP SWAP2 SWAP1 POP JUMP JUMPDEST PUSH2 0x37F7 PUSH2 0x37F2 DUP3 PUSH2 0x2756 JUMP JUMPDEST PUSH2 0x37D5 JUMP JUMPDEST DUP3 MSTORE POP POP JUMP JUMPDEST PUSH0 PUSH2 0x3808 DUP3 DUP8 PUSH2 0x37A1 JUMP JUMPDEST PUSH1 0x20 DUP3 ADD SWAP2 POP PUSH2 0x3818 DUP3 DUP7 PUSH2 0x37A1 JUMP JUMPDEST PUSH1 0x20 DUP3 ADD SWAP2 POP PUSH2 0x3828 DUP3 DUP6 PUSH2 0x37E6 JUMP JUMPDEST PUSH1 0x14 DUP3 ADD SWAP2 POP PUSH2 0x3838 DUP3 DUP5 PUSH2 0x37A1 JUMP JUMPDEST PUSH1 0x20 DUP3 ADD SWAP2 POP DUP2 SWAP1 POP SWAP6 SWAP5 POP POP POP POP POP JUMP JUMPDEST PUSH0 PUSH2 0x3854 DUP3 PUSH2 0x2855 JUMP JUMPDEST SWAP2 POP PUSH2 0x385F DUP4 PUSH2 0x2855 JUMP JUMPDEST SWAP3 POP DUP3 PUSH2 0x386F JUMPI PUSH2 0x386E PUSH2 0x3099 JUMP JUMPDEST JUMPDEST DUP3 DUP3 MOD SWAP1 POP SWAP3 SWAP2 POP POP JUMP INVALID LOG2 PUSH5 0x6970667358 0x22 SLT KECCAK256 0xBC 0xD9 DIV COINBASE 0x4B 0x2C DUP16 0xC8 JUMPI MSIZE MUL 0x2B BALANCE 0xD SWAP13 LT CREATE2 DUP7 PUSH25 0x30F6C720E1D4939265D367F75C64736F6C634300081F003300 "
				},
				"gasEstimates": {
					"creation": {
						"codeDepositCost": "2902400",
						"executionCost": "infinite",
						"totalCost": "infinite"
					},
					"external": {
						"deposit(string,uint256)": "infinite",
						"directWithdraw(address,string,uint256,uint256)": "infinite",
						"events()": "infinite",
						"isSupportedToken(address)": "2901",
						"lastInteracted(address,address)": "infinite",
						"listNewToken(string)": "infinite",
						"m_withdraw(bytes,string,string,uint256)": "infinite",
						"max()": "2448",
						"min()": "2513",
						"owner()": "2603",
						"providerName()": "infinite",
						"renounceOwnership()": "infinite",
						"resolveAsset(string)": "infinite",
						"transferOwnership(address)": "infinite",
						"userBalances(address,address)": "infinite",
						"variablesRegistry()": "infinite"
					},
					"internal": {
						"_getPseudoRandomRange()": "infinite"
					}
				},
				"methodIdentifiers": {
					"deposit(string,uint256)": "8e27d719",
					"directWithdraw(address,string,uint256,uint256)": "7a9eceb4",
					"events()": "b5f8558c",
					"isSupportedToken(address)": "240028e8",
					"lastInteracted(address,address)": "5137959f",
					"listNewToken(string)": "f139721c",
					"m_withdraw(bytes,string,string,uint256)": "d23ce9e5",
					"max()": "6ac5db19",
					"min()": "f8897945",
					"owner()": "8da5cb5b",
					"providerName()": "00dad7d4",
					"renounceOwnership()": "715018a6",
					"resolveAsset(string)": "05d09fb1",
					"transferOwnership(address)": "f2fde38b",
					"userBalances(address,address)": "adb51980",
					"variablesRegistry()": "bf4d766e"
				}
			},
			"storageLayout": {
				"storage": [
					{
						"astId": 8,
						"contract": "Evm/core/base/vault.sol:QiaraMultiAssetVault",
						"label": "_owner",
						"offset": 0,
						"slot": "0",
						"type": "t_address"
					},
					{
						"astId": 858,
						"contract": "Evm/core/base/vault.sol:QiaraMultiAssetVault",
						"label": "providerName",
						"offset": 0,
						"slot": "1",
						"type": "t_string_storage"
					},
					{
						"astId": 860,
						"contract": "Evm/core/base/vault.sol:QiaraMultiAssetVault",
						"label": "min",
						"offset": 0,
						"slot": "2",
						"type": "t_uint256"
					},
					{
						"astId": 862,
						"contract": "Evm/core/base/vault.sol:QiaraMultiAssetVault",
						"label": "max",
						"offset": 0,
						"slot": "3",
						"type": "t_uint256"
					},
					{
						"astId": 864,
						"contract": "Evm/core/base/vault.sol:QiaraMultiAssetVault",
						"label": "nonce",
						"offset": 0,
						"slot": "4",
						"type": "t_uint256"
					},
					{
						"astId": 870,
						"contract": "Evm/core/base/vault.sol:QiaraMultiAssetVault",
						"label": "userBalances",
						"offset": 0,
						"slot": "5",
						"type": "t_mapping(t_address,t_mapping(t_address,t_uint256))"
					},
					{
						"astId": 876,
						"contract": "Evm/core/base/vault.sol:QiaraMultiAssetVault",
						"label": "lastInteracted",
						"offset": 0,
						"slot": "6",
						"type": "t_mapping(t_address,t_mapping(t_address,t_uint256))"
					},
					{
						"astId": 880,
						"contract": "Evm/core/base/vault.sol:QiaraMultiAssetVault",
						"label": "isSupportedToken",
						"offset": 0,
						"slot": "7",
						"type": "t_mapping(t_address,t_bool)"
					}
				],
				"types": {
					"t_address": {
						"encoding": "inplace",
						"label": "address",
						"numberOfBytes": "20"
					},
					"t_bool": {
						"encoding": "inplace",
						"label": "bool",
						"numberOfBytes": "1"
					},
					"t_mapping(t_address,t_bool)": {
						"encoding": "mapping",
						"key": "t_address",
						"label": "mapping(address => bool)",
						"numberOfBytes": "32",
						"value": "t_bool"
					},
					"t_mapping(t_address,t_mapping(t_address,t_uint256))": {
						"encoding": "mapping",
						"key": "t_address",
						"label": "mapping(address => mapping(address => uint256))",
						"numberOfBytes": "32",
						"value": "t_mapping(t_address,t_uint256)"
					},
					"t_mapping(t_address,t_uint256)": {
						"encoding": "mapping",
						"key": "t_address",
						"label": "mapping(address => uint256)",
						"numberOfBytes": "32",
						"value": "t_uint256"
					},
					"t_string_storage": {
						"encoding": "bytes",
						"label": "string",
						"numberOfBytes": "32"
					},
					"t_uint256": {
						"encoding": "inplace",
						"label": "uint256",
						"numberOfBytes": "32"
					}
				}
			},
			"userdoc": {
				"kind": "user",
				"methods": {},
				"version": 1
			}
		}
	}
}