{
	"Evm/zk/variable_verifier.sol": {
		"Verifier": {
			"abi": [
				{
					"inputs": [],
					"name": "ProofInvalid",
					"type": "error"
				},
				{
					"inputs": [],
					"name": "PublicInputNotInField",
					"type": "error"
				},
				{
					"inputs": [
						{
							"internalType": "uint256[8]",
							"name": "proof",
							"type": "uint256[8]"
						}
					],
					"name": "compressProof",
					"outputs": [
						{
							"internalType": "uint256[4]",
							"name": "compressed",
							"type": "uint256[4]"
						}
					],
					"stateMutability": "view",
					"type": "function"
				},
				{
					"inputs": [
						{
							"internalType": "uint256[4]",
							"name": "compressedProof",
							"type": "uint256[4]"
						},
						{
							"internalType": "uint256[7]",
							"name": "input",
							"type": "uint256[7]"
						}
					],
					"name": "verifyCompressedProof",
					"outputs": [],
					"stateMutability": "view",
					"type": "function"
				},
				{
					"inputs": [
						{
							"internalType": "uint256[8]",
							"name": "proof",
							"type": "uint256[8]"
						},
						{
							"internalType": "uint256[7]",
							"name": "input",
							"type": "uint256[7]"
						}
					],
					"name": "verifyProof",
					"outputs": [],
					"stateMutability": "view",
					"type": "function"
				}
			],
			"devdoc": {
				"author": "Remco Bloemen",
				"errors": {
					"ProofInvalid()": [
						{
							"details": "This can mean that provided Groth16 proof points are not on their curves, that pairing equation fails, or that the proof is not for the provided public input."
						}
					],
					"PublicInputNotInField()": [
						{
							"details": "Public input elements are not automatically reduced, as this is can be a dangerous source of bugs."
						}
					]
				},
				"kind": "dev",
				"methods": {
					"compressProof(uint256[8])": {
						"params": {
							"proof": "The uncompressed Groth16 proof. Elements are in the same order as for verifyProof. I.e. Groth16 points (A, B, C) encoded as in EIP-197."
						},
						"returns": {
							"compressed": "The compressed proof. Elements are in the same order as for verifyCompressedProof. I.e. points (A, B, C) in compressed format."
						}
					},
					"verifyCompressedProof(uint256[4],uint256[7])": {
						"params": {
							"compressedProof": "the points (A, B, C) in compressed format matching the output of compressProof.",
							"input": "the public input field elements in the scalar field Fr. Elements must be reduced."
						}
					},
					"verifyProof(uint256[8],uint256[7])": {
						"params": {
							"input": "the public input field elements in the scalar field Fr. Elements must be reduced.",
							"proof": "the points (A, B, C) in EIP-197 format matching the output of compressProof."
						}
					}
				},
				"title": "Groth16 verifier template.",
				"version": 1
			},
			"evm": {
				"assembly": "    /* \"Evm/zk/variable_verifier.sol\":394:28556  contract Verifier {... */\n  mstore(0x40, 0x80)\n  callvalue\n  dup1\n  iszero\n  tag_1\n  jumpi\n  revert(0x00, 0x00)\ntag_1:\n  pop\n  dataSize(sub_0)\n  dup1\n  dataOffset(sub_0)\n  0x00\n  codecopy\n  0x00\n  return\nstop\n\nsub_0: assembly {\n        /* \"Evm/zk/variable_verifier.sol\":394:28556  contract Verifier {... */\n      mstore(0x40, 0x80)\n      callvalue\n      dup1\n      iszero\n      tag_1\n      jumpi\n      revert(0x00, 0x00)\n    tag_1:\n      pop\n      jumpi(tag_2, lt(calldatasize, 0x04))\n      shr(0xe0, calldataload(0x00))\n      dup1\n      0x1042664e\n      eq\n      tag_3\n      jumpi\n      dup1\n      0x44f63692\n      eq\n      tag_4\n      jumpi\n      dup1\n      0xf6d3293a\n      eq\n      tag_5\n      jumpi\n    tag_2:\n      revert(0x00, 0x00)\n        /* \"Evm/zk/variable_verifier.sol\":26379:28553  function verifyProof(... */\n    tag_3:\n      tag_6\n      0x04\n      dup1\n      calldatasize\n      sub\n      dup2\n      add\n      swap1\n      tag_7\n      swap2\n      swap1\n      tag_8\n      jump\t// in\n    tag_7:\n      tag_9\n      jump\t// in\n    tag_6:\n      stop\n        /* \"Evm/zk/variable_verifier.sol\":22656:22981  function compressProof(uint256[8] calldata proof)... */\n    tag_4:\n      tag_10\n      0x04\n      dup1\n      calldatasize\n      sub\n      dup2\n      add\n      swap1\n      tag_11\n      swap2\n      swap1\n      tag_12\n      jump\t// in\n    tag_11:\n      tag_13\n      jump\t// in\n    tag_10:\n      mload(0x40)\n      tag_14\n      swap2\n      swap1\n      tag_15\n      jump\t// in\n    tag_14:\n      mload(0x40)\n      dup1\n      swap2\n      sub\n      swap1\n      return\n        /* \"Evm/zk/variable_verifier.sol\":23540:25842  function verifyCompressedProof(... */\n    tag_5:\n      tag_16\n      0x04\n      dup1\n      calldatasize\n      sub\n      dup2\n      add\n      swap1\n      tag_17\n      swap2\n      swap1\n      tag_18\n      jump\t// in\n    tag_17:\n      tag_19\n      jump\t// in\n    tag_16:\n      stop\n        /* \"Evm/zk/variable_verifier.sol\":26379:28553  function verifyProof(... */\n    tag_9:\n        /* \"Evm/zk/variable_verifier.sol\":26503:26512  uint256 x */\n      0x00\n        /* \"Evm/zk/variable_verifier.sol\":26514:26523  uint256 y */\n      0x00\n        /* \"Evm/zk/variable_verifier.sol\":26527:26548  publicInputMSM(input) */\n      tag_21\n        /* \"Evm/zk/variable_verifier.sol\":26542:26547  input */\n      dup4\n        /* \"Evm/zk/variable_verifier.sol\":26527:26541  publicInputMSM */\n      tag_22\n        /* \"Evm/zk/variable_verifier.sol\":26527:26548  publicInputMSM(input) */\n      jump\t// in\n    tag_21:\n        /* \"Evm/zk/variable_verifier.sol\":26502:26548  (uint256 x, uint256 y) = publicInputMSM(input) */\n      swap2\n      pop\n      swap2\n      pop\n        /* \"Evm/zk/variable_verifier.sol\":26739:26751  bool success */\n      0x00\n        /* \"Evm/zk/variable_verifier.sol\":26817:26821  0x40 */\n      0x40\n        /* \"Evm/zk/variable_verifier.sol\":26811:26822  mload(0x40) */\n      mload\n        /* \"Evm/zk/variable_verifier.sol\":27033:27038  0x100 */\n      0x0100\n        /* \"Evm/zk/variable_verifier.sol\":27026:27031  proof */\n      dup7\n        /* \"Evm/zk/variable_verifier.sol\":27023:27024  f */\n      dup3\n        /* \"Evm/zk/variable_verifier.sol\":27010:27039  calldatacopy(f, proof, 0x100) */\n      calldatacopy\n        /* \"Evm/zk/variable_verifier.sol\":27347:27360  DELTA_NEG_X_1 */\n      0x087fd653168a951e9d99cba7b3efa5f23cd770aee26310762175569dcd06e8b7\n        /* \"Evm/zk/variable_verifier.sol\":27339:27344  0x100 */\n      0x0100\n        /* \"Evm/zk/variable_verifier.sol\":27336:27337  f */\n      dup3\n        /* \"Evm/zk/variable_verifier.sol\":27332:27345  add(f, 0x100) */\n      add\n        /* \"Evm/zk/variable_verifier.sol\":27325:27361  mstore(add(f, 0x100), DELTA_NEG_X_1) */\n      mstore\n        /* \"Evm/zk/variable_verifier.sol\":27397:27410  DELTA_NEG_X_0 */\n      0x24f3a1fa7c06a2f2e4a750e8823d93357cb140176680f4d420ab2313250e525e\n        /* \"Evm/zk/variable_verifier.sol\":27389:27394  0x120 */\n      0x0120\n        /* \"Evm/zk/variable_verifier.sol\":27386:27387  f */\n      dup3\n        /* \"Evm/zk/variable_verifier.sol\":27382:27395  add(f, 0x120) */\n      add\n        /* \"Evm/zk/variable_verifier.sol\":27375:27411  mstore(add(f, 0x120), DELTA_NEG_X_0) */\n      mstore\n        /* \"Evm/zk/variable_verifier.sol\":27447:27460  DELTA_NEG_Y_1 */\n      0x1d6f6d2610943de1ce6a8ba4044e1fa3977593f9e31e4baa211290b1888c5ad9\n        /* \"Evm/zk/variable_verifier.sol\":27439:27444  0x140 */\n      0x0140\n        /* \"Evm/zk/variable_verifier.sol\":27436:27437  f */\n      dup3\n        /* \"Evm/zk/variable_verifier.sol\":27432:27445  add(f, 0x140) */\n      add\n        /* \"Evm/zk/variable_verifier.sol\":27425:27461  mstore(add(f, 0x140), DELTA_NEG_Y_1) */\n      mstore\n        /* \"Evm/zk/variable_verifier.sol\":27497:27510  DELTA_NEG_Y_0 */\n      0x281a52f75b48c5f6686c95dd5c635a1ca8152e678485d406528f210bc0756f83\n        /* \"Evm/zk/variable_verifier.sol\":27489:27494  0x160 */\n      0x0160\n        /* \"Evm/zk/variable_verifier.sol\":27486:27487  f */\n      dup3\n        /* \"Evm/zk/variable_verifier.sol\":27482:27495  add(f, 0x160) */\n      add\n        /* \"Evm/zk/variable_verifier.sol\":27475:27511  mstore(add(f, 0x160), DELTA_NEG_Y_0) */\n      mstore\n        /* \"Evm/zk/variable_verifier.sol\":27547:27554  ALPHA_X */\n      0x1225909f34367dd4aaa172433b42e830c989433e1359caa801390e1fc921e17c\n        /* \"Evm/zk/variable_verifier.sol\":27539:27544  0x180 */\n      0x0180\n        /* \"Evm/zk/variable_verifier.sol\":27536:27537  f */\n      dup3\n        /* \"Evm/zk/variable_verifier.sol\":27532:27545  add(f, 0x180) */\n      add\n        /* \"Evm/zk/variable_verifier.sol\":27525:27555  mstore(add(f, 0x180), ALPHA_X) */\n      mstore\n        /* \"Evm/zk/variable_verifier.sol\":27591:27598  ALPHA_Y */\n      0x03a299734a356f04b005b7817a060d69db2ee02978ca7a49910f0c063b24a625\n        /* \"Evm/zk/variable_verifier.sol\":27583:27588  0x1a0 */\n      0x01a0\n        /* \"Evm/zk/variable_verifier.sol\":27580:27581  f */\n      dup3\n        /* \"Evm/zk/variable_verifier.sol\":27576:27589  add(f, 0x1a0) */\n      add\n        /* \"Evm/zk/variable_verifier.sol\":27569:27599  mstore(add(f, 0x1a0), ALPHA_Y) */\n      mstore\n        /* \"Evm/zk/variable_verifier.sol\":27635:27647  BETA_NEG_X_1 */\n      0x0cdd632a5ebdc4a5ac5e580c6a25ba03396d8a2880c7577b1ca76b82adc67df4\n        /* \"Evm/zk/variable_verifier.sol\":27627:27632  0x1c0 */\n      0x01c0\n        /* \"Evm/zk/variable_verifier.sol\":27624:27625  f */\n      dup3\n        /* \"Evm/zk/variable_verifier.sol\":27620:27633  add(f, 0x1c0) */\n      add\n        /* \"Evm/zk/variable_verifier.sol\":27613:27648  mstore(add(f, 0x1c0), BETA_NEG_X_1) */\n      mstore\n        /* \"Evm/zk/variable_verifier.sol\":27684:27696  BETA_NEG_X_0 */\n      0x190816743b80784e78e7279d2146229d614b95eef924f5c30dd70f1cced26abb\n        /* \"Evm/zk/variable_verifier.sol\":27676:27681  0x1e0 */\n      0x01e0\n        /* \"Evm/zk/variable_verifier.sol\":27673:27674  f */\n      dup3\n        /* \"Evm/zk/variable_verifier.sol\":27669:27682  add(f, 0x1e0) */\n      add\n        /* \"Evm/zk/variable_verifier.sol\":27662:27697  mstore(add(f, 0x1e0), BETA_NEG_X_0) */\n      mstore\n        /* \"Evm/zk/variable_verifier.sol\":27733:27745  BETA_NEG_Y_1 */\n      0x2c37f47e67539af4a79ff97614e32afa8547fab8eabb09f260f2ea1464e3f519\n        /* \"Evm/zk/variable_verifier.sol\":27725:27730  0x200 */\n      0x0200\n        /* \"Evm/zk/variable_verifier.sol\":27722:27723  f */\n      dup3\n        /* \"Evm/zk/variable_verifier.sol\":27718:27731  add(f, 0x200) */\n      add\n        /* \"Evm/zk/variable_verifier.sol\":27711:27746  mstore(add(f, 0x200), BETA_NEG_Y_1) */\n      mstore\n        /* \"Evm/zk/variable_verifier.sol\":27782:27794  BETA_NEG_Y_0 */\n      0x22ea03e91dd60412a313e72a0af52d9b5db4df76fc49fecb3919792c42c100aa\n        /* \"Evm/zk/variable_verifier.sol\":27774:27779  0x220 */\n      0x0220\n        /* \"Evm/zk/variable_verifier.sol\":27771:27772  f */\n      dup3\n        /* \"Evm/zk/variable_verifier.sol\":27767:27780  add(f, 0x220) */\n      add\n        /* \"Evm/zk/variable_verifier.sol\":27760:27795  mstore(add(f, 0x220), BETA_NEG_Y_0) */\n      mstore\n        /* \"Evm/zk/variable_verifier.sol\":27831:27832  x */\n      dup4\n        /* \"Evm/zk/variable_verifier.sol\":27823:27828  0x240 */\n      0x0240\n        /* \"Evm/zk/variable_verifier.sol\":27820:27821  f */\n      dup3\n        /* \"Evm/zk/variable_verifier.sol\":27816:27829  add(f, 0x240) */\n      add\n        /* \"Evm/zk/variable_verifier.sol\":27809:27833  mstore(add(f, 0x240), x) */\n      mstore\n        /* \"Evm/zk/variable_verifier.sol\":27869:27870  y */\n      dup3\n        /* \"Evm/zk/variable_verifier.sol\":27861:27866  0x260 */\n      0x0260\n        /* \"Evm/zk/variable_verifier.sol\":27858:27859  f */\n      dup3\n        /* \"Evm/zk/variable_verifier.sol\":27854:27867  add(f, 0x260) */\n      add\n        /* \"Evm/zk/variable_verifier.sol\":27847:27871  mstore(add(f, 0x260), y) */\n      mstore\n        /* \"Evm/zk/variable_verifier.sol\":27907:27920  GAMMA_NEG_X_1 */\n      0x03e0bc12809be9a55c5d24d5ee90f820006b533601ffa21ea50d9ec823a055dd\n        /* \"Evm/zk/variable_verifier.sol\":27899:27904  0x280 */\n      0x0280\n        /* \"Evm/zk/variable_verifier.sol\":27896:27897  f */\n      dup3\n        /* \"Evm/zk/variable_verifier.sol\":27892:27905  add(f, 0x280) */\n      add\n        /* \"Evm/zk/variable_verifier.sol\":27885:27921  mstore(add(f, 0x280), GAMMA_NEG_X_1) */\n      mstore\n        /* \"Evm/zk/variable_verifier.sol\":27957:27970  GAMMA_NEG_X_0 */\n      0x2f82deaf925710400085bdb950df2e551f9584fa54938ac6047e9b3ce91ae3d2\n        /* \"Evm/zk/variable_verifier.sol\":27949:27954  0x2a0 */\n      0x02a0\n        /* \"Evm/zk/variable_verifier.sol\":27946:27947  f */\n      dup3\n        /* \"Evm/zk/variable_verifier.sol\":27942:27955  add(f, 0x2a0) */\n      add\n        /* \"Evm/zk/variable_verifier.sol\":27935:27971  mstore(add(f, 0x2a0), GAMMA_NEG_X_0) */\n      mstore\n        /* \"Evm/zk/variable_verifier.sol\":28007:28020  GAMMA_NEG_Y_1 */\n      0x0d55d27e2ab1e0b09cb4af92bb626b883b5abf4525fcea9212cbc963463b9ebc\n        /* \"Evm/zk/variable_verifier.sol\":27999:28004  0x2c0 */\n      0x02c0\n        /* \"Evm/zk/variable_verifier.sol\":27996:27997  f */\n      dup3\n        /* \"Evm/zk/variable_verifier.sol\":27992:28005  add(f, 0x2c0) */\n      add\n        /* \"Evm/zk/variable_verifier.sol\":27985:28021  mstore(add(f, 0x2c0), GAMMA_NEG_Y_1) */\n      mstore\n        /* \"Evm/zk/variable_verifier.sol\":28057:28070  GAMMA_NEG_Y_0 */\n      0x0578e15bc3320595e5f87ece0e8b821718d6d72e524e070e506b60ea78160f94\n        /* \"Evm/zk/variable_verifier.sol\":28049:28054  0x2e0 */\n      0x02e0\n        /* \"Evm/zk/variable_verifier.sol\":28046:28047  f */\n      dup3\n        /* \"Evm/zk/variable_verifier.sol\":28042:28055  add(f, 0x2e0) */\n      add\n        /* \"Evm/zk/variable_verifier.sol\":28035:28071  mstore(add(f, 0x2e0), GAMMA_NEG_Y_0) */\n      mstore\n        /* \"Evm/zk/variable_verifier.sol\":28188:28192  0x20 */\n      0x20\n        /* \"Evm/zk/variable_verifier.sol\":28185:28186  f */\n      dup2\n        /* \"Evm/zk/variable_verifier.sol\":28178:28183  0x300 */\n      0x0300\n        /* \"Evm/zk/variable_verifier.sol\":28175:28176  f */\n      dup4\n        /* \"Evm/zk/variable_verifier.sol\":28156:28173  PRECOMPILE_VERIFY */\n      0x08\n        /* \"Evm/zk/variable_verifier.sol\":28149:28154  gas() */\n      gas\n        /* \"Evm/zk/variable_verifier.sol\":28138:28193  staticcall(gas(), PRECOMPILE_VERIFY, f, 0x300, f, 0x20) */\n      staticcall\n        /* \"Evm/zk/variable_verifier.sol\":28127:28193  success := staticcall(gas(), PRECOMPILE_VERIFY, f, 0x300, f, 0x20) */\n      swap2\n      pop\n        /* \"Evm/zk/variable_verifier.sol\":28305:28306  f */\n      dup1\n        /* \"Evm/zk/variable_verifier.sol\":28299:28307  mload(f) */\n      mload\n        /* \"Evm/zk/variable_verifier.sol\":28290:28297  success */\n      dup3\n        /* \"Evm/zk/variable_verifier.sol\":28286:28308  and(success, mload(f)) */\n      and\n        /* \"Evm/zk/variable_verifier.sol\":28275:28308  success := and(success, mload(f)) */\n      swap2\n      pop\n        /* \"Evm/zk/variable_verifier.sol\":26787:28319  {... */\n      pop\n        /* \"Evm/zk/variable_verifier.sol\":28334:28341  success */\n      dup1\n        /* \"Evm/zk/variable_verifier.sol\":28329:28546  if (!success) {... */\n      tag_23\n      jumpi\n        /* \"Evm/zk/variable_verifier.sol\":28520:28534  ProofInvalid() */\n      mload(0x40)\n      0x7fcdd1f400000000000000000000000000000000000000000000000000000000\n      dup2\n      mstore\n      0x04\n      add\n      mload(0x40)\n      dup1\n      swap2\n      sub\n      swap1\n      revert\n        /* \"Evm/zk/variable_verifier.sol\":28329:28546  if (!success) {... */\n    tag_23:\n        /* \"Evm/zk/variable_verifier.sol\":26491:28553  {... */\n      pop\n      pop\n      pop\n        /* \"Evm/zk/variable_verifier.sol\":26379:28553  function verifyProof(... */\n      pop\n      pop\n      jump\t// out\n        /* \"Evm/zk/variable_verifier.sol\":22656:22981  function compressProof(uint256[8] calldata proof)... */\n    tag_13:\n        /* \"Evm/zk/variable_verifier.sol\":22732:22760  uint256[4] memory compressed */\n      tag_24\n      tag_25\n      jump\t// in\n    tag_24:\n        /* \"Evm/zk/variable_verifier.sol\":22789:22820  compress_g1(proof[0], proof[1]) */\n      tag_27\n        /* \"Evm/zk/variable_verifier.sol\":22801:22806  proof */\n      dup3\n        /* \"Evm/zk/variable_verifier.sol\":22807:22808  0 */\n      0x00\n        /* \"Evm/zk/variable_verifier.sol\":22801:22809  proof[0] */\n      0x08\n      dup2\n      lt\n      tag_28\n      jumpi\n      tag_29\n      tag_30\n      jump\t// in\n    tag_29:\n    tag_28:\n      0x20\n      mul\n      add\n      calldataload\n        /* \"Evm/zk/variable_verifier.sol\":22811:22816  proof */\n      dup4\n        /* \"Evm/zk/variable_verifier.sol\":22817:22818  1 */\n      0x01\n        /* \"Evm/zk/variable_verifier.sol\":22811:22819  proof[1] */\n      0x08\n      dup2\n      lt\n      tag_31\n      jumpi\n      tag_32\n      tag_30\n      jump\t// in\n    tag_32:\n    tag_31:\n      0x20\n      mul\n      add\n      calldataload\n        /* \"Evm/zk/variable_verifier.sol\":22789:22800  compress_g1 */\n      tag_33\n        /* \"Evm/zk/variable_verifier.sol\":22789:22820  compress_g1(proof[0], proof[1]) */\n      jump\t// in\n    tag_27:\n        /* \"Evm/zk/variable_verifier.sol\":22773:22783  compressed */\n      dup2\n        /* \"Evm/zk/variable_verifier.sol\":22784:22785  0 */\n      0x00\n        /* \"Evm/zk/variable_verifier.sol\":22773:22786  compressed[0] */\n      0x04\n      dup2\n      lt\n      tag_34\n      jumpi\n      tag_35\n      tag_30\n      jump\t// in\n    tag_35:\n    tag_34:\n      0x20\n      mul\n      add\n        /* \"Evm/zk/variable_verifier.sol\":22773:22820  compressed[0] = compress_g1(proof[0], proof[1]) */\n      dup2\n      dup2\n      mstore\n      pop\n      pop\n        /* \"Evm/zk/variable_verifier.sol\":22864:22915  compress_g2(proof[3], proof[2], proof[5], proof[4]) */\n      tag_36\n        /* \"Evm/zk/variable_verifier.sol\":22876:22881  proof */\n      dup3\n        /* \"Evm/zk/variable_verifier.sol\":22882:22883  3 */\n      0x03\n        /* \"Evm/zk/variable_verifier.sol\":22876:22884  proof[3] */\n      0x08\n      dup2\n      lt\n      tag_37\n      jumpi\n      tag_38\n      tag_30\n      jump\t// in\n    tag_38:\n    tag_37:\n      0x20\n      mul\n      add\n      calldataload\n        /* \"Evm/zk/variable_verifier.sol\":22886:22891  proof */\n      dup4\n        /* \"Evm/zk/variable_verifier.sol\":22892:22893  2 */\n      0x02\n        /* \"Evm/zk/variable_verifier.sol\":22886:22894  proof[2] */\n      0x08\n      dup2\n      lt\n      tag_39\n      jumpi\n      tag_40\n      tag_30\n      jump\t// in\n    tag_40:\n    tag_39:\n      0x20\n      mul\n      add\n      calldataload\n        /* \"Evm/zk/variable_verifier.sol\":22896:22901  proof */\n      dup5\n        /* \"Evm/zk/variable_verifier.sol\":22902:22903  5 */\n      0x05\n        /* \"Evm/zk/variable_verifier.sol\":22896:22904  proof[5] */\n      0x08\n      dup2\n      lt\n      tag_41\n      jumpi\n      tag_42\n      tag_30\n      jump\t// in\n    tag_42:\n    tag_41:\n      0x20\n      mul\n      add\n      calldataload\n        /* \"Evm/zk/variable_verifier.sol\":22906:22911  proof */\n      dup6\n        /* \"Evm/zk/variable_verifier.sol\":22912:22913  4 */\n      0x04\n        /* \"Evm/zk/variable_verifier.sol\":22906:22914  proof[4] */\n      0x08\n      dup2\n      lt\n      tag_43\n      jumpi\n      tag_44\n      tag_30\n      jump\t// in\n    tag_44:\n    tag_43:\n      0x20\n      mul\n      add\n      calldataload\n        /* \"Evm/zk/variable_verifier.sol\":22864:22875  compress_g2 */\n      tag_45\n        /* \"Evm/zk/variable_verifier.sol\":22864:22915  compress_g2(proof[3], proof[2], proof[5], proof[4]) */\n      jump\t// in\n    tag_36:\n        /* \"Evm/zk/variable_verifier.sol\":22832:22842  compressed */\n      dup3\n        /* \"Evm/zk/variable_verifier.sol\":22843:22844  2 */\n      0x02\n        /* \"Evm/zk/variable_verifier.sol\":22832:22845  compressed[2] */\n      0x04\n      dup2\n      lt\n      tag_46\n      jumpi\n      tag_47\n      tag_30\n      jump\t// in\n    tag_47:\n    tag_46:\n      0x20\n      mul\n      add\n        /* \"Evm/zk/variable_verifier.sol\":22847:22857  compressed */\n      dup4\n        /* \"Evm/zk/variable_verifier.sol\":22858:22859  1 */\n      0x01\n        /* \"Evm/zk/variable_verifier.sol\":22847:22860  compressed[1] */\n      0x04\n      dup2\n      lt\n      tag_48\n      jumpi\n      tag_49\n      tag_30\n      jump\t// in\n    tag_49:\n    tag_48:\n      0x20\n      mul\n      add\n        /* \"Evm/zk/variable_verifier.sol\":22831:22915  (compressed[2], compressed[1]) = compress_g2(proof[3], proof[2], proof[5], proof[4]) */\n      dup3\n      dup2\n      mstore\n      pop\n      dup3\n      dup2\n      mstore\n      pop\n      pop\n      pop\n        /* \"Evm/zk/variable_verifier.sol\":22942:22973  compress_g1(proof[6], proof[7]) */\n      tag_50\n        /* \"Evm/zk/variable_verifier.sol\":22954:22959  proof */\n      dup3\n        /* \"Evm/zk/variable_verifier.sol\":22960:22961  6 */\n      0x06\n        /* \"Evm/zk/variable_verifier.sol\":22954:22962  proof[6] */\n      0x08\n      dup2\n      lt\n      tag_51\n      jumpi\n      tag_52\n      tag_30\n      jump\t// in\n    tag_52:\n    tag_51:\n      0x20\n      mul\n      add\n      calldataload\n        /* \"Evm/zk/variable_verifier.sol\":22964:22969  proof */\n      dup4\n        /* \"Evm/zk/variable_verifier.sol\":22970:22971  7 */\n      0x07\n        /* \"Evm/zk/variable_verifier.sol\":22964:22972  proof[7] */\n      0x08\n      dup2\n      lt\n      tag_53\n      jumpi\n      tag_54\n      tag_30\n      jump\t// in\n    tag_54:\n    tag_53:\n      0x20\n      mul\n      add\n      calldataload\n        /* \"Evm/zk/variable_verifier.sol\":22942:22953  compress_g1 */\n      tag_33\n        /* \"Evm/zk/variable_verifier.sol\":22942:22973  compress_g1(proof[6], proof[7]) */\n      jump\t// in\n    tag_50:\n        /* \"Evm/zk/variable_verifier.sol\":22926:22936  compressed */\n      dup2\n        /* \"Evm/zk/variable_verifier.sol\":22937:22938  3 */\n      0x03\n        /* \"Evm/zk/variable_verifier.sol\":22926:22939  compressed[3] */\n      0x04\n      dup2\n      lt\n      tag_55\n      jumpi\n      tag_56\n      tag_30\n      jump\t// in\n    tag_56:\n    tag_55:\n      0x20\n      mul\n      add\n        /* \"Evm/zk/variable_verifier.sol\":22926:22973  compressed[3] = compress_g1(proof[6], proof[7]) */\n      dup2\n      dup2\n      mstore\n      pop\n      pop\n        /* \"Evm/zk/variable_verifier.sol\":22656:22981  function compressProof(uint256[8] calldata proof)... */\n      swap2\n      swap1\n      pop\n      jump\t// out\n        /* \"Evm/zk/variable_verifier.sol\":23540:25842  function verifyCompressedProof(... */\n    tag_19:\n        /* \"Evm/zk/variable_verifier.sol\":23683:23710  uint256[24] memory pairings */\n      tag_58\n      tag_59\n      jump\t// in\n    tag_58:\n        /* \"Evm/zk/variable_verifier.sol\":23739:23749  uint256 Ax */\n      0x00\n        /* \"Evm/zk/variable_verifier.sol\":23751:23761  uint256 Ay */\n      0x00\n        /* \"Evm/zk/variable_verifier.sol\":23765:23798  decompress_g1(compressedProof[0]) */\n      tag_60\n        /* \"Evm/zk/variable_verifier.sol\":23779:23794  compressedProof */\n      dup6\n        /* \"Evm/zk/variable_verifier.sol\":23795:23796  0 */\n      0x00\n        /* \"Evm/zk/variable_verifier.sol\":23779:23797  compressedProof[0] */\n      0x04\n      dup2\n      lt\n      tag_61\n      jumpi\n      tag_62\n      tag_30\n      jump\t// in\n    tag_62:\n    tag_61:\n      0x20\n      mul\n      add\n      calldataload\n        /* \"Evm/zk/variable_verifier.sol\":23765:23778  decompress_g1 */\n      tag_63\n        /* \"Evm/zk/variable_verifier.sol\":23765:23798  decompress_g1(compressedProof[0]) */\n      jump\t// in\n    tag_60:\n        /* \"Evm/zk/variable_verifier.sol\":23738:23798  (uint256 Ax, uint256 Ay) = decompress_g1(compressedProof[0]) */\n      swap2\n      pop\n      swap2\n      pop\n        /* \"Evm/zk/variable_verifier.sol\":23814:23825  uint256 Bx0 */\n      0x00\n        /* \"Evm/zk/variable_verifier.sol\":23827:23838  uint256 Bx1 */\n      0x00\n        /* \"Evm/zk/variable_verifier.sol\":23840:23851  uint256 By0 */\n      0x00\n        /* \"Evm/zk/variable_verifier.sol\":23853:23864  uint256 By1 */\n      0x00\n        /* \"Evm/zk/variable_verifier.sol\":23868:23921  decompress_g2(compressedProof[2], compressedProof[1]) */\n      tag_64\n        /* \"Evm/zk/variable_verifier.sol\":23882:23897  compressedProof */\n      dup10\n        /* \"Evm/zk/variable_verifier.sol\":23898:23899  2 */\n      0x02\n        /* \"Evm/zk/variable_verifier.sol\":23882:23900  compressedProof[2] */\n      0x04\n      dup2\n      lt\n      tag_65\n      jumpi\n      tag_66\n      tag_30\n      jump\t// in\n    tag_66:\n    tag_65:\n      0x20\n      mul\n      add\n      calldataload\n        /* \"Evm/zk/variable_verifier.sol\":23902:23917  compressedProof */\n      dup11\n        /* \"Evm/zk/variable_verifier.sol\":23918:23919  1 */\n      0x01\n        /* \"Evm/zk/variable_verifier.sol\":23902:23920  compressedProof[1] */\n      0x04\n      dup2\n      lt\n      tag_67\n      jumpi\n      tag_68\n      tag_30\n      jump\t// in\n    tag_68:\n    tag_67:\n      0x20\n      mul\n      add\n      calldataload\n        /* \"Evm/zk/variable_verifier.sol\":23868:23881  decompress_g2 */\n      tag_69\n        /* \"Evm/zk/variable_verifier.sol\":23868:23921  decompress_g2(compressedProof[2], compressedProof[1]) */\n      jump\t// in\n    tag_64:\n        /* \"Evm/zk/variable_verifier.sol\":23813:23921  (uint256 Bx0, uint256 Bx1, uint256 By0, uint256 By1) = decompress_g2(compressedProof[2], compressedProof[1]) */\n      swap4\n      pop\n      swap4\n      pop\n      swap4\n      pop\n      swap4\n      pop\n        /* \"Evm/zk/variable_verifier.sol\":23937:23947  uint256 Cx */\n      0x00\n        /* \"Evm/zk/variable_verifier.sol\":23949:23959  uint256 Cy */\n      0x00\n        /* \"Evm/zk/variable_verifier.sol\":23963:23996  decompress_g1(compressedProof[3]) */\n      tag_70\n        /* \"Evm/zk/variable_verifier.sol\":23977:23992  compressedProof */\n      dup12\n        /* \"Evm/zk/variable_verifier.sol\":23993:23994  3 */\n      0x03\n        /* \"Evm/zk/variable_verifier.sol\":23977:23995  compressedProof[3] */\n      0x04\n      dup2\n      lt\n      tag_71\n      jumpi\n      tag_72\n      tag_30\n      jump\t// in\n    tag_72:\n    tag_71:\n      0x20\n      mul\n      add\n      calldataload\n        /* \"Evm/zk/variable_verifier.sol\":23963:23976  decompress_g1 */\n      tag_63\n        /* \"Evm/zk/variable_verifier.sol\":23963:23996  decompress_g1(compressedProof[3]) */\n      jump\t// in\n    tag_70:\n        /* \"Evm/zk/variable_verifier.sol\":23936:23996  (uint256 Cx, uint256 Cy) = decompress_g1(compressedProof[3]) */\n      swap2\n      pop\n      swap2\n      pop\n        /* \"Evm/zk/variable_verifier.sol\":24012:24022  uint256 Lx */\n      0x00\n        /* \"Evm/zk/variable_verifier.sol\":24024:24034  uint256 Ly */\n      0x00\n        /* \"Evm/zk/variable_verifier.sol\":24038:24059  publicInputMSM(input) */\n      tag_73\n        /* \"Evm/zk/variable_verifier.sol\":24053:24058  input */\n      dup13\n        /* \"Evm/zk/variable_verifier.sol\":24038:24052  publicInputMSM */\n      tag_22\n        /* \"Evm/zk/variable_verifier.sol\":24038:24059  publicInputMSM(input) */\n      jump\t// in\n    tag_73:\n        /* \"Evm/zk/variable_verifier.sol\":24011:24059  (uint256 Lx, uint256 Ly) = publicInputMSM(input) */\n      swap2\n      pop\n      swap2\n      pop\n        /* \"Evm/zk/variable_verifier.sol\":24336:24338  Ax */\n      dup10\n        /* \"Evm/zk/variable_verifier.sol\":24321:24329  pairings */\n      dup12\n        /* \"Evm/zk/variable_verifier.sol\":24331:24332  0 */\n      0x00\n        /* \"Evm/zk/variable_verifier.sol\":24321:24333  pairings[ 0] */\n      0x18\n      dup2\n      lt\n      tag_74\n      jumpi\n      tag_75\n      tag_30\n      jump\t// in\n    tag_75:\n    tag_74:\n      0x20\n      mul\n      add\n        /* \"Evm/zk/variable_verifier.sol\":24321:24338  pairings[ 0] = Ax */\n      dup2\n      dup2\n      mstore\n      pop\n      pop\n        /* \"Evm/zk/variable_verifier.sol\":24368:24370  Ay */\n      dup9\n        /* \"Evm/zk/variable_verifier.sol\":24353:24361  pairings */\n      dup12\n        /* \"Evm/zk/variable_verifier.sol\":24363:24364  1 */\n      0x01\n        /* \"Evm/zk/variable_verifier.sol\":24353:24365  pairings[ 1] */\n      0x18\n      dup2\n      lt\n      tag_76\n      jumpi\n      tag_77\n      tag_30\n      jump\t// in\n    tag_77:\n    tag_76:\n      0x20\n      mul\n      add\n        /* \"Evm/zk/variable_verifier.sol\":24353:24370  pairings[ 1] = Ay */\n      dup2\n      dup2\n      mstore\n      pop\n      pop\n        /* \"Evm/zk/variable_verifier.sol\":24400:24403  Bx1 */\n      dup7\n        /* \"Evm/zk/variable_verifier.sol\":24385:24393  pairings */\n      dup12\n        /* \"Evm/zk/variable_verifier.sol\":24395:24396  2 */\n      0x02\n        /* \"Evm/zk/variable_verifier.sol\":24385:24397  pairings[ 2] */\n      0x18\n      dup2\n      lt\n      tag_78\n      jumpi\n      tag_79\n      tag_30\n      jump\t// in\n    tag_79:\n    tag_78:\n      0x20\n      mul\n      add\n        /* \"Evm/zk/variable_verifier.sol\":24385:24403  pairings[ 2] = Bx1 */\n      dup2\n      dup2\n      mstore\n      pop\n      pop\n        /* \"Evm/zk/variable_verifier.sol\":24433:24436  Bx0 */\n      dup8\n        /* \"Evm/zk/variable_verifier.sol\":24418:24426  pairings */\n      dup12\n        /* \"Evm/zk/variable_verifier.sol\":24428:24429  3 */\n      0x03\n        /* \"Evm/zk/variable_verifier.sol\":24418:24430  pairings[ 3] */\n      0x18\n      dup2\n      lt\n      tag_80\n      jumpi\n      tag_81\n      tag_30\n      jump\t// in\n    tag_81:\n    tag_80:\n      0x20\n      mul\n      add\n        /* \"Evm/zk/variable_verifier.sol\":24418:24436  pairings[ 3] = Bx0 */\n      dup2\n      dup2\n      mstore\n      pop\n      pop\n        /* \"Evm/zk/variable_verifier.sol\":24466:24469  By1 */\n      dup5\n        /* \"Evm/zk/variable_verifier.sol\":24451:24459  pairings */\n      dup12\n        /* \"Evm/zk/variable_verifier.sol\":24461:24462  4 */\n      0x04\n        /* \"Evm/zk/variable_verifier.sol\":24451:24463  pairings[ 4] */\n      0x18\n      dup2\n      lt\n      tag_82\n      jumpi\n      tag_83\n      tag_30\n      jump\t// in\n    tag_83:\n    tag_82:\n      0x20\n      mul\n      add\n        /* \"Evm/zk/variable_verifier.sol\":24451:24469  pairings[ 4] = By1 */\n      dup2\n      dup2\n      mstore\n      pop\n      pop\n        /* \"Evm/zk/variable_verifier.sol\":24499:24502  By0 */\n      dup6\n        /* \"Evm/zk/variable_verifier.sol\":24484:24492  pairings */\n      dup12\n        /* \"Evm/zk/variable_verifier.sol\":24494:24495  5 */\n      0x05\n        /* \"Evm/zk/variable_verifier.sol\":24484:24496  pairings[ 5] */\n      0x18\n      dup2\n      lt\n      tag_84\n      jumpi\n      tag_85\n      tag_30\n      jump\t// in\n    tag_85:\n    tag_84:\n      0x20\n      mul\n      add\n        /* \"Evm/zk/variable_verifier.sol\":24484:24502  pairings[ 5] = By0 */\n      dup2\n      dup2\n      mstore\n      pop\n      pop\n        /* \"Evm/zk/variable_verifier.sol\":24558:24560  Cx */\n      dup4\n        /* \"Evm/zk/variable_verifier.sol\":24543:24551  pairings */\n      dup12\n        /* \"Evm/zk/variable_verifier.sol\":24553:24554  6 */\n      0x06\n        /* \"Evm/zk/variable_verifier.sol\":24543:24555  pairings[ 6] */\n      0x18\n      dup2\n      lt\n      tag_86\n      jumpi\n      tag_87\n      tag_30\n      jump\t// in\n    tag_87:\n    tag_86:\n      0x20\n      mul\n      add\n        /* \"Evm/zk/variable_verifier.sol\":24543:24560  pairings[ 6] = Cx */\n      dup2\n      dup2\n      mstore\n      pop\n      pop\n        /* \"Evm/zk/variable_verifier.sol\":24590:24592  Cy */\n      dup3\n        /* \"Evm/zk/variable_verifier.sol\":24575:24583  pairings */\n      dup12\n        /* \"Evm/zk/variable_verifier.sol\":24585:24586  7 */\n      0x07\n        /* \"Evm/zk/variable_verifier.sol\":24575:24587  pairings[ 7] */\n      0x18\n      dup2\n      lt\n      tag_88\n      jumpi\n      tag_89\n      tag_30\n      jump\t// in\n    tag_89:\n    tag_88:\n      0x20\n      mul\n      add\n        /* \"Evm/zk/variable_verifier.sol\":24575:24592  pairings[ 7] = Cy */\n      dup2\n      dup2\n      mstore\n      pop\n      pop\n        /* \"Evm/zk/variable_verifier.sol\":4215:4291  3844371579660652420879131909872407794329527470694006551501122137320025680055 */\n      0x087fd653168a951e9d99cba7b3efa5f23cd770aee26310762175569dcd06e8b7\n        /* \"Evm/zk/variable_verifier.sol\":24607:24615  pairings */\n      dup12\n        /* \"Evm/zk/variable_verifier.sol\":24617:24618  8 */\n      0x08\n        /* \"Evm/zk/variable_verifier.sol\":24607:24619  pairings[ 8] */\n      0x18\n      dup2\n      lt\n      tag_90\n      jumpi\n      tag_91\n      tag_30\n      jump\t// in\n    tag_91:\n    tag_90:\n      0x20\n      mul\n      add\n        /* \"Evm/zk/variable_verifier.sol\":24607:24635  pairings[ 8] = DELTA_NEG_X_1 */\n      dup2\n      dup2\n      mstore\n      pop\n      pop\n        /* \"Evm/zk/variable_verifier.sol\":4098:4175  16713724319948691714323569028233319767169211102812330467114341464299222749790 */\n      0x24f3a1fa7c06a2f2e4a750e8823d93357cb140176680f4d420ab2313250e525e\n        /* \"Evm/zk/variable_verifier.sol\":24650:24658  pairings */\n      dup12\n        /* \"Evm/zk/variable_verifier.sol\":24660:24661  9 */\n      0x09\n        /* \"Evm/zk/variable_verifier.sol\":24650:24662  pairings[ 9] */\n      0x18\n      dup2\n      lt\n      tag_92\n      jumpi\n      tag_93\n      tag_30\n      jump\t// in\n    tag_93:\n    tag_92:\n      0x20\n      mul\n      add\n        /* \"Evm/zk/variable_verifier.sol\":24650:24678  pairings[ 9] = DELTA_NEG_X_0 */\n      dup2\n      dup2\n      mstore\n      pop\n      pop\n        /* \"Evm/zk/variable_verifier.sol\":4448:4525  13313945949680879222534989456407170418024226013136186266422257670235588680409 */\n      0x1d6f6d2610943de1ce6a8ba4044e1fa3977593f9e31e4baa211290b1888c5ad9\n        /* \"Evm/zk/variable_verifier.sol\":24693:24701  pairings */\n      dup12\n        /* \"Evm/zk/variable_verifier.sol\":24702:24704  10 */\n      0x0a\n        /* \"Evm/zk/variable_verifier.sol\":24693:24705  pairings[10] */\n      0x18\n      dup2\n      lt\n      tag_94\n      jumpi\n      tag_95\n      tag_30\n      jump\t// in\n    tag_95:\n    tag_94:\n      0x20\n      mul\n      add\n        /* \"Evm/zk/variable_verifier.sol\":24693:24721  pairings[10] = DELTA_NEG_Y_1 */\n      dup2\n      dup2\n      mstore\n      pop\n      pop\n        /* \"Evm/zk/variable_verifier.sol\":4331:4408  18139024578935512877333435695776757112797431395690446814879686792103729655683 */\n      0x281a52f75b48c5f6686c95dd5c635a1ca8152e678485d406528f210bc0756f83\n        /* \"Evm/zk/variable_verifier.sol\":24736:24744  pairings */\n      dup12\n        /* \"Evm/zk/variable_verifier.sol\":24745:24747  11 */\n      0x0b\n        /* \"Evm/zk/variable_verifier.sol\":24736:24748  pairings[11] */\n      0x18\n      dup2\n      lt\n      tag_96\n      jumpi\n      tag_97\n      tag_30\n      jump\t// in\n    tag_97:\n    tag_96:\n      0x20\n      mul\n      add\n        /* \"Evm/zk/variable_verifier.sol\":24736:24764  pairings[11] = DELTA_NEG_Y_0 */\n      dup2\n      dup2\n      mstore\n      pop\n      pop\n        /* \"Evm/zk/variable_verifier.sol\":2792:2868  8208002759499708809525296471729914234696061872831526671945299363543241580924 */\n      0x1225909f34367dd4aaa172433b42e830c989433e1359caa801390e1fc921e17c\n        /* \"Evm/zk/variable_verifier.sol\":24806:24814  pairings */\n      dup12\n        /* \"Evm/zk/variable_verifier.sol\":24815:24817  12 */\n      0x0c\n        /* \"Evm/zk/variable_verifier.sol\":24806:24818  pairings[12] */\n      0x18\n      dup2\n      lt\n      tag_98\n      jumpi\n      tag_99\n      tag_30\n      jump\t// in\n    tag_99:\n    tag_98:\n      0x20\n      mul\n      add\n        /* \"Evm/zk/variable_verifier.sol\":24806:24828  pairings[12] = ALPHA_X */\n      dup2\n      dup2\n      mstore\n      pop\n      pop\n        /* \"Evm/zk/variable_verifier.sol\":2902:2978  1644226845643914023500633070810285571491357194666037754823319556815617041957 */\n      0x03a299734a356f04b005b7817a060d69db2ee02978ca7a49910f0c063b24a625\n        /* \"Evm/zk/variable_verifier.sol\":24843:24851  pairings */\n      dup12\n        /* \"Evm/zk/variable_verifier.sol\":24852:24854  13 */\n      0x0d\n        /* \"Evm/zk/variable_verifier.sol\":24843:24855  pairings[13] */\n      0x18\n      dup2\n      lt\n      tag_100\n      jumpi\n      tag_101\n      tag_30\n      jump\t// in\n    tag_101:\n    tag_100:\n      0x20\n      mul\n      add\n        /* \"Evm/zk/variable_verifier.sol\":24843:24865  pairings[13] = ALPHA_Y */\n      dup2\n      dup2\n      mstore\n      pop\n      pop\n        /* \"Evm/zk/variable_verifier.sol\":3183:3259  5818911799498733390442353805402291933639234979082107565975838392289763687924 */\n      0x0cdd632a5ebdc4a5ac5e580c6a25ba03396d8a2880c7577b1ca76b82adc67df4\n        /* \"Evm/zk/variable_verifier.sol\":24880:24888  pairings */\n      dup12\n        /* \"Evm/zk/variable_verifier.sol\":24889:24891  14 */\n      0x0e\n        /* \"Evm/zk/variable_verifier.sol\":24880:24892  pairings[14] */\n      0x18\n      dup2\n      lt\n      tag_102\n      jumpi\n      tag_103\n      tag_30\n      jump\t// in\n    tag_103:\n    tag_102:\n      0x20\n      mul\n      add\n        /* \"Evm/zk/variable_verifier.sol\":24880:24907  pairings[14] = BETA_NEG_X_1 */\n      dup2\n      dup2\n      mstore\n      pop\n      pop\n        /* \"Evm/zk/variable_verifier.sol\":3067:3144  11322110963139604245270240842395452114180208694293906161541453148222150306491 */\n      0x190816743b80784e78e7279d2146229d614b95eef924f5c30dd70f1cced26abb\n        /* \"Evm/zk/variable_verifier.sol\":24922:24930  pairings */\n      dup12\n        /* \"Evm/zk/variable_verifier.sol\":24931:24933  15 */\n      0x0f\n        /* \"Evm/zk/variable_verifier.sol\":24922:24934  pairings[15] */\n      0x18\n      dup2\n      lt\n      tag_104\n      jumpi\n      tag_105\n      tag_30\n      jump\t// in\n    tag_105:\n    tag_104:\n      0x20\n      mul\n      add\n        /* \"Evm/zk/variable_verifier.sol\":24922:24949  pairings[15] = BETA_NEG_X_0 */\n      dup2\n      dup2\n      mstore\n      pop\n      pop\n        /* \"Evm/zk/variable_verifier.sol\":3414:3491  20000629360169988450705687787664022394112019352861382325972179388056591398169 */\n      0x2c37f47e67539af4a79ff97614e32afa8547fab8eabb09f260f2ea1464e3f519\n        /* \"Evm/zk/variable_verifier.sol\":24964:24972  pairings */\n      dup12\n        /* \"Evm/zk/variable_verifier.sol\":24973:24975  16 */\n      0x10\n        /* \"Evm/zk/variable_verifier.sol\":24964:24976  pairings[16] */\n      0x18\n      dup2\n      lt\n      tag_106\n      jumpi\n      tag_107\n      tag_30\n      jump\t// in\n    tag_107:\n    tag_106:\n      0x20\n      mul\n      add\n        /* \"Evm/zk/variable_verifier.sol\":24964:24991  pairings[16] = BETA_NEG_Y_1 */\n      dup2\n      dup2\n      mstore\n      pop\n      pop\n        /* \"Evm/zk/variable_verifier.sol\":3298:3375  15792106055037910452549453431578045289096027743588013290217327090799487287466 */\n      0x22ea03e91dd60412a313e72a0af52d9b5db4df76fc49fecb3919792c42c100aa\n        /* \"Evm/zk/variable_verifier.sol\":25006:25014  pairings */\n      dup12\n        /* \"Evm/zk/variable_verifier.sol\":25015:25017  17 */\n      0x11\n        /* \"Evm/zk/variable_verifier.sol\":25006:25018  pairings[17] */\n      0x18\n      dup2\n      lt\n      tag_108\n      jumpi\n      tag_109\n      tag_30\n      jump\t// in\n    tag_109:\n    tag_108:\n      0x20\n      mul\n      add\n        /* \"Evm/zk/variable_verifier.sol\":25006:25033  pairings[17] = BETA_NEG_Y_0 */\n      dup2\n      dup2\n      mstore\n      pop\n      pop\n        /* \"Evm/zk/variable_verifier.sol\":25093:25095  Lx */\n      dup2\n        /* \"Evm/zk/variable_verifier.sol\":25078:25086  pairings */\n      dup12\n        /* \"Evm/zk/variable_verifier.sol\":25087:25089  18 */\n      0x12\n        /* \"Evm/zk/variable_verifier.sol\":25078:25090  pairings[18] */\n      0x18\n      dup2\n      lt\n      tag_110\n      jumpi\n      tag_111\n      tag_30\n      jump\t// in\n    tag_111:\n    tag_110:\n      0x20\n      mul\n      add\n        /* \"Evm/zk/variable_verifier.sol\":25078:25095  pairings[18] = Lx */\n      dup2\n      dup2\n      mstore\n      pop\n      pop\n        /* \"Evm/zk/variable_verifier.sol\":25125:25127  Ly */\n      dup1\n        /* \"Evm/zk/variable_verifier.sol\":25110:25118  pairings */\n      dup12\n        /* \"Evm/zk/variable_verifier.sol\":25119:25121  19 */\n      0x13\n        /* \"Evm/zk/variable_verifier.sol\":25110:25122  pairings[19] */\n      0x18\n      dup2\n      lt\n      tag_112\n      jumpi\n      tag_113\n      tag_30\n      jump\t// in\n    tag_113:\n    tag_112:\n      0x20\n      mul\n      add\n        /* \"Evm/zk/variable_verifier.sol\":25110:25127  pairings[19] = Ly */\n      dup2\n      dup2\n      mstore\n      pop\n      pop\n        /* \"Evm/zk/variable_verifier.sol\":3699:3775  1754010315396505979372555322195677221323436705292703385358161938410077443549 */\n      0x03e0bc12809be9a55c5d24d5ee90f820006b533601ffa21ea50d9ec823a055dd\n        /* \"Evm/zk/variable_verifier.sol\":25142:25150  pairings */\n      dup12\n        /* \"Evm/zk/variable_verifier.sol\":25151:25153  20 */\n      0x14\n        /* \"Evm/zk/variable_verifier.sol\":25142:25154  pairings[20] */\n      0x18\n      dup2\n      lt\n      tag_114\n      jumpi\n      tag_115\n      tag_30\n      jump\t// in\n    tag_115:\n    tag_114:\n      0x20\n      mul\n      add\n        /* \"Evm/zk/variable_verifier.sol\":25142:25170  pairings[20] = GAMMA_NEG_X_1 */\n      dup2\n      dup2\n      mstore\n      pop\n      pop\n        /* \"Evm/zk/variable_verifier.sol\":3582:3659  21489930922925774893401953337787488485735431174222416715393504271594151404498 */\n      0x2f82deaf925710400085bdb950df2e551f9584fa54938ac6047e9b3ce91ae3d2\n        /* \"Evm/zk/variable_verifier.sol\":25185:25193  pairings */\n      dup12\n        /* \"Evm/zk/variable_verifier.sol\":25194:25196  21 */\n      0x15\n        /* \"Evm/zk/variable_verifier.sol\":25185:25197  pairings[21] */\n      0x18\n      dup2\n      lt\n      tag_116\n      jumpi\n      tag_117\n      tag_30\n      jump\t// in\n    tag_117:\n    tag_116:\n      0x20\n      mul\n      add\n        /* \"Evm/zk/variable_verifier.sol\":25185:25213  pairings[21] = GAMMA_NEG_X_0 */\n      dup2\n      dup2\n      mstore\n      pop\n      pop\n        /* \"Evm/zk/variable_verifier.sol\":3931:4007  6031701800271022685718869581924377847414559369634081778059544576849425964732 */\n      0x0d55d27e2ab1e0b09cb4af92bb626b883b5abf4525fcea9212cbc963463b9ebc\n        /* \"Evm/zk/variable_verifier.sol\":25228:25236  pairings */\n      dup12\n        /* \"Evm/zk/variable_verifier.sol\":25237:25239  22 */\n      0x16\n        /* \"Evm/zk/variable_verifier.sol\":25228:25240  pairings[22] */\n      0x18\n      dup2\n      lt\n      tag_118\n      jumpi\n      tag_119\n      tag_30\n      jump\t// in\n    tag_119:\n    tag_118:\n      0x20\n      mul\n      add\n        /* \"Evm/zk/variable_verifier.sol\":25228:25256  pairings[22] = GAMMA_NEG_Y_1 */\n      dup2\n      dup2\n      mstore\n      pop\n      pop\n        /* \"Evm/zk/variable_verifier.sol\":3815:3891  2475141257529387306929421770960461303043337883577669013396230872556092395412 */\n      0x0578e15bc3320595e5f87ece0e8b821718d6d72e524e070e506b60ea78160f94\n        /* \"Evm/zk/variable_verifier.sol\":25271:25279  pairings */\n      dup12\n        /* \"Evm/zk/variable_verifier.sol\":25280:25282  23 */\n      0x17\n        /* \"Evm/zk/variable_verifier.sol\":25271:25283  pairings[23] */\n      0x18\n      dup2\n      lt\n      tag_120\n      jumpi\n      tag_121\n      tag_30\n      jump\t// in\n    tag_121:\n    tag_120:\n      0x20\n      mul\n      add\n        /* \"Evm/zk/variable_verifier.sol\":25271:25299  pairings[23] = GAMMA_NEG_Y_0 */\n      dup2\n      dup2\n      mstore\n      pop\n      pop\n        /* \"Evm/zk/variable_verifier.sol\":25356:25368  bool success */\n      0x00\n        /* \"Evm/zk/variable_verifier.sol\":25383:25407  uint256[1] memory output */\n      tag_122\n      tag_123\n      jump\t// in\n    tag_122:\n        /* \"Evm/zk/variable_verifier.sol\":25539:25543  0x20 */\n      0x20\n        /* \"Evm/zk/variable_verifier.sol\":25531:25537  output */\n      dup2\n        /* \"Evm/zk/variable_verifier.sol\":25524:25529  0x300 */\n      0x0300\n        /* \"Evm/zk/variable_verifier.sol\":25514:25522  pairings */\n      dup16\n        /* \"Evm/zk/variable_verifier.sol\":25495:25512  PRECOMPILE_VERIFY */\n      0x08\n        /* \"Evm/zk/variable_verifier.sol\":25488:25493  gas() */\n      gas\n        /* \"Evm/zk/variable_verifier.sol\":25477:25544  staticcall(gas(), PRECOMPILE_VERIFY, pairings, 0x300, output, 0x20) */\n      staticcall\n        /* \"Evm/zk/variable_verifier.sol\":25466:25544  success := staticcall(gas(), PRECOMPILE_VERIFY, pairings, 0x300, output, 0x20) */\n      swap2\n      pop\n        /* \"Evm/zk/variable_verifier.sol\":25578:25585  success */\n      dup2\n        /* \"Evm/zk/variable_verifier.sol\":25577:25585  !success */\n      iszero\n        /* \"Evm/zk/variable_verifier.sol\":25577:25603  !success || output[0] != 1 */\n      dup1\n      tag_124\n      jumpi\n      pop\n        /* \"Evm/zk/variable_verifier.sol\":25602:25603  1 */\n      0x01\n        /* \"Evm/zk/variable_verifier.sol\":25589:25595  output */\n      dup2\n        /* \"Evm/zk/variable_verifier.sol\":25596:25597  0 */\n      0x00\n        /* \"Evm/zk/variable_verifier.sol\":25589:25598  output[0] */\n      0x01\n      dup2\n      lt\n      tag_125\n      jumpi\n      tag_126\n      tag_30\n      jump\t// in\n    tag_126:\n    tag_125:\n      0x20\n      mul\n      add\n      mload\n        /* \"Evm/zk/variable_verifier.sol\":25589:25603  output[0] != 1 */\n      eq\n      iszero\n        /* \"Evm/zk/variable_verifier.sol\":25577:25603  !success || output[0] != 1 */\n    tag_124:\n        /* \"Evm/zk/variable_verifier.sol\":25573:25824  if (!success || output[0] != 1) {... */\n      iszero\n      tag_127\n      jumpi\n        /* \"Evm/zk/variable_verifier.sol\":25794:25808  ProofInvalid() */\n      mload(0x40)\n      0x7fcdd1f400000000000000000000000000000000000000000000000000000000\n      dup2\n      mstore\n      0x04\n      add\n      mload(0x40)\n      dup1\n      swap2\n      sub\n      swap1\n      revert\n        /* \"Evm/zk/variable_verifier.sol\":25573:25824  if (!success || output[0] != 1) {... */\n    tag_127:\n        /* \"Evm/zk/variable_verifier.sol\":23723:25835  {... */\n      pop\n      pop\n      pop\n      pop\n      pop\n      pop\n      pop\n      pop\n      pop\n      pop\n      pop\n      pop\n        /* \"Evm/zk/variable_verifier.sol\":23672:25842  {... */\n      pop\n        /* \"Evm/zk/variable_verifier.sol\":23540:25842  function verifyCompressedProof(... */\n      pop\n      pop\n      jump\t// out\n        /* \"Evm/zk/variable_verifier.sol\":18180:22163  function publicInputMSM(uint256[7] calldata input)... */\n    tag_22:\n        /* \"Evm/zk/variable_verifier.sol\":18259:18268  uint256 x */\n      0x00\n        /* \"Evm/zk/variable_verifier.sol\":18270:18279  uint256 y */\n      0x00\n        /* \"Evm/zk/variable_verifier.sol\":18893:18905  bool success */\n      0x00\n        /* \"Evm/zk/variable_verifier.sol\":18908:18912  true */\n      0x01\n        /* \"Evm/zk/variable_verifier.sol\":18893:18912  bool success = true */\n      swap1\n      pop\n        /* \"Evm/zk/variable_verifier.sol\":18978:18982  0x40 */\n      0x40\n        /* \"Evm/zk/variable_verifier.sol\":18972:18983  mload(0x40) */\n      mload\n        /* \"Evm/zk/variable_verifier.sol\":19013:19017  0x40 */\n      0x40\n        /* \"Evm/zk/variable_verifier.sol\":19010:19011  f */\n      dup2\n        /* \"Evm/zk/variable_verifier.sol\":19006:19018  add(f, 0x40) */\n      add\n        /* \"Evm/zk/variable_verifier.sol\":19032:19037  let s */\n      0x00\n        /* \"Evm/zk/variable_verifier.sol\":19061:19071  CONSTANT_X */\n      0x172482c47db38da1e2adcfac6291550bd451939b7c05e713ce41de479342f63f\n        /* \"Evm/zk/variable_verifier.sol\":19058:19059  f */\n      dup4\n        /* \"Evm/zk/variable_verifier.sol\":19051:19072  mstore(f, CONSTANT_X) */\n      mstore\n        /* \"Evm/zk/variable_verifier.sol\":19107:19117  CONSTANT_Y */\n      0x2dd92e82d6cf0c2b208448ba0b1c34db7487dc263ffd807e5565061fad02c97a\n        /* \"Evm/zk/variable_verifier.sol\":19100:19104  0x20 */\n      0x20\n        /* \"Evm/zk/variable_verifier.sol\":19097:19098  f */\n      dup5\n        /* \"Evm/zk/variable_verifier.sol\":19093:19105  add(f, 0x20) */\n      add\n        /* \"Evm/zk/variable_verifier.sol\":19086:19118  mstore(add(f, 0x20), CONSTANT_Y) */\n      mstore\n        /* \"Evm/zk/variable_verifier.sol\":19142:19149  PUB_0_X */\n      0x299dd826f0b28f1022f96e610d6decc9a1c797ee3329e91be327380ebb82a275\n        /* \"Evm/zk/variable_verifier.sol\":19139:19140  g */\n      dup3\n        /* \"Evm/zk/variable_verifier.sol\":19132:19150  mstore(g, PUB_0_X) */\n      mstore\n        /* \"Evm/zk/variable_verifier.sol\":19185:19192  PUB_0_Y */\n      0x2354eeb500f78c64806494899d31370e6546540476f9514ebaa7b0ed3b0f67b6\n        /* \"Evm/zk/variable_verifier.sol\":19178:19182  0x20 */\n      0x20\n        /* \"Evm/zk/variable_verifier.sol\":19175:19176  g */\n      dup4\n        /* \"Evm/zk/variable_verifier.sol\":19171:19183  add(g, 0x20) */\n      add\n        /* \"Evm/zk/variable_verifier.sol\":19164:19193  mstore(add(g, 0x20), PUB_0_Y) */\n      mstore\n        /* \"Evm/zk/variable_verifier.sol\":19226:19231  input */\n      dup7\n        /* \"Evm/zk/variable_verifier.sol\":19213:19232  calldataload(input) */\n      calldataload\n        /* \"Evm/zk/variable_verifier.sol\":19207:19232  s :=  calldataload(input) */\n      swap1\n      pop\n        /* \"Evm/zk/variable_verifier.sol\":19267:19268  s */\n      dup1\n        /* \"Evm/zk/variable_verifier.sol\":19260:19264  0x40 */\n      0x40\n        /* \"Evm/zk/variable_verifier.sol\":19257:19258  g */\n      dup4\n        /* \"Evm/zk/variable_verifier.sol\":19253:19265  add(g, 0x40) */\n      add\n        /* \"Evm/zk/variable_verifier.sol\":19246:19269  mstore(add(g, 0x40), s) */\n      mstore\n        /* \"Evm/zk/variable_verifier.sol\":19313:19314  R */\n      0x30644e72e131a029b85045b68181585d2833e84879b9709143e1f593f0000001\n        /* \"Evm/zk/variable_verifier.sol\":19310:19311  s */\n      dup2\n        /* \"Evm/zk/variable_verifier.sol\":19307:19315  lt(s, R) */\n      lt\n        /* \"Evm/zk/variable_verifier.sol\":19298:19305  success */\n      dup5\n        /* \"Evm/zk/variable_verifier.sol\":19294:19316  and(success, lt(s, R)) */\n      and\n        /* \"Evm/zk/variable_verifier.sol\":19283:19316  success := and(success, lt(s, R)) */\n      swap4\n      pop\n        /* \"Evm/zk/variable_verifier.sol\":19400:19404  0x40 */\n      0x40\n        /* \"Evm/zk/variable_verifier.sol\":19397:19398  g */\n      dup3\n        /* \"Evm/zk/variable_verifier.sol\":19391:19395  0x60 */\n      0x60\n        /* \"Evm/zk/variable_verifier.sol\":19388:19389  g */\n      dup5\n        /* \"Evm/zk/variable_verifier.sol\":19372:19386  PRECOMPILE_MUL */\n      0x07\n        /* \"Evm/zk/variable_verifier.sol\":19365:19370  gas() */\n      gas\n        /* \"Evm/zk/variable_verifier.sol\":19354:19405  staticcall(gas(), PRECOMPILE_MUL, g, 0x60, g, 0x40) */\n      staticcall\n        /* \"Evm/zk/variable_verifier.sol\":19345:19352  success */\n      dup5\n        /* \"Evm/zk/variable_verifier.sol\":19341:19406  and(success, staticcall(gas(), PRECOMPILE_MUL, g, 0x60, g, 0x40)) */\n      and\n        /* \"Evm/zk/variable_verifier.sol\":19330:19406  success := and(success, staticcall(gas(), PRECOMPILE_MUL, g, 0x60, g, 0x40)) */\n      swap4\n      pop\n        /* \"Evm/zk/variable_verifier.sol\":19490:19494  0x40 */\n      0x40\n        /* \"Evm/zk/variable_verifier.sol\":19487:19488  f */\n      dup4\n        /* \"Evm/zk/variable_verifier.sol\":19481:19485  0x80 */\n      0x80\n        /* \"Evm/zk/variable_verifier.sol\":19478:19479  f */\n      dup6\n        /* \"Evm/zk/variable_verifier.sol\":19462:19476  PRECOMPILE_ADD */\n      0x06\n        /* \"Evm/zk/variable_verifier.sol\":19455:19460  gas() */\n      gas\n        /* \"Evm/zk/variable_verifier.sol\":19444:19495  staticcall(gas(), PRECOMPILE_ADD, f, 0x80, f, 0x40) */\n      staticcall\n        /* \"Evm/zk/variable_verifier.sol\":19435:19442  success */\n      dup5\n        /* \"Evm/zk/variable_verifier.sol\":19431:19496  and(success, staticcall(gas(), PRECOMPILE_ADD, f, 0x80, f, 0x40)) */\n      and\n        /* \"Evm/zk/variable_verifier.sol\":19420:19496  success := and(success, staticcall(gas(), PRECOMPILE_ADD, f, 0x80, f, 0x40)) */\n      swap4\n      pop\n        /* \"Evm/zk/variable_verifier.sol\":19520:19527  PUB_1_X */\n      0x0be2e789bc4109428c010e3e6cb73e450cab508f0f857a84b6c5b7bc8936e417\n        /* \"Evm/zk/variable_verifier.sol\":19517:19518  g */\n      dup3\n        /* \"Evm/zk/variable_verifier.sol\":19510:19528  mstore(g, PUB_1_X) */\n      mstore\n        /* \"Evm/zk/variable_verifier.sol\":19563:19570  PUB_1_Y */\n      0x26d6e3250f77c8b96fecc1a3ccd4ccf3dff6caf2174ac0f897202c0962beee4f\n        /* \"Evm/zk/variable_verifier.sol\":19556:19560  0x20 */\n      0x20\n        /* \"Evm/zk/variable_verifier.sol\":19553:19554  g */\n      dup4\n        /* \"Evm/zk/variable_verifier.sol\":19549:19561  add(g, 0x20) */\n      add\n        /* \"Evm/zk/variable_verifier.sol\":19542:19571  mstore(add(g, 0x20), PUB_1_Y) */\n      mstore\n        /* \"Evm/zk/variable_verifier.sol\":19615:19617  32 */\n      0x20\n        /* \"Evm/zk/variable_verifier.sol\":19608:19613  input */\n      dup8\n        /* \"Evm/zk/variable_verifier.sol\":19604:19618  add(input, 32) */\n      add\n        /* \"Evm/zk/variable_verifier.sol\":19591:19619  calldataload(add(input, 32)) */\n      calldataload\n        /* \"Evm/zk/variable_verifier.sol\":19585:19619  s :=  calldataload(add(input, 32)) */\n      swap1\n      pop\n        /* \"Evm/zk/variable_verifier.sol\":19654:19655  s */\n      dup1\n        /* \"Evm/zk/variable_verifier.sol\":19647:19651  0x40 */\n      0x40\n        /* \"Evm/zk/variable_verifier.sol\":19644:19645  g */\n      dup4\n        /* \"Evm/zk/variable_verifier.sol\":19640:19652  add(g, 0x40) */\n      add\n        /* \"Evm/zk/variable_verifier.sol\":19633:19656  mstore(add(g, 0x40), s) */\n      mstore\n        /* \"Evm/zk/variable_verifier.sol\":19700:19701  R */\n      0x30644e72e131a029b85045b68181585d2833e84879b9709143e1f593f0000001\n        /* \"Evm/zk/variable_verifier.sol\":19697:19698  s */\n      dup2\n        /* \"Evm/zk/variable_verifier.sol\":19694:19702  lt(s, R) */\n      lt\n        /* \"Evm/zk/variable_verifier.sol\":19685:19692  success */\n      dup5\n        /* \"Evm/zk/variable_verifier.sol\":19681:19703  and(success, lt(s, R)) */\n      and\n        /* \"Evm/zk/variable_verifier.sol\":19670:19703  success := and(success, lt(s, R)) */\n      swap4\n      pop\n        /* \"Evm/zk/variable_verifier.sol\":19787:19791  0x40 */\n      0x40\n        /* \"Evm/zk/variable_verifier.sol\":19784:19785  g */\n      dup3\n        /* \"Evm/zk/variable_verifier.sol\":19778:19782  0x60 */\n      0x60\n        /* \"Evm/zk/variable_verifier.sol\":19775:19776  g */\n      dup5\n        /* \"Evm/zk/variable_verifier.sol\":19759:19773  PRECOMPILE_MUL */\n      0x07\n        /* \"Evm/zk/variable_verifier.sol\":19752:19757  gas() */\n      gas\n        /* \"Evm/zk/variable_verifier.sol\":19741:19792  staticcall(gas(), PRECOMPILE_MUL, g, 0x60, g, 0x40) */\n      staticcall\n        /* \"Evm/zk/variable_verifier.sol\":19732:19739  success */\n      dup5\n        /* \"Evm/zk/variable_verifier.sol\":19728:19793  and(success, staticcall(gas(), PRECOMPILE_MUL, g, 0x60, g, 0x40)) */\n      and\n        /* \"Evm/zk/variable_verifier.sol\":19717:19793  success := and(success, staticcall(gas(), PRECOMPILE_MUL, g, 0x60, g, 0x40)) */\n      swap4\n      pop\n        /* \"Evm/zk/variable_verifier.sol\":19877:19881  0x40 */\n      0x40\n        /* \"Evm/zk/variable_verifier.sol\":19874:19875  f */\n      dup4\n        /* \"Evm/zk/variable_verifier.sol\":19868:19872  0x80 */\n      0x80\n        /* \"Evm/zk/variable_verifier.sol\":19865:19866  f */\n      dup6\n        /* \"Evm/zk/variable_verifier.sol\":19849:19863  PRECOMPILE_ADD */\n      0x06\n        /* \"Evm/zk/variable_verifier.sol\":19842:19847  gas() */\n      gas\n        /* \"Evm/zk/variable_verifier.sol\":19831:19882  staticcall(gas(), PRECOMPILE_ADD, f, 0x80, f, 0x40) */\n      staticcall\n        /* \"Evm/zk/variable_verifier.sol\":19822:19829  success */\n      dup5\n        /* \"Evm/zk/variable_verifier.sol\":19818:19883  and(success, staticcall(gas(), PRECOMPILE_ADD, f, 0x80, f, 0x40)) */\n      and\n        /* \"Evm/zk/variable_verifier.sol\":19807:19883  success := and(success, staticcall(gas(), PRECOMPILE_ADD, f, 0x80, f, 0x40)) */\n      swap4\n      pop\n        /* \"Evm/zk/variable_verifier.sol\":19907:19914  PUB_2_X */\n      0x2148134645adb557b2eddee4967207d676ba3c44fce9ac61426f420878e56266\n        /* \"Evm/zk/variable_verifier.sol\":19904:19905  g */\n      dup3\n        /* \"Evm/zk/variable_verifier.sol\":19897:19915  mstore(g, PUB_2_X) */\n      mstore\n        /* \"Evm/zk/variable_verifier.sol\":19950:19957  PUB_2_Y */\n      0x13a34be592a5c9935d07c3a2cfc750a2089bf5a8a98bb6c3eb1618045dfe69f9\n        /* \"Evm/zk/variable_verifier.sol\":19943:19947  0x20 */\n      0x20\n        /* \"Evm/zk/variable_verifier.sol\":19940:19941  g */\n      dup4\n        /* \"Evm/zk/variable_verifier.sol\":19936:19948  add(g, 0x20) */\n      add\n        /* \"Evm/zk/variable_verifier.sol\":19929:19958  mstore(add(g, 0x20), PUB_2_Y) */\n      mstore\n        /* \"Evm/zk/variable_verifier.sol\":20002:20004  64 */\n      0x40\n        /* \"Evm/zk/variable_verifier.sol\":19995:20000  input */\n      dup8\n        /* \"Evm/zk/variable_verifier.sol\":19991:20005  add(input, 64) */\n      add\n        /* \"Evm/zk/variable_verifier.sol\":19978:20006  calldataload(add(input, 64)) */\n      calldataload\n        /* \"Evm/zk/variable_verifier.sol\":19972:20006  s :=  calldataload(add(input, 64)) */\n      swap1\n      pop\n        /* \"Evm/zk/variable_verifier.sol\":20041:20042  s */\n      dup1\n        /* \"Evm/zk/variable_verifier.sol\":20034:20038  0x40 */\n      0x40\n        /* \"Evm/zk/variable_verifier.sol\":20031:20032  g */\n      dup4\n        /* \"Evm/zk/variable_verifier.sol\":20027:20039  add(g, 0x40) */\n      add\n        /* \"Evm/zk/variable_verifier.sol\":20020:20043  mstore(add(g, 0x40), s) */\n      mstore\n        /* \"Evm/zk/variable_verifier.sol\":20087:20088  R */\n      0x30644e72e131a029b85045b68181585d2833e84879b9709143e1f593f0000001\n        /* \"Evm/zk/variable_verifier.sol\":20084:20085  s */\n      dup2\n        /* \"Evm/zk/variable_verifier.sol\":20081:20089  lt(s, R) */\n      lt\n        /* \"Evm/zk/variable_verifier.sol\":20072:20079  success */\n      dup5\n        /* \"Evm/zk/variable_verifier.sol\":20068:20090  and(success, lt(s, R)) */\n      and\n        /* \"Evm/zk/variable_verifier.sol\":20057:20090  success := and(success, lt(s, R)) */\n      swap4\n      pop\n        /* \"Evm/zk/variable_verifier.sol\":20174:20178  0x40 */\n      0x40\n        /* \"Evm/zk/variable_verifier.sol\":20171:20172  g */\n      dup3\n        /* \"Evm/zk/variable_verifier.sol\":20165:20169  0x60 */\n      0x60\n        /* \"Evm/zk/variable_verifier.sol\":20162:20163  g */\n      dup5\n        /* \"Evm/zk/variable_verifier.sol\":20146:20160  PRECOMPILE_MUL */\n      0x07\n        /* \"Evm/zk/variable_verifier.sol\":20139:20144  gas() */\n      gas\n        /* \"Evm/zk/variable_verifier.sol\":20128:20179  staticcall(gas(), PRECOMPILE_MUL, g, 0x60, g, 0x40) */\n      staticcall\n        /* \"Evm/zk/variable_verifier.sol\":20119:20126  success */\n      dup5\n        /* \"Evm/zk/variable_verifier.sol\":20115:20180  and(success, staticcall(gas(), PRECOMPILE_MUL, g, 0x60, g, 0x40)) */\n      and\n        /* \"Evm/zk/variable_verifier.sol\":20104:20180  success := and(success, staticcall(gas(), PRECOMPILE_MUL, g, 0x60, g, 0x40)) */\n      swap4\n      pop\n        /* \"Evm/zk/variable_verifier.sol\":20264:20268  0x40 */\n      0x40\n        /* \"Evm/zk/variable_verifier.sol\":20261:20262  f */\n      dup4\n        /* \"Evm/zk/variable_verifier.sol\":20255:20259  0x80 */\n      0x80\n        /* \"Evm/zk/variable_verifier.sol\":20252:20253  f */\n      dup6\n        /* \"Evm/zk/variable_verifier.sol\":20236:20250  PRECOMPILE_ADD */\n      0x06\n        /* \"Evm/zk/variable_verifier.sol\":20229:20234  gas() */\n      gas\n        /* \"Evm/zk/variable_verifier.sol\":20218:20269  staticcall(gas(), PRECOMPILE_ADD, f, 0x80, f, 0x40) */\n      staticcall\n        /* \"Evm/zk/variable_verifier.sol\":20209:20216  success */\n      dup5\n        /* \"Evm/zk/variable_verifier.sol\":20205:20270  and(success, staticcall(gas(), PRECOMPILE_ADD, f, 0x80, f, 0x40)) */\n      and\n        /* \"Evm/zk/variable_verifier.sol\":20194:20270  success := and(success, staticcall(gas(), PRECOMPILE_ADD, f, 0x80, f, 0x40)) */\n      swap4\n      pop\n        /* \"Evm/zk/variable_verifier.sol\":20294:20301  PUB_3_X */\n      0x2b664d948b59582ece65c95670d4a7ffd2195c9db45be7b196f3c5a3493ccc59\n        /* \"Evm/zk/variable_verifier.sol\":20291:20292  g */\n      dup3\n        /* \"Evm/zk/variable_verifier.sol\":20284:20302  mstore(g, PUB_3_X) */\n      mstore\n        /* \"Evm/zk/variable_verifier.sol\":20337:20344  PUB_3_Y */\n      0x14b4a8ee6ffbf93e0f1d0ceceafa21a7b2fa02a16e2cbe29b64b0c6996cd6553\n        /* \"Evm/zk/variable_verifier.sol\":20330:20334  0x20 */\n      0x20\n        /* \"Evm/zk/variable_verifier.sol\":20327:20328  g */\n      dup4\n        /* \"Evm/zk/variable_verifier.sol\":20323:20335  add(g, 0x20) */\n      add\n        /* \"Evm/zk/variable_verifier.sol\":20316:20345  mstore(add(g, 0x20), PUB_3_Y) */\n      mstore\n        /* \"Evm/zk/variable_verifier.sol\":20389:20391  96 */\n      0x60\n        /* \"Evm/zk/variable_verifier.sol\":20382:20387  input */\n      dup8\n        /* \"Evm/zk/variable_verifier.sol\":20378:20392  add(input, 96) */\n      add\n        /* \"Evm/zk/variable_verifier.sol\":20365:20393  calldataload(add(input, 96)) */\n      calldataload\n        /* \"Evm/zk/variable_verifier.sol\":20359:20393  s :=  calldataload(add(input, 96)) */\n      swap1\n      pop\n        /* \"Evm/zk/variable_verifier.sol\":20428:20429  s */\n      dup1\n        /* \"Evm/zk/variable_verifier.sol\":20421:20425  0x40 */\n      0x40\n        /* \"Evm/zk/variable_verifier.sol\":20418:20419  g */\n      dup4\n        /* \"Evm/zk/variable_verifier.sol\":20414:20426  add(g, 0x40) */\n      add\n        /* \"Evm/zk/variable_verifier.sol\":20407:20430  mstore(add(g, 0x40), s) */\n      mstore\n        /* \"Evm/zk/variable_verifier.sol\":20474:20475  R */\n      0x30644e72e131a029b85045b68181585d2833e84879b9709143e1f593f0000001\n        /* \"Evm/zk/variable_verifier.sol\":20471:20472  s */\n      dup2\n        /* \"Evm/zk/variable_verifier.sol\":20468:20476  lt(s, R) */\n      lt\n        /* \"Evm/zk/variable_verifier.sol\":20459:20466  success */\n      dup5\n        /* \"Evm/zk/variable_verifier.sol\":20455:20477  and(success, lt(s, R)) */\n      and\n        /* \"Evm/zk/variable_verifier.sol\":20444:20477  success := and(success, lt(s, R)) */\n      swap4\n      pop\n        /* \"Evm/zk/variable_verifier.sol\":20561:20565  0x40 */\n      0x40\n        /* \"Evm/zk/variable_verifier.sol\":20558:20559  g */\n      dup3\n        /* \"Evm/zk/variable_verifier.sol\":20552:20556  0x60 */\n      0x60\n        /* \"Evm/zk/variable_verifier.sol\":20549:20550  g */\n      dup5\n        /* \"Evm/zk/variable_verifier.sol\":20533:20547  PRECOMPILE_MUL */\n      0x07\n        /* \"Evm/zk/variable_verifier.sol\":20526:20531  gas() */\n      gas\n        /* \"Evm/zk/variable_verifier.sol\":20515:20566  staticcall(gas(), PRECOMPILE_MUL, g, 0x60, g, 0x40) */\n      staticcall\n        /* \"Evm/zk/variable_verifier.sol\":20506:20513  success */\n      dup5\n        /* \"Evm/zk/variable_verifier.sol\":20502:20567  and(success, staticcall(gas(), PRECOMPILE_MUL, g, 0x60, g, 0x40)) */\n      and\n        /* \"Evm/zk/variable_verifier.sol\":20491:20567  success := and(success, staticcall(gas(), PRECOMPILE_MUL, g, 0x60, g, 0x40)) */\n      swap4\n      pop\n        /* \"Evm/zk/variable_verifier.sol\":20651:20655  0x40 */\n      0x40\n        /* \"Evm/zk/variable_verifier.sol\":20648:20649  f */\n      dup4\n        /* \"Evm/zk/variable_verifier.sol\":20642:20646  0x80 */\n      0x80\n        /* \"Evm/zk/variable_verifier.sol\":20639:20640  f */\n      dup6\n        /* \"Evm/zk/variable_verifier.sol\":20623:20637  PRECOMPILE_ADD */\n      0x06\n        /* \"Evm/zk/variable_verifier.sol\":20616:20621  gas() */\n      gas\n        /* \"Evm/zk/variable_verifier.sol\":20605:20656  staticcall(gas(), PRECOMPILE_ADD, f, 0x80, f, 0x40) */\n      staticcall\n        /* \"Evm/zk/variable_verifier.sol\":20596:20603  success */\n      dup5\n        /* \"Evm/zk/variable_verifier.sol\":20592:20657  and(success, staticcall(gas(), PRECOMPILE_ADD, f, 0x80, f, 0x40)) */\n      and\n        /* \"Evm/zk/variable_verifier.sol\":20581:20657  success := and(success, staticcall(gas(), PRECOMPILE_ADD, f, 0x80, f, 0x40)) */\n      swap4\n      pop\n        /* \"Evm/zk/variable_verifier.sol\":20681:20688  PUB_4_X */\n      0x0d467a02e07db065feee8ec2e5aaf895edd323d9c9759b0b7bd3cda4360668b7\n        /* \"Evm/zk/variable_verifier.sol\":20678:20679  g */\n      dup3\n        /* \"Evm/zk/variable_verifier.sol\":20671:20689  mstore(g, PUB_4_X) */\n      mstore\n        /* \"Evm/zk/variable_verifier.sol\":20724:20731  PUB_4_Y */\n      0x0545fd150327a2323164b5b602dbb02a862168964a6ede4bedbee8371493292e\n        /* \"Evm/zk/variable_verifier.sol\":20717:20721  0x20 */\n      0x20\n        /* \"Evm/zk/variable_verifier.sol\":20714:20715  g */\n      dup4\n        /* \"Evm/zk/variable_verifier.sol\":20710:20722  add(g, 0x20) */\n      add\n        /* \"Evm/zk/variable_verifier.sol\":20703:20732  mstore(add(g, 0x20), PUB_4_Y) */\n      mstore\n        /* \"Evm/zk/variable_verifier.sol\":20776:20779  128 */\n      0x80\n        /* \"Evm/zk/variable_verifier.sol\":20769:20774  input */\n      dup8\n        /* \"Evm/zk/variable_verifier.sol\":20765:20780  add(input, 128) */\n      add\n        /* \"Evm/zk/variable_verifier.sol\":20752:20781  calldataload(add(input, 128)) */\n      calldataload\n        /* \"Evm/zk/variable_verifier.sol\":20746:20781  s :=  calldataload(add(input, 128)) */\n      swap1\n      pop\n        /* \"Evm/zk/variable_verifier.sol\":20816:20817  s */\n      dup1\n        /* \"Evm/zk/variable_verifier.sol\":20809:20813  0x40 */\n      0x40\n        /* \"Evm/zk/variable_verifier.sol\":20806:20807  g */\n      dup4\n        /* \"Evm/zk/variable_verifier.sol\":20802:20814  add(g, 0x40) */\n      add\n        /* \"Evm/zk/variable_verifier.sol\":20795:20818  mstore(add(g, 0x40), s) */\n      mstore\n        /* \"Evm/zk/variable_verifier.sol\":20862:20863  R */\n      0x30644e72e131a029b85045b68181585d2833e84879b9709143e1f593f0000001\n        /* \"Evm/zk/variable_verifier.sol\":20859:20860  s */\n      dup2\n        /* \"Evm/zk/variable_verifier.sol\":20856:20864  lt(s, R) */\n      lt\n        /* \"Evm/zk/variable_verifier.sol\":20847:20854  success */\n      dup5\n        /* \"Evm/zk/variable_verifier.sol\":20843:20865  and(success, lt(s, R)) */\n      and\n        /* \"Evm/zk/variable_verifier.sol\":20832:20865  success := and(success, lt(s, R)) */\n      swap4\n      pop\n        /* \"Evm/zk/variable_verifier.sol\":20949:20953  0x40 */\n      0x40\n        /* \"Evm/zk/variable_verifier.sol\":20946:20947  g */\n      dup3\n        /* \"Evm/zk/variable_verifier.sol\":20940:20944  0x60 */\n      0x60\n        /* \"Evm/zk/variable_verifier.sol\":20937:20938  g */\n      dup5\n        /* \"Evm/zk/variable_verifier.sol\":20921:20935  PRECOMPILE_MUL */\n      0x07\n        /* \"Evm/zk/variable_verifier.sol\":20914:20919  gas() */\n      gas\n        /* \"Evm/zk/variable_verifier.sol\":20903:20954  staticcall(gas(), PRECOMPILE_MUL, g, 0x60, g, 0x40) */\n      staticcall\n        /* \"Evm/zk/variable_verifier.sol\":20894:20901  success */\n      dup5\n        /* \"Evm/zk/variable_verifier.sol\":20890:20955  and(success, staticcall(gas(), PRECOMPILE_MUL, g, 0x60, g, 0x40)) */\n      and\n        /* \"Evm/zk/variable_verifier.sol\":20879:20955  success := and(success, staticcall(gas(), PRECOMPILE_MUL, g, 0x60, g, 0x40)) */\n      swap4\n      pop\n        /* \"Evm/zk/variable_verifier.sol\":21039:21043  0x40 */\n      0x40\n        /* \"Evm/zk/variable_verifier.sol\":21036:21037  f */\n      dup4\n        /* \"Evm/zk/variable_verifier.sol\":21030:21034  0x80 */\n      0x80\n        /* \"Evm/zk/variable_verifier.sol\":21027:21028  f */\n      dup6\n        /* \"Evm/zk/variable_verifier.sol\":21011:21025  PRECOMPILE_ADD */\n      0x06\n        /* \"Evm/zk/variable_verifier.sol\":21004:21009  gas() */\n      gas\n        /* \"Evm/zk/variable_verifier.sol\":20993:21044  staticcall(gas(), PRECOMPILE_ADD, f, 0x80, f, 0x40) */\n      staticcall\n        /* \"Evm/zk/variable_verifier.sol\":20984:20991  success */\n      dup5\n        /* \"Evm/zk/variable_verifier.sol\":20980:21045  and(success, staticcall(gas(), PRECOMPILE_ADD, f, 0x80, f, 0x40)) */\n      and\n        /* \"Evm/zk/variable_verifier.sol\":20969:21045  success := and(success, staticcall(gas(), PRECOMPILE_ADD, f, 0x80, f, 0x40)) */\n      swap4\n      pop\n        /* \"Evm/zk/variable_verifier.sol\":21069:21076  PUB_5_X */\n      0x05123f74ca521aadd6ac9b29dfd8a6d3c31b481c3c3f2ff9951e1b89e7fdb283\n        /* \"Evm/zk/variable_verifier.sol\":21066:21067  g */\n      dup3\n        /* \"Evm/zk/variable_verifier.sol\":21059:21077  mstore(g, PUB_5_X) */\n      mstore\n        /* \"Evm/zk/variable_verifier.sol\":21112:21119  PUB_5_Y */\n      0x0aadb8338bf27ccc1d8511bfccaac5b66fddb5fdc098db7c3557954371e78bcb\n        /* \"Evm/zk/variable_verifier.sol\":21105:21109  0x20 */\n      0x20\n        /* \"Evm/zk/variable_verifier.sol\":21102:21103  g */\n      dup4\n        /* \"Evm/zk/variable_verifier.sol\":21098:21110  add(g, 0x20) */\n      add\n        /* \"Evm/zk/variable_verifier.sol\":21091:21120  mstore(add(g, 0x20), PUB_5_Y) */\n      mstore\n        /* \"Evm/zk/variable_verifier.sol\":21164:21167  160 */\n      0xa0\n        /* \"Evm/zk/variable_verifier.sol\":21157:21162  input */\n      dup8\n        /* \"Evm/zk/variable_verifier.sol\":21153:21168  add(input, 160) */\n      add\n        /* \"Evm/zk/variable_verifier.sol\":21140:21169  calldataload(add(input, 160)) */\n      calldataload\n        /* \"Evm/zk/variable_verifier.sol\":21134:21169  s :=  calldataload(add(input, 160)) */\n      swap1\n      pop\n        /* \"Evm/zk/variable_verifier.sol\":21204:21205  s */\n      dup1\n        /* \"Evm/zk/variable_verifier.sol\":21197:21201  0x40 */\n      0x40\n        /* \"Evm/zk/variable_verifier.sol\":21194:21195  g */\n      dup4\n        /* \"Evm/zk/variable_verifier.sol\":21190:21202  add(g, 0x40) */\n      add\n        /* \"Evm/zk/variable_verifier.sol\":21183:21206  mstore(add(g, 0x40), s) */\n      mstore\n        /* \"Evm/zk/variable_verifier.sol\":21250:21251  R */\n      0x30644e72e131a029b85045b68181585d2833e84879b9709143e1f593f0000001\n        /* \"Evm/zk/variable_verifier.sol\":21247:21248  s */\n      dup2\n        /* \"Evm/zk/variable_verifier.sol\":21244:21252  lt(s, R) */\n      lt\n        /* \"Evm/zk/variable_verifier.sol\":21235:21242  success */\n      dup5\n        /* \"Evm/zk/variable_verifier.sol\":21231:21253  and(success, lt(s, R)) */\n      and\n        /* \"Evm/zk/variable_verifier.sol\":21220:21253  success := and(success, lt(s, R)) */\n      swap4\n      pop\n        /* \"Evm/zk/variable_verifier.sol\":21337:21341  0x40 */\n      0x40\n        /* \"Evm/zk/variable_verifier.sol\":21334:21335  g */\n      dup3\n        /* \"Evm/zk/variable_verifier.sol\":21328:21332  0x60 */\n      0x60\n        /* \"Evm/zk/variable_verifier.sol\":21325:21326  g */\n      dup5\n        /* \"Evm/zk/variable_verifier.sol\":21309:21323  PRECOMPILE_MUL */\n      0x07\n        /* \"Evm/zk/variable_verifier.sol\":21302:21307  gas() */\n      gas\n        /* \"Evm/zk/variable_verifier.sol\":21291:21342  staticcall(gas(), PRECOMPILE_MUL, g, 0x60, g, 0x40) */\n      staticcall\n        /* \"Evm/zk/variable_verifier.sol\":21282:21289  success */\n      dup5\n        /* \"Evm/zk/variable_verifier.sol\":21278:21343  and(success, staticcall(gas(), PRECOMPILE_MUL, g, 0x60, g, 0x40)) */\n      and\n        /* \"Evm/zk/variable_verifier.sol\":21267:21343  success := and(success, staticcall(gas(), PRECOMPILE_MUL, g, 0x60, g, 0x40)) */\n      swap4\n      pop\n        /* \"Evm/zk/variable_verifier.sol\":21427:21431  0x40 */\n      0x40\n        /* \"Evm/zk/variable_verifier.sol\":21424:21425  f */\n      dup4\n        /* \"Evm/zk/variable_verifier.sol\":21418:21422  0x80 */\n      0x80\n        /* \"Evm/zk/variable_verifier.sol\":21415:21416  f */\n      dup6\n        /* \"Evm/zk/variable_verifier.sol\":21399:21413  PRECOMPILE_ADD */\n      0x06\n        /* \"Evm/zk/variable_verifier.sol\":21392:21397  gas() */\n      gas\n        /* \"Evm/zk/variable_verifier.sol\":21381:21432  staticcall(gas(), PRECOMPILE_ADD, f, 0x80, f, 0x40) */\n      staticcall\n        /* \"Evm/zk/variable_verifier.sol\":21372:21379  success */\n      dup5\n        /* \"Evm/zk/variable_verifier.sol\":21368:21433  and(success, staticcall(gas(), PRECOMPILE_ADD, f, 0x80, f, 0x40)) */\n      and\n        /* \"Evm/zk/variable_verifier.sol\":21357:21433  success := and(success, staticcall(gas(), PRECOMPILE_ADD, f, 0x80, f, 0x40)) */\n      swap4\n      pop\n        /* \"Evm/zk/variable_verifier.sol\":21457:21464  PUB_6_X */\n      0x1fb649c157e22261a4f9e93b6d54d70741a003be8760bfc9695fd1837042ed89\n        /* \"Evm/zk/variable_verifier.sol\":21454:21455  g */\n      dup3\n        /* \"Evm/zk/variable_verifier.sol\":21447:21465  mstore(g, PUB_6_X) */\n      mstore\n        /* \"Evm/zk/variable_verifier.sol\":21500:21507  PUB_6_Y */\n      0x12e1495b19e55162784f8c0cacb00dcbad6c41c51d11ee36cc3975c5155109c9\n        /* \"Evm/zk/variable_verifier.sol\":21493:21497  0x20 */\n      0x20\n        /* \"Evm/zk/variable_verifier.sol\":21490:21491  g */\n      dup4\n        /* \"Evm/zk/variable_verifier.sol\":21486:21498  add(g, 0x20) */\n      add\n        /* \"Evm/zk/variable_verifier.sol\":21479:21508  mstore(add(g, 0x20), PUB_6_Y) */\n      mstore\n        /* \"Evm/zk/variable_verifier.sol\":21552:21555  192 */\n      0xc0\n        /* \"Evm/zk/variable_verifier.sol\":21545:21550  input */\n      dup8\n        /* \"Evm/zk/variable_verifier.sol\":21541:21556  add(input, 192) */\n      add\n        /* \"Evm/zk/variable_verifier.sol\":21528:21557  calldataload(add(input, 192)) */\n      calldataload\n        /* \"Evm/zk/variable_verifier.sol\":21522:21557  s :=  calldataload(add(input, 192)) */\n      swap1\n      pop\n        /* \"Evm/zk/variable_verifier.sol\":21592:21593  s */\n      dup1\n        /* \"Evm/zk/variable_verifier.sol\":21585:21589  0x40 */\n      0x40\n        /* \"Evm/zk/variable_verifier.sol\":21582:21583  g */\n      dup4\n        /* \"Evm/zk/variable_verifier.sol\":21578:21590  add(g, 0x40) */\n      add\n        /* \"Evm/zk/variable_verifier.sol\":21571:21594  mstore(add(g, 0x40), s) */\n      mstore\n        /* \"Evm/zk/variable_verifier.sol\":21638:21639  R */\n      0x30644e72e131a029b85045b68181585d2833e84879b9709143e1f593f0000001\n        /* \"Evm/zk/variable_verifier.sol\":21635:21636  s */\n      dup2\n        /* \"Evm/zk/variable_verifier.sol\":21632:21640  lt(s, R) */\n      lt\n        /* \"Evm/zk/variable_verifier.sol\":21623:21630  success */\n      dup5\n        /* \"Evm/zk/variable_verifier.sol\":21619:21641  and(success, lt(s, R)) */\n      and\n        /* \"Evm/zk/variable_verifier.sol\":21608:21641  success := and(success, lt(s, R)) */\n      swap4\n      pop\n        /* \"Evm/zk/variable_verifier.sol\":21725:21729  0x40 */\n      0x40\n        /* \"Evm/zk/variable_verifier.sol\":21722:21723  g */\n      dup3\n        /* \"Evm/zk/variable_verifier.sol\":21716:21720  0x60 */\n      0x60\n        /* \"Evm/zk/variable_verifier.sol\":21713:21714  g */\n      dup5\n        /* \"Evm/zk/variable_verifier.sol\":21697:21711  PRECOMPILE_MUL */\n      0x07\n        /* \"Evm/zk/variable_verifier.sol\":21690:21695  gas() */\n      gas\n        /* \"Evm/zk/variable_verifier.sol\":21679:21730  staticcall(gas(), PRECOMPILE_MUL, g, 0x60, g, 0x40) */\n      staticcall\n        /* \"Evm/zk/variable_verifier.sol\":21670:21677  success */\n      dup5\n        /* \"Evm/zk/variable_verifier.sol\":21666:21731  and(success, staticcall(gas(), PRECOMPILE_MUL, g, 0x60, g, 0x40)) */\n      and\n        /* \"Evm/zk/variable_verifier.sol\":21655:21731  success := and(success, staticcall(gas(), PRECOMPILE_MUL, g, 0x60, g, 0x40)) */\n      swap4\n      pop\n        /* \"Evm/zk/variable_verifier.sol\":21815:21819  0x40 */\n      0x40\n        /* \"Evm/zk/variable_verifier.sol\":21812:21813  f */\n      dup4\n        /* \"Evm/zk/variable_verifier.sol\":21806:21810  0x80 */\n      0x80\n        /* \"Evm/zk/variable_verifier.sol\":21803:21804  f */\n      dup6\n        /* \"Evm/zk/variable_verifier.sol\":21787:21801  PRECOMPILE_ADD */\n      0x06\n        /* \"Evm/zk/variable_verifier.sol\":21780:21785  gas() */\n      gas\n        /* \"Evm/zk/variable_verifier.sol\":21769:21820  staticcall(gas(), PRECOMPILE_ADD, f, 0x80, f, 0x40) */\n      staticcall\n        /* \"Evm/zk/variable_verifier.sol\":21760:21767  success */\n      dup5\n        /* \"Evm/zk/variable_verifier.sol\":21756:21821  and(success, staticcall(gas(), PRECOMPILE_ADD, f, 0x80, f, 0x40)) */\n      and\n        /* \"Evm/zk/variable_verifier.sol\":21745:21821  success := and(success, staticcall(gas(), PRECOMPILE_ADD, f, 0x80, f, 0x40)) */\n      swap4\n      pop\n        /* \"Evm/zk/variable_verifier.sol\":21848:21849  f */\n      dup3\n        /* \"Evm/zk/variable_verifier.sol\":21842:21850  mload(f) */\n      mload\n        /* \"Evm/zk/variable_verifier.sol\":21837:21850  x := mload(f) */\n      swap6\n      pop\n        /* \"Evm/zk/variable_verifier.sol\":21882:21886  0x20 */\n      0x20\n        /* \"Evm/zk/variable_verifier.sol\":21879:21880  f */\n      dup4\n        /* \"Evm/zk/variable_verifier.sol\":21875:21887  add(f, 0x20) */\n      add\n        /* \"Evm/zk/variable_verifier.sol\":21869:21888  mload(add(f, 0x20)) */\n      mload\n        /* \"Evm/zk/variable_verifier.sol\":21864:21888  y := mload(add(f, 0x20)) */\n      swap5\n      pop\n        /* \"Evm/zk/variable_verifier.sol\":18948:21899  {... */\n      pop\n      pop\n      pop\n        /* \"Evm/zk/variable_verifier.sol\":21914:21921  success */\n      dup1\n        /* \"Evm/zk/variable_verifier.sol\":21909:22156  if (!success) {... */\n      tag_129\n      jumpi\n        /* \"Evm/zk/variable_verifier.sol\":22121:22144  PublicInputNotInField() */\n      mload(0x40)\n      0xa54f8e2700000000000000000000000000000000000000000000000000000000\n      dup2\n      mstore\n      0x04\n      add\n      mload(0x40)\n      dup1\n      swap2\n      sub\n      swap1\n      revert\n        /* \"Evm/zk/variable_verifier.sol\":21909:22156  if (!success) {... */\n    tag_129:\n        /* \"Evm/zk/variable_verifier.sol\":18281:22163  {... */\n      pop\n        /* \"Evm/zk/variable_verifier.sol\":18180:22163  function publicInputMSM(uint256[7] calldata input)... */\n      swap2\n      pop\n      swap2\n      jump\t// out\n        /* \"Evm/zk/variable_verifier.sol\":11049:11769  function compress_g1(uint256 x, uint256 y) internal view returns (uint256 c) {... */\n    tag_33:\n        /* \"Evm/zk/variable_verifier.sol\":11115:11124  uint256 c */\n      0x00\n        /* \"Evm/zk/variable_verifier.sol\":1423:1489  0x30644e72e131a029b85045b68181585d97816a916871ca8d3c208c16d87cfd47 */\n      0x30644e72e131a029b85045b68181585d97816a916871ca8d3c208c16d87cfd47\n        /* \"Evm/zk/variable_verifier.sol\":11141:11142  x */\n      dup4\n        /* \"Evm/zk/variable_verifier.sol\":11141:11147  x >= P */\n      lt\n      iszero\n        /* \"Evm/zk/variable_verifier.sol\":11141:11157  x >= P || y >= P */\n      dup1\n      tag_131\n      jumpi\n      pop\n        /* \"Evm/zk/variable_verifier.sol\":1423:1489  0x30644e72e131a029b85045b68181585d97816a916871ca8d3c208c16d87cfd47 */\n      0x30644e72e131a029b85045b68181585d97816a916871ca8d3c208c16d87cfd47\n        /* \"Evm/zk/variable_verifier.sol\":11151:11152  y */\n      dup3\n        /* \"Evm/zk/variable_verifier.sol\":11151:11157  y >= P */\n      lt\n      iszero\n        /* \"Evm/zk/variable_verifier.sol\":11141:11157  x >= P || y >= P */\n    tag_131:\n        /* \"Evm/zk/variable_verifier.sol\":11137:11246  if (x >= P || y >= P) {... */\n      iszero\n      tag_132\n      jumpi\n        /* \"Evm/zk/variable_verifier.sol\":11220:11234  ProofInvalid() */\n      mload(0x40)\n      0x7fcdd1f400000000000000000000000000000000000000000000000000000000\n      dup2\n      mstore\n      0x04\n      add\n      mload(0x40)\n      dup1\n      swap2\n      sub\n      swap1\n      revert\n        /* \"Evm/zk/variable_verifier.sol\":11137:11246  if (x >= P || y >= P) {... */\n    tag_132:\n        /* \"Evm/zk/variable_verifier.sol\":11265:11266  0 */\n      0x00\n        /* \"Evm/zk/variable_verifier.sol\":11260:11261  x */\n      dup4\n        /* \"Evm/zk/variable_verifier.sol\":11260:11266  x == 0 */\n      eq\n        /* \"Evm/zk/variable_verifier.sol\":11260:11276  x == 0 && y == 0 */\n      dup1\n      iszero\n      tag_133\n      jumpi\n      pop\n        /* \"Evm/zk/variable_verifier.sol\":11275:11276  0 */\n      0x00\n        /* \"Evm/zk/variable_verifier.sol\":11270:11271  y */\n      dup3\n        /* \"Evm/zk/variable_verifier.sol\":11270:11276  y == 0 */\n      eq\n        /* \"Evm/zk/variable_verifier.sol\":11260:11276  x == 0 && y == 0 */\n    tag_133:\n        /* \"Evm/zk/variable_verifier.sol\":11256:11347  if (x == 0 && y == 0) {... */\n      iszero\n      tag_134\n      jumpi\n        /* \"Evm/zk/variable_verifier.sol\":11334:11335  0 */\n      0x00\n        /* \"Evm/zk/variable_verifier.sol\":11327:11335  return 0 */\n      swap1\n      pop\n      jump(tag_130)\n        /* \"Evm/zk/variable_verifier.sol\":11256:11347  if (x == 0 && y == 0) {... */\n    tag_134:\n        /* \"Evm/zk/variable_verifier.sol\":11452:11465  uint256 y_pos */\n      0x00\n        /* \"Evm/zk/variable_verifier.sol\":11468:11520  sqrt_Fp(addmod(mulmod(mulmod(x, x, P), x, P), 3, P)) */\n      tag_135\n        /* \"Evm/zk/variable_verifier.sol\":1423:1489  0x30644e72e131a029b85045b68181585d97816a916871ca8d3c208c16d87cfd47 */\n      0x30644e72e131a029b85045b68181585d97816a916871ca8d3c208c16d87cfd47\n        /* \"Evm/zk/variable_verifier.sol\":11476:11519  addmod(mulmod(mulmod(x, x, P), x, P), 3, P) */\n      dup1\n      tag_136\n      jumpi\n      tag_137\n      tag_138\n      jump\t// in\n    tag_137:\n    tag_136:\n        /* \"Evm/zk/variable_verifier.sol\":11514:11515  3 */\n      0x03\n        /* \"Evm/zk/variable_verifier.sol\":1423:1489  0x30644e72e131a029b85045b68181585d97816a916871ca8d3c208c16d87cfd47 */\n      0x30644e72e131a029b85045b68181585d97816a916871ca8d3c208c16d87cfd47\n        /* \"Evm/zk/variable_verifier.sol\":11483:11512  mulmod(mulmod(x, x, P), x, P) */\n      dup1\n      tag_139\n      jumpi\n      tag_140\n      tag_138\n      jump\t// in\n    tag_140:\n    tag_139:\n        /* \"Evm/zk/variable_verifier.sol\":11507:11508  x */\n      dup8\n        /* \"Evm/zk/variable_verifier.sol\":1423:1489  0x30644e72e131a029b85045b68181585d97816a916871ca8d3c208c16d87cfd47 */\n      0x30644e72e131a029b85045b68181585d97816a916871ca8d3c208c16d87cfd47\n        /* \"Evm/zk/variable_verifier.sol\":11490:11505  mulmod(x, x, P) */\n      dup1\n      tag_141\n      jumpi\n      tag_142\n      tag_138\n      jump\t// in\n    tag_142:\n    tag_141:\n        /* \"Evm/zk/variable_verifier.sol\":11500:11501  x */\n      dup10\n        /* \"Evm/zk/variable_verifier.sol\":11497:11498  x */\n      dup11\n        /* \"Evm/zk/variable_verifier.sol\":11490:11505  mulmod(x, x, P) */\n      mulmod\n        /* \"Evm/zk/variable_verifier.sol\":11483:11512  mulmod(mulmod(x, x, P), x, P) */\n      mulmod\n        /* \"Evm/zk/variable_verifier.sol\":11476:11519  addmod(mulmod(mulmod(x, x, P), x, P), 3, P) */\n      addmod\n        /* \"Evm/zk/variable_verifier.sol\":11468:11475  sqrt_Fp */\n      tag_143\n        /* \"Evm/zk/variable_verifier.sol\":11468:11520  sqrt_Fp(addmod(mulmod(mulmod(x, x, P), x, P), 3, P)) */\n      jump\t// in\n    tag_135:\n        /* \"Evm/zk/variable_verifier.sol\":11452:11520  uint256 y_pos = sqrt_Fp(addmod(mulmod(mulmod(x, x, P), x, P), 3, P)) */\n      swap1\n      pop\n        /* \"Evm/zk/variable_verifier.sol\":11540:11545  y_pos */\n      dup1\n        /* \"Evm/zk/variable_verifier.sol\":11535:11536  y */\n      dup4\n        /* \"Evm/zk/variable_verifier.sol\":11535:11545  y == y_pos */\n      sub\n        /* \"Evm/zk/variable_verifier.sol\":11531:11762  if (y == y_pos) {... */\n      tag_144\n      jumpi\n        /* \"Evm/zk/variable_verifier.sol\":11580:11581  0 */\n      0x00\n        /* \"Evm/zk/variable_verifier.sol\":11575:11576  1 */\n      0x01\n        /* \"Evm/zk/variable_verifier.sol\":11570:11571  x */\n      dup6\n        /* \"Evm/zk/variable_verifier.sol\":11570:11576  x << 1 */\n      swap1\n      shl\n        /* \"Evm/zk/variable_verifier.sol\":11569:11581  (x << 1) | 0 */\n      or\n        /* \"Evm/zk/variable_verifier.sol\":11562:11581  return (x << 1) | 0 */\n      swap2\n      pop\n      pop\n      jump(tag_130)\n        /* \"Evm/zk/variable_verifier.sol\":11531:11762  if (y == y_pos) {... */\n    tag_144:\n        /* \"Evm/zk/variable_verifier.sol\":11608:11621  negate(y_pos) */\n      tag_146\n        /* \"Evm/zk/variable_verifier.sol\":11615:11620  y_pos */\n      dup2\n        /* \"Evm/zk/variable_verifier.sol\":11608:11614  negate */\n      tag_147\n        /* \"Evm/zk/variable_verifier.sol\":11608:11621  negate(y_pos) */\n      jump\t// in\n    tag_146:\n        /* \"Evm/zk/variable_verifier.sol\":11603:11604  y */\n      dup4\n        /* \"Evm/zk/variable_verifier.sol\":11603:11621  y == negate(y_pos) */\n      sub\n        /* \"Evm/zk/variable_verifier.sol\":11599:11762  if (y == negate(y_pos)) {... */\n      tag_148\n      jumpi\n        /* \"Evm/zk/variable_verifier.sol\":11656:11657  1 */\n      0x01\n        /* \"Evm/zk/variable_verifier.sol\":11651:11652  1 */\n      dup1\n        /* \"Evm/zk/variable_verifier.sol\":11646:11647  x */\n      dup6\n        /* \"Evm/zk/variable_verifier.sol\":11646:11652  x << 1 */\n      swap1\n      shl\n        /* \"Evm/zk/variable_verifier.sol\":11645:11657  (x << 1) | 1 */\n      or\n        /* \"Evm/zk/variable_verifier.sol\":11638:11657  return (x << 1) | 1 */\n      swap2\n      pop\n      pop\n      jump(tag_130)\n        /* \"Evm/zk/variable_verifier.sol\":11599:11762  if (y == negate(y_pos)) {... */\n    tag_148:\n        /* \"Evm/zk/variable_verifier.sol\":11736:11750  ProofInvalid() */\n      mload(0x40)\n      0x7fcdd1f400000000000000000000000000000000000000000000000000000000\n      dup2\n      mstore\n      0x04\n      add\n      mload(0x40)\n      dup1\n      swap2\n      sub\n      swap1\n      revert\n        /* \"Evm/zk/variable_verifier.sol\":11049:11769  function compress_g1(uint256 x, uint256 y) internal view returns (uint256 c) {... */\n    tag_130:\n      swap3\n      swap2\n      pop\n      pop\n      jump\t// out\n        /* \"Evm/zk/variable_verifier.sol\":13807:15510  function compress_g2(uint256 x0, uint256 x1, uint256 y0, uint256 y1)... */\n    tag_45:\n        /* \"Evm/zk/variable_verifier.sol\":13904:13914  uint256 c0 */\n      0x00\n        /* \"Evm/zk/variable_verifier.sol\":13916:13926  uint256 c1 */\n      0x00\n        /* \"Evm/zk/variable_verifier.sol\":1423:1489  0x30644e72e131a029b85045b68181585d97816a916871ca8d3c208c16d87cfd47 */\n      0x30644e72e131a029b85045b68181585d97816a916871ca8d3c208c16d87cfd47\n        /* \"Evm/zk/variable_verifier.sol\":13943:13945  x0 */\n      dup7\n        /* \"Evm/zk/variable_verifier.sol\":13943:13950  x0 >= P */\n      lt\n      iszero\n        /* \"Evm/zk/variable_verifier.sol\":13943:13961  x0 >= P || x1 >= P */\n      dup1\n      tag_151\n      jumpi\n      pop\n        /* \"Evm/zk/variable_verifier.sol\":1423:1489  0x30644e72e131a029b85045b68181585d97816a916871ca8d3c208c16d87cfd47 */\n      0x30644e72e131a029b85045b68181585d97816a916871ca8d3c208c16d87cfd47\n        /* \"Evm/zk/variable_verifier.sol\":13954:13956  x1 */\n      dup6\n        /* \"Evm/zk/variable_verifier.sol\":13954:13961  x1 >= P */\n      lt\n      iszero\n        /* \"Evm/zk/variable_verifier.sol\":13943:13961  x0 >= P || x1 >= P */\n    tag_151:\n        /* \"Evm/zk/variable_verifier.sol\":13943:13972  x0 >= P || x1 >= P || y0 >= P */\n      dup1\n      tag_152\n      jumpi\n      pop\n        /* \"Evm/zk/variable_verifier.sol\":1423:1489  0x30644e72e131a029b85045b68181585d97816a916871ca8d3c208c16d87cfd47 */\n      0x30644e72e131a029b85045b68181585d97816a916871ca8d3c208c16d87cfd47\n        /* \"Evm/zk/variable_verifier.sol\":13965:13967  y0 */\n      dup5\n        /* \"Evm/zk/variable_verifier.sol\":13965:13972  y0 >= P */\n      lt\n      iszero\n        /* \"Evm/zk/variable_verifier.sol\":13943:13972  x0 >= P || x1 >= P || y0 >= P */\n    tag_152:\n        /* \"Evm/zk/variable_verifier.sol\":13943:13983  x0 >= P || x1 >= P || y0 >= P || y1 >= P */\n      dup1\n      tag_153\n      jumpi\n      pop\n        /* \"Evm/zk/variable_verifier.sol\":1423:1489  0x30644e72e131a029b85045b68181585d97816a916871ca8d3c208c16d87cfd47 */\n      0x30644e72e131a029b85045b68181585d97816a916871ca8d3c208c16d87cfd47\n        /* \"Evm/zk/variable_verifier.sol\":13976:13978  y1 */\n      dup4\n        /* \"Evm/zk/variable_verifier.sol\":13976:13983  y1 >= P */\n      lt\n      iszero\n        /* \"Evm/zk/variable_verifier.sol\":13943:13983  x0 >= P || x1 >= P || y0 >= P || y1 >= P */\n    tag_153:\n        /* \"Evm/zk/variable_verifier.sol\":13939:14072  if (x0 >= P || x1 >= P || y0 >= P || y1 >= P) {... */\n      iszero\n      tag_154\n      jumpi\n        /* \"Evm/zk/variable_verifier.sol\":14046:14060  ProofInvalid() */\n      mload(0x40)\n      0x7fcdd1f400000000000000000000000000000000000000000000000000000000\n      dup2\n      mstore\n      0x04\n      add\n      mload(0x40)\n      dup1\n      swap2\n      sub\n      swap1\n      revert\n        /* \"Evm/zk/variable_verifier.sol\":13939:14072  if (x0 >= P || x1 >= P || y0 >= P || y1 >= P) {... */\n    tag_154:\n        /* \"Evm/zk/variable_verifier.sol\":14109:14110  0 */\n      0x00\n        /* \"Evm/zk/variable_verifier.sol\":14102:14104  y1 */\n      dup4\n        /* \"Evm/zk/variable_verifier.sol\":14097:14099  y0 */\n      dup6\n        /* \"Evm/zk/variable_verifier.sol\":14092:14094  x1 */\n      dup8\n        /* \"Evm/zk/variable_verifier.sol\":14087:14089  x0 */\n      dup10\n        /* \"Evm/zk/variable_verifier.sol\":14087:14094  x0 | x1 */\n      or\n        /* \"Evm/zk/variable_verifier.sol\":14087:14099  x0 | x1 | y0 */\n      or\n        /* \"Evm/zk/variable_verifier.sol\":14087:14104  x0 | x1 | y0 | y1 */\n      or\n        /* \"Evm/zk/variable_verifier.sol\":14086:14110  (x0 | x1 | y0 | y1) == 0 */\n      sub\n        /* \"Evm/zk/variable_verifier.sol\":14082:14186  if ((x0 | x1 | y0 | y1) == 0) {... */\n      tag_155\n      jumpi\n        /* \"Evm/zk/variable_verifier.sol\":14169:14170  0 */\n      0x00\n        /* \"Evm/zk/variable_verifier.sol\":14172:14173  0 */\n      0x00\n        /* \"Evm/zk/variable_verifier.sol\":14161:14174  return (0, 0) */\n      swap2\n      pop\n      swap2\n      pop\n      jump(tag_150)\n        /* \"Evm/zk/variable_verifier.sol\":14082:14186  if ((x0 | x1 | y0 | y1) == 0) {... */\n    tag_155:\n        /* \"Evm/zk/variable_verifier.sol\":14296:14310  uint256 y0_pos */\n      0x00\n        /* \"Evm/zk/variable_verifier.sol\":14321:14335  uint256 y1_pos */\n      0x00\n        /* \"Evm/zk/variable_verifier.sol\":14361:14373  uint256 n3ab */\n      0x00\n        /* \"Evm/zk/variable_verifier.sol\":1423:1489  0x30644e72e131a029b85045b68181585d97816a916871ca8d3c208c16d87cfd47 */\n      0x30644e72e131a029b85045b68181585d97816a916871ca8d3c208c16d87cfd47\n        /* \"Evm/zk/variable_verifier.sol\":14376:14409  mulmod(mulmod(x0, x1, P), P-3, P) */\n      dup1\n      tag_156\n      jumpi\n      tag_157\n      tag_138\n      jump\t// in\n    tag_157:\n    tag_156:\n        /* \"Evm/zk/variable_verifier.sol\":14404:14405  3 */\n      0x03\n        /* \"Evm/zk/variable_verifier.sol\":1423:1489  0x30644e72e131a029b85045b68181585d97816a916871ca8d3c208c16d87cfd47 */\n      0x30644e72e131a029b85045b68181585d97816a916871ca8d3c208c16d87cfd47\n        /* \"Evm/zk/variable_verifier.sol\":14402:14405  P-3 */\n      tag_158\n      swap2\n      swap1\n      tag_159\n      jump\t// in\n    tag_158:\n        /* \"Evm/zk/variable_verifier.sol\":1423:1489  0x30644e72e131a029b85045b68181585d97816a916871ca8d3c208c16d87cfd47 */\n      0x30644e72e131a029b85045b68181585d97816a916871ca8d3c208c16d87cfd47\n        /* \"Evm/zk/variable_verifier.sol\":14383:14400  mulmod(x0, x1, P) */\n      dup1\n      tag_160\n      jumpi\n      tag_161\n      tag_138\n      jump\t// in\n    tag_161:\n    tag_160:\n        /* \"Evm/zk/variable_verifier.sol\":14394:14396  x1 */\n      dup11\n        /* \"Evm/zk/variable_verifier.sol\":14390:14392  x0 */\n      dup13\n        /* \"Evm/zk/variable_verifier.sol\":14383:14400  mulmod(x0, x1, P) */\n      mulmod\n        /* \"Evm/zk/variable_verifier.sol\":14376:14409  mulmod(mulmod(x0, x1, P), P-3, P) */\n      mulmod\n        /* \"Evm/zk/variable_verifier.sol\":14361:14409  uint256 n3ab = mulmod(mulmod(x0, x1, P), P-3, P) */\n      swap1\n      pop\n        /* \"Evm/zk/variable_verifier.sol\":14424:14435  uint256 a_3 */\n      0x00\n        /* \"Evm/zk/variable_verifier.sol\":1423:1489  0x30644e72e131a029b85045b68181585d97816a916871ca8d3c208c16d87cfd47 */\n      0x30644e72e131a029b85045b68181585d97816a916871ca8d3c208c16d87cfd47\n        /* \"Evm/zk/variable_verifier.sol\":14438:14470  mulmod(mulmod(x0, x0, P), x0, P) */\n      dup1\n      tag_162\n      jumpi\n      tag_163\n      tag_138\n      jump\t// in\n    tag_163:\n    tag_162:\n        /* \"Evm/zk/variable_verifier.sol\":14464:14466  x0 */\n      dup11\n        /* \"Evm/zk/variable_verifier.sol\":1423:1489  0x30644e72e131a029b85045b68181585d97816a916871ca8d3c208c16d87cfd47 */\n      0x30644e72e131a029b85045b68181585d97816a916871ca8d3c208c16d87cfd47\n        /* \"Evm/zk/variable_verifier.sol\":14445:14462  mulmod(x0, x0, P) */\n      dup1\n      tag_164\n      jumpi\n      tag_165\n      tag_138\n      jump\t// in\n    tag_165:\n    tag_164:\n        /* \"Evm/zk/variable_verifier.sol\":14456:14458  x0 */\n      dup13\n        /* \"Evm/zk/variable_verifier.sol\":14452:14454  x0 */\n      dup14\n        /* \"Evm/zk/variable_verifier.sol\":14445:14462  mulmod(x0, x0, P) */\n      mulmod\n        /* \"Evm/zk/variable_verifier.sol\":14438:14470  mulmod(mulmod(x0, x0, P), x0, P) */\n      mulmod\n        /* \"Evm/zk/variable_verifier.sol\":14424:14470  uint256 a_3 = mulmod(mulmod(x0, x0, P), x0, P) */\n      swap1\n      pop\n        /* \"Evm/zk/variable_verifier.sol\":14485:14496  uint256 b_3 */\n      0x00\n        /* \"Evm/zk/variable_verifier.sol\":1423:1489  0x30644e72e131a029b85045b68181585d97816a916871ca8d3c208c16d87cfd47 */\n      0x30644e72e131a029b85045b68181585d97816a916871ca8d3c208c16d87cfd47\n        /* \"Evm/zk/variable_verifier.sol\":14499:14531  mulmod(mulmod(x1, x1, P), x1, P) */\n      dup1\n      tag_166\n      jumpi\n      tag_167\n      tag_138\n      jump\t// in\n    tag_167:\n    tag_166:\n        /* \"Evm/zk/variable_verifier.sol\":14525:14527  x1 */\n      dup11\n        /* \"Evm/zk/variable_verifier.sol\":1423:1489  0x30644e72e131a029b85045b68181585d97816a916871ca8d3c208c16d87cfd47 */\n      0x30644e72e131a029b85045b68181585d97816a916871ca8d3c208c16d87cfd47\n        /* \"Evm/zk/variable_verifier.sol\":14506:14523  mulmod(x1, x1, P) */\n      dup1\n      tag_168\n      jumpi\n      tag_169\n      tag_138\n      jump\t// in\n    tag_169:\n    tag_168:\n        /* \"Evm/zk/variable_verifier.sol\":14517:14519  x1 */\n      dup13\n        /* \"Evm/zk/variable_verifier.sol\":14513:14515  x1 */\n      dup14\n        /* \"Evm/zk/variable_verifier.sol\":14506:14523  mulmod(x1, x1, P) */\n      mulmod\n        /* \"Evm/zk/variable_verifier.sol\":14499:14531  mulmod(mulmod(x1, x1, P), x1, P) */\n      mulmod\n        /* \"Evm/zk/variable_verifier.sol\":14485:14531  uint256 b_3 = mulmod(mulmod(x1, x1, P), x1, P) */\n      swap1\n      pop\n        /* \"Evm/zk/variable_verifier.sol\":1423:1489  0x30644e72e131a029b85045b68181585d97816a916871ca8d3c208c16d87cfd47 */\n      0x30644e72e131a029b85045b68181585d97816a916871ca8d3c208c16d87cfd47\n        /* \"Evm/zk/variable_verifier.sol\":14555:14620  addmod(FRACTION_27_82_FP, addmod(a_3, mulmod(n3ab, x1, P), P), P) */\n      dup1\n      tag_170\n      jumpi\n      tag_171\n      tag_138\n      jump\t// in\n    tag_171:\n    tag_170:\n        /* \"Evm/zk/variable_verifier.sol\":1423:1489  0x30644e72e131a029b85045b68181585d97816a916871ca8d3c208c16d87cfd47 */\n      0x30644e72e131a029b85045b68181585d97816a916871ca8d3c208c16d87cfd47\n        /* \"Evm/zk/variable_verifier.sol\":14581:14616  addmod(a_3, mulmod(n3ab, x1, P), P) */\n      dup1\n      tag_172\n      jumpi\n      tag_173\n      tag_138\n      jump\t// in\n    tag_173:\n    tag_172:\n        /* \"Evm/zk/variable_verifier.sol\":1423:1489  0x30644e72e131a029b85045b68181585d97816a916871ca8d3c208c16d87cfd47 */\n      0x30644e72e131a029b85045b68181585d97816a916871ca8d3c208c16d87cfd47\n        /* \"Evm/zk/variable_verifier.sol\":14593:14612  mulmod(n3ab, x1, P) */\n      dup1\n      tag_174\n      jumpi\n      tag_175\n      tag_138\n      jump\t// in\n    tag_175:\n    tag_174:\n        /* \"Evm/zk/variable_verifier.sol\":14606:14608  x1 */\n      dup13\n        /* \"Evm/zk/variable_verifier.sol\":14600:14604  n3ab */\n      dup7\n        /* \"Evm/zk/variable_verifier.sol\":14593:14612  mulmod(n3ab, x1, P) */\n      mulmod\n        /* \"Evm/zk/variable_verifier.sol\":14588:14591  a_3 */\n      dup5\n        /* \"Evm/zk/variable_verifier.sol\":14581:14616  addmod(a_3, mulmod(n3ab, x1, P), P) */\n      addmod\n        /* \"Evm/zk/variable_verifier.sol\":2254:2320  0x2b149d40ceb8aaae81be18991be06ac3b5b4c5e559dbefa33267e6dc24a138e5 */\n      0x2b149d40ceb8aaae81be18991be06ac3b5b4c5e559dbefa33267e6dc24a138e5\n        /* \"Evm/zk/variable_verifier.sol\":14555:14620  addmod(FRACTION_27_82_FP, addmod(a_3, mulmod(n3ab, x1, P), P), P) */\n      addmod\n        /* \"Evm/zk/variable_verifier.sol\":14546:14620  y0_pos = addmod(FRACTION_27_82_FP, addmod(a_3, mulmod(n3ab, x1, P), P), P) */\n      swap5\n      pop\n        /* \"Evm/zk/variable_verifier.sol\":14644:14717  negate(addmod(FRACTION_3_82_FP,  addmod(b_3, mulmod(n3ab, x0, P), P), P)) */\n      tag_176\n        /* \"Evm/zk/variable_verifier.sol\":1423:1489  0x30644e72e131a029b85045b68181585d97816a916871ca8d3c208c16d87cfd47 */\n      0x30644e72e131a029b85045b68181585d97816a916871ca8d3c208c16d87cfd47\n        /* \"Evm/zk/variable_verifier.sol\":14651:14716  addmod(FRACTION_3_82_FP,  addmod(b_3, mulmod(n3ab, x0, P), P), P) */\n      dup1\n      tag_177\n      jumpi\n      tag_178\n      tag_138\n      jump\t// in\n    tag_178:\n    tag_177:\n        /* \"Evm/zk/variable_verifier.sol\":1423:1489  0x30644e72e131a029b85045b68181585d97816a916871ca8d3c208c16d87cfd47 */\n      0x30644e72e131a029b85045b68181585d97816a916871ca8d3c208c16d87cfd47\n        /* \"Evm/zk/variable_verifier.sol\":14677:14712  addmod(b_3, mulmod(n3ab, x0, P), P) */\n      dup1\n      tag_179\n      jumpi\n      tag_180\n      tag_138\n      jump\t// in\n    tag_180:\n    tag_179:\n        /* \"Evm/zk/variable_verifier.sol\":1423:1489  0x30644e72e131a029b85045b68181585d97816a916871ca8d3c208c16d87cfd47 */\n      0x30644e72e131a029b85045b68181585d97816a916871ca8d3c208c16d87cfd47\n        /* \"Evm/zk/variable_verifier.sol\":14689:14708  mulmod(n3ab, x0, P) */\n      dup1\n      tag_181\n      jumpi\n      tag_182\n      tag_138\n      jump\t// in\n    tag_182:\n    tag_181:\n        /* \"Evm/zk/variable_verifier.sol\":14702:14704  x0 */\n      dup15\n        /* \"Evm/zk/variable_verifier.sol\":14696:14700  n3ab */\n      dup8\n        /* \"Evm/zk/variable_verifier.sol\":14689:14708  mulmod(n3ab, x0, P) */\n      mulmod\n        /* \"Evm/zk/variable_verifier.sol\":14684:14687  b_3 */\n      dup5\n        /* \"Evm/zk/variable_verifier.sol\":14677:14712  addmod(b_3, mulmod(n3ab, x0, P), P) */\n      addmod\n        /* \"Evm/zk/variable_verifier.sol\":2363:2429  0x2fcd3ac2a640a154eb23960892a85a68f031ca0c8344b23a577dcf1052b9e775 */\n      0x2fcd3ac2a640a154eb23960892a85a68f031ca0c8344b23a577dcf1052b9e775\n        /* \"Evm/zk/variable_verifier.sol\":14651:14716  addmod(FRACTION_3_82_FP,  addmod(b_3, mulmod(n3ab, x0, P), P), P) */\n      addmod\n        /* \"Evm/zk/variable_verifier.sol\":14644:14650  negate */\n      tag_147\n        /* \"Evm/zk/variable_verifier.sol\":14644:14717  negate(addmod(FRACTION_3_82_FP,  addmod(b_3, mulmod(n3ab, x0, P), P), P)) */\n      jump\t// in\n    tag_176:\n        /* \"Evm/zk/variable_verifier.sol\":14635:14717  y1_pos = negate(addmod(FRACTION_3_82_FP,  addmod(b_3, mulmod(n3ab, x0, P), P), P)) */\n      swap4\n      pop\n        /* \"Evm/zk/variable_verifier.sol\":14346:14729  {... */\n      pop\n      pop\n      pop\n        /* \"Evm/zk/variable_verifier.sol\":14841:14850  bool hint */\n      0x00\n        /* \"Evm/zk/variable_verifier.sol\":14876:14885  uint256 d */\n      0x00\n        /* \"Evm/zk/variable_verifier.sol\":14888:14960  sqrt_Fp(addmod(mulmod(y0_pos, y0_pos, P), mulmod(y1_pos, y1_pos, P), P)) */\n      tag_183\n        /* \"Evm/zk/variable_verifier.sol\":1423:1489  0x30644e72e131a029b85045b68181585d97816a916871ca8d3c208c16d87cfd47 */\n      0x30644e72e131a029b85045b68181585d97816a916871ca8d3c208c16d87cfd47\n        /* \"Evm/zk/variable_verifier.sol\":14896:14959  addmod(mulmod(y0_pos, y0_pos, P), mulmod(y1_pos, y1_pos, P), P) */\n      dup1\n      tag_184\n      jumpi\n      tag_185\n      tag_138\n      jump\t// in\n    tag_185:\n    tag_184:\n        /* \"Evm/zk/variable_verifier.sol\":1423:1489  0x30644e72e131a029b85045b68181585d97816a916871ca8d3c208c16d87cfd47 */\n      0x30644e72e131a029b85045b68181585d97816a916871ca8d3c208c16d87cfd47\n        /* \"Evm/zk/variable_verifier.sol\":14930:14955  mulmod(y1_pos, y1_pos, P) */\n      dup1\n      tag_186\n      jumpi\n      tag_187\n      tag_138\n      jump\t// in\n    tag_187:\n    tag_186:\n        /* \"Evm/zk/variable_verifier.sol\":14945:14951  y1_pos */\n      dup6\n        /* \"Evm/zk/variable_verifier.sol\":14937:14943  y1_pos */\n      dup7\n        /* \"Evm/zk/variable_verifier.sol\":14930:14955  mulmod(y1_pos, y1_pos, P) */\n      mulmod\n        /* \"Evm/zk/variable_verifier.sol\":1423:1489  0x30644e72e131a029b85045b68181585d97816a916871ca8d3c208c16d87cfd47 */\n      0x30644e72e131a029b85045b68181585d97816a916871ca8d3c208c16d87cfd47\n        /* \"Evm/zk/variable_verifier.sol\":14903:14928  mulmod(y0_pos, y0_pos, P) */\n      dup1\n      tag_188\n      jumpi\n      tag_189\n      tag_138\n      jump\t// in\n    tag_189:\n    tag_188:\n        /* \"Evm/zk/variable_verifier.sol\":14918:14924  y0_pos */\n      dup8\n        /* \"Evm/zk/variable_verifier.sol\":14910:14916  y0_pos */\n      dup9\n        /* \"Evm/zk/variable_verifier.sol\":14903:14928  mulmod(y0_pos, y0_pos, P) */\n      mulmod\n        /* \"Evm/zk/variable_verifier.sol\":14896:14959  addmod(mulmod(y0_pos, y0_pos, P), mulmod(y1_pos, y1_pos, P), P) */\n      addmod\n        /* \"Evm/zk/variable_verifier.sol\":14888:14895  sqrt_Fp */\n      tag_143\n        /* \"Evm/zk/variable_verifier.sol\":14888:14960  sqrt_Fp(addmod(mulmod(y0_pos, y0_pos, P), mulmod(y1_pos, y1_pos, P), P)) */\n      jump\t// in\n    tag_183:\n        /* \"Evm/zk/variable_verifier.sol\":14876:14960  uint256 d = sqrt_Fp(addmod(mulmod(y0_pos, y0_pos, P), mulmod(y1_pos, y1_pos, P), P)) */\n      swap1\n      pop\n        /* \"Evm/zk/variable_verifier.sol\":14983:15044  isSquare_Fp(mulmod(addmod(y0_pos, d, P), FRACTION_1_2_FP, P)) */\n      tag_190\n        /* \"Evm/zk/variable_verifier.sol\":1423:1489  0x30644e72e131a029b85045b68181585d97816a916871ca8d3c208c16d87cfd47 */\n      0x30644e72e131a029b85045b68181585d97816a916871ca8d3c208c16d87cfd47\n        /* \"Evm/zk/variable_verifier.sol\":14995:15043  mulmod(addmod(y0_pos, d, P), FRACTION_1_2_FP, P) */\n      dup1\n      tag_191\n      jumpi\n      tag_192\n      tag_138\n      jump\t// in\n    tag_192:\n    tag_191:\n        /* \"Evm/zk/variable_verifier.sol\":2144:2210  0x183227397098d014dc2822db40c0ac2ecbc0b548b438e5469e10460b6c3e7ea4 */\n      0x183227397098d014dc2822db40c0ac2ecbc0b548b438e5469e10460b6c3e7ea4\n        /* \"Evm/zk/variable_verifier.sol\":1423:1489  0x30644e72e131a029b85045b68181585d97816a916871ca8d3c208c16d87cfd47 */\n      0x30644e72e131a029b85045b68181585d97816a916871ca8d3c208c16d87cfd47\n        /* \"Evm/zk/variable_verifier.sol\":15002:15022  addmod(y0_pos, d, P) */\n      dup1\n      tag_193\n      jumpi\n      tag_194\n      tag_138\n      jump\t// in\n    tag_194:\n    tag_193:\n        /* \"Evm/zk/variable_verifier.sol\":15017:15018  d */\n      dup5\n        /* \"Evm/zk/variable_verifier.sol\":15009:15015  y0_pos */\n      dup9\n        /* \"Evm/zk/variable_verifier.sol\":15002:15022  addmod(y0_pos, d, P) */\n      addmod\n        /* \"Evm/zk/variable_verifier.sol\":14995:15043  mulmod(addmod(y0_pos, d, P), FRACTION_1_2_FP, P) */\n      mulmod\n        /* \"Evm/zk/variable_verifier.sol\":14983:14994  isSquare_Fp */\n      tag_195\n        /* \"Evm/zk/variable_verifier.sol\":14983:15044  isSquare_Fp(mulmod(addmod(y0_pos, d, P), FRACTION_1_2_FP, P)) */\n      jump\t// in\n    tag_190:\n        /* \"Evm/zk/variable_verifier.sol\":14982:15044  !isSquare_Fp(mulmod(addmod(y0_pos, d, P), FRACTION_1_2_FP, P)) */\n      iszero\n        /* \"Evm/zk/variable_verifier.sol\":14975:15044  hint = !isSquare_Fp(mulmod(addmod(y0_pos, d, P), FRACTION_1_2_FP, P)) */\n      swap2\n      pop\n        /* \"Evm/zk/variable_verifier.sol\":14861:15056  {... */\n      pop\n        /* \"Evm/zk/variable_verifier.sol\":15109:15139  sqrt_Fp2(y0_pos, y1_pos, hint) */\n      tag_196\n        /* \"Evm/zk/variable_verifier.sol\":15118:15124  y0_pos */\n      dup4\n        /* \"Evm/zk/variable_verifier.sol\":15126:15132  y1_pos */\n      dup4\n        /* \"Evm/zk/variable_verifier.sol\":15134:15138  hint */\n      dup4\n        /* \"Evm/zk/variable_verifier.sol\":15109:15117  sqrt_Fp2 */\n      tag_197\n        /* \"Evm/zk/variable_verifier.sol\":15109:15139  sqrt_Fp2(y0_pos, y1_pos, hint) */\n      jump\t// in\n    tag_196:\n        /* \"Evm/zk/variable_verifier.sol\":15090:15139  (y0_pos, y1_pos) = sqrt_Fp2(y0_pos, y1_pos, hint) */\n      dup1\n      swap4\n      pop\n      dup2\n      swap5\n      pop\n      pop\n      pop\n        /* \"Evm/zk/variable_verifier.sol\":15160:15166  y0_pos */\n      dup3\n        /* \"Evm/zk/variable_verifier.sol\":15154:15156  y0 */\n      dup8\n        /* \"Evm/zk/variable_verifier.sol\":15154:15166  y0 == y0_pos */\n      eq\n        /* \"Evm/zk/variable_verifier.sol\":15154:15182  y0 == y0_pos && y1 == y1_pos */\n      dup1\n      iszero\n      tag_198\n      jumpi\n      pop\n        /* \"Evm/zk/variable_verifier.sol\":15176:15182  y1_pos */\n      dup2\n        /* \"Evm/zk/variable_verifier.sol\":15170:15172  y1 */\n      dup7\n        /* \"Evm/zk/variable_verifier.sol\":15170:15182  y1 == y1_pos */\n      eq\n        /* \"Evm/zk/variable_verifier.sol\":15154:15182  y0 == y0_pos && y1 == y1_pos */\n    tag_198:\n        /* \"Evm/zk/variable_verifier.sol\":15150:15503  if (y0 == y0_pos && y1 == y1_pos) {... */\n      iszero\n      tag_199\n      jumpi\n        /* \"Evm/zk/variable_verifier.sol\":15234:15235  0 */\n      0x00\n        /* \"Evm/zk/variable_verifier.sol\":15217:15221  hint */\n      dup2\n        /* \"Evm/zk/variable_verifier.sol\":15217:15230  hint ? 2  : 0 */\n      tag_200\n      jumpi\n        /* \"Evm/zk/variable_verifier.sol\":15229:15230  0 */\n      0x00\n        /* \"Evm/zk/variable_verifier.sol\":15217:15230  hint ? 2  : 0 */\n      jump(tag_201)\n    tag_200:\n        /* \"Evm/zk/variable_verifier.sol\":15224:15225  2 */\n      0x02\n        /* \"Evm/zk/variable_verifier.sol\":15217:15230  hint ? 2  : 0 */\n    tag_201:\n        /* \"Evm/zk/variable_verifier.sol\":15204:15231  (x0 << 2) | (hint ? 2  : 0) */\n      0xff\n      and\n        /* \"Evm/zk/variable_verifier.sol\":15211:15212  2 */\n      0x02\n        /* \"Evm/zk/variable_verifier.sol\":15205:15207  x0 */\n      dup12\n        /* \"Evm/zk/variable_verifier.sol\":15205:15212  x0 << 2 */\n      swap1\n      shl\n        /* \"Evm/zk/variable_verifier.sol\":15204:15231  (x0 << 2) | (hint ? 2  : 0) */\n      or\n        /* \"Evm/zk/variable_verifier.sol\":15204:15235  (x0 << 2) | (hint ? 2  : 0) | 0 */\n      or\n        /* \"Evm/zk/variable_verifier.sol\":15199:15235  c0 = (x0 << 2) | (hint ? 2  : 0) | 0 */\n      swap5\n      pop\n        /* \"Evm/zk/variable_verifier.sol\":15255:15257  x1 */\n      dup8\n        /* \"Evm/zk/variable_verifier.sol\":15250:15257  c1 = x1 */\n      swap4\n      pop\n        /* \"Evm/zk/variable_verifier.sol\":15150:15503  if (y0 == y0_pos && y1 == y1_pos) {... */\n      jump(tag_202)\n    tag_199:\n        /* \"Evm/zk/variable_verifier.sol\":15285:15299  negate(y0_pos) */\n      tag_203\n        /* \"Evm/zk/variable_verifier.sol\":15292:15298  y0_pos */\n      dup4\n        /* \"Evm/zk/variable_verifier.sol\":15285:15291  negate */\n      tag_147\n        /* \"Evm/zk/variable_verifier.sol\":15285:15299  negate(y0_pos) */\n      jump\t// in\n    tag_203:\n        /* \"Evm/zk/variable_verifier.sol\":15279:15281  y0 */\n      dup8\n        /* \"Evm/zk/variable_verifier.sol\":15279:15299  y0 == negate(y0_pos) */\n      eq\n        /* \"Evm/zk/variable_verifier.sol\":15279:15323  y0 == negate(y0_pos) && y1 == negate(y1_pos) */\n      dup1\n      iszero\n      tag_204\n      jumpi\n      pop\n        /* \"Evm/zk/variable_verifier.sol\":15309:15323  negate(y1_pos) */\n      tag_205\n        /* \"Evm/zk/variable_verifier.sol\":15316:15322  y1_pos */\n      dup3\n        /* \"Evm/zk/variable_verifier.sol\":15309:15315  negate */\n      tag_147\n        /* \"Evm/zk/variable_verifier.sol\":15309:15323  negate(y1_pos) */\n      jump\t// in\n    tag_205:\n        /* \"Evm/zk/variable_verifier.sol\":15303:15305  y1 */\n      dup7\n        /* \"Evm/zk/variable_verifier.sol\":15303:15323  y1 == negate(y1_pos) */\n      eq\n        /* \"Evm/zk/variable_verifier.sol\":15279:15323  y0 == negate(y0_pos) && y1 == negate(y1_pos) */\n    tag_204:\n        /* \"Evm/zk/variable_verifier.sol\":15275:15503  if (y0 == negate(y0_pos) && y1 == negate(y1_pos)) {... */\n      iszero\n      tag_206\n      jumpi\n        /* \"Evm/zk/variable_verifier.sol\":15375:15376  1 */\n      0x01\n        /* \"Evm/zk/variable_verifier.sol\":15358:15362  hint */\n      dup2\n        /* \"Evm/zk/variable_verifier.sol\":15358:15371  hint ? 2  : 0 */\n      tag_207\n      jumpi\n        /* \"Evm/zk/variable_verifier.sol\":15370:15371  0 */\n      0x00\n        /* \"Evm/zk/variable_verifier.sol\":15358:15371  hint ? 2  : 0 */\n      jump(tag_208)\n    tag_207:\n        /* \"Evm/zk/variable_verifier.sol\":15365:15366  2 */\n      0x02\n        /* \"Evm/zk/variable_verifier.sol\":15358:15371  hint ? 2  : 0 */\n    tag_208:\n        /* \"Evm/zk/variable_verifier.sol\":15345:15372  (x0 << 2) | (hint ? 2  : 0) */\n      0xff\n      and\n        /* \"Evm/zk/variable_verifier.sol\":15352:15353  2 */\n      0x02\n        /* \"Evm/zk/variable_verifier.sol\":15346:15348  x0 */\n      dup12\n        /* \"Evm/zk/variable_verifier.sol\":15346:15353  x0 << 2 */\n      swap1\n      shl\n        /* \"Evm/zk/variable_verifier.sol\":15345:15372  (x0 << 2) | (hint ? 2  : 0) */\n      or\n        /* \"Evm/zk/variable_verifier.sol\":15345:15376  (x0 << 2) | (hint ? 2  : 0) | 1 */\n      or\n        /* \"Evm/zk/variable_verifier.sol\":15340:15376  c0 = (x0 << 2) | (hint ? 2  : 0) | 1 */\n      swap5\n      pop\n        /* \"Evm/zk/variable_verifier.sol\":15396:15398  x1 */\n      dup8\n        /* \"Evm/zk/variable_verifier.sol\":15391:15398  c1 = x1 */\n      swap4\n      pop\n        /* \"Evm/zk/variable_verifier.sol\":15275:15503  if (y0 == negate(y0_pos) && y1 == negate(y1_pos)) {... */\n      jump(tag_209)\n    tag_206:\n        /* \"Evm/zk/variable_verifier.sol\":15477:15491  ProofInvalid() */\n      mload(0x40)\n      0x7fcdd1f400000000000000000000000000000000000000000000000000000000\n      dup2\n      mstore\n      0x04\n      add\n      mload(0x40)\n      dup1\n      swap2\n      sub\n      swap1\n      revert\n        /* \"Evm/zk/variable_verifier.sol\":15275:15503  if (y0 == negate(y0_pos) && y1 == negate(y1_pos)) {... */\n    tag_209:\n        /* \"Evm/zk/variable_verifier.sol\":15150:15503  if (y0 == y0_pos && y1 == y1_pos) {... */\n    tag_202:\n        /* \"Evm/zk/variable_verifier.sol\":13928:15510  {... */\n      pop\n      pop\n      pop\n        /* \"Evm/zk/variable_verifier.sol\":13807:15510  function compress_g2(uint256 x0, uint256 x1, uint256 y0, uint256 y1)... */\n    tag_150:\n      swap5\n      pop\n      swap5\n      swap3\n      pop\n      pop\n      pop\n      jump\t// out\n        /* \"Evm/zk/variable_verifier.sol\":12128:13025  function decompress_g1(uint256 c) internal view returns (uint256 x, uint256 y) {... */\n    tag_63:\n        /* \"Evm/zk/variable_verifier.sol\":12185:12194  uint256 x */\n      0x00\n        /* \"Evm/zk/variable_verifier.sol\":12196:12205  uint256 y */\n      0x00\n        /* \"Evm/zk/variable_verifier.sol\":12375:12376  0 */\n      0x00\n        /* \"Evm/zk/variable_verifier.sol\":12370:12371  c */\n      dup4\n        /* \"Evm/zk/variable_verifier.sol\":12370:12376  c == 0 */\n      sub\n        /* \"Evm/zk/variable_verifier.sol\":12366:12485  if (c == 0) {... */\n      tag_211\n      jumpi\n        /* \"Evm/zk/variable_verifier.sol\":12468:12469  0 */\n      0x00\n        /* \"Evm/zk/variable_verifier.sol\":12471:12472  0 */\n      0x00\n        /* \"Evm/zk/variable_verifier.sol\":12460:12473  return (0, 0) */\n      swap2\n      pop\n      swap2\n      pop\n      jump(tag_210)\n        /* \"Evm/zk/variable_verifier.sol\":12366:12485  if (c == 0) {... */\n    tag_211:\n        /* \"Evm/zk/variable_verifier.sol\":12495:12512  bool negate_point */\n      0x00\n        /* \"Evm/zk/variable_verifier.sol\":12524:12525  1 */\n      0x01\n        /* \"Evm/zk/variable_verifier.sol\":12519:12520  1 */\n      dup1\n        /* \"Evm/zk/variable_verifier.sol\":12515:12516  c */\n      dup6\n        /* \"Evm/zk/variable_verifier.sol\":12515:12520  c & 1 */\n      and\n        /* \"Evm/zk/variable_verifier.sol\":12515:12525  c & 1 == 1 */\n      eq\n        /* \"Evm/zk/variable_verifier.sol\":12495:12525  bool negate_point = c & 1 == 1 */\n      swap1\n      pop\n        /* \"Evm/zk/variable_verifier.sol\":12545:12546  1 */\n      0x01\n        /* \"Evm/zk/variable_verifier.sol\":12540:12541  c */\n      dup5\n        /* \"Evm/zk/variable_verifier.sol\":12540:12546  c >> 1 */\n      swap1\n      shr\n        /* \"Evm/zk/variable_verifier.sol\":12536:12546  x = c >> 1 */\n      swap3\n      pop\n        /* \"Evm/zk/variable_verifier.sol\":1423:1489  0x30644e72e131a029b85045b68181585d97816a916871ca8d3c208c16d87cfd47 */\n      0x30644e72e131a029b85045b68181585d97816a916871ca8d3c208c16d87cfd47\n        /* \"Evm/zk/variable_verifier.sol\":12561:12562  x */\n      dup4\n        /* \"Evm/zk/variable_verifier.sol\":12561:12567  x >= P */\n      lt\n        /* \"Evm/zk/variable_verifier.sol\":12557:12663  if (x >= P) {... */\n      tag_212\n      jumpi\n        /* \"Evm/zk/variable_verifier.sol\":12637:12651  ProofInvalid() */\n      mload(0x40)\n      0x7fcdd1f400000000000000000000000000000000000000000000000000000000\n      dup2\n      mstore\n      0x04\n      add\n      mload(0x40)\n      dup1\n      swap2\n      sub\n      swap1\n      revert\n        /* \"Evm/zk/variable_verifier.sol\":12557:12663  if (x >= P) {... */\n    tag_212:\n        /* \"Evm/zk/variable_verifier.sol\":12897:12949  sqrt_Fp(addmod(mulmod(mulmod(x, x, P), x, P), 3, P)) */\n      tag_213\n        /* \"Evm/zk/variable_verifier.sol\":1423:1489  0x30644e72e131a029b85045b68181585d97816a916871ca8d3c208c16d87cfd47 */\n      0x30644e72e131a029b85045b68181585d97816a916871ca8d3c208c16d87cfd47\n        /* \"Evm/zk/variable_verifier.sol\":12905:12948  addmod(mulmod(mulmod(x, x, P), x, P), 3, P) */\n      dup1\n      tag_214\n      jumpi\n      tag_215\n      tag_138\n      jump\t// in\n    tag_215:\n    tag_214:\n        /* \"Evm/zk/variable_verifier.sol\":12943:12944  3 */\n      0x03\n        /* \"Evm/zk/variable_verifier.sol\":1423:1489  0x30644e72e131a029b85045b68181585d97816a916871ca8d3c208c16d87cfd47 */\n      0x30644e72e131a029b85045b68181585d97816a916871ca8d3c208c16d87cfd47\n        /* \"Evm/zk/variable_verifier.sol\":12912:12941  mulmod(mulmod(x, x, P), x, P) */\n      dup1\n      tag_216\n      jumpi\n      tag_217\n      tag_138\n      jump\t// in\n    tag_217:\n    tag_216:\n        /* \"Evm/zk/variable_verifier.sol\":12936:12937  x */\n      dup7\n        /* \"Evm/zk/variable_verifier.sol\":1423:1489  0x30644e72e131a029b85045b68181585d97816a916871ca8d3c208c16d87cfd47 */\n      0x30644e72e131a029b85045b68181585d97816a916871ca8d3c208c16d87cfd47\n        /* \"Evm/zk/variable_verifier.sol\":12919:12934  mulmod(x, x, P) */\n      dup1\n      tag_218\n      jumpi\n      tag_219\n      tag_138\n      jump\t// in\n    tag_219:\n    tag_218:\n        /* \"Evm/zk/variable_verifier.sol\":12929:12930  x */\n      dup9\n        /* \"Evm/zk/variable_verifier.sol\":12926:12927  x */\n      dup10\n        /* \"Evm/zk/variable_verifier.sol\":12919:12934  mulmod(x, x, P) */\n      mulmod\n        /* \"Evm/zk/variable_verifier.sol\":12912:12941  mulmod(mulmod(x, x, P), x, P) */\n      mulmod\n        /* \"Evm/zk/variable_verifier.sol\":12905:12948  addmod(mulmod(mulmod(x, x, P), x, P), 3, P) */\n      addmod\n        /* \"Evm/zk/variable_verifier.sol\":12897:12904  sqrt_Fp */\n      tag_143\n        /* \"Evm/zk/variable_verifier.sol\":12897:12949  sqrt_Fp(addmod(mulmod(mulmod(x, x, P), x, P), 3, P)) */\n      jump\t// in\n    tag_213:\n        /* \"Evm/zk/variable_verifier.sol\":12893:12949  y = sqrt_Fp(addmod(mulmod(mulmod(x, x, P), x, P), 3, P)) */\n      swap2\n      pop\n        /* \"Evm/zk/variable_verifier.sol\":12964:12976  negate_point */\n      dup1\n        /* \"Evm/zk/variable_verifier.sol\":12960:13018  if (negate_point) {... */\n      iszero\n      tag_220\n      jumpi\n        /* \"Evm/zk/variable_verifier.sol\":12997:13006  negate(y) */\n      tag_221\n        /* \"Evm/zk/variable_verifier.sol\":13004:13005  y */\n      dup3\n        /* \"Evm/zk/variable_verifier.sol\":12997:13003  negate */\n      tag_147\n        /* \"Evm/zk/variable_verifier.sol\":12997:13006  negate(y) */\n      jump\t// in\n    tag_221:\n        /* \"Evm/zk/variable_verifier.sol\":12993:13006  y = negate(y) */\n      swap2\n      pop\n        /* \"Evm/zk/variable_verifier.sol\":12960:13018  if (negate_point) {... */\n    tag_220:\n        /* \"Evm/zk/variable_verifier.sol\":12207:13025  {... */\n      pop\n        /* \"Evm/zk/variable_verifier.sol\":12128:13025  function decompress_g1(uint256 c) internal view returns (uint256 x, uint256 y) {... */\n    tag_210:\n      swap2\n      pop\n      swap2\n      jump\t// out\n        /* \"Evm/zk/variable_verifier.sol\":16261:17672  function decompress_g2(uint256 c0, uint256 c1)... */\n    tag_69:\n        /* \"Evm/zk/variable_verifier.sol\":16336:16346  uint256 x0 */\n      0x00\n        /* \"Evm/zk/variable_verifier.sol\":16348:16358  uint256 x1 */\n      0x00\n        /* \"Evm/zk/variable_verifier.sol\":16360:16370  uint256 y0 */\n      0x00\n        /* \"Evm/zk/variable_verifier.sol\":16372:16382  uint256 y1 */\n      0x00\n        /* \"Evm/zk/variable_verifier.sol\":16562:16563  0 */\n      0x00\n        /* \"Evm/zk/variable_verifier.sol\":16556:16558  c0 */\n      dup7\n        /* \"Evm/zk/variable_verifier.sol\":16556:16563  c0 == 0 */\n      eq\n        /* \"Evm/zk/variable_verifier.sol\":16556:16574  c0 == 0 && c1 == 0 */\n      dup1\n      iszero\n      tag_223\n      jumpi\n      pop\n        /* \"Evm/zk/variable_verifier.sol\":16573:16574  0 */\n      0x00\n        /* \"Evm/zk/variable_verifier.sol\":16567:16569  c1 */\n      dup6\n        /* \"Evm/zk/variable_verifier.sol\":16567:16574  c1 == 0 */\n      eq\n        /* \"Evm/zk/variable_verifier.sol\":16556:16574  c0 == 0 && c1 == 0 */\n    tag_223:\n        /* \"Evm/zk/variable_verifier.sol\":16552:16678  if (c0 == 0 && c1 == 0) {... */\n      iszero\n      tag_224\n      jumpi\n        /* \"Evm/zk/variable_verifier.sol\":16655:16656  0 */\n      0x00\n        /* \"Evm/zk/variable_verifier.sol\":16658:16659  0 */\n      0x00\n        /* \"Evm/zk/variable_verifier.sol\":16661:16662  0 */\n      0x00\n        /* \"Evm/zk/variable_verifier.sol\":16664:16665  0 */\n      0x00\n        /* \"Evm/zk/variable_verifier.sol\":16647:16666  return (0, 0, 0, 0) */\n      swap4\n      pop\n      swap4\n      pop\n      swap4\n      pop\n      swap4\n      pop\n      jump(tag_222)\n        /* \"Evm/zk/variable_verifier.sol\":16552:16678  if (c0 == 0 && c1 == 0) {... */\n    tag_224:\n        /* \"Evm/zk/variable_verifier.sol\":16688:16705  bool negate_point */\n      0x00\n        /* \"Evm/zk/variable_verifier.sol\":16718:16719  1 */\n      0x01\n        /* \"Evm/zk/variable_verifier.sol\":16713:16714  1 */\n      dup1\n        /* \"Evm/zk/variable_verifier.sol\":16708:16710  c0 */\n      dup9\n        /* \"Evm/zk/variable_verifier.sol\":16708:16714  c0 & 1 */\n      and\n        /* \"Evm/zk/variable_verifier.sol\":16708:16719  c0 & 1 == 1 */\n      eq\n        /* \"Evm/zk/variable_verifier.sol\":16688:16719  bool negate_point = c0 & 1 == 1 */\n      swap1\n      pop\n        /* \"Evm/zk/variable_verifier.sol\":16730:16739  bool hint */\n      0x00\n        /* \"Evm/zk/variable_verifier.sol\":16752:16753  2 */\n      0x02\n        /* \"Evm/zk/variable_verifier.sol\":16747:16748  2 */\n      dup1\n        /* \"Evm/zk/variable_verifier.sol\":16742:16744  c0 */\n      dup10\n        /* \"Evm/zk/variable_verifier.sol\":16742:16748  c0 & 2 */\n      and\n        /* \"Evm/zk/variable_verifier.sol\":16742:16753  c0 & 2 == 2 */\n      eq\n        /* \"Evm/zk/variable_verifier.sol\":16730:16753  bool hint = c0 & 2 == 2 */\n      swap1\n      pop\n        /* \"Evm/zk/variable_verifier.sol\":16775:16776  2 */\n      0x02\n        /* \"Evm/zk/variable_verifier.sol\":16769:16771  c0 */\n      dup9\n        /* \"Evm/zk/variable_verifier.sol\":16769:16776  c0 >> 2 */\n      swap1\n      shr\n        /* \"Evm/zk/variable_verifier.sol\":16764:16776  x0 = c0 >> 2 */\n      swap6\n      pop\n        /* \"Evm/zk/variable_verifier.sol\":16792:16794  c1 */\n      dup7\n        /* \"Evm/zk/variable_verifier.sol\":16787:16794  x1 = c1 */\n      swap5\n      pop\n        /* \"Evm/zk/variable_verifier.sol\":1423:1489  0x30644e72e131a029b85045b68181585d97816a916871ca8d3c208c16d87cfd47 */\n      0x30644e72e131a029b85045b68181585d97816a916871ca8d3c208c16d87cfd47\n        /* \"Evm/zk/variable_verifier.sol\":16809:16811  x0 */\n      dup7\n        /* \"Evm/zk/variable_verifier.sol\":16809:16816  x0 >= P */\n      lt\n      iszero\n        /* \"Evm/zk/variable_verifier.sol\":16809:16827  x0 >= P || x1 >= P */\n      dup1\n      tag_225\n      jumpi\n      pop\n        /* \"Evm/zk/variable_verifier.sol\":1423:1489  0x30644e72e131a029b85045b68181585d97816a916871ca8d3c208c16d87cfd47 */\n      0x30644e72e131a029b85045b68181585d97816a916871ca8d3c208c16d87cfd47\n        /* \"Evm/zk/variable_verifier.sol\":16820:16822  x1 */\n      dup6\n        /* \"Evm/zk/variable_verifier.sol\":16820:16827  x1 >= P */\n      lt\n      iszero\n        /* \"Evm/zk/variable_verifier.sol\":16809:16827  x0 >= P || x1 >= P */\n    tag_225:\n        /* \"Evm/zk/variable_verifier.sol\":16805:16931  if (x0 >= P || x1 >= P) {... */\n      iszero\n      tag_226\n      jumpi\n        /* \"Evm/zk/variable_verifier.sol\":16905:16919  ProofInvalid() */\n      mload(0x40)\n      0x7fcdd1f400000000000000000000000000000000000000000000000000000000\n      dup2\n      mstore\n      0x04\n      add\n      mload(0x40)\n      dup1\n      swap2\n      sub\n      swap1\n      revert\n        /* \"Evm/zk/variable_verifier.sol\":16805:16931  if (x0 >= P || x1 >= P) {... */\n    tag_226:\n        /* \"Evm/zk/variable_verifier.sol\":16943:16955  uint256 n3ab */\n      0x00\n        /* \"Evm/zk/variable_verifier.sol\":1423:1489  0x30644e72e131a029b85045b68181585d97816a916871ca8d3c208c16d87cfd47 */\n      0x30644e72e131a029b85045b68181585d97816a916871ca8d3c208c16d87cfd47\n        /* \"Evm/zk/variable_verifier.sol\":16958:16991  mulmod(mulmod(x0, x1, P), P-3, P) */\n      dup1\n      tag_227\n      jumpi\n      tag_228\n      tag_138\n      jump\t// in\n    tag_228:\n    tag_227:\n        /* \"Evm/zk/variable_verifier.sol\":16986:16987  3 */\n      0x03\n        /* \"Evm/zk/variable_verifier.sol\":1423:1489  0x30644e72e131a029b85045b68181585d97816a916871ca8d3c208c16d87cfd47 */\n      0x30644e72e131a029b85045b68181585d97816a916871ca8d3c208c16d87cfd47\n        /* \"Evm/zk/variable_verifier.sol\":16984:16987  P-3 */\n      tag_229\n      swap2\n      swap1\n      tag_159\n      jump\t// in\n    tag_229:\n        /* \"Evm/zk/variable_verifier.sol\":1423:1489  0x30644e72e131a029b85045b68181585d97816a916871ca8d3c208c16d87cfd47 */\n      0x30644e72e131a029b85045b68181585d97816a916871ca8d3c208c16d87cfd47\n        /* \"Evm/zk/variable_verifier.sol\":16965:16982  mulmod(x0, x1, P) */\n      dup1\n      tag_230\n      jumpi\n      tag_231\n      tag_138\n      jump\t// in\n    tag_231:\n    tag_230:\n        /* \"Evm/zk/variable_verifier.sol\":16976:16978  x1 */\n      dup9\n        /* \"Evm/zk/variable_verifier.sol\":16972:16974  x0 */\n      dup11\n        /* \"Evm/zk/variable_verifier.sol\":16965:16982  mulmod(x0, x1, P) */\n      mulmod\n        /* \"Evm/zk/variable_verifier.sol\":16958:16991  mulmod(mulmod(x0, x1, P), P-3, P) */\n      mulmod\n        /* \"Evm/zk/variable_verifier.sol\":16943:16991  uint256 n3ab = mulmod(mulmod(x0, x1, P), P-3, P) */\n      swap1\n      pop\n        /* \"Evm/zk/variable_verifier.sol\":17002:17013  uint256 a_3 */\n      0x00\n        /* \"Evm/zk/variable_verifier.sol\":1423:1489  0x30644e72e131a029b85045b68181585d97816a916871ca8d3c208c16d87cfd47 */\n      0x30644e72e131a029b85045b68181585d97816a916871ca8d3c208c16d87cfd47\n        /* \"Evm/zk/variable_verifier.sol\":17016:17048  mulmod(mulmod(x0, x0, P), x0, P) */\n      dup1\n      tag_232\n      jumpi\n      tag_233\n      tag_138\n      jump\t// in\n    tag_233:\n    tag_232:\n        /* \"Evm/zk/variable_verifier.sol\":17042:17044  x0 */\n      dup9\n        /* \"Evm/zk/variable_verifier.sol\":1423:1489  0x30644e72e131a029b85045b68181585d97816a916871ca8d3c208c16d87cfd47 */\n      0x30644e72e131a029b85045b68181585d97816a916871ca8d3c208c16d87cfd47\n        /* \"Evm/zk/variable_verifier.sol\":17023:17040  mulmod(x0, x0, P) */\n      dup1\n      tag_234\n      jumpi\n      tag_235\n      tag_138\n      jump\t// in\n    tag_235:\n    tag_234:\n        /* \"Evm/zk/variable_verifier.sol\":17034:17036  x0 */\n      dup11\n        /* \"Evm/zk/variable_verifier.sol\":17030:17032  x0 */\n      dup12\n        /* \"Evm/zk/variable_verifier.sol\":17023:17040  mulmod(x0, x0, P) */\n      mulmod\n        /* \"Evm/zk/variable_verifier.sol\":17016:17048  mulmod(mulmod(x0, x0, P), x0, P) */\n      mulmod\n        /* \"Evm/zk/variable_verifier.sol\":17002:17048  uint256 a_3 = mulmod(mulmod(x0, x0, P), x0, P) */\n      swap1\n      pop\n        /* \"Evm/zk/variable_verifier.sol\":17059:17070  uint256 b_3 */\n      0x00\n        /* \"Evm/zk/variable_verifier.sol\":1423:1489  0x30644e72e131a029b85045b68181585d97816a916871ca8d3c208c16d87cfd47 */\n      0x30644e72e131a029b85045b68181585d97816a916871ca8d3c208c16d87cfd47\n        /* \"Evm/zk/variable_verifier.sol\":17073:17105  mulmod(mulmod(x1, x1, P), x1, P) */\n      dup1\n      tag_236\n      jumpi\n      tag_237\n      tag_138\n      jump\t// in\n    tag_237:\n    tag_236:\n        /* \"Evm/zk/variable_verifier.sol\":17099:17101  x1 */\n      dup9\n        /* \"Evm/zk/variable_verifier.sol\":1423:1489  0x30644e72e131a029b85045b68181585d97816a916871ca8d3c208c16d87cfd47 */\n      0x30644e72e131a029b85045b68181585d97816a916871ca8d3c208c16d87cfd47\n        /* \"Evm/zk/variable_verifier.sol\":17080:17097  mulmod(x1, x1, P) */\n      dup1\n      tag_238\n      jumpi\n      tag_239\n      tag_138\n      jump\t// in\n    tag_239:\n    tag_238:\n        /* \"Evm/zk/variable_verifier.sol\":17091:17093  x1 */\n      dup11\n        /* \"Evm/zk/variable_verifier.sol\":17087:17089  x1 */\n      dup12\n        /* \"Evm/zk/variable_verifier.sol\":17080:17097  mulmod(x1, x1, P) */\n      mulmod\n        /* \"Evm/zk/variable_verifier.sol\":17073:17105  mulmod(mulmod(x1, x1, P), x1, P) */\n      mulmod\n        /* \"Evm/zk/variable_verifier.sol\":17059:17105  uint256 b_3 = mulmod(mulmod(x1, x1, P), x1, P) */\n      swap1\n      pop\n        /* \"Evm/zk/variable_verifier.sol\":1423:1489  0x30644e72e131a029b85045b68181585d97816a916871ca8d3c208c16d87cfd47 */\n      0x30644e72e131a029b85045b68181585d97816a916871ca8d3c208c16d87cfd47\n        /* \"Evm/zk/variable_verifier.sol\":17123:17188  addmod(FRACTION_27_82_FP, addmod(a_3, mulmod(n3ab, x1, P), P), P) */\n      dup1\n      tag_240\n      jumpi\n      tag_241\n      tag_138\n      jump\t// in\n    tag_241:\n    tag_240:\n        /* \"Evm/zk/variable_verifier.sol\":1423:1489  0x30644e72e131a029b85045b68181585d97816a916871ca8d3c208c16d87cfd47 */\n      0x30644e72e131a029b85045b68181585d97816a916871ca8d3c208c16d87cfd47\n        /* \"Evm/zk/variable_verifier.sol\":17149:17184  addmod(a_3, mulmod(n3ab, x1, P), P) */\n      dup1\n      tag_242\n      jumpi\n      tag_243\n      tag_138\n      jump\t// in\n    tag_243:\n    tag_242:\n        /* \"Evm/zk/variable_verifier.sol\":1423:1489  0x30644e72e131a029b85045b68181585d97816a916871ca8d3c208c16d87cfd47 */\n      0x30644e72e131a029b85045b68181585d97816a916871ca8d3c208c16d87cfd47\n        /* \"Evm/zk/variable_verifier.sol\":17161:17180  mulmod(n3ab, x1, P) */\n      dup1\n      tag_244\n      jumpi\n      tag_245\n      tag_138\n      jump\t// in\n    tag_245:\n    tag_244:\n        /* \"Evm/zk/variable_verifier.sol\":17174:17176  x1 */\n      dup11\n        /* \"Evm/zk/variable_verifier.sol\":17168:17172  n3ab */\n      dup7\n        /* \"Evm/zk/variable_verifier.sol\":17161:17180  mulmod(n3ab, x1, P) */\n      mulmod\n        /* \"Evm/zk/variable_verifier.sol\":17156:17159  a_3 */\n      dup5\n        /* \"Evm/zk/variable_verifier.sol\":17149:17184  addmod(a_3, mulmod(n3ab, x1, P), P) */\n      addmod\n        /* \"Evm/zk/variable_verifier.sol\":2254:2320  0x2b149d40ceb8aaae81be18991be06ac3b5b4c5e559dbefa33267e6dc24a138e5 */\n      0x2b149d40ceb8aaae81be18991be06ac3b5b4c5e559dbefa33267e6dc24a138e5\n        /* \"Evm/zk/variable_verifier.sol\":17123:17188  addmod(FRACTION_27_82_FP, addmod(a_3, mulmod(n3ab, x1, P), P), P) */\n      addmod\n        /* \"Evm/zk/variable_verifier.sol\":17118:17188  y0 = addmod(FRACTION_27_82_FP, addmod(a_3, mulmod(n3ab, x1, P), P), P) */\n      swap7\n      pop\n        /* \"Evm/zk/variable_verifier.sol\":17204:17277  negate(addmod(FRACTION_3_82_FP,  addmod(b_3, mulmod(n3ab, x0, P), P), P)) */\n      tag_246\n        /* \"Evm/zk/variable_verifier.sol\":1423:1489  0x30644e72e131a029b85045b68181585d97816a916871ca8d3c208c16d87cfd47 */\n      0x30644e72e131a029b85045b68181585d97816a916871ca8d3c208c16d87cfd47\n        /* \"Evm/zk/variable_verifier.sol\":17211:17276  addmod(FRACTION_3_82_FP,  addmod(b_3, mulmod(n3ab, x0, P), P), P) */\n      dup1\n      tag_247\n      jumpi\n      tag_248\n      tag_138\n      jump\t// in\n    tag_248:\n    tag_247:\n        /* \"Evm/zk/variable_verifier.sol\":1423:1489  0x30644e72e131a029b85045b68181585d97816a916871ca8d3c208c16d87cfd47 */\n      0x30644e72e131a029b85045b68181585d97816a916871ca8d3c208c16d87cfd47\n        /* \"Evm/zk/variable_verifier.sol\":17237:17272  addmod(b_3, mulmod(n3ab, x0, P), P) */\n      dup1\n      tag_249\n      jumpi\n      tag_250\n      tag_138\n      jump\t// in\n    tag_250:\n    tag_249:\n        /* \"Evm/zk/variable_verifier.sol\":1423:1489  0x30644e72e131a029b85045b68181585d97816a916871ca8d3c208c16d87cfd47 */\n      0x30644e72e131a029b85045b68181585d97816a916871ca8d3c208c16d87cfd47\n        /* \"Evm/zk/variable_verifier.sol\":17249:17268  mulmod(n3ab, x0, P) */\n      dup1\n      tag_251\n      jumpi\n      tag_252\n      tag_138\n      jump\t// in\n    tag_252:\n    tag_251:\n        /* \"Evm/zk/variable_verifier.sol\":17262:17264  x0 */\n      dup13\n        /* \"Evm/zk/variable_verifier.sol\":17256:17260  n3ab */\n      dup8\n        /* \"Evm/zk/variable_verifier.sol\":17249:17268  mulmod(n3ab, x0, P) */\n      mulmod\n        /* \"Evm/zk/variable_verifier.sol\":17244:17247  b_3 */\n      dup5\n        /* \"Evm/zk/variable_verifier.sol\":17237:17272  addmod(b_3, mulmod(n3ab, x0, P), P) */\n      addmod\n        /* \"Evm/zk/variable_verifier.sol\":2363:2429  0x2fcd3ac2a640a154eb23960892a85a68f031ca0c8344b23a577dcf1052b9e775 */\n      0x2fcd3ac2a640a154eb23960892a85a68f031ca0c8344b23a577dcf1052b9e775\n        /* \"Evm/zk/variable_verifier.sol\":17211:17276  addmod(FRACTION_3_82_FP,  addmod(b_3, mulmod(n3ab, x0, P), P), P) */\n      addmod\n        /* \"Evm/zk/variable_verifier.sol\":17204:17210  negate */\n      tag_147\n        /* \"Evm/zk/variable_verifier.sol\":17204:17277  negate(addmod(FRACTION_3_82_FP,  addmod(b_3, mulmod(n3ab, x0, P), P), P)) */\n      jump\t// in\n    tag_246:\n        /* \"Evm/zk/variable_verifier.sol\":17199:17277  y1 = negate(addmod(FRACTION_3_82_FP,  addmod(b_3, mulmod(n3ab, x0, P), P), P)) */\n      swap6\n      pop\n        /* \"Evm/zk/variable_verifier.sol\":17542:17564  sqrt_Fp2(y0, y1, hint) */\n      tag_253\n        /* \"Evm/zk/variable_verifier.sol\":17551:17553  y0 */\n      dup8\n        /* \"Evm/zk/variable_verifier.sol\":17555:17557  y1 */\n      dup8\n        /* \"Evm/zk/variable_verifier.sol\":17559:17563  hint */\n      dup7\n        /* \"Evm/zk/variable_verifier.sol\":17542:17550  sqrt_Fp2 */\n      tag_197\n        /* \"Evm/zk/variable_verifier.sol\":17542:17564  sqrt_Fp2(y0, y1, hint) */\n      jump\t// in\n    tag_253:\n        /* \"Evm/zk/variable_verifier.sol\":17531:17564  (y0, y1) = sqrt_Fp2(y0, y1, hint) */\n      dup1\n      swap8\n      pop\n      dup2\n      swap9\n      pop\n      pop\n      pop\n        /* \"Evm/zk/variable_verifier.sol\":17579:17591  negate_point */\n      dup5\n        /* \"Evm/zk/variable_verifier.sol\":17575:17665  if (negate_point) {... */\n      iszero\n      tag_254\n      jumpi\n        /* \"Evm/zk/variable_verifier.sol\":17613:17623  negate(y0) */\n      tag_255\n        /* \"Evm/zk/variable_verifier.sol\":17620:17622  y0 */\n      dup8\n        /* \"Evm/zk/variable_verifier.sol\":17613:17619  negate */\n      tag_147\n        /* \"Evm/zk/variable_verifier.sol\":17613:17623  negate(y0) */\n      jump\t// in\n    tag_255:\n        /* \"Evm/zk/variable_verifier.sol\":17608:17623  y0 = negate(y0) */\n      swap7\n      pop\n        /* \"Evm/zk/variable_verifier.sol\":17643:17653  negate(y1) */\n      tag_256\n        /* \"Evm/zk/variable_verifier.sol\":17650:17652  y1 */\n      dup7\n        /* \"Evm/zk/variable_verifier.sol\":17643:17649  negate */\n      tag_147\n        /* \"Evm/zk/variable_verifier.sol\":17643:17653  negate(y1) */\n      jump\t// in\n    tag_256:\n        /* \"Evm/zk/variable_verifier.sol\":17638:17653  y1 = negate(y1) */\n      swap6\n      pop\n        /* \"Evm/zk/variable_verifier.sol\":17575:17665  if (negate_point) {... */\n    tag_254:\n        /* \"Evm/zk/variable_verifier.sol\":16384:17672  {... */\n      pop\n      pop\n      pop\n      pop\n      pop\n        /* \"Evm/zk/variable_verifier.sol\":16261:17672  function decompress_g2(uint256 c0, uint256 c1)... */\n    tag_222:\n      swap3\n      swap6\n      swap2\n      swap5\n      pop\n      swap3\n      pop\n      jump\t// out\n        /* \"Evm/zk/variable_verifier.sol\":8472:8779  function sqrt_Fp(uint256 a) internal view returns (uint256 x) {... */\n    tag_143:\n        /* \"Evm/zk/variable_verifier.sol\":8523:8532  uint256 x */\n      0x00\n        /* \"Evm/zk/variable_verifier.sol\":8549:8568  exp(a, EXP_SQRT_FP) */\n      tag_258\n        /* \"Evm/zk/variable_verifier.sol\":8553:8554  a */\n      dup3\n        /* \"Evm/zk/variable_verifier.sol\":2641:2706  0xC19139CB84C680A6E14116DA060561765E05AA45A1C72A34F082305B61F3F52 */\n      0x0c19139cb84c680a6e14116da060561765e05aa45a1c72a34f082305b61f3f52\n        /* \"Evm/zk/variable_verifier.sol\":8549:8552  exp */\n      tag_259\n        /* \"Evm/zk/variable_verifier.sol\":8549:8568  exp(a, EXP_SQRT_FP) */\n      jump\t// in\n    tag_258:\n        /* \"Evm/zk/variable_verifier.sol\":8545:8568  x = exp(a, EXP_SQRT_FP) */\n      swap1\n      pop\n        /* \"Evm/zk/variable_verifier.sol\":8602:8603  a */\n      dup2\n        /* \"Evm/zk/variable_verifier.sol\":1423:1489  0x30644e72e131a029b85045b68181585d97816a916871ca8d3c208c16d87cfd47 */\n      0x30644e72e131a029b85045b68181585d97816a916871ca8d3c208c16d87cfd47\n        /* \"Evm/zk/variable_verifier.sol\":8583:8598  mulmod(x, x, P) */\n      dup1\n      tag_260\n      jumpi\n      tag_261\n      tag_138\n      jump\t// in\n    tag_261:\n    tag_260:\n        /* \"Evm/zk/variable_verifier.sol\":8593:8594  x */\n      dup3\n        /* \"Evm/zk/variable_verifier.sol\":8590:8591  x */\n      dup4\n        /* \"Evm/zk/variable_verifier.sol\":8583:8598  mulmod(x, x, P) */\n      mulmod\n        /* \"Evm/zk/variable_verifier.sol\":8583:8603  mulmod(x, x, P) != a */\n      eq\n        /* \"Evm/zk/variable_verifier.sol\":8579:8772  if (mulmod(x, x, P) != a) {... */\n      tag_262\n      jumpi\n        /* \"Evm/zk/variable_verifier.sol\":8746:8760  ProofInvalid() */\n      mload(0x40)\n      0x7fcdd1f400000000000000000000000000000000000000000000000000000000\n      dup2\n      mstore\n      0x04\n      add\n      mload(0x40)\n      dup1\n      swap2\n      sub\n      swap1\n      revert\n        /* \"Evm/zk/variable_verifier.sol\":8579:8772  if (mulmod(x, x, P) != a) {... */\n    tag_262:\n        /* \"Evm/zk/variable_verifier.sol\":8472:8779  function sqrt_Fp(uint256 a) internal view returns (uint256 x) {... */\n      swap2\n      swap1\n      pop\n      jump\t// out\n        /* \"Evm/zk/variable_verifier.sol\":6552:6725  function negate(uint256 a) internal pure returns (uint256 x) {... */\n    tag_147:\n        /* \"Evm/zk/variable_verifier.sol\":6602:6611  uint256 x */\n      0x00\n        /* \"Evm/zk/variable_verifier.sol\":1423:1489  0x30644e72e131a029b85045b68181585d97816a916871ca8d3c208c16d87cfd47 */\n      0x30644e72e131a029b85045b68181585d97816a916871ca8d3c208c16d87cfd47\n      dup1\n        /* \"Evm/zk/variable_verifier.sol\":6659:6660  a */\n      dup4\n        /* \"Evm/zk/variable_verifier.sol\":6659:6664  a % P */\n      dup2\n      tag_264\n      jumpi\n      tag_265\n      tag_138\n      jump\t// in\n    tag_265:\n    tag_264:\n      mod\n        /* \"Evm/zk/variable_verifier.sol\":1423:1489  0x30644e72e131a029b85045b68181585d97816a916871ca8d3c208c16d87cfd47 */\n      0x30644e72e131a029b85045b68181585d97816a916871ca8d3c208c16d87cfd47\n        /* \"Evm/zk/variable_verifier.sol\":6654:6665  P - (a % P) */\n      sub\n        /* \"Evm/zk/variable_verifier.sol\":6653:6670  (P - (a % P)) % P */\n      dup2\n      tag_266\n      jumpi\n      tag_267\n      tag_138\n      jump\t// in\n    tag_267:\n    tag_266:\n      mod\n        /* \"Evm/zk/variable_verifier.sol\":6649:6670  x = (P - (a % P)) % P */\n      swap1\n      pop\n        /* \"Evm/zk/variable_verifier.sol\":6552:6725  function negate(uint256 a) internal pure returns (uint256 x) {... */\n      swap2\n      swap1\n      pop\n      jump\t// out\n        /* \"Evm/zk/variable_verifier.sol\":9057:9206  function isSquare_Fp(uint256 a) internal view returns (bool) {... */\n    tag_195:\n        /* \"Evm/zk/variable_verifier.sol\":9112:9116  bool */\n      0x00\n        /* \"Evm/zk/variable_verifier.sol\":9129:9138  uint256 x */\n      0x00\n        /* \"Evm/zk/variable_verifier.sol\":9141:9160  exp(a, EXP_SQRT_FP) */\n      tag_269\n        /* \"Evm/zk/variable_verifier.sol\":9145:9146  a */\n      dup4\n        /* \"Evm/zk/variable_verifier.sol\":2641:2706  0xC19139CB84C680A6E14116DA060561765E05AA45A1C72A34F082305B61F3F52 */\n      0x0c19139cb84c680a6e14116da060561765e05aa45a1c72a34f082305b61f3f52\n        /* \"Evm/zk/variable_verifier.sol\":9141:9144  exp */\n      tag_259\n        /* \"Evm/zk/variable_verifier.sol\":9141:9160  exp(a, EXP_SQRT_FP) */\n      jump\t// in\n    tag_269:\n        /* \"Evm/zk/variable_verifier.sol\":9129:9160  uint256 x = exp(a, EXP_SQRT_FP) */\n      swap1\n      pop\n        /* \"Evm/zk/variable_verifier.sol\":9197:9198  a */\n      dup3\n        /* \"Evm/zk/variable_verifier.sol\":1423:1489  0x30644e72e131a029b85045b68181585d97816a916871ca8d3c208c16d87cfd47 */\n      0x30644e72e131a029b85045b68181585d97816a916871ca8d3c208c16d87cfd47\n        /* \"Evm/zk/variable_verifier.sol\":9178:9193  mulmod(x, x, P) */\n      dup1\n      tag_270\n      jumpi\n      tag_271\n      tag_138\n      jump\t// in\n    tag_271:\n    tag_270:\n        /* \"Evm/zk/variable_verifier.sol\":9188:9189  x */\n      dup3\n        /* \"Evm/zk/variable_verifier.sol\":9185:9186  x */\n      dup4\n        /* \"Evm/zk/variable_verifier.sol\":9178:9193  mulmod(x, x, P) */\n      mulmod\n        /* \"Evm/zk/variable_verifier.sol\":9178:9198  mulmod(x, x, P) == a */\n      eq\n        /* \"Evm/zk/variable_verifier.sol\":9171:9198  return mulmod(x, x, P) == a */\n      swap2\n      pop\n      pop\n        /* \"Evm/zk/variable_verifier.sol\":9057:9206  function isSquare_Fp(uint256 a) internal view returns (bool) {... */\n      swap2\n      swap1\n      pop\n      jump\t// out\n        /* \"Evm/zk/variable_verifier.sol\":9852:10659  function sqrt_Fp2(uint256 a0, uint256 a1, bool hint) internal view returns (uint256 x0, uint256 x1) {... */\n    tag_197:\n        /* \"Evm/zk/variable_verifier.sol\":9928:9938  uint256 x0 */\n      0x00\n        /* \"Evm/zk/variable_verifier.sol\":9940:9950  uint256 x1 */\n      0x00\n        /* \"Evm/zk/variable_verifier.sol\":10032:10041  uint256 d */\n      0x00\n        /* \"Evm/zk/variable_verifier.sol\":10044:10100  sqrt_Fp(addmod(mulmod(a0, a0, P), mulmod(a1, a1, P), P)) */\n      tag_273\n        /* \"Evm/zk/variable_verifier.sol\":1423:1489  0x30644e72e131a029b85045b68181585d97816a916871ca8d3c208c16d87cfd47 */\n      0x30644e72e131a029b85045b68181585d97816a916871ca8d3c208c16d87cfd47\n        /* \"Evm/zk/variable_verifier.sol\":10052:10099  addmod(mulmod(a0, a0, P), mulmod(a1, a1, P), P) */\n      dup1\n      tag_274\n      jumpi\n      tag_275\n      tag_138\n      jump\t// in\n    tag_275:\n    tag_274:\n        /* \"Evm/zk/variable_verifier.sol\":1423:1489  0x30644e72e131a029b85045b68181585d97816a916871ca8d3c208c16d87cfd47 */\n      0x30644e72e131a029b85045b68181585d97816a916871ca8d3c208c16d87cfd47\n        /* \"Evm/zk/variable_verifier.sol\":10078:10095  mulmod(a1, a1, P) */\n      dup1\n      tag_276\n      jumpi\n      tag_277\n      tag_138\n      jump\t// in\n    tag_277:\n    tag_276:\n        /* \"Evm/zk/variable_verifier.sol\":10089:10091  a1 */\n      dup8\n        /* \"Evm/zk/variable_verifier.sol\":10085:10087  a1 */\n      dup9\n        /* \"Evm/zk/variable_verifier.sol\":10078:10095  mulmod(a1, a1, P) */\n      mulmod\n        /* \"Evm/zk/variable_verifier.sol\":1423:1489  0x30644e72e131a029b85045b68181585d97816a916871ca8d3c208c16d87cfd47 */\n      0x30644e72e131a029b85045b68181585d97816a916871ca8d3c208c16d87cfd47\n        /* \"Evm/zk/variable_verifier.sol\":10059:10076  mulmod(a0, a0, P) */\n      dup1\n      tag_278\n      jumpi\n      tag_279\n      tag_138\n      jump\t// in\n    tag_279:\n    tag_278:\n        /* \"Evm/zk/variable_verifier.sol\":10070:10072  a0 */\n      dup10\n        /* \"Evm/zk/variable_verifier.sol\":10066:10068  a0 */\n      dup11\n        /* \"Evm/zk/variable_verifier.sol\":10059:10076  mulmod(a0, a0, P) */\n      mulmod\n        /* \"Evm/zk/variable_verifier.sol\":10052:10099  addmod(mulmod(a0, a0, P), mulmod(a1, a1, P), P) */\n      addmod\n        /* \"Evm/zk/variable_verifier.sol\":10044:10051  sqrt_Fp */\n      tag_143\n        /* \"Evm/zk/variable_verifier.sol\":10044:10100  sqrt_Fp(addmod(mulmod(a0, a0, P), mulmod(a1, a1, P), P)) */\n      jump\t// in\n    tag_273:\n        /* \"Evm/zk/variable_verifier.sol\":10032:10100  uint256 d = sqrt_Fp(addmod(mulmod(a0, a0, P), mulmod(a1, a1, P), P)) */\n      swap1\n      pop\n        /* \"Evm/zk/variable_verifier.sol\":10115:10119  hint */\n      dup4\n        /* \"Evm/zk/variable_verifier.sol\":10111:10161  if (hint) {... */\n      iszero\n      tag_280\n      jumpi\n        /* \"Evm/zk/variable_verifier.sol\":10140:10149  negate(d) */\n      tag_281\n        /* \"Evm/zk/variable_verifier.sol\":10147:10148  d */\n      dup2\n        /* \"Evm/zk/variable_verifier.sol\":10140:10146  negate */\n      tag_147\n        /* \"Evm/zk/variable_verifier.sol\":10140:10149  negate(d) */\n      jump\t// in\n    tag_281:\n        /* \"Evm/zk/variable_verifier.sol\":10136:10149  d = negate(d) */\n      swap1\n      pop\n        /* \"Evm/zk/variable_verifier.sol\":10111:10161  if (hint) {... */\n    tag_280:\n        /* \"Evm/zk/variable_verifier.sol\":10245:10298  sqrt_Fp(mulmod(addmod(a0, d, P), FRACTION_1_2_FP, P)) */\n      tag_282\n        /* \"Evm/zk/variable_verifier.sol\":1423:1489  0x30644e72e131a029b85045b68181585d97816a916871ca8d3c208c16d87cfd47 */\n      0x30644e72e131a029b85045b68181585d97816a916871ca8d3c208c16d87cfd47\n        /* \"Evm/zk/variable_verifier.sol\":10253:10297  mulmod(addmod(a0, d, P), FRACTION_1_2_FP, P) */\n      dup1\n      tag_283\n      jumpi\n      tag_284\n      tag_138\n      jump\t// in\n    tag_284:\n    tag_283:\n        /* \"Evm/zk/variable_verifier.sol\":2144:2210  0x183227397098d014dc2822db40c0ac2ecbc0b548b438e5469e10460b6c3e7ea4 */\n      0x183227397098d014dc2822db40c0ac2ecbc0b548b438e5469e10460b6c3e7ea4\n        /* \"Evm/zk/variable_verifier.sol\":1423:1489  0x30644e72e131a029b85045b68181585d97816a916871ca8d3c208c16d87cfd47 */\n      0x30644e72e131a029b85045b68181585d97816a916871ca8d3c208c16d87cfd47\n        /* \"Evm/zk/variable_verifier.sol\":10260:10276  addmod(a0, d, P) */\n      dup1\n      tag_285\n      jumpi\n      tag_286\n      tag_138\n      jump\t// in\n    tag_286:\n    tag_285:\n        /* \"Evm/zk/variable_verifier.sol\":10271:10272  d */\n      dup5\n        /* \"Evm/zk/variable_verifier.sol\":10267:10269  a0 */\n      dup11\n        /* \"Evm/zk/variable_verifier.sol\":10260:10276  addmod(a0, d, P) */\n      addmod\n        /* \"Evm/zk/variable_verifier.sol\":10253:10297  mulmod(addmod(a0, d, P), FRACTION_1_2_FP, P) */\n      mulmod\n        /* \"Evm/zk/variable_verifier.sol\":10245:10252  sqrt_Fp */\n      tag_143\n        /* \"Evm/zk/variable_verifier.sol\":10245:10298  sqrt_Fp(mulmod(addmod(a0, d, P), FRACTION_1_2_FP, P)) */\n      jump\t// in\n    tag_282:\n        /* \"Evm/zk/variable_verifier.sol\":10240:10298  x0 = sqrt_Fp(mulmod(addmod(a0, d, P), FRACTION_1_2_FP, P)) */\n      swap3\n      pop\n        /* \"Evm/zk/variable_verifier.sol\":1423:1489  0x30644e72e131a029b85045b68181585d97816a916871ca8d3c208c16d87cfd47 */\n      0x30644e72e131a029b85045b68181585d97816a916871ca8d3c208c16d87cfd47\n        /* \"Evm/zk/variable_verifier.sol\":10314:10356  mulmod(a1, invert_Fp(mulmod(x0, 2, P)), P) */\n      dup1\n      tag_287\n      jumpi\n      tag_288\n      tag_138\n      jump\t// in\n    tag_288:\n    tag_287:\n        /* \"Evm/zk/variable_verifier.sol\":10325:10352  invert_Fp(mulmod(x0, 2, P)) */\n      tag_289\n        /* \"Evm/zk/variable_verifier.sol\":1423:1489  0x30644e72e131a029b85045b68181585d97816a916871ca8d3c208c16d87cfd47 */\n      0x30644e72e131a029b85045b68181585d97816a916871ca8d3c208c16d87cfd47\n        /* \"Evm/zk/variable_verifier.sol\":10335:10351  mulmod(x0, 2, P) */\n      dup1\n      tag_290\n      jumpi\n      tag_291\n      tag_138\n      jump\t// in\n    tag_291:\n    tag_290:\n        /* \"Evm/zk/variable_verifier.sol\":10346:10347  2 */\n      0x02\n        /* \"Evm/zk/variable_verifier.sol\":10342:10344  x0 */\n      dup7\n        /* \"Evm/zk/variable_verifier.sol\":10335:10351  mulmod(x0, 2, P) */\n      mulmod\n        /* \"Evm/zk/variable_verifier.sol\":10325:10334  invert_Fp */\n      tag_292\n        /* \"Evm/zk/variable_verifier.sol\":10325:10352  invert_Fp(mulmod(x0, 2, P)) */\n      jump\t// in\n    tag_289:\n        /* \"Evm/zk/variable_verifier.sol\":10321:10323  a1 */\n      dup7\n        /* \"Evm/zk/variable_verifier.sol\":10314:10356  mulmod(a1, invert_Fp(mulmod(x0, 2, P)), P) */\n      mulmod\n        /* \"Evm/zk/variable_verifier.sol\":10309:10356  x1 = mulmod(a1, invert_Fp(mulmod(x0, 2, P)), P) */\n      swap2\n      pop\n        /* \"Evm/zk/variable_verifier.sol\":1423:1489  0x30644e72e131a029b85045b68181585d97816a916871ca8d3c208c16d87cfd47 */\n      0x30644e72e131a029b85045b68181585d97816a916871ca8d3c208c16d87cfd47\n        /* \"Evm/zk/variable_verifier.sol\":10496:10551  addmod(mulmod(x0, x0, P), negate(mulmod(x1, x1, P)), P) */\n      dup1\n      tag_293\n      jumpi\n      tag_294\n      tag_138\n      jump\t// in\n    tag_294:\n    tag_293:\n        /* \"Evm/zk/variable_verifier.sol\":10522:10547  negate(mulmod(x1, x1, P)) */\n      tag_295\n        /* \"Evm/zk/variable_verifier.sol\":1423:1489  0x30644e72e131a029b85045b68181585d97816a916871ca8d3c208c16d87cfd47 */\n      0x30644e72e131a029b85045b68181585d97816a916871ca8d3c208c16d87cfd47\n        /* \"Evm/zk/variable_verifier.sol\":10529:10546  mulmod(x1, x1, P) */\n      dup1\n      tag_296\n      jumpi\n      tag_297\n      tag_138\n      jump\t// in\n    tag_297:\n    tag_296:\n        /* \"Evm/zk/variable_verifier.sol\":10540:10542  x1 */\n      dup5\n        /* \"Evm/zk/variable_verifier.sol\":10536:10538  x1 */\n      dup6\n        /* \"Evm/zk/variable_verifier.sol\":10529:10546  mulmod(x1, x1, P) */\n      mulmod\n        /* \"Evm/zk/variable_verifier.sol\":10522:10528  negate */\n      tag_147\n        /* \"Evm/zk/variable_verifier.sol\":10522:10547  negate(mulmod(x1, x1, P)) */\n      jump\t// in\n    tag_295:\n        /* \"Evm/zk/variable_verifier.sol\":1423:1489  0x30644e72e131a029b85045b68181585d97816a916871ca8d3c208c16d87cfd47 */\n      0x30644e72e131a029b85045b68181585d97816a916871ca8d3c208c16d87cfd47\n        /* \"Evm/zk/variable_verifier.sol\":10503:10520  mulmod(x0, x0, P) */\n      dup1\n      tag_298\n      jumpi\n      tag_299\n      tag_138\n      jump\t// in\n    tag_299:\n    tag_298:\n        /* \"Evm/zk/variable_verifier.sol\":10514:10516  x0 */\n      dup6\n        /* \"Evm/zk/variable_verifier.sol\":10510:10512  x0 */\n      dup7\n        /* \"Evm/zk/variable_verifier.sol\":10503:10520  mulmod(x0, x0, P) */\n      mulmod\n        /* \"Evm/zk/variable_verifier.sol\":10496:10551  addmod(mulmod(x0, x0, P), negate(mulmod(x1, x1, P)), P) */\n      addmod\n        /* \"Evm/zk/variable_verifier.sol\":10490:10492  a0 */\n      dup7\n        /* \"Evm/zk/variable_verifier.sol\":10490:10551  a0 != addmod(mulmod(x0, x0, P), negate(mulmod(x1, x1, P)), P) */\n      eq\n      iszero\n        /* \"Evm/zk/variable_verifier.sol\":10490:10602  a0 != addmod(mulmod(x0, x0, P), negate(mulmod(x1, x1, P)), P)... */\n      dup1\n      tag_300\n      jumpi\n      pop\n        /* \"Evm/zk/variable_verifier.sol\":1423:1489  0x30644e72e131a029b85045b68181585d97816a916871ca8d3c208c16d87cfd47 */\n      0x30644e72e131a029b85045b68181585d97816a916871ca8d3c208c16d87cfd47\n        /* \"Evm/zk/variable_verifier.sol\":10571:10602  mulmod(2, mulmod(x0, x1, P), P) */\n      dup1\n      tag_301\n      jumpi\n      tag_302\n      tag_138\n      jump\t// in\n    tag_302:\n    tag_301:\n        /* \"Evm/zk/variable_verifier.sol\":1423:1489  0x30644e72e131a029b85045b68181585d97816a916871ca8d3c208c16d87cfd47 */\n      0x30644e72e131a029b85045b68181585d97816a916871ca8d3c208c16d87cfd47\n        /* \"Evm/zk/variable_verifier.sol\":10581:10598  mulmod(x0, x1, P) */\n      dup1\n      tag_303\n      jumpi\n      tag_304\n      tag_138\n      jump\t// in\n    tag_304:\n    tag_303:\n        /* \"Evm/zk/variable_verifier.sol\":10592:10594  x1 */\n      dup4\n        /* \"Evm/zk/variable_verifier.sol\":10588:10590  x0 */\n      dup6\n        /* \"Evm/zk/variable_verifier.sol\":10581:10598  mulmod(x0, x1, P) */\n      mulmod\n        /* \"Evm/zk/variable_verifier.sol\":10578:10579  2 */\n      0x02\n        /* \"Evm/zk/variable_verifier.sol\":10571:10602  mulmod(2, mulmod(x0, x1, P), P) */\n      mulmod\n        /* \"Evm/zk/variable_verifier.sol\":10565:10567  a1 */\n      dup6\n        /* \"Evm/zk/variable_verifier.sol\":10565:10602  a1 != mulmod(2, mulmod(x0, x1, P), P) */\n      eq\n      iszero\n        /* \"Evm/zk/variable_verifier.sol\":10490:10602  a0 != addmod(mulmod(x0, x0, P), negate(mulmod(x1, x1, P)), P)... */\n    tag_300:\n        /* \"Evm/zk/variable_verifier.sol\":10486:10652  if (a0 != addmod(mulmod(x0, x0, P), negate(mulmod(x1, x1, P)), P)... */\n      iszero\n      tag_305\n      jumpi\n        /* \"Evm/zk/variable_verifier.sol\":10626:10640  ProofInvalid() */\n      mload(0x40)\n      0x7fcdd1f400000000000000000000000000000000000000000000000000000000\n      dup2\n      mstore\n      0x04\n      add\n      mload(0x40)\n      dup1\n      swap2\n      sub\n      swap1\n      revert\n        /* \"Evm/zk/variable_verifier.sol\":10486:10652  if (a0 != addmod(mulmod(x0, x0, P), negate(mulmod(x1, x1, P)), P)... */\n    tag_305:\n        /* \"Evm/zk/variable_verifier.sol\":9952:10659  {... */\n      pop\n        /* \"Evm/zk/variable_verifier.sol\":9852:10659  function sqrt_Fp2(uint256 a0, uint256 a1, bool hint) internal view returns (uint256 x0, uint256 x1) {... */\n      swap4\n      pop\n      swap4\n      swap2\n      pop\n      pop\n      jump\t// out\n        /* \"Evm/zk/variable_verifier.sol\":6971:7624  function exp(uint256 a, uint256 e) internal view returns (uint256 x) {... */\n    tag_259:\n        /* \"Evm/zk/variable_verifier.sol\":7029:7038  uint256 x */\n      0x00\n        /* \"Evm/zk/variable_verifier.sol\":7051:7063  bool success */\n      0x00\n        /* \"Evm/zk/variable_verifier.sol\":7129:7133  0x40 */\n      0x40\n        /* \"Evm/zk/variable_verifier.sol\":7123:7134  mload(0x40) */\n      mload\n        /* \"Evm/zk/variable_verifier.sol\":7158:7162  0x20 */\n      0x20\n        /* \"Evm/zk/variable_verifier.sol\":7155:7156  f */\n      dup2\n        /* \"Evm/zk/variable_verifier.sol\":7148:7163  mstore(f, 0x20) */\n      mstore\n        /* \"Evm/zk/variable_verifier.sol\":7198:7202  0x20 */\n      0x20\n        /* \"Evm/zk/variable_verifier.sol\":7191:7195  0x20 */\n      dup1\n        /* \"Evm/zk/variable_verifier.sol\":7188:7189  f */\n      dup3\n        /* \"Evm/zk/variable_verifier.sol\":7184:7196  add(f, 0x20) */\n      add\n        /* \"Evm/zk/variable_verifier.sol\":7177:7203  mstore(add(f, 0x20), 0x20) */\n      mstore\n        /* \"Evm/zk/variable_verifier.sol\":7238:7242  0x20 */\n      0x20\n        /* \"Evm/zk/variable_verifier.sol\":7231:7235  0x40 */\n      0x40\n        /* \"Evm/zk/variable_verifier.sol\":7228:7229  f */\n      dup3\n        /* \"Evm/zk/variable_verifier.sol\":7224:7236  add(f, 0x40) */\n      add\n        /* \"Evm/zk/variable_verifier.sol\":7217:7243  mstore(add(f, 0x40), 0x20) */\n      mstore\n        /* \"Evm/zk/variable_verifier.sol\":7278:7279  a */\n      dup5\n        /* \"Evm/zk/variable_verifier.sol\":7271:7275  0x60 */\n      0x60\n        /* \"Evm/zk/variable_verifier.sol\":7268:7269  f */\n      dup3\n        /* \"Evm/zk/variable_verifier.sol\":7264:7276  add(f, 0x60) */\n      add\n        /* \"Evm/zk/variable_verifier.sol\":7257:7280  mstore(add(f, 0x60), a) */\n      mstore\n        /* \"Evm/zk/variable_verifier.sol\":7315:7316  e */\n      dup4\n        /* \"Evm/zk/variable_verifier.sol\":7308:7312  0x80 */\n      0x80\n        /* \"Evm/zk/variable_verifier.sol\":7305:7306  f */\n      dup3\n        /* \"Evm/zk/variable_verifier.sol\":7301:7313  add(f, 0x80) */\n      add\n        /* \"Evm/zk/variable_verifier.sol\":7294:7317  mstore(add(f, 0x80), e) */\n      mstore\n        /* \"Evm/zk/variable_verifier.sol\":7352:7353  P */\n      0x30644e72e131a029b85045b68181585d97816a916871ca8d3c208c16d87cfd47\n        /* \"Evm/zk/variable_verifier.sol\":7345:7349  0xa0 */\n      0xa0\n        /* \"Evm/zk/variable_verifier.sol\":7342:7343  f */\n      dup3\n        /* \"Evm/zk/variable_verifier.sol\":7338:7350  add(f, 0xa0) */\n      add\n        /* \"Evm/zk/variable_verifier.sol\":7331:7354  mstore(add(f, 0xa0), P) */\n      mstore\n        /* \"Evm/zk/variable_verifier.sol\":7428:7432  0x20 */\n      0x20\n        /* \"Evm/zk/variable_verifier.sol\":7425:7426  f */\n      dup2\n        /* \"Evm/zk/variable_verifier.sol\":7419:7423  0xc0 */\n      0xc0\n        /* \"Evm/zk/variable_verifier.sol\":7416:7417  f */\n      dup4\n        /* \"Evm/zk/variable_verifier.sol\":7397:7414  PRECOMPILE_MODEXP */\n      0x05\n        /* \"Evm/zk/variable_verifier.sol\":7390:7395  gas() */\n      gas\n        /* \"Evm/zk/variable_verifier.sol\":7379:7433  staticcall(gas(), PRECOMPILE_MODEXP, f, 0xc0, f, 0x20) */\n      staticcall\n        /* \"Evm/zk/variable_verifier.sol\":7368:7433  success := staticcall(gas(), PRECOMPILE_MODEXP, f, 0xc0, f, 0x20) */\n      swap2\n      pop\n        /* \"Evm/zk/variable_verifier.sol\":7458:7459  f */\n      dup1\n        /* \"Evm/zk/variable_verifier.sol\":7452:7460  mload(f) */\n      mload\n        /* \"Evm/zk/variable_verifier.sol\":7447:7460  x := mload(f) */\n      swap3\n      pop\n        /* \"Evm/zk/variable_verifier.sol\":7099:7471  {... */\n      pop\n        /* \"Evm/zk/variable_verifier.sol\":7486:7493  success */\n      dup1\n        /* \"Evm/zk/variable_verifier.sol\":7481:7617  if (!success) {... */\n      tag_307\n      jumpi\n        /* \"Evm/zk/variable_verifier.sol\":7591:7605  ProofInvalid() */\n      mload(0x40)\n      0x7fcdd1f400000000000000000000000000000000000000000000000000000000\n      dup2\n      mstore\n      0x04\n      add\n      mload(0x40)\n      dup1\n      swap2\n      sub\n      swap1\n      revert\n        /* \"Evm/zk/variable_verifier.sol\":7481:7617  if (!success) {... */\n    tag_307:\n        /* \"Evm/zk/variable_verifier.sol\":7040:7624  {... */\n      pop\n        /* \"Evm/zk/variable_verifier.sol\":6971:7624  function exp(uint256 a, uint256 e) internal view returns (uint256 x) {... */\n      swap3\n      swap2\n      pop\n      pop\n      jump\t// out\n        /* \"Evm/zk/variable_verifier.sol\":7913:8209  function invert_Fp(uint256 a) internal view returns (uint256 x) {... */\n    tag_292:\n        /* \"Evm/zk/variable_verifier.sol\":7966:7975  uint256 x */\n      0x00\n        /* \"Evm/zk/variable_verifier.sol\":7992:8014  exp(a, EXP_INVERSE_FP) */\n      tag_309\n        /* \"Evm/zk/variable_verifier.sol\":7996:7997  a */\n      dup3\n        /* \"Evm/zk/variable_verifier.sol\":2528:2594  0x30644E72E131A029B85045B68181585D97816A916871CA8D3C208C16D87CFD45 */\n      0x30644e72e131a029b85045b68181585d97816a916871ca8d3c208c16d87cfd45\n        /* \"Evm/zk/variable_verifier.sol\":7992:7995  exp */\n      tag_259\n        /* \"Evm/zk/variable_verifier.sol\":7992:8014  exp(a, EXP_INVERSE_FP) */\n      jump\t// in\n    tag_309:\n        /* \"Evm/zk/variable_verifier.sol\":7988:8014  x = exp(a, EXP_INVERSE_FP) */\n      swap1\n      pop\n        /* \"Evm/zk/variable_verifier.sol\":8048:8049  1 */\n      0x01\n        /* \"Evm/zk/variable_verifier.sol\":1423:1489  0x30644e72e131a029b85045b68181585d97816a916871ca8d3c208c16d87cfd47 */\n      0x30644e72e131a029b85045b68181585d97816a916871ca8d3c208c16d87cfd47\n        /* \"Evm/zk/variable_verifier.sol\":8029:8044  mulmod(a, x, P) */\n      dup1\n      tag_310\n      jumpi\n      tag_311\n      tag_138\n      jump\t// in\n    tag_311:\n    tag_310:\n        /* \"Evm/zk/variable_verifier.sol\":8039:8040  x */\n      dup3\n        /* \"Evm/zk/variable_verifier.sol\":8036:8037  a */\n      dup5\n        /* \"Evm/zk/variable_verifier.sol\":8029:8044  mulmod(a, x, P) */\n      mulmod\n        /* \"Evm/zk/variable_verifier.sol\":8029:8049  mulmod(a, x, P) != 1 */\n      eq\n        /* \"Evm/zk/variable_verifier.sol\":8025:8202  if (mulmod(a, x, P) != 1) {... */\n      tag_312\n      jumpi\n        /* \"Evm/zk/variable_verifier.sol\":8176:8190  ProofInvalid() */\n      mload(0x40)\n      0x7fcdd1f400000000000000000000000000000000000000000000000000000000\n      dup2\n      mstore\n      0x04\n      add\n      mload(0x40)\n      dup1\n      swap2\n      sub\n      swap1\n      revert\n        /* \"Evm/zk/variable_verifier.sol\":8025:8202  if (mulmod(a, x, P) != 1) {... */\n    tag_312:\n        /* \"Evm/zk/variable_verifier.sol\":7913:8209  function invert_Fp(uint256 a) internal view returns (uint256 x) {... */\n      swap2\n      swap1\n      pop\n      jump\t// out\n    tag_25:\n      mload(0x40)\n      dup1\n      0x80\n      add\n      0x40\n      mstore\n      dup1\n      0x04\n      swap1\n      0x20\n      dup3\n      mul\n      dup1\n      calldatasize\n      dup4\n      calldatacopy\n      dup1\n      dup3\n      add\n      swap2\n      pop\n      pop\n      swap1\n      pop\n      pop\n      swap1\n      jump\t// out\n    tag_59:\n      mload(0x40)\n      dup1\n      0x0300\n      add\n      0x40\n      mstore\n      dup1\n      0x18\n      swap1\n      0x20\n      dup3\n      mul\n      dup1\n      calldatasize\n      dup4\n      calldatacopy\n      dup1\n      dup3\n      add\n      swap2\n      pop\n      pop\n      swap1\n      pop\n      pop\n      swap1\n      jump\t// out\n    tag_123:\n      mload(0x40)\n      dup1\n      0x20\n      add\n      0x40\n      mstore\n      dup1\n      0x01\n      swap1\n      0x20\n      dup3\n      mul\n      dup1\n      calldatasize\n      dup4\n      calldatacopy\n      dup1\n      dup3\n      add\n      swap2\n      pop\n      pop\n      swap1\n      pop\n      pop\n      swap1\n      jump\t// out\n        /* \"#utility.yul\":88:205   */\n    tag_314:\n        /* \"#utility.yul\":197:198   */\n      0x00\n        /* \"#utility.yul\":194:195   */\n      0x00\n        /* \"#utility.yul\":187:199   */\n      revert\n        /* \"#utility.yul\":334:451   */\n    tag_316:\n        /* \"#utility.yul\":443:444   */\n      0x00\n        /* \"#utility.yul\":440:441   */\n      0x00\n        /* \"#utility.yul\":433:445   */\n      revert\n        /* \"#utility.yul\":475:724   */\n    tag_317:\n        /* \"#utility.yul\":546:554   */\n      0x00\n        /* \"#utility.yul\":577:583   */\n      dup2\n        /* \"#utility.yul\":565:583   */\n      swap1\n      pop\n        /* \"#utility.yul\":630:633   */\n      dup3\n        /* \"#utility.yul\":622:626   */\n      0x20\n        /* \"#utility.yul\":616:620   */\n      0x08\n        /* \"#utility.yul\":612:627   */\n      mul\n        /* \"#utility.yul\":602:610   */\n      dup3\n        /* \"#utility.yul\":598:628   */\n      add\n        /* \"#utility.yul\":595:634   */\n      gt\n        /* \"#utility.yul\":592:718   */\n      iszero\n      tag_335\n      jumpi\n        /* \"#utility.yul\":637:716   */\n      tag_336\n      tag_316\n      jump\t// in\n    tag_336:\n        /* \"#utility.yul\":592:718   */\n    tag_335:\n        /* \"#utility.yul\":475:724   */\n      swap3\n      swap2\n      pop\n      pop\n      jump\t// out\n        /* \"#utility.yul\":748:997   */\n    tag_318:\n        /* \"#utility.yul\":819:827   */\n      0x00\n        /* \"#utility.yul\":850:856   */\n      dup2\n        /* \"#utility.yul\":838:856   */\n      swap1\n      pop\n        /* \"#utility.yul\":903:906   */\n      dup3\n        /* \"#utility.yul\":895:899   */\n      0x20\n        /* \"#utility.yul\":889:893   */\n      0x07\n        /* \"#utility.yul\":885:900   */\n      mul\n        /* \"#utility.yul\":875:883   */\n      dup3\n        /* \"#utility.yul\":871:901   */\n      add\n        /* \"#utility.yul\":868:907   */\n      gt\n        /* \"#utility.yul\":865:991   */\n      iszero\n      tag_338\n      jumpi\n        /* \"#utility.yul\":910:989   */\n      tag_339\n      tag_316\n      jump\t// in\n    tag_339:\n        /* \"#utility.yul\":865:991   */\n    tag_338:\n        /* \"#utility.yul\":748:997   */\n      swap3\n      swap2\n      pop\n      pop\n      jump\t// out\n        /* \"#utility.yul\":1003:1579   */\n    tag_8:\n        /* \"#utility.yul\":1121:1127   */\n      0x00\n        /* \"#utility.yul\":1129:1135   */\n      0x00\n        /* \"#utility.yul\":1178:1181   */\n      0x01e0\n        /* \"#utility.yul\":1166:1175   */\n      dup4\n        /* \"#utility.yul\":1157:1164   */\n      dup6\n        /* \"#utility.yul\":1153:1176   */\n      sub\n        /* \"#utility.yul\":1149:1182   */\n      slt\n        /* \"#utility.yul\":1146:1266   */\n      iszero\n      tag_341\n      jumpi\n        /* \"#utility.yul\":1185:1264   */\n      tag_342\n      tag_314\n      jump\t// in\n    tag_342:\n        /* \"#utility.yul\":1146:1266   */\n    tag_341:\n        /* \"#utility.yul\":1305:1306   */\n      0x00\n        /* \"#utility.yul\":1330:1408   */\n      tag_343\n        /* \"#utility.yul\":1400:1407   */\n      dup6\n        /* \"#utility.yul\":1391:1397   */\n      dup3\n        /* \"#utility.yul\":1380:1389   */\n      dup7\n        /* \"#utility.yul\":1376:1398   */\n      add\n        /* \"#utility.yul\":1330:1408   */\n      tag_317\n      jump\t// in\n    tag_343:\n        /* \"#utility.yul\":1320:1408   */\n      swap3\n      pop\n        /* \"#utility.yul\":1276:1418   */\n      pop\n        /* \"#utility.yul\":1457:1460   */\n      0x0100\n        /* \"#utility.yul\":1484:1562   */\n      tag_344\n        /* \"#utility.yul\":1554:1561   */\n      dup6\n        /* \"#utility.yul\":1545:1551   */\n      dup3\n        /* \"#utility.yul\":1534:1543   */\n      dup7\n        /* \"#utility.yul\":1530:1552   */\n      add\n        /* \"#utility.yul\":1484:1562   */\n      tag_318\n      jump\t// in\n    tag_344:\n        /* \"#utility.yul\":1474:1562   */\n      swap2\n      pop\n        /* \"#utility.yul\":1428:1572   */\n      pop\n        /* \"#utility.yul\":1003:1579   */\n      swap3\n      pop\n      swap3\n      swap1\n      pop\n      jump\t// out\n        /* \"#utility.yul\":1585:1965   */\n    tag_12:\n        /* \"#utility.yul\":1669:1675   */\n      0x00\n        /* \"#utility.yul\":1718:1721   */\n      0x0100\n        /* \"#utility.yul\":1706:1715   */\n      dup3\n        /* \"#utility.yul\":1697:1704   */\n      dup5\n        /* \"#utility.yul\":1693:1716   */\n      sub\n        /* \"#utility.yul\":1689:1722   */\n      slt\n        /* \"#utility.yul\":1686:1806   */\n      iszero\n      tag_346\n      jumpi\n        /* \"#utility.yul\":1725:1804   */\n      tag_347\n      tag_314\n      jump\t// in\n    tag_347:\n        /* \"#utility.yul\":1686:1806   */\n    tag_346:\n        /* \"#utility.yul\":1845:1846   */\n      0x00\n        /* \"#utility.yul\":1870:1948   */\n      tag_348\n        /* \"#utility.yul\":1940:1947   */\n      dup5\n        /* \"#utility.yul\":1931:1937   */\n      dup3\n        /* \"#utility.yul\":1920:1929   */\n      dup6\n        /* \"#utility.yul\":1916:1938   */\n      add\n        /* \"#utility.yul\":1870:1948   */\n      tag_317\n      jump\t// in\n    tag_348:\n        /* \"#utility.yul\":1860:1948   */\n      swap2\n      pop\n        /* \"#utility.yul\":1816:1958   */\n      pop\n        /* \"#utility.yul\":1585:1965   */\n      swap3\n      swap2\n      pop\n      pop\n      jump\t// out\n        /* \"#utility.yul\":1971:2075   */\n    tag_319:\n        /* \"#utility.yul\":2036:2042   */\n      0x00\n        /* \"#utility.yul\":2064:2068   */\n      0x04\n        /* \"#utility.yul\":2054:2068   */\n      swap1\n      pop\n        /* \"#utility.yul\":1971:2075   */\n      swap2\n      swap1\n      pop\n      jump\t// out\n        /* \"#utility.yul\":2081:2224   */\n    tag_320:\n        /* \"#utility.yul\":2178:2189   */\n      0x00\n        /* \"#utility.yul\":2215:2218   */\n      dup2\n        /* \"#utility.yul\":2200:2218   */\n      swap1\n      pop\n        /* \"#utility.yul\":2081:2224   */\n      swap3\n      swap2\n      pop\n      pop\n      jump\t// out\n        /* \"#utility.yul\":2230:2328   */\n    tag_321:\n        /* \"#utility.yul\":2295:2299   */\n      0x00\n        /* \"#utility.yul\":2318:2321   */\n      dup2\n        /* \"#utility.yul\":2310:2321   */\n      swap1\n      pop\n        /* \"#utility.yul\":2230:2328   */\n      swap2\n      swap1\n      pop\n      jump\t// out\n        /* \"#utility.yul\":2334:2411   */\n    tag_322:\n        /* \"#utility.yul\":2371:2378   */\n      0x00\n        /* \"#utility.yul\":2400:2405   */\n      dup2\n        /* \"#utility.yul\":2389:2405   */\n      swap1\n      pop\n        /* \"#utility.yul\":2334:2411   */\n      swap2\n      swap1\n      pop\n      jump\t// out\n        /* \"#utility.yul\":2417:2525   */\n    tag_323:\n        /* \"#utility.yul\":2494:2518   */\n      tag_354\n        /* \"#utility.yul\":2512:2517   */\n      dup2\n        /* \"#utility.yul\":2494:2518   */\n      tag_322\n      jump\t// in\n    tag_354:\n        /* \"#utility.yul\":2489:2492   */\n      dup3\n        /* \"#utility.yul\":2482:2519   */\n      mstore\n        /* \"#utility.yul\":2417:2525   */\n      pop\n      pop\n      jump\t// out\n        /* \"#utility.yul\":2531:2710   */\n    tag_324:\n        /* \"#utility.yul\":2600:2610   */\n      0x00\n        /* \"#utility.yul\":2621:2667   */\n      tag_356\n        /* \"#utility.yul\":2663:2666   */\n      dup4\n        /* \"#utility.yul\":2655:2661   */\n      dup4\n        /* \"#utility.yul\":2621:2667   */\n      tag_323\n      jump\t// in\n    tag_356:\n        /* \"#utility.yul\":2699:2703   */\n      0x20\n        /* \"#utility.yul\":2694:2697   */\n      dup4\n        /* \"#utility.yul\":2690:2704   */\n      add\n        /* \"#utility.yul\":2676:2704   */\n      swap1\n      pop\n        /* \"#utility.yul\":2531:2710   */\n      swap3\n      swap2\n      pop\n      pop\n      jump\t// out\n        /* \"#utility.yul\":2716:2827   */\n    tag_325:\n        /* \"#utility.yul\":2784:2788   */\n      0x00\n        /* \"#utility.yul\":2816:2820   */\n      0x20\n        /* \"#utility.yul\":2811:2814   */\n      dup3\n        /* \"#utility.yul\":2807:2821   */\n      add\n        /* \"#utility.yul\":2799:2821   */\n      swap1\n      pop\n        /* \"#utility.yul\":2716:2827   */\n      swap2\n      swap1\n      pop\n      jump\t// out\n        /* \"#utility.yul\":2865:3559   */\n    tag_326:\n        /* \"#utility.yul\":3001:3053   */\n      tag_359\n        /* \"#utility.yul\":3047:3052   */\n      dup2\n        /* \"#utility.yul\":3001:3053   */\n      tag_319\n      jump\t// in\n    tag_359:\n        /* \"#utility.yul\":3069:3153   */\n      tag_360\n        /* \"#utility.yul\":3146:3152   */\n      dup2\n        /* \"#utility.yul\":3141:3144   */\n      dup5\n        /* \"#utility.yul\":3069:3153   */\n      tag_320\n      jump\t// in\n    tag_360:\n        /* \"#utility.yul\":3062:3153   */\n      swap3\n      pop\n        /* \"#utility.yul\":3177:3231   */\n      tag_361\n        /* \"#utility.yul\":3225:3230   */\n      dup3\n        /* \"#utility.yul\":3177:3231   */\n      tag_321\n      jump\t// in\n    tag_361:\n        /* \"#utility.yul\":3254:3261   */\n      dup1\n        /* \"#utility.yul\":3285:3286   */\n      0x00\n        /* \"#utility.yul\":3270:3552   */\n    tag_362:\n        /* \"#utility.yul\":3295:3301   */\n      dup4\n        /* \"#utility.yul\":3292:3293   */\n      dup2\n        /* \"#utility.yul\":3289:3302   */\n      lt\n        /* \"#utility.yul\":3270:3552   */\n      iszero\n      tag_364\n      jumpi\n        /* \"#utility.yul\":3371:3377   */\n      dup2\n        /* \"#utility.yul\":3365:3378   */\n      mload\n        /* \"#utility.yul\":3398:3461   */\n      tag_365\n        /* \"#utility.yul\":3457:3460   */\n      dup8\n        /* \"#utility.yul\":3442:3455   */\n      dup3\n        /* \"#utility.yul\":3398:3461   */\n      tag_324\n      jump\t// in\n    tag_365:\n        /* \"#utility.yul\":3391:3461   */\n      swap7\n      pop\n        /* \"#utility.yul\":3484:3542   */\n      tag_366\n        /* \"#utility.yul\":3535:3541   */\n      dup4\n        /* \"#utility.yul\":3484:3542   */\n      tag_325\n      jump\t// in\n    tag_366:\n        /* \"#utility.yul\":3474:3542   */\n      swap3\n      pop\n        /* \"#utility.yul\":3330:3552   */\n      pop\n        /* \"#utility.yul\":3317:3318   */\n      0x01\n        /* \"#utility.yul\":3314:3315   */\n      dup2\n        /* \"#utility.yul\":3310:3319   */\n      add\n        /* \"#utility.yul\":3305:3319   */\n      swap1\n      pop\n        /* \"#utility.yul\":3270:3552   */\n      jump(tag_362)\n    tag_364:\n        /* \"#utility.yul\":3274:3288   */\n      pop\n        /* \"#utility.yul\":2977:3559   */\n      pop\n      pop\n      pop\n        /* \"#utility.yul\":2865:3559   */\n      pop\n      pop\n      jump\t// out\n        /* \"#utility.yul\":3565:3880   */\n    tag_15:\n        /* \"#utility.yul\":3704:3708   */\n      0x00\n        /* \"#utility.yul\":3742:3745   */\n      0x80\n        /* \"#utility.yul\":3731:3740   */\n      dup3\n        /* \"#utility.yul\":3727:3746   */\n      add\n        /* \"#utility.yul\":3719:3746   */\n      swap1\n      pop\n        /* \"#utility.yul\":3756:3873   */\n      tag_368\n        /* \"#utility.yul\":3870:3871   */\n      0x00\n        /* \"#utility.yul\":3859:3868   */\n      dup4\n        /* \"#utility.yul\":3855:3872   */\n      add\n        /* \"#utility.yul\":3846:3852   */\n      dup5\n        /* \"#utility.yul\":3756:3873   */\n      tag_326\n      jump\t// in\n    tag_368:\n        /* \"#utility.yul\":3565:3880   */\n      swap3\n      swap2\n      pop\n      pop\n      jump\t// out\n        /* \"#utility.yul\":3904:4153   */\n    tag_327:\n        /* \"#utility.yul\":3975:3983   */\n      0x00\n        /* \"#utility.yul\":4006:4012   */\n      dup2\n        /* \"#utility.yul\":3994:4012   */\n      swap1\n      pop\n        /* \"#utility.yul\":4059:4062   */\n      dup3\n        /* \"#utility.yul\":4051:4055   */\n      0x20\n        /* \"#utility.yul\":4045:4049   */\n      0x04\n        /* \"#utility.yul\":4041:4056   */\n      mul\n        /* \"#utility.yul\":4031:4039   */\n      dup3\n        /* \"#utility.yul\":4027:4057   */\n      add\n        /* \"#utility.yul\":4024:4063   */\n      gt\n        /* \"#utility.yul\":4021:4147   */\n      iszero\n      tag_370\n      jumpi\n        /* \"#utility.yul\":4066:4145   */\n      tag_371\n      tag_316\n      jump\t// in\n    tag_371:\n        /* \"#utility.yul\":4021:4147   */\n    tag_370:\n        /* \"#utility.yul\":3904:4153   */\n      swap3\n      swap2\n      pop\n      pop\n      jump\t// out\n        /* \"#utility.yul\":4159:4735   */\n    tag_18:\n        /* \"#utility.yul\":4277:4283   */\n      0x00\n        /* \"#utility.yul\":4285:4291   */\n      0x00\n        /* \"#utility.yul\":4334:4337   */\n      0x0160\n        /* \"#utility.yul\":4322:4331   */\n      dup4\n        /* \"#utility.yul\":4313:4320   */\n      dup6\n        /* \"#utility.yul\":4309:4332   */\n      sub\n        /* \"#utility.yul\":4305:4338   */\n      slt\n        /* \"#utility.yul\":4302:4422   */\n      iszero\n      tag_373\n      jumpi\n        /* \"#utility.yul\":4341:4420   */\n      tag_374\n      tag_314\n      jump\t// in\n    tag_374:\n        /* \"#utility.yul\":4302:4422   */\n    tag_373:\n        /* \"#utility.yul\":4461:4462   */\n      0x00\n        /* \"#utility.yul\":4486:4564   */\n      tag_375\n        /* \"#utility.yul\":4556:4563   */\n      dup6\n        /* \"#utility.yul\":4547:4553   */\n      dup3\n        /* \"#utility.yul\":4536:4545   */\n      dup7\n        /* \"#utility.yul\":4532:4554   */\n      add\n        /* \"#utility.yul\":4486:4564   */\n      tag_327\n      jump\t// in\n    tag_375:\n        /* \"#utility.yul\":4476:4564   */\n      swap3\n      pop\n        /* \"#utility.yul\":4432:4574   */\n      pop\n        /* \"#utility.yul\":4613:4616   */\n      0x80\n        /* \"#utility.yul\":4640:4718   */\n      tag_376\n        /* \"#utility.yul\":4710:4717   */\n      dup6\n        /* \"#utility.yul\":4701:4707   */\n      dup3\n        /* \"#utility.yul\":4690:4699   */\n      dup7\n        /* \"#utility.yul\":4686:4708   */\n      add\n        /* \"#utility.yul\":4640:4718   */\n      tag_318\n      jump\t// in\n    tag_376:\n        /* \"#utility.yul\":4630:4718   */\n      swap2\n      pop\n        /* \"#utility.yul\":4584:4728   */\n      pop\n        /* \"#utility.yul\":4159:4735   */\n      swap3\n      pop\n      swap3\n      swap1\n      pop\n      jump\t// out\n        /* \"#utility.yul\":4741:4921   */\n    tag_30:\n        /* \"#utility.yul\":4789:4866   */\n      0x4e487b7100000000000000000000000000000000000000000000000000000000\n        /* \"#utility.yul\":4786:4787   */\n      0x00\n        /* \"#utility.yul\":4779:4867   */\n      mstore\n        /* \"#utility.yul\":4886:4890   */\n      0x32\n        /* \"#utility.yul\":4883:4884   */\n      0x04\n        /* \"#utility.yul\":4876:4891   */\n      mstore\n        /* \"#utility.yul\":4910:4914   */\n      0x24\n        /* \"#utility.yul\":4907:4908   */\n      0x00\n        /* \"#utility.yul\":4900:4915   */\n      revert\n        /* \"#utility.yul\":4927:5107   */\n    tag_138:\n        /* \"#utility.yul\":4975:5052   */\n      0x4e487b7100000000000000000000000000000000000000000000000000000000\n        /* \"#utility.yul\":4972:4973   */\n      0x00\n        /* \"#utility.yul\":4965:5053   */\n      mstore\n        /* \"#utility.yul\":5072:5076   */\n      0x12\n        /* \"#utility.yul\":5069:5070   */\n      0x04\n        /* \"#utility.yul\":5062:5077   */\n      mstore\n        /* \"#utility.yul\":5096:5100   */\n      0x24\n        /* \"#utility.yul\":5093:5094   */\n      0x00\n        /* \"#utility.yul\":5086:5101   */\n      revert\n        /* \"#utility.yul\":5113:5293   */\n    tag_328:\n        /* \"#utility.yul\":5161:5238   */\n      0x4e487b7100000000000000000000000000000000000000000000000000000000\n        /* \"#utility.yul\":5158:5159   */\n      0x00\n        /* \"#utility.yul\":5151:5239   */\n      mstore\n        /* \"#utility.yul\":5258:5262   */\n      0x11\n        /* \"#utility.yul\":5255:5256   */\n      0x04\n        /* \"#utility.yul\":5248:5263   */\n      mstore\n        /* \"#utility.yul\":5282:5286   */\n      0x24\n        /* \"#utility.yul\":5279:5280   */\n      0x00\n        /* \"#utility.yul\":5272:5287   */\n      revert\n        /* \"#utility.yul\":5299:5493   */\n    tag_159:\n        /* \"#utility.yul\":5339:5343   */\n      0x00\n        /* \"#utility.yul\":5359:5379   */\n      tag_381\n        /* \"#utility.yul\":5377:5378   */\n      dup3\n        /* \"#utility.yul\":5359:5379   */\n      tag_322\n      jump\t// in\n    tag_381:\n        /* \"#utility.yul\":5354:5379   */\n      swap2\n      pop\n        /* \"#utility.yul\":5393:5413   */\n      tag_382\n        /* \"#utility.yul\":5411:5412   */\n      dup4\n        /* \"#utility.yul\":5393:5413   */\n      tag_322\n      jump\t// in\n    tag_382:\n        /* \"#utility.yul\":5388:5413   */\n      swap3\n      pop\n        /* \"#utility.yul\":5437:5438   */\n      dup3\n        /* \"#utility.yul\":5434:5435   */\n      dup3\n        /* \"#utility.yul\":5430:5439   */\n      sub\n        /* \"#utility.yul\":5422:5439   */\n      swap1\n      pop\n        /* \"#utility.yul\":5461:5462   */\n      dup2\n        /* \"#utility.yul\":5455:5459   */\n      dup2\n        /* \"#utility.yul\":5452:5463   */\n      gt\n        /* \"#utility.yul\":5449:5486   */\n      iszero\n      tag_383\n      jumpi\n        /* \"#utility.yul\":5466:5484   */\n      tag_384\n      tag_328\n      jump\t// in\n    tag_384:\n        /* \"#utility.yul\":5449:5486   */\n    tag_383:\n        /* \"#utility.yul\":5299:5493   */\n      swap3\n      swap2\n      pop\n      pop\n      jump\t// out\n\n    auxdata: 0xa2646970667358221220cb032bb55e86d85b2185d4aeeebb8d478f04c32983d9a49dda346d3387288c7764736f6c634300081f0033\n}\n",
				"bytecode": {
					"linkReferences": {},
					"object": "6080604052348015600e575f5ffd5b5061248e8061001c5f395ff3fe608060405234801561000f575f5ffd5b506004361061003f575f3560e01c80631042664e1461004357806344f636921461005f578063f6d3293a1461008f575b5f5ffd5b61005d6004803603810190610058919061220b565b6100ab565b005b6100796004803603810190610074919061224b565b610346565b6040516100869190612325565b60405180910390f35b6100a960048036038101906100a4919061235f565b6104a5565b005b5f5f6100b683610a61565b915091505f6040516101008682377f087fd653168a951e9d99cba7b3efa5f23cd770aee26310762175569dcd06e8b76101008201527f24f3a1fa7c06a2f2e4a750e8823d93357cb140176680f4d420ab2313250e525e6101208201527f1d6f6d2610943de1ce6a8ba4044e1fa3977593f9e31e4baa211290b1888c5ad96101408201527f281a52f75b48c5f6686c95dd5c635a1ca8152e678485d406528f210bc0756f836101608201527f1225909f34367dd4aaa172433b42e830c989433e1359caa801390e1fc921e17c6101808201527f03a299734a356f04b005b7817a060d69db2ee02978ca7a49910f0c063b24a6256101a08201527f0cdd632a5ebdc4a5ac5e580c6a25ba03396d8a2880c7577b1ca76b82adc67df46101c08201527f190816743b80784e78e7279d2146229d614b95eef924f5c30dd70f1cced26abb6101e08201527f2c37f47e67539af4a79ff97614e32afa8547fab8eabb09f260f2ea1464e3f5196102008201527f22ea03e91dd60412a313e72a0af52d9b5db4df76fc49fecb3919792c42c100aa61022082015283610240820152826102608201527f03e0bc12809be9a55c5d24d5ee90f820006b533601ffa21ea50d9ec823a055dd6102808201527f2f82deaf925710400085bdb950df2e551f9584fa54938ac6047e9b3ce91ae3d26102a08201527f0d55d27e2ab1e0b09cb4af92bb626b883b5abf4525fcea9212cbc963463b9ebc6102c08201527f0578e15bc3320595e5f87ece0e8b821718d6d72e524e070e506b60ea78160f946102e08201526020816103008360085afa9150805182169150508061033f576040517f7fcdd1f400000000000000000000000000000000000000000000000000000000815260040160405180910390fd5b5050505050565b61034e61215a565b610387825f600881106103645761036361239e565b5b60200201358360016008811061037d5761037c61239e565b5b6020020135610f30565b815f6004811061039a5761039961239e565b5b60200201818152505061040f826003600881106103ba576103b961239e565b5b6020020135836002600881106103d3576103d261239e565b5b6020020135846005600881106103ec576103eb61239e565b5b6020020135856004600881106104055761040461239e565b5b60200201356110de565b826002600481106104235761042261239e565b5b602002018360016004811061043b5761043a61239e565b5b6020020182815250828152505050610483826006600881106104605761045f61239e565b5b6020020135836007600881106104795761047861239e565b5b6020020135610f30565b816003600481106104975761049661239e565b5b602002018181525050919050565b6104ad61217c565b5f5f6104cf855f600481106104c5576104c461239e565b5b60200201356116aa565b915091505f5f5f5f610511896002600481106104ee576104ed61239e565b5b60200201358a6001600481106105075761050661239e565b5b60200201356117df565b93509350935093505f5f61053c8b6003600481106105325761053161239e565b5b60200201356116aa565b915091505f5f61054b8c610a61565b91509150898b5f601881106105635761056261239e565b5b602002018181525050888b6001601881106105815761058061239e565b5b602002018181525050868b60026018811061059f5761059e61239e565b5b602002018181525050878b6003601881106105bd576105bc61239e565b5b602002018181525050848b6004601881106105db576105da61239e565b5b602002018181525050858b6005601881106105f9576105f861239e565b5b602002018181525050838b6006601881106106175761061661239e565b5b602002018181525050828b6007601881106106355761063461239e565b5b6020020181815250507f087fd653168a951e9d99cba7b3efa5f23cd770aee26310762175569dcd06e8b78b6008601881106106735761067261239e565b5b6020020181815250507f24f3a1fa7c06a2f2e4a750e8823d93357cb140176680f4d420ab2313250e525e8b6009601881106106b1576106b061239e565b5b6020020181815250507f1d6f6d2610943de1ce6a8ba4044e1fa3977593f9e31e4baa211290b1888c5ad98b600a601881106106ef576106ee61239e565b5b6020020181815250507f281a52f75b48c5f6686c95dd5c635a1ca8152e678485d406528f210bc0756f838b600b6018811061072d5761072c61239e565b5b6020020181815250507f1225909f34367dd4aaa172433b42e830c989433e1359caa801390e1fc921e17c8b600c6018811061076b5761076a61239e565b5b6020020181815250507f03a299734a356f04b005b7817a060d69db2ee02978ca7a49910f0c063b24a6258b600d601881106107a9576107a861239e565b5b6020020181815250507f0cdd632a5ebdc4a5ac5e580c6a25ba03396d8a2880c7577b1ca76b82adc67df48b600e601881106107e7576107e661239e565b5b6020020181815250507f190816743b80784e78e7279d2146229d614b95eef924f5c30dd70f1cced26abb8b600f601881106108255761082461239e565b5b6020020181815250507f2c37f47e67539af4a79ff97614e32afa8547fab8eabb09f260f2ea1464e3f5198b6010601881106108635761086261239e565b5b6020020181815250507f22ea03e91dd60412a313e72a0af52d9b5db4df76fc49fecb3919792c42c100aa8b6011601881106108a1576108a061239e565b5b602002018181525050818b6012601881106108bf576108be61239e565b5b602002018181525050808b6013601881106108dd576108dc61239e565b5b6020020181815250507f03e0bc12809be9a55c5d24d5ee90f820006b533601ffa21ea50d9ec823a055dd8b60146018811061091b5761091a61239e565b5b6020020181815250507f2f82deaf925710400085bdb950df2e551f9584fa54938ac6047e9b3ce91ae3d28b6015601881106109595761095861239e565b5b6020020181815250507f0d55d27e2ab1e0b09cb4af92bb626b883b5abf4525fcea9212cbc963463b9ebc8b6016601881106109975761099661239e565b5b6020020181815250507f0578e15bc3320595e5f87ece0e8b821718d6d72e524e070e506b60ea78160f948b6017601881106109d5576109d461239e565b5b6020020181815250505f6109e761219f565b6020816103008f60085afa9150811580610a1957506001815f60018110610a1157610a1061239e565b5b602002015114155b15610a50576040517f7fcdd1f400000000000000000000000000000000000000000000000000000000815260040160405180910390fd5b505050505050505050505050505050565b5f5f5f60019050604051604081015f7f172482c47db38da1e2adcfac6291550bd451939b7c05e713ce41de479342f63f83527f2dd92e82d6cf0c2b208448ba0b1c34db7487dc263ffd807e5565061fad02c97a60208401527f299dd826f0b28f1022f96e610d6decc9a1c797ee3329e91be327380ebb82a27582527f2354eeb500f78c64806494899d31370e6546540476f9514ebaa7b0ed3b0f67b66020830152863590508060408301527f30644e72e131a029b85045b68181585d2833e84879b9709143e1f593f000000181108416935060408260608460075afa8416935060408360808560065afa841693507f0be2e789bc4109428c010e3e6cb73e450cab508f0f857a84b6c5b7bc8936e41782527f26d6e3250f77c8b96fecc1a3ccd4ccf3dff6caf2174ac0f897202c0962beee4f6020830152602087013590508060408301527f30644e72e131a029b85045b68181585d2833e84879b9709143e1f593f000000181108416935060408260608460075afa8416935060408360808560065afa841693507f2148134645adb557b2eddee4967207d676ba3c44fce9ac61426f420878e5626682527f13a34be592a5c9935d07c3a2cfc750a2089bf5a8a98bb6c3eb1618045dfe69f96020830152604087013590508060408301527f30644e72e131a029b85045b68181585d2833e84879b9709143e1f593f000000181108416935060408260608460075afa8416935060408360808560065afa841693507f2b664d948b59582ece65c95670d4a7ffd2195c9db45be7b196f3c5a3493ccc5982527f14b4a8ee6ffbf93e0f1d0ceceafa21a7b2fa02a16e2cbe29b64b0c6996cd65536020830152606087013590508060408301527f30644e72e131a029b85045b68181585d2833e84879b9709143e1f593f000000181108416935060408260608460075afa8416935060408360808560065afa841693507f0d467a02e07db065feee8ec2e5aaf895edd323d9c9759b0b7bd3cda4360668b782527f0545fd150327a2323164b5b602dbb02a862168964a6ede4bedbee8371493292e6020830152608087013590508060408301527f30644e72e131a029b85045b68181585d2833e84879b9709143e1f593f000000181108416935060408260608460075afa8416935060408360808560065afa841693507f05123f74ca521aadd6ac9b29dfd8a6d3c31b481c3c3f2ff9951e1b89e7fdb28382527f0aadb8338bf27ccc1d8511bfccaac5b66fddb5fdc098db7c3557954371e78bcb602083015260a087013590508060408301527f30644e72e131a029b85045b68181585d2833e84879b9709143e1f593f000000181108416935060408260608460075afa8416935060408360808560065afa841693507f1fb649c157e22261a4f9e93b6d54d70741a003be8760bfc9695fd1837042ed8982527f12e1495b19e55162784f8c0cacb00dcbad6c41c51d11ee36cc3975c5155109c9602083015260c087013590508060408301527f30644e72e131a029b85045b68181585d2833e84879b9709143e1f593f000000181108416935060408260608460075afa8416935060408360808560065afa84169350825195506020830151945050505080610f2a576040517fa54f8e2700000000000000000000000000000000000000000000000000000000815260040160405180910390fd5b50915091565b5f7f30644e72e131a029b85045b68181585d97816a916871ca8d3c208c16d87cfd4783101580610f8057507f30644e72e131a029b85045b68181585d97816a916871ca8d3c208c16d87cfd478210155b15610fb7576040517f7fcdd1f400000000000000000000000000000000000000000000000000000000815260040160405180910390fd5b5f83148015610fc557505f82145b15610fd2575f90506110d8565b5f6110707f30644e72e131a029b85045b68181585d97816a916871ca8d3c208c16d87cfd4780611005576110046123cb565b5b60037f30644e72e131a029b85045b68181585d97816a916871ca8d3c208c16d87cfd4780611036576110356123cb565b5b877f30644e72e131a029b85045b68181585d97816a916871ca8d3c208c16d87cfd4780611066576110656123cb565b5b898a090908611bba565b9050808303611088575f600185901b179150506110d8565b61109181611c56565b83036110a65760018085901b179150506110d8565b6040517f7fcdd1f400000000000000000000000000000000000000000000000000000000815260040160405180910390fd5b92915050565b5f5f7f30644e72e131a029b85045b68181585d97816a916871ca8d3c208c16d87cfd478610158061112f57507f30644e72e131a029b85045b68181585d97816a916871ca8d3c208c16d87cfd478510155b8061115a57507f30644e72e131a029b85045b68181585d97816a916871ca8d3c208c16d87cfd478410155b8061118557507f30644e72e131a029b85045b68181585d97816a916871ca8d3c208c16d87cfd478310155b156111bc576040517f7fcdd1f400000000000000000000000000000000000000000000000000000000815260040160405180910390fd5b5f83858789171717036111d4575f5f915091506116a1565b5f5f5f7f30644e72e131a029b85045b68181585d97816a916871ca8d3c208c16d87cfd4780611206576112056123cb565b5b60037f30644e72e131a029b85045b68181585d97816a916871ca8d3c208c16d87cfd476112339190612425565b7f30644e72e131a029b85045b68181585d97816a916871ca8d3c208c16d87cfd4780611262576112616123cb565b5b8a8c090990505f7f30644e72e131a029b85045b68181585d97816a916871ca8d3c208c16d87cfd4780611298576112976123cb565b5b8a7f30644e72e131a029b85045b68181585d97816a916871ca8d3c208c16d87cfd47806112c8576112c76123cb565b5b8c8d090990505f7f30644e72e131a029b85045b68181585d97816a916871ca8d3c208c16d87cfd47806112fe576112fd6123cb565b5b8a7f30644e72e131a029b85045b68181585d97816a916871ca8d3c208c16d87cfd478061132e5761132d6123cb565b5b8c8d090990507f30644e72e131a029b85045b68181585d97816a916871ca8d3c208c16d87cfd4780611363576113626123cb565b5b7f30644e72e131a029b85045b68181585d97816a916871ca8d3c208c16d87cfd4780611392576113916123cb565b5b7f30644e72e131a029b85045b68181585d97816a916871ca8d3c208c16d87cfd47806113c1576113c06123cb565b5b8c860984087f2b149d40ceb8aaae81be18991be06ac3b5b4c5e559dbefa33267e6dc24a138e50894506114a67f30644e72e131a029b85045b68181585d97816a916871ca8d3c208c16d87cfd478061141c5761141b6123cb565b5b7f30644e72e131a029b85045b68181585d97816a916871ca8d3c208c16d87cfd478061144b5761144a6123cb565b5b7f30644e72e131a029b85045b68181585d97816a916871ca8d3c208c16d87cfd478061147a576114796123cb565b5b8e870984087f2fcd3ac2a640a154eb23960892a85a68f031ca0c8344b23a577dcf1052b9e77508611c56565b93505050505f5f6115497f30644e72e131a029b85045b68181585d97816a916871ca8d3c208c16d87cfd47806114df576114de6123cb565b5b7f30644e72e131a029b85045b68181585d97816a916871ca8d3c208c16d87cfd478061150e5761150d6123cb565b5b8586097f30644e72e131a029b85045b68181585d97816a916871ca8d3c208c16d87cfd47806115405761153f6123cb565b5b87880908611bba565b90506115d67f30644e72e131a029b85045b68181585d97816a916871ca8d3c208c16d87cfd478061157d5761157c6123cb565b5b7f183227397098d014dc2822db40c0ac2ecbc0b548b438e5469e10460b6c3e7ea47f30644e72e131a029b85045b68181585d97816a916871ca8d3c208c16d87cfd47806115cd576115cc6123cb565b5b84880809611cc1565b159150506115e5838383611d2b565b809350819450505082871480156115fb57508186145b15611623575f8161160c575f61160f565b60025b60ff1660028b901b1717945087935061169d565b61162c83611c56565b87148015611641575061163e82611c56565b86145b1561166a57600181611653575f611656565b60025b60ff1660028b901b1717945087935061169c565b6040517f7fcdd1f400000000000000000000000000000000000000000000000000000000815260040160405180910390fd5b5b5050505b94509492505050565b5f5f5f83036116be575f5f915091506117da565b5f6001808516149050600184901c92507f30644e72e131a029b85045b68181585d97816a916871ca8d3c208c16d87cfd478310611727576040517f7fcdd1f400000000000000000000000000000000000000000000000000000000815260040160405180910390fd5b6117c47f30644e72e131a029b85045b68181585d97816a916871ca8d3c208c16d87cfd4780611759576117586123cb565b5b60037f30644e72e131a029b85045b68181585d97816a916871ca8d3c208c16d87cfd478061178a576117896123cb565b5b867f30644e72e131a029b85045b68181585d97816a916871ca8d3c208c16d87cfd47806117ba576117b96123cb565b5b8889090908611bba565b915080156117d8576117d582611c56565b91505b505b915091565b5f5f5f5f5f861480156117f157505f85145b15611807575f5f5f5f9350935093509350611bb1565b5f60018088161490505f6002808916149050600288901c95508694507f30644e72e131a029b85045b68181585d97816a916871ca8d3c208c16d87cfd478610158061187257507f30644e72e131a029b85045b68181585d97816a916871ca8d3c208c16d87cfd478510155b156118a9576040517f7fcdd1f400000000000000000000000000000000000000000000000000000000815260040160405180910390fd5b5f7f30644e72e131a029b85045b68181585d97816a916871ca8d3c208c16d87cfd47806118d9576118d86123cb565b5b60037f30644e72e131a029b85045b68181585d97816a916871ca8d3c208c16d87cfd476119069190612425565b7f30644e72e131a029b85045b68181585d97816a916871ca8d3c208c16d87cfd4780611935576119346123cb565b5b888a090990505f7f30644e72e131a029b85045b68181585d97816a916871ca8d3c208c16d87cfd478061196b5761196a6123cb565b5b887f30644e72e131a029b85045b68181585d97816a916871ca8d3c208c16d87cfd478061199b5761199a6123cb565b5b8a8b090990505f7f30644e72e131a029b85045b68181585d97816a916871ca8d3c208c16d87cfd47806119d1576119d06123cb565b5b887f30644e72e131a029b85045b68181585d97816a916871ca8d3c208c16d87cfd4780611a0157611a006123cb565b5b8a8b090990507f30644e72e131a029b85045b68181585d97816a916871ca8d3c208c16d87cfd4780611a3657611a356123cb565b5b7f30644e72e131a029b85045b68181585d97816a916871ca8d3c208c16d87cfd4780611a6557611a646123cb565b5b7f30644e72e131a029b85045b68181585d97816a916871ca8d3c208c16d87cfd4780611a9457611a936123cb565b5b8a860984087f2b149d40ceb8aaae81be18991be06ac3b5b4c5e559dbefa33267e6dc24a138e5089650611b797f30644e72e131a029b85045b68181585d97816a916871ca8d3c208c16d87cfd4780611aef57611aee6123cb565b5b7f30644e72e131a029b85045b68181585d97816a916871ca8d3c208c16d87cfd4780611b1e57611b1d6123cb565b5b7f30644e72e131a029b85045b68181585d97816a916871ca8d3c208c16d87cfd4780611b4d57611b4c6123cb565b5b8c870984087f2fcd3ac2a640a154eb23960892a85a68f031ca0c8344b23a577dcf1052b9e77508611c56565b9550611b86878786611d2b565b80975081985050508415611bab57611b9d87611c56565b9650611ba886611c56565b95505b50505050505b92959194509250565b5f611be5827f0c19139cb84c680a6e14116da060561765e05aa45a1c72a34f082305b61f3f52612026565b9050817f30644e72e131a029b85045b68181585d97816a916871ca8d3c208c16d87cfd4780611c1757611c166123cb565b5b82830914611c51576040517f7fcdd1f400000000000000000000000000000000000000000000000000000000815260040160405180910390fd5b919050565b5f7f30644e72e131a029b85045b68181585d97816a916871ca8d3c208c16d87cfd47808381611c8857611c876123cb565b5b067f30644e72e131a029b85045b68181585d97816a916871ca8d3c208c16d87cfd470381611cb957611cb86123cb565b5b069050919050565b5f5f611ced837f0c19139cb84c680a6e14116da060561765e05aa45a1c72a34f082305b61f3f52612026565b9050827f30644e72e131a029b85045b68181585d97816a916871ca8d3c208c16d87cfd4780611d1f57611d1e6123cb565b5b82830914915050919050565b5f5f5f611dca7f30644e72e131a029b85045b68181585d97816a916871ca8d3c208c16d87cfd4780611d6057611d5f6123cb565b5b7f30644e72e131a029b85045b68181585d97816a916871ca8d3c208c16d87cfd4780611d8f57611d8e6123cb565b5b8788097f30644e72e131a029b85045b68181585d97816a916871ca8d3c208c16d87cfd4780611dc157611dc06123cb565b5b898a0908611bba565b90508315611dde57611ddb81611c56565b90505b611e697f30644e72e131a029b85045b68181585d97816a916871ca8d3c208c16d87cfd4780611e1057611e0f6123cb565b5b7f183227397098d014dc2822db40c0ac2ecbc0b548b438e5469e10460b6c3e7ea47f30644e72e131a029b85045b68181585d97816a916871ca8d3c208c16d87cfd4780611e6057611e5f6123cb565b5b848a0809611bba565b92507f30644e72e131a029b85045b68181585d97816a916871ca8d3c208c16d87cfd4780611e9a57611e996123cb565b5b611ed57f30644e72e131a029b85045b68181585d97816a916871ca8d3c208c16d87cfd4780611ecc57611ecb6123cb565b5b600286096120bd565b860991507f30644e72e131a029b85045b68181585d97816a916871ca8d3c208c16d87cfd4780611f0857611f076123cb565b5b611f427f30644e72e131a029b85045b68181585d97816a916871ca8d3c208c16d87cfd4780611f3a57611f396123cb565b5b848509611c56565b7f30644e72e131a029b85045b68181585d97816a916871ca8d3c208c16d87cfd4780611f7157611f706123cb565b5b8586090886141580611fe657507f30644e72e131a029b85045b68181585d97816a916871ca8d3c208c16d87cfd4780611fad57611fac6123cb565b5b7f30644e72e131a029b85045b68181585d97816a916871ca8d3c208c16d87cfd4780611fdc57611fdb6123cb565b5b8385096002098514155b1561201d576040517f7fcdd1f400000000000000000000000000000000000000000000000000000000815260040160405180910390fd5b50935093915050565b5f5f60405160208152602080820152602060408201528460608201528360808201527f30644e72e131a029b85045b68181585d97816a916871ca8d3c208c16d87cfd4760a082015260208160c08360055afa91508051925050806120b6576040517f7fcdd1f400000000000000000000000000000000000000000000000000000000815260040160405180910390fd5b5092915050565b5f6120e8827f30644e72e131a029b85045b68181585d97816a916871ca8d3c208c16d87cfd45612026565b905060017f30644e72e131a029b85045b68181585d97816a916871ca8d3c208c16d87cfd478061211b5761211a6123cb565b5b82840914612155576040517f7fcdd1f400000000000000000000000000000000000000000000000000000000815260040160405180910390fd5b919050565b6040518060800160405280600490602082028036833780820191505090505090565b604051806103000160405280601890602082028036833780820191505090505090565b6040518060200160405280600190602082028036833780820191505090505090565b5f5ffd5b5f5ffd5b5f819050826020600802820111156121e4576121e36121c5565b5b92915050565b5f81905082602060070282011115612205576122046121c5565b5b92915050565b5f5f6101e08385031215612222576122216121c1565b5b5f61222f858286016121c9565b925050610100612241858286016121ea565b9150509250929050565b5f6101008284031215612261576122606121c1565b5b5f61226e848285016121c9565b91505092915050565b5f60049050919050565b5f81905092915050565b5f819050919050565b5f819050919050565b6122a681612294565b82525050565b5f6122b7838361229d565b60208301905092915050565b5f602082019050919050565b6122d881612277565b6122e28184612281565b92506122ed8261228b565b805f5b8381101561231d57815161230487826122ac565b965061230f836122c3565b9250506001810190506122f0565b505050505050565b5f6080820190506123385f8301846122cf565b92915050565b5f81905082602060040282011115612359576123586121c5565b5b92915050565b5f5f6101608385031215612376576123756121c1565b5b5f6123838582860161233e565b9250506080612394858286016121ea565b9150509250929050565b7f4e487b71000000000000000000000000000000000000000000000000000000005f52603260045260245ffd5b7f4e487b71000000000000000000000000000000000000000000000000000000005f52601260045260245ffd5b7f4e487b71000000000000000000000000000000000000000000000000000000005f52601160045260245ffd5b5f61242f82612294565b915061243a83612294565b9250828203905081811115612452576124516123f8565b5b9291505056fea2646970667358221220cb032bb55e86d85b2185d4aeeebb8d478f04c32983d9a49dda346d3387288c7764736f6c634300081f0033",
					"opcodes": "PUSH1 0x80 PUSH1 0x40 MSTORE CALLVALUE DUP1 ISZERO PUSH1 0xE JUMPI PUSH0 PUSH0 REVERT JUMPDEST POP PUSH2 0x248E DUP1 PUSH2 0x1C PUSH0 CODECOPY PUSH0 RETURN INVALID PUSH1 0x80 PUSH1 0x40 MSTORE CALLVALUE DUP1 ISZERO PUSH2 0xF JUMPI PUSH0 PUSH0 REVERT JUMPDEST POP PUSH1 0x4 CALLDATASIZE LT PUSH2 0x3F JUMPI PUSH0 CALLDATALOAD PUSH1 0xE0 SHR DUP1 PUSH4 0x1042664E EQ PUSH2 0x43 JUMPI DUP1 PUSH4 0x44F63692 EQ PUSH2 0x5F JUMPI DUP1 PUSH4 0xF6D3293A EQ PUSH2 0x8F JUMPI JUMPDEST PUSH0 PUSH0 REVERT JUMPDEST PUSH2 0x5D PUSH1 0x4 DUP1 CALLDATASIZE SUB DUP2 ADD SWAP1 PUSH2 0x58 SWAP2 SWAP1 PUSH2 0x220B JUMP JUMPDEST PUSH2 0xAB JUMP JUMPDEST STOP JUMPDEST PUSH2 0x79 PUSH1 0x4 DUP1 CALLDATASIZE SUB DUP2 ADD SWAP1 PUSH2 0x74 SWAP2 SWAP1 PUSH2 0x224B JUMP JUMPDEST PUSH2 0x346 JUMP JUMPDEST PUSH1 0x40 MLOAD PUSH2 0x86 SWAP2 SWAP1 PUSH2 0x2325 JUMP JUMPDEST PUSH1 0x40 MLOAD DUP1 SWAP2 SUB SWAP1 RETURN JUMPDEST PUSH2 0xA9 PUSH1 0x4 DUP1 CALLDATASIZE SUB DUP2 ADD SWAP1 PUSH2 0xA4 SWAP2 SWAP1 PUSH2 0x235F JUMP JUMPDEST PUSH2 0x4A5 JUMP JUMPDEST STOP JUMPDEST PUSH0 PUSH0 PUSH2 0xB6 DUP4 PUSH2 0xA61 JUMP JUMPDEST SWAP2 POP SWAP2 POP PUSH0 PUSH1 0x40 MLOAD PUSH2 0x100 DUP7 DUP3 CALLDATACOPY PUSH32 0x87FD653168A951E9D99CBA7B3EFA5F23CD770AEE26310762175569DCD06E8B7 PUSH2 0x100 DUP3 ADD MSTORE PUSH32 0x24F3A1FA7C06A2F2E4A750E8823D93357CB140176680F4D420AB2313250E525E PUSH2 0x120 DUP3 ADD MSTORE PUSH32 0x1D6F6D2610943DE1CE6A8BA4044E1FA3977593F9E31E4BAA211290B1888C5AD9 PUSH2 0x140 DUP3 ADD MSTORE PUSH32 0x281A52F75B48C5F6686C95DD5C635A1CA8152E678485D406528F210BC0756F83 PUSH2 0x160 DUP3 ADD MSTORE PUSH32 0x1225909F34367DD4AAA172433B42E830C989433E1359CAA801390E1FC921E17C PUSH2 0x180 DUP3 ADD MSTORE PUSH32 0x3A299734A356F04B005B7817A060D69DB2EE02978CA7A49910F0C063B24A625 PUSH2 0x1A0 DUP3 ADD MSTORE PUSH32 0xCDD632A5EBDC4A5AC5E580C6A25BA03396D8A2880C7577B1CA76B82ADC67DF4 PUSH2 0x1C0 DUP3 ADD MSTORE PUSH32 0x190816743B80784E78E7279D2146229D614B95EEF924F5C30DD70F1CCED26ABB PUSH2 0x1E0 DUP3 ADD MSTORE PUSH32 0x2C37F47E67539AF4A79FF97614E32AFA8547FAB8EABB09F260F2EA1464E3F519 PUSH2 0x200 DUP3 ADD MSTORE PUSH32 0x22EA03E91DD60412A313E72A0AF52D9B5DB4DF76FC49FECB3919792C42C100AA PUSH2 0x220 DUP3 ADD MSTORE DUP4 PUSH2 0x240 DUP3 ADD MSTORE DUP3 PUSH2 0x260 DUP3 ADD MSTORE PUSH32 0x3E0BC12809BE9A55C5D24D5EE90F820006B533601FFA21EA50D9EC823A055DD PUSH2 0x280 DUP3 ADD MSTORE PUSH32 0x2F82DEAF925710400085BDB950DF2E551F9584FA54938AC6047E9B3CE91AE3D2 PUSH2 0x2A0 DUP3 ADD MSTORE PUSH32 0xD55D27E2AB1E0B09CB4AF92BB626B883B5ABF4525FCEA9212CBC963463B9EBC PUSH2 0x2C0 DUP3 ADD MSTORE PUSH32 0x578E15BC3320595E5F87ECE0E8B821718D6D72E524E070E506B60EA78160F94 PUSH2 0x2E0 DUP3 ADD MSTORE PUSH1 0x20 DUP2 PUSH2 0x300 DUP4 PUSH1 0x8 GAS STATICCALL SWAP2 POP DUP1 MLOAD DUP3 AND SWAP2 POP POP DUP1 PUSH2 0x33F JUMPI PUSH1 0x40 MLOAD PUSH32 0x7FCDD1F400000000000000000000000000000000000000000000000000000000 DUP2 MSTORE PUSH1 0x4 ADD PUSH1 0x40 MLOAD DUP1 SWAP2 SUB SWAP1 REVERT JUMPDEST POP POP POP POP POP JUMP JUMPDEST PUSH2 0x34E PUSH2 0x215A JUMP JUMPDEST PUSH2 0x387 DUP3 PUSH0 PUSH1 0x8 DUP2 LT PUSH2 0x364 JUMPI PUSH2 0x363 PUSH2 0x239E JUMP JUMPDEST JUMPDEST PUSH1 0x20 MUL ADD CALLDATALOAD DUP4 PUSH1 0x1 PUSH1 0x8 DUP2 LT PUSH2 0x37D JUMPI PUSH2 0x37C PUSH2 0x239E JUMP JUMPDEST JUMPDEST PUSH1 0x20 MUL ADD CALLDATALOAD PUSH2 0xF30 JUMP JUMPDEST DUP2 PUSH0 PUSH1 0x4 DUP2 LT PUSH2 0x39A JUMPI PUSH2 0x399 PUSH2 0x239E JUMP JUMPDEST JUMPDEST PUSH1 0x20 MUL ADD DUP2 DUP2 MSTORE POP POP PUSH2 0x40F DUP3 PUSH1 0x3 PUSH1 0x8 DUP2 LT PUSH2 0x3BA JUMPI PUSH2 0x3B9 PUSH2 0x239E JUMP JUMPDEST JUMPDEST PUSH1 0x20 MUL ADD CALLDATALOAD DUP4 PUSH1 0x2 PUSH1 0x8 DUP2 LT PUSH2 0x3D3 JUMPI PUSH2 0x3D2 PUSH2 0x239E JUMP JUMPDEST JUMPDEST PUSH1 0x20 MUL ADD CALLDATALOAD DUP5 PUSH1 0x5 PUSH1 0x8 DUP2 LT PUSH2 0x3EC JUMPI PUSH2 0x3EB PUSH2 0x239E JUMP JUMPDEST JUMPDEST PUSH1 0x20 MUL ADD CALLDATALOAD DUP6 PUSH1 0x4 PUSH1 0x8 DUP2 LT PUSH2 0x405 JUMPI PUSH2 0x404 PUSH2 0x239E JUMP JUMPDEST JUMPDEST PUSH1 0x20 MUL ADD CALLDATALOAD PUSH2 0x10DE JUMP JUMPDEST DUP3 PUSH1 0x2 PUSH1 0x4 DUP2 LT PUSH2 0x423 JUMPI PUSH2 0x422 PUSH2 0x239E JUMP JUMPDEST JUMPDEST PUSH1 0x20 MUL ADD DUP4 PUSH1 0x1 PUSH1 0x4 DUP2 LT PUSH2 0x43B JUMPI PUSH2 0x43A PUSH2 0x239E JUMP JUMPDEST JUMPDEST PUSH1 0x20 MUL ADD DUP3 DUP2 MSTORE POP DUP3 DUP2 MSTORE POP POP POP PUSH2 0x483 DUP3 PUSH1 0x6 PUSH1 0x8 DUP2 LT PUSH2 0x460 JUMPI PUSH2 0x45F PUSH2 0x239E JUMP JUMPDEST JUMPDEST PUSH1 0x20 MUL ADD CALLDATALOAD DUP4 PUSH1 0x7 PUSH1 0x8 DUP2 LT PUSH2 0x479 JUMPI PUSH2 0x478 PUSH2 0x239E JUMP JUMPDEST JUMPDEST PUSH1 0x20 MUL ADD CALLDATALOAD PUSH2 0xF30 JUMP JUMPDEST DUP2 PUSH1 0x3 PUSH1 0x4 DUP2 LT PUSH2 0x497 JUMPI PUSH2 0x496 PUSH2 0x239E JUMP JUMPDEST JUMPDEST PUSH1 0x20 MUL ADD DUP2 DUP2 MSTORE POP POP SWAP2 SWAP1 POP JUMP JUMPDEST PUSH2 0x4AD PUSH2 0x217C JUMP JUMPDEST PUSH0 PUSH0 PUSH2 0x4CF DUP6 PUSH0 PUSH1 0x4 DUP2 LT PUSH2 0x4C5 JUMPI PUSH2 0x4C4 PUSH2 0x239E JUMP JUMPDEST JUMPDEST PUSH1 0x20 MUL ADD CALLDATALOAD PUSH2 0x16AA JUMP JUMPDEST SWAP2 POP SWAP2 POP PUSH0 PUSH0 PUSH0 PUSH0 PUSH2 0x511 DUP10 PUSH1 0x2 PUSH1 0x4 DUP2 LT PUSH2 0x4EE JUMPI PUSH2 0x4ED PUSH2 0x239E JUMP JUMPDEST JUMPDEST PUSH1 0x20 MUL ADD CALLDATALOAD DUP11 PUSH1 0x1 PUSH1 0x4 DUP2 LT PUSH2 0x507 JUMPI PUSH2 0x506 PUSH2 0x239E JUMP JUMPDEST JUMPDEST PUSH1 0x20 MUL ADD CALLDATALOAD PUSH2 0x17DF JUMP JUMPDEST SWAP4 POP SWAP4 POP SWAP4 POP SWAP4 POP PUSH0 PUSH0 PUSH2 0x53C DUP12 PUSH1 0x3 PUSH1 0x4 DUP2 LT PUSH2 0x532 JUMPI PUSH2 0x531 PUSH2 0x239E JUMP JUMPDEST JUMPDEST PUSH1 0x20 MUL ADD CALLDATALOAD PUSH2 0x16AA JUMP JUMPDEST SWAP2 POP SWAP2 POP PUSH0 PUSH0 PUSH2 0x54B DUP13 PUSH2 0xA61 JUMP JUMPDEST SWAP2 POP SWAP2 POP DUP10 DUP12 PUSH0 PUSH1 0x18 DUP2 LT PUSH2 0x563 JUMPI PUSH2 0x562 PUSH2 0x239E JUMP JUMPDEST JUMPDEST PUSH1 0x20 MUL ADD DUP2 DUP2 MSTORE POP POP DUP9 DUP12 PUSH1 0x1 PUSH1 0x18 DUP2 LT PUSH2 0x581 JUMPI PUSH2 0x580 PUSH2 0x239E JUMP JUMPDEST JUMPDEST PUSH1 0x20 MUL ADD DUP2 DUP2 MSTORE POP POP DUP7 DUP12 PUSH1 0x2 PUSH1 0x18 DUP2 LT PUSH2 0x59F JUMPI PUSH2 0x59E PUSH2 0x239E JUMP JUMPDEST JUMPDEST PUSH1 0x20 MUL ADD DUP2 DUP2 MSTORE POP POP DUP8 DUP12 PUSH1 0x3 PUSH1 0x18 DUP2 LT PUSH2 0x5BD JUMPI PUSH2 0x5BC PUSH2 0x239E JUMP JUMPDEST JUMPDEST PUSH1 0x20 MUL ADD DUP2 DUP2 MSTORE POP POP DUP5 DUP12 PUSH1 0x4 PUSH1 0x18 DUP2 LT PUSH2 0x5DB JUMPI PUSH2 0x5DA PUSH2 0x239E JUMP JUMPDEST JUMPDEST PUSH1 0x20 MUL ADD DUP2 DUP2 MSTORE POP POP DUP6 DUP12 PUSH1 0x5 PUSH1 0x18 DUP2 LT PUSH2 0x5F9 JUMPI PUSH2 0x5F8 PUSH2 0x239E JUMP JUMPDEST JUMPDEST PUSH1 0x20 MUL ADD DUP2 DUP2 MSTORE POP POP DUP4 DUP12 PUSH1 0x6 PUSH1 0x18 DUP2 LT PUSH2 0x617 JUMPI PUSH2 0x616 PUSH2 0x239E JUMP JUMPDEST JUMPDEST PUSH1 0x20 MUL ADD DUP2 DUP2 MSTORE POP POP DUP3 DUP12 PUSH1 0x7 PUSH1 0x18 DUP2 LT PUSH2 0x635 JUMPI PUSH2 0x634 PUSH2 0x239E JUMP JUMPDEST JUMPDEST PUSH1 0x20 MUL ADD DUP2 DUP2 MSTORE POP POP PUSH32 0x87FD653168A951E9D99CBA7B3EFA5F23CD770AEE26310762175569DCD06E8B7 DUP12 PUSH1 0x8 PUSH1 0x18 DUP2 LT PUSH2 0x673 JUMPI PUSH2 0x672 PUSH2 0x239E JUMP JUMPDEST JUMPDEST PUSH1 0x20 MUL ADD DUP2 DUP2 MSTORE POP POP PUSH32 0x24F3A1FA7C06A2F2E4A750E8823D93357CB140176680F4D420AB2313250E525E DUP12 PUSH1 0x9 PUSH1 0x18 DUP2 LT PUSH2 0x6B1 JUMPI PUSH2 0x6B0 PUSH2 0x239E JUMP JUMPDEST JUMPDEST PUSH1 0x20 MUL ADD DUP2 DUP2 MSTORE POP POP PUSH32 0x1D6F6D2610943DE1CE6A8BA4044E1FA3977593F9E31E4BAA211290B1888C5AD9 DUP12 PUSH1 0xA PUSH1 0x18 DUP2 LT PUSH2 0x6EF JUMPI PUSH2 0x6EE PUSH2 0x239E JUMP JUMPDEST JUMPDEST PUSH1 0x20 MUL ADD DUP2 DUP2 MSTORE POP POP PUSH32 0x281A52F75B48C5F6686C95DD5C635A1CA8152E678485D406528F210BC0756F83 DUP12 PUSH1 0xB PUSH1 0x18 DUP2 LT PUSH2 0x72D JUMPI PUSH2 0x72C PUSH2 0x239E JUMP JUMPDEST JUMPDEST PUSH1 0x20 MUL ADD DUP2 DUP2 MSTORE POP POP PUSH32 0x1225909F34367DD4AAA172433B42E830C989433E1359CAA801390E1FC921E17C DUP12 PUSH1 0xC PUSH1 0x18 DUP2 LT PUSH2 0x76B JUMPI PUSH2 0x76A PUSH2 0x239E JUMP JUMPDEST JUMPDEST PUSH1 0x20 MUL ADD DUP2 DUP2 MSTORE POP POP PUSH32 0x3A299734A356F04B005B7817A060D69DB2EE02978CA7A49910F0C063B24A625 DUP12 PUSH1 0xD PUSH1 0x18 DUP2 LT PUSH2 0x7A9 JUMPI PUSH2 0x7A8 PUSH2 0x239E JUMP JUMPDEST JUMPDEST PUSH1 0x20 MUL ADD DUP2 DUP2 MSTORE POP POP PUSH32 0xCDD632A5EBDC4A5AC5E580C6A25BA03396D8A2880C7577B1CA76B82ADC67DF4 DUP12 PUSH1 0xE PUSH1 0x18 DUP2 LT PUSH2 0x7E7 JUMPI PUSH2 0x7E6 PUSH2 0x239E JUMP JUMPDEST JUMPDEST PUSH1 0x20 MUL ADD DUP2 DUP2 MSTORE POP POP PUSH32 0x190816743B80784E78E7279D2146229D614B95EEF924F5C30DD70F1CCED26ABB DUP12 PUSH1 0xF PUSH1 0x18 DUP2 LT PUSH2 0x825 JUMPI PUSH2 0x824 PUSH2 0x239E JUMP JUMPDEST JUMPDEST PUSH1 0x20 MUL ADD DUP2 DUP2 MSTORE POP POP PUSH32 0x2C37F47E67539AF4A79FF97614E32AFA8547FAB8EABB09F260F2EA1464E3F519 DUP12 PUSH1 0x10 PUSH1 0x18 DUP2 LT PUSH2 0x863 JUMPI PUSH2 0x862 PUSH2 0x239E JUMP JUMPDEST JUMPDEST PUSH1 0x20 MUL ADD DUP2 DUP2 MSTORE POP POP PUSH32 0x22EA03E91DD60412A313E72A0AF52D9B5DB4DF76FC49FECB3919792C42C100AA DUP12 PUSH1 0x11 PUSH1 0x18 DUP2 LT PUSH2 0x8A1 JUMPI PUSH2 0x8A0 PUSH2 0x239E JUMP JUMPDEST JUMPDEST PUSH1 0x20 MUL ADD DUP2 DUP2 MSTORE POP POP DUP2 DUP12 PUSH1 0x12 PUSH1 0x18 DUP2 LT PUSH2 0x8BF JUMPI PUSH2 0x8BE PUSH2 0x239E JUMP JUMPDEST JUMPDEST PUSH1 0x20 MUL ADD DUP2 DUP2 MSTORE POP POP DUP1 DUP12 PUSH1 0x13 PUSH1 0x18 DUP2 LT PUSH2 0x8DD JUMPI PUSH2 0x8DC PUSH2 0x239E JUMP JUMPDEST JUMPDEST PUSH1 0x20 MUL ADD DUP2 DUP2 MSTORE POP POP PUSH32 0x3E0BC12809BE9A55C5D24D5EE90F820006B533601FFA21EA50D9EC823A055DD DUP12 PUSH1 0x14 PUSH1 0x18 DUP2 LT PUSH2 0x91B JUMPI PUSH2 0x91A PUSH2 0x239E JUMP JUMPDEST JUMPDEST PUSH1 0x20 MUL ADD DUP2 DUP2 MSTORE POP POP PUSH32 0x2F82DEAF925710400085BDB950DF2E551F9584FA54938AC6047E9B3CE91AE3D2 DUP12 PUSH1 0x15 PUSH1 0x18 DUP2 LT PUSH2 0x959 JUMPI PUSH2 0x958 PUSH2 0x239E JUMP JUMPDEST JUMPDEST PUSH1 0x20 MUL ADD DUP2 DUP2 MSTORE POP POP PUSH32 0xD55D27E2AB1E0B09CB4AF92BB626B883B5ABF4525FCEA9212CBC963463B9EBC DUP12 PUSH1 0x16 PUSH1 0x18 DUP2 LT PUSH2 0x997 JUMPI PUSH2 0x996 PUSH2 0x239E JUMP JUMPDEST JUMPDEST PUSH1 0x20 MUL ADD DUP2 DUP2 MSTORE POP POP PUSH32 0x578E15BC3320595E5F87ECE0E8B821718D6D72E524E070E506B60EA78160F94 DUP12 PUSH1 0x17 PUSH1 0x18 DUP2 LT PUSH2 0x9D5 JUMPI PUSH2 0x9D4 PUSH2 0x239E JUMP JUMPDEST JUMPDEST PUSH1 0x20 MUL ADD DUP2 DUP2 MSTORE POP POP PUSH0 PUSH2 0x9E7 PUSH2 0x219F JUMP JUMPDEST PUSH1 0x20 DUP2 PUSH2 0x300 DUP16 PUSH1 0x8 GAS STATICCALL SWAP2 POP DUP2 ISZERO DUP1 PUSH2 0xA19 JUMPI POP PUSH1 0x1 DUP2 PUSH0 PUSH1 0x1 DUP2 LT PUSH2 0xA11 JUMPI PUSH2 0xA10 PUSH2 0x239E JUMP JUMPDEST JUMPDEST PUSH1 0x20 MUL ADD MLOAD EQ ISZERO JUMPDEST ISZERO PUSH2 0xA50 JUMPI PUSH1 0x40 MLOAD PUSH32 0x7FCDD1F400000000000000000000000000000000000000000000000000000000 DUP2 MSTORE PUSH1 0x4 ADD PUSH1 0x40 MLOAD DUP1 SWAP2 SUB SWAP1 REVERT JUMPDEST POP POP POP POP POP POP POP POP POP POP POP POP POP POP POP JUMP JUMPDEST PUSH0 PUSH0 PUSH0 PUSH1 0x1 SWAP1 POP PUSH1 0x40 MLOAD PUSH1 0x40 DUP2 ADD PUSH0 PUSH32 0x172482C47DB38DA1E2ADCFAC6291550BD451939B7C05E713CE41DE479342F63F DUP4 MSTORE PUSH32 0x2DD92E82D6CF0C2B208448BA0B1C34DB7487DC263FFD807E5565061FAD02C97A PUSH1 0x20 DUP5 ADD MSTORE PUSH32 0x299DD826F0B28F1022F96E610D6DECC9A1C797EE3329E91BE327380EBB82A275 DUP3 MSTORE PUSH32 0x2354EEB500F78C64806494899D31370E6546540476F9514EBAA7B0ED3B0F67B6 PUSH1 0x20 DUP4 ADD MSTORE DUP7 CALLDATALOAD SWAP1 POP DUP1 PUSH1 0x40 DUP4 ADD MSTORE PUSH32 0x30644E72E131A029B85045B68181585D2833E84879B9709143E1F593F0000001 DUP2 LT DUP5 AND SWAP4 POP PUSH1 0x40 DUP3 PUSH1 0x60 DUP5 PUSH1 0x7 GAS STATICCALL DUP5 AND SWAP4 POP PUSH1 0x40 DUP4 PUSH1 0x80 DUP6 PUSH1 0x6 GAS STATICCALL DUP5 AND SWAP4 POP PUSH32 0xBE2E789BC4109428C010E3E6CB73E450CAB508F0F857A84B6C5B7BC8936E417 DUP3 MSTORE PUSH32 0x26D6E3250F77C8B96FECC1A3CCD4CCF3DFF6CAF2174AC0F897202C0962BEEE4F PUSH1 0x20 DUP4 ADD MSTORE PUSH1 0x20 DUP8 ADD CALLDATALOAD SWAP1 POP DUP1 PUSH1 0x40 DUP4 ADD MSTORE PUSH32 0x30644E72E131A029B85045B68181585D2833E84879B9709143E1F593F0000001 DUP2 LT DUP5 AND SWAP4 POP PUSH1 0x40 DUP3 PUSH1 0x60 DUP5 PUSH1 0x7 GAS STATICCALL DUP5 AND SWAP4 POP PUSH1 0x40 DUP4 PUSH1 0x80 DUP6 PUSH1 0x6 GAS STATICCALL DUP5 AND SWAP4 POP PUSH32 0x2148134645ADB557B2EDDEE4967207D676BA3C44FCE9AC61426F420878E56266 DUP3 MSTORE PUSH32 0x13A34BE592A5C9935D07C3A2CFC750A2089BF5A8A98BB6C3EB1618045DFE69F9 PUSH1 0x20 DUP4 ADD MSTORE PUSH1 0x40 DUP8 ADD CALLDATALOAD SWAP1 POP DUP1 PUSH1 0x40 DUP4 ADD MSTORE PUSH32 0x30644E72E131A029B85045B68181585D2833E84879B9709143E1F593F0000001 DUP2 LT DUP5 AND SWAP4 POP PUSH1 0x40 DUP3 PUSH1 0x60 DUP5 PUSH1 0x7 GAS STATICCALL DUP5 AND SWAP4 POP PUSH1 0x40 DUP4 PUSH1 0x80 DUP6 PUSH1 0x6 GAS STATICCALL DUP5 AND SWAP4 POP PUSH32 0x2B664D948B59582ECE65C95670D4A7FFD2195C9DB45BE7B196F3C5A3493CCC59 DUP3 MSTORE PUSH32 0x14B4A8EE6FFBF93E0F1D0CECEAFA21A7B2FA02A16E2CBE29B64B0C6996CD6553 PUSH1 0x20 DUP4 ADD MSTORE PUSH1 0x60 DUP8 ADD CALLDATALOAD SWAP1 POP DUP1 PUSH1 0x40 DUP4 ADD MSTORE PUSH32 0x30644E72E131A029B85045B68181585D2833E84879B9709143E1F593F0000001 DUP2 LT DUP5 AND SWAP4 POP PUSH1 0x40 DUP3 PUSH1 0x60 DUP5 PUSH1 0x7 GAS STATICCALL DUP5 AND SWAP4 POP PUSH1 0x40 DUP4 PUSH1 0x80 DUP6 PUSH1 0x6 GAS STATICCALL DUP5 AND SWAP4 POP PUSH32 0xD467A02E07DB065FEEE8EC2E5AAF895EDD323D9C9759B0B7BD3CDA4360668B7 DUP3 MSTORE PUSH32 0x545FD150327A2323164B5B602DBB02A862168964A6EDE4BEDBEE8371493292E PUSH1 0x20 DUP4 ADD MSTORE PUSH1 0x80 DUP8 ADD CALLDATALOAD SWAP1 POP DUP1 PUSH1 0x40 DUP4 ADD MSTORE PUSH32 0x30644E72E131A029B85045B68181585D2833E84879B9709143E1F593F0000001 DUP2 LT DUP5 AND SWAP4 POP PUSH1 0x40 DUP3 PUSH1 0x60 DUP5 PUSH1 0x7 GAS STATICCALL DUP5 AND SWAP4 POP PUSH1 0x40 DUP4 PUSH1 0x80 DUP6 PUSH1 0x6 GAS STATICCALL DUP5 AND SWAP4 POP PUSH32 0x5123F74CA521AADD6AC9B29DFD8A6D3C31B481C3C3F2FF9951E1B89E7FDB283 DUP3 MSTORE PUSH32 0xAADB8338BF27CCC1D8511BFCCAAC5B66FDDB5FDC098DB7C3557954371E78BCB PUSH1 0x20 DUP4 ADD MSTORE PUSH1 0xA0 DUP8 ADD CALLDATALOAD SWAP1 POP DUP1 PUSH1 0x40 DUP4 ADD MSTORE PUSH32 0x30644E72E131A029B85045B68181585D2833E84879B9709143E1F593F0000001 DUP2 LT DUP5 AND SWAP4 POP PUSH1 0x40 DUP3 PUSH1 0x60 DUP5 PUSH1 0x7 GAS STATICCALL DUP5 AND SWAP4 POP PUSH1 0x40 DUP4 PUSH1 0x80 DUP6 PUSH1 0x6 GAS STATICCALL DUP5 AND SWAP4 POP PUSH32 0x1FB649C157E22261A4F9E93B6D54D70741A003BE8760BFC9695FD1837042ED89 DUP3 MSTORE PUSH32 0x12E1495B19E55162784F8C0CACB00DCBAD6C41C51D11EE36CC3975C5155109C9 PUSH1 0x20 DUP4 ADD MSTORE PUSH1 0xC0 DUP8 ADD CALLDATALOAD SWAP1 POP DUP1 PUSH1 0x40 DUP4 ADD MSTORE PUSH32 0x30644E72E131A029B85045B68181585D2833E84879B9709143E1F593F0000001 DUP2 LT DUP5 AND SWAP4 POP PUSH1 0x40 DUP3 PUSH1 0x60 DUP5 PUSH1 0x7 GAS STATICCALL DUP5 AND SWAP4 POP PUSH1 0x40 DUP4 PUSH1 0x80 DUP6 PUSH1 0x6 GAS STATICCALL DUP5 AND SWAP4 POP DUP3 MLOAD SWAP6 POP PUSH1 0x20 DUP4 ADD MLOAD SWAP5 POP POP POP POP DUP1 PUSH2 0xF2A JUMPI PUSH1 0x40 MLOAD PUSH32 0xA54F8E2700000000000000000000000000000000000000000000000000000000 DUP2 MSTORE PUSH1 0x4 ADD PUSH1 0x40 MLOAD DUP1 SWAP2 SUB SWAP1 REVERT JUMPDEST POP SWAP2 POP SWAP2 JUMP JUMPDEST PUSH0 PUSH32 0x30644E72E131A029B85045B68181585D97816A916871CA8D3C208C16D87CFD47 DUP4 LT ISZERO DUP1 PUSH2 0xF80 JUMPI POP PUSH32 0x30644E72E131A029B85045B68181585D97816A916871CA8D3C208C16D87CFD47 DUP3 LT ISZERO JUMPDEST ISZERO PUSH2 0xFB7 JUMPI PUSH1 0x40 MLOAD PUSH32 0x7FCDD1F400000000000000000000000000000000000000000000000000000000 DUP2 MSTORE PUSH1 0x4 ADD PUSH1 0x40 MLOAD DUP1 SWAP2 SUB SWAP1 REVERT JUMPDEST PUSH0 DUP4 EQ DUP1 ISZERO PUSH2 0xFC5 JUMPI POP PUSH0 DUP3 EQ JUMPDEST ISZERO PUSH2 0xFD2 JUMPI PUSH0 SWAP1 POP PUSH2 0x10D8 JUMP JUMPDEST PUSH0 PUSH2 0x1070 PUSH32 0x30644E72E131A029B85045B68181585D97816A916871CA8D3C208C16D87CFD47 DUP1 PUSH2 0x1005 JUMPI PUSH2 0x1004 PUSH2 0x23CB JUMP JUMPDEST JUMPDEST PUSH1 0x3 PUSH32 0x30644E72E131A029B85045B68181585D97816A916871CA8D3C208C16D87CFD47 DUP1 PUSH2 0x1036 JUMPI PUSH2 0x1035 PUSH2 0x23CB JUMP JUMPDEST JUMPDEST DUP8 PUSH32 0x30644E72E131A029B85045B68181585D97816A916871CA8D3C208C16D87CFD47 DUP1 PUSH2 0x1066 JUMPI PUSH2 0x1065 PUSH2 0x23CB JUMP JUMPDEST JUMPDEST DUP10 DUP11 MULMOD MULMOD ADDMOD PUSH2 0x1BBA JUMP JUMPDEST SWAP1 POP DUP1 DUP4 SUB PUSH2 0x1088 JUMPI PUSH0 PUSH1 0x1 DUP6 SWAP1 SHL OR SWAP2 POP POP PUSH2 0x10D8 JUMP JUMPDEST PUSH2 0x1091 DUP2 PUSH2 0x1C56 JUMP JUMPDEST DUP4 SUB PUSH2 0x10A6 JUMPI PUSH1 0x1 DUP1 DUP6 SWAP1 SHL OR SWAP2 POP POP PUSH2 0x10D8 JUMP JUMPDEST PUSH1 0x40 MLOAD PUSH32 0x7FCDD1F400000000000000000000000000000000000000000000000000000000 DUP2 MSTORE PUSH1 0x4 ADD PUSH1 0x40 MLOAD DUP1 SWAP2 SUB SWAP1 REVERT JUMPDEST SWAP3 SWAP2 POP POP JUMP JUMPDEST PUSH0 PUSH0 PUSH32 0x30644E72E131A029B85045B68181585D97816A916871CA8D3C208C16D87CFD47 DUP7 LT ISZERO DUP1 PUSH2 0x112F JUMPI POP PUSH32 0x30644E72E131A029B85045B68181585D97816A916871CA8D3C208C16D87CFD47 DUP6 LT ISZERO JUMPDEST DUP1 PUSH2 0x115A JUMPI POP PUSH32 0x30644E72E131A029B85045B68181585D97816A916871CA8D3C208C16D87CFD47 DUP5 LT ISZERO JUMPDEST DUP1 PUSH2 0x1185 JUMPI POP PUSH32 0x30644E72E131A029B85045B68181585D97816A916871CA8D3C208C16D87CFD47 DUP4 LT ISZERO JUMPDEST ISZERO PUSH2 0x11BC JUMPI PUSH1 0x40 MLOAD PUSH32 0x7FCDD1F400000000000000000000000000000000000000000000000000000000 DUP2 MSTORE PUSH1 0x4 ADD PUSH1 0x40 MLOAD DUP1 SWAP2 SUB SWAP1 REVERT JUMPDEST PUSH0 DUP4 DUP6 DUP8 DUP10 OR OR OR SUB PUSH2 0x11D4 JUMPI PUSH0 PUSH0 SWAP2 POP SWAP2 POP PUSH2 0x16A1 JUMP JUMPDEST PUSH0 PUSH0 PUSH0 PUSH32 0x30644E72E131A029B85045B68181585D97816A916871CA8D3C208C16D87CFD47 DUP1 PUSH2 0x1206 JUMPI PUSH2 0x1205 PUSH2 0x23CB JUMP JUMPDEST JUMPDEST PUSH1 0x3 PUSH32 0x30644E72E131A029B85045B68181585D97816A916871CA8D3C208C16D87CFD47 PUSH2 0x1233 SWAP2 SWAP1 PUSH2 0x2425 JUMP JUMPDEST PUSH32 0x30644E72E131A029B85045B68181585D97816A916871CA8D3C208C16D87CFD47 DUP1 PUSH2 0x1262 JUMPI PUSH2 0x1261 PUSH2 0x23CB JUMP JUMPDEST JUMPDEST DUP11 DUP13 MULMOD MULMOD SWAP1 POP PUSH0 PUSH32 0x30644E72E131A029B85045B68181585D97816A916871CA8D3C208C16D87CFD47 DUP1 PUSH2 0x1298 JUMPI PUSH2 0x1297 PUSH2 0x23CB JUMP JUMPDEST JUMPDEST DUP11 PUSH32 0x30644E72E131A029B85045B68181585D97816A916871CA8D3C208C16D87CFD47 DUP1 PUSH2 0x12C8 JUMPI PUSH2 0x12C7 PUSH2 0x23CB JUMP JUMPDEST JUMPDEST DUP13 DUP14 MULMOD MULMOD SWAP1 POP PUSH0 PUSH32 0x30644E72E131A029B85045B68181585D97816A916871CA8D3C208C16D87CFD47 DUP1 PUSH2 0x12FE JUMPI PUSH2 0x12FD PUSH2 0x23CB JUMP JUMPDEST JUMPDEST DUP11 PUSH32 0x30644E72E131A029B85045B68181585D97816A916871CA8D3C208C16D87CFD47 DUP1 PUSH2 0x132E JUMPI PUSH2 0x132D PUSH2 0x23CB JUMP JUMPDEST JUMPDEST DUP13 DUP14 MULMOD MULMOD SWAP1 POP PUSH32 0x30644E72E131A029B85045B68181585D97816A916871CA8D3C208C16D87CFD47 DUP1 PUSH2 0x1363 JUMPI PUSH2 0x1362 PUSH2 0x23CB JUMP JUMPDEST JUMPDEST PUSH32 0x30644E72E131A029B85045B68181585D97816A916871CA8D3C208C16D87CFD47 DUP1 PUSH2 0x1392 JUMPI PUSH2 0x1391 PUSH2 0x23CB JUMP JUMPDEST JUMPDEST PUSH32 0x30644E72E131A029B85045B68181585D97816A916871CA8D3C208C16D87CFD47 DUP1 PUSH2 0x13C1 JUMPI PUSH2 0x13C0 PUSH2 0x23CB JUMP JUMPDEST JUMPDEST DUP13 DUP7 MULMOD DUP5 ADDMOD PUSH32 0x2B149D40CEB8AAAE81BE18991BE06AC3B5B4C5E559DBEFA33267E6DC24A138E5 ADDMOD SWAP5 POP PUSH2 0x14A6 PUSH32 0x30644E72E131A029B85045B68181585D97816A916871CA8D3C208C16D87CFD47 DUP1 PUSH2 0x141C JUMPI PUSH2 0x141B PUSH2 0x23CB JUMP JUMPDEST JUMPDEST PUSH32 0x30644E72E131A029B85045B68181585D97816A916871CA8D3C208C16D87CFD47 DUP1 PUSH2 0x144B JUMPI PUSH2 0x144A PUSH2 0x23CB JUMP JUMPDEST JUMPDEST PUSH32 0x30644E72E131A029B85045B68181585D97816A916871CA8D3C208C16D87CFD47 DUP1 PUSH2 0x147A JUMPI PUSH2 0x1479 PUSH2 0x23CB JUMP JUMPDEST JUMPDEST DUP15 DUP8 MULMOD DUP5 ADDMOD PUSH32 0x2FCD3AC2A640A154EB23960892A85A68F031CA0C8344B23A577DCF1052B9E775 ADDMOD PUSH2 0x1C56 JUMP JUMPDEST SWAP4 POP POP POP POP PUSH0 PUSH0 PUSH2 0x1549 PUSH32 0x30644E72E131A029B85045B68181585D97816A916871CA8D3C208C16D87CFD47 DUP1 PUSH2 0x14DF JUMPI PUSH2 0x14DE PUSH2 0x23CB JUMP JUMPDEST JUMPDEST PUSH32 0x30644E72E131A029B85045B68181585D97816A916871CA8D3C208C16D87CFD47 DUP1 PUSH2 0x150E JUMPI PUSH2 0x150D PUSH2 0x23CB JUMP JUMPDEST JUMPDEST DUP6 DUP7 MULMOD PUSH32 0x30644E72E131A029B85045B68181585D97816A916871CA8D3C208C16D87CFD47 DUP1 PUSH2 0x1540 JUMPI PUSH2 0x153F PUSH2 0x23CB JUMP JUMPDEST JUMPDEST DUP8 DUP9 MULMOD ADDMOD PUSH2 0x1BBA JUMP JUMPDEST SWAP1 POP PUSH2 0x15D6 PUSH32 0x30644E72E131A029B85045B68181585D97816A916871CA8D3C208C16D87CFD47 DUP1 PUSH2 0x157D JUMPI PUSH2 0x157C PUSH2 0x23CB JUMP JUMPDEST JUMPDEST PUSH32 0x183227397098D014DC2822DB40C0AC2ECBC0B548B438E5469E10460B6C3E7EA4 PUSH32 0x30644E72E131A029B85045B68181585D97816A916871CA8D3C208C16D87CFD47 DUP1 PUSH2 0x15CD JUMPI PUSH2 0x15CC PUSH2 0x23CB JUMP JUMPDEST JUMPDEST DUP5 DUP9 ADDMOD MULMOD PUSH2 0x1CC1 JUMP JUMPDEST ISZERO SWAP2 POP POP PUSH2 0x15E5 DUP4 DUP4 DUP4 PUSH2 0x1D2B JUMP JUMPDEST DUP1 SWAP4 POP DUP2 SWAP5 POP POP POP DUP3 DUP8 EQ DUP1 ISZERO PUSH2 0x15FB JUMPI POP DUP2 DUP7 EQ JUMPDEST ISZERO PUSH2 0x1623 JUMPI PUSH0 DUP2 PUSH2 0x160C JUMPI PUSH0 PUSH2 0x160F JUMP JUMPDEST PUSH1 0x2 JUMPDEST PUSH1 0xFF AND PUSH1 0x2 DUP12 SWAP1 SHL OR OR SWAP5 POP DUP8 SWAP4 POP PUSH2 0x169D JUMP JUMPDEST PUSH2 0x162C DUP4 PUSH2 0x1C56 JUMP JUMPDEST DUP8 EQ DUP1 ISZERO PUSH2 0x1641 JUMPI POP PUSH2 0x163E DUP3 PUSH2 0x1C56 JUMP JUMPDEST DUP7 EQ JUMPDEST ISZERO PUSH2 0x166A JUMPI PUSH1 0x1 DUP2 PUSH2 0x1653 JUMPI PUSH0 PUSH2 0x1656 JUMP JUMPDEST PUSH1 0x2 JUMPDEST PUSH1 0xFF AND PUSH1 0x2 DUP12 SWAP1 SHL OR OR SWAP5 POP DUP8 SWAP4 POP PUSH2 0x169C JUMP JUMPDEST PUSH1 0x40 MLOAD PUSH32 0x7FCDD1F400000000000000000000000000000000000000000000000000000000 DUP2 MSTORE PUSH1 0x4 ADD PUSH1 0x40 MLOAD DUP1 SWAP2 SUB SWAP1 REVERT JUMPDEST JUMPDEST POP POP POP JUMPDEST SWAP5 POP SWAP5 SWAP3 POP POP POP JUMP JUMPDEST PUSH0 PUSH0 PUSH0 DUP4 SUB PUSH2 0x16BE JUMPI PUSH0 PUSH0 SWAP2 POP SWAP2 POP PUSH2 0x17DA JUMP JUMPDEST PUSH0 PUSH1 0x1 DUP1 DUP6 AND EQ SWAP1 POP PUSH1 0x1 DUP5 SWAP1 SHR SWAP3 POP PUSH32 0x30644E72E131A029B85045B68181585D97816A916871CA8D3C208C16D87CFD47 DUP4 LT PUSH2 0x1727 JUMPI PUSH1 0x40 MLOAD PUSH32 0x7FCDD1F400000000000000000000000000000000000000000000000000000000 DUP2 MSTORE PUSH1 0x4 ADD PUSH1 0x40 MLOAD DUP1 SWAP2 SUB SWAP1 REVERT JUMPDEST PUSH2 0x17C4 PUSH32 0x30644E72E131A029B85045B68181585D97816A916871CA8D3C208C16D87CFD47 DUP1 PUSH2 0x1759 JUMPI PUSH2 0x1758 PUSH2 0x23CB JUMP JUMPDEST JUMPDEST PUSH1 0x3 PUSH32 0x30644E72E131A029B85045B68181585D97816A916871CA8D3C208C16D87CFD47 DUP1 PUSH2 0x178A JUMPI PUSH2 0x1789 PUSH2 0x23CB JUMP JUMPDEST JUMPDEST DUP7 PUSH32 0x30644E72E131A029B85045B68181585D97816A916871CA8D3C208C16D87CFD47 DUP1 PUSH2 0x17BA JUMPI PUSH2 0x17B9 PUSH2 0x23CB JUMP JUMPDEST JUMPDEST DUP9 DUP10 MULMOD MULMOD ADDMOD PUSH2 0x1BBA JUMP JUMPDEST SWAP2 POP DUP1 ISZERO PUSH2 0x17D8 JUMPI PUSH2 0x17D5 DUP3 PUSH2 0x1C56 JUMP JUMPDEST SWAP2 POP JUMPDEST POP JUMPDEST SWAP2 POP SWAP2 JUMP JUMPDEST PUSH0 PUSH0 PUSH0 PUSH0 PUSH0 DUP7 EQ DUP1 ISZERO PUSH2 0x17F1 JUMPI POP PUSH0 DUP6 EQ JUMPDEST ISZERO PUSH2 0x1807 JUMPI PUSH0 PUSH0 PUSH0 PUSH0 SWAP4 POP SWAP4 POP SWAP4 POP SWAP4 POP PUSH2 0x1BB1 JUMP JUMPDEST PUSH0 PUSH1 0x1 DUP1 DUP9 AND EQ SWAP1 POP PUSH0 PUSH1 0x2 DUP1 DUP10 AND EQ SWAP1 POP PUSH1 0x2 DUP9 SWAP1 SHR SWAP6 POP DUP7 SWAP5 POP PUSH32 0x30644E72E131A029B85045B68181585D97816A916871CA8D3C208C16D87CFD47 DUP7 LT ISZERO DUP1 PUSH2 0x1872 JUMPI POP PUSH32 0x30644E72E131A029B85045B68181585D97816A916871CA8D3C208C16D87CFD47 DUP6 LT ISZERO JUMPDEST ISZERO PUSH2 0x18A9 JUMPI PUSH1 0x40 MLOAD PUSH32 0x7FCDD1F400000000000000000000000000000000000000000000000000000000 DUP2 MSTORE PUSH1 0x4 ADD PUSH1 0x40 MLOAD DUP1 SWAP2 SUB SWAP1 REVERT JUMPDEST PUSH0 PUSH32 0x30644E72E131A029B85045B68181585D97816A916871CA8D3C208C16D87CFD47 DUP1 PUSH2 0x18D9 JUMPI PUSH2 0x18D8 PUSH2 0x23CB JUMP JUMPDEST JUMPDEST PUSH1 0x3 PUSH32 0x30644E72E131A029B85045B68181585D97816A916871CA8D3C208C16D87CFD47 PUSH2 0x1906 SWAP2 SWAP1 PUSH2 0x2425 JUMP JUMPDEST PUSH32 0x30644E72E131A029B85045B68181585D97816A916871CA8D3C208C16D87CFD47 DUP1 PUSH2 0x1935 JUMPI PUSH2 0x1934 PUSH2 0x23CB JUMP JUMPDEST JUMPDEST DUP9 DUP11 MULMOD MULMOD SWAP1 POP PUSH0 PUSH32 0x30644E72E131A029B85045B68181585D97816A916871CA8D3C208C16D87CFD47 DUP1 PUSH2 0x196B JUMPI PUSH2 0x196A PUSH2 0x23CB JUMP JUMPDEST JUMPDEST DUP9 PUSH32 0x30644E72E131A029B85045B68181585D97816A916871CA8D3C208C16D87CFD47 DUP1 PUSH2 0x199B JUMPI PUSH2 0x199A PUSH2 0x23CB JUMP JUMPDEST JUMPDEST DUP11 DUP12 MULMOD MULMOD SWAP1 POP PUSH0 PUSH32 0x30644E72E131A029B85045B68181585D97816A916871CA8D3C208C16D87CFD47 DUP1 PUSH2 0x19D1 JUMPI PUSH2 0x19D0 PUSH2 0x23CB JUMP JUMPDEST JUMPDEST DUP9 PUSH32 0x30644E72E131A029B85045B68181585D97816A916871CA8D3C208C16D87CFD47 DUP1 PUSH2 0x1A01 JUMPI PUSH2 0x1A00 PUSH2 0x23CB JUMP JUMPDEST JUMPDEST DUP11 DUP12 MULMOD MULMOD SWAP1 POP PUSH32 0x30644E72E131A029B85045B68181585D97816A916871CA8D3C208C16D87CFD47 DUP1 PUSH2 0x1A36 JUMPI PUSH2 0x1A35 PUSH2 0x23CB JUMP JUMPDEST JUMPDEST PUSH32 0x30644E72E131A029B85045B68181585D97816A916871CA8D3C208C16D87CFD47 DUP1 PUSH2 0x1A65 JUMPI PUSH2 0x1A64 PUSH2 0x23CB JUMP JUMPDEST JUMPDEST PUSH32 0x30644E72E131A029B85045B68181585D97816A916871CA8D3C208C16D87CFD47 DUP1 PUSH2 0x1A94 JUMPI PUSH2 0x1A93 PUSH2 0x23CB JUMP JUMPDEST JUMPDEST DUP11 DUP7 MULMOD DUP5 ADDMOD PUSH32 0x2B149D40CEB8AAAE81BE18991BE06AC3B5B4C5E559DBEFA33267E6DC24A138E5 ADDMOD SWAP7 POP PUSH2 0x1B79 PUSH32 0x30644E72E131A029B85045B68181585D97816A916871CA8D3C208C16D87CFD47 DUP1 PUSH2 0x1AEF JUMPI PUSH2 0x1AEE PUSH2 0x23CB JUMP JUMPDEST JUMPDEST PUSH32 0x30644E72E131A029B85045B68181585D97816A916871CA8D3C208C16D87CFD47 DUP1 PUSH2 0x1B1E JUMPI PUSH2 0x1B1D PUSH2 0x23CB JUMP JUMPDEST JUMPDEST PUSH32 0x30644E72E131A029B85045B68181585D97816A916871CA8D3C208C16D87CFD47 DUP1 PUSH2 0x1B4D JUMPI PUSH2 0x1B4C PUSH2 0x23CB JUMP JUMPDEST JUMPDEST DUP13 DUP8 MULMOD DUP5 ADDMOD PUSH32 0x2FCD3AC2A640A154EB23960892A85A68F031CA0C8344B23A577DCF1052B9E775 ADDMOD PUSH2 0x1C56 JUMP JUMPDEST SWAP6 POP PUSH2 0x1B86 DUP8 DUP8 DUP7 PUSH2 0x1D2B JUMP JUMPDEST DUP1 SWAP8 POP DUP2 SWAP9 POP POP POP DUP5 ISZERO PUSH2 0x1BAB JUMPI PUSH2 0x1B9D DUP8 PUSH2 0x1C56 JUMP JUMPDEST SWAP7 POP PUSH2 0x1BA8 DUP7 PUSH2 0x1C56 JUMP JUMPDEST SWAP6 POP JUMPDEST POP POP POP POP POP JUMPDEST SWAP3 SWAP6 SWAP2 SWAP5 POP SWAP3 POP JUMP JUMPDEST PUSH0 PUSH2 0x1BE5 DUP3 PUSH32 0xC19139CB84C680A6E14116DA060561765E05AA45A1C72A34F082305B61F3F52 PUSH2 0x2026 JUMP JUMPDEST SWAP1 POP DUP2 PUSH32 0x30644E72E131A029B85045B68181585D97816A916871CA8D3C208C16D87CFD47 DUP1 PUSH2 0x1C17 JUMPI PUSH2 0x1C16 PUSH2 0x23CB JUMP JUMPDEST JUMPDEST DUP3 DUP4 MULMOD EQ PUSH2 0x1C51 JUMPI PUSH1 0x40 MLOAD PUSH32 0x7FCDD1F400000000000000000000000000000000000000000000000000000000 DUP2 MSTORE PUSH1 0x4 ADD PUSH1 0x40 MLOAD DUP1 SWAP2 SUB SWAP1 REVERT JUMPDEST SWAP2 SWAP1 POP JUMP JUMPDEST PUSH0 PUSH32 0x30644E72E131A029B85045B68181585D97816A916871CA8D3C208C16D87CFD47 DUP1 DUP4 DUP2 PUSH2 0x1C88 JUMPI PUSH2 0x1C87 PUSH2 0x23CB JUMP JUMPDEST JUMPDEST MOD PUSH32 0x30644E72E131A029B85045B68181585D97816A916871CA8D3C208C16D87CFD47 SUB DUP2 PUSH2 0x1CB9 JUMPI PUSH2 0x1CB8 PUSH2 0x23CB JUMP JUMPDEST JUMPDEST MOD SWAP1 POP SWAP2 SWAP1 POP JUMP JUMPDEST PUSH0 PUSH0 PUSH2 0x1CED DUP4 PUSH32 0xC19139CB84C680A6E14116DA060561765E05AA45A1C72A34F082305B61F3F52 PUSH2 0x2026 JUMP JUMPDEST SWAP1 POP DUP3 PUSH32 0x30644E72E131A029B85045B68181585D97816A916871CA8D3C208C16D87CFD47 DUP1 PUSH2 0x1D1F JUMPI PUSH2 0x1D1E PUSH2 0x23CB JUMP JUMPDEST JUMPDEST DUP3 DUP4 MULMOD EQ SWAP2 POP POP SWAP2 SWAP1 POP JUMP JUMPDEST PUSH0 PUSH0 PUSH0 PUSH2 0x1DCA PUSH32 0x30644E72E131A029B85045B68181585D97816A916871CA8D3C208C16D87CFD47 DUP1 PUSH2 0x1D60 JUMPI PUSH2 0x1D5F PUSH2 0x23CB JUMP JUMPDEST JUMPDEST PUSH32 0x30644E72E131A029B85045B68181585D97816A916871CA8D3C208C16D87CFD47 DUP1 PUSH2 0x1D8F JUMPI PUSH2 0x1D8E PUSH2 0x23CB JUMP JUMPDEST JUMPDEST DUP8 DUP9 MULMOD PUSH32 0x30644E72E131A029B85045B68181585D97816A916871CA8D3C208C16D87CFD47 DUP1 PUSH2 0x1DC1 JUMPI PUSH2 0x1DC0 PUSH2 0x23CB JUMP JUMPDEST JUMPDEST DUP10 DUP11 MULMOD ADDMOD PUSH2 0x1BBA JUMP JUMPDEST SWAP1 POP DUP4 ISZERO PUSH2 0x1DDE JUMPI PUSH2 0x1DDB DUP2 PUSH2 0x1C56 JUMP JUMPDEST SWAP1 POP JUMPDEST PUSH2 0x1E69 PUSH32 0x30644E72E131A029B85045B68181585D97816A916871CA8D3C208C16D87CFD47 DUP1 PUSH2 0x1E10 JUMPI PUSH2 0x1E0F PUSH2 0x23CB JUMP JUMPDEST JUMPDEST PUSH32 0x183227397098D014DC2822DB40C0AC2ECBC0B548B438E5469E10460B6C3E7EA4 PUSH32 0x30644E72E131A029B85045B68181585D97816A916871CA8D3C208C16D87CFD47 DUP1 PUSH2 0x1E60 JUMPI PUSH2 0x1E5F PUSH2 0x23CB JUMP JUMPDEST JUMPDEST DUP5 DUP11 ADDMOD MULMOD PUSH2 0x1BBA JUMP JUMPDEST SWAP3 POP PUSH32 0x30644E72E131A029B85045B68181585D97816A916871CA8D3C208C16D87CFD47 DUP1 PUSH2 0x1E9A JUMPI PUSH2 0x1E99 PUSH2 0x23CB JUMP JUMPDEST JUMPDEST PUSH2 0x1ED5 PUSH32 0x30644E72E131A029B85045B68181585D97816A916871CA8D3C208C16D87CFD47 DUP1 PUSH2 0x1ECC JUMPI PUSH2 0x1ECB PUSH2 0x23CB JUMP JUMPDEST JUMPDEST PUSH1 0x2 DUP7 MULMOD PUSH2 0x20BD JUMP JUMPDEST DUP7 MULMOD SWAP2 POP PUSH32 0x30644E72E131A029B85045B68181585D97816A916871CA8D3C208C16D87CFD47 DUP1 PUSH2 0x1F08 JUMPI PUSH2 0x1F07 PUSH2 0x23CB JUMP JUMPDEST JUMPDEST PUSH2 0x1F42 PUSH32 0x30644E72E131A029B85045B68181585D97816A916871CA8D3C208C16D87CFD47 DUP1 PUSH2 0x1F3A JUMPI PUSH2 0x1F39 PUSH2 0x23CB JUMP JUMPDEST JUMPDEST DUP5 DUP6 MULMOD PUSH2 0x1C56 JUMP JUMPDEST PUSH32 0x30644E72E131A029B85045B68181585D97816A916871CA8D3C208C16D87CFD47 DUP1 PUSH2 0x1F71 JUMPI PUSH2 0x1F70 PUSH2 0x23CB JUMP JUMPDEST JUMPDEST DUP6 DUP7 MULMOD ADDMOD DUP7 EQ ISZERO DUP1 PUSH2 0x1FE6 JUMPI POP PUSH32 0x30644E72E131A029B85045B68181585D97816A916871CA8D3C208C16D87CFD47 DUP1 PUSH2 0x1FAD JUMPI PUSH2 0x1FAC PUSH2 0x23CB JUMP JUMPDEST JUMPDEST PUSH32 0x30644E72E131A029B85045B68181585D97816A916871CA8D3C208C16D87CFD47 DUP1 PUSH2 0x1FDC JUMPI PUSH2 0x1FDB PUSH2 0x23CB JUMP JUMPDEST JUMPDEST DUP4 DUP6 MULMOD PUSH1 0x2 MULMOD DUP6 EQ ISZERO JUMPDEST ISZERO PUSH2 0x201D JUMPI PUSH1 0x40 MLOAD PUSH32 0x7FCDD1F400000000000000000000000000000000000000000000000000000000 DUP2 MSTORE PUSH1 0x4 ADD PUSH1 0x40 MLOAD DUP1 SWAP2 SUB SWAP1 REVERT JUMPDEST POP SWAP4 POP SWAP4 SWAP2 POP POP JUMP JUMPDEST PUSH0 PUSH0 PUSH1 0x40 MLOAD PUSH1 0x20 DUP2 MSTORE PUSH1 0x20 DUP1 DUP3 ADD MSTORE PUSH1 0x20 PUSH1 0x40 DUP3 ADD MSTORE DUP5 PUSH1 0x60 DUP3 ADD MSTORE DUP4 PUSH1 0x80 DUP3 ADD MSTORE PUSH32 0x30644E72E131A029B85045B68181585D97816A916871CA8D3C208C16D87CFD47 PUSH1 0xA0 DUP3 ADD MSTORE PUSH1 0x20 DUP2 PUSH1 0xC0 DUP4 PUSH1 0x5 GAS STATICCALL SWAP2 POP DUP1 MLOAD SWAP3 POP POP DUP1 PUSH2 0x20B6 JUMPI PUSH1 0x40 MLOAD PUSH32 0x7FCDD1F400000000000000000000000000000000000000000000000000000000 DUP2 MSTORE PUSH1 0x4 ADD PUSH1 0x40 MLOAD DUP1 SWAP2 SUB SWAP1 REVERT JUMPDEST POP SWAP3 SWAP2 POP POP JUMP JUMPDEST PUSH0 PUSH2 0x20E8 DUP3 PUSH32 0x30644E72E131A029B85045B68181585D97816A916871CA8D3C208C16D87CFD45 PUSH2 0x2026 JUMP JUMPDEST SWAP1 POP PUSH1 0x1 PUSH32 0x30644E72E131A029B85045B68181585D97816A916871CA8D3C208C16D87CFD47 DUP1 PUSH2 0x211B JUMPI PUSH2 0x211A PUSH2 0x23CB JUMP JUMPDEST JUMPDEST DUP3 DUP5 MULMOD EQ PUSH2 0x2155 JUMPI PUSH1 0x40 MLOAD PUSH32 0x7FCDD1F400000000000000000000000000000000000000000000000000000000 DUP2 MSTORE PUSH1 0x4 ADD PUSH1 0x40 MLOAD DUP1 SWAP2 SUB SWAP1 REVERT JUMPDEST SWAP2 SWAP1 POP JUMP JUMPDEST PUSH1 0x40 MLOAD DUP1 PUSH1 0x80 ADD PUSH1 0x40 MSTORE DUP1 PUSH1 0x4 SWAP1 PUSH1 0x20 DUP3 MUL DUP1 CALLDATASIZE DUP4 CALLDATACOPY DUP1 DUP3 ADD SWAP2 POP POP SWAP1 POP POP SWAP1 JUMP JUMPDEST PUSH1 0x40 MLOAD DUP1 PUSH2 0x300 ADD PUSH1 0x40 MSTORE DUP1 PUSH1 0x18 SWAP1 PUSH1 0x20 DUP3 MUL DUP1 CALLDATASIZE DUP4 CALLDATACOPY DUP1 DUP3 ADD SWAP2 POP POP SWAP1 POP POP SWAP1 JUMP JUMPDEST PUSH1 0x40 MLOAD DUP1 PUSH1 0x20 ADD PUSH1 0x40 MSTORE DUP1 PUSH1 0x1 SWAP1 PUSH1 0x20 DUP3 MUL DUP1 CALLDATASIZE DUP4 CALLDATACOPY DUP1 DUP3 ADD SWAP2 POP POP SWAP1 POP POP SWAP1 JUMP JUMPDEST PUSH0 PUSH0 REVERT JUMPDEST PUSH0 PUSH0 REVERT JUMPDEST PUSH0 DUP2 SWAP1 POP DUP3 PUSH1 0x20 PUSH1 0x8 MUL DUP3 ADD GT ISZERO PUSH2 0x21E4 JUMPI PUSH2 0x21E3 PUSH2 0x21C5 JUMP JUMPDEST JUMPDEST SWAP3 SWAP2 POP POP JUMP JUMPDEST PUSH0 DUP2 SWAP1 POP DUP3 PUSH1 0x20 PUSH1 0x7 MUL DUP3 ADD GT ISZERO PUSH2 0x2205 JUMPI PUSH2 0x2204 PUSH2 0x21C5 JUMP JUMPDEST JUMPDEST SWAP3 SWAP2 POP POP JUMP JUMPDEST PUSH0 PUSH0 PUSH2 0x1E0 DUP4 DUP6 SUB SLT ISZERO PUSH2 0x2222 JUMPI PUSH2 0x2221 PUSH2 0x21C1 JUMP JUMPDEST JUMPDEST PUSH0 PUSH2 0x222F DUP6 DUP3 DUP7 ADD PUSH2 0x21C9 JUMP JUMPDEST SWAP3 POP POP PUSH2 0x100 PUSH2 0x2241 DUP6 DUP3 DUP7 ADD PUSH2 0x21EA JUMP JUMPDEST SWAP2 POP POP SWAP3 POP SWAP3 SWAP1 POP JUMP JUMPDEST PUSH0 PUSH2 0x100 DUP3 DUP5 SUB SLT ISZERO PUSH2 0x2261 JUMPI PUSH2 0x2260 PUSH2 0x21C1 JUMP JUMPDEST JUMPDEST PUSH0 PUSH2 0x226E DUP5 DUP3 DUP6 ADD PUSH2 0x21C9 JUMP JUMPDEST SWAP2 POP POP SWAP3 SWAP2 POP POP JUMP JUMPDEST PUSH0 PUSH1 0x4 SWAP1 POP SWAP2 SWAP1 POP JUMP JUMPDEST PUSH0 DUP2 SWAP1 POP SWAP3 SWAP2 POP POP JUMP JUMPDEST PUSH0 DUP2 SWAP1 POP SWAP2 SWAP1 POP JUMP JUMPDEST PUSH0 DUP2 SWAP1 POP SWAP2 SWAP1 POP JUMP JUMPDEST PUSH2 0x22A6 DUP2 PUSH2 0x2294 JUMP JUMPDEST DUP3 MSTORE POP POP JUMP JUMPDEST PUSH0 PUSH2 0x22B7 DUP4 DUP4 PUSH2 0x229D JUMP JUMPDEST PUSH1 0x20 DUP4 ADD SWAP1 POP SWAP3 SWAP2 POP POP JUMP JUMPDEST PUSH0 PUSH1 0x20 DUP3 ADD SWAP1 POP SWAP2 SWAP1 POP JUMP JUMPDEST PUSH2 0x22D8 DUP2 PUSH2 0x2277 JUMP JUMPDEST PUSH2 0x22E2 DUP2 DUP5 PUSH2 0x2281 JUMP JUMPDEST SWAP3 POP PUSH2 0x22ED DUP3 PUSH2 0x228B JUMP JUMPDEST DUP1 PUSH0 JUMPDEST DUP4 DUP2 LT ISZERO PUSH2 0x231D JUMPI DUP2 MLOAD PUSH2 0x2304 DUP8 DUP3 PUSH2 0x22AC JUMP JUMPDEST SWAP7 POP PUSH2 0x230F DUP4 PUSH2 0x22C3 JUMP JUMPDEST SWAP3 POP POP PUSH1 0x1 DUP2 ADD SWAP1 POP PUSH2 0x22F0 JUMP JUMPDEST POP POP POP POP POP POP JUMP JUMPDEST PUSH0 PUSH1 0x80 DUP3 ADD SWAP1 POP PUSH2 0x2338 PUSH0 DUP4 ADD DUP5 PUSH2 0x22CF JUMP JUMPDEST SWAP3 SWAP2 POP POP JUMP JUMPDEST PUSH0 DUP2 SWAP1 POP DUP3 PUSH1 0x20 PUSH1 0x4 MUL DUP3 ADD GT ISZERO PUSH2 0x2359 JUMPI PUSH2 0x2358 PUSH2 0x21C5 JUMP JUMPDEST JUMPDEST SWAP3 SWAP2 POP POP JUMP JUMPDEST PUSH0 PUSH0 PUSH2 0x160 DUP4 DUP6 SUB SLT ISZERO PUSH2 0x2376 JUMPI PUSH2 0x2375 PUSH2 0x21C1 JUMP JUMPDEST JUMPDEST PUSH0 PUSH2 0x2383 DUP6 DUP3 DUP7 ADD PUSH2 0x233E JUMP JUMPDEST SWAP3 POP POP PUSH1 0x80 PUSH2 0x2394 DUP6 DUP3 DUP7 ADD PUSH2 0x21EA JUMP JUMPDEST SWAP2 POP POP SWAP3 POP SWAP3 SWAP1 POP JUMP JUMPDEST PUSH32 0x4E487B7100000000000000000000000000000000000000000000000000000000 PUSH0 MSTORE PUSH1 0x32 PUSH1 0x4 MSTORE PUSH1 0x24 PUSH0 REVERT JUMPDEST PUSH32 0x4E487B7100000000000000000000000000000000000000000000000000000000 PUSH0 MSTORE PUSH1 0x12 PUSH1 0x4 MSTORE PUSH1 0x24 PUSH0 REVERT JUMPDEST PUSH32 0x4E487B7100000000000000000000000000000000000000000000000000000000 PUSH0 MSTORE PUSH1 0x11 PUSH1 0x4 MSTORE PUSH1 0x24 PUSH0 REVERT JUMPDEST PUSH0 PUSH2 0x242F DUP3 PUSH2 0x2294 JUMP JUMPDEST SWAP2 POP PUSH2 0x243A DUP4 PUSH2 0x2294 JUMP JUMPDEST SWAP3 POP DUP3 DUP3 SUB SWAP1 POP DUP2 DUP2 GT ISZERO PUSH2 0x2452 JUMPI PUSH2 0x2451 PUSH2 0x23F8 JUMP JUMPDEST JUMPDEST SWAP3 SWAP2 POP POP JUMP INVALID LOG2 PUSH5 0x6970667358 0x22 SLT KECCAK256 0xCB SUB 0x2B 0xB5 MCOPY DUP7 0xD8 JUMPDEST 0x21 DUP6 0xD4 0xAE RETURNCONTRACT 0xBB DUP14 SELFBALANCE DUP16 DIV 0xC3 0x29 DUP4 0xD9 LOG4 SWAP14 0xDA CALLVALUE PUSH14 0x3387288C7764736F6C634300081F STOP CALLER "
				},
				"gasEstimates": {
					"creation": {
						"codeDepositCost": "1871600",
						"executionCost": "1974",
						"totalCost": "1873574"
					},
					"external": {
						"compressProof(uint256[8])": "infinite",
						"verifyCompressedProof(uint256[4],uint256[7])": "infinite",
						"verifyProof(uint256[8],uint256[7])": "infinite"
					},
					"internal": {
						"compress_g1(uint256,uint256)": "infinite",
						"compress_g2(uint256,uint256,uint256,uint256)": "infinite",
						"decompress_g1(uint256)": "infinite",
						"decompress_g2(uint256,uint256)": "infinite",
						"exp(uint256,uint256)": "infinite",
						"invert_Fp(uint256)": "infinite",
						"isSquare_Fp(uint256)": "infinite",
						"negate(uint256)": "83",
						"publicInputMSM(uint256[7] calldata)": "infinite",
						"sqrt_Fp(uint256)": "infinite",
						"sqrt_Fp2(uint256,uint256,bool)": "infinite"
					}
				},
				"methodIdentifiers": {
					"compressProof(uint256[8])": "44f63692",
					"verifyCompressedProof(uint256[4],uint256[7])": "f6d3293a",
					"verifyProof(uint256[8],uint256[7])": "1042664e"
				}
			},
			"storageLayout": {
				"storage": [],
				"types": null
			},
			"userdoc": {
				"errors": {
					"ProofInvalid()": [
						{
							"notice": "The proof is invalid."
						}
					],
					"PublicInputNotInField()": [
						{
							"notice": "Some of the provided public input values are larger than the field modulus."
						}
					]
				},
				"kind": "user",
				"methods": {
					"compressProof(uint256[8])": {
						"notice": "Compress a proof.Will revert with InvalidProof if the curve points are invalid, but does not verify the proof itself."
					},
					"verifyCompressedProof(uint256[4],uint256[7])": {
						"notice": "Verify a Groth16 proof with compressed points.Reverts with InvalidProof if the proof is invalid or with PublicInputNotInField the public input is not reduced.There is no return value. If the function does not revert, the proof was successfully verified."
					},
					"verifyProof(uint256[8],uint256[7])": {
						"notice": "Verify an uncompressed Groth16 proof.Reverts with InvalidProof if the proof is invalid or with PublicInputNotInField the public input is not reduced.There is no return value. If the function does not revert, the proof was successfully verified."
					}
				},
				"notice": "Supports verifying Groth16 proofs. Proofs can be in uncompressed (256 bytes) and compressed (128 bytes) format. A view function is provided to compress proofs.See <https://2π.com/23/bn254-compression> for further explanation.",
				"version": 1
			}
		}
	}
}