{
	"Evm/core/epoch.sol": {
		"EpochManager": {
			"abi": [
				{
					"inputs": [
						{
							"internalType": "uint256",
							"name": "_genesisTimestamp",
							"type": "uint256"
						},
						{
							"internalType": "uint256",
							"name": "_epochDuration",
							"type": "uint256"
						}
					],
					"stateMutability": "nonpayable",
					"type": "constructor"
				},
				{
					"anonymous": false,
					"inputs": [
						{
							"indexed": true,
							"internalType": "uint256",
							"name": "epoch",
							"type": "uint256"
						}
					],
					"name": "EpochFinalized",
					"type": "event"
				},
				{
					"inputs": [],
					"name": "EPOCH_DURATION",
					"outputs": [
						{
							"internalType": "uint256",
							"name": "",
							"type": "uint256"
						}
					],
					"stateMutability": "view",
					"type": "function"
				},
				{
					"inputs": [],
					"name": "GENESIS_TIMESTAMP",
					"outputs": [
						{
							"internalType": "uint256",
							"name": "",
							"type": "uint256"
						}
					],
					"stateMutability": "view",
					"type": "function"
				},
				{
					"inputs": [],
					"name": "currentEpoch",
					"outputs": [
						{
							"internalType": "uint256",
							"name": "",
							"type": "uint256"
						}
					],
					"stateMutability": "view",
					"type": "function"
				},
				{
					"inputs": [
						{
							"internalType": "uint256",
							"name": "",
							"type": "uint256"
						}
					],
					"name": "epochHistory",
					"outputs": [
						{
							"internalType": "uint256",
							"name": "timestamp",
							"type": "uint256"
						},
						{
							"internalType": "bool",
							"name": "finalized",
							"type": "bool"
						}
					],
					"stateMutability": "view",
					"type": "function"
				},
				{
					"inputs": [],
					"name": "finalizeEpoch",
					"outputs": [],
					"stateMutability": "nonpayable",
					"type": "function"
				}
			],
			"devdoc": {
				"kind": "dev",
				"methods": {
					"constructor": {
						"params": {
							"_epochDuration": "How long an epoch lasts in seconds (e.g., 86400 for 1 day)",
							"_genesisTimestamp": "The exact Unix timestamp when Epoch 0 begins (e.g., 1712841600)"
						}
					}
				},
				"version": 1
			},
			"evm": {
				"assembly": "    /* \"Evm/core/epoch.sol\":61:2039  contract EpochManager {... */\n  mstore(0x40, 0xc0)\n    /* \"Evm/core/epoch.sol\":663:986  constructor(uint256 _genesisTimestamp, uint256 _epochDuration) {... */\n  callvalue\n  dup1\n  iszero\n  tag_1\n  jumpi\n  revert(0x00, 0x00)\ntag_1:\n  pop\n  mload(0x40)\n  sub(codesize, bytecodeSize)\n  dup1\n  bytecodeSize\n  dup4\n  codecopy\n  dup2\n  dup2\n  add\n  0x40\n  mstore\n  dup2\n  add\n  swap1\n  tag_2\n  swap2\n  swap1\n  tag_3\n  jump\t// in\ntag_2:\n    /* \"Evm/core/epoch.sol\":757:774  _genesisTimestamp */\n  dup2\n    /* \"Evm/core/epoch.sol\":737:774  GENESIS_TIMESTAMP = _genesisTimestamp */\n  0x80\n  dup2\n  dup2\n  mstore\n  pop\n  pop\n    /* \"Evm/core/epoch.sol\":802:816  _epochDuration */\n  dup1\n    /* \"Evm/core/epoch.sol\":785:816  EPOCH_DURATION = _epochDuration */\n  0xa0\n  dup2\n  dup2\n  mstore\n  pop\n  pop\n    /* \"Evm/core/epoch.sol\":852:853  0 */\n  0x00\n    /* \"Evm/core/epoch.sol\":837:849  currentEpoch */\n  0x00\n    /* \"Evm/core/epoch.sol\":837:853  currentEpoch = 0 */\n  dup2\n  swap1\n  sstore\n  pop\n    /* \"Evm/core/epoch.sol\":882:978  EpochState({... */\n  mload(0x40)\n  dup1\n  0x40\n  add\n  0x40\n  mstore\n  dup1\n    /* \"Evm/core/epoch.sol\":919:936  _genesisTimestamp */\n  dup4\n    /* \"Evm/core/epoch.sol\":882:978  EpochState({... */\n  dup2\n  mstore\n  0x20\n  add\n    /* \"Evm/core/epoch.sol\":962:966  true */\n  0x01\n    /* \"Evm/core/epoch.sol\":882:978  EpochState({... */\n  iszero\n  iszero\n  dup2\n  mstore\n  pop\n    /* \"Evm/core/epoch.sol\":864:876  epochHistory */\n  0x01\n    /* \"Evm/core/epoch.sol\":864:879  epochHistory[0] */\n  0x00\n    /* \"Evm/core/epoch.sol\":877:878  0 */\n  0x00\n    /* \"Evm/core/epoch.sol\":864:879  epochHistory[0] */\n  dup2\n  mstore\n  0x20\n  add\n  swap1\n  dup2\n  mstore\n  0x20\n  add\n  0x00\n  keccak256\n    /* \"Evm/core/epoch.sol\":864:978  epochHistory[0] = EpochState({... */\n  0x00\n  dup3\n  add\n  mload\n  dup2\n  0x00\n  add\n  sstore\n  0x20\n  dup3\n  add\n  mload\n  dup2\n  0x01\n  add\n  exp(0x0100, 0x00)\n  dup2\n  sload\n  dup2\n  0xff\n  mul\n  not\n  and\n  swap1\n  dup4\n  iszero\n  iszero\n  mul\n  or\n  swap1\n  sstore\n  pop\n  swap1\n  pop\n  pop\n    /* \"Evm/core/epoch.sol\":663:986  constructor(uint256 _genesisTimestamp, uint256 _epochDuration) {... */\n  pop\n  pop\n    /* \"Evm/core/epoch.sol\":61:2039  contract EpochManager {... */\n  jump(tag_6)\n    /* \"#utility.yul\":88:205   */\ntag_8:\n    /* \"#utility.yul\":197:198   */\n  0x00\n    /* \"#utility.yul\":194:195   */\n  0x00\n    /* \"#utility.yul\":187:199   */\n  revert\n    /* \"#utility.yul\":334:411   */\ntag_10:\n    /* \"#utility.yul\":371:378   */\n  0x00\n    /* \"#utility.yul\":400:405   */\n  dup2\n    /* \"#utility.yul\":389:405   */\n  swap1\n  pop\n    /* \"#utility.yul\":334:411   */\n  swap2\n  swap1\n  pop\n  jump\t// out\n    /* \"#utility.yul\":417:539   */\ntag_11:\n    /* \"#utility.yul\":490:514   */\n  tag_19\n    /* \"#utility.yul\":508:513   */\n  dup2\n    /* \"#utility.yul\":490:514   */\n  tag_10\n  jump\t// in\ntag_19:\n    /* \"#utility.yul\":483:488   */\n  dup2\n    /* \"#utility.yul\":480:515   */\n  eq\n    /* \"#utility.yul\":470:533   */\n  tag_20\n  jumpi\n    /* \"#utility.yul\":529:530   */\n  0x00\n    /* \"#utility.yul\":526:527   */\n  0x00\n    /* \"#utility.yul\":519:531   */\n  revert\n    /* \"#utility.yul\":470:533   */\ntag_20:\n    /* \"#utility.yul\":417:539   */\n  pop\n  jump\t// out\n    /* \"#utility.yul\":545:688   */\ntag_12:\n    /* \"#utility.yul\":602:607   */\n  0x00\n    /* \"#utility.yul\":633:639   */\n  dup2\n    /* \"#utility.yul\":627:640   */\n  mload\n    /* \"#utility.yul\":618:640   */\n  swap1\n  pop\n    /* \"#utility.yul\":649:682   */\n  tag_22\n    /* \"#utility.yul\":676:681   */\n  dup2\n    /* \"#utility.yul\":649:682   */\n  tag_11\n  jump\t// in\ntag_22:\n    /* \"#utility.yul\":545:688   */\n  swap3\n  swap2\n  pop\n  pop\n  jump\t// out\n    /* \"#utility.yul\":694:1201   */\ntag_3:\n    /* \"#utility.yul\":773:779   */\n  0x00\n    /* \"#utility.yul\":781:787   */\n  0x00\n    /* \"#utility.yul\":830:832   */\n  0x40\n    /* \"#utility.yul\":818:827   */\n  dup4\n    /* \"#utility.yul\":809:816   */\n  dup6\n    /* \"#utility.yul\":805:828   */\n  sub\n    /* \"#utility.yul\":801:833   */\n  slt\n    /* \"#utility.yul\":798:917   */\n  iszero\n  tag_24\n  jumpi\n    /* \"#utility.yul\":836:915   */\n  tag_25\n  tag_8\n  jump\t// in\ntag_25:\n    /* \"#utility.yul\":798:917   */\ntag_24:\n    /* \"#utility.yul\":956:957   */\n  0x00\n    /* \"#utility.yul\":981:1045   */\n  tag_26\n    /* \"#utility.yul\":1037:1044   */\n  dup6\n    /* \"#utility.yul\":1028:1034   */\n  dup3\n    /* \"#utility.yul\":1017:1026   */\n  dup7\n    /* \"#utility.yul\":1013:1035   */\n  add\n    /* \"#utility.yul\":981:1045   */\n  tag_12\n  jump\t// in\ntag_26:\n    /* \"#utility.yul\":971:1045   */\n  swap3\n  pop\n    /* \"#utility.yul\":927:1055   */\n  pop\n    /* \"#utility.yul\":1094:1096   */\n  0x20\n    /* \"#utility.yul\":1120:1184   */\n  tag_27\n    /* \"#utility.yul\":1176:1183   */\n  dup6\n    /* \"#utility.yul\":1167:1173   */\n  dup3\n    /* \"#utility.yul\":1156:1165   */\n  dup7\n    /* \"#utility.yul\":1152:1174   */\n  add\n    /* \"#utility.yul\":1120:1184   */\n  tag_12\n  jump\t// in\ntag_27:\n    /* \"#utility.yul\":1110:1184   */\n  swap2\n  pop\n    /* \"#utility.yul\":1065:1194   */\n  pop\n    /* \"#utility.yul\":694:1201   */\n  swap3\n  pop\n  swap3\n  swap1\n  pop\n  jump\t// out\n    /* \"Evm/core/epoch.sol\":61:2039  contract EpochManager {... */\ntag_6:\n  mload(0x80)\n  mload(0xa0)\n  codecopy(0x00, dataOffset(sub_0), dataSize(sub_0))\n  0x00\n  assignImmutable(\"0x1a192fabce13988b84994d4296e6cdc418d55e2f1d7f942188d4040b94fc57ac\")\n  0x00\n  assignImmutable(\"0xe4b1702d9298fee62dfeccc57d322a463ad55ca201256d01f62b45b2e1c21c10\")\n  return(0x00, dataSize(sub_0))\nstop\n\nsub_0: assembly {\n        /* \"Evm/core/epoch.sol\":61:2039  contract EpochManager {... */\n      mstore(0x40, 0x80)\n      callvalue\n      dup1\n      iszero\n      tag_1\n      jumpi\n      revert(0x00, 0x00)\n    tag_1:\n      pop\n      jumpi(tag_2, lt(calldatasize, 0x04))\n      shr(0xe0, calldataload(0x00))\n      dup1\n      0x04b12385\n      eq\n      tag_3\n      jumpi\n      dup1\n      0x0c204d44\n      eq\n      tag_4\n      jumpi\n      dup1\n      0x76671808\n      eq\n      tag_5\n      jumpi\n      dup1\n      0x82ae9ef7\n      eq\n      tag_6\n      jumpi\n      dup1\n      0xa70b9f0c\n      eq\n      tag_7\n      jumpi\n    tag_2:\n      revert(0x00, 0x00)\n        /* \"Evm/core/epoch.sol\":348:398  mapping(uint256 => EpochState) public epochHistory */\n    tag_3:\n      tag_8\n      0x04\n      dup1\n      calldatasize\n      sub\n      dup2\n      add\n      swap1\n      tag_9\n      swap2\n      swap1\n      tag_10\n      jump\t// in\n    tag_9:\n      tag_11\n      jump\t// in\n    tag_8:\n      mload(0x40)\n      tag_12\n      swap3\n      swap2\n      swap1\n      tag_13\n      jump\t// in\n    tag_12:\n      mload(0x40)\n      dup1\n      swap2\n      sub\n      swap1\n      return\n        /* \"Evm/core/epoch.sol\":216:258  uint256 public immutable GENESIS_TIMESTAMP */\n    tag_4:\n      tag_14\n      tag_15\n      jump\t// in\n    tag_14:\n      mload(0x40)\n      tag_16\n      swap2\n      swap1\n      tag_17\n      jump\t// in\n    tag_16:\n      mload(0x40)\n      dup1\n      swap2\n      sub\n      swap1\n      return\n        /* \"Evm/core/epoch.sol\":314:341  uint256 public currentEpoch */\n    tag_5:\n      tag_18\n      tag_19\n      jump\t// in\n    tag_18:\n      mload(0x40)\n      tag_20\n      swap2\n      swap1\n      tag_17\n      jump\t// in\n    tag_20:\n      mload(0x40)\n      dup1\n      swap2\n      sub\n      swap1\n      return\n        /* \"Evm/core/epoch.sol\":994:2034  function finalizeEpoch() external {... */\n    tag_6:\n      tag_21\n      tag_22\n      jump\t// in\n    tag_21:\n      stop\n        /* \"Evm/core/epoch.sol\":265:304  uint256 public immutable EPOCH_DURATION */\n    tag_7:\n      tag_23\n      tag_24\n      jump\t// in\n    tag_23:\n      mload(0x40)\n      tag_25\n      swap2\n      swap1\n      tag_17\n      jump\t// in\n    tag_25:\n      mload(0x40)\n      dup1\n      swap2\n      sub\n      swap1\n      return\n        /* \"Evm/core/epoch.sol\":348:398  mapping(uint256 => EpochState) public epochHistory */\n    tag_11:\n      mstore(0x20, 0x01)\n      dup1\n      0x00\n      mstore\n      keccak256(0x00, 0x40)\n      0x00\n      swap2\n      pop\n      swap1\n      pop\n      dup1\n      0x00\n      add\n      sload\n      swap1\n      dup1\n      0x01\n      add\n      0x00\n      swap1\n      sload\n      swap1\n      0x0100\n      exp\n      swap1\n      div\n      0xff\n      and\n      swap1\n      pop\n      dup3\n      jump\t// out\n        /* \"Evm/core/epoch.sol\":216:258  uint256 public immutable GENESIS_TIMESTAMP */\n    tag_15:\n      immutable(\"0xe4b1702d9298fee62dfeccc57d322a463ad55ca201256d01f62b45b2e1c21c10\")\n      dup2\n      jump\t// out\n        /* \"Evm/core/epoch.sol\":314:341  uint256 public currentEpoch */\n    tag_19:\n      sload(0x00)\n      dup2\n      jump\t// out\n        /* \"Evm/core/epoch.sol\":994:2034  function finalizeEpoch() external {... */\n    tag_22:\n        /* \"Evm/core/epoch.sol\":1167:1187  uint256 epochEndTime */\n      0x00\n        /* \"Evm/core/epoch.sol\":1226:1240  EPOCH_DURATION */\n      immutable(\"0x1a192fabce13988b84994d4296e6cdc418d55e2f1d7f942188d4040b94fc57ac\")\n        /* \"Evm/core/epoch.sol\":1211:1223  currentEpoch */\n      sload(0x00)\n        /* \"Evm/core/epoch.sol\":1211:1240  currentEpoch * EPOCH_DURATION */\n      tag_27\n      swap2\n      swap1\n      tag_28\n      jump\t// in\n    tag_27:\n        /* \"Evm/core/epoch.sol\":1190:1207  GENESIS_TIMESTAMP */\n      immutable(\"0xe4b1702d9298fee62dfeccc57d322a463ad55ca201256d01f62b45b2e1c21c10\")\n        /* \"Evm/core/epoch.sol\":1190:1241  GENESIS_TIMESTAMP + (currentEpoch * EPOCH_DURATION) */\n      tag_29\n      swap2\n      swap1\n      tag_30\n      jump\t// in\n    tag_29:\n        /* \"Evm/core/epoch.sol\":1167:1241  uint256 epochEndTime = GENESIS_TIMESTAMP + (currentEpoch * EPOCH_DURATION) */\n      swap1\n      pop\n        /* \"Evm/core/epoch.sol\":1379:1391  epochEndTime */\n      dup1\n        /* \"Evm/core/epoch.sol\":1360:1375  block.timestamp */\n      timestamp\n        /* \"Evm/core/epoch.sol\":1360:1391  block.timestamp >= epochEndTime */\n      lt\n      iszero\n        /* \"Evm/core/epoch.sol\":1352:1430  require(block.timestamp >= epochEndTime, \"Epoch duration has not elapsed yet\") */\n      tag_31\n      jumpi\n      mload(0x40)\n      0x08c379a000000000000000000000000000000000000000000000000000000000\n      dup2\n      mstore\n      0x04\n      add\n      tag_32\n      swap1\n      tag_33\n      jump\t// in\n    tag_32:\n      mload(0x40)\n      dup1\n      swap2\n      sub\n      swap1\n      revert\n    tag_31:\n        /* \"Evm/core/epoch.sol\":1443:1467  EpochState storage state */\n      0x00\n        /* \"Evm/core/epoch.sol\":1470:1482  epochHistory */\n      0x01\n        /* \"Evm/core/epoch.sol\":1470:1496  epochHistory[currentEpoch] */\n      0x00\n        /* \"Evm/core/epoch.sol\":1483:1495  currentEpoch */\n      sload(0x00)\n        /* \"Evm/core/epoch.sol\":1470:1496  epochHistory[currentEpoch] */\n      dup2\n      mstore\n      0x20\n      add\n      swap1\n      dup2\n      mstore\n      0x20\n      add\n      0x00\n      keccak256\n        /* \"Evm/core/epoch.sol\":1443:1496  EpochState storage state = epochHistory[currentEpoch] */\n      swap1\n      pop\n        /* \"Evm/core/epoch.sol\":1710:1711  0 */\n      0x00\n        /* \"Evm/core/epoch.sol\":1692:1697  state */\n      dup2\n        /* \"Evm/core/epoch.sol\":1692:1707  state.timestamp */\n      0x00\n      add\n      sload\n        /* \"Evm/core/epoch.sol\":1692:1711  state.timestamp > 0 */\n      gt\n        /* \"Evm/core/epoch.sol\":1684:1739  require(state.timestamp > 0, \"Epoch data not proposed\") */\n      tag_34\n      jumpi\n      mload(0x40)\n      0x08c379a000000000000000000000000000000000000000000000000000000000\n      dup2\n      mstore\n      0x04\n      add\n      tag_35\n      swap1\n      tag_36\n      jump\t// in\n    tag_35:\n      mload(0x40)\n      dup1\n      swap2\n      sub\n      swap1\n      revert\n    tag_34:\n        /* \"Evm/core/epoch.sol\":1759:1764  state */\n      dup1\n        /* \"Evm/core/epoch.sol\":1759:1774  state.finalized */\n      0x01\n      add\n      0x00\n      swap1\n      sload\n      swap1\n      0x0100\n      exp\n      swap1\n      div\n      0xff\n      and\n        /* \"Evm/core/epoch.sol\":1758:1774  !state.finalized */\n      iszero\n        /* \"Evm/core/epoch.sol\":1750:1796  require(!state.finalized, \"Already finalized\") */\n      tag_37\n      jumpi\n      mload(0x40)\n      0x08c379a000000000000000000000000000000000000000000000000000000000\n      dup2\n      mstore\n      0x04\n      add\n      tag_38\n      swap1\n      tag_39\n      jump\t// in\n    tag_38:\n      mload(0x40)\n      dup1\n      swap2\n      sub\n      swap1\n      revert\n    tag_37:\n        /* \"Evm/core/epoch.sol\":1855:1859  true */\n      0x01\n        /* \"Evm/core/epoch.sol\":1837:1842  state */\n      dup2\n        /* \"Evm/core/epoch.sol\":1837:1852  state.finalized */\n      0x01\n      add\n      0x00\n        /* \"Evm/core/epoch.sol\":1837:1859  state.finalized = true */\n      0x0100\n      exp\n      dup2\n      sload\n      dup2\n      0xff\n      mul\n      not\n      and\n      swap1\n      dup4\n      iszero\n      iszero\n      mul\n      or\n      swap1\n      sstore\n      pop\n        /* \"Evm/core/epoch.sol\":1888:1903  block.timestamp */\n      timestamp\n        /* \"Evm/core/epoch.sol\":1870:1875  state */\n      dup2\n        /* \"Evm/core/epoch.sol\":1870:1885  state.timestamp */\n      0x00\n      add\n        /* \"Evm/core/epoch.sol\":1870:1903  state.timestamp = block.timestamp */\n      dup2\n      swap1\n      sstore\n      pop\n        /* \"Evm/core/epoch.sol\":1977:1978  1 */\n      0x01\n        /* \"Evm/core/epoch.sol\":1964:1976  currentEpoch */\n      sload(0x00)\n        /* \"Evm/core/epoch.sol\":1964:1978  currentEpoch+1 */\n      tag_40\n      swap2\n      swap1\n      tag_30\n      jump\t// in\n    tag_40:\n        /* \"Evm/core/epoch.sol\":1949:1961  currentEpoch */\n      0x00\n        /* \"Evm/core/epoch.sol\":1949:1978  currentEpoch = currentEpoch+1 */\n      dup2\n      swap1\n      sstore\n      pop\n        /* \"Evm/core/epoch.sol\":2024:2025  1 */\n      0x01\n        /* \"Evm/core/epoch.sol\":2011:2023  currentEpoch */\n      sload(0x00)\n        /* \"Evm/core/epoch.sol\":2011:2025  currentEpoch+1 */\n      tag_41\n      swap2\n      swap1\n      tag_30\n      jump\t// in\n    tag_41:\n        /* \"Evm/core/epoch.sol\":1996:2026  EpochFinalized(currentEpoch+1) */\n      0x8fc0db93d562284b2140b5ba84181e6d8649504e729013e6a8c704ffb08d04b9\n      mload(0x40)\n      mload(0x40)\n      dup1\n      swap2\n      sub\n      swap1\n      log2\n        /* \"Evm/core/epoch.sol\":1028:2034  {... */\n      pop\n      pop\n        /* \"Evm/core/epoch.sol\":994:2034  function finalizeEpoch() external {... */\n      jump\t// out\n        /* \"Evm/core/epoch.sol\":265:304  uint256 public immutable EPOCH_DURATION */\n    tag_24:\n      immutable(\"0x1a192fabce13988b84994d4296e6cdc418d55e2f1d7f942188d4040b94fc57ac\")\n      dup2\n      jump\t// out\n        /* \"#utility.yul\":88:205   */\n    tag_43:\n        /* \"#utility.yul\":197:198   */\n      0x00\n        /* \"#utility.yul\":194:195   */\n      0x00\n        /* \"#utility.yul\":187:199   */\n      revert\n        /* \"#utility.yul\":334:411   */\n    tag_45:\n        /* \"#utility.yul\":371:378   */\n      0x00\n        /* \"#utility.yul\":400:405   */\n      dup2\n        /* \"#utility.yul\":389:405   */\n      swap1\n      pop\n        /* \"#utility.yul\":334:411   */\n      swap2\n      swap1\n      pop\n      jump\t// out\n        /* \"#utility.yul\":417:539   */\n    tag_46:\n        /* \"#utility.yul\":490:514   */\n      tag_65\n        /* \"#utility.yul\":508:513   */\n      dup2\n        /* \"#utility.yul\":490:514   */\n      tag_45\n      jump\t// in\n    tag_65:\n        /* \"#utility.yul\":483:488   */\n      dup2\n        /* \"#utility.yul\":480:515   */\n      eq\n        /* \"#utility.yul\":470:533   */\n      tag_66\n      jumpi\n        /* \"#utility.yul\":529:530   */\n      0x00\n        /* \"#utility.yul\":526:527   */\n      0x00\n        /* \"#utility.yul\":519:531   */\n      revert\n        /* \"#utility.yul\":470:533   */\n    tag_66:\n        /* \"#utility.yul\":417:539   */\n      pop\n      jump\t// out\n        /* \"#utility.yul\":545:684   */\n    tag_47:\n        /* \"#utility.yul\":591:596   */\n      0x00\n        /* \"#utility.yul\":629:635   */\n      dup2\n        /* \"#utility.yul\":616:636   */\n      calldataload\n        /* \"#utility.yul\":607:636   */\n      swap1\n      pop\n        /* \"#utility.yul\":645:678   */\n      tag_68\n        /* \"#utility.yul\":672:677   */\n      dup2\n        /* \"#utility.yul\":645:678   */\n      tag_46\n      jump\t// in\n    tag_68:\n        /* \"#utility.yul\":545:684   */\n      swap3\n      swap2\n      pop\n      pop\n      jump\t// out\n        /* \"#utility.yul\":690:1019   */\n    tag_10:\n        /* \"#utility.yul\":749:755   */\n      0x00\n        /* \"#utility.yul\":798:800   */\n      0x20\n        /* \"#utility.yul\":786:795   */\n      dup3\n        /* \"#utility.yul\":777:784   */\n      dup5\n        /* \"#utility.yul\":773:796   */\n      sub\n        /* \"#utility.yul\":769:801   */\n      slt\n        /* \"#utility.yul\":766:885   */\n      iszero\n      tag_70\n      jumpi\n        /* \"#utility.yul\":804:883   */\n      tag_71\n      tag_43\n      jump\t// in\n    tag_71:\n        /* \"#utility.yul\":766:885   */\n    tag_70:\n        /* \"#utility.yul\":924:925   */\n      0x00\n        /* \"#utility.yul\":949:1002   */\n      tag_72\n        /* \"#utility.yul\":994:1001   */\n      dup5\n        /* \"#utility.yul\":985:991   */\n      dup3\n        /* \"#utility.yul\":974:983   */\n      dup6\n        /* \"#utility.yul\":970:992   */\n      add\n        /* \"#utility.yul\":949:1002   */\n      tag_47\n      jump\t// in\n    tag_72:\n        /* \"#utility.yul\":939:1002   */\n      swap2\n      pop\n        /* \"#utility.yul\":895:1012   */\n      pop\n        /* \"#utility.yul\":690:1019   */\n      swap3\n      swap2\n      pop\n      pop\n      jump\t// out\n        /* \"#utility.yul\":1025:1143   */\n    tag_48:\n        /* \"#utility.yul\":1112:1136   */\n      tag_74\n        /* \"#utility.yul\":1130:1135   */\n      dup2\n        /* \"#utility.yul\":1112:1136   */\n      tag_45\n      jump\t// in\n    tag_74:\n        /* \"#utility.yul\":1107:1110   */\n      dup3\n        /* \"#utility.yul\":1100:1137   */\n      mstore\n        /* \"#utility.yul\":1025:1143   */\n      pop\n      pop\n      jump\t// out\n        /* \"#utility.yul\":1149:1239   */\n    tag_49:\n        /* \"#utility.yul\":1183:1190   */\n      0x00\n        /* \"#utility.yul\":1226:1231   */\n      dup2\n        /* \"#utility.yul\":1219:1232   */\n      iszero\n        /* \"#utility.yul\":1212:1233   */\n      iszero\n        /* \"#utility.yul\":1201:1233   */\n      swap1\n      pop\n        /* \"#utility.yul\":1149:1239   */\n      swap2\n      swap1\n      pop\n      jump\t// out\n        /* \"#utility.yul\":1245:1354   */\n    tag_50:\n        /* \"#utility.yul\":1326:1347   */\n      tag_77\n        /* \"#utility.yul\":1341:1346   */\n      dup2\n        /* \"#utility.yul\":1326:1347   */\n      tag_49\n      jump\t// in\n    tag_77:\n        /* \"#utility.yul\":1321:1324   */\n      dup3\n        /* \"#utility.yul\":1314:1348   */\n      mstore\n        /* \"#utility.yul\":1245:1354   */\n      pop\n      pop\n      jump\t// out\n        /* \"#utility.yul\":1360:1680   */\n    tag_13:\n        /* \"#utility.yul\":1475:1479   */\n      0x00\n        /* \"#utility.yul\":1513:1515   */\n      0x40\n        /* \"#utility.yul\":1502:1511   */\n      dup3\n        /* \"#utility.yul\":1498:1516   */\n      add\n        /* \"#utility.yul\":1490:1516   */\n      swap1\n      pop\n        /* \"#utility.yul\":1526:1597   */\n      tag_79\n        /* \"#utility.yul\":1594:1595   */\n      0x00\n        /* \"#utility.yul\":1583:1592   */\n      dup4\n        /* \"#utility.yul\":1579:1596   */\n      add\n        /* \"#utility.yul\":1570:1576   */\n      dup6\n        /* \"#utility.yul\":1526:1597   */\n      tag_48\n      jump\t// in\n    tag_79:\n        /* \"#utility.yul\":1607:1673   */\n      tag_80\n        /* \"#utility.yul\":1669:1671   */\n      0x20\n        /* \"#utility.yul\":1658:1667   */\n      dup4\n        /* \"#utility.yul\":1654:1672   */\n      add\n        /* \"#utility.yul\":1645:1651   */\n      dup5\n        /* \"#utility.yul\":1607:1673   */\n      tag_50\n      jump\t// in\n    tag_80:\n        /* \"#utility.yul\":1360:1680   */\n      swap4\n      swap3\n      pop\n      pop\n      pop\n      jump\t// out\n        /* \"#utility.yul\":1686:1908   */\n    tag_17:\n        /* \"#utility.yul\":1779:1783   */\n      0x00\n        /* \"#utility.yul\":1817:1819   */\n      0x20\n        /* \"#utility.yul\":1806:1815   */\n      dup3\n        /* \"#utility.yul\":1802:1820   */\n      add\n        /* \"#utility.yul\":1794:1820   */\n      swap1\n      pop\n        /* \"#utility.yul\":1830:1901   */\n      tag_82\n        /* \"#utility.yul\":1898:1899   */\n      0x00\n        /* \"#utility.yul\":1887:1896   */\n      dup4\n        /* \"#utility.yul\":1883:1900   */\n      add\n        /* \"#utility.yul\":1874:1880   */\n      dup5\n        /* \"#utility.yul\":1830:1901   */\n      tag_48\n      jump\t// in\n    tag_82:\n        /* \"#utility.yul\":1686:1908   */\n      swap3\n      swap2\n      pop\n      pop\n      jump\t// out\n        /* \"#utility.yul\":1914:2094   */\n    tag_51:\n        /* \"#utility.yul\":1962:2039   */\n      0x4e487b7100000000000000000000000000000000000000000000000000000000\n        /* \"#utility.yul\":1959:1960   */\n      0x00\n        /* \"#utility.yul\":1952:2040   */\n      mstore\n        /* \"#utility.yul\":2059:2063   */\n      0x11\n        /* \"#utility.yul\":2056:2057   */\n      0x04\n        /* \"#utility.yul\":2049:2064   */\n      mstore\n        /* \"#utility.yul\":2083:2087   */\n      0x24\n        /* \"#utility.yul\":2080:2081   */\n      0x00\n        /* \"#utility.yul\":2073:2088   */\n      revert\n        /* \"#utility.yul\":2100:2510   */\n    tag_28:\n        /* \"#utility.yul\":2140:2147   */\n      0x00\n        /* \"#utility.yul\":2163:2183   */\n      tag_85\n        /* \"#utility.yul\":2181:2182   */\n      dup3\n        /* \"#utility.yul\":2163:2183   */\n      tag_45\n      jump\t// in\n    tag_85:\n        /* \"#utility.yul\":2158:2183   */\n      swap2\n      pop\n        /* \"#utility.yul\":2197:2217   */\n      tag_86\n        /* \"#utility.yul\":2215:2216   */\n      dup4\n        /* \"#utility.yul\":2197:2217   */\n      tag_45\n      jump\t// in\n    tag_86:\n        /* \"#utility.yul\":2192:2217   */\n      swap3\n      pop\n        /* \"#utility.yul\":2252:2253   */\n      dup3\n        /* \"#utility.yul\":2249:2250   */\n      dup3\n        /* \"#utility.yul\":2245:2254   */\n      mul\n        /* \"#utility.yul\":2274:2304   */\n      tag_87\n        /* \"#utility.yul\":2292:2303   */\n      dup2\n        /* \"#utility.yul\":2274:2304   */\n      tag_45\n      jump\t// in\n    tag_87:\n        /* \"#utility.yul\":2263:2304   */\n      swap2\n      pop\n        /* \"#utility.yul\":2453:2454   */\n      dup3\n        /* \"#utility.yul\":2444:2451   */\n      dup3\n        /* \"#utility.yul\":2440:2455   */\n      div\n        /* \"#utility.yul\":2437:2438   */\n      dup5\n        /* \"#utility.yul\":2434:2456   */\n      eq\n        /* \"#utility.yul\":2414:2415   */\n      dup4\n        /* \"#utility.yul\":2407:2416   */\n      iszero\n        /* \"#utility.yul\":2387:2470   */\n      or\n        /* \"#utility.yul\":2364:2503   */\n      tag_88\n      jumpi\n        /* \"#utility.yul\":2483:2501   */\n      tag_89\n      tag_51\n      jump\t// in\n    tag_89:\n        /* \"#utility.yul\":2364:2503   */\n    tag_88:\n        /* \"#utility.yul\":2148:2510   */\n      pop\n        /* \"#utility.yul\":2100:2510   */\n      swap3\n      swap2\n      pop\n      pop\n      jump\t// out\n        /* \"#utility.yul\":2516:2707   */\n    tag_30:\n        /* \"#utility.yul\":2556:2559   */\n      0x00\n        /* \"#utility.yul\":2575:2595   */\n      tag_91\n        /* \"#utility.yul\":2593:2594   */\n      dup3\n        /* \"#utility.yul\":2575:2595   */\n      tag_45\n      jump\t// in\n    tag_91:\n        /* \"#utility.yul\":2570:2595   */\n      swap2\n      pop\n        /* \"#utility.yul\":2609:2629   */\n      tag_92\n        /* \"#utility.yul\":2627:2628   */\n      dup4\n        /* \"#utility.yul\":2609:2629   */\n      tag_45\n      jump\t// in\n    tag_92:\n        /* \"#utility.yul\":2604:2629   */\n      swap3\n      pop\n        /* \"#utility.yul\":2652:2653   */\n      dup3\n        /* \"#utility.yul\":2649:2650   */\n      dup3\n        /* \"#utility.yul\":2645:2654   */\n      add\n        /* \"#utility.yul\":2638:2654   */\n      swap1\n      pop\n        /* \"#utility.yul\":2673:2676   */\n      dup1\n        /* \"#utility.yul\":2670:2671   */\n      dup3\n        /* \"#utility.yul\":2667:2677   */\n      gt\n        /* \"#utility.yul\":2664:2700   */\n      iszero\n      tag_93\n      jumpi\n        /* \"#utility.yul\":2680:2698   */\n      tag_94\n      tag_51\n      jump\t// in\n    tag_94:\n        /* \"#utility.yul\":2664:2700   */\n    tag_93:\n        /* \"#utility.yul\":2516:2707   */\n      swap3\n      swap2\n      pop\n      pop\n      jump\t// out\n        /* \"#utility.yul\":2713:2882   */\n    tag_52:\n        /* \"#utility.yul\":2797:2808   */\n      0x00\n        /* \"#utility.yul\":2831:2837   */\n      dup3\n        /* \"#utility.yul\":2826:2829   */\n      dup3\n        /* \"#utility.yul\":2819:2838   */\n      mstore\n        /* \"#utility.yul\":2871:2875   */\n      0x20\n        /* \"#utility.yul\":2866:2869   */\n      dup3\n        /* \"#utility.yul\":2862:2876   */\n      add\n        /* \"#utility.yul\":2847:2876   */\n      swap1\n      pop\n        /* \"#utility.yul\":2713:2882   */\n      swap3\n      swap2\n      pop\n      pop\n      jump\t// out\n        /* \"#utility.yul\":2888:3109   */\n    tag_53:\n        /* \"#utility.yul\":3028:3062   */\n      0x45706f6368206475726174696f6e20686173206e6f7420656c61707365642079\n        /* \"#utility.yul\":3024:3025   */\n      0x00\n        /* \"#utility.yul\":3016:3022   */\n      dup3\n        /* \"#utility.yul\":3012:3026   */\n      add\n        /* \"#utility.yul\":3005:3063   */\n      mstore\n        /* \"#utility.yul\":3097:3101   */\n      0x6574000000000000000000000000000000000000000000000000000000000000\n        /* \"#utility.yul\":3092:3094   */\n      0x20\n        /* \"#utility.yul\":3084:3090   */\n      dup3\n        /* \"#utility.yul\":3080:3095   */\n      add\n        /* \"#utility.yul\":3073:3102   */\n      mstore\n        /* \"#utility.yul\":2888:3109   */\n      pop\n      jump\t// out\n        /* \"#utility.yul\":3115:3481   */\n    tag_54:\n        /* \"#utility.yul\":3257:3260   */\n      0x00\n        /* \"#utility.yul\":3278:3345   */\n      tag_98\n        /* \"#utility.yul\":3342:3344   */\n      0x22\n        /* \"#utility.yul\":3337:3340   */\n      dup4\n        /* \"#utility.yul\":3278:3345   */\n      tag_52\n      jump\t// in\n    tag_98:\n        /* \"#utility.yul\":3271:3345   */\n      swap2\n      pop\n        /* \"#utility.yul\":3354:3447   */\n      tag_99\n        /* \"#utility.yul\":3443:3446   */\n      dup3\n        /* \"#utility.yul\":3354:3447   */\n      tag_53\n      jump\t// in\n    tag_99:\n        /* \"#utility.yul\":3472:3474   */\n      0x40\n        /* \"#utility.yul\":3467:3470   */\n      dup3\n        /* \"#utility.yul\":3463:3475   */\n      add\n        /* \"#utility.yul\":3456:3475   */\n      swap1\n      pop\n        /* \"#utility.yul\":3115:3481   */\n      swap2\n      swap1\n      pop\n      jump\t// out\n        /* \"#utility.yul\":3487:3906   */\n    tag_33:\n        /* \"#utility.yul\":3653:3657   */\n      0x00\n        /* \"#utility.yul\":3691:3693   */\n      0x20\n        /* \"#utility.yul\":3680:3689   */\n      dup3\n        /* \"#utility.yul\":3676:3694   */\n      add\n        /* \"#utility.yul\":3668:3694   */\n      swap1\n      pop\n        /* \"#utility.yul\":3740:3749   */\n      dup2\n        /* \"#utility.yul\":3734:3738   */\n      dup2\n        /* \"#utility.yul\":3730:3750   */\n      sub\n        /* \"#utility.yul\":3726:3727   */\n      0x00\n        /* \"#utility.yul\":3715:3724   */\n      dup4\n        /* \"#utility.yul\":3711:3728   */\n      add\n        /* \"#utility.yul\":3704:3751   */\n      mstore\n        /* \"#utility.yul\":3768:3899   */\n      tag_101\n        /* \"#utility.yul\":3894:3898   */\n      dup2\n        /* \"#utility.yul\":3768:3899   */\n      tag_54\n      jump\t// in\n    tag_101:\n        /* \"#utility.yul\":3760:3899   */\n      swap1\n      pop\n        /* \"#utility.yul\":3487:3906   */\n      swap2\n      swap1\n      pop\n      jump\t// out\n        /* \"#utility.yul\":3912:4085   */\n    tag_55:\n        /* \"#utility.yul\":4052:4077   */\n      0x45706f63682064617461206e6f742070726f706f736564000000000000000000\n        /* \"#utility.yul\":4048:4049   */\n      0x00\n        /* \"#utility.yul\":4040:4046   */\n      dup3\n        /* \"#utility.yul\":4036:4050   */\n      add\n        /* \"#utility.yul\":4029:4078   */\n      mstore\n        /* \"#utility.yul\":3912:4085   */\n      pop\n      jump\t// out\n        /* \"#utility.yul\":4091:4457   */\n    tag_56:\n        /* \"#utility.yul\":4233:4236   */\n      0x00\n        /* \"#utility.yul\":4254:4321   */\n      tag_104\n        /* \"#utility.yul\":4318:4320   */\n      0x17\n        /* \"#utility.yul\":4313:4316   */\n      dup4\n        /* \"#utility.yul\":4254:4321   */\n      tag_52\n      jump\t// in\n    tag_104:\n        /* \"#utility.yul\":4247:4321   */\n      swap2\n      pop\n        /* \"#utility.yul\":4330:4423   */\n      tag_105\n        /* \"#utility.yul\":4419:4422   */\n      dup3\n        /* \"#utility.yul\":4330:4423   */\n      tag_55\n      jump\t// in\n    tag_105:\n        /* \"#utility.yul\":4448:4450   */\n      0x20\n        /* \"#utility.yul\":4443:4446   */\n      dup3\n        /* \"#utility.yul\":4439:4451   */\n      add\n        /* \"#utility.yul\":4432:4451   */\n      swap1\n      pop\n        /* \"#utility.yul\":4091:4457   */\n      swap2\n      swap1\n      pop\n      jump\t// out\n        /* \"#utility.yul\":4463:4882   */\n    tag_36:\n        /* \"#utility.yul\":4629:4633   */\n      0x00\n        /* \"#utility.yul\":4667:4669   */\n      0x20\n        /* \"#utility.yul\":4656:4665   */\n      dup3\n        /* \"#utility.yul\":4652:4670   */\n      add\n        /* \"#utility.yul\":4644:4670   */\n      swap1\n      pop\n        /* \"#utility.yul\":4716:4725   */\n      dup2\n        /* \"#utility.yul\":4710:4714   */\n      dup2\n        /* \"#utility.yul\":4706:4726   */\n      sub\n        /* \"#utility.yul\":4702:4703   */\n      0x00\n        /* \"#utility.yul\":4691:4700   */\n      dup4\n        /* \"#utility.yul\":4687:4704   */\n      add\n        /* \"#utility.yul\":4680:4727   */\n      mstore\n        /* \"#utility.yul\":4744:4875   */\n      tag_107\n        /* \"#utility.yul\":4870:4874   */\n      dup2\n        /* \"#utility.yul\":4744:4875   */\n      tag_56\n      jump\t// in\n    tag_107:\n        /* \"#utility.yul\":4736:4875   */\n      swap1\n      pop\n        /* \"#utility.yul\":4463:4882   */\n      swap2\n      swap1\n      pop\n      jump\t// out\n        /* \"#utility.yul\":4888:5055   */\n    tag_57:\n        /* \"#utility.yul\":5028:5047   */\n      0x416c72656164792066696e616c697a6564000000000000000000000000000000\n        /* \"#utility.yul\":5024:5025   */\n      0x00\n        /* \"#utility.yul\":5016:5022   */\n      dup3\n        /* \"#utility.yul\":5012:5026   */\n      add\n        /* \"#utility.yul\":5005:5048   */\n      mstore\n        /* \"#utility.yul\":4888:5055   */\n      pop\n      jump\t// out\n        /* \"#utility.yul\":5061:5427   */\n    tag_58:\n        /* \"#utility.yul\":5203:5206   */\n      0x00\n        /* \"#utility.yul\":5224:5291   */\n      tag_110\n        /* \"#utility.yul\":5288:5290   */\n      0x11\n        /* \"#utility.yul\":5283:5286   */\n      dup4\n        /* \"#utility.yul\":5224:5291   */\n      tag_52\n      jump\t// in\n    tag_110:\n        /* \"#utility.yul\":5217:5291   */\n      swap2\n      pop\n        /* \"#utility.yul\":5300:5393   */\n      tag_111\n        /* \"#utility.yul\":5389:5392   */\n      dup3\n        /* \"#utility.yul\":5300:5393   */\n      tag_57\n      jump\t// in\n    tag_111:\n        /* \"#utility.yul\":5418:5420   */\n      0x20\n        /* \"#utility.yul\":5413:5416   */\n      dup3\n        /* \"#utility.yul\":5409:5421   */\n      add\n        /* \"#utility.yul\":5402:5421   */\n      swap1\n      pop\n        /* \"#utility.yul\":5061:5427   */\n      swap2\n      swap1\n      pop\n      jump\t// out\n        /* \"#utility.yul\":5433:5852   */\n    tag_39:\n        /* \"#utility.yul\":5599:5603   */\n      0x00\n        /* \"#utility.yul\":5637:5639   */\n      0x20\n        /* \"#utility.yul\":5626:5635   */\n      dup3\n        /* \"#utility.yul\":5622:5640   */\n      add\n        /* \"#utility.yul\":5614:5640   */\n      swap1\n      pop\n        /* \"#utility.yul\":5686:5695   */\n      dup2\n        /* \"#utility.yul\":5680:5684   */\n      dup2\n        /* \"#utility.yul\":5676:5696   */\n      sub\n        /* \"#utility.yul\":5672:5673   */\n      0x00\n        /* \"#utility.yul\":5661:5670   */\n      dup4\n        /* \"#utility.yul\":5657:5674   */\n      add\n        /* \"#utility.yul\":5650:5697   */\n      mstore\n        /* \"#utility.yul\":5714:5845   */\n      tag_113\n        /* \"#utility.yul\":5840:5844   */\n      dup2\n        /* \"#utility.yul\":5714:5845   */\n      tag_58\n      jump\t// in\n    tag_113:\n        /* \"#utility.yul\":5706:5845   */\n      swap1\n      pop\n        /* \"#utility.yul\":5433:5852   */\n      swap2\n      swap1\n      pop\n      jump\t// out\n\n    auxdata: 0xa2646970667358221220584a563051f5ea66ad056bf9e825b455a8c33d2fa154716453cd43b2569d189564736f6c634300081f0033\n}\n",
				"bytecode": {
					"linkReferences": {},
					"object": "60c060405234801561000f575f5ffd5b5060405161077a38038061077a833981810160405281019061003191906100d8565b81608081815250508060a081815250505f5f8190555060405180604001604052808381526020016001151581525060015f5f81526020019081526020015f205f820151815f01556020820151816001015f6101000a81548160ff0219169083151502179055509050505050610116565b5f5ffd5b5f819050919050565b6100b7816100a5565b81146100c1575f5ffd5b50565b5f815190506100d2816100ae565b92915050565b5f5f604083850312156100ee576100ed6100a1565b5b5f6100fb858286016100c4565b925050602061010c858286016100c4565b9150509250929050565b60805160a0516106356101455f395f8181610146015261030301525f818161011c015261017301526106355ff3fe608060405234801561000f575f5ffd5b5060043610610055575f3560e01c806304b12385146100595780630c204d441461008a57806376671808146100a857806382ae9ef7146100c6578063a70b9f0c146100d0575b5f5ffd5b610073600480360381019061006e919061035c565b6100ee565b6040516100819291906103b0565b60405180910390f35b61009261011a565b60405161009f91906103d7565b60405180910390f35b6100b061013e565b6040516100bd91906103d7565b60405180910390f35b6100ce610143565b005b6100d8610301565b6040516100e591906103d7565b60405180910390f35b6001602052805f5260405f205f91509050805f015490806001015f9054906101000a900460ff16905082565b7f000000000000000000000000000000000000000000000000000000000000000081565b5f5481565b5f7f00000000000000000000000000000000000000000000000000000000000000005f54610171919061041d565b7f000000000000000000000000000000000000000000000000000000000000000061019c919061045e565b9050804210156101e1576040517f08c379a00000000000000000000000000000000000000000000000000000000081526004016101d890610511565b60405180910390fd5b5f60015f5f5481526020019081526020015f2090505f815f01541161023b576040517f08c379a000000000000000000000000000000000000000000000000000000000815260040161023290610579565b60405180910390fd5b806001015f9054906101000a900460ff161561028c576040517f08c379a0000000000000000000000000000000000000000000000000000000008152600401610283906105e1565b60405180910390fd5b6001816001015f6101000a81548160ff02191690831515021790555042815f018190555060015f546102be919061045e565b5f8190555060015f546102d1919061045e565b7f8fc0db93d562284b2140b5ba84181e6d8649504e729013e6a8c704ffb08d04b960405160405180910390a25050565b7f000000000000000000000000000000000000000000000000000000000000000081565b5f5ffd5b5f819050919050565b61033b81610329565b8114610345575f5ffd5b50565b5f8135905061035681610332565b92915050565b5f6020828403121561037157610370610325565b5b5f61037e84828501610348565b91505092915050565b61039081610329565b82525050565b5f8115159050919050565b6103aa81610396565b82525050565b5f6040820190506103c35f830185610387565b6103d060208301846103a1565b9392505050565b5f6020820190506103ea5f830184610387565b92915050565b7f4e487b71000000000000000000000000000000000000000000000000000000005f52601160045260245ffd5b5f61042782610329565b915061043283610329565b925082820261044081610329565b91508282048414831517610457576104566103f0565b5b5092915050565b5f61046882610329565b915061047383610329565b925082820190508082111561048b5761048a6103f0565b5b92915050565b5f82825260208201905092915050565b7f45706f6368206475726174696f6e20686173206e6f7420656c617073656420795f8201527f6574000000000000000000000000000000000000000000000000000000000000602082015250565b5f6104fb602283610491565b9150610506826104a1565b604082019050919050565b5f6020820190508181035f830152610528816104ef565b9050919050565b7f45706f63682064617461206e6f742070726f706f7365640000000000000000005f82015250565b5f610563601783610491565b915061056e8261052f565b602082019050919050565b5f6020820190508181035f83015261059081610557565b9050919050565b7f416c72656164792066696e616c697a65640000000000000000000000000000005f82015250565b5f6105cb601183610491565b91506105d682610597565b602082019050919050565b5f6020820190508181035f8301526105f8816105bf565b905091905056fea2646970667358221220584a563051f5ea66ad056bf9e825b455a8c33d2fa154716453cd43b2569d189564736f6c634300081f0033",
					"opcodes": "PUSH1 0xC0 PUSH1 0x40 MSTORE CALLVALUE DUP1 ISZERO PUSH2 0xF JUMPI PUSH0 PUSH0 REVERT JUMPDEST POP PUSH1 0x40 MLOAD PUSH2 0x77A CODESIZE SUB DUP1 PUSH2 0x77A DUP4 CODECOPY DUP2 DUP2 ADD PUSH1 0x40 MSTORE DUP2 ADD SWAP1 PUSH2 0x31 SWAP2 SWAP1 PUSH2 0xD8 JUMP JUMPDEST DUP2 PUSH1 0x80 DUP2 DUP2 MSTORE POP POP DUP1 PUSH1 0xA0 DUP2 DUP2 MSTORE POP POP PUSH0 PUSH0 DUP2 SWAP1 SSTORE POP PUSH1 0x40 MLOAD DUP1 PUSH1 0x40 ADD PUSH1 0x40 MSTORE DUP1 DUP4 DUP2 MSTORE PUSH1 0x20 ADD PUSH1 0x1 ISZERO ISZERO DUP2 MSTORE POP PUSH1 0x1 PUSH0 PUSH0 DUP2 MSTORE PUSH1 0x20 ADD SWAP1 DUP2 MSTORE PUSH1 0x20 ADD PUSH0 KECCAK256 PUSH0 DUP3 ADD MLOAD DUP2 PUSH0 ADD SSTORE PUSH1 0x20 DUP3 ADD MLOAD DUP2 PUSH1 0x1 ADD PUSH0 PUSH2 0x100 EXP DUP2 SLOAD DUP2 PUSH1 0xFF MUL NOT AND SWAP1 DUP4 ISZERO ISZERO MUL OR SWAP1 SSTORE POP SWAP1 POP POP POP POP PUSH2 0x116 JUMP JUMPDEST PUSH0 PUSH0 REVERT JUMPDEST PUSH0 DUP2 SWAP1 POP SWAP2 SWAP1 POP JUMP JUMPDEST PUSH2 0xB7 DUP2 PUSH2 0xA5 JUMP JUMPDEST DUP2 EQ PUSH2 0xC1 JUMPI PUSH0 PUSH0 REVERT JUMPDEST POP JUMP JUMPDEST PUSH0 DUP2 MLOAD SWAP1 POP PUSH2 0xD2 DUP2 PUSH2 0xAE JUMP JUMPDEST SWAP3 SWAP2 POP POP JUMP JUMPDEST PUSH0 PUSH0 PUSH1 0x40 DUP4 DUP6 SUB SLT ISZERO PUSH2 0xEE JUMPI PUSH2 0xED PUSH2 0xA1 JUMP JUMPDEST JUMPDEST PUSH0 PUSH2 0xFB DUP6 DUP3 DUP7 ADD PUSH2 0xC4 JUMP JUMPDEST SWAP3 POP POP PUSH1 0x20 PUSH2 0x10C DUP6 DUP3 DUP7 ADD PUSH2 0xC4 JUMP JUMPDEST SWAP2 POP POP SWAP3 POP SWAP3 SWAP1 POP JUMP JUMPDEST PUSH1 0x80 MLOAD PUSH1 0xA0 MLOAD PUSH2 0x635 PUSH2 0x145 PUSH0 CODECOPY PUSH0 DUP2 DUP2 PUSH2 0x146 ADD MSTORE PUSH2 0x303 ADD MSTORE PUSH0 DUP2 DUP2 PUSH2 0x11C ADD MSTORE PUSH2 0x173 ADD MSTORE PUSH2 0x635 PUSH0 RETURN INVALID PUSH1 0x80 PUSH1 0x40 MSTORE CALLVALUE DUP1 ISZERO PUSH2 0xF JUMPI PUSH0 PUSH0 REVERT JUMPDEST POP PUSH1 0x4 CALLDATASIZE LT PUSH2 0x55 JUMPI PUSH0 CALLDATALOAD PUSH1 0xE0 SHR DUP1 PUSH4 0x4B12385 EQ PUSH2 0x59 JUMPI DUP1 PUSH4 0xC204D44 EQ PUSH2 0x8A JUMPI DUP1 PUSH4 0x76671808 EQ PUSH2 0xA8 JUMPI DUP1 PUSH4 0x82AE9EF7 EQ PUSH2 0xC6 JUMPI DUP1 PUSH4 0xA70B9F0C EQ PUSH2 0xD0 JUMPI JUMPDEST PUSH0 PUSH0 REVERT JUMPDEST PUSH2 0x73 PUSH1 0x4 DUP1 CALLDATASIZE SUB DUP2 ADD SWAP1 PUSH2 0x6E SWAP2 SWAP1 PUSH2 0x35C JUMP JUMPDEST PUSH2 0xEE JUMP JUMPDEST PUSH1 0x40 MLOAD PUSH2 0x81 SWAP3 SWAP2 SWAP1 PUSH2 0x3B0 JUMP JUMPDEST PUSH1 0x40 MLOAD DUP1 SWAP2 SUB SWAP1 RETURN JUMPDEST PUSH2 0x92 PUSH2 0x11A JUMP JUMPDEST PUSH1 0x40 MLOAD PUSH2 0x9F SWAP2 SWAP1 PUSH2 0x3D7 JUMP JUMPDEST PUSH1 0x40 MLOAD DUP1 SWAP2 SUB SWAP1 RETURN JUMPDEST PUSH2 0xB0 PUSH2 0x13E JUMP JUMPDEST PUSH1 0x40 MLOAD PUSH2 0xBD SWAP2 SWAP1 PUSH2 0x3D7 JUMP JUMPDEST PUSH1 0x40 MLOAD DUP1 SWAP2 SUB SWAP1 RETURN JUMPDEST PUSH2 0xCE PUSH2 0x143 JUMP JUMPDEST STOP JUMPDEST PUSH2 0xD8 PUSH2 0x301 JUMP JUMPDEST PUSH1 0x40 MLOAD PUSH2 0xE5 SWAP2 SWAP1 PUSH2 0x3D7 JUMP JUMPDEST PUSH1 0x40 MLOAD DUP1 SWAP2 SUB SWAP1 RETURN JUMPDEST PUSH1 0x1 PUSH1 0x20 MSTORE DUP1 PUSH0 MSTORE PUSH1 0x40 PUSH0 KECCAK256 PUSH0 SWAP2 POP SWAP1 POP DUP1 PUSH0 ADD SLOAD SWAP1 DUP1 PUSH1 0x1 ADD PUSH0 SWAP1 SLOAD SWAP1 PUSH2 0x100 EXP SWAP1 DIV PUSH1 0xFF AND SWAP1 POP DUP3 JUMP JUMPDEST PUSH32 0x0 DUP2 JUMP JUMPDEST PUSH0 SLOAD DUP2 JUMP JUMPDEST PUSH0 PUSH32 0x0 PUSH0 SLOAD PUSH2 0x171 SWAP2 SWAP1 PUSH2 0x41D JUMP JUMPDEST PUSH32 0x0 PUSH2 0x19C SWAP2 SWAP1 PUSH2 0x45E JUMP JUMPDEST SWAP1 POP DUP1 TIMESTAMP LT ISZERO PUSH2 0x1E1 JUMPI PUSH1 0x40 MLOAD PUSH32 0x8C379A000000000000000000000000000000000000000000000000000000000 DUP2 MSTORE PUSH1 0x4 ADD PUSH2 0x1D8 SWAP1 PUSH2 0x511 JUMP JUMPDEST PUSH1 0x40 MLOAD DUP1 SWAP2 SUB SWAP1 REVERT JUMPDEST PUSH0 PUSH1 0x1 PUSH0 PUSH0 SLOAD DUP2 MSTORE PUSH1 0x20 ADD SWAP1 DUP2 MSTORE PUSH1 0x20 ADD PUSH0 KECCAK256 SWAP1 POP PUSH0 DUP2 PUSH0 ADD SLOAD GT PUSH2 0x23B JUMPI PUSH1 0x40 MLOAD PUSH32 0x8C379A000000000000000000000000000000000000000000000000000000000 DUP2 MSTORE PUSH1 0x4 ADD PUSH2 0x232 SWAP1 PUSH2 0x579 JUMP JUMPDEST PUSH1 0x40 MLOAD DUP1 SWAP2 SUB SWAP1 REVERT JUMPDEST DUP1 PUSH1 0x1 ADD PUSH0 SWAP1 SLOAD SWAP1 PUSH2 0x100 EXP SWAP1 DIV PUSH1 0xFF AND ISZERO PUSH2 0x28C JUMPI PUSH1 0x40 MLOAD PUSH32 0x8C379A000000000000000000000000000000000000000000000000000000000 DUP2 MSTORE PUSH1 0x4 ADD PUSH2 0x283 SWAP1 PUSH2 0x5E1 JUMP JUMPDEST PUSH1 0x40 MLOAD DUP1 SWAP2 SUB SWAP1 REVERT JUMPDEST PUSH1 0x1 DUP2 PUSH1 0x1 ADD PUSH0 PUSH2 0x100 EXP DUP2 SLOAD DUP2 PUSH1 0xFF MUL NOT AND SWAP1 DUP4 ISZERO ISZERO MUL OR SWAP1 SSTORE POP TIMESTAMP DUP2 PUSH0 ADD DUP2 SWAP1 SSTORE POP PUSH1 0x1 PUSH0 SLOAD PUSH2 0x2BE SWAP2 SWAP1 PUSH2 0x45E JUMP JUMPDEST PUSH0 DUP2 SWAP1 SSTORE POP PUSH1 0x1 PUSH0 SLOAD PUSH2 0x2D1 SWAP2 SWAP1 PUSH2 0x45E JUMP JUMPDEST PUSH32 0x8FC0DB93D562284B2140B5BA84181E6D8649504E729013E6A8C704FFB08D04B9 PUSH1 0x40 MLOAD PUSH1 0x40 MLOAD DUP1 SWAP2 SUB SWAP1 LOG2 POP POP JUMP JUMPDEST PUSH32 0x0 DUP2 JUMP JUMPDEST PUSH0 PUSH0 REVERT JUMPDEST PUSH0 DUP2 SWAP1 POP SWAP2 SWAP1 POP JUMP JUMPDEST PUSH2 0x33B DUP2 PUSH2 0x329 JUMP JUMPDEST DUP2 EQ PUSH2 0x345 JUMPI PUSH0 PUSH0 REVERT JUMPDEST POP JUMP JUMPDEST PUSH0 DUP2 CALLDATALOAD SWAP1 POP PUSH2 0x356 DUP2 PUSH2 0x332 JUMP JUMPDEST SWAP3 SWAP2 POP POP JUMP JUMPDEST PUSH0 PUSH1 0x20 DUP3 DUP5 SUB SLT ISZERO PUSH2 0x371 JUMPI PUSH2 0x370 PUSH2 0x325 JUMP JUMPDEST JUMPDEST PUSH0 PUSH2 0x37E DUP5 DUP3 DUP6 ADD PUSH2 0x348 JUMP JUMPDEST SWAP2 POP POP SWAP3 SWAP2 POP POP JUMP JUMPDEST PUSH2 0x390 DUP2 PUSH2 0x329 JUMP JUMPDEST DUP3 MSTORE POP POP JUMP JUMPDEST PUSH0 DUP2 ISZERO ISZERO SWAP1 POP SWAP2 SWAP1 POP JUMP JUMPDEST PUSH2 0x3AA DUP2 PUSH2 0x396 JUMP JUMPDEST DUP3 MSTORE POP POP JUMP JUMPDEST PUSH0 PUSH1 0x40 DUP3 ADD SWAP1 POP PUSH2 0x3C3 PUSH0 DUP4 ADD DUP6 PUSH2 0x387 JUMP JUMPDEST PUSH2 0x3D0 PUSH1 0x20 DUP4 ADD DUP5 PUSH2 0x3A1 JUMP JUMPDEST SWAP4 SWAP3 POP POP POP JUMP JUMPDEST PUSH0 PUSH1 0x20 DUP3 ADD SWAP1 POP PUSH2 0x3EA PUSH0 DUP4 ADD DUP5 PUSH2 0x387 JUMP JUMPDEST SWAP3 SWAP2 POP POP JUMP JUMPDEST PUSH32 0x4E487B7100000000000000000000000000000000000000000000000000000000 PUSH0 MSTORE PUSH1 0x11 PUSH1 0x4 MSTORE PUSH1 0x24 PUSH0 REVERT JUMPDEST PUSH0 PUSH2 0x427 DUP3 PUSH2 0x329 JUMP JUMPDEST SWAP2 POP PUSH2 0x432 DUP4 PUSH2 0x329 JUMP JUMPDEST SWAP3 POP DUP3 DUP3 MUL PUSH2 0x440 DUP2 PUSH2 0x329 JUMP JUMPDEST SWAP2 POP DUP3 DUP3 DIV DUP5 EQ DUP4 ISZERO OR PUSH2 0x457 JUMPI PUSH2 0x456 PUSH2 0x3F0 JUMP JUMPDEST JUMPDEST POP SWAP3 SWAP2 POP POP JUMP JUMPDEST PUSH0 PUSH2 0x468 DUP3 PUSH2 0x329 JUMP JUMPDEST SWAP2 POP PUSH2 0x473 DUP4 PUSH2 0x329 JUMP JUMPDEST SWAP3 POP DUP3 DUP3 ADD SWAP1 POP DUP1 DUP3 GT ISZERO PUSH2 0x48B JUMPI PUSH2 0x48A PUSH2 0x3F0 JUMP JUMPDEST JUMPDEST SWAP3 SWAP2 POP POP JUMP JUMPDEST PUSH0 DUP3 DUP3 MSTORE PUSH1 0x20 DUP3 ADD SWAP1 POP SWAP3 SWAP2 POP POP JUMP JUMPDEST PUSH32 0x45706F6368206475726174696F6E20686173206E6F7420656C61707365642079 PUSH0 DUP3 ADD MSTORE PUSH32 0x6574000000000000000000000000000000000000000000000000000000000000 PUSH1 0x20 DUP3 ADD MSTORE POP JUMP JUMPDEST PUSH0 PUSH2 0x4FB PUSH1 0x22 DUP4 PUSH2 0x491 JUMP JUMPDEST SWAP2 POP PUSH2 0x506 DUP3 PUSH2 0x4A1 JUMP JUMPDEST PUSH1 0x40 DUP3 ADD SWAP1 POP SWAP2 SWAP1 POP JUMP JUMPDEST PUSH0 PUSH1 0x20 DUP3 ADD SWAP1 POP DUP2 DUP2 SUB PUSH0 DUP4 ADD MSTORE PUSH2 0x528 DUP2 PUSH2 0x4EF JUMP JUMPDEST SWAP1 POP SWAP2 SWAP1 POP JUMP JUMPDEST PUSH32 0x45706F63682064617461206E6F742070726F706F736564000000000000000000 PUSH0 DUP3 ADD MSTORE POP JUMP JUMPDEST PUSH0 PUSH2 0x563 PUSH1 0x17 DUP4 PUSH2 0x491 JUMP JUMPDEST SWAP2 POP PUSH2 0x56E DUP3 PUSH2 0x52F JUMP JUMPDEST PUSH1 0x20 DUP3 ADD SWAP1 POP SWAP2 SWAP1 POP JUMP JUMPDEST PUSH0 PUSH1 0x20 DUP3 ADD SWAP1 POP DUP2 DUP2 SUB PUSH0 DUP4 ADD MSTORE PUSH2 0x590 DUP2 PUSH2 0x557 JUMP JUMPDEST SWAP1 POP SWAP2 SWAP1 POP JUMP JUMPDEST PUSH32 0x416C72656164792066696E616C697A6564000000000000000000000000000000 PUSH0 DUP3 ADD MSTORE POP JUMP JUMPDEST PUSH0 PUSH2 0x5CB PUSH1 0x11 DUP4 PUSH2 0x491 JUMP JUMPDEST SWAP2 POP PUSH2 0x5D6 DUP3 PUSH2 0x597 JUMP JUMPDEST PUSH1 0x20 DUP3 ADD SWAP1 POP SWAP2 SWAP1 POP JUMP JUMPDEST PUSH0 PUSH1 0x20 DUP3 ADD SWAP1 POP DUP2 DUP2 SUB PUSH0 DUP4 ADD MSTORE PUSH2 0x5F8 DUP2 PUSH2 0x5BF JUMP JUMPDEST SWAP1 POP SWAP2 SWAP1 POP JUMP INVALID LOG2 PUSH5 0x6970667358 0x22 SLT KECCAK256 PC BLOBBASEFEE JUMP ADDRESS MLOAD CREATE2 0xEA PUSH7 0xAD056BF9E825B4 SSTORE 0xA8 0xC3 RETURNDATASIZE 0x2F LOG1 SLOAD PUSH18 0x6453CD43B2569D189564736F6C634300081F STOP CALLER "
				},
				"gasEstimates": {
					"creation": {
						"codeDepositCost": "317800",
						"executionCost": "infinite",
						"totalCost": "infinite"
					},
					"external": {
						"EPOCH_DURATION()": "infinite",
						"GENESIS_TIMESTAMP()": "infinite",
						"currentEpoch()": "2446",
						"epochHistory(uint256)": "infinite",
						"finalizeEpoch()": "infinite"
					}
				},
				"methodIdentifiers": {
					"EPOCH_DURATION()": "a70b9f0c",
					"GENESIS_TIMESTAMP()": "0c204d44",
					"currentEpoch()": "76671808",
					"epochHistory(uint256)": "04b12385",
					"finalizeEpoch()": "82ae9ef7"
				}
			},
			"storageLayout": {
				"storage": [
					{
						"astId": 12,
						"contract": "Evm/core/epoch.sol:EpochManager",
						"label": "currentEpoch",
						"offset": 0,
						"slot": "0",
						"type": "t_uint256"
					},
					{
						"astId": 17,
						"contract": "Evm/core/epoch.sol:EpochManager",
						"label": "epochHistory",
						"offset": 0,
						"slot": "1",
						"type": "t_mapping(t_uint256,t_struct(EpochState)6_storage)"
					}
				],
				"types": {
					"t_bool": {
						"encoding": "inplace",
						"label": "bool",
						"numberOfBytes": "1"
					},
					"t_mapping(t_uint256,t_struct(EpochState)6_storage)": {
						"encoding": "mapping",
						"key": "t_uint256",
						"label": "mapping(uint256 => struct EpochManager.EpochState)",
						"numberOfBytes": "32",
						"value": "t_struct(EpochState)6_storage"
					},
					"t_struct(EpochState)6_storage": {
						"encoding": "inplace",
						"label": "struct EpochManager.EpochState",
						"members": [
							{
								"astId": 3,
								"contract": "Evm/core/epoch.sol:EpochManager",
								"label": "timestamp",
								"offset": 0,
								"slot": "0",
								"type": "t_uint256"
							},
							{
								"astId": 5,
								"contract": "Evm/core/epoch.sol:EpochManager",
								"label": "finalized",
								"offset": 0,
								"slot": "1",
								"type": "t_bool"
							}
						],
						"numberOfBytes": "64"
					},
					"t_uint256": {
						"encoding": "inplace",
						"label": "uint256",
						"numberOfBytes": "32"
					}
				}
			},
			"userdoc": {
				"kind": "user",
				"methods": {},
				"version": 1
			}
		}
	}
}