{
	"Evm/core/base/vaultDelegator.sol": {
		"QiaraZKDelegator": {
			"abi": [
				{
					"inputs": [
						{
							"internalType": "address",
							"name": "_balance_verifier",
							"type": "address"
						},
						{
							"internalType": "address",
							"name": "_variable_verifier",
							"type": "address"
						},
						{
							"internalType": "address",
							"name": "_validator_verifier",
							"type": "address"
						},
						{
							"internalType": "address",
							"name": "_variablesRegistry",
							"type": "address"
						},
						{
							"internalType": "address",
							"name": "_validatorsRegistry",
							"type": "address"
						}
					],
					"stateMutability": "nonpayable",
					"type": "constructor"
				},
				{
					"inputs": [
						{
							"internalType": "address",
							"name": "owner",
							"type": "address"
						}
					],
					"name": "OwnableInvalidOwner",
					"type": "error"
				},
				{
					"inputs": [
						{
							"internalType": "address",
							"name": "account",
							"type": "address"
						}
					],
					"name": "OwnableUnauthorizedAccount",
					"type": "error"
				},
				{
					"anonymous": false,
					"inputs": [
						{
							"indexed": true,
							"internalType": "address",
							"name": "previousOwner",
							"type": "address"
						},
						{
							"indexed": true,
							"internalType": "address",
							"name": "newOwner",
							"type": "address"
						}
					],
					"name": "OwnershipTransferred",
					"type": "event"
				},
				{
					"inputs": [],
					"name": "balance_verifier",
					"outputs": [
						{
							"internalType": "contract IBalanceVerifier",
							"name": "",
							"type": "address"
						}
					],
					"stateMutability": "view",
					"type": "function"
				},
				{
					"inputs": [
						{
							"internalType": "uint256",
							"name": "_field",
							"type": "uint256"
						}
					],
					"name": "fieldToAddress",
					"outputs": [
						{
							"internalType": "address",
							"name": "",
							"type": "address"
						}
					],
					"stateMutability": "pure",
					"type": "function"
				},
				{
					"inputs": [
						{
							"internalType": "uint256",
							"name": "_field",
							"type": "uint256"
						}
					],
					"name": "fieldToBytes",
					"outputs": [
						{
							"internalType": "bytes",
							"name": "",
							"type": "bytes"
						}
					],
					"stateMutability": "pure",
					"type": "function"
				},
				{
					"inputs": [
						{
							"internalType": "uint256",
							"name": "_field",
							"type": "uint256"
						}
					],
					"name": "fieldToString",
					"outputs": [
						{
							"internalType": "string",
							"name": "",
							"type": "string"
						}
					],
					"stateMutability": "pure",
					"type": "function"
				},
				{
					"inputs": [
						{
							"internalType": "bytes32",
							"name": "_messageHash",
							"type": "bytes32"
						}
					],
					"name": "getEthSignedMessageHash",
					"outputs": [
						{
							"internalType": "bytes32",
							"name": "",
							"type": "bytes32"
						}
					],
					"stateMutability": "pure",
					"type": "function"
				},
				{
					"inputs": [],
					"name": "owner",
					"outputs": [
						{
							"internalType": "address",
							"name": "",
							"type": "address"
						}
					],
					"stateMutability": "view",
					"type": "function"
				},
				{
					"inputs": [
						{
							"internalType": "uint256[8]",
							"name": "proof",
							"type": "uint256[8]"
						},
						{
							"internalType": "uint256[6]",
							"name": "input",
							"type": "uint256[6]"
						},
						{
							"internalType": "address[]",
							"name": "validators",
							"type": "address[]"
						},
						{
							"internalType": "bytes",
							"name": "_signatures",
							"type": "bytes"
						}
					],
					"name": "processZkValidator",
					"outputs": [],
					"stateMutability": "nonpayable",
					"type": "function"
				},
				{
					"inputs": [
						{
							"internalType": "uint256[8]",
							"name": "proof",
							"type": "uint256[8]"
						},
						{
							"internalType": "uint256[6]",
							"name": "input",
							"type": "uint256[6]"
						},
						{
							"internalType": "address[]",
							"name": "validators",
							"type": "address[]"
						},
						{
							"internalType": "bytes",
							"name": "_signatures",
							"type": "bytes"
						}
					],
					"name": "processZkVariable",
					"outputs": [],
					"stateMutability": "nonpayable",
					"type": "function"
				},
				{
					"inputs": [
						{
							"internalType": "uint256[8]",
							"name": "proof",
							"type": "uint256[8]"
						},
						{
							"internalType": "uint256[6]",
							"name": "input",
							"type": "uint256[6]"
						},
						{
							"internalType": "address[]",
							"name": "validators",
							"type": "address[]"
						},
						{
							"internalType": "bytes",
							"name": "_signatures",
							"type": "bytes"
						}
					],
					"name": "processZkWithdraw",
					"outputs": [],
					"stateMutability": "nonpayable",
					"type": "function"
				},
				{
					"inputs": [
						{
							"internalType": "bytes32",
							"name": "_ethSignedMessageHash",
							"type": "bytes32"
						},
						{
							"internalType": "bytes",
							"name": "_signature",
							"type": "bytes"
						}
					],
					"name": "recoverSigner",
					"outputs": [
						{
							"internalType": "address",
							"name": "",
							"type": "address"
						}
					],
					"stateMutability": "pure",
					"type": "function"
				},
				{
					"inputs": [],
					"name": "renounceOwnership",
					"outputs": [],
					"stateMutability": "nonpayable",
					"type": "function"
				},
				{
					"inputs": [
						{
							"internalType": "address",
							"name": "newOwner",
							"type": "address"
						}
					],
					"name": "transferOwnership",
					"outputs": [],
					"stateMutability": "nonpayable",
					"type": "function"
				},
				{
					"inputs": [
						{
							"internalType": "uint256",
							"name": "",
							"type": "uint256"
						}
					],
					"name": "usedNullifiers",
					"outputs": [
						{
							"internalType": "bool",
							"name": "",
							"type": "bool"
						}
					],
					"stateMutability": "view",
					"type": "function"
				},
				{
					"inputs": [],
					"name": "validator_verifier",
					"outputs": [
						{
							"internalType": "contract IValidatorVerifier",
							"name": "",
							"type": "address"
						}
					],
					"stateMutability": "view",
					"type": "function"
				},
				{
					"inputs": [],
					"name": "validatorsRegistry",
					"outputs": [
						{
							"internalType": "contract IValidators",
							"name": "",
							"type": "address"
						}
					],
					"stateMutability": "view",
					"type": "function"
				},
				{
					"inputs": [],
					"name": "variable_verifier",
					"outputs": [
						{
							"internalType": "contract IVariableVerifier",
							"name": "",
							"type": "address"
						}
					],
					"stateMutability": "view",
					"type": "function"
				},
				{
					"inputs": [],
					"name": "variablesRegistry",
					"outputs": [
						{
							"internalType": "contract IVariables",
							"name": "",
							"type": "address"
						}
					],
					"stateMutability": "view",
					"type": "function"
				}
			],
			"devdoc": {
				"errors": {
					"OwnableInvalidOwner(address)": [
						{
							"details": "The owner is not a valid owner account. (eg. `address(0)`)"
						}
					],
					"OwnableUnauthorizedAccount(address)": [
						{
							"details": "The caller account is not authorized to perform an operation."
						}
					]
				},
				"kind": "dev",
				"methods": {
					"owner()": {
						"details": "Returns the address of the current owner."
					},
					"renounceOwnership()": {
						"details": "Leaves the contract without owner. It will not be possible to call `onlyOwner` functions. Can only be called by the current owner. NOTE: Renouncing ownership will leave the contract without an owner, thereby disabling any functionality that is only available to the owner."
					},
					"transferOwnership(address)": {
						"details": "Transfers ownership of the contract to a new account (`newOwner`). Can only be called by the current owner."
					}
				},
				"version": 1
			},
			"evm": {
				"assembly": "    /* \"Evm/core/base/vaultDelegator.sol\":1060:10821  contract QiaraZKDelegator is Ownable {... */\n  mstore(0x40, 0x0120)\n    /* \"Evm/core/base/vaultDelegator.sol\":1490:1998  constructor(address _balance_verifier,address _variable_verifier,address _validator_verifier, address _variablesRegistry, address _validatorsRegistry) Ownable(msg.sender) {... */\n  callvalue\n  dup1\n  iszero\n  tag_1\n  jumpi\n  revert(0x00, 0x00)\ntag_1:\n  pop\n  mload(0x40)\n  sub(codesize, bytecodeSize)\n  dup1\n  bytecodeSize\n  dup4\n  codecopy\n  dup2\n  dup2\n  add\n  0x40\n  mstore\n  dup2\n  add\n  swap1\n  tag_2\n  swap2\n  swap1\n  tag_3\n  jump\t// in\ntag_2:\n    /* \"Evm/core/base/vaultDelegator.sol\":1649:1659  msg.sender */\n  caller\n    /* \"@openzeppelin/contracts/access/Ownable.sol\":1297:1298  0 */\n  0x00\n    /* \"@openzeppelin/contracts/access/Ownable.sol\":1273:1299  initialOwner == address(0) */\n  0xffffffffffffffffffffffffffffffffffffffff\n  and\n    /* \"@openzeppelin/contracts/access/Ownable.sol\":1273:1285  initialOwner */\n  dup2\n    /* \"@openzeppelin/contracts/access/Ownable.sol\":1273:1299  initialOwner == address(0) */\n  0xffffffffffffffffffffffffffffffffffffffff\n  and\n  sub\n    /* \"@openzeppelin/contracts/access/Ownable.sol\":1269:1364  if (initialOwner == address(0)) {... */\n  tag_7\n  jumpi\n    /* \"@openzeppelin/contracts/access/Ownable.sol\":1350:1351  0 */\n  0x00\n    /* \"@openzeppelin/contracts/access/Ownable.sol\":1322:1353  OwnableInvalidOwner(address(0)) */\n  mload(0x40)\n  0x1e4fbdf700000000000000000000000000000000000000000000000000000000\n  dup2\n  mstore\n  0x04\n  add\n  tag_8\n  swap2\n  swap1\n  tag_9\n  jump\t// in\ntag_8:\n  mload(0x40)\n  dup1\n  swap2\n  sub\n  swap1\n  revert\n    /* \"@openzeppelin/contracts/access/Ownable.sol\":1269:1364  if (initialOwner == address(0)) {... */\ntag_7:\n    /* \"@openzeppelin/contracts/access/Ownable.sol\":1373:1405  _transferOwnership(initialOwner) */\n  tag_10\n    /* \"@openzeppelin/contracts/access/Ownable.sol\":1392:1404  initialOwner */\n  dup2\n    /* \"@openzeppelin/contracts/access/Ownable.sol\":1373:1391  _transferOwnership */\n  shl(0x20, tag_11)\n    /* \"@openzeppelin/contracts/access/Ownable.sol\":1373:1405  _transferOwnership(initialOwner) */\n  0x20\n  shr\n  jump\t// in\ntag_10:\n    /* \"@openzeppelin/contracts/access/Ownable.sol\":1225:1412  constructor(address initialOwner) {... */\n  pop\n    /* \"Evm/core/base/vaultDelegator.sol\":1708:1725  _balance_verifier */\n  dup5\n    /* \"Evm/core/base/vaultDelegator.sol\":1672:1726  balance_verifier = IBalanceVerifier(_balance_verifier) */\n  0xffffffffffffffffffffffffffffffffffffffff\n  and\n  0x80\n  dup2\n  0xffffffffffffffffffffffffffffffffffffffff\n  and\n  dup2\n  mstore\n  pop\n  pop\n    /* \"Evm/core/base/vaultDelegator.sol\":1775:1793  _variable_verifier */\n  dup4\n    /* \"Evm/core/base/vaultDelegator.sol\":1737:1794  variable_verifier = IVariableVerifier(_variable_verifier) */\n  0xffffffffffffffffffffffffffffffffffffffff\n  and\n  0xa0\n  dup2\n  0xffffffffffffffffffffffffffffffffffffffff\n  and\n  dup2\n  mstore\n  pop\n  pop\n    /* \"Evm/core/base/vaultDelegator.sol\":1845:1864  _validator_verifier */\n  dup3\n    /* \"Evm/core/base/vaultDelegator.sol\":1805:1865  validator_verifier = IValidatorVerifier(_validator_verifier) */\n  0xffffffffffffffffffffffffffffffffffffffff\n  and\n  0xc0\n  dup2\n  0xffffffffffffffffffffffffffffffffffffffff\n  and\n  dup2\n  mstore\n  pop\n  pop\n    /* \"Evm/core/base/vaultDelegator.sol\":1907:1925  _variablesRegistry */\n  dup2\n    /* \"Evm/core/base/vaultDelegator.sol\":1876:1926  variablesRegistry = IVariables(_variablesRegistry) */\n  0xffffffffffffffffffffffffffffffffffffffff\n  and\n  0xe0\n  dup2\n  0xffffffffffffffffffffffffffffffffffffffff\n  and\n  dup2\n  mstore\n  pop\n  pop\n    /* \"Evm/core/base/vaultDelegator.sol\":1970:1989  _validatorsRegistry */\n  dup1\n    /* \"Evm/core/base/vaultDelegator.sol\":1937:1990  validatorsRegistry = IValidators(_validatorsRegistry) */\n  0xffffffffffffffffffffffffffffffffffffffff\n  and\n  0x0100\n  dup2\n  0xffffffffffffffffffffffffffffffffffffffff\n  and\n  dup2\n  mstore\n  pop\n  pop\n    /* \"Evm/core/base/vaultDelegator.sol\":1490:1998  constructor(address _balance_verifier,address _variable_verifier,address _validator_verifier, address _variablesRegistry, address _validatorsRegistry) Ownable(msg.sender) {... */\n  pop\n  pop\n  pop\n  pop\n  pop\n    /* \"Evm/core/base/vaultDelegator.sol\":1060:10821  contract QiaraZKDelegator is Ownable {... */\n  jump(tag_13)\n    /* \"@openzeppelin/contracts/access/Ownable.sol\":2912:3099  function _transferOwnership(address newOwner) internal virtual {... */\ntag_11:\n    /* \"@openzeppelin/contracts/access/Ownable.sol\":2985:3001  address oldOwner */\n  0x00\n    /* \"@openzeppelin/contracts/access/Ownable.sol\":3004:3010  _owner */\n  0x00\n  0x00\n  swap1\n  sload\n  swap1\n  0x0100\n  exp\n  swap1\n  div\n  0xffffffffffffffffffffffffffffffffffffffff\n  and\n    /* \"@openzeppelin/contracts/access/Ownable.sol\":2985:3010  address oldOwner = _owner */\n  swap1\n  pop\n    /* \"@openzeppelin/contracts/access/Ownable.sol\":3029:3037  newOwner */\n  dup2\n    /* \"@openzeppelin/contracts/access/Ownable.sol\":3020:3026  _owner */\n  0x00\n  0x00\n    /* \"@openzeppelin/contracts/access/Ownable.sol\":3020:3037  _owner = newOwner */\n  0x0100\n  exp\n  dup2\n  sload\n  dup2\n  0xffffffffffffffffffffffffffffffffffffffff\n  mul\n  not\n  and\n  swap1\n  dup4\n  0xffffffffffffffffffffffffffffffffffffffff\n  and\n  mul\n  or\n  swap1\n  sstore\n  pop\n    /* \"@openzeppelin/contracts/access/Ownable.sol\":3083:3091  newOwner */\n  dup2\n    /* \"@openzeppelin/contracts/access/Ownable.sol\":3052:3092  OwnershipTransferred(oldOwner, newOwner) */\n  0xffffffffffffffffffffffffffffffffffffffff\n  and\n    /* \"@openzeppelin/contracts/access/Ownable.sol\":3073:3081  oldOwner */\n  dup2\n    /* \"@openzeppelin/contracts/access/Ownable.sol\":3052:3092  OwnershipTransferred(oldOwner, newOwner) */\n  0xffffffffffffffffffffffffffffffffffffffff\n  and\n  0x8be0079c531659141344cd1fd0a4f28419497f9722a3daafe3b4186f6b6457e0\n  mload(0x40)\n  mload(0x40)\n  dup1\n  swap2\n  sub\n  swap1\n  log3\n    /* \"@openzeppelin/contracts/access/Ownable.sol\":2975:3099  {... */\n  pop\n    /* \"@openzeppelin/contracts/access/Ownable.sol\":2912:3099  function _transferOwnership(address newOwner) internal virtual {... */\n  pop\n  jump\t// out\n    /* \"#utility.yul\":88:205   */\ntag_16:\n    /* \"#utility.yul\":197:198   */\n  0x00\n    /* \"#utility.yul\":194:195   */\n  0x00\n    /* \"#utility.yul\":187:199   */\n  revert\n    /* \"#utility.yul\":334:460   */\ntag_18:\n    /* \"#utility.yul\":371:378   */\n  0x00\n    /* \"#utility.yul\":411:453   */\n  0xffffffffffffffffffffffffffffffffffffffff\n    /* \"#utility.yul\":404:409   */\n  dup3\n    /* \"#utility.yul\":400:454   */\n  and\n    /* \"#utility.yul\":389:454   */\n  swap1\n  pop\n    /* \"#utility.yul\":334:460   */\n  swap2\n  swap1\n  pop\n  jump\t// out\n    /* \"#utility.yul\":466:562   */\ntag_19:\n    /* \"#utility.yul\":503:510   */\n  0x00\n    /* \"#utility.yul\":532:556   */\n  tag_29\n    /* \"#utility.yul\":550:555   */\n  dup3\n    /* \"#utility.yul\":532:556   */\n  tag_18\n  jump\t// in\ntag_29:\n    /* \"#utility.yul\":521:556   */\n  swap1\n  pop\n    /* \"#utility.yul\":466:562   */\n  swap2\n  swap1\n  pop\n  jump\t// out\n    /* \"#utility.yul\":568:690   */\ntag_20:\n    /* \"#utility.yul\":641:665   */\n  tag_31\n    /* \"#utility.yul\":659:664   */\n  dup2\n    /* \"#utility.yul\":641:665   */\n  tag_19\n  jump\t// in\ntag_31:\n    /* \"#utility.yul\":634:639   */\n  dup2\n    /* \"#utility.yul\":631:666   */\n  eq\n    /* \"#utility.yul\":621:684   */\n  tag_32\n  jumpi\n    /* \"#utility.yul\":680:681   */\n  0x00\n    /* \"#utility.yul\":677:678   */\n  0x00\n    /* \"#utility.yul\":670:682   */\n  revert\n    /* \"#utility.yul\":621:684   */\ntag_32:\n    /* \"#utility.yul\":568:690   */\n  pop\n  jump\t// out\n    /* \"#utility.yul\":696:839   */\ntag_21:\n    /* \"#utility.yul\":753:758   */\n  0x00\n    /* \"#utility.yul\":784:790   */\n  dup2\n    /* \"#utility.yul\":778:791   */\n  mload\n    /* \"#utility.yul\":769:791   */\n  swap1\n  pop\n    /* \"#utility.yul\":800:833   */\n  tag_34\n    /* \"#utility.yul\":827:832   */\n  dup2\n    /* \"#utility.yul\":800:833   */\n  tag_20\n  jump\t// in\ntag_34:\n    /* \"#utility.yul\":696:839   */\n  swap3\n  swap2\n  pop\n  pop\n  jump\t// out\n    /* \"#utility.yul\":845:1822   */\ntag_3:\n    /* \"#utility.yul\":951:957   */\n  0x00\n    /* \"#utility.yul\":959:965   */\n  0x00\n    /* \"#utility.yul\":967:973   */\n  0x00\n    /* \"#utility.yul\":975:981   */\n  0x00\n    /* \"#utility.yul\":983:989   */\n  0x00\n    /* \"#utility.yul\":1032:1035   */\n  0xa0\n    /* \"#utility.yul\":1020:1029   */\n  dup7\n    /* \"#utility.yul\":1011:1018   */\n  dup9\n    /* \"#utility.yul\":1007:1030   */\n  sub\n    /* \"#utility.yul\":1003:1036   */\n  slt\n    /* \"#utility.yul\":1000:1120   */\n  iszero\n  tag_36\n  jumpi\n    /* \"#utility.yul\":1039:1118   */\n  tag_37\n  tag_16\n  jump\t// in\ntag_37:\n    /* \"#utility.yul\":1000:1120   */\ntag_36:\n    /* \"#utility.yul\":1159:1160   */\n  0x00\n    /* \"#utility.yul\":1184:1248   */\n  tag_38\n    /* \"#utility.yul\":1240:1247   */\n  dup9\n    /* \"#utility.yul\":1231:1237   */\n  dup3\n    /* \"#utility.yul\":1220:1229   */\n  dup10\n    /* \"#utility.yul\":1216:1238   */\n  add\n    /* \"#utility.yul\":1184:1248   */\n  tag_21\n  jump\t// in\ntag_38:\n    /* \"#utility.yul\":1174:1248   */\n  swap6\n  pop\n    /* \"#utility.yul\":1130:1258   */\n  pop\n    /* \"#utility.yul\":1297:1299   */\n  0x20\n    /* \"#utility.yul\":1323:1387   */\n  tag_39\n    /* \"#utility.yul\":1379:1386   */\n  dup9\n    /* \"#utility.yul\":1370:1376   */\n  dup3\n    /* \"#utility.yul\":1359:1368   */\n  dup10\n    /* \"#utility.yul\":1355:1377   */\n  add\n    /* \"#utility.yul\":1323:1387   */\n  tag_21\n  jump\t// in\ntag_39:\n    /* \"#utility.yul\":1313:1387   */\n  swap5\n  pop\n    /* \"#utility.yul\":1268:1397   */\n  pop\n    /* \"#utility.yul\":1436:1438   */\n  0x40\n    /* \"#utility.yul\":1462:1526   */\n  tag_40\n    /* \"#utility.yul\":1518:1525   */\n  dup9\n    /* \"#utility.yul\":1509:1515   */\n  dup3\n    /* \"#utility.yul\":1498:1507   */\n  dup10\n    /* \"#utility.yul\":1494:1516   */\n  add\n    /* \"#utility.yul\":1462:1526   */\n  tag_21\n  jump\t// in\ntag_40:\n    /* \"#utility.yul\":1452:1526   */\n  swap4\n  pop\n    /* \"#utility.yul\":1407:1536   */\n  pop\n    /* \"#utility.yul\":1575:1577   */\n  0x60\n    /* \"#utility.yul\":1601:1665   */\n  tag_41\n    /* \"#utility.yul\":1657:1664   */\n  dup9\n    /* \"#utility.yul\":1648:1654   */\n  dup3\n    /* \"#utility.yul\":1637:1646   */\n  dup10\n    /* \"#utility.yul\":1633:1655   */\n  add\n    /* \"#utility.yul\":1601:1665   */\n  tag_21\n  jump\t// in\ntag_41:\n    /* \"#utility.yul\":1591:1665   */\n  swap3\n  pop\n    /* \"#utility.yul\":1546:1675   */\n  pop\n    /* \"#utility.yul\":1714:1717   */\n  0x80\n    /* \"#utility.yul\":1741:1805   */\n  tag_42\n    /* \"#utility.yul\":1797:1804   */\n  dup9\n    /* \"#utility.yul\":1788:1794   */\n  dup3\n    /* \"#utility.yul\":1777:1786   */\n  dup10\n    /* \"#utility.yul\":1773:1795   */\n  add\n    /* \"#utility.yul\":1741:1805   */\n  tag_21\n  jump\t// in\ntag_42:\n    /* \"#utility.yul\":1731:1805   */\n  swap2\n  pop\n    /* \"#utility.yul\":1685:1815   */\n  pop\n    /* \"#utility.yul\":845:1822   */\n  swap3\n  swap6\n  pop\n  swap3\n  swap6\n  swap1\n  swap4\n  pop\n  jump\t// out\n    /* \"#utility.yul\":1828:1946   */\ntag_22:\n    /* \"#utility.yul\":1915:1939   */\n  tag_44\n    /* \"#utility.yul\":1933:1938   */\n  dup2\n    /* \"#utility.yul\":1915:1939   */\n  tag_19\n  jump\t// in\ntag_44:\n    /* \"#utility.yul\":1910:1913   */\n  dup3\n    /* \"#utility.yul\":1903:1940   */\n  mstore\n    /* \"#utility.yul\":1828:1946   */\n  pop\n  pop\n  jump\t// out\n    /* \"#utility.yul\":1952:2174   */\ntag_9:\n    /* \"#utility.yul\":2045:2049   */\n  0x00\n    /* \"#utility.yul\":2083:2085   */\n  0x20\n    /* \"#utility.yul\":2072:2081   */\n  dup3\n    /* \"#utility.yul\":2068:2086   */\n  add\n    /* \"#utility.yul\":2060:2086   */\n  swap1\n  pop\n    /* \"#utility.yul\":2096:2167   */\n  tag_46\n    /* \"#utility.yul\":2164:2165   */\n  0x00\n    /* \"#utility.yul\":2153:2162   */\n  dup4\n    /* \"#utility.yul\":2149:2166   */\n  add\n    /* \"#utility.yul\":2140:2146   */\n  dup5\n    /* \"#utility.yul\":2096:2167   */\n  tag_22\n  jump\t// in\ntag_46:\n    /* \"#utility.yul\":1952:2174   */\n  swap3\n  swap2\n  pop\n  pop\n  jump\t// out\n    /* \"Evm/core/base/vaultDelegator.sol\":1060:10821  contract QiaraZKDelegator is Ownable {... */\ntag_13:\n  mload(0x80)\n  mload(0xa0)\n  mload(0xc0)\n  mload(0xe0)\n  mload(0x0100)\n  codecopy(0x00, dataOffset(sub_0), dataSize(sub_0))\n  0x00\n  assignImmutable(\"0x98f4d6eec7613e33b36335f2ce6a27018d9a9f0999ab27807ed26ac6fd46f1a2\")\n  0x00\n  assignImmutable(\"0x980c46aeb242fb2816eec3c43a568cdc6adda404b46e62cce4e3fe7d929881e3\")\n  0x00\n  assignImmutable(\"0x7d2d5796d747fbd89dfac5294d9ace4e9994102d54e76e822233a2e75d4144b1\")\n  0x00\n  assignImmutable(\"0x7d94b1fd5befe75fac04677148728067a5c7750c4535d59cf8d692301dae078c\")\n  0x00\n  assignImmutable(\"0xb7020dd003fcd4d96af1507ff4dc7e2c1158f23ad0bacfdf3455869cf9fb4898\")\n  return(0x00, dataSize(sub_0))\nstop\n\nsub_0: assembly {\n        /* \"Evm/core/base/vaultDelegator.sol\":1060:10821  contract QiaraZKDelegator is Ownable {... */\n      mstore(0x40, 0x80)\n      callvalue\n      dup1\n      iszero\n      tag_1\n      jumpi\n      revert(0x00, 0x00)\n    tag_1:\n      pop\n      jumpi(tag_2, lt(calldatasize, 0x04))\n      shr(0xe0, calldataload(0x00))\n      dup1\n      0xaad24061\n      gt\n      tag_20\n      jumpi\n      dup1\n      0xbd846ee7\n      gt\n      tag_21\n      jumpi\n      dup1\n      0xbd846ee7\n      eq\n      tag_15\n      jumpi\n      dup1\n      0xbf4d766e\n      eq\n      tag_16\n      jumpi\n      dup1\n      0xf2fde38b\n      eq\n      tag_17\n      jumpi\n      dup1\n      0xf90c0f40\n      eq\n      tag_18\n      jumpi\n      dup1\n      0xfa540801\n      eq\n      tag_19\n      jumpi\n      jump(tag_2)\n    tag_21:\n      dup1\n      0xaad24061\n      eq\n      tag_11\n      jumpi\n      dup1\n      0xaed881d8\n      eq\n      tag_12\n      jumpi\n      dup1\n      0xb3d63003\n      eq\n      tag_13\n      jumpi\n      dup1\n      0xb648f220\n      eq\n      tag_14\n      jumpi\n      jump(tag_2)\n    tag_20:\n      dup1\n      0x7a988c54\n      gt\n      tag_22\n      jumpi\n      dup1\n      0x7a988c54\n      eq\n      tag_7\n      jumpi\n      dup1\n      0x8da5cb5b\n      eq\n      tag_8\n      jumpi\n      dup1\n      0x97aba7f9\n      eq\n      tag_9\n      jumpi\n      dup1\n      0xaab7f953\n      eq\n      tag_10\n      jumpi\n      jump(tag_2)\n    tag_22:\n      dup1\n      0xdc2234\n      eq\n      tag_3\n      jumpi\n      dup1\n      0x19b8c941\n      eq\n      tag_4\n      jumpi\n      dup1\n      0x4eb30d41\n      eq\n      tag_5\n      jumpi\n      dup1\n      0x715018a6\n      eq\n      tag_6\n      jumpi\n    tag_2:\n      revert(0x00, 0x00)\n        /* \"Evm/core/base/vaultDelegator.sol\":4238:5028  function processZkValidator(uint[8] calldata proof, uint[6] calldata input, address[] calldata validators, bytes calldata _signatures) external {... */\n    tag_3:\n      tag_23\n      0x04\n      dup1\n      calldatasize\n      sub\n      dup2\n      add\n      swap1\n      tag_24\n      swap2\n      swap1\n      tag_25\n      jump\t// in\n    tag_24:\n      tag_26\n      jump\t// in\n    tag_23:\n      stop\n        /* \"Evm/core/base/vaultDelegator.sol\":9913:10036  function fieldToBytes(uint256 _field) public pure returns (bytes memory) {... */\n    tag_4:\n      tag_27\n      0x04\n      dup1\n      calldatasize\n      sub\n      dup2\n      add\n      swap1\n      tag_28\n      swap2\n      swap1\n      tag_29\n      jump\t// in\n    tag_28:\n      tag_30\n      jump\t// in\n    tag_27:\n      mload(0x40)\n      tag_31\n      swap2\n      swap1\n      tag_32\n      jump\t// in\n    tag_31:\n      mload(0x40)\n      dup1\n      swap2\n      sub\n      swap1\n      return\n        /* \"Evm/core/base/vaultDelegator.sol\":1161:1213  IVariableVerifier public immutable variable_verifier */\n    tag_5:\n      tag_33\n      tag_34\n      jump\t// in\n    tag_33:\n      mload(0x40)\n      tag_35\n      swap2\n      swap1\n      tag_36\n      jump\t// in\n    tag_35:\n      mload(0x40)\n      dup1\n      swap2\n      sub\n      swap1\n      return\n        /* \"@openzeppelin/contracts/access/Ownable.sol\":2293:2394  function renounceOwnership() public virtual onlyOwner {... */\n    tag_6:\n      tag_37\n      tag_38\n      jump\t// in\n    tag_37:\n      stop\n        /* \"Evm/core/base/vaultDelegator.sol\":9787:9907  function fieldToAddress(uint256 _field) public pure returns (address) {... */\n    tag_7:\n      tag_39\n      0x04\n      dup1\n      calldatasize\n      sub\n      dup2\n      add\n      swap1\n      tag_40\n      swap2\n      swap1\n      tag_29\n      jump\t// in\n    tag_40:\n      tag_41\n      jump\t// in\n    tag_39:\n      mload(0x40)\n      tag_42\n      swap2\n      swap1\n      tag_43\n      jump\t// in\n    tag_42:\n      mload(0x40)\n      dup1\n      swap2\n      sub\n      swap1\n      return\n        /* \"@openzeppelin/contracts/access/Ownable.sol\":1638:1723  function owner() public view virtual returns (address) {... */\n    tag_8:\n      tag_44\n      tag_45\n      jump\t// in\n    tag_44:\n      mload(0x40)\n      tag_46\n      swap2\n      swap1\n      tag_43\n      jump\t// in\n    tag_46:\n      mload(0x40)\n      dup1\n      swap2\n      sub\n      swap1\n      return\n        /* \"Evm/core/base/vaultDelegator.sol\":10240:10818  function recoverSigner(bytes32 _ethSignedMessageHash, bytes memory _signature)public pure returns (address){... */\n    tag_9:\n      tag_47\n      0x04\n      dup1\n      calldatasize\n      sub\n      dup2\n      add\n      swap1\n      tag_48\n      swap2\n      swap1\n      tag_49\n      jump\t// in\n    tag_48:\n      tag_50\n      jump\t// in\n    tag_47:\n      mload(0x40)\n      tag_51\n      swap2\n      swap1\n      tag_43\n      jump\t// in\n    tag_51:\n      mload(0x40)\n      dup1\n      swap2\n      sub\n      swap1\n      return\n        /* \"Evm/core/base/vaultDelegator.sol\":3229:4232  function processZkVariable(uint[8] calldata proof, uint[6] calldata input, address[] calldata validators, bytes calldata _signatures) external {... */\n    tag_10:\n      tag_52\n      0x04\n      dup1\n      calldatasize\n      sub\n      dup2\n      add\n      swap1\n      tag_53\n      swap2\n      swap1\n      tag_25\n      jump\t// in\n    tag_53:\n      tag_54\n      jump\t// in\n    tag_52:\n      stop\n        /* \"Evm/core/base/vaultDelegator.sol\":1435:1481  mapping(uint256 => bool) public usedNullifiers */\n    tag_11:\n      tag_55\n      0x04\n      dup1\n      calldatasize\n      sub\n      dup2\n      add\n      swap1\n      tag_56\n      swap2\n      swap1\n      tag_29\n      jump\t// in\n    tag_56:\n      tag_57\n      jump\t// in\n    tag_55:\n      mload(0x40)\n      tag_58\n      swap2\n      swap1\n      tag_59\n      jump\t// in\n    tag_58:\n      mload(0x40)\n      dup1\n      swap2\n      sub\n      swap1\n      return\n        /* \"Evm/core/base/vaultDelegator.sol\":1333:1380  IValidators public immutable validatorsRegistry */\n    tag_12:\n      tag_60\n      tag_61\n      jump\t// in\n    tag_60:\n      mload(0x40)\n      tag_62\n      swap2\n      swap1\n      tag_63\n      jump\t// in\n    tag_62:\n      mload(0x40)\n      dup1\n      swap2\n      sub\n      swap1\n      return\n        /* \"Evm/core/base/vaultDelegator.sol\":1220:1274  IValidatorVerifier public immutable validator_verifier */\n    tag_13:\n      tag_64\n      tag_65\n      jump\t// in\n    tag_64:\n      mload(0x40)\n      tag_66\n      swap2\n      swap1\n      tag_67\n      jump\t// in\n    tag_66:\n      mload(0x40)\n      dup1\n      swap2\n      sub\n      swap1\n      return\n        /* \"Evm/core/base/vaultDelegator.sol\":8904:9781  function fieldToString(uint256 _field) public pure returns (string memory) {... */\n    tag_14:\n      tag_68\n      0x04\n      dup1\n      calldatasize\n      sub\n      dup2\n      add\n      swap1\n      tag_69\n      swap2\n      swap1\n      tag_29\n      jump\t// in\n    tag_69:\n      tag_70\n      jump\t// in\n    tag_68:\n      mload(0x40)\n      tag_71\n      swap2\n      swap1\n      tag_72\n      jump\t// in\n    tag_71:\n      mload(0x40)\n      dup1\n      swap2\n      sub\n      swap1\n      return\n        /* \"Evm/core/base/vaultDelegator.sol\":2006:3223  function processZkWithdraw(uint[8] calldata proof, uint[6] calldata input, address[] calldata validators, bytes calldata _signatures) external {... */\n    tag_15:\n      tag_73\n      0x04\n      dup1\n      calldatasize\n      sub\n      dup2\n      add\n      swap1\n      tag_74\n      swap2\n      swap1\n      tag_25\n      jump\t// in\n    tag_74:\n      tag_75\n      jump\t// in\n    tag_73:\n      stop\n        /* \"Evm/core/base/vaultDelegator.sol\":1281:1326  IVariables public immutable variablesRegistry */\n    tag_16:\n      tag_76\n      tag_77\n      jump\t// in\n    tag_76:\n      mload(0x40)\n      tag_78\n      swap2\n      swap1\n      tag_79\n      jump\t// in\n    tag_78:\n      mload(0x40)\n      dup1\n      swap2\n      sub\n      swap1\n      return\n        /* \"@openzeppelin/contracts/access/Ownable.sol\":2543:2758  function transferOwnership(address newOwner) public virtual onlyOwner {... */\n    tag_17:\n      tag_80\n      0x04\n      dup1\n      calldatasize\n      sub\n      dup2\n      add\n      swap1\n      tag_81\n      swap2\n      swap1\n      tag_82\n      jump\t// in\n    tag_81:\n      tag_83\n      jump\t// in\n    tag_80:\n      stop\n        /* \"Evm/core/base/vaultDelegator.sol\":1104:1154  IBalanceVerifier public immutable balance_verifier */\n    tag_18:\n      tag_84\n      tag_85\n      jump\t// in\n    tag_84:\n      mload(0x40)\n      tag_86\n      swap2\n      swap1\n      tag_87\n      jump\t// in\n    tag_86:\n      mload(0x40)\n      dup1\n      swap2\n      sub\n      swap1\n      return\n        /* \"Evm/core/base/vaultDelegator.sol\":10046:10234  function getEthSignedMessageHash(bytes32 _messageHash) public pure returns (bytes32) {... */\n    tag_19:\n      tag_88\n      0x04\n      dup1\n      calldatasize\n      sub\n      dup2\n      add\n      swap1\n      tag_89\n      swap2\n      swap1\n      tag_90\n      jump\t// in\n    tag_89:\n      tag_91\n      jump\t// in\n    tag_88:\n      mload(0x40)\n      tag_92\n      swap2\n      swap1\n      tag_93\n      jump\t// in\n    tag_92:\n      mload(0x40)\n      dup1\n      swap2\n      sub\n      swap1\n      return\n        /* \"Evm/core/base/vaultDelegator.sol\":4238:5028  function processZkValidator(uint[8] calldata proof, uint[6] calldata input, address[] calldata validators, bytes calldata _signatures) external {... */\n    tag_26:\n        /* \"Evm/core/base/vaultDelegator.sol\":4424:4442  validator_verifier */\n      immutable(\"0x7d2d5796d747fbd89dfac5294d9ace4e9994102d54e76e822233a2e75d4144b1\")\n        /* \"Evm/core/base/vaultDelegator.sol\":4424:4454  validator_verifier.verifyProof */\n      0xffffffffffffffffffffffffffffffffffffffff\n      and\n      0x9cb28658\n        /* \"Evm/core/base/vaultDelegator.sol\":4455:4460  proof */\n      dup8\n        /* \"Evm/core/base/vaultDelegator.sol\":4462:4467  input */\n      dup8\n        /* \"Evm/core/base/vaultDelegator.sol\":4424:4468  validator_verifier.verifyProof(proof, input) */\n      mload(0x40)\n      dup4\n      0xffffffff\n      and\n      0xe0\n      shl\n      dup2\n      mstore\n      0x04\n      add\n      tag_95\n      swap3\n      swap2\n      swap1\n      tag_96\n      jump\t// in\n    tag_95:\n      0x00\n      mload(0x40)\n      dup1\n      dup4\n      sub\n      dup2\n      dup7\n      dup1\n      extcodesize\n      iszero\n      dup1\n      iszero\n      tag_97\n      jumpi\n      revert(0x00, 0x00)\n    tag_97:\n      pop\n      gas\n      staticcall\n      iszero\n      dup1\n      iszero\n      tag_99\n      jumpi\n      returndatacopy(0x00, 0x00, returndatasize)\n      revert(0x00, returndatasize)\n    tag_99:\n      pop\n      pop\n      pop\n      pop\n        /* \"Evm/core/base/vaultDelegator.sol\":4481:4496  uint256 chainID */\n      0x00\n        /* \"Evm/core/base/vaultDelegator.sol\":4499:4504  input */\n      dup6\n        /* \"Evm/core/base/vaultDelegator.sol\":4505:4506  4 */\n      0x04\n        /* \"Evm/core/base/vaultDelegator.sol\":4499:4507  input[4] */\n      0x06\n      dup2\n      lt\n      tag_100\n      jumpi\n      tag_101\n      tag_102\n      jump\t// in\n    tag_101:\n    tag_100:\n      0x20\n      mul\n      add\n      calldataload\n        /* \"Evm/core/base/vaultDelegator.sol\":4481:4507  uint256 chainID = input[4] */\n      swap1\n      pop\n        /* \"Evm/core/base/vaultDelegator.sol\":4537:4550  block.chainid */\n      chainid\n        /* \"Evm/core/base/vaultDelegator.sol\":4526:4533  chainID */\n      dup2\n        /* \"Evm/core/base/vaultDelegator.sol\":4526:4550  chainID == block.chainid */\n      eq\n        /* \"Evm/core/base/vaultDelegator.sol\":4518:4578  require(chainID == block.chainid, \"Wrong destination chain\") */\n      tag_103\n      jumpi\n      mload(0x40)\n      0x08c379a000000000000000000000000000000000000000000000000000000000\n      dup2\n      mstore\n      0x04\n      add\n      tag_104\n      swap1\n      tag_105\n      jump\t// in\n    tag_104:\n      mload(0x40)\n      dup1\n      swap2\n      sub\n      swap1\n      revert\n    tag_103:\n        /* \"Evm/core/base/vaultDelegator.sol\":4639:4656  uint256 nullifier */\n      0x00\n        /* \"Evm/core/base/vaultDelegator.sol\":4659:4686  _calculateNullifier6(input) */\n      tag_106\n        /* \"Evm/core/base/vaultDelegator.sol\":4680:4685  input */\n      dup8\n        /* \"Evm/core/base/vaultDelegator.sol\":4659:4679  _calculateNullifier6 */\n      tag_107\n        /* \"Evm/core/base/vaultDelegator.sol\":4659:4686  _calculateNullifier6(input) */\n      jump\t// in\n    tag_106:\n        /* \"Evm/core/base/vaultDelegator.sol\":4639:4686  uint256 nullifier = _calculateNullifier6(input) */\n      swap1\n      pop\n        /* \"Evm/core/base/vaultDelegator.sol\":4697:4762  _verifyAllSignatures(bytes32(nullifier), validators, _signatures) */\n      tag_108\n        /* \"Evm/core/base/vaultDelegator.sol\":4726:4735  nullifier */\n      dup2\n        /* \"Evm/core/base/vaultDelegator.sol\":4718:4736  bytes32(nullifier) */\n      0x00\n      shl\n        /* \"Evm/core/base/vaultDelegator.sol\":4738:4748  validators */\n      dup8\n      dup8\n        /* \"Evm/core/base/vaultDelegator.sol\":4750:4761  _signatures */\n      dup8\n      dup8\n        /* \"Evm/core/base/vaultDelegator.sol\":4697:4717  _verifyAllSignatures */\n      tag_109\n        /* \"Evm/core/base/vaultDelegator.sol\":4697:4762  _verifyAllSignatures(bytes32(nullifier), validators, _signatures) */\n      jump\t// in\n    tag_108:\n        /* \"Evm/core/base/vaultDelegator.sol\":4782:4796  usedNullifiers */\n      0x01\n        /* \"Evm/core/base/vaultDelegator.sol\":4782:4807  usedNullifiers[nullifier] */\n      0x00\n        /* \"Evm/core/base/vaultDelegator.sol\":4797:4806  nullifier */\n      dup3\n        /* \"Evm/core/base/vaultDelegator.sol\":4782:4807  usedNullifiers[nullifier] */\n      dup2\n      mstore\n      0x20\n      add\n      swap1\n      dup2\n      mstore\n      0x20\n      add\n      0x00\n      keccak256\n      0x00\n      swap1\n      sload\n      swap1\n      0x0100\n      exp\n      swap1\n      div\n      0xff\n      and\n        /* \"Evm/core/base/vaultDelegator.sol\":4781:4807  !usedNullifiers[nullifier] */\n      iszero\n        /* \"Evm/core/base/vaultDelegator.sol\":4773:4834  require(!usedNullifiers[nullifier], \"Replay attack detected\") */\n      tag_110\n      jumpi\n      mload(0x40)\n      0x08c379a000000000000000000000000000000000000000000000000000000000\n      dup2\n      mstore\n      0x04\n      add\n      tag_111\n      swap1\n      tag_112\n      jump\t// in\n    tag_111:\n      mload(0x40)\n      dup1\n      swap2\n      sub\n      swap1\n      revert\n    tag_110:\n        /* \"Evm/core/base/vaultDelegator.sol\":4873:4877  true */\n      0x01\n        /* \"Evm/core/base/vaultDelegator.sol\":4845:4859  usedNullifiers */\n      dup1\n        /* \"Evm/core/base/vaultDelegator.sol\":4845:4870  usedNullifiers[nullifier] */\n      0x00\n        /* \"Evm/core/base/vaultDelegator.sol\":4860:4869  nullifier */\n      dup4\n        /* \"Evm/core/base/vaultDelegator.sol\":4845:4870  usedNullifiers[nullifier] */\n      dup2\n      mstore\n      0x20\n      add\n      swap1\n      dup2\n      mstore\n      0x20\n      add\n      0x00\n      keccak256\n      0x00\n        /* \"Evm/core/base/vaultDelegator.sol\":4845:4877  usedNullifiers[nullifier] = true */\n      0x0100\n      exp\n      dup2\n      sload\n      dup2\n      0xff\n      mul\n      not\n      and\n      swap1\n      dup4\n      iszero\n      iszero\n      mul\n      or\n      swap1\n      sstore\n      pop\n        /* \"Evm/core/base/vaultDelegator.sol\":4890:4907  address validator */\n      0x00\n        /* \"Evm/core/base/vaultDelegator.sol\":4910:4934  fieldToAddress(input[5]) */\n      tag_113\n        /* \"Evm/core/base/vaultDelegator.sol\":4925:4930  input */\n      dup9\n        /* \"Evm/core/base/vaultDelegator.sol\":4931:4932  5 */\n      0x05\n        /* \"Evm/core/base/vaultDelegator.sol\":4925:4933  input[5] */\n      0x06\n      dup2\n      lt\n      tag_114\n      jumpi\n      tag_115\n      tag_102\n      jump\t// in\n    tag_115:\n    tag_114:\n      0x20\n      mul\n      add\n      calldataload\n        /* \"Evm/core/base/vaultDelegator.sol\":4910:4924  fieldToAddress */\n      tag_41\n        /* \"Evm/core/base/vaultDelegator.sol\":4910:4934  fieldToAddress(input[5]) */\n      jump\t// in\n    tag_113:\n        /* \"Evm/core/base/vaultDelegator.sol\":4890:4934  address validator = fieldToAddress(input[5]) */\n      swap1\n      pop\n        /* \"Evm/core/base/vaultDelegator.sol\":4973:4991  validatorsRegistry */\n      immutable(\"0x98f4d6eec7613e33b36335f2ce6a27018d9a9f0999ab27807ed26ac6fd46f1a2\")\n        /* \"Evm/core/base/vaultDelegator.sol\":4973:5009  validatorsRegistry.addPendingAddress */\n      0xffffffffffffffffffffffffffffffffffffffff\n      and\n      0x1722e147\n        /* \"Evm/core/base/vaultDelegator.sol\":5010:5019  validator */\n      dup3\n        /* \"Evm/core/base/vaultDelegator.sol\":4973:5020  validatorsRegistry.addPendingAddress(validator) */\n      mload(0x40)\n      dup3\n      0xffffffff\n      and\n      0xe0\n      shl\n      dup2\n      mstore\n      0x04\n      add\n      tag_116\n      swap2\n      swap1\n      tag_43\n      jump\t// in\n    tag_116:\n      0x00\n      mload(0x40)\n      dup1\n      dup4\n      sub\n      dup2\n      0x00\n      dup8\n      dup1\n      extcodesize\n      iszero\n      dup1\n      iszero\n      tag_117\n      jumpi\n      revert(0x00, 0x00)\n    tag_117:\n      pop\n      gas\n      call\n      iszero\n      dup1\n      iszero\n      tag_119\n      jumpi\n      returndatacopy(0x00, 0x00, returndatasize)\n      revert(0x00, returndatasize)\n    tag_119:\n      pop\n      pop\n      pop\n      pop\n        /* \"Evm/core/base/vaultDelegator.sol\":4382:5028  {... */\n      pop\n      pop\n      pop\n        /* \"Evm/core/base/vaultDelegator.sol\":4238:5028  function processZkValidator(uint[8] calldata proof, uint[6] calldata input, address[] calldata validators, bytes calldata _signatures) external {... */\n      pop\n      pop\n      pop\n      pop\n      pop\n      pop\n      jump\t// out\n        /* \"Evm/core/base/vaultDelegator.sol\":9913:10036  function fieldToBytes(uint256 _field) public pure returns (bytes memory) {... */\n    tag_30:\n        /* \"Evm/core/base/vaultDelegator.sol\":9972:9984  bytes memory */\n      0x60\n        /* \"Evm/core/base/vaultDelegator.sol\":10021:10027  _field */\n      dup2\n        /* \"Evm/core/base/vaultDelegator.sol\":10004:10028  abi.encodePacked(_field) */\n      add(0x20, mload(0x40))\n      tag_121\n      swap2\n      swap1\n      tag_122\n      jump\t// in\n    tag_121:\n      mload(0x40)\n      0x20\n      dup2\n      dup4\n      sub\n      sub\n      dup2\n      mstore\n      swap1\n      0x40\n      mstore\n        /* \"Evm/core/base/vaultDelegator.sol\":9997:10028  return abi.encodePacked(_field) */\n      swap1\n      pop\n        /* \"Evm/core/base/vaultDelegator.sol\":9913:10036  function fieldToBytes(uint256 _field) public pure returns (bytes memory) {... */\n      swap2\n      swap1\n      pop\n      jump\t// out\n        /* \"Evm/core/base/vaultDelegator.sol\":1161:1213  IVariableVerifier public immutable variable_verifier */\n    tag_34:\n      immutable(\"0x7d94b1fd5befe75fac04677148728067a5c7750c4535d59cf8d692301dae078c\")\n      dup2\n      jump\t// out\n        /* \"@openzeppelin/contracts/access/Ownable.sol\":2293:2394  function renounceOwnership() public virtual onlyOwner {... */\n    tag_38:\n        /* \"@openzeppelin/contracts/access/Ownable.sol\":1531:1544  _checkOwner() */\n      tag_124\n        /* \"@openzeppelin/contracts/access/Ownable.sol\":1531:1542  _checkOwner */\n      tag_125\n        /* \"@openzeppelin/contracts/access/Ownable.sol\":1531:1544  _checkOwner() */\n      jump\t// in\n    tag_124:\n        /* \"@openzeppelin/contracts/access/Ownable.sol\":2357:2387  _transferOwnership(address(0)) */\n      tag_127\n        /* \"@openzeppelin/contracts/access/Ownable.sol\":2384:2385  0 */\n      0x00\n        /* \"@openzeppelin/contracts/access/Ownable.sol\":2357:2375  _transferOwnership */\n      tag_128\n        /* \"@openzeppelin/contracts/access/Ownable.sol\":2357:2387  _transferOwnership(address(0)) */\n      jump\t// in\n    tag_127:\n        /* \"@openzeppelin/contracts/access/Ownable.sol\":2293:2394  function renounceOwnership() public virtual onlyOwner {... */\n      jump\t// out\n        /* \"Evm/core/base/vaultDelegator.sol\":9787:9907  function fieldToAddress(uint256 _field) public pure returns (address) {... */\n    tag_41:\n        /* \"Evm/core/base/vaultDelegator.sol\":9848:9855  address */\n      0x00\n        /* \"Evm/core/base/vaultDelegator.sol\":9891:9897  _field */\n      dup2\n        /* \"Evm/core/base/vaultDelegator.sol\":9868:9899  return address(uint160(_field)) */\n      swap1\n      pop\n        /* \"Evm/core/base/vaultDelegator.sol\":9787:9907  function fieldToAddress(uint256 _field) public pure returns (address) {... */\n      swap2\n      swap1\n      pop\n      jump\t// out\n        /* \"@openzeppelin/contracts/access/Ownable.sol\":1638:1723  function owner() public view virtual returns (address) {... */\n    tag_45:\n        /* \"@openzeppelin/contracts/access/Ownable.sol\":1684:1691  address */\n      0x00\n        /* \"@openzeppelin/contracts/access/Ownable.sol\":1710:1716  _owner */\n      0x00\n      0x00\n      swap1\n      sload\n      swap1\n      0x0100\n      exp\n      swap1\n      div\n      0xffffffffffffffffffffffffffffffffffffffff\n      and\n        /* \"@openzeppelin/contracts/access/Ownable.sol\":1703:1716  return _owner */\n      swap1\n      pop\n        /* \"@openzeppelin/contracts/access/Ownable.sol\":1638:1723  function owner() public view virtual returns (address) {... */\n      swap1\n      jump\t// out\n        /* \"Evm/core/base/vaultDelegator.sol\":10240:10818  function recoverSigner(bytes32 _ethSignedMessageHash, bytes memory _signature)public pure returns (address){... */\n    tag_50:\n        /* \"Evm/core/base/vaultDelegator.sol\":10339:10346  address */\n      0x00\n        /* \"Evm/core/base/vaultDelegator.sol\":10387:10389  65 */\n      0x41\n        /* \"Evm/core/base/vaultDelegator.sol\":10366:10376  _signature */\n      dup3\n        /* \"Evm/core/base/vaultDelegator.sol\":10366:10383  _signature.length */\n      mload\n        /* \"Evm/core/base/vaultDelegator.sol\":10366:10389  _signature.length == 65 */\n      eq\n        /* \"Evm/core/base/vaultDelegator.sol\":10358:10418  require(_signature.length == 65, \"Invalid signature length\") */\n      tag_132\n      jumpi\n      mload(0x40)\n      0x08c379a000000000000000000000000000000000000000000000000000000000\n      dup2\n      mstore\n      0x04\n      add\n      tag_133\n      swap1\n      tag_134\n      jump\t// in\n    tag_133:\n      mload(0x40)\n      dup1\n      swap2\n      sub\n      swap1\n      revert\n    tag_132:\n        /* \"Evm/core/base/vaultDelegator.sol\":10431:10440  bytes32 r */\n      0x00\n        /* \"Evm/core/base/vaultDelegator.sol\":10451:10460  bytes32 s */\n      0x00\n        /* \"Evm/core/base/vaultDelegator.sol\":10471:10478  uint8 v */\n      0x00\n        /* \"Evm/core/base/vaultDelegator.sol\":10592:10594  32 */\n      0x20\n        /* \"Evm/core/base/vaultDelegator.sol\":10580:10590  _signature */\n      dup6\n        /* \"Evm/core/base/vaultDelegator.sol\":10576:10595  add(_signature, 32) */\n      add\n        /* \"Evm/core/base/vaultDelegator.sol\":10570:10596  mload(add(_signature, 32)) */\n      mload\n        /* \"Evm/core/base/vaultDelegator.sol\":10565:10596  r := mload(add(_signature, 32)) */\n      swap3\n      pop\n        /* \"Evm/core/base/vaultDelegator.sol\":10637:10639  64 */\n      0x40\n        /* \"Evm/core/base/vaultDelegator.sol\":10625:10635  _signature */\n      dup6\n        /* \"Evm/core/base/vaultDelegator.sol\":10621:10640  add(_signature, 64) */\n      add\n        /* \"Evm/core/base/vaultDelegator.sol\":10615:10641  mload(add(_signature, 64)) */\n      mload\n        /* \"Evm/core/base/vaultDelegator.sol\":10610:10641  s := mload(add(_signature, 64)) */\n      swap2\n      pop\n        /* \"Evm/core/base/vaultDelegator.sol\":10690:10692  96 */\n      0x60\n        /* \"Evm/core/base/vaultDelegator.sol\":10678:10688  _signature */\n      dup6\n        /* \"Evm/core/base/vaultDelegator.sol\":10674:10693  add(_signature, 96) */\n      add\n        /* \"Evm/core/base/vaultDelegator.sol\":10668:10694  mload(add(_signature, 96)) */\n      mload\n        /* \"Evm/core/base/vaultDelegator.sol\":10665:10666  0 */\n      0x00\n        /* \"Evm/core/base/vaultDelegator.sol\":10660:10695  byte(0, mload(add(_signature, 96))) */\n      byte\n        /* \"Evm/core/base/vaultDelegator.sol\":10655:10695  v := byte(0, mload(add(_signature, 96))) */\n      swap1\n      pop\n        /* \"Evm/core/base/vaultDelegator.sol\":10769:10810  ecrecover(_ethSignedMessageHash, v, r, s) */\n      0x01\n        /* \"Evm/core/base/vaultDelegator.sol\":10779:10800  _ethSignedMessageHash */\n      dup7\n        /* \"Evm/core/base/vaultDelegator.sol\":10802:10803  v */\n      dup3\n        /* \"Evm/core/base/vaultDelegator.sol\":10805:10806  r */\n      dup6\n        /* \"Evm/core/base/vaultDelegator.sol\":10808:10809  s */\n      dup6\n        /* \"Evm/core/base/vaultDelegator.sol\":10769:10810  ecrecover(_ethSignedMessageHash, v, r, s) */\n      mload(0x40)\n      0x00\n      dup2\n      mstore\n      0x20\n      add\n      0x40\n      mstore\n      mload(0x40)\n      tag_135\n      swap5\n      swap4\n      swap3\n      swap2\n      swap1\n      tag_136\n      jump\t// in\n    tag_135:\n      0x20\n      mload(0x40)\n      0x20\n      dup2\n      sub\n      swap1\n      dup1\n      dup5\n      sub\n      swap1\n      dup6\n      gas\n      staticcall\n      iszero\n      dup1\n      iszero\n      tag_138\n      jumpi\n      returndatacopy(0x00, 0x00, returndatasize)\n      revert(0x00, returndatasize)\n    tag_138:\n      pop\n      pop\n      pop\n      mload(sub(mload(0x40), 0x20))\n        /* \"Evm/core/base/vaultDelegator.sol\":10762:10810  return ecrecover(_ethSignedMessageHash, v, r, s) */\n      swap4\n      pop\n      pop\n      pop\n      pop\n        /* \"Evm/core/base/vaultDelegator.sol\":10240:10818  function recoverSigner(bytes32 _ethSignedMessageHash, bytes memory _signature)public pure returns (address){... */\n      swap3\n      swap2\n      pop\n      pop\n      jump\t// out\n        /* \"Evm/core/base/vaultDelegator.sol\":3229:4232  function processZkVariable(uint[8] calldata proof, uint[6] calldata input, address[] calldata validators, bytes calldata _signatures) external {... */\n    tag_54:\n        /* \"Evm/core/base/vaultDelegator.sol\":3413:3430  variable_verifier */\n      immutable(\"0x7d94b1fd5befe75fac04677148728067a5c7750c4535d59cf8d692301dae078c\")\n        /* \"Evm/core/base/vaultDelegator.sol\":3413:3442  variable_verifier.verifyProof */\n      0xffffffffffffffffffffffffffffffffffffffff\n      and\n      0x9cb28658\n        /* \"Evm/core/base/vaultDelegator.sol\":3443:3448  proof */\n      dup8\n        /* \"Evm/core/base/vaultDelegator.sol\":3450:3455  input */\n      dup8\n        /* \"Evm/core/base/vaultDelegator.sol\":3413:3456  variable_verifier.verifyProof(proof, input) */\n      mload(0x40)\n      dup4\n      0xffffffff\n      and\n      0xe0\n      shl\n      dup2\n      mstore\n      0x04\n      add\n      tag_140\n      swap3\n      swap2\n      swap1\n      tag_96\n      jump\t// in\n    tag_140:\n      0x00\n      mload(0x40)\n      dup1\n      dup4\n      sub\n      dup2\n      dup7\n      dup1\n      extcodesize\n      iszero\n      dup1\n      iszero\n      tag_141\n      jumpi\n      revert(0x00, 0x00)\n    tag_141:\n      pop\n      gas\n      staticcall\n      iszero\n      dup1\n      iszero\n      tag_143\n      jumpi\n      returndatacopy(0x00, 0x00, returndatasize)\n      revert(0x00, returndatasize)\n    tag_143:\n      pop\n      pop\n      pop\n      pop\n        /* \"Evm/core/base/vaultDelegator.sol\":3469:3484  uint256 chainID */\n      0x00\n        /* \"Evm/core/base/vaultDelegator.sol\":3487:3492  input */\n      dup6\n        /* \"Evm/core/base/vaultDelegator.sol\":3493:3494  5 */\n      0x05\n        /* \"Evm/core/base/vaultDelegator.sol\":3487:3495  input[5] */\n      0x06\n      dup2\n      lt\n      tag_144\n      jumpi\n      tag_145\n      tag_102\n      jump\t// in\n    tag_145:\n    tag_144:\n      0x20\n      mul\n      add\n      calldataload\n        /* \"Evm/core/base/vaultDelegator.sol\":3469:3495  uint256 chainID = input[5] */\n      swap1\n      pop\n        /* \"Evm/core/base/vaultDelegator.sol\":3525:3538  block.chainid */\n      chainid\n        /* \"Evm/core/base/vaultDelegator.sol\":3514:3521  chainID */\n      dup2\n        /* \"Evm/core/base/vaultDelegator.sol\":3514:3538  chainID == block.chainid */\n      eq\n        /* \"Evm/core/base/vaultDelegator.sol\":3506:3566  require(chainID == block.chainid, \"Wrong destination chain\") */\n      tag_146\n      jumpi\n      mload(0x40)\n      0x08c379a000000000000000000000000000000000000000000000000000000000\n      dup2\n      mstore\n      0x04\n      add\n      tag_147\n      swap1\n      tag_105\n      jump\t// in\n    tag_147:\n      mload(0x40)\n      dup1\n      swap2\n      sub\n      swap1\n      revert\n    tag_146:\n        /* \"Evm/core/base/vaultDelegator.sol\":3626:3652  string memory variableName */\n      0x00\n        /* \"Evm/core/base/vaultDelegator.sol\":3655:3678  fieldToString(input[3]) */\n      tag_148\n        /* \"Evm/core/base/vaultDelegator.sol\":3669:3674  input */\n      dup8\n        /* \"Evm/core/base/vaultDelegator.sol\":3675:3676  3 */\n      0x03\n        /* \"Evm/core/base/vaultDelegator.sol\":3669:3677  input[3] */\n      0x06\n      dup2\n      lt\n      tag_149\n      jumpi\n      tag_150\n      tag_102\n      jump\t// in\n    tag_150:\n    tag_149:\n      0x20\n      mul\n      add\n      calldataload\n        /* \"Evm/core/base/vaultDelegator.sol\":3655:3668  fieldToString */\n      tag_70\n        /* \"Evm/core/base/vaultDelegator.sol\":3655:3678  fieldToString(input[3]) */\n      jump\t// in\n    tag_148:\n        /* \"Evm/core/base/vaultDelegator.sol\":3626:3678  string memory variableName = fieldToString(input[3]) */\n      swap1\n      pop\n        /* \"Evm/core/base/vaultDelegator.sol\":3689:3717  string memory variableHeader */\n      0x00\n        /* \"Evm/core/base/vaultDelegator.sol\":3720:3743  fieldToString(input[2]) */\n      tag_151\n        /* \"Evm/core/base/vaultDelegator.sol\":3734:3739  input */\n      dup9\n        /* \"Evm/core/base/vaultDelegator.sol\":3740:3741  2 */\n      0x02\n        /* \"Evm/core/base/vaultDelegator.sol\":3734:3742  input[2] */\n      0x06\n      dup2\n      lt\n      tag_152\n      jumpi\n      tag_153\n      tag_102\n      jump\t// in\n    tag_153:\n    tag_152:\n      0x20\n      mul\n      add\n      calldataload\n        /* \"Evm/core/base/vaultDelegator.sol\":3720:3733  fieldToString */\n      tag_70\n        /* \"Evm/core/base/vaultDelegator.sol\":3720:3743  fieldToString(input[2]) */\n      jump\t// in\n    tag_151:\n        /* \"Evm/core/base/vaultDelegator.sol\":3689:3743  string memory variableHeader = fieldToString(input[2]) */\n      swap1\n      pop\n        /* \"Evm/core/base/vaultDelegator.sol\":3754:3780  bytes memory variableValue */\n      0x00\n        /* \"Evm/core/base/vaultDelegator.sol\":3783:3805  fieldToBytes(input[4]) */\n      tag_154\n        /* \"Evm/core/base/vaultDelegator.sol\":3796:3801  input */\n      dup10\n        /* \"Evm/core/base/vaultDelegator.sol\":3802:3803  4 */\n      0x04\n        /* \"Evm/core/base/vaultDelegator.sol\":3796:3804  input[4] */\n      0x06\n      dup2\n      lt\n      tag_155\n      jumpi\n      tag_156\n      tag_102\n      jump\t// in\n    tag_156:\n    tag_155:\n      0x20\n      mul\n      add\n      calldataload\n        /* \"Evm/core/base/vaultDelegator.sol\":3783:3795  fieldToBytes */\n      tag_30\n        /* \"Evm/core/base/vaultDelegator.sol\":3783:3805  fieldToBytes(input[4]) */\n      jump\t// in\n    tag_154:\n        /* \"Evm/core/base/vaultDelegator.sol\":3754:3805  bytes memory variableValue = fieldToBytes(input[4]) */\n      swap1\n      pop\n        /* \"Evm/core/base/vaultDelegator.sol\":3866:3883  uint256 nullifier */\n      0x00\n        /* \"Evm/core/base/vaultDelegator.sol\":3886:3913  _calculateNullifier8(input) */\n      tag_157\n        /* \"Evm/core/base/vaultDelegator.sol\":3907:3912  input */\n      dup11\n        /* \"Evm/core/base/vaultDelegator.sol\":3886:3906  _calculateNullifier8 */\n      tag_158\n        /* \"Evm/core/base/vaultDelegator.sol\":3886:3913  _calculateNullifier8(input) */\n      jump\t// in\n    tag_157:\n        /* \"Evm/core/base/vaultDelegator.sol\":3866:3913  uint256 nullifier = _calculateNullifier8(input) */\n      swap1\n      pop\n        /* \"Evm/core/base/vaultDelegator.sol\":3924:3989  _verifyAllSignatures(bytes32(nullifier), validators, _signatures) */\n      tag_159\n        /* \"Evm/core/base/vaultDelegator.sol\":3953:3962  nullifier */\n      dup2\n        /* \"Evm/core/base/vaultDelegator.sol\":3945:3963  bytes32(nullifier) */\n      0x00\n      shl\n        /* \"Evm/core/base/vaultDelegator.sol\":3965:3975  validators */\n      dup11\n      dup11\n        /* \"Evm/core/base/vaultDelegator.sol\":3977:3988  _signatures */\n      dup11\n      dup11\n        /* \"Evm/core/base/vaultDelegator.sol\":3924:3944  _verifyAllSignatures */\n      tag_109\n        /* \"Evm/core/base/vaultDelegator.sol\":3924:3989  _verifyAllSignatures(bytes32(nullifier), validators, _signatures) */\n      jump\t// in\n    tag_159:\n        /* \"Evm/core/base/vaultDelegator.sol\":4009:4023  usedNullifiers */\n      0x01\n        /* \"Evm/core/base/vaultDelegator.sol\":4009:4034  usedNullifiers[nullifier] */\n      0x00\n        /* \"Evm/core/base/vaultDelegator.sol\":4024:4033  nullifier */\n      dup3\n        /* \"Evm/core/base/vaultDelegator.sol\":4009:4034  usedNullifiers[nullifier] */\n      dup2\n      mstore\n      0x20\n      add\n      swap1\n      dup2\n      mstore\n      0x20\n      add\n      0x00\n      keccak256\n      0x00\n      swap1\n      sload\n      swap1\n      0x0100\n      exp\n      swap1\n      div\n      0xff\n      and\n        /* \"Evm/core/base/vaultDelegator.sol\":4008:4034  !usedNullifiers[nullifier] */\n      iszero\n        /* \"Evm/core/base/vaultDelegator.sol\":4000:4061  require(!usedNullifiers[nullifier], \"Replay attack detected\") */\n      tag_160\n      jumpi\n      mload(0x40)\n      0x08c379a000000000000000000000000000000000000000000000000000000000\n      dup2\n      mstore\n      0x04\n      add\n      tag_161\n      swap1\n      tag_112\n      jump\t// in\n    tag_161:\n      mload(0x40)\n      dup1\n      swap2\n      sub\n      swap1\n      revert\n    tag_160:\n        /* \"Evm/core/base/vaultDelegator.sol\":4100:4104  true */\n      0x01\n        /* \"Evm/core/base/vaultDelegator.sol\":4072:4086  usedNullifiers */\n      dup1\n        /* \"Evm/core/base/vaultDelegator.sol\":4072:4097  usedNullifiers[nullifier] */\n      0x00\n        /* \"Evm/core/base/vaultDelegator.sol\":4087:4096  nullifier */\n      dup4\n        /* \"Evm/core/base/vaultDelegator.sol\":4072:4097  usedNullifiers[nullifier] */\n      dup2\n      mstore\n      0x20\n      add\n      swap1\n      dup2\n      mstore\n      0x20\n      add\n      0x00\n      keccak256\n      0x00\n        /* \"Evm/core/base/vaultDelegator.sol\":4072:4104  usedNullifiers[nullifier] = true */\n      0x0100\n      exp\n      dup2\n      sload\n      dup2\n      0xff\n      mul\n      not\n      and\n      swap1\n      dup4\n      iszero\n      iszero\n      mul\n      or\n      swap1\n      sstore\n      pop\n        /* \"Evm/core/base/vaultDelegator.sol\":4143:4160  variablesRegistry */\n      immutable(\"0x980c46aeb242fb2816eec3c43a568cdc6adda404b46e62cce4e3fe7d929881e3\")\n        /* \"Evm/core/base/vaultDelegator.sol\":4143:4179  variablesRegistry.addPendingVariable */\n      0xffffffffffffffffffffffffffffffffffffffff\n      and\n      0x2e057b9b\n        /* \"Evm/core/base/vaultDelegator.sol\":4180:4194  variableHeader */\n      dup5\n        /* \"Evm/core/base/vaultDelegator.sol\":4196:4208  variableName */\n      dup7\n        /* \"Evm/core/base/vaultDelegator.sol\":4210:4223  variableValue */\n      dup6\n        /* \"Evm/core/base/vaultDelegator.sol\":4143:4224  variablesRegistry.addPendingVariable(variableHeader, variableName, variableValue) */\n      mload(0x40)\n      dup5\n      0xffffffff\n      and\n      0xe0\n      shl\n      dup2\n      mstore\n      0x04\n      add\n      tag_162\n      swap4\n      swap3\n      swap2\n      swap1\n      tag_163\n      jump\t// in\n    tag_162:\n      0x00\n      mload(0x40)\n      dup1\n      dup4\n      sub\n      dup2\n      0x00\n      dup8\n      dup1\n      extcodesize\n      iszero\n      dup1\n      iszero\n      tag_164\n      jumpi\n      revert(0x00, 0x00)\n    tag_164:\n      pop\n      gas\n      call\n      iszero\n      dup1\n      iszero\n      tag_166\n      jumpi\n      returndatacopy(0x00, 0x00, returndatasize)\n      revert(0x00, returndatasize)\n    tag_166:\n      pop\n      pop\n      pop\n      pop\n        /* \"Evm/core/base/vaultDelegator.sol\":3372:4232  {... */\n      pop\n      pop\n      pop\n      pop\n      pop\n        /* \"Evm/core/base/vaultDelegator.sol\":3229:4232  function processZkVariable(uint[8] calldata proof, uint[6] calldata input, address[] calldata validators, bytes calldata _signatures) external {... */\n      pop\n      pop\n      pop\n      pop\n      pop\n      pop\n      jump\t// out\n        /* \"Evm/core/base/vaultDelegator.sol\":1435:1481  mapping(uint256 => bool) public usedNullifiers */\n    tag_57:\n      mstore(0x20, 0x01)\n      dup1\n      0x00\n      mstore\n      keccak256(0x00, 0x40)\n      0x00\n      swap2\n      pop\n      sload\n      swap1\n      0x0100\n      exp\n      swap1\n      div\n      0xff\n      and\n      dup2\n      jump\t// out\n        /* \"Evm/core/base/vaultDelegator.sol\":1333:1380  IValidators public immutable validatorsRegistry */\n    tag_61:\n      immutable(\"0x98f4d6eec7613e33b36335f2ce6a27018d9a9f0999ab27807ed26ac6fd46f1a2\")\n      dup2\n      jump\t// out\n        /* \"Evm/core/base/vaultDelegator.sol\":1220:1274  IValidatorVerifier public immutable validator_verifier */\n    tag_65:\n      immutable(\"0x7d2d5796d747fbd89dfac5294d9ace4e9994102d54e76e822233a2e75d4144b1\")\n      dup2\n      jump\t// out\n        /* \"Evm/core/base/vaultDelegator.sol\":8904:9781  function fieldToString(uint256 _field) public pure returns (string memory) {... */\n    tag_70:\n        /* \"Evm/core/base/vaultDelegator.sol\":8964:8977  string memory */\n      0x60\n        /* \"Evm/core/base/vaultDelegator.sol\":9004:9005  0 */\n      0x00\n        /* \"Evm/core/base/vaultDelegator.sol\":8994:9000  _field */\n      dup3\n        /* \"Evm/core/base/vaultDelegator.sol\":8994:9005  _field == 0 */\n      sub\n        /* \"Evm/core/base/vaultDelegator.sol\":8990:9016  if (_field == 0) return \"\" */\n      tag_168\n      jumpi\n        /* \"Evm/core/base/vaultDelegator.sol\":9007:9016  return \"\" */\n      mload(0x40)\n      dup1\n      0x20\n      add\n      0x40\n      mstore\n      dup1\n      0x00\n      dup2\n      mstore\n      pop\n      swap1\n      pop\n      jump(tag_167)\n        /* \"Evm/core/base/vaultDelegator.sol\":8990:9016  if (_field == 0) return \"\" */\n    tag_168:\n        /* \"Evm/core/base/vaultDelegator.sol\":9092:9103  bytes32 b32 */\n      0x00\n        /* \"Evm/core/base/vaultDelegator.sol\":9114:9120  _field */\n      dup3\n        /* \"Evm/core/base/vaultDelegator.sol\":9106:9121  bytes32(_field) */\n      0x00\n      shl\n        /* \"Evm/core/base/vaultDelegator.sol\":9092:9121  bytes32 b32 = bytes32(_field) */\n      swap1\n      pop\n        /* \"Evm/core/base/vaultDelegator.sol\":9213:9224  uint8 start */\n      0x00\n        /* \"Evm/core/base/vaultDelegator.sol\":9227:9228  0 */\n      0x00\n        /* \"Evm/core/base/vaultDelegator.sol\":9213:9228  uint8 start = 0 */\n      swap1\n      pop\n        /* \"Evm/core/base/vaultDelegator.sol\":9239:9311  while (start < 32 && b32[start] == 0) {... */\n    tag_169:\n        /* \"Evm/core/base/vaultDelegator.sol\":9254:9256  32 */\n      0x20\n        /* \"Evm/core/base/vaultDelegator.sol\":9246:9251  start */\n      dup2\n        /* \"Evm/core/base/vaultDelegator.sol\":9246:9256  start < 32 */\n      0xff\n      and\n      lt\n        /* \"Evm/core/base/vaultDelegator.sol\":9246:9275  start < 32 && b32[start] == 0 */\n      dup1\n      iszero\n      tag_171\n      jumpi\n      pop\n        /* \"Evm/core/base/vaultDelegator.sol\":9274:9275  0 */\n      0x00\n        /* \"Evm/core/base/vaultDelegator.sol\":9260:9275  b32[start] == 0 */\n      0xf8\n      shl\n        /* \"Evm/core/base/vaultDelegator.sol\":9260:9263  b32 */\n      dup3\n        /* \"Evm/core/base/vaultDelegator.sol\":9264:9269  start */\n      dup3\n        /* \"Evm/core/base/vaultDelegator.sol\":9260:9270  b32[start] */\n      0xff\n      and\n      0x20\n      dup2\n      lt\n      tag_172\n      jumpi\n      tag_173\n      tag_102\n      jump\t// in\n    tag_173:\n    tag_172:\n      byte\n      0xf8\n      shl\n        /* \"Evm/core/base/vaultDelegator.sol\":9260:9275  b32[start] == 0 */\n      not(0xffffffffffffffffffffffffffffffffffffffffffffffffffffffffffffff)\n      and\n      eq\n        /* \"Evm/core/base/vaultDelegator.sol\":9246:9275  start < 32 && b32[start] == 0 */\n    tag_171:\n        /* \"Evm/core/base/vaultDelegator.sol\":9239:9311  while (start < 32 && b32[start] == 0) {... */\n      iszero\n      tag_170\n      jumpi\n        /* \"Evm/core/base/vaultDelegator.sol\":9292:9299  start++ */\n      dup1\n      dup1\n      tag_174\n      swap1\n      tag_175\n      jump\t// in\n    tag_174:\n      swap2\n      pop\n      pop\n        /* \"Evm/core/base/vaultDelegator.sol\":9239:9311  while (start < 32 && b32[start] == 0) {... */\n      jump(tag_169)\n    tag_170:\n        /* \"Evm/core/base/vaultDelegator.sol\":9458:9467  uint8 end */\n      0x00\n        /* \"Evm/core/base/vaultDelegator.sol\":9470:9472  31 */\n      0x1f\n        /* \"Evm/core/base/vaultDelegator.sol\":9458:9472  uint8 end = 31 */\n      swap1\n      pop\n        /* \"Evm/core/base/vaultDelegator.sol\":9483:9552  while (end > start && b32[end] == 0) {... */\n    tag_176:\n        /* \"Evm/core/base/vaultDelegator.sol\":9496:9501  start */\n      dup2\n        /* \"Evm/core/base/vaultDelegator.sol\":9490:9501  end > start */\n      0xff\n      and\n        /* \"Evm/core/base/vaultDelegator.sol\":9490:9493  end */\n      dup2\n        /* \"Evm/core/base/vaultDelegator.sol\":9490:9501  end > start */\n      0xff\n      and\n      gt\n        /* \"Evm/core/base/vaultDelegator.sol\":9490:9518  end > start && b32[end] == 0 */\n      dup1\n      iszero\n      tag_178\n      jumpi\n      pop\n        /* \"Evm/core/base/vaultDelegator.sol\":9517:9518  0 */\n      0x00\n        /* \"Evm/core/base/vaultDelegator.sol\":9505:9518  b32[end] == 0 */\n      0xf8\n      shl\n        /* \"Evm/core/base/vaultDelegator.sol\":9505:9508  b32 */\n      dup4\n        /* \"Evm/core/base/vaultDelegator.sol\":9509:9512  end */\n      dup3\n        /* \"Evm/core/base/vaultDelegator.sol\":9505:9513  b32[end] */\n      0xff\n      and\n      0x20\n      dup2\n      lt\n      tag_179\n      jumpi\n      tag_180\n      tag_102\n      jump\t// in\n    tag_180:\n    tag_179:\n      byte\n      0xf8\n      shl\n        /* \"Evm/core/base/vaultDelegator.sol\":9505:9518  b32[end] == 0 */\n      not(0xffffffffffffffffffffffffffffffffffffffffffffffffffffffffffffff)\n      and\n      eq\n        /* \"Evm/core/base/vaultDelegator.sol\":9490:9518  end > start && b32[end] == 0 */\n    tag_178:\n        /* \"Evm/core/base/vaultDelegator.sol\":9483:9552  while (end > start && b32[end] == 0) {... */\n      iszero\n      tag_177\n      jumpi\n        /* \"Evm/core/base/vaultDelegator.sol\":9535:9540  end-- */\n      dup1\n      dup1\n      tag_181\n      swap1\n      tag_182\n      jump\t// in\n    tag_181:\n      swap2\n      pop\n      pop\n        /* \"Evm/core/base/vaultDelegator.sol\":9483:9552  while (end > start && b32[end] == 0) {... */\n      jump(tag_176)\n    tag_177:\n        /* \"Evm/core/base/vaultDelegator.sol\":9564:9573  uint8 len */\n      0x00\n        /* \"Evm/core/base/vaultDelegator.sol\":9592:9593  1 */\n      0x01\n        /* \"Evm/core/base/vaultDelegator.sol\":9583:9588  start */\n      dup4\n        /* \"Evm/core/base/vaultDelegator.sol\":9577:9580  end */\n      dup4\n        /* \"Evm/core/base/vaultDelegator.sol\":9577:9588  end - start */\n      tag_183\n      swap2\n      swap1\n      tag_184\n      jump\t// in\n    tag_183:\n        /* \"Evm/core/base/vaultDelegator.sol\":9576:9593  (end - start) + 1 */\n      tag_185\n      swap2\n      swap1\n      tag_186\n      jump\t// in\n    tag_185:\n        /* \"Evm/core/base/vaultDelegator.sol\":9564:9593  uint8 len = (end - start) + 1 */\n      swap1\n      pop\n        /* \"Evm/core/base/vaultDelegator.sol\":9604:9623  bytes memory result */\n      0x00\n        /* \"Evm/core/base/vaultDelegator.sol\":9636:9639  len */\n      dup2\n        /* \"Evm/core/base/vaultDelegator.sol\":9626:9640  new bytes(len) */\n      0xff\n      and\n      0xffffffffffffffff\n      dup2\n      gt\n      iszero\n      tag_187\n      jumpi\n      tag_188\n      tag_189\n      jump\t// in\n    tag_188:\n    tag_187:\n      mload(0x40)\n      swap1\n      dup1\n      dup3\n      mstore\n      dup1\n      0x1f\n      add\n      not(0x1f)\n      and\n      0x20\n      add\n      dup3\n      add\n      0x40\n      mstore\n      dup1\n      iszero\n      tag_190\n      jumpi\n      dup2\n      0x20\n      add\n      0x01\n      dup3\n      mul\n      dup1\n      calldatasize\n      dup4\n      calldatacopy\n      dup1\n      dup3\n      add\n      swap2\n      pop\n      pop\n      swap1\n      pop\n    tag_190:\n      pop\n        /* \"Evm/core/base/vaultDelegator.sol\":9604:9640  bytes memory result = new bytes(len) */\n      swap1\n      pop\n        /* \"Evm/core/base/vaultDelegator.sol\":9658:9667  uint256 i */\n      0x00\n        /* \"Evm/core/base/vaultDelegator.sol\":9670:9671  0 */\n      0x00\n        /* \"Evm/core/base/vaultDelegator.sol\":9658:9671  uint256 i = 0 */\n      swap1\n      pop\n        /* \"Evm/core/base/vaultDelegator.sol\":9653:9740  for (uint256 i = 0; i < len; i++) {... */\n    tag_191:\n        /* \"Evm/core/base/vaultDelegator.sol\":9677:9680  len */\n      dup3\n        /* \"Evm/core/base/vaultDelegator.sol\":9673:9680  i < len */\n      0xff\n      and\n        /* \"Evm/core/base/vaultDelegator.sol\":9673:9674  i */\n      dup2\n        /* \"Evm/core/base/vaultDelegator.sol\":9673:9680  i < len */\n      lt\n        /* \"Evm/core/base/vaultDelegator.sol\":9653:9740  for (uint256 i = 0; i < len; i++) {... */\n      iszero\n      tag_192\n      jumpi\n        /* \"Evm/core/base/vaultDelegator.sol\":9714:9717  b32 */\n      dup6\n        /* \"Evm/core/base/vaultDelegator.sol\":9726:9727  i */\n      dup2\n        /* \"Evm/core/base/vaultDelegator.sol\":9718:9723  start */\n      dup7\n        /* \"Evm/core/base/vaultDelegator.sol\":9718:9727  start + i */\n      0xff\n      and\n      tag_194\n      swap2\n      swap1\n      tag_195\n      jump\t// in\n    tag_194:\n        /* \"Evm/core/base/vaultDelegator.sol\":9714:9728  b32[start + i] */\n      0x20\n      dup2\n      lt\n      tag_196\n      jumpi\n      tag_197\n      tag_102\n      jump\t// in\n    tag_197:\n    tag_196:\n      byte\n      0xf8\n      shl\n        /* \"Evm/core/base/vaultDelegator.sol\":9702:9708  result */\n      dup3\n        /* \"Evm/core/base/vaultDelegator.sol\":9709:9710  i */\n      dup3\n        /* \"Evm/core/base/vaultDelegator.sol\":9702:9711  result[i] */\n      dup2\n      mload\n      dup2\n      lt\n      tag_198\n      jumpi\n      tag_199\n      tag_102\n      jump\t// in\n    tag_199:\n    tag_198:\n      0x20\n      add\n      add\n        /* \"Evm/core/base/vaultDelegator.sol\":9702:9728  result[i] = b32[start + i] */\n      swap1\n      not(0xffffffffffffffffffffffffffffffffffffffffffffffffffffffffffffff)\n      and\n      swap1\n      dup2\n      0x00\n      byte\n      swap1\n      mstore8\n      pop\n        /* \"Evm/core/base/vaultDelegator.sol\":9682:9685  i++ */\n      dup1\n      dup1\n      0x01\n      add\n      swap2\n      pop\n      pop\n        /* \"Evm/core/base/vaultDelegator.sol\":9653:9740  for (uint256 i = 0; i < len; i++) {... */\n      jump(tag_191)\n    tag_192:\n      pop\n        /* \"Evm/core/base/vaultDelegator.sol\":9766:9772  result */\n      dup1\n        /* \"Evm/core/base/vaultDelegator.sol\":9752:9773  return string(result) */\n      swap6\n      pop\n      pop\n      pop\n      pop\n      pop\n      pop\n        /* \"Evm/core/base/vaultDelegator.sol\":8904:9781  function fieldToString(uint256 _field) public pure returns (string memory) {... */\n    tag_167:\n      swap2\n      swap1\n      pop\n      jump\t// out\n        /* \"Evm/core/base/vaultDelegator.sol\":2006:3223  function processZkWithdraw(uint[8] calldata proof, uint[6] calldata input, address[] calldata validators, bytes calldata _signatures) external {... */\n    tag_75:\n        /* \"Evm/core/base/vaultDelegator.sol\":2191:2207  balance_verifier */\n      immutable(\"0xb7020dd003fcd4d96af1507ff4dc7e2c1158f23ad0bacfdf3455869cf9fb4898\")\n        /* \"Evm/core/base/vaultDelegator.sol\":2191:2219  balance_verifier.verifyProof */\n      0xffffffffffffffffffffffffffffffffffffffff\n      and\n      0x9cb28658\n        /* \"Evm/core/base/vaultDelegator.sol\":2220:2225  proof */\n      dup8\n        /* \"Evm/core/base/vaultDelegator.sol\":2227:2232  input */\n      dup8\n        /* \"Evm/core/base/vaultDelegator.sol\":2191:2233  balance_verifier.verifyProof(proof, input) */\n      mload(0x40)\n      dup4\n      0xffffffff\n      and\n      0xe0\n      shl\n      dup2\n      mstore\n      0x04\n      add\n      tag_201\n      swap3\n      swap2\n      swap1\n      tag_96\n      jump\t// in\n    tag_201:\n      0x00\n      mload(0x40)\n      dup1\n      dup4\n      sub\n      dup2\n      dup7\n      dup1\n      extcodesize\n      iszero\n      dup1\n      iszero\n      tag_202\n      jumpi\n      revert(0x00, 0x00)\n    tag_202:\n      pop\n      gas\n      staticcall\n      iszero\n      dup1\n      iszero\n      tag_204\n      jumpi\n      returndatacopy(0x00, 0x00, returndatasize)\n      revert(0x00, returndatasize)\n    tag_204:\n      pop\n      pop\n      pop\n      pop\n        /* \"Evm/core/base/vaultDelegator.sol\":2247:2261  uint256 amount */\n      0x00\n        /* \"Evm/core/base/vaultDelegator.sol\":2263:2280  address vaultAddr */\n      0x00\n        /* \"Evm/core/base/vaultDelegator.sol\":2282:2307  string memory storageName */\n      0x00\n        /* \"Evm/core/base/vaultDelegator.sol\":2311:2336  _prepareWithdrawal(input) */\n      tag_205\n        /* \"Evm/core/base/vaultDelegator.sol\":2330:2335  input */\n      dup9\n        /* \"Evm/core/base/vaultDelegator.sol\":2311:2329  _prepareWithdrawal */\n      tag_206\n        /* \"Evm/core/base/vaultDelegator.sol\":2311:2336  _prepareWithdrawal(input) */\n      jump\t// in\n    tag_205:\n        /* \"Evm/core/base/vaultDelegator.sol\":2246:2336  (uint256 amount, address vaultAddr, string memory storageName) = _prepareWithdrawal(input) */\n      swap3\n      pop\n      swap3\n      pop\n      swap3\n      pop\n        /* \"Evm/core/base/vaultDelegator.sol\":2380:2393  uint256 userL */\n      0x00\n        /* \"Evm/core/base/vaultDelegator.sol\":2396:2401  input */\n      dup9\n        /* \"Evm/core/base/vaultDelegator.sol\":2402:2403  2 */\n      0x02\n        /* \"Evm/core/base/vaultDelegator.sol\":2396:2404  input[2] */\n      0x06\n      dup2\n      lt\n      tag_207\n      jumpi\n      tag_208\n      tag_102\n      jump\t// in\n    tag_208:\n    tag_207:\n      0x20\n      mul\n      add\n      calldataload\n        /* \"Evm/core/base/vaultDelegator.sol\":2380:2404  uint256 userL = input[2] */\n      swap1\n      pop\n        /* \"Evm/core/base/vaultDelegator.sol\":2415:2428  uint256 userH */\n      0x00\n        /* \"Evm/core/base/vaultDelegator.sol\":2431:2436  input */\n      dup10\n        /* \"Evm/core/base/vaultDelegator.sol\":2437:2438  3 */\n      0x03\n        /* \"Evm/core/base/vaultDelegator.sol\":2431:2439  input[3] */\n      0x06\n      dup2\n      lt\n      tag_209\n      jumpi\n      tag_210\n      tag_102\n      jump\t// in\n    tag_210:\n    tag_209:\n      0x20\n      mul\n      add\n      calldataload\n        /* \"Evm/core/base/vaultDelegator.sol\":2415:2439  uint256 userH = input[3] */\n      swap1\n      pop\n        /* \"Evm/core/base/vaultDelegator.sol\":2484:2501  uint256 nullifier */\n      0x00\n        /* \"Evm/core/base/vaultDelegator.sol\":2504:2531  _calculateNullifier8(input) */\n      tag_211\n        /* \"Evm/core/base/vaultDelegator.sol\":2525:2530  input */\n      dup12\n        /* \"Evm/core/base/vaultDelegator.sol\":2504:2524  _calculateNullifier8 */\n      tag_158\n        /* \"Evm/core/base/vaultDelegator.sol\":2504:2531  _calculateNullifier8(input) */\n      jump\t// in\n    tag_211:\n        /* \"Evm/core/base/vaultDelegator.sol\":2484:2531  uint256 nullifier = _calculateNullifier8(input) */\n      swap1\n      pop\n        /* \"Evm/core/base/vaultDelegator.sol\":2737:2802  _verifyAllSignatures(bytes32(nullifier), validators, _signatures) */\n      tag_212\n        /* \"Evm/core/base/vaultDelegator.sol\":2766:2775  nullifier */\n      dup2\n        /* \"Evm/core/base/vaultDelegator.sol\":2758:2776  bytes32(nullifier) */\n      0x00\n      shl\n        /* \"Evm/core/base/vaultDelegator.sol\":2778:2788  validators */\n      dup12\n      dup12\n        /* \"Evm/core/base/vaultDelegator.sol\":2790:2801  _signatures */\n      dup12\n      dup12\n        /* \"Evm/core/base/vaultDelegator.sol\":2737:2757  _verifyAllSignatures */\n      tag_109\n        /* \"Evm/core/base/vaultDelegator.sol\":2737:2802  _verifyAllSignatures(bytes32(nullifier), validators, _signatures) */\n      jump\t// in\n    tag_212:\n        /* \"Evm/core/base/vaultDelegator.sol\":2822:2836  usedNullifiers */\n      0x01\n        /* \"Evm/core/base/vaultDelegator.sol\":2822:2847  usedNullifiers[nullifier] */\n      0x00\n        /* \"Evm/core/base/vaultDelegator.sol\":2837:2846  nullifier */\n      dup3\n        /* \"Evm/core/base/vaultDelegator.sol\":2822:2847  usedNullifiers[nullifier] */\n      dup2\n      mstore\n      0x20\n      add\n      swap1\n      dup2\n      mstore\n      0x20\n      add\n      0x00\n      keccak256\n      0x00\n      swap1\n      sload\n      swap1\n      0x0100\n      exp\n      swap1\n      div\n      0xff\n      and\n        /* \"Evm/core/base/vaultDelegator.sol\":2821:2847  !usedNullifiers[nullifier] */\n      iszero\n        /* \"Evm/core/base/vaultDelegator.sol\":2813:2874  require(!usedNullifiers[nullifier], \"Replay attack detected\") */\n      tag_213\n      jumpi\n      mload(0x40)\n      0x08c379a000000000000000000000000000000000000000000000000000000000\n      dup2\n      mstore\n      0x04\n      add\n      tag_214\n      swap1\n      tag_112\n      jump\t// in\n    tag_214:\n      mload(0x40)\n      dup1\n      swap2\n      sub\n      swap1\n      revert\n    tag_213:\n        /* \"Evm/core/base/vaultDelegator.sol\":2913:2917  true */\n      0x01\n        /* \"Evm/core/base/vaultDelegator.sol\":2885:2899  usedNullifiers */\n      dup1\n        /* \"Evm/core/base/vaultDelegator.sol\":2885:2910  usedNullifiers[nullifier] */\n      0x00\n        /* \"Evm/core/base/vaultDelegator.sol\":2900:2909  nullifier */\n      dup4\n        /* \"Evm/core/base/vaultDelegator.sol\":2885:2910  usedNullifiers[nullifier] */\n      dup2\n      mstore\n      0x20\n      add\n      swap1\n      dup2\n      mstore\n      0x20\n      add\n      0x00\n      keccak256\n      0x00\n        /* \"Evm/core/base/vaultDelegator.sol\":2885:2917  usedNullifiers[nullifier] = true */\n      0x0100\n      exp\n      dup2\n      sload\n      dup2\n      0xff\n      mul\n      not\n      and\n      swap1\n      dup4\n      iszero\n      iszero\n      mul\n      or\n      swap1\n      sstore\n      pop\n        /* \"Evm/core/base/vaultDelegator.sol\":3005:3017  address user */\n      0x00\n        /* \"Evm/core/base/vaultDelegator.sol\":3053:3058  userL */\n      dup4\n        /* \"Evm/core/base/vaultDelegator.sol\":3046:3049  128 */\n      0x80\n        /* \"Evm/core/base/vaultDelegator.sol\":3037:3042  userH */\n      dup5\n        /* \"Evm/core/base/vaultDelegator.sol\":3037:3049  userH << 128 */\n      swap1\n      shl\n        /* \"Evm/core/base/vaultDelegator.sol\":3036:3058  (userH << 128) | userL */\n      or\n        /* \"Evm/core/base/vaultDelegator.sol\":3005:3060  address user = address(uint160((userH << 128) | userL)) */\n      swap1\n      pop\n        /* \"Evm/core/base/vaultDelegator.sol\":3141:3150  vaultAddr */\n      dup6\n        /* \"Evm/core/base/vaultDelegator.sol\":3129:3177  IQiaraVault(vaultAddr).grantWithdrawalPermission */\n      0xffffffffffffffffffffffffffffffffffffffff\n      and\n      0x6afbf5d6\n        /* \"Evm/core/base/vaultDelegator.sol\":3178:3182  user */\n      dup3\n        /* \"Evm/core/base/vaultDelegator.sol\":3184:3195  storageName */\n      dup8\n        /* \"Evm/core/base/vaultDelegator.sol\":3197:3203  amount */\n      dup11\n        /* \"Evm/core/base/vaultDelegator.sol\":3205:3214  nullifier */\n      dup7\n        /* \"Evm/core/base/vaultDelegator.sol\":3129:3215  IQiaraVault(vaultAddr).grantWithdrawalPermission(user, storageName, amount, nullifier) */\n      mload(0x40)\n      dup6\n      0xffffffff\n      and\n      0xe0\n      shl\n      dup2\n      mstore\n      0x04\n      add\n      tag_215\n      swap5\n      swap4\n      swap3\n      swap2\n      swap1\n      tag_216\n      jump\t// in\n    tag_215:\n      0x00\n      mload(0x40)\n      dup1\n      dup4\n      sub\n      dup2\n      0x00\n      dup8\n      dup1\n      extcodesize\n      iszero\n      dup1\n      iszero\n      tag_217\n      jumpi\n      revert(0x00, 0x00)\n    tag_217:\n      pop\n      gas\n      call\n      iszero\n      dup1\n      iszero\n      tag_219\n      jumpi\n      returndatacopy(0x00, 0x00, returndatasize)\n      revert(0x00, returndatasize)\n    tag_219:\n      pop\n      pop\n      pop\n      pop\n        /* \"Evm/core/base/vaultDelegator.sol\":2149:3223  {... */\n      pop\n      pop\n      pop\n      pop\n      pop\n      pop\n      pop\n        /* \"Evm/core/base/vaultDelegator.sol\":2006:3223  function processZkWithdraw(uint[8] calldata proof, uint[6] calldata input, address[] calldata validators, bytes calldata _signatures) external {... */\n      pop\n      pop\n      pop\n      pop\n      pop\n      pop\n      jump\t// out\n        /* \"Evm/core/base/vaultDelegator.sol\":1281:1326  IVariables public immutable variablesRegistry */\n    tag_77:\n      immutable(\"0x980c46aeb242fb2816eec3c43a568cdc6adda404b46e62cce4e3fe7d929881e3\")\n      dup2\n      jump\t// out\n        /* \"@openzeppelin/contracts/access/Ownable.sol\":2543:2758  function transferOwnership(address newOwner) public virtual onlyOwner {... */\n    tag_83:\n        /* \"@openzeppelin/contracts/access/Ownable.sol\":1531:1544  _checkOwner() */\n      tag_221\n        /* \"@openzeppelin/contracts/access/Ownable.sol\":1531:1542  _checkOwner */\n      tag_125\n        /* \"@openzeppelin/contracts/access/Ownable.sol\":1531:1544  _checkOwner() */\n      jump\t// in\n    tag_221:\n        /* \"@openzeppelin/contracts/access/Ownable.sol\":2647:2648  0 */\n      0x00\n        /* \"@openzeppelin/contracts/access/Ownable.sol\":2627:2649  newOwner == address(0) */\n      0xffffffffffffffffffffffffffffffffffffffff\n      and\n        /* \"@openzeppelin/contracts/access/Ownable.sol\":2627:2635  newOwner */\n      dup2\n        /* \"@openzeppelin/contracts/access/Ownable.sol\":2627:2649  newOwner == address(0) */\n      0xffffffffffffffffffffffffffffffffffffffff\n      and\n      sub\n        /* \"@openzeppelin/contracts/access/Ownable.sol\":2623:2714  if (newOwner == address(0)) {... */\n      tag_223\n      jumpi\n        /* \"@openzeppelin/contracts/access/Ownable.sol\":2700:2701  0 */\n      0x00\n        /* \"@openzeppelin/contracts/access/Ownable.sol\":2672:2703  OwnableInvalidOwner(address(0)) */\n      mload(0x40)\n      0x1e4fbdf700000000000000000000000000000000000000000000000000000000\n      dup2\n      mstore\n      0x04\n      add\n      tag_224\n      swap2\n      swap1\n      tag_43\n      jump\t// in\n    tag_224:\n      mload(0x40)\n      dup1\n      swap2\n      sub\n      swap1\n      revert\n        /* \"@openzeppelin/contracts/access/Ownable.sol\":2623:2714  if (newOwner == address(0)) {... */\n    tag_223:\n        /* \"@openzeppelin/contracts/access/Ownable.sol\":2723:2751  _transferOwnership(newOwner) */\n      tag_225\n        /* \"@openzeppelin/contracts/access/Ownable.sol\":2742:2750  newOwner */\n      dup2\n        /* \"@openzeppelin/contracts/access/Ownable.sol\":2723:2741  _transferOwnership */\n      tag_128\n        /* \"@openzeppelin/contracts/access/Ownable.sol\":2723:2751  _transferOwnership(newOwner) */\n      jump\t// in\n    tag_225:\n        /* \"@openzeppelin/contracts/access/Ownable.sol\":2543:2758  function transferOwnership(address newOwner) public virtual onlyOwner {... */\n      pop\n      jump\t// out\n        /* \"Evm/core/base/vaultDelegator.sol\":1104:1154  IBalanceVerifier public immutable balance_verifier */\n    tag_85:\n      immutable(\"0xb7020dd003fcd4d96af1507ff4dc7e2c1158f23ad0bacfdf3455869cf9fb4898\")\n      dup2\n      jump\t// out\n        /* \"Evm/core/base/vaultDelegator.sol\":10046:10234  function getEthSignedMessageHash(bytes32 _messageHash) public pure returns (bytes32) {... */\n    tag_91:\n        /* \"Evm/core/base/vaultDelegator.sol\":10122:10129  bytes32 */\n      0x00\n        /* \"Evm/core/base/vaultDelegator.sol\":10212:10224  _messageHash */\n      dup2\n        /* \"Evm/core/base/vaultDelegator.sol\":10159:10225  abi.encodePacked(\"\\x19Ethereum Signed Message:\\n32\", _messageHash) */\n      add(0x20, mload(0x40))\n      tag_227\n      swap2\n      swap1\n      tag_228\n      jump\t// in\n    tag_227:\n      mload(0x40)\n      0x20\n      dup2\n      dup4\n      sub\n      sub\n      dup2\n      mstore\n      swap1\n      0x40\n      mstore\n        /* \"Evm/core/base/vaultDelegator.sol\":10149:10226  keccak256(abi.encodePacked(\"\\x19Ethereum Signed Message:\\n32\", _messageHash)) */\n      dup1\n      mload\n      swap1\n      0x20\n      add\n      keccak256\n        /* \"Evm/core/base/vaultDelegator.sol\":10142:10226  return keccak256(abi.encodePacked(\"\\x19Ethereum Signed Message:\\n32\", _messageHash)) */\n      swap1\n      pop\n        /* \"Evm/core/base/vaultDelegator.sol\":10046:10234  function getEthSignedMessageHash(bytes32 _messageHash) public pure returns (bytes32) {... */\n      swap2\n      swap1\n      pop\n      jump\t// out\n        /* \"Evm/core/base/vaultDelegator.sol\":5939:6452  function _calculateNullifier6(uint256[6] calldata input) internal pure returns (uint256) {... */\n    tag_107:\n        /* \"Evm/core/base/vaultDelegator.sol\":6019:6026  uint256 */\n      0x00\n        /* \"Evm/core/base/vaultDelegator.sol\":6212:6224  bytes32 hash */\n      0x00\n        /* \"Evm/core/base/vaultDelegator.sol\":6268:6273  input */\n      dup3\n        /* \"Evm/core/base/vaultDelegator.sol\":6274:6275  0 */\n      0x00\n        /* \"Evm/core/base/vaultDelegator.sol\":6268:6276  input[0] */\n      0x06\n      dup2\n      lt\n      tag_230\n      jumpi\n      tag_231\n      tag_102\n      jump\t// in\n    tag_231:\n    tag_230:\n      0x20\n      mul\n      add\n      calldataload\n        /* \"Evm/core/base/vaultDelegator.sol\":6291:6296  input */\n      dup4\n        /* \"Evm/core/base/vaultDelegator.sol\":6297:6298  1 */\n      0x01\n        /* \"Evm/core/base/vaultDelegator.sol\":6291:6299  input[1] */\n      0x06\n      dup2\n      lt\n      tag_232\n      jumpi\n      tag_233\n      tag_102\n      jump\t// in\n    tag_233:\n    tag_232:\n      0x20\n      mul\n      add\n      calldataload\n        /* \"Evm/core/base/vaultDelegator.sol\":6314:6319  input */\n      dup5\n        /* \"Evm/core/base/vaultDelegator.sol\":6320:6321  2 */\n      0x02\n        /* \"Evm/core/base/vaultDelegator.sol\":6314:6322  input[2] */\n      0x06\n      dup2\n      lt\n      tag_234\n      jumpi\n      tag_235\n      tag_102\n      jump\t// in\n    tag_235:\n    tag_234:\n      0x20\n      mul\n      add\n      calldataload\n        /* \"Evm/core/base/vaultDelegator.sol\":6337:6342  input */\n      dup6\n        /* \"Evm/core/base/vaultDelegator.sol\":6343:6344  3 */\n      0x03\n        /* \"Evm/core/base/vaultDelegator.sol\":6337:6345  input[3] */\n      0x06\n      dup2\n      lt\n      tag_236\n      jumpi\n      tag_237\n      tag_102\n      jump\t// in\n    tag_237:\n    tag_236:\n      0x20\n      mul\n      add\n      calldataload\n        /* \"Evm/core/base/vaultDelegator.sol\":6360:6365  input */\n      dup7\n        /* \"Evm/core/base/vaultDelegator.sol\":6366:6367  4 */\n      0x04\n        /* \"Evm/core/base/vaultDelegator.sol\":6360:6368  input[4] */\n      0x06\n      dup2\n      lt\n      tag_238\n      jumpi\n      tag_239\n      tag_102\n      jump\t// in\n    tag_239:\n    tag_238:\n      0x20\n      mul\n      add\n      calldataload\n        /* \"Evm/core/base/vaultDelegator.sol\":6237:6410  abi.encodePacked(... */\n      add(0x20, mload(0x40))\n      tag_240\n      swap6\n      swap5\n      swap4\n      swap3\n      swap2\n      swap1\n      tag_241\n      jump\t// in\n    tag_240:\n      mload(0x40)\n      0x20\n      dup2\n      dup4\n      sub\n      sub\n      dup2\n      mstore\n      swap1\n      0x40\n      mstore\n        /* \"Evm/core/base/vaultDelegator.sol\":6227:6411  keccak256(abi.encodePacked(... */\n      dup1\n      mload\n      swap1\n      0x20\n      add\n      keccak256\n        /* \"Evm/core/base/vaultDelegator.sol\":6212:6411  bytes32 hash = keccak256(abi.encodePacked(... */\n      swap1\n      pop\n        /* \"Evm/core/base/vaultDelegator.sol\":6439:6443  hash */\n      dup1\n        /* \"Evm/core/base/vaultDelegator.sol\":6431:6444  uint256(hash) */\n      0x00\n      shr\n        /* \"Evm/core/base/vaultDelegator.sol\":6424:6444  return uint256(hash) */\n      swap2\n      pop\n      pop\n        /* \"Evm/core/base/vaultDelegator.sol\":5939:6452  function _calculateNullifier6(uint256[6] calldata input) internal pure returns (uint256) {... */\n      swap2\n      swap1\n      pop\n      jump\t// out\n        /* \"Evm/core/base/vaultDelegator.sol\":7786:8896  function _verifyAllSignatures(bytes32 _messageHash,address[] calldata validators,bytes calldata _signatures) internal view {... */\n    tag_109:\n        /* \"Evm/core/base/vaultDelegator.sol\":7920:7935  bytes32 ethHash */\n      0x00\n        /* \"Evm/core/base/vaultDelegator.sol\":7938:7975  getEthSignedMessageHash(_messageHash) */\n      tag_243\n        /* \"Evm/core/base/vaultDelegator.sol\":7962:7974  _messageHash */\n      dup7\n        /* \"Evm/core/base/vaultDelegator.sol\":7938:7961  getEthSignedMessageHash */\n      tag_91\n        /* \"Evm/core/base/vaultDelegator.sol\":7938:7975  getEthSignedMessageHash(_messageHash) */\n      jump\t// in\n    tag_243:\n        /* \"Evm/core/base/vaultDelegator.sol\":7920:7975  bytes32 ethHash = getEthSignedMessageHash(_messageHash) */\n      swap1\n      pop\n        /* \"Evm/core/base/vaultDelegator.sol\":8050:8084  address[] memory active_validators */\n      0x00\n        /* \"Evm/core/base/vaultDelegator.sol\":8087:8105  validatorsRegistry */\n      immutable(\"0x98f4d6eec7613e33b36335f2ce6a27018d9a9f0999ab27807ed26ac6fd46f1a2\")\n        /* \"Evm/core/base/vaultDelegator.sol\":8087:8124  validatorsRegistry.getActiveAddresses */\n      0xffffffffffffffffffffffffffffffffffffffff\n      and\n      0x1442e4c9\n        /* \"Evm/core/base/vaultDelegator.sol\":8087:8126  validatorsRegistry.getActiveAddresses() */\n      mload(0x40)\n      dup2\n      0xffffffff\n      and\n      0xe0\n      shl\n      dup2\n      mstore\n      0x04\n      add\n      0x00\n      mload(0x40)\n      dup1\n      dup4\n      sub\n      dup2\n      dup7\n      gas\n      staticcall\n      iszero\n      dup1\n      iszero\n      tag_245\n      jumpi\n      returndatacopy(0x00, 0x00, returndatasize)\n      revert(0x00, returndatasize)\n    tag_245:\n      pop\n      pop\n      pop\n      pop\n      mload(0x40)\n      returndatasize\n      0x00\n      dup3\n      returndatacopy\n      returndatasize\n      not(0x1f)\n      0x1f\n      dup3\n      add\n      and\n      dup3\n      add\n      dup1\n      0x40\n      mstore\n      pop\n      dup2\n      add\n      swap1\n      tag_246\n      swap2\n      swap1\n      tag_247\n      jump\t// in\n    tag_246:\n        /* \"Evm/core/base/vaultDelegator.sol\":8050:8126  address[] memory active_validators = validatorsRegistry.getActiveAddresses() */\n      swap1\n      pop\n        /* \"Evm/core/base/vaultDelegator.sol\":8142:8151  uint256 i */\n      0x00\n        /* \"Evm/core/base/vaultDelegator.sol\":8154:8155  0 */\n      0x00\n        /* \"Evm/core/base/vaultDelegator.sol\":8142:8155  uint256 i = 0 */\n      swap1\n      pop\n        /* \"Evm/core/base/vaultDelegator.sol\":8137:8889  for (uint256 i = 0; i < validators.length; i++) {... */\n    tag_248:\n        /* \"Evm/core/base/vaultDelegator.sol\":8161:8171  validators */\n      dup7\n      dup7\n        /* \"Evm/core/base/vaultDelegator.sol\":8161:8178  validators.length */\n      swap1\n      pop\n        /* \"Evm/core/base/vaultDelegator.sol\":8157:8158  i */\n      dup2\n        /* \"Evm/core/base/vaultDelegator.sol\":8157:8178  i < validators.length */\n      lt\n        /* \"Evm/core/base/vaultDelegator.sol\":8137:8889  for (uint256 i = 0; i < validators.length; i++) {... */\n      iszero\n      tag_249\n      jumpi\n        /* \"Evm/core/base/vaultDelegator.sol\":8200:8224  bytes calldata signature */\n      calldatasize\n      0x00\n        /* \"Evm/core/base/vaultDelegator.sol\":8227:8238  _signatures */\n      dup7\n      dup7\n        /* \"Evm/core/base/vaultDelegator.sol\":8243:8245  65 */\n      0x41\n        /* \"Evm/core/base/vaultDelegator.sol\":8239:8240  i */\n      dup6\n        /* \"Evm/core/base/vaultDelegator.sol\":8239:8245  i * 65 */\n      tag_251\n      swap2\n      swap1\n      tag_252\n      jump\t// in\n    tag_251:\n        /* \"Evm/core/base/vaultDelegator.sol\":8227:8261  _signatures[i * 65 : (i + 1) * 65] */\n      swap1\n        /* \"Evm/core/base/vaultDelegator.sol\":8258:8260  65 */\n      0x41\n        /* \"Evm/core/base/vaultDelegator.sol\":8253:8254  1 */\n      0x01\n        /* \"Evm/core/base/vaultDelegator.sol\":8249:8250  i */\n      dup8\n        /* \"Evm/core/base/vaultDelegator.sol\":8249:8254  i + 1 */\n      tag_253\n      swap2\n      swap1\n      tag_195\n      jump\t// in\n    tag_253:\n        /* \"Evm/core/base/vaultDelegator.sol\":8248:8260  (i + 1) * 65 */\n      tag_254\n      swap2\n      swap1\n      tag_252\n      jump\t// in\n    tag_254:\n        /* \"Evm/core/base/vaultDelegator.sol\":8227:8261  _signatures[i * 65 : (i + 1) * 65] */\n      swap3\n      tag_255\n      swap4\n      swap3\n      swap2\n      swap1\n      tag_256\n      jump\t// in\n    tag_255:\n        /* \"Evm/core/base/vaultDelegator.sol\":8200:8261  bytes calldata signature = _signatures[i * 65 : (i + 1) * 65] */\n      swap2\n      pop\n      swap2\n      pop\n        /* \"Evm/core/base/vaultDelegator.sol\":8315:8329  address signer */\n      0x00\n        /* \"Evm/core/base/vaultDelegator.sol\":8332:8365  recoverSigner(ethHash, signature) */\n      tag_257\n        /* \"Evm/core/base/vaultDelegator.sol\":8346:8353  ethHash */\n      dup7\n        /* \"Evm/core/base/vaultDelegator.sol\":8355:8364  signature */\n      dup5\n      dup5\n        /* \"Evm/core/base/vaultDelegator.sol\":8332:8365  recoverSigner(ethHash, signature) */\n      dup1\n      dup1\n      0x1f\n      add\n      0x20\n      dup1\n      swap2\n      div\n      mul\n      0x20\n      add\n      mload(0x40)\n      swap1\n      dup2\n      add\n      0x40\n      mstore\n      dup1\n      swap4\n      swap3\n      swap2\n      swap1\n      dup2\n      dup2\n      mstore\n      0x20\n      add\n      dup4\n      dup4\n      dup1\n      dup3\n      dup5\n      calldatacopy\n      0x00\n      dup2\n      dup5\n      add\n      mstore\n      not(0x1f)\n      0x1f\n      dup3\n      add\n      and\n      swap1\n      pop\n      dup1\n      dup4\n      add\n      swap3\n      pop\n      pop\n      pop\n      pop\n      pop\n      pop\n      pop\n        /* \"Evm/core/base/vaultDelegator.sol\":8332:8345  recoverSigner */\n      tag_50\n        /* \"Evm/core/base/vaultDelegator.sol\":8332:8365  recoverSigner(ethHash, signature) */\n      jump\t// in\n    tag_257:\n        /* \"Evm/core/base/vaultDelegator.sol\":8315:8365  address signer = recoverSigner(ethHash, signature) */\n      swap1\n      pop\n        /* \"Evm/core/base/vaultDelegator.sol\":8406:8407  0 */\n      0x00\n        /* \"Evm/core/base/vaultDelegator.sol\":8388:8408  signer != address(0) */\n      0xffffffffffffffffffffffffffffffffffffffff\n      and\n        /* \"Evm/core/base/vaultDelegator.sol\":8388:8394  signer */\n      dup2\n        /* \"Evm/core/base/vaultDelegator.sol\":8388:8408  signer != address(0) */\n      0xffffffffffffffffffffffffffffffffffffffff\n      and\n      sub\n        /* \"Evm/core/base/vaultDelegator.sol\":8380:8430  require(signer != address(0), \"Invalid signature\") */\n      tag_258\n      jumpi\n      mload(0x40)\n      0x08c379a000000000000000000000000000000000000000000000000000000000\n      dup2\n      mstore\n      0x04\n      add\n      tag_259\n      swap1\n      tag_260\n      jump\t// in\n    tag_259:\n      mload(0x40)\n      dup1\n      swap2\n      sub\n      swap1\n      revert\n    tag_258:\n        /* \"Evm/core/base/vaultDelegator.sol\":8516:8533  bool isAuthorized */\n      0x00\n        /* \"Evm/core/base/vaultDelegator.sol\":8536:8541  false */\n      0x00\n        /* \"Evm/core/base/vaultDelegator.sol\":8516:8541  bool isAuthorized = false */\n      swap1\n      pop\n        /* \"Evm/core/base/vaultDelegator.sol\":8561:8570  uint256 j */\n      0x00\n        /* \"Evm/core/base/vaultDelegator.sol\":8573:8574  0 */\n      0x00\n        /* \"Evm/core/base/vaultDelegator.sol\":8561:8574  uint256 j = 0 */\n      swap1\n      pop\n        /* \"Evm/core/base/vaultDelegator.sol\":8556:8771  for (uint256 j = 0; j < active_validators.length; j++) {... */\n    tag_261:\n        /* \"Evm/core/base/vaultDelegator.sol\":8580:8597  active_validators */\n      dup7\n        /* \"Evm/core/base/vaultDelegator.sol\":8580:8604  active_validators.length */\n      mload\n        /* \"Evm/core/base/vaultDelegator.sol\":8576:8577  j */\n      dup2\n        /* \"Evm/core/base/vaultDelegator.sol\":8576:8604  j < active_validators.length */\n      lt\n        /* \"Evm/core/base/vaultDelegator.sol\":8556:8771  for (uint256 j = 0; j < active_validators.length; j++) {... */\n      iszero\n      tag_262\n      jumpi\n        /* \"Evm/core/base/vaultDelegator.sol\":8658:8664  signer */\n      dup3\n        /* \"Evm/core/base/vaultDelegator.sol\":8634:8664  active_validators[j] == signer */\n      0xffffffffffffffffffffffffffffffffffffffff\n      and\n        /* \"Evm/core/base/vaultDelegator.sol\":8634:8651  active_validators */\n      dup8\n        /* \"Evm/core/base/vaultDelegator.sol\":8652:8653  j */\n      dup3\n        /* \"Evm/core/base/vaultDelegator.sol\":8634:8654  active_validators[j] */\n      dup2\n      mload\n      dup2\n      lt\n      tag_264\n      jumpi\n      tag_265\n      tag_102\n      jump\t// in\n    tag_265:\n    tag_264:\n      0x20\n      mul\n      0x20\n      add\n      add\n      mload\n        /* \"Evm/core/base/vaultDelegator.sol\":8634:8664  active_validators[j] == signer */\n      0xffffffffffffffffffffffffffffffffffffffff\n      and\n      sub\n        /* \"Evm/core/base/vaultDelegator.sol\":8630:8756  if (active_validators[j] == signer) {... */\n      tag_266\n      jumpi\n        /* \"Evm/core/base/vaultDelegator.sol\":8704:8708  true */\n      0x01\n        /* \"Evm/core/base/vaultDelegator.sol\":8689:8708  isAuthorized = true */\n      swap2\n      pop\n        /* \"Evm/core/base/vaultDelegator.sol\":8731:8736  break */\n      jump(tag_262)\n        /* \"Evm/core/base/vaultDelegator.sol\":8630:8756  if (active_validators[j] == signer) {... */\n    tag_266:\n        /* \"Evm/core/base/vaultDelegator.sol\":8606:8609  j++ */\n      dup1\n      dup1\n      0x01\n      add\n      swap2\n      pop\n      pop\n        /* \"Evm/core/base/vaultDelegator.sol\":8556:8771  for (uint256 j = 0; j < active_validators.length; j++) {... */\n      jump(tag_261)\n    tag_262:\n      pop\n        /* \"Evm/core/base/vaultDelegator.sol\":8793:8805  isAuthorized */\n      dup1\n        /* \"Evm/core/base/vaultDelegator.sol\":8785:8840  require(isAuthorized, \"Signer not an active validator\") */\n      tag_267\n      jumpi\n      mload(0x40)\n      0x08c379a000000000000000000000000000000000000000000000000000000000\n      dup2\n      mstore\n      0x04\n      add\n      tag_268\n      swap1\n      tag_269\n      jump\t// in\n    tag_268:\n      mload(0x40)\n      dup1\n      swap2\n      sub\n      swap1\n      revert\n    tag_267:\n        /* \"Evm/core/base/vaultDelegator.sol\":8185:8889  {... */\n      pop\n      pop\n      pop\n      pop\n        /* \"Evm/core/base/vaultDelegator.sol\":8180:8183  i++ */\n      dup1\n      dup1\n      0x01\n      add\n      swap2\n      pop\n      pop\n        /* \"Evm/core/base/vaultDelegator.sol\":8137:8889  for (uint256 i = 0; i < validators.length; i++) {... */\n      jump(tag_248)\n    tag_249:\n      pop\n        /* \"Evm/core/base/vaultDelegator.sol\":7909:8896  {... */\n      pop\n      pop\n        /* \"Evm/core/base/vaultDelegator.sol\":7786:8896  function _verifyAllSignatures(bytes32 _messageHash,address[] calldata validators,bytes calldata _signatures) internal view {... */\n      pop\n      pop\n      pop\n      pop\n      pop\n      jump\t// out\n        /* \"@openzeppelin/contracts/access/Ownable.sol\":1796:1958  function _checkOwner() internal view virtual {... */\n    tag_125:\n        /* \"@openzeppelin/contracts/access/Ownable.sol\":1866:1878  _msgSender() */\n      tag_271\n        /* \"@openzeppelin/contracts/access/Ownable.sol\":1866:1876  _msgSender */\n      tag_272\n        /* \"@openzeppelin/contracts/access/Ownable.sol\":1866:1878  _msgSender() */\n      jump\t// in\n    tag_271:\n        /* \"@openzeppelin/contracts/access/Ownable.sol\":1855:1878  owner() != _msgSender() */\n      0xffffffffffffffffffffffffffffffffffffffff\n      and\n        /* \"@openzeppelin/contracts/access/Ownable.sol\":1855:1862  owner() */\n      tag_273\n        /* \"@openzeppelin/contracts/access/Ownable.sol\":1855:1860  owner */\n      tag_45\n        /* \"@openzeppelin/contracts/access/Ownable.sol\":1855:1862  owner() */\n      jump\t// in\n    tag_273:\n        /* \"@openzeppelin/contracts/access/Ownable.sol\":1855:1878  owner() != _msgSender() */\n      0xffffffffffffffffffffffffffffffffffffffff\n      and\n      eq\n        /* \"@openzeppelin/contracts/access/Ownable.sol\":1851:1952  if (owner() != _msgSender()) {... */\n      tag_274\n      jumpi\n        /* \"@openzeppelin/contracts/access/Ownable.sol\":1928:1940  _msgSender() */\n      tag_275\n        /* \"@openzeppelin/contracts/access/Ownable.sol\":1928:1938  _msgSender */\n      tag_272\n        /* \"@openzeppelin/contracts/access/Ownable.sol\":1928:1940  _msgSender() */\n      jump\t// in\n    tag_275:\n        /* \"@openzeppelin/contracts/access/Ownable.sol\":1901:1941  OwnableUnauthorizedAccount(_msgSender()) */\n      mload(0x40)\n      0x118cdaa700000000000000000000000000000000000000000000000000000000\n      dup2\n      mstore\n      0x04\n      add\n      tag_276\n      swap2\n      swap1\n      tag_43\n      jump\t// in\n    tag_276:\n      mload(0x40)\n      dup1\n      swap2\n      sub\n      swap1\n      revert\n        /* \"@openzeppelin/contracts/access/Ownable.sol\":1851:1952  if (owner() != _msgSender()) {... */\n    tag_274:\n        /* \"@openzeppelin/contracts/access/Ownable.sol\":1796:1958  function _checkOwner() internal view virtual {... */\n      jump\t// out\n        /* \"@openzeppelin/contracts/access/Ownable.sol\":2912:3099  function _transferOwnership(address newOwner) internal virtual {... */\n    tag_128:\n        /* \"@openzeppelin/contracts/access/Ownable.sol\":2985:3001  address oldOwner */\n      0x00\n        /* \"@openzeppelin/contracts/access/Ownable.sol\":3004:3010  _owner */\n      0x00\n      0x00\n      swap1\n      sload\n      swap1\n      0x0100\n      exp\n      swap1\n      div\n      0xffffffffffffffffffffffffffffffffffffffff\n      and\n        /* \"@openzeppelin/contracts/access/Ownable.sol\":2985:3010  address oldOwner = _owner */\n      swap1\n      pop\n        /* \"@openzeppelin/contracts/access/Ownable.sol\":3029:3037  newOwner */\n      dup2\n        /* \"@openzeppelin/contracts/access/Ownable.sol\":3020:3026  _owner */\n      0x00\n      0x00\n        /* \"@openzeppelin/contracts/access/Ownable.sol\":3020:3037  _owner = newOwner */\n      0x0100\n      exp\n      dup2\n      sload\n      dup2\n      0xffffffffffffffffffffffffffffffffffffffff\n      mul\n      not\n      and\n      swap1\n      dup4\n      0xffffffffffffffffffffffffffffffffffffffff\n      and\n      mul\n      or\n      swap1\n      sstore\n      pop\n        /* \"@openzeppelin/contracts/access/Ownable.sol\":3083:3091  newOwner */\n      dup2\n        /* \"@openzeppelin/contracts/access/Ownable.sol\":3052:3092  OwnershipTransferred(oldOwner, newOwner) */\n      0xffffffffffffffffffffffffffffffffffffffff\n      and\n        /* \"@openzeppelin/contracts/access/Ownable.sol\":3073:3081  oldOwner */\n      dup2\n        /* \"@openzeppelin/contracts/access/Ownable.sol\":3052:3092  OwnershipTransferred(oldOwner, newOwner) */\n      0xffffffffffffffffffffffffffffffffffffffff\n      and\n      0x8be0079c531659141344cd1fd0a4f28419497f9722a3daafe3b4186f6b6457e0\n      mload(0x40)\n      mload(0x40)\n      dup1\n      swap2\n      sub\n      swap1\n      log3\n        /* \"@openzeppelin/contracts/access/Ownable.sol\":2975:3099  {... */\n      pop\n        /* \"@openzeppelin/contracts/access/Ownable.sol\":2912:3099  function _transferOwnership(address newOwner) internal virtual {... */\n      pop\n      jump\t// out\n        /* \"Evm/core/base/vaultDelegator.sol\":5208:5761  function _calculateNullifier8(uint256[6] calldata input) internal pure returns (uint256) {... */\n    tag_158:\n        /* \"Evm/core/base/vaultDelegator.sol\":5288:5295  uint256 */\n      0x00\n        /* \"Evm/core/base/vaultDelegator.sol\":5481:5493  bytes32 hash */\n      0x00\n        /* \"Evm/core/base/vaultDelegator.sol\":5537:5542  input */\n      dup3\n        /* \"Evm/core/base/vaultDelegator.sol\":5543:5544  0 */\n      0x00\n        /* \"Evm/core/base/vaultDelegator.sol\":5537:5545  input[0] */\n      0x06\n      dup2\n      lt\n      tag_279\n      jumpi\n      tag_280\n      tag_102\n      jump\t// in\n    tag_280:\n    tag_279:\n      0x20\n      mul\n      add\n      calldataload\n        /* \"Evm/core/base/vaultDelegator.sol\":5560:5565  input */\n      dup4\n        /* \"Evm/core/base/vaultDelegator.sol\":5566:5567  1 */\n      0x01\n        /* \"Evm/core/base/vaultDelegator.sol\":5560:5568  input[1] */\n      0x06\n      dup2\n      lt\n      tag_281\n      jumpi\n      tag_282\n      tag_102\n      jump\t// in\n    tag_282:\n    tag_281:\n      0x20\n      mul\n      add\n      calldataload\n        /* \"Evm/core/base/vaultDelegator.sol\":5583:5588  input */\n      dup5\n        /* \"Evm/core/base/vaultDelegator.sol\":5589:5590  2 */\n      0x02\n        /* \"Evm/core/base/vaultDelegator.sol\":5583:5591  input[2] */\n      0x06\n      dup2\n      lt\n      tag_283\n      jumpi\n      tag_284\n      tag_102\n      jump\t// in\n    tag_284:\n    tag_283:\n      0x20\n      mul\n      add\n      calldataload\n        /* \"Evm/core/base/vaultDelegator.sol\":5606:5611  input */\n      dup6\n        /* \"Evm/core/base/vaultDelegator.sol\":5612:5613  3 */\n      0x03\n        /* \"Evm/core/base/vaultDelegator.sol\":5606:5614  input[3] */\n      0x06\n      dup2\n      lt\n      tag_285\n      jumpi\n      tag_286\n      tag_102\n      jump\t// in\n    tag_286:\n    tag_285:\n      0x20\n      mul\n      add\n      calldataload\n        /* \"Evm/core/base/vaultDelegator.sol\":5629:5634  input */\n      dup7\n        /* \"Evm/core/base/vaultDelegator.sol\":5635:5636  4 */\n      0x04\n        /* \"Evm/core/base/vaultDelegator.sol\":5629:5637  input[4] */\n      0x06\n      dup2\n      lt\n      tag_287\n      jumpi\n      tag_288\n      tag_102\n      jump\t// in\n    tag_288:\n    tag_287:\n      0x20\n      mul\n      add\n      calldataload\n        /* \"Evm/core/base/vaultDelegator.sol\":5652:5657  input */\n      dup8\n        /* \"Evm/core/base/vaultDelegator.sol\":5658:5659  5 */\n      0x05\n        /* \"Evm/core/base/vaultDelegator.sol\":5652:5660  input[5] */\n      0x06\n      dup2\n      lt\n      tag_289\n      jumpi\n      tag_290\n      tag_102\n      jump\t// in\n    tag_290:\n    tag_289:\n      0x20\n      mul\n      add\n      calldataload\n        /* \"Evm/core/base/vaultDelegator.sol\":5506:5719  abi.encodePacked(... */\n      add(0x20, mload(0x40))\n      tag_291\n      swap7\n      swap6\n      swap5\n      swap4\n      swap3\n      swap2\n      swap1\n      tag_292\n      jump\t// in\n    tag_291:\n      mload(0x40)\n      0x20\n      dup2\n      dup4\n      sub\n      sub\n      dup2\n      mstore\n      swap1\n      0x40\n      mstore\n        /* \"Evm/core/base/vaultDelegator.sol\":5496:5720  keccak256(abi.encodePacked(... */\n      dup1\n      mload\n      swap1\n      0x20\n      add\n      keccak256\n        /* \"Evm/core/base/vaultDelegator.sol\":5481:5720  bytes32 hash = keccak256(abi.encodePacked(... */\n      swap1\n      pop\n        /* \"Evm/core/base/vaultDelegator.sol\":5748:5752  hash */\n      dup1\n        /* \"Evm/core/base/vaultDelegator.sol\":5740:5753  uint256(hash) */\n      0x00\n      shr\n        /* \"Evm/core/base/vaultDelegator.sol\":5733:5753  return uint256(hash) */\n      swap2\n      pop\n      pop\n        /* \"Evm/core/base/vaultDelegator.sol\":5208:5761  function _calculateNullifier8(uint256[6] calldata input) internal pure returns (uint256) {... */\n      swap2\n      swap1\n      pop\n      jump\t// out\n        /* \"Evm/core/base/vaultDelegator.sol\":6464:7778  function _prepareWithdrawal(uint[6] calldata input) internal view returns (uint256 amount, address vaultAddr, string memory storageName) {... */\n    tag_206:\n        /* \"Evm/core/base/vaultDelegator.sol\":6539:6553  uint256 amount */\n      0x00\n        /* \"Evm/core/base/vaultDelegator.sol\":6555:6572  address vaultAddr */\n      0x00\n        /* \"Evm/core/base/vaultDelegator.sol\":6574:6599  string memory storageName */\n      0x60\n        /* \"Evm/core/base/vaultDelegator.sol\":6658:6672  uint256 packed */\n      0x00\n        /* \"Evm/core/base/vaultDelegator.sol\":6675:6680  input */\n      dup5\n        /* \"Evm/core/base/vaultDelegator.sol\":6681:6682  5 */\n      0x05\n        /* \"Evm/core/base/vaultDelegator.sol\":6675:6683  input[5] */\n      0x06\n      dup2\n      lt\n      tag_294\n      jumpi\n      tag_295\n      tag_102\n      jump\t// in\n    tag_295:\n    tag_294:\n      0x20\n      mul\n      add\n      calldataload\n        /* \"Evm/core/base/vaultDelegator.sol\":6658:6683  uint256 packed = input[5] */\n      swap1\n      pop\n        /* \"Evm/core/base/vaultDelegator.sol\":6758:6764  packed */\n      dup1\n        /* \"Evm/core/base/vaultDelegator.sol\":6743:6766  uint256(uint64(packed)) */\n      0xffffffffffffffff\n      and\n        /* \"Evm/core/base/vaultDelegator.sol\":6734:6766  amount = uint256(uint64(packed)) */\n      swap4\n      pop\n        /* \"Evm/core/base/vaultDelegator.sol\":6820:6835  uint256 chainID */\n      0x00\n        /* \"Evm/core/base/vaultDelegator.sol\":6863:6865  64 */\n      0x40\n        /* \"Evm/core/base/vaultDelegator.sol\":6853:6859  packed */\n      dup3\n        /* \"Evm/core/base/vaultDelegator.sol\":6853:6865  packed >> 64 */\n      swap1\n      shr\n        /* \"Evm/core/base/vaultDelegator.sol\":6838:6867  uint256(uint32(packed >> 64)) */\n      0xffffffff\n      and\n        /* \"Evm/core/base/vaultDelegator.sol\":6820:6867  uint256 chainID = uint256(uint32(packed >> 64)) */\n      swap1\n      pop\n        /* \"Evm/core/base/vaultDelegator.sol\":6897:6910  block.chainid */\n      chainid\n        /* \"Evm/core/base/vaultDelegator.sol\":6886:6893  chainID */\n      dup2\n        /* \"Evm/core/base/vaultDelegator.sol\":6886:6910  chainID == block.chainid */\n      eq\n        /* \"Evm/core/base/vaultDelegator.sol\":6878:6938  require(chainID == block.chainid, \"Wrong destination chain\") */\n      tag_296\n      jumpi\n      mload(0x40)\n      0x08c379a000000000000000000000000000000000000000000000000000000000\n      dup2\n      mstore\n      0x04\n      add\n      tag_297\n      swap1\n      tag_105\n      jump\t// in\n    tag_297:\n      mload(0x40)\n      dup1\n      swap2\n      sub\n      swap1\n      revert\n    tag_296:\n        /* \"Evm/core/base/vaultDelegator.sol\":7046:7063  uint256 storageID */\n      0x00\n        /* \"Evm/core/base/vaultDelegator.sol\":7076:7079  128 */\n      0x80\n        /* \"Evm/core/base/vaultDelegator.sol\":7066:7072  packed */\n      dup4\n        /* \"Evm/core/base/vaultDelegator.sol\":7066:7079  packed >> 128 */\n      swap1\n      shr\n        /* \"Evm/core/base/vaultDelegator.sol\":7046:7079  uint256 storageID = packed >> 128 */\n      swap1\n      pop\n        /* \"Evm/core/base/vaultDelegator.sol\":7104:7128  fieldToString(storageID) */\n      tag_298\n        /* \"Evm/core/base/vaultDelegator.sol\":7118:7127  storageID */\n      dup2\n        /* \"Evm/core/base/vaultDelegator.sol\":7104:7117  fieldToString */\n      tag_70\n        /* \"Evm/core/base/vaultDelegator.sol\":7104:7128  fieldToString(storageID) */\n      jump\t// in\n    tag_298:\n        /* \"Evm/core/base/vaultDelegator.sol\":7090:7128  storageName = fieldToString(storageID) */\n      swap4\n      pop\n        /* \"Evm/core/base/vaultDelegator.sol\":7187:7213  string memory providerName */\n      0x00\n        /* \"Evm/core/base/vaultDelegator.sol\":7216:7239  fieldToString(input[4]) */\n      tag_299\n        /* \"Evm/core/base/vaultDelegator.sol\":7230:7235  input */\n      dup9\n        /* \"Evm/core/base/vaultDelegator.sol\":7236:7237  4 */\n      0x04\n        /* \"Evm/core/base/vaultDelegator.sol\":7230:7238  input[4] */\n      0x06\n      dup2\n      lt\n      tag_300\n      jumpi\n      tag_301\n      tag_102\n      jump\t// in\n    tag_301:\n    tag_300:\n      0x20\n      mul\n      add\n      calldataload\n        /* \"Evm/core/base/vaultDelegator.sol\":7216:7229  fieldToString */\n      tag_70\n        /* \"Evm/core/base/vaultDelegator.sol\":7216:7239  fieldToString(input[4]) */\n      jump\t// in\n    tag_299:\n        /* \"Evm/core/base/vaultDelegator.sol\":7187:7239  string memory providerName = fieldToString(input[4]) */\n      swap1\n      pop\n        /* \"Evm/core/base/vaultDelegator.sol\":7337:7359  string memory vaultKey */\n      0x00\n        /* \"Evm/core/base/vaultDelegator.sol\":7386:7398  providerName */\n      dup2\n        /* \"Evm/core/base/vaultDelegator.sol\":7369:7409  abi.encodePacked(providerName, \"_vault\") */\n      add(0x20, mload(0x40))\n      tag_302\n      swap2\n      swap1\n      tag_303\n      jump\t// in\n    tag_302:\n      mload(0x40)\n      0x20\n      dup2\n      dup4\n      sub\n      sub\n      dup2\n      mstore\n      swap1\n      0x40\n      mstore\n        /* \"Evm/core/base/vaultDelegator.sol\":7337:7410  string memory vaultKey = string(abi.encodePacked(providerName, \"_vault\")) */\n      swap1\n      pop\n        /* \"Evm/core/base/vaultDelegator.sol\":7454:7477  bytes memory vaultBytes */\n      0x00\n        /* \"Evm/core/base/vaultDelegator.sol\":7480:7497  variablesRegistry */\n      immutable(\"0x980c46aeb242fb2816eec3c43a568cdc6adda404b46e62cce4e3fe7d929881e3\")\n        /* \"Evm/core/base/vaultDelegator.sol\":7480:7515  variablesRegistry.getActiveVariable */\n      0xffffffffffffffffffffffffffffffffffffffff\n      and\n      0x16f1adc1\n        /* \"Evm/core/base/vaultDelegator.sol\":7535:7543  vaultKey */\n      dup4\n        /* \"Evm/core/base/vaultDelegator.sol\":7480:7544  variablesRegistry.getActiveVariable(\"QiaraBaseAssets\", vaultKey) */\n      mload(0x40)\n      dup3\n      0xffffffff\n      and\n      0xe0\n      shl\n      dup2\n      mstore\n      0x04\n      add\n      tag_304\n      swap2\n      swap1\n      tag_305\n      jump\t// in\n    tag_304:\n      0x00\n      mload(0x40)\n      dup1\n      dup4\n      sub\n      dup2\n      dup7\n      gas\n      staticcall\n      iszero\n      dup1\n      iszero\n      tag_307\n      jumpi\n      returndatacopy(0x00, 0x00, returndatasize)\n      revert(0x00, returndatasize)\n    tag_307:\n      pop\n      pop\n      pop\n      pop\n      mload(0x40)\n      returndatasize\n      0x00\n      dup3\n      returndatacopy\n      returndatasize\n      not(0x1f)\n      0x1f\n      dup3\n      add\n      and\n      dup3\n      add\n      dup1\n      0x40\n      mstore\n      pop\n      dup2\n      add\n      swap1\n      tag_308\n      swap2\n      swap1\n      tag_309\n      jump\t// in\n    tag_308:\n        /* \"Evm/core/base/vaultDelegator.sol\":7454:7544  bytes memory vaultBytes = variablesRegistry.getActiveVariable(\"QiaraBaseAssets\", vaultKey) */\n      swap1\n      pop\n        /* \"Evm/core/base/vaultDelegator.sol\":7616:7617  0 */\n      0x00\n        /* \"Evm/core/base/vaultDelegator.sol\":7596:7606  vaultBytes */\n      dup2\n        /* \"Evm/core/base/vaultDelegator.sol\":7596:7613  vaultBytes.length */\n      mload\n        /* \"Evm/core/base/vaultDelegator.sol\":7596:7617  vaultBytes.length > 0 */\n      gt\n        /* \"Evm/core/base/vaultDelegator.sol\":7588:7642  require(vaultBytes.length > 0, \"Vault not authorized\") */\n      tag_310\n      jumpi\n      mload(0x40)\n      0x08c379a000000000000000000000000000000000000000000000000000000000\n      dup2\n      mstore\n      0x04\n      add\n      tag_311\n      swap1\n      tag_312\n      jump\t// in\n    tag_311:\n      mload(0x40)\n      dup1\n      swap2\n      sub\n      swap1\n      revert\n    tag_310:\n        /* \"Evm/core/base/vaultDelegator.sol\":7723:7733  vaultBytes */\n      dup1\n        /* \"Evm/core/base/vaultDelegator.sol\":7715:7734  bytes20(vaultBytes) */\n      tag_313\n      swap1\n      tag_314\n      jump\t// in\n    tag_313:\n        /* \"Evm/core/base/vaultDelegator.sol\":7707:7735  uint160(bytes20(vaultBytes)) */\n      0x60\n      shr\n        /* \"Evm/core/base/vaultDelegator.sol\":7687:7736  vaultAddr = address(uint160(bytes20(vaultBytes))) */\n      swap8\n      pop\n        /* \"Evm/core/base/vaultDelegator.sol\":6601:7778  {... */\n      pop\n      pop\n      pop\n      pop\n      pop\n      pop\n        /* \"Evm/core/base/vaultDelegator.sol\":6464:7778  function _prepareWithdrawal(uint[6] calldata input) internal view returns (uint256 amount, address vaultAddr, string memory storageName) {... */\n      swap2\n      swap4\n      swap1\n      swap3\n      pop\n      jump\t// out\n        /* \"@openzeppelin/contracts/utils/Context.sol\":656:752  function _msgSender() internal view virtual returns (address) {... */\n    tag_272:\n        /* \"@openzeppelin/contracts/utils/Context.sol\":709:716  address */\n      0x00\n        /* \"@openzeppelin/contracts/utils/Context.sol\":735:745  msg.sender */\n      caller\n        /* \"@openzeppelin/contracts/utils/Context.sol\":728:745  return msg.sender */\n      swap1\n      pop\n        /* \"@openzeppelin/contracts/utils/Context.sol\":656:752  function _msgSender() internal view virtual returns (address) {... */\n      swap1\n      jump\t// out\n        /* \"#utility.yul\":7:82   */\n    tag_316:\n        /* \"#utility.yul\":40:46   */\n      0x00\n        /* \"#utility.yul\":73:75   */\n      0x40\n        /* \"#utility.yul\":67:76   */\n      mload\n        /* \"#utility.yul\":57:76   */\n      swap1\n      pop\n        /* \"#utility.yul\":7:82   */\n      swap1\n      jump\t// out\n        /* \"#utility.yul\":88:205   */\n    tag_317:\n        /* \"#utility.yul\":197:198   */\n      0x00\n        /* \"#utility.yul\":194:195   */\n      0x00\n        /* \"#utility.yul\":187:199   */\n      revert\n        /* \"#utility.yul\":211:328   */\n    tag_318:\n        /* \"#utility.yul\":320:321   */\n      0x00\n        /* \"#utility.yul\":317:318   */\n      0x00\n        /* \"#utility.yul\":310:322   */\n      revert\n        /* \"#utility.yul\":334:451   */\n    tag_319:\n        /* \"#utility.yul\":443:444   */\n      0x00\n        /* \"#utility.yul\":440:441   */\n      0x00\n        /* \"#utility.yul\":433:445   */\n      revert\n        /* \"#utility.yul\":475:724   */\n    tag_320:\n        /* \"#utility.yul\":546:554   */\n      0x00\n        /* \"#utility.yul\":577:583   */\n      dup2\n        /* \"#utility.yul\":565:583   */\n      swap1\n      pop\n        /* \"#utility.yul\":630:633   */\n      dup3\n        /* \"#utility.yul\":622:626   */\n      0x20\n        /* \"#utility.yul\":616:620   */\n      0x08\n        /* \"#utility.yul\":612:627   */\n      mul\n        /* \"#utility.yul\":602:610   */\n      dup3\n        /* \"#utility.yul\":598:628   */\n      add\n        /* \"#utility.yul\":595:634   */\n      gt\n        /* \"#utility.yul\":592:718   */\n      iszero\n      tag_417\n      jumpi\n        /* \"#utility.yul\":637:716   */\n      tag_418\n      tag_319\n      jump\t// in\n    tag_418:\n        /* \"#utility.yul\":592:718   */\n    tag_417:\n        /* \"#utility.yul\":475:724   */\n      swap3\n      swap2\n      pop\n      pop\n      jump\t// out\n        /* \"#utility.yul\":748:997   */\n    tag_321:\n        /* \"#utility.yul\":819:827   */\n      0x00\n        /* \"#utility.yul\":850:856   */\n      dup2\n        /* \"#utility.yul\":838:856   */\n      swap1\n      pop\n        /* \"#utility.yul\":903:906   */\n      dup3\n        /* \"#utility.yul\":895:899   */\n      0x20\n        /* \"#utility.yul\":889:893   */\n      0x06\n        /* \"#utility.yul\":885:900   */\n      mul\n        /* \"#utility.yul\":875:883   */\n      dup3\n        /* \"#utility.yul\":871:901   */\n      add\n        /* \"#utility.yul\":868:907   */\n      gt\n        /* \"#utility.yul\":865:991   */\n      iszero\n      tag_420\n      jumpi\n        /* \"#utility.yul\":910:989   */\n      tag_421\n      tag_319\n      jump\t// in\n    tag_421:\n        /* \"#utility.yul\":865:991   */\n    tag_420:\n        /* \"#utility.yul\":748:997   */\n      swap3\n      swap2\n      pop\n      pop\n      jump\t// out\n        /* \"#utility.yul\":1003:1120   */\n    tag_322:\n        /* \"#utility.yul\":1112:1113   */\n      0x00\n        /* \"#utility.yul\":1109:1110   */\n      0x00\n        /* \"#utility.yul\":1102:1114   */\n      revert\n        /* \"#utility.yul\":1126:1243   */\n    tag_323:\n        /* \"#utility.yul\":1235:1236   */\n      0x00\n        /* \"#utility.yul\":1232:1233   */\n      0x00\n        /* \"#utility.yul\":1225:1237   */\n      revert\n        /* \"#utility.yul\":1266:1834   */\n    tag_324:\n        /* \"#utility.yul\":1339:1347   */\n      0x00\n        /* \"#utility.yul\":1349:1355   */\n      0x00\n        /* \"#utility.yul\":1399:1402   */\n      dup4\n        /* \"#utility.yul\":1392:1396   */\n      0x1f\n        /* \"#utility.yul\":1384:1390   */\n      dup5\n        /* \"#utility.yul\":1380:1397   */\n      add\n        /* \"#utility.yul\":1376:1403   */\n      slt\n        /* \"#utility.yul\":1366:1488   */\n      tag_425\n      jumpi\n        /* \"#utility.yul\":1407:1486   */\n      tag_426\n      tag_322\n      jump\t// in\n    tag_426:\n        /* \"#utility.yul\":1366:1488   */\n    tag_425:\n        /* \"#utility.yul\":1520:1526   */\n      dup3\n        /* \"#utility.yul\":1507:1527   */\n      calldataload\n        /* \"#utility.yul\":1497:1527   */\n      swap1\n      pop\n        /* \"#utility.yul\":1550:1568   */\n      0xffffffffffffffff\n        /* \"#utility.yul\":1542:1548   */\n      dup2\n        /* \"#utility.yul\":1539:1569   */\n      gt\n        /* \"#utility.yul\":1536:1653   */\n      iszero\n      tag_427\n      jumpi\n        /* \"#utility.yul\":1572:1651   */\n      tag_428\n      tag_323\n      jump\t// in\n    tag_428:\n        /* \"#utility.yul\":1536:1653   */\n    tag_427:\n        /* \"#utility.yul\":1686:1690   */\n      0x20\n        /* \"#utility.yul\":1678:1684   */\n      dup4\n        /* \"#utility.yul\":1674:1691   */\n      add\n        /* \"#utility.yul\":1662:1691   */\n      swap2\n      pop\n        /* \"#utility.yul\":1740:1743   */\n      dup4\n        /* \"#utility.yul\":1732:1736   */\n      0x20\n        /* \"#utility.yul\":1724:1730   */\n      dup3\n        /* \"#utility.yul\":1720:1737   */\n      mul\n        /* \"#utility.yul\":1710:1718   */\n      dup4\n        /* \"#utility.yul\":1706:1738   */\n      add\n        /* \"#utility.yul\":1703:1744   */\n      gt\n        /* \"#utility.yul\":1700:1828   */\n      iszero\n      tag_429\n      jumpi\n        /* \"#utility.yul\":1747:1826   */\n      tag_430\n      tag_319\n      jump\t// in\n    tag_430:\n        /* \"#utility.yul\":1700:1828   */\n    tag_429:\n        /* \"#utility.yul\":1266:1834   */\n      swap3\n      pop\n      swap3\n      swap1\n      pop\n      jump\t// out\n        /* \"#utility.yul\":1853:2405   */\n    tag_325:\n        /* \"#utility.yul\":1910:1918   */\n      0x00\n        /* \"#utility.yul\":1920:1926   */\n      0x00\n        /* \"#utility.yul\":1970:1973   */\n      dup4\n        /* \"#utility.yul\":1963:1967   */\n      0x1f\n        /* \"#utility.yul\":1955:1961   */\n      dup5\n        /* \"#utility.yul\":1951:1968   */\n      add\n        /* \"#utility.yul\":1947:1974   */\n      slt\n        /* \"#utility.yul\":1937:2059   */\n      tag_432\n      jumpi\n        /* \"#utility.yul\":1978:2057   */\n      tag_433\n      tag_322\n      jump\t// in\n    tag_433:\n        /* \"#utility.yul\":1937:2059   */\n    tag_432:\n        /* \"#utility.yul\":2091:2097   */\n      dup3\n        /* \"#utility.yul\":2078:2098   */\n      calldataload\n        /* \"#utility.yul\":2068:2098   */\n      swap1\n      pop\n        /* \"#utility.yul\":2121:2139   */\n      0xffffffffffffffff\n        /* \"#utility.yul\":2113:2119   */\n      dup2\n        /* \"#utility.yul\":2110:2140   */\n      gt\n        /* \"#utility.yul\":2107:2224   */\n      iszero\n      tag_434\n      jumpi\n        /* \"#utility.yul\":2143:2222   */\n      tag_435\n      tag_323\n      jump\t// in\n    tag_435:\n        /* \"#utility.yul\":2107:2224   */\n    tag_434:\n        /* \"#utility.yul\":2257:2261   */\n      0x20\n        /* \"#utility.yul\":2249:2255   */\n      dup4\n        /* \"#utility.yul\":2245:2262   */\n      add\n        /* \"#utility.yul\":2233:2262   */\n      swap2\n      pop\n        /* \"#utility.yul\":2311:2314   */\n      dup4\n        /* \"#utility.yul\":2303:2307   */\n      0x01\n        /* \"#utility.yul\":2295:2301   */\n      dup3\n        /* \"#utility.yul\":2291:2308   */\n      mul\n        /* \"#utility.yul\":2281:2289   */\n      dup4\n        /* \"#utility.yul\":2277:2309   */\n      add\n        /* \"#utility.yul\":2274:2315   */\n      gt\n        /* \"#utility.yul\":2271:2399   */\n      iszero\n      tag_436\n      jumpi\n        /* \"#utility.yul\":2318:2397   */\n      tag_437\n      tag_319\n      jump\t// in\n    tag_437:\n        /* \"#utility.yul\":2271:2399   */\n    tag_436:\n        /* \"#utility.yul\":1853:2405   */\n      swap3\n      pop\n      swap3\n      swap1\n      pop\n      jump\t// out\n        /* \"#utility.yul\":2411:3707   */\n    tag_25:\n        /* \"#utility.yul\":2585:2591   */\n      0x00\n        /* \"#utility.yul\":2593:2599   */\n      0x00\n        /* \"#utility.yul\":2601:2607   */\n      0x00\n        /* \"#utility.yul\":2609:2615   */\n      0x00\n        /* \"#utility.yul\":2617:2623   */\n      0x00\n        /* \"#utility.yul\":2625:2631   */\n      0x00\n        /* \"#utility.yul\":2674:2677   */\n      0x0200\n        /* \"#utility.yul\":2662:2671   */\n      dup8\n        /* \"#utility.yul\":2653:2660   */\n      dup10\n        /* \"#utility.yul\":2649:2672   */\n      sub\n        /* \"#utility.yul\":2645:2678   */\n      slt\n        /* \"#utility.yul\":2642:2762   */\n      iszero\n      tag_439\n      jumpi\n        /* \"#utility.yul\":2681:2760   */\n      tag_440\n      tag_317\n      jump\t// in\n    tag_440:\n        /* \"#utility.yul\":2642:2762   */\n    tag_439:\n        /* \"#utility.yul\":2801:2802   */\n      0x00\n        /* \"#utility.yul\":2826:2904   */\n      tag_441\n        /* \"#utility.yul\":2896:2903   */\n      dup10\n        /* \"#utility.yul\":2887:2893   */\n      dup3\n        /* \"#utility.yul\":2876:2885   */\n      dup11\n        /* \"#utility.yul\":2872:2894   */\n      add\n        /* \"#utility.yul\":2826:2904   */\n      tag_320\n      jump\t// in\n    tag_441:\n        /* \"#utility.yul\":2816:2904   */\n      swap7\n      pop\n        /* \"#utility.yul\":2772:2914   */\n      pop\n        /* \"#utility.yul\":2953:2956   */\n      0x0100\n        /* \"#utility.yul\":2980:3058   */\n      tag_442\n        /* \"#utility.yul\":3050:3057   */\n      dup10\n        /* \"#utility.yul\":3041:3047   */\n      dup3\n        /* \"#utility.yul\":3030:3039   */\n      dup11\n        /* \"#utility.yul\":3026:3048   */\n      add\n        /* \"#utility.yul\":2980:3058   */\n      tag_321\n      jump\t// in\n    tag_442:\n        /* \"#utility.yul\":2970:3058   */\n      swap6\n      pop\n        /* \"#utility.yul\":2924:3068   */\n      pop\n        /* \"#utility.yul\":3135:3138   */\n      0x01c0\n        /* \"#utility.yul\":3124:3133   */\n      dup8\n        /* \"#utility.yul\":3120:3139   */\n      add\n        /* \"#utility.yul\":3107:3140   */\n      calldataload\n        /* \"#utility.yul\":3167:3185   */\n      0xffffffffffffffff\n        /* \"#utility.yul\":3159:3165   */\n      dup2\n        /* \"#utility.yul\":3156:3186   */\n      gt\n        /* \"#utility.yul\":3153:3270   */\n      iszero\n      tag_443\n      jumpi\n        /* \"#utility.yul\":3189:3268   */\n      tag_444\n      tag_318\n      jump\t// in\n    tag_444:\n        /* \"#utility.yul\":3153:3270   */\n    tag_443:\n        /* \"#utility.yul\":3302:3382   */\n      tag_445\n        /* \"#utility.yul\":3374:3381   */\n      dup10\n        /* \"#utility.yul\":3365:3371   */\n      dup3\n        /* \"#utility.yul\":3354:3363   */\n      dup11\n        /* \"#utility.yul\":3350:3372   */\n      add\n        /* \"#utility.yul\":3302:3382   */\n      tag_324\n      jump\t// in\n    tag_445:\n        /* \"#utility.yul\":3284:3382   */\n      swap5\n      pop\n      swap5\n      pop\n        /* \"#utility.yul\":3078:3392   */\n      pop\n        /* \"#utility.yul\":3459:3462   */\n      0x01e0\n        /* \"#utility.yul\":3448:3457   */\n      dup8\n        /* \"#utility.yul\":3444:3463   */\n      add\n        /* \"#utility.yul\":3431:3464   */\n      calldataload\n        /* \"#utility.yul\":3491:3509   */\n      0xffffffffffffffff\n        /* \"#utility.yul\":3483:3489   */\n      dup2\n        /* \"#utility.yul\":3480:3510   */\n      gt\n        /* \"#utility.yul\":3477:3594   */\n      iszero\n      tag_446\n      jumpi\n        /* \"#utility.yul\":3513:3592   */\n      tag_447\n      tag_318\n      jump\t// in\n    tag_447:\n        /* \"#utility.yul\":3477:3594   */\n    tag_446:\n        /* \"#utility.yul\":3626:3690   */\n      tag_448\n        /* \"#utility.yul\":3682:3689   */\n      dup10\n        /* \"#utility.yul\":3673:3679   */\n      dup3\n        /* \"#utility.yul\":3662:3671   */\n      dup11\n        /* \"#utility.yul\":3658:3680   */\n      add\n        /* \"#utility.yul\":3626:3690   */\n      tag_325\n      jump\t// in\n    tag_448:\n        /* \"#utility.yul\":3608:3690   */\n      swap3\n      pop\n      swap3\n      pop\n        /* \"#utility.yul\":3402:3700   */\n      pop\n        /* \"#utility.yul\":2411:3707   */\n      swap3\n      swap6\n      pop\n      swap3\n      swap6\n      pop\n      swap3\n      swap6\n      jump\t// out\n        /* \"#utility.yul\":3713:3790   */\n    tag_326:\n        /* \"#utility.yul\":3750:3757   */\n      0x00\n        /* \"#utility.yul\":3779:3784   */\n      dup2\n        /* \"#utility.yul\":3768:3784   */\n      swap1\n      pop\n        /* \"#utility.yul\":3713:3790   */\n      swap2\n      swap1\n      pop\n      jump\t// out\n        /* \"#utility.yul\":3796:3918   */\n    tag_327:\n        /* \"#utility.yul\":3869:3893   */\n      tag_451\n        /* \"#utility.yul\":3887:3892   */\n      dup2\n        /* \"#utility.yul\":3869:3893   */\n      tag_326\n      jump\t// in\n    tag_451:\n        /* \"#utility.yul\":3862:3867   */\n      dup2\n        /* \"#utility.yul\":3859:3894   */\n      eq\n        /* \"#utility.yul\":3849:3912   */\n      tag_452\n      jumpi\n        /* \"#utility.yul\":3908:3909   */\n      0x00\n        /* \"#utility.yul\":3905:3906   */\n      0x00\n        /* \"#utility.yul\":3898:3910   */\n      revert\n        /* \"#utility.yul\":3849:3912   */\n    tag_452:\n        /* \"#utility.yul\":3796:3918   */\n      pop\n      jump\t// out\n        /* \"#utility.yul\":3924:4063   */\n    tag_328:\n        /* \"#utility.yul\":3970:3975   */\n      0x00\n        /* \"#utility.yul\":4008:4014   */\n      dup2\n        /* \"#utility.yul\":3995:4015   */\n      calldataload\n        /* \"#utility.yul\":3986:4015   */\n      swap1\n      pop\n        /* \"#utility.yul\":4024:4057   */\n      tag_454\n        /* \"#utility.yul\":4051:4056   */\n      dup2\n        /* \"#utility.yul\":4024:4057   */\n      tag_327\n      jump\t// in\n    tag_454:\n        /* \"#utility.yul\":3924:4063   */\n      swap3\n      swap2\n      pop\n      pop\n      jump\t// out\n        /* \"#utility.yul\":4069:4398   */\n    tag_29:\n        /* \"#utility.yul\":4128:4134   */\n      0x00\n        /* \"#utility.yul\":4177:4179   */\n      0x20\n        /* \"#utility.yul\":4165:4174   */\n      dup3\n        /* \"#utility.yul\":4156:4163   */\n      dup5\n        /* \"#utility.yul\":4152:4175   */\n      sub\n        /* \"#utility.yul\":4148:4180   */\n      slt\n        /* \"#utility.yul\":4145:4264   */\n      iszero\n      tag_456\n      jumpi\n        /* \"#utility.yul\":4183:4262   */\n      tag_457\n      tag_317\n      jump\t// in\n    tag_457:\n        /* \"#utility.yul\":4145:4264   */\n    tag_456:\n        /* \"#utility.yul\":4303:4304   */\n      0x00\n        /* \"#utility.yul\":4328:4381   */\n      tag_458\n        /* \"#utility.yul\":4373:4380   */\n      dup5\n        /* \"#utility.yul\":4364:4370   */\n      dup3\n        /* \"#utility.yul\":4353:4362   */\n      dup6\n        /* \"#utility.yul\":4349:4371   */\n      add\n        /* \"#utility.yul\":4328:4381   */\n      tag_328\n      jump\t// in\n    tag_458:\n        /* \"#utility.yul\":4318:4381   */\n      swap2\n      pop\n        /* \"#utility.yul\":4274:4391   */\n      pop\n        /* \"#utility.yul\":4069:4398   */\n      swap3\n      swap2\n      pop\n      pop\n      jump\t// out\n        /* \"#utility.yul\":4404:4502   */\n    tag_329:\n        /* \"#utility.yul\":4455:4461   */\n      0x00\n        /* \"#utility.yul\":4489:4494   */\n      dup2\n        /* \"#utility.yul\":4483:4495   */\n      mload\n        /* \"#utility.yul\":4473:4495   */\n      swap1\n      pop\n        /* \"#utility.yul\":4404:4502   */\n      swap2\n      swap1\n      pop\n      jump\t// out\n        /* \"#utility.yul\":4508:4676   */\n    tag_330:\n        /* \"#utility.yul\":4591:4602   */\n      0x00\n        /* \"#utility.yul\":4625:4631   */\n      dup3\n        /* \"#utility.yul\":4620:4623   */\n      dup3\n        /* \"#utility.yul\":4613:4632   */\n      mstore\n        /* \"#utility.yul\":4665:4669   */\n      0x20\n        /* \"#utility.yul\":4660:4663   */\n      dup3\n        /* \"#utility.yul\":4656:4670   */\n      add\n        /* \"#utility.yul\":4641:4670   */\n      swap1\n      pop\n        /* \"#utility.yul\":4508:4676   */\n      swap3\n      swap2\n      pop\n      pop\n      jump\t// out\n        /* \"#utility.yul\":4682:4821   */\n    tag_331:\n        /* \"#utility.yul\":4771:4777   */\n      dup3\n        /* \"#utility.yul\":4766:4769   */\n      dup2\n        /* \"#utility.yul\":4761:4764   */\n      dup4\n        /* \"#utility.yul\":4755:4778   */\n      mcopy\n        /* \"#utility.yul\":4812:4813   */\n      0x00\n        /* \"#utility.yul\":4803:4809   */\n      dup4\n        /* \"#utility.yul\":4798:4801   */\n      dup4\n        /* \"#utility.yul\":4794:4810   */\n      add\n        /* \"#utility.yul\":4787:4814   */\n      mstore\n        /* \"#utility.yul\":4682:4821   */\n      pop\n      pop\n      pop\n      jump\t// out\n        /* \"#utility.yul\":4827:4929   */\n    tag_332:\n        /* \"#utility.yul\":4868:4874   */\n      0x00\n        /* \"#utility.yul\":4919:4921   */\n      0x1f\n        /* \"#utility.yul\":4915:4922   */\n      not\n        /* \"#utility.yul\":4910:4912   */\n      0x1f\n        /* \"#utility.yul\":4903:4908   */\n      dup4\n        /* \"#utility.yul\":4899:4913   */\n      add\n        /* \"#utility.yul\":4895:4923   */\n      and\n        /* \"#utility.yul\":4885:4923   */\n      swap1\n      pop\n        /* \"#utility.yul\":4827:4929   */\n      swap2\n      swap1\n      pop\n      jump\t// out\n        /* \"#utility.yul\":4935:5308   */\n    tag_333:\n        /* \"#utility.yul\":5021:5024   */\n      0x00\n        /* \"#utility.yul\":5049:5087   */\n      tag_464\n        /* \"#utility.yul\":5081:5086   */\n      dup3\n        /* \"#utility.yul\":5049:5087   */\n      tag_329\n      jump\t// in\n    tag_464:\n        /* \"#utility.yul\":5103:5173   */\n      tag_465\n        /* \"#utility.yul\":5166:5172   */\n      dup2\n        /* \"#utility.yul\":5161:5164   */\n      dup6\n        /* \"#utility.yul\":5103:5173   */\n      tag_330\n      jump\t// in\n    tag_465:\n        /* \"#utility.yul\":5096:5173   */\n      swap4\n      pop\n        /* \"#utility.yul\":5182:5247   */\n      tag_466\n        /* \"#utility.yul\":5240:5246   */\n      dup2\n        /* \"#utility.yul\":5235:5238   */\n      dup6\n        /* \"#utility.yul\":5228:5232   */\n      0x20\n        /* \"#utility.yul\":5221:5226   */\n      dup7\n        /* \"#utility.yul\":5217:5233   */\n      add\n        /* \"#utility.yul\":5182:5247   */\n      tag_331\n      jump\t// in\n    tag_466:\n        /* \"#utility.yul\":5272:5301   */\n      tag_467\n        /* \"#utility.yul\":5294:5300   */\n      dup2\n        /* \"#utility.yul\":5272:5301   */\n      tag_332\n      jump\t// in\n    tag_467:\n        /* \"#utility.yul\":5267:5270   */\n      dup5\n        /* \"#utility.yul\":5263:5302   */\n      add\n        /* \"#utility.yul\":5256:5302   */\n      swap2\n      pop\n        /* \"#utility.yul\":5025:5308   */\n      pop\n        /* \"#utility.yul\":4935:5308   */\n      swap3\n      swap2\n      pop\n      pop\n      jump\t// out\n        /* \"#utility.yul\":5314:5623   */\n    tag_32:\n        /* \"#utility.yul\":5425:5429   */\n      0x00\n        /* \"#utility.yul\":5463:5465   */\n      0x20\n        /* \"#utility.yul\":5452:5461   */\n      dup3\n        /* \"#utility.yul\":5448:5466   */\n      add\n        /* \"#utility.yul\":5440:5466   */\n      swap1\n      pop\n        /* \"#utility.yul\":5512:5521   */\n      dup2\n        /* \"#utility.yul\":5506:5510   */\n      dup2\n        /* \"#utility.yul\":5502:5522   */\n      sub\n        /* \"#utility.yul\":5498:5499   */\n      0x00\n        /* \"#utility.yul\":5487:5496   */\n      dup4\n        /* \"#utility.yul\":5483:5500   */\n      add\n        /* \"#utility.yul\":5476:5523   */\n      mstore\n        /* \"#utility.yul\":5540:5616   */\n      tag_469\n        /* \"#utility.yul\":5611:5615   */\n      dup2\n        /* \"#utility.yul\":5602:5608   */\n      dup5\n        /* \"#utility.yul\":5540:5616   */\n      tag_333\n      jump\t// in\n    tag_469:\n        /* \"#utility.yul\":5532:5616   */\n      swap1\n      pop\n        /* \"#utility.yul\":5314:5623   */\n      swap3\n      swap2\n      pop\n      pop\n      jump\t// out\n        /* \"#utility.yul\":5629:5755   */\n    tag_334:\n        /* \"#utility.yul\":5666:5673   */\n      0x00\n        /* \"#utility.yul\":5706:5748   */\n      0xffffffffffffffffffffffffffffffffffffffff\n        /* \"#utility.yul\":5699:5704   */\n      dup3\n        /* \"#utility.yul\":5695:5749   */\n      and\n        /* \"#utility.yul\":5684:5749   */\n      swap1\n      pop\n        /* \"#utility.yul\":5629:5755   */\n      swap2\n      swap1\n      pop\n      jump\t// out\n        /* \"#utility.yul\":5761:5821   */\n    tag_335:\n        /* \"#utility.yul\":5789:5792   */\n      0x00\n        /* \"#utility.yul\":5810:5815   */\n      dup2\n        /* \"#utility.yul\":5803:5815   */\n      swap1\n      pop\n        /* \"#utility.yul\":5761:5821   */\n      swap2\n      swap1\n      pop\n      jump\t// out\n        /* \"#utility.yul\":5827:5969   */\n    tag_336:\n        /* \"#utility.yul\":5877:5886   */\n      0x00\n        /* \"#utility.yul\":5910:5963   */\n      tag_473\n        /* \"#utility.yul\":5928:5962   */\n      tag_474\n        /* \"#utility.yul\":5937:5961   */\n      tag_475\n        /* \"#utility.yul\":5955:5960   */\n      dup5\n        /* \"#utility.yul\":5937:5961   */\n      tag_334\n      jump\t// in\n    tag_475:\n        /* \"#utility.yul\":5928:5962   */\n      tag_335\n      jump\t// in\n    tag_474:\n        /* \"#utility.yul\":5910:5963   */\n      tag_334\n      jump\t// in\n    tag_473:\n        /* \"#utility.yul\":5897:5963   */\n      swap1\n      pop\n        /* \"#utility.yul\":5827:5969   */\n      swap2\n      swap1\n      pop\n      jump\t// out\n        /* \"#utility.yul\":5975:6101   */\n    tag_337:\n        /* \"#utility.yul\":6025:6034   */\n      0x00\n        /* \"#utility.yul\":6058:6095   */\n      tag_477\n        /* \"#utility.yul\":6089:6094   */\n      dup3\n        /* \"#utility.yul\":6058:6095   */\n      tag_336\n      jump\t// in\n    tag_477:\n        /* \"#utility.yul\":6045:6095   */\n      swap1\n      pop\n        /* \"#utility.yul\":5975:6101   */\n      swap2\n      swap1\n      pop\n      jump\t// out\n        /* \"#utility.yul\":6107:6258   */\n    tag_338:\n        /* \"#utility.yul\":6182:6191   */\n      0x00\n        /* \"#utility.yul\":6215:6252   */\n      tag_479\n        /* \"#utility.yul\":6246:6251   */\n      dup3\n        /* \"#utility.yul\":6215:6252   */\n      tag_337\n      jump\t// in\n    tag_479:\n        /* \"#utility.yul\":6202:6252   */\n      swap1\n      pop\n        /* \"#utility.yul\":6107:6258   */\n      swap2\n      swap1\n      pop\n      jump\t// out\n        /* \"#utility.yul\":6264:6445   */\n    tag_339:\n        /* \"#utility.yul\":6376:6438   */\n      tag_481\n        /* \"#utility.yul\":6432:6437   */\n      dup2\n        /* \"#utility.yul\":6376:6438   */\n      tag_338\n      jump\t// in\n    tag_481:\n        /* \"#utility.yul\":6371:6374   */\n      dup3\n        /* \"#utility.yul\":6364:6439   */\n      mstore\n        /* \"#utility.yul\":6264:6445   */\n      pop\n      pop\n      jump\t// out\n        /* \"#utility.yul\":6451:6723   */\n    tag_36:\n        /* \"#utility.yul\":6569:6573   */\n      0x00\n        /* \"#utility.yul\":6607:6609   */\n      0x20\n        /* \"#utility.yul\":6596:6605   */\n      dup3\n        /* \"#utility.yul\":6592:6610   */\n      add\n        /* \"#utility.yul\":6584:6610   */\n      swap1\n      pop\n        /* \"#utility.yul\":6620:6716   */\n      tag_483\n        /* \"#utility.yul\":6713:6714   */\n      0x00\n        /* \"#utility.yul\":6702:6711   */\n      dup4\n        /* \"#utility.yul\":6698:6715   */\n      add\n        /* \"#utility.yul\":6689:6695   */\n      dup5\n        /* \"#utility.yul\":6620:6716   */\n      tag_339\n      jump\t// in\n    tag_483:\n        /* \"#utility.yul\":6451:6723   */\n      swap3\n      swap2\n      pop\n      pop\n      jump\t// out\n        /* \"#utility.yul\":6729:6825   */\n    tag_340:\n        /* \"#utility.yul\":6766:6773   */\n      0x00\n        /* \"#utility.yul\":6795:6819   */\n      tag_485\n        /* \"#utility.yul\":6813:6818   */\n      dup3\n        /* \"#utility.yul\":6795:6819   */\n      tag_334\n      jump\t// in\n    tag_485:\n        /* \"#utility.yul\":6784:6819   */\n      swap1\n      pop\n        /* \"#utility.yul\":6729:6825   */\n      swap2\n      swap1\n      pop\n      jump\t// out\n        /* \"#utility.yul\":6831:6949   */\n    tag_341:\n        /* \"#utility.yul\":6918:6942   */\n      tag_487\n        /* \"#utility.yul\":6936:6941   */\n      dup2\n        /* \"#utility.yul\":6918:6942   */\n      tag_340\n      jump\t// in\n    tag_487:\n        /* \"#utility.yul\":6913:6916   */\n      dup3\n        /* \"#utility.yul\":6906:6943   */\n      mstore\n        /* \"#utility.yul\":6831:6949   */\n      pop\n      pop\n      jump\t// out\n        /* \"#utility.yul\":6955:7177   */\n    tag_43:\n        /* \"#utility.yul\":7048:7052   */\n      0x00\n        /* \"#utility.yul\":7086:7088   */\n      0x20\n        /* \"#utility.yul\":7075:7084   */\n      dup3\n        /* \"#utility.yul\":7071:7089   */\n      add\n        /* \"#utility.yul\":7063:7089   */\n      swap1\n      pop\n        /* \"#utility.yul\":7099:7170   */\n      tag_489\n        /* \"#utility.yul\":7167:7168   */\n      0x00\n        /* \"#utility.yul\":7156:7165   */\n      dup4\n        /* \"#utility.yul\":7152:7169   */\n      add\n        /* \"#utility.yul\":7143:7149   */\n      dup5\n        /* \"#utility.yul\":7099:7170   */\n      tag_341\n      jump\t// in\n    tag_489:\n        /* \"#utility.yul\":6955:7177   */\n      swap3\n      swap2\n      pop\n      pop\n      jump\t// out\n        /* \"#utility.yul\":7183:7260   */\n    tag_342:\n        /* \"#utility.yul\":7220:7227   */\n      0x00\n        /* \"#utility.yul\":7249:7254   */\n      dup2\n        /* \"#utility.yul\":7238:7254   */\n      swap1\n      pop\n        /* \"#utility.yul\":7183:7260   */\n      swap2\n      swap1\n      pop\n      jump\t// out\n        /* \"#utility.yul\":7266:7388   */\n    tag_343:\n        /* \"#utility.yul\":7339:7363   */\n      tag_492\n        /* \"#utility.yul\":7357:7362   */\n      dup2\n        /* \"#utility.yul\":7339:7363   */\n      tag_342\n      jump\t// in\n    tag_492:\n        /* \"#utility.yul\":7332:7337   */\n      dup2\n        /* \"#utility.yul\":7329:7364   */\n      eq\n        /* \"#utility.yul\":7319:7382   */\n      tag_493\n      jumpi\n        /* \"#utility.yul\":7378:7379   */\n      0x00\n        /* \"#utility.yul\":7375:7376   */\n      0x00\n        /* \"#utility.yul\":7368:7380   */\n      revert\n        /* \"#utility.yul\":7319:7382   */\n    tag_493:\n        /* \"#utility.yul\":7266:7388   */\n      pop\n      jump\t// out\n        /* \"#utility.yul\":7394:7533   */\n    tag_344:\n        /* \"#utility.yul\":7440:7445   */\n      0x00\n        /* \"#utility.yul\":7478:7484   */\n      dup2\n        /* \"#utility.yul\":7465:7485   */\n      calldataload\n        /* \"#utility.yul\":7456:7485   */\n      swap1\n      pop\n        /* \"#utility.yul\":7494:7527   */\n      tag_495\n        /* \"#utility.yul\":7521:7526   */\n      dup2\n        /* \"#utility.yul\":7494:7527   */\n      tag_343\n      jump\t// in\n    tag_495:\n        /* \"#utility.yul\":7394:7533   */\n      swap3\n      swap2\n      pop\n      pop\n      jump\t// out\n        /* \"#utility.yul\":7539:7656   */\n    tag_345:\n        /* \"#utility.yul\":7648:7649   */\n      0x00\n        /* \"#utility.yul\":7645:7646   */\n      0x00\n        /* \"#utility.yul\":7638:7650   */\n      revert\n        /* \"#utility.yul\":7662:7842   */\n    tag_189:\n        /* \"#utility.yul\":7710:7787   */\n      0x4e487b7100000000000000000000000000000000000000000000000000000000\n        /* \"#utility.yul\":7707:7708   */\n      0x00\n        /* \"#utility.yul\":7700:7788   */\n      mstore\n        /* \"#utility.yul\":7807:7811   */\n      0x41\n        /* \"#utility.yul\":7804:7805   */\n      0x04\n        /* \"#utility.yul\":7797:7812   */\n      mstore\n        /* \"#utility.yul\":7831:7835   */\n      0x24\n        /* \"#utility.yul\":7828:7829   */\n      0x00\n        /* \"#utility.yul\":7821:7836   */\n      revert\n        /* \"#utility.yul\":7848:8129   */\n    tag_346:\n        /* \"#utility.yul\":7931:7958   */\n      tag_499\n        /* \"#utility.yul\":7953:7957   */\n      dup3\n        /* \"#utility.yul\":7931:7958   */\n      tag_332\n      jump\t// in\n    tag_499:\n        /* \"#utility.yul\":7923:7929   */\n      dup2\n        /* \"#utility.yul\":7919:7959   */\n      add\n        /* \"#utility.yul\":8061:8067   */\n      dup2\n        /* \"#utility.yul\":8049:8059   */\n      dup2\n        /* \"#utility.yul\":8046:8068   */\n      lt\n        /* \"#utility.yul\":8025:8043   */\n      0xffffffffffffffff\n        /* \"#utility.yul\":8013:8023   */\n      dup3\n        /* \"#utility.yul\":8010:8044   */\n      gt\n        /* \"#utility.yul\":8007:8069   */\n      or\n        /* \"#utility.yul\":8004:8092   */\n      iszero\n      tag_500\n      jumpi\n        /* \"#utility.yul\":8072:8090   */\n      tag_501\n      tag_189\n      jump\t// in\n    tag_501:\n        /* \"#utility.yul\":8004:8092   */\n    tag_500:\n        /* \"#utility.yul\":8112:8122   */\n      dup1\n        /* \"#utility.yul\":8108:8110   */\n      0x40\n        /* \"#utility.yul\":8101:8123   */\n      mstore\n        /* \"#utility.yul\":7891:8129   */\n      pop\n        /* \"#utility.yul\":7848:8129   */\n      pop\n      pop\n      jump\t// out\n        /* \"#utility.yul\":8135:8264   */\n    tag_347:\n        /* \"#utility.yul\":8169:8175   */\n      0x00\n        /* \"#utility.yul\":8196:8216   */\n      tag_503\n      tag_316\n      jump\t// in\n    tag_503:\n        /* \"#utility.yul\":8186:8216   */\n      swap1\n      pop\n        /* \"#utility.yul\":8225:8258   */\n      tag_504\n        /* \"#utility.yul\":8253:8257   */\n      dup3\n        /* \"#utility.yul\":8245:8251   */\n      dup3\n        /* \"#utility.yul\":8225:8258   */\n      tag_346\n      jump\t// in\n    tag_504:\n        /* \"#utility.yul\":8135:8264   */\n      swap2\n      swap1\n      pop\n      jump\t// out\n        /* \"#utility.yul\":8270:8577   */\n    tag_348:\n        /* \"#utility.yul\":8331:8335   */\n      0x00\n        /* \"#utility.yul\":8421:8439   */\n      0xffffffffffffffff\n        /* \"#utility.yul\":8413:8419   */\n      dup3\n        /* \"#utility.yul\":8410:8440   */\n      gt\n        /* \"#utility.yul\":8407:8463   */\n      iszero\n      tag_506\n      jumpi\n        /* \"#utility.yul\":8443:8461   */\n      tag_507\n      tag_189\n      jump\t// in\n    tag_507:\n        /* \"#utility.yul\":8407:8463   */\n    tag_506:\n        /* \"#utility.yul\":8481:8510   */\n      tag_508\n        /* \"#utility.yul\":8503:8509   */\n      dup3\n        /* \"#utility.yul\":8481:8510   */\n      tag_332\n      jump\t// in\n    tag_508:\n        /* \"#utility.yul\":8473:8510   */\n      swap1\n      pop\n        /* \"#utility.yul\":8565:8569   */\n      0x20\n        /* \"#utility.yul\":8559:8563   */\n      dup2\n        /* \"#utility.yul\":8555:8570   */\n      add\n        /* \"#utility.yul\":8547:8570   */\n      swap1\n      pop\n        /* \"#utility.yul\":8270:8577   */\n      swap2\n      swap1\n      pop\n      jump\t// out\n        /* \"#utility.yul\":8583:8731   */\n    tag_349:\n        /* \"#utility.yul\":8681:8687   */\n      dup3\n        /* \"#utility.yul\":8676:8679   */\n      dup2\n        /* \"#utility.yul\":8671:8674   */\n      dup4\n        /* \"#utility.yul\":8658:8688   */\n      calldatacopy\n        /* \"#utility.yul\":8722:8723   */\n      0x00\n        /* \"#utility.yul\":8713:8719   */\n      dup4\n        /* \"#utility.yul\":8708:8711   */\n      dup4\n        /* \"#utility.yul\":8704:8720   */\n      add\n        /* \"#utility.yul\":8697:8724   */\n      mstore\n        /* \"#utility.yul\":8583:8731   */\n      pop\n      pop\n      pop\n      jump\t// out\n        /* \"#utility.yul\":8737:9160   */\n    tag_350:\n        /* \"#utility.yul\":8814:8819   */\n      0x00\n        /* \"#utility.yul\":8839:8904   */\n      tag_511\n        /* \"#utility.yul\":8855:8903   */\n      tag_512\n        /* \"#utility.yul\":8896:8902   */\n      dup5\n        /* \"#utility.yul\":8855:8903   */\n      tag_348\n      jump\t// in\n    tag_512:\n        /* \"#utility.yul\":8839:8904   */\n      tag_347\n      jump\t// in\n    tag_511:\n        /* \"#utility.yul\":8830:8904   */\n      swap1\n      pop\n        /* \"#utility.yul\":8927:8933   */\n      dup3\n        /* \"#utility.yul\":8920:8925   */\n      dup2\n        /* \"#utility.yul\":8913:8934   */\n      mstore\n        /* \"#utility.yul\":8965:8969   */\n      0x20\n        /* \"#utility.yul\":8958:8963   */\n      dup2\n        /* \"#utility.yul\":8954:8970   */\n      add\n        /* \"#utility.yul\":9003:9006   */\n      dup5\n        /* \"#utility.yul\":8994:9000   */\n      dup5\n        /* \"#utility.yul\":8989:8992   */\n      dup5\n        /* \"#utility.yul\":8985:9001   */\n      add\n        /* \"#utility.yul\":8982:9007   */\n      gt\n        /* \"#utility.yul\":8979:9091   */\n      iszero\n      tag_513\n      jumpi\n        /* \"#utility.yul\":9010:9089   */\n      tag_514\n      tag_345\n      jump\t// in\n    tag_514:\n        /* \"#utility.yul\":8979:9091   */\n    tag_513:\n        /* \"#utility.yul\":9100:9154   */\n      tag_515\n        /* \"#utility.yul\":9147:9153   */\n      dup5\n        /* \"#utility.yul\":9142:9145   */\n      dup3\n        /* \"#utility.yul\":9137:9140   */\n      dup6\n        /* \"#utility.yul\":9100:9154   */\n      tag_349\n      jump\t// in\n    tag_515:\n        /* \"#utility.yul\":8820:9160   */\n      pop\n        /* \"#utility.yul\":8737:9160   */\n      swap4\n      swap3\n      pop\n      pop\n      pop\n      jump\t// out\n        /* \"#utility.yul\":9179:9517   */\n    tag_351:\n        /* \"#utility.yul\":9234:9239   */\n      0x00\n        /* \"#utility.yul\":9283:9286   */\n      dup3\n        /* \"#utility.yul\":9276:9280   */\n      0x1f\n        /* \"#utility.yul\":9268:9274   */\n      dup4\n        /* \"#utility.yul\":9264:9281   */\n      add\n        /* \"#utility.yul\":9260:9287   */\n      slt\n        /* \"#utility.yul\":9250:9372   */\n      tag_517\n      jumpi\n        /* \"#utility.yul\":9291:9370   */\n      tag_518\n      tag_322\n      jump\t// in\n    tag_518:\n        /* \"#utility.yul\":9250:9372   */\n    tag_517:\n        /* \"#utility.yul\":9408:9414   */\n      dup2\n        /* \"#utility.yul\":9395:9415   */\n      calldataload\n        /* \"#utility.yul\":9433:9511   */\n      tag_519\n        /* \"#utility.yul\":9507:9510   */\n      dup5\n        /* \"#utility.yul\":9499:9505   */\n      dup3\n        /* \"#utility.yul\":9492:9496   */\n      0x20\n        /* \"#utility.yul\":9484:9490   */\n      dup7\n        /* \"#utility.yul\":9480:9497   */\n      add\n        /* \"#utility.yul\":9433:9511   */\n      tag_350\n      jump\t// in\n    tag_519:\n        /* \"#utility.yul\":9424:9511   */\n      swap2\n      pop\n        /* \"#utility.yul\":9240:9517   */\n      pop\n        /* \"#utility.yul\":9179:9517   */\n      swap3\n      swap2\n      pop\n      pop\n      jump\t// out\n        /* \"#utility.yul\":9523:10175   */\n    tag_49:\n        /* \"#utility.yul\":9600:9606   */\n      0x00\n        /* \"#utility.yul\":9608:9614   */\n      0x00\n        /* \"#utility.yul\":9657:9659   */\n      0x40\n        /* \"#utility.yul\":9645:9654   */\n      dup4\n        /* \"#utility.yul\":9636:9643   */\n      dup6\n        /* \"#utility.yul\":9632:9655   */\n      sub\n        /* \"#utility.yul\":9628:9660   */\n      slt\n        /* \"#utility.yul\":9625:9744   */\n      iszero\n      tag_521\n      jumpi\n        /* \"#utility.yul\":9663:9742   */\n      tag_522\n      tag_317\n      jump\t// in\n    tag_522:\n        /* \"#utility.yul\":9625:9744   */\n    tag_521:\n        /* \"#utility.yul\":9783:9784   */\n      0x00\n        /* \"#utility.yul\":9808:9861   */\n      tag_523\n        /* \"#utility.yul\":9853:9860   */\n      dup6\n        /* \"#utility.yul\":9844:9850   */\n      dup3\n        /* \"#utility.yul\":9833:9842   */\n      dup7\n        /* \"#utility.yul\":9829:9851   */\n      add\n        /* \"#utility.yul\":9808:9861   */\n      tag_344\n      jump\t// in\n    tag_523:\n        /* \"#utility.yul\":9798:9861   */\n      swap3\n      pop\n        /* \"#utility.yul\":9754:9871   */\n      pop\n        /* \"#utility.yul\":9938:9940   */\n      0x20\n        /* \"#utility.yul\":9927:9936   */\n      dup4\n        /* \"#utility.yul\":9923:9941   */\n      add\n        /* \"#utility.yul\":9910:9942   */\n      calldataload\n        /* \"#utility.yul\":9969:9987   */\n      0xffffffffffffffff\n        /* \"#utility.yul\":9961:9967   */\n      dup2\n        /* \"#utility.yul\":9958:9988   */\n      gt\n        /* \"#utility.yul\":9955:10072   */\n      iszero\n      tag_524\n      jumpi\n        /* \"#utility.yul\":9991:10070   */\n      tag_525\n      tag_318\n      jump\t// in\n    tag_525:\n        /* \"#utility.yul\":9955:10072   */\n    tag_524:\n        /* \"#utility.yul\":10096:10158   */\n      tag_526\n        /* \"#utility.yul\":10150:10157   */\n      dup6\n        /* \"#utility.yul\":10141:10147   */\n      dup3\n        /* \"#utility.yul\":10130:10139   */\n      dup7\n        /* \"#utility.yul\":10126:10148   */\n      add\n        /* \"#utility.yul\":10096:10158   */\n      tag_351\n      jump\t// in\n    tag_526:\n        /* \"#utility.yul\":10086:10158   */\n      swap2\n      pop\n        /* \"#utility.yul\":9881:10168   */\n      pop\n        /* \"#utility.yul\":9523:10175   */\n      swap3\n      pop\n      swap3\n      swap1\n      pop\n      jump\t// out\n        /* \"#utility.yul\":10181:10271   */\n    tag_352:\n        /* \"#utility.yul\":10215:10222   */\n      0x00\n        /* \"#utility.yul\":10258:10263   */\n      dup2\n        /* \"#utility.yul\":10251:10264   */\n      iszero\n        /* \"#utility.yul\":10244:10265   */\n      iszero\n        /* \"#utility.yul\":10233:10265   */\n      swap1\n      pop\n        /* \"#utility.yul\":10181:10271   */\n      swap2\n      swap1\n      pop\n      jump\t// out\n        /* \"#utility.yul\":10277:10386   */\n    tag_353:\n        /* \"#utility.yul\":10358:10379   */\n      tag_529\n        /* \"#utility.yul\":10373:10378   */\n      dup2\n        /* \"#utility.yul\":10358:10379   */\n      tag_352\n      jump\t// in\n    tag_529:\n        /* \"#utility.yul\":10353:10356   */\n      dup3\n        /* \"#utility.yul\":10346:10380   */\n      mstore\n        /* \"#utility.yul\":10277:10386   */\n      pop\n      pop\n      jump\t// out\n        /* \"#utility.yul\":10392:10602   */\n    tag_59:\n        /* \"#utility.yul\":10479:10483   */\n      0x00\n        /* \"#utility.yul\":10517:10519   */\n      0x20\n        /* \"#utility.yul\":10506:10515   */\n      dup3\n        /* \"#utility.yul\":10502:10520   */\n      add\n        /* \"#utility.yul\":10494:10520   */\n      swap1\n      pop\n        /* \"#utility.yul\":10530:10595   */\n      tag_531\n        /* \"#utility.yul\":10592:10593   */\n      0x00\n        /* \"#utility.yul\":10581:10590   */\n      dup4\n        /* \"#utility.yul\":10577:10594   */\n      add\n        /* \"#utility.yul\":10568:10574   */\n      dup5\n        /* \"#utility.yul\":10530:10595   */\n      tag_353\n      jump\t// in\n    tag_531:\n        /* \"#utility.yul\":10392:10602   */\n      swap3\n      swap2\n      pop\n      pop\n      jump\t// out\n        /* \"#utility.yul\":10608:10753   */\n    tag_354:\n        /* \"#utility.yul\":10677:10686   */\n      0x00\n        /* \"#utility.yul\":10710:10747   */\n      tag_533\n        /* \"#utility.yul\":10741:10746   */\n      dup3\n        /* \"#utility.yul\":10710:10747   */\n      tag_337\n      jump\t// in\n    tag_533:\n        /* \"#utility.yul\":10697:10747   */\n      swap1\n      pop\n        /* \"#utility.yul\":10608:10753   */\n      swap2\n      swap1\n      pop\n      jump\t// out\n        /* \"#utility.yul\":10759:10928   */\n    tag_355:\n        /* \"#utility.yul\":10865:10921   */\n      tag_535\n        /* \"#utility.yul\":10915:10920   */\n      dup2\n        /* \"#utility.yul\":10865:10921   */\n      tag_354\n      jump\t// in\n    tag_535:\n        /* \"#utility.yul\":10860:10863   */\n      dup3\n        /* \"#utility.yul\":10853:10922   */\n      mstore\n        /* \"#utility.yul\":10759:10928   */\n      pop\n      pop\n      jump\t// out\n        /* \"#utility.yul\":10934:11194   */\n    tag_63:\n        /* \"#utility.yul\":11046:11050   */\n      0x00\n        /* \"#utility.yul\":11084:11086   */\n      0x20\n        /* \"#utility.yul\":11073:11082   */\n      dup3\n        /* \"#utility.yul\":11069:11087   */\n      add\n        /* \"#utility.yul\":11061:11087   */\n      swap1\n      pop\n        /* \"#utility.yul\":11097:11187   */\n      tag_537\n        /* \"#utility.yul\":11184:11185   */\n      0x00\n        /* \"#utility.yul\":11173:11182   */\n      dup4\n        /* \"#utility.yul\":11169:11186   */\n      add\n        /* \"#utility.yul\":11160:11166   */\n      dup5\n        /* \"#utility.yul\":11097:11187   */\n      tag_355\n      jump\t// in\n    tag_537:\n        /* \"#utility.yul\":10934:11194   */\n      swap3\n      swap2\n      pop\n      pop\n      jump\t// out\n        /* \"#utility.yul\":11200:11352   */\n    tag_356:\n        /* \"#utility.yul\":11276:11285   */\n      0x00\n        /* \"#utility.yul\":11309:11346   */\n      tag_539\n        /* \"#utility.yul\":11340:11345   */\n      dup3\n        /* \"#utility.yul\":11309:11346   */\n      tag_337\n      jump\t// in\n    tag_539:\n        /* \"#utility.yul\":11296:11346   */\n      swap1\n      pop\n        /* \"#utility.yul\":11200:11352   */\n      swap2\n      swap1\n      pop\n      jump\t// out\n        /* \"#utility.yul\":11358:11541   */\n    tag_357:\n        /* \"#utility.yul\":11471:11534   */\n      tag_541\n        /* \"#utility.yul\":11528:11533   */\n      dup2\n        /* \"#utility.yul\":11471:11534   */\n      tag_356\n      jump\t// in\n    tag_541:\n        /* \"#utility.yul\":11466:11469   */\n      dup3\n        /* \"#utility.yul\":11459:11535   */\n      mstore\n        /* \"#utility.yul\":11358:11541   */\n      pop\n      pop\n      jump\t// out\n        /* \"#utility.yul\":11547:11821   */\n    tag_67:\n        /* \"#utility.yul\":11666:11670   */\n      0x00\n        /* \"#utility.yul\":11704:11706   */\n      0x20\n        /* \"#utility.yul\":11693:11702   */\n      dup3\n        /* \"#utility.yul\":11689:11707   */\n      add\n        /* \"#utility.yul\":11681:11707   */\n      swap1\n      pop\n        /* \"#utility.yul\":11717:11814   */\n      tag_543\n        /* \"#utility.yul\":11811:11812   */\n      0x00\n        /* \"#utility.yul\":11800:11809   */\n      dup4\n        /* \"#utility.yul\":11796:11813   */\n      add\n        /* \"#utility.yul\":11787:11793   */\n      dup5\n        /* \"#utility.yul\":11717:11814   */\n      tag_357\n      jump\t// in\n    tag_543:\n        /* \"#utility.yul\":11547:11821   */\n      swap3\n      swap2\n      pop\n      pop\n      jump\t// out\n        /* \"#utility.yul\":11827:11926   */\n    tag_358:\n        /* \"#utility.yul\":11879:11885   */\n      0x00\n        /* \"#utility.yul\":11913:11918   */\n      dup2\n        /* \"#utility.yul\":11907:11919   */\n      mload\n        /* \"#utility.yul\":11897:11919   */\n      swap1\n      pop\n        /* \"#utility.yul\":11827:11926   */\n      swap2\n      swap1\n      pop\n      jump\t// out\n        /* \"#utility.yul\":11932:12101   */\n    tag_359:\n        /* \"#utility.yul\":12016:12027   */\n      0x00\n        /* \"#utility.yul\":12050:12056   */\n      dup3\n        /* \"#utility.yul\":12045:12048   */\n      dup3\n        /* \"#utility.yul\":12038:12057   */\n      mstore\n        /* \"#utility.yul\":12090:12094   */\n      0x20\n        /* \"#utility.yul\":12085:12088   */\n      dup3\n        /* \"#utility.yul\":12081:12095   */\n      add\n        /* \"#utility.yul\":12066:12095   */\n      swap1\n      pop\n        /* \"#utility.yul\":11932:12101   */\n      swap3\n      swap2\n      pop\n      pop\n      jump\t// out\n        /* \"#utility.yul\":12107:12484   */\n    tag_360:\n        /* \"#utility.yul\":12195:12198   */\n      0x00\n        /* \"#utility.yul\":12223:12262   */\n      tag_547\n        /* \"#utility.yul\":12256:12261   */\n      dup3\n        /* \"#utility.yul\":12223:12262   */\n      tag_358\n      jump\t// in\n    tag_547:\n        /* \"#utility.yul\":12278:12349   */\n      tag_548\n        /* \"#utility.yul\":12342:12348   */\n      dup2\n        /* \"#utility.yul\":12337:12340   */\n      dup6\n        /* \"#utility.yul\":12278:12349   */\n      tag_359\n      jump\t// in\n    tag_548:\n        /* \"#utility.yul\":12271:12349   */\n      swap4\n      pop\n        /* \"#utility.yul\":12358:12423   */\n      tag_549\n        /* \"#utility.yul\":12416:12422   */\n      dup2\n        /* \"#utility.yul\":12411:12414   */\n      dup6\n        /* \"#utility.yul\":12404:12408   */\n      0x20\n        /* \"#utility.yul\":12397:12402   */\n      dup7\n        /* \"#utility.yul\":12393:12409   */\n      add\n        /* \"#utility.yul\":12358:12423   */\n      tag_331\n      jump\t// in\n    tag_549:\n        /* \"#utility.yul\":12448:12477   */\n      tag_550\n        /* \"#utility.yul\":12470:12476   */\n      dup2\n        /* \"#utility.yul\":12448:12477   */\n      tag_332\n      jump\t// in\n    tag_550:\n        /* \"#utility.yul\":12443:12446   */\n      dup5\n        /* \"#utility.yul\":12439:12478   */\n      add\n        /* \"#utility.yul\":12432:12478   */\n      swap2\n      pop\n        /* \"#utility.yul\":12199:12484   */\n      pop\n        /* \"#utility.yul\":12107:12484   */\n      swap3\n      swap2\n      pop\n      pop\n      jump\t// out\n        /* \"#utility.yul\":12490:12803   */\n    tag_72:\n        /* \"#utility.yul\":12603:12607   */\n      0x00\n        /* \"#utility.yul\":12641:12643   */\n      0x20\n        /* \"#utility.yul\":12630:12639   */\n      dup3\n        /* \"#utility.yul\":12626:12644   */\n      add\n        /* \"#utility.yul\":12618:12644   */\n      swap1\n      pop\n        /* \"#utility.yul\":12690:12699   */\n      dup2\n        /* \"#utility.yul\":12684:12688   */\n      dup2\n        /* \"#utility.yul\":12680:12700   */\n      sub\n        /* \"#utility.yul\":12676:12677   */\n      0x00\n        /* \"#utility.yul\":12665:12674   */\n      dup4\n        /* \"#utility.yul\":12661:12678   */\n      add\n        /* \"#utility.yul\":12654:12701   */\n      mstore\n        /* \"#utility.yul\":12718:12796   */\n      tag_552\n        /* \"#utility.yul\":12791:12795   */\n      dup2\n        /* \"#utility.yul\":12782:12788   */\n      dup5\n        /* \"#utility.yul\":12718:12796   */\n      tag_360\n      jump\t// in\n    tag_552:\n        /* \"#utility.yul\":12710:12796   */\n      swap1\n      pop\n        /* \"#utility.yul\":12490:12803   */\n      swap3\n      swap2\n      pop\n      pop\n      jump\t// out\n        /* \"#utility.yul\":12809:12953   */\n    tag_361:\n        /* \"#utility.yul\":12877:12886   */\n      0x00\n        /* \"#utility.yul\":12910:12947   */\n      tag_554\n        /* \"#utility.yul\":12941:12946   */\n      dup3\n        /* \"#utility.yul\":12910:12947   */\n      tag_337\n      jump\t// in\n    tag_554:\n        /* \"#utility.yul\":12897:12947   */\n      swap1\n      pop\n        /* \"#utility.yul\":12809:12953   */\n      swap2\n      swap1\n      pop\n      jump\t// out\n        /* \"#utility.yul\":12959:13126   */\n    tag_362:\n        /* \"#utility.yul\":13064:13119   */\n      tag_556\n        /* \"#utility.yul\":13113:13118   */\n      dup2\n        /* \"#utility.yul\":13064:13119   */\n      tag_361\n      jump\t// in\n    tag_556:\n        /* \"#utility.yul\":13059:13062   */\n      dup3\n        /* \"#utility.yul\":13052:13120   */\n      mstore\n        /* \"#utility.yul\":12959:13126   */\n      pop\n      pop\n      jump\t// out\n        /* \"#utility.yul\":13132:13390   */\n    tag_79:\n        /* \"#utility.yul\":13243:13247   */\n      0x00\n        /* \"#utility.yul\":13281:13283   */\n      0x20\n        /* \"#utility.yul\":13270:13279   */\n      dup3\n        /* \"#utility.yul\":13266:13284   */\n      add\n        /* \"#utility.yul\":13258:13284   */\n      swap1\n      pop\n        /* \"#utility.yul\":13294:13383   */\n      tag_558\n        /* \"#utility.yul\":13380:13381   */\n      0x00\n        /* \"#utility.yul\":13369:13378   */\n      dup4\n        /* \"#utility.yul\":13365:13382   */\n      add\n        /* \"#utility.yul\":13356:13362   */\n      dup5\n        /* \"#utility.yul\":13294:13383   */\n      tag_362\n      jump\t// in\n    tag_558:\n        /* \"#utility.yul\":13132:13390   */\n      swap3\n      swap2\n      pop\n      pop\n      jump\t// out\n        /* \"#utility.yul\":13396:13518   */\n    tag_363:\n        /* \"#utility.yul\":13469:13493   */\n      tag_560\n        /* \"#utility.yul\":13487:13492   */\n      dup2\n        /* \"#utility.yul\":13469:13493   */\n      tag_340\n      jump\t// in\n    tag_560:\n        /* \"#utility.yul\":13462:13467   */\n      dup2\n        /* \"#utility.yul\":13459:13494   */\n      eq\n        /* \"#utility.yul\":13449:13512   */\n      tag_561\n      jumpi\n        /* \"#utility.yul\":13508:13509   */\n      0x00\n        /* \"#utility.yul\":13505:13506   */\n      0x00\n        /* \"#utility.yul\":13498:13510   */\n      revert\n        /* \"#utility.yul\":13449:13512   */\n    tag_561:\n        /* \"#utility.yul\":13396:13518   */\n      pop\n      jump\t// out\n        /* \"#utility.yul\":13524:13663   */\n    tag_364:\n        /* \"#utility.yul\":13570:13575   */\n      0x00\n        /* \"#utility.yul\":13608:13614   */\n      dup2\n        /* \"#utility.yul\":13595:13615   */\n      calldataload\n        /* \"#utility.yul\":13586:13615   */\n      swap1\n      pop\n        /* \"#utility.yul\":13624:13657   */\n      tag_563\n        /* \"#utility.yul\":13651:13656   */\n      dup2\n        /* \"#utility.yul\":13624:13657   */\n      tag_363\n      jump\t// in\n    tag_563:\n        /* \"#utility.yul\":13524:13663   */\n      swap3\n      swap2\n      pop\n      pop\n      jump\t// out\n        /* \"#utility.yul\":13669:13998   */\n    tag_82:\n        /* \"#utility.yul\":13728:13734   */\n      0x00\n        /* \"#utility.yul\":13777:13779   */\n      0x20\n        /* \"#utility.yul\":13765:13774   */\n      dup3\n        /* \"#utility.yul\":13756:13763   */\n      dup5\n        /* \"#utility.yul\":13752:13775   */\n      sub\n        /* \"#utility.yul\":13748:13780   */\n      slt\n        /* \"#utility.yul\":13745:13864   */\n      iszero\n      tag_565\n      jumpi\n        /* \"#utility.yul\":13783:13862   */\n      tag_566\n      tag_317\n      jump\t// in\n    tag_566:\n        /* \"#utility.yul\":13745:13864   */\n    tag_565:\n        /* \"#utility.yul\":13903:13904   */\n      0x00\n        /* \"#utility.yul\":13928:13981   */\n      tag_567\n        /* \"#utility.yul\":13973:13980   */\n      dup5\n        /* \"#utility.yul\":13964:13970   */\n      dup3\n        /* \"#utility.yul\":13953:13962   */\n      dup6\n        /* \"#utility.yul\":13949:13971   */\n      add\n        /* \"#utility.yul\":13928:13981   */\n      tag_364\n      jump\t// in\n    tag_567:\n        /* \"#utility.yul\":13918:13981   */\n      swap2\n      pop\n        /* \"#utility.yul\":13874:13991   */\n      pop\n        /* \"#utility.yul\":13669:13998   */\n      swap3\n      swap2\n      pop\n      pop\n      jump\t// out\n        /* \"#utility.yul\":14004:14154   */\n    tag_365:\n        /* \"#utility.yul\":14078:14087   */\n      0x00\n        /* \"#utility.yul\":14111:14148   */\n      tag_569\n        /* \"#utility.yul\":14142:14147   */\n      dup3\n        /* \"#utility.yul\":14111:14148   */\n      tag_337\n      jump\t// in\n    tag_569:\n        /* \"#utility.yul\":14098:14148   */\n      swap1\n      pop\n        /* \"#utility.yul\":14004:14154   */\n      swap2\n      swap1\n      pop\n      jump\t// out\n        /* \"#utility.yul\":14160:14339   */\n    tag_366:\n        /* \"#utility.yul\":14271:14332   */\n      tag_571\n        /* \"#utility.yul\":14326:14331   */\n      dup2\n        /* \"#utility.yul\":14271:14332   */\n      tag_365\n      jump\t// in\n    tag_571:\n        /* \"#utility.yul\":14266:14269   */\n      dup3\n        /* \"#utility.yul\":14259:14333   */\n      mstore\n        /* \"#utility.yul\":14160:14339   */\n      pop\n      pop\n      jump\t// out\n        /* \"#utility.yul\":14345:14615   */\n    tag_87:\n        /* \"#utility.yul\":14462:14466   */\n      0x00\n        /* \"#utility.yul\":14500:14502   */\n      0x20\n        /* \"#utility.yul\":14489:14498   */\n      dup3\n        /* \"#utility.yul\":14485:14503   */\n      add\n        /* \"#utility.yul\":14477:14503   */\n      swap1\n      pop\n        /* \"#utility.yul\":14513:14608   */\n      tag_573\n        /* \"#utility.yul\":14605:14606   */\n      0x00\n        /* \"#utility.yul\":14594:14603   */\n      dup4\n        /* \"#utility.yul\":14590:14607   */\n      add\n        /* \"#utility.yul\":14581:14587   */\n      dup5\n        /* \"#utility.yul\":14513:14608   */\n      tag_366\n      jump\t// in\n    tag_573:\n        /* \"#utility.yul\":14345:14615   */\n      swap3\n      swap2\n      pop\n      pop\n      jump\t// out\n        /* \"#utility.yul\":14621:14950   */\n    tag_90:\n        /* \"#utility.yul\":14680:14686   */\n      0x00\n        /* \"#utility.yul\":14729:14731   */\n      0x20\n        /* \"#utility.yul\":14717:14726   */\n      dup3\n        /* \"#utility.yul\":14708:14715   */\n      dup5\n        /* \"#utility.yul\":14704:14727   */\n      sub\n        /* \"#utility.yul\":14700:14732   */\n      slt\n        /* \"#utility.yul\":14697:14816   */\n      iszero\n      tag_575\n      jumpi\n        /* \"#utility.yul\":14735:14814   */\n      tag_576\n      tag_317\n      jump\t// in\n    tag_576:\n        /* \"#utility.yul\":14697:14816   */\n    tag_575:\n        /* \"#utility.yul\":14855:14856   */\n      0x00\n        /* \"#utility.yul\":14880:14933   */\n      tag_577\n        /* \"#utility.yul\":14925:14932   */\n      dup5\n        /* \"#utility.yul\":14916:14922   */\n      dup3\n        /* \"#utility.yul\":14905:14914   */\n      dup6\n        /* \"#utility.yul\":14901:14923   */\n      add\n        /* \"#utility.yul\":14880:14933   */\n      tag_344\n      jump\t// in\n    tag_577:\n        /* \"#utility.yul\":14870:14933   */\n      swap2\n      pop\n        /* \"#utility.yul\":14826:14943   */\n      pop\n        /* \"#utility.yul\":14621:14950   */\n      swap3\n      swap2\n      pop\n      pop\n      jump\t// out\n        /* \"#utility.yul\":14956:15074   */\n    tag_367:\n        /* \"#utility.yul\":15043:15067   */\n      tag_579\n        /* \"#utility.yul\":15061:15066   */\n      dup2\n        /* \"#utility.yul\":15043:15067   */\n      tag_342\n      jump\t// in\n    tag_579:\n        /* \"#utility.yul\":15038:15041   */\n      dup3\n        /* \"#utility.yul\":15031:15068   */\n      mstore\n        /* \"#utility.yul\":14956:15074   */\n      pop\n      pop\n      jump\t// out\n        /* \"#utility.yul\":15080:15302   */\n    tag_93:\n        /* \"#utility.yul\":15173:15177   */\n      0x00\n        /* \"#utility.yul\":15211:15213   */\n      0x20\n        /* \"#utility.yul\":15200:15209   */\n      dup3\n        /* \"#utility.yul\":15196:15214   */\n      add\n        /* \"#utility.yul\":15188:15214   */\n      swap1\n      pop\n        /* \"#utility.yul\":15224:15295   */\n      tag_581\n        /* \"#utility.yul\":15292:15293   */\n      0x00\n        /* \"#utility.yul\":15281:15290   */\n      dup4\n        /* \"#utility.yul\":15277:15294   */\n      add\n        /* \"#utility.yul\":15268:15274   */\n      dup5\n        /* \"#utility.yul\":15224:15295   */\n      tag_367\n      jump\t// in\n    tag_581:\n        /* \"#utility.yul\":15080:15302   */\n      swap3\n      swap2\n      pop\n      pop\n      jump\t// out\n        /* \"#utility.yul\":15308:15407   */\n    tag_368:\n        /* \"#utility.yul\":15393:15399   */\n      dup3\n        /* \"#utility.yul\":15388:15391   */\n      dup2\n        /* \"#utility.yul\":15383:15386   */\n      dup4\n        /* \"#utility.yul\":15370:15400   */\n      calldatacopy\n        /* \"#utility.yul\":15308:15407   */\n      pop\n      pop\n      pop\n      jump\t// out\n        /* \"#utility.yul\":15445:15617   */\n    tag_369:\n        /* \"#utility.yul\":15568:15611   */\n      tag_584\n        /* \"#utility.yul\":15604:15610   */\n      0x0100\n        /* \"#utility.yul\":15599:15602   */\n      dup4\n        /* \"#utility.yul\":15592:15597   */\n      dup4\n        /* \"#utility.yul\":15568:15611   */\n      tag_368\n      jump\t// in\n    tag_584:\n        /* \"#utility.yul\":15445:15617   */\n      pop\n      pop\n      jump\t// out\n        /* \"#utility.yul\":15655:15825   */\n    tag_370:\n        /* \"#utility.yul\":15778:15819   */\n      tag_586\n        /* \"#utility.yul\":15814:15818   */\n      0xc0\n        /* \"#utility.yul\":15809:15812   */\n      dup4\n        /* \"#utility.yul\":15802:15807   */\n      dup4\n        /* \"#utility.yul\":15778:15819   */\n      tag_368\n      jump\t// in\n    tag_586:\n        /* \"#utility.yul\":15655:15825   */\n      pop\n      pop\n      jump\t// out\n        /* \"#utility.yul\":15831:16357   */\n    tag_96:\n        /* \"#utility.yul\":16048:16052   */\n      0x00\n        /* \"#utility.yul\":16086:16089   */\n      0x01c0\n        /* \"#utility.yul\":16075:16084   */\n      dup3\n        /* \"#utility.yul\":16071:16090   */\n      add\n        /* \"#utility.yul\":16063:16090   */\n      swap1\n      pop\n        /* \"#utility.yul\":16100:16219   */\n      tag_588\n        /* \"#utility.yul\":16216:16217   */\n      0x00\n        /* \"#utility.yul\":16205:16214   */\n      dup4\n        /* \"#utility.yul\":16201:16218   */\n      add\n        /* \"#utility.yul\":16192:16198   */\n      dup6\n        /* \"#utility.yul\":16100:16219   */\n      tag_369\n      jump\t// in\n    tag_588:\n        /* \"#utility.yul\":16229:16350   */\n      tag_589\n        /* \"#utility.yul\":16345:16348   */\n      0x0100\n        /* \"#utility.yul\":16334:16343   */\n      dup4\n        /* \"#utility.yul\":16330:16349   */\n      add\n        /* \"#utility.yul\":16321:16327   */\n      dup5\n        /* \"#utility.yul\":16229:16350   */\n      tag_370\n      jump\t// in\n    tag_589:\n        /* \"#utility.yul\":15831:16357   */\n      swap4\n      swap3\n      pop\n      pop\n      pop\n      jump\t// out\n        /* \"#utility.yul\":16363:16543   */\n    tag_102:\n        /* \"#utility.yul\":16411:16488   */\n      0x4e487b7100000000000000000000000000000000000000000000000000000000\n        /* \"#utility.yul\":16408:16409   */\n      0x00\n        /* \"#utility.yul\":16401:16489   */\n      mstore\n        /* \"#utility.yul\":16508:16512   */\n      0x32\n        /* \"#utility.yul\":16505:16506   */\n      0x04\n        /* \"#utility.yul\":16498:16513   */\n      mstore\n        /* \"#utility.yul\":16532:16536   */\n      0x24\n        /* \"#utility.yul\":16529:16530   */\n      0x00\n        /* \"#utility.yul\":16522:16537   */\n      revert\n        /* \"#utility.yul\":16549:16722   */\n    tag_371:\n        /* \"#utility.yul\":16689:16714   */\n      0x57726f6e672064657374696e6174696f6e20636861696e000000000000000000\n        /* \"#utility.yul\":16685:16686   */\n      0x00\n        /* \"#utility.yul\":16677:16683   */\n      dup3\n        /* \"#utility.yul\":16673:16687   */\n      add\n        /* \"#utility.yul\":16666:16715   */\n      mstore\n        /* \"#utility.yul\":16549:16722   */\n      pop\n      jump\t// out\n        /* \"#utility.yul\":16728:17094   */\n    tag_372:\n        /* \"#utility.yul\":16870:16873   */\n      0x00\n        /* \"#utility.yul\":16891:16958   */\n      tag_593\n        /* \"#utility.yul\":16955:16957   */\n      0x17\n        /* \"#utility.yul\":16950:16953   */\n      dup4\n        /* \"#utility.yul\":16891:16958   */\n      tag_359\n      jump\t// in\n    tag_593:\n        /* \"#utility.yul\":16884:16958   */\n      swap2\n      pop\n        /* \"#utility.yul\":16967:17060   */\n      tag_594\n        /* \"#utility.yul\":17056:17059   */\n      dup3\n        /* \"#utility.yul\":16967:17060   */\n      tag_371\n      jump\t// in\n    tag_594:\n        /* \"#utility.yul\":17085:17087   */\n      0x20\n        /* \"#utility.yul\":17080:17083   */\n      dup3\n        /* \"#utility.yul\":17076:17088   */\n      add\n        /* \"#utility.yul\":17069:17088   */\n      swap1\n      pop\n        /* \"#utility.yul\":16728:17094   */\n      swap2\n      swap1\n      pop\n      jump\t// out\n        /* \"#utility.yul\":17100:17519   */\n    tag_105:\n        /* \"#utility.yul\":17266:17270   */\n      0x00\n        /* \"#utility.yul\":17304:17306   */\n      0x20\n        /* \"#utility.yul\":17293:17302   */\n      dup3\n        /* \"#utility.yul\":17289:17307   */\n      add\n        /* \"#utility.yul\":17281:17307   */\n      swap1\n      pop\n        /* \"#utility.yul\":17353:17362   */\n      dup2\n        /* \"#utility.yul\":17347:17351   */\n      dup2\n        /* \"#utility.yul\":17343:17363   */\n      sub\n        /* \"#utility.yul\":17339:17340   */\n      0x00\n        /* \"#utility.yul\":17328:17337   */\n      dup4\n        /* \"#utility.yul\":17324:17341   */\n      add\n        /* \"#utility.yul\":17317:17364   */\n      mstore\n        /* \"#utility.yul\":17381:17512   */\n      tag_596\n        /* \"#utility.yul\":17507:17511   */\n      dup2\n        /* \"#utility.yul\":17381:17512   */\n      tag_372\n      jump\t// in\n    tag_596:\n        /* \"#utility.yul\":17373:17512   */\n      swap1\n      pop\n        /* \"#utility.yul\":17100:17519   */\n      swap2\n      swap1\n      pop\n      jump\t// out\n        /* \"#utility.yul\":17525:17697   */\n    tag_373:\n        /* \"#utility.yul\":17665:17689   */\n      0x5265706c61792061747461636b20646574656374656400000000000000000000\n        /* \"#utility.yul\":17661:17662   */\n      0x00\n        /* \"#utility.yul\":17653:17659   */\n      dup3\n        /* \"#utility.yul\":17649:17663   */\n      add\n        /* \"#utility.yul\":17642:17690   */\n      mstore\n        /* \"#utility.yul\":17525:17697   */\n      pop\n      jump\t// out\n        /* \"#utility.yul\":17703:18069   */\n    tag_374:\n        /* \"#utility.yul\":17845:17848   */\n      0x00\n        /* \"#utility.yul\":17866:17933   */\n      tag_599\n        /* \"#utility.yul\":17930:17932   */\n      0x16\n        /* \"#utility.yul\":17925:17928   */\n      dup4\n        /* \"#utility.yul\":17866:17933   */\n      tag_359\n      jump\t// in\n    tag_599:\n        /* \"#utility.yul\":17859:17933   */\n      swap2\n      pop\n        /* \"#utility.yul\":17942:18035   */\n      tag_600\n        /* \"#utility.yul\":18031:18034   */\n      dup3\n        /* \"#utility.yul\":17942:18035   */\n      tag_373\n      jump\t// in\n    tag_600:\n        /* \"#utility.yul\":18060:18062   */\n      0x20\n        /* \"#utility.yul\":18055:18058   */\n      dup3\n        /* \"#utility.yul\":18051:18063   */\n      add\n        /* \"#utility.yul\":18044:18063   */\n      swap1\n      pop\n        /* \"#utility.yul\":17703:18069   */\n      swap2\n      swap1\n      pop\n      jump\t// out\n        /* \"#utility.yul\":18075:18494   */\n    tag_112:\n        /* \"#utility.yul\":18241:18245   */\n      0x00\n        /* \"#utility.yul\":18279:18281   */\n      0x20\n        /* \"#utility.yul\":18268:18277   */\n      dup3\n        /* \"#utility.yul\":18264:18282   */\n      add\n        /* \"#utility.yul\":18256:18282   */\n      swap1\n      pop\n        /* \"#utility.yul\":18328:18337   */\n      dup2\n        /* \"#utility.yul\":18322:18326   */\n      dup2\n        /* \"#utility.yul\":18318:18338   */\n      sub\n        /* \"#utility.yul\":18314:18315   */\n      0x00\n        /* \"#utility.yul\":18303:18312   */\n      dup4\n        /* \"#utility.yul\":18299:18316   */\n      add\n        /* \"#utility.yul\":18292:18339   */\n      mstore\n        /* \"#utility.yul\":18356:18487   */\n      tag_602\n        /* \"#utility.yul\":18482:18486   */\n      dup2\n        /* \"#utility.yul\":18356:18487   */\n      tag_374\n      jump\t// in\n    tag_602:\n        /* \"#utility.yul\":18348:18487   */\n      swap1\n      pop\n        /* \"#utility.yul\":18075:18494   */\n      swap2\n      swap1\n      pop\n      jump\t// out\n        /* \"#utility.yul\":18500:18579   */\n    tag_375:\n        /* \"#utility.yul\":18539:18546   */\n      0x00\n        /* \"#utility.yul\":18568:18573   */\n      dup2\n        /* \"#utility.yul\":18557:18573   */\n      swap1\n      pop\n        /* \"#utility.yul\":18500:18579   */\n      swap2\n      swap1\n      pop\n      jump\t// out\n        /* \"#utility.yul\":18585:18742   */\n    tag_376:\n        /* \"#utility.yul\":18690:18735   */\n      tag_605\n        /* \"#utility.yul\":18710:18734   */\n      tag_606\n        /* \"#utility.yul\":18728:18733   */\n      dup3\n        /* \"#utility.yul\":18710:18734   */\n      tag_326\n      jump\t// in\n    tag_606:\n        /* \"#utility.yul\":18690:18735   */\n      tag_375\n      jump\t// in\n    tag_605:\n        /* \"#utility.yul\":18685:18688   */\n      dup3\n        /* \"#utility.yul\":18678:18736   */\n      mstore\n        /* \"#utility.yul\":18585:18742   */\n      pop\n      pop\n      jump\t// out\n        /* \"#utility.yul\":18748:19004   */\n    tag_122:\n        /* \"#utility.yul\":18860:18863   */\n      0x00\n        /* \"#utility.yul\":18875:18950   */\n      tag_608\n        /* \"#utility.yul\":18946:18949   */\n      dup3\n        /* \"#utility.yul\":18937:18943   */\n      dup5\n        /* \"#utility.yul\":18875:18950   */\n      tag_376\n      jump\t// in\n    tag_608:\n        /* \"#utility.yul\":18975:18977   */\n      0x20\n        /* \"#utility.yul\":18970:18973   */\n      dup3\n        /* \"#utility.yul\":18966:18978   */\n      add\n        /* \"#utility.yul\":18959:18978   */\n      swap2\n      pop\n        /* \"#utility.yul\":18995:18998   */\n      dup2\n        /* \"#utility.yul\":18988:18998   */\n      swap1\n      pop\n        /* \"#utility.yul\":18748:19004   */\n      swap3\n      swap2\n      pop\n      pop\n      jump\t// out\n        /* \"#utility.yul\":19010:19184   */\n    tag_377:\n        /* \"#utility.yul\":19150:19176   */\n      0x496e76616c6964207369676e6174757265206c656e6774680000000000000000\n        /* \"#utility.yul\":19146:19147   */\n      0x00\n        /* \"#utility.yul\":19138:19144   */\n      dup3\n        /* \"#utility.yul\":19134:19148   */\n      add\n        /* \"#utility.yul\":19127:19177   */\n      mstore\n        /* \"#utility.yul\":19010:19184   */\n      pop\n      jump\t// out\n        /* \"#utility.yul\":19190:19556   */\n    tag_378:\n        /* \"#utility.yul\":19332:19335   */\n      0x00\n        /* \"#utility.yul\":19353:19420   */\n      tag_611\n        /* \"#utility.yul\":19417:19419   */\n      0x18\n        /* \"#utility.yul\":19412:19415   */\n      dup4\n        /* \"#utility.yul\":19353:19420   */\n      tag_359\n      jump\t// in\n    tag_611:\n        /* \"#utility.yul\":19346:19420   */\n      swap2\n      pop\n        /* \"#utility.yul\":19429:19522   */\n      tag_612\n        /* \"#utility.yul\":19518:19521   */\n      dup3\n        /* \"#utility.yul\":19429:19522   */\n      tag_377\n      jump\t// in\n    tag_612:\n        /* \"#utility.yul\":19547:19549   */\n      0x20\n        /* \"#utility.yul\":19542:19545   */\n      dup3\n        /* \"#utility.yul\":19538:19550   */\n      add\n        /* \"#utility.yul\":19531:19550   */\n      swap1\n      pop\n        /* \"#utility.yul\":19190:19556   */\n      swap2\n      swap1\n      pop\n      jump\t// out\n        /* \"#utility.yul\":19562:19981   */\n    tag_134:\n        /* \"#utility.yul\":19728:19732   */\n      0x00\n        /* \"#utility.yul\":19766:19768   */\n      0x20\n        /* \"#utility.yul\":19755:19764   */\n      dup3\n        /* \"#utility.yul\":19751:19769   */\n      add\n        /* \"#utility.yul\":19743:19769   */\n      swap1\n      pop\n        /* \"#utility.yul\":19815:19824   */\n      dup2\n        /* \"#utility.yul\":19809:19813   */\n      dup2\n        /* \"#utility.yul\":19805:19825   */\n      sub\n        /* \"#utility.yul\":19801:19802   */\n      0x00\n        /* \"#utility.yul\":19790:19799   */\n      dup4\n        /* \"#utility.yul\":19786:19803   */\n      add\n        /* \"#utility.yul\":19779:19826   */\n      mstore\n        /* \"#utility.yul\":19843:19974   */\n      tag_614\n        /* \"#utility.yul\":19969:19973   */\n      dup2\n        /* \"#utility.yul\":19843:19974   */\n      tag_378\n      jump\t// in\n    tag_614:\n        /* \"#utility.yul\":19835:19974   */\n      swap1\n      pop\n        /* \"#utility.yul\":19562:19981   */\n      swap2\n      swap1\n      pop\n      jump\t// out\n        /* \"#utility.yul\":19987:20073   */\n    tag_379:\n        /* \"#utility.yul\":20022:20029   */\n      0x00\n        /* \"#utility.yul\":20062:20066   */\n      0xff\n        /* \"#utility.yul\":20055:20060   */\n      dup3\n        /* \"#utility.yul\":20051:20067   */\n      and\n        /* \"#utility.yul\":20040:20067   */\n      swap1\n      pop\n        /* \"#utility.yul\":19987:20073   */\n      swap2\n      swap1\n      pop\n      jump\t// out\n        /* \"#utility.yul\":20079:20191   */\n    tag_380:\n        /* \"#utility.yul\":20162:20184   */\n      tag_617\n        /* \"#utility.yul\":20178:20183   */\n      dup2\n        /* \"#utility.yul\":20162:20184   */\n      tag_379\n      jump\t// in\n    tag_617:\n        /* \"#utility.yul\":20157:20160   */\n      dup3\n        /* \"#utility.yul\":20150:20185   */\n      mstore\n        /* \"#utility.yul\":20079:20191   */\n      pop\n      pop\n      jump\t// out\n        /* \"#utility.yul\":20197:20742   */\n    tag_136:\n        /* \"#utility.yul\":20370:20374   */\n      0x00\n        /* \"#utility.yul\":20408:20411   */\n      0x80\n        /* \"#utility.yul\":20397:20406   */\n      dup3\n        /* \"#utility.yul\":20393:20412   */\n      add\n        /* \"#utility.yul\":20385:20412   */\n      swap1\n      pop\n        /* \"#utility.yul\":20422:20493   */\n      tag_619\n        /* \"#utility.yul\":20490:20491   */\n      0x00\n        /* \"#utility.yul\":20479:20488   */\n      dup4\n        /* \"#utility.yul\":20475:20492   */\n      add\n        /* \"#utility.yul\":20466:20472   */\n      dup8\n        /* \"#utility.yul\":20422:20493   */\n      tag_367\n      jump\t// in\n    tag_619:\n        /* \"#utility.yul\":20503:20571   */\n      tag_620\n        /* \"#utility.yul\":20567:20569   */\n      0x20\n        /* \"#utility.yul\":20556:20565   */\n      dup4\n        /* \"#utility.yul\":20552:20570   */\n      add\n        /* \"#utility.yul\":20543:20549   */\n      dup7\n        /* \"#utility.yul\":20503:20571   */\n      tag_380\n      jump\t// in\n    tag_620:\n        /* \"#utility.yul\":20581:20653   */\n      tag_621\n        /* \"#utility.yul\":20649:20651   */\n      0x40\n        /* \"#utility.yul\":20638:20647   */\n      dup4\n        /* \"#utility.yul\":20634:20652   */\n      add\n        /* \"#utility.yul\":20625:20631   */\n      dup6\n        /* \"#utility.yul\":20581:20653   */\n      tag_367\n      jump\t// in\n    tag_621:\n        /* \"#utility.yul\":20663:20735   */\n      tag_622\n        /* \"#utility.yul\":20731:20733   */\n      0x60\n        /* \"#utility.yul\":20720:20729   */\n      dup4\n        /* \"#utility.yul\":20716:20734   */\n      add\n        /* \"#utility.yul\":20707:20713   */\n      dup5\n        /* \"#utility.yul\":20663:20735   */\n      tag_367\n      jump\t// in\n    tag_622:\n        /* \"#utility.yul\":20197:20742   */\n      swap6\n      swap5\n      pop\n      pop\n      pop\n      pop\n      pop\n      jump\t// out\n        /* \"#utility.yul\":20748:21459   */\n    tag_163:\n        /* \"#utility.yul\":20955:20959   */\n      0x00\n        /* \"#utility.yul\":20993:20995   */\n      0x60\n        /* \"#utility.yul\":20982:20991   */\n      dup3\n        /* \"#utility.yul\":20978:20996   */\n      add\n        /* \"#utility.yul\":20970:20996   */\n      swap1\n      pop\n        /* \"#utility.yul\":21042:21051   */\n      dup2\n        /* \"#utility.yul\":21036:21040   */\n      dup2\n        /* \"#utility.yul\":21032:21052   */\n      sub\n        /* \"#utility.yul\":21028:21029   */\n      0x00\n        /* \"#utility.yul\":21017:21026   */\n      dup4\n        /* \"#utility.yul\":21013:21030   */\n      add\n        /* \"#utility.yul\":21006:21053   */\n      mstore\n        /* \"#utility.yul\":21070:21148   */\n      tag_624\n        /* \"#utility.yul\":21143:21147   */\n      dup2\n        /* \"#utility.yul\":21134:21140   */\n      dup7\n        /* \"#utility.yul\":21070:21148   */\n      tag_360\n      jump\t// in\n    tag_624:\n        /* \"#utility.yul\":21062:21148   */\n      swap1\n      pop\n        /* \"#utility.yul\":21195:21204   */\n      dup2\n        /* \"#utility.yul\":21189:21193   */\n      dup2\n        /* \"#utility.yul\":21185:21205   */\n      sub\n        /* \"#utility.yul\":21180:21182   */\n      0x20\n        /* \"#utility.yul\":21169:21178   */\n      dup4\n        /* \"#utility.yul\":21165:21183   */\n      add\n        /* \"#utility.yul\":21158:21206   */\n      mstore\n        /* \"#utility.yul\":21223:21301   */\n      tag_625\n        /* \"#utility.yul\":21296:21300   */\n      dup2\n        /* \"#utility.yul\":21287:21293   */\n      dup6\n        /* \"#utility.yul\":21223:21301   */\n      tag_360\n      jump\t// in\n    tag_625:\n        /* \"#utility.yul\":21215:21301   */\n      swap1\n      pop\n        /* \"#utility.yul\":21348:21357   */\n      dup2\n        /* \"#utility.yul\":21342:21346   */\n      dup2\n        /* \"#utility.yul\":21338:21358   */\n      sub\n        /* \"#utility.yul\":21333:21335   */\n      0x40\n        /* \"#utility.yul\":21322:21331   */\n      dup4\n        /* \"#utility.yul\":21318:21336   */\n      add\n        /* \"#utility.yul\":21311:21359   */\n      mstore\n        /* \"#utility.yul\":21376:21452   */\n      tag_626\n        /* \"#utility.yul\":21447:21451   */\n      dup2\n        /* \"#utility.yul\":21438:21444   */\n      dup5\n        /* \"#utility.yul\":21376:21452   */\n      tag_333\n      jump\t// in\n    tag_626:\n        /* \"#utility.yul\":21368:21452   */\n      swap1\n      pop\n        /* \"#utility.yul\":20748:21459   */\n      swap5\n      swap4\n      pop\n      pop\n      pop\n      pop\n      jump\t// out\n        /* \"#utility.yul\":21465:21645   */\n    tag_381:\n        /* \"#utility.yul\":21513:21590   */\n      0x4e487b7100000000000000000000000000000000000000000000000000000000\n        /* \"#utility.yul\":21510:21511   */\n      0x00\n        /* \"#utility.yul\":21503:21591   */\n      mstore\n        /* \"#utility.yul\":21610:21614   */\n      0x11\n        /* \"#utility.yul\":21607:21608   */\n      0x04\n        /* \"#utility.yul\":21600:21615   */\n      mstore\n        /* \"#utility.yul\":21634:21638   */\n      0x24\n        /* \"#utility.yul\":21631:21632   */\n      0x00\n        /* \"#utility.yul\":21624:21639   */\n      revert\n        /* \"#utility.yul\":21651:21818   */\n    tag_175:\n        /* \"#utility.yul\":21688:21691   */\n      0x00\n        /* \"#utility.yul\":21711:21733   */\n      tag_629\n        /* \"#utility.yul\":21727:21732   */\n      dup3\n        /* \"#utility.yul\":21711:21733   */\n      tag_379\n      jump\t// in\n    tag_629:\n        /* \"#utility.yul\":21702:21733   */\n      swap2\n      pop\n        /* \"#utility.yul\":21755:21759   */\n      0xff\n        /* \"#utility.yul\":21748:21753   */\n      dup3\n        /* \"#utility.yul\":21745:21760   */\n      sub\n        /* \"#utility.yul\":21742:21783   */\n      tag_630\n      jumpi\n        /* \"#utility.yul\":21763:21781   */\n      tag_631\n      tag_381\n      jump\t// in\n    tag_631:\n        /* \"#utility.yul\":21742:21783   */\n    tag_630:\n        /* \"#utility.yul\":21810:21811   */\n      0x01\n        /* \"#utility.yul\":21803:21808   */\n      dup3\n        /* \"#utility.yul\":21799:21812   */\n      add\n        /* \"#utility.yul\":21792:21812   */\n      swap1\n      pop\n        /* \"#utility.yul\":21651:21818   */\n      swap2\n      swap1\n      pop\n      jump\t// out\n        /* \"#utility.yul\":21824:21991   */\n    tag_182:\n        /* \"#utility.yul\":21861:21864   */\n      0x00\n        /* \"#utility.yul\":21884:21906   */\n      tag_633\n        /* \"#utility.yul\":21900:21905   */\n      dup3\n        /* \"#utility.yul\":21884:21906   */\n      tag_379\n      jump\t// in\n    tag_633:\n        /* \"#utility.yul\":21875:21906   */\n      swap2\n      pop\n        /* \"#utility.yul\":21928:21932   */\n      0x00\n        /* \"#utility.yul\":21921:21926   */\n      dup3\n        /* \"#utility.yul\":21918:21933   */\n      sub\n        /* \"#utility.yul\":21915:21956   */\n      tag_634\n      jumpi\n        /* \"#utility.yul\":21936:21954   */\n      tag_635\n      tag_381\n      jump\t// in\n    tag_635:\n        /* \"#utility.yul\":21915:21956   */\n    tag_634:\n        /* \"#utility.yul\":21983:21984   */\n      0x01\n        /* \"#utility.yul\":21976:21981   */\n      dup3\n        /* \"#utility.yul\":21972:21985   */\n      sub\n        /* \"#utility.yul\":21965:21985   */\n      swap1\n      pop\n        /* \"#utility.yul\":21824:21991   */\n      swap2\n      swap1\n      pop\n      jump\t// out\n        /* \"#utility.yul\":21997:22188   */\n    tag_184:\n        /* \"#utility.yul\":22035:22039   */\n      0x00\n        /* \"#utility.yul\":22055:22073   */\n      tag_637\n        /* \"#utility.yul\":22071:22072   */\n      dup3\n        /* \"#utility.yul\":22055:22073   */\n      tag_379\n      jump\t// in\n    tag_637:\n        /* \"#utility.yul\":22050:22073   */\n      swap2\n      pop\n        /* \"#utility.yul\":22087:22105   */\n      tag_638\n        /* \"#utility.yul\":22103:22104   */\n      dup4\n        /* \"#utility.yul\":22087:22105   */\n      tag_379\n      jump\t// in\n    tag_638:\n        /* \"#utility.yul\":22082:22105   */\n      swap3\n      pop\n        /* \"#utility.yul\":22129:22130   */\n      dup3\n        /* \"#utility.yul\":22126:22127   */\n      dup3\n        /* \"#utility.yul\":22122:22131   */\n      sub\n        /* \"#utility.yul\":22114:22131   */\n      swap1\n      pop\n        /* \"#utility.yul\":22153:22157   */\n      0xff\n        /* \"#utility.yul\":22147:22151   */\n      dup2\n        /* \"#utility.yul\":22144:22158   */\n      gt\n        /* \"#utility.yul\":22141:22181   */\n      iszero\n      tag_639\n      jumpi\n        /* \"#utility.yul\":22161:22179   */\n      tag_640\n      tag_381\n      jump\t// in\n    tag_640:\n        /* \"#utility.yul\":22141:22181   */\n    tag_639:\n        /* \"#utility.yul\":21997:22188   */\n      swap3\n      swap2\n      pop\n      pop\n      jump\t// out\n        /* \"#utility.yul\":22194:22382   */\n    tag_186:\n        /* \"#utility.yul\":22232:22235   */\n      0x00\n        /* \"#utility.yul\":22251:22269   */\n      tag_642\n        /* \"#utility.yul\":22267:22268   */\n      dup3\n        /* \"#utility.yul\":22251:22269   */\n      tag_379\n      jump\t// in\n    tag_642:\n        /* \"#utility.yul\":22246:22269   */\n      swap2\n      pop\n        /* \"#utility.yul\":22283:22301   */\n      tag_643\n        /* \"#utility.yul\":22299:22300   */\n      dup4\n        /* \"#utility.yul\":22283:22301   */\n      tag_379\n      jump\t// in\n    tag_643:\n        /* \"#utility.yul\":22278:22301   */\n      swap3\n      pop\n        /* \"#utility.yul\":22324:22325   */\n      dup3\n        /* \"#utility.yul\":22321:22322   */\n      dup3\n        /* \"#utility.yul\":22317:22326   */\n      add\n        /* \"#utility.yul\":22310:22326   */\n      swap1\n      pop\n        /* \"#utility.yul\":22347:22351   */\n      0xff\n        /* \"#utility.yul\":22342:22345   */\n      dup2\n        /* \"#utility.yul\":22339:22352   */\n      gt\n        /* \"#utility.yul\":22336:22375   */\n      iszero\n      tag_644\n      jumpi\n        /* \"#utility.yul\":22355:22373   */\n      tag_645\n      tag_381\n      jump\t// in\n    tag_645:\n        /* \"#utility.yul\":22336:22375   */\n    tag_644:\n        /* \"#utility.yul\":22194:22382   */\n      swap3\n      swap2\n      pop\n      pop\n      jump\t// out\n        /* \"#utility.yul\":22388:22579   */\n    tag_195:\n        /* \"#utility.yul\":22428:22431   */\n      0x00\n        /* \"#utility.yul\":22447:22467   */\n      tag_647\n        /* \"#utility.yul\":22465:22466   */\n      dup3\n        /* \"#utility.yul\":22447:22467   */\n      tag_326\n      jump\t// in\n    tag_647:\n        /* \"#utility.yul\":22442:22467   */\n      swap2\n      pop\n        /* \"#utility.yul\":22481:22501   */\n      tag_648\n        /* \"#utility.yul\":22499:22500   */\n      dup4\n        /* \"#utility.yul\":22481:22501   */\n      tag_326\n      jump\t// in\n    tag_648:\n        /* \"#utility.yul\":22476:22501   */\n      swap3\n      pop\n        /* \"#utility.yul\":22524:22525   */\n      dup3\n        /* \"#utility.yul\":22521:22522   */\n      dup3\n        /* \"#utility.yul\":22517:22526   */\n      add\n        /* \"#utility.yul\":22510:22526   */\n      swap1\n      pop\n        /* \"#utility.yul\":22545:22548   */\n      dup1\n        /* \"#utility.yul\":22542:22543   */\n      dup3\n        /* \"#utility.yul\":22539:22549   */\n      gt\n        /* \"#utility.yul\":22536:22572   */\n      iszero\n      tag_649\n      jumpi\n        /* \"#utility.yul\":22552:22570   */\n      tag_650\n      tag_381\n      jump\t// in\n    tag_650:\n        /* \"#utility.yul\":22536:22572   */\n    tag_649:\n        /* \"#utility.yul\":22388:22579   */\n      swap3\n      swap2\n      pop\n      pop\n      jump\t// out\n        /* \"#utility.yul\":22585:22703   */\n    tag_382:\n        /* \"#utility.yul\":22672:22696   */\n      tag_652\n        /* \"#utility.yul\":22690:22695   */\n      dup2\n        /* \"#utility.yul\":22672:22696   */\n      tag_326\n      jump\t// in\n    tag_652:\n        /* \"#utility.yul\":22667:22670   */\n      dup3\n        /* \"#utility.yul\":22660:22697   */\n      mstore\n        /* \"#utility.yul\":22585:22703   */\n      pop\n      pop\n      jump\t// out\n        /* \"#utility.yul\":22709:23353   */\n    tag_216:\n        /* \"#utility.yul\":22906:22910   */\n      0x00\n        /* \"#utility.yul\":22944:22947   */\n      0x80\n        /* \"#utility.yul\":22933:22942   */\n      dup3\n        /* \"#utility.yul\":22929:22948   */\n      add\n        /* \"#utility.yul\":22921:22948   */\n      swap1\n      pop\n        /* \"#utility.yul\":22958:23029   */\n      tag_654\n        /* \"#utility.yul\":23026:23027   */\n      0x00\n        /* \"#utility.yul\":23015:23024   */\n      dup4\n        /* \"#utility.yul\":23011:23028   */\n      add\n        /* \"#utility.yul\":23002:23008   */\n      dup8\n        /* \"#utility.yul\":22958:23029   */\n      tag_341\n      jump\t// in\n    tag_654:\n        /* \"#utility.yul\":23076:23085   */\n      dup2\n        /* \"#utility.yul\":23070:23074   */\n      dup2\n        /* \"#utility.yul\":23066:23086   */\n      sub\n        /* \"#utility.yul\":23061:23063   */\n      0x20\n        /* \"#utility.yul\":23050:23059   */\n      dup4\n        /* \"#utility.yul\":23046:23064   */\n      add\n        /* \"#utility.yul\":23039:23087   */\n      mstore\n        /* \"#utility.yul\":23104:23182   */\n      tag_655\n        /* \"#utility.yul\":23177:23181   */\n      dup2\n        /* \"#utility.yul\":23168:23174   */\n      dup7\n        /* \"#utility.yul\":23104:23182   */\n      tag_360\n      jump\t// in\n    tag_655:\n        /* \"#utility.yul\":23096:23182   */\n      swap1\n      pop\n        /* \"#utility.yul\":23192:23264   */\n      tag_656\n        /* \"#utility.yul\":23260:23262   */\n      0x40\n        /* \"#utility.yul\":23249:23258   */\n      dup4\n        /* \"#utility.yul\":23245:23263   */\n      add\n        /* \"#utility.yul\":23236:23242   */\n      dup6\n        /* \"#utility.yul\":23192:23264   */\n      tag_382\n      jump\t// in\n    tag_656:\n        /* \"#utility.yul\":23274:23346   */\n      tag_657\n        /* \"#utility.yul\":23342:23344   */\n      0x60\n        /* \"#utility.yul\":23331:23340   */\n      dup4\n        /* \"#utility.yul\":23327:23345   */\n      add\n        /* \"#utility.yul\":23318:23324   */\n      dup5\n        /* \"#utility.yul\":23274:23346   */\n      tag_382\n      jump\t// in\n    tag_657:\n        /* \"#utility.yul\":22709:23353   */\n      swap6\n      swap5\n      pop\n      pop\n      pop\n      pop\n      pop\n      jump\t// out\n        /* \"#utility.yul\":23359:23507   */\n    tag_383:\n        /* \"#utility.yul\":23461:23472   */\n      0x00\n        /* \"#utility.yul\":23498:23501   */\n      dup2\n        /* \"#utility.yul\":23483:23501   */\n      swap1\n      pop\n        /* \"#utility.yul\":23359:23507   */\n      swap3\n      swap2\n      pop\n      pop\n      jump\t// out\n        /* \"#utility.yul\":23513:23727   */\n    tag_384:\n        /* \"#utility.yul\":23653:23719   */\n      0x19457468657265756d205369676e6564204d6573736167653a0a333200000000\n        /* \"#utility.yul\":23649:23650   */\n      0x00\n        /* \"#utility.yul\":23641:23647   */\n      dup3\n        /* \"#utility.yul\":23637:23651   */\n      add\n        /* \"#utility.yul\":23630:23720   */\n      mstore\n        /* \"#utility.yul\":23513:23727   */\n      pop\n      jump\t// out\n        /* \"#utility.yul\":23733:24135   */\n    tag_385:\n        /* \"#utility.yul\":23893:23896   */\n      0x00\n        /* \"#utility.yul\":23914:23999   */\n      tag_661\n        /* \"#utility.yul\":23996:23998   */\n      0x1c\n        /* \"#utility.yul\":23991:23994   */\n      dup4\n        /* \"#utility.yul\":23914:23999   */\n      tag_383\n      jump\t// in\n    tag_661:\n        /* \"#utility.yul\":23907:23999   */\n      swap2\n      pop\n        /* \"#utility.yul\":24008:24101   */\n      tag_662\n        /* \"#utility.yul\":24097:24100   */\n      dup3\n        /* \"#utility.yul\":24008:24101   */\n      tag_384\n      jump\t// in\n    tag_662:\n        /* \"#utility.yul\":24126:24128   */\n      0x1c\n        /* \"#utility.yul\":24121:24124   */\n      dup3\n        /* \"#utility.yul\":24117:24129   */\n      add\n        /* \"#utility.yul\":24110:24129   */\n      swap1\n      pop\n        /* \"#utility.yul\":23733:24135   */\n      swap2\n      swap1\n      pop\n      jump\t// out\n        /* \"#utility.yul\":24141:24220   */\n    tag_386:\n        /* \"#utility.yul\":24180:24187   */\n      0x00\n        /* \"#utility.yul\":24209:24214   */\n      dup2\n        /* \"#utility.yul\":24198:24214   */\n      swap1\n      pop\n        /* \"#utility.yul\":24141:24220   */\n      swap2\n      swap1\n      pop\n      jump\t// out\n        /* \"#utility.yul\":24226:24383   */\n    tag_387:\n        /* \"#utility.yul\":24331:24376   */\n      tag_665\n        /* \"#utility.yul\":24351:24375   */\n      tag_666\n        /* \"#utility.yul\":24369:24374   */\n      dup3\n        /* \"#utility.yul\":24351:24375   */\n      tag_342\n      jump\t// in\n    tag_666:\n        /* \"#utility.yul\":24331:24376   */\n      tag_386\n      jump\t// in\n    tag_665:\n        /* \"#utility.yul\":24326:24329   */\n      dup3\n        /* \"#utility.yul\":24319:24377   */\n      mstore\n        /* \"#utility.yul\":24226:24383   */\n      pop\n      pop\n      jump\t// out\n        /* \"#utility.yul\":24389:24911   */\n    tag_228:\n        /* \"#utility.yul\":24602:24605   */\n      0x00\n        /* \"#utility.yul\":24624:24772   */\n      tag_668\n        /* \"#utility.yul\":24768:24771   */\n      dup3\n        /* \"#utility.yul\":24624:24772   */\n      tag_385\n      jump\t// in\n    tag_668:\n        /* \"#utility.yul\":24617:24772   */\n      swap2\n      pop\n        /* \"#utility.yul\":24782:24857   */\n      tag_669\n        /* \"#utility.yul\":24853:24856   */\n      dup3\n        /* \"#utility.yul\":24844:24850   */\n      dup5\n        /* \"#utility.yul\":24782:24857   */\n      tag_387\n      jump\t// in\n    tag_669:\n        /* \"#utility.yul\":24882:24884   */\n      0x20\n        /* \"#utility.yul\":24877:24880   */\n      dup3\n        /* \"#utility.yul\":24873:24885   */\n      add\n        /* \"#utility.yul\":24866:24885   */\n      swap2\n      pop\n        /* \"#utility.yul\":24902:24905   */\n      dup2\n        /* \"#utility.yul\":24895:24905   */\n      swap1\n      pop\n        /* \"#utility.yul\":24389:24911   */\n      swap3\n      swap2\n      pop\n      pop\n      jump\t// out\n        /* \"#utility.yul\":24917:25737   */\n    tag_241:\n        /* \"#utility.yul\":25141:25144   */\n      0x00\n        /* \"#utility.yul\":25156:25231   */\n      tag_671\n        /* \"#utility.yul\":25227:25230   */\n      dup3\n        /* \"#utility.yul\":25218:25224   */\n      dup9\n        /* \"#utility.yul\":25156:25231   */\n      tag_376\n      jump\t// in\n    tag_671:\n        /* \"#utility.yul\":25256:25258   */\n      0x20\n        /* \"#utility.yul\":25251:25254   */\n      dup3\n        /* \"#utility.yul\":25247:25259   */\n      add\n        /* \"#utility.yul\":25240:25259   */\n      swap2\n      pop\n        /* \"#utility.yul\":25269:25344   */\n      tag_672\n        /* \"#utility.yul\":25340:25343   */\n      dup3\n        /* \"#utility.yul\":25331:25337   */\n      dup8\n        /* \"#utility.yul\":25269:25344   */\n      tag_376\n      jump\t// in\n    tag_672:\n        /* \"#utility.yul\":25369:25371   */\n      0x20\n        /* \"#utility.yul\":25364:25367   */\n      dup3\n        /* \"#utility.yul\":25360:25372   */\n      add\n        /* \"#utility.yul\":25353:25372   */\n      swap2\n      pop\n        /* \"#utility.yul\":25382:25457   */\n      tag_673\n        /* \"#utility.yul\":25453:25456   */\n      dup3\n        /* \"#utility.yul\":25444:25450   */\n      dup7\n        /* \"#utility.yul\":25382:25457   */\n      tag_376\n      jump\t// in\n    tag_673:\n        /* \"#utility.yul\":25482:25484   */\n      0x20\n        /* \"#utility.yul\":25477:25480   */\n      dup3\n        /* \"#utility.yul\":25473:25485   */\n      add\n        /* \"#utility.yul\":25466:25485   */\n      swap2\n      pop\n        /* \"#utility.yul\":25495:25570   */\n      tag_674\n        /* \"#utility.yul\":25566:25569   */\n      dup3\n        /* \"#utility.yul\":25557:25563   */\n      dup6\n        /* \"#utility.yul\":25495:25570   */\n      tag_376\n      jump\t// in\n    tag_674:\n        /* \"#utility.yul\":25595:25597   */\n      0x20\n        /* \"#utility.yul\":25590:25593   */\n      dup3\n        /* \"#utility.yul\":25586:25598   */\n      add\n        /* \"#utility.yul\":25579:25598   */\n      swap2\n      pop\n        /* \"#utility.yul\":25608:25683   */\n      tag_675\n        /* \"#utility.yul\":25679:25682   */\n      dup3\n        /* \"#utility.yul\":25670:25676   */\n      dup5\n        /* \"#utility.yul\":25608:25683   */\n      tag_376\n      jump\t// in\n    tag_675:\n        /* \"#utility.yul\":25708:25710   */\n      0x20\n        /* \"#utility.yul\":25703:25706   */\n      dup3\n        /* \"#utility.yul\":25699:25711   */\n      add\n        /* \"#utility.yul\":25692:25711   */\n      swap2\n      pop\n        /* \"#utility.yul\":25728:25731   */\n      dup2\n        /* \"#utility.yul\":25721:25731   */\n      swap1\n      pop\n        /* \"#utility.yul\":24917:25737   */\n      swap7\n      swap6\n      pop\n      pop\n      pop\n      pop\n      pop\n      pop\n      jump\t// out\n        /* \"#utility.yul\":25743:26054   */\n    tag_388:\n        /* \"#utility.yul\":25820:25824   */\n      0x00\n        /* \"#utility.yul\":25910:25928   */\n      0xffffffffffffffff\n        /* \"#utility.yul\":25902:25908   */\n      dup3\n        /* \"#utility.yul\":25899:25929   */\n      gt\n        /* \"#utility.yul\":25896:25952   */\n      iszero\n      tag_677\n      jumpi\n        /* \"#utility.yul\":25932:25950   */\n      tag_678\n      tag_189\n      jump\t// in\n    tag_678:\n        /* \"#utility.yul\":25896:25952   */\n    tag_677:\n        /* \"#utility.yul\":25982:25986   */\n      0x20\n        /* \"#utility.yul\":25974:25980   */\n      dup3\n        /* \"#utility.yul\":25970:25987   */\n      mul\n        /* \"#utility.yul\":25962:25987   */\n      swap1\n      pop\n        /* \"#utility.yul\":26042:26046   */\n      0x20\n        /* \"#utility.yul\":26036:26040   */\n      dup2\n        /* \"#utility.yul\":26032:26047   */\n      add\n        /* \"#utility.yul\":26024:26047   */\n      swap1\n      pop\n        /* \"#utility.yul\":25743:26054   */\n      swap2\n      swap1\n      pop\n      jump\t// out\n        /* \"#utility.yul\":26060:26203   */\n    tag_389:\n        /* \"#utility.yul\":26117:26122   */\n      0x00\n        /* \"#utility.yul\":26148:26154   */\n      dup2\n        /* \"#utility.yul\":26142:26155   */\n      mload\n        /* \"#utility.yul\":26133:26155   */\n      swap1\n      pop\n        /* \"#utility.yul\":26164:26197   */\n      tag_680\n        /* \"#utility.yul\":26191:26196   */\n      dup2\n        /* \"#utility.yul\":26164:26197   */\n      tag_363\n      jump\t// in\n    tag_680:\n        /* \"#utility.yul\":26060:26203   */\n      swap3\n      swap2\n      pop\n      pop\n      jump\t// out\n        /* \"#utility.yul\":26226:26958   */\n    tag_390:\n        /* \"#utility.yul\":26333:26338   */\n      0x00\n        /* \"#utility.yul\":26358:26439   */\n      tag_682\n        /* \"#utility.yul\":26374:26438   */\n      tag_683\n        /* \"#utility.yul\":26431:26437   */\n      dup5\n        /* \"#utility.yul\":26374:26438   */\n      tag_388\n      jump\t// in\n    tag_683:\n        /* \"#utility.yul\":26358:26439   */\n      tag_347\n      jump\t// in\n    tag_682:\n        /* \"#utility.yul\":26349:26439   */\n      swap1\n      pop\n        /* \"#utility.yul\":26459:26464   */\n      dup1\n        /* \"#utility.yul\":26488:26494   */\n      dup4\n        /* \"#utility.yul\":26481:26486   */\n      dup3\n        /* \"#utility.yul\":26474:26495   */\n      mstore\n        /* \"#utility.yul\":26522:26526   */\n      0x20\n        /* \"#utility.yul\":26515:26520   */\n      dup3\n        /* \"#utility.yul\":26511:26527   */\n      add\n        /* \"#utility.yul\":26504:26527   */\n      swap1\n      pop\n        /* \"#utility.yul\":26575:26579   */\n      0x20\n        /* \"#utility.yul\":26567:26573   */\n      dup5\n        /* \"#utility.yul\":26563:26580   */\n      mul\n        /* \"#utility.yul\":26555:26561   */\n      dup4\n        /* \"#utility.yul\":26551:26581   */\n      add\n        /* \"#utility.yul\":26604:26607   */\n      dup6\n        /* \"#utility.yul\":26596:26602   */\n      dup2\n        /* \"#utility.yul\":26593:26608   */\n      gt\n        /* \"#utility.yul\":26590:26712   */\n      iszero\n      tag_684\n      jumpi\n        /* \"#utility.yul\":26623:26702   */\n      tag_685\n      tag_319\n      jump\t// in\n    tag_685:\n        /* \"#utility.yul\":26590:26712   */\n    tag_684:\n        /* \"#utility.yul\":26738:26744   */\n      dup4\n        /* \"#utility.yul\":26721:26952   */\n    tag_686:\n        /* \"#utility.yul\":26755:26761   */\n      dup2\n        /* \"#utility.yul\":26750:26753   */\n      dup2\n        /* \"#utility.yul\":26747:26762   */\n      lt\n        /* \"#utility.yul\":26721:26952   */\n      iszero\n      tag_688\n      jumpi\n        /* \"#utility.yul\":26830:26833   */\n      dup1\n        /* \"#utility.yul\":26859:26907   */\n      tag_689\n        /* \"#utility.yul\":26903:26906   */\n      dup9\n        /* \"#utility.yul\":26891:26901   */\n      dup3\n        /* \"#utility.yul\":26859:26907   */\n      tag_389\n      jump\t// in\n    tag_689:\n        /* \"#utility.yul\":26854:26857   */\n      dup5\n        /* \"#utility.yul\":26847:26908   */\n      mstore\n        /* \"#utility.yul\":26937:26941   */\n      0x20\n        /* \"#utility.yul\":26932:26935   */\n      dup5\n        /* \"#utility.yul\":26928:26942   */\n      add\n        /* \"#utility.yul\":26921:26942   */\n      swap4\n      pop\n        /* \"#utility.yul\":26797:26952   */\n      pop\n        /* \"#utility.yul\":26781:26785   */\n      0x20\n        /* \"#utility.yul\":26776:26779   */\n      dup2\n        /* \"#utility.yul\":26772:26786   */\n      add\n        /* \"#utility.yul\":26765:26786   */\n      swap1\n      pop\n        /* \"#utility.yul\":26721:26952   */\n      jump(tag_686)\n    tag_688:\n        /* \"#utility.yul\":26725:26746   */\n      pop\n        /* \"#utility.yul\":26339:26958   */\n      pop\n      pop\n        /* \"#utility.yul\":26226:26958   */\n      swap4\n      swap3\n      pop\n      pop\n      pop\n      jump\t// out\n        /* \"#utility.yul\":26981:27366   */\n    tag_391:\n        /* \"#utility.yul\":27063:27068   */\n      0x00\n        /* \"#utility.yul\":27112:27115   */\n      dup3\n        /* \"#utility.yul\":27105:27109   */\n      0x1f\n        /* \"#utility.yul\":27097:27103   */\n      dup4\n        /* \"#utility.yul\":27093:27110   */\n      add\n        /* \"#utility.yul\":27089:27116   */\n      slt\n        /* \"#utility.yul\":27079:27201   */\n      tag_691\n      jumpi\n        /* \"#utility.yul\":27120:27199   */\n      tag_692\n      tag_322\n      jump\t// in\n    tag_692:\n        /* \"#utility.yul\":27079:27201   */\n    tag_691:\n        /* \"#utility.yul\":27230:27236   */\n      dup2\n        /* \"#utility.yul\":27224:27237   */\n      mload\n        /* \"#utility.yul\":27255:27360   */\n      tag_693\n        /* \"#utility.yul\":27356:27359   */\n      dup5\n        /* \"#utility.yul\":27348:27354   */\n      dup3\n        /* \"#utility.yul\":27341:27345   */\n      0x20\n        /* \"#utility.yul\":27333:27339   */\n      dup7\n        /* \"#utility.yul\":27329:27346   */\n      add\n        /* \"#utility.yul\":27255:27360   */\n      tag_390\n      jump\t// in\n    tag_693:\n        /* \"#utility.yul\":27246:27360   */\n      swap2\n      pop\n        /* \"#utility.yul\":27069:27366   */\n      pop\n        /* \"#utility.yul\":26981:27366   */\n      swap3\n      swap2\n      pop\n      pop\n      jump\t// out\n        /* \"#utility.yul\":27372:27926   */\n    tag_247:\n        /* \"#utility.yul\":27467:27473   */\n      0x00\n        /* \"#utility.yul\":27516:27518   */\n      0x20\n        /* \"#utility.yul\":27504:27513   */\n      dup3\n        /* \"#utility.yul\":27495:27502   */\n      dup5\n        /* \"#utility.yul\":27491:27514   */\n      sub\n        /* \"#utility.yul\":27487:27519   */\n      slt\n        /* \"#utility.yul\":27484:27603   */\n      iszero\n      tag_695\n      jumpi\n        /* \"#utility.yul\":27522:27601   */\n      tag_696\n      tag_317\n      jump\t// in\n    tag_696:\n        /* \"#utility.yul\":27484:27603   */\n    tag_695:\n        /* \"#utility.yul\":27663:27664   */\n      0x00\n        /* \"#utility.yul\":27652:27661   */\n      dup3\n        /* \"#utility.yul\":27648:27665   */\n      add\n        /* \"#utility.yul\":27642:27666   */\n      mload\n        /* \"#utility.yul\":27693:27711   */\n      0xffffffffffffffff\n        /* \"#utility.yul\":27685:27691   */\n      dup2\n        /* \"#utility.yul\":27682:27712   */\n      gt\n        /* \"#utility.yul\":27679:27796   */\n      iszero\n      tag_697\n      jumpi\n        /* \"#utility.yul\":27715:27794   */\n      tag_698\n      tag_318\n      jump\t// in\n    tag_698:\n        /* \"#utility.yul\":27679:27796   */\n    tag_697:\n        /* \"#utility.yul\":27820:27909   */\n      tag_699\n        /* \"#utility.yul\":27901:27908   */\n      dup5\n        /* \"#utility.yul\":27892:27898   */\n      dup3\n        /* \"#utility.yul\":27881:27890   */\n      dup6\n        /* \"#utility.yul\":27877:27899   */\n      add\n        /* \"#utility.yul\":27820:27909   */\n      tag_391\n      jump\t// in\n    tag_699:\n        /* \"#utility.yul\":27810:27909   */\n      swap2\n      pop\n        /* \"#utility.yul\":27613:27919   */\n      pop\n        /* \"#utility.yul\":27372:27926   */\n      swap3\n      swap2\n      pop\n      pop\n      jump\t// out\n        /* \"#utility.yul\":27932:28342   */\n    tag_252:\n        /* \"#utility.yul\":27972:27979   */\n      0x00\n        /* \"#utility.yul\":27995:28015   */\n      tag_701\n        /* \"#utility.yul\":28013:28014   */\n      dup3\n        /* \"#utility.yul\":27995:28015   */\n      tag_326\n      jump\t// in\n    tag_701:\n        /* \"#utility.yul\":27990:28015   */\n      swap2\n      pop\n        /* \"#utility.yul\":28029:28049   */\n      tag_702\n        /* \"#utility.yul\":28047:28048   */\n      dup4\n        /* \"#utility.yul\":28029:28049   */\n      tag_326\n      jump\t// in\n    tag_702:\n        /* \"#utility.yul\":28024:28049   */\n      swap3\n      pop\n        /* \"#utility.yul\":28084:28085   */\n      dup3\n        /* \"#utility.yul\":28081:28082   */\n      dup3\n        /* \"#utility.yul\":28077:28086   */\n      mul\n        /* \"#utility.yul\":28106:28136   */\n      tag_703\n        /* \"#utility.yul\":28124:28135   */\n      dup2\n        /* \"#utility.yul\":28106:28136   */\n      tag_326\n      jump\t// in\n    tag_703:\n        /* \"#utility.yul\":28095:28136   */\n      swap2\n      pop\n        /* \"#utility.yul\":28285:28286   */\n      dup3\n        /* \"#utility.yul\":28276:28283   */\n      dup3\n        /* \"#utility.yul\":28272:28287   */\n      div\n        /* \"#utility.yul\":28269:28270   */\n      dup5\n        /* \"#utility.yul\":28266:28288   */\n      eq\n        /* \"#utility.yul\":28246:28247   */\n      dup4\n        /* \"#utility.yul\":28239:28248   */\n      iszero\n        /* \"#utility.yul\":28219:28302   */\n      or\n        /* \"#utility.yul\":28196:28335   */\n      tag_704\n      jumpi\n        /* \"#utility.yul\":28315:28333   */\n      tag_705\n      tag_381\n      jump\t// in\n    tag_705:\n        /* \"#utility.yul\":28196:28335   */\n    tag_704:\n        /* \"#utility.yul\":27980:28342   */\n      pop\n        /* \"#utility.yul\":27932:28342   */\n      swap3\n      swap2\n      pop\n      pop\n      jump\t// out\n        /* \"#utility.yul\":28348:28465   */\n    tag_392:\n        /* \"#utility.yul\":28457:28458   */\n      0x00\n        /* \"#utility.yul\":28454:28455   */\n      0x00\n        /* \"#utility.yul\":28447:28459   */\n      revert\n        /* \"#utility.yul\":28471:28588   */\n    tag_393:\n        /* \"#utility.yul\":28580:28581   */\n      0x00\n        /* \"#utility.yul\":28577:28578   */\n      0x00\n        /* \"#utility.yul\":28570:28582   */\n      revert\n        /* \"#utility.yul\":28594:29063   */\n    tag_256:\n        /* \"#utility.yul\":28699:28708   */\n      0x00\n        /* \"#utility.yul\":28710:28719   */\n      0x00\n        /* \"#utility.yul\":28748:28756   */\n      dup6\n        /* \"#utility.yul\":28736:28746   */\n      dup6\n        /* \"#utility.yul\":28733:28757   */\n      gt\n        /* \"#utility.yul\":28730:28841   */\n      iszero\n      tag_709\n      jumpi\n        /* \"#utility.yul\":28760:28839   */\n      tag_710\n      tag_392\n      jump\t// in\n    tag_710:\n        /* \"#utility.yul\":28730:28841   */\n    tag_709:\n        /* \"#utility.yul\":28866:28872   */\n      dup4\n        /* \"#utility.yul\":28856:28864   */\n      dup7\n        /* \"#utility.yul\":28853:28873   */\n      gt\n        /* \"#utility.yul\":28850:28957   */\n      iszero\n      tag_711\n      jumpi\n        /* \"#utility.yul\":28876:28955   */\n      tag_712\n      tag_393\n      jump\t// in\n    tag_712:\n        /* \"#utility.yul\":28850:28957   */\n    tag_711:\n        /* \"#utility.yul\":29007:29008   */\n      0x01\n        /* \"#utility.yul\":28995:29005   */\n      dup6\n        /* \"#utility.yul\":28991:29009   */\n      mul\n        /* \"#utility.yul\":28983:28989   */\n      dup4\n        /* \"#utility.yul\":28979:29010   */\n      add\n        /* \"#utility.yul\":28966:29010   */\n      swap2\n      pop\n        /* \"#utility.yul\":29046:29056   */\n      dup5\n        /* \"#utility.yul\":29036:29044   */\n      dup7\n        /* \"#utility.yul\":29032:29057   */\n      sub\n        /* \"#utility.yul\":29019:29057   */\n      swap1\n      pop\n        /* \"#utility.yul\":28594:29063   */\n      swap5\n      pop\n      swap5\n      swap3\n      pop\n      pop\n      pop\n      jump\t// out\n        /* \"#utility.yul\":29069:29236   */\n    tag_394:\n        /* \"#utility.yul\":29209:29228   */\n      0x496e76616c6964207369676e6174757265000000000000000000000000000000\n        /* \"#utility.yul\":29205:29206   */\n      0x00\n        /* \"#utility.yul\":29197:29203   */\n      dup3\n        /* \"#utility.yul\":29193:29207   */\n      add\n        /* \"#utility.yul\":29186:29229   */\n      mstore\n        /* \"#utility.yul\":29069:29236   */\n      pop\n      jump\t// out\n        /* \"#utility.yul\":29242:29608   */\n    tag_395:\n        /* \"#utility.yul\":29384:29387   */\n      0x00\n        /* \"#utility.yul\":29405:29472   */\n      tag_715\n        /* \"#utility.yul\":29469:29471   */\n      0x11\n        /* \"#utility.yul\":29464:29467   */\n      dup4\n        /* \"#utility.yul\":29405:29472   */\n      tag_359\n      jump\t// in\n    tag_715:\n        /* \"#utility.yul\":29398:29472   */\n      swap2\n      pop\n        /* \"#utility.yul\":29481:29574   */\n      tag_716\n        /* \"#utility.yul\":29570:29573   */\n      dup3\n        /* \"#utility.yul\":29481:29574   */\n      tag_394\n      jump\t// in\n    tag_716:\n        /* \"#utility.yul\":29599:29601   */\n      0x20\n        /* \"#utility.yul\":29594:29597   */\n      dup3\n        /* \"#utility.yul\":29590:29602   */\n      add\n        /* \"#utility.yul\":29583:29602   */\n      swap1\n      pop\n        /* \"#utility.yul\":29242:29608   */\n      swap2\n      swap1\n      pop\n      jump\t// out\n        /* \"#utility.yul\":29614:30033   */\n    tag_260:\n        /* \"#utility.yul\":29780:29784   */\n      0x00\n        /* \"#utility.yul\":29818:29820   */\n      0x20\n        /* \"#utility.yul\":29807:29816   */\n      dup3\n        /* \"#utility.yul\":29803:29821   */\n      add\n        /* \"#utility.yul\":29795:29821   */\n      swap1\n      pop\n        /* \"#utility.yul\":29867:29876   */\n      dup2\n        /* \"#utility.yul\":29861:29865   */\n      dup2\n        /* \"#utility.yul\":29857:29877   */\n      sub\n        /* \"#utility.yul\":29853:29854   */\n      0x00\n        /* \"#utility.yul\":29842:29851   */\n      dup4\n        /* \"#utility.yul\":29838:29855   */\n      add\n        /* \"#utility.yul\":29831:29878   */\n      mstore\n        /* \"#utility.yul\":29895:30026   */\n      tag_718\n        /* \"#utility.yul\":30021:30025   */\n      dup2\n        /* \"#utility.yul\":29895:30026   */\n      tag_395\n      jump\t// in\n    tag_718:\n        /* \"#utility.yul\":29887:30026   */\n      swap1\n      pop\n        /* \"#utility.yul\":29614:30033   */\n      swap2\n      swap1\n      pop\n      jump\t// out\n        /* \"#utility.yul\":30039:30219   */\n    tag_396:\n        /* \"#utility.yul\":30179:30211   */\n      0x5369676e6572206e6f7420616e206163746976652076616c696461746f720000\n        /* \"#utility.yul\":30175:30176   */\n      0x00\n        /* \"#utility.yul\":30167:30173   */\n      dup3\n        /* \"#utility.yul\":30163:30177   */\n      add\n        /* \"#utility.yul\":30156:30212   */\n      mstore\n        /* \"#utility.yul\":30039:30219   */\n      pop\n      jump\t// out\n        /* \"#utility.yul\":30225:30591   */\n    tag_397:\n        /* \"#utility.yul\":30367:30370   */\n      0x00\n        /* \"#utility.yul\":30388:30455   */\n      tag_721\n        /* \"#utility.yul\":30452:30454   */\n      0x1e\n        /* \"#utility.yul\":30447:30450   */\n      dup4\n        /* \"#utility.yul\":30388:30455   */\n      tag_359\n      jump\t// in\n    tag_721:\n        /* \"#utility.yul\":30381:30455   */\n      swap2\n      pop\n        /* \"#utility.yul\":30464:30557   */\n      tag_722\n        /* \"#utility.yul\":30553:30556   */\n      dup3\n        /* \"#utility.yul\":30464:30557   */\n      tag_396\n      jump\t// in\n    tag_722:\n        /* \"#utility.yul\":30582:30584   */\n      0x20\n        /* \"#utility.yul\":30577:30580   */\n      dup3\n        /* \"#utility.yul\":30573:30585   */\n      add\n        /* \"#utility.yul\":30566:30585   */\n      swap1\n      pop\n        /* \"#utility.yul\":30225:30591   */\n      swap2\n      swap1\n      pop\n      jump\t// out\n        /* \"#utility.yul\":30597:31016   */\n    tag_269:\n        /* \"#utility.yul\":30763:30767   */\n      0x00\n        /* \"#utility.yul\":30801:30803   */\n      0x20\n        /* \"#utility.yul\":30790:30799   */\n      dup3\n        /* \"#utility.yul\":30786:30804   */\n      add\n        /* \"#utility.yul\":30778:30804   */\n      swap1\n      pop\n        /* \"#utility.yul\":30850:30859   */\n      dup2\n        /* \"#utility.yul\":30844:30848   */\n      dup2\n        /* \"#utility.yul\":30840:30860   */\n      sub\n        /* \"#utility.yul\":30836:30837   */\n      0x00\n        /* \"#utility.yul\":30825:30834   */\n      dup4\n        /* \"#utility.yul\":30821:30838   */\n      add\n        /* \"#utility.yul\":30814:30861   */\n      mstore\n        /* \"#utility.yul\":30878:31009   */\n      tag_724\n        /* \"#utility.yul\":31004:31008   */\n      dup2\n        /* \"#utility.yul\":30878:31009   */\n      tag_397\n      jump\t// in\n    tag_724:\n        /* \"#utility.yul\":30870:31009   */\n      swap1\n      pop\n        /* \"#utility.yul\":30597:31016   */\n      swap2\n      swap1\n      pop\n      jump\t// out\n        /* \"#utility.yul\":31022:31983   */\n    tag_292:\n        /* \"#utility.yul\":31274:31277   */\n      0x00\n        /* \"#utility.yul\":31289:31364   */\n      tag_726\n        /* \"#utility.yul\":31360:31363   */\n      dup3\n        /* \"#utility.yul\":31351:31357   */\n      dup10\n        /* \"#utility.yul\":31289:31364   */\n      tag_376\n      jump\t// in\n    tag_726:\n        /* \"#utility.yul\":31389:31391   */\n      0x20\n        /* \"#utility.yul\":31384:31387   */\n      dup3\n        /* \"#utility.yul\":31380:31392   */\n      add\n        /* \"#utility.yul\":31373:31392   */\n      swap2\n      pop\n        /* \"#utility.yul\":31402:31477   */\n      tag_727\n        /* \"#utility.yul\":31473:31476   */\n      dup3\n        /* \"#utility.yul\":31464:31470   */\n      dup9\n        /* \"#utility.yul\":31402:31477   */\n      tag_376\n      jump\t// in\n    tag_727:\n        /* \"#utility.yul\":31502:31504   */\n      0x20\n        /* \"#utility.yul\":31497:31500   */\n      dup3\n        /* \"#utility.yul\":31493:31505   */\n      add\n        /* \"#utility.yul\":31486:31505   */\n      swap2\n      pop\n        /* \"#utility.yul\":31515:31590   */\n      tag_728\n        /* \"#utility.yul\":31586:31589   */\n      dup3\n        /* \"#utility.yul\":31577:31583   */\n      dup8\n        /* \"#utility.yul\":31515:31590   */\n      tag_376\n      jump\t// in\n    tag_728:\n        /* \"#utility.yul\":31615:31617   */\n      0x20\n        /* \"#utility.yul\":31610:31613   */\n      dup3\n        /* \"#utility.yul\":31606:31618   */\n      add\n        /* \"#utility.yul\":31599:31618   */\n      swap2\n      pop\n        /* \"#utility.yul\":31628:31703   */\n      tag_729\n        /* \"#utility.yul\":31699:31702   */\n      dup3\n        /* \"#utility.yul\":31690:31696   */\n      dup7\n        /* \"#utility.yul\":31628:31703   */\n      tag_376\n      jump\t// in\n    tag_729:\n        /* \"#utility.yul\":31728:31730   */\n      0x20\n        /* \"#utility.yul\":31723:31726   */\n      dup3\n        /* \"#utility.yul\":31719:31731   */\n      add\n        /* \"#utility.yul\":31712:31731   */\n      swap2\n      pop\n        /* \"#utility.yul\":31741:31816   */\n      tag_730\n        /* \"#utility.yul\":31812:31815   */\n      dup3\n        /* \"#utility.yul\":31803:31809   */\n      dup6\n        /* \"#utility.yul\":31741:31816   */\n      tag_376\n      jump\t// in\n    tag_730:\n        /* \"#utility.yul\":31841:31843   */\n      0x20\n        /* \"#utility.yul\":31836:31839   */\n      dup3\n        /* \"#utility.yul\":31832:31844   */\n      add\n        /* \"#utility.yul\":31825:31844   */\n      swap2\n      pop\n        /* \"#utility.yul\":31854:31929   */\n      tag_731\n        /* \"#utility.yul\":31925:31928   */\n      dup3\n        /* \"#utility.yul\":31916:31922   */\n      dup5\n        /* \"#utility.yul\":31854:31929   */\n      tag_376\n      jump\t// in\n    tag_731:\n        /* \"#utility.yul\":31954:31956   */\n      0x20\n        /* \"#utility.yul\":31949:31952   */\n      dup3\n        /* \"#utility.yul\":31945:31957   */\n      add\n        /* \"#utility.yul\":31938:31957   */\n      swap2\n      pop\n        /* \"#utility.yul\":31974:31977   */\n      dup2\n        /* \"#utility.yul\":31967:31977   */\n      swap1\n      pop\n        /* \"#utility.yul\":31022:31983   */\n      swap8\n      swap7\n      pop\n      pop\n      pop\n      pop\n      pop\n      pop\n      pop\n      jump\t// out\n        /* \"#utility.yul\":31989:32379   */\n    tag_398:\n        /* \"#utility.yul\":32095:32098   */\n      0x00\n        /* \"#utility.yul\":32123:32162   */\n      tag_733\n        /* \"#utility.yul\":32156:32161   */\n      dup3\n        /* \"#utility.yul\":32123:32162   */\n      tag_358\n      jump\t// in\n    tag_733:\n        /* \"#utility.yul\":32178:32267   */\n      tag_734\n        /* \"#utility.yul\":32260:32266   */\n      dup2\n        /* \"#utility.yul\":32255:32258   */\n      dup6\n        /* \"#utility.yul\":32178:32267   */\n      tag_383\n      jump\t// in\n    tag_734:\n        /* \"#utility.yul\":32171:32267   */\n      swap4\n      pop\n        /* \"#utility.yul\":32276:32341   */\n      tag_735\n        /* \"#utility.yul\":32334:32340   */\n      dup2\n        /* \"#utility.yul\":32329:32332   */\n      dup6\n        /* \"#utility.yul\":32322:32326   */\n      0x20\n        /* \"#utility.yul\":32315:32320   */\n      dup7\n        /* \"#utility.yul\":32311:32327   */\n      add\n        /* \"#utility.yul\":32276:32341   */\n      tag_331\n      jump\t// in\n    tag_735:\n        /* \"#utility.yul\":32366:32372   */\n      dup1\n        /* \"#utility.yul\":32361:32364   */\n      dup5\n        /* \"#utility.yul\":32357:32373   */\n      add\n        /* \"#utility.yul\":32350:32373   */\n      swap2\n      pop\n        /* \"#utility.yul\":32099:32379   */\n      pop\n        /* \"#utility.yul\":31989:32379   */\n      swap3\n      swap2\n      pop\n      pop\n      jump\t// out\n        /* \"#utility.yul\":32385:32541   */\n    tag_399:\n        /* \"#utility.yul\":32525:32533   */\n      0x5f7661756c740000000000000000000000000000000000000000000000000000\n        /* \"#utility.yul\":32521:32522   */\n      0x00\n        /* \"#utility.yul\":32513:32519   */\n      dup3\n        /* \"#utility.yul\":32509:32523   */\n      add\n        /* \"#utility.yul\":32502:32534   */\n      mstore\n        /* \"#utility.yul\":32385:32541   */\n      pop\n      jump\t// out\n        /* \"#utility.yul\":32547:32947   */\n    tag_400:\n        /* \"#utility.yul\":32707:32710   */\n      0x00\n        /* \"#utility.yul\":32728:32812   */\n      tag_738\n        /* \"#utility.yul\":32810:32811   */\n      0x06\n        /* \"#utility.yul\":32805:32808   */\n      dup4\n        /* \"#utility.yul\":32728:32812   */\n      tag_383\n      jump\t// in\n    tag_738:\n        /* \"#utility.yul\":32721:32812   */\n      swap2\n      pop\n        /* \"#utility.yul\":32821:32914   */\n      tag_739\n        /* \"#utility.yul\":32910:32913   */\n      dup3\n        /* \"#utility.yul\":32821:32914   */\n      tag_399\n      jump\t// in\n    tag_739:\n        /* \"#utility.yul\":32939:32940   */\n      0x06\n        /* \"#utility.yul\":32934:32937   */\n      dup3\n        /* \"#utility.yul\":32930:32941   */\n      add\n        /* \"#utility.yul\":32923:32941   */\n      swap1\n      pop\n        /* \"#utility.yul\":32547:32947   */\n      swap2\n      swap1\n      pop\n      jump\t// out\n        /* \"#utility.yul\":32953:33494   */\n    tag_303:\n        /* \"#utility.yul\":33186:33189   */\n      0x00\n        /* \"#utility.yul\":33208:33303   */\n      tag_741\n        /* \"#utility.yul\":33299:33302   */\n      dup3\n        /* \"#utility.yul\":33290:33296   */\n      dup5\n        /* \"#utility.yul\":33208:33303   */\n      tag_398\n      jump\t// in\n    tag_741:\n        /* \"#utility.yul\":33201:33303   */\n      swap2\n      pop\n        /* \"#utility.yul\":33320:33468   */\n      tag_742\n        /* \"#utility.yul\":33464:33467   */\n      dup3\n        /* \"#utility.yul\":33320:33468   */\n      tag_400\n      jump\t// in\n    tag_742:\n        /* \"#utility.yul\":33313:33468   */\n      swap2\n      pop\n        /* \"#utility.yul\":33485:33488   */\n      dup2\n        /* \"#utility.yul\":33478:33488   */\n      swap1\n      pop\n        /* \"#utility.yul\":32953:33494   */\n      swap3\n      swap2\n      pop\n      pop\n      jump\t// out\n        /* \"#utility.yul\":33500:33665   */\n    tag_401:\n        /* \"#utility.yul\":33640:33657   */\n      0x5169617261426173654173736574730000000000000000000000000000000000\n        /* \"#utility.yul\":33636:33637   */\n      0x00\n        /* \"#utility.yul\":33628:33634   */\n      dup3\n        /* \"#utility.yul\":33624:33638   */\n      add\n        /* \"#utility.yul\":33617:33658   */\n      mstore\n        /* \"#utility.yul\":33500:33665   */\n      pop\n      jump\t// out\n        /* \"#utility.yul\":33671:34037   */\n    tag_402:\n        /* \"#utility.yul\":33813:33816   */\n      0x00\n        /* \"#utility.yul\":33834:33901   */\n      tag_745\n        /* \"#utility.yul\":33898:33900   */\n      0x0f\n        /* \"#utility.yul\":33893:33896   */\n      dup4\n        /* \"#utility.yul\":33834:33901   */\n      tag_359\n      jump\t// in\n    tag_745:\n        /* \"#utility.yul\":33827:33901   */\n      swap2\n      pop\n        /* \"#utility.yul\":33910:34003   */\n      tag_746\n        /* \"#utility.yul\":33999:34002   */\n      dup3\n        /* \"#utility.yul\":33910:34003   */\n      tag_401\n      jump\t// in\n    tag_746:\n        /* \"#utility.yul\":34028:34030   */\n      0x20\n        /* \"#utility.yul\":34023:34026   */\n      dup3\n        /* \"#utility.yul\":34019:34031   */\n      add\n        /* \"#utility.yul\":34012:34031   */\n      swap1\n      pop\n        /* \"#utility.yul\":33671:34037   */\n      swap2\n      swap1\n      pop\n      jump\t// out\n        /* \"#utility.yul\":34043:34663   */\n    tag_305:\n        /* \"#utility.yul\":34257:34261   */\n      0x00\n        /* \"#utility.yul\":34295:34297   */\n      0x40\n        /* \"#utility.yul\":34284:34293   */\n      dup3\n        /* \"#utility.yul\":34280:34298   */\n      add\n        /* \"#utility.yul\":34272:34298   */\n      swap1\n      pop\n        /* \"#utility.yul\":34344:34353   */\n      dup2\n        /* \"#utility.yul\":34338:34342   */\n      dup2\n        /* \"#utility.yul\":34334:34354   */\n      sub\n        /* \"#utility.yul\":34330:34331   */\n      0x00\n        /* \"#utility.yul\":34319:34328   */\n      dup4\n        /* \"#utility.yul\":34315:34332   */\n      add\n        /* \"#utility.yul\":34308:34355   */\n      mstore\n        /* \"#utility.yul\":34372:34503   */\n      tag_748\n        /* \"#utility.yul\":34498:34502   */\n      dup2\n        /* \"#utility.yul\":34372:34503   */\n      tag_402\n      jump\t// in\n    tag_748:\n        /* \"#utility.yul\":34364:34503   */\n      swap1\n      pop\n        /* \"#utility.yul\":34550:34559   */\n      dup2\n        /* \"#utility.yul\":34544:34548   */\n      dup2\n        /* \"#utility.yul\":34540:34560   */\n      sub\n        /* \"#utility.yul\":34535:34537   */\n      0x20\n        /* \"#utility.yul\":34524:34533   */\n      dup4\n        /* \"#utility.yul\":34520:34538   */\n      add\n        /* \"#utility.yul\":34513:34561   */\n      mstore\n        /* \"#utility.yul\":34578:34656   */\n      tag_749\n        /* \"#utility.yul\":34651:34655   */\n      dup2\n        /* \"#utility.yul\":34642:34648   */\n      dup5\n        /* \"#utility.yul\":34578:34656   */\n      tag_360\n      jump\t// in\n    tag_749:\n        /* \"#utility.yul\":34570:34656   */\n      swap1\n      pop\n        /* \"#utility.yul\":34043:34663   */\n      swap3\n      swap2\n      pop\n      pop\n      jump\t// out\n        /* \"#utility.yul\":34669:35101   */\n    tag_403:\n        /* \"#utility.yul\":34757:34762   */\n      0x00\n        /* \"#utility.yul\":34782:34847   */\n      tag_751\n        /* \"#utility.yul\":34798:34846   */\n      tag_752\n        /* \"#utility.yul\":34839:34845   */\n      dup5\n        /* \"#utility.yul\":34798:34846   */\n      tag_348\n      jump\t// in\n    tag_752:\n        /* \"#utility.yul\":34782:34847   */\n      tag_347\n      jump\t// in\n    tag_751:\n        /* \"#utility.yul\":34773:34847   */\n      swap1\n      pop\n        /* \"#utility.yul\":34870:34876   */\n      dup3\n        /* \"#utility.yul\":34863:34868   */\n      dup2\n        /* \"#utility.yul\":34856:34877   */\n      mstore\n        /* \"#utility.yul\":34908:34912   */\n      0x20\n        /* \"#utility.yul\":34901:34906   */\n      dup2\n        /* \"#utility.yul\":34897:34913   */\n      add\n        /* \"#utility.yul\":34946:34949   */\n      dup5\n        /* \"#utility.yul\":34937:34943   */\n      dup5\n        /* \"#utility.yul\":34932:34935   */\n      dup5\n        /* \"#utility.yul\":34928:34944   */\n      add\n        /* \"#utility.yul\":34925:34950   */\n      gt\n        /* \"#utility.yul\":34922:35034   */\n      iszero\n      tag_753\n      jumpi\n        /* \"#utility.yul\":34953:35032   */\n      tag_754\n      tag_345\n      jump\t// in\n    tag_754:\n        /* \"#utility.yul\":34922:35034   */\n    tag_753:\n        /* \"#utility.yul\":35043:35095   */\n      tag_755\n        /* \"#utility.yul\":35088:35094   */\n      dup5\n        /* \"#utility.yul\":35083:35086   */\n      dup3\n        /* \"#utility.yul\":35078:35081   */\n      dup6\n        /* \"#utility.yul\":35043:35095   */\n      tag_331\n      jump\t// in\n    tag_755:\n        /* \"#utility.yul\":34763:35101   */\n      pop\n        /* \"#utility.yul\":34669:35101   */\n      swap4\n      swap3\n      pop\n      pop\n      pop\n      jump\t// out\n        /* \"#utility.yul\":35120:35473   */\n    tag_404:\n        /* \"#utility.yul\":35186:35191   */\n      0x00\n        /* \"#utility.yul\":35235:35238   */\n      dup3\n        /* \"#utility.yul\":35228:35232   */\n      0x1f\n        /* \"#utility.yul\":35220:35226   */\n      dup4\n        /* \"#utility.yul\":35216:35233   */\n      add\n        /* \"#utility.yul\":35212:35239   */\n      slt\n        /* \"#utility.yul\":35202:35324   */\n      tag_757\n      jumpi\n        /* \"#utility.yul\":35243:35322   */\n      tag_758\n      tag_322\n      jump\t// in\n    tag_758:\n        /* \"#utility.yul\":35202:35324   */\n    tag_757:\n        /* \"#utility.yul\":35353:35359   */\n      dup2\n        /* \"#utility.yul\":35347:35360   */\n      mload\n        /* \"#utility.yul\":35378:35467   */\n      tag_759\n        /* \"#utility.yul\":35463:35466   */\n      dup5\n        /* \"#utility.yul\":35455:35461   */\n      dup3\n        /* \"#utility.yul\":35448:35452   */\n      0x20\n        /* \"#utility.yul\":35440:35446   */\n      dup7\n        /* \"#utility.yul\":35436:35453   */\n      add\n        /* \"#utility.yul\":35378:35467   */\n      tag_403\n      jump\t// in\n    tag_759:\n        /* \"#utility.yul\":35369:35467   */\n      swap2\n      pop\n        /* \"#utility.yul\":35192:35473   */\n      pop\n        /* \"#utility.yul\":35120:35473   */\n      swap3\n      swap2\n      pop\n      pop\n      jump\t// out\n        /* \"#utility.yul\":35479:36001   */\n    tag_309:\n        /* \"#utility.yul\":35558:35564   */\n      0x00\n        /* \"#utility.yul\":35607:35609   */\n      0x20\n        /* \"#utility.yul\":35595:35604   */\n      dup3\n        /* \"#utility.yul\":35586:35593   */\n      dup5\n        /* \"#utility.yul\":35582:35605   */\n      sub\n        /* \"#utility.yul\":35578:35610   */\n      slt\n        /* \"#utility.yul\":35575:35694   */\n      iszero\n      tag_761\n      jumpi\n        /* \"#utility.yul\":35613:35692   */\n      tag_762\n      tag_317\n      jump\t// in\n    tag_762:\n        /* \"#utility.yul\":35575:35694   */\n    tag_761:\n        /* \"#utility.yul\":35754:35755   */\n      0x00\n        /* \"#utility.yul\":35743:35752   */\n      dup3\n        /* \"#utility.yul\":35739:35756   */\n      add\n        /* \"#utility.yul\":35733:35757   */\n      mload\n        /* \"#utility.yul\":35784:35802   */\n      0xffffffffffffffff\n        /* \"#utility.yul\":35776:35782   */\n      dup2\n        /* \"#utility.yul\":35773:35803   */\n      gt\n        /* \"#utility.yul\":35770:35887   */\n      iszero\n      tag_763\n      jumpi\n        /* \"#utility.yul\":35806:35885   */\n      tag_764\n      tag_318\n      jump\t// in\n    tag_764:\n        /* \"#utility.yul\":35770:35887   */\n    tag_763:\n        /* \"#utility.yul\":35911:35984   */\n      tag_765\n        /* \"#utility.yul\":35976:35983   */\n      dup5\n        /* \"#utility.yul\":35967:35973   */\n      dup3\n        /* \"#utility.yul\":35956:35965   */\n      dup6\n        /* \"#utility.yul\":35952:35974   */\n      add\n        /* \"#utility.yul\":35911:35984   */\n      tag_404\n      jump\t// in\n    tag_765:\n        /* \"#utility.yul\":35901:35984   */\n      swap2\n      pop\n        /* \"#utility.yul\":35704:35994   */\n      pop\n        /* \"#utility.yul\":35479:36001   */\n      swap3\n      swap2\n      pop\n      pop\n      jump\t// out\n        /* \"#utility.yul\":36007:36177   */\n    tag_405:\n        /* \"#utility.yul\":36147:36169   */\n      0x5661756c74206e6f7420617574686f72697a6564000000000000000000000000\n        /* \"#utility.yul\":36143:36144   */\n      0x00\n        /* \"#utility.yul\":36135:36141   */\n      dup3\n        /* \"#utility.yul\":36131:36145   */\n      add\n        /* \"#utility.yul\":36124:36170   */\n      mstore\n        /* \"#utility.yul\":36007:36177   */\n      pop\n      jump\t// out\n        /* \"#utility.yul\":36183:36549   */\n    tag_406:\n        /* \"#utility.yul\":36325:36328   */\n      0x00\n        /* \"#utility.yul\":36346:36413   */\n      tag_768\n        /* \"#utility.yul\":36410:36412   */\n      0x14\n        /* \"#utility.yul\":36405:36408   */\n      dup4\n        /* \"#utility.yul\":36346:36413   */\n      tag_359\n      jump\t// in\n    tag_768:\n        /* \"#utility.yul\":36339:36413   */\n      swap2\n      pop\n        /* \"#utility.yul\":36422:36515   */\n      tag_769\n        /* \"#utility.yul\":36511:36514   */\n      dup3\n        /* \"#utility.yul\":36422:36515   */\n      tag_405\n      jump\t// in\n    tag_769:\n        /* \"#utility.yul\":36540:36542   */\n      0x20\n        /* \"#utility.yul\":36535:36538   */\n      dup3\n        /* \"#utility.yul\":36531:36543   */\n      add\n        /* \"#utility.yul\":36524:36543   */\n      swap1\n      pop\n        /* \"#utility.yul\":36183:36549   */\n      swap2\n      swap1\n      pop\n      jump\t// out\n        /* \"#utility.yul\":36555:36974   */\n    tag_312:\n        /* \"#utility.yul\":36721:36725   */\n      0x00\n        /* \"#utility.yul\":36759:36761   */\n      0x20\n        /* \"#utility.yul\":36748:36757   */\n      dup3\n        /* \"#utility.yul\":36744:36762   */\n      add\n        /* \"#utility.yul\":36736:36762   */\n      swap1\n      pop\n        /* \"#utility.yul\":36808:36817   */\n      dup2\n        /* \"#utility.yul\":36802:36806   */\n      dup2\n        /* \"#utility.yul\":36798:36818   */\n      sub\n        /* \"#utility.yul\":36794:36795   */\n      0x00\n        /* \"#utility.yul\":36783:36792   */\n      dup4\n        /* \"#utility.yul\":36779:36796   */\n      add\n        /* \"#utility.yul\":36772:36819   */\n      mstore\n        /* \"#utility.yul\":36836:36967   */\n      tag_771\n        /* \"#utility.yul\":36962:36966   */\n      dup2\n        /* \"#utility.yul\":36836:36967   */\n      tag_406\n      jump\t// in\n    tag_771:\n        /* \"#utility.yul\":36828:36967   */\n      swap1\n      pop\n        /* \"#utility.yul\":36555:36974   */\n      swap2\n      swap1\n      pop\n      jump\t// out\n        /* \"#utility.yul\":36980:37096   */\n    tag_407:\n        /* \"#utility.yul\":37031:37035   */\n      0x00\n        /* \"#utility.yul\":37054:37057   */\n      dup2\n        /* \"#utility.yul\":37046:37057   */\n      swap1\n      pop\n        /* \"#utility.yul\":37084:37088   */\n      0x20\n        /* \"#utility.yul\":37079:37082   */\n      dup3\n        /* \"#utility.yul\":37075:37089   */\n      add\n        /* \"#utility.yul\":37067:37089   */\n      swap1\n      pop\n        /* \"#utility.yul\":36980:37096   */\n      swap2\n      swap1\n      pop\n      jump\t// out\n        /* \"#utility.yul\":37102:37252   */\n    tag_408:\n        /* \"#utility.yul\":37139:37146   */\n      0x00\n        /* \"#utility.yul\":37179:37245   */\n      0xffffffffffffffffffffffffffffffffffffffff000000000000000000000000\n        /* \"#utility.yul\":37172:37177   */\n      dup3\n        /* \"#utility.yul\":37168:37246   */\n      and\n        /* \"#utility.yul\":37157:37246   */\n      swap1\n      pop\n        /* \"#utility.yul\":37102:37252   */\n      swap2\n      swap1\n      pop\n      jump\t// out\n        /* \"#utility.yul\":37258:37412   */\n    tag_409:\n        /* \"#utility.yul\":37301:37312   */\n      0x00\n        /* \"#utility.yul\":37337:37366   */\n      tag_775\n        /* \"#utility.yul\":37361:37364   */\n      dup3\n        /* \"#utility.yul\":37355:37365   */\n      mload\n        /* \"#utility.yul\":37337:37366   */\n      tag_408\n      jump\t// in\n    tag_775:\n        /* \"#utility.yul\":37400:37405   */\n      dup1\n        /* \"#utility.yul\":37376:37405   */\n      swap2\n      pop\n        /* \"#utility.yul\":37313:37412   */\n      pop\n        /* \"#utility.yul\":37258:37412   */\n      swap2\n      swap1\n      pop\n      jump\t// out\n        /* \"#utility.yul\":37418:37525   */\n    tag_410:\n        /* \"#utility.yul\":37462:37470   */\n      0x00\n        /* \"#utility.yul\":37512:37517   */\n      dup3\n        /* \"#utility.yul\":37506:37510   */\n      dup3\n        /* \"#utility.yul\":37502:37518   */\n      shl\n        /* \"#utility.yul\":37481:37518   */\n      swap1\n      pop\n        /* \"#utility.yul\":37418:37525   */\n      swap3\n      swap2\n      pop\n      pop\n      jump\t// out\n        /* \"#utility.yul\":37531:38125   */\n    tag_314:\n        /* \"#utility.yul\":37615:37620   */\n      0x00\n        /* \"#utility.yul\":37646:37684   */\n      tag_778\n        /* \"#utility.yul\":37678:37683   */\n      dup3\n        /* \"#utility.yul\":37646:37684   */\n      tag_329\n      jump\t// in\n    tag_778:\n        /* \"#utility.yul\":37709:37714   */\n      dup3\n        /* \"#utility.yul\":37736:37776   */\n      tag_779\n        /* \"#utility.yul\":37770:37775   */\n      dup5\n        /* \"#utility.yul\":37736:37776   */\n      tag_407\n      jump\t// in\n    tag_779:\n        /* \"#utility.yul\":37724:37776   */\n      swap1\n      pop\n        /* \"#utility.yul\":37795:37830   */\n      tag_780\n        /* \"#utility.yul\":37821:37829   */\n      dup2\n        /* \"#utility.yul\":37795:37830   */\n      tag_409\n      jump\t// in\n    tag_780:\n        /* \"#utility.yul\":37786:37830   */\n      swap3\n      pop\n        /* \"#utility.yul\":37854:37856   */\n      0x14\n        /* \"#utility.yul\":37846:37852   */\n      dup3\n        /* \"#utility.yul\":37843:37857   */\n      lt\n        /* \"#utility.yul\":37840:38118   */\n      iszero\n      tag_781\n      jumpi\n        /* \"#utility.yul\":37925:38094   */\n      tag_782\n        /* \"#utility.yul\":38010:38076   */\n      0xffffffffffffffffffffffffffffffffffffffff000000000000000000000000\n        /* \"#utility.yul\":37980:37986   */\n      dup4\n        /* \"#utility.yul\":37976:37978   */\n      0x14\n        /* \"#utility.yul\":37972:37987   */\n      sub\n        /* \"#utility.yul\":37969:37970   */\n      0x08\n        /* \"#utility.yul\":37965:37988   */\n      mul\n        /* \"#utility.yul\":37925:38094   */\n      tag_410\n      jump\t// in\n    tag_782:\n        /* \"#utility.yul\":37902:37907   */\n      dup4\n        /* \"#utility.yul\":37881:38108   */\n      and\n        /* \"#utility.yul\":37872:38108   */\n      swap3\n      pop\n        /* \"#utility.yul\":37840:38118   */\n    tag_781:\n        /* \"#utility.yul\":37621:38125   */\n      pop\n      pop\n        /* \"#utility.yul\":37531:38125   */\n      swap2\n      swap1\n      pop\n      jump\t// out\n\n    auxdata: 0xa26469706673582212204c742ad1fb41c62e69b92166da45211d05fe80a8f4ea396e77ebb6d42c9f1e9564736f6c634300081f0033\n}\n",
				"bytecode": {
					"linkReferences": {},
					"object": "610120604052348015610010575f5ffd5b50604051612c25380380612c25833981810160405281019061003291906102e1565b335f73ffffffffffffffffffffffffffffffffffffffff168173ffffffffffffffffffffffffffffffffffffffff16036100a3575f6040517f1e4fbdf700000000000000000000000000000000000000000000000000000000815260040161009a9190610367565b60405180910390fd5b6100b2816101c260201b60201c565b508473ffffffffffffffffffffffffffffffffffffffff1660808173ffffffffffffffffffffffffffffffffffffffff16815250508373ffffffffffffffffffffffffffffffffffffffff1660a08173ffffffffffffffffffffffffffffffffffffffff16815250508273ffffffffffffffffffffffffffffffffffffffff1660c08173ffffffffffffffffffffffffffffffffffffffff16815250508173ffffffffffffffffffffffffffffffffffffffff1660e08173ffffffffffffffffffffffffffffffffffffffff16815250508073ffffffffffffffffffffffffffffffffffffffff166101008173ffffffffffffffffffffffffffffffffffffffff16815250505050505050610380565b5f5f5f9054906101000a900473ffffffffffffffffffffffffffffffffffffffff169050815f5f6101000a81548173ffffffffffffffffffffffffffffffffffffffff021916908373ffffffffffffffffffffffffffffffffffffffff1602179055508173ffffffffffffffffffffffffffffffffffffffff168173ffffffffffffffffffffffffffffffffffffffff167f8be0079c531659141344cd1fd0a4f28419497f9722a3daafe3b4186f6b6457e060405160405180910390a35050565b5f5ffd5b5f73ffffffffffffffffffffffffffffffffffffffff82169050919050565b5f6102b082610287565b9050919050565b6102c0816102a6565b81146102ca575f5ffd5b50565b5f815190506102db816102b7565b92915050565b5f5f5f5f5f60a086880312156102fa576102f9610283565b5b5f610307888289016102cd565b9550506020610318888289016102cd565b9450506040610329888289016102cd565b935050606061033a888289016102cd565b925050608061034b888289016102cd565b9150509295509295909350565b610361816102a6565b82525050565b5f60208201905061037a5f830184610358565b92915050565b60805160a05160c05160e051610100516128376103ee5f395f8181610506015281816109830152610f8101525f81816108cf01528181610dc401526114dd01525f818161035c01526109a701525f81816105c001526106dd01525f8181610bcd0152610e6c01526128375ff3fe608060405234801561000f575f5ffd5b5060043610610108575f3560e01c8063aad24061116100a0578063bd846ee71161006f578063bd846ee7146102b6578063bf4d766e146102d2578063f2fde38b146102f0578063f90c0f401461030c578063fa5408011461032a57610108565b8063aad240611461021a578063aed881d81461024a578063b3d6300314610268578063b648f2201461028657610108565b80637a988c54116100dc5780637a988c54146101805780638da5cb5b146101b057806397aba7f9146101ce578063aab7f953146101fe57610108565b8062dc22341461010c57806319b8c941146101285780634eb30d4114610158578063715018a614610176575b5f5ffd5b610126600480360381019061012191906116e7565b61035a565b005b610142600480360381019061013d91906117c1565b610595565b60405161014f919061185c565b60405180910390f35b6101606105be565b60405161016d91906118f6565b60405180910390f35b61017e6105e2565b005b61019a600480360381019061019591906117c1565b6105f5565b6040516101a7919061192f565b60405180910390f35b6101b86105fe565b6040516101c5919061192f565b60405180910390f35b6101e860048036038101906101e39190611aa3565b610625565b6040516101f5919061192f565b60405180910390f35b610218600480360381019061021391906116e7565b6106db565b005b610234600480360381019061022f91906117c1565b610964565b6040516102419190611b17565b60405180910390f35b610252610981565b60405161025f9190611b50565b60405180910390f35b6102706109a5565b60405161027d9190611b89565b60405180910390f35b6102a0600480360381019061029b91906117c1565b6109c9565b6040516102ad9190611bf4565b60405180910390f35b6102d060048036038101906102cb91906116e7565b610bcb565b005b6102da610dc2565b6040516102e79190611c34565b60405180910390f35b61030a60048036038101906103059190611c77565b610de6565b005b610314610e6a565b6040516103219190611cc2565b60405180910390f35b610344600480360381019061033f9190611cdb565b610e8e565b6040516103519190611d15565b60405180910390f35b7f000000000000000000000000000000000000000000000000000000000000000073ffffffffffffffffffffffffffffffffffffffff16639cb2865887876040518363ffffffff1660e01b81526004016103b5929190611d58565b5f6040518083038186803b1580156103cb575f5ffd5b505afa1580156103dd573d5f5f3e3d5ffd5b505050505f856004600681106103f6576103f5611d81565b5b6020020135905046811461043f576040517f08c379a000000000000000000000000000000000000000000000000000000000815260040161043690611df8565b60405180910390fd5b5f61044987610ebd565b905061045a815f1b87878787610f72565b60015f8281526020019081526020015f205f9054906101000a900460ff16156104b8576040517f08c379a00000000000000000000000000000000000000000000000000000000081526004016104af90611e60565b60405180910390fd5b6001805f8381526020019081526020015f205f6101000a81548160ff0219169083151502179055505f610502886005600681106104f8576104f7611d81565b5b60200201356105f5565b90507f000000000000000000000000000000000000000000000000000000000000000073ffffffffffffffffffffffffffffffffffffffff16631722e147826040518263ffffffff1660e01b815260040161055d919061192f565b5f604051808303815f87803b158015610574575f5ffd5b505af1158015610586573d5f5f3e3d5ffd5b50505050505050505050505050565b6060816040516020016105a89190611e9e565b6040516020818303038152906040529050919050565b7f000000000000000000000000000000000000000000000000000000000000000081565b6105ea6111ec565b6105f35f611273565b565b5f819050919050565b5f5f5f9054906101000a900473ffffffffffffffffffffffffffffffffffffffff16905090565b5f604182511461066a576040517f08c379a000000000000000000000000000000000000000000000000000000000815260040161066190611f02565b60405180910390fd5b5f5f5f602085015192506040850151915060608501515f1a90506001868285856040515f81526020016040526040516106a69493929190611f3b565b6020604051602081039080840390855afa1580156106c6573d5f5f3e3d5ffd5b50505060206040510351935050505092915050565b7f000000000000000000000000000000000000000000000000000000000000000073ffffffffffffffffffffffffffffffffffffffff16639cb2865887876040518363ffffffff1660e01b8152600401610736929190611d58565b5f6040518083038186803b15801561074c575f5ffd5b505afa15801561075e573d5f5f3e3d5ffd5b505050505f8560056006811061077757610776611d81565b5b602002013590504681146107c0576040517f08c379a00000000000000000000000000000000000000000000000000000000081526004016107b790611df8565b60405180910390fd5b5f6107e2876003600681106107d8576107d7611d81565b5b60200201356109c9565b90505f610806886002600681106107fc576107fb611d81565b5b60200201356109c9565b90505f61082a896004600681106108205761081f611d81565b5b6020020135610595565b90505f6108368a611334565b9050610847815f1b8a8a8a8a610f72565b60015f8281526020019081526020015f205f9054906101000a900460ff16156108a5576040517f08c379a000000000000000000000000000000000000000000000000000000000815260040161089c90611e60565b60405180910390fd5b6001805f8381526020019081526020015f205f6101000a81548160ff0219169083151502179055507f000000000000000000000000000000000000000000000000000000000000000073ffffffffffffffffffffffffffffffffffffffff16632e057b9b8486856040518463ffffffff1660e01b815260040161092a93929190611f7e565b5f604051808303815f87803b158015610941575f5ffd5b505af1158015610953573d5f5f3e3d5ffd5b505050505050505050505050505050565b6001602052805f5260405f205f915054906101000a900460ff1681565b7f000000000000000000000000000000000000000000000000000000000000000081565b7f000000000000000000000000000000000000000000000000000000000000000081565b60605f82036109e85760405180602001604052805f8152509050610bc6565b5f825f1b90505f5f90505b60208160ff16108015610a4357505f60f81b828260ff1660208110610a1b57610a1a611d81565b5b1a60f81b7effffffffffffffffffffffffffffffffffffffffffffffffffffffffffffff1916145b15610a5b578080610a5390611ff5565b9150506109f3565b5f601f90505b8160ff168160ff16118015610ab357505f60f81b838260ff1660208110610a8b57610a8a611d81565b5b1a60f81b7effffffffffffffffffffffffffffffffffffffffffffffffffffffffffffff1916145b15610acb578080610ac39061201d565b915050610a61565b5f60018383610ada9190612044565b610ae49190612078565b90505f8160ff1667ffffffffffffffff811115610b0457610b0361197f565b5b6040519080825280601f01601f191660200182016040528015610b365781602001600182028036833780820191505090505b5090505f5f90505b8260ff16811015610bbc5785818660ff16610b5991906120ac565b60208110610b6a57610b69611d81565b5b1a60f81b828281518110610b8157610b80611d81565b5b60200101907effffffffffffffffffffffffffffffffffffffffffffffffffffffffffffff191690815f1a9053508080600101915050610b3e565b5080955050505050505b919050565b7f000000000000000000000000000000000000000000000000000000000000000073ffffffffffffffffffffffffffffffffffffffff16639cb2865887876040518363ffffffff1660e01b8152600401610c26929190611d58565b5f6040518083038186803b158015610c3c575f5ffd5b505afa158015610c4e573d5f5f3e3d5ffd5b505050505f5f5f610c5e88611403565b9250925092505f88600260068110610c7957610c78611d81565b5b602002013590505f89600360068110610c9557610c94611d81565b5b602002013590505f610ca68b611334565b9050610cb7815f1b8b8b8b8b610f72565b60015f8281526020019081526020015f205f9054906101000a900460ff1615610d15576040517f08c379a0000000000000000000000000000000000000000000000000000000008152600401610d0c90611e60565b60405180910390fd5b6001805f8381526020019081526020015f205f6101000a81548160ff0219169083151502179055505f83608084901b1790508573ffffffffffffffffffffffffffffffffffffffff16636afbf5d682878a866040518563ffffffff1660e01b8152600401610d8694939291906120ee565b5f604051808303815f87803b158015610d9d575f5ffd5b505af1158015610daf573d5f5f3e3d5ffd5b5050505050505050505050505050505050565b7f000000000000000000000000000000000000000000000000000000000000000081565b610dee6111ec565b5f73ffffffffffffffffffffffffffffffffffffffff168173ffffffffffffffffffffffffffffffffffffffff1603610e5e575f6040517f1e4fbdf7000000000000000000000000000000000000000000000000000000008152600401610e55919061192f565b60405180910390fd5b610e6781611273565b50565b7f000000000000000000000000000000000000000000000000000000000000000081565b5f81604051602001610ea091906121ac565b604051602081830303815290604052805190602001209050919050565b5f5f825f60068110610ed257610ed1611d81565b5b602002013583600160068110610eeb57610eea611d81565b5b602002013584600260068110610f0457610f03611d81565b5b602002013585600360068110610f1d57610f1c611d81565b5b602002013586600460068110610f3657610f35611d81565b5b6020020135604051602001610f4f9594939291906121d1565b604051602081830303815290604052805190602001209050805f1c915050919050565b5f610f7c86610e8e565b90505f7f000000000000000000000000000000000000000000000000000000000000000073ffffffffffffffffffffffffffffffffffffffff16631442e4c96040518163ffffffff1660e01b81526004015f60405180830381865afa158015610fe7573d5f5f3e3d5ffd5b505050506040513d5f823e3d601f19601f8201168201806040525081019061100f9190612303565b90505f5f90505b868690508110156111e257365f8686604185611032919061234a565b90604160018761104291906120ac565b61104c919061234a565b9261105993929190612393565b915091505f6110ab8684848080601f0160208091040260200160405190810160405280939291908181526020018383808284375f81840152601f19601f82011690508083019250505050505050610625565b90505f73ffffffffffffffffffffffffffffffffffffffff168173ffffffffffffffffffffffffffffffffffffffff160361111b576040517f08c379a000000000000000000000000000000000000000000000000000000000815260040161111290612417565b60405180910390fd5b5f5f90505f5f90505b8651811015611190578273ffffffffffffffffffffffffffffffffffffffff1687828151811061115757611156611d81565b5b602002602001015173ffffffffffffffffffffffffffffffffffffffff16036111835760019150611190565b8080600101915050611124565b50806111d1576040517f08c379a00000000000000000000000000000000000000000000000000000000081526004016111c89061247f565b60405180910390fd5b505050508080600101915050611016565b5050505050505050565b6111f46115d7565b73ffffffffffffffffffffffffffffffffffffffff166112126105fe565b73ffffffffffffffffffffffffffffffffffffffff1614611271576112356115d7565b6040517f118cdaa7000000000000000000000000000000000000000000000000000000008152600401611268919061192f565b60405180910390fd5b565b5f5f5f9054906101000a900473ffffffffffffffffffffffffffffffffffffffff169050815f5f6101000a81548173ffffffffffffffffffffffffffffffffffffffff021916908373ffffffffffffffffffffffffffffffffffffffff1602179055508173ffffffffffffffffffffffffffffffffffffffff168173ffffffffffffffffffffffffffffffffffffffff167f8be0079c531659141344cd1fd0a4f28419497f9722a3daafe3b4186f6b6457e060405160405180910390a35050565b5f5f825f6006811061134957611348611d81565b5b60200201358360016006811061136257611361611d81565b5b60200201358460026006811061137b5761137a611d81565b5b60200201358560036006811061139457611393611d81565b5b6020020135866004600681106113ad576113ac611d81565b5b6020020135876005600681106113c6576113c5611d81565b5b60200201356040516020016113e09695949392919061249d565b604051602081830303815290604052805190602001209050805f1c915050919050565b5f5f60605f8460056006811061141c5761141b611d81565b5b602002013590508067ffffffffffffffff1693505f604082901c63ffffffff169050468114611480576040517f08c379a000000000000000000000000000000000000000000000000000000000815260040161147790611df8565b60405180910390fd5b5f608083901c9050611491816109c9565b93505f6114b5886004600681106114ab576114aa611d81565b5b60200201356109c9565b90505f816040516020016114c99190612586565b60405160208183030381529060405290505f7f000000000000000000000000000000000000000000000000000000000000000073ffffffffffffffffffffffffffffffffffffffff166316f1adc1836040518263ffffffff1660e01b815260040161153491906125f1565b5f60405180830381865afa15801561154e573d5f5f3e3d5ffd5b505050506040513d5f823e3d601f19601f820116820180604052508101906115769190612692565b90505f8151116115bb576040517f08c379a00000000000000000000000000000000000000000000000000000000081526004016115b290612723565b60405180910390fd5b806115c59061279b565b60601c97505050505050509193909250565b5f33905090565b5f604051905090565b5f5ffd5b5f5ffd5b5f5ffd5b5f8190508260206008028201111561160e5761160d6115ef565b5b92915050565b5f8190508260206006028201111561162f5761162e6115ef565b5b92915050565b5f5ffd5b5f5ffd5b5f5f83601f84011261165257611651611635565b5b8235905067ffffffffffffffff81111561166f5761166e611639565b5b60208301915083602082028301111561168b5761168a6115ef565b5b9250929050565b5f5f83601f8401126116a7576116a6611635565b5b8235905067ffffffffffffffff8111156116c4576116c3611639565b5b6020830191508360018202830111156116e0576116df6115ef565b5b9250929050565b5f5f5f5f5f5f6102008789031215611702576117016115e7565b5b5f61170f89828a016115f3565b96505061010061172189828a01611614565b9550506101c087013567ffffffffffffffff811115611743576117426115eb565b5b61174f89828a0161163d565b94509450506101e087013567ffffffffffffffff811115611773576117726115eb565b5b61177f89828a01611692565b92509250509295509295509295565b5f819050919050565b6117a08161178e565b81146117aa575f5ffd5b50565b5f813590506117bb81611797565b92915050565b5f602082840312156117d6576117d56115e7565b5b5f6117e3848285016117ad565b91505092915050565b5f81519050919050565b5f82825260208201905092915050565b8281835e5f83830152505050565b5f601f19601f8301169050919050565b5f61182e826117ec565b61183881856117f6565b9350611848818560208601611806565b61185181611814565b840191505092915050565b5f6020820190508181035f8301526118748184611824565b905092915050565b5f73ffffffffffffffffffffffffffffffffffffffff82169050919050565b5f819050919050565b5f6118be6118b96118b48461187c565b61189b565b61187c565b9050919050565b5f6118cf826118a4565b9050919050565b5f6118e0826118c5565b9050919050565b6118f0816118d6565b82525050565b5f6020820190506119095f8301846118e7565b92915050565b5f6119198261187c565b9050919050565b6119298161190f565b82525050565b5f6020820190506119425f830184611920565b92915050565b5f819050919050565b61195a81611948565b8114611964575f5ffd5b50565b5f8135905061197581611951565b92915050565b5f5ffd5b7f4e487b71000000000000000000000000000000000000000000000000000000005f52604160045260245ffd5b6119b582611814565b810181811067ffffffffffffffff821117156119d4576119d361197f565b5b80604052505050565b5f6119e66115de565b90506119f282826119ac565b919050565b5f67ffffffffffffffff821115611a1157611a1061197f565b5b611a1a82611814565b9050602081019050919050565b828183375f83830152505050565b5f611a47611a42846119f7565b6119dd565b905082815260208101848484011115611a6357611a6261197b565b5b611a6e848285611a27565b509392505050565b5f82601f830112611a8a57611a89611635565b5b8135611a9a848260208601611a35565b91505092915050565b5f5f60408385031215611ab957611ab86115e7565b5b5f611ac685828601611967565b925050602083013567ffffffffffffffff811115611ae757611ae66115eb565b5b611af385828601611a76565b9150509250929050565b5f8115159050919050565b611b1181611afd565b82525050565b5f602082019050611b2a5f830184611b08565b92915050565b5f611b3a826118c5565b9050919050565b611b4a81611b30565b82525050565b5f602082019050611b635f830184611b41565b92915050565b5f611b73826118c5565b9050919050565b611b8381611b69565b82525050565b5f602082019050611b9c5f830184611b7a565b92915050565b5f81519050919050565b5f82825260208201905092915050565b5f611bc682611ba2565b611bd08185611bac565b9350611be0818560208601611806565b611be981611814565b840191505092915050565b5f6020820190508181035f830152611c0c8184611bbc565b905092915050565b5f611c1e826118c5565b9050919050565b611c2e81611c14565b82525050565b5f602082019050611c475f830184611c25565b92915050565b611c568161190f565b8114611c60575f5ffd5b50565b5f81359050611c7181611c4d565b92915050565b5f60208284031215611c8c57611c8b6115e7565b5b5f611c9984828501611c63565b91505092915050565b5f611cac826118c5565b9050919050565b611cbc81611ca2565b82525050565b5f602082019050611cd55f830184611cb3565b92915050565b5f60208284031215611cf057611cef6115e7565b5b5f611cfd84828501611967565b91505092915050565b611d0f81611948565b82525050565b5f602082019050611d285f830184611d06565b92915050565b82818337505050565b611d446101008383611d2e565b5050565b611d5460c08383611d2e565b5050565b5f6101c082019050611d6c5f830185611d37565b611d7a610100830184611d48565b9392505050565b7f4e487b71000000000000000000000000000000000000000000000000000000005f52603260045260245ffd5b7f57726f6e672064657374696e6174696f6e20636861696e0000000000000000005f82015250565b5f611de2601783611bac565b9150611ded82611dae565b602082019050919050565b5f6020820190508181035f830152611e0f81611dd6565b9050919050565b7f5265706c61792061747461636b206465746563746564000000000000000000005f82015250565b5f611e4a601683611bac565b9150611e5582611e16565b602082019050919050565b5f6020820190508181035f830152611e7781611e3e565b9050919050565b5f819050919050565b611e98611e938261178e565b611e7e565b82525050565b5f611ea98284611e87565b60208201915081905092915050565b7f496e76616c6964207369676e6174757265206c656e67746800000000000000005f82015250565b5f611eec601883611bac565b9150611ef782611eb8565b602082019050919050565b5f6020820190508181035f830152611f1981611ee0565b9050919050565b5f60ff82169050919050565b611f3581611f20565b82525050565b5f608082019050611f4e5f830187611d06565b611f5b6020830186611f2c565b611f686040830185611d06565b611f756060830184611d06565b95945050505050565b5f6060820190508181035f830152611f968186611bbc565b90508181036020830152611faa8185611bbc565b90508181036040830152611fbe8184611824565b9050949350505050565b7f4e487b71000000000000000000000000000000000000000000000000000000005f52601160045260245ffd5b5f611fff82611f20565b915060ff820361201257612011611fc8565b5b600182019050919050565b5f61202782611f20565b91505f820361203957612038611fc8565b5b600182039050919050565b5f61204e82611f20565b915061205983611f20565b9250828203905060ff81111561207257612071611fc8565b5b92915050565b5f61208282611f20565b915061208d83611f20565b9250828201905060ff8111156120a6576120a5611fc8565b5b92915050565b5f6120b68261178e565b91506120c18361178e565b92508282019050808211156120d9576120d8611fc8565b5b92915050565b6120e88161178e565b82525050565b5f6080820190506121015f830187611920565b81810360208301526121138186611bbc565b905061212260408301856120df565b61212f60608301846120df565b95945050505050565b5f81905092915050565b7f19457468657265756d205369676e6564204d6573736167653a0a3332000000005f82015250565b5f612176601c83612138565b915061218182612142565b601c82019050919050565b5f819050919050565b6121a66121a182611948565b61218c565b82525050565b5f6121b68261216a565b91506121c28284612195565b60208201915081905092915050565b5f6121dc8288611e87565b6020820191506121ec8287611e87565b6020820191506121fc8286611e87565b60208201915061220c8285611e87565b60208201915061221c8284611e87565b6020820191508190509695505050505050565b5f67ffffffffffffffff8211156122495761224861197f565b5b602082029050602081019050919050565b5f8151905061226881611c4d565b92915050565b5f61228061227b8461222f565b6119dd565b905080838252602082019050602084028301858111156122a3576122a26115ef565b5b835b818110156122cc57806122b8888261225a565b8452602084019350506020810190506122a5565b5050509392505050565b5f82601f8301126122ea576122e9611635565b5b81516122fa84826020860161226e565b91505092915050565b5f60208284031215612318576123176115e7565b5b5f82015167ffffffffffffffff811115612335576123346115eb565b5b612341848285016122d6565b91505092915050565b5f6123548261178e565b915061235f8361178e565b925082820261236d8161178e565b9150828204841483151761238457612383611fc8565b5b5092915050565b5f5ffd5b5f5ffd5b5f5f858511156123a6576123a561238b565b5b838611156123b7576123b661238f565b5b6001850283019150848603905094509492505050565b7f496e76616c6964207369676e61747572650000000000000000000000000000005f82015250565b5f612401601183611bac565b915061240c826123cd565b602082019050919050565b5f6020820190508181035f83015261242e816123f5565b9050919050565b7f5369676e6572206e6f7420616e206163746976652076616c696461746f7200005f82015250565b5f612469601e83611bac565b915061247482612435565b602082019050919050565b5f6020820190508181035f8301526124968161245d565b9050919050565b5f6124a88289611e87565b6020820191506124b88288611e87565b6020820191506124c88287611e87565b6020820191506124d88286611e87565b6020820191506124e88285611e87565b6020820191506124f88284611e87565b602082019150819050979650505050505050565b5f61251682611ba2565b6125208185612138565b9350612530818560208601611806565b80840191505092915050565b7f5f7661756c7400000000000000000000000000000000000000000000000000005f82015250565b5f612570600683612138565b915061257b8261253c565b600682019050919050565b5f612591828461250c565b915061259c82612564565b915081905092915050565b7f51696172614261736541737365747300000000000000000000000000000000005f82015250565b5f6125db600f83611bac565b91506125e6826125a7565b602082019050919050565b5f6040820190508181035f830152612608816125cf565b9050818103602083015261261c8184611bbc565b905092915050565b5f612636612631846119f7565b6119dd565b9050828152602081018484840111156126525761265161197b565b5b61265d848285611806565b509392505050565b5f82601f83011261267957612678611635565b5b8151612689848260208601612624565b91505092915050565b5f602082840312156126a7576126a66115e7565b5b5f82015167ffffffffffffffff8111156126c4576126c36115eb565b5b6126d084828501612665565b91505092915050565b7f5661756c74206e6f7420617574686f72697a65640000000000000000000000005f82015250565b5f61270d601483611bac565b9150612718826126d9565b602082019050919050565b5f6020820190508181035f83015261273a81612701565b9050919050565b5f819050602082019050919050565b5f7fffffffffffffffffffffffffffffffffffffffff00000000000000000000000082169050919050565b5f6127868251612750565b80915050919050565b5f82821b905092915050565b5f6127a5826117ec565b826127af84612741565b90506127ba8161277b565b925060148210156127fa576127f57fffffffffffffffffffffffffffffffffffffffff0000000000000000000000008360140360080261278f565b831692505b505091905056fea26469706673582212204c742ad1fb41c62e69b92166da45211d05fe80a8f4ea396e77ebb6d42c9f1e9564736f6c634300081f0033",
					"opcodes": "PUSH2 0x120 PUSH1 0x40 MSTORE CALLVALUE DUP1 ISZERO PUSH2 0x10 JUMPI PUSH0 PUSH0 REVERT JUMPDEST POP PUSH1 0x40 MLOAD PUSH2 0x2C25 CODESIZE SUB DUP1 PUSH2 0x2C25 DUP4 CODECOPY DUP2 DUP2 ADD PUSH1 0x40 MSTORE DUP2 ADD SWAP1 PUSH2 0x32 SWAP2 SWAP1 PUSH2 0x2E1 JUMP JUMPDEST CALLER PUSH0 PUSH20 0xFFFFFFFFFFFFFFFFFFFFFFFFFFFFFFFFFFFFFFFF AND DUP2 PUSH20 0xFFFFFFFFFFFFFFFFFFFFFFFFFFFFFFFFFFFFFFFF AND SUB PUSH2 0xA3 JUMPI PUSH0 PUSH1 0x40 MLOAD PUSH32 0x1E4FBDF700000000000000000000000000000000000000000000000000000000 DUP2 MSTORE PUSH1 0x4 ADD PUSH2 0x9A SWAP2 SWAP1 PUSH2 0x367 JUMP JUMPDEST PUSH1 0x40 MLOAD DUP1 SWAP2 SUB SWAP1 REVERT JUMPDEST PUSH2 0xB2 DUP2 PUSH2 0x1C2 PUSH1 0x20 SHL PUSH1 0x20 SHR JUMP JUMPDEST POP DUP5 PUSH20 0xFFFFFFFFFFFFFFFFFFFFFFFFFFFFFFFFFFFFFFFF AND PUSH1 0x80 DUP2 PUSH20 0xFFFFFFFFFFFFFFFFFFFFFFFFFFFFFFFFFFFFFFFF AND DUP2 MSTORE POP POP DUP4 PUSH20 0xFFFFFFFFFFFFFFFFFFFFFFFFFFFFFFFFFFFFFFFF AND PUSH1 0xA0 DUP2 PUSH20 0xFFFFFFFFFFFFFFFFFFFFFFFFFFFFFFFFFFFFFFFF AND DUP2 MSTORE POP POP DUP3 PUSH20 0xFFFFFFFFFFFFFFFFFFFFFFFFFFFFFFFFFFFFFFFF AND PUSH1 0xC0 DUP2 PUSH20 0xFFFFFFFFFFFFFFFFFFFFFFFFFFFFFFFFFFFFFFFF AND DUP2 MSTORE POP POP DUP2 PUSH20 0xFFFFFFFFFFFFFFFFFFFFFFFFFFFFFFFFFFFFFFFF AND PUSH1 0xE0 DUP2 PUSH20 0xFFFFFFFFFFFFFFFFFFFFFFFFFFFFFFFFFFFFFFFF AND DUP2 MSTORE POP POP DUP1 PUSH20 0xFFFFFFFFFFFFFFFFFFFFFFFFFFFFFFFFFFFFFFFF AND PUSH2 0x100 DUP2 PUSH20 0xFFFFFFFFFFFFFFFFFFFFFFFFFFFFFFFFFFFFFFFF AND DUP2 MSTORE POP POP POP POP POP POP POP PUSH2 0x380 JUMP JUMPDEST PUSH0 PUSH0 PUSH0 SWAP1 SLOAD SWAP1 PUSH2 0x100 EXP SWAP1 DIV PUSH20 0xFFFFFFFFFFFFFFFFFFFFFFFFFFFFFFFFFFFFFFFF AND SWAP1 POP DUP2 PUSH0 PUSH0 PUSH2 0x100 EXP DUP2 SLOAD DUP2 PUSH20 0xFFFFFFFFFFFFFFFFFFFFFFFFFFFFFFFFFFFFFFFF MUL NOT AND SWAP1 DUP4 PUSH20 0xFFFFFFFFFFFFFFFFFFFFFFFFFFFFFFFFFFFFFFFF AND MUL OR SWAP1 SSTORE POP DUP2 PUSH20 0xFFFFFFFFFFFFFFFFFFFFFFFFFFFFFFFFFFFFFFFF AND DUP2 PUSH20 0xFFFFFFFFFFFFFFFFFFFFFFFFFFFFFFFFFFFFFFFF AND PUSH32 0x8BE0079C531659141344CD1FD0A4F28419497F9722A3DAAFE3B4186F6B6457E0 PUSH1 0x40 MLOAD PUSH1 0x40 MLOAD DUP1 SWAP2 SUB SWAP1 LOG3 POP POP JUMP JUMPDEST PUSH0 PUSH0 REVERT JUMPDEST PUSH0 PUSH20 0xFFFFFFFFFFFFFFFFFFFFFFFFFFFFFFFFFFFFFFFF DUP3 AND SWAP1 POP SWAP2 SWAP1 POP JUMP JUMPDEST PUSH0 PUSH2 0x2B0 DUP3 PUSH2 0x287 JUMP JUMPDEST SWAP1 POP SWAP2 SWAP1 POP JUMP JUMPDEST PUSH2 0x2C0 DUP2 PUSH2 0x2A6 JUMP JUMPDEST DUP2 EQ PUSH2 0x2CA JUMPI PUSH0 PUSH0 REVERT JUMPDEST POP JUMP JUMPDEST PUSH0 DUP2 MLOAD SWAP1 POP PUSH2 0x2DB DUP2 PUSH2 0x2B7 JUMP JUMPDEST SWAP3 SWAP2 POP POP JUMP JUMPDEST PUSH0 PUSH0 PUSH0 PUSH0 PUSH0 PUSH1 0xA0 DUP7 DUP9 SUB SLT ISZERO PUSH2 0x2FA JUMPI PUSH2 0x2F9 PUSH2 0x283 JUMP JUMPDEST JUMPDEST PUSH0 PUSH2 0x307 DUP9 DUP3 DUP10 ADD PUSH2 0x2CD JUMP JUMPDEST SWAP6 POP POP PUSH1 0x20 PUSH2 0x318 DUP9 DUP3 DUP10 ADD PUSH2 0x2CD JUMP JUMPDEST SWAP5 POP POP PUSH1 0x40 PUSH2 0x329 DUP9 DUP3 DUP10 ADD PUSH2 0x2CD JUMP JUMPDEST SWAP4 POP POP PUSH1 0x60 PUSH2 0x33A DUP9 DUP3 DUP10 ADD PUSH2 0x2CD JUMP JUMPDEST SWAP3 POP POP PUSH1 0x80 PUSH2 0x34B DUP9 DUP3 DUP10 ADD PUSH2 0x2CD JUMP JUMPDEST SWAP2 POP POP SWAP3 SWAP6 POP SWAP3 SWAP6 SWAP1 SWAP4 POP JUMP JUMPDEST PUSH2 0x361 DUP2 PUSH2 0x2A6 JUMP JUMPDEST DUP3 MSTORE POP POP JUMP JUMPDEST PUSH0 PUSH1 0x20 DUP3 ADD SWAP1 POP PUSH2 0x37A PUSH0 DUP4 ADD DUP5 PUSH2 0x358 JUMP JUMPDEST SWAP3 SWAP2 POP POP JUMP JUMPDEST PUSH1 0x80 MLOAD PUSH1 0xA0 MLOAD PUSH1 0xC0 MLOAD PUSH1 0xE0 MLOAD PUSH2 0x100 MLOAD PUSH2 0x2837 PUSH2 0x3EE PUSH0 CODECOPY PUSH0 DUP2 DUP2 PUSH2 0x506 ADD MSTORE DUP2 DUP2 PUSH2 0x983 ADD MSTORE PUSH2 0xF81 ADD MSTORE PUSH0 DUP2 DUP2 PUSH2 0x8CF ADD MSTORE DUP2 DUP2 PUSH2 0xDC4 ADD MSTORE PUSH2 0x14DD ADD MSTORE PUSH0 DUP2 DUP2 PUSH2 0x35C ADD MSTORE PUSH2 0x9A7 ADD MSTORE PUSH0 DUP2 DUP2 PUSH2 0x5C0 ADD MSTORE PUSH2 0x6DD ADD MSTORE PUSH0 DUP2 DUP2 PUSH2 0xBCD ADD MSTORE PUSH2 0xE6C ADD MSTORE PUSH2 0x2837 PUSH0 RETURN INVALID PUSH1 0x80 PUSH1 0x40 MSTORE CALLVALUE DUP1 ISZERO PUSH2 0xF JUMPI PUSH0 PUSH0 REVERT JUMPDEST POP PUSH1 0x4 CALLDATASIZE LT PUSH2 0x108 JUMPI PUSH0 CALLDATALOAD PUSH1 0xE0 SHR DUP1 PUSH4 0xAAD24061 GT PUSH2 0xA0 JUMPI DUP1 PUSH4 0xBD846EE7 GT PUSH2 0x6F JUMPI DUP1 PUSH4 0xBD846EE7 EQ PUSH2 0x2B6 JUMPI DUP1 PUSH4 0xBF4D766E EQ PUSH2 0x2D2 JUMPI DUP1 PUSH4 0xF2FDE38B EQ PUSH2 0x2F0 JUMPI DUP1 PUSH4 0xF90C0F40 EQ PUSH2 0x30C JUMPI DUP1 PUSH4 0xFA540801 EQ PUSH2 0x32A JUMPI PUSH2 0x108 JUMP JUMPDEST DUP1 PUSH4 0xAAD24061 EQ PUSH2 0x21A JUMPI DUP1 PUSH4 0xAED881D8 EQ PUSH2 0x24A JUMPI DUP1 PUSH4 0xB3D63003 EQ PUSH2 0x268 JUMPI DUP1 PUSH4 0xB648F220 EQ PUSH2 0x286 JUMPI PUSH2 0x108 JUMP JUMPDEST DUP1 PUSH4 0x7A988C54 GT PUSH2 0xDC JUMPI DUP1 PUSH4 0x7A988C54 EQ PUSH2 0x180 JUMPI DUP1 PUSH4 0x8DA5CB5B EQ PUSH2 0x1B0 JUMPI DUP1 PUSH4 0x97ABA7F9 EQ PUSH2 0x1CE JUMPI DUP1 PUSH4 0xAAB7F953 EQ PUSH2 0x1FE JUMPI PUSH2 0x108 JUMP JUMPDEST DUP1 PUSH3 0xDC2234 EQ PUSH2 0x10C JUMPI DUP1 PUSH4 0x19B8C941 EQ PUSH2 0x128 JUMPI DUP1 PUSH4 0x4EB30D41 EQ PUSH2 0x158 JUMPI DUP1 PUSH4 0x715018A6 EQ PUSH2 0x176 JUMPI JUMPDEST PUSH0 PUSH0 REVERT JUMPDEST PUSH2 0x126 PUSH1 0x4 DUP1 CALLDATASIZE SUB DUP2 ADD SWAP1 PUSH2 0x121 SWAP2 SWAP1 PUSH2 0x16E7 JUMP JUMPDEST PUSH2 0x35A JUMP JUMPDEST STOP JUMPDEST PUSH2 0x142 PUSH1 0x4 DUP1 CALLDATASIZE SUB DUP2 ADD SWAP1 PUSH2 0x13D SWAP2 SWAP1 PUSH2 0x17C1 JUMP JUMPDEST PUSH2 0x595 JUMP JUMPDEST PUSH1 0x40 MLOAD PUSH2 0x14F SWAP2 SWAP1 PUSH2 0x185C JUMP JUMPDEST PUSH1 0x40 MLOAD DUP1 SWAP2 SUB SWAP1 RETURN JUMPDEST PUSH2 0x160 PUSH2 0x5BE JUMP JUMPDEST PUSH1 0x40 MLOAD PUSH2 0x16D SWAP2 SWAP1 PUSH2 0x18F6 JUMP JUMPDEST PUSH1 0x40 MLOAD DUP1 SWAP2 SUB SWAP1 RETURN JUMPDEST PUSH2 0x17E PUSH2 0x5E2 JUMP JUMPDEST STOP JUMPDEST PUSH2 0x19A PUSH1 0x4 DUP1 CALLDATASIZE SUB DUP2 ADD SWAP1 PUSH2 0x195 SWAP2 SWAP1 PUSH2 0x17C1 JUMP JUMPDEST PUSH2 0x5F5 JUMP JUMPDEST PUSH1 0x40 MLOAD PUSH2 0x1A7 SWAP2 SWAP1 PUSH2 0x192F JUMP JUMPDEST PUSH1 0x40 MLOAD DUP1 SWAP2 SUB SWAP1 RETURN JUMPDEST PUSH2 0x1B8 PUSH2 0x5FE JUMP JUMPDEST PUSH1 0x40 MLOAD PUSH2 0x1C5 SWAP2 SWAP1 PUSH2 0x192F JUMP JUMPDEST PUSH1 0x40 MLOAD DUP1 SWAP2 SUB SWAP1 RETURN JUMPDEST PUSH2 0x1E8 PUSH1 0x4 DUP1 CALLDATASIZE SUB DUP2 ADD SWAP1 PUSH2 0x1E3 SWAP2 SWAP1 PUSH2 0x1AA3 JUMP JUMPDEST PUSH2 0x625 JUMP JUMPDEST PUSH1 0x40 MLOAD PUSH2 0x1F5 SWAP2 SWAP1 PUSH2 0x192F JUMP JUMPDEST PUSH1 0x40 MLOAD DUP1 SWAP2 SUB SWAP1 RETURN JUMPDEST PUSH2 0x218 PUSH1 0x4 DUP1 CALLDATASIZE SUB DUP2 ADD SWAP1 PUSH2 0x213 SWAP2 SWAP1 PUSH2 0x16E7 JUMP JUMPDEST PUSH2 0x6DB JUMP JUMPDEST STOP JUMPDEST PUSH2 0x234 PUSH1 0x4 DUP1 CALLDATASIZE SUB DUP2 ADD SWAP1 PUSH2 0x22F SWAP2 SWAP1 PUSH2 0x17C1 JUMP JUMPDEST PUSH2 0x964 JUMP JUMPDEST PUSH1 0x40 MLOAD PUSH2 0x241 SWAP2 SWAP1 PUSH2 0x1B17 JUMP JUMPDEST PUSH1 0x40 MLOAD DUP1 SWAP2 SUB SWAP1 RETURN JUMPDEST PUSH2 0x252 PUSH2 0x981 JUMP JUMPDEST PUSH1 0x40 MLOAD PUSH2 0x25F SWAP2 SWAP1 PUSH2 0x1B50 JUMP JUMPDEST PUSH1 0x40 MLOAD DUP1 SWAP2 SUB SWAP1 RETURN JUMPDEST PUSH2 0x270 PUSH2 0x9A5 JUMP JUMPDEST PUSH1 0x40 MLOAD PUSH2 0x27D SWAP2 SWAP1 PUSH2 0x1B89 JUMP JUMPDEST PUSH1 0x40 MLOAD DUP1 SWAP2 SUB SWAP1 RETURN JUMPDEST PUSH2 0x2A0 PUSH1 0x4 DUP1 CALLDATASIZE SUB DUP2 ADD SWAP1 PUSH2 0x29B SWAP2 SWAP1 PUSH2 0x17C1 JUMP JUMPDEST PUSH2 0x9C9 JUMP JUMPDEST PUSH1 0x40 MLOAD PUSH2 0x2AD SWAP2 SWAP1 PUSH2 0x1BF4 JUMP JUMPDEST PUSH1 0x40 MLOAD DUP1 SWAP2 SUB SWAP1 RETURN JUMPDEST PUSH2 0x2D0 PUSH1 0x4 DUP1 CALLDATASIZE SUB DUP2 ADD SWAP1 PUSH2 0x2CB SWAP2 SWAP1 PUSH2 0x16E7 JUMP JUMPDEST PUSH2 0xBCB JUMP JUMPDEST STOP JUMPDEST PUSH2 0x2DA PUSH2 0xDC2 JUMP JUMPDEST PUSH1 0x40 MLOAD PUSH2 0x2E7 SWAP2 SWAP1 PUSH2 0x1C34 JUMP JUMPDEST PUSH1 0x40 MLOAD DUP1 SWAP2 SUB SWAP1 RETURN JUMPDEST PUSH2 0x30A PUSH1 0x4 DUP1 CALLDATASIZE SUB DUP2 ADD SWAP1 PUSH2 0x305 SWAP2 SWAP1 PUSH2 0x1C77 JUMP JUMPDEST PUSH2 0xDE6 JUMP JUMPDEST STOP JUMPDEST PUSH2 0x314 PUSH2 0xE6A JUMP JUMPDEST PUSH1 0x40 MLOAD PUSH2 0x321 SWAP2 SWAP1 PUSH2 0x1CC2 JUMP JUMPDEST PUSH1 0x40 MLOAD DUP1 SWAP2 SUB SWAP1 RETURN JUMPDEST PUSH2 0x344 PUSH1 0x4 DUP1 CALLDATASIZE SUB DUP2 ADD SWAP1 PUSH2 0x33F SWAP2 SWAP1 PUSH2 0x1CDB JUMP JUMPDEST PUSH2 0xE8E JUMP JUMPDEST PUSH1 0x40 MLOAD PUSH2 0x351 SWAP2 SWAP1 PUSH2 0x1D15 JUMP JUMPDEST PUSH1 0x40 MLOAD DUP1 SWAP2 SUB SWAP1 RETURN JUMPDEST PUSH32 0x0 PUSH20 0xFFFFFFFFFFFFFFFFFFFFFFFFFFFFFFFFFFFFFFFF AND PUSH4 0x9CB28658 DUP8 DUP8 PUSH1 0x40 MLOAD DUP4 PUSH4 0xFFFFFFFF AND PUSH1 0xE0 SHL DUP2 MSTORE PUSH1 0x4 ADD PUSH2 0x3B5 SWAP3 SWAP2 SWAP1 PUSH2 0x1D58 JUMP JUMPDEST PUSH0 PUSH1 0x40 MLOAD DUP1 DUP4 SUB DUP2 DUP7 DUP1 EXTCODESIZE ISZERO DUP1 ISZERO PUSH2 0x3CB JUMPI PUSH0 PUSH0 REVERT JUMPDEST POP GAS STATICCALL ISZERO DUP1 ISZERO PUSH2 0x3DD JUMPI RETURNDATASIZE PUSH0 PUSH0 RETURNDATACOPY RETURNDATASIZE PUSH0 REVERT JUMPDEST POP POP POP POP PUSH0 DUP6 PUSH1 0x4 PUSH1 0x6 DUP2 LT PUSH2 0x3F6 JUMPI PUSH2 0x3F5 PUSH2 0x1D81 JUMP JUMPDEST JUMPDEST PUSH1 0x20 MUL ADD CALLDATALOAD SWAP1 POP CHAINID DUP2 EQ PUSH2 0x43F JUMPI PUSH1 0x40 MLOAD PUSH32 0x8C379A000000000000000000000000000000000000000000000000000000000 DUP2 MSTORE PUSH1 0x4 ADD PUSH2 0x436 SWAP1 PUSH2 0x1DF8 JUMP JUMPDEST PUSH1 0x40 MLOAD DUP1 SWAP2 SUB SWAP1 REVERT JUMPDEST PUSH0 PUSH2 0x449 DUP8 PUSH2 0xEBD JUMP JUMPDEST SWAP1 POP PUSH2 0x45A DUP2 PUSH0 SHL DUP8 DUP8 DUP8 DUP8 PUSH2 0xF72 JUMP JUMPDEST PUSH1 0x1 PUSH0 DUP3 DUP2 MSTORE PUSH1 0x20 ADD SWAP1 DUP2 MSTORE PUSH1 0x20 ADD PUSH0 KECCAK256 PUSH0 SWAP1 SLOAD SWAP1 PUSH2 0x100 EXP SWAP1 DIV PUSH1 0xFF AND ISZERO PUSH2 0x4B8 JUMPI PUSH1 0x40 MLOAD PUSH32 0x8C379A000000000000000000000000000000000000000000000000000000000 DUP2 MSTORE PUSH1 0x4 ADD PUSH2 0x4AF SWAP1 PUSH2 0x1E60 JUMP JUMPDEST PUSH1 0x40 MLOAD DUP1 SWAP2 SUB SWAP1 REVERT JUMPDEST PUSH1 0x1 DUP1 PUSH0 DUP4 DUP2 MSTORE PUSH1 0x20 ADD SWAP1 DUP2 MSTORE PUSH1 0x20 ADD PUSH0 KECCAK256 PUSH0 PUSH2 0x100 EXP DUP2 SLOAD DUP2 PUSH1 0xFF MUL NOT AND SWAP1 DUP4 ISZERO ISZERO MUL OR SWAP1 SSTORE POP PUSH0 PUSH2 0x502 DUP9 PUSH1 0x5 PUSH1 0x6 DUP2 LT PUSH2 0x4F8 JUMPI PUSH2 0x4F7 PUSH2 0x1D81 JUMP JUMPDEST JUMPDEST PUSH1 0x20 MUL ADD CALLDATALOAD PUSH2 0x5F5 JUMP JUMPDEST SWAP1 POP PUSH32 0x0 PUSH20 0xFFFFFFFFFFFFFFFFFFFFFFFFFFFFFFFFFFFFFFFF AND PUSH4 0x1722E147 DUP3 PUSH1 0x40 MLOAD DUP3 PUSH4 0xFFFFFFFF AND PUSH1 0xE0 SHL DUP2 MSTORE PUSH1 0x4 ADD PUSH2 0x55D SWAP2 SWAP1 PUSH2 0x192F JUMP JUMPDEST PUSH0 PUSH1 0x40 MLOAD DUP1 DUP4 SUB DUP2 PUSH0 DUP8 DUP1 EXTCODESIZE ISZERO DUP1 ISZERO PUSH2 0x574 JUMPI PUSH0 PUSH0 REVERT JUMPDEST POP GAS CALL ISZERO DUP1 ISZERO PUSH2 0x586 JUMPI RETURNDATASIZE PUSH0 PUSH0 RETURNDATACOPY RETURNDATASIZE PUSH0 REVERT JUMPDEST POP POP POP POP POP POP POP POP POP POP POP POP POP JUMP JUMPDEST PUSH1 0x60 DUP2 PUSH1 0x40 MLOAD PUSH1 0x20 ADD PUSH2 0x5A8 SWAP2 SWAP1 PUSH2 0x1E9E JUMP JUMPDEST PUSH1 0x40 MLOAD PUSH1 0x20 DUP2 DUP4 SUB SUB DUP2 MSTORE SWAP1 PUSH1 0x40 MSTORE SWAP1 POP SWAP2 SWAP1 POP JUMP JUMPDEST PUSH32 0x0 DUP2 JUMP JUMPDEST PUSH2 0x5EA PUSH2 0x11EC JUMP JUMPDEST PUSH2 0x5F3 PUSH0 PUSH2 0x1273 JUMP JUMPDEST JUMP JUMPDEST PUSH0 DUP2 SWAP1 POP SWAP2 SWAP1 POP JUMP JUMPDEST PUSH0 PUSH0 PUSH0 SWAP1 SLOAD SWAP1 PUSH2 0x100 EXP SWAP1 DIV PUSH20 0xFFFFFFFFFFFFFFFFFFFFFFFFFFFFFFFFFFFFFFFF AND SWAP1 POP SWAP1 JUMP JUMPDEST PUSH0 PUSH1 0x41 DUP3 MLOAD EQ PUSH2 0x66A JUMPI PUSH1 0x40 MLOAD PUSH32 0x8C379A000000000000000000000000000000000000000000000000000000000 DUP2 MSTORE PUSH1 0x4 ADD PUSH2 0x661 SWAP1 PUSH2 0x1F02 JUMP JUMPDEST PUSH1 0x40 MLOAD DUP1 SWAP2 SUB SWAP1 REVERT JUMPDEST PUSH0 PUSH0 PUSH0 PUSH1 0x20 DUP6 ADD MLOAD SWAP3 POP PUSH1 0x40 DUP6 ADD MLOAD SWAP2 POP PUSH1 0x60 DUP6 ADD MLOAD PUSH0 BYTE SWAP1 POP PUSH1 0x1 DUP7 DUP3 DUP6 DUP6 PUSH1 0x40 MLOAD PUSH0 DUP2 MSTORE PUSH1 0x20 ADD PUSH1 0x40 MSTORE PUSH1 0x40 MLOAD PUSH2 0x6A6 SWAP5 SWAP4 SWAP3 SWAP2 SWAP1 PUSH2 0x1F3B JUMP JUMPDEST PUSH1 0x20 PUSH1 0x40 MLOAD PUSH1 0x20 DUP2 SUB SWAP1 DUP1 DUP5 SUB SWAP1 DUP6 GAS STATICCALL ISZERO DUP1 ISZERO PUSH2 0x6C6 JUMPI RETURNDATASIZE PUSH0 PUSH0 RETURNDATACOPY RETURNDATASIZE PUSH0 REVERT JUMPDEST POP POP POP PUSH1 0x20 PUSH1 0x40 MLOAD SUB MLOAD SWAP4 POP POP POP POP SWAP3 SWAP2 POP POP JUMP JUMPDEST PUSH32 0x0 PUSH20 0xFFFFFFFFFFFFFFFFFFFFFFFFFFFFFFFFFFFFFFFF AND PUSH4 0x9CB28658 DUP8 DUP8 PUSH1 0x40 MLOAD DUP4 PUSH4 0xFFFFFFFF AND PUSH1 0xE0 SHL DUP2 MSTORE PUSH1 0x4 ADD PUSH2 0x736 SWAP3 SWAP2 SWAP1 PUSH2 0x1D58 JUMP JUMPDEST PUSH0 PUSH1 0x40 MLOAD DUP1 DUP4 SUB DUP2 DUP7 DUP1 EXTCODESIZE ISZERO DUP1 ISZERO PUSH2 0x74C JUMPI PUSH0 PUSH0 REVERT JUMPDEST POP GAS STATICCALL ISZERO DUP1 ISZERO PUSH2 0x75E JUMPI RETURNDATASIZE PUSH0 PUSH0 RETURNDATACOPY RETURNDATASIZE PUSH0 REVERT JUMPDEST POP POP POP POP PUSH0 DUP6 PUSH1 0x5 PUSH1 0x6 DUP2 LT PUSH2 0x777 JUMPI PUSH2 0x776 PUSH2 0x1D81 JUMP JUMPDEST JUMPDEST PUSH1 0x20 MUL ADD CALLDATALOAD SWAP1 POP CHAINID DUP2 EQ PUSH2 0x7C0 JUMPI PUSH1 0x40 MLOAD PUSH32 0x8C379A000000000000000000000000000000000000000000000000000000000 DUP2 MSTORE PUSH1 0x4 ADD PUSH2 0x7B7 SWAP1 PUSH2 0x1DF8 JUMP JUMPDEST PUSH1 0x40 MLOAD DUP1 SWAP2 SUB SWAP1 REVERT JUMPDEST PUSH0 PUSH2 0x7E2 DUP8 PUSH1 0x3 PUSH1 0x6 DUP2 LT PUSH2 0x7D8 JUMPI PUSH2 0x7D7 PUSH2 0x1D81 JUMP JUMPDEST JUMPDEST PUSH1 0x20 MUL ADD CALLDATALOAD PUSH2 0x9C9 JUMP JUMPDEST SWAP1 POP PUSH0 PUSH2 0x806 DUP9 PUSH1 0x2 PUSH1 0x6 DUP2 LT PUSH2 0x7FC JUMPI PUSH2 0x7FB PUSH2 0x1D81 JUMP JUMPDEST JUMPDEST PUSH1 0x20 MUL ADD CALLDATALOAD PUSH2 0x9C9 JUMP JUMPDEST SWAP1 POP PUSH0 PUSH2 0x82A DUP10 PUSH1 0x4 PUSH1 0x6 DUP2 LT PUSH2 0x820 JUMPI PUSH2 0x81F PUSH2 0x1D81 JUMP JUMPDEST JUMPDEST PUSH1 0x20 MUL ADD CALLDATALOAD PUSH2 0x595 JUMP JUMPDEST SWAP1 POP PUSH0 PUSH2 0x836 DUP11 PUSH2 0x1334 JUMP JUMPDEST SWAP1 POP PUSH2 0x847 DUP2 PUSH0 SHL DUP11 DUP11 DUP11 DUP11 PUSH2 0xF72 JUMP JUMPDEST PUSH1 0x1 PUSH0 DUP3 DUP2 MSTORE PUSH1 0x20 ADD SWAP1 DUP2 MSTORE PUSH1 0x20 ADD PUSH0 KECCAK256 PUSH0 SWAP1 SLOAD SWAP1 PUSH2 0x100 EXP SWAP1 DIV PUSH1 0xFF AND ISZERO PUSH2 0x8A5 JUMPI PUSH1 0x40 MLOAD PUSH32 0x8C379A000000000000000000000000000000000000000000000000000000000 DUP2 MSTORE PUSH1 0x4 ADD PUSH2 0x89C SWAP1 PUSH2 0x1E60 JUMP JUMPDEST PUSH1 0x40 MLOAD DUP1 SWAP2 SUB SWAP1 REVERT JUMPDEST PUSH1 0x1 DUP1 PUSH0 DUP4 DUP2 MSTORE PUSH1 0x20 ADD SWAP1 DUP2 MSTORE PUSH1 0x20 ADD PUSH0 KECCAK256 PUSH0 PUSH2 0x100 EXP DUP2 SLOAD DUP2 PUSH1 0xFF MUL NOT AND SWAP1 DUP4 ISZERO ISZERO MUL OR SWAP1 SSTORE POP PUSH32 0x0 PUSH20 0xFFFFFFFFFFFFFFFFFFFFFFFFFFFFFFFFFFFFFFFF AND PUSH4 0x2E057B9B DUP5 DUP7 DUP6 PUSH1 0x40 MLOAD DUP5 PUSH4 0xFFFFFFFF AND PUSH1 0xE0 SHL DUP2 MSTORE PUSH1 0x4 ADD PUSH2 0x92A SWAP4 SWAP3 SWAP2 SWAP1 PUSH2 0x1F7E JUMP JUMPDEST PUSH0 PUSH1 0x40 MLOAD DUP1 DUP4 SUB DUP2 PUSH0 DUP8 DUP1 EXTCODESIZE ISZERO DUP1 ISZERO PUSH2 0x941 JUMPI PUSH0 PUSH0 REVERT JUMPDEST POP GAS CALL ISZERO DUP1 ISZERO PUSH2 0x953 JUMPI RETURNDATASIZE PUSH0 PUSH0 RETURNDATACOPY RETURNDATASIZE PUSH0 REVERT JUMPDEST POP POP POP POP POP POP POP POP POP POP POP POP POP POP POP JUMP JUMPDEST PUSH1 0x1 PUSH1 0x20 MSTORE DUP1 PUSH0 MSTORE PUSH1 0x40 PUSH0 KECCAK256 PUSH0 SWAP2 POP SLOAD SWAP1 PUSH2 0x100 EXP SWAP1 DIV PUSH1 0xFF AND DUP2 JUMP JUMPDEST PUSH32 0x0 DUP2 JUMP JUMPDEST PUSH32 0x0 DUP2 JUMP JUMPDEST PUSH1 0x60 PUSH0 DUP3 SUB PUSH2 0x9E8 JUMPI PUSH1 0x40 MLOAD DUP1 PUSH1 0x20 ADD PUSH1 0x40 MSTORE DUP1 PUSH0 DUP2 MSTORE POP SWAP1 POP PUSH2 0xBC6 JUMP JUMPDEST PUSH0 DUP3 PUSH0 SHL SWAP1 POP PUSH0 PUSH0 SWAP1 POP JUMPDEST PUSH1 0x20 DUP2 PUSH1 0xFF AND LT DUP1 ISZERO PUSH2 0xA43 JUMPI POP PUSH0 PUSH1 0xF8 SHL DUP3 DUP3 PUSH1 0xFF AND PUSH1 0x20 DUP2 LT PUSH2 0xA1B JUMPI PUSH2 0xA1A PUSH2 0x1D81 JUMP JUMPDEST JUMPDEST BYTE PUSH1 0xF8 SHL PUSH31 0xFFFFFFFFFFFFFFFFFFFFFFFFFFFFFFFFFFFFFFFFFFFFFFFFFFFFFFFFFFFFFF NOT AND EQ JUMPDEST ISZERO PUSH2 0xA5B JUMPI DUP1 DUP1 PUSH2 0xA53 SWAP1 PUSH2 0x1FF5 JUMP JUMPDEST SWAP2 POP POP PUSH2 0x9F3 JUMP JUMPDEST PUSH0 PUSH1 0x1F SWAP1 POP JUMPDEST DUP2 PUSH1 0xFF AND DUP2 PUSH1 0xFF AND GT DUP1 ISZERO PUSH2 0xAB3 JUMPI POP PUSH0 PUSH1 0xF8 SHL DUP4 DUP3 PUSH1 0xFF AND PUSH1 0x20 DUP2 LT PUSH2 0xA8B JUMPI PUSH2 0xA8A PUSH2 0x1D81 JUMP JUMPDEST JUMPDEST BYTE PUSH1 0xF8 SHL PUSH31 0xFFFFFFFFFFFFFFFFFFFFFFFFFFFFFFFFFFFFFFFFFFFFFFFFFFFFFFFFFFFFFF NOT AND EQ JUMPDEST ISZERO PUSH2 0xACB JUMPI DUP1 DUP1 PUSH2 0xAC3 SWAP1 PUSH2 0x201D JUMP JUMPDEST SWAP2 POP POP PUSH2 0xA61 JUMP JUMPDEST PUSH0 PUSH1 0x1 DUP4 DUP4 PUSH2 0xADA SWAP2 SWAP1 PUSH2 0x2044 JUMP JUMPDEST PUSH2 0xAE4 SWAP2 SWAP1 PUSH2 0x2078 JUMP JUMPDEST SWAP1 POP PUSH0 DUP2 PUSH1 0xFF AND PUSH8 0xFFFFFFFFFFFFFFFF DUP2 GT ISZERO PUSH2 0xB04 JUMPI PUSH2 0xB03 PUSH2 0x197F JUMP JUMPDEST JUMPDEST PUSH1 0x40 MLOAD SWAP1 DUP1 DUP3 MSTORE DUP1 PUSH1 0x1F ADD PUSH1 0x1F NOT AND PUSH1 0x20 ADD DUP3 ADD PUSH1 0x40 MSTORE DUP1 ISZERO PUSH2 0xB36 JUMPI DUP2 PUSH1 0x20 ADD PUSH1 0x1 DUP3 MUL DUP1 CALLDATASIZE DUP4 CALLDATACOPY DUP1 DUP3 ADD SWAP2 POP POP SWAP1 POP JUMPDEST POP SWAP1 POP PUSH0 PUSH0 SWAP1 POP JUMPDEST DUP3 PUSH1 0xFF AND DUP2 LT ISZERO PUSH2 0xBBC JUMPI DUP6 DUP2 DUP7 PUSH1 0xFF AND PUSH2 0xB59 SWAP2 SWAP1 PUSH2 0x20AC JUMP JUMPDEST PUSH1 0x20 DUP2 LT PUSH2 0xB6A JUMPI PUSH2 0xB69 PUSH2 0x1D81 JUMP JUMPDEST JUMPDEST BYTE PUSH1 0xF8 SHL DUP3 DUP3 DUP2 MLOAD DUP2 LT PUSH2 0xB81 JUMPI PUSH2 0xB80 PUSH2 0x1D81 JUMP JUMPDEST JUMPDEST PUSH1 0x20 ADD ADD SWAP1 PUSH31 0xFFFFFFFFFFFFFFFFFFFFFFFFFFFFFFFFFFFFFFFFFFFFFFFFFFFFFFFFFFFFFF NOT AND SWAP1 DUP2 PUSH0 BYTE SWAP1 MSTORE8 POP DUP1 DUP1 PUSH1 0x1 ADD SWAP2 POP POP PUSH2 0xB3E JUMP JUMPDEST POP DUP1 SWAP6 POP POP POP POP POP POP JUMPDEST SWAP2 SWAP1 POP JUMP JUMPDEST PUSH32 0x0 PUSH20 0xFFFFFFFFFFFFFFFFFFFFFFFFFFFFFFFFFFFFFFFF AND PUSH4 0x9CB28658 DUP8 DUP8 PUSH1 0x40 MLOAD DUP4 PUSH4 0xFFFFFFFF AND PUSH1 0xE0 SHL DUP2 MSTORE PUSH1 0x4 ADD PUSH2 0xC26 SWAP3 SWAP2 SWAP1 PUSH2 0x1D58 JUMP JUMPDEST PUSH0 PUSH1 0x40 MLOAD DUP1 DUP4 SUB DUP2 DUP7 DUP1 EXTCODESIZE ISZERO DUP1 ISZERO PUSH2 0xC3C JUMPI PUSH0 PUSH0 REVERT JUMPDEST POP GAS STATICCALL ISZERO DUP1 ISZERO PUSH2 0xC4E JUMPI RETURNDATASIZE PUSH0 PUSH0 RETURNDATACOPY RETURNDATASIZE PUSH0 REVERT JUMPDEST POP POP POP POP PUSH0 PUSH0 PUSH0 PUSH2 0xC5E DUP9 PUSH2 0x1403 JUMP JUMPDEST SWAP3 POP SWAP3 POP SWAP3 POP PUSH0 DUP9 PUSH1 0x2 PUSH1 0x6 DUP2 LT PUSH2 0xC79 JUMPI PUSH2 0xC78 PUSH2 0x1D81 JUMP JUMPDEST JUMPDEST PUSH1 0x20 MUL ADD CALLDATALOAD SWAP1 POP PUSH0 DUP10 PUSH1 0x3 PUSH1 0x6 DUP2 LT PUSH2 0xC95 JUMPI PUSH2 0xC94 PUSH2 0x1D81 JUMP JUMPDEST JUMPDEST PUSH1 0x20 MUL ADD CALLDATALOAD SWAP1 POP PUSH0 PUSH2 0xCA6 DUP12 PUSH2 0x1334 JUMP JUMPDEST SWAP1 POP PUSH2 0xCB7 DUP2 PUSH0 SHL DUP12 DUP12 DUP12 DUP12 PUSH2 0xF72 JUMP JUMPDEST PUSH1 0x1 PUSH0 DUP3 DUP2 MSTORE PUSH1 0x20 ADD SWAP1 DUP2 MSTORE PUSH1 0x20 ADD PUSH0 KECCAK256 PUSH0 SWAP1 SLOAD SWAP1 PUSH2 0x100 EXP SWAP1 DIV PUSH1 0xFF AND ISZERO PUSH2 0xD15 JUMPI PUSH1 0x40 MLOAD PUSH32 0x8C379A000000000000000000000000000000000000000000000000000000000 DUP2 MSTORE PUSH1 0x4 ADD PUSH2 0xD0C SWAP1 PUSH2 0x1E60 JUMP JUMPDEST PUSH1 0x40 MLOAD DUP1 SWAP2 SUB SWAP1 REVERT JUMPDEST PUSH1 0x1 DUP1 PUSH0 DUP4 DUP2 MSTORE PUSH1 0x20 ADD SWAP1 DUP2 MSTORE PUSH1 0x20 ADD PUSH0 KECCAK256 PUSH0 PUSH2 0x100 EXP DUP2 SLOAD DUP2 PUSH1 0xFF MUL NOT AND SWAP1 DUP4 ISZERO ISZERO MUL OR SWAP1 SSTORE POP PUSH0 DUP4 PUSH1 0x80 DUP5 SWAP1 SHL OR SWAP1 POP DUP6 PUSH20 0xFFFFFFFFFFFFFFFFFFFFFFFFFFFFFFFFFFFFFFFF AND PUSH4 0x6AFBF5D6 DUP3 DUP8 DUP11 DUP7 PUSH1 0x40 MLOAD DUP6 PUSH4 0xFFFFFFFF AND PUSH1 0xE0 SHL DUP2 MSTORE PUSH1 0x4 ADD PUSH2 0xD86 SWAP5 SWAP4 SWAP3 SWAP2 SWAP1 PUSH2 0x20EE JUMP JUMPDEST PUSH0 PUSH1 0x40 MLOAD DUP1 DUP4 SUB DUP2 PUSH0 DUP8 DUP1 EXTCODESIZE ISZERO DUP1 ISZERO PUSH2 0xD9D JUMPI PUSH0 PUSH0 REVERT JUMPDEST POP GAS CALL ISZERO DUP1 ISZERO PUSH2 0xDAF JUMPI RETURNDATASIZE PUSH0 PUSH0 RETURNDATACOPY RETURNDATASIZE PUSH0 REVERT JUMPDEST POP POP POP POP POP POP POP POP POP POP POP POP POP POP POP POP POP JUMP JUMPDEST PUSH32 0x0 DUP2 JUMP JUMPDEST PUSH2 0xDEE PUSH2 0x11EC JUMP JUMPDEST PUSH0 PUSH20 0xFFFFFFFFFFFFFFFFFFFFFFFFFFFFFFFFFFFFFFFF AND DUP2 PUSH20 0xFFFFFFFFFFFFFFFFFFFFFFFFFFFFFFFFFFFFFFFF AND SUB PUSH2 0xE5E JUMPI PUSH0 PUSH1 0x40 MLOAD PUSH32 0x1E4FBDF700000000000000000000000000000000000000000000000000000000 DUP2 MSTORE PUSH1 0x4 ADD PUSH2 0xE55 SWAP2 SWAP1 PUSH2 0x192F JUMP JUMPDEST PUSH1 0x40 MLOAD DUP1 SWAP2 SUB SWAP1 REVERT JUMPDEST PUSH2 0xE67 DUP2 PUSH2 0x1273 JUMP JUMPDEST POP JUMP JUMPDEST PUSH32 0x0 DUP2 JUMP JUMPDEST PUSH0 DUP2 PUSH1 0x40 MLOAD PUSH1 0x20 ADD PUSH2 0xEA0 SWAP2 SWAP1 PUSH2 0x21AC JUMP JUMPDEST PUSH1 0x40 MLOAD PUSH1 0x20 DUP2 DUP4 SUB SUB DUP2 MSTORE SWAP1 PUSH1 0x40 MSTORE DUP1 MLOAD SWAP1 PUSH1 0x20 ADD KECCAK256 SWAP1 POP SWAP2 SWAP1 POP JUMP JUMPDEST PUSH0 PUSH0 DUP3 PUSH0 PUSH1 0x6 DUP2 LT PUSH2 0xED2 JUMPI PUSH2 0xED1 PUSH2 0x1D81 JUMP JUMPDEST JUMPDEST PUSH1 0x20 MUL ADD CALLDATALOAD DUP4 PUSH1 0x1 PUSH1 0x6 DUP2 LT PUSH2 0xEEB JUMPI PUSH2 0xEEA PUSH2 0x1D81 JUMP JUMPDEST JUMPDEST PUSH1 0x20 MUL ADD CALLDATALOAD DUP5 PUSH1 0x2 PUSH1 0x6 DUP2 LT PUSH2 0xF04 JUMPI PUSH2 0xF03 PUSH2 0x1D81 JUMP JUMPDEST JUMPDEST PUSH1 0x20 MUL ADD CALLDATALOAD DUP6 PUSH1 0x3 PUSH1 0x6 DUP2 LT PUSH2 0xF1D JUMPI PUSH2 0xF1C PUSH2 0x1D81 JUMP JUMPDEST JUMPDEST PUSH1 0x20 MUL ADD CALLDATALOAD DUP7 PUSH1 0x4 PUSH1 0x6 DUP2 LT PUSH2 0xF36 JUMPI PUSH2 0xF35 PUSH2 0x1D81 JUMP JUMPDEST JUMPDEST PUSH1 0x20 MUL ADD CALLDATALOAD PUSH1 0x40 MLOAD PUSH1 0x20 ADD PUSH2 0xF4F SWAP6 SWAP5 SWAP4 SWAP3 SWAP2 SWAP1 PUSH2 0x21D1 JUMP JUMPDEST PUSH1 0x40 MLOAD PUSH1 0x20 DUP2 DUP4 SUB SUB DUP2 MSTORE SWAP1 PUSH1 0x40 MSTORE DUP1 MLOAD SWAP1 PUSH1 0x20 ADD KECCAK256 SWAP1 POP DUP1 PUSH0 SHR SWAP2 POP POP SWAP2 SWAP1 POP JUMP JUMPDEST PUSH0 PUSH2 0xF7C DUP7 PUSH2 0xE8E JUMP JUMPDEST SWAP1 POP PUSH0 PUSH32 0x0 PUSH20 0xFFFFFFFFFFFFFFFFFFFFFFFFFFFFFFFFFFFFFFFF AND PUSH4 0x1442E4C9 PUSH1 0x40 MLOAD DUP2 PUSH4 0xFFFFFFFF AND PUSH1 0xE0 SHL DUP2 MSTORE PUSH1 0x4 ADD PUSH0 PUSH1 0x40 MLOAD DUP1 DUP4 SUB DUP2 DUP7 GAS STATICCALL ISZERO DUP1 ISZERO PUSH2 0xFE7 JUMPI RETURNDATASIZE PUSH0 PUSH0 RETURNDATACOPY RETURNDATASIZE PUSH0 REVERT JUMPDEST POP POP POP POP PUSH1 0x40 MLOAD RETURNDATASIZE PUSH0 DUP3 RETURNDATACOPY RETURNDATASIZE PUSH1 0x1F NOT PUSH1 0x1F DUP3 ADD AND DUP3 ADD DUP1 PUSH1 0x40 MSTORE POP DUP2 ADD SWAP1 PUSH2 0x100F SWAP2 SWAP1 PUSH2 0x2303 JUMP JUMPDEST SWAP1 POP PUSH0 PUSH0 SWAP1 POP JUMPDEST DUP7 DUP7 SWAP1 POP DUP2 LT ISZERO PUSH2 0x11E2 JUMPI CALLDATASIZE PUSH0 DUP7 DUP7 PUSH1 0x41 DUP6 PUSH2 0x1032 SWAP2 SWAP1 PUSH2 0x234A JUMP JUMPDEST SWAP1 PUSH1 0x41 PUSH1 0x1 DUP8 PUSH2 0x1042 SWAP2 SWAP1 PUSH2 0x20AC JUMP JUMPDEST PUSH2 0x104C SWAP2 SWAP1 PUSH2 0x234A JUMP JUMPDEST SWAP3 PUSH2 0x1059 SWAP4 SWAP3 SWAP2 SWAP1 PUSH2 0x2393 JUMP JUMPDEST SWAP2 POP SWAP2 POP PUSH0 PUSH2 0x10AB DUP7 DUP5 DUP5 DUP1 DUP1 PUSH1 0x1F ADD PUSH1 0x20 DUP1 SWAP2 DIV MUL PUSH1 0x20 ADD PUSH1 0x40 MLOAD SWAP1 DUP2 ADD PUSH1 0x40 MSTORE DUP1 SWAP4 SWAP3 SWAP2 SWAP1 DUP2 DUP2 MSTORE PUSH1 0x20 ADD DUP4 DUP4 DUP1 DUP3 DUP5 CALLDATACOPY PUSH0 DUP2 DUP5 ADD MSTORE PUSH1 0x1F NOT PUSH1 0x1F DUP3 ADD AND SWAP1 POP DUP1 DUP4 ADD SWAP3 POP POP POP POP POP POP POP PUSH2 0x625 JUMP JUMPDEST SWAP1 POP PUSH0 PUSH20 0xFFFFFFFFFFFFFFFFFFFFFFFFFFFFFFFFFFFFFFFF AND DUP2 PUSH20 0xFFFFFFFFFFFFFFFFFFFFFFFFFFFFFFFFFFFFFFFF AND SUB PUSH2 0x111B JUMPI PUSH1 0x40 MLOAD PUSH32 0x8C379A000000000000000000000000000000000000000000000000000000000 DUP2 MSTORE PUSH1 0x4 ADD PUSH2 0x1112 SWAP1 PUSH2 0x2417 JUMP JUMPDEST PUSH1 0x40 MLOAD DUP1 SWAP2 SUB SWAP1 REVERT JUMPDEST PUSH0 PUSH0 SWAP1 POP PUSH0 PUSH0 SWAP1 POP JUMPDEST DUP7 MLOAD DUP2 LT ISZERO PUSH2 0x1190 JUMPI DUP3 PUSH20 0xFFFFFFFFFFFFFFFFFFFFFFFFFFFFFFFFFFFFFFFF AND DUP8 DUP3 DUP2 MLOAD DUP2 LT PUSH2 0x1157 JUMPI PUSH2 0x1156 PUSH2 0x1D81 JUMP JUMPDEST JUMPDEST PUSH1 0x20 MUL PUSH1 0x20 ADD ADD MLOAD PUSH20 0xFFFFFFFFFFFFFFFFFFFFFFFFFFFFFFFFFFFFFFFF AND SUB PUSH2 0x1183 JUMPI PUSH1 0x1 SWAP2 POP PUSH2 0x1190 JUMP JUMPDEST DUP1 DUP1 PUSH1 0x1 ADD SWAP2 POP POP PUSH2 0x1124 JUMP JUMPDEST POP DUP1 PUSH2 0x11D1 JUMPI PUSH1 0x40 MLOAD PUSH32 0x8C379A000000000000000000000000000000000000000000000000000000000 DUP2 MSTORE PUSH1 0x4 ADD PUSH2 0x11C8 SWAP1 PUSH2 0x247F JUMP JUMPDEST PUSH1 0x40 MLOAD DUP1 SWAP2 SUB SWAP1 REVERT JUMPDEST POP POP POP POP DUP1 DUP1 PUSH1 0x1 ADD SWAP2 POP POP PUSH2 0x1016 JUMP JUMPDEST POP POP POP POP POP POP POP POP JUMP JUMPDEST PUSH2 0x11F4 PUSH2 0x15D7 JUMP JUMPDEST PUSH20 0xFFFFFFFFFFFFFFFFFFFFFFFFFFFFFFFFFFFFFFFF AND PUSH2 0x1212 PUSH2 0x5FE JUMP JUMPDEST PUSH20 0xFFFFFFFFFFFFFFFFFFFFFFFFFFFFFFFFFFFFFFFF AND EQ PUSH2 0x1271 JUMPI PUSH2 0x1235 PUSH2 0x15D7 JUMP JUMPDEST PUSH1 0x40 MLOAD PUSH32 0x118CDAA700000000000000000000000000000000000000000000000000000000 DUP2 MSTORE PUSH1 0x4 ADD PUSH2 0x1268 SWAP2 SWAP1 PUSH2 0x192F JUMP JUMPDEST PUSH1 0x40 MLOAD DUP1 SWAP2 SUB SWAP1 REVERT JUMPDEST JUMP JUMPDEST PUSH0 PUSH0 PUSH0 SWAP1 SLOAD SWAP1 PUSH2 0x100 EXP SWAP1 DIV PUSH20 0xFFFFFFFFFFFFFFFFFFFFFFFFFFFFFFFFFFFFFFFF AND SWAP1 POP DUP2 PUSH0 PUSH0 PUSH2 0x100 EXP DUP2 SLOAD DUP2 PUSH20 0xFFFFFFFFFFFFFFFFFFFFFFFFFFFFFFFFFFFFFFFF MUL NOT AND SWAP1 DUP4 PUSH20 0xFFFFFFFFFFFFFFFFFFFFFFFFFFFFFFFFFFFFFFFF AND MUL OR SWAP1 SSTORE POP DUP2 PUSH20 0xFFFFFFFFFFFFFFFFFFFFFFFFFFFFFFFFFFFFFFFF AND DUP2 PUSH20 0xFFFFFFFFFFFFFFFFFFFFFFFFFFFFFFFFFFFFFFFF AND PUSH32 0x8BE0079C531659141344CD1FD0A4F28419497F9722A3DAAFE3B4186F6B6457E0 PUSH1 0x40 MLOAD PUSH1 0x40 MLOAD DUP1 SWAP2 SUB SWAP1 LOG3 POP POP JUMP JUMPDEST PUSH0 PUSH0 DUP3 PUSH0 PUSH1 0x6 DUP2 LT PUSH2 0x1349 JUMPI PUSH2 0x1348 PUSH2 0x1D81 JUMP JUMPDEST JUMPDEST PUSH1 0x20 MUL ADD CALLDATALOAD DUP4 PUSH1 0x1 PUSH1 0x6 DUP2 LT PUSH2 0x1362 JUMPI PUSH2 0x1361 PUSH2 0x1D81 JUMP JUMPDEST JUMPDEST PUSH1 0x20 MUL ADD CALLDATALOAD DUP5 PUSH1 0x2 PUSH1 0x6 DUP2 LT PUSH2 0x137B JUMPI PUSH2 0x137A PUSH2 0x1D81 JUMP JUMPDEST JUMPDEST PUSH1 0x20 MUL ADD CALLDATALOAD DUP6 PUSH1 0x3 PUSH1 0x6 DUP2 LT PUSH2 0x1394 JUMPI PUSH2 0x1393 PUSH2 0x1D81 JUMP JUMPDEST JUMPDEST PUSH1 0x20 MUL ADD CALLDATALOAD DUP7 PUSH1 0x4 PUSH1 0x6 DUP2 LT PUSH2 0x13AD JUMPI PUSH2 0x13AC PUSH2 0x1D81 JUMP JUMPDEST JUMPDEST PUSH1 0x20 MUL ADD CALLDATALOAD DUP8 PUSH1 0x5 PUSH1 0x6 DUP2 LT PUSH2 0x13C6 JUMPI PUSH2 0x13C5 PUSH2 0x1D81 JUMP JUMPDEST JUMPDEST PUSH1 0x20 MUL ADD CALLDATALOAD PUSH1 0x40 MLOAD PUSH1 0x20 ADD PUSH2 0x13E0 SWAP7 SWAP6 SWAP5 SWAP4 SWAP3 SWAP2 SWAP1 PUSH2 0x249D JUMP JUMPDEST PUSH1 0x40 MLOAD PUSH1 0x20 DUP2 DUP4 SUB SUB DUP2 MSTORE SWAP1 PUSH1 0x40 MSTORE DUP1 MLOAD SWAP1 PUSH1 0x20 ADD KECCAK256 SWAP1 POP DUP1 PUSH0 SHR SWAP2 POP POP SWAP2 SWAP1 POP JUMP JUMPDEST PUSH0 PUSH0 PUSH1 0x60 PUSH0 DUP5 PUSH1 0x5 PUSH1 0x6 DUP2 LT PUSH2 0x141C JUMPI PUSH2 0x141B PUSH2 0x1D81 JUMP JUMPDEST JUMPDEST PUSH1 0x20 MUL ADD CALLDATALOAD SWAP1 POP DUP1 PUSH8 0xFFFFFFFFFFFFFFFF AND SWAP4 POP PUSH0 PUSH1 0x40 DUP3 SWAP1 SHR PUSH4 0xFFFFFFFF AND SWAP1 POP CHAINID DUP2 EQ PUSH2 0x1480 JUMPI PUSH1 0x40 MLOAD PUSH32 0x8C379A000000000000000000000000000000000000000000000000000000000 DUP2 MSTORE PUSH1 0x4 ADD PUSH2 0x1477 SWAP1 PUSH2 0x1DF8 JUMP JUMPDEST PUSH1 0x40 MLOAD DUP1 SWAP2 SUB SWAP1 REVERT JUMPDEST PUSH0 PUSH1 0x80 DUP4 SWAP1 SHR SWAP1 POP PUSH2 0x1491 DUP2 PUSH2 0x9C9 JUMP JUMPDEST SWAP4 POP PUSH0 PUSH2 0x14B5 DUP9 PUSH1 0x4 PUSH1 0x6 DUP2 LT PUSH2 0x14AB JUMPI PUSH2 0x14AA PUSH2 0x1D81 JUMP JUMPDEST JUMPDEST PUSH1 0x20 MUL ADD CALLDATALOAD PUSH2 0x9C9 JUMP JUMPDEST SWAP1 POP PUSH0 DUP2 PUSH1 0x40 MLOAD PUSH1 0x20 ADD PUSH2 0x14C9 SWAP2 SWAP1 PUSH2 0x2586 JUMP JUMPDEST PUSH1 0x40 MLOAD PUSH1 0x20 DUP2 DUP4 SUB SUB DUP2 MSTORE SWAP1 PUSH1 0x40 MSTORE SWAP1 POP PUSH0 PUSH32 0x0 PUSH20 0xFFFFFFFFFFFFFFFFFFFFFFFFFFFFFFFFFFFFFFFF AND PUSH4 0x16F1ADC1 DUP4 PUSH1 0x40 MLOAD DUP3 PUSH4 0xFFFFFFFF AND PUSH1 0xE0 SHL DUP2 MSTORE PUSH1 0x4 ADD PUSH2 0x1534 SWAP2 SWAP1 PUSH2 0x25F1 JUMP JUMPDEST PUSH0 PUSH1 0x40 MLOAD DUP1 DUP4 SUB DUP2 DUP7 GAS STATICCALL ISZERO DUP1 ISZERO PUSH2 0x154E JUMPI RETURNDATASIZE PUSH0 PUSH0 RETURNDATACOPY RETURNDATASIZE PUSH0 REVERT JUMPDEST POP POP POP POP PUSH1 0x40 MLOAD RETURNDATASIZE PUSH0 DUP3 RETURNDATACOPY RETURNDATASIZE PUSH1 0x1F NOT PUSH1 0x1F DUP3 ADD AND DUP3 ADD DUP1 PUSH1 0x40 MSTORE POP DUP2 ADD SWAP1 PUSH2 0x1576 SWAP2 SWAP1 PUSH2 0x2692 JUMP JUMPDEST SWAP1 POP PUSH0 DUP2 MLOAD GT PUSH2 0x15BB JUMPI PUSH1 0x40 MLOAD PUSH32 0x8C379A000000000000000000000000000000000000000000000000000000000 DUP2 MSTORE PUSH1 0x4 ADD PUSH2 0x15B2 SWAP1 PUSH2 0x2723 JUMP JUMPDEST PUSH1 0x40 MLOAD DUP1 SWAP2 SUB SWAP1 REVERT JUMPDEST DUP1 PUSH2 0x15C5 SWAP1 PUSH2 0x279B JUMP JUMPDEST PUSH1 0x60 SHR SWAP8 POP POP POP POP POP POP POP SWAP2 SWAP4 SWAP1 SWAP3 POP JUMP JUMPDEST PUSH0 CALLER SWAP1 POP SWAP1 JUMP JUMPDEST PUSH0 PUSH1 0x40 MLOAD SWAP1 POP SWAP1 JUMP JUMPDEST PUSH0 PUSH0 REVERT JUMPDEST PUSH0 PUSH0 REVERT JUMPDEST PUSH0 PUSH0 REVERT JUMPDEST PUSH0 DUP2 SWAP1 POP DUP3 PUSH1 0x20 PUSH1 0x8 MUL DUP3 ADD GT ISZERO PUSH2 0x160E JUMPI PUSH2 0x160D PUSH2 0x15EF JUMP JUMPDEST JUMPDEST SWAP3 SWAP2 POP POP JUMP JUMPDEST PUSH0 DUP2 SWAP1 POP DUP3 PUSH1 0x20 PUSH1 0x6 MUL DUP3 ADD GT ISZERO PUSH2 0x162F JUMPI PUSH2 0x162E PUSH2 0x15EF JUMP JUMPDEST JUMPDEST SWAP3 SWAP2 POP POP JUMP JUMPDEST PUSH0 PUSH0 REVERT JUMPDEST PUSH0 PUSH0 REVERT JUMPDEST PUSH0 PUSH0 DUP4 PUSH1 0x1F DUP5 ADD SLT PUSH2 0x1652 JUMPI PUSH2 0x1651 PUSH2 0x1635 JUMP JUMPDEST JUMPDEST DUP3 CALLDATALOAD SWAP1 POP PUSH8 0xFFFFFFFFFFFFFFFF DUP2 GT ISZERO PUSH2 0x166F JUMPI PUSH2 0x166E PUSH2 0x1639 JUMP JUMPDEST JUMPDEST PUSH1 0x20 DUP4 ADD SWAP2 POP DUP4 PUSH1 0x20 DUP3 MUL DUP4 ADD GT ISZERO PUSH2 0x168B JUMPI PUSH2 0x168A PUSH2 0x15EF JUMP JUMPDEST JUMPDEST SWAP3 POP SWAP3 SWAP1 POP JUMP JUMPDEST PUSH0 PUSH0 DUP4 PUSH1 0x1F DUP5 ADD SLT PUSH2 0x16A7 JUMPI PUSH2 0x16A6 PUSH2 0x1635 JUMP JUMPDEST JUMPDEST DUP3 CALLDATALOAD SWAP1 POP PUSH8 0xFFFFFFFFFFFFFFFF DUP2 GT ISZERO PUSH2 0x16C4 JUMPI PUSH2 0x16C3 PUSH2 0x1639 JUMP JUMPDEST JUMPDEST PUSH1 0x20 DUP4 ADD SWAP2 POP DUP4 PUSH1 0x1 DUP3 MUL DUP4 ADD GT ISZERO PUSH2 0x16E0 JUMPI PUSH2 0x16DF PUSH2 0x15EF JUMP JUMPDEST JUMPDEST SWAP3 POP SWAP3 SWAP1 POP JUMP JUMPDEST PUSH0 PUSH0 PUSH0 PUSH0 PUSH0 PUSH0 PUSH2 0x200 DUP8 DUP10 SUB SLT ISZERO PUSH2 0x1702 JUMPI PUSH2 0x1701 PUSH2 0x15E7 JUMP JUMPDEST JUMPDEST PUSH0 PUSH2 0x170F DUP10 DUP3 DUP11 ADD PUSH2 0x15F3 JUMP JUMPDEST SWAP7 POP POP PUSH2 0x100 PUSH2 0x1721 DUP10 DUP3 DUP11 ADD PUSH2 0x1614 JUMP JUMPDEST SWAP6 POP POP PUSH2 0x1C0 DUP8 ADD CALLDATALOAD PUSH8 0xFFFFFFFFFFFFFFFF DUP2 GT ISZERO PUSH2 0x1743 JUMPI PUSH2 0x1742 PUSH2 0x15EB JUMP JUMPDEST JUMPDEST PUSH2 0x174F DUP10 DUP3 DUP11 ADD PUSH2 0x163D JUMP JUMPDEST SWAP5 POP SWAP5 POP POP PUSH2 0x1E0 DUP8 ADD CALLDATALOAD PUSH8 0xFFFFFFFFFFFFFFFF DUP2 GT ISZERO PUSH2 0x1773 JUMPI PUSH2 0x1772 PUSH2 0x15EB JUMP JUMPDEST JUMPDEST PUSH2 0x177F DUP10 DUP3 DUP11 ADD PUSH2 0x1692 JUMP JUMPDEST SWAP3 POP SWAP3 POP POP SWAP3 SWAP6 POP SWAP3 SWAP6 POP SWAP3 SWAP6 JUMP JUMPDEST PUSH0 DUP2 SWAP1 POP SWAP2 SWAP1 POP JUMP JUMPDEST PUSH2 0x17A0 DUP2 PUSH2 0x178E JUMP JUMPDEST DUP2 EQ PUSH2 0x17AA JUMPI PUSH0 PUSH0 REVERT JUMPDEST POP JUMP JUMPDEST PUSH0 DUP2 CALLDATALOAD SWAP1 POP PUSH2 0x17BB DUP2 PUSH2 0x1797 JUMP JUMPDEST SWAP3 SWAP2 POP POP JUMP JUMPDEST PUSH0 PUSH1 0x20 DUP3 DUP5 SUB SLT ISZERO PUSH2 0x17D6 JUMPI PUSH2 0x17D5 PUSH2 0x15E7 JUMP JUMPDEST JUMPDEST PUSH0 PUSH2 0x17E3 DUP5 DUP3 DUP6 ADD PUSH2 0x17AD JUMP JUMPDEST SWAP2 POP POP SWAP3 SWAP2 POP POP JUMP JUMPDEST PUSH0 DUP2 MLOAD SWAP1 POP SWAP2 SWAP1 POP JUMP JUMPDEST PUSH0 DUP3 DUP3 MSTORE PUSH1 0x20 DUP3 ADD SWAP1 POP SWAP3 SWAP2 POP POP JUMP JUMPDEST DUP3 DUP2 DUP4 MCOPY PUSH0 DUP4 DUP4 ADD MSTORE POP POP POP JUMP JUMPDEST PUSH0 PUSH1 0x1F NOT PUSH1 0x1F DUP4 ADD AND SWAP1 POP SWAP2 SWAP1 POP JUMP JUMPDEST PUSH0 PUSH2 0x182E DUP3 PUSH2 0x17EC JUMP JUMPDEST PUSH2 0x1838 DUP2 DUP6 PUSH2 0x17F6 JUMP JUMPDEST SWAP4 POP PUSH2 0x1848 DUP2 DUP6 PUSH1 0x20 DUP7 ADD PUSH2 0x1806 JUMP JUMPDEST PUSH2 0x1851 DUP2 PUSH2 0x1814 JUMP JUMPDEST DUP5 ADD SWAP2 POP POP SWAP3 SWAP2 POP POP JUMP JUMPDEST PUSH0 PUSH1 0x20 DUP3 ADD SWAP1 POP DUP2 DUP2 SUB PUSH0 DUP4 ADD MSTORE PUSH2 0x1874 DUP2 DUP5 PUSH2 0x1824 JUMP JUMPDEST SWAP1 POP SWAP3 SWAP2 POP POP JUMP JUMPDEST PUSH0 PUSH20 0xFFFFFFFFFFFFFFFFFFFFFFFFFFFFFFFFFFFFFFFF DUP3 AND SWAP1 POP SWAP2 SWAP1 POP JUMP JUMPDEST PUSH0 DUP2 SWAP1 POP SWAP2 SWAP1 POP JUMP JUMPDEST PUSH0 PUSH2 0x18BE PUSH2 0x18B9 PUSH2 0x18B4 DUP5 PUSH2 0x187C JUMP JUMPDEST PUSH2 0x189B JUMP JUMPDEST PUSH2 0x187C JUMP JUMPDEST SWAP1 POP SWAP2 SWAP1 POP JUMP JUMPDEST PUSH0 PUSH2 0x18CF DUP3 PUSH2 0x18A4 JUMP JUMPDEST SWAP1 POP SWAP2 SWAP1 POP JUMP JUMPDEST PUSH0 PUSH2 0x18E0 DUP3 PUSH2 0x18C5 JUMP JUMPDEST SWAP1 POP SWAP2 SWAP1 POP JUMP JUMPDEST PUSH2 0x18F0 DUP2 PUSH2 0x18D6 JUMP JUMPDEST DUP3 MSTORE POP POP JUMP JUMPDEST PUSH0 PUSH1 0x20 DUP3 ADD SWAP1 POP PUSH2 0x1909 PUSH0 DUP4 ADD DUP5 PUSH2 0x18E7 JUMP JUMPDEST SWAP3 SWAP2 POP POP JUMP JUMPDEST PUSH0 PUSH2 0x1919 DUP3 PUSH2 0x187C JUMP JUMPDEST SWAP1 POP SWAP2 SWAP1 POP JUMP JUMPDEST PUSH2 0x1929 DUP2 PUSH2 0x190F JUMP JUMPDEST DUP3 MSTORE POP POP JUMP JUMPDEST PUSH0 PUSH1 0x20 DUP3 ADD SWAP1 POP PUSH2 0x1942 PUSH0 DUP4 ADD DUP5 PUSH2 0x1920 JUMP JUMPDEST SWAP3 SWAP2 POP POP JUMP JUMPDEST PUSH0 DUP2 SWAP1 POP SWAP2 SWAP1 POP JUMP JUMPDEST PUSH2 0x195A DUP2 PUSH2 0x1948 JUMP JUMPDEST DUP2 EQ PUSH2 0x1964 JUMPI PUSH0 PUSH0 REVERT JUMPDEST POP JUMP JUMPDEST PUSH0 DUP2 CALLDATALOAD SWAP1 POP PUSH2 0x1975 DUP2 PUSH2 0x1951 JUMP JUMPDEST SWAP3 SWAP2 POP POP JUMP JUMPDEST PUSH0 PUSH0 REVERT JUMPDEST PUSH32 0x4E487B7100000000000000000000000000000000000000000000000000000000 PUSH0 MSTORE PUSH1 0x41 PUSH1 0x4 MSTORE PUSH1 0x24 PUSH0 REVERT JUMPDEST PUSH2 0x19B5 DUP3 PUSH2 0x1814 JUMP JUMPDEST DUP2 ADD DUP2 DUP2 LT PUSH8 0xFFFFFFFFFFFFFFFF DUP3 GT OR ISZERO PUSH2 0x19D4 JUMPI PUSH2 0x19D3 PUSH2 0x197F JUMP JUMPDEST JUMPDEST DUP1 PUSH1 0x40 MSTORE POP POP POP JUMP JUMPDEST PUSH0 PUSH2 0x19E6 PUSH2 0x15DE JUMP JUMPDEST SWAP1 POP PUSH2 0x19F2 DUP3 DUP3 PUSH2 0x19AC JUMP JUMPDEST SWAP2 SWAP1 POP JUMP JUMPDEST PUSH0 PUSH8 0xFFFFFFFFFFFFFFFF DUP3 GT ISZERO PUSH2 0x1A11 JUMPI PUSH2 0x1A10 PUSH2 0x197F JUMP JUMPDEST JUMPDEST PUSH2 0x1A1A DUP3 PUSH2 0x1814 JUMP JUMPDEST SWAP1 POP PUSH1 0x20 DUP2 ADD SWAP1 POP SWAP2 SWAP1 POP JUMP JUMPDEST DUP3 DUP2 DUP4 CALLDATACOPY PUSH0 DUP4 DUP4 ADD MSTORE POP POP POP JUMP JUMPDEST PUSH0 PUSH2 0x1A47 PUSH2 0x1A42 DUP5 PUSH2 0x19F7 JUMP JUMPDEST PUSH2 0x19DD JUMP JUMPDEST SWAP1 POP DUP3 DUP2 MSTORE PUSH1 0x20 DUP2 ADD DUP5 DUP5 DUP5 ADD GT ISZERO PUSH2 0x1A63 JUMPI PUSH2 0x1A62 PUSH2 0x197B JUMP JUMPDEST JUMPDEST PUSH2 0x1A6E DUP5 DUP3 DUP6 PUSH2 0x1A27 JUMP JUMPDEST POP SWAP4 SWAP3 POP POP POP JUMP JUMPDEST PUSH0 DUP3 PUSH1 0x1F DUP4 ADD SLT PUSH2 0x1A8A JUMPI PUSH2 0x1A89 PUSH2 0x1635 JUMP JUMPDEST JUMPDEST DUP2 CALLDATALOAD PUSH2 0x1A9A DUP5 DUP3 PUSH1 0x20 DUP7 ADD PUSH2 0x1A35 JUMP JUMPDEST SWAP2 POP POP SWAP3 SWAP2 POP POP JUMP JUMPDEST PUSH0 PUSH0 PUSH1 0x40 DUP4 DUP6 SUB SLT ISZERO PUSH2 0x1AB9 JUMPI PUSH2 0x1AB8 PUSH2 0x15E7 JUMP JUMPDEST JUMPDEST PUSH0 PUSH2 0x1AC6 DUP6 DUP3 DUP7 ADD PUSH2 0x1967 JUMP JUMPDEST SWAP3 POP POP PUSH1 0x20 DUP4 ADD CALLDATALOAD PUSH8 0xFFFFFFFFFFFFFFFF DUP2 GT ISZERO PUSH2 0x1AE7 JUMPI PUSH2 0x1AE6 PUSH2 0x15EB JUMP JUMPDEST JUMPDEST PUSH2 0x1AF3 DUP6 DUP3 DUP7 ADD PUSH2 0x1A76 JUMP JUMPDEST SWAP2 POP POP SWAP3 POP SWAP3 SWAP1 POP JUMP JUMPDEST PUSH0 DUP2 ISZERO ISZERO SWAP1 POP SWAP2 SWAP1 POP JUMP JUMPDEST PUSH2 0x1B11 DUP2 PUSH2 0x1AFD JUMP JUMPDEST DUP3 MSTORE POP POP JUMP JUMPDEST PUSH0 PUSH1 0x20 DUP3 ADD SWAP1 POP PUSH2 0x1B2A PUSH0 DUP4 ADD DUP5 PUSH2 0x1B08 JUMP JUMPDEST SWAP3 SWAP2 POP POP JUMP JUMPDEST PUSH0 PUSH2 0x1B3A DUP3 PUSH2 0x18C5 JUMP JUMPDEST SWAP1 POP SWAP2 SWAP1 POP JUMP JUMPDEST PUSH2 0x1B4A DUP2 PUSH2 0x1B30 JUMP JUMPDEST DUP3 MSTORE POP POP JUMP JUMPDEST PUSH0 PUSH1 0x20 DUP3 ADD SWAP1 POP PUSH2 0x1B63 PUSH0 DUP4 ADD DUP5 PUSH2 0x1B41 JUMP JUMPDEST SWAP3 SWAP2 POP POP JUMP JUMPDEST PUSH0 PUSH2 0x1B73 DUP3 PUSH2 0x18C5 JUMP JUMPDEST SWAP1 POP SWAP2 SWAP1 POP JUMP JUMPDEST PUSH2 0x1B83 DUP2 PUSH2 0x1B69 JUMP JUMPDEST DUP3 MSTORE POP POP JUMP JUMPDEST PUSH0 PUSH1 0x20 DUP3 ADD SWAP1 POP PUSH2 0x1B9C PUSH0 DUP4 ADD DUP5 PUSH2 0x1B7A JUMP JUMPDEST SWAP3 SWAP2 POP POP JUMP JUMPDEST PUSH0 DUP2 MLOAD SWAP1 POP SWAP2 SWAP1 POP JUMP JUMPDEST PUSH0 DUP3 DUP3 MSTORE PUSH1 0x20 DUP3 ADD SWAP1 POP SWAP3 SWAP2 POP POP JUMP JUMPDEST PUSH0 PUSH2 0x1BC6 DUP3 PUSH2 0x1BA2 JUMP JUMPDEST PUSH2 0x1BD0 DUP2 DUP6 PUSH2 0x1BAC JUMP JUMPDEST SWAP4 POP PUSH2 0x1BE0 DUP2 DUP6 PUSH1 0x20 DUP7 ADD PUSH2 0x1806 JUMP JUMPDEST PUSH2 0x1BE9 DUP2 PUSH2 0x1814 JUMP JUMPDEST DUP5 ADD SWAP2 POP POP SWAP3 SWAP2 POP POP JUMP JUMPDEST PUSH0 PUSH1 0x20 DUP3 ADD SWAP1 POP DUP2 DUP2 SUB PUSH0 DUP4 ADD MSTORE PUSH2 0x1C0C DUP2 DUP5 PUSH2 0x1BBC JUMP JUMPDEST SWAP1 POP SWAP3 SWAP2 POP POP JUMP JUMPDEST PUSH0 PUSH2 0x1C1E DUP3 PUSH2 0x18C5 JUMP JUMPDEST SWAP1 POP SWAP2 SWAP1 POP JUMP JUMPDEST PUSH2 0x1C2E DUP2 PUSH2 0x1C14 JUMP JUMPDEST DUP3 MSTORE POP POP JUMP JUMPDEST PUSH0 PUSH1 0x20 DUP3 ADD SWAP1 POP PUSH2 0x1C47 PUSH0 DUP4 ADD DUP5 PUSH2 0x1C25 JUMP JUMPDEST SWAP3 SWAP2 POP POP JUMP JUMPDEST PUSH2 0x1C56 DUP2 PUSH2 0x190F JUMP JUMPDEST DUP2 EQ PUSH2 0x1C60 JUMPI PUSH0 PUSH0 REVERT JUMPDEST POP JUMP JUMPDEST PUSH0 DUP2 CALLDATALOAD SWAP1 POP PUSH2 0x1C71 DUP2 PUSH2 0x1C4D JUMP JUMPDEST SWAP3 SWAP2 POP POP JUMP JUMPDEST PUSH0 PUSH1 0x20 DUP3 DUP5 SUB SLT ISZERO PUSH2 0x1C8C JUMPI PUSH2 0x1C8B PUSH2 0x15E7 JUMP JUMPDEST JUMPDEST PUSH0 PUSH2 0x1C99 DUP5 DUP3 DUP6 ADD PUSH2 0x1C63 JUMP JUMPDEST SWAP2 POP POP SWAP3 SWAP2 POP POP JUMP JUMPDEST PUSH0 PUSH2 0x1CAC DUP3 PUSH2 0x18C5 JUMP JUMPDEST SWAP1 POP SWAP2 SWAP1 POP JUMP JUMPDEST PUSH2 0x1CBC DUP2 PUSH2 0x1CA2 JUMP JUMPDEST DUP3 MSTORE POP POP JUMP JUMPDEST PUSH0 PUSH1 0x20 DUP3 ADD SWAP1 POP PUSH2 0x1CD5 PUSH0 DUP4 ADD DUP5 PUSH2 0x1CB3 JUMP JUMPDEST SWAP3 SWAP2 POP POP JUMP JUMPDEST PUSH0 PUSH1 0x20 DUP3 DUP5 SUB SLT ISZERO PUSH2 0x1CF0 JUMPI PUSH2 0x1CEF PUSH2 0x15E7 JUMP JUMPDEST JUMPDEST PUSH0 PUSH2 0x1CFD DUP5 DUP3 DUP6 ADD PUSH2 0x1967 JUMP JUMPDEST SWAP2 POP POP SWAP3 SWAP2 POP POP JUMP JUMPDEST PUSH2 0x1D0F DUP2 PUSH2 0x1948 JUMP JUMPDEST DUP3 MSTORE POP POP JUMP JUMPDEST PUSH0 PUSH1 0x20 DUP3 ADD SWAP1 POP PUSH2 0x1D28 PUSH0 DUP4 ADD DUP5 PUSH2 0x1D06 JUMP JUMPDEST SWAP3 SWAP2 POP POP JUMP JUMPDEST DUP3 DUP2 DUP4 CALLDATACOPY POP POP POP JUMP JUMPDEST PUSH2 0x1D44 PUSH2 0x100 DUP4 DUP4 PUSH2 0x1D2E JUMP JUMPDEST POP POP JUMP JUMPDEST PUSH2 0x1D54 PUSH1 0xC0 DUP4 DUP4 PUSH2 0x1D2E JUMP JUMPDEST POP POP JUMP JUMPDEST PUSH0 PUSH2 0x1C0 DUP3 ADD SWAP1 POP PUSH2 0x1D6C PUSH0 DUP4 ADD DUP6 PUSH2 0x1D37 JUMP JUMPDEST PUSH2 0x1D7A PUSH2 0x100 DUP4 ADD DUP5 PUSH2 0x1D48 JUMP JUMPDEST SWAP4 SWAP3 POP POP POP JUMP JUMPDEST PUSH32 0x4E487B7100000000000000000000000000000000000000000000000000000000 PUSH0 MSTORE PUSH1 0x32 PUSH1 0x4 MSTORE PUSH1 0x24 PUSH0 REVERT JUMPDEST PUSH32 0x57726F6E672064657374696E6174696F6E20636861696E000000000000000000 PUSH0 DUP3 ADD MSTORE POP JUMP JUMPDEST PUSH0 PUSH2 0x1DE2 PUSH1 0x17 DUP4 PUSH2 0x1BAC JUMP JUMPDEST SWAP2 POP PUSH2 0x1DED DUP3 PUSH2 0x1DAE JUMP JUMPDEST PUSH1 0x20 DUP3 ADD SWAP1 POP SWAP2 SWAP1 POP JUMP JUMPDEST PUSH0 PUSH1 0x20 DUP3 ADD SWAP1 POP DUP2 DUP2 SUB PUSH0 DUP4 ADD MSTORE PUSH2 0x1E0F DUP2 PUSH2 0x1DD6 JUMP JUMPDEST SWAP1 POP SWAP2 SWAP1 POP JUMP JUMPDEST PUSH32 0x5265706C61792061747461636B20646574656374656400000000000000000000 PUSH0 DUP3 ADD MSTORE POP JUMP JUMPDEST PUSH0 PUSH2 0x1E4A PUSH1 0x16 DUP4 PUSH2 0x1BAC JUMP JUMPDEST SWAP2 POP PUSH2 0x1E55 DUP3 PUSH2 0x1E16 JUMP JUMPDEST PUSH1 0x20 DUP3 ADD SWAP1 POP SWAP2 SWAP1 POP JUMP JUMPDEST PUSH0 PUSH1 0x20 DUP3 ADD SWAP1 POP DUP2 DUP2 SUB PUSH0 DUP4 ADD MSTORE PUSH2 0x1E77 DUP2 PUSH2 0x1E3E JUMP JUMPDEST SWAP1 POP SWAP2 SWAP1 POP JUMP JUMPDEST PUSH0 DUP2 SWAP1 POP SWAP2 SWAP1 POP JUMP JUMPDEST PUSH2 0x1E98 PUSH2 0x1E93 DUP3 PUSH2 0x178E JUMP JUMPDEST PUSH2 0x1E7E JUMP JUMPDEST DUP3 MSTORE POP POP JUMP JUMPDEST PUSH0 PUSH2 0x1EA9 DUP3 DUP5 PUSH2 0x1E87 JUMP JUMPDEST PUSH1 0x20 DUP3 ADD SWAP2 POP DUP2 SWAP1 POP SWAP3 SWAP2 POP POP JUMP JUMPDEST PUSH32 0x496E76616C6964207369676E6174757265206C656E6774680000000000000000 PUSH0 DUP3 ADD MSTORE POP JUMP JUMPDEST PUSH0 PUSH2 0x1EEC PUSH1 0x18 DUP4 PUSH2 0x1BAC JUMP JUMPDEST SWAP2 POP PUSH2 0x1EF7 DUP3 PUSH2 0x1EB8 JUMP JUMPDEST PUSH1 0x20 DUP3 ADD SWAP1 POP SWAP2 SWAP1 POP JUMP JUMPDEST PUSH0 PUSH1 0x20 DUP3 ADD SWAP1 POP DUP2 DUP2 SUB PUSH0 DUP4 ADD MSTORE PUSH2 0x1F19 DUP2 PUSH2 0x1EE0 JUMP JUMPDEST SWAP1 POP SWAP2 SWAP1 POP JUMP JUMPDEST PUSH0 PUSH1 0xFF DUP3 AND SWAP1 POP SWAP2 SWAP1 POP JUMP JUMPDEST PUSH2 0x1F35 DUP2 PUSH2 0x1F20 JUMP JUMPDEST DUP3 MSTORE POP POP JUMP JUMPDEST PUSH0 PUSH1 0x80 DUP3 ADD SWAP1 POP PUSH2 0x1F4E PUSH0 DUP4 ADD DUP8 PUSH2 0x1D06 JUMP JUMPDEST PUSH2 0x1F5B PUSH1 0x20 DUP4 ADD DUP7 PUSH2 0x1F2C JUMP JUMPDEST PUSH2 0x1F68 PUSH1 0x40 DUP4 ADD DUP6 PUSH2 0x1D06 JUMP JUMPDEST PUSH2 0x1F75 PUSH1 0x60 DUP4 ADD DUP5 PUSH2 0x1D06 JUMP JUMPDEST SWAP6 SWAP5 POP POP POP POP POP JUMP JUMPDEST PUSH0 PUSH1 0x60 DUP3 ADD SWAP1 POP DUP2 DUP2 SUB PUSH0 DUP4 ADD MSTORE PUSH2 0x1F96 DUP2 DUP7 PUSH2 0x1BBC JUMP JUMPDEST SWAP1 POP DUP2 DUP2 SUB PUSH1 0x20 DUP4 ADD MSTORE PUSH2 0x1FAA DUP2 DUP6 PUSH2 0x1BBC JUMP JUMPDEST SWAP1 POP DUP2 DUP2 SUB PUSH1 0x40 DUP4 ADD MSTORE PUSH2 0x1FBE DUP2 DUP5 PUSH2 0x1824 JUMP JUMPDEST SWAP1 POP SWAP5 SWAP4 POP POP POP POP JUMP JUMPDEST PUSH32 0x4E487B7100000000000000000000000000000000000000000000000000000000 PUSH0 MSTORE PUSH1 0x11 PUSH1 0x4 MSTORE PUSH1 0x24 PUSH0 REVERT JUMPDEST PUSH0 PUSH2 0x1FFF DUP3 PUSH2 0x1F20 JUMP JUMPDEST SWAP2 POP PUSH1 0xFF DUP3 SUB PUSH2 0x2012 JUMPI PUSH2 0x2011 PUSH2 0x1FC8 JUMP JUMPDEST JUMPDEST PUSH1 0x1 DUP3 ADD SWAP1 POP SWAP2 SWAP1 POP JUMP JUMPDEST PUSH0 PUSH2 0x2027 DUP3 PUSH2 0x1F20 JUMP JUMPDEST SWAP2 POP PUSH0 DUP3 SUB PUSH2 0x2039 JUMPI PUSH2 0x2038 PUSH2 0x1FC8 JUMP JUMPDEST JUMPDEST PUSH1 0x1 DUP3 SUB SWAP1 POP SWAP2 SWAP1 POP JUMP JUMPDEST PUSH0 PUSH2 0x204E DUP3 PUSH2 0x1F20 JUMP JUMPDEST SWAP2 POP PUSH2 0x2059 DUP4 PUSH2 0x1F20 JUMP JUMPDEST SWAP3 POP DUP3 DUP3 SUB SWAP1 POP PUSH1 0xFF DUP2 GT ISZERO PUSH2 0x2072 JUMPI PUSH2 0x2071 PUSH2 0x1FC8 JUMP JUMPDEST JUMPDEST SWAP3 SWAP2 POP POP JUMP JUMPDEST PUSH0 PUSH2 0x2082 DUP3 PUSH2 0x1F20 JUMP JUMPDEST SWAP2 POP PUSH2 0x208D DUP4 PUSH2 0x1F20 JUMP JUMPDEST SWAP3 POP DUP3 DUP3 ADD SWAP1 POP PUSH1 0xFF DUP2 GT ISZERO PUSH2 0x20A6 JUMPI PUSH2 0x20A5 PUSH2 0x1FC8 JUMP JUMPDEST JUMPDEST SWAP3 SWAP2 POP POP JUMP JUMPDEST PUSH0 PUSH2 0x20B6 DUP3 PUSH2 0x178E JUMP JUMPDEST SWAP2 POP PUSH2 0x20C1 DUP4 PUSH2 0x178E JUMP JUMPDEST SWAP3 POP DUP3 DUP3 ADD SWAP1 POP DUP1 DUP3 GT ISZERO PUSH2 0x20D9 JUMPI PUSH2 0x20D8 PUSH2 0x1FC8 JUMP JUMPDEST JUMPDEST SWAP3 SWAP2 POP POP JUMP JUMPDEST PUSH2 0x20E8 DUP2 PUSH2 0x178E JUMP JUMPDEST DUP3 MSTORE POP POP JUMP JUMPDEST PUSH0 PUSH1 0x80 DUP3 ADD SWAP1 POP PUSH2 0x2101 PUSH0 DUP4 ADD DUP8 PUSH2 0x1920 JUMP JUMPDEST DUP2 DUP2 SUB PUSH1 0x20 DUP4 ADD MSTORE PUSH2 0x2113 DUP2 DUP7 PUSH2 0x1BBC JUMP JUMPDEST SWAP1 POP PUSH2 0x2122 PUSH1 0x40 DUP4 ADD DUP6 PUSH2 0x20DF JUMP JUMPDEST PUSH2 0x212F PUSH1 0x60 DUP4 ADD DUP5 PUSH2 0x20DF JUMP JUMPDEST SWAP6 SWAP5 POP POP POP POP POP JUMP JUMPDEST PUSH0 DUP2 SWAP1 POP SWAP3 SWAP2 POP POP JUMP JUMPDEST PUSH32 0x19457468657265756D205369676E6564204D6573736167653A0A333200000000 PUSH0 DUP3 ADD MSTORE POP JUMP JUMPDEST PUSH0 PUSH2 0x2176 PUSH1 0x1C DUP4 PUSH2 0x2138 JUMP JUMPDEST SWAP2 POP PUSH2 0x2181 DUP3 PUSH2 0x2142 JUMP JUMPDEST PUSH1 0x1C DUP3 ADD SWAP1 POP SWAP2 SWAP1 POP JUMP JUMPDEST PUSH0 DUP2 SWAP1 POP SWAP2 SWAP1 POP JUMP JUMPDEST PUSH2 0x21A6 PUSH2 0x21A1 DUP3 PUSH2 0x1948 JUMP JUMPDEST PUSH2 0x218C JUMP JUMPDEST DUP3 MSTORE POP POP JUMP JUMPDEST PUSH0 PUSH2 0x21B6 DUP3 PUSH2 0x216A JUMP JUMPDEST SWAP2 POP PUSH2 0x21C2 DUP3 DUP5 PUSH2 0x2195 JUMP JUMPDEST PUSH1 0x20 DUP3 ADD SWAP2 POP DUP2 SWAP1 POP SWAP3 SWAP2 POP POP JUMP JUMPDEST PUSH0 PUSH2 0x21DC DUP3 DUP9 PUSH2 0x1E87 JUMP JUMPDEST PUSH1 0x20 DUP3 ADD SWAP2 POP PUSH2 0x21EC DUP3 DUP8 PUSH2 0x1E87 JUMP JUMPDEST PUSH1 0x20 DUP3 ADD SWAP2 POP PUSH2 0x21FC DUP3 DUP7 PUSH2 0x1E87 JUMP JUMPDEST PUSH1 0x20 DUP3 ADD SWAP2 POP PUSH2 0x220C DUP3 DUP6 PUSH2 0x1E87 JUMP JUMPDEST PUSH1 0x20 DUP3 ADD SWAP2 POP PUSH2 0x221C DUP3 DUP5 PUSH2 0x1E87 JUMP JUMPDEST PUSH1 0x20 DUP3 ADD SWAP2 POP DUP2 SWAP1 POP SWAP7 SWAP6 POP POP POP POP POP POP JUMP JUMPDEST PUSH0 PUSH8 0xFFFFFFFFFFFFFFFF DUP3 GT ISZERO PUSH2 0x2249 JUMPI PUSH2 0x2248 PUSH2 0x197F JUMP JUMPDEST JUMPDEST PUSH1 0x20 DUP3 MUL SWAP1 POP PUSH1 0x20 DUP2 ADD SWAP1 POP SWAP2 SWAP1 POP JUMP JUMPDEST PUSH0 DUP2 MLOAD SWAP1 POP PUSH2 0x2268 DUP2 PUSH2 0x1C4D JUMP JUMPDEST SWAP3 SWAP2 POP POP JUMP JUMPDEST PUSH0 PUSH2 0x2280 PUSH2 0x227B DUP5 PUSH2 0x222F JUMP JUMPDEST PUSH2 0x19DD JUMP JUMPDEST SWAP1 POP DUP1 DUP4 DUP3 MSTORE PUSH1 0x20 DUP3 ADD SWAP1 POP PUSH1 0x20 DUP5 MUL DUP4 ADD DUP6 DUP2 GT ISZERO PUSH2 0x22A3 JUMPI PUSH2 0x22A2 PUSH2 0x15EF JUMP JUMPDEST JUMPDEST DUP4 JUMPDEST DUP2 DUP2 LT ISZERO PUSH2 0x22CC JUMPI DUP1 PUSH2 0x22B8 DUP9 DUP3 PUSH2 0x225A JUMP JUMPDEST DUP5 MSTORE PUSH1 0x20 DUP5 ADD SWAP4 POP POP PUSH1 0x20 DUP2 ADD SWAP1 POP PUSH2 0x22A5 JUMP JUMPDEST POP POP POP SWAP4 SWAP3 POP POP POP JUMP JUMPDEST PUSH0 DUP3 PUSH1 0x1F DUP4 ADD SLT PUSH2 0x22EA JUMPI PUSH2 0x22E9 PUSH2 0x1635 JUMP JUMPDEST JUMPDEST DUP2 MLOAD PUSH2 0x22FA DUP5 DUP3 PUSH1 0x20 DUP7 ADD PUSH2 0x226E JUMP JUMPDEST SWAP2 POP POP SWAP3 SWAP2 POP POP JUMP JUMPDEST PUSH0 PUSH1 0x20 DUP3 DUP5 SUB SLT ISZERO PUSH2 0x2318 JUMPI PUSH2 0x2317 PUSH2 0x15E7 JUMP JUMPDEST JUMPDEST PUSH0 DUP3 ADD MLOAD PUSH8 0xFFFFFFFFFFFFFFFF DUP2 GT ISZERO PUSH2 0x2335 JUMPI PUSH2 0x2334 PUSH2 0x15EB JUMP JUMPDEST JUMPDEST PUSH2 0x2341 DUP5 DUP3 DUP6 ADD PUSH2 0x22D6 JUMP JUMPDEST SWAP2 POP POP SWAP3 SWAP2 POP POP JUMP JUMPDEST PUSH0 PUSH2 0x2354 DUP3 PUSH2 0x178E JUMP JUMPDEST SWAP2 POP PUSH2 0x235F DUP4 PUSH2 0x178E JUMP JUMPDEST SWAP3 POP DUP3 DUP3 MUL PUSH2 0x236D DUP2 PUSH2 0x178E JUMP JUMPDEST SWAP2 POP DUP3 DUP3 DIV DUP5 EQ DUP4 ISZERO OR PUSH2 0x2384 JUMPI PUSH2 0x2383 PUSH2 0x1FC8 JUMP JUMPDEST JUMPDEST POP SWAP3 SWAP2 POP POP JUMP JUMPDEST PUSH0 PUSH0 REVERT JUMPDEST PUSH0 PUSH0 REVERT JUMPDEST PUSH0 PUSH0 DUP6 DUP6 GT ISZERO PUSH2 0x23A6 JUMPI PUSH2 0x23A5 PUSH2 0x238B JUMP JUMPDEST JUMPDEST DUP4 DUP7 GT ISZERO PUSH2 0x23B7 JUMPI PUSH2 0x23B6 PUSH2 0x238F JUMP JUMPDEST JUMPDEST PUSH1 0x1 DUP6 MUL DUP4 ADD SWAP2 POP DUP5 DUP7 SUB SWAP1 POP SWAP5 POP SWAP5 SWAP3 POP POP POP JUMP JUMPDEST PUSH32 0x496E76616C6964207369676E6174757265000000000000000000000000000000 PUSH0 DUP3 ADD MSTORE POP JUMP JUMPDEST PUSH0 PUSH2 0x2401 PUSH1 0x11 DUP4 PUSH2 0x1BAC JUMP JUMPDEST SWAP2 POP PUSH2 0x240C DUP3 PUSH2 0x23CD JUMP JUMPDEST PUSH1 0x20 DUP3 ADD SWAP1 POP SWAP2 SWAP1 POP JUMP JUMPDEST PUSH0 PUSH1 0x20 DUP3 ADD SWAP1 POP DUP2 DUP2 SUB PUSH0 DUP4 ADD MSTORE PUSH2 0x242E DUP2 PUSH2 0x23F5 JUMP JUMPDEST SWAP1 POP SWAP2 SWAP1 POP JUMP JUMPDEST PUSH32 0x5369676E6572206E6F7420616E206163746976652076616C696461746F720000 PUSH0 DUP3 ADD MSTORE POP JUMP JUMPDEST PUSH0 PUSH2 0x2469 PUSH1 0x1E DUP4 PUSH2 0x1BAC JUMP JUMPDEST SWAP2 POP PUSH2 0x2474 DUP3 PUSH2 0x2435 JUMP JUMPDEST PUSH1 0x20 DUP3 ADD SWAP1 POP SWAP2 SWAP1 POP JUMP JUMPDEST PUSH0 PUSH1 0x20 DUP3 ADD SWAP1 POP DUP2 DUP2 SUB PUSH0 DUP4 ADD MSTORE PUSH2 0x2496 DUP2 PUSH2 0x245D JUMP JUMPDEST SWAP1 POP SWAP2 SWAP1 POP JUMP JUMPDEST PUSH0 PUSH2 0x24A8 DUP3 DUP10 PUSH2 0x1E87 JUMP JUMPDEST PUSH1 0x20 DUP3 ADD SWAP2 POP PUSH2 0x24B8 DUP3 DUP9 PUSH2 0x1E87 JUMP JUMPDEST PUSH1 0x20 DUP3 ADD SWAP2 POP PUSH2 0x24C8 DUP3 DUP8 PUSH2 0x1E87 JUMP JUMPDEST PUSH1 0x20 DUP3 ADD SWAP2 POP PUSH2 0x24D8 DUP3 DUP7 PUSH2 0x1E87 JUMP JUMPDEST PUSH1 0x20 DUP3 ADD SWAP2 POP PUSH2 0x24E8 DUP3 DUP6 PUSH2 0x1E87 JUMP JUMPDEST PUSH1 0x20 DUP3 ADD SWAP2 POP PUSH2 0x24F8 DUP3 DUP5 PUSH2 0x1E87 JUMP JUMPDEST PUSH1 0x20 DUP3 ADD SWAP2 POP DUP2 SWAP1 POP SWAP8 SWAP7 POP POP POP POP POP POP POP JUMP JUMPDEST PUSH0 PUSH2 0x2516 DUP3 PUSH2 0x1BA2 JUMP JUMPDEST PUSH2 0x2520 DUP2 DUP6 PUSH2 0x2138 JUMP JUMPDEST SWAP4 POP PUSH2 0x2530 DUP2 DUP6 PUSH1 0x20 DUP7 ADD PUSH2 0x1806 JUMP JUMPDEST DUP1 DUP5 ADD SWAP2 POP POP SWAP3 SWAP2 POP POP JUMP JUMPDEST PUSH32 0x5F7661756C740000000000000000000000000000000000000000000000000000 PUSH0 DUP3 ADD MSTORE POP JUMP JUMPDEST PUSH0 PUSH2 0x2570 PUSH1 0x6 DUP4 PUSH2 0x2138 JUMP JUMPDEST SWAP2 POP PUSH2 0x257B DUP3 PUSH2 0x253C JUMP JUMPDEST PUSH1 0x6 DUP3 ADD SWAP1 POP SWAP2 SWAP1 POP JUMP JUMPDEST PUSH0 PUSH2 0x2591 DUP3 DUP5 PUSH2 0x250C JUMP JUMPDEST SWAP2 POP PUSH2 0x259C DUP3 PUSH2 0x2564 JUMP JUMPDEST SWAP2 POP DUP2 SWAP1 POP SWAP3 SWAP2 POP POP JUMP JUMPDEST PUSH32 0x5169617261426173654173736574730000000000000000000000000000000000 PUSH0 DUP3 ADD MSTORE POP JUMP JUMPDEST PUSH0 PUSH2 0x25DB PUSH1 0xF DUP4 PUSH2 0x1BAC JUMP JUMPDEST SWAP2 POP PUSH2 0x25E6 DUP3 PUSH2 0x25A7 JUMP JUMPDEST PUSH1 0x20 DUP3 ADD SWAP1 POP SWAP2 SWAP1 POP JUMP JUMPDEST PUSH0 PUSH1 0x40 DUP3 ADD SWAP1 POP DUP2 DUP2 SUB PUSH0 DUP4 ADD MSTORE PUSH2 0x2608 DUP2 PUSH2 0x25CF JUMP JUMPDEST SWAP1 POP DUP2 DUP2 SUB PUSH1 0x20 DUP4 ADD MSTORE PUSH2 0x261C DUP2 DUP5 PUSH2 0x1BBC JUMP JUMPDEST SWAP1 POP SWAP3 SWAP2 POP POP JUMP JUMPDEST PUSH0 PUSH2 0x2636 PUSH2 0x2631 DUP5 PUSH2 0x19F7 JUMP JUMPDEST PUSH2 0x19DD JUMP JUMPDEST SWAP1 POP DUP3 DUP2 MSTORE PUSH1 0x20 DUP2 ADD DUP5 DUP5 DUP5 ADD GT ISZERO PUSH2 0x2652 JUMPI PUSH2 0x2651 PUSH2 0x197B JUMP JUMPDEST JUMPDEST PUSH2 0x265D DUP5 DUP3 DUP6 PUSH2 0x1806 JUMP JUMPDEST POP SWAP4 SWAP3 POP POP POP JUMP JUMPDEST PUSH0 DUP3 PUSH1 0x1F DUP4 ADD SLT PUSH2 0x2679 JUMPI PUSH2 0x2678 PUSH2 0x1635 JUMP JUMPDEST JUMPDEST DUP2 MLOAD PUSH2 0x2689 DUP5 DUP3 PUSH1 0x20 DUP7 ADD PUSH2 0x2624 JUMP JUMPDEST SWAP2 POP POP SWAP3 SWAP2 POP POP JUMP JUMPDEST PUSH0 PUSH1 0x20 DUP3 DUP5 SUB SLT ISZERO PUSH2 0x26A7 JUMPI PUSH2 0x26A6 PUSH2 0x15E7 JUMP JUMPDEST JUMPDEST PUSH0 DUP3 ADD MLOAD PUSH8 0xFFFFFFFFFFFFFFFF DUP2 GT ISZERO PUSH2 0x26C4 JUMPI PUSH2 0x26C3 PUSH2 0x15EB JUMP JUMPDEST JUMPDEST PUSH2 0x26D0 DUP5 DUP3 DUP6 ADD PUSH2 0x2665 JUMP JUMPDEST SWAP2 POP POP SWAP3 SWAP2 POP POP JUMP JUMPDEST PUSH32 0x5661756C74206E6F7420617574686F72697A6564000000000000000000000000 PUSH0 DUP3 ADD MSTORE POP JUMP JUMPDEST PUSH0 PUSH2 0x270D PUSH1 0x14 DUP4 PUSH2 0x1BAC JUMP JUMPDEST SWAP2 POP PUSH2 0x2718 DUP3 PUSH2 0x26D9 JUMP JUMPDEST PUSH1 0x20 DUP3 ADD SWAP1 POP SWAP2 SWAP1 POP JUMP JUMPDEST PUSH0 PUSH1 0x20 DUP3 ADD SWAP1 POP DUP2 DUP2 SUB PUSH0 DUP4 ADD MSTORE PUSH2 0x273A DUP2 PUSH2 0x2701 JUMP JUMPDEST SWAP1 POP SWAP2 SWAP1 POP JUMP JUMPDEST PUSH0 DUP2 SWAP1 POP PUSH1 0x20 DUP3 ADD SWAP1 POP SWAP2 SWAP1 POP JUMP JUMPDEST PUSH0 PUSH32 0xFFFFFFFFFFFFFFFFFFFFFFFFFFFFFFFFFFFFFFFF000000000000000000000000 DUP3 AND SWAP1 POP SWAP2 SWAP1 POP JUMP JUMPDEST PUSH0 PUSH2 0x2786 DUP3 MLOAD PUSH2 0x2750 JUMP JUMPDEST DUP1 SWAP2 POP POP SWAP2 SWAP1 POP JUMP JUMPDEST PUSH0 DUP3 DUP3 SHL SWAP1 POP SWAP3 SWAP2 POP POP JUMP JUMPDEST PUSH0 PUSH2 0x27A5 DUP3 PUSH2 0x17EC JUMP JUMPDEST DUP3 PUSH2 0x27AF DUP5 PUSH2 0x2741 JUMP JUMPDEST SWAP1 POP PUSH2 0x27BA DUP2 PUSH2 0x277B JUMP JUMPDEST SWAP3 POP PUSH1 0x14 DUP3 LT ISZERO PUSH2 0x27FA JUMPI PUSH2 0x27F5 PUSH32 0xFFFFFFFFFFFFFFFFFFFFFFFFFFFFFFFFFFFFFFFF000000000000000000000000 DUP4 PUSH1 0x14 SUB PUSH1 0x8 MUL PUSH2 0x278F JUMP JUMPDEST DUP4 AND SWAP3 POP JUMPDEST POP POP SWAP2 SWAP1 POP JUMP INVALID LOG2 PUSH5 0x6970667358 0x22 SLT KECCAK256 0x4C PUSH21 0x2AD1FB41C62E69B92166DA45211D05FE80A8F4EA39 PUSH15 0x77EBB6D42C9F1E9564736F6C634300 ADDMOD 0x1F STOP CALLER "
				},
				"gasEstimates": {
					"creation": {
						"codeDepositCost": "2059000",
						"executionCost": "infinite",
						"totalCost": "infinite"
					},
					"external": {
						"balance_verifier()": "infinite",
						"fieldToAddress(uint256)": "664",
						"fieldToBytes(uint256)": "infinite",
						"fieldToString(uint256)": "infinite",
						"getEthSignedMessageHash(bytes32)": "infinite",
						"owner()": "2559",
						"processZkValidator(uint256[8],uint256[6],address[],bytes)": "infinite",
						"processZkVariable(uint256[8],uint256[6],address[],bytes)": "infinite",
						"processZkWithdraw(uint256[8],uint256[6],address[],bytes)": "infinite",
						"recoverSigner(bytes32,bytes)": "infinite",
						"renounceOwnership()": "infinite",
						"transferOwnership(address)": "infinite",
						"usedNullifiers(uint256)": "2808",
						"validator_verifier()": "infinite",
						"validatorsRegistry()": "infinite",
						"variable_verifier()": "infinite",
						"variablesRegistry()": "infinite"
					},
					"internal": {
						"_calculateNullifier6(uint256[6] calldata)": "infinite",
						"_calculateNullifier8(uint256[6] calldata)": "infinite",
						"_prepareWithdrawal(uint256[6] calldata)": "infinite",
						"_verifyAllSignatures(bytes32,address[] calldata,bytes calldata)": "infinite"
					}
				},
				"methodIdentifiers": {
					"balance_verifier()": "f90c0f40",
					"fieldToAddress(uint256)": "7a988c54",
					"fieldToBytes(uint256)": "19b8c941",
					"fieldToString(uint256)": "b648f220",
					"getEthSignedMessageHash(bytes32)": "fa540801",
					"owner()": "8da5cb5b",
					"processZkValidator(uint256[8],uint256[6],address[],bytes)": "00dc2234",
					"processZkVariable(uint256[8],uint256[6],address[],bytes)": "aab7f953",
					"processZkWithdraw(uint256[8],uint256[6],address[],bytes)": "bd846ee7",
					"recoverSigner(bytes32,bytes)": "97aba7f9",
					"renounceOwnership()": "715018a6",
					"transferOwnership(address)": "f2fde38b",
					"usedNullifiers(uint256)": "aad24061",
					"validator_verifier()": "b3d63003",
					"validatorsRegistry()": "aed881d8",
					"variable_verifier()": "4eb30d41",
					"variablesRegistry()": "bf4d766e"
				}
			},
			"storageLayout": {
				"storage": [
					{
						"astId": 8,
						"contract": "Evm/core/base/vaultDelegator.sol:QiaraZKDelegator",
						"label": "_owner",
						"offset": 0,
						"slot": "0",
						"type": "t_address"
					},
					{
						"astId": 280,
						"contract": "Evm/core/base/vaultDelegator.sol:QiaraZKDelegator",
						"label": "usedNullifiers",
						"offset": 0,
						"slot": "1",
						"type": "t_mapping(t_uint256,t_bool)"
					}
				],
				"types": {
					"t_address": {
						"encoding": "inplace",
						"label": "address",
						"numberOfBytes": "20"
					},
					"t_bool": {
						"encoding": "inplace",
						"label": "bool",
						"numberOfBytes": "1"
					},
					"t_mapping(t_uint256,t_bool)": {
						"encoding": "mapping",
						"key": "t_uint256",
						"label": "mapping(uint256 => bool)",
						"numberOfBytes": "32",
						"value": "t_bool"
					},
					"t_uint256": {
						"encoding": "inplace",
						"label": "uint256",
						"numberOfBytes": "32"
					}
				}
			},
			"userdoc": {
				"kind": "user",
				"methods": {},
				"version": 1
			}
		}
	}
}