{
	"Evm/zk/validators_verifier.sol": {
		"Verifier": {
			"abi": [
				{
					"inputs": [],
					"name": "ProofInvalid",
					"type": "error"
				},
				{
					"inputs": [],
					"name": "PublicInputNotInField",
					"type": "error"
				},
				{
					"inputs": [
						{
							"internalType": "uint256[8]",
							"name": "proof",
							"type": "uint256[8]"
						}
					],
					"name": "compressProof",
					"outputs": [
						{
							"internalType": "uint256[4]",
							"name": "compressed",
							"type": "uint256[4]"
						}
					],
					"stateMutability": "view",
					"type": "function"
				},
				{
					"inputs": [
						{
							"internalType": "uint256[4]",
							"name": "compressedProof",
							"type": "uint256[4]"
						},
						{
							"internalType": "uint256[5]",
							"name": "input",
							"type": "uint256[5]"
						}
					],
					"name": "verifyCompressedProof",
					"outputs": [],
					"stateMutability": "view",
					"type": "function"
				},
				{
					"inputs": [
						{
							"internalType": "uint256[8]",
							"name": "proof",
							"type": "uint256[8]"
						},
						{
							"internalType": "uint256[5]",
							"name": "input",
							"type": "uint256[5]"
						}
					],
					"name": "verifyProof",
					"outputs": [],
					"stateMutability": "view",
					"type": "function"
				}
			],
			"devdoc": {
				"author": "Remco Bloemen",
				"errors": {
					"ProofInvalid()": [
						{
							"details": "This can mean that provided Groth16 proof points are not on their curves, that pairing equation fails, or that the proof is not for the provided public input."
						}
					],
					"PublicInputNotInField()": [
						{
							"details": "Public input elements are not automatically reduced, as this is can be a dangerous source of bugs."
						}
					]
				},
				"kind": "dev",
				"methods": {
					"compressProof(uint256[8])": {
						"params": {
							"proof": "The uncompressed Groth16 proof. Elements are in the same order as for verifyProof. I.e. Groth16 points (A, B, C) encoded as in EIP-197."
						},
						"returns": {
							"compressed": "The compressed proof. Elements are in the same order as for verifyCompressedProof. I.e. points (A, B, C) in compressed format."
						}
					},
					"verifyCompressedProof(uint256[4],uint256[5])": {
						"params": {
							"compressedProof": "the points (A, B, C) in compressed format matching the output of compressProof.",
							"input": "the public input field elements in the scalar field Fr. Elements must be reduced."
						}
					},
					"verifyProof(uint256[8],uint256[5])": {
						"params": {
							"input": "the public input field elements in the scalar field Fr. Elements must be reduced.",
							"proof": "the points (A, B, C) in EIP-197 format matching the output of compressProof."
						}
					}
				},
				"title": "Groth16 verifier template.",
				"version": 1
			},
			"evm": {
				"assembly": "    /* \"Evm/zk/validators_verifier.sol\":394:26886  contract Verifier {... */\n  mstore(0x40, 0x80)\n  callvalue\n  dup1\n  iszero\n  tag_1\n  jumpi\n  revert(0x00, 0x00)\ntag_1:\n  pop\n  dataSize(sub_0)\n  dup1\n  dataOffset(sub_0)\n  0x00\n  codecopy\n  0x00\n  return\nstop\n\nsub_0: assembly {\n        /* \"Evm/zk/validators_verifier.sol\":394:26886  contract Verifier {... */\n      mstore(0x40, 0x80)\n      callvalue\n      dup1\n      iszero\n      tag_1\n      jumpi\n      revert(0x00, 0x00)\n    tag_1:\n      pop\n      jumpi(tag_2, lt(calldatasize, 0x04))\n      shr(0xe0, calldataload(0x00))\n      dup1\n      0x2a07d99a\n      eq\n      tag_3\n      jumpi\n      dup1\n      0x44f63692\n      eq\n      tag_4\n      jumpi\n      dup1\n      0xa6708604\n      eq\n      tag_5\n      jumpi\n    tag_2:\n      revert(0x00, 0x00)\n        /* \"Evm/zk/validators_verifier.sol\":24709:26883  function verifyProof(... */\n    tag_3:\n      tag_6\n      0x04\n      dup1\n      calldatasize\n      sub\n      dup2\n      add\n      swap1\n      tag_7\n      swap2\n      swap1\n      tag_8\n      jump\t// in\n    tag_7:\n      tag_9\n      jump\t// in\n    tag_6:\n      stop\n        /* \"Evm/zk/validators_verifier.sol\":20986:21311  function compressProof(uint256[8] calldata proof)... */\n    tag_4:\n      tag_10\n      0x04\n      dup1\n      calldatasize\n      sub\n      dup2\n      add\n      swap1\n      tag_11\n      swap2\n      swap1\n      tag_12\n      jump\t// in\n    tag_11:\n      tag_13\n      jump\t// in\n    tag_10:\n      mload(0x40)\n      tag_14\n      swap2\n      swap1\n      tag_15\n      jump\t// in\n    tag_14:\n      mload(0x40)\n      dup1\n      swap2\n      sub\n      swap1\n      return\n        /* \"Evm/zk/validators_verifier.sol\":21870:24172  function verifyCompressedProof(... */\n    tag_5:\n      tag_16\n      0x04\n      dup1\n      calldatasize\n      sub\n      dup2\n      add\n      swap1\n      tag_17\n      swap2\n      swap1\n      tag_18\n      jump\t// in\n    tag_17:\n      tag_19\n      jump\t// in\n    tag_16:\n      stop\n        /* \"Evm/zk/validators_verifier.sol\":24709:26883  function verifyProof(... */\n    tag_9:\n        /* \"Evm/zk/validators_verifier.sol\":24833:24842  uint256 x */\n      0x00\n        /* \"Evm/zk/validators_verifier.sol\":24844:24853  uint256 y */\n      0x00\n        /* \"Evm/zk/validators_verifier.sol\":24857:24878  publicInputMSM(input) */\n      tag_21\n        /* \"Evm/zk/validators_verifier.sol\":24872:24877  input */\n      dup4\n        /* \"Evm/zk/validators_verifier.sol\":24857:24871  publicInputMSM */\n      tag_22\n        /* \"Evm/zk/validators_verifier.sol\":24857:24878  publicInputMSM(input) */\n      jump\t// in\n    tag_21:\n        /* \"Evm/zk/validators_verifier.sol\":24832:24878  (uint256 x, uint256 y) = publicInputMSM(input) */\n      swap2\n      pop\n      swap2\n      pop\n        /* \"Evm/zk/validators_verifier.sol\":25069:25081  bool success */\n      0x00\n        /* \"Evm/zk/validators_verifier.sol\":25147:25151  0x40 */\n      0x40\n        /* \"Evm/zk/validators_verifier.sol\":25141:25152  mload(0x40) */\n      mload\n        /* \"Evm/zk/validators_verifier.sol\":25363:25368  0x100 */\n      0x0100\n        /* \"Evm/zk/validators_verifier.sol\":25356:25361  proof */\n      dup7\n        /* \"Evm/zk/validators_verifier.sol\":25353:25354  f */\n      dup3\n        /* \"Evm/zk/validators_verifier.sol\":25340:25369  calldatacopy(f, proof, 0x100) */\n      calldatacopy\n        /* \"Evm/zk/validators_verifier.sol\":25677:25690  DELTA_NEG_X_1 */\n      0x10481ad5b970ba768b0a6a20fdad85a49f78d1f650ae618718c75d026ca241e6\n        /* \"Evm/zk/validators_verifier.sol\":25669:25674  0x100 */\n      0x0100\n        /* \"Evm/zk/validators_verifier.sol\":25666:25667  f */\n      dup3\n        /* \"Evm/zk/validators_verifier.sol\":25662:25675  add(f, 0x100) */\n      add\n        /* \"Evm/zk/validators_verifier.sol\":25655:25691  mstore(add(f, 0x100), DELTA_NEG_X_1) */\n      mstore\n        /* \"Evm/zk/validators_verifier.sol\":25727:25740  DELTA_NEG_X_0 */\n      0x1e63545cbb6efeefda09620dab83bfb970dc335990740f7112291388cf32a319\n        /* \"Evm/zk/validators_verifier.sol\":25719:25724  0x120 */\n      0x0120\n        /* \"Evm/zk/validators_verifier.sol\":25716:25717  f */\n      dup3\n        /* \"Evm/zk/validators_verifier.sol\":25712:25725  add(f, 0x120) */\n      add\n        /* \"Evm/zk/validators_verifier.sol\":25705:25741  mstore(add(f, 0x120), DELTA_NEG_X_0) */\n      mstore\n        /* \"Evm/zk/validators_verifier.sol\":25777:25790  DELTA_NEG_Y_1 */\n      0x090a6fd4e1dfe76372ff7113393b0811ff2653fe08daba470858e8b21eabb30e\n        /* \"Evm/zk/validators_verifier.sol\":25769:25774  0x140 */\n      0x0140\n        /* \"Evm/zk/validators_verifier.sol\":25766:25767  f */\n      dup3\n        /* \"Evm/zk/validators_verifier.sol\":25762:25775  add(f, 0x140) */\n      add\n        /* \"Evm/zk/validators_verifier.sol\":25755:25791  mstore(add(f, 0x140), DELTA_NEG_Y_1) */\n      mstore\n        /* \"Evm/zk/validators_verifier.sol\":25827:25840  DELTA_NEG_Y_0 */\n      0x2721f08c6d35190080f877e0369d48e9a21dd70829722da057283b71d8111073\n        /* \"Evm/zk/validators_verifier.sol\":25819:25824  0x160 */\n      0x0160\n        /* \"Evm/zk/validators_verifier.sol\":25816:25817  f */\n      dup3\n        /* \"Evm/zk/validators_verifier.sol\":25812:25825  add(f, 0x160) */\n      add\n        /* \"Evm/zk/validators_verifier.sol\":25805:25841  mstore(add(f, 0x160), DELTA_NEG_Y_0) */\n      mstore\n        /* \"Evm/zk/validators_verifier.sol\":25877:25884  ALPHA_X */\n      0x0c38a5a6331af6508c2c605eb9883bd4ad895e7d8c9a6c23070ef6ae04933b02\n        /* \"Evm/zk/validators_verifier.sol\":25869:25874  0x180 */\n      0x0180\n        /* \"Evm/zk/validators_verifier.sol\":25866:25867  f */\n      dup3\n        /* \"Evm/zk/validators_verifier.sol\":25862:25875  add(f, 0x180) */\n      add\n        /* \"Evm/zk/validators_verifier.sol\":25855:25885  mstore(add(f, 0x180), ALPHA_X) */\n      mstore\n        /* \"Evm/zk/validators_verifier.sol\":25921:25928  ALPHA_Y */\n      0x1cbefb0235cfb3bda64ac4d16d0e372cc4348974c11b96b7a61b8ef7ba3539cc\n        /* \"Evm/zk/validators_verifier.sol\":25913:25918  0x1a0 */\n      0x01a0\n        /* \"Evm/zk/validators_verifier.sol\":25910:25911  f */\n      dup3\n        /* \"Evm/zk/validators_verifier.sol\":25906:25919  add(f, 0x1a0) */\n      add\n        /* \"Evm/zk/validators_verifier.sol\":25899:25929  mstore(add(f, 0x1a0), ALPHA_Y) */\n      mstore\n        /* \"Evm/zk/validators_verifier.sol\":25965:25977  BETA_NEG_X_1 */\n      0x096e386a3cb297307695b7997ac539327e7e0adf37d8b9d3ac30f39cf8365048\n        /* \"Evm/zk/validators_verifier.sol\":25957:25962  0x1c0 */\n      0x01c0\n        /* \"Evm/zk/validators_verifier.sol\":25954:25955  f */\n      dup3\n        /* \"Evm/zk/validators_verifier.sol\":25950:25963  add(f, 0x1c0) */\n      add\n        /* \"Evm/zk/validators_verifier.sol\":25943:25978  mstore(add(f, 0x1c0), BETA_NEG_X_1) */\n      mstore\n        /* \"Evm/zk/validators_verifier.sol\":26014:26026  BETA_NEG_X_0 */\n      0x252ec5ef7eedb90449cf931bff9fb05e9dfba11709c774df7df8aee9493ed026\n        /* \"Evm/zk/validators_verifier.sol\":26006:26011  0x1e0 */\n      0x01e0\n        /* \"Evm/zk/validators_verifier.sol\":26003:26004  f */\n      dup3\n        /* \"Evm/zk/validators_verifier.sol\":25999:26012  add(f, 0x1e0) */\n      add\n        /* \"Evm/zk/validators_verifier.sol\":25992:26027  mstore(add(f, 0x1e0), BETA_NEG_X_0) */\n      mstore\n        /* \"Evm/zk/validators_verifier.sol\":26063:26075  BETA_NEG_Y_1 */\n      0x1a77f95b6692a213f7a8bd8df298fdcb850f05c5053c416462c24af03886ffa5\n        /* \"Evm/zk/validators_verifier.sol\":26055:26060  0x200 */\n      0x0200\n        /* \"Evm/zk/validators_verifier.sol\":26052:26053  f */\n      dup3\n        /* \"Evm/zk/validators_verifier.sol\":26048:26061  add(f, 0x200) */\n      add\n        /* \"Evm/zk/validators_verifier.sol\":26041:26076  mstore(add(f, 0x200), BETA_NEG_Y_1) */\n      mstore\n        /* \"Evm/zk/validators_verifier.sol\":26112:26124  BETA_NEG_Y_0 */\n      0x20bdd93de013da4035ad73a666b8c13c35e4f9ed54af28db1feefd64d9353554\n        /* \"Evm/zk/validators_verifier.sol\":26104:26109  0x220 */\n      0x0220\n        /* \"Evm/zk/validators_verifier.sol\":26101:26102  f */\n      dup3\n        /* \"Evm/zk/validators_verifier.sol\":26097:26110  add(f, 0x220) */\n      add\n        /* \"Evm/zk/validators_verifier.sol\":26090:26125  mstore(add(f, 0x220), BETA_NEG_Y_0) */\n      mstore\n        /* \"Evm/zk/validators_verifier.sol\":26161:26162  x */\n      dup4\n        /* \"Evm/zk/validators_verifier.sol\":26153:26158  0x240 */\n      0x0240\n        /* \"Evm/zk/validators_verifier.sol\":26150:26151  f */\n      dup3\n        /* \"Evm/zk/validators_verifier.sol\":26146:26159  add(f, 0x240) */\n      add\n        /* \"Evm/zk/validators_verifier.sol\":26139:26163  mstore(add(f, 0x240), x) */\n      mstore\n        /* \"Evm/zk/validators_verifier.sol\":26199:26200  y */\n      dup3\n        /* \"Evm/zk/validators_verifier.sol\":26191:26196  0x260 */\n      0x0260\n        /* \"Evm/zk/validators_verifier.sol\":26188:26189  f */\n      dup3\n        /* \"Evm/zk/validators_verifier.sol\":26184:26197  add(f, 0x260) */\n      add\n        /* \"Evm/zk/validators_verifier.sol\":26177:26201  mstore(add(f, 0x260), y) */\n      mstore\n        /* \"Evm/zk/validators_verifier.sol\":26237:26250  GAMMA_NEG_X_1 */\n      0x30048128b51b2be040694d2c26740dc6561cbbb3da45f55ddcafe0acc699719d\n        /* \"Evm/zk/validators_verifier.sol\":26229:26234  0x280 */\n      0x0280\n        /* \"Evm/zk/validators_verifier.sol\":26226:26227  f */\n      dup3\n        /* \"Evm/zk/validators_verifier.sol\":26222:26235  add(f, 0x280) */\n      add\n        /* \"Evm/zk/validators_verifier.sol\":26215:26251  mstore(add(f, 0x280), GAMMA_NEG_X_1) */\n      mstore\n        /* \"Evm/zk/validators_verifier.sol\":26287:26300  GAMMA_NEG_X_0 */\n      0x2da36ddf8f6b82b19ad1e6c7a137da3d7dab41becddb43af698b8533ebfab397\n        /* \"Evm/zk/validators_verifier.sol\":26279:26284  0x2a0 */\n      0x02a0\n        /* \"Evm/zk/validators_verifier.sol\":26276:26277  f */\n      dup3\n        /* \"Evm/zk/validators_verifier.sol\":26272:26285  add(f, 0x2a0) */\n      add\n        /* \"Evm/zk/validators_verifier.sol\":26265:26301  mstore(add(f, 0x2a0), GAMMA_NEG_X_0) */\n      mstore\n        /* \"Evm/zk/validators_verifier.sol\":26337:26350  GAMMA_NEG_Y_1 */\n      0x0cec548663d0b16b39c73bf25641adb96a7e134a97adc503206d9dbfda93af44\n        /* \"Evm/zk/validators_verifier.sol\":26329:26334  0x2c0 */\n      0x02c0\n        /* \"Evm/zk/validators_verifier.sol\":26326:26327  f */\n      dup3\n        /* \"Evm/zk/validators_verifier.sol\":26322:26335  add(f, 0x2c0) */\n      add\n        /* \"Evm/zk/validators_verifier.sol\":26315:26351  mstore(add(f, 0x2c0), GAMMA_NEG_Y_1) */\n      mstore\n        /* \"Evm/zk/validators_verifier.sol\":26387:26400  GAMMA_NEG_Y_0 */\n      0x0e1ac436d54f592cc60e77e2e777709a3cf981ce133afef4403c967c55838245\n        /* \"Evm/zk/validators_verifier.sol\":26379:26384  0x2e0 */\n      0x02e0\n        /* \"Evm/zk/validators_verifier.sol\":26376:26377  f */\n      dup3\n        /* \"Evm/zk/validators_verifier.sol\":26372:26385  add(f, 0x2e0) */\n      add\n        /* \"Evm/zk/validators_verifier.sol\":26365:26401  mstore(add(f, 0x2e0), GAMMA_NEG_Y_0) */\n      mstore\n        /* \"Evm/zk/validators_verifier.sol\":26518:26522  0x20 */\n      0x20\n        /* \"Evm/zk/validators_verifier.sol\":26515:26516  f */\n      dup2\n        /* \"Evm/zk/validators_verifier.sol\":26508:26513  0x300 */\n      0x0300\n        /* \"Evm/zk/validators_verifier.sol\":26505:26506  f */\n      dup4\n        /* \"Evm/zk/validators_verifier.sol\":26486:26503  PRECOMPILE_VERIFY */\n      0x08\n        /* \"Evm/zk/validators_verifier.sol\":26479:26484  gas() */\n      gas\n        /* \"Evm/zk/validators_verifier.sol\":26468:26523  staticcall(gas(), PRECOMPILE_VERIFY, f, 0x300, f, 0x20) */\n      staticcall\n        /* \"Evm/zk/validators_verifier.sol\":26457:26523  success := staticcall(gas(), PRECOMPILE_VERIFY, f, 0x300, f, 0x20) */\n      swap2\n      pop\n        /* \"Evm/zk/validators_verifier.sol\":26635:26636  f */\n      dup1\n        /* \"Evm/zk/validators_verifier.sol\":26629:26637  mload(f) */\n      mload\n        /* \"Evm/zk/validators_verifier.sol\":26620:26627  success */\n      dup3\n        /* \"Evm/zk/validators_verifier.sol\":26616:26638  and(success, mload(f)) */\n      and\n        /* \"Evm/zk/validators_verifier.sol\":26605:26638  success := and(success, mload(f)) */\n      swap2\n      pop\n        /* \"Evm/zk/validators_verifier.sol\":25117:26649  {... */\n      pop\n        /* \"Evm/zk/validators_verifier.sol\":26664:26671  success */\n      dup1\n        /* \"Evm/zk/validators_verifier.sol\":26659:26876  if (!success) {... */\n      tag_23\n      jumpi\n        /* \"Evm/zk/validators_verifier.sol\":26850:26864  ProofInvalid() */\n      mload(0x40)\n      0x7fcdd1f400000000000000000000000000000000000000000000000000000000\n      dup2\n      mstore\n      0x04\n      add\n      mload(0x40)\n      dup1\n      swap2\n      sub\n      swap1\n      revert\n        /* \"Evm/zk/validators_verifier.sol\":26659:26876  if (!success) {... */\n    tag_23:\n        /* \"Evm/zk/validators_verifier.sol\":24821:26883  {... */\n      pop\n      pop\n      pop\n        /* \"Evm/zk/validators_verifier.sol\":24709:26883  function verifyProof(... */\n      pop\n      pop\n      jump\t// out\n        /* \"Evm/zk/validators_verifier.sol\":20986:21311  function compressProof(uint256[8] calldata proof)... */\n    tag_13:\n        /* \"Evm/zk/validators_verifier.sol\":21062:21090  uint256[4] memory compressed */\n      tag_24\n      tag_25\n      jump\t// in\n    tag_24:\n        /* \"Evm/zk/validators_verifier.sol\":21119:21150  compress_g1(proof[0], proof[1]) */\n      tag_27\n        /* \"Evm/zk/validators_verifier.sol\":21131:21136  proof */\n      dup3\n        /* \"Evm/zk/validators_verifier.sol\":21137:21138  0 */\n      0x00\n        /* \"Evm/zk/validators_verifier.sol\":21131:21139  proof[0] */\n      0x08\n      dup2\n      lt\n      tag_28\n      jumpi\n      tag_29\n      tag_30\n      jump\t// in\n    tag_29:\n    tag_28:\n      0x20\n      mul\n      add\n      calldataload\n        /* \"Evm/zk/validators_verifier.sol\":21141:21146  proof */\n      dup4\n        /* \"Evm/zk/validators_verifier.sol\":21147:21148  1 */\n      0x01\n        /* \"Evm/zk/validators_verifier.sol\":21141:21149  proof[1] */\n      0x08\n      dup2\n      lt\n      tag_31\n      jumpi\n      tag_32\n      tag_30\n      jump\t// in\n    tag_32:\n    tag_31:\n      0x20\n      mul\n      add\n      calldataload\n        /* \"Evm/zk/validators_verifier.sol\":21119:21130  compress_g1 */\n      tag_33\n        /* \"Evm/zk/validators_verifier.sol\":21119:21150  compress_g1(proof[0], proof[1]) */\n      jump\t// in\n    tag_27:\n        /* \"Evm/zk/validators_verifier.sol\":21103:21113  compressed */\n      dup2\n        /* \"Evm/zk/validators_verifier.sol\":21114:21115  0 */\n      0x00\n        /* \"Evm/zk/validators_verifier.sol\":21103:21116  compressed[0] */\n      0x04\n      dup2\n      lt\n      tag_34\n      jumpi\n      tag_35\n      tag_30\n      jump\t// in\n    tag_35:\n    tag_34:\n      0x20\n      mul\n      add\n        /* \"Evm/zk/validators_verifier.sol\":21103:21150  compressed[0] = compress_g1(proof[0], proof[1]) */\n      dup2\n      dup2\n      mstore\n      pop\n      pop\n        /* \"Evm/zk/validators_verifier.sol\":21194:21245  compress_g2(proof[3], proof[2], proof[5], proof[4]) */\n      tag_36\n        /* \"Evm/zk/validators_verifier.sol\":21206:21211  proof */\n      dup3\n        /* \"Evm/zk/validators_verifier.sol\":21212:21213  3 */\n      0x03\n        /* \"Evm/zk/validators_verifier.sol\":21206:21214  proof[3] */\n      0x08\n      dup2\n      lt\n      tag_37\n      jumpi\n      tag_38\n      tag_30\n      jump\t// in\n    tag_38:\n    tag_37:\n      0x20\n      mul\n      add\n      calldataload\n        /* \"Evm/zk/validators_verifier.sol\":21216:21221  proof */\n      dup4\n        /* \"Evm/zk/validators_verifier.sol\":21222:21223  2 */\n      0x02\n        /* \"Evm/zk/validators_verifier.sol\":21216:21224  proof[2] */\n      0x08\n      dup2\n      lt\n      tag_39\n      jumpi\n      tag_40\n      tag_30\n      jump\t// in\n    tag_40:\n    tag_39:\n      0x20\n      mul\n      add\n      calldataload\n        /* \"Evm/zk/validators_verifier.sol\":21226:21231  proof */\n      dup5\n        /* \"Evm/zk/validators_verifier.sol\":21232:21233  5 */\n      0x05\n        /* \"Evm/zk/validators_verifier.sol\":21226:21234  proof[5] */\n      0x08\n      dup2\n      lt\n      tag_41\n      jumpi\n      tag_42\n      tag_30\n      jump\t// in\n    tag_42:\n    tag_41:\n      0x20\n      mul\n      add\n      calldataload\n        /* \"Evm/zk/validators_verifier.sol\":21236:21241  proof */\n      dup6\n        /* \"Evm/zk/validators_verifier.sol\":21242:21243  4 */\n      0x04\n        /* \"Evm/zk/validators_verifier.sol\":21236:21244  proof[4] */\n      0x08\n      dup2\n      lt\n      tag_43\n      jumpi\n      tag_44\n      tag_30\n      jump\t// in\n    tag_44:\n    tag_43:\n      0x20\n      mul\n      add\n      calldataload\n        /* \"Evm/zk/validators_verifier.sol\":21194:21205  compress_g2 */\n      tag_45\n        /* \"Evm/zk/validators_verifier.sol\":21194:21245  compress_g2(proof[3], proof[2], proof[5], proof[4]) */\n      jump\t// in\n    tag_36:\n        /* \"Evm/zk/validators_verifier.sol\":21162:21172  compressed */\n      dup3\n        /* \"Evm/zk/validators_verifier.sol\":21173:21174  2 */\n      0x02\n        /* \"Evm/zk/validators_verifier.sol\":21162:21175  compressed[2] */\n      0x04\n      dup2\n      lt\n      tag_46\n      jumpi\n      tag_47\n      tag_30\n      jump\t// in\n    tag_47:\n    tag_46:\n      0x20\n      mul\n      add\n        /* \"Evm/zk/validators_verifier.sol\":21177:21187  compressed */\n      dup4\n        /* \"Evm/zk/validators_verifier.sol\":21188:21189  1 */\n      0x01\n        /* \"Evm/zk/validators_verifier.sol\":21177:21190  compressed[1] */\n      0x04\n      dup2\n      lt\n      tag_48\n      jumpi\n      tag_49\n      tag_30\n      jump\t// in\n    tag_49:\n    tag_48:\n      0x20\n      mul\n      add\n        /* \"Evm/zk/validators_verifier.sol\":21161:21245  (compressed[2], compressed[1]) = compress_g2(proof[3], proof[2], proof[5], proof[4]) */\n      dup3\n      dup2\n      mstore\n      pop\n      dup3\n      dup2\n      mstore\n      pop\n      pop\n      pop\n        /* \"Evm/zk/validators_verifier.sol\":21272:21303  compress_g1(proof[6], proof[7]) */\n      tag_50\n        /* \"Evm/zk/validators_verifier.sol\":21284:21289  proof */\n      dup3\n        /* \"Evm/zk/validators_verifier.sol\":21290:21291  6 */\n      0x06\n        /* \"Evm/zk/validators_verifier.sol\":21284:21292  proof[6] */\n      0x08\n      dup2\n      lt\n      tag_51\n      jumpi\n      tag_52\n      tag_30\n      jump\t// in\n    tag_52:\n    tag_51:\n      0x20\n      mul\n      add\n      calldataload\n        /* \"Evm/zk/validators_verifier.sol\":21294:21299  proof */\n      dup4\n        /* \"Evm/zk/validators_verifier.sol\":21300:21301  7 */\n      0x07\n        /* \"Evm/zk/validators_verifier.sol\":21294:21302  proof[7] */\n      0x08\n      dup2\n      lt\n      tag_53\n      jumpi\n      tag_54\n      tag_30\n      jump\t// in\n    tag_54:\n    tag_53:\n      0x20\n      mul\n      add\n      calldataload\n        /* \"Evm/zk/validators_verifier.sol\":21272:21283  compress_g1 */\n      tag_33\n        /* \"Evm/zk/validators_verifier.sol\":21272:21303  compress_g1(proof[6], proof[7]) */\n      jump\t// in\n    tag_50:\n        /* \"Evm/zk/validators_verifier.sol\":21256:21266  compressed */\n      dup2\n        /* \"Evm/zk/validators_verifier.sol\":21267:21268  3 */\n      0x03\n        /* \"Evm/zk/validators_verifier.sol\":21256:21269  compressed[3] */\n      0x04\n      dup2\n      lt\n      tag_55\n      jumpi\n      tag_56\n      tag_30\n      jump\t// in\n    tag_56:\n    tag_55:\n      0x20\n      mul\n      add\n        /* \"Evm/zk/validators_verifier.sol\":21256:21303  compressed[3] = compress_g1(proof[6], proof[7]) */\n      dup2\n      dup2\n      mstore\n      pop\n      pop\n        /* \"Evm/zk/validators_verifier.sol\":20986:21311  function compressProof(uint256[8] calldata proof)... */\n      swap2\n      swap1\n      pop\n      jump\t// out\n        /* \"Evm/zk/validators_verifier.sol\":21870:24172  function verifyCompressedProof(... */\n    tag_19:\n        /* \"Evm/zk/validators_verifier.sol\":22013:22040  uint256[24] memory pairings */\n      tag_58\n      tag_59\n      jump\t// in\n    tag_58:\n        /* \"Evm/zk/validators_verifier.sol\":22069:22079  uint256 Ax */\n      0x00\n        /* \"Evm/zk/validators_verifier.sol\":22081:22091  uint256 Ay */\n      0x00\n        /* \"Evm/zk/validators_verifier.sol\":22095:22128  decompress_g1(compressedProof[0]) */\n      tag_60\n        /* \"Evm/zk/validators_verifier.sol\":22109:22124  compressedProof */\n      dup6\n        /* \"Evm/zk/validators_verifier.sol\":22125:22126  0 */\n      0x00\n        /* \"Evm/zk/validators_verifier.sol\":22109:22127  compressedProof[0] */\n      0x04\n      dup2\n      lt\n      tag_61\n      jumpi\n      tag_62\n      tag_30\n      jump\t// in\n    tag_62:\n    tag_61:\n      0x20\n      mul\n      add\n      calldataload\n        /* \"Evm/zk/validators_verifier.sol\":22095:22108  decompress_g1 */\n      tag_63\n        /* \"Evm/zk/validators_verifier.sol\":22095:22128  decompress_g1(compressedProof[0]) */\n      jump\t// in\n    tag_60:\n        /* \"Evm/zk/validators_verifier.sol\":22068:22128  (uint256 Ax, uint256 Ay) = decompress_g1(compressedProof[0]) */\n      swap2\n      pop\n      swap2\n      pop\n        /* \"Evm/zk/validators_verifier.sol\":22144:22155  uint256 Bx0 */\n      0x00\n        /* \"Evm/zk/validators_verifier.sol\":22157:22168  uint256 Bx1 */\n      0x00\n        /* \"Evm/zk/validators_verifier.sol\":22170:22181  uint256 By0 */\n      0x00\n        /* \"Evm/zk/validators_verifier.sol\":22183:22194  uint256 By1 */\n      0x00\n        /* \"Evm/zk/validators_verifier.sol\":22198:22251  decompress_g2(compressedProof[2], compressedProof[1]) */\n      tag_64\n        /* \"Evm/zk/validators_verifier.sol\":22212:22227  compressedProof */\n      dup10\n        /* \"Evm/zk/validators_verifier.sol\":22228:22229  2 */\n      0x02\n        /* \"Evm/zk/validators_verifier.sol\":22212:22230  compressedProof[2] */\n      0x04\n      dup2\n      lt\n      tag_65\n      jumpi\n      tag_66\n      tag_30\n      jump\t// in\n    tag_66:\n    tag_65:\n      0x20\n      mul\n      add\n      calldataload\n        /* \"Evm/zk/validators_verifier.sol\":22232:22247  compressedProof */\n      dup11\n        /* \"Evm/zk/validators_verifier.sol\":22248:22249  1 */\n      0x01\n        /* \"Evm/zk/validators_verifier.sol\":22232:22250  compressedProof[1] */\n      0x04\n      dup2\n      lt\n      tag_67\n      jumpi\n      tag_68\n      tag_30\n      jump\t// in\n    tag_68:\n    tag_67:\n      0x20\n      mul\n      add\n      calldataload\n        /* \"Evm/zk/validators_verifier.sol\":22198:22211  decompress_g2 */\n      tag_69\n        /* \"Evm/zk/validators_verifier.sol\":22198:22251  decompress_g2(compressedProof[2], compressedProof[1]) */\n      jump\t// in\n    tag_64:\n        /* \"Evm/zk/validators_verifier.sol\":22143:22251  (uint256 Bx0, uint256 Bx1, uint256 By0, uint256 By1) = decompress_g2(compressedProof[2], compressedProof[1]) */\n      swap4\n      pop\n      swap4\n      pop\n      swap4\n      pop\n      swap4\n      pop\n        /* \"Evm/zk/validators_verifier.sol\":22267:22277  uint256 Cx */\n      0x00\n        /* \"Evm/zk/validators_verifier.sol\":22279:22289  uint256 Cy */\n      0x00\n        /* \"Evm/zk/validators_verifier.sol\":22293:22326  decompress_g1(compressedProof[3]) */\n      tag_70\n        /* \"Evm/zk/validators_verifier.sol\":22307:22322  compressedProof */\n      dup12\n        /* \"Evm/zk/validators_verifier.sol\":22323:22324  3 */\n      0x03\n        /* \"Evm/zk/validators_verifier.sol\":22307:22325  compressedProof[3] */\n      0x04\n      dup2\n      lt\n      tag_71\n      jumpi\n      tag_72\n      tag_30\n      jump\t// in\n    tag_72:\n    tag_71:\n      0x20\n      mul\n      add\n      calldataload\n        /* \"Evm/zk/validators_verifier.sol\":22293:22306  decompress_g1 */\n      tag_63\n        /* \"Evm/zk/validators_verifier.sol\":22293:22326  decompress_g1(compressedProof[3]) */\n      jump\t// in\n    tag_70:\n        /* \"Evm/zk/validators_verifier.sol\":22266:22326  (uint256 Cx, uint256 Cy) = decompress_g1(compressedProof[3]) */\n      swap2\n      pop\n      swap2\n      pop\n        /* \"Evm/zk/validators_verifier.sol\":22342:22352  uint256 Lx */\n      0x00\n        /* \"Evm/zk/validators_verifier.sol\":22354:22364  uint256 Ly */\n      0x00\n        /* \"Evm/zk/validators_verifier.sol\":22368:22389  publicInputMSM(input) */\n      tag_73\n        /* \"Evm/zk/validators_verifier.sol\":22383:22388  input */\n      dup13\n        /* \"Evm/zk/validators_verifier.sol\":22368:22382  publicInputMSM */\n      tag_22\n        /* \"Evm/zk/validators_verifier.sol\":22368:22389  publicInputMSM(input) */\n      jump\t// in\n    tag_73:\n        /* \"Evm/zk/validators_verifier.sol\":22341:22389  (uint256 Lx, uint256 Ly) = publicInputMSM(input) */\n      swap2\n      pop\n      swap2\n      pop\n        /* \"Evm/zk/validators_verifier.sol\":22666:22668  Ax */\n      dup10\n        /* \"Evm/zk/validators_verifier.sol\":22651:22659  pairings */\n      dup12\n        /* \"Evm/zk/validators_verifier.sol\":22661:22662  0 */\n      0x00\n        /* \"Evm/zk/validators_verifier.sol\":22651:22663  pairings[ 0] */\n      0x18\n      dup2\n      lt\n      tag_74\n      jumpi\n      tag_75\n      tag_30\n      jump\t// in\n    tag_75:\n    tag_74:\n      0x20\n      mul\n      add\n        /* \"Evm/zk/validators_verifier.sol\":22651:22668  pairings[ 0] = Ax */\n      dup2\n      dup2\n      mstore\n      pop\n      pop\n        /* \"Evm/zk/validators_verifier.sol\":22698:22700  Ay */\n      dup9\n        /* \"Evm/zk/validators_verifier.sol\":22683:22691  pairings */\n      dup12\n        /* \"Evm/zk/validators_verifier.sol\":22693:22694  1 */\n      0x01\n        /* \"Evm/zk/validators_verifier.sol\":22683:22695  pairings[ 1] */\n      0x18\n      dup2\n      lt\n      tag_76\n      jumpi\n      tag_77\n      tag_30\n      jump\t// in\n    tag_77:\n    tag_76:\n      0x20\n      mul\n      add\n        /* \"Evm/zk/validators_verifier.sol\":22683:22700  pairings[ 1] = Ay */\n      dup2\n      dup2\n      mstore\n      pop\n      pop\n        /* \"Evm/zk/validators_verifier.sol\":22730:22733  Bx1 */\n      dup7\n        /* \"Evm/zk/validators_verifier.sol\":22715:22723  pairings */\n      dup12\n        /* \"Evm/zk/validators_verifier.sol\":22725:22726  2 */\n      0x02\n        /* \"Evm/zk/validators_verifier.sol\":22715:22727  pairings[ 2] */\n      0x18\n      dup2\n      lt\n      tag_78\n      jumpi\n      tag_79\n      tag_30\n      jump\t// in\n    tag_79:\n    tag_78:\n      0x20\n      mul\n      add\n        /* \"Evm/zk/validators_verifier.sol\":22715:22733  pairings[ 2] = Bx1 */\n      dup2\n      dup2\n      mstore\n      pop\n      pop\n        /* \"Evm/zk/validators_verifier.sol\":22763:22766  Bx0 */\n      dup8\n        /* \"Evm/zk/validators_verifier.sol\":22748:22756  pairings */\n      dup12\n        /* \"Evm/zk/validators_verifier.sol\":22758:22759  3 */\n      0x03\n        /* \"Evm/zk/validators_verifier.sol\":22748:22760  pairings[ 3] */\n      0x18\n      dup2\n      lt\n      tag_80\n      jumpi\n      tag_81\n      tag_30\n      jump\t// in\n    tag_81:\n    tag_80:\n      0x20\n      mul\n      add\n        /* \"Evm/zk/validators_verifier.sol\":22748:22766  pairings[ 3] = Bx0 */\n      dup2\n      dup2\n      mstore\n      pop\n      pop\n        /* \"Evm/zk/validators_verifier.sol\":22796:22799  By1 */\n      dup5\n        /* \"Evm/zk/validators_verifier.sol\":22781:22789  pairings */\n      dup12\n        /* \"Evm/zk/validators_verifier.sol\":22791:22792  4 */\n      0x04\n        /* \"Evm/zk/validators_verifier.sol\":22781:22793  pairings[ 4] */\n      0x18\n      dup2\n      lt\n      tag_82\n      jumpi\n      tag_83\n      tag_30\n      jump\t// in\n    tag_83:\n    tag_82:\n      0x20\n      mul\n      add\n        /* \"Evm/zk/validators_verifier.sol\":22781:22799  pairings[ 4] = By1 */\n      dup2\n      dup2\n      mstore\n      pop\n      pop\n        /* \"Evm/zk/validators_verifier.sol\":22829:22832  By0 */\n      dup6\n        /* \"Evm/zk/validators_verifier.sol\":22814:22822  pairings */\n      dup12\n        /* \"Evm/zk/validators_verifier.sol\":22824:22825  5 */\n      0x05\n        /* \"Evm/zk/validators_verifier.sol\":22814:22826  pairings[ 5] */\n      0x18\n      dup2\n      lt\n      tag_84\n      jumpi\n      tag_85\n      tag_30\n      jump\t// in\n    tag_85:\n    tag_84:\n      0x20\n      mul\n      add\n        /* \"Evm/zk/validators_verifier.sol\":22814:22832  pairings[ 5] = By0 */\n      dup2\n      dup2\n      mstore\n      pop\n      pop\n        /* \"Evm/zk/validators_verifier.sol\":22888:22890  Cx */\n      dup4\n        /* \"Evm/zk/validators_verifier.sol\":22873:22881  pairings */\n      dup12\n        /* \"Evm/zk/validators_verifier.sol\":22883:22884  6 */\n      0x06\n        /* \"Evm/zk/validators_verifier.sol\":22873:22885  pairings[ 6] */\n      0x18\n      dup2\n      lt\n      tag_86\n      jumpi\n      tag_87\n      tag_30\n      jump\t// in\n    tag_87:\n    tag_86:\n      0x20\n      mul\n      add\n        /* \"Evm/zk/validators_verifier.sol\":22873:22890  pairings[ 6] = Cx */\n      dup2\n      dup2\n      mstore\n      pop\n      pop\n        /* \"Evm/zk/validators_verifier.sol\":22920:22922  Cy */\n      dup3\n        /* \"Evm/zk/validators_verifier.sol\":22905:22913  pairings */\n      dup12\n        /* \"Evm/zk/validators_verifier.sol\":22915:22916  7 */\n      0x07\n        /* \"Evm/zk/validators_verifier.sol\":22905:22917  pairings[ 7] */\n      0x18\n      dup2\n      lt\n      tag_88\n      jumpi\n      tag_89\n      tag_30\n      jump\t// in\n    tag_89:\n    tag_88:\n      0x20\n      mul\n      add\n        /* \"Evm/zk/validators_verifier.sol\":22905:22922  pairings[ 7] = Cy */\n      dup2\n      dup2\n      mstore\n      pop\n      pop\n        /* \"Evm/zk/validators_verifier.sol\":4217:4293  7364403773399110264319511407061377651361021678662939183973621416862557553126 */\n      0x10481ad5b970ba768b0a6a20fdad85a49f78d1f650ae618718c75d026ca241e6\n        /* \"Evm/zk/validators_verifier.sol\":22937:22945  pairings */\n      dup12\n        /* \"Evm/zk/validators_verifier.sol\":22947:22948  8 */\n      0x08\n        /* \"Evm/zk/validators_verifier.sol\":22937:22949  pairings[ 8] */\n      0x18\n      dup2\n      lt\n      tag_90\n      jumpi\n      tag_91\n      tag_30\n      jump\t// in\n    tag_91:\n    tag_90:\n      0x20\n      mul\n      add\n        /* \"Evm/zk/validators_verifier.sol\":22937:22965  pairings[ 8] = DELTA_NEG_X_1 */\n      dup2\n      dup2\n      mstore\n      pop\n      pop\n        /* \"Evm/zk/validators_verifier.sol\":4100:4177  13744885563658335070228803668167337019469492516807972386125416486237535118105 */\n      0x1e63545cbb6efeefda09620dab83bfb970dc335990740f7112291388cf32a319\n        /* \"Evm/zk/validators_verifier.sol\":22980:22988  pairings */\n      dup12\n        /* \"Evm/zk/validators_verifier.sol\":22990:22991  9 */\n      0x09\n        /* \"Evm/zk/validators_verifier.sol\":22980:22992  pairings[ 9] */\n      0x18\n      dup2\n      lt\n      tag_92\n      jumpi\n      tag_93\n      tag_30\n      jump\t// in\n    tag_93:\n    tag_92:\n      0x20\n      mul\n      add\n        /* \"Evm/zk/validators_verifier.sol\":22980:23008  pairings[ 9] = DELTA_NEG_X_0 */\n      dup2\n      dup2\n      mstore\n      pop\n      pop\n        /* \"Evm/zk/validators_verifier.sol\":4450:4526  4089255941037742858608850338580322337250022266554312633649844780272112612110 */\n      0x090a6fd4e1dfe76372ff7113393b0811ff2653fe08daba470858e8b21eabb30e\n        /* \"Evm/zk/validators_verifier.sol\":23023:23031  pairings */\n      dup12\n        /* \"Evm/zk/validators_verifier.sol\":23032:23034  10 */\n      0x0a\n        /* \"Evm/zk/validators_verifier.sol\":23023:23035  pairings[10] */\n      0x18\n      dup2\n      lt\n      tag_94\n      jumpi\n      tag_95\n      tag_30\n      jump\t// in\n    tag_95:\n    tag_94:\n      0x20\n      mul\n      add\n        /* \"Evm/zk/validators_verifier.sol\":23023:23051  pairings[10] = DELTA_NEG_Y_1 */\n      dup2\n      dup2\n      mstore\n      pop\n      pop\n        /* \"Evm/zk/validators_verifier.sol\":4333:4410  17700167252901721869705141864070181490319787336326076559704640453528035332211 */\n      0x2721f08c6d35190080f877e0369d48e9a21dd70829722da057283b71d8111073\n        /* \"Evm/zk/validators_verifier.sol\":23066:23074  pairings */\n      dup12\n        /* \"Evm/zk/validators_verifier.sol\":23075:23077  11 */\n      0x0b\n        /* \"Evm/zk/validators_verifier.sol\":23066:23078  pairings[11] */\n      0x18\n      dup2\n      lt\n      tag_96\n      jumpi\n      tag_97\n      tag_30\n      jump\t// in\n    tag_97:\n    tag_96:\n      0x20\n      mul\n      add\n        /* \"Evm/zk/validators_verifier.sol\":23066:23094  pairings[11] = DELTA_NEG_Y_0 */\n      dup2\n      dup2\n      mstore\n      pop\n      pop\n        /* \"Evm/zk/validators_verifier.sol\":2792:2868  5527840887507171840050758565757267009461387317636903029137226145475805264642 */\n      0x0c38a5a6331af6508c2c605eb9883bd4ad895e7d8c9a6c23070ef6ae04933b02\n        /* \"Evm/zk/validators_verifier.sol\":23136:23144  pairings */\n      dup12\n        /* \"Evm/zk/validators_verifier.sol\":23145:23147  12 */\n      0x0c\n        /* \"Evm/zk/validators_verifier.sol\":23136:23148  pairings[12] */\n      0x18\n      dup2\n      lt\n      tag_98\n      jumpi\n      tag_99\n      tag_30\n      jump\t// in\n    tag_99:\n    tag_98:\n      0x20\n      mul\n      add\n        /* \"Evm/zk/validators_verifier.sol\":23136:23158  pairings[12] = ALPHA_X */\n      dup2\n      dup2\n      mstore\n      pop\n      pop\n        /* \"Evm/zk/validators_verifier.sol\":2902:2979  13002193100559284814520351965333917117671799499249382415640967544929529444812 */\n      0x1cbefb0235cfb3bda64ac4d16d0e372cc4348974c11b96b7a61b8ef7ba3539cc\n        /* \"Evm/zk/validators_verifier.sol\":23173:23181  pairings */\n      dup12\n        /* \"Evm/zk/validators_verifier.sol\":23182:23184  13 */\n      0x0d\n        /* \"Evm/zk/validators_verifier.sol\":23173:23185  pairings[13] */\n      0x18\n      dup2\n      lt\n      tag_100\n      jumpi\n      tag_101\n      tag_30\n      jump\t// in\n    tag_101:\n    tag_100:\n      0x20\n      mul\n      add\n        /* \"Evm/zk/validators_verifier.sol\":23173:23195  pairings[13] = ALPHA_Y */\n      dup2\n      dup2\n      mstore\n      pop\n      pop\n        /* \"Evm/zk/validators_verifier.sol\":3184:3260  4265558176316992165921477663287016372520851034643487149281402981307309772872 */\n      0x096e386a3cb297307695b7997ac539327e7e0adf37d8b9d3ac30f39cf8365048\n        /* \"Evm/zk/validators_verifier.sol\":23210:23218  pairings */\n      dup12\n        /* \"Evm/zk/validators_verifier.sol\":23219:23221  14 */\n      0x0e\n        /* \"Evm/zk/validators_verifier.sol\":23210:23222  pairings[14] */\n      0x18\n      dup2\n      lt\n      tag_102\n      jumpi\n      tag_103\n      tag_30\n      jump\t// in\n    tag_103:\n    tag_102:\n      0x20\n      mul\n      add\n        /* \"Evm/zk/validators_verifier.sol\":23210:23237  pairings[14] = BETA_NEG_X_1 */\n      dup2\n      dup2\n      mstore\n      pop\n      pop\n        /* \"Evm/zk/validators_verifier.sol\":3068:3145  16818216463385375444758779514016449233037158227936276395431626110915208728614 */\n      0x252ec5ef7eedb90449cf931bff9fb05e9dfba11709c774df7df8aee9493ed026\n        /* \"Evm/zk/validators_verifier.sol\":23252:23260  pairings */\n      dup12\n        /* \"Evm/zk/validators_verifier.sol\":23261:23263  15 */\n      0x0f\n        /* \"Evm/zk/validators_verifier.sol\":23252:23264  pairings[15] */\n      0x18\n      dup2\n      lt\n      tag_104\n      jumpi\n      tag_105\n      tag_30\n      jump\t// in\n    tag_105:\n    tag_104:\n      0x20\n      mul\n      add\n        /* \"Evm/zk/validators_verifier.sol\":23252:23279  pairings[15] = BETA_NEG_X_0 */\n      dup2\n      dup2\n      mstore\n      pop\n      pop\n        /* \"Evm/zk/validators_verifier.sol\":3415:3492  11972109862871226509853877630372244024273069021371311172221507052960160874405 */\n      0x1a77f95b6692a213f7a8bd8df298fdcb850f05c5053c416462c24af03886ffa5\n        /* \"Evm/zk/validators_verifier.sol\":23294:23302  pairings */\n      dup12\n        /* \"Evm/zk/validators_verifier.sol\":23303:23305  16 */\n      0x10\n        /* \"Evm/zk/validators_verifier.sol\":23294:23306  pairings[16] */\n      0x18\n      dup2\n      lt\n      tag_106\n      jumpi\n      tag_107\n      tag_30\n      jump\t// in\n    tag_107:\n    tag_106:\n      0x20\n      mul\n      add\n        /* \"Evm/zk/validators_verifier.sol\":23294:23321  pairings[16] = BETA_NEG_Y_1 */\n      dup2\n      dup2\n      mstore\n      pop\n      pop\n        /* \"Evm/zk/validators_verifier.sol\":3299:3376  14809444597019759510716931840591744064637773587541540033597029950512700929364 */\n      0x20bdd93de013da4035ad73a666b8c13c35e4f9ed54af28db1feefd64d9353554\n        /* \"Evm/zk/validators_verifier.sol\":23336:23344  pairings */\n      dup12\n        /* \"Evm/zk/validators_verifier.sol\":23345:23347  17 */\n      0x11\n        /* \"Evm/zk/validators_verifier.sol\":23336:23348  pairings[17] */\n      0x18\n      dup2\n      lt\n      tag_108\n      jumpi\n      tag_109\n      tag_30\n      jump\t// in\n    tag_109:\n    tag_108:\n      0x20\n      mul\n      add\n        /* \"Evm/zk/validators_verifier.sol\":23336:23363  pairings[17] = BETA_NEG_Y_0 */\n      dup2\n      dup2\n      mstore\n      pop\n      pop\n        /* \"Evm/zk/validators_verifier.sol\":23423:23425  Lx */\n      dup2\n        /* \"Evm/zk/validators_verifier.sol\":23408:23416  pairings */\n      dup12\n        /* \"Evm/zk/validators_verifier.sol\":23417:23419  18 */\n      0x12\n        /* \"Evm/zk/validators_verifier.sol\":23408:23420  pairings[18] */\n      0x18\n      dup2\n      lt\n      tag_110\n      jumpi\n      tag_111\n      tag_30\n      jump\t// in\n    tag_111:\n    tag_110:\n      0x20\n      mul\n      add\n        /* \"Evm/zk/validators_verifier.sol\":23408:23425  pairings[18] = Lx */\n      dup2\n      dup2\n      mstore\n      pop\n      pop\n        /* \"Evm/zk/validators_verifier.sol\":23455:23457  Ly */\n      dup1\n        /* \"Evm/zk/validators_verifier.sol\":23440:23448  pairings */\n      dup12\n        /* \"Evm/zk/validators_verifier.sol\":23449:23451  19 */\n      0x13\n        /* \"Evm/zk/validators_verifier.sol\":23440:23452  pairings[19] */\n      0x18\n      dup2\n      lt\n      tag_112\n      jumpi\n      tag_113\n      tag_30\n      jump\t// in\n    tag_113:\n    tag_112:\n      0x20\n      mul\n      add\n        /* \"Evm/zk/validators_verifier.sol\":23440:23457  pairings[19] = Ly */\n      dup2\n      dup2\n      mstore\n      pop\n      pop\n        /* \"Evm/zk/validators_verifier.sol\":3700:3777  21718975543005205301748885855104319501527837089685102964326162372106691113373 */\n      0x30048128b51b2be040694d2c26740dc6561cbbb3da45f55ddcafe0acc699719d\n        /* \"Evm/zk/validators_verifier.sol\":23472:23480  pairings */\n      dup12\n        /* \"Evm/zk/validators_verifier.sol\":23481:23483  20 */\n      0x14\n        /* \"Evm/zk/validators_verifier.sol\":23472:23484  pairings[20] */\n      0x18\n      dup2\n      lt\n      tag_114\n      jumpi\n      tag_115\n      tag_30\n      jump\t// in\n    tag_115:\n    tag_114:\n      0x20\n      mul\n      add\n        /* \"Evm/zk/validators_verifier.sol\":23472:23500  pairings[20] = GAMMA_NEG_X_1 */\n      dup2\n      dup2\n      mstore\n      pop\n      pop\n        /* \"Evm/zk/validators_verifier.sol\":3583:3660  20642832575329656040868123672592844419081400073396288657254219741364108309399 */\n      0x2da36ddf8f6b82b19ad1e6c7a137da3d7dab41becddb43af698b8533ebfab397\n        /* \"Evm/zk/validators_verifier.sol\":23515:23523  pairings */\n      dup12\n        /* \"Evm/zk/validators_verifier.sol\":23524:23526  21 */\n      0x15\n        /* \"Evm/zk/validators_verifier.sol\":23515:23527  pairings[21] */\n      0x18\n      dup2\n      lt\n      tag_116\n      jumpi\n      tag_117\n      tag_30\n      jump\t// in\n    tag_117:\n    tag_116:\n      0x20\n      mul\n      add\n        /* \"Evm/zk/validators_verifier.sol\":23515:23543  pairings[21] = GAMMA_NEG_X_0 */\n      dup2\n      dup2\n      mstore\n      pop\n      pop\n        /* \"Evm/zk/validators_verifier.sol\":3933:4009  5845313460124647381073727637525357676804839322602459998030880202336777776964 */\n      0x0cec548663d0b16b39c73bf25641adb96a7e134a97adc503206d9dbfda93af44\n        /* \"Evm/zk/validators_verifier.sol\":23558:23566  pairings */\n      dup12\n        /* \"Evm/zk/validators_verifier.sol\":23567:23569  22 */\n      0x16\n        /* \"Evm/zk/validators_verifier.sol\":23558:23570  pairings[22] */\n      0x18\n      dup2\n      lt\n      tag_118\n      jumpi\n      tag_119\n      tag_30\n      jump\t// in\n    tag_119:\n    tag_118:\n      0x20\n      mul\n      add\n        /* \"Evm/zk/validators_verifier.sol\":23558:23586  pairings[22] = GAMMA_NEG_Y_1 */\n      dup2\n      dup2\n      mstore\n      pop\n      pop\n        /* \"Evm/zk/validators_verifier.sol\":3817:3893  6379672124435218545377111756855417926804573140887300658784486909344018039365 */\n      0x0e1ac436d54f592cc60e77e2e777709a3cf981ce133afef4403c967c55838245\n        /* \"Evm/zk/validators_verifier.sol\":23601:23609  pairings */\n      dup12\n        /* \"Evm/zk/validators_verifier.sol\":23610:23612  23 */\n      0x17\n        /* \"Evm/zk/validators_verifier.sol\":23601:23613  pairings[23] */\n      0x18\n      dup2\n      lt\n      tag_120\n      jumpi\n      tag_121\n      tag_30\n      jump\t// in\n    tag_121:\n    tag_120:\n      0x20\n      mul\n      add\n        /* \"Evm/zk/validators_verifier.sol\":23601:23629  pairings[23] = GAMMA_NEG_Y_0 */\n      dup2\n      dup2\n      mstore\n      pop\n      pop\n        /* \"Evm/zk/validators_verifier.sol\":23686:23698  bool success */\n      0x00\n        /* \"Evm/zk/validators_verifier.sol\":23713:23737  uint256[1] memory output */\n      tag_122\n      tag_123\n      jump\t// in\n    tag_122:\n        /* \"Evm/zk/validators_verifier.sol\":23869:23873  0x20 */\n      0x20\n        /* \"Evm/zk/validators_verifier.sol\":23861:23867  output */\n      dup2\n        /* \"Evm/zk/validators_verifier.sol\":23854:23859  0x300 */\n      0x0300\n        /* \"Evm/zk/validators_verifier.sol\":23844:23852  pairings */\n      dup16\n        /* \"Evm/zk/validators_verifier.sol\":23825:23842  PRECOMPILE_VERIFY */\n      0x08\n        /* \"Evm/zk/validators_verifier.sol\":23818:23823  gas() */\n      gas\n        /* \"Evm/zk/validators_verifier.sol\":23807:23874  staticcall(gas(), PRECOMPILE_VERIFY, pairings, 0x300, output, 0x20) */\n      staticcall\n        /* \"Evm/zk/validators_verifier.sol\":23796:23874  success := staticcall(gas(), PRECOMPILE_VERIFY, pairings, 0x300, output, 0x20) */\n      swap2\n      pop\n        /* \"Evm/zk/validators_verifier.sol\":23908:23915  success */\n      dup2\n        /* \"Evm/zk/validators_verifier.sol\":23907:23915  !success */\n      iszero\n        /* \"Evm/zk/validators_verifier.sol\":23907:23933  !success || output[0] != 1 */\n      dup1\n      tag_124\n      jumpi\n      pop\n        /* \"Evm/zk/validators_verifier.sol\":23932:23933  1 */\n      0x01\n        /* \"Evm/zk/validators_verifier.sol\":23919:23925  output */\n      dup2\n        /* \"Evm/zk/validators_verifier.sol\":23926:23927  0 */\n      0x00\n        /* \"Evm/zk/validators_verifier.sol\":23919:23928  output[0] */\n      0x01\n      dup2\n      lt\n      tag_125\n      jumpi\n      tag_126\n      tag_30\n      jump\t// in\n    tag_126:\n    tag_125:\n      0x20\n      mul\n      add\n      mload\n        /* \"Evm/zk/validators_verifier.sol\":23919:23933  output[0] != 1 */\n      eq\n      iszero\n        /* \"Evm/zk/validators_verifier.sol\":23907:23933  !success || output[0] != 1 */\n    tag_124:\n        /* \"Evm/zk/validators_verifier.sol\":23903:24154  if (!success || output[0] != 1) {... */\n      iszero\n      tag_127\n      jumpi\n        /* \"Evm/zk/validators_verifier.sol\":24124:24138  ProofInvalid() */\n      mload(0x40)\n      0x7fcdd1f400000000000000000000000000000000000000000000000000000000\n      dup2\n      mstore\n      0x04\n      add\n      mload(0x40)\n      dup1\n      swap2\n      sub\n      swap1\n      revert\n        /* \"Evm/zk/validators_verifier.sol\":23903:24154  if (!success || output[0] != 1) {... */\n    tag_127:\n        /* \"Evm/zk/validators_verifier.sol\":22053:24165  {... */\n      pop\n      pop\n      pop\n      pop\n      pop\n      pop\n      pop\n      pop\n      pop\n      pop\n      pop\n      pop\n        /* \"Evm/zk/validators_verifier.sol\":22002:24172  {... */\n      pop\n        /* \"Evm/zk/validators_verifier.sol\":21870:24172  function verifyCompressedProof(... */\n      pop\n      pop\n      jump\t// out\n        /* \"Evm/zk/validators_verifier.sol\":17286:20493  function publicInputMSM(uint256[5] calldata input)... */\n    tag_22:\n        /* \"Evm/zk/validators_verifier.sol\":17365:17374  uint256 x */\n      0x00\n        /* \"Evm/zk/validators_verifier.sol\":17376:17385  uint256 y */\n      0x00\n        /* \"Evm/zk/validators_verifier.sol\":17999:18011  bool success */\n      0x00\n        /* \"Evm/zk/validators_verifier.sol\":18014:18018  true */\n      0x01\n        /* \"Evm/zk/validators_verifier.sol\":17999:18018  bool success = true */\n      swap1\n      pop\n        /* \"Evm/zk/validators_verifier.sol\":18084:18088  0x40 */\n      0x40\n        /* \"Evm/zk/validators_verifier.sol\":18078:18089  mload(0x40) */\n      mload\n        /* \"Evm/zk/validators_verifier.sol\":18119:18123  0x40 */\n      0x40\n        /* \"Evm/zk/validators_verifier.sol\":18116:18117  f */\n      dup2\n        /* \"Evm/zk/validators_verifier.sol\":18112:18124  add(f, 0x40) */\n      add\n        /* \"Evm/zk/validators_verifier.sol\":18138:18143  let s */\n      0x00\n        /* \"Evm/zk/validators_verifier.sol\":18167:18177  CONSTANT_X */\n      0xa509aed13d925f94102f63c365b02b86d6585d84ce579924775f086dc0323d\n        /* \"Evm/zk/validators_verifier.sol\":18164:18165  f */\n      dup4\n        /* \"Evm/zk/validators_verifier.sol\":18157:18178  mstore(f, CONSTANT_X) */\n      mstore\n        /* \"Evm/zk/validators_verifier.sol\":18213:18223  CONSTANT_Y */\n      0x12ed32cd2af1abf65efd91a4d6564258ff7ff948794d80f6ea40a22f9379c435\n        /* \"Evm/zk/validators_verifier.sol\":18206:18210  0x20 */\n      0x20\n        /* \"Evm/zk/validators_verifier.sol\":18203:18204  f */\n      dup5\n        /* \"Evm/zk/validators_verifier.sol\":18199:18211  add(f, 0x20) */\n      add\n        /* \"Evm/zk/validators_verifier.sol\":18192:18224  mstore(add(f, 0x20), CONSTANT_Y) */\n      mstore\n        /* \"Evm/zk/validators_verifier.sol\":18248:18255  PUB_0_X */\n      0x1c730aeca16e6d191f50f440ea5a2946c178263aa0900f03be6d3360cb6fb72c\n        /* \"Evm/zk/validators_verifier.sol\":18245:18246  g */\n      dup3\n        /* \"Evm/zk/validators_verifier.sol\":18238:18256  mstore(g, PUB_0_X) */\n      mstore\n        /* \"Evm/zk/validators_verifier.sol\":18291:18298  PUB_0_Y */\n      0x27fd731788de375d25f2fbd58073dc13d824ce9ac5832aac67283a995a30f0e0\n        /* \"Evm/zk/validators_verifier.sol\":18284:18288  0x20 */\n      0x20\n        /* \"Evm/zk/validators_verifier.sol\":18281:18282  g */\n      dup4\n        /* \"Evm/zk/validators_verifier.sol\":18277:18289  add(g, 0x20) */\n      add\n        /* \"Evm/zk/validators_verifier.sol\":18270:18299  mstore(add(g, 0x20), PUB_0_Y) */\n      mstore\n        /* \"Evm/zk/validators_verifier.sol\":18332:18337  input */\n      dup7\n        /* \"Evm/zk/validators_verifier.sol\":18319:18338  calldataload(input) */\n      calldataload\n        /* \"Evm/zk/validators_verifier.sol\":18313:18338  s :=  calldataload(input) */\n      swap1\n      pop\n        /* \"Evm/zk/validators_verifier.sol\":18373:18374  s */\n      dup1\n        /* \"Evm/zk/validators_verifier.sol\":18366:18370  0x40 */\n      0x40\n        /* \"Evm/zk/validators_verifier.sol\":18363:18364  g */\n      dup4\n        /* \"Evm/zk/validators_verifier.sol\":18359:18371  add(g, 0x40) */\n      add\n        /* \"Evm/zk/validators_verifier.sol\":18352:18375  mstore(add(g, 0x40), s) */\n      mstore\n        /* \"Evm/zk/validators_verifier.sol\":18419:18420  R */\n      0x30644e72e131a029b85045b68181585d2833e84879b9709143e1f593f0000001\n        /* \"Evm/zk/validators_verifier.sol\":18416:18417  s */\n      dup2\n        /* \"Evm/zk/validators_verifier.sol\":18413:18421  lt(s, R) */\n      lt\n        /* \"Evm/zk/validators_verifier.sol\":18404:18411  success */\n      dup5\n        /* \"Evm/zk/validators_verifier.sol\":18400:18422  and(success, lt(s, R)) */\n      and\n        /* \"Evm/zk/validators_verifier.sol\":18389:18422  success := and(success, lt(s, R)) */\n      swap4\n      pop\n        /* \"Evm/zk/validators_verifier.sol\":18506:18510  0x40 */\n      0x40\n        /* \"Evm/zk/validators_verifier.sol\":18503:18504  g */\n      dup3\n        /* \"Evm/zk/validators_verifier.sol\":18497:18501  0x60 */\n      0x60\n        /* \"Evm/zk/validators_verifier.sol\":18494:18495  g */\n      dup5\n        /* \"Evm/zk/validators_verifier.sol\":18478:18492  PRECOMPILE_MUL */\n      0x07\n        /* \"Evm/zk/validators_verifier.sol\":18471:18476  gas() */\n      gas\n        /* \"Evm/zk/validators_verifier.sol\":18460:18511  staticcall(gas(), PRECOMPILE_MUL, g, 0x60, g, 0x40) */\n      staticcall\n        /* \"Evm/zk/validators_verifier.sol\":18451:18458  success */\n      dup5\n        /* \"Evm/zk/validators_verifier.sol\":18447:18512  and(success, staticcall(gas(), PRECOMPILE_MUL, g, 0x60, g, 0x40)) */\n      and\n        /* \"Evm/zk/validators_verifier.sol\":18436:18512  success := and(success, staticcall(gas(), PRECOMPILE_MUL, g, 0x60, g, 0x40)) */\n      swap4\n      pop\n        /* \"Evm/zk/validators_verifier.sol\":18596:18600  0x40 */\n      0x40\n        /* \"Evm/zk/validators_verifier.sol\":18593:18594  f */\n      dup4\n        /* \"Evm/zk/validators_verifier.sol\":18587:18591  0x80 */\n      0x80\n        /* \"Evm/zk/validators_verifier.sol\":18584:18585  f */\n      dup6\n        /* \"Evm/zk/validators_verifier.sol\":18568:18582  PRECOMPILE_ADD */\n      0x06\n        /* \"Evm/zk/validators_verifier.sol\":18561:18566  gas() */\n      gas\n        /* \"Evm/zk/validators_verifier.sol\":18550:18601  staticcall(gas(), PRECOMPILE_ADD, f, 0x80, f, 0x40) */\n      staticcall\n        /* \"Evm/zk/validators_verifier.sol\":18541:18548  success */\n      dup5\n        /* \"Evm/zk/validators_verifier.sol\":18537:18602  and(success, staticcall(gas(), PRECOMPILE_ADD, f, 0x80, f, 0x40)) */\n      and\n        /* \"Evm/zk/validators_verifier.sol\":18526:18602  success := and(success, staticcall(gas(), PRECOMPILE_ADD, f, 0x80, f, 0x40)) */\n      swap4\n      pop\n        /* \"Evm/zk/validators_verifier.sol\":18626:18633  PUB_1_X */\n      0x00\n        /* \"Evm/zk/validators_verifier.sol\":18623:18624  g */\n      dup3\n        /* \"Evm/zk/validators_verifier.sol\":18616:18634  mstore(g, PUB_1_X) */\n      mstore\n        /* \"Evm/zk/validators_verifier.sol\":18669:18676  PUB_1_Y */\n      0x00\n        /* \"Evm/zk/validators_verifier.sol\":18662:18666  0x20 */\n      0x20\n        /* \"Evm/zk/validators_verifier.sol\":18659:18660  g */\n      dup4\n        /* \"Evm/zk/validators_verifier.sol\":18655:18667  add(g, 0x20) */\n      add\n        /* \"Evm/zk/validators_verifier.sol\":18648:18677  mstore(add(g, 0x20), PUB_1_Y) */\n      mstore\n        /* \"Evm/zk/validators_verifier.sol\":18721:18723  32 */\n      0x20\n        /* \"Evm/zk/validators_verifier.sol\":18714:18719  input */\n      dup8\n        /* \"Evm/zk/validators_verifier.sol\":18710:18724  add(input, 32) */\n      add\n        /* \"Evm/zk/validators_verifier.sol\":18697:18725  calldataload(add(input, 32)) */\n      calldataload\n        /* \"Evm/zk/validators_verifier.sol\":18691:18725  s :=  calldataload(add(input, 32)) */\n      swap1\n      pop\n        /* \"Evm/zk/validators_verifier.sol\":18760:18761  s */\n      dup1\n        /* \"Evm/zk/validators_verifier.sol\":18753:18757  0x40 */\n      0x40\n        /* \"Evm/zk/validators_verifier.sol\":18750:18751  g */\n      dup4\n        /* \"Evm/zk/validators_verifier.sol\":18746:18758  add(g, 0x40) */\n      add\n        /* \"Evm/zk/validators_verifier.sol\":18739:18762  mstore(add(g, 0x40), s) */\n      mstore\n        /* \"Evm/zk/validators_verifier.sol\":18806:18807  R */\n      0x30644e72e131a029b85045b68181585d2833e84879b9709143e1f593f0000001\n        /* \"Evm/zk/validators_verifier.sol\":18803:18804  s */\n      dup2\n        /* \"Evm/zk/validators_verifier.sol\":18800:18808  lt(s, R) */\n      lt\n        /* \"Evm/zk/validators_verifier.sol\":18791:18798  success */\n      dup5\n        /* \"Evm/zk/validators_verifier.sol\":18787:18809  and(success, lt(s, R)) */\n      and\n        /* \"Evm/zk/validators_verifier.sol\":18776:18809  success := and(success, lt(s, R)) */\n      swap4\n      pop\n        /* \"Evm/zk/validators_verifier.sol\":18893:18897  0x40 */\n      0x40\n        /* \"Evm/zk/validators_verifier.sol\":18890:18891  g */\n      dup3\n        /* \"Evm/zk/validators_verifier.sol\":18884:18888  0x60 */\n      0x60\n        /* \"Evm/zk/validators_verifier.sol\":18881:18882  g */\n      dup5\n        /* \"Evm/zk/validators_verifier.sol\":18865:18879  PRECOMPILE_MUL */\n      0x07\n        /* \"Evm/zk/validators_verifier.sol\":18858:18863  gas() */\n      gas\n        /* \"Evm/zk/validators_verifier.sol\":18847:18898  staticcall(gas(), PRECOMPILE_MUL, g, 0x60, g, 0x40) */\n      staticcall\n        /* \"Evm/zk/validators_verifier.sol\":18838:18845  success */\n      dup5\n        /* \"Evm/zk/validators_verifier.sol\":18834:18899  and(success, staticcall(gas(), PRECOMPILE_MUL, g, 0x60, g, 0x40)) */\n      and\n        /* \"Evm/zk/validators_verifier.sol\":18823:18899  success := and(success, staticcall(gas(), PRECOMPILE_MUL, g, 0x60, g, 0x40)) */\n      swap4\n      pop\n        /* \"Evm/zk/validators_verifier.sol\":18983:18987  0x40 */\n      0x40\n        /* \"Evm/zk/validators_verifier.sol\":18980:18981  f */\n      dup4\n        /* \"Evm/zk/validators_verifier.sol\":18974:18978  0x80 */\n      0x80\n        /* \"Evm/zk/validators_verifier.sol\":18971:18972  f */\n      dup6\n        /* \"Evm/zk/validators_verifier.sol\":18955:18969  PRECOMPILE_ADD */\n      0x06\n        /* \"Evm/zk/validators_verifier.sol\":18948:18953  gas() */\n      gas\n        /* \"Evm/zk/validators_verifier.sol\":18937:18988  staticcall(gas(), PRECOMPILE_ADD, f, 0x80, f, 0x40) */\n      staticcall\n        /* \"Evm/zk/validators_verifier.sol\":18928:18935  success */\n      dup5\n        /* \"Evm/zk/validators_verifier.sol\":18924:18989  and(success, staticcall(gas(), PRECOMPILE_ADD, f, 0x80, f, 0x40)) */\n      and\n        /* \"Evm/zk/validators_verifier.sol\":18913:18989  success := and(success, staticcall(gas(), PRECOMPILE_ADD, f, 0x80, f, 0x40)) */\n      swap4\n      pop\n        /* \"Evm/zk/validators_verifier.sol\":19013:19020  PUB_2_X */\n      0x00\n        /* \"Evm/zk/validators_verifier.sol\":19010:19011  g */\n      dup3\n        /* \"Evm/zk/validators_verifier.sol\":19003:19021  mstore(g, PUB_2_X) */\n      mstore\n        /* \"Evm/zk/validators_verifier.sol\":19056:19063  PUB_2_Y */\n      0x00\n        /* \"Evm/zk/validators_verifier.sol\":19049:19053  0x20 */\n      0x20\n        /* \"Evm/zk/validators_verifier.sol\":19046:19047  g */\n      dup4\n        /* \"Evm/zk/validators_verifier.sol\":19042:19054  add(g, 0x20) */\n      add\n        /* \"Evm/zk/validators_verifier.sol\":19035:19064  mstore(add(g, 0x20), PUB_2_Y) */\n      mstore\n        /* \"Evm/zk/validators_verifier.sol\":19108:19110  64 */\n      0x40\n        /* \"Evm/zk/validators_verifier.sol\":19101:19106  input */\n      dup8\n        /* \"Evm/zk/validators_verifier.sol\":19097:19111  add(input, 64) */\n      add\n        /* \"Evm/zk/validators_verifier.sol\":19084:19112  calldataload(add(input, 64)) */\n      calldataload\n        /* \"Evm/zk/validators_verifier.sol\":19078:19112  s :=  calldataload(add(input, 64)) */\n      swap1\n      pop\n        /* \"Evm/zk/validators_verifier.sol\":19147:19148  s */\n      dup1\n        /* \"Evm/zk/validators_verifier.sol\":19140:19144  0x40 */\n      0x40\n        /* \"Evm/zk/validators_verifier.sol\":19137:19138  g */\n      dup4\n        /* \"Evm/zk/validators_verifier.sol\":19133:19145  add(g, 0x40) */\n      add\n        /* \"Evm/zk/validators_verifier.sol\":19126:19149  mstore(add(g, 0x40), s) */\n      mstore\n        /* \"Evm/zk/validators_verifier.sol\":19193:19194  R */\n      0x30644e72e131a029b85045b68181585d2833e84879b9709143e1f593f0000001\n        /* \"Evm/zk/validators_verifier.sol\":19190:19191  s */\n      dup2\n        /* \"Evm/zk/validators_verifier.sol\":19187:19195  lt(s, R) */\n      lt\n        /* \"Evm/zk/validators_verifier.sol\":19178:19185  success */\n      dup5\n        /* \"Evm/zk/validators_verifier.sol\":19174:19196  and(success, lt(s, R)) */\n      and\n        /* \"Evm/zk/validators_verifier.sol\":19163:19196  success := and(success, lt(s, R)) */\n      swap4\n      pop\n        /* \"Evm/zk/validators_verifier.sol\":19280:19284  0x40 */\n      0x40\n        /* \"Evm/zk/validators_verifier.sol\":19277:19278  g */\n      dup3\n        /* \"Evm/zk/validators_verifier.sol\":19271:19275  0x60 */\n      0x60\n        /* \"Evm/zk/validators_verifier.sol\":19268:19269  g */\n      dup5\n        /* \"Evm/zk/validators_verifier.sol\":19252:19266  PRECOMPILE_MUL */\n      0x07\n        /* \"Evm/zk/validators_verifier.sol\":19245:19250  gas() */\n      gas\n        /* \"Evm/zk/validators_verifier.sol\":19234:19285  staticcall(gas(), PRECOMPILE_MUL, g, 0x60, g, 0x40) */\n      staticcall\n        /* \"Evm/zk/validators_verifier.sol\":19225:19232  success */\n      dup5\n        /* \"Evm/zk/validators_verifier.sol\":19221:19286  and(success, staticcall(gas(), PRECOMPILE_MUL, g, 0x60, g, 0x40)) */\n      and\n        /* \"Evm/zk/validators_verifier.sol\":19210:19286  success := and(success, staticcall(gas(), PRECOMPILE_MUL, g, 0x60, g, 0x40)) */\n      swap4\n      pop\n        /* \"Evm/zk/validators_verifier.sol\":19370:19374  0x40 */\n      0x40\n        /* \"Evm/zk/validators_verifier.sol\":19367:19368  f */\n      dup4\n        /* \"Evm/zk/validators_verifier.sol\":19361:19365  0x80 */\n      0x80\n        /* \"Evm/zk/validators_verifier.sol\":19358:19359  f */\n      dup6\n        /* \"Evm/zk/validators_verifier.sol\":19342:19356  PRECOMPILE_ADD */\n      0x06\n        /* \"Evm/zk/validators_verifier.sol\":19335:19340  gas() */\n      gas\n        /* \"Evm/zk/validators_verifier.sol\":19324:19375  staticcall(gas(), PRECOMPILE_ADD, f, 0x80, f, 0x40) */\n      staticcall\n        /* \"Evm/zk/validators_verifier.sol\":19315:19322  success */\n      dup5\n        /* \"Evm/zk/validators_verifier.sol\":19311:19376  and(success, staticcall(gas(), PRECOMPILE_ADD, f, 0x80, f, 0x40)) */\n      and\n        /* \"Evm/zk/validators_verifier.sol\":19300:19376  success := and(success, staticcall(gas(), PRECOMPILE_ADD, f, 0x80, f, 0x40)) */\n      swap4\n      pop\n        /* \"Evm/zk/validators_verifier.sol\":19400:19407  PUB_3_X */\n      0x00\n        /* \"Evm/zk/validators_verifier.sol\":19397:19398  g */\n      dup3\n        /* \"Evm/zk/validators_verifier.sol\":19390:19408  mstore(g, PUB_3_X) */\n      mstore\n        /* \"Evm/zk/validators_verifier.sol\":19443:19450  PUB_3_Y */\n      0x00\n        /* \"Evm/zk/validators_verifier.sol\":19436:19440  0x20 */\n      0x20\n        /* \"Evm/zk/validators_verifier.sol\":19433:19434  g */\n      dup4\n        /* \"Evm/zk/validators_verifier.sol\":19429:19441  add(g, 0x20) */\n      add\n        /* \"Evm/zk/validators_verifier.sol\":19422:19451  mstore(add(g, 0x20), PUB_3_Y) */\n      mstore\n        /* \"Evm/zk/validators_verifier.sol\":19495:19497  96 */\n      0x60\n        /* \"Evm/zk/validators_verifier.sol\":19488:19493  input */\n      dup8\n        /* \"Evm/zk/validators_verifier.sol\":19484:19498  add(input, 96) */\n      add\n        /* \"Evm/zk/validators_verifier.sol\":19471:19499  calldataload(add(input, 96)) */\n      calldataload\n        /* \"Evm/zk/validators_verifier.sol\":19465:19499  s :=  calldataload(add(input, 96)) */\n      swap1\n      pop\n        /* \"Evm/zk/validators_verifier.sol\":19534:19535  s */\n      dup1\n        /* \"Evm/zk/validators_verifier.sol\":19527:19531  0x40 */\n      0x40\n        /* \"Evm/zk/validators_verifier.sol\":19524:19525  g */\n      dup4\n        /* \"Evm/zk/validators_verifier.sol\":19520:19532  add(g, 0x40) */\n      add\n        /* \"Evm/zk/validators_verifier.sol\":19513:19536  mstore(add(g, 0x40), s) */\n      mstore\n        /* \"Evm/zk/validators_verifier.sol\":19580:19581  R */\n      0x30644e72e131a029b85045b68181585d2833e84879b9709143e1f593f0000001\n        /* \"Evm/zk/validators_verifier.sol\":19577:19578  s */\n      dup2\n        /* \"Evm/zk/validators_verifier.sol\":19574:19582  lt(s, R) */\n      lt\n        /* \"Evm/zk/validators_verifier.sol\":19565:19572  success */\n      dup5\n        /* \"Evm/zk/validators_verifier.sol\":19561:19583  and(success, lt(s, R)) */\n      and\n        /* \"Evm/zk/validators_verifier.sol\":19550:19583  success := and(success, lt(s, R)) */\n      swap4\n      pop\n        /* \"Evm/zk/validators_verifier.sol\":19667:19671  0x40 */\n      0x40\n        /* \"Evm/zk/validators_verifier.sol\":19664:19665  g */\n      dup3\n        /* \"Evm/zk/validators_verifier.sol\":19658:19662  0x60 */\n      0x60\n        /* \"Evm/zk/validators_verifier.sol\":19655:19656  g */\n      dup5\n        /* \"Evm/zk/validators_verifier.sol\":19639:19653  PRECOMPILE_MUL */\n      0x07\n        /* \"Evm/zk/validators_verifier.sol\":19632:19637  gas() */\n      gas\n        /* \"Evm/zk/validators_verifier.sol\":19621:19672  staticcall(gas(), PRECOMPILE_MUL, g, 0x60, g, 0x40) */\n      staticcall\n        /* \"Evm/zk/validators_verifier.sol\":19612:19619  success */\n      dup5\n        /* \"Evm/zk/validators_verifier.sol\":19608:19673  and(success, staticcall(gas(), PRECOMPILE_MUL, g, 0x60, g, 0x40)) */\n      and\n        /* \"Evm/zk/validators_verifier.sol\":19597:19673  success := and(success, staticcall(gas(), PRECOMPILE_MUL, g, 0x60, g, 0x40)) */\n      swap4\n      pop\n        /* \"Evm/zk/validators_verifier.sol\":19757:19761  0x40 */\n      0x40\n        /* \"Evm/zk/validators_verifier.sol\":19754:19755  f */\n      dup4\n        /* \"Evm/zk/validators_verifier.sol\":19748:19752  0x80 */\n      0x80\n        /* \"Evm/zk/validators_verifier.sol\":19745:19746  f */\n      dup6\n        /* \"Evm/zk/validators_verifier.sol\":19729:19743  PRECOMPILE_ADD */\n      0x06\n        /* \"Evm/zk/validators_verifier.sol\":19722:19727  gas() */\n      gas\n        /* \"Evm/zk/validators_verifier.sol\":19711:19762  staticcall(gas(), PRECOMPILE_ADD, f, 0x80, f, 0x40) */\n      staticcall\n        /* \"Evm/zk/validators_verifier.sol\":19702:19709  success */\n      dup5\n        /* \"Evm/zk/validators_verifier.sol\":19698:19763  and(success, staticcall(gas(), PRECOMPILE_ADD, f, 0x80, f, 0x40)) */\n      and\n        /* \"Evm/zk/validators_verifier.sol\":19687:19763  success := and(success, staticcall(gas(), PRECOMPILE_ADD, f, 0x80, f, 0x40)) */\n      swap4\n      pop\n        /* \"Evm/zk/validators_verifier.sol\":19787:19794  PUB_4_X */\n      0x2b50e0fe4bf3f5f030637ce43bd901664bda681313677ca70b469a38b3ea9469\n        /* \"Evm/zk/validators_verifier.sol\":19784:19785  g */\n      dup3\n        /* \"Evm/zk/validators_verifier.sol\":19777:19795  mstore(g, PUB_4_X) */\n      mstore\n        /* \"Evm/zk/validators_verifier.sol\":19830:19837  PUB_4_Y */\n      0x169311c6878274f1aded2595c02790b8847aeaf7c1dcdc620ee71ad7fb43d7b5\n        /* \"Evm/zk/validators_verifier.sol\":19823:19827  0x20 */\n      0x20\n        /* \"Evm/zk/validators_verifier.sol\":19820:19821  g */\n      dup4\n        /* \"Evm/zk/validators_verifier.sol\":19816:19828  add(g, 0x20) */\n      add\n        /* \"Evm/zk/validators_verifier.sol\":19809:19838  mstore(add(g, 0x20), PUB_4_Y) */\n      mstore\n        /* \"Evm/zk/validators_verifier.sol\":19882:19885  128 */\n      0x80\n        /* \"Evm/zk/validators_verifier.sol\":19875:19880  input */\n      dup8\n        /* \"Evm/zk/validators_verifier.sol\":19871:19886  add(input, 128) */\n      add\n        /* \"Evm/zk/validators_verifier.sol\":19858:19887  calldataload(add(input, 128)) */\n      calldataload\n        /* \"Evm/zk/validators_verifier.sol\":19852:19887  s :=  calldataload(add(input, 128)) */\n      swap1\n      pop\n        /* \"Evm/zk/validators_verifier.sol\":19922:19923  s */\n      dup1\n        /* \"Evm/zk/validators_verifier.sol\":19915:19919  0x40 */\n      0x40\n        /* \"Evm/zk/validators_verifier.sol\":19912:19913  g */\n      dup4\n        /* \"Evm/zk/validators_verifier.sol\":19908:19920  add(g, 0x40) */\n      add\n        /* \"Evm/zk/validators_verifier.sol\":19901:19924  mstore(add(g, 0x40), s) */\n      mstore\n        /* \"Evm/zk/validators_verifier.sol\":19968:19969  R */\n      0x30644e72e131a029b85045b68181585d2833e84879b9709143e1f593f0000001\n        /* \"Evm/zk/validators_verifier.sol\":19965:19966  s */\n      dup2\n        /* \"Evm/zk/validators_verifier.sol\":19962:19970  lt(s, R) */\n      lt\n        /* \"Evm/zk/validators_verifier.sol\":19953:19960  success */\n      dup5\n        /* \"Evm/zk/validators_verifier.sol\":19949:19971  and(success, lt(s, R)) */\n      and\n        /* \"Evm/zk/validators_verifier.sol\":19938:19971  success := and(success, lt(s, R)) */\n      swap4\n      pop\n        /* \"Evm/zk/validators_verifier.sol\":20055:20059  0x40 */\n      0x40\n        /* \"Evm/zk/validators_verifier.sol\":20052:20053  g */\n      dup3\n        /* \"Evm/zk/validators_verifier.sol\":20046:20050  0x60 */\n      0x60\n        /* \"Evm/zk/validators_verifier.sol\":20043:20044  g */\n      dup5\n        /* \"Evm/zk/validators_verifier.sol\":20027:20041  PRECOMPILE_MUL */\n      0x07\n        /* \"Evm/zk/validators_verifier.sol\":20020:20025  gas() */\n      gas\n        /* \"Evm/zk/validators_verifier.sol\":20009:20060  staticcall(gas(), PRECOMPILE_MUL, g, 0x60, g, 0x40) */\n      staticcall\n        /* \"Evm/zk/validators_verifier.sol\":20000:20007  success */\n      dup5\n        /* \"Evm/zk/validators_verifier.sol\":19996:20061  and(success, staticcall(gas(), PRECOMPILE_MUL, g, 0x60, g, 0x40)) */\n      and\n        /* \"Evm/zk/validators_verifier.sol\":19985:20061  success := and(success, staticcall(gas(), PRECOMPILE_MUL, g, 0x60, g, 0x40)) */\n      swap4\n      pop\n        /* \"Evm/zk/validators_verifier.sol\":20145:20149  0x40 */\n      0x40\n        /* \"Evm/zk/validators_verifier.sol\":20142:20143  f */\n      dup4\n        /* \"Evm/zk/validators_verifier.sol\":20136:20140  0x80 */\n      0x80\n        /* \"Evm/zk/validators_verifier.sol\":20133:20134  f */\n      dup6\n        /* \"Evm/zk/validators_verifier.sol\":20117:20131  PRECOMPILE_ADD */\n      0x06\n        /* \"Evm/zk/validators_verifier.sol\":20110:20115  gas() */\n      gas\n        /* \"Evm/zk/validators_verifier.sol\":20099:20150  staticcall(gas(), PRECOMPILE_ADD, f, 0x80, f, 0x40) */\n      staticcall\n        /* \"Evm/zk/validators_verifier.sol\":20090:20097  success */\n      dup5\n        /* \"Evm/zk/validators_verifier.sol\":20086:20151  and(success, staticcall(gas(), PRECOMPILE_ADD, f, 0x80, f, 0x40)) */\n      and\n        /* \"Evm/zk/validators_verifier.sol\":20075:20151  success := and(success, staticcall(gas(), PRECOMPILE_ADD, f, 0x80, f, 0x40)) */\n      swap4\n      pop\n        /* \"Evm/zk/validators_verifier.sol\":20178:20179  f */\n      dup3\n        /* \"Evm/zk/validators_verifier.sol\":20172:20180  mload(f) */\n      mload\n        /* \"Evm/zk/validators_verifier.sol\":20167:20180  x := mload(f) */\n      swap6\n      pop\n        /* \"Evm/zk/validators_verifier.sol\":20212:20216  0x20 */\n      0x20\n        /* \"Evm/zk/validators_verifier.sol\":20209:20210  f */\n      dup4\n        /* \"Evm/zk/validators_verifier.sol\":20205:20217  add(f, 0x20) */\n      add\n        /* \"Evm/zk/validators_verifier.sol\":20199:20218  mload(add(f, 0x20)) */\n      mload\n        /* \"Evm/zk/validators_verifier.sol\":20194:20218  y := mload(add(f, 0x20)) */\n      swap5\n      pop\n        /* \"Evm/zk/validators_verifier.sol\":18054:20229  {... */\n      pop\n      pop\n      pop\n        /* \"Evm/zk/validators_verifier.sol\":20244:20251  success */\n      dup1\n        /* \"Evm/zk/validators_verifier.sol\":20239:20486  if (!success) {... */\n      tag_129\n      jumpi\n        /* \"Evm/zk/validators_verifier.sol\":20451:20474  PublicInputNotInField() */\n      mload(0x40)\n      0xa54f8e2700000000000000000000000000000000000000000000000000000000\n      dup2\n      mstore\n      0x04\n      add\n      mload(0x40)\n      dup1\n      swap2\n      sub\n      swap1\n      revert\n        /* \"Evm/zk/validators_verifier.sol\":20239:20486  if (!success) {... */\n    tag_129:\n        /* \"Evm/zk/validators_verifier.sol\":17387:20493  {... */\n      pop\n        /* \"Evm/zk/validators_verifier.sol\":17286:20493  function publicInputMSM(uint256[5] calldata input)... */\n      swap2\n      pop\n      swap2\n      jump\t// out\n        /* \"Evm/zk/validators_verifier.sol\":10155:10875  function compress_g1(uint256 x, uint256 y) internal view returns (uint256 c) {... */\n    tag_33:\n        /* \"Evm/zk/validators_verifier.sol\":10221:10230  uint256 c */\n      0x00\n        /* \"Evm/zk/validators_verifier.sol\":1423:1489  0x30644e72e131a029b85045b68181585d97816a916871ca8d3c208c16d87cfd47 */\n      0x30644e72e131a029b85045b68181585d97816a916871ca8d3c208c16d87cfd47\n        /* \"Evm/zk/validators_verifier.sol\":10247:10248  x */\n      dup4\n        /* \"Evm/zk/validators_verifier.sol\":10247:10253  x >= P */\n      lt\n      iszero\n        /* \"Evm/zk/validators_verifier.sol\":10247:10263  x >= P || y >= P */\n      dup1\n      tag_131\n      jumpi\n      pop\n        /* \"Evm/zk/validators_verifier.sol\":1423:1489  0x30644e72e131a029b85045b68181585d97816a916871ca8d3c208c16d87cfd47 */\n      0x30644e72e131a029b85045b68181585d97816a916871ca8d3c208c16d87cfd47\n        /* \"Evm/zk/validators_verifier.sol\":10257:10258  y */\n      dup3\n        /* \"Evm/zk/validators_verifier.sol\":10257:10263  y >= P */\n      lt\n      iszero\n        /* \"Evm/zk/validators_verifier.sol\":10247:10263  x >= P || y >= P */\n    tag_131:\n        /* \"Evm/zk/validators_verifier.sol\":10243:10352  if (x >= P || y >= P) {... */\n      iszero\n      tag_132\n      jumpi\n        /* \"Evm/zk/validators_verifier.sol\":10326:10340  ProofInvalid() */\n      mload(0x40)\n      0x7fcdd1f400000000000000000000000000000000000000000000000000000000\n      dup2\n      mstore\n      0x04\n      add\n      mload(0x40)\n      dup1\n      swap2\n      sub\n      swap1\n      revert\n        /* \"Evm/zk/validators_verifier.sol\":10243:10352  if (x >= P || y >= P) {... */\n    tag_132:\n        /* \"Evm/zk/validators_verifier.sol\":10371:10372  0 */\n      0x00\n        /* \"Evm/zk/validators_verifier.sol\":10366:10367  x */\n      dup4\n        /* \"Evm/zk/validators_verifier.sol\":10366:10372  x == 0 */\n      eq\n        /* \"Evm/zk/validators_verifier.sol\":10366:10382  x == 0 && y == 0 */\n      dup1\n      iszero\n      tag_133\n      jumpi\n      pop\n        /* \"Evm/zk/validators_verifier.sol\":10381:10382  0 */\n      0x00\n        /* \"Evm/zk/validators_verifier.sol\":10376:10377  y */\n      dup3\n        /* \"Evm/zk/validators_verifier.sol\":10376:10382  y == 0 */\n      eq\n        /* \"Evm/zk/validators_verifier.sol\":10366:10382  x == 0 && y == 0 */\n    tag_133:\n        /* \"Evm/zk/validators_verifier.sol\":10362:10453  if (x == 0 && y == 0) {... */\n      iszero\n      tag_134\n      jumpi\n        /* \"Evm/zk/validators_verifier.sol\":10440:10441  0 */\n      0x00\n        /* \"Evm/zk/validators_verifier.sol\":10433:10441  return 0 */\n      swap1\n      pop\n      jump(tag_130)\n        /* \"Evm/zk/validators_verifier.sol\":10362:10453  if (x == 0 && y == 0) {... */\n    tag_134:\n        /* \"Evm/zk/validators_verifier.sol\":10558:10571  uint256 y_pos */\n      0x00\n        /* \"Evm/zk/validators_verifier.sol\":10574:10626  sqrt_Fp(addmod(mulmod(mulmod(x, x, P), x, P), 3, P)) */\n      tag_135\n        /* \"Evm/zk/validators_verifier.sol\":1423:1489  0x30644e72e131a029b85045b68181585d97816a916871ca8d3c208c16d87cfd47 */\n      0x30644e72e131a029b85045b68181585d97816a916871ca8d3c208c16d87cfd47\n        /* \"Evm/zk/validators_verifier.sol\":10582:10625  addmod(mulmod(mulmod(x, x, P), x, P), 3, P) */\n      dup1\n      tag_136\n      jumpi\n      tag_137\n      tag_138\n      jump\t// in\n    tag_137:\n    tag_136:\n        /* \"Evm/zk/validators_verifier.sol\":10620:10621  3 */\n      0x03\n        /* \"Evm/zk/validators_verifier.sol\":1423:1489  0x30644e72e131a029b85045b68181585d97816a916871ca8d3c208c16d87cfd47 */\n      0x30644e72e131a029b85045b68181585d97816a916871ca8d3c208c16d87cfd47\n        /* \"Evm/zk/validators_verifier.sol\":10589:10618  mulmod(mulmod(x, x, P), x, P) */\n      dup1\n      tag_139\n      jumpi\n      tag_140\n      tag_138\n      jump\t// in\n    tag_140:\n    tag_139:\n        /* \"Evm/zk/validators_verifier.sol\":10613:10614  x */\n      dup8\n        /* \"Evm/zk/validators_verifier.sol\":1423:1489  0x30644e72e131a029b85045b68181585d97816a916871ca8d3c208c16d87cfd47 */\n      0x30644e72e131a029b85045b68181585d97816a916871ca8d3c208c16d87cfd47\n        /* \"Evm/zk/validators_verifier.sol\":10596:10611  mulmod(x, x, P) */\n      dup1\n      tag_141\n      jumpi\n      tag_142\n      tag_138\n      jump\t// in\n    tag_142:\n    tag_141:\n        /* \"Evm/zk/validators_verifier.sol\":10606:10607  x */\n      dup10\n        /* \"Evm/zk/validators_verifier.sol\":10603:10604  x */\n      dup11\n        /* \"Evm/zk/validators_verifier.sol\":10596:10611  mulmod(x, x, P) */\n      mulmod\n        /* \"Evm/zk/validators_verifier.sol\":10589:10618  mulmod(mulmod(x, x, P), x, P) */\n      mulmod\n        /* \"Evm/zk/validators_verifier.sol\":10582:10625  addmod(mulmod(mulmod(x, x, P), x, P), 3, P) */\n      addmod\n        /* \"Evm/zk/validators_verifier.sol\":10574:10581  sqrt_Fp */\n      tag_143\n        /* \"Evm/zk/validators_verifier.sol\":10574:10626  sqrt_Fp(addmod(mulmod(mulmod(x, x, P), x, P), 3, P)) */\n      jump\t// in\n    tag_135:\n        /* \"Evm/zk/validators_verifier.sol\":10558:10626  uint256 y_pos = sqrt_Fp(addmod(mulmod(mulmod(x, x, P), x, P), 3, P)) */\n      swap1\n      pop\n        /* \"Evm/zk/validators_verifier.sol\":10646:10651  y_pos */\n      dup1\n        /* \"Evm/zk/validators_verifier.sol\":10641:10642  y */\n      dup4\n        /* \"Evm/zk/validators_verifier.sol\":10641:10651  y == y_pos */\n      sub\n        /* \"Evm/zk/validators_verifier.sol\":10637:10868  if (y == y_pos) {... */\n      tag_144\n      jumpi\n        /* \"Evm/zk/validators_verifier.sol\":10686:10687  0 */\n      0x00\n        /* \"Evm/zk/validators_verifier.sol\":10681:10682  1 */\n      0x01\n        /* \"Evm/zk/validators_verifier.sol\":10676:10677  x */\n      dup6\n        /* \"Evm/zk/validators_verifier.sol\":10676:10682  x << 1 */\n      swap1\n      shl\n        /* \"Evm/zk/validators_verifier.sol\":10675:10687  (x << 1) | 0 */\n      or\n        /* \"Evm/zk/validators_verifier.sol\":10668:10687  return (x << 1) | 0 */\n      swap2\n      pop\n      pop\n      jump(tag_130)\n        /* \"Evm/zk/validators_verifier.sol\":10637:10868  if (y == y_pos) {... */\n    tag_144:\n        /* \"Evm/zk/validators_verifier.sol\":10714:10727  negate(y_pos) */\n      tag_146\n        /* \"Evm/zk/validators_verifier.sol\":10721:10726  y_pos */\n      dup2\n        /* \"Evm/zk/validators_verifier.sol\":10714:10720  negate */\n      tag_147\n        /* \"Evm/zk/validators_verifier.sol\":10714:10727  negate(y_pos) */\n      jump\t// in\n    tag_146:\n        /* \"Evm/zk/validators_verifier.sol\":10709:10710  y */\n      dup4\n        /* \"Evm/zk/validators_verifier.sol\":10709:10727  y == negate(y_pos) */\n      sub\n        /* \"Evm/zk/validators_verifier.sol\":10705:10868  if (y == negate(y_pos)) {... */\n      tag_148\n      jumpi\n        /* \"Evm/zk/validators_verifier.sol\":10762:10763  1 */\n      0x01\n        /* \"Evm/zk/validators_verifier.sol\":10757:10758  1 */\n      dup1\n        /* \"Evm/zk/validators_verifier.sol\":10752:10753  x */\n      dup6\n        /* \"Evm/zk/validators_verifier.sol\":10752:10758  x << 1 */\n      swap1\n      shl\n        /* \"Evm/zk/validators_verifier.sol\":10751:10763  (x << 1) | 1 */\n      or\n        /* \"Evm/zk/validators_verifier.sol\":10744:10763  return (x << 1) | 1 */\n      swap2\n      pop\n      pop\n      jump(tag_130)\n        /* \"Evm/zk/validators_verifier.sol\":10705:10868  if (y == negate(y_pos)) {... */\n    tag_148:\n        /* \"Evm/zk/validators_verifier.sol\":10842:10856  ProofInvalid() */\n      mload(0x40)\n      0x7fcdd1f400000000000000000000000000000000000000000000000000000000\n      dup2\n      mstore\n      0x04\n      add\n      mload(0x40)\n      dup1\n      swap2\n      sub\n      swap1\n      revert\n        /* \"Evm/zk/validators_verifier.sol\":10155:10875  function compress_g1(uint256 x, uint256 y) internal view returns (uint256 c) {... */\n    tag_130:\n      swap3\n      swap2\n      pop\n      pop\n      jump\t// out\n        /* \"Evm/zk/validators_verifier.sol\":12913:14616  function compress_g2(uint256 x0, uint256 x1, uint256 y0, uint256 y1)... */\n    tag_45:\n        /* \"Evm/zk/validators_verifier.sol\":13010:13020  uint256 c0 */\n      0x00\n        /* \"Evm/zk/validators_verifier.sol\":13022:13032  uint256 c1 */\n      0x00\n        /* \"Evm/zk/validators_verifier.sol\":1423:1489  0x30644e72e131a029b85045b68181585d97816a916871ca8d3c208c16d87cfd47 */\n      0x30644e72e131a029b85045b68181585d97816a916871ca8d3c208c16d87cfd47\n        /* \"Evm/zk/validators_verifier.sol\":13049:13051  x0 */\n      dup7\n        /* \"Evm/zk/validators_verifier.sol\":13049:13056  x0 >= P */\n      lt\n      iszero\n        /* \"Evm/zk/validators_verifier.sol\":13049:13067  x0 >= P || x1 >= P */\n      dup1\n      tag_151\n      jumpi\n      pop\n        /* \"Evm/zk/validators_verifier.sol\":1423:1489  0x30644e72e131a029b85045b68181585d97816a916871ca8d3c208c16d87cfd47 */\n      0x30644e72e131a029b85045b68181585d97816a916871ca8d3c208c16d87cfd47\n        /* \"Evm/zk/validators_verifier.sol\":13060:13062  x1 */\n      dup6\n        /* \"Evm/zk/validators_verifier.sol\":13060:13067  x1 >= P */\n      lt\n      iszero\n        /* \"Evm/zk/validators_verifier.sol\":13049:13067  x0 >= P || x1 >= P */\n    tag_151:\n        /* \"Evm/zk/validators_verifier.sol\":13049:13078  x0 >= P || x1 >= P || y0 >= P */\n      dup1\n      tag_152\n      jumpi\n      pop\n        /* \"Evm/zk/validators_verifier.sol\":1423:1489  0x30644e72e131a029b85045b68181585d97816a916871ca8d3c208c16d87cfd47 */\n      0x30644e72e131a029b85045b68181585d97816a916871ca8d3c208c16d87cfd47\n        /* \"Evm/zk/validators_verifier.sol\":13071:13073  y0 */\n      dup5\n        /* \"Evm/zk/validators_verifier.sol\":13071:13078  y0 >= P */\n      lt\n      iszero\n        /* \"Evm/zk/validators_verifier.sol\":13049:13078  x0 >= P || x1 >= P || y0 >= P */\n    tag_152:\n        /* \"Evm/zk/validators_verifier.sol\":13049:13089  x0 >= P || x1 >= P || y0 >= P || y1 >= P */\n      dup1\n      tag_153\n      jumpi\n      pop\n        /* \"Evm/zk/validators_verifier.sol\":1423:1489  0x30644e72e131a029b85045b68181585d97816a916871ca8d3c208c16d87cfd47 */\n      0x30644e72e131a029b85045b68181585d97816a916871ca8d3c208c16d87cfd47\n        /* \"Evm/zk/validators_verifier.sol\":13082:13084  y1 */\n      dup4\n        /* \"Evm/zk/validators_verifier.sol\":13082:13089  y1 >= P */\n      lt\n      iszero\n        /* \"Evm/zk/validators_verifier.sol\":13049:13089  x0 >= P || x1 >= P || y0 >= P || y1 >= P */\n    tag_153:\n        /* \"Evm/zk/validators_verifier.sol\":13045:13178  if (x0 >= P || x1 >= P || y0 >= P || y1 >= P) {... */\n      iszero\n      tag_154\n      jumpi\n        /* \"Evm/zk/validators_verifier.sol\":13152:13166  ProofInvalid() */\n      mload(0x40)\n      0x7fcdd1f400000000000000000000000000000000000000000000000000000000\n      dup2\n      mstore\n      0x04\n      add\n      mload(0x40)\n      dup1\n      swap2\n      sub\n      swap1\n      revert\n        /* \"Evm/zk/validators_verifier.sol\":13045:13178  if (x0 >= P || x1 >= P || y0 >= P || y1 >= P) {... */\n    tag_154:\n        /* \"Evm/zk/validators_verifier.sol\":13215:13216  0 */\n      0x00\n        /* \"Evm/zk/validators_verifier.sol\":13208:13210  y1 */\n      dup4\n        /* \"Evm/zk/validators_verifier.sol\":13203:13205  y0 */\n      dup6\n        /* \"Evm/zk/validators_verifier.sol\":13198:13200  x1 */\n      dup8\n        /* \"Evm/zk/validators_verifier.sol\":13193:13195  x0 */\n      dup10\n        /* \"Evm/zk/validators_verifier.sol\":13193:13200  x0 | x1 */\n      or\n        /* \"Evm/zk/validators_verifier.sol\":13193:13205  x0 | x1 | y0 */\n      or\n        /* \"Evm/zk/validators_verifier.sol\":13193:13210  x0 | x1 | y0 | y1 */\n      or\n        /* \"Evm/zk/validators_verifier.sol\":13192:13216  (x0 | x1 | y0 | y1) == 0 */\n      sub\n        /* \"Evm/zk/validators_verifier.sol\":13188:13292  if ((x0 | x1 | y0 | y1) == 0) {... */\n      tag_155\n      jumpi\n        /* \"Evm/zk/validators_verifier.sol\":13275:13276  0 */\n      0x00\n        /* \"Evm/zk/validators_verifier.sol\":13278:13279  0 */\n      0x00\n        /* \"Evm/zk/validators_verifier.sol\":13267:13280  return (0, 0) */\n      swap2\n      pop\n      swap2\n      pop\n      jump(tag_150)\n        /* \"Evm/zk/validators_verifier.sol\":13188:13292  if ((x0 | x1 | y0 | y1) == 0) {... */\n    tag_155:\n        /* \"Evm/zk/validators_verifier.sol\":13402:13416  uint256 y0_pos */\n      0x00\n        /* \"Evm/zk/validators_verifier.sol\":13427:13441  uint256 y1_pos */\n      0x00\n        /* \"Evm/zk/validators_verifier.sol\":13467:13479  uint256 n3ab */\n      0x00\n        /* \"Evm/zk/validators_verifier.sol\":1423:1489  0x30644e72e131a029b85045b68181585d97816a916871ca8d3c208c16d87cfd47 */\n      0x30644e72e131a029b85045b68181585d97816a916871ca8d3c208c16d87cfd47\n        /* \"Evm/zk/validators_verifier.sol\":13482:13515  mulmod(mulmod(x0, x1, P), P-3, P) */\n      dup1\n      tag_156\n      jumpi\n      tag_157\n      tag_138\n      jump\t// in\n    tag_157:\n    tag_156:\n        /* \"Evm/zk/validators_verifier.sol\":13510:13511  3 */\n      0x03\n        /* \"Evm/zk/validators_verifier.sol\":1423:1489  0x30644e72e131a029b85045b68181585d97816a916871ca8d3c208c16d87cfd47 */\n      0x30644e72e131a029b85045b68181585d97816a916871ca8d3c208c16d87cfd47\n        /* \"Evm/zk/validators_verifier.sol\":13508:13511  P-3 */\n      tag_158\n      swap2\n      swap1\n      tag_159\n      jump\t// in\n    tag_158:\n        /* \"Evm/zk/validators_verifier.sol\":1423:1489  0x30644e72e131a029b85045b68181585d97816a916871ca8d3c208c16d87cfd47 */\n      0x30644e72e131a029b85045b68181585d97816a916871ca8d3c208c16d87cfd47\n        /* \"Evm/zk/validators_verifier.sol\":13489:13506  mulmod(x0, x1, P) */\n      dup1\n      tag_160\n      jumpi\n      tag_161\n      tag_138\n      jump\t// in\n    tag_161:\n    tag_160:\n        /* \"Evm/zk/validators_verifier.sol\":13500:13502  x1 */\n      dup11\n        /* \"Evm/zk/validators_verifier.sol\":13496:13498  x0 */\n      dup13\n        /* \"Evm/zk/validators_verifier.sol\":13489:13506  mulmod(x0, x1, P) */\n      mulmod\n        /* \"Evm/zk/validators_verifier.sol\":13482:13515  mulmod(mulmod(x0, x1, P), P-3, P) */\n      mulmod\n        /* \"Evm/zk/validators_verifier.sol\":13467:13515  uint256 n3ab = mulmod(mulmod(x0, x1, P), P-3, P) */\n      swap1\n      pop\n        /* \"Evm/zk/validators_verifier.sol\":13530:13541  uint256 a_3 */\n      0x00\n        /* \"Evm/zk/validators_verifier.sol\":1423:1489  0x30644e72e131a029b85045b68181585d97816a916871ca8d3c208c16d87cfd47 */\n      0x30644e72e131a029b85045b68181585d97816a916871ca8d3c208c16d87cfd47\n        /* \"Evm/zk/validators_verifier.sol\":13544:13576  mulmod(mulmod(x0, x0, P), x0, P) */\n      dup1\n      tag_162\n      jumpi\n      tag_163\n      tag_138\n      jump\t// in\n    tag_163:\n    tag_162:\n        /* \"Evm/zk/validators_verifier.sol\":13570:13572  x0 */\n      dup11\n        /* \"Evm/zk/validators_verifier.sol\":1423:1489  0x30644e72e131a029b85045b68181585d97816a916871ca8d3c208c16d87cfd47 */\n      0x30644e72e131a029b85045b68181585d97816a916871ca8d3c208c16d87cfd47\n        /* \"Evm/zk/validators_verifier.sol\":13551:13568  mulmod(x0, x0, P) */\n      dup1\n      tag_164\n      jumpi\n      tag_165\n      tag_138\n      jump\t// in\n    tag_165:\n    tag_164:\n        /* \"Evm/zk/validators_verifier.sol\":13562:13564  x0 */\n      dup13\n        /* \"Evm/zk/validators_verifier.sol\":13558:13560  x0 */\n      dup14\n        /* \"Evm/zk/validators_verifier.sol\":13551:13568  mulmod(x0, x0, P) */\n      mulmod\n        /* \"Evm/zk/validators_verifier.sol\":13544:13576  mulmod(mulmod(x0, x0, P), x0, P) */\n      mulmod\n        /* \"Evm/zk/validators_verifier.sol\":13530:13576  uint256 a_3 = mulmod(mulmod(x0, x0, P), x0, P) */\n      swap1\n      pop\n        /* \"Evm/zk/validators_verifier.sol\":13591:13602  uint256 b_3 */\n      0x00\n        /* \"Evm/zk/validators_verifier.sol\":1423:1489  0x30644e72e131a029b85045b68181585d97816a916871ca8d3c208c16d87cfd47 */\n      0x30644e72e131a029b85045b68181585d97816a916871ca8d3c208c16d87cfd47\n        /* \"Evm/zk/validators_verifier.sol\":13605:13637  mulmod(mulmod(x1, x1, P), x1, P) */\n      dup1\n      tag_166\n      jumpi\n      tag_167\n      tag_138\n      jump\t// in\n    tag_167:\n    tag_166:\n        /* \"Evm/zk/validators_verifier.sol\":13631:13633  x1 */\n      dup11\n        /* \"Evm/zk/validators_verifier.sol\":1423:1489  0x30644e72e131a029b85045b68181585d97816a916871ca8d3c208c16d87cfd47 */\n      0x30644e72e131a029b85045b68181585d97816a916871ca8d3c208c16d87cfd47\n        /* \"Evm/zk/validators_verifier.sol\":13612:13629  mulmod(x1, x1, P) */\n      dup1\n      tag_168\n      jumpi\n      tag_169\n      tag_138\n      jump\t// in\n    tag_169:\n    tag_168:\n        /* \"Evm/zk/validators_verifier.sol\":13623:13625  x1 */\n      dup13\n        /* \"Evm/zk/validators_verifier.sol\":13619:13621  x1 */\n      dup14\n        /* \"Evm/zk/validators_verifier.sol\":13612:13629  mulmod(x1, x1, P) */\n      mulmod\n        /* \"Evm/zk/validators_verifier.sol\":13605:13637  mulmod(mulmod(x1, x1, P), x1, P) */\n      mulmod\n        /* \"Evm/zk/validators_verifier.sol\":13591:13637  uint256 b_3 = mulmod(mulmod(x1, x1, P), x1, P) */\n      swap1\n      pop\n        /* \"Evm/zk/validators_verifier.sol\":1423:1489  0x30644e72e131a029b85045b68181585d97816a916871ca8d3c208c16d87cfd47 */\n      0x30644e72e131a029b85045b68181585d97816a916871ca8d3c208c16d87cfd47\n        /* \"Evm/zk/validators_verifier.sol\":13661:13726  addmod(FRACTION_27_82_FP, addmod(a_3, mulmod(n3ab, x1, P), P), P) */\n      dup1\n      tag_170\n      jumpi\n      tag_171\n      tag_138\n      jump\t// in\n    tag_171:\n    tag_170:\n        /* \"Evm/zk/validators_verifier.sol\":1423:1489  0x30644e72e131a029b85045b68181585d97816a916871ca8d3c208c16d87cfd47 */\n      0x30644e72e131a029b85045b68181585d97816a916871ca8d3c208c16d87cfd47\n        /* \"Evm/zk/validators_verifier.sol\":13687:13722  addmod(a_3, mulmod(n3ab, x1, P), P) */\n      dup1\n      tag_172\n      jumpi\n      tag_173\n      tag_138\n      jump\t// in\n    tag_173:\n    tag_172:\n        /* \"Evm/zk/validators_verifier.sol\":1423:1489  0x30644e72e131a029b85045b68181585d97816a916871ca8d3c208c16d87cfd47 */\n      0x30644e72e131a029b85045b68181585d97816a916871ca8d3c208c16d87cfd47\n        /* \"Evm/zk/validators_verifier.sol\":13699:13718  mulmod(n3ab, x1, P) */\n      dup1\n      tag_174\n      jumpi\n      tag_175\n      tag_138\n      jump\t// in\n    tag_175:\n    tag_174:\n        /* \"Evm/zk/validators_verifier.sol\":13712:13714  x1 */\n      dup13\n        /* \"Evm/zk/validators_verifier.sol\":13706:13710  n3ab */\n      dup7\n        /* \"Evm/zk/validators_verifier.sol\":13699:13718  mulmod(n3ab, x1, P) */\n      mulmod\n        /* \"Evm/zk/validators_verifier.sol\":13694:13697  a_3 */\n      dup5\n        /* \"Evm/zk/validators_verifier.sol\":13687:13722  addmod(a_3, mulmod(n3ab, x1, P), P) */\n      addmod\n        /* \"Evm/zk/validators_verifier.sol\":2254:2320  0x2b149d40ceb8aaae81be18991be06ac3b5b4c5e559dbefa33267e6dc24a138e5 */\n      0x2b149d40ceb8aaae81be18991be06ac3b5b4c5e559dbefa33267e6dc24a138e5\n        /* \"Evm/zk/validators_verifier.sol\":13661:13726  addmod(FRACTION_27_82_FP, addmod(a_3, mulmod(n3ab, x1, P), P), P) */\n      addmod\n        /* \"Evm/zk/validators_verifier.sol\":13652:13726  y0_pos = addmod(FRACTION_27_82_FP, addmod(a_3, mulmod(n3ab, x1, P), P), P) */\n      swap5\n      pop\n        /* \"Evm/zk/validators_verifier.sol\":13750:13823  negate(addmod(FRACTION_3_82_FP,  addmod(b_3, mulmod(n3ab, x0, P), P), P)) */\n      tag_176\n        /* \"Evm/zk/validators_verifier.sol\":1423:1489  0x30644e72e131a029b85045b68181585d97816a916871ca8d3c208c16d87cfd47 */\n      0x30644e72e131a029b85045b68181585d97816a916871ca8d3c208c16d87cfd47\n        /* \"Evm/zk/validators_verifier.sol\":13757:13822  addmod(FRACTION_3_82_FP,  addmod(b_3, mulmod(n3ab, x0, P), P), P) */\n      dup1\n      tag_177\n      jumpi\n      tag_178\n      tag_138\n      jump\t// in\n    tag_178:\n    tag_177:\n        /* \"Evm/zk/validators_verifier.sol\":1423:1489  0x30644e72e131a029b85045b68181585d97816a916871ca8d3c208c16d87cfd47 */\n      0x30644e72e131a029b85045b68181585d97816a916871ca8d3c208c16d87cfd47\n        /* \"Evm/zk/validators_verifier.sol\":13783:13818  addmod(b_3, mulmod(n3ab, x0, P), P) */\n      dup1\n      tag_179\n      jumpi\n      tag_180\n      tag_138\n      jump\t// in\n    tag_180:\n    tag_179:\n        /* \"Evm/zk/validators_verifier.sol\":1423:1489  0x30644e72e131a029b85045b68181585d97816a916871ca8d3c208c16d87cfd47 */\n      0x30644e72e131a029b85045b68181585d97816a916871ca8d3c208c16d87cfd47\n        /* \"Evm/zk/validators_verifier.sol\":13795:13814  mulmod(n3ab, x0, P) */\n      dup1\n      tag_181\n      jumpi\n      tag_182\n      tag_138\n      jump\t// in\n    tag_182:\n    tag_181:\n        /* \"Evm/zk/validators_verifier.sol\":13808:13810  x0 */\n      dup15\n        /* \"Evm/zk/validators_verifier.sol\":13802:13806  n3ab */\n      dup8\n        /* \"Evm/zk/validators_verifier.sol\":13795:13814  mulmod(n3ab, x0, P) */\n      mulmod\n        /* \"Evm/zk/validators_verifier.sol\":13790:13793  b_3 */\n      dup5\n        /* \"Evm/zk/validators_verifier.sol\":13783:13818  addmod(b_3, mulmod(n3ab, x0, P), P) */\n      addmod\n        /* \"Evm/zk/validators_verifier.sol\":2363:2429  0x2fcd3ac2a640a154eb23960892a85a68f031ca0c8344b23a577dcf1052b9e775 */\n      0x2fcd3ac2a640a154eb23960892a85a68f031ca0c8344b23a577dcf1052b9e775\n        /* \"Evm/zk/validators_verifier.sol\":13757:13822  addmod(FRACTION_3_82_FP,  addmod(b_3, mulmod(n3ab, x0, P), P), P) */\n      addmod\n        /* \"Evm/zk/validators_verifier.sol\":13750:13756  negate */\n      tag_147\n        /* \"Evm/zk/validators_verifier.sol\":13750:13823  negate(addmod(FRACTION_3_82_FP,  addmod(b_3, mulmod(n3ab, x0, P), P), P)) */\n      jump\t// in\n    tag_176:\n        /* \"Evm/zk/validators_verifier.sol\":13741:13823  y1_pos = negate(addmod(FRACTION_3_82_FP,  addmod(b_3, mulmod(n3ab, x0, P), P), P)) */\n      swap4\n      pop\n        /* \"Evm/zk/validators_verifier.sol\":13452:13835  {... */\n      pop\n      pop\n      pop\n        /* \"Evm/zk/validators_verifier.sol\":13947:13956  bool hint */\n      0x00\n        /* \"Evm/zk/validators_verifier.sol\":13982:13991  uint256 d */\n      0x00\n        /* \"Evm/zk/validators_verifier.sol\":13994:14066  sqrt_Fp(addmod(mulmod(y0_pos, y0_pos, P), mulmod(y1_pos, y1_pos, P), P)) */\n      tag_183\n        /* \"Evm/zk/validators_verifier.sol\":1423:1489  0x30644e72e131a029b85045b68181585d97816a916871ca8d3c208c16d87cfd47 */\n      0x30644e72e131a029b85045b68181585d97816a916871ca8d3c208c16d87cfd47\n        /* \"Evm/zk/validators_verifier.sol\":14002:14065  addmod(mulmod(y0_pos, y0_pos, P), mulmod(y1_pos, y1_pos, P), P) */\n      dup1\n      tag_184\n      jumpi\n      tag_185\n      tag_138\n      jump\t// in\n    tag_185:\n    tag_184:\n        /* \"Evm/zk/validators_verifier.sol\":1423:1489  0x30644e72e131a029b85045b68181585d97816a916871ca8d3c208c16d87cfd47 */\n      0x30644e72e131a029b85045b68181585d97816a916871ca8d3c208c16d87cfd47\n        /* \"Evm/zk/validators_verifier.sol\":14036:14061  mulmod(y1_pos, y1_pos, P) */\n      dup1\n      tag_186\n      jumpi\n      tag_187\n      tag_138\n      jump\t// in\n    tag_187:\n    tag_186:\n        /* \"Evm/zk/validators_verifier.sol\":14051:14057  y1_pos */\n      dup6\n        /* \"Evm/zk/validators_verifier.sol\":14043:14049  y1_pos */\n      dup7\n        /* \"Evm/zk/validators_verifier.sol\":14036:14061  mulmod(y1_pos, y1_pos, P) */\n      mulmod\n        /* \"Evm/zk/validators_verifier.sol\":1423:1489  0x30644e72e131a029b85045b68181585d97816a916871ca8d3c208c16d87cfd47 */\n      0x30644e72e131a029b85045b68181585d97816a916871ca8d3c208c16d87cfd47\n        /* \"Evm/zk/validators_verifier.sol\":14009:14034  mulmod(y0_pos, y0_pos, P) */\n      dup1\n      tag_188\n      jumpi\n      tag_189\n      tag_138\n      jump\t// in\n    tag_189:\n    tag_188:\n        /* \"Evm/zk/validators_verifier.sol\":14024:14030  y0_pos */\n      dup8\n        /* \"Evm/zk/validators_verifier.sol\":14016:14022  y0_pos */\n      dup9\n        /* \"Evm/zk/validators_verifier.sol\":14009:14034  mulmod(y0_pos, y0_pos, P) */\n      mulmod\n        /* \"Evm/zk/validators_verifier.sol\":14002:14065  addmod(mulmod(y0_pos, y0_pos, P), mulmod(y1_pos, y1_pos, P), P) */\n      addmod\n        /* \"Evm/zk/validators_verifier.sol\":13994:14001  sqrt_Fp */\n      tag_143\n        /* \"Evm/zk/validators_verifier.sol\":13994:14066  sqrt_Fp(addmod(mulmod(y0_pos, y0_pos, P), mulmod(y1_pos, y1_pos, P), P)) */\n      jump\t// in\n    tag_183:\n        /* \"Evm/zk/validators_verifier.sol\":13982:14066  uint256 d = sqrt_Fp(addmod(mulmod(y0_pos, y0_pos, P), mulmod(y1_pos, y1_pos, P), P)) */\n      swap1\n      pop\n        /* \"Evm/zk/validators_verifier.sol\":14089:14150  isSquare_Fp(mulmod(addmod(y0_pos, d, P), FRACTION_1_2_FP, P)) */\n      tag_190\n        /* \"Evm/zk/validators_verifier.sol\":1423:1489  0x30644e72e131a029b85045b68181585d97816a916871ca8d3c208c16d87cfd47 */\n      0x30644e72e131a029b85045b68181585d97816a916871ca8d3c208c16d87cfd47\n        /* \"Evm/zk/validators_verifier.sol\":14101:14149  mulmod(addmod(y0_pos, d, P), FRACTION_1_2_FP, P) */\n      dup1\n      tag_191\n      jumpi\n      tag_192\n      tag_138\n      jump\t// in\n    tag_192:\n    tag_191:\n        /* \"Evm/zk/validators_verifier.sol\":2144:2210  0x183227397098d014dc2822db40c0ac2ecbc0b548b438e5469e10460b6c3e7ea4 */\n      0x183227397098d014dc2822db40c0ac2ecbc0b548b438e5469e10460b6c3e7ea4\n        /* \"Evm/zk/validators_verifier.sol\":1423:1489  0x30644e72e131a029b85045b68181585d97816a916871ca8d3c208c16d87cfd47 */\n      0x30644e72e131a029b85045b68181585d97816a916871ca8d3c208c16d87cfd47\n        /* \"Evm/zk/validators_verifier.sol\":14108:14128  addmod(y0_pos, d, P) */\n      dup1\n      tag_193\n      jumpi\n      tag_194\n      tag_138\n      jump\t// in\n    tag_194:\n    tag_193:\n        /* \"Evm/zk/validators_verifier.sol\":14123:14124  d */\n      dup5\n        /* \"Evm/zk/validators_verifier.sol\":14115:14121  y0_pos */\n      dup9\n        /* \"Evm/zk/validators_verifier.sol\":14108:14128  addmod(y0_pos, d, P) */\n      addmod\n        /* \"Evm/zk/validators_verifier.sol\":14101:14149  mulmod(addmod(y0_pos, d, P), FRACTION_1_2_FP, P) */\n      mulmod\n        /* \"Evm/zk/validators_verifier.sol\":14089:14100  isSquare_Fp */\n      tag_195\n        /* \"Evm/zk/validators_verifier.sol\":14089:14150  isSquare_Fp(mulmod(addmod(y0_pos, d, P), FRACTION_1_2_FP, P)) */\n      jump\t// in\n    tag_190:\n        /* \"Evm/zk/validators_verifier.sol\":14088:14150  !isSquare_Fp(mulmod(addmod(y0_pos, d, P), FRACTION_1_2_FP, P)) */\n      iszero\n        /* \"Evm/zk/validators_verifier.sol\":14081:14150  hint = !isSquare_Fp(mulmod(addmod(y0_pos, d, P), FRACTION_1_2_FP, P)) */\n      swap2\n      pop\n        /* \"Evm/zk/validators_verifier.sol\":13967:14162  {... */\n      pop\n        /* \"Evm/zk/validators_verifier.sol\":14215:14245  sqrt_Fp2(y0_pos, y1_pos, hint) */\n      tag_196\n        /* \"Evm/zk/validators_verifier.sol\":14224:14230  y0_pos */\n      dup4\n        /* \"Evm/zk/validators_verifier.sol\":14232:14238  y1_pos */\n      dup4\n        /* \"Evm/zk/validators_verifier.sol\":14240:14244  hint */\n      dup4\n        /* \"Evm/zk/validators_verifier.sol\":14215:14223  sqrt_Fp2 */\n      tag_197\n        /* \"Evm/zk/validators_verifier.sol\":14215:14245  sqrt_Fp2(y0_pos, y1_pos, hint) */\n      jump\t// in\n    tag_196:\n        /* \"Evm/zk/validators_verifier.sol\":14196:14245  (y0_pos, y1_pos) = sqrt_Fp2(y0_pos, y1_pos, hint) */\n      dup1\n      swap4\n      pop\n      dup2\n      swap5\n      pop\n      pop\n      pop\n        /* \"Evm/zk/validators_verifier.sol\":14266:14272  y0_pos */\n      dup3\n        /* \"Evm/zk/validators_verifier.sol\":14260:14262  y0 */\n      dup8\n        /* \"Evm/zk/validators_verifier.sol\":14260:14272  y0 == y0_pos */\n      eq\n        /* \"Evm/zk/validators_verifier.sol\":14260:14288  y0 == y0_pos && y1 == y1_pos */\n      dup1\n      iszero\n      tag_198\n      jumpi\n      pop\n        /* \"Evm/zk/validators_verifier.sol\":14282:14288  y1_pos */\n      dup2\n        /* \"Evm/zk/validators_verifier.sol\":14276:14278  y1 */\n      dup7\n        /* \"Evm/zk/validators_verifier.sol\":14276:14288  y1 == y1_pos */\n      eq\n        /* \"Evm/zk/validators_verifier.sol\":14260:14288  y0 == y0_pos && y1 == y1_pos */\n    tag_198:\n        /* \"Evm/zk/validators_verifier.sol\":14256:14609  if (y0 == y0_pos && y1 == y1_pos) {... */\n      iszero\n      tag_199\n      jumpi\n        /* \"Evm/zk/validators_verifier.sol\":14340:14341  0 */\n      0x00\n        /* \"Evm/zk/validators_verifier.sol\":14323:14327  hint */\n      dup2\n        /* \"Evm/zk/validators_verifier.sol\":14323:14336  hint ? 2  : 0 */\n      tag_200\n      jumpi\n        /* \"Evm/zk/validators_verifier.sol\":14335:14336  0 */\n      0x00\n        /* \"Evm/zk/validators_verifier.sol\":14323:14336  hint ? 2  : 0 */\n      jump(tag_201)\n    tag_200:\n        /* \"Evm/zk/validators_verifier.sol\":14330:14331  2 */\n      0x02\n        /* \"Evm/zk/validators_verifier.sol\":14323:14336  hint ? 2  : 0 */\n    tag_201:\n        /* \"Evm/zk/validators_verifier.sol\":14310:14337  (x0 << 2) | (hint ? 2  : 0) */\n      0xff\n      and\n        /* \"Evm/zk/validators_verifier.sol\":14317:14318  2 */\n      0x02\n        /* \"Evm/zk/validators_verifier.sol\":14311:14313  x0 */\n      dup12\n        /* \"Evm/zk/validators_verifier.sol\":14311:14318  x0 << 2 */\n      swap1\n      shl\n        /* \"Evm/zk/validators_verifier.sol\":14310:14337  (x0 << 2) | (hint ? 2  : 0) */\n      or\n        /* \"Evm/zk/validators_verifier.sol\":14310:14341  (x0 << 2) | (hint ? 2  : 0) | 0 */\n      or\n        /* \"Evm/zk/validators_verifier.sol\":14305:14341  c0 = (x0 << 2) | (hint ? 2  : 0) | 0 */\n      swap5\n      pop\n        /* \"Evm/zk/validators_verifier.sol\":14361:14363  x1 */\n      dup8\n        /* \"Evm/zk/validators_verifier.sol\":14356:14363  c1 = x1 */\n      swap4\n      pop\n        /* \"Evm/zk/validators_verifier.sol\":14256:14609  if (y0 == y0_pos && y1 == y1_pos) {... */\n      jump(tag_202)\n    tag_199:\n        /* \"Evm/zk/validators_verifier.sol\":14391:14405  negate(y0_pos) */\n      tag_203\n        /* \"Evm/zk/validators_verifier.sol\":14398:14404  y0_pos */\n      dup4\n        /* \"Evm/zk/validators_verifier.sol\":14391:14397  negate */\n      tag_147\n        /* \"Evm/zk/validators_verifier.sol\":14391:14405  negate(y0_pos) */\n      jump\t// in\n    tag_203:\n        /* \"Evm/zk/validators_verifier.sol\":14385:14387  y0 */\n      dup8\n        /* \"Evm/zk/validators_verifier.sol\":14385:14405  y0 == negate(y0_pos) */\n      eq\n        /* \"Evm/zk/validators_verifier.sol\":14385:14429  y0 == negate(y0_pos) && y1 == negate(y1_pos) */\n      dup1\n      iszero\n      tag_204\n      jumpi\n      pop\n        /* \"Evm/zk/validators_verifier.sol\":14415:14429  negate(y1_pos) */\n      tag_205\n        /* \"Evm/zk/validators_verifier.sol\":14422:14428  y1_pos */\n      dup3\n        /* \"Evm/zk/validators_verifier.sol\":14415:14421  negate */\n      tag_147\n        /* \"Evm/zk/validators_verifier.sol\":14415:14429  negate(y1_pos) */\n      jump\t// in\n    tag_205:\n        /* \"Evm/zk/validators_verifier.sol\":14409:14411  y1 */\n      dup7\n        /* \"Evm/zk/validators_verifier.sol\":14409:14429  y1 == negate(y1_pos) */\n      eq\n        /* \"Evm/zk/validators_verifier.sol\":14385:14429  y0 == negate(y0_pos) && y1 == negate(y1_pos) */\n    tag_204:\n        /* \"Evm/zk/validators_verifier.sol\":14381:14609  if (y0 == negate(y0_pos) && y1 == negate(y1_pos)) {... */\n      iszero\n      tag_206\n      jumpi\n        /* \"Evm/zk/validators_verifier.sol\":14481:14482  1 */\n      0x01\n        /* \"Evm/zk/validators_verifier.sol\":14464:14468  hint */\n      dup2\n        /* \"Evm/zk/validators_verifier.sol\":14464:14477  hint ? 2  : 0 */\n      tag_207\n      jumpi\n        /* \"Evm/zk/validators_verifier.sol\":14476:14477  0 */\n      0x00\n        /* \"Evm/zk/validators_verifier.sol\":14464:14477  hint ? 2  : 0 */\n      jump(tag_208)\n    tag_207:\n        /* \"Evm/zk/validators_verifier.sol\":14471:14472  2 */\n      0x02\n        /* \"Evm/zk/validators_verifier.sol\":14464:14477  hint ? 2  : 0 */\n    tag_208:\n        /* \"Evm/zk/validators_verifier.sol\":14451:14478  (x0 << 2) | (hint ? 2  : 0) */\n      0xff\n      and\n        /* \"Evm/zk/validators_verifier.sol\":14458:14459  2 */\n      0x02\n        /* \"Evm/zk/validators_verifier.sol\":14452:14454  x0 */\n      dup12\n        /* \"Evm/zk/validators_verifier.sol\":14452:14459  x0 << 2 */\n      swap1\n      shl\n        /* \"Evm/zk/validators_verifier.sol\":14451:14478  (x0 << 2) | (hint ? 2  : 0) */\n      or\n        /* \"Evm/zk/validators_verifier.sol\":14451:14482  (x0 << 2) | (hint ? 2  : 0) | 1 */\n      or\n        /* \"Evm/zk/validators_verifier.sol\":14446:14482  c0 = (x0 << 2) | (hint ? 2  : 0) | 1 */\n      swap5\n      pop\n        /* \"Evm/zk/validators_verifier.sol\":14502:14504  x1 */\n      dup8\n        /* \"Evm/zk/validators_verifier.sol\":14497:14504  c1 = x1 */\n      swap4\n      pop\n        /* \"Evm/zk/validators_verifier.sol\":14381:14609  if (y0 == negate(y0_pos) && y1 == negate(y1_pos)) {... */\n      jump(tag_209)\n    tag_206:\n        /* \"Evm/zk/validators_verifier.sol\":14583:14597  ProofInvalid() */\n      mload(0x40)\n      0x7fcdd1f400000000000000000000000000000000000000000000000000000000\n      dup2\n      mstore\n      0x04\n      add\n      mload(0x40)\n      dup1\n      swap2\n      sub\n      swap1\n      revert\n        /* \"Evm/zk/validators_verifier.sol\":14381:14609  if (y0 == negate(y0_pos) && y1 == negate(y1_pos)) {... */\n    tag_209:\n        /* \"Evm/zk/validators_verifier.sol\":14256:14609  if (y0 == y0_pos && y1 == y1_pos) {... */\n    tag_202:\n        /* \"Evm/zk/validators_verifier.sol\":13034:14616  {... */\n      pop\n      pop\n      pop\n        /* \"Evm/zk/validators_verifier.sol\":12913:14616  function compress_g2(uint256 x0, uint256 x1, uint256 y0, uint256 y1)... */\n    tag_150:\n      swap5\n      pop\n      swap5\n      swap3\n      pop\n      pop\n      pop\n      jump\t// out\n        /* \"Evm/zk/validators_verifier.sol\":11234:12131  function decompress_g1(uint256 c) internal view returns (uint256 x, uint256 y) {... */\n    tag_63:\n        /* \"Evm/zk/validators_verifier.sol\":11291:11300  uint256 x */\n      0x00\n        /* \"Evm/zk/validators_verifier.sol\":11302:11311  uint256 y */\n      0x00\n        /* \"Evm/zk/validators_verifier.sol\":11481:11482  0 */\n      0x00\n        /* \"Evm/zk/validators_verifier.sol\":11476:11477  c */\n      dup4\n        /* \"Evm/zk/validators_verifier.sol\":11476:11482  c == 0 */\n      sub\n        /* \"Evm/zk/validators_verifier.sol\":11472:11591  if (c == 0) {... */\n      tag_211\n      jumpi\n        /* \"Evm/zk/validators_verifier.sol\":11574:11575  0 */\n      0x00\n        /* \"Evm/zk/validators_verifier.sol\":11577:11578  0 */\n      0x00\n        /* \"Evm/zk/validators_verifier.sol\":11566:11579  return (0, 0) */\n      swap2\n      pop\n      swap2\n      pop\n      jump(tag_210)\n        /* \"Evm/zk/validators_verifier.sol\":11472:11591  if (c == 0) {... */\n    tag_211:\n        /* \"Evm/zk/validators_verifier.sol\":11601:11618  bool negate_point */\n      0x00\n        /* \"Evm/zk/validators_verifier.sol\":11630:11631  1 */\n      0x01\n        /* \"Evm/zk/validators_verifier.sol\":11625:11626  1 */\n      dup1\n        /* \"Evm/zk/validators_verifier.sol\":11621:11622  c */\n      dup6\n        /* \"Evm/zk/validators_verifier.sol\":11621:11626  c & 1 */\n      and\n        /* \"Evm/zk/validators_verifier.sol\":11621:11631  c & 1 == 1 */\n      eq\n        /* \"Evm/zk/validators_verifier.sol\":11601:11631  bool negate_point = c & 1 == 1 */\n      swap1\n      pop\n        /* \"Evm/zk/validators_verifier.sol\":11651:11652  1 */\n      0x01\n        /* \"Evm/zk/validators_verifier.sol\":11646:11647  c */\n      dup5\n        /* \"Evm/zk/validators_verifier.sol\":11646:11652  c >> 1 */\n      swap1\n      shr\n        /* \"Evm/zk/validators_verifier.sol\":11642:11652  x = c >> 1 */\n      swap3\n      pop\n        /* \"Evm/zk/validators_verifier.sol\":1423:1489  0x30644e72e131a029b85045b68181585d97816a916871ca8d3c208c16d87cfd47 */\n      0x30644e72e131a029b85045b68181585d97816a916871ca8d3c208c16d87cfd47\n        /* \"Evm/zk/validators_verifier.sol\":11667:11668  x */\n      dup4\n        /* \"Evm/zk/validators_verifier.sol\":11667:11673  x >= P */\n      lt\n        /* \"Evm/zk/validators_verifier.sol\":11663:11769  if (x >= P) {... */\n      tag_212\n      jumpi\n        /* \"Evm/zk/validators_verifier.sol\":11743:11757  ProofInvalid() */\n      mload(0x40)\n      0x7fcdd1f400000000000000000000000000000000000000000000000000000000\n      dup2\n      mstore\n      0x04\n      add\n      mload(0x40)\n      dup1\n      swap2\n      sub\n      swap1\n      revert\n        /* \"Evm/zk/validators_verifier.sol\":11663:11769  if (x >= P) {... */\n    tag_212:\n        /* \"Evm/zk/validators_verifier.sol\":12003:12055  sqrt_Fp(addmod(mulmod(mulmod(x, x, P), x, P), 3, P)) */\n      tag_213\n        /* \"Evm/zk/validators_verifier.sol\":1423:1489  0x30644e72e131a029b85045b68181585d97816a916871ca8d3c208c16d87cfd47 */\n      0x30644e72e131a029b85045b68181585d97816a916871ca8d3c208c16d87cfd47\n        /* \"Evm/zk/validators_verifier.sol\":12011:12054  addmod(mulmod(mulmod(x, x, P), x, P), 3, P) */\n      dup1\n      tag_214\n      jumpi\n      tag_215\n      tag_138\n      jump\t// in\n    tag_215:\n    tag_214:\n        /* \"Evm/zk/validators_verifier.sol\":12049:12050  3 */\n      0x03\n        /* \"Evm/zk/validators_verifier.sol\":1423:1489  0x30644e72e131a029b85045b68181585d97816a916871ca8d3c208c16d87cfd47 */\n      0x30644e72e131a029b85045b68181585d97816a916871ca8d3c208c16d87cfd47\n        /* \"Evm/zk/validators_verifier.sol\":12018:12047  mulmod(mulmod(x, x, P), x, P) */\n      dup1\n      tag_216\n      jumpi\n      tag_217\n      tag_138\n      jump\t// in\n    tag_217:\n    tag_216:\n        /* \"Evm/zk/validators_verifier.sol\":12042:12043  x */\n      dup7\n        /* \"Evm/zk/validators_verifier.sol\":1423:1489  0x30644e72e131a029b85045b68181585d97816a916871ca8d3c208c16d87cfd47 */\n      0x30644e72e131a029b85045b68181585d97816a916871ca8d3c208c16d87cfd47\n        /* \"Evm/zk/validators_verifier.sol\":12025:12040  mulmod(x, x, P) */\n      dup1\n      tag_218\n      jumpi\n      tag_219\n      tag_138\n      jump\t// in\n    tag_219:\n    tag_218:\n        /* \"Evm/zk/validators_verifier.sol\":12035:12036  x */\n      dup9\n        /* \"Evm/zk/validators_verifier.sol\":12032:12033  x */\n      dup10\n        /* \"Evm/zk/validators_verifier.sol\":12025:12040  mulmod(x, x, P) */\n      mulmod\n        /* \"Evm/zk/validators_verifier.sol\":12018:12047  mulmod(mulmod(x, x, P), x, P) */\n      mulmod\n        /* \"Evm/zk/validators_verifier.sol\":12011:12054  addmod(mulmod(mulmod(x, x, P), x, P), 3, P) */\n      addmod\n        /* \"Evm/zk/validators_verifier.sol\":12003:12010  sqrt_Fp */\n      tag_143\n        /* \"Evm/zk/validators_verifier.sol\":12003:12055  sqrt_Fp(addmod(mulmod(mulmod(x, x, P), x, P), 3, P)) */\n      jump\t// in\n    tag_213:\n        /* \"Evm/zk/validators_verifier.sol\":11999:12055  y = sqrt_Fp(addmod(mulmod(mulmod(x, x, P), x, P), 3, P)) */\n      swap2\n      pop\n        /* \"Evm/zk/validators_verifier.sol\":12070:12082  negate_point */\n      dup1\n        /* \"Evm/zk/validators_verifier.sol\":12066:12124  if (negate_point) {... */\n      iszero\n      tag_220\n      jumpi\n        /* \"Evm/zk/validators_verifier.sol\":12103:12112  negate(y) */\n      tag_221\n        /* \"Evm/zk/validators_verifier.sol\":12110:12111  y */\n      dup3\n        /* \"Evm/zk/validators_verifier.sol\":12103:12109  negate */\n      tag_147\n        /* \"Evm/zk/validators_verifier.sol\":12103:12112  negate(y) */\n      jump\t// in\n    tag_221:\n        /* \"Evm/zk/validators_verifier.sol\":12099:12112  y = negate(y) */\n      swap2\n      pop\n        /* \"Evm/zk/validators_verifier.sol\":12066:12124  if (negate_point) {... */\n    tag_220:\n        /* \"Evm/zk/validators_verifier.sol\":11313:12131  {... */\n      pop\n        /* \"Evm/zk/validators_verifier.sol\":11234:12131  function decompress_g1(uint256 c) internal view returns (uint256 x, uint256 y) {... */\n    tag_210:\n      swap2\n      pop\n      swap2\n      jump\t// out\n        /* \"Evm/zk/validators_verifier.sol\":15367:16778  function decompress_g2(uint256 c0, uint256 c1)... */\n    tag_69:\n        /* \"Evm/zk/validators_verifier.sol\":15442:15452  uint256 x0 */\n      0x00\n        /* \"Evm/zk/validators_verifier.sol\":15454:15464  uint256 x1 */\n      0x00\n        /* \"Evm/zk/validators_verifier.sol\":15466:15476  uint256 y0 */\n      0x00\n        /* \"Evm/zk/validators_verifier.sol\":15478:15488  uint256 y1 */\n      0x00\n        /* \"Evm/zk/validators_verifier.sol\":15668:15669  0 */\n      0x00\n        /* \"Evm/zk/validators_verifier.sol\":15662:15664  c0 */\n      dup7\n        /* \"Evm/zk/validators_verifier.sol\":15662:15669  c0 == 0 */\n      eq\n        /* \"Evm/zk/validators_verifier.sol\":15662:15680  c0 == 0 && c1 == 0 */\n      dup1\n      iszero\n      tag_223\n      jumpi\n      pop\n        /* \"Evm/zk/validators_verifier.sol\":15679:15680  0 */\n      0x00\n        /* \"Evm/zk/validators_verifier.sol\":15673:15675  c1 */\n      dup6\n        /* \"Evm/zk/validators_verifier.sol\":15673:15680  c1 == 0 */\n      eq\n        /* \"Evm/zk/validators_verifier.sol\":15662:15680  c0 == 0 && c1 == 0 */\n    tag_223:\n        /* \"Evm/zk/validators_verifier.sol\":15658:15784  if (c0 == 0 && c1 == 0) {... */\n      iszero\n      tag_224\n      jumpi\n        /* \"Evm/zk/validators_verifier.sol\":15761:15762  0 */\n      0x00\n        /* \"Evm/zk/validators_verifier.sol\":15764:15765  0 */\n      0x00\n        /* \"Evm/zk/validators_verifier.sol\":15767:15768  0 */\n      0x00\n        /* \"Evm/zk/validators_verifier.sol\":15770:15771  0 */\n      0x00\n        /* \"Evm/zk/validators_verifier.sol\":15753:15772  return (0, 0, 0, 0) */\n      swap4\n      pop\n      swap4\n      pop\n      swap4\n      pop\n      swap4\n      pop\n      jump(tag_222)\n        /* \"Evm/zk/validators_verifier.sol\":15658:15784  if (c0 == 0 && c1 == 0) {... */\n    tag_224:\n        /* \"Evm/zk/validators_verifier.sol\":15794:15811  bool negate_point */\n      0x00\n        /* \"Evm/zk/validators_verifier.sol\":15824:15825  1 */\n      0x01\n        /* \"Evm/zk/validators_verifier.sol\":15819:15820  1 */\n      dup1\n        /* \"Evm/zk/validators_verifier.sol\":15814:15816  c0 */\n      dup9\n        /* \"Evm/zk/validators_verifier.sol\":15814:15820  c0 & 1 */\n      and\n        /* \"Evm/zk/validators_verifier.sol\":15814:15825  c0 & 1 == 1 */\n      eq\n        /* \"Evm/zk/validators_verifier.sol\":15794:15825  bool negate_point = c0 & 1 == 1 */\n      swap1\n      pop\n        /* \"Evm/zk/validators_verifier.sol\":15836:15845  bool hint */\n      0x00\n        /* \"Evm/zk/validators_verifier.sol\":15858:15859  2 */\n      0x02\n        /* \"Evm/zk/validators_verifier.sol\":15853:15854  2 */\n      dup1\n        /* \"Evm/zk/validators_verifier.sol\":15848:15850  c0 */\n      dup10\n        /* \"Evm/zk/validators_verifier.sol\":15848:15854  c0 & 2 */\n      and\n        /* \"Evm/zk/validators_verifier.sol\":15848:15859  c0 & 2 == 2 */\n      eq\n        /* \"Evm/zk/validators_verifier.sol\":15836:15859  bool hint = c0 & 2 == 2 */\n      swap1\n      pop\n        /* \"Evm/zk/validators_verifier.sol\":15881:15882  2 */\n      0x02\n        /* \"Evm/zk/validators_verifier.sol\":15875:15877  c0 */\n      dup9\n        /* \"Evm/zk/validators_verifier.sol\":15875:15882  c0 >> 2 */\n      swap1\n      shr\n        /* \"Evm/zk/validators_verifier.sol\":15870:15882  x0 = c0 >> 2 */\n      swap6\n      pop\n        /* \"Evm/zk/validators_verifier.sol\":15898:15900  c1 */\n      dup7\n        /* \"Evm/zk/validators_verifier.sol\":15893:15900  x1 = c1 */\n      swap5\n      pop\n        /* \"Evm/zk/validators_verifier.sol\":1423:1489  0x30644e72e131a029b85045b68181585d97816a916871ca8d3c208c16d87cfd47 */\n      0x30644e72e131a029b85045b68181585d97816a916871ca8d3c208c16d87cfd47\n        /* \"Evm/zk/validators_verifier.sol\":15915:15917  x0 */\n      dup7\n        /* \"Evm/zk/validators_verifier.sol\":15915:15922  x0 >= P */\n      lt\n      iszero\n        /* \"Evm/zk/validators_verifier.sol\":15915:15933  x0 >= P || x1 >= P */\n      dup1\n      tag_225\n      jumpi\n      pop\n        /* \"Evm/zk/validators_verifier.sol\":1423:1489  0x30644e72e131a029b85045b68181585d97816a916871ca8d3c208c16d87cfd47 */\n      0x30644e72e131a029b85045b68181585d97816a916871ca8d3c208c16d87cfd47\n        /* \"Evm/zk/validators_verifier.sol\":15926:15928  x1 */\n      dup6\n        /* \"Evm/zk/validators_verifier.sol\":15926:15933  x1 >= P */\n      lt\n      iszero\n        /* \"Evm/zk/validators_verifier.sol\":15915:15933  x0 >= P || x1 >= P */\n    tag_225:\n        /* \"Evm/zk/validators_verifier.sol\":15911:16037  if (x0 >= P || x1 >= P) {... */\n      iszero\n      tag_226\n      jumpi\n        /* \"Evm/zk/validators_verifier.sol\":16011:16025  ProofInvalid() */\n      mload(0x40)\n      0x7fcdd1f400000000000000000000000000000000000000000000000000000000\n      dup2\n      mstore\n      0x04\n      add\n      mload(0x40)\n      dup1\n      swap2\n      sub\n      swap1\n      revert\n        /* \"Evm/zk/validators_verifier.sol\":15911:16037  if (x0 >= P || x1 >= P) {... */\n    tag_226:\n        /* \"Evm/zk/validators_verifier.sol\":16049:16061  uint256 n3ab */\n      0x00\n        /* \"Evm/zk/validators_verifier.sol\":1423:1489  0x30644e72e131a029b85045b68181585d97816a916871ca8d3c208c16d87cfd47 */\n      0x30644e72e131a029b85045b68181585d97816a916871ca8d3c208c16d87cfd47\n        /* \"Evm/zk/validators_verifier.sol\":16064:16097  mulmod(mulmod(x0, x1, P), P-3, P) */\n      dup1\n      tag_227\n      jumpi\n      tag_228\n      tag_138\n      jump\t// in\n    tag_228:\n    tag_227:\n        /* \"Evm/zk/validators_verifier.sol\":16092:16093  3 */\n      0x03\n        /* \"Evm/zk/validators_verifier.sol\":1423:1489  0x30644e72e131a029b85045b68181585d97816a916871ca8d3c208c16d87cfd47 */\n      0x30644e72e131a029b85045b68181585d97816a916871ca8d3c208c16d87cfd47\n        /* \"Evm/zk/validators_verifier.sol\":16090:16093  P-3 */\n      tag_229\n      swap2\n      swap1\n      tag_159\n      jump\t// in\n    tag_229:\n        /* \"Evm/zk/validators_verifier.sol\":1423:1489  0x30644e72e131a029b85045b68181585d97816a916871ca8d3c208c16d87cfd47 */\n      0x30644e72e131a029b85045b68181585d97816a916871ca8d3c208c16d87cfd47\n        /* \"Evm/zk/validators_verifier.sol\":16071:16088  mulmod(x0, x1, P) */\n      dup1\n      tag_230\n      jumpi\n      tag_231\n      tag_138\n      jump\t// in\n    tag_231:\n    tag_230:\n        /* \"Evm/zk/validators_verifier.sol\":16082:16084  x1 */\n      dup9\n        /* \"Evm/zk/validators_verifier.sol\":16078:16080  x0 */\n      dup11\n        /* \"Evm/zk/validators_verifier.sol\":16071:16088  mulmod(x0, x1, P) */\n      mulmod\n        /* \"Evm/zk/validators_verifier.sol\":16064:16097  mulmod(mulmod(x0, x1, P), P-3, P) */\n      mulmod\n        /* \"Evm/zk/validators_verifier.sol\":16049:16097  uint256 n3ab = mulmod(mulmod(x0, x1, P), P-3, P) */\n      swap1\n      pop\n        /* \"Evm/zk/validators_verifier.sol\":16108:16119  uint256 a_3 */\n      0x00\n        /* \"Evm/zk/validators_verifier.sol\":1423:1489  0x30644e72e131a029b85045b68181585d97816a916871ca8d3c208c16d87cfd47 */\n      0x30644e72e131a029b85045b68181585d97816a916871ca8d3c208c16d87cfd47\n        /* \"Evm/zk/validators_verifier.sol\":16122:16154  mulmod(mulmod(x0, x0, P), x0, P) */\n      dup1\n      tag_232\n      jumpi\n      tag_233\n      tag_138\n      jump\t// in\n    tag_233:\n    tag_232:\n        /* \"Evm/zk/validators_verifier.sol\":16148:16150  x0 */\n      dup9\n        /* \"Evm/zk/validators_verifier.sol\":1423:1489  0x30644e72e131a029b85045b68181585d97816a916871ca8d3c208c16d87cfd47 */\n      0x30644e72e131a029b85045b68181585d97816a916871ca8d3c208c16d87cfd47\n        /* \"Evm/zk/validators_verifier.sol\":16129:16146  mulmod(x0, x0, P) */\n      dup1\n      tag_234\n      jumpi\n      tag_235\n      tag_138\n      jump\t// in\n    tag_235:\n    tag_234:\n        /* \"Evm/zk/validators_verifier.sol\":16140:16142  x0 */\n      dup11\n        /* \"Evm/zk/validators_verifier.sol\":16136:16138  x0 */\n      dup12\n        /* \"Evm/zk/validators_verifier.sol\":16129:16146  mulmod(x0, x0, P) */\n      mulmod\n        /* \"Evm/zk/validators_verifier.sol\":16122:16154  mulmod(mulmod(x0, x0, P), x0, P) */\n      mulmod\n        /* \"Evm/zk/validators_verifier.sol\":16108:16154  uint256 a_3 = mulmod(mulmod(x0, x0, P), x0, P) */\n      swap1\n      pop\n        /* \"Evm/zk/validators_verifier.sol\":16165:16176  uint256 b_3 */\n      0x00\n        /* \"Evm/zk/validators_verifier.sol\":1423:1489  0x30644e72e131a029b85045b68181585d97816a916871ca8d3c208c16d87cfd47 */\n      0x30644e72e131a029b85045b68181585d97816a916871ca8d3c208c16d87cfd47\n        /* \"Evm/zk/validators_verifier.sol\":16179:16211  mulmod(mulmod(x1, x1, P), x1, P) */\n      dup1\n      tag_236\n      jumpi\n      tag_237\n      tag_138\n      jump\t// in\n    tag_237:\n    tag_236:\n        /* \"Evm/zk/validators_verifier.sol\":16205:16207  x1 */\n      dup9\n        /* \"Evm/zk/validators_verifier.sol\":1423:1489  0x30644e72e131a029b85045b68181585d97816a916871ca8d3c208c16d87cfd47 */\n      0x30644e72e131a029b85045b68181585d97816a916871ca8d3c208c16d87cfd47\n        /* \"Evm/zk/validators_verifier.sol\":16186:16203  mulmod(x1, x1, P) */\n      dup1\n      tag_238\n      jumpi\n      tag_239\n      tag_138\n      jump\t// in\n    tag_239:\n    tag_238:\n        /* \"Evm/zk/validators_verifier.sol\":16197:16199  x1 */\n      dup11\n        /* \"Evm/zk/validators_verifier.sol\":16193:16195  x1 */\n      dup12\n        /* \"Evm/zk/validators_verifier.sol\":16186:16203  mulmod(x1, x1, P) */\n      mulmod\n        /* \"Evm/zk/validators_verifier.sol\":16179:16211  mulmod(mulmod(x1, x1, P), x1, P) */\n      mulmod\n        /* \"Evm/zk/validators_verifier.sol\":16165:16211  uint256 b_3 = mulmod(mulmod(x1, x1, P), x1, P) */\n      swap1\n      pop\n        /* \"Evm/zk/validators_verifier.sol\":1423:1489  0x30644e72e131a029b85045b68181585d97816a916871ca8d3c208c16d87cfd47 */\n      0x30644e72e131a029b85045b68181585d97816a916871ca8d3c208c16d87cfd47\n        /* \"Evm/zk/validators_verifier.sol\":16229:16294  addmod(FRACTION_27_82_FP, addmod(a_3, mulmod(n3ab, x1, P), P), P) */\n      dup1\n      tag_240\n      jumpi\n      tag_241\n      tag_138\n      jump\t// in\n    tag_241:\n    tag_240:\n        /* \"Evm/zk/validators_verifier.sol\":1423:1489  0x30644e72e131a029b85045b68181585d97816a916871ca8d3c208c16d87cfd47 */\n      0x30644e72e131a029b85045b68181585d97816a916871ca8d3c208c16d87cfd47\n        /* \"Evm/zk/validators_verifier.sol\":16255:16290  addmod(a_3, mulmod(n3ab, x1, P), P) */\n      dup1\n      tag_242\n      jumpi\n      tag_243\n      tag_138\n      jump\t// in\n    tag_243:\n    tag_242:\n        /* \"Evm/zk/validators_verifier.sol\":1423:1489  0x30644e72e131a029b85045b68181585d97816a916871ca8d3c208c16d87cfd47 */\n      0x30644e72e131a029b85045b68181585d97816a916871ca8d3c208c16d87cfd47\n        /* \"Evm/zk/validators_verifier.sol\":16267:16286  mulmod(n3ab, x1, P) */\n      dup1\n      tag_244\n      jumpi\n      tag_245\n      tag_138\n      jump\t// in\n    tag_245:\n    tag_244:\n        /* \"Evm/zk/validators_verifier.sol\":16280:16282  x1 */\n      dup11\n        /* \"Evm/zk/validators_verifier.sol\":16274:16278  n3ab */\n      dup7\n        /* \"Evm/zk/validators_verifier.sol\":16267:16286  mulmod(n3ab, x1, P) */\n      mulmod\n        /* \"Evm/zk/validators_verifier.sol\":16262:16265  a_3 */\n      dup5\n        /* \"Evm/zk/validators_verifier.sol\":16255:16290  addmod(a_3, mulmod(n3ab, x1, P), P) */\n      addmod\n        /* \"Evm/zk/validators_verifier.sol\":2254:2320  0x2b149d40ceb8aaae81be18991be06ac3b5b4c5e559dbefa33267e6dc24a138e5 */\n      0x2b149d40ceb8aaae81be18991be06ac3b5b4c5e559dbefa33267e6dc24a138e5\n        /* \"Evm/zk/validators_verifier.sol\":16229:16294  addmod(FRACTION_27_82_FP, addmod(a_3, mulmod(n3ab, x1, P), P), P) */\n      addmod\n        /* \"Evm/zk/validators_verifier.sol\":16224:16294  y0 = addmod(FRACTION_27_82_FP, addmod(a_3, mulmod(n3ab, x1, P), P), P) */\n      swap7\n      pop\n        /* \"Evm/zk/validators_verifier.sol\":16310:16383  negate(addmod(FRACTION_3_82_FP,  addmod(b_3, mulmod(n3ab, x0, P), P), P)) */\n      tag_246\n        /* \"Evm/zk/validators_verifier.sol\":1423:1489  0x30644e72e131a029b85045b68181585d97816a916871ca8d3c208c16d87cfd47 */\n      0x30644e72e131a029b85045b68181585d97816a916871ca8d3c208c16d87cfd47\n        /* \"Evm/zk/validators_verifier.sol\":16317:16382  addmod(FRACTION_3_82_FP,  addmod(b_3, mulmod(n3ab, x0, P), P), P) */\n      dup1\n      tag_247\n      jumpi\n      tag_248\n      tag_138\n      jump\t// in\n    tag_248:\n    tag_247:\n        /* \"Evm/zk/validators_verifier.sol\":1423:1489  0x30644e72e131a029b85045b68181585d97816a916871ca8d3c208c16d87cfd47 */\n      0x30644e72e131a029b85045b68181585d97816a916871ca8d3c208c16d87cfd47\n        /* \"Evm/zk/validators_verifier.sol\":16343:16378  addmod(b_3, mulmod(n3ab, x0, P), P) */\n      dup1\n      tag_249\n      jumpi\n      tag_250\n      tag_138\n      jump\t// in\n    tag_250:\n    tag_249:\n        /* \"Evm/zk/validators_verifier.sol\":1423:1489  0x30644e72e131a029b85045b68181585d97816a916871ca8d3c208c16d87cfd47 */\n      0x30644e72e131a029b85045b68181585d97816a916871ca8d3c208c16d87cfd47\n        /* \"Evm/zk/validators_verifier.sol\":16355:16374  mulmod(n3ab, x0, P) */\n      dup1\n      tag_251\n      jumpi\n      tag_252\n      tag_138\n      jump\t// in\n    tag_252:\n    tag_251:\n        /* \"Evm/zk/validators_verifier.sol\":16368:16370  x0 */\n      dup13\n        /* \"Evm/zk/validators_verifier.sol\":16362:16366  n3ab */\n      dup8\n        /* \"Evm/zk/validators_verifier.sol\":16355:16374  mulmod(n3ab, x0, P) */\n      mulmod\n        /* \"Evm/zk/validators_verifier.sol\":16350:16353  b_3 */\n      dup5\n        /* \"Evm/zk/validators_verifier.sol\":16343:16378  addmod(b_3, mulmod(n3ab, x0, P), P) */\n      addmod\n        /* \"Evm/zk/validators_verifier.sol\":2363:2429  0x2fcd3ac2a640a154eb23960892a85a68f031ca0c8344b23a577dcf1052b9e775 */\n      0x2fcd3ac2a640a154eb23960892a85a68f031ca0c8344b23a577dcf1052b9e775\n        /* \"Evm/zk/validators_verifier.sol\":16317:16382  addmod(FRACTION_3_82_FP,  addmod(b_3, mulmod(n3ab, x0, P), P), P) */\n      addmod\n        /* \"Evm/zk/validators_verifier.sol\":16310:16316  negate */\n      tag_147\n        /* \"Evm/zk/validators_verifier.sol\":16310:16383  negate(addmod(FRACTION_3_82_FP,  addmod(b_3, mulmod(n3ab, x0, P), P), P)) */\n      jump\t// in\n    tag_246:\n        /* \"Evm/zk/validators_verifier.sol\":16305:16383  y1 = negate(addmod(FRACTION_3_82_FP,  addmod(b_3, mulmod(n3ab, x0, P), P), P)) */\n      swap6\n      pop\n        /* \"Evm/zk/validators_verifier.sol\":16648:16670  sqrt_Fp2(y0, y1, hint) */\n      tag_253\n        /* \"Evm/zk/validators_verifier.sol\":16657:16659  y0 */\n      dup8\n        /* \"Evm/zk/validators_verifier.sol\":16661:16663  y1 */\n      dup8\n        /* \"Evm/zk/validators_verifier.sol\":16665:16669  hint */\n      dup7\n        /* \"Evm/zk/validators_verifier.sol\":16648:16656  sqrt_Fp2 */\n      tag_197\n        /* \"Evm/zk/validators_verifier.sol\":16648:16670  sqrt_Fp2(y0, y1, hint) */\n      jump\t// in\n    tag_253:\n        /* \"Evm/zk/validators_verifier.sol\":16637:16670  (y0, y1) = sqrt_Fp2(y0, y1, hint) */\n      dup1\n      swap8\n      pop\n      dup2\n      swap9\n      pop\n      pop\n      pop\n        /* \"Evm/zk/validators_verifier.sol\":16685:16697  negate_point */\n      dup5\n        /* \"Evm/zk/validators_verifier.sol\":16681:16771  if (negate_point) {... */\n      iszero\n      tag_254\n      jumpi\n        /* \"Evm/zk/validators_verifier.sol\":16719:16729  negate(y0) */\n      tag_255\n        /* \"Evm/zk/validators_verifier.sol\":16726:16728  y0 */\n      dup8\n        /* \"Evm/zk/validators_verifier.sol\":16719:16725  negate */\n      tag_147\n        /* \"Evm/zk/validators_verifier.sol\":16719:16729  negate(y0) */\n      jump\t// in\n    tag_255:\n        /* \"Evm/zk/validators_verifier.sol\":16714:16729  y0 = negate(y0) */\n      swap7\n      pop\n        /* \"Evm/zk/validators_verifier.sol\":16749:16759  negate(y1) */\n      tag_256\n        /* \"Evm/zk/validators_verifier.sol\":16756:16758  y1 */\n      dup7\n        /* \"Evm/zk/validators_verifier.sol\":16749:16755  negate */\n      tag_147\n        /* \"Evm/zk/validators_verifier.sol\":16749:16759  negate(y1) */\n      jump\t// in\n    tag_256:\n        /* \"Evm/zk/validators_verifier.sol\":16744:16759  y1 = negate(y1) */\n      swap6\n      pop\n        /* \"Evm/zk/validators_verifier.sol\":16681:16771  if (negate_point) {... */\n    tag_254:\n        /* \"Evm/zk/validators_verifier.sol\":15490:16778  {... */\n      pop\n      pop\n      pop\n      pop\n      pop\n        /* \"Evm/zk/validators_verifier.sol\":15367:16778  function decompress_g2(uint256 c0, uint256 c1)... */\n    tag_222:\n      swap3\n      swap6\n      swap2\n      swap5\n      pop\n      swap3\n      pop\n      jump\t// out\n        /* \"Evm/zk/validators_verifier.sol\":7578:7885  function sqrt_Fp(uint256 a) internal view returns (uint256 x) {... */\n    tag_143:\n        /* \"Evm/zk/validators_verifier.sol\":7629:7638  uint256 x */\n      0x00\n        /* \"Evm/zk/validators_verifier.sol\":7655:7674  exp(a, EXP_SQRT_FP) */\n      tag_258\n        /* \"Evm/zk/validators_verifier.sol\":7659:7660  a */\n      dup3\n        /* \"Evm/zk/validators_verifier.sol\":2641:2706  0xC19139CB84C680A6E14116DA060561765E05AA45A1C72A34F082305B61F3F52 */\n      0x0c19139cb84c680a6e14116da060561765e05aa45a1c72a34f082305b61f3f52\n        /* \"Evm/zk/validators_verifier.sol\":7655:7658  exp */\n      tag_259\n        /* \"Evm/zk/validators_verifier.sol\":7655:7674  exp(a, EXP_SQRT_FP) */\n      jump\t// in\n    tag_258:\n        /* \"Evm/zk/validators_verifier.sol\":7651:7674  x = exp(a, EXP_SQRT_FP) */\n      swap1\n      pop\n        /* \"Evm/zk/validators_verifier.sol\":7708:7709  a */\n      dup2\n        /* \"Evm/zk/validators_verifier.sol\":1423:1489  0x30644e72e131a029b85045b68181585d97816a916871ca8d3c208c16d87cfd47 */\n      0x30644e72e131a029b85045b68181585d97816a916871ca8d3c208c16d87cfd47\n        /* \"Evm/zk/validators_verifier.sol\":7689:7704  mulmod(x, x, P) */\n      dup1\n      tag_260\n      jumpi\n      tag_261\n      tag_138\n      jump\t// in\n    tag_261:\n    tag_260:\n        /* \"Evm/zk/validators_verifier.sol\":7699:7700  x */\n      dup3\n        /* \"Evm/zk/validators_verifier.sol\":7696:7697  x */\n      dup4\n        /* \"Evm/zk/validators_verifier.sol\":7689:7704  mulmod(x, x, P) */\n      mulmod\n        /* \"Evm/zk/validators_verifier.sol\":7689:7709  mulmod(x, x, P) != a */\n      eq\n        /* \"Evm/zk/validators_verifier.sol\":7685:7878  if (mulmod(x, x, P) != a) {... */\n      tag_262\n      jumpi\n        /* \"Evm/zk/validators_verifier.sol\":7852:7866  ProofInvalid() */\n      mload(0x40)\n      0x7fcdd1f400000000000000000000000000000000000000000000000000000000\n      dup2\n      mstore\n      0x04\n      add\n      mload(0x40)\n      dup1\n      swap2\n      sub\n      swap1\n      revert\n        /* \"Evm/zk/validators_verifier.sol\":7685:7878  if (mulmod(x, x, P) != a) {... */\n    tag_262:\n        /* \"Evm/zk/validators_verifier.sol\":7578:7885  function sqrt_Fp(uint256 a) internal view returns (uint256 x) {... */\n      swap2\n      swap1\n      pop\n      jump\t// out\n        /* \"Evm/zk/validators_verifier.sol\":5658:5831  function negate(uint256 a) internal pure returns (uint256 x) {... */\n    tag_147:\n        /* \"Evm/zk/validators_verifier.sol\":5708:5717  uint256 x */\n      0x00\n        /* \"Evm/zk/validators_verifier.sol\":1423:1489  0x30644e72e131a029b85045b68181585d97816a916871ca8d3c208c16d87cfd47 */\n      0x30644e72e131a029b85045b68181585d97816a916871ca8d3c208c16d87cfd47\n      dup1\n        /* \"Evm/zk/validators_verifier.sol\":5765:5766  a */\n      dup4\n        /* \"Evm/zk/validators_verifier.sol\":5765:5770  a % P */\n      dup2\n      tag_264\n      jumpi\n      tag_265\n      tag_138\n      jump\t// in\n    tag_265:\n    tag_264:\n      mod\n        /* \"Evm/zk/validators_verifier.sol\":1423:1489  0x30644e72e131a029b85045b68181585d97816a916871ca8d3c208c16d87cfd47 */\n      0x30644e72e131a029b85045b68181585d97816a916871ca8d3c208c16d87cfd47\n        /* \"Evm/zk/validators_verifier.sol\":5760:5771  P - (a % P) */\n      sub\n        /* \"Evm/zk/validators_verifier.sol\":5759:5776  (P - (a % P)) % P */\n      dup2\n      tag_266\n      jumpi\n      tag_267\n      tag_138\n      jump\t// in\n    tag_267:\n    tag_266:\n      mod\n        /* \"Evm/zk/validators_verifier.sol\":5755:5776  x = (P - (a % P)) % P */\n      swap1\n      pop\n        /* \"Evm/zk/validators_verifier.sol\":5658:5831  function negate(uint256 a) internal pure returns (uint256 x) {... */\n      swap2\n      swap1\n      pop\n      jump\t// out\n        /* \"Evm/zk/validators_verifier.sol\":8163:8312  function isSquare_Fp(uint256 a) internal view returns (bool) {... */\n    tag_195:\n        /* \"Evm/zk/validators_verifier.sol\":8218:8222  bool */\n      0x00\n        /* \"Evm/zk/validators_verifier.sol\":8235:8244  uint256 x */\n      0x00\n        /* \"Evm/zk/validators_verifier.sol\":8247:8266  exp(a, EXP_SQRT_FP) */\n      tag_269\n        /* \"Evm/zk/validators_verifier.sol\":8251:8252  a */\n      dup4\n        /* \"Evm/zk/validators_verifier.sol\":2641:2706  0xC19139CB84C680A6E14116DA060561765E05AA45A1C72A34F082305B61F3F52 */\n      0x0c19139cb84c680a6e14116da060561765e05aa45a1c72a34f082305b61f3f52\n        /* \"Evm/zk/validators_verifier.sol\":8247:8250  exp */\n      tag_259\n        /* \"Evm/zk/validators_verifier.sol\":8247:8266  exp(a, EXP_SQRT_FP) */\n      jump\t// in\n    tag_269:\n        /* \"Evm/zk/validators_verifier.sol\":8235:8266  uint256 x = exp(a, EXP_SQRT_FP) */\n      swap1\n      pop\n        /* \"Evm/zk/validators_verifier.sol\":8303:8304  a */\n      dup3\n        /* \"Evm/zk/validators_verifier.sol\":1423:1489  0x30644e72e131a029b85045b68181585d97816a916871ca8d3c208c16d87cfd47 */\n      0x30644e72e131a029b85045b68181585d97816a916871ca8d3c208c16d87cfd47\n        /* \"Evm/zk/validators_verifier.sol\":8284:8299  mulmod(x, x, P) */\n      dup1\n      tag_270\n      jumpi\n      tag_271\n      tag_138\n      jump\t// in\n    tag_271:\n    tag_270:\n        /* \"Evm/zk/validators_verifier.sol\":8294:8295  x */\n      dup3\n        /* \"Evm/zk/validators_verifier.sol\":8291:8292  x */\n      dup4\n        /* \"Evm/zk/validators_verifier.sol\":8284:8299  mulmod(x, x, P) */\n      mulmod\n        /* \"Evm/zk/validators_verifier.sol\":8284:8304  mulmod(x, x, P) == a */\n      eq\n        /* \"Evm/zk/validators_verifier.sol\":8277:8304  return mulmod(x, x, P) == a */\n      swap2\n      pop\n      pop\n        /* \"Evm/zk/validators_verifier.sol\":8163:8312  function isSquare_Fp(uint256 a) internal view returns (bool) {... */\n      swap2\n      swap1\n      pop\n      jump\t// out\n        /* \"Evm/zk/validators_verifier.sol\":8958:9765  function sqrt_Fp2(uint256 a0, uint256 a1, bool hint) internal view returns (uint256 x0, uint256 x1) {... */\n    tag_197:\n        /* \"Evm/zk/validators_verifier.sol\":9034:9044  uint256 x0 */\n      0x00\n        /* \"Evm/zk/validators_verifier.sol\":9046:9056  uint256 x1 */\n      0x00\n        /* \"Evm/zk/validators_verifier.sol\":9138:9147  uint256 d */\n      0x00\n        /* \"Evm/zk/validators_verifier.sol\":9150:9206  sqrt_Fp(addmod(mulmod(a0, a0, P), mulmod(a1, a1, P), P)) */\n      tag_273\n        /* \"Evm/zk/validators_verifier.sol\":1423:1489  0x30644e72e131a029b85045b68181585d97816a916871ca8d3c208c16d87cfd47 */\n      0x30644e72e131a029b85045b68181585d97816a916871ca8d3c208c16d87cfd47\n        /* \"Evm/zk/validators_verifier.sol\":9158:9205  addmod(mulmod(a0, a0, P), mulmod(a1, a1, P), P) */\n      dup1\n      tag_274\n      jumpi\n      tag_275\n      tag_138\n      jump\t// in\n    tag_275:\n    tag_274:\n        /* \"Evm/zk/validators_verifier.sol\":1423:1489  0x30644e72e131a029b85045b68181585d97816a916871ca8d3c208c16d87cfd47 */\n      0x30644e72e131a029b85045b68181585d97816a916871ca8d3c208c16d87cfd47\n        /* \"Evm/zk/validators_verifier.sol\":9184:9201  mulmod(a1, a1, P) */\n      dup1\n      tag_276\n      jumpi\n      tag_277\n      tag_138\n      jump\t// in\n    tag_277:\n    tag_276:\n        /* \"Evm/zk/validators_verifier.sol\":9195:9197  a1 */\n      dup8\n        /* \"Evm/zk/validators_verifier.sol\":9191:9193  a1 */\n      dup9\n        /* \"Evm/zk/validators_verifier.sol\":9184:9201  mulmod(a1, a1, P) */\n      mulmod\n        /* \"Evm/zk/validators_verifier.sol\":1423:1489  0x30644e72e131a029b85045b68181585d97816a916871ca8d3c208c16d87cfd47 */\n      0x30644e72e131a029b85045b68181585d97816a916871ca8d3c208c16d87cfd47\n        /* \"Evm/zk/validators_verifier.sol\":9165:9182  mulmod(a0, a0, P) */\n      dup1\n      tag_278\n      jumpi\n      tag_279\n      tag_138\n      jump\t// in\n    tag_279:\n    tag_278:\n        /* \"Evm/zk/validators_verifier.sol\":9176:9178  a0 */\n      dup10\n        /* \"Evm/zk/validators_verifier.sol\":9172:9174  a0 */\n      dup11\n        /* \"Evm/zk/validators_verifier.sol\":9165:9182  mulmod(a0, a0, P) */\n      mulmod\n        /* \"Evm/zk/validators_verifier.sol\":9158:9205  addmod(mulmod(a0, a0, P), mulmod(a1, a1, P), P) */\n      addmod\n        /* \"Evm/zk/validators_verifier.sol\":9150:9157  sqrt_Fp */\n      tag_143\n        /* \"Evm/zk/validators_verifier.sol\":9150:9206  sqrt_Fp(addmod(mulmod(a0, a0, P), mulmod(a1, a1, P), P)) */\n      jump\t// in\n    tag_273:\n        /* \"Evm/zk/validators_verifier.sol\":9138:9206  uint256 d = sqrt_Fp(addmod(mulmod(a0, a0, P), mulmod(a1, a1, P), P)) */\n      swap1\n      pop\n        /* \"Evm/zk/validators_verifier.sol\":9221:9225  hint */\n      dup4\n        /* \"Evm/zk/validators_verifier.sol\":9217:9267  if (hint) {... */\n      iszero\n      tag_280\n      jumpi\n        /* \"Evm/zk/validators_verifier.sol\":9246:9255  negate(d) */\n      tag_281\n        /* \"Evm/zk/validators_verifier.sol\":9253:9254  d */\n      dup2\n        /* \"Evm/zk/validators_verifier.sol\":9246:9252  negate */\n      tag_147\n        /* \"Evm/zk/validators_verifier.sol\":9246:9255  negate(d) */\n      jump\t// in\n    tag_281:\n        /* \"Evm/zk/validators_verifier.sol\":9242:9255  d = negate(d) */\n      swap1\n      pop\n        /* \"Evm/zk/validators_verifier.sol\":9217:9267  if (hint) {... */\n    tag_280:\n        /* \"Evm/zk/validators_verifier.sol\":9351:9404  sqrt_Fp(mulmod(addmod(a0, d, P), FRACTION_1_2_FP, P)) */\n      tag_282\n        /* \"Evm/zk/validators_verifier.sol\":1423:1489  0x30644e72e131a029b85045b68181585d97816a916871ca8d3c208c16d87cfd47 */\n      0x30644e72e131a029b85045b68181585d97816a916871ca8d3c208c16d87cfd47\n        /* \"Evm/zk/validators_verifier.sol\":9359:9403  mulmod(addmod(a0, d, P), FRACTION_1_2_FP, P) */\n      dup1\n      tag_283\n      jumpi\n      tag_284\n      tag_138\n      jump\t// in\n    tag_284:\n    tag_283:\n        /* \"Evm/zk/validators_verifier.sol\":2144:2210  0x183227397098d014dc2822db40c0ac2ecbc0b548b438e5469e10460b6c3e7ea4 */\n      0x183227397098d014dc2822db40c0ac2ecbc0b548b438e5469e10460b6c3e7ea4\n        /* \"Evm/zk/validators_verifier.sol\":1423:1489  0x30644e72e131a029b85045b68181585d97816a916871ca8d3c208c16d87cfd47 */\n      0x30644e72e131a029b85045b68181585d97816a916871ca8d3c208c16d87cfd47\n        /* \"Evm/zk/validators_verifier.sol\":9366:9382  addmod(a0, d, P) */\n      dup1\n      tag_285\n      jumpi\n      tag_286\n      tag_138\n      jump\t// in\n    tag_286:\n    tag_285:\n        /* \"Evm/zk/validators_verifier.sol\":9377:9378  d */\n      dup5\n        /* \"Evm/zk/validators_verifier.sol\":9373:9375  a0 */\n      dup11\n        /* \"Evm/zk/validators_verifier.sol\":9366:9382  addmod(a0, d, P) */\n      addmod\n        /* \"Evm/zk/validators_verifier.sol\":9359:9403  mulmod(addmod(a0, d, P), FRACTION_1_2_FP, P) */\n      mulmod\n        /* \"Evm/zk/validators_verifier.sol\":9351:9358  sqrt_Fp */\n      tag_143\n        /* \"Evm/zk/validators_verifier.sol\":9351:9404  sqrt_Fp(mulmod(addmod(a0, d, P), FRACTION_1_2_FP, P)) */\n      jump\t// in\n    tag_282:\n        /* \"Evm/zk/validators_verifier.sol\":9346:9404  x0 = sqrt_Fp(mulmod(addmod(a0, d, P), FRACTION_1_2_FP, P)) */\n      swap3\n      pop\n        /* \"Evm/zk/validators_verifier.sol\":1423:1489  0x30644e72e131a029b85045b68181585d97816a916871ca8d3c208c16d87cfd47 */\n      0x30644e72e131a029b85045b68181585d97816a916871ca8d3c208c16d87cfd47\n        /* \"Evm/zk/validators_verifier.sol\":9420:9462  mulmod(a1, invert_Fp(mulmod(x0, 2, P)), P) */\n      dup1\n      tag_287\n      jumpi\n      tag_288\n      tag_138\n      jump\t// in\n    tag_288:\n    tag_287:\n        /* \"Evm/zk/validators_verifier.sol\":9431:9458  invert_Fp(mulmod(x0, 2, P)) */\n      tag_289\n        /* \"Evm/zk/validators_verifier.sol\":1423:1489  0x30644e72e131a029b85045b68181585d97816a916871ca8d3c208c16d87cfd47 */\n      0x30644e72e131a029b85045b68181585d97816a916871ca8d3c208c16d87cfd47\n        /* \"Evm/zk/validators_verifier.sol\":9441:9457  mulmod(x0, 2, P) */\n      dup1\n      tag_290\n      jumpi\n      tag_291\n      tag_138\n      jump\t// in\n    tag_291:\n    tag_290:\n        /* \"Evm/zk/validators_verifier.sol\":9452:9453  2 */\n      0x02\n        /* \"Evm/zk/validators_verifier.sol\":9448:9450  x0 */\n      dup7\n        /* \"Evm/zk/validators_verifier.sol\":9441:9457  mulmod(x0, 2, P) */\n      mulmod\n        /* \"Evm/zk/validators_verifier.sol\":9431:9440  invert_Fp */\n      tag_292\n        /* \"Evm/zk/validators_verifier.sol\":9431:9458  invert_Fp(mulmod(x0, 2, P)) */\n      jump\t// in\n    tag_289:\n        /* \"Evm/zk/validators_verifier.sol\":9427:9429  a1 */\n      dup7\n        /* \"Evm/zk/validators_verifier.sol\":9420:9462  mulmod(a1, invert_Fp(mulmod(x0, 2, P)), P) */\n      mulmod\n        /* \"Evm/zk/validators_verifier.sol\":9415:9462  x1 = mulmod(a1, invert_Fp(mulmod(x0, 2, P)), P) */\n      swap2\n      pop\n        /* \"Evm/zk/validators_verifier.sol\":1423:1489  0x30644e72e131a029b85045b68181585d97816a916871ca8d3c208c16d87cfd47 */\n      0x30644e72e131a029b85045b68181585d97816a916871ca8d3c208c16d87cfd47\n        /* \"Evm/zk/validators_verifier.sol\":9602:9657  addmod(mulmod(x0, x0, P), negate(mulmod(x1, x1, P)), P) */\n      dup1\n      tag_293\n      jumpi\n      tag_294\n      tag_138\n      jump\t// in\n    tag_294:\n    tag_293:\n        /* \"Evm/zk/validators_verifier.sol\":9628:9653  negate(mulmod(x1, x1, P)) */\n      tag_295\n        /* \"Evm/zk/validators_verifier.sol\":1423:1489  0x30644e72e131a029b85045b68181585d97816a916871ca8d3c208c16d87cfd47 */\n      0x30644e72e131a029b85045b68181585d97816a916871ca8d3c208c16d87cfd47\n        /* \"Evm/zk/validators_verifier.sol\":9635:9652  mulmod(x1, x1, P) */\n      dup1\n      tag_296\n      jumpi\n      tag_297\n      tag_138\n      jump\t// in\n    tag_297:\n    tag_296:\n        /* \"Evm/zk/validators_verifier.sol\":9646:9648  x1 */\n      dup5\n        /* \"Evm/zk/validators_verifier.sol\":9642:9644  x1 */\n      dup6\n        /* \"Evm/zk/validators_verifier.sol\":9635:9652  mulmod(x1, x1, P) */\n      mulmod\n        /* \"Evm/zk/validators_verifier.sol\":9628:9634  negate */\n      tag_147\n        /* \"Evm/zk/validators_verifier.sol\":9628:9653  negate(mulmod(x1, x1, P)) */\n      jump\t// in\n    tag_295:\n        /* \"Evm/zk/validators_verifier.sol\":1423:1489  0x30644e72e131a029b85045b68181585d97816a916871ca8d3c208c16d87cfd47 */\n      0x30644e72e131a029b85045b68181585d97816a916871ca8d3c208c16d87cfd47\n        /* \"Evm/zk/validators_verifier.sol\":9609:9626  mulmod(x0, x0, P) */\n      dup1\n      tag_298\n      jumpi\n      tag_299\n      tag_138\n      jump\t// in\n    tag_299:\n    tag_298:\n        /* \"Evm/zk/validators_verifier.sol\":9620:9622  x0 */\n      dup6\n        /* \"Evm/zk/validators_verifier.sol\":9616:9618  x0 */\n      dup7\n        /* \"Evm/zk/validators_verifier.sol\":9609:9626  mulmod(x0, x0, P) */\n      mulmod\n        /* \"Evm/zk/validators_verifier.sol\":9602:9657  addmod(mulmod(x0, x0, P), negate(mulmod(x1, x1, P)), P) */\n      addmod\n        /* \"Evm/zk/validators_verifier.sol\":9596:9598  a0 */\n      dup7\n        /* \"Evm/zk/validators_verifier.sol\":9596:9657  a0 != addmod(mulmod(x0, x0, P), negate(mulmod(x1, x1, P)), P) */\n      eq\n      iszero\n        /* \"Evm/zk/validators_verifier.sol\":9596:9708  a0 != addmod(mulmod(x0, x0, P), negate(mulmod(x1, x1, P)), P)... */\n      dup1\n      tag_300\n      jumpi\n      pop\n        /* \"Evm/zk/validators_verifier.sol\":1423:1489  0x30644e72e131a029b85045b68181585d97816a916871ca8d3c208c16d87cfd47 */\n      0x30644e72e131a029b85045b68181585d97816a916871ca8d3c208c16d87cfd47\n        /* \"Evm/zk/validators_verifier.sol\":9677:9708  mulmod(2, mulmod(x0, x1, P), P) */\n      dup1\n      tag_301\n      jumpi\n      tag_302\n      tag_138\n      jump\t// in\n    tag_302:\n    tag_301:\n        /* \"Evm/zk/validators_verifier.sol\":1423:1489  0x30644e72e131a029b85045b68181585d97816a916871ca8d3c208c16d87cfd47 */\n      0x30644e72e131a029b85045b68181585d97816a916871ca8d3c208c16d87cfd47\n        /* \"Evm/zk/validators_verifier.sol\":9687:9704  mulmod(x0, x1, P) */\n      dup1\n      tag_303\n      jumpi\n      tag_304\n      tag_138\n      jump\t// in\n    tag_304:\n    tag_303:\n        /* \"Evm/zk/validators_verifier.sol\":9698:9700  x1 */\n      dup4\n        /* \"Evm/zk/validators_verifier.sol\":9694:9696  x0 */\n      dup6\n        /* \"Evm/zk/validators_verifier.sol\":9687:9704  mulmod(x0, x1, P) */\n      mulmod\n        /* \"Evm/zk/validators_verifier.sol\":9684:9685  2 */\n      0x02\n        /* \"Evm/zk/validators_verifier.sol\":9677:9708  mulmod(2, mulmod(x0, x1, P), P) */\n      mulmod\n        /* \"Evm/zk/validators_verifier.sol\":9671:9673  a1 */\n      dup6\n        /* \"Evm/zk/validators_verifier.sol\":9671:9708  a1 != mulmod(2, mulmod(x0, x1, P), P) */\n      eq\n      iszero\n        /* \"Evm/zk/validators_verifier.sol\":9596:9708  a0 != addmod(mulmod(x0, x0, P), negate(mulmod(x1, x1, P)), P)... */\n    tag_300:\n        /* \"Evm/zk/validators_verifier.sol\":9592:9758  if (a0 != addmod(mulmod(x0, x0, P), negate(mulmod(x1, x1, P)), P)... */\n      iszero\n      tag_305\n      jumpi\n        /* \"Evm/zk/validators_verifier.sol\":9732:9746  ProofInvalid() */\n      mload(0x40)\n      0x7fcdd1f400000000000000000000000000000000000000000000000000000000\n      dup2\n      mstore\n      0x04\n      add\n      mload(0x40)\n      dup1\n      swap2\n      sub\n      swap1\n      revert\n        /* \"Evm/zk/validators_verifier.sol\":9592:9758  if (a0 != addmod(mulmod(x0, x0, P), negate(mulmod(x1, x1, P)), P)... */\n    tag_305:\n        /* \"Evm/zk/validators_verifier.sol\":9058:9765  {... */\n      pop\n        /* \"Evm/zk/validators_verifier.sol\":8958:9765  function sqrt_Fp2(uint256 a0, uint256 a1, bool hint) internal view returns (uint256 x0, uint256 x1) {... */\n      swap4\n      pop\n      swap4\n      swap2\n      pop\n      pop\n      jump\t// out\n        /* \"Evm/zk/validators_verifier.sol\":6077:6730  function exp(uint256 a, uint256 e) internal view returns (uint256 x) {... */\n    tag_259:\n        /* \"Evm/zk/validators_verifier.sol\":6135:6144  uint256 x */\n      0x00\n        /* \"Evm/zk/validators_verifier.sol\":6157:6169  bool success */\n      0x00\n        /* \"Evm/zk/validators_verifier.sol\":6235:6239  0x40 */\n      0x40\n        /* \"Evm/zk/validators_verifier.sol\":6229:6240  mload(0x40) */\n      mload\n        /* \"Evm/zk/validators_verifier.sol\":6264:6268  0x20 */\n      0x20\n        /* \"Evm/zk/validators_verifier.sol\":6261:6262  f */\n      dup2\n        /* \"Evm/zk/validators_verifier.sol\":6254:6269  mstore(f, 0x20) */\n      mstore\n        /* \"Evm/zk/validators_verifier.sol\":6304:6308  0x20 */\n      0x20\n        /* \"Evm/zk/validators_verifier.sol\":6297:6301  0x20 */\n      dup1\n        /* \"Evm/zk/validators_verifier.sol\":6294:6295  f */\n      dup3\n        /* \"Evm/zk/validators_verifier.sol\":6290:6302  add(f, 0x20) */\n      add\n        /* \"Evm/zk/validators_verifier.sol\":6283:6309  mstore(add(f, 0x20), 0x20) */\n      mstore\n        /* \"Evm/zk/validators_verifier.sol\":6344:6348  0x20 */\n      0x20\n        /* \"Evm/zk/validators_verifier.sol\":6337:6341  0x40 */\n      0x40\n        /* \"Evm/zk/validators_verifier.sol\":6334:6335  f */\n      dup3\n        /* \"Evm/zk/validators_verifier.sol\":6330:6342  add(f, 0x40) */\n      add\n        /* \"Evm/zk/validators_verifier.sol\":6323:6349  mstore(add(f, 0x40), 0x20) */\n      mstore\n        /* \"Evm/zk/validators_verifier.sol\":6384:6385  a */\n      dup5\n        /* \"Evm/zk/validators_verifier.sol\":6377:6381  0x60 */\n      0x60\n        /* \"Evm/zk/validators_verifier.sol\":6374:6375  f */\n      dup3\n        /* \"Evm/zk/validators_verifier.sol\":6370:6382  add(f, 0x60) */\n      add\n        /* \"Evm/zk/validators_verifier.sol\":6363:6386  mstore(add(f, 0x60), a) */\n      mstore\n        /* \"Evm/zk/validators_verifier.sol\":6421:6422  e */\n      dup4\n        /* \"Evm/zk/validators_verifier.sol\":6414:6418  0x80 */\n      0x80\n        /* \"Evm/zk/validators_verifier.sol\":6411:6412  f */\n      dup3\n        /* \"Evm/zk/validators_verifier.sol\":6407:6419  add(f, 0x80) */\n      add\n        /* \"Evm/zk/validators_verifier.sol\":6400:6423  mstore(add(f, 0x80), e) */\n      mstore\n        /* \"Evm/zk/validators_verifier.sol\":6458:6459  P */\n      0x30644e72e131a029b85045b68181585d97816a916871ca8d3c208c16d87cfd47\n        /* \"Evm/zk/validators_verifier.sol\":6451:6455  0xa0 */\n      0xa0\n        /* \"Evm/zk/validators_verifier.sol\":6448:6449  f */\n      dup3\n        /* \"Evm/zk/validators_verifier.sol\":6444:6456  add(f, 0xa0) */\n      add\n        /* \"Evm/zk/validators_verifier.sol\":6437:6460  mstore(add(f, 0xa0), P) */\n      mstore\n        /* \"Evm/zk/validators_verifier.sol\":6534:6538  0x20 */\n      0x20\n        /* \"Evm/zk/validators_verifier.sol\":6531:6532  f */\n      dup2\n        /* \"Evm/zk/validators_verifier.sol\":6525:6529  0xc0 */\n      0xc0\n        /* \"Evm/zk/validators_verifier.sol\":6522:6523  f */\n      dup4\n        /* \"Evm/zk/validators_verifier.sol\":6503:6520  PRECOMPILE_MODEXP */\n      0x05\n        /* \"Evm/zk/validators_verifier.sol\":6496:6501  gas() */\n      gas\n        /* \"Evm/zk/validators_verifier.sol\":6485:6539  staticcall(gas(), PRECOMPILE_MODEXP, f, 0xc0, f, 0x20) */\n      staticcall\n        /* \"Evm/zk/validators_verifier.sol\":6474:6539  success := staticcall(gas(), PRECOMPILE_MODEXP, f, 0xc0, f, 0x20) */\n      swap2\n      pop\n        /* \"Evm/zk/validators_verifier.sol\":6564:6565  f */\n      dup1\n        /* \"Evm/zk/validators_verifier.sol\":6558:6566  mload(f) */\n      mload\n        /* \"Evm/zk/validators_verifier.sol\":6553:6566  x := mload(f) */\n      swap3\n      pop\n        /* \"Evm/zk/validators_verifier.sol\":6205:6577  {... */\n      pop\n        /* \"Evm/zk/validators_verifier.sol\":6592:6599  success */\n      dup1\n        /* \"Evm/zk/validators_verifier.sol\":6587:6723  if (!success) {... */\n      tag_307\n      jumpi\n        /* \"Evm/zk/validators_verifier.sol\":6697:6711  ProofInvalid() */\n      mload(0x40)\n      0x7fcdd1f400000000000000000000000000000000000000000000000000000000\n      dup2\n      mstore\n      0x04\n      add\n      mload(0x40)\n      dup1\n      swap2\n      sub\n      swap1\n      revert\n        /* \"Evm/zk/validators_verifier.sol\":6587:6723  if (!success) {... */\n    tag_307:\n        /* \"Evm/zk/validators_verifier.sol\":6146:6730  {... */\n      pop\n        /* \"Evm/zk/validators_verifier.sol\":6077:6730  function exp(uint256 a, uint256 e) internal view returns (uint256 x) {... */\n      swap3\n      swap2\n      pop\n      pop\n      jump\t// out\n        /* \"Evm/zk/validators_verifier.sol\":7019:7315  function invert_Fp(uint256 a) internal view returns (uint256 x) {... */\n    tag_292:\n        /* \"Evm/zk/validators_verifier.sol\":7072:7081  uint256 x */\n      0x00\n        /* \"Evm/zk/validators_verifier.sol\":7098:7120  exp(a, EXP_INVERSE_FP) */\n      tag_309\n        /* \"Evm/zk/validators_verifier.sol\":7102:7103  a */\n      dup3\n        /* \"Evm/zk/validators_verifier.sol\":2528:2594  0x30644E72E131A029B85045B68181585D97816A916871CA8D3C208C16D87CFD45 */\n      0x30644e72e131a029b85045b68181585d97816a916871ca8d3c208c16d87cfd45\n        /* \"Evm/zk/validators_verifier.sol\":7098:7101  exp */\n      tag_259\n        /* \"Evm/zk/validators_verifier.sol\":7098:7120  exp(a, EXP_INVERSE_FP) */\n      jump\t// in\n    tag_309:\n        /* \"Evm/zk/validators_verifier.sol\":7094:7120  x = exp(a, EXP_INVERSE_FP) */\n      swap1\n      pop\n        /* \"Evm/zk/validators_verifier.sol\":7154:7155  1 */\n      0x01\n        /* \"Evm/zk/validators_verifier.sol\":1423:1489  0x30644e72e131a029b85045b68181585d97816a916871ca8d3c208c16d87cfd47 */\n      0x30644e72e131a029b85045b68181585d97816a916871ca8d3c208c16d87cfd47\n        /* \"Evm/zk/validators_verifier.sol\":7135:7150  mulmod(a, x, P) */\n      dup1\n      tag_310\n      jumpi\n      tag_311\n      tag_138\n      jump\t// in\n    tag_311:\n    tag_310:\n        /* \"Evm/zk/validators_verifier.sol\":7145:7146  x */\n      dup3\n        /* \"Evm/zk/validators_verifier.sol\":7142:7143  a */\n      dup5\n        /* \"Evm/zk/validators_verifier.sol\":7135:7150  mulmod(a, x, P) */\n      mulmod\n        /* \"Evm/zk/validators_verifier.sol\":7135:7155  mulmod(a, x, P) != 1 */\n      eq\n        /* \"Evm/zk/validators_verifier.sol\":7131:7308  if (mulmod(a, x, P) != 1) {... */\n      tag_312\n      jumpi\n        /* \"Evm/zk/validators_verifier.sol\":7282:7296  ProofInvalid() */\n      mload(0x40)\n      0x7fcdd1f400000000000000000000000000000000000000000000000000000000\n      dup2\n      mstore\n      0x04\n      add\n      mload(0x40)\n      dup1\n      swap2\n      sub\n      swap1\n      revert\n        /* \"Evm/zk/validators_verifier.sol\":7131:7308  if (mulmod(a, x, P) != 1) {... */\n    tag_312:\n        /* \"Evm/zk/validators_verifier.sol\":7019:7315  function invert_Fp(uint256 a) internal view returns (uint256 x) {... */\n      swap2\n      swap1\n      pop\n      jump\t// out\n    tag_25:\n      mload(0x40)\n      dup1\n      0x80\n      add\n      0x40\n      mstore\n      dup1\n      0x04\n      swap1\n      0x20\n      dup3\n      mul\n      dup1\n      calldatasize\n      dup4\n      calldatacopy\n      dup1\n      dup3\n      add\n      swap2\n      pop\n      pop\n      swap1\n      pop\n      pop\n      swap1\n      jump\t// out\n    tag_59:\n      mload(0x40)\n      dup1\n      0x0300\n      add\n      0x40\n      mstore\n      dup1\n      0x18\n      swap1\n      0x20\n      dup3\n      mul\n      dup1\n      calldatasize\n      dup4\n      calldatacopy\n      dup1\n      dup3\n      add\n      swap2\n      pop\n      pop\n      swap1\n      pop\n      pop\n      swap1\n      jump\t// out\n    tag_123:\n      mload(0x40)\n      dup1\n      0x20\n      add\n      0x40\n      mstore\n      dup1\n      0x01\n      swap1\n      0x20\n      dup3\n      mul\n      dup1\n      calldatasize\n      dup4\n      calldatacopy\n      dup1\n      dup3\n      add\n      swap2\n      pop\n      pop\n      swap1\n      pop\n      pop\n      swap1\n      jump\t// out\n        /* \"#utility.yul\":88:205   */\n    tag_314:\n        /* \"#utility.yul\":197:198   */\n      0x00\n        /* \"#utility.yul\":194:195   */\n      0x00\n        /* \"#utility.yul\":187:199   */\n      revert\n        /* \"#utility.yul\":334:451   */\n    tag_316:\n        /* \"#utility.yul\":443:444   */\n      0x00\n        /* \"#utility.yul\":440:441   */\n      0x00\n        /* \"#utility.yul\":433:445   */\n      revert\n        /* \"#utility.yul\":475:724   */\n    tag_317:\n        /* \"#utility.yul\":546:554   */\n      0x00\n        /* \"#utility.yul\":577:583   */\n      dup2\n        /* \"#utility.yul\":565:583   */\n      swap1\n      pop\n        /* \"#utility.yul\":630:633   */\n      dup3\n        /* \"#utility.yul\":622:626   */\n      0x20\n        /* \"#utility.yul\":616:620   */\n      0x08\n        /* \"#utility.yul\":612:627   */\n      mul\n        /* \"#utility.yul\":602:610   */\n      dup3\n        /* \"#utility.yul\":598:628   */\n      add\n        /* \"#utility.yul\":595:634   */\n      gt\n        /* \"#utility.yul\":592:718   */\n      iszero\n      tag_335\n      jumpi\n        /* \"#utility.yul\":637:716   */\n      tag_336\n      tag_316\n      jump\t// in\n    tag_336:\n        /* \"#utility.yul\":592:718   */\n    tag_335:\n        /* \"#utility.yul\":475:724   */\n      swap3\n      swap2\n      pop\n      pop\n      jump\t// out\n        /* \"#utility.yul\":748:997   */\n    tag_318:\n        /* \"#utility.yul\":819:827   */\n      0x00\n        /* \"#utility.yul\":850:856   */\n      dup2\n        /* \"#utility.yul\":838:856   */\n      swap1\n      pop\n        /* \"#utility.yul\":903:906   */\n      dup3\n        /* \"#utility.yul\":895:899   */\n      0x20\n        /* \"#utility.yul\":889:893   */\n      0x05\n        /* \"#utility.yul\":885:900   */\n      mul\n        /* \"#utility.yul\":875:883   */\n      dup3\n        /* \"#utility.yul\":871:901   */\n      add\n        /* \"#utility.yul\":868:907   */\n      gt\n        /* \"#utility.yul\":865:991   */\n      iszero\n      tag_338\n      jumpi\n        /* \"#utility.yul\":910:989   */\n      tag_339\n      tag_316\n      jump\t// in\n    tag_339:\n        /* \"#utility.yul\":865:991   */\n    tag_338:\n        /* \"#utility.yul\":748:997   */\n      swap3\n      swap2\n      pop\n      pop\n      jump\t// out\n        /* \"#utility.yul\":1003:1579   */\n    tag_8:\n        /* \"#utility.yul\":1121:1127   */\n      0x00\n        /* \"#utility.yul\":1129:1135   */\n      0x00\n        /* \"#utility.yul\":1178:1181   */\n      0x01a0\n        /* \"#utility.yul\":1166:1175   */\n      dup4\n        /* \"#utility.yul\":1157:1164   */\n      dup6\n        /* \"#utility.yul\":1153:1176   */\n      sub\n        /* \"#utility.yul\":1149:1182   */\n      slt\n        /* \"#utility.yul\":1146:1266   */\n      iszero\n      tag_341\n      jumpi\n        /* \"#utility.yul\":1185:1264   */\n      tag_342\n      tag_314\n      jump\t// in\n    tag_342:\n        /* \"#utility.yul\":1146:1266   */\n    tag_341:\n        /* \"#utility.yul\":1305:1306   */\n      0x00\n        /* \"#utility.yul\":1330:1408   */\n      tag_343\n        /* \"#utility.yul\":1400:1407   */\n      dup6\n        /* \"#utility.yul\":1391:1397   */\n      dup3\n        /* \"#utility.yul\":1380:1389   */\n      dup7\n        /* \"#utility.yul\":1376:1398   */\n      add\n        /* \"#utility.yul\":1330:1408   */\n      tag_317\n      jump\t// in\n    tag_343:\n        /* \"#utility.yul\":1320:1408   */\n      swap3\n      pop\n        /* \"#utility.yul\":1276:1418   */\n      pop\n        /* \"#utility.yul\":1457:1460   */\n      0x0100\n        /* \"#utility.yul\":1484:1562   */\n      tag_344\n        /* \"#utility.yul\":1554:1561   */\n      dup6\n        /* \"#utility.yul\":1545:1551   */\n      dup3\n        /* \"#utility.yul\":1534:1543   */\n      dup7\n        /* \"#utility.yul\":1530:1552   */\n      add\n        /* \"#utility.yul\":1484:1562   */\n      tag_318\n      jump\t// in\n    tag_344:\n        /* \"#utility.yul\":1474:1562   */\n      swap2\n      pop\n        /* \"#utility.yul\":1428:1572   */\n      pop\n        /* \"#utility.yul\":1003:1579   */\n      swap3\n      pop\n      swap3\n      swap1\n      pop\n      jump\t// out\n        /* \"#utility.yul\":1585:1965   */\n    tag_12:\n        /* \"#utility.yul\":1669:1675   */\n      0x00\n        /* \"#utility.yul\":1718:1721   */\n      0x0100\n        /* \"#utility.yul\":1706:1715   */\n      dup3\n        /* \"#utility.yul\":1697:1704   */\n      dup5\n        /* \"#utility.yul\":1693:1716   */\n      sub\n        /* \"#utility.yul\":1689:1722   */\n      slt\n        /* \"#utility.yul\":1686:1806   */\n      iszero\n      tag_346\n      jumpi\n        /* \"#utility.yul\":1725:1804   */\n      tag_347\n      tag_314\n      jump\t// in\n    tag_347:\n        /* \"#utility.yul\":1686:1806   */\n    tag_346:\n        /* \"#utility.yul\":1845:1846   */\n      0x00\n        /* \"#utility.yul\":1870:1948   */\n      tag_348\n        /* \"#utility.yul\":1940:1947   */\n      dup5\n        /* \"#utility.yul\":1931:1937   */\n      dup3\n        /* \"#utility.yul\":1920:1929   */\n      dup6\n        /* \"#utility.yul\":1916:1938   */\n      add\n        /* \"#utility.yul\":1870:1948   */\n      tag_317\n      jump\t// in\n    tag_348:\n        /* \"#utility.yul\":1860:1948   */\n      swap2\n      pop\n        /* \"#utility.yul\":1816:1958   */\n      pop\n        /* \"#utility.yul\":1585:1965   */\n      swap3\n      swap2\n      pop\n      pop\n      jump\t// out\n        /* \"#utility.yul\":1971:2075   */\n    tag_319:\n        /* \"#utility.yul\":2036:2042   */\n      0x00\n        /* \"#utility.yul\":2064:2068   */\n      0x04\n        /* \"#utility.yul\":2054:2068   */\n      swap1\n      pop\n        /* \"#utility.yul\":1971:2075   */\n      swap2\n      swap1\n      pop\n      jump\t// out\n        /* \"#utility.yul\":2081:2224   */\n    tag_320:\n        /* \"#utility.yul\":2178:2189   */\n      0x00\n        /* \"#utility.yul\":2215:2218   */\n      dup2\n        /* \"#utility.yul\":2200:2218   */\n      swap1\n      pop\n        /* \"#utility.yul\":2081:2224   */\n      swap3\n      swap2\n      pop\n      pop\n      jump\t// out\n        /* \"#utility.yul\":2230:2328   */\n    tag_321:\n        /* \"#utility.yul\":2295:2299   */\n      0x00\n        /* \"#utility.yul\":2318:2321   */\n      dup2\n        /* \"#utility.yul\":2310:2321   */\n      swap1\n      pop\n        /* \"#utility.yul\":2230:2328   */\n      swap2\n      swap1\n      pop\n      jump\t// out\n        /* \"#utility.yul\":2334:2411   */\n    tag_322:\n        /* \"#utility.yul\":2371:2378   */\n      0x00\n        /* \"#utility.yul\":2400:2405   */\n      dup2\n        /* \"#utility.yul\":2389:2405   */\n      swap1\n      pop\n        /* \"#utility.yul\":2334:2411   */\n      swap2\n      swap1\n      pop\n      jump\t// out\n        /* \"#utility.yul\":2417:2525   */\n    tag_323:\n        /* \"#utility.yul\":2494:2518   */\n      tag_354\n        /* \"#utility.yul\":2512:2517   */\n      dup2\n        /* \"#utility.yul\":2494:2518   */\n      tag_322\n      jump\t// in\n    tag_354:\n        /* \"#utility.yul\":2489:2492   */\n      dup3\n        /* \"#utility.yul\":2482:2519   */\n      mstore\n        /* \"#utility.yul\":2417:2525   */\n      pop\n      pop\n      jump\t// out\n        /* \"#utility.yul\":2531:2710   */\n    tag_324:\n        /* \"#utility.yul\":2600:2610   */\n      0x00\n        /* \"#utility.yul\":2621:2667   */\n      tag_356\n        /* \"#utility.yul\":2663:2666   */\n      dup4\n        /* \"#utility.yul\":2655:2661   */\n      dup4\n        /* \"#utility.yul\":2621:2667   */\n      tag_323\n      jump\t// in\n    tag_356:\n        /* \"#utility.yul\":2699:2703   */\n      0x20\n        /* \"#utility.yul\":2694:2697   */\n      dup4\n        /* \"#utility.yul\":2690:2704   */\n      add\n        /* \"#utility.yul\":2676:2704   */\n      swap1\n      pop\n        /* \"#utility.yul\":2531:2710   */\n      swap3\n      swap2\n      pop\n      pop\n      jump\t// out\n        /* \"#utility.yul\":2716:2827   */\n    tag_325:\n        /* \"#utility.yul\":2784:2788   */\n      0x00\n        /* \"#utility.yul\":2816:2820   */\n      0x20\n        /* \"#utility.yul\":2811:2814   */\n      dup3\n        /* \"#utility.yul\":2807:2821   */\n      add\n        /* \"#utility.yul\":2799:2821   */\n      swap1\n      pop\n        /* \"#utility.yul\":2716:2827   */\n      swap2\n      swap1\n      pop\n      jump\t// out\n        /* \"#utility.yul\":2865:3559   */\n    tag_326:\n        /* \"#utility.yul\":3001:3053   */\n      tag_359\n        /* \"#utility.yul\":3047:3052   */\n      dup2\n        /* \"#utility.yul\":3001:3053   */\n      tag_319\n      jump\t// in\n    tag_359:\n        /* \"#utility.yul\":3069:3153   */\n      tag_360\n        /* \"#utility.yul\":3146:3152   */\n      dup2\n        /* \"#utility.yul\":3141:3144   */\n      dup5\n        /* \"#utility.yul\":3069:3153   */\n      tag_320\n      jump\t// in\n    tag_360:\n        /* \"#utility.yul\":3062:3153   */\n      swap3\n      pop\n        /* \"#utility.yul\":3177:3231   */\n      tag_361\n        /* \"#utility.yul\":3225:3230   */\n      dup3\n        /* \"#utility.yul\":3177:3231   */\n      tag_321\n      jump\t// in\n    tag_361:\n        /* \"#utility.yul\":3254:3261   */\n      dup1\n        /* \"#utility.yul\":3285:3286   */\n      0x00\n        /* \"#utility.yul\":3270:3552   */\n    tag_362:\n        /* \"#utility.yul\":3295:3301   */\n      dup4\n        /* \"#utility.yul\":3292:3293   */\n      dup2\n        /* \"#utility.yul\":3289:3302   */\n      lt\n        /* \"#utility.yul\":3270:3552   */\n      iszero\n      tag_364\n      jumpi\n        /* \"#utility.yul\":3371:3377   */\n      dup2\n        /* \"#utility.yul\":3365:3378   */\n      mload\n        /* \"#utility.yul\":3398:3461   */\n      tag_365\n        /* \"#utility.yul\":3457:3460   */\n      dup8\n        /* \"#utility.yul\":3442:3455   */\n      dup3\n        /* \"#utility.yul\":3398:3461   */\n      tag_324\n      jump\t// in\n    tag_365:\n        /* \"#utility.yul\":3391:3461   */\n      swap7\n      pop\n        /* \"#utility.yul\":3484:3542   */\n      tag_366\n        /* \"#utility.yul\":3535:3541   */\n      dup4\n        /* \"#utility.yul\":3484:3542   */\n      tag_325\n      jump\t// in\n    tag_366:\n        /* \"#utility.yul\":3474:3542   */\n      swap3\n      pop\n        /* \"#utility.yul\":3330:3552   */\n      pop\n        /* \"#utility.yul\":3317:3318   */\n      0x01\n        /* \"#utility.yul\":3314:3315   */\n      dup2\n        /* \"#utility.yul\":3310:3319   */\n      add\n        /* \"#utility.yul\":3305:3319   */\n      swap1\n      pop\n        /* \"#utility.yul\":3270:3552   */\n      jump(tag_362)\n    tag_364:\n        /* \"#utility.yul\":3274:3288   */\n      pop\n        /* \"#utility.yul\":2977:3559   */\n      pop\n      pop\n      pop\n        /* \"#utility.yul\":2865:3559   */\n      pop\n      pop\n      jump\t// out\n        /* \"#utility.yul\":3565:3880   */\n    tag_15:\n        /* \"#utility.yul\":3704:3708   */\n      0x00\n        /* \"#utility.yul\":3742:3745   */\n      0x80\n        /* \"#utility.yul\":3731:3740   */\n      dup3\n        /* \"#utility.yul\":3727:3746   */\n      add\n        /* \"#utility.yul\":3719:3746   */\n      swap1\n      pop\n        /* \"#utility.yul\":3756:3873   */\n      tag_368\n        /* \"#utility.yul\":3870:3871   */\n      0x00\n        /* \"#utility.yul\":3859:3868   */\n      dup4\n        /* \"#utility.yul\":3855:3872   */\n      add\n        /* \"#utility.yul\":3846:3852   */\n      dup5\n        /* \"#utility.yul\":3756:3873   */\n      tag_326\n      jump\t// in\n    tag_368:\n        /* \"#utility.yul\":3565:3880   */\n      swap3\n      swap2\n      pop\n      pop\n      jump\t// out\n        /* \"#utility.yul\":3904:4153   */\n    tag_327:\n        /* \"#utility.yul\":3975:3983   */\n      0x00\n        /* \"#utility.yul\":4006:4012   */\n      dup2\n        /* \"#utility.yul\":3994:4012   */\n      swap1\n      pop\n        /* \"#utility.yul\":4059:4062   */\n      dup3\n        /* \"#utility.yul\":4051:4055   */\n      0x20\n        /* \"#utility.yul\":4045:4049   */\n      0x04\n        /* \"#utility.yul\":4041:4056   */\n      mul\n        /* \"#utility.yul\":4031:4039   */\n      dup3\n        /* \"#utility.yul\":4027:4057   */\n      add\n        /* \"#utility.yul\":4024:4063   */\n      gt\n        /* \"#utility.yul\":4021:4147   */\n      iszero\n      tag_370\n      jumpi\n        /* \"#utility.yul\":4066:4145   */\n      tag_371\n      tag_316\n      jump\t// in\n    tag_371:\n        /* \"#utility.yul\":4021:4147   */\n    tag_370:\n        /* \"#utility.yul\":3904:4153   */\n      swap3\n      swap2\n      pop\n      pop\n      jump\t// out\n        /* \"#utility.yul\":4159:4735   */\n    tag_18:\n        /* \"#utility.yul\":4277:4283   */\n      0x00\n        /* \"#utility.yul\":4285:4291   */\n      0x00\n        /* \"#utility.yul\":4334:4337   */\n      0x0120\n        /* \"#utility.yul\":4322:4331   */\n      dup4\n        /* \"#utility.yul\":4313:4320   */\n      dup6\n        /* \"#utility.yul\":4309:4332   */\n      sub\n        /* \"#utility.yul\":4305:4338   */\n      slt\n        /* \"#utility.yul\":4302:4422   */\n      iszero\n      tag_373\n      jumpi\n        /* \"#utility.yul\":4341:4420   */\n      tag_374\n      tag_314\n      jump\t// in\n    tag_374:\n        /* \"#utility.yul\":4302:4422   */\n    tag_373:\n        /* \"#utility.yul\":4461:4462   */\n      0x00\n        /* \"#utility.yul\":4486:4564   */\n      tag_375\n        /* \"#utility.yul\":4556:4563   */\n      dup6\n        /* \"#utility.yul\":4547:4553   */\n      dup3\n        /* \"#utility.yul\":4536:4545   */\n      dup7\n        /* \"#utility.yul\":4532:4554   */\n      add\n        /* \"#utility.yul\":4486:4564   */\n      tag_327\n      jump\t// in\n    tag_375:\n        /* \"#utility.yul\":4476:4564   */\n      swap3\n      pop\n        /* \"#utility.yul\":4432:4574   */\n      pop\n        /* \"#utility.yul\":4613:4616   */\n      0x80\n        /* \"#utility.yul\":4640:4718   */\n      tag_376\n        /* \"#utility.yul\":4710:4717   */\n      dup6\n        /* \"#utility.yul\":4701:4707   */\n      dup3\n        /* \"#utility.yul\":4690:4699   */\n      dup7\n        /* \"#utility.yul\":4686:4708   */\n      add\n        /* \"#utility.yul\":4640:4718   */\n      tag_318\n      jump\t// in\n    tag_376:\n        /* \"#utility.yul\":4630:4718   */\n      swap2\n      pop\n        /* \"#utility.yul\":4584:4728   */\n      pop\n        /* \"#utility.yul\":4159:4735   */\n      swap3\n      pop\n      swap3\n      swap1\n      pop\n      jump\t// out\n        /* \"#utility.yul\":4741:4921   */\n    tag_30:\n        /* \"#utility.yul\":4789:4866   */\n      0x4e487b7100000000000000000000000000000000000000000000000000000000\n        /* \"#utility.yul\":4786:4787   */\n      0x00\n        /* \"#utility.yul\":4779:4867   */\n      mstore\n        /* \"#utility.yul\":4886:4890   */\n      0x32\n        /* \"#utility.yul\":4883:4884   */\n      0x04\n        /* \"#utility.yul\":4876:4891   */\n      mstore\n        /* \"#utility.yul\":4910:4914   */\n      0x24\n        /* \"#utility.yul\":4907:4908   */\n      0x00\n        /* \"#utility.yul\":4900:4915   */\n      revert\n        /* \"#utility.yul\":4927:5107   */\n    tag_138:\n        /* \"#utility.yul\":4975:5052   */\n      0x4e487b7100000000000000000000000000000000000000000000000000000000\n        /* \"#utility.yul\":4972:4973   */\n      0x00\n        /* \"#utility.yul\":4965:5053   */\n      mstore\n        /* \"#utility.yul\":5072:5076   */\n      0x12\n        /* \"#utility.yul\":5069:5070   */\n      0x04\n        /* \"#utility.yul\":5062:5077   */\n      mstore\n        /* \"#utility.yul\":5096:5100   */\n      0x24\n        /* \"#utility.yul\":5093:5094   */\n      0x00\n        /* \"#utility.yul\":5086:5101   */\n      revert\n        /* \"#utility.yul\":5113:5293   */\n    tag_328:\n        /* \"#utility.yul\":5161:5238   */\n      0x4e487b7100000000000000000000000000000000000000000000000000000000\n        /* \"#utility.yul\":5158:5159   */\n      0x00\n        /* \"#utility.yul\":5151:5239   */\n      mstore\n        /* \"#utility.yul\":5258:5262   */\n      0x11\n        /* \"#utility.yul\":5255:5256   */\n      0x04\n        /* \"#utility.yul\":5248:5263   */\n      mstore\n        /* \"#utility.yul\":5282:5286   */\n      0x24\n        /* \"#utility.yul\":5279:5280   */\n      0x00\n        /* \"#utility.yul\":5272:5287   */\n      revert\n        /* \"#utility.yul\":5299:5493   */\n    tag_159:\n        /* \"#utility.yul\":5339:5343   */\n      0x00\n        /* \"#utility.yul\":5359:5379   */\n      tag_381\n        /* \"#utility.yul\":5377:5378   */\n      dup3\n        /* \"#utility.yul\":5359:5379   */\n      tag_322\n      jump\t// in\n    tag_381:\n        /* \"#utility.yul\":5354:5379   */\n      swap2\n      pop\n        /* \"#utility.yul\":5393:5413   */\n      tag_382\n        /* \"#utility.yul\":5411:5412   */\n      dup4\n        /* \"#utility.yul\":5393:5413   */\n      tag_322\n      jump\t// in\n    tag_382:\n        /* \"#utility.yul\":5388:5413   */\n      swap3\n      pop\n        /* \"#utility.yul\":5437:5438   */\n      dup3\n        /* \"#utility.yul\":5434:5435   */\n      dup3\n        /* \"#utility.yul\":5430:5439   */\n      sub\n        /* \"#utility.yul\":5422:5439   */\n      swap1\n      pop\n        /* \"#utility.yul\":5461:5462   */\n      dup2\n        /* \"#utility.yul\":5455:5459   */\n      dup2\n        /* \"#utility.yul\":5452:5463   */\n      gt\n        /* \"#utility.yul\":5449:5486   */\n      iszero\n      tag_383\n      jumpi\n        /* \"#utility.yul\":5466:5484   */\n      tag_384\n      tag_328\n      jump\t// in\n    tag_384:\n        /* \"#utility.yul\":5449:5486   */\n    tag_383:\n        /* \"#utility.yul\":5299:5493   */\n      swap3\n      swap2\n      pop\n      pop\n      jump\t// out\n\n    auxdata: 0xa2646970667358221220352284e746cb77dce0a68c905e43ecbc0e9c02c54fd92e7921e8a66a4912140364736f6c634300081f0033\n}\n",
				"bytecode": {
					"linkReferences": {},
					"object": "6080604052348015600e575f5ffd5b5061229b8061001c5f395ff3fe608060405234801561000f575f5ffd5b506004361061003f575f3560e01c80632a07d99a1461004357806344f636921461005f578063a67086041461008f575b5f5ffd5b61005d60048036038101906100589190612018565b6100ab565b005b61007960048036038101906100749190612058565b610346565b6040516100869190612132565b60405180910390f35b6100a960048036038101906100a4919061216c565b6104a5565b005b5f5f6100b683610a61565b915091505f6040516101008682377f10481ad5b970ba768b0a6a20fdad85a49f78d1f650ae618718c75d026ca241e66101008201527f1e63545cbb6efeefda09620dab83bfb970dc335990740f7112291388cf32a3196101208201527f090a6fd4e1dfe76372ff7113393b0811ff2653fe08daba470858e8b21eabb30e6101408201527f2721f08c6d35190080f877e0369d48e9a21dd70829722da057283b71d81110736101608201527f0c38a5a6331af6508c2c605eb9883bd4ad895e7d8c9a6c23070ef6ae04933b026101808201527f1cbefb0235cfb3bda64ac4d16d0e372cc4348974c11b96b7a61b8ef7ba3539cc6101a08201527f096e386a3cb297307695b7997ac539327e7e0adf37d8b9d3ac30f39cf83650486101c08201527f252ec5ef7eedb90449cf931bff9fb05e9dfba11709c774df7df8aee9493ed0266101e08201527f1a77f95b6692a213f7a8bd8df298fdcb850f05c5053c416462c24af03886ffa56102008201527f20bdd93de013da4035ad73a666b8c13c35e4f9ed54af28db1feefd64d935355461022082015283610240820152826102608201527f30048128b51b2be040694d2c26740dc6561cbbb3da45f55ddcafe0acc699719d6102808201527f2da36ddf8f6b82b19ad1e6c7a137da3d7dab41becddb43af698b8533ebfab3976102a08201527f0cec548663d0b16b39c73bf25641adb96a7e134a97adc503206d9dbfda93af446102c08201527f0e1ac436d54f592cc60e77e2e777709a3cf981ce133afef4403c967c558382456102e08201526020816103008360085afa9150805182169150508061033f576040517f7fcdd1f400000000000000000000000000000000000000000000000000000000815260040160405180910390fd5b5050505050565b61034e611f67565b610387825f60088110610364576103636121ab565b5b60200201358360016008811061037d5761037c6121ab565b5b6020020135610d3d565b815f6004811061039a576103996121ab565b5b60200201818152505061040f826003600881106103ba576103b96121ab565b5b6020020135836002600881106103d3576103d26121ab565b5b6020020135846005600881106103ec576103eb6121ab565b5b602002013585600460088110610405576104046121ab565b5b6020020135610eeb565b82600260048110610423576104226121ab565b5b602002018360016004811061043b5761043a6121ab565b5b6020020182815250828152505050610483826006600881106104605761045f6121ab565b5b602002013583600760088110610479576104786121ab565b5b6020020135610d3d565b81600360048110610497576104966121ab565b5b602002018181525050919050565b6104ad611f89565b5f5f6104cf855f600481106104c5576104c46121ab565b5b60200201356114b7565b915091505f5f5f5f610511896002600481106104ee576104ed6121ab565b5b60200201358a600160048110610507576105066121ab565b5b60200201356115ec565b93509350935093505f5f61053c8b600360048110610532576105316121ab565b5b60200201356114b7565b915091505f5f61054b8c610a61565b91509150898b5f60188110610563576105626121ab565b5b602002018181525050888b600160188110610581576105806121ab565b5b602002018181525050868b60026018811061059f5761059e6121ab565b5b602002018181525050878b6003601881106105bd576105bc6121ab565b5b602002018181525050848b6004601881106105db576105da6121ab565b5b602002018181525050858b6005601881106105f9576105f86121ab565b5b602002018181525050838b600660188110610617576106166121ab565b5b602002018181525050828b600760188110610635576106346121ab565b5b6020020181815250507f10481ad5b970ba768b0a6a20fdad85a49f78d1f650ae618718c75d026ca241e68b600860188110610673576106726121ab565b5b6020020181815250507f1e63545cbb6efeefda09620dab83bfb970dc335990740f7112291388cf32a3198b6009601881106106b1576106b06121ab565b5b6020020181815250507f090a6fd4e1dfe76372ff7113393b0811ff2653fe08daba470858e8b21eabb30e8b600a601881106106ef576106ee6121ab565b5b6020020181815250507f2721f08c6d35190080f877e0369d48e9a21dd70829722da057283b71d81110738b600b6018811061072d5761072c6121ab565b5b6020020181815250507f0c38a5a6331af6508c2c605eb9883bd4ad895e7d8c9a6c23070ef6ae04933b028b600c6018811061076b5761076a6121ab565b5b6020020181815250507f1cbefb0235cfb3bda64ac4d16d0e372cc4348974c11b96b7a61b8ef7ba3539cc8b600d601881106107a9576107a86121ab565b5b6020020181815250507f096e386a3cb297307695b7997ac539327e7e0adf37d8b9d3ac30f39cf83650488b600e601881106107e7576107e66121ab565b5b6020020181815250507f252ec5ef7eedb90449cf931bff9fb05e9dfba11709c774df7df8aee9493ed0268b600f60188110610825576108246121ab565b5b6020020181815250507f1a77f95b6692a213f7a8bd8df298fdcb850f05c5053c416462c24af03886ffa58b601060188110610863576108626121ab565b5b6020020181815250507f20bdd93de013da4035ad73a666b8c13c35e4f9ed54af28db1feefd64d93535548b6011601881106108a1576108a06121ab565b5b602002018181525050818b6012601881106108bf576108be6121ab565b5b602002018181525050808b6013601881106108dd576108dc6121ab565b5b6020020181815250507f30048128b51b2be040694d2c26740dc6561cbbb3da45f55ddcafe0acc699719d8b60146018811061091b5761091a6121ab565b5b6020020181815250507f2da36ddf8f6b82b19ad1e6c7a137da3d7dab41becddb43af698b8533ebfab3978b601560188110610959576109586121ab565b5b6020020181815250507f0cec548663d0b16b39c73bf25641adb96a7e134a97adc503206d9dbfda93af448b601660188110610997576109966121ab565b5b6020020181815250507f0e1ac436d54f592cc60e77e2e777709a3cf981ce133afef4403c967c558382458b6017601881106109d5576109d46121ab565b5b6020020181815250505f6109e7611fac565b6020816103008f60085afa9150811580610a1957506001815f60018110610a1157610a106121ab565b5b602002015114155b15610a50576040517f7fcdd1f400000000000000000000000000000000000000000000000000000000815260040160405180910390fd5b505050505050505050505050505050565b5f5f5f60019050604051604081015f7ea509aed13d925f94102f63c365b02b86d6585d84ce579924775f086dc0323d83527f12ed32cd2af1abf65efd91a4d6564258ff7ff948794d80f6ea40a22f9379c43560208401527f1c730aeca16e6d191f50f440ea5a2946c178263aa0900f03be6d3360cb6fb72c82527f27fd731788de375d25f2fbd58073dc13d824ce9ac5832aac67283a995a30f0e06020830152863590508060408301527f30644e72e131a029b85045b68181585d2833e84879b9709143e1f593f000000181108416935060408260608460075afa8416935060408360808560065afa841693505f82525f6020830152602087013590508060408301527f30644e72e131a029b85045b68181585d2833e84879b9709143e1f593f000000181108416935060408260608460075afa8416935060408360808560065afa841693505f82525f6020830152604087013590508060408301527f30644e72e131a029b85045b68181585d2833e84879b9709143e1f593f000000181108416935060408260608460075afa8416935060408360808560065afa841693505f82525f6020830152606087013590508060408301527f30644e72e131a029b85045b68181585d2833e84879b9709143e1f593f000000181108416935060408260608460075afa8416935060408360808560065afa841693507f2b50e0fe4bf3f5f030637ce43bd901664bda681313677ca70b469a38b3ea946982527f169311c6878274f1aded2595c02790b8847aeaf7c1dcdc620ee71ad7fb43d7b56020830152608087013590508060408301527f30644e72e131a029b85045b68181585d2833e84879b9709143e1f593f000000181108416935060408260608460075afa8416935060408360808560065afa84169350825195506020830151945050505080610d37576040517fa54f8e2700000000000000000000000000000000000000000000000000000000815260040160405180910390fd5b50915091565b5f7f30644e72e131a029b85045b68181585d97816a916871ca8d3c208c16d87cfd4783101580610d8d57507f30644e72e131a029b85045b68181585d97816a916871ca8d3c208c16d87cfd478210155b15610dc4576040517f7fcdd1f400000000000000000000000000000000000000000000000000000000815260040160405180910390fd5b5f83148015610dd257505f82145b15610ddf575f9050610ee5565b5f610e7d7f30644e72e131a029b85045b68181585d97816a916871ca8d3c208c16d87cfd4780610e1257610e116121d8565b5b60037f30644e72e131a029b85045b68181585d97816a916871ca8d3c208c16d87cfd4780610e4357610e426121d8565b5b877f30644e72e131a029b85045b68181585d97816a916871ca8d3c208c16d87cfd4780610e7357610e726121d8565b5b898a0909086119c7565b9050808303610e95575f600185901b17915050610ee5565b610e9e81611a63565b8303610eb35760018085901b17915050610ee5565b6040517f7fcdd1f400000000000000000000000000000000000000000000000000000000815260040160405180910390fd5b92915050565b5f5f7f30644e72e131a029b85045b68181585d97816a916871ca8d3c208c16d87cfd4786101580610f3c57507f30644e72e131a029b85045b68181585d97816a916871ca8d3c208c16d87cfd478510155b80610f6757507f30644e72e131a029b85045b68181585d97816a916871ca8d3c208c16d87cfd478410155b80610f9257507f30644e72e131a029b85045b68181585d97816a916871ca8d3c208c16d87cfd478310155b15610fc9576040517f7fcdd1f400000000000000000000000000000000000000000000000000000000815260040160405180910390fd5b5f8385878917171703610fe1575f5f915091506114ae565b5f5f5f7f30644e72e131a029b85045b68181585d97816a916871ca8d3c208c16d87cfd4780611013576110126121d8565b5b60037f30644e72e131a029b85045b68181585d97816a916871ca8d3c208c16d87cfd476110409190612232565b7f30644e72e131a029b85045b68181585d97816a916871ca8d3c208c16d87cfd478061106f5761106e6121d8565b5b8a8c090990505f7f30644e72e131a029b85045b68181585d97816a916871ca8d3c208c16d87cfd47806110a5576110a46121d8565b5b8a7f30644e72e131a029b85045b68181585d97816a916871ca8d3c208c16d87cfd47806110d5576110d46121d8565b5b8c8d090990505f7f30644e72e131a029b85045b68181585d97816a916871ca8d3c208c16d87cfd478061110b5761110a6121d8565b5b8a7f30644e72e131a029b85045b68181585d97816a916871ca8d3c208c16d87cfd478061113b5761113a6121d8565b5b8c8d090990507f30644e72e131a029b85045b68181585d97816a916871ca8d3c208c16d87cfd47806111705761116f6121d8565b5b7f30644e72e131a029b85045b68181585d97816a916871ca8d3c208c16d87cfd478061119f5761119e6121d8565b5b7f30644e72e131a029b85045b68181585d97816a916871ca8d3c208c16d87cfd47806111ce576111cd6121d8565b5b8c860984087f2b149d40ceb8aaae81be18991be06ac3b5b4c5e559dbefa33267e6dc24a138e50894506112b37f30644e72e131a029b85045b68181585d97816a916871ca8d3c208c16d87cfd4780611229576112286121d8565b5b7f30644e72e131a029b85045b68181585d97816a916871ca8d3c208c16d87cfd4780611258576112576121d8565b5b7f30644e72e131a029b85045b68181585d97816a916871ca8d3c208c16d87cfd4780611287576112866121d8565b5b8e870984087f2fcd3ac2a640a154eb23960892a85a68f031ca0c8344b23a577dcf1052b9e77508611a63565b93505050505f5f6113567f30644e72e131a029b85045b68181585d97816a916871ca8d3c208c16d87cfd47806112ec576112eb6121d8565b5b7f30644e72e131a029b85045b68181585d97816a916871ca8d3c208c16d87cfd478061131b5761131a6121d8565b5b8586097f30644e72e131a029b85045b68181585d97816a916871ca8d3c208c16d87cfd478061134d5761134c6121d8565b5b878809086119c7565b90506113e37f30644e72e131a029b85045b68181585d97816a916871ca8d3c208c16d87cfd478061138a576113896121d8565b5b7f183227397098d014dc2822db40c0ac2ecbc0b548b438e5469e10460b6c3e7ea47f30644e72e131a029b85045b68181585d97816a916871ca8d3c208c16d87cfd47806113da576113d96121d8565b5b84880809611ace565b159150506113f2838383611b38565b8093508194505050828714801561140857508186145b15611430575f81611419575f61141c565b60025b60ff1660028b901b171794508793506114aa565b61143983611a63565b8714801561144e575061144b82611a63565b86145b1561147757600181611460575f611463565b60025b60ff1660028b901b171794508793506114a9565b6040517f7fcdd1f400000000000000000000000000000000000000000000000000000000815260040160405180910390fd5b5b5050505b94509492505050565b5f5f5f83036114cb575f5f915091506115e7565b5f6001808516149050600184901c92507f30644e72e131a029b85045b68181585d97816a916871ca8d3c208c16d87cfd478310611534576040517f7fcdd1f400000000000000000000000000000000000000000000000000000000815260040160405180910390fd5b6115d17f30644e72e131a029b85045b68181585d97816a916871ca8d3c208c16d87cfd4780611566576115656121d8565b5b60037f30644e72e131a029b85045b68181585d97816a916871ca8d3c208c16d87cfd4780611597576115966121d8565b5b867f30644e72e131a029b85045b68181585d97816a916871ca8d3c208c16d87cfd47806115c7576115c66121d8565b5b88890909086119c7565b915080156115e5576115e282611a63565b91505b505b915091565b5f5f5f5f5f861480156115fe57505f85145b15611614575f5f5f5f93509350935093506119be565b5f60018088161490505f6002808916149050600288901c95508694507f30644e72e131a029b85045b68181585d97816a916871ca8d3c208c16d87cfd478610158061167f57507f30644e72e131a029b85045b68181585d97816a916871ca8d3c208c16d87cfd478510155b156116b6576040517f7fcdd1f400000000000000000000000000000000000000000000000000000000815260040160405180910390fd5b5f7f30644e72e131a029b85045b68181585d97816a916871ca8d3c208c16d87cfd47806116e6576116e56121d8565b5b60037f30644e72e131a029b85045b68181585d97816a916871ca8d3c208c16d87cfd476117139190612232565b7f30644e72e131a029b85045b68181585d97816a916871ca8d3c208c16d87cfd4780611742576117416121d8565b5b888a090990505f7f30644e72e131a029b85045b68181585d97816a916871ca8d3c208c16d87cfd4780611778576117776121d8565b5b887f30644e72e131a029b85045b68181585d97816a916871ca8d3c208c16d87cfd47806117a8576117a76121d8565b5b8a8b090990505f7f30644e72e131a029b85045b68181585d97816a916871ca8d3c208c16d87cfd47806117de576117dd6121d8565b5b887f30644e72e131a029b85045b68181585d97816a916871ca8d3c208c16d87cfd478061180e5761180d6121d8565b5b8a8b090990507f30644e72e131a029b85045b68181585d97816a916871ca8d3c208c16d87cfd4780611843576118426121d8565b5b7f30644e72e131a029b85045b68181585d97816a916871ca8d3c208c16d87cfd4780611872576118716121d8565b5b7f30644e72e131a029b85045b68181585d97816a916871ca8d3c208c16d87cfd47806118a1576118a06121d8565b5b8a860984087f2b149d40ceb8aaae81be18991be06ac3b5b4c5e559dbefa33267e6dc24a138e50896506119867f30644e72e131a029b85045b68181585d97816a916871ca8d3c208c16d87cfd47806118fc576118fb6121d8565b5b7f30644e72e131a029b85045b68181585d97816a916871ca8d3c208c16d87cfd478061192b5761192a6121d8565b5b7f30644e72e131a029b85045b68181585d97816a916871ca8d3c208c16d87cfd478061195a576119596121d8565b5b8c870984087f2fcd3ac2a640a154eb23960892a85a68f031ca0c8344b23a577dcf1052b9e77508611a63565b9550611993878786611b38565b809750819850505084156119b8576119aa87611a63565b96506119b586611a63565b95505b50505050505b92959194509250565b5f6119f2827f0c19139cb84c680a6e14116da060561765e05aa45a1c72a34f082305b61f3f52611e33565b9050817f30644e72e131a029b85045b68181585d97816a916871ca8d3c208c16d87cfd4780611a2457611a236121d8565b5b82830914611a5e576040517f7fcdd1f400000000000000000000000000000000000000000000000000000000815260040160405180910390fd5b919050565b5f7f30644e72e131a029b85045b68181585d97816a916871ca8d3c208c16d87cfd47808381611a9557611a946121d8565b5b067f30644e72e131a029b85045b68181585d97816a916871ca8d3c208c16d87cfd470381611ac657611ac56121d8565b5b069050919050565b5f5f611afa837f0c19139cb84c680a6e14116da060561765e05aa45a1c72a34f082305b61f3f52611e33565b9050827f30644e72e131a029b85045b68181585d97816a916871ca8d3c208c16d87cfd4780611b2c57611b2b6121d8565b5b82830914915050919050565b5f5f5f611bd77f30644e72e131a029b85045b68181585d97816a916871ca8d3c208c16d87cfd4780611b6d57611b6c6121d8565b5b7f30644e72e131a029b85045b68181585d97816a916871ca8d3c208c16d87cfd4780611b9c57611b9b6121d8565b5b8788097f30644e72e131a029b85045b68181585d97816a916871ca8d3c208c16d87cfd4780611bce57611bcd6121d8565b5b898a09086119c7565b90508315611beb57611be881611a63565b90505b611c767f30644e72e131a029b85045b68181585d97816a916871ca8d3c208c16d87cfd4780611c1d57611c1c6121d8565b5b7f183227397098d014dc2822db40c0ac2ecbc0b548b438e5469e10460b6c3e7ea47f30644e72e131a029b85045b68181585d97816a916871ca8d3c208c16d87cfd4780611c6d57611c6c6121d8565b5b848a08096119c7565b92507f30644e72e131a029b85045b68181585d97816a916871ca8d3c208c16d87cfd4780611ca757611ca66121d8565b5b611ce27f30644e72e131a029b85045b68181585d97816a916871ca8d3c208c16d87cfd4780611cd957611cd86121d8565b5b60028609611eca565b860991507f30644e72e131a029b85045b68181585d97816a916871ca8d3c208c16d87cfd4780611d1557611d146121d8565b5b611d4f7f30644e72e131a029b85045b68181585d97816a916871ca8d3c208c16d87cfd4780611d4757611d466121d8565b5b848509611a63565b7f30644e72e131a029b85045b68181585d97816a916871ca8d3c208c16d87cfd4780611d7e57611d7d6121d8565b5b8586090886141580611df357507f30644e72e131a029b85045b68181585d97816a916871ca8d3c208c16d87cfd4780611dba57611db96121d8565b5b7f30644e72e131a029b85045b68181585d97816a916871ca8d3c208c16d87cfd4780611de957611de86121d8565b5b8385096002098514155b15611e2a576040517f7fcdd1f400000000000000000000000000000000000000000000000000000000815260040160405180910390fd5b50935093915050565b5f5f60405160208152602080820152602060408201528460608201528360808201527f30644e72e131a029b85045b68181585d97816a916871ca8d3c208c16d87cfd4760a082015260208160c08360055afa9150805192505080611ec3576040517f7fcdd1f400000000000000000000000000000000000000000000000000000000815260040160405180910390fd5b5092915050565b5f611ef5827f30644e72e131a029b85045b68181585d97816a916871ca8d3c208c16d87cfd45611e33565b905060017f30644e72e131a029b85045b68181585d97816a916871ca8d3c208c16d87cfd4780611f2857611f276121d8565b5b82840914611f62576040517f7fcdd1f400000000000000000000000000000000000000000000000000000000815260040160405180910390fd5b919050565b6040518060800160405280600490602082028036833780820191505090505090565b604051806103000160405280601890602082028036833780820191505090505090565b6040518060200160405280600190602082028036833780820191505090505090565b5f5ffd5b5f5ffd5b5f81905082602060080282011115611ff157611ff0611fd2565b5b92915050565b5f8190508260206005028201111561201257612011611fd2565b5b92915050565b5f5f6101a0838503121561202f5761202e611fce565b5b5f61203c85828601611fd6565b92505061010061204e85828601611ff7565b9150509250929050565b5f610100828403121561206e5761206d611fce565b5b5f61207b84828501611fd6565b91505092915050565b5f60049050919050565b5f81905092915050565b5f819050919050565b5f819050919050565b6120b3816120a1565b82525050565b5f6120c483836120aa565b60208301905092915050565b5f602082019050919050565b6120e581612084565b6120ef818461208e565b92506120fa82612098565b805f5b8381101561212a57815161211187826120b9565b965061211c836120d0565b9250506001810190506120fd565b505050505050565b5f6080820190506121455f8301846120dc565b92915050565b5f8190508260206004028201111561216657612165611fd2565b5b92915050565b5f5f610120838503121561218357612182611fce565b5b5f6121908582860161214b565b92505060806121a185828601611ff7565b9150509250929050565b7f4e487b71000000000000000000000000000000000000000000000000000000005f52603260045260245ffd5b7f4e487b71000000000000000000000000000000000000000000000000000000005f52601260045260245ffd5b7f4e487b71000000000000000000000000000000000000000000000000000000005f52601160045260245ffd5b5f61223c826120a1565b9150612247836120a1565b925082820390508181111561225f5761225e612205565b5b9291505056fea2646970667358221220352284e746cb77dce0a68c905e43ecbc0e9c02c54fd92e7921e8a66a4912140364736f6c634300081f0033",
					"opcodes": "PUSH1 0x80 PUSH1 0x40 MSTORE CALLVALUE DUP1 ISZERO PUSH1 0xE JUMPI PUSH0 PUSH0 REVERT JUMPDEST POP PUSH2 0x229B DUP1 PUSH2 0x1C PUSH0 CODECOPY PUSH0 RETURN INVALID PUSH1 0x80 PUSH1 0x40 MSTORE CALLVALUE DUP1 ISZERO PUSH2 0xF JUMPI PUSH0 PUSH0 REVERT JUMPDEST POP PUSH1 0x4 CALLDATASIZE LT PUSH2 0x3F JUMPI PUSH0 CALLDATALOAD PUSH1 0xE0 SHR DUP1 PUSH4 0x2A07D99A EQ PUSH2 0x43 JUMPI DUP1 PUSH4 0x44F63692 EQ PUSH2 0x5F JUMPI DUP1 PUSH4 0xA6708604 EQ PUSH2 0x8F JUMPI JUMPDEST PUSH0 PUSH0 REVERT JUMPDEST PUSH2 0x5D PUSH1 0x4 DUP1 CALLDATASIZE SUB DUP2 ADD SWAP1 PUSH2 0x58 SWAP2 SWAP1 PUSH2 0x2018 JUMP JUMPDEST PUSH2 0xAB JUMP JUMPDEST STOP JUMPDEST PUSH2 0x79 PUSH1 0x4 DUP1 CALLDATASIZE SUB DUP2 ADD SWAP1 PUSH2 0x74 SWAP2 SWAP1 PUSH2 0x2058 JUMP JUMPDEST PUSH2 0x346 JUMP JUMPDEST PUSH1 0x40 MLOAD PUSH2 0x86 SWAP2 SWAP1 PUSH2 0x2132 JUMP JUMPDEST PUSH1 0x40 MLOAD DUP1 SWAP2 SUB SWAP1 RETURN JUMPDEST PUSH2 0xA9 PUSH1 0x4 DUP1 CALLDATASIZE SUB DUP2 ADD SWAP1 PUSH2 0xA4 SWAP2 SWAP1 PUSH2 0x216C JUMP JUMPDEST PUSH2 0x4A5 JUMP JUMPDEST STOP JUMPDEST PUSH0 PUSH0 PUSH2 0xB6 DUP4 PUSH2 0xA61 JUMP JUMPDEST SWAP2 POP SWAP2 POP PUSH0 PUSH1 0x40 MLOAD PUSH2 0x100 DUP7 DUP3 CALLDATACOPY PUSH32 0x10481AD5B970BA768B0A6A20FDAD85A49F78D1F650AE618718C75D026CA241E6 PUSH2 0x100 DUP3 ADD MSTORE PUSH32 0x1E63545CBB6EFEEFDA09620DAB83BFB970DC335990740F7112291388CF32A319 PUSH2 0x120 DUP3 ADD MSTORE PUSH32 0x90A6FD4E1DFE76372FF7113393B0811FF2653FE08DABA470858E8B21EABB30E PUSH2 0x140 DUP3 ADD MSTORE PUSH32 0x2721F08C6D35190080F877E0369D48E9A21DD70829722DA057283B71D8111073 PUSH2 0x160 DUP3 ADD MSTORE PUSH32 0xC38A5A6331AF6508C2C605EB9883BD4AD895E7D8C9A6C23070EF6AE04933B02 PUSH2 0x180 DUP3 ADD MSTORE PUSH32 0x1CBEFB0235CFB3BDA64AC4D16D0E372CC4348974C11B96B7A61B8EF7BA3539CC PUSH2 0x1A0 DUP3 ADD MSTORE PUSH32 0x96E386A3CB297307695B7997AC539327E7E0ADF37D8B9D3AC30F39CF8365048 PUSH2 0x1C0 DUP3 ADD MSTORE PUSH32 0x252EC5EF7EEDB90449CF931BFF9FB05E9DFBA11709C774DF7DF8AEE9493ED026 PUSH2 0x1E0 DUP3 ADD MSTORE PUSH32 0x1A77F95B6692A213F7A8BD8DF298FDCB850F05C5053C416462C24AF03886FFA5 PUSH2 0x200 DUP3 ADD MSTORE PUSH32 0x20BDD93DE013DA4035AD73A666B8C13C35E4F9ED54AF28DB1FEEFD64D9353554 PUSH2 0x220 DUP3 ADD MSTORE DUP4 PUSH2 0x240 DUP3 ADD MSTORE DUP3 PUSH2 0x260 DUP3 ADD MSTORE PUSH32 0x30048128B51B2BE040694D2C26740DC6561CBBB3DA45F55DDCAFE0ACC699719D PUSH2 0x280 DUP3 ADD MSTORE PUSH32 0x2DA36DDF8F6B82B19AD1E6C7A137DA3D7DAB41BECDDB43AF698B8533EBFAB397 PUSH2 0x2A0 DUP3 ADD MSTORE PUSH32 0xCEC548663D0B16B39C73BF25641ADB96A7E134A97ADC503206D9DBFDA93AF44 PUSH2 0x2C0 DUP3 ADD MSTORE PUSH32 0xE1AC436D54F592CC60E77E2E777709A3CF981CE133AFEF4403C967C55838245 PUSH2 0x2E0 DUP3 ADD MSTORE PUSH1 0x20 DUP2 PUSH2 0x300 DUP4 PUSH1 0x8 GAS STATICCALL SWAP2 POP DUP1 MLOAD DUP3 AND SWAP2 POP POP DUP1 PUSH2 0x33F JUMPI PUSH1 0x40 MLOAD PUSH32 0x7FCDD1F400000000000000000000000000000000000000000000000000000000 DUP2 MSTORE PUSH1 0x4 ADD PUSH1 0x40 MLOAD DUP1 SWAP2 SUB SWAP1 REVERT JUMPDEST POP POP POP POP POP JUMP JUMPDEST PUSH2 0x34E PUSH2 0x1F67 JUMP JUMPDEST PUSH2 0x387 DUP3 PUSH0 PUSH1 0x8 DUP2 LT PUSH2 0x364 JUMPI PUSH2 0x363 PUSH2 0x21AB JUMP JUMPDEST JUMPDEST PUSH1 0x20 MUL ADD CALLDATALOAD DUP4 PUSH1 0x1 PUSH1 0x8 DUP2 LT PUSH2 0x37D JUMPI PUSH2 0x37C PUSH2 0x21AB JUMP JUMPDEST JUMPDEST PUSH1 0x20 MUL ADD CALLDATALOAD PUSH2 0xD3D JUMP JUMPDEST DUP2 PUSH0 PUSH1 0x4 DUP2 LT PUSH2 0x39A JUMPI PUSH2 0x399 PUSH2 0x21AB JUMP JUMPDEST JUMPDEST PUSH1 0x20 MUL ADD DUP2 DUP2 MSTORE POP POP PUSH2 0x40F DUP3 PUSH1 0x3 PUSH1 0x8 DUP2 LT PUSH2 0x3BA JUMPI PUSH2 0x3B9 PUSH2 0x21AB JUMP JUMPDEST JUMPDEST PUSH1 0x20 MUL ADD CALLDATALOAD DUP4 PUSH1 0x2 PUSH1 0x8 DUP2 LT PUSH2 0x3D3 JUMPI PUSH2 0x3D2 PUSH2 0x21AB JUMP JUMPDEST JUMPDEST PUSH1 0x20 MUL ADD CALLDATALOAD DUP5 PUSH1 0x5 PUSH1 0x8 DUP2 LT PUSH2 0x3EC JUMPI PUSH2 0x3EB PUSH2 0x21AB JUMP JUMPDEST JUMPDEST PUSH1 0x20 MUL ADD CALLDATALOAD DUP6 PUSH1 0x4 PUSH1 0x8 DUP2 LT PUSH2 0x405 JUMPI PUSH2 0x404 PUSH2 0x21AB JUMP JUMPDEST JUMPDEST PUSH1 0x20 MUL ADD CALLDATALOAD PUSH2 0xEEB JUMP JUMPDEST DUP3 PUSH1 0x2 PUSH1 0x4 DUP2 LT PUSH2 0x423 JUMPI PUSH2 0x422 PUSH2 0x21AB JUMP JUMPDEST JUMPDEST PUSH1 0x20 MUL ADD DUP4 PUSH1 0x1 PUSH1 0x4 DUP2 LT PUSH2 0x43B JUMPI PUSH2 0x43A PUSH2 0x21AB JUMP JUMPDEST JUMPDEST PUSH1 0x20 MUL ADD DUP3 DUP2 MSTORE POP DUP3 DUP2 MSTORE POP POP POP PUSH2 0x483 DUP3 PUSH1 0x6 PUSH1 0x8 DUP2 LT PUSH2 0x460 JUMPI PUSH2 0x45F PUSH2 0x21AB JUMP JUMPDEST JUMPDEST PUSH1 0x20 MUL ADD CALLDATALOAD DUP4 PUSH1 0x7 PUSH1 0x8 DUP2 LT PUSH2 0x479 JUMPI PUSH2 0x478 PUSH2 0x21AB JUMP JUMPDEST JUMPDEST PUSH1 0x20 MUL ADD CALLDATALOAD PUSH2 0xD3D JUMP JUMPDEST DUP2 PUSH1 0x3 PUSH1 0x4 DUP2 LT PUSH2 0x497 JUMPI PUSH2 0x496 PUSH2 0x21AB JUMP JUMPDEST JUMPDEST PUSH1 0x20 MUL ADD DUP2 DUP2 MSTORE POP POP SWAP2 SWAP1 POP JUMP JUMPDEST PUSH2 0x4AD PUSH2 0x1F89 JUMP JUMPDEST PUSH0 PUSH0 PUSH2 0x4CF DUP6 PUSH0 PUSH1 0x4 DUP2 LT PUSH2 0x4C5 JUMPI PUSH2 0x4C4 PUSH2 0x21AB JUMP JUMPDEST JUMPDEST PUSH1 0x20 MUL ADD CALLDATALOAD PUSH2 0x14B7 JUMP JUMPDEST SWAP2 POP SWAP2 POP PUSH0 PUSH0 PUSH0 PUSH0 PUSH2 0x511 DUP10 PUSH1 0x2 PUSH1 0x4 DUP2 LT PUSH2 0x4EE JUMPI PUSH2 0x4ED PUSH2 0x21AB JUMP JUMPDEST JUMPDEST PUSH1 0x20 MUL ADD CALLDATALOAD DUP11 PUSH1 0x1 PUSH1 0x4 DUP2 LT PUSH2 0x507 JUMPI PUSH2 0x506 PUSH2 0x21AB JUMP JUMPDEST JUMPDEST PUSH1 0x20 MUL ADD CALLDATALOAD PUSH2 0x15EC JUMP JUMPDEST SWAP4 POP SWAP4 POP SWAP4 POP SWAP4 POP PUSH0 PUSH0 PUSH2 0x53C DUP12 PUSH1 0x3 PUSH1 0x4 DUP2 LT PUSH2 0x532 JUMPI PUSH2 0x531 PUSH2 0x21AB JUMP JUMPDEST JUMPDEST PUSH1 0x20 MUL ADD CALLDATALOAD PUSH2 0x14B7 JUMP JUMPDEST SWAP2 POP SWAP2 POP PUSH0 PUSH0 PUSH2 0x54B DUP13 PUSH2 0xA61 JUMP JUMPDEST SWAP2 POP SWAP2 POP DUP10 DUP12 PUSH0 PUSH1 0x18 DUP2 LT PUSH2 0x563 JUMPI PUSH2 0x562 PUSH2 0x21AB JUMP JUMPDEST JUMPDEST PUSH1 0x20 MUL ADD DUP2 DUP2 MSTORE POP POP DUP9 DUP12 PUSH1 0x1 PUSH1 0x18 DUP2 LT PUSH2 0x581 JUMPI PUSH2 0x580 PUSH2 0x21AB JUMP JUMPDEST JUMPDEST PUSH1 0x20 MUL ADD DUP2 DUP2 MSTORE POP POP DUP7 DUP12 PUSH1 0x2 PUSH1 0x18 DUP2 LT PUSH2 0x59F JUMPI PUSH2 0x59E PUSH2 0x21AB JUMP JUMPDEST JUMPDEST PUSH1 0x20 MUL ADD DUP2 DUP2 MSTORE POP POP DUP8 DUP12 PUSH1 0x3 PUSH1 0x18 DUP2 LT PUSH2 0x5BD JUMPI PUSH2 0x5BC PUSH2 0x21AB JUMP JUMPDEST JUMPDEST PUSH1 0x20 MUL ADD DUP2 DUP2 MSTORE POP POP DUP5 DUP12 PUSH1 0x4 PUSH1 0x18 DUP2 LT PUSH2 0x5DB JUMPI PUSH2 0x5DA PUSH2 0x21AB JUMP JUMPDEST JUMPDEST PUSH1 0x20 MUL ADD DUP2 DUP2 MSTORE POP POP DUP6 DUP12 PUSH1 0x5 PUSH1 0x18 DUP2 LT PUSH2 0x5F9 JUMPI PUSH2 0x5F8 PUSH2 0x21AB JUMP JUMPDEST JUMPDEST PUSH1 0x20 MUL ADD DUP2 DUP2 MSTORE POP POP DUP4 DUP12 PUSH1 0x6 PUSH1 0x18 DUP2 LT PUSH2 0x617 JUMPI PUSH2 0x616 PUSH2 0x21AB JUMP JUMPDEST JUMPDEST PUSH1 0x20 MUL ADD DUP2 DUP2 MSTORE POP POP DUP3 DUP12 PUSH1 0x7 PUSH1 0x18 DUP2 LT PUSH2 0x635 JUMPI PUSH2 0x634 PUSH2 0x21AB JUMP JUMPDEST JUMPDEST PUSH1 0x20 MUL ADD DUP2 DUP2 MSTORE POP POP PUSH32 0x10481AD5B970BA768B0A6A20FDAD85A49F78D1F650AE618718C75D026CA241E6 DUP12 PUSH1 0x8 PUSH1 0x18 DUP2 LT PUSH2 0x673 JUMPI PUSH2 0x672 PUSH2 0x21AB JUMP JUMPDEST JUMPDEST PUSH1 0x20 MUL ADD DUP2 DUP2 MSTORE POP POP PUSH32 0x1E63545CBB6EFEEFDA09620DAB83BFB970DC335990740F7112291388CF32A319 DUP12 PUSH1 0x9 PUSH1 0x18 DUP2 LT PUSH2 0x6B1 JUMPI PUSH2 0x6B0 PUSH2 0x21AB JUMP JUMPDEST JUMPDEST PUSH1 0x20 MUL ADD DUP2 DUP2 MSTORE POP POP PUSH32 0x90A6FD4E1DFE76372FF7113393B0811FF2653FE08DABA470858E8B21EABB30E DUP12 PUSH1 0xA PUSH1 0x18 DUP2 LT PUSH2 0x6EF JUMPI PUSH2 0x6EE PUSH2 0x21AB JUMP JUMPDEST JUMPDEST PUSH1 0x20 MUL ADD DUP2 DUP2 MSTORE POP POP PUSH32 0x2721F08C6D35190080F877E0369D48E9A21DD70829722DA057283B71D8111073 DUP12 PUSH1 0xB PUSH1 0x18 DUP2 LT PUSH2 0x72D JUMPI PUSH2 0x72C PUSH2 0x21AB JUMP JUMPDEST JUMPDEST PUSH1 0x20 MUL ADD DUP2 DUP2 MSTORE POP POP PUSH32 0xC38A5A6331AF6508C2C605EB9883BD4AD895E7D8C9A6C23070EF6AE04933B02 DUP12 PUSH1 0xC PUSH1 0x18 DUP2 LT PUSH2 0x76B JUMPI PUSH2 0x76A PUSH2 0x21AB JUMP JUMPDEST JUMPDEST PUSH1 0x20 MUL ADD DUP2 DUP2 MSTORE POP POP PUSH32 0x1CBEFB0235CFB3BDA64AC4D16D0E372CC4348974C11B96B7A61B8EF7BA3539CC DUP12 PUSH1 0xD PUSH1 0x18 DUP2 LT PUSH2 0x7A9 JUMPI PUSH2 0x7A8 PUSH2 0x21AB JUMP JUMPDEST JUMPDEST PUSH1 0x20 MUL ADD DUP2 DUP2 MSTORE POP POP PUSH32 0x96E386A3CB297307695B7997AC539327E7E0ADF37D8B9D3AC30F39CF8365048 DUP12 PUSH1 0xE PUSH1 0x18 DUP2 LT PUSH2 0x7E7 JUMPI PUSH2 0x7E6 PUSH2 0x21AB JUMP JUMPDEST JUMPDEST PUSH1 0x20 MUL ADD DUP2 DUP2 MSTORE POP POP PUSH32 0x252EC5EF7EEDB90449CF931BFF9FB05E9DFBA11709C774DF7DF8AEE9493ED026 DUP12 PUSH1 0xF PUSH1 0x18 DUP2 LT PUSH2 0x825 JUMPI PUSH2 0x824 PUSH2 0x21AB JUMP JUMPDEST JUMPDEST PUSH1 0x20 MUL ADD DUP2 DUP2 MSTORE POP POP PUSH32 0x1A77F95B6692A213F7A8BD8DF298FDCB850F05C5053C416462C24AF03886FFA5 DUP12 PUSH1 0x10 PUSH1 0x18 DUP2 LT PUSH2 0x863 JUMPI PUSH2 0x862 PUSH2 0x21AB JUMP JUMPDEST JUMPDEST PUSH1 0x20 MUL ADD DUP2 DUP2 MSTORE POP POP PUSH32 0x20BDD93DE013DA4035AD73A666B8C13C35E4F9ED54AF28DB1FEEFD64D9353554 DUP12 PUSH1 0x11 PUSH1 0x18 DUP2 LT PUSH2 0x8A1 JUMPI PUSH2 0x8A0 PUSH2 0x21AB JUMP JUMPDEST JUMPDEST PUSH1 0x20 MUL ADD DUP2 DUP2 MSTORE POP POP DUP2 DUP12 PUSH1 0x12 PUSH1 0x18 DUP2 LT PUSH2 0x8BF JUMPI PUSH2 0x8BE PUSH2 0x21AB JUMP JUMPDEST JUMPDEST PUSH1 0x20 MUL ADD DUP2 DUP2 MSTORE POP POP DUP1 DUP12 PUSH1 0x13 PUSH1 0x18 DUP2 LT PUSH2 0x8DD JUMPI PUSH2 0x8DC PUSH2 0x21AB JUMP JUMPDEST JUMPDEST PUSH1 0x20 MUL ADD DUP2 DUP2 MSTORE POP POP PUSH32 0x30048128B51B2BE040694D2C26740DC6561CBBB3DA45F55DDCAFE0ACC699719D DUP12 PUSH1 0x14 PUSH1 0x18 DUP2 LT PUSH2 0x91B JUMPI PUSH2 0x91A PUSH2 0x21AB JUMP JUMPDEST JUMPDEST PUSH1 0x20 MUL ADD DUP2 DUP2 MSTORE POP POP PUSH32 0x2DA36DDF8F6B82B19AD1E6C7A137DA3D7DAB41BECDDB43AF698B8533EBFAB397 DUP12 PUSH1 0x15 PUSH1 0x18 DUP2 LT PUSH2 0x959 JUMPI PUSH2 0x958 PUSH2 0x21AB JUMP JUMPDEST JUMPDEST PUSH1 0x20 MUL ADD DUP2 DUP2 MSTORE POP POP PUSH32 0xCEC548663D0B16B39C73BF25641ADB96A7E134A97ADC503206D9DBFDA93AF44 DUP12 PUSH1 0x16 PUSH1 0x18 DUP2 LT PUSH2 0x997 JUMPI PUSH2 0x996 PUSH2 0x21AB JUMP JUMPDEST JUMPDEST PUSH1 0x20 MUL ADD DUP2 DUP2 MSTORE POP POP PUSH32 0xE1AC436D54F592CC60E77E2E777709A3CF981CE133AFEF4403C967C55838245 DUP12 PUSH1 0x17 PUSH1 0x18 DUP2 LT PUSH2 0x9D5 JUMPI PUSH2 0x9D4 PUSH2 0x21AB JUMP JUMPDEST JUMPDEST PUSH1 0x20 MUL ADD DUP2 DUP2 MSTORE POP POP PUSH0 PUSH2 0x9E7 PUSH2 0x1FAC JUMP JUMPDEST PUSH1 0x20 DUP2 PUSH2 0x300 DUP16 PUSH1 0x8 GAS STATICCALL SWAP2 POP DUP2 ISZERO DUP1 PUSH2 0xA19 JUMPI POP PUSH1 0x1 DUP2 PUSH0 PUSH1 0x1 DUP2 LT PUSH2 0xA11 JUMPI PUSH2 0xA10 PUSH2 0x21AB JUMP JUMPDEST JUMPDEST PUSH1 0x20 MUL ADD MLOAD EQ ISZERO JUMPDEST ISZERO PUSH2 0xA50 JUMPI PUSH1 0x40 MLOAD PUSH32 0x7FCDD1F400000000000000000000000000000000000000000000000000000000 DUP2 MSTORE PUSH1 0x4 ADD PUSH1 0x40 MLOAD DUP1 SWAP2 SUB SWAP1 REVERT JUMPDEST POP POP POP POP POP POP POP POP POP POP POP POP POP POP POP JUMP JUMPDEST PUSH0 PUSH0 PUSH0 PUSH1 0x1 SWAP1 POP PUSH1 0x40 MLOAD PUSH1 0x40 DUP2 ADD PUSH0 PUSH31 0xA509AED13D925F94102F63C365B02B86D6585D84CE579924775F086DC0323D DUP4 MSTORE PUSH32 0x12ED32CD2AF1ABF65EFD91A4D6564258FF7FF948794D80F6EA40A22F9379C435 PUSH1 0x20 DUP5 ADD MSTORE PUSH32 0x1C730AECA16E6D191F50F440EA5A2946C178263AA0900F03BE6D3360CB6FB72C DUP3 MSTORE PUSH32 0x27FD731788DE375D25F2FBD58073DC13D824CE9AC5832AAC67283A995A30F0E0 PUSH1 0x20 DUP4 ADD MSTORE DUP7 CALLDATALOAD SWAP1 POP DUP1 PUSH1 0x40 DUP4 ADD MSTORE PUSH32 0x30644E72E131A029B85045B68181585D2833E84879B9709143E1F593F0000001 DUP2 LT DUP5 AND SWAP4 POP PUSH1 0x40 DUP3 PUSH1 0x60 DUP5 PUSH1 0x7 GAS STATICCALL DUP5 AND SWAP4 POP PUSH1 0x40 DUP4 PUSH1 0x80 DUP6 PUSH1 0x6 GAS STATICCALL DUP5 AND SWAP4 POP PUSH0 DUP3 MSTORE PUSH0 PUSH1 0x20 DUP4 ADD MSTORE PUSH1 0x20 DUP8 ADD CALLDATALOAD SWAP1 POP DUP1 PUSH1 0x40 DUP4 ADD MSTORE PUSH32 0x30644E72E131A029B85045B68181585D2833E84879B9709143E1F593F0000001 DUP2 LT DUP5 AND SWAP4 POP PUSH1 0x40 DUP3 PUSH1 0x60 DUP5 PUSH1 0x7 GAS STATICCALL DUP5 AND SWAP4 POP PUSH1 0x40 DUP4 PUSH1 0x80 DUP6 PUSH1 0x6 GAS STATICCALL DUP5 AND SWAP4 POP PUSH0 DUP3 MSTORE PUSH0 PUSH1 0x20 DUP4 ADD MSTORE PUSH1 0x40 DUP8 ADD CALLDATALOAD SWAP1 POP DUP1 PUSH1 0x40 DUP4 ADD MSTORE PUSH32 0x30644E72E131A029B85045B68181585D2833E84879B9709143E1F593F0000001 DUP2 LT DUP5 AND SWAP4 POP PUSH1 0x40 DUP3 PUSH1 0x60 DUP5 PUSH1 0x7 GAS STATICCALL DUP5 AND SWAP4 POP PUSH1 0x40 DUP4 PUSH1 0x80 DUP6 PUSH1 0x6 GAS STATICCALL DUP5 AND SWAP4 POP PUSH0 DUP3 MSTORE PUSH0 PUSH1 0x20 DUP4 ADD MSTORE PUSH1 0x60 DUP8 ADD CALLDATALOAD SWAP1 POP DUP1 PUSH1 0x40 DUP4 ADD MSTORE PUSH32 0x30644E72E131A029B85045B68181585D2833E84879B9709143E1F593F0000001 DUP2 LT DUP5 AND SWAP4 POP PUSH1 0x40 DUP3 PUSH1 0x60 DUP5 PUSH1 0x7 GAS STATICCALL DUP5 AND SWAP4 POP PUSH1 0x40 DUP4 PUSH1 0x80 DUP6 PUSH1 0x6 GAS STATICCALL DUP5 AND SWAP4 POP PUSH32 0x2B50E0FE4BF3F5F030637CE43BD901664BDA681313677CA70B469A38B3EA9469 DUP3 MSTORE PUSH32 0x169311C6878274F1ADED2595C02790B8847AEAF7C1DCDC620EE71AD7FB43D7B5 PUSH1 0x20 DUP4 ADD MSTORE PUSH1 0x80 DUP8 ADD CALLDATALOAD SWAP1 POP DUP1 PUSH1 0x40 DUP4 ADD MSTORE PUSH32 0x30644E72E131A029B85045B68181585D2833E84879B9709143E1F593F0000001 DUP2 LT DUP5 AND SWAP4 POP PUSH1 0x40 DUP3 PUSH1 0x60 DUP5 PUSH1 0x7 GAS STATICCALL DUP5 AND SWAP4 POP PUSH1 0x40 DUP4 PUSH1 0x80 DUP6 PUSH1 0x6 GAS STATICCALL DUP5 AND SWAP4 POP DUP3 MLOAD SWAP6 POP PUSH1 0x20 DUP4 ADD MLOAD SWAP5 POP POP POP POP DUP1 PUSH2 0xD37 JUMPI PUSH1 0x40 MLOAD PUSH32 0xA54F8E2700000000000000000000000000000000000000000000000000000000 DUP2 MSTORE PUSH1 0x4 ADD PUSH1 0x40 MLOAD DUP1 SWAP2 SUB SWAP1 REVERT JUMPDEST POP SWAP2 POP SWAP2 JUMP JUMPDEST PUSH0 PUSH32 0x30644E72E131A029B85045B68181585D97816A916871CA8D3C208C16D87CFD47 DUP4 LT ISZERO DUP1 PUSH2 0xD8D JUMPI POP PUSH32 0x30644E72E131A029B85045B68181585D97816A916871CA8D3C208C16D87CFD47 DUP3 LT ISZERO JUMPDEST ISZERO PUSH2 0xDC4 JUMPI PUSH1 0x40 MLOAD PUSH32 0x7FCDD1F400000000000000000000000000000000000000000000000000000000 DUP2 MSTORE PUSH1 0x4 ADD PUSH1 0x40 MLOAD DUP1 SWAP2 SUB SWAP1 REVERT JUMPDEST PUSH0 DUP4 EQ DUP1 ISZERO PUSH2 0xDD2 JUMPI POP PUSH0 DUP3 EQ JUMPDEST ISZERO PUSH2 0xDDF JUMPI PUSH0 SWAP1 POP PUSH2 0xEE5 JUMP JUMPDEST PUSH0 PUSH2 0xE7D PUSH32 0x30644E72E131A029B85045B68181585D97816A916871CA8D3C208C16D87CFD47 DUP1 PUSH2 0xE12 JUMPI PUSH2 0xE11 PUSH2 0x21D8 JUMP JUMPDEST JUMPDEST PUSH1 0x3 PUSH32 0x30644E72E131A029B85045B68181585D97816A916871CA8D3C208C16D87CFD47 DUP1 PUSH2 0xE43 JUMPI PUSH2 0xE42 PUSH2 0x21D8 JUMP JUMPDEST JUMPDEST DUP8 PUSH32 0x30644E72E131A029B85045B68181585D97816A916871CA8D3C208C16D87CFD47 DUP1 PUSH2 0xE73 JUMPI PUSH2 0xE72 PUSH2 0x21D8 JUMP JUMPDEST JUMPDEST DUP10 DUP11 MULMOD MULMOD ADDMOD PUSH2 0x19C7 JUMP JUMPDEST SWAP1 POP DUP1 DUP4 SUB PUSH2 0xE95 JUMPI PUSH0 PUSH1 0x1 DUP6 SWAP1 SHL OR SWAP2 POP POP PUSH2 0xEE5 JUMP JUMPDEST PUSH2 0xE9E DUP2 PUSH2 0x1A63 JUMP JUMPDEST DUP4 SUB PUSH2 0xEB3 JUMPI PUSH1 0x1 DUP1 DUP6 SWAP1 SHL OR SWAP2 POP POP PUSH2 0xEE5 JUMP JUMPDEST PUSH1 0x40 MLOAD PUSH32 0x7FCDD1F400000000000000000000000000000000000000000000000000000000 DUP2 MSTORE PUSH1 0x4 ADD PUSH1 0x40 MLOAD DUP1 SWAP2 SUB SWAP1 REVERT JUMPDEST SWAP3 SWAP2 POP POP JUMP JUMPDEST PUSH0 PUSH0 PUSH32 0x30644E72E131A029B85045B68181585D97816A916871CA8D3C208C16D87CFD47 DUP7 LT ISZERO DUP1 PUSH2 0xF3C JUMPI POP PUSH32 0x30644E72E131A029B85045B68181585D97816A916871CA8D3C208C16D87CFD47 DUP6 LT ISZERO JUMPDEST DUP1 PUSH2 0xF67 JUMPI POP PUSH32 0x30644E72E131A029B85045B68181585D97816A916871CA8D3C208C16D87CFD47 DUP5 LT ISZERO JUMPDEST DUP1 PUSH2 0xF92 JUMPI POP PUSH32 0x30644E72E131A029B85045B68181585D97816A916871CA8D3C208C16D87CFD47 DUP4 LT ISZERO JUMPDEST ISZERO PUSH2 0xFC9 JUMPI PUSH1 0x40 MLOAD PUSH32 0x7FCDD1F400000000000000000000000000000000000000000000000000000000 DUP2 MSTORE PUSH1 0x4 ADD PUSH1 0x40 MLOAD DUP1 SWAP2 SUB SWAP1 REVERT JUMPDEST PUSH0 DUP4 DUP6 DUP8 DUP10 OR OR OR SUB PUSH2 0xFE1 JUMPI PUSH0 PUSH0 SWAP2 POP SWAP2 POP PUSH2 0x14AE JUMP JUMPDEST PUSH0 PUSH0 PUSH0 PUSH32 0x30644E72E131A029B85045B68181585D97816A916871CA8D3C208C16D87CFD47 DUP1 PUSH2 0x1013 JUMPI PUSH2 0x1012 PUSH2 0x21D8 JUMP JUMPDEST JUMPDEST PUSH1 0x3 PUSH32 0x30644E72E131A029B85045B68181585D97816A916871CA8D3C208C16D87CFD47 PUSH2 0x1040 SWAP2 SWAP1 PUSH2 0x2232 JUMP JUMPDEST PUSH32 0x30644E72E131A029B85045B68181585D97816A916871CA8D3C208C16D87CFD47 DUP1 PUSH2 0x106F JUMPI PUSH2 0x106E PUSH2 0x21D8 JUMP JUMPDEST JUMPDEST DUP11 DUP13 MULMOD MULMOD SWAP1 POP PUSH0 PUSH32 0x30644E72E131A029B85045B68181585D97816A916871CA8D3C208C16D87CFD47 DUP1 PUSH2 0x10A5 JUMPI PUSH2 0x10A4 PUSH2 0x21D8 JUMP JUMPDEST JUMPDEST DUP11 PUSH32 0x30644E72E131A029B85045B68181585D97816A916871CA8D3C208C16D87CFD47 DUP1 PUSH2 0x10D5 JUMPI PUSH2 0x10D4 PUSH2 0x21D8 JUMP JUMPDEST JUMPDEST DUP13 DUP14 MULMOD MULMOD SWAP1 POP PUSH0 PUSH32 0x30644E72E131A029B85045B68181585D97816A916871CA8D3C208C16D87CFD47 DUP1 PUSH2 0x110B JUMPI PUSH2 0x110A PUSH2 0x21D8 JUMP JUMPDEST JUMPDEST DUP11 PUSH32 0x30644E72E131A029B85045B68181585D97816A916871CA8D3C208C16D87CFD47 DUP1 PUSH2 0x113B JUMPI PUSH2 0x113A PUSH2 0x21D8 JUMP JUMPDEST JUMPDEST DUP13 DUP14 MULMOD MULMOD SWAP1 POP PUSH32 0x30644E72E131A029B85045B68181585D97816A916871CA8D3C208C16D87CFD47 DUP1 PUSH2 0x1170 JUMPI PUSH2 0x116F PUSH2 0x21D8 JUMP JUMPDEST JUMPDEST PUSH32 0x30644E72E131A029B85045B68181585D97816A916871CA8D3C208C16D87CFD47 DUP1 PUSH2 0x119F JUMPI PUSH2 0x119E PUSH2 0x21D8 JUMP JUMPDEST JUMPDEST PUSH32 0x30644E72E131A029B85045B68181585D97816A916871CA8D3C208C16D87CFD47 DUP1 PUSH2 0x11CE JUMPI PUSH2 0x11CD PUSH2 0x21D8 JUMP JUMPDEST JUMPDEST DUP13 DUP7 MULMOD DUP5 ADDMOD PUSH32 0x2B149D40CEB8AAAE81BE18991BE06AC3B5B4C5E559DBEFA33267E6DC24A138E5 ADDMOD SWAP5 POP PUSH2 0x12B3 PUSH32 0x30644E72E131A029B85045B68181585D97816A916871CA8D3C208C16D87CFD47 DUP1 PUSH2 0x1229 JUMPI PUSH2 0x1228 PUSH2 0x21D8 JUMP JUMPDEST JUMPDEST PUSH32 0x30644E72E131A029B85045B68181585D97816A916871CA8D3C208C16D87CFD47 DUP1 PUSH2 0x1258 JUMPI PUSH2 0x1257 PUSH2 0x21D8 JUMP JUMPDEST JUMPDEST PUSH32 0x30644E72E131A029B85045B68181585D97816A916871CA8D3C208C16D87CFD47 DUP1 PUSH2 0x1287 JUMPI PUSH2 0x1286 PUSH2 0x21D8 JUMP JUMPDEST JUMPDEST DUP15 DUP8 MULMOD DUP5 ADDMOD PUSH32 0x2FCD3AC2A640A154EB23960892A85A68F031CA0C8344B23A577DCF1052B9E775 ADDMOD PUSH2 0x1A63 JUMP JUMPDEST SWAP4 POP POP POP POP PUSH0 PUSH0 PUSH2 0x1356 PUSH32 0x30644E72E131A029B85045B68181585D97816A916871CA8D3C208C16D87CFD47 DUP1 PUSH2 0x12EC JUMPI PUSH2 0x12EB PUSH2 0x21D8 JUMP JUMPDEST JUMPDEST PUSH32 0x30644E72E131A029B85045B68181585D97816A916871CA8D3C208C16D87CFD47 DUP1 PUSH2 0x131B JUMPI PUSH2 0x131A PUSH2 0x21D8 JUMP JUMPDEST JUMPDEST DUP6 DUP7 MULMOD PUSH32 0x30644E72E131A029B85045B68181585D97816A916871CA8D3C208C16D87CFD47 DUP1 PUSH2 0x134D JUMPI PUSH2 0x134C PUSH2 0x21D8 JUMP JUMPDEST JUMPDEST DUP8 DUP9 MULMOD ADDMOD PUSH2 0x19C7 JUMP JUMPDEST SWAP1 POP PUSH2 0x13E3 PUSH32 0x30644E72E131A029B85045B68181585D97816A916871CA8D3C208C16D87CFD47 DUP1 PUSH2 0x138A JUMPI PUSH2 0x1389 PUSH2 0x21D8 JUMP JUMPDEST JUMPDEST PUSH32 0x183227397098D014DC2822DB40C0AC2ECBC0B548B438E5469E10460B6C3E7EA4 PUSH32 0x30644E72E131A029B85045B68181585D97816A916871CA8D3C208C16D87CFD47 DUP1 PUSH2 0x13DA JUMPI PUSH2 0x13D9 PUSH2 0x21D8 JUMP JUMPDEST JUMPDEST DUP5 DUP9 ADDMOD MULMOD PUSH2 0x1ACE JUMP JUMPDEST ISZERO SWAP2 POP POP PUSH2 0x13F2 DUP4 DUP4 DUP4 PUSH2 0x1B38 JUMP JUMPDEST DUP1 SWAP4 POP DUP2 SWAP5 POP POP POP DUP3 DUP8 EQ DUP1 ISZERO PUSH2 0x1408 JUMPI POP DUP2 DUP7 EQ JUMPDEST ISZERO PUSH2 0x1430 JUMPI PUSH0 DUP2 PUSH2 0x1419 JUMPI PUSH0 PUSH2 0x141C JUMP JUMPDEST PUSH1 0x2 JUMPDEST PUSH1 0xFF AND PUSH1 0x2 DUP12 SWAP1 SHL OR OR SWAP5 POP DUP8 SWAP4 POP PUSH2 0x14AA JUMP JUMPDEST PUSH2 0x1439 DUP4 PUSH2 0x1A63 JUMP JUMPDEST DUP8 EQ DUP1 ISZERO PUSH2 0x144E JUMPI POP PUSH2 0x144B DUP3 PUSH2 0x1A63 JUMP JUMPDEST DUP7 EQ JUMPDEST ISZERO PUSH2 0x1477 JUMPI PUSH1 0x1 DUP2 PUSH2 0x1460 JUMPI PUSH0 PUSH2 0x1463 JUMP JUMPDEST PUSH1 0x2 JUMPDEST PUSH1 0xFF AND PUSH1 0x2 DUP12 SWAP1 SHL OR OR SWAP5 POP DUP8 SWAP4 POP PUSH2 0x14A9 JUMP JUMPDEST PUSH1 0x40 MLOAD PUSH32 0x7FCDD1F400000000000000000000000000000000000000000000000000000000 DUP2 MSTORE PUSH1 0x4 ADD PUSH1 0x40 MLOAD DUP1 SWAP2 SUB SWAP1 REVERT JUMPDEST JUMPDEST POP POP POP JUMPDEST SWAP5 POP SWAP5 SWAP3 POP POP POP JUMP JUMPDEST PUSH0 PUSH0 PUSH0 DUP4 SUB PUSH2 0x14CB JUMPI PUSH0 PUSH0 SWAP2 POP SWAP2 POP PUSH2 0x15E7 JUMP JUMPDEST PUSH0 PUSH1 0x1 DUP1 DUP6 AND EQ SWAP1 POP PUSH1 0x1 DUP5 SWAP1 SHR SWAP3 POP PUSH32 0x30644E72E131A029B85045B68181585D97816A916871CA8D3C208C16D87CFD47 DUP4 LT PUSH2 0x1534 JUMPI PUSH1 0x40 MLOAD PUSH32 0x7FCDD1F400000000000000000000000000000000000000000000000000000000 DUP2 MSTORE PUSH1 0x4 ADD PUSH1 0x40 MLOAD DUP1 SWAP2 SUB SWAP1 REVERT JUMPDEST PUSH2 0x15D1 PUSH32 0x30644E72E131A029B85045B68181585D97816A916871CA8D3C208C16D87CFD47 DUP1 PUSH2 0x1566 JUMPI PUSH2 0x1565 PUSH2 0x21D8 JUMP JUMPDEST JUMPDEST PUSH1 0x3 PUSH32 0x30644E72E131A029B85045B68181585D97816A916871CA8D3C208C16D87CFD47 DUP1 PUSH2 0x1597 JUMPI PUSH2 0x1596 PUSH2 0x21D8 JUMP JUMPDEST JUMPDEST DUP7 PUSH32 0x30644E72E131A029B85045B68181585D97816A916871CA8D3C208C16D87CFD47 DUP1 PUSH2 0x15C7 JUMPI PUSH2 0x15C6 PUSH2 0x21D8 JUMP JUMPDEST JUMPDEST DUP9 DUP10 MULMOD MULMOD ADDMOD PUSH2 0x19C7 JUMP JUMPDEST SWAP2 POP DUP1 ISZERO PUSH2 0x15E5 JUMPI PUSH2 0x15E2 DUP3 PUSH2 0x1A63 JUMP JUMPDEST SWAP2 POP JUMPDEST POP JUMPDEST SWAP2 POP SWAP2 JUMP JUMPDEST PUSH0 PUSH0 PUSH0 PUSH0 PUSH0 DUP7 EQ DUP1 ISZERO PUSH2 0x15FE JUMPI POP PUSH0 DUP6 EQ JUMPDEST ISZERO PUSH2 0x1614 JUMPI PUSH0 PUSH0 PUSH0 PUSH0 SWAP4 POP SWAP4 POP SWAP4 POP SWAP4 POP PUSH2 0x19BE JUMP JUMPDEST PUSH0 PUSH1 0x1 DUP1 DUP9 AND EQ SWAP1 POP PUSH0 PUSH1 0x2 DUP1 DUP10 AND EQ SWAP1 POP PUSH1 0x2 DUP9 SWAP1 SHR SWAP6 POP DUP7 SWAP5 POP PUSH32 0x30644E72E131A029B85045B68181585D97816A916871CA8D3C208C16D87CFD47 DUP7 LT ISZERO DUP1 PUSH2 0x167F JUMPI POP PUSH32 0x30644E72E131A029B85045B68181585D97816A916871CA8D3C208C16D87CFD47 DUP6 LT ISZERO JUMPDEST ISZERO PUSH2 0x16B6 JUMPI PUSH1 0x40 MLOAD PUSH32 0x7FCDD1F400000000000000000000000000000000000000000000000000000000 DUP2 MSTORE PUSH1 0x4 ADD PUSH1 0x40 MLOAD DUP1 SWAP2 SUB SWAP1 REVERT JUMPDEST PUSH0 PUSH32 0x30644E72E131A029B85045B68181585D97816A916871CA8D3C208C16D87CFD47 DUP1 PUSH2 0x16E6 JUMPI PUSH2 0x16E5 PUSH2 0x21D8 JUMP JUMPDEST JUMPDEST PUSH1 0x3 PUSH32 0x30644E72E131A029B85045B68181585D97816A916871CA8D3C208C16D87CFD47 PUSH2 0x1713 SWAP2 SWAP1 PUSH2 0x2232 JUMP JUMPDEST PUSH32 0x30644E72E131A029B85045B68181585D97816A916871CA8D3C208C16D87CFD47 DUP1 PUSH2 0x1742 JUMPI PUSH2 0x1741 PUSH2 0x21D8 JUMP JUMPDEST JUMPDEST DUP9 DUP11 MULMOD MULMOD SWAP1 POP PUSH0 PUSH32 0x30644E72E131A029B85045B68181585D97816A916871CA8D3C208C16D87CFD47 DUP1 PUSH2 0x1778 JUMPI PUSH2 0x1777 PUSH2 0x21D8 JUMP JUMPDEST JUMPDEST DUP9 PUSH32 0x30644E72E131A029B85045B68181585D97816A916871CA8D3C208C16D87CFD47 DUP1 PUSH2 0x17A8 JUMPI PUSH2 0x17A7 PUSH2 0x21D8 JUMP JUMPDEST JUMPDEST DUP11 DUP12 MULMOD MULMOD SWAP1 POP PUSH0 PUSH32 0x30644E72E131A029B85045B68181585D97816A916871CA8D3C208C16D87CFD47 DUP1 PUSH2 0x17DE JUMPI PUSH2 0x17DD PUSH2 0x21D8 JUMP JUMPDEST JUMPDEST DUP9 PUSH32 0x30644E72E131A029B85045B68181585D97816A916871CA8D3C208C16D87CFD47 DUP1 PUSH2 0x180E JUMPI PUSH2 0x180D PUSH2 0x21D8 JUMP JUMPDEST JUMPDEST DUP11 DUP12 MULMOD MULMOD SWAP1 POP PUSH32 0x30644E72E131A029B85045B68181585D97816A916871CA8D3C208C16D87CFD47 DUP1 PUSH2 0x1843 JUMPI PUSH2 0x1842 PUSH2 0x21D8 JUMP JUMPDEST JUMPDEST PUSH32 0x30644E72E131A029B85045B68181585D97816A916871CA8D3C208C16D87CFD47 DUP1 PUSH2 0x1872 JUMPI PUSH2 0x1871 PUSH2 0x21D8 JUMP JUMPDEST JUMPDEST PUSH32 0x30644E72E131A029B85045B68181585D97816A916871CA8D3C208C16D87CFD47 DUP1 PUSH2 0x18A1 JUMPI PUSH2 0x18A0 PUSH2 0x21D8 JUMP JUMPDEST JUMPDEST DUP11 DUP7 MULMOD DUP5 ADDMOD PUSH32 0x2B149D40CEB8AAAE81BE18991BE06AC3B5B4C5E559DBEFA33267E6DC24A138E5 ADDMOD SWAP7 POP PUSH2 0x1986 PUSH32 0x30644E72E131A029B85045B68181585D97816A916871CA8D3C208C16D87CFD47 DUP1 PUSH2 0x18FC JUMPI PUSH2 0x18FB PUSH2 0x21D8 JUMP JUMPDEST JUMPDEST PUSH32 0x30644E72E131A029B85045B68181585D97816A916871CA8D3C208C16D87CFD47 DUP1 PUSH2 0x192B JUMPI PUSH2 0x192A PUSH2 0x21D8 JUMP JUMPDEST JUMPDEST PUSH32 0x30644E72E131A029B85045B68181585D97816A916871CA8D3C208C16D87CFD47 DUP1 PUSH2 0x195A JUMPI PUSH2 0x1959 PUSH2 0x21D8 JUMP JUMPDEST JUMPDEST DUP13 DUP8 MULMOD DUP5 ADDMOD PUSH32 0x2FCD3AC2A640A154EB23960892A85A68F031CA0C8344B23A577DCF1052B9E775 ADDMOD PUSH2 0x1A63 JUMP JUMPDEST SWAP6 POP PUSH2 0x1993 DUP8 DUP8 DUP7 PUSH2 0x1B38 JUMP JUMPDEST DUP1 SWAP8 POP DUP2 SWAP9 POP POP POP DUP5 ISZERO PUSH2 0x19B8 JUMPI PUSH2 0x19AA DUP8 PUSH2 0x1A63 JUMP JUMPDEST SWAP7 POP PUSH2 0x19B5 DUP7 PUSH2 0x1A63 JUMP JUMPDEST SWAP6 POP JUMPDEST POP POP POP POP POP JUMPDEST SWAP3 SWAP6 SWAP2 SWAP5 POP SWAP3 POP JUMP JUMPDEST PUSH0 PUSH2 0x19F2 DUP3 PUSH32 0xC19139CB84C680A6E14116DA060561765E05AA45A1C72A34F082305B61F3F52 PUSH2 0x1E33 JUMP JUMPDEST SWAP1 POP DUP2 PUSH32 0x30644E72E131A029B85045B68181585D97816A916871CA8D3C208C16D87CFD47 DUP1 PUSH2 0x1A24 JUMPI PUSH2 0x1A23 PUSH2 0x21D8 JUMP JUMPDEST JUMPDEST DUP3 DUP4 MULMOD EQ PUSH2 0x1A5E JUMPI PUSH1 0x40 MLOAD PUSH32 0x7FCDD1F400000000000000000000000000000000000000000000000000000000 DUP2 MSTORE PUSH1 0x4 ADD PUSH1 0x40 MLOAD DUP1 SWAP2 SUB SWAP1 REVERT JUMPDEST SWAP2 SWAP1 POP JUMP JUMPDEST PUSH0 PUSH32 0x30644E72E131A029B85045B68181585D97816A916871CA8D3C208C16D87CFD47 DUP1 DUP4 DUP2 PUSH2 0x1A95 JUMPI PUSH2 0x1A94 PUSH2 0x21D8 JUMP JUMPDEST JUMPDEST MOD PUSH32 0x30644E72E131A029B85045B68181585D97816A916871CA8D3C208C16D87CFD47 SUB DUP2 PUSH2 0x1AC6 JUMPI PUSH2 0x1AC5 PUSH2 0x21D8 JUMP JUMPDEST JUMPDEST MOD SWAP1 POP SWAP2 SWAP1 POP JUMP JUMPDEST PUSH0 PUSH0 PUSH2 0x1AFA DUP4 PUSH32 0xC19139CB84C680A6E14116DA060561765E05AA45A1C72A34F082305B61F3F52 PUSH2 0x1E33 JUMP JUMPDEST SWAP1 POP DUP3 PUSH32 0x30644E72E131A029B85045B68181585D97816A916871CA8D3C208C16D87CFD47 DUP1 PUSH2 0x1B2C JUMPI PUSH2 0x1B2B PUSH2 0x21D8 JUMP JUMPDEST JUMPDEST DUP3 DUP4 MULMOD EQ SWAP2 POP POP SWAP2 SWAP1 POP JUMP JUMPDEST PUSH0 PUSH0 PUSH0 PUSH2 0x1BD7 PUSH32 0x30644E72E131A029B85045B68181585D97816A916871CA8D3C208C16D87CFD47 DUP1 PUSH2 0x1B6D JUMPI PUSH2 0x1B6C PUSH2 0x21D8 JUMP JUMPDEST JUMPDEST PUSH32 0x30644E72E131A029B85045B68181585D97816A916871CA8D3C208C16D87CFD47 DUP1 PUSH2 0x1B9C JUMPI PUSH2 0x1B9B PUSH2 0x21D8 JUMP JUMPDEST JUMPDEST DUP8 DUP9 MULMOD PUSH32 0x30644E72E131A029B85045B68181585D97816A916871CA8D3C208C16D87CFD47 DUP1 PUSH2 0x1BCE JUMPI PUSH2 0x1BCD PUSH2 0x21D8 JUMP JUMPDEST JUMPDEST DUP10 DUP11 MULMOD ADDMOD PUSH2 0x19C7 JUMP JUMPDEST SWAP1 POP DUP4 ISZERO PUSH2 0x1BEB JUMPI PUSH2 0x1BE8 DUP2 PUSH2 0x1A63 JUMP JUMPDEST SWAP1 POP JUMPDEST PUSH2 0x1C76 PUSH32 0x30644E72E131A029B85045B68181585D97816A916871CA8D3C208C16D87CFD47 DUP1 PUSH2 0x1C1D JUMPI PUSH2 0x1C1C PUSH2 0x21D8 JUMP JUMPDEST JUMPDEST PUSH32 0x183227397098D014DC2822DB40C0AC2ECBC0B548B438E5469E10460B6C3E7EA4 PUSH32 0x30644E72E131A029B85045B68181585D97816A916871CA8D3C208C16D87CFD47 DUP1 PUSH2 0x1C6D JUMPI PUSH2 0x1C6C PUSH2 0x21D8 JUMP JUMPDEST JUMPDEST DUP5 DUP11 ADDMOD MULMOD PUSH2 0x19C7 JUMP JUMPDEST SWAP3 POP PUSH32 0x30644E72E131A029B85045B68181585D97816A916871CA8D3C208C16D87CFD47 DUP1 PUSH2 0x1CA7 JUMPI PUSH2 0x1CA6 PUSH2 0x21D8 JUMP JUMPDEST JUMPDEST PUSH2 0x1CE2 PUSH32 0x30644E72E131A029B85045B68181585D97816A916871CA8D3C208C16D87CFD47 DUP1 PUSH2 0x1CD9 JUMPI PUSH2 0x1CD8 PUSH2 0x21D8 JUMP JUMPDEST JUMPDEST PUSH1 0x2 DUP7 MULMOD PUSH2 0x1ECA JUMP JUMPDEST DUP7 MULMOD SWAP2 POP PUSH32 0x30644E72E131A029B85045B68181585D97816A916871CA8D3C208C16D87CFD47 DUP1 PUSH2 0x1D15 JUMPI PUSH2 0x1D14 PUSH2 0x21D8 JUMP JUMPDEST JUMPDEST PUSH2 0x1D4F PUSH32 0x30644E72E131A029B85045B68181585D97816A916871CA8D3C208C16D87CFD47 DUP1 PUSH2 0x1D47 JUMPI PUSH2 0x1D46 PUSH2 0x21D8 JUMP JUMPDEST JUMPDEST DUP5 DUP6 MULMOD PUSH2 0x1A63 JUMP JUMPDEST PUSH32 0x30644E72E131A029B85045B68181585D97816A916871CA8D3C208C16D87CFD47 DUP1 PUSH2 0x1D7E JUMPI PUSH2 0x1D7D PUSH2 0x21D8 JUMP JUMPDEST JUMPDEST DUP6 DUP7 MULMOD ADDMOD DUP7 EQ ISZERO DUP1 PUSH2 0x1DF3 JUMPI POP PUSH32 0x30644E72E131A029B85045B68181585D97816A916871CA8D3C208C16D87CFD47 DUP1 PUSH2 0x1DBA JUMPI PUSH2 0x1DB9 PUSH2 0x21D8 JUMP JUMPDEST JUMPDEST PUSH32 0x30644E72E131A029B85045B68181585D97816A916871CA8D3C208C16D87CFD47 DUP1 PUSH2 0x1DE9 JUMPI PUSH2 0x1DE8 PUSH2 0x21D8 JUMP JUMPDEST JUMPDEST DUP4 DUP6 MULMOD PUSH1 0x2 MULMOD DUP6 EQ ISZERO JUMPDEST ISZERO PUSH2 0x1E2A JUMPI PUSH1 0x40 MLOAD PUSH32 0x7FCDD1F400000000000000000000000000000000000000000000000000000000 DUP2 MSTORE PUSH1 0x4 ADD PUSH1 0x40 MLOAD DUP1 SWAP2 SUB SWAP1 REVERT JUMPDEST POP SWAP4 POP SWAP4 SWAP2 POP POP JUMP JUMPDEST PUSH0 PUSH0 PUSH1 0x40 MLOAD PUSH1 0x20 DUP2 MSTORE PUSH1 0x20 DUP1 DUP3 ADD MSTORE PUSH1 0x20 PUSH1 0x40 DUP3 ADD MSTORE DUP5 PUSH1 0x60 DUP3 ADD MSTORE DUP4 PUSH1 0x80 DUP3 ADD MSTORE PUSH32 0x30644E72E131A029B85045B68181585D97816A916871CA8D3C208C16D87CFD47 PUSH1 0xA0 DUP3 ADD MSTORE PUSH1 0x20 DUP2 PUSH1 0xC0 DUP4 PUSH1 0x5 GAS STATICCALL SWAP2 POP DUP1 MLOAD SWAP3 POP POP DUP1 PUSH2 0x1EC3 JUMPI PUSH1 0x40 MLOAD PUSH32 0x7FCDD1F400000000000000000000000000000000000000000000000000000000 DUP2 MSTORE PUSH1 0x4 ADD PUSH1 0x40 MLOAD DUP1 SWAP2 SUB SWAP1 REVERT JUMPDEST POP SWAP3 SWAP2 POP POP JUMP JUMPDEST PUSH0 PUSH2 0x1EF5 DUP3 PUSH32 0x30644E72E131A029B85045B68181585D97816A916871CA8D3C208C16D87CFD45 PUSH2 0x1E33 JUMP JUMPDEST SWAP1 POP PUSH1 0x1 PUSH32 0x30644E72E131A029B85045B68181585D97816A916871CA8D3C208C16D87CFD47 DUP1 PUSH2 0x1F28 JUMPI PUSH2 0x1F27 PUSH2 0x21D8 JUMP JUMPDEST JUMPDEST DUP3 DUP5 MULMOD EQ PUSH2 0x1F62 JUMPI PUSH1 0x40 MLOAD PUSH32 0x7FCDD1F400000000000000000000000000000000000000000000000000000000 DUP2 MSTORE PUSH1 0x4 ADD PUSH1 0x40 MLOAD DUP1 SWAP2 SUB SWAP1 REVERT JUMPDEST SWAP2 SWAP1 POP JUMP JUMPDEST PUSH1 0x40 MLOAD DUP1 PUSH1 0x80 ADD PUSH1 0x40 MSTORE DUP1 PUSH1 0x4 SWAP1 PUSH1 0x20 DUP3 MUL DUP1 CALLDATASIZE DUP4 CALLDATACOPY DUP1 DUP3 ADD SWAP2 POP POP SWAP1 POP POP SWAP1 JUMP JUMPDEST PUSH1 0x40 MLOAD DUP1 PUSH2 0x300 ADD PUSH1 0x40 MSTORE DUP1 PUSH1 0x18 SWAP1 PUSH1 0x20 DUP3 MUL DUP1 CALLDATASIZE DUP4 CALLDATACOPY DUP1 DUP3 ADD SWAP2 POP POP SWAP1 POP POP SWAP1 JUMP JUMPDEST PUSH1 0x40 MLOAD DUP1 PUSH1 0x20 ADD PUSH1 0x40 MSTORE DUP1 PUSH1 0x1 SWAP1 PUSH1 0x20 DUP3 MUL DUP1 CALLDATASIZE DUP4 CALLDATACOPY DUP1 DUP3 ADD SWAP2 POP POP SWAP1 POP POP SWAP1 JUMP JUMPDEST PUSH0 PUSH0 REVERT JUMPDEST PUSH0 PUSH0 REVERT JUMPDEST PUSH0 DUP2 SWAP1 POP DUP3 PUSH1 0x20 PUSH1 0x8 MUL DUP3 ADD GT ISZERO PUSH2 0x1FF1 JUMPI PUSH2 0x1FF0 PUSH2 0x1FD2 JUMP JUMPDEST JUMPDEST SWAP3 SWAP2 POP POP JUMP JUMPDEST PUSH0 DUP2 SWAP1 POP DUP3 PUSH1 0x20 PUSH1 0x5 MUL DUP3 ADD GT ISZERO PUSH2 0x2012 JUMPI PUSH2 0x2011 PUSH2 0x1FD2 JUMP JUMPDEST JUMPDEST SWAP3 SWAP2 POP POP JUMP JUMPDEST PUSH0 PUSH0 PUSH2 0x1A0 DUP4 DUP6 SUB SLT ISZERO PUSH2 0x202F JUMPI PUSH2 0x202E PUSH2 0x1FCE JUMP JUMPDEST JUMPDEST PUSH0 PUSH2 0x203C DUP6 DUP3 DUP7 ADD PUSH2 0x1FD6 JUMP JUMPDEST SWAP3 POP POP PUSH2 0x100 PUSH2 0x204E DUP6 DUP3 DUP7 ADD PUSH2 0x1FF7 JUMP JUMPDEST SWAP2 POP POP SWAP3 POP SWAP3 SWAP1 POP JUMP JUMPDEST PUSH0 PUSH2 0x100 DUP3 DUP5 SUB SLT ISZERO PUSH2 0x206E JUMPI PUSH2 0x206D PUSH2 0x1FCE JUMP JUMPDEST JUMPDEST PUSH0 PUSH2 0x207B DUP5 DUP3 DUP6 ADD PUSH2 0x1FD6 JUMP JUMPDEST SWAP2 POP POP SWAP3 SWAP2 POP POP JUMP JUMPDEST PUSH0 PUSH1 0x4 SWAP1 POP SWAP2 SWAP1 POP JUMP JUMPDEST PUSH0 DUP2 SWAP1 POP SWAP3 SWAP2 POP POP JUMP JUMPDEST PUSH0 DUP2 SWAP1 POP SWAP2 SWAP1 POP JUMP JUMPDEST PUSH0 DUP2 SWAP1 POP SWAP2 SWAP1 POP JUMP JUMPDEST PUSH2 0x20B3 DUP2 PUSH2 0x20A1 JUMP JUMPDEST DUP3 MSTORE POP POP JUMP JUMPDEST PUSH0 PUSH2 0x20C4 DUP4 DUP4 PUSH2 0x20AA JUMP JUMPDEST PUSH1 0x20 DUP4 ADD SWAP1 POP SWAP3 SWAP2 POP POP JUMP JUMPDEST PUSH0 PUSH1 0x20 DUP3 ADD SWAP1 POP SWAP2 SWAP1 POP JUMP JUMPDEST PUSH2 0x20E5 DUP2 PUSH2 0x2084 JUMP JUMPDEST PUSH2 0x20EF DUP2 DUP5 PUSH2 0x208E JUMP JUMPDEST SWAP3 POP PUSH2 0x20FA DUP3 PUSH2 0x2098 JUMP JUMPDEST DUP1 PUSH0 JUMPDEST DUP4 DUP2 LT ISZERO PUSH2 0x212A JUMPI DUP2 MLOAD PUSH2 0x2111 DUP8 DUP3 PUSH2 0x20B9 JUMP JUMPDEST SWAP7 POP PUSH2 0x211C DUP4 PUSH2 0x20D0 JUMP JUMPDEST SWAP3 POP POP PUSH1 0x1 DUP2 ADD SWAP1 POP PUSH2 0x20FD JUMP JUMPDEST POP POP POP POP POP POP JUMP JUMPDEST PUSH0 PUSH1 0x80 DUP3 ADD SWAP1 POP PUSH2 0x2145 PUSH0 DUP4 ADD DUP5 PUSH2 0x20DC JUMP JUMPDEST SWAP3 SWAP2 POP POP JUMP JUMPDEST PUSH0 DUP2 SWAP1 POP DUP3 PUSH1 0x20 PUSH1 0x4 MUL DUP3 ADD GT ISZERO PUSH2 0x2166 JUMPI PUSH2 0x2165 PUSH2 0x1FD2 JUMP JUMPDEST JUMPDEST SWAP3 SWAP2 POP POP JUMP JUMPDEST PUSH0 PUSH0 PUSH2 0x120 DUP4 DUP6 SUB SLT ISZERO PUSH2 0x2183 JUMPI PUSH2 0x2182 PUSH2 0x1FCE JUMP JUMPDEST JUMPDEST PUSH0 PUSH2 0x2190 DUP6 DUP3 DUP7 ADD PUSH2 0x214B JUMP JUMPDEST SWAP3 POP POP PUSH1 0x80 PUSH2 0x21A1 DUP6 DUP3 DUP7 ADD PUSH2 0x1FF7 JUMP JUMPDEST SWAP2 POP POP SWAP3 POP SWAP3 SWAP1 POP JUMP JUMPDEST PUSH32 0x4E487B7100000000000000000000000000000000000000000000000000000000 PUSH0 MSTORE PUSH1 0x32 PUSH1 0x4 MSTORE PUSH1 0x24 PUSH0 REVERT JUMPDEST PUSH32 0x4E487B7100000000000000000000000000000000000000000000000000000000 PUSH0 MSTORE PUSH1 0x12 PUSH1 0x4 MSTORE PUSH1 0x24 PUSH0 REVERT JUMPDEST PUSH32 0x4E487B7100000000000000000000000000000000000000000000000000000000 PUSH0 MSTORE PUSH1 0x11 PUSH1 0x4 MSTORE PUSH1 0x24 PUSH0 REVERT JUMPDEST PUSH0 PUSH2 0x223C DUP3 PUSH2 0x20A1 JUMP JUMPDEST SWAP2 POP PUSH2 0x2247 DUP4 PUSH2 0x20A1 JUMP JUMPDEST SWAP3 POP DUP3 DUP3 SUB SWAP1 POP DUP2 DUP2 GT ISZERO PUSH2 0x225F JUMPI PUSH2 0x225E PUSH2 0x2205 JUMP JUMPDEST JUMPDEST SWAP3 SWAP2 POP POP JUMP INVALID LOG2 PUSH5 0x6970667358 0x22 SLT KECCAK256 CALLDATALOAD 0x22 DUP5 SWAPN 0x46 0xCB PUSH24 0xDCE0A68C905E43ECBC0E9C02C54FD92E7921E8A66A491214 SUB PUSH5 0x736F6C6343 STOP ADDMOD 0x1F STOP CALLER "
				},
				"gasEstimates": {
					"creation": {
						"codeDepositCost": "1771800",
						"executionCost": "1860",
						"totalCost": "1773660"
					},
					"external": {
						"compressProof(uint256[8])": "infinite",
						"verifyCompressedProof(uint256[4],uint256[5])": "infinite",
						"verifyProof(uint256[8],uint256[5])": "infinite"
					},
					"internal": {
						"compress_g1(uint256,uint256)": "infinite",
						"compress_g2(uint256,uint256,uint256,uint256)": "infinite",
						"decompress_g1(uint256)": "infinite",
						"decompress_g2(uint256,uint256)": "infinite",
						"exp(uint256,uint256)": "infinite",
						"invert_Fp(uint256)": "infinite",
						"isSquare_Fp(uint256)": "infinite",
						"negate(uint256)": "83",
						"publicInputMSM(uint256[5] calldata)": "infinite",
						"sqrt_Fp(uint256)": "infinite",
						"sqrt_Fp2(uint256,uint256,bool)": "infinite"
					}
				},
				"methodIdentifiers": {
					"compressProof(uint256[8])": "44f63692",
					"verifyCompressedProof(uint256[4],uint256[5])": "a6708604",
					"verifyProof(uint256[8],uint256[5])": "2a07d99a"
				}
			},
			"storageLayout": {
				"storage": [],
				"types": null
			},
			"userdoc": {
				"errors": {
					"ProofInvalid()": [
						{
							"notice": "The proof is invalid."
						}
					],
					"PublicInputNotInField()": [
						{
							"notice": "Some of the provided public input values are larger than the field modulus."
						}
					]
				},
				"kind": "user",
				"methods": {
					"compressProof(uint256[8])": {
						"notice": "Compress a proof.Will revert with InvalidProof if the curve points are invalid, but does not verify the proof itself."
					},
					"verifyCompressedProof(uint256[4],uint256[5])": {
						"notice": "Verify a Groth16 proof with compressed points.Reverts with InvalidProof if the proof is invalid or with PublicInputNotInField the public input is not reduced.There is no return value. If the function does not revert, the proof was successfully verified."
					},
					"verifyProof(uint256[8],uint256[5])": {
						"notice": "Verify an uncompressed Groth16 proof.Reverts with InvalidProof if the proof is invalid or with PublicInputNotInField the public input is not reduced.There is no return value. If the function does not revert, the proof was successfully verified."
					}
				},
				"notice": "Supports verifying Groth16 proofs. Proofs can be in uncompressed (256 bytes) and compressed (128 bytes) format. A view function is provided to compress proofs.See <https://2π.com/23/bn254-compression> for further explanation.",
				"version": 1
			}
		}
	}
}