{
	"Evm/core/base/vault.sol": {
		"QiaraMultiAssetVault": {
			"abi": [
				{
					"inputs": [
						{
							"internalType": "address",
							"name": "_events",
							"type": "address"
						},
						{
							"internalType": "address",
							"name": "_variablesRegistry",
							"type": "address"
						},
						{
							"internalType": "address",
							"name": "_delegator",
							"type": "address"
						},
						{
							"internalType": "string",
							"name": "_providerName",
							"type": "string"
						}
					],
					"stateMutability": "nonpayable",
					"type": "constructor"
				},
				{
					"inputs": [
						{
							"internalType": "address",
							"name": "owner",
							"type": "address"
						}
					],
					"name": "OwnableInvalidOwner",
					"type": "error"
				},
				{
					"inputs": [
						{
							"internalType": "address",
							"name": "account",
							"type": "address"
						}
					],
					"name": "OwnableUnauthorizedAccount",
					"type": "error"
				},
				{
					"inputs": [
						{
							"internalType": "address",
							"name": "token",
							"type": "address"
						}
					],
					"name": "SafeERC20FailedOperation",
					"type": "error"
				},
				{
					"anonymous": false,
					"inputs": [
						{
							"indexed": true,
							"internalType": "address",
							"name": "user",
							"type": "address"
						},
						{
							"indexed": true,
							"internalType": "address",
							"name": "token",
							"type": "address"
						},
						{
							"indexed": false,
							"internalType": "uint256",
							"name": "amount",
							"type": "uint256"
						},
						{
							"indexed": false,
							"internalType": "string",
							"name": "provider",
							"type": "string"
						}
					],
					"name": "Deposit",
					"type": "event"
				},
				{
					"anonymous": false,
					"inputs": [
						{
							"indexed": true,
							"internalType": "address",
							"name": "user",
							"type": "address"
						},
						{
							"indexed": true,
							"internalType": "address",
							"name": "token",
							"type": "address"
						},
						{
							"indexed": false,
							"internalType": "uint256",
							"name": "amount",
							"type": "uint256"
						},
						{
							"indexed": false,
							"internalType": "string",
							"name": "provider",
							"type": "string"
						}
					],
					"name": "DirectWithdraw",
					"type": "event"
				},
				{
					"anonymous": false,
					"inputs": [
						{
							"indexed": true,
							"internalType": "address",
							"name": "previousOwner",
							"type": "address"
						},
						{
							"indexed": true,
							"internalType": "address",
							"name": "newOwner",
							"type": "address"
						}
					],
					"name": "OwnershipTransferred",
					"type": "event"
				},
				{
					"anonymous": false,
					"inputs": [
						{
							"indexed": true,
							"internalType": "address",
							"name": "token",
							"type": "address"
						},
						{
							"indexed": false,
							"internalType": "string",
							"name": "provider",
							"type": "string"
						}
					],
					"name": "TokenListed",
					"type": "event"
				},
				{
					"inputs": [
						{
							"internalType": "string",
							"name": "assetName",
							"type": "string"
						},
						{
							"internalType": "uint256",
							"name": "amount",
							"type": "uint256"
						}
					],
					"name": "deposit",
					"outputs": [],
					"stateMutability": "nonpayable",
					"type": "function"
				},
				{
					"inputs": [
						{
							"internalType": "address",
							"name": "user",
							"type": "address"
						},
						{
							"internalType": "string",
							"name": "assetName",
							"type": "string"
						},
						{
							"internalType": "uint256",
							"name": "amount",
							"type": "uint256"
						},
						{
							"internalType": "uint256",
							"name": "nullifier",
							"type": "uint256"
						}
					],
					"name": "directWithdraw",
					"outputs": [],
					"stateMutability": "nonpayable",
					"type": "function"
				},
				{
					"inputs": [],
					"name": "events",
					"outputs": [
						{
							"internalType": "contract IEvents",
							"name": "",
							"type": "address"
						}
					],
					"stateMutability": "view",
					"type": "function"
				},
				{
					"inputs": [
						{
							"internalType": "address",
							"name": "",
							"type": "address"
						}
					],
					"name": "isSupportedToken",
					"outputs": [
						{
							"internalType": "bool",
							"name": "",
							"type": "bool"
						}
					],
					"stateMutability": "view",
					"type": "function"
				},
				{
					"inputs": [
						{
							"internalType": "string",
							"name": "assetName",
							"type": "string"
						}
					],
					"name": "listNewToken",
					"outputs": [],
					"stateMutability": "nonpayable",
					"type": "function"
				},
				{
					"inputs": [
						{
							"internalType": "bytes",
							"name": "user",
							"type": "bytes"
						},
						{
							"internalType": "string",
							"name": "shared",
							"type": "string"
						},
						{
							"internalType": "string",
							"name": "assetName",
							"type": "string"
						},
						{
							"internalType": "uint256",
							"name": "amount",
							"type": "uint256"
						}
					],
					"name": "m_withdraw",
					"outputs": [],
					"stateMutability": "nonpayable",
					"type": "function"
				},
				{
					"inputs": [],
					"name": "owner",
					"outputs": [
						{
							"internalType": "address",
							"name": "",
							"type": "address"
						}
					],
					"stateMutability": "view",
					"type": "function"
				},
				{
					"inputs": [],
					"name": "providerName",
					"outputs": [
						{
							"internalType": "string",
							"name": "",
							"type": "string"
						}
					],
					"stateMutability": "view",
					"type": "function"
				},
				{
					"inputs": [],
					"name": "renounceOwnership",
					"outputs": [],
					"stateMutability": "nonpayable",
					"type": "function"
				},
				{
					"inputs": [
						{
							"internalType": "string",
							"name": "assetName",
							"type": "string"
						}
					],
					"name": "resolveAsset",
					"outputs": [
						{
							"internalType": "address",
							"name": "",
							"type": "address"
						}
					],
					"stateMutability": "view",
					"type": "function"
				},
				{
					"inputs": [
						{
							"internalType": "address",
							"name": "newOwner",
							"type": "address"
						}
					],
					"name": "transferOwnership",
					"outputs": [],
					"stateMutability": "nonpayable",
					"type": "function"
				},
				{
					"inputs": [],
					"name": "variablesRegistry",
					"outputs": [
						{
							"internalType": "contract IVariables",
							"name": "",
							"type": "address"
						}
					],
					"stateMutability": "view",
					"type": "function"
				}
			],
			"devdoc": {
				"errors": {
					"OwnableInvalidOwner(address)": [
						{
							"details": "The owner is not a valid owner account. (eg. `address(0)`)"
						}
					],
					"OwnableUnauthorizedAccount(address)": [
						{
							"details": "The caller account is not authorized to perform an operation."
						}
					],
					"SafeERC20FailedOperation(address)": [
						{
							"details": "An operation with an ERC-20 token failed."
						}
					]
				},
				"kind": "dev",
				"methods": {
					"directWithdraw(address,string,uint256,uint256)": {
						"details": "This function is called directly by the Delegator contract  after it has verified the ZK Proof and Signatures."
					},
					"m_withdraw(bytes,string,string,uint256)": {
						"details": "This function can be called by the user, consensus then processes this,  and if everything goes right, it then calls directWdirectWithdraw"
					},
					"owner()": {
						"details": "Returns the address of the current owner."
					},
					"renounceOwnership()": {
						"details": "Leaves the contract without owner. It will not be possible to call `onlyOwner` functions. Can only be called by the current owner. NOTE: Renouncing ownership will leave the contract without an owner, thereby disabling any functionality that is only available to the owner."
					},
					"transferOwnership(address)": {
						"details": "Transfers ownership of the contract to a new account (`newOwner`). Can only be called by the current owner."
					}
				},
				"version": 1
			},
			"evm": {
				"assembly": "    /* \"Evm/core/base/vault.sol\":561:6110  contract QiaraMultiAssetVault is Ownable {... */\n  mstore(0x40, 0xc0)\n    /* \"Evm/core/base/vault.sol\":1098:1413  constructor(... */\n  callvalue\n  dup1\n  iszero\n  tag_1\n  jumpi\n  revert(0x00, 0x00)\ntag_1:\n  pop\n  mload(0x40)\n  sub(codesize, bytecodeSize)\n  dup1\n  bytecodeSize\n  dup4\n  codecopy\n  dup2\n  dup2\n  add\n  0x40\n  mstore\n  dup2\n  add\n  swap1\n  tag_2\n  swap2\n  swap1\n  tag_3\n  jump\t// in\ntag_2:\n    /* \"Evm/core/base/vault.sol\":1257:1267  _delegator */\n  dup2\n    /* \"@openzeppelin/contracts/access/Ownable.sol\":1297:1298  0 */\n  0x00\n    /* \"@openzeppelin/contracts/access/Ownable.sol\":1273:1299  initialOwner == address(0) */\n  0xffffffffffffffffffffffffffffffffffffffff\n  and\n    /* \"@openzeppelin/contracts/access/Ownable.sol\":1273:1285  initialOwner */\n  dup2\n    /* \"@openzeppelin/contracts/access/Ownable.sol\":1273:1299  initialOwner == address(0) */\n  0xffffffffffffffffffffffffffffffffffffffff\n  and\n  sub\n    /* \"@openzeppelin/contracts/access/Ownable.sol\":1269:1364  if (initialOwner == address(0)) {... */\n  tag_7\n  jumpi\n    /* \"@openzeppelin/contracts/access/Ownable.sol\":1350:1351  0 */\n  0x00\n    /* \"@openzeppelin/contracts/access/Ownable.sol\":1322:1353  OwnableInvalidOwner(address(0)) */\n  mload(0x40)\n  0x1e4fbdf700000000000000000000000000000000000000000000000000000000\n  dup2\n  mstore\n  0x04\n  add\n  tag_8\n  swap2\n  swap1\n  tag_9\n  jump\t// in\ntag_8:\n  mload(0x40)\n  dup1\n  swap2\n  sub\n  swap1\n  revert\n    /* \"@openzeppelin/contracts/access/Ownable.sol\":1269:1364  if (initialOwner == address(0)) {... */\ntag_7:\n    /* \"@openzeppelin/contracts/access/Ownable.sol\":1373:1405  _transferOwnership(initialOwner) */\n  tag_10\n    /* \"@openzeppelin/contracts/access/Ownable.sol\":1392:1404  initialOwner */\n  dup2\n    /* \"@openzeppelin/contracts/access/Ownable.sol\":1373:1391  _transferOwnership */\n  shl(0x20, tag_11)\n    /* \"@openzeppelin/contracts/access/Ownable.sol\":1373:1405  _transferOwnership(initialOwner) */\n  0x20\n  shr\n  jump\t// in\ntag_10:\n    /* \"@openzeppelin/contracts/access/Ownable.sol\":1225:1412  constructor(address initialOwner) {... */\n  pop\n    /* \"Evm/core/base/vault.sol\":1297:1304  _events */\n  dup4\n    /* \"Evm/core/base/vault.sol\":1280:1305  events = IEvents(_events) */\n  0xffffffffffffffffffffffffffffffffffffffff\n  and\n  0xa0\n  dup2\n  0xffffffffffffffffffffffffffffffffffffffff\n  and\n  dup2\n  mstore\n  pop\n  pop\n    /* \"Evm/core/base/vault.sol\":1347:1365  _variablesRegistry */\n  dup3\n    /* \"Evm/core/base/vault.sol\":1316:1366  variablesRegistry = IVariables(_variablesRegistry) */\n  0xffffffffffffffffffffffffffffffffffffffff\n  and\n  0x80\n  dup2\n  0xffffffffffffffffffffffffffffffffffffffff\n  and\n  dup2\n  mstore\n  pop\n  pop\n    /* \"Evm/core/base/vault.sol\":1392:1405  _providerName */\n  dup1\n    /* \"Evm/core/base/vault.sol\":1377:1389  providerName */\n  0x01\n    /* \"Evm/core/base/vault.sol\":1377:1405  providerName = _providerName */\n  swap1\n  dup2\n  tag_13\n  swap2\n  swap1\n  tag_14\n  jump\t// in\ntag_13:\n  pop\n    /* \"Evm/core/base/vault.sol\":1098:1413  constructor(... */\n  pop\n  pop\n  pop\n  pop\n    /* \"Evm/core/base/vault.sol\":561:6110  contract QiaraMultiAssetVault is Ownable {... */\n  jump(tag_15)\n    /* \"@openzeppelin/contracts/access/Ownable.sol\":2912:3099  function _transferOwnership(address newOwner) internal virtual {... */\ntag_11:\n    /* \"@openzeppelin/contracts/access/Ownable.sol\":2985:3001  address oldOwner */\n  0x00\n    /* \"@openzeppelin/contracts/access/Ownable.sol\":3004:3010  _owner */\n  0x00\n  0x00\n  swap1\n  sload\n  swap1\n  0x0100\n  exp\n  swap1\n  div\n  0xffffffffffffffffffffffffffffffffffffffff\n  and\n    /* \"@openzeppelin/contracts/access/Ownable.sol\":2985:3010  address oldOwner = _owner */\n  swap1\n  pop\n    /* \"@openzeppelin/contracts/access/Ownable.sol\":3029:3037  newOwner */\n  dup2\n    /* \"@openzeppelin/contracts/access/Ownable.sol\":3020:3026  _owner */\n  0x00\n  0x00\n    /* \"@openzeppelin/contracts/access/Ownable.sol\":3020:3037  _owner = newOwner */\n  0x0100\n  exp\n  dup2\n  sload\n  dup2\n  0xffffffffffffffffffffffffffffffffffffffff\n  mul\n  not\n  and\n  swap1\n  dup4\n  0xffffffffffffffffffffffffffffffffffffffff\n  and\n  mul\n  or\n  swap1\n  sstore\n  pop\n    /* \"@openzeppelin/contracts/access/Ownable.sol\":3083:3091  newOwner */\n  dup2\n    /* \"@openzeppelin/contracts/access/Ownable.sol\":3052:3092  OwnershipTransferred(oldOwner, newOwner) */\n  0xffffffffffffffffffffffffffffffffffffffff\n  and\n    /* \"@openzeppelin/contracts/access/Ownable.sol\":3073:3081  oldOwner */\n  dup2\n    /* \"@openzeppelin/contracts/access/Ownable.sol\":3052:3092  OwnershipTransferred(oldOwner, newOwner) */\n  0xffffffffffffffffffffffffffffffffffffffff\n  and\n  0x8be0079c531659141344cd1fd0a4f28419497f9722a3daafe3b4186f6b6457e0\n  mload(0x40)\n  mload(0x40)\n  dup1\n  swap2\n  sub\n  swap1\n  log3\n    /* \"@openzeppelin/contracts/access/Ownable.sol\":2975:3099  {... */\n  pop\n    /* \"@openzeppelin/contracts/access/Ownable.sol\":2912:3099  function _transferOwnership(address newOwner) internal virtual {... */\n  pop\n  jump\t// out\n    /* \"#utility.yul\":7:82   */\ntag_17:\n    /* \"#utility.yul\":40:46   */\n  0x00\n    /* \"#utility.yul\":73:75   */\n  0x40\n    /* \"#utility.yul\":67:76   */\n  mload\n    /* \"#utility.yul\":57:76   */\n  swap1\n  pop\n    /* \"#utility.yul\":7:82   */\n  swap1\n  jump\t// out\n    /* \"#utility.yul\":88:205   */\ntag_18:\n    /* \"#utility.yul\":197:198   */\n  0x00\n    /* \"#utility.yul\":194:195   */\n  0x00\n    /* \"#utility.yul\":187:199   */\n  revert\n    /* \"#utility.yul\":211:328   */\ntag_19:\n    /* \"#utility.yul\":320:321   */\n  0x00\n    /* \"#utility.yul\":317:318   */\n  0x00\n    /* \"#utility.yul\":310:322   */\n  revert\n    /* \"#utility.yul\":334:460   */\ntag_20:\n    /* \"#utility.yul\":371:378   */\n  0x00\n    /* \"#utility.yul\":411:453   */\n  0xffffffffffffffffffffffffffffffffffffffff\n    /* \"#utility.yul\":404:409   */\n  dup3\n    /* \"#utility.yul\":400:454   */\n  and\n    /* \"#utility.yul\":389:454   */\n  swap1\n  pop\n    /* \"#utility.yul\":334:460   */\n  swap2\n  swap1\n  pop\n  jump\t// out\n    /* \"#utility.yul\":466:562   */\ntag_21:\n    /* \"#utility.yul\":503:510   */\n  0x00\n    /* \"#utility.yul\":532:556   */\n  tag_60\n    /* \"#utility.yul\":550:555   */\n  dup3\n    /* \"#utility.yul\":532:556   */\n  tag_20\n  jump\t// in\ntag_60:\n    /* \"#utility.yul\":521:556   */\n  swap1\n  pop\n    /* \"#utility.yul\":466:562   */\n  swap2\n  swap1\n  pop\n  jump\t// out\n    /* \"#utility.yul\":568:690   */\ntag_22:\n    /* \"#utility.yul\":641:665   */\n  tag_62\n    /* \"#utility.yul\":659:664   */\n  dup2\n    /* \"#utility.yul\":641:665   */\n  tag_21\n  jump\t// in\ntag_62:\n    /* \"#utility.yul\":634:639   */\n  dup2\n    /* \"#utility.yul\":631:666   */\n  eq\n    /* \"#utility.yul\":621:684   */\n  tag_63\n  jumpi\n    /* \"#utility.yul\":680:681   */\n  0x00\n    /* \"#utility.yul\":677:678   */\n  0x00\n    /* \"#utility.yul\":670:682   */\n  revert\n    /* \"#utility.yul\":621:684   */\ntag_63:\n    /* \"#utility.yul\":568:690   */\n  pop\n  jump\t// out\n    /* \"#utility.yul\":696:839   */\ntag_23:\n    /* \"#utility.yul\":753:758   */\n  0x00\n    /* \"#utility.yul\":784:790   */\n  dup2\n    /* \"#utility.yul\":778:791   */\n  mload\n    /* \"#utility.yul\":769:791   */\n  swap1\n  pop\n    /* \"#utility.yul\":800:833   */\n  tag_65\n    /* \"#utility.yul\":827:832   */\n  dup2\n    /* \"#utility.yul\":800:833   */\n  tag_22\n  jump\t// in\ntag_65:\n    /* \"#utility.yul\":696:839   */\n  swap3\n  swap2\n  pop\n  pop\n  jump\t// out\n    /* \"#utility.yul\":845:962   */\ntag_24:\n    /* \"#utility.yul\":954:955   */\n  0x00\n    /* \"#utility.yul\":951:952   */\n  0x00\n    /* \"#utility.yul\":944:956   */\n  revert\n    /* \"#utility.yul\":968:1085   */\ntag_25:\n    /* \"#utility.yul\":1077:1078   */\n  0x00\n    /* \"#utility.yul\":1074:1075   */\n  0x00\n    /* \"#utility.yul\":1067:1079   */\n  revert\n    /* \"#utility.yul\":1091:1193   */\ntag_26:\n    /* \"#utility.yul\":1132:1138   */\n  0x00\n    /* \"#utility.yul\":1183:1185   */\n  0x1f\n    /* \"#utility.yul\":1179:1186   */\n  not\n    /* \"#utility.yul\":1174:1176   */\n  0x1f\n    /* \"#utility.yul\":1167:1172   */\n  dup4\n    /* \"#utility.yul\":1163:1177   */\n  add\n    /* \"#utility.yul\":1159:1187   */\n  and\n    /* \"#utility.yul\":1149:1187   */\n  swap1\n  pop\n    /* \"#utility.yul\":1091:1193   */\n  swap2\n  swap1\n  pop\n  jump\t// out\n    /* \"#utility.yul\":1199:1379   */\ntag_27:\n    /* \"#utility.yul\":1247:1324   */\n  0x4e487b7100000000000000000000000000000000000000000000000000000000\n    /* \"#utility.yul\":1244:1245   */\n  0x00\n    /* \"#utility.yul\":1237:1325   */\n  mstore\n    /* \"#utility.yul\":1344:1348   */\n  0x41\n    /* \"#utility.yul\":1341:1342   */\n  0x04\n    /* \"#utility.yul\":1334:1349   */\n  mstore\n    /* \"#utility.yul\":1368:1372   */\n  0x24\n    /* \"#utility.yul\":1365:1366   */\n  0x00\n    /* \"#utility.yul\":1358:1373   */\n  revert\n    /* \"#utility.yul\":1385:1666   */\ntag_28:\n    /* \"#utility.yul\":1468:1495   */\n  tag_71\n    /* \"#utility.yul\":1490:1494   */\n  dup3\n    /* \"#utility.yul\":1468:1495   */\n  tag_26\n  jump\t// in\ntag_71:\n    /* \"#utility.yul\":1460:1466   */\n  dup2\n    /* \"#utility.yul\":1456:1496   */\n  add\n    /* \"#utility.yul\":1598:1604   */\n  dup2\n    /* \"#utility.yul\":1586:1596   */\n  dup2\n    /* \"#utility.yul\":1583:1605   */\n  lt\n    /* \"#utility.yul\":1562:1580   */\n  0xffffffffffffffff\n    /* \"#utility.yul\":1550:1560   */\n  dup3\n    /* \"#utility.yul\":1547:1581   */\n  gt\n    /* \"#utility.yul\":1544:1606   */\n  or\n    /* \"#utility.yul\":1541:1629   */\n  iszero\n  tag_72\n  jumpi\n    /* \"#utility.yul\":1609:1627   */\n  tag_73\n  tag_27\n  jump\t// in\ntag_73:\n    /* \"#utility.yul\":1541:1629   */\ntag_72:\n    /* \"#utility.yul\":1649:1659   */\n  dup1\n    /* \"#utility.yul\":1645:1647   */\n  0x40\n    /* \"#utility.yul\":1638:1660   */\n  mstore\n    /* \"#utility.yul\":1428:1666   */\n  pop\n    /* \"#utility.yul\":1385:1666   */\n  pop\n  pop\n  jump\t// out\n    /* \"#utility.yul\":1672:1801   */\ntag_29:\n    /* \"#utility.yul\":1706:1712   */\n  0x00\n    /* \"#utility.yul\":1733:1753   */\n  tag_75\n  tag_17\n  jump\t// in\ntag_75:\n    /* \"#utility.yul\":1723:1753   */\n  swap1\n  pop\n    /* \"#utility.yul\":1762:1795   */\n  tag_76\n    /* \"#utility.yul\":1790:1794   */\n  dup3\n    /* \"#utility.yul\":1782:1788   */\n  dup3\n    /* \"#utility.yul\":1762:1795   */\n  tag_28\n  jump\t// in\ntag_76:\n    /* \"#utility.yul\":1672:1801   */\n  swap2\n  swap1\n  pop\n  jump\t// out\n    /* \"#utility.yul\":1807:2115   */\ntag_30:\n    /* \"#utility.yul\":1869:1873   */\n  0x00\n    /* \"#utility.yul\":1959:1977   */\n  0xffffffffffffffff\n    /* \"#utility.yul\":1951:1957   */\n  dup3\n    /* \"#utility.yul\":1948:1978   */\n  gt\n    /* \"#utility.yul\":1945:2001   */\n  iszero\n  tag_78\n  jumpi\n    /* \"#utility.yul\":1981:1999   */\n  tag_79\n  tag_27\n  jump\t// in\ntag_79:\n    /* \"#utility.yul\":1945:2001   */\ntag_78:\n    /* \"#utility.yul\":2019:2048   */\n  tag_80\n    /* \"#utility.yul\":2041:2047   */\n  dup3\n    /* \"#utility.yul\":2019:2048   */\n  tag_26\n  jump\t// in\ntag_80:\n    /* \"#utility.yul\":2011:2048   */\n  swap1\n  pop\n    /* \"#utility.yul\":2103:2107   */\n  0x20\n    /* \"#utility.yul\":2097:2101   */\n  dup2\n    /* \"#utility.yul\":2093:2108   */\n  add\n    /* \"#utility.yul\":2085:2108   */\n  swap1\n  pop\n    /* \"#utility.yul\":1807:2115   */\n  swap2\n  swap1\n  pop\n  jump\t// out\n    /* \"#utility.yul\":2121:2260   */\ntag_31:\n    /* \"#utility.yul\":2210:2216   */\n  dup3\n    /* \"#utility.yul\":2205:2208   */\n  dup2\n    /* \"#utility.yul\":2200:2203   */\n  dup4\n    /* \"#utility.yul\":2194:2217   */\n  mcopy\n    /* \"#utility.yul\":2251:2252   */\n  0x00\n    /* \"#utility.yul\":2242:2248   */\n  dup4\n    /* \"#utility.yul\":2237:2240   */\n  dup4\n    /* \"#utility.yul\":2233:2249   */\n  add\n    /* \"#utility.yul\":2226:2253   */\n  mstore\n    /* \"#utility.yul\":2121:2260   */\n  pop\n  pop\n  pop\n  jump\t// out\n    /* \"#utility.yul\":2266:2700   */\ntag_32:\n    /* \"#utility.yul\":2355:2360   */\n  0x00\n    /* \"#utility.yul\":2380:2446   */\n  tag_83\n    /* \"#utility.yul\":2396:2445   */\n  tag_84\n    /* \"#utility.yul\":2438:2444   */\n  dup5\n    /* \"#utility.yul\":2396:2445   */\n  tag_30\n  jump\t// in\ntag_84:\n    /* \"#utility.yul\":2380:2446   */\n  tag_29\n  jump\t// in\ntag_83:\n    /* \"#utility.yul\":2371:2446   */\n  swap1\n  pop\n    /* \"#utility.yul\":2469:2475   */\n  dup3\n    /* \"#utility.yul\":2462:2467   */\n  dup2\n    /* \"#utility.yul\":2455:2476   */\n  mstore\n    /* \"#utility.yul\":2507:2511   */\n  0x20\n    /* \"#utility.yul\":2500:2505   */\n  dup2\n    /* \"#utility.yul\":2496:2512   */\n  add\n    /* \"#utility.yul\":2545:2548   */\n  dup5\n    /* \"#utility.yul\":2536:2542   */\n  dup5\n    /* \"#utility.yul\":2531:2534   */\n  dup5\n    /* \"#utility.yul\":2527:2543   */\n  add\n    /* \"#utility.yul\":2524:2549   */\n  gt\n    /* \"#utility.yul\":2521:2633   */\n  iszero\n  tag_85\n  jumpi\n    /* \"#utility.yul\":2552:2631   */\n  tag_86\n  tag_25\n  jump\t// in\ntag_86:\n    /* \"#utility.yul\":2521:2633   */\ntag_85:\n    /* \"#utility.yul\":2642:2694   */\n  tag_87\n    /* \"#utility.yul\":2687:2693   */\n  dup5\n    /* \"#utility.yul\":2682:2685   */\n  dup3\n    /* \"#utility.yul\":2677:2680   */\n  dup6\n    /* \"#utility.yul\":2642:2694   */\n  tag_31\n  jump\t// in\ntag_87:\n    /* \"#utility.yul\":2361:2700   */\n  pop\n    /* \"#utility.yul\":2266:2700   */\n  swap4\n  swap3\n  pop\n  pop\n  pop\n  jump\t// out\n    /* \"#utility.yul\":2720:3075   */\ntag_33:\n    /* \"#utility.yul\":2787:2792   */\n  0x00\n    /* \"#utility.yul\":2836:2839   */\n  dup3\n    /* \"#utility.yul\":2829:2833   */\n  0x1f\n    /* \"#utility.yul\":2821:2827   */\n  dup4\n    /* \"#utility.yul\":2817:2834   */\n  add\n    /* \"#utility.yul\":2813:2840   */\n  slt\n    /* \"#utility.yul\":2803:2925   */\n  tag_89\n  jumpi\n    /* \"#utility.yul\":2844:2923   */\n  tag_90\n  tag_24\n  jump\t// in\ntag_90:\n    /* \"#utility.yul\":2803:2925   */\ntag_89:\n    /* \"#utility.yul\":2954:2960   */\n  dup2\n    /* \"#utility.yul\":2948:2961   */\n  mload\n    /* \"#utility.yul\":2979:3069   */\n  tag_91\n    /* \"#utility.yul\":3065:3068   */\n  dup5\n    /* \"#utility.yul\":3057:3063   */\n  dup3\n    /* \"#utility.yul\":3050:3054   */\n  0x20\n    /* \"#utility.yul\":3042:3048   */\n  dup7\n    /* \"#utility.yul\":3038:3055   */\n  add\n    /* \"#utility.yul\":2979:3069   */\n  tag_32\n  jump\t// in\ntag_91:\n    /* \"#utility.yul\":2970:3069   */\n  swap2\n  pop\n    /* \"#utility.yul\":2793:3075   */\n  pop\n    /* \"#utility.yul\":2720:3075   */\n  swap3\n  swap2\n  pop\n  pop\n  jump\t// out\n    /* \"#utility.yul\":3081:4074   */\ntag_3:\n    /* \"#utility.yul\":3188:3194   */\n  0x00\n    /* \"#utility.yul\":3196:3202   */\n  0x00\n    /* \"#utility.yul\":3204:3210   */\n  0x00\n    /* \"#utility.yul\":3212:3218   */\n  0x00\n    /* \"#utility.yul\":3261:3264   */\n  0x80\n    /* \"#utility.yul\":3249:3258   */\n  dup6\n    /* \"#utility.yul\":3240:3247   */\n  dup8\n    /* \"#utility.yul\":3236:3259   */\n  sub\n    /* \"#utility.yul\":3232:3265   */\n  slt\n    /* \"#utility.yul\":3229:3349   */\n  iszero\n  tag_93\n  jumpi\n    /* \"#utility.yul\":3268:3347   */\n  tag_94\n  tag_18\n  jump\t// in\ntag_94:\n    /* \"#utility.yul\":3229:3349   */\ntag_93:\n    /* \"#utility.yul\":3388:3389   */\n  0x00\n    /* \"#utility.yul\":3413:3477   */\n  tag_95\n    /* \"#utility.yul\":3469:3476   */\n  dup8\n    /* \"#utility.yul\":3460:3466   */\n  dup3\n    /* \"#utility.yul\":3449:3458   */\n  dup9\n    /* \"#utility.yul\":3445:3467   */\n  add\n    /* \"#utility.yul\":3413:3477   */\n  tag_23\n  jump\t// in\ntag_95:\n    /* \"#utility.yul\":3403:3477   */\n  swap5\n  pop\n    /* \"#utility.yul\":3359:3487   */\n  pop\n    /* \"#utility.yul\":3526:3528   */\n  0x20\n    /* \"#utility.yul\":3552:3616   */\n  tag_96\n    /* \"#utility.yul\":3608:3615   */\n  dup8\n    /* \"#utility.yul\":3599:3605   */\n  dup3\n    /* \"#utility.yul\":3588:3597   */\n  dup9\n    /* \"#utility.yul\":3584:3606   */\n  add\n    /* \"#utility.yul\":3552:3616   */\n  tag_23\n  jump\t// in\ntag_96:\n    /* \"#utility.yul\":3542:3616   */\n  swap4\n  pop\n    /* \"#utility.yul\":3497:3626   */\n  pop\n    /* \"#utility.yul\":3665:3667   */\n  0x40\n    /* \"#utility.yul\":3691:3755   */\n  tag_97\n    /* \"#utility.yul\":3747:3754   */\n  dup8\n    /* \"#utility.yul\":3738:3744   */\n  dup3\n    /* \"#utility.yul\":3727:3736   */\n  dup9\n    /* \"#utility.yul\":3723:3745   */\n  add\n    /* \"#utility.yul\":3691:3755   */\n  tag_23\n  jump\t// in\ntag_97:\n    /* \"#utility.yul\":3681:3755   */\n  swap3\n  pop\n    /* \"#utility.yul\":3636:3765   */\n  pop\n    /* \"#utility.yul\":3825:3827   */\n  0x60\n    /* \"#utility.yul\":3814:3823   */\n  dup6\n    /* \"#utility.yul\":3810:3828   */\n  add\n    /* \"#utility.yul\":3804:3829   */\n  mload\n    /* \"#utility.yul\":3856:3874   */\n  0xffffffffffffffff\n    /* \"#utility.yul\":3848:3854   */\n  dup2\n    /* \"#utility.yul\":3845:3875   */\n  gt\n    /* \"#utility.yul\":3842:3959   */\n  iszero\n  tag_98\n  jumpi\n    /* \"#utility.yul\":3878:3957   */\n  tag_99\n  tag_19\n  jump\t// in\ntag_99:\n    /* \"#utility.yul\":3842:3959   */\ntag_98:\n    /* \"#utility.yul\":3983:4057   */\n  tag_100\n    /* \"#utility.yul\":4049:4056   */\n  dup8\n    /* \"#utility.yul\":4040:4046   */\n  dup3\n    /* \"#utility.yul\":4029:4038   */\n  dup9\n    /* \"#utility.yul\":4025:4047   */\n  add\n    /* \"#utility.yul\":3983:4057   */\n  tag_33\n  jump\t// in\ntag_100:\n    /* \"#utility.yul\":3973:4057   */\n  swap2\n  pop\n    /* \"#utility.yul\":3775:4067   */\n  pop\n    /* \"#utility.yul\":3081:4074   */\n  swap3\n  swap6\n  swap2\n  swap5\n  pop\n  swap3\n  pop\n  jump\t// out\n    /* \"#utility.yul\":4080:4198   */\ntag_34:\n    /* \"#utility.yul\":4167:4191   */\n  tag_102\n    /* \"#utility.yul\":4185:4190   */\n  dup2\n    /* \"#utility.yul\":4167:4191   */\n  tag_21\n  jump\t// in\ntag_102:\n    /* \"#utility.yul\":4162:4165   */\n  dup3\n    /* \"#utility.yul\":4155:4192   */\n  mstore\n    /* \"#utility.yul\":4080:4198   */\n  pop\n  pop\n  jump\t// out\n    /* \"#utility.yul\":4204:4426   */\ntag_9:\n    /* \"#utility.yul\":4297:4301   */\n  0x00\n    /* \"#utility.yul\":4335:4337   */\n  0x20\n    /* \"#utility.yul\":4324:4333   */\n  dup3\n    /* \"#utility.yul\":4320:4338   */\n  add\n    /* \"#utility.yul\":4312:4338   */\n  swap1\n  pop\n    /* \"#utility.yul\":4348:4419   */\n  tag_104\n    /* \"#utility.yul\":4416:4417   */\n  0x00\n    /* \"#utility.yul\":4405:4414   */\n  dup4\n    /* \"#utility.yul\":4401:4418   */\n  add\n    /* \"#utility.yul\":4392:4398   */\n  dup5\n    /* \"#utility.yul\":4348:4419   */\n  tag_34\n  jump\t// in\ntag_104:\n    /* \"#utility.yul\":4204:4426   */\n  swap3\n  swap2\n  pop\n  pop\n  jump\t// out\n    /* \"#utility.yul\":4432:4531   */\ntag_35:\n    /* \"#utility.yul\":4484:4490   */\n  0x00\n    /* \"#utility.yul\":4518:4523   */\n  dup2\n    /* \"#utility.yul\":4512:4524   */\n  mload\n    /* \"#utility.yul\":4502:4524   */\n  swap1\n  pop\n    /* \"#utility.yul\":4432:4531   */\n  swap2\n  swap1\n  pop\n  jump\t// out\n    /* \"#utility.yul\":4537:4717   */\ntag_36:\n    /* \"#utility.yul\":4585:4662   */\n  0x4e487b7100000000000000000000000000000000000000000000000000000000\n    /* \"#utility.yul\":4582:4583   */\n  0x00\n    /* \"#utility.yul\":4575:4663   */\n  mstore\n    /* \"#utility.yul\":4682:4686   */\n  0x22\n    /* \"#utility.yul\":4679:4680   */\n  0x04\n    /* \"#utility.yul\":4672:4687   */\n  mstore\n    /* \"#utility.yul\":4706:4710   */\n  0x24\n    /* \"#utility.yul\":4703:4704   */\n  0x00\n    /* \"#utility.yul\":4696:4711   */\n  revert\n    /* \"#utility.yul\":4723:5043   */\ntag_37:\n    /* \"#utility.yul\":4767:4773   */\n  0x00\n    /* \"#utility.yul\":4804:4805   */\n  0x02\n    /* \"#utility.yul\":4798:4802   */\n  dup3\n    /* \"#utility.yul\":4794:4806   */\n  div\n    /* \"#utility.yul\":4784:4806   */\n  swap1\n  pop\n    /* \"#utility.yul\":4851:4852   */\n  0x01\n    /* \"#utility.yul\":4845:4849   */\n  dup3\n    /* \"#utility.yul\":4841:4853   */\n  and\n    /* \"#utility.yul\":4872:4890   */\n  dup1\n    /* \"#utility.yul\":4862:4943   */\n  tag_108\n  jumpi\n    /* \"#utility.yul\":4928:4932   */\n  0x7f\n    /* \"#utility.yul\":4920:4926   */\n  dup3\n    /* \"#utility.yul\":4916:4933   */\n  and\n    /* \"#utility.yul\":4906:4933   */\n  swap2\n  pop\n    /* \"#utility.yul\":4862:4943   */\ntag_108:\n    /* \"#utility.yul\":4990:4992   */\n  0x20\n    /* \"#utility.yul\":4982:4988   */\n  dup3\n    /* \"#utility.yul\":4979:4993   */\n  lt\n    /* \"#utility.yul\":4959:4977   */\n  dup2\n    /* \"#utility.yul\":4956:4994   */\n  sub\n    /* \"#utility.yul\":4953:5037   */\n  tag_109\n  jumpi\n    /* \"#utility.yul\":5009:5027   */\n  tag_110\n  tag_36\n  jump\t// in\ntag_110:\n    /* \"#utility.yul\":4953:5037   */\ntag_109:\n    /* \"#utility.yul\":4774:5043   */\n  pop\n    /* \"#utility.yul\":4723:5043   */\n  swap2\n  swap1\n  pop\n  jump\t// out\n    /* \"#utility.yul\":5049:5190   */\ntag_38:\n    /* \"#utility.yul\":5098:5102   */\n  0x00\n    /* \"#utility.yul\":5121:5124   */\n  dup2\n    /* \"#utility.yul\":5113:5124   */\n  swap1\n  pop\n    /* \"#utility.yul\":5144:5147   */\n  dup2\n    /* \"#utility.yul\":5141:5142   */\n  0x00\n    /* \"#utility.yul\":5134:5148   */\n  mstore\n    /* \"#utility.yul\":5178:5182   */\n  0x20\n    /* \"#utility.yul\":5175:5176   */\n  0x00\n    /* \"#utility.yul\":5165:5183   */\n  keccak256\n    /* \"#utility.yul\":5157:5183   */\n  swap1\n  pop\n    /* \"#utility.yul\":5049:5190   */\n  swap2\n  swap1\n  pop\n  jump\t// out\n    /* \"#utility.yul\":5196:5289   */\ntag_39:\n    /* \"#utility.yul\":5233:5239   */\n  0x00\n    /* \"#utility.yul\":5280:5282   */\n  0x20\n    /* \"#utility.yul\":5275:5277   */\n  0x1f\n    /* \"#utility.yul\":5268:5273   */\n  dup4\n    /* \"#utility.yul\":5264:5278   */\n  add\n    /* \"#utility.yul\":5260:5283   */\n  div\n    /* \"#utility.yul\":5250:5283   */\n  swap1\n  pop\n    /* \"#utility.yul\":5196:5289   */\n  swap2\n  swap1\n  pop\n  jump\t// out\n    /* \"#utility.yul\":5295:5402   */\ntag_40:\n    /* \"#utility.yul\":5339:5347   */\n  0x00\n    /* \"#utility.yul\":5389:5394   */\n  dup3\n    /* \"#utility.yul\":5383:5387   */\n  dup3\n    /* \"#utility.yul\":5379:5395   */\n  shl\n    /* \"#utility.yul\":5358:5395   */\n  swap1\n  pop\n    /* \"#utility.yul\":5295:5402   */\n  swap3\n  swap2\n  pop\n  pop\n  jump\t// out\n    /* \"#utility.yul\":5408:5801   */\ntag_41:\n    /* \"#utility.yul\":5477:5483   */\n  0x00\n    /* \"#utility.yul\":5527:5528   */\n  0x08\n    /* \"#utility.yul\":5515:5525   */\n  dup4\n    /* \"#utility.yul\":5511:5529   */\n  mul\n    /* \"#utility.yul\":5550:5647   */\n  tag_115\n    /* \"#utility.yul\":5580:5646   */\n  0xffffffffffffffffffffffffffffffffffffffffffffffffffffffffffffffff\n    /* \"#utility.yul\":5569:5578   */\n  dup3\n    /* \"#utility.yul\":5550:5647   */\n  tag_40\n  jump\t// in\ntag_115:\n    /* \"#utility.yul\":5668:5707   */\n  tag_116\n    /* \"#utility.yul\":5698:5706   */\n  dup7\n    /* \"#utility.yul\":5687:5696   */\n  dup4\n    /* \"#utility.yul\":5668:5707   */\n  tag_40\n  jump\t// in\ntag_116:\n    /* \"#utility.yul\":5656:5707   */\n  swap6\n  pop\n    /* \"#utility.yul\":5740:5744   */\n  dup1\n    /* \"#utility.yul\":5736:5745   */\n  not\n    /* \"#utility.yul\":5729:5734   */\n  dup5\n    /* \"#utility.yul\":5725:5746   */\n  and\n    /* \"#utility.yul\":5716:5746   */\n  swap4\n  pop\n    /* \"#utility.yul\":5789:5793   */\n  dup1\n    /* \"#utility.yul\":5779:5787   */\n  dup7\n    /* \"#utility.yul\":5775:5794   */\n  and\n    /* \"#utility.yul\":5768:5773   */\n  dup5\n    /* \"#utility.yul\":5765:5795   */\n  or\n    /* \"#utility.yul\":5755:5795   */\n  swap3\n  pop\n    /* \"#utility.yul\":5484:5801   */\n  pop\n  pop\n    /* \"#utility.yul\":5408:5801   */\n  swap4\n  swap3\n  pop\n  pop\n  pop\n  jump\t// out\n    /* \"#utility.yul\":5807:5884   */\ntag_42:\n    /* \"#utility.yul\":5844:5851   */\n  0x00\n    /* \"#utility.yul\":5873:5878   */\n  dup2\n    /* \"#utility.yul\":5862:5878   */\n  swap1\n  pop\n    /* \"#utility.yul\":5807:5884   */\n  swap2\n  swap1\n  pop\n  jump\t// out\n    /* \"#utility.yul\":5890:5950   */\ntag_43:\n    /* \"#utility.yul\":5918:5921   */\n  0x00\n    /* \"#utility.yul\":5939:5944   */\n  dup2\n    /* \"#utility.yul\":5932:5944   */\n  swap1\n  pop\n    /* \"#utility.yul\":5890:5950   */\n  swap2\n  swap1\n  pop\n  jump\t// out\n    /* \"#utility.yul\":5956:6098   */\ntag_44:\n    /* \"#utility.yul\":6006:6015   */\n  0x00\n    /* \"#utility.yul\":6039:6092   */\n  tag_120\n    /* \"#utility.yul\":6057:6091   */\n  tag_121\n    /* \"#utility.yul\":6066:6090   */\n  tag_122\n    /* \"#utility.yul\":6084:6089   */\n  dup5\n    /* \"#utility.yul\":6066:6090   */\n  tag_42\n  jump\t// in\ntag_122:\n    /* \"#utility.yul\":6057:6091   */\n  tag_43\n  jump\t// in\ntag_121:\n    /* \"#utility.yul\":6039:6092   */\n  tag_42\n  jump\t// in\ntag_120:\n    /* \"#utility.yul\":6026:6092   */\n  swap1\n  pop\n    /* \"#utility.yul\":5956:6098   */\n  swap2\n  swap1\n  pop\n  jump\t// out\n    /* \"#utility.yul\":6104:6179   */\ntag_45:\n    /* \"#utility.yul\":6147:6150   */\n  0x00\n    /* \"#utility.yul\":6168:6173   */\n  dup2\n    /* \"#utility.yul\":6161:6173   */\n  swap1\n  pop\n    /* \"#utility.yul\":6104:6179   */\n  swap2\n  swap1\n  pop\n  jump\t// out\n    /* \"#utility.yul\":6185:6454   */\ntag_46:\n    /* \"#utility.yul\":6295:6334   */\n  tag_125\n    /* \"#utility.yul\":6326:6333   */\n  dup4\n    /* \"#utility.yul\":6295:6334   */\n  tag_44\n  jump\t// in\ntag_125:\n    /* \"#utility.yul\":6356:6447   */\n  tag_126\n    /* \"#utility.yul\":6405:6446   */\n  tag_127\n    /* \"#utility.yul\":6429:6445   */\n  dup3\n    /* \"#utility.yul\":6405:6446   */\n  tag_45\n  jump\t// in\ntag_127:\n    /* \"#utility.yul\":6397:6403   */\n  dup5\n    /* \"#utility.yul\":6390:6394   */\n  dup5\n    /* \"#utility.yul\":6384:6395   */\n  sload\n    /* \"#utility.yul\":6356:6447   */\n  tag_41\n  jump\t// in\ntag_126:\n    /* \"#utility.yul\":6350:6354   */\n  dup3\n    /* \"#utility.yul\":6343:6448   */\n  sstore\n    /* \"#utility.yul\":6261:6454   */\n  pop\n    /* \"#utility.yul\":6185:6454   */\n  pop\n  pop\n  pop\n  jump\t// out\n    /* \"#utility.yul\":6460:6533   */\ntag_47:\n    /* \"#utility.yul\":6505:6508   */\n  0x00\n    /* \"#utility.yul\":6526:6527   */\n  0x00\n    /* \"#utility.yul\":6519:6527   */\n  swap1\n  pop\n    /* \"#utility.yul\":6460:6533   */\n  swap1\n  jump\t// out\n    /* \"#utility.yul\":6539:6728   */\ntag_48:\n    /* \"#utility.yul\":6616:6648   */\n  tag_130\n  tag_47\n  jump\t// in\ntag_130:\n    /* \"#utility.yul\":6657:6722   */\n  tag_131\n    /* \"#utility.yul\":6715:6721   */\n  dup2\n    /* \"#utility.yul\":6707:6713   */\n  dup5\n    /* \"#utility.yul\":6701:6705   */\n  dup5\n    /* \"#utility.yul\":6657:6722   */\n  tag_46\n  jump\t// in\ntag_131:\n    /* \"#utility.yul\":6592:6728   */\n  pop\n    /* \"#utility.yul\":6539:6728   */\n  pop\n  pop\n  jump\t// out\n    /* \"#utility.yul\":6734:6920   */\ntag_49:\n    /* \"#utility.yul\":6794:6914   */\ntag_133:\n    /* \"#utility.yul\":6811:6814   */\n  dup2\n    /* \"#utility.yul\":6804:6809   */\n  dup2\n    /* \"#utility.yul\":6801:6815   */\n  lt\n    /* \"#utility.yul\":6794:6914   */\n  iszero\n  tag_135\n  jumpi\n    /* \"#utility.yul\":6865:6904   */\n  tag_136\n    /* \"#utility.yul\":6902:6903   */\n  0x00\n    /* \"#utility.yul\":6895:6900   */\n  dup3\n    /* \"#utility.yul\":6865:6904   */\n  tag_48\n  jump\t// in\ntag_136:\n    /* \"#utility.yul\":6838:6839   */\n  0x01\n    /* \"#utility.yul\":6831:6836   */\n  dup2\n    /* \"#utility.yul\":6827:6840   */\n  add\n    /* \"#utility.yul\":6818:6840   */\n  swap1\n  pop\n    /* \"#utility.yul\":6794:6914   */\n  jump(tag_133)\ntag_135:\n    /* \"#utility.yul\":6734:6920   */\n  pop\n  pop\n  jump\t// out\n    /* \"#utility.yul\":6926:7469   */\ntag_50:\n    /* \"#utility.yul\":7027:7029   */\n  0x1f\n    /* \"#utility.yul\":7022:7025   */\n  dup3\n    /* \"#utility.yul\":7019:7030   */\n  gt\n    /* \"#utility.yul\":7016:7462   */\n  iszero\n  tag_138\n  jumpi\n    /* \"#utility.yul\":7061:7099   */\n  tag_139\n    /* \"#utility.yul\":7093:7098   */\n  dup2\n    /* \"#utility.yul\":7061:7099   */\n  tag_38\n  jump\t// in\ntag_139:\n    /* \"#utility.yul\":7145:7174   */\n  tag_140\n    /* \"#utility.yul\":7163:7173   */\n  dup5\n    /* \"#utility.yul\":7145:7174   */\n  tag_39\n  jump\t// in\ntag_140:\n    /* \"#utility.yul\":7135:7143   */\n  dup2\n    /* \"#utility.yul\":7131:7175   */\n  add\n    /* \"#utility.yul\":7328:7330   */\n  0x20\n    /* \"#utility.yul\":7316:7326   */\n  dup6\n    /* \"#utility.yul\":7313:7331   */\n  lt\n    /* \"#utility.yul\":7310:7359   */\n  iszero\n  tag_141\n  jumpi\n    /* \"#utility.yul\":7349:7357   */\n  dup2\n    /* \"#utility.yul\":7334:7357   */\n  swap1\n  pop\n    /* \"#utility.yul\":7310:7359   */\ntag_141:\n    /* \"#utility.yul\":7372:7452   */\n  tag_142\n    /* \"#utility.yul\":7428:7450   */\n  tag_143\n    /* \"#utility.yul\":7446:7449   */\n  dup6\n    /* \"#utility.yul\":7428:7450   */\n  tag_39\n  jump\t// in\ntag_143:\n    /* \"#utility.yul\":7418:7426   */\n  dup4\n    /* \"#utility.yul\":7414:7451   */\n  add\n    /* \"#utility.yul\":7401:7412   */\n  dup3\n    /* \"#utility.yul\":7372:7452   */\n  tag_49\n  jump\t// in\ntag_142:\n    /* \"#utility.yul\":7031:7462   */\n  pop\n  pop\n    /* \"#utility.yul\":7016:7462   */\ntag_138:\n    /* \"#utility.yul\":6926:7469   */\n  pop\n  pop\n  pop\n  jump\t// out\n    /* \"#utility.yul\":7475:7592   */\ntag_51:\n    /* \"#utility.yul\":7529:7537   */\n  0x00\n    /* \"#utility.yul\":7579:7584   */\n  dup3\n    /* \"#utility.yul\":7573:7577   */\n  dup3\n    /* \"#utility.yul\":7569:7585   */\n  shr\n    /* \"#utility.yul\":7548:7585   */\n  swap1\n  pop\n    /* \"#utility.yul\":7475:7592   */\n  swap3\n  swap2\n  pop\n  pop\n  jump\t// out\n    /* \"#utility.yul\":7598:7767   */\ntag_52:\n    /* \"#utility.yul\":7642:7648   */\n  0x00\n    /* \"#utility.yul\":7675:7726   */\n  tag_146\n    /* \"#utility.yul\":7723:7724   */\n  0x00\n    /* \"#utility.yul\":7719:7725   */\n  not\n    /* \"#utility.yul\":7711:7716   */\n  dup5\n    /* \"#utility.yul\":7708:7709   */\n  0x08\n    /* \"#utility.yul\":7704:7717   */\n  mul\n    /* \"#utility.yul\":7675:7726   */\n  tag_51\n  jump\t// in\ntag_146:\n    /* \"#utility.yul\":7671:7727   */\n  not\n    /* \"#utility.yul\":7756:7760   */\n  dup1\n    /* \"#utility.yul\":7750:7754   */\n  dup4\n    /* \"#utility.yul\":7746:7761   */\n  and\n    /* \"#utility.yul\":7736:7761   */\n  swap2\n  pop\n    /* \"#utility.yul\":7649:7767   */\n  pop\n    /* \"#utility.yul\":7598:7767   */\n  swap3\n  swap2\n  pop\n  pop\n  jump\t// out\n    /* \"#utility.yul\":7772:8067   */\ntag_53:\n    /* \"#utility.yul\":7848:7852   */\n  0x00\n    /* \"#utility.yul\":7994:8023   */\n  tag_148\n    /* \"#utility.yul\":8019:8022   */\n  dup4\n    /* \"#utility.yul\":8013:8017   */\n  dup4\n    /* \"#utility.yul\":7994:8023   */\n  tag_52\n  jump\t// in\ntag_148:\n    /* \"#utility.yul\":7986:8023   */\n  swap2\n  pop\n    /* \"#utility.yul\":8056:8059   */\n  dup3\n    /* \"#utility.yul\":8053:8054   */\n  0x02\n    /* \"#utility.yul\":8049:8060   */\n  mul\n    /* \"#utility.yul\":8043:8047   */\n  dup3\n    /* \"#utility.yul\":8040:8061   */\n  or\n    /* \"#utility.yul\":8032:8061   */\n  swap1\n  pop\n    /* \"#utility.yul\":7772:8067   */\n  swap3\n  swap2\n  pop\n  pop\n  jump\t// out\n    /* \"#utility.yul\":8072:9467   */\ntag_14:\n    /* \"#utility.yul\":8189:8226   */\n  tag_150\n    /* \"#utility.yul\":8222:8225   */\n  dup3\n    /* \"#utility.yul\":8189:8226   */\n  tag_35\n  jump\t// in\ntag_150:\n    /* \"#utility.yul\":8291:8309   */\n  0xffffffffffffffff\n    /* \"#utility.yul\":8283:8289   */\n  dup2\n    /* \"#utility.yul\":8280:8310   */\n  gt\n    /* \"#utility.yul\":8277:8333   */\n  iszero\n  tag_151\n  jumpi\n    /* \"#utility.yul\":8313:8331   */\n  tag_152\n  tag_27\n  jump\t// in\ntag_152:\n    /* \"#utility.yul\":8277:8333   */\ntag_151:\n    /* \"#utility.yul\":8357:8395   */\n  tag_153\n    /* \"#utility.yul\":8389:8393   */\n  dup3\n    /* \"#utility.yul\":8383:8394   */\n  sload\n    /* \"#utility.yul\":8357:8395   */\n  tag_37\n  jump\t// in\ntag_153:\n    /* \"#utility.yul\":8442:8509   */\n  tag_154\n    /* \"#utility.yul\":8502:8508   */\n  dup3\n    /* \"#utility.yul\":8494:8500   */\n  dup3\n    /* \"#utility.yul\":8488:8492   */\n  dup6\n    /* \"#utility.yul\":8442:8509   */\n  tag_50\n  jump\t// in\ntag_154:\n    /* \"#utility.yul\":8536:8537   */\n  0x00\n    /* \"#utility.yul\":8560:8564   */\n  0x20\n    /* \"#utility.yul\":8547:8564   */\n  swap1\n  pop\n    /* \"#utility.yul\":8592:8594   */\n  0x1f\n    /* \"#utility.yul\":8584:8590   */\n  dup4\n    /* \"#utility.yul\":8581:8595   */\n  gt\n    /* \"#utility.yul\":8609:8610   */\n  0x01\n    /* \"#utility.yul\":8604:9222   */\n  dup2\n  eq\n  tag_156\n  jumpi\n    /* \"#utility.yul\":9266:9267   */\n  0x00\n    /* \"#utility.yul\":9283:9289   */\n  dup5\n    /* \"#utility.yul\":9280:9357   */\n  iszero\n  tag_157\n  jumpi\n    /* \"#utility.yul\":9332:9341   */\n  dup3\n    /* \"#utility.yul\":9327:9330   */\n  dup8\n    /* \"#utility.yul\":9323:9342   */\n  add\n    /* \"#utility.yul\":9317:9343   */\n  mload\n    /* \"#utility.yul\":9308:9343   */\n  swap1\n  pop\n    /* \"#utility.yul\":9280:9357   */\ntag_157:\n    /* \"#utility.yul\":9383:9450   */\n  tag_158\n    /* \"#utility.yul\":9443:9449   */\n  dup6\n    /* \"#utility.yul\":9436:9441   */\n  dup3\n    /* \"#utility.yul\":9383:9450   */\n  tag_53\n  jump\t// in\ntag_158:\n    /* \"#utility.yul\":9377:9381   */\n  dup7\n    /* \"#utility.yul\":9370:9451   */\n  sstore\n    /* \"#utility.yul\":9239:9461   */\n  pop\n    /* \"#utility.yul\":8574:9461   */\n  jump(tag_155)\n    /* \"#utility.yul\":8604:9222   */\ntag_156:\n    /* \"#utility.yul\":8656:8660   */\n  0x1f\n    /* \"#utility.yul\":8652:8661   */\n  not\n    /* \"#utility.yul\":8644:8650   */\n  dup5\n    /* \"#utility.yul\":8640:8662   */\n  and\n    /* \"#utility.yul\":8690:8727   */\n  tag_159\n    /* \"#utility.yul\":8722:8726   */\n  dup7\n    /* \"#utility.yul\":8690:8727   */\n  tag_38\n  jump\t// in\ntag_159:\n    /* \"#utility.yul\":8749:8750   */\n  0x00\n    /* \"#utility.yul\":8763:8971   */\ntag_160:\n    /* \"#utility.yul\":8777:8784   */\n  dup3\n    /* \"#utility.yul\":8774:8775   */\n  dup2\n    /* \"#utility.yul\":8771:8785   */\n  lt\n    /* \"#utility.yul\":8763:8971   */\n  iszero\n  tag_162\n  jumpi\n    /* \"#utility.yul\":8856:8865   */\n  dup5\n    /* \"#utility.yul\":8851:8854   */\n  dup10\n    /* \"#utility.yul\":8847:8866   */\n  add\n    /* \"#utility.yul\":8841:8867   */\n  mload\n    /* \"#utility.yul\":8833:8839   */\n  dup3\n    /* \"#utility.yul\":8826:8868   */\n  sstore\n    /* \"#utility.yul\":8907:8908   */\n  0x01\n    /* \"#utility.yul\":8899:8905   */\n  dup3\n    /* \"#utility.yul\":8895:8909   */\n  add\n    /* \"#utility.yul\":8885:8909   */\n  swap2\n  pop\n    /* \"#utility.yul\":8954:8956   */\n  0x20\n    /* \"#utility.yul\":8943:8952   */\n  dup6\n    /* \"#utility.yul\":8939:8957   */\n  add\n    /* \"#utility.yul\":8926:8957   */\n  swap5\n  pop\n    /* \"#utility.yul\":8800:8804   */\n  0x20\n    /* \"#utility.yul\":8797:8798   */\n  dup2\n    /* \"#utility.yul\":8793:8805   */\n  add\n    /* \"#utility.yul\":8788:8805   */\n  swap1\n  pop\n    /* \"#utility.yul\":8763:8971   */\n  jump(tag_160)\ntag_162:\n    /* \"#utility.yul\":8999:9005   */\n  dup7\n    /* \"#utility.yul\":8990:8997   */\n  dup4\n    /* \"#utility.yul\":8987:9006   */\n  lt\n    /* \"#utility.yul\":8984:9163   */\n  iszero\n  tag_163\n  jumpi\n    /* \"#utility.yul\":9057:9066   */\n  dup5\n    /* \"#utility.yul\":9052:9055   */\n  dup10\n    /* \"#utility.yul\":9048:9067   */\n  add\n    /* \"#utility.yul\":9042:9068   */\n  mload\n    /* \"#utility.yul\":9100:9148   */\n  tag_164\n    /* \"#utility.yul\":9142:9146   */\n  0x1f\n    /* \"#utility.yul\":9134:9140   */\n  dup10\n    /* \"#utility.yul\":9130:9147   */\n  and\n    /* \"#utility.yul\":9119:9128   */\n  dup3\n    /* \"#utility.yul\":9100:9148   */\n  tag_52\n  jump\t// in\ntag_164:\n    /* \"#utility.yul\":9092:9098   */\n  dup4\n    /* \"#utility.yul\":9085:9149   */\n  sstore\n    /* \"#utility.yul\":9007:9163   */\n  pop\n    /* \"#utility.yul\":8984:9163   */\ntag_163:\n    /* \"#utility.yul\":9209:9210   */\n  0x01\n    /* \"#utility.yul\":9205:9206   */\n  0x02\n    /* \"#utility.yul\":9197:9203   */\n  dup9\n    /* \"#utility.yul\":9193:9207   */\n  mul\n    /* \"#utility.yul\":9189:9211   */\n  add\n    /* \"#utility.yul\":9183:9187   */\n  dup9\n    /* \"#utility.yul\":9176:9212   */\n  sstore\n    /* \"#utility.yul\":8611:9222   */\n  pop\n  pop\n  pop\n    /* \"#utility.yul\":8574:9461   */\ntag_155:\n  pop\n    /* \"#utility.yul\":8164:9467   */\n  pop\n  pop\n  pop\n    /* \"#utility.yul\":8072:9467   */\n  pop\n  pop\n  jump\t// out\n    /* \"Evm/core/base/vault.sol\":561:6110  contract QiaraMultiAssetVault is Ownable {... */\ntag_15:\n  mload(0x80)\n  mload(0xa0)\n  codecopy(0x00, dataOffset(sub_0), dataSize(sub_0))\n  0x00\n  assignImmutable(\"0xa55f93089260f97cd16ec7a717e7ade24f99065bc4509014bd14fefe4d832ab6\")\n  0x00\n  assignImmutable(\"0x1067a32fc2bf4122310a8f066f11577e006583df65ce4c5172289c9680be102c\")\n  return(0x00, dataSize(sub_0))\nstop\n\nsub_0: assembly {\n        /* \"Evm/core/base/vault.sol\":561:6110  contract QiaraMultiAssetVault is Ownable {... */\n      mstore(0x40, 0x80)\n      callvalue\n      dup1\n      iszero\n      tag_1\n      jumpi\n      revert(0x00, 0x00)\n    tag_1:\n      pop\n      jumpi(tag_2, lt(calldatasize, 0x04))\n      shr(0xe0, calldataload(0x00))\n      dup1\n      0x8e27d719\n      gt\n      tag_15\n      jumpi\n      dup1\n      0x8e27d719\n      eq\n      tag_9\n      jumpi\n      dup1\n      0xb5f8558c\n      eq\n      tag_10\n      jumpi\n      dup1\n      0xbf4d766e\n      eq\n      tag_11\n      jumpi\n      dup1\n      0xd23ce9e5\n      eq\n      tag_12\n      jumpi\n      dup1\n      0xf139721c\n      eq\n      tag_13\n      jumpi\n      dup1\n      0xf2fde38b\n      eq\n      tag_14\n      jumpi\n      jump(tag_2)\n    tag_15:\n      dup1\n      0xdad7d4\n      eq\n      tag_3\n      jumpi\n      dup1\n      0x05d09fb1\n      eq\n      tag_4\n      jumpi\n      dup1\n      0x240028e8\n      eq\n      tag_5\n      jumpi\n      dup1\n      0x715018a6\n      eq\n      tag_6\n      jumpi\n      dup1\n      0x7a9eceb4\n      eq\n      tag_7\n      jumpi\n      dup1\n      0x8da5cb5b\n      eq\n      tag_8\n      jumpi\n    tag_2:\n      revert(0x00, 0x00)\n        /* \"Evm/core/base/vault.sol\":734:760  string public providerName */\n    tag_3:\n      tag_16\n      tag_17\n      jump\t// in\n    tag_16:\n      mload(0x40)\n      tag_18\n      swap2\n      swap1\n      tag_19\n      jump\t// in\n    tag_18:\n      mload(0x40)\n      dup1\n      swap2\n      sub\n      swap1\n      return\n        /* \"Evm/core/base/vault.sol\":1421:1947  function resolveAsset(string memory assetName) public view returns (address) {... */\n    tag_4:\n      tag_20\n      0x04\n      dup1\n      calldatasize\n      sub\n      dup2\n      add\n      swap1\n      tag_21\n      swap2\n      swap1\n      tag_22\n      jump\t// in\n    tag_21:\n      tag_23\n      jump\t// in\n    tag_20:\n      mload(0x40)\n      tag_24\n      swap2\n      swap1\n      tag_25\n      jump\t// in\n    tag_24:\n      mload(0x40)\n      dup1\n      swap2\n      sub\n      swap1\n      return\n        /* \"Evm/core/base/vault.sol\":770:818  mapping(address => bool) public isSupportedToken */\n    tag_5:\n      tag_26\n      0x04\n      dup1\n      calldatasize\n      sub\n      dup2\n      add\n      swap1\n      tag_27\n      swap2\n      swap1\n      tag_28\n      jump\t// in\n    tag_27:\n      tag_29\n      jump\t// in\n    tag_26:\n      mload(0x40)\n      tag_30\n      swap2\n      swap1\n      tag_31\n      jump\t// in\n    tag_30:\n      mload(0x40)\n      dup1\n      swap2\n      sub\n      swap1\n      return\n        /* \"@openzeppelin/contracts/access/Ownable.sol\":2293:2394  function renounceOwnership() public virtual onlyOwner {... */\n    tag_6:\n      tag_32\n      tag_33\n      jump\t// in\n    tag_32:\n      stop\n        /* \"Evm/core/base/vault.sol\":3944:5103  function directWithdraw(address user, string calldata assetName, uint256 amount, uint256 nullifier) external onlyOwner { // ONLY the Delegator contract can call this... */\n    tag_7:\n      tag_34\n      0x04\n      dup1\n      calldatasize\n      sub\n      dup2\n      add\n      swap1\n      tag_35\n      swap2\n      swap1\n      tag_36\n      jump\t// in\n    tag_35:\n      tag_37\n      jump\t// in\n    tag_34:\n      stop\n        /* \"@openzeppelin/contracts/access/Ownable.sol\":1638:1723  function owner() public view virtual returns (address) {... */\n    tag_8:\n      tag_38\n      tag_39\n      jump\t// in\n    tag_38:\n      mload(0x40)\n      tag_40\n      swap2\n      swap1\n      tag_25\n      jump\t// in\n    tag_40:\n      mload(0x40)\n      dup1\n      swap2\n      sub\n      swap1\n      return\n        /* \"Evm/core/base/vault.sol\":5111:6107  function deposit(string calldata assetName, uint256 amount) external {... */\n    tag_9:\n      tag_41\n      0x04\n      dup1\n      calldatasize\n      sub\n      dup2\n      add\n      swap1\n      tag_42\n      swap2\n      swap1\n      tag_43\n      jump\t// in\n    tag_42:\n      tag_44\n      jump\t// in\n    tag_41:\n      stop\n        /* \"Evm/core/base/vault.sol\":696:727  IEvents public immutable events */\n    tag_10:\n      tag_45\n      tag_46\n      jump\t// in\n    tag_45:\n      mload(0x40)\n      tag_47\n      swap2\n      swap1\n      tag_48\n      jump\t// in\n    tag_47:\n      mload(0x40)\n      dup1\n      swap2\n      sub\n      swap1\n      return\n        /* \"Evm/core/base/vault.sol\":644:689  IVariables public immutable variablesRegistry */\n    tag_11:\n      tag_49\n      tag_50\n      jump\t// in\n    tag_49:\n      mload(0x40)\n      tag_51\n      swap2\n      swap1\n      tag_52\n      jump\t// in\n    tag_51:\n      mload(0x40)\n      dup1\n      swap2\n      sub\n      swap1\n      return\n        /* \"Evm/core/base/vault.sol\":2590:3786  function m_withdraw(bytes calldata user, string calldata shared, string calldata assetName, uint256 amount) external { ... */\n    tag_12:\n      tag_53\n      0x04\n      dup1\n      calldatasize\n      sub\n      dup2\n      add\n      swap1\n      tag_54\n      swap2\n      swap1\n      tag_55\n      jump\t// in\n    tag_54:\n      tag_56\n      jump\t// in\n    tag_53:\n      stop\n        /* \"Evm/core/base/vault.sol\":1955:2172  function listNewToken(string calldata assetName) external {... */\n    tag_13:\n      tag_57\n      0x04\n      dup1\n      calldatasize\n      sub\n      dup2\n      add\n      swap1\n      tag_58\n      swap2\n      swap1\n      tag_59\n      jump\t// in\n    tag_58:\n      tag_60\n      jump\t// in\n    tag_57:\n      stop\n        /* \"@openzeppelin/contracts/access/Ownable.sol\":2543:2758  function transferOwnership(address newOwner) public virtual onlyOwner {... */\n    tag_14:\n      tag_61\n      0x04\n      dup1\n      calldatasize\n      sub\n      dup2\n      add\n      swap1\n      tag_62\n      swap2\n      swap1\n      tag_28\n      jump\t// in\n    tag_62:\n      tag_63\n      jump\t// in\n    tag_61:\n      stop\n        /* \"Evm/core/base/vault.sol\":734:760  string public providerName */\n    tag_17:\n      0x01\n      dup1\n      sload\n      tag_64\n      swap1\n      tag_65\n      jump\t// in\n    tag_64:\n      dup1\n      0x1f\n      add\n      0x20\n      dup1\n      swap2\n      div\n      mul\n      0x20\n      add\n      mload(0x40)\n      swap1\n      dup2\n      add\n      0x40\n      mstore\n      dup1\n      swap3\n      swap2\n      swap1\n      dup2\n      dup2\n      mstore\n      0x20\n      add\n      dup3\n      dup1\n      sload\n      tag_66\n      swap1\n      tag_65\n      jump\t// in\n    tag_66:\n      dup1\n      iszero\n      tag_67\n      jumpi\n      dup1\n      0x1f\n      lt\n      tag_68\n      jumpi\n      0x0100\n      dup1\n      dup4\n      sload\n      div\n      mul\n      dup4\n      mstore\n      swap2\n      0x20\n      add\n      swap2\n      jump(tag_67)\n    tag_68:\n      dup3\n      add\n      swap2\n      swap1\n      0x00\n      mstore\n      keccak256(0x00, 0x20)\n      swap1\n    tag_69:\n      dup2\n      sload\n      dup2\n      mstore\n      swap1\n      0x01\n      add\n      swap1\n      0x20\n      add\n      dup1\n      dup4\n      gt\n      tag_69\n      jumpi\n      dup3\n      swap1\n      sub\n      0x1f\n      and\n      dup3\n      add\n      swap2\n    tag_67:\n      pop\n      pop\n      pop\n      pop\n      pop\n      dup2\n      jump\t// out\n        /* \"Evm/core/base/vault.sol\":1421:1947  function resolveAsset(string memory assetName) public view returns (address) {... */\n    tag_23:\n        /* \"Evm/core/base/vault.sol\":1489:1496  address */\n      0x00\n        /* \"Evm/core/base/vault.sol\":1509:1531  string memory tokenKey */\n      0x00\n        /* \"Evm/core/base/vault.sol\":1558:1567  assetName */\n      dup3\n        /* \"Evm/core/base/vault.sol\":1574:1586  providerName */\n      0x01\n        /* \"Evm/core/base/vault.sol\":1541:1587  abi.encodePacked(assetName, \"_\", providerName) */\n      add(0x20, mload(0x40))\n      tag_71\n      swap3\n      swap2\n      swap1\n      tag_72\n      jump\t// in\n    tag_71:\n      mload(0x40)\n      0x20\n      dup2\n      dup4\n      sub\n      sub\n      dup2\n      mstore\n      swap1\n      0x40\n      mstore\n        /* \"Evm/core/base/vault.sol\":1509:1588  string memory tokenKey = string(abi.encodePacked(assetName, \"_\", providerName)) */\n      swap1\n      pop\n        /* \"Evm/core/base/vault.sol\":1599:1622  bytes memory tokenBytes */\n      0x00\n        /* \"Evm/core/base/vault.sol\":1625:1642  variablesRegistry */\n      immutable(\"0x1067a32fc2bf4122310a8f066f11577e006583df65ce4c5172289c9680be102c\")\n        /* \"Evm/core/base/vault.sol\":1625:1660  variablesRegistry.getActiveVariable */\n      0xffffffffffffffffffffffffffffffffffffffff\n      and\n      0x16f1adc1\n        /* \"Evm/core/base/vault.sol\":1681:1689  tokenKey */\n      dup4\n        /* \"Evm/core/base/vault.sol\":1625:1690  variablesRegistry.getActiveVariable(\"QiaraMonadAssets\", tokenKey) */\n      mload(0x40)\n      dup3\n      0xffffffff\n      and\n      0xe0\n      shl\n      dup2\n      mstore\n      0x04\n      add\n      tag_73\n      swap2\n      swap1\n      tag_74\n      jump\t// in\n    tag_73:\n      0x00\n      mload(0x40)\n      dup1\n      dup4\n      sub\n      dup2\n      dup7\n      gas\n      staticcall\n      iszero\n      dup1\n      iszero\n      tag_76\n      jumpi\n      returndatacopy(0x00, 0x00, returndatasize)\n      revert(0x00, returndatasize)\n    tag_76:\n      pop\n      pop\n      pop\n      pop\n      mload(0x40)\n      returndatasize\n      0x00\n      dup3\n      returndatacopy\n      returndatasize\n      not(0x1f)\n      0x1f\n      dup3\n      add\n      and\n      dup3\n      add\n      dup1\n      0x40\n      mstore\n      pop\n      dup2\n      add\n      swap1\n      tag_77\n      swap2\n      swap1\n      tag_78\n      jump\t// in\n    tag_77:\n        /* \"Evm/core/base/vault.sol\":1599:1690  bytes memory tokenBytes = variablesRegistry.getActiveVariable(\"QiaraMonadAssets\", tokenKey) */\n      swap1\n      pop\n        /* \"Evm/core/base/vault.sol\":1740:1742  20 */\n      0x14\n        /* \"Evm/core/base/vault.sol\":1719:1729  tokenBytes */\n      dup2\n        /* \"Evm/core/base/vault.sol\":1719:1736  tokenBytes.length */\n      mload\n        /* \"Evm/core/base/vault.sol\":1719:1742  tokenBytes.length >= 20 */\n      lt\n      iszero\n        /* \"Evm/core/base/vault.sol\":1711:1781  require(tokenBytes.length >= 20, \"Vault: Asset not found in registry\") */\n      tag_79\n      jumpi\n      mload(0x40)\n      0x08c379a000000000000000000000000000000000000000000000000000000000\n      dup2\n      mstore\n      0x04\n      add\n      tag_80\n      swap1\n      tag_81\n      jump\t// in\n    tag_80:\n      mload(0x40)\n      dup1\n      swap2\n      sub\n      swap1\n      revert\n    tag_79:\n        /* \"Evm/core/base/vault.sol\":1802:1822  address assetAddress */\n      0x00\n        /* \"Evm/core/base/vault.sol\":1895:1897  20 */\n      0x14\n        /* \"Evm/core/base/vault.sol\":1883:1893  tokenBytes */\n      dup3\n        /* \"Evm/core/base/vault.sol\":1879:1898  add(tokenBytes, 20) */\n      add\n        /* \"Evm/core/base/vault.sol\":1873:1899  mload(add(tokenBytes, 20)) */\n      mload\n        /* \"Evm/core/base/vault.sol\":1857:1899  assetAddress := mload(add(tokenBytes, 20)) */\n      swap1\n      pop\n        /* \"Evm/core/base/vault.sol\":1927:1939  assetAddress */\n      dup1\n        /* \"Evm/core/base/vault.sol\":1920:1939  return assetAddress */\n      swap4\n      pop\n      pop\n      pop\n      pop\n        /* \"Evm/core/base/vault.sol\":1421:1947  function resolveAsset(string memory assetName) public view returns (address) {... */\n      swap2\n      swap1\n      pop\n      jump\t// out\n        /* \"Evm/core/base/vault.sol\":770:818  mapping(address => bool) public isSupportedToken */\n    tag_29:\n      mstore(0x20, 0x02)\n      dup1\n      0x00\n      mstore\n      keccak256(0x00, 0x40)\n      0x00\n      swap2\n      pop\n      sload\n      swap1\n      0x0100\n      exp\n      swap1\n      div\n      0xff\n      and\n      dup2\n      jump\t// out\n        /* \"@openzeppelin/contracts/access/Ownable.sol\":2293:2394  function renounceOwnership() public virtual onlyOwner {... */\n    tag_33:\n        /* \"@openzeppelin/contracts/access/Ownable.sol\":1531:1544  _checkOwner() */\n      tag_83\n        /* \"@openzeppelin/contracts/access/Ownable.sol\":1531:1542  _checkOwner */\n      tag_84\n        /* \"@openzeppelin/contracts/access/Ownable.sol\":1531:1544  _checkOwner() */\n      jump\t// in\n    tag_83:\n        /* \"@openzeppelin/contracts/access/Ownable.sol\":2357:2387  _transferOwnership(address(0)) */\n      tag_86\n        /* \"@openzeppelin/contracts/access/Ownable.sol\":2384:2385  0 */\n      0x00\n        /* \"@openzeppelin/contracts/access/Ownable.sol\":2357:2375  _transferOwnership */\n      tag_87\n        /* \"@openzeppelin/contracts/access/Ownable.sol\":2357:2387  _transferOwnership(address(0)) */\n      jump\t// in\n    tag_86:\n        /* \"@openzeppelin/contracts/access/Ownable.sol\":2293:2394  function renounceOwnership() public virtual onlyOwner {... */\n      jump\t// out\n        /* \"Evm/core/base/vault.sol\":3944:5103  function directWithdraw(address user, string calldata assetName, uint256 amount, uint256 nullifier) external onlyOwner { // ONLY the Delegator contract can call this... */\n    tag_37:\n        /* \"@openzeppelin/contracts/access/Ownable.sol\":1531:1544  _checkOwner() */\n      tag_89\n        /* \"@openzeppelin/contracts/access/Ownable.sol\":1531:1542  _checkOwner */\n      tag_84\n        /* \"@openzeppelin/contracts/access/Ownable.sol\":1531:1544  _checkOwner() */\n      jump\t// in\n    tag_89:\n        /* \"Evm/core/base/vault.sol\":4119:4132  address token */\n      0x00\n        /* \"Evm/core/base/vault.sol\":4135:4158  resolveAsset(assetName) */\n      tag_91\n        /* \"Evm/core/base/vault.sol\":4148:4157  assetName */\n      dup6\n      dup6\n        /* \"Evm/core/base/vault.sol\":4135:4158  resolveAsset(assetName) */\n      dup1\n      dup1\n      0x1f\n      add\n      0x20\n      dup1\n      swap2\n      div\n      mul\n      0x20\n      add\n      mload(0x40)\n      swap1\n      dup2\n      add\n      0x40\n      mstore\n      dup1\n      swap4\n      swap3\n      swap2\n      swap1\n      dup2\n      dup2\n      mstore\n      0x20\n      add\n      dup4\n      dup4\n      dup1\n      dup3\n      dup5\n      calldatacopy\n      0x00\n      dup2\n      dup5\n      add\n      mstore\n      not(0x1f)\n      0x1f\n      dup3\n      add\n      and\n      swap1\n      pop\n      dup1\n      dup4\n      add\n      swap3\n      pop\n      pop\n      pop\n      pop\n      pop\n      pop\n      pop\n        /* \"Evm/core/base/vault.sol\":4135:4147  resolveAsset */\n      tag_23\n        /* \"Evm/core/base/vault.sol\":4135:4158  resolveAsset(assetName) */\n      jump\t// in\n    tag_91:\n        /* \"Evm/core/base/vault.sol\":4119:4158  address token = resolveAsset(assetName) */\n      swap1\n      pop\n        /* \"Evm/core/base/vault.sol\":4177:4193  isSupportedToken */\n      0x02\n        /* \"Evm/core/base/vault.sol\":4177:4200  isSupportedToken[token] */\n      0x00\n        /* \"Evm/core/base/vault.sol\":4194:4199  token */\n      dup3\n        /* \"Evm/core/base/vault.sol\":4177:4200  isSupportedToken[token] */\n      0xffffffffffffffffffffffffffffffffffffffff\n      and\n      0xffffffffffffffffffffffffffffffffffffffff\n      and\n      dup2\n      mstore\n      0x20\n      add\n      swap1\n      dup2\n      mstore\n      0x20\n      add\n      0x00\n      keccak256\n      0x00\n      swap1\n      sload\n      swap1\n      0x0100\n      exp\n      swap1\n      div\n      0xff\n      and\n        /* \"Evm/core/base/vault.sol\":4169:4231  require(isSupportedToken[token], \"Vault: Token not supported\") */\n      tag_92\n      jumpi\n      mload(0x40)\n      0x08c379a000000000000000000000000000000000000000000000000000000000\n      dup2\n      mstore\n      0x04\n      add\n      tag_93\n      swap1\n      tag_94\n      jump\t// in\n    tag_93:\n      mload(0x40)\n      dup1\n      swap2\n      sub\n      swap1\n      revert\n    tag_92:\n        /* \"Evm/core/base/vault.sol\":4308:4348  IERC20(token).safeTransfer(user, amount) */\n      tag_95\n        /* \"Evm/core/base/vault.sol\":4335:4339  user */\n      dup7\n        /* \"Evm/core/base/vault.sol\":4341:4347  amount */\n      dup5\n        /* \"Evm/core/base/vault.sol\":4315:4320  token */\n      dup4\n        /* \"Evm/core/base/vault.sol\":4308:4334  IERC20(token).safeTransfer */\n      0xffffffffffffffffffffffffffffffffffffffff\n      and\n      tag_96\n      swap1\n        /* \"Evm/core/base/vault.sol\":4308:4348  IERC20(token).safeTransfer(user, amount) */\n      swap3\n      swap2\n      swap1\n      0xffffffff\n      and\n      jump\t// in\n    tag_95:\n        /* \"Evm/core/base/vault.sol\":4407:4438  IEvents.Data[] memory eventData */\n      0x00\n        /* \"Evm/core/base/vault.sol\":4460:4461  6 */\n      0x06\n        /* \"Evm/core/base/vault.sol\":4441:4462  new IEvents.Data[](6) */\n      0xffffffffffffffff\n      dup2\n      gt\n      iszero\n      tag_97\n      jumpi\n      tag_98\n      tag_99\n      jump\t// in\n    tag_98:\n    tag_97:\n      mload(0x40)\n      swap1\n      dup1\n      dup3\n      mstore\n      dup1\n      0x20\n      mul\n      0x20\n      add\n      dup3\n      add\n      0x40\n      mstore\n      dup1\n      iszero\n      tag_100\n      jumpi\n      dup2\n      0x20\n      add\n    tag_101:\n      tag_102\n      tag_103\n      jump\t// in\n    tag_102:\n      dup2\n      mstore\n      0x20\n      add\n      swap1\n      0x01\n      swap1\n      sub\n      swap1\n      dup2\n      tag_101\n      jumpi\n      swap1\n      pop\n    tag_100:\n      pop\n        /* \"Evm/core/base/vault.sol\":4407:4462  IEvents.Data[] memory eventData = new IEvents.Data[](6) */\n      swap1\n      pop\n        /* \"Evm/core/base/vault.sol\":4488:4537  IEvents.Data(\"user\", \"address\", abi.encode(user)) */\n      mload(0x40)\n      dup1\n      0x60\n      add\n      0x40\n      mstore\n      dup1\n      mload(0x40)\n      dup1\n      0x40\n      add\n      0x40\n      mstore\n      dup1\n      0x04\n      dup2\n      mstore\n      0x20\n      add\n      0x7573657200000000000000000000000000000000000000000000000000000000\n      dup2\n      mstore\n      pop\n      dup2\n      mstore\n      0x20\n      add\n      mload(0x40)\n      dup1\n      0x40\n      add\n      0x40\n      mstore\n      dup1\n      0x07\n      dup2\n      mstore\n      0x20\n      add\n      0x6164647265737300000000000000000000000000000000000000000000000000\n      dup2\n      mstore\n      pop\n      dup2\n      mstore\n      0x20\n      add\n        /* \"Evm/core/base/vault.sol\":4531:4535  user */\n      dup9\n        /* \"Evm/core/base/vault.sol\":4520:4536  abi.encode(user) */\n      add(0x20, mload(0x40))\n      tag_104\n      swap2\n      swap1\n      tag_25\n      jump\t// in\n    tag_104:\n      mload(0x40)\n      0x20\n      dup2\n      dup4\n      sub\n      sub\n      dup2\n      mstore\n      swap1\n      0x40\n      mstore\n        /* \"Evm/core/base/vault.sol\":4488:4537  IEvents.Data(\"user\", \"address\", abi.encode(user)) */\n      dup2\n      mstore\n      pop\n        /* \"Evm/core/base/vault.sol\":4473:4482  eventData */\n      dup2\n        /* \"Evm/core/base/vault.sol\":4483:4484  0 */\n      0x00\n        /* \"Evm/core/base/vault.sol\":4473:4485  eventData[0] */\n      dup2\n      mload\n      dup2\n      lt\n      tag_105\n      jumpi\n      tag_106\n      tag_107\n      jump\t// in\n    tag_106:\n    tag_105:\n      0x20\n      mul\n      0x20\n      add\n      add\n        /* \"Evm/core/base/vault.sol\":4473:4537  eventData[0] = IEvents.Data(\"user\", \"address\", abi.encode(user)) */\n      dup2\n      swap1\n      mstore\n      pop\n        /* \"Evm/core/base/vault.sol\":4563:4616  IEvents.Data(\"amount\", \"uint256\", abi.encode(amount)) */\n      mload(0x40)\n      dup1\n      0x60\n      add\n      0x40\n      mstore\n      dup1\n      mload(0x40)\n      dup1\n      0x40\n      add\n      0x40\n      mstore\n      dup1\n      0x06\n      dup2\n      mstore\n      0x20\n      add\n      0x616d6f756e740000000000000000000000000000000000000000000000000000\n      dup2\n      mstore\n      pop\n      dup2\n      mstore\n      0x20\n      add\n      mload(0x40)\n      dup1\n      0x40\n      add\n      0x40\n      mstore\n      dup1\n      0x07\n      dup2\n      mstore\n      0x20\n      add\n      0x75696e7432353600000000000000000000000000000000000000000000000000\n      dup2\n      mstore\n      pop\n      dup2\n      mstore\n      0x20\n      add\n        /* \"Evm/core/base/vault.sol\":4608:4614  amount */\n      dup6\n        /* \"Evm/core/base/vault.sol\":4597:4615  abi.encode(amount) */\n      add(0x20, mload(0x40))\n      tag_108\n      swap2\n      swap1\n      tag_109\n      jump\t// in\n    tag_108:\n      mload(0x40)\n      0x20\n      dup2\n      dup4\n      sub\n      sub\n      dup2\n      mstore\n      swap1\n      0x40\n      mstore\n        /* \"Evm/core/base/vault.sol\":4563:4616  IEvents.Data(\"amount\", \"uint256\", abi.encode(amount)) */\n      dup2\n      mstore\n      pop\n        /* \"Evm/core/base/vault.sol\":4548:4557  eventData */\n      dup2\n        /* \"Evm/core/base/vault.sol\":4558:4559  1 */\n      0x01\n        /* \"Evm/core/base/vault.sol\":4548:4560  eventData[1] */\n      dup2\n      mload\n      dup2\n      lt\n      tag_110\n      jumpi\n      tag_111\n      tag_107\n      jump\t// in\n    tag_111:\n    tag_110:\n      0x20\n      mul\n      0x20\n      add\n      add\n        /* \"Evm/core/base/vault.sol\":4548:4616  eventData[1] = IEvents.Data(\"amount\", \"uint256\", abi.encode(amount)) */\n      dup2\n      swap1\n      mstore\n      pop\n        /* \"Evm/core/base/vault.sol\":4642:4696  IEvents.Data(\"token\", \"string\", abi.encode(assetName)) */\n      mload(0x40)\n      dup1\n      0x60\n      add\n      0x40\n      mstore\n      dup1\n      mload(0x40)\n      dup1\n      0x40\n      add\n      0x40\n      mstore\n      dup1\n      0x05\n      dup2\n      mstore\n      0x20\n      add\n      0x746f6b656e000000000000000000000000000000000000000000000000000000\n      dup2\n      mstore\n      pop\n      dup2\n      mstore\n      0x20\n      add\n      mload(0x40)\n      dup1\n      0x40\n      add\n      0x40\n      mstore\n      dup1\n      0x06\n      dup2\n      mstore\n      0x20\n      add\n      0x737472696e670000000000000000000000000000000000000000000000000000\n      dup2\n      mstore\n      pop\n      dup2\n      mstore\n      0x20\n      add\n        /* \"Evm/core/base/vault.sol\":4685:4694  assetName */\n      dup8\n      dup8\n        /* \"Evm/core/base/vault.sol\":4674:4695  abi.encode(assetName) */\n      add(0x20, mload(0x40))\n      tag_112\n      swap3\n      swap2\n      swap1\n      tag_113\n      jump\t// in\n    tag_112:\n      mload(0x40)\n      0x20\n      dup2\n      dup4\n      sub\n      sub\n      dup2\n      mstore\n      swap1\n      0x40\n      mstore\n        /* \"Evm/core/base/vault.sol\":4642:4696  IEvents.Data(\"token\", \"string\", abi.encode(assetName)) */\n      dup2\n      mstore\n      pop\n        /* \"Evm/core/base/vault.sol\":4627:4636  eventData */\n      dup2\n        /* \"Evm/core/base/vault.sol\":4637:4638  2 */\n      0x02\n        /* \"Evm/core/base/vault.sol\":4627:4639  eventData[2] */\n      dup2\n      mload\n      dup2\n      lt\n      tag_114\n      jumpi\n      tag_115\n      tag_107\n      jump\t// in\n    tag_115:\n    tag_114:\n      0x20\n      mul\n      0x20\n      add\n      add\n        /* \"Evm/core/base/vault.sol\":4627:4696  eventData[2] = IEvents.Data(\"token\", \"string\", abi.encode(assetName)) */\n      dup2\n      swap1\n      mstore\n      pop\n        /* \"Evm/core/base/vault.sol\":4722:4782  IEvents.Data(\"provider\", \"string\", abi.encode(providerName)) */\n      mload(0x40)\n      dup1\n      0x60\n      add\n      0x40\n      mstore\n      dup1\n      mload(0x40)\n      dup1\n      0x40\n      add\n      0x40\n      mstore\n      dup1\n      0x08\n      dup2\n      mstore\n      0x20\n      add\n      0x70726f7669646572000000000000000000000000000000000000000000000000\n      dup2\n      mstore\n      pop\n      dup2\n      mstore\n      0x20\n      add\n      mload(0x40)\n      dup1\n      0x40\n      add\n      0x40\n      mstore\n      dup1\n      0x06\n      dup2\n      mstore\n      0x20\n      add\n      0x737472696e670000000000000000000000000000000000000000000000000000\n      dup2\n      mstore\n      pop\n      dup2\n      mstore\n      0x20\n      add\n        /* \"Evm/core/base/vault.sol\":4768:4780  providerName */\n      0x01\n        /* \"Evm/core/base/vault.sol\":4757:4781  abi.encode(providerName) */\n      add(0x20, mload(0x40))\n      tag_116\n      swap2\n      swap1\n      tag_117\n      jump\t// in\n    tag_116:\n      mload(0x40)\n      0x20\n      dup2\n      dup4\n      sub\n      sub\n      dup2\n      mstore\n      swap1\n      0x40\n      mstore\n        /* \"Evm/core/base/vault.sol\":4722:4782  IEvents.Data(\"provider\", \"string\", abi.encode(providerName)) */\n      dup2\n      mstore\n      pop\n        /* \"Evm/core/base/vault.sol\":4707:4716  eventData */\n      dup2\n        /* \"Evm/core/base/vault.sol\":4717:4718  3 */\n      0x03\n        /* \"Evm/core/base/vault.sol\":4707:4719  eventData[3] */\n      dup2\n      mload\n      dup2\n      lt\n      tag_118\n      jumpi\n      tag_119\n      tag_107\n      jump\t// in\n    tag_119:\n    tag_118:\n      0x20\n      mul\n      0x20\n      add\n      add\n        /* \"Evm/core/base/vault.sol\":4707:4782  eventData[3] = IEvents.Data(\"provider\", \"string\", abi.encode(providerName)) */\n      dup2\n      swap1\n      mstore\n      pop\n        /* \"Evm/core/base/vault.sol\":4808:4867  IEvents.Data(\"nullifier\", \"uint256\", abi.encode(nullifier)) */\n      mload(0x40)\n      dup1\n      0x60\n      add\n      0x40\n      mstore\n      dup1\n      mload(0x40)\n      dup1\n      0x40\n      add\n      0x40\n      mstore\n      dup1\n      0x09\n      dup2\n      mstore\n      0x20\n      add\n      0x6e756c6c69666965720000000000000000000000000000000000000000000000\n      dup2\n      mstore\n      pop\n      dup2\n      mstore\n      0x20\n      add\n      mload(0x40)\n      dup1\n      0x40\n      add\n      0x40\n      mstore\n      dup1\n      0x07\n      dup2\n      mstore\n      0x20\n      add\n      0x75696e7432353600000000000000000000000000000000000000000000000000\n      dup2\n      mstore\n      pop\n      dup2\n      mstore\n      0x20\n      add\n        /* \"Evm/core/base/vault.sol\":4856:4865  nullifier */\n      dup5\n        /* \"Evm/core/base/vault.sol\":4845:4866  abi.encode(nullifier) */\n      add(0x20, mload(0x40))\n      tag_120\n      swap2\n      swap1\n      tag_109\n      jump\t// in\n    tag_120:\n      mload(0x40)\n      0x20\n      dup2\n      dup4\n      sub\n      sub\n      dup2\n      mstore\n      swap1\n      0x40\n      mstore\n        /* \"Evm/core/base/vault.sol\":4808:4867  IEvents.Data(\"nullifier\", \"uint256\", abi.encode(nullifier)) */\n      dup2\n      mstore\n      pop\n        /* \"Evm/core/base/vault.sol\":4793:4802  eventData */\n      dup2\n        /* \"Evm/core/base/vault.sol\":4803:4804  4 */\n      0x04\n        /* \"Evm/core/base/vault.sol\":4793:4805  eventData[4] */\n      dup2\n      mload\n      dup2\n      lt\n      tag_121\n      jumpi\n      tag_122\n      tag_107\n      jump\t// in\n    tag_122:\n    tag_121:\n      0x20\n      mul\n      0x20\n      add\n      add\n        /* \"Evm/core/base/vault.sol\":4793:4867  eventData[4] = IEvents.Data(\"nullifier\", \"uint256\", abi.encode(nullifier)) */\n      dup2\n      swap1\n      mstore\n      pop\n        /* \"Evm/core/base/vault.sol\":4893:4958  IEvents.Data(\"timestamp\", \"uint256\", abi.encode(block.timestamp)) */\n      mload(0x40)\n      dup1\n      0x60\n      add\n      0x40\n      mstore\n      dup1\n      mload(0x40)\n      dup1\n      0x40\n      add\n      0x40\n      mstore\n      dup1\n      0x09\n      dup2\n      mstore\n      0x20\n      add\n      0x74696d657374616d700000000000000000000000000000000000000000000000\n      dup2\n      mstore\n      pop\n      dup2\n      mstore\n      0x20\n      add\n      mload(0x40)\n      dup1\n      0x40\n      add\n      0x40\n      mstore\n      dup1\n      0x07\n      dup2\n      mstore\n      0x20\n      add\n      0x75696e7432353600000000000000000000000000000000000000000000000000\n      dup2\n      mstore\n      pop\n      dup2\n      mstore\n      0x20\n      add\n        /* \"Evm/core/base/vault.sol\":4941:4956  block.timestamp */\n      timestamp\n        /* \"Evm/core/base/vault.sol\":4930:4957  abi.encode(block.timestamp) */\n      add(0x20, mload(0x40))\n      tag_123\n      swap2\n      swap1\n      tag_109\n      jump\t// in\n    tag_123:\n      mload(0x40)\n      0x20\n      dup2\n      dup4\n      sub\n      sub\n      dup2\n      mstore\n      swap1\n      0x40\n      mstore\n        /* \"Evm/core/base/vault.sol\":4893:4958  IEvents.Data(\"timestamp\", \"uint256\", abi.encode(block.timestamp)) */\n      dup2\n      mstore\n      pop\n        /* \"Evm/core/base/vault.sol\":4878:4887  eventData */\n      dup2\n        /* \"Evm/core/base/vault.sol\":4888:4889  5 */\n      0x05\n        /* \"Evm/core/base/vault.sol\":4878:4890  eventData[5] */\n      dup2\n      mload\n      dup2\n      lt\n      tag_124\n      jumpi\n      tag_125\n      tag_107\n      jump\t// in\n    tag_125:\n    tag_124:\n      0x20\n      mul\n      0x20\n      add\n      add\n        /* \"Evm/core/base/vault.sol\":4878:4958  eventData[5] = IEvents.Data(\"timestamp\", \"uint256\", abi.encode(block.timestamp)) */\n      dup2\n      swap1\n      mstore\n      pop\n        /* \"Evm/core/base/vault.sol\":4979:4985  events */\n      immutable(\"0xa55f93089260f97cd16ec7a717e7ade24f99065bc4509014bd14fefe4d832ab6\")\n        /* \"Evm/core/base/vault.sol\":4979:5000  events.emitVaultEvent */\n      0xffffffffffffffffffffffffffffffffffffffff\n      and\n      0x7d64fa9b\n        /* \"Evm/core/base/vault.sol\":5020:5029  eventData */\n      dup3\n        /* \"Evm/core/base/vault.sol\":4979:5030  events.emitVaultEvent(\"Direct Withdraw\", eventData) */\n      mload(0x40)\n      dup3\n      0xffffffff\n      and\n      0xe0\n      shl\n      dup2\n      mstore\n      0x04\n      add\n      tag_126\n      swap2\n      swap1\n      tag_127\n      jump\t// in\n    tag_126:\n      0x00\n      mload(0x40)\n      dup1\n      dup4\n      sub\n      dup2\n      0x00\n      dup8\n      dup1\n      extcodesize\n      iszero\n      dup1\n      iszero\n      tag_128\n      jumpi\n      revert(0x00, 0x00)\n    tag_128:\n      pop\n      gas\n      call\n      iszero\n      dup1\n      iszero\n      tag_130\n      jumpi\n      returndatacopy(0x00, 0x00, returndatasize)\n      revert(0x00, returndatasize)\n    tag_130:\n      pop\n      pop\n      pop\n      pop\n        /* \"Evm/core/base/vault.sol\":5067:5072  token */\n      dup2\n        /* \"Evm/core/base/vault.sol\":5046:5095  DirectWithdraw(user, token, amount, providerName) */\n      0xffffffffffffffffffffffffffffffffffffffff\n      and\n        /* \"Evm/core/base/vault.sol\":5061:5065  user */\n      dup8\n        /* \"Evm/core/base/vault.sol\":5046:5095  DirectWithdraw(user, token, amount, providerName) */\n      0xffffffffffffffffffffffffffffffffffffffff\n      and\n      0xcc4f8702356931e6d23a93d1b60beac6a7ea77d447ada4b1502a09d0b7125709\n        /* \"Evm/core/base/vault.sol\":5074:5080  amount */\n      dup7\n        /* \"Evm/core/base/vault.sol\":5082:5094  providerName */\n      0x01\n        /* \"Evm/core/base/vault.sol\":5046:5095  DirectWithdraw(user, token, amount, providerName) */\n      mload(0x40)\n      tag_131\n      swap3\n      swap2\n      swap1\n      tag_132\n      jump\t// in\n    tag_131:\n      mload(0x40)\n      dup1\n      swap2\n      sub\n      swap1\n      log3\n        /* \"Evm/core/base/vault.sol\":4063:5103  { // ONLY the Delegator contract can call this... */\n      pop\n      pop\n        /* \"Evm/core/base/vault.sol\":3944:5103  function directWithdraw(address user, string calldata assetName, uint256 amount, uint256 nullifier) external onlyOwner { // ONLY the Delegator contract can call this... */\n      pop\n      pop\n      pop\n      pop\n      pop\n      jump\t// out\n        /* \"@openzeppelin/contracts/access/Ownable.sol\":1638:1723  function owner() public view virtual returns (address) {... */\n    tag_39:\n        /* \"@openzeppelin/contracts/access/Ownable.sol\":1684:1691  address */\n      0x00\n        /* \"@openzeppelin/contracts/access/Ownable.sol\":1710:1716  _owner */\n      0x00\n      0x00\n      swap1\n      sload\n      swap1\n      0x0100\n      exp\n      swap1\n      div\n      0xffffffffffffffffffffffffffffffffffffffff\n      and\n        /* \"@openzeppelin/contracts/access/Ownable.sol\":1703:1716  return _owner */\n      swap1\n      pop\n        /* \"@openzeppelin/contracts/access/Ownable.sol\":1638:1723  function owner() public view virtual returns (address) {... */\n      swap1\n      jump\t// out\n        /* \"Evm/core/base/vault.sol\":5111:6107  function deposit(string calldata assetName, uint256 amount) external {... */\n    tag_44:\n        /* \"Evm/core/base/vault.sol\":5191:5204  address token */\n      0x00\n        /* \"Evm/core/base/vault.sol\":5207:5230  resolveAsset(assetName) */\n      tag_135\n        /* \"Evm/core/base/vault.sol\":5220:5229  assetName */\n      dup5\n      dup5\n        /* \"Evm/core/base/vault.sol\":5207:5230  resolveAsset(assetName) */\n      dup1\n      dup1\n      0x1f\n      add\n      0x20\n      dup1\n      swap2\n      div\n      mul\n      0x20\n      add\n      mload(0x40)\n      swap1\n      dup2\n      add\n      0x40\n      mstore\n      dup1\n      swap4\n      swap3\n      swap2\n      swap1\n      dup2\n      dup2\n      mstore\n      0x20\n      add\n      dup4\n      dup4\n      dup1\n      dup3\n      dup5\n      calldatacopy\n      0x00\n      dup2\n      dup5\n      add\n      mstore\n      not(0x1f)\n      0x1f\n      dup3\n      add\n      and\n      swap1\n      pop\n      dup1\n      dup4\n      add\n      swap3\n      pop\n      pop\n      pop\n      pop\n      pop\n      pop\n      pop\n        /* \"Evm/core/base/vault.sol\":5207:5219  resolveAsset */\n      tag_23\n        /* \"Evm/core/base/vault.sol\":5207:5230  resolveAsset(assetName) */\n      jump\t// in\n    tag_135:\n        /* \"Evm/core/base/vault.sol\":5191:5230  address token = resolveAsset(assetName) */\n      swap1\n      pop\n        /* \"Evm/core/base/vault.sol\":5249:5265  isSupportedToken */\n      0x02\n        /* \"Evm/core/base/vault.sol\":5249:5272  isSupportedToken[token] */\n      0x00\n        /* \"Evm/core/base/vault.sol\":5266:5271  token */\n      dup3\n        /* \"Evm/core/base/vault.sol\":5249:5272  isSupportedToken[token] */\n      0xffffffffffffffffffffffffffffffffffffffff\n      and\n      0xffffffffffffffffffffffffffffffffffffffff\n      and\n      dup2\n      mstore\n      0x20\n      add\n      swap1\n      dup2\n      mstore\n      0x20\n      add\n      0x00\n      keccak256\n      0x00\n      swap1\n      sload\n      swap1\n      0x0100\n      exp\n      swap1\n      div\n      0xff\n      and\n        /* \"Evm/core/base/vault.sol\":5241:5303  require(isSupportedToken[token], \"Vault: Token not supported\") */\n      tag_136\n      jumpi\n      mload(0x40)\n      0x08c379a000000000000000000000000000000000000000000000000000000000\n      dup2\n      mstore\n      0x04\n      add\n      tag_137\n      swap1\n      tag_94\n      jump\t// in\n    tag_137:\n      mload(0x40)\n      dup1\n      swap2\n      sub\n      swap1\n      revert\n    tag_136:\n        /* \"Evm/core/base/vault.sol\":5331:5332  0 */\n      0x00\n        /* \"Evm/core/base/vault.sol\":5322:5328  amount */\n      dup3\n        /* \"Evm/core/base/vault.sol\":5322:5332  amount > 0 */\n      gt\n        /* \"Evm/core/base/vault.sol\":5314:5363  require(amount > 0, \"Vault: Deposit must be > 0\") */\n      tag_138\n      jumpi\n      mload(0x40)\n      0x08c379a000000000000000000000000000000000000000000000000000000000\n      dup2\n      mstore\n      0x04\n      add\n      tag_139\n      swap1\n      tag_140\n      jump\t// in\n    tag_139:\n      mload(0x40)\n      dup1\n      swap2\n      sub\n      swap1\n      revert\n    tag_138:\n        /* \"Evm/core/base/vault.sol\":5429:5494  IERC20(token).safeTransferFrom(msg.sender, address(this), amount) */\n      tag_141\n        /* \"Evm/core/base/vault.sol\":5460:5470  msg.sender */\n      caller\n        /* \"Evm/core/base/vault.sol\":5480:5484  this */\n      address\n        /* \"Evm/core/base/vault.sol\":5487:5493  amount */\n      dup5\n        /* \"Evm/core/base/vault.sol\":5436:5441  token */\n      dup5\n        /* \"Evm/core/base/vault.sol\":5429:5459  IERC20(token).safeTransferFrom */\n      0xffffffffffffffffffffffffffffffffffffffff\n      and\n      tag_142\n      swap1\n        /* \"Evm/core/base/vault.sol\":5429:5494  IERC20(token).safeTransferFrom(msg.sender, address(this), amount) */\n      swap4\n      swap3\n      swap2\n      swap1\n      0xffffffff\n      and\n      jump\t// in\n    tag_141:\n        /* \"Evm/core/base/vault.sol\":5507:5538  IEvents.Data[] memory eventData */\n      0x00\n        /* \"Evm/core/base/vault.sol\":5560:5561  5 */\n      0x05\n        /* \"Evm/core/base/vault.sol\":5541:5562  new IEvents.Data[](5) */\n      0xffffffffffffffff\n      dup2\n      gt\n      iszero\n      tag_143\n      jumpi\n      tag_144\n      tag_99\n      jump\t// in\n    tag_144:\n    tag_143:\n      mload(0x40)\n      swap1\n      dup1\n      dup3\n      mstore\n      dup1\n      0x20\n      mul\n      0x20\n      add\n      dup3\n      add\n      0x40\n      mstore\n      dup1\n      iszero\n      tag_145\n      jumpi\n      dup2\n      0x20\n      add\n    tag_146:\n      tag_147\n      tag_103\n      jump\t// in\n    tag_147:\n      dup2\n      mstore\n      0x20\n      add\n      swap1\n      0x01\n      swap1\n      sub\n      swap1\n      dup2\n      tag_146\n      jumpi\n      swap1\n      pop\n    tag_145:\n      pop\n        /* \"Evm/core/base/vault.sol\":5507:5562  IEvents.Data[] memory eventData = new IEvents.Data[](5) */\n      swap1\n      pop\n        /* \"Evm/core/base/vault.sol\":5588:5643  IEvents.Data(\"user\", \"address\", abi.encode(msg.sender)) */\n      mload(0x40)\n      dup1\n      0x60\n      add\n      0x40\n      mstore\n      dup1\n      mload(0x40)\n      dup1\n      0x40\n      add\n      0x40\n      mstore\n      dup1\n      0x04\n      dup2\n      mstore\n      0x20\n      add\n      0x7573657200000000000000000000000000000000000000000000000000000000\n      dup2\n      mstore\n      pop\n      dup2\n      mstore\n      0x20\n      add\n      mload(0x40)\n      dup1\n      0x40\n      add\n      0x40\n      mstore\n      dup1\n      0x07\n      dup2\n      mstore\n      0x20\n      add\n      0x6164647265737300000000000000000000000000000000000000000000000000\n      dup2\n      mstore\n      pop\n      dup2\n      mstore\n      0x20\n      add\n        /* \"Evm/core/base/vault.sol\":5631:5641  msg.sender */\n      caller\n        /* \"Evm/core/base/vault.sol\":5620:5642  abi.encode(msg.sender) */\n      add(0x20, mload(0x40))\n      tag_148\n      swap2\n      swap1\n      tag_25\n      jump\t// in\n    tag_148:\n      mload(0x40)\n      0x20\n      dup2\n      dup4\n      sub\n      sub\n      dup2\n      mstore\n      swap1\n      0x40\n      mstore\n        /* \"Evm/core/base/vault.sol\":5588:5643  IEvents.Data(\"user\", \"address\", abi.encode(msg.sender)) */\n      dup2\n      mstore\n      pop\n        /* \"Evm/core/base/vault.sol\":5573:5582  eventData */\n      dup2\n        /* \"Evm/core/base/vault.sol\":5583:5584  0 */\n      0x00\n        /* \"Evm/core/base/vault.sol\":5573:5585  eventData[0] */\n      dup2\n      mload\n      dup2\n      lt\n      tag_149\n      jumpi\n      tag_150\n      tag_107\n      jump\t// in\n    tag_150:\n    tag_149:\n      0x20\n      mul\n      0x20\n      add\n      add\n        /* \"Evm/core/base/vault.sol\":5573:5643  eventData[0] = IEvents.Data(\"user\", \"address\", abi.encode(msg.sender)) */\n      dup2\n      swap1\n      mstore\n      pop\n        /* \"Evm/core/base/vault.sol\":5669:5722  IEvents.Data(\"amount\", \"uint256\", abi.encode(amount)) */\n      mload(0x40)\n      dup1\n      0x60\n      add\n      0x40\n      mstore\n      dup1\n      mload(0x40)\n      dup1\n      0x40\n      add\n      0x40\n      mstore\n      dup1\n      0x06\n      dup2\n      mstore\n      0x20\n      add\n      0x616d6f756e740000000000000000000000000000000000000000000000000000\n      dup2\n      mstore\n      pop\n      dup2\n      mstore\n      0x20\n      add\n      mload(0x40)\n      dup1\n      0x40\n      add\n      0x40\n      mstore\n      dup1\n      0x07\n      dup2\n      mstore\n      0x20\n      add\n      0x75696e7432353600000000000000000000000000000000000000000000000000\n      dup2\n      mstore\n      pop\n      dup2\n      mstore\n      0x20\n      add\n        /* \"Evm/core/base/vault.sol\":5714:5720  amount */\n      dup5\n        /* \"Evm/core/base/vault.sol\":5703:5721  abi.encode(amount) */\n      add(0x20, mload(0x40))\n      tag_151\n      swap2\n      swap1\n      tag_109\n      jump\t// in\n    tag_151:\n      mload(0x40)\n      0x20\n      dup2\n      dup4\n      sub\n      sub\n      dup2\n      mstore\n      swap1\n      0x40\n      mstore\n        /* \"Evm/core/base/vault.sol\":5669:5722  IEvents.Data(\"amount\", \"uint256\", abi.encode(amount)) */\n      dup2\n      mstore\n      pop\n        /* \"Evm/core/base/vault.sol\":5654:5663  eventData */\n      dup2\n        /* \"Evm/core/base/vault.sol\":5664:5665  1 */\n      0x01\n        /* \"Evm/core/base/vault.sol\":5654:5666  eventData[1] */\n      dup2\n      mload\n      dup2\n      lt\n      tag_152\n      jumpi\n      tag_153\n      tag_107\n      jump\t// in\n    tag_153:\n    tag_152:\n      0x20\n      mul\n      0x20\n      add\n      add\n        /* \"Evm/core/base/vault.sol\":5654:5722  eventData[1] = IEvents.Data(\"amount\", \"uint256\", abi.encode(amount)) */\n      dup2\n      swap1\n      mstore\n      pop\n        /* \"Evm/core/base/vault.sol\":5748:5802  IEvents.Data(\"token\", \"string\", abi.encode(assetName)) */\n      mload(0x40)\n      dup1\n      0x60\n      add\n      0x40\n      mstore\n      dup1\n      mload(0x40)\n      dup1\n      0x40\n      add\n      0x40\n      mstore\n      dup1\n      0x05\n      dup2\n      mstore\n      0x20\n      add\n      0x746f6b656e000000000000000000000000000000000000000000000000000000\n      dup2\n      mstore\n      pop\n      dup2\n      mstore\n      0x20\n      add\n      mload(0x40)\n      dup1\n      0x40\n      add\n      0x40\n      mstore\n      dup1\n      0x06\n      dup2\n      mstore\n      0x20\n      add\n      0x737472696e670000000000000000000000000000000000000000000000000000\n      dup2\n      mstore\n      pop\n      dup2\n      mstore\n      0x20\n      add\n        /* \"Evm/core/base/vault.sol\":5791:5800  assetName */\n      dup7\n      dup7\n        /* \"Evm/core/base/vault.sol\":5780:5801  abi.encode(assetName) */\n      add(0x20, mload(0x40))\n      tag_154\n      swap3\n      swap2\n      swap1\n      tag_113\n      jump\t// in\n    tag_154:\n      mload(0x40)\n      0x20\n      dup2\n      dup4\n      sub\n      sub\n      dup2\n      mstore\n      swap1\n      0x40\n      mstore\n        /* \"Evm/core/base/vault.sol\":5748:5802  IEvents.Data(\"token\", \"string\", abi.encode(assetName)) */\n      dup2\n      mstore\n      pop\n        /* \"Evm/core/base/vault.sol\":5733:5742  eventData */\n      dup2\n        /* \"Evm/core/base/vault.sol\":5743:5744  2 */\n      0x02\n        /* \"Evm/core/base/vault.sol\":5733:5745  eventData[2] */\n      dup2\n      mload\n      dup2\n      lt\n      tag_155\n      jumpi\n      tag_156\n      tag_107\n      jump\t// in\n    tag_156:\n    tag_155:\n      0x20\n      mul\n      0x20\n      add\n      add\n        /* \"Evm/core/base/vault.sol\":5733:5802  eventData[2] = IEvents.Data(\"token\", \"string\", abi.encode(assetName)) */\n      dup2\n      swap1\n      mstore\n      pop\n        /* \"Evm/core/base/vault.sol\":5828:5888  IEvents.Data(\"provider\", \"string\", abi.encode(providerName)) */\n      mload(0x40)\n      dup1\n      0x60\n      add\n      0x40\n      mstore\n      dup1\n      mload(0x40)\n      dup1\n      0x40\n      add\n      0x40\n      mstore\n      dup1\n      0x08\n      dup2\n      mstore\n      0x20\n      add\n      0x70726f7669646572000000000000000000000000000000000000000000000000\n      dup2\n      mstore\n      pop\n      dup2\n      mstore\n      0x20\n      add\n      mload(0x40)\n      dup1\n      0x40\n      add\n      0x40\n      mstore\n      dup1\n      0x06\n      dup2\n      mstore\n      0x20\n      add\n      0x737472696e670000000000000000000000000000000000000000000000000000\n      dup2\n      mstore\n      pop\n      dup2\n      mstore\n      0x20\n      add\n        /* \"Evm/core/base/vault.sol\":5874:5886  providerName */\n      0x01\n        /* \"Evm/core/base/vault.sol\":5863:5887  abi.encode(providerName) */\n      add(0x20, mload(0x40))\n      tag_157\n      swap2\n      swap1\n      tag_117\n      jump\t// in\n    tag_157:\n      mload(0x40)\n      0x20\n      dup2\n      dup4\n      sub\n      sub\n      dup2\n      mstore\n      swap1\n      0x40\n      mstore\n        /* \"Evm/core/base/vault.sol\":5828:5888  IEvents.Data(\"provider\", \"string\", abi.encode(providerName)) */\n      dup2\n      mstore\n      pop\n        /* \"Evm/core/base/vault.sol\":5813:5822  eventData */\n      dup2\n        /* \"Evm/core/base/vault.sol\":5823:5824  3 */\n      0x03\n        /* \"Evm/core/base/vault.sol\":5813:5825  eventData[3] */\n      dup2\n      mload\n      dup2\n      lt\n      tag_158\n      jumpi\n      tag_159\n      tag_107\n      jump\t// in\n    tag_159:\n    tag_158:\n      0x20\n      mul\n      0x20\n      add\n      add\n        /* \"Evm/core/base/vault.sol\":5813:5888  eventData[3] = IEvents.Data(\"provider\", \"string\", abi.encode(providerName)) */\n      dup2\n      swap1\n      mstore\n      pop\n        /* \"Evm/core/base/vault.sol\":5914:5979  IEvents.Data(\"timestamp\", \"uint256\", abi.encode(block.timestamp)) */\n      mload(0x40)\n      dup1\n      0x60\n      add\n      0x40\n      mstore\n      dup1\n      mload(0x40)\n      dup1\n      0x40\n      add\n      0x40\n      mstore\n      dup1\n      0x09\n      dup2\n      mstore\n      0x20\n      add\n      0x74696d657374616d700000000000000000000000000000000000000000000000\n      dup2\n      mstore\n      pop\n      dup2\n      mstore\n      0x20\n      add\n      mload(0x40)\n      dup1\n      0x40\n      add\n      0x40\n      mstore\n      dup1\n      0x07\n      dup2\n      mstore\n      0x20\n      add\n      0x75696e7432353600000000000000000000000000000000000000000000000000\n      dup2\n      mstore\n      pop\n      dup2\n      mstore\n      0x20\n      add\n        /* \"Evm/core/base/vault.sol\":5962:5977  block.timestamp */\n      timestamp\n        /* \"Evm/core/base/vault.sol\":5951:5978  abi.encode(block.timestamp) */\n      add(0x20, mload(0x40))\n      tag_160\n      swap2\n      swap1\n      tag_109\n      jump\t// in\n    tag_160:\n      mload(0x40)\n      0x20\n      dup2\n      dup4\n      sub\n      sub\n      dup2\n      mstore\n      swap1\n      0x40\n      mstore\n        /* \"Evm/core/base/vault.sol\":5914:5979  IEvents.Data(\"timestamp\", \"uint256\", abi.encode(block.timestamp)) */\n      dup2\n      mstore\n      pop\n        /* \"Evm/core/base/vault.sol\":5899:5908  eventData */\n      dup2\n        /* \"Evm/core/base/vault.sol\":5909:5910  4 */\n      0x04\n        /* \"Evm/core/base/vault.sol\":5899:5911  eventData[4] */\n      dup2\n      mload\n      dup2\n      lt\n      tag_161\n      jumpi\n      tag_162\n      tag_107\n      jump\t// in\n    tag_162:\n    tag_161:\n      0x20\n      mul\n      0x20\n      add\n      add\n        /* \"Evm/core/base/vault.sol\":5899:5979  eventData[4] = IEvents.Data(\"timestamp\", \"uint256\", abi.encode(block.timestamp)) */\n      dup2\n      swap1\n      mstore\n      pop\n        /* \"Evm/core/base/vault.sol\":5992:5998  events */\n      immutable(\"0xa55f93089260f97cd16ec7a717e7ade24f99065bc4509014bd14fefe4d832ab6\")\n        /* \"Evm/core/base/vault.sol\":5992:6013  events.emitVaultEvent */\n      0xffffffffffffffffffffffffffffffffffffffff\n      and\n      0x7d64fa9b\n        /* \"Evm/core/base/vault.sol\":6025:6034  eventData */\n      dup3\n        /* \"Evm/core/base/vault.sol\":5992:6035  events.emitVaultEvent(\"Deposit\", eventData) */\n      mload(0x40)\n      dup3\n      0xffffffff\n      and\n      0xe0\n      shl\n      dup2\n      mstore\n      0x04\n      add\n      tag_163\n      swap2\n      swap1\n      tag_164\n      jump\t// in\n    tag_163:\n      0x00\n      mload(0x40)\n      dup1\n      dup4\n      sub\n      dup2\n      0x00\n      dup8\n      dup1\n      extcodesize\n      iszero\n      dup1\n      iszero\n      tag_165\n      jumpi\n      revert(0x00, 0x00)\n    tag_165:\n      pop\n      gas\n      call\n      iszero\n      dup1\n      iszero\n      tag_167\n      jumpi\n      returndatacopy(0x00, 0x00, returndatasize)\n      revert(0x00, returndatasize)\n    tag_167:\n      pop\n      pop\n      pop\n      pop\n        /* \"Evm/core/base/vault.sol\":6071:6076  token */\n      dup2\n        /* \"Evm/core/base/vault.sol\":6051:6099  Deposit(msg.sender, token, amount, providerName) */\n      0xffffffffffffffffffffffffffffffffffffffff\n      and\n        /* \"Evm/core/base/vault.sol\":6059:6069  msg.sender */\n      caller\n        /* \"Evm/core/base/vault.sol\":6051:6099  Deposit(msg.sender, token, amount, providerName) */\n      0xffffffffffffffffffffffffffffffffffffffff\n      and\n      0xef519b7eb82aaf6ac376a6df2d793843ebfd593de5f1a0601d3cc6ab49ebb395\n        /* \"Evm/core/base/vault.sol\":6078:6084  amount */\n      dup6\n        /* \"Evm/core/base/vault.sol\":6086:6098  providerName */\n      0x01\n        /* \"Evm/core/base/vault.sol\":6051:6099  Deposit(msg.sender, token, amount, providerName) */\n      mload(0x40)\n      tag_168\n      swap3\n      swap2\n      swap1\n      tag_132\n      jump\t// in\n    tag_168:\n      mload(0x40)\n      dup1\n      swap2\n      sub\n      swap1\n      log3\n        /* \"Evm/core/base/vault.sol\":5180:6107  {... */\n      pop\n      pop\n        /* \"Evm/core/base/vault.sol\":5111:6107  function deposit(string calldata assetName, uint256 amount) external {... */\n      pop\n      pop\n      pop\n      jump\t// out\n        /* \"Evm/core/base/vault.sol\":696:727  IEvents public immutable events */\n    tag_46:\n      immutable(\"0xa55f93089260f97cd16ec7a717e7ade24f99065bc4509014bd14fefe4d832ab6\")\n      dup2\n      jump\t// out\n        /* \"Evm/core/base/vault.sol\":644:689  IVariables public immutable variablesRegistry */\n    tag_50:\n      immutable(\"0x1067a32fc2bf4122310a8f066f11577e006583df65ce4c5172289c9680be102c\")\n      dup2\n      jump\t// out\n        /* \"Evm/core/base/vault.sol\":2590:3786  function m_withdraw(bytes calldata user, string calldata shared, string calldata assetName, uint256 amount) external { ... */\n    tag_56:\n        /* \"Evm/core/base/vault.sol\":2827:2840  address token */\n      0x00\n        /* \"Evm/core/base/vault.sol\":2843:2866  resolveAsset(assetName) */\n      tag_170\n        /* \"Evm/core/base/vault.sol\":2856:2865  assetName */\n      dup5\n      dup5\n        /* \"Evm/core/base/vault.sol\":2843:2866  resolveAsset(assetName) */\n      dup1\n      dup1\n      0x1f\n      add\n      0x20\n      dup1\n      swap2\n      div\n      mul\n      0x20\n      add\n      mload(0x40)\n      swap1\n      dup2\n      add\n      0x40\n      mstore\n      dup1\n      swap4\n      swap3\n      swap2\n      swap1\n      dup2\n      dup2\n      mstore\n      0x20\n      add\n      dup4\n      dup4\n      dup1\n      dup3\n      dup5\n      calldatacopy\n      0x00\n      dup2\n      dup5\n      add\n      mstore\n      not(0x1f)\n      0x1f\n      dup3\n      add\n      and\n      swap1\n      pop\n      dup1\n      dup4\n      add\n      swap3\n      pop\n      pop\n      pop\n      pop\n      pop\n      pop\n      pop\n        /* \"Evm/core/base/vault.sol\":2843:2855  resolveAsset */\n      tag_23\n        /* \"Evm/core/base/vault.sol\":2843:2866  resolveAsset(assetName) */\n      jump\t// in\n    tag_170:\n        /* \"Evm/core/base/vault.sol\":2827:2866  address token = resolveAsset(assetName) */\n      swap1\n      pop\n        /* \"Evm/core/base/vault.sol\":2885:2901  isSupportedToken */\n      0x02\n        /* \"Evm/core/base/vault.sol\":2885:2908  isSupportedToken[token] */\n      0x00\n        /* \"Evm/core/base/vault.sol\":2902:2907  token */\n      dup3\n        /* \"Evm/core/base/vault.sol\":2885:2908  isSupportedToken[token] */\n      0xffffffffffffffffffffffffffffffffffffffff\n      and\n      0xffffffffffffffffffffffffffffffffffffffff\n      and\n      dup2\n      mstore\n      0x20\n      add\n      swap1\n      dup2\n      mstore\n      0x20\n      add\n      0x00\n      keccak256\n      0x00\n      swap1\n      sload\n      swap1\n      0x0100\n      exp\n      swap1\n      div\n      0xff\n      and\n        /* \"Evm/core/base/vault.sol\":2877:2939  require(isSupportedToken[token], \"Vault: Token not supported\") */\n      tag_171\n      jumpi\n      mload(0x40)\n      0x08c379a000000000000000000000000000000000000000000000000000000000\n      dup2\n      mstore\n      0x04\n      add\n      tag_172\n      swap1\n      tag_94\n      jump\t// in\n    tag_172:\n      mload(0x40)\n      dup1\n      swap2\n      sub\n      swap1\n      revert\n    tag_171:\n        /* \"Evm/core/base/vault.sol\":3001:3032  IEvents.Data[] memory eventData */\n      0x00\n        /* \"Evm/core/base/vault.sol\":3054:3055  6 */\n      0x06\n        /* \"Evm/core/base/vault.sol\":3035:3056  new IEvents.Data[](6) */\n      0xffffffffffffffff\n      dup2\n      gt\n      iszero\n      tag_173\n      jumpi\n      tag_174\n      tag_99\n      jump\t// in\n    tag_174:\n    tag_173:\n      mload(0x40)\n      swap1\n      dup1\n      dup3\n      mstore\n      dup1\n      0x20\n      mul\n      0x20\n      add\n      dup3\n      add\n      0x40\n      mstore\n      dup1\n      iszero\n      tag_175\n      jumpi\n      dup2\n      0x20\n      add\n    tag_176:\n      tag_177\n      tag_103\n      jump\t// in\n    tag_177:\n      dup2\n      mstore\n      0x20\n      add\n      swap1\n      0x01\n      swap1\n      sub\n      swap1\n      dup2\n      tag_176\n      jumpi\n      swap1\n      pop\n    tag_175:\n      pop\n        /* \"Evm/core/base/vault.sol\":3001:3056  IEvents.Data[] memory eventData = new IEvents.Data[](6) */\n      swap1\n      pop\n        /* \"Evm/core/base/vault.sol\":3092:3139  IEvents.Data(\"user\", \"bytes\", abi.encode(user)) */\n      mload(0x40)\n      dup1\n      0x60\n      add\n      0x40\n      mstore\n      dup1\n      mload(0x40)\n      dup1\n      0x40\n      add\n      0x40\n      mstore\n      dup1\n      0x04\n      dup2\n      mstore\n      0x20\n      add\n      0x7573657200000000000000000000000000000000000000000000000000000000\n      dup2\n      mstore\n      pop\n      dup2\n      mstore\n      0x20\n      add\n      mload(0x40)\n      dup1\n      0x40\n      add\n      0x40\n      mstore\n      dup1\n      0x05\n      dup2\n      mstore\n      0x20\n      add\n      0x6279746573000000000000000000000000000000000000000000000000000000\n      dup2\n      mstore\n      pop\n      dup2\n      mstore\n      0x20\n      add\n        /* \"Evm/core/base/vault.sol\":3133:3137  user */\n      dup11\n      dup11\n        /* \"Evm/core/base/vault.sol\":3122:3138  abi.encode(user) */\n      add(0x20, mload(0x40))\n      tag_178\n      swap3\n      swap2\n      swap1\n      tag_179\n      jump\t// in\n    tag_178:\n      mload(0x40)\n      0x20\n      dup2\n      dup4\n      sub\n      sub\n      dup2\n      mstore\n      swap1\n      0x40\n      mstore\n        /* \"Evm/core/base/vault.sol\":3092:3139  IEvents.Data(\"user\", \"bytes\", abi.encode(user)) */\n      dup2\n      mstore\n      pop\n        /* \"Evm/core/base/vault.sol\":3077:3086  eventData */\n      dup2\n        /* \"Evm/core/base/vault.sol\":3087:3088  0 */\n      0x00\n        /* \"Evm/core/base/vault.sol\":3077:3089  eventData[0] */\n      dup2\n      mload\n      dup2\n      lt\n      tag_180\n      jumpi\n      tag_181\n      tag_107\n      jump\t// in\n    tag_181:\n    tag_180:\n      0x20\n      mul\n      0x20\n      add\n      add\n        /* \"Evm/core/base/vault.sol\":3077:3139  eventData[0] = IEvents.Data(\"user\", \"bytes\", abi.encode(user)) */\n      dup2\n      swap1\n      mstore\n      pop\n        /* \"Evm/core/base/vault.sol\":3165:3218  IEvents.Data(\"shared\", \"address\", abi.encode(shared)) */\n      mload(0x40)\n      dup1\n      0x60\n      add\n      0x40\n      mstore\n      dup1\n      mload(0x40)\n      dup1\n      0x40\n      add\n      0x40\n      mstore\n      dup1\n      0x06\n      dup2\n      mstore\n      0x20\n      add\n      0x7368617265640000000000000000000000000000000000000000000000000000\n      dup2\n      mstore\n      pop\n      dup2\n      mstore\n      0x20\n      add\n      mload(0x40)\n      dup1\n      0x40\n      add\n      0x40\n      mstore\n      dup1\n      0x07\n      dup2\n      mstore\n      0x20\n      add\n      0x6164647265737300000000000000000000000000000000000000000000000000\n      dup2\n      mstore\n      pop\n      dup2\n      mstore\n      0x20\n      add\n        /* \"Evm/core/base/vault.sol\":3210:3216  shared */\n      dup9\n      dup9\n        /* \"Evm/core/base/vault.sol\":3199:3217  abi.encode(shared) */\n      add(0x20, mload(0x40))\n      tag_182\n      swap3\n      swap2\n      swap1\n      tag_113\n      jump\t// in\n    tag_182:\n      mload(0x40)\n      0x20\n      dup2\n      dup4\n      sub\n      sub\n      dup2\n      mstore\n      swap1\n      0x40\n      mstore\n        /* \"Evm/core/base/vault.sol\":3165:3218  IEvents.Data(\"shared\", \"address\", abi.encode(shared)) */\n      dup2\n      mstore\n      pop\n        /* \"Evm/core/base/vault.sol\":3150:3159  eventData */\n      dup2\n        /* \"Evm/core/base/vault.sol\":3160:3161  1 */\n      0x01\n        /* \"Evm/core/base/vault.sol\":3150:3162  eventData[1] */\n      dup2\n      mload\n      dup2\n      lt\n      tag_183\n      jumpi\n      tag_184\n      tag_107\n      jump\t// in\n    tag_184:\n    tag_183:\n      0x20\n      mul\n      0x20\n      add\n      add\n        /* \"Evm/core/base/vault.sol\":3150:3218  eventData[1] = IEvents.Data(\"shared\", \"address\", abi.encode(shared)) */\n      dup2\n      swap1\n      mstore\n      pop\n        /* \"Evm/core/base/vault.sol\":3244:3297  IEvents.Data(\"amount\", \"uint256\", abi.encode(amount)) */\n      mload(0x40)\n      dup1\n      0x60\n      add\n      0x40\n      mstore\n      dup1\n      mload(0x40)\n      dup1\n      0x40\n      add\n      0x40\n      mstore\n      dup1\n      0x06\n      dup2\n      mstore\n      0x20\n      add\n      0x616d6f756e740000000000000000000000000000000000000000000000000000\n      dup2\n      mstore\n      pop\n      dup2\n      mstore\n      0x20\n      add\n      mload(0x40)\n      dup1\n      0x40\n      add\n      0x40\n      mstore\n      dup1\n      0x07\n      dup2\n      mstore\n      0x20\n      add\n      0x75696e7432353600000000000000000000000000000000000000000000000000\n      dup2\n      mstore\n      pop\n      dup2\n      mstore\n      0x20\n      add\n        /* \"Evm/core/base/vault.sol\":3289:3295  amount */\n      dup5\n        /* \"Evm/core/base/vault.sol\":3278:3296  abi.encode(amount) */\n      add(0x20, mload(0x40))\n      tag_185\n      swap2\n      swap1\n      tag_109\n      jump\t// in\n    tag_185:\n      mload(0x40)\n      0x20\n      dup2\n      dup4\n      sub\n      sub\n      dup2\n      mstore\n      swap1\n      0x40\n      mstore\n        /* \"Evm/core/base/vault.sol\":3244:3297  IEvents.Data(\"amount\", \"uint256\", abi.encode(amount)) */\n      dup2\n      mstore\n      pop\n        /* \"Evm/core/base/vault.sol\":3229:3238  eventData */\n      dup2\n        /* \"Evm/core/base/vault.sol\":3239:3240  2 */\n      0x02\n        /* \"Evm/core/base/vault.sol\":3229:3241  eventData[2] */\n      dup2\n      mload\n      dup2\n      lt\n      tag_186\n      jumpi\n      tag_187\n      tag_107\n      jump\t// in\n    tag_187:\n    tag_186:\n      0x20\n      mul\n      0x20\n      add\n      add\n        /* \"Evm/core/base/vault.sol\":3229:3297  eventData[2] = IEvents.Data(\"amount\", \"uint256\", abi.encode(amount)) */\n      dup2\n      swap1\n      mstore\n      pop\n        /* \"Evm/core/base/vault.sol\":3323:3374  IEvents.Data(\"chain\", \"string\", abi.encode(\"base\")) */\n      mload(0x40)\n      dup1\n      0x60\n      add\n      0x40\n      mstore\n      dup1\n      mload(0x40)\n      dup1\n      0x40\n      add\n      0x40\n      mstore\n      dup1\n      0x05\n      dup2\n      mstore\n      0x20\n      add\n      0x636861696e000000000000000000000000000000000000000000000000000000\n      dup2\n      mstore\n      pop\n      dup2\n      mstore\n      0x20\n      add\n      mload(0x40)\n      dup1\n      0x40\n      add\n      0x40\n      mstore\n      dup1\n      0x06\n      dup2\n      mstore\n      0x20\n      add\n      0x737472696e670000000000000000000000000000000000000000000000000000\n      dup2\n      mstore\n      pop\n      dup2\n      mstore\n      0x20\n      add\n        /* \"Evm/core/base/vault.sol\":3355:3373  abi.encode(\"base\") */\n      add(0x20, mload(0x40))\n      tag_188\n      swap1\n      tag_189\n      jump\t// in\n    tag_188:\n      mload(0x40)\n      0x20\n      dup2\n      dup4\n      sub\n      sub\n      dup2\n      mstore\n      swap1\n      0x40\n      mstore\n        /* \"Evm/core/base/vault.sol\":3323:3374  IEvents.Data(\"chain\", \"string\", abi.encode(\"base\")) */\n      dup2\n      mstore\n      pop\n        /* \"Evm/core/base/vault.sol\":3308:3317  eventData */\n      dup2\n        /* \"Evm/core/base/vault.sol\":3318:3319  3 */\n      0x03\n        /* \"Evm/core/base/vault.sol\":3308:3320  eventData[3] */\n      dup2\n      mload\n      dup2\n      lt\n      tag_190\n      jumpi\n      tag_191\n      tag_107\n      jump\t// in\n    tag_191:\n    tag_190:\n      0x20\n      mul\n      0x20\n      add\n      add\n        /* \"Evm/core/base/vault.sol\":3308:3374  eventData[3] = IEvents.Data(\"chain\", \"string\", abi.encode(\"base\")) */\n      dup2\n      swap1\n      mstore\n      pop\n        /* \"Evm/core/base/vault.sol\":3400:3460  IEvents.Data(\"provider\", \"string\", abi.encode(providerName)) */\n      mload(0x40)\n      dup1\n      0x60\n      add\n      0x40\n      mstore\n      dup1\n      mload(0x40)\n      dup1\n      0x40\n      add\n      0x40\n      mstore\n      dup1\n      0x08\n      dup2\n      mstore\n      0x20\n      add\n      0x70726f7669646572000000000000000000000000000000000000000000000000\n      dup2\n      mstore\n      pop\n      dup2\n      mstore\n      0x20\n      add\n      mload(0x40)\n      dup1\n      0x40\n      add\n      0x40\n      mstore\n      dup1\n      0x06\n      dup2\n      mstore\n      0x20\n      add\n      0x737472696e670000000000000000000000000000000000000000000000000000\n      dup2\n      mstore\n      pop\n      dup2\n      mstore\n      0x20\n      add\n        /* \"Evm/core/base/vault.sol\":3446:3458  providerName */\n      0x01\n        /* \"Evm/core/base/vault.sol\":3435:3459  abi.encode(providerName) */\n      add(0x20, mload(0x40))\n      tag_192\n      swap2\n      swap1\n      tag_117\n      jump\t// in\n    tag_192:\n      mload(0x40)\n      0x20\n      dup2\n      dup4\n      sub\n      sub\n      dup2\n      mstore\n      swap1\n      0x40\n      mstore\n        /* \"Evm/core/base/vault.sol\":3400:3460  IEvents.Data(\"provider\", \"string\", abi.encode(providerName)) */\n      dup2\n      mstore\n      pop\n        /* \"Evm/core/base/vault.sol\":3385:3394  eventData */\n      dup2\n        /* \"Evm/core/base/vault.sol\":3395:3396  4 */\n      0x04\n        /* \"Evm/core/base/vault.sol\":3385:3397  eventData[4] */\n      dup2\n      mload\n      dup2\n      lt\n      tag_193\n      jumpi\n      tag_194\n      tag_107\n      jump\t// in\n    tag_194:\n    tag_193:\n      0x20\n      mul\n      0x20\n      add\n      add\n        /* \"Evm/core/base/vault.sol\":3385:3460  eventData[4] = IEvents.Data(\"provider\", \"string\", abi.encode(providerName)) */\n      dup2\n      swap1\n      mstore\n      pop\n        /* \"Evm/core/base/vault.sol\":3576:3630  IEvents.Data(\"token\", \"string\", abi.encode(assetName)) */\n      mload(0x40)\n      dup1\n      0x60\n      add\n      0x40\n      mstore\n      dup1\n      mload(0x40)\n      dup1\n      0x40\n      add\n      0x40\n      mstore\n      dup1\n      0x05\n      dup2\n      mstore\n      0x20\n      add\n      0x746f6b656e000000000000000000000000000000000000000000000000000000\n      dup2\n      mstore\n      pop\n      dup2\n      mstore\n      0x20\n      add\n      mload(0x40)\n      dup1\n      0x40\n      add\n      0x40\n      mstore\n      dup1\n      0x06\n      dup2\n      mstore\n      0x20\n      add\n      0x737472696e670000000000000000000000000000000000000000000000000000\n      dup2\n      mstore\n      pop\n      dup2\n      mstore\n      0x20\n      add\n        /* \"Evm/core/base/vault.sol\":3619:3628  assetName */\n      dup7\n      dup7\n        /* \"Evm/core/base/vault.sol\":3608:3629  abi.encode(assetName) */\n      add(0x20, mload(0x40))\n      tag_195\n      swap3\n      swap2\n      swap1\n      tag_113\n      jump\t// in\n    tag_195:\n      mload(0x40)\n      0x20\n      dup2\n      dup4\n      sub\n      sub\n      dup2\n      mstore\n      swap1\n      0x40\n      mstore\n        /* \"Evm/core/base/vault.sol\":3576:3630  IEvents.Data(\"token\", \"string\", abi.encode(assetName)) */\n      dup2\n      mstore\n      pop\n        /* \"Evm/core/base/vault.sol\":3561:3570  eventData */\n      dup2\n        /* \"Evm/core/base/vault.sol\":3571:3572  5 */\n      0x05\n        /* \"Evm/core/base/vault.sol\":3561:3573  eventData[5] */\n      dup2\n      mload\n      dup2\n      lt\n      tag_196\n      jumpi\n      tag_197\n      tag_107\n      jump\t// in\n    tag_197:\n    tag_196:\n      0x20\n      mul\n      0x20\n      add\n      add\n        /* \"Evm/core/base/vault.sol\":3561:3630  eventData[5] = IEvents.Data(\"token\", \"string\", abi.encode(assetName)) */\n      dup2\n      swap1\n      mstore\n      pop\n        /* \"Evm/core/base/vault.sol\":3726:3732  events */\n      immutable(\"0xa55f93089260f97cd16ec7a717e7ade24f99065bc4509014bd14fefe4d832ab6\")\n        /* \"Evm/core/base/vault.sol\":3726:3747  events.emitVaultEvent */\n      0xffffffffffffffffffffffffffffffffffffffff\n      and\n      0x7d64fa9b\n        /* \"Evm/core/base/vault.sol\":3768:3777  eventData */\n      dup3\n        /* \"Evm/core/base/vault.sol\":3726:3778  events.emitVaultEvent(\"Modular Withdraw\", eventData) */\n      mload(0x40)\n      dup3\n      0xffffffff\n      and\n      0xe0\n      shl\n      dup2\n      mstore\n      0x04\n      add\n      tag_198\n      swap2\n      swap1\n      tag_199\n      jump\t// in\n    tag_198:\n      0x00\n      mload(0x40)\n      dup1\n      dup4\n      sub\n      dup2\n      0x00\n      dup8\n      dup1\n      extcodesize\n      iszero\n      dup1\n      iszero\n      tag_200\n      jumpi\n      revert(0x00, 0x00)\n    tag_200:\n      pop\n      gas\n      call\n      iszero\n      dup1\n      iszero\n      tag_202\n      jumpi\n      returndatacopy(0x00, 0x00, returndatasize)\n      revert(0x00, returndatasize)\n    tag_202:\n      pop\n      pop\n      pop\n      pop\n        /* \"Evm/core/base/vault.sol\":2707:3786  { ... */\n      pop\n      pop\n        /* \"Evm/core/base/vault.sol\":2590:3786  function m_withdraw(bytes calldata user, string calldata shared, string calldata assetName, uint256 amount) external { ... */\n      pop\n      pop\n      pop\n      pop\n      pop\n      pop\n      pop\n      jump\t// out\n        /* \"Evm/core/base/vault.sol\":1955:2172  function listNewToken(string calldata assetName) external {... */\n    tag_60:\n        /* \"Evm/core/base/vault.sol\":2024:2041  address tokenAddr */\n      0x00\n        /* \"Evm/core/base/vault.sol\":2044:2067  resolveAsset(assetName) */\n      tag_204\n        /* \"Evm/core/base/vault.sol\":2057:2066  assetName */\n      dup4\n      dup4\n        /* \"Evm/core/base/vault.sol\":2044:2067  resolveAsset(assetName) */\n      dup1\n      dup1\n      0x1f\n      add\n      0x20\n      dup1\n      swap2\n      div\n      mul\n      0x20\n      add\n      mload(0x40)\n      swap1\n      dup2\n      add\n      0x40\n      mstore\n      dup1\n      swap4\n      swap3\n      swap2\n      swap1\n      dup2\n      dup2\n      mstore\n      0x20\n      add\n      dup4\n      dup4\n      dup1\n      dup3\n      dup5\n      calldatacopy\n      0x00\n      dup2\n      dup5\n      add\n      mstore\n      not(0x1f)\n      0x1f\n      dup3\n      add\n      and\n      swap1\n      pop\n      dup1\n      dup4\n      add\n      swap3\n      pop\n      pop\n      pop\n      pop\n      pop\n      pop\n      pop\n        /* \"Evm/core/base/vault.sol\":2044:2056  resolveAsset */\n      tag_23\n        /* \"Evm/core/base/vault.sol\":2044:2067  resolveAsset(assetName) */\n      jump\t// in\n    tag_204:\n        /* \"Evm/core/base/vault.sol\":2024:2067  address tokenAddr = resolveAsset(assetName) */\n      swap1\n      pop\n        /* \"Evm/core/base/vault.sol\":2108:2112  true */\n      0x01\n        /* \"Evm/core/base/vault.sol\":2078:2094  isSupportedToken */\n      0x02\n        /* \"Evm/core/base/vault.sol\":2078:2105  isSupportedToken[tokenAddr] */\n      0x00\n        /* \"Evm/core/base/vault.sol\":2095:2104  tokenAddr */\n      dup4\n        /* \"Evm/core/base/vault.sol\":2078:2105  isSupportedToken[tokenAddr] */\n      0xffffffffffffffffffffffffffffffffffffffff\n      and\n      0xffffffffffffffffffffffffffffffffffffffff\n      and\n      dup2\n      mstore\n      0x20\n      add\n      swap1\n      dup2\n      mstore\n      0x20\n      add\n      0x00\n      keccak256\n      0x00\n        /* \"Evm/core/base/vault.sol\":2078:2112  isSupportedToken[tokenAddr] = true */\n      0x0100\n      exp\n      dup2\n      sload\n      dup2\n      0xff\n      mul\n      not\n      and\n      swap1\n      dup4\n      iszero\n      iszero\n      mul\n      or\n      swap1\n      sstore\n      pop\n        /* \"Evm/core/base/vault.sol\":2140:2149  tokenAddr */\n      dup1\n        /* \"Evm/core/base/vault.sol\":2128:2164  TokenListed(tokenAddr, providerName) */\n      0xffffffffffffffffffffffffffffffffffffffff\n      and\n      0xd57b1148efb91f418a2178fc1fb4ba12f9400a4dc8e71851fd59e85d337c609f\n        /* \"Evm/core/base/vault.sol\":2151:2163  providerName */\n      0x01\n        /* \"Evm/core/base/vault.sol\":2128:2164  TokenListed(tokenAddr, providerName) */\n      mload(0x40)\n      tag_205\n      swap2\n      swap1\n      tag_117\n      jump\t// in\n    tag_205:\n      mload(0x40)\n      dup1\n      swap2\n      sub\n      swap1\n      log2\n        /* \"Evm/core/base/vault.sol\":2013:2172  {... */\n      pop\n        /* \"Evm/core/base/vault.sol\":1955:2172  function listNewToken(string calldata assetName) external {... */\n      pop\n      pop\n      jump\t// out\n        /* \"@openzeppelin/contracts/access/Ownable.sol\":2543:2758  function transferOwnership(address newOwner) public virtual onlyOwner {... */\n    tag_63:\n        /* \"@openzeppelin/contracts/access/Ownable.sol\":1531:1544  _checkOwner() */\n      tag_207\n        /* \"@openzeppelin/contracts/access/Ownable.sol\":1531:1542  _checkOwner */\n      tag_84\n        /* \"@openzeppelin/contracts/access/Ownable.sol\":1531:1544  _checkOwner() */\n      jump\t// in\n    tag_207:\n        /* \"@openzeppelin/contracts/access/Ownable.sol\":2647:2648  0 */\n      0x00\n        /* \"@openzeppelin/contracts/access/Ownable.sol\":2627:2649  newOwner == address(0) */\n      0xffffffffffffffffffffffffffffffffffffffff\n      and\n        /* \"@openzeppelin/contracts/access/Ownable.sol\":2627:2635  newOwner */\n      dup2\n        /* \"@openzeppelin/contracts/access/Ownable.sol\":2627:2649  newOwner == address(0) */\n      0xffffffffffffffffffffffffffffffffffffffff\n      and\n      sub\n        /* \"@openzeppelin/contracts/access/Ownable.sol\":2623:2714  if (newOwner == address(0)) {... */\n      tag_209\n      jumpi\n        /* \"@openzeppelin/contracts/access/Ownable.sol\":2700:2701  0 */\n      0x00\n        /* \"@openzeppelin/contracts/access/Ownable.sol\":2672:2703  OwnableInvalidOwner(address(0)) */\n      mload(0x40)\n      0x1e4fbdf700000000000000000000000000000000000000000000000000000000\n      dup2\n      mstore\n      0x04\n      add\n      tag_210\n      swap2\n      swap1\n      tag_25\n      jump\t// in\n    tag_210:\n      mload(0x40)\n      dup1\n      swap2\n      sub\n      swap1\n      revert\n        /* \"@openzeppelin/contracts/access/Ownable.sol\":2623:2714  if (newOwner == address(0)) {... */\n    tag_209:\n        /* \"@openzeppelin/contracts/access/Ownable.sol\":2723:2751  _transferOwnership(newOwner) */\n      tag_211\n        /* \"@openzeppelin/contracts/access/Ownable.sol\":2742:2750  newOwner */\n      dup2\n        /* \"@openzeppelin/contracts/access/Ownable.sol\":2723:2741  _transferOwnership */\n      tag_87\n        /* \"@openzeppelin/contracts/access/Ownable.sol\":2723:2751  _transferOwnership(newOwner) */\n      jump\t// in\n    tag_211:\n        /* \"@openzeppelin/contracts/access/Ownable.sol\":2543:2758  function transferOwnership(address newOwner) public virtual onlyOwner {... */\n      pop\n      jump\t// out\n        /* \"@openzeppelin/contracts/access/Ownable.sol\":1796:1958  function _checkOwner() internal view virtual {... */\n    tag_84:\n        /* \"@openzeppelin/contracts/access/Ownable.sol\":1866:1878  _msgSender() */\n      tag_213\n        /* \"@openzeppelin/contracts/access/Ownable.sol\":1866:1876  _msgSender */\n      tag_214\n        /* \"@openzeppelin/contracts/access/Ownable.sol\":1866:1878  _msgSender() */\n      jump\t// in\n    tag_213:\n        /* \"@openzeppelin/contracts/access/Ownable.sol\":1855:1878  owner() != _msgSender() */\n      0xffffffffffffffffffffffffffffffffffffffff\n      and\n        /* \"@openzeppelin/contracts/access/Ownable.sol\":1855:1862  owner() */\n      tag_215\n        /* \"@openzeppelin/contracts/access/Ownable.sol\":1855:1860  owner */\n      tag_39\n        /* \"@openzeppelin/contracts/access/Ownable.sol\":1855:1862  owner() */\n      jump\t// in\n    tag_215:\n        /* \"@openzeppelin/contracts/access/Ownable.sol\":1855:1878  owner() != _msgSender() */\n      0xffffffffffffffffffffffffffffffffffffffff\n      and\n      eq\n        /* \"@openzeppelin/contracts/access/Ownable.sol\":1851:1952  if (owner() != _msgSender()) {... */\n      tag_216\n      jumpi\n        /* \"@openzeppelin/contracts/access/Ownable.sol\":1928:1940  _msgSender() */\n      tag_217\n        /* \"@openzeppelin/contracts/access/Ownable.sol\":1928:1938  _msgSender */\n      tag_214\n        /* \"@openzeppelin/contracts/access/Ownable.sol\":1928:1940  _msgSender() */\n      jump\t// in\n    tag_217:\n        /* \"@openzeppelin/contracts/access/Ownable.sol\":1901:1941  OwnableUnauthorizedAccount(_msgSender()) */\n      mload(0x40)\n      0x118cdaa700000000000000000000000000000000000000000000000000000000\n      dup2\n      mstore\n      0x04\n      add\n      tag_218\n      swap2\n      swap1\n      tag_25\n      jump\t// in\n    tag_218:\n      mload(0x40)\n      dup1\n      swap2\n      sub\n      swap1\n      revert\n        /* \"@openzeppelin/contracts/access/Ownable.sol\":1851:1952  if (owner() != _msgSender()) {... */\n    tag_216:\n        /* \"@openzeppelin/contracts/access/Ownable.sol\":1796:1958  function _checkOwner() internal view virtual {... */\n      jump\t// out\n        /* \"@openzeppelin/contracts/access/Ownable.sol\":2912:3099  function _transferOwnership(address newOwner) internal virtual {... */\n    tag_87:\n        /* \"@openzeppelin/contracts/access/Ownable.sol\":2985:3001  address oldOwner */\n      0x00\n        /* \"@openzeppelin/contracts/access/Ownable.sol\":3004:3010  _owner */\n      0x00\n      0x00\n      swap1\n      sload\n      swap1\n      0x0100\n      exp\n      swap1\n      div\n      0xffffffffffffffffffffffffffffffffffffffff\n      and\n        /* \"@openzeppelin/contracts/access/Ownable.sol\":2985:3010  address oldOwner = _owner */\n      swap1\n      pop\n        /* \"@openzeppelin/contracts/access/Ownable.sol\":3029:3037  newOwner */\n      dup2\n        /* \"@openzeppelin/contracts/access/Ownable.sol\":3020:3026  _owner */\n      0x00\n      0x00\n        /* \"@openzeppelin/contracts/access/Ownable.sol\":3020:3037  _owner = newOwner */\n      0x0100\n      exp\n      dup2\n      sload\n      dup2\n      0xffffffffffffffffffffffffffffffffffffffff\n      mul\n      not\n      and\n      swap1\n      dup4\n      0xffffffffffffffffffffffffffffffffffffffff\n      and\n      mul\n      or\n      swap1\n      sstore\n      pop\n        /* \"@openzeppelin/contracts/access/Ownable.sol\":3083:3091  newOwner */\n      dup2\n        /* \"@openzeppelin/contracts/access/Ownable.sol\":3052:3092  OwnershipTransferred(oldOwner, newOwner) */\n      0xffffffffffffffffffffffffffffffffffffffff\n      and\n        /* \"@openzeppelin/contracts/access/Ownable.sol\":3073:3081  oldOwner */\n      dup2\n        /* \"@openzeppelin/contracts/access/Ownable.sol\":3052:3092  OwnershipTransferred(oldOwner, newOwner) */\n      0xffffffffffffffffffffffffffffffffffffffff\n      and\n      0x8be0079c531659141344cd1fd0a4f28419497f9722a3daafe3b4186f6b6457e0\n      mload(0x40)\n      mload(0x40)\n      dup1\n      swap2\n      sub\n      swap1\n      log3\n        /* \"@openzeppelin/contracts/access/Ownable.sol\":2975:3099  {... */\n      pop\n        /* \"@openzeppelin/contracts/access/Ownable.sol\":2912:3099  function _transferOwnership(address newOwner) internal virtual {... */\n      pop\n      jump\t// out\n        /* \"@openzeppelin/contracts/token/ERC20/utils/SafeERC20.sol\":1219:1423  function safeTransfer(IERC20 token, address to, uint256 value) internal {... */\n    tag_96:\n        /* \"@openzeppelin/contracts/token/ERC20/utils/SafeERC20.sol\":1306:1343  _safeTransfer(token, to, value, true) */\n      tag_221\n        /* \"@openzeppelin/contracts/token/ERC20/utils/SafeERC20.sol\":1320:1325  token */\n      dup4\n        /* \"@openzeppelin/contracts/token/ERC20/utils/SafeERC20.sol\":1327:1329  to */\n      dup4\n        /* \"@openzeppelin/contracts/token/ERC20/utils/SafeERC20.sol\":1331:1336  value */\n      dup4\n        /* \"@openzeppelin/contracts/token/ERC20/utils/SafeERC20.sol\":1338:1342  true */\n      0x01\n        /* \"@openzeppelin/contracts/token/ERC20/utils/SafeERC20.sol\":1306:1319  _safeTransfer */\n      tag_222\n        /* \"@openzeppelin/contracts/token/ERC20/utils/SafeERC20.sol\":1306:1343  _safeTransfer(token, to, value, true) */\n      jump\t// in\n    tag_221:\n        /* \"@openzeppelin/contracts/token/ERC20/utils/SafeERC20.sol\":1301:1417  if (!_safeTransfer(token, to, value, true)) {... */\n      tag_223\n      jumpi\n        /* \"@openzeppelin/contracts/token/ERC20/utils/SafeERC20.sol\":1399:1404  token */\n      dup3\n        /* \"@openzeppelin/contracts/token/ERC20/utils/SafeERC20.sol\":1366:1406  SafeERC20FailedOperation(address(token)) */\n      mload(0x40)\n      0x5274afe700000000000000000000000000000000000000000000000000000000\n      dup2\n      mstore\n      0x04\n      add\n      tag_224\n      swap2\n      swap1\n      tag_25\n      jump\t// in\n    tag_224:\n      mload(0x40)\n      dup1\n      swap2\n      sub\n      swap1\n      revert\n        /* \"@openzeppelin/contracts/token/ERC20/utils/SafeERC20.sol\":1301:1417  if (!_safeTransfer(token, to, value, true)) {... */\n    tag_223:\n        /* \"@openzeppelin/contracts/token/ERC20/utils/SafeERC20.sol\":1219:1423  function safeTransfer(IERC20 token, address to, uint256 value) internal {... */\n      pop\n      pop\n      pop\n      jump\t// out\n        /* \"@openzeppelin/contracts/token/ERC20/utils/SafeERC20.sol\":1662:1894  function safeTransferFrom(IERC20 token, address from, address to, uint256 value) internal {... */\n    tag_142:\n        /* \"@openzeppelin/contracts/token/ERC20/utils/SafeERC20.sol\":1767:1814  _safeTransferFrom(token, from, to, value, true) */\n      tag_226\n        /* \"@openzeppelin/contracts/token/ERC20/utils/SafeERC20.sol\":1785:1790  token */\n      dup5\n        /* \"@openzeppelin/contracts/token/ERC20/utils/SafeERC20.sol\":1792:1796  from */\n      dup5\n        /* \"@openzeppelin/contracts/token/ERC20/utils/SafeERC20.sol\":1798:1800  to */\n      dup5\n        /* \"@openzeppelin/contracts/token/ERC20/utils/SafeERC20.sol\":1802:1807  value */\n      dup5\n        /* \"@openzeppelin/contracts/token/ERC20/utils/SafeERC20.sol\":1809:1813  true */\n      0x01\n        /* \"@openzeppelin/contracts/token/ERC20/utils/SafeERC20.sol\":1767:1784  _safeTransferFrom */\n      tag_227\n        /* \"@openzeppelin/contracts/token/ERC20/utils/SafeERC20.sol\":1767:1814  _safeTransferFrom(token, from, to, value, true) */\n      jump\t// in\n    tag_226:\n        /* \"@openzeppelin/contracts/token/ERC20/utils/SafeERC20.sol\":1762:1888  if (!_safeTransferFrom(token, from, to, value, true)) {... */\n      tag_228\n      jumpi\n        /* \"@openzeppelin/contracts/token/ERC20/utils/SafeERC20.sol\":1870:1875  token */\n      dup4\n        /* \"@openzeppelin/contracts/token/ERC20/utils/SafeERC20.sol\":1837:1877  SafeERC20FailedOperation(address(token)) */\n      mload(0x40)\n      0x5274afe700000000000000000000000000000000000000000000000000000000\n      dup2\n      mstore\n      0x04\n      add\n      tag_229\n      swap2\n      swap1\n      tag_25\n      jump\t// in\n    tag_229:\n      mload(0x40)\n      dup1\n      swap2\n      sub\n      swap1\n      revert\n        /* \"@openzeppelin/contracts/token/ERC20/utils/SafeERC20.sol\":1762:1888  if (!_safeTransferFrom(token, from, to, value, true)) {... */\n    tag_228:\n        /* \"@openzeppelin/contracts/token/ERC20/utils/SafeERC20.sol\":1662:1894  function safeTransferFrom(IERC20 token, address from, address to, uint256 value) internal {... */\n      pop\n      pop\n      pop\n      pop\n      jump\t// out\n        /* \"@openzeppelin/contracts/utils/Context.sol\":656:752  function _msgSender() internal view virtual returns (address) {... */\n    tag_214:\n        /* \"@openzeppelin/contracts/utils/Context.sol\":709:716  address */\n      0x00\n        /* \"@openzeppelin/contracts/utils/Context.sol\":735:745  msg.sender */\n      caller\n        /* \"@openzeppelin/contracts/utils/Context.sol\":728:745  return msg.sender */\n      swap1\n      pop\n        /* \"@openzeppelin/contracts/utils/Context.sol\":656:752  function _msgSender() internal view virtual returns (address) {... */\n      swap1\n      jump\t// out\n        /* \"@openzeppelin/contracts/token/ERC20/utils/SafeERC20.sol\":8373:9617  function _safeTransfer(IERC20 token, address to, uint256 value, bool bubble) private returns (bool success) {... */\n    tag_222:\n        /* \"@openzeppelin/contracts/token/ERC20/utils/SafeERC20.sol\":8467:8479  bool success */\n      0x00\n        /* \"@openzeppelin/contracts/token/ERC20/utils/SafeERC20.sol\":8491:8506  bytes4 selector */\n      0x00\n        /* \"@openzeppelin/contracts/token/ERC20/utils/SafeERC20.sol\":8509:8533  IERC20.transfer.selector */\n      shl(0xe0, 0xa9059cbb)\n        /* \"@openzeppelin/contracts/token/ERC20/utils/SafeERC20.sol\":8491:8533  bytes4 selector = IERC20.transfer.selector */\n      swap1\n      pop\n        /* \"@openzeppelin/contracts/token/ERC20/utils/SafeERC20.sol\":8600:8604  0x40 */\n      0x40\n        /* \"@openzeppelin/contracts/token/ERC20/utils/SafeERC20.sol\":8594:8605  mload(0x40) */\n      mload\n        /* \"@openzeppelin/contracts/token/ERC20/utils/SafeERC20.sol\":8631:8639  selector */\n      dup2\n        /* \"@openzeppelin/contracts/token/ERC20/utils/SafeERC20.sol\":8625:8629  0x00 */\n      0x00\n        /* \"@openzeppelin/contracts/token/ERC20/utils/SafeERC20.sol\":8618:8640  mstore(0x00, selector) */\n      mstore\n        /* \"@openzeppelin/contracts/token/ERC20/utils/SafeERC20.sol\":8686:8687  0 */\n      0x00\n        /* \"@openzeppelin/contracts/token/ERC20/utils/SafeERC20.sol\":8682:8688  not(0) */\n      not\n        /* \"@openzeppelin/contracts/token/ERC20/utils/SafeERC20.sol\":8678:8680  96 */\n      0x60\n        /* \"@openzeppelin/contracts/token/ERC20/utils/SafeERC20.sol\":8674:8689  shr(96, not(0)) */\n      shr\n        /* \"@openzeppelin/contracts/token/ERC20/utils/SafeERC20.sol\":8670:8672  to */\n      dup7\n        /* \"@openzeppelin/contracts/token/ERC20/utils/SafeERC20.sol\":8666:8690  and(to, shr(96, not(0))) */\n      and\n        /* \"@openzeppelin/contracts/token/ERC20/utils/SafeERC20.sol\":8660:8664  0x04 */\n      0x04\n        /* \"@openzeppelin/contracts/token/ERC20/utils/SafeERC20.sol\":8653:8691  mstore(0x04, and(to, shr(96, not(0)))) */\n      mstore\n        /* \"@openzeppelin/contracts/token/ERC20/utils/SafeERC20.sol\":8717:8722  value */\n      dup5\n        /* \"@openzeppelin/contracts/token/ERC20/utils/SafeERC20.sol\":8711:8715  0x24 */\n      0x24\n        /* \"@openzeppelin/contracts/token/ERC20/utils/SafeERC20.sol\":8704:8723  mstore(0x24, value) */\n      mstore\n        /* \"@openzeppelin/contracts/token/ERC20/utils/SafeERC20.sol\":8787:8791  0x20 */\n      0x20\n        /* \"@openzeppelin/contracts/token/ERC20/utils/SafeERC20.sol\":8781:8785  0x00 */\n      0x00\n        /* \"@openzeppelin/contracts/token/ERC20/utils/SafeERC20.sol\":8775:8779  0x44 */\n      0x44\n        /* \"@openzeppelin/contracts/token/ERC20/utils/SafeERC20.sol\":8769:8773  0x00 */\n      0x00\n        /* \"@openzeppelin/contracts/token/ERC20/utils/SafeERC20.sol\":8766:8767  0 */\n      0x00\n        /* \"@openzeppelin/contracts/token/ERC20/utils/SafeERC20.sol\":8759:8764  token */\n      dup12\n        /* \"@openzeppelin/contracts/token/ERC20/utils/SafeERC20.sol\":8752:8757  gas() */\n      gas\n        /* \"@openzeppelin/contracts/token/ERC20/utils/SafeERC20.sol\":8747:8792  call(gas(), token, 0, 0x00, 0x44, 0x00, 0x20) */\n      call\n        /* \"@openzeppelin/contracts/token/ERC20/utils/SafeERC20.sol\":8736:8792  success := call(gas(), token, 0, 0x00, 0x44, 0x00, 0x20) */\n      swap3\n      pop\n        /* \"@openzeppelin/contracts/token/ERC20/utils/SafeERC20.sol\":9004:9005  1 */\n      0x01\n        /* \"@openzeppelin/contracts/token/ERC20/utils/SafeERC20.sol\":8997:9001  0x00 */\n      0x00\n        /* \"@openzeppelin/contracts/token/ERC20/utils/SafeERC20.sol\":8991:9002  mload(0x00) */\n      mload\n        /* \"@openzeppelin/contracts/token/ERC20/utils/SafeERC20.sol\":8988:9006  eq(mload(0x00), 1) */\n      eq\n        /* \"@openzeppelin/contracts/token/ERC20/utils/SafeERC20.sol\":8979:8986  success */\n      dup4\n        /* \"@openzeppelin/contracts/token/ERC20/utils/SafeERC20.sol\":8975:9007  and(success, eq(mload(0x00), 1)) */\n      and\n        /* \"@openzeppelin/contracts/token/ERC20/utils/SafeERC20.sol\":8965:9571  if iszero(and(success, eq(mload(0x00), 1))) {... */\n      tag_232\n      jumpi\n        /* \"@openzeppelin/contracts/token/ERC20/utils/SafeERC20.sol\":9136:9142  bubble */\n      dup4\n        /* \"@openzeppelin/contracts/token/ERC20/utils/SafeERC20.sol\":9126:9133  success */\n      dup4\n        /* \"@openzeppelin/contracts/token/ERC20/utils/SafeERC20.sol\":9119:9134  iszero(success) */\n      iszero\n        /* \"@openzeppelin/contracts/token/ERC20/utils/SafeERC20.sol\":9115:9143  and(iszero(success), bubble) */\n      and\n        /* \"@openzeppelin/contracts/token/ERC20/utils/SafeERC20.sol\":9112:9277  if and(iszero(success), bubble) {... */\n      iszero\n      tag_233\n      jumpi\n        /* \"@openzeppelin/contracts/token/ERC20/utils/SafeERC20.sol\":9192:9208  returndatasize() */\n      returndatasize\n        /* \"@openzeppelin/contracts/token/ERC20/utils/SafeERC20.sol\":9186:9190  0x00 */\n      0x00\n        /* \"@openzeppelin/contracts/token/ERC20/utils/SafeERC20.sol\":9181:9184  fmp */\n      dup3\n        /* \"@openzeppelin/contracts/token/ERC20/utils/SafeERC20.sol\":9166:9209  returndatacopy(fmp, 0x00, returndatasize()) */\n      returndatacopy\n        /* \"@openzeppelin/contracts/token/ERC20/utils/SafeERC20.sol\":9242:9258  returndatasize() */\n      returndatasize\n        /* \"@openzeppelin/contracts/token/ERC20/utils/SafeERC20.sol\":9237:9240  fmp */\n      dup2\n        /* \"@openzeppelin/contracts/token/ERC20/utils/SafeERC20.sol\":9230:9259  revert(fmp, returndatasize()) */\n      revert\n        /* \"@openzeppelin/contracts/token/ERC20/utils/SafeERC20.sol\":9112:9277  if and(iszero(success), bubble) {... */\n    tag_233:\n        /* \"@openzeppelin/contracts/token/ERC20/utils/SafeERC20.sol\":9553:9554  0 */\n      0x00\n        /* \"@openzeppelin/contracts/token/ERC20/utils/SafeERC20.sol\":9545:9550  token */\n      dup8\n        /* \"@openzeppelin/contracts/token/ERC20/utils/SafeERC20.sol\":9533:9551  extcodesize(token) */\n      extcodesize\n        /* \"@openzeppelin/contracts/token/ERC20/utils/SafeERC20.sol\":9530:9555  gt(extcodesize(token), 0) */\n      gt\n        /* \"@openzeppelin/contracts/token/ERC20/utils/SafeERC20.sol\":9511:9527  returndatasize() */\n      returndatasize\n        /* \"@openzeppelin/contracts/token/ERC20/utils/SafeERC20.sol\":9504:9528  iszero(returndatasize()) */\n      iszero\n        /* \"@openzeppelin/contracts/token/ERC20/utils/SafeERC20.sol\":9500:9556  and(iszero(returndatasize()), gt(extcodesize(token), 0)) */\n      and\n        /* \"@openzeppelin/contracts/token/ERC20/utils/SafeERC20.sol\":9491:9498  success */\n      dup4\n        /* \"@openzeppelin/contracts/token/ERC20/utils/SafeERC20.sol\":9487:9557  and(success, and(iszero(returndatasize()), gt(extcodesize(token), 0))) */\n      and\n        /* \"@openzeppelin/contracts/token/ERC20/utils/SafeERC20.sol\":9476:9557  success := and(success, and(iszero(returndatasize()), gt(extcodesize(token), 0))) */\n      swap3\n      pop\n        /* \"@openzeppelin/contracts/token/ERC20/utils/SafeERC20.sol\":8965:9571  if iszero(and(success, eq(mload(0x00), 1))) {... */\n    tag_232:\n        /* \"@openzeppelin/contracts/token/ERC20/utils/SafeERC20.sol\":9597:9600  fmp */\n      dup1\n        /* \"@openzeppelin/contracts/token/ERC20/utils/SafeERC20.sol\":9591:9595  0x40 */\n      0x40\n        /* \"@openzeppelin/contracts/token/ERC20/utils/SafeERC20.sol\":9584:9601  mstore(0x40, fmp) */\n      mstore\n        /* \"@openzeppelin/contracts/token/ERC20/utils/SafeERC20.sol\":8569:9611  {... */\n      pop\n      pop\n        /* \"@openzeppelin/contracts/token/ERC20/utils/SafeERC20.sol\":8373:9617  function _safeTransfer(IERC20 token, address to, uint256 value, bool bubble) private returns (bool success) {... */\n      swap5\n      swap4\n      pop\n      pop\n      pop\n      pop\n      jump\t// out\n        /* \"@openzeppelin/contracts/token/ERC20/utils/SafeERC20.sol\":10165:11558  function _safeTransferFrom(... */\n    tag_227:\n        /* \"@openzeppelin/contracts/token/ERC20/utils/SafeERC20.sol\":10323:10335  bool success */\n      0x00\n        /* \"@openzeppelin/contracts/token/ERC20/utils/SafeERC20.sol\":10347:10362  bytes4 selector */\n      0x00\n        /* \"@openzeppelin/contracts/token/ERC20/utils/SafeERC20.sol\":10365:10393  IERC20.transferFrom.selector */\n      shl(0xe0, 0x23b872dd)\n        /* \"@openzeppelin/contracts/token/ERC20/utils/SafeERC20.sol\":10347:10393  bytes4 selector = IERC20.transferFrom.selector */\n      swap1\n      pop\n        /* \"@openzeppelin/contracts/token/ERC20/utils/SafeERC20.sol\":10460:10464  0x40 */\n      0x40\n        /* \"@openzeppelin/contracts/token/ERC20/utils/SafeERC20.sol\":10454:10465  mload(0x40) */\n      mload\n        /* \"@openzeppelin/contracts/token/ERC20/utils/SafeERC20.sol\":10491:10499  selector */\n      dup2\n        /* \"@openzeppelin/contracts/token/ERC20/utils/SafeERC20.sol\":10485:10489  0x00 */\n      0x00\n        /* \"@openzeppelin/contracts/token/ERC20/utils/SafeERC20.sol\":10478:10500  mstore(0x00, selector) */\n      mstore\n        /* \"@openzeppelin/contracts/token/ERC20/utils/SafeERC20.sol\":10548:10549  0 */\n      0x00\n        /* \"@openzeppelin/contracts/token/ERC20/utils/SafeERC20.sol\":10544:10550  not(0) */\n      not\n        /* \"@openzeppelin/contracts/token/ERC20/utils/SafeERC20.sol\":10540:10542  96 */\n      0x60\n        /* \"@openzeppelin/contracts/token/ERC20/utils/SafeERC20.sol\":10536:10551  shr(96, not(0)) */\n      shr\n        /* \"@openzeppelin/contracts/token/ERC20/utils/SafeERC20.sol\":10530:10534  from */\n      dup8\n        /* \"@openzeppelin/contracts/token/ERC20/utils/SafeERC20.sol\":10526:10552  and(from, shr(96, not(0))) */\n      and\n        /* \"@openzeppelin/contracts/token/ERC20/utils/SafeERC20.sol\":10520:10524  0x04 */\n      0x04\n        /* \"@openzeppelin/contracts/token/ERC20/utils/SafeERC20.sol\":10513:10553  mstore(0x04, and(from, shr(96, not(0)))) */\n      mstore\n        /* \"@openzeppelin/contracts/token/ERC20/utils/SafeERC20.sol\":10599:10600  0 */\n      0x00\n        /* \"@openzeppelin/contracts/token/ERC20/utils/SafeERC20.sol\":10595:10601  not(0) */\n      not\n        /* \"@openzeppelin/contracts/token/ERC20/utils/SafeERC20.sol\":10591:10593  96 */\n      0x60\n        /* \"@openzeppelin/contracts/token/ERC20/utils/SafeERC20.sol\":10587:10602  shr(96, not(0)) */\n      shr\n        /* \"@openzeppelin/contracts/token/ERC20/utils/SafeERC20.sol\":10583:10585  to */\n      dup7\n        /* \"@openzeppelin/contracts/token/ERC20/utils/SafeERC20.sol\":10579:10603  and(to, shr(96, not(0))) */\n      and\n        /* \"@openzeppelin/contracts/token/ERC20/utils/SafeERC20.sol\":10573:10577  0x24 */\n      0x24\n        /* \"@openzeppelin/contracts/token/ERC20/utils/SafeERC20.sol\":10566:10604  mstore(0x24, and(to, shr(96, not(0)))) */\n      mstore\n        /* \"@openzeppelin/contracts/token/ERC20/utils/SafeERC20.sol\":10630:10635  value */\n      dup5\n        /* \"@openzeppelin/contracts/token/ERC20/utils/SafeERC20.sol\":10624:10628  0x44 */\n      0x44\n        /* \"@openzeppelin/contracts/token/ERC20/utils/SafeERC20.sol\":10617:10636  mstore(0x44, value) */\n      mstore\n        /* \"@openzeppelin/contracts/token/ERC20/utils/SafeERC20.sol\":10700:10704  0x20 */\n      0x20\n        /* \"@openzeppelin/contracts/token/ERC20/utils/SafeERC20.sol\":10694:10698  0x00 */\n      0x00\n        /* \"@openzeppelin/contracts/token/ERC20/utils/SafeERC20.sol\":10688:10692  0x64 */\n      0x64\n        /* \"@openzeppelin/contracts/token/ERC20/utils/SafeERC20.sol\":10682:10686  0x00 */\n      0x00\n        /* \"@openzeppelin/contracts/token/ERC20/utils/SafeERC20.sol\":10679:10680  0 */\n      0x00\n        /* \"@openzeppelin/contracts/token/ERC20/utils/SafeERC20.sol\":10672:10677  token */\n      dup13\n        /* \"@openzeppelin/contracts/token/ERC20/utils/SafeERC20.sol\":10665:10670  gas() */\n      gas\n        /* \"@openzeppelin/contracts/token/ERC20/utils/SafeERC20.sol\":10660:10705  call(gas(), token, 0, 0x00, 0x64, 0x00, 0x20) */\n      call\n        /* \"@openzeppelin/contracts/token/ERC20/utils/SafeERC20.sol\":10649:10705  success := call(gas(), token, 0, 0x00, 0x64, 0x00, 0x20) */\n      swap3\n      pop\n        /* \"@openzeppelin/contracts/token/ERC20/utils/SafeERC20.sol\":10917:10918  1 */\n      0x01\n        /* \"@openzeppelin/contracts/token/ERC20/utils/SafeERC20.sol\":10910:10914  0x00 */\n      0x00\n        /* \"@openzeppelin/contracts/token/ERC20/utils/SafeERC20.sol\":10904:10915  mload(0x00) */\n      mload\n        /* \"@openzeppelin/contracts/token/ERC20/utils/SafeERC20.sol\":10901:10919  eq(mload(0x00), 1) */\n      eq\n        /* \"@openzeppelin/contracts/token/ERC20/utils/SafeERC20.sol\":10892:10899  success */\n      dup4\n        /* \"@openzeppelin/contracts/token/ERC20/utils/SafeERC20.sol\":10888:10920  and(success, eq(mload(0x00), 1)) */\n      and\n        /* \"@openzeppelin/contracts/token/ERC20/utils/SafeERC20.sol\":10878:11484  if iszero(and(success, eq(mload(0x00), 1))) {... */\n      tag_235\n      jumpi\n        /* \"@openzeppelin/contracts/token/ERC20/utils/SafeERC20.sol\":11049:11055  bubble */\n      dup4\n        /* \"@openzeppelin/contracts/token/ERC20/utils/SafeERC20.sol\":11039:11046  success */\n      dup4\n        /* \"@openzeppelin/contracts/token/ERC20/utils/SafeERC20.sol\":11032:11047  iszero(success) */\n      iszero\n        /* \"@openzeppelin/contracts/token/ERC20/utils/SafeERC20.sol\":11028:11056  and(iszero(success), bubble) */\n      and\n        /* \"@openzeppelin/contracts/token/ERC20/utils/SafeERC20.sol\":11025:11190  if and(iszero(success), bubble) {... */\n      iszero\n      tag_236\n      jumpi\n        /* \"@openzeppelin/contracts/token/ERC20/utils/SafeERC20.sol\":11105:11121  returndatasize() */\n      returndatasize\n        /* \"@openzeppelin/contracts/token/ERC20/utils/SafeERC20.sol\":11099:11103  0x00 */\n      0x00\n        /* \"@openzeppelin/contracts/token/ERC20/utils/SafeERC20.sol\":11094:11097  fmp */\n      dup3\n        /* \"@openzeppelin/contracts/token/ERC20/utils/SafeERC20.sol\":11079:11122  returndatacopy(fmp, 0x00, returndatasize()) */\n      returndatacopy\n        /* \"@openzeppelin/contracts/token/ERC20/utils/SafeERC20.sol\":11155:11171  returndatasize() */\n      returndatasize\n        /* \"@openzeppelin/contracts/token/ERC20/utils/SafeERC20.sol\":11150:11153  fmp */\n      dup2\n        /* \"@openzeppelin/contracts/token/ERC20/utils/SafeERC20.sol\":11143:11172  revert(fmp, returndatasize()) */\n      revert\n        /* \"@openzeppelin/contracts/token/ERC20/utils/SafeERC20.sol\":11025:11190  if and(iszero(success), bubble) {... */\n    tag_236:\n        /* \"@openzeppelin/contracts/token/ERC20/utils/SafeERC20.sol\":11466:11467  0 */\n      0x00\n        /* \"@openzeppelin/contracts/token/ERC20/utils/SafeERC20.sol\":11458:11463  token */\n      dup9\n        /* \"@openzeppelin/contracts/token/ERC20/utils/SafeERC20.sol\":11446:11464  extcodesize(token) */\n      extcodesize\n        /* \"@openzeppelin/contracts/token/ERC20/utils/SafeERC20.sol\":11443:11468  gt(extcodesize(token), 0) */\n      gt\n        /* \"@openzeppelin/contracts/token/ERC20/utils/SafeERC20.sol\":11424:11440  returndatasize() */\n      returndatasize\n        /* \"@openzeppelin/contracts/token/ERC20/utils/SafeERC20.sol\":11417:11441  iszero(returndatasize()) */\n      iszero\n        /* \"@openzeppelin/contracts/token/ERC20/utils/SafeERC20.sol\":11413:11469  and(iszero(returndatasize()), gt(extcodesize(token), 0)) */\n      and\n        /* \"@openzeppelin/contracts/token/ERC20/utils/SafeERC20.sol\":11404:11411  success */\n      dup4\n        /* \"@openzeppelin/contracts/token/ERC20/utils/SafeERC20.sol\":11400:11470  and(success, and(iszero(returndatasize()), gt(extcodesize(token), 0))) */\n      and\n        /* \"@openzeppelin/contracts/token/ERC20/utils/SafeERC20.sol\":11389:11470  success := and(success, and(iszero(returndatasize()), gt(extcodesize(token), 0))) */\n      swap3\n      pop\n        /* \"@openzeppelin/contracts/token/ERC20/utils/SafeERC20.sol\":10878:11484  if iszero(and(success, eq(mload(0x00), 1))) {... */\n    tag_235:\n        /* \"@openzeppelin/contracts/token/ERC20/utils/SafeERC20.sol\":11510:11513  fmp */\n      dup1\n        /* \"@openzeppelin/contracts/token/ERC20/utils/SafeERC20.sol\":11504:11508  0x40 */\n      0x40\n        /* \"@openzeppelin/contracts/token/ERC20/utils/SafeERC20.sol\":11497:11514  mstore(0x40, fmp) */\n      mstore\n        /* \"@openzeppelin/contracts/token/ERC20/utils/SafeERC20.sol\":11540:11541  0 */\n      0x00\n        /* \"@openzeppelin/contracts/token/ERC20/utils/SafeERC20.sol\":11534:11538  0x60 */\n      0x60\n        /* \"@openzeppelin/contracts/token/ERC20/utils/SafeERC20.sol\":11527:11542  mstore(0x60, 0) */\n      mstore\n        /* \"@openzeppelin/contracts/token/ERC20/utils/SafeERC20.sol\":10429:11552  {... */\n      pop\n      pop\n        /* \"@openzeppelin/contracts/token/ERC20/utils/SafeERC20.sol\":10165:11558  function _safeTransferFrom(... */\n      swap6\n      swap5\n      pop\n      pop\n      pop\n      pop\n      pop\n      jump\t// out\n    tag_103:\n      mload(0x40)\n      dup1\n      0x60\n      add\n      0x40\n      mstore\n      dup1\n      0x60\n      dup2\n      mstore\n      0x20\n      add\n      0x60\n      dup2\n      mstore\n      0x20\n      add\n      0x60\n      dup2\n      mstore\n      pop\n      swap1\n      jump\t// out\n        /* \"#utility.yul\":7:106   */\n    tag_237:\n        /* \"#utility.yul\":59:65   */\n      0x00\n        /* \"#utility.yul\":93:98   */\n      dup2\n        /* \"#utility.yul\":87:99   */\n      mload\n        /* \"#utility.yul\":77:99   */\n      swap1\n      pop\n        /* \"#utility.yul\":7:106   */\n      swap2\n      swap1\n      pop\n      jump\t// out\n        /* \"#utility.yul\":112:281   */\n    tag_238:\n        /* \"#utility.yul\":196:207   */\n      0x00\n        /* \"#utility.yul\":230:236   */\n      dup3\n        /* \"#utility.yul\":225:228   */\n      dup3\n        /* \"#utility.yul\":218:237   */\n      mstore\n        /* \"#utility.yul\":270:274   */\n      0x20\n        /* \"#utility.yul\":265:268   */\n      dup3\n        /* \"#utility.yul\":261:275   */\n      add\n        /* \"#utility.yul\":246:275   */\n      swap1\n      pop\n        /* \"#utility.yul\":112:281   */\n      swap3\n      swap2\n      pop\n      pop\n      jump\t// out\n        /* \"#utility.yul\":287:426   */\n    tag_239:\n        /* \"#utility.yul\":376:382   */\n      dup3\n        /* \"#utility.yul\":371:374   */\n      dup2\n        /* \"#utility.yul\":366:369   */\n      dup4\n        /* \"#utility.yul\":360:383   */\n      mcopy\n        /* \"#utility.yul\":417:418   */\n      0x00\n        /* \"#utility.yul\":408:414   */\n      dup4\n        /* \"#utility.yul\":403:406   */\n      dup4\n        /* \"#utility.yul\":399:415   */\n      add\n        /* \"#utility.yul\":392:419   */\n      mstore\n        /* \"#utility.yul\":287:426   */\n      pop\n      pop\n      pop\n      jump\t// out\n        /* \"#utility.yul\":432:534   */\n    tag_240:\n        /* \"#utility.yul\":473:479   */\n      0x00\n        /* \"#utility.yul\":524:526   */\n      0x1f\n        /* \"#utility.yul\":520:527   */\n      not\n        /* \"#utility.yul\":515:517   */\n      0x1f\n        /* \"#utility.yul\":508:513   */\n      dup4\n        /* \"#utility.yul\":504:518   */\n      add\n        /* \"#utility.yul\":500:528   */\n      and\n        /* \"#utility.yul\":490:528   */\n      swap1\n      pop\n        /* \"#utility.yul\":432:534   */\n      swap2\n      swap1\n      pop\n      jump\t// out\n        /* \"#utility.yul\":540:917   */\n    tag_241:\n        /* \"#utility.yul\":628:631   */\n      0x00\n        /* \"#utility.yul\":656:695   */\n      tag_323\n        /* \"#utility.yul\":689:694   */\n      dup3\n        /* \"#utility.yul\":656:695   */\n      tag_237\n      jump\t// in\n    tag_323:\n        /* \"#utility.yul\":711:782   */\n      tag_324\n        /* \"#utility.yul\":775:781   */\n      dup2\n        /* \"#utility.yul\":770:773   */\n      dup6\n        /* \"#utility.yul\":711:782   */\n      tag_238\n      jump\t// in\n    tag_324:\n        /* \"#utility.yul\":704:782   */\n      swap4\n      pop\n        /* \"#utility.yul\":791:856   */\n      tag_325\n        /* \"#utility.yul\":849:855   */\n      dup2\n        /* \"#utility.yul\":844:847   */\n      dup6\n        /* \"#utility.yul\":837:841   */\n      0x20\n        /* \"#utility.yul\":830:835   */\n      dup7\n        /* \"#utility.yul\":826:842   */\n      add\n        /* \"#utility.yul\":791:856   */\n      tag_239\n      jump\t// in\n    tag_325:\n        /* \"#utility.yul\":881:910   */\n      tag_326\n        /* \"#utility.yul\":903:909   */\n      dup2\n        /* \"#utility.yul\":881:910   */\n      tag_240\n      jump\t// in\n    tag_326:\n        /* \"#utility.yul\":876:879   */\n      dup5\n        /* \"#utility.yul\":872:911   */\n      add\n        /* \"#utility.yul\":865:911   */\n      swap2\n      pop\n        /* \"#utility.yul\":632:917   */\n      pop\n        /* \"#utility.yul\":540:917   */\n      swap3\n      swap2\n      pop\n      pop\n      jump\t// out\n        /* \"#utility.yul\":923:1236   */\n    tag_19:\n        /* \"#utility.yul\":1036:1040   */\n      0x00\n        /* \"#utility.yul\":1074:1076   */\n      0x20\n        /* \"#utility.yul\":1063:1072   */\n      dup3\n        /* \"#utility.yul\":1059:1077   */\n      add\n        /* \"#utility.yul\":1051:1077   */\n      swap1\n      pop\n        /* \"#utility.yul\":1123:1132   */\n      dup2\n        /* \"#utility.yul\":1117:1121   */\n      dup2\n        /* \"#utility.yul\":1113:1133   */\n      sub\n        /* \"#utility.yul\":1109:1110   */\n      0x00\n        /* \"#utility.yul\":1098:1107   */\n      dup4\n        /* \"#utility.yul\":1094:1111   */\n      add\n        /* \"#utility.yul\":1087:1134   */\n      mstore\n        /* \"#utility.yul\":1151:1229   */\n      tag_328\n        /* \"#utility.yul\":1224:1228   */\n      dup2\n        /* \"#utility.yul\":1215:1221   */\n      dup5\n        /* \"#utility.yul\":1151:1229   */\n      tag_241\n      jump\t// in\n    tag_328:\n        /* \"#utility.yul\":1143:1229   */\n      swap1\n      pop\n        /* \"#utility.yul\":923:1236   */\n      swap3\n      swap2\n      pop\n      pop\n      jump\t// out\n        /* \"#utility.yul\":1242:1317   */\n    tag_242:\n        /* \"#utility.yul\":1275:1281   */\n      0x00\n        /* \"#utility.yul\":1308:1310   */\n      0x40\n        /* \"#utility.yul\":1302:1311   */\n      mload\n        /* \"#utility.yul\":1292:1311   */\n      swap1\n      pop\n        /* \"#utility.yul\":1242:1317   */\n      swap1\n      jump\t// out\n        /* \"#utility.yul\":1323:1440   */\n    tag_243:\n        /* \"#utility.yul\":1432:1433   */\n      0x00\n        /* \"#utility.yul\":1429:1430   */\n      0x00\n        /* \"#utility.yul\":1422:1434   */\n      revert\n        /* \"#utility.yul\":1446:1563   */\n    tag_244:\n        /* \"#utility.yul\":1555:1556   */\n      0x00\n        /* \"#utility.yul\":1552:1553   */\n      0x00\n        /* \"#utility.yul\":1545:1557   */\n      revert\n        /* \"#utility.yul\":1569:1686   */\n    tag_245:\n        /* \"#utility.yul\":1678:1679   */\n      0x00\n        /* \"#utility.yul\":1675:1676   */\n      0x00\n        /* \"#utility.yul\":1668:1680   */\n      revert\n        /* \"#utility.yul\":1692:1809   */\n    tag_246:\n        /* \"#utility.yul\":1801:1802   */\n      0x00\n        /* \"#utility.yul\":1798:1799   */\n      0x00\n        /* \"#utility.yul\":1791:1803   */\n      revert\n        /* \"#utility.yul\":1815:1995   */\n    tag_99:\n        /* \"#utility.yul\":1863:1940   */\n      0x4e487b7100000000000000000000000000000000000000000000000000000000\n        /* \"#utility.yul\":1860:1861   */\n      0x00\n        /* \"#utility.yul\":1853:1941   */\n      mstore\n        /* \"#utility.yul\":1960:1964   */\n      0x41\n        /* \"#utility.yul\":1957:1958   */\n      0x04\n        /* \"#utility.yul\":1950:1965   */\n      mstore\n        /* \"#utility.yul\":1984:1988   */\n      0x24\n        /* \"#utility.yul\":1981:1982   */\n      0x00\n        /* \"#utility.yul\":1974:1989   */\n      revert\n        /* \"#utility.yul\":2001:2282   */\n    tag_247:\n        /* \"#utility.yul\":2084:2111   */\n      tag_336\n        /* \"#utility.yul\":2106:2110   */\n      dup3\n        /* \"#utility.yul\":2084:2111   */\n      tag_240\n      jump\t// in\n    tag_336:\n        /* \"#utility.yul\":2076:2082   */\n      dup2\n        /* \"#utility.yul\":2072:2112   */\n      add\n        /* \"#utility.yul\":2214:2220   */\n      dup2\n        /* \"#utility.yul\":2202:2212   */\n      dup2\n        /* \"#utility.yul\":2199:2221   */\n      lt\n        /* \"#utility.yul\":2178:2196   */\n      0xffffffffffffffff\n        /* \"#utility.yul\":2166:2176   */\n      dup3\n        /* \"#utility.yul\":2163:2197   */\n      gt\n        /* \"#utility.yul\":2160:2222   */\n      or\n        /* \"#utility.yul\":2157:2245   */\n      iszero\n      tag_337\n      jumpi\n        /* \"#utility.yul\":2225:2243   */\n      tag_338\n      tag_99\n      jump\t// in\n    tag_338:\n        /* \"#utility.yul\":2157:2245   */\n    tag_337:\n        /* \"#utility.yul\":2265:2275   */\n      dup1\n        /* \"#utility.yul\":2261:2263   */\n      0x40\n        /* \"#utility.yul\":2254:2276   */\n      mstore\n        /* \"#utility.yul\":2044:2282   */\n      pop\n        /* \"#utility.yul\":2001:2282   */\n      pop\n      pop\n      jump\t// out\n        /* \"#utility.yul\":2288:2417   */\n    tag_248:\n        /* \"#utility.yul\":2322:2328   */\n      0x00\n        /* \"#utility.yul\":2349:2369   */\n      tag_340\n      tag_242\n      jump\t// in\n    tag_340:\n        /* \"#utility.yul\":2339:2369   */\n      swap1\n      pop\n        /* \"#utility.yul\":2378:2411   */\n      tag_341\n        /* \"#utility.yul\":2406:2410   */\n      dup3\n        /* \"#utility.yul\":2398:2404   */\n      dup3\n        /* \"#utility.yul\":2378:2411   */\n      tag_247\n      jump\t// in\n    tag_341:\n        /* \"#utility.yul\":2288:2417   */\n      swap2\n      swap1\n      pop\n      jump\t// out\n        /* \"#utility.yul\":2423:2731   */\n    tag_249:\n        /* \"#utility.yul\":2485:2489   */\n      0x00\n        /* \"#utility.yul\":2575:2593   */\n      0xffffffffffffffff\n        /* \"#utility.yul\":2567:2573   */\n      dup3\n        /* \"#utility.yul\":2564:2594   */\n      gt\n        /* \"#utility.yul\":2561:2617   */\n      iszero\n      tag_343\n      jumpi\n        /* \"#utility.yul\":2597:2615   */\n      tag_344\n      tag_99\n      jump\t// in\n    tag_344:\n        /* \"#utility.yul\":2561:2617   */\n    tag_343:\n        /* \"#utility.yul\":2635:2664   */\n      tag_345\n        /* \"#utility.yul\":2657:2663   */\n      dup3\n        /* \"#utility.yul\":2635:2664   */\n      tag_240\n      jump\t// in\n    tag_345:\n        /* \"#utility.yul\":2627:2664   */\n      swap1\n      pop\n        /* \"#utility.yul\":2719:2723   */\n      0x20\n        /* \"#utility.yul\":2713:2717   */\n      dup2\n        /* \"#utility.yul\":2709:2724   */\n      add\n        /* \"#utility.yul\":2701:2724   */\n      swap1\n      pop\n        /* \"#utility.yul\":2423:2731   */\n      swap2\n      swap1\n      pop\n      jump\t// out\n        /* \"#utility.yul\":2737:2885   */\n    tag_250:\n        /* \"#utility.yul\":2835:2841   */\n      dup3\n        /* \"#utility.yul\":2830:2833   */\n      dup2\n        /* \"#utility.yul\":2825:2828   */\n      dup4\n        /* \"#utility.yul\":2812:2842   */\n      calldatacopy\n        /* \"#utility.yul\":2876:2877   */\n      0x00\n        /* \"#utility.yul\":2867:2873   */\n      dup4\n        /* \"#utility.yul\":2862:2865   */\n      dup4\n        /* \"#utility.yul\":2858:2874   */\n      add\n        /* \"#utility.yul\":2851:2878   */\n      mstore\n        /* \"#utility.yul\":2737:2885   */\n      pop\n      pop\n      pop\n      jump\t// out\n        /* \"#utility.yul\":2891:3316   */\n    tag_251:\n        /* \"#utility.yul\":2969:2974   */\n      0x00\n        /* \"#utility.yul\":2994:3060   */\n      tag_348\n        /* \"#utility.yul\":3010:3059   */\n      tag_349\n        /* \"#utility.yul\":3052:3058   */\n      dup5\n        /* \"#utility.yul\":3010:3059   */\n      tag_249\n      jump\t// in\n    tag_349:\n        /* \"#utility.yul\":2994:3060   */\n      tag_248\n      jump\t// in\n    tag_348:\n        /* \"#utility.yul\":2985:3060   */\n      swap1\n      pop\n        /* \"#utility.yul\":3083:3089   */\n      dup3\n        /* \"#utility.yul\":3076:3081   */\n      dup2\n        /* \"#utility.yul\":3069:3090   */\n      mstore\n        /* \"#utility.yul\":3121:3125   */\n      0x20\n        /* \"#utility.yul\":3114:3119   */\n      dup2\n        /* \"#utility.yul\":3110:3126   */\n      add\n        /* \"#utility.yul\":3159:3162   */\n      dup5\n        /* \"#utility.yul\":3150:3156   */\n      dup5\n        /* \"#utility.yul\":3145:3148   */\n      dup5\n        /* \"#utility.yul\":3141:3157   */\n      add\n        /* \"#utility.yul\":3138:3163   */\n      gt\n        /* \"#utility.yul\":3135:3247   */\n      iszero\n      tag_350\n      jumpi\n        /* \"#utility.yul\":3166:3245   */\n      tag_351\n      tag_246\n      jump\t// in\n    tag_351:\n        /* \"#utility.yul\":3135:3247   */\n    tag_350:\n        /* \"#utility.yul\":3256:3310   */\n      tag_352\n        /* \"#utility.yul\":3303:3309   */\n      dup5\n        /* \"#utility.yul\":3298:3301   */\n      dup3\n        /* \"#utility.yul\":3293:3296   */\n      dup6\n        /* \"#utility.yul\":3256:3310   */\n      tag_250\n      jump\t// in\n    tag_352:\n        /* \"#utility.yul\":2975:3316   */\n      pop\n        /* \"#utility.yul\":2891:3316   */\n      swap4\n      swap3\n      pop\n      pop\n      pop\n      jump\t// out\n        /* \"#utility.yul\":3336:3676   */\n    tag_252:\n        /* \"#utility.yul\":3392:3397   */\n      0x00\n        /* \"#utility.yul\":3441:3444   */\n      dup3\n        /* \"#utility.yul\":3434:3438   */\n      0x1f\n        /* \"#utility.yul\":3426:3432   */\n      dup4\n        /* \"#utility.yul\":3422:3439   */\n      add\n        /* \"#utility.yul\":3418:3445   */\n      slt\n        /* \"#utility.yul\":3408:3530   */\n      tag_354\n      jumpi\n        /* \"#utility.yul\":3449:3528   */\n      tag_355\n      tag_245\n      jump\t// in\n    tag_355:\n        /* \"#utility.yul\":3408:3530   */\n    tag_354:\n        /* \"#utility.yul\":3566:3572   */\n      dup2\n        /* \"#utility.yul\":3553:3573   */\n      calldataload\n        /* \"#utility.yul\":3591:3670   */\n      tag_356\n        /* \"#utility.yul\":3666:3669   */\n      dup5\n        /* \"#utility.yul\":3658:3664   */\n      dup3\n        /* \"#utility.yul\":3651:3655   */\n      0x20\n        /* \"#utility.yul\":3643:3649   */\n      dup7\n        /* \"#utility.yul\":3639:3656   */\n      add\n        /* \"#utility.yul\":3591:3670   */\n      tag_251\n      jump\t// in\n    tag_356:\n        /* \"#utility.yul\":3582:3670   */\n      swap2\n      pop\n        /* \"#utility.yul\":3398:3676   */\n      pop\n        /* \"#utility.yul\":3336:3676   */\n      swap3\n      swap2\n      pop\n      pop\n      jump\t// out\n        /* \"#utility.yul\":3682:4191   */\n    tag_22:\n        /* \"#utility.yul\":3751:3757   */\n      0x00\n        /* \"#utility.yul\":3800:3802   */\n      0x20\n        /* \"#utility.yul\":3788:3797   */\n      dup3\n        /* \"#utility.yul\":3779:3786   */\n      dup5\n        /* \"#utility.yul\":3775:3798   */\n      sub\n        /* \"#utility.yul\":3771:3803   */\n      slt\n        /* \"#utility.yul\":3768:3887   */\n      iszero\n      tag_358\n      jumpi\n        /* \"#utility.yul\":3806:3885   */\n      tag_359\n      tag_243\n      jump\t// in\n    tag_359:\n        /* \"#utility.yul\":3768:3887   */\n    tag_358:\n        /* \"#utility.yul\":3954:3955   */\n      0x00\n        /* \"#utility.yul\":3943:3952   */\n      dup3\n        /* \"#utility.yul\":3939:3956   */\n      add\n        /* \"#utility.yul\":3926:3957   */\n      calldataload\n        /* \"#utility.yul\":3984:4002   */\n      0xffffffffffffffff\n        /* \"#utility.yul\":3976:3982   */\n      dup2\n        /* \"#utility.yul\":3973:4003   */\n      gt\n        /* \"#utility.yul\":3970:4087   */\n      iszero\n      tag_360\n      jumpi\n        /* \"#utility.yul\":4006:4085   */\n      tag_361\n      tag_244\n      jump\t// in\n    tag_361:\n        /* \"#utility.yul\":3970:4087   */\n    tag_360:\n        /* \"#utility.yul\":4111:4174   */\n      tag_362\n        /* \"#utility.yul\":4166:4173   */\n      dup5\n        /* \"#utility.yul\":4157:4163   */\n      dup3\n        /* \"#utility.yul\":4146:4155   */\n      dup6\n        /* \"#utility.yul\":4142:4164   */\n      add\n        /* \"#utility.yul\":4111:4174   */\n      tag_252\n      jump\t// in\n    tag_362:\n        /* \"#utility.yul\":4101:4174   */\n      swap2\n      pop\n        /* \"#utility.yul\":3897:4184   */\n      pop\n        /* \"#utility.yul\":3682:4191   */\n      swap3\n      swap2\n      pop\n      pop\n      jump\t// out\n        /* \"#utility.yul\":4197:4323   */\n    tag_253:\n        /* \"#utility.yul\":4234:4241   */\n      0x00\n        /* \"#utility.yul\":4274:4316   */\n      0xffffffffffffffffffffffffffffffffffffffff\n        /* \"#utility.yul\":4267:4272   */\n      dup3\n        /* \"#utility.yul\":4263:4317   */\n      and\n        /* \"#utility.yul\":4252:4317   */\n      swap1\n      pop\n        /* \"#utility.yul\":4197:4323   */\n      swap2\n      swap1\n      pop\n      jump\t// out\n        /* \"#utility.yul\":4329:4425   */\n    tag_254:\n        /* \"#utility.yul\":4366:4373   */\n      0x00\n        /* \"#utility.yul\":4395:4419   */\n      tag_365\n        /* \"#utility.yul\":4413:4418   */\n      dup3\n        /* \"#utility.yul\":4395:4419   */\n      tag_253\n      jump\t// in\n    tag_365:\n        /* \"#utility.yul\":4384:4419   */\n      swap1\n      pop\n        /* \"#utility.yul\":4329:4425   */\n      swap2\n      swap1\n      pop\n      jump\t// out\n        /* \"#utility.yul\":4431:4549   */\n    tag_255:\n        /* \"#utility.yul\":4518:4542   */\n      tag_367\n        /* \"#utility.yul\":4536:4541   */\n      dup2\n        /* \"#utility.yul\":4518:4542   */\n      tag_254\n      jump\t// in\n    tag_367:\n        /* \"#utility.yul\":4513:4516   */\n      dup3\n        /* \"#utility.yul\":4506:4543   */\n      mstore\n        /* \"#utility.yul\":4431:4549   */\n      pop\n      pop\n      jump\t// out\n        /* \"#utility.yul\":4555:4777   */\n    tag_25:\n        /* \"#utility.yul\":4648:4652   */\n      0x00\n        /* \"#utility.yul\":4686:4688   */\n      0x20\n        /* \"#utility.yul\":4675:4684   */\n      dup3\n        /* \"#utility.yul\":4671:4689   */\n      add\n        /* \"#utility.yul\":4663:4689   */\n      swap1\n      pop\n        /* \"#utility.yul\":4699:4770   */\n      tag_369\n        /* \"#utility.yul\":4767:4768   */\n      0x00\n        /* \"#utility.yul\":4756:4765   */\n      dup4\n        /* \"#utility.yul\":4752:4769   */\n      add\n        /* \"#utility.yul\":4743:4749   */\n      dup5\n        /* \"#utility.yul\":4699:4770   */\n      tag_255\n      jump\t// in\n    tag_369:\n        /* \"#utility.yul\":4555:4777   */\n      swap3\n      swap2\n      pop\n      pop\n      jump\t// out\n        /* \"#utility.yul\":4783:4905   */\n    tag_256:\n        /* \"#utility.yul\":4856:4880   */\n      tag_371\n        /* \"#utility.yul\":4874:4879   */\n      dup2\n        /* \"#utility.yul\":4856:4880   */\n      tag_254\n      jump\t// in\n    tag_371:\n        /* \"#utility.yul\":4849:4854   */\n      dup2\n        /* \"#utility.yul\":4846:4881   */\n      eq\n        /* \"#utility.yul\":4836:4899   */\n      tag_372\n      jumpi\n        /* \"#utility.yul\":4895:4896   */\n      0x00\n        /* \"#utility.yul\":4892:4893   */\n      0x00\n        /* \"#utility.yul\":4885:4897   */\n      revert\n        /* \"#utility.yul\":4836:4899   */\n    tag_372:\n        /* \"#utility.yul\":4783:4905   */\n      pop\n      jump\t// out\n        /* \"#utility.yul\":4911:5050   */\n    tag_257:\n        /* \"#utility.yul\":4957:4962   */\n      0x00\n        /* \"#utility.yul\":4995:5001   */\n      dup2\n        /* \"#utility.yul\":4982:5002   */\n      calldataload\n        /* \"#utility.yul\":4973:5002   */\n      swap1\n      pop\n        /* \"#utility.yul\":5011:5044   */\n      tag_374\n        /* \"#utility.yul\":5038:5043   */\n      dup2\n        /* \"#utility.yul\":5011:5044   */\n      tag_256\n      jump\t// in\n    tag_374:\n        /* \"#utility.yul\":4911:5050   */\n      swap3\n      swap2\n      pop\n      pop\n      jump\t// out\n        /* \"#utility.yul\":5056:5385   */\n    tag_28:\n        /* \"#utility.yul\":5115:5121   */\n      0x00\n        /* \"#utility.yul\":5164:5166   */\n      0x20\n        /* \"#utility.yul\":5152:5161   */\n      dup3\n        /* \"#utility.yul\":5143:5150   */\n      dup5\n        /* \"#utility.yul\":5139:5162   */\n      sub\n        /* \"#utility.yul\":5135:5167   */\n      slt\n        /* \"#utility.yul\":5132:5251   */\n      iszero\n      tag_376\n      jumpi\n        /* \"#utility.yul\":5170:5249   */\n      tag_377\n      tag_243\n      jump\t// in\n    tag_377:\n        /* \"#utility.yul\":5132:5251   */\n    tag_376:\n        /* \"#utility.yul\":5290:5291   */\n      0x00\n        /* \"#utility.yul\":5315:5368   */\n      tag_378\n        /* \"#utility.yul\":5360:5367   */\n      dup5\n        /* \"#utility.yul\":5351:5357   */\n      dup3\n        /* \"#utility.yul\":5340:5349   */\n      dup6\n        /* \"#utility.yul\":5336:5358   */\n      add\n        /* \"#utility.yul\":5315:5368   */\n      tag_257\n      jump\t// in\n    tag_378:\n        /* \"#utility.yul\":5305:5368   */\n      swap2\n      pop\n        /* \"#utility.yul\":5261:5378   */\n      pop\n        /* \"#utility.yul\":5056:5385   */\n      swap3\n      swap2\n      pop\n      pop\n      jump\t// out\n        /* \"#utility.yul\":5391:5481   */\n    tag_258:\n        /* \"#utility.yul\":5425:5432   */\n      0x00\n        /* \"#utility.yul\":5468:5473   */\n      dup2\n        /* \"#utility.yul\":5461:5474   */\n      iszero\n        /* \"#utility.yul\":5454:5475   */\n      iszero\n        /* \"#utility.yul\":5443:5475   */\n      swap1\n      pop\n        /* \"#utility.yul\":5391:5481   */\n      swap2\n      swap1\n      pop\n      jump\t// out\n        /* \"#utility.yul\":5487:5596   */\n    tag_259:\n        /* \"#utility.yul\":5568:5589   */\n      tag_381\n        /* \"#utility.yul\":5583:5588   */\n      dup2\n        /* \"#utility.yul\":5568:5589   */\n      tag_258\n      jump\t// in\n    tag_381:\n        /* \"#utility.yul\":5563:5566   */\n      dup3\n        /* \"#utility.yul\":5556:5590   */\n      mstore\n        /* \"#utility.yul\":5487:5596   */\n      pop\n      pop\n      jump\t// out\n        /* \"#utility.yul\":5602:5812   */\n    tag_31:\n        /* \"#utility.yul\":5689:5693   */\n      0x00\n        /* \"#utility.yul\":5727:5729   */\n      0x20\n        /* \"#utility.yul\":5716:5725   */\n      dup3\n        /* \"#utility.yul\":5712:5730   */\n      add\n        /* \"#utility.yul\":5704:5730   */\n      swap1\n      pop\n        /* \"#utility.yul\":5740:5805   */\n      tag_383\n        /* \"#utility.yul\":5802:5803   */\n      0x00\n        /* \"#utility.yul\":5791:5800   */\n      dup4\n        /* \"#utility.yul\":5787:5804   */\n      add\n        /* \"#utility.yul\":5778:5784   */\n      dup5\n        /* \"#utility.yul\":5740:5805   */\n      tag_259\n      jump\t// in\n    tag_383:\n        /* \"#utility.yul\":5602:5812   */\n      swap3\n      swap2\n      pop\n      pop\n      jump\t// out\n        /* \"#utility.yul\":5818:5935   */\n    tag_260:\n        /* \"#utility.yul\":5927:5928   */\n      0x00\n        /* \"#utility.yul\":5924:5925   */\n      0x00\n        /* \"#utility.yul\":5917:5929   */\n      revert\n        /* \"#utility.yul\":5941:6058   */\n    tag_261:\n        /* \"#utility.yul\":6050:6051   */\n      0x00\n        /* \"#utility.yul\":6047:6048   */\n      0x00\n        /* \"#utility.yul\":6040:6052   */\n      revert\n        /* \"#utility.yul\":6078:6631   */\n    tag_262:\n        /* \"#utility.yul\":6136:6144   */\n      0x00\n        /* \"#utility.yul\":6146:6152   */\n      0x00\n        /* \"#utility.yul\":6196:6199   */\n      dup4\n        /* \"#utility.yul\":6189:6193   */\n      0x1f\n        /* \"#utility.yul\":6181:6187   */\n      dup5\n        /* \"#utility.yul\":6177:6194   */\n      add\n        /* \"#utility.yul\":6173:6200   */\n      slt\n        /* \"#utility.yul\":6163:6285   */\n      tag_387\n      jumpi\n        /* \"#utility.yul\":6204:6283   */\n      tag_388\n      tag_245\n      jump\t// in\n    tag_388:\n        /* \"#utility.yul\":6163:6285   */\n    tag_387:\n        /* \"#utility.yul\":6317:6323   */\n      dup3\n        /* \"#utility.yul\":6304:6324   */\n      calldataload\n        /* \"#utility.yul\":6294:6324   */\n      swap1\n      pop\n        /* \"#utility.yul\":6347:6365   */\n      0xffffffffffffffff\n        /* \"#utility.yul\":6339:6345   */\n      dup2\n        /* \"#utility.yul\":6336:6366   */\n      gt\n        /* \"#utility.yul\":6333:6450   */\n      iszero\n      tag_389\n      jumpi\n        /* \"#utility.yul\":6369:6448   */\n      tag_390\n      tag_260\n      jump\t// in\n    tag_390:\n        /* \"#utility.yul\":6333:6450   */\n    tag_389:\n        /* \"#utility.yul\":6483:6487   */\n      0x20\n        /* \"#utility.yul\":6475:6481   */\n      dup4\n        /* \"#utility.yul\":6471:6488   */\n      add\n        /* \"#utility.yul\":6459:6488   */\n      swap2\n      pop\n        /* \"#utility.yul\":6537:6540   */\n      dup4\n        /* \"#utility.yul\":6529:6533   */\n      0x01\n        /* \"#utility.yul\":6521:6527   */\n      dup3\n        /* \"#utility.yul\":6517:6534   */\n      mul\n        /* \"#utility.yul\":6507:6515   */\n      dup4\n        /* \"#utility.yul\":6503:6535   */\n      add\n        /* \"#utility.yul\":6500:6541   */\n      gt\n        /* \"#utility.yul\":6497:6625   */\n      iszero\n      tag_391\n      jumpi\n        /* \"#utility.yul\":6544:6623   */\n      tag_392\n      tag_261\n      jump\t// in\n    tag_392:\n        /* \"#utility.yul\":6497:6625   */\n    tag_391:\n        /* \"#utility.yul\":6078:6631   */\n      swap3\n      pop\n      swap3\n      swap1\n      pop\n      jump\t// out\n        /* \"#utility.yul\":6637:6714   */\n    tag_263:\n        /* \"#utility.yul\":6674:6681   */\n      0x00\n        /* \"#utility.yul\":6703:6708   */\n      dup2\n        /* \"#utility.yul\":6692:6708   */\n      swap1\n      pop\n        /* \"#utility.yul\":6637:6714   */\n      swap2\n      swap1\n      pop\n      jump\t// out\n        /* \"#utility.yul\":6720:6842   */\n    tag_264:\n        /* \"#utility.yul\":6793:6817   */\n      tag_395\n        /* \"#utility.yul\":6811:6816   */\n      dup2\n        /* \"#utility.yul\":6793:6817   */\n      tag_263\n      jump\t// in\n    tag_395:\n        /* \"#utility.yul\":6786:6791   */\n      dup2\n        /* \"#utility.yul\":6783:6818   */\n      eq\n        /* \"#utility.yul\":6773:6836   */\n      tag_396\n      jumpi\n        /* \"#utility.yul\":6832:6833   */\n      0x00\n        /* \"#utility.yul\":6829:6830   */\n      0x00\n        /* \"#utility.yul\":6822:6834   */\n      revert\n        /* \"#utility.yul\":6773:6836   */\n    tag_396:\n        /* \"#utility.yul\":6720:6842   */\n      pop\n      jump\t// out\n        /* \"#utility.yul\":6848:6987   */\n    tag_265:\n        /* \"#utility.yul\":6894:6899   */\n      0x00\n        /* \"#utility.yul\":6932:6938   */\n      dup2\n        /* \"#utility.yul\":6919:6939   */\n      calldataload\n        /* \"#utility.yul\":6910:6939   */\n      swap1\n      pop\n        /* \"#utility.yul\":6948:6981   */\n      tag_398\n        /* \"#utility.yul\":6975:6980   */\n      dup2\n        /* \"#utility.yul\":6948:6981   */\n      tag_264\n      jump\t// in\n    tag_398:\n        /* \"#utility.yul\":6848:6987   */\n      swap3\n      swap2\n      pop\n      pop\n      jump\t// out\n        /* \"#utility.yul\":6993:7958   */\n    tag_36:\n        /* \"#utility.yul\":7091:7097   */\n      0x00\n        /* \"#utility.yul\":7099:7105   */\n      0x00\n        /* \"#utility.yul\":7107:7113   */\n      0x00\n        /* \"#utility.yul\":7115:7121   */\n      0x00\n        /* \"#utility.yul\":7123:7129   */\n      0x00\n        /* \"#utility.yul\":7172:7175   */\n      0x80\n        /* \"#utility.yul\":7160:7169   */\n      dup7\n        /* \"#utility.yul\":7151:7158   */\n      dup9\n        /* \"#utility.yul\":7147:7170   */\n      sub\n        /* \"#utility.yul\":7143:7176   */\n      slt\n        /* \"#utility.yul\":7140:7260   */\n      iszero\n      tag_400\n      jumpi\n        /* \"#utility.yul\":7179:7258   */\n      tag_401\n      tag_243\n      jump\t// in\n    tag_401:\n        /* \"#utility.yul\":7140:7260   */\n    tag_400:\n        /* \"#utility.yul\":7299:7300   */\n      0x00\n        /* \"#utility.yul\":7324:7377   */\n      tag_402\n        /* \"#utility.yul\":7369:7376   */\n      dup9\n        /* \"#utility.yul\":7360:7366   */\n      dup3\n        /* \"#utility.yul\":7349:7358   */\n      dup10\n        /* \"#utility.yul\":7345:7367   */\n      add\n        /* \"#utility.yul\":7324:7377   */\n      tag_257\n      jump\t// in\n    tag_402:\n        /* \"#utility.yul\":7314:7377   */\n      swap6\n      pop\n        /* \"#utility.yul\":7270:7387   */\n      pop\n        /* \"#utility.yul\":7454:7456   */\n      0x20\n        /* \"#utility.yul\":7443:7452   */\n      dup7\n        /* \"#utility.yul\":7439:7457   */\n      add\n        /* \"#utility.yul\":7426:7458   */\n      calldataload\n        /* \"#utility.yul\":7485:7503   */\n      0xffffffffffffffff\n        /* \"#utility.yul\":7477:7483   */\n      dup2\n        /* \"#utility.yul\":7474:7504   */\n      gt\n        /* \"#utility.yul\":7471:7588   */\n      iszero\n      tag_403\n      jumpi\n        /* \"#utility.yul\":7507:7586   */\n      tag_404\n      tag_244\n      jump\t// in\n    tag_404:\n        /* \"#utility.yul\":7471:7588   */\n    tag_403:\n        /* \"#utility.yul\":7620:7685   */\n      tag_405\n        /* \"#utility.yul\":7677:7684   */\n      dup9\n        /* \"#utility.yul\":7668:7674   */\n      dup3\n        /* \"#utility.yul\":7657:7666   */\n      dup10\n        /* \"#utility.yul\":7653:7675   */\n      add\n        /* \"#utility.yul\":7620:7685   */\n      tag_262\n      jump\t// in\n    tag_405:\n        /* \"#utility.yul\":7602:7685   */\n      swap5\n      pop\n      swap5\n      pop\n        /* \"#utility.yul\":7397:7695   */\n      pop\n        /* \"#utility.yul\":7734:7736   */\n      0x40\n        /* \"#utility.yul\":7760:7813   */\n      tag_406\n        /* \"#utility.yul\":7805:7812   */\n      dup9\n        /* \"#utility.yul\":7796:7802   */\n      dup3\n        /* \"#utility.yul\":7785:7794   */\n      dup10\n        /* \"#utility.yul\":7781:7803   */\n      add\n        /* \"#utility.yul\":7760:7813   */\n      tag_265\n      jump\t// in\n    tag_406:\n        /* \"#utility.yul\":7750:7813   */\n      swap3\n      pop\n        /* \"#utility.yul\":7705:7823   */\n      pop\n        /* \"#utility.yul\":7862:7864   */\n      0x60\n        /* \"#utility.yul\":7888:7941   */\n      tag_407\n        /* \"#utility.yul\":7933:7940   */\n      dup9\n        /* \"#utility.yul\":7924:7930   */\n      dup3\n        /* \"#utility.yul\":7913:7922   */\n      dup10\n        /* \"#utility.yul\":7909:7931   */\n      add\n        /* \"#utility.yul\":7888:7941   */\n      tag_265\n      jump\t// in\n    tag_407:\n        /* \"#utility.yul\":7878:7941   */\n      swap2\n      pop\n        /* \"#utility.yul\":7833:7951   */\n      pop\n        /* \"#utility.yul\":6993:7958   */\n      swap3\n      swap6\n      pop\n      swap3\n      swap6\n      swap1\n      swap4\n      pop\n      jump\t// out\n        /* \"#utility.yul\":7964:8638   */\n    tag_43:\n        /* \"#utility.yul\":8044:8050   */\n      0x00\n        /* \"#utility.yul\":8052:8058   */\n      0x00\n        /* \"#utility.yul\":8060:8066   */\n      0x00\n        /* \"#utility.yul\":8109:8111   */\n      0x40\n        /* \"#utility.yul\":8097:8106   */\n      dup5\n        /* \"#utility.yul\":8088:8095   */\n      dup7\n        /* \"#utility.yul\":8084:8107   */\n      sub\n        /* \"#utility.yul\":8080:8112   */\n      slt\n        /* \"#utility.yul\":8077:8196   */\n      iszero\n      tag_409\n      jumpi\n        /* \"#utility.yul\":8115:8194   */\n      tag_410\n      tag_243\n      jump\t// in\n    tag_410:\n        /* \"#utility.yul\":8077:8196   */\n    tag_409:\n        /* \"#utility.yul\":8263:8264   */\n      0x00\n        /* \"#utility.yul\":8252:8261   */\n      dup5\n        /* \"#utility.yul\":8248:8265   */\n      add\n        /* \"#utility.yul\":8235:8266   */\n      calldataload\n        /* \"#utility.yul\":8293:8311   */\n      0xffffffffffffffff\n        /* \"#utility.yul\":8285:8291   */\n      dup2\n        /* \"#utility.yul\":8282:8312   */\n      gt\n        /* \"#utility.yul\":8279:8396   */\n      iszero\n      tag_411\n      jumpi\n        /* \"#utility.yul\":8315:8394   */\n      tag_412\n      tag_244\n      jump\t// in\n    tag_412:\n        /* \"#utility.yul\":8279:8396   */\n    tag_411:\n        /* \"#utility.yul\":8428:8493   */\n      tag_413\n        /* \"#utility.yul\":8485:8492   */\n      dup7\n        /* \"#utility.yul\":8476:8482   */\n      dup3\n        /* \"#utility.yul\":8465:8474   */\n      dup8\n        /* \"#utility.yul\":8461:8483   */\n      add\n        /* \"#utility.yul\":8428:8493   */\n      tag_262\n      jump\t// in\n    tag_413:\n        /* \"#utility.yul\":8410:8493   */\n      swap4\n      pop\n      swap4\n      pop\n        /* \"#utility.yul\":8206:8503   */\n      pop\n        /* \"#utility.yul\":8542:8544   */\n      0x20\n        /* \"#utility.yul\":8568:8621   */\n      tag_414\n        /* \"#utility.yul\":8613:8620   */\n      dup7\n        /* \"#utility.yul\":8604:8610   */\n      dup3\n        /* \"#utility.yul\":8593:8602   */\n      dup8\n        /* \"#utility.yul\":8589:8611   */\n      add\n        /* \"#utility.yul\":8568:8621   */\n      tag_265\n      jump\t// in\n    tag_414:\n        /* \"#utility.yul\":8558:8621   */\n      swap2\n      pop\n        /* \"#utility.yul\":8513:8631   */\n      pop\n        /* \"#utility.yul\":7964:8638   */\n      swap3\n      pop\n      swap3\n      pop\n      swap3\n      jump\t// out\n        /* \"#utility.yul\":8644:8704   */\n    tag_266:\n        /* \"#utility.yul\":8672:8675   */\n      0x00\n        /* \"#utility.yul\":8693:8698   */\n      dup2\n        /* \"#utility.yul\":8686:8698   */\n      swap1\n      pop\n        /* \"#utility.yul\":8644:8704   */\n      swap2\n      swap1\n      pop\n      jump\t// out\n        /* \"#utility.yul\":8710:8852   */\n    tag_267:\n        /* \"#utility.yul\":8760:8769   */\n      0x00\n        /* \"#utility.yul\":8793:8846   */\n      tag_417\n        /* \"#utility.yul\":8811:8845   */\n      tag_418\n        /* \"#utility.yul\":8820:8844   */\n      tag_419\n        /* \"#utility.yul\":8838:8843   */\n      dup5\n        /* \"#utility.yul\":8820:8844   */\n      tag_253\n      jump\t// in\n    tag_419:\n        /* \"#utility.yul\":8811:8845   */\n      tag_266\n      jump\t// in\n    tag_418:\n        /* \"#utility.yul\":8793:8846   */\n      tag_253\n      jump\t// in\n    tag_417:\n        /* \"#utility.yul\":8780:8846   */\n      swap1\n      pop\n        /* \"#utility.yul\":8710:8852   */\n      swap2\n      swap1\n      pop\n      jump\t// out\n        /* \"#utility.yul\":8858:8984   */\n    tag_268:\n        /* \"#utility.yul\":8908:8917   */\n      0x00\n        /* \"#utility.yul\":8941:8978   */\n      tag_421\n        /* \"#utility.yul\":8972:8977   */\n      dup3\n        /* \"#utility.yul\":8941:8978   */\n      tag_267\n      jump\t// in\n    tag_421:\n        /* \"#utility.yul\":8928:8978   */\n      swap1\n      pop\n        /* \"#utility.yul\":8858:8984   */\n      swap2\n      swap1\n      pop\n      jump\t// out\n        /* \"#utility.yul\":8990:9131   */\n    tag_269:\n        /* \"#utility.yul\":9055:9064   */\n      0x00\n        /* \"#utility.yul\":9088:9125   */\n      tag_423\n        /* \"#utility.yul\":9119:9124   */\n      dup3\n        /* \"#utility.yul\":9088:9125   */\n      tag_268\n      jump\t// in\n    tag_423:\n        /* \"#utility.yul\":9075:9125   */\n      swap1\n      pop\n        /* \"#utility.yul\":8990:9131   */\n      swap2\n      swap1\n      pop\n      jump\t// out\n        /* \"#utility.yul\":9137:9298   */\n    tag_270:\n        /* \"#utility.yul\":9239:9291   */\n      tag_425\n        /* \"#utility.yul\":9285:9290   */\n      dup2\n        /* \"#utility.yul\":9239:9291   */\n      tag_269\n      jump\t// in\n    tag_425:\n        /* \"#utility.yul\":9234:9237   */\n      dup3\n        /* \"#utility.yul\":9227:9292   */\n      mstore\n        /* \"#utility.yul\":9137:9298   */\n      pop\n      pop\n      jump\t// out\n        /* \"#utility.yul\":9304:9556   */\n    tag_48:\n        /* \"#utility.yul\":9412:9416   */\n      0x00\n        /* \"#utility.yul\":9450:9452   */\n      0x20\n        /* \"#utility.yul\":9439:9448   */\n      dup3\n        /* \"#utility.yul\":9435:9453   */\n      add\n        /* \"#utility.yul\":9427:9453   */\n      swap1\n      pop\n        /* \"#utility.yul\":9463:9549   */\n      tag_427\n        /* \"#utility.yul\":9546:9547   */\n      0x00\n        /* \"#utility.yul\":9535:9544   */\n      dup4\n        /* \"#utility.yul\":9531:9548   */\n      add\n        /* \"#utility.yul\":9522:9528   */\n      dup5\n        /* \"#utility.yul\":9463:9549   */\n      tag_270\n      jump\t// in\n    tag_427:\n        /* \"#utility.yul\":9304:9556   */\n      swap3\n      swap2\n      pop\n      pop\n      jump\t// out\n        /* \"#utility.yul\":9562:9706   */\n    tag_271:\n        /* \"#utility.yul\":9630:9639   */\n      0x00\n        /* \"#utility.yul\":9663:9700   */\n      tag_429\n        /* \"#utility.yul\":9694:9699   */\n      dup3\n        /* \"#utility.yul\":9663:9700   */\n      tag_268\n      jump\t// in\n    tag_429:\n        /* \"#utility.yul\":9650:9700   */\n      swap1\n      pop\n        /* \"#utility.yul\":9562:9706   */\n      swap2\n      swap1\n      pop\n      jump\t// out\n        /* \"#utility.yul\":9712:9879   */\n    tag_272:\n        /* \"#utility.yul\":9817:9872   */\n      tag_431\n        /* \"#utility.yul\":9866:9871   */\n      dup2\n        /* \"#utility.yul\":9817:9872   */\n      tag_271\n      jump\t// in\n    tag_431:\n        /* \"#utility.yul\":9812:9815   */\n      dup3\n        /* \"#utility.yul\":9805:9873   */\n      mstore\n        /* \"#utility.yul\":9712:9879   */\n      pop\n      pop\n      jump\t// out\n        /* \"#utility.yul\":9885:10143   */\n    tag_52:\n        /* \"#utility.yul\":9996:10000   */\n      0x00\n        /* \"#utility.yul\":10034:10036   */\n      0x20\n        /* \"#utility.yul\":10023:10032   */\n      dup3\n        /* \"#utility.yul\":10019:10037   */\n      add\n        /* \"#utility.yul\":10011:10037   */\n      swap1\n      pop\n        /* \"#utility.yul\":10047:10136   */\n      tag_433\n        /* \"#utility.yul\":10133:10134   */\n      0x00\n        /* \"#utility.yul\":10122:10131   */\n      dup4\n        /* \"#utility.yul\":10118:10135   */\n      add\n        /* \"#utility.yul\":10109:10115   */\n      dup5\n        /* \"#utility.yul\":10047:10136   */\n      tag_272\n      jump\t// in\n    tag_433:\n        /* \"#utility.yul\":9885:10143   */\n      swap3\n      swap2\n      pop\n      pop\n      jump\t// out\n        /* \"#utility.yul\":10162:10714   */\n    tag_273:\n        /* \"#utility.yul\":10219:10227   */\n      0x00\n        /* \"#utility.yul\":10229:10235   */\n      0x00\n        /* \"#utility.yul\":10279:10282   */\n      dup4\n        /* \"#utility.yul\":10272:10276   */\n      0x1f\n        /* \"#utility.yul\":10264:10270   */\n      dup5\n        /* \"#utility.yul\":10260:10277   */\n      add\n        /* \"#utility.yul\":10256:10283   */\n      slt\n        /* \"#utility.yul\":10246:10368   */\n      tag_435\n      jumpi\n        /* \"#utility.yul\":10287:10366   */\n      tag_436\n      tag_245\n      jump\t// in\n    tag_436:\n        /* \"#utility.yul\":10246:10368   */\n    tag_435:\n        /* \"#utility.yul\":10400:10406   */\n      dup3\n        /* \"#utility.yul\":10387:10407   */\n      calldataload\n        /* \"#utility.yul\":10377:10407   */\n      swap1\n      pop\n        /* \"#utility.yul\":10430:10448   */\n      0xffffffffffffffff\n        /* \"#utility.yul\":10422:10428   */\n      dup2\n        /* \"#utility.yul\":10419:10449   */\n      gt\n        /* \"#utility.yul\":10416:10533   */\n      iszero\n      tag_437\n      jumpi\n        /* \"#utility.yul\":10452:10531   */\n      tag_438\n      tag_260\n      jump\t// in\n    tag_438:\n        /* \"#utility.yul\":10416:10533   */\n    tag_437:\n        /* \"#utility.yul\":10566:10570   */\n      0x20\n        /* \"#utility.yul\":10558:10564   */\n      dup4\n        /* \"#utility.yul\":10554:10571   */\n      add\n        /* \"#utility.yul\":10542:10571   */\n      swap2\n      pop\n        /* \"#utility.yul\":10620:10623   */\n      dup4\n        /* \"#utility.yul\":10612:10616   */\n      0x01\n        /* \"#utility.yul\":10604:10610   */\n      dup3\n        /* \"#utility.yul\":10600:10617   */\n      mul\n        /* \"#utility.yul\":10590:10598   */\n      dup4\n        /* \"#utility.yul\":10586:10618   */\n      add\n        /* \"#utility.yul\":10583:10624   */\n      gt\n        /* \"#utility.yul\":10580:10708   */\n      iszero\n      tag_439\n      jumpi\n        /* \"#utility.yul\":10627:10706   */\n      tag_440\n      tag_261\n      jump\t// in\n    tag_440:\n        /* \"#utility.yul\":10580:10708   */\n    tag_439:\n        /* \"#utility.yul\":10162:10714   */\n      swap3\n      pop\n      swap3\n      swap1\n      pop\n      jump\t// out\n        /* \"#utility.yul\":10720:12083   */\n    tag_55:\n        /* \"#utility.yul\":10841:10847   */\n      0x00\n        /* \"#utility.yul\":10849:10855   */\n      0x00\n        /* \"#utility.yul\":10857:10863   */\n      0x00\n        /* \"#utility.yul\":10865:10871   */\n      0x00\n        /* \"#utility.yul\":10873:10879   */\n      0x00\n        /* \"#utility.yul\":10881:10887   */\n      0x00\n        /* \"#utility.yul\":10889:10895   */\n      0x00\n        /* \"#utility.yul\":10938:10941   */\n      0x80\n        /* \"#utility.yul\":10926:10935   */\n      dup9\n        /* \"#utility.yul\":10917:10924   */\n      dup11\n        /* \"#utility.yul\":10913:10936   */\n      sub\n        /* \"#utility.yul\":10909:10942   */\n      slt\n        /* \"#utility.yul\":10906:11026   */\n      iszero\n      tag_442\n      jumpi\n        /* \"#utility.yul\":10945:11024   */\n      tag_443\n      tag_243\n      jump\t// in\n    tag_443:\n        /* \"#utility.yul\":10906:11026   */\n    tag_442:\n        /* \"#utility.yul\":11093:11094   */\n      0x00\n        /* \"#utility.yul\":11082:11091   */\n      dup9\n        /* \"#utility.yul\":11078:11095   */\n      add\n        /* \"#utility.yul\":11065:11096   */\n      calldataload\n        /* \"#utility.yul\":11123:11141   */\n      0xffffffffffffffff\n        /* \"#utility.yul\":11115:11121   */\n      dup2\n        /* \"#utility.yul\":11112:11142   */\n      gt\n        /* \"#utility.yul\":11109:11226   */\n      iszero\n      tag_444\n      jumpi\n        /* \"#utility.yul\":11145:11224   */\n      tag_445\n      tag_244\n      jump\t// in\n    tag_445:\n        /* \"#utility.yul\":11109:11226   */\n    tag_444:\n        /* \"#utility.yul\":11258:11322   */\n      tag_446\n        /* \"#utility.yul\":11314:11321   */\n      dup11\n        /* \"#utility.yul\":11305:11311   */\n      dup3\n        /* \"#utility.yul\":11294:11303   */\n      dup12\n        /* \"#utility.yul\":11290:11312   */\n      add\n        /* \"#utility.yul\":11258:11322   */\n      tag_273\n      jump\t// in\n    tag_446:\n        /* \"#utility.yul\":11240:11322   */\n      swap8\n      pop\n      swap8\n      pop\n        /* \"#utility.yul\":11036:11332   */\n      pop\n        /* \"#utility.yul\":11399:11401   */\n      0x20\n        /* \"#utility.yul\":11388:11397   */\n      dup9\n        /* \"#utility.yul\":11384:11402   */\n      add\n        /* \"#utility.yul\":11371:11403   */\n      calldataload\n        /* \"#utility.yul\":11430:11448   */\n      0xffffffffffffffff\n        /* \"#utility.yul\":11422:11428   */\n      dup2\n        /* \"#utility.yul\":11419:11449   */\n      gt\n        /* \"#utility.yul\":11416:11533   */\n      iszero\n      tag_447\n      jumpi\n        /* \"#utility.yul\":11452:11531   */\n      tag_448\n      tag_244\n      jump\t// in\n    tag_448:\n        /* \"#utility.yul\":11416:11533   */\n    tag_447:\n        /* \"#utility.yul\":11565:11630   */\n      tag_449\n        /* \"#utility.yul\":11622:11629   */\n      dup11\n        /* \"#utility.yul\":11613:11619   */\n      dup3\n        /* \"#utility.yul\":11602:11611   */\n      dup12\n        /* \"#utility.yul\":11598:11620   */\n      add\n        /* \"#utility.yul\":11565:11630   */\n      tag_262\n      jump\t// in\n    tag_449:\n        /* \"#utility.yul\":11547:11630   */\n      swap6\n      pop\n      swap6\n      pop\n        /* \"#utility.yul\":11342:11640   */\n      pop\n        /* \"#utility.yul\":11707:11709   */\n      0x40\n        /* \"#utility.yul\":11696:11705   */\n      dup9\n        /* \"#utility.yul\":11692:11710   */\n      add\n        /* \"#utility.yul\":11679:11711   */\n      calldataload\n        /* \"#utility.yul\":11738:11756   */\n      0xffffffffffffffff\n        /* \"#utility.yul\":11730:11736   */\n      dup2\n        /* \"#utility.yul\":11727:11757   */\n      gt\n        /* \"#utility.yul\":11724:11841   */\n      iszero\n      tag_450\n      jumpi\n        /* \"#utility.yul\":11760:11839   */\n      tag_451\n      tag_244\n      jump\t// in\n    tag_451:\n        /* \"#utility.yul\":11724:11841   */\n    tag_450:\n        /* \"#utility.yul\":11873:11938   */\n      tag_452\n        /* \"#utility.yul\":11930:11937   */\n      dup11\n        /* \"#utility.yul\":11921:11927   */\n      dup3\n        /* \"#utility.yul\":11910:11919   */\n      dup12\n        /* \"#utility.yul\":11906:11928   */\n      add\n        /* \"#utility.yul\":11873:11938   */\n      tag_262\n      jump\t// in\n    tag_452:\n        /* \"#utility.yul\":11855:11938   */\n      swap4\n      pop\n      swap4\n      pop\n        /* \"#utility.yul\":11650:11948   */\n      pop\n        /* \"#utility.yul\":11987:11989   */\n      0x60\n        /* \"#utility.yul\":12013:12066   */\n      tag_453\n        /* \"#utility.yul\":12058:12065   */\n      dup11\n        /* \"#utility.yul\":12049:12055   */\n      dup3\n        /* \"#utility.yul\":12038:12047   */\n      dup12\n        /* \"#utility.yul\":12034:12056   */\n      add\n        /* \"#utility.yul\":12013:12066   */\n      tag_265\n      jump\t// in\n    tag_453:\n        /* \"#utility.yul\":12003:12066   */\n      swap2\n      pop\n        /* \"#utility.yul\":11958:12076   */\n      pop\n        /* \"#utility.yul\":10720:12083   */\n      swap3\n      swap6\n      swap9\n      swap2\n      swap5\n      swap8\n      pop\n      swap3\n      swap6\n      pop\n      jump\t// out\n        /* \"#utility.yul\":12089:12618   */\n    tag_59:\n        /* \"#utility.yul\":12160:12166   */\n      0x00\n        /* \"#utility.yul\":12168:12174   */\n      0x00\n        /* \"#utility.yul\":12217:12219   */\n      0x20\n        /* \"#utility.yul\":12205:12214   */\n      dup4\n        /* \"#utility.yul\":12196:12203   */\n      dup6\n        /* \"#utility.yul\":12192:12215   */\n      sub\n        /* \"#utility.yul\":12188:12220   */\n      slt\n        /* \"#utility.yul\":12185:12304   */\n      iszero\n      tag_455\n      jumpi\n        /* \"#utility.yul\":12223:12302   */\n      tag_456\n      tag_243\n      jump\t// in\n    tag_456:\n        /* \"#utility.yul\":12185:12304   */\n    tag_455:\n        /* \"#utility.yul\":12371:12372   */\n      0x00\n        /* \"#utility.yul\":12360:12369   */\n      dup4\n        /* \"#utility.yul\":12356:12373   */\n      add\n        /* \"#utility.yul\":12343:12374   */\n      calldataload\n        /* \"#utility.yul\":12401:12419   */\n      0xffffffffffffffff\n        /* \"#utility.yul\":12393:12399   */\n      dup2\n        /* \"#utility.yul\":12390:12420   */\n      gt\n        /* \"#utility.yul\":12387:12504   */\n      iszero\n      tag_457\n      jumpi\n        /* \"#utility.yul\":12423:12502   */\n      tag_458\n      tag_244\n      jump\t// in\n    tag_458:\n        /* \"#utility.yul\":12387:12504   */\n    tag_457:\n        /* \"#utility.yul\":12536:12601   */\n      tag_459\n        /* \"#utility.yul\":12593:12600   */\n      dup6\n        /* \"#utility.yul\":12584:12590   */\n      dup3\n        /* \"#utility.yul\":12573:12582   */\n      dup7\n        /* \"#utility.yul\":12569:12591   */\n      add\n        /* \"#utility.yul\":12536:12601   */\n      tag_262\n      jump\t// in\n    tag_459:\n        /* \"#utility.yul\":12518:12601   */\n      swap3\n      pop\n      swap3\n      pop\n        /* \"#utility.yul\":12314:12611   */\n      pop\n        /* \"#utility.yul\":12089:12618   */\n      swap3\n      pop\n      swap3\n      swap1\n      pop\n      jump\t// out\n        /* \"#utility.yul\":12624:12804   */\n    tag_274:\n        /* \"#utility.yul\":12672:12749   */\n      0x4e487b7100000000000000000000000000000000000000000000000000000000\n        /* \"#utility.yul\":12669:12670   */\n      0x00\n        /* \"#utility.yul\":12662:12750   */\n      mstore\n        /* \"#utility.yul\":12769:12773   */\n      0x22\n        /* \"#utility.yul\":12766:12767   */\n      0x04\n        /* \"#utility.yul\":12759:12774   */\n      mstore\n        /* \"#utility.yul\":12793:12797   */\n      0x24\n        /* \"#utility.yul\":12790:12791   */\n      0x00\n        /* \"#utility.yul\":12783:12798   */\n      revert\n        /* \"#utility.yul\":12810:13130   */\n    tag_65:\n        /* \"#utility.yul\":12854:12860   */\n      0x00\n        /* \"#utility.yul\":12891:12892   */\n      0x02\n        /* \"#utility.yul\":12885:12889   */\n      dup3\n        /* \"#utility.yul\":12881:12893   */\n      div\n        /* \"#utility.yul\":12871:12893   */\n      swap1\n      pop\n        /* \"#utility.yul\":12938:12939   */\n      0x01\n        /* \"#utility.yul\":12932:12936   */\n      dup3\n        /* \"#utility.yul\":12928:12940   */\n      and\n        /* \"#utility.yul\":12959:12977   */\n      dup1\n        /* \"#utility.yul\":12949:13030   */\n      tag_462\n      jumpi\n        /* \"#utility.yul\":13015:13019   */\n      0x7f\n        /* \"#utility.yul\":13007:13013   */\n      dup3\n        /* \"#utility.yul\":13003:13020   */\n      and\n        /* \"#utility.yul\":12993:13020   */\n      swap2\n      pop\n        /* \"#utility.yul\":12949:13030   */\n    tag_462:\n        /* \"#utility.yul\":13077:13079   */\n      0x20\n        /* \"#utility.yul\":13069:13075   */\n      dup3\n        /* \"#utility.yul\":13066:13080   */\n      lt\n        /* \"#utility.yul\":13046:13064   */\n      dup2\n        /* \"#utility.yul\":13043:13081   */\n      sub\n        /* \"#utility.yul\":13040:13124   */\n      tag_463\n      jumpi\n        /* \"#utility.yul\":13096:13114   */\n      tag_464\n      tag_274\n      jump\t// in\n    tag_464:\n        /* \"#utility.yul\":13040:13124   */\n    tag_463:\n        /* \"#utility.yul\":12861:13130   */\n      pop\n        /* \"#utility.yul\":12810:13130   */\n      swap2\n      swap1\n      pop\n      jump\t// out\n        /* \"#utility.yul\":13136:13284   */\n    tag_275:\n        /* \"#utility.yul\":13238:13249   */\n      0x00\n        /* \"#utility.yul\":13275:13278   */\n      dup2\n        /* \"#utility.yul\":13260:13278   */\n      swap1\n      pop\n        /* \"#utility.yul\":13136:13284   */\n      swap3\n      swap2\n      pop\n      pop\n      jump\t// out\n        /* \"#utility.yul\":13290:13680   */\n    tag_276:\n        /* \"#utility.yul\":13396:13399   */\n      0x00\n        /* \"#utility.yul\":13424:13463   */\n      tag_467\n        /* \"#utility.yul\":13457:13462   */\n      dup3\n        /* \"#utility.yul\":13424:13463   */\n      tag_237\n      jump\t// in\n    tag_467:\n        /* \"#utility.yul\":13479:13568   */\n      tag_468\n        /* \"#utility.yul\":13561:13567   */\n      dup2\n        /* \"#utility.yul\":13556:13559   */\n      dup6\n        /* \"#utility.yul\":13479:13568   */\n      tag_275\n      jump\t// in\n    tag_468:\n        /* \"#utility.yul\":13472:13568   */\n      swap4\n      pop\n        /* \"#utility.yul\":13577:13642   */\n      tag_469\n        /* \"#utility.yul\":13635:13641   */\n      dup2\n        /* \"#utility.yul\":13630:13633   */\n      dup6\n        /* \"#utility.yul\":13623:13627   */\n      0x20\n        /* \"#utility.yul\":13616:13621   */\n      dup7\n        /* \"#utility.yul\":13612:13628   */\n      add\n        /* \"#utility.yul\":13577:13642   */\n      tag_239\n      jump\t// in\n    tag_469:\n        /* \"#utility.yul\":13667:13673   */\n      dup1\n        /* \"#utility.yul\":13662:13665   */\n      dup5\n        /* \"#utility.yul\":13658:13674   */\n      add\n        /* \"#utility.yul\":13651:13674   */\n      swap2\n      pop\n        /* \"#utility.yul\":13400:13680   */\n      pop\n        /* \"#utility.yul\":13290:13680   */\n      swap3\n      swap2\n      pop\n      pop\n      jump\t// out\n        /* \"#utility.yul\":13686:13837   */\n    tag_277:\n        /* \"#utility.yul\":13826:13829   */\n      0x5f00000000000000000000000000000000000000000000000000000000000000\n        /* \"#utility.yul\":13822:13823   */\n      0x00\n        /* \"#utility.yul\":13814:13820   */\n      dup3\n        /* \"#utility.yul\":13810:13824   */\n      add\n        /* \"#utility.yul\":13803:13830   */\n      mstore\n        /* \"#utility.yul\":13686:13837   */\n      pop\n      jump\t// out\n        /* \"#utility.yul\":13843:14243   */\n    tag_278:\n        /* \"#utility.yul\":14003:14006   */\n      0x00\n        /* \"#utility.yul\":14024:14108   */\n      tag_472\n        /* \"#utility.yul\":14106:14107   */\n      0x01\n        /* \"#utility.yul\":14101:14104   */\n      dup4\n        /* \"#utility.yul\":14024:14108   */\n      tag_275\n      jump\t// in\n    tag_472:\n        /* \"#utility.yul\":14017:14108   */\n      swap2\n      pop\n        /* \"#utility.yul\":14117:14210   */\n      tag_473\n        /* \"#utility.yul\":14206:14209   */\n      dup3\n        /* \"#utility.yul\":14117:14210   */\n      tag_277\n      jump\t// in\n    tag_473:\n        /* \"#utility.yul\":14235:14236   */\n      0x01\n        /* \"#utility.yul\":14230:14233   */\n      dup3\n        /* \"#utility.yul\":14226:14237   */\n      add\n        /* \"#utility.yul\":14219:14237   */\n      swap1\n      pop\n        /* \"#utility.yul\":13843:14243   */\n      swap2\n      swap1\n      pop\n      jump\t// out\n        /* \"#utility.yul\":14249:14390   */\n    tag_279:\n        /* \"#utility.yul\":14298:14302   */\n      0x00\n        /* \"#utility.yul\":14321:14324   */\n      dup2\n        /* \"#utility.yul\":14313:14324   */\n      swap1\n      pop\n        /* \"#utility.yul\":14344:14347   */\n      dup2\n        /* \"#utility.yul\":14341:14342   */\n      0x00\n        /* \"#utility.yul\":14334:14348   */\n      mstore\n        /* \"#utility.yul\":14378:14382   */\n      0x20\n        /* \"#utility.yul\":14375:14376   */\n      0x00\n        /* \"#utility.yul\":14365:14383   */\n      keccak256\n        /* \"#utility.yul\":14357:14383   */\n      swap1\n      pop\n        /* \"#utility.yul\":14249:14390   */\n      swap2\n      swap1\n      pop\n      jump\t// out\n        /* \"#utility.yul\":14420:15294   */\n    tag_280:\n        /* \"#utility.yul\":14523:14526   */\n      0x00\n        /* \"#utility.yul\":14560:14565   */\n      dup2\n        /* \"#utility.yul\":14554:14566   */\n      sload\n        /* \"#utility.yul\":14589:14625   */\n      tag_476\n        /* \"#utility.yul\":14615:14624   */\n      dup2\n        /* \"#utility.yul\":14589:14625   */\n      tag_65\n      jump\t// in\n    tag_476:\n        /* \"#utility.yul\":14641:14730   */\n      tag_477\n        /* \"#utility.yul\":14723:14729   */\n      dup2\n        /* \"#utility.yul\":14718:14721   */\n      dup7\n        /* \"#utility.yul\":14641:14730   */\n      tag_275\n      jump\t// in\n    tag_477:\n        /* \"#utility.yul\":14634:14730   */\n      swap5\n      pop\n        /* \"#utility.yul\":14761:14762   */\n      0x01\n        /* \"#utility.yul\":14750:14759   */\n      dup3\n        /* \"#utility.yul\":14746:14763   */\n      and\n        /* \"#utility.yul\":14777:14778   */\n      0x00\n        /* \"#utility.yul\":14772:14938   */\n      dup2\n      eq\n      tag_479\n      jumpi\n        /* \"#utility.yul\":14952:14953   */\n      0x01\n        /* \"#utility.yul\":14947:15288   */\n      dup2\n      eq\n      tag_480\n      jumpi\n        /* \"#utility.yul\":14739:15288   */\n      jump(tag_478)\n        /* \"#utility.yul\":14772:14938   */\n    tag_479:\n        /* \"#utility.yul\":14856:14860   */\n      0xff\n        /* \"#utility.yul\":14852:14861   */\n      not\n        /* \"#utility.yul\":14841:14850   */\n      dup4\n        /* \"#utility.yul\":14837:14862   */\n      and\n        /* \"#utility.yul\":14832:14835   */\n      dup7\n        /* \"#utility.yul\":14825:14863   */\n      mstore\n        /* \"#utility.yul\":14918:14924   */\n      dup2\n        /* \"#utility.yul\":14911:14925   */\n      iszero\n        /* \"#utility.yul\":14904:14926   */\n      iszero\n        /* \"#utility.yul\":14896:14902   */\n      dup3\n        /* \"#utility.yul\":14892:14927   */\n      mul\n        /* \"#utility.yul\":14887:14890   */\n      dup7\n        /* \"#utility.yul\":14883:14928   */\n      add\n        /* \"#utility.yul\":14876:14928   */\n      swap4\n      pop\n        /* \"#utility.yul\":14772:14938   */\n      jump(tag_478)\n        /* \"#utility.yul\":14947:15288   */\n    tag_480:\n        /* \"#utility.yul\":15014:15052   */\n      tag_481\n        /* \"#utility.yul\":15046:15051   */\n      dup6\n        /* \"#utility.yul\":15014:15052   */\n      tag_279\n      jump\t// in\n    tag_481:\n        /* \"#utility.yul\":15074:15075   */\n      0x00\n        /* \"#utility.yul\":15088:15242   */\n    tag_482:\n        /* \"#utility.yul\":15102:15108   */\n      dup4\n        /* \"#utility.yul\":15099:15100   */\n      dup2\n        /* \"#utility.yul\":15096:15109   */\n      lt\n        /* \"#utility.yul\":15088:15242   */\n      iszero\n      tag_484\n      jumpi\n        /* \"#utility.yul\":15176:15183   */\n      dup2\n        /* \"#utility.yul\":15170:15184   */\n      sload\n        /* \"#utility.yul\":15166:15167   */\n      dup2\n        /* \"#utility.yul\":15161:15164   */\n      dup10\n        /* \"#utility.yul\":15157:15168   */\n      add\n        /* \"#utility.yul\":15150:15185   */\n      mstore\n        /* \"#utility.yul\":15226:15227   */\n      0x01\n        /* \"#utility.yul\":15217:15224   */\n      dup3\n        /* \"#utility.yul\":15213:15228   */\n      add\n        /* \"#utility.yul\":15202:15228   */\n      swap2\n      pop\n        /* \"#utility.yul\":15124:15128   */\n      0x20\n        /* \"#utility.yul\":15121:15122   */\n      dup2\n        /* \"#utility.yul\":15117:15129   */\n      add\n        /* \"#utility.yul\":15112:15129   */\n      swap1\n      pop\n        /* \"#utility.yul\":15088:15242   */\n      jump(tag_482)\n    tag_484:\n        /* \"#utility.yul\":15271:15277   */\n      dup4\n        /* \"#utility.yul\":15266:15269   */\n      dup9\n        /* \"#utility.yul\":15262:15278   */\n      add\n        /* \"#utility.yul\":15255:15278   */\n      swap6\n      pop\n        /* \"#utility.yul\":14954:15288   */\n      pop\n      pop\n        /* \"#utility.yul\":14739:15288   */\n    tag_478:\n      pop\n        /* \"#utility.yul\":14527:15294   */\n      pop\n      pop\n        /* \"#utility.yul\":14420:15294   */\n      swap3\n      swap2\n      pop\n      pop\n      jump\t// out\n        /* \"#utility.yul\":15300:15995   */\n    tag_72:\n        /* \"#utility.yul\":15578:15581   */\n      0x00\n        /* \"#utility.yul\":15600:15695   */\n      tag_486\n        /* \"#utility.yul\":15691:15694   */\n      dup3\n        /* \"#utility.yul\":15682:15688   */\n      dup6\n        /* \"#utility.yul\":15600:15695   */\n      tag_276\n      jump\t// in\n    tag_486:\n        /* \"#utility.yul\":15593:15695   */\n      swap2\n      pop\n        /* \"#utility.yul\":15712:15860   */\n      tag_487\n        /* \"#utility.yul\":15856:15859   */\n      dup3\n        /* \"#utility.yul\":15712:15860   */\n      tag_278\n      jump\t// in\n    tag_487:\n        /* \"#utility.yul\":15705:15860   */\n      swap2\n      pop\n        /* \"#utility.yul\":15877:15969   */\n      tag_488\n        /* \"#utility.yul\":15965:15968   */\n      dup3\n        /* \"#utility.yul\":15956:15962   */\n      dup5\n        /* \"#utility.yul\":15877:15969   */\n      tag_280\n      jump\t// in\n    tag_488:\n        /* \"#utility.yul\":15870:15969   */\n      swap2\n      pop\n        /* \"#utility.yul\":15986:15989   */\n      dup2\n        /* \"#utility.yul\":15979:15989   */\n      swap1\n      pop\n        /* \"#utility.yul\":15300:15995   */\n      swap4\n      swap3\n      pop\n      pop\n      pop\n      jump\t// out\n        /* \"#utility.yul\":16001:16167   */\n    tag_281:\n        /* \"#utility.yul\":16141:16159   */\n      0x51696172614d6f6e616441737365747300000000000000000000000000000000\n        /* \"#utility.yul\":16137:16138   */\n      0x00\n        /* \"#utility.yul\":16129:16135   */\n      dup3\n        /* \"#utility.yul\":16125:16139   */\n      add\n        /* \"#utility.yul\":16118:16160   */\n      mstore\n        /* \"#utility.yul\":16001:16167   */\n      pop\n      jump\t// out\n        /* \"#utility.yul\":16173:16539   */\n    tag_282:\n        /* \"#utility.yul\":16315:16318   */\n      0x00\n        /* \"#utility.yul\":16336:16403   */\n      tag_491\n        /* \"#utility.yul\":16400:16402   */\n      0x10\n        /* \"#utility.yul\":16395:16398   */\n      dup4\n        /* \"#utility.yul\":16336:16403   */\n      tag_238\n      jump\t// in\n    tag_491:\n        /* \"#utility.yul\":16329:16403   */\n      swap2\n      pop\n        /* \"#utility.yul\":16412:16505   */\n      tag_492\n        /* \"#utility.yul\":16501:16504   */\n      dup3\n        /* \"#utility.yul\":16412:16505   */\n      tag_281\n      jump\t// in\n    tag_492:\n        /* \"#utility.yul\":16530:16532   */\n      0x20\n        /* \"#utility.yul\":16525:16528   */\n      dup3\n        /* \"#utility.yul\":16521:16533   */\n      add\n        /* \"#utility.yul\":16514:16533   */\n      swap1\n      pop\n        /* \"#utility.yul\":16173:16539   */\n      swap2\n      swap1\n      pop\n      jump\t// out\n        /* \"#utility.yul\":16545:17165   */\n    tag_74:\n        /* \"#utility.yul\":16759:16763   */\n      0x00\n        /* \"#utility.yul\":16797:16799   */\n      0x40\n        /* \"#utility.yul\":16786:16795   */\n      dup3\n        /* \"#utility.yul\":16782:16800   */\n      add\n        /* \"#utility.yul\":16774:16800   */\n      swap1\n      pop\n        /* \"#utility.yul\":16846:16855   */\n      dup2\n        /* \"#utility.yul\":16840:16844   */\n      dup2\n        /* \"#utility.yul\":16836:16856   */\n      sub\n        /* \"#utility.yul\":16832:16833   */\n      0x00\n        /* \"#utility.yul\":16821:16830   */\n      dup4\n        /* \"#utility.yul\":16817:16834   */\n      add\n        /* \"#utility.yul\":16810:16857   */\n      mstore\n        /* \"#utility.yul\":16874:17005   */\n      tag_494\n        /* \"#utility.yul\":17000:17004   */\n      dup2\n        /* \"#utility.yul\":16874:17005   */\n      tag_282\n      jump\t// in\n    tag_494:\n        /* \"#utility.yul\":16866:17005   */\n      swap1\n      pop\n        /* \"#utility.yul\":17052:17061   */\n      dup2\n        /* \"#utility.yul\":17046:17050   */\n      dup2\n        /* \"#utility.yul\":17042:17062   */\n      sub\n        /* \"#utility.yul\":17037:17039   */\n      0x20\n        /* \"#utility.yul\":17026:17035   */\n      dup4\n        /* \"#utility.yul\":17022:17040   */\n      add\n        /* \"#utility.yul\":17015:17063   */\n      mstore\n        /* \"#utility.yul\":17080:17158   */\n      tag_495\n        /* \"#utility.yul\":17153:17157   */\n      dup2\n        /* \"#utility.yul\":17144:17150   */\n      dup5\n        /* \"#utility.yul\":17080:17158   */\n      tag_241\n      jump\t// in\n    tag_495:\n        /* \"#utility.yul\":17072:17158   */\n      swap1\n      pop\n        /* \"#utility.yul\":16545:17165   */\n      swap3\n      swap2\n      pop\n      pop\n      jump\t// out\n        /* \"#utility.yul\":17171:17478   */\n    tag_283:\n        /* \"#utility.yul\":17232:17236   */\n      0x00\n        /* \"#utility.yul\":17322:17340   */\n      0xffffffffffffffff\n        /* \"#utility.yul\":17314:17320   */\n      dup3\n        /* \"#utility.yul\":17311:17341   */\n      gt\n        /* \"#utility.yul\":17308:17364   */\n      iszero\n      tag_497\n      jumpi\n        /* \"#utility.yul\":17344:17362   */\n      tag_498\n      tag_99\n      jump\t// in\n    tag_498:\n        /* \"#utility.yul\":17308:17364   */\n    tag_497:\n        /* \"#utility.yul\":17382:17411   */\n      tag_499\n        /* \"#utility.yul\":17404:17410   */\n      dup3\n        /* \"#utility.yul\":17382:17411   */\n      tag_240\n      jump\t// in\n    tag_499:\n        /* \"#utility.yul\":17374:17411   */\n      swap1\n      pop\n        /* \"#utility.yul\":17466:17470   */\n      0x20\n        /* \"#utility.yul\":17460:17464   */\n      dup2\n        /* \"#utility.yul\":17456:17471   */\n      add\n        /* \"#utility.yul\":17448:17471   */\n      swap1\n      pop\n        /* \"#utility.yul\":17171:17478   */\n      swap2\n      swap1\n      pop\n      jump\t// out\n        /* \"#utility.yul\":17484:17916   */\n    tag_284:\n        /* \"#utility.yul\":17572:17577   */\n      0x00\n        /* \"#utility.yul\":17597:17662   */\n      tag_501\n        /* \"#utility.yul\":17613:17661   */\n      tag_502\n        /* \"#utility.yul\":17654:17660   */\n      dup5\n        /* \"#utility.yul\":17613:17661   */\n      tag_283\n      jump\t// in\n    tag_502:\n        /* \"#utility.yul\":17597:17662   */\n      tag_248\n      jump\t// in\n    tag_501:\n        /* \"#utility.yul\":17588:17662   */\n      swap1\n      pop\n        /* \"#utility.yul\":17685:17691   */\n      dup3\n        /* \"#utility.yul\":17678:17683   */\n      dup2\n        /* \"#utility.yul\":17671:17692   */\n      mstore\n        /* \"#utility.yul\":17723:17727   */\n      0x20\n        /* \"#utility.yul\":17716:17721   */\n      dup2\n        /* \"#utility.yul\":17712:17728   */\n      add\n        /* \"#utility.yul\":17761:17764   */\n      dup5\n        /* \"#utility.yul\":17752:17758   */\n      dup5\n        /* \"#utility.yul\":17747:17750   */\n      dup5\n        /* \"#utility.yul\":17743:17759   */\n      add\n        /* \"#utility.yul\":17740:17765   */\n      gt\n        /* \"#utility.yul\":17737:17849   */\n      iszero\n      tag_503\n      jumpi\n        /* \"#utility.yul\":17768:17847   */\n      tag_504\n      tag_246\n      jump\t// in\n    tag_504:\n        /* \"#utility.yul\":17737:17849   */\n    tag_503:\n        /* \"#utility.yul\":17858:17910   */\n      tag_505\n        /* \"#utility.yul\":17903:17909   */\n      dup5\n        /* \"#utility.yul\":17898:17901   */\n      dup3\n        /* \"#utility.yul\":17893:17896   */\n      dup6\n        /* \"#utility.yul\":17858:17910   */\n      tag_239\n      jump\t// in\n    tag_505:\n        /* \"#utility.yul\":17578:17916   */\n      pop\n        /* \"#utility.yul\":17484:17916   */\n      swap4\n      swap3\n      pop\n      pop\n      pop\n      jump\t// out\n        /* \"#utility.yul\":17935:18288   */\n    tag_285:\n        /* \"#utility.yul\":18001:18006   */\n      0x00\n        /* \"#utility.yul\":18050:18053   */\n      dup3\n        /* \"#utility.yul\":18043:18047   */\n      0x1f\n        /* \"#utility.yul\":18035:18041   */\n      dup4\n        /* \"#utility.yul\":18031:18048   */\n      add\n        /* \"#utility.yul\":18027:18054   */\n      slt\n        /* \"#utility.yul\":18017:18139   */\n      tag_507\n      jumpi\n        /* \"#utility.yul\":18058:18137   */\n      tag_508\n      tag_245\n      jump\t// in\n    tag_508:\n        /* \"#utility.yul\":18017:18139   */\n    tag_507:\n        /* \"#utility.yul\":18168:18174   */\n      dup2\n        /* \"#utility.yul\":18162:18175   */\n      mload\n        /* \"#utility.yul\":18193:18282   */\n      tag_509\n        /* \"#utility.yul\":18278:18281   */\n      dup5\n        /* \"#utility.yul\":18270:18276   */\n      dup3\n        /* \"#utility.yul\":18263:18267   */\n      0x20\n        /* \"#utility.yul\":18255:18261   */\n      dup7\n        /* \"#utility.yul\":18251:18268   */\n      add\n        /* \"#utility.yul\":18193:18282   */\n      tag_284\n      jump\t// in\n    tag_509:\n        /* \"#utility.yul\":18184:18282   */\n      swap2\n      pop\n        /* \"#utility.yul\":18007:18288   */\n      pop\n        /* \"#utility.yul\":17935:18288   */\n      swap3\n      swap2\n      pop\n      pop\n      jump\t// out\n        /* \"#utility.yul\":18294:18816   */\n    tag_78:\n        /* \"#utility.yul\":18373:18379   */\n      0x00\n        /* \"#utility.yul\":18422:18424   */\n      0x20\n        /* \"#utility.yul\":18410:18419   */\n      dup3\n        /* \"#utility.yul\":18401:18408   */\n      dup5\n        /* \"#utility.yul\":18397:18420   */\n      sub\n        /* \"#utility.yul\":18393:18425   */\n      slt\n        /* \"#utility.yul\":18390:18509   */\n      iszero\n      tag_511\n      jumpi\n        /* \"#utility.yul\":18428:18507   */\n      tag_512\n      tag_243\n      jump\t// in\n    tag_512:\n        /* \"#utility.yul\":18390:18509   */\n    tag_511:\n        /* \"#utility.yul\":18569:18570   */\n      0x00\n        /* \"#utility.yul\":18558:18567   */\n      dup3\n        /* \"#utility.yul\":18554:18571   */\n      add\n        /* \"#utility.yul\":18548:18572   */\n      mload\n        /* \"#utility.yul\":18599:18617   */\n      0xffffffffffffffff\n        /* \"#utility.yul\":18591:18597   */\n      dup2\n        /* \"#utility.yul\":18588:18618   */\n      gt\n        /* \"#utility.yul\":18585:18702   */\n      iszero\n      tag_513\n      jumpi\n        /* \"#utility.yul\":18621:18700   */\n      tag_514\n      tag_244\n      jump\t// in\n    tag_514:\n        /* \"#utility.yul\":18585:18702   */\n    tag_513:\n        /* \"#utility.yul\":18726:18799   */\n      tag_515\n        /* \"#utility.yul\":18791:18798   */\n      dup5\n        /* \"#utility.yul\":18782:18788   */\n      dup3\n        /* \"#utility.yul\":18771:18780   */\n      dup6\n        /* \"#utility.yul\":18767:18789   */\n      add\n        /* \"#utility.yul\":18726:18799   */\n      tag_285\n      jump\t// in\n    tag_515:\n        /* \"#utility.yul\":18716:18799   */\n      swap2\n      pop\n        /* \"#utility.yul\":18519:18809   */\n      pop\n        /* \"#utility.yul\":18294:18816   */\n      swap3\n      swap2\n      pop\n      pop\n      jump\t// out\n        /* \"#utility.yul\":18822:19043   */\n    tag_286:\n        /* \"#utility.yul\":18962:18996   */\n      0x5661756c743a204173736574206e6f7420666f756e6420696e20726567697374\n        /* \"#utility.yul\":18958:18959   */\n      0x00\n        /* \"#utility.yul\":18950:18956   */\n      dup3\n        /* \"#utility.yul\":18946:18960   */\n      add\n        /* \"#utility.yul\":18939:18997   */\n      mstore\n        /* \"#utility.yul\":19031:19035   */\n      0x7279000000000000000000000000000000000000000000000000000000000000\n        /* \"#utility.yul\":19026:19028   */\n      0x20\n        /* \"#utility.yul\":19018:19024   */\n      dup3\n        /* \"#utility.yul\":19014:19029   */\n      add\n        /* \"#utility.yul\":19007:19036   */\n      mstore\n        /* \"#utility.yul\":18822:19043   */\n      pop\n      jump\t// out\n        /* \"#utility.yul\":19049:19415   */\n    tag_287:\n        /* \"#utility.yul\":19191:19194   */\n      0x00\n        /* \"#utility.yul\":19212:19279   */\n      tag_518\n        /* \"#utility.yul\":19276:19278   */\n      0x22\n        /* \"#utility.yul\":19271:19274   */\n      dup4\n        /* \"#utility.yul\":19212:19279   */\n      tag_238\n      jump\t// in\n    tag_518:\n        /* \"#utility.yul\":19205:19279   */\n      swap2\n      pop\n        /* \"#utility.yul\":19288:19381   */\n      tag_519\n        /* \"#utility.yul\":19377:19380   */\n      dup3\n        /* \"#utility.yul\":19288:19381   */\n      tag_286\n      jump\t// in\n    tag_519:\n        /* \"#utility.yul\":19406:19408   */\n      0x40\n        /* \"#utility.yul\":19401:19404   */\n      dup3\n        /* \"#utility.yul\":19397:19409   */\n      add\n        /* \"#utility.yul\":19390:19409   */\n      swap1\n      pop\n        /* \"#utility.yul\":19049:19415   */\n      swap2\n      swap1\n      pop\n      jump\t// out\n        /* \"#utility.yul\":19421:19840   */\n    tag_81:\n        /* \"#utility.yul\":19587:19591   */\n      0x00\n        /* \"#utility.yul\":19625:19627   */\n      0x20\n        /* \"#utility.yul\":19614:19623   */\n      dup3\n        /* \"#utility.yul\":19610:19628   */\n      add\n        /* \"#utility.yul\":19602:19628   */\n      swap1\n      pop\n        /* \"#utility.yul\":19674:19683   */\n      dup2\n        /* \"#utility.yul\":19668:19672   */\n      dup2\n        /* \"#utility.yul\":19664:19684   */\n      sub\n        /* \"#utility.yul\":19660:19661   */\n      0x00\n        /* \"#utility.yul\":19649:19658   */\n      dup4\n        /* \"#utility.yul\":19645:19662   */\n      add\n        /* \"#utility.yul\":19638:19685   */\n      mstore\n        /* \"#utility.yul\":19702:19833   */\n      tag_521\n        /* \"#utility.yul\":19828:19832   */\n      dup2\n        /* \"#utility.yul\":19702:19833   */\n      tag_287\n      jump\t// in\n    tag_521:\n        /* \"#utility.yul\":19694:19833   */\n      swap1\n      pop\n        /* \"#utility.yul\":19421:19840   */\n      swap2\n      swap1\n      pop\n      jump\t// out\n        /* \"#utility.yul\":19846:20022   */\n    tag_288:\n        /* \"#utility.yul\":19986:20014   */\n      0x5661756c743a20546f6b656e206e6f7420737570706f72746564000000000000\n        /* \"#utility.yul\":19982:19983   */\n      0x00\n        /* \"#utility.yul\":19974:19980   */\n      dup3\n        /* \"#utility.yul\":19970:19984   */\n      add\n        /* \"#utility.yul\":19963:20015   */\n      mstore\n        /* \"#utility.yul\":19846:20022   */\n      pop\n      jump\t// out\n        /* \"#utility.yul\":20028:20394   */\n    tag_289:\n        /* \"#utility.yul\":20170:20173   */\n      0x00\n        /* \"#utility.yul\":20191:20258   */\n      tag_524\n        /* \"#utility.yul\":20255:20257   */\n      0x1a\n        /* \"#utility.yul\":20250:20253   */\n      dup4\n        /* \"#utility.yul\":20191:20258   */\n      tag_238\n      jump\t// in\n    tag_524:\n        /* \"#utility.yul\":20184:20258   */\n      swap2\n      pop\n        /* \"#utility.yul\":20267:20360   */\n      tag_525\n        /* \"#utility.yul\":20356:20359   */\n      dup3\n        /* \"#utility.yul\":20267:20360   */\n      tag_288\n      jump\t// in\n    tag_525:\n        /* \"#utility.yul\":20385:20387   */\n      0x20\n        /* \"#utility.yul\":20380:20383   */\n      dup3\n        /* \"#utility.yul\":20376:20388   */\n      add\n        /* \"#utility.yul\":20369:20388   */\n      swap1\n      pop\n        /* \"#utility.yul\":20028:20394   */\n      swap2\n      swap1\n      pop\n      jump\t// out\n        /* \"#utility.yul\":20400:20819   */\n    tag_94:\n        /* \"#utility.yul\":20566:20570   */\n      0x00\n        /* \"#utility.yul\":20604:20606   */\n      0x20\n        /* \"#utility.yul\":20593:20602   */\n      dup3\n        /* \"#utility.yul\":20589:20607   */\n      add\n        /* \"#utility.yul\":20581:20607   */\n      swap1\n      pop\n        /* \"#utility.yul\":20653:20662   */\n      dup2\n        /* \"#utility.yul\":20647:20651   */\n      dup2\n        /* \"#utility.yul\":20643:20663   */\n      sub\n        /* \"#utility.yul\":20639:20640   */\n      0x00\n        /* \"#utility.yul\":20628:20637   */\n      dup4\n        /* \"#utility.yul\":20624:20641   */\n      add\n        /* \"#utility.yul\":20617:20664   */\n      mstore\n        /* \"#utility.yul\":20681:20812   */\n      tag_527\n        /* \"#utility.yul\":20807:20811   */\n      dup2\n        /* \"#utility.yul\":20681:20812   */\n      tag_289\n      jump\t// in\n    tag_527:\n        /* \"#utility.yul\":20673:20812   */\n      swap1\n      pop\n        /* \"#utility.yul\":20400:20819   */\n      swap2\n      swap1\n      pop\n      jump\t// out\n        /* \"#utility.yul\":20825:21005   */\n    tag_107:\n        /* \"#utility.yul\":20873:20950   */\n      0x4e487b7100000000000000000000000000000000000000000000000000000000\n        /* \"#utility.yul\":20870:20871   */\n      0x00\n        /* \"#utility.yul\":20863:20951   */\n      mstore\n        /* \"#utility.yul\":20970:20974   */\n      0x32\n        /* \"#utility.yul\":20967:20968   */\n      0x04\n        /* \"#utility.yul\":20960:20975   */\n      mstore\n        /* \"#utility.yul\":20994:20998   */\n      0x24\n        /* \"#utility.yul\":20991:20992   */\n      0x00\n        /* \"#utility.yul\":20984:20999   */\n      revert\n        /* \"#utility.yul\":21011:21129   */\n    tag_290:\n        /* \"#utility.yul\":21098:21122   */\n      tag_530\n        /* \"#utility.yul\":21116:21121   */\n      dup2\n        /* \"#utility.yul\":21098:21122   */\n      tag_263\n      jump\t// in\n    tag_530:\n        /* \"#utility.yul\":21093:21096   */\n      dup3\n        /* \"#utility.yul\":21086:21123   */\n      mstore\n        /* \"#utility.yul\":21011:21129   */\n      pop\n      pop\n      jump\t// out\n        /* \"#utility.yul\":21135:21357   */\n    tag_109:\n        /* \"#utility.yul\":21228:21232   */\n      0x00\n        /* \"#utility.yul\":21266:21268   */\n      0x20\n        /* \"#utility.yul\":21255:21264   */\n      dup3\n        /* \"#utility.yul\":21251:21269   */\n      add\n        /* \"#utility.yul\":21243:21269   */\n      swap1\n      pop\n        /* \"#utility.yul\":21279:21350   */\n      tag_532\n        /* \"#utility.yul\":21347:21348   */\n      0x00\n        /* \"#utility.yul\":21336:21345   */\n      dup4\n        /* \"#utility.yul\":21332:21349   */\n      add\n        /* \"#utility.yul\":21323:21329   */\n      dup5\n        /* \"#utility.yul\":21279:21350   */\n      tag_290\n      jump\t// in\n    tag_532:\n        /* \"#utility.yul\":21135:21357   */\n      swap3\n      swap2\n      pop\n      pop\n      jump\t// out\n        /* \"#utility.yul\":21387:21704   */\n    tag_291:\n        /* \"#utility.yul\":21485:21488   */\n      0x00\n        /* \"#utility.yul\":21506:21577   */\n      tag_534\n        /* \"#utility.yul\":21570:21576   */\n      dup4\n        /* \"#utility.yul\":21565:21568   */\n      dup6\n        /* \"#utility.yul\":21506:21577   */\n      tag_238\n      jump\t// in\n    tag_534:\n        /* \"#utility.yul\":21499:21577   */\n      swap4\n      pop\n        /* \"#utility.yul\":21587:21643   */\n      tag_535\n        /* \"#utility.yul\":21636:21642   */\n      dup4\n        /* \"#utility.yul\":21631:21634   */\n      dup6\n        /* \"#utility.yul\":21624:21629   */\n      dup5\n        /* \"#utility.yul\":21587:21643   */\n      tag_250\n      jump\t// in\n    tag_535:\n        /* \"#utility.yul\":21668:21697   */\n      tag_536\n        /* \"#utility.yul\":21690:21696   */\n      dup4\n        /* \"#utility.yul\":21668:21697   */\n      tag_240\n      jump\t// in\n    tag_536:\n        /* \"#utility.yul\":21663:21666   */\n      dup5\n        /* \"#utility.yul\":21659:21698   */\n      add\n        /* \"#utility.yul\":21652:21698   */\n      swap1\n      pop\n        /* \"#utility.yul\":21387:21704   */\n      swap4\n      swap3\n      pop\n      pop\n      pop\n      jump\t// out\n        /* \"#utility.yul\":21710:22043   */\n    tag_113:\n        /* \"#utility.yul\":21833:21837   */\n      0x00\n        /* \"#utility.yul\":21871:21873   */\n      0x20\n        /* \"#utility.yul\":21860:21869   */\n      dup3\n        /* \"#utility.yul\":21856:21874   */\n      add\n        /* \"#utility.yul\":21848:21874   */\n      swap1\n      pop\n        /* \"#utility.yul\":21920:21929   */\n      dup2\n        /* \"#utility.yul\":21914:21918   */\n      dup2\n        /* \"#utility.yul\":21910:21930   */\n      sub\n        /* \"#utility.yul\":21906:21907   */\n      0x00\n        /* \"#utility.yul\":21895:21904   */\n      dup4\n        /* \"#utility.yul\":21891:21908   */\n      add\n        /* \"#utility.yul\":21884:21931   */\n      mstore\n        /* \"#utility.yul\":21948:22036   */\n      tag_538\n        /* \"#utility.yul\":22031:22035   */\n      dup2\n        /* \"#utility.yul\":22022:22028   */\n      dup5\n        /* \"#utility.yul\":22014:22020   */\n      dup7\n        /* \"#utility.yul\":21948:22036   */\n      tag_291\n      jump\t// in\n    tag_538:\n        /* \"#utility.yul\":21940:22036   */\n      swap1\n      pop\n        /* \"#utility.yul\":21710:22043   */\n      swap4\n      swap3\n      pop\n      pop\n      pop\n      jump\t// out\n        /* \"#utility.yul\":22073:22904   */\n    tag_292:\n        /* \"#utility.yul\":22158:22161   */\n      0x00\n        /* \"#utility.yul\":22195:22200   */\n      dup2\n        /* \"#utility.yul\":22189:22201   */\n      sload\n        /* \"#utility.yul\":22224:22260   */\n      tag_540\n        /* \"#utility.yul\":22250:22259   */\n      dup2\n        /* \"#utility.yul\":22224:22260   */\n      tag_65\n      jump\t// in\n    tag_540:\n        /* \"#utility.yul\":22276:22347   */\n      tag_541\n        /* \"#utility.yul\":22340:22346   */\n      dup2\n        /* \"#utility.yul\":22335:22338   */\n      dup7\n        /* \"#utility.yul\":22276:22347   */\n      tag_238\n      jump\t// in\n    tag_541:\n        /* \"#utility.yul\":22269:22347   */\n      swap5\n      pop\n        /* \"#utility.yul\":22378:22379   */\n      0x01\n        /* \"#utility.yul\":22367:22376   */\n      dup3\n        /* \"#utility.yul\":22363:22380   */\n      and\n        /* \"#utility.yul\":22394:22395   */\n      0x00\n        /* \"#utility.yul\":22389:22553   */\n      dup2\n      eq\n      tag_543\n      jumpi\n        /* \"#utility.yul\":22567:22568   */\n      0x01\n        /* \"#utility.yul\":22562:22898   */\n      dup2\n      eq\n      tag_544\n      jumpi\n        /* \"#utility.yul\":22356:22898   */\n      jump(tag_542)\n        /* \"#utility.yul\":22389:22553   */\n    tag_543:\n        /* \"#utility.yul\":22473:22477   */\n      0xff\n        /* \"#utility.yul\":22469:22478   */\n      not\n        /* \"#utility.yul\":22458:22467   */\n      dup4\n        /* \"#utility.yul\":22454:22479   */\n      and\n        /* \"#utility.yul\":22449:22452   */\n      dup7\n        /* \"#utility.yul\":22442:22480   */\n      mstore\n        /* \"#utility.yul\":22533:22539   */\n      dup2\n        /* \"#utility.yul\":22526:22540   */\n      iszero\n        /* \"#utility.yul\":22519:22541   */\n      iszero\n        /* \"#utility.yul\":22513:22517   */\n      0x20\n        /* \"#utility.yul\":22509:22542   */\n      mul\n        /* \"#utility.yul\":22504:22507   */\n      dup7\n        /* \"#utility.yul\":22500:22543   */\n      add\n        /* \"#utility.yul\":22493:22543   */\n      swap4\n      pop\n        /* \"#utility.yul\":22389:22553   */\n      jump(tag_542)\n        /* \"#utility.yul\":22562:22898   */\n    tag_544:\n        /* \"#utility.yul\":22629:22667   */\n      tag_545\n        /* \"#utility.yul\":22661:22666   */\n      dup6\n        /* \"#utility.yul\":22629:22667   */\n      tag_279\n      jump\t// in\n    tag_545:\n        /* \"#utility.yul\":22689:22690   */\n      0x00\n        /* \"#utility.yul\":22703:22857   */\n    tag_546:\n        /* \"#utility.yul\":22717:22723   */\n      dup4\n        /* \"#utility.yul\":22714:22715   */\n      dup2\n        /* \"#utility.yul\":22711:22724   */\n      lt\n        /* \"#utility.yul\":22703:22857   */\n      iszero\n      tag_548\n      jumpi\n        /* \"#utility.yul\":22791:22798   */\n      dup2\n        /* \"#utility.yul\":22785:22799   */\n      sload\n        /* \"#utility.yul\":22781:22782   */\n      dup2\n        /* \"#utility.yul\":22776:22779   */\n      dup10\n        /* \"#utility.yul\":22772:22783   */\n      add\n        /* \"#utility.yul\":22765:22800   */\n      mstore\n        /* \"#utility.yul\":22841:22842   */\n      0x01\n        /* \"#utility.yul\":22832:22839   */\n      dup3\n        /* \"#utility.yul\":22828:22843   */\n      add\n        /* \"#utility.yul\":22817:22843   */\n      swap2\n      pop\n        /* \"#utility.yul\":22739:22743   */\n      0x20\n        /* \"#utility.yul\":22736:22737   */\n      dup2\n        /* \"#utility.yul\":22732:22744   */\n      add\n        /* \"#utility.yul\":22727:22744   */\n      swap1\n      pop\n        /* \"#utility.yul\":22703:22857   */\n      jump(tag_546)\n    tag_548:\n        /* \"#utility.yul\":22886:22887   */\n      dup1\n        /* \"#utility.yul\":22881:22884   */\n      dup9\n        /* \"#utility.yul\":22877:22888   */\n      add\n        /* \"#utility.yul\":22870:22888   */\n      swap6\n      pop\n        /* \"#utility.yul\":22569:22898   */\n      pop\n      pop\n        /* \"#utility.yul\":22356:22898   */\n    tag_542:\n      pop\n        /* \"#utility.yul\":22162:22904   */\n      pop\n      pop\n        /* \"#utility.yul\":22073:22904   */\n      swap3\n      swap2\n      pop\n      pop\n      jump\t// out\n        /* \"#utility.yul\":22910:23217   */\n    tag_117:\n        /* \"#utility.yul\":23020:23024   */\n      0x00\n        /* \"#utility.yul\":23058:23060   */\n      0x20\n        /* \"#utility.yul\":23047:23056   */\n      dup3\n        /* \"#utility.yul\":23043:23061   */\n      add\n        /* \"#utility.yul\":23035:23061   */\n      swap1\n      pop\n        /* \"#utility.yul\":23107:23116   */\n      dup2\n        /* \"#utility.yul\":23101:23105   */\n      dup2\n        /* \"#utility.yul\":23097:23117   */\n      sub\n        /* \"#utility.yul\":23093:23094   */\n      0x00\n        /* \"#utility.yul\":23082:23091   */\n      dup4\n        /* \"#utility.yul\":23078:23095   */\n      add\n        /* \"#utility.yul\":23071:23118   */\n      mstore\n        /* \"#utility.yul\":23135:23210   */\n      tag_550\n        /* \"#utility.yul\":23205:23209   */\n      dup2\n        /* \"#utility.yul\":23196:23202   */\n      dup5\n        /* \"#utility.yul\":23135:23210   */\n      tag_292\n      jump\t// in\n    tag_550:\n        /* \"#utility.yul\":23127:23210   */\n      swap1\n      pop\n        /* \"#utility.yul\":22910:23217   */\n      swap3\n      swap2\n      pop\n      pop\n      jump\t// out\n        /* \"#utility.yul\":23223:23388   */\n    tag_293:\n        /* \"#utility.yul\":23363:23380   */\n      0x4469726563742057697468647261770000000000000000000000000000000000\n        /* \"#utility.yul\":23359:23360   */\n      0x00\n        /* \"#utility.yul\":23351:23357   */\n      dup3\n        /* \"#utility.yul\":23347:23361   */\n      add\n        /* \"#utility.yul\":23340:23381   */\n      mstore\n        /* \"#utility.yul\":23223:23388   */\n      pop\n      jump\t// out\n        /* \"#utility.yul\":23394:23760   */\n    tag_294:\n        /* \"#utility.yul\":23536:23539   */\n      0x00\n        /* \"#utility.yul\":23557:23624   */\n      tag_553\n        /* \"#utility.yul\":23621:23623   */\n      0x0f\n        /* \"#utility.yul\":23616:23619   */\n      dup4\n        /* \"#utility.yul\":23557:23624   */\n      tag_238\n      jump\t// in\n    tag_553:\n        /* \"#utility.yul\":23550:23624   */\n      swap2\n      pop\n        /* \"#utility.yul\":23633:23726   */\n      tag_554\n        /* \"#utility.yul\":23722:23725   */\n      dup3\n        /* \"#utility.yul\":23633:23726   */\n      tag_293\n      jump\t// in\n    tag_554:\n        /* \"#utility.yul\":23751:23753   */\n      0x20\n        /* \"#utility.yul\":23746:23749   */\n      dup3\n        /* \"#utility.yul\":23742:23754   */\n      add\n        /* \"#utility.yul\":23735:23754   */\n      swap1\n      pop\n        /* \"#utility.yul\":23394:23760   */\n      swap2\n      swap1\n      pop\n      jump\t// out\n        /* \"#utility.yul\":23766:23901   */\n    tag_295:\n        /* \"#utility.yul\":23854:23860   */\n      0x00\n        /* \"#utility.yul\":23888:23893   */\n      dup2\n        /* \"#utility.yul\":23882:23894   */\n      mload\n        /* \"#utility.yul\":23872:23894   */\n      swap1\n      pop\n        /* \"#utility.yul\":23766:23901   */\n      swap2\n      swap1\n      pop\n      jump\t// out\n        /* \"#utility.yul\":23907:24112   */\n    tag_296:\n        /* \"#utility.yul\":24027:24038   */\n      0x00\n        /* \"#utility.yul\":24061:24067   */\n      dup3\n        /* \"#utility.yul\":24056:24059   */\n      dup3\n        /* \"#utility.yul\":24049:24068   */\n      mstore\n        /* \"#utility.yul\":24101:24105   */\n      0x20\n        /* \"#utility.yul\":24096:24099   */\n      dup3\n        /* \"#utility.yul\":24092:24106   */\n      add\n        /* \"#utility.yul\":24077:24106   */\n      swap1\n      pop\n        /* \"#utility.yul\":23907:24112   */\n      swap3\n      swap2\n      pop\n      pop\n      jump\t// out\n        /* \"#utility.yul\":24118:24271   */\n    tag_297:\n        /* \"#utility.yul\":24206:24210   */\n      0x00\n        /* \"#utility.yul\":24229:24232   */\n      dup2\n        /* \"#utility.yul\":24221:24232   */\n      swap1\n      pop\n        /* \"#utility.yul\":24259:24263   */\n      0x20\n        /* \"#utility.yul\":24254:24257   */\n      dup3\n        /* \"#utility.yul\":24250:24264   */\n      add\n        /* \"#utility.yul\":24242:24264   */\n      swap1\n      pop\n        /* \"#utility.yul\":24118:24271   */\n      swap2\n      swap1\n      pop\n      jump\t// out\n        /* \"#utility.yul\":24277:24436   */\n    tag_298:\n        /* \"#utility.yul\":24351:24362   */\n      0x00\n        /* \"#utility.yul\":24385:24391   */\n      dup3\n        /* \"#utility.yul\":24380:24383   */\n      dup3\n        /* \"#utility.yul\":24373:24392   */\n      mstore\n        /* \"#utility.yul\":24425:24429   */\n      0x20\n        /* \"#utility.yul\":24420:24423   */\n      dup3\n        /* \"#utility.yul\":24416:24430   */\n      add\n        /* \"#utility.yul\":24401:24430   */\n      swap1\n      pop\n        /* \"#utility.yul\":24277:24436   */\n      swap3\n      swap2\n      pop\n      pop\n      jump\t// out\n        /* \"#utility.yul\":24442:24799   */\n    tag_299:\n        /* \"#utility.yul\":24520:24523   */\n      0x00\n        /* \"#utility.yul\":24548:24587   */\n      tag_560\n        /* \"#utility.yul\":24581:24586   */\n      dup3\n        /* \"#utility.yul\":24548:24587   */\n      tag_237\n      jump\t// in\n    tag_560:\n        /* \"#utility.yul\":24603:24664   */\n      tag_561\n        /* \"#utility.yul\":24657:24663   */\n      dup2\n        /* \"#utility.yul\":24652:24655   */\n      dup6\n        /* \"#utility.yul\":24603:24664   */\n      tag_298\n      jump\t// in\n    tag_561:\n        /* \"#utility.yul\":24596:24664   */\n      swap4\n      pop\n        /* \"#utility.yul\":24673:24738   */\n      tag_562\n        /* \"#utility.yul\":24731:24737   */\n      dup2\n        /* \"#utility.yul\":24726:24729   */\n      dup6\n        /* \"#utility.yul\":24719:24723   */\n      0x20\n        /* \"#utility.yul\":24712:24717   */\n      dup7\n        /* \"#utility.yul\":24708:24724   */\n      add\n        /* \"#utility.yul\":24673:24738   */\n      tag_239\n      jump\t// in\n    tag_562:\n        /* \"#utility.yul\":24763:24792   */\n      tag_563\n        /* \"#utility.yul\":24785:24791   */\n      dup2\n        /* \"#utility.yul\":24763:24792   */\n      tag_240\n      jump\t// in\n    tag_563:\n        /* \"#utility.yul\":24758:24761   */\n      dup5\n        /* \"#utility.yul\":24754:24793   */\n      add\n        /* \"#utility.yul\":24747:24793   */\n      swap2\n      pop\n        /* \"#utility.yul\":24524:24799   */\n      pop\n        /* \"#utility.yul\":24442:24799   */\n      swap3\n      swap2\n      pop\n      pop\n      jump\t// out\n        /* \"#utility.yul\":24805:24903   */\n    tag_300:\n        /* \"#utility.yul\":24856:24862   */\n      0x00\n        /* \"#utility.yul\":24890:24895   */\n      dup2\n        /* \"#utility.yul\":24884:24896   */\n      mload\n        /* \"#utility.yul\":24874:24896   */\n      swap1\n      pop\n        /* \"#utility.yul\":24805:24903   */\n      swap2\n      swap1\n      pop\n      jump\t// out\n        /* \"#utility.yul\":24909:25067   */\n    tag_301:\n        /* \"#utility.yul\":24982:24993   */\n      0x00\n        /* \"#utility.yul\":25016:25022   */\n      dup3\n        /* \"#utility.yul\":25011:25014   */\n      dup3\n        /* \"#utility.yul\":25004:25023   */\n      mstore\n        /* \"#utility.yul\":25056:25060   */\n      0x20\n        /* \"#utility.yul\":25051:25054   */\n      dup3\n        /* \"#utility.yul\":25047:25061   */\n      add\n        /* \"#utility.yul\":25032:25061   */\n      swap1\n      pop\n        /* \"#utility.yul\":24909:25067   */\n      swap3\n      swap2\n      pop\n      pop\n      jump\t// out\n        /* \"#utility.yul\":25073:25426   */\n    tag_302:\n        /* \"#utility.yul\":25149:25152   */\n      0x00\n        /* \"#utility.yul\":25177:25215   */\n      tag_567\n        /* \"#utility.yul\":25209:25214   */\n      dup3\n        /* \"#utility.yul\":25177:25215   */\n      tag_300\n      jump\t// in\n    tag_567:\n        /* \"#utility.yul\":25231:25291   */\n      tag_568\n        /* \"#utility.yul\":25284:25290   */\n      dup2\n        /* \"#utility.yul\":25279:25282   */\n      dup6\n        /* \"#utility.yul\":25231:25291   */\n      tag_301\n      jump\t// in\n    tag_568:\n        /* \"#utility.yul\":25224:25291   */\n      swap4\n      pop\n        /* \"#utility.yul\":25300:25365   */\n      tag_569\n        /* \"#utility.yul\":25358:25364   */\n      dup2\n        /* \"#utility.yul\":25353:25356   */\n      dup6\n        /* \"#utility.yul\":25346:25350   */\n      0x20\n        /* \"#utility.yul\":25339:25344   */\n      dup7\n        /* \"#utility.yul\":25335:25351   */\n      add\n        /* \"#utility.yul\":25300:25365   */\n      tag_239\n      jump\t// in\n    tag_569:\n        /* \"#utility.yul\":25390:25419   */\n      tag_570\n        /* \"#utility.yul\":25412:25418   */\n      dup2\n        /* \"#utility.yul\":25390:25419   */\n      tag_240\n      jump\t// in\n    tag_570:\n        /* \"#utility.yul\":25385:25388   */\n      dup5\n        /* \"#utility.yul\":25381:25420   */\n      add\n        /* \"#utility.yul\":25374:25420   */\n      swap2\n      pop\n        /* \"#utility.yul\":25153:25426   */\n      pop\n        /* \"#utility.yul\":25073:25426   */\n      swap3\n      swap2\n      pop\n      pop\n      jump\t// out\n        /* \"#utility.yul\":25482:26389   */\n    tag_303:\n        /* \"#utility.yul\":25583:25586   */\n      0x00\n        /* \"#utility.yul\":25619:25623   */\n      0x60\n        /* \"#utility.yul\":25614:25617   */\n      dup4\n        /* \"#utility.yul\":25610:25624   */\n      add\n        /* \"#utility.yul\":25706:25710   */\n      0x00\n        /* \"#utility.yul\":25699:25704   */\n      dup4\n        /* \"#utility.yul\":25695:25711   */\n      add\n        /* \"#utility.yul\":25689:25712   */\n      mload\n        /* \"#utility.yul\":25759:25762   */\n      dup5\n        /* \"#utility.yul\":25753:25757   */\n      dup3\n        /* \"#utility.yul\":25749:25763   */\n      sub\n        /* \"#utility.yul\":25742:25746   */\n      0x00\n        /* \"#utility.yul\":25737:25740   */\n      dup7\n        /* \"#utility.yul\":25733:25747   */\n      add\n        /* \"#utility.yul\":25726:25764   */\n      mstore\n        /* \"#utility.yul\":25785:25858   */\n      tag_572\n        /* \"#utility.yul\":25853:25857   */\n      dup3\n        /* \"#utility.yul\":25839:25851   */\n      dup3\n        /* \"#utility.yul\":25785:25858   */\n      tag_299\n      jump\t// in\n    tag_572:\n        /* \"#utility.yul\":25777:25858   */\n      swap2\n      pop\n        /* \"#utility.yul\":25634:25869   */\n      pop\n        /* \"#utility.yul\":25955:25959   */\n      0x20\n        /* \"#utility.yul\":25948:25953   */\n      dup4\n        /* \"#utility.yul\":25944:25960   */\n      add\n        /* \"#utility.yul\":25938:25961   */\n      mload\n        /* \"#utility.yul\":26008:26011   */\n      dup5\n        /* \"#utility.yul\":26002:26006   */\n      dup3\n        /* \"#utility.yul\":25998:26012   */\n      sub\n        /* \"#utility.yul\":25991:25995   */\n      0x20\n        /* \"#utility.yul\":25986:25989   */\n      dup7\n        /* \"#utility.yul\":25982:25996   */\n      add\n        /* \"#utility.yul\":25975:26013   */\n      mstore\n        /* \"#utility.yul\":26034:26107   */\n      tag_573\n        /* \"#utility.yul\":26102:26106   */\n      dup3\n        /* \"#utility.yul\":26088:26100   */\n      dup3\n        /* \"#utility.yul\":26034:26107   */\n      tag_299\n      jump\t// in\n    tag_573:\n        /* \"#utility.yul\":26026:26107   */\n      swap2\n      pop\n        /* \"#utility.yul\":25879:26118   */\n      pop\n        /* \"#utility.yul\":26201:26205   */\n      0x40\n        /* \"#utility.yul\":26194:26199   */\n      dup4\n        /* \"#utility.yul\":26190:26206   */\n      add\n        /* \"#utility.yul\":26184:26207   */\n      mload\n        /* \"#utility.yul\":26254:26257   */\n      dup5\n        /* \"#utility.yul\":26248:26252   */\n      dup3\n        /* \"#utility.yul\":26244:26258   */\n      sub\n        /* \"#utility.yul\":26237:26241   */\n      0x40\n        /* \"#utility.yul\":26232:26235   */\n      dup7\n        /* \"#utility.yul\":26228:26242   */\n      add\n        /* \"#utility.yul\":26221:26259   */\n      mstore\n        /* \"#utility.yul\":26280:26351   */\n      tag_574\n        /* \"#utility.yul\":26346:26350   */\n      dup3\n        /* \"#utility.yul\":26332:26344   */\n      dup3\n        /* \"#utility.yul\":26280:26351   */\n      tag_302\n      jump\t// in\n    tag_574:\n        /* \"#utility.yul\":26272:26351   */\n      swap2\n      pop\n        /* \"#utility.yul\":26128:26362   */\n      pop\n        /* \"#utility.yul\":26379:26383   */\n      dup1\n        /* \"#utility.yul\":26372:26383   */\n      swap2\n      pop\n        /* \"#utility.yul\":25588:26389   */\n      pop\n        /* \"#utility.yul\":25482:26389   */\n      swap3\n      swap2\n      pop\n      pop\n      jump\t// out\n        /* \"#utility.yul\":26395:26635   */\n    tag_304:\n        /* \"#utility.yul\":26506:26516   */\n      0x00\n        /* \"#utility.yul\":26541:26629   */\n      tag_576\n        /* \"#utility.yul\":26625:26628   */\n      dup4\n        /* \"#utility.yul\":26617:26623   */\n      dup4\n        /* \"#utility.yul\":26541:26629   */\n      tag_303\n      jump\t// in\n    tag_576:\n        /* \"#utility.yul\":26527:26629   */\n      swap1\n      pop\n        /* \"#utility.yul\":26395:26635   */\n      swap3\n      swap2\n      pop\n      pop\n      jump\t// out\n        /* \"#utility.yul\":26641:26775   */\n    tag_305:\n        /* \"#utility.yul\":26732:26736   */\n      0x00\n        /* \"#utility.yul\":26764:26768   */\n      0x20\n        /* \"#utility.yul\":26759:26762   */\n      dup3\n        /* \"#utility.yul\":26755:26769   */\n      add\n        /* \"#utility.yul\":26747:26769   */\n      swap1\n      pop\n        /* \"#utility.yul\":26641:26775   */\n      swap2\n      swap1\n      pop\n      jump\t// out\n        /* \"#utility.yul\":26835:27914   */\n    tag_306:\n        /* \"#utility.yul\":26996:26999   */\n      0x00\n        /* \"#utility.yul\":27025:27100   */\n      tag_579\n        /* \"#utility.yul\":27094:27099   */\n      dup3\n        /* \"#utility.yul\":27025:27100   */\n      tag_295\n      jump\t// in\n    tag_579:\n        /* \"#utility.yul\":27116:27223   */\n      tag_580\n        /* \"#utility.yul\":27216:27222   */\n      dup2\n        /* \"#utility.yul\":27211:27214   */\n      dup6\n        /* \"#utility.yul\":27116:27223   */\n      tag_296\n      jump\t// in\n    tag_580:\n        /* \"#utility.yul\":27109:27223   */\n      swap4\n      pop\n        /* \"#utility.yul\":27249:27252   */\n      dup4\n        /* \"#utility.yul\":27294:27298   */\n      0x20\n        /* \"#utility.yul\":27286:27292   */\n      dup3\n        /* \"#utility.yul\":27282:27299   */\n      mul\n        /* \"#utility.yul\":27277:27280   */\n      dup6\n        /* \"#utility.yul\":27273:27300   */\n      add\n        /* \"#utility.yul\":27324:27401   */\n      tag_581\n        /* \"#utility.yul\":27395:27400   */\n      dup6\n        /* \"#utility.yul\":27324:27401   */\n      tag_297\n      jump\t// in\n    tag_581:\n        /* \"#utility.yul\":27424:27431   */\n      dup1\n        /* \"#utility.yul\":27455:27456   */\n      0x00\n        /* \"#utility.yul\":27440:27869   */\n    tag_582:\n        /* \"#utility.yul\":27465:27471   */\n      dup6\n        /* \"#utility.yul\":27462:27463   */\n      dup2\n        /* \"#utility.yul\":27459:27472   */\n      lt\n        /* \"#utility.yul\":27440:27869   */\n      iszero\n      tag_584\n      jumpi\n        /* \"#utility.yul\":27536:27545   */\n      dup5\n        /* \"#utility.yul\":27530:27534   */\n      dup5\n        /* \"#utility.yul\":27526:27546   */\n      sub\n        /* \"#utility.yul\":27521:27524   */\n      dup10\n        /* \"#utility.yul\":27514:27547   */\n      mstore\n        /* \"#utility.yul\":27587:27593   */\n      dup2\n        /* \"#utility.yul\":27581:27594   */\n      mload\n        /* \"#utility.yul\":27615:27721   */\n      tag_585\n        /* \"#utility.yul\":27716:27720   */\n      dup6\n        /* \"#utility.yul\":27701:27714   */\n      dup3\n        /* \"#utility.yul\":27615:27721   */\n      tag_304\n      jump\t// in\n    tag_585:\n        /* \"#utility.yul\":27607:27721   */\n      swap5\n      pop\n        /* \"#utility.yul\":27744:27825   */\n      tag_586\n        /* \"#utility.yul\":27818:27824   */\n      dup4\n        /* \"#utility.yul\":27744:27825   */\n      tag_305\n      jump\t// in\n    tag_586:\n        /* \"#utility.yul\":27734:27825   */\n      swap3\n      pop\n        /* \"#utility.yul\":27854:27858   */\n      0x20\n        /* \"#utility.yul\":27849:27852   */\n      dup11\n        /* \"#utility.yul\":27845:27859   */\n      add\n        /* \"#utility.yul\":27838:27859   */\n      swap10\n      pop\n        /* \"#utility.yul\":27500:27869   */\n      pop\n        /* \"#utility.yul\":27487:27488   */\n      0x01\n        /* \"#utility.yul\":27484:27485   */\n      dup2\n        /* \"#utility.yul\":27480:27489   */\n      add\n        /* \"#utility.yul\":27475:27489   */\n      swap1\n      pop\n        /* \"#utility.yul\":27440:27869   */\n      jump(tag_582)\n    tag_584:\n        /* \"#utility.yul\":27444:27458   */\n      pop\n        /* \"#utility.yul\":27885:27889   */\n      dup3\n        /* \"#utility.yul\":27878:27889   */\n      swap8\n      pop\n        /* \"#utility.yul\":27905:27908   */\n      dup8\n        /* \"#utility.yul\":27898:27908   */\n      swap6\n      pop\n        /* \"#utility.yul\":27001:27914   */\n      pop\n      pop\n      pop\n      pop\n      pop\n        /* \"#utility.yul\":26835:27914   */\n      swap3\n      swap2\n      pop\n      pop\n      jump\t// out\n        /* \"#utility.yul\":27920:28684   */\n    tag_127:\n        /* \"#utility.yul\":28206:28210   */\n      0x00\n        /* \"#utility.yul\":28244:28246   */\n      0x40\n        /* \"#utility.yul\":28233:28242   */\n      dup3\n        /* \"#utility.yul\":28229:28247   */\n      add\n        /* \"#utility.yul\":28221:28247   */\n      swap1\n      pop\n        /* \"#utility.yul\":28293:28302   */\n      dup2\n        /* \"#utility.yul\":28287:28291   */\n      dup2\n        /* \"#utility.yul\":28283:28303   */\n      sub\n        /* \"#utility.yul\":28279:28280   */\n      0x00\n        /* \"#utility.yul\":28268:28277   */\n      dup4\n        /* \"#utility.yul\":28264:28281   */\n      add\n        /* \"#utility.yul\":28257:28304   */\n      mstore\n        /* \"#utility.yul\":28321:28452   */\n      tag_588\n        /* \"#utility.yul\":28447:28451   */\n      dup2\n        /* \"#utility.yul\":28321:28452   */\n      tag_294\n      jump\t// in\n    tag_588:\n        /* \"#utility.yul\":28313:28452   */\n      swap1\n      pop\n        /* \"#utility.yul\":28499:28508   */\n      dup2\n        /* \"#utility.yul\":28493:28497   */\n      dup2\n        /* \"#utility.yul\":28489:28509   */\n      sub\n        /* \"#utility.yul\":28484:28486   */\n      0x20\n        /* \"#utility.yul\":28473:28482   */\n      dup4\n        /* \"#utility.yul\":28469:28487   */\n      add\n        /* \"#utility.yul\":28462:28510   */\n      mstore\n        /* \"#utility.yul\":28527:28677   */\n      tag_589\n        /* \"#utility.yul\":28672:28676   */\n      dup2\n        /* \"#utility.yul\":28663:28669   */\n      dup5\n        /* \"#utility.yul\":28527:28677   */\n      tag_306\n      jump\t// in\n    tag_589:\n        /* \"#utility.yul\":28519:28677   */\n      swap1\n      pop\n        /* \"#utility.yul\":27920:28684   */\n      swap3\n      swap2\n      pop\n      pop\n      jump\t// out\n        /* \"#utility.yul\":28690:29107   */\n    tag_132:\n        /* \"#utility.yul\":28828:28832   */\n      0x00\n        /* \"#utility.yul\":28866:28868   */\n      0x40\n        /* \"#utility.yul\":28855:28864   */\n      dup3\n        /* \"#utility.yul\":28851:28869   */\n      add\n        /* \"#utility.yul\":28843:28869   */\n      swap1\n      pop\n        /* \"#utility.yul\":28879:28950   */\n      tag_591\n        /* \"#utility.yul\":28947:28948   */\n      0x00\n        /* \"#utility.yul\":28936:28945   */\n      dup4\n        /* \"#utility.yul\":28932:28949   */\n      add\n        /* \"#utility.yul\":28923:28929   */\n      dup6\n        /* \"#utility.yul\":28879:28950   */\n      tag_290\n      jump\t// in\n    tag_591:\n        /* \"#utility.yul\":28997:29006   */\n      dup2\n        /* \"#utility.yul\":28991:28995   */\n      dup2\n        /* \"#utility.yul\":28987:29007   */\n      sub\n        /* \"#utility.yul\":28982:28984   */\n      0x20\n        /* \"#utility.yul\":28971:28980   */\n      dup4\n        /* \"#utility.yul\":28967:28985   */\n      add\n        /* \"#utility.yul\":28960:29008   */\n      mstore\n        /* \"#utility.yul\":29025:29100   */\n      tag_592\n        /* \"#utility.yul\":29095:29099   */\n      dup2\n        /* \"#utility.yul\":29086:29092   */\n      dup5\n        /* \"#utility.yul\":29025:29100   */\n      tag_292\n      jump\t// in\n    tag_592:\n        /* \"#utility.yul\":29017:29100   */\n      swap1\n      pop\n        /* \"#utility.yul\":28690:29107   */\n      swap4\n      swap3\n      pop\n      pop\n      pop\n      jump\t// out\n        /* \"#utility.yul\":29113:29289   */\n    tag_307:\n        /* \"#utility.yul\":29253:29281   */\n      0x5661756c743a204465706f736974206d757374206265203e2030000000000000\n        /* \"#utility.yul\":29249:29250   */\n      0x00\n        /* \"#utility.yul\":29241:29247   */\n      dup3\n        /* \"#utility.yul\":29237:29251   */\n      add\n        /* \"#utility.yul\":29230:29282   */\n      mstore\n        /* \"#utility.yul\":29113:29289   */\n      pop\n      jump\t// out\n        /* \"#utility.yul\":29295:29661   */\n    tag_308:\n        /* \"#utility.yul\":29437:29440   */\n      0x00\n        /* \"#utility.yul\":29458:29525   */\n      tag_595\n        /* \"#utility.yul\":29522:29524   */\n      0x1a\n        /* \"#utility.yul\":29517:29520   */\n      dup4\n        /* \"#utility.yul\":29458:29525   */\n      tag_238\n      jump\t// in\n    tag_595:\n        /* \"#utility.yul\":29451:29525   */\n      swap2\n      pop\n        /* \"#utility.yul\":29534:29627   */\n      tag_596\n        /* \"#utility.yul\":29623:29626   */\n      dup3\n        /* \"#utility.yul\":29534:29627   */\n      tag_307\n      jump\t// in\n    tag_596:\n        /* \"#utility.yul\":29652:29654   */\n      0x20\n        /* \"#utility.yul\":29647:29650   */\n      dup3\n        /* \"#utility.yul\":29643:29655   */\n      add\n        /* \"#utility.yul\":29636:29655   */\n      swap1\n      pop\n        /* \"#utility.yul\":29295:29661   */\n      swap2\n      swap1\n      pop\n      jump\t// out\n        /* \"#utility.yul\":29667:30086   */\n    tag_140:\n        /* \"#utility.yul\":29833:29837   */\n      0x00\n        /* \"#utility.yul\":29871:29873   */\n      0x20\n        /* \"#utility.yul\":29860:29869   */\n      dup3\n        /* \"#utility.yul\":29856:29874   */\n      add\n        /* \"#utility.yul\":29848:29874   */\n      swap1\n      pop\n        /* \"#utility.yul\":29920:29929   */\n      dup2\n        /* \"#utility.yul\":29914:29918   */\n      dup2\n        /* \"#utility.yul\":29910:29930   */\n      sub\n        /* \"#utility.yul\":29906:29907   */\n      0x00\n        /* \"#utility.yul\":29895:29904   */\n      dup4\n        /* \"#utility.yul\":29891:29908   */\n      add\n        /* \"#utility.yul\":29884:29931   */\n      mstore\n        /* \"#utility.yul\":29948:30079   */\n      tag_598\n        /* \"#utility.yul\":30074:30078   */\n      dup2\n        /* \"#utility.yul\":29948:30079   */\n      tag_308\n      jump\t// in\n    tag_598:\n        /* \"#utility.yul\":29940:30079   */\n      swap1\n      pop\n        /* \"#utility.yul\":29667:30086   */\n      swap2\n      swap1\n      pop\n      jump\t// out\n        /* \"#utility.yul\":30092:30249   */\n    tag_309:\n        /* \"#utility.yul\":30232:30241   */\n      0x4465706f73697400000000000000000000000000000000000000000000000000\n        /* \"#utility.yul\":30228:30229   */\n      0x00\n        /* \"#utility.yul\":30220:30226   */\n      dup3\n        /* \"#utility.yul\":30216:30230   */\n      add\n        /* \"#utility.yul\":30209:30242   */\n      mstore\n        /* \"#utility.yul\":30092:30249   */\n      pop\n      jump\t// out\n        /* \"#utility.yul\":30255:30620   */\n    tag_310:\n        /* \"#utility.yul\":30397:30400   */\n      0x00\n        /* \"#utility.yul\":30418:30484   */\n      tag_601\n        /* \"#utility.yul\":30482:30483   */\n      0x07\n        /* \"#utility.yul\":30477:30480   */\n      dup4\n        /* \"#utility.yul\":30418:30484   */\n      tag_238\n      jump\t// in\n    tag_601:\n        /* \"#utility.yul\":30411:30484   */\n      swap2\n      pop\n        /* \"#utility.yul\":30493:30586   */\n      tag_602\n        /* \"#utility.yul\":30582:30585   */\n      dup3\n        /* \"#utility.yul\":30493:30586   */\n      tag_309\n      jump\t// in\n    tag_602:\n        /* \"#utility.yul\":30611:30613   */\n      0x20\n        /* \"#utility.yul\":30606:30609   */\n      dup3\n        /* \"#utility.yul\":30602:30614   */\n      add\n        /* \"#utility.yul\":30595:30614   */\n      swap1\n      pop\n        /* \"#utility.yul\":30255:30620   */\n      swap2\n      swap1\n      pop\n      jump\t// out\n        /* \"#utility.yul\":30626:31390   */\n    tag_164:\n        /* \"#utility.yul\":30912:30916   */\n      0x00\n        /* \"#utility.yul\":30950:30952   */\n      0x40\n        /* \"#utility.yul\":30939:30948   */\n      dup3\n        /* \"#utility.yul\":30935:30953   */\n      add\n        /* \"#utility.yul\":30927:30953   */\n      swap1\n      pop\n        /* \"#utility.yul\":30999:31008   */\n      dup2\n        /* \"#utility.yul\":30993:30997   */\n      dup2\n        /* \"#utility.yul\":30989:31009   */\n      sub\n        /* \"#utility.yul\":30985:30986   */\n      0x00\n        /* \"#utility.yul\":30974:30983   */\n      dup4\n        /* \"#utility.yul\":30970:30987   */\n      add\n        /* \"#utility.yul\":30963:31010   */\n      mstore\n        /* \"#utility.yul\":31027:31158   */\n      tag_604\n        /* \"#utility.yul\":31153:31157   */\n      dup2\n        /* \"#utility.yul\":31027:31158   */\n      tag_310\n      jump\t// in\n    tag_604:\n        /* \"#utility.yul\":31019:31158   */\n      swap1\n      pop\n        /* \"#utility.yul\":31205:31214   */\n      dup2\n        /* \"#utility.yul\":31199:31203   */\n      dup2\n        /* \"#utility.yul\":31195:31215   */\n      sub\n        /* \"#utility.yul\":31190:31192   */\n      0x20\n        /* \"#utility.yul\":31179:31188   */\n      dup4\n        /* \"#utility.yul\":31175:31193   */\n      add\n        /* \"#utility.yul\":31168:31216   */\n      mstore\n        /* \"#utility.yul\":31233:31383   */\n      tag_605\n        /* \"#utility.yul\":31378:31382   */\n      dup2\n        /* \"#utility.yul\":31369:31375   */\n      dup5\n        /* \"#utility.yul\":31233:31383   */\n      tag_306\n      jump\t// in\n    tag_605:\n        /* \"#utility.yul\":31225:31383   */\n      swap1\n      pop\n        /* \"#utility.yul\":30626:31390   */\n      swap3\n      swap2\n      pop\n      pop\n      jump\t// out\n        /* \"#utility.yul\":31396:31564   */\n    tag_311:\n        /* \"#utility.yul\":31479:31490   */\n      0x00\n        /* \"#utility.yul\":31513:31519   */\n      dup3\n        /* \"#utility.yul\":31508:31511   */\n      dup3\n        /* \"#utility.yul\":31501:31520   */\n      mstore\n        /* \"#utility.yul\":31553:31557   */\n      0x20\n        /* \"#utility.yul\":31548:31551   */\n      dup3\n        /* \"#utility.yul\":31544:31558   */\n      add\n        /* \"#utility.yul\":31529:31558   */\n      swap1\n      pop\n        /* \"#utility.yul\":31396:31564   */\n      swap3\n      swap2\n      pop\n      pop\n      jump\t// out\n        /* \"#utility.yul\":31592:31906   */\n    tag_312:\n        /* \"#utility.yul\":31688:31691   */\n      0x00\n        /* \"#utility.yul\":31709:31779   */\n      tag_608\n        /* \"#utility.yul\":31772:31778   */\n      dup4\n        /* \"#utility.yul\":31767:31770   */\n      dup6\n        /* \"#utility.yul\":31709:31779   */\n      tag_311\n      jump\t// in\n    tag_608:\n        /* \"#utility.yul\":31702:31779   */\n      swap4\n      pop\n        /* \"#utility.yul\":31789:31845   */\n      tag_609\n        /* \"#utility.yul\":31838:31844   */\n      dup4\n        /* \"#utility.yul\":31833:31836   */\n      dup6\n        /* \"#utility.yul\":31826:31831   */\n      dup5\n        /* \"#utility.yul\":31789:31845   */\n      tag_250\n      jump\t// in\n    tag_609:\n        /* \"#utility.yul\":31870:31899   */\n      tag_610\n        /* \"#utility.yul\":31892:31898   */\n      dup4\n        /* \"#utility.yul\":31870:31899   */\n      tag_240\n      jump\t// in\n    tag_610:\n        /* \"#utility.yul\":31865:31868   */\n      dup5\n        /* \"#utility.yul\":31861:31900   */\n      add\n        /* \"#utility.yul\":31854:31900   */\n      swap1\n      pop\n        /* \"#utility.yul\":31592:31906   */\n      swap4\n      swap3\n      pop\n      pop\n      pop\n      jump\t// out\n        /* \"#utility.yul\":31912:32241   */\n    tag_179:\n        /* \"#utility.yul\":32033:32037   */\n      0x00\n        /* \"#utility.yul\":32071:32073   */\n      0x20\n        /* \"#utility.yul\":32060:32069   */\n      dup3\n        /* \"#utility.yul\":32056:32074   */\n      add\n        /* \"#utility.yul\":32048:32074   */\n      swap1\n      pop\n        /* \"#utility.yul\":32120:32129   */\n      dup2\n        /* \"#utility.yul\":32114:32118   */\n      dup2\n        /* \"#utility.yul\":32110:32130   */\n      sub\n        /* \"#utility.yul\":32106:32107   */\n      0x00\n        /* \"#utility.yul\":32095:32104   */\n      dup4\n        /* \"#utility.yul\":32091:32108   */\n      add\n        /* \"#utility.yul\":32084:32131   */\n      mstore\n        /* \"#utility.yul\":32148:32234   */\n      tag_612\n        /* \"#utility.yul\":32229:32233   */\n      dup2\n        /* \"#utility.yul\":32220:32226   */\n      dup5\n        /* \"#utility.yul\":32212:32218   */\n      dup7\n        /* \"#utility.yul\":32148:32234   */\n      tag_312\n      jump\t// in\n    tag_612:\n        /* \"#utility.yul\":32140:32234   */\n      swap1\n      pop\n        /* \"#utility.yul\":31912:32241   */\n      swap4\n      swap3\n      pop\n      pop\n      pop\n      jump\t// out\n        /* \"#utility.yul\":32247:32401   */\n    tag_313:\n        /* \"#utility.yul\":32387:32393   */\n      0x6261736500000000000000000000000000000000000000000000000000000000\n        /* \"#utility.yul\":32383:32384   */\n      0x00\n        /* \"#utility.yul\":32375:32381   */\n      dup3\n        /* \"#utility.yul\":32371:32385   */\n      add\n        /* \"#utility.yul\":32364:32394   */\n      mstore\n        /* \"#utility.yul\":32247:32401   */\n      pop\n      jump\t// out\n        /* \"#utility.yul\":32407:32772   */\n    tag_314:\n        /* \"#utility.yul\":32549:32552   */\n      0x00\n        /* \"#utility.yul\":32570:32636   */\n      tag_615\n        /* \"#utility.yul\":32634:32635   */\n      0x04\n        /* \"#utility.yul\":32629:32632   */\n      dup4\n        /* \"#utility.yul\":32570:32636   */\n      tag_238\n      jump\t// in\n    tag_615:\n        /* \"#utility.yul\":32563:32636   */\n      swap2\n      pop\n        /* \"#utility.yul\":32645:32738   */\n      tag_616\n        /* \"#utility.yul\":32734:32737   */\n      dup3\n        /* \"#utility.yul\":32645:32738   */\n      tag_313\n      jump\t// in\n    tag_616:\n        /* \"#utility.yul\":32763:32765   */\n      0x20\n        /* \"#utility.yul\":32758:32761   */\n      dup3\n        /* \"#utility.yul\":32754:32766   */\n      add\n        /* \"#utility.yul\":32747:32766   */\n      swap1\n      pop\n        /* \"#utility.yul\":32407:32772   */\n      swap2\n      swap1\n      pop\n      jump\t// out\n        /* \"#utility.yul\":32778:33197   */\n    tag_189:\n        /* \"#utility.yul\":32944:32948   */\n      0x00\n        /* \"#utility.yul\":32982:32984   */\n      0x20\n        /* \"#utility.yul\":32971:32980   */\n      dup3\n        /* \"#utility.yul\":32967:32985   */\n      add\n        /* \"#utility.yul\":32959:32985   */\n      swap1\n      pop\n        /* \"#utility.yul\":33031:33040   */\n      dup2\n        /* \"#utility.yul\":33025:33029   */\n      dup2\n        /* \"#utility.yul\":33021:33041   */\n      sub\n        /* \"#utility.yul\":33017:33018   */\n      0x00\n        /* \"#utility.yul\":33006:33015   */\n      dup4\n        /* \"#utility.yul\":33002:33019   */\n      add\n        /* \"#utility.yul\":32995:33042   */\n      mstore\n        /* \"#utility.yul\":33059:33190   */\n      tag_618\n        /* \"#utility.yul\":33185:33189   */\n      dup2\n        /* \"#utility.yul\":33059:33190   */\n      tag_314\n      jump\t// in\n    tag_618:\n        /* \"#utility.yul\":33051:33190   */\n      swap1\n      pop\n        /* \"#utility.yul\":32778:33197   */\n      swap2\n      swap1\n      pop\n      jump\t// out\n        /* \"#utility.yul\":33203:33369   */\n    tag_315:\n        /* \"#utility.yul\":33343:33361   */\n      0x4d6f64756c617220576974686472617700000000000000000000000000000000\n        /* \"#utility.yul\":33339:33340   */\n      0x00\n        /* \"#utility.yul\":33331:33337   */\n      dup3\n        /* \"#utility.yul\":33327:33341   */\n      add\n        /* \"#utility.yul\":33320:33362   */\n      mstore\n        /* \"#utility.yul\":33203:33369   */\n      pop\n      jump\t// out\n        /* \"#utility.yul\":33375:33741   */\n    tag_316:\n        /* \"#utility.yul\":33517:33520   */\n      0x00\n        /* \"#utility.yul\":33538:33605   */\n      tag_621\n        /* \"#utility.yul\":33602:33604   */\n      0x10\n        /* \"#utility.yul\":33597:33600   */\n      dup4\n        /* \"#utility.yul\":33538:33605   */\n      tag_238\n      jump\t// in\n    tag_621:\n        /* \"#utility.yul\":33531:33605   */\n      swap2\n      pop\n        /* \"#utility.yul\":33614:33707   */\n      tag_622\n        /* \"#utility.yul\":33703:33706   */\n      dup3\n        /* \"#utility.yul\":33614:33707   */\n      tag_315\n      jump\t// in\n    tag_622:\n        /* \"#utility.yul\":33732:33734   */\n      0x20\n        /* \"#utility.yul\":33727:33730   */\n      dup3\n        /* \"#utility.yul\":33723:33735   */\n      add\n        /* \"#utility.yul\":33716:33735   */\n      swap1\n      pop\n        /* \"#utility.yul\":33375:33741   */\n      swap2\n      swap1\n      pop\n      jump\t// out\n        /* \"#utility.yul\":33747:34511   */\n    tag_199:\n        /* \"#utility.yul\":34033:34037   */\n      0x00\n        /* \"#utility.yul\":34071:34073   */\n      0x40\n        /* \"#utility.yul\":34060:34069   */\n      dup3\n        /* \"#utility.yul\":34056:34074   */\n      add\n        /* \"#utility.yul\":34048:34074   */\n      swap1\n      pop\n        /* \"#utility.yul\":34120:34129   */\n      dup2\n        /* \"#utility.yul\":34114:34118   */\n      dup2\n        /* \"#utility.yul\":34110:34130   */\n      sub\n        /* \"#utility.yul\":34106:34107   */\n      0x00\n        /* \"#utility.yul\":34095:34104   */\n      dup4\n        /* \"#utility.yul\":34091:34108   */\n      add\n        /* \"#utility.yul\":34084:34131   */\n      mstore\n        /* \"#utility.yul\":34148:34279   */\n      tag_624\n        /* \"#utility.yul\":34274:34278   */\n      dup2\n        /* \"#utility.yul\":34148:34279   */\n      tag_316\n      jump\t// in\n    tag_624:\n        /* \"#utility.yul\":34140:34279   */\n      swap1\n      pop\n        /* \"#utility.yul\":34326:34335   */\n      dup2\n        /* \"#utility.yul\":34320:34324   */\n      dup2\n        /* \"#utility.yul\":34316:34336   */\n      sub\n        /* \"#utility.yul\":34311:34313   */\n      0x20\n        /* \"#utility.yul\":34300:34309   */\n      dup4\n        /* \"#utility.yul\":34296:34314   */\n      add\n        /* \"#utility.yul\":34289:34337   */\n      mstore\n        /* \"#utility.yul\":34354:34504   */\n      tag_625\n        /* \"#utility.yul\":34499:34503   */\n      dup2\n        /* \"#utility.yul\":34490:34496   */\n      dup5\n        /* \"#utility.yul\":34354:34504   */\n      tag_306\n      jump\t// in\n    tag_625:\n        /* \"#utility.yul\":34346:34504   */\n      swap1\n      pop\n        /* \"#utility.yul\":33747:34511   */\n      swap3\n      swap2\n      pop\n      pop\n      jump\t// out\n\n    auxdata: 0xa2646970667358221220de7b27509bfe987014fc65198ae59ae219b85218df3d0dab00c70168119551fc64736f6c634300081f0033\n}\n",
				"bytecode": {
					"linkReferences": {},
					"object": "60c060405234801561000f575f5ffd5b506040516134473803806134478339818101604052810190610031919061039b565b815f73ffffffffffffffffffffffffffffffffffffffff168173ffffffffffffffffffffffffffffffffffffffff16036100a2575f6040517f1e4fbdf7000000000000000000000000000000000000000000000000000000008152600401610099919061042a565b60405180910390fd5b6100b18161013360201b60201c565b508373ffffffffffffffffffffffffffffffffffffffff1660a08173ffffffffffffffffffffffffffffffffffffffff16815250508273ffffffffffffffffffffffffffffffffffffffff1660808173ffffffffffffffffffffffffffffffffffffffff168152505080600190816101299190610653565b5050505050610722565b5f5f5f9054906101000a900473ffffffffffffffffffffffffffffffffffffffff169050815f5f6101000a81548173ffffffffffffffffffffffffffffffffffffffff021916908373ffffffffffffffffffffffffffffffffffffffff1602179055508173ffffffffffffffffffffffffffffffffffffffff168173ffffffffffffffffffffffffffffffffffffffff167f8be0079c531659141344cd1fd0a4f28419497f9722a3daafe3b4186f6b6457e060405160405180910390a35050565b5f604051905090565b5f5ffd5b5f5ffd5b5f73ffffffffffffffffffffffffffffffffffffffff82169050919050565b5f61022e82610205565b9050919050565b61023e81610224565b8114610248575f5ffd5b50565b5f8151905061025981610235565b92915050565b5f5ffd5b5f5ffd5b5f601f19601f8301169050919050565b7f4e487b71000000000000000000000000000000000000000000000000000000005f52604160045260245ffd5b6102ad82610267565b810181811067ffffffffffffffff821117156102cc576102cb610277565b5b80604052505050565b5f6102de6101f4565b90506102ea82826102a4565b919050565b5f67ffffffffffffffff82111561030957610308610277565b5b61031282610267565b9050602081019050919050565b8281835e5f83830152505050565b5f61033f61033a846102ef565b6102d5565b90508281526020810184848401111561035b5761035a610263565b5b61036684828561031f565b509392505050565b5f82601f8301126103825761038161025f565b5b815161039284826020860161032d565b91505092915050565b5f5f5f5f608085870312156103b3576103b26101fd565b5b5f6103c08782880161024b565b94505060206103d18782880161024b565b93505060406103e28782880161024b565b925050606085015167ffffffffffffffff81111561040357610402610201565b5b61040f8782880161036e565b91505092959194509250565b61042481610224565b82525050565b5f60208201905061043d5f83018461041b565b92915050565b5f81519050919050565b7f4e487b71000000000000000000000000000000000000000000000000000000005f52602260045260245ffd5b5f600282049050600182168061049157607f821691505b6020821081036104a4576104a361044d565b5b50919050565b5f819050815f5260205f209050919050565b5f6020601f8301049050919050565b5f82821b905092915050565b5f600883026105067fffffffffffffffffffffffffffffffffffffffffffffffffffffffffffffffff826104cb565b61051086836104cb565b95508019841693508086168417925050509392505050565b5f819050919050565b5f819050919050565b5f61055461054f61054a84610528565b610531565b610528565b9050919050565b5f819050919050565b61056d8361053a565b6105816105798261055b565b8484546104d7565b825550505050565b5f5f905090565b610598610589565b6105a3818484610564565b505050565b5b818110156105c6576105bb5f82610590565b6001810190506105a9565b5050565b601f82111561060b576105dc816104aa565b6105e5846104bc565b810160208510156105f4578190505b610608610600856104bc565b8301826105a8565b50505b505050565b5f82821c905092915050565b5f61062b5f1984600802610610565b1980831691505092915050565b5f610643838361061c565b9150826002028217905092915050565b61065c82610443565b67ffffffffffffffff81111561067557610674610277565b5b61067f825461047a565b61068a8282856105ca565b5f60209050601f8311600181146106bb575f84156106a9578287015190505b6106b38582610638565b86555061071a565b601f1984166106c9866104aa565b5f5b828110156106f0578489015182556001820191506020850194506020810190506106cb565b8683101561070d5784890151610709601f89168261061c565b8355505b6001600288020188555050505b505050505050565b60805160a051612ce861075f5f395f81816109f50152818161108301528181611178015261178601525f81816102d9015261119c0152612ce85ff3fe608060405234801561000f575f5ffd5b50600436106100b1575f3560e01c80638e27d7191161006f5780638e27d71914610177578063b5f8558c14610193578063bf4d766e146101b1578063d23ce9e5146101cf578063f139721c146101eb578063f2fde38b14610207576100b1565b8062dad7d4146100b557806305d09fb1146100d3578063240028e814610103578063715018a6146101335780637a9eceb41461013d5780638da5cb5b14610159575b5f5ffd5b6100bd610223565b6040516100ca9190611cec565b60405180910390f35b6100ed60048036038101906100e89190611e49565b6102af565b6040516100fa9190611ecf565b60405180910390f35b61011d60048036038101906101189190611f12565b6103cc565b60405161012a9190611f57565b60405180910390f35b61013b6103e9565b005b61015760048036038101906101529190612000565b6103fc565b005b610161610aea565b60405161016e9190611ecf565b60405180910390f35b610191600480360381019061018c9190612084565b610b11565b005b61019b611176565b6040516101a8919061213c565b60405180910390f35b6101b961119a565b6040516101c69190612175565b60405180910390f35b6101e960048036038101906101e491906121e3565b6111be565b005b610205600480360381019061020091906122a7565b611815565b005b610221600480360381019061021c9190611f12565b61190d565b005b600180546102309061231f565b80601f016020809104026020016040519081016040528092919081815260200182805461025c9061231f565b80156102a75780601f1061027e576101008083540402835291602001916102a7565b820191905f5260205f20905b81548152906001019060200180831161028a57829003601f168201915b505050505081565b5f5f8260016040516020016102c5929190612465565b60405160208183030381529060405290505f7f000000000000000000000000000000000000000000000000000000000000000073ffffffffffffffffffffffffffffffffffffffff166316f1adc1836040518263ffffffff1660e01b815260040161033091906124dd565b5f60405180830381865afa15801561034a573d5f5f3e3d5ffd5b505050506040513d5f823e3d601f19601f8201168201806040525081019061037291906125ae565b90506014815110156103b9576040517f08c379a00000000000000000000000000000000000000000000000000000000081526004016103b090612665565b60405180910390fd5b5f60148201519050809350505050919050565b6002602052805f5260405f205f915054906101000a900460ff1681565b6103f1611991565b6103fa5f611a18565b565b610404611991565b5f61045185858080601f0160208091040260200160405190810160405280939291908181526020018383808284375f81840152601f19601f820116905080830192505050505050506102af565b905060025f8273ffffffffffffffffffffffffffffffffffffffff1673ffffffffffffffffffffffffffffffffffffffff1681526020019081526020015f205f9054906101000a900460ff166104dc576040517f08c379a00000000000000000000000000000000000000000000000000000000081526004016104d3906126cd565b60405180910390fd5b61050786848373ffffffffffffffffffffffffffffffffffffffff16611ad99092919063ffffffff16565b5f600667ffffffffffffffff81111561052357610522611d25565b5b60405190808252806020026020018201604052801561055c57816020015b610549611c5b565b8152602001906001900390816105415790505b50905060405180606001604052806040518060400160405280600481526020017f757365720000000000000000000000000000000000000000000000000000000081525081526020016040518060400160405280600781526020017f61646472657373000000000000000000000000000000000000000000000000008152508152602001886040516020016105f19190611ecf565b604051602081830303815290604052815250815f81518110610616576106156126eb565b5b602002602001018190525060405180606001604052806040518060400160405280600681526020017f616d6f756e74000000000000000000000000000000000000000000000000000081525081526020016040518060400160405280600781526020017f75696e74323536000000000000000000000000000000000000000000000000008152508152602001856040516020016106b39190612727565b604051602081830303815290604052815250816001815181106106d9576106d86126eb565b5b602002602001018190525060405180606001604052806040518060400160405280600581526020017f746f6b656e00000000000000000000000000000000000000000000000000000081525081526020016040518060400160405280600681526020017f737472696e6700000000000000000000000000000000000000000000000000008152508152602001878760405160200161077892919061276c565b6040516020818303038152906040528152508160028151811061079e5761079d6126eb565b5b602002602001018190525060405180606001604052806040518060400160405280600881526020017f70726f766964657200000000000000000000000000000000000000000000000081525081526020016040518060400160405280600681526020017f737472696e6700000000000000000000000000000000000000000000000000008152508152602001600160405160200161083c919061280f565b60405160208183030381529060405281525081600381518110610862576108616126eb565b5b602002602001018190525060405180606001604052806040518060400160405280600981526020017f6e756c6c6966696572000000000000000000000000000000000000000000000081525081526020016040518060400160405280600781526020017f75696e74323536000000000000000000000000000000000000000000000000008152508152602001846040516020016108ff9190612727565b60405160208183030381529060405281525081600481518110610925576109246126eb565b5b602002602001018190525060405180606001604052806040518060400160405280600981526020017f74696d657374616d70000000000000000000000000000000000000000000000081525081526020016040518060400160405280600781526020017f75696e74323536000000000000000000000000000000000000000000000000008152508152602001426040516020016109c29190612727565b604051602081830303815290604052815250816005815181106109e8576109e76126eb565b5b60200260200101819052507f000000000000000000000000000000000000000000000000000000000000000073ffffffffffffffffffffffffffffffffffffffff16637d64fa9b826040518263ffffffff1660e01b8152600401610a4c9190612a29565b5f604051808303815f87803b158015610a63575f5ffd5b505af1158015610a75573d5f5f3e3d5ffd5b505050508173ffffffffffffffffffffffffffffffffffffffff168773ffffffffffffffffffffffffffffffffffffffff167fcc4f8702356931e6d23a93d1b60beac6a7ea77d447ada4b1502a09d0b7125709866001604051610ad9929190612a5c565b60405180910390a350505050505050565b5f5f5f9054906101000a900473ffffffffffffffffffffffffffffffffffffffff16905090565b5f610b5e84848080601f0160208091040260200160405190810160405280939291908181526020018383808284375f81840152601f19601f820116905080830192505050505050506102af565b905060025f8273ffffffffffffffffffffffffffffffffffffffff1673ffffffffffffffffffffffffffffffffffffffff1681526020019081526020015f205f9054906101000a900460ff16610be9576040517f08c379a0000000000000000000000000000000000000000000000000000000008152600401610be0906126cd565b60405180910390fd5b5f8211610c2b576040517f08c379a0000000000000000000000000000000000000000000000000000000008152600401610c2290612ad4565b60405180910390fd5b610c583330848473ffffffffffffffffffffffffffffffffffffffff16611b2c909392919063ffffffff16565b5f600567ffffffffffffffff811115610c7457610c73611d25565b5b604051908082528060200260200182016040528015610cad57816020015b610c9a611c5b565b815260200190600190039081610c925790505b50905060405180606001604052806040518060400160405280600481526020017f757365720000000000000000000000000000000000000000000000000000000081525081526020016040518060400160405280600781526020017f6164647265737300000000000000000000000000000000000000000000000000815250815260200133604051602001610d429190611ecf565b604051602081830303815290604052815250815f81518110610d6757610d666126eb565b5b602002602001018190525060405180606001604052806040518060400160405280600681526020017f616d6f756e74000000000000000000000000000000000000000000000000000081525081526020016040518060400160405280600781526020017f75696e7432353600000000000000000000000000000000000000000000000000815250815260200184604051602001610e049190612727565b60405160208183030381529060405281525081600181518110610e2a57610e296126eb565b5b602002602001018190525060405180606001604052806040518060400160405280600581526020017f746f6b656e00000000000000000000000000000000000000000000000000000081525081526020016040518060400160405280600681526020017f737472696e67000000000000000000000000000000000000000000000000000081525081526020018686604051602001610ec992919061276c565b60405160208183030381529060405281525081600281518110610eef57610eee6126eb565b5b602002602001018190525060405180606001604052806040518060400160405280600881526020017f70726f766964657200000000000000000000000000000000000000000000000081525081526020016040518060400160405280600681526020017f737472696e67000000000000000000000000000000000000000000000000000081525081526020016001604051602001610f8d919061280f565b60405160208183030381529060405281525081600381518110610fb357610fb26126eb565b5b602002602001018190525060405180606001604052806040518060400160405280600981526020017f74696d657374616d70000000000000000000000000000000000000000000000081525081526020016040518060400160405280600781526020017f75696e74323536000000000000000000000000000000000000000000000000008152508152602001426040516020016110509190612727565b60405160208183030381529060405281525081600481518110611076576110756126eb565b5b60200260200101819052507f000000000000000000000000000000000000000000000000000000000000000073ffffffffffffffffffffffffffffffffffffffff16637d64fa9b826040518263ffffffff1660e01b81526004016110da9190612b3c565b5f604051808303815f87803b1580156110f1575f5ffd5b505af1158015611103573d5f5f3e3d5ffd5b505050508173ffffffffffffffffffffffffffffffffffffffff163373ffffffffffffffffffffffffffffffffffffffff167fef519b7eb82aaf6ac376a6df2d793843ebfd593de5f1a0601d3cc6ab49ebb395856001604051611167929190612a5c565b60405180910390a35050505050565b7f000000000000000000000000000000000000000000000000000000000000000081565b7f000000000000000000000000000000000000000000000000000000000000000081565b5f61120b84848080601f0160208091040260200160405190810160405280939291908181526020018383808284375f81840152601f19601f820116905080830192505050505050506102af565b905060025f8273ffffffffffffffffffffffffffffffffffffffff1673ffffffffffffffffffffffffffffffffffffffff1681526020019081526020015f205f9054906101000a900460ff16611296576040517f08c379a000000000000000000000000000000000000000000000000000000000815260040161128d906126cd565b60405180910390fd5b5f600667ffffffffffffffff8111156112b2576112b1611d25565b5b6040519080825280602002602001820160405280156112eb57816020015b6112d8611c5b565b8152602001906001900390816112d05790505b50905060405180606001604052806040518060400160405280600481526020017f757365720000000000000000000000000000000000000000000000000000000081525081526020016040518060400160405280600581526020017f627974657300000000000000000000000000000000000000000000000000000081525081526020018a8a604051602001611382929190612bab565b604051602081830303815290604052815250815f815181106113a7576113a66126eb565b5b602002602001018190525060405180606001604052806040518060400160405280600681526020017f736861726564000000000000000000000000000000000000000000000000000081525081526020016040518060400160405280600781526020017f61646472657373000000000000000000000000000000000000000000000000008152508152602001888860405160200161144692919061276c565b6040516020818303038152906040528152508160018151811061146c5761146b6126eb565b5b602002602001018190525060405180606001604052806040518060400160405280600681526020017f616d6f756e74000000000000000000000000000000000000000000000000000081525081526020016040518060400160405280600781526020017f75696e74323536000000000000000000000000000000000000000000000000008152508152602001846040516020016115099190612727565b6040516020818303038152906040528152508160028151811061152f5761152e6126eb565b5b602002602001018190525060405180606001604052806040518060400160405280600581526020017f636861696e00000000000000000000000000000000000000000000000000000081525081526020016040518060400160405280600681526020017f737472696e67000000000000000000000000000000000000000000000000000081525081526020016040516020016115ca90612c17565b604051602081830303815290604052815250816003815181106115f0576115ef6126eb565b5b602002602001018190525060405180606001604052806040518060400160405280600881526020017f70726f766964657200000000000000000000000000000000000000000000000081525081526020016040518060400160405280600681526020017f737472696e6700000000000000000000000000000000000000000000000000008152508152602001600160405160200161168e919061280f565b604051602081830303815290604052815250816004815181106116b4576116b36126eb565b5b602002602001018190525060405180606001604052806040518060400160405280600581526020017f746f6b656e00000000000000000000000000000000000000000000000000000081525081526020016040518060400160405280600681526020017f737472696e6700000000000000000000000000000000000000000000000000008152508152602001868660405160200161175392919061276c565b60405160208183030381529060405281525081600581518110611779576117786126eb565b5b60200260200101819052507f000000000000000000000000000000000000000000000000000000000000000073ffffffffffffffffffffffffffffffffffffffff16637d64fa9b826040518263ffffffff1660e01b81526004016117dd9190612c7f565b5f604051808303815f87803b1580156117f4575f5ffd5b505af1158015611806573d5f5f3e3d5ffd5b50505050505050505050505050565b5f61186283838080601f0160208091040260200160405190810160405280939291908181526020018383808284375f81840152601f19601f820116905080830192505050505050506102af565b9050600160025f8373ffffffffffffffffffffffffffffffffffffffff1673ffffffffffffffffffffffffffffffffffffffff1681526020019081526020015f205f6101000a81548160ff0219169083151502179055508073ffffffffffffffffffffffffffffffffffffffff167fd57b1148efb91f418a2178fc1fb4ba12f9400a4dc8e71851fd59e85d337c609f6001604051611900919061280f565b60405180910390a2505050565b611915611991565b5f73ffffffffffffffffffffffffffffffffffffffff168173ffffffffffffffffffffffffffffffffffffffff1603611985575f6040517f1e4fbdf700000000000000000000000000000000000000000000000000000000815260040161197c9190611ecf565b60405180910390fd5b61198e81611a18565b50565b611999611b81565b73ffffffffffffffffffffffffffffffffffffffff166119b7610aea565b73ffffffffffffffffffffffffffffffffffffffff1614611a16576119da611b81565b6040517f118cdaa7000000000000000000000000000000000000000000000000000000008152600401611a0d9190611ecf565b60405180910390fd5b565b5f5f5f9054906101000a900473ffffffffffffffffffffffffffffffffffffffff169050815f5f6101000a81548173ffffffffffffffffffffffffffffffffffffffff021916908373ffffffffffffffffffffffffffffffffffffffff1602179055508173ffffffffffffffffffffffffffffffffffffffff168173ffffffffffffffffffffffffffffffffffffffff167f8be0079c531659141344cd1fd0a4f28419497f9722a3daafe3b4186f6b6457e060405160405180910390a35050565b611ae68383836001611b88565b611b2757826040517f5274afe7000000000000000000000000000000000000000000000000000000008152600401611b1e9190611ecf565b60405180910390fd5b505050565b611b3a848484846001611bea565b611b7b57836040517f5274afe7000000000000000000000000000000000000000000000000000000008152600401611b729190611ecf565b60405180910390fd5b50505050565b5f33905090565b5f5f63a9059cbb60e01b9050604051815f525f1960601c86166004528460245260205f60445f5f8b5af1925060015f51148316611bdc578383151615611bd0573d5f823e3d81fd5b5f873b113d1516831692505b806040525050949350505050565b5f5f6323b872dd60e01b9050604051815f525f1960601c87166004525f1960601c86166024528460445260205f60645f5f8c5af1925060015f51148316611c48578383151615611c3c573d5f823e3d81fd5b5f883b113d1516831692505b806040525f606052505095945050505050565b60405180606001604052806060815260200160608152602001606081525090565b5f81519050919050565b5f82825260208201905092915050565b8281835e5f83830152505050565b5f601f19601f8301169050919050565b5f611cbe82611c7c565b611cc88185611c86565b9350611cd8818560208601611c96565b611ce181611ca4565b840191505092915050565b5f6020820190508181035f830152611d048184611cb4565b905092915050565b5f604051905090565b5f5ffd5b5f5ffd5b5f5ffd5b5f5ffd5b7f4e487b71000000000000000000000000000000000000000000000000000000005f52604160045260245ffd5b611d5b82611ca4565b810181811067ffffffffffffffff82111715611d7a57611d79611d25565b5b80604052505050565b5f611d8c611d0c565b9050611d988282611d52565b919050565b5f67ffffffffffffffff821115611db757611db6611d25565b5b611dc082611ca4565b9050602081019050919050565b828183375f83830152505050565b5f611ded611de884611d9d565b611d83565b905082815260208101848484011115611e0957611e08611d21565b5b611e14848285611dcd565b509392505050565b5f82601f830112611e3057611e2f611d1d565b5b8135611e40848260208601611ddb565b91505092915050565b5f60208284031215611e5e57611e5d611d15565b5b5f82013567ffffffffffffffff811115611e7b57611e7a611d19565b5b611e8784828501611e1c565b91505092915050565b5f73ffffffffffffffffffffffffffffffffffffffff82169050919050565b5f611eb982611e90565b9050919050565b611ec981611eaf565b82525050565b5f602082019050611ee25f830184611ec0565b92915050565b611ef181611eaf565b8114611efb575f5ffd5b50565b5f81359050611f0c81611ee8565b92915050565b5f60208284031215611f2757611f26611d15565b5b5f611f3484828501611efe565b91505092915050565b5f8115159050919050565b611f5181611f3d565b82525050565b5f602082019050611f6a5f830184611f48565b92915050565b5f5ffd5b5f5ffd5b5f5f83601f840112611f8d57611f8c611d1d565b5b8235905067ffffffffffffffff811115611faa57611fa9611f70565b5b602083019150836001820283011115611fc657611fc5611f74565b5b9250929050565b5f819050919050565b611fdf81611fcd565b8114611fe9575f5ffd5b50565b5f81359050611ffa81611fd6565b92915050565b5f5f5f5f5f6080868803121561201957612018611d15565b5b5f61202688828901611efe565b955050602086013567ffffffffffffffff81111561204757612046611d19565b5b61205388828901611f78565b9450945050604061206688828901611fec565b925050606061207788828901611fec565b9150509295509295909350565b5f5f5f6040848603121561209b5761209a611d15565b5b5f84013567ffffffffffffffff8111156120b8576120b7611d19565b5b6120c486828701611f78565b935093505060206120d786828701611fec565b9150509250925092565b5f819050919050565b5f6121046120ff6120fa84611e90565b6120e1565b611e90565b9050919050565b5f612115826120ea565b9050919050565b5f6121268261210b565b9050919050565b6121368161211c565b82525050565b5f60208201905061214f5f83018461212d565b92915050565b5f61215f8261210b565b9050919050565b61216f81612155565b82525050565b5f6020820190506121885f830184612166565b92915050565b5f5f83601f8401126121a3576121a2611d1d565b5b8235905067ffffffffffffffff8111156121c0576121bf611f70565b5b6020830191508360018202830111156121dc576121db611f74565b5b9250929050565b5f5f5f5f5f5f5f6080888a0312156121fe576121fd611d15565b5b5f88013567ffffffffffffffff81111561221b5761221a611d19565b5b6122278a828b0161218e565b9750975050602088013567ffffffffffffffff81111561224a57612249611d19565b5b6122568a828b01611f78565b9550955050604088013567ffffffffffffffff81111561227957612278611d19565b5b6122858a828b01611f78565b935093505060606122988a828b01611fec565b91505092959891949750929550565b5f5f602083850312156122bd576122bc611d15565b5b5f83013567ffffffffffffffff8111156122da576122d9611d19565b5b6122e685828601611f78565b92509250509250929050565b7f4e487b71000000000000000000000000000000000000000000000000000000005f52602260045260245ffd5b5f600282049050600182168061233657607f821691505b602082108103612349576123486122f2565b5b50919050565b5f81905092915050565b5f61236382611c7c565b61236d818561234f565b935061237d818560208601611c96565b80840191505092915050565b7f5f000000000000000000000000000000000000000000000000000000000000005f82015250565b5f6123bd60018361234f565b91506123c882612389565b600182019050919050565b5f819050815f5260205f209050919050565b5f81546123f18161231f565b6123fb818661234f565b9450600182165f8114612415576001811461242a5761245c565b60ff198316865281151582028601935061245c565b612433856123d3565b5f5b8381101561245457815481890152600182019150602081019050612435565b838801955050505b50505092915050565b5f6124708285612359565b915061247b826123b1565b915061248782846123e5565b91508190509392505050565b7f51696172614d6f6e6164417373657473000000000000000000000000000000005f82015250565b5f6124c7601083611c86565b91506124d282612493565b602082019050919050565b5f6040820190508181035f8301526124f4816124bb565b905081810360208301526125088184611cb4565b905092915050565b5f67ffffffffffffffff82111561252a57612529611d25565b5b61253382611ca4565b9050602081019050919050565b5f61255261254d84612510565b611d83565b90508281526020810184848401111561256e5761256d611d21565b5b612579848285611c96565b509392505050565b5f82601f83011261259557612594611d1d565b5b81516125a5848260208601612540565b91505092915050565b5f602082840312156125c3576125c2611d15565b5b5f82015167ffffffffffffffff8111156125e0576125df611d19565b5b6125ec84828501612581565b91505092915050565b7f5661756c743a204173736574206e6f7420666f756e6420696e207265676973745f8201527f7279000000000000000000000000000000000000000000000000000000000000602082015250565b5f61264f602283611c86565b915061265a826125f5565b604082019050919050565b5f6020820190508181035f83015261267c81612643565b9050919050565b7f5661756c743a20546f6b656e206e6f7420737570706f727465640000000000005f82015250565b5f6126b7601a83611c86565b91506126c282612683565b602082019050919050565b5f6020820190508181035f8301526126e4816126ab565b9050919050565b7f4e487b71000000000000000000000000000000000000000000000000000000005f52603260045260245ffd5b61272181611fcd565b82525050565b5f60208201905061273a5f830184612718565b92915050565b5f61274b8385611c86565b9350612758838584611dcd565b61276183611ca4565b840190509392505050565b5f6020820190508181035f830152612785818486612740565b90509392505050565b5f815461279a8161231f565b6127a48186611c86565b9450600182165f81146127be57600181146127d457612806565b60ff198316865281151560200286019350612806565b6127dd856123d3565b5f5b838110156127fe578154818901526001820191506020810190506127df565b808801955050505b50505092915050565b5f6020820190508181035f830152612827818461278e565b905092915050565b7f44697265637420576974686472617700000000000000000000000000000000005f82015250565b5f612863600f83611c86565b915061286e8261282f565b602082019050919050565b5f81519050919050565b5f82825260208201905092915050565b5f819050602082019050919050565b5f82825260208201905092915050565b5f6128bc82611c7c565b6128c681856128a2565b93506128d6818560208601611c96565b6128df81611ca4565b840191505092915050565b5f81519050919050565b5f82825260208201905092915050565b5f61290e826128ea565b61291881856128f4565b9350612928818560208601611c96565b61293181611ca4565b840191505092915050565b5f606083015f8301518482035f86015261295682826128b2565b9150506020830151848203602086015261297082826128b2565b9150506040830151848203604086015261298a8282612904565b9150508091505092915050565b5f6129a2838361293c565b905092915050565b5f602082019050919050565b5f6129c082612879565b6129ca8185612883565b9350836020820285016129dc85612893565b805f5b85811015612a1757848403895281516129f88582612997565b9450612a03836129aa565b925060208a019950506001810190506129df565b50829750879550505050505092915050565b5f6040820190508181035f830152612a4081612857565b90508181036020830152612a5481846129b6565b905092915050565b5f604082019050612a6f5f830185612718565b8181036020830152612a81818461278e565b90509392505050565b7f5661756c743a204465706f736974206d757374206265203e20300000000000005f82015250565b5f612abe601a83611c86565b9150612ac982612a8a565b602082019050919050565b5f6020820190508181035f830152612aeb81612ab2565b9050919050565b7f4465706f736974000000000000000000000000000000000000000000000000005f82015250565b5f612b26600783611c86565b9150612b3182612af2565b602082019050919050565b5f6040820190508181035f830152612b5381612b1a565b90508181036020830152612b6781846129b6565b905092915050565b5f82825260208201905092915050565b5f612b8a8385612b6f565b9350612b97838584611dcd565b612ba083611ca4565b840190509392505050565b5f6020820190508181035f830152612bc4818486612b7f565b90509392505050565b7f62617365000000000000000000000000000000000000000000000000000000005f82015250565b5f612c01600483611c86565b9150612c0c82612bcd565b602082019050919050565b5f6020820190508181035f830152612c2e81612bf5565b9050919050565b7f4d6f64756c6172205769746864726177000000000000000000000000000000005f82015250565b5f612c69601083611c86565b9150612c7482612c35565b602082019050919050565b5f6040820190508181035f830152612c9681612c5d565b90508181036020830152612caa81846129b6565b90509291505056fea2646970667358221220de7b27509bfe987014fc65198ae59ae219b85218df3d0dab00c70168119551fc64736f6c634300081f0033",
					"opcodes": "PUSH1 0xC0 PUSH1 0x40 MSTORE CALLVALUE DUP1 ISZERO PUSH2 0xF JUMPI PUSH0 PUSH0 REVERT JUMPDEST POP PUSH1 0x40 MLOAD PUSH2 0x3447 CODESIZE SUB DUP1 PUSH2 0x3447 DUP4 CODECOPY DUP2 DUP2 ADD PUSH1 0x40 MSTORE DUP2 ADD SWAP1 PUSH2 0x31 SWAP2 SWAP1 PUSH2 0x39B JUMP JUMPDEST DUP2 PUSH0 PUSH20 0xFFFFFFFFFFFFFFFFFFFFFFFFFFFFFFFFFFFFFFFF AND DUP2 PUSH20 0xFFFFFFFFFFFFFFFFFFFFFFFFFFFFFFFFFFFFFFFF AND SUB PUSH2 0xA2 JUMPI PUSH0 PUSH1 0x40 MLOAD PUSH32 0x1E4FBDF700000000000000000000000000000000000000000000000000000000 DUP2 MSTORE PUSH1 0x4 ADD PUSH2 0x99 SWAP2 SWAP1 PUSH2 0x42A JUMP JUMPDEST PUSH1 0x40 MLOAD DUP1 SWAP2 SUB SWAP1 REVERT JUMPDEST PUSH2 0xB1 DUP2 PUSH2 0x133 PUSH1 0x20 SHL PUSH1 0x20 SHR JUMP JUMPDEST POP DUP4 PUSH20 0xFFFFFFFFFFFFFFFFFFFFFFFFFFFFFFFFFFFFFFFF AND PUSH1 0xA0 DUP2 PUSH20 0xFFFFFFFFFFFFFFFFFFFFFFFFFFFFFFFFFFFFFFFF AND DUP2 MSTORE POP POP DUP3 PUSH20 0xFFFFFFFFFFFFFFFFFFFFFFFFFFFFFFFFFFFFFFFF AND PUSH1 0x80 DUP2 PUSH20 0xFFFFFFFFFFFFFFFFFFFFFFFFFFFFFFFFFFFFFFFF AND DUP2 MSTORE POP POP DUP1 PUSH1 0x1 SWAP1 DUP2 PUSH2 0x129 SWAP2 SWAP1 PUSH2 0x653 JUMP JUMPDEST POP POP POP POP POP PUSH2 0x722 JUMP JUMPDEST PUSH0 PUSH0 PUSH0 SWAP1 SLOAD SWAP1 PUSH2 0x100 EXP SWAP1 DIV PUSH20 0xFFFFFFFFFFFFFFFFFFFFFFFFFFFFFFFFFFFFFFFF AND SWAP1 POP DUP2 PUSH0 PUSH0 PUSH2 0x100 EXP DUP2 SLOAD DUP2 PUSH20 0xFFFFFFFFFFFFFFFFFFFFFFFFFFFFFFFFFFFFFFFF MUL NOT AND SWAP1 DUP4 PUSH20 0xFFFFFFFFFFFFFFFFFFFFFFFFFFFFFFFFFFFFFFFF AND MUL OR SWAP1 SSTORE POP DUP2 PUSH20 0xFFFFFFFFFFFFFFFFFFFFFFFFFFFFFFFFFFFFFFFF AND DUP2 PUSH20 0xFFFFFFFFFFFFFFFFFFFFFFFFFFFFFFFFFFFFFFFF AND PUSH32 0x8BE0079C531659141344CD1FD0A4F28419497F9722A3DAAFE3B4186F6B6457E0 PUSH1 0x40 MLOAD PUSH1 0x40 MLOAD DUP1 SWAP2 SUB SWAP1 LOG3 POP POP JUMP JUMPDEST PUSH0 PUSH1 0x40 MLOAD SWAP1 POP SWAP1 JUMP JUMPDEST PUSH0 PUSH0 REVERT JUMPDEST PUSH0 PUSH0 REVERT JUMPDEST PUSH0 PUSH20 0xFFFFFFFFFFFFFFFFFFFFFFFFFFFFFFFFFFFFFFFF DUP3 AND SWAP1 POP SWAP2 SWAP1 POP JUMP JUMPDEST PUSH0 PUSH2 0x22E DUP3 PUSH2 0x205 JUMP JUMPDEST SWAP1 POP SWAP2 SWAP1 POP JUMP JUMPDEST PUSH2 0x23E DUP2 PUSH2 0x224 JUMP JUMPDEST DUP2 EQ PUSH2 0x248 JUMPI PUSH0 PUSH0 REVERT JUMPDEST POP JUMP JUMPDEST PUSH0 DUP2 MLOAD SWAP1 POP PUSH2 0x259 DUP2 PUSH2 0x235 JUMP JUMPDEST SWAP3 SWAP2 POP POP JUMP JUMPDEST PUSH0 PUSH0 REVERT JUMPDEST PUSH0 PUSH0 REVERT JUMPDEST PUSH0 PUSH1 0x1F NOT PUSH1 0x1F DUP4 ADD AND SWAP1 POP SWAP2 SWAP1 POP JUMP JUMPDEST PUSH32 0x4E487B7100000000000000000000000000000000000000000000000000000000 PUSH0 MSTORE PUSH1 0x41 PUSH1 0x4 MSTORE PUSH1 0x24 PUSH0 REVERT JUMPDEST PUSH2 0x2AD DUP3 PUSH2 0x267 JUMP JUMPDEST DUP2 ADD DUP2 DUP2 LT PUSH8 0xFFFFFFFFFFFFFFFF DUP3 GT OR ISZERO PUSH2 0x2CC JUMPI PUSH2 0x2CB PUSH2 0x277 JUMP JUMPDEST JUMPDEST DUP1 PUSH1 0x40 MSTORE POP POP POP JUMP JUMPDEST PUSH0 PUSH2 0x2DE PUSH2 0x1F4 JUMP JUMPDEST SWAP1 POP PUSH2 0x2EA DUP3 DUP3 PUSH2 0x2A4 JUMP JUMPDEST SWAP2 SWAP1 POP JUMP JUMPDEST PUSH0 PUSH8 0xFFFFFFFFFFFFFFFF DUP3 GT ISZERO PUSH2 0x309 JUMPI PUSH2 0x308 PUSH2 0x277 JUMP JUMPDEST JUMPDEST PUSH2 0x312 DUP3 PUSH2 0x267 JUMP JUMPDEST SWAP1 POP PUSH1 0x20 DUP2 ADD SWAP1 POP SWAP2 SWAP1 POP JUMP JUMPDEST DUP3 DUP2 DUP4 MCOPY PUSH0 DUP4 DUP4 ADD MSTORE POP POP POP JUMP JUMPDEST PUSH0 PUSH2 0x33F PUSH2 0x33A DUP5 PUSH2 0x2EF JUMP JUMPDEST PUSH2 0x2D5 JUMP JUMPDEST SWAP1 POP DUP3 DUP2 MSTORE PUSH1 0x20 DUP2 ADD DUP5 DUP5 DUP5 ADD GT ISZERO PUSH2 0x35B JUMPI PUSH2 0x35A PUSH2 0x263 JUMP JUMPDEST JUMPDEST PUSH2 0x366 DUP5 DUP3 DUP6 PUSH2 0x31F JUMP JUMPDEST POP SWAP4 SWAP3 POP POP POP JUMP JUMPDEST PUSH0 DUP3 PUSH1 0x1F DUP4 ADD SLT PUSH2 0x382 JUMPI PUSH2 0x381 PUSH2 0x25F JUMP JUMPDEST JUMPDEST DUP2 MLOAD PUSH2 0x392 DUP5 DUP3 PUSH1 0x20 DUP7 ADD PUSH2 0x32D JUMP JUMPDEST SWAP2 POP POP SWAP3 SWAP2 POP POP JUMP JUMPDEST PUSH0 PUSH0 PUSH0 PUSH0 PUSH1 0x80 DUP6 DUP8 SUB SLT ISZERO PUSH2 0x3B3 JUMPI PUSH2 0x3B2 PUSH2 0x1FD JUMP JUMPDEST JUMPDEST PUSH0 PUSH2 0x3C0 DUP8 DUP3 DUP9 ADD PUSH2 0x24B JUMP JUMPDEST SWAP5 POP POP PUSH1 0x20 PUSH2 0x3D1 DUP8 DUP3 DUP9 ADD PUSH2 0x24B JUMP JUMPDEST SWAP4 POP POP PUSH1 0x40 PUSH2 0x3E2 DUP8 DUP3 DUP9 ADD PUSH2 0x24B JUMP JUMPDEST SWAP3 POP POP PUSH1 0x60 DUP6 ADD MLOAD PUSH8 0xFFFFFFFFFFFFFFFF DUP2 GT ISZERO PUSH2 0x403 JUMPI PUSH2 0x402 PUSH2 0x201 JUMP JUMPDEST JUMPDEST PUSH2 0x40F DUP8 DUP3 DUP9 ADD PUSH2 0x36E JUMP JUMPDEST SWAP2 POP POP SWAP3 SWAP6 SWAP2 SWAP5 POP SWAP3 POP JUMP JUMPDEST PUSH2 0x424 DUP2 PUSH2 0x224 JUMP JUMPDEST DUP3 MSTORE POP POP JUMP JUMPDEST PUSH0 PUSH1 0x20 DUP3 ADD SWAP1 POP PUSH2 0x43D PUSH0 DUP4 ADD DUP5 PUSH2 0x41B JUMP JUMPDEST SWAP3 SWAP2 POP POP JUMP JUMPDEST PUSH0 DUP2 MLOAD SWAP1 POP SWAP2 SWAP1 POP JUMP JUMPDEST PUSH32 0x4E487B7100000000000000000000000000000000000000000000000000000000 PUSH0 MSTORE PUSH1 0x22 PUSH1 0x4 MSTORE PUSH1 0x24 PUSH0 REVERT JUMPDEST PUSH0 PUSH1 0x2 DUP3 DIV SWAP1 POP PUSH1 0x1 DUP3 AND DUP1 PUSH2 0x491 JUMPI PUSH1 0x7F DUP3 AND SWAP2 POP JUMPDEST PUSH1 0x20 DUP3 LT DUP2 SUB PUSH2 0x4A4 JUMPI PUSH2 0x4A3 PUSH2 0x44D JUMP JUMPDEST JUMPDEST POP SWAP2 SWAP1 POP JUMP JUMPDEST PUSH0 DUP2 SWAP1 POP DUP2 PUSH0 MSTORE PUSH1 0x20 PUSH0 KECCAK256 SWAP1 POP SWAP2 SWAP1 POP JUMP JUMPDEST PUSH0 PUSH1 0x20 PUSH1 0x1F DUP4 ADD DIV SWAP1 POP SWAP2 SWAP1 POP JUMP JUMPDEST PUSH0 DUP3 DUP3 SHL SWAP1 POP SWAP3 SWAP2 POP POP JUMP JUMPDEST PUSH0 PUSH1 0x8 DUP4 MUL PUSH2 0x506 PUSH32 0xFFFFFFFFFFFFFFFFFFFFFFFFFFFFFFFFFFFFFFFFFFFFFFFFFFFFFFFFFFFFFFFF DUP3 PUSH2 0x4CB JUMP JUMPDEST PUSH2 0x510 DUP7 DUP4 PUSH2 0x4CB JUMP JUMPDEST SWAP6 POP DUP1 NOT DUP5 AND SWAP4 POP DUP1 DUP7 AND DUP5 OR SWAP3 POP POP POP SWAP4 SWAP3 POP POP POP JUMP JUMPDEST PUSH0 DUP2 SWAP1 POP SWAP2 SWAP1 POP JUMP JUMPDEST PUSH0 DUP2 SWAP1 POP SWAP2 SWAP1 POP JUMP JUMPDEST PUSH0 PUSH2 0x554 PUSH2 0x54F PUSH2 0x54A DUP5 PUSH2 0x528 JUMP JUMPDEST PUSH2 0x531 JUMP JUMPDEST PUSH2 0x528 JUMP JUMPDEST SWAP1 POP SWAP2 SWAP1 POP JUMP JUMPDEST PUSH0 DUP2 SWAP1 POP SWAP2 SWAP1 POP JUMP JUMPDEST PUSH2 0x56D DUP4 PUSH2 0x53A JUMP JUMPDEST PUSH2 0x581 PUSH2 0x579 DUP3 PUSH2 0x55B JUMP JUMPDEST DUP5 DUP5 SLOAD PUSH2 0x4D7 JUMP JUMPDEST DUP3 SSTORE POP POP POP POP JUMP JUMPDEST PUSH0 PUSH0 SWAP1 POP SWAP1 JUMP JUMPDEST PUSH2 0x598 PUSH2 0x589 JUMP JUMPDEST PUSH2 0x5A3 DUP2 DUP5 DUP5 PUSH2 0x564 JUMP JUMPDEST POP POP POP JUMP JUMPDEST JUMPDEST DUP2 DUP2 LT ISZERO PUSH2 0x5C6 JUMPI PUSH2 0x5BB PUSH0 DUP3 PUSH2 0x590 JUMP JUMPDEST PUSH1 0x1 DUP2 ADD SWAP1 POP PUSH2 0x5A9 JUMP JUMPDEST POP POP JUMP JUMPDEST PUSH1 0x1F DUP3 GT ISZERO PUSH2 0x60B JUMPI PUSH2 0x5DC DUP2 PUSH2 0x4AA JUMP JUMPDEST PUSH2 0x5E5 DUP5 PUSH2 0x4BC JUMP JUMPDEST DUP2 ADD PUSH1 0x20 DUP6 LT ISZERO PUSH2 0x5F4 JUMPI DUP2 SWAP1 POP JUMPDEST PUSH2 0x608 PUSH2 0x600 DUP6 PUSH2 0x4BC JUMP JUMPDEST DUP4 ADD DUP3 PUSH2 0x5A8 JUMP JUMPDEST POP POP JUMPDEST POP POP POP JUMP JUMPDEST PUSH0 DUP3 DUP3 SHR SWAP1 POP SWAP3 SWAP2 POP POP JUMP JUMPDEST PUSH0 PUSH2 0x62B PUSH0 NOT DUP5 PUSH1 0x8 MUL PUSH2 0x610 JUMP JUMPDEST NOT DUP1 DUP4 AND SWAP2 POP POP SWAP3 SWAP2 POP POP JUMP JUMPDEST PUSH0 PUSH2 0x643 DUP4 DUP4 PUSH2 0x61C JUMP JUMPDEST SWAP2 POP DUP3 PUSH1 0x2 MUL DUP3 OR SWAP1 POP SWAP3 SWAP2 POP POP JUMP JUMPDEST PUSH2 0x65C DUP3 PUSH2 0x443 JUMP JUMPDEST PUSH8 0xFFFFFFFFFFFFFFFF DUP2 GT ISZERO PUSH2 0x675 JUMPI PUSH2 0x674 PUSH2 0x277 JUMP JUMPDEST JUMPDEST PUSH2 0x67F DUP3 SLOAD PUSH2 0x47A JUMP JUMPDEST PUSH2 0x68A DUP3 DUP3 DUP6 PUSH2 0x5CA JUMP JUMPDEST PUSH0 PUSH1 0x20 SWAP1 POP PUSH1 0x1F DUP4 GT PUSH1 0x1 DUP2 EQ PUSH2 0x6BB JUMPI PUSH0 DUP5 ISZERO PUSH2 0x6A9 JUMPI DUP3 DUP8 ADD MLOAD SWAP1 POP JUMPDEST PUSH2 0x6B3 DUP6 DUP3 PUSH2 0x638 JUMP JUMPDEST DUP7 SSTORE POP PUSH2 0x71A JUMP JUMPDEST PUSH1 0x1F NOT DUP5 AND PUSH2 0x6C9 DUP7 PUSH2 0x4AA JUMP JUMPDEST PUSH0 JUMPDEST DUP3 DUP2 LT ISZERO PUSH2 0x6F0 JUMPI DUP5 DUP10 ADD MLOAD DUP3 SSTORE PUSH1 0x1 DUP3 ADD SWAP2 POP PUSH1 0x20 DUP6 ADD SWAP5 POP PUSH1 0x20 DUP2 ADD SWAP1 POP PUSH2 0x6CB JUMP JUMPDEST DUP7 DUP4 LT ISZERO PUSH2 0x70D JUMPI DUP5 DUP10 ADD MLOAD PUSH2 0x709 PUSH1 0x1F DUP10 AND DUP3 PUSH2 0x61C JUMP JUMPDEST DUP4 SSTORE POP JUMPDEST PUSH1 0x1 PUSH1 0x2 DUP9 MUL ADD DUP9 SSTORE POP POP POP JUMPDEST POP POP POP POP POP POP JUMP JUMPDEST PUSH1 0x80 MLOAD PUSH1 0xA0 MLOAD PUSH2 0x2CE8 PUSH2 0x75F PUSH0 CODECOPY PUSH0 DUP2 DUP2 PUSH2 0x9F5 ADD MSTORE DUP2 DUP2 PUSH2 0x1083 ADD MSTORE DUP2 DUP2 PUSH2 0x1178 ADD MSTORE PUSH2 0x1786 ADD MSTORE PUSH0 DUP2 DUP2 PUSH2 0x2D9 ADD MSTORE PUSH2 0x119C ADD MSTORE PUSH2 0x2CE8 PUSH0 RETURN INVALID PUSH1 0x80 PUSH1 0x40 MSTORE CALLVALUE DUP1 ISZERO PUSH2 0xF JUMPI PUSH0 PUSH0 REVERT JUMPDEST POP PUSH1 0x4 CALLDATASIZE LT PUSH2 0xB1 JUMPI PUSH0 CALLDATALOAD PUSH1 0xE0 SHR DUP1 PUSH4 0x8E27D719 GT PUSH2 0x6F JUMPI DUP1 PUSH4 0x8E27D719 EQ PUSH2 0x177 JUMPI DUP1 PUSH4 0xB5F8558C EQ PUSH2 0x193 JUMPI DUP1 PUSH4 0xBF4D766E EQ PUSH2 0x1B1 JUMPI DUP1 PUSH4 0xD23CE9E5 EQ PUSH2 0x1CF JUMPI DUP1 PUSH4 0xF139721C EQ PUSH2 0x1EB JUMPI DUP1 PUSH4 0xF2FDE38B EQ PUSH2 0x207 JUMPI PUSH2 0xB1 JUMP JUMPDEST DUP1 PUSH3 0xDAD7D4 EQ PUSH2 0xB5 JUMPI DUP1 PUSH4 0x5D09FB1 EQ PUSH2 0xD3 JUMPI DUP1 PUSH4 0x240028E8 EQ PUSH2 0x103 JUMPI DUP1 PUSH4 0x715018A6 EQ PUSH2 0x133 JUMPI DUP1 PUSH4 0x7A9ECEB4 EQ PUSH2 0x13D JUMPI DUP1 PUSH4 0x8DA5CB5B EQ PUSH2 0x159 JUMPI JUMPDEST PUSH0 PUSH0 REVERT JUMPDEST PUSH2 0xBD PUSH2 0x223 JUMP JUMPDEST PUSH1 0x40 MLOAD PUSH2 0xCA SWAP2 SWAP1 PUSH2 0x1CEC JUMP JUMPDEST PUSH1 0x40 MLOAD DUP1 SWAP2 SUB SWAP1 RETURN JUMPDEST PUSH2 0xED PUSH1 0x4 DUP1 CALLDATASIZE SUB DUP2 ADD SWAP1 PUSH2 0xE8 SWAP2 SWAP1 PUSH2 0x1E49 JUMP JUMPDEST PUSH2 0x2AF JUMP JUMPDEST PUSH1 0x40 MLOAD PUSH2 0xFA SWAP2 SWAP1 PUSH2 0x1ECF JUMP JUMPDEST PUSH1 0x40 MLOAD DUP1 SWAP2 SUB SWAP1 RETURN JUMPDEST PUSH2 0x11D PUSH1 0x4 DUP1 CALLDATASIZE SUB DUP2 ADD SWAP1 PUSH2 0x118 SWAP2 SWAP1 PUSH2 0x1F12 JUMP JUMPDEST PUSH2 0x3CC JUMP JUMPDEST PUSH1 0x40 MLOAD PUSH2 0x12A SWAP2 SWAP1 PUSH2 0x1F57 JUMP JUMPDEST PUSH1 0x40 MLOAD DUP1 SWAP2 SUB SWAP1 RETURN JUMPDEST PUSH2 0x13B PUSH2 0x3E9 JUMP JUMPDEST STOP JUMPDEST PUSH2 0x157 PUSH1 0x4 DUP1 CALLDATASIZE SUB DUP2 ADD SWAP1 PUSH2 0x152 SWAP2 SWAP1 PUSH2 0x2000 JUMP JUMPDEST PUSH2 0x3FC JUMP JUMPDEST STOP JUMPDEST PUSH2 0x161 PUSH2 0xAEA JUMP JUMPDEST PUSH1 0x40 MLOAD PUSH2 0x16E SWAP2 SWAP1 PUSH2 0x1ECF JUMP JUMPDEST PUSH1 0x40 MLOAD DUP1 SWAP2 SUB SWAP1 RETURN JUMPDEST PUSH2 0x191 PUSH1 0x4 DUP1 CALLDATASIZE SUB DUP2 ADD SWAP1 PUSH2 0x18C SWAP2 SWAP1 PUSH2 0x2084 JUMP JUMPDEST PUSH2 0xB11 JUMP JUMPDEST STOP JUMPDEST PUSH2 0x19B PUSH2 0x1176 JUMP JUMPDEST PUSH1 0x40 MLOAD PUSH2 0x1A8 SWAP2 SWAP1 PUSH2 0x213C JUMP JUMPDEST PUSH1 0x40 MLOAD DUP1 SWAP2 SUB SWAP1 RETURN JUMPDEST PUSH2 0x1B9 PUSH2 0x119A JUMP JUMPDEST PUSH1 0x40 MLOAD PUSH2 0x1C6 SWAP2 SWAP1 PUSH2 0x2175 JUMP JUMPDEST PUSH1 0x40 MLOAD DUP1 SWAP2 SUB SWAP1 RETURN JUMPDEST PUSH2 0x1E9 PUSH1 0x4 DUP1 CALLDATASIZE SUB DUP2 ADD SWAP1 PUSH2 0x1E4 SWAP2 SWAP1 PUSH2 0x21E3 JUMP JUMPDEST PUSH2 0x11BE JUMP JUMPDEST STOP JUMPDEST PUSH2 0x205 PUSH1 0x4 DUP1 CALLDATASIZE SUB DUP2 ADD SWAP1 PUSH2 0x200 SWAP2 SWAP1 PUSH2 0x22A7 JUMP JUMPDEST PUSH2 0x1815 JUMP JUMPDEST STOP JUMPDEST PUSH2 0x221 PUSH1 0x4 DUP1 CALLDATASIZE SUB DUP2 ADD SWAP1 PUSH2 0x21C SWAP2 SWAP1 PUSH2 0x1F12 JUMP JUMPDEST PUSH2 0x190D JUMP JUMPDEST STOP JUMPDEST PUSH1 0x1 DUP1 SLOAD PUSH2 0x230 SWAP1 PUSH2 0x231F JUMP JUMPDEST DUP1 PUSH1 0x1F ADD PUSH1 0x20 DUP1 SWAP2 DIV MUL PUSH1 0x20 ADD PUSH1 0x40 MLOAD SWAP1 DUP2 ADD PUSH1 0x40 MSTORE DUP1 SWAP3 SWAP2 SWAP1 DUP2 DUP2 MSTORE PUSH1 0x20 ADD DUP3 DUP1 SLOAD PUSH2 0x25C SWAP1 PUSH2 0x231F JUMP JUMPDEST DUP1 ISZERO PUSH2 0x2A7 JUMPI DUP1 PUSH1 0x1F LT PUSH2 0x27E JUMPI PUSH2 0x100 DUP1 DUP4 SLOAD DIV MUL DUP4 MSTORE SWAP2 PUSH1 0x20 ADD SWAP2 PUSH2 0x2A7 JUMP JUMPDEST DUP3 ADD SWAP2 SWAP1 PUSH0 MSTORE PUSH1 0x20 PUSH0 KECCAK256 SWAP1 JUMPDEST DUP2 SLOAD DUP2 MSTORE SWAP1 PUSH1 0x1 ADD SWAP1 PUSH1 0x20 ADD DUP1 DUP4 GT PUSH2 0x28A JUMPI DUP3 SWAP1 SUB PUSH1 0x1F AND DUP3 ADD SWAP2 JUMPDEST POP POP POP POP POP DUP2 JUMP JUMPDEST PUSH0 PUSH0 DUP3 PUSH1 0x1 PUSH1 0x40 MLOAD PUSH1 0x20 ADD PUSH2 0x2C5 SWAP3 SWAP2 SWAP1 PUSH2 0x2465 JUMP JUMPDEST PUSH1 0x40 MLOAD PUSH1 0x20 DUP2 DUP4 SUB SUB DUP2 MSTORE SWAP1 PUSH1 0x40 MSTORE SWAP1 POP PUSH0 PUSH32 0x0 PUSH20 0xFFFFFFFFFFFFFFFFFFFFFFFFFFFFFFFFFFFFFFFF AND PUSH4 0x16F1ADC1 DUP4 PUSH1 0x40 MLOAD DUP3 PUSH4 0xFFFFFFFF AND PUSH1 0xE0 SHL DUP2 MSTORE PUSH1 0x4 ADD PUSH2 0x330 SWAP2 SWAP1 PUSH2 0x24DD JUMP JUMPDEST PUSH0 PUSH1 0x40 MLOAD DUP1 DUP4 SUB DUP2 DUP7 GAS STATICCALL ISZERO DUP1 ISZERO PUSH2 0x34A JUMPI RETURNDATASIZE PUSH0 PUSH0 RETURNDATACOPY RETURNDATASIZE PUSH0 REVERT JUMPDEST POP POP POP POP PUSH1 0x40 MLOAD RETURNDATASIZE PUSH0 DUP3 RETURNDATACOPY RETURNDATASIZE PUSH1 0x1F NOT PUSH1 0x1F DUP3 ADD AND DUP3 ADD DUP1 PUSH1 0x40 MSTORE POP DUP2 ADD SWAP1 PUSH2 0x372 SWAP2 SWAP1 PUSH2 0x25AE JUMP JUMPDEST SWAP1 POP PUSH1 0x14 DUP2 MLOAD LT ISZERO PUSH2 0x3B9 JUMPI PUSH1 0x40 MLOAD PUSH32 0x8C379A000000000000000000000000000000000000000000000000000000000 DUP2 MSTORE PUSH1 0x4 ADD PUSH2 0x3B0 SWAP1 PUSH2 0x2665 JUMP JUMPDEST PUSH1 0x40 MLOAD DUP1 SWAP2 SUB SWAP1 REVERT JUMPDEST PUSH0 PUSH1 0x14 DUP3 ADD MLOAD SWAP1 POP DUP1 SWAP4 POP POP POP POP SWAP2 SWAP1 POP JUMP JUMPDEST PUSH1 0x2 PUSH1 0x20 MSTORE DUP1 PUSH0 MSTORE PUSH1 0x40 PUSH0 KECCAK256 PUSH0 SWAP2 POP SLOAD SWAP1 PUSH2 0x100 EXP SWAP1 DIV PUSH1 0xFF AND DUP2 JUMP JUMPDEST PUSH2 0x3F1 PUSH2 0x1991 JUMP JUMPDEST PUSH2 0x3FA PUSH0 PUSH2 0x1A18 JUMP JUMPDEST JUMP JUMPDEST PUSH2 0x404 PUSH2 0x1991 JUMP JUMPDEST PUSH0 PUSH2 0x451 DUP6 DUP6 DUP1 DUP1 PUSH1 0x1F ADD PUSH1 0x20 DUP1 SWAP2 DIV MUL PUSH1 0x20 ADD PUSH1 0x40 MLOAD SWAP1 DUP2 ADD PUSH1 0x40 MSTORE DUP1 SWAP4 SWAP3 SWAP2 SWAP1 DUP2 DUP2 MSTORE PUSH1 0x20 ADD DUP4 DUP4 DUP1 DUP3 DUP5 CALLDATACOPY PUSH0 DUP2 DUP5 ADD MSTORE PUSH1 0x1F NOT PUSH1 0x1F DUP3 ADD AND SWAP1 POP DUP1 DUP4 ADD SWAP3 POP POP POP POP POP POP POP PUSH2 0x2AF JUMP JUMPDEST SWAP1 POP PUSH1 0x2 PUSH0 DUP3 PUSH20 0xFFFFFFFFFFFFFFFFFFFFFFFFFFFFFFFFFFFFFFFF AND PUSH20 0xFFFFFFFFFFFFFFFFFFFFFFFFFFFFFFFFFFFFFFFF AND DUP2 MSTORE PUSH1 0x20 ADD SWAP1 DUP2 MSTORE PUSH1 0x20 ADD PUSH0 KECCAK256 PUSH0 SWAP1 SLOAD SWAP1 PUSH2 0x100 EXP SWAP1 DIV PUSH1 0xFF AND PUSH2 0x4DC JUMPI PUSH1 0x40 MLOAD PUSH32 0x8C379A000000000000000000000000000000000000000000000000000000000 DUP2 MSTORE PUSH1 0x4 ADD PUSH2 0x4D3 SWAP1 PUSH2 0x26CD JUMP JUMPDEST PUSH1 0x40 MLOAD DUP1 SWAP2 SUB SWAP1 REVERT JUMPDEST PUSH2 0x507 DUP7 DUP5 DUP4 PUSH20 0xFFFFFFFFFFFFFFFFFFFFFFFFFFFFFFFFFFFFFFFF AND PUSH2 0x1AD9 SWAP1 SWAP3 SWAP2 SWAP1 PUSH4 0xFFFFFFFF AND JUMP JUMPDEST PUSH0 PUSH1 0x6 PUSH8 0xFFFFFFFFFFFFFFFF DUP2 GT ISZERO PUSH2 0x523 JUMPI PUSH2 0x522 PUSH2 0x1D25 JUMP JUMPDEST JUMPDEST PUSH1 0x40 MLOAD SWAP1 DUP1 DUP3 MSTORE DUP1 PUSH1 0x20 MUL PUSH1 0x20 ADD DUP3 ADD PUSH1 0x40 MSTORE DUP1 ISZERO PUSH2 0x55C JUMPI DUP2 PUSH1 0x20 ADD JUMPDEST PUSH2 0x549 PUSH2 0x1C5B JUMP JUMPDEST DUP2 MSTORE PUSH1 0x20 ADD SWAP1 PUSH1 0x1 SWAP1 SUB SWAP1 DUP2 PUSH2 0x541 JUMPI SWAP1 POP JUMPDEST POP SWAP1 POP PUSH1 0x40 MLOAD DUP1 PUSH1 0x60 ADD PUSH1 0x40 MSTORE DUP1 PUSH1 0x40 MLOAD DUP1 PUSH1 0x40 ADD PUSH1 0x40 MSTORE DUP1 PUSH1 0x4 DUP2 MSTORE PUSH1 0x20 ADD PUSH32 0x7573657200000000000000000000000000000000000000000000000000000000 DUP2 MSTORE POP DUP2 MSTORE PUSH1 0x20 ADD PUSH1 0x40 MLOAD DUP1 PUSH1 0x40 ADD PUSH1 0x40 MSTORE DUP1 PUSH1 0x7 DUP2 MSTORE PUSH1 0x20 ADD PUSH32 0x6164647265737300000000000000000000000000000000000000000000000000 DUP2 MSTORE POP DUP2 MSTORE PUSH1 0x20 ADD DUP9 PUSH1 0x40 MLOAD PUSH1 0x20 ADD PUSH2 0x5F1 SWAP2 SWAP1 PUSH2 0x1ECF JUMP JUMPDEST PUSH1 0x40 MLOAD PUSH1 0x20 DUP2 DUP4 SUB SUB DUP2 MSTORE SWAP1 PUSH1 0x40 MSTORE DUP2 MSTORE POP DUP2 PUSH0 DUP2 MLOAD DUP2 LT PUSH2 0x616 JUMPI PUSH2 0x615 PUSH2 0x26EB JUMP JUMPDEST JUMPDEST PUSH1 0x20 MUL PUSH1 0x20 ADD ADD DUP2 SWAP1 MSTORE POP PUSH1 0x40 MLOAD DUP1 PUSH1 0x60 ADD PUSH1 0x40 MSTORE DUP1 PUSH1 0x40 MLOAD DUP1 PUSH1 0x40 ADD PUSH1 0x40 MSTORE DUP1 PUSH1 0x6 DUP2 MSTORE PUSH1 0x20 ADD PUSH32 0x616D6F756E740000000000000000000000000000000000000000000000000000 DUP2 MSTORE POP DUP2 MSTORE PUSH1 0x20 ADD PUSH1 0x40 MLOAD DUP1 PUSH1 0x40 ADD PUSH1 0x40 MSTORE DUP1 PUSH1 0x7 DUP2 MSTORE PUSH1 0x20 ADD PUSH32 0x75696E7432353600000000000000000000000000000000000000000000000000 DUP2 MSTORE POP DUP2 MSTORE PUSH1 0x20 ADD DUP6 PUSH1 0x40 MLOAD PUSH1 0x20 ADD PUSH2 0x6B3 SWAP2 SWAP1 PUSH2 0x2727 JUMP JUMPDEST PUSH1 0x40 MLOAD PUSH1 0x20 DUP2 DUP4 SUB SUB DUP2 MSTORE SWAP1 PUSH1 0x40 MSTORE DUP2 MSTORE POP DUP2 PUSH1 0x1 DUP2 MLOAD DUP2 LT PUSH2 0x6D9 JUMPI PUSH2 0x6D8 PUSH2 0x26EB JUMP JUMPDEST JUMPDEST PUSH1 0x20 MUL PUSH1 0x20 ADD ADD DUP2 SWAP1 MSTORE POP PUSH1 0x40 MLOAD DUP1 PUSH1 0x60 ADD PUSH1 0x40 MSTORE DUP1 PUSH1 0x40 MLOAD DUP1 PUSH1 0x40 ADD PUSH1 0x40 MSTORE DUP1 PUSH1 0x5 DUP2 MSTORE PUSH1 0x20 ADD PUSH32 0x746F6B656E000000000000000000000000000000000000000000000000000000 DUP2 MSTORE POP DUP2 MSTORE PUSH1 0x20 ADD PUSH1 0x40 MLOAD DUP1 PUSH1 0x40 ADD PUSH1 0x40 MSTORE DUP1 PUSH1 0x6 DUP2 MSTORE PUSH1 0x20 ADD PUSH32 0x737472696E670000000000000000000000000000000000000000000000000000 DUP2 MSTORE POP DUP2 MSTORE PUSH1 0x20 ADD DUP8 DUP8 PUSH1 0x40 MLOAD PUSH1 0x20 ADD PUSH2 0x778 SWAP3 SWAP2 SWAP1 PUSH2 0x276C JUMP JUMPDEST PUSH1 0x40 MLOAD PUSH1 0x20 DUP2 DUP4 SUB SUB DUP2 MSTORE SWAP1 PUSH1 0x40 MSTORE DUP2 MSTORE POP DUP2 PUSH1 0x2 DUP2 MLOAD DUP2 LT PUSH2 0x79E JUMPI PUSH2 0x79D PUSH2 0x26EB JUMP JUMPDEST JUMPDEST PUSH1 0x20 MUL PUSH1 0x20 ADD ADD DUP2 SWAP1 MSTORE POP PUSH1 0x40 MLOAD DUP1 PUSH1 0x60 ADD PUSH1 0x40 MSTORE DUP1 PUSH1 0x40 MLOAD DUP1 PUSH1 0x40 ADD PUSH1 0x40 MSTORE DUP1 PUSH1 0x8 DUP2 MSTORE PUSH1 0x20 ADD PUSH32 0x70726F7669646572000000000000000000000000000000000000000000000000 DUP2 MSTORE POP DUP2 MSTORE PUSH1 0x20 ADD PUSH1 0x40 MLOAD DUP1 PUSH1 0x40 ADD PUSH1 0x40 MSTORE DUP1 PUSH1 0x6 DUP2 MSTORE PUSH1 0x20 ADD PUSH32 0x737472696E670000000000000000000000000000000000000000000000000000 DUP2 MSTORE POP DUP2 MSTORE PUSH1 0x20 ADD PUSH1 0x1 PUSH1 0x40 MLOAD PUSH1 0x20 ADD PUSH2 0x83C SWAP2 SWAP1 PUSH2 0x280F JUMP JUMPDEST PUSH1 0x40 MLOAD PUSH1 0x20 DUP2 DUP4 SUB SUB DUP2 MSTORE SWAP1 PUSH1 0x40 MSTORE DUP2 MSTORE POP DUP2 PUSH1 0x3 DUP2 MLOAD DUP2 LT PUSH2 0x862 JUMPI PUSH2 0x861 PUSH2 0x26EB JUMP JUMPDEST JUMPDEST PUSH1 0x20 MUL PUSH1 0x20 ADD ADD DUP2 SWAP1 MSTORE POP PUSH1 0x40 MLOAD DUP1 PUSH1 0x60 ADD PUSH1 0x40 MSTORE DUP1 PUSH1 0x40 MLOAD DUP1 PUSH1 0x40 ADD PUSH1 0x40 MSTORE DUP1 PUSH1 0x9 DUP2 MSTORE PUSH1 0x20 ADD PUSH32 0x6E756C6C69666965720000000000000000000000000000000000000000000000 DUP2 MSTORE POP DUP2 MSTORE PUSH1 0x20 ADD PUSH1 0x40 MLOAD DUP1 PUSH1 0x40 ADD PUSH1 0x40 MSTORE DUP1 PUSH1 0x7 DUP2 MSTORE PUSH1 0x20 ADD PUSH32 0x75696E7432353600000000000000000000000000000000000000000000000000 DUP2 MSTORE POP DUP2 MSTORE PUSH1 0x20 ADD DUP5 PUSH1 0x40 MLOAD PUSH1 0x20 ADD PUSH2 0x8FF SWAP2 SWAP1 PUSH2 0x2727 JUMP JUMPDEST PUSH1 0x40 MLOAD PUSH1 0x20 DUP2 DUP4 SUB SUB DUP2 MSTORE SWAP1 PUSH1 0x40 MSTORE DUP2 MSTORE POP DUP2 PUSH1 0x4 DUP2 MLOAD DUP2 LT PUSH2 0x925 JUMPI PUSH2 0x924 PUSH2 0x26EB JUMP JUMPDEST JUMPDEST PUSH1 0x20 MUL PUSH1 0x20 ADD ADD DUP2 SWAP1 MSTORE POP PUSH1 0x40 MLOAD DUP1 PUSH1 0x60 ADD PUSH1 0x40 MSTORE DUP1 PUSH1 0x40 MLOAD DUP1 PUSH1 0x40 ADD PUSH1 0x40 MSTORE DUP1 PUSH1 0x9 DUP2 MSTORE PUSH1 0x20 ADD PUSH32 0x74696D657374616D700000000000000000000000000000000000000000000000 DUP2 MSTORE POP DUP2 MSTORE PUSH1 0x20 ADD PUSH1 0x40 MLOAD DUP1 PUSH1 0x40 ADD PUSH1 0x40 MSTORE DUP1 PUSH1 0x7 DUP2 MSTORE PUSH1 0x20 ADD PUSH32 0x75696E7432353600000000000000000000000000000000000000000000000000 DUP2 MSTORE POP DUP2 MSTORE PUSH1 0x20 ADD TIMESTAMP PUSH1 0x40 MLOAD PUSH1 0x20 ADD PUSH2 0x9C2 SWAP2 SWAP1 PUSH2 0x2727 JUMP JUMPDEST PUSH1 0x40 MLOAD PUSH1 0x20 DUP2 DUP4 SUB SUB DUP2 MSTORE SWAP1 PUSH1 0x40 MSTORE DUP2 MSTORE POP DUP2 PUSH1 0x5 DUP2 MLOAD DUP2 LT PUSH2 0x9E8 JUMPI PUSH2 0x9E7 PUSH2 0x26EB JUMP JUMPDEST JUMPDEST PUSH1 0x20 MUL PUSH1 0x20 ADD ADD DUP2 SWAP1 MSTORE POP PUSH32 0x0 PUSH20 0xFFFFFFFFFFFFFFFFFFFFFFFFFFFFFFFFFFFFFFFF AND PUSH4 0x7D64FA9B DUP3 PUSH1 0x40 MLOAD DUP3 PUSH4 0xFFFFFFFF AND PUSH1 0xE0 SHL DUP2 MSTORE PUSH1 0x4 ADD PUSH2 0xA4C SWAP2 SWAP1 PUSH2 0x2A29 JUMP JUMPDEST PUSH0 PUSH1 0x40 MLOAD DUP1 DUP4 SUB DUP2 PUSH0 DUP8 DUP1 EXTCODESIZE ISZERO DUP1 ISZERO PUSH2 0xA63 JUMPI PUSH0 PUSH0 REVERT JUMPDEST POP GAS CALL ISZERO DUP1 ISZERO PUSH2 0xA75 JUMPI RETURNDATASIZE PUSH0 PUSH0 RETURNDATACOPY RETURNDATASIZE PUSH0 REVERT JUMPDEST POP POP POP POP DUP2 PUSH20 0xFFFFFFFFFFFFFFFFFFFFFFFFFFFFFFFFFFFFFFFF AND DUP8 PUSH20 0xFFFFFFFFFFFFFFFFFFFFFFFFFFFFFFFFFFFFFFFF AND PUSH32 0xCC4F8702356931E6D23A93D1B60BEAC6A7EA77D447ADA4B1502A09D0B7125709 DUP7 PUSH1 0x1 PUSH1 0x40 MLOAD PUSH2 0xAD9 SWAP3 SWAP2 SWAP1 PUSH2 0x2A5C JUMP JUMPDEST PUSH1 0x40 MLOAD DUP1 SWAP2 SUB SWAP1 LOG3 POP POP POP POP POP POP POP JUMP JUMPDEST PUSH0 PUSH0 PUSH0 SWAP1 SLOAD SWAP1 PUSH2 0x100 EXP SWAP1 DIV PUSH20 0xFFFFFFFFFFFFFFFFFFFFFFFFFFFFFFFFFFFFFFFF AND SWAP1 POP SWAP1 JUMP JUMPDEST PUSH0 PUSH2 0xB5E DUP5 DUP5 DUP1 DUP1 PUSH1 0x1F ADD PUSH1 0x20 DUP1 SWAP2 DIV MUL PUSH1 0x20 ADD PUSH1 0x40 MLOAD SWAP1 DUP2 ADD PUSH1 0x40 MSTORE DUP1 SWAP4 SWAP3 SWAP2 SWAP1 DUP2 DUP2 MSTORE PUSH1 0x20 ADD DUP4 DUP4 DUP1 DUP3 DUP5 CALLDATACOPY PUSH0 DUP2 DUP5 ADD MSTORE PUSH1 0x1F NOT PUSH1 0x1F DUP3 ADD AND SWAP1 POP DUP1 DUP4 ADD SWAP3 POP POP POP POP POP POP POP PUSH2 0x2AF JUMP JUMPDEST SWAP1 POP PUSH1 0x2 PUSH0 DUP3 PUSH20 0xFFFFFFFFFFFFFFFFFFFFFFFFFFFFFFFFFFFFFFFF AND PUSH20 0xFFFFFFFFFFFFFFFFFFFFFFFFFFFFFFFFFFFFFFFF AND DUP2 MSTORE PUSH1 0x20 ADD SWAP1 DUP2 MSTORE PUSH1 0x20 ADD PUSH0 KECCAK256 PUSH0 SWAP1 SLOAD SWAP1 PUSH2 0x100 EXP SWAP1 DIV PUSH1 0xFF AND PUSH2 0xBE9 JUMPI PUSH1 0x40 MLOAD PUSH32 0x8C379A000000000000000000000000000000000000000000000000000000000 DUP2 MSTORE PUSH1 0x4 ADD PUSH2 0xBE0 SWAP1 PUSH2 0x26CD JUMP JUMPDEST PUSH1 0x40 MLOAD DUP1 SWAP2 SUB SWAP1 REVERT JUMPDEST PUSH0 DUP3 GT PUSH2 0xC2B JUMPI PUSH1 0x40 MLOAD PUSH32 0x8C379A000000000000000000000000000000000000000000000000000000000 DUP2 MSTORE PUSH1 0x4 ADD PUSH2 0xC22 SWAP1 PUSH2 0x2AD4 JUMP JUMPDEST PUSH1 0x40 MLOAD DUP1 SWAP2 SUB SWAP1 REVERT JUMPDEST PUSH2 0xC58 CALLER ADDRESS DUP5 DUP5 PUSH20 0xFFFFFFFFFFFFFFFFFFFFFFFFFFFFFFFFFFFFFFFF AND PUSH2 0x1B2C SWAP1 SWAP4 SWAP3 SWAP2 SWAP1 PUSH4 0xFFFFFFFF AND JUMP JUMPDEST PUSH0 PUSH1 0x5 PUSH8 0xFFFFFFFFFFFFFFFF DUP2 GT ISZERO PUSH2 0xC74 JUMPI PUSH2 0xC73 PUSH2 0x1D25 JUMP JUMPDEST JUMPDEST PUSH1 0x40 MLOAD SWAP1 DUP1 DUP3 MSTORE DUP1 PUSH1 0x20 MUL PUSH1 0x20 ADD DUP3 ADD PUSH1 0x40 MSTORE DUP1 ISZERO PUSH2 0xCAD JUMPI DUP2 PUSH1 0x20 ADD JUMPDEST PUSH2 0xC9A PUSH2 0x1C5B JUMP JUMPDEST DUP2 MSTORE PUSH1 0x20 ADD SWAP1 PUSH1 0x1 SWAP1 SUB SWAP1 DUP2 PUSH2 0xC92 JUMPI SWAP1 POP JUMPDEST POP SWAP1 POP PUSH1 0x40 MLOAD DUP1 PUSH1 0x60 ADD PUSH1 0x40 MSTORE DUP1 PUSH1 0x40 MLOAD DUP1 PUSH1 0x40 ADD PUSH1 0x40 MSTORE DUP1 PUSH1 0x4 DUP2 MSTORE PUSH1 0x20 ADD PUSH32 0x7573657200000000000000000000000000000000000000000000000000000000 DUP2 MSTORE POP DUP2 MSTORE PUSH1 0x20 ADD PUSH1 0x40 MLOAD DUP1 PUSH1 0x40 ADD PUSH1 0x40 MSTORE DUP1 PUSH1 0x7 DUP2 MSTORE PUSH1 0x20 ADD PUSH32 0x6164647265737300000000000000000000000000000000000000000000000000 DUP2 MSTORE POP DUP2 MSTORE PUSH1 0x20 ADD CALLER PUSH1 0x40 MLOAD PUSH1 0x20 ADD PUSH2 0xD42 SWAP2 SWAP1 PUSH2 0x1ECF JUMP JUMPDEST PUSH1 0x40 MLOAD PUSH1 0x20 DUP2 DUP4 SUB SUB DUP2 MSTORE SWAP1 PUSH1 0x40 MSTORE DUP2 MSTORE POP DUP2 PUSH0 DUP2 MLOAD DUP2 LT PUSH2 0xD67 JUMPI PUSH2 0xD66 PUSH2 0x26EB JUMP JUMPDEST JUMPDEST PUSH1 0x20 MUL PUSH1 0x20 ADD ADD DUP2 SWAP1 MSTORE POP PUSH1 0x40 MLOAD DUP1 PUSH1 0x60 ADD PUSH1 0x40 MSTORE DUP1 PUSH1 0x40 MLOAD DUP1 PUSH1 0x40 ADD PUSH1 0x40 MSTORE DUP1 PUSH1 0x6 DUP2 MSTORE PUSH1 0x20 ADD PUSH32 0x616D6F756E740000000000000000000000000000000000000000000000000000 DUP2 MSTORE POP DUP2 MSTORE PUSH1 0x20 ADD PUSH1 0x40 MLOAD DUP1 PUSH1 0x40 ADD PUSH1 0x40 MSTORE DUP1 PUSH1 0x7 DUP2 MSTORE PUSH1 0x20 ADD PUSH32 0x75696E7432353600000000000000000000000000000000000000000000000000 DUP2 MSTORE POP DUP2 MSTORE PUSH1 0x20 ADD DUP5 PUSH1 0x40 MLOAD PUSH1 0x20 ADD PUSH2 0xE04 SWAP2 SWAP1 PUSH2 0x2727 JUMP JUMPDEST PUSH1 0x40 MLOAD PUSH1 0x20 DUP2 DUP4 SUB SUB DUP2 MSTORE SWAP1 PUSH1 0x40 MSTORE DUP2 MSTORE POP DUP2 PUSH1 0x1 DUP2 MLOAD DUP2 LT PUSH2 0xE2A JUMPI PUSH2 0xE29 PUSH2 0x26EB JUMP JUMPDEST JUMPDEST PUSH1 0x20 MUL PUSH1 0x20 ADD ADD DUP2 SWAP1 MSTORE POP PUSH1 0x40 MLOAD DUP1 PUSH1 0x60 ADD PUSH1 0x40 MSTORE DUP1 PUSH1 0x40 MLOAD DUP1 PUSH1 0x40 ADD PUSH1 0x40 MSTORE DUP1 PUSH1 0x5 DUP2 MSTORE PUSH1 0x20 ADD PUSH32 0x746F6B656E000000000000000000000000000000000000000000000000000000 DUP2 MSTORE POP DUP2 MSTORE PUSH1 0x20 ADD PUSH1 0x40 MLOAD DUP1 PUSH1 0x40 ADD PUSH1 0x40 MSTORE DUP1 PUSH1 0x6 DUP2 MSTORE PUSH1 0x20 ADD PUSH32 0x737472696E670000000000000000000000000000000000000000000000000000 DUP2 MSTORE POP DUP2 MSTORE PUSH1 0x20 ADD DUP7 DUP7 PUSH1 0x40 MLOAD PUSH1 0x20 ADD PUSH2 0xEC9 SWAP3 SWAP2 SWAP1 PUSH2 0x276C JUMP JUMPDEST PUSH1 0x40 MLOAD PUSH1 0x20 DUP2 DUP4 SUB SUB DUP2 MSTORE SWAP1 PUSH1 0x40 MSTORE DUP2 MSTORE POP DUP2 PUSH1 0x2 DUP2 MLOAD DUP2 LT PUSH2 0xEEF JUMPI PUSH2 0xEEE PUSH2 0x26EB JUMP JUMPDEST JUMPDEST PUSH1 0x20 MUL PUSH1 0x20 ADD ADD DUP2 SWAP1 MSTORE POP PUSH1 0x40 MLOAD DUP1 PUSH1 0x60 ADD PUSH1 0x40 MSTORE DUP1 PUSH1 0x40 MLOAD DUP1 PUSH1 0x40 ADD PUSH1 0x40 MSTORE DUP1 PUSH1 0x8 DUP2 MSTORE PUSH1 0x20 ADD PUSH32 0x70726F7669646572000000000000000000000000000000000000000000000000 DUP2 MSTORE POP DUP2 MSTORE PUSH1 0x20 ADD PUSH1 0x40 MLOAD DUP1 PUSH1 0x40 ADD PUSH1 0x40 MSTORE DUP1 PUSH1 0x6 DUP2 MSTORE PUSH1 0x20 ADD PUSH32 0x737472696E670000000000000000000000000000000000000000000000000000 DUP2 MSTORE POP DUP2 MSTORE PUSH1 0x20 ADD PUSH1 0x1 PUSH1 0x40 MLOAD PUSH1 0x20 ADD PUSH2 0xF8D SWAP2 SWAP1 PUSH2 0x280F JUMP JUMPDEST PUSH1 0x40 MLOAD PUSH1 0x20 DUP2 DUP4 SUB SUB DUP2 MSTORE SWAP1 PUSH1 0x40 MSTORE DUP2 MSTORE POP DUP2 PUSH1 0x3 DUP2 MLOAD DUP2 LT PUSH2 0xFB3 JUMPI PUSH2 0xFB2 PUSH2 0x26EB JUMP JUMPDEST JUMPDEST PUSH1 0x20 MUL PUSH1 0x20 ADD ADD DUP2 SWAP1 MSTORE POP PUSH1 0x40 MLOAD DUP1 PUSH1 0x60 ADD PUSH1 0x40 MSTORE DUP1 PUSH1 0x40 MLOAD DUP1 PUSH1 0x40 ADD PUSH1 0x40 MSTORE DUP1 PUSH1 0x9 DUP2 MSTORE PUSH1 0x20 ADD PUSH32 0x74696D657374616D700000000000000000000000000000000000000000000000 DUP2 MSTORE POP DUP2 MSTORE PUSH1 0x20 ADD PUSH1 0x40 MLOAD DUP1 PUSH1 0x40 ADD PUSH1 0x40 MSTORE DUP1 PUSH1 0x7 DUP2 MSTORE PUSH1 0x20 ADD PUSH32 0x75696E7432353600000000000000000000000000000000000000000000000000 DUP2 MSTORE POP DUP2 MSTORE PUSH1 0x20 ADD TIMESTAMP PUSH1 0x40 MLOAD PUSH1 0x20 ADD PUSH2 0x1050 SWAP2 SWAP1 PUSH2 0x2727 JUMP JUMPDEST PUSH1 0x40 MLOAD PUSH1 0x20 DUP2 DUP4 SUB SUB DUP2 MSTORE SWAP1 PUSH1 0x40 MSTORE DUP2 MSTORE POP DUP2 PUSH1 0x4 DUP2 MLOAD DUP2 LT PUSH2 0x1076 JUMPI PUSH2 0x1075 PUSH2 0x26EB JUMP JUMPDEST JUMPDEST PUSH1 0x20 MUL PUSH1 0x20 ADD ADD DUP2 SWAP1 MSTORE POP PUSH32 0x0 PUSH20 0xFFFFFFFFFFFFFFFFFFFFFFFFFFFFFFFFFFFFFFFF AND PUSH4 0x7D64FA9B DUP3 PUSH1 0x40 MLOAD DUP3 PUSH4 0xFFFFFFFF AND PUSH1 0xE0 SHL DUP2 MSTORE PUSH1 0x4 ADD PUSH2 0x10DA SWAP2 SWAP1 PUSH2 0x2B3C JUMP JUMPDEST PUSH0 PUSH1 0x40 MLOAD DUP1 DUP4 SUB DUP2 PUSH0 DUP8 DUP1 EXTCODESIZE ISZERO DUP1 ISZERO PUSH2 0x10F1 JUMPI PUSH0 PUSH0 REVERT JUMPDEST POP GAS CALL ISZERO DUP1 ISZERO PUSH2 0x1103 JUMPI RETURNDATASIZE PUSH0 PUSH0 RETURNDATACOPY RETURNDATASIZE PUSH0 REVERT JUMPDEST POP POP POP POP DUP2 PUSH20 0xFFFFFFFFFFFFFFFFFFFFFFFFFFFFFFFFFFFFFFFF AND CALLER PUSH20 0xFFFFFFFFFFFFFFFFFFFFFFFFFFFFFFFFFFFFFFFF AND PUSH32 0xEF519B7EB82AAF6AC376A6DF2D793843EBFD593DE5F1A0601D3CC6AB49EBB395 DUP6 PUSH1 0x1 PUSH1 0x40 MLOAD PUSH2 0x1167 SWAP3 SWAP2 SWAP1 PUSH2 0x2A5C JUMP JUMPDEST PUSH1 0x40 MLOAD DUP1 SWAP2 SUB SWAP1 LOG3 POP POP POP POP POP JUMP JUMPDEST PUSH32 0x0 DUP2 JUMP JUMPDEST PUSH32 0x0 DUP2 JUMP JUMPDEST PUSH0 PUSH2 0x120B DUP5 DUP5 DUP1 DUP1 PUSH1 0x1F ADD PUSH1 0x20 DUP1 SWAP2 DIV MUL PUSH1 0x20 ADD PUSH1 0x40 MLOAD SWAP1 DUP2 ADD PUSH1 0x40 MSTORE DUP1 SWAP4 SWAP3 SWAP2 SWAP1 DUP2 DUP2 MSTORE PUSH1 0x20 ADD DUP4 DUP4 DUP1 DUP3 DUP5 CALLDATACOPY PUSH0 DUP2 DUP5 ADD MSTORE PUSH1 0x1F NOT PUSH1 0x1F DUP3 ADD AND SWAP1 POP DUP1 DUP4 ADD SWAP3 POP POP POP POP POP POP POP PUSH2 0x2AF JUMP JUMPDEST SWAP1 POP PUSH1 0x2 PUSH0 DUP3 PUSH20 0xFFFFFFFFFFFFFFFFFFFFFFFFFFFFFFFFFFFFFFFF AND PUSH20 0xFFFFFFFFFFFFFFFFFFFFFFFFFFFFFFFFFFFFFFFF AND DUP2 MSTORE PUSH1 0x20 ADD SWAP1 DUP2 MSTORE PUSH1 0x20 ADD PUSH0 KECCAK256 PUSH0 SWAP1 SLOAD SWAP1 PUSH2 0x100 EXP SWAP1 DIV PUSH1 0xFF AND PUSH2 0x1296 JUMPI PUSH1 0x40 MLOAD PUSH32 0x8C379A000000000000000000000000000000000000000000000000000000000 DUP2 MSTORE PUSH1 0x4 ADD PUSH2 0x128D SWAP1 PUSH2 0x26CD JUMP JUMPDEST PUSH1 0x40 MLOAD DUP1 SWAP2 SUB SWAP1 REVERT JUMPDEST PUSH0 PUSH1 0x6 PUSH8 0xFFFFFFFFFFFFFFFF DUP2 GT ISZERO PUSH2 0x12B2 JUMPI PUSH2 0x12B1 PUSH2 0x1D25 JUMP JUMPDEST JUMPDEST PUSH1 0x40 MLOAD SWAP1 DUP1 DUP3 MSTORE DUP1 PUSH1 0x20 MUL PUSH1 0x20 ADD DUP3 ADD PUSH1 0x40 MSTORE DUP1 ISZERO PUSH2 0x12EB JUMPI DUP2 PUSH1 0x20 ADD JUMPDEST PUSH2 0x12D8 PUSH2 0x1C5B JUMP JUMPDEST DUP2 MSTORE PUSH1 0x20 ADD SWAP1 PUSH1 0x1 SWAP1 SUB SWAP1 DUP2 PUSH2 0x12D0 JUMPI SWAP1 POP JUMPDEST POP SWAP1 POP PUSH1 0x40 MLOAD DUP1 PUSH1 0x60 ADD PUSH1 0x40 MSTORE DUP1 PUSH1 0x40 MLOAD DUP1 PUSH1 0x40 ADD PUSH1 0x40 MSTORE DUP1 PUSH1 0x4 DUP2 MSTORE PUSH1 0x20 ADD PUSH32 0x7573657200000000000000000000000000000000000000000000000000000000 DUP2 MSTORE POP DUP2 MSTORE PUSH1 0x20 ADD PUSH1 0x40 MLOAD DUP1 PUSH1 0x40 ADD PUSH1 0x40 MSTORE DUP1 PUSH1 0x5 DUP2 MSTORE PUSH1 0x20 ADD PUSH32 0x6279746573000000000000000000000000000000000000000000000000000000 DUP2 MSTORE POP DUP2 MSTORE PUSH1 0x20 ADD DUP11 DUP11 PUSH1 0x40 MLOAD PUSH1 0x20 ADD PUSH2 0x1382 SWAP3 SWAP2 SWAP1 PUSH2 0x2BAB JUMP JUMPDEST PUSH1 0x40 MLOAD PUSH1 0x20 DUP2 DUP4 SUB SUB DUP2 MSTORE SWAP1 PUSH1 0x40 MSTORE DUP2 MSTORE POP DUP2 PUSH0 DUP2 MLOAD DUP2 LT PUSH2 0x13A7 JUMPI PUSH2 0x13A6 PUSH2 0x26EB JUMP JUMPDEST JUMPDEST PUSH1 0x20 MUL PUSH1 0x20 ADD ADD DUP2 SWAP1 MSTORE POP PUSH1 0x40 MLOAD DUP1 PUSH1 0x60 ADD PUSH1 0x40 MSTORE DUP1 PUSH1 0x40 MLOAD DUP1 PUSH1 0x40 ADD PUSH1 0x40 MSTORE DUP1 PUSH1 0x6 DUP2 MSTORE PUSH1 0x20 ADD PUSH32 0x7368617265640000000000000000000000000000000000000000000000000000 DUP2 MSTORE POP DUP2 MSTORE PUSH1 0x20 ADD PUSH1 0x40 MLOAD DUP1 PUSH1 0x40 ADD PUSH1 0x40 MSTORE DUP1 PUSH1 0x7 DUP2 MSTORE PUSH1 0x20 ADD PUSH32 0x6164647265737300000000000000000000000000000000000000000000000000 DUP2 MSTORE POP DUP2 MSTORE PUSH1 0x20 ADD DUP9 DUP9 PUSH1 0x40 MLOAD PUSH1 0x20 ADD PUSH2 0x1446 SWAP3 SWAP2 SWAP1 PUSH2 0x276C JUMP JUMPDEST PUSH1 0x40 MLOAD PUSH1 0x20 DUP2 DUP4 SUB SUB DUP2 MSTORE SWAP1 PUSH1 0x40 MSTORE DUP2 MSTORE POP DUP2 PUSH1 0x1 DUP2 MLOAD DUP2 LT PUSH2 0x146C JUMPI PUSH2 0x146B PUSH2 0x26EB JUMP JUMPDEST JUMPDEST PUSH1 0x20 MUL PUSH1 0x20 ADD ADD DUP2 SWAP1 MSTORE POP PUSH1 0x40 MLOAD DUP1 PUSH1 0x60 ADD PUSH1 0x40 MSTORE DUP1 PUSH1 0x40 MLOAD DUP1 PUSH1 0x40 ADD PUSH1 0x40 MSTORE DUP1 PUSH1 0x6 DUP2 MSTORE PUSH1 0x20 ADD PUSH32 0x616D6F756E740000000000000000000000000000000000000000000000000000 DUP2 MSTORE POP DUP2 MSTORE PUSH1 0x20 ADD PUSH1 0x40 MLOAD DUP1 PUSH1 0x40 ADD PUSH1 0x40 MSTORE DUP1 PUSH1 0x7 DUP2 MSTORE PUSH1 0x20 ADD PUSH32 0x75696E7432353600000000000000000000000000000000000000000000000000 DUP2 MSTORE POP DUP2 MSTORE PUSH1 0x20 ADD DUP5 PUSH1 0x40 MLOAD PUSH1 0x20 ADD PUSH2 0x1509 SWAP2 SWAP1 PUSH2 0x2727 JUMP JUMPDEST PUSH1 0x40 MLOAD PUSH1 0x20 DUP2 DUP4 SUB SUB DUP2 MSTORE SWAP1 PUSH1 0x40 MSTORE DUP2 MSTORE POP DUP2 PUSH1 0x2 DUP2 MLOAD DUP2 LT PUSH2 0x152F JUMPI PUSH2 0x152E PUSH2 0x26EB JUMP JUMPDEST JUMPDEST PUSH1 0x20 MUL PUSH1 0x20 ADD ADD DUP2 SWAP1 MSTORE POP PUSH1 0x40 MLOAD DUP1 PUSH1 0x60 ADD PUSH1 0x40 MSTORE DUP1 PUSH1 0x40 MLOAD DUP1 PUSH1 0x40 ADD PUSH1 0x40 MSTORE DUP1 PUSH1 0x5 DUP2 MSTORE PUSH1 0x20 ADD PUSH32 0x636861696E000000000000000000000000000000000000000000000000000000 DUP2 MSTORE POP DUP2 MSTORE PUSH1 0x20 ADD PUSH1 0x40 MLOAD DUP1 PUSH1 0x40 ADD PUSH1 0x40 MSTORE DUP1 PUSH1 0x6 DUP2 MSTORE PUSH1 0x20 ADD PUSH32 0x737472696E670000000000000000000000000000000000000000000000000000 DUP2 MSTORE POP DUP2 MSTORE PUSH1 0x20 ADD PUSH1 0x40 MLOAD PUSH1 0x20 ADD PUSH2 0x15CA SWAP1 PUSH2 0x2C17 JUMP JUMPDEST PUSH1 0x40 MLOAD PUSH1 0x20 DUP2 DUP4 SUB SUB DUP2 MSTORE SWAP1 PUSH1 0x40 MSTORE DUP2 MSTORE POP DUP2 PUSH1 0x3 DUP2 MLOAD DUP2 LT PUSH2 0x15F0 JUMPI PUSH2 0x15EF PUSH2 0x26EB JUMP JUMPDEST JUMPDEST PUSH1 0x20 MUL PUSH1 0x20 ADD ADD DUP2 SWAP1 MSTORE POP PUSH1 0x40 MLOAD DUP1 PUSH1 0x60 ADD PUSH1 0x40 MSTORE DUP1 PUSH1 0x40 MLOAD DUP1 PUSH1 0x40 ADD PUSH1 0x40 MSTORE DUP1 PUSH1 0x8 DUP2 MSTORE PUSH1 0x20 ADD PUSH32 0x70726F7669646572000000000000000000000000000000000000000000000000 DUP2 MSTORE POP DUP2 MSTORE PUSH1 0x20 ADD PUSH1 0x40 MLOAD DUP1 PUSH1 0x40 ADD PUSH1 0x40 MSTORE DUP1 PUSH1 0x6 DUP2 MSTORE PUSH1 0x20 ADD PUSH32 0x737472696E670000000000000000000000000000000000000000000000000000 DUP2 MSTORE POP DUP2 MSTORE PUSH1 0x20 ADD PUSH1 0x1 PUSH1 0x40 MLOAD PUSH1 0x20 ADD PUSH2 0x168E SWAP2 SWAP1 PUSH2 0x280F JUMP JUMPDEST PUSH1 0x40 MLOAD PUSH1 0x20 DUP2 DUP4 SUB SUB DUP2 MSTORE SWAP1 PUSH1 0x40 MSTORE DUP2 MSTORE POP DUP2 PUSH1 0x4 DUP2 MLOAD DUP2 LT PUSH2 0x16B4 JUMPI PUSH2 0x16B3 PUSH2 0x26EB JUMP JUMPDEST JUMPDEST PUSH1 0x20 MUL PUSH1 0x20 ADD ADD DUP2 SWAP1 MSTORE POP PUSH1 0x40 MLOAD DUP1 PUSH1 0x60 ADD PUSH1 0x40 MSTORE DUP1 PUSH1 0x40 MLOAD DUP1 PUSH1 0x40 ADD PUSH1 0x40 MSTORE DUP1 PUSH1 0x5 DUP2 MSTORE PUSH1 0x20 ADD PUSH32 0x746F6B656E000000000000000000000000000000000000000000000000000000 DUP2 MSTORE POP DUP2 MSTORE PUSH1 0x20 ADD PUSH1 0x40 MLOAD DUP1 PUSH1 0x40 ADD PUSH1 0x40 MSTORE DUP1 PUSH1 0x6 DUP2 MSTORE PUSH1 0x20 ADD PUSH32 0x737472696E670000000000000000000000000000000000000000000000000000 DUP2 MSTORE POP DUP2 MSTORE PUSH1 0x20 ADD DUP7 DUP7 PUSH1 0x40 MLOAD PUSH1 0x20 ADD PUSH2 0x1753 SWAP3 SWAP2 SWAP1 PUSH2 0x276C JUMP JUMPDEST PUSH1 0x40 MLOAD PUSH1 0x20 DUP2 DUP4 SUB SUB DUP2 MSTORE SWAP1 PUSH1 0x40 MSTORE DUP2 MSTORE POP DUP2 PUSH1 0x5 DUP2 MLOAD DUP2 LT PUSH2 0x1779 JUMPI PUSH2 0x1778 PUSH2 0x26EB JUMP JUMPDEST JUMPDEST PUSH1 0x20 MUL PUSH1 0x20 ADD ADD DUP2 SWAP1 MSTORE POP PUSH32 0x0 PUSH20 0xFFFFFFFFFFFFFFFFFFFFFFFFFFFFFFFFFFFFFFFF AND PUSH4 0x7D64FA9B DUP3 PUSH1 0x40 MLOAD DUP3 PUSH4 0xFFFFFFFF AND PUSH1 0xE0 SHL DUP2 MSTORE PUSH1 0x4 ADD PUSH2 0x17DD SWAP2 SWAP1 PUSH2 0x2C7F JUMP JUMPDEST PUSH0 PUSH1 0x40 MLOAD DUP1 DUP4 SUB DUP2 PUSH0 DUP8 DUP1 EXTCODESIZE ISZERO DUP1 ISZERO PUSH2 0x17F4 JUMPI PUSH0 PUSH0 REVERT JUMPDEST POP GAS CALL ISZERO DUP1 ISZERO PUSH2 0x1806 JUMPI RETURNDATASIZE PUSH0 PUSH0 RETURNDATACOPY RETURNDATASIZE PUSH0 REVERT JUMPDEST POP POP POP POP POP POP POP POP POP POP POP POP POP JUMP JUMPDEST PUSH0 PUSH2 0x1862 DUP4 DUP4 DUP1 DUP1 PUSH1 0x1F ADD PUSH1 0x20 DUP1 SWAP2 DIV MUL PUSH1 0x20 ADD PUSH1 0x40 MLOAD SWAP1 DUP2 ADD PUSH1 0x40 MSTORE DUP1 SWAP4 SWAP3 SWAP2 SWAP1 DUP2 DUP2 MSTORE PUSH1 0x20 ADD DUP4 DUP4 DUP1 DUP3 DUP5 CALLDATACOPY PUSH0 DUP2 DUP5 ADD MSTORE PUSH1 0x1F NOT PUSH1 0x1F DUP3 ADD AND SWAP1 POP DUP1 DUP4 ADD SWAP3 POP POP POP POP POP POP POP PUSH2 0x2AF JUMP JUMPDEST SWAP1 POP PUSH1 0x1 PUSH1 0x2 PUSH0 DUP4 PUSH20 0xFFFFFFFFFFFFFFFFFFFFFFFFFFFFFFFFFFFFFFFF AND PUSH20 0xFFFFFFFFFFFFFFFFFFFFFFFFFFFFFFFFFFFFFFFF AND DUP2 MSTORE PUSH1 0x20 ADD SWAP1 DUP2 MSTORE PUSH1 0x20 ADD PUSH0 KECCAK256 PUSH0 PUSH2 0x100 EXP DUP2 SLOAD DUP2 PUSH1 0xFF MUL NOT AND SWAP1 DUP4 ISZERO ISZERO MUL OR SWAP1 SSTORE POP DUP1 PUSH20 0xFFFFFFFFFFFFFFFFFFFFFFFFFFFFFFFFFFFFFFFF AND PUSH32 0xD57B1148EFB91F418A2178FC1FB4BA12F9400A4DC8E71851FD59E85D337C609F PUSH1 0x1 PUSH1 0x40 MLOAD PUSH2 0x1900 SWAP2 SWAP1 PUSH2 0x280F JUMP JUMPDEST PUSH1 0x40 MLOAD DUP1 SWAP2 SUB SWAP1 LOG2 POP POP POP JUMP JUMPDEST PUSH2 0x1915 PUSH2 0x1991 JUMP JUMPDEST PUSH0 PUSH20 0xFFFFFFFFFFFFFFFFFFFFFFFFFFFFFFFFFFFFFFFF AND DUP2 PUSH20 0xFFFFFFFFFFFFFFFFFFFFFFFFFFFFFFFFFFFFFFFF AND SUB PUSH2 0x1985 JUMPI PUSH0 PUSH1 0x40 MLOAD PUSH32 0x1E4FBDF700000000000000000000000000000000000000000000000000000000 DUP2 MSTORE PUSH1 0x4 ADD PUSH2 0x197C SWAP2 SWAP1 PUSH2 0x1ECF JUMP JUMPDEST PUSH1 0x40 MLOAD DUP1 SWAP2 SUB SWAP1 REVERT JUMPDEST PUSH2 0x198E DUP2 PUSH2 0x1A18 JUMP JUMPDEST POP JUMP JUMPDEST PUSH2 0x1999 PUSH2 0x1B81 JUMP JUMPDEST PUSH20 0xFFFFFFFFFFFFFFFFFFFFFFFFFFFFFFFFFFFFFFFF AND PUSH2 0x19B7 PUSH2 0xAEA JUMP JUMPDEST PUSH20 0xFFFFFFFFFFFFFFFFFFFFFFFFFFFFFFFFFFFFFFFF AND EQ PUSH2 0x1A16 JUMPI PUSH2 0x19DA PUSH2 0x1B81 JUMP JUMPDEST PUSH1 0x40 MLOAD PUSH32 0x118CDAA700000000000000000000000000000000000000000000000000000000 DUP2 MSTORE PUSH1 0x4 ADD PUSH2 0x1A0D SWAP2 SWAP1 PUSH2 0x1ECF JUMP JUMPDEST PUSH1 0x40 MLOAD DUP1 SWAP2 SUB SWAP1 REVERT JUMPDEST JUMP JUMPDEST PUSH0 PUSH0 PUSH0 SWAP1 SLOAD SWAP1 PUSH2 0x100 EXP SWAP1 DIV PUSH20 0xFFFFFFFFFFFFFFFFFFFFFFFFFFFFFFFFFFFFFFFF AND SWAP1 POP DUP2 PUSH0 PUSH0 PUSH2 0x100 EXP DUP2 SLOAD DUP2 PUSH20 0xFFFFFFFFFFFFFFFFFFFFFFFFFFFFFFFFFFFFFFFF MUL NOT AND SWAP1 DUP4 PUSH20 0xFFFFFFFFFFFFFFFFFFFFFFFFFFFFFFFFFFFFFFFF AND MUL OR SWAP1 SSTORE POP DUP2 PUSH20 0xFFFFFFFFFFFFFFFFFFFFFFFFFFFFFFFFFFFFFFFF AND DUP2 PUSH20 0xFFFFFFFFFFFFFFFFFFFFFFFFFFFFFFFFFFFFFFFF AND PUSH32 0x8BE0079C531659141344CD1FD0A4F28419497F9722A3DAAFE3B4186F6B6457E0 PUSH1 0x40 MLOAD PUSH1 0x40 MLOAD DUP1 SWAP2 SUB SWAP1 LOG3 POP POP JUMP JUMPDEST PUSH2 0x1AE6 DUP4 DUP4 DUP4 PUSH1 0x1 PUSH2 0x1B88 JUMP JUMPDEST PUSH2 0x1B27 JUMPI DUP3 PUSH1 0x40 MLOAD PUSH32 0x5274AFE700000000000000000000000000000000000000000000000000000000 DUP2 MSTORE PUSH1 0x4 ADD PUSH2 0x1B1E SWAP2 SWAP1 PUSH2 0x1ECF JUMP JUMPDEST PUSH1 0x40 MLOAD DUP1 SWAP2 SUB SWAP1 REVERT JUMPDEST POP POP POP JUMP JUMPDEST PUSH2 0x1B3A DUP5 DUP5 DUP5 DUP5 PUSH1 0x1 PUSH2 0x1BEA JUMP JUMPDEST PUSH2 0x1B7B JUMPI DUP4 PUSH1 0x40 MLOAD PUSH32 0x5274AFE700000000000000000000000000000000000000000000000000000000 DUP2 MSTORE PUSH1 0x4 ADD PUSH2 0x1B72 SWAP2 SWAP1 PUSH2 0x1ECF JUMP JUMPDEST PUSH1 0x40 MLOAD DUP1 SWAP2 SUB SWAP1 REVERT JUMPDEST POP POP POP POP JUMP JUMPDEST PUSH0 CALLER SWAP1 POP SWAP1 JUMP JUMPDEST PUSH0 PUSH0 PUSH4 0xA9059CBB PUSH1 0xE0 SHL SWAP1 POP PUSH1 0x40 MLOAD DUP2 PUSH0 MSTORE PUSH0 NOT PUSH1 0x60 SHR DUP7 AND PUSH1 0x4 MSTORE DUP5 PUSH1 0x24 MSTORE PUSH1 0x20 PUSH0 PUSH1 0x44 PUSH0 PUSH0 DUP12 GAS CALL SWAP3 POP PUSH1 0x1 PUSH0 MLOAD EQ DUP4 AND PUSH2 0x1BDC JUMPI DUP4 DUP4 ISZERO AND ISZERO PUSH2 0x1BD0 JUMPI RETURNDATASIZE PUSH0 DUP3 RETURNDATACOPY RETURNDATASIZE DUP2 REVERT JUMPDEST PUSH0 DUP8 EXTCODESIZE GT RETURNDATASIZE ISZERO AND DUP4 AND SWAP3 POP JUMPDEST DUP1 PUSH1 0x40 MSTORE POP POP SWAP5 SWAP4 POP POP POP POP JUMP JUMPDEST PUSH0 PUSH0 PUSH4 0x23B872DD PUSH1 0xE0 SHL SWAP1 POP PUSH1 0x40 MLOAD DUP2 PUSH0 MSTORE PUSH0 NOT PUSH1 0x60 SHR DUP8 AND PUSH1 0x4 MSTORE PUSH0 NOT PUSH1 0x60 SHR DUP7 AND PUSH1 0x24 MSTORE DUP5 PUSH1 0x44 MSTORE PUSH1 0x20 PUSH0 PUSH1 0x64 PUSH0 PUSH0 DUP13 GAS CALL SWAP3 POP PUSH1 0x1 PUSH0 MLOAD EQ DUP4 AND PUSH2 0x1C48 JUMPI DUP4 DUP4 ISZERO AND ISZERO PUSH2 0x1C3C JUMPI RETURNDATASIZE PUSH0 DUP3 RETURNDATACOPY RETURNDATASIZE DUP2 REVERT JUMPDEST PUSH0 DUP9 EXTCODESIZE GT RETURNDATASIZE ISZERO AND DUP4 AND SWAP3 POP JUMPDEST DUP1 PUSH1 0x40 MSTORE PUSH0 PUSH1 0x60 MSTORE POP POP SWAP6 SWAP5 POP POP POP POP POP JUMP JUMPDEST PUSH1 0x40 MLOAD DUP1 PUSH1 0x60 ADD PUSH1 0x40 MSTORE DUP1 PUSH1 0x60 DUP2 MSTORE PUSH1 0x20 ADD PUSH1 0x60 DUP2 MSTORE PUSH1 0x20 ADD PUSH1 0x60 DUP2 MSTORE POP SWAP1 JUMP JUMPDEST PUSH0 DUP2 MLOAD SWAP1 POP SWAP2 SWAP1 POP JUMP JUMPDEST PUSH0 DUP3 DUP3 MSTORE PUSH1 0x20 DUP3 ADD SWAP1 POP SWAP3 SWAP2 POP POP JUMP JUMPDEST DUP3 DUP2 DUP4 MCOPY PUSH0 DUP4 DUP4 ADD MSTORE POP POP POP JUMP JUMPDEST PUSH0 PUSH1 0x1F NOT PUSH1 0x1F DUP4 ADD AND SWAP1 POP SWAP2 SWAP1 POP JUMP JUMPDEST PUSH0 PUSH2 0x1CBE DUP3 PUSH2 0x1C7C JUMP JUMPDEST PUSH2 0x1CC8 DUP2 DUP6 PUSH2 0x1C86 JUMP JUMPDEST SWAP4 POP PUSH2 0x1CD8 DUP2 DUP6 PUSH1 0x20 DUP7 ADD PUSH2 0x1C96 JUMP JUMPDEST PUSH2 0x1CE1 DUP2 PUSH2 0x1CA4 JUMP JUMPDEST DUP5 ADD SWAP2 POP POP SWAP3 SWAP2 POP POP JUMP JUMPDEST PUSH0 PUSH1 0x20 DUP3 ADD SWAP1 POP DUP2 DUP2 SUB PUSH0 DUP4 ADD MSTORE PUSH2 0x1D04 DUP2 DUP5 PUSH2 0x1CB4 JUMP JUMPDEST SWAP1 POP SWAP3 SWAP2 POP POP JUMP JUMPDEST PUSH0 PUSH1 0x40 MLOAD SWAP1 POP SWAP1 JUMP JUMPDEST PUSH0 PUSH0 REVERT JUMPDEST PUSH0 PUSH0 REVERT JUMPDEST PUSH0 PUSH0 REVERT JUMPDEST PUSH0 PUSH0 REVERT JUMPDEST PUSH32 0x4E487B7100000000000000000000000000000000000000000000000000000000 PUSH0 MSTORE PUSH1 0x41 PUSH1 0x4 MSTORE PUSH1 0x24 PUSH0 REVERT JUMPDEST PUSH2 0x1D5B DUP3 PUSH2 0x1CA4 JUMP JUMPDEST DUP2 ADD DUP2 DUP2 LT PUSH8 0xFFFFFFFFFFFFFFFF DUP3 GT OR ISZERO PUSH2 0x1D7A JUMPI PUSH2 0x1D79 PUSH2 0x1D25 JUMP JUMPDEST JUMPDEST DUP1 PUSH1 0x40 MSTORE POP POP POP JUMP JUMPDEST PUSH0 PUSH2 0x1D8C PUSH2 0x1D0C JUMP JUMPDEST SWAP1 POP PUSH2 0x1D98 DUP3 DUP3 PUSH2 0x1D52 JUMP JUMPDEST SWAP2 SWAP1 POP JUMP JUMPDEST PUSH0 PUSH8 0xFFFFFFFFFFFFFFFF DUP3 GT ISZERO PUSH2 0x1DB7 JUMPI PUSH2 0x1DB6 PUSH2 0x1D25 JUMP JUMPDEST JUMPDEST PUSH2 0x1DC0 DUP3 PUSH2 0x1CA4 JUMP JUMPDEST SWAP1 POP PUSH1 0x20 DUP2 ADD SWAP1 POP SWAP2 SWAP1 POP JUMP JUMPDEST DUP3 DUP2 DUP4 CALLDATACOPY PUSH0 DUP4 DUP4 ADD MSTORE POP POP POP JUMP JUMPDEST PUSH0 PUSH2 0x1DED PUSH2 0x1DE8 DUP5 PUSH2 0x1D9D JUMP JUMPDEST PUSH2 0x1D83 JUMP JUMPDEST SWAP1 POP DUP3 DUP2 MSTORE PUSH1 0x20 DUP2 ADD DUP5 DUP5 DUP5 ADD GT ISZERO PUSH2 0x1E09 JUMPI PUSH2 0x1E08 PUSH2 0x1D21 JUMP JUMPDEST JUMPDEST PUSH2 0x1E14 DUP5 DUP3 DUP6 PUSH2 0x1DCD JUMP JUMPDEST POP SWAP4 SWAP3 POP POP POP JUMP JUMPDEST PUSH0 DUP3 PUSH1 0x1F DUP4 ADD SLT PUSH2 0x1E30 JUMPI PUSH2 0x1E2F PUSH2 0x1D1D JUMP JUMPDEST JUMPDEST DUP2 CALLDATALOAD PUSH2 0x1E40 DUP5 DUP3 PUSH1 0x20 DUP7 ADD PUSH2 0x1DDB JUMP JUMPDEST SWAP2 POP POP SWAP3 SWAP2 POP POP JUMP JUMPDEST PUSH0 PUSH1 0x20 DUP3 DUP5 SUB SLT ISZERO PUSH2 0x1E5E JUMPI PUSH2 0x1E5D PUSH2 0x1D15 JUMP JUMPDEST JUMPDEST PUSH0 DUP3 ADD CALLDATALOAD PUSH8 0xFFFFFFFFFFFFFFFF DUP2 GT ISZERO PUSH2 0x1E7B JUMPI PUSH2 0x1E7A PUSH2 0x1D19 JUMP JUMPDEST JUMPDEST PUSH2 0x1E87 DUP5 DUP3 DUP6 ADD PUSH2 0x1E1C JUMP JUMPDEST SWAP2 POP POP SWAP3 SWAP2 POP POP JUMP JUMPDEST PUSH0 PUSH20 0xFFFFFFFFFFFFFFFFFFFFFFFFFFFFFFFFFFFFFFFF DUP3 AND SWAP1 POP SWAP2 SWAP1 POP JUMP JUMPDEST PUSH0 PUSH2 0x1EB9 DUP3 PUSH2 0x1E90 JUMP JUMPDEST SWAP1 POP SWAP2 SWAP1 POP JUMP JUMPDEST PUSH2 0x1EC9 DUP2 PUSH2 0x1EAF JUMP JUMPDEST DUP3 MSTORE POP POP JUMP JUMPDEST PUSH0 PUSH1 0x20 DUP3 ADD SWAP1 POP PUSH2 0x1EE2 PUSH0 DUP4 ADD DUP5 PUSH2 0x1EC0 JUMP JUMPDEST SWAP3 SWAP2 POP POP JUMP JUMPDEST PUSH2 0x1EF1 DUP2 PUSH2 0x1EAF JUMP JUMPDEST DUP2 EQ PUSH2 0x1EFB JUMPI PUSH0 PUSH0 REVERT JUMPDEST POP JUMP JUMPDEST PUSH0 DUP2 CALLDATALOAD SWAP1 POP PUSH2 0x1F0C DUP2 PUSH2 0x1EE8 JUMP JUMPDEST SWAP3 SWAP2 POP POP JUMP JUMPDEST PUSH0 PUSH1 0x20 DUP3 DUP5 SUB SLT ISZERO PUSH2 0x1F27 JUMPI PUSH2 0x1F26 PUSH2 0x1D15 JUMP JUMPDEST JUMPDEST PUSH0 PUSH2 0x1F34 DUP5 DUP3 DUP6 ADD PUSH2 0x1EFE JUMP JUMPDEST SWAP2 POP POP SWAP3 SWAP2 POP POP JUMP JUMPDEST PUSH0 DUP2 ISZERO ISZERO SWAP1 POP SWAP2 SWAP1 POP JUMP JUMPDEST PUSH2 0x1F51 DUP2 PUSH2 0x1F3D JUMP JUMPDEST DUP3 MSTORE POP POP JUMP JUMPDEST PUSH0 PUSH1 0x20 DUP3 ADD SWAP1 POP PUSH2 0x1F6A PUSH0 DUP4 ADD DUP5 PUSH2 0x1F48 JUMP JUMPDEST SWAP3 SWAP2 POP POP JUMP JUMPDEST PUSH0 PUSH0 REVERT JUMPDEST PUSH0 PUSH0 REVERT JUMPDEST PUSH0 PUSH0 DUP4 PUSH1 0x1F DUP5 ADD SLT PUSH2 0x1F8D JUMPI PUSH2 0x1F8C PUSH2 0x1D1D JUMP JUMPDEST JUMPDEST DUP3 CALLDATALOAD SWAP1 POP PUSH8 0xFFFFFFFFFFFFFFFF DUP2 GT ISZERO PUSH2 0x1FAA JUMPI PUSH2 0x1FA9 PUSH2 0x1F70 JUMP JUMPDEST JUMPDEST PUSH1 0x20 DUP4 ADD SWAP2 POP DUP4 PUSH1 0x1 DUP3 MUL DUP4 ADD GT ISZERO PUSH2 0x1FC6 JUMPI PUSH2 0x1FC5 PUSH2 0x1F74 JUMP JUMPDEST JUMPDEST SWAP3 POP SWAP3 SWAP1 POP JUMP JUMPDEST PUSH0 DUP2 SWAP1 POP SWAP2 SWAP1 POP JUMP JUMPDEST PUSH2 0x1FDF DUP2 PUSH2 0x1FCD JUMP JUMPDEST DUP2 EQ PUSH2 0x1FE9 JUMPI PUSH0 PUSH0 REVERT JUMPDEST POP JUMP JUMPDEST PUSH0 DUP2 CALLDATALOAD SWAP1 POP PUSH2 0x1FFA DUP2 PUSH2 0x1FD6 JUMP JUMPDEST SWAP3 SWAP2 POP POP JUMP JUMPDEST PUSH0 PUSH0 PUSH0 PUSH0 PUSH0 PUSH1 0x80 DUP7 DUP9 SUB SLT ISZERO PUSH2 0x2019 JUMPI PUSH2 0x2018 PUSH2 0x1D15 JUMP JUMPDEST JUMPDEST PUSH0 PUSH2 0x2026 DUP9 DUP3 DUP10 ADD PUSH2 0x1EFE JUMP JUMPDEST SWAP6 POP POP PUSH1 0x20 DUP7 ADD CALLDATALOAD PUSH8 0xFFFFFFFFFFFFFFFF DUP2 GT ISZERO PUSH2 0x2047 JUMPI PUSH2 0x2046 PUSH2 0x1D19 JUMP JUMPDEST JUMPDEST PUSH2 0x2053 DUP9 DUP3 DUP10 ADD PUSH2 0x1F78 JUMP JUMPDEST SWAP5 POP SWAP5 POP POP PUSH1 0x40 PUSH2 0x2066 DUP9 DUP3 DUP10 ADD PUSH2 0x1FEC JUMP JUMPDEST SWAP3 POP POP PUSH1 0x60 PUSH2 0x2077 DUP9 DUP3 DUP10 ADD PUSH2 0x1FEC JUMP JUMPDEST SWAP2 POP POP SWAP3 SWAP6 POP SWAP3 SWAP6 SWAP1 SWAP4 POP JUMP JUMPDEST PUSH0 PUSH0 PUSH0 PUSH1 0x40 DUP5 DUP7 SUB SLT ISZERO PUSH2 0x209B JUMPI PUSH2 0x209A PUSH2 0x1D15 JUMP JUMPDEST JUMPDEST PUSH0 DUP5 ADD CALLDATALOAD PUSH8 0xFFFFFFFFFFFFFFFF DUP2 GT ISZERO PUSH2 0x20B8 JUMPI PUSH2 0x20B7 PUSH2 0x1D19 JUMP JUMPDEST JUMPDEST PUSH2 0x20C4 DUP7 DUP3 DUP8 ADD PUSH2 0x1F78 JUMP JUMPDEST SWAP4 POP SWAP4 POP POP PUSH1 0x20 PUSH2 0x20D7 DUP7 DUP3 DUP8 ADD PUSH2 0x1FEC JUMP JUMPDEST SWAP2 POP POP SWAP3 POP SWAP3 POP SWAP3 JUMP JUMPDEST PUSH0 DUP2 SWAP1 POP SWAP2 SWAP1 POP JUMP JUMPDEST PUSH0 PUSH2 0x2104 PUSH2 0x20FF PUSH2 0x20FA DUP5 PUSH2 0x1E90 JUMP JUMPDEST PUSH2 0x20E1 JUMP JUMPDEST PUSH2 0x1E90 JUMP JUMPDEST SWAP1 POP SWAP2 SWAP1 POP JUMP JUMPDEST PUSH0 PUSH2 0x2115 DUP3 PUSH2 0x20EA JUMP JUMPDEST SWAP1 POP SWAP2 SWAP1 POP JUMP JUMPDEST PUSH0 PUSH2 0x2126 DUP3 PUSH2 0x210B JUMP JUMPDEST SWAP1 POP SWAP2 SWAP1 POP JUMP JUMPDEST PUSH2 0x2136 DUP2 PUSH2 0x211C JUMP JUMPDEST DUP3 MSTORE POP POP JUMP JUMPDEST PUSH0 PUSH1 0x20 DUP3 ADD SWAP1 POP PUSH2 0x214F PUSH0 DUP4 ADD DUP5 PUSH2 0x212D JUMP JUMPDEST SWAP3 SWAP2 POP POP JUMP JUMPDEST PUSH0 PUSH2 0x215F DUP3 PUSH2 0x210B JUMP JUMPDEST SWAP1 POP SWAP2 SWAP1 POP JUMP JUMPDEST PUSH2 0x216F DUP2 PUSH2 0x2155 JUMP JUMPDEST DUP3 MSTORE POP POP JUMP JUMPDEST PUSH0 PUSH1 0x20 DUP3 ADD SWAP1 POP PUSH2 0x2188 PUSH0 DUP4 ADD DUP5 PUSH2 0x2166 JUMP JUMPDEST SWAP3 SWAP2 POP POP JUMP JUMPDEST PUSH0 PUSH0 DUP4 PUSH1 0x1F DUP5 ADD SLT PUSH2 0x21A3 JUMPI PUSH2 0x21A2 PUSH2 0x1D1D JUMP JUMPDEST JUMPDEST DUP3 CALLDATALOAD SWAP1 POP PUSH8 0xFFFFFFFFFFFFFFFF DUP2 GT ISZERO PUSH2 0x21C0 JUMPI PUSH2 0x21BF PUSH2 0x1F70 JUMP JUMPDEST JUMPDEST PUSH1 0x20 DUP4 ADD SWAP2 POP DUP4 PUSH1 0x1 DUP3 MUL DUP4 ADD GT ISZERO PUSH2 0x21DC JUMPI PUSH2 0x21DB PUSH2 0x1F74 JUMP JUMPDEST JUMPDEST SWAP3 POP SWAP3 SWAP1 POP JUMP JUMPDEST PUSH0 PUSH0 PUSH0 PUSH0 PUSH0 PUSH0 PUSH0 PUSH1 0x80 DUP9 DUP11 SUB SLT ISZERO PUSH2 0x21FE JUMPI PUSH2 0x21FD PUSH2 0x1D15 JUMP JUMPDEST JUMPDEST PUSH0 DUP9 ADD CALLDATALOAD PUSH8 0xFFFFFFFFFFFFFFFF DUP2 GT ISZERO PUSH2 0x221B JUMPI PUSH2 0x221A PUSH2 0x1D19 JUMP JUMPDEST JUMPDEST PUSH2 0x2227 DUP11 DUP3 DUP12 ADD PUSH2 0x218E JUMP JUMPDEST SWAP8 POP SWAP8 POP POP PUSH1 0x20 DUP9 ADD CALLDATALOAD PUSH8 0xFFFFFFFFFFFFFFFF DUP2 GT ISZERO PUSH2 0x224A JUMPI PUSH2 0x2249 PUSH2 0x1D19 JUMP JUMPDEST JUMPDEST PUSH2 0x2256 DUP11 DUP3 DUP12 ADD PUSH2 0x1F78 JUMP JUMPDEST SWAP6 POP SWAP6 POP POP PUSH1 0x40 DUP9 ADD CALLDATALOAD PUSH8 0xFFFFFFFFFFFFFFFF DUP2 GT ISZERO PUSH2 0x2279 JUMPI PUSH2 0x2278 PUSH2 0x1D19 JUMP JUMPDEST JUMPDEST PUSH2 0x2285 DUP11 DUP3 DUP12 ADD PUSH2 0x1F78 JUMP JUMPDEST SWAP4 POP SWAP4 POP POP PUSH1 0x60 PUSH2 0x2298 DUP11 DUP3 DUP12 ADD PUSH2 0x1FEC JUMP JUMPDEST SWAP2 POP POP SWAP3 SWAP6 SWAP9 SWAP2 SWAP5 SWAP8 POP SWAP3 SWAP6 POP JUMP JUMPDEST PUSH0 PUSH0 PUSH1 0x20 DUP4 DUP6 SUB SLT ISZERO PUSH2 0x22BD JUMPI PUSH2 0x22BC PUSH2 0x1D15 JUMP JUMPDEST JUMPDEST PUSH0 DUP4 ADD CALLDATALOAD PUSH8 0xFFFFFFFFFFFFFFFF DUP2 GT ISZERO PUSH2 0x22DA JUMPI PUSH2 0x22D9 PUSH2 0x1D19 JUMP JUMPDEST JUMPDEST PUSH2 0x22E6 DUP6 DUP3 DUP7 ADD PUSH2 0x1F78 JUMP JUMPDEST SWAP3 POP SWAP3 POP POP SWAP3 POP SWAP3 SWAP1 POP JUMP JUMPDEST PUSH32 0x4E487B7100000000000000000000000000000000000000000000000000000000 PUSH0 MSTORE PUSH1 0x22 PUSH1 0x4 MSTORE PUSH1 0x24 PUSH0 REVERT JUMPDEST PUSH0 PUSH1 0x2 DUP3 DIV SWAP1 POP PUSH1 0x1 DUP3 AND DUP1 PUSH2 0x2336 JUMPI PUSH1 0x7F DUP3 AND SWAP2 POP JUMPDEST PUSH1 0x20 DUP3 LT DUP2 SUB PUSH2 0x2349 JUMPI PUSH2 0x2348 PUSH2 0x22F2 JUMP JUMPDEST JUMPDEST POP SWAP2 SWAP1 POP JUMP JUMPDEST PUSH0 DUP2 SWAP1 POP SWAP3 SWAP2 POP POP JUMP JUMPDEST PUSH0 PUSH2 0x2363 DUP3 PUSH2 0x1C7C JUMP JUMPDEST PUSH2 0x236D DUP2 DUP6 PUSH2 0x234F JUMP JUMPDEST SWAP4 POP PUSH2 0x237D DUP2 DUP6 PUSH1 0x20 DUP7 ADD PUSH2 0x1C96 JUMP JUMPDEST DUP1 DUP5 ADD SWAP2 POP POP SWAP3 SWAP2 POP POP JUMP JUMPDEST PUSH32 0x5F00000000000000000000000000000000000000000000000000000000000000 PUSH0 DUP3 ADD MSTORE POP JUMP JUMPDEST PUSH0 PUSH2 0x23BD PUSH1 0x1 DUP4 PUSH2 0x234F JUMP JUMPDEST SWAP2 POP PUSH2 0x23C8 DUP3 PUSH2 0x2389 JUMP JUMPDEST PUSH1 0x1 DUP3 ADD SWAP1 POP SWAP2 SWAP1 POP JUMP JUMPDEST PUSH0 DUP2 SWAP1 POP DUP2 PUSH0 MSTORE PUSH1 0x20 PUSH0 KECCAK256 SWAP1 POP SWAP2 SWAP1 POP JUMP JUMPDEST PUSH0 DUP2 SLOAD PUSH2 0x23F1 DUP2 PUSH2 0x231F JUMP JUMPDEST PUSH2 0x23FB DUP2 DUP7 PUSH2 0x234F JUMP JUMPDEST SWAP5 POP PUSH1 0x1 DUP3 AND PUSH0 DUP2 EQ PUSH2 0x2415 JUMPI PUSH1 0x1 DUP2 EQ PUSH2 0x242A JUMPI PUSH2 0x245C JUMP JUMPDEST PUSH1 0xFF NOT DUP4 AND DUP7 MSTORE DUP2 ISZERO ISZERO DUP3 MUL DUP7 ADD SWAP4 POP PUSH2 0x245C JUMP JUMPDEST PUSH2 0x2433 DUP6 PUSH2 0x23D3 JUMP JUMPDEST PUSH0 JUMPDEST DUP4 DUP2 LT ISZERO PUSH2 0x2454 JUMPI DUP2 SLOAD DUP2 DUP10 ADD MSTORE PUSH1 0x1 DUP3 ADD SWAP2 POP PUSH1 0x20 DUP2 ADD SWAP1 POP PUSH2 0x2435 JUMP JUMPDEST DUP4 DUP9 ADD SWAP6 POP POP POP JUMPDEST POP POP POP SWAP3 SWAP2 POP POP JUMP JUMPDEST PUSH0 PUSH2 0x2470 DUP3 DUP6 PUSH2 0x2359 JUMP JUMPDEST SWAP2 POP PUSH2 0x247B DUP3 PUSH2 0x23B1 JUMP JUMPDEST SWAP2 POP PUSH2 0x2487 DUP3 DUP5 PUSH2 0x23E5 JUMP JUMPDEST SWAP2 POP DUP2 SWAP1 POP SWAP4 SWAP3 POP POP POP JUMP JUMPDEST PUSH32 0x51696172614D6F6E616441737365747300000000000000000000000000000000 PUSH0 DUP3 ADD MSTORE POP JUMP JUMPDEST PUSH0 PUSH2 0x24C7 PUSH1 0x10 DUP4 PUSH2 0x1C86 JUMP JUMPDEST SWAP2 POP PUSH2 0x24D2 DUP3 PUSH2 0x2493 JUMP JUMPDEST PUSH1 0x20 DUP3 ADD SWAP1 POP SWAP2 SWAP1 POP JUMP JUMPDEST PUSH0 PUSH1 0x40 DUP3 ADD SWAP1 POP DUP2 DUP2 SUB PUSH0 DUP4 ADD MSTORE PUSH2 0x24F4 DUP2 PUSH2 0x24BB JUMP JUMPDEST SWAP1 POP DUP2 DUP2 SUB PUSH1 0x20 DUP4 ADD MSTORE PUSH2 0x2508 DUP2 DUP5 PUSH2 0x1CB4 JUMP JUMPDEST SWAP1 POP SWAP3 SWAP2 POP POP JUMP JUMPDEST PUSH0 PUSH8 0xFFFFFFFFFFFFFFFF DUP3 GT ISZERO PUSH2 0x252A JUMPI PUSH2 0x2529 PUSH2 0x1D25 JUMP JUMPDEST JUMPDEST PUSH2 0x2533 DUP3 PUSH2 0x1CA4 JUMP JUMPDEST SWAP1 POP PUSH1 0x20 DUP2 ADD SWAP1 POP SWAP2 SWAP1 POP JUMP JUMPDEST PUSH0 PUSH2 0x2552 PUSH2 0x254D DUP5 PUSH2 0x2510 JUMP JUMPDEST PUSH2 0x1D83 JUMP JUMPDEST SWAP1 POP DUP3 DUP2 MSTORE PUSH1 0x20 DUP2 ADD DUP5 DUP5 DUP5 ADD GT ISZERO PUSH2 0x256E JUMPI PUSH2 0x256D PUSH2 0x1D21 JUMP JUMPDEST JUMPDEST PUSH2 0x2579 DUP5 DUP3 DUP6 PUSH2 0x1C96 JUMP JUMPDEST POP SWAP4 SWAP3 POP POP POP JUMP JUMPDEST PUSH0 DUP3 PUSH1 0x1F DUP4 ADD SLT PUSH2 0x2595 JUMPI PUSH2 0x2594 PUSH2 0x1D1D JUMP JUMPDEST JUMPDEST DUP2 MLOAD PUSH2 0x25A5 DUP5 DUP3 PUSH1 0x20 DUP7 ADD PUSH2 0x2540 JUMP JUMPDEST SWAP2 POP POP SWAP3 SWAP2 POP POP JUMP JUMPDEST PUSH0 PUSH1 0x20 DUP3 DUP5 SUB SLT ISZERO PUSH2 0x25C3 JUMPI PUSH2 0x25C2 PUSH2 0x1D15 JUMP JUMPDEST JUMPDEST PUSH0 DUP3 ADD MLOAD PUSH8 0xFFFFFFFFFFFFFFFF DUP2 GT ISZERO PUSH2 0x25E0 JUMPI PUSH2 0x25DF PUSH2 0x1D19 JUMP JUMPDEST JUMPDEST PUSH2 0x25EC DUP5 DUP3 DUP6 ADD PUSH2 0x2581 JUMP JUMPDEST SWAP2 POP POP SWAP3 SWAP2 POP POP JUMP JUMPDEST PUSH32 0x5661756C743A204173736574206E6F7420666F756E6420696E20726567697374 PUSH0 DUP3 ADD MSTORE PUSH32 0x7279000000000000000000000000000000000000000000000000000000000000 PUSH1 0x20 DUP3 ADD MSTORE POP JUMP JUMPDEST PUSH0 PUSH2 0x264F PUSH1 0x22 DUP4 PUSH2 0x1C86 JUMP JUMPDEST SWAP2 POP PUSH2 0x265A DUP3 PUSH2 0x25F5 JUMP JUMPDEST PUSH1 0x40 DUP3 ADD SWAP1 POP SWAP2 SWAP1 POP JUMP JUMPDEST PUSH0 PUSH1 0x20 DUP3 ADD SWAP1 POP DUP2 DUP2 SUB PUSH0 DUP4 ADD MSTORE PUSH2 0x267C DUP2 PUSH2 0x2643 JUMP JUMPDEST SWAP1 POP SWAP2 SWAP1 POP JUMP JUMPDEST PUSH32 0x5661756C743A20546F6B656E206E6F7420737570706F72746564000000000000 PUSH0 DUP3 ADD MSTORE POP JUMP JUMPDEST PUSH0 PUSH2 0x26B7 PUSH1 0x1A DUP4 PUSH2 0x1C86 JUMP JUMPDEST SWAP2 POP PUSH2 0x26C2 DUP3 PUSH2 0x2683 JUMP JUMPDEST PUSH1 0x20 DUP3 ADD SWAP1 POP SWAP2 SWAP1 POP JUMP JUMPDEST PUSH0 PUSH1 0x20 DUP3 ADD SWAP1 POP DUP2 DUP2 SUB PUSH0 DUP4 ADD MSTORE PUSH2 0x26E4 DUP2 PUSH2 0x26AB JUMP JUMPDEST SWAP1 POP SWAP2 SWAP1 POP JUMP JUMPDEST PUSH32 0x4E487B7100000000000000000000000000000000000000000000000000000000 PUSH0 MSTORE PUSH1 0x32 PUSH1 0x4 MSTORE PUSH1 0x24 PUSH0 REVERT JUMPDEST PUSH2 0x2721 DUP2 PUSH2 0x1FCD JUMP JUMPDEST DUP3 MSTORE POP POP JUMP JUMPDEST PUSH0 PUSH1 0x20 DUP3 ADD SWAP1 POP PUSH2 0x273A PUSH0 DUP4 ADD DUP5 PUSH2 0x2718 JUMP JUMPDEST SWAP3 SWAP2 POP POP JUMP JUMPDEST PUSH0 PUSH2 0x274B DUP4 DUP6 PUSH2 0x1C86 JUMP JUMPDEST SWAP4 POP PUSH2 0x2758 DUP4 DUP6 DUP5 PUSH2 0x1DCD JUMP JUMPDEST PUSH2 0x2761 DUP4 PUSH2 0x1CA4 JUMP JUMPDEST DUP5 ADD SWAP1 POP SWAP4 SWAP3 POP POP POP JUMP JUMPDEST PUSH0 PUSH1 0x20 DUP3 ADD SWAP1 POP DUP2 DUP2 SUB PUSH0 DUP4 ADD MSTORE PUSH2 0x2785 DUP2 DUP5 DUP7 PUSH2 0x2740 JUMP JUMPDEST SWAP1 POP SWAP4 SWAP3 POP POP POP JUMP JUMPDEST PUSH0 DUP2 SLOAD PUSH2 0x279A DUP2 PUSH2 0x231F JUMP JUMPDEST PUSH2 0x27A4 DUP2 DUP7 PUSH2 0x1C86 JUMP JUMPDEST SWAP5 POP PUSH1 0x1 DUP3 AND PUSH0 DUP2 EQ PUSH2 0x27BE JUMPI PUSH1 0x1 DUP2 EQ PUSH2 0x27D4 JUMPI PUSH2 0x2806 JUMP JUMPDEST PUSH1 0xFF NOT DUP4 AND DUP7 MSTORE DUP2 ISZERO ISZERO PUSH1 0x20 MUL DUP7 ADD SWAP4 POP PUSH2 0x2806 JUMP JUMPDEST PUSH2 0x27DD DUP6 PUSH2 0x23D3 JUMP JUMPDEST PUSH0 JUMPDEST DUP4 DUP2 LT ISZERO PUSH2 0x27FE JUMPI DUP2 SLOAD DUP2 DUP10 ADD MSTORE PUSH1 0x1 DUP3 ADD SWAP2 POP PUSH1 0x20 DUP2 ADD SWAP1 POP PUSH2 0x27DF JUMP JUMPDEST DUP1 DUP9 ADD SWAP6 POP POP POP JUMPDEST POP POP POP SWAP3 SWAP2 POP POP JUMP JUMPDEST PUSH0 PUSH1 0x20 DUP3 ADD SWAP1 POP DUP2 DUP2 SUB PUSH0 DUP4 ADD MSTORE PUSH2 0x2827 DUP2 DUP5 PUSH2 0x278E JUMP JUMPDEST SWAP1 POP SWAP3 SWAP2 POP POP JUMP JUMPDEST PUSH32 0x4469726563742057697468647261770000000000000000000000000000000000 PUSH0 DUP3 ADD MSTORE POP JUMP JUMPDEST PUSH0 PUSH2 0x2863 PUSH1 0xF DUP4 PUSH2 0x1C86 JUMP JUMPDEST SWAP2 POP PUSH2 0x286E DUP3 PUSH2 0x282F JUMP JUMPDEST PUSH1 0x20 DUP3 ADD SWAP1 POP SWAP2 SWAP1 POP JUMP JUMPDEST PUSH0 DUP2 MLOAD SWAP1 POP SWAP2 SWAP1 POP JUMP JUMPDEST PUSH0 DUP3 DUP3 MSTORE PUSH1 0x20 DUP3 ADD SWAP1 POP SWAP3 SWAP2 POP POP JUMP JUMPDEST PUSH0 DUP2 SWAP1 POP PUSH1 0x20 DUP3 ADD SWAP1 POP SWAP2 SWAP1 POP JUMP JUMPDEST PUSH0 DUP3 DUP3 MSTORE PUSH1 0x20 DUP3 ADD SWAP1 POP SWAP3 SWAP2 POP POP JUMP JUMPDEST PUSH0 PUSH2 0x28BC DUP3 PUSH2 0x1C7C JUMP JUMPDEST PUSH2 0x28C6 DUP2 DUP6 PUSH2 0x28A2 JUMP JUMPDEST SWAP4 POP PUSH2 0x28D6 DUP2 DUP6 PUSH1 0x20 DUP7 ADD PUSH2 0x1C96 JUMP JUMPDEST PUSH2 0x28DF DUP2 PUSH2 0x1CA4 JUMP JUMPDEST DUP5 ADD SWAP2 POP POP SWAP3 SWAP2 POP POP JUMP JUMPDEST PUSH0 DUP2 MLOAD SWAP1 POP SWAP2 SWAP1 POP JUMP JUMPDEST PUSH0 DUP3 DUP3 MSTORE PUSH1 0x20 DUP3 ADD SWAP1 POP SWAP3 SWAP2 POP POP JUMP JUMPDEST PUSH0 PUSH2 0x290E DUP3 PUSH2 0x28EA JUMP JUMPDEST PUSH2 0x2918 DUP2 DUP6 PUSH2 0x28F4 JUMP JUMPDEST SWAP4 POP PUSH2 0x2928 DUP2 DUP6 PUSH1 0x20 DUP7 ADD PUSH2 0x1C96 JUMP JUMPDEST PUSH2 0x2931 DUP2 PUSH2 0x1CA4 JUMP JUMPDEST DUP5 ADD SWAP2 POP POP SWAP3 SWAP2 POP POP JUMP JUMPDEST PUSH0 PUSH1 0x60 DUP4 ADD PUSH0 DUP4 ADD MLOAD DUP5 DUP3 SUB PUSH0 DUP7 ADD MSTORE PUSH2 0x2956 DUP3 DUP3 PUSH2 0x28B2 JUMP JUMPDEST SWAP2 POP POP PUSH1 0x20 DUP4 ADD MLOAD DUP5 DUP3 SUB PUSH1 0x20 DUP7 ADD MSTORE PUSH2 0x2970 DUP3 DUP3 PUSH2 0x28B2 JUMP JUMPDEST SWAP2 POP POP PUSH1 0x40 DUP4 ADD MLOAD DUP5 DUP3 SUB PUSH1 0x40 DUP7 ADD MSTORE PUSH2 0x298A DUP3 DUP3 PUSH2 0x2904 JUMP JUMPDEST SWAP2 POP POP DUP1 SWAP2 POP POP SWAP3 SWAP2 POP POP JUMP JUMPDEST PUSH0 PUSH2 0x29A2 DUP4 DUP4 PUSH2 0x293C JUMP JUMPDEST SWAP1 POP SWAP3 SWAP2 POP POP JUMP JUMPDEST PUSH0 PUSH1 0x20 DUP3 ADD SWAP1 POP SWAP2 SWAP1 POP JUMP JUMPDEST PUSH0 PUSH2 0x29C0 DUP3 PUSH2 0x2879 JUMP JUMPDEST PUSH2 0x29CA DUP2 DUP6 PUSH2 0x2883 JUMP JUMPDEST SWAP4 POP DUP4 PUSH1 0x20 DUP3 MUL DUP6 ADD PUSH2 0x29DC DUP6 PUSH2 0x2893 JUMP JUMPDEST DUP1 PUSH0 JUMPDEST DUP6 DUP2 LT ISZERO PUSH2 0x2A17 JUMPI DUP5 DUP5 SUB DUP10 MSTORE DUP2 MLOAD PUSH2 0x29F8 DUP6 DUP3 PUSH2 0x2997 JUMP JUMPDEST SWAP5 POP PUSH2 0x2A03 DUP4 PUSH2 0x29AA JUMP JUMPDEST SWAP3 POP PUSH1 0x20 DUP11 ADD SWAP10 POP POP PUSH1 0x1 DUP2 ADD SWAP1 POP PUSH2 0x29DF JUMP JUMPDEST POP DUP3 SWAP8 POP DUP8 SWAP6 POP POP POP POP POP POP SWAP3 SWAP2 POP POP JUMP JUMPDEST PUSH0 PUSH1 0x40 DUP3 ADD SWAP1 POP DUP2 DUP2 SUB PUSH0 DUP4 ADD MSTORE PUSH2 0x2A40 DUP2 PUSH2 0x2857 JUMP JUMPDEST SWAP1 POP DUP2 DUP2 SUB PUSH1 0x20 DUP4 ADD MSTORE PUSH2 0x2A54 DUP2 DUP5 PUSH2 0x29B6 JUMP JUMPDEST SWAP1 POP SWAP3 SWAP2 POP POP JUMP JUMPDEST PUSH0 PUSH1 0x40 DUP3 ADD SWAP1 POP PUSH2 0x2A6F PUSH0 DUP4 ADD DUP6 PUSH2 0x2718 JUMP JUMPDEST DUP2 DUP2 SUB PUSH1 0x20 DUP4 ADD MSTORE PUSH2 0x2A81 DUP2 DUP5 PUSH2 0x278E JUMP JUMPDEST SWAP1 POP SWAP4 SWAP3 POP POP POP JUMP JUMPDEST PUSH32 0x5661756C743A204465706F736974206D757374206265203E2030000000000000 PUSH0 DUP3 ADD MSTORE POP JUMP JUMPDEST PUSH0 PUSH2 0x2ABE PUSH1 0x1A DUP4 PUSH2 0x1C86 JUMP JUMPDEST SWAP2 POP PUSH2 0x2AC9 DUP3 PUSH2 0x2A8A JUMP JUMPDEST PUSH1 0x20 DUP3 ADD SWAP1 POP SWAP2 SWAP1 POP JUMP JUMPDEST PUSH0 PUSH1 0x20 DUP3 ADD SWAP1 POP DUP2 DUP2 SUB PUSH0 DUP4 ADD MSTORE PUSH2 0x2AEB DUP2 PUSH2 0x2AB2 JUMP JUMPDEST SWAP1 POP SWAP2 SWAP1 POP JUMP JUMPDEST PUSH32 0x4465706F73697400000000000000000000000000000000000000000000000000 PUSH0 DUP3 ADD MSTORE POP JUMP JUMPDEST PUSH0 PUSH2 0x2B26 PUSH1 0x7 DUP4 PUSH2 0x1C86 JUMP JUMPDEST SWAP2 POP PUSH2 0x2B31 DUP3 PUSH2 0x2AF2 JUMP JUMPDEST PUSH1 0x20 DUP3 ADD SWAP1 POP SWAP2 SWAP1 POP JUMP JUMPDEST PUSH0 PUSH1 0x40 DUP3 ADD SWAP1 POP DUP2 DUP2 SUB PUSH0 DUP4 ADD MSTORE PUSH2 0x2B53 DUP2 PUSH2 0x2B1A JUMP JUMPDEST SWAP1 POP DUP2 DUP2 SUB PUSH1 0x20 DUP4 ADD MSTORE PUSH2 0x2B67 DUP2 DUP5 PUSH2 0x29B6 JUMP JUMPDEST SWAP1 POP SWAP3 SWAP2 POP POP JUMP JUMPDEST PUSH0 DUP3 DUP3 MSTORE PUSH1 0x20 DUP3 ADD SWAP1 POP SWAP3 SWAP2 POP POP JUMP JUMPDEST PUSH0 PUSH2 0x2B8A DUP4 DUP6 PUSH2 0x2B6F JUMP JUMPDEST SWAP4 POP PUSH2 0x2B97 DUP4 DUP6 DUP5 PUSH2 0x1DCD JUMP JUMPDEST PUSH2 0x2BA0 DUP4 PUSH2 0x1CA4 JUMP JUMPDEST DUP5 ADD SWAP1 POP SWAP4 SWAP3 POP POP POP JUMP JUMPDEST PUSH0 PUSH1 0x20 DUP3 ADD SWAP1 POP DUP2 DUP2 SUB PUSH0 DUP4 ADD MSTORE PUSH2 0x2BC4 DUP2 DUP5 DUP7 PUSH2 0x2B7F JUMP JUMPDEST SWAP1 POP SWAP4 SWAP3 POP POP POP JUMP JUMPDEST PUSH32 0x6261736500000000000000000000000000000000000000000000000000000000 PUSH0 DUP3 ADD MSTORE POP JUMP JUMPDEST PUSH0 PUSH2 0x2C01 PUSH1 0x4 DUP4 PUSH2 0x1C86 JUMP JUMPDEST SWAP2 POP PUSH2 0x2C0C DUP3 PUSH2 0x2BCD JUMP JUMPDEST PUSH1 0x20 DUP3 ADD SWAP1 POP SWAP2 SWAP1 POP JUMP JUMPDEST PUSH0 PUSH1 0x20 DUP3 ADD SWAP1 POP DUP2 DUP2 SUB PUSH0 DUP4 ADD MSTORE PUSH2 0x2C2E DUP2 PUSH2 0x2BF5 JUMP JUMPDEST SWAP1 POP SWAP2 SWAP1 POP JUMP JUMPDEST PUSH32 0x4D6F64756C617220576974686472617700000000000000000000000000000000 PUSH0 DUP3 ADD MSTORE POP JUMP JUMPDEST PUSH0 PUSH2 0x2C69 PUSH1 0x10 DUP4 PUSH2 0x1C86 JUMP JUMPDEST SWAP2 POP PUSH2 0x2C74 DUP3 PUSH2 0x2C35 JUMP JUMPDEST PUSH1 0x20 DUP3 ADD SWAP1 POP SWAP2 SWAP1 POP JUMP JUMPDEST PUSH0 PUSH1 0x40 DUP3 ADD SWAP1 POP DUP2 DUP2 SUB PUSH0 DUP4 ADD MSTORE PUSH2 0x2C96 DUP2 PUSH2 0x2C5D JUMP JUMPDEST SWAP1 POP DUP2 DUP2 SUB PUSH1 0x20 DUP4 ADD MSTORE PUSH2 0x2CAA DUP2 DUP5 PUSH2 0x29B6 JUMP JUMPDEST SWAP1 POP SWAP3 SWAP2 POP POP JUMP INVALID LOG2 PUSH5 0x6970667358 0x22 SLT KECCAK256 0xDE PUSH28 0x27509BFE987014FC65198AE59AE219B85218DF3D0DAB00C701681195 MLOAD 0xFC PUSH5 0x736F6C6343 STOP ADDMOD 0x1F STOP CALLER "
				},
				"gasEstimates": {
					"creation": {
						"codeDepositCost": "2299200",
						"executionCost": "infinite",
						"totalCost": "infinite"
					},
					"external": {
						"deposit(string,uint256)": "infinite",
						"directWithdraw(address,string,uint256,uint256)": "infinite",
						"events()": "infinite",
						"isSupportedToken(address)": "2878",
						"listNewToken(string)": "infinite",
						"m_withdraw(bytes,string,string,uint256)": "infinite",
						"owner()": "2625",
						"providerName()": "infinite",
						"renounceOwnership()": "infinite",
						"resolveAsset(string)": "infinite",
						"transferOwnership(address)": "infinite",
						"variablesRegistry()": "infinite"
					}
				},
				"methodIdentifiers": {
					"deposit(string,uint256)": "8e27d719",
					"directWithdraw(address,string,uint256,uint256)": "7a9eceb4",
					"events()": "b5f8558c",
					"isSupportedToken(address)": "240028e8",
					"listNewToken(string)": "f139721c",
					"m_withdraw(bytes,string,string,uint256)": "d23ce9e5",
					"owner()": "8da5cb5b",
					"providerName()": "00dad7d4",
					"renounceOwnership()": "715018a6",
					"resolveAsset(string)": "05d09fb1",
					"transferOwnership(address)": "f2fde38b",
					"variablesRegistry()": "bf4d766e"
				}
			},
			"storageLayout": {
				"storage": [
					{
						"astId": 8,
						"contract": "Evm/core/base/vault.sol:QiaraMultiAssetVault",
						"label": "_owner",
						"offset": 0,
						"slot": "0",
						"type": "t_address"
					},
					{
						"astId": 858,
						"contract": "Evm/core/base/vault.sol:QiaraMultiAssetVault",
						"label": "providerName",
						"offset": 0,
						"slot": "1",
						"type": "t_string_storage"
					},
					{
						"astId": 862,
						"contract": "Evm/core/base/vault.sol:QiaraMultiAssetVault",
						"label": "isSupportedToken",
						"offset": 0,
						"slot": "2",
						"type": "t_mapping(t_address,t_bool)"
					}
				],
				"types": {
					"t_address": {
						"encoding": "inplace",
						"label": "address",
						"numberOfBytes": "20"
					},
					"t_bool": {
						"encoding": "inplace",
						"label": "bool",
						"numberOfBytes": "1"
					},
					"t_mapping(t_address,t_bool)": {
						"encoding": "mapping",
						"key": "t_address",
						"label": "mapping(address => bool)",
						"numberOfBytes": "32",
						"value": "t_bool"
					},
					"t_string_storage": {
						"encoding": "bytes",
						"label": "string",
						"numberOfBytes": "32"
					}
				}
			},
			"userdoc": {
				"kind": "user",
				"methods": {},
				"version": 1
			}
		}
	}
}