{
	"Evm/interfaces/shared.sol": {
		"SharedInterface": {
			"abi": [
				{
					"inputs": [
						{
							"internalType": "address",
							"name": "_events",
							"type": "address"
						}
					],
					"stateMutability": "nonpayable",
					"type": "constructor"
				},
				{
					"inputs": [],
					"name": "events",
					"outputs": [
						{
							"internalType": "contract IEvents",
							"name": "",
							"type": "address"
						}
					],
					"stateMutability": "view",
					"type": "function"
				},
				{
					"inputs": [
						{
							"internalType": "string",
							"name": "name",
							"type": "string"
						},
						{
							"internalType": "string",
							"name": "ref_code",
							"type": "string"
						},
						{
							"internalType": "string",
							"name": "used_ref_code",
							"type": "string"
						},
						{
							"internalType": "string",
							"name": "selected_validator",
							"type": "string"
						},
						{
							"internalType": "uint64",
							"name": "xp_tax",
							"type": "uint64"
						},
						{
							"internalType": "uint64",
							"name": "fee_tax",
							"type": "uint64"
						}
					],
					"name": "m_create_shared_storage",
					"outputs": [],
					"stateMutability": "nonpayable",
					"type": "function"
				},
				{
					"inputs": [
						{
							"internalType": "string",
							"name": "name",
							"type": "string"
						},
						{
							"internalType": "bytes",
							"name": "user",
							"type": "bytes"
						},
						{
							"internalType": "bytes",
							"name": "sub_owner",
							"type": "bytes"
						}
					],
					"name": "p_allow_sub_owner",
					"outputs": [],
					"stateMutability": "nonpayable",
					"type": "function"
				},
				{
					"inputs": [
						{
							"internalType": "string",
							"name": "name",
							"type": "string"
						},
						{
							"internalType": "bytes",
							"name": "sub_owner",
							"type": "bytes"
						},
						{
							"internalType": "string",
							"name": "new_used_ref_code",
							"type": "string"
						}
					],
					"name": "p_change_used_ref_code",
					"outputs": [],
					"stateMutability": "nonpayable",
					"type": "function"
				},
				{
					"inputs": [
						{
							"internalType": "string",
							"name": "name",
							"type": "string"
						},
						{
							"internalType": "bytes",
							"name": "user",
							"type": "bytes"
						},
						{
							"internalType": "bytes",
							"name": "sub_owner",
							"type": "bytes"
						}
					],
					"name": "p_remove_sub_owner",
					"outputs": [],
					"stateMutability": "nonpayable",
					"type": "function"
				}
			],
			"devdoc": {
				"kind": "dev",
				"methods": {},
				"version": 1
			},
			"evm": {
				"assembly": "    /* \"Evm/interfaces/shared.sol\":417:3896  contract SharedInterface  {... */\n  0xa0\n  jumpi(tag_7, callvalue)\n  0x1f\n  bytecodeSize\n  codesize\n  dup2\n  swap1\n  sub\n  swap2\n  dup3\n  add\n  not(0x1f)\n  and\n  dup4\n  add\n  swap2\n  sub(shl(0x40, 0x01), 0x01)\n  dup4\n  gt\n  dup5\n  dup5\n  lt\n  or\n  tag_3\n  jumpi\n  dup1\n  dup5\n  swap3\n  0x20\n  swap5\n  0x40\n  mstore\n  dup4\n  codecopy\n  dup2\n  add\n  sub\n  slt\n  tag_7\n  jumpi\n  mload\n  sub(shl(0xa0, 0x01), 0x01)\n  dup2\n  and\n  swap1\n  dup2\n  swap1\n  sub\n  tag_7\n  jumpi\n    /* \"Evm/interfaces/shared.sol\":533:558  events = IEvents(_events) */\n  0x80\n  mstore\n    /* \"Evm/interfaces/shared.sol\":417:3896  contract SharedInterface  {... */\n  mload(0x40)\n  dataSize(sub_0)\n  swap1\n  dup2\n  dataOffset(sub_0)\n  dup3\n  codecopy\n    /* \"Evm/interfaces/shared.sol\":533:558  events = IEvents(_events) */\n  0x80\n    /* \"Evm/interfaces/shared.sol\":417:3896  contract SharedInterface  {... */\n  mload\n  dup2\n  assignImmutable(\"0x6d6142e7bc5885f8a3af14e4530d0fef2107c35d29b4827380ff447a51b70068\")\n  return\ntag_7:\n  0x00\n  dup1\n  revert\ntag_3:\n  mstore(0x00, shl(0xe0, 0x4e487b71))\n  mstore(0x04, 0x41)\n  revert(0x00, 0x24)\nstop\n\nsub_0: assembly {\n        /* \"Evm/interfaces/shared.sol\":417:3896  contract SharedInterface  {... */\n      mstore(0x40, 0x80)\n      jumpi(tag_16, iszero(lt(calldatasize, 0x04)))\n      0x00\n      dup1\n      revert\n    tag_16:\n      0x00\n      shr(0xe0, calldataload(0x00))\n      dup1\n      0x17c39bbd\n      eq\n      tag_18\n      jumpi\n      dup1\n      0x4882beff\n      eq\n      tag_20\n      jumpi\n      dup1\n      0xac290d90\n      eq\n      tag_22\n      jumpi\n      dup1\n      0xb5f8558c\n      eq\n      tag_24\n      jumpi\n      0xe9c1681f\n      eq\n      tag_26\n      jumpi\n      0x00\n      dup1\n      revert\n    tag_26:\n      jumpi(tag_110, callvalue)\n      jumpi(tag_110, slt(add(not(0x03), calldatasize), 0xc0))\n      calldataload(0x04)\n      0xffffffffffffffff\n      dup2\n      gt\n      tag_32\n      jumpi\n      tag_34\n      swap1\n      calldatasize\n      swap1\n      0x04\n      add\n      tag_1\n      jump\t// in\n    tag_34:\n      0x24\n      swap3\n      swap2\n      swap3\n      calldataload\n      0xffffffffffffffff\n      dup2\n      gt\n      tag_35\n      jumpi\n      tag_37\n      swap1\n      calldatasize\n      swap1\n      0x04\n      add\n      tag_1\n      jump\t// in\n    tag_37:\n      0x44\n      swap5\n      swap2\n      swap5\n      calldataload\n      0xffffffffffffffff\n      dup2\n      gt\n      tag_38\n      jumpi\n      tag_40\n      swap1\n      calldatasize\n      swap1\n      0x04\n      add\n      tag_1\n      jump\t// in\n    tag_40:\n      swap6\n      swap1\n      calldataload(0x64)\n      0xffffffffffffffff\n      dup2\n      gt\n      tag_41\n      jumpi\n      tag_43\n      swap1\n      calldatasize\n      swap1\n      0x04\n      add\n      tag_1\n      jump\t// in\n    tag_43:\n      swap8\n      swap1\n      swap3\n      calldataload(0x84)\n      swap5\n      0xffffffffffffffff\n      dup7\n      and\n      dup1\n      swap7\n      sub\n      tag_44\n      jumpi\n      calldataload(0xa4)\n      swap7\n      0xffffffffffffffff\n      dup9\n      and\n      dup1\n      swap9\n      sub\n      tag_46\n      jumpi\n      mload(0x40)\n      swap9\n      0x0100\n      tag_50\n      dup2\n      dup13\n      tag_4\n      jump\t// in\n    tag_50:\n        /* \"Evm/interfaces/shared.sol\":829:830  7 */\n      0x07\n        /* \"Evm/interfaces/shared.sol\":417:3896  contract SharedInterface  {... */\n      dup12\n      mstore\n      not(0x1f)\n      add\n      dup12\n    tag_53:\n      dup2\n      dup2\n      lt\n      tag_54\n      jumpi\n      pop\n      pop\n      swap3\n        /* \"Evm/interfaces/shared.sol\":1059:1079  abi.encode(ref_code) */\n      tag_56\n        /* \"Evm/interfaces/shared.sol\":1146:1171  abi.encode(used_ref_code) */\n      tag_57\n        /* \"Evm/interfaces/shared.sol\":417:3896  contract SharedInterface  {... */\n      swap4\n      dup13\n      swap14\n      swap7\n      swap4\n        /* \"Evm/interfaces/shared.sol\":981:997  abi.encode(name) */\n      tag_58\n        /* \"Evm/interfaces/shared.sol\":1243:1273  abi.encode(selected_validator) */\n      tag_59\n        /* \"Evm/interfaces/shared.sol\":417:3896  contract SharedInterface  {... */\n      swap10\n      swap8\n        /* \"Evm/interfaces/shared.sol\":852:924  eventData[0] = IEvents.Data(\"sender\", \"address\", abi.encode(msg.sender)) */\n      tag_60\n        /* \"Evm/interfaces/shared.sol\":417:3896  contract SharedInterface  {... */\n      dup16\n      mload(0x40)\n        /* \"Evm/interfaces/shared.sol\":912:922  msg.sender */\n      caller\n        /* \"Evm/interfaces/shared.sol\":417:3896  contract SharedInterface  {... */\n      0x20\n        /* \"Evm/interfaces/shared.sol\":901:923  abi.encode(msg.sender) */\n      dup3\n      add\n        /* \"Evm/interfaces/shared.sol\":417:3896  contract SharedInterface  {... */\n      mstore\n      0x20\n        /* \"Evm/interfaces/shared.sol\":901:923  abi.encode(msg.sender) */\n      dup2\n      mstore\n      tag_61\n        /* \"Evm/interfaces/shared.sol\":417:3896  contract SharedInterface  {... */\n      0x40\n        /* \"Evm/interfaces/shared.sol\":901:923  abi.encode(msg.sender) */\n      dup3\n      tag_4\n      jump\t// in\n    tag_61:\n        /* \"Evm/interfaces/shared.sol\":417:3896  contract SharedInterface  {... */\n      mload(0x40)\n      swap1\n      tag_62\n      dup3\n      tag_3\n      jump\t// in\n    tag_62:\n      mload(0x40)\n      tag_63\n      0x40\n      dup3\n      tag_4\n      jump\t// in\n    tag_63:\n      0x06\n      dup2\n      mstore\n      shl(0xd1, 0x39b2b73232b9)\n      0x20\n      dup3\n      add\n      mstore\n      dup3\n      mstore\n      mload(0x40)\n      tag_64\n      0x40\n      dup3\n      tag_4\n      jump\t// in\n    tag_64:\n      0x07\n      dup2\n      mstore\n      shl(0xc8, 0x61646472657373)\n      0x20\n      dup3\n      add\n      mstore\n      0x20\n        /* \"Evm/interfaces/shared.sol\":867:924  IEvents.Data(\"sender\", \"address\", abi.encode(msg.sender)) */\n      dup4\n      add\n        /* \"Evm/interfaces/shared.sol\":417:3896  contract SharedInterface  {... */\n      mstore\n      0x40\n        /* \"Evm/interfaces/shared.sol\":867:924  IEvents.Data(\"sender\", \"address\", abi.encode(msg.sender)) */\n      dup3\n      add\n        /* \"Evm/interfaces/shared.sol\":417:3896  contract SharedInterface  {... */\n      mstore\n        /* \"Evm/interfaces/shared.sol\":852:924  eventData[0] = IEvents.Data(\"sender\", \"address\", abi.encode(msg.sender)) */\n      tag_65\n      dup3\n      tag_6\n      jump\t// in\n    tag_65:\n      mstore\n      tag_6\n      jump\t// in\n    tag_60:\n      pop\n        /* \"Evm/interfaces/shared.sol\":417:3896  contract SharedInterface  {... */\n      tag_66\n      mload(0x40)\n        /* \"Evm/interfaces/shared.sol\":981:997  abi.encode(name) */\n      swap4\n      dup5\n      swap3\n        /* \"Evm/interfaces/shared.sol\":417:3896  contract SharedInterface  {... */\n      0x20\n        /* \"Evm/interfaces/shared.sol\":981:997  abi.encode(name) */\n      dup1\n      dup6\n      add\n        /* \"Evm/interfaces/shared.sol\":417:3896  contract SharedInterface  {... */\n      mstore\n      0x40\n      dup5\n      add\n      swap2\n      tag_13\n      jump\t// in\n    tag_66:\n        /* \"Evm/interfaces/shared.sol\":981:997  abi.encode(name) */\n      sub\n        /* \"Evm/interfaces/shared.sol\":1996:2018  abi.encode(msg.sender) */\n      not(0x1f)\n        /* \"Evm/interfaces/shared.sol\":981:997  abi.encode(name) */\n      dup2\n      add\n      dup4\n      mstore\n      dup3\n      tag_4\n      jump\t// in\n    tag_58:\n        /* \"Evm/interfaces/shared.sol\":417:3896  contract SharedInterface  {... */\n      mload(0x40)\n      swap1\n      tag_67\n      dup3\n      tag_3\n      jump\t// in\n    tag_67:\n      mload(0x40)\n      tag_68\n      0x40\n      dup3\n      tag_4\n      jump\t// in\n    tag_68:\n      0x04\n      dup2\n      mstore\n      shl(0xe0, 0x6e616d65)\n      0x20\n      dup3\n      add\n      mstore\n      dup3\n      mstore\n      mload(0x40)\n      tag_69\n      0x40\n      dup3\n      tag_4\n      jump\t// in\n    tag_69:\n      0x06\n      dup2\n      mstore\n      shl(0xd0, 0x737472696e67)\n      0x20\n      dup3\n      add\n      mstore\n      0x20\n        /* \"Evm/interfaces/shared.sol\":950:998  IEvents.Data(\"name\", \"string\", abi.encode(name)) */\n      dup4\n      add\n        /* \"Evm/interfaces/shared.sol\":417:3896  contract SharedInterface  {... */\n      mstore\n      0x40\n        /* \"Evm/interfaces/shared.sol\":950:998  IEvents.Data(\"name\", \"string\", abi.encode(name)) */\n      dup3\n      add\n        /* \"Evm/interfaces/shared.sol\":417:3896  contract SharedInterface  {... */\n      mstore\n        /* \"Evm/interfaces/shared.sol\":935:998  eventData[1] = IEvents.Data(\"name\", \"string\", abi.encode(name)) */\n      tag_70\n      dup14\n      tag_7\n      jump\t// in\n    tag_70:\n      mstore\n      tag_60\n      dup13\n      tag_7\n      jump\t// in\n        /* \"Evm/interfaces/shared.sol\":1059:1079  abi.encode(ref_code) */\n    tag_56:\n        /* \"Evm/interfaces/shared.sol\":417:3896  contract SharedInterface  {... */\n      mload(0x40)\n      swap1\n      tag_73\n      dup3\n      tag_3\n      jump\t// in\n    tag_73:\n      mload(0x40)\n      tag_74\n      0x40\n      dup3\n      tag_4\n      jump\t// in\n    tag_74:\n      0x08\n      dup2\n      mstore\n      shl(0xc0, 0x7265665f636f6465)\n      0x20\n      dup3\n      add\n      mstore\n      dup3\n      mstore\n      mload(0x40)\n      tag_75\n      0x40\n      dup3\n      tag_4\n      jump\t// in\n    tag_75:\n      0x06\n      dup2\n      mstore\n      shl(0xd0, 0x737472696e67)\n      0x20\n      dup3\n      add\n      mstore\n      0x20\n        /* \"Evm/interfaces/shared.sol\":1024:1080  IEvents.Data(\"ref_code\", \"string\", abi.encode(ref_code)) */\n      dup4\n      add\n        /* \"Evm/interfaces/shared.sol\":417:3896  contract SharedInterface  {... */\n      mstore\n      0x40\n        /* \"Evm/interfaces/shared.sol\":1024:1080  IEvents.Data(\"ref_code\", \"string\", abi.encode(ref_code)) */\n      dup3\n      add\n        /* \"Evm/interfaces/shared.sol\":417:3896  contract SharedInterface  {... */\n      mstore\n        /* \"Evm/interfaces/shared.sol\":1009:1080  eventData[2] = IEvents.Data(\"ref_code\", \"string\", abi.encode(ref_code)) */\n      tag_76\n      dup11\n      tag_8\n      jump\t// in\n    tag_76:\n      mstore\n      tag_60\n      dup10\n      tag_8\n      jump\t// in\n        /* \"Evm/interfaces/shared.sol\":1146:1171  abi.encode(used_ref_code) */\n    tag_57:\n        /* \"Evm/interfaces/shared.sol\":417:3896  contract SharedInterface  {... */\n      mload(0x40)\n      swap1\n      tag_79\n      dup3\n      tag_3\n      jump\t// in\n    tag_79:\n      mload(0x40)\n      tag_80\n      0x40\n      dup3\n      tag_4\n      jump\t// in\n    tag_80:\n      0x0d\n      dup2\n      mstore\n      shl(0x98, 0x757365645f7265665f636f6465)\n      0x20\n      dup3\n      add\n      mstore\n      dup3\n      mstore\n      mload(0x40)\n      tag_81\n      0x40\n      dup3\n      tag_4\n      jump\t// in\n    tag_81:\n      0x06\n      dup2\n      mstore\n      shl(0xd0, 0x737472696e67)\n      0x20\n      dup3\n      add\n      mstore\n      0x20\n        /* \"Evm/interfaces/shared.sol\":1106:1172  IEvents.Data(\"used_ref_code\", \"string\", abi.encode(used_ref_code)) */\n      dup4\n      add\n        /* \"Evm/interfaces/shared.sol\":417:3896  contract SharedInterface  {... */\n      mstore\n      0x40\n        /* \"Evm/interfaces/shared.sol\":1106:1172  IEvents.Data(\"used_ref_code\", \"string\", abi.encode(used_ref_code)) */\n      dup3\n      add\n        /* \"Evm/interfaces/shared.sol\":417:3896  contract SharedInterface  {... */\n      mstore\n        /* \"Evm/interfaces/shared.sol\":1091:1172  eventData[3] = IEvents.Data(\"used_ref_code\", \"string\", abi.encode(used_ref_code)) */\n      tag_82\n      dup8\n      tag_9\n      jump\t// in\n    tag_82:\n      mstore\n      tag_60\n      dup7\n      tag_9\n      jump\t// in\n        /* \"Evm/interfaces/shared.sol\":1243:1273  abi.encode(selected_validator) */\n    tag_59:\n        /* \"Evm/interfaces/shared.sol\":417:3896  contract SharedInterface  {... */\n      mload(0x40)\n      swap1\n      tag_85\n      dup3\n      tag_3\n      jump\t// in\n    tag_85:\n      mload(0x40)\n      tag_86\n      0x40\n      dup3\n      tag_4\n      jump\t// in\n    tag_86:\n      0x12\n      dup2\n      mstore\n      shl(0x71, 0x39b2b632b1ba32b22fbb30b634b230ba37b9)\n      0x20\n      dup3\n      add\n      mstore\n      dup3\n      mstore\n      mload(0x40)\n      tag_87\n      0x40\n      dup3\n      tag_4\n      jump\t// in\n    tag_87:\n      0x06\n      dup2\n      mstore\n      shl(0xd0, 0x737472696e67)\n      0x20\n      dup3\n      add\n      mstore\n      0x20\n        /* \"Evm/interfaces/shared.sol\":1198:1274  IEvents.Data(\"selected_validator\", \"string\", abi.encode(selected_validator)) */\n      dup4\n      add\n        /* \"Evm/interfaces/shared.sol\":417:3896  contract SharedInterface  {... */\n      mstore\n      0x40\n        /* \"Evm/interfaces/shared.sol\":1198:1274  IEvents.Data(\"selected_validator\", \"string\", abi.encode(selected_validator)) */\n      dup3\n      add\n        /* \"Evm/interfaces/shared.sol\":417:3896  contract SharedInterface  {... */\n      mstore\n        /* \"Evm/interfaces/shared.sol\":1183:1274  eventData[4] = IEvents.Data(\"selected_validator\", \"string\", abi.encode(selected_validator)) */\n      tag_88\n      dup5\n      tag_10\n      jump\t// in\n    tag_88:\n      mstore\n      tag_89\n      dup4\n      tag_10\n      jump\t// in\n    tag_89:\n      pop\n        /* \"Evm/interfaces/shared.sol\":417:3896  contract SharedInterface  {... */\n      mload(0x40)\n        /* \"Evm/interfaces/shared.sol\":1333:1351  abi.encode(xp_tax) */\n      swap1\n        /* \"Evm/interfaces/shared.sol\":417:3896  contract SharedInterface  {... */\n      0x20\n        /* \"Evm/interfaces/shared.sol\":1333:1351  abi.encode(xp_tax) */\n      dup3\n      add\n        /* \"Evm/interfaces/shared.sol\":417:3896  contract SharedInterface  {... */\n      mstore\n      0x20\n        /* \"Evm/interfaces/shared.sol\":1333:1351  abi.encode(xp_tax) */\n      dup2\n      mstore\n      tag_90\n        /* \"Evm/interfaces/shared.sol\":417:3896  contract SharedInterface  {... */\n      0x40\n        /* \"Evm/interfaces/shared.sol\":1333:1351  abi.encode(xp_tax) */\n      dup3\n      tag_4\n      jump\t// in\n    tag_90:\n        /* \"Evm/interfaces/shared.sol\":417:3896  contract SharedInterface  {... */\n      mload(0x40)\n      swap1\n      tag_91\n      dup3\n      tag_3\n      jump\t// in\n    tag_91:\n      mload(0x40)\n      tag_92\n      0x40\n      dup3\n      tag_4\n      jump\t// in\n    tag_92:\n      0x06\n      dup2\n      mstore\n      shl(0xd3, 0x0f0e0bee8c2f)\n      0x20\n      dup3\n      add\n      mstore\n      dup3\n      mstore\n      mload(0x40)\n      tag_93\n      0x40\n      dup3\n      tag_4\n      jump\t// in\n    tag_93:\n      0x06\n      dup2\n      mstore\n      shl(0xd2, 0x1d5a5b9d0d8d)\n      0x20\n      dup3\n      add\n      mstore\n      0x20\n        /* \"Evm/interfaces/shared.sol\":1300:1352  IEvents.Data(\"xp_tax\", \"uint64\", abi.encode(xp_tax)) */\n      dup4\n      add\n        /* \"Evm/interfaces/shared.sol\":417:3896  contract SharedInterface  {... */\n      mstore\n      0x40\n        /* \"Evm/interfaces/shared.sol\":1300:1352  IEvents.Data(\"xp_tax\", \"uint64\", abi.encode(xp_tax)) */\n      dup3\n      add\n        /* \"Evm/interfaces/shared.sol\":417:3896  contract SharedInterface  {... */\n      mstore\n        /* \"Evm/interfaces/shared.sol\":1285:1352  eventData[5] = IEvents.Data(\"xp_tax\", \"uint64\", abi.encode(xp_tax)) */\n      tag_94\n      dup4\n      tag_11\n      jump\t// in\n    tag_94:\n      mstore\n      tag_95\n      dup3\n      tag_11\n      jump\t// in\n    tag_95:\n      pop\n        /* \"Evm/interfaces/shared.sol\":417:3896  contract SharedInterface  {... */\n      mload(0x40)\n        /* \"Evm/interfaces/shared.sol\":1412:1431  abi.encode(fee_tax) */\n      swap1\n        /* \"Evm/interfaces/shared.sol\":417:3896  contract SharedInterface  {... */\n      0x20\n        /* \"Evm/interfaces/shared.sol\":1412:1431  abi.encode(fee_tax) */\n      dup3\n      add\n        /* \"Evm/interfaces/shared.sol\":417:3896  contract SharedInterface  {... */\n      mstore\n      0x20\n        /* \"Evm/interfaces/shared.sol\":1412:1431  abi.encode(fee_tax) */\n      dup2\n      mstore\n      tag_96\n        /* \"Evm/interfaces/shared.sol\":417:3896  contract SharedInterface  {... */\n      0x40\n        /* \"Evm/interfaces/shared.sol\":1412:1431  abi.encode(fee_tax) */\n      dup3\n      tag_4\n      jump\t// in\n    tag_96:\n        /* \"Evm/interfaces/shared.sol\":417:3896  contract SharedInterface  {... */\n      mload(0x40)\n      swap1\n      tag_97\n      dup3\n      tag_3\n      jump\t// in\n    tag_97:\n      mload(0x40)\n      tag_98\n      0x40\n      dup3\n      tag_4\n      jump\t// in\n    tag_98:\n      0x07\n      dup2\n      mstore\n      shl(0xcb, 0x0cccacabee8c2f)\n      0x20\n      dup3\n      add\n      mstore\n      dup3\n      mstore\n      mload(0x40)\n      tag_99\n      0x40\n      dup3\n      tag_4\n      jump\t// in\n    tag_99:\n      0x06\n      dup2\n      mstore\n      shl(0xd2, 0x1d5a5b9d0d8d)\n      0x20\n      dup3\n      add\n      mstore\n      0x20\n        /* \"Evm/interfaces/shared.sol\":1378:1432  IEvents.Data(\"fee_tax\", \"uint64\", abi.encode(fee_tax)) */\n      dup4\n      add\n        /* \"Evm/interfaces/shared.sol\":417:3896  contract SharedInterface  {... */\n      mstore\n      0x40\n        /* \"Evm/interfaces/shared.sol\":1378:1432  IEvents.Data(\"fee_tax\", \"uint64\", abi.encode(fee_tax)) */\n      dup3\n      add\n        /* \"Evm/interfaces/shared.sol\":417:3896  contract SharedInterface  {... */\n      mstore\n        /* \"Evm/interfaces/shared.sol\":1363:1432  eventData[6] = IEvents.Data(\"fee_tax\", \"uint64\", abi.encode(fee_tax)) */\n      tag_100\n      dup3\n      tag_12\n      jump\t// in\n    tag_100:\n      mstore\n      tag_101\n      dup2\n      tag_12\n      jump\t// in\n    tag_101:\n      pop\n        /* \"Evm/interfaces/shared.sol\":1453:1459  events */\n      immutable(\"0x6d6142e7bc5885f8a3af14e4530d0fef2107c35d29b4827380ff447a51b70068\")\n      sub(shl(0xa0, 0x01), 0x01)\n        /* \"Evm/interfaces/shared.sol\":417:3896  contract SharedInterface  {... */\n      and\n        /* \"Evm/interfaces/shared.sol\":1453:1513  events.emitVaultEvent(\"Modular Storage Creation\", eventData) */\n      dup1\n      extcodesize\n      iszero\n      tag_102\n      jumpi\n        /* \"Evm/interfaces/shared.sol\":417:3896  contract SharedInterface  {... */\n      tag_104\n      dup4\n      swap3\n      swap2\n      dup4\n      swap3\n      mload(0x40)\n      swap5\n      dup6\n      dup1\n      swap5\n      dup2\n      swap4\n      shl(0xe0, 0x7d64fa9b)\n        /* \"Evm/interfaces/shared.sol\":1453:1513  events.emitVaultEvent(\"Modular Storage Creation\", eventData) */\n      dup4\n      mstore\n        /* \"Evm/interfaces/shared.sol\":417:3896  contract SharedInterface  {... */\n      0x40\n      0x04\n        /* \"Evm/interfaces/shared.sol\":1453:1513  events.emitVaultEvent(\"Modular Storage Creation\", eventData) */\n      dup5\n      add\n        /* \"Evm/interfaces/shared.sol\":417:3896  contract SharedInterface  {... */\n      mstore\n      0x18\n      0x44\n      dup5\n      add\n      mstore\n      0x4d6f64756c61722053746f72616765204372656174696f6e0000000000000000\n      0x64\n      dup5\n      add\n      mstore\n      0x80\n      0x24\n      dup5\n      add\n      mstore\n      0x84\n      dup4\n      add\n      swap1\n      tag_15\n      jump\t// in\n    tag_104:\n        /* \"Evm/interfaces/shared.sol\":1453:1513  events.emitVaultEvent(\"Modular Storage Creation\", eventData) */\n      sub\n      swap3\n      gas\n      call\n      dup1\n      iszero\n      tag_105\n      jumpi\n      tag_107\n      jumpi\n        /* \"Evm/interfaces/shared.sol\":417:3896  contract SharedInterface  {... */\n      pop\n      return\n        /* \"Evm/interfaces/shared.sol\":1453:1513  events.emitVaultEvent(\"Modular Storage Creation\", eventData) */\n    tag_107:\n      dup2\n      tag_109\n      swap2\n      tag_4\n      jump\t// in\n    tag_109:\n        /* \"Evm/interfaces/shared.sol\":417:3896  contract SharedInterface  {... */\n      tag_110\n      jumpi\n        /* \"Evm/interfaces/shared.sol\":1453:1513  events.emitVaultEvent(\"Modular Storage Creation\", eventData) */\n      dup1\n        /* \"Evm/interfaces/shared.sol\":417:3896  contract SharedInterface  {... */\n      return\n    tag_110:\n      dup1\n      revert\n        /* \"Evm/interfaces/shared.sol\":1453:1513  events.emitVaultEvent(\"Modular Storage Creation\", eventData) */\n    tag_105:\n        /* \"Evm/interfaces/shared.sol\":417:3896  contract SharedInterface  {... */\n      mload(0x40)\n      returndatasize\n      dup5\n      dup3\n      returndatacopy\n      returndatasize\n      swap1\n      revert\n        /* \"Evm/interfaces/shared.sol\":1453:1513  events.emitVaultEvent(\"Modular Storage Creation\", eventData) */\n    tag_102:\n        /* \"Evm/interfaces/shared.sol\":417:3896  contract SharedInterface  {... */\n      pop\n      pop\n      revert\n    tag_54:\n      dup1\n      dup13\n      0x20\n      dup1\n      swap4\n      mload(0x40)\n      swap3\n      tag_112\n      dup5\n      tag_3\n      jump\t// in\n    tag_112:\n      0x60\n      dup5\n      mstore\n      0x60\n      dup4\n      dup6\n      add\n      mstore\n      0x60\n      0x40\n      dup6\n      add\n      mstore\n      add\n      add\n      mstore\n      add\n      jump(tag_53)\n    tag_51:\n      mstore(0x00, shl(0xe0, 0x4e487b71))\n      mstore(0x04, 0x41)\n      revert(0x00, 0x24)\n    tag_46:\n      dup10\n      dup1\n      revert\n    tag_44:\n      dup9\n      dup1\n      revert\n    tag_41:\n      dup7\n      dup1\n      revert\n    tag_38:\n      dup5\n      dup1\n      revert\n    tag_35:\n      dup3\n      dup1\n      revert\n    tag_32:\n      pop\n      dup1\n      revert\n    tag_24:\n      pop\n      jumpi(tag_110, callvalue)\n      dup1\n      add(calldatasize, not(0x03))\n      slt\n      tag_110\n      jumpi\n      mload(0x40)\n        /* \"Evm/interfaces/shared.sol\":452:483  IEvents public immutable events */\n      immutable(\"0x6d6142e7bc5885f8a3af14e4530d0fef2107c35d29b4827380ff447a51b70068\")\n      sub(shl(0xa0, 0x01), 0x01)\n        /* \"Evm/interfaces/shared.sol\":417:3896  contract SharedInterface  {... */\n      and\n      dup2\n      mstore\n      0x20\n      swap1\n      return\n    tag_22:\n      pop\n      jumpi(tag_110, callvalue)\n      dup1\n        /* \"Evm/interfaces/shared.sol\":3058:3074  abi.encode(name) */\n      tag_119\n        /* \"Evm/interfaces/shared.sol\":2979:3000  abi.encode(sub_owner) */\n      tag_120\n        /* \"Evm/interfaces/shared.sol\":417:3896  contract SharedInterface  {... */\n      tag_121\n      calldatasize\n      tag_2\n      jump\t// in\n    tag_121:\n        /* \"Evm/interfaces/shared.sol\":2731:2752  new IEvents.Data[](4) */\n      swap1\n      swap3\n        /* \"Evm/interfaces/shared.sol\":2901:2917  abi.encode(user) */\n      tag_122\n        /* \"Evm/interfaces/shared.sol\":2731:2752  new IEvents.Data[](4) */\n      tag_123\n      swap9\n      swap7\n      swap8\n      swap4\n      swap9\n      tag_5\n      jump\t// in\n    tag_123:\n        /* \"Evm/interfaces/shared.sol\":417:3896  contract SharedInterface  {... */\n      swap9\n      mload(0x40)\n        /* \"Evm/interfaces/shared.sol\":2833:2843  msg.sender */\n      caller\n        /* \"Evm/interfaces/shared.sol\":2822:2844  abi.encode(msg.sender) */\n      0x20\n      dup3\n      add\n        /* \"Evm/interfaces/shared.sol\":417:3896  contract SharedInterface  {... */\n      mstore\n        /* \"Evm/interfaces/shared.sol\":2822:2844  abi.encode(msg.sender) */\n      0x20\n      dup2\n      mstore\n      tag_124\n        /* \"Evm/interfaces/shared.sol\":417:3896  contract SharedInterface  {... */\n      0x40\n        /* \"Evm/interfaces/shared.sol\":2822:2844  abi.encode(msg.sender) */\n      dup3\n      tag_4\n      jump\t// in\n    tag_124:\n        /* \"Evm/interfaces/shared.sol\":417:3896  contract SharedInterface  {... */\n      mload(0x40)\n      swap1\n      tag_125\n      dup3\n      tag_3\n      jump\t// in\n    tag_125:\n      mload(0x40)\n      tag_126\n      0x40\n      dup3\n      tag_4\n      jump\t// in\n    tag_126:\n      0x06\n      dup2\n      mstore\n      shl(0xd1, 0x39b2b73232b9)\n        /* \"Evm/interfaces/shared.sol\":2822:2844  abi.encode(msg.sender) */\n      0x20\n        /* \"Evm/interfaces/shared.sol\":417:3896  contract SharedInterface  {... */\n      dup3\n      add\n      mstore\n      dup3\n      mstore\n      mload(0x40)\n      tag_127\n      0x40\n      dup3\n      tag_4\n      jump\t// in\n    tag_127:\n      0x07\n      dup2\n      mstore\n      shl(0xc8, 0x61646472657373)\n        /* \"Evm/interfaces/shared.sol\":2822:2844  abi.encode(msg.sender) */\n      0x20\n        /* \"Evm/interfaces/shared.sol\":417:3896  contract SharedInterface  {... */\n      dup3\n      add\n      mstore\n        /* \"Evm/interfaces/shared.sol\":2822:2844  abi.encode(msg.sender) */\n      0x20\n        /* \"Evm/interfaces/shared.sol\":2788:2845  IEvents.Data(\"sender\", \"address\", abi.encode(msg.sender)) */\n      dup4\n      add\n        /* \"Evm/interfaces/shared.sol\":417:3896  contract SharedInterface  {... */\n      mstore\n      0x40\n        /* \"Evm/interfaces/shared.sol\":2788:2845  IEvents.Data(\"sender\", \"address\", abi.encode(msg.sender)) */\n      dup3\n      add\n        /* \"Evm/interfaces/shared.sol\":417:3896  contract SharedInterface  {... */\n      mstore\n        /* \"Evm/interfaces/shared.sol\":2773:2845  eventData[0] = IEvents.Data(\"sender\", \"address\", abi.encode(msg.sender)) */\n      tag_128\n      dup12\n      tag_6\n      jump\t// in\n    tag_128:\n      mstore\n      tag_60\n      dup11\n      tag_6\n      jump\t// in\n        /* \"Evm/interfaces/shared.sol\":2901:2917  abi.encode(user) */\n    tag_122:\n        /* \"Evm/interfaces/shared.sol\":417:3896  contract SharedInterface  {... */\n      mload(0x40)\n      swap1\n      tag_131\n      dup3\n      tag_3\n      jump\t// in\n    tag_131:\n      mload(0x40)\n      tag_132\n      0x40\n      dup3\n      tag_4\n      jump\t// in\n    tag_132:\n      0x04\n      dup2\n      mstore\n      shl(0xe1, 0x3ab9b2b9)\n        /* \"Evm/interfaces/shared.sol\":2822:2844  abi.encode(msg.sender) */\n      0x20\n        /* \"Evm/interfaces/shared.sol\":417:3896  contract SharedInterface  {... */\n      dup3\n      add\n      mstore\n      dup3\n      mstore\n      mload(0x40)\n      tag_133\n      0x40\n      dup3\n      tag_4\n      jump\t// in\n    tag_133:\n      0x05\n      dup2\n      mstore\n      shl(0xd8, 0x6279746573)\n        /* \"Evm/interfaces/shared.sol\":2822:2844  abi.encode(msg.sender) */\n      0x20\n        /* \"Evm/interfaces/shared.sol\":417:3896  contract SharedInterface  {... */\n      dup3\n      add\n      mstore\n        /* \"Evm/interfaces/shared.sol\":2822:2844  abi.encode(msg.sender) */\n      0x20\n        /* \"Evm/interfaces/shared.sol\":2871:2918  IEvents.Data(\"user\", \"bytes\", abi.encode(user)) */\n      dup4\n      add\n        /* \"Evm/interfaces/shared.sol\":417:3896  contract SharedInterface  {... */\n      mstore\n      0x40\n        /* \"Evm/interfaces/shared.sol\":2871:2918  IEvents.Data(\"user\", \"bytes\", abi.encode(user)) */\n      dup3\n      add\n        /* \"Evm/interfaces/shared.sol\":417:3896  contract SharedInterface  {... */\n      mstore\n        /* \"Evm/interfaces/shared.sol\":2856:2918  eventData[1] = IEvents.Data(\"user\", \"bytes\", abi.encode(user)) */\n      tag_134\n      dup9\n      tag_7\n      jump\t// in\n    tag_134:\n      mstore\n      tag_60\n      dup8\n      tag_7\n      jump\t// in\n        /* \"Evm/interfaces/shared.sol\":2979:3000  abi.encode(sub_owner) */\n    tag_120:\n        /* \"Evm/interfaces/shared.sol\":417:3896  contract SharedInterface  {... */\n      mload(0x40)\n      swap1\n      tag_137\n      dup3\n      tag_3\n      jump\t// in\n    tag_137:\n      mload(0x40)\n      tag_138\n      0x40\n      dup3\n      tag_4\n      jump\t// in\n    tag_138:\n      0x09\n      dup2\n      mstore\n      shl(0xb9, 0x39bab12fb7bbb732b9)\n        /* \"Evm/interfaces/shared.sol\":2822:2844  abi.encode(msg.sender) */\n      0x20\n        /* \"Evm/interfaces/shared.sol\":417:3896  contract SharedInterface  {... */\n      dup3\n      add\n      mstore\n      dup3\n      mstore\n      mload(0x40)\n      tag_139\n      0x40\n      dup3\n      tag_4\n      jump\t// in\n    tag_139:\n      0x05\n      dup2\n      mstore\n      shl(0xd8, 0x6279746573)\n        /* \"Evm/interfaces/shared.sol\":2822:2844  abi.encode(msg.sender) */\n      0x20\n        /* \"Evm/interfaces/shared.sol\":417:3896  contract SharedInterface  {... */\n      dup3\n      add\n      mstore\n        /* \"Evm/interfaces/shared.sol\":2822:2844  abi.encode(msg.sender) */\n      0x20\n        /* \"Evm/interfaces/shared.sol\":2944:3001  IEvents.Data(\"sub_owner\", \"bytes\", abi.encode(sub_owner)) */\n      dup4\n      add\n        /* \"Evm/interfaces/shared.sol\":417:3896  contract SharedInterface  {... */\n      mstore\n      0x40\n        /* \"Evm/interfaces/shared.sol\":2944:3001  IEvents.Data(\"sub_owner\", \"bytes\", abi.encode(sub_owner)) */\n      dup3\n      add\n        /* \"Evm/interfaces/shared.sol\":417:3896  contract SharedInterface  {... */\n      mstore\n        /* \"Evm/interfaces/shared.sol\":2929:3001  eventData[2] = IEvents.Data(\"sub_owner\", \"bytes\", abi.encode(sub_owner)) */\n      tag_140\n      dup6\n      tag_8\n      jump\t// in\n    tag_140:\n      mstore\n      tag_60\n      dup5\n      tag_8\n      jump\t// in\n        /* \"Evm/interfaces/shared.sol\":3058:3074  abi.encode(name) */\n    tag_119:\n        /* \"Evm/interfaces/shared.sol\":417:3896  contract SharedInterface  {... */\n      mload(0x40)\n      swap1\n      tag_143\n      dup3\n      tag_3\n      jump\t// in\n    tag_143:\n      mload(0x40)\n      tag_144\n      0x40\n      dup3\n      tag_4\n      jump\t// in\n    tag_144:\n      0x04\n      dup2\n      mstore\n      shl(0xe0, 0x6e616d65)\n        /* \"Evm/interfaces/shared.sol\":2822:2844  abi.encode(msg.sender) */\n      0x20\n        /* \"Evm/interfaces/shared.sol\":417:3896  contract SharedInterface  {... */\n      dup3\n      add\n      mstore\n      dup3\n      mstore\n      mload(0x40)\n      tag_145\n      0x40\n      dup3\n      tag_4\n      jump\t// in\n    tag_145:\n      0x06\n      dup2\n      mstore\n      shl(0xd0, 0x737472696e67)\n        /* \"Evm/interfaces/shared.sol\":2822:2844  abi.encode(msg.sender) */\n      0x20\n        /* \"Evm/interfaces/shared.sol\":417:3896  contract SharedInterface  {... */\n      dup3\n      add\n      mstore\n        /* \"Evm/interfaces/shared.sol\":2822:2844  abi.encode(msg.sender) */\n      0x20\n        /* \"Evm/interfaces/shared.sol\":3027:3075  IEvents.Data(\"name\", \"string\", abi.encode(name)) */\n      dup4\n      add\n        /* \"Evm/interfaces/shared.sol\":417:3896  contract SharedInterface  {... */\n      mstore\n      0x40\n        /* \"Evm/interfaces/shared.sol\":3027:3075  IEvents.Data(\"name\", \"string\", abi.encode(name)) */\n      dup3\n      add\n        /* \"Evm/interfaces/shared.sol\":417:3896  contract SharedInterface  {... */\n      mstore\n        /* \"Evm/interfaces/shared.sol\":3012:3075  eventData[3] = IEvents.Data(\"name\", \"string\", abi.encode(name)) */\n      tag_146\n      dup3\n      tag_9\n      jump\t// in\n    tag_146:\n      mstore\n      tag_147\n      dup2\n      tag_9\n      jump\t// in\n    tag_147:\n      pop\n        /* \"Evm/interfaces/shared.sol\":3096:3102  events */\n      immutable(\"0x6d6142e7bc5885f8a3af14e4530d0fef2107c35d29b4827380ff447a51b70068\")\n      sub(shl(0xa0, 0x01), 0x01)\n        /* \"Evm/interfaces/shared.sol\":417:3896  contract SharedInterface  {... */\n      and\n        /* \"Evm/interfaces/shared.sol\":3096:3165  events.emitVaultEvent(\"Modular Storage Sub Owner Removed\", eventData) */\n      dup1\n      extcodesize\n      iszero\n      tag_102\n      jumpi\n        /* \"Evm/interfaces/shared.sol\":417:3896  contract SharedInterface  {... */\n      tag_104\n      dup4\n      swap3\n      swap2\n      dup4\n      swap3\n      mload(0x40)\n      swap5\n      dup6\n      dup1\n      swap5\n      dup2\n      swap4\n      shl(0xe0, 0x7d64fa9b)\n        /* \"Evm/interfaces/shared.sol\":3096:3165  events.emitVaultEvent(\"Modular Storage Sub Owner Removed\", eventData) */\n      dup4\n      mstore\n        /* \"Evm/interfaces/shared.sol\":417:3896  contract SharedInterface  {... */\n      0x40\n      0x04\n        /* \"Evm/interfaces/shared.sol\":3096:3165  events.emitVaultEvent(\"Modular Storage Sub Owner Removed\", eventData) */\n      dup5\n      add\n        /* \"Evm/interfaces/shared.sol\":417:3896  contract SharedInterface  {... */\n      mstore\n      0x21\n      0x44\n      dup5\n      add\n      mstore\n      0x4d6f64756c61722053746f7261676520537562204f776e65722052656d6f7665\n      0x64\n      dup5\n      add\n      mstore\n      shl(0xfa, 0x19)\n      0x84\n      dup5\n      add\n      mstore\n      0xa0\n      0x24\n      dup5\n      add\n      mstore\n      0xa4\n      dup4\n      add\n      swap1\n      tag_15\n      jump\t// in\n    tag_20:\n      pop\n      jumpi(tag_110, callvalue)\n      dup1\n        /* \"Evm/interfaces/shared.sol\":3674:3690  abi.encode(name) */\n      tag_160\n        /* \"Evm/interfaces/shared.sol\":3761:3790  abi.encode(new_used_ref_code) */\n      tag_161\n        /* \"Evm/interfaces/shared.sol\":417:3896  contract SharedInterface  {... */\n      tag_162\n      calldatasize\n      tag_2\n      jump\t// in\n    tag_162:\n        /* \"Evm/interfaces/shared.sol\":3425:3446  new IEvents.Data[](4) */\n      swap4\n      swap1\n      swap6\n      swap5\n      swap3\n        /* \"Evm/interfaces/shared.sol\":3595:3616  abi.encode(sub_owner) */\n      tag_122\n        /* \"Evm/interfaces/shared.sol\":3425:3446  new IEvents.Data[](4) */\n      tag_123\n      swap9\n      swap4\n      swap9\n      tag_5\n      jump\t// in\n        /* \"Evm/interfaces/shared.sol\":3674:3690  abi.encode(name) */\n    tag_160:\n        /* \"Evm/interfaces/shared.sol\":417:3896  contract SharedInterface  {... */\n      mload(0x40)\n      swap1\n      tag_178\n      dup3\n      tag_3\n      jump\t// in\n    tag_178:\n      mload(0x40)\n      tag_179\n      0x40\n      dup3\n      tag_4\n      jump\t// in\n    tag_179:\n      0x04\n      dup2\n      mstore\n      shl(0xe0, 0x6e616d65)\n        /* \"Evm/interfaces/shared.sol\":3516:3538  abi.encode(msg.sender) */\n      0x20\n        /* \"Evm/interfaces/shared.sol\":417:3896  contract SharedInterface  {... */\n      dup3\n      add\n      mstore\n      dup3\n      mstore\n      mload(0x40)\n      tag_180\n      0x40\n      dup3\n      tag_4\n      jump\t// in\n    tag_180:\n      0x06\n      dup2\n      mstore\n      shl(0xd0, 0x737472696e67)\n        /* \"Evm/interfaces/shared.sol\":3516:3538  abi.encode(msg.sender) */\n      0x20\n        /* \"Evm/interfaces/shared.sol\":417:3896  contract SharedInterface  {... */\n      dup3\n      add\n      mstore\n        /* \"Evm/interfaces/shared.sol\":3516:3538  abi.encode(msg.sender) */\n      0x20\n        /* \"Evm/interfaces/shared.sol\":3643:3691  IEvents.Data(\"name\", \"string\", abi.encode(name)) */\n      dup4\n      add\n        /* \"Evm/interfaces/shared.sol\":417:3896  contract SharedInterface  {... */\n      mstore\n      0x40\n        /* \"Evm/interfaces/shared.sol\":3643:3691  IEvents.Data(\"name\", \"string\", abi.encode(name)) */\n      dup3\n      add\n        /* \"Evm/interfaces/shared.sol\":417:3896  contract SharedInterface  {... */\n      mstore\n        /* \"Evm/interfaces/shared.sol\":3628:3691  eventData[2] = IEvents.Data(\"name\", \"string\", abi.encode(name)) */\n      tag_140\n      dup6\n      tag_8\n      jump\t// in\n        /* \"Evm/interfaces/shared.sol\":3761:3790  abi.encode(new_used_ref_code) */\n    tag_161:\n        /* \"Evm/interfaces/shared.sol\":417:3896  contract SharedInterface  {... */\n      mload(0x40)\n      swap1\n      tag_184\n      dup3\n      tag_3\n      jump\t// in\n    tag_184:\n      mload(0x40)\n      tag_185\n      0x40\n      dup3\n      tag_4\n      jump\t// in\n    tag_185:\n      0x11\n      dup2\n      mstore\n      shl(0x78, 0x6e65775f757365645f7265665f636f6465)\n        /* \"Evm/interfaces/shared.sol\":3516:3538  abi.encode(msg.sender) */\n      0x20\n        /* \"Evm/interfaces/shared.sol\":417:3896  contract SharedInterface  {... */\n      dup3\n      add\n      mstore\n      dup3\n      mstore\n      mload(0x40)\n      tag_186\n      0x40\n      dup3\n      tag_4\n      jump\t// in\n    tag_186:\n      0x06\n      dup2\n      mstore\n      shl(0xd0, 0x737472696e67)\n        /* \"Evm/interfaces/shared.sol\":3516:3538  abi.encode(msg.sender) */\n      0x20\n        /* \"Evm/interfaces/shared.sol\":417:3896  contract SharedInterface  {... */\n      dup3\n      add\n      mstore\n        /* \"Evm/interfaces/shared.sol\":3516:3538  abi.encode(msg.sender) */\n      0x20\n        /* \"Evm/interfaces/shared.sol\":3717:3791  IEvents.Data(\"new_used_ref_code\", \"string\", abi.encode(new_used_ref_code)) */\n      dup4\n      add\n        /* \"Evm/interfaces/shared.sol\":417:3896  contract SharedInterface  {... */\n      mstore\n      0x40\n        /* \"Evm/interfaces/shared.sol\":3717:3791  IEvents.Data(\"new_used_ref_code\", \"string\", abi.encode(new_used_ref_code)) */\n      dup3\n      add\n        /* \"Evm/interfaces/shared.sol\":417:3896  contract SharedInterface  {... */\n      mstore\n        /* \"Evm/interfaces/shared.sol\":3702:3791  eventData[3] = IEvents.Data(\"new_used_ref_code\", \"string\", abi.encode(new_used_ref_code)) */\n      tag_187\n      dup3\n      tag_9\n      jump\t// in\n    tag_187:\n      mstore\n      tag_188\n      dup2\n      tag_9\n      jump\t// in\n    tag_188:\n      pop\n        /* \"Evm/interfaces/shared.sol\":3812:3818  events */\n      immutable(\"0x6d6142e7bc5885f8a3af14e4530d0fef2107c35d29b4827380ff447a51b70068\")\n      sub(shl(0xa0, 0x01), 0x01)\n        /* \"Evm/interfaces/shared.sol\":417:3896  contract SharedInterface  {... */\n      and\n        /* \"Evm/interfaces/shared.sol\":3812:3885  events.emitVaultEvent(\"Modular Storage Used Ref Code Updated\", eventData) */\n      dup1\n      extcodesize\n      iszero\n      tag_102\n      jumpi\n        /* \"Evm/interfaces/shared.sol\":417:3896  contract SharedInterface  {... */\n      tag_104\n      dup4\n      swap3\n      swap2\n      dup4\n      swap3\n      mload(0x40)\n      swap5\n      dup6\n      dup1\n      swap5\n      dup2\n      swap4\n      shl(0xe0, 0x7d64fa9b)\n        /* \"Evm/interfaces/shared.sol\":3812:3885  events.emitVaultEvent(\"Modular Storage Used Ref Code Updated\", eventData) */\n      dup4\n      mstore\n        /* \"Evm/interfaces/shared.sol\":417:3896  contract SharedInterface  {... */\n      0x40\n      0x04\n        /* \"Evm/interfaces/shared.sol\":3812:3885  events.emitVaultEvent(\"Modular Storage Used Ref Code Updated\", eventData) */\n      dup5\n      add\n        /* \"Evm/interfaces/shared.sol\":417:3896  contract SharedInterface  {... */\n      mstore\n      0x25\n      0x44\n      dup5\n      add\n      mstore\n      0x4d6f64756c61722053746f7261676520557365642052656620436f6465205570\n      0x64\n      dup5\n      add\n      mstore\n      shl(0xda, 0x19185d1959)\n      0x84\n      dup5\n      add\n      mstore\n      0xa0\n      0x24\n      dup5\n      add\n      mstore\n      0xa4\n      dup4\n      add\n      swap1\n      tag_15\n      jump\t// in\n    tag_18:\n      pop\n      jumpi(tag_230, callvalue)\n        /* \"Evm/interfaces/shared.sol\":2232:2248  abi.encode(name) */\n      tag_201\n        /* \"Evm/interfaces/shared.sol\":2153:2174  abi.encode(sub_owner) */\n      tag_120\n        /* \"Evm/interfaces/shared.sol\":417:3896  contract SharedInterface  {... */\n      tag_121\n      calldatasize\n      tag_2\n      jump\t// in\n        /* \"Evm/interfaces/shared.sol\":2232:2248  abi.encode(name) */\n    tag_201:\n        /* \"Evm/interfaces/shared.sol\":417:3896  contract SharedInterface  {... */\n      mload(0x40)\n      swap1\n      tag_225\n      dup3\n      tag_3\n      jump\t// in\n    tag_225:\n      mload(0x40)\n      tag_226\n      0x40\n      dup3\n      tag_4\n      jump\t// in\n    tag_226:\n      0x04\n      dup2\n      mstore\n      shl(0xe0, 0x6e616d65)\n        /* \"Evm/interfaces/shared.sol\":1996:2018  abi.encode(msg.sender) */\n      0x20\n        /* \"Evm/interfaces/shared.sol\":417:3896  contract SharedInterface  {... */\n      dup3\n      add\n      mstore\n      dup3\n      mstore\n      mload(0x40)\n      tag_227\n      0x40\n      dup3\n      tag_4\n      jump\t// in\n    tag_227:\n      0x06\n      dup2\n      mstore\n      shl(0xd0, 0x737472696e67)\n        /* \"Evm/interfaces/shared.sol\":1996:2018  abi.encode(msg.sender) */\n      0x20\n        /* \"Evm/interfaces/shared.sol\":417:3896  contract SharedInterface  {... */\n      dup3\n      add\n      mstore\n        /* \"Evm/interfaces/shared.sol\":1996:2018  abi.encode(msg.sender) */\n      0x20\n        /* \"Evm/interfaces/shared.sol\":2201:2249  IEvents.Data(\"name\", \"string\", abi.encode(name)) */\n      dup4\n      add\n        /* \"Evm/interfaces/shared.sol\":417:3896  contract SharedInterface  {... */\n      mstore\n      0x40\n        /* \"Evm/interfaces/shared.sol\":2201:2249  IEvents.Data(\"name\", \"string\", abi.encode(name)) */\n      dup3\n      add\n        /* \"Evm/interfaces/shared.sol\":417:3896  contract SharedInterface  {... */\n      mstore\n        /* \"Evm/interfaces/shared.sol\":2186:2249  eventData[3] = IEvents.Data(\"name\", \"string\", abi.encode(name)) */\n      tag_228\n      dup3\n      tag_9\n      jump\t// in\n    tag_228:\n      mstore\n      tag_229\n      dup2\n      tag_9\n      jump\t// in\n    tag_229:\n      pop\n        /* \"Evm/interfaces/shared.sol\":2270:2276  events */\n      immutable(\"0x6d6142e7bc5885f8a3af14e4530d0fef2107c35d29b4827380ff447a51b70068\")\n      sub(shl(0xa0, 0x01), 0x01)\n        /* \"Evm/interfaces/shared.sol\":417:3896  contract SharedInterface  {... */\n      and\n        /* \"Evm/interfaces/shared.sol\":2270:2337  events.emitVaultEvent(\"Modular Storage Sub Owner Added\", eventData) */\n      dup1\n      extcodesize\n      iszero\n      tag_230\n      jumpi\n        /* \"Evm/interfaces/shared.sol\":417:3896  contract SharedInterface  {... */\n      tag_232\n      0x00\n      swap3\n      swap2\n      dup4\n      swap3\n      mload(0x40)\n      swap5\n      dup6\n      dup1\n      swap5\n      dup2\n      swap4\n      shl(0xe0, 0x7d64fa9b)\n        /* \"Evm/interfaces/shared.sol\":2270:2337  events.emitVaultEvent(\"Modular Storage Sub Owner Added\", eventData) */\n      dup4\n      mstore\n        /* \"Evm/interfaces/shared.sol\":417:3896  contract SharedInterface  {... */\n      0x40\n      0x04\n        /* \"Evm/interfaces/shared.sol\":2270:2337  events.emitVaultEvent(\"Modular Storage Sub Owner Added\", eventData) */\n      dup5\n      add\n        /* \"Evm/interfaces/shared.sol\":417:3896  contract SharedInterface  {... */\n      mstore\n      0x1f\n      0x44\n      dup5\n      add\n      mstore\n      0x4d6f64756c61722053746f7261676520537562204f776e657220416464656400\n      0x64\n      dup5\n      add\n      mstore\n      0x80\n      0x24\n      dup5\n      add\n      mstore\n      0x84\n      dup4\n      add\n      swap1\n      tag_15\n      jump\t// in\n    tag_232:\n        /* \"Evm/interfaces/shared.sol\":2270:2337  events.emitVaultEvent(\"Modular Storage Sub Owner Added\", eventData) */\n      sub\n      swap3\n      gas\n      call\n      dup1\n      iszero\n      tag_233\n      jumpi\n      tag_235\n      jumpi\n        /* \"Evm/interfaces/shared.sol\":417:3896  contract SharedInterface  {... */\n      pop\n      dup1\n      return\n        /* \"Evm/interfaces/shared.sol\":2270:2337  events.emitVaultEvent(\"Modular Storage Sub Owner Added\", eventData) */\n    tag_235:\n      tag_237\n      swap2\n      pop\n        /* \"Evm/interfaces/shared.sol\":417:3896  contract SharedInterface  {... */\n      0x00\n        /* \"Evm/interfaces/shared.sol\":2270:2337  events.emitVaultEvent(\"Modular Storage Sub Owner Added\", eventData) */\n      swap1\n      tag_4\n      jump\t// in\n    tag_237:\n        /* \"Evm/interfaces/shared.sol\":417:3896  contract SharedInterface  {... */\n      stop\n        /* \"Evm/interfaces/shared.sol\":2270:2337  events.emitVaultEvent(\"Modular Storage Sub Owner Added\", eventData) */\n    tag_233:\n        /* \"Evm/interfaces/shared.sol\":417:3896  contract SharedInterface  {... */\n      mload(0x40)\n      returndatasize\n      0x00\n      dup3\n      returndatacopy\n      returndatasize\n      swap1\n      revert\n        /* \"Evm/interfaces/shared.sol\":2270:2337  events.emitVaultEvent(\"Modular Storage Sub Owner Added\", eventData) */\n    tag_230:\n        /* \"Evm/interfaces/shared.sol\":417:3896  contract SharedInterface  {... */\n      0x00\n      dup1\n      revert\n    tag_1:\n      swap2\n      dup2\n      0x1f\n      dup5\n      add\n      slt\n      iszero\n      tag_230\n      jumpi\n      dup3\n      calldataload\n      swap2\n      0xffffffffffffffff\n      dup4\n      gt\n      tag_230\n      jumpi\n      0x20\n      dup4\n      dup2\n      dup7\n      add\n      swap6\n      add\n      add\n      gt\n      tag_230\n      jumpi\n      jump\t// out\n    tag_2:\n      0x60\n      not(0x03)\n      dup3\n      add\n      slt\n      tag_230\n      jumpi\n      calldataload(0x04)\n      0xffffffffffffffff\n      dup2\n      gt\n      tag_230\n      jumpi\n      dup2\n      tag_248\n      swap2\n      0x04\n      add\n      tag_1\n      jump\t// in\n    tag_248:\n      swap3\n      swap1\n      swap3\n      swap2\n      calldataload(0x24)\n      0xffffffffffffffff\n      dup2\n      gt\n      tag_230\n      jumpi\n      dup2\n      tag_251\n      swap2\n      0x04\n      add\n      tag_1\n      jump\t// in\n    tag_251:\n      swap3\n      swap1\n      swap3\n      swap2\n      calldataload(0x44)\n      swap1\n      0xffffffffffffffff\n      dup3\n      gt\n      tag_230\n      jumpi\n      tag_254\n      swap2\n      0x04\n      add\n      tag_1\n      jump\t// in\n    tag_254:\n      swap1\n      swap2\n      jump\t// out\n    tag_3:\n      0x60\n      dup2\n      add\n      swap1\n      dup2\n      lt\n      0xffffffffffffffff\n      dup3\n      gt\n      or\n      tag_51\n      jumpi\n      0x40\n      mstore\n      jump\t// out\n    tag_4:\n      swap1\n      0x1f\n        /* \"Evm/interfaces/shared.sol\":1996:2018  abi.encode(msg.sender) */\n      dup1\n      not\n        /* \"Evm/interfaces/shared.sol\":417:3896  contract SharedInterface  {... */\n      swap2\n      add\n      and\n      dup2\n      add\n      swap1\n      dup2\n      lt\n      0xffffffffffffffff\n      dup3\n      gt\n      or\n      tag_51\n      jumpi\n      0x40\n      mstore\n      jump\t// out\n    tag_5:\n      mload(0x40)\n      0xa0\n      swap2\n      swap1\n      tag_261\n      dup4\n      dup3\n      tag_4\n      jump\t// in\n    tag_261:\n      0x04\n      dup2\n      mstore\n      swap2\n      not(0x1f)\n      add\n      dup3\n      0x00\n    tag_264:\n      dup3\n      dup2\n      lt\n      tag_265\n      jumpi\n      pop\n      pop\n      pop\n      jump\t// out\n    tag_265:\n      0x20\n      swap1\n      mload(0x40)\n      tag_267\n      dup2\n      tag_3\n      jump\t// in\n    tag_267:\n      0x60\n      dup2\n      mstore\n      0x60\n      dup4\n      dup3\n      add\n      mstore\n      0x60\n      0x40\n      dup3\n      add\n      mstore\n      dup3\n      dup3\n      dup6\n      add\n      add\n      mstore\n      add\n      jump(tag_264)\n    tag_6:\n      dup1\n      mload\n      iszero\n      tag_268\n      jumpi\n      0x20\n      add\n      swap1\n      jump\t// out\n    tag_268:\n      mstore(0x00, shl(0xe0, 0x4e487b71))\n      mstore(0x04, 0x32)\n      revert(0x00, 0x24)\n    tag_7:\n      dup1\n      mload\n        /* \"Evm/interfaces/shared.sol\":2040:2041  1 */\n      0x01\n        /* \"Evm/interfaces/shared.sol\":417:3896  contract SharedInterface  {... */\n      lt\n      iszero\n      tag_268\n      jumpi\n      0x40\n      add\n      swap1\n      jump\t// out\n    tag_8:\n      dup1\n      mload\n        /* \"Evm/interfaces/shared.sol\":2113:2114  2 */\n      0x02\n        /* \"Evm/interfaces/shared.sol\":417:3896  contract SharedInterface  {... */\n      lt\n      iszero\n      tag_268\n      jumpi\n      0x60\n      add\n      swap1\n      jump\t// out\n    tag_9:\n      dup1\n      mload\n        /* \"Evm/interfaces/shared.sol\":2196:2197  3 */\n      0x03\n        /* \"Evm/interfaces/shared.sol\":417:3896  contract SharedInterface  {... */\n      lt\n      iszero\n      tag_268\n      jumpi\n      0x80\n      add\n      swap1\n      jump\t// out\n    tag_10:\n      dup1\n      mload\n      0x04\n      lt\n      iszero\n      tag_268\n      jumpi\n      0xa0\n      add\n      swap1\n      jump\t// out\n    tag_11:\n      dup1\n      mload\n        /* \"Evm/interfaces/shared.sol\":1295:1296  5 */\n      0x05\n        /* \"Evm/interfaces/shared.sol\":417:3896  contract SharedInterface  {... */\n      lt\n      iszero\n      tag_268\n      jumpi\n      0xc0\n      add\n      swap1\n      jump\t// out\n    tag_12:\n      dup1\n      mload\n      0x06\n      lt\n      iszero\n      tag_268\n      jumpi\n      0xe0\n      add\n      swap1\n      jump\t// out\n    tag_13:\n      swap1\n      dup1\n      0x20\n      swap4\n      swap3\n      dup2\n      dup5\n      mstore\n      dup5\n      dup5\n      add\n      calldatacopy\n      0x00\n      dup3\n      dup3\n      add\n      dup5\n      add\n      mstore\n      0x1f\n      add\n      not(0x1f)\n      and\n      add\n      add\n      swap1\n      jump\t// out\n    tag_14:\n      dup1\n      mload\n      dup1\n      dup4\n      mstore\n      0x20\n      swap3\n      swap2\n      dup2\n      swap1\n      dup5\n      add\n      dup5\n      dup5\n      add\n      mcopy\n      0x00\n      dup3\n      dup3\n      add\n      dup5\n      add\n      mstore\n      0x1f\n      add\n      not(0x1f)\n      and\n      add\n      add\n      swap1\n      jump\t// out\n    tag_15:\n      swap1\n      dup1\n      0x20\n      dup4\n      mload\n      swap2\n      dup3\n      dup2\n      mstore\n      add\n      swap2\n      0x20\n      dup1\n      dup4\n      0x05\n      shl\n      dup4\n      add\n      add\n      swap5\n      add\n      swap3\n      0x00\n      swap2\n    tag_282:\n      dup4\n      dup4\n      lt\n      tag_283\n      jumpi\n      pop\n      pop\n      pop\n      pop\n      pop\n      swap1\n      jump\t// out\n    tag_283:\n        /* \"Evm/interfaces/shared.sol\":1996:2018  abi.encode(msg.sender) */\n      swap1\n      swap2\n      swap3\n      swap4\n      swap5\n        /* \"Evm/interfaces/shared.sol\":417:3896  contract SharedInterface  {... */\n      0x20\n        /* \"Evm/interfaces/shared.sol\":1996:2018  abi.encode(msg.sender) */\n      dup1\n        /* \"Evm/interfaces/shared.sol\":417:3896  contract SharedInterface  {... */\n      tag_285\n      0x01\n        /* \"Evm/interfaces/shared.sol\":1996:2018  abi.encode(msg.sender) */\n      swap4\n      not(0x1f)\n        /* \"Evm/interfaces/shared.sol\":417:3896  contract SharedInterface  {... */\n      dup7\n      dup3\n      sub\n      add\n      dup8\n      mstore\n      dup10\n      mload\n      swap1\n      0x40\n      tag_286\n      tag_287\n      dup5\n      mload\n      0x60\n      dup6\n      mstore\n      0x60\n      dup6\n      add\n      swap1\n      tag_14\n      jump\t// in\n    tag_287:\n      dup7\n      dup6\n      add\n      mload\n      dup5\n      dup3\n      sub\n      dup9\n      dup7\n      add\n      mstore\n      tag_14\n      jump\t// in\n    tag_286:\n      swap3\n      add\n      mload\n      swap1\n      0x40\n      dup2\n      dup5\n      sub\n      swap2\n      add\n      mstore\n      tag_14\n      jump\t// in\n    tag_285:\n      swap8\n      add\n      swap4\n      add\n      swap4\n      add\n      swap2\n      swap4\n      swap3\n      swap1\n      jump(tag_282)\n\n    auxdata: 0xa264697066735822122026506a9fc3d8ee67a75ea7ac40d6f8757cec66c88a867ab4803bdbb016e2fbcc64736f6c634300081f0033\n}\n",
				"bytecode": {
					"linkReferences": {},
					"object": "60a03461008857601f610f1638819003918201601f19168301916001600160401b0383118484101761008c5780849260209460405283398101031261008857516001600160a01b0381169081900361008857608052604051610e7590816100a182396080518181816104dd0152818161060f01528181610838015281816109d80152610af90152f35b5f80fd5b634e487b7160e01b5f52604160045260245ffdfe60806040526004361015610011575f80fd5b5f5f3560e01c806317c39bbd14610a755780634882beff146108d1578063ac290d901461063e578063b5f8558c146105f95763e9c1681f14610051575f80fd5b3461058e5760c036600319011261058e5760043567ffffffffffffffff81116105f557610082903690600401610bb7565b60249291923567ffffffffffffffff81116105f1576100a5903690600401610bb7565b60449491943567ffffffffffffffff81116105ed576100c8903690600401610bb7565b959060643567ffffffffffffffff81116105e9576100ea903690600401610bb7565b9790926084359467ffffffffffffffff86168096036105e55760a4359667ffffffffffffffff88168098036105e1576040519861010061012a818c610c76565b60078b52601f19018b5b8181106105a05750509261026c6102dc938c9d969361020061035199976101d88f6040513360208201526020815261016d604082610c76565b6040519061017a82610c5a565b604051610188604082610c76565b600681526539b2b73232b960d11b602082015282526040516101ab604082610c76565b60078152666164647265737360c81b6020820152602083015260408201526101d282610ced565b52610ced565b506101f26040519384926020808501526040840191610d6e565b03601f198101835282610c76565b6040519061020d82610c5a565b60405161021b604082610c76565b60048152636e616d6560e01b6020820152825260405161023c604082610c76565b6006815265737472696e6760d01b6020820152602083015260408201526102628d610d0e565b526101d88c610d0e565b6040519061027982610c5a565b604051610287604082610c76565b60088152677265665f636f646560c01b602082015282526040516102ac604082610c76565b6006815265737472696e6760d01b6020820152602083015260408201526102d28a610d1e565b526101d889610d1e565b604051906102e982610c5a565b6040516102f7604082610c76565b600d81526c757365645f7265665f636f646560981b60208201528252604051610321604082610c76565b6006815265737472696e6760d01b60208201526020830152604082015261034787610d2e565b526101d886610d2e565b6040519061035e82610c5a565b60405161036c604082610c76565b601281527139b2b632b1ba32b22fbb30b634b230ba37b960711b6020820152825260405161039b604082610c76565b6006815265737472696e6760d01b6020820152602083015260408201526103c184610d3e565b526103cb83610d3e565b50604051906020820152602081526103e4604082610c76565b604051906103f182610c5a565b6040516103ff604082610c76565b60068152650f0e0bee8c2f60d31b60208201528252604051610422604082610c76565b60068152651d5a5b9d0d8d60d21b60208201526020830152604082015261044883610d4e565b5261045282610d4e565b506040519060208201526020815261046b604082610c76565b6040519061047882610c5a565b604051610486604082610c76565b60078152660cccacabee8c2f60cb1b602082015282526040516104aa604082610c76565b60068152651d5a5b9d0d8d60d21b6020820152602083015260408201526104d082610d5e565b526104da81610d5e565b507f00000000000000000000000000000000000000000000000000000000000000006001600160a01b0316803b1561059c5761056c8392918392604051948580948193637d64fa9b60e01b835260406004840152601860448401527f4d6f64756c61722053746f72616765204372656174696f6e00000000000000006064840152608060248401526084830190610db2565b03925af180156105915761057d5750f35b8161058791610c76565b61058e5780f35b80fd5b6040513d84823e3d90fd5b5050fd5b808c60208093604051926105b384610c5a565b606084526060838501526060604085015201015201610134565b634e487b7160e01b5f52604160045260245ffd5b8980fd5b8880fd5b8680fd5b8480fd5b8280fd5b5080fd5b503461058e578060031936011261058e576040517f00000000000000000000000000000000000000000000000000000000000000006001600160a01b03168152602090f35b503461058e57806107c961075961065436610be5565b90926106ee6106669896979398610c98565b986040513360208201526020815261067f604082610c76565b6040519061068c82610c5a565b60405161069a604082610c76565b600681526539b2b73232b960d11b602082015282526040516106bd604082610c76565b60078152666164647265737360c81b6020820152602083015260408201526106e48b610ced565b526101d88a610ced565b604051906106fb82610c5a565b604051610709604082610c76565b60048152633ab9b2b960e11b6020820152825260405161072a604082610c76565b6005815264627974657360d81b60208201526020830152604082015261074f88610d0e565b526101d887610d0e565b6040519061076682610c5a565b604051610774604082610c76565b600981526839bab12fb7bbb732b960b91b6020820152825260405161079a604082610c76565b6005815264627974657360d81b6020820152602083015260408201526107bf85610d1e565b526101d884610d1e565b604051906107d682610c5a565b6040516107e4604082610c76565b60048152636e616d6560e01b60208201528252604051610805604082610c76565b6006815265737472696e6760d01b60208201526020830152604082015261082b82610d2e565b5261083581610d2e565b507f00000000000000000000000000000000000000000000000000000000000000006001600160a01b0316803b1561059c5761056c8392918392604051948580948193637d64fa9b60e01b835260406004840152602160448401527f4d6f64756c61722053746f7261676520537562204f776e65722052656d6f76656064840152601960fa1b608484015260a0602484015260a4830190610db2565b503461058e57806108fa61095c6108e736610be5565b93909594926106ee610666989398610c98565b6040519061090782610c5a565b604051610915604082610c76565b60048152636e616d6560e01b60208201528252604051610936604082610c76565b6006815265737472696e6760d01b6020820152602083015260408201526107bf85610d1e565b6040519061096982610c5a565b604051610977604082610c76565b60118152706e65775f757365645f7265665f636f646560781b602082015282526040516109a5604082610c76565b6006815265737472696e6760d01b6020820152602083015260408201526109cb82610d2e565b526109d581610d2e565b507f00000000000000000000000000000000000000000000000000000000000000006001600160a01b0316803b1561059c5761056c8392918392604051948580948193637d64fa9b60e01b835260406004840152602560448401527f4d6f64756c61722053746f7261676520557365642052656620436f646520557060648401526419185d195960da1b608484015260a0602484015260a4830190610db2565b5034610bb357610a8a61075961065436610be5565b60405190610a9782610c5a565b604051610aa5604082610c76565b60048152636e616d6560e01b60208201528252604051610ac6604082610c76565b6006815265737472696e6760d01b602082015260208301526040820152610aec82610d2e565b52610af681610d2e565b507f00000000000000000000000000000000000000000000000000000000000000006001600160a01b0316803b15610bb357610b885f92918392604051948580948193637d64fa9b60e01b835260406004840152601f60448401527f4d6f64756c61722053746f7261676520537562204f776e6572204164646564006064840152608060248401526084830190610db2565b03925af18015610ba857610b9a575080f35b610ba691505f90610c76565b005b6040513d5f823e3d90fd5b5f80fd5b9181601f84011215610bb35782359167ffffffffffffffff8311610bb35760208381860195010111610bb357565b6060600319820112610bb35760043567ffffffffffffffff8111610bb35781610c1091600401610bb7565b9290929160243567ffffffffffffffff8111610bb35781610c3391600401610bb7565b929092916044359067ffffffffffffffff8211610bb357610c5691600401610bb7565b9091565b6060810190811067ffffffffffffffff8211176105cd57604052565b90601f8019910116810190811067ffffffffffffffff8211176105cd57604052565b60405160a09190610ca98382610c76565b6004815291601f1901825f5b828110610cc157505050565b602090604051610cd081610c5a565b606081526060838201526060604082015282828501015201610cb5565b805115610cfa5760200190565b634e487b7160e01b5f52603260045260245ffd5b805160011015610cfa5760400190565b805160021015610cfa5760600190565b805160031015610cfa5760800190565b805160041015610cfa5760a00190565b805160051015610cfa5760c00190565b805160061015610cfa5760e00190565b908060209392818452848401375f828201840152601f01601f1916010190565b805180835260209291819084018484015e5f828201840152601f01601f1916010190565b9080602083519182815201916020808360051b8301019401925f915b838310610ddd57505050505090565b9091929394602080610e30600193601f198682030187528951906040610e1f610e0f8451606085526060850190610d8e565b8685015184820388860152610d8e565b920151906040818403910152610d8e565b97019301930191939290610dce56fea264697066735822122026506a9fc3d8ee67a75ea7ac40d6f8757cec66c88a867ab4803bdbb016e2fbcc64736f6c634300081f0033",
					"opcodes": "PUSH1 0xA0 CALLVALUE PUSH2 0x88 JUMPI PUSH1 0x1F PUSH2 0xF16 CODESIZE DUP2 SWAP1 SUB SWAP2 DUP3 ADD PUSH1 0x1F NOT AND DUP4 ADD SWAP2 PUSH1 0x1 PUSH1 0x1 PUSH1 0x40 SHL SUB DUP4 GT DUP5 DUP5 LT OR PUSH2 0x8C JUMPI DUP1 DUP5 SWAP3 PUSH1 0x20 SWAP5 PUSH1 0x40 MSTORE DUP4 CODECOPY DUP2 ADD SUB SLT PUSH2 0x88 JUMPI MLOAD PUSH1 0x1 PUSH1 0x1 PUSH1 0xA0 SHL SUB DUP2 AND SWAP1 DUP2 SWAP1 SUB PUSH2 0x88 JUMPI PUSH1 0x80 MSTORE PUSH1 0x40 MLOAD PUSH2 0xE75 SWAP1 DUP2 PUSH2 0xA1 DUP3 CODECOPY PUSH1 0x80 MLOAD DUP2 DUP2 DUP2 PUSH2 0x4DD ADD MSTORE DUP2 DUP2 PUSH2 0x60F ADD MSTORE DUP2 DUP2 PUSH2 0x838 ADD MSTORE DUP2 DUP2 PUSH2 0x9D8 ADD MSTORE PUSH2 0xAF9 ADD MSTORE RETURN JUMPDEST PUSH0 DUP1 REVERT JUMPDEST PUSH4 0x4E487B71 PUSH1 0xE0 SHL PUSH0 MSTORE PUSH1 0x41 PUSH1 0x4 MSTORE PUSH1 0x24 PUSH0 REVERT INVALID PUSH1 0x80 PUSH1 0x40 MSTORE PUSH1 0x4 CALLDATASIZE LT ISZERO PUSH2 0x11 JUMPI PUSH0 DUP1 REVERT JUMPDEST PUSH0 PUSH0 CALLDATALOAD PUSH1 0xE0 SHR DUP1 PUSH4 0x17C39BBD EQ PUSH2 0xA75 JUMPI DUP1 PUSH4 0x4882BEFF EQ PUSH2 0x8D1 JUMPI DUP1 PUSH4 0xAC290D90 EQ PUSH2 0x63E JUMPI DUP1 PUSH4 0xB5F8558C EQ PUSH2 0x5F9 JUMPI PUSH4 0xE9C1681F EQ PUSH2 0x51 JUMPI PUSH0 DUP1 REVERT JUMPDEST CALLVALUE PUSH2 0x58E JUMPI PUSH1 0xC0 CALLDATASIZE PUSH1 0x3 NOT ADD SLT PUSH2 0x58E JUMPI PUSH1 0x4 CALLDATALOAD PUSH8 0xFFFFFFFFFFFFFFFF DUP2 GT PUSH2 0x5F5 JUMPI PUSH2 0x82 SWAP1 CALLDATASIZE SWAP1 PUSH1 0x4 ADD PUSH2 0xBB7 JUMP JUMPDEST PUSH1 0x24 SWAP3 SWAP2 SWAP3 CALLDATALOAD PUSH8 0xFFFFFFFFFFFFFFFF DUP2 GT PUSH2 0x5F1 JUMPI PUSH2 0xA5 SWAP1 CALLDATASIZE SWAP1 PUSH1 0x4 ADD PUSH2 0xBB7 JUMP JUMPDEST PUSH1 0x44 SWAP5 SWAP2 SWAP5 CALLDATALOAD PUSH8 0xFFFFFFFFFFFFFFFF DUP2 GT PUSH2 0x5ED JUMPI PUSH2 0xC8 SWAP1 CALLDATASIZE SWAP1 PUSH1 0x4 ADD PUSH2 0xBB7 JUMP JUMPDEST SWAP6 SWAP1 PUSH1 0x64 CALLDATALOAD PUSH8 0xFFFFFFFFFFFFFFFF DUP2 GT PUSH2 0x5E9 JUMPI PUSH2 0xEA SWAP1 CALLDATASIZE SWAP1 PUSH1 0x4 ADD PUSH2 0xBB7 JUMP JUMPDEST SWAP8 SWAP1 SWAP3 PUSH1 0x84 CALLDATALOAD SWAP5 PUSH8 0xFFFFFFFFFFFFFFFF DUP7 AND DUP1 SWAP7 SUB PUSH2 0x5E5 JUMPI PUSH1 0xA4 CALLDATALOAD SWAP7 PUSH8 0xFFFFFFFFFFFFFFFF DUP9 AND DUP1 SWAP9 SUB PUSH2 0x5E1 JUMPI PUSH1 0x40 MLOAD SWAP9 PUSH2 0x100 PUSH2 0x12A DUP2 DUP13 PUSH2 0xC76 JUMP JUMPDEST PUSH1 0x7 DUP12 MSTORE PUSH1 0x1F NOT ADD DUP12 JUMPDEST DUP2 DUP2 LT PUSH2 0x5A0 JUMPI POP POP SWAP3 PUSH2 0x26C PUSH2 0x2DC SWAP4 DUP13 SWAP14 SWAP7 SWAP4 PUSH2 0x200 PUSH2 0x351 SWAP10 SWAP8 PUSH2 0x1D8 DUP16 PUSH1 0x40 MLOAD CALLER PUSH1 0x20 DUP3 ADD MSTORE PUSH1 0x20 DUP2 MSTORE PUSH2 0x16D PUSH1 0x40 DUP3 PUSH2 0xC76 JUMP JUMPDEST PUSH1 0x40 MLOAD SWAP1 PUSH2 0x17A DUP3 PUSH2 0xC5A JUMP JUMPDEST PUSH1 0x40 MLOAD PUSH2 0x188 PUSH1 0x40 DUP3 PUSH2 0xC76 JUMP JUMPDEST PUSH1 0x6 DUP2 MSTORE PUSH6 0x39B2B73232B9 PUSH1 0xD1 SHL PUSH1 0x20 DUP3 ADD MSTORE DUP3 MSTORE PUSH1 0x40 MLOAD PUSH2 0x1AB PUSH1 0x40 DUP3 PUSH2 0xC76 JUMP JUMPDEST PUSH1 0x7 DUP2 MSTORE PUSH7 0x61646472657373 PUSH1 0xC8 SHL PUSH1 0x20 DUP3 ADD MSTORE PUSH1 0x20 DUP4 ADD MSTORE PUSH1 0x40 DUP3 ADD MSTORE PUSH2 0x1D2 DUP3 PUSH2 0xCED JUMP JUMPDEST MSTORE PUSH2 0xCED JUMP JUMPDEST POP PUSH2 0x1F2 PUSH1 0x40 MLOAD SWAP4 DUP5 SWAP3 PUSH1 0x20 DUP1 DUP6 ADD MSTORE PUSH1 0x40 DUP5 ADD SWAP2 PUSH2 0xD6E JUMP JUMPDEST SUB PUSH1 0x1F NOT DUP2 ADD DUP4 MSTORE DUP3 PUSH2 0xC76 JUMP JUMPDEST PUSH1 0x40 MLOAD SWAP1 PUSH2 0x20D DUP3 PUSH2 0xC5A JUMP JUMPDEST PUSH1 0x40 MLOAD PUSH2 0x21B PUSH1 0x40 DUP3 PUSH2 0xC76 JUMP JUMPDEST PUSH1 0x4 DUP2 MSTORE PUSH4 0x6E616D65 PUSH1 0xE0 SHL PUSH1 0x20 DUP3 ADD MSTORE DUP3 MSTORE PUSH1 0x40 MLOAD PUSH2 0x23C PUSH1 0x40 DUP3 PUSH2 0xC76 JUMP JUMPDEST PUSH1 0x6 DUP2 MSTORE PUSH6 0x737472696E67 PUSH1 0xD0 SHL PUSH1 0x20 DUP3 ADD MSTORE PUSH1 0x20 DUP4 ADD MSTORE PUSH1 0x40 DUP3 ADD MSTORE PUSH2 0x262 DUP14 PUSH2 0xD0E JUMP JUMPDEST MSTORE PUSH2 0x1D8 DUP13 PUSH2 0xD0E JUMP JUMPDEST PUSH1 0x40 MLOAD SWAP1 PUSH2 0x279 DUP3 PUSH2 0xC5A JUMP JUMPDEST PUSH1 0x40 MLOAD PUSH2 0x287 PUSH1 0x40 DUP3 PUSH2 0xC76 JUMP JUMPDEST PUSH1 0x8 DUP2 MSTORE PUSH8 0x7265665F636F6465 PUSH1 0xC0 SHL PUSH1 0x20 DUP3 ADD MSTORE DUP3 MSTORE PUSH1 0x40 MLOAD PUSH2 0x2AC PUSH1 0x40 DUP3 PUSH2 0xC76 JUMP JUMPDEST PUSH1 0x6 DUP2 MSTORE PUSH6 0x737472696E67 PUSH1 0xD0 SHL PUSH1 0x20 DUP3 ADD MSTORE PUSH1 0x20 DUP4 ADD MSTORE PUSH1 0x40 DUP3 ADD MSTORE PUSH2 0x2D2 DUP11 PUSH2 0xD1E JUMP JUMPDEST MSTORE PUSH2 0x1D8 DUP10 PUSH2 0xD1E JUMP JUMPDEST PUSH1 0x40 MLOAD SWAP1 PUSH2 0x2E9 DUP3 PUSH2 0xC5A JUMP JUMPDEST PUSH1 0x40 MLOAD PUSH2 0x2F7 PUSH1 0x40 DUP3 PUSH2 0xC76 JUMP JUMPDEST PUSH1 0xD DUP2 MSTORE PUSH13 0x757365645F7265665F636F6465 PUSH1 0x98 SHL PUSH1 0x20 DUP3 ADD MSTORE DUP3 MSTORE PUSH1 0x40 MLOAD PUSH2 0x321 PUSH1 0x40 DUP3 PUSH2 0xC76 JUMP JUMPDEST PUSH1 0x6 DUP2 MSTORE PUSH6 0x737472696E67 PUSH1 0xD0 SHL PUSH1 0x20 DUP3 ADD MSTORE PUSH1 0x20 DUP4 ADD MSTORE PUSH1 0x40 DUP3 ADD MSTORE PUSH2 0x347 DUP8 PUSH2 0xD2E JUMP JUMPDEST MSTORE PUSH2 0x1D8 DUP7 PUSH2 0xD2E JUMP JUMPDEST PUSH1 0x40 MLOAD SWAP1 PUSH2 0x35E DUP3 PUSH2 0xC5A JUMP JUMPDEST PUSH1 0x40 MLOAD PUSH2 0x36C PUSH1 0x40 DUP3 PUSH2 0xC76 JUMP JUMPDEST PUSH1 0x12 DUP2 MSTORE PUSH18 0x39B2B632B1BA32B22FBB30B634B230BA37B9 PUSH1 0x71 SHL PUSH1 0x20 DUP3 ADD MSTORE DUP3 MSTORE PUSH1 0x40 MLOAD PUSH2 0x39B PUSH1 0x40 DUP3 PUSH2 0xC76 JUMP JUMPDEST PUSH1 0x6 DUP2 MSTORE PUSH6 0x737472696E67 PUSH1 0xD0 SHL PUSH1 0x20 DUP3 ADD MSTORE PUSH1 0x20 DUP4 ADD MSTORE PUSH1 0x40 DUP3 ADD MSTORE PUSH2 0x3C1 DUP5 PUSH2 0xD3E JUMP JUMPDEST MSTORE PUSH2 0x3CB DUP4 PUSH2 0xD3E JUMP JUMPDEST POP PUSH1 0x40 MLOAD SWAP1 PUSH1 0x20 DUP3 ADD MSTORE PUSH1 0x20 DUP2 MSTORE PUSH2 0x3E4 PUSH1 0x40 DUP3 PUSH2 0xC76 JUMP JUMPDEST PUSH1 0x40 MLOAD SWAP1 PUSH2 0x3F1 DUP3 PUSH2 0xC5A JUMP JUMPDEST PUSH1 0x40 MLOAD PUSH2 0x3FF PUSH1 0x40 DUP3 PUSH2 0xC76 JUMP JUMPDEST PUSH1 0x6 DUP2 MSTORE PUSH6 0xF0E0BEE8C2F PUSH1 0xD3 SHL PUSH1 0x20 DUP3 ADD MSTORE DUP3 MSTORE PUSH1 0x40 MLOAD PUSH2 0x422 PUSH1 0x40 DUP3 PUSH2 0xC76 JUMP JUMPDEST PUSH1 0x6 DUP2 MSTORE PUSH6 0x1D5A5B9D0D8D PUSH1 0xD2 SHL PUSH1 0x20 DUP3 ADD MSTORE PUSH1 0x20 DUP4 ADD MSTORE PUSH1 0x40 DUP3 ADD MSTORE PUSH2 0x448 DUP4 PUSH2 0xD4E JUMP JUMPDEST MSTORE PUSH2 0x452 DUP3 PUSH2 0xD4E JUMP JUMPDEST POP PUSH1 0x40 MLOAD SWAP1 PUSH1 0x20 DUP3 ADD MSTORE PUSH1 0x20 DUP2 MSTORE PUSH2 0x46B PUSH1 0x40 DUP3 PUSH2 0xC76 JUMP JUMPDEST PUSH1 0x40 MLOAD SWAP1 PUSH2 0x478 DUP3 PUSH2 0xC5A JUMP JUMPDEST PUSH1 0x40 MLOAD PUSH2 0x486 PUSH1 0x40 DUP3 PUSH2 0xC76 JUMP JUMPDEST PUSH1 0x7 DUP2 MSTORE PUSH7 0xCCCACABEE8C2F PUSH1 0xCB SHL PUSH1 0x20 DUP3 ADD MSTORE DUP3 MSTORE PUSH1 0x40 MLOAD PUSH2 0x4AA PUSH1 0x40 DUP3 PUSH2 0xC76 JUMP JUMPDEST PUSH1 0x6 DUP2 MSTORE PUSH6 0x1D5A5B9D0D8D PUSH1 0xD2 SHL PUSH1 0x20 DUP3 ADD MSTORE PUSH1 0x20 DUP4 ADD MSTORE PUSH1 0x40 DUP3 ADD MSTORE PUSH2 0x4D0 DUP3 PUSH2 0xD5E JUMP JUMPDEST MSTORE PUSH2 0x4DA DUP2 PUSH2 0xD5E JUMP JUMPDEST POP PUSH32 0x0 PUSH1 0x1 PUSH1 0x1 PUSH1 0xA0 SHL SUB AND DUP1 EXTCODESIZE ISZERO PUSH2 0x59C JUMPI PUSH2 0x56C DUP4 SWAP3 SWAP2 DUP4 SWAP3 PUSH1 0x40 MLOAD SWAP5 DUP6 DUP1 SWAP5 DUP2 SWAP4 PUSH4 0x7D64FA9B PUSH1 0xE0 SHL DUP4 MSTORE PUSH1 0x40 PUSH1 0x4 DUP5 ADD MSTORE PUSH1 0x18 PUSH1 0x44 DUP5 ADD MSTORE PUSH32 0x4D6F64756C61722053746F72616765204372656174696F6E0000000000000000 PUSH1 0x64 DUP5 ADD MSTORE PUSH1 0x80 PUSH1 0x24 DUP5 ADD MSTORE PUSH1 0x84 DUP4 ADD SWAP1 PUSH2 0xDB2 JUMP JUMPDEST SUB SWAP3 GAS CALL DUP1 ISZERO PUSH2 0x591 JUMPI PUSH2 0x57D JUMPI POP RETURN JUMPDEST DUP2 PUSH2 0x587 SWAP2 PUSH2 0xC76 JUMP JUMPDEST PUSH2 0x58E JUMPI DUP1 RETURN JUMPDEST DUP1 REVERT JUMPDEST PUSH1 0x40 MLOAD RETURNDATASIZE DUP5 DUP3 RETURNDATACOPY RETURNDATASIZE SWAP1 REVERT JUMPDEST POP POP REVERT JUMPDEST DUP1 DUP13 PUSH1 0x20 DUP1 SWAP4 PUSH1 0x40 MLOAD SWAP3 PUSH2 0x5B3 DUP5 PUSH2 0xC5A JUMP JUMPDEST PUSH1 0x60 DUP5 MSTORE PUSH1 0x60 DUP4 DUP6 ADD MSTORE PUSH1 0x60 PUSH1 0x40 DUP6 ADD MSTORE ADD ADD MSTORE ADD PUSH2 0x134 JUMP JUMPDEST PUSH4 0x4E487B71 PUSH1 0xE0 SHL PUSH0 MSTORE PUSH1 0x41 PUSH1 0x4 MSTORE PUSH1 0x24 PUSH0 REVERT JUMPDEST DUP10 DUP1 REVERT JUMPDEST DUP9 DUP1 REVERT JUMPDEST DUP7 DUP1 REVERT JUMPDEST DUP5 DUP1 REVERT JUMPDEST DUP3 DUP1 REVERT JUMPDEST POP DUP1 REVERT JUMPDEST POP CALLVALUE PUSH2 0x58E JUMPI DUP1 PUSH1 0x3 NOT CALLDATASIZE ADD SLT PUSH2 0x58E JUMPI PUSH1 0x40 MLOAD PUSH32 0x0 PUSH1 0x1 PUSH1 0x1 PUSH1 0xA0 SHL SUB AND DUP2 MSTORE PUSH1 0x20 SWAP1 RETURN JUMPDEST POP CALLVALUE PUSH2 0x58E JUMPI DUP1 PUSH2 0x7C9 PUSH2 0x759 PUSH2 0x654 CALLDATASIZE PUSH2 0xBE5 JUMP JUMPDEST SWAP1 SWAP3 PUSH2 0x6EE PUSH2 0x666 SWAP9 SWAP7 SWAP8 SWAP4 SWAP9 PUSH2 0xC98 JUMP JUMPDEST SWAP9 PUSH1 0x40 MLOAD CALLER PUSH1 0x20 DUP3 ADD MSTORE PUSH1 0x20 DUP2 MSTORE PUSH2 0x67F PUSH1 0x40 DUP3 PUSH2 0xC76 JUMP JUMPDEST PUSH1 0x40 MLOAD SWAP1 PUSH2 0x68C DUP3 PUSH2 0xC5A JUMP JUMPDEST PUSH1 0x40 MLOAD PUSH2 0x69A PUSH1 0x40 DUP3 PUSH2 0xC76 JUMP JUMPDEST PUSH1 0x6 DUP2 MSTORE PUSH6 0x39B2B73232B9 PUSH1 0xD1 SHL PUSH1 0x20 DUP3 ADD MSTORE DUP3 MSTORE PUSH1 0x40 MLOAD PUSH2 0x6BD PUSH1 0x40 DUP3 PUSH2 0xC76 JUMP JUMPDEST PUSH1 0x7 DUP2 MSTORE PUSH7 0x61646472657373 PUSH1 0xC8 SHL PUSH1 0x20 DUP3 ADD MSTORE PUSH1 0x20 DUP4 ADD MSTORE PUSH1 0x40 DUP3 ADD MSTORE PUSH2 0x6E4 DUP12 PUSH2 0xCED JUMP JUMPDEST MSTORE PUSH2 0x1D8 DUP11 PUSH2 0xCED JUMP JUMPDEST PUSH1 0x40 MLOAD SWAP1 PUSH2 0x6FB DUP3 PUSH2 0xC5A JUMP JUMPDEST PUSH1 0x40 MLOAD PUSH2 0x709 PUSH1 0x40 DUP3 PUSH2 0xC76 JUMP JUMPDEST PUSH1 0x4 DUP2 MSTORE PUSH4 0x3AB9B2B9 PUSH1 0xE1 SHL PUSH1 0x20 DUP3 ADD MSTORE DUP3 MSTORE PUSH1 0x40 MLOAD PUSH2 0x72A PUSH1 0x40 DUP3 PUSH2 0xC76 JUMP JUMPDEST PUSH1 0x5 DUP2 MSTORE PUSH5 0x6279746573 PUSH1 0xD8 SHL PUSH1 0x20 DUP3 ADD MSTORE PUSH1 0x20 DUP4 ADD MSTORE PUSH1 0x40 DUP3 ADD MSTORE PUSH2 0x74F DUP9 PUSH2 0xD0E JUMP JUMPDEST MSTORE PUSH2 0x1D8 DUP8 PUSH2 0xD0E JUMP JUMPDEST PUSH1 0x40 MLOAD SWAP1 PUSH2 0x766 DUP3 PUSH2 0xC5A JUMP JUMPDEST PUSH1 0x40 MLOAD PUSH2 0x774 PUSH1 0x40 DUP3 PUSH2 0xC76 JUMP JUMPDEST PUSH1 0x9 DUP2 MSTORE PUSH9 0x39BAB12FB7BBB732B9 PUSH1 0xB9 SHL PUSH1 0x20 DUP3 ADD MSTORE DUP3 MSTORE PUSH1 0x40 MLOAD PUSH2 0x79A PUSH1 0x40 DUP3 PUSH2 0xC76 JUMP JUMPDEST PUSH1 0x5 DUP2 MSTORE PUSH5 0x6279746573 PUSH1 0xD8 SHL PUSH1 0x20 DUP3 ADD MSTORE PUSH1 0x20 DUP4 ADD MSTORE PUSH1 0x40 DUP3 ADD MSTORE PUSH2 0x7BF DUP6 PUSH2 0xD1E JUMP JUMPDEST MSTORE PUSH2 0x1D8 DUP5 PUSH2 0xD1E JUMP JUMPDEST PUSH1 0x40 MLOAD SWAP1 PUSH2 0x7D6 DUP3 PUSH2 0xC5A JUMP JUMPDEST PUSH1 0x40 MLOAD PUSH2 0x7E4 PUSH1 0x40 DUP3 PUSH2 0xC76 JUMP JUMPDEST PUSH1 0x4 DUP2 MSTORE PUSH4 0x6E616D65 PUSH1 0xE0 SHL PUSH1 0x20 DUP3 ADD MSTORE DUP3 MSTORE PUSH1 0x40 MLOAD PUSH2 0x805 PUSH1 0x40 DUP3 PUSH2 0xC76 JUMP JUMPDEST PUSH1 0x6 DUP2 MSTORE PUSH6 0x737472696E67 PUSH1 0xD0 SHL PUSH1 0x20 DUP3 ADD MSTORE PUSH1 0x20 DUP4 ADD MSTORE PUSH1 0x40 DUP3 ADD MSTORE PUSH2 0x82B DUP3 PUSH2 0xD2E JUMP JUMPDEST MSTORE PUSH2 0x835 DUP2 PUSH2 0xD2E JUMP JUMPDEST POP PUSH32 0x0 PUSH1 0x1 PUSH1 0x1 PUSH1 0xA0 SHL SUB AND DUP1 EXTCODESIZE ISZERO PUSH2 0x59C JUMPI PUSH2 0x56C DUP4 SWAP3 SWAP2 DUP4 SWAP3 PUSH1 0x40 MLOAD SWAP5 DUP6 DUP1 SWAP5 DUP2 SWAP4 PUSH4 0x7D64FA9B PUSH1 0xE0 SHL DUP4 MSTORE PUSH1 0x40 PUSH1 0x4 DUP5 ADD MSTORE PUSH1 0x21 PUSH1 0x44 DUP5 ADD MSTORE PUSH32 0x4D6F64756C61722053746F7261676520537562204F776E65722052656D6F7665 PUSH1 0x64 DUP5 ADD MSTORE PUSH1 0x19 PUSH1 0xFA SHL PUSH1 0x84 DUP5 ADD MSTORE PUSH1 0xA0 PUSH1 0x24 DUP5 ADD MSTORE PUSH1 0xA4 DUP4 ADD SWAP1 PUSH2 0xDB2 JUMP JUMPDEST POP CALLVALUE PUSH2 0x58E JUMPI DUP1 PUSH2 0x8FA PUSH2 0x95C PUSH2 0x8E7 CALLDATASIZE PUSH2 0xBE5 JUMP JUMPDEST SWAP4 SWAP1 SWAP6 SWAP5 SWAP3 PUSH2 0x6EE PUSH2 0x666 SWAP9 SWAP4 SWAP9 PUSH2 0xC98 JUMP JUMPDEST PUSH1 0x40 MLOAD SWAP1 PUSH2 0x907 DUP3 PUSH2 0xC5A JUMP JUMPDEST PUSH1 0x40 MLOAD PUSH2 0x915 PUSH1 0x40 DUP3 PUSH2 0xC76 JUMP JUMPDEST PUSH1 0x4 DUP2 MSTORE PUSH4 0x6E616D65 PUSH1 0xE0 SHL PUSH1 0x20 DUP3 ADD MSTORE DUP3 MSTORE PUSH1 0x40 MLOAD PUSH2 0x936 PUSH1 0x40 DUP3 PUSH2 0xC76 JUMP JUMPDEST PUSH1 0x6 DUP2 MSTORE PUSH6 0x737472696E67 PUSH1 0xD0 SHL PUSH1 0x20 DUP3 ADD MSTORE PUSH1 0x20 DUP4 ADD MSTORE PUSH1 0x40 DUP3 ADD MSTORE PUSH2 0x7BF DUP6 PUSH2 0xD1E JUMP JUMPDEST PUSH1 0x40 MLOAD SWAP1 PUSH2 0x969 DUP3 PUSH2 0xC5A JUMP JUMPDEST PUSH1 0x40 MLOAD PUSH2 0x977 PUSH1 0x40 DUP3 PUSH2 0xC76 JUMP JUMPDEST PUSH1 0x11 DUP2 MSTORE PUSH17 0x6E65775F757365645F7265665F636F6465 PUSH1 0x78 SHL PUSH1 0x20 DUP3 ADD MSTORE DUP3 MSTORE PUSH1 0x40 MLOAD PUSH2 0x9A5 PUSH1 0x40 DUP3 PUSH2 0xC76 JUMP JUMPDEST PUSH1 0x6 DUP2 MSTORE PUSH6 0x737472696E67 PUSH1 0xD0 SHL PUSH1 0x20 DUP3 ADD MSTORE PUSH1 0x20 DUP4 ADD MSTORE PUSH1 0x40 DUP3 ADD MSTORE PUSH2 0x9CB DUP3 PUSH2 0xD2E JUMP JUMPDEST MSTORE PUSH2 0x9D5 DUP2 PUSH2 0xD2E JUMP JUMPDEST POP PUSH32 0x0 PUSH1 0x1 PUSH1 0x1 PUSH1 0xA0 SHL SUB AND DUP1 EXTCODESIZE ISZERO PUSH2 0x59C JUMPI PUSH2 0x56C DUP4 SWAP3 SWAP2 DUP4 SWAP3 PUSH1 0x40 MLOAD SWAP5 DUP6 DUP1 SWAP5 DUP2 SWAP4 PUSH4 0x7D64FA9B PUSH1 0xE0 SHL DUP4 MSTORE PUSH1 0x40 PUSH1 0x4 DUP5 ADD MSTORE PUSH1 0x25 PUSH1 0x44 DUP5 ADD MSTORE PUSH32 0x4D6F64756C61722053746F7261676520557365642052656620436F6465205570 PUSH1 0x64 DUP5 ADD MSTORE PUSH5 0x19185D1959 PUSH1 0xDA SHL PUSH1 0x84 DUP5 ADD MSTORE PUSH1 0xA0 PUSH1 0x24 DUP5 ADD MSTORE PUSH1 0xA4 DUP4 ADD SWAP1 PUSH2 0xDB2 JUMP JUMPDEST POP CALLVALUE PUSH2 0xBB3 JUMPI PUSH2 0xA8A PUSH2 0x759 PUSH2 0x654 CALLDATASIZE PUSH2 0xBE5 JUMP JUMPDEST PUSH1 0x40 MLOAD SWAP1 PUSH2 0xA97 DUP3 PUSH2 0xC5A JUMP JUMPDEST PUSH1 0x40 MLOAD PUSH2 0xAA5 PUSH1 0x40 DUP3 PUSH2 0xC76 JUMP JUMPDEST PUSH1 0x4 DUP2 MSTORE PUSH4 0x6E616D65 PUSH1 0xE0 SHL PUSH1 0x20 DUP3 ADD MSTORE DUP3 MSTORE PUSH1 0x40 MLOAD PUSH2 0xAC6 PUSH1 0x40 DUP3 PUSH2 0xC76 JUMP JUMPDEST PUSH1 0x6 DUP2 MSTORE PUSH6 0x737472696E67 PUSH1 0xD0 SHL PUSH1 0x20 DUP3 ADD MSTORE PUSH1 0x20 DUP4 ADD MSTORE PUSH1 0x40 DUP3 ADD MSTORE PUSH2 0xAEC DUP3 PUSH2 0xD2E JUMP JUMPDEST MSTORE PUSH2 0xAF6 DUP2 PUSH2 0xD2E JUMP JUMPDEST POP PUSH32 0x0 PUSH1 0x1 PUSH1 0x1 PUSH1 0xA0 SHL SUB AND DUP1 EXTCODESIZE ISZERO PUSH2 0xBB3 JUMPI PUSH2 0xB88 PUSH0 SWAP3 SWAP2 DUP4 SWAP3 PUSH1 0x40 MLOAD SWAP5 DUP6 DUP1 SWAP5 DUP2 SWAP4 PUSH4 0x7D64FA9B PUSH1 0xE0 SHL DUP4 MSTORE PUSH1 0x40 PUSH1 0x4 DUP5 ADD MSTORE PUSH1 0x1F PUSH1 0x44 DUP5 ADD MSTORE PUSH32 0x4D6F64756C61722053746F7261676520537562204F776E657220416464656400 PUSH1 0x64 DUP5 ADD MSTORE PUSH1 0x80 PUSH1 0x24 DUP5 ADD MSTORE PUSH1 0x84 DUP4 ADD SWAP1 PUSH2 0xDB2 JUMP JUMPDEST SUB SWAP3 GAS CALL DUP1 ISZERO PUSH2 0xBA8 JUMPI PUSH2 0xB9A JUMPI POP DUP1 RETURN JUMPDEST PUSH2 0xBA6 SWAP2 POP PUSH0 SWAP1 PUSH2 0xC76 JUMP JUMPDEST STOP JUMPDEST PUSH1 0x40 MLOAD RETURNDATASIZE PUSH0 DUP3 RETURNDATACOPY RETURNDATASIZE SWAP1 REVERT JUMPDEST PUSH0 DUP1 REVERT JUMPDEST SWAP2 DUP2 PUSH1 0x1F DUP5 ADD SLT ISZERO PUSH2 0xBB3 JUMPI DUP3 CALLDATALOAD SWAP2 PUSH8 0xFFFFFFFFFFFFFFFF DUP4 GT PUSH2 0xBB3 JUMPI PUSH1 0x20 DUP4 DUP2 DUP7 ADD SWAP6 ADD ADD GT PUSH2 0xBB3 JUMPI JUMP JUMPDEST PUSH1 0x60 PUSH1 0x3 NOT DUP3 ADD SLT PUSH2 0xBB3 JUMPI PUSH1 0x4 CALLDATALOAD PUSH8 0xFFFFFFFFFFFFFFFF DUP2 GT PUSH2 0xBB3 JUMPI DUP2 PUSH2 0xC10 SWAP2 PUSH1 0x4 ADD PUSH2 0xBB7 JUMP JUMPDEST SWAP3 SWAP1 SWAP3 SWAP2 PUSH1 0x24 CALLDATALOAD PUSH8 0xFFFFFFFFFFFFFFFF DUP2 GT PUSH2 0xBB3 JUMPI DUP2 PUSH2 0xC33 SWAP2 PUSH1 0x4 ADD PUSH2 0xBB7 JUMP JUMPDEST SWAP3 SWAP1 SWAP3 SWAP2 PUSH1 0x44 CALLDATALOAD SWAP1 PUSH8 0xFFFFFFFFFFFFFFFF DUP3 GT PUSH2 0xBB3 JUMPI PUSH2 0xC56 SWAP2 PUSH1 0x4 ADD PUSH2 0xBB7 JUMP JUMPDEST SWAP1 SWAP2 JUMP JUMPDEST PUSH1 0x60 DUP2 ADD SWAP1 DUP2 LT PUSH8 0xFFFFFFFFFFFFFFFF DUP3 GT OR PUSH2 0x5CD JUMPI PUSH1 0x40 MSTORE JUMP JUMPDEST SWAP1 PUSH1 0x1F DUP1 NOT SWAP2 ADD AND DUP2 ADD SWAP1 DUP2 LT PUSH8 0xFFFFFFFFFFFFFFFF DUP3 GT OR PUSH2 0x5CD JUMPI PUSH1 0x40 MSTORE JUMP JUMPDEST PUSH1 0x40 MLOAD PUSH1 0xA0 SWAP2 SWAP1 PUSH2 0xCA9 DUP4 DUP3 PUSH2 0xC76 JUMP JUMPDEST PUSH1 0x4 DUP2 MSTORE SWAP2 PUSH1 0x1F NOT ADD DUP3 PUSH0 JUMPDEST DUP3 DUP2 LT PUSH2 0xCC1 JUMPI POP POP POP JUMP JUMPDEST PUSH1 0x20 SWAP1 PUSH1 0x40 MLOAD PUSH2 0xCD0 DUP2 PUSH2 0xC5A JUMP JUMPDEST PUSH1 0x60 DUP2 MSTORE PUSH1 0x60 DUP4 DUP3 ADD MSTORE PUSH1 0x60 PUSH1 0x40 DUP3 ADD MSTORE DUP3 DUP3 DUP6 ADD ADD MSTORE ADD PUSH2 0xCB5 JUMP JUMPDEST DUP1 MLOAD ISZERO PUSH2 0xCFA JUMPI PUSH1 0x20 ADD SWAP1 JUMP JUMPDEST PUSH4 0x4E487B71 PUSH1 0xE0 SHL PUSH0 MSTORE PUSH1 0x32 PUSH1 0x4 MSTORE PUSH1 0x24 PUSH0 REVERT JUMPDEST DUP1 MLOAD PUSH1 0x1 LT ISZERO PUSH2 0xCFA JUMPI PUSH1 0x40 ADD SWAP1 JUMP JUMPDEST DUP1 MLOAD PUSH1 0x2 LT ISZERO PUSH2 0xCFA JUMPI PUSH1 0x60 ADD SWAP1 JUMP JUMPDEST DUP1 MLOAD PUSH1 0x3 LT ISZERO PUSH2 0xCFA JUMPI PUSH1 0x80 ADD SWAP1 JUMP JUMPDEST DUP1 MLOAD PUSH1 0x4 LT ISZERO PUSH2 0xCFA JUMPI PUSH1 0xA0 ADD SWAP1 JUMP JUMPDEST DUP1 MLOAD PUSH1 0x5 LT ISZERO PUSH2 0xCFA JUMPI PUSH1 0xC0 ADD SWAP1 JUMP JUMPDEST DUP1 MLOAD PUSH1 0x6 LT ISZERO PUSH2 0xCFA JUMPI PUSH1 0xE0 ADD SWAP1 JUMP JUMPDEST SWAP1 DUP1 PUSH1 0x20 SWAP4 SWAP3 DUP2 DUP5 MSTORE DUP5 DUP5 ADD CALLDATACOPY PUSH0 DUP3 DUP3 ADD DUP5 ADD MSTORE PUSH1 0x1F ADD PUSH1 0x1F NOT AND ADD ADD SWAP1 JUMP JUMPDEST DUP1 MLOAD DUP1 DUP4 MSTORE PUSH1 0x20 SWAP3 SWAP2 DUP2 SWAP1 DUP5 ADD DUP5 DUP5 ADD MCOPY PUSH0 DUP3 DUP3 ADD DUP5 ADD MSTORE PUSH1 0x1F ADD PUSH1 0x1F NOT AND ADD ADD SWAP1 JUMP JUMPDEST SWAP1 DUP1 PUSH1 0x20 DUP4 MLOAD SWAP2 DUP3 DUP2 MSTORE ADD SWAP2 PUSH1 0x20 DUP1 DUP4 PUSH1 0x5 SHL DUP4 ADD ADD SWAP5 ADD SWAP3 PUSH0 SWAP2 JUMPDEST DUP4 DUP4 LT PUSH2 0xDDD JUMPI POP POP POP POP POP SWAP1 JUMP JUMPDEST SWAP1 SWAP2 SWAP3 SWAP4 SWAP5 PUSH1 0x20 DUP1 PUSH2 0xE30 PUSH1 0x1 SWAP4 PUSH1 0x1F NOT DUP7 DUP3 SUB ADD DUP8 MSTORE DUP10 MLOAD SWAP1 PUSH1 0x40 PUSH2 0xE1F PUSH2 0xE0F DUP5 MLOAD PUSH1 0x60 DUP6 MSTORE PUSH1 0x60 DUP6 ADD SWAP1 PUSH2 0xD8E JUMP JUMPDEST DUP7 DUP6 ADD MLOAD DUP5 DUP3 SUB DUP9 DUP7 ADD MSTORE PUSH2 0xD8E JUMP JUMPDEST SWAP3 ADD MLOAD SWAP1 PUSH1 0x40 DUP2 DUP5 SUB SWAP2 ADD MSTORE PUSH2 0xD8E JUMP JUMPDEST SWAP8 ADD SWAP4 ADD SWAP4 ADD SWAP2 SWAP4 SWAP3 SWAP1 PUSH2 0xDCE JUMP INVALID LOG2 PUSH5 0x6970667358 0x22 SLT KECCAK256 0x26 POP PUSH11 0x9FC3D8EE67A75EA7AC40D6 EXTCALL PUSH22 0x7CEC66C88A867AB4803BDBB016E2FBCC64736F6C6343 STOP ADDMOD 0x1F STOP CALLER "
				},
				"gasEstimates": {
					"creation": {
						"codeDepositCost": "740200",
						"executionCost": "infinite",
						"totalCost": "infinite"
					},
					"external": {
						"events()": "infinite",
						"m_create_shared_storage(string,string,string,string,uint64,uint64)": "infinite",
						"p_allow_sub_owner(string,bytes,bytes)": "infinite",
						"p_change_used_ref_code(string,bytes,string)": "infinite",
						"p_remove_sub_owner(string,bytes,bytes)": "infinite"
					}
				},
				"methodIdentifiers": {
					"events()": "b5f8558c",
					"m_create_shared_storage(string,string,string,string,uint64,uint64)": "e9c1681f",
					"p_allow_sub_owner(string,bytes,bytes)": "17c39bbd",
					"p_change_used_ref_code(string,bytes,string)": "4882beff",
					"p_remove_sub_owner(string,bytes,bytes)": "ac290d90"
				}
			},
			"storageLayout": {
				"storage": [],
				"types": null
			},
			"userdoc": {
				"kind": "user",
				"methods": {},
				"version": 1
			}
		}
	}
}