{
	"Evm/zk/balance_verifier.sol": {
		"Verifier": {
			"abi": [
				{
					"inputs": [],
					"name": "ProofInvalid",
					"type": "error"
				},
				{
					"inputs": [],
					"name": "PublicInputNotInField",
					"type": "error"
				},
				{
					"inputs": [
						{
							"internalType": "uint256[8]",
							"name": "proof",
							"type": "uint256[8]"
						}
					],
					"name": "compressProof",
					"outputs": [
						{
							"internalType": "uint256[4]",
							"name": "compressed",
							"type": "uint256[4]"
						}
					],
					"stateMutability": "view",
					"type": "function"
				},
				{
					"inputs": [
						{
							"internalType": "uint256[4]",
							"name": "compressedProof",
							"type": "uint256[4]"
						},
						{
							"internalType": "uint256[8]",
							"name": "input",
							"type": "uint256[8]"
						}
					],
					"name": "verifyCompressedProof",
					"outputs": [],
					"stateMutability": "view",
					"type": "function"
				},
				{
					"inputs": [
						{
							"internalType": "uint256[8]",
							"name": "proof",
							"type": "uint256[8]"
						},
						{
							"internalType": "uint256[8]",
							"name": "input",
							"type": "uint256[8]"
						}
					],
					"name": "verifyProof",
					"outputs": [],
					"stateMutability": "view",
					"type": "function"
				}
			],
			"devdoc": {
				"author": "Remco Bloemen",
				"errors": {
					"ProofInvalid()": [
						{
							"details": "This can mean that provided Groth16 proof points are not on their curves, that pairing equation fails, or that the proof is not for the provided public input."
						}
					],
					"PublicInputNotInField()": [
						{
							"details": "Public input elements are not automatically reduced, as this is can be a dangerous source of bugs."
						}
					]
				},
				"kind": "dev",
				"methods": {
					"compressProof(uint256[8])": {
						"params": {
							"proof": "The uncompressed Groth16 proof. Elements are in the same order as for verifyProof. I.e. Groth16 points (A, B, C) encoded as in EIP-197."
						},
						"returns": {
							"compressed": "The compressed proof. Elements are in the same order as for verifyCompressedProof. I.e. points (A, B, C) in compressed format."
						}
					},
					"verifyCompressedProof(uint256[4],uint256[8])": {
						"params": {
							"compressedProof": "the points (A, B, C) in compressed format matching the output of compressProof.",
							"input": "the public input field elements in the scalar field Fr. Elements must be reduced."
						}
					},
					"verifyProof(uint256[8],uint256[8])": {
						"params": {
							"input": "the public input field elements in the scalar field Fr. Elements must be reduced.",
							"proof": "the points (A, B, C) in EIP-197 format matching the output of compressProof."
						}
					}
				},
				"title": "Groth16 verifier template.",
				"version": 1
			},
			"evm": {
				"assembly": "    /* \"Evm/zk/balance_verifier.sol\":394:29163  contract Verifier {... */\n  mstore(0x40, 0x80)\n  callvalue\n  dup1\n  iszero\n  tag_1\n  jumpi\n  revert(0x00, 0x00)\ntag_1:\n  pop\n  dataSize(sub_0)\n  dup1\n  dataOffset(sub_0)\n  0x00\n  codecopy\n  0x00\n  return\nstop\n\nsub_0: assembly {\n        /* \"Evm/zk/balance_verifier.sol\":394:29163  contract Verifier {... */\n      mstore(0x40, 0x80)\n      callvalue\n      dup1\n      iszero\n      tag_1\n      jumpi\n      revert(0x00, 0x00)\n    tag_1:\n      pop\n      jumpi(tag_2, lt(calldatasize, 0x04))\n      shr(0xe0, calldataload(0x00))\n      dup1\n      0x44f63692\n      eq\n      tag_3\n      jumpi\n      dup1\n      0x48306671\n      eq\n      tag_4\n      jumpi\n      dup1\n      0xa6047e6c\n      eq\n      tag_5\n      jumpi\n    tag_2:\n      revert(0x00, 0x00)\n        /* \"Evm/zk/balance_verifier.sol\":23263:23588  function compressProof(uint256[8] calldata proof)... */\n    tag_3:\n      tag_6\n      0x04\n      dup1\n      calldatasize\n      sub\n      dup2\n      add\n      swap1\n      tag_7\n      swap2\n      swap1\n      tag_8\n      jump\t// in\n    tag_7:\n      tag_9\n      jump\t// in\n    tag_6:\n      mload(0x40)\n      tag_10\n      swap2\n      swap1\n      tag_11\n      jump\t// in\n    tag_10:\n      mload(0x40)\n      dup1\n      swap2\n      sub\n      swap1\n      return\n        /* \"Evm/zk/balance_verifier.sol\":24147:26449  function verifyCompressedProof(... */\n    tag_4:\n      tag_12\n      0x04\n      dup1\n      calldatasize\n      sub\n      dup2\n      add\n      swap1\n      tag_13\n      swap2\n      swap1\n      tag_14\n      jump\t// in\n    tag_13:\n      tag_15\n      jump\t// in\n    tag_12:\n      stop\n        /* \"Evm/zk/balance_verifier.sol\":26986:29160  function verifyProof(... */\n    tag_5:\n      tag_16\n      0x04\n      dup1\n      calldatasize\n      sub\n      dup2\n      add\n      swap1\n      tag_17\n      swap2\n      swap1\n      tag_18\n      jump\t// in\n    tag_17:\n      tag_19\n      jump\t// in\n    tag_16:\n      stop\n        /* \"Evm/zk/balance_verifier.sol\":23263:23588  function compressProof(uint256[8] calldata proof)... */\n    tag_9:\n        /* \"Evm/zk/balance_verifier.sol\":23339:23367  uint256[4] memory compressed */\n      tag_20\n      tag_21\n      jump\t// in\n    tag_20:\n        /* \"Evm/zk/balance_verifier.sol\":23396:23427  compress_g1(proof[0], proof[1]) */\n      tag_23\n        /* \"Evm/zk/balance_verifier.sol\":23408:23413  proof */\n      dup3\n        /* \"Evm/zk/balance_verifier.sol\":23414:23415  0 */\n      0x00\n        /* \"Evm/zk/balance_verifier.sol\":23408:23416  proof[0] */\n      0x08\n      dup2\n      lt\n      tag_24\n      jumpi\n      tag_25\n      tag_26\n      jump\t// in\n    tag_25:\n    tag_24:\n      0x20\n      mul\n      add\n      calldataload\n        /* \"Evm/zk/balance_verifier.sol\":23418:23423  proof */\n      dup4\n        /* \"Evm/zk/balance_verifier.sol\":23424:23425  1 */\n      0x01\n        /* \"Evm/zk/balance_verifier.sol\":23418:23426  proof[1] */\n      0x08\n      dup2\n      lt\n      tag_27\n      jumpi\n      tag_28\n      tag_26\n      jump\t// in\n    tag_28:\n    tag_27:\n      0x20\n      mul\n      add\n      calldataload\n        /* \"Evm/zk/balance_verifier.sol\":23396:23407  compress_g1 */\n      tag_29\n        /* \"Evm/zk/balance_verifier.sol\":23396:23427  compress_g1(proof[0], proof[1]) */\n      jump\t// in\n    tag_23:\n        /* \"Evm/zk/balance_verifier.sol\":23380:23390  compressed */\n      dup2\n        /* \"Evm/zk/balance_verifier.sol\":23391:23392  0 */\n      0x00\n        /* \"Evm/zk/balance_verifier.sol\":23380:23393  compressed[0] */\n      0x04\n      dup2\n      lt\n      tag_30\n      jumpi\n      tag_31\n      tag_26\n      jump\t// in\n    tag_31:\n    tag_30:\n      0x20\n      mul\n      add\n        /* \"Evm/zk/balance_verifier.sol\":23380:23427  compressed[0] = compress_g1(proof[0], proof[1]) */\n      dup2\n      dup2\n      mstore\n      pop\n      pop\n        /* \"Evm/zk/balance_verifier.sol\":23471:23522  compress_g2(proof[3], proof[2], proof[5], proof[4]) */\n      tag_32\n        /* \"Evm/zk/balance_verifier.sol\":23483:23488  proof */\n      dup3\n        /* \"Evm/zk/balance_verifier.sol\":23489:23490  3 */\n      0x03\n        /* \"Evm/zk/balance_verifier.sol\":23483:23491  proof[3] */\n      0x08\n      dup2\n      lt\n      tag_33\n      jumpi\n      tag_34\n      tag_26\n      jump\t// in\n    tag_34:\n    tag_33:\n      0x20\n      mul\n      add\n      calldataload\n        /* \"Evm/zk/balance_verifier.sol\":23493:23498  proof */\n      dup4\n        /* \"Evm/zk/balance_verifier.sol\":23499:23500  2 */\n      0x02\n        /* \"Evm/zk/balance_verifier.sol\":23493:23501  proof[2] */\n      0x08\n      dup2\n      lt\n      tag_35\n      jumpi\n      tag_36\n      tag_26\n      jump\t// in\n    tag_36:\n    tag_35:\n      0x20\n      mul\n      add\n      calldataload\n        /* \"Evm/zk/balance_verifier.sol\":23503:23508  proof */\n      dup5\n        /* \"Evm/zk/balance_verifier.sol\":23509:23510  5 */\n      0x05\n        /* \"Evm/zk/balance_verifier.sol\":23503:23511  proof[5] */\n      0x08\n      dup2\n      lt\n      tag_37\n      jumpi\n      tag_38\n      tag_26\n      jump\t// in\n    tag_38:\n    tag_37:\n      0x20\n      mul\n      add\n      calldataload\n        /* \"Evm/zk/balance_verifier.sol\":23513:23518  proof */\n      dup6\n        /* \"Evm/zk/balance_verifier.sol\":23519:23520  4 */\n      0x04\n        /* \"Evm/zk/balance_verifier.sol\":23513:23521  proof[4] */\n      0x08\n      dup2\n      lt\n      tag_39\n      jumpi\n      tag_40\n      tag_26\n      jump\t// in\n    tag_40:\n    tag_39:\n      0x20\n      mul\n      add\n      calldataload\n        /* \"Evm/zk/balance_verifier.sol\":23471:23482  compress_g2 */\n      tag_41\n        /* \"Evm/zk/balance_verifier.sol\":23471:23522  compress_g2(proof[3], proof[2], proof[5], proof[4]) */\n      jump\t// in\n    tag_32:\n        /* \"Evm/zk/balance_verifier.sol\":23439:23449  compressed */\n      dup3\n        /* \"Evm/zk/balance_verifier.sol\":23450:23451  2 */\n      0x02\n        /* \"Evm/zk/balance_verifier.sol\":23439:23452  compressed[2] */\n      0x04\n      dup2\n      lt\n      tag_42\n      jumpi\n      tag_43\n      tag_26\n      jump\t// in\n    tag_43:\n    tag_42:\n      0x20\n      mul\n      add\n        /* \"Evm/zk/balance_verifier.sol\":23454:23464  compressed */\n      dup4\n        /* \"Evm/zk/balance_verifier.sol\":23465:23466  1 */\n      0x01\n        /* \"Evm/zk/balance_verifier.sol\":23454:23467  compressed[1] */\n      0x04\n      dup2\n      lt\n      tag_44\n      jumpi\n      tag_45\n      tag_26\n      jump\t// in\n    tag_45:\n    tag_44:\n      0x20\n      mul\n      add\n        /* \"Evm/zk/balance_verifier.sol\":23438:23522  (compressed[2], compressed[1]) = compress_g2(proof[3], proof[2], proof[5], proof[4]) */\n      dup3\n      dup2\n      mstore\n      pop\n      dup3\n      dup2\n      mstore\n      pop\n      pop\n      pop\n        /* \"Evm/zk/balance_verifier.sol\":23549:23580  compress_g1(proof[6], proof[7]) */\n      tag_46\n        /* \"Evm/zk/balance_verifier.sol\":23561:23566  proof */\n      dup3\n        /* \"Evm/zk/balance_verifier.sol\":23567:23568  6 */\n      0x06\n        /* \"Evm/zk/balance_verifier.sol\":23561:23569  proof[6] */\n      0x08\n      dup2\n      lt\n      tag_47\n      jumpi\n      tag_48\n      tag_26\n      jump\t// in\n    tag_48:\n    tag_47:\n      0x20\n      mul\n      add\n      calldataload\n        /* \"Evm/zk/balance_verifier.sol\":23571:23576  proof */\n      dup4\n        /* \"Evm/zk/balance_verifier.sol\":23577:23578  7 */\n      0x07\n        /* \"Evm/zk/balance_verifier.sol\":23571:23579  proof[7] */\n      0x08\n      dup2\n      lt\n      tag_49\n      jumpi\n      tag_50\n      tag_26\n      jump\t// in\n    tag_50:\n    tag_49:\n      0x20\n      mul\n      add\n      calldataload\n        /* \"Evm/zk/balance_verifier.sol\":23549:23560  compress_g1 */\n      tag_29\n        /* \"Evm/zk/balance_verifier.sol\":23549:23580  compress_g1(proof[6], proof[7]) */\n      jump\t// in\n    tag_46:\n        /* \"Evm/zk/balance_verifier.sol\":23533:23543  compressed */\n      dup2\n        /* \"Evm/zk/balance_verifier.sol\":23544:23545  3 */\n      0x03\n        /* \"Evm/zk/balance_verifier.sol\":23533:23546  compressed[3] */\n      0x04\n      dup2\n      lt\n      tag_51\n      jumpi\n      tag_52\n      tag_26\n      jump\t// in\n    tag_52:\n    tag_51:\n      0x20\n      mul\n      add\n        /* \"Evm/zk/balance_verifier.sol\":23533:23580  compressed[3] = compress_g1(proof[6], proof[7]) */\n      dup2\n      dup2\n      mstore\n      pop\n      pop\n        /* \"Evm/zk/balance_verifier.sol\":23263:23588  function compressProof(uint256[8] calldata proof)... */\n      swap2\n      swap1\n      pop\n      jump\t// out\n        /* \"Evm/zk/balance_verifier.sol\":24147:26449  function verifyCompressedProof(... */\n    tag_15:\n        /* \"Evm/zk/balance_verifier.sol\":24290:24317  uint256[24] memory pairings */\n      tag_54\n      tag_55\n      jump\t// in\n    tag_54:\n        /* \"Evm/zk/balance_verifier.sol\":24346:24356  uint256 Ax */\n      0x00\n        /* \"Evm/zk/balance_verifier.sol\":24358:24368  uint256 Ay */\n      0x00\n        /* \"Evm/zk/balance_verifier.sol\":24372:24405  decompress_g1(compressedProof[0]) */\n      tag_56\n        /* \"Evm/zk/balance_verifier.sol\":24386:24401  compressedProof */\n      dup6\n        /* \"Evm/zk/balance_verifier.sol\":24402:24403  0 */\n      0x00\n        /* \"Evm/zk/balance_verifier.sol\":24386:24404  compressedProof[0] */\n      0x04\n      dup2\n      lt\n      tag_57\n      jumpi\n      tag_58\n      tag_26\n      jump\t// in\n    tag_58:\n    tag_57:\n      0x20\n      mul\n      add\n      calldataload\n        /* \"Evm/zk/balance_verifier.sol\":24372:24385  decompress_g1 */\n      tag_59\n        /* \"Evm/zk/balance_verifier.sol\":24372:24405  decompress_g1(compressedProof[0]) */\n      jump\t// in\n    tag_56:\n        /* \"Evm/zk/balance_verifier.sol\":24345:24405  (uint256 Ax, uint256 Ay) = decompress_g1(compressedProof[0]) */\n      swap2\n      pop\n      swap2\n      pop\n        /* \"Evm/zk/balance_verifier.sol\":24421:24432  uint256 Bx0 */\n      0x00\n        /* \"Evm/zk/balance_verifier.sol\":24434:24445  uint256 Bx1 */\n      0x00\n        /* \"Evm/zk/balance_verifier.sol\":24447:24458  uint256 By0 */\n      0x00\n        /* \"Evm/zk/balance_verifier.sol\":24460:24471  uint256 By1 */\n      0x00\n        /* \"Evm/zk/balance_verifier.sol\":24475:24528  decompress_g2(compressedProof[2], compressedProof[1]) */\n      tag_60\n        /* \"Evm/zk/balance_verifier.sol\":24489:24504  compressedProof */\n      dup10\n        /* \"Evm/zk/balance_verifier.sol\":24505:24506  2 */\n      0x02\n        /* \"Evm/zk/balance_verifier.sol\":24489:24507  compressedProof[2] */\n      0x04\n      dup2\n      lt\n      tag_61\n      jumpi\n      tag_62\n      tag_26\n      jump\t// in\n    tag_62:\n    tag_61:\n      0x20\n      mul\n      add\n      calldataload\n        /* \"Evm/zk/balance_verifier.sol\":24509:24524  compressedProof */\n      dup11\n        /* \"Evm/zk/balance_verifier.sol\":24525:24526  1 */\n      0x01\n        /* \"Evm/zk/balance_verifier.sol\":24509:24527  compressedProof[1] */\n      0x04\n      dup2\n      lt\n      tag_63\n      jumpi\n      tag_64\n      tag_26\n      jump\t// in\n    tag_64:\n    tag_63:\n      0x20\n      mul\n      add\n      calldataload\n        /* \"Evm/zk/balance_verifier.sol\":24475:24488  decompress_g2 */\n      tag_65\n        /* \"Evm/zk/balance_verifier.sol\":24475:24528  decompress_g2(compressedProof[2], compressedProof[1]) */\n      jump\t// in\n    tag_60:\n        /* \"Evm/zk/balance_verifier.sol\":24420:24528  (uint256 Bx0, uint256 Bx1, uint256 By0, uint256 By1) = decompress_g2(compressedProof[2], compressedProof[1]) */\n      swap4\n      pop\n      swap4\n      pop\n      swap4\n      pop\n      swap4\n      pop\n        /* \"Evm/zk/balance_verifier.sol\":24544:24554  uint256 Cx */\n      0x00\n        /* \"Evm/zk/balance_verifier.sol\":24556:24566  uint256 Cy */\n      0x00\n        /* \"Evm/zk/balance_verifier.sol\":24570:24603  decompress_g1(compressedProof[3]) */\n      tag_66\n        /* \"Evm/zk/balance_verifier.sol\":24584:24599  compressedProof */\n      dup12\n        /* \"Evm/zk/balance_verifier.sol\":24600:24601  3 */\n      0x03\n        /* \"Evm/zk/balance_verifier.sol\":24584:24602  compressedProof[3] */\n      0x04\n      dup2\n      lt\n      tag_67\n      jumpi\n      tag_68\n      tag_26\n      jump\t// in\n    tag_68:\n    tag_67:\n      0x20\n      mul\n      add\n      calldataload\n        /* \"Evm/zk/balance_verifier.sol\":24570:24583  decompress_g1 */\n      tag_59\n        /* \"Evm/zk/balance_verifier.sol\":24570:24603  decompress_g1(compressedProof[3]) */\n      jump\t// in\n    tag_66:\n        /* \"Evm/zk/balance_verifier.sol\":24543:24603  (uint256 Cx, uint256 Cy) = decompress_g1(compressedProof[3]) */\n      swap2\n      pop\n      swap2\n      pop\n        /* \"Evm/zk/balance_verifier.sol\":24619:24629  uint256 Lx */\n      0x00\n        /* \"Evm/zk/balance_verifier.sol\":24631:24641  uint256 Ly */\n      0x00\n        /* \"Evm/zk/balance_verifier.sol\":24645:24666  publicInputMSM(input) */\n      tag_69\n        /* \"Evm/zk/balance_verifier.sol\":24660:24665  input */\n      dup13\n        /* \"Evm/zk/balance_verifier.sol\":24645:24659  publicInputMSM */\n      tag_70\n        /* \"Evm/zk/balance_verifier.sol\":24645:24666  publicInputMSM(input) */\n      jump\t// in\n    tag_69:\n        /* \"Evm/zk/balance_verifier.sol\":24618:24666  (uint256 Lx, uint256 Ly) = publicInputMSM(input) */\n      swap2\n      pop\n      swap2\n      pop\n        /* \"Evm/zk/balance_verifier.sol\":24943:24945  Ax */\n      dup10\n        /* \"Evm/zk/balance_verifier.sol\":24928:24936  pairings */\n      dup12\n        /* \"Evm/zk/balance_verifier.sol\":24938:24939  0 */\n      0x00\n        /* \"Evm/zk/balance_verifier.sol\":24928:24940  pairings[ 0] */\n      0x18\n      dup2\n      lt\n      tag_71\n      jumpi\n      tag_72\n      tag_26\n      jump\t// in\n    tag_72:\n    tag_71:\n      0x20\n      mul\n      add\n        /* \"Evm/zk/balance_verifier.sol\":24928:24945  pairings[ 0] = Ax */\n      dup2\n      dup2\n      mstore\n      pop\n      pop\n        /* \"Evm/zk/balance_verifier.sol\":24975:24977  Ay */\n      dup9\n        /* \"Evm/zk/balance_verifier.sol\":24960:24968  pairings */\n      dup12\n        /* \"Evm/zk/balance_verifier.sol\":24970:24971  1 */\n      0x01\n        /* \"Evm/zk/balance_verifier.sol\":24960:24972  pairings[ 1] */\n      0x18\n      dup2\n      lt\n      tag_73\n      jumpi\n      tag_74\n      tag_26\n      jump\t// in\n    tag_74:\n    tag_73:\n      0x20\n      mul\n      add\n        /* \"Evm/zk/balance_verifier.sol\":24960:24977  pairings[ 1] = Ay */\n      dup2\n      dup2\n      mstore\n      pop\n      pop\n        /* \"Evm/zk/balance_verifier.sol\":25007:25010  Bx1 */\n      dup7\n        /* \"Evm/zk/balance_verifier.sol\":24992:25000  pairings */\n      dup12\n        /* \"Evm/zk/balance_verifier.sol\":25002:25003  2 */\n      0x02\n        /* \"Evm/zk/balance_verifier.sol\":24992:25004  pairings[ 2] */\n      0x18\n      dup2\n      lt\n      tag_75\n      jumpi\n      tag_76\n      tag_26\n      jump\t// in\n    tag_76:\n    tag_75:\n      0x20\n      mul\n      add\n        /* \"Evm/zk/balance_verifier.sol\":24992:25010  pairings[ 2] = Bx1 */\n      dup2\n      dup2\n      mstore\n      pop\n      pop\n        /* \"Evm/zk/balance_verifier.sol\":25040:25043  Bx0 */\n      dup8\n        /* \"Evm/zk/balance_verifier.sol\":25025:25033  pairings */\n      dup12\n        /* \"Evm/zk/balance_verifier.sol\":25035:25036  3 */\n      0x03\n        /* \"Evm/zk/balance_verifier.sol\":25025:25037  pairings[ 3] */\n      0x18\n      dup2\n      lt\n      tag_77\n      jumpi\n      tag_78\n      tag_26\n      jump\t// in\n    tag_78:\n    tag_77:\n      0x20\n      mul\n      add\n        /* \"Evm/zk/balance_verifier.sol\":25025:25043  pairings[ 3] = Bx0 */\n      dup2\n      dup2\n      mstore\n      pop\n      pop\n        /* \"Evm/zk/balance_verifier.sol\":25073:25076  By1 */\n      dup5\n        /* \"Evm/zk/balance_verifier.sol\":25058:25066  pairings */\n      dup12\n        /* \"Evm/zk/balance_verifier.sol\":25068:25069  4 */\n      0x04\n        /* \"Evm/zk/balance_verifier.sol\":25058:25070  pairings[ 4] */\n      0x18\n      dup2\n      lt\n      tag_79\n      jumpi\n      tag_80\n      tag_26\n      jump\t// in\n    tag_80:\n    tag_79:\n      0x20\n      mul\n      add\n        /* \"Evm/zk/balance_verifier.sol\":25058:25076  pairings[ 4] = By1 */\n      dup2\n      dup2\n      mstore\n      pop\n      pop\n        /* \"Evm/zk/balance_verifier.sol\":25106:25109  By0 */\n      dup6\n        /* \"Evm/zk/balance_verifier.sol\":25091:25099  pairings */\n      dup12\n        /* \"Evm/zk/balance_verifier.sol\":25101:25102  5 */\n      0x05\n        /* \"Evm/zk/balance_verifier.sol\":25091:25103  pairings[ 5] */\n      0x18\n      dup2\n      lt\n      tag_81\n      jumpi\n      tag_82\n      tag_26\n      jump\t// in\n    tag_82:\n    tag_81:\n      0x20\n      mul\n      add\n        /* \"Evm/zk/balance_verifier.sol\":25091:25109  pairings[ 5] = By0 */\n      dup2\n      dup2\n      mstore\n      pop\n      pop\n        /* \"Evm/zk/balance_verifier.sol\":25165:25167  Cx */\n      dup4\n        /* \"Evm/zk/balance_verifier.sol\":25150:25158  pairings */\n      dup12\n        /* \"Evm/zk/balance_verifier.sol\":25160:25161  6 */\n      0x06\n        /* \"Evm/zk/balance_verifier.sol\":25150:25162  pairings[ 6] */\n      0x18\n      dup2\n      lt\n      tag_83\n      jumpi\n      tag_84\n      tag_26\n      jump\t// in\n    tag_84:\n    tag_83:\n      0x20\n      mul\n      add\n        /* \"Evm/zk/balance_verifier.sol\":25150:25167  pairings[ 6] = Cx */\n      dup2\n      dup2\n      mstore\n      pop\n      pop\n        /* \"Evm/zk/balance_verifier.sol\":25197:25199  Cy */\n      dup3\n        /* \"Evm/zk/balance_verifier.sol\":25182:25190  pairings */\n      dup12\n        /* \"Evm/zk/balance_verifier.sol\":25192:25193  7 */\n      0x07\n        /* \"Evm/zk/balance_verifier.sol\":25182:25194  pairings[ 7] */\n      0x18\n      dup2\n      lt\n      tag_85\n      jumpi\n      tag_86\n      tag_26\n      jump\t// in\n    tag_86:\n    tag_85:\n      0x20\n      mul\n      add\n        /* \"Evm/zk/balance_verifier.sol\":25182:25199  pairings[ 7] = Cy */\n      dup2\n      dup2\n      mstore\n      pop\n      pop\n        /* \"Evm/zk/balance_verifier.sol\":4212:4289  16782521204363998758222314599117920847992865415828690049321104302284652552161 */\n      0x251a9204c0b04d3aea05b1eb6e6ef06ecf39f81239a50a944cce6106a4fe1fe1\n        /* \"Evm/zk/balance_verifier.sol\":25214:25222  pairings */\n      dup12\n        /* \"Evm/zk/balance_verifier.sol\":25224:25225  8 */\n      0x08\n        /* \"Evm/zk/balance_verifier.sol\":25214:25226  pairings[ 8] */\n      0x18\n      dup2\n      lt\n      tag_87\n      jumpi\n      tag_88\n      tag_26\n      jump\t// in\n    tag_88:\n    tag_87:\n      0x20\n      mul\n      add\n        /* \"Evm/zk/balance_verifier.sol\":25214:25242  pairings[ 8] = DELTA_NEG_X_1 */\n      dup2\n      dup2\n      mstore\n      pop\n      pop\n        /* \"Evm/zk/balance_verifier.sol\":4096:4172  7616359687040274165673570910698598250943391534898078589404260773994195238163 */\n      0x10d6b4f1f85d6500c712b9e5c1f474e5faf3de9beb5f179d88a86e3aa89abd13\n        /* \"Evm/zk/balance_verifier.sol\":25257:25265  pairings */\n      dup12\n        /* \"Evm/zk/balance_verifier.sol\":25267:25268  9 */\n      0x09\n        /* \"Evm/zk/balance_verifier.sol\":25257:25269  pairings[ 9] */\n      0x18\n      dup2\n      lt\n      tag_89\n      jumpi\n      tag_90\n      tag_26\n      jump\t// in\n    tag_90:\n    tag_89:\n      0x20\n      mul\n      add\n        /* \"Evm/zk/balance_verifier.sol\":25257:25285  pairings[ 9] = DELTA_NEG_X_0 */\n      dup2\n      dup2\n      mstore\n      pop\n      pop\n        /* \"Evm/zk/balance_verifier.sol\":4445:4521  6696856602854313442726481938360999732312031865318512165362014625943291430129 */\n      0x0ece4959040abdb04e14ea8c09ff50b3964fedafbac23b433a874fed6aec04f1\n        /* \"Evm/zk/balance_verifier.sol\":25300:25308  pairings */\n      dup12\n        /* \"Evm/zk/balance_verifier.sol\":25309:25311  10 */\n      0x0a\n        /* \"Evm/zk/balance_verifier.sol\":25300:25312  pairings[10] */\n      0x18\n      dup2\n      lt\n      tag_91\n      jumpi\n      tag_92\n      tag_26\n      jump\t// in\n    tag_92:\n    tag_91:\n      0x20\n      mul\n      add\n        /* \"Evm/zk/balance_verifier.sol\":25300:25328  pairings[10] = DELTA_NEG_Y_1 */\n      dup2\n      dup2\n      mstore\n      pop\n      pop\n        /* \"Evm/zk/balance_verifier.sol\":4329:4405  4163191620149953392837659972637298463080107090684917612063686254875433278863 */\n      0x0934486fa3b69fe4b1ffd0256946819210b9774f573fcf613fb68660d8b09d8f\n        /* \"Evm/zk/balance_verifier.sol\":25343:25351  pairings */\n      dup12\n        /* \"Evm/zk/balance_verifier.sol\":25352:25354  11 */\n      0x0b\n        /* \"Evm/zk/balance_verifier.sol\":25343:25355  pairings[11] */\n      0x18\n      dup2\n      lt\n      tag_93\n      jumpi\n      tag_94\n      tag_26\n      jump\t// in\n    tag_94:\n    tag_93:\n      0x20\n      mul\n      add\n        /* \"Evm/zk/balance_verifier.sol\":25343:25371  pairings[11] = DELTA_NEG_Y_0 */\n      dup2\n      dup2\n      mstore\n      pop\n      pop\n        /* \"Evm/zk/balance_verifier.sol\":2792:2868  9811941820259073138496796921845134909762801128785367844844357894304831200172 */\n      0x15b15cbd7fb94741bf19960911920daf5a5452a9374ecea3037ca49666c95bac\n        /* \"Evm/zk/balance_verifier.sol\":25413:25421  pairings */\n      dup12\n        /* \"Evm/zk/balance_verifier.sol\":25422:25424  12 */\n      0x0c\n        /* \"Evm/zk/balance_verifier.sol\":25413:25425  pairings[12] */\n      0x18\n      dup2\n      lt\n      tag_95\n      jumpi\n      tag_96\n      tag_26\n      jump\t// in\n    tag_96:\n    tag_95:\n      0x20\n      mul\n      add\n        /* \"Evm/zk/balance_verifier.sol\":25413:25435  pairings[12] = ALPHA_X */\n      dup2\n      dup2\n      mstore\n      pop\n      pop\n        /* \"Evm/zk/balance_verifier.sol\":2902:2977  402998906099039136399287920403401772154240498021088691532436313071027074735 */\n      0xe416dc36549cd195123f84ba97dc98267750dfbcffb8c8c7ad823bcf1db6af\n        /* \"Evm/zk/balance_verifier.sol\":25450:25458  pairings */\n      dup12\n        /* \"Evm/zk/balance_verifier.sol\":25459:25461  13 */\n      0x0d\n        /* \"Evm/zk/balance_verifier.sol\":25450:25462  pairings[13] */\n      0x18\n      dup2\n      lt\n      tag_97\n      jumpi\n      tag_98\n      tag_26\n      jump\t// in\n    tag_98:\n    tag_97:\n      0x20\n      mul\n      add\n        /* \"Evm/zk/balance_verifier.sol\":25450:25472  pairings[13] = ALPHA_Y */\n      dup2\n      dup2\n      mstore\n      pop\n      pop\n        /* \"Evm/zk/balance_verifier.sol\":3182:3259  21442131070887844170264723621552659281892710993281061218749249421193041368500 */\n      0x2f67d0ec85139dc20e8ab296dd670091efaff9e8ca2a51ab2ecdae79838355b4\n        /* \"Evm/zk/balance_verifier.sol\":25487:25495  pairings */\n      dup12\n        /* \"Evm/zk/balance_verifier.sol\":25496:25498  14 */\n      0x0e\n        /* \"Evm/zk/balance_verifier.sol\":25487:25499  pairings[14] */\n      0x18\n      dup2\n      lt\n      tag_99\n      jumpi\n      tag_100\n      tag_26\n      jump\t// in\n    tag_100:\n    tag_99:\n      0x20\n      mul\n      add\n        /* \"Evm/zk/balance_verifier.sol\":25487:25514  pairings[14] = BETA_NEG_X_1 */\n      dup2\n      dup2\n      mstore\n      pop\n      pop\n        /* \"Evm/zk/balance_verifier.sol\":3066:3143  14524895694399834977087818127216743173478302084075708595156558907521339295430 */\n      0x201cccb47a44b8fd01a18bc186da29ab1d835458ca7718c35c84d5de9a8906c6\n        /* \"Evm/zk/balance_verifier.sol\":25529:25537  pairings */\n      dup12\n        /* \"Evm/zk/balance_verifier.sol\":25538:25540  15 */\n      0x0f\n        /* \"Evm/zk/balance_verifier.sol\":25529:25541  pairings[15] */\n      0x18\n      dup2\n      lt\n      tag_101\n      jumpi\n      tag_102\n      tag_26\n      jump\t// in\n    tag_102:\n    tag_101:\n      0x20\n      mul\n      add\n        /* \"Evm/zk/balance_verifier.sol\":25529:25556  pairings[15] = BETA_NEG_X_0 */\n      dup2\n      dup2\n      mstore\n      pop\n      pop\n        /* \"Evm/zk/balance_verifier.sol\":3414:3489  841737939095787365157916110310568254754719410326907022419930130430791939011 */\n      0x01dc682368dc3b993afaed67af1dd8de9e57e52271677c3a60837998578e73c3\n        /* \"Evm/zk/balance_verifier.sol\":25571:25579  pairings */\n      dup12\n        /* \"Evm/zk/balance_verifier.sol\":25580:25582  16 */\n      0x10\n        /* \"Evm/zk/balance_verifier.sol\":25571:25583  pairings[16] */\n      0x18\n      dup2\n      lt\n      tag_103\n      jumpi\n      tag_104\n      tag_26\n      jump\t// in\n    tag_104:\n    tag_103:\n      0x20\n      mul\n      add\n        /* \"Evm/zk/balance_verifier.sol\":25571:25598  pairings[16] = BETA_NEG_Y_1 */\n      dup2\n      dup2\n      mstore\n      pop\n      pop\n        /* \"Evm/zk/balance_verifier.sol\":3298:3375  12886975791442737448164688783419462854585156313051708514312326733900285896001 */\n      0x1c7dc512b19c6b5598975cf3120fae7eb6e5fbb1193f98f19faa6a6109be6541\n        /* \"Evm/zk/balance_verifier.sol\":25613:25621  pairings */\n      dup12\n        /* \"Evm/zk/balance_verifier.sol\":25622:25624  17 */\n      0x11\n        /* \"Evm/zk/balance_verifier.sol\":25613:25625  pairings[17] */\n      0x18\n      dup2\n      lt\n      tag_105\n      jumpi\n      tag_106\n      tag_26\n      jump\t// in\n    tag_106:\n    tag_105:\n      0x20\n      mul\n      add\n        /* \"Evm/zk/balance_verifier.sol\":25613:25640  pairings[17] = BETA_NEG_Y_0 */\n      dup2\n      dup2\n      mstore\n      pop\n      pop\n        /* \"Evm/zk/balance_verifier.sol\":25700:25702  Lx */\n      dup2\n        /* \"Evm/zk/balance_verifier.sol\":25685:25693  pairings */\n      dup12\n        /* \"Evm/zk/balance_verifier.sol\":25694:25696  18 */\n      0x12\n        /* \"Evm/zk/balance_verifier.sol\":25685:25697  pairings[18] */\n      0x18\n      dup2\n      lt\n      tag_107\n      jumpi\n      tag_108\n      tag_26\n      jump\t// in\n    tag_108:\n    tag_107:\n      0x20\n      mul\n      add\n        /* \"Evm/zk/balance_verifier.sol\":25685:25702  pairings[18] = Lx */\n      dup2\n      dup2\n      mstore\n      pop\n      pop\n        /* \"Evm/zk/balance_verifier.sol\":25732:25734  Ly */\n      dup1\n        /* \"Evm/zk/balance_verifier.sol\":25717:25725  pairings */\n      dup12\n        /* \"Evm/zk/balance_verifier.sol\":25726:25728  19 */\n      0x13\n        /* \"Evm/zk/balance_verifier.sol\":25717:25729  pairings[19] */\n      0x18\n      dup2\n      lt\n      tag_109\n      jumpi\n      tag_110\n      tag_26\n      jump\t// in\n    tag_110:\n    tag_109:\n      0x20\n      mul\n      add\n        /* \"Evm/zk/balance_verifier.sol\":25717:25734  pairings[19] = Ly */\n      dup2\n      dup2\n      mstore\n      pop\n      pop\n        /* \"Evm/zk/balance_verifier.sol\":3695:3771  3456003190003720619132528366585357905111705099127800608284236402798154811483 */\n      0x07a4074ae43e078f049528dffd0ecc6b61b8c6e16b2781fcc26457b50edd085b\n        /* \"Evm/zk/balance_verifier.sol\":25749:25757  pairings */\n      dup12\n        /* \"Evm/zk/balance_verifier.sol\":25758:25760  20 */\n      0x14\n        /* \"Evm/zk/balance_verifier.sol\":25749:25761  pairings[20] */\n      0x18\n      dup2\n      lt\n      tag_111\n      jumpi\n      tag_112\n      tag_26\n      jump\t// in\n    tag_112:\n    tag_111:\n      0x20\n      mul\n      add\n        /* \"Evm/zk/balance_verifier.sol\":25749:25777  pairings[20] = GAMMA_NEG_X_1 */\n      dup2\n      dup2\n      mstore\n      pop\n      pop\n        /* \"Evm/zk/balance_verifier.sol\":3580:3655  305699831996796467375173770237141037548770813999453664514723732495633272998 */\n      0xad051cf897ccdee474e4e0ba77ea59b461cf0f6ded44626b75eabacd68d0a6\n        /* \"Evm/zk/balance_verifier.sol\":25792:25800  pairings */\n      dup12\n        /* \"Evm/zk/balance_verifier.sol\":25801:25803  21 */\n      0x15\n        /* \"Evm/zk/balance_verifier.sol\":25792:25804  pairings[21] */\n      0x18\n      dup2\n      lt\n      tag_113\n      jumpi\n      tag_114\n      tag_26\n      jump\t// in\n    tag_114:\n    tag_113:\n      0x20\n      mul\n      add\n        /* \"Evm/zk/balance_verifier.sol\":25792:25820  pairings[21] = GAMMA_NEG_X_0 */\n      dup2\n      dup2\n      mstore\n      pop\n      pop\n        /* \"Evm/zk/balance_verifier.sol\":3928:4005  12676207469166041655239314670472471412028563462620077662389156305923337974103 */\n      0x1c067aab1ec5c37605f2b48fe4f96e6afdcb3f0f97911d460e172e8c968d7157\n        /* \"Evm/zk/balance_verifier.sol\":25835:25843  pairings */\n      dup12\n        /* \"Evm/zk/balance_verifier.sol\":25844:25846  22 */\n      0x16\n        /* \"Evm/zk/balance_verifier.sol\":25835:25847  pairings[22] */\n      0x18\n      dup2\n      lt\n      tag_115\n      jumpi\n      tag_116\n      tag_26\n      jump\t// in\n    tag_116:\n    tag_115:\n      0x20\n      mul\n      add\n        /* \"Evm/zk/balance_verifier.sol\":25835:25863  pairings[22] = GAMMA_NEG_Y_1 */\n      dup2\n      dup2\n      mstore\n      pop\n      pop\n        /* \"Evm/zk/balance_verifier.sol\":3811:3888  15641202909311409739365624573802823825531775636130977235801472444347438515314 */\n      0x22949b6c5a8ab00da8ef7762080050db1249c28b792998e95b647221defac472\n        /* \"Evm/zk/balance_verifier.sol\":25878:25886  pairings */\n      dup12\n        /* \"Evm/zk/balance_verifier.sol\":25887:25889  23 */\n      0x17\n        /* \"Evm/zk/balance_verifier.sol\":25878:25890  pairings[23] */\n      0x18\n      dup2\n      lt\n      tag_117\n      jumpi\n      tag_118\n      tag_26\n      jump\t// in\n    tag_118:\n    tag_117:\n      0x20\n      mul\n      add\n        /* \"Evm/zk/balance_verifier.sol\":25878:25906  pairings[23] = GAMMA_NEG_Y_0 */\n      dup2\n      dup2\n      mstore\n      pop\n      pop\n        /* \"Evm/zk/balance_verifier.sol\":25963:25975  bool success */\n      0x00\n        /* \"Evm/zk/balance_verifier.sol\":25990:26014  uint256[1] memory output */\n      tag_119\n      tag_120\n      jump\t// in\n    tag_119:\n        /* \"Evm/zk/balance_verifier.sol\":26146:26150  0x20 */\n      0x20\n        /* \"Evm/zk/balance_verifier.sol\":26138:26144  output */\n      dup2\n        /* \"Evm/zk/balance_verifier.sol\":26131:26136  0x300 */\n      0x0300\n        /* \"Evm/zk/balance_verifier.sol\":26121:26129  pairings */\n      dup16\n        /* \"Evm/zk/balance_verifier.sol\":26102:26119  PRECOMPILE_VERIFY */\n      0x08\n        /* \"Evm/zk/balance_verifier.sol\":26095:26100  gas() */\n      gas\n        /* \"Evm/zk/balance_verifier.sol\":26084:26151  staticcall(gas(), PRECOMPILE_VERIFY, pairings, 0x300, output, 0x20) */\n      staticcall\n        /* \"Evm/zk/balance_verifier.sol\":26073:26151  success := staticcall(gas(), PRECOMPILE_VERIFY, pairings, 0x300, output, 0x20) */\n      swap2\n      pop\n        /* \"Evm/zk/balance_verifier.sol\":26185:26192  success */\n      dup2\n        /* \"Evm/zk/balance_verifier.sol\":26184:26192  !success */\n      iszero\n        /* \"Evm/zk/balance_verifier.sol\":26184:26210  !success || output[0] != 1 */\n      dup1\n      tag_121\n      jumpi\n      pop\n        /* \"Evm/zk/balance_verifier.sol\":26209:26210  1 */\n      0x01\n        /* \"Evm/zk/balance_verifier.sol\":26196:26202  output */\n      dup2\n        /* \"Evm/zk/balance_verifier.sol\":26203:26204  0 */\n      0x00\n        /* \"Evm/zk/balance_verifier.sol\":26196:26205  output[0] */\n      0x01\n      dup2\n      lt\n      tag_122\n      jumpi\n      tag_123\n      tag_26\n      jump\t// in\n    tag_123:\n    tag_122:\n      0x20\n      mul\n      add\n      mload\n        /* \"Evm/zk/balance_verifier.sol\":26196:26210  output[0] != 1 */\n      eq\n      iszero\n        /* \"Evm/zk/balance_verifier.sol\":26184:26210  !success || output[0] != 1 */\n    tag_121:\n        /* \"Evm/zk/balance_verifier.sol\":26180:26431  if (!success || output[0] != 1) {... */\n      iszero\n      tag_124\n      jumpi\n        /* \"Evm/zk/balance_verifier.sol\":26401:26415  ProofInvalid() */\n      mload(0x40)\n      0x7fcdd1f400000000000000000000000000000000000000000000000000000000\n      dup2\n      mstore\n      0x04\n      add\n      mload(0x40)\n      dup1\n      swap2\n      sub\n      swap1\n      revert\n        /* \"Evm/zk/balance_verifier.sol\":26180:26431  if (!success || output[0] != 1) {... */\n    tag_124:\n        /* \"Evm/zk/balance_verifier.sol\":24330:26442  {... */\n      pop\n      pop\n      pop\n      pop\n      pop\n      pop\n      pop\n      pop\n      pop\n      pop\n      pop\n      pop\n        /* \"Evm/zk/balance_verifier.sol\":24279:26449  {... */\n      pop\n        /* \"Evm/zk/balance_verifier.sol\":24147:26449  function verifyCompressedProof(... */\n      pop\n      pop\n      jump\t// out\n        /* \"Evm/zk/balance_verifier.sol\":26986:29160  function verifyProof(... */\n    tag_19:\n        /* \"Evm/zk/balance_verifier.sol\":27110:27119  uint256 x */\n      0x00\n        /* \"Evm/zk/balance_verifier.sol\":27121:27130  uint256 y */\n      0x00\n        /* \"Evm/zk/balance_verifier.sol\":27134:27155  publicInputMSM(input) */\n      tag_126\n        /* \"Evm/zk/balance_verifier.sol\":27149:27154  input */\n      dup4\n        /* \"Evm/zk/balance_verifier.sol\":27134:27148  publicInputMSM */\n      tag_70\n        /* \"Evm/zk/balance_verifier.sol\":27134:27155  publicInputMSM(input) */\n      jump\t// in\n    tag_126:\n        /* \"Evm/zk/balance_verifier.sol\":27109:27155  (uint256 x, uint256 y) = publicInputMSM(input) */\n      swap2\n      pop\n      swap2\n      pop\n        /* \"Evm/zk/balance_verifier.sol\":27346:27358  bool success */\n      0x00\n        /* \"Evm/zk/balance_verifier.sol\":27424:27428  0x40 */\n      0x40\n        /* \"Evm/zk/balance_verifier.sol\":27418:27429  mload(0x40) */\n      mload\n        /* \"Evm/zk/balance_verifier.sol\":27640:27645  0x100 */\n      0x0100\n        /* \"Evm/zk/balance_verifier.sol\":27633:27638  proof */\n      dup7\n        /* \"Evm/zk/balance_verifier.sol\":27630:27631  f */\n      dup3\n        /* \"Evm/zk/balance_verifier.sol\":27617:27646  calldatacopy(f, proof, 0x100) */\n      calldatacopy\n        /* \"Evm/zk/balance_verifier.sol\":27954:27967  DELTA_NEG_X_1 */\n      0x251a9204c0b04d3aea05b1eb6e6ef06ecf39f81239a50a944cce6106a4fe1fe1\n        /* \"Evm/zk/balance_verifier.sol\":27946:27951  0x100 */\n      0x0100\n        /* \"Evm/zk/balance_verifier.sol\":27943:27944  f */\n      dup3\n        /* \"Evm/zk/balance_verifier.sol\":27939:27952  add(f, 0x100) */\n      add\n        /* \"Evm/zk/balance_verifier.sol\":27932:27968  mstore(add(f, 0x100), DELTA_NEG_X_1) */\n      mstore\n        /* \"Evm/zk/balance_verifier.sol\":28004:28017  DELTA_NEG_X_0 */\n      0x10d6b4f1f85d6500c712b9e5c1f474e5faf3de9beb5f179d88a86e3aa89abd13\n        /* \"Evm/zk/balance_verifier.sol\":27996:28001  0x120 */\n      0x0120\n        /* \"Evm/zk/balance_verifier.sol\":27993:27994  f */\n      dup3\n        /* \"Evm/zk/balance_verifier.sol\":27989:28002  add(f, 0x120) */\n      add\n        /* \"Evm/zk/balance_verifier.sol\":27982:28018  mstore(add(f, 0x120), DELTA_NEG_X_0) */\n      mstore\n        /* \"Evm/zk/balance_verifier.sol\":28054:28067  DELTA_NEG_Y_1 */\n      0x0ece4959040abdb04e14ea8c09ff50b3964fedafbac23b433a874fed6aec04f1\n        /* \"Evm/zk/balance_verifier.sol\":28046:28051  0x140 */\n      0x0140\n        /* \"Evm/zk/balance_verifier.sol\":28043:28044  f */\n      dup3\n        /* \"Evm/zk/balance_verifier.sol\":28039:28052  add(f, 0x140) */\n      add\n        /* \"Evm/zk/balance_verifier.sol\":28032:28068  mstore(add(f, 0x140), DELTA_NEG_Y_1) */\n      mstore\n        /* \"Evm/zk/balance_verifier.sol\":28104:28117  DELTA_NEG_Y_0 */\n      0x0934486fa3b69fe4b1ffd0256946819210b9774f573fcf613fb68660d8b09d8f\n        /* \"Evm/zk/balance_verifier.sol\":28096:28101  0x160 */\n      0x0160\n        /* \"Evm/zk/balance_verifier.sol\":28093:28094  f */\n      dup3\n        /* \"Evm/zk/balance_verifier.sol\":28089:28102  add(f, 0x160) */\n      add\n        /* \"Evm/zk/balance_verifier.sol\":28082:28118  mstore(add(f, 0x160), DELTA_NEG_Y_0) */\n      mstore\n        /* \"Evm/zk/balance_verifier.sol\":28154:28161  ALPHA_X */\n      0x15b15cbd7fb94741bf19960911920daf5a5452a9374ecea3037ca49666c95bac\n        /* \"Evm/zk/balance_verifier.sol\":28146:28151  0x180 */\n      0x0180\n        /* \"Evm/zk/balance_verifier.sol\":28143:28144  f */\n      dup3\n        /* \"Evm/zk/balance_verifier.sol\":28139:28152  add(f, 0x180) */\n      add\n        /* \"Evm/zk/balance_verifier.sol\":28132:28162  mstore(add(f, 0x180), ALPHA_X) */\n      mstore\n        /* \"Evm/zk/balance_verifier.sol\":28198:28205  ALPHA_Y */\n      0xe416dc36549cd195123f84ba97dc98267750dfbcffb8c8c7ad823bcf1db6af\n        /* \"Evm/zk/balance_verifier.sol\":28190:28195  0x1a0 */\n      0x01a0\n        /* \"Evm/zk/balance_verifier.sol\":28187:28188  f */\n      dup3\n        /* \"Evm/zk/balance_verifier.sol\":28183:28196  add(f, 0x1a0) */\n      add\n        /* \"Evm/zk/balance_verifier.sol\":28176:28206  mstore(add(f, 0x1a0), ALPHA_Y) */\n      mstore\n        /* \"Evm/zk/balance_verifier.sol\":28242:28254  BETA_NEG_X_1 */\n      0x2f67d0ec85139dc20e8ab296dd670091efaff9e8ca2a51ab2ecdae79838355b4\n        /* \"Evm/zk/balance_verifier.sol\":28234:28239  0x1c0 */\n      0x01c0\n        /* \"Evm/zk/balance_verifier.sol\":28231:28232  f */\n      dup3\n        /* \"Evm/zk/balance_verifier.sol\":28227:28240  add(f, 0x1c0) */\n      add\n        /* \"Evm/zk/balance_verifier.sol\":28220:28255  mstore(add(f, 0x1c0), BETA_NEG_X_1) */\n      mstore\n        /* \"Evm/zk/balance_verifier.sol\":28291:28303  BETA_NEG_X_0 */\n      0x201cccb47a44b8fd01a18bc186da29ab1d835458ca7718c35c84d5de9a8906c6\n        /* \"Evm/zk/balance_verifier.sol\":28283:28288  0x1e0 */\n      0x01e0\n        /* \"Evm/zk/balance_verifier.sol\":28280:28281  f */\n      dup3\n        /* \"Evm/zk/balance_verifier.sol\":28276:28289  add(f, 0x1e0) */\n      add\n        /* \"Evm/zk/balance_verifier.sol\":28269:28304  mstore(add(f, 0x1e0), BETA_NEG_X_0) */\n      mstore\n        /* \"Evm/zk/balance_verifier.sol\":28340:28352  BETA_NEG_Y_1 */\n      0x01dc682368dc3b993afaed67af1dd8de9e57e52271677c3a60837998578e73c3\n        /* \"Evm/zk/balance_verifier.sol\":28332:28337  0x200 */\n      0x0200\n        /* \"Evm/zk/balance_verifier.sol\":28329:28330  f */\n      dup3\n        /* \"Evm/zk/balance_verifier.sol\":28325:28338  add(f, 0x200) */\n      add\n        /* \"Evm/zk/balance_verifier.sol\":28318:28353  mstore(add(f, 0x200), BETA_NEG_Y_1) */\n      mstore\n        /* \"Evm/zk/balance_verifier.sol\":28389:28401  BETA_NEG_Y_0 */\n      0x1c7dc512b19c6b5598975cf3120fae7eb6e5fbb1193f98f19faa6a6109be6541\n        /* \"Evm/zk/balance_verifier.sol\":28381:28386  0x220 */\n      0x0220\n        /* \"Evm/zk/balance_verifier.sol\":28378:28379  f */\n      dup3\n        /* \"Evm/zk/balance_verifier.sol\":28374:28387  add(f, 0x220) */\n      add\n        /* \"Evm/zk/balance_verifier.sol\":28367:28402  mstore(add(f, 0x220), BETA_NEG_Y_0) */\n      mstore\n        /* \"Evm/zk/balance_verifier.sol\":28438:28439  x */\n      dup4\n        /* \"Evm/zk/balance_verifier.sol\":28430:28435  0x240 */\n      0x0240\n        /* \"Evm/zk/balance_verifier.sol\":28427:28428  f */\n      dup3\n        /* \"Evm/zk/balance_verifier.sol\":28423:28436  add(f, 0x240) */\n      add\n        /* \"Evm/zk/balance_verifier.sol\":28416:28440  mstore(add(f, 0x240), x) */\n      mstore\n        /* \"Evm/zk/balance_verifier.sol\":28476:28477  y */\n      dup3\n        /* \"Evm/zk/balance_verifier.sol\":28468:28473  0x260 */\n      0x0260\n        /* \"Evm/zk/balance_verifier.sol\":28465:28466  f */\n      dup3\n        /* \"Evm/zk/balance_verifier.sol\":28461:28474  add(f, 0x260) */\n      add\n        /* \"Evm/zk/balance_verifier.sol\":28454:28478  mstore(add(f, 0x260), y) */\n      mstore\n        /* \"Evm/zk/balance_verifier.sol\":28514:28527  GAMMA_NEG_X_1 */\n      0x07a4074ae43e078f049528dffd0ecc6b61b8c6e16b2781fcc26457b50edd085b\n        /* \"Evm/zk/balance_verifier.sol\":28506:28511  0x280 */\n      0x0280\n        /* \"Evm/zk/balance_verifier.sol\":28503:28504  f */\n      dup3\n        /* \"Evm/zk/balance_verifier.sol\":28499:28512  add(f, 0x280) */\n      add\n        /* \"Evm/zk/balance_verifier.sol\":28492:28528  mstore(add(f, 0x280), GAMMA_NEG_X_1) */\n      mstore\n        /* \"Evm/zk/balance_verifier.sol\":28564:28577  GAMMA_NEG_X_0 */\n      0xad051cf897ccdee474e4e0ba77ea59b461cf0f6ded44626b75eabacd68d0a6\n        /* \"Evm/zk/balance_verifier.sol\":28556:28561  0x2a0 */\n      0x02a0\n        /* \"Evm/zk/balance_verifier.sol\":28553:28554  f */\n      dup3\n        /* \"Evm/zk/balance_verifier.sol\":28549:28562  add(f, 0x2a0) */\n      add\n        /* \"Evm/zk/balance_verifier.sol\":28542:28578  mstore(add(f, 0x2a0), GAMMA_NEG_X_0) */\n      mstore\n        /* \"Evm/zk/balance_verifier.sol\":28614:28627  GAMMA_NEG_Y_1 */\n      0x1c067aab1ec5c37605f2b48fe4f96e6afdcb3f0f97911d460e172e8c968d7157\n        /* \"Evm/zk/balance_verifier.sol\":28606:28611  0x2c0 */\n      0x02c0\n        /* \"Evm/zk/balance_verifier.sol\":28603:28604  f */\n      dup3\n        /* \"Evm/zk/balance_verifier.sol\":28599:28612  add(f, 0x2c0) */\n      add\n        /* \"Evm/zk/balance_verifier.sol\":28592:28628  mstore(add(f, 0x2c0), GAMMA_NEG_Y_1) */\n      mstore\n        /* \"Evm/zk/balance_verifier.sol\":28664:28677  GAMMA_NEG_Y_0 */\n      0x22949b6c5a8ab00da8ef7762080050db1249c28b792998e95b647221defac472\n        /* \"Evm/zk/balance_verifier.sol\":28656:28661  0x2e0 */\n      0x02e0\n        /* \"Evm/zk/balance_verifier.sol\":28653:28654  f */\n      dup3\n        /* \"Evm/zk/balance_verifier.sol\":28649:28662  add(f, 0x2e0) */\n      add\n        /* \"Evm/zk/balance_verifier.sol\":28642:28678  mstore(add(f, 0x2e0), GAMMA_NEG_Y_0) */\n      mstore\n        /* \"Evm/zk/balance_verifier.sol\":28795:28799  0x20 */\n      0x20\n        /* \"Evm/zk/balance_verifier.sol\":28792:28793  f */\n      dup2\n        /* \"Evm/zk/balance_verifier.sol\":28785:28790  0x300 */\n      0x0300\n        /* \"Evm/zk/balance_verifier.sol\":28782:28783  f */\n      dup4\n        /* \"Evm/zk/balance_verifier.sol\":28763:28780  PRECOMPILE_VERIFY */\n      0x08\n        /* \"Evm/zk/balance_verifier.sol\":28756:28761  gas() */\n      gas\n        /* \"Evm/zk/balance_verifier.sol\":28745:28800  staticcall(gas(), PRECOMPILE_VERIFY, f, 0x300, f, 0x20) */\n      staticcall\n        /* \"Evm/zk/balance_verifier.sol\":28734:28800  success := staticcall(gas(), PRECOMPILE_VERIFY, f, 0x300, f, 0x20) */\n      swap2\n      pop\n        /* \"Evm/zk/balance_verifier.sol\":28912:28913  f */\n      dup1\n        /* \"Evm/zk/balance_verifier.sol\":28906:28914  mload(f) */\n      mload\n        /* \"Evm/zk/balance_verifier.sol\":28897:28904  success */\n      dup3\n        /* \"Evm/zk/balance_verifier.sol\":28893:28915  and(success, mload(f)) */\n      and\n        /* \"Evm/zk/balance_verifier.sol\":28882:28915  success := and(success, mload(f)) */\n      swap2\n      pop\n        /* \"Evm/zk/balance_verifier.sol\":27394:28926  {... */\n      pop\n        /* \"Evm/zk/balance_verifier.sol\":28941:28948  success */\n      dup1\n        /* \"Evm/zk/balance_verifier.sol\":28936:29153  if (!success) {... */\n      tag_127\n      jumpi\n        /* \"Evm/zk/balance_verifier.sol\":29127:29141  ProofInvalid() */\n      mload(0x40)\n      0x7fcdd1f400000000000000000000000000000000000000000000000000000000\n      dup2\n      mstore\n      0x04\n      add\n      mload(0x40)\n      dup1\n      swap2\n      sub\n      swap1\n      revert\n        /* \"Evm/zk/balance_verifier.sol\":28936:29153  if (!success) {... */\n    tag_127:\n        /* \"Evm/zk/balance_verifier.sol\":27098:29160  {... */\n      pop\n      pop\n      pop\n        /* \"Evm/zk/balance_verifier.sol\":26986:29160  function verifyProof(... */\n      pop\n      pop\n      jump\t// out\n        /* \"Evm/zk/balance_verifier.sol\":11268:11988  function compress_g1(uint256 x, uint256 y) internal view returns (uint256 c) {... */\n    tag_29:\n        /* \"Evm/zk/balance_verifier.sol\":11334:11343  uint256 c */\n      0x00\n        /* \"Evm/zk/balance_verifier.sol\":1423:1489  0x30644e72e131a029b85045b68181585d97816a916871ca8d3c208c16d87cfd47 */\n      0x30644e72e131a029b85045b68181585d97816a916871ca8d3c208c16d87cfd47\n        /* \"Evm/zk/balance_verifier.sol\":11360:11361  x */\n      dup4\n        /* \"Evm/zk/balance_verifier.sol\":11360:11366  x >= P */\n      lt\n      iszero\n        /* \"Evm/zk/balance_verifier.sol\":11360:11376  x >= P || y >= P */\n      dup1\n      tag_129\n      jumpi\n      pop\n        /* \"Evm/zk/balance_verifier.sol\":1423:1489  0x30644e72e131a029b85045b68181585d97816a916871ca8d3c208c16d87cfd47 */\n      0x30644e72e131a029b85045b68181585d97816a916871ca8d3c208c16d87cfd47\n        /* \"Evm/zk/balance_verifier.sol\":11370:11371  y */\n      dup3\n        /* \"Evm/zk/balance_verifier.sol\":11370:11376  y >= P */\n      lt\n      iszero\n        /* \"Evm/zk/balance_verifier.sol\":11360:11376  x >= P || y >= P */\n    tag_129:\n        /* \"Evm/zk/balance_verifier.sol\":11356:11465  if (x >= P || y >= P) {... */\n      iszero\n      tag_130\n      jumpi\n        /* \"Evm/zk/balance_verifier.sol\":11439:11453  ProofInvalid() */\n      mload(0x40)\n      0x7fcdd1f400000000000000000000000000000000000000000000000000000000\n      dup2\n      mstore\n      0x04\n      add\n      mload(0x40)\n      dup1\n      swap2\n      sub\n      swap1\n      revert\n        /* \"Evm/zk/balance_verifier.sol\":11356:11465  if (x >= P || y >= P) {... */\n    tag_130:\n        /* \"Evm/zk/balance_verifier.sol\":11484:11485  0 */\n      0x00\n        /* \"Evm/zk/balance_verifier.sol\":11479:11480  x */\n      dup4\n        /* \"Evm/zk/balance_verifier.sol\":11479:11485  x == 0 */\n      eq\n        /* \"Evm/zk/balance_verifier.sol\":11479:11495  x == 0 && y == 0 */\n      dup1\n      iszero\n      tag_131\n      jumpi\n      pop\n        /* \"Evm/zk/balance_verifier.sol\":11494:11495  0 */\n      0x00\n        /* \"Evm/zk/balance_verifier.sol\":11489:11490  y */\n      dup3\n        /* \"Evm/zk/balance_verifier.sol\":11489:11495  y == 0 */\n      eq\n        /* \"Evm/zk/balance_verifier.sol\":11479:11495  x == 0 && y == 0 */\n    tag_131:\n        /* \"Evm/zk/balance_verifier.sol\":11475:11566  if (x == 0 && y == 0) {... */\n      iszero\n      tag_132\n      jumpi\n        /* \"Evm/zk/balance_verifier.sol\":11553:11554  0 */\n      0x00\n        /* \"Evm/zk/balance_verifier.sol\":11546:11554  return 0 */\n      swap1\n      pop\n      jump(tag_128)\n        /* \"Evm/zk/balance_verifier.sol\":11475:11566  if (x == 0 && y == 0) {... */\n    tag_132:\n        /* \"Evm/zk/balance_verifier.sol\":11671:11684  uint256 y_pos */\n      0x00\n        /* \"Evm/zk/balance_verifier.sol\":11687:11739  sqrt_Fp(addmod(mulmod(mulmod(x, x, P), x, P), 3, P)) */\n      tag_133\n        /* \"Evm/zk/balance_verifier.sol\":1423:1489  0x30644e72e131a029b85045b68181585d97816a916871ca8d3c208c16d87cfd47 */\n      0x30644e72e131a029b85045b68181585d97816a916871ca8d3c208c16d87cfd47\n        /* \"Evm/zk/balance_verifier.sol\":11695:11738  addmod(mulmod(mulmod(x, x, P), x, P), 3, P) */\n      dup1\n      tag_134\n      jumpi\n      tag_135\n      tag_136\n      jump\t// in\n    tag_135:\n    tag_134:\n        /* \"Evm/zk/balance_verifier.sol\":11733:11734  3 */\n      0x03\n        /* \"Evm/zk/balance_verifier.sol\":1423:1489  0x30644e72e131a029b85045b68181585d97816a916871ca8d3c208c16d87cfd47 */\n      0x30644e72e131a029b85045b68181585d97816a916871ca8d3c208c16d87cfd47\n        /* \"Evm/zk/balance_verifier.sol\":11702:11731  mulmod(mulmod(x, x, P), x, P) */\n      dup1\n      tag_137\n      jumpi\n      tag_138\n      tag_136\n      jump\t// in\n    tag_138:\n    tag_137:\n        /* \"Evm/zk/balance_verifier.sol\":11726:11727  x */\n      dup8\n        /* \"Evm/zk/balance_verifier.sol\":1423:1489  0x30644e72e131a029b85045b68181585d97816a916871ca8d3c208c16d87cfd47 */\n      0x30644e72e131a029b85045b68181585d97816a916871ca8d3c208c16d87cfd47\n        /* \"Evm/zk/balance_verifier.sol\":11709:11724  mulmod(x, x, P) */\n      dup1\n      tag_139\n      jumpi\n      tag_140\n      tag_136\n      jump\t// in\n    tag_140:\n    tag_139:\n        /* \"Evm/zk/balance_verifier.sol\":11719:11720  x */\n      dup10\n        /* \"Evm/zk/balance_verifier.sol\":11716:11717  x */\n      dup11\n        /* \"Evm/zk/balance_verifier.sol\":11709:11724  mulmod(x, x, P) */\n      mulmod\n        /* \"Evm/zk/balance_verifier.sol\":11702:11731  mulmod(mulmod(x, x, P), x, P) */\n      mulmod\n        /* \"Evm/zk/balance_verifier.sol\":11695:11738  addmod(mulmod(mulmod(x, x, P), x, P), 3, P) */\n      addmod\n        /* \"Evm/zk/balance_verifier.sol\":11687:11694  sqrt_Fp */\n      tag_141\n        /* \"Evm/zk/balance_verifier.sol\":11687:11739  sqrt_Fp(addmod(mulmod(mulmod(x, x, P), x, P), 3, P)) */\n      jump\t// in\n    tag_133:\n        /* \"Evm/zk/balance_verifier.sol\":11671:11739  uint256 y_pos = sqrt_Fp(addmod(mulmod(mulmod(x, x, P), x, P), 3, P)) */\n      swap1\n      pop\n        /* \"Evm/zk/balance_verifier.sol\":11759:11764  y_pos */\n      dup1\n        /* \"Evm/zk/balance_verifier.sol\":11754:11755  y */\n      dup4\n        /* \"Evm/zk/balance_verifier.sol\":11754:11764  y == y_pos */\n      sub\n        /* \"Evm/zk/balance_verifier.sol\":11750:11981  if (y == y_pos) {... */\n      tag_142\n      jumpi\n        /* \"Evm/zk/balance_verifier.sol\":11799:11800  0 */\n      0x00\n        /* \"Evm/zk/balance_verifier.sol\":11794:11795  1 */\n      0x01\n        /* \"Evm/zk/balance_verifier.sol\":11789:11790  x */\n      dup6\n        /* \"Evm/zk/balance_verifier.sol\":11789:11795  x << 1 */\n      swap1\n      shl\n        /* \"Evm/zk/balance_verifier.sol\":11788:11800  (x << 1) | 0 */\n      or\n        /* \"Evm/zk/balance_verifier.sol\":11781:11800  return (x << 1) | 0 */\n      swap2\n      pop\n      pop\n      jump(tag_128)\n        /* \"Evm/zk/balance_verifier.sol\":11750:11981  if (y == y_pos) {... */\n    tag_142:\n        /* \"Evm/zk/balance_verifier.sol\":11827:11840  negate(y_pos) */\n      tag_144\n        /* \"Evm/zk/balance_verifier.sol\":11834:11839  y_pos */\n      dup2\n        /* \"Evm/zk/balance_verifier.sol\":11827:11833  negate */\n      tag_145\n        /* \"Evm/zk/balance_verifier.sol\":11827:11840  negate(y_pos) */\n      jump\t// in\n    tag_144:\n        /* \"Evm/zk/balance_verifier.sol\":11822:11823  y */\n      dup4\n        /* \"Evm/zk/balance_verifier.sol\":11822:11840  y == negate(y_pos) */\n      sub\n        /* \"Evm/zk/balance_verifier.sol\":11818:11981  if (y == negate(y_pos)) {... */\n      tag_146\n      jumpi\n        /* \"Evm/zk/balance_verifier.sol\":11875:11876  1 */\n      0x01\n        /* \"Evm/zk/balance_verifier.sol\":11870:11871  1 */\n      dup1\n        /* \"Evm/zk/balance_verifier.sol\":11865:11866  x */\n      dup6\n        /* \"Evm/zk/balance_verifier.sol\":11865:11871  x << 1 */\n      swap1\n      shl\n        /* \"Evm/zk/balance_verifier.sol\":11864:11876  (x << 1) | 1 */\n      or\n        /* \"Evm/zk/balance_verifier.sol\":11857:11876  return (x << 1) | 1 */\n      swap2\n      pop\n      pop\n      jump(tag_128)\n        /* \"Evm/zk/balance_verifier.sol\":11818:11981  if (y == negate(y_pos)) {... */\n    tag_146:\n        /* \"Evm/zk/balance_verifier.sol\":11955:11969  ProofInvalid() */\n      mload(0x40)\n      0x7fcdd1f400000000000000000000000000000000000000000000000000000000\n      dup2\n      mstore\n      0x04\n      add\n      mload(0x40)\n      dup1\n      swap2\n      sub\n      swap1\n      revert\n        /* \"Evm/zk/balance_verifier.sol\":11268:11988  function compress_g1(uint256 x, uint256 y) internal view returns (uint256 c) {... */\n    tag_128:\n      swap3\n      swap2\n      pop\n      pop\n      jump\t// out\n        /* \"Evm/zk/balance_verifier.sol\":14026:15729  function compress_g2(uint256 x0, uint256 x1, uint256 y0, uint256 y1)... */\n    tag_41:\n        /* \"Evm/zk/balance_verifier.sol\":14123:14133  uint256 c0 */\n      0x00\n        /* \"Evm/zk/balance_verifier.sol\":14135:14145  uint256 c1 */\n      0x00\n        /* \"Evm/zk/balance_verifier.sol\":1423:1489  0x30644e72e131a029b85045b68181585d97816a916871ca8d3c208c16d87cfd47 */\n      0x30644e72e131a029b85045b68181585d97816a916871ca8d3c208c16d87cfd47\n        /* \"Evm/zk/balance_verifier.sol\":14162:14164  x0 */\n      dup7\n        /* \"Evm/zk/balance_verifier.sol\":14162:14169  x0 >= P */\n      lt\n      iszero\n        /* \"Evm/zk/balance_verifier.sol\":14162:14180  x0 >= P || x1 >= P */\n      dup1\n      tag_149\n      jumpi\n      pop\n        /* \"Evm/zk/balance_verifier.sol\":1423:1489  0x30644e72e131a029b85045b68181585d97816a916871ca8d3c208c16d87cfd47 */\n      0x30644e72e131a029b85045b68181585d97816a916871ca8d3c208c16d87cfd47\n        /* \"Evm/zk/balance_verifier.sol\":14173:14175  x1 */\n      dup6\n        /* \"Evm/zk/balance_verifier.sol\":14173:14180  x1 >= P */\n      lt\n      iszero\n        /* \"Evm/zk/balance_verifier.sol\":14162:14180  x0 >= P || x1 >= P */\n    tag_149:\n        /* \"Evm/zk/balance_verifier.sol\":14162:14191  x0 >= P || x1 >= P || y0 >= P */\n      dup1\n      tag_150\n      jumpi\n      pop\n        /* \"Evm/zk/balance_verifier.sol\":1423:1489  0x30644e72e131a029b85045b68181585d97816a916871ca8d3c208c16d87cfd47 */\n      0x30644e72e131a029b85045b68181585d97816a916871ca8d3c208c16d87cfd47\n        /* \"Evm/zk/balance_verifier.sol\":14184:14186  y0 */\n      dup5\n        /* \"Evm/zk/balance_verifier.sol\":14184:14191  y0 >= P */\n      lt\n      iszero\n        /* \"Evm/zk/balance_verifier.sol\":14162:14191  x0 >= P || x1 >= P || y0 >= P */\n    tag_150:\n        /* \"Evm/zk/balance_verifier.sol\":14162:14202  x0 >= P || x1 >= P || y0 >= P || y1 >= P */\n      dup1\n      tag_151\n      jumpi\n      pop\n        /* \"Evm/zk/balance_verifier.sol\":1423:1489  0x30644e72e131a029b85045b68181585d97816a916871ca8d3c208c16d87cfd47 */\n      0x30644e72e131a029b85045b68181585d97816a916871ca8d3c208c16d87cfd47\n        /* \"Evm/zk/balance_verifier.sol\":14195:14197  y1 */\n      dup4\n        /* \"Evm/zk/balance_verifier.sol\":14195:14202  y1 >= P */\n      lt\n      iszero\n        /* \"Evm/zk/balance_verifier.sol\":14162:14202  x0 >= P || x1 >= P || y0 >= P || y1 >= P */\n    tag_151:\n        /* \"Evm/zk/balance_verifier.sol\":14158:14291  if (x0 >= P || x1 >= P || y0 >= P || y1 >= P) {... */\n      iszero\n      tag_152\n      jumpi\n        /* \"Evm/zk/balance_verifier.sol\":14265:14279  ProofInvalid() */\n      mload(0x40)\n      0x7fcdd1f400000000000000000000000000000000000000000000000000000000\n      dup2\n      mstore\n      0x04\n      add\n      mload(0x40)\n      dup1\n      swap2\n      sub\n      swap1\n      revert\n        /* \"Evm/zk/balance_verifier.sol\":14158:14291  if (x0 >= P || x1 >= P || y0 >= P || y1 >= P) {... */\n    tag_152:\n        /* \"Evm/zk/balance_verifier.sol\":14328:14329  0 */\n      0x00\n        /* \"Evm/zk/balance_verifier.sol\":14321:14323  y1 */\n      dup4\n        /* \"Evm/zk/balance_verifier.sol\":14316:14318  y0 */\n      dup6\n        /* \"Evm/zk/balance_verifier.sol\":14311:14313  x1 */\n      dup8\n        /* \"Evm/zk/balance_verifier.sol\":14306:14308  x0 */\n      dup10\n        /* \"Evm/zk/balance_verifier.sol\":14306:14313  x0 | x1 */\n      or\n        /* \"Evm/zk/balance_verifier.sol\":14306:14318  x0 | x1 | y0 */\n      or\n        /* \"Evm/zk/balance_verifier.sol\":14306:14323  x0 | x1 | y0 | y1 */\n      or\n        /* \"Evm/zk/balance_verifier.sol\":14305:14329  (x0 | x1 | y0 | y1) == 0 */\n      sub\n        /* \"Evm/zk/balance_verifier.sol\":14301:14405  if ((x0 | x1 | y0 | y1) == 0) {... */\n      tag_153\n      jumpi\n        /* \"Evm/zk/balance_verifier.sol\":14388:14389  0 */\n      0x00\n        /* \"Evm/zk/balance_verifier.sol\":14391:14392  0 */\n      0x00\n        /* \"Evm/zk/balance_verifier.sol\":14380:14393  return (0, 0) */\n      swap2\n      pop\n      swap2\n      pop\n      jump(tag_148)\n        /* \"Evm/zk/balance_verifier.sol\":14301:14405  if ((x0 | x1 | y0 | y1) == 0) {... */\n    tag_153:\n        /* \"Evm/zk/balance_verifier.sol\":14515:14529  uint256 y0_pos */\n      0x00\n        /* \"Evm/zk/balance_verifier.sol\":14540:14554  uint256 y1_pos */\n      0x00\n        /* \"Evm/zk/balance_verifier.sol\":14580:14592  uint256 n3ab */\n      0x00\n        /* \"Evm/zk/balance_verifier.sol\":1423:1489  0x30644e72e131a029b85045b68181585d97816a916871ca8d3c208c16d87cfd47 */\n      0x30644e72e131a029b85045b68181585d97816a916871ca8d3c208c16d87cfd47\n        /* \"Evm/zk/balance_verifier.sol\":14595:14628  mulmod(mulmod(x0, x1, P), P-3, P) */\n      dup1\n      tag_154\n      jumpi\n      tag_155\n      tag_136\n      jump\t// in\n    tag_155:\n    tag_154:\n        /* \"Evm/zk/balance_verifier.sol\":14623:14624  3 */\n      0x03\n        /* \"Evm/zk/balance_verifier.sol\":1423:1489  0x30644e72e131a029b85045b68181585d97816a916871ca8d3c208c16d87cfd47 */\n      0x30644e72e131a029b85045b68181585d97816a916871ca8d3c208c16d87cfd47\n        /* \"Evm/zk/balance_verifier.sol\":14621:14624  P-3 */\n      tag_156\n      swap2\n      swap1\n      tag_157\n      jump\t// in\n    tag_156:\n        /* \"Evm/zk/balance_verifier.sol\":1423:1489  0x30644e72e131a029b85045b68181585d97816a916871ca8d3c208c16d87cfd47 */\n      0x30644e72e131a029b85045b68181585d97816a916871ca8d3c208c16d87cfd47\n        /* \"Evm/zk/balance_verifier.sol\":14602:14619  mulmod(x0, x1, P) */\n      dup1\n      tag_158\n      jumpi\n      tag_159\n      tag_136\n      jump\t// in\n    tag_159:\n    tag_158:\n        /* \"Evm/zk/balance_verifier.sol\":14613:14615  x1 */\n      dup11\n        /* \"Evm/zk/balance_verifier.sol\":14609:14611  x0 */\n      dup13\n        /* \"Evm/zk/balance_verifier.sol\":14602:14619  mulmod(x0, x1, P) */\n      mulmod\n        /* \"Evm/zk/balance_verifier.sol\":14595:14628  mulmod(mulmod(x0, x1, P), P-3, P) */\n      mulmod\n        /* \"Evm/zk/balance_verifier.sol\":14580:14628  uint256 n3ab = mulmod(mulmod(x0, x1, P), P-3, P) */\n      swap1\n      pop\n        /* \"Evm/zk/balance_verifier.sol\":14643:14654  uint256 a_3 */\n      0x00\n        /* \"Evm/zk/balance_verifier.sol\":1423:1489  0x30644e72e131a029b85045b68181585d97816a916871ca8d3c208c16d87cfd47 */\n      0x30644e72e131a029b85045b68181585d97816a916871ca8d3c208c16d87cfd47\n        /* \"Evm/zk/balance_verifier.sol\":14657:14689  mulmod(mulmod(x0, x0, P), x0, P) */\n      dup1\n      tag_160\n      jumpi\n      tag_161\n      tag_136\n      jump\t// in\n    tag_161:\n    tag_160:\n        /* \"Evm/zk/balance_verifier.sol\":14683:14685  x0 */\n      dup11\n        /* \"Evm/zk/balance_verifier.sol\":1423:1489  0x30644e72e131a029b85045b68181585d97816a916871ca8d3c208c16d87cfd47 */\n      0x30644e72e131a029b85045b68181585d97816a916871ca8d3c208c16d87cfd47\n        /* \"Evm/zk/balance_verifier.sol\":14664:14681  mulmod(x0, x0, P) */\n      dup1\n      tag_162\n      jumpi\n      tag_163\n      tag_136\n      jump\t// in\n    tag_163:\n    tag_162:\n        /* \"Evm/zk/balance_verifier.sol\":14675:14677  x0 */\n      dup13\n        /* \"Evm/zk/balance_verifier.sol\":14671:14673  x0 */\n      dup14\n        /* \"Evm/zk/balance_verifier.sol\":14664:14681  mulmod(x0, x0, P) */\n      mulmod\n        /* \"Evm/zk/balance_verifier.sol\":14657:14689  mulmod(mulmod(x0, x0, P), x0, P) */\n      mulmod\n        /* \"Evm/zk/balance_verifier.sol\":14643:14689  uint256 a_3 = mulmod(mulmod(x0, x0, P), x0, P) */\n      swap1\n      pop\n        /* \"Evm/zk/balance_verifier.sol\":14704:14715  uint256 b_3 */\n      0x00\n        /* \"Evm/zk/balance_verifier.sol\":1423:1489  0x30644e72e131a029b85045b68181585d97816a916871ca8d3c208c16d87cfd47 */\n      0x30644e72e131a029b85045b68181585d97816a916871ca8d3c208c16d87cfd47\n        /* \"Evm/zk/balance_verifier.sol\":14718:14750  mulmod(mulmod(x1, x1, P), x1, P) */\n      dup1\n      tag_164\n      jumpi\n      tag_165\n      tag_136\n      jump\t// in\n    tag_165:\n    tag_164:\n        /* \"Evm/zk/balance_verifier.sol\":14744:14746  x1 */\n      dup11\n        /* \"Evm/zk/balance_verifier.sol\":1423:1489  0x30644e72e131a029b85045b68181585d97816a916871ca8d3c208c16d87cfd47 */\n      0x30644e72e131a029b85045b68181585d97816a916871ca8d3c208c16d87cfd47\n        /* \"Evm/zk/balance_verifier.sol\":14725:14742  mulmod(x1, x1, P) */\n      dup1\n      tag_166\n      jumpi\n      tag_167\n      tag_136\n      jump\t// in\n    tag_167:\n    tag_166:\n        /* \"Evm/zk/balance_verifier.sol\":14736:14738  x1 */\n      dup13\n        /* \"Evm/zk/balance_verifier.sol\":14732:14734  x1 */\n      dup14\n        /* \"Evm/zk/balance_verifier.sol\":14725:14742  mulmod(x1, x1, P) */\n      mulmod\n        /* \"Evm/zk/balance_verifier.sol\":14718:14750  mulmod(mulmod(x1, x1, P), x1, P) */\n      mulmod\n        /* \"Evm/zk/balance_verifier.sol\":14704:14750  uint256 b_3 = mulmod(mulmod(x1, x1, P), x1, P) */\n      swap1\n      pop\n        /* \"Evm/zk/balance_verifier.sol\":1423:1489  0x30644e72e131a029b85045b68181585d97816a916871ca8d3c208c16d87cfd47 */\n      0x30644e72e131a029b85045b68181585d97816a916871ca8d3c208c16d87cfd47\n        /* \"Evm/zk/balance_verifier.sol\":14774:14839  addmod(FRACTION_27_82_FP, addmod(a_3, mulmod(n3ab, x1, P), P), P) */\n      dup1\n      tag_168\n      jumpi\n      tag_169\n      tag_136\n      jump\t// in\n    tag_169:\n    tag_168:\n        /* \"Evm/zk/balance_verifier.sol\":1423:1489  0x30644e72e131a029b85045b68181585d97816a916871ca8d3c208c16d87cfd47 */\n      0x30644e72e131a029b85045b68181585d97816a916871ca8d3c208c16d87cfd47\n        /* \"Evm/zk/balance_verifier.sol\":14800:14835  addmod(a_3, mulmod(n3ab, x1, P), P) */\n      dup1\n      tag_170\n      jumpi\n      tag_171\n      tag_136\n      jump\t// in\n    tag_171:\n    tag_170:\n        /* \"Evm/zk/balance_verifier.sol\":1423:1489  0x30644e72e131a029b85045b68181585d97816a916871ca8d3c208c16d87cfd47 */\n      0x30644e72e131a029b85045b68181585d97816a916871ca8d3c208c16d87cfd47\n        /* \"Evm/zk/balance_verifier.sol\":14812:14831  mulmod(n3ab, x1, P) */\n      dup1\n      tag_172\n      jumpi\n      tag_173\n      tag_136\n      jump\t// in\n    tag_173:\n    tag_172:\n        /* \"Evm/zk/balance_verifier.sol\":14825:14827  x1 */\n      dup13\n        /* \"Evm/zk/balance_verifier.sol\":14819:14823  n3ab */\n      dup7\n        /* \"Evm/zk/balance_verifier.sol\":14812:14831  mulmod(n3ab, x1, P) */\n      mulmod\n        /* \"Evm/zk/balance_verifier.sol\":14807:14810  a_3 */\n      dup5\n        /* \"Evm/zk/balance_verifier.sol\":14800:14835  addmod(a_3, mulmod(n3ab, x1, P), P) */\n      addmod\n        /* \"Evm/zk/balance_verifier.sol\":2254:2320  0x2b149d40ceb8aaae81be18991be06ac3b5b4c5e559dbefa33267e6dc24a138e5 */\n      0x2b149d40ceb8aaae81be18991be06ac3b5b4c5e559dbefa33267e6dc24a138e5\n        /* \"Evm/zk/balance_verifier.sol\":14774:14839  addmod(FRACTION_27_82_FP, addmod(a_3, mulmod(n3ab, x1, P), P), P) */\n      addmod\n        /* \"Evm/zk/balance_verifier.sol\":14765:14839  y0_pos = addmod(FRACTION_27_82_FP, addmod(a_3, mulmod(n3ab, x1, P), P), P) */\n      swap5\n      pop\n        /* \"Evm/zk/balance_verifier.sol\":14863:14936  negate(addmod(FRACTION_3_82_FP,  addmod(b_3, mulmod(n3ab, x0, P), P), P)) */\n      tag_174\n        /* \"Evm/zk/balance_verifier.sol\":1423:1489  0x30644e72e131a029b85045b68181585d97816a916871ca8d3c208c16d87cfd47 */\n      0x30644e72e131a029b85045b68181585d97816a916871ca8d3c208c16d87cfd47\n        /* \"Evm/zk/balance_verifier.sol\":14870:14935  addmod(FRACTION_3_82_FP,  addmod(b_3, mulmod(n3ab, x0, P), P), P) */\n      dup1\n      tag_175\n      jumpi\n      tag_176\n      tag_136\n      jump\t// in\n    tag_176:\n    tag_175:\n        /* \"Evm/zk/balance_verifier.sol\":1423:1489  0x30644e72e131a029b85045b68181585d97816a916871ca8d3c208c16d87cfd47 */\n      0x30644e72e131a029b85045b68181585d97816a916871ca8d3c208c16d87cfd47\n        /* \"Evm/zk/balance_verifier.sol\":14896:14931  addmod(b_3, mulmod(n3ab, x0, P), P) */\n      dup1\n      tag_177\n      jumpi\n      tag_178\n      tag_136\n      jump\t// in\n    tag_178:\n    tag_177:\n        /* \"Evm/zk/balance_verifier.sol\":1423:1489  0x30644e72e131a029b85045b68181585d97816a916871ca8d3c208c16d87cfd47 */\n      0x30644e72e131a029b85045b68181585d97816a916871ca8d3c208c16d87cfd47\n        /* \"Evm/zk/balance_verifier.sol\":14908:14927  mulmod(n3ab, x0, P) */\n      dup1\n      tag_179\n      jumpi\n      tag_180\n      tag_136\n      jump\t// in\n    tag_180:\n    tag_179:\n        /* \"Evm/zk/balance_verifier.sol\":14921:14923  x0 */\n      dup15\n        /* \"Evm/zk/balance_verifier.sol\":14915:14919  n3ab */\n      dup8\n        /* \"Evm/zk/balance_verifier.sol\":14908:14927  mulmod(n3ab, x0, P) */\n      mulmod\n        /* \"Evm/zk/balance_verifier.sol\":14903:14906  b_3 */\n      dup5\n        /* \"Evm/zk/balance_verifier.sol\":14896:14931  addmod(b_3, mulmod(n3ab, x0, P), P) */\n      addmod\n        /* \"Evm/zk/balance_verifier.sol\":2363:2429  0x2fcd3ac2a640a154eb23960892a85a68f031ca0c8344b23a577dcf1052b9e775 */\n      0x2fcd3ac2a640a154eb23960892a85a68f031ca0c8344b23a577dcf1052b9e775\n        /* \"Evm/zk/balance_verifier.sol\":14870:14935  addmod(FRACTION_3_82_FP,  addmod(b_3, mulmod(n3ab, x0, P), P), P) */\n      addmod\n        /* \"Evm/zk/balance_verifier.sol\":14863:14869  negate */\n      tag_145\n        /* \"Evm/zk/balance_verifier.sol\":14863:14936  negate(addmod(FRACTION_3_82_FP,  addmod(b_3, mulmod(n3ab, x0, P), P), P)) */\n      jump\t// in\n    tag_174:\n        /* \"Evm/zk/balance_verifier.sol\":14854:14936  y1_pos = negate(addmod(FRACTION_3_82_FP,  addmod(b_3, mulmod(n3ab, x0, P), P), P)) */\n      swap4\n      pop\n        /* \"Evm/zk/balance_verifier.sol\":14565:14948  {... */\n      pop\n      pop\n      pop\n        /* \"Evm/zk/balance_verifier.sol\":15060:15069  bool hint */\n      0x00\n        /* \"Evm/zk/balance_verifier.sol\":15095:15104  uint256 d */\n      0x00\n        /* \"Evm/zk/balance_verifier.sol\":15107:15179  sqrt_Fp(addmod(mulmod(y0_pos, y0_pos, P), mulmod(y1_pos, y1_pos, P), P)) */\n      tag_181\n        /* \"Evm/zk/balance_verifier.sol\":1423:1489  0x30644e72e131a029b85045b68181585d97816a916871ca8d3c208c16d87cfd47 */\n      0x30644e72e131a029b85045b68181585d97816a916871ca8d3c208c16d87cfd47\n        /* \"Evm/zk/balance_verifier.sol\":15115:15178  addmod(mulmod(y0_pos, y0_pos, P), mulmod(y1_pos, y1_pos, P), P) */\n      dup1\n      tag_182\n      jumpi\n      tag_183\n      tag_136\n      jump\t// in\n    tag_183:\n    tag_182:\n        /* \"Evm/zk/balance_verifier.sol\":1423:1489  0x30644e72e131a029b85045b68181585d97816a916871ca8d3c208c16d87cfd47 */\n      0x30644e72e131a029b85045b68181585d97816a916871ca8d3c208c16d87cfd47\n        /* \"Evm/zk/balance_verifier.sol\":15149:15174  mulmod(y1_pos, y1_pos, P) */\n      dup1\n      tag_184\n      jumpi\n      tag_185\n      tag_136\n      jump\t// in\n    tag_185:\n    tag_184:\n        /* \"Evm/zk/balance_verifier.sol\":15164:15170  y1_pos */\n      dup6\n        /* \"Evm/zk/balance_verifier.sol\":15156:15162  y1_pos */\n      dup7\n        /* \"Evm/zk/balance_verifier.sol\":15149:15174  mulmod(y1_pos, y1_pos, P) */\n      mulmod\n        /* \"Evm/zk/balance_verifier.sol\":1423:1489  0x30644e72e131a029b85045b68181585d97816a916871ca8d3c208c16d87cfd47 */\n      0x30644e72e131a029b85045b68181585d97816a916871ca8d3c208c16d87cfd47\n        /* \"Evm/zk/balance_verifier.sol\":15122:15147  mulmod(y0_pos, y0_pos, P) */\n      dup1\n      tag_186\n      jumpi\n      tag_187\n      tag_136\n      jump\t// in\n    tag_187:\n    tag_186:\n        /* \"Evm/zk/balance_verifier.sol\":15137:15143  y0_pos */\n      dup8\n        /* \"Evm/zk/balance_verifier.sol\":15129:15135  y0_pos */\n      dup9\n        /* \"Evm/zk/balance_verifier.sol\":15122:15147  mulmod(y0_pos, y0_pos, P) */\n      mulmod\n        /* \"Evm/zk/balance_verifier.sol\":15115:15178  addmod(mulmod(y0_pos, y0_pos, P), mulmod(y1_pos, y1_pos, P), P) */\n      addmod\n        /* \"Evm/zk/balance_verifier.sol\":15107:15114  sqrt_Fp */\n      tag_141\n        /* \"Evm/zk/balance_verifier.sol\":15107:15179  sqrt_Fp(addmod(mulmod(y0_pos, y0_pos, P), mulmod(y1_pos, y1_pos, P), P)) */\n      jump\t// in\n    tag_181:\n        /* \"Evm/zk/balance_verifier.sol\":15095:15179  uint256 d = sqrt_Fp(addmod(mulmod(y0_pos, y0_pos, P), mulmod(y1_pos, y1_pos, P), P)) */\n      swap1\n      pop\n        /* \"Evm/zk/balance_verifier.sol\":15202:15263  isSquare_Fp(mulmod(addmod(y0_pos, d, P), FRACTION_1_2_FP, P)) */\n      tag_188\n        /* \"Evm/zk/balance_verifier.sol\":1423:1489  0x30644e72e131a029b85045b68181585d97816a916871ca8d3c208c16d87cfd47 */\n      0x30644e72e131a029b85045b68181585d97816a916871ca8d3c208c16d87cfd47\n        /* \"Evm/zk/balance_verifier.sol\":15214:15262  mulmod(addmod(y0_pos, d, P), FRACTION_1_2_FP, P) */\n      dup1\n      tag_189\n      jumpi\n      tag_190\n      tag_136\n      jump\t// in\n    tag_190:\n    tag_189:\n        /* \"Evm/zk/balance_verifier.sol\":2144:2210  0x183227397098d014dc2822db40c0ac2ecbc0b548b438e5469e10460b6c3e7ea4 */\n      0x183227397098d014dc2822db40c0ac2ecbc0b548b438e5469e10460b6c3e7ea4\n        /* \"Evm/zk/balance_verifier.sol\":1423:1489  0x30644e72e131a029b85045b68181585d97816a916871ca8d3c208c16d87cfd47 */\n      0x30644e72e131a029b85045b68181585d97816a916871ca8d3c208c16d87cfd47\n        /* \"Evm/zk/balance_verifier.sol\":15221:15241  addmod(y0_pos, d, P) */\n      dup1\n      tag_191\n      jumpi\n      tag_192\n      tag_136\n      jump\t// in\n    tag_192:\n    tag_191:\n        /* \"Evm/zk/balance_verifier.sol\":15236:15237  d */\n      dup5\n        /* \"Evm/zk/balance_verifier.sol\":15228:15234  y0_pos */\n      dup9\n        /* \"Evm/zk/balance_verifier.sol\":15221:15241  addmod(y0_pos, d, P) */\n      addmod\n        /* \"Evm/zk/balance_verifier.sol\":15214:15262  mulmod(addmod(y0_pos, d, P), FRACTION_1_2_FP, P) */\n      mulmod\n        /* \"Evm/zk/balance_verifier.sol\":15202:15213  isSquare_Fp */\n      tag_193\n        /* \"Evm/zk/balance_verifier.sol\":15202:15263  isSquare_Fp(mulmod(addmod(y0_pos, d, P), FRACTION_1_2_FP, P)) */\n      jump\t// in\n    tag_188:\n        /* \"Evm/zk/balance_verifier.sol\":15201:15263  !isSquare_Fp(mulmod(addmod(y0_pos, d, P), FRACTION_1_2_FP, P)) */\n      iszero\n        /* \"Evm/zk/balance_verifier.sol\":15194:15263  hint = !isSquare_Fp(mulmod(addmod(y0_pos, d, P), FRACTION_1_2_FP, P)) */\n      swap2\n      pop\n        /* \"Evm/zk/balance_verifier.sol\":15080:15275  {... */\n      pop\n        /* \"Evm/zk/balance_verifier.sol\":15328:15358  sqrt_Fp2(y0_pos, y1_pos, hint) */\n      tag_194\n        /* \"Evm/zk/balance_verifier.sol\":15337:15343  y0_pos */\n      dup4\n        /* \"Evm/zk/balance_verifier.sol\":15345:15351  y1_pos */\n      dup4\n        /* \"Evm/zk/balance_verifier.sol\":15353:15357  hint */\n      dup4\n        /* \"Evm/zk/balance_verifier.sol\":15328:15336  sqrt_Fp2 */\n      tag_195\n        /* \"Evm/zk/balance_verifier.sol\":15328:15358  sqrt_Fp2(y0_pos, y1_pos, hint) */\n      jump\t// in\n    tag_194:\n        /* \"Evm/zk/balance_verifier.sol\":15309:15358  (y0_pos, y1_pos) = sqrt_Fp2(y0_pos, y1_pos, hint) */\n      dup1\n      swap4\n      pop\n      dup2\n      swap5\n      pop\n      pop\n      pop\n        /* \"Evm/zk/balance_verifier.sol\":15379:15385  y0_pos */\n      dup3\n        /* \"Evm/zk/balance_verifier.sol\":15373:15375  y0 */\n      dup8\n        /* \"Evm/zk/balance_verifier.sol\":15373:15385  y0 == y0_pos */\n      eq\n        /* \"Evm/zk/balance_verifier.sol\":15373:15401  y0 == y0_pos && y1 == y1_pos */\n      dup1\n      iszero\n      tag_196\n      jumpi\n      pop\n        /* \"Evm/zk/balance_verifier.sol\":15395:15401  y1_pos */\n      dup2\n        /* \"Evm/zk/balance_verifier.sol\":15389:15391  y1 */\n      dup7\n        /* \"Evm/zk/balance_verifier.sol\":15389:15401  y1 == y1_pos */\n      eq\n        /* \"Evm/zk/balance_verifier.sol\":15373:15401  y0 == y0_pos && y1 == y1_pos */\n    tag_196:\n        /* \"Evm/zk/balance_verifier.sol\":15369:15722  if (y0 == y0_pos && y1 == y1_pos) {... */\n      iszero\n      tag_197\n      jumpi\n        /* \"Evm/zk/balance_verifier.sol\":15453:15454  0 */\n      0x00\n        /* \"Evm/zk/balance_verifier.sol\":15436:15440  hint */\n      dup2\n        /* \"Evm/zk/balance_verifier.sol\":15436:15449  hint ? 2  : 0 */\n      tag_198\n      jumpi\n        /* \"Evm/zk/balance_verifier.sol\":15448:15449  0 */\n      0x00\n        /* \"Evm/zk/balance_verifier.sol\":15436:15449  hint ? 2  : 0 */\n      jump(tag_199)\n    tag_198:\n        /* \"Evm/zk/balance_verifier.sol\":15443:15444  2 */\n      0x02\n        /* \"Evm/zk/balance_verifier.sol\":15436:15449  hint ? 2  : 0 */\n    tag_199:\n        /* \"Evm/zk/balance_verifier.sol\":15423:15450  (x0 << 2) | (hint ? 2  : 0) */\n      0xff\n      and\n        /* \"Evm/zk/balance_verifier.sol\":15430:15431  2 */\n      0x02\n        /* \"Evm/zk/balance_verifier.sol\":15424:15426  x0 */\n      dup12\n        /* \"Evm/zk/balance_verifier.sol\":15424:15431  x0 << 2 */\n      swap1\n      shl\n        /* \"Evm/zk/balance_verifier.sol\":15423:15450  (x0 << 2) | (hint ? 2  : 0) */\n      or\n        /* \"Evm/zk/balance_verifier.sol\":15423:15454  (x0 << 2) | (hint ? 2  : 0) | 0 */\n      or\n        /* \"Evm/zk/balance_verifier.sol\":15418:15454  c0 = (x0 << 2) | (hint ? 2  : 0) | 0 */\n      swap5\n      pop\n        /* \"Evm/zk/balance_verifier.sol\":15474:15476  x1 */\n      dup8\n        /* \"Evm/zk/balance_verifier.sol\":15469:15476  c1 = x1 */\n      swap4\n      pop\n        /* \"Evm/zk/balance_verifier.sol\":15369:15722  if (y0 == y0_pos && y1 == y1_pos) {... */\n      jump(tag_200)\n    tag_197:\n        /* \"Evm/zk/balance_verifier.sol\":15504:15518  negate(y0_pos) */\n      tag_201\n        /* \"Evm/zk/balance_verifier.sol\":15511:15517  y0_pos */\n      dup4\n        /* \"Evm/zk/balance_verifier.sol\":15504:15510  negate */\n      tag_145\n        /* \"Evm/zk/balance_verifier.sol\":15504:15518  negate(y0_pos) */\n      jump\t// in\n    tag_201:\n        /* \"Evm/zk/balance_verifier.sol\":15498:15500  y0 */\n      dup8\n        /* \"Evm/zk/balance_verifier.sol\":15498:15518  y0 == negate(y0_pos) */\n      eq\n        /* \"Evm/zk/balance_verifier.sol\":15498:15542  y0 == negate(y0_pos) && y1 == negate(y1_pos) */\n      dup1\n      iszero\n      tag_202\n      jumpi\n      pop\n        /* \"Evm/zk/balance_verifier.sol\":15528:15542  negate(y1_pos) */\n      tag_203\n        /* \"Evm/zk/balance_verifier.sol\":15535:15541  y1_pos */\n      dup3\n        /* \"Evm/zk/balance_verifier.sol\":15528:15534  negate */\n      tag_145\n        /* \"Evm/zk/balance_verifier.sol\":15528:15542  negate(y1_pos) */\n      jump\t// in\n    tag_203:\n        /* \"Evm/zk/balance_verifier.sol\":15522:15524  y1 */\n      dup7\n        /* \"Evm/zk/balance_verifier.sol\":15522:15542  y1 == negate(y1_pos) */\n      eq\n        /* \"Evm/zk/balance_verifier.sol\":15498:15542  y0 == negate(y0_pos) && y1 == negate(y1_pos) */\n    tag_202:\n        /* \"Evm/zk/balance_verifier.sol\":15494:15722  if (y0 == negate(y0_pos) && y1 == negate(y1_pos)) {... */\n      iszero\n      tag_204\n      jumpi\n        /* \"Evm/zk/balance_verifier.sol\":15594:15595  1 */\n      0x01\n        /* \"Evm/zk/balance_verifier.sol\":15577:15581  hint */\n      dup2\n        /* \"Evm/zk/balance_verifier.sol\":15577:15590  hint ? 2  : 0 */\n      tag_205\n      jumpi\n        /* \"Evm/zk/balance_verifier.sol\":15589:15590  0 */\n      0x00\n        /* \"Evm/zk/balance_verifier.sol\":15577:15590  hint ? 2  : 0 */\n      jump(tag_206)\n    tag_205:\n        /* \"Evm/zk/balance_verifier.sol\":15584:15585  2 */\n      0x02\n        /* \"Evm/zk/balance_verifier.sol\":15577:15590  hint ? 2  : 0 */\n    tag_206:\n        /* \"Evm/zk/balance_verifier.sol\":15564:15591  (x0 << 2) | (hint ? 2  : 0) */\n      0xff\n      and\n        /* \"Evm/zk/balance_verifier.sol\":15571:15572  2 */\n      0x02\n        /* \"Evm/zk/balance_verifier.sol\":15565:15567  x0 */\n      dup12\n        /* \"Evm/zk/balance_verifier.sol\":15565:15572  x0 << 2 */\n      swap1\n      shl\n        /* \"Evm/zk/balance_verifier.sol\":15564:15591  (x0 << 2) | (hint ? 2  : 0) */\n      or\n        /* \"Evm/zk/balance_verifier.sol\":15564:15595  (x0 << 2) | (hint ? 2  : 0) | 1 */\n      or\n        /* \"Evm/zk/balance_verifier.sol\":15559:15595  c0 = (x0 << 2) | (hint ? 2  : 0) | 1 */\n      swap5\n      pop\n        /* \"Evm/zk/balance_verifier.sol\":15615:15617  x1 */\n      dup8\n        /* \"Evm/zk/balance_verifier.sol\":15610:15617  c1 = x1 */\n      swap4\n      pop\n        /* \"Evm/zk/balance_verifier.sol\":15494:15722  if (y0 == negate(y0_pos) && y1 == negate(y1_pos)) {... */\n      jump(tag_207)\n    tag_204:\n        /* \"Evm/zk/balance_verifier.sol\":15696:15710  ProofInvalid() */\n      mload(0x40)\n      0x7fcdd1f400000000000000000000000000000000000000000000000000000000\n      dup2\n      mstore\n      0x04\n      add\n      mload(0x40)\n      dup1\n      swap2\n      sub\n      swap1\n      revert\n        /* \"Evm/zk/balance_verifier.sol\":15494:15722  if (y0 == negate(y0_pos) && y1 == negate(y1_pos)) {... */\n    tag_207:\n        /* \"Evm/zk/balance_verifier.sol\":15369:15722  if (y0 == y0_pos && y1 == y1_pos) {... */\n    tag_200:\n        /* \"Evm/zk/balance_verifier.sol\":14147:15729  {... */\n      pop\n      pop\n      pop\n        /* \"Evm/zk/balance_verifier.sol\":14026:15729  function compress_g2(uint256 x0, uint256 x1, uint256 y0, uint256 y1)... */\n    tag_148:\n      swap5\n      pop\n      swap5\n      swap3\n      pop\n      pop\n      pop\n      jump\t// out\n        /* \"Evm/zk/balance_verifier.sol\":12347:13244  function decompress_g1(uint256 c) internal view returns (uint256 x, uint256 y) {... */\n    tag_59:\n        /* \"Evm/zk/balance_verifier.sol\":12404:12413  uint256 x */\n      0x00\n        /* \"Evm/zk/balance_verifier.sol\":12415:12424  uint256 y */\n      0x00\n        /* \"Evm/zk/balance_verifier.sol\":12594:12595  0 */\n      0x00\n        /* \"Evm/zk/balance_verifier.sol\":12589:12590  c */\n      dup4\n        /* \"Evm/zk/balance_verifier.sol\":12589:12595  c == 0 */\n      sub\n        /* \"Evm/zk/balance_verifier.sol\":12585:12704  if (c == 0) {... */\n      tag_209\n      jumpi\n        /* \"Evm/zk/balance_verifier.sol\":12687:12688  0 */\n      0x00\n        /* \"Evm/zk/balance_verifier.sol\":12690:12691  0 */\n      0x00\n        /* \"Evm/zk/balance_verifier.sol\":12679:12692  return (0, 0) */\n      swap2\n      pop\n      swap2\n      pop\n      jump(tag_208)\n        /* \"Evm/zk/balance_verifier.sol\":12585:12704  if (c == 0) {... */\n    tag_209:\n        /* \"Evm/zk/balance_verifier.sol\":12714:12731  bool negate_point */\n      0x00\n        /* \"Evm/zk/balance_verifier.sol\":12743:12744  1 */\n      0x01\n        /* \"Evm/zk/balance_verifier.sol\":12738:12739  1 */\n      dup1\n        /* \"Evm/zk/balance_verifier.sol\":12734:12735  c */\n      dup6\n        /* \"Evm/zk/balance_verifier.sol\":12734:12739  c & 1 */\n      and\n        /* \"Evm/zk/balance_verifier.sol\":12734:12744  c & 1 == 1 */\n      eq\n        /* \"Evm/zk/balance_verifier.sol\":12714:12744  bool negate_point = c & 1 == 1 */\n      swap1\n      pop\n        /* \"Evm/zk/balance_verifier.sol\":12764:12765  1 */\n      0x01\n        /* \"Evm/zk/balance_verifier.sol\":12759:12760  c */\n      dup5\n        /* \"Evm/zk/balance_verifier.sol\":12759:12765  c >> 1 */\n      swap1\n      shr\n        /* \"Evm/zk/balance_verifier.sol\":12755:12765  x = c >> 1 */\n      swap3\n      pop\n        /* \"Evm/zk/balance_verifier.sol\":1423:1489  0x30644e72e131a029b85045b68181585d97816a916871ca8d3c208c16d87cfd47 */\n      0x30644e72e131a029b85045b68181585d97816a916871ca8d3c208c16d87cfd47\n        /* \"Evm/zk/balance_verifier.sol\":12780:12781  x */\n      dup4\n        /* \"Evm/zk/balance_verifier.sol\":12780:12786  x >= P */\n      lt\n        /* \"Evm/zk/balance_verifier.sol\":12776:12882  if (x >= P) {... */\n      tag_210\n      jumpi\n        /* \"Evm/zk/balance_verifier.sol\":12856:12870  ProofInvalid() */\n      mload(0x40)\n      0x7fcdd1f400000000000000000000000000000000000000000000000000000000\n      dup2\n      mstore\n      0x04\n      add\n      mload(0x40)\n      dup1\n      swap2\n      sub\n      swap1\n      revert\n        /* \"Evm/zk/balance_verifier.sol\":12776:12882  if (x >= P) {... */\n    tag_210:\n        /* \"Evm/zk/balance_verifier.sol\":13116:13168  sqrt_Fp(addmod(mulmod(mulmod(x, x, P), x, P), 3, P)) */\n      tag_211\n        /* \"Evm/zk/balance_verifier.sol\":1423:1489  0x30644e72e131a029b85045b68181585d97816a916871ca8d3c208c16d87cfd47 */\n      0x30644e72e131a029b85045b68181585d97816a916871ca8d3c208c16d87cfd47\n        /* \"Evm/zk/balance_verifier.sol\":13124:13167  addmod(mulmod(mulmod(x, x, P), x, P), 3, P) */\n      dup1\n      tag_212\n      jumpi\n      tag_213\n      tag_136\n      jump\t// in\n    tag_213:\n    tag_212:\n        /* \"Evm/zk/balance_verifier.sol\":13162:13163  3 */\n      0x03\n        /* \"Evm/zk/balance_verifier.sol\":1423:1489  0x30644e72e131a029b85045b68181585d97816a916871ca8d3c208c16d87cfd47 */\n      0x30644e72e131a029b85045b68181585d97816a916871ca8d3c208c16d87cfd47\n        /* \"Evm/zk/balance_verifier.sol\":13131:13160  mulmod(mulmod(x, x, P), x, P) */\n      dup1\n      tag_214\n      jumpi\n      tag_215\n      tag_136\n      jump\t// in\n    tag_215:\n    tag_214:\n        /* \"Evm/zk/balance_verifier.sol\":13155:13156  x */\n      dup7\n        /* \"Evm/zk/balance_verifier.sol\":1423:1489  0x30644e72e131a029b85045b68181585d97816a916871ca8d3c208c16d87cfd47 */\n      0x30644e72e131a029b85045b68181585d97816a916871ca8d3c208c16d87cfd47\n        /* \"Evm/zk/balance_verifier.sol\":13138:13153  mulmod(x, x, P) */\n      dup1\n      tag_216\n      jumpi\n      tag_217\n      tag_136\n      jump\t// in\n    tag_217:\n    tag_216:\n        /* \"Evm/zk/balance_verifier.sol\":13148:13149  x */\n      dup9\n        /* \"Evm/zk/balance_verifier.sol\":13145:13146  x */\n      dup10\n        /* \"Evm/zk/balance_verifier.sol\":13138:13153  mulmod(x, x, P) */\n      mulmod\n        /* \"Evm/zk/balance_verifier.sol\":13131:13160  mulmod(mulmod(x, x, P), x, P) */\n      mulmod\n        /* \"Evm/zk/balance_verifier.sol\":13124:13167  addmod(mulmod(mulmod(x, x, P), x, P), 3, P) */\n      addmod\n        /* \"Evm/zk/balance_verifier.sol\":13116:13123  sqrt_Fp */\n      tag_141\n        /* \"Evm/zk/balance_verifier.sol\":13116:13168  sqrt_Fp(addmod(mulmod(mulmod(x, x, P), x, P), 3, P)) */\n      jump\t// in\n    tag_211:\n        /* \"Evm/zk/balance_verifier.sol\":13112:13168  y = sqrt_Fp(addmod(mulmod(mulmod(x, x, P), x, P), 3, P)) */\n      swap2\n      pop\n        /* \"Evm/zk/balance_verifier.sol\":13183:13195  negate_point */\n      dup1\n        /* \"Evm/zk/balance_verifier.sol\":13179:13237  if (negate_point) {... */\n      iszero\n      tag_218\n      jumpi\n        /* \"Evm/zk/balance_verifier.sol\":13216:13225  negate(y) */\n      tag_219\n        /* \"Evm/zk/balance_verifier.sol\":13223:13224  y */\n      dup3\n        /* \"Evm/zk/balance_verifier.sol\":13216:13222  negate */\n      tag_145\n        /* \"Evm/zk/balance_verifier.sol\":13216:13225  negate(y) */\n      jump\t// in\n    tag_219:\n        /* \"Evm/zk/balance_verifier.sol\":13212:13225  y = negate(y) */\n      swap2\n      pop\n        /* \"Evm/zk/balance_verifier.sol\":13179:13237  if (negate_point) {... */\n    tag_218:\n        /* \"Evm/zk/balance_verifier.sol\":12426:13244  {... */\n      pop\n        /* \"Evm/zk/balance_verifier.sol\":12347:13244  function decompress_g1(uint256 c) internal view returns (uint256 x, uint256 y) {... */\n    tag_208:\n      swap2\n      pop\n      swap2\n      jump\t// out\n        /* \"Evm/zk/balance_verifier.sol\":16480:17891  function decompress_g2(uint256 c0, uint256 c1)... */\n    tag_65:\n        /* \"Evm/zk/balance_verifier.sol\":16555:16565  uint256 x0 */\n      0x00\n        /* \"Evm/zk/balance_verifier.sol\":16567:16577  uint256 x1 */\n      0x00\n        /* \"Evm/zk/balance_verifier.sol\":16579:16589  uint256 y0 */\n      0x00\n        /* \"Evm/zk/balance_verifier.sol\":16591:16601  uint256 y1 */\n      0x00\n        /* \"Evm/zk/balance_verifier.sol\":16781:16782  0 */\n      0x00\n        /* \"Evm/zk/balance_verifier.sol\":16775:16777  c0 */\n      dup7\n        /* \"Evm/zk/balance_verifier.sol\":16775:16782  c0 == 0 */\n      eq\n        /* \"Evm/zk/balance_verifier.sol\":16775:16793  c0 == 0 && c1 == 0 */\n      dup1\n      iszero\n      tag_221\n      jumpi\n      pop\n        /* \"Evm/zk/balance_verifier.sol\":16792:16793  0 */\n      0x00\n        /* \"Evm/zk/balance_verifier.sol\":16786:16788  c1 */\n      dup6\n        /* \"Evm/zk/balance_verifier.sol\":16786:16793  c1 == 0 */\n      eq\n        /* \"Evm/zk/balance_verifier.sol\":16775:16793  c0 == 0 && c1 == 0 */\n    tag_221:\n        /* \"Evm/zk/balance_verifier.sol\":16771:16897  if (c0 == 0 && c1 == 0) {... */\n      iszero\n      tag_222\n      jumpi\n        /* \"Evm/zk/balance_verifier.sol\":16874:16875  0 */\n      0x00\n        /* \"Evm/zk/balance_verifier.sol\":16877:16878  0 */\n      0x00\n        /* \"Evm/zk/balance_verifier.sol\":16880:16881  0 */\n      0x00\n        /* \"Evm/zk/balance_verifier.sol\":16883:16884  0 */\n      0x00\n        /* \"Evm/zk/balance_verifier.sol\":16866:16885  return (0, 0, 0, 0) */\n      swap4\n      pop\n      swap4\n      pop\n      swap4\n      pop\n      swap4\n      pop\n      jump(tag_220)\n        /* \"Evm/zk/balance_verifier.sol\":16771:16897  if (c0 == 0 && c1 == 0) {... */\n    tag_222:\n        /* \"Evm/zk/balance_verifier.sol\":16907:16924  bool negate_point */\n      0x00\n        /* \"Evm/zk/balance_verifier.sol\":16937:16938  1 */\n      0x01\n        /* \"Evm/zk/balance_verifier.sol\":16932:16933  1 */\n      dup1\n        /* \"Evm/zk/balance_verifier.sol\":16927:16929  c0 */\n      dup9\n        /* \"Evm/zk/balance_verifier.sol\":16927:16933  c0 & 1 */\n      and\n        /* \"Evm/zk/balance_verifier.sol\":16927:16938  c0 & 1 == 1 */\n      eq\n        /* \"Evm/zk/balance_verifier.sol\":16907:16938  bool negate_point = c0 & 1 == 1 */\n      swap1\n      pop\n        /* \"Evm/zk/balance_verifier.sol\":16949:16958  bool hint */\n      0x00\n        /* \"Evm/zk/balance_verifier.sol\":16971:16972  2 */\n      0x02\n        /* \"Evm/zk/balance_verifier.sol\":16966:16967  2 */\n      dup1\n        /* \"Evm/zk/balance_verifier.sol\":16961:16963  c0 */\n      dup10\n        /* \"Evm/zk/balance_verifier.sol\":16961:16967  c0 & 2 */\n      and\n        /* \"Evm/zk/balance_verifier.sol\":16961:16972  c0 & 2 == 2 */\n      eq\n        /* \"Evm/zk/balance_verifier.sol\":16949:16972  bool hint = c0 & 2 == 2 */\n      swap1\n      pop\n        /* \"Evm/zk/balance_verifier.sol\":16994:16995  2 */\n      0x02\n        /* \"Evm/zk/balance_verifier.sol\":16988:16990  c0 */\n      dup9\n        /* \"Evm/zk/balance_verifier.sol\":16988:16995  c0 >> 2 */\n      swap1\n      shr\n        /* \"Evm/zk/balance_verifier.sol\":16983:16995  x0 = c0 >> 2 */\n      swap6\n      pop\n        /* \"Evm/zk/balance_verifier.sol\":17011:17013  c1 */\n      dup7\n        /* \"Evm/zk/balance_verifier.sol\":17006:17013  x1 = c1 */\n      swap5\n      pop\n        /* \"Evm/zk/balance_verifier.sol\":1423:1489  0x30644e72e131a029b85045b68181585d97816a916871ca8d3c208c16d87cfd47 */\n      0x30644e72e131a029b85045b68181585d97816a916871ca8d3c208c16d87cfd47\n        /* \"Evm/zk/balance_verifier.sol\":17028:17030  x0 */\n      dup7\n        /* \"Evm/zk/balance_verifier.sol\":17028:17035  x0 >= P */\n      lt\n      iszero\n        /* \"Evm/zk/balance_verifier.sol\":17028:17046  x0 >= P || x1 >= P */\n      dup1\n      tag_223\n      jumpi\n      pop\n        /* \"Evm/zk/balance_verifier.sol\":1423:1489  0x30644e72e131a029b85045b68181585d97816a916871ca8d3c208c16d87cfd47 */\n      0x30644e72e131a029b85045b68181585d97816a916871ca8d3c208c16d87cfd47\n        /* \"Evm/zk/balance_verifier.sol\":17039:17041  x1 */\n      dup6\n        /* \"Evm/zk/balance_verifier.sol\":17039:17046  x1 >= P */\n      lt\n      iszero\n        /* \"Evm/zk/balance_verifier.sol\":17028:17046  x0 >= P || x1 >= P */\n    tag_223:\n        /* \"Evm/zk/balance_verifier.sol\":17024:17150  if (x0 >= P || x1 >= P) {... */\n      iszero\n      tag_224\n      jumpi\n        /* \"Evm/zk/balance_verifier.sol\":17124:17138  ProofInvalid() */\n      mload(0x40)\n      0x7fcdd1f400000000000000000000000000000000000000000000000000000000\n      dup2\n      mstore\n      0x04\n      add\n      mload(0x40)\n      dup1\n      swap2\n      sub\n      swap1\n      revert\n        /* \"Evm/zk/balance_verifier.sol\":17024:17150  if (x0 >= P || x1 >= P) {... */\n    tag_224:\n        /* \"Evm/zk/balance_verifier.sol\":17162:17174  uint256 n3ab */\n      0x00\n        /* \"Evm/zk/balance_verifier.sol\":1423:1489  0x30644e72e131a029b85045b68181585d97816a916871ca8d3c208c16d87cfd47 */\n      0x30644e72e131a029b85045b68181585d97816a916871ca8d3c208c16d87cfd47\n        /* \"Evm/zk/balance_verifier.sol\":17177:17210  mulmod(mulmod(x0, x1, P), P-3, P) */\n      dup1\n      tag_225\n      jumpi\n      tag_226\n      tag_136\n      jump\t// in\n    tag_226:\n    tag_225:\n        /* \"Evm/zk/balance_verifier.sol\":17205:17206  3 */\n      0x03\n        /* \"Evm/zk/balance_verifier.sol\":1423:1489  0x30644e72e131a029b85045b68181585d97816a916871ca8d3c208c16d87cfd47 */\n      0x30644e72e131a029b85045b68181585d97816a916871ca8d3c208c16d87cfd47\n        /* \"Evm/zk/balance_verifier.sol\":17203:17206  P-3 */\n      tag_227\n      swap2\n      swap1\n      tag_157\n      jump\t// in\n    tag_227:\n        /* \"Evm/zk/balance_verifier.sol\":1423:1489  0x30644e72e131a029b85045b68181585d97816a916871ca8d3c208c16d87cfd47 */\n      0x30644e72e131a029b85045b68181585d97816a916871ca8d3c208c16d87cfd47\n        /* \"Evm/zk/balance_verifier.sol\":17184:17201  mulmod(x0, x1, P) */\n      dup1\n      tag_228\n      jumpi\n      tag_229\n      tag_136\n      jump\t// in\n    tag_229:\n    tag_228:\n        /* \"Evm/zk/balance_verifier.sol\":17195:17197  x1 */\n      dup9\n        /* \"Evm/zk/balance_verifier.sol\":17191:17193  x0 */\n      dup11\n        /* \"Evm/zk/balance_verifier.sol\":17184:17201  mulmod(x0, x1, P) */\n      mulmod\n        /* \"Evm/zk/balance_verifier.sol\":17177:17210  mulmod(mulmod(x0, x1, P), P-3, P) */\n      mulmod\n        /* \"Evm/zk/balance_verifier.sol\":17162:17210  uint256 n3ab = mulmod(mulmod(x0, x1, P), P-3, P) */\n      swap1\n      pop\n        /* \"Evm/zk/balance_verifier.sol\":17221:17232  uint256 a_3 */\n      0x00\n        /* \"Evm/zk/balance_verifier.sol\":1423:1489  0x30644e72e131a029b85045b68181585d97816a916871ca8d3c208c16d87cfd47 */\n      0x30644e72e131a029b85045b68181585d97816a916871ca8d3c208c16d87cfd47\n        /* \"Evm/zk/balance_verifier.sol\":17235:17267  mulmod(mulmod(x0, x0, P), x0, P) */\n      dup1\n      tag_230\n      jumpi\n      tag_231\n      tag_136\n      jump\t// in\n    tag_231:\n    tag_230:\n        /* \"Evm/zk/balance_verifier.sol\":17261:17263  x0 */\n      dup9\n        /* \"Evm/zk/balance_verifier.sol\":1423:1489  0x30644e72e131a029b85045b68181585d97816a916871ca8d3c208c16d87cfd47 */\n      0x30644e72e131a029b85045b68181585d97816a916871ca8d3c208c16d87cfd47\n        /* \"Evm/zk/balance_verifier.sol\":17242:17259  mulmod(x0, x0, P) */\n      dup1\n      tag_232\n      jumpi\n      tag_233\n      tag_136\n      jump\t// in\n    tag_233:\n    tag_232:\n        /* \"Evm/zk/balance_verifier.sol\":17253:17255  x0 */\n      dup11\n        /* \"Evm/zk/balance_verifier.sol\":17249:17251  x0 */\n      dup12\n        /* \"Evm/zk/balance_verifier.sol\":17242:17259  mulmod(x0, x0, P) */\n      mulmod\n        /* \"Evm/zk/balance_verifier.sol\":17235:17267  mulmod(mulmod(x0, x0, P), x0, P) */\n      mulmod\n        /* \"Evm/zk/balance_verifier.sol\":17221:17267  uint256 a_3 = mulmod(mulmod(x0, x0, P), x0, P) */\n      swap1\n      pop\n        /* \"Evm/zk/balance_verifier.sol\":17278:17289  uint256 b_3 */\n      0x00\n        /* \"Evm/zk/balance_verifier.sol\":1423:1489  0x30644e72e131a029b85045b68181585d97816a916871ca8d3c208c16d87cfd47 */\n      0x30644e72e131a029b85045b68181585d97816a916871ca8d3c208c16d87cfd47\n        /* \"Evm/zk/balance_verifier.sol\":17292:17324  mulmod(mulmod(x1, x1, P), x1, P) */\n      dup1\n      tag_234\n      jumpi\n      tag_235\n      tag_136\n      jump\t// in\n    tag_235:\n    tag_234:\n        /* \"Evm/zk/balance_verifier.sol\":17318:17320  x1 */\n      dup9\n        /* \"Evm/zk/balance_verifier.sol\":1423:1489  0x30644e72e131a029b85045b68181585d97816a916871ca8d3c208c16d87cfd47 */\n      0x30644e72e131a029b85045b68181585d97816a916871ca8d3c208c16d87cfd47\n        /* \"Evm/zk/balance_verifier.sol\":17299:17316  mulmod(x1, x1, P) */\n      dup1\n      tag_236\n      jumpi\n      tag_237\n      tag_136\n      jump\t// in\n    tag_237:\n    tag_236:\n        /* \"Evm/zk/balance_verifier.sol\":17310:17312  x1 */\n      dup11\n        /* \"Evm/zk/balance_verifier.sol\":17306:17308  x1 */\n      dup12\n        /* \"Evm/zk/balance_verifier.sol\":17299:17316  mulmod(x1, x1, P) */\n      mulmod\n        /* \"Evm/zk/balance_verifier.sol\":17292:17324  mulmod(mulmod(x1, x1, P), x1, P) */\n      mulmod\n        /* \"Evm/zk/balance_verifier.sol\":17278:17324  uint256 b_3 = mulmod(mulmod(x1, x1, P), x1, P) */\n      swap1\n      pop\n        /* \"Evm/zk/balance_verifier.sol\":1423:1489  0x30644e72e131a029b85045b68181585d97816a916871ca8d3c208c16d87cfd47 */\n      0x30644e72e131a029b85045b68181585d97816a916871ca8d3c208c16d87cfd47\n        /* \"Evm/zk/balance_verifier.sol\":17342:17407  addmod(FRACTION_27_82_FP, addmod(a_3, mulmod(n3ab, x1, P), P), P) */\n      dup1\n      tag_238\n      jumpi\n      tag_239\n      tag_136\n      jump\t// in\n    tag_239:\n    tag_238:\n        /* \"Evm/zk/balance_verifier.sol\":1423:1489  0x30644e72e131a029b85045b68181585d97816a916871ca8d3c208c16d87cfd47 */\n      0x30644e72e131a029b85045b68181585d97816a916871ca8d3c208c16d87cfd47\n        /* \"Evm/zk/balance_verifier.sol\":17368:17403  addmod(a_3, mulmod(n3ab, x1, P), P) */\n      dup1\n      tag_240\n      jumpi\n      tag_241\n      tag_136\n      jump\t// in\n    tag_241:\n    tag_240:\n        /* \"Evm/zk/balance_verifier.sol\":1423:1489  0x30644e72e131a029b85045b68181585d97816a916871ca8d3c208c16d87cfd47 */\n      0x30644e72e131a029b85045b68181585d97816a916871ca8d3c208c16d87cfd47\n        /* \"Evm/zk/balance_verifier.sol\":17380:17399  mulmod(n3ab, x1, P) */\n      dup1\n      tag_242\n      jumpi\n      tag_243\n      tag_136\n      jump\t// in\n    tag_243:\n    tag_242:\n        /* \"Evm/zk/balance_verifier.sol\":17393:17395  x1 */\n      dup11\n        /* \"Evm/zk/balance_verifier.sol\":17387:17391  n3ab */\n      dup7\n        /* \"Evm/zk/balance_verifier.sol\":17380:17399  mulmod(n3ab, x1, P) */\n      mulmod\n        /* \"Evm/zk/balance_verifier.sol\":17375:17378  a_3 */\n      dup5\n        /* \"Evm/zk/balance_verifier.sol\":17368:17403  addmod(a_3, mulmod(n3ab, x1, P), P) */\n      addmod\n        /* \"Evm/zk/balance_verifier.sol\":2254:2320  0x2b149d40ceb8aaae81be18991be06ac3b5b4c5e559dbefa33267e6dc24a138e5 */\n      0x2b149d40ceb8aaae81be18991be06ac3b5b4c5e559dbefa33267e6dc24a138e5\n        /* \"Evm/zk/balance_verifier.sol\":17342:17407  addmod(FRACTION_27_82_FP, addmod(a_3, mulmod(n3ab, x1, P), P), P) */\n      addmod\n        /* \"Evm/zk/balance_verifier.sol\":17337:17407  y0 = addmod(FRACTION_27_82_FP, addmod(a_3, mulmod(n3ab, x1, P), P), P) */\n      swap7\n      pop\n        /* \"Evm/zk/balance_verifier.sol\":17423:17496  negate(addmod(FRACTION_3_82_FP,  addmod(b_3, mulmod(n3ab, x0, P), P), P)) */\n      tag_244\n        /* \"Evm/zk/balance_verifier.sol\":1423:1489  0x30644e72e131a029b85045b68181585d97816a916871ca8d3c208c16d87cfd47 */\n      0x30644e72e131a029b85045b68181585d97816a916871ca8d3c208c16d87cfd47\n        /* \"Evm/zk/balance_verifier.sol\":17430:17495  addmod(FRACTION_3_82_FP,  addmod(b_3, mulmod(n3ab, x0, P), P), P) */\n      dup1\n      tag_245\n      jumpi\n      tag_246\n      tag_136\n      jump\t// in\n    tag_246:\n    tag_245:\n        /* \"Evm/zk/balance_verifier.sol\":1423:1489  0x30644e72e131a029b85045b68181585d97816a916871ca8d3c208c16d87cfd47 */\n      0x30644e72e131a029b85045b68181585d97816a916871ca8d3c208c16d87cfd47\n        /* \"Evm/zk/balance_verifier.sol\":17456:17491  addmod(b_3, mulmod(n3ab, x0, P), P) */\n      dup1\n      tag_247\n      jumpi\n      tag_248\n      tag_136\n      jump\t// in\n    tag_248:\n    tag_247:\n        /* \"Evm/zk/balance_verifier.sol\":1423:1489  0x30644e72e131a029b85045b68181585d97816a916871ca8d3c208c16d87cfd47 */\n      0x30644e72e131a029b85045b68181585d97816a916871ca8d3c208c16d87cfd47\n        /* \"Evm/zk/balance_verifier.sol\":17468:17487  mulmod(n3ab, x0, P) */\n      dup1\n      tag_249\n      jumpi\n      tag_250\n      tag_136\n      jump\t// in\n    tag_250:\n    tag_249:\n        /* \"Evm/zk/balance_verifier.sol\":17481:17483  x0 */\n      dup13\n        /* \"Evm/zk/balance_verifier.sol\":17475:17479  n3ab */\n      dup8\n        /* \"Evm/zk/balance_verifier.sol\":17468:17487  mulmod(n3ab, x0, P) */\n      mulmod\n        /* \"Evm/zk/balance_verifier.sol\":17463:17466  b_3 */\n      dup5\n        /* \"Evm/zk/balance_verifier.sol\":17456:17491  addmod(b_3, mulmod(n3ab, x0, P), P) */\n      addmod\n        /* \"Evm/zk/balance_verifier.sol\":2363:2429  0x2fcd3ac2a640a154eb23960892a85a68f031ca0c8344b23a577dcf1052b9e775 */\n      0x2fcd3ac2a640a154eb23960892a85a68f031ca0c8344b23a577dcf1052b9e775\n        /* \"Evm/zk/balance_verifier.sol\":17430:17495  addmod(FRACTION_3_82_FP,  addmod(b_3, mulmod(n3ab, x0, P), P), P) */\n      addmod\n        /* \"Evm/zk/balance_verifier.sol\":17423:17429  negate */\n      tag_145\n        /* \"Evm/zk/balance_verifier.sol\":17423:17496  negate(addmod(FRACTION_3_82_FP,  addmod(b_3, mulmod(n3ab, x0, P), P), P)) */\n      jump\t// in\n    tag_244:\n        /* \"Evm/zk/balance_verifier.sol\":17418:17496  y1 = negate(addmod(FRACTION_3_82_FP,  addmod(b_3, mulmod(n3ab, x0, P), P), P)) */\n      swap6\n      pop\n        /* \"Evm/zk/balance_verifier.sol\":17761:17783  sqrt_Fp2(y0, y1, hint) */\n      tag_251\n        /* \"Evm/zk/balance_verifier.sol\":17770:17772  y0 */\n      dup8\n        /* \"Evm/zk/balance_verifier.sol\":17774:17776  y1 */\n      dup8\n        /* \"Evm/zk/balance_verifier.sol\":17778:17782  hint */\n      dup7\n        /* \"Evm/zk/balance_verifier.sol\":17761:17769  sqrt_Fp2 */\n      tag_195\n        /* \"Evm/zk/balance_verifier.sol\":17761:17783  sqrt_Fp2(y0, y1, hint) */\n      jump\t// in\n    tag_251:\n        /* \"Evm/zk/balance_verifier.sol\":17750:17783  (y0, y1) = sqrt_Fp2(y0, y1, hint) */\n      dup1\n      swap8\n      pop\n      dup2\n      swap9\n      pop\n      pop\n      pop\n        /* \"Evm/zk/balance_verifier.sol\":17798:17810  negate_point */\n      dup5\n        /* \"Evm/zk/balance_verifier.sol\":17794:17884  if (negate_point) {... */\n      iszero\n      tag_252\n      jumpi\n        /* \"Evm/zk/balance_verifier.sol\":17832:17842  negate(y0) */\n      tag_253\n        /* \"Evm/zk/balance_verifier.sol\":17839:17841  y0 */\n      dup8\n        /* \"Evm/zk/balance_verifier.sol\":17832:17838  negate */\n      tag_145\n        /* \"Evm/zk/balance_verifier.sol\":17832:17842  negate(y0) */\n      jump\t// in\n    tag_253:\n        /* \"Evm/zk/balance_verifier.sol\":17827:17842  y0 = negate(y0) */\n      swap7\n      pop\n        /* \"Evm/zk/balance_verifier.sol\":17862:17872  negate(y1) */\n      tag_254\n        /* \"Evm/zk/balance_verifier.sol\":17869:17871  y1 */\n      dup7\n        /* \"Evm/zk/balance_verifier.sol\":17862:17868  negate */\n      tag_145\n        /* \"Evm/zk/balance_verifier.sol\":17862:17872  negate(y1) */\n      jump\t// in\n    tag_254:\n        /* \"Evm/zk/balance_verifier.sol\":17857:17872  y1 = negate(y1) */\n      swap6\n      pop\n        /* \"Evm/zk/balance_verifier.sol\":17794:17884  if (negate_point) {... */\n    tag_252:\n        /* \"Evm/zk/balance_verifier.sol\":16603:17891  {... */\n      pop\n      pop\n      pop\n      pop\n      pop\n        /* \"Evm/zk/balance_verifier.sol\":16480:17891  function decompress_g2(uint256 c0, uint256 c1)... */\n    tag_220:\n      swap3\n      swap6\n      swap2\n      swap5\n      pop\n      swap3\n      pop\n      jump\t// out\n        /* \"Evm/zk/balance_verifier.sol\":18399:22770  function publicInputMSM(uint256[8] calldata input)... */\n    tag_70:\n        /* \"Evm/zk/balance_verifier.sol\":18478:18487  uint256 x */\n      0x00\n        /* \"Evm/zk/balance_verifier.sol\":18489:18498  uint256 y */\n      0x00\n        /* \"Evm/zk/balance_verifier.sol\":19112:19124  bool success */\n      0x00\n        /* \"Evm/zk/balance_verifier.sol\":19127:19131  true */\n      0x01\n        /* \"Evm/zk/balance_verifier.sol\":19112:19131  bool success = true */\n      swap1\n      pop\n        /* \"Evm/zk/balance_verifier.sol\":19197:19201  0x40 */\n      0x40\n        /* \"Evm/zk/balance_verifier.sol\":19191:19202  mload(0x40) */\n      mload\n        /* \"Evm/zk/balance_verifier.sol\":19232:19236  0x40 */\n      0x40\n        /* \"Evm/zk/balance_verifier.sol\":19229:19230  f */\n      dup2\n        /* \"Evm/zk/balance_verifier.sol\":19225:19237  add(f, 0x40) */\n      add\n        /* \"Evm/zk/balance_verifier.sol\":19251:19256  let s */\n      0x00\n        /* \"Evm/zk/balance_verifier.sol\":19280:19290  CONSTANT_X */\n      0x2d9f54e04224b45b04d4c1cb19a2c6c9f6f2361d545f8e2ba19e6b175690f932\n        /* \"Evm/zk/balance_verifier.sol\":19277:19278  f */\n      dup4\n        /* \"Evm/zk/balance_verifier.sol\":19270:19291  mstore(f, CONSTANT_X) */\n      mstore\n        /* \"Evm/zk/balance_verifier.sol\":19326:19336  CONSTANT_Y */\n      0x102a776c788ddb493c98588187fbd592fd9a0b792154b1ea0049a02f837cde94\n        /* \"Evm/zk/balance_verifier.sol\":19319:19323  0x20 */\n      0x20\n        /* \"Evm/zk/balance_verifier.sol\":19316:19317  f */\n      dup5\n        /* \"Evm/zk/balance_verifier.sol\":19312:19324  add(f, 0x20) */\n      add\n        /* \"Evm/zk/balance_verifier.sol\":19305:19337  mstore(add(f, 0x20), CONSTANT_Y) */\n      mstore\n        /* \"Evm/zk/balance_verifier.sol\":19361:19368  PUB_0_X */\n      0x188babbe8b12a64563ee76c05e3efc705f330f07e46d2c976a18e7a1455da10f\n        /* \"Evm/zk/balance_verifier.sol\":19358:19359  g */\n      dup3\n        /* \"Evm/zk/balance_verifier.sol\":19351:19369  mstore(g, PUB_0_X) */\n      mstore\n        /* \"Evm/zk/balance_verifier.sol\":19404:19411  PUB_0_Y */\n      0x219e542d567415ca8d13d3e5861db017b741fce5c71eeb10e9887d82fa73578e\n        /* \"Evm/zk/balance_verifier.sol\":19397:19401  0x20 */\n      0x20\n        /* \"Evm/zk/balance_verifier.sol\":19394:19395  g */\n      dup4\n        /* \"Evm/zk/balance_verifier.sol\":19390:19402  add(g, 0x20) */\n      add\n        /* \"Evm/zk/balance_verifier.sol\":19383:19412  mstore(add(g, 0x20), PUB_0_Y) */\n      mstore\n        /* \"Evm/zk/balance_verifier.sol\":19445:19450  input */\n      dup7\n        /* \"Evm/zk/balance_verifier.sol\":19432:19451  calldataload(input) */\n      calldataload\n        /* \"Evm/zk/balance_verifier.sol\":19426:19451  s :=  calldataload(input) */\n      swap1\n      pop\n        /* \"Evm/zk/balance_verifier.sol\":19486:19487  s */\n      dup1\n        /* \"Evm/zk/balance_verifier.sol\":19479:19483  0x40 */\n      0x40\n        /* \"Evm/zk/balance_verifier.sol\":19476:19477  g */\n      dup4\n        /* \"Evm/zk/balance_verifier.sol\":19472:19484  add(g, 0x40) */\n      add\n        /* \"Evm/zk/balance_verifier.sol\":19465:19488  mstore(add(g, 0x40), s) */\n      mstore\n        /* \"Evm/zk/balance_verifier.sol\":19532:19533  R */\n      0x30644e72e131a029b85045b68181585d2833e84879b9709143e1f593f0000001\n        /* \"Evm/zk/balance_verifier.sol\":19529:19530  s */\n      dup2\n        /* \"Evm/zk/balance_verifier.sol\":19526:19534  lt(s, R) */\n      lt\n        /* \"Evm/zk/balance_verifier.sol\":19517:19524  success */\n      dup5\n        /* \"Evm/zk/balance_verifier.sol\":19513:19535  and(success, lt(s, R)) */\n      and\n        /* \"Evm/zk/balance_verifier.sol\":19502:19535  success := and(success, lt(s, R)) */\n      swap4\n      pop\n        /* \"Evm/zk/balance_verifier.sol\":19619:19623  0x40 */\n      0x40\n        /* \"Evm/zk/balance_verifier.sol\":19616:19617  g */\n      dup3\n        /* \"Evm/zk/balance_verifier.sol\":19610:19614  0x60 */\n      0x60\n        /* \"Evm/zk/balance_verifier.sol\":19607:19608  g */\n      dup5\n        /* \"Evm/zk/balance_verifier.sol\":19591:19605  PRECOMPILE_MUL */\n      0x07\n        /* \"Evm/zk/balance_verifier.sol\":19584:19589  gas() */\n      gas\n        /* \"Evm/zk/balance_verifier.sol\":19573:19624  staticcall(gas(), PRECOMPILE_MUL, g, 0x60, g, 0x40) */\n      staticcall\n        /* \"Evm/zk/balance_verifier.sol\":19564:19571  success */\n      dup5\n        /* \"Evm/zk/balance_verifier.sol\":19560:19625  and(success, staticcall(gas(), PRECOMPILE_MUL, g, 0x60, g, 0x40)) */\n      and\n        /* \"Evm/zk/balance_verifier.sol\":19549:19625  success := and(success, staticcall(gas(), PRECOMPILE_MUL, g, 0x60, g, 0x40)) */\n      swap4\n      pop\n        /* \"Evm/zk/balance_verifier.sol\":19709:19713  0x40 */\n      0x40\n        /* \"Evm/zk/balance_verifier.sol\":19706:19707  f */\n      dup4\n        /* \"Evm/zk/balance_verifier.sol\":19700:19704  0x80 */\n      0x80\n        /* \"Evm/zk/balance_verifier.sol\":19697:19698  f */\n      dup6\n        /* \"Evm/zk/balance_verifier.sol\":19681:19695  PRECOMPILE_ADD */\n      0x06\n        /* \"Evm/zk/balance_verifier.sol\":19674:19679  gas() */\n      gas\n        /* \"Evm/zk/balance_verifier.sol\":19663:19714  staticcall(gas(), PRECOMPILE_ADD, f, 0x80, f, 0x40) */\n      staticcall\n        /* \"Evm/zk/balance_verifier.sol\":19654:19661  success */\n      dup5\n        /* \"Evm/zk/balance_verifier.sol\":19650:19715  and(success, staticcall(gas(), PRECOMPILE_ADD, f, 0x80, f, 0x40)) */\n      and\n        /* \"Evm/zk/balance_verifier.sol\":19639:19715  success := and(success, staticcall(gas(), PRECOMPILE_ADD, f, 0x80, f, 0x40)) */\n      swap4\n      pop\n        /* \"Evm/zk/balance_verifier.sol\":19739:19746  PUB_1_X */\n      0x26e9b3e8de109c2032c4005922e052a50b39123a63bab4b145d75f70a728985c\n        /* \"Evm/zk/balance_verifier.sol\":19736:19737  g */\n      dup3\n        /* \"Evm/zk/balance_verifier.sol\":19729:19747  mstore(g, PUB_1_X) */\n      mstore\n        /* \"Evm/zk/balance_verifier.sol\":19782:19789  PUB_1_Y */\n      0x0e3ace0d01e11ccd0912af2599e59e541ba4f7f1154ee415e2471c64b0135339\n        /* \"Evm/zk/balance_verifier.sol\":19775:19779  0x20 */\n      0x20\n        /* \"Evm/zk/balance_verifier.sol\":19772:19773  g */\n      dup4\n        /* \"Evm/zk/balance_verifier.sol\":19768:19780  add(g, 0x20) */\n      add\n        /* \"Evm/zk/balance_verifier.sol\":19761:19790  mstore(add(g, 0x20), PUB_1_Y) */\n      mstore\n        /* \"Evm/zk/balance_verifier.sol\":19834:19836  32 */\n      0x20\n        /* \"Evm/zk/balance_verifier.sol\":19827:19832  input */\n      dup8\n        /* \"Evm/zk/balance_verifier.sol\":19823:19837  add(input, 32) */\n      add\n        /* \"Evm/zk/balance_verifier.sol\":19810:19838  calldataload(add(input, 32)) */\n      calldataload\n        /* \"Evm/zk/balance_verifier.sol\":19804:19838  s :=  calldataload(add(input, 32)) */\n      swap1\n      pop\n        /* \"Evm/zk/balance_verifier.sol\":19873:19874  s */\n      dup1\n        /* \"Evm/zk/balance_verifier.sol\":19866:19870  0x40 */\n      0x40\n        /* \"Evm/zk/balance_verifier.sol\":19863:19864  g */\n      dup4\n        /* \"Evm/zk/balance_verifier.sol\":19859:19871  add(g, 0x40) */\n      add\n        /* \"Evm/zk/balance_verifier.sol\":19852:19875  mstore(add(g, 0x40), s) */\n      mstore\n        /* \"Evm/zk/balance_verifier.sol\":19919:19920  R */\n      0x30644e72e131a029b85045b68181585d2833e84879b9709143e1f593f0000001\n        /* \"Evm/zk/balance_verifier.sol\":19916:19917  s */\n      dup2\n        /* \"Evm/zk/balance_verifier.sol\":19913:19921  lt(s, R) */\n      lt\n        /* \"Evm/zk/balance_verifier.sol\":19904:19911  success */\n      dup5\n        /* \"Evm/zk/balance_verifier.sol\":19900:19922  and(success, lt(s, R)) */\n      and\n        /* \"Evm/zk/balance_verifier.sol\":19889:19922  success := and(success, lt(s, R)) */\n      swap4\n      pop\n        /* \"Evm/zk/balance_verifier.sol\":20006:20010  0x40 */\n      0x40\n        /* \"Evm/zk/balance_verifier.sol\":20003:20004  g */\n      dup3\n        /* \"Evm/zk/balance_verifier.sol\":19997:20001  0x60 */\n      0x60\n        /* \"Evm/zk/balance_verifier.sol\":19994:19995  g */\n      dup5\n        /* \"Evm/zk/balance_verifier.sol\":19978:19992  PRECOMPILE_MUL */\n      0x07\n        /* \"Evm/zk/balance_verifier.sol\":19971:19976  gas() */\n      gas\n        /* \"Evm/zk/balance_verifier.sol\":19960:20011  staticcall(gas(), PRECOMPILE_MUL, g, 0x60, g, 0x40) */\n      staticcall\n        /* \"Evm/zk/balance_verifier.sol\":19951:19958  success */\n      dup5\n        /* \"Evm/zk/balance_verifier.sol\":19947:20012  and(success, staticcall(gas(), PRECOMPILE_MUL, g, 0x60, g, 0x40)) */\n      and\n        /* \"Evm/zk/balance_verifier.sol\":19936:20012  success := and(success, staticcall(gas(), PRECOMPILE_MUL, g, 0x60, g, 0x40)) */\n      swap4\n      pop\n        /* \"Evm/zk/balance_verifier.sol\":20096:20100  0x40 */\n      0x40\n        /* \"Evm/zk/balance_verifier.sol\":20093:20094  f */\n      dup4\n        /* \"Evm/zk/balance_verifier.sol\":20087:20091  0x80 */\n      0x80\n        /* \"Evm/zk/balance_verifier.sol\":20084:20085  f */\n      dup6\n        /* \"Evm/zk/balance_verifier.sol\":20068:20082  PRECOMPILE_ADD */\n      0x06\n        /* \"Evm/zk/balance_verifier.sol\":20061:20066  gas() */\n      gas\n        /* \"Evm/zk/balance_verifier.sol\":20050:20101  staticcall(gas(), PRECOMPILE_ADD, f, 0x80, f, 0x40) */\n      staticcall\n        /* \"Evm/zk/balance_verifier.sol\":20041:20048  success */\n      dup5\n        /* \"Evm/zk/balance_verifier.sol\":20037:20102  and(success, staticcall(gas(), PRECOMPILE_ADD, f, 0x80, f, 0x40)) */\n      and\n        /* \"Evm/zk/balance_verifier.sol\":20026:20102  success := and(success, staticcall(gas(), PRECOMPILE_ADD, f, 0x80, f, 0x40)) */\n      swap4\n      pop\n        /* \"Evm/zk/balance_verifier.sol\":20126:20133  PUB_2_X */\n      0x279b124ba4f24cb5e051f6b4b730bbb0f79dbe0cb820199e96ac81610730d202\n        /* \"Evm/zk/balance_verifier.sol\":20123:20124  g */\n      dup3\n        /* \"Evm/zk/balance_verifier.sol\":20116:20134  mstore(g, PUB_2_X) */\n      mstore\n        /* \"Evm/zk/balance_verifier.sol\":20169:20176  PUB_2_Y */\n      0x02857f17a5167caf4ed09ed729ec0e676893e425f3c1a0036835642b231a7c9f\n        /* \"Evm/zk/balance_verifier.sol\":20162:20166  0x20 */\n      0x20\n        /* \"Evm/zk/balance_verifier.sol\":20159:20160  g */\n      dup4\n        /* \"Evm/zk/balance_verifier.sol\":20155:20167  add(g, 0x20) */\n      add\n        /* \"Evm/zk/balance_verifier.sol\":20148:20177  mstore(add(g, 0x20), PUB_2_Y) */\n      mstore\n        /* \"Evm/zk/balance_verifier.sol\":20221:20223  64 */\n      0x40\n        /* \"Evm/zk/balance_verifier.sol\":20214:20219  input */\n      dup8\n        /* \"Evm/zk/balance_verifier.sol\":20210:20224  add(input, 64) */\n      add\n        /* \"Evm/zk/balance_verifier.sol\":20197:20225  calldataload(add(input, 64)) */\n      calldataload\n        /* \"Evm/zk/balance_verifier.sol\":20191:20225  s :=  calldataload(add(input, 64)) */\n      swap1\n      pop\n        /* \"Evm/zk/balance_verifier.sol\":20260:20261  s */\n      dup1\n        /* \"Evm/zk/balance_verifier.sol\":20253:20257  0x40 */\n      0x40\n        /* \"Evm/zk/balance_verifier.sol\":20250:20251  g */\n      dup4\n        /* \"Evm/zk/balance_verifier.sol\":20246:20258  add(g, 0x40) */\n      add\n        /* \"Evm/zk/balance_verifier.sol\":20239:20262  mstore(add(g, 0x40), s) */\n      mstore\n        /* \"Evm/zk/balance_verifier.sol\":20306:20307  R */\n      0x30644e72e131a029b85045b68181585d2833e84879b9709143e1f593f0000001\n        /* \"Evm/zk/balance_verifier.sol\":20303:20304  s */\n      dup2\n        /* \"Evm/zk/balance_verifier.sol\":20300:20308  lt(s, R) */\n      lt\n        /* \"Evm/zk/balance_verifier.sol\":20291:20298  success */\n      dup5\n        /* \"Evm/zk/balance_verifier.sol\":20287:20309  and(success, lt(s, R)) */\n      and\n        /* \"Evm/zk/balance_verifier.sol\":20276:20309  success := and(success, lt(s, R)) */\n      swap4\n      pop\n        /* \"Evm/zk/balance_verifier.sol\":20393:20397  0x40 */\n      0x40\n        /* \"Evm/zk/balance_verifier.sol\":20390:20391  g */\n      dup3\n        /* \"Evm/zk/balance_verifier.sol\":20384:20388  0x60 */\n      0x60\n        /* \"Evm/zk/balance_verifier.sol\":20381:20382  g */\n      dup5\n        /* \"Evm/zk/balance_verifier.sol\":20365:20379  PRECOMPILE_MUL */\n      0x07\n        /* \"Evm/zk/balance_verifier.sol\":20358:20363  gas() */\n      gas\n        /* \"Evm/zk/balance_verifier.sol\":20347:20398  staticcall(gas(), PRECOMPILE_MUL, g, 0x60, g, 0x40) */\n      staticcall\n        /* \"Evm/zk/balance_verifier.sol\":20338:20345  success */\n      dup5\n        /* \"Evm/zk/balance_verifier.sol\":20334:20399  and(success, staticcall(gas(), PRECOMPILE_MUL, g, 0x60, g, 0x40)) */\n      and\n        /* \"Evm/zk/balance_verifier.sol\":20323:20399  success := and(success, staticcall(gas(), PRECOMPILE_MUL, g, 0x60, g, 0x40)) */\n      swap4\n      pop\n        /* \"Evm/zk/balance_verifier.sol\":20483:20487  0x40 */\n      0x40\n        /* \"Evm/zk/balance_verifier.sol\":20480:20481  f */\n      dup4\n        /* \"Evm/zk/balance_verifier.sol\":20474:20478  0x80 */\n      0x80\n        /* \"Evm/zk/balance_verifier.sol\":20471:20472  f */\n      dup6\n        /* \"Evm/zk/balance_verifier.sol\":20455:20469  PRECOMPILE_ADD */\n      0x06\n        /* \"Evm/zk/balance_verifier.sol\":20448:20453  gas() */\n      gas\n        /* \"Evm/zk/balance_verifier.sol\":20437:20488  staticcall(gas(), PRECOMPILE_ADD, f, 0x80, f, 0x40) */\n      staticcall\n        /* \"Evm/zk/balance_verifier.sol\":20428:20435  success */\n      dup5\n        /* \"Evm/zk/balance_verifier.sol\":20424:20489  and(success, staticcall(gas(), PRECOMPILE_ADD, f, 0x80, f, 0x40)) */\n      and\n        /* \"Evm/zk/balance_verifier.sol\":20413:20489  success := and(success, staticcall(gas(), PRECOMPILE_ADD, f, 0x80, f, 0x40)) */\n      swap4\n      pop\n        /* \"Evm/zk/balance_verifier.sol\":20513:20520  PUB_3_X */\n      0x28d70cd1a8837597fd8bf94a6d2952757dab302d61a281515629ccaf302a7520\n        /* \"Evm/zk/balance_verifier.sol\":20510:20511  g */\n      dup3\n        /* \"Evm/zk/balance_verifier.sol\":20503:20521  mstore(g, PUB_3_X) */\n      mstore\n        /* \"Evm/zk/balance_verifier.sol\":20556:20563  PUB_3_Y */\n      0x18effeed550fdad1faa777820f7e03534843c10f9d14348385b2095f4a0ee4e4\n        /* \"Evm/zk/balance_verifier.sol\":20549:20553  0x20 */\n      0x20\n        /* \"Evm/zk/balance_verifier.sol\":20546:20547  g */\n      dup4\n        /* \"Evm/zk/balance_verifier.sol\":20542:20554  add(g, 0x20) */\n      add\n        /* \"Evm/zk/balance_verifier.sol\":20535:20564  mstore(add(g, 0x20), PUB_3_Y) */\n      mstore\n        /* \"Evm/zk/balance_verifier.sol\":20608:20610  96 */\n      0x60\n        /* \"Evm/zk/balance_verifier.sol\":20601:20606  input */\n      dup8\n        /* \"Evm/zk/balance_verifier.sol\":20597:20611  add(input, 96) */\n      add\n        /* \"Evm/zk/balance_verifier.sol\":20584:20612  calldataload(add(input, 96)) */\n      calldataload\n        /* \"Evm/zk/balance_verifier.sol\":20578:20612  s :=  calldataload(add(input, 96)) */\n      swap1\n      pop\n        /* \"Evm/zk/balance_verifier.sol\":20647:20648  s */\n      dup1\n        /* \"Evm/zk/balance_verifier.sol\":20640:20644  0x40 */\n      0x40\n        /* \"Evm/zk/balance_verifier.sol\":20637:20638  g */\n      dup4\n        /* \"Evm/zk/balance_verifier.sol\":20633:20645  add(g, 0x40) */\n      add\n        /* \"Evm/zk/balance_verifier.sol\":20626:20649  mstore(add(g, 0x40), s) */\n      mstore\n        /* \"Evm/zk/balance_verifier.sol\":20693:20694  R */\n      0x30644e72e131a029b85045b68181585d2833e84879b9709143e1f593f0000001\n        /* \"Evm/zk/balance_verifier.sol\":20690:20691  s */\n      dup2\n        /* \"Evm/zk/balance_verifier.sol\":20687:20695  lt(s, R) */\n      lt\n        /* \"Evm/zk/balance_verifier.sol\":20678:20685  success */\n      dup5\n        /* \"Evm/zk/balance_verifier.sol\":20674:20696  and(success, lt(s, R)) */\n      and\n        /* \"Evm/zk/balance_verifier.sol\":20663:20696  success := and(success, lt(s, R)) */\n      swap4\n      pop\n        /* \"Evm/zk/balance_verifier.sol\":20780:20784  0x40 */\n      0x40\n        /* \"Evm/zk/balance_verifier.sol\":20777:20778  g */\n      dup3\n        /* \"Evm/zk/balance_verifier.sol\":20771:20775  0x60 */\n      0x60\n        /* \"Evm/zk/balance_verifier.sol\":20768:20769  g */\n      dup5\n        /* \"Evm/zk/balance_verifier.sol\":20752:20766  PRECOMPILE_MUL */\n      0x07\n        /* \"Evm/zk/balance_verifier.sol\":20745:20750  gas() */\n      gas\n        /* \"Evm/zk/balance_verifier.sol\":20734:20785  staticcall(gas(), PRECOMPILE_MUL, g, 0x60, g, 0x40) */\n      staticcall\n        /* \"Evm/zk/balance_verifier.sol\":20725:20732  success */\n      dup5\n        /* \"Evm/zk/balance_verifier.sol\":20721:20786  and(success, staticcall(gas(), PRECOMPILE_MUL, g, 0x60, g, 0x40)) */\n      and\n        /* \"Evm/zk/balance_verifier.sol\":20710:20786  success := and(success, staticcall(gas(), PRECOMPILE_MUL, g, 0x60, g, 0x40)) */\n      swap4\n      pop\n        /* \"Evm/zk/balance_verifier.sol\":20870:20874  0x40 */\n      0x40\n        /* \"Evm/zk/balance_verifier.sol\":20867:20868  f */\n      dup4\n        /* \"Evm/zk/balance_verifier.sol\":20861:20865  0x80 */\n      0x80\n        /* \"Evm/zk/balance_verifier.sol\":20858:20859  f */\n      dup6\n        /* \"Evm/zk/balance_verifier.sol\":20842:20856  PRECOMPILE_ADD */\n      0x06\n        /* \"Evm/zk/balance_verifier.sol\":20835:20840  gas() */\n      gas\n        /* \"Evm/zk/balance_verifier.sol\":20824:20875  staticcall(gas(), PRECOMPILE_ADD, f, 0x80, f, 0x40) */\n      staticcall\n        /* \"Evm/zk/balance_verifier.sol\":20815:20822  success */\n      dup5\n        /* \"Evm/zk/balance_verifier.sol\":20811:20876  and(success, staticcall(gas(), PRECOMPILE_ADD, f, 0x80, f, 0x40)) */\n      and\n        /* \"Evm/zk/balance_verifier.sol\":20800:20876  success := and(success, staticcall(gas(), PRECOMPILE_ADD, f, 0x80, f, 0x40)) */\n      swap4\n      pop\n        /* \"Evm/zk/balance_verifier.sol\":20900:20907  PUB_4_X */\n      0x1e77b2de20158e417b065f78cb102e00faf401479712a9e89cc3e4ce5141645c\n        /* \"Evm/zk/balance_verifier.sol\":20897:20898  g */\n      dup3\n        /* \"Evm/zk/balance_verifier.sol\":20890:20908  mstore(g, PUB_4_X) */\n      mstore\n        /* \"Evm/zk/balance_verifier.sol\":20943:20950  PUB_4_Y */\n      0x06d0dec2fda72642620c4e16f365b593a1474575516bae3e72598181ce352e1a\n        /* \"Evm/zk/balance_verifier.sol\":20936:20940  0x20 */\n      0x20\n        /* \"Evm/zk/balance_verifier.sol\":20933:20934  g */\n      dup4\n        /* \"Evm/zk/balance_verifier.sol\":20929:20941  add(g, 0x20) */\n      add\n        /* \"Evm/zk/balance_verifier.sol\":20922:20951  mstore(add(g, 0x20), PUB_4_Y) */\n      mstore\n        /* \"Evm/zk/balance_verifier.sol\":20995:20998  128 */\n      0x80\n        /* \"Evm/zk/balance_verifier.sol\":20988:20993  input */\n      dup8\n        /* \"Evm/zk/balance_verifier.sol\":20984:20999  add(input, 128) */\n      add\n        /* \"Evm/zk/balance_verifier.sol\":20971:21000  calldataload(add(input, 128)) */\n      calldataload\n        /* \"Evm/zk/balance_verifier.sol\":20965:21000  s :=  calldataload(add(input, 128)) */\n      swap1\n      pop\n        /* \"Evm/zk/balance_verifier.sol\":21035:21036  s */\n      dup1\n        /* \"Evm/zk/balance_verifier.sol\":21028:21032  0x40 */\n      0x40\n        /* \"Evm/zk/balance_verifier.sol\":21025:21026  g */\n      dup4\n        /* \"Evm/zk/balance_verifier.sol\":21021:21033  add(g, 0x40) */\n      add\n        /* \"Evm/zk/balance_verifier.sol\":21014:21037  mstore(add(g, 0x40), s) */\n      mstore\n        /* \"Evm/zk/balance_verifier.sol\":21081:21082  R */\n      0x30644e72e131a029b85045b68181585d2833e84879b9709143e1f593f0000001\n        /* \"Evm/zk/balance_verifier.sol\":21078:21079  s */\n      dup2\n        /* \"Evm/zk/balance_verifier.sol\":21075:21083  lt(s, R) */\n      lt\n        /* \"Evm/zk/balance_verifier.sol\":21066:21073  success */\n      dup5\n        /* \"Evm/zk/balance_verifier.sol\":21062:21084  and(success, lt(s, R)) */\n      and\n        /* \"Evm/zk/balance_verifier.sol\":21051:21084  success := and(success, lt(s, R)) */\n      swap4\n      pop\n        /* \"Evm/zk/balance_verifier.sol\":21168:21172  0x40 */\n      0x40\n        /* \"Evm/zk/balance_verifier.sol\":21165:21166  g */\n      dup3\n        /* \"Evm/zk/balance_verifier.sol\":21159:21163  0x60 */\n      0x60\n        /* \"Evm/zk/balance_verifier.sol\":21156:21157  g */\n      dup5\n        /* \"Evm/zk/balance_verifier.sol\":21140:21154  PRECOMPILE_MUL */\n      0x07\n        /* \"Evm/zk/balance_verifier.sol\":21133:21138  gas() */\n      gas\n        /* \"Evm/zk/balance_verifier.sol\":21122:21173  staticcall(gas(), PRECOMPILE_MUL, g, 0x60, g, 0x40) */\n      staticcall\n        /* \"Evm/zk/balance_verifier.sol\":21113:21120  success */\n      dup5\n        /* \"Evm/zk/balance_verifier.sol\":21109:21174  and(success, staticcall(gas(), PRECOMPILE_MUL, g, 0x60, g, 0x40)) */\n      and\n        /* \"Evm/zk/balance_verifier.sol\":21098:21174  success := and(success, staticcall(gas(), PRECOMPILE_MUL, g, 0x60, g, 0x40)) */\n      swap4\n      pop\n        /* \"Evm/zk/balance_verifier.sol\":21258:21262  0x40 */\n      0x40\n        /* \"Evm/zk/balance_verifier.sol\":21255:21256  f */\n      dup4\n        /* \"Evm/zk/balance_verifier.sol\":21249:21253  0x80 */\n      0x80\n        /* \"Evm/zk/balance_verifier.sol\":21246:21247  f */\n      dup6\n        /* \"Evm/zk/balance_verifier.sol\":21230:21244  PRECOMPILE_ADD */\n      0x06\n        /* \"Evm/zk/balance_verifier.sol\":21223:21228  gas() */\n      gas\n        /* \"Evm/zk/balance_verifier.sol\":21212:21263  staticcall(gas(), PRECOMPILE_ADD, f, 0x80, f, 0x40) */\n      staticcall\n        /* \"Evm/zk/balance_verifier.sol\":21203:21210  success */\n      dup5\n        /* \"Evm/zk/balance_verifier.sol\":21199:21264  and(success, staticcall(gas(), PRECOMPILE_ADD, f, 0x80, f, 0x40)) */\n      and\n        /* \"Evm/zk/balance_verifier.sol\":21188:21264  success := and(success, staticcall(gas(), PRECOMPILE_ADD, f, 0x80, f, 0x40)) */\n      swap4\n      pop\n        /* \"Evm/zk/balance_verifier.sol\":21288:21295  PUB_5_X */\n      0x1de74c79e98100affbd99eb20b41f1060b82944af36df82c76ae1332faf135b0\n        /* \"Evm/zk/balance_verifier.sol\":21285:21286  g */\n      dup3\n        /* \"Evm/zk/balance_verifier.sol\":21278:21296  mstore(g, PUB_5_X) */\n      mstore\n        /* \"Evm/zk/balance_verifier.sol\":21331:21338  PUB_5_Y */\n      0x1d265e7e19d543e80867a545d30e9c4cc337032a3bf1fa99c26df1f55c641ff5\n        /* \"Evm/zk/balance_verifier.sol\":21324:21328  0x20 */\n      0x20\n        /* \"Evm/zk/balance_verifier.sol\":21321:21322  g */\n      dup4\n        /* \"Evm/zk/balance_verifier.sol\":21317:21329  add(g, 0x20) */\n      add\n        /* \"Evm/zk/balance_verifier.sol\":21310:21339  mstore(add(g, 0x20), PUB_5_Y) */\n      mstore\n        /* \"Evm/zk/balance_verifier.sol\":21383:21386  160 */\n      0xa0\n        /* \"Evm/zk/balance_verifier.sol\":21376:21381  input */\n      dup8\n        /* \"Evm/zk/balance_verifier.sol\":21372:21387  add(input, 160) */\n      add\n        /* \"Evm/zk/balance_verifier.sol\":21359:21388  calldataload(add(input, 160)) */\n      calldataload\n        /* \"Evm/zk/balance_verifier.sol\":21353:21388  s :=  calldataload(add(input, 160)) */\n      swap1\n      pop\n        /* \"Evm/zk/balance_verifier.sol\":21423:21424  s */\n      dup1\n        /* \"Evm/zk/balance_verifier.sol\":21416:21420  0x40 */\n      0x40\n        /* \"Evm/zk/balance_verifier.sol\":21413:21414  g */\n      dup4\n        /* \"Evm/zk/balance_verifier.sol\":21409:21421  add(g, 0x40) */\n      add\n        /* \"Evm/zk/balance_verifier.sol\":21402:21425  mstore(add(g, 0x40), s) */\n      mstore\n        /* \"Evm/zk/balance_verifier.sol\":21469:21470  R */\n      0x30644e72e131a029b85045b68181585d2833e84879b9709143e1f593f0000001\n        /* \"Evm/zk/balance_verifier.sol\":21466:21467  s */\n      dup2\n        /* \"Evm/zk/balance_verifier.sol\":21463:21471  lt(s, R) */\n      lt\n        /* \"Evm/zk/balance_verifier.sol\":21454:21461  success */\n      dup5\n        /* \"Evm/zk/balance_verifier.sol\":21450:21472  and(success, lt(s, R)) */\n      and\n        /* \"Evm/zk/balance_verifier.sol\":21439:21472  success := and(success, lt(s, R)) */\n      swap4\n      pop\n        /* \"Evm/zk/balance_verifier.sol\":21556:21560  0x40 */\n      0x40\n        /* \"Evm/zk/balance_verifier.sol\":21553:21554  g */\n      dup3\n        /* \"Evm/zk/balance_verifier.sol\":21547:21551  0x60 */\n      0x60\n        /* \"Evm/zk/balance_verifier.sol\":21544:21545  g */\n      dup5\n        /* \"Evm/zk/balance_verifier.sol\":21528:21542  PRECOMPILE_MUL */\n      0x07\n        /* \"Evm/zk/balance_verifier.sol\":21521:21526  gas() */\n      gas\n        /* \"Evm/zk/balance_verifier.sol\":21510:21561  staticcall(gas(), PRECOMPILE_MUL, g, 0x60, g, 0x40) */\n      staticcall\n        /* \"Evm/zk/balance_verifier.sol\":21501:21508  success */\n      dup5\n        /* \"Evm/zk/balance_verifier.sol\":21497:21562  and(success, staticcall(gas(), PRECOMPILE_MUL, g, 0x60, g, 0x40)) */\n      and\n        /* \"Evm/zk/balance_verifier.sol\":21486:21562  success := and(success, staticcall(gas(), PRECOMPILE_MUL, g, 0x60, g, 0x40)) */\n      swap4\n      pop\n        /* \"Evm/zk/balance_verifier.sol\":21646:21650  0x40 */\n      0x40\n        /* \"Evm/zk/balance_verifier.sol\":21643:21644  f */\n      dup4\n        /* \"Evm/zk/balance_verifier.sol\":21637:21641  0x80 */\n      0x80\n        /* \"Evm/zk/balance_verifier.sol\":21634:21635  f */\n      dup6\n        /* \"Evm/zk/balance_verifier.sol\":21618:21632  PRECOMPILE_ADD */\n      0x06\n        /* \"Evm/zk/balance_verifier.sol\":21611:21616  gas() */\n      gas\n        /* \"Evm/zk/balance_verifier.sol\":21600:21651  staticcall(gas(), PRECOMPILE_ADD, f, 0x80, f, 0x40) */\n      staticcall\n        /* \"Evm/zk/balance_verifier.sol\":21591:21598  success */\n      dup5\n        /* \"Evm/zk/balance_verifier.sol\":21587:21652  and(success, staticcall(gas(), PRECOMPILE_ADD, f, 0x80, f, 0x40)) */\n      and\n        /* \"Evm/zk/balance_verifier.sol\":21576:21652  success := and(success, staticcall(gas(), PRECOMPILE_ADD, f, 0x80, f, 0x40)) */\n      swap4\n      pop\n        /* \"Evm/zk/balance_verifier.sol\":21676:21683  PUB_6_X */\n      0x1a80e631574538a42f22053f0d7e748b3fef9a75b449901e52c4888317e3822b\n        /* \"Evm/zk/balance_verifier.sol\":21673:21674  g */\n      dup3\n        /* \"Evm/zk/balance_verifier.sol\":21666:21684  mstore(g, PUB_6_X) */\n      mstore\n        /* \"Evm/zk/balance_verifier.sol\":21719:21726  PUB_6_Y */\n      0x12119ac6eac14ec6968239d9835a2330c4ffdcf8ac4e30d51d48a0f166344e2d\n        /* \"Evm/zk/balance_verifier.sol\":21712:21716  0x20 */\n      0x20\n        /* \"Evm/zk/balance_verifier.sol\":21709:21710  g */\n      dup4\n        /* \"Evm/zk/balance_verifier.sol\":21705:21717  add(g, 0x20) */\n      add\n        /* \"Evm/zk/balance_verifier.sol\":21698:21727  mstore(add(g, 0x20), PUB_6_Y) */\n      mstore\n        /* \"Evm/zk/balance_verifier.sol\":21771:21774  192 */\n      0xc0\n        /* \"Evm/zk/balance_verifier.sol\":21764:21769  input */\n      dup8\n        /* \"Evm/zk/balance_verifier.sol\":21760:21775  add(input, 192) */\n      add\n        /* \"Evm/zk/balance_verifier.sol\":21747:21776  calldataload(add(input, 192)) */\n      calldataload\n        /* \"Evm/zk/balance_verifier.sol\":21741:21776  s :=  calldataload(add(input, 192)) */\n      swap1\n      pop\n        /* \"Evm/zk/balance_verifier.sol\":21811:21812  s */\n      dup1\n        /* \"Evm/zk/balance_verifier.sol\":21804:21808  0x40 */\n      0x40\n        /* \"Evm/zk/balance_verifier.sol\":21801:21802  g */\n      dup4\n        /* \"Evm/zk/balance_verifier.sol\":21797:21809  add(g, 0x40) */\n      add\n        /* \"Evm/zk/balance_verifier.sol\":21790:21813  mstore(add(g, 0x40), s) */\n      mstore\n        /* \"Evm/zk/balance_verifier.sol\":21857:21858  R */\n      0x30644e72e131a029b85045b68181585d2833e84879b9709143e1f593f0000001\n        /* \"Evm/zk/balance_verifier.sol\":21854:21855  s */\n      dup2\n        /* \"Evm/zk/balance_verifier.sol\":21851:21859  lt(s, R) */\n      lt\n        /* \"Evm/zk/balance_verifier.sol\":21842:21849  success */\n      dup5\n        /* \"Evm/zk/balance_verifier.sol\":21838:21860  and(success, lt(s, R)) */\n      and\n        /* \"Evm/zk/balance_verifier.sol\":21827:21860  success := and(success, lt(s, R)) */\n      swap4\n      pop\n        /* \"Evm/zk/balance_verifier.sol\":21944:21948  0x40 */\n      0x40\n        /* \"Evm/zk/balance_verifier.sol\":21941:21942  g */\n      dup3\n        /* \"Evm/zk/balance_verifier.sol\":21935:21939  0x60 */\n      0x60\n        /* \"Evm/zk/balance_verifier.sol\":21932:21933  g */\n      dup5\n        /* \"Evm/zk/balance_verifier.sol\":21916:21930  PRECOMPILE_MUL */\n      0x07\n        /* \"Evm/zk/balance_verifier.sol\":21909:21914  gas() */\n      gas\n        /* \"Evm/zk/balance_verifier.sol\":21898:21949  staticcall(gas(), PRECOMPILE_MUL, g, 0x60, g, 0x40) */\n      staticcall\n        /* \"Evm/zk/balance_verifier.sol\":21889:21896  success */\n      dup5\n        /* \"Evm/zk/balance_verifier.sol\":21885:21950  and(success, staticcall(gas(), PRECOMPILE_MUL, g, 0x60, g, 0x40)) */\n      and\n        /* \"Evm/zk/balance_verifier.sol\":21874:21950  success := and(success, staticcall(gas(), PRECOMPILE_MUL, g, 0x60, g, 0x40)) */\n      swap4\n      pop\n        /* \"Evm/zk/balance_verifier.sol\":22034:22038  0x40 */\n      0x40\n        /* \"Evm/zk/balance_verifier.sol\":22031:22032  f */\n      dup4\n        /* \"Evm/zk/balance_verifier.sol\":22025:22029  0x80 */\n      0x80\n        /* \"Evm/zk/balance_verifier.sol\":22022:22023  f */\n      dup6\n        /* \"Evm/zk/balance_verifier.sol\":22006:22020  PRECOMPILE_ADD */\n      0x06\n        /* \"Evm/zk/balance_verifier.sol\":21999:22004  gas() */\n      gas\n        /* \"Evm/zk/balance_verifier.sol\":21988:22039  staticcall(gas(), PRECOMPILE_ADD, f, 0x80, f, 0x40) */\n      staticcall\n        /* \"Evm/zk/balance_verifier.sol\":21979:21986  success */\n      dup5\n        /* \"Evm/zk/balance_verifier.sol\":21975:22040  and(success, staticcall(gas(), PRECOMPILE_ADD, f, 0x80, f, 0x40)) */\n      and\n        /* \"Evm/zk/balance_verifier.sol\":21964:22040  success := and(success, staticcall(gas(), PRECOMPILE_ADD, f, 0x80, f, 0x40)) */\n      swap4\n      pop\n        /* \"Evm/zk/balance_verifier.sol\":22064:22071  PUB_7_X */\n      0x10e9250ec0c3f01059f3b1331ae3424d6c67e3cf1e8e8141f58ea9c01f6f1d23\n        /* \"Evm/zk/balance_verifier.sol\":22061:22062  g */\n      dup3\n        /* \"Evm/zk/balance_verifier.sol\":22054:22072  mstore(g, PUB_7_X) */\n      mstore\n        /* \"Evm/zk/balance_verifier.sol\":22107:22114  PUB_7_Y */\n      0x1324e24dcff3172c39dcb3223625cd9bc921212dfab12b3784a3ef8216ae9936\n        /* \"Evm/zk/balance_verifier.sol\":22100:22104  0x20 */\n      0x20\n        /* \"Evm/zk/balance_verifier.sol\":22097:22098  g */\n      dup4\n        /* \"Evm/zk/balance_verifier.sol\":22093:22105  add(g, 0x20) */\n      add\n        /* \"Evm/zk/balance_verifier.sol\":22086:22115  mstore(add(g, 0x20), PUB_7_Y) */\n      mstore\n        /* \"Evm/zk/balance_verifier.sol\":22159:22162  224 */\n      0xe0\n        /* \"Evm/zk/balance_verifier.sol\":22152:22157  input */\n      dup8\n        /* \"Evm/zk/balance_verifier.sol\":22148:22163  add(input, 224) */\n      add\n        /* \"Evm/zk/balance_verifier.sol\":22135:22164  calldataload(add(input, 224)) */\n      calldataload\n        /* \"Evm/zk/balance_verifier.sol\":22129:22164  s :=  calldataload(add(input, 224)) */\n      swap1\n      pop\n        /* \"Evm/zk/balance_verifier.sol\":22199:22200  s */\n      dup1\n        /* \"Evm/zk/balance_verifier.sol\":22192:22196  0x40 */\n      0x40\n        /* \"Evm/zk/balance_verifier.sol\":22189:22190  g */\n      dup4\n        /* \"Evm/zk/balance_verifier.sol\":22185:22197  add(g, 0x40) */\n      add\n        /* \"Evm/zk/balance_verifier.sol\":22178:22201  mstore(add(g, 0x40), s) */\n      mstore\n        /* \"Evm/zk/balance_verifier.sol\":22245:22246  R */\n      0x30644e72e131a029b85045b68181585d2833e84879b9709143e1f593f0000001\n        /* \"Evm/zk/balance_verifier.sol\":22242:22243  s */\n      dup2\n        /* \"Evm/zk/balance_verifier.sol\":22239:22247  lt(s, R) */\n      lt\n        /* \"Evm/zk/balance_verifier.sol\":22230:22237  success */\n      dup5\n        /* \"Evm/zk/balance_verifier.sol\":22226:22248  and(success, lt(s, R)) */\n      and\n        /* \"Evm/zk/balance_verifier.sol\":22215:22248  success := and(success, lt(s, R)) */\n      swap4\n      pop\n        /* \"Evm/zk/balance_verifier.sol\":22332:22336  0x40 */\n      0x40\n        /* \"Evm/zk/balance_verifier.sol\":22329:22330  g */\n      dup3\n        /* \"Evm/zk/balance_verifier.sol\":22323:22327  0x60 */\n      0x60\n        /* \"Evm/zk/balance_verifier.sol\":22320:22321  g */\n      dup5\n        /* \"Evm/zk/balance_verifier.sol\":22304:22318  PRECOMPILE_MUL */\n      0x07\n        /* \"Evm/zk/balance_verifier.sol\":22297:22302  gas() */\n      gas\n        /* \"Evm/zk/balance_verifier.sol\":22286:22337  staticcall(gas(), PRECOMPILE_MUL, g, 0x60, g, 0x40) */\n      staticcall\n        /* \"Evm/zk/balance_verifier.sol\":22277:22284  success */\n      dup5\n        /* \"Evm/zk/balance_verifier.sol\":22273:22338  and(success, staticcall(gas(), PRECOMPILE_MUL, g, 0x60, g, 0x40)) */\n      and\n        /* \"Evm/zk/balance_verifier.sol\":22262:22338  success := and(success, staticcall(gas(), PRECOMPILE_MUL, g, 0x60, g, 0x40)) */\n      swap4\n      pop\n        /* \"Evm/zk/balance_verifier.sol\":22422:22426  0x40 */\n      0x40\n        /* \"Evm/zk/balance_verifier.sol\":22419:22420  f */\n      dup4\n        /* \"Evm/zk/balance_verifier.sol\":22413:22417  0x80 */\n      0x80\n        /* \"Evm/zk/balance_verifier.sol\":22410:22411  f */\n      dup6\n        /* \"Evm/zk/balance_verifier.sol\":22394:22408  PRECOMPILE_ADD */\n      0x06\n        /* \"Evm/zk/balance_verifier.sol\":22387:22392  gas() */\n      gas\n        /* \"Evm/zk/balance_verifier.sol\":22376:22427  staticcall(gas(), PRECOMPILE_ADD, f, 0x80, f, 0x40) */\n      staticcall\n        /* \"Evm/zk/balance_verifier.sol\":22367:22374  success */\n      dup5\n        /* \"Evm/zk/balance_verifier.sol\":22363:22428  and(success, staticcall(gas(), PRECOMPILE_ADD, f, 0x80, f, 0x40)) */\n      and\n        /* \"Evm/zk/balance_verifier.sol\":22352:22428  success := and(success, staticcall(gas(), PRECOMPILE_ADD, f, 0x80, f, 0x40)) */\n      swap4\n      pop\n        /* \"Evm/zk/balance_verifier.sol\":22455:22456  f */\n      dup3\n        /* \"Evm/zk/balance_verifier.sol\":22449:22457  mload(f) */\n      mload\n        /* \"Evm/zk/balance_verifier.sol\":22444:22457  x := mload(f) */\n      swap6\n      pop\n        /* \"Evm/zk/balance_verifier.sol\":22489:22493  0x20 */\n      0x20\n        /* \"Evm/zk/balance_verifier.sol\":22486:22487  f */\n      dup4\n        /* \"Evm/zk/balance_verifier.sol\":22482:22494  add(f, 0x20) */\n      add\n        /* \"Evm/zk/balance_verifier.sol\":22476:22495  mload(add(f, 0x20)) */\n      mload\n        /* \"Evm/zk/balance_verifier.sol\":22471:22495  y := mload(add(f, 0x20)) */\n      swap5\n      pop\n        /* \"Evm/zk/balance_verifier.sol\":19167:22506  {... */\n      pop\n      pop\n      pop\n        /* \"Evm/zk/balance_verifier.sol\":22521:22528  success */\n      dup1\n        /* \"Evm/zk/balance_verifier.sol\":22516:22763  if (!success) {... */\n      tag_256\n      jumpi\n        /* \"Evm/zk/balance_verifier.sol\":22728:22751  PublicInputNotInField() */\n      mload(0x40)\n      0xa54f8e2700000000000000000000000000000000000000000000000000000000\n      dup2\n      mstore\n      0x04\n      add\n      mload(0x40)\n      dup1\n      swap2\n      sub\n      swap1\n      revert\n        /* \"Evm/zk/balance_verifier.sol\":22516:22763  if (!success) {... */\n    tag_256:\n        /* \"Evm/zk/balance_verifier.sol\":18500:22770  {... */\n      pop\n        /* \"Evm/zk/balance_verifier.sol\":18399:22770  function publicInputMSM(uint256[8] calldata input)... */\n      swap2\n      pop\n      swap2\n      jump\t// out\n        /* \"Evm/zk/balance_verifier.sol\":8691:8998  function sqrt_Fp(uint256 a) internal view returns (uint256 x) {... */\n    tag_141:\n        /* \"Evm/zk/balance_verifier.sol\":8742:8751  uint256 x */\n      0x00\n        /* \"Evm/zk/balance_verifier.sol\":8768:8787  exp(a, EXP_SQRT_FP) */\n      tag_258\n        /* \"Evm/zk/balance_verifier.sol\":8772:8773  a */\n      dup3\n        /* \"Evm/zk/balance_verifier.sol\":2641:2706  0xC19139CB84C680A6E14116DA060561765E05AA45A1C72A34F082305B61F3F52 */\n      0x0c19139cb84c680a6e14116da060561765e05aa45a1c72a34f082305b61f3f52\n        /* \"Evm/zk/balance_verifier.sol\":8768:8771  exp */\n      tag_259\n        /* \"Evm/zk/balance_verifier.sol\":8768:8787  exp(a, EXP_SQRT_FP) */\n      jump\t// in\n    tag_258:\n        /* \"Evm/zk/balance_verifier.sol\":8764:8787  x = exp(a, EXP_SQRT_FP) */\n      swap1\n      pop\n        /* \"Evm/zk/balance_verifier.sol\":8821:8822  a */\n      dup2\n        /* \"Evm/zk/balance_verifier.sol\":1423:1489  0x30644e72e131a029b85045b68181585d97816a916871ca8d3c208c16d87cfd47 */\n      0x30644e72e131a029b85045b68181585d97816a916871ca8d3c208c16d87cfd47\n        /* \"Evm/zk/balance_verifier.sol\":8802:8817  mulmod(x, x, P) */\n      dup1\n      tag_260\n      jumpi\n      tag_261\n      tag_136\n      jump\t// in\n    tag_261:\n    tag_260:\n        /* \"Evm/zk/balance_verifier.sol\":8812:8813  x */\n      dup3\n        /* \"Evm/zk/balance_verifier.sol\":8809:8810  x */\n      dup4\n        /* \"Evm/zk/balance_verifier.sol\":8802:8817  mulmod(x, x, P) */\n      mulmod\n        /* \"Evm/zk/balance_verifier.sol\":8802:8822  mulmod(x, x, P) != a */\n      eq\n        /* \"Evm/zk/balance_verifier.sol\":8798:8991  if (mulmod(x, x, P) != a) {... */\n      tag_262\n      jumpi\n        /* \"Evm/zk/balance_verifier.sol\":8965:8979  ProofInvalid() */\n      mload(0x40)\n      0x7fcdd1f400000000000000000000000000000000000000000000000000000000\n      dup2\n      mstore\n      0x04\n      add\n      mload(0x40)\n      dup1\n      swap2\n      sub\n      swap1\n      revert\n        /* \"Evm/zk/balance_verifier.sol\":8798:8991  if (mulmod(x, x, P) != a) {... */\n    tag_262:\n        /* \"Evm/zk/balance_verifier.sol\":8691:8998  function sqrt_Fp(uint256 a) internal view returns (uint256 x) {... */\n      swap2\n      swap1\n      pop\n      jump\t// out\n        /* \"Evm/zk/balance_verifier.sol\":6771:6944  function negate(uint256 a) internal pure returns (uint256 x) {... */\n    tag_145:\n        /* \"Evm/zk/balance_verifier.sol\":6821:6830  uint256 x */\n      0x00\n        /* \"Evm/zk/balance_verifier.sol\":1423:1489  0x30644e72e131a029b85045b68181585d97816a916871ca8d3c208c16d87cfd47 */\n      0x30644e72e131a029b85045b68181585d97816a916871ca8d3c208c16d87cfd47\n      dup1\n        /* \"Evm/zk/balance_verifier.sol\":6878:6879  a */\n      dup4\n        /* \"Evm/zk/balance_verifier.sol\":6878:6883  a % P */\n      dup2\n      tag_264\n      jumpi\n      tag_265\n      tag_136\n      jump\t// in\n    tag_265:\n    tag_264:\n      mod\n        /* \"Evm/zk/balance_verifier.sol\":1423:1489  0x30644e72e131a029b85045b68181585d97816a916871ca8d3c208c16d87cfd47 */\n      0x30644e72e131a029b85045b68181585d97816a916871ca8d3c208c16d87cfd47\n        /* \"Evm/zk/balance_verifier.sol\":6873:6884  P - (a % P) */\n      sub\n        /* \"Evm/zk/balance_verifier.sol\":6872:6889  (P - (a % P)) % P */\n      dup2\n      tag_266\n      jumpi\n      tag_267\n      tag_136\n      jump\t// in\n    tag_267:\n    tag_266:\n      mod\n        /* \"Evm/zk/balance_verifier.sol\":6868:6889  x = (P - (a % P)) % P */\n      swap1\n      pop\n        /* \"Evm/zk/balance_verifier.sol\":6771:6944  function negate(uint256 a) internal pure returns (uint256 x) {... */\n      swap2\n      swap1\n      pop\n      jump\t// out\n        /* \"Evm/zk/balance_verifier.sol\":9276:9425  function isSquare_Fp(uint256 a) internal view returns (bool) {... */\n    tag_193:\n        /* \"Evm/zk/balance_verifier.sol\":9331:9335  bool */\n      0x00\n        /* \"Evm/zk/balance_verifier.sol\":9348:9357  uint256 x */\n      0x00\n        /* \"Evm/zk/balance_verifier.sol\":9360:9379  exp(a, EXP_SQRT_FP) */\n      tag_269\n        /* \"Evm/zk/balance_verifier.sol\":9364:9365  a */\n      dup4\n        /* \"Evm/zk/balance_verifier.sol\":2641:2706  0xC19139CB84C680A6E14116DA060561765E05AA45A1C72A34F082305B61F3F52 */\n      0x0c19139cb84c680a6e14116da060561765e05aa45a1c72a34f082305b61f3f52\n        /* \"Evm/zk/balance_verifier.sol\":9360:9363  exp */\n      tag_259\n        /* \"Evm/zk/balance_verifier.sol\":9360:9379  exp(a, EXP_SQRT_FP) */\n      jump\t// in\n    tag_269:\n        /* \"Evm/zk/balance_verifier.sol\":9348:9379  uint256 x = exp(a, EXP_SQRT_FP) */\n      swap1\n      pop\n        /* \"Evm/zk/balance_verifier.sol\":9416:9417  a */\n      dup3\n        /* \"Evm/zk/balance_verifier.sol\":1423:1489  0x30644e72e131a029b85045b68181585d97816a916871ca8d3c208c16d87cfd47 */\n      0x30644e72e131a029b85045b68181585d97816a916871ca8d3c208c16d87cfd47\n        /* \"Evm/zk/balance_verifier.sol\":9397:9412  mulmod(x, x, P) */\n      dup1\n      tag_270\n      jumpi\n      tag_271\n      tag_136\n      jump\t// in\n    tag_271:\n    tag_270:\n        /* \"Evm/zk/balance_verifier.sol\":9407:9408  x */\n      dup3\n        /* \"Evm/zk/balance_verifier.sol\":9404:9405  x */\n      dup4\n        /* \"Evm/zk/balance_verifier.sol\":9397:9412  mulmod(x, x, P) */\n      mulmod\n        /* \"Evm/zk/balance_verifier.sol\":9397:9417  mulmod(x, x, P) == a */\n      eq\n        /* \"Evm/zk/balance_verifier.sol\":9390:9417  return mulmod(x, x, P) == a */\n      swap2\n      pop\n      pop\n        /* \"Evm/zk/balance_verifier.sol\":9276:9425  function isSquare_Fp(uint256 a) internal view returns (bool) {... */\n      swap2\n      swap1\n      pop\n      jump\t// out\n        /* \"Evm/zk/balance_verifier.sol\":10071:10878  function sqrt_Fp2(uint256 a0, uint256 a1, bool hint) internal view returns (uint256 x0, uint256 x1) {... */\n    tag_195:\n        /* \"Evm/zk/balance_verifier.sol\":10147:10157  uint256 x0 */\n      0x00\n        /* \"Evm/zk/balance_verifier.sol\":10159:10169  uint256 x1 */\n      0x00\n        /* \"Evm/zk/balance_verifier.sol\":10251:10260  uint256 d */\n      0x00\n        /* \"Evm/zk/balance_verifier.sol\":10263:10319  sqrt_Fp(addmod(mulmod(a0, a0, P), mulmod(a1, a1, P), P)) */\n      tag_273\n        /* \"Evm/zk/balance_verifier.sol\":1423:1489  0x30644e72e131a029b85045b68181585d97816a916871ca8d3c208c16d87cfd47 */\n      0x30644e72e131a029b85045b68181585d97816a916871ca8d3c208c16d87cfd47\n        /* \"Evm/zk/balance_verifier.sol\":10271:10318  addmod(mulmod(a0, a0, P), mulmod(a1, a1, P), P) */\n      dup1\n      tag_274\n      jumpi\n      tag_275\n      tag_136\n      jump\t// in\n    tag_275:\n    tag_274:\n        /* \"Evm/zk/balance_verifier.sol\":1423:1489  0x30644e72e131a029b85045b68181585d97816a916871ca8d3c208c16d87cfd47 */\n      0x30644e72e131a029b85045b68181585d97816a916871ca8d3c208c16d87cfd47\n        /* \"Evm/zk/balance_verifier.sol\":10297:10314  mulmod(a1, a1, P) */\n      dup1\n      tag_276\n      jumpi\n      tag_277\n      tag_136\n      jump\t// in\n    tag_277:\n    tag_276:\n        /* \"Evm/zk/balance_verifier.sol\":10308:10310  a1 */\n      dup8\n        /* \"Evm/zk/balance_verifier.sol\":10304:10306  a1 */\n      dup9\n        /* \"Evm/zk/balance_verifier.sol\":10297:10314  mulmod(a1, a1, P) */\n      mulmod\n        /* \"Evm/zk/balance_verifier.sol\":1423:1489  0x30644e72e131a029b85045b68181585d97816a916871ca8d3c208c16d87cfd47 */\n      0x30644e72e131a029b85045b68181585d97816a916871ca8d3c208c16d87cfd47\n        /* \"Evm/zk/balance_verifier.sol\":10278:10295  mulmod(a0, a0, P) */\n      dup1\n      tag_278\n      jumpi\n      tag_279\n      tag_136\n      jump\t// in\n    tag_279:\n    tag_278:\n        /* \"Evm/zk/balance_verifier.sol\":10289:10291  a0 */\n      dup10\n        /* \"Evm/zk/balance_verifier.sol\":10285:10287  a0 */\n      dup11\n        /* \"Evm/zk/balance_verifier.sol\":10278:10295  mulmod(a0, a0, P) */\n      mulmod\n        /* \"Evm/zk/balance_verifier.sol\":10271:10318  addmod(mulmod(a0, a0, P), mulmod(a1, a1, P), P) */\n      addmod\n        /* \"Evm/zk/balance_verifier.sol\":10263:10270  sqrt_Fp */\n      tag_141\n        /* \"Evm/zk/balance_verifier.sol\":10263:10319  sqrt_Fp(addmod(mulmod(a0, a0, P), mulmod(a1, a1, P), P)) */\n      jump\t// in\n    tag_273:\n        /* \"Evm/zk/balance_verifier.sol\":10251:10319  uint256 d = sqrt_Fp(addmod(mulmod(a0, a0, P), mulmod(a1, a1, P), P)) */\n      swap1\n      pop\n        /* \"Evm/zk/balance_verifier.sol\":10334:10338  hint */\n      dup4\n        /* \"Evm/zk/balance_verifier.sol\":10330:10380  if (hint) {... */\n      iszero\n      tag_280\n      jumpi\n        /* \"Evm/zk/balance_verifier.sol\":10359:10368  negate(d) */\n      tag_281\n        /* \"Evm/zk/balance_verifier.sol\":10366:10367  d */\n      dup2\n        /* \"Evm/zk/balance_verifier.sol\":10359:10365  negate */\n      tag_145\n        /* \"Evm/zk/balance_verifier.sol\":10359:10368  negate(d) */\n      jump\t// in\n    tag_281:\n        /* \"Evm/zk/balance_verifier.sol\":10355:10368  d = negate(d) */\n      swap1\n      pop\n        /* \"Evm/zk/balance_verifier.sol\":10330:10380  if (hint) {... */\n    tag_280:\n        /* \"Evm/zk/balance_verifier.sol\":10464:10517  sqrt_Fp(mulmod(addmod(a0, d, P), FRACTION_1_2_FP, P)) */\n      tag_282\n        /* \"Evm/zk/balance_verifier.sol\":1423:1489  0x30644e72e131a029b85045b68181585d97816a916871ca8d3c208c16d87cfd47 */\n      0x30644e72e131a029b85045b68181585d97816a916871ca8d3c208c16d87cfd47\n        /* \"Evm/zk/balance_verifier.sol\":10472:10516  mulmod(addmod(a0, d, P), FRACTION_1_2_FP, P) */\n      dup1\n      tag_283\n      jumpi\n      tag_284\n      tag_136\n      jump\t// in\n    tag_284:\n    tag_283:\n        /* \"Evm/zk/balance_verifier.sol\":2144:2210  0x183227397098d014dc2822db40c0ac2ecbc0b548b438e5469e10460b6c3e7ea4 */\n      0x183227397098d014dc2822db40c0ac2ecbc0b548b438e5469e10460b6c3e7ea4\n        /* \"Evm/zk/balance_verifier.sol\":1423:1489  0x30644e72e131a029b85045b68181585d97816a916871ca8d3c208c16d87cfd47 */\n      0x30644e72e131a029b85045b68181585d97816a916871ca8d3c208c16d87cfd47\n        /* \"Evm/zk/balance_verifier.sol\":10479:10495  addmod(a0, d, P) */\n      dup1\n      tag_285\n      jumpi\n      tag_286\n      tag_136\n      jump\t// in\n    tag_286:\n    tag_285:\n        /* \"Evm/zk/balance_verifier.sol\":10490:10491  d */\n      dup5\n        /* \"Evm/zk/balance_verifier.sol\":10486:10488  a0 */\n      dup11\n        /* \"Evm/zk/balance_verifier.sol\":10479:10495  addmod(a0, d, P) */\n      addmod\n        /* \"Evm/zk/balance_verifier.sol\":10472:10516  mulmod(addmod(a0, d, P), FRACTION_1_2_FP, P) */\n      mulmod\n        /* \"Evm/zk/balance_verifier.sol\":10464:10471  sqrt_Fp */\n      tag_141\n        /* \"Evm/zk/balance_verifier.sol\":10464:10517  sqrt_Fp(mulmod(addmod(a0, d, P), FRACTION_1_2_FP, P)) */\n      jump\t// in\n    tag_282:\n        /* \"Evm/zk/balance_verifier.sol\":10459:10517  x0 = sqrt_Fp(mulmod(addmod(a0, d, P), FRACTION_1_2_FP, P)) */\n      swap3\n      pop\n        /* \"Evm/zk/balance_verifier.sol\":1423:1489  0x30644e72e131a029b85045b68181585d97816a916871ca8d3c208c16d87cfd47 */\n      0x30644e72e131a029b85045b68181585d97816a916871ca8d3c208c16d87cfd47\n        /* \"Evm/zk/balance_verifier.sol\":10533:10575  mulmod(a1, invert_Fp(mulmod(x0, 2, P)), P) */\n      dup1\n      tag_287\n      jumpi\n      tag_288\n      tag_136\n      jump\t// in\n    tag_288:\n    tag_287:\n        /* \"Evm/zk/balance_verifier.sol\":10544:10571  invert_Fp(mulmod(x0, 2, P)) */\n      tag_289\n        /* \"Evm/zk/balance_verifier.sol\":1423:1489  0x30644e72e131a029b85045b68181585d97816a916871ca8d3c208c16d87cfd47 */\n      0x30644e72e131a029b85045b68181585d97816a916871ca8d3c208c16d87cfd47\n        /* \"Evm/zk/balance_verifier.sol\":10554:10570  mulmod(x0, 2, P) */\n      dup1\n      tag_290\n      jumpi\n      tag_291\n      tag_136\n      jump\t// in\n    tag_291:\n    tag_290:\n        /* \"Evm/zk/balance_verifier.sol\":10565:10566  2 */\n      0x02\n        /* \"Evm/zk/balance_verifier.sol\":10561:10563  x0 */\n      dup7\n        /* \"Evm/zk/balance_verifier.sol\":10554:10570  mulmod(x0, 2, P) */\n      mulmod\n        /* \"Evm/zk/balance_verifier.sol\":10544:10553  invert_Fp */\n      tag_292\n        /* \"Evm/zk/balance_verifier.sol\":10544:10571  invert_Fp(mulmod(x0, 2, P)) */\n      jump\t// in\n    tag_289:\n        /* \"Evm/zk/balance_verifier.sol\":10540:10542  a1 */\n      dup7\n        /* \"Evm/zk/balance_verifier.sol\":10533:10575  mulmod(a1, invert_Fp(mulmod(x0, 2, P)), P) */\n      mulmod\n        /* \"Evm/zk/balance_verifier.sol\":10528:10575  x1 = mulmod(a1, invert_Fp(mulmod(x0, 2, P)), P) */\n      swap2\n      pop\n        /* \"Evm/zk/balance_verifier.sol\":1423:1489  0x30644e72e131a029b85045b68181585d97816a916871ca8d3c208c16d87cfd47 */\n      0x30644e72e131a029b85045b68181585d97816a916871ca8d3c208c16d87cfd47\n        /* \"Evm/zk/balance_verifier.sol\":10715:10770  addmod(mulmod(x0, x0, P), negate(mulmod(x1, x1, P)), P) */\n      dup1\n      tag_293\n      jumpi\n      tag_294\n      tag_136\n      jump\t// in\n    tag_294:\n    tag_293:\n        /* \"Evm/zk/balance_verifier.sol\":10741:10766  negate(mulmod(x1, x1, P)) */\n      tag_295\n        /* \"Evm/zk/balance_verifier.sol\":1423:1489  0x30644e72e131a029b85045b68181585d97816a916871ca8d3c208c16d87cfd47 */\n      0x30644e72e131a029b85045b68181585d97816a916871ca8d3c208c16d87cfd47\n        /* \"Evm/zk/balance_verifier.sol\":10748:10765  mulmod(x1, x1, P) */\n      dup1\n      tag_296\n      jumpi\n      tag_297\n      tag_136\n      jump\t// in\n    tag_297:\n    tag_296:\n        /* \"Evm/zk/balance_verifier.sol\":10759:10761  x1 */\n      dup5\n        /* \"Evm/zk/balance_verifier.sol\":10755:10757  x1 */\n      dup6\n        /* \"Evm/zk/balance_verifier.sol\":10748:10765  mulmod(x1, x1, P) */\n      mulmod\n        /* \"Evm/zk/balance_verifier.sol\":10741:10747  negate */\n      tag_145\n        /* \"Evm/zk/balance_verifier.sol\":10741:10766  negate(mulmod(x1, x1, P)) */\n      jump\t// in\n    tag_295:\n        /* \"Evm/zk/balance_verifier.sol\":1423:1489  0x30644e72e131a029b85045b68181585d97816a916871ca8d3c208c16d87cfd47 */\n      0x30644e72e131a029b85045b68181585d97816a916871ca8d3c208c16d87cfd47\n        /* \"Evm/zk/balance_verifier.sol\":10722:10739  mulmod(x0, x0, P) */\n      dup1\n      tag_298\n      jumpi\n      tag_299\n      tag_136\n      jump\t// in\n    tag_299:\n    tag_298:\n        /* \"Evm/zk/balance_verifier.sol\":10733:10735  x0 */\n      dup6\n        /* \"Evm/zk/balance_verifier.sol\":10729:10731  x0 */\n      dup7\n        /* \"Evm/zk/balance_verifier.sol\":10722:10739  mulmod(x0, x0, P) */\n      mulmod\n        /* \"Evm/zk/balance_verifier.sol\":10715:10770  addmod(mulmod(x0, x0, P), negate(mulmod(x1, x1, P)), P) */\n      addmod\n        /* \"Evm/zk/balance_verifier.sol\":10709:10711  a0 */\n      dup7\n        /* \"Evm/zk/balance_verifier.sol\":10709:10770  a0 != addmod(mulmod(x0, x0, P), negate(mulmod(x1, x1, P)), P) */\n      eq\n      iszero\n        /* \"Evm/zk/balance_verifier.sol\":10709:10821  a0 != addmod(mulmod(x0, x0, P), negate(mulmod(x1, x1, P)), P)... */\n      dup1\n      tag_300\n      jumpi\n      pop\n        /* \"Evm/zk/balance_verifier.sol\":1423:1489  0x30644e72e131a029b85045b68181585d97816a916871ca8d3c208c16d87cfd47 */\n      0x30644e72e131a029b85045b68181585d97816a916871ca8d3c208c16d87cfd47\n        /* \"Evm/zk/balance_verifier.sol\":10790:10821  mulmod(2, mulmod(x0, x1, P), P) */\n      dup1\n      tag_301\n      jumpi\n      tag_302\n      tag_136\n      jump\t// in\n    tag_302:\n    tag_301:\n        /* \"Evm/zk/balance_verifier.sol\":1423:1489  0x30644e72e131a029b85045b68181585d97816a916871ca8d3c208c16d87cfd47 */\n      0x30644e72e131a029b85045b68181585d97816a916871ca8d3c208c16d87cfd47\n        /* \"Evm/zk/balance_verifier.sol\":10800:10817  mulmod(x0, x1, P) */\n      dup1\n      tag_303\n      jumpi\n      tag_304\n      tag_136\n      jump\t// in\n    tag_304:\n    tag_303:\n        /* \"Evm/zk/balance_verifier.sol\":10811:10813  x1 */\n      dup4\n        /* \"Evm/zk/balance_verifier.sol\":10807:10809  x0 */\n      dup6\n        /* \"Evm/zk/balance_verifier.sol\":10800:10817  mulmod(x0, x1, P) */\n      mulmod\n        /* \"Evm/zk/balance_verifier.sol\":10797:10798  2 */\n      0x02\n        /* \"Evm/zk/balance_verifier.sol\":10790:10821  mulmod(2, mulmod(x0, x1, P), P) */\n      mulmod\n        /* \"Evm/zk/balance_verifier.sol\":10784:10786  a1 */\n      dup6\n        /* \"Evm/zk/balance_verifier.sol\":10784:10821  a1 != mulmod(2, mulmod(x0, x1, P), P) */\n      eq\n      iszero\n        /* \"Evm/zk/balance_verifier.sol\":10709:10821  a0 != addmod(mulmod(x0, x0, P), negate(mulmod(x1, x1, P)), P)... */\n    tag_300:\n        /* \"Evm/zk/balance_verifier.sol\":10705:10871  if (a0 != addmod(mulmod(x0, x0, P), negate(mulmod(x1, x1, P)), P)... */\n      iszero\n      tag_305\n      jumpi\n        /* \"Evm/zk/balance_verifier.sol\":10845:10859  ProofInvalid() */\n      mload(0x40)\n      0x7fcdd1f400000000000000000000000000000000000000000000000000000000\n      dup2\n      mstore\n      0x04\n      add\n      mload(0x40)\n      dup1\n      swap2\n      sub\n      swap1\n      revert\n        /* \"Evm/zk/balance_verifier.sol\":10705:10871  if (a0 != addmod(mulmod(x0, x0, P), negate(mulmod(x1, x1, P)), P)... */\n    tag_305:\n        /* \"Evm/zk/balance_verifier.sol\":10171:10878  {... */\n      pop\n        /* \"Evm/zk/balance_verifier.sol\":10071:10878  function sqrt_Fp2(uint256 a0, uint256 a1, bool hint) internal view returns (uint256 x0, uint256 x1) {... */\n      swap4\n      pop\n      swap4\n      swap2\n      pop\n      pop\n      jump\t// out\n        /* \"Evm/zk/balance_verifier.sol\":7190:7843  function exp(uint256 a, uint256 e) internal view returns (uint256 x) {... */\n    tag_259:\n        /* \"Evm/zk/balance_verifier.sol\":7248:7257  uint256 x */\n      0x00\n        /* \"Evm/zk/balance_verifier.sol\":7270:7282  bool success */\n      0x00\n        /* \"Evm/zk/balance_verifier.sol\":7348:7352  0x40 */\n      0x40\n        /* \"Evm/zk/balance_verifier.sol\":7342:7353  mload(0x40) */\n      mload\n        /* \"Evm/zk/balance_verifier.sol\":7377:7381  0x20 */\n      0x20\n        /* \"Evm/zk/balance_verifier.sol\":7374:7375  f */\n      dup2\n        /* \"Evm/zk/balance_verifier.sol\":7367:7382  mstore(f, 0x20) */\n      mstore\n        /* \"Evm/zk/balance_verifier.sol\":7417:7421  0x20 */\n      0x20\n        /* \"Evm/zk/balance_verifier.sol\":7410:7414  0x20 */\n      dup1\n        /* \"Evm/zk/balance_verifier.sol\":7407:7408  f */\n      dup3\n        /* \"Evm/zk/balance_verifier.sol\":7403:7415  add(f, 0x20) */\n      add\n        /* \"Evm/zk/balance_verifier.sol\":7396:7422  mstore(add(f, 0x20), 0x20) */\n      mstore\n        /* \"Evm/zk/balance_verifier.sol\":7457:7461  0x20 */\n      0x20\n        /* \"Evm/zk/balance_verifier.sol\":7450:7454  0x40 */\n      0x40\n        /* \"Evm/zk/balance_verifier.sol\":7447:7448  f */\n      dup3\n        /* \"Evm/zk/balance_verifier.sol\":7443:7455  add(f, 0x40) */\n      add\n        /* \"Evm/zk/balance_verifier.sol\":7436:7462  mstore(add(f, 0x40), 0x20) */\n      mstore\n        /* \"Evm/zk/balance_verifier.sol\":7497:7498  a */\n      dup5\n        /* \"Evm/zk/balance_verifier.sol\":7490:7494  0x60 */\n      0x60\n        /* \"Evm/zk/balance_verifier.sol\":7487:7488  f */\n      dup3\n        /* \"Evm/zk/balance_verifier.sol\":7483:7495  add(f, 0x60) */\n      add\n        /* \"Evm/zk/balance_verifier.sol\":7476:7499  mstore(add(f, 0x60), a) */\n      mstore\n        /* \"Evm/zk/balance_verifier.sol\":7534:7535  e */\n      dup4\n        /* \"Evm/zk/balance_verifier.sol\":7527:7531  0x80 */\n      0x80\n        /* \"Evm/zk/balance_verifier.sol\":7524:7525  f */\n      dup3\n        /* \"Evm/zk/balance_verifier.sol\":7520:7532  add(f, 0x80) */\n      add\n        /* \"Evm/zk/balance_verifier.sol\":7513:7536  mstore(add(f, 0x80), e) */\n      mstore\n        /* \"Evm/zk/balance_verifier.sol\":7571:7572  P */\n      0x30644e72e131a029b85045b68181585d97816a916871ca8d3c208c16d87cfd47\n        /* \"Evm/zk/balance_verifier.sol\":7564:7568  0xa0 */\n      0xa0\n        /* \"Evm/zk/balance_verifier.sol\":7561:7562  f */\n      dup3\n        /* \"Evm/zk/balance_verifier.sol\":7557:7569  add(f, 0xa0) */\n      add\n        /* \"Evm/zk/balance_verifier.sol\":7550:7573  mstore(add(f, 0xa0), P) */\n      mstore\n        /* \"Evm/zk/balance_verifier.sol\":7647:7651  0x20 */\n      0x20\n        /* \"Evm/zk/balance_verifier.sol\":7644:7645  f */\n      dup2\n        /* \"Evm/zk/balance_verifier.sol\":7638:7642  0xc0 */\n      0xc0\n        /* \"Evm/zk/balance_verifier.sol\":7635:7636  f */\n      dup4\n        /* \"Evm/zk/balance_verifier.sol\":7616:7633  PRECOMPILE_MODEXP */\n      0x05\n        /* \"Evm/zk/balance_verifier.sol\":7609:7614  gas() */\n      gas\n        /* \"Evm/zk/balance_verifier.sol\":7598:7652  staticcall(gas(), PRECOMPILE_MODEXP, f, 0xc0, f, 0x20) */\n      staticcall\n        /* \"Evm/zk/balance_verifier.sol\":7587:7652  success := staticcall(gas(), PRECOMPILE_MODEXP, f, 0xc0, f, 0x20) */\n      swap2\n      pop\n        /* \"Evm/zk/balance_verifier.sol\":7677:7678  f */\n      dup1\n        /* \"Evm/zk/balance_verifier.sol\":7671:7679  mload(f) */\n      mload\n        /* \"Evm/zk/balance_verifier.sol\":7666:7679  x := mload(f) */\n      swap3\n      pop\n        /* \"Evm/zk/balance_verifier.sol\":7318:7690  {... */\n      pop\n        /* \"Evm/zk/balance_verifier.sol\":7705:7712  success */\n      dup1\n        /* \"Evm/zk/balance_verifier.sol\":7700:7836  if (!success) {... */\n      tag_307\n      jumpi\n        /* \"Evm/zk/balance_verifier.sol\":7810:7824  ProofInvalid() */\n      mload(0x40)\n      0x7fcdd1f400000000000000000000000000000000000000000000000000000000\n      dup2\n      mstore\n      0x04\n      add\n      mload(0x40)\n      dup1\n      swap2\n      sub\n      swap1\n      revert\n        /* \"Evm/zk/balance_verifier.sol\":7700:7836  if (!success) {... */\n    tag_307:\n        /* \"Evm/zk/balance_verifier.sol\":7259:7843  {... */\n      pop\n        /* \"Evm/zk/balance_verifier.sol\":7190:7843  function exp(uint256 a, uint256 e) internal view returns (uint256 x) {... */\n      swap3\n      swap2\n      pop\n      pop\n      jump\t// out\n        /* \"Evm/zk/balance_verifier.sol\":8132:8428  function invert_Fp(uint256 a) internal view returns (uint256 x) {... */\n    tag_292:\n        /* \"Evm/zk/balance_verifier.sol\":8185:8194  uint256 x */\n      0x00\n        /* \"Evm/zk/balance_verifier.sol\":8211:8233  exp(a, EXP_INVERSE_FP) */\n      tag_309\n        /* \"Evm/zk/balance_verifier.sol\":8215:8216  a */\n      dup3\n        /* \"Evm/zk/balance_verifier.sol\":2528:2594  0x30644E72E131A029B85045B68181585D97816A916871CA8D3C208C16D87CFD45 */\n      0x30644e72e131a029b85045b68181585d97816a916871ca8d3c208c16d87cfd45\n        /* \"Evm/zk/balance_verifier.sol\":8211:8214  exp */\n      tag_259\n        /* \"Evm/zk/balance_verifier.sol\":8211:8233  exp(a, EXP_INVERSE_FP) */\n      jump\t// in\n    tag_309:\n        /* \"Evm/zk/balance_verifier.sol\":8207:8233  x = exp(a, EXP_INVERSE_FP) */\n      swap1\n      pop\n        /* \"Evm/zk/balance_verifier.sol\":8267:8268  1 */\n      0x01\n        /* \"Evm/zk/balance_verifier.sol\":1423:1489  0x30644e72e131a029b85045b68181585d97816a916871ca8d3c208c16d87cfd47 */\n      0x30644e72e131a029b85045b68181585d97816a916871ca8d3c208c16d87cfd47\n        /* \"Evm/zk/balance_verifier.sol\":8248:8263  mulmod(a, x, P) */\n      dup1\n      tag_310\n      jumpi\n      tag_311\n      tag_136\n      jump\t// in\n    tag_311:\n    tag_310:\n        /* \"Evm/zk/balance_verifier.sol\":8258:8259  x */\n      dup3\n        /* \"Evm/zk/balance_verifier.sol\":8255:8256  a */\n      dup5\n        /* \"Evm/zk/balance_verifier.sol\":8248:8263  mulmod(a, x, P) */\n      mulmod\n        /* \"Evm/zk/balance_verifier.sol\":8248:8268  mulmod(a, x, P) != 1 */\n      eq\n        /* \"Evm/zk/balance_verifier.sol\":8244:8421  if (mulmod(a, x, P) != 1) {... */\n      tag_312\n      jumpi\n        /* \"Evm/zk/balance_verifier.sol\":8395:8409  ProofInvalid() */\n      mload(0x40)\n      0x7fcdd1f400000000000000000000000000000000000000000000000000000000\n      dup2\n      mstore\n      0x04\n      add\n      mload(0x40)\n      dup1\n      swap2\n      sub\n      swap1\n      revert\n        /* \"Evm/zk/balance_verifier.sol\":8244:8421  if (mulmod(a, x, P) != 1) {... */\n    tag_312:\n        /* \"Evm/zk/balance_verifier.sol\":8132:8428  function invert_Fp(uint256 a) internal view returns (uint256 x) {... */\n      swap2\n      swap1\n      pop\n      jump\t// out\n    tag_21:\n      mload(0x40)\n      dup1\n      0x80\n      add\n      0x40\n      mstore\n      dup1\n      0x04\n      swap1\n      0x20\n      dup3\n      mul\n      dup1\n      calldatasize\n      dup4\n      calldatacopy\n      dup1\n      dup3\n      add\n      swap2\n      pop\n      pop\n      swap1\n      pop\n      pop\n      swap1\n      jump\t// out\n    tag_55:\n      mload(0x40)\n      dup1\n      0x0300\n      add\n      0x40\n      mstore\n      dup1\n      0x18\n      swap1\n      0x20\n      dup3\n      mul\n      dup1\n      calldatasize\n      dup4\n      calldatacopy\n      dup1\n      dup3\n      add\n      swap2\n      pop\n      pop\n      swap1\n      pop\n      pop\n      swap1\n      jump\t// out\n    tag_120:\n      mload(0x40)\n      dup1\n      0x20\n      add\n      0x40\n      mstore\n      dup1\n      0x01\n      swap1\n      0x20\n      dup3\n      mul\n      dup1\n      calldatasize\n      dup4\n      calldatacopy\n      dup1\n      dup3\n      add\n      swap2\n      pop\n      pop\n      swap1\n      pop\n      pop\n      swap1\n      jump\t// out\n        /* \"#utility.yul\":88:205   */\n    tag_314:\n        /* \"#utility.yul\":197:198   */\n      0x00\n        /* \"#utility.yul\":194:195   */\n      0x00\n        /* \"#utility.yul\":187:199   */\n      revert\n        /* \"#utility.yul\":334:451   */\n    tag_316:\n        /* \"#utility.yul\":443:444   */\n      0x00\n        /* \"#utility.yul\":440:441   */\n      0x00\n        /* \"#utility.yul\":433:445   */\n      revert\n        /* \"#utility.yul\":475:724   */\n    tag_317:\n        /* \"#utility.yul\":546:554   */\n      0x00\n        /* \"#utility.yul\":577:583   */\n      dup2\n        /* \"#utility.yul\":565:583   */\n      swap1\n      pop\n        /* \"#utility.yul\":630:633   */\n      dup3\n        /* \"#utility.yul\":622:626   */\n      0x20\n        /* \"#utility.yul\":616:620   */\n      0x08\n        /* \"#utility.yul\":612:627   */\n      mul\n        /* \"#utility.yul\":602:610   */\n      dup3\n        /* \"#utility.yul\":598:628   */\n      add\n        /* \"#utility.yul\":595:634   */\n      gt\n        /* \"#utility.yul\":592:718   */\n      iszero\n      tag_334\n      jumpi\n        /* \"#utility.yul\":637:716   */\n      tag_335\n      tag_316\n      jump\t// in\n    tag_335:\n        /* \"#utility.yul\":592:718   */\n    tag_334:\n        /* \"#utility.yul\":475:724   */\n      swap3\n      swap2\n      pop\n      pop\n      jump\t// out\n        /* \"#utility.yul\":730:1110   */\n    tag_8:\n        /* \"#utility.yul\":814:820   */\n      0x00\n        /* \"#utility.yul\":863:866   */\n      0x0100\n        /* \"#utility.yul\":851:860   */\n      dup3\n        /* \"#utility.yul\":842:849   */\n      dup5\n        /* \"#utility.yul\":838:861   */\n      sub\n        /* \"#utility.yul\":834:867   */\n      slt\n        /* \"#utility.yul\":831:951   */\n      iszero\n      tag_337\n      jumpi\n        /* \"#utility.yul\":870:949   */\n      tag_338\n      tag_314\n      jump\t// in\n    tag_338:\n        /* \"#utility.yul\":831:951   */\n    tag_337:\n        /* \"#utility.yul\":990:991   */\n      0x00\n        /* \"#utility.yul\":1015:1093   */\n      tag_339\n        /* \"#utility.yul\":1085:1092   */\n      dup5\n        /* \"#utility.yul\":1076:1082   */\n      dup3\n        /* \"#utility.yul\":1065:1074   */\n      dup6\n        /* \"#utility.yul\":1061:1083   */\n      add\n        /* \"#utility.yul\":1015:1093   */\n      tag_317\n      jump\t// in\n    tag_339:\n        /* \"#utility.yul\":1005:1093   */\n      swap2\n      pop\n        /* \"#utility.yul\":961:1103   */\n      pop\n        /* \"#utility.yul\":730:1110   */\n      swap3\n      swap2\n      pop\n      pop\n      jump\t// out\n        /* \"#utility.yul\":1116:1220   */\n    tag_318:\n        /* \"#utility.yul\":1181:1187   */\n      0x00\n        /* \"#utility.yul\":1209:1213   */\n      0x04\n        /* \"#utility.yul\":1199:1213   */\n      swap1\n      pop\n        /* \"#utility.yul\":1116:1220   */\n      swap2\n      swap1\n      pop\n      jump\t// out\n        /* \"#utility.yul\":1226:1369   */\n    tag_319:\n        /* \"#utility.yul\":1323:1334   */\n      0x00\n        /* \"#utility.yul\":1360:1363   */\n      dup2\n        /* \"#utility.yul\":1345:1363   */\n      swap1\n      pop\n        /* \"#utility.yul\":1226:1369   */\n      swap3\n      swap2\n      pop\n      pop\n      jump\t// out\n        /* \"#utility.yul\":1375:1473   */\n    tag_320:\n        /* \"#utility.yul\":1440:1444   */\n      0x00\n        /* \"#utility.yul\":1463:1466   */\n      dup2\n        /* \"#utility.yul\":1455:1466   */\n      swap1\n      pop\n        /* \"#utility.yul\":1375:1473   */\n      swap2\n      swap1\n      pop\n      jump\t// out\n        /* \"#utility.yul\":1479:1556   */\n    tag_321:\n        /* \"#utility.yul\":1516:1523   */\n      0x00\n        /* \"#utility.yul\":1545:1550   */\n      dup2\n        /* \"#utility.yul\":1534:1550   */\n      swap1\n      pop\n        /* \"#utility.yul\":1479:1556   */\n      swap2\n      swap1\n      pop\n      jump\t// out\n        /* \"#utility.yul\":1562:1670   */\n    tag_322:\n        /* \"#utility.yul\":1639:1663   */\n      tag_345\n        /* \"#utility.yul\":1657:1662   */\n      dup2\n        /* \"#utility.yul\":1639:1663   */\n      tag_321\n      jump\t// in\n    tag_345:\n        /* \"#utility.yul\":1634:1637   */\n      dup3\n        /* \"#utility.yul\":1627:1664   */\n      mstore\n        /* \"#utility.yul\":1562:1670   */\n      pop\n      pop\n      jump\t// out\n        /* \"#utility.yul\":1676:1855   */\n    tag_323:\n        /* \"#utility.yul\":1745:1755   */\n      0x00\n        /* \"#utility.yul\":1766:1812   */\n      tag_347\n        /* \"#utility.yul\":1808:1811   */\n      dup4\n        /* \"#utility.yul\":1800:1806   */\n      dup4\n        /* \"#utility.yul\":1766:1812   */\n      tag_322\n      jump\t// in\n    tag_347:\n        /* \"#utility.yul\":1844:1848   */\n      0x20\n        /* \"#utility.yul\":1839:1842   */\n      dup4\n        /* \"#utility.yul\":1835:1849   */\n      add\n        /* \"#utility.yul\":1821:1849   */\n      swap1\n      pop\n        /* \"#utility.yul\":1676:1855   */\n      swap3\n      swap2\n      pop\n      pop\n      jump\t// out\n        /* \"#utility.yul\":1861:1972   */\n    tag_324:\n        /* \"#utility.yul\":1929:1933   */\n      0x00\n        /* \"#utility.yul\":1961:1965   */\n      0x20\n        /* \"#utility.yul\":1956:1959   */\n      dup3\n        /* \"#utility.yul\":1952:1966   */\n      add\n        /* \"#utility.yul\":1944:1966   */\n      swap1\n      pop\n        /* \"#utility.yul\":1861:1972   */\n      swap2\n      swap1\n      pop\n      jump\t// out\n        /* \"#utility.yul\":2010:2704   */\n    tag_325:\n        /* \"#utility.yul\":2146:2198   */\n      tag_350\n        /* \"#utility.yul\":2192:2197   */\n      dup2\n        /* \"#utility.yul\":2146:2198   */\n      tag_318\n      jump\t// in\n    tag_350:\n        /* \"#utility.yul\":2214:2298   */\n      tag_351\n        /* \"#utility.yul\":2291:2297   */\n      dup2\n        /* \"#utility.yul\":2286:2289   */\n      dup5\n        /* \"#utility.yul\":2214:2298   */\n      tag_319\n      jump\t// in\n    tag_351:\n        /* \"#utility.yul\":2207:2298   */\n      swap3\n      pop\n        /* \"#utility.yul\":2322:2376   */\n      tag_352\n        /* \"#utility.yul\":2370:2375   */\n      dup3\n        /* \"#utility.yul\":2322:2376   */\n      tag_320\n      jump\t// in\n    tag_352:\n        /* \"#utility.yul\":2399:2406   */\n      dup1\n        /* \"#utility.yul\":2430:2431   */\n      0x00\n        /* \"#utility.yul\":2415:2697   */\n    tag_353:\n        /* \"#utility.yul\":2440:2446   */\n      dup4\n        /* \"#utility.yul\":2437:2438   */\n      dup2\n        /* \"#utility.yul\":2434:2447   */\n      lt\n        /* \"#utility.yul\":2415:2697   */\n      iszero\n      tag_355\n      jumpi\n        /* \"#utility.yul\":2516:2522   */\n      dup2\n        /* \"#utility.yul\":2510:2523   */\n      mload\n        /* \"#utility.yul\":2543:2606   */\n      tag_356\n        /* \"#utility.yul\":2602:2605   */\n      dup8\n        /* \"#utility.yul\":2587:2600   */\n      dup3\n        /* \"#utility.yul\":2543:2606   */\n      tag_323\n      jump\t// in\n    tag_356:\n        /* \"#utility.yul\":2536:2606   */\n      swap7\n      pop\n        /* \"#utility.yul\":2629:2687   */\n      tag_357\n        /* \"#utility.yul\":2680:2686   */\n      dup4\n        /* \"#utility.yul\":2629:2687   */\n      tag_324\n      jump\t// in\n    tag_357:\n        /* \"#utility.yul\":2619:2687   */\n      swap3\n      pop\n        /* \"#utility.yul\":2475:2697   */\n      pop\n        /* \"#utility.yul\":2462:2463   */\n      0x01\n        /* \"#utility.yul\":2459:2460   */\n      dup2\n        /* \"#utility.yul\":2455:2464   */\n      add\n        /* \"#utility.yul\":2450:2464   */\n      swap1\n      pop\n        /* \"#utility.yul\":2415:2697   */\n      jump(tag_353)\n    tag_355:\n        /* \"#utility.yul\":2419:2433   */\n      pop\n        /* \"#utility.yul\":2122:2704   */\n      pop\n      pop\n      pop\n        /* \"#utility.yul\":2010:2704   */\n      pop\n      pop\n      jump\t// out\n        /* \"#utility.yul\":2710:3025   */\n    tag_11:\n        /* \"#utility.yul\":2849:2853   */\n      0x00\n        /* \"#utility.yul\":2887:2890   */\n      0x80\n        /* \"#utility.yul\":2876:2885   */\n      dup3\n        /* \"#utility.yul\":2872:2891   */\n      add\n        /* \"#utility.yul\":2864:2891   */\n      swap1\n      pop\n        /* \"#utility.yul\":2901:3018   */\n      tag_359\n        /* \"#utility.yul\":3015:3016   */\n      0x00\n        /* \"#utility.yul\":3004:3013   */\n      dup4\n        /* \"#utility.yul\":3000:3017   */\n      add\n        /* \"#utility.yul\":2991:2997   */\n      dup5\n        /* \"#utility.yul\":2901:3018   */\n      tag_325\n      jump\t// in\n    tag_359:\n        /* \"#utility.yul\":2710:3025   */\n      swap3\n      swap2\n      pop\n      pop\n      jump\t// out\n        /* \"#utility.yul\":3049:3298   */\n    tag_326:\n        /* \"#utility.yul\":3120:3128   */\n      0x00\n        /* \"#utility.yul\":3151:3157   */\n      dup2\n        /* \"#utility.yul\":3139:3157   */\n      swap1\n      pop\n        /* \"#utility.yul\":3204:3207   */\n      dup3\n        /* \"#utility.yul\":3196:3200   */\n      0x20\n        /* \"#utility.yul\":3190:3194   */\n      0x04\n        /* \"#utility.yul\":3186:3201   */\n      mul\n        /* \"#utility.yul\":3176:3184   */\n      dup3\n        /* \"#utility.yul\":3172:3202   */\n      add\n        /* \"#utility.yul\":3169:3208   */\n      gt\n        /* \"#utility.yul\":3166:3292   */\n      iszero\n      tag_361\n      jumpi\n        /* \"#utility.yul\":3211:3290   */\n      tag_362\n      tag_316\n      jump\t// in\n    tag_362:\n        /* \"#utility.yul\":3166:3292   */\n    tag_361:\n        /* \"#utility.yul\":3049:3298   */\n      swap3\n      swap2\n      pop\n      pop\n      jump\t// out\n        /* \"#utility.yul\":3304:3880   */\n    tag_14:\n        /* \"#utility.yul\":3422:3428   */\n      0x00\n        /* \"#utility.yul\":3430:3436   */\n      0x00\n        /* \"#utility.yul\":3479:3482   */\n      0x0180\n        /* \"#utility.yul\":3467:3476   */\n      dup4\n        /* \"#utility.yul\":3458:3465   */\n      dup6\n        /* \"#utility.yul\":3454:3477   */\n      sub\n        /* \"#utility.yul\":3450:3483   */\n      slt\n        /* \"#utility.yul\":3447:3567   */\n      iszero\n      tag_364\n      jumpi\n        /* \"#utility.yul\":3486:3565   */\n      tag_365\n      tag_314\n      jump\t// in\n    tag_365:\n        /* \"#utility.yul\":3447:3567   */\n    tag_364:\n        /* \"#utility.yul\":3606:3607   */\n      0x00\n        /* \"#utility.yul\":3631:3709   */\n      tag_366\n        /* \"#utility.yul\":3701:3708   */\n      dup6\n        /* \"#utility.yul\":3692:3698   */\n      dup3\n        /* \"#utility.yul\":3681:3690   */\n      dup7\n        /* \"#utility.yul\":3677:3699   */\n      add\n        /* \"#utility.yul\":3631:3709   */\n      tag_326\n      jump\t// in\n    tag_366:\n        /* \"#utility.yul\":3621:3709   */\n      swap3\n      pop\n        /* \"#utility.yul\":3577:3719   */\n      pop\n        /* \"#utility.yul\":3758:3761   */\n      0x80\n        /* \"#utility.yul\":3785:3863   */\n      tag_367\n        /* \"#utility.yul\":3855:3862   */\n      dup6\n        /* \"#utility.yul\":3846:3852   */\n      dup3\n        /* \"#utility.yul\":3835:3844   */\n      dup7\n        /* \"#utility.yul\":3831:3853   */\n      add\n        /* \"#utility.yul\":3785:3863   */\n      tag_317\n      jump\t// in\n    tag_367:\n        /* \"#utility.yul\":3775:3863   */\n      swap2\n      pop\n        /* \"#utility.yul\":3729:3873   */\n      pop\n        /* \"#utility.yul\":3304:3880   */\n      swap3\n      pop\n      swap3\n      swap1\n      pop\n      jump\t// out\n        /* \"#utility.yul\":3886:4462   */\n    tag_18:\n        /* \"#utility.yul\":4004:4010   */\n      0x00\n        /* \"#utility.yul\":4012:4018   */\n      0x00\n        /* \"#utility.yul\":4061:4064   */\n      0x0200\n        /* \"#utility.yul\":4049:4058   */\n      dup4\n        /* \"#utility.yul\":4040:4047   */\n      dup6\n        /* \"#utility.yul\":4036:4059   */\n      sub\n        /* \"#utility.yul\":4032:4065   */\n      slt\n        /* \"#utility.yul\":4029:4149   */\n      iszero\n      tag_369\n      jumpi\n        /* \"#utility.yul\":4068:4147   */\n      tag_370\n      tag_314\n      jump\t// in\n    tag_370:\n        /* \"#utility.yul\":4029:4149   */\n    tag_369:\n        /* \"#utility.yul\":4188:4189   */\n      0x00\n        /* \"#utility.yul\":4213:4291   */\n      tag_371\n        /* \"#utility.yul\":4283:4290   */\n      dup6\n        /* \"#utility.yul\":4274:4280   */\n      dup3\n        /* \"#utility.yul\":4263:4272   */\n      dup7\n        /* \"#utility.yul\":4259:4281   */\n      add\n        /* \"#utility.yul\":4213:4291   */\n      tag_317\n      jump\t// in\n    tag_371:\n        /* \"#utility.yul\":4203:4291   */\n      swap3\n      pop\n        /* \"#utility.yul\":4159:4301   */\n      pop\n        /* \"#utility.yul\":4340:4343   */\n      0x0100\n        /* \"#utility.yul\":4367:4445   */\n      tag_372\n        /* \"#utility.yul\":4437:4444   */\n      dup6\n        /* \"#utility.yul\":4428:4434   */\n      dup3\n        /* \"#utility.yul\":4417:4426   */\n      dup7\n        /* \"#utility.yul\":4413:4435   */\n      add\n        /* \"#utility.yul\":4367:4445   */\n      tag_317\n      jump\t// in\n    tag_372:\n        /* \"#utility.yul\":4357:4445   */\n      swap2\n      pop\n        /* \"#utility.yul\":4311:4455   */\n      pop\n        /* \"#utility.yul\":3886:4462   */\n      swap3\n      pop\n      swap3\n      swap1\n      pop\n      jump\t// out\n        /* \"#utility.yul\":4468:4648   */\n    tag_26:\n        /* \"#utility.yul\":4516:4593   */\n      0x4e487b7100000000000000000000000000000000000000000000000000000000\n        /* \"#utility.yul\":4513:4514   */\n      0x00\n        /* \"#utility.yul\":4506:4594   */\n      mstore\n        /* \"#utility.yul\":4613:4617   */\n      0x32\n        /* \"#utility.yul\":4610:4611   */\n      0x04\n        /* \"#utility.yul\":4603:4618   */\n      mstore\n        /* \"#utility.yul\":4637:4641   */\n      0x24\n        /* \"#utility.yul\":4634:4635   */\n      0x00\n        /* \"#utility.yul\":4627:4642   */\n      revert\n        /* \"#utility.yul\":4654:4834   */\n    tag_136:\n        /* \"#utility.yul\":4702:4779   */\n      0x4e487b7100000000000000000000000000000000000000000000000000000000\n        /* \"#utility.yul\":4699:4700   */\n      0x00\n        /* \"#utility.yul\":4692:4780   */\n      mstore\n        /* \"#utility.yul\":4799:4803   */\n      0x12\n        /* \"#utility.yul\":4796:4797   */\n      0x04\n        /* \"#utility.yul\":4789:4804   */\n      mstore\n        /* \"#utility.yul\":4823:4827   */\n      0x24\n        /* \"#utility.yul\":4820:4821   */\n      0x00\n        /* \"#utility.yul\":4813:4828   */\n      revert\n        /* \"#utility.yul\":4840:5020   */\n    tag_327:\n        /* \"#utility.yul\":4888:4965   */\n      0x4e487b7100000000000000000000000000000000000000000000000000000000\n        /* \"#utility.yul\":4885:4886   */\n      0x00\n        /* \"#utility.yul\":4878:4966   */\n      mstore\n        /* \"#utility.yul\":4985:4989   */\n      0x11\n        /* \"#utility.yul\":4982:4983   */\n      0x04\n        /* \"#utility.yul\":4975:4990   */\n      mstore\n        /* \"#utility.yul\":5009:5013   */\n      0x24\n        /* \"#utility.yul\":5006:5007   */\n      0x00\n        /* \"#utility.yul\":4999:5014   */\n      revert\n        /* \"#utility.yul\":5026:5220   */\n    tag_157:\n        /* \"#utility.yul\":5066:5070   */\n      0x00\n        /* \"#utility.yul\":5086:5106   */\n      tag_377\n        /* \"#utility.yul\":5104:5105   */\n      dup3\n        /* \"#utility.yul\":5086:5106   */\n      tag_321\n      jump\t// in\n    tag_377:\n        /* \"#utility.yul\":5081:5106   */\n      swap2\n      pop\n        /* \"#utility.yul\":5120:5140   */\n      tag_378\n        /* \"#utility.yul\":5138:5139   */\n      dup4\n        /* \"#utility.yul\":5120:5140   */\n      tag_321\n      jump\t// in\n    tag_378:\n        /* \"#utility.yul\":5115:5140   */\n      swap3\n      pop\n        /* \"#utility.yul\":5164:5165   */\n      dup3\n        /* \"#utility.yul\":5161:5162   */\n      dup3\n        /* \"#utility.yul\":5157:5166   */\n      sub\n        /* \"#utility.yul\":5149:5166   */\n      swap1\n      pop\n        /* \"#utility.yul\":5188:5189   */\n      dup2\n        /* \"#utility.yul\":5182:5186   */\n      dup2\n        /* \"#utility.yul\":5179:5190   */\n      gt\n        /* \"#utility.yul\":5176:5213   */\n      iszero\n      tag_379\n      jumpi\n        /* \"#utility.yul\":5193:5211   */\n      tag_380\n      tag_327\n      jump\t// in\n    tag_380:\n        /* \"#utility.yul\":5176:5213   */\n    tag_379:\n        /* \"#utility.yul\":5026:5220   */\n      swap3\n      swap2\n      pop\n      pop\n      jump\t// out\n\n    auxdata: 0xa2646970667358221220be4e8a435c551ed104dfb4eb962df630b5159eb81dcb12ca7899da2a1e6c445764736f6c634300081f0033\n}\n",
				"bytecode": {
					"linkReferences": {},
					"object": "6080604052348015600e575f5ffd5b506125028061001c5f395ff3fe608060405234801561000f575f5ffd5b506004361061003f575f3560e01c806344f63692146100435780634830667114610073578063a6047e6c1461008f575b5f5ffd5b61005d6004803603810190610058919061227f565b6100ab565b60405161006a9190612359565b60405180910390f35b61008d60048036038101906100889190612393565b61020a565b005b6100a960048036038101906100a491906123d2565b6107c4565b005b6100b36121ef565b6100ec825f600881106100c9576100c8612412565b5b6020020135836001600881106100e2576100e1612412565b5b6020020135610a5d565b815f600481106100ff576100fe612412565b5b6020020181815250506101748260036008811061011f5761011e612412565b5b60200201358360026008811061013857610137612412565b5b60200201358460056008811061015157610150612412565b5b60200201358560046008811061016a57610169612412565b5b6020020135610c0b565b8260026004811061018857610187612412565b5b60200201836001600481106101a05761019f612412565b5b60200201828152508281525050506101e8826006600881106101c5576101c4612412565b5b6020020135836007600881106101de576101dd612412565b5b6020020135610a5d565b816003600481106101fc576101fb612412565b5b602002018181525050919050565b610212612211565b5f5f610234855f6004811061022a57610229612412565b5b60200201356111d7565b915091505f5f5f5f6102768960026004811061025357610252612412565b5b60200201358a60016004811061026c5761026b612412565b5b602002013561130c565b93509350935093505f5f6102a18b60036004811061029757610296612412565b5b60200201356111d7565b915091505f5f6102b08c6116e7565b91509150898b5f601881106102c8576102c7612412565b5b602002018181525050888b6001601881106102e6576102e5612412565b5b602002018181525050868b60026018811061030457610303612412565b5b602002018181525050878b60036018811061032257610321612412565b5b602002018181525050848b6004601881106103405761033f612412565b5b602002018181525050858b60056018811061035e5761035d612412565b5b602002018181525050838b60066018811061037c5761037b612412565b5b602002018181525050828b60076018811061039a57610399612412565b5b6020020181815250507f251a9204c0b04d3aea05b1eb6e6ef06ecf39f81239a50a944cce6106a4fe1fe18b6008601881106103d8576103d7612412565b5b6020020181815250507f10d6b4f1f85d6500c712b9e5c1f474e5faf3de9beb5f179d88a86e3aa89abd138b60096018811061041657610415612412565b5b6020020181815250507f0ece4959040abdb04e14ea8c09ff50b3964fedafbac23b433a874fed6aec04f18b600a6018811061045457610453612412565b5b6020020181815250507f0934486fa3b69fe4b1ffd0256946819210b9774f573fcf613fb68660d8b09d8f8b600b6018811061049257610491612412565b5b6020020181815250507f15b15cbd7fb94741bf19960911920daf5a5452a9374ecea3037ca49666c95bac8b600c601881106104d0576104cf612412565b5b6020020181815250507ee416dc36549cd195123f84ba97dc98267750dfbcffb8c8c7ad823bcf1db6af8b600d6018811061050d5761050c612412565b5b6020020181815250507f2f67d0ec85139dc20e8ab296dd670091efaff9e8ca2a51ab2ecdae79838355b48b600e6018811061054b5761054a612412565b5b6020020181815250507f201cccb47a44b8fd01a18bc186da29ab1d835458ca7718c35c84d5de9a8906c68b600f6018811061058957610588612412565b5b6020020181815250507f01dc682368dc3b993afaed67af1dd8de9e57e52271677c3a60837998578e73c38b6010601881106105c7576105c6612412565b5b6020020181815250507f1c7dc512b19c6b5598975cf3120fae7eb6e5fbb1193f98f19faa6a6109be65418b60116018811061060557610604612412565b5b602002018181525050818b60126018811061062357610622612412565b5b602002018181525050808b60136018811061064157610640612412565b5b6020020181815250507f07a4074ae43e078f049528dffd0ecc6b61b8c6e16b2781fcc26457b50edd085b8b60146018811061067f5761067e612412565b5b6020020181815250507ead051cf897ccdee474e4e0ba77ea59b461cf0f6ded44626b75eabacd68d0a68b6015601881106106bc576106bb612412565b5b6020020181815250507f1c067aab1ec5c37605f2b48fe4f96e6afdcb3f0f97911d460e172e8c968d71578b6016601881106106fa576106f9612412565b5b6020020181815250507f22949b6c5a8ab00da8ef7762080050db1249c28b792998e95b647221defac4728b60176018811061073857610737612412565b5b6020020181815250505f61074a612234565b6020816103008f60085afa915081158061077c57506001815f6001811061077457610773612412565b5b602002015114155b156107b3576040517f7fcdd1f400000000000000000000000000000000000000000000000000000000815260040160405180910390fd5b505050505050505050505050505050565b5f5f6107cf836116e7565b915091505f6040516101008682377f251a9204c0b04d3aea05b1eb6e6ef06ecf39f81239a50a944cce6106a4fe1fe16101008201527f10d6b4f1f85d6500c712b9e5c1f474e5faf3de9beb5f179d88a86e3aa89abd136101208201527f0ece4959040abdb04e14ea8c09ff50b3964fedafbac23b433a874fed6aec04f16101408201527f0934486fa3b69fe4b1ffd0256946819210b9774f573fcf613fb68660d8b09d8f6101608201527f15b15cbd7fb94741bf19960911920daf5a5452a9374ecea3037ca49666c95bac6101808201527ee416dc36549cd195123f84ba97dc98267750dfbcffb8c8c7ad823bcf1db6af6101a08201527f2f67d0ec85139dc20e8ab296dd670091efaff9e8ca2a51ab2ecdae79838355b46101c08201527f201cccb47a44b8fd01a18bc186da29ab1d835458ca7718c35c84d5de9a8906c66101e08201527f01dc682368dc3b993afaed67af1dd8de9e57e52271677c3a60837998578e73c36102008201527f1c7dc512b19c6b5598975cf3120fae7eb6e5fbb1193f98f19faa6a6109be654161022082015283610240820152826102608201527f07a4074ae43e078f049528dffd0ecc6b61b8c6e16b2781fcc26457b50edd085b6102808201527ead051cf897ccdee474e4e0ba77ea59b461cf0f6ded44626b75eabacd68d0a66102a08201527f1c067aab1ec5c37605f2b48fe4f96e6afdcb3f0f97911d460e172e8c968d71576102c08201527f22949b6c5a8ab00da8ef7762080050db1249c28b792998e95b647221defac4726102e08201526020816103008360085afa91508051821691505080610a56576040517f7fcdd1f400000000000000000000000000000000000000000000000000000000815260040160405180910390fd5b5050505050565b5f7f30644e72e131a029b85045b68181585d97816a916871ca8d3c208c16d87cfd4783101580610aad57507f30644e72e131a029b85045b68181585d97816a916871ca8d3c208c16d87cfd478210155b15610ae4576040517f7fcdd1f400000000000000000000000000000000000000000000000000000000815260040160405180910390fd5b5f83148015610af257505f82145b15610aff575f9050610c05565b5f610b9d7f30644e72e131a029b85045b68181585d97816a916871ca8d3c208c16d87cfd4780610b3257610b3161243f565b5b60037f30644e72e131a029b85045b68181585d97816a916871ca8d3c208c16d87cfd4780610b6357610b6261243f565b5b877f30644e72e131a029b85045b68181585d97816a916871ca8d3c208c16d87cfd4780610b9357610b9261243f565b5b898a090908611c4f565b9050808303610bb5575f600185901b17915050610c05565b610bbe81611ceb565b8303610bd35760018085901b17915050610c05565b6040517f7fcdd1f400000000000000000000000000000000000000000000000000000000815260040160405180910390fd5b92915050565b5f5f7f30644e72e131a029b85045b68181585d97816a916871ca8d3c208c16d87cfd4786101580610c5c57507f30644e72e131a029b85045b68181585d97816a916871ca8d3c208c16d87cfd478510155b80610c8757507f30644e72e131a029b85045b68181585d97816a916871ca8d3c208c16d87cfd478410155b80610cb257507f30644e72e131a029b85045b68181585d97816a916871ca8d3c208c16d87cfd478310155b15610ce9576040517f7fcdd1f400000000000000000000000000000000000000000000000000000000815260040160405180910390fd5b5f8385878917171703610d01575f5f915091506111ce565b5f5f5f7f30644e72e131a029b85045b68181585d97816a916871ca8d3c208c16d87cfd4780610d3357610d3261243f565b5b60037f30644e72e131a029b85045b68181585d97816a916871ca8d3c208c16d87cfd47610d609190612499565b7f30644e72e131a029b85045b68181585d97816a916871ca8d3c208c16d87cfd4780610d8f57610d8e61243f565b5b8a8c090990505f7f30644e72e131a029b85045b68181585d97816a916871ca8d3c208c16d87cfd4780610dc557610dc461243f565b5b8a7f30644e72e131a029b85045b68181585d97816a916871ca8d3c208c16d87cfd4780610df557610df461243f565b5b8c8d090990505f7f30644e72e131a029b85045b68181585d97816a916871ca8d3c208c16d87cfd4780610e2b57610e2a61243f565b5b8a7f30644e72e131a029b85045b68181585d97816a916871ca8d3c208c16d87cfd4780610e5b57610e5a61243f565b5b8c8d090990507f30644e72e131a029b85045b68181585d97816a916871ca8d3c208c16d87cfd4780610e9057610e8f61243f565b5b7f30644e72e131a029b85045b68181585d97816a916871ca8d3c208c16d87cfd4780610ebf57610ebe61243f565b5b7f30644e72e131a029b85045b68181585d97816a916871ca8d3c208c16d87cfd4780610eee57610eed61243f565b5b8c860984087f2b149d40ceb8aaae81be18991be06ac3b5b4c5e559dbefa33267e6dc24a138e5089450610fd37f30644e72e131a029b85045b68181585d97816a916871ca8d3c208c16d87cfd4780610f4957610f4861243f565b5b7f30644e72e131a029b85045b68181585d97816a916871ca8d3c208c16d87cfd4780610f7857610f7761243f565b5b7f30644e72e131a029b85045b68181585d97816a916871ca8d3c208c16d87cfd4780610fa757610fa661243f565b5b8e870984087f2fcd3ac2a640a154eb23960892a85a68f031ca0c8344b23a577dcf1052b9e77508611ceb565b93505050505f5f6110767f30644e72e131a029b85045b68181585d97816a916871ca8d3c208c16d87cfd478061100c5761100b61243f565b5b7f30644e72e131a029b85045b68181585d97816a916871ca8d3c208c16d87cfd478061103b5761103a61243f565b5b8586097f30644e72e131a029b85045b68181585d97816a916871ca8d3c208c16d87cfd478061106d5761106c61243f565b5b87880908611c4f565b90506111037f30644e72e131a029b85045b68181585d97816a916871ca8d3c208c16d87cfd47806110aa576110a961243f565b5b7f183227397098d014dc2822db40c0ac2ecbc0b548b438e5469e10460b6c3e7ea47f30644e72e131a029b85045b68181585d97816a916871ca8d3c208c16d87cfd47806110fa576110f961243f565b5b84880809611d56565b15915050611112838383611dc0565b8093508194505050828714801561112857508186145b15611150575f81611139575f61113c565b60025b60ff1660028b901b171794508793506111ca565b61115983611ceb565b8714801561116e575061116b82611ceb565b86145b1561119757600181611180575f611183565b60025b60ff1660028b901b171794508793506111c9565b6040517f7fcdd1f400000000000000000000000000000000000000000000000000000000815260040160405180910390fd5b5b5050505b94509492505050565b5f5f5f83036111eb575f5f91509150611307565b5f6001808516149050600184901c92507f30644e72e131a029b85045b68181585d97816a916871ca8d3c208c16d87cfd478310611254576040517f7fcdd1f400000000000000000000000000000000000000000000000000000000815260040160405180910390fd5b6112f17f30644e72e131a029b85045b68181585d97816a916871ca8d3c208c16d87cfd47806112865761128561243f565b5b60037f30644e72e131a029b85045b68181585d97816a916871ca8d3c208c16d87cfd47806112b7576112b661243f565b5b867f30644e72e131a029b85045b68181585d97816a916871ca8d3c208c16d87cfd47806112e7576112e661243f565b5b8889090908611c4f565b915080156113055761130282611ceb565b91505b505b915091565b5f5f5f5f5f8614801561131e57505f85145b15611334575f5f5f5f93509350935093506116de565b5f60018088161490505f6002808916149050600288901c95508694507f30644e72e131a029b85045b68181585d97816a916871ca8d3c208c16d87cfd478610158061139f57507f30644e72e131a029b85045b68181585d97816a916871ca8d3c208c16d87cfd478510155b156113d6576040517f7fcdd1f400000000000000000000000000000000000000000000000000000000815260040160405180910390fd5b5f7f30644e72e131a029b85045b68181585d97816a916871ca8d3c208c16d87cfd47806114065761140561243f565b5b60037f30644e72e131a029b85045b68181585d97816a916871ca8d3c208c16d87cfd476114339190612499565b7f30644e72e131a029b85045b68181585d97816a916871ca8d3c208c16d87cfd47806114625761146161243f565b5b888a090990505f7f30644e72e131a029b85045b68181585d97816a916871ca8d3c208c16d87cfd47806114985761149761243f565b5b887f30644e72e131a029b85045b68181585d97816a916871ca8d3c208c16d87cfd47806114c8576114c761243f565b5b8a8b090990505f7f30644e72e131a029b85045b68181585d97816a916871ca8d3c208c16d87cfd47806114fe576114fd61243f565b5b887f30644e72e131a029b85045b68181585d97816a916871ca8d3c208c16d87cfd478061152e5761152d61243f565b5b8a8b090990507f30644e72e131a029b85045b68181585d97816a916871ca8d3c208c16d87cfd47806115635761156261243f565b5b7f30644e72e131a029b85045b68181585d97816a916871ca8d3c208c16d87cfd47806115925761159161243f565b5b7f30644e72e131a029b85045b68181585d97816a916871ca8d3c208c16d87cfd47806115c1576115c061243f565b5b8a860984087f2b149d40ceb8aaae81be18991be06ac3b5b4c5e559dbefa33267e6dc24a138e50896506116a67f30644e72e131a029b85045b68181585d97816a916871ca8d3c208c16d87cfd478061161c5761161b61243f565b5b7f30644e72e131a029b85045b68181585d97816a916871ca8d3c208c16d87cfd478061164b5761164a61243f565b5b7f30644e72e131a029b85045b68181585d97816a916871ca8d3c208c16d87cfd478061167a5761167961243f565b5b8c870984087f2fcd3ac2a640a154eb23960892a85a68f031ca0c8344b23a577dcf1052b9e77508611ceb565b95506116b3878786611dc0565b809750819850505084156116d8576116ca87611ceb565b96506116d586611ceb565b95505b50505050505b92959194509250565b5f5f5f60019050604051604081015f7f2d9f54e04224b45b04d4c1cb19a2c6c9f6f2361d545f8e2ba19e6b175690f93283527f102a776c788ddb493c98588187fbd592fd9a0b792154b1ea0049a02f837cde9460208401527f188babbe8b12a64563ee76c05e3efc705f330f07e46d2c976a18e7a1455da10f82527f219e542d567415ca8d13d3e5861db017b741fce5c71eeb10e9887d82fa73578e6020830152863590508060408301527f30644e72e131a029b85045b68181585d2833e84879b9709143e1f593f000000181108416935060408260608460075afa8416935060408360808560065afa841693507f26e9b3e8de109c2032c4005922e052a50b39123a63bab4b145d75f70a728985c82527f0e3ace0d01e11ccd0912af2599e59e541ba4f7f1154ee415e2471c64b01353396020830152602087013590508060408301527f30644e72e131a029b85045b68181585d2833e84879b9709143e1f593f000000181108416935060408260608460075afa8416935060408360808560065afa841693507f279b124ba4f24cb5e051f6b4b730bbb0f79dbe0cb820199e96ac81610730d20282527f02857f17a5167caf4ed09ed729ec0e676893e425f3c1a0036835642b231a7c9f6020830152604087013590508060408301527f30644e72e131a029b85045b68181585d2833e84879b9709143e1f593f000000181108416935060408260608460075afa8416935060408360808560065afa841693507f28d70cd1a8837597fd8bf94a6d2952757dab302d61a281515629ccaf302a752082527f18effeed550fdad1faa777820f7e03534843c10f9d14348385b2095f4a0ee4e46020830152606087013590508060408301527f30644e72e131a029b85045b68181585d2833e84879b9709143e1f593f000000181108416935060408260608460075afa8416935060408360808560065afa841693507f1e77b2de20158e417b065f78cb102e00faf401479712a9e89cc3e4ce5141645c82527f06d0dec2fda72642620c4e16f365b593a1474575516bae3e72598181ce352e1a6020830152608087013590508060408301527f30644e72e131a029b85045b68181585d2833e84879b9709143e1f593f000000181108416935060408260608460075afa8416935060408360808560065afa841693507f1de74c79e98100affbd99eb20b41f1060b82944af36df82c76ae1332faf135b082527f1d265e7e19d543e80867a545d30e9c4cc337032a3bf1fa99c26df1f55c641ff5602083015260a087013590508060408301527f30644e72e131a029b85045b68181585d2833e84879b9709143e1f593f000000181108416935060408260608460075afa8416935060408360808560065afa841693507f1a80e631574538a42f22053f0d7e748b3fef9a75b449901e52c4888317e3822b82527f12119ac6eac14ec6968239d9835a2330c4ffdcf8ac4e30d51d48a0f166344e2d602083015260c087013590508060408301527f30644e72e131a029b85045b68181585d2833e84879b9709143e1f593f000000181108416935060408260608460075afa8416935060408360808560065afa841693507f10e9250ec0c3f01059f3b1331ae3424d6c67e3cf1e8e8141f58ea9c01f6f1d2382527f1324e24dcff3172c39dcb3223625cd9bc921212dfab12b3784a3ef8216ae9936602083015260e087013590508060408301527f30644e72e131a029b85045b68181585d2833e84879b9709143e1f593f000000181108416935060408260608460075afa8416935060408360808560065afa84169350825195506020830151945050505080611c49576040517fa54f8e2700000000000000000000000000000000000000000000000000000000815260040160405180910390fd5b50915091565b5f611c7a827f0c19139cb84c680a6e14116da060561765e05aa45a1c72a34f082305b61f3f526120bb565b9050817f30644e72e131a029b85045b68181585d97816a916871ca8d3c208c16d87cfd4780611cac57611cab61243f565b5b82830914611ce6576040517f7fcdd1f400000000000000000000000000000000000000000000000000000000815260040160405180910390fd5b919050565b5f7f30644e72e131a029b85045b68181585d97816a916871ca8d3c208c16d87cfd47808381611d1d57611d1c61243f565b5b067f30644e72e131a029b85045b68181585d97816a916871ca8d3c208c16d87cfd470381611d4e57611d4d61243f565b5b069050919050565b5f5f611d82837f0c19139cb84c680a6e14116da060561765e05aa45a1c72a34f082305b61f3f526120bb565b9050827f30644e72e131a029b85045b68181585d97816a916871ca8d3c208c16d87cfd4780611db457611db361243f565b5b82830914915050919050565b5f5f5f611e5f7f30644e72e131a029b85045b68181585d97816a916871ca8d3c208c16d87cfd4780611df557611df461243f565b5b7f30644e72e131a029b85045b68181585d97816a916871ca8d3c208c16d87cfd4780611e2457611e2361243f565b5b8788097f30644e72e131a029b85045b68181585d97816a916871ca8d3c208c16d87cfd4780611e5657611e5561243f565b5b898a0908611c4f565b90508315611e7357611e7081611ceb565b90505b611efe7f30644e72e131a029b85045b68181585d97816a916871ca8d3c208c16d87cfd4780611ea557611ea461243f565b5b7f183227397098d014dc2822db40c0ac2ecbc0b548b438e5469e10460b6c3e7ea47f30644e72e131a029b85045b68181585d97816a916871ca8d3c208c16d87cfd4780611ef557611ef461243f565b5b848a0809611c4f565b92507f30644e72e131a029b85045b68181585d97816a916871ca8d3c208c16d87cfd4780611f2f57611f2e61243f565b5b611f6a7f30644e72e131a029b85045b68181585d97816a916871ca8d3c208c16d87cfd4780611f6157611f6061243f565b5b60028609612152565b860991507f30644e72e131a029b85045b68181585d97816a916871ca8d3c208c16d87cfd4780611f9d57611f9c61243f565b5b611fd77f30644e72e131a029b85045b68181585d97816a916871ca8d3c208c16d87cfd4780611fcf57611fce61243f565b5b848509611ceb565b7f30644e72e131a029b85045b68181585d97816a916871ca8d3c208c16d87cfd47806120065761200561243f565b5b858609088614158061207b57507f30644e72e131a029b85045b68181585d97816a916871ca8d3c208c16d87cfd47806120425761204161243f565b5b7f30644e72e131a029b85045b68181585d97816a916871ca8d3c208c16d87cfd47806120715761207061243f565b5b8385096002098514155b156120b2576040517f7fcdd1f400000000000000000000000000000000000000000000000000000000815260040160405180910390fd5b50935093915050565b5f5f60405160208152602080820152602060408201528460608201528360808201527f30644e72e131a029b85045b68181585d97816a916871ca8d3c208c16d87cfd4760a082015260208160c08360055afa915080519250508061214b576040517f7fcdd1f400000000000000000000000000000000000000000000000000000000815260040160405180910390fd5b5092915050565b5f61217d827f30644e72e131a029b85045b68181585d97816a916871ca8d3c208c16d87cfd456120bb565b905060017f30644e72e131a029b85045b68181585d97816a916871ca8d3c208c16d87cfd47806121b0576121af61243f565b5b828409146121ea576040517f7fcdd1f400000000000000000000000000000000000000000000000000000000815260040160405180910390fd5b919050565b6040518060800160405280600490602082028036833780820191505090505090565b604051806103000160405280601890602082028036833780820191505090505090565b6040518060200160405280600190602082028036833780820191505090505090565b5f5ffd5b5f5ffd5b5f819050826020600802820111156122795761227861225a565b5b92915050565b5f610100828403121561229557612294612256565b5b5f6122a28482850161225e565b91505092915050565b5f60049050919050565b5f81905092915050565b5f819050919050565b5f819050919050565b6122da816122c8565b82525050565b5f6122eb83836122d1565b60208301905092915050565b5f602082019050919050565b61230c816122ab565b61231681846122b5565b9250612321826122bf565b805f5b8381101561235157815161233887826122e0565b9650612343836122f7565b925050600181019050612324565b505050505050565b5f60808201905061236c5f830184612303565b92915050565b5f8190508260206004028201111561238d5761238c61225a565b5b92915050565b5f5f61018083850312156123aa576123a9612256565b5b5f6123b785828601612372565b92505060806123c88582860161225e565b9150509250929050565b5f5f61020083850312156123e9576123e8612256565b5b5f6123f68582860161225e565b9250506101006124088582860161225e565b9150509250929050565b7f4e487b71000000000000000000000000000000000000000000000000000000005f52603260045260245ffd5b7f4e487b71000000000000000000000000000000000000000000000000000000005f52601260045260245ffd5b7f4e487b71000000000000000000000000000000000000000000000000000000005f52601160045260245ffd5b5f6124a3826122c8565b91506124ae836122c8565b92508282039050818111156124c6576124c561246c565b5b9291505056fea2646970667358221220be4e8a435c551ed104dfb4eb962df630b5159eb81dcb12ca7899da2a1e6c445764736f6c634300081f0033",
					"opcodes": "PUSH1 0x80 PUSH1 0x40 MSTORE CALLVALUE DUP1 ISZERO PUSH1 0xE JUMPI PUSH0 PUSH0 REVERT JUMPDEST POP PUSH2 0x2502 DUP1 PUSH2 0x1C PUSH0 CODECOPY PUSH0 RETURN INVALID PUSH1 0x80 PUSH1 0x40 MSTORE CALLVALUE DUP1 ISZERO PUSH2 0xF JUMPI PUSH0 PUSH0 REVERT JUMPDEST POP PUSH1 0x4 CALLDATASIZE LT PUSH2 0x3F JUMPI PUSH0 CALLDATALOAD PUSH1 0xE0 SHR DUP1 PUSH4 0x44F63692 EQ PUSH2 0x43 JUMPI DUP1 PUSH4 0x48306671 EQ PUSH2 0x73 JUMPI DUP1 PUSH4 0xA6047E6C EQ PUSH2 0x8F JUMPI JUMPDEST PUSH0 PUSH0 REVERT JUMPDEST PUSH2 0x5D PUSH1 0x4 DUP1 CALLDATASIZE SUB DUP2 ADD SWAP1 PUSH2 0x58 SWAP2 SWAP1 PUSH2 0x227F JUMP JUMPDEST PUSH2 0xAB JUMP JUMPDEST PUSH1 0x40 MLOAD PUSH2 0x6A SWAP2 SWAP1 PUSH2 0x2359 JUMP JUMPDEST PUSH1 0x40 MLOAD DUP1 SWAP2 SUB SWAP1 RETURN JUMPDEST PUSH2 0x8D PUSH1 0x4 DUP1 CALLDATASIZE SUB DUP2 ADD SWAP1 PUSH2 0x88 SWAP2 SWAP1 PUSH2 0x2393 JUMP JUMPDEST PUSH2 0x20A JUMP JUMPDEST STOP JUMPDEST PUSH2 0xA9 PUSH1 0x4 DUP1 CALLDATASIZE SUB DUP2 ADD SWAP1 PUSH2 0xA4 SWAP2 SWAP1 PUSH2 0x23D2 JUMP JUMPDEST PUSH2 0x7C4 JUMP JUMPDEST STOP JUMPDEST PUSH2 0xB3 PUSH2 0x21EF JUMP JUMPDEST PUSH2 0xEC DUP3 PUSH0 PUSH1 0x8 DUP2 LT PUSH2 0xC9 JUMPI PUSH2 0xC8 PUSH2 0x2412 JUMP JUMPDEST JUMPDEST PUSH1 0x20 MUL ADD CALLDATALOAD DUP4 PUSH1 0x1 PUSH1 0x8 DUP2 LT PUSH2 0xE2 JUMPI PUSH2 0xE1 PUSH2 0x2412 JUMP JUMPDEST JUMPDEST PUSH1 0x20 MUL ADD CALLDATALOAD PUSH2 0xA5D JUMP JUMPDEST DUP2 PUSH0 PUSH1 0x4 DUP2 LT PUSH2 0xFF JUMPI PUSH2 0xFE PUSH2 0x2412 JUMP JUMPDEST JUMPDEST PUSH1 0x20 MUL ADD DUP2 DUP2 MSTORE POP POP PUSH2 0x174 DUP3 PUSH1 0x3 PUSH1 0x8 DUP2 LT PUSH2 0x11F JUMPI PUSH2 0x11E PUSH2 0x2412 JUMP JUMPDEST JUMPDEST PUSH1 0x20 MUL ADD CALLDATALOAD DUP4 PUSH1 0x2 PUSH1 0x8 DUP2 LT PUSH2 0x138 JUMPI PUSH2 0x137 PUSH2 0x2412 JUMP JUMPDEST JUMPDEST PUSH1 0x20 MUL ADD CALLDATALOAD DUP5 PUSH1 0x5 PUSH1 0x8 DUP2 LT PUSH2 0x151 JUMPI PUSH2 0x150 PUSH2 0x2412 JUMP JUMPDEST JUMPDEST PUSH1 0x20 MUL ADD CALLDATALOAD DUP6 PUSH1 0x4 PUSH1 0x8 DUP2 LT PUSH2 0x16A JUMPI PUSH2 0x169 PUSH2 0x2412 JUMP JUMPDEST JUMPDEST PUSH1 0x20 MUL ADD CALLDATALOAD PUSH2 0xC0B JUMP JUMPDEST DUP3 PUSH1 0x2 PUSH1 0x4 DUP2 LT PUSH2 0x188 JUMPI PUSH2 0x187 PUSH2 0x2412 JUMP JUMPDEST JUMPDEST PUSH1 0x20 MUL ADD DUP4 PUSH1 0x1 PUSH1 0x4 DUP2 LT PUSH2 0x1A0 JUMPI PUSH2 0x19F PUSH2 0x2412 JUMP JUMPDEST JUMPDEST PUSH1 0x20 MUL ADD DUP3 DUP2 MSTORE POP DUP3 DUP2 MSTORE POP POP POP PUSH2 0x1E8 DUP3 PUSH1 0x6 PUSH1 0x8 DUP2 LT PUSH2 0x1C5 JUMPI PUSH2 0x1C4 PUSH2 0x2412 JUMP JUMPDEST JUMPDEST PUSH1 0x20 MUL ADD CALLDATALOAD DUP4 PUSH1 0x7 PUSH1 0x8 DUP2 LT PUSH2 0x1DE JUMPI PUSH2 0x1DD PUSH2 0x2412 JUMP JUMPDEST JUMPDEST PUSH1 0x20 MUL ADD CALLDATALOAD PUSH2 0xA5D JUMP JUMPDEST DUP2 PUSH1 0x3 PUSH1 0x4 DUP2 LT PUSH2 0x1FC JUMPI PUSH2 0x1FB PUSH2 0x2412 JUMP JUMPDEST JUMPDEST PUSH1 0x20 MUL ADD DUP2 DUP2 MSTORE POP POP SWAP2 SWAP1 POP JUMP JUMPDEST PUSH2 0x212 PUSH2 0x2211 JUMP JUMPDEST PUSH0 PUSH0 PUSH2 0x234 DUP6 PUSH0 PUSH1 0x4 DUP2 LT PUSH2 0x22A JUMPI PUSH2 0x229 PUSH2 0x2412 JUMP JUMPDEST JUMPDEST PUSH1 0x20 MUL ADD CALLDATALOAD PUSH2 0x11D7 JUMP JUMPDEST SWAP2 POP SWAP2 POP PUSH0 PUSH0 PUSH0 PUSH0 PUSH2 0x276 DUP10 PUSH1 0x2 PUSH1 0x4 DUP2 LT PUSH2 0x253 JUMPI PUSH2 0x252 PUSH2 0x2412 JUMP JUMPDEST JUMPDEST PUSH1 0x20 MUL ADD CALLDATALOAD DUP11 PUSH1 0x1 PUSH1 0x4 DUP2 LT PUSH2 0x26C JUMPI PUSH2 0x26B PUSH2 0x2412 JUMP JUMPDEST JUMPDEST PUSH1 0x20 MUL ADD CALLDATALOAD PUSH2 0x130C JUMP JUMPDEST SWAP4 POP SWAP4 POP SWAP4 POP SWAP4 POP PUSH0 PUSH0 PUSH2 0x2A1 DUP12 PUSH1 0x3 PUSH1 0x4 DUP2 LT PUSH2 0x297 JUMPI PUSH2 0x296 PUSH2 0x2412 JUMP JUMPDEST JUMPDEST PUSH1 0x20 MUL ADD CALLDATALOAD PUSH2 0x11D7 JUMP JUMPDEST SWAP2 POP SWAP2 POP PUSH0 PUSH0 PUSH2 0x2B0 DUP13 PUSH2 0x16E7 JUMP JUMPDEST SWAP2 POP SWAP2 POP DUP10 DUP12 PUSH0 PUSH1 0x18 DUP2 LT PUSH2 0x2C8 JUMPI PUSH2 0x2C7 PUSH2 0x2412 JUMP JUMPDEST JUMPDEST PUSH1 0x20 MUL ADD DUP2 DUP2 MSTORE POP POP DUP9 DUP12 PUSH1 0x1 PUSH1 0x18 DUP2 LT PUSH2 0x2E6 JUMPI PUSH2 0x2E5 PUSH2 0x2412 JUMP JUMPDEST JUMPDEST PUSH1 0x20 MUL ADD DUP2 DUP2 MSTORE POP POP DUP7 DUP12 PUSH1 0x2 PUSH1 0x18 DUP2 LT PUSH2 0x304 JUMPI PUSH2 0x303 PUSH2 0x2412 JUMP JUMPDEST JUMPDEST PUSH1 0x20 MUL ADD DUP2 DUP2 MSTORE POP POP DUP8 DUP12 PUSH1 0x3 PUSH1 0x18 DUP2 LT PUSH2 0x322 JUMPI PUSH2 0x321 PUSH2 0x2412 JUMP JUMPDEST JUMPDEST PUSH1 0x20 MUL ADD DUP2 DUP2 MSTORE POP POP DUP5 DUP12 PUSH1 0x4 PUSH1 0x18 DUP2 LT PUSH2 0x340 JUMPI PUSH2 0x33F PUSH2 0x2412 JUMP JUMPDEST JUMPDEST PUSH1 0x20 MUL ADD DUP2 DUP2 MSTORE POP POP DUP6 DUP12 PUSH1 0x5 PUSH1 0x18 DUP2 LT PUSH2 0x35E JUMPI PUSH2 0x35D PUSH2 0x2412 JUMP JUMPDEST JUMPDEST PUSH1 0x20 MUL ADD DUP2 DUP2 MSTORE POP POP DUP4 DUP12 PUSH1 0x6 PUSH1 0x18 DUP2 LT PUSH2 0x37C JUMPI PUSH2 0x37B PUSH2 0x2412 JUMP JUMPDEST JUMPDEST PUSH1 0x20 MUL ADD DUP2 DUP2 MSTORE POP POP DUP3 DUP12 PUSH1 0x7 PUSH1 0x18 DUP2 LT PUSH2 0x39A JUMPI PUSH2 0x399 PUSH2 0x2412 JUMP JUMPDEST JUMPDEST PUSH1 0x20 MUL ADD DUP2 DUP2 MSTORE POP POP PUSH32 0x251A9204C0B04D3AEA05B1EB6E6EF06ECF39F81239A50A944CCE6106A4FE1FE1 DUP12 PUSH1 0x8 PUSH1 0x18 DUP2 LT PUSH2 0x3D8 JUMPI PUSH2 0x3D7 PUSH2 0x2412 JUMP JUMPDEST JUMPDEST PUSH1 0x20 MUL ADD DUP2 DUP2 MSTORE POP POP PUSH32 0x10D6B4F1F85D6500C712B9E5C1F474E5FAF3DE9BEB5F179D88A86E3AA89ABD13 DUP12 PUSH1 0x9 PUSH1 0x18 DUP2 LT PUSH2 0x416 JUMPI PUSH2 0x415 PUSH2 0x2412 JUMP JUMPDEST JUMPDEST PUSH1 0x20 MUL ADD DUP2 DUP2 MSTORE POP POP PUSH32 0xECE4959040ABDB04E14EA8C09FF50B3964FEDAFBAC23B433A874FED6AEC04F1 DUP12 PUSH1 0xA PUSH1 0x18 DUP2 LT PUSH2 0x454 JUMPI PUSH2 0x453 PUSH2 0x2412 JUMP JUMPDEST JUMPDEST PUSH1 0x20 MUL ADD DUP2 DUP2 MSTORE POP POP PUSH32 0x934486FA3B69FE4B1FFD0256946819210B9774F573FCF613FB68660D8B09D8F DUP12 PUSH1 0xB PUSH1 0x18 DUP2 LT PUSH2 0x492 JUMPI PUSH2 0x491 PUSH2 0x2412 JUMP JUMPDEST JUMPDEST PUSH1 0x20 MUL ADD DUP2 DUP2 MSTORE POP POP PUSH32 0x15B15CBD7FB94741BF19960911920DAF5A5452A9374ECEA3037CA49666C95BAC DUP12 PUSH1 0xC PUSH1 0x18 DUP2 LT PUSH2 0x4D0 JUMPI PUSH2 0x4CF PUSH2 0x2412 JUMP JUMPDEST JUMPDEST PUSH1 0x20 MUL ADD DUP2 DUP2 MSTORE POP POP PUSH31 0xE416DC36549CD195123F84BA97DC98267750DFBCFFB8C8C7AD823BCF1DB6AF DUP12 PUSH1 0xD PUSH1 0x18 DUP2 LT PUSH2 0x50D JUMPI PUSH2 0x50C PUSH2 0x2412 JUMP JUMPDEST JUMPDEST PUSH1 0x20 MUL ADD DUP2 DUP2 MSTORE POP POP PUSH32 0x2F67D0EC85139DC20E8AB296DD670091EFAFF9E8CA2A51AB2ECDAE79838355B4 DUP12 PUSH1 0xE PUSH1 0x18 DUP2 LT PUSH2 0x54B JUMPI PUSH2 0x54A PUSH2 0x2412 JUMP JUMPDEST JUMPDEST PUSH1 0x20 MUL ADD DUP2 DUP2 MSTORE POP POP PUSH32 0x201CCCB47A44B8FD01A18BC186DA29AB1D835458CA7718C35C84D5DE9A8906C6 DUP12 PUSH1 0xF PUSH1 0x18 DUP2 LT PUSH2 0x589 JUMPI PUSH2 0x588 PUSH2 0x2412 JUMP JUMPDEST JUMPDEST PUSH1 0x20 MUL ADD DUP2 DUP2 MSTORE POP POP PUSH32 0x1DC682368DC3B993AFAED67AF1DD8DE9E57E52271677C3A60837998578E73C3 DUP12 PUSH1 0x10 PUSH1 0x18 DUP2 LT PUSH2 0x5C7 JUMPI PUSH2 0x5C6 PUSH2 0x2412 JUMP JUMPDEST JUMPDEST PUSH1 0x20 MUL ADD DUP2 DUP2 MSTORE POP POP PUSH32 0x1C7DC512B19C6B5598975CF3120FAE7EB6E5FBB1193F98F19FAA6A6109BE6541 DUP12 PUSH1 0x11 PUSH1 0x18 DUP2 LT PUSH2 0x605 JUMPI PUSH2 0x604 PUSH2 0x2412 JUMP JUMPDEST JUMPDEST PUSH1 0x20 MUL ADD DUP2 DUP2 MSTORE POP POP DUP2 DUP12 PUSH1 0x12 PUSH1 0x18 DUP2 LT PUSH2 0x623 JUMPI PUSH2 0x622 PUSH2 0x2412 JUMP JUMPDEST JUMPDEST PUSH1 0x20 MUL ADD DUP2 DUP2 MSTORE POP POP DUP1 DUP12 PUSH1 0x13 PUSH1 0x18 DUP2 LT PUSH2 0x641 JUMPI PUSH2 0x640 PUSH2 0x2412 JUMP JUMPDEST JUMPDEST PUSH1 0x20 MUL ADD DUP2 DUP2 MSTORE POP POP PUSH32 0x7A4074AE43E078F049528DFFD0ECC6B61B8C6E16B2781FCC26457B50EDD085B DUP12 PUSH1 0x14 PUSH1 0x18 DUP2 LT PUSH2 0x67F JUMPI PUSH2 0x67E PUSH2 0x2412 JUMP JUMPDEST JUMPDEST PUSH1 0x20 MUL ADD DUP2 DUP2 MSTORE POP POP PUSH31 0xAD051CF897CCDEE474E4E0BA77EA59B461CF0F6DED44626B75EABACD68D0A6 DUP12 PUSH1 0x15 PUSH1 0x18 DUP2 LT PUSH2 0x6BC JUMPI PUSH2 0x6BB PUSH2 0x2412 JUMP JUMPDEST JUMPDEST PUSH1 0x20 MUL ADD DUP2 DUP2 MSTORE POP POP PUSH32 0x1C067AAB1EC5C37605F2B48FE4F96E6AFDCB3F0F97911D460E172E8C968D7157 DUP12 PUSH1 0x16 PUSH1 0x18 DUP2 LT PUSH2 0x6FA JUMPI PUSH2 0x6F9 PUSH2 0x2412 JUMP JUMPDEST JUMPDEST PUSH1 0x20 MUL ADD DUP2 DUP2 MSTORE POP POP PUSH32 0x22949B6C5A8AB00DA8EF7762080050DB1249C28B792998E95B647221DEFAC472 DUP12 PUSH1 0x17 PUSH1 0x18 DUP2 LT PUSH2 0x738 JUMPI PUSH2 0x737 PUSH2 0x2412 JUMP JUMPDEST JUMPDEST PUSH1 0x20 MUL ADD DUP2 DUP2 MSTORE POP POP PUSH0 PUSH2 0x74A PUSH2 0x2234 JUMP JUMPDEST PUSH1 0x20 DUP2 PUSH2 0x300 DUP16 PUSH1 0x8 GAS STATICCALL SWAP2 POP DUP2 ISZERO DUP1 PUSH2 0x77C JUMPI POP PUSH1 0x1 DUP2 PUSH0 PUSH1 0x1 DUP2 LT PUSH2 0x774 JUMPI PUSH2 0x773 PUSH2 0x2412 JUMP JUMPDEST JUMPDEST PUSH1 0x20 MUL ADD MLOAD EQ ISZERO JUMPDEST ISZERO PUSH2 0x7B3 JUMPI PUSH1 0x40 MLOAD PUSH32 0x7FCDD1F400000000000000000000000000000000000000000000000000000000 DUP2 MSTORE PUSH1 0x4 ADD PUSH1 0x40 MLOAD DUP1 SWAP2 SUB SWAP1 REVERT JUMPDEST POP POP POP POP POP POP POP POP POP POP POP POP POP POP POP JUMP JUMPDEST PUSH0 PUSH0 PUSH2 0x7CF DUP4 PUSH2 0x16E7 JUMP JUMPDEST SWAP2 POP SWAP2 POP PUSH0 PUSH1 0x40 MLOAD PUSH2 0x100 DUP7 DUP3 CALLDATACOPY PUSH32 0x251A9204C0B04D3AEA05B1EB6E6EF06ECF39F81239A50A944CCE6106A4FE1FE1 PUSH2 0x100 DUP3 ADD MSTORE PUSH32 0x10D6B4F1F85D6500C712B9E5C1F474E5FAF3DE9BEB5F179D88A86E3AA89ABD13 PUSH2 0x120 DUP3 ADD MSTORE PUSH32 0xECE4959040ABDB04E14EA8C09FF50B3964FEDAFBAC23B433A874FED6AEC04F1 PUSH2 0x140 DUP3 ADD MSTORE PUSH32 0x934486FA3B69FE4B1FFD0256946819210B9774F573FCF613FB68660D8B09D8F PUSH2 0x160 DUP3 ADD MSTORE PUSH32 0x15B15CBD7FB94741BF19960911920DAF5A5452A9374ECEA3037CA49666C95BAC PUSH2 0x180 DUP3 ADD MSTORE PUSH31 0xE416DC36549CD195123F84BA97DC98267750DFBCFFB8C8C7AD823BCF1DB6AF PUSH2 0x1A0 DUP3 ADD MSTORE PUSH32 0x2F67D0EC85139DC20E8AB296DD670091EFAFF9E8CA2A51AB2ECDAE79838355B4 PUSH2 0x1C0 DUP3 ADD MSTORE PUSH32 0x201CCCB47A44B8FD01A18BC186DA29AB1D835458CA7718C35C84D5DE9A8906C6 PUSH2 0x1E0 DUP3 ADD MSTORE PUSH32 0x1DC682368DC3B993AFAED67AF1DD8DE9E57E52271677C3A60837998578E73C3 PUSH2 0x200 DUP3 ADD MSTORE PUSH32 0x1C7DC512B19C6B5598975CF3120FAE7EB6E5FBB1193F98F19FAA6A6109BE6541 PUSH2 0x220 DUP3 ADD MSTORE DUP4 PUSH2 0x240 DUP3 ADD MSTORE DUP3 PUSH2 0x260 DUP3 ADD MSTORE PUSH32 0x7A4074AE43E078F049528DFFD0ECC6B61B8C6E16B2781FCC26457B50EDD085B PUSH2 0x280 DUP3 ADD MSTORE PUSH31 0xAD051CF897CCDEE474E4E0BA77EA59B461CF0F6DED44626B75EABACD68D0A6 PUSH2 0x2A0 DUP3 ADD MSTORE PUSH32 0x1C067AAB1EC5C37605F2B48FE4F96E6AFDCB3F0F97911D460E172E8C968D7157 PUSH2 0x2C0 DUP3 ADD MSTORE PUSH32 0x22949B6C5A8AB00DA8EF7762080050DB1249C28B792998E95B647221DEFAC472 PUSH2 0x2E0 DUP3 ADD MSTORE PUSH1 0x20 DUP2 PUSH2 0x300 DUP4 PUSH1 0x8 GAS STATICCALL SWAP2 POP DUP1 MLOAD DUP3 AND SWAP2 POP POP DUP1 PUSH2 0xA56 JUMPI PUSH1 0x40 MLOAD PUSH32 0x7FCDD1F400000000000000000000000000000000000000000000000000000000 DUP2 MSTORE PUSH1 0x4 ADD PUSH1 0x40 MLOAD DUP1 SWAP2 SUB SWAP1 REVERT JUMPDEST POP POP POP POP POP JUMP JUMPDEST PUSH0 PUSH32 0x30644E72E131A029B85045B68181585D97816A916871CA8D3C208C16D87CFD47 DUP4 LT ISZERO DUP1 PUSH2 0xAAD JUMPI POP PUSH32 0x30644E72E131A029B85045B68181585D97816A916871CA8D3C208C16D87CFD47 DUP3 LT ISZERO JUMPDEST ISZERO PUSH2 0xAE4 JUMPI PUSH1 0x40 MLOAD PUSH32 0x7FCDD1F400000000000000000000000000000000000000000000000000000000 DUP2 MSTORE PUSH1 0x4 ADD PUSH1 0x40 MLOAD DUP1 SWAP2 SUB SWAP1 REVERT JUMPDEST PUSH0 DUP4 EQ DUP1 ISZERO PUSH2 0xAF2 JUMPI POP PUSH0 DUP3 EQ JUMPDEST ISZERO PUSH2 0xAFF JUMPI PUSH0 SWAP1 POP PUSH2 0xC05 JUMP JUMPDEST PUSH0 PUSH2 0xB9D PUSH32 0x30644E72E131A029B85045B68181585D97816A916871CA8D3C208C16D87CFD47 DUP1 PUSH2 0xB32 JUMPI PUSH2 0xB31 PUSH2 0x243F JUMP JUMPDEST JUMPDEST PUSH1 0x3 PUSH32 0x30644E72E131A029B85045B68181585D97816A916871CA8D3C208C16D87CFD47 DUP1 PUSH2 0xB63 JUMPI PUSH2 0xB62 PUSH2 0x243F JUMP JUMPDEST JUMPDEST DUP8 PUSH32 0x30644E72E131A029B85045B68181585D97816A916871CA8D3C208C16D87CFD47 DUP1 PUSH2 0xB93 JUMPI PUSH2 0xB92 PUSH2 0x243F JUMP JUMPDEST JUMPDEST DUP10 DUP11 MULMOD MULMOD ADDMOD PUSH2 0x1C4F JUMP JUMPDEST SWAP1 POP DUP1 DUP4 SUB PUSH2 0xBB5 JUMPI PUSH0 PUSH1 0x1 DUP6 SWAP1 SHL OR SWAP2 POP POP PUSH2 0xC05 JUMP JUMPDEST PUSH2 0xBBE DUP2 PUSH2 0x1CEB JUMP JUMPDEST DUP4 SUB PUSH2 0xBD3 JUMPI PUSH1 0x1 DUP1 DUP6 SWAP1 SHL OR SWAP2 POP POP PUSH2 0xC05 JUMP JUMPDEST PUSH1 0x40 MLOAD PUSH32 0x7FCDD1F400000000000000000000000000000000000000000000000000000000 DUP2 MSTORE PUSH1 0x4 ADD PUSH1 0x40 MLOAD DUP1 SWAP2 SUB SWAP1 REVERT JUMPDEST SWAP3 SWAP2 POP POP JUMP JUMPDEST PUSH0 PUSH0 PUSH32 0x30644E72E131A029B85045B68181585D97816A916871CA8D3C208C16D87CFD47 DUP7 LT ISZERO DUP1 PUSH2 0xC5C JUMPI POP PUSH32 0x30644E72E131A029B85045B68181585D97816A916871CA8D3C208C16D87CFD47 DUP6 LT ISZERO JUMPDEST DUP1 PUSH2 0xC87 JUMPI POP PUSH32 0x30644E72E131A029B85045B68181585D97816A916871CA8D3C208C16D87CFD47 DUP5 LT ISZERO JUMPDEST DUP1 PUSH2 0xCB2 JUMPI POP PUSH32 0x30644E72E131A029B85045B68181585D97816A916871CA8D3C208C16D87CFD47 DUP4 LT ISZERO JUMPDEST ISZERO PUSH2 0xCE9 JUMPI PUSH1 0x40 MLOAD PUSH32 0x7FCDD1F400000000000000000000000000000000000000000000000000000000 DUP2 MSTORE PUSH1 0x4 ADD PUSH1 0x40 MLOAD DUP1 SWAP2 SUB SWAP1 REVERT JUMPDEST PUSH0 DUP4 DUP6 DUP8 DUP10 OR OR OR SUB PUSH2 0xD01 JUMPI PUSH0 PUSH0 SWAP2 POP SWAP2 POP PUSH2 0x11CE JUMP JUMPDEST PUSH0 PUSH0 PUSH0 PUSH32 0x30644E72E131A029B85045B68181585D97816A916871CA8D3C208C16D87CFD47 DUP1 PUSH2 0xD33 JUMPI PUSH2 0xD32 PUSH2 0x243F JUMP JUMPDEST JUMPDEST PUSH1 0x3 PUSH32 0x30644E72E131A029B85045B68181585D97816A916871CA8D3C208C16D87CFD47 PUSH2 0xD60 SWAP2 SWAP1 PUSH2 0x2499 JUMP JUMPDEST PUSH32 0x30644E72E131A029B85045B68181585D97816A916871CA8D3C208C16D87CFD47 DUP1 PUSH2 0xD8F JUMPI PUSH2 0xD8E PUSH2 0x243F JUMP JUMPDEST JUMPDEST DUP11 DUP13 MULMOD MULMOD SWAP1 POP PUSH0 PUSH32 0x30644E72E131A029B85045B68181585D97816A916871CA8D3C208C16D87CFD47 DUP1 PUSH2 0xDC5 JUMPI PUSH2 0xDC4 PUSH2 0x243F JUMP JUMPDEST JUMPDEST DUP11 PUSH32 0x30644E72E131A029B85045B68181585D97816A916871CA8D3C208C16D87CFD47 DUP1 PUSH2 0xDF5 JUMPI PUSH2 0xDF4 PUSH2 0x243F JUMP JUMPDEST JUMPDEST DUP13 DUP14 MULMOD MULMOD SWAP1 POP PUSH0 PUSH32 0x30644E72E131A029B85045B68181585D97816A916871CA8D3C208C16D87CFD47 DUP1 PUSH2 0xE2B JUMPI PUSH2 0xE2A PUSH2 0x243F JUMP JUMPDEST JUMPDEST DUP11 PUSH32 0x30644E72E131A029B85045B68181585D97816A916871CA8D3C208C16D87CFD47 DUP1 PUSH2 0xE5B JUMPI PUSH2 0xE5A PUSH2 0x243F JUMP JUMPDEST JUMPDEST DUP13 DUP14 MULMOD MULMOD SWAP1 POP PUSH32 0x30644E72E131A029B85045B68181585D97816A916871CA8D3C208C16D87CFD47 DUP1 PUSH2 0xE90 JUMPI PUSH2 0xE8F PUSH2 0x243F JUMP JUMPDEST JUMPDEST PUSH32 0x30644E72E131A029B85045B68181585D97816A916871CA8D3C208C16D87CFD47 DUP1 PUSH2 0xEBF JUMPI PUSH2 0xEBE PUSH2 0x243F JUMP JUMPDEST JUMPDEST PUSH32 0x30644E72E131A029B85045B68181585D97816A916871CA8D3C208C16D87CFD47 DUP1 PUSH2 0xEEE JUMPI PUSH2 0xEED PUSH2 0x243F JUMP JUMPDEST JUMPDEST DUP13 DUP7 MULMOD DUP5 ADDMOD PUSH32 0x2B149D40CEB8AAAE81BE18991BE06AC3B5B4C5E559DBEFA33267E6DC24A138E5 ADDMOD SWAP5 POP PUSH2 0xFD3 PUSH32 0x30644E72E131A029B85045B68181585D97816A916871CA8D3C208C16D87CFD47 DUP1 PUSH2 0xF49 JUMPI PUSH2 0xF48 PUSH2 0x243F JUMP JUMPDEST JUMPDEST PUSH32 0x30644E72E131A029B85045B68181585D97816A916871CA8D3C208C16D87CFD47 DUP1 PUSH2 0xF78 JUMPI PUSH2 0xF77 PUSH2 0x243F JUMP JUMPDEST JUMPDEST PUSH32 0x30644E72E131A029B85045B68181585D97816A916871CA8D3C208C16D87CFD47 DUP1 PUSH2 0xFA7 JUMPI PUSH2 0xFA6 PUSH2 0x243F JUMP JUMPDEST JUMPDEST DUP15 DUP8 MULMOD DUP5 ADDMOD PUSH32 0x2FCD3AC2A640A154EB23960892A85A68F031CA0C8344B23A577DCF1052B9E775 ADDMOD PUSH2 0x1CEB JUMP JUMPDEST SWAP4 POP POP POP POP PUSH0 PUSH0 PUSH2 0x1076 PUSH32 0x30644E72E131A029B85045B68181585D97816A916871CA8D3C208C16D87CFD47 DUP1 PUSH2 0x100C JUMPI PUSH2 0x100B PUSH2 0x243F JUMP JUMPDEST JUMPDEST PUSH32 0x30644E72E131A029B85045B68181585D97816A916871CA8D3C208C16D87CFD47 DUP1 PUSH2 0x103B JUMPI PUSH2 0x103A PUSH2 0x243F JUMP JUMPDEST JUMPDEST DUP6 DUP7 MULMOD PUSH32 0x30644E72E131A029B85045B68181585D97816A916871CA8D3C208C16D87CFD47 DUP1 PUSH2 0x106D JUMPI PUSH2 0x106C PUSH2 0x243F JUMP JUMPDEST JUMPDEST DUP8 DUP9 MULMOD ADDMOD PUSH2 0x1C4F JUMP JUMPDEST SWAP1 POP PUSH2 0x1103 PUSH32 0x30644E72E131A029B85045B68181585D97816A916871CA8D3C208C16D87CFD47 DUP1 PUSH2 0x10AA JUMPI PUSH2 0x10A9 PUSH2 0x243F JUMP JUMPDEST JUMPDEST PUSH32 0x183227397098D014DC2822DB40C0AC2ECBC0B548B438E5469E10460B6C3E7EA4 PUSH32 0x30644E72E131A029B85045B68181585D97816A916871CA8D3C208C16D87CFD47 DUP1 PUSH2 0x10FA JUMPI PUSH2 0x10F9 PUSH2 0x243F JUMP JUMPDEST JUMPDEST DUP5 DUP9 ADDMOD MULMOD PUSH2 0x1D56 JUMP JUMPDEST ISZERO SWAP2 POP POP PUSH2 0x1112 DUP4 DUP4 DUP4 PUSH2 0x1DC0 JUMP JUMPDEST DUP1 SWAP4 POP DUP2 SWAP5 POP POP POP DUP3 DUP8 EQ DUP1 ISZERO PUSH2 0x1128 JUMPI POP DUP2 DUP7 EQ JUMPDEST ISZERO PUSH2 0x1150 JUMPI PUSH0 DUP2 PUSH2 0x1139 JUMPI PUSH0 PUSH2 0x113C JUMP JUMPDEST PUSH1 0x2 JUMPDEST PUSH1 0xFF AND PUSH1 0x2 DUP12 SWAP1 SHL OR OR SWAP5 POP DUP8 SWAP4 POP PUSH2 0x11CA JUMP JUMPDEST PUSH2 0x1159 DUP4 PUSH2 0x1CEB JUMP JUMPDEST DUP8 EQ DUP1 ISZERO PUSH2 0x116E JUMPI POP PUSH2 0x116B DUP3 PUSH2 0x1CEB JUMP JUMPDEST DUP7 EQ JUMPDEST ISZERO PUSH2 0x1197 JUMPI PUSH1 0x1 DUP2 PUSH2 0x1180 JUMPI PUSH0 PUSH2 0x1183 JUMP JUMPDEST PUSH1 0x2 JUMPDEST PUSH1 0xFF AND PUSH1 0x2 DUP12 SWAP1 SHL OR OR SWAP5 POP DUP8 SWAP4 POP PUSH2 0x11C9 JUMP JUMPDEST PUSH1 0x40 MLOAD PUSH32 0x7FCDD1F400000000000000000000000000000000000000000000000000000000 DUP2 MSTORE PUSH1 0x4 ADD PUSH1 0x40 MLOAD DUP1 SWAP2 SUB SWAP1 REVERT JUMPDEST JUMPDEST POP POP POP JUMPDEST SWAP5 POP SWAP5 SWAP3 POP POP POP JUMP JUMPDEST PUSH0 PUSH0 PUSH0 DUP4 SUB PUSH2 0x11EB JUMPI PUSH0 PUSH0 SWAP2 POP SWAP2 POP PUSH2 0x1307 JUMP JUMPDEST PUSH0 PUSH1 0x1 DUP1 DUP6 AND EQ SWAP1 POP PUSH1 0x1 DUP5 SWAP1 SHR SWAP3 POP PUSH32 0x30644E72E131A029B85045B68181585D97816A916871CA8D3C208C16D87CFD47 DUP4 LT PUSH2 0x1254 JUMPI PUSH1 0x40 MLOAD PUSH32 0x7FCDD1F400000000000000000000000000000000000000000000000000000000 DUP2 MSTORE PUSH1 0x4 ADD PUSH1 0x40 MLOAD DUP1 SWAP2 SUB SWAP1 REVERT JUMPDEST PUSH2 0x12F1 PUSH32 0x30644E72E131A029B85045B68181585D97816A916871CA8D3C208C16D87CFD47 DUP1 PUSH2 0x1286 JUMPI PUSH2 0x1285 PUSH2 0x243F JUMP JUMPDEST JUMPDEST PUSH1 0x3 PUSH32 0x30644E72E131A029B85045B68181585D97816A916871CA8D3C208C16D87CFD47 DUP1 PUSH2 0x12B7 JUMPI PUSH2 0x12B6 PUSH2 0x243F JUMP JUMPDEST JUMPDEST DUP7 PUSH32 0x30644E72E131A029B85045B68181585D97816A916871CA8D3C208C16D87CFD47 DUP1 PUSH2 0x12E7 JUMPI PUSH2 0x12E6 PUSH2 0x243F JUMP JUMPDEST JUMPDEST DUP9 DUP10 MULMOD MULMOD ADDMOD PUSH2 0x1C4F JUMP JUMPDEST SWAP2 POP DUP1 ISZERO PUSH2 0x1305 JUMPI PUSH2 0x1302 DUP3 PUSH2 0x1CEB JUMP JUMPDEST SWAP2 POP JUMPDEST POP JUMPDEST SWAP2 POP SWAP2 JUMP JUMPDEST PUSH0 PUSH0 PUSH0 PUSH0 PUSH0 DUP7 EQ DUP1 ISZERO PUSH2 0x131E JUMPI POP PUSH0 DUP6 EQ JUMPDEST ISZERO PUSH2 0x1334 JUMPI PUSH0 PUSH0 PUSH0 PUSH0 SWAP4 POP SWAP4 POP SWAP4 POP SWAP4 POP PUSH2 0x16DE JUMP JUMPDEST PUSH0 PUSH1 0x1 DUP1 DUP9 AND EQ SWAP1 POP PUSH0 PUSH1 0x2 DUP1 DUP10 AND EQ SWAP1 POP PUSH1 0x2 DUP9 SWAP1 SHR SWAP6 POP DUP7 SWAP5 POP PUSH32 0x30644E72E131A029B85045B68181585D97816A916871CA8D3C208C16D87CFD47 DUP7 LT ISZERO DUP1 PUSH2 0x139F JUMPI POP PUSH32 0x30644E72E131A029B85045B68181585D97816A916871CA8D3C208C16D87CFD47 DUP6 LT ISZERO JUMPDEST ISZERO PUSH2 0x13D6 JUMPI PUSH1 0x40 MLOAD PUSH32 0x7FCDD1F400000000000000000000000000000000000000000000000000000000 DUP2 MSTORE PUSH1 0x4 ADD PUSH1 0x40 MLOAD DUP1 SWAP2 SUB SWAP1 REVERT JUMPDEST PUSH0 PUSH32 0x30644E72E131A029B85045B68181585D97816A916871CA8D3C208C16D87CFD47 DUP1 PUSH2 0x1406 JUMPI PUSH2 0x1405 PUSH2 0x243F JUMP JUMPDEST JUMPDEST PUSH1 0x3 PUSH32 0x30644E72E131A029B85045B68181585D97816A916871CA8D3C208C16D87CFD47 PUSH2 0x1433 SWAP2 SWAP1 PUSH2 0x2499 JUMP JUMPDEST PUSH32 0x30644E72E131A029B85045B68181585D97816A916871CA8D3C208C16D87CFD47 DUP1 PUSH2 0x1462 JUMPI PUSH2 0x1461 PUSH2 0x243F JUMP JUMPDEST JUMPDEST DUP9 DUP11 MULMOD MULMOD SWAP1 POP PUSH0 PUSH32 0x30644E72E131A029B85045B68181585D97816A916871CA8D3C208C16D87CFD47 DUP1 PUSH2 0x1498 JUMPI PUSH2 0x1497 PUSH2 0x243F JUMP JUMPDEST JUMPDEST DUP9 PUSH32 0x30644E72E131A029B85045B68181585D97816A916871CA8D3C208C16D87CFD47 DUP1 PUSH2 0x14C8 JUMPI PUSH2 0x14C7 PUSH2 0x243F JUMP JUMPDEST JUMPDEST DUP11 DUP12 MULMOD MULMOD SWAP1 POP PUSH0 PUSH32 0x30644E72E131A029B85045B68181585D97816A916871CA8D3C208C16D87CFD47 DUP1 PUSH2 0x14FE JUMPI PUSH2 0x14FD PUSH2 0x243F JUMP JUMPDEST JUMPDEST DUP9 PUSH32 0x30644E72E131A029B85045B68181585D97816A916871CA8D3C208C16D87CFD47 DUP1 PUSH2 0x152E JUMPI PUSH2 0x152D PUSH2 0x243F JUMP JUMPDEST JUMPDEST DUP11 DUP12 MULMOD MULMOD SWAP1 POP PUSH32 0x30644E72E131A029B85045B68181585D97816A916871CA8D3C208C16D87CFD47 DUP1 PUSH2 0x1563 JUMPI PUSH2 0x1562 PUSH2 0x243F JUMP JUMPDEST JUMPDEST PUSH32 0x30644E72E131A029B85045B68181585D97816A916871CA8D3C208C16D87CFD47 DUP1 PUSH2 0x1592 JUMPI PUSH2 0x1591 PUSH2 0x243F JUMP JUMPDEST JUMPDEST PUSH32 0x30644E72E131A029B85045B68181585D97816A916871CA8D3C208C16D87CFD47 DUP1 PUSH2 0x15C1 JUMPI PUSH2 0x15C0 PUSH2 0x243F JUMP JUMPDEST JUMPDEST DUP11 DUP7 MULMOD DUP5 ADDMOD PUSH32 0x2B149D40CEB8AAAE81BE18991BE06AC3B5B4C5E559DBEFA33267E6DC24A138E5 ADDMOD SWAP7 POP PUSH2 0x16A6 PUSH32 0x30644E72E131A029B85045B68181585D97816A916871CA8D3C208C16D87CFD47 DUP1 PUSH2 0x161C JUMPI PUSH2 0x161B PUSH2 0x243F JUMP JUMPDEST JUMPDEST PUSH32 0x30644E72E131A029B85045B68181585D97816A916871CA8D3C208C16D87CFD47 DUP1 PUSH2 0x164B JUMPI PUSH2 0x164A PUSH2 0x243F JUMP JUMPDEST JUMPDEST PUSH32 0x30644E72E131A029B85045B68181585D97816A916871CA8D3C208C16D87CFD47 DUP1 PUSH2 0x167A JUMPI PUSH2 0x1679 PUSH2 0x243F JUMP JUMPDEST JUMPDEST DUP13 DUP8 MULMOD DUP5 ADDMOD PUSH32 0x2FCD3AC2A640A154EB23960892A85A68F031CA0C8344B23A577DCF1052B9E775 ADDMOD PUSH2 0x1CEB JUMP JUMPDEST SWAP6 POP PUSH2 0x16B3 DUP8 DUP8 DUP7 PUSH2 0x1DC0 JUMP JUMPDEST DUP1 SWAP8 POP DUP2 SWAP9 POP POP POP DUP5 ISZERO PUSH2 0x16D8 JUMPI PUSH2 0x16CA DUP8 PUSH2 0x1CEB JUMP JUMPDEST SWAP7 POP PUSH2 0x16D5 DUP7 PUSH2 0x1CEB JUMP JUMPDEST SWAP6 POP JUMPDEST POP POP POP POP POP JUMPDEST SWAP3 SWAP6 SWAP2 SWAP5 POP SWAP3 POP JUMP JUMPDEST PUSH0 PUSH0 PUSH0 PUSH1 0x1 SWAP1 POP PUSH1 0x40 MLOAD PUSH1 0x40 DUP2 ADD PUSH0 PUSH32 0x2D9F54E04224B45B04D4C1CB19A2C6C9F6F2361D545F8E2BA19E6B175690F932 DUP4 MSTORE PUSH32 0x102A776C788DDB493C98588187FBD592FD9A0B792154B1EA0049A02F837CDE94 PUSH1 0x20 DUP5 ADD MSTORE PUSH32 0x188BABBE8B12A64563EE76C05E3EFC705F330F07E46D2C976A18E7A1455DA10F DUP3 MSTORE PUSH32 0x219E542D567415CA8D13D3E5861DB017B741FCE5C71EEB10E9887D82FA73578E PUSH1 0x20 DUP4 ADD MSTORE DUP7 CALLDATALOAD SWAP1 POP DUP1 PUSH1 0x40 DUP4 ADD MSTORE PUSH32 0x30644E72E131A029B85045B68181585D2833E84879B9709143E1F593F0000001 DUP2 LT DUP5 AND SWAP4 POP PUSH1 0x40 DUP3 PUSH1 0x60 DUP5 PUSH1 0x7 GAS STATICCALL DUP5 AND SWAP4 POP PUSH1 0x40 DUP4 PUSH1 0x80 DUP6 PUSH1 0x6 GAS STATICCALL DUP5 AND SWAP4 POP PUSH32 0x26E9B3E8DE109C2032C4005922E052A50B39123A63BAB4B145D75F70A728985C DUP3 MSTORE PUSH32 0xE3ACE0D01E11CCD0912AF2599E59E541BA4F7F1154EE415E2471C64B0135339 PUSH1 0x20 DUP4 ADD MSTORE PUSH1 0x20 DUP8 ADD CALLDATALOAD SWAP1 POP DUP1 PUSH1 0x40 DUP4 ADD MSTORE PUSH32 0x30644E72E131A029B85045B68181585D2833E84879B9709143E1F593F0000001 DUP2 LT DUP5 AND SWAP4 POP PUSH1 0x40 DUP3 PUSH1 0x60 DUP5 PUSH1 0x7 GAS STATICCALL DUP5 AND SWAP4 POP PUSH1 0x40 DUP4 PUSH1 0x80 DUP6 PUSH1 0x6 GAS STATICCALL DUP5 AND SWAP4 POP PUSH32 0x279B124BA4F24CB5E051F6B4B730BBB0F79DBE0CB820199E96AC81610730D202 DUP3 MSTORE PUSH32 0x2857F17A5167CAF4ED09ED729EC0E676893E425F3C1A0036835642B231A7C9F PUSH1 0x20 DUP4 ADD MSTORE PUSH1 0x40 DUP8 ADD CALLDATALOAD SWAP1 POP DUP1 PUSH1 0x40 DUP4 ADD MSTORE PUSH32 0x30644E72E131A029B85045B68181585D2833E84879B9709143E1F593F0000001 DUP2 LT DUP5 AND SWAP4 POP PUSH1 0x40 DUP3 PUSH1 0x60 DUP5 PUSH1 0x7 GAS STATICCALL DUP5 AND SWAP4 POP PUSH1 0x40 DUP4 PUSH1 0x80 DUP6 PUSH1 0x6 GAS STATICCALL DUP5 AND SWAP4 POP PUSH32 0x28D70CD1A8837597FD8BF94A6D2952757DAB302D61A281515629CCAF302A7520 DUP3 MSTORE PUSH32 0x18EFFEED550FDAD1FAA777820F7E03534843C10F9D14348385B2095F4A0EE4E4 PUSH1 0x20 DUP4 ADD MSTORE PUSH1 0x60 DUP8 ADD CALLDATALOAD SWAP1 POP DUP1 PUSH1 0x40 DUP4 ADD MSTORE PUSH32 0x30644E72E131A029B85045B68181585D2833E84879B9709143E1F593F0000001 DUP2 LT DUP5 AND SWAP4 POP PUSH1 0x40 DUP3 PUSH1 0x60 DUP5 PUSH1 0x7 GAS STATICCALL DUP5 AND SWAP4 POP PUSH1 0x40 DUP4 PUSH1 0x80 DUP6 PUSH1 0x6 GAS STATICCALL DUP5 AND SWAP4 POP PUSH32 0x1E77B2DE20158E417B065F78CB102E00FAF401479712A9E89CC3E4CE5141645C DUP3 MSTORE PUSH32 0x6D0DEC2FDA72642620C4E16F365B593A1474575516BAE3E72598181CE352E1A PUSH1 0x20 DUP4 ADD MSTORE PUSH1 0x80 DUP8 ADD CALLDATALOAD SWAP1 POP DUP1 PUSH1 0x40 DUP4 ADD MSTORE PUSH32 0x30644E72E131A029B85045B68181585D2833E84879B9709143E1F593F0000001 DUP2 LT DUP5 AND SWAP4 POP PUSH1 0x40 DUP3 PUSH1 0x60 DUP5 PUSH1 0x7 GAS STATICCALL DUP5 AND SWAP4 POP PUSH1 0x40 DUP4 PUSH1 0x80 DUP6 PUSH1 0x6 GAS STATICCALL DUP5 AND SWAP4 POP PUSH32 0x1DE74C79E98100AFFBD99EB20B41F1060B82944AF36DF82C76AE1332FAF135B0 DUP3 MSTORE PUSH32 0x1D265E7E19D543E80867A545D30E9C4CC337032A3BF1FA99C26DF1F55C641FF5 PUSH1 0x20 DUP4 ADD MSTORE PUSH1 0xA0 DUP8 ADD CALLDATALOAD SWAP1 POP DUP1 PUSH1 0x40 DUP4 ADD MSTORE PUSH32 0x30644E72E131A029B85045B68181585D2833E84879B9709143E1F593F0000001 DUP2 LT DUP5 AND SWAP4 POP PUSH1 0x40 DUP3 PUSH1 0x60 DUP5 PUSH1 0x7 GAS STATICCALL DUP5 AND SWAP4 POP PUSH1 0x40 DUP4 PUSH1 0x80 DUP6 PUSH1 0x6 GAS STATICCALL DUP5 AND SWAP4 POP PUSH32 0x1A80E631574538A42F22053F0D7E748B3FEF9A75B449901E52C4888317E3822B DUP3 MSTORE PUSH32 0x12119AC6EAC14EC6968239D9835A2330C4FFDCF8AC4E30D51D48A0F166344E2D PUSH1 0x20 DUP4 ADD MSTORE PUSH1 0xC0 DUP8 ADD CALLDATALOAD SWAP1 POP DUP1 PUSH1 0x40 DUP4 ADD MSTORE PUSH32 0x30644E72E131A029B85045B68181585D2833E84879B9709143E1F593F0000001 DUP2 LT DUP5 AND SWAP4 POP PUSH1 0x40 DUP3 PUSH1 0x60 DUP5 PUSH1 0x7 GAS STATICCALL DUP5 AND SWAP4 POP PUSH1 0x40 DUP4 PUSH1 0x80 DUP6 PUSH1 0x6 GAS STATICCALL DUP5 AND SWAP4 POP PUSH32 0x10E9250EC0C3F01059F3B1331AE3424D6C67E3CF1E8E8141F58EA9C01F6F1D23 DUP3 MSTORE PUSH32 0x1324E24DCFF3172C39DCB3223625CD9BC921212DFAB12B3784A3EF8216AE9936 PUSH1 0x20 DUP4 ADD MSTORE PUSH1 0xE0 DUP8 ADD CALLDATALOAD SWAP1 POP DUP1 PUSH1 0x40 DUP4 ADD MSTORE PUSH32 0x30644E72E131A029B85045B68181585D2833E84879B9709143E1F593F0000001 DUP2 LT DUP5 AND SWAP4 POP PUSH1 0x40 DUP3 PUSH1 0x60 DUP5 PUSH1 0x7 GAS STATICCALL DUP5 AND SWAP4 POP PUSH1 0x40 DUP4 PUSH1 0x80 DUP6 PUSH1 0x6 GAS STATICCALL DUP5 AND SWAP4 POP DUP3 MLOAD SWAP6 POP PUSH1 0x20 DUP4 ADD MLOAD SWAP5 POP POP POP POP DUP1 PUSH2 0x1C49 JUMPI PUSH1 0x40 MLOAD PUSH32 0xA54F8E2700000000000000000000000000000000000000000000000000000000 DUP2 MSTORE PUSH1 0x4 ADD PUSH1 0x40 MLOAD DUP1 SWAP2 SUB SWAP1 REVERT JUMPDEST POP SWAP2 POP SWAP2 JUMP JUMPDEST PUSH0 PUSH2 0x1C7A DUP3 PUSH32 0xC19139CB84C680A6E14116DA060561765E05AA45A1C72A34F082305B61F3F52 PUSH2 0x20BB JUMP JUMPDEST SWAP1 POP DUP2 PUSH32 0x30644E72E131A029B85045B68181585D97816A916871CA8D3C208C16D87CFD47 DUP1 PUSH2 0x1CAC JUMPI PUSH2 0x1CAB PUSH2 0x243F JUMP JUMPDEST JUMPDEST DUP3 DUP4 MULMOD EQ PUSH2 0x1CE6 JUMPI PUSH1 0x40 MLOAD PUSH32 0x7FCDD1F400000000000000000000000000000000000000000000000000000000 DUP2 MSTORE PUSH1 0x4 ADD PUSH1 0x40 MLOAD DUP1 SWAP2 SUB SWAP1 REVERT JUMPDEST SWAP2 SWAP1 POP JUMP JUMPDEST PUSH0 PUSH32 0x30644E72E131A029B85045B68181585D97816A916871CA8D3C208C16D87CFD47 DUP1 DUP4 DUP2 PUSH2 0x1D1D JUMPI PUSH2 0x1D1C PUSH2 0x243F JUMP JUMPDEST JUMPDEST MOD PUSH32 0x30644E72E131A029B85045B68181585D97816A916871CA8D3C208C16D87CFD47 SUB DUP2 PUSH2 0x1D4E JUMPI PUSH2 0x1D4D PUSH2 0x243F JUMP JUMPDEST JUMPDEST MOD SWAP1 POP SWAP2 SWAP1 POP JUMP JUMPDEST PUSH0 PUSH0 PUSH2 0x1D82 DUP4 PUSH32 0xC19139CB84C680A6E14116DA060561765E05AA45A1C72A34F082305B61F3F52 PUSH2 0x20BB JUMP JUMPDEST SWAP1 POP DUP3 PUSH32 0x30644E72E131A029B85045B68181585D97816A916871CA8D3C208C16D87CFD47 DUP1 PUSH2 0x1DB4 JUMPI PUSH2 0x1DB3 PUSH2 0x243F JUMP JUMPDEST JUMPDEST DUP3 DUP4 MULMOD EQ SWAP2 POP POP SWAP2 SWAP1 POP JUMP JUMPDEST PUSH0 PUSH0 PUSH0 PUSH2 0x1E5F PUSH32 0x30644E72E131A029B85045B68181585D97816A916871CA8D3C208C16D87CFD47 DUP1 PUSH2 0x1DF5 JUMPI PUSH2 0x1DF4 PUSH2 0x243F JUMP JUMPDEST JUMPDEST PUSH32 0x30644E72E131A029B85045B68181585D97816A916871CA8D3C208C16D87CFD47 DUP1 PUSH2 0x1E24 JUMPI PUSH2 0x1E23 PUSH2 0x243F JUMP JUMPDEST JUMPDEST DUP8 DUP9 MULMOD PUSH32 0x30644E72E131A029B85045B68181585D97816A916871CA8D3C208C16D87CFD47 DUP1 PUSH2 0x1E56 JUMPI PUSH2 0x1E55 PUSH2 0x243F JUMP JUMPDEST JUMPDEST DUP10 DUP11 MULMOD ADDMOD PUSH2 0x1C4F JUMP JUMPDEST SWAP1 POP DUP4 ISZERO PUSH2 0x1E73 JUMPI PUSH2 0x1E70 DUP2 PUSH2 0x1CEB JUMP JUMPDEST SWAP1 POP JUMPDEST PUSH2 0x1EFE PUSH32 0x30644E72E131A029B85045B68181585D97816A916871CA8D3C208C16D87CFD47 DUP1 PUSH2 0x1EA5 JUMPI PUSH2 0x1EA4 PUSH2 0x243F JUMP JUMPDEST JUMPDEST PUSH32 0x183227397098D014DC2822DB40C0AC2ECBC0B548B438E5469E10460B6C3E7EA4 PUSH32 0x30644E72E131A029B85045B68181585D97816A916871CA8D3C208C16D87CFD47 DUP1 PUSH2 0x1EF5 JUMPI PUSH2 0x1EF4 PUSH2 0x243F JUMP JUMPDEST JUMPDEST DUP5 DUP11 ADDMOD MULMOD PUSH2 0x1C4F JUMP JUMPDEST SWAP3 POP PUSH32 0x30644E72E131A029B85045B68181585D97816A916871CA8D3C208C16D87CFD47 DUP1 PUSH2 0x1F2F JUMPI PUSH2 0x1F2E PUSH2 0x243F JUMP JUMPDEST JUMPDEST PUSH2 0x1F6A PUSH32 0x30644E72E131A029B85045B68181585D97816A916871CA8D3C208C16D87CFD47 DUP1 PUSH2 0x1F61 JUMPI PUSH2 0x1F60 PUSH2 0x243F JUMP JUMPDEST JUMPDEST PUSH1 0x2 DUP7 MULMOD PUSH2 0x2152 JUMP JUMPDEST DUP7 MULMOD SWAP2 POP PUSH32 0x30644E72E131A029B85045B68181585D97816A916871CA8D3C208C16D87CFD47 DUP1 PUSH2 0x1F9D JUMPI PUSH2 0x1F9C PUSH2 0x243F JUMP JUMPDEST JUMPDEST PUSH2 0x1FD7 PUSH32 0x30644E72E131A029B85045B68181585D97816A916871CA8D3C208C16D87CFD47 DUP1 PUSH2 0x1FCF JUMPI PUSH2 0x1FCE PUSH2 0x243F JUMP JUMPDEST JUMPDEST DUP5 DUP6 MULMOD PUSH2 0x1CEB JUMP JUMPDEST PUSH32 0x30644E72E131A029B85045B68181585D97816A916871CA8D3C208C16D87CFD47 DUP1 PUSH2 0x2006 JUMPI PUSH2 0x2005 PUSH2 0x243F JUMP JUMPDEST JUMPDEST DUP6 DUP7 MULMOD ADDMOD DUP7 EQ ISZERO DUP1 PUSH2 0x207B JUMPI POP PUSH32 0x30644E72E131A029B85045B68181585D97816A916871CA8D3C208C16D87CFD47 DUP1 PUSH2 0x2042 JUMPI PUSH2 0x2041 PUSH2 0x243F JUMP JUMPDEST JUMPDEST PUSH32 0x30644E72E131A029B85045B68181585D97816A916871CA8D3C208C16D87CFD47 DUP1 PUSH2 0x2071 JUMPI PUSH2 0x2070 PUSH2 0x243F JUMP JUMPDEST JUMPDEST DUP4 DUP6 MULMOD PUSH1 0x2 MULMOD DUP6 EQ ISZERO JUMPDEST ISZERO PUSH2 0x20B2 JUMPI PUSH1 0x40 MLOAD PUSH32 0x7FCDD1F400000000000000000000000000000000000000000000000000000000 DUP2 MSTORE PUSH1 0x4 ADD PUSH1 0x40 MLOAD DUP1 SWAP2 SUB SWAP1 REVERT JUMPDEST POP SWAP4 POP SWAP4 SWAP2 POP POP JUMP JUMPDEST PUSH0 PUSH0 PUSH1 0x40 MLOAD PUSH1 0x20 DUP2 MSTORE PUSH1 0x20 DUP1 DUP3 ADD MSTORE PUSH1 0x20 PUSH1 0x40 DUP3 ADD MSTORE DUP5 PUSH1 0x60 DUP3 ADD MSTORE DUP4 PUSH1 0x80 DUP3 ADD MSTORE PUSH32 0x30644E72E131A029B85045B68181585D97816A916871CA8D3C208C16D87CFD47 PUSH1 0xA0 DUP3 ADD MSTORE PUSH1 0x20 DUP2 PUSH1 0xC0 DUP4 PUSH1 0x5 GAS STATICCALL SWAP2 POP DUP1 MLOAD SWAP3 POP POP DUP1 PUSH2 0x214B JUMPI PUSH1 0x40 MLOAD PUSH32 0x7FCDD1F400000000000000000000000000000000000000000000000000000000 DUP2 MSTORE PUSH1 0x4 ADD PUSH1 0x40 MLOAD DUP1 SWAP2 SUB SWAP1 REVERT JUMPDEST POP SWAP3 SWAP2 POP POP JUMP JUMPDEST PUSH0 PUSH2 0x217D DUP3 PUSH32 0x30644E72E131A029B85045B68181585D97816A916871CA8D3C208C16D87CFD45 PUSH2 0x20BB JUMP JUMPDEST SWAP1 POP PUSH1 0x1 PUSH32 0x30644E72E131A029B85045B68181585D97816A916871CA8D3C208C16D87CFD47 DUP1 PUSH2 0x21B0 JUMPI PUSH2 0x21AF PUSH2 0x243F JUMP JUMPDEST JUMPDEST DUP3 DUP5 MULMOD EQ PUSH2 0x21EA JUMPI PUSH1 0x40 MLOAD PUSH32 0x7FCDD1F400000000000000000000000000000000000000000000000000000000 DUP2 MSTORE PUSH1 0x4 ADD PUSH1 0x40 MLOAD DUP1 SWAP2 SUB SWAP1 REVERT JUMPDEST SWAP2 SWAP1 POP JUMP JUMPDEST PUSH1 0x40 MLOAD DUP1 PUSH1 0x80 ADD PUSH1 0x40 MSTORE DUP1 PUSH1 0x4 SWAP1 PUSH1 0x20 DUP3 MUL DUP1 CALLDATASIZE DUP4 CALLDATACOPY DUP1 DUP3 ADD SWAP2 POP POP SWAP1 POP POP SWAP1 JUMP JUMPDEST PUSH1 0x40 MLOAD DUP1 PUSH2 0x300 ADD PUSH1 0x40 MSTORE DUP1 PUSH1 0x18 SWAP1 PUSH1 0x20 DUP3 MUL DUP1 CALLDATASIZE DUP4 CALLDATACOPY DUP1 DUP3 ADD SWAP2 POP POP SWAP1 POP POP SWAP1 JUMP JUMPDEST PUSH1 0x40 MLOAD DUP1 PUSH1 0x20 ADD PUSH1 0x40 MSTORE DUP1 PUSH1 0x1 SWAP1 PUSH1 0x20 DUP3 MUL DUP1 CALLDATASIZE DUP4 CALLDATACOPY DUP1 DUP3 ADD SWAP2 POP POP SWAP1 POP POP SWAP1 JUMP JUMPDEST PUSH0 PUSH0 REVERT JUMPDEST PUSH0 PUSH0 REVERT JUMPDEST PUSH0 DUP2 SWAP1 POP DUP3 PUSH1 0x20 PUSH1 0x8 MUL DUP3 ADD GT ISZERO PUSH2 0x2279 JUMPI PUSH2 0x2278 PUSH2 0x225A JUMP JUMPDEST JUMPDEST SWAP3 SWAP2 POP POP JUMP JUMPDEST PUSH0 PUSH2 0x100 DUP3 DUP5 SUB SLT ISZERO PUSH2 0x2295 JUMPI PUSH2 0x2294 PUSH2 0x2256 JUMP JUMPDEST JUMPDEST PUSH0 PUSH2 0x22A2 DUP5 DUP3 DUP6 ADD PUSH2 0x225E JUMP JUMPDEST SWAP2 POP POP SWAP3 SWAP2 POP POP JUMP JUMPDEST PUSH0 PUSH1 0x4 SWAP1 POP SWAP2 SWAP1 POP JUMP JUMPDEST PUSH0 DUP2 SWAP1 POP SWAP3 SWAP2 POP POP JUMP JUMPDEST PUSH0 DUP2 SWAP1 POP SWAP2 SWAP1 POP JUMP JUMPDEST PUSH0 DUP2 SWAP1 POP SWAP2 SWAP1 POP JUMP JUMPDEST PUSH2 0x22DA DUP2 PUSH2 0x22C8 JUMP JUMPDEST DUP3 MSTORE POP POP JUMP JUMPDEST PUSH0 PUSH2 0x22EB DUP4 DUP4 PUSH2 0x22D1 JUMP JUMPDEST PUSH1 0x20 DUP4 ADD SWAP1 POP SWAP3 SWAP2 POP POP JUMP JUMPDEST PUSH0 PUSH1 0x20 DUP3 ADD SWAP1 POP SWAP2 SWAP1 POP JUMP JUMPDEST PUSH2 0x230C DUP2 PUSH2 0x22AB JUMP JUMPDEST PUSH2 0x2316 DUP2 DUP5 PUSH2 0x22B5 JUMP JUMPDEST SWAP3 POP PUSH2 0x2321 DUP3 PUSH2 0x22BF JUMP JUMPDEST DUP1 PUSH0 JUMPDEST DUP4 DUP2 LT ISZERO PUSH2 0x2351 JUMPI DUP2 MLOAD PUSH2 0x2338 DUP8 DUP3 PUSH2 0x22E0 JUMP JUMPDEST SWAP7 POP PUSH2 0x2343 DUP4 PUSH2 0x22F7 JUMP JUMPDEST SWAP3 POP POP PUSH1 0x1 DUP2 ADD SWAP1 POP PUSH2 0x2324 JUMP JUMPDEST POP POP POP POP POP POP JUMP JUMPDEST PUSH0 PUSH1 0x80 DUP3 ADD SWAP1 POP PUSH2 0x236C PUSH0 DUP4 ADD DUP5 PUSH2 0x2303 JUMP JUMPDEST SWAP3 SWAP2 POP POP JUMP JUMPDEST PUSH0 DUP2 SWAP1 POP DUP3 PUSH1 0x20 PUSH1 0x4 MUL DUP3 ADD GT ISZERO PUSH2 0x238D JUMPI PUSH2 0x238C PUSH2 0x225A JUMP JUMPDEST JUMPDEST SWAP3 SWAP2 POP POP JUMP JUMPDEST PUSH0 PUSH0 PUSH2 0x180 DUP4 DUP6 SUB SLT ISZERO PUSH2 0x23AA JUMPI PUSH2 0x23A9 PUSH2 0x2256 JUMP JUMPDEST JUMPDEST PUSH0 PUSH2 0x23B7 DUP6 DUP3 DUP7 ADD PUSH2 0x2372 JUMP JUMPDEST SWAP3 POP POP PUSH1 0x80 PUSH2 0x23C8 DUP6 DUP3 DUP7 ADD PUSH2 0x225E JUMP JUMPDEST SWAP2 POP POP SWAP3 POP SWAP3 SWAP1 POP JUMP JUMPDEST PUSH0 PUSH0 PUSH2 0x200 DUP4 DUP6 SUB SLT ISZERO PUSH2 0x23E9 JUMPI PUSH2 0x23E8 PUSH2 0x2256 JUMP JUMPDEST JUMPDEST PUSH0 PUSH2 0x23F6 DUP6 DUP3 DUP7 ADD PUSH2 0x225E JUMP JUMPDEST SWAP3 POP POP PUSH2 0x100 PUSH2 0x2408 DUP6 DUP3 DUP7 ADD PUSH2 0x225E JUMP JUMPDEST SWAP2 POP POP SWAP3 POP SWAP3 SWAP1 POP JUMP JUMPDEST PUSH32 0x4E487B7100000000000000000000000000000000000000000000000000000000 PUSH0 MSTORE PUSH1 0x32 PUSH1 0x4 MSTORE PUSH1 0x24 PUSH0 REVERT JUMPDEST PUSH32 0x4E487B7100000000000000000000000000000000000000000000000000000000 PUSH0 MSTORE PUSH1 0x12 PUSH1 0x4 MSTORE PUSH1 0x24 PUSH0 REVERT JUMPDEST PUSH32 0x4E487B7100000000000000000000000000000000000000000000000000000000 PUSH0 MSTORE PUSH1 0x11 PUSH1 0x4 MSTORE PUSH1 0x24 PUSH0 REVERT JUMPDEST PUSH0 PUSH2 0x24A3 DUP3 PUSH2 0x22C8 JUMP JUMPDEST SWAP2 POP PUSH2 0x24AE DUP4 PUSH2 0x22C8 JUMP JUMPDEST SWAP3 POP DUP3 DUP3 SUB SWAP1 POP DUP2 DUP2 GT ISZERO PUSH2 0x24C6 JUMPI PUSH2 0x24C5 PUSH2 0x246C JUMP JUMPDEST JUMPDEST SWAP3 SWAP2 POP POP JUMP INVALID LOG2 PUSH5 0x6970667358 0x22 SLT KECCAK256 0xBE 0x4E DUP11 NUMBER TLOAD SSTORE CLZ DATALOADN 0x4DF 0xB4 0xEB SWAP7 0x2D 0xF6 ADDRESS 0xB5 ISZERO SWAP15 0xB8 SAR 0xCB SLT 0xCA PUSH25 0x99DA2A1E6C445764736F6C634300081F003300000000000000 "
				},
				"gasEstimates": {
					"creation": {
						"codeDepositCost": "1894800",
						"executionCost": "2003",
						"totalCost": "1896803"
					},
					"external": {
						"compressProof(uint256[8])": "infinite",
						"verifyCompressedProof(uint256[4],uint256[8])": "infinite",
						"verifyProof(uint256[8],uint256[8])": "infinite"
					},
					"internal": {
						"compress_g1(uint256,uint256)": "infinite",
						"compress_g2(uint256,uint256,uint256,uint256)": "infinite",
						"decompress_g1(uint256)": "infinite",
						"decompress_g2(uint256,uint256)": "infinite",
						"exp(uint256,uint256)": "infinite",
						"invert_Fp(uint256)": "infinite",
						"isSquare_Fp(uint256)": "infinite",
						"negate(uint256)": "83",
						"publicInputMSM(uint256[8] calldata)": "infinite",
						"sqrt_Fp(uint256)": "infinite",
						"sqrt_Fp2(uint256,uint256,bool)": "infinite"
					}
				},
				"methodIdentifiers": {
					"compressProof(uint256[8])": "44f63692",
					"verifyCompressedProof(uint256[4],uint256[8])": "48306671",
					"verifyProof(uint256[8],uint256[8])": "a6047e6c"
				}
			},
			"storageLayout": {
				"storage": [],
				"types": null
			},
			"userdoc": {
				"errors": {
					"ProofInvalid()": [
						{
							"notice": "The proof is invalid."
						}
					],
					"PublicInputNotInField()": [
						{
							"notice": "Some of the provided public input values are larger than the field modulus."
						}
					]
				},
				"kind": "user",
				"methods": {
					"compressProof(uint256[8])": {
						"notice": "Compress a proof.Will revert with InvalidProof if the curve points are invalid, but does not verify the proof itself."
					},
					"verifyCompressedProof(uint256[4],uint256[8])": {
						"notice": "Verify a Groth16 proof with compressed points.Reverts with InvalidProof if the proof is invalid or with PublicInputNotInField the public input is not reduced.There is no return value. If the function does not revert, the proof was successfully verified."
					},
					"verifyProof(uint256[8],uint256[8])": {
						"notice": "Verify an uncompressed Groth16 proof.Reverts with InvalidProof if the proof is invalid or with PublicInputNotInField the public input is not reduced.There is no return value. If the function does not revert, the proof was successfully verified."
					}
				},
				"notice": "Supports verifying Groth16 proofs. Proofs can be in uncompressed (256 bytes) and compressed (128 bytes) format. A view function is provided to compress proofs.See <https://2π.com/23/bn254-compression> for further explanation.",
				"version": 1
			}
		}
	}
}