{
	"Evm/interfaces/shared.sol": {
		"SharedInterface": {
			"abi": [
				{
					"inputs": [
						{
							"internalType": "address",
							"name": "_events",
							"type": "address"
						}
					],
					"stateMutability": "nonpayable",
					"type": "constructor"
				},
				{
					"inputs": [],
					"name": "events",
					"outputs": [
						{
							"internalType": "contract IEvents",
							"name": "",
							"type": "address"
						}
					],
					"stateMutability": "view",
					"type": "function"
				},
				{
					"inputs": [
						{
							"internalType": "string",
							"name": "name",
							"type": "string"
						},
						{
							"internalType": "string",
							"name": "ref_code",
							"type": "string"
						},
						{
							"internalType": "string",
							"name": "used_ref_code",
							"type": "string"
						},
						{
							"internalType": "string",
							"name": "selected_validator",
							"type": "string"
						},
						{
							"internalType": "uint64",
							"name": "xp_tax",
							"type": "uint64"
						},
						{
							"internalType": "uint64",
							"name": "fee_tax",
							"type": "uint64"
						}
					],
					"name": "m_create_shared_storage",
					"outputs": [],
					"stateMutability": "nonpayable",
					"type": "function"
				},
				{
					"inputs": [
						{
							"internalType": "string",
							"name": "name",
							"type": "string"
						},
						{
							"internalType": "bytes",
							"name": "sub_owner",
							"type": "bytes"
						}
					],
					"name": "p_allow_sub_owner",
					"outputs": [],
					"stateMutability": "nonpayable",
					"type": "function"
				},
				{
					"inputs": [
						{
							"internalType": "string",
							"name": "name",
							"type": "string"
						},
						{
							"internalType": "bytes",
							"name": "sub_owner",
							"type": "bytes"
						},
						{
							"internalType": "string",
							"name": "new_used_ref_code",
							"type": "string"
						}
					],
					"name": "p_change_used_ref_code",
					"outputs": [],
					"stateMutability": "nonpayable",
					"type": "function"
				},
				{
					"inputs": [
						{
							"internalType": "string",
							"name": "name",
							"type": "string"
						},
						{
							"internalType": "bytes",
							"name": "sub_owner",
							"type": "bytes"
						}
					],
					"name": "p_remove_sub_owner",
					"outputs": [],
					"stateMutability": "nonpayable",
					"type": "function"
				}
			],
			"devdoc": {
				"kind": "dev",
				"methods": {},
				"version": 1
			},
			"evm": {
				"assembly": "    /* \"Evm/interfaces/shared.sol\":417:3707  contract SharedInterface  {... */\n  mstore(0x40, 0xa0)\n    /* \"Evm/interfaces/shared.sol\":492:566  constructor(address _events)  {... */\n  callvalue\n  dup1\n  iszero\n  tag_1\n  jumpi\n  revert(0x00, 0x00)\ntag_1:\n  pop\n  mload(0x40)\n  sub(codesize, bytecodeSize)\n  dup1\n  bytecodeSize\n  dup4\n  codecopy\n  dup2\n  dup2\n  add\n  0x40\n  mstore\n  dup2\n  add\n  swap1\n  tag_2\n  swap2\n  swap1\n  tag_3\n  jump\t// in\ntag_2:\n    /* \"Evm/interfaces/shared.sol\":550:557  _events */\n  dup1\n    /* \"Evm/interfaces/shared.sol\":533:558  events = IEvents(_events) */\n  0xffffffffffffffffffffffffffffffffffffffff\n  and\n  0x80\n  dup2\n  0xffffffffffffffffffffffffffffffffffffffff\n  and\n  dup2\n  mstore\n  pop\n  pop\n    /* \"Evm/interfaces/shared.sol\":492:566  constructor(address _events)  {... */\n  pop\n    /* \"Evm/interfaces/shared.sol\":417:3707  contract SharedInterface  {... */\n  jump(tag_6)\n    /* \"#utility.yul\":88:205   */\ntag_8:\n    /* \"#utility.yul\":197:198   */\n  0x00\n    /* \"#utility.yul\":194:195   */\n  0x00\n    /* \"#utility.yul\":187:199   */\n  revert\n    /* \"#utility.yul\":334:460   */\ntag_10:\n    /* \"#utility.yul\":371:378   */\n  0x00\n    /* \"#utility.yul\":411:453   */\n  0xffffffffffffffffffffffffffffffffffffffff\n    /* \"#utility.yul\":404:409   */\n  dup3\n    /* \"#utility.yul\":400:454   */\n  and\n    /* \"#utility.yul\":389:454   */\n  swap1\n  pop\n    /* \"#utility.yul\":334:460   */\n  swap2\n  swap1\n  pop\n  jump\t// out\n    /* \"#utility.yul\":466:562   */\ntag_11:\n    /* \"#utility.yul\":503:510   */\n  0x00\n    /* \"#utility.yul\":532:556   */\n  tag_20\n    /* \"#utility.yul\":550:555   */\n  dup3\n    /* \"#utility.yul\":532:556   */\n  tag_10\n  jump\t// in\ntag_20:\n    /* \"#utility.yul\":521:556   */\n  swap1\n  pop\n    /* \"#utility.yul\":466:562   */\n  swap2\n  swap1\n  pop\n  jump\t// out\n    /* \"#utility.yul\":568:690   */\ntag_12:\n    /* \"#utility.yul\":641:665   */\n  tag_22\n    /* \"#utility.yul\":659:664   */\n  dup2\n    /* \"#utility.yul\":641:665   */\n  tag_11\n  jump\t// in\ntag_22:\n    /* \"#utility.yul\":634:639   */\n  dup2\n    /* \"#utility.yul\":631:666   */\n  eq\n    /* \"#utility.yul\":621:684   */\n  tag_23\n  jumpi\n    /* \"#utility.yul\":680:681   */\n  0x00\n    /* \"#utility.yul\":677:678   */\n  0x00\n    /* \"#utility.yul\":670:682   */\n  revert\n    /* \"#utility.yul\":621:684   */\ntag_23:\n    /* \"#utility.yul\":568:690   */\n  pop\n  jump\t// out\n    /* \"#utility.yul\":696:839   */\ntag_13:\n    /* \"#utility.yul\":753:758   */\n  0x00\n    /* \"#utility.yul\":784:790   */\n  dup2\n    /* \"#utility.yul\":778:791   */\n  mload\n    /* \"#utility.yul\":769:791   */\n  swap1\n  pop\n    /* \"#utility.yul\":800:833   */\n  tag_25\n    /* \"#utility.yul\":827:832   */\n  dup2\n    /* \"#utility.yul\":800:833   */\n  tag_12\n  jump\t// in\ntag_25:\n    /* \"#utility.yul\":696:839   */\n  swap3\n  swap2\n  pop\n  pop\n  jump\t// out\n    /* \"#utility.yul\":845:1196   */\ntag_3:\n    /* \"#utility.yul\":915:921   */\n  0x00\n    /* \"#utility.yul\":964:966   */\n  0x20\n    /* \"#utility.yul\":952:961   */\n  dup3\n    /* \"#utility.yul\":943:950   */\n  dup5\n    /* \"#utility.yul\":939:962   */\n  sub\n    /* \"#utility.yul\":935:967   */\n  slt\n    /* \"#utility.yul\":932:1051   */\n  iszero\n  tag_27\n  jumpi\n    /* \"#utility.yul\":970:1049   */\n  tag_28\n  tag_8\n  jump\t// in\ntag_28:\n    /* \"#utility.yul\":932:1051   */\ntag_27:\n    /* \"#utility.yul\":1090:1091   */\n  0x00\n    /* \"#utility.yul\":1115:1179   */\n  tag_29\n    /* \"#utility.yul\":1171:1178   */\n  dup5\n    /* \"#utility.yul\":1162:1168   */\n  dup3\n    /* \"#utility.yul\":1151:1160   */\n  dup6\n    /* \"#utility.yul\":1147:1169   */\n  add\n    /* \"#utility.yul\":1115:1179   */\n  tag_13\n  jump\t// in\ntag_29:\n    /* \"#utility.yul\":1105:1179   */\n  swap2\n  pop\n    /* \"#utility.yul\":1061:1189   */\n  pop\n    /* \"#utility.yul\":845:1196   */\n  swap3\n  swap2\n  pop\n  pop\n  jump\t// out\n    /* \"Evm/interfaces/shared.sol\":417:3707  contract SharedInterface  {... */\ntag_6:\n  mload(0x80)\n  codecopy(0x00, dataOffset(sub_0), dataSize(sub_0))\n  0x00\n  assignImmutable(\"0x6d6142e7bc5885f8a3af14e4530d0fef2107c35d29b4827380ff447a51b70068\")\n  return(0x00, dataSize(sub_0))\nstop\n\nsub_0: assembly {\n        /* \"Evm/interfaces/shared.sol\":417:3707  contract SharedInterface  {... */\n      mstore(0x40, 0x80)\n      callvalue\n      dup1\n      iszero\n      tag_1\n      jumpi\n      revert(0x00, 0x00)\n    tag_1:\n      pop\n      jumpi(tag_2, lt(calldatasize, 0x04))\n      shr(0xe0, calldataload(0x00))\n      dup1\n      0x4882beff\n      eq\n      tag_3\n      jumpi\n      dup1\n      0xb268d27a\n      eq\n      tag_4\n      jumpi\n      dup1\n      0xb5f8558c\n      eq\n      tag_5\n      jumpi\n      dup1\n      0xe9c1681f\n      eq\n      tag_6\n      jumpi\n      dup1\n      0xedb57606\n      eq\n      tag_7\n      jumpi\n    tag_2:\n      revert(0x00, 0x00)\n        /* \"Evm/interfaces/shared.sol\":3062:3704  function p_change_used_ref_code(string calldata name, bytes calldata sub_owner, string calldata new_used_ref_code) external {... */\n    tag_3:\n      tag_8\n      0x04\n      dup1\n      calldatasize\n      sub\n      dup2\n      add\n      swap1\n      tag_9\n      swap2\n      swap1\n      tag_10\n      jump\t// in\n    tag_9:\n      tag_11\n      jump\t// in\n    tag_8:\n      stop\n        /* \"Evm/interfaces/shared.sol\":1749:2246  function p_allow_sub_owner(string calldata name, bytes calldata sub_owner) external { ... */\n    tag_4:\n      tag_12\n      0x04\n      dup1\n      calldatasize\n      sub\n      dup2\n      add\n      swap1\n      tag_13\n      swap2\n      swap1\n      tag_14\n      jump\t// in\n    tag_13:\n      tag_15\n      jump\t// in\n    tag_12:\n      stop\n        /* \"Evm/interfaces/shared.sol\":452:483  IEvents public immutable events */\n    tag_5:\n      tag_16\n      tag_17\n      jump\t// in\n    tag_16:\n      mload(0x40)\n      tag_18\n      swap2\n      swap1\n      tag_19\n      jump\t// in\n    tag_18:\n      mload(0x40)\n      dup1\n      swap2\n      sub\n      swap1\n      return\n        /* \"Evm/interfaces/shared.sol\":574:1516  function m_create_shared_storage(string calldata name, string calldata ref_code, string calldata used_ref_code,  string calldata selected_validator, uint64 xp_tax, uint64 fee_tax ) external { ... */\n    tag_6:\n      tag_20\n      0x04\n      dup1\n      calldatasize\n      sub\n      dup2\n      add\n      swap1\n      tag_21\n      swap2\n      swap1\n      tag_22\n      jump\t// in\n    tag_21:\n      tag_23\n      jump\t// in\n    tag_20:\n      stop\n        /* \"Evm/interfaces/shared.sol\":2479:2979  function p_remove_sub_owner(string calldata name, bytes calldata sub_owner) external { ... */\n    tag_7:\n      tag_24\n      0x04\n      dup1\n      calldatasize\n      sub\n      dup2\n      add\n      swap1\n      tag_25\n      swap2\n      swap1\n      tag_14\n      jump\t// in\n    tag_25:\n      tag_26\n      jump\t// in\n    tag_24:\n      stop\n        /* \"Evm/interfaces/shared.sol\":3062:3704  function p_change_used_ref_code(string calldata name, bytes calldata sub_owner, string calldata new_used_ref_code) external {... */\n    tag_11:\n        /* \"Evm/interfaces/shared.sol\":3197:3228  IEvents.Data[] memory eventData */\n      0x00\n        /* \"Evm/interfaces/shared.sol\":3250:3251  4 */\n      0x04\n        /* \"Evm/interfaces/shared.sol\":3231:3252  new IEvents.Data[](4) */\n      0xffffffffffffffff\n      dup2\n      gt\n      iszero\n      tag_28\n      jumpi\n      tag_29\n      tag_30\n      jump\t// in\n    tag_29:\n    tag_28:\n      mload(0x40)\n      swap1\n      dup1\n      dup3\n      mstore\n      dup1\n      0x20\n      mul\n      0x20\n      add\n      dup3\n      add\n      0x40\n      mstore\n      dup1\n      iszero\n      tag_31\n      jumpi\n      dup2\n      0x20\n      add\n    tag_32:\n      tag_33\n      tag_34\n      jump\t// in\n    tag_33:\n      dup2\n      mstore\n      0x20\n      add\n      swap1\n      0x01\n      swap1\n      sub\n      swap1\n      dup2\n      tag_32\n      jumpi\n      swap1\n      pop\n    tag_31:\n      pop\n        /* \"Evm/interfaces/shared.sol\":3197:3252  IEvents.Data[] memory eventData = new IEvents.Data[](4) */\n      swap1\n      pop\n        /* \"Evm/interfaces/shared.sol\":3288:3345  IEvents.Data(\"sender\", \"address\", abi.encode(msg.sender)) */\n      mload(0x40)\n      dup1\n      0x60\n      add\n      0x40\n      mstore\n      dup1\n      mload(0x40)\n      dup1\n      0x40\n      add\n      0x40\n      mstore\n      dup1\n      0x06\n      dup2\n      mstore\n      0x20\n      add\n      0x73656e6465720000000000000000000000000000000000000000000000000000\n      dup2\n      mstore\n      pop\n      dup2\n      mstore\n      0x20\n      add\n      mload(0x40)\n      dup1\n      0x40\n      add\n      0x40\n      mstore\n      dup1\n      0x07\n      dup2\n      mstore\n      0x20\n      add\n      0x6164647265737300000000000000000000000000000000000000000000000000\n      dup2\n      mstore\n      pop\n      dup2\n      mstore\n      0x20\n      add\n        /* \"Evm/interfaces/shared.sol\":3333:3343  msg.sender */\n      caller\n        /* \"Evm/interfaces/shared.sol\":3322:3344  abi.encode(msg.sender) */\n      add(0x20, mload(0x40))\n      tag_35\n      swap2\n      swap1\n      tag_36\n      jump\t// in\n    tag_35:\n      mload(0x40)\n      0x20\n      dup2\n      dup4\n      sub\n      sub\n      dup2\n      mstore\n      swap1\n      0x40\n      mstore\n        /* \"Evm/interfaces/shared.sol\":3288:3345  IEvents.Data(\"sender\", \"address\", abi.encode(msg.sender)) */\n      dup2\n      mstore\n      pop\n        /* \"Evm/interfaces/shared.sol\":3273:3282  eventData */\n      dup2\n        /* \"Evm/interfaces/shared.sol\":3283:3284  0 */\n      0x00\n        /* \"Evm/interfaces/shared.sol\":3273:3285  eventData[0] */\n      dup2\n      mload\n      dup2\n      lt\n      tag_37\n      jumpi\n      tag_38\n      tag_39\n      jump\t// in\n    tag_38:\n    tag_37:\n      0x20\n      mul\n      0x20\n      add\n      add\n        /* \"Evm/interfaces/shared.sol\":3273:3345  eventData[0] = IEvents.Data(\"sender\", \"address\", abi.encode(msg.sender)) */\n      dup2\n      swap1\n      mstore\n      pop\n        /* \"Evm/interfaces/shared.sol\":3371:3428  IEvents.Data(\"sub_owner\", \"bytes\", abi.encode(sub_owner)) */\n      mload(0x40)\n      dup1\n      0x60\n      add\n      0x40\n      mstore\n      dup1\n      mload(0x40)\n      dup1\n      0x40\n      add\n      0x40\n      mstore\n      dup1\n      0x09\n      dup2\n      mstore\n      0x20\n      add\n      0x7375625f6f776e65720000000000000000000000000000000000000000000000\n      dup2\n      mstore\n      pop\n      dup2\n      mstore\n      0x20\n      add\n      mload(0x40)\n      dup1\n      0x40\n      add\n      0x40\n      mstore\n      dup1\n      0x05\n      dup2\n      mstore\n      0x20\n      add\n      0x6279746573000000000000000000000000000000000000000000000000000000\n      dup2\n      mstore\n      pop\n      dup2\n      mstore\n      0x20\n      add\n        /* \"Evm/interfaces/shared.sol\":3417:3426  sub_owner */\n      dup7\n      dup7\n        /* \"Evm/interfaces/shared.sol\":3406:3427  abi.encode(sub_owner) */\n      add(0x20, mload(0x40))\n      tag_40\n      swap3\n      swap2\n      swap1\n      tag_41\n      jump\t// in\n    tag_40:\n      mload(0x40)\n      0x20\n      dup2\n      dup4\n      sub\n      sub\n      dup2\n      mstore\n      swap1\n      0x40\n      mstore\n        /* \"Evm/interfaces/shared.sol\":3371:3428  IEvents.Data(\"sub_owner\", \"bytes\", abi.encode(sub_owner)) */\n      dup2\n      mstore\n      pop\n        /* \"Evm/interfaces/shared.sol\":3356:3365  eventData */\n      dup2\n        /* \"Evm/interfaces/shared.sol\":3366:3367  1 */\n      0x01\n        /* \"Evm/interfaces/shared.sol\":3356:3368  eventData[1] */\n      dup2\n      mload\n      dup2\n      lt\n      tag_42\n      jumpi\n      tag_43\n      tag_39\n      jump\t// in\n    tag_43:\n    tag_42:\n      0x20\n      mul\n      0x20\n      add\n      add\n        /* \"Evm/interfaces/shared.sol\":3356:3428  eventData[1] = IEvents.Data(\"sub_owner\", \"bytes\", abi.encode(sub_owner)) */\n      dup2\n      swap1\n      mstore\n      pop\n        /* \"Evm/interfaces/shared.sol\":3454:3502  IEvents.Data(\"name\", \"string\", abi.encode(name)) */\n      mload(0x40)\n      dup1\n      0x60\n      add\n      0x40\n      mstore\n      dup1\n      mload(0x40)\n      dup1\n      0x40\n      add\n      0x40\n      mstore\n      dup1\n      0x04\n      dup2\n      mstore\n      0x20\n      add\n      0x6e616d6500000000000000000000000000000000000000000000000000000000\n      dup2\n      mstore\n      pop\n      dup2\n      mstore\n      0x20\n      add\n      mload(0x40)\n      dup1\n      0x40\n      add\n      0x40\n      mstore\n      dup1\n      0x06\n      dup2\n      mstore\n      0x20\n      add\n      0x737472696e670000000000000000000000000000000000000000000000000000\n      dup2\n      mstore\n      pop\n      dup2\n      mstore\n      0x20\n      add\n        /* \"Evm/interfaces/shared.sol\":3496:3500  name */\n      dup9\n      dup9\n        /* \"Evm/interfaces/shared.sol\":3485:3501  abi.encode(name) */\n      add(0x20, mload(0x40))\n      tag_44\n      swap3\n      swap2\n      swap1\n      tag_45\n      jump\t// in\n    tag_44:\n      mload(0x40)\n      0x20\n      dup2\n      dup4\n      sub\n      sub\n      dup2\n      mstore\n      swap1\n      0x40\n      mstore\n        /* \"Evm/interfaces/shared.sol\":3454:3502  IEvents.Data(\"name\", \"string\", abi.encode(name)) */\n      dup2\n      mstore\n      pop\n        /* \"Evm/interfaces/shared.sol\":3439:3448  eventData */\n      dup2\n        /* \"Evm/interfaces/shared.sol\":3449:3450  2 */\n      0x02\n        /* \"Evm/interfaces/shared.sol\":3439:3451  eventData[2] */\n      dup2\n      mload\n      dup2\n      lt\n      tag_46\n      jumpi\n      tag_47\n      tag_39\n      jump\t// in\n    tag_47:\n    tag_46:\n      0x20\n      mul\n      0x20\n      add\n      add\n        /* \"Evm/interfaces/shared.sol\":3439:3502  eventData[2] = IEvents.Data(\"name\", \"string\", abi.encode(name)) */\n      dup2\n      swap1\n      mstore\n      pop\n        /* \"Evm/interfaces/shared.sol\":3528:3602  IEvents.Data(\"new_used_ref_code\", \"string\", abi.encode(new_used_ref_code)) */\n      mload(0x40)\n      dup1\n      0x60\n      add\n      0x40\n      mstore\n      dup1\n      mload(0x40)\n      dup1\n      0x40\n      add\n      0x40\n      mstore\n      dup1\n      0x11\n      dup2\n      mstore\n      0x20\n      add\n      0x6e65775f757365645f7265665f636f6465000000000000000000000000000000\n      dup2\n      mstore\n      pop\n      dup2\n      mstore\n      0x20\n      add\n      mload(0x40)\n      dup1\n      0x40\n      add\n      0x40\n      mstore\n      dup1\n      0x06\n      dup2\n      mstore\n      0x20\n      add\n      0x737472696e670000000000000000000000000000000000000000000000000000\n      dup2\n      mstore\n      pop\n      dup2\n      mstore\n      0x20\n      add\n        /* \"Evm/interfaces/shared.sol\":3583:3600  new_used_ref_code */\n      dup5\n      dup5\n        /* \"Evm/interfaces/shared.sol\":3572:3601  abi.encode(new_used_ref_code) */\n      add(0x20, mload(0x40))\n      tag_48\n      swap3\n      swap2\n      swap1\n      tag_45\n      jump\t// in\n    tag_48:\n      mload(0x40)\n      0x20\n      dup2\n      dup4\n      sub\n      sub\n      dup2\n      mstore\n      swap1\n      0x40\n      mstore\n        /* \"Evm/interfaces/shared.sol\":3528:3602  IEvents.Data(\"new_used_ref_code\", \"string\", abi.encode(new_used_ref_code)) */\n      dup2\n      mstore\n      pop\n        /* \"Evm/interfaces/shared.sol\":3513:3522  eventData */\n      dup2\n        /* \"Evm/interfaces/shared.sol\":3523:3524  3 */\n      0x03\n        /* \"Evm/interfaces/shared.sol\":3513:3525  eventData[3] */\n      dup2\n      mload\n      dup2\n      lt\n      tag_49\n      jumpi\n      tag_50\n      tag_39\n      jump\t// in\n    tag_50:\n    tag_49:\n      0x20\n      mul\n      0x20\n      add\n      add\n        /* \"Evm/interfaces/shared.sol\":3513:3602  eventData[3] = IEvents.Data(\"new_used_ref_code\", \"string\", abi.encode(new_used_ref_code)) */\n      dup2\n      swap1\n      mstore\n      pop\n        /* \"Evm/interfaces/shared.sol\":3623:3629  events */\n      immutable(\"0x6d6142e7bc5885f8a3af14e4530d0fef2107c35d29b4827380ff447a51b70068\")\n        /* \"Evm/interfaces/shared.sol\":3623:3644  events.emitVaultEvent */\n      0xffffffffffffffffffffffffffffffffffffffff\n      and\n      0x7d64fa9b\n        /* \"Evm/interfaces/shared.sol\":3686:3695  eventData */\n      dup3\n        /* \"Evm/interfaces/shared.sol\":3623:3696  events.emitVaultEvent(\"Modular Storage Used Ref Code Updated\", eventData) */\n      mload(0x40)\n      dup3\n      0xffffffff\n      and\n      0xe0\n      shl\n      dup2\n      mstore\n      0x04\n      add\n      tag_51\n      swap2\n      swap1\n      tag_52\n      jump\t// in\n    tag_51:\n      0x00\n      mload(0x40)\n      dup1\n      dup4\n      sub\n      dup2\n      0x00\n      dup8\n      dup1\n      extcodesize\n      iszero\n      dup1\n      iszero\n      tag_53\n      jumpi\n      revert(0x00, 0x00)\n    tag_53:\n      pop\n      gas\n      call\n      iszero\n      dup1\n      iszero\n      tag_55\n      jumpi\n      returndatacopy(0x00, 0x00, returndatasize)\n      revert(0x00, returndatasize)\n    tag_55:\n      pop\n      pop\n      pop\n      pop\n        /* \"Evm/interfaces/shared.sol\":3186:3704  {... */\n      pop\n        /* \"Evm/interfaces/shared.sol\":3062:3704  function p_change_used_ref_code(string calldata name, bytes calldata sub_owner, string calldata new_used_ref_code) external {... */\n      pop\n      pop\n      pop\n      pop\n      pop\n      pop\n      jump\t// out\n        /* \"Evm/interfaces/shared.sol\":1749:2246  function p_allow_sub_owner(string calldata name, bytes calldata sub_owner) external { ... */\n    tag_15:\n        /* \"Evm/interfaces/shared.sol\":1845:1876  IEvents.Data[] memory eventData */\n      0x00\n        /* \"Evm/interfaces/shared.sol\":1898:1899  3 */\n      0x03\n        /* \"Evm/interfaces/shared.sol\":1879:1900  new IEvents.Data[](3) */\n      0xffffffffffffffff\n      dup2\n      gt\n      iszero\n      tag_57\n      jumpi\n      tag_58\n      tag_30\n      jump\t// in\n    tag_58:\n    tag_57:\n      mload(0x40)\n      swap1\n      dup1\n      dup3\n      mstore\n      dup1\n      0x20\n      mul\n      0x20\n      add\n      dup3\n      add\n      0x40\n      mstore\n      dup1\n      iszero\n      tag_59\n      jumpi\n      dup2\n      0x20\n      add\n    tag_60:\n      tag_61\n      tag_34\n      jump\t// in\n    tag_61:\n      dup2\n      mstore\n      0x20\n      add\n      swap1\n      0x01\n      swap1\n      sub\n      swap1\n      dup2\n      tag_60\n      jumpi\n      swap1\n      pop\n    tag_59:\n      pop\n        /* \"Evm/interfaces/shared.sol\":1845:1900  IEvents.Data[] memory eventData = new IEvents.Data[](3) */\n      swap1\n      pop\n        /* \"Evm/interfaces/shared.sol\":1936:1993  IEvents.Data(\"sender\", \"address\", abi.encode(msg.sender)) */\n      mload(0x40)\n      dup1\n      0x60\n      add\n      0x40\n      mstore\n      dup1\n      mload(0x40)\n      dup1\n      0x40\n      add\n      0x40\n      mstore\n      dup1\n      0x06\n      dup2\n      mstore\n      0x20\n      add\n      0x73656e6465720000000000000000000000000000000000000000000000000000\n      dup2\n      mstore\n      pop\n      dup2\n      mstore\n      0x20\n      add\n      mload(0x40)\n      dup1\n      0x40\n      add\n      0x40\n      mstore\n      dup1\n      0x07\n      dup2\n      mstore\n      0x20\n      add\n      0x6164647265737300000000000000000000000000000000000000000000000000\n      dup2\n      mstore\n      pop\n      dup2\n      mstore\n      0x20\n      add\n        /* \"Evm/interfaces/shared.sol\":1981:1991  msg.sender */\n      caller\n        /* \"Evm/interfaces/shared.sol\":1970:1992  abi.encode(msg.sender) */\n      add(0x20, mload(0x40))\n      tag_62\n      swap2\n      swap1\n      tag_36\n      jump\t// in\n    tag_62:\n      mload(0x40)\n      0x20\n      dup2\n      dup4\n      sub\n      sub\n      dup2\n      mstore\n      swap1\n      0x40\n      mstore\n        /* \"Evm/interfaces/shared.sol\":1936:1993  IEvents.Data(\"sender\", \"address\", abi.encode(msg.sender)) */\n      dup2\n      mstore\n      pop\n        /* \"Evm/interfaces/shared.sol\":1921:1930  eventData */\n      dup2\n        /* \"Evm/interfaces/shared.sol\":1931:1932  0 */\n      0x00\n        /* \"Evm/interfaces/shared.sol\":1921:1933  eventData[0] */\n      dup2\n      mload\n      dup2\n      lt\n      tag_63\n      jumpi\n      tag_64\n      tag_39\n      jump\t// in\n    tag_64:\n    tag_63:\n      0x20\n      mul\n      0x20\n      add\n      add\n        /* \"Evm/interfaces/shared.sol\":1921:1993  eventData[0] = IEvents.Data(\"sender\", \"address\", abi.encode(msg.sender)) */\n      dup2\n      swap1\n      mstore\n      pop\n        /* \"Evm/interfaces/shared.sol\":2019:2076  IEvents.Data(\"sub_owner\", \"bytes\", abi.encode(sub_owner)) */\n      mload(0x40)\n      dup1\n      0x60\n      add\n      0x40\n      mstore\n      dup1\n      mload(0x40)\n      dup1\n      0x40\n      add\n      0x40\n      mstore\n      dup1\n      0x09\n      dup2\n      mstore\n      0x20\n      add\n      0x7375625f6f776e65720000000000000000000000000000000000000000000000\n      dup2\n      mstore\n      pop\n      dup2\n      mstore\n      0x20\n      add\n      mload(0x40)\n      dup1\n      0x40\n      add\n      0x40\n      mstore\n      dup1\n      0x05\n      dup2\n      mstore\n      0x20\n      add\n      0x6279746573000000000000000000000000000000000000000000000000000000\n      dup2\n      mstore\n      pop\n      dup2\n      mstore\n      0x20\n      add\n        /* \"Evm/interfaces/shared.sol\":2065:2074  sub_owner */\n      dup5\n      dup5\n        /* \"Evm/interfaces/shared.sol\":2054:2075  abi.encode(sub_owner) */\n      add(0x20, mload(0x40))\n      tag_65\n      swap3\n      swap2\n      swap1\n      tag_41\n      jump\t// in\n    tag_65:\n      mload(0x40)\n      0x20\n      dup2\n      dup4\n      sub\n      sub\n      dup2\n      mstore\n      swap1\n      0x40\n      mstore\n        /* \"Evm/interfaces/shared.sol\":2019:2076  IEvents.Data(\"sub_owner\", \"bytes\", abi.encode(sub_owner)) */\n      dup2\n      mstore\n      pop\n        /* \"Evm/interfaces/shared.sol\":2004:2013  eventData */\n      dup2\n        /* \"Evm/interfaces/shared.sol\":2014:2015  1 */\n      0x01\n        /* \"Evm/interfaces/shared.sol\":2004:2016  eventData[1] */\n      dup2\n      mload\n      dup2\n      lt\n      tag_66\n      jumpi\n      tag_67\n      tag_39\n      jump\t// in\n    tag_67:\n    tag_66:\n      0x20\n      mul\n      0x20\n      add\n      add\n        /* \"Evm/interfaces/shared.sol\":2004:2076  eventData[1] = IEvents.Data(\"sub_owner\", \"bytes\", abi.encode(sub_owner)) */\n      dup2\n      swap1\n      mstore\n      pop\n        /* \"Evm/interfaces/shared.sol\":2102:2150  IEvents.Data(\"name\", \"string\", abi.encode(name)) */\n      mload(0x40)\n      dup1\n      0x60\n      add\n      0x40\n      mstore\n      dup1\n      mload(0x40)\n      dup1\n      0x40\n      add\n      0x40\n      mstore\n      dup1\n      0x04\n      dup2\n      mstore\n      0x20\n      add\n      0x6e616d6500000000000000000000000000000000000000000000000000000000\n      dup2\n      mstore\n      pop\n      dup2\n      mstore\n      0x20\n      add\n      mload(0x40)\n      dup1\n      0x40\n      add\n      0x40\n      mstore\n      dup1\n      0x06\n      dup2\n      mstore\n      0x20\n      add\n      0x737472696e670000000000000000000000000000000000000000000000000000\n      dup2\n      mstore\n      pop\n      dup2\n      mstore\n      0x20\n      add\n        /* \"Evm/interfaces/shared.sol\":2144:2148  name */\n      dup7\n      dup7\n        /* \"Evm/interfaces/shared.sol\":2133:2149  abi.encode(name) */\n      add(0x20, mload(0x40))\n      tag_68\n      swap3\n      swap2\n      swap1\n      tag_45\n      jump\t// in\n    tag_68:\n      mload(0x40)\n      0x20\n      dup2\n      dup4\n      sub\n      sub\n      dup2\n      mstore\n      swap1\n      0x40\n      mstore\n        /* \"Evm/interfaces/shared.sol\":2102:2150  IEvents.Data(\"name\", \"string\", abi.encode(name)) */\n      dup2\n      mstore\n      pop\n        /* \"Evm/interfaces/shared.sol\":2087:2096  eventData */\n      dup2\n        /* \"Evm/interfaces/shared.sol\":2097:2098  2 */\n      0x02\n        /* \"Evm/interfaces/shared.sol\":2087:2099  eventData[2] */\n      dup2\n      mload\n      dup2\n      lt\n      tag_69\n      jumpi\n      tag_70\n      tag_39\n      jump\t// in\n    tag_70:\n    tag_69:\n      0x20\n      mul\n      0x20\n      add\n      add\n        /* \"Evm/interfaces/shared.sol\":2087:2150  eventData[2] = IEvents.Data(\"name\", \"string\", abi.encode(name)) */\n      dup2\n      swap1\n      mstore\n      pop\n        /* \"Evm/interfaces/shared.sol\":2171:2177  events */\n      immutable(\"0x6d6142e7bc5885f8a3af14e4530d0fef2107c35d29b4827380ff447a51b70068\")\n        /* \"Evm/interfaces/shared.sol\":2171:2192  events.emitVaultEvent */\n      0xffffffffffffffffffffffffffffffffffffffff\n      and\n      0x7d64fa9b\n        /* \"Evm/interfaces/shared.sol\":2228:2237  eventData */\n      dup3\n        /* \"Evm/interfaces/shared.sol\":2171:2238  events.emitVaultEvent(\"Modular Storage Sub Owner Added\", eventData) */\n      mload(0x40)\n      dup3\n      0xffffffff\n      and\n      0xe0\n      shl\n      dup2\n      mstore\n      0x04\n      add\n      tag_71\n      swap2\n      swap1\n      tag_72\n      jump\t// in\n    tag_71:\n      0x00\n      mload(0x40)\n      dup1\n      dup4\n      sub\n      dup2\n      0x00\n      dup8\n      dup1\n      extcodesize\n      iszero\n      dup1\n      iszero\n      tag_73\n      jumpi\n      revert(0x00, 0x00)\n    tag_73:\n      pop\n      gas\n      call\n      iszero\n      dup1\n      iszero\n      tag_75\n      jumpi\n      returndatacopy(0x00, 0x00, returndatasize)\n      revert(0x00, returndatasize)\n    tag_75:\n      pop\n      pop\n      pop\n      pop\n        /* \"Evm/interfaces/shared.sol\":1833:2246  { ... */\n      pop\n        /* \"Evm/interfaces/shared.sol\":1749:2246  function p_allow_sub_owner(string calldata name, bytes calldata sub_owner) external { ... */\n      pop\n      pop\n      pop\n      pop\n      jump\t// out\n        /* \"Evm/interfaces/shared.sol\":452:483  IEvents public immutable events */\n    tag_17:\n      immutable(\"0x6d6142e7bc5885f8a3af14e4530d0fef2107c35d29b4827380ff447a51b70068\")\n      dup2\n      jump\t// out\n        /* \"Evm/interfaces/shared.sol\":574:1516  function m_create_shared_storage(string calldata name, string calldata ref_code, string calldata used_ref_code,  string calldata selected_validator, uint64 xp_tax, uint64 fee_tax ) external { ... */\n    tag_23:\n        /* \"Evm/interfaces/shared.sol\":776:807  IEvents.Data[] memory eventData */\n      0x00\n        /* \"Evm/interfaces/shared.sol\":829:830  7 */\n      0x07\n        /* \"Evm/interfaces/shared.sol\":810:831  new IEvents.Data[](7) */\n      0xffffffffffffffff\n      dup2\n      gt\n      iszero\n      tag_77\n      jumpi\n      tag_78\n      tag_30\n      jump\t// in\n    tag_78:\n    tag_77:\n      mload(0x40)\n      swap1\n      dup1\n      dup3\n      mstore\n      dup1\n      0x20\n      mul\n      0x20\n      add\n      dup3\n      add\n      0x40\n      mstore\n      dup1\n      iszero\n      tag_79\n      jumpi\n      dup2\n      0x20\n      add\n    tag_80:\n      tag_81\n      tag_34\n      jump\t// in\n    tag_81:\n      dup2\n      mstore\n      0x20\n      add\n      swap1\n      0x01\n      swap1\n      sub\n      swap1\n      dup2\n      tag_80\n      jumpi\n      swap1\n      pop\n    tag_79:\n      pop\n        /* \"Evm/interfaces/shared.sol\":776:831  IEvents.Data[] memory eventData = new IEvents.Data[](7) */\n      swap1\n      pop\n        /* \"Evm/interfaces/shared.sol\":867:924  IEvents.Data(\"sender\", \"address\", abi.encode(msg.sender)) */\n      mload(0x40)\n      dup1\n      0x60\n      add\n      0x40\n      mstore\n      dup1\n      mload(0x40)\n      dup1\n      0x40\n      add\n      0x40\n      mstore\n      dup1\n      0x06\n      dup2\n      mstore\n      0x20\n      add\n      0x73656e6465720000000000000000000000000000000000000000000000000000\n      dup2\n      mstore\n      pop\n      dup2\n      mstore\n      0x20\n      add\n      mload(0x40)\n      dup1\n      0x40\n      add\n      0x40\n      mstore\n      dup1\n      0x07\n      dup2\n      mstore\n      0x20\n      add\n      0x6164647265737300000000000000000000000000000000000000000000000000\n      dup2\n      mstore\n      pop\n      dup2\n      mstore\n      0x20\n      add\n        /* \"Evm/interfaces/shared.sol\":912:922  msg.sender */\n      caller\n        /* \"Evm/interfaces/shared.sol\":901:923  abi.encode(msg.sender) */\n      add(0x20, mload(0x40))\n      tag_82\n      swap2\n      swap1\n      tag_36\n      jump\t// in\n    tag_82:\n      mload(0x40)\n      0x20\n      dup2\n      dup4\n      sub\n      sub\n      dup2\n      mstore\n      swap1\n      0x40\n      mstore\n        /* \"Evm/interfaces/shared.sol\":867:924  IEvents.Data(\"sender\", \"address\", abi.encode(msg.sender)) */\n      dup2\n      mstore\n      pop\n        /* \"Evm/interfaces/shared.sol\":852:861  eventData */\n      dup2\n        /* \"Evm/interfaces/shared.sol\":862:863  0 */\n      0x00\n        /* \"Evm/interfaces/shared.sol\":852:864  eventData[0] */\n      dup2\n      mload\n      dup2\n      lt\n      tag_83\n      jumpi\n      tag_84\n      tag_39\n      jump\t// in\n    tag_84:\n    tag_83:\n      0x20\n      mul\n      0x20\n      add\n      add\n        /* \"Evm/interfaces/shared.sol\":852:924  eventData[0] = IEvents.Data(\"sender\", \"address\", abi.encode(msg.sender)) */\n      dup2\n      swap1\n      mstore\n      pop\n        /* \"Evm/interfaces/shared.sol\":950:998  IEvents.Data(\"name\", \"string\", abi.encode(name)) */\n      mload(0x40)\n      dup1\n      0x60\n      add\n      0x40\n      mstore\n      dup1\n      mload(0x40)\n      dup1\n      0x40\n      add\n      0x40\n      mstore\n      dup1\n      0x04\n      dup2\n      mstore\n      0x20\n      add\n      0x6e616d6500000000000000000000000000000000000000000000000000000000\n      dup2\n      mstore\n      pop\n      dup2\n      mstore\n      0x20\n      add\n      mload(0x40)\n      dup1\n      0x40\n      add\n      0x40\n      mstore\n      dup1\n      0x06\n      dup2\n      mstore\n      0x20\n      add\n      0x737472696e670000000000000000000000000000000000000000000000000000\n      dup2\n      mstore\n      pop\n      dup2\n      mstore\n      0x20\n      add\n        /* \"Evm/interfaces/shared.sol\":992:996  name */\n      dup13\n      dup13\n        /* \"Evm/interfaces/shared.sol\":981:997  abi.encode(name) */\n      add(0x20, mload(0x40))\n      tag_85\n      swap3\n      swap2\n      swap1\n      tag_45\n      jump\t// in\n    tag_85:\n      mload(0x40)\n      0x20\n      dup2\n      dup4\n      sub\n      sub\n      dup2\n      mstore\n      swap1\n      0x40\n      mstore\n        /* \"Evm/interfaces/shared.sol\":950:998  IEvents.Data(\"name\", \"string\", abi.encode(name)) */\n      dup2\n      mstore\n      pop\n        /* \"Evm/interfaces/shared.sol\":935:944  eventData */\n      dup2\n        /* \"Evm/interfaces/shared.sol\":945:946  1 */\n      0x01\n        /* \"Evm/interfaces/shared.sol\":935:947  eventData[1] */\n      dup2\n      mload\n      dup2\n      lt\n      tag_86\n      jumpi\n      tag_87\n      tag_39\n      jump\t// in\n    tag_87:\n    tag_86:\n      0x20\n      mul\n      0x20\n      add\n      add\n        /* \"Evm/interfaces/shared.sol\":935:998  eventData[1] = IEvents.Data(\"name\", \"string\", abi.encode(name)) */\n      dup2\n      swap1\n      mstore\n      pop\n        /* \"Evm/interfaces/shared.sol\":1024:1080  IEvents.Data(\"ref_code\", \"string\", abi.encode(ref_code)) */\n      mload(0x40)\n      dup1\n      0x60\n      add\n      0x40\n      mstore\n      dup1\n      mload(0x40)\n      dup1\n      0x40\n      add\n      0x40\n      mstore\n      dup1\n      0x08\n      dup2\n      mstore\n      0x20\n      add\n      0x7265665f636f6465000000000000000000000000000000000000000000000000\n      dup2\n      mstore\n      pop\n      dup2\n      mstore\n      0x20\n      add\n      mload(0x40)\n      dup1\n      0x40\n      add\n      0x40\n      mstore\n      dup1\n      0x06\n      dup2\n      mstore\n      0x20\n      add\n      0x737472696e670000000000000000000000000000000000000000000000000000\n      dup2\n      mstore\n      pop\n      dup2\n      mstore\n      0x20\n      add\n        /* \"Evm/interfaces/shared.sol\":1070:1078  ref_code */\n      dup11\n      dup11\n        /* \"Evm/interfaces/shared.sol\":1059:1079  abi.encode(ref_code) */\n      add(0x20, mload(0x40))\n      tag_88\n      swap3\n      swap2\n      swap1\n      tag_45\n      jump\t// in\n    tag_88:\n      mload(0x40)\n      0x20\n      dup2\n      dup4\n      sub\n      sub\n      dup2\n      mstore\n      swap1\n      0x40\n      mstore\n        /* \"Evm/interfaces/shared.sol\":1024:1080  IEvents.Data(\"ref_code\", \"string\", abi.encode(ref_code)) */\n      dup2\n      mstore\n      pop\n        /* \"Evm/interfaces/shared.sol\":1009:1018  eventData */\n      dup2\n        /* \"Evm/interfaces/shared.sol\":1019:1020  2 */\n      0x02\n        /* \"Evm/interfaces/shared.sol\":1009:1021  eventData[2] */\n      dup2\n      mload\n      dup2\n      lt\n      tag_89\n      jumpi\n      tag_90\n      tag_39\n      jump\t// in\n    tag_90:\n    tag_89:\n      0x20\n      mul\n      0x20\n      add\n      add\n        /* \"Evm/interfaces/shared.sol\":1009:1080  eventData[2] = IEvents.Data(\"ref_code\", \"string\", abi.encode(ref_code)) */\n      dup2\n      swap1\n      mstore\n      pop\n        /* \"Evm/interfaces/shared.sol\":1106:1167  IEvents.Data(\"ref_code\", \"string\", abi.encode(used_ref_code)) */\n      mload(0x40)\n      dup1\n      0x60\n      add\n      0x40\n      mstore\n      dup1\n      mload(0x40)\n      dup1\n      0x40\n      add\n      0x40\n      mstore\n      dup1\n      0x08\n      dup2\n      mstore\n      0x20\n      add\n      0x7265665f636f6465000000000000000000000000000000000000000000000000\n      dup2\n      mstore\n      pop\n      dup2\n      mstore\n      0x20\n      add\n      mload(0x40)\n      dup1\n      0x40\n      add\n      0x40\n      mstore\n      dup1\n      0x06\n      dup2\n      mstore\n      0x20\n      add\n      0x737472696e670000000000000000000000000000000000000000000000000000\n      dup2\n      mstore\n      pop\n      dup2\n      mstore\n      0x20\n      add\n        /* \"Evm/interfaces/shared.sol\":1152:1165  used_ref_code */\n      dup9\n      dup9\n        /* \"Evm/interfaces/shared.sol\":1141:1166  abi.encode(used_ref_code) */\n      add(0x20, mload(0x40))\n      tag_91\n      swap3\n      swap2\n      swap1\n      tag_45\n      jump\t// in\n    tag_91:\n      mload(0x40)\n      0x20\n      dup2\n      dup4\n      sub\n      sub\n      dup2\n      mstore\n      swap1\n      0x40\n      mstore\n        /* \"Evm/interfaces/shared.sol\":1106:1167  IEvents.Data(\"ref_code\", \"string\", abi.encode(used_ref_code)) */\n      dup2\n      mstore\n      pop\n        /* \"Evm/interfaces/shared.sol\":1091:1100  eventData */\n      dup2\n        /* \"Evm/interfaces/shared.sol\":1101:1102  3 */\n      0x03\n        /* \"Evm/interfaces/shared.sol\":1091:1103  eventData[3] */\n      dup2\n      mload\n      dup2\n      lt\n      tag_92\n      jumpi\n      tag_93\n      tag_39\n      jump\t// in\n    tag_93:\n    tag_92:\n      0x20\n      mul\n      0x20\n      add\n      add\n        /* \"Evm/interfaces/shared.sol\":1091:1167  eventData[3] = IEvents.Data(\"ref_code\", \"string\", abi.encode(used_ref_code)) */\n      dup2\n      swap1\n      mstore\n      pop\n        /* \"Evm/interfaces/shared.sol\":1193:1269  IEvents.Data(\"selected_validator\", \"string\", abi.encode(selected_validator)) */\n      mload(0x40)\n      dup1\n      0x60\n      add\n      0x40\n      mstore\n      dup1\n      mload(0x40)\n      dup1\n      0x40\n      add\n      0x40\n      mstore\n      dup1\n      0x12\n      dup2\n      mstore\n      0x20\n      add\n      0x73656c65637465645f76616c696461746f720000000000000000000000000000\n      dup2\n      mstore\n      pop\n      dup2\n      mstore\n      0x20\n      add\n      mload(0x40)\n      dup1\n      0x40\n      add\n      0x40\n      mstore\n      dup1\n      0x06\n      dup2\n      mstore\n      0x20\n      add\n      0x737472696e670000000000000000000000000000000000000000000000000000\n      dup2\n      mstore\n      pop\n      dup2\n      mstore\n      0x20\n      add\n        /* \"Evm/interfaces/shared.sol\":1249:1267  selected_validator */\n      dup7\n      dup7\n        /* \"Evm/interfaces/shared.sol\":1238:1268  abi.encode(selected_validator) */\n      add(0x20, mload(0x40))\n      tag_94\n      swap3\n      swap2\n      swap1\n      tag_45\n      jump\t// in\n    tag_94:\n      mload(0x40)\n      0x20\n      dup2\n      dup4\n      sub\n      sub\n      dup2\n      mstore\n      swap1\n      0x40\n      mstore\n        /* \"Evm/interfaces/shared.sol\":1193:1269  IEvents.Data(\"selected_validator\", \"string\", abi.encode(selected_validator)) */\n      dup2\n      mstore\n      pop\n        /* \"Evm/interfaces/shared.sol\":1178:1187  eventData */\n      dup2\n        /* \"Evm/interfaces/shared.sol\":1188:1189  4 */\n      0x04\n        /* \"Evm/interfaces/shared.sol\":1178:1190  eventData[4] */\n      dup2\n      mload\n      dup2\n      lt\n      tag_95\n      jumpi\n      tag_96\n      tag_39\n      jump\t// in\n    tag_96:\n    tag_95:\n      0x20\n      mul\n      0x20\n      add\n      add\n        /* \"Evm/interfaces/shared.sol\":1178:1269  eventData[4] = IEvents.Data(\"selected_validator\", \"string\", abi.encode(selected_validator)) */\n      dup2\n      swap1\n      mstore\n      pop\n        /* \"Evm/interfaces/shared.sol\":1295:1347  IEvents.Data(\"xp_tax\", \"uint64\", abi.encode(xp_tax)) */\n      mload(0x40)\n      dup1\n      0x60\n      add\n      0x40\n      mstore\n      dup1\n      mload(0x40)\n      dup1\n      0x40\n      add\n      0x40\n      mstore\n      dup1\n      0x06\n      dup2\n      mstore\n      0x20\n      add\n      0x78705f7461780000000000000000000000000000000000000000000000000000\n      dup2\n      mstore\n      pop\n      dup2\n      mstore\n      0x20\n      add\n      mload(0x40)\n      dup1\n      0x40\n      add\n      0x40\n      mstore\n      dup1\n      0x06\n      dup2\n      mstore\n      0x20\n      add\n      0x75696e7436340000000000000000000000000000000000000000000000000000\n      dup2\n      mstore\n      pop\n      dup2\n      mstore\n      0x20\n      add\n        /* \"Evm/interfaces/shared.sol\":1339:1345  xp_tax */\n      dup5\n        /* \"Evm/interfaces/shared.sol\":1328:1346  abi.encode(xp_tax) */\n      add(0x20, mload(0x40))\n      tag_97\n      swap2\n      swap1\n      tag_98\n      jump\t// in\n    tag_97:\n      mload(0x40)\n      0x20\n      dup2\n      dup4\n      sub\n      sub\n      dup2\n      mstore\n      swap1\n      0x40\n      mstore\n        /* \"Evm/interfaces/shared.sol\":1295:1347  IEvents.Data(\"xp_tax\", \"uint64\", abi.encode(xp_tax)) */\n      dup2\n      mstore\n      pop\n        /* \"Evm/interfaces/shared.sol\":1280:1289  eventData */\n      dup2\n        /* \"Evm/interfaces/shared.sol\":1290:1291  5 */\n      0x05\n        /* \"Evm/interfaces/shared.sol\":1280:1292  eventData[5] */\n      dup2\n      mload\n      dup2\n      lt\n      tag_99\n      jumpi\n      tag_100\n      tag_39\n      jump\t// in\n    tag_100:\n    tag_99:\n      0x20\n      mul\n      0x20\n      add\n      add\n        /* \"Evm/interfaces/shared.sol\":1280:1347  eventData[5] = IEvents.Data(\"xp_tax\", \"uint64\", abi.encode(xp_tax)) */\n      dup2\n      swap1\n      mstore\n      pop\n        /* \"Evm/interfaces/shared.sol\":1373:1427  IEvents.Data(\"fee_tax\", \"uint64\", abi.encode(fee_tax)) */\n      mload(0x40)\n      dup1\n      0x60\n      add\n      0x40\n      mstore\n      dup1\n      mload(0x40)\n      dup1\n      0x40\n      add\n      0x40\n      mstore\n      dup1\n      0x07\n      dup2\n      mstore\n      0x20\n      add\n      0x6665655f74617800000000000000000000000000000000000000000000000000\n      dup2\n      mstore\n      pop\n      dup2\n      mstore\n      0x20\n      add\n      mload(0x40)\n      dup1\n      0x40\n      add\n      0x40\n      mstore\n      dup1\n      0x06\n      dup2\n      mstore\n      0x20\n      add\n      0x75696e7436340000000000000000000000000000000000000000000000000000\n      dup2\n      mstore\n      pop\n      dup2\n      mstore\n      0x20\n      add\n        /* \"Evm/interfaces/shared.sol\":1418:1425  fee_tax */\n      dup4\n        /* \"Evm/interfaces/shared.sol\":1407:1426  abi.encode(fee_tax) */\n      add(0x20, mload(0x40))\n      tag_101\n      swap2\n      swap1\n      tag_98\n      jump\t// in\n    tag_101:\n      mload(0x40)\n      0x20\n      dup2\n      dup4\n      sub\n      sub\n      dup2\n      mstore\n      swap1\n      0x40\n      mstore\n        /* \"Evm/interfaces/shared.sol\":1373:1427  IEvents.Data(\"fee_tax\", \"uint64\", abi.encode(fee_tax)) */\n      dup2\n      mstore\n      pop\n        /* \"Evm/interfaces/shared.sol\":1358:1367  eventData */\n      dup2\n        /* \"Evm/interfaces/shared.sol\":1368:1369  6 */\n      0x06\n        /* \"Evm/interfaces/shared.sol\":1358:1370  eventData[6] */\n      dup2\n      mload\n      dup2\n      lt\n      tag_102\n      jumpi\n      tag_103\n      tag_39\n      jump\t// in\n    tag_103:\n    tag_102:\n      0x20\n      mul\n      0x20\n      add\n      add\n        /* \"Evm/interfaces/shared.sol\":1358:1427  eventData[6] = IEvents.Data(\"fee_tax\", \"uint64\", abi.encode(fee_tax)) */\n      dup2\n      swap1\n      mstore\n      pop\n        /* \"Evm/interfaces/shared.sol\":1448:1454  events */\n      immutable(\"0x6d6142e7bc5885f8a3af14e4530d0fef2107c35d29b4827380ff447a51b70068\")\n        /* \"Evm/interfaces/shared.sol\":1448:1469  events.emitVaultEvent */\n      0xffffffffffffffffffffffffffffffffffffffff\n      and\n      0x7d64fa9b\n        /* \"Evm/interfaces/shared.sol\":1498:1507  eventData */\n      dup3\n        /* \"Evm/interfaces/shared.sol\":1448:1508  events.emitVaultEvent(\"Modular Storage Creation\", eventData) */\n      mload(0x40)\n      dup3\n      0xffffffff\n      and\n      0xe0\n      shl\n      dup2\n      mstore\n      0x04\n      add\n      tag_104\n      swap2\n      swap1\n      tag_105\n      jump\t// in\n    tag_104:\n      0x00\n      mload(0x40)\n      dup1\n      dup4\n      sub\n      dup2\n      0x00\n      dup8\n      dup1\n      extcodesize\n      iszero\n      dup1\n      iszero\n      tag_106\n      jumpi\n      revert(0x00, 0x00)\n    tag_106:\n      pop\n      gas\n      call\n      iszero\n      dup1\n      iszero\n      tag_108\n      jumpi\n      returndatacopy(0x00, 0x00, returndatasize)\n      revert(0x00, returndatasize)\n    tag_108:\n      pop\n      pop\n      pop\n      pop\n        /* \"Evm/interfaces/shared.sol\":764:1516  { ... */\n      pop\n        /* \"Evm/interfaces/shared.sol\":574:1516  function m_create_shared_storage(string calldata name, string calldata ref_code, string calldata used_ref_code,  string calldata selected_validator, uint64 xp_tax, uint64 fee_tax ) external { ... */\n      pop\n      pop\n      pop\n      pop\n      pop\n      pop\n      pop\n      pop\n      pop\n      pop\n      jump\t// out\n        /* \"Evm/interfaces/shared.sol\":2479:2979  function p_remove_sub_owner(string calldata name, bytes calldata sub_owner) external { ... */\n    tag_26:\n        /* \"Evm/interfaces/shared.sol\":2576:2607  IEvents.Data[] memory eventData */\n      0x00\n        /* \"Evm/interfaces/shared.sol\":2629:2630  3 */\n      0x03\n        /* \"Evm/interfaces/shared.sol\":2610:2631  new IEvents.Data[](3) */\n      0xffffffffffffffff\n      dup2\n      gt\n      iszero\n      tag_110\n      jumpi\n      tag_111\n      tag_30\n      jump\t// in\n    tag_111:\n    tag_110:\n      mload(0x40)\n      swap1\n      dup1\n      dup3\n      mstore\n      dup1\n      0x20\n      mul\n      0x20\n      add\n      dup3\n      add\n      0x40\n      mstore\n      dup1\n      iszero\n      tag_112\n      jumpi\n      dup2\n      0x20\n      add\n    tag_113:\n      tag_114\n      tag_34\n      jump\t// in\n    tag_114:\n      dup2\n      mstore\n      0x20\n      add\n      swap1\n      0x01\n      swap1\n      sub\n      swap1\n      dup2\n      tag_113\n      jumpi\n      swap1\n      pop\n    tag_112:\n      pop\n        /* \"Evm/interfaces/shared.sol\":2576:2631  IEvents.Data[] memory eventData = new IEvents.Data[](3) */\n      swap1\n      pop\n        /* \"Evm/interfaces/shared.sol\":2667:2724  IEvents.Data(\"sender\", \"address\", abi.encode(msg.sender)) */\n      mload(0x40)\n      dup1\n      0x60\n      add\n      0x40\n      mstore\n      dup1\n      mload(0x40)\n      dup1\n      0x40\n      add\n      0x40\n      mstore\n      dup1\n      0x06\n      dup2\n      mstore\n      0x20\n      add\n      0x73656e6465720000000000000000000000000000000000000000000000000000\n      dup2\n      mstore\n      pop\n      dup2\n      mstore\n      0x20\n      add\n      mload(0x40)\n      dup1\n      0x40\n      add\n      0x40\n      mstore\n      dup1\n      0x07\n      dup2\n      mstore\n      0x20\n      add\n      0x6164647265737300000000000000000000000000000000000000000000000000\n      dup2\n      mstore\n      pop\n      dup2\n      mstore\n      0x20\n      add\n        /* \"Evm/interfaces/shared.sol\":2712:2722  msg.sender */\n      caller\n        /* \"Evm/interfaces/shared.sol\":2701:2723  abi.encode(msg.sender) */\n      add(0x20, mload(0x40))\n      tag_115\n      swap2\n      swap1\n      tag_36\n      jump\t// in\n    tag_115:\n      mload(0x40)\n      0x20\n      dup2\n      dup4\n      sub\n      sub\n      dup2\n      mstore\n      swap1\n      0x40\n      mstore\n        /* \"Evm/interfaces/shared.sol\":2667:2724  IEvents.Data(\"sender\", \"address\", abi.encode(msg.sender)) */\n      dup2\n      mstore\n      pop\n        /* \"Evm/interfaces/shared.sol\":2652:2661  eventData */\n      dup2\n        /* \"Evm/interfaces/shared.sol\":2662:2663  0 */\n      0x00\n        /* \"Evm/interfaces/shared.sol\":2652:2664  eventData[0] */\n      dup2\n      mload\n      dup2\n      lt\n      tag_116\n      jumpi\n      tag_117\n      tag_39\n      jump\t// in\n    tag_117:\n    tag_116:\n      0x20\n      mul\n      0x20\n      add\n      add\n        /* \"Evm/interfaces/shared.sol\":2652:2724  eventData[0] = IEvents.Data(\"sender\", \"address\", abi.encode(msg.sender)) */\n      dup2\n      swap1\n      mstore\n      pop\n        /* \"Evm/interfaces/shared.sol\":2750:2807  IEvents.Data(\"sub_owner\", \"bytes\", abi.encode(sub_owner)) */\n      mload(0x40)\n      dup1\n      0x60\n      add\n      0x40\n      mstore\n      dup1\n      mload(0x40)\n      dup1\n      0x40\n      add\n      0x40\n      mstore\n      dup1\n      0x09\n      dup2\n      mstore\n      0x20\n      add\n      0x7375625f6f776e65720000000000000000000000000000000000000000000000\n      dup2\n      mstore\n      pop\n      dup2\n      mstore\n      0x20\n      add\n      mload(0x40)\n      dup1\n      0x40\n      add\n      0x40\n      mstore\n      dup1\n      0x05\n      dup2\n      mstore\n      0x20\n      add\n      0x6279746573000000000000000000000000000000000000000000000000000000\n      dup2\n      mstore\n      pop\n      dup2\n      mstore\n      0x20\n      add\n        /* \"Evm/interfaces/shared.sol\":2796:2805  sub_owner */\n      dup5\n      dup5\n        /* \"Evm/interfaces/shared.sol\":2785:2806  abi.encode(sub_owner) */\n      add(0x20, mload(0x40))\n      tag_118\n      swap3\n      swap2\n      swap1\n      tag_41\n      jump\t// in\n    tag_118:\n      mload(0x40)\n      0x20\n      dup2\n      dup4\n      sub\n      sub\n      dup2\n      mstore\n      swap1\n      0x40\n      mstore\n        /* \"Evm/interfaces/shared.sol\":2750:2807  IEvents.Data(\"sub_owner\", \"bytes\", abi.encode(sub_owner)) */\n      dup2\n      mstore\n      pop\n        /* \"Evm/interfaces/shared.sol\":2735:2744  eventData */\n      dup2\n        /* \"Evm/interfaces/shared.sol\":2745:2746  1 */\n      0x01\n        /* \"Evm/interfaces/shared.sol\":2735:2747  eventData[1] */\n      dup2\n      mload\n      dup2\n      lt\n      tag_119\n      jumpi\n      tag_120\n      tag_39\n      jump\t// in\n    tag_120:\n    tag_119:\n      0x20\n      mul\n      0x20\n      add\n      add\n        /* \"Evm/interfaces/shared.sol\":2735:2807  eventData[1] = IEvents.Data(\"sub_owner\", \"bytes\", abi.encode(sub_owner)) */\n      dup2\n      swap1\n      mstore\n      pop\n        /* \"Evm/interfaces/shared.sol\":2833:2881  IEvents.Data(\"name\", \"string\", abi.encode(name)) */\n      mload(0x40)\n      dup1\n      0x60\n      add\n      0x40\n      mstore\n      dup1\n      mload(0x40)\n      dup1\n      0x40\n      add\n      0x40\n      mstore\n      dup1\n      0x04\n      dup2\n      mstore\n      0x20\n      add\n      0x6e616d6500000000000000000000000000000000000000000000000000000000\n      dup2\n      mstore\n      pop\n      dup2\n      mstore\n      0x20\n      add\n      mload(0x40)\n      dup1\n      0x40\n      add\n      0x40\n      mstore\n      dup1\n      0x06\n      dup2\n      mstore\n      0x20\n      add\n      0x737472696e670000000000000000000000000000000000000000000000000000\n      dup2\n      mstore\n      pop\n      dup2\n      mstore\n      0x20\n      add\n        /* \"Evm/interfaces/shared.sol\":2875:2879  name */\n      dup7\n      dup7\n        /* \"Evm/interfaces/shared.sol\":2864:2880  abi.encode(name) */\n      add(0x20, mload(0x40))\n      tag_121\n      swap3\n      swap2\n      swap1\n      tag_45\n      jump\t// in\n    tag_121:\n      mload(0x40)\n      0x20\n      dup2\n      dup4\n      sub\n      sub\n      dup2\n      mstore\n      swap1\n      0x40\n      mstore\n        /* \"Evm/interfaces/shared.sol\":2833:2881  IEvents.Data(\"name\", \"string\", abi.encode(name)) */\n      dup2\n      mstore\n      pop\n        /* \"Evm/interfaces/shared.sol\":2818:2827  eventData */\n      dup2\n        /* \"Evm/interfaces/shared.sol\":2828:2829  2 */\n      0x02\n        /* \"Evm/interfaces/shared.sol\":2818:2830  eventData[2] */\n      dup2\n      mload\n      dup2\n      lt\n      tag_122\n      jumpi\n      tag_123\n      tag_39\n      jump\t// in\n    tag_123:\n    tag_122:\n      0x20\n      mul\n      0x20\n      add\n      add\n        /* \"Evm/interfaces/shared.sol\":2818:2881  eventData[2] = IEvents.Data(\"name\", \"string\", abi.encode(name)) */\n      dup2\n      swap1\n      mstore\n      pop\n        /* \"Evm/interfaces/shared.sol\":2902:2908  events */\n      immutable(\"0x6d6142e7bc5885f8a3af14e4530d0fef2107c35d29b4827380ff447a51b70068\")\n        /* \"Evm/interfaces/shared.sol\":2902:2923  events.emitVaultEvent */\n      0xffffffffffffffffffffffffffffffffffffffff\n      and\n      0x7d64fa9b\n        /* \"Evm/interfaces/shared.sol\":2961:2970  eventData */\n      dup3\n        /* \"Evm/interfaces/shared.sol\":2902:2971  events.emitVaultEvent(\"Modular Storage Sub Owner Removed\", eventData) */\n      mload(0x40)\n      dup3\n      0xffffffff\n      and\n      0xe0\n      shl\n      dup2\n      mstore\n      0x04\n      add\n      tag_124\n      swap2\n      swap1\n      tag_125\n      jump\t// in\n    tag_124:\n      0x00\n      mload(0x40)\n      dup1\n      dup4\n      sub\n      dup2\n      0x00\n      dup8\n      dup1\n      extcodesize\n      iszero\n      dup1\n      iszero\n      tag_126\n      jumpi\n      revert(0x00, 0x00)\n    tag_126:\n      pop\n      gas\n      call\n      iszero\n      dup1\n      iszero\n      tag_128\n      jumpi\n      returndatacopy(0x00, 0x00, returndatasize)\n      revert(0x00, returndatasize)\n    tag_128:\n      pop\n      pop\n      pop\n      pop\n        /* \"Evm/interfaces/shared.sol\":2564:2979  { ... */\n      pop\n        /* \"Evm/interfaces/shared.sol\":2479:2979  function p_remove_sub_owner(string calldata name, bytes calldata sub_owner) external { ... */\n      pop\n      pop\n      pop\n      pop\n      jump\t// out\n    tag_34:\n      mload(0x40)\n      dup1\n      0x60\n      add\n      0x40\n      mstore\n      dup1\n      0x60\n      dup2\n      mstore\n      0x20\n      add\n      0x60\n      dup2\n      mstore\n      0x20\n      add\n      0x60\n      dup2\n      mstore\n      pop\n      swap1\n      jump\t// out\n        /* \"#utility.yul\":88:205   */\n    tag_130:\n        /* \"#utility.yul\":197:198   */\n      0x00\n        /* \"#utility.yul\":194:195   */\n      0x00\n        /* \"#utility.yul\":187:199   */\n      revert\n        /* \"#utility.yul\":211:328   */\n    tag_131:\n        /* \"#utility.yul\":320:321   */\n      0x00\n        /* \"#utility.yul\":317:318   */\n      0x00\n        /* \"#utility.yul\":310:322   */\n      revert\n        /* \"#utility.yul\":334:451   */\n    tag_132:\n        /* \"#utility.yul\":443:444   */\n      0x00\n        /* \"#utility.yul\":440:441   */\n      0x00\n        /* \"#utility.yul\":433:445   */\n      revert\n        /* \"#utility.yul\":457:574   */\n    tag_133:\n        /* \"#utility.yul\":566:567   */\n      0x00\n        /* \"#utility.yul\":563:564   */\n      0x00\n        /* \"#utility.yul\":556:568   */\n      revert\n        /* \"#utility.yul\":580:697   */\n    tag_134:\n        /* \"#utility.yul\":689:690   */\n      0x00\n        /* \"#utility.yul\":686:687   */\n      0x00\n        /* \"#utility.yul\":679:691   */\n      revert\n        /* \"#utility.yul\":717:1270   */\n    tag_135:\n        /* \"#utility.yul\":775:783   */\n      0x00\n        /* \"#utility.yul\":785:791   */\n      0x00\n        /* \"#utility.yul\":835:838   */\n      dup4\n        /* \"#utility.yul\":828:832   */\n      0x1f\n        /* \"#utility.yul\":820:826   */\n      dup5\n        /* \"#utility.yul\":816:833   */\n      add\n        /* \"#utility.yul\":812:839   */\n      slt\n        /* \"#utility.yul\":802:924   */\n      tag_185\n      jumpi\n        /* \"#utility.yul\":843:922   */\n      tag_186\n      tag_132\n      jump\t// in\n    tag_186:\n        /* \"#utility.yul\":802:924   */\n    tag_185:\n        /* \"#utility.yul\":956:962   */\n      dup3\n        /* \"#utility.yul\":943:963   */\n      calldataload\n        /* \"#utility.yul\":933:963   */\n      swap1\n      pop\n        /* \"#utility.yul\":986:1004   */\n      0xffffffffffffffff\n        /* \"#utility.yul\":978:984   */\n      dup2\n        /* \"#utility.yul\":975:1005   */\n      gt\n        /* \"#utility.yul\":972:1089   */\n      iszero\n      tag_187\n      jumpi\n        /* \"#utility.yul\":1008:1087   */\n      tag_188\n      tag_133\n      jump\t// in\n    tag_188:\n        /* \"#utility.yul\":972:1089   */\n    tag_187:\n        /* \"#utility.yul\":1122:1126   */\n      0x20\n        /* \"#utility.yul\":1114:1120   */\n      dup4\n        /* \"#utility.yul\":1110:1127   */\n      add\n        /* \"#utility.yul\":1098:1127   */\n      swap2\n      pop\n        /* \"#utility.yul\":1176:1179   */\n      dup4\n        /* \"#utility.yul\":1168:1172   */\n      0x01\n        /* \"#utility.yul\":1160:1166   */\n      dup3\n        /* \"#utility.yul\":1156:1173   */\n      mul\n        /* \"#utility.yul\":1146:1154   */\n      dup4\n        /* \"#utility.yul\":1142:1174   */\n      add\n        /* \"#utility.yul\":1139:1180   */\n      gt\n        /* \"#utility.yul\":1136:1264   */\n      iszero\n      tag_189\n      jumpi\n        /* \"#utility.yul\":1183:1262   */\n      tag_190\n      tag_134\n      jump\t// in\n    tag_190:\n        /* \"#utility.yul\":1136:1264   */\n    tag_189:\n        /* \"#utility.yul\":717:1270   */\n      swap3\n      pop\n      swap3\n      swap1\n      pop\n      jump\t// out\n        /* \"#utility.yul\":1289:1841   */\n    tag_136:\n        /* \"#utility.yul\":1346:1354   */\n      0x00\n        /* \"#utility.yul\":1356:1362   */\n      0x00\n        /* \"#utility.yul\":1406:1409   */\n      dup4\n        /* \"#utility.yul\":1399:1403   */\n      0x1f\n        /* \"#utility.yul\":1391:1397   */\n      dup5\n        /* \"#utility.yul\":1387:1404   */\n      add\n        /* \"#utility.yul\":1383:1410   */\n      slt\n        /* \"#utility.yul\":1373:1495   */\n      tag_192\n      jumpi\n        /* \"#utility.yul\":1414:1493   */\n      tag_193\n      tag_132\n      jump\t// in\n    tag_193:\n        /* \"#utility.yul\":1373:1495   */\n    tag_192:\n        /* \"#utility.yul\":1527:1533   */\n      dup3\n        /* \"#utility.yul\":1514:1534   */\n      calldataload\n        /* \"#utility.yul\":1504:1534   */\n      swap1\n      pop\n        /* \"#utility.yul\":1557:1575   */\n      0xffffffffffffffff\n        /* \"#utility.yul\":1549:1555   */\n      dup2\n        /* \"#utility.yul\":1546:1576   */\n      gt\n        /* \"#utility.yul\":1543:1660   */\n      iszero\n      tag_194\n      jumpi\n        /* \"#utility.yul\":1579:1658   */\n      tag_195\n      tag_133\n      jump\t// in\n    tag_195:\n        /* \"#utility.yul\":1543:1660   */\n    tag_194:\n        /* \"#utility.yul\":1693:1697   */\n      0x20\n        /* \"#utility.yul\":1685:1691   */\n      dup4\n        /* \"#utility.yul\":1681:1698   */\n      add\n        /* \"#utility.yul\":1669:1698   */\n      swap2\n      pop\n        /* \"#utility.yul\":1747:1750   */\n      dup4\n        /* \"#utility.yul\":1739:1743   */\n      0x01\n        /* \"#utility.yul\":1731:1737   */\n      dup3\n        /* \"#utility.yul\":1727:1744   */\n      mul\n        /* \"#utility.yul\":1717:1725   */\n      dup4\n        /* \"#utility.yul\":1713:1745   */\n      add\n        /* \"#utility.yul\":1710:1751   */\n      gt\n        /* \"#utility.yul\":1707:1835   */\n      iszero\n      tag_196\n      jumpi\n        /* \"#utility.yul\":1754:1833   */\n      tag_197\n      tag_134\n      jump\t// in\n    tag_197:\n        /* \"#utility.yul\":1707:1835   */\n    tag_196:\n        /* \"#utility.yul\":1289:1841   */\n      swap3\n      pop\n      swap3\n      swap1\n      pop\n      jump\t// out\n        /* \"#utility.yul\":1847:3064   */\n    tag_10:\n        /* \"#utility.yul\":1959:1965   */\n      0x00\n        /* \"#utility.yul\":1967:1973   */\n      0x00\n        /* \"#utility.yul\":1975:1981   */\n      0x00\n        /* \"#utility.yul\":1983:1989   */\n      0x00\n        /* \"#utility.yul\":1991:1997   */\n      0x00\n        /* \"#utility.yul\":1999:2005   */\n      0x00\n        /* \"#utility.yul\":2048:2050   */\n      0x60\n        /* \"#utility.yul\":2036:2045   */\n      dup8\n        /* \"#utility.yul\":2027:2034   */\n      dup10\n        /* \"#utility.yul\":2023:2046   */\n      sub\n        /* \"#utility.yul\":2019:2051   */\n      slt\n        /* \"#utility.yul\":2016:2135   */\n      iszero\n      tag_199\n      jumpi\n        /* \"#utility.yul\":2054:2133   */\n      tag_200\n      tag_130\n      jump\t// in\n    tag_200:\n        /* \"#utility.yul\":2016:2135   */\n    tag_199:\n        /* \"#utility.yul\":2202:2203   */\n      0x00\n        /* \"#utility.yul\":2191:2200   */\n      dup8\n        /* \"#utility.yul\":2187:2204   */\n      add\n        /* \"#utility.yul\":2174:2205   */\n      calldataload\n        /* \"#utility.yul\":2232:2250   */\n      0xffffffffffffffff\n        /* \"#utility.yul\":2224:2230   */\n      dup2\n        /* \"#utility.yul\":2221:2251   */\n      gt\n        /* \"#utility.yul\":2218:2335   */\n      iszero\n      tag_201\n      jumpi\n        /* \"#utility.yul\":2254:2333   */\n      tag_202\n      tag_131\n      jump\t// in\n    tag_202:\n        /* \"#utility.yul\":2218:2335   */\n    tag_201:\n        /* \"#utility.yul\":2367:2432   */\n      tag_203\n        /* \"#utility.yul\":2424:2431   */\n      dup10\n        /* \"#utility.yul\":2415:2421   */\n      dup3\n        /* \"#utility.yul\":2404:2413   */\n      dup11\n        /* \"#utility.yul\":2400:2422   */\n      add\n        /* \"#utility.yul\":2367:2432   */\n      tag_135\n      jump\t// in\n    tag_203:\n        /* \"#utility.yul\":2349:2432   */\n      swap7\n      pop\n      swap7\n      pop\n        /* \"#utility.yul\":2145:2442   */\n      pop\n        /* \"#utility.yul\":2509:2511   */\n      0x20\n        /* \"#utility.yul\":2498:2507   */\n      dup8\n        /* \"#utility.yul\":2494:2512   */\n      add\n        /* \"#utility.yul\":2481:2513   */\n      calldataload\n        /* \"#utility.yul\":2540:2558   */\n      0xffffffffffffffff\n        /* \"#utility.yul\":2532:2538   */\n      dup2\n        /* \"#utility.yul\":2529:2559   */\n      gt\n        /* \"#utility.yul\":2526:2643   */\n      iszero\n      tag_204\n      jumpi\n        /* \"#utility.yul\":2562:2641   */\n      tag_205\n      tag_131\n      jump\t// in\n    tag_205:\n        /* \"#utility.yul\":2526:2643   */\n    tag_204:\n        /* \"#utility.yul\":2675:2739   */\n      tag_206\n        /* \"#utility.yul\":2731:2738   */\n      dup10\n        /* \"#utility.yul\":2722:2728   */\n      dup3\n        /* \"#utility.yul\":2711:2720   */\n      dup11\n        /* \"#utility.yul\":2707:2729   */\n      add\n        /* \"#utility.yul\":2675:2739   */\n      tag_136\n      jump\t// in\n    tag_206:\n        /* \"#utility.yul\":2657:2739   */\n      swap5\n      pop\n      swap5\n      pop\n        /* \"#utility.yul\":2452:2749   */\n      pop\n        /* \"#utility.yul\":2816:2818   */\n      0x40\n        /* \"#utility.yul\":2805:2814   */\n      dup8\n        /* \"#utility.yul\":2801:2819   */\n      add\n        /* \"#utility.yul\":2788:2820   */\n      calldataload\n        /* \"#utility.yul\":2847:2865   */\n      0xffffffffffffffff\n        /* \"#utility.yul\":2839:2845   */\n      dup2\n        /* \"#utility.yul\":2836:2866   */\n      gt\n        /* \"#utility.yul\":2833:2950   */\n      iszero\n      tag_207\n      jumpi\n        /* \"#utility.yul\":2869:2948   */\n      tag_208\n      tag_131\n      jump\t// in\n    tag_208:\n        /* \"#utility.yul\":2833:2950   */\n    tag_207:\n        /* \"#utility.yul\":2982:3047   */\n      tag_209\n        /* \"#utility.yul\":3039:3046   */\n      dup10\n        /* \"#utility.yul\":3030:3036   */\n      dup3\n        /* \"#utility.yul\":3019:3028   */\n      dup11\n        /* \"#utility.yul\":3015:3037   */\n      add\n        /* \"#utility.yul\":2982:3047   */\n      tag_135\n      jump\t// in\n    tag_209:\n        /* \"#utility.yul\":2964:3047   */\n      swap3\n      pop\n      swap3\n      pop\n        /* \"#utility.yul\":2759:3057   */\n      pop\n        /* \"#utility.yul\":1847:3064   */\n      swap3\n      swap6\n      pop\n      swap3\n      swap6\n      pop\n      swap3\n      swap6\n      jump\t// out\n        /* \"#utility.yul\":3070:3942   */\n    tag_14:\n        /* \"#utility.yul\":3161:3167   */\n      0x00\n        /* \"#utility.yul\":3169:3175   */\n      0x00\n        /* \"#utility.yul\":3177:3183   */\n      0x00\n        /* \"#utility.yul\":3185:3191   */\n      0x00\n        /* \"#utility.yul\":3234:3236   */\n      0x40\n        /* \"#utility.yul\":3222:3231   */\n      dup6\n        /* \"#utility.yul\":3213:3220   */\n      dup8\n        /* \"#utility.yul\":3209:3232   */\n      sub\n        /* \"#utility.yul\":3205:3237   */\n      slt\n        /* \"#utility.yul\":3202:3321   */\n      iszero\n      tag_211\n      jumpi\n        /* \"#utility.yul\":3240:3319   */\n      tag_212\n      tag_130\n      jump\t// in\n    tag_212:\n        /* \"#utility.yul\":3202:3321   */\n    tag_211:\n        /* \"#utility.yul\":3388:3389   */\n      0x00\n        /* \"#utility.yul\":3377:3386   */\n      dup6\n        /* \"#utility.yul\":3373:3390   */\n      add\n        /* \"#utility.yul\":3360:3391   */\n      calldataload\n        /* \"#utility.yul\":3418:3436   */\n      0xffffffffffffffff\n        /* \"#utility.yul\":3410:3416   */\n      dup2\n        /* \"#utility.yul\":3407:3437   */\n      gt\n        /* \"#utility.yul\":3404:3521   */\n      iszero\n      tag_213\n      jumpi\n        /* \"#utility.yul\":3440:3519   */\n      tag_214\n      tag_131\n      jump\t// in\n    tag_214:\n        /* \"#utility.yul\":3404:3521   */\n    tag_213:\n        /* \"#utility.yul\":3553:3618   */\n      tag_215\n        /* \"#utility.yul\":3610:3617   */\n      dup8\n        /* \"#utility.yul\":3601:3607   */\n      dup3\n        /* \"#utility.yul\":3590:3599   */\n      dup9\n        /* \"#utility.yul\":3586:3608   */\n      add\n        /* \"#utility.yul\":3553:3618   */\n      tag_135\n      jump\t// in\n    tag_215:\n        /* \"#utility.yul\":3535:3618   */\n      swap5\n      pop\n      swap5\n      pop\n        /* \"#utility.yul\":3331:3628   */\n      pop\n        /* \"#utility.yul\":3695:3697   */\n      0x20\n        /* \"#utility.yul\":3684:3693   */\n      dup6\n        /* \"#utility.yul\":3680:3698   */\n      add\n        /* \"#utility.yul\":3667:3699   */\n      calldataload\n        /* \"#utility.yul\":3726:3744   */\n      0xffffffffffffffff\n        /* \"#utility.yul\":3718:3724   */\n      dup2\n        /* \"#utility.yul\":3715:3745   */\n      gt\n        /* \"#utility.yul\":3712:3829   */\n      iszero\n      tag_216\n      jumpi\n        /* \"#utility.yul\":3748:3827   */\n      tag_217\n      tag_131\n      jump\t// in\n    tag_217:\n        /* \"#utility.yul\":3712:3829   */\n    tag_216:\n        /* \"#utility.yul\":3861:3925   */\n      tag_218\n        /* \"#utility.yul\":3917:3924   */\n      dup8\n        /* \"#utility.yul\":3908:3914   */\n      dup3\n        /* \"#utility.yul\":3897:3906   */\n      dup9\n        /* \"#utility.yul\":3893:3915   */\n      add\n        /* \"#utility.yul\":3861:3925   */\n      tag_136\n      jump\t// in\n    tag_218:\n        /* \"#utility.yul\":3843:3925   */\n      swap3\n      pop\n      swap3\n      pop\n        /* \"#utility.yul\":3638:3935   */\n      pop\n        /* \"#utility.yul\":3070:3942   */\n      swap3\n      swap6\n      swap2\n      swap5\n      pop\n      swap3\n      pop\n      jump\t// out\n        /* \"#utility.yul\":3948:4074   */\n    tag_137:\n        /* \"#utility.yul\":3985:3992   */\n      0x00\n        /* \"#utility.yul\":4025:4067   */\n      0xffffffffffffffffffffffffffffffffffffffff\n        /* \"#utility.yul\":4018:4023   */\n      dup3\n        /* \"#utility.yul\":4014:4068   */\n      and\n        /* \"#utility.yul\":4003:4068   */\n      swap1\n      pop\n        /* \"#utility.yul\":3948:4074   */\n      swap2\n      swap1\n      pop\n      jump\t// out\n        /* \"#utility.yul\":4080:4140   */\n    tag_138:\n        /* \"#utility.yul\":4108:4111   */\n      0x00\n        /* \"#utility.yul\":4129:4134   */\n      dup2\n        /* \"#utility.yul\":4122:4134   */\n      swap1\n      pop\n        /* \"#utility.yul\":4080:4140   */\n      swap2\n      swap1\n      pop\n      jump\t// out\n        /* \"#utility.yul\":4146:4288   */\n    tag_139:\n        /* \"#utility.yul\":4196:4205   */\n      0x00\n        /* \"#utility.yul\":4229:4282   */\n      tag_222\n        /* \"#utility.yul\":4247:4281   */\n      tag_223\n        /* \"#utility.yul\":4256:4280   */\n      tag_224\n        /* \"#utility.yul\":4274:4279   */\n      dup5\n        /* \"#utility.yul\":4256:4280   */\n      tag_137\n      jump\t// in\n    tag_224:\n        /* \"#utility.yul\":4247:4281   */\n      tag_138\n      jump\t// in\n    tag_223:\n        /* \"#utility.yul\":4229:4282   */\n      tag_137\n      jump\t// in\n    tag_222:\n        /* \"#utility.yul\":4216:4282   */\n      swap1\n      pop\n        /* \"#utility.yul\":4146:4288   */\n      swap2\n      swap1\n      pop\n      jump\t// out\n        /* \"#utility.yul\":4294:4420   */\n    tag_140:\n        /* \"#utility.yul\":4344:4353   */\n      0x00\n        /* \"#utility.yul\":4377:4414   */\n      tag_226\n        /* \"#utility.yul\":4408:4413   */\n      dup3\n        /* \"#utility.yul\":4377:4414   */\n      tag_139\n      jump\t// in\n    tag_226:\n        /* \"#utility.yul\":4364:4414   */\n      swap1\n      pop\n        /* \"#utility.yul\":4294:4420   */\n      swap2\n      swap1\n      pop\n      jump\t// out\n        /* \"#utility.yul\":4426:4567   */\n    tag_141:\n        /* \"#utility.yul\":4491:4500   */\n      0x00\n        /* \"#utility.yul\":4524:4561   */\n      tag_228\n        /* \"#utility.yul\":4555:4560   */\n      dup3\n        /* \"#utility.yul\":4524:4561   */\n      tag_140\n      jump\t// in\n    tag_228:\n        /* \"#utility.yul\":4511:4561   */\n      swap1\n      pop\n        /* \"#utility.yul\":4426:4567   */\n      swap2\n      swap1\n      pop\n      jump\t// out\n        /* \"#utility.yul\":4573:4734   */\n    tag_142:\n        /* \"#utility.yul\":4675:4727   */\n      tag_230\n        /* \"#utility.yul\":4721:4726   */\n      dup2\n        /* \"#utility.yul\":4675:4727   */\n      tag_141\n      jump\t// in\n    tag_230:\n        /* \"#utility.yul\":4670:4673   */\n      dup3\n        /* \"#utility.yul\":4663:4728   */\n      mstore\n        /* \"#utility.yul\":4573:4734   */\n      pop\n      pop\n      jump\t// out\n        /* \"#utility.yul\":4740:4992   */\n    tag_19:\n        /* \"#utility.yul\":4848:4852   */\n      0x00\n        /* \"#utility.yul\":4886:4888   */\n      0x20\n        /* \"#utility.yul\":4875:4884   */\n      dup3\n        /* \"#utility.yul\":4871:4889   */\n      add\n        /* \"#utility.yul\":4863:4889   */\n      swap1\n      pop\n        /* \"#utility.yul\":4899:4985   */\n      tag_232\n        /* \"#utility.yul\":4982:4983   */\n      0x00\n        /* \"#utility.yul\":4971:4980   */\n      dup4\n        /* \"#utility.yul\":4967:4984   */\n      add\n        /* \"#utility.yul\":4958:4964   */\n      dup5\n        /* \"#utility.yul\":4899:4985   */\n      tag_142\n      jump\t// in\n    tag_232:\n        /* \"#utility.yul\":4740:4992   */\n      swap3\n      swap2\n      pop\n      pop\n      jump\t// out\n        /* \"#utility.yul\":4998:5099   */\n    tag_143:\n        /* \"#utility.yul\":5034:5041   */\n      0x00\n        /* \"#utility.yul\":5074:5092   */\n      0xffffffffffffffff\n        /* \"#utility.yul\":5067:5072   */\n      dup3\n        /* \"#utility.yul\":5063:5093   */\n      and\n        /* \"#utility.yul\":5052:5093   */\n      swap1\n      pop\n        /* \"#utility.yul\":4998:5099   */\n      swap2\n      swap1\n      pop\n      jump\t// out\n        /* \"#utility.yul\":5105:5225   */\n    tag_144:\n        /* \"#utility.yul\":5177:5200   */\n      tag_235\n        /* \"#utility.yul\":5194:5199   */\n      dup2\n        /* \"#utility.yul\":5177:5200   */\n      tag_143\n      jump\t// in\n    tag_235:\n        /* \"#utility.yul\":5170:5175   */\n      dup2\n        /* \"#utility.yul\":5167:5201   */\n      eq\n        /* \"#utility.yul\":5157:5219   */\n      tag_236\n      jumpi\n        /* \"#utility.yul\":5215:5216   */\n      0x00\n        /* \"#utility.yul\":5212:5213   */\n      0x00\n        /* \"#utility.yul\":5205:5217   */\n      revert\n        /* \"#utility.yul\":5157:5219   */\n    tag_236:\n        /* \"#utility.yul\":5105:5225   */\n      pop\n      jump\t// out\n        /* \"#utility.yul\":5231:5368   */\n    tag_145:\n        /* \"#utility.yul\":5276:5281   */\n      0x00\n        /* \"#utility.yul\":5314:5320   */\n      dup2\n        /* \"#utility.yul\":5301:5321   */\n      calldataload\n        /* \"#utility.yul\":5292:5321   */\n      swap1\n      pop\n        /* \"#utility.yul\":5330:5362   */\n      tag_238\n        /* \"#utility.yul\":5356:5361   */\n      dup2\n        /* \"#utility.yul\":5330:5362   */\n      tag_144\n      jump\t// in\n    tag_238:\n        /* \"#utility.yul\":5231:5368   */\n      swap3\n      swap2\n      pop\n      pop\n      jump\t// out\n        /* \"#utility.yul\":5374:7227   */\n    tag_22:\n        /* \"#utility.yul\":5524:5530   */\n      0x00\n        /* \"#utility.yul\":5532:5538   */\n      0x00\n        /* \"#utility.yul\":5540:5546   */\n      0x00\n        /* \"#utility.yul\":5548:5554   */\n      0x00\n        /* \"#utility.yul\":5556:5562   */\n      0x00\n        /* \"#utility.yul\":5564:5570   */\n      0x00\n        /* \"#utility.yul\":5572:5578   */\n      0x00\n        /* \"#utility.yul\":5580:5586   */\n      0x00\n        /* \"#utility.yul\":5588:5594   */\n      0x00\n        /* \"#utility.yul\":5596:5602   */\n      0x00\n        /* \"#utility.yul\":5645:5648   */\n      0xc0\n        /* \"#utility.yul\":5633:5642   */\n      dup12\n        /* \"#utility.yul\":5624:5631   */\n      dup14\n        /* \"#utility.yul\":5620:5643   */\n      sub\n        /* \"#utility.yul\":5616:5649   */\n      slt\n        /* \"#utility.yul\":5613:5733   */\n      iszero\n      tag_240\n      jumpi\n        /* \"#utility.yul\":5652:5731   */\n      tag_241\n      tag_130\n      jump\t// in\n    tag_241:\n        /* \"#utility.yul\":5613:5733   */\n    tag_240:\n        /* \"#utility.yul\":5800:5801   */\n      0x00\n        /* \"#utility.yul\":5789:5798   */\n      dup12\n        /* \"#utility.yul\":5785:5802   */\n      add\n        /* \"#utility.yul\":5772:5803   */\n      calldataload\n        /* \"#utility.yul\":5830:5848   */\n      0xffffffffffffffff\n        /* \"#utility.yul\":5822:5828   */\n      dup2\n        /* \"#utility.yul\":5819:5849   */\n      gt\n        /* \"#utility.yul\":5816:5933   */\n      iszero\n      tag_242\n      jumpi\n        /* \"#utility.yul\":5852:5931   */\n      tag_243\n      tag_131\n      jump\t// in\n    tag_243:\n        /* \"#utility.yul\":5816:5933   */\n    tag_242:\n        /* \"#utility.yul\":5965:6030   */\n      tag_244\n        /* \"#utility.yul\":6022:6029   */\n      dup14\n        /* \"#utility.yul\":6013:6019   */\n      dup3\n        /* \"#utility.yul\":6002:6011   */\n      dup15\n        /* \"#utility.yul\":5998:6020   */\n      add\n        /* \"#utility.yul\":5965:6030   */\n      tag_135\n      jump\t// in\n    tag_244:\n        /* \"#utility.yul\":5947:6030   */\n      swap11\n      pop\n      swap11\n      pop\n        /* \"#utility.yul\":5743:6040   */\n      pop\n        /* \"#utility.yul\":6107:6109   */\n      0x20\n        /* \"#utility.yul\":6096:6105   */\n      dup12\n        /* \"#utility.yul\":6092:6110   */\n      add\n        /* \"#utility.yul\":6079:6111   */\n      calldataload\n        /* \"#utility.yul\":6138:6156   */\n      0xffffffffffffffff\n        /* \"#utility.yul\":6130:6136   */\n      dup2\n        /* \"#utility.yul\":6127:6157   */\n      gt\n        /* \"#utility.yul\":6124:6241   */\n      iszero\n      tag_245\n      jumpi\n        /* \"#utility.yul\":6160:6239   */\n      tag_246\n      tag_131\n      jump\t// in\n    tag_246:\n        /* \"#utility.yul\":6124:6241   */\n    tag_245:\n        /* \"#utility.yul\":6273:6338   */\n      tag_247\n        /* \"#utility.yul\":6330:6337   */\n      dup14\n        /* \"#utility.yul\":6321:6327   */\n      dup3\n        /* \"#utility.yul\":6310:6319   */\n      dup15\n        /* \"#utility.yul\":6306:6328   */\n      add\n        /* \"#utility.yul\":6273:6338   */\n      tag_135\n      jump\t// in\n    tag_247:\n        /* \"#utility.yul\":6255:6338   */\n      swap9\n      pop\n      swap9\n      pop\n        /* \"#utility.yul\":6050:6348   */\n      pop\n        /* \"#utility.yul\":6415:6417   */\n      0x40\n        /* \"#utility.yul\":6404:6413   */\n      dup12\n        /* \"#utility.yul\":6400:6418   */\n      add\n        /* \"#utility.yul\":6387:6419   */\n      calldataload\n        /* \"#utility.yul\":6446:6464   */\n      0xffffffffffffffff\n        /* \"#utility.yul\":6438:6444   */\n      dup2\n        /* \"#utility.yul\":6435:6465   */\n      gt\n        /* \"#utility.yul\":6432:6549   */\n      iszero\n      tag_248\n      jumpi\n        /* \"#utility.yul\":6468:6547   */\n      tag_249\n      tag_131\n      jump\t// in\n    tag_249:\n        /* \"#utility.yul\":6432:6549   */\n    tag_248:\n        /* \"#utility.yul\":6581:6646   */\n      tag_250\n        /* \"#utility.yul\":6638:6645   */\n      dup14\n        /* \"#utility.yul\":6629:6635   */\n      dup3\n        /* \"#utility.yul\":6618:6627   */\n      dup15\n        /* \"#utility.yul\":6614:6636   */\n      add\n        /* \"#utility.yul\":6581:6646   */\n      tag_135\n      jump\t// in\n    tag_250:\n        /* \"#utility.yul\":6563:6646   */\n      swap7\n      pop\n      swap7\n      pop\n        /* \"#utility.yul\":6358:6656   */\n      pop\n        /* \"#utility.yul\":6723:6725   */\n      0x60\n        /* \"#utility.yul\":6712:6721   */\n      dup12\n        /* \"#utility.yul\":6708:6726   */\n      add\n        /* \"#utility.yul\":6695:6727   */\n      calldataload\n        /* \"#utility.yul\":6754:6772   */\n      0xffffffffffffffff\n        /* \"#utility.yul\":6746:6752   */\n      dup2\n        /* \"#utility.yul\":6743:6773   */\n      gt\n        /* \"#utility.yul\":6740:6857   */\n      iszero\n      tag_251\n      jumpi\n        /* \"#utility.yul\":6776:6855   */\n      tag_252\n      tag_131\n      jump\t// in\n    tag_252:\n        /* \"#utility.yul\":6740:6857   */\n    tag_251:\n        /* \"#utility.yul\":6889:6954   */\n      tag_253\n        /* \"#utility.yul\":6946:6953   */\n      dup14\n        /* \"#utility.yul\":6937:6943   */\n      dup3\n        /* \"#utility.yul\":6926:6935   */\n      dup15\n        /* \"#utility.yul\":6922:6944   */\n      add\n        /* \"#utility.yul\":6889:6954   */\n      tag_135\n      jump\t// in\n    tag_253:\n        /* \"#utility.yul\":6871:6954   */\n      swap5\n      pop\n      swap5\n      pop\n        /* \"#utility.yul\":6666:6964   */\n      pop\n        /* \"#utility.yul\":7003:7006   */\n      0x80\n        /* \"#utility.yul\":7030:7082   */\n      tag_254\n        /* \"#utility.yul\":7074:7081   */\n      dup14\n        /* \"#utility.yul\":7065:7071   */\n      dup3\n        /* \"#utility.yul\":7054:7063   */\n      dup15\n        /* \"#utility.yul\":7050:7072   */\n      add\n        /* \"#utility.yul\":7030:7082   */\n      tag_145\n      jump\t// in\n    tag_254:\n        /* \"#utility.yul\":7020:7082   */\n      swap3\n      pop\n        /* \"#utility.yul\":6974:7092   */\n      pop\n        /* \"#utility.yul\":7131:7134   */\n      0xa0\n        /* \"#utility.yul\":7158:7210   */\n      tag_255\n        /* \"#utility.yul\":7202:7209   */\n      dup14\n        /* \"#utility.yul\":7193:7199   */\n      dup3\n        /* \"#utility.yul\":7182:7191   */\n      dup15\n        /* \"#utility.yul\":7178:7200   */\n      add\n        /* \"#utility.yul\":7158:7210   */\n      tag_145\n      jump\t// in\n    tag_255:\n        /* \"#utility.yul\":7148:7210   */\n      swap2\n      pop\n        /* \"#utility.yul\":7102:7220   */\n      pop\n        /* \"#utility.yul\":5374:7227   */\n      swap3\n      swap6\n      swap9\n      swap12\n      swap2\n      swap5\n      swap8\n      swap11\n      pop\n      swap3\n      swap6\n      swap9\n      pop\n      jump\t// out\n        /* \"#utility.yul\":7233:7413   */\n    tag_30:\n        /* \"#utility.yul\":7281:7358   */\n      0x4e487b7100000000000000000000000000000000000000000000000000000000\n        /* \"#utility.yul\":7278:7279   */\n      0x00\n        /* \"#utility.yul\":7271:7359   */\n      mstore\n        /* \"#utility.yul\":7378:7382   */\n      0x41\n        /* \"#utility.yul\":7375:7376   */\n      0x04\n        /* \"#utility.yul\":7368:7383   */\n      mstore\n        /* \"#utility.yul\":7402:7406   */\n      0x24\n        /* \"#utility.yul\":7399:7400   */\n      0x00\n        /* \"#utility.yul\":7392:7407   */\n      revert\n        /* \"#utility.yul\":7419:7515   */\n    tag_146:\n        /* \"#utility.yul\":7456:7463   */\n      0x00\n        /* \"#utility.yul\":7485:7509   */\n      tag_258\n        /* \"#utility.yul\":7503:7508   */\n      dup3\n        /* \"#utility.yul\":7485:7509   */\n      tag_137\n      jump\t// in\n    tag_258:\n        /* \"#utility.yul\":7474:7509   */\n      swap1\n      pop\n        /* \"#utility.yul\":7419:7515   */\n      swap2\n      swap1\n      pop\n      jump\t// out\n        /* \"#utility.yul\":7521:7639   */\n    tag_147:\n        /* \"#utility.yul\":7608:7632   */\n      tag_260\n        /* \"#utility.yul\":7626:7631   */\n      dup2\n        /* \"#utility.yul\":7608:7632   */\n      tag_146\n      jump\t// in\n    tag_260:\n        /* \"#utility.yul\":7603:7606   */\n      dup3\n        /* \"#utility.yul\":7596:7633   */\n      mstore\n        /* \"#utility.yul\":7521:7639   */\n      pop\n      pop\n      jump\t// out\n        /* \"#utility.yul\":7645:7867   */\n    tag_36:\n        /* \"#utility.yul\":7738:7742   */\n      0x00\n        /* \"#utility.yul\":7776:7778   */\n      0x20\n        /* \"#utility.yul\":7765:7774   */\n      dup3\n        /* \"#utility.yul\":7761:7779   */\n      add\n        /* \"#utility.yul\":7753:7779   */\n      swap1\n      pop\n        /* \"#utility.yul\":7789:7860   */\n      tag_262\n        /* \"#utility.yul\":7857:7858   */\n      0x00\n        /* \"#utility.yul\":7846:7855   */\n      dup4\n        /* \"#utility.yul\":7842:7859   */\n      add\n        /* \"#utility.yul\":7833:7839   */\n      dup5\n        /* \"#utility.yul\":7789:7860   */\n      tag_147\n      jump\t// in\n    tag_262:\n        /* \"#utility.yul\":7645:7867   */\n      swap3\n      swap2\n      pop\n      pop\n      jump\t// out\n        /* \"#utility.yul\":7873:8053   */\n    tag_39:\n        /* \"#utility.yul\":7921:7998   */\n      0x4e487b7100000000000000000000000000000000000000000000000000000000\n        /* \"#utility.yul\":7918:7919   */\n      0x00\n        /* \"#utility.yul\":7911:7999   */\n      mstore\n        /* \"#utility.yul\":8018:8022   */\n      0x32\n        /* \"#utility.yul\":8015:8016   */\n      0x04\n        /* \"#utility.yul\":8008:8023   */\n      mstore\n        /* \"#utility.yul\":8042:8046   */\n      0x24\n        /* \"#utility.yul\":8039:8040   */\n      0x00\n        /* \"#utility.yul\":8032:8047   */\n      revert\n        /* \"#utility.yul\":8059:8227   */\n    tag_148:\n        /* \"#utility.yul\":8142:8153   */\n      0x00\n        /* \"#utility.yul\":8176:8182   */\n      dup3\n        /* \"#utility.yul\":8171:8174   */\n      dup3\n        /* \"#utility.yul\":8164:8183   */\n      mstore\n        /* \"#utility.yul\":8216:8220   */\n      0x20\n        /* \"#utility.yul\":8211:8214   */\n      dup3\n        /* \"#utility.yul\":8207:8221   */\n      add\n        /* \"#utility.yul\":8192:8221   */\n      swap1\n      pop\n        /* \"#utility.yul\":8059:8227   */\n      swap3\n      swap2\n      pop\n      pop\n      jump\t// out\n        /* \"#utility.yul\":8233:8381   */\n    tag_149:\n        /* \"#utility.yul\":8331:8337   */\n      dup3\n        /* \"#utility.yul\":8326:8329   */\n      dup2\n        /* \"#utility.yul\":8321:8324   */\n      dup4\n        /* \"#utility.yul\":8308:8338   */\n      calldatacopy\n        /* \"#utility.yul\":8372:8373   */\n      0x00\n        /* \"#utility.yul\":8363:8369   */\n      dup4\n        /* \"#utility.yul\":8358:8361   */\n      dup4\n        /* \"#utility.yul\":8354:8370   */\n      add\n        /* \"#utility.yul\":8347:8374   */\n      mstore\n        /* \"#utility.yul\":8233:8381   */\n      pop\n      pop\n      pop\n      jump\t// out\n        /* \"#utility.yul\":8387:8489   */\n    tag_150:\n        /* \"#utility.yul\":8428:8434   */\n      0x00\n        /* \"#utility.yul\":8479:8481   */\n      0x1f\n        /* \"#utility.yul\":8475:8482   */\n      not\n        /* \"#utility.yul\":8470:8472   */\n      0x1f\n        /* \"#utility.yul\":8463:8468   */\n      dup4\n        /* \"#utility.yul\":8459:8473   */\n      add\n        /* \"#utility.yul\":8455:8483   */\n      and\n        /* \"#utility.yul\":8445:8483   */\n      swap1\n      pop\n        /* \"#utility.yul\":8387:8489   */\n      swap2\n      swap1\n      pop\n      jump\t// out\n        /* \"#utility.yul\":8517:8831   */\n    tag_151:\n        /* \"#utility.yul\":8613:8616   */\n      0x00\n        /* \"#utility.yul\":8634:8704   */\n      tag_268\n        /* \"#utility.yul\":8697:8703   */\n      dup4\n        /* \"#utility.yul\":8692:8695   */\n      dup6\n        /* \"#utility.yul\":8634:8704   */\n      tag_148\n      jump\t// in\n    tag_268:\n        /* \"#utility.yul\":8627:8704   */\n      swap4\n      pop\n        /* \"#utility.yul\":8714:8770   */\n      tag_269\n        /* \"#utility.yul\":8763:8769   */\n      dup4\n        /* \"#utility.yul\":8758:8761   */\n      dup6\n        /* \"#utility.yul\":8751:8756   */\n      dup5\n        /* \"#utility.yul\":8714:8770   */\n      tag_149\n      jump\t// in\n    tag_269:\n        /* \"#utility.yul\":8795:8824   */\n      tag_270\n        /* \"#utility.yul\":8817:8823   */\n      dup4\n        /* \"#utility.yul\":8795:8824   */\n      tag_150\n      jump\t// in\n    tag_270:\n        /* \"#utility.yul\":8790:8793   */\n      dup5\n        /* \"#utility.yul\":8786:8825   */\n      add\n        /* \"#utility.yul\":8779:8825   */\n      swap1\n      pop\n        /* \"#utility.yul\":8517:8831   */\n      swap4\n      swap3\n      pop\n      pop\n      pop\n      jump\t// out\n        /* \"#utility.yul\":8837:9166   */\n    tag_41:\n        /* \"#utility.yul\":8958:8962   */\n      0x00\n        /* \"#utility.yul\":8996:8998   */\n      0x20\n        /* \"#utility.yul\":8985:8994   */\n      dup3\n        /* \"#utility.yul\":8981:8999   */\n      add\n        /* \"#utility.yul\":8973:8999   */\n      swap1\n      pop\n        /* \"#utility.yul\":9045:9054   */\n      dup2\n        /* \"#utility.yul\":9039:9043   */\n      dup2\n        /* \"#utility.yul\":9035:9055   */\n      sub\n        /* \"#utility.yul\":9031:9032   */\n      0x00\n        /* \"#utility.yul\":9020:9029   */\n      dup4\n        /* \"#utility.yul\":9016:9033   */\n      add\n        /* \"#utility.yul\":9009:9056   */\n      mstore\n        /* \"#utility.yul\":9073:9159   */\n      tag_272\n        /* \"#utility.yul\":9154:9158   */\n      dup2\n        /* \"#utility.yul\":9145:9151   */\n      dup5\n        /* \"#utility.yul\":9137:9143   */\n      dup7\n        /* \"#utility.yul\":9073:9159   */\n      tag_151\n      jump\t// in\n    tag_272:\n        /* \"#utility.yul\":9065:9159   */\n      swap1\n      pop\n        /* \"#utility.yul\":8837:9166   */\n      swap4\n      swap3\n      pop\n      pop\n      pop\n      jump\t// out\n        /* \"#utility.yul\":9172:9341   */\n    tag_152:\n        /* \"#utility.yul\":9256:9267   */\n      0x00\n        /* \"#utility.yul\":9290:9296   */\n      dup3\n        /* \"#utility.yul\":9285:9288   */\n      dup3\n        /* \"#utility.yul\":9278:9297   */\n      mstore\n        /* \"#utility.yul\":9330:9334   */\n      0x20\n        /* \"#utility.yul\":9325:9328   */\n      dup3\n        /* \"#utility.yul\":9321:9335   */\n      add\n        /* \"#utility.yul\":9306:9335   */\n      swap1\n      pop\n        /* \"#utility.yul\":9172:9341   */\n      swap3\n      swap2\n      pop\n      pop\n      jump\t// out\n        /* \"#utility.yul\":9371:9688   */\n    tag_153:\n        /* \"#utility.yul\":9469:9472   */\n      0x00\n        /* \"#utility.yul\":9490:9561   */\n      tag_275\n        /* \"#utility.yul\":9554:9560   */\n      dup4\n        /* \"#utility.yul\":9549:9552   */\n      dup6\n        /* \"#utility.yul\":9490:9561   */\n      tag_152\n      jump\t// in\n    tag_275:\n        /* \"#utility.yul\":9483:9561   */\n      swap4\n      pop\n        /* \"#utility.yul\":9571:9627   */\n      tag_276\n        /* \"#utility.yul\":9620:9626   */\n      dup4\n        /* \"#utility.yul\":9615:9618   */\n      dup6\n        /* \"#utility.yul\":9608:9613   */\n      dup5\n        /* \"#utility.yul\":9571:9627   */\n      tag_149\n      jump\t// in\n    tag_276:\n        /* \"#utility.yul\":9652:9681   */\n      tag_277\n        /* \"#utility.yul\":9674:9680   */\n      dup4\n        /* \"#utility.yul\":9652:9681   */\n      tag_150\n      jump\t// in\n    tag_277:\n        /* \"#utility.yul\":9647:9650   */\n      dup5\n        /* \"#utility.yul\":9643:9682   */\n      add\n        /* \"#utility.yul\":9636:9682   */\n      swap1\n      pop\n        /* \"#utility.yul\":9371:9688   */\n      swap4\n      swap3\n      pop\n      pop\n      pop\n      jump\t// out\n        /* \"#utility.yul\":9694:10027   */\n    tag_45:\n        /* \"#utility.yul\":9817:9821   */\n      0x00\n        /* \"#utility.yul\":9855:9857   */\n      0x20\n        /* \"#utility.yul\":9844:9853   */\n      dup3\n        /* \"#utility.yul\":9840:9858   */\n      add\n        /* \"#utility.yul\":9832:9858   */\n      swap1\n      pop\n        /* \"#utility.yul\":9904:9913   */\n      dup2\n        /* \"#utility.yul\":9898:9902   */\n      dup2\n        /* \"#utility.yul\":9894:9914   */\n      sub\n        /* \"#utility.yul\":9890:9891   */\n      0x00\n        /* \"#utility.yul\":9879:9888   */\n      dup4\n        /* \"#utility.yul\":9875:9892   */\n      add\n        /* \"#utility.yul\":9868:9915   */\n      mstore\n        /* \"#utility.yul\":9932:10020   */\n      tag_279\n        /* \"#utility.yul\":10015:10019   */\n      dup2\n        /* \"#utility.yul\":10006:10012   */\n      dup5\n        /* \"#utility.yul\":9998:10004   */\n      dup7\n        /* \"#utility.yul\":9932:10020   */\n      tag_153\n      jump\t// in\n    tag_279:\n        /* \"#utility.yul\":9924:10020   */\n      swap1\n      pop\n        /* \"#utility.yul\":9694:10027   */\n      swap4\n      swap3\n      pop\n      pop\n      pop\n      jump\t// out\n        /* \"#utility.yul\":10033:10257   */\n    tag_154:\n        /* \"#utility.yul\":10173:10207   */\n      0x4d6f64756c61722053746f7261676520557365642052656620436f6465205570\n        /* \"#utility.yul\":10169:10170   */\n      0x00\n        /* \"#utility.yul\":10161:10167   */\n      dup3\n        /* \"#utility.yul\":10157:10171   */\n      add\n        /* \"#utility.yul\":10150:10208   */\n      mstore\n        /* \"#utility.yul\":10242:10249   */\n      0x6461746564000000000000000000000000000000000000000000000000000000\n        /* \"#utility.yul\":10237:10239   */\n      0x20\n        /* \"#utility.yul\":10229:10235   */\n      dup3\n        /* \"#utility.yul\":10225:10240   */\n      add\n        /* \"#utility.yul\":10218:10250   */\n      mstore\n        /* \"#utility.yul\":10033:10257   */\n      pop\n      jump\t// out\n        /* \"#utility.yul\":10263:10629   */\n    tag_155:\n        /* \"#utility.yul\":10405:10408   */\n      0x00\n        /* \"#utility.yul\":10426:10493   */\n      tag_282\n        /* \"#utility.yul\":10490:10492   */\n      0x25\n        /* \"#utility.yul\":10485:10488   */\n      dup4\n        /* \"#utility.yul\":10426:10493   */\n      tag_152\n      jump\t// in\n    tag_282:\n        /* \"#utility.yul\":10419:10493   */\n      swap2\n      pop\n        /* \"#utility.yul\":10502:10595   */\n      tag_283\n        /* \"#utility.yul\":10591:10594   */\n      dup3\n        /* \"#utility.yul\":10502:10595   */\n      tag_154\n      jump\t// in\n    tag_283:\n        /* \"#utility.yul\":10620:10622   */\n      0x40\n        /* \"#utility.yul\":10615:10618   */\n      dup3\n        /* \"#utility.yul\":10611:10623   */\n      add\n        /* \"#utility.yul\":10604:10623   */\n      swap1\n      pop\n        /* \"#utility.yul\":10263:10629   */\n      swap2\n      swap1\n      pop\n      jump\t// out\n        /* \"#utility.yul\":10635:10770   */\n    tag_156:\n        /* \"#utility.yul\":10723:10729   */\n      0x00\n        /* \"#utility.yul\":10757:10762   */\n      dup2\n        /* \"#utility.yul\":10751:10763   */\n      mload\n        /* \"#utility.yul\":10741:10763   */\n      swap1\n      pop\n        /* \"#utility.yul\":10635:10770   */\n      swap2\n      swap1\n      pop\n      jump\t// out\n        /* \"#utility.yul\":10776:10981   */\n    tag_157:\n        /* \"#utility.yul\":10896:10907   */\n      0x00\n        /* \"#utility.yul\":10930:10936   */\n      dup3\n        /* \"#utility.yul\":10925:10928   */\n      dup3\n        /* \"#utility.yul\":10918:10937   */\n      mstore\n        /* \"#utility.yul\":10970:10974   */\n      0x20\n        /* \"#utility.yul\":10965:10968   */\n      dup3\n        /* \"#utility.yul\":10961:10975   */\n      add\n        /* \"#utility.yul\":10946:10975   */\n      swap1\n      pop\n        /* \"#utility.yul\":10776:10981   */\n      swap3\n      swap2\n      pop\n      pop\n      jump\t// out\n        /* \"#utility.yul\":10987:11140   */\n    tag_158:\n        /* \"#utility.yul\":11075:11079   */\n      0x00\n        /* \"#utility.yul\":11098:11101   */\n      dup2\n        /* \"#utility.yul\":11090:11101   */\n      swap1\n      pop\n        /* \"#utility.yul\":11128:11132   */\n      0x20\n        /* \"#utility.yul\":11123:11126   */\n      dup3\n        /* \"#utility.yul\":11119:11133   */\n      add\n        /* \"#utility.yul\":11111:11133   */\n      swap1\n      pop\n        /* \"#utility.yul\":10987:11140   */\n      swap2\n      swap1\n      pop\n      jump\t// out\n        /* \"#utility.yul\":11146:11245   */\n    tag_159:\n        /* \"#utility.yul\":11198:11204   */\n      0x00\n        /* \"#utility.yul\":11232:11237   */\n      dup2\n        /* \"#utility.yul\":11226:11238   */\n      mload\n        /* \"#utility.yul\":11216:11238   */\n      swap1\n      pop\n        /* \"#utility.yul\":11146:11245   */\n      swap2\n      swap1\n      pop\n      jump\t// out\n        /* \"#utility.yul\":11251:11410   */\n    tag_160:\n        /* \"#utility.yul\":11325:11336   */\n      0x00\n        /* \"#utility.yul\":11359:11365   */\n      dup3\n        /* \"#utility.yul\":11354:11357   */\n      dup3\n        /* \"#utility.yul\":11347:11366   */\n      mstore\n        /* \"#utility.yul\":11399:11403   */\n      0x20\n        /* \"#utility.yul\":11394:11397   */\n      dup3\n        /* \"#utility.yul\":11390:11404   */\n      add\n        /* \"#utility.yul\":11375:11404   */\n      swap1\n      pop\n        /* \"#utility.yul\":11251:11410   */\n      swap3\n      swap2\n      pop\n      pop\n      jump\t// out\n        /* \"#utility.yul\":11416:11555   */\n    tag_161:\n        /* \"#utility.yul\":11505:11511   */\n      dup3\n        /* \"#utility.yul\":11500:11503   */\n      dup2\n        /* \"#utility.yul\":11495:11498   */\n      dup4\n        /* \"#utility.yul\":11489:11512   */\n      mcopy\n        /* \"#utility.yul\":11546:11547   */\n      0x00\n        /* \"#utility.yul\":11537:11543   */\n      dup4\n        /* \"#utility.yul\":11532:11535   */\n      dup4\n        /* \"#utility.yul\":11528:11544   */\n      add\n        /* \"#utility.yul\":11521:11548   */\n      mstore\n        /* \"#utility.yul\":11416:11555   */\n      pop\n      pop\n      pop\n      jump\t// out\n        /* \"#utility.yul\":11561:11918   */\n    tag_162:\n        /* \"#utility.yul\":11639:11642   */\n      0x00\n        /* \"#utility.yul\":11667:11706   */\n      tag_291\n        /* \"#utility.yul\":11700:11705   */\n      dup3\n        /* \"#utility.yul\":11667:11706   */\n      tag_159\n      jump\t// in\n    tag_291:\n        /* \"#utility.yul\":11722:11783   */\n      tag_292\n        /* \"#utility.yul\":11776:11782   */\n      dup2\n        /* \"#utility.yul\":11771:11774   */\n      dup6\n        /* \"#utility.yul\":11722:11783   */\n      tag_160\n      jump\t// in\n    tag_292:\n        /* \"#utility.yul\":11715:11783   */\n      swap4\n      pop\n        /* \"#utility.yul\":11792:11857   */\n      tag_293\n        /* \"#utility.yul\":11850:11856   */\n      dup2\n        /* \"#utility.yul\":11845:11848   */\n      dup6\n        /* \"#utility.yul\":11838:11842   */\n      0x20\n        /* \"#utility.yul\":11831:11836   */\n      dup7\n        /* \"#utility.yul\":11827:11843   */\n      add\n        /* \"#utility.yul\":11792:11857   */\n      tag_161\n      jump\t// in\n    tag_293:\n        /* \"#utility.yul\":11882:11911   */\n      tag_294\n        /* \"#utility.yul\":11904:11910   */\n      dup2\n        /* \"#utility.yul\":11882:11911   */\n      tag_150\n      jump\t// in\n    tag_294:\n        /* \"#utility.yul\":11877:11880   */\n      dup5\n        /* \"#utility.yul\":11873:11912   */\n      add\n        /* \"#utility.yul\":11866:11912   */\n      swap2\n      pop\n        /* \"#utility.yul\":11643:11918   */\n      pop\n        /* \"#utility.yul\":11561:11918   */\n      swap3\n      swap2\n      pop\n      pop\n      jump\t// out\n        /* \"#utility.yul\":11924:12022   */\n    tag_163:\n        /* \"#utility.yul\":11975:11981   */\n      0x00\n        /* \"#utility.yul\":12009:12014   */\n      dup2\n        /* \"#utility.yul\":12003:12015   */\n      mload\n        /* \"#utility.yul\":11993:12015   */\n      swap1\n      pop\n        /* \"#utility.yul\":11924:12022   */\n      swap2\n      swap1\n      pop\n      jump\t// out\n        /* \"#utility.yul\":12028:12186   */\n    tag_164:\n        /* \"#utility.yul\":12101:12112   */\n      0x00\n        /* \"#utility.yul\":12135:12141   */\n      dup3\n        /* \"#utility.yul\":12130:12133   */\n      dup3\n        /* \"#utility.yul\":12123:12142   */\n      mstore\n        /* \"#utility.yul\":12175:12179   */\n      0x20\n        /* \"#utility.yul\":12170:12173   */\n      dup3\n        /* \"#utility.yul\":12166:12180   */\n      add\n        /* \"#utility.yul\":12151:12180   */\n      swap1\n      pop\n        /* \"#utility.yul\":12028:12186   */\n      swap3\n      swap2\n      pop\n      pop\n      jump\t// out\n        /* \"#utility.yul\":12192:12545   */\n    tag_165:\n        /* \"#utility.yul\":12268:12271   */\n      0x00\n        /* \"#utility.yul\":12296:12334   */\n      tag_298\n        /* \"#utility.yul\":12328:12333   */\n      dup3\n        /* \"#utility.yul\":12296:12334   */\n      tag_163\n      jump\t// in\n    tag_298:\n        /* \"#utility.yul\":12350:12410   */\n      tag_299\n        /* \"#utility.yul\":12403:12409   */\n      dup2\n        /* \"#utility.yul\":12398:12401   */\n      dup6\n        /* \"#utility.yul\":12350:12410   */\n      tag_164\n      jump\t// in\n    tag_299:\n        /* \"#utility.yul\":12343:12410   */\n      swap4\n      pop\n        /* \"#utility.yul\":12419:12484   */\n      tag_300\n        /* \"#utility.yul\":12477:12483   */\n      dup2\n        /* \"#utility.yul\":12472:12475   */\n      dup6\n        /* \"#utility.yul\":12465:12469   */\n      0x20\n        /* \"#utility.yul\":12458:12463   */\n      dup7\n        /* \"#utility.yul\":12454:12470   */\n      add\n        /* \"#utility.yul\":12419:12484   */\n      tag_161\n      jump\t// in\n    tag_300:\n        /* \"#utility.yul\":12509:12538   */\n      tag_301\n        /* \"#utility.yul\":12531:12537   */\n      dup2\n        /* \"#utility.yul\":12509:12538   */\n      tag_150\n      jump\t// in\n    tag_301:\n        /* \"#utility.yul\":12504:12507   */\n      dup5\n        /* \"#utility.yul\":12500:12539   */\n      add\n        /* \"#utility.yul\":12493:12539   */\n      swap2\n      pop\n        /* \"#utility.yul\":12272:12545   */\n      pop\n        /* \"#utility.yul\":12192:12545   */\n      swap3\n      swap2\n      pop\n      pop\n      jump\t// out\n        /* \"#utility.yul\":12601:13508   */\n    tag_166:\n        /* \"#utility.yul\":12702:12705   */\n      0x00\n        /* \"#utility.yul\":12738:12742   */\n      0x60\n        /* \"#utility.yul\":12733:12736   */\n      dup4\n        /* \"#utility.yul\":12729:12743   */\n      add\n        /* \"#utility.yul\":12825:12829   */\n      0x00\n        /* \"#utility.yul\":12818:12823   */\n      dup4\n        /* \"#utility.yul\":12814:12830   */\n      add\n        /* \"#utility.yul\":12808:12831   */\n      mload\n        /* \"#utility.yul\":12878:12881   */\n      dup5\n        /* \"#utility.yul\":12872:12876   */\n      dup3\n        /* \"#utility.yul\":12868:12882   */\n      sub\n        /* \"#utility.yul\":12861:12865   */\n      0x00\n        /* \"#utility.yul\":12856:12859   */\n      dup7\n        /* \"#utility.yul\":12852:12866   */\n      add\n        /* \"#utility.yul\":12845:12883   */\n      mstore\n        /* \"#utility.yul\":12904:12977   */\n      tag_303\n        /* \"#utility.yul\":12972:12976   */\n      dup3\n        /* \"#utility.yul\":12958:12970   */\n      dup3\n        /* \"#utility.yul\":12904:12977   */\n      tag_162\n      jump\t// in\n    tag_303:\n        /* \"#utility.yul\":12896:12977   */\n      swap2\n      pop\n        /* \"#utility.yul\":12753:12988   */\n      pop\n        /* \"#utility.yul\":13074:13078   */\n      0x20\n        /* \"#utility.yul\":13067:13072   */\n      dup4\n        /* \"#utility.yul\":13063:13079   */\n      add\n        /* \"#utility.yul\":13057:13080   */\n      mload\n        /* \"#utility.yul\":13127:13130   */\n      dup5\n        /* \"#utility.yul\":13121:13125   */\n      dup3\n        /* \"#utility.yul\":13117:13131   */\n      sub\n        /* \"#utility.yul\":13110:13114   */\n      0x20\n        /* \"#utility.yul\":13105:13108   */\n      dup7\n        /* \"#utility.yul\":13101:13115   */\n      add\n        /* \"#utility.yul\":13094:13132   */\n      mstore\n        /* \"#utility.yul\":13153:13226   */\n      tag_304\n        /* \"#utility.yul\":13221:13225   */\n      dup3\n        /* \"#utility.yul\":13207:13219   */\n      dup3\n        /* \"#utility.yul\":13153:13226   */\n      tag_162\n      jump\t// in\n    tag_304:\n        /* \"#utility.yul\":13145:13226   */\n      swap2\n      pop\n        /* \"#utility.yul\":12998:13237   */\n      pop\n        /* \"#utility.yul\":13320:13324   */\n      0x40\n        /* \"#utility.yul\":13313:13318   */\n      dup4\n        /* \"#utility.yul\":13309:13325   */\n      add\n        /* \"#utility.yul\":13303:13326   */\n      mload\n        /* \"#utility.yul\":13373:13376   */\n      dup5\n        /* \"#utility.yul\":13367:13371   */\n      dup3\n        /* \"#utility.yul\":13363:13377   */\n      sub\n        /* \"#utility.yul\":13356:13360   */\n      0x40\n        /* \"#utility.yul\":13351:13354   */\n      dup7\n        /* \"#utility.yul\":13347:13361   */\n      add\n        /* \"#utility.yul\":13340:13378   */\n      mstore\n        /* \"#utility.yul\":13399:13470   */\n      tag_305\n        /* \"#utility.yul\":13465:13469   */\n      dup3\n        /* \"#utility.yul\":13451:13463   */\n      dup3\n        /* \"#utility.yul\":13399:13470   */\n      tag_165\n      jump\t// in\n    tag_305:\n        /* \"#utility.yul\":13391:13470   */\n      swap2\n      pop\n        /* \"#utility.yul\":13247:13481   */\n      pop\n        /* \"#utility.yul\":13498:13502   */\n      dup1\n        /* \"#utility.yul\":13491:13502   */\n      swap2\n      pop\n        /* \"#utility.yul\":12707:13508   */\n      pop\n        /* \"#utility.yul\":12601:13508   */\n      swap3\n      swap2\n      pop\n      pop\n      jump\t// out\n        /* \"#utility.yul\":13514:13754   */\n    tag_167:\n        /* \"#utility.yul\":13625:13635   */\n      0x00\n        /* \"#utility.yul\":13660:13748   */\n      tag_307\n        /* \"#utility.yul\":13744:13747   */\n      dup4\n        /* \"#utility.yul\":13736:13742   */\n      dup4\n        /* \"#utility.yul\":13660:13748   */\n      tag_166\n      jump\t// in\n    tag_307:\n        /* \"#utility.yul\":13646:13748   */\n      swap1\n      pop\n        /* \"#utility.yul\":13514:13754   */\n      swap3\n      swap2\n      pop\n      pop\n      jump\t// out\n        /* \"#utility.yul\":13760:13894   */\n    tag_168:\n        /* \"#utility.yul\":13851:13855   */\n      0x00\n        /* \"#utility.yul\":13883:13887   */\n      0x20\n        /* \"#utility.yul\":13878:13881   */\n      dup3\n        /* \"#utility.yul\":13874:13888   */\n      add\n        /* \"#utility.yul\":13866:13888   */\n      swap1\n      pop\n        /* \"#utility.yul\":13760:13894   */\n      swap2\n      swap1\n      pop\n      jump\t// out\n        /* \"#utility.yul\":13954:15033   */\n    tag_169:\n        /* \"#utility.yul\":14115:14118   */\n      0x00\n        /* \"#utility.yul\":14144:14219   */\n      tag_310\n        /* \"#utility.yul\":14213:14218   */\n      dup3\n        /* \"#utility.yul\":14144:14219   */\n      tag_156\n      jump\t// in\n    tag_310:\n        /* \"#utility.yul\":14235:14342   */\n      tag_311\n        /* \"#utility.yul\":14335:14341   */\n      dup2\n        /* \"#utility.yul\":14330:14333   */\n      dup6\n        /* \"#utility.yul\":14235:14342   */\n      tag_157\n      jump\t// in\n    tag_311:\n        /* \"#utility.yul\":14228:14342   */\n      swap4\n      pop\n        /* \"#utility.yul\":14368:14371   */\n      dup4\n        /* \"#utility.yul\":14413:14417   */\n      0x20\n        /* \"#utility.yul\":14405:14411   */\n      dup3\n        /* \"#utility.yul\":14401:14418   */\n      mul\n        /* \"#utility.yul\":14396:14399   */\n      dup6\n        /* \"#utility.yul\":14392:14419   */\n      add\n        /* \"#utility.yul\":14443:14520   */\n      tag_312\n        /* \"#utility.yul\":14514:14519   */\n      dup6\n        /* \"#utility.yul\":14443:14520   */\n      tag_158\n      jump\t// in\n    tag_312:\n        /* \"#utility.yul\":14543:14550   */\n      dup1\n        /* \"#utility.yul\":14574:14575   */\n      0x00\n        /* \"#utility.yul\":14559:14988   */\n    tag_313:\n        /* \"#utility.yul\":14584:14590   */\n      dup6\n        /* \"#utility.yul\":14581:14582   */\n      dup2\n        /* \"#utility.yul\":14578:14591   */\n      lt\n        /* \"#utility.yul\":14559:14988   */\n      iszero\n      tag_315\n      jumpi\n        /* \"#utility.yul\":14655:14664   */\n      dup5\n        /* \"#utility.yul\":14649:14653   */\n      dup5\n        /* \"#utility.yul\":14645:14665   */\n      sub\n        /* \"#utility.yul\":14640:14643   */\n      dup10\n        /* \"#utility.yul\":14633:14666   */\n      mstore\n        /* \"#utility.yul\":14706:14712   */\n      dup2\n        /* \"#utility.yul\":14700:14713   */\n      mload\n        /* \"#utility.yul\":14734:14840   */\n      tag_316\n        /* \"#utility.yul\":14835:14839   */\n      dup6\n        /* \"#utility.yul\":14820:14833   */\n      dup3\n        /* \"#utility.yul\":14734:14840   */\n      tag_167\n      jump\t// in\n    tag_316:\n        /* \"#utility.yul\":14726:14840   */\n      swap5\n      pop\n        /* \"#utility.yul\":14863:14944   */\n      tag_317\n        /* \"#utility.yul\":14937:14943   */\n      dup4\n        /* \"#utility.yul\":14863:14944   */\n      tag_168\n      jump\t// in\n    tag_317:\n        /* \"#utility.yul\":14853:14944   */\n      swap3\n      pop\n        /* \"#utility.yul\":14973:14977   */\n      0x20\n        /* \"#utility.yul\":14968:14971   */\n      dup11\n        /* \"#utility.yul\":14964:14978   */\n      add\n        /* \"#utility.yul\":14957:14978   */\n      swap10\n      pop\n        /* \"#utility.yul\":14619:14988   */\n      pop\n        /* \"#utility.yul\":14606:14607   */\n      0x01\n        /* \"#utility.yul\":14603:14604   */\n      dup2\n        /* \"#utility.yul\":14599:14608   */\n      add\n        /* \"#utility.yul\":14594:14608   */\n      swap1\n      pop\n        /* \"#utility.yul\":14559:14988   */\n      jump(tag_313)\n    tag_315:\n        /* \"#utility.yul\":14563:14577   */\n      pop\n        /* \"#utility.yul\":15004:15008   */\n      dup3\n        /* \"#utility.yul\":14997:15008   */\n      swap8\n      pop\n        /* \"#utility.yul\":15024:15027   */\n      dup8\n        /* \"#utility.yul\":15017:15027   */\n      swap6\n      pop\n        /* \"#utility.yul\":14120:15033   */\n      pop\n      pop\n      pop\n      pop\n      pop\n        /* \"#utility.yul\":13954:15033   */\n      swap3\n      swap2\n      pop\n      pop\n      jump\t// out\n        /* \"#utility.yul\":15039:15803   */\n    tag_52:\n        /* \"#utility.yul\":15325:15329   */\n      0x00\n        /* \"#utility.yul\":15363:15365   */\n      0x40\n        /* \"#utility.yul\":15352:15361   */\n      dup3\n        /* \"#utility.yul\":15348:15366   */\n      add\n        /* \"#utility.yul\":15340:15366   */\n      swap1\n      pop\n        /* \"#utility.yul\":15412:15421   */\n      dup2\n        /* \"#utility.yul\":15406:15410   */\n      dup2\n        /* \"#utility.yul\":15402:15422   */\n      sub\n        /* \"#utility.yul\":15398:15399   */\n      0x00\n        /* \"#utility.yul\":15387:15396   */\n      dup4\n        /* \"#utility.yul\":15383:15400   */\n      add\n        /* \"#utility.yul\":15376:15423   */\n      mstore\n        /* \"#utility.yul\":15440:15571   */\n      tag_319\n        /* \"#utility.yul\":15566:15570   */\n      dup2\n        /* \"#utility.yul\":15440:15571   */\n      tag_155\n      jump\t// in\n    tag_319:\n        /* \"#utility.yul\":15432:15571   */\n      swap1\n      pop\n        /* \"#utility.yul\":15618:15627   */\n      dup2\n        /* \"#utility.yul\":15612:15616   */\n      dup2\n        /* \"#utility.yul\":15608:15628   */\n      sub\n        /* \"#utility.yul\":15603:15605   */\n      0x20\n        /* \"#utility.yul\":15592:15601   */\n      dup4\n        /* \"#utility.yul\":15588:15606   */\n      add\n        /* \"#utility.yul\":15581:15629   */\n      mstore\n        /* \"#utility.yul\":15646:15796   */\n      tag_320\n        /* \"#utility.yul\":15791:15795   */\n      dup2\n        /* \"#utility.yul\":15782:15788   */\n      dup5\n        /* \"#utility.yul\":15646:15796   */\n      tag_169\n      jump\t// in\n    tag_320:\n        /* \"#utility.yul\":15638:15796   */\n      swap1\n      pop\n        /* \"#utility.yul\":15039:15803   */\n      swap3\n      swap2\n      pop\n      pop\n      jump\t// out\n        /* \"#utility.yul\":15809:15990   */\n    tag_170:\n        /* \"#utility.yul\":15949:15982   */\n      0x4d6f64756c61722053746f7261676520537562204f776e657220416464656400\n        /* \"#utility.yul\":15945:15946   */\n      0x00\n        /* \"#utility.yul\":15937:15943   */\n      dup3\n        /* \"#utility.yul\":15933:15947   */\n      add\n        /* \"#utility.yul\":15926:15983   */\n      mstore\n        /* \"#utility.yul\":15809:15990   */\n      pop\n      jump\t// out\n        /* \"#utility.yul\":15996:16362   */\n    tag_171:\n        /* \"#utility.yul\":16138:16141   */\n      0x00\n        /* \"#utility.yul\":16159:16226   */\n      tag_323\n        /* \"#utility.yul\":16223:16225   */\n      0x1f\n        /* \"#utility.yul\":16218:16221   */\n      dup4\n        /* \"#utility.yul\":16159:16226   */\n      tag_152\n      jump\t// in\n    tag_323:\n        /* \"#utility.yul\":16152:16226   */\n      swap2\n      pop\n        /* \"#utility.yul\":16235:16328   */\n      tag_324\n        /* \"#utility.yul\":16324:16327   */\n      dup3\n        /* \"#utility.yul\":16235:16328   */\n      tag_170\n      jump\t// in\n    tag_324:\n        /* \"#utility.yul\":16353:16355   */\n      0x20\n        /* \"#utility.yul\":16348:16351   */\n      dup3\n        /* \"#utility.yul\":16344:16356   */\n      add\n        /* \"#utility.yul\":16337:16356   */\n      swap1\n      pop\n        /* \"#utility.yul\":15996:16362   */\n      swap2\n      swap1\n      pop\n      jump\t// out\n        /* \"#utility.yul\":16368:17132   */\n    tag_72:\n        /* \"#utility.yul\":16654:16658   */\n      0x00\n        /* \"#utility.yul\":16692:16694   */\n      0x40\n        /* \"#utility.yul\":16681:16690   */\n      dup3\n        /* \"#utility.yul\":16677:16695   */\n      add\n        /* \"#utility.yul\":16669:16695   */\n      swap1\n      pop\n        /* \"#utility.yul\":16741:16750   */\n      dup2\n        /* \"#utility.yul\":16735:16739   */\n      dup2\n        /* \"#utility.yul\":16731:16751   */\n      sub\n        /* \"#utility.yul\":16727:16728   */\n      0x00\n        /* \"#utility.yul\":16716:16725   */\n      dup4\n        /* \"#utility.yul\":16712:16729   */\n      add\n        /* \"#utility.yul\":16705:16752   */\n      mstore\n        /* \"#utility.yul\":16769:16900   */\n      tag_326\n        /* \"#utility.yul\":16895:16899   */\n      dup2\n        /* \"#utility.yul\":16769:16900   */\n      tag_171\n      jump\t// in\n    tag_326:\n        /* \"#utility.yul\":16761:16900   */\n      swap1\n      pop\n        /* \"#utility.yul\":16947:16956   */\n      dup2\n        /* \"#utility.yul\":16941:16945   */\n      dup2\n        /* \"#utility.yul\":16937:16957   */\n      sub\n        /* \"#utility.yul\":16932:16934   */\n      0x20\n        /* \"#utility.yul\":16921:16930   */\n      dup4\n        /* \"#utility.yul\":16917:16935   */\n      add\n        /* \"#utility.yul\":16910:16958   */\n      mstore\n        /* \"#utility.yul\":16975:17125   */\n      tag_327\n        /* \"#utility.yul\":17120:17124   */\n      dup2\n        /* \"#utility.yul\":17111:17117   */\n      dup5\n        /* \"#utility.yul\":16975:17125   */\n      tag_169\n      jump\t// in\n    tag_327:\n        /* \"#utility.yul\":16967:17125   */\n      swap1\n      pop\n        /* \"#utility.yul\":16368:17132   */\n      swap3\n      swap2\n      pop\n      pop\n      jump\t// out\n        /* \"#utility.yul\":17138:17253   */\n    tag_172:\n        /* \"#utility.yul\":17223:17246   */\n      tag_329\n        /* \"#utility.yul\":17240:17245   */\n      dup2\n        /* \"#utility.yul\":17223:17246   */\n      tag_143\n      jump\t// in\n    tag_329:\n        /* \"#utility.yul\":17218:17221   */\n      dup3\n        /* \"#utility.yul\":17211:17247   */\n      mstore\n        /* \"#utility.yul\":17138:17253   */\n      pop\n      pop\n      jump\t// out\n        /* \"#utility.yul\":17259:17477   */\n    tag_98:\n        /* \"#utility.yul\":17350:17354   */\n      0x00\n        /* \"#utility.yul\":17388:17390   */\n      0x20\n        /* \"#utility.yul\":17377:17386   */\n      dup3\n        /* \"#utility.yul\":17373:17391   */\n      add\n        /* \"#utility.yul\":17365:17391   */\n      swap1\n      pop\n        /* \"#utility.yul\":17401:17470   */\n      tag_331\n        /* \"#utility.yul\":17467:17468   */\n      0x00\n        /* \"#utility.yul\":17456:17465   */\n      dup4\n        /* \"#utility.yul\":17452:17469   */\n      add\n        /* \"#utility.yul\":17443:17449   */\n      dup5\n        /* \"#utility.yul\":17401:17470   */\n      tag_172\n      jump\t// in\n    tag_331:\n        /* \"#utility.yul\":17259:17477   */\n      swap3\n      swap2\n      pop\n      pop\n      jump\t// out\n        /* \"#utility.yul\":17483:17657   */\n    tag_173:\n        /* \"#utility.yul\":17623:17649   */\n      0x4d6f64756c61722053746f72616765204372656174696f6e0000000000000000\n        /* \"#utility.yul\":17619:17620   */\n      0x00\n        /* \"#utility.yul\":17611:17617   */\n      dup3\n        /* \"#utility.yul\":17607:17621   */\n      add\n        /* \"#utility.yul\":17600:17650   */\n      mstore\n        /* \"#utility.yul\":17483:17657   */\n      pop\n      jump\t// out\n        /* \"#utility.yul\":17663:18029   */\n    tag_174:\n        /* \"#utility.yul\":17805:17808   */\n      0x00\n        /* \"#utility.yul\":17826:17893   */\n      tag_334\n        /* \"#utility.yul\":17890:17892   */\n      0x18\n        /* \"#utility.yul\":17885:17888   */\n      dup4\n        /* \"#utility.yul\":17826:17893   */\n      tag_152\n      jump\t// in\n    tag_334:\n        /* \"#utility.yul\":17819:17893   */\n      swap2\n      pop\n        /* \"#utility.yul\":17902:17995   */\n      tag_335\n        /* \"#utility.yul\":17991:17994   */\n      dup3\n        /* \"#utility.yul\":17902:17995   */\n      tag_173\n      jump\t// in\n    tag_335:\n        /* \"#utility.yul\":18020:18022   */\n      0x20\n        /* \"#utility.yul\":18015:18018   */\n      dup3\n        /* \"#utility.yul\":18011:18023   */\n      add\n        /* \"#utility.yul\":18004:18023   */\n      swap1\n      pop\n        /* \"#utility.yul\":17663:18029   */\n      swap2\n      swap1\n      pop\n      jump\t// out\n        /* \"#utility.yul\":18035:18799   */\n    tag_105:\n        /* \"#utility.yul\":18321:18325   */\n      0x00\n        /* \"#utility.yul\":18359:18361   */\n      0x40\n        /* \"#utility.yul\":18348:18357   */\n      dup3\n        /* \"#utility.yul\":18344:18362   */\n      add\n        /* \"#utility.yul\":18336:18362   */\n      swap1\n      pop\n        /* \"#utility.yul\":18408:18417   */\n      dup2\n        /* \"#utility.yul\":18402:18406   */\n      dup2\n        /* \"#utility.yul\":18398:18418   */\n      sub\n        /* \"#utility.yul\":18394:18395   */\n      0x00\n        /* \"#utility.yul\":18383:18392   */\n      dup4\n        /* \"#utility.yul\":18379:18396   */\n      add\n        /* \"#utility.yul\":18372:18419   */\n      mstore\n        /* \"#utility.yul\":18436:18567   */\n      tag_337\n        /* \"#utility.yul\":18562:18566   */\n      dup2\n        /* \"#utility.yul\":18436:18567   */\n      tag_174\n      jump\t// in\n    tag_337:\n        /* \"#utility.yul\":18428:18567   */\n      swap1\n      pop\n        /* \"#utility.yul\":18614:18623   */\n      dup2\n        /* \"#utility.yul\":18608:18612   */\n      dup2\n        /* \"#utility.yul\":18604:18624   */\n      sub\n        /* \"#utility.yul\":18599:18601   */\n      0x20\n        /* \"#utility.yul\":18588:18597   */\n      dup4\n        /* \"#utility.yul\":18584:18602   */\n      add\n        /* \"#utility.yul\":18577:18625   */\n      mstore\n        /* \"#utility.yul\":18642:18792   */\n      tag_338\n        /* \"#utility.yul\":18787:18791   */\n      dup2\n        /* \"#utility.yul\":18778:18784   */\n      dup5\n        /* \"#utility.yul\":18642:18792   */\n      tag_169\n      jump\t// in\n    tag_338:\n        /* \"#utility.yul\":18634:18792   */\n      swap1\n      pop\n        /* \"#utility.yul\":18035:18799   */\n      swap3\n      swap2\n      pop\n      pop\n      jump\t// out\n        /* \"#utility.yul\":18805:19025   */\n    tag_175:\n        /* \"#utility.yul\":18945:18979   */\n      0x4d6f64756c61722053746f7261676520537562204f776e65722052656d6f7665\n        /* \"#utility.yul\":18941:18942   */\n      0x00\n        /* \"#utility.yul\":18933:18939   */\n      dup3\n        /* \"#utility.yul\":18929:18943   */\n      add\n        /* \"#utility.yul\":18922:18980   */\n      mstore\n        /* \"#utility.yul\":19014:19017   */\n      0x6400000000000000000000000000000000000000000000000000000000000000\n        /* \"#utility.yul\":19009:19011   */\n      0x20\n        /* \"#utility.yul\":19001:19007   */\n      dup3\n        /* \"#utility.yul\":18997:19012   */\n      add\n        /* \"#utility.yul\":18990:19018   */\n      mstore\n        /* \"#utility.yul\":18805:19025   */\n      pop\n      jump\t// out\n        /* \"#utility.yul\":19031:19397   */\n    tag_176:\n        /* \"#utility.yul\":19173:19176   */\n      0x00\n        /* \"#utility.yul\":19194:19261   */\n      tag_341\n        /* \"#utility.yul\":19258:19260   */\n      0x21\n        /* \"#utility.yul\":19253:19256   */\n      dup4\n        /* \"#utility.yul\":19194:19261   */\n      tag_152\n      jump\t// in\n    tag_341:\n        /* \"#utility.yul\":19187:19261   */\n      swap2\n      pop\n        /* \"#utility.yul\":19270:19363   */\n      tag_342\n        /* \"#utility.yul\":19359:19362   */\n      dup3\n        /* \"#utility.yul\":19270:19363   */\n      tag_175\n      jump\t// in\n    tag_342:\n        /* \"#utility.yul\":19388:19390   */\n      0x40\n        /* \"#utility.yul\":19383:19386   */\n      dup3\n        /* \"#utility.yul\":19379:19391   */\n      add\n        /* \"#utility.yul\":19372:19391   */\n      swap1\n      pop\n        /* \"#utility.yul\":19031:19397   */\n      swap2\n      swap1\n      pop\n      jump\t// out\n        /* \"#utility.yul\":19403:20167   */\n    tag_125:\n        /* \"#utility.yul\":19689:19693   */\n      0x00\n        /* \"#utility.yul\":19727:19729   */\n      0x40\n        /* \"#utility.yul\":19716:19725   */\n      dup3\n        /* \"#utility.yul\":19712:19730   */\n      add\n        /* \"#utility.yul\":19704:19730   */\n      swap1\n      pop\n        /* \"#utility.yul\":19776:19785   */\n      dup2\n        /* \"#utility.yul\":19770:19774   */\n      dup2\n        /* \"#utility.yul\":19766:19786   */\n      sub\n        /* \"#utility.yul\":19762:19763   */\n      0x00\n        /* \"#utility.yul\":19751:19760   */\n      dup4\n        /* \"#utility.yul\":19747:19764   */\n      add\n        /* \"#utility.yul\":19740:19787   */\n      mstore\n        /* \"#utility.yul\":19804:19935   */\n      tag_344\n        /* \"#utility.yul\":19930:19934   */\n      dup2\n        /* \"#utility.yul\":19804:19935   */\n      tag_176\n      jump\t// in\n    tag_344:\n        /* \"#utility.yul\":19796:19935   */\n      swap1\n      pop\n        /* \"#utility.yul\":19982:19991   */\n      dup2\n        /* \"#utility.yul\":19976:19980   */\n      dup2\n        /* \"#utility.yul\":19972:19992   */\n      sub\n        /* \"#utility.yul\":19967:19969   */\n      0x20\n        /* \"#utility.yul\":19956:19965   */\n      dup4\n        /* \"#utility.yul\":19952:19970   */\n      add\n        /* \"#utility.yul\":19945:19993   */\n      mstore\n        /* \"#utility.yul\":20010:20160   */\n      tag_345\n        /* \"#utility.yul\":20155:20159   */\n      dup2\n        /* \"#utility.yul\":20146:20152   */\n      dup5\n        /* \"#utility.yul\":20010:20160   */\n      tag_169\n      jump\t// in\n    tag_345:\n        /* \"#utility.yul\":20002:20160   */\n      swap1\n      pop\n        /* \"#utility.yul\":19403:20167   */\n      swap3\n      swap2\n      pop\n      pop\n      jump\t// out\n\n    auxdata: 0xa26469706673582212209a355624d307bcb2f314c1a454fcc6c4d5c133f175a8bfa646c947673579ed6f64736f6c634300081f0033\n}\n",
				"bytecode": {
					"linkReferences": {},
					"object": "60a060405234801561000f575f5ffd5b50604051611c8e380380611c8e833981810160405281019061003191906100c9565b8073ffffffffffffffffffffffffffffffffffffffff1660808173ffffffffffffffffffffffffffffffffffffffff1681525050506100f4565b5f5ffd5b5f73ffffffffffffffffffffffffffffffffffffffff82169050919050565b5f6100988261006f565b9050919050565b6100a88161008e565b81146100b2575f5ffd5b50565b5f815190506100c38161009f565b92915050565b5f602082840312156100de576100dd61006b565b5b5f6100eb848285016100b5565b91505092915050565b608051611b666101285f395f8181610452015281816107850152818161081201528181610dea01526111210152611b665ff3fe608060405234801561000f575f5ffd5b5060043610610055575f3560e01c80634882beff14610059578063b268d27a14610075578063b5f8558c14610091578063e9c1681f146100af578063edb57606146100cb575b5f5ffd5b610073600480360381019061006e919061128b565b6100e7565b005b61008f600480360381019061008a919061133b565b6104df565b005b610099610810565b6040516100a69190611433565b60405180910390f35b6100c960048036038101906100c49190611489565b610834565b005b6100e560048036038101906100e0919061133b565b610e7b565b005b5f600467ffffffffffffffff81111561010357610102611593565b5b60405190808252806020026020018201604052801561013c57816020015b6101296111ac565b8152602001906001900390816101215790505b50905060405180606001604052806040518060400160405280600681526020017f73656e646572000000000000000000000000000000000000000000000000000081525081526020016040518060400160405280600781526020017f61646472657373000000000000000000000000000000000000000000000000008152508152602001336040516020016101d191906115e0565b604051602081830303815290604052815250815f815181106101f6576101f56115f9565b5b602002602001018190525060405180606001604052806040518060400160405280600981526020017f7375625f6f776e6572000000000000000000000000000000000000000000000081525081526020016040518060400160405280600581526020017f627974657300000000000000000000000000000000000000000000000000000081525081526020018686604051602001610295929190611680565b604051602081830303815290604052815250816001815181106102bb576102ba6115f9565b5b602002602001018190525060405180606001604052806040518060400160405280600481526020017f6e616d650000000000000000000000000000000000000000000000000000000081525081526020016040518060400160405280600681526020017f737472696e6700000000000000000000000000000000000000000000000000008152508152602001888860405160200161035a9291906116de565b604051602081830303815290604052815250816002815181106103805761037f6115f9565b5b602002602001018190525060405180606001604052806040518060400160405280601181526020017f6e65775f757365645f7265665f636f646500000000000000000000000000000081525081526020016040518060400160405280600681526020017f737472696e6700000000000000000000000000000000000000000000000000008152508152602001848460405160200161041f9291906116de565b60405160208183030381529060405281525081600381518110610445576104446115f9565b5b60200260200101819052507f000000000000000000000000000000000000000000000000000000000000000073ffffffffffffffffffffffffffffffffffffffff16637d64fa9b826040518263ffffffff1660e01b81526004016104a99190611938565b5f604051808303815f87803b1580156104c0575f5ffd5b505af11580156104d2573d5f5f3e3d5ffd5b5050505050505050505050565b5f600367ffffffffffffffff8111156104fb576104fa611593565b5b60405190808252806020026020018201604052801561053457816020015b6105216111ac565b8152602001906001900390816105195790505b50905060405180606001604052806040518060400160405280600681526020017f73656e646572000000000000000000000000000000000000000000000000000081525081526020016040518060400160405280600781526020017f61646472657373000000000000000000000000000000000000000000000000008152508152602001336040516020016105c991906115e0565b604051602081830303815290604052815250815f815181106105ee576105ed6115f9565b5b602002602001018190525060405180606001604052806040518060400160405280600981526020017f7375625f6f776e6572000000000000000000000000000000000000000000000081525081526020016040518060400160405280600581526020017f62797465730000000000000000000000000000000000000000000000000000008152508152602001848460405160200161068d929190611680565b604051602081830303815290604052815250816001815181106106b3576106b26115f9565b5b602002602001018190525060405180606001604052806040518060400160405280600481526020017f6e616d650000000000000000000000000000000000000000000000000000000081525081526020016040518060400160405280600681526020017f737472696e670000000000000000000000000000000000000000000000000000815250815260200186866040516020016107529291906116de565b60405160208183030381529060405281525081600281518110610778576107776115f9565b5b60200260200101819052507f000000000000000000000000000000000000000000000000000000000000000073ffffffffffffffffffffffffffffffffffffffff16637d64fa9b826040518263ffffffff1660e01b81526004016107dc91906119b5565b5f604051808303815f87803b1580156107f3575f5ffd5b505af1158015610805573d5f5f3e3d5ffd5b505050505050505050565b7f000000000000000000000000000000000000000000000000000000000000000081565b5f600767ffffffffffffffff8111156108505761084f611593565b5b60405190808252806020026020018201604052801561088957816020015b6108766111ac565b81526020019060019003908161086e5790505b50905060405180606001604052806040518060400160405280600681526020017f73656e646572000000000000000000000000000000000000000000000000000081525081526020016040518060400160405280600781526020017f616464726573730000000000000000000000000000000000000000000000000081525081526020013360405160200161091e91906115e0565b604051602081830303815290604052815250815f81518110610943576109426115f9565b5b602002602001018190525060405180606001604052806040518060400160405280600481526020017f6e616d650000000000000000000000000000000000000000000000000000000081525081526020016040518060400160405280600681526020017f737472696e67000000000000000000000000000000000000000000000000000081525081526020018c8c6040516020016109e29291906116de565b60405160208183030381529060405281525081600181518110610a0857610a076115f9565b5b602002602001018190525060405180606001604052806040518060400160405280600881526020017f7265665f636f646500000000000000000000000000000000000000000000000081525081526020016040518060400160405280600681526020017f737472696e67000000000000000000000000000000000000000000000000000081525081526020018a8a604051602001610aa79291906116de565b60405160208183030381529060405281525081600281518110610acd57610acc6115f9565b5b602002602001018190525060405180606001604052806040518060400160405280600881526020017f7265665f636f646500000000000000000000000000000000000000000000000081525081526020016040518060400160405280600681526020017f737472696e67000000000000000000000000000000000000000000000000000081525081526020018888604051602001610b6c9291906116de565b60405160208183030381529060405281525081600381518110610b9257610b916115f9565b5b602002602001018190525060405180606001604052806040518060400160405280601281526020017f73656c65637465645f76616c696461746f72000000000000000000000000000081525081526020016040518060400160405280600681526020017f737472696e67000000000000000000000000000000000000000000000000000081525081526020018686604051602001610c319291906116de565b60405160208183030381529060405281525081600481518110610c5757610c566115f9565b5b602002602001018190525060405180606001604052806040518060400160405280600681526020017f78705f746178000000000000000000000000000000000000000000000000000081525081526020016040518060400160405280600681526020017f75696e7436340000000000000000000000000000000000000000000000000000815250815260200184604051602001610cf491906119f7565b60405160208183030381529060405281525081600581518110610d1a57610d196115f9565b5b602002602001018190525060405180606001604052806040518060400160405280600781526020017f6665655f7461780000000000000000000000000000000000000000000000000081525081526020016040518060400160405280600681526020017f75696e7436340000000000000000000000000000000000000000000000000000815250815260200183604051602001610db791906119f7565b60405160208183030381529060405281525081600681518110610ddd57610ddc6115f9565b5b60200260200101819052507f000000000000000000000000000000000000000000000000000000000000000073ffffffffffffffffffffffffffffffffffffffff16637d64fa9b826040518263ffffffff1660e01b8152600401610e419190611a5a565b5f604051808303815f87803b158015610e58575f5ffd5b505af1158015610e6a573d5f5f3e3d5ffd5b505050505050505050505050505050565b5f600367ffffffffffffffff811115610e9757610e96611593565b5b604051908082528060200260200182016040528015610ed057816020015b610ebd6111ac565b815260200190600190039081610eb55790505b50905060405180606001604052806040518060400160405280600681526020017f73656e646572000000000000000000000000000000000000000000000000000081525081526020016040518060400160405280600781526020017f6164647265737300000000000000000000000000000000000000000000000000815250815260200133604051602001610f6591906115e0565b604051602081830303815290604052815250815f81518110610f8a57610f896115f9565b5b602002602001018190525060405180606001604052806040518060400160405280600981526020017f7375625f6f776e6572000000000000000000000000000000000000000000000081525081526020016040518060400160405280600581526020017f627974657300000000000000000000000000000000000000000000000000000081525081526020018484604051602001611029929190611680565b6040516020818303038152906040528152508160018151811061104f5761104e6115f9565b5b602002602001018190525060405180606001604052806040518060400160405280600481526020017f6e616d650000000000000000000000000000000000000000000000000000000081525081526020016040518060400160405280600681526020017f737472696e670000000000000000000000000000000000000000000000000000815250815260200186866040516020016110ee9291906116de565b60405160208183030381529060405281525081600281518110611114576111136115f9565b5b60200260200101819052507f000000000000000000000000000000000000000000000000000000000000000073ffffffffffffffffffffffffffffffffffffffff16637d64fa9b826040518263ffffffff1660e01b81526004016111789190611afd565b5f604051808303815f87803b15801561118f575f5ffd5b505af11580156111a1573d5f5f3e3d5ffd5b505050505050505050565b60405180606001604052806060815260200160608152602001606081525090565b5f5ffd5b5f5ffd5b5f5ffd5b5f5ffd5b5f5ffd5b5f5f83601f8401126111f6576111f56111d5565b5b8235905067ffffffffffffffff811115611213576112126111d9565b5b60208301915083600182028301111561122f5761122e6111dd565b5b9250929050565b5f5f83601f84011261124b5761124a6111d5565b5b8235905067ffffffffffffffff811115611268576112676111d9565b5b602083019150836001820283011115611284576112836111dd565b5b9250929050565b5f5f5f5f5f5f606087890312156112a5576112a46111cd565b5b5f87013567ffffffffffffffff8111156112c2576112c16111d1565b5b6112ce89828a016111e1565b9650965050602087013567ffffffffffffffff8111156112f1576112f06111d1565b5b6112fd89828a01611236565b9450945050604087013567ffffffffffffffff8111156113205761131f6111d1565b5b61132c89828a016111e1565b92509250509295509295509295565b5f5f5f5f60408587031215611353576113526111cd565b5b5f85013567ffffffffffffffff8111156113705761136f6111d1565b5b61137c878288016111e1565b9450945050602085013567ffffffffffffffff81111561139f5761139e6111d1565b5b6113ab87828801611236565b925092505092959194509250565b5f73ffffffffffffffffffffffffffffffffffffffff82169050919050565b5f819050919050565b5f6113fb6113f66113f1846113b9565b6113d8565b6113b9565b9050919050565b5f61140c826113e1565b9050919050565b5f61141d82611402565b9050919050565b61142d81611413565b82525050565b5f6020820190506114465f830184611424565b92915050565b5f67ffffffffffffffff82169050919050565b6114688161144c565b8114611472575f5ffd5b50565b5f813590506114838161145f565b92915050565b5f5f5f5f5f5f5f5f5f5f60c08b8d0312156114a7576114a66111cd565b5b5f8b013567ffffffffffffffff8111156114c4576114c36111d1565b5b6114d08d828e016111e1565b9a509a505060208b013567ffffffffffffffff8111156114f3576114f26111d1565b5b6114ff8d828e016111e1565b985098505060408b013567ffffffffffffffff811115611522576115216111d1565b5b61152e8d828e016111e1565b965096505060608b013567ffffffffffffffff811115611551576115506111d1565b5b61155d8d828e016111e1565b945094505060806115708d828e01611475565b92505060a06115818d828e01611475565b9150509295989b9194979a5092959850565b7f4e487b71000000000000000000000000000000000000000000000000000000005f52604160045260245ffd5b5f6115ca826113b9565b9050919050565b6115da816115c0565b82525050565b5f6020820190506115f35f8301846115d1565b92915050565b7f4e487b71000000000000000000000000000000000000000000000000000000005f52603260045260245ffd5b5f82825260208201905092915050565b828183375f83830152505050565b5f601f19601f8301169050919050565b5f61165f8385611626565b935061166c838584611636565b61167583611644565b840190509392505050565b5f6020820190508181035f830152611699818486611654565b90509392505050565b5f82825260208201905092915050565b5f6116bd83856116a2565b93506116ca838584611636565b6116d383611644565b840190509392505050565b5f6020820190508181035f8301526116f78184866116b2565b90509392505050565b7f4d6f64756c61722053746f7261676520557365642052656620436f64652055705f8201527f6461746564000000000000000000000000000000000000000000000000000000602082015250565b5f61175a6025836116a2565b915061176582611700565b604082019050919050565b5f81519050919050565b5f82825260208201905092915050565b5f819050602082019050919050565b5f81519050919050565b5f82825260208201905092915050565b8281835e5f83830152505050565b5f6117cb82611799565b6117d581856117a3565b93506117e58185602086016117b3565b6117ee81611644565b840191505092915050565b5f81519050919050565b5f82825260208201905092915050565b5f61181d826117f9565b6118278185611803565b93506118378185602086016117b3565b61184081611644565b840191505092915050565b5f606083015f8301518482035f86015261186582826117c1565b9150506020830151848203602086015261187f82826117c1565b915050604083015184820360408601526118998282611813565b9150508091505092915050565b5f6118b1838361184b565b905092915050565b5f602082019050919050565b5f6118cf82611770565b6118d9818561177a565b9350836020820285016118eb8561178a565b805f5b85811015611926578484038952815161190785826118a6565b9450611912836118b9565b925060208a019950506001810190506118ee565b50829750879550505050505092915050565b5f6040820190508181035f83015261194f8161174e565b9050818103602083015261196381846118c5565b905092915050565b7f4d6f64756c61722053746f7261676520537562204f776e6572204164646564005f82015250565b5f61199f601f836116a2565b91506119aa8261196b565b602082019050919050565b5f6040820190508181035f8301526119cc81611993565b905081810360208301526119e081846118c5565b905092915050565b6119f18161144c565b82525050565b5f602082019050611a0a5f8301846119e8565b92915050565b7f4d6f64756c61722053746f72616765204372656174696f6e00000000000000005f82015250565b5f611a446018836116a2565b9150611a4f82611a10565b602082019050919050565b5f6040820190508181035f830152611a7181611a38565b90508181036020830152611a8581846118c5565b905092915050565b7f4d6f64756c61722053746f7261676520537562204f776e65722052656d6f76655f8201527f6400000000000000000000000000000000000000000000000000000000000000602082015250565b5f611ae76021836116a2565b9150611af282611a8d565b604082019050919050565b5f6040820190508181035f830152611b1481611adb565b90508181036020830152611b2881846118c5565b90509291505056fea26469706673582212209a355624d307bcb2f314c1a454fcc6c4d5c133f175a8bfa646c947673579ed6f64736f6c634300081f0033",
					"opcodes": "PUSH1 0xA0 PUSH1 0x40 MSTORE CALLVALUE DUP1 ISZERO PUSH2 0xF JUMPI PUSH0 PUSH0 REVERT JUMPDEST POP PUSH1 0x40 MLOAD PUSH2 0x1C8E CODESIZE SUB DUP1 PUSH2 0x1C8E DUP4 CODECOPY DUP2 DUP2 ADD PUSH1 0x40 MSTORE DUP2 ADD SWAP1 PUSH2 0x31 SWAP2 SWAP1 PUSH2 0xC9 JUMP JUMPDEST DUP1 PUSH20 0xFFFFFFFFFFFFFFFFFFFFFFFFFFFFFFFFFFFFFFFF AND PUSH1 0x80 DUP2 PUSH20 0xFFFFFFFFFFFFFFFFFFFFFFFFFFFFFFFFFFFFFFFF AND DUP2 MSTORE POP POP POP PUSH2 0xF4 JUMP JUMPDEST PUSH0 PUSH0 REVERT JUMPDEST PUSH0 PUSH20 0xFFFFFFFFFFFFFFFFFFFFFFFFFFFFFFFFFFFFFFFF DUP3 AND SWAP1 POP SWAP2 SWAP1 POP JUMP JUMPDEST PUSH0 PUSH2 0x98 DUP3 PUSH2 0x6F JUMP JUMPDEST SWAP1 POP SWAP2 SWAP1 POP JUMP JUMPDEST PUSH2 0xA8 DUP2 PUSH2 0x8E JUMP JUMPDEST DUP2 EQ PUSH2 0xB2 JUMPI PUSH0 PUSH0 REVERT JUMPDEST POP JUMP JUMPDEST PUSH0 DUP2 MLOAD SWAP1 POP PUSH2 0xC3 DUP2 PUSH2 0x9F JUMP JUMPDEST SWAP3 SWAP2 POP POP JUMP JUMPDEST PUSH0 PUSH1 0x20 DUP3 DUP5 SUB SLT ISZERO PUSH2 0xDE JUMPI PUSH2 0xDD PUSH2 0x6B JUMP JUMPDEST JUMPDEST PUSH0 PUSH2 0xEB DUP5 DUP3 DUP6 ADD PUSH2 0xB5 JUMP JUMPDEST SWAP2 POP POP SWAP3 SWAP2 POP POP JUMP JUMPDEST PUSH1 0x80 MLOAD PUSH2 0x1B66 PUSH2 0x128 PUSH0 CODECOPY PUSH0 DUP2 DUP2 PUSH2 0x452 ADD MSTORE DUP2 DUP2 PUSH2 0x785 ADD MSTORE DUP2 DUP2 PUSH2 0x812 ADD MSTORE DUP2 DUP2 PUSH2 0xDEA ADD MSTORE PUSH2 0x1121 ADD MSTORE PUSH2 0x1B66 PUSH0 RETURN INVALID PUSH1 0x80 PUSH1 0x40 MSTORE CALLVALUE DUP1 ISZERO PUSH2 0xF JUMPI PUSH0 PUSH0 REVERT JUMPDEST POP PUSH1 0x4 CALLDATASIZE LT PUSH2 0x55 JUMPI PUSH0 CALLDATALOAD PUSH1 0xE0 SHR DUP1 PUSH4 0x4882BEFF EQ PUSH2 0x59 JUMPI DUP1 PUSH4 0xB268D27A EQ PUSH2 0x75 JUMPI DUP1 PUSH4 0xB5F8558C EQ PUSH2 0x91 JUMPI DUP1 PUSH4 0xE9C1681F EQ PUSH2 0xAF JUMPI DUP1 PUSH4 0xEDB57606 EQ PUSH2 0xCB JUMPI JUMPDEST PUSH0 PUSH0 REVERT JUMPDEST PUSH2 0x73 PUSH1 0x4 DUP1 CALLDATASIZE SUB DUP2 ADD SWAP1 PUSH2 0x6E SWAP2 SWAP1 PUSH2 0x128B JUMP JUMPDEST PUSH2 0xE7 JUMP JUMPDEST STOP JUMPDEST PUSH2 0x8F PUSH1 0x4 DUP1 CALLDATASIZE SUB DUP2 ADD SWAP1 PUSH2 0x8A SWAP2 SWAP1 PUSH2 0x133B JUMP JUMPDEST PUSH2 0x4DF JUMP JUMPDEST STOP JUMPDEST PUSH2 0x99 PUSH2 0x810 JUMP JUMPDEST PUSH1 0x40 MLOAD PUSH2 0xA6 SWAP2 SWAP1 PUSH2 0x1433 JUMP JUMPDEST PUSH1 0x40 MLOAD DUP1 SWAP2 SUB SWAP1 RETURN JUMPDEST PUSH2 0xC9 PUSH1 0x4 DUP1 CALLDATASIZE SUB DUP2 ADD SWAP1 PUSH2 0xC4 SWAP2 SWAP1 PUSH2 0x1489 JUMP JUMPDEST PUSH2 0x834 JUMP JUMPDEST STOP JUMPDEST PUSH2 0xE5 PUSH1 0x4 DUP1 CALLDATASIZE SUB DUP2 ADD SWAP1 PUSH2 0xE0 SWAP2 SWAP1 PUSH2 0x133B JUMP JUMPDEST PUSH2 0xE7B JUMP JUMPDEST STOP JUMPDEST PUSH0 PUSH1 0x4 PUSH8 0xFFFFFFFFFFFFFFFF DUP2 GT ISZERO PUSH2 0x103 JUMPI PUSH2 0x102 PUSH2 0x1593 JUMP JUMPDEST JUMPDEST PUSH1 0x40 MLOAD SWAP1 DUP1 DUP3 MSTORE DUP1 PUSH1 0x20 MUL PUSH1 0x20 ADD DUP3 ADD PUSH1 0x40 MSTORE DUP1 ISZERO PUSH2 0x13C JUMPI DUP2 PUSH1 0x20 ADD JUMPDEST PUSH2 0x129 PUSH2 0x11AC JUMP JUMPDEST DUP2 MSTORE PUSH1 0x20 ADD SWAP1 PUSH1 0x1 SWAP1 SUB SWAP1 DUP2 PUSH2 0x121 JUMPI SWAP1 POP JUMPDEST POP SWAP1 POP PUSH1 0x40 MLOAD DUP1 PUSH1 0x60 ADD PUSH1 0x40 MSTORE DUP1 PUSH1 0x40 MLOAD DUP1 PUSH1 0x40 ADD PUSH1 0x40 MSTORE DUP1 PUSH1 0x6 DUP2 MSTORE PUSH1 0x20 ADD PUSH32 0x73656E6465720000000000000000000000000000000000000000000000000000 DUP2 MSTORE POP DUP2 MSTORE PUSH1 0x20 ADD PUSH1 0x40 MLOAD DUP1 PUSH1 0x40 ADD PUSH1 0x40 MSTORE DUP1 PUSH1 0x7 DUP2 MSTORE PUSH1 0x20 ADD PUSH32 0x6164647265737300000000000000000000000000000000000000000000000000 DUP2 MSTORE POP DUP2 MSTORE PUSH1 0x20 ADD CALLER PUSH1 0x40 MLOAD PUSH1 0x20 ADD PUSH2 0x1D1 SWAP2 SWAP1 PUSH2 0x15E0 JUMP JUMPDEST PUSH1 0x40 MLOAD PUSH1 0x20 DUP2 DUP4 SUB SUB DUP2 MSTORE SWAP1 PUSH1 0x40 MSTORE DUP2 MSTORE POP DUP2 PUSH0 DUP2 MLOAD DUP2 LT PUSH2 0x1F6 JUMPI PUSH2 0x1F5 PUSH2 0x15F9 JUMP JUMPDEST JUMPDEST PUSH1 0x20 MUL PUSH1 0x20 ADD ADD DUP2 SWAP1 MSTORE POP PUSH1 0x40 MLOAD DUP1 PUSH1 0x60 ADD PUSH1 0x40 MSTORE DUP1 PUSH1 0x40 MLOAD DUP1 PUSH1 0x40 ADD PUSH1 0x40 MSTORE DUP1 PUSH1 0x9 DUP2 MSTORE PUSH1 0x20 ADD PUSH32 0x7375625F6F776E65720000000000000000000000000000000000000000000000 DUP2 MSTORE POP DUP2 MSTORE PUSH1 0x20 ADD PUSH1 0x40 MLOAD DUP1 PUSH1 0x40 ADD PUSH1 0x40 MSTORE DUP1 PUSH1 0x5 DUP2 MSTORE PUSH1 0x20 ADD PUSH32 0x6279746573000000000000000000000000000000000000000000000000000000 DUP2 MSTORE POP DUP2 MSTORE PUSH1 0x20 ADD DUP7 DUP7 PUSH1 0x40 MLOAD PUSH1 0x20 ADD PUSH2 0x295 SWAP3 SWAP2 SWAP1 PUSH2 0x1680 JUMP JUMPDEST PUSH1 0x40 MLOAD PUSH1 0x20 DUP2 DUP4 SUB SUB DUP2 MSTORE SWAP1 PUSH1 0x40 MSTORE DUP2 MSTORE POP DUP2 PUSH1 0x1 DUP2 MLOAD DUP2 LT PUSH2 0x2BB JUMPI PUSH2 0x2BA PUSH2 0x15F9 JUMP JUMPDEST JUMPDEST PUSH1 0x20 MUL PUSH1 0x20 ADD ADD DUP2 SWAP1 MSTORE POP PUSH1 0x40 MLOAD DUP1 PUSH1 0x60 ADD PUSH1 0x40 MSTORE DUP1 PUSH1 0x40 MLOAD DUP1 PUSH1 0x40 ADD PUSH1 0x40 MSTORE DUP1 PUSH1 0x4 DUP2 MSTORE PUSH1 0x20 ADD PUSH32 0x6E616D6500000000000000000000000000000000000000000000000000000000 DUP2 MSTORE POP DUP2 MSTORE PUSH1 0x20 ADD PUSH1 0x40 MLOAD DUP1 PUSH1 0x40 ADD PUSH1 0x40 MSTORE DUP1 PUSH1 0x6 DUP2 MSTORE PUSH1 0x20 ADD PUSH32 0x737472696E670000000000000000000000000000000000000000000000000000 DUP2 MSTORE POP DUP2 MSTORE PUSH1 0x20 ADD DUP9 DUP9 PUSH1 0x40 MLOAD PUSH1 0x20 ADD PUSH2 0x35A SWAP3 SWAP2 SWAP1 PUSH2 0x16DE JUMP JUMPDEST PUSH1 0x40 MLOAD PUSH1 0x20 DUP2 DUP4 SUB SUB DUP2 MSTORE SWAP1 PUSH1 0x40 MSTORE DUP2 MSTORE POP DUP2 PUSH1 0x2 DUP2 MLOAD DUP2 LT PUSH2 0x380 JUMPI PUSH2 0x37F PUSH2 0x15F9 JUMP JUMPDEST JUMPDEST PUSH1 0x20 MUL PUSH1 0x20 ADD ADD DUP2 SWAP1 MSTORE POP PUSH1 0x40 MLOAD DUP1 PUSH1 0x60 ADD PUSH1 0x40 MSTORE DUP1 PUSH1 0x40 MLOAD DUP1 PUSH1 0x40 ADD PUSH1 0x40 MSTORE DUP1 PUSH1 0x11 DUP2 MSTORE PUSH1 0x20 ADD PUSH32 0x6E65775F757365645F7265665F636F6465000000000000000000000000000000 DUP2 MSTORE POP DUP2 MSTORE PUSH1 0x20 ADD PUSH1 0x40 MLOAD DUP1 PUSH1 0x40 ADD PUSH1 0x40 MSTORE DUP1 PUSH1 0x6 DUP2 MSTORE PUSH1 0x20 ADD PUSH32 0x737472696E670000000000000000000000000000000000000000000000000000 DUP2 MSTORE POP DUP2 MSTORE PUSH1 0x20 ADD DUP5 DUP5 PUSH1 0x40 MLOAD PUSH1 0x20 ADD PUSH2 0x41F SWAP3 SWAP2 SWAP1 PUSH2 0x16DE JUMP JUMPDEST PUSH1 0x40 MLOAD PUSH1 0x20 DUP2 DUP4 SUB SUB DUP2 MSTORE SWAP1 PUSH1 0x40 MSTORE DUP2 MSTORE POP DUP2 PUSH1 0x3 DUP2 MLOAD DUP2 LT PUSH2 0x445 JUMPI PUSH2 0x444 PUSH2 0x15F9 JUMP JUMPDEST JUMPDEST PUSH1 0x20 MUL PUSH1 0x20 ADD ADD DUP2 SWAP1 MSTORE POP PUSH32 0x0 PUSH20 0xFFFFFFFFFFFFFFFFFFFFFFFFFFFFFFFFFFFFFFFF AND PUSH4 0x7D64FA9B DUP3 PUSH1 0x40 MLOAD DUP3 PUSH4 0xFFFFFFFF AND PUSH1 0xE0 SHL DUP2 MSTORE PUSH1 0x4 ADD PUSH2 0x4A9 SWAP2 SWAP1 PUSH2 0x1938 JUMP JUMPDEST PUSH0 PUSH1 0x40 MLOAD DUP1 DUP4 SUB DUP2 PUSH0 DUP8 DUP1 EXTCODESIZE ISZERO DUP1 ISZERO PUSH2 0x4C0 JUMPI PUSH0 PUSH0 REVERT JUMPDEST POP GAS CALL ISZERO DUP1 ISZERO PUSH2 0x4D2 JUMPI RETURNDATASIZE PUSH0 PUSH0 RETURNDATACOPY RETURNDATASIZE PUSH0 REVERT JUMPDEST POP POP POP POP POP POP POP POP POP POP POP JUMP JUMPDEST PUSH0 PUSH1 0x3 PUSH8 0xFFFFFFFFFFFFFFFF DUP2 GT ISZERO PUSH2 0x4FB JUMPI PUSH2 0x4FA PUSH2 0x1593 JUMP JUMPDEST JUMPDEST PUSH1 0x40 MLOAD SWAP1 DUP1 DUP3 MSTORE DUP1 PUSH1 0x20 MUL PUSH1 0x20 ADD DUP3 ADD PUSH1 0x40 MSTORE DUP1 ISZERO PUSH2 0x534 JUMPI DUP2 PUSH1 0x20 ADD JUMPDEST PUSH2 0x521 PUSH2 0x11AC JUMP JUMPDEST DUP2 MSTORE PUSH1 0x20 ADD SWAP1 PUSH1 0x1 SWAP1 SUB SWAP1 DUP2 PUSH2 0x519 JUMPI SWAP1 POP JUMPDEST POP SWAP1 POP PUSH1 0x40 MLOAD DUP1 PUSH1 0x60 ADD PUSH1 0x40 MSTORE DUP1 PUSH1 0x40 MLOAD DUP1 PUSH1 0x40 ADD PUSH1 0x40 MSTORE DUP1 PUSH1 0x6 DUP2 MSTORE PUSH1 0x20 ADD PUSH32 0x73656E6465720000000000000000000000000000000000000000000000000000 DUP2 MSTORE POP DUP2 MSTORE PUSH1 0x20 ADD PUSH1 0x40 MLOAD DUP1 PUSH1 0x40 ADD PUSH1 0x40 MSTORE DUP1 PUSH1 0x7 DUP2 MSTORE PUSH1 0x20 ADD PUSH32 0x6164647265737300000000000000000000000000000000000000000000000000 DUP2 MSTORE POP DUP2 MSTORE PUSH1 0x20 ADD CALLER PUSH1 0x40 MLOAD PUSH1 0x20 ADD PUSH2 0x5C9 SWAP2 SWAP1 PUSH2 0x15E0 JUMP JUMPDEST PUSH1 0x40 MLOAD PUSH1 0x20 DUP2 DUP4 SUB SUB DUP2 MSTORE SWAP1 PUSH1 0x40 MSTORE DUP2 MSTORE POP DUP2 PUSH0 DUP2 MLOAD DUP2 LT PUSH2 0x5EE JUMPI PUSH2 0x5ED PUSH2 0x15F9 JUMP JUMPDEST JUMPDEST PUSH1 0x20 MUL PUSH1 0x20 ADD ADD DUP2 SWAP1 MSTORE POP PUSH1 0x40 MLOAD DUP1 PUSH1 0x60 ADD PUSH1 0x40 MSTORE DUP1 PUSH1 0x40 MLOAD DUP1 PUSH1 0x40 ADD PUSH1 0x40 MSTORE DUP1 PUSH1 0x9 DUP2 MSTORE PUSH1 0x20 ADD PUSH32 0x7375625F6F776E65720000000000000000000000000000000000000000000000 DUP2 MSTORE POP DUP2 MSTORE PUSH1 0x20 ADD PUSH1 0x40 MLOAD DUP1 PUSH1 0x40 ADD PUSH1 0x40 MSTORE DUP1 PUSH1 0x5 DUP2 MSTORE PUSH1 0x20 ADD PUSH32 0x6279746573000000000000000000000000000000000000000000000000000000 DUP2 MSTORE POP DUP2 MSTORE PUSH1 0x20 ADD DUP5 DUP5 PUSH1 0x40 MLOAD PUSH1 0x20 ADD PUSH2 0x68D SWAP3 SWAP2 SWAP1 PUSH2 0x1680 JUMP JUMPDEST PUSH1 0x40 MLOAD PUSH1 0x20 DUP2 DUP4 SUB SUB DUP2 MSTORE SWAP1 PUSH1 0x40 MSTORE DUP2 MSTORE POP DUP2 PUSH1 0x1 DUP2 MLOAD DUP2 LT PUSH2 0x6B3 JUMPI PUSH2 0x6B2 PUSH2 0x15F9 JUMP JUMPDEST JUMPDEST PUSH1 0x20 MUL PUSH1 0x20 ADD ADD DUP2 SWAP1 MSTORE POP PUSH1 0x40 MLOAD DUP1 PUSH1 0x60 ADD PUSH1 0x40 MSTORE DUP1 PUSH1 0x40 MLOAD DUP1 PUSH1 0x40 ADD PUSH1 0x40 MSTORE DUP1 PUSH1 0x4 DUP2 MSTORE PUSH1 0x20 ADD PUSH32 0x6E616D6500000000000000000000000000000000000000000000000000000000 DUP2 MSTORE POP DUP2 MSTORE PUSH1 0x20 ADD PUSH1 0x40 MLOAD DUP1 PUSH1 0x40 ADD PUSH1 0x40 MSTORE DUP1 PUSH1 0x6 DUP2 MSTORE PUSH1 0x20 ADD PUSH32 0x737472696E670000000000000000000000000000000000000000000000000000 DUP2 MSTORE POP DUP2 MSTORE PUSH1 0x20 ADD DUP7 DUP7 PUSH1 0x40 MLOAD PUSH1 0x20 ADD PUSH2 0x752 SWAP3 SWAP2 SWAP1 PUSH2 0x16DE JUMP JUMPDEST PUSH1 0x40 MLOAD PUSH1 0x20 DUP2 DUP4 SUB SUB DUP2 MSTORE SWAP1 PUSH1 0x40 MSTORE DUP2 MSTORE POP DUP2 PUSH1 0x2 DUP2 MLOAD DUP2 LT PUSH2 0x778 JUMPI PUSH2 0x777 PUSH2 0x15F9 JUMP JUMPDEST JUMPDEST PUSH1 0x20 MUL PUSH1 0x20 ADD ADD DUP2 SWAP1 MSTORE POP PUSH32 0x0 PUSH20 0xFFFFFFFFFFFFFFFFFFFFFFFFFFFFFFFFFFFFFFFF AND PUSH4 0x7D64FA9B DUP3 PUSH1 0x40 MLOAD DUP3 PUSH4 0xFFFFFFFF AND PUSH1 0xE0 SHL DUP2 MSTORE PUSH1 0x4 ADD PUSH2 0x7DC SWAP2 SWAP1 PUSH2 0x19B5 JUMP JUMPDEST PUSH0 PUSH1 0x40 MLOAD DUP1 DUP4 SUB DUP2 PUSH0 DUP8 DUP1 EXTCODESIZE ISZERO DUP1 ISZERO PUSH2 0x7F3 JUMPI PUSH0 PUSH0 REVERT JUMPDEST POP GAS CALL ISZERO DUP1 ISZERO PUSH2 0x805 JUMPI RETURNDATASIZE PUSH0 PUSH0 RETURNDATACOPY RETURNDATASIZE PUSH0 REVERT JUMPDEST POP POP POP POP POP POP POP POP POP JUMP JUMPDEST PUSH32 0x0 DUP2 JUMP JUMPDEST PUSH0 PUSH1 0x7 PUSH8 0xFFFFFFFFFFFFFFFF DUP2 GT ISZERO PUSH2 0x850 JUMPI PUSH2 0x84F PUSH2 0x1593 JUMP JUMPDEST JUMPDEST PUSH1 0x40 MLOAD SWAP1 DUP1 DUP3 MSTORE DUP1 PUSH1 0x20 MUL PUSH1 0x20 ADD DUP3 ADD PUSH1 0x40 MSTORE DUP1 ISZERO PUSH2 0x889 JUMPI DUP2 PUSH1 0x20 ADD JUMPDEST PUSH2 0x876 PUSH2 0x11AC JUMP JUMPDEST DUP2 MSTORE PUSH1 0x20 ADD SWAP1 PUSH1 0x1 SWAP1 SUB SWAP1 DUP2 PUSH2 0x86E JUMPI SWAP1 POP JUMPDEST POP SWAP1 POP PUSH1 0x40 MLOAD DUP1 PUSH1 0x60 ADD PUSH1 0x40 MSTORE DUP1 PUSH1 0x40 MLOAD DUP1 PUSH1 0x40 ADD PUSH1 0x40 MSTORE DUP1 PUSH1 0x6 DUP2 MSTORE PUSH1 0x20 ADD PUSH32 0x73656E6465720000000000000000000000000000000000000000000000000000 DUP2 MSTORE POP DUP2 MSTORE PUSH1 0x20 ADD PUSH1 0x40 MLOAD DUP1 PUSH1 0x40 ADD PUSH1 0x40 MSTORE DUP1 PUSH1 0x7 DUP2 MSTORE PUSH1 0x20 ADD PUSH32 0x6164647265737300000000000000000000000000000000000000000000000000 DUP2 MSTORE POP DUP2 MSTORE PUSH1 0x20 ADD CALLER PUSH1 0x40 MLOAD PUSH1 0x20 ADD PUSH2 0x91E SWAP2 SWAP1 PUSH2 0x15E0 JUMP JUMPDEST PUSH1 0x40 MLOAD PUSH1 0x20 DUP2 DUP4 SUB SUB DUP2 MSTORE SWAP1 PUSH1 0x40 MSTORE DUP2 MSTORE POP DUP2 PUSH0 DUP2 MLOAD DUP2 LT PUSH2 0x943 JUMPI PUSH2 0x942 PUSH2 0x15F9 JUMP JUMPDEST JUMPDEST PUSH1 0x20 MUL PUSH1 0x20 ADD ADD DUP2 SWAP1 MSTORE POP PUSH1 0x40 MLOAD DUP1 PUSH1 0x60 ADD PUSH1 0x40 MSTORE DUP1 PUSH1 0x40 MLOAD DUP1 PUSH1 0x40 ADD PUSH1 0x40 MSTORE DUP1 PUSH1 0x4 DUP2 MSTORE PUSH1 0x20 ADD PUSH32 0x6E616D6500000000000000000000000000000000000000000000000000000000 DUP2 MSTORE POP DUP2 MSTORE PUSH1 0x20 ADD PUSH1 0x40 MLOAD DUP1 PUSH1 0x40 ADD PUSH1 0x40 MSTORE DUP1 PUSH1 0x6 DUP2 MSTORE PUSH1 0x20 ADD PUSH32 0x737472696E670000000000000000000000000000000000000000000000000000 DUP2 MSTORE POP DUP2 MSTORE PUSH1 0x20 ADD DUP13 DUP13 PUSH1 0x40 MLOAD PUSH1 0x20 ADD PUSH2 0x9E2 SWAP3 SWAP2 SWAP1 PUSH2 0x16DE JUMP JUMPDEST PUSH1 0x40 MLOAD PUSH1 0x20 DUP2 DUP4 SUB SUB DUP2 MSTORE SWAP1 PUSH1 0x40 MSTORE DUP2 MSTORE POP DUP2 PUSH1 0x1 DUP2 MLOAD DUP2 LT PUSH2 0xA08 JUMPI PUSH2 0xA07 PUSH2 0x15F9 JUMP JUMPDEST JUMPDEST PUSH1 0x20 MUL PUSH1 0x20 ADD ADD DUP2 SWAP1 MSTORE POP PUSH1 0x40 MLOAD DUP1 PUSH1 0x60 ADD PUSH1 0x40 MSTORE DUP1 PUSH1 0x40 MLOAD DUP1 PUSH1 0x40 ADD PUSH1 0x40 MSTORE DUP1 PUSH1 0x8 DUP2 MSTORE PUSH1 0x20 ADD PUSH32 0x7265665F636F6465000000000000000000000000000000000000000000000000 DUP2 MSTORE POP DUP2 MSTORE PUSH1 0x20 ADD PUSH1 0x40 MLOAD DUP1 PUSH1 0x40 ADD PUSH1 0x40 MSTORE DUP1 PUSH1 0x6 DUP2 MSTORE PUSH1 0x20 ADD PUSH32 0x737472696E670000000000000000000000000000000000000000000000000000 DUP2 MSTORE POP DUP2 MSTORE PUSH1 0x20 ADD DUP11 DUP11 PUSH1 0x40 MLOAD PUSH1 0x20 ADD PUSH2 0xAA7 SWAP3 SWAP2 SWAP1 PUSH2 0x16DE JUMP JUMPDEST PUSH1 0x40 MLOAD PUSH1 0x20 DUP2 DUP4 SUB SUB DUP2 MSTORE SWAP1 PUSH1 0x40 MSTORE DUP2 MSTORE POP DUP2 PUSH1 0x2 DUP2 MLOAD DUP2 LT PUSH2 0xACD JUMPI PUSH2 0xACC PUSH2 0x15F9 JUMP JUMPDEST JUMPDEST PUSH1 0x20 MUL PUSH1 0x20 ADD ADD DUP2 SWAP1 MSTORE POP PUSH1 0x40 MLOAD DUP1 PUSH1 0x60 ADD PUSH1 0x40 MSTORE DUP1 PUSH1 0x40 MLOAD DUP1 PUSH1 0x40 ADD PUSH1 0x40 MSTORE DUP1 PUSH1 0x8 DUP2 MSTORE PUSH1 0x20 ADD PUSH32 0x7265665F636F6465000000000000000000000000000000000000000000000000 DUP2 MSTORE POP DUP2 MSTORE PUSH1 0x20 ADD PUSH1 0x40 MLOAD DUP1 PUSH1 0x40 ADD PUSH1 0x40 MSTORE DUP1 PUSH1 0x6 DUP2 MSTORE PUSH1 0x20 ADD PUSH32 0x737472696E670000000000000000000000000000000000000000000000000000 DUP2 MSTORE POP DUP2 MSTORE PUSH1 0x20 ADD DUP9 DUP9 PUSH1 0x40 MLOAD PUSH1 0x20 ADD PUSH2 0xB6C SWAP3 SWAP2 SWAP1 PUSH2 0x16DE JUMP JUMPDEST PUSH1 0x40 MLOAD PUSH1 0x20 DUP2 DUP4 SUB SUB DUP2 MSTORE SWAP1 PUSH1 0x40 MSTORE DUP2 MSTORE POP DUP2 PUSH1 0x3 DUP2 MLOAD DUP2 LT PUSH2 0xB92 JUMPI PUSH2 0xB91 PUSH2 0x15F9 JUMP JUMPDEST JUMPDEST PUSH1 0x20 MUL PUSH1 0x20 ADD ADD DUP2 SWAP1 MSTORE POP PUSH1 0x40 MLOAD DUP1 PUSH1 0x60 ADD PUSH1 0x40 MSTORE DUP1 PUSH1 0x40 MLOAD DUP1 PUSH1 0x40 ADD PUSH1 0x40 MSTORE DUP1 PUSH1 0x12 DUP2 MSTORE PUSH1 0x20 ADD PUSH32 0x73656C65637465645F76616C696461746F720000000000000000000000000000 DUP2 MSTORE POP DUP2 MSTORE PUSH1 0x20 ADD PUSH1 0x40 MLOAD DUP1 PUSH1 0x40 ADD PUSH1 0x40 MSTORE DUP1 PUSH1 0x6 DUP2 MSTORE PUSH1 0x20 ADD PUSH32 0x737472696E670000000000000000000000000000000000000000000000000000 DUP2 MSTORE POP DUP2 MSTORE PUSH1 0x20 ADD DUP7 DUP7 PUSH1 0x40 MLOAD PUSH1 0x20 ADD PUSH2 0xC31 SWAP3 SWAP2 SWAP1 PUSH2 0x16DE JUMP JUMPDEST PUSH1 0x40 MLOAD PUSH1 0x20 DUP2 DUP4 SUB SUB DUP2 MSTORE SWAP1 PUSH1 0x40 MSTORE DUP2 MSTORE POP DUP2 PUSH1 0x4 DUP2 MLOAD DUP2 LT PUSH2 0xC57 JUMPI PUSH2 0xC56 PUSH2 0x15F9 JUMP JUMPDEST JUMPDEST PUSH1 0x20 MUL PUSH1 0x20 ADD ADD DUP2 SWAP1 MSTORE POP PUSH1 0x40 MLOAD DUP1 PUSH1 0x60 ADD PUSH1 0x40 MSTORE DUP1 PUSH1 0x40 MLOAD DUP1 PUSH1 0x40 ADD PUSH1 0x40 MSTORE DUP1 PUSH1 0x6 DUP2 MSTORE PUSH1 0x20 ADD PUSH32 0x78705F7461780000000000000000000000000000000000000000000000000000 DUP2 MSTORE POP DUP2 MSTORE PUSH1 0x20 ADD PUSH1 0x40 MLOAD DUP1 PUSH1 0x40 ADD PUSH1 0x40 MSTORE DUP1 PUSH1 0x6 DUP2 MSTORE PUSH1 0x20 ADD PUSH32 0x75696E7436340000000000000000000000000000000000000000000000000000 DUP2 MSTORE POP DUP2 MSTORE PUSH1 0x20 ADD DUP5 PUSH1 0x40 MLOAD PUSH1 0x20 ADD PUSH2 0xCF4 SWAP2 SWAP1 PUSH2 0x19F7 JUMP JUMPDEST PUSH1 0x40 MLOAD PUSH1 0x20 DUP2 DUP4 SUB SUB DUP2 MSTORE SWAP1 PUSH1 0x40 MSTORE DUP2 MSTORE POP DUP2 PUSH1 0x5 DUP2 MLOAD DUP2 LT PUSH2 0xD1A JUMPI PUSH2 0xD19 PUSH2 0x15F9 JUMP JUMPDEST JUMPDEST PUSH1 0x20 MUL PUSH1 0x20 ADD ADD DUP2 SWAP1 MSTORE POP PUSH1 0x40 MLOAD DUP1 PUSH1 0x60 ADD PUSH1 0x40 MSTORE DUP1 PUSH1 0x40 MLOAD DUP1 PUSH1 0x40 ADD PUSH1 0x40 MSTORE DUP1 PUSH1 0x7 DUP2 MSTORE PUSH1 0x20 ADD PUSH32 0x6665655F74617800000000000000000000000000000000000000000000000000 DUP2 MSTORE POP DUP2 MSTORE PUSH1 0x20 ADD PUSH1 0x40 MLOAD DUP1 PUSH1 0x40 ADD PUSH1 0x40 MSTORE DUP1 PUSH1 0x6 DUP2 MSTORE PUSH1 0x20 ADD PUSH32 0x75696E7436340000000000000000000000000000000000000000000000000000 DUP2 MSTORE POP DUP2 MSTORE PUSH1 0x20 ADD DUP4 PUSH1 0x40 MLOAD PUSH1 0x20 ADD PUSH2 0xDB7 SWAP2 SWAP1 PUSH2 0x19F7 JUMP JUMPDEST PUSH1 0x40 MLOAD PUSH1 0x20 DUP2 DUP4 SUB SUB DUP2 MSTORE SWAP1 PUSH1 0x40 MSTORE DUP2 MSTORE POP DUP2 PUSH1 0x6 DUP2 MLOAD DUP2 LT PUSH2 0xDDD JUMPI PUSH2 0xDDC PUSH2 0x15F9 JUMP JUMPDEST JUMPDEST PUSH1 0x20 MUL PUSH1 0x20 ADD ADD DUP2 SWAP1 MSTORE POP PUSH32 0x0 PUSH20 0xFFFFFFFFFFFFFFFFFFFFFFFFFFFFFFFFFFFFFFFF AND PUSH4 0x7D64FA9B DUP3 PUSH1 0x40 MLOAD DUP3 PUSH4 0xFFFFFFFF AND PUSH1 0xE0 SHL DUP2 MSTORE PUSH1 0x4 ADD PUSH2 0xE41 SWAP2 SWAP1 PUSH2 0x1A5A JUMP JUMPDEST PUSH0 PUSH1 0x40 MLOAD DUP1 DUP4 SUB DUP2 PUSH0 DUP8 DUP1 EXTCODESIZE ISZERO DUP1 ISZERO PUSH2 0xE58 JUMPI PUSH0 PUSH0 REVERT JUMPDEST POP GAS CALL ISZERO DUP1 ISZERO PUSH2 0xE6A JUMPI RETURNDATASIZE PUSH0 PUSH0 RETURNDATACOPY RETURNDATASIZE PUSH0 REVERT JUMPDEST POP POP POP POP POP POP POP POP POP POP POP POP POP POP POP JUMP JUMPDEST PUSH0 PUSH1 0x3 PUSH8 0xFFFFFFFFFFFFFFFF DUP2 GT ISZERO PUSH2 0xE97 JUMPI PUSH2 0xE96 PUSH2 0x1593 JUMP JUMPDEST JUMPDEST PUSH1 0x40 MLOAD SWAP1 DUP1 DUP3 MSTORE DUP1 PUSH1 0x20 MUL PUSH1 0x20 ADD DUP3 ADD PUSH1 0x40 MSTORE DUP1 ISZERO PUSH2 0xED0 JUMPI DUP2 PUSH1 0x20 ADD JUMPDEST PUSH2 0xEBD PUSH2 0x11AC JUMP JUMPDEST DUP2 MSTORE PUSH1 0x20 ADD SWAP1 PUSH1 0x1 SWAP1 SUB SWAP1 DUP2 PUSH2 0xEB5 JUMPI SWAP1 POP JUMPDEST POP SWAP1 POP PUSH1 0x40 MLOAD DUP1 PUSH1 0x60 ADD PUSH1 0x40 MSTORE DUP1 PUSH1 0x40 MLOAD DUP1 PUSH1 0x40 ADD PUSH1 0x40 MSTORE DUP1 PUSH1 0x6 DUP2 MSTORE PUSH1 0x20 ADD PUSH32 0x73656E6465720000000000000000000000000000000000000000000000000000 DUP2 MSTORE POP DUP2 MSTORE PUSH1 0x20 ADD PUSH1 0x40 MLOAD DUP1 PUSH1 0x40 ADD PUSH1 0x40 MSTORE DUP1 PUSH1 0x7 DUP2 MSTORE PUSH1 0x20 ADD PUSH32 0x6164647265737300000000000000000000000000000000000000000000000000 DUP2 MSTORE POP DUP2 MSTORE PUSH1 0x20 ADD CALLER PUSH1 0x40 MLOAD PUSH1 0x20 ADD PUSH2 0xF65 SWAP2 SWAP1 PUSH2 0x15E0 JUMP JUMPDEST PUSH1 0x40 MLOAD PUSH1 0x20 DUP2 DUP4 SUB SUB DUP2 MSTORE SWAP1 PUSH1 0x40 MSTORE DUP2 MSTORE POP DUP2 PUSH0 DUP2 MLOAD DUP2 LT PUSH2 0xF8A JUMPI PUSH2 0xF89 PUSH2 0x15F9 JUMP JUMPDEST JUMPDEST PUSH1 0x20 MUL PUSH1 0x20 ADD ADD DUP2 SWAP1 MSTORE POP PUSH1 0x40 MLOAD DUP1 PUSH1 0x60 ADD PUSH1 0x40 MSTORE DUP1 PUSH1 0x40 MLOAD DUP1 PUSH1 0x40 ADD PUSH1 0x40 MSTORE DUP1 PUSH1 0x9 DUP2 MSTORE PUSH1 0x20 ADD PUSH32 0x7375625F6F776E65720000000000000000000000000000000000000000000000 DUP2 MSTORE POP DUP2 MSTORE PUSH1 0x20 ADD PUSH1 0x40 MLOAD DUP1 PUSH1 0x40 ADD PUSH1 0x40 MSTORE DUP1 PUSH1 0x5 DUP2 MSTORE PUSH1 0x20 ADD PUSH32 0x6279746573000000000000000000000000000000000000000000000000000000 DUP2 MSTORE POP DUP2 MSTORE PUSH1 0x20 ADD DUP5 DUP5 PUSH1 0x40 MLOAD PUSH1 0x20 ADD PUSH2 0x1029 SWAP3 SWAP2 SWAP1 PUSH2 0x1680 JUMP JUMPDEST PUSH1 0x40 MLOAD PUSH1 0x20 DUP2 DUP4 SUB SUB DUP2 MSTORE SWAP1 PUSH1 0x40 MSTORE DUP2 MSTORE POP DUP2 PUSH1 0x1 DUP2 MLOAD DUP2 LT PUSH2 0x104F JUMPI PUSH2 0x104E PUSH2 0x15F9 JUMP JUMPDEST JUMPDEST PUSH1 0x20 MUL PUSH1 0x20 ADD ADD DUP2 SWAP1 MSTORE POP PUSH1 0x40 MLOAD DUP1 PUSH1 0x60 ADD PUSH1 0x40 MSTORE DUP1 PUSH1 0x40 MLOAD DUP1 PUSH1 0x40 ADD PUSH1 0x40 MSTORE DUP1 PUSH1 0x4 DUP2 MSTORE PUSH1 0x20 ADD PUSH32 0x6E616D6500000000000000000000000000000000000000000000000000000000 DUP2 MSTORE POP DUP2 MSTORE PUSH1 0x20 ADD PUSH1 0x40 MLOAD DUP1 PUSH1 0x40 ADD PUSH1 0x40 MSTORE DUP1 PUSH1 0x6 DUP2 MSTORE PUSH1 0x20 ADD PUSH32 0x737472696E670000000000000000000000000000000000000000000000000000 DUP2 MSTORE POP DUP2 MSTORE PUSH1 0x20 ADD DUP7 DUP7 PUSH1 0x40 MLOAD PUSH1 0x20 ADD PUSH2 0x10EE SWAP3 SWAP2 SWAP1 PUSH2 0x16DE JUMP JUMPDEST PUSH1 0x40 MLOAD PUSH1 0x20 DUP2 DUP4 SUB SUB DUP2 MSTORE SWAP1 PUSH1 0x40 MSTORE DUP2 MSTORE POP DUP2 PUSH1 0x2 DUP2 MLOAD DUP2 LT PUSH2 0x1114 JUMPI PUSH2 0x1113 PUSH2 0x15F9 JUMP JUMPDEST JUMPDEST PUSH1 0x20 MUL PUSH1 0x20 ADD ADD DUP2 SWAP1 MSTORE POP PUSH32 0x0 PUSH20 0xFFFFFFFFFFFFFFFFFFFFFFFFFFFFFFFFFFFFFFFF AND PUSH4 0x7D64FA9B DUP3 PUSH1 0x40 MLOAD DUP3 PUSH4 0xFFFFFFFF AND PUSH1 0xE0 SHL DUP2 MSTORE PUSH1 0x4 ADD PUSH2 0x1178 SWAP2 SWAP1 PUSH2 0x1AFD JUMP JUMPDEST PUSH0 PUSH1 0x40 MLOAD DUP1 DUP4 SUB DUP2 PUSH0 DUP8 DUP1 EXTCODESIZE ISZERO DUP1 ISZERO PUSH2 0x118F JUMPI PUSH0 PUSH0 REVERT JUMPDEST POP GAS CALL ISZERO DUP1 ISZERO PUSH2 0x11A1 JUMPI RETURNDATASIZE PUSH0 PUSH0 RETURNDATACOPY RETURNDATASIZE PUSH0 REVERT JUMPDEST POP POP POP POP POP POP POP POP POP JUMP JUMPDEST PUSH1 0x40 MLOAD DUP1 PUSH1 0x60 ADD PUSH1 0x40 MSTORE DUP1 PUSH1 0x60 DUP2 MSTORE PUSH1 0x20 ADD PUSH1 0x60 DUP2 MSTORE PUSH1 0x20 ADD PUSH1 0x60 DUP2 MSTORE POP SWAP1 JUMP JUMPDEST PUSH0 PUSH0 REVERT JUMPDEST PUSH0 PUSH0 REVERT JUMPDEST PUSH0 PUSH0 REVERT JUMPDEST PUSH0 PUSH0 REVERT JUMPDEST PUSH0 PUSH0 REVERT JUMPDEST PUSH0 PUSH0 DUP4 PUSH1 0x1F DUP5 ADD SLT PUSH2 0x11F6 JUMPI PUSH2 0x11F5 PUSH2 0x11D5 JUMP JUMPDEST JUMPDEST DUP3 CALLDATALOAD SWAP1 POP PUSH8 0xFFFFFFFFFFFFFFFF DUP2 GT ISZERO PUSH2 0x1213 JUMPI PUSH2 0x1212 PUSH2 0x11D9 JUMP JUMPDEST JUMPDEST PUSH1 0x20 DUP4 ADD SWAP2 POP DUP4 PUSH1 0x1 DUP3 MUL DUP4 ADD GT ISZERO PUSH2 0x122F JUMPI PUSH2 0x122E PUSH2 0x11DD JUMP JUMPDEST JUMPDEST SWAP3 POP SWAP3 SWAP1 POP JUMP JUMPDEST PUSH0 PUSH0 DUP4 PUSH1 0x1F DUP5 ADD SLT PUSH2 0x124B JUMPI PUSH2 0x124A PUSH2 0x11D5 JUMP JUMPDEST JUMPDEST DUP3 CALLDATALOAD SWAP1 POP PUSH8 0xFFFFFFFFFFFFFFFF DUP2 GT ISZERO PUSH2 0x1268 JUMPI PUSH2 0x1267 PUSH2 0x11D9 JUMP JUMPDEST JUMPDEST PUSH1 0x20 DUP4 ADD SWAP2 POP DUP4 PUSH1 0x1 DUP3 MUL DUP4 ADD GT ISZERO PUSH2 0x1284 JUMPI PUSH2 0x1283 PUSH2 0x11DD JUMP JUMPDEST JUMPDEST SWAP3 POP SWAP3 SWAP1 POP JUMP JUMPDEST PUSH0 PUSH0 PUSH0 PUSH0 PUSH0 PUSH0 PUSH1 0x60 DUP8 DUP10 SUB SLT ISZERO PUSH2 0x12A5 JUMPI PUSH2 0x12A4 PUSH2 0x11CD JUMP JUMPDEST JUMPDEST PUSH0 DUP8 ADD CALLDATALOAD PUSH8 0xFFFFFFFFFFFFFFFF DUP2 GT ISZERO PUSH2 0x12C2 JUMPI PUSH2 0x12C1 PUSH2 0x11D1 JUMP JUMPDEST JUMPDEST PUSH2 0x12CE DUP10 DUP3 DUP11 ADD PUSH2 0x11E1 JUMP JUMPDEST SWAP7 POP SWAP7 POP POP PUSH1 0x20 DUP8 ADD CALLDATALOAD PUSH8 0xFFFFFFFFFFFFFFFF DUP2 GT ISZERO PUSH2 0x12F1 JUMPI PUSH2 0x12F0 PUSH2 0x11D1 JUMP JUMPDEST JUMPDEST PUSH2 0x12FD DUP10 DUP3 DUP11 ADD PUSH2 0x1236 JUMP JUMPDEST SWAP5 POP SWAP5 POP POP PUSH1 0x40 DUP8 ADD CALLDATALOAD PUSH8 0xFFFFFFFFFFFFFFFF DUP2 GT ISZERO PUSH2 0x1320 JUMPI PUSH2 0x131F PUSH2 0x11D1 JUMP JUMPDEST JUMPDEST PUSH2 0x132C DUP10 DUP3 DUP11 ADD PUSH2 0x11E1 JUMP JUMPDEST SWAP3 POP SWAP3 POP POP SWAP3 SWAP6 POP SWAP3 SWAP6 POP SWAP3 SWAP6 JUMP JUMPDEST PUSH0 PUSH0 PUSH0 PUSH0 PUSH1 0x40 DUP6 DUP8 SUB SLT ISZERO PUSH2 0x1353 JUMPI PUSH2 0x1352 PUSH2 0x11CD JUMP JUMPDEST JUMPDEST PUSH0 DUP6 ADD CALLDATALOAD PUSH8 0xFFFFFFFFFFFFFFFF DUP2 GT ISZERO PUSH2 0x1370 JUMPI PUSH2 0x136F PUSH2 0x11D1 JUMP JUMPDEST JUMPDEST PUSH2 0x137C DUP8 DUP3 DUP9 ADD PUSH2 0x11E1 JUMP JUMPDEST SWAP5 POP SWAP5 POP POP PUSH1 0x20 DUP6 ADD CALLDATALOAD PUSH8 0xFFFFFFFFFFFFFFFF DUP2 GT ISZERO PUSH2 0x139F JUMPI PUSH2 0x139E PUSH2 0x11D1 JUMP JUMPDEST JUMPDEST PUSH2 0x13AB DUP8 DUP3 DUP9 ADD PUSH2 0x1236 JUMP JUMPDEST SWAP3 POP SWAP3 POP POP SWAP3 SWAP6 SWAP2 SWAP5 POP SWAP3 POP JUMP JUMPDEST PUSH0 PUSH20 0xFFFFFFFFFFFFFFFFFFFFFFFFFFFFFFFFFFFFFFFF DUP3 AND SWAP1 POP SWAP2 SWAP1 POP JUMP JUMPDEST PUSH0 DUP2 SWAP1 POP SWAP2 SWAP1 POP JUMP JUMPDEST PUSH0 PUSH2 0x13FB PUSH2 0x13F6 PUSH2 0x13F1 DUP5 PUSH2 0x13B9 JUMP JUMPDEST PUSH2 0x13D8 JUMP JUMPDEST PUSH2 0x13B9 JUMP JUMPDEST SWAP1 POP SWAP2 SWAP1 POP JUMP JUMPDEST PUSH0 PUSH2 0x140C DUP3 PUSH2 0x13E1 JUMP JUMPDEST SWAP1 POP SWAP2 SWAP1 POP JUMP JUMPDEST PUSH0 PUSH2 0x141D DUP3 PUSH2 0x1402 JUMP JUMPDEST SWAP1 POP SWAP2 SWAP1 POP JUMP JUMPDEST PUSH2 0x142D DUP2 PUSH2 0x1413 JUMP JUMPDEST DUP3 MSTORE POP POP JUMP JUMPDEST PUSH0 PUSH1 0x20 DUP3 ADD SWAP1 POP PUSH2 0x1446 PUSH0 DUP4 ADD DUP5 PUSH2 0x1424 JUMP JUMPDEST SWAP3 SWAP2 POP POP JUMP JUMPDEST PUSH0 PUSH8 0xFFFFFFFFFFFFFFFF DUP3 AND SWAP1 POP SWAP2 SWAP1 POP JUMP JUMPDEST PUSH2 0x1468 DUP2 PUSH2 0x144C JUMP JUMPDEST DUP2 EQ PUSH2 0x1472 JUMPI PUSH0 PUSH0 REVERT JUMPDEST POP JUMP JUMPDEST PUSH0 DUP2 CALLDATALOAD SWAP1 POP PUSH2 0x1483 DUP2 PUSH2 0x145F JUMP JUMPDEST SWAP3 SWAP2 POP POP JUMP JUMPDEST PUSH0 PUSH0 PUSH0 PUSH0 PUSH0 PUSH0 PUSH0 PUSH0 PUSH0 PUSH0 PUSH1 0xC0 DUP12 DUP14 SUB SLT ISZERO PUSH2 0x14A7 JUMPI PUSH2 0x14A6 PUSH2 0x11CD JUMP JUMPDEST JUMPDEST PUSH0 DUP12 ADD CALLDATALOAD PUSH8 0xFFFFFFFFFFFFFFFF DUP2 GT ISZERO PUSH2 0x14C4 JUMPI PUSH2 0x14C3 PUSH2 0x11D1 JUMP JUMPDEST JUMPDEST PUSH2 0x14D0 DUP14 DUP3 DUP15 ADD PUSH2 0x11E1 JUMP JUMPDEST SWAP11 POP SWAP11 POP POP PUSH1 0x20 DUP12 ADD CALLDATALOAD PUSH8 0xFFFFFFFFFFFFFFFF DUP2 GT ISZERO PUSH2 0x14F3 JUMPI PUSH2 0x14F2 PUSH2 0x11D1 JUMP JUMPDEST JUMPDEST PUSH2 0x14FF DUP14 DUP3 DUP15 ADD PUSH2 0x11E1 JUMP JUMPDEST SWAP9 POP SWAP9 POP POP PUSH1 0x40 DUP12 ADD CALLDATALOAD PUSH8 0xFFFFFFFFFFFFFFFF DUP2 GT ISZERO PUSH2 0x1522 JUMPI PUSH2 0x1521 PUSH2 0x11D1 JUMP JUMPDEST JUMPDEST PUSH2 0x152E DUP14 DUP3 DUP15 ADD PUSH2 0x11E1 JUMP JUMPDEST SWAP7 POP SWAP7 POP POP PUSH1 0x60 DUP12 ADD CALLDATALOAD PUSH8 0xFFFFFFFFFFFFFFFF DUP2 GT ISZERO PUSH2 0x1551 JUMPI PUSH2 0x1550 PUSH2 0x11D1 JUMP JUMPDEST JUMPDEST PUSH2 0x155D DUP14 DUP3 DUP15 ADD PUSH2 0x11E1 JUMP JUMPDEST SWAP5 POP SWAP5 POP POP PUSH1 0x80 PUSH2 0x1570 DUP14 DUP3 DUP15 ADD PUSH2 0x1475 JUMP JUMPDEST SWAP3 POP POP PUSH1 0xA0 PUSH2 0x1581 DUP14 DUP3 DUP15 ADD PUSH2 0x1475 JUMP JUMPDEST SWAP2 POP POP SWAP3 SWAP6 SWAP9 SWAP12 SWAP2 SWAP5 SWAP8 SWAP11 POP SWAP3 SWAP6 SWAP9 POP JUMP JUMPDEST PUSH32 0x4E487B7100000000000000000000000000000000000000000000000000000000 PUSH0 MSTORE PUSH1 0x41 PUSH1 0x4 MSTORE PUSH1 0x24 PUSH0 REVERT JUMPDEST PUSH0 PUSH2 0x15CA DUP3 PUSH2 0x13B9 JUMP JUMPDEST SWAP1 POP SWAP2 SWAP1 POP JUMP JUMPDEST PUSH2 0x15DA DUP2 PUSH2 0x15C0 JUMP JUMPDEST DUP3 MSTORE POP POP JUMP JUMPDEST PUSH0 PUSH1 0x20 DUP3 ADD SWAP1 POP PUSH2 0x15F3 PUSH0 DUP4 ADD DUP5 PUSH2 0x15D1 JUMP JUMPDEST SWAP3 SWAP2 POP POP JUMP JUMPDEST PUSH32 0x4E487B7100000000000000000000000000000000000000000000000000000000 PUSH0 MSTORE PUSH1 0x32 PUSH1 0x4 MSTORE PUSH1 0x24 PUSH0 REVERT JUMPDEST PUSH0 DUP3 DUP3 MSTORE PUSH1 0x20 DUP3 ADD SWAP1 POP SWAP3 SWAP2 POP POP JUMP JUMPDEST DUP3 DUP2 DUP4 CALLDATACOPY PUSH0 DUP4 DUP4 ADD MSTORE POP POP POP JUMP JUMPDEST PUSH0 PUSH1 0x1F NOT PUSH1 0x1F DUP4 ADD AND SWAP1 POP SWAP2 SWAP1 POP JUMP JUMPDEST PUSH0 PUSH2 0x165F DUP4 DUP6 PUSH2 0x1626 JUMP JUMPDEST SWAP4 POP PUSH2 0x166C DUP4 DUP6 DUP5 PUSH2 0x1636 JUMP JUMPDEST PUSH2 0x1675 DUP4 PUSH2 0x1644 JUMP JUMPDEST DUP5 ADD SWAP1 POP SWAP4 SWAP3 POP POP POP JUMP JUMPDEST PUSH0 PUSH1 0x20 DUP3 ADD SWAP1 POP DUP2 DUP2 SUB PUSH0 DUP4 ADD MSTORE PUSH2 0x1699 DUP2 DUP5 DUP7 PUSH2 0x1654 JUMP JUMPDEST SWAP1 POP SWAP4 SWAP3 POP POP POP JUMP JUMPDEST PUSH0 DUP3 DUP3 MSTORE PUSH1 0x20 DUP3 ADD SWAP1 POP SWAP3 SWAP2 POP POP JUMP JUMPDEST PUSH0 PUSH2 0x16BD DUP4 DUP6 PUSH2 0x16A2 JUMP JUMPDEST SWAP4 POP PUSH2 0x16CA DUP4 DUP6 DUP5 PUSH2 0x1636 JUMP JUMPDEST PUSH2 0x16D3 DUP4 PUSH2 0x1644 JUMP JUMPDEST DUP5 ADD SWAP1 POP SWAP4 SWAP3 POP POP POP JUMP JUMPDEST PUSH0 PUSH1 0x20 DUP3 ADD SWAP1 POP DUP2 DUP2 SUB PUSH0 DUP4 ADD MSTORE PUSH2 0x16F7 DUP2 DUP5 DUP7 PUSH2 0x16B2 JUMP JUMPDEST SWAP1 POP SWAP4 SWAP3 POP POP POP JUMP JUMPDEST PUSH32 0x4D6F64756C61722053746F7261676520557365642052656620436F6465205570 PUSH0 DUP3 ADD MSTORE PUSH32 0x6461746564000000000000000000000000000000000000000000000000000000 PUSH1 0x20 DUP3 ADD MSTORE POP JUMP JUMPDEST PUSH0 PUSH2 0x175A PUSH1 0x25 DUP4 PUSH2 0x16A2 JUMP JUMPDEST SWAP2 POP PUSH2 0x1765 DUP3 PUSH2 0x1700 JUMP JUMPDEST PUSH1 0x40 DUP3 ADD SWAP1 POP SWAP2 SWAP1 POP JUMP JUMPDEST PUSH0 DUP2 MLOAD SWAP1 POP SWAP2 SWAP1 POP JUMP JUMPDEST PUSH0 DUP3 DUP3 MSTORE PUSH1 0x20 DUP3 ADD SWAP1 POP SWAP3 SWAP2 POP POP JUMP JUMPDEST PUSH0 DUP2 SWAP1 POP PUSH1 0x20 DUP3 ADD SWAP1 POP SWAP2 SWAP1 POP JUMP JUMPDEST PUSH0 DUP2 MLOAD SWAP1 POP SWAP2 SWAP1 POP JUMP JUMPDEST PUSH0 DUP3 DUP3 MSTORE PUSH1 0x20 DUP3 ADD SWAP1 POP SWAP3 SWAP2 POP POP JUMP JUMPDEST DUP3 DUP2 DUP4 MCOPY PUSH0 DUP4 DUP4 ADD MSTORE POP POP POP JUMP JUMPDEST PUSH0 PUSH2 0x17CB DUP3 PUSH2 0x1799 JUMP JUMPDEST PUSH2 0x17D5 DUP2 DUP6 PUSH2 0x17A3 JUMP JUMPDEST SWAP4 POP PUSH2 0x17E5 DUP2 DUP6 PUSH1 0x20 DUP7 ADD PUSH2 0x17B3 JUMP JUMPDEST PUSH2 0x17EE DUP2 PUSH2 0x1644 JUMP JUMPDEST DUP5 ADD SWAP2 POP POP SWAP3 SWAP2 POP POP JUMP JUMPDEST PUSH0 DUP2 MLOAD SWAP1 POP SWAP2 SWAP1 POP JUMP JUMPDEST PUSH0 DUP3 DUP3 MSTORE PUSH1 0x20 DUP3 ADD SWAP1 POP SWAP3 SWAP2 POP POP JUMP JUMPDEST PUSH0 PUSH2 0x181D DUP3 PUSH2 0x17F9 JUMP JUMPDEST PUSH2 0x1827 DUP2 DUP6 PUSH2 0x1803 JUMP JUMPDEST SWAP4 POP PUSH2 0x1837 DUP2 DUP6 PUSH1 0x20 DUP7 ADD PUSH2 0x17B3 JUMP JUMPDEST PUSH2 0x1840 DUP2 PUSH2 0x1644 JUMP JUMPDEST DUP5 ADD SWAP2 POP POP SWAP3 SWAP2 POP POP JUMP JUMPDEST PUSH0 PUSH1 0x60 DUP4 ADD PUSH0 DUP4 ADD MLOAD DUP5 DUP3 SUB PUSH0 DUP7 ADD MSTORE PUSH2 0x1865 DUP3 DUP3 PUSH2 0x17C1 JUMP JUMPDEST SWAP2 POP POP PUSH1 0x20 DUP4 ADD MLOAD DUP5 DUP3 SUB PUSH1 0x20 DUP7 ADD MSTORE PUSH2 0x187F DUP3 DUP3 PUSH2 0x17C1 JUMP JUMPDEST SWAP2 POP POP PUSH1 0x40 DUP4 ADD MLOAD DUP5 DUP3 SUB PUSH1 0x40 DUP7 ADD MSTORE PUSH2 0x1899 DUP3 DUP3 PUSH2 0x1813 JUMP JUMPDEST SWAP2 POP POP DUP1 SWAP2 POP POP SWAP3 SWAP2 POP POP JUMP JUMPDEST PUSH0 PUSH2 0x18B1 DUP4 DUP4 PUSH2 0x184B JUMP JUMPDEST SWAP1 POP SWAP3 SWAP2 POP POP JUMP JUMPDEST PUSH0 PUSH1 0x20 DUP3 ADD SWAP1 POP SWAP2 SWAP1 POP JUMP JUMPDEST PUSH0 PUSH2 0x18CF DUP3 PUSH2 0x1770 JUMP JUMPDEST PUSH2 0x18D9 DUP2 DUP6 PUSH2 0x177A JUMP JUMPDEST SWAP4 POP DUP4 PUSH1 0x20 DUP3 MUL DUP6 ADD PUSH2 0x18EB DUP6 PUSH2 0x178A JUMP JUMPDEST DUP1 PUSH0 JUMPDEST DUP6 DUP2 LT ISZERO PUSH2 0x1926 JUMPI DUP5 DUP5 SUB DUP10 MSTORE DUP2 MLOAD PUSH2 0x1907 DUP6 DUP3 PUSH2 0x18A6 JUMP JUMPDEST SWAP5 POP PUSH2 0x1912 DUP4 PUSH2 0x18B9 JUMP JUMPDEST SWAP3 POP PUSH1 0x20 DUP11 ADD SWAP10 POP POP PUSH1 0x1 DUP2 ADD SWAP1 POP PUSH2 0x18EE JUMP JUMPDEST POP DUP3 SWAP8 POP DUP8 SWAP6 POP POP POP POP POP POP SWAP3 SWAP2 POP POP JUMP JUMPDEST PUSH0 PUSH1 0x40 DUP3 ADD SWAP1 POP DUP2 DUP2 SUB PUSH0 DUP4 ADD MSTORE PUSH2 0x194F DUP2 PUSH2 0x174E JUMP JUMPDEST SWAP1 POP DUP2 DUP2 SUB PUSH1 0x20 DUP4 ADD MSTORE PUSH2 0x1963 DUP2 DUP5 PUSH2 0x18C5 JUMP JUMPDEST SWAP1 POP SWAP3 SWAP2 POP POP JUMP JUMPDEST PUSH32 0x4D6F64756C61722053746F7261676520537562204F776E657220416464656400 PUSH0 DUP3 ADD MSTORE POP JUMP JUMPDEST PUSH0 PUSH2 0x199F PUSH1 0x1F DUP4 PUSH2 0x16A2 JUMP JUMPDEST SWAP2 POP PUSH2 0x19AA DUP3 PUSH2 0x196B JUMP JUMPDEST PUSH1 0x20 DUP3 ADD SWAP1 POP SWAP2 SWAP1 POP JUMP JUMPDEST PUSH0 PUSH1 0x40 DUP3 ADD SWAP1 POP DUP2 DUP2 SUB PUSH0 DUP4 ADD MSTORE PUSH2 0x19CC DUP2 PUSH2 0x1993 JUMP JUMPDEST SWAP1 POP DUP2 DUP2 SUB PUSH1 0x20 DUP4 ADD MSTORE PUSH2 0x19E0 DUP2 DUP5 PUSH2 0x18C5 JUMP JUMPDEST SWAP1 POP SWAP3 SWAP2 POP POP JUMP JUMPDEST PUSH2 0x19F1 DUP2 PUSH2 0x144C JUMP JUMPDEST DUP3 MSTORE POP POP JUMP JUMPDEST PUSH0 PUSH1 0x20 DUP3 ADD SWAP1 POP PUSH2 0x1A0A PUSH0 DUP4 ADD DUP5 PUSH2 0x19E8 JUMP JUMPDEST SWAP3 SWAP2 POP POP JUMP JUMPDEST PUSH32 0x4D6F64756C61722053746F72616765204372656174696F6E0000000000000000 PUSH0 DUP3 ADD MSTORE POP JUMP JUMPDEST PUSH0 PUSH2 0x1A44 PUSH1 0x18 DUP4 PUSH2 0x16A2 JUMP JUMPDEST SWAP2 POP PUSH2 0x1A4F DUP3 PUSH2 0x1A10 JUMP JUMPDEST PUSH1 0x20 DUP3 ADD SWAP1 POP SWAP2 SWAP1 POP JUMP JUMPDEST PUSH0 PUSH1 0x40 DUP3 ADD SWAP1 POP DUP2 DUP2 SUB PUSH0 DUP4 ADD MSTORE PUSH2 0x1A71 DUP2 PUSH2 0x1A38 JUMP JUMPDEST SWAP1 POP DUP2 DUP2 SUB PUSH1 0x20 DUP4 ADD MSTORE PUSH2 0x1A85 DUP2 DUP5 PUSH2 0x18C5 JUMP JUMPDEST SWAP1 POP SWAP3 SWAP2 POP POP JUMP JUMPDEST PUSH32 0x4D6F64756C61722053746F7261676520537562204F776E65722052656D6F7665 PUSH0 DUP3 ADD MSTORE PUSH32 0x6400000000000000000000000000000000000000000000000000000000000000 PUSH1 0x20 DUP3 ADD MSTORE POP JUMP JUMPDEST PUSH0 PUSH2 0x1AE7 PUSH1 0x21 DUP4 PUSH2 0x16A2 JUMP JUMPDEST SWAP2 POP PUSH2 0x1AF2 DUP3 PUSH2 0x1A8D JUMP JUMPDEST PUSH1 0x40 DUP3 ADD SWAP1 POP SWAP2 SWAP1 POP JUMP JUMPDEST PUSH0 PUSH1 0x40 DUP3 ADD SWAP1 POP DUP2 DUP2 SUB PUSH0 DUP4 ADD MSTORE PUSH2 0x1B14 DUP2 PUSH2 0x1ADB JUMP JUMPDEST SWAP1 POP DUP2 DUP2 SUB PUSH1 0x20 DUP4 ADD MSTORE PUSH2 0x1B28 DUP2 DUP5 PUSH2 0x18C5 JUMP JUMPDEST SWAP1 POP SWAP3 SWAP2 POP POP JUMP INVALID LOG2 PUSH5 0x6970667358 0x22 SLT KECCAK256 SWAP11 CALLDATALOAD JUMP 0x24 0xD3 SMOD 0xBC 0xB2 RETURN EQ 0xC1 LOG4 SLOAD 0xFC 0xC6 0xC4 0xD5 0xC1 CALLER CALL PUSH22 0xA8BFA646C947673579ED6F64736F6C634300081F0033 "
				},
				"gasEstimates": {
					"creation": {
						"codeDepositCost": "1402800",
						"executionCost": "infinite",
						"totalCost": "infinite"
					},
					"external": {
						"events()": "infinite",
						"m_create_shared_storage(string,string,string,string,uint64,uint64)": "infinite",
						"p_allow_sub_owner(string,bytes)": "infinite",
						"p_change_used_ref_code(string,bytes,string)": "infinite",
						"p_remove_sub_owner(string,bytes)": "infinite"
					}
				},
				"methodIdentifiers": {
					"events()": "b5f8558c",
					"m_create_shared_storage(string,string,string,string,uint64,uint64)": "e9c1681f",
					"p_allow_sub_owner(string,bytes)": "b268d27a",
					"p_change_used_ref_code(string,bytes,string)": "4882beff",
					"p_remove_sub_owner(string,bytes)": "edb57606"
				}
			},
			"storageLayout": {
				"storage": [],
				"types": null
			},
			"userdoc": {
				"kind": "user",
				"methods": {},
				"version": 1
			}
		}
	}
}