{
	"Evm/core/base/vault.sol": {
		"QiaraMultiAssetVault": {
			"abi": [
				{
					"inputs": [
						{
							"internalType": "address",
							"name": "_events",
							"type": "address"
						},
						{
							"internalType": "address",
							"name": "_variablesRegistry",
							"type": "address"
						},
						{
							"internalType": "address",
							"name": "delegator",
							"type": "address"
						},
						{
							"internalType": "string",
							"name": "_providerName",
							"type": "string"
						}
					],
					"stateMutability": "nonpayable",
					"type": "constructor"
				},
				{
					"inputs": [
						{
							"internalType": "address",
							"name": "owner",
							"type": "address"
						}
					],
					"name": "OwnableInvalidOwner",
					"type": "error"
				},
				{
					"inputs": [
						{
							"internalType": "address",
							"name": "account",
							"type": "address"
						}
					],
					"name": "OwnableUnauthorizedAccount",
					"type": "error"
				},
				{
					"inputs": [
						{
							"internalType": "address",
							"name": "token",
							"type": "address"
						}
					],
					"name": "SafeERC20FailedOperation",
					"type": "error"
				},
				{
					"anonymous": false,
					"inputs": [
						{
							"indexed": true,
							"internalType": "address",
							"name": "user",
							"type": "address"
						},
						{
							"indexed": true,
							"internalType": "address",
							"name": "token",
							"type": "address"
						},
						{
							"indexed": false,
							"internalType": "uint256",
							"name": "amount",
							"type": "uint256"
						},
						{
							"indexed": false,
							"internalType": "string",
							"name": "provider",
							"type": "string"
						}
					],
					"name": "Deposit",
					"type": "event"
				},
				{
					"anonymous": false,
					"inputs": [
						{
							"indexed": true,
							"internalType": "address",
							"name": "previousOwner",
							"type": "address"
						},
						{
							"indexed": true,
							"internalType": "address",
							"name": "newOwner",
							"type": "address"
						}
					],
					"name": "OwnershipTransferred",
					"type": "event"
				},
				{
					"anonymous": false,
					"inputs": [
						{
							"indexed": true,
							"internalType": "address",
							"name": "token",
							"type": "address"
						},
						{
							"indexed": false,
							"internalType": "string",
							"name": "provider",
							"type": "string"
						}
					],
					"name": "TokenListed",
					"type": "event"
				},
				{
					"inputs": [
						{
							"internalType": "address",
							"name": "",
							"type": "address"
						},
						{
							"internalType": "address",
							"name": "",
							"type": "address"
						}
					],
					"name": "claimableBalances",
					"outputs": [
						{
							"internalType": "uint256",
							"name": "",
							"type": "uint256"
						}
					],
					"stateMutability": "view",
					"type": "function"
				},
				{
					"inputs": [
						{
							"internalType": "string",
							"name": "assetName",
							"type": "string"
						},
						{
							"internalType": "uint256",
							"name": "amount",
							"type": "uint256"
						}
					],
					"name": "deposit",
					"outputs": [],
					"stateMutability": "nonpayable",
					"type": "function"
				},
				{
					"inputs": [],
					"name": "events",
					"outputs": [
						{
							"internalType": "contract IEvents",
							"name": "",
							"type": "address"
						}
					],
					"stateMutability": "view",
					"type": "function"
				},
				{
					"inputs": [
						{
							"internalType": "address",
							"name": "user",
							"type": "address"
						},
						{
							"internalType": "string",
							"name": "assetName",
							"type": "string"
						},
						{
							"internalType": "uint256",
							"name": "amount",
							"type": "uint256"
						},
						{
							"internalType": "uint256",
							"name": "nullifier",
							"type": "uint256"
						}
					],
					"name": "grantWithdrawalPermission",
					"outputs": [],
					"stateMutability": "nonpayable",
					"type": "function"
				},
				{
					"inputs": [
						{
							"internalType": "address",
							"name": "",
							"type": "address"
						}
					],
					"name": "isSupportedToken",
					"outputs": [
						{
							"internalType": "bool",
							"name": "",
							"type": "bool"
						}
					],
					"stateMutability": "view",
					"type": "function"
				},
				{
					"inputs": [
						{
							"internalType": "string",
							"name": "assetName",
							"type": "string"
						}
					],
					"name": "listNewToken",
					"outputs": [],
					"stateMutability": "nonpayable",
					"type": "function"
				},
				{
					"inputs": [],
					"name": "owner",
					"outputs": [
						{
							"internalType": "address",
							"name": "",
							"type": "address"
						}
					],
					"stateMutability": "view",
					"type": "function"
				},
				{
					"inputs": [],
					"name": "providerName",
					"outputs": [
						{
							"internalType": "string",
							"name": "",
							"type": "string"
						}
					],
					"stateMutability": "view",
					"type": "function"
				},
				{
					"inputs": [],
					"name": "renounceOwnership",
					"outputs": [],
					"stateMutability": "nonpayable",
					"type": "function"
				},
				{
					"inputs": [
						{
							"internalType": "string",
							"name": "assetName",
							"type": "string"
						}
					],
					"name": "resolveAsset",
					"outputs": [
						{
							"internalType": "address",
							"name": "",
							"type": "address"
						}
					],
					"stateMutability": "view",
					"type": "function"
				},
				{
					"inputs": [
						{
							"internalType": "address",
							"name": "newOwner",
							"type": "address"
						}
					],
					"name": "transferOwnership",
					"outputs": [],
					"stateMutability": "nonpayable",
					"type": "function"
				},
				{
					"inputs": [],
					"name": "variablesRegistry",
					"outputs": [
						{
							"internalType": "contract IVariables",
							"name": "",
							"type": "address"
						}
					],
					"stateMutability": "view",
					"type": "function"
				},
				{
					"inputs": [
						{
							"internalType": "string",
							"name": "assetName",
							"type": "string"
						},
						{
							"internalType": "uint256",
							"name": "amount",
							"type": "uint256"
						},
						{
							"internalType": "address",
							"name": "receiver",
							"type": "address"
						}
					],
					"name": "withdraw",
					"outputs": [],
					"stateMutability": "nonpayable",
					"type": "function"
				}
			],
			"devdoc": {
				"errors": {
					"OwnableInvalidOwner(address)": [
						{
							"details": "The owner is not a valid owner account. (eg. `address(0)`)"
						}
					],
					"OwnableUnauthorizedAccount(address)": [
						{
							"details": "The caller account is not authorized to perform an operation."
						}
					],
					"SafeERC20FailedOperation(address)": [
						{
							"details": "An operation with an ERC-20 token failed."
						}
					]
				},
				"kind": "dev",
				"methods": {
					"owner()": {
						"details": "Returns the address of the current owner."
					},
					"renounceOwnership()": {
						"details": "Leaves the contract without owner. It will not be possible to call `onlyOwner` functions. Can only be called by the current owner. NOTE: Renouncing ownership will leave the contract without an owner, thereby disabling any functionality that is only available to the owner."
					},
					"resolveAsset(string)": {
						"details": "Internal helper to resolve \"USDC\" -> 0xA0b... using registry"
					},
					"transferOwnership(address)": {
						"details": "Transfers ownership of the contract to a new account (`newOwner`). Can only be called by the current owner."
					}
				},
				"version": 1
			},
			"evm": {
				"assembly": "    /* \"Evm/core/base/vault.sol\":561:5488  contract QiaraMultiAssetVault is Ownable {... */\n  mstore(0x40, 0xc0)\n    /* \"Evm/core/base/vault.sol\":1070:1383  constructor(... */\n  callvalue\n  dup1\n  iszero\n  tag_1\n  jumpi\n  revert(0x00, 0x00)\ntag_1:\n  pop\n  mload(0x40)\n  sub(codesize, bytecodeSize)\n  dup1\n  bytecodeSize\n  dup4\n  codecopy\n  dup2\n  dup2\n  add\n  0x40\n  mstore\n  dup2\n  add\n  swap1\n  tag_2\n  swap2\n  swap1\n  tag_3\n  jump\t// in\ntag_2:\n    /* \"Evm/core/base/vault.sol\":1228:1237  delegator */\n  dup2\n    /* \"@openzeppelin/contracts/access/Ownable.sol\":1297:1298  0 */\n  0x00\n    /* \"@openzeppelin/contracts/access/Ownable.sol\":1273:1299  initialOwner == address(0) */\n  0xffffffffffffffffffffffffffffffffffffffff\n  and\n    /* \"@openzeppelin/contracts/access/Ownable.sol\":1273:1285  initialOwner */\n  dup2\n    /* \"@openzeppelin/contracts/access/Ownable.sol\":1273:1299  initialOwner == address(0) */\n  0xffffffffffffffffffffffffffffffffffffffff\n  and\n  sub\n    /* \"@openzeppelin/contracts/access/Ownable.sol\":1269:1364  if (initialOwner == address(0)) {... */\n  tag_7\n  jumpi\n    /* \"@openzeppelin/contracts/access/Ownable.sol\":1350:1351  0 */\n  0x00\n    /* \"@openzeppelin/contracts/access/Ownable.sol\":1322:1353  OwnableInvalidOwner(address(0)) */\n  mload(0x40)\n  0x1e4fbdf700000000000000000000000000000000000000000000000000000000\n  dup2\n  mstore\n  0x04\n  add\n  tag_8\n  swap2\n  swap1\n  tag_9\n  jump\t// in\ntag_8:\n  mload(0x40)\n  dup1\n  swap2\n  sub\n  swap1\n  revert\n    /* \"@openzeppelin/contracts/access/Ownable.sol\":1269:1364  if (initialOwner == address(0)) {... */\ntag_7:\n    /* \"@openzeppelin/contracts/access/Ownable.sol\":1373:1405  _transferOwnership(initialOwner) */\n  tag_10\n    /* \"@openzeppelin/contracts/access/Ownable.sol\":1392:1404  initialOwner */\n  dup2\n    /* \"@openzeppelin/contracts/access/Ownable.sol\":1373:1391  _transferOwnership */\n  shl(0x20, tag_11)\n    /* \"@openzeppelin/contracts/access/Ownable.sol\":1373:1405  _transferOwnership(initialOwner) */\n  0x20\n  shr\n  jump\t// in\ntag_10:\n    /* \"@openzeppelin/contracts/access/Ownable.sol\":1225:1412  constructor(address initialOwner) {... */\n  pop\n    /* \"Evm/core/base/vault.sol\":1267:1274  _events */\n  dup4\n    /* \"Evm/core/base/vault.sol\":1250:1275  events = IEvents(_events) */\n  0xffffffffffffffffffffffffffffffffffffffff\n  and\n  0xa0\n  dup2\n  0xffffffffffffffffffffffffffffffffffffffff\n  and\n  dup2\n  mstore\n  pop\n  pop\n    /* \"Evm/core/base/vault.sol\":1317:1335  _variablesRegistry */\n  dup3\n    /* \"Evm/core/base/vault.sol\":1286:1336  variablesRegistry = IVariables(_variablesRegistry) */\n  0xffffffffffffffffffffffffffffffffffffffff\n  and\n  0x80\n  dup2\n  0xffffffffffffffffffffffffffffffffffffffff\n  and\n  dup2\n  mstore\n  pop\n  pop\n    /* \"Evm/core/base/vault.sol\":1362:1375  _providerName */\n  dup1\n    /* \"Evm/core/base/vault.sol\":1347:1359  providerName */\n  0x01\n    /* \"Evm/core/base/vault.sol\":1347:1375  providerName = _providerName */\n  swap1\n  dup2\n  tag_13\n  swap2\n  swap1\n  tag_14\n  jump\t// in\ntag_13:\n  pop\n    /* \"Evm/core/base/vault.sol\":1070:1383  constructor(... */\n  pop\n  pop\n  pop\n  pop\n    /* \"Evm/core/base/vault.sol\":561:5488  contract QiaraMultiAssetVault is Ownable {... */\n  jump(tag_15)\n    /* \"@openzeppelin/contracts/access/Ownable.sol\":2912:3099  function _transferOwnership(address newOwner) internal virtual {... */\ntag_11:\n    /* \"@openzeppelin/contracts/access/Ownable.sol\":2985:3001  address oldOwner */\n  0x00\n    /* \"@openzeppelin/contracts/access/Ownable.sol\":3004:3010  _owner */\n  0x00\n  0x00\n  swap1\n  sload\n  swap1\n  0x0100\n  exp\n  swap1\n  div\n  0xffffffffffffffffffffffffffffffffffffffff\n  and\n    /* \"@openzeppelin/contracts/access/Ownable.sol\":2985:3010  address oldOwner = _owner */\n  swap1\n  pop\n    /* \"@openzeppelin/contracts/access/Ownable.sol\":3029:3037  newOwner */\n  dup2\n    /* \"@openzeppelin/contracts/access/Ownable.sol\":3020:3026  _owner */\n  0x00\n  0x00\n    /* \"@openzeppelin/contracts/access/Ownable.sol\":3020:3037  _owner = newOwner */\n  0x0100\n  exp\n  dup2\n  sload\n  dup2\n  0xffffffffffffffffffffffffffffffffffffffff\n  mul\n  not\n  and\n  swap1\n  dup4\n  0xffffffffffffffffffffffffffffffffffffffff\n  and\n  mul\n  or\n  swap1\n  sstore\n  pop\n    /* \"@openzeppelin/contracts/access/Ownable.sol\":3083:3091  newOwner */\n  dup2\n    /* \"@openzeppelin/contracts/access/Ownable.sol\":3052:3092  OwnershipTransferred(oldOwner, newOwner) */\n  0xffffffffffffffffffffffffffffffffffffffff\n  and\n    /* \"@openzeppelin/contracts/access/Ownable.sol\":3073:3081  oldOwner */\n  dup2\n    /* \"@openzeppelin/contracts/access/Ownable.sol\":3052:3092  OwnershipTransferred(oldOwner, newOwner) */\n  0xffffffffffffffffffffffffffffffffffffffff\n  and\n  0x8be0079c531659141344cd1fd0a4f28419497f9722a3daafe3b4186f6b6457e0\n  mload(0x40)\n  mload(0x40)\n  dup1\n  swap2\n  sub\n  swap1\n  log3\n    /* \"@openzeppelin/contracts/access/Ownable.sol\":2975:3099  {... */\n  pop\n    /* \"@openzeppelin/contracts/access/Ownable.sol\":2912:3099  function _transferOwnership(address newOwner) internal virtual {... */\n  pop\n  jump\t// out\n    /* \"#utility.yul\":7:82   */\ntag_17:\n    /* \"#utility.yul\":40:46   */\n  0x00\n    /* \"#utility.yul\":73:75   */\n  0x40\n    /* \"#utility.yul\":67:76   */\n  mload\n    /* \"#utility.yul\":57:76   */\n  swap1\n  pop\n    /* \"#utility.yul\":7:82   */\n  swap1\n  jump\t// out\n    /* \"#utility.yul\":88:205   */\ntag_18:\n    /* \"#utility.yul\":197:198   */\n  0x00\n    /* \"#utility.yul\":194:195   */\n  0x00\n    /* \"#utility.yul\":187:199   */\n  revert\n    /* \"#utility.yul\":211:328   */\ntag_19:\n    /* \"#utility.yul\":320:321   */\n  0x00\n    /* \"#utility.yul\":317:318   */\n  0x00\n    /* \"#utility.yul\":310:322   */\n  revert\n    /* \"#utility.yul\":334:460   */\ntag_20:\n    /* \"#utility.yul\":371:378   */\n  0x00\n    /* \"#utility.yul\":411:453   */\n  0xffffffffffffffffffffffffffffffffffffffff\n    /* \"#utility.yul\":404:409   */\n  dup3\n    /* \"#utility.yul\":400:454   */\n  and\n    /* \"#utility.yul\":389:454   */\n  swap1\n  pop\n    /* \"#utility.yul\":334:460   */\n  swap2\n  swap1\n  pop\n  jump\t// out\n    /* \"#utility.yul\":466:562   */\ntag_21:\n    /* \"#utility.yul\":503:510   */\n  0x00\n    /* \"#utility.yul\":532:556   */\n  tag_60\n    /* \"#utility.yul\":550:555   */\n  dup3\n    /* \"#utility.yul\":532:556   */\n  tag_20\n  jump\t// in\ntag_60:\n    /* \"#utility.yul\":521:556   */\n  swap1\n  pop\n    /* \"#utility.yul\":466:562   */\n  swap2\n  swap1\n  pop\n  jump\t// out\n    /* \"#utility.yul\":568:690   */\ntag_22:\n    /* \"#utility.yul\":641:665   */\n  tag_62\n    /* \"#utility.yul\":659:664   */\n  dup2\n    /* \"#utility.yul\":641:665   */\n  tag_21\n  jump\t// in\ntag_62:\n    /* \"#utility.yul\":634:639   */\n  dup2\n    /* \"#utility.yul\":631:666   */\n  eq\n    /* \"#utility.yul\":621:684   */\n  tag_63\n  jumpi\n    /* \"#utility.yul\":680:681   */\n  0x00\n    /* \"#utility.yul\":677:678   */\n  0x00\n    /* \"#utility.yul\":670:682   */\n  revert\n    /* \"#utility.yul\":621:684   */\ntag_63:\n    /* \"#utility.yul\":568:690   */\n  pop\n  jump\t// out\n    /* \"#utility.yul\":696:839   */\ntag_23:\n    /* \"#utility.yul\":753:758   */\n  0x00\n    /* \"#utility.yul\":784:790   */\n  dup2\n    /* \"#utility.yul\":778:791   */\n  mload\n    /* \"#utility.yul\":769:791   */\n  swap1\n  pop\n    /* \"#utility.yul\":800:833   */\n  tag_65\n    /* \"#utility.yul\":827:832   */\n  dup2\n    /* \"#utility.yul\":800:833   */\n  tag_22\n  jump\t// in\ntag_65:\n    /* \"#utility.yul\":696:839   */\n  swap3\n  swap2\n  pop\n  pop\n  jump\t// out\n    /* \"#utility.yul\":845:962   */\ntag_24:\n    /* \"#utility.yul\":954:955   */\n  0x00\n    /* \"#utility.yul\":951:952   */\n  0x00\n    /* \"#utility.yul\":944:956   */\n  revert\n    /* \"#utility.yul\":968:1085   */\ntag_25:\n    /* \"#utility.yul\":1077:1078   */\n  0x00\n    /* \"#utility.yul\":1074:1075   */\n  0x00\n    /* \"#utility.yul\":1067:1079   */\n  revert\n    /* \"#utility.yul\":1091:1193   */\ntag_26:\n    /* \"#utility.yul\":1132:1138   */\n  0x00\n    /* \"#utility.yul\":1183:1185   */\n  0x1f\n    /* \"#utility.yul\":1179:1186   */\n  not\n    /* \"#utility.yul\":1174:1176   */\n  0x1f\n    /* \"#utility.yul\":1167:1172   */\n  dup4\n    /* \"#utility.yul\":1163:1177   */\n  add\n    /* \"#utility.yul\":1159:1187   */\n  and\n    /* \"#utility.yul\":1149:1187   */\n  swap1\n  pop\n    /* \"#utility.yul\":1091:1193   */\n  swap2\n  swap1\n  pop\n  jump\t// out\n    /* \"#utility.yul\":1199:1379   */\ntag_27:\n    /* \"#utility.yul\":1247:1324   */\n  0x4e487b7100000000000000000000000000000000000000000000000000000000\n    /* \"#utility.yul\":1244:1245   */\n  0x00\n    /* \"#utility.yul\":1237:1325   */\n  mstore\n    /* \"#utility.yul\":1344:1348   */\n  0x41\n    /* \"#utility.yul\":1341:1342   */\n  0x04\n    /* \"#utility.yul\":1334:1349   */\n  mstore\n    /* \"#utility.yul\":1368:1372   */\n  0x24\n    /* \"#utility.yul\":1365:1366   */\n  0x00\n    /* \"#utility.yul\":1358:1373   */\n  revert\n    /* \"#utility.yul\":1385:1666   */\ntag_28:\n    /* \"#utility.yul\":1468:1495   */\n  tag_71\n    /* \"#utility.yul\":1490:1494   */\n  dup3\n    /* \"#utility.yul\":1468:1495   */\n  tag_26\n  jump\t// in\ntag_71:\n    /* \"#utility.yul\":1460:1466   */\n  dup2\n    /* \"#utility.yul\":1456:1496   */\n  add\n    /* \"#utility.yul\":1598:1604   */\n  dup2\n    /* \"#utility.yul\":1586:1596   */\n  dup2\n    /* \"#utility.yul\":1583:1605   */\n  lt\n    /* \"#utility.yul\":1562:1580   */\n  0xffffffffffffffff\n    /* \"#utility.yul\":1550:1560   */\n  dup3\n    /* \"#utility.yul\":1547:1581   */\n  gt\n    /* \"#utility.yul\":1544:1606   */\n  or\n    /* \"#utility.yul\":1541:1629   */\n  iszero\n  tag_72\n  jumpi\n    /* \"#utility.yul\":1609:1627   */\n  tag_73\n  tag_27\n  jump\t// in\ntag_73:\n    /* \"#utility.yul\":1541:1629   */\ntag_72:\n    /* \"#utility.yul\":1649:1659   */\n  dup1\n    /* \"#utility.yul\":1645:1647   */\n  0x40\n    /* \"#utility.yul\":1638:1660   */\n  mstore\n    /* \"#utility.yul\":1428:1666   */\n  pop\n    /* \"#utility.yul\":1385:1666   */\n  pop\n  pop\n  jump\t// out\n    /* \"#utility.yul\":1672:1801   */\ntag_29:\n    /* \"#utility.yul\":1706:1712   */\n  0x00\n    /* \"#utility.yul\":1733:1753   */\n  tag_75\n  tag_17\n  jump\t// in\ntag_75:\n    /* \"#utility.yul\":1723:1753   */\n  swap1\n  pop\n    /* \"#utility.yul\":1762:1795   */\n  tag_76\n    /* \"#utility.yul\":1790:1794   */\n  dup3\n    /* \"#utility.yul\":1782:1788   */\n  dup3\n    /* \"#utility.yul\":1762:1795   */\n  tag_28\n  jump\t// in\ntag_76:\n    /* \"#utility.yul\":1672:1801   */\n  swap2\n  swap1\n  pop\n  jump\t// out\n    /* \"#utility.yul\":1807:2115   */\ntag_30:\n    /* \"#utility.yul\":1869:1873   */\n  0x00\n    /* \"#utility.yul\":1959:1977   */\n  0xffffffffffffffff\n    /* \"#utility.yul\":1951:1957   */\n  dup3\n    /* \"#utility.yul\":1948:1978   */\n  gt\n    /* \"#utility.yul\":1945:2001   */\n  iszero\n  tag_78\n  jumpi\n    /* \"#utility.yul\":1981:1999   */\n  tag_79\n  tag_27\n  jump\t// in\ntag_79:\n    /* \"#utility.yul\":1945:2001   */\ntag_78:\n    /* \"#utility.yul\":2019:2048   */\n  tag_80\n    /* \"#utility.yul\":2041:2047   */\n  dup3\n    /* \"#utility.yul\":2019:2048   */\n  tag_26\n  jump\t// in\ntag_80:\n    /* \"#utility.yul\":2011:2048   */\n  swap1\n  pop\n    /* \"#utility.yul\":2103:2107   */\n  0x20\n    /* \"#utility.yul\":2097:2101   */\n  dup2\n    /* \"#utility.yul\":2093:2108   */\n  add\n    /* \"#utility.yul\":2085:2108   */\n  swap1\n  pop\n    /* \"#utility.yul\":1807:2115   */\n  swap2\n  swap1\n  pop\n  jump\t// out\n    /* \"#utility.yul\":2121:2260   */\ntag_31:\n    /* \"#utility.yul\":2210:2216   */\n  dup3\n    /* \"#utility.yul\":2205:2208   */\n  dup2\n    /* \"#utility.yul\":2200:2203   */\n  dup4\n    /* \"#utility.yul\":2194:2217   */\n  mcopy\n    /* \"#utility.yul\":2251:2252   */\n  0x00\n    /* \"#utility.yul\":2242:2248   */\n  dup4\n    /* \"#utility.yul\":2237:2240   */\n  dup4\n    /* \"#utility.yul\":2233:2249   */\n  add\n    /* \"#utility.yul\":2226:2253   */\n  mstore\n    /* \"#utility.yul\":2121:2260   */\n  pop\n  pop\n  pop\n  jump\t// out\n    /* \"#utility.yul\":2266:2700   */\ntag_32:\n    /* \"#utility.yul\":2355:2360   */\n  0x00\n    /* \"#utility.yul\":2380:2446   */\n  tag_83\n    /* \"#utility.yul\":2396:2445   */\n  tag_84\n    /* \"#utility.yul\":2438:2444   */\n  dup5\n    /* \"#utility.yul\":2396:2445   */\n  tag_30\n  jump\t// in\ntag_84:\n    /* \"#utility.yul\":2380:2446   */\n  tag_29\n  jump\t// in\ntag_83:\n    /* \"#utility.yul\":2371:2446   */\n  swap1\n  pop\n    /* \"#utility.yul\":2469:2475   */\n  dup3\n    /* \"#utility.yul\":2462:2467   */\n  dup2\n    /* \"#utility.yul\":2455:2476   */\n  mstore\n    /* \"#utility.yul\":2507:2511   */\n  0x20\n    /* \"#utility.yul\":2500:2505   */\n  dup2\n    /* \"#utility.yul\":2496:2512   */\n  add\n    /* \"#utility.yul\":2545:2548   */\n  dup5\n    /* \"#utility.yul\":2536:2542   */\n  dup5\n    /* \"#utility.yul\":2531:2534   */\n  dup5\n    /* \"#utility.yul\":2527:2543   */\n  add\n    /* \"#utility.yul\":2524:2549   */\n  gt\n    /* \"#utility.yul\":2521:2633   */\n  iszero\n  tag_85\n  jumpi\n    /* \"#utility.yul\":2552:2631   */\n  tag_86\n  tag_25\n  jump\t// in\ntag_86:\n    /* \"#utility.yul\":2521:2633   */\ntag_85:\n    /* \"#utility.yul\":2642:2694   */\n  tag_87\n    /* \"#utility.yul\":2687:2693   */\n  dup5\n    /* \"#utility.yul\":2682:2685   */\n  dup3\n    /* \"#utility.yul\":2677:2680   */\n  dup6\n    /* \"#utility.yul\":2642:2694   */\n  tag_31\n  jump\t// in\ntag_87:\n    /* \"#utility.yul\":2361:2700   */\n  pop\n    /* \"#utility.yul\":2266:2700   */\n  swap4\n  swap3\n  pop\n  pop\n  pop\n  jump\t// out\n    /* \"#utility.yul\":2720:3075   */\ntag_33:\n    /* \"#utility.yul\":2787:2792   */\n  0x00\n    /* \"#utility.yul\":2836:2839   */\n  dup3\n    /* \"#utility.yul\":2829:2833   */\n  0x1f\n    /* \"#utility.yul\":2821:2827   */\n  dup4\n    /* \"#utility.yul\":2817:2834   */\n  add\n    /* \"#utility.yul\":2813:2840   */\n  slt\n    /* \"#utility.yul\":2803:2925   */\n  tag_89\n  jumpi\n    /* \"#utility.yul\":2844:2923   */\n  tag_90\n  tag_24\n  jump\t// in\ntag_90:\n    /* \"#utility.yul\":2803:2925   */\ntag_89:\n    /* \"#utility.yul\":2954:2960   */\n  dup2\n    /* \"#utility.yul\":2948:2961   */\n  mload\n    /* \"#utility.yul\":2979:3069   */\n  tag_91\n    /* \"#utility.yul\":3065:3068   */\n  dup5\n    /* \"#utility.yul\":3057:3063   */\n  dup3\n    /* \"#utility.yul\":3050:3054   */\n  0x20\n    /* \"#utility.yul\":3042:3048   */\n  dup7\n    /* \"#utility.yul\":3038:3055   */\n  add\n    /* \"#utility.yul\":2979:3069   */\n  tag_32\n  jump\t// in\ntag_91:\n    /* \"#utility.yul\":2970:3069   */\n  swap2\n  pop\n    /* \"#utility.yul\":2793:3075   */\n  pop\n    /* \"#utility.yul\":2720:3075   */\n  swap3\n  swap2\n  pop\n  pop\n  jump\t// out\n    /* \"#utility.yul\":3081:4074   */\ntag_3:\n    /* \"#utility.yul\":3188:3194   */\n  0x00\n    /* \"#utility.yul\":3196:3202   */\n  0x00\n    /* \"#utility.yul\":3204:3210   */\n  0x00\n    /* \"#utility.yul\":3212:3218   */\n  0x00\n    /* \"#utility.yul\":3261:3264   */\n  0x80\n    /* \"#utility.yul\":3249:3258   */\n  dup6\n    /* \"#utility.yul\":3240:3247   */\n  dup8\n    /* \"#utility.yul\":3236:3259   */\n  sub\n    /* \"#utility.yul\":3232:3265   */\n  slt\n    /* \"#utility.yul\":3229:3349   */\n  iszero\n  tag_93\n  jumpi\n    /* \"#utility.yul\":3268:3347   */\n  tag_94\n  tag_18\n  jump\t// in\ntag_94:\n    /* \"#utility.yul\":3229:3349   */\ntag_93:\n    /* \"#utility.yul\":3388:3389   */\n  0x00\n    /* \"#utility.yul\":3413:3477   */\n  tag_95\n    /* \"#utility.yul\":3469:3476   */\n  dup8\n    /* \"#utility.yul\":3460:3466   */\n  dup3\n    /* \"#utility.yul\":3449:3458   */\n  dup9\n    /* \"#utility.yul\":3445:3467   */\n  add\n    /* \"#utility.yul\":3413:3477   */\n  tag_23\n  jump\t// in\ntag_95:\n    /* \"#utility.yul\":3403:3477   */\n  swap5\n  pop\n    /* \"#utility.yul\":3359:3487   */\n  pop\n    /* \"#utility.yul\":3526:3528   */\n  0x20\n    /* \"#utility.yul\":3552:3616   */\n  tag_96\n    /* \"#utility.yul\":3608:3615   */\n  dup8\n    /* \"#utility.yul\":3599:3605   */\n  dup3\n    /* \"#utility.yul\":3588:3597   */\n  dup9\n    /* \"#utility.yul\":3584:3606   */\n  add\n    /* \"#utility.yul\":3552:3616   */\n  tag_23\n  jump\t// in\ntag_96:\n    /* \"#utility.yul\":3542:3616   */\n  swap4\n  pop\n    /* \"#utility.yul\":3497:3626   */\n  pop\n    /* \"#utility.yul\":3665:3667   */\n  0x40\n    /* \"#utility.yul\":3691:3755   */\n  tag_97\n    /* \"#utility.yul\":3747:3754   */\n  dup8\n    /* \"#utility.yul\":3738:3744   */\n  dup3\n    /* \"#utility.yul\":3727:3736   */\n  dup9\n    /* \"#utility.yul\":3723:3745   */\n  add\n    /* \"#utility.yul\":3691:3755   */\n  tag_23\n  jump\t// in\ntag_97:\n    /* \"#utility.yul\":3681:3755   */\n  swap3\n  pop\n    /* \"#utility.yul\":3636:3765   */\n  pop\n    /* \"#utility.yul\":3825:3827   */\n  0x60\n    /* \"#utility.yul\":3814:3823   */\n  dup6\n    /* \"#utility.yul\":3810:3828   */\n  add\n    /* \"#utility.yul\":3804:3829   */\n  mload\n    /* \"#utility.yul\":3856:3874   */\n  0xffffffffffffffff\n    /* \"#utility.yul\":3848:3854   */\n  dup2\n    /* \"#utility.yul\":3845:3875   */\n  gt\n    /* \"#utility.yul\":3842:3959   */\n  iszero\n  tag_98\n  jumpi\n    /* \"#utility.yul\":3878:3957   */\n  tag_99\n  tag_19\n  jump\t// in\ntag_99:\n    /* \"#utility.yul\":3842:3959   */\ntag_98:\n    /* \"#utility.yul\":3983:4057   */\n  tag_100\n    /* \"#utility.yul\":4049:4056   */\n  dup8\n    /* \"#utility.yul\":4040:4046   */\n  dup3\n    /* \"#utility.yul\":4029:4038   */\n  dup9\n    /* \"#utility.yul\":4025:4047   */\n  add\n    /* \"#utility.yul\":3983:4057   */\n  tag_33\n  jump\t// in\ntag_100:\n    /* \"#utility.yul\":3973:4057   */\n  swap2\n  pop\n    /* \"#utility.yul\":3775:4067   */\n  pop\n    /* \"#utility.yul\":3081:4074   */\n  swap3\n  swap6\n  swap2\n  swap5\n  pop\n  swap3\n  pop\n  jump\t// out\n    /* \"#utility.yul\":4080:4198   */\ntag_34:\n    /* \"#utility.yul\":4167:4191   */\n  tag_102\n    /* \"#utility.yul\":4185:4190   */\n  dup2\n    /* \"#utility.yul\":4167:4191   */\n  tag_21\n  jump\t// in\ntag_102:\n    /* \"#utility.yul\":4162:4165   */\n  dup3\n    /* \"#utility.yul\":4155:4192   */\n  mstore\n    /* \"#utility.yul\":4080:4198   */\n  pop\n  pop\n  jump\t// out\n    /* \"#utility.yul\":4204:4426   */\ntag_9:\n    /* \"#utility.yul\":4297:4301   */\n  0x00\n    /* \"#utility.yul\":4335:4337   */\n  0x20\n    /* \"#utility.yul\":4324:4333   */\n  dup3\n    /* \"#utility.yul\":4320:4338   */\n  add\n    /* \"#utility.yul\":4312:4338   */\n  swap1\n  pop\n    /* \"#utility.yul\":4348:4419   */\n  tag_104\n    /* \"#utility.yul\":4416:4417   */\n  0x00\n    /* \"#utility.yul\":4405:4414   */\n  dup4\n    /* \"#utility.yul\":4401:4418   */\n  add\n    /* \"#utility.yul\":4392:4398   */\n  dup5\n    /* \"#utility.yul\":4348:4419   */\n  tag_34\n  jump\t// in\ntag_104:\n    /* \"#utility.yul\":4204:4426   */\n  swap3\n  swap2\n  pop\n  pop\n  jump\t// out\n    /* \"#utility.yul\":4432:4531   */\ntag_35:\n    /* \"#utility.yul\":4484:4490   */\n  0x00\n    /* \"#utility.yul\":4518:4523   */\n  dup2\n    /* \"#utility.yul\":4512:4524   */\n  mload\n    /* \"#utility.yul\":4502:4524   */\n  swap1\n  pop\n    /* \"#utility.yul\":4432:4531   */\n  swap2\n  swap1\n  pop\n  jump\t// out\n    /* \"#utility.yul\":4537:4717   */\ntag_36:\n    /* \"#utility.yul\":4585:4662   */\n  0x4e487b7100000000000000000000000000000000000000000000000000000000\n    /* \"#utility.yul\":4582:4583   */\n  0x00\n    /* \"#utility.yul\":4575:4663   */\n  mstore\n    /* \"#utility.yul\":4682:4686   */\n  0x22\n    /* \"#utility.yul\":4679:4680   */\n  0x04\n    /* \"#utility.yul\":4672:4687   */\n  mstore\n    /* \"#utility.yul\":4706:4710   */\n  0x24\n    /* \"#utility.yul\":4703:4704   */\n  0x00\n    /* \"#utility.yul\":4696:4711   */\n  revert\n    /* \"#utility.yul\":4723:5043   */\ntag_37:\n    /* \"#utility.yul\":4767:4773   */\n  0x00\n    /* \"#utility.yul\":4804:4805   */\n  0x02\n    /* \"#utility.yul\":4798:4802   */\n  dup3\n    /* \"#utility.yul\":4794:4806   */\n  div\n    /* \"#utility.yul\":4784:4806   */\n  swap1\n  pop\n    /* \"#utility.yul\":4851:4852   */\n  0x01\n    /* \"#utility.yul\":4845:4849   */\n  dup3\n    /* \"#utility.yul\":4841:4853   */\n  and\n    /* \"#utility.yul\":4872:4890   */\n  dup1\n    /* \"#utility.yul\":4862:4943   */\n  tag_108\n  jumpi\n    /* \"#utility.yul\":4928:4932   */\n  0x7f\n    /* \"#utility.yul\":4920:4926   */\n  dup3\n    /* \"#utility.yul\":4916:4933   */\n  and\n    /* \"#utility.yul\":4906:4933   */\n  swap2\n  pop\n    /* \"#utility.yul\":4862:4943   */\ntag_108:\n    /* \"#utility.yul\":4990:4992   */\n  0x20\n    /* \"#utility.yul\":4982:4988   */\n  dup3\n    /* \"#utility.yul\":4979:4993   */\n  lt\n    /* \"#utility.yul\":4959:4977   */\n  dup2\n    /* \"#utility.yul\":4956:4994   */\n  sub\n    /* \"#utility.yul\":4953:5037   */\n  tag_109\n  jumpi\n    /* \"#utility.yul\":5009:5027   */\n  tag_110\n  tag_36\n  jump\t// in\ntag_110:\n    /* \"#utility.yul\":4953:5037   */\ntag_109:\n    /* \"#utility.yul\":4774:5043   */\n  pop\n    /* \"#utility.yul\":4723:5043   */\n  swap2\n  swap1\n  pop\n  jump\t// out\n    /* \"#utility.yul\":5049:5190   */\ntag_38:\n    /* \"#utility.yul\":5098:5102   */\n  0x00\n    /* \"#utility.yul\":5121:5124   */\n  dup2\n    /* \"#utility.yul\":5113:5124   */\n  swap1\n  pop\n    /* \"#utility.yul\":5144:5147   */\n  dup2\n    /* \"#utility.yul\":5141:5142   */\n  0x00\n    /* \"#utility.yul\":5134:5148   */\n  mstore\n    /* \"#utility.yul\":5178:5182   */\n  0x20\n    /* \"#utility.yul\":5175:5176   */\n  0x00\n    /* \"#utility.yul\":5165:5183   */\n  keccak256\n    /* \"#utility.yul\":5157:5183   */\n  swap1\n  pop\n    /* \"#utility.yul\":5049:5190   */\n  swap2\n  swap1\n  pop\n  jump\t// out\n    /* \"#utility.yul\":5196:5289   */\ntag_39:\n    /* \"#utility.yul\":5233:5239   */\n  0x00\n    /* \"#utility.yul\":5280:5282   */\n  0x20\n    /* \"#utility.yul\":5275:5277   */\n  0x1f\n    /* \"#utility.yul\":5268:5273   */\n  dup4\n    /* \"#utility.yul\":5264:5278   */\n  add\n    /* \"#utility.yul\":5260:5283   */\n  div\n    /* \"#utility.yul\":5250:5283   */\n  swap1\n  pop\n    /* \"#utility.yul\":5196:5289   */\n  swap2\n  swap1\n  pop\n  jump\t// out\n    /* \"#utility.yul\":5295:5402   */\ntag_40:\n    /* \"#utility.yul\":5339:5347   */\n  0x00\n    /* \"#utility.yul\":5389:5394   */\n  dup3\n    /* \"#utility.yul\":5383:5387   */\n  dup3\n    /* \"#utility.yul\":5379:5395   */\n  shl\n    /* \"#utility.yul\":5358:5395   */\n  swap1\n  pop\n    /* \"#utility.yul\":5295:5402   */\n  swap3\n  swap2\n  pop\n  pop\n  jump\t// out\n    /* \"#utility.yul\":5408:5801   */\ntag_41:\n    /* \"#utility.yul\":5477:5483   */\n  0x00\n    /* \"#utility.yul\":5527:5528   */\n  0x08\n    /* \"#utility.yul\":5515:5525   */\n  dup4\n    /* \"#utility.yul\":5511:5529   */\n  mul\n    /* \"#utility.yul\":5550:5647   */\n  tag_115\n    /* \"#utility.yul\":5580:5646   */\n  0xffffffffffffffffffffffffffffffffffffffffffffffffffffffffffffffff\n    /* \"#utility.yul\":5569:5578   */\n  dup3\n    /* \"#utility.yul\":5550:5647   */\n  tag_40\n  jump\t// in\ntag_115:\n    /* \"#utility.yul\":5668:5707   */\n  tag_116\n    /* \"#utility.yul\":5698:5706   */\n  dup7\n    /* \"#utility.yul\":5687:5696   */\n  dup4\n    /* \"#utility.yul\":5668:5707   */\n  tag_40\n  jump\t// in\ntag_116:\n    /* \"#utility.yul\":5656:5707   */\n  swap6\n  pop\n    /* \"#utility.yul\":5740:5744   */\n  dup1\n    /* \"#utility.yul\":5736:5745   */\n  not\n    /* \"#utility.yul\":5729:5734   */\n  dup5\n    /* \"#utility.yul\":5725:5746   */\n  and\n    /* \"#utility.yul\":5716:5746   */\n  swap4\n  pop\n    /* \"#utility.yul\":5789:5793   */\n  dup1\n    /* \"#utility.yul\":5779:5787   */\n  dup7\n    /* \"#utility.yul\":5775:5794   */\n  and\n    /* \"#utility.yul\":5768:5773   */\n  dup5\n    /* \"#utility.yul\":5765:5795   */\n  or\n    /* \"#utility.yul\":5755:5795   */\n  swap3\n  pop\n    /* \"#utility.yul\":5484:5801   */\n  pop\n  pop\n    /* \"#utility.yul\":5408:5801   */\n  swap4\n  swap3\n  pop\n  pop\n  pop\n  jump\t// out\n    /* \"#utility.yul\":5807:5884   */\ntag_42:\n    /* \"#utility.yul\":5844:5851   */\n  0x00\n    /* \"#utility.yul\":5873:5878   */\n  dup2\n    /* \"#utility.yul\":5862:5878   */\n  swap1\n  pop\n    /* \"#utility.yul\":5807:5884   */\n  swap2\n  swap1\n  pop\n  jump\t// out\n    /* \"#utility.yul\":5890:5950   */\ntag_43:\n    /* \"#utility.yul\":5918:5921   */\n  0x00\n    /* \"#utility.yul\":5939:5944   */\n  dup2\n    /* \"#utility.yul\":5932:5944   */\n  swap1\n  pop\n    /* \"#utility.yul\":5890:5950   */\n  swap2\n  swap1\n  pop\n  jump\t// out\n    /* \"#utility.yul\":5956:6098   */\ntag_44:\n    /* \"#utility.yul\":6006:6015   */\n  0x00\n    /* \"#utility.yul\":6039:6092   */\n  tag_120\n    /* \"#utility.yul\":6057:6091   */\n  tag_121\n    /* \"#utility.yul\":6066:6090   */\n  tag_122\n    /* \"#utility.yul\":6084:6089   */\n  dup5\n    /* \"#utility.yul\":6066:6090   */\n  tag_42\n  jump\t// in\ntag_122:\n    /* \"#utility.yul\":6057:6091   */\n  tag_43\n  jump\t// in\ntag_121:\n    /* \"#utility.yul\":6039:6092   */\n  tag_42\n  jump\t// in\ntag_120:\n    /* \"#utility.yul\":6026:6092   */\n  swap1\n  pop\n    /* \"#utility.yul\":5956:6098   */\n  swap2\n  swap1\n  pop\n  jump\t// out\n    /* \"#utility.yul\":6104:6179   */\ntag_45:\n    /* \"#utility.yul\":6147:6150   */\n  0x00\n    /* \"#utility.yul\":6168:6173   */\n  dup2\n    /* \"#utility.yul\":6161:6173   */\n  swap1\n  pop\n    /* \"#utility.yul\":6104:6179   */\n  swap2\n  swap1\n  pop\n  jump\t// out\n    /* \"#utility.yul\":6185:6454   */\ntag_46:\n    /* \"#utility.yul\":6295:6334   */\n  tag_125\n    /* \"#utility.yul\":6326:6333   */\n  dup4\n    /* \"#utility.yul\":6295:6334   */\n  tag_44\n  jump\t// in\ntag_125:\n    /* \"#utility.yul\":6356:6447   */\n  tag_126\n    /* \"#utility.yul\":6405:6446   */\n  tag_127\n    /* \"#utility.yul\":6429:6445   */\n  dup3\n    /* \"#utility.yul\":6405:6446   */\n  tag_45\n  jump\t// in\ntag_127:\n    /* \"#utility.yul\":6397:6403   */\n  dup5\n    /* \"#utility.yul\":6390:6394   */\n  dup5\n    /* \"#utility.yul\":6384:6395   */\n  sload\n    /* \"#utility.yul\":6356:6447   */\n  tag_41\n  jump\t// in\ntag_126:\n    /* \"#utility.yul\":6350:6354   */\n  dup3\n    /* \"#utility.yul\":6343:6448   */\n  sstore\n    /* \"#utility.yul\":6261:6454   */\n  pop\n    /* \"#utility.yul\":6185:6454   */\n  pop\n  pop\n  pop\n  jump\t// out\n    /* \"#utility.yul\":6460:6533   */\ntag_47:\n    /* \"#utility.yul\":6505:6508   */\n  0x00\n    /* \"#utility.yul\":6526:6527   */\n  0x00\n    /* \"#utility.yul\":6519:6527   */\n  swap1\n  pop\n    /* \"#utility.yul\":6460:6533   */\n  swap1\n  jump\t// out\n    /* \"#utility.yul\":6539:6728   */\ntag_48:\n    /* \"#utility.yul\":6616:6648   */\n  tag_130\n  tag_47\n  jump\t// in\ntag_130:\n    /* \"#utility.yul\":6657:6722   */\n  tag_131\n    /* \"#utility.yul\":6715:6721   */\n  dup2\n    /* \"#utility.yul\":6707:6713   */\n  dup5\n    /* \"#utility.yul\":6701:6705   */\n  dup5\n    /* \"#utility.yul\":6657:6722   */\n  tag_46\n  jump\t// in\ntag_131:\n    /* \"#utility.yul\":6592:6728   */\n  pop\n    /* \"#utility.yul\":6539:6728   */\n  pop\n  pop\n  jump\t// out\n    /* \"#utility.yul\":6734:6920   */\ntag_49:\n    /* \"#utility.yul\":6794:6914   */\ntag_133:\n    /* \"#utility.yul\":6811:6814   */\n  dup2\n    /* \"#utility.yul\":6804:6809   */\n  dup2\n    /* \"#utility.yul\":6801:6815   */\n  lt\n    /* \"#utility.yul\":6794:6914   */\n  iszero\n  tag_135\n  jumpi\n    /* \"#utility.yul\":6865:6904   */\n  tag_136\n    /* \"#utility.yul\":6902:6903   */\n  0x00\n    /* \"#utility.yul\":6895:6900   */\n  dup3\n    /* \"#utility.yul\":6865:6904   */\n  tag_48\n  jump\t// in\ntag_136:\n    /* \"#utility.yul\":6838:6839   */\n  0x01\n    /* \"#utility.yul\":6831:6836   */\n  dup2\n    /* \"#utility.yul\":6827:6840   */\n  add\n    /* \"#utility.yul\":6818:6840   */\n  swap1\n  pop\n    /* \"#utility.yul\":6794:6914   */\n  jump(tag_133)\ntag_135:\n    /* \"#utility.yul\":6734:6920   */\n  pop\n  pop\n  jump\t// out\n    /* \"#utility.yul\":6926:7469   */\ntag_50:\n    /* \"#utility.yul\":7027:7029   */\n  0x1f\n    /* \"#utility.yul\":7022:7025   */\n  dup3\n    /* \"#utility.yul\":7019:7030   */\n  gt\n    /* \"#utility.yul\":7016:7462   */\n  iszero\n  tag_138\n  jumpi\n    /* \"#utility.yul\":7061:7099   */\n  tag_139\n    /* \"#utility.yul\":7093:7098   */\n  dup2\n    /* \"#utility.yul\":7061:7099   */\n  tag_38\n  jump\t// in\ntag_139:\n    /* \"#utility.yul\":7145:7174   */\n  tag_140\n    /* \"#utility.yul\":7163:7173   */\n  dup5\n    /* \"#utility.yul\":7145:7174   */\n  tag_39\n  jump\t// in\ntag_140:\n    /* \"#utility.yul\":7135:7143   */\n  dup2\n    /* \"#utility.yul\":7131:7175   */\n  add\n    /* \"#utility.yul\":7328:7330   */\n  0x20\n    /* \"#utility.yul\":7316:7326   */\n  dup6\n    /* \"#utility.yul\":7313:7331   */\n  lt\n    /* \"#utility.yul\":7310:7359   */\n  iszero\n  tag_141\n  jumpi\n    /* \"#utility.yul\":7349:7357   */\n  dup2\n    /* \"#utility.yul\":7334:7357   */\n  swap1\n  pop\n    /* \"#utility.yul\":7310:7359   */\ntag_141:\n    /* \"#utility.yul\":7372:7452   */\n  tag_142\n    /* \"#utility.yul\":7428:7450   */\n  tag_143\n    /* \"#utility.yul\":7446:7449   */\n  dup6\n    /* \"#utility.yul\":7428:7450   */\n  tag_39\n  jump\t// in\ntag_143:\n    /* \"#utility.yul\":7418:7426   */\n  dup4\n    /* \"#utility.yul\":7414:7451   */\n  add\n    /* \"#utility.yul\":7401:7412   */\n  dup3\n    /* \"#utility.yul\":7372:7452   */\n  tag_49\n  jump\t// in\ntag_142:\n    /* \"#utility.yul\":7031:7462   */\n  pop\n  pop\n    /* \"#utility.yul\":7016:7462   */\ntag_138:\n    /* \"#utility.yul\":6926:7469   */\n  pop\n  pop\n  pop\n  jump\t// out\n    /* \"#utility.yul\":7475:7592   */\ntag_51:\n    /* \"#utility.yul\":7529:7537   */\n  0x00\n    /* \"#utility.yul\":7579:7584   */\n  dup3\n    /* \"#utility.yul\":7573:7577   */\n  dup3\n    /* \"#utility.yul\":7569:7585   */\n  shr\n    /* \"#utility.yul\":7548:7585   */\n  swap1\n  pop\n    /* \"#utility.yul\":7475:7592   */\n  swap3\n  swap2\n  pop\n  pop\n  jump\t// out\n    /* \"#utility.yul\":7598:7767   */\ntag_52:\n    /* \"#utility.yul\":7642:7648   */\n  0x00\n    /* \"#utility.yul\":7675:7726   */\n  tag_146\n    /* \"#utility.yul\":7723:7724   */\n  0x00\n    /* \"#utility.yul\":7719:7725   */\n  not\n    /* \"#utility.yul\":7711:7716   */\n  dup5\n    /* \"#utility.yul\":7708:7709   */\n  0x08\n    /* \"#utility.yul\":7704:7717   */\n  mul\n    /* \"#utility.yul\":7675:7726   */\n  tag_51\n  jump\t// in\ntag_146:\n    /* \"#utility.yul\":7671:7727   */\n  not\n    /* \"#utility.yul\":7756:7760   */\n  dup1\n    /* \"#utility.yul\":7750:7754   */\n  dup4\n    /* \"#utility.yul\":7746:7761   */\n  and\n    /* \"#utility.yul\":7736:7761   */\n  swap2\n  pop\n    /* \"#utility.yul\":7649:7767   */\n  pop\n    /* \"#utility.yul\":7598:7767   */\n  swap3\n  swap2\n  pop\n  pop\n  jump\t// out\n    /* \"#utility.yul\":7772:8067   */\ntag_53:\n    /* \"#utility.yul\":7848:7852   */\n  0x00\n    /* \"#utility.yul\":7994:8023   */\n  tag_148\n    /* \"#utility.yul\":8019:8022   */\n  dup4\n    /* \"#utility.yul\":8013:8017   */\n  dup4\n    /* \"#utility.yul\":7994:8023   */\n  tag_52\n  jump\t// in\ntag_148:\n    /* \"#utility.yul\":7986:8023   */\n  swap2\n  pop\n    /* \"#utility.yul\":8056:8059   */\n  dup3\n    /* \"#utility.yul\":8053:8054   */\n  0x02\n    /* \"#utility.yul\":8049:8060   */\n  mul\n    /* \"#utility.yul\":8043:8047   */\n  dup3\n    /* \"#utility.yul\":8040:8061   */\n  or\n    /* \"#utility.yul\":8032:8061   */\n  swap1\n  pop\n    /* \"#utility.yul\":7772:8067   */\n  swap3\n  swap2\n  pop\n  pop\n  jump\t// out\n    /* \"#utility.yul\":8072:9467   */\ntag_14:\n    /* \"#utility.yul\":8189:8226   */\n  tag_150\n    /* \"#utility.yul\":8222:8225   */\n  dup3\n    /* \"#utility.yul\":8189:8226   */\n  tag_35\n  jump\t// in\ntag_150:\n    /* \"#utility.yul\":8291:8309   */\n  0xffffffffffffffff\n    /* \"#utility.yul\":8283:8289   */\n  dup2\n    /* \"#utility.yul\":8280:8310   */\n  gt\n    /* \"#utility.yul\":8277:8333   */\n  iszero\n  tag_151\n  jumpi\n    /* \"#utility.yul\":8313:8331   */\n  tag_152\n  tag_27\n  jump\t// in\ntag_152:\n    /* \"#utility.yul\":8277:8333   */\ntag_151:\n    /* \"#utility.yul\":8357:8395   */\n  tag_153\n    /* \"#utility.yul\":8389:8393   */\n  dup3\n    /* \"#utility.yul\":8383:8394   */\n  sload\n    /* \"#utility.yul\":8357:8395   */\n  tag_37\n  jump\t// in\ntag_153:\n    /* \"#utility.yul\":8442:8509   */\n  tag_154\n    /* \"#utility.yul\":8502:8508   */\n  dup3\n    /* \"#utility.yul\":8494:8500   */\n  dup3\n    /* \"#utility.yul\":8488:8492   */\n  dup6\n    /* \"#utility.yul\":8442:8509   */\n  tag_50\n  jump\t// in\ntag_154:\n    /* \"#utility.yul\":8536:8537   */\n  0x00\n    /* \"#utility.yul\":8560:8564   */\n  0x20\n    /* \"#utility.yul\":8547:8564   */\n  swap1\n  pop\n    /* \"#utility.yul\":8592:8594   */\n  0x1f\n    /* \"#utility.yul\":8584:8590   */\n  dup4\n    /* \"#utility.yul\":8581:8595   */\n  gt\n    /* \"#utility.yul\":8609:8610   */\n  0x01\n    /* \"#utility.yul\":8604:9222   */\n  dup2\n  eq\n  tag_156\n  jumpi\n    /* \"#utility.yul\":9266:9267   */\n  0x00\n    /* \"#utility.yul\":9283:9289   */\n  dup5\n    /* \"#utility.yul\":9280:9357   */\n  iszero\n  tag_157\n  jumpi\n    /* \"#utility.yul\":9332:9341   */\n  dup3\n    /* \"#utility.yul\":9327:9330   */\n  dup8\n    /* \"#utility.yul\":9323:9342   */\n  add\n    /* \"#utility.yul\":9317:9343   */\n  mload\n    /* \"#utility.yul\":9308:9343   */\n  swap1\n  pop\n    /* \"#utility.yul\":9280:9357   */\ntag_157:\n    /* \"#utility.yul\":9383:9450   */\n  tag_158\n    /* \"#utility.yul\":9443:9449   */\n  dup6\n    /* \"#utility.yul\":9436:9441   */\n  dup3\n    /* \"#utility.yul\":9383:9450   */\n  tag_53\n  jump\t// in\ntag_158:\n    /* \"#utility.yul\":9377:9381   */\n  dup7\n    /* \"#utility.yul\":9370:9451   */\n  sstore\n    /* \"#utility.yul\":9239:9461   */\n  pop\n    /* \"#utility.yul\":8574:9461   */\n  jump(tag_155)\n    /* \"#utility.yul\":8604:9222   */\ntag_156:\n    /* \"#utility.yul\":8656:8660   */\n  0x1f\n    /* \"#utility.yul\":8652:8661   */\n  not\n    /* \"#utility.yul\":8644:8650   */\n  dup5\n    /* \"#utility.yul\":8640:8662   */\n  and\n    /* \"#utility.yul\":8690:8727   */\n  tag_159\n    /* \"#utility.yul\":8722:8726   */\n  dup7\n    /* \"#utility.yul\":8690:8727   */\n  tag_38\n  jump\t// in\ntag_159:\n    /* \"#utility.yul\":8749:8750   */\n  0x00\n    /* \"#utility.yul\":8763:8971   */\ntag_160:\n    /* \"#utility.yul\":8777:8784   */\n  dup3\n    /* \"#utility.yul\":8774:8775   */\n  dup2\n    /* \"#utility.yul\":8771:8785   */\n  lt\n    /* \"#utility.yul\":8763:8971   */\n  iszero\n  tag_162\n  jumpi\n    /* \"#utility.yul\":8856:8865   */\n  dup5\n    /* \"#utility.yul\":8851:8854   */\n  dup10\n    /* \"#utility.yul\":8847:8866   */\n  add\n    /* \"#utility.yul\":8841:8867   */\n  mload\n    /* \"#utility.yul\":8833:8839   */\n  dup3\n    /* \"#utility.yul\":8826:8868   */\n  sstore\n    /* \"#utility.yul\":8907:8908   */\n  0x01\n    /* \"#utility.yul\":8899:8905   */\n  dup3\n    /* \"#utility.yul\":8895:8909   */\n  add\n    /* \"#utility.yul\":8885:8909   */\n  swap2\n  pop\n    /* \"#utility.yul\":8954:8956   */\n  0x20\n    /* \"#utility.yul\":8943:8952   */\n  dup6\n    /* \"#utility.yul\":8939:8957   */\n  add\n    /* \"#utility.yul\":8926:8957   */\n  swap5\n  pop\n    /* \"#utility.yul\":8800:8804   */\n  0x20\n    /* \"#utility.yul\":8797:8798   */\n  dup2\n    /* \"#utility.yul\":8793:8805   */\n  add\n    /* \"#utility.yul\":8788:8805   */\n  swap1\n  pop\n    /* \"#utility.yul\":8763:8971   */\n  jump(tag_160)\ntag_162:\n    /* \"#utility.yul\":8999:9005   */\n  dup7\n    /* \"#utility.yul\":8990:8997   */\n  dup4\n    /* \"#utility.yul\":8987:9006   */\n  lt\n    /* \"#utility.yul\":8984:9163   */\n  iszero\n  tag_163\n  jumpi\n    /* \"#utility.yul\":9057:9066   */\n  dup5\n    /* \"#utility.yul\":9052:9055   */\n  dup10\n    /* \"#utility.yul\":9048:9067   */\n  add\n    /* \"#utility.yul\":9042:9068   */\n  mload\n    /* \"#utility.yul\":9100:9148   */\n  tag_164\n    /* \"#utility.yul\":9142:9146   */\n  0x1f\n    /* \"#utility.yul\":9134:9140   */\n  dup10\n    /* \"#utility.yul\":9130:9147   */\n  and\n    /* \"#utility.yul\":9119:9128   */\n  dup3\n    /* \"#utility.yul\":9100:9148   */\n  tag_52\n  jump\t// in\ntag_164:\n    /* \"#utility.yul\":9092:9098   */\n  dup4\n    /* \"#utility.yul\":9085:9149   */\n  sstore\n    /* \"#utility.yul\":9007:9163   */\n  pop\n    /* \"#utility.yul\":8984:9163   */\ntag_163:\n    /* \"#utility.yul\":9209:9210   */\n  0x01\n    /* \"#utility.yul\":9205:9206   */\n  0x02\n    /* \"#utility.yul\":9197:9203   */\n  dup9\n    /* \"#utility.yul\":9193:9207   */\n  mul\n    /* \"#utility.yul\":9189:9211   */\n  add\n    /* \"#utility.yul\":9183:9187   */\n  dup9\n    /* \"#utility.yul\":9176:9212   */\n  sstore\n    /* \"#utility.yul\":8611:9222   */\n  pop\n  pop\n  pop\n    /* \"#utility.yul\":8574:9461   */\ntag_155:\n  pop\n    /* \"#utility.yul\":8164:9467   */\n  pop\n  pop\n  pop\n    /* \"#utility.yul\":8072:9467   */\n  pop\n  pop\n  jump\t// out\n    /* \"Evm/core/base/vault.sol\":561:5488  contract QiaraMultiAssetVault is Ownable {... */\ntag_15:\n  mload(0x80)\n  mload(0xa0)\n  codecopy(0x00, dataOffset(sub_0), dataSize(sub_0))\n  0x00\n  assignImmutable(\"0xa55f93089260f97cd16ec7a717e7ade24f99065bc4509014bd14fefe4d832ab6\")\n  0x00\n  assignImmutable(\"0x1067a32fc2bf4122310a8f066f11577e006583df65ce4c5172289c9680be102c\")\n  return(0x00, dataSize(sub_0))\nstop\n\nsub_0: assembly {\n        /* \"Evm/core/base/vault.sol\":561:5488  contract QiaraMultiAssetVault is Ownable {... */\n      mstore(0x40, 0x80)\n      callvalue\n      dup1\n      iszero\n      tag_1\n      jumpi\n      revert(0x00, 0x00)\n    tag_1:\n      pop\n      jumpi(tag_2, lt(calldatasize, 0x04))\n      shr(0xe0, calldataload(0x00))\n      dup1\n      0x7804e707\n      gt\n      tag_16\n      jumpi\n      dup1\n      0xb5f8558c\n      gt\n      tag_17\n      jumpi\n      dup1\n      0xb5f8558c\n      eq\n      tag_12\n      jumpi\n      dup1\n      0xbf4d766e\n      eq\n      tag_13\n      jumpi\n      dup1\n      0xf139721c\n      eq\n      tag_14\n      jumpi\n      dup1\n      0xf2fde38b\n      eq\n      tag_15\n      jumpi\n      jump(tag_2)\n    tag_17:\n      dup1\n      0x7804e707\n      eq\n      tag_9\n      jumpi\n      dup1\n      0x8da5cb5b\n      eq\n      tag_10\n      jumpi\n      dup1\n      0x8e27d719\n      eq\n      tag_11\n      jumpi\n      jump(tag_2)\n    tag_16:\n      dup1\n      0xdad7d4\n      eq\n      tag_3\n      jumpi\n      dup1\n      0x05d09fb1\n      eq\n      tag_4\n      jumpi\n      dup1\n      0x240028e8\n      eq\n      tag_5\n      jumpi\n      dup1\n      0x6afbf5d6\n      eq\n      tag_6\n      jumpi\n      dup1\n      0x715018a6\n      eq\n      tag_7\n      jumpi\n      dup1\n      0x76c13cbd\n      eq\n      tag_8\n      jumpi\n    tag_2:\n      revert(0x00, 0x00)\n        /* \"Evm/core/base/vault.sol\":734:760  string public providerName */\n    tag_3:\n      tag_18\n      tag_19\n      jump\t// in\n    tag_18:\n      mload(0x40)\n      tag_20\n      swap2\n      swap1\n      tag_21\n      jump\t// in\n    tag_20:\n      mload(0x40)\n      dup1\n      swap2\n      sub\n      swap1\n      return\n        /* \"Evm/core/base/vault.sol\":1479:2128  function resolveAsset(string memory assetName) public view returns (address) {... */\n    tag_4:\n      tag_22\n      0x04\n      dup1\n      calldatasize\n      sub\n      dup2\n      add\n      swap1\n      tag_23\n      swap2\n      swap1\n      tag_24\n      jump\t// in\n    tag_23:\n      tag_25\n      jump\t// in\n    tag_22:\n      mload(0x40)\n      tag_26\n      swap2\n      swap1\n      tag_27\n      jump\t// in\n    tag_26:\n      mload(0x40)\n      dup1\n      swap2\n      sub\n      swap1\n      return\n        /* \"Evm/core/base/vault.sol\":770:818  mapping(address => bool) public isSupportedToken */\n    tag_5:\n      tag_28\n      0x04\n      dup1\n      calldatasize\n      sub\n      dup2\n      add\n      swap1\n      tag_29\n      swap2\n      swap1\n      tag_30\n      jump\t// in\n    tag_29:\n      tag_31\n      jump\t// in\n    tag_28:\n      mload(0x40)\n      tag_32\n      swap2\n      swap1\n      tag_33\n      jump\t// in\n    tag_32:\n      mload(0x40)\n      dup1\n      swap2\n      sub\n      swap1\n      return\n        /* \"Evm/core/base/vault.sol\":2397:3441  function grantWithdrawalPermission(address user, string calldata assetName, uint256 amount, uint256 nullifier) external  {... */\n    tag_6:\n      tag_34\n      0x04\n      dup1\n      calldatasize\n      sub\n      dup2\n      add\n      swap1\n      tag_35\n      swap2\n      swap1\n      tag_36\n      jump\t// in\n    tag_35:\n      tag_37\n      jump\t// in\n    tag_34:\n      stop\n        /* \"@openzeppelin/contracts/access/Ownable.sol\":2293:2394  function renounceOwnership() public virtual onlyOwner {... */\n    tag_7:\n      tag_38\n      tag_39\n      jump\t// in\n    tag_38:\n      stop\n        /* \"Evm/core/base/vault.sol\":825:897  mapping(address => mapping(address => uint256)) public claimableBalances */\n    tag_8:\n      tag_40\n      0x04\n      dup1\n      calldatasize\n      sub\n      dup2\n      add\n      swap1\n      tag_41\n      swap2\n      swap1\n      tag_42\n      jump\t// in\n    tag_41:\n      tag_43\n      jump\t// in\n    tag_40:\n      mload(0x40)\n      tag_44\n      swap2\n      swap1\n      tag_45\n      jump\t// in\n    tag_44:\n      mload(0x40)\n      dup1\n      swap2\n      sub\n      swap1\n      return\n        /* \"Evm/core/base/vault.sol\":4446:5485  function withdraw(string calldata assetName, uint256 amount, address receiver) external {... */\n    tag_9:\n      tag_46\n      0x04\n      dup1\n      calldatasize\n      sub\n      dup2\n      add\n      swap1\n      tag_47\n      swap2\n      swap1\n      tag_48\n      jump\t// in\n    tag_47:\n      tag_49\n      jump\t// in\n    tag_46:\n      stop\n        /* \"@openzeppelin/contracts/access/Ownable.sol\":1638:1723  function owner() public view virtual returns (address) {... */\n    tag_10:\n      tag_50\n      tag_51\n      jump\t// in\n    tag_50:\n      mload(0x40)\n      tag_52\n      swap2\n      swap1\n      tag_27\n      jump\t// in\n    tag_52:\n      mload(0x40)\n      dup1\n      swap2\n      sub\n      swap1\n      return\n        /* \"Evm/core/base/vault.sol\":3449:4438  function deposit(string calldata assetName, uint256 amount) external {... */\n    tag_11:\n      tag_53\n      0x04\n      dup1\n      calldatasize\n      sub\n      dup2\n      add\n      swap1\n      tag_54\n      swap2\n      swap1\n      tag_55\n      jump\t// in\n    tag_54:\n      tag_56\n      jump\t// in\n    tag_53:\n      stop\n        /* \"Evm/core/base/vault.sol\":696:727  IEvents public immutable events */\n    tag_12:\n      tag_57\n      tag_58\n      jump\t// in\n    tag_57:\n      mload(0x40)\n      tag_59\n      swap2\n      swap1\n      tag_60\n      jump\t// in\n    tag_59:\n      mload(0x40)\n      dup1\n      swap2\n      sub\n      swap1\n      return\n        /* \"Evm/core/base/vault.sol\":644:689  IVariables public immutable variablesRegistry */\n    tag_13:\n      tag_61\n      tag_62\n      jump\t// in\n    tag_61:\n      mload(0x40)\n      tag_63\n      swap2\n      swap1\n      tag_64\n      jump\t// in\n    tag_63:\n      mload(0x40)\n      dup1\n      swap2\n      sub\n      swap1\n      return\n        /* \"Evm/core/base/vault.sol\":2136:2387  function listNewToken(string calldata assetName) external {... */\n    tag_14:\n      tag_65\n      0x04\n      dup1\n      calldatasize\n      sub\n      dup2\n      add\n      swap1\n      tag_66\n      swap2\n      swap1\n      tag_67\n      jump\t// in\n    tag_66:\n      tag_68\n      jump\t// in\n    tag_65:\n      stop\n        /* \"@openzeppelin/contracts/access/Ownable.sol\":2543:2758  function transferOwnership(address newOwner) public virtual onlyOwner {... */\n    tag_15:\n      tag_69\n      0x04\n      dup1\n      calldatasize\n      sub\n      dup2\n      add\n      swap1\n      tag_70\n      swap2\n      swap1\n      tag_30\n      jump\t// in\n    tag_70:\n      tag_71\n      jump\t// in\n    tag_69:\n      stop\n        /* \"Evm/core/base/vault.sol\":734:760  string public providerName */\n    tag_19:\n      0x01\n      dup1\n      sload\n      tag_72\n      swap1\n      tag_73\n      jump\t// in\n    tag_72:\n      dup1\n      0x1f\n      add\n      0x20\n      dup1\n      swap2\n      div\n      mul\n      0x20\n      add\n      mload(0x40)\n      swap1\n      dup2\n      add\n      0x40\n      mstore\n      dup1\n      swap3\n      swap2\n      swap1\n      dup2\n      dup2\n      mstore\n      0x20\n      add\n      dup3\n      dup1\n      sload\n      tag_74\n      swap1\n      tag_73\n      jump\t// in\n    tag_74:\n      dup1\n      iszero\n      tag_75\n      jumpi\n      dup1\n      0x1f\n      lt\n      tag_76\n      jumpi\n      0x0100\n      dup1\n      dup4\n      sload\n      div\n      mul\n      dup4\n      mstore\n      swap2\n      0x20\n      add\n      swap2\n      jump(tag_75)\n    tag_76:\n      dup3\n      add\n      swap2\n      swap1\n      0x00\n      mstore\n      keccak256(0x00, 0x20)\n      swap1\n    tag_77:\n      dup2\n      sload\n      dup2\n      mstore\n      swap1\n      0x01\n      add\n      swap1\n      0x20\n      add\n      dup1\n      dup4\n      gt\n      tag_77\n      jumpi\n      dup3\n      swap1\n      sub\n      0x1f\n      and\n      dup3\n      add\n      swap2\n    tag_75:\n      pop\n      pop\n      pop\n      pop\n      pop\n      dup2\n      jump\t// out\n        /* \"Evm/core/base/vault.sol\":1479:2128  function resolveAsset(string memory assetName) public view returns (address) {... */\n    tag_25:\n        /* \"Evm/core/base/vault.sol\":1547:1554  address */\n      0x00\n        /* \"Evm/core/base/vault.sol\":1563:1585  string memory tokenKey */\n      0x00\n        /* \"Evm/core/base/vault.sol\":1612:1621  assetName */\n      dup3\n        /* \"Evm/core/base/vault.sol\":1628:1640  providerName */\n      0x01\n        /* \"Evm/core/base/vault.sol\":1595:1641  abi.encodePacked(assetName, \"_\", providerName) */\n      add(0x20, mload(0x40))\n      tag_79\n      swap3\n      swap2\n      swap1\n      tag_80\n      jump\t// in\n    tag_79:\n      mload(0x40)\n      0x20\n      dup2\n      dup4\n      sub\n      sub\n      dup2\n      mstore\n      swap1\n      0x40\n      mstore\n        /* \"Evm/core/base/vault.sol\":1563:1642  string memory tokenKey = string(abi.encodePacked(assetName, \"_\", providerName)) */\n      swap1\n      pop\n        /* \"Evm/core/base/vault.sol\":1692:1693  0 */\n      0x00\n        /* \"Evm/core/base/vault.sol\":1669:1681  providerName */\n      0x01\n        /* \"Evm/core/base/vault.sol\":1663:1689  bytes(providerName).length */\n      dup1\n      sload\n      tag_81\n      swap1\n      tag_73\n      jump\t// in\n    tag_81:\n      swap1\n      pop\n        /* \"Evm/core/base/vault.sol\":1663:1693  bytes(providerName).length > 0 */\n      gt\n        /* \"Evm/core/base/vault.sol\":1655:1719  require(bytes(providerName).length > 0, \"Provider name not set\") */\n      tag_82\n      jumpi\n      mload(0x40)\n      0x08c379a000000000000000000000000000000000000000000000000000000000\n      dup2\n      mstore\n      0x04\n      add\n      tag_83\n      swap1\n      tag_84\n      jump\t// in\n    tag_83:\n      mload(0x40)\n      dup1\n      swap2\n      sub\n      swap1\n      revert\n    tag_82:\n        /* \"Evm/core/base/vault.sol\":1732:1755  bytes memory tokenBytes */\n      0x00\n        /* \"Evm/core/base/vault.sol\":1758:1775  variablesRegistry */\n      immutable(\"0x1067a32fc2bf4122310a8f066f11577e006583df65ce4c5172289c9680be102c\")\n        /* \"Evm/core/base/vault.sol\":1758:1793  variablesRegistry.getActiveVariable */\n      0xffffffffffffffffffffffffffffffffffffffff\n      and\n      0x16f1adc1\n        /* \"Evm/core/base/vault.sol\":1814:1822  tokenKey */\n      dup4\n        /* \"Evm/core/base/vault.sol\":1758:1823  variablesRegistry.getActiveVariable(\"QiaraMonadAssets\", tokenKey) */\n      mload(0x40)\n      dup3\n      0xffffffff\n      and\n      0xe0\n      shl\n      dup2\n      mstore\n      0x04\n      add\n      tag_85\n      swap2\n      swap1\n      tag_86\n      jump\t// in\n    tag_85:\n      0x00\n      mload(0x40)\n      dup1\n      dup4\n      sub\n      dup2\n      dup7\n      gas\n      staticcall\n      iszero\n      dup1\n      iszero\n      tag_88\n      jumpi\n      returndatacopy(0x00, 0x00, returndatasize)\n      revert(0x00, returndatasize)\n    tag_88:\n      pop\n      pop\n      pop\n      pop\n      mload(0x40)\n      returndatasize\n      0x00\n      dup3\n      returndatacopy\n      returndatasize\n      not(0x1f)\n      0x1f\n      dup3\n      add\n      and\n      dup3\n      add\n      dup1\n      0x40\n      mstore\n      pop\n      dup2\n      add\n      swap1\n      tag_89\n      swap2\n      swap1\n      tag_90\n      jump\t// in\n    tag_89:\n        /* \"Evm/core/base/vault.sol\":1732:1823  bytes memory tokenBytes = variablesRegistry.getActiveVariable(\"QiaraMonadAssets\", tokenKey) */\n      swap1\n      pop\n        /* \"Evm/core/base/vault.sol\":1864:1865  0 */\n      0x00\n        /* \"Evm/core/base/vault.sol\":1844:1854  tokenBytes */\n      dup2\n        /* \"Evm/core/base/vault.sol\":1844:1861  tokenBytes.length */\n      mload\n        /* \"Evm/core/base/vault.sol\":1844:1865  tokenBytes.length > 0 */\n      gt\n        /* \"Evm/core/base/vault.sol\":1836:1891  require(tokenBytes.length > 0, \"No data from registry\") */\n      tag_91\n      jumpi\n      mload(0x40)\n      0x08c379a000000000000000000000000000000000000000000000000000000000\n      dup2\n      mstore\n      0x04\n      add\n      tag_92\n      swap1\n      tag_93\n      jump\t// in\n    tag_92:\n      mload(0x40)\n      dup1\n      swap2\n      sub\n      swap1\n      revert\n    tag_91:\n        /* \"Evm/core/base/vault.sol\":1927:1929  20 */\n      0x14\n        /* \"Evm/core/base/vault.sol\":1906:1916  tokenBytes */\n      dup2\n        /* \"Evm/core/base/vault.sol\":1906:1923  tokenBytes.length */\n      mload\n        /* \"Evm/core/base/vault.sol\":1906:1929  tokenBytes.length >= 20 */\n      lt\n      iszero\n        /* \"Evm/core/base/vault.sol\":1898:1948  require(tokenBytes.length >= 20, \"Data too short\") */\n      tag_94\n      jumpi\n      mload(0x40)\n      0x08c379a000000000000000000000000000000000000000000000000000000000\n      dup2\n      mstore\n      0x04\n      add\n      tag_95\n      swap1\n      tag_96\n      jump\t// in\n    tag_95:\n      mload(0x40)\n      dup1\n      swap2\n      sub\n      swap1\n      revert\n    tag_94:\n        /* \"Evm/core/base/vault.sol\":2003:2023  address assetAddress */\n      0x00\n        /* \"Evm/core/base/vault.sol\":2088:2090  20 */\n      0x14\n        /* \"Evm/core/base/vault.sol\":2076:2086  tokenBytes */\n      dup3\n        /* \"Evm/core/base/vault.sol\":2072:2091  add(tokenBytes, 20) */\n      add\n        /* \"Evm/core/base/vault.sol\":2066:2092  mload(add(tokenBytes, 20)) */\n      mload\n        /* \"Evm/core/base/vault.sol\":2050:2092  assetAddress := mload(add(tokenBytes, 20)) */\n      swap1\n      pop\n        /* \"Evm/core/base/vault.sol\":2112:2124  assetAddress */\n      dup1\n        /* \"Evm/core/base/vault.sol\":2105:2124  return assetAddress */\n      swap4\n      pop\n      pop\n      pop\n      pop\n        /* \"Evm/core/base/vault.sol\":1479:2128  function resolveAsset(string memory assetName) public view returns (address) {... */\n      swap2\n      swap1\n      pop\n      jump\t// out\n        /* \"Evm/core/base/vault.sol\":770:818  mapping(address => bool) public isSupportedToken */\n    tag_31:\n      mstore(0x20, 0x02)\n      dup1\n      0x00\n      mstore\n      keccak256(0x00, 0x40)\n      0x00\n      swap2\n      pop\n      sload\n      swap1\n      0x0100\n      exp\n      swap1\n      div\n      0xff\n      and\n      dup2\n      jump\t// out\n        /* \"Evm/core/base/vault.sol\":2397:3441  function grantWithdrawalPermission(address user, string calldata assetName, uint256 amount, uint256 nullifier) external  {... */\n    tag_37:\n        /* \"Evm/core/base/vault.sol\":2565:2578  address token */\n      0x00\n        /* \"Evm/core/base/vault.sol\":2581:2604  resolveAsset(assetName) */\n      tag_98\n        /* \"Evm/core/base/vault.sol\":2594:2603  assetName */\n      dup6\n      dup6\n        /* \"Evm/core/base/vault.sol\":2581:2604  resolveAsset(assetName) */\n      dup1\n      dup1\n      0x1f\n      add\n      0x20\n      dup1\n      swap2\n      div\n      mul\n      0x20\n      add\n      mload(0x40)\n      swap1\n      dup2\n      add\n      0x40\n      mstore\n      dup1\n      swap4\n      swap3\n      swap2\n      swap1\n      dup2\n      dup2\n      mstore\n      0x20\n      add\n      dup4\n      dup4\n      dup1\n      dup3\n      dup5\n      calldatacopy\n      0x00\n      dup2\n      dup5\n      add\n      mstore\n      not(0x1f)\n      0x1f\n      dup3\n      add\n      and\n      swap1\n      pop\n      dup1\n      dup4\n      add\n      swap3\n      pop\n      pop\n      pop\n      pop\n      pop\n      pop\n      pop\n        /* \"Evm/core/base/vault.sol\":2581:2593  resolveAsset */\n      tag_25\n        /* \"Evm/core/base/vault.sol\":2581:2604  resolveAsset(assetName) */\n      jump\t// in\n    tag_98:\n        /* \"Evm/core/base/vault.sol\":2565:2604  address token = resolveAsset(assetName) */\n      swap1\n      pop\n        /* \"Evm/core/base/vault.sol\":2623:2639  isSupportedToken */\n      0x02\n        /* \"Evm/core/base/vault.sol\":2623:2646  isSupportedToken[token] */\n      0x00\n        /* \"Evm/core/base/vault.sol\":2640:2645  token */\n      dup3\n        /* \"Evm/core/base/vault.sol\":2623:2646  isSupportedToken[token] */\n      0xffffffffffffffffffffffffffffffffffffffff\n      and\n      0xffffffffffffffffffffffffffffffffffffffff\n      and\n      dup2\n      mstore\n      0x20\n      add\n      swap1\n      dup2\n      mstore\n      0x20\n      add\n      0x00\n      keccak256\n      0x00\n      swap1\n      sload\n      swap1\n      0x0100\n      exp\n      swap1\n      div\n      0xff\n      and\n        /* \"Evm/core/base/vault.sol\":2615:2677  require(isSupportedToken[token], \"Vault: Token not supported\") */\n      tag_99\n      jumpi\n      mload(0x40)\n      0x08c379a000000000000000000000000000000000000000000000000000000000\n      dup2\n      mstore\n      0x04\n      add\n      tag_100\n      swap1\n      tag_101\n      jump\t// in\n    tag_100:\n      mload(0x40)\n      dup1\n      swap2\n      sub\n      swap1\n      revert\n    tag_99:\n        /* \"Evm/core/base/vault.sol\":2732:2738  amount */\n      dup3\n        /* \"Evm/core/base/vault.sol\":2698:2715  claimableBalances */\n      0x03\n        /* \"Evm/core/base/vault.sol\":2698:2721  claimableBalances[user] */\n      0x00\n        /* \"Evm/core/base/vault.sol\":2716:2720  user */\n      dup9\n        /* \"Evm/core/base/vault.sol\":2698:2721  claimableBalances[user] */\n      0xffffffffffffffffffffffffffffffffffffffff\n      and\n      0xffffffffffffffffffffffffffffffffffffffff\n      and\n      dup2\n      mstore\n      0x20\n      add\n      swap1\n      dup2\n      mstore\n      0x20\n      add\n      0x00\n      keccak256\n        /* \"Evm/core/base/vault.sol\":2698:2728  claimableBalances[user][token] */\n      0x00\n        /* \"Evm/core/base/vault.sol\":2722:2727  token */\n      dup4\n        /* \"Evm/core/base/vault.sol\":2698:2728  claimableBalances[user][token] */\n      0xffffffffffffffffffffffffffffffffffffffff\n      and\n      0xffffffffffffffffffffffffffffffffffffffff\n      and\n      dup2\n      mstore\n      0x20\n      add\n      swap1\n      dup2\n      mstore\n      0x20\n      add\n      0x00\n      keccak256\n      0x00\n        /* \"Evm/core/base/vault.sol\":2698:2738  claimableBalances[user][token] += amount */\n      dup3\n      dup3\n      sload\n      tag_102\n      swap2\n      swap1\n      tag_103\n      jump\t// in\n    tag_102:\n      swap3\n      pop\n      pop\n      dup2\n      swap1\n      sstore\n      pop\n        /* \"Evm/core/base/vault.sol\":2751:2782  IEvents.Data[] memory eventData */\n      0x00\n        /* \"Evm/core/base/vault.sol\":2804:2805  6 */\n      0x06\n        /* \"Evm/core/base/vault.sol\":2785:2806  new IEvents.Data[](6) */\n      0xffffffffffffffff\n      dup2\n      gt\n      iszero\n      tag_104\n      jumpi\n      tag_105\n      tag_106\n      jump\t// in\n    tag_105:\n    tag_104:\n      mload(0x40)\n      swap1\n      dup1\n      dup3\n      mstore\n      dup1\n      0x20\n      mul\n      0x20\n      add\n      dup3\n      add\n      0x40\n      mstore\n      dup1\n      iszero\n      tag_107\n      jumpi\n      dup2\n      0x20\n      add\n    tag_108:\n      tag_109\n      tag_110\n      jump\t// in\n    tag_109:\n      dup2\n      mstore\n      0x20\n      add\n      swap1\n      0x01\n      swap1\n      sub\n      swap1\n      dup2\n      tag_108\n      jumpi\n      swap1\n      pop\n    tag_107:\n      pop\n        /* \"Evm/core/base/vault.sol\":2751:2806  IEvents.Data[] memory eventData = new IEvents.Data[](6) */\n      swap1\n      pop\n        /* \"Evm/core/base/vault.sol\":2832:2887  IEvents.Data(\"user\", \"address\", abi.encode(msg.sender)) */\n      mload(0x40)\n      dup1\n      0x60\n      add\n      0x40\n      mstore\n      dup1\n      mload(0x40)\n      dup1\n      0x40\n      add\n      0x40\n      mstore\n      dup1\n      0x04\n      dup2\n      mstore\n      0x20\n      add\n      0x7573657200000000000000000000000000000000000000000000000000000000\n      dup2\n      mstore\n      pop\n      dup2\n      mstore\n      0x20\n      add\n      mload(0x40)\n      dup1\n      0x40\n      add\n      0x40\n      mstore\n      dup1\n      0x07\n      dup2\n      mstore\n      0x20\n      add\n      0x6164647265737300000000000000000000000000000000000000000000000000\n      dup2\n      mstore\n      pop\n      dup2\n      mstore\n      0x20\n      add\n        /* \"Evm/core/base/vault.sol\":2875:2885  msg.sender */\n      caller\n        /* \"Evm/core/base/vault.sol\":2864:2886  abi.encode(msg.sender) */\n      add(0x20, mload(0x40))\n      tag_111\n      swap2\n      swap1\n      tag_27\n      jump\t// in\n    tag_111:\n      mload(0x40)\n      0x20\n      dup2\n      dup4\n      sub\n      sub\n      dup2\n      mstore\n      swap1\n      0x40\n      mstore\n        /* \"Evm/core/base/vault.sol\":2832:2887  IEvents.Data(\"user\", \"address\", abi.encode(msg.sender)) */\n      dup2\n      mstore\n      pop\n        /* \"Evm/core/base/vault.sol\":2817:2826  eventData */\n      dup2\n        /* \"Evm/core/base/vault.sol\":2827:2828  0 */\n      0x00\n        /* \"Evm/core/base/vault.sol\":2817:2829  eventData[0] */\n      dup2\n      mload\n      dup2\n      lt\n      tag_112\n      jumpi\n      tag_113\n      tag_114\n      jump\t// in\n    tag_113:\n    tag_112:\n      0x20\n      mul\n      0x20\n      add\n      add\n        /* \"Evm/core/base/vault.sol\":2817:2887  eventData[0] = IEvents.Data(\"user\", \"address\", abi.encode(msg.sender)) */\n      dup2\n      swap1\n      mstore\n      pop\n        /* \"Evm/core/base/vault.sol\":2913:2966  IEvents.Data(\"amount\", \"uint256\", abi.encode(amount)) */\n      mload(0x40)\n      dup1\n      0x60\n      add\n      0x40\n      mstore\n      dup1\n      mload(0x40)\n      dup1\n      0x40\n      add\n      0x40\n      mstore\n      dup1\n      0x06\n      dup2\n      mstore\n      0x20\n      add\n      0x616d6f756e740000000000000000000000000000000000000000000000000000\n      dup2\n      mstore\n      pop\n      dup2\n      mstore\n      0x20\n      add\n      mload(0x40)\n      dup1\n      0x40\n      add\n      0x40\n      mstore\n      dup1\n      0x07\n      dup2\n      mstore\n      0x20\n      add\n      0x75696e7432353600000000000000000000000000000000000000000000000000\n      dup2\n      mstore\n      pop\n      dup2\n      mstore\n      0x20\n      add\n        /* \"Evm/core/base/vault.sol\":2958:2964  amount */\n      dup6\n        /* \"Evm/core/base/vault.sol\":2947:2965  abi.encode(amount) */\n      add(0x20, mload(0x40))\n      tag_115\n      swap2\n      swap1\n      tag_45\n      jump\t// in\n    tag_115:\n      mload(0x40)\n      0x20\n      dup2\n      dup4\n      sub\n      sub\n      dup2\n      mstore\n      swap1\n      0x40\n      mstore\n        /* \"Evm/core/base/vault.sol\":2913:2966  IEvents.Data(\"amount\", \"uint256\", abi.encode(amount)) */\n      dup2\n      mstore\n      pop\n        /* \"Evm/core/base/vault.sol\":2898:2907  eventData */\n      dup2\n        /* \"Evm/core/base/vault.sol\":2908:2909  1 */\n      0x01\n        /* \"Evm/core/base/vault.sol\":2898:2910  eventData[1] */\n      dup2\n      mload\n      dup2\n      lt\n      tag_116\n      jumpi\n      tag_117\n      tag_114\n      jump\t// in\n    tag_117:\n    tag_116:\n      0x20\n      mul\n      0x20\n      add\n      add\n        /* \"Evm/core/base/vault.sol\":2898:2966  eventData[1] = IEvents.Data(\"amount\", \"uint256\", abi.encode(amount)) */\n      dup2\n      swap1\n      mstore\n      pop\n        /* \"Evm/core/base/vault.sol\":2992:3046  IEvents.Data(\"token\", \"string\", abi.encode(assetName)) */\n      mload(0x40)\n      dup1\n      0x60\n      add\n      0x40\n      mstore\n      dup1\n      mload(0x40)\n      dup1\n      0x40\n      add\n      0x40\n      mstore\n      dup1\n      0x05\n      dup2\n      mstore\n      0x20\n      add\n      0x746f6b656e000000000000000000000000000000000000000000000000000000\n      dup2\n      mstore\n      pop\n      dup2\n      mstore\n      0x20\n      add\n      mload(0x40)\n      dup1\n      0x40\n      add\n      0x40\n      mstore\n      dup1\n      0x06\n      dup2\n      mstore\n      0x20\n      add\n      0x737472696e670000000000000000000000000000000000000000000000000000\n      dup2\n      mstore\n      pop\n      dup2\n      mstore\n      0x20\n      add\n        /* \"Evm/core/base/vault.sol\":3035:3044  assetName */\n      dup8\n      dup8\n        /* \"Evm/core/base/vault.sol\":3024:3045  abi.encode(assetName) */\n      add(0x20, mload(0x40))\n      tag_118\n      swap3\n      swap2\n      swap1\n      tag_119\n      jump\t// in\n    tag_118:\n      mload(0x40)\n      0x20\n      dup2\n      dup4\n      sub\n      sub\n      dup2\n      mstore\n      swap1\n      0x40\n      mstore\n        /* \"Evm/core/base/vault.sol\":2992:3046  IEvents.Data(\"token\", \"string\", abi.encode(assetName)) */\n      dup2\n      mstore\n      pop\n        /* \"Evm/core/base/vault.sol\":2977:2986  eventData */\n      dup2\n        /* \"Evm/core/base/vault.sol\":2987:2988  2 */\n      0x02\n        /* \"Evm/core/base/vault.sol\":2977:2989  eventData[2] */\n      dup2\n      mload\n      dup2\n      lt\n      tag_120\n      jumpi\n      tag_121\n      tag_114\n      jump\t// in\n    tag_121:\n    tag_120:\n      0x20\n      mul\n      0x20\n      add\n      add\n        /* \"Evm/core/base/vault.sol\":2977:3046  eventData[2] = IEvents.Data(\"token\", \"string\", abi.encode(assetName)) */\n      dup2\n      swap1\n      mstore\n      pop\n        /* \"Evm/core/base/vault.sol\":3072:3132  IEvents.Data(\"provider\", \"string\", abi.encode(providerName)) */\n      mload(0x40)\n      dup1\n      0x60\n      add\n      0x40\n      mstore\n      dup1\n      mload(0x40)\n      dup1\n      0x40\n      add\n      0x40\n      mstore\n      dup1\n      0x08\n      dup2\n      mstore\n      0x20\n      add\n      0x70726f7669646572000000000000000000000000000000000000000000000000\n      dup2\n      mstore\n      pop\n      dup2\n      mstore\n      0x20\n      add\n      mload(0x40)\n      dup1\n      0x40\n      add\n      0x40\n      mstore\n      dup1\n      0x06\n      dup2\n      mstore\n      0x20\n      add\n      0x737472696e670000000000000000000000000000000000000000000000000000\n      dup2\n      mstore\n      pop\n      dup2\n      mstore\n      0x20\n      add\n        /* \"Evm/core/base/vault.sol\":3118:3130  providerName */\n      0x01\n        /* \"Evm/core/base/vault.sol\":3107:3131  abi.encode(providerName) */\n      add(0x20, mload(0x40))\n      tag_122\n      swap2\n      swap1\n      tag_123\n      jump\t// in\n    tag_122:\n      mload(0x40)\n      0x20\n      dup2\n      dup4\n      sub\n      sub\n      dup2\n      mstore\n      swap1\n      0x40\n      mstore\n        /* \"Evm/core/base/vault.sol\":3072:3132  IEvents.Data(\"provider\", \"string\", abi.encode(providerName)) */\n      dup2\n      mstore\n      pop\n        /* \"Evm/core/base/vault.sol\":3057:3066  eventData */\n      dup2\n        /* \"Evm/core/base/vault.sol\":3067:3068  3 */\n      0x03\n        /* \"Evm/core/base/vault.sol\":3057:3069  eventData[3] */\n      dup2\n      mload\n      dup2\n      lt\n      tag_124\n      jumpi\n      tag_125\n      tag_114\n      jump\t// in\n    tag_125:\n    tag_124:\n      0x20\n      mul\n      0x20\n      add\n      add\n        /* \"Evm/core/base/vault.sol\":3057:3132  eventData[3] = IEvents.Data(\"provider\", \"string\", abi.encode(providerName)) */\n      dup2\n      swap1\n      mstore\n      pop\n        /* \"Evm/core/base/vault.sol\":3158:3217  IEvents.Data(\"nullifier\", \"uint256\", abi.encode(nullifier)) */\n      mload(0x40)\n      dup1\n      0x60\n      add\n      0x40\n      mstore\n      dup1\n      mload(0x40)\n      dup1\n      0x40\n      add\n      0x40\n      mstore\n      dup1\n      0x09\n      dup2\n      mstore\n      0x20\n      add\n      0x6e756c6c69666965720000000000000000000000000000000000000000000000\n      dup2\n      mstore\n      pop\n      dup2\n      mstore\n      0x20\n      add\n      mload(0x40)\n      dup1\n      0x40\n      add\n      0x40\n      mstore\n      dup1\n      0x07\n      dup2\n      mstore\n      0x20\n      add\n      0x75696e7432353600000000000000000000000000000000000000000000000000\n      dup2\n      mstore\n      pop\n      dup2\n      mstore\n      0x20\n      add\n        /* \"Evm/core/base/vault.sol\":3206:3215  nullifier */\n      dup5\n        /* \"Evm/core/base/vault.sol\":3195:3216  abi.encode(nullifier) */\n      add(0x20, mload(0x40))\n      tag_126\n      swap2\n      swap1\n      tag_45\n      jump\t// in\n    tag_126:\n      mload(0x40)\n      0x20\n      dup2\n      dup4\n      sub\n      sub\n      dup2\n      mstore\n      swap1\n      0x40\n      mstore\n        /* \"Evm/core/base/vault.sol\":3158:3217  IEvents.Data(\"nullifier\", \"uint256\", abi.encode(nullifier)) */\n      dup2\n      mstore\n      pop\n        /* \"Evm/core/base/vault.sol\":3143:3152  eventData */\n      dup2\n        /* \"Evm/core/base/vault.sol\":3153:3154  4 */\n      0x04\n        /* \"Evm/core/base/vault.sol\":3143:3155  eventData[4] */\n      dup2\n      mload\n      dup2\n      lt\n      tag_127\n      jumpi\n      tag_128\n      tag_114\n      jump\t// in\n    tag_128:\n    tag_127:\n      0x20\n      mul\n      0x20\n      add\n      add\n        /* \"Evm/core/base/vault.sol\":3143:3217  eventData[4] = IEvents.Data(\"nullifier\", \"uint256\", abi.encode(nullifier)) */\n      dup2\n      swap1\n      mstore\n      pop\n        /* \"Evm/core/base/vault.sol\":3243:3305  IEvents.Data(\"timestamp\", \"u256\", abi.encode(block.timestamp)) */\n      mload(0x40)\n      dup1\n      0x60\n      add\n      0x40\n      mstore\n      dup1\n      mload(0x40)\n      dup1\n      0x40\n      add\n      0x40\n      mstore\n      dup1\n      0x09\n      dup2\n      mstore\n      0x20\n      add\n      0x74696d657374616d700000000000000000000000000000000000000000000000\n      dup2\n      mstore\n      pop\n      dup2\n      mstore\n      0x20\n      add\n      mload(0x40)\n      dup1\n      0x40\n      add\n      0x40\n      mstore\n      dup1\n      0x04\n      dup2\n      mstore\n      0x20\n      add\n      0x7532353600000000000000000000000000000000000000000000000000000000\n      dup2\n      mstore\n      pop\n      dup2\n      mstore\n      0x20\n      add\n        /* \"Evm/core/base/vault.sol\":3288:3303  block.timestamp */\n      timestamp\n        /* \"Evm/core/base/vault.sol\":3277:3304  abi.encode(block.timestamp) */\n      add(0x20, mload(0x40))\n      tag_129\n      swap2\n      swap1\n      tag_45\n      jump\t// in\n    tag_129:\n      mload(0x40)\n      0x20\n      dup2\n      dup4\n      sub\n      sub\n      dup2\n      mstore\n      swap1\n      0x40\n      mstore\n        /* \"Evm/core/base/vault.sol\":3243:3305  IEvents.Data(\"timestamp\", \"u256\", abi.encode(block.timestamp)) */\n      dup2\n      mstore\n      pop\n        /* \"Evm/core/base/vault.sol\":3228:3237  eventData */\n      dup2\n        /* \"Evm/core/base/vault.sol\":3238:3239  5 */\n      0x05\n        /* \"Evm/core/base/vault.sol\":3228:3240  eventData[5] */\n      dup2\n      mload\n      dup2\n      lt\n      tag_130\n      jumpi\n      tag_131\n      tag_114\n      jump\t// in\n    tag_131:\n    tag_130:\n      0x20\n      mul\n      0x20\n      add\n      add\n        /* \"Evm/core/base/vault.sol\":3228:3305  eventData[5] = IEvents.Data(\"timestamp\", \"u256\", abi.encode(block.timestamp)) */\n      dup2\n      swap1\n      mstore\n      pop\n        /* \"Evm/core/base/vault.sol\":3372:3378  events */\n      immutable(\"0xa55f93089260f97cd16ec7a717e7ade24f99065bc4509014bd14fefe4d832ab6\")\n        /* \"Evm/core/base/vault.sol\":3372:3393  events.emitVaultEvent */\n      0xffffffffffffffffffffffffffffffffffffffff\n      and\n      0x7d64fa9b\n        /* \"Evm/core/base/vault.sol\":3423:3432  eventData */\n      dup3\n        /* \"Evm/core/base/vault.sol\":3372:3433  events.emitVaultEvent(\"Grant Withdraw Permission\", eventData) */\n      mload(0x40)\n      dup3\n      0xffffffff\n      and\n      0xe0\n      shl\n      dup2\n      mstore\n      0x04\n      add\n      tag_132\n      swap2\n      swap1\n      tag_133\n      jump\t// in\n    tag_132:\n      0x00\n      mload(0x40)\n      dup1\n      dup4\n      sub\n      dup2\n      0x00\n      dup8\n      dup1\n      extcodesize\n      iszero\n      dup1\n      iszero\n      tag_134\n      jumpi\n      revert(0x00, 0x00)\n    tag_134:\n      pop\n      gas\n      call\n      iszero\n      dup1\n      iszero\n      tag_136\n      jumpi\n      returndatacopy(0x00, 0x00, returndatasize)\n      revert(0x00, returndatasize)\n    tag_136:\n      pop\n      pop\n      pop\n      pop\n        /* \"Evm/core/base/vault.sol\":2518:3441  {... */\n      pop\n      pop\n        /* \"Evm/core/base/vault.sol\":2397:3441  function grantWithdrawalPermission(address user, string calldata assetName, uint256 amount, uint256 nullifier) external  {... */\n      pop\n      pop\n      pop\n      pop\n      pop\n      jump\t// out\n        /* \"@openzeppelin/contracts/access/Ownable.sol\":2293:2394  function renounceOwnership() public virtual onlyOwner {... */\n    tag_39:\n        /* \"@openzeppelin/contracts/access/Ownable.sol\":1531:1544  _checkOwner() */\n      tag_138\n        /* \"@openzeppelin/contracts/access/Ownable.sol\":1531:1542  _checkOwner */\n      tag_139\n        /* \"@openzeppelin/contracts/access/Ownable.sol\":1531:1544  _checkOwner() */\n      jump\t// in\n    tag_138:\n        /* \"@openzeppelin/contracts/access/Ownable.sol\":2357:2387  _transferOwnership(address(0)) */\n      tag_141\n        /* \"@openzeppelin/contracts/access/Ownable.sol\":2384:2385  0 */\n      0x00\n        /* \"@openzeppelin/contracts/access/Ownable.sol\":2357:2375  _transferOwnership */\n      tag_142\n        /* \"@openzeppelin/contracts/access/Ownable.sol\":2357:2387  _transferOwnership(address(0)) */\n      jump\t// in\n    tag_141:\n        /* \"@openzeppelin/contracts/access/Ownable.sol\":2293:2394  function renounceOwnership() public virtual onlyOwner {... */\n      jump\t// out\n        /* \"Evm/core/base/vault.sol\":825:897  mapping(address => mapping(address => uint256)) public claimableBalances */\n    tag_43:\n      mstore(0x20, 0x03)\n      dup2\n      0x00\n      mstore\n      mstore(0x20, keccak256(0x00, 0x40))\n      dup1\n      0x00\n      mstore\n      keccak256(0x00, 0x40)\n      0x00\n      swap2\n      pop\n      swap2\n      pop\n      pop\n      sload\n      dup2\n      jump\t// out\n        /* \"Evm/core/base/vault.sol\":4446:5485  function withdraw(string calldata assetName, uint256 amount, address receiver) external {... */\n    tag_49:\n        /* \"Evm/core/base/vault.sol\":4545:4558  address token */\n      0x00\n        /* \"Evm/core/base/vault.sol\":4561:4584  resolveAsset(assetName) */\n      tag_144\n        /* \"Evm/core/base/vault.sol\":4574:4583  assetName */\n      dup6\n      dup6\n        /* \"Evm/core/base/vault.sol\":4561:4584  resolveAsset(assetName) */\n      dup1\n      dup1\n      0x1f\n      add\n      0x20\n      dup1\n      swap2\n      div\n      mul\n      0x20\n      add\n      mload(0x40)\n      swap1\n      dup2\n      add\n      0x40\n      mstore\n      dup1\n      swap4\n      swap3\n      swap2\n      swap1\n      dup2\n      dup2\n      mstore\n      0x20\n      add\n      dup4\n      dup4\n      dup1\n      dup3\n      dup5\n      calldatacopy\n      0x00\n      dup2\n      dup5\n      add\n      mstore\n      not(0x1f)\n      0x1f\n      dup3\n      add\n      and\n      swap1\n      pop\n      dup1\n      dup4\n      add\n      swap3\n      pop\n      pop\n      pop\n      pop\n      pop\n      pop\n      pop\n        /* \"Evm/core/base/vault.sol\":4561:4573  resolveAsset */\n      tag_25\n        /* \"Evm/core/base/vault.sol\":4561:4584  resolveAsset(assetName) */\n      jump\t// in\n    tag_144:\n        /* \"Evm/core/base/vault.sol\":4545:4584  address token = resolveAsset(assetName) */\n      swap1\n      pop\n        /* \"Evm/core/base/vault.sol\":4603:4619  isSupportedToken */\n      0x02\n        /* \"Evm/core/base/vault.sol\":4603:4626  isSupportedToken[token] */\n      0x00\n        /* \"Evm/core/base/vault.sol\":4620:4625  token */\n      dup3\n        /* \"Evm/core/base/vault.sol\":4603:4626  isSupportedToken[token] */\n      0xffffffffffffffffffffffffffffffffffffffff\n      and\n      0xffffffffffffffffffffffffffffffffffffffff\n      and\n      dup2\n      mstore\n      0x20\n      add\n      swap1\n      dup2\n      mstore\n      0x20\n      add\n      0x00\n      keccak256\n      0x00\n      swap1\n      sload\n      swap1\n      0x0100\n      exp\n      swap1\n      div\n      0xff\n      and\n        /* \"Evm/core/base/vault.sol\":4595:4657  require(isSupportedToken[token], \"Vault: Token not supported\") */\n      tag_145\n      jumpi\n      mload(0x40)\n      0x08c379a000000000000000000000000000000000000000000000000000000000\n      dup2\n      mstore\n      0x04\n      add\n      tag_146\n      swap1\n      tag_101\n      jump\t// in\n    tag_146:\n      mload(0x40)\n      dup1\n      swap2\n      sub\n      swap1\n      revert\n    tag_145:\n        /* \"Evm/core/base/vault.sol\":4686:4703  claimableBalances */\n      0x03\n        /* \"Evm/core/base/vault.sol\":4686:4715  claimableBalances[msg.sender] */\n      0x00\n        /* \"Evm/core/base/vault.sol\":4704:4714  msg.sender */\n      caller\n        /* \"Evm/core/base/vault.sol\":4686:4715  claimableBalances[msg.sender] */\n      0xffffffffffffffffffffffffffffffffffffffff\n      and\n      0xffffffffffffffffffffffffffffffffffffffff\n      and\n      dup2\n      mstore\n      0x20\n      add\n      swap1\n      dup2\n      mstore\n      0x20\n      add\n      0x00\n      keccak256\n        /* \"Evm/core/base/vault.sol\":4686:4722  claimableBalances[msg.sender][token] */\n      0x00\n        /* \"Evm/core/base/vault.sol\":4716:4721  token */\n      dup3\n        /* \"Evm/core/base/vault.sol\":4686:4722  claimableBalances[msg.sender][token] */\n      0xffffffffffffffffffffffffffffffffffffffff\n      and\n      0xffffffffffffffffffffffffffffffffffffffff\n      and\n      dup2\n      mstore\n      0x20\n      add\n      swap1\n      dup2\n      mstore\n      0x20\n      add\n      0x00\n      keccak256\n      sload\n        /* \"Evm/core/base/vault.sol\":4676:4682  amount */\n      dup4\n        /* \"Evm/core/base/vault.sol\":4676:4722  amount <= claimableBalances[msg.sender][token] */\n      gt\n      iszero\n        /* \"Evm/core/base/vault.sol\":4668:4754  require(amount <= claimableBalances[msg.sender][token], \"Vault: Insufficient balance\") */\n      tag_147\n      jumpi\n      mload(0x40)\n      0x08c379a000000000000000000000000000000000000000000000000000000000\n      dup2\n      mstore\n      0x04\n      add\n      tag_148\n      swap1\n      tag_149\n      jump\t// in\n    tag_148:\n      mload(0x40)\n      dup1\n      swap2\n      sub\n      swap1\n      revert\n    tag_147:\n        /* \"Evm/core/base/vault.sol\":4815:4821  amount */\n      dup3\n        /* \"Evm/core/base/vault.sol\":4775:4792  claimableBalances */\n      0x03\n        /* \"Evm/core/base/vault.sol\":4775:4804  claimableBalances[msg.sender] */\n      0x00\n        /* \"Evm/core/base/vault.sol\":4793:4803  msg.sender */\n      caller\n        /* \"Evm/core/base/vault.sol\":4775:4804  claimableBalances[msg.sender] */\n      0xffffffffffffffffffffffffffffffffffffffff\n      and\n      0xffffffffffffffffffffffffffffffffffffffff\n      and\n      dup2\n      mstore\n      0x20\n      add\n      swap1\n      dup2\n      mstore\n      0x20\n      add\n      0x00\n      keccak256\n        /* \"Evm/core/base/vault.sol\":4775:4811  claimableBalances[msg.sender][token] */\n      0x00\n        /* \"Evm/core/base/vault.sol\":4805:4810  token */\n      dup4\n        /* \"Evm/core/base/vault.sol\":4775:4811  claimableBalances[msg.sender][token] */\n      0xffffffffffffffffffffffffffffffffffffffff\n      and\n      0xffffffffffffffffffffffffffffffffffffffff\n      and\n      dup2\n      mstore\n      0x20\n      add\n      swap1\n      dup2\n      mstore\n      0x20\n      add\n      0x00\n      keccak256\n      0x00\n        /* \"Evm/core/base/vault.sol\":4775:4821  claimableBalances[msg.sender][token] -= amount */\n      dup3\n      dup3\n      sload\n      tag_150\n      swap2\n      swap1\n      tag_151\n      jump\t// in\n    tag_150:\n      swap3\n      pop\n      pop\n      dup2\n      swap1\n      sstore\n      pop\n        /* \"Evm/core/base/vault.sol\":4832:4876  IERC20(token).safeTransfer(receiver, amount) */\n      tag_152\n        /* \"Evm/core/base/vault.sol\":4859:4867  receiver */\n      dup3\n        /* \"Evm/core/base/vault.sol\":4869:4875  amount */\n      dup5\n        /* \"Evm/core/base/vault.sol\":4839:4844  token */\n      dup4\n        /* \"Evm/core/base/vault.sol\":4832:4858  IERC20(token).safeTransfer */\n      0xffffffffffffffffffffffffffffffffffffffff\n      and\n      tag_153\n      swap1\n        /* \"Evm/core/base/vault.sol\":4832:4876  IERC20(token).safeTransfer(receiver, amount) */\n      swap3\n      swap2\n      swap1\n      0xffffffff\n      and\n      jump\t// in\n    tag_152:\n        /* \"Evm/core/base/vault.sol\":4897:4928  IEvents.Data[] memory eventData */\n      0x00\n        /* \"Evm/core/base/vault.sol\":4950:4951  5 */\n      0x05\n        /* \"Evm/core/base/vault.sol\":4931:4952  new IEvents.Data[](5) */\n      0xffffffffffffffff\n      dup2\n      gt\n      iszero\n      tag_154\n      jumpi\n      tag_155\n      tag_106\n      jump\t// in\n    tag_155:\n    tag_154:\n      mload(0x40)\n      swap1\n      dup1\n      dup3\n      mstore\n      dup1\n      0x20\n      mul\n      0x20\n      add\n      dup3\n      add\n      0x40\n      mstore\n      dup1\n      iszero\n      tag_156\n      jumpi\n      dup2\n      0x20\n      add\n    tag_157:\n      tag_158\n      tag_110\n      jump\t// in\n    tag_158:\n      dup2\n      mstore\n      0x20\n      add\n      swap1\n      0x01\n      swap1\n      sub\n      swap1\n      dup2\n      tag_157\n      jumpi\n      swap1\n      pop\n    tag_156:\n      pop\n        /* \"Evm/core/base/vault.sol\":4897:4952  IEvents.Data[] memory eventData = new IEvents.Data[](5) */\n      swap1\n      pop\n        /* \"Evm/core/base/vault.sol\":4978:5033  IEvents.Data(\"user\", \"address\", abi.encode(msg.sender)) */\n      mload(0x40)\n      dup1\n      0x60\n      add\n      0x40\n      mstore\n      dup1\n      mload(0x40)\n      dup1\n      0x40\n      add\n      0x40\n      mstore\n      dup1\n      0x04\n      dup2\n      mstore\n      0x20\n      add\n      0x7573657200000000000000000000000000000000000000000000000000000000\n      dup2\n      mstore\n      pop\n      dup2\n      mstore\n      0x20\n      add\n      mload(0x40)\n      dup1\n      0x40\n      add\n      0x40\n      mstore\n      dup1\n      0x07\n      dup2\n      mstore\n      0x20\n      add\n      0x6164647265737300000000000000000000000000000000000000000000000000\n      dup2\n      mstore\n      pop\n      dup2\n      mstore\n      0x20\n      add\n        /* \"Evm/core/base/vault.sol\":5021:5031  msg.sender */\n      caller\n        /* \"Evm/core/base/vault.sol\":5010:5032  abi.encode(msg.sender) */\n      add(0x20, mload(0x40))\n      tag_159\n      swap2\n      swap1\n      tag_27\n      jump\t// in\n    tag_159:\n      mload(0x40)\n      0x20\n      dup2\n      dup4\n      sub\n      sub\n      dup2\n      mstore\n      swap1\n      0x40\n      mstore\n        /* \"Evm/core/base/vault.sol\":4978:5033  IEvents.Data(\"user\", \"address\", abi.encode(msg.sender)) */\n      dup2\n      mstore\n      pop\n        /* \"Evm/core/base/vault.sol\":4963:4972  eventData */\n      dup2\n        /* \"Evm/core/base/vault.sol\":4973:4974  0 */\n      0x00\n        /* \"Evm/core/base/vault.sol\":4963:4975  eventData[0] */\n      dup2\n      mload\n      dup2\n      lt\n      tag_160\n      jumpi\n      tag_161\n      tag_114\n      jump\t// in\n    tag_161:\n    tag_160:\n      0x20\n      mul\n      0x20\n      add\n      add\n        /* \"Evm/core/base/vault.sol\":4963:5033  eventData[0] = IEvents.Data(\"user\", \"address\", abi.encode(msg.sender)) */\n      dup2\n      swap1\n      mstore\n      pop\n        /* \"Evm/core/base/vault.sol\":5059:5112  IEvents.Data(\"amount\", \"uint256\", abi.encode(amount)) */\n      mload(0x40)\n      dup1\n      0x60\n      add\n      0x40\n      mstore\n      dup1\n      mload(0x40)\n      dup1\n      0x40\n      add\n      0x40\n      mstore\n      dup1\n      0x06\n      dup2\n      mstore\n      0x20\n      add\n      0x616d6f756e740000000000000000000000000000000000000000000000000000\n      dup2\n      mstore\n      pop\n      dup2\n      mstore\n      0x20\n      add\n      mload(0x40)\n      dup1\n      0x40\n      add\n      0x40\n      mstore\n      dup1\n      0x07\n      dup2\n      mstore\n      0x20\n      add\n      0x75696e7432353600000000000000000000000000000000000000000000000000\n      dup2\n      mstore\n      pop\n      dup2\n      mstore\n      0x20\n      add\n        /* \"Evm/core/base/vault.sol\":5104:5110  amount */\n      dup6\n        /* \"Evm/core/base/vault.sol\":5093:5111  abi.encode(amount) */\n      add(0x20, mload(0x40))\n      tag_162\n      swap2\n      swap1\n      tag_45\n      jump\t// in\n    tag_162:\n      mload(0x40)\n      0x20\n      dup2\n      dup4\n      sub\n      sub\n      dup2\n      mstore\n      swap1\n      0x40\n      mstore\n        /* \"Evm/core/base/vault.sol\":5059:5112  IEvents.Data(\"amount\", \"uint256\", abi.encode(amount)) */\n      dup2\n      mstore\n      pop\n        /* \"Evm/core/base/vault.sol\":5044:5053  eventData */\n      dup2\n        /* \"Evm/core/base/vault.sol\":5054:5055  1 */\n      0x01\n        /* \"Evm/core/base/vault.sol\":5044:5056  eventData[1] */\n      dup2\n      mload\n      dup2\n      lt\n      tag_163\n      jumpi\n      tag_164\n      tag_114\n      jump\t// in\n    tag_164:\n    tag_163:\n      0x20\n      mul\n      0x20\n      add\n      add\n        /* \"Evm/core/base/vault.sol\":5044:5112  eventData[1] = IEvents.Data(\"amount\", \"uint256\", abi.encode(amount)) */\n      dup2\n      swap1\n      mstore\n      pop\n        /* \"Evm/core/base/vault.sol\":5138:5192  IEvents.Data(\"token\", \"string\", abi.encode(assetName)) */\n      mload(0x40)\n      dup1\n      0x60\n      add\n      0x40\n      mstore\n      dup1\n      mload(0x40)\n      dup1\n      0x40\n      add\n      0x40\n      mstore\n      dup1\n      0x05\n      dup2\n      mstore\n      0x20\n      add\n      0x746f6b656e000000000000000000000000000000000000000000000000000000\n      dup2\n      mstore\n      pop\n      dup2\n      mstore\n      0x20\n      add\n      mload(0x40)\n      dup1\n      0x40\n      add\n      0x40\n      mstore\n      dup1\n      0x06\n      dup2\n      mstore\n      0x20\n      add\n      0x737472696e670000000000000000000000000000000000000000000000000000\n      dup2\n      mstore\n      pop\n      dup2\n      mstore\n      0x20\n      add\n        /* \"Evm/core/base/vault.sol\":5181:5190  assetName */\n      dup8\n      dup8\n        /* \"Evm/core/base/vault.sol\":5170:5191  abi.encode(assetName) */\n      add(0x20, mload(0x40))\n      tag_165\n      swap3\n      swap2\n      swap1\n      tag_119\n      jump\t// in\n    tag_165:\n      mload(0x40)\n      0x20\n      dup2\n      dup4\n      sub\n      sub\n      dup2\n      mstore\n      swap1\n      0x40\n      mstore\n        /* \"Evm/core/base/vault.sol\":5138:5192  IEvents.Data(\"token\", \"string\", abi.encode(assetName)) */\n      dup2\n      mstore\n      pop\n        /* \"Evm/core/base/vault.sol\":5123:5132  eventData */\n      dup2\n        /* \"Evm/core/base/vault.sol\":5133:5134  2 */\n      0x02\n        /* \"Evm/core/base/vault.sol\":5123:5135  eventData[2] */\n      dup2\n      mload\n      dup2\n      lt\n      tag_166\n      jumpi\n      tag_167\n      tag_114\n      jump\t// in\n    tag_167:\n    tag_166:\n      0x20\n      mul\n      0x20\n      add\n      add\n        /* \"Evm/core/base/vault.sol\":5123:5192  eventData[2] = IEvents.Data(\"token\", \"string\", abi.encode(assetName)) */\n      dup2\n      swap1\n      mstore\n      pop\n        /* \"Evm/core/base/vault.sol\":5218:5278  IEvents.Data(\"provider\", \"string\", abi.encode(providerName)) */\n      mload(0x40)\n      dup1\n      0x60\n      add\n      0x40\n      mstore\n      dup1\n      mload(0x40)\n      dup1\n      0x40\n      add\n      0x40\n      mstore\n      dup1\n      0x08\n      dup2\n      mstore\n      0x20\n      add\n      0x70726f7669646572000000000000000000000000000000000000000000000000\n      dup2\n      mstore\n      pop\n      dup2\n      mstore\n      0x20\n      add\n      mload(0x40)\n      dup1\n      0x40\n      add\n      0x40\n      mstore\n      dup1\n      0x06\n      dup2\n      mstore\n      0x20\n      add\n      0x737472696e670000000000000000000000000000000000000000000000000000\n      dup2\n      mstore\n      pop\n      dup2\n      mstore\n      0x20\n      add\n        /* \"Evm/core/base/vault.sol\":5264:5276  providerName */\n      0x01\n        /* \"Evm/core/base/vault.sol\":5253:5277  abi.encode(providerName) */\n      add(0x20, mload(0x40))\n      tag_168\n      swap2\n      swap1\n      tag_123\n      jump\t// in\n    tag_168:\n      mload(0x40)\n      0x20\n      dup2\n      dup4\n      sub\n      sub\n      dup2\n      mstore\n      swap1\n      0x40\n      mstore\n        /* \"Evm/core/base/vault.sol\":5218:5278  IEvents.Data(\"provider\", \"string\", abi.encode(providerName)) */\n      dup2\n      mstore\n      pop\n        /* \"Evm/core/base/vault.sol\":5203:5212  eventData */\n      dup2\n        /* \"Evm/core/base/vault.sol\":5213:5214  3 */\n      0x03\n        /* \"Evm/core/base/vault.sol\":5203:5215  eventData[3] */\n      dup2\n      mload\n      dup2\n      lt\n      tag_169\n      jumpi\n      tag_170\n      tag_114\n      jump\t// in\n    tag_170:\n    tag_169:\n      0x20\n      mul\n      0x20\n      add\n      add\n        /* \"Evm/core/base/vault.sol\":5203:5278  eventData[3] = IEvents.Data(\"provider\", \"string\", abi.encode(providerName)) */\n      dup2\n      swap1\n      mstore\n      pop\n        /* \"Evm/core/base/vault.sol\":5304:5366  IEvents.Data(\"timestamp\", \"u256\", abi.encode(block.timestamp)) */\n      mload(0x40)\n      dup1\n      0x60\n      add\n      0x40\n      mstore\n      dup1\n      mload(0x40)\n      dup1\n      0x40\n      add\n      0x40\n      mstore\n      dup1\n      0x09\n      dup2\n      mstore\n      0x20\n      add\n      0x74696d657374616d700000000000000000000000000000000000000000000000\n      dup2\n      mstore\n      pop\n      dup2\n      mstore\n      0x20\n      add\n      mload(0x40)\n      dup1\n      0x40\n      add\n      0x40\n      mstore\n      dup1\n      0x04\n      dup2\n      mstore\n      0x20\n      add\n      0x7532353600000000000000000000000000000000000000000000000000000000\n      dup2\n      mstore\n      pop\n      dup2\n      mstore\n      0x20\n      add\n        /* \"Evm/core/base/vault.sol\":5349:5364  block.timestamp */\n      timestamp\n        /* \"Evm/core/base/vault.sol\":5338:5365  abi.encode(block.timestamp) */\n      add(0x20, mload(0x40))\n      tag_171\n      swap2\n      swap1\n      tag_45\n      jump\t// in\n    tag_171:\n      mload(0x40)\n      0x20\n      dup2\n      dup4\n      sub\n      sub\n      dup2\n      mstore\n      swap1\n      0x40\n      mstore\n        /* \"Evm/core/base/vault.sol\":5304:5366  IEvents.Data(\"timestamp\", \"u256\", abi.encode(block.timestamp)) */\n      dup2\n      mstore\n      pop\n        /* \"Evm/core/base/vault.sol\":5289:5298  eventData */\n      dup2\n        /* \"Evm/core/base/vault.sol\":5299:5300  4 */\n      0x04\n        /* \"Evm/core/base/vault.sol\":5289:5301  eventData[4] */\n      dup2\n      mload\n      dup2\n      lt\n      tag_172\n      jumpi\n      tag_173\n      tag_114\n      jump\t// in\n    tag_173:\n    tag_172:\n      0x20\n      mul\n      0x20\n      add\n      add\n        /* \"Evm/core/base/vault.sol\":5289:5366  eventData[4] = IEvents.Data(\"timestamp\", \"u256\", abi.encode(block.timestamp)) */\n      dup2\n      swap1\n      mstore\n      pop\n        /* \"Evm/core/base/vault.sol\":5433:5439  events */\n      immutable(\"0xa55f93089260f97cd16ec7a717e7ade24f99065bc4509014bd14fefe4d832ab6\")\n        /* \"Evm/core/base/vault.sol\":5433:5454  events.emitVaultEvent */\n      0xffffffffffffffffffffffffffffffffffffffff\n      and\n      0x7d64fa9b\n        /* \"Evm/core/base/vault.sol\":5467:5476  eventData */\n      dup3\n        /* \"Evm/core/base/vault.sol\":5433:5477  events.emitVaultEvent(\"Withdraw\", eventData) */\n      mload(0x40)\n      dup3\n      0xffffffff\n      and\n      0xe0\n      shl\n      dup2\n      mstore\n      0x04\n      add\n      tag_174\n      swap2\n      swap1\n      tag_175\n      jump\t// in\n    tag_174:\n      0x00\n      mload(0x40)\n      dup1\n      dup4\n      sub\n      dup2\n      0x00\n      dup8\n      dup1\n      extcodesize\n      iszero\n      dup1\n      iszero\n      tag_176\n      jumpi\n      revert(0x00, 0x00)\n    tag_176:\n      pop\n      gas\n      call\n      iszero\n      dup1\n      iszero\n      tag_178\n      jumpi\n      returndatacopy(0x00, 0x00, returndatasize)\n      revert(0x00, returndatasize)\n    tag_178:\n      pop\n      pop\n      pop\n      pop\n        /* \"Evm/core/base/vault.sol\":4534:5485  {... */\n      pop\n      pop\n        /* \"Evm/core/base/vault.sol\":4446:5485  function withdraw(string calldata assetName, uint256 amount, address receiver) external {... */\n      pop\n      pop\n      pop\n      pop\n      jump\t// out\n        /* \"@openzeppelin/contracts/access/Ownable.sol\":1638:1723  function owner() public view virtual returns (address) {... */\n    tag_51:\n        /* \"@openzeppelin/contracts/access/Ownable.sol\":1684:1691  address */\n      0x00\n        /* \"@openzeppelin/contracts/access/Ownable.sol\":1710:1716  _owner */\n      0x00\n      0x00\n      swap1\n      sload\n      swap1\n      0x0100\n      exp\n      swap1\n      div\n      0xffffffffffffffffffffffffffffffffffffffff\n      and\n        /* \"@openzeppelin/contracts/access/Ownable.sol\":1703:1716  return _owner */\n      swap1\n      pop\n        /* \"@openzeppelin/contracts/access/Ownable.sol\":1638:1723  function owner() public view virtual returns (address) {... */\n      swap1\n      jump\t// out\n        /* \"Evm/core/base/vault.sol\":3449:4438  function deposit(string calldata assetName, uint256 amount) external {... */\n    tag_56:\n        /* \"Evm/core/base/vault.sol\":3529:3542  address token */\n      0x00\n        /* \"Evm/core/base/vault.sol\":3545:3568  resolveAsset(assetName) */\n      tag_181\n        /* \"Evm/core/base/vault.sol\":3558:3567  assetName */\n      dup5\n      dup5\n        /* \"Evm/core/base/vault.sol\":3545:3568  resolveAsset(assetName) */\n      dup1\n      dup1\n      0x1f\n      add\n      0x20\n      dup1\n      swap2\n      div\n      mul\n      0x20\n      add\n      mload(0x40)\n      swap1\n      dup2\n      add\n      0x40\n      mstore\n      dup1\n      swap4\n      swap3\n      swap2\n      swap1\n      dup2\n      dup2\n      mstore\n      0x20\n      add\n      dup4\n      dup4\n      dup1\n      dup3\n      dup5\n      calldatacopy\n      0x00\n      dup2\n      dup5\n      add\n      mstore\n      not(0x1f)\n      0x1f\n      dup3\n      add\n      and\n      swap1\n      pop\n      dup1\n      dup4\n      add\n      swap3\n      pop\n      pop\n      pop\n      pop\n      pop\n      pop\n      pop\n        /* \"Evm/core/base/vault.sol\":3545:3557  resolveAsset */\n      tag_25\n        /* \"Evm/core/base/vault.sol\":3545:3568  resolveAsset(assetName) */\n      jump\t// in\n    tag_181:\n        /* \"Evm/core/base/vault.sol\":3529:3568  address token = resolveAsset(assetName) */\n      swap1\n      pop\n        /* \"Evm/core/base/vault.sol\":3587:3603  isSupportedToken */\n      0x02\n        /* \"Evm/core/base/vault.sol\":3587:3610  isSupportedToken[token] */\n      0x00\n        /* \"Evm/core/base/vault.sol\":3604:3609  token */\n      dup3\n        /* \"Evm/core/base/vault.sol\":3587:3610  isSupportedToken[token] */\n      0xffffffffffffffffffffffffffffffffffffffff\n      and\n      0xffffffffffffffffffffffffffffffffffffffff\n      and\n      dup2\n      mstore\n      0x20\n      add\n      swap1\n      dup2\n      mstore\n      0x20\n      add\n      0x00\n      keccak256\n      0x00\n      swap1\n      sload\n      swap1\n      0x0100\n      exp\n      swap1\n      div\n      0xff\n      and\n        /* \"Evm/core/base/vault.sol\":3579:3641  require(isSupportedToken[token], \"Vault: Token not supported\") */\n      tag_182\n      jumpi\n      mload(0x40)\n      0x08c379a000000000000000000000000000000000000000000000000000000000\n      dup2\n      mstore\n      0x04\n      add\n      tag_183\n      swap1\n      tag_101\n      jump\t// in\n    tag_183:\n      mload(0x40)\n      dup1\n      swap2\n      sub\n      swap1\n      revert\n    tag_182:\n        /* \"Evm/core/base/vault.sol\":3669:3670  0 */\n      0x00\n        /* \"Evm/core/base/vault.sol\":3660:3666  amount */\n      dup3\n        /* \"Evm/core/base/vault.sol\":3660:3670  amount > 0 */\n      gt\n        /* \"Evm/core/base/vault.sol\":3652:3701  require(amount > 0, \"Vault: Deposit must be > 0\") */\n      tag_184\n      jumpi\n      mload(0x40)\n      0x08c379a000000000000000000000000000000000000000000000000000000000\n      dup2\n      mstore\n      0x04\n      add\n      tag_185\n      swap1\n      tag_186\n      jump\t// in\n    tag_185:\n      mload(0x40)\n      dup1\n      swap2\n      sub\n      swap1\n      revert\n    tag_184:\n        /* \"Evm/core/base/vault.sol\":3714:3779  IERC20(token).safeTransferFrom(msg.sender, address(this), amount) */\n      tag_187\n        /* \"Evm/core/base/vault.sol\":3745:3755  msg.sender */\n      caller\n        /* \"Evm/core/base/vault.sol\":3765:3769  this */\n      address\n        /* \"Evm/core/base/vault.sol\":3772:3778  amount */\n      dup5\n        /* \"Evm/core/base/vault.sol\":3721:3726  token */\n      dup5\n        /* \"Evm/core/base/vault.sol\":3714:3744  IERC20(token).safeTransferFrom */\n      0xffffffffffffffffffffffffffffffffffffffff\n      and\n      tag_188\n      swap1\n        /* \"Evm/core/base/vault.sol\":3714:3779  IERC20(token).safeTransferFrom(msg.sender, address(this), amount) */\n      swap4\n      swap3\n      swap2\n      swap1\n      0xffffffff\n      and\n      jump\t// in\n    tag_187:\n        /* \"Evm/core/base/vault.sol\":3830:3836  amount */\n      dup2\n        /* \"Evm/core/base/vault.sol\":3790:3807  claimableBalances */\n      0x03\n        /* \"Evm/core/base/vault.sol\":3790:3819  claimableBalances[msg.sender] */\n      0x00\n        /* \"Evm/core/base/vault.sol\":3808:3818  msg.sender */\n      caller\n        /* \"Evm/core/base/vault.sol\":3790:3819  claimableBalances[msg.sender] */\n      0xffffffffffffffffffffffffffffffffffffffff\n      and\n      0xffffffffffffffffffffffffffffffffffffffff\n      and\n      dup2\n      mstore\n      0x20\n      add\n      swap1\n      dup2\n      mstore\n      0x20\n      add\n      0x00\n      keccak256\n        /* \"Evm/core/base/vault.sol\":3790:3826  claimableBalances[msg.sender][token] */\n      0x00\n        /* \"Evm/core/base/vault.sol\":3820:3825  token */\n      dup4\n        /* \"Evm/core/base/vault.sol\":3790:3826  claimableBalances[msg.sender][token] */\n      0xffffffffffffffffffffffffffffffffffffffff\n      and\n      0xffffffffffffffffffffffffffffffffffffffff\n      and\n      dup2\n      mstore\n      0x20\n      add\n      swap1\n      dup2\n      mstore\n      0x20\n      add\n      0x00\n      keccak256\n      0x00\n        /* \"Evm/core/base/vault.sol\":3790:3836  claimableBalances[msg.sender][token] += amount */\n      dup3\n      dup3\n      sload\n      tag_189\n      swap2\n      swap1\n      tag_103\n      jump\t// in\n    tag_189:\n      swap3\n      pop\n      pop\n      dup2\n      swap1\n      sstore\n      pop\n        /* \"Evm/core/base/vault.sol\":3849:3880  IEvents.Data[] memory eventData */\n      0x00\n        /* \"Evm/core/base/vault.sol\":3902:3903  5 */\n      0x05\n        /* \"Evm/core/base/vault.sol\":3883:3904  new IEvents.Data[](5) */\n      0xffffffffffffffff\n      dup2\n      gt\n      iszero\n      tag_190\n      jumpi\n      tag_191\n      tag_106\n      jump\t// in\n    tag_191:\n    tag_190:\n      mload(0x40)\n      swap1\n      dup1\n      dup3\n      mstore\n      dup1\n      0x20\n      mul\n      0x20\n      add\n      dup3\n      add\n      0x40\n      mstore\n      dup1\n      iszero\n      tag_192\n      jumpi\n      dup2\n      0x20\n      add\n    tag_193:\n      tag_194\n      tag_110\n      jump\t// in\n    tag_194:\n      dup2\n      mstore\n      0x20\n      add\n      swap1\n      0x01\n      swap1\n      sub\n      swap1\n      dup2\n      tag_193\n      jumpi\n      swap1\n      pop\n    tag_192:\n      pop\n        /* \"Evm/core/base/vault.sol\":3849:3904  IEvents.Data[] memory eventData = new IEvents.Data[](5) */\n      swap1\n      pop\n        /* \"Evm/core/base/vault.sol\":3930:3985  IEvents.Data(\"user\", \"address\", abi.encode(msg.sender)) */\n      mload(0x40)\n      dup1\n      0x60\n      add\n      0x40\n      mstore\n      dup1\n      mload(0x40)\n      dup1\n      0x40\n      add\n      0x40\n      mstore\n      dup1\n      0x04\n      dup2\n      mstore\n      0x20\n      add\n      0x7573657200000000000000000000000000000000000000000000000000000000\n      dup2\n      mstore\n      pop\n      dup2\n      mstore\n      0x20\n      add\n      mload(0x40)\n      dup1\n      0x40\n      add\n      0x40\n      mstore\n      dup1\n      0x07\n      dup2\n      mstore\n      0x20\n      add\n      0x6164647265737300000000000000000000000000000000000000000000000000\n      dup2\n      mstore\n      pop\n      dup2\n      mstore\n      0x20\n      add\n        /* \"Evm/core/base/vault.sol\":3973:3983  msg.sender */\n      caller\n        /* \"Evm/core/base/vault.sol\":3962:3984  abi.encode(msg.sender) */\n      add(0x20, mload(0x40))\n      tag_195\n      swap2\n      swap1\n      tag_27\n      jump\t// in\n    tag_195:\n      mload(0x40)\n      0x20\n      dup2\n      dup4\n      sub\n      sub\n      dup2\n      mstore\n      swap1\n      0x40\n      mstore\n        /* \"Evm/core/base/vault.sol\":3930:3985  IEvents.Data(\"user\", \"address\", abi.encode(msg.sender)) */\n      dup2\n      mstore\n      pop\n        /* \"Evm/core/base/vault.sol\":3915:3924  eventData */\n      dup2\n        /* \"Evm/core/base/vault.sol\":3925:3926  0 */\n      0x00\n        /* \"Evm/core/base/vault.sol\":3915:3927  eventData[0] */\n      dup2\n      mload\n      dup2\n      lt\n      tag_196\n      jumpi\n      tag_197\n      tag_114\n      jump\t// in\n    tag_197:\n    tag_196:\n      0x20\n      mul\n      0x20\n      add\n      add\n        /* \"Evm/core/base/vault.sol\":3915:3985  eventData[0] = IEvents.Data(\"user\", \"address\", abi.encode(msg.sender)) */\n      dup2\n      swap1\n      mstore\n      pop\n        /* \"Evm/core/base/vault.sol\":4011:4064  IEvents.Data(\"amount\", \"uint256\", abi.encode(amount)) */\n      mload(0x40)\n      dup1\n      0x60\n      add\n      0x40\n      mstore\n      dup1\n      mload(0x40)\n      dup1\n      0x40\n      add\n      0x40\n      mstore\n      dup1\n      0x06\n      dup2\n      mstore\n      0x20\n      add\n      0x616d6f756e740000000000000000000000000000000000000000000000000000\n      dup2\n      mstore\n      pop\n      dup2\n      mstore\n      0x20\n      add\n      mload(0x40)\n      dup1\n      0x40\n      add\n      0x40\n      mstore\n      dup1\n      0x07\n      dup2\n      mstore\n      0x20\n      add\n      0x75696e7432353600000000000000000000000000000000000000000000000000\n      dup2\n      mstore\n      pop\n      dup2\n      mstore\n      0x20\n      add\n        /* \"Evm/core/base/vault.sol\":4056:4062  amount */\n      dup5\n        /* \"Evm/core/base/vault.sol\":4045:4063  abi.encode(amount) */\n      add(0x20, mload(0x40))\n      tag_198\n      swap2\n      swap1\n      tag_45\n      jump\t// in\n    tag_198:\n      mload(0x40)\n      0x20\n      dup2\n      dup4\n      sub\n      sub\n      dup2\n      mstore\n      swap1\n      0x40\n      mstore\n        /* \"Evm/core/base/vault.sol\":4011:4064  IEvents.Data(\"amount\", \"uint256\", abi.encode(amount)) */\n      dup2\n      mstore\n      pop\n        /* \"Evm/core/base/vault.sol\":3996:4005  eventData */\n      dup2\n        /* \"Evm/core/base/vault.sol\":4006:4007  1 */\n      0x01\n        /* \"Evm/core/base/vault.sol\":3996:4008  eventData[1] */\n      dup2\n      mload\n      dup2\n      lt\n      tag_199\n      jumpi\n      tag_200\n      tag_114\n      jump\t// in\n    tag_200:\n    tag_199:\n      0x20\n      mul\n      0x20\n      add\n      add\n        /* \"Evm/core/base/vault.sol\":3996:4064  eventData[1] = IEvents.Data(\"amount\", \"uint256\", abi.encode(amount)) */\n      dup2\n      swap1\n      mstore\n      pop\n        /* \"Evm/core/base/vault.sol\":4090:4144  IEvents.Data(\"token\", \"string\", abi.encode(assetName)) */\n      mload(0x40)\n      dup1\n      0x60\n      add\n      0x40\n      mstore\n      dup1\n      mload(0x40)\n      dup1\n      0x40\n      add\n      0x40\n      mstore\n      dup1\n      0x05\n      dup2\n      mstore\n      0x20\n      add\n      0x746f6b656e000000000000000000000000000000000000000000000000000000\n      dup2\n      mstore\n      pop\n      dup2\n      mstore\n      0x20\n      add\n      mload(0x40)\n      dup1\n      0x40\n      add\n      0x40\n      mstore\n      dup1\n      0x06\n      dup2\n      mstore\n      0x20\n      add\n      0x737472696e670000000000000000000000000000000000000000000000000000\n      dup2\n      mstore\n      pop\n      dup2\n      mstore\n      0x20\n      add\n        /* \"Evm/core/base/vault.sol\":4133:4142  assetName */\n      dup7\n      dup7\n        /* \"Evm/core/base/vault.sol\":4122:4143  abi.encode(assetName) */\n      add(0x20, mload(0x40))\n      tag_201\n      swap3\n      swap2\n      swap1\n      tag_119\n      jump\t// in\n    tag_201:\n      mload(0x40)\n      0x20\n      dup2\n      dup4\n      sub\n      sub\n      dup2\n      mstore\n      swap1\n      0x40\n      mstore\n        /* \"Evm/core/base/vault.sol\":4090:4144  IEvents.Data(\"token\", \"string\", abi.encode(assetName)) */\n      dup2\n      mstore\n      pop\n        /* \"Evm/core/base/vault.sol\":4075:4084  eventData */\n      dup2\n        /* \"Evm/core/base/vault.sol\":4085:4086  2 */\n      0x02\n        /* \"Evm/core/base/vault.sol\":4075:4087  eventData[2] */\n      dup2\n      mload\n      dup2\n      lt\n      tag_202\n      jumpi\n      tag_203\n      tag_114\n      jump\t// in\n    tag_203:\n    tag_202:\n      0x20\n      mul\n      0x20\n      add\n      add\n        /* \"Evm/core/base/vault.sol\":4075:4144  eventData[2] = IEvents.Data(\"token\", \"string\", abi.encode(assetName)) */\n      dup2\n      swap1\n      mstore\n      pop\n        /* \"Evm/core/base/vault.sol\":4170:4230  IEvents.Data(\"provider\", \"string\", abi.encode(providerName)) */\n      mload(0x40)\n      dup1\n      0x60\n      add\n      0x40\n      mstore\n      dup1\n      mload(0x40)\n      dup1\n      0x40\n      add\n      0x40\n      mstore\n      dup1\n      0x08\n      dup2\n      mstore\n      0x20\n      add\n      0x70726f7669646572000000000000000000000000000000000000000000000000\n      dup2\n      mstore\n      pop\n      dup2\n      mstore\n      0x20\n      add\n      mload(0x40)\n      dup1\n      0x40\n      add\n      0x40\n      mstore\n      dup1\n      0x06\n      dup2\n      mstore\n      0x20\n      add\n      0x737472696e670000000000000000000000000000000000000000000000000000\n      dup2\n      mstore\n      pop\n      dup2\n      mstore\n      0x20\n      add\n        /* \"Evm/core/base/vault.sol\":4216:4228  providerName */\n      0x01\n        /* \"Evm/core/base/vault.sol\":4205:4229  abi.encode(providerName) */\n      add(0x20, mload(0x40))\n      tag_204\n      swap2\n      swap1\n      tag_123\n      jump\t// in\n    tag_204:\n      mload(0x40)\n      0x20\n      dup2\n      dup4\n      sub\n      sub\n      dup2\n      mstore\n      swap1\n      0x40\n      mstore\n        /* \"Evm/core/base/vault.sol\":4170:4230  IEvents.Data(\"provider\", \"string\", abi.encode(providerName)) */\n      dup2\n      mstore\n      pop\n        /* \"Evm/core/base/vault.sol\":4155:4164  eventData */\n      dup2\n        /* \"Evm/core/base/vault.sol\":4165:4166  3 */\n      0x03\n        /* \"Evm/core/base/vault.sol\":4155:4167  eventData[3] */\n      dup2\n      mload\n      dup2\n      lt\n      tag_205\n      jumpi\n      tag_206\n      tag_114\n      jump\t// in\n    tag_206:\n    tag_205:\n      0x20\n      mul\n      0x20\n      add\n      add\n        /* \"Evm/core/base/vault.sol\":4155:4230  eventData[3] = IEvents.Data(\"provider\", \"string\", abi.encode(providerName)) */\n      dup2\n      swap1\n      mstore\n      pop\n        /* \"Evm/core/base/vault.sol\":4256:4318  IEvents.Data(\"timestamp\", \"u256\", abi.encode(block.timestamp)) */\n      mload(0x40)\n      dup1\n      0x60\n      add\n      0x40\n      mstore\n      dup1\n      mload(0x40)\n      dup1\n      0x40\n      add\n      0x40\n      mstore\n      dup1\n      0x09\n      dup2\n      mstore\n      0x20\n      add\n      0x74696d657374616d700000000000000000000000000000000000000000000000\n      dup2\n      mstore\n      pop\n      dup2\n      mstore\n      0x20\n      add\n      mload(0x40)\n      dup1\n      0x40\n      add\n      0x40\n      mstore\n      dup1\n      0x04\n      dup2\n      mstore\n      0x20\n      add\n      0x7532353600000000000000000000000000000000000000000000000000000000\n      dup2\n      mstore\n      pop\n      dup2\n      mstore\n      0x20\n      add\n        /* \"Evm/core/base/vault.sol\":4301:4316  block.timestamp */\n      timestamp\n        /* \"Evm/core/base/vault.sol\":4290:4317  abi.encode(block.timestamp) */\n      add(0x20, mload(0x40))\n      tag_207\n      swap2\n      swap1\n      tag_45\n      jump\t// in\n    tag_207:\n      mload(0x40)\n      0x20\n      dup2\n      dup4\n      sub\n      sub\n      dup2\n      mstore\n      swap1\n      0x40\n      mstore\n        /* \"Evm/core/base/vault.sol\":4256:4318  IEvents.Data(\"timestamp\", \"u256\", abi.encode(block.timestamp)) */\n      dup2\n      mstore\n      pop\n        /* \"Evm/core/base/vault.sol\":4241:4250  eventData */\n      dup2\n        /* \"Evm/core/base/vault.sol\":4251:4252  4 */\n      0x04\n        /* \"Evm/core/base/vault.sol\":4241:4253  eventData[4] */\n      dup2\n      mload\n      dup2\n      lt\n      tag_208\n      jumpi\n      tag_209\n      tag_114\n      jump\t// in\n    tag_209:\n    tag_208:\n      0x20\n      mul\n      0x20\n      add\n      add\n        /* \"Evm/core/base/vault.sol\":4241:4318  eventData[4] = IEvents.Data(\"timestamp\", \"u256\", abi.encode(block.timestamp)) */\n      dup2\n      swap1\n      mstore\n      pop\n        /* \"Evm/core/base/vault.sol\":4387:4393  events */\n      immutable(\"0xa55f93089260f97cd16ec7a717e7ade24f99065bc4509014bd14fefe4d832ab6\")\n        /* \"Evm/core/base/vault.sol\":4387:4408  events.emitVaultEvent */\n      0xffffffffffffffffffffffffffffffffffffffff\n      and\n      0x7d64fa9b\n        /* \"Evm/core/base/vault.sol\":4420:4429  eventData */\n      dup3\n        /* \"Evm/core/base/vault.sol\":4387:4430  events.emitVaultEvent(\"Deposit\", eventData) */\n      mload(0x40)\n      dup3\n      0xffffffff\n      and\n      0xe0\n      shl\n      dup2\n      mstore\n      0x04\n      add\n      tag_210\n      swap2\n      swap1\n      tag_211\n      jump\t// in\n    tag_210:\n      0x00\n      mload(0x40)\n      dup1\n      dup4\n      sub\n      dup2\n      0x00\n      dup8\n      dup1\n      extcodesize\n      iszero\n      dup1\n      iszero\n      tag_212\n      jumpi\n      revert(0x00, 0x00)\n    tag_212:\n      pop\n      gas\n      call\n      iszero\n      dup1\n      iszero\n      tag_214\n      jumpi\n      returndatacopy(0x00, 0x00, returndatasize)\n      revert(0x00, returndatasize)\n    tag_214:\n      pop\n      pop\n      pop\n      pop\n        /* \"Evm/core/base/vault.sol\":3518:4438  {... */\n      pop\n      pop\n        /* \"Evm/core/base/vault.sol\":3449:4438  function deposit(string calldata assetName, uint256 amount) external {... */\n      pop\n      pop\n      pop\n      jump\t// out\n        /* \"Evm/core/base/vault.sol\":696:727  IEvents public immutable events */\n    tag_58:\n      immutable(\"0xa55f93089260f97cd16ec7a717e7ade24f99065bc4509014bd14fefe4d832ab6\")\n      dup2\n      jump\t// out\n        /* \"Evm/core/base/vault.sol\":644:689  IVariables public immutable variablesRegistry */\n    tag_62:\n      immutable(\"0x1067a32fc2bf4122310a8f066f11577e006583df65ce4c5172289c9680be102c\")\n      dup2\n      jump\t// out\n        /* \"Evm/core/base/vault.sol\":2136:2387  function listNewToken(string calldata assetName) external {... */\n    tag_68:\n        /* \"Evm/core/base/vault.sol\":2205:2222  address tokenAddr */\n      0x00\n        /* \"Evm/core/base/vault.sol\":2225:2248  resolveAsset(assetName) */\n      tag_216\n        /* \"Evm/core/base/vault.sol\":2238:2247  assetName */\n      dup4\n      dup4\n        /* \"Evm/core/base/vault.sol\":2225:2248  resolveAsset(assetName) */\n      dup1\n      dup1\n      0x1f\n      add\n      0x20\n      dup1\n      swap2\n      div\n      mul\n      0x20\n      add\n      mload(0x40)\n      swap1\n      dup2\n      add\n      0x40\n      mstore\n      dup1\n      swap4\n      swap3\n      swap2\n      swap1\n      dup2\n      dup2\n      mstore\n      0x20\n      add\n      dup4\n      dup4\n      dup1\n      dup3\n      dup5\n      calldatacopy\n      0x00\n      dup2\n      dup5\n      add\n      mstore\n      not(0x1f)\n      0x1f\n      dup3\n      add\n      and\n      swap1\n      pop\n      dup1\n      dup4\n      add\n      swap3\n      pop\n      pop\n      pop\n      pop\n      pop\n      pop\n      pop\n        /* \"Evm/core/base/vault.sol\":2225:2237  resolveAsset */\n      tag_25\n        /* \"Evm/core/base/vault.sol\":2225:2248  resolveAsset(assetName) */\n      jump\t// in\n    tag_216:\n        /* \"Evm/core/base/vault.sol\":2205:2248  address tokenAddr = resolveAsset(assetName) */\n      swap1\n      pop\n        /* \"Evm/core/base/vault.sol\":2289:2293  true */\n      0x01\n        /* \"Evm/core/base/vault.sol\":2259:2275  isSupportedToken */\n      0x02\n        /* \"Evm/core/base/vault.sol\":2259:2286  isSupportedToken[tokenAddr] */\n      0x00\n        /* \"Evm/core/base/vault.sol\":2276:2285  tokenAddr */\n      dup4\n        /* \"Evm/core/base/vault.sol\":2259:2286  isSupportedToken[tokenAddr] */\n      0xffffffffffffffffffffffffffffffffffffffff\n      and\n      0xffffffffffffffffffffffffffffffffffffffff\n      and\n      dup2\n      mstore\n      0x20\n      add\n      swap1\n      dup2\n      mstore\n      0x20\n      add\n      0x00\n      keccak256\n      0x00\n        /* \"Evm/core/base/vault.sol\":2259:2293  isSupportedToken[tokenAddr] = true */\n      0x0100\n      exp\n      dup2\n      sload\n      dup2\n      0xff\n      mul\n      not\n      and\n      swap1\n      dup4\n      iszero\n      iszero\n      mul\n      or\n      swap1\n      sstore\n      pop\n        /* \"Evm/core/base/vault.sol\":2355:2364  tokenAddr */\n      dup1\n        /* \"Evm/core/base/vault.sol\":2343:2379  TokenListed(tokenAddr, providerName) */\n      0xffffffffffffffffffffffffffffffffffffffff\n      and\n      0xd57b1148efb91f418a2178fc1fb4ba12f9400a4dc8e71851fd59e85d337c609f\n        /* \"Evm/core/base/vault.sol\":2366:2378  providerName */\n      0x01\n        /* \"Evm/core/base/vault.sol\":2343:2379  TokenListed(tokenAddr, providerName) */\n      mload(0x40)\n      tag_217\n      swap2\n      swap1\n      tag_123\n      jump\t// in\n    tag_217:\n      mload(0x40)\n      dup1\n      swap2\n      sub\n      swap1\n      log2\n        /* \"Evm/core/base/vault.sol\":2194:2387  {... */\n      pop\n        /* \"Evm/core/base/vault.sol\":2136:2387  function listNewToken(string calldata assetName) external {... */\n      pop\n      pop\n      jump\t// out\n        /* \"@openzeppelin/contracts/access/Ownable.sol\":2543:2758  function transferOwnership(address newOwner) public virtual onlyOwner {... */\n    tag_71:\n        /* \"@openzeppelin/contracts/access/Ownable.sol\":1531:1544  _checkOwner() */\n      tag_219\n        /* \"@openzeppelin/contracts/access/Ownable.sol\":1531:1542  _checkOwner */\n      tag_139\n        /* \"@openzeppelin/contracts/access/Ownable.sol\":1531:1544  _checkOwner() */\n      jump\t// in\n    tag_219:\n        /* \"@openzeppelin/contracts/access/Ownable.sol\":2647:2648  0 */\n      0x00\n        /* \"@openzeppelin/contracts/access/Ownable.sol\":2627:2649  newOwner == address(0) */\n      0xffffffffffffffffffffffffffffffffffffffff\n      and\n        /* \"@openzeppelin/contracts/access/Ownable.sol\":2627:2635  newOwner */\n      dup2\n        /* \"@openzeppelin/contracts/access/Ownable.sol\":2627:2649  newOwner == address(0) */\n      0xffffffffffffffffffffffffffffffffffffffff\n      and\n      sub\n        /* \"@openzeppelin/contracts/access/Ownable.sol\":2623:2714  if (newOwner == address(0)) {... */\n      tag_221\n      jumpi\n        /* \"@openzeppelin/contracts/access/Ownable.sol\":2700:2701  0 */\n      0x00\n        /* \"@openzeppelin/contracts/access/Ownable.sol\":2672:2703  OwnableInvalidOwner(address(0)) */\n      mload(0x40)\n      0x1e4fbdf700000000000000000000000000000000000000000000000000000000\n      dup2\n      mstore\n      0x04\n      add\n      tag_222\n      swap2\n      swap1\n      tag_27\n      jump\t// in\n    tag_222:\n      mload(0x40)\n      dup1\n      swap2\n      sub\n      swap1\n      revert\n        /* \"@openzeppelin/contracts/access/Ownable.sol\":2623:2714  if (newOwner == address(0)) {... */\n    tag_221:\n        /* \"@openzeppelin/contracts/access/Ownable.sol\":2723:2751  _transferOwnership(newOwner) */\n      tag_223\n        /* \"@openzeppelin/contracts/access/Ownable.sol\":2742:2750  newOwner */\n      dup2\n        /* \"@openzeppelin/contracts/access/Ownable.sol\":2723:2741  _transferOwnership */\n      tag_142\n        /* \"@openzeppelin/contracts/access/Ownable.sol\":2723:2751  _transferOwnership(newOwner) */\n      jump\t// in\n    tag_223:\n        /* \"@openzeppelin/contracts/access/Ownable.sol\":2543:2758  function transferOwnership(address newOwner) public virtual onlyOwner {... */\n      pop\n      jump\t// out\n        /* \"@openzeppelin/contracts/access/Ownable.sol\":1796:1958  function _checkOwner() internal view virtual {... */\n    tag_139:\n        /* \"@openzeppelin/contracts/access/Ownable.sol\":1866:1878  _msgSender() */\n      tag_225\n        /* \"@openzeppelin/contracts/access/Ownable.sol\":1866:1876  _msgSender */\n      tag_226\n        /* \"@openzeppelin/contracts/access/Ownable.sol\":1866:1878  _msgSender() */\n      jump\t// in\n    tag_225:\n        /* \"@openzeppelin/contracts/access/Ownable.sol\":1855:1878  owner() != _msgSender() */\n      0xffffffffffffffffffffffffffffffffffffffff\n      and\n        /* \"@openzeppelin/contracts/access/Ownable.sol\":1855:1862  owner() */\n      tag_227\n        /* \"@openzeppelin/contracts/access/Ownable.sol\":1855:1860  owner */\n      tag_51\n        /* \"@openzeppelin/contracts/access/Ownable.sol\":1855:1862  owner() */\n      jump\t// in\n    tag_227:\n        /* \"@openzeppelin/contracts/access/Ownable.sol\":1855:1878  owner() != _msgSender() */\n      0xffffffffffffffffffffffffffffffffffffffff\n      and\n      eq\n        /* \"@openzeppelin/contracts/access/Ownable.sol\":1851:1952  if (owner() != _msgSender()) {... */\n      tag_228\n      jumpi\n        /* \"@openzeppelin/contracts/access/Ownable.sol\":1928:1940  _msgSender() */\n      tag_229\n        /* \"@openzeppelin/contracts/access/Ownable.sol\":1928:1938  _msgSender */\n      tag_226\n        /* \"@openzeppelin/contracts/access/Ownable.sol\":1928:1940  _msgSender() */\n      jump\t// in\n    tag_229:\n        /* \"@openzeppelin/contracts/access/Ownable.sol\":1901:1941  OwnableUnauthorizedAccount(_msgSender()) */\n      mload(0x40)\n      0x118cdaa700000000000000000000000000000000000000000000000000000000\n      dup2\n      mstore\n      0x04\n      add\n      tag_230\n      swap2\n      swap1\n      tag_27\n      jump\t// in\n    tag_230:\n      mload(0x40)\n      dup1\n      swap2\n      sub\n      swap1\n      revert\n        /* \"@openzeppelin/contracts/access/Ownable.sol\":1851:1952  if (owner() != _msgSender()) {... */\n    tag_228:\n        /* \"@openzeppelin/contracts/access/Ownable.sol\":1796:1958  function _checkOwner() internal view virtual {... */\n      jump\t// out\n        /* \"@openzeppelin/contracts/access/Ownable.sol\":2912:3099  function _transferOwnership(address newOwner) internal virtual {... */\n    tag_142:\n        /* \"@openzeppelin/contracts/access/Ownable.sol\":2985:3001  address oldOwner */\n      0x00\n        /* \"@openzeppelin/contracts/access/Ownable.sol\":3004:3010  _owner */\n      0x00\n      0x00\n      swap1\n      sload\n      swap1\n      0x0100\n      exp\n      swap1\n      div\n      0xffffffffffffffffffffffffffffffffffffffff\n      and\n        /* \"@openzeppelin/contracts/access/Ownable.sol\":2985:3010  address oldOwner = _owner */\n      swap1\n      pop\n        /* \"@openzeppelin/contracts/access/Ownable.sol\":3029:3037  newOwner */\n      dup2\n        /* \"@openzeppelin/contracts/access/Ownable.sol\":3020:3026  _owner */\n      0x00\n      0x00\n        /* \"@openzeppelin/contracts/access/Ownable.sol\":3020:3037  _owner = newOwner */\n      0x0100\n      exp\n      dup2\n      sload\n      dup2\n      0xffffffffffffffffffffffffffffffffffffffff\n      mul\n      not\n      and\n      swap1\n      dup4\n      0xffffffffffffffffffffffffffffffffffffffff\n      and\n      mul\n      or\n      swap1\n      sstore\n      pop\n        /* \"@openzeppelin/contracts/access/Ownable.sol\":3083:3091  newOwner */\n      dup2\n        /* \"@openzeppelin/contracts/access/Ownable.sol\":3052:3092  OwnershipTransferred(oldOwner, newOwner) */\n      0xffffffffffffffffffffffffffffffffffffffff\n      and\n        /* \"@openzeppelin/contracts/access/Ownable.sol\":3073:3081  oldOwner */\n      dup2\n        /* \"@openzeppelin/contracts/access/Ownable.sol\":3052:3092  OwnershipTransferred(oldOwner, newOwner) */\n      0xffffffffffffffffffffffffffffffffffffffff\n      and\n      0x8be0079c531659141344cd1fd0a4f28419497f9722a3daafe3b4186f6b6457e0\n      mload(0x40)\n      mload(0x40)\n      dup1\n      swap2\n      sub\n      swap1\n      log3\n        /* \"@openzeppelin/contracts/access/Ownable.sol\":2975:3099  {... */\n      pop\n        /* \"@openzeppelin/contracts/access/Ownable.sol\":2912:3099  function _transferOwnership(address newOwner) internal virtual {... */\n      pop\n      jump\t// out\n        /* \"@openzeppelin/contracts/token/ERC20/utils/SafeERC20.sol\":1219:1423  function safeTransfer(IERC20 token, address to, uint256 value) internal {... */\n    tag_153:\n        /* \"@openzeppelin/contracts/token/ERC20/utils/SafeERC20.sol\":1306:1343  _safeTransfer(token, to, value, true) */\n      tag_233\n        /* \"@openzeppelin/contracts/token/ERC20/utils/SafeERC20.sol\":1320:1325  token */\n      dup4\n        /* \"@openzeppelin/contracts/token/ERC20/utils/SafeERC20.sol\":1327:1329  to */\n      dup4\n        /* \"@openzeppelin/contracts/token/ERC20/utils/SafeERC20.sol\":1331:1336  value */\n      dup4\n        /* \"@openzeppelin/contracts/token/ERC20/utils/SafeERC20.sol\":1338:1342  true */\n      0x01\n        /* \"@openzeppelin/contracts/token/ERC20/utils/SafeERC20.sol\":1306:1319  _safeTransfer */\n      tag_234\n        /* \"@openzeppelin/contracts/token/ERC20/utils/SafeERC20.sol\":1306:1343  _safeTransfer(token, to, value, true) */\n      jump\t// in\n    tag_233:\n        /* \"@openzeppelin/contracts/token/ERC20/utils/SafeERC20.sol\":1301:1417  if (!_safeTransfer(token, to, value, true)) {... */\n      tag_235\n      jumpi\n        /* \"@openzeppelin/contracts/token/ERC20/utils/SafeERC20.sol\":1399:1404  token */\n      dup3\n        /* \"@openzeppelin/contracts/token/ERC20/utils/SafeERC20.sol\":1366:1406  SafeERC20FailedOperation(address(token)) */\n      mload(0x40)\n      0x5274afe700000000000000000000000000000000000000000000000000000000\n      dup2\n      mstore\n      0x04\n      add\n      tag_236\n      swap2\n      swap1\n      tag_27\n      jump\t// in\n    tag_236:\n      mload(0x40)\n      dup1\n      swap2\n      sub\n      swap1\n      revert\n        /* \"@openzeppelin/contracts/token/ERC20/utils/SafeERC20.sol\":1301:1417  if (!_safeTransfer(token, to, value, true)) {... */\n    tag_235:\n        /* \"@openzeppelin/contracts/token/ERC20/utils/SafeERC20.sol\":1219:1423  function safeTransfer(IERC20 token, address to, uint256 value) internal {... */\n      pop\n      pop\n      pop\n      jump\t// out\n        /* \"@openzeppelin/contracts/token/ERC20/utils/SafeERC20.sol\":1662:1894  function safeTransferFrom(IERC20 token, address from, address to, uint256 value) internal {... */\n    tag_188:\n        /* \"@openzeppelin/contracts/token/ERC20/utils/SafeERC20.sol\":1767:1814  _safeTransferFrom(token, from, to, value, true) */\n      tag_238\n        /* \"@openzeppelin/contracts/token/ERC20/utils/SafeERC20.sol\":1785:1790  token */\n      dup5\n        /* \"@openzeppelin/contracts/token/ERC20/utils/SafeERC20.sol\":1792:1796  from */\n      dup5\n        /* \"@openzeppelin/contracts/token/ERC20/utils/SafeERC20.sol\":1798:1800  to */\n      dup5\n        /* \"@openzeppelin/contracts/token/ERC20/utils/SafeERC20.sol\":1802:1807  value */\n      dup5\n        /* \"@openzeppelin/contracts/token/ERC20/utils/SafeERC20.sol\":1809:1813  true */\n      0x01\n        /* \"@openzeppelin/contracts/token/ERC20/utils/SafeERC20.sol\":1767:1784  _safeTransferFrom */\n      tag_239\n        /* \"@openzeppelin/contracts/token/ERC20/utils/SafeERC20.sol\":1767:1814  _safeTransferFrom(token, from, to, value, true) */\n      jump\t// in\n    tag_238:\n        /* \"@openzeppelin/contracts/token/ERC20/utils/SafeERC20.sol\":1762:1888  if (!_safeTransferFrom(token, from, to, value, true)) {... */\n      tag_240\n      jumpi\n        /* \"@openzeppelin/contracts/token/ERC20/utils/SafeERC20.sol\":1870:1875  token */\n      dup4\n        /* \"@openzeppelin/contracts/token/ERC20/utils/SafeERC20.sol\":1837:1877  SafeERC20FailedOperation(address(token)) */\n      mload(0x40)\n      0x5274afe700000000000000000000000000000000000000000000000000000000\n      dup2\n      mstore\n      0x04\n      add\n      tag_241\n      swap2\n      swap1\n      tag_27\n      jump\t// in\n    tag_241:\n      mload(0x40)\n      dup1\n      swap2\n      sub\n      swap1\n      revert\n        /* \"@openzeppelin/contracts/token/ERC20/utils/SafeERC20.sol\":1762:1888  if (!_safeTransferFrom(token, from, to, value, true)) {... */\n    tag_240:\n        /* \"@openzeppelin/contracts/token/ERC20/utils/SafeERC20.sol\":1662:1894  function safeTransferFrom(IERC20 token, address from, address to, uint256 value) internal {... */\n      pop\n      pop\n      pop\n      pop\n      jump\t// out\n        /* \"@openzeppelin/contracts/utils/Context.sol\":656:752  function _msgSender() internal view virtual returns (address) {... */\n    tag_226:\n        /* \"@openzeppelin/contracts/utils/Context.sol\":709:716  address */\n      0x00\n        /* \"@openzeppelin/contracts/utils/Context.sol\":735:745  msg.sender */\n      caller\n        /* \"@openzeppelin/contracts/utils/Context.sol\":728:745  return msg.sender */\n      swap1\n      pop\n        /* \"@openzeppelin/contracts/utils/Context.sol\":656:752  function _msgSender() internal view virtual returns (address) {... */\n      swap1\n      jump\t// out\n        /* \"@openzeppelin/contracts/token/ERC20/utils/SafeERC20.sol\":8373:9617  function _safeTransfer(IERC20 token, address to, uint256 value, bool bubble) private returns (bool success) {... */\n    tag_234:\n        /* \"@openzeppelin/contracts/token/ERC20/utils/SafeERC20.sol\":8467:8479  bool success */\n      0x00\n        /* \"@openzeppelin/contracts/token/ERC20/utils/SafeERC20.sol\":8491:8506  bytes4 selector */\n      0x00\n        /* \"@openzeppelin/contracts/token/ERC20/utils/SafeERC20.sol\":8509:8533  IERC20.transfer.selector */\n      shl(0xe0, 0xa9059cbb)\n        /* \"@openzeppelin/contracts/token/ERC20/utils/SafeERC20.sol\":8491:8533  bytes4 selector = IERC20.transfer.selector */\n      swap1\n      pop\n        /* \"@openzeppelin/contracts/token/ERC20/utils/SafeERC20.sol\":8600:8604  0x40 */\n      0x40\n        /* \"@openzeppelin/contracts/token/ERC20/utils/SafeERC20.sol\":8594:8605  mload(0x40) */\n      mload\n        /* \"@openzeppelin/contracts/token/ERC20/utils/SafeERC20.sol\":8631:8639  selector */\n      dup2\n        /* \"@openzeppelin/contracts/token/ERC20/utils/SafeERC20.sol\":8625:8629  0x00 */\n      0x00\n        /* \"@openzeppelin/contracts/token/ERC20/utils/SafeERC20.sol\":8618:8640  mstore(0x00, selector) */\n      mstore\n        /* \"@openzeppelin/contracts/token/ERC20/utils/SafeERC20.sol\":8686:8687  0 */\n      0x00\n        /* \"@openzeppelin/contracts/token/ERC20/utils/SafeERC20.sol\":8682:8688  not(0) */\n      not\n        /* \"@openzeppelin/contracts/token/ERC20/utils/SafeERC20.sol\":8678:8680  96 */\n      0x60\n        /* \"@openzeppelin/contracts/token/ERC20/utils/SafeERC20.sol\":8674:8689  shr(96, not(0)) */\n      shr\n        /* \"@openzeppelin/contracts/token/ERC20/utils/SafeERC20.sol\":8670:8672  to */\n      dup7\n        /* \"@openzeppelin/contracts/token/ERC20/utils/SafeERC20.sol\":8666:8690  and(to, shr(96, not(0))) */\n      and\n        /* \"@openzeppelin/contracts/token/ERC20/utils/SafeERC20.sol\":8660:8664  0x04 */\n      0x04\n        /* \"@openzeppelin/contracts/token/ERC20/utils/SafeERC20.sol\":8653:8691  mstore(0x04, and(to, shr(96, not(0)))) */\n      mstore\n        /* \"@openzeppelin/contracts/token/ERC20/utils/SafeERC20.sol\":8717:8722  value */\n      dup5\n        /* \"@openzeppelin/contracts/token/ERC20/utils/SafeERC20.sol\":8711:8715  0x24 */\n      0x24\n        /* \"@openzeppelin/contracts/token/ERC20/utils/SafeERC20.sol\":8704:8723  mstore(0x24, value) */\n      mstore\n        /* \"@openzeppelin/contracts/token/ERC20/utils/SafeERC20.sol\":8787:8791  0x20 */\n      0x20\n        /* \"@openzeppelin/contracts/token/ERC20/utils/SafeERC20.sol\":8781:8785  0x00 */\n      0x00\n        /* \"@openzeppelin/contracts/token/ERC20/utils/SafeERC20.sol\":8775:8779  0x44 */\n      0x44\n        /* \"@openzeppelin/contracts/token/ERC20/utils/SafeERC20.sol\":8769:8773  0x00 */\n      0x00\n        /* \"@openzeppelin/contracts/token/ERC20/utils/SafeERC20.sol\":8766:8767  0 */\n      0x00\n        /* \"@openzeppelin/contracts/token/ERC20/utils/SafeERC20.sol\":8759:8764  token */\n      dup12\n        /* \"@openzeppelin/contracts/token/ERC20/utils/SafeERC20.sol\":8752:8757  gas() */\n      gas\n        /* \"@openzeppelin/contracts/token/ERC20/utils/SafeERC20.sol\":8747:8792  call(gas(), token, 0, 0x00, 0x44, 0x00, 0x20) */\n      call\n        /* \"@openzeppelin/contracts/token/ERC20/utils/SafeERC20.sol\":8736:8792  success := call(gas(), token, 0, 0x00, 0x44, 0x00, 0x20) */\n      swap3\n      pop\n        /* \"@openzeppelin/contracts/token/ERC20/utils/SafeERC20.sol\":9004:9005  1 */\n      0x01\n        /* \"@openzeppelin/contracts/token/ERC20/utils/SafeERC20.sol\":8997:9001  0x00 */\n      0x00\n        /* \"@openzeppelin/contracts/token/ERC20/utils/SafeERC20.sol\":8991:9002  mload(0x00) */\n      mload\n        /* \"@openzeppelin/contracts/token/ERC20/utils/SafeERC20.sol\":8988:9006  eq(mload(0x00), 1) */\n      eq\n        /* \"@openzeppelin/contracts/token/ERC20/utils/SafeERC20.sol\":8979:8986  success */\n      dup4\n        /* \"@openzeppelin/contracts/token/ERC20/utils/SafeERC20.sol\":8975:9007  and(success, eq(mload(0x00), 1)) */\n      and\n        /* \"@openzeppelin/contracts/token/ERC20/utils/SafeERC20.sol\":8965:9571  if iszero(and(success, eq(mload(0x00), 1))) {... */\n      tag_244\n      jumpi\n        /* \"@openzeppelin/contracts/token/ERC20/utils/SafeERC20.sol\":9136:9142  bubble */\n      dup4\n        /* \"@openzeppelin/contracts/token/ERC20/utils/SafeERC20.sol\":9126:9133  success */\n      dup4\n        /* \"@openzeppelin/contracts/token/ERC20/utils/SafeERC20.sol\":9119:9134  iszero(success) */\n      iszero\n        /* \"@openzeppelin/contracts/token/ERC20/utils/SafeERC20.sol\":9115:9143  and(iszero(success), bubble) */\n      and\n        /* \"@openzeppelin/contracts/token/ERC20/utils/SafeERC20.sol\":9112:9277  if and(iszero(success), bubble) {... */\n      iszero\n      tag_245\n      jumpi\n        /* \"@openzeppelin/contracts/token/ERC20/utils/SafeERC20.sol\":9192:9208  returndatasize() */\n      returndatasize\n        /* \"@openzeppelin/contracts/token/ERC20/utils/SafeERC20.sol\":9186:9190  0x00 */\n      0x00\n        /* \"@openzeppelin/contracts/token/ERC20/utils/SafeERC20.sol\":9181:9184  fmp */\n      dup3\n        /* \"@openzeppelin/contracts/token/ERC20/utils/SafeERC20.sol\":9166:9209  returndatacopy(fmp, 0x00, returndatasize()) */\n      returndatacopy\n        /* \"@openzeppelin/contracts/token/ERC20/utils/SafeERC20.sol\":9242:9258  returndatasize() */\n      returndatasize\n        /* \"@openzeppelin/contracts/token/ERC20/utils/SafeERC20.sol\":9237:9240  fmp */\n      dup2\n        /* \"@openzeppelin/contracts/token/ERC20/utils/SafeERC20.sol\":9230:9259  revert(fmp, returndatasize()) */\n      revert\n        /* \"@openzeppelin/contracts/token/ERC20/utils/SafeERC20.sol\":9112:9277  if and(iszero(success), bubble) {... */\n    tag_245:\n        /* \"@openzeppelin/contracts/token/ERC20/utils/SafeERC20.sol\":9553:9554  0 */\n      0x00\n        /* \"@openzeppelin/contracts/token/ERC20/utils/SafeERC20.sol\":9545:9550  token */\n      dup8\n        /* \"@openzeppelin/contracts/token/ERC20/utils/SafeERC20.sol\":9533:9551  extcodesize(token) */\n      extcodesize\n        /* \"@openzeppelin/contracts/token/ERC20/utils/SafeERC20.sol\":9530:9555  gt(extcodesize(token), 0) */\n      gt\n        /* \"@openzeppelin/contracts/token/ERC20/utils/SafeERC20.sol\":9511:9527  returndatasize() */\n      returndatasize\n        /* \"@openzeppelin/contracts/token/ERC20/utils/SafeERC20.sol\":9504:9528  iszero(returndatasize()) */\n      iszero\n        /* \"@openzeppelin/contracts/token/ERC20/utils/SafeERC20.sol\":9500:9556  and(iszero(returndatasize()), gt(extcodesize(token), 0)) */\n      and\n        /* \"@openzeppelin/contracts/token/ERC20/utils/SafeERC20.sol\":9491:9498  success */\n      dup4\n        /* \"@openzeppelin/contracts/token/ERC20/utils/SafeERC20.sol\":9487:9557  and(success, and(iszero(returndatasize()), gt(extcodesize(token), 0))) */\n      and\n        /* \"@openzeppelin/contracts/token/ERC20/utils/SafeERC20.sol\":9476:9557  success := and(success, and(iszero(returndatasize()), gt(extcodesize(token), 0))) */\n      swap3\n      pop\n        /* \"@openzeppelin/contracts/token/ERC20/utils/SafeERC20.sol\":8965:9571  if iszero(and(success, eq(mload(0x00), 1))) {... */\n    tag_244:\n        /* \"@openzeppelin/contracts/token/ERC20/utils/SafeERC20.sol\":9597:9600  fmp */\n      dup1\n        /* \"@openzeppelin/contracts/token/ERC20/utils/SafeERC20.sol\":9591:9595  0x40 */\n      0x40\n        /* \"@openzeppelin/contracts/token/ERC20/utils/SafeERC20.sol\":9584:9601  mstore(0x40, fmp) */\n      mstore\n        /* \"@openzeppelin/contracts/token/ERC20/utils/SafeERC20.sol\":8569:9611  {... */\n      pop\n      pop\n        /* \"@openzeppelin/contracts/token/ERC20/utils/SafeERC20.sol\":8373:9617  function _safeTransfer(IERC20 token, address to, uint256 value, bool bubble) private returns (bool success) {... */\n      swap5\n      swap4\n      pop\n      pop\n      pop\n      pop\n      jump\t// out\n        /* \"@openzeppelin/contracts/token/ERC20/utils/SafeERC20.sol\":10165:11558  function _safeTransferFrom(... */\n    tag_239:\n        /* \"@openzeppelin/contracts/token/ERC20/utils/SafeERC20.sol\":10323:10335  bool success */\n      0x00\n        /* \"@openzeppelin/contracts/token/ERC20/utils/SafeERC20.sol\":10347:10362  bytes4 selector */\n      0x00\n        /* \"@openzeppelin/contracts/token/ERC20/utils/SafeERC20.sol\":10365:10393  IERC20.transferFrom.selector */\n      shl(0xe0, 0x23b872dd)\n        /* \"@openzeppelin/contracts/token/ERC20/utils/SafeERC20.sol\":10347:10393  bytes4 selector = IERC20.transferFrom.selector */\n      swap1\n      pop\n        /* \"@openzeppelin/contracts/token/ERC20/utils/SafeERC20.sol\":10460:10464  0x40 */\n      0x40\n        /* \"@openzeppelin/contracts/token/ERC20/utils/SafeERC20.sol\":10454:10465  mload(0x40) */\n      mload\n        /* \"@openzeppelin/contracts/token/ERC20/utils/SafeERC20.sol\":10491:10499  selector */\n      dup2\n        /* \"@openzeppelin/contracts/token/ERC20/utils/SafeERC20.sol\":10485:10489  0x00 */\n      0x00\n        /* \"@openzeppelin/contracts/token/ERC20/utils/SafeERC20.sol\":10478:10500  mstore(0x00, selector) */\n      mstore\n        /* \"@openzeppelin/contracts/token/ERC20/utils/SafeERC20.sol\":10548:10549  0 */\n      0x00\n        /* \"@openzeppelin/contracts/token/ERC20/utils/SafeERC20.sol\":10544:10550  not(0) */\n      not\n        /* \"@openzeppelin/contracts/token/ERC20/utils/SafeERC20.sol\":10540:10542  96 */\n      0x60\n        /* \"@openzeppelin/contracts/token/ERC20/utils/SafeERC20.sol\":10536:10551  shr(96, not(0)) */\n      shr\n        /* \"@openzeppelin/contracts/token/ERC20/utils/SafeERC20.sol\":10530:10534  from */\n      dup8\n        /* \"@openzeppelin/contracts/token/ERC20/utils/SafeERC20.sol\":10526:10552  and(from, shr(96, not(0))) */\n      and\n        /* \"@openzeppelin/contracts/token/ERC20/utils/SafeERC20.sol\":10520:10524  0x04 */\n      0x04\n        /* \"@openzeppelin/contracts/token/ERC20/utils/SafeERC20.sol\":10513:10553  mstore(0x04, and(from, shr(96, not(0)))) */\n      mstore\n        /* \"@openzeppelin/contracts/token/ERC20/utils/SafeERC20.sol\":10599:10600  0 */\n      0x00\n        /* \"@openzeppelin/contracts/token/ERC20/utils/SafeERC20.sol\":10595:10601  not(0) */\n      not\n        /* \"@openzeppelin/contracts/token/ERC20/utils/SafeERC20.sol\":10591:10593  96 */\n      0x60\n        /* \"@openzeppelin/contracts/token/ERC20/utils/SafeERC20.sol\":10587:10602  shr(96, not(0)) */\n      shr\n        /* \"@openzeppelin/contracts/token/ERC20/utils/SafeERC20.sol\":10583:10585  to */\n      dup7\n        /* \"@openzeppelin/contracts/token/ERC20/utils/SafeERC20.sol\":10579:10603  and(to, shr(96, not(0))) */\n      and\n        /* \"@openzeppelin/contracts/token/ERC20/utils/SafeERC20.sol\":10573:10577  0x24 */\n      0x24\n        /* \"@openzeppelin/contracts/token/ERC20/utils/SafeERC20.sol\":10566:10604  mstore(0x24, and(to, shr(96, not(0)))) */\n      mstore\n        /* \"@openzeppelin/contracts/token/ERC20/utils/SafeERC20.sol\":10630:10635  value */\n      dup5\n        /* \"@openzeppelin/contracts/token/ERC20/utils/SafeERC20.sol\":10624:10628  0x44 */\n      0x44\n        /* \"@openzeppelin/contracts/token/ERC20/utils/SafeERC20.sol\":10617:10636  mstore(0x44, value) */\n      mstore\n        /* \"@openzeppelin/contracts/token/ERC20/utils/SafeERC20.sol\":10700:10704  0x20 */\n      0x20\n        /* \"@openzeppelin/contracts/token/ERC20/utils/SafeERC20.sol\":10694:10698  0x00 */\n      0x00\n        /* \"@openzeppelin/contracts/token/ERC20/utils/SafeERC20.sol\":10688:10692  0x64 */\n      0x64\n        /* \"@openzeppelin/contracts/token/ERC20/utils/SafeERC20.sol\":10682:10686  0x00 */\n      0x00\n        /* \"@openzeppelin/contracts/token/ERC20/utils/SafeERC20.sol\":10679:10680  0 */\n      0x00\n        /* \"@openzeppelin/contracts/token/ERC20/utils/SafeERC20.sol\":10672:10677  token */\n      dup13\n        /* \"@openzeppelin/contracts/token/ERC20/utils/SafeERC20.sol\":10665:10670  gas() */\n      gas\n        /* \"@openzeppelin/contracts/token/ERC20/utils/SafeERC20.sol\":10660:10705  call(gas(), token, 0, 0x00, 0x64, 0x00, 0x20) */\n      call\n        /* \"@openzeppelin/contracts/token/ERC20/utils/SafeERC20.sol\":10649:10705  success := call(gas(), token, 0, 0x00, 0x64, 0x00, 0x20) */\n      swap3\n      pop\n        /* \"@openzeppelin/contracts/token/ERC20/utils/SafeERC20.sol\":10917:10918  1 */\n      0x01\n        /* \"@openzeppelin/contracts/token/ERC20/utils/SafeERC20.sol\":10910:10914  0x00 */\n      0x00\n        /* \"@openzeppelin/contracts/token/ERC20/utils/SafeERC20.sol\":10904:10915  mload(0x00) */\n      mload\n        /* \"@openzeppelin/contracts/token/ERC20/utils/SafeERC20.sol\":10901:10919  eq(mload(0x00), 1) */\n      eq\n        /* \"@openzeppelin/contracts/token/ERC20/utils/SafeERC20.sol\":10892:10899  success */\n      dup4\n        /* \"@openzeppelin/contracts/token/ERC20/utils/SafeERC20.sol\":10888:10920  and(success, eq(mload(0x00), 1)) */\n      and\n        /* \"@openzeppelin/contracts/token/ERC20/utils/SafeERC20.sol\":10878:11484  if iszero(and(success, eq(mload(0x00), 1))) {... */\n      tag_247\n      jumpi\n        /* \"@openzeppelin/contracts/token/ERC20/utils/SafeERC20.sol\":11049:11055  bubble */\n      dup4\n        /* \"@openzeppelin/contracts/token/ERC20/utils/SafeERC20.sol\":11039:11046  success */\n      dup4\n        /* \"@openzeppelin/contracts/token/ERC20/utils/SafeERC20.sol\":11032:11047  iszero(success) */\n      iszero\n        /* \"@openzeppelin/contracts/token/ERC20/utils/SafeERC20.sol\":11028:11056  and(iszero(success), bubble) */\n      and\n        /* \"@openzeppelin/contracts/token/ERC20/utils/SafeERC20.sol\":11025:11190  if and(iszero(success), bubble) {... */\n      iszero\n      tag_248\n      jumpi\n        /* \"@openzeppelin/contracts/token/ERC20/utils/SafeERC20.sol\":11105:11121  returndatasize() */\n      returndatasize\n        /* \"@openzeppelin/contracts/token/ERC20/utils/SafeERC20.sol\":11099:11103  0x00 */\n      0x00\n        /* \"@openzeppelin/contracts/token/ERC20/utils/SafeERC20.sol\":11094:11097  fmp */\n      dup3\n        /* \"@openzeppelin/contracts/token/ERC20/utils/SafeERC20.sol\":11079:11122  returndatacopy(fmp, 0x00, returndatasize()) */\n      returndatacopy\n        /* \"@openzeppelin/contracts/token/ERC20/utils/SafeERC20.sol\":11155:11171  returndatasize() */\n      returndatasize\n        /* \"@openzeppelin/contracts/token/ERC20/utils/SafeERC20.sol\":11150:11153  fmp */\n      dup2\n        /* \"@openzeppelin/contracts/token/ERC20/utils/SafeERC20.sol\":11143:11172  revert(fmp, returndatasize()) */\n      revert\n        /* \"@openzeppelin/contracts/token/ERC20/utils/SafeERC20.sol\":11025:11190  if and(iszero(success), bubble) {... */\n    tag_248:\n        /* \"@openzeppelin/contracts/token/ERC20/utils/SafeERC20.sol\":11466:11467  0 */\n      0x00\n        /* \"@openzeppelin/contracts/token/ERC20/utils/SafeERC20.sol\":11458:11463  token */\n      dup9\n        /* \"@openzeppelin/contracts/token/ERC20/utils/SafeERC20.sol\":11446:11464  extcodesize(token) */\n      extcodesize\n        /* \"@openzeppelin/contracts/token/ERC20/utils/SafeERC20.sol\":11443:11468  gt(extcodesize(token), 0) */\n      gt\n        /* \"@openzeppelin/contracts/token/ERC20/utils/SafeERC20.sol\":11424:11440  returndatasize() */\n      returndatasize\n        /* \"@openzeppelin/contracts/token/ERC20/utils/SafeERC20.sol\":11417:11441  iszero(returndatasize()) */\n      iszero\n        /* \"@openzeppelin/contracts/token/ERC20/utils/SafeERC20.sol\":11413:11469  and(iszero(returndatasize()), gt(extcodesize(token), 0)) */\n      and\n        /* \"@openzeppelin/contracts/token/ERC20/utils/SafeERC20.sol\":11404:11411  success */\n      dup4\n        /* \"@openzeppelin/contracts/token/ERC20/utils/SafeERC20.sol\":11400:11470  and(success, and(iszero(returndatasize()), gt(extcodesize(token), 0))) */\n      and\n        /* \"@openzeppelin/contracts/token/ERC20/utils/SafeERC20.sol\":11389:11470  success := and(success, and(iszero(returndatasize()), gt(extcodesize(token), 0))) */\n      swap3\n      pop\n        /* \"@openzeppelin/contracts/token/ERC20/utils/SafeERC20.sol\":10878:11484  if iszero(and(success, eq(mload(0x00), 1))) {... */\n    tag_247:\n        /* \"@openzeppelin/contracts/token/ERC20/utils/SafeERC20.sol\":11510:11513  fmp */\n      dup1\n        /* \"@openzeppelin/contracts/token/ERC20/utils/SafeERC20.sol\":11504:11508  0x40 */\n      0x40\n        /* \"@openzeppelin/contracts/token/ERC20/utils/SafeERC20.sol\":11497:11514  mstore(0x40, fmp) */\n      mstore\n        /* \"@openzeppelin/contracts/token/ERC20/utils/SafeERC20.sol\":11540:11541  0 */\n      0x00\n        /* \"@openzeppelin/contracts/token/ERC20/utils/SafeERC20.sol\":11534:11538  0x60 */\n      0x60\n        /* \"@openzeppelin/contracts/token/ERC20/utils/SafeERC20.sol\":11527:11542  mstore(0x60, 0) */\n      mstore\n        /* \"@openzeppelin/contracts/token/ERC20/utils/SafeERC20.sol\":10429:11552  {... */\n      pop\n      pop\n        /* \"@openzeppelin/contracts/token/ERC20/utils/SafeERC20.sol\":10165:11558  function _safeTransferFrom(... */\n      swap6\n      swap5\n      pop\n      pop\n      pop\n      pop\n      pop\n      jump\t// out\n    tag_110:\n      mload(0x40)\n      dup1\n      0x60\n      add\n      0x40\n      mstore\n      dup1\n      0x60\n      dup2\n      mstore\n      0x20\n      add\n      0x60\n      dup2\n      mstore\n      0x20\n      add\n      0x60\n      dup2\n      mstore\n      pop\n      swap1\n      jump\t// out\n        /* \"#utility.yul\":7:106   */\n    tag_249:\n        /* \"#utility.yul\":59:65   */\n      0x00\n        /* \"#utility.yul\":93:98   */\n      dup2\n        /* \"#utility.yul\":87:99   */\n      mload\n        /* \"#utility.yul\":77:99   */\n      swap1\n      pop\n        /* \"#utility.yul\":7:106   */\n      swap2\n      swap1\n      pop\n      jump\t// out\n        /* \"#utility.yul\":112:281   */\n    tag_250:\n        /* \"#utility.yul\":196:207   */\n      0x00\n        /* \"#utility.yul\":230:236   */\n      dup3\n        /* \"#utility.yul\":225:228   */\n      dup3\n        /* \"#utility.yul\":218:237   */\n      mstore\n        /* \"#utility.yul\":270:274   */\n      0x20\n        /* \"#utility.yul\":265:268   */\n      dup3\n        /* \"#utility.yul\":261:275   */\n      add\n        /* \"#utility.yul\":246:275   */\n      swap1\n      pop\n        /* \"#utility.yul\":112:281   */\n      swap3\n      swap2\n      pop\n      pop\n      jump\t// out\n        /* \"#utility.yul\":287:426   */\n    tag_251:\n        /* \"#utility.yul\":376:382   */\n      dup3\n        /* \"#utility.yul\":371:374   */\n      dup2\n        /* \"#utility.yul\":366:369   */\n      dup4\n        /* \"#utility.yul\":360:383   */\n      mcopy\n        /* \"#utility.yul\":417:418   */\n      0x00\n        /* \"#utility.yul\":408:414   */\n      dup4\n        /* \"#utility.yul\":403:406   */\n      dup4\n        /* \"#utility.yul\":399:415   */\n      add\n        /* \"#utility.yul\":392:419   */\n      mstore\n        /* \"#utility.yul\":287:426   */\n      pop\n      pop\n      pop\n      jump\t// out\n        /* \"#utility.yul\":432:534   */\n    tag_252:\n        /* \"#utility.yul\":473:479   */\n      0x00\n        /* \"#utility.yul\":524:526   */\n      0x1f\n        /* \"#utility.yul\":520:527   */\n      not\n        /* \"#utility.yul\":515:517   */\n      0x1f\n        /* \"#utility.yul\":508:513   */\n      dup4\n        /* \"#utility.yul\":504:518   */\n      add\n        /* \"#utility.yul\":500:528   */\n      and\n        /* \"#utility.yul\":490:528   */\n      swap1\n      pop\n        /* \"#utility.yul\":432:534   */\n      swap2\n      swap1\n      pop\n      jump\t// out\n        /* \"#utility.yul\":540:917   */\n    tag_253:\n        /* \"#utility.yul\":628:631   */\n      0x00\n        /* \"#utility.yul\":656:695   */\n      tag_337\n        /* \"#utility.yul\":689:694   */\n      dup3\n        /* \"#utility.yul\":656:695   */\n      tag_249\n      jump\t// in\n    tag_337:\n        /* \"#utility.yul\":711:782   */\n      tag_338\n        /* \"#utility.yul\":775:781   */\n      dup2\n        /* \"#utility.yul\":770:773   */\n      dup6\n        /* \"#utility.yul\":711:782   */\n      tag_250\n      jump\t// in\n    tag_338:\n        /* \"#utility.yul\":704:782   */\n      swap4\n      pop\n        /* \"#utility.yul\":791:856   */\n      tag_339\n        /* \"#utility.yul\":849:855   */\n      dup2\n        /* \"#utility.yul\":844:847   */\n      dup6\n        /* \"#utility.yul\":837:841   */\n      0x20\n        /* \"#utility.yul\":830:835   */\n      dup7\n        /* \"#utility.yul\":826:842   */\n      add\n        /* \"#utility.yul\":791:856   */\n      tag_251\n      jump\t// in\n    tag_339:\n        /* \"#utility.yul\":881:910   */\n      tag_340\n        /* \"#utility.yul\":903:909   */\n      dup2\n        /* \"#utility.yul\":881:910   */\n      tag_252\n      jump\t// in\n    tag_340:\n        /* \"#utility.yul\":876:879   */\n      dup5\n        /* \"#utility.yul\":872:911   */\n      add\n        /* \"#utility.yul\":865:911   */\n      swap2\n      pop\n        /* \"#utility.yul\":632:917   */\n      pop\n        /* \"#utility.yul\":540:917   */\n      swap3\n      swap2\n      pop\n      pop\n      jump\t// out\n        /* \"#utility.yul\":923:1236   */\n    tag_21:\n        /* \"#utility.yul\":1036:1040   */\n      0x00\n        /* \"#utility.yul\":1074:1076   */\n      0x20\n        /* \"#utility.yul\":1063:1072   */\n      dup3\n        /* \"#utility.yul\":1059:1077   */\n      add\n        /* \"#utility.yul\":1051:1077   */\n      swap1\n      pop\n        /* \"#utility.yul\":1123:1132   */\n      dup2\n        /* \"#utility.yul\":1117:1121   */\n      dup2\n        /* \"#utility.yul\":1113:1133   */\n      sub\n        /* \"#utility.yul\":1109:1110   */\n      0x00\n        /* \"#utility.yul\":1098:1107   */\n      dup4\n        /* \"#utility.yul\":1094:1111   */\n      add\n        /* \"#utility.yul\":1087:1134   */\n      mstore\n        /* \"#utility.yul\":1151:1229   */\n      tag_342\n        /* \"#utility.yul\":1224:1228   */\n      dup2\n        /* \"#utility.yul\":1215:1221   */\n      dup5\n        /* \"#utility.yul\":1151:1229   */\n      tag_253\n      jump\t// in\n    tag_342:\n        /* \"#utility.yul\":1143:1229   */\n      swap1\n      pop\n        /* \"#utility.yul\":923:1236   */\n      swap3\n      swap2\n      pop\n      pop\n      jump\t// out\n        /* \"#utility.yul\":1242:1317   */\n    tag_254:\n        /* \"#utility.yul\":1275:1281   */\n      0x00\n        /* \"#utility.yul\":1308:1310   */\n      0x40\n        /* \"#utility.yul\":1302:1311   */\n      mload\n        /* \"#utility.yul\":1292:1311   */\n      swap1\n      pop\n        /* \"#utility.yul\":1242:1317   */\n      swap1\n      jump\t// out\n        /* \"#utility.yul\":1323:1440   */\n    tag_255:\n        /* \"#utility.yul\":1432:1433   */\n      0x00\n        /* \"#utility.yul\":1429:1430   */\n      0x00\n        /* \"#utility.yul\":1422:1434   */\n      revert\n        /* \"#utility.yul\":1446:1563   */\n    tag_256:\n        /* \"#utility.yul\":1555:1556   */\n      0x00\n        /* \"#utility.yul\":1552:1553   */\n      0x00\n        /* \"#utility.yul\":1545:1557   */\n      revert\n        /* \"#utility.yul\":1569:1686   */\n    tag_257:\n        /* \"#utility.yul\":1678:1679   */\n      0x00\n        /* \"#utility.yul\":1675:1676   */\n      0x00\n        /* \"#utility.yul\":1668:1680   */\n      revert\n        /* \"#utility.yul\":1692:1809   */\n    tag_258:\n        /* \"#utility.yul\":1801:1802   */\n      0x00\n        /* \"#utility.yul\":1798:1799   */\n      0x00\n        /* \"#utility.yul\":1791:1803   */\n      revert\n        /* \"#utility.yul\":1815:1995   */\n    tag_106:\n        /* \"#utility.yul\":1863:1940   */\n      0x4e487b7100000000000000000000000000000000000000000000000000000000\n        /* \"#utility.yul\":1860:1861   */\n      0x00\n        /* \"#utility.yul\":1853:1941   */\n      mstore\n        /* \"#utility.yul\":1960:1964   */\n      0x41\n        /* \"#utility.yul\":1957:1958   */\n      0x04\n        /* \"#utility.yul\":1950:1965   */\n      mstore\n        /* \"#utility.yul\":1984:1988   */\n      0x24\n        /* \"#utility.yul\":1981:1982   */\n      0x00\n        /* \"#utility.yul\":1974:1989   */\n      revert\n        /* \"#utility.yul\":2001:2282   */\n    tag_259:\n        /* \"#utility.yul\":2084:2111   */\n      tag_350\n        /* \"#utility.yul\":2106:2110   */\n      dup3\n        /* \"#utility.yul\":2084:2111   */\n      tag_252\n      jump\t// in\n    tag_350:\n        /* \"#utility.yul\":2076:2082   */\n      dup2\n        /* \"#utility.yul\":2072:2112   */\n      add\n        /* \"#utility.yul\":2214:2220   */\n      dup2\n        /* \"#utility.yul\":2202:2212   */\n      dup2\n        /* \"#utility.yul\":2199:2221   */\n      lt\n        /* \"#utility.yul\":2178:2196   */\n      0xffffffffffffffff\n        /* \"#utility.yul\":2166:2176   */\n      dup3\n        /* \"#utility.yul\":2163:2197   */\n      gt\n        /* \"#utility.yul\":2160:2222   */\n      or\n        /* \"#utility.yul\":2157:2245   */\n      iszero\n      tag_351\n      jumpi\n        /* \"#utility.yul\":2225:2243   */\n      tag_352\n      tag_106\n      jump\t// in\n    tag_352:\n        /* \"#utility.yul\":2157:2245   */\n    tag_351:\n        /* \"#utility.yul\":2265:2275   */\n      dup1\n        /* \"#utility.yul\":2261:2263   */\n      0x40\n        /* \"#utility.yul\":2254:2276   */\n      mstore\n        /* \"#utility.yul\":2044:2282   */\n      pop\n        /* \"#utility.yul\":2001:2282   */\n      pop\n      pop\n      jump\t// out\n        /* \"#utility.yul\":2288:2417   */\n    tag_260:\n        /* \"#utility.yul\":2322:2328   */\n      0x00\n        /* \"#utility.yul\":2349:2369   */\n      tag_354\n      tag_254\n      jump\t// in\n    tag_354:\n        /* \"#utility.yul\":2339:2369   */\n      swap1\n      pop\n        /* \"#utility.yul\":2378:2411   */\n      tag_355\n        /* \"#utility.yul\":2406:2410   */\n      dup3\n        /* \"#utility.yul\":2398:2404   */\n      dup3\n        /* \"#utility.yul\":2378:2411   */\n      tag_259\n      jump\t// in\n    tag_355:\n        /* \"#utility.yul\":2288:2417   */\n      swap2\n      swap1\n      pop\n      jump\t// out\n        /* \"#utility.yul\":2423:2731   */\n    tag_261:\n        /* \"#utility.yul\":2485:2489   */\n      0x00\n        /* \"#utility.yul\":2575:2593   */\n      0xffffffffffffffff\n        /* \"#utility.yul\":2567:2573   */\n      dup3\n        /* \"#utility.yul\":2564:2594   */\n      gt\n        /* \"#utility.yul\":2561:2617   */\n      iszero\n      tag_357\n      jumpi\n        /* \"#utility.yul\":2597:2615   */\n      tag_358\n      tag_106\n      jump\t// in\n    tag_358:\n        /* \"#utility.yul\":2561:2617   */\n    tag_357:\n        /* \"#utility.yul\":2635:2664   */\n      tag_359\n        /* \"#utility.yul\":2657:2663   */\n      dup3\n        /* \"#utility.yul\":2635:2664   */\n      tag_252\n      jump\t// in\n    tag_359:\n        /* \"#utility.yul\":2627:2664   */\n      swap1\n      pop\n        /* \"#utility.yul\":2719:2723   */\n      0x20\n        /* \"#utility.yul\":2713:2717   */\n      dup2\n        /* \"#utility.yul\":2709:2724   */\n      add\n        /* \"#utility.yul\":2701:2724   */\n      swap1\n      pop\n        /* \"#utility.yul\":2423:2731   */\n      swap2\n      swap1\n      pop\n      jump\t// out\n        /* \"#utility.yul\":2737:2885   */\n    tag_262:\n        /* \"#utility.yul\":2835:2841   */\n      dup3\n        /* \"#utility.yul\":2830:2833   */\n      dup2\n        /* \"#utility.yul\":2825:2828   */\n      dup4\n        /* \"#utility.yul\":2812:2842   */\n      calldatacopy\n        /* \"#utility.yul\":2876:2877   */\n      0x00\n        /* \"#utility.yul\":2867:2873   */\n      dup4\n        /* \"#utility.yul\":2862:2865   */\n      dup4\n        /* \"#utility.yul\":2858:2874   */\n      add\n        /* \"#utility.yul\":2851:2878   */\n      mstore\n        /* \"#utility.yul\":2737:2885   */\n      pop\n      pop\n      pop\n      jump\t// out\n        /* \"#utility.yul\":2891:3316   */\n    tag_263:\n        /* \"#utility.yul\":2969:2974   */\n      0x00\n        /* \"#utility.yul\":2994:3060   */\n      tag_362\n        /* \"#utility.yul\":3010:3059   */\n      tag_363\n        /* \"#utility.yul\":3052:3058   */\n      dup5\n        /* \"#utility.yul\":3010:3059   */\n      tag_261\n      jump\t// in\n    tag_363:\n        /* \"#utility.yul\":2994:3060   */\n      tag_260\n      jump\t// in\n    tag_362:\n        /* \"#utility.yul\":2985:3060   */\n      swap1\n      pop\n        /* \"#utility.yul\":3083:3089   */\n      dup3\n        /* \"#utility.yul\":3076:3081   */\n      dup2\n        /* \"#utility.yul\":3069:3090   */\n      mstore\n        /* \"#utility.yul\":3121:3125   */\n      0x20\n        /* \"#utility.yul\":3114:3119   */\n      dup2\n        /* \"#utility.yul\":3110:3126   */\n      add\n        /* \"#utility.yul\":3159:3162   */\n      dup5\n        /* \"#utility.yul\":3150:3156   */\n      dup5\n        /* \"#utility.yul\":3145:3148   */\n      dup5\n        /* \"#utility.yul\":3141:3157   */\n      add\n        /* \"#utility.yul\":3138:3163   */\n      gt\n        /* \"#utility.yul\":3135:3247   */\n      iszero\n      tag_364\n      jumpi\n        /* \"#utility.yul\":3166:3245   */\n      tag_365\n      tag_258\n      jump\t// in\n    tag_365:\n        /* \"#utility.yul\":3135:3247   */\n    tag_364:\n        /* \"#utility.yul\":3256:3310   */\n      tag_366\n        /* \"#utility.yul\":3303:3309   */\n      dup5\n        /* \"#utility.yul\":3298:3301   */\n      dup3\n        /* \"#utility.yul\":3293:3296   */\n      dup6\n        /* \"#utility.yul\":3256:3310   */\n      tag_262\n      jump\t// in\n    tag_366:\n        /* \"#utility.yul\":2975:3316   */\n      pop\n        /* \"#utility.yul\":2891:3316   */\n      swap4\n      swap3\n      pop\n      pop\n      pop\n      jump\t// out\n        /* \"#utility.yul\":3336:3676   */\n    tag_264:\n        /* \"#utility.yul\":3392:3397   */\n      0x00\n        /* \"#utility.yul\":3441:3444   */\n      dup3\n        /* \"#utility.yul\":3434:3438   */\n      0x1f\n        /* \"#utility.yul\":3426:3432   */\n      dup4\n        /* \"#utility.yul\":3422:3439   */\n      add\n        /* \"#utility.yul\":3418:3445   */\n      slt\n        /* \"#utility.yul\":3408:3530   */\n      tag_368\n      jumpi\n        /* \"#utility.yul\":3449:3528   */\n      tag_369\n      tag_257\n      jump\t// in\n    tag_369:\n        /* \"#utility.yul\":3408:3530   */\n    tag_368:\n        /* \"#utility.yul\":3566:3572   */\n      dup2\n        /* \"#utility.yul\":3553:3573   */\n      calldataload\n        /* \"#utility.yul\":3591:3670   */\n      tag_370\n        /* \"#utility.yul\":3666:3669   */\n      dup5\n        /* \"#utility.yul\":3658:3664   */\n      dup3\n        /* \"#utility.yul\":3651:3655   */\n      0x20\n        /* \"#utility.yul\":3643:3649   */\n      dup7\n        /* \"#utility.yul\":3639:3656   */\n      add\n        /* \"#utility.yul\":3591:3670   */\n      tag_263\n      jump\t// in\n    tag_370:\n        /* \"#utility.yul\":3582:3670   */\n      swap2\n      pop\n        /* \"#utility.yul\":3398:3676   */\n      pop\n        /* \"#utility.yul\":3336:3676   */\n      swap3\n      swap2\n      pop\n      pop\n      jump\t// out\n        /* \"#utility.yul\":3682:4191   */\n    tag_24:\n        /* \"#utility.yul\":3751:3757   */\n      0x00\n        /* \"#utility.yul\":3800:3802   */\n      0x20\n        /* \"#utility.yul\":3788:3797   */\n      dup3\n        /* \"#utility.yul\":3779:3786   */\n      dup5\n        /* \"#utility.yul\":3775:3798   */\n      sub\n        /* \"#utility.yul\":3771:3803   */\n      slt\n        /* \"#utility.yul\":3768:3887   */\n      iszero\n      tag_372\n      jumpi\n        /* \"#utility.yul\":3806:3885   */\n      tag_373\n      tag_255\n      jump\t// in\n    tag_373:\n        /* \"#utility.yul\":3768:3887   */\n    tag_372:\n        /* \"#utility.yul\":3954:3955   */\n      0x00\n        /* \"#utility.yul\":3943:3952   */\n      dup3\n        /* \"#utility.yul\":3939:3956   */\n      add\n        /* \"#utility.yul\":3926:3957   */\n      calldataload\n        /* \"#utility.yul\":3984:4002   */\n      0xffffffffffffffff\n        /* \"#utility.yul\":3976:3982   */\n      dup2\n        /* \"#utility.yul\":3973:4003   */\n      gt\n        /* \"#utility.yul\":3970:4087   */\n      iszero\n      tag_374\n      jumpi\n        /* \"#utility.yul\":4006:4085   */\n      tag_375\n      tag_256\n      jump\t// in\n    tag_375:\n        /* \"#utility.yul\":3970:4087   */\n    tag_374:\n        /* \"#utility.yul\":4111:4174   */\n      tag_376\n        /* \"#utility.yul\":4166:4173   */\n      dup5\n        /* \"#utility.yul\":4157:4163   */\n      dup3\n        /* \"#utility.yul\":4146:4155   */\n      dup6\n        /* \"#utility.yul\":4142:4164   */\n      add\n        /* \"#utility.yul\":4111:4174   */\n      tag_264\n      jump\t// in\n    tag_376:\n        /* \"#utility.yul\":4101:4174   */\n      swap2\n      pop\n        /* \"#utility.yul\":3897:4184   */\n      pop\n        /* \"#utility.yul\":3682:4191   */\n      swap3\n      swap2\n      pop\n      pop\n      jump\t// out\n        /* \"#utility.yul\":4197:4323   */\n    tag_265:\n        /* \"#utility.yul\":4234:4241   */\n      0x00\n        /* \"#utility.yul\":4274:4316   */\n      0xffffffffffffffffffffffffffffffffffffffff\n        /* \"#utility.yul\":4267:4272   */\n      dup3\n        /* \"#utility.yul\":4263:4317   */\n      and\n        /* \"#utility.yul\":4252:4317   */\n      swap1\n      pop\n        /* \"#utility.yul\":4197:4323   */\n      swap2\n      swap1\n      pop\n      jump\t// out\n        /* \"#utility.yul\":4329:4425   */\n    tag_266:\n        /* \"#utility.yul\":4366:4373   */\n      0x00\n        /* \"#utility.yul\":4395:4419   */\n      tag_379\n        /* \"#utility.yul\":4413:4418   */\n      dup3\n        /* \"#utility.yul\":4395:4419   */\n      tag_265\n      jump\t// in\n    tag_379:\n        /* \"#utility.yul\":4384:4419   */\n      swap1\n      pop\n        /* \"#utility.yul\":4329:4425   */\n      swap2\n      swap1\n      pop\n      jump\t// out\n        /* \"#utility.yul\":4431:4549   */\n    tag_267:\n        /* \"#utility.yul\":4518:4542   */\n      tag_381\n        /* \"#utility.yul\":4536:4541   */\n      dup2\n        /* \"#utility.yul\":4518:4542   */\n      tag_266\n      jump\t// in\n    tag_381:\n        /* \"#utility.yul\":4513:4516   */\n      dup3\n        /* \"#utility.yul\":4506:4543   */\n      mstore\n        /* \"#utility.yul\":4431:4549   */\n      pop\n      pop\n      jump\t// out\n        /* \"#utility.yul\":4555:4777   */\n    tag_27:\n        /* \"#utility.yul\":4648:4652   */\n      0x00\n        /* \"#utility.yul\":4686:4688   */\n      0x20\n        /* \"#utility.yul\":4675:4684   */\n      dup3\n        /* \"#utility.yul\":4671:4689   */\n      add\n        /* \"#utility.yul\":4663:4689   */\n      swap1\n      pop\n        /* \"#utility.yul\":4699:4770   */\n      tag_383\n        /* \"#utility.yul\":4767:4768   */\n      0x00\n        /* \"#utility.yul\":4756:4765   */\n      dup4\n        /* \"#utility.yul\":4752:4769   */\n      add\n        /* \"#utility.yul\":4743:4749   */\n      dup5\n        /* \"#utility.yul\":4699:4770   */\n      tag_267\n      jump\t// in\n    tag_383:\n        /* \"#utility.yul\":4555:4777   */\n      swap3\n      swap2\n      pop\n      pop\n      jump\t// out\n        /* \"#utility.yul\":4783:4905   */\n    tag_268:\n        /* \"#utility.yul\":4856:4880   */\n      tag_385\n        /* \"#utility.yul\":4874:4879   */\n      dup2\n        /* \"#utility.yul\":4856:4880   */\n      tag_266\n      jump\t// in\n    tag_385:\n        /* \"#utility.yul\":4849:4854   */\n      dup2\n        /* \"#utility.yul\":4846:4881   */\n      eq\n        /* \"#utility.yul\":4836:4899   */\n      tag_386\n      jumpi\n        /* \"#utility.yul\":4895:4896   */\n      0x00\n        /* \"#utility.yul\":4892:4893   */\n      0x00\n        /* \"#utility.yul\":4885:4897   */\n      revert\n        /* \"#utility.yul\":4836:4899   */\n    tag_386:\n        /* \"#utility.yul\":4783:4905   */\n      pop\n      jump\t// out\n        /* \"#utility.yul\":4911:5050   */\n    tag_269:\n        /* \"#utility.yul\":4957:4962   */\n      0x00\n        /* \"#utility.yul\":4995:5001   */\n      dup2\n        /* \"#utility.yul\":4982:5002   */\n      calldataload\n        /* \"#utility.yul\":4973:5002   */\n      swap1\n      pop\n        /* \"#utility.yul\":5011:5044   */\n      tag_388\n        /* \"#utility.yul\":5038:5043   */\n      dup2\n        /* \"#utility.yul\":5011:5044   */\n      tag_268\n      jump\t// in\n    tag_388:\n        /* \"#utility.yul\":4911:5050   */\n      swap3\n      swap2\n      pop\n      pop\n      jump\t// out\n        /* \"#utility.yul\":5056:5385   */\n    tag_30:\n        /* \"#utility.yul\":5115:5121   */\n      0x00\n        /* \"#utility.yul\":5164:5166   */\n      0x20\n        /* \"#utility.yul\":5152:5161   */\n      dup3\n        /* \"#utility.yul\":5143:5150   */\n      dup5\n        /* \"#utility.yul\":5139:5162   */\n      sub\n        /* \"#utility.yul\":5135:5167   */\n      slt\n        /* \"#utility.yul\":5132:5251   */\n      iszero\n      tag_390\n      jumpi\n        /* \"#utility.yul\":5170:5249   */\n      tag_391\n      tag_255\n      jump\t// in\n    tag_391:\n        /* \"#utility.yul\":5132:5251   */\n    tag_390:\n        /* \"#utility.yul\":5290:5291   */\n      0x00\n        /* \"#utility.yul\":5315:5368   */\n      tag_392\n        /* \"#utility.yul\":5360:5367   */\n      dup5\n        /* \"#utility.yul\":5351:5357   */\n      dup3\n        /* \"#utility.yul\":5340:5349   */\n      dup6\n        /* \"#utility.yul\":5336:5358   */\n      add\n        /* \"#utility.yul\":5315:5368   */\n      tag_269\n      jump\t// in\n    tag_392:\n        /* \"#utility.yul\":5305:5368   */\n      swap2\n      pop\n        /* \"#utility.yul\":5261:5378   */\n      pop\n        /* \"#utility.yul\":5056:5385   */\n      swap3\n      swap2\n      pop\n      pop\n      jump\t// out\n        /* \"#utility.yul\":5391:5481   */\n    tag_270:\n        /* \"#utility.yul\":5425:5432   */\n      0x00\n        /* \"#utility.yul\":5468:5473   */\n      dup2\n        /* \"#utility.yul\":5461:5474   */\n      iszero\n        /* \"#utility.yul\":5454:5475   */\n      iszero\n        /* \"#utility.yul\":5443:5475   */\n      swap1\n      pop\n        /* \"#utility.yul\":5391:5481   */\n      swap2\n      swap1\n      pop\n      jump\t// out\n        /* \"#utility.yul\":5487:5596   */\n    tag_271:\n        /* \"#utility.yul\":5568:5589   */\n      tag_395\n        /* \"#utility.yul\":5583:5588   */\n      dup2\n        /* \"#utility.yul\":5568:5589   */\n      tag_270\n      jump\t// in\n    tag_395:\n        /* \"#utility.yul\":5563:5566   */\n      dup3\n        /* \"#utility.yul\":5556:5590   */\n      mstore\n        /* \"#utility.yul\":5487:5596   */\n      pop\n      pop\n      jump\t// out\n        /* \"#utility.yul\":5602:5812   */\n    tag_33:\n        /* \"#utility.yul\":5689:5693   */\n      0x00\n        /* \"#utility.yul\":5727:5729   */\n      0x20\n        /* \"#utility.yul\":5716:5725   */\n      dup3\n        /* \"#utility.yul\":5712:5730   */\n      add\n        /* \"#utility.yul\":5704:5730   */\n      swap1\n      pop\n        /* \"#utility.yul\":5740:5805   */\n      tag_397\n        /* \"#utility.yul\":5802:5803   */\n      0x00\n        /* \"#utility.yul\":5791:5800   */\n      dup4\n        /* \"#utility.yul\":5787:5804   */\n      add\n        /* \"#utility.yul\":5778:5784   */\n      dup5\n        /* \"#utility.yul\":5740:5805   */\n      tag_271\n      jump\t// in\n    tag_397:\n        /* \"#utility.yul\":5602:5812   */\n      swap3\n      swap2\n      pop\n      pop\n      jump\t// out\n        /* \"#utility.yul\":5818:5935   */\n    tag_272:\n        /* \"#utility.yul\":5927:5928   */\n      0x00\n        /* \"#utility.yul\":5924:5925   */\n      0x00\n        /* \"#utility.yul\":5917:5929   */\n      revert\n        /* \"#utility.yul\":5941:6058   */\n    tag_273:\n        /* \"#utility.yul\":6050:6051   */\n      0x00\n        /* \"#utility.yul\":6047:6048   */\n      0x00\n        /* \"#utility.yul\":6040:6052   */\n      revert\n        /* \"#utility.yul\":6078:6631   */\n    tag_274:\n        /* \"#utility.yul\":6136:6144   */\n      0x00\n        /* \"#utility.yul\":6146:6152   */\n      0x00\n        /* \"#utility.yul\":6196:6199   */\n      dup4\n        /* \"#utility.yul\":6189:6193   */\n      0x1f\n        /* \"#utility.yul\":6181:6187   */\n      dup5\n        /* \"#utility.yul\":6177:6194   */\n      add\n        /* \"#utility.yul\":6173:6200   */\n      slt\n        /* \"#utility.yul\":6163:6285   */\n      tag_401\n      jumpi\n        /* \"#utility.yul\":6204:6283   */\n      tag_402\n      tag_257\n      jump\t// in\n    tag_402:\n        /* \"#utility.yul\":6163:6285   */\n    tag_401:\n        /* \"#utility.yul\":6317:6323   */\n      dup3\n        /* \"#utility.yul\":6304:6324   */\n      calldataload\n        /* \"#utility.yul\":6294:6324   */\n      swap1\n      pop\n        /* \"#utility.yul\":6347:6365   */\n      0xffffffffffffffff\n        /* \"#utility.yul\":6339:6345   */\n      dup2\n        /* \"#utility.yul\":6336:6366   */\n      gt\n        /* \"#utility.yul\":6333:6450   */\n      iszero\n      tag_403\n      jumpi\n        /* \"#utility.yul\":6369:6448   */\n      tag_404\n      tag_272\n      jump\t// in\n    tag_404:\n        /* \"#utility.yul\":6333:6450   */\n    tag_403:\n        /* \"#utility.yul\":6483:6487   */\n      0x20\n        /* \"#utility.yul\":6475:6481   */\n      dup4\n        /* \"#utility.yul\":6471:6488   */\n      add\n        /* \"#utility.yul\":6459:6488   */\n      swap2\n      pop\n        /* \"#utility.yul\":6537:6540   */\n      dup4\n        /* \"#utility.yul\":6529:6533   */\n      0x01\n        /* \"#utility.yul\":6521:6527   */\n      dup3\n        /* \"#utility.yul\":6517:6534   */\n      mul\n        /* \"#utility.yul\":6507:6515   */\n      dup4\n        /* \"#utility.yul\":6503:6535   */\n      add\n        /* \"#utility.yul\":6500:6541   */\n      gt\n        /* \"#utility.yul\":6497:6625   */\n      iszero\n      tag_405\n      jumpi\n        /* \"#utility.yul\":6544:6623   */\n      tag_406\n      tag_273\n      jump\t// in\n    tag_406:\n        /* \"#utility.yul\":6497:6625   */\n    tag_405:\n        /* \"#utility.yul\":6078:6631   */\n      swap3\n      pop\n      swap3\n      swap1\n      pop\n      jump\t// out\n        /* \"#utility.yul\":6637:6714   */\n    tag_275:\n        /* \"#utility.yul\":6674:6681   */\n      0x00\n        /* \"#utility.yul\":6703:6708   */\n      dup2\n        /* \"#utility.yul\":6692:6708   */\n      swap1\n      pop\n        /* \"#utility.yul\":6637:6714   */\n      swap2\n      swap1\n      pop\n      jump\t// out\n        /* \"#utility.yul\":6720:6842   */\n    tag_276:\n        /* \"#utility.yul\":6793:6817   */\n      tag_409\n        /* \"#utility.yul\":6811:6816   */\n      dup2\n        /* \"#utility.yul\":6793:6817   */\n      tag_275\n      jump\t// in\n    tag_409:\n        /* \"#utility.yul\":6786:6791   */\n      dup2\n        /* \"#utility.yul\":6783:6818   */\n      eq\n        /* \"#utility.yul\":6773:6836   */\n      tag_410\n      jumpi\n        /* \"#utility.yul\":6832:6833   */\n      0x00\n        /* \"#utility.yul\":6829:6830   */\n      0x00\n        /* \"#utility.yul\":6822:6834   */\n      revert\n        /* \"#utility.yul\":6773:6836   */\n    tag_410:\n        /* \"#utility.yul\":6720:6842   */\n      pop\n      jump\t// out\n        /* \"#utility.yul\":6848:6987   */\n    tag_277:\n        /* \"#utility.yul\":6894:6899   */\n      0x00\n        /* \"#utility.yul\":6932:6938   */\n      dup2\n        /* \"#utility.yul\":6919:6939   */\n      calldataload\n        /* \"#utility.yul\":6910:6939   */\n      swap1\n      pop\n        /* \"#utility.yul\":6948:6981   */\n      tag_412\n        /* \"#utility.yul\":6975:6980   */\n      dup2\n        /* \"#utility.yul\":6948:6981   */\n      tag_276\n      jump\t// in\n    tag_412:\n        /* \"#utility.yul\":6848:6987   */\n      swap3\n      swap2\n      pop\n      pop\n      jump\t// out\n        /* \"#utility.yul\":6993:7958   */\n    tag_36:\n        /* \"#utility.yul\":7091:7097   */\n      0x00\n        /* \"#utility.yul\":7099:7105   */\n      0x00\n        /* \"#utility.yul\":7107:7113   */\n      0x00\n        /* \"#utility.yul\":7115:7121   */\n      0x00\n        /* \"#utility.yul\":7123:7129   */\n      0x00\n        /* \"#utility.yul\":7172:7175   */\n      0x80\n        /* \"#utility.yul\":7160:7169   */\n      dup7\n        /* \"#utility.yul\":7151:7158   */\n      dup9\n        /* \"#utility.yul\":7147:7170   */\n      sub\n        /* \"#utility.yul\":7143:7176   */\n      slt\n        /* \"#utility.yul\":7140:7260   */\n      iszero\n      tag_414\n      jumpi\n        /* \"#utility.yul\":7179:7258   */\n      tag_415\n      tag_255\n      jump\t// in\n    tag_415:\n        /* \"#utility.yul\":7140:7260   */\n    tag_414:\n        /* \"#utility.yul\":7299:7300   */\n      0x00\n        /* \"#utility.yul\":7324:7377   */\n      tag_416\n        /* \"#utility.yul\":7369:7376   */\n      dup9\n        /* \"#utility.yul\":7360:7366   */\n      dup3\n        /* \"#utility.yul\":7349:7358   */\n      dup10\n        /* \"#utility.yul\":7345:7367   */\n      add\n        /* \"#utility.yul\":7324:7377   */\n      tag_269\n      jump\t// in\n    tag_416:\n        /* \"#utility.yul\":7314:7377   */\n      swap6\n      pop\n        /* \"#utility.yul\":7270:7387   */\n      pop\n        /* \"#utility.yul\":7454:7456   */\n      0x20\n        /* \"#utility.yul\":7443:7452   */\n      dup7\n        /* \"#utility.yul\":7439:7457   */\n      add\n        /* \"#utility.yul\":7426:7458   */\n      calldataload\n        /* \"#utility.yul\":7485:7503   */\n      0xffffffffffffffff\n        /* \"#utility.yul\":7477:7483   */\n      dup2\n        /* \"#utility.yul\":7474:7504   */\n      gt\n        /* \"#utility.yul\":7471:7588   */\n      iszero\n      tag_417\n      jumpi\n        /* \"#utility.yul\":7507:7586   */\n      tag_418\n      tag_256\n      jump\t// in\n    tag_418:\n        /* \"#utility.yul\":7471:7588   */\n    tag_417:\n        /* \"#utility.yul\":7620:7685   */\n      tag_419\n        /* \"#utility.yul\":7677:7684   */\n      dup9\n        /* \"#utility.yul\":7668:7674   */\n      dup3\n        /* \"#utility.yul\":7657:7666   */\n      dup10\n        /* \"#utility.yul\":7653:7675   */\n      add\n        /* \"#utility.yul\":7620:7685   */\n      tag_274\n      jump\t// in\n    tag_419:\n        /* \"#utility.yul\":7602:7685   */\n      swap5\n      pop\n      swap5\n      pop\n        /* \"#utility.yul\":7397:7695   */\n      pop\n        /* \"#utility.yul\":7734:7736   */\n      0x40\n        /* \"#utility.yul\":7760:7813   */\n      tag_420\n        /* \"#utility.yul\":7805:7812   */\n      dup9\n        /* \"#utility.yul\":7796:7802   */\n      dup3\n        /* \"#utility.yul\":7785:7794   */\n      dup10\n        /* \"#utility.yul\":7781:7803   */\n      add\n        /* \"#utility.yul\":7760:7813   */\n      tag_277\n      jump\t// in\n    tag_420:\n        /* \"#utility.yul\":7750:7813   */\n      swap3\n      pop\n        /* \"#utility.yul\":7705:7823   */\n      pop\n        /* \"#utility.yul\":7862:7864   */\n      0x60\n        /* \"#utility.yul\":7888:7941   */\n      tag_421\n        /* \"#utility.yul\":7933:7940   */\n      dup9\n        /* \"#utility.yul\":7924:7930   */\n      dup3\n        /* \"#utility.yul\":7913:7922   */\n      dup10\n        /* \"#utility.yul\":7909:7931   */\n      add\n        /* \"#utility.yul\":7888:7941   */\n      tag_277\n      jump\t// in\n    tag_421:\n        /* \"#utility.yul\":7878:7941   */\n      swap2\n      pop\n        /* \"#utility.yul\":7833:7951   */\n      pop\n        /* \"#utility.yul\":6993:7958   */\n      swap3\n      swap6\n      pop\n      swap3\n      swap6\n      swap1\n      swap4\n      pop\n      jump\t// out\n        /* \"#utility.yul\":7964:8438   */\n    tag_42:\n        /* \"#utility.yul\":8032:8038   */\n      0x00\n        /* \"#utility.yul\":8040:8046   */\n      0x00\n        /* \"#utility.yul\":8089:8091   */\n      0x40\n        /* \"#utility.yul\":8077:8086   */\n      dup4\n        /* \"#utility.yul\":8068:8075   */\n      dup6\n        /* \"#utility.yul\":8064:8087   */\n      sub\n        /* \"#utility.yul\":8060:8092   */\n      slt\n        /* \"#utility.yul\":8057:8176   */\n      iszero\n      tag_423\n      jumpi\n        /* \"#utility.yul\":8095:8174   */\n      tag_424\n      tag_255\n      jump\t// in\n    tag_424:\n        /* \"#utility.yul\":8057:8176   */\n    tag_423:\n        /* \"#utility.yul\":8215:8216   */\n      0x00\n        /* \"#utility.yul\":8240:8293   */\n      tag_425\n        /* \"#utility.yul\":8285:8292   */\n      dup6\n        /* \"#utility.yul\":8276:8282   */\n      dup3\n        /* \"#utility.yul\":8265:8274   */\n      dup7\n        /* \"#utility.yul\":8261:8283   */\n      add\n        /* \"#utility.yul\":8240:8293   */\n      tag_269\n      jump\t// in\n    tag_425:\n        /* \"#utility.yul\":8230:8293   */\n      swap3\n      pop\n        /* \"#utility.yul\":8186:8303   */\n      pop\n        /* \"#utility.yul\":8342:8344   */\n      0x20\n        /* \"#utility.yul\":8368:8421   */\n      tag_426\n        /* \"#utility.yul\":8413:8420   */\n      dup6\n        /* \"#utility.yul\":8404:8410   */\n      dup3\n        /* \"#utility.yul\":8393:8402   */\n      dup7\n        /* \"#utility.yul\":8389:8411   */\n      add\n        /* \"#utility.yul\":8368:8421   */\n      tag_269\n      jump\t// in\n    tag_426:\n        /* \"#utility.yul\":8358:8421   */\n      swap2\n      pop\n        /* \"#utility.yul\":8313:8431   */\n      pop\n        /* \"#utility.yul\":7964:8438   */\n      swap3\n      pop\n      swap3\n      swap1\n      pop\n      jump\t// out\n        /* \"#utility.yul\":8444:8562   */\n    tag_278:\n        /* \"#utility.yul\":8531:8555   */\n      tag_428\n        /* \"#utility.yul\":8549:8554   */\n      dup2\n        /* \"#utility.yul\":8531:8555   */\n      tag_275\n      jump\t// in\n    tag_428:\n        /* \"#utility.yul\":8526:8529   */\n      dup3\n        /* \"#utility.yul\":8519:8556   */\n      mstore\n        /* \"#utility.yul\":8444:8562   */\n      pop\n      pop\n      jump\t// out\n        /* \"#utility.yul\":8568:8790   */\n    tag_45:\n        /* \"#utility.yul\":8661:8665   */\n      0x00\n        /* \"#utility.yul\":8699:8701   */\n      0x20\n        /* \"#utility.yul\":8688:8697   */\n      dup3\n        /* \"#utility.yul\":8684:8702   */\n      add\n        /* \"#utility.yul\":8676:8702   */\n      swap1\n      pop\n        /* \"#utility.yul\":8712:8783   */\n      tag_430\n        /* \"#utility.yul\":8780:8781   */\n      0x00\n        /* \"#utility.yul\":8769:8778   */\n      dup4\n        /* \"#utility.yul\":8765:8782   */\n      add\n        /* \"#utility.yul\":8756:8762   */\n      dup5\n        /* \"#utility.yul\":8712:8783   */\n      tag_278\n      jump\t// in\n    tag_430:\n        /* \"#utility.yul\":8568:8790   */\n      swap3\n      swap2\n      pop\n      pop\n      jump\t// out\n        /* \"#utility.yul\":8796:9615   */\n    tag_48:\n        /* \"#utility.yul\":8885:8891   */\n      0x00\n        /* \"#utility.yul\":8893:8899   */\n      0x00\n        /* \"#utility.yul\":8901:8907   */\n      0x00\n        /* \"#utility.yul\":8909:8915   */\n      0x00\n        /* \"#utility.yul\":8958:8960   */\n      0x60\n        /* \"#utility.yul\":8946:8955   */\n      dup6\n        /* \"#utility.yul\":8937:8944   */\n      dup8\n        /* \"#utility.yul\":8933:8956   */\n      sub\n        /* \"#utility.yul\":8929:8961   */\n      slt\n        /* \"#utility.yul\":8926:9045   */\n      iszero\n      tag_432\n      jumpi\n        /* \"#utility.yul\":8964:9043   */\n      tag_433\n      tag_255\n      jump\t// in\n    tag_433:\n        /* \"#utility.yul\":8926:9045   */\n    tag_432:\n        /* \"#utility.yul\":9112:9113   */\n      0x00\n        /* \"#utility.yul\":9101:9110   */\n      dup6\n        /* \"#utility.yul\":9097:9114   */\n      add\n        /* \"#utility.yul\":9084:9115   */\n      calldataload\n        /* \"#utility.yul\":9142:9160   */\n      0xffffffffffffffff\n        /* \"#utility.yul\":9134:9140   */\n      dup2\n        /* \"#utility.yul\":9131:9161   */\n      gt\n        /* \"#utility.yul\":9128:9245   */\n      iszero\n      tag_434\n      jumpi\n        /* \"#utility.yul\":9164:9243   */\n      tag_435\n      tag_256\n      jump\t// in\n    tag_435:\n        /* \"#utility.yul\":9128:9245   */\n    tag_434:\n        /* \"#utility.yul\":9277:9342   */\n      tag_436\n        /* \"#utility.yul\":9334:9341   */\n      dup8\n        /* \"#utility.yul\":9325:9331   */\n      dup3\n        /* \"#utility.yul\":9314:9323   */\n      dup9\n        /* \"#utility.yul\":9310:9332   */\n      add\n        /* \"#utility.yul\":9277:9342   */\n      tag_274\n      jump\t// in\n    tag_436:\n        /* \"#utility.yul\":9259:9342   */\n      swap5\n      pop\n      swap5\n      pop\n        /* \"#utility.yul\":9055:9352   */\n      pop\n        /* \"#utility.yul\":9391:9393   */\n      0x20\n        /* \"#utility.yul\":9417:9470   */\n      tag_437\n        /* \"#utility.yul\":9462:9469   */\n      dup8\n        /* \"#utility.yul\":9453:9459   */\n      dup3\n        /* \"#utility.yul\":9442:9451   */\n      dup9\n        /* \"#utility.yul\":9438:9460   */\n      add\n        /* \"#utility.yul\":9417:9470   */\n      tag_277\n      jump\t// in\n    tag_437:\n        /* \"#utility.yul\":9407:9470   */\n      swap3\n      pop\n        /* \"#utility.yul\":9362:9480   */\n      pop\n        /* \"#utility.yul\":9519:9521   */\n      0x40\n        /* \"#utility.yul\":9545:9598   */\n      tag_438\n        /* \"#utility.yul\":9590:9597   */\n      dup8\n        /* \"#utility.yul\":9581:9587   */\n      dup3\n        /* \"#utility.yul\":9570:9579   */\n      dup9\n        /* \"#utility.yul\":9566:9588   */\n      add\n        /* \"#utility.yul\":9545:9598   */\n      tag_269\n      jump\t// in\n    tag_438:\n        /* \"#utility.yul\":9535:9598   */\n      swap2\n      pop\n        /* \"#utility.yul\":9490:9608   */\n      pop\n        /* \"#utility.yul\":8796:9615   */\n      swap3\n      swap6\n      swap2\n      swap5\n      pop\n      swap3\n      pop\n      jump\t// out\n        /* \"#utility.yul\":9621:10295   */\n    tag_55:\n        /* \"#utility.yul\":9701:9707   */\n      0x00\n        /* \"#utility.yul\":9709:9715   */\n      0x00\n        /* \"#utility.yul\":9717:9723   */\n      0x00\n        /* \"#utility.yul\":9766:9768   */\n      0x40\n        /* \"#utility.yul\":9754:9763   */\n      dup5\n        /* \"#utility.yul\":9745:9752   */\n      dup7\n        /* \"#utility.yul\":9741:9764   */\n      sub\n        /* \"#utility.yul\":9737:9769   */\n      slt\n        /* \"#utility.yul\":9734:9853   */\n      iszero\n      tag_440\n      jumpi\n        /* \"#utility.yul\":9772:9851   */\n      tag_441\n      tag_255\n      jump\t// in\n    tag_441:\n        /* \"#utility.yul\":9734:9853   */\n    tag_440:\n        /* \"#utility.yul\":9920:9921   */\n      0x00\n        /* \"#utility.yul\":9909:9918   */\n      dup5\n        /* \"#utility.yul\":9905:9922   */\n      add\n        /* \"#utility.yul\":9892:9923   */\n      calldataload\n        /* \"#utility.yul\":9950:9968   */\n      0xffffffffffffffff\n        /* \"#utility.yul\":9942:9948   */\n      dup2\n        /* \"#utility.yul\":9939:9969   */\n      gt\n        /* \"#utility.yul\":9936:10053   */\n      iszero\n      tag_442\n      jumpi\n        /* \"#utility.yul\":9972:10051   */\n      tag_443\n      tag_256\n      jump\t// in\n    tag_443:\n        /* \"#utility.yul\":9936:10053   */\n    tag_442:\n        /* \"#utility.yul\":10085:10150   */\n      tag_444\n        /* \"#utility.yul\":10142:10149   */\n      dup7\n        /* \"#utility.yul\":10133:10139   */\n      dup3\n        /* \"#utility.yul\":10122:10131   */\n      dup8\n        /* \"#utility.yul\":10118:10140   */\n      add\n        /* \"#utility.yul\":10085:10150   */\n      tag_274\n      jump\t// in\n    tag_444:\n        /* \"#utility.yul\":10067:10150   */\n      swap4\n      pop\n      swap4\n      pop\n        /* \"#utility.yul\":9863:10160   */\n      pop\n        /* \"#utility.yul\":10199:10201   */\n      0x20\n        /* \"#utility.yul\":10225:10278   */\n      tag_445\n        /* \"#utility.yul\":10270:10277   */\n      dup7\n        /* \"#utility.yul\":10261:10267   */\n      dup3\n        /* \"#utility.yul\":10250:10259   */\n      dup8\n        /* \"#utility.yul\":10246:10268   */\n      add\n        /* \"#utility.yul\":10225:10278   */\n      tag_277\n      jump\t// in\n    tag_445:\n        /* \"#utility.yul\":10215:10278   */\n      swap2\n      pop\n        /* \"#utility.yul\":10170:10288   */\n      pop\n        /* \"#utility.yul\":9621:10295   */\n      swap3\n      pop\n      swap3\n      pop\n      swap3\n      jump\t// out\n        /* \"#utility.yul\":10301:10361   */\n    tag_279:\n        /* \"#utility.yul\":10329:10332   */\n      0x00\n        /* \"#utility.yul\":10350:10355   */\n      dup2\n        /* \"#utility.yul\":10343:10355   */\n      swap1\n      pop\n        /* \"#utility.yul\":10301:10361   */\n      swap2\n      swap1\n      pop\n      jump\t// out\n        /* \"#utility.yul\":10367:10509   */\n    tag_280:\n        /* \"#utility.yul\":10417:10426   */\n      0x00\n        /* \"#utility.yul\":10450:10503   */\n      tag_448\n        /* \"#utility.yul\":10468:10502   */\n      tag_449\n        /* \"#utility.yul\":10477:10501   */\n      tag_450\n        /* \"#utility.yul\":10495:10500   */\n      dup5\n        /* \"#utility.yul\":10477:10501   */\n      tag_265\n      jump\t// in\n    tag_450:\n        /* \"#utility.yul\":10468:10502   */\n      tag_279\n      jump\t// in\n    tag_449:\n        /* \"#utility.yul\":10450:10503   */\n      tag_265\n      jump\t// in\n    tag_448:\n        /* \"#utility.yul\":10437:10503   */\n      swap1\n      pop\n        /* \"#utility.yul\":10367:10509   */\n      swap2\n      swap1\n      pop\n      jump\t// out\n        /* \"#utility.yul\":10515:10641   */\n    tag_281:\n        /* \"#utility.yul\":10565:10574   */\n      0x00\n        /* \"#utility.yul\":10598:10635   */\n      tag_452\n        /* \"#utility.yul\":10629:10634   */\n      dup3\n        /* \"#utility.yul\":10598:10635   */\n      tag_280\n      jump\t// in\n    tag_452:\n        /* \"#utility.yul\":10585:10635   */\n      swap1\n      pop\n        /* \"#utility.yul\":10515:10641   */\n      swap2\n      swap1\n      pop\n      jump\t// out\n        /* \"#utility.yul\":10647:10788   */\n    tag_282:\n        /* \"#utility.yul\":10712:10721   */\n      0x00\n        /* \"#utility.yul\":10745:10782   */\n      tag_454\n        /* \"#utility.yul\":10776:10781   */\n      dup3\n        /* \"#utility.yul\":10745:10782   */\n      tag_281\n      jump\t// in\n    tag_454:\n        /* \"#utility.yul\":10732:10782   */\n      swap1\n      pop\n        /* \"#utility.yul\":10647:10788   */\n      swap2\n      swap1\n      pop\n      jump\t// out\n        /* \"#utility.yul\":10794:10955   */\n    tag_283:\n        /* \"#utility.yul\":10896:10948   */\n      tag_456\n        /* \"#utility.yul\":10942:10947   */\n      dup2\n        /* \"#utility.yul\":10896:10948   */\n      tag_282\n      jump\t// in\n    tag_456:\n        /* \"#utility.yul\":10891:10894   */\n      dup3\n        /* \"#utility.yul\":10884:10949   */\n      mstore\n        /* \"#utility.yul\":10794:10955   */\n      pop\n      pop\n      jump\t// out\n        /* \"#utility.yul\":10961:11213   */\n    tag_60:\n        /* \"#utility.yul\":11069:11073   */\n      0x00\n        /* \"#utility.yul\":11107:11109   */\n      0x20\n        /* \"#utility.yul\":11096:11105   */\n      dup3\n        /* \"#utility.yul\":11092:11110   */\n      add\n        /* \"#utility.yul\":11084:11110   */\n      swap1\n      pop\n        /* \"#utility.yul\":11120:11206   */\n      tag_458\n        /* \"#utility.yul\":11203:11204   */\n      0x00\n        /* \"#utility.yul\":11192:11201   */\n      dup4\n        /* \"#utility.yul\":11188:11205   */\n      add\n        /* \"#utility.yul\":11179:11185   */\n      dup5\n        /* \"#utility.yul\":11120:11206   */\n      tag_283\n      jump\t// in\n    tag_458:\n        /* \"#utility.yul\":10961:11213   */\n      swap3\n      swap2\n      pop\n      pop\n      jump\t// out\n        /* \"#utility.yul\":11219:11363   */\n    tag_284:\n        /* \"#utility.yul\":11287:11296   */\n      0x00\n        /* \"#utility.yul\":11320:11357   */\n      tag_460\n        /* \"#utility.yul\":11351:11356   */\n      dup3\n        /* \"#utility.yul\":11320:11357   */\n      tag_281\n      jump\t// in\n    tag_460:\n        /* \"#utility.yul\":11307:11357   */\n      swap1\n      pop\n        /* \"#utility.yul\":11219:11363   */\n      swap2\n      swap1\n      pop\n      jump\t// out\n        /* \"#utility.yul\":11369:11536   */\n    tag_285:\n        /* \"#utility.yul\":11474:11529   */\n      tag_462\n        /* \"#utility.yul\":11523:11528   */\n      dup2\n        /* \"#utility.yul\":11474:11529   */\n      tag_284\n      jump\t// in\n    tag_462:\n        /* \"#utility.yul\":11469:11472   */\n      dup3\n        /* \"#utility.yul\":11462:11530   */\n      mstore\n        /* \"#utility.yul\":11369:11536   */\n      pop\n      pop\n      jump\t// out\n        /* \"#utility.yul\":11542:11800   */\n    tag_64:\n        /* \"#utility.yul\":11653:11657   */\n      0x00\n        /* \"#utility.yul\":11691:11693   */\n      0x20\n        /* \"#utility.yul\":11680:11689   */\n      dup3\n        /* \"#utility.yul\":11676:11694   */\n      add\n        /* \"#utility.yul\":11668:11694   */\n      swap1\n      pop\n        /* \"#utility.yul\":11704:11793   */\n      tag_464\n        /* \"#utility.yul\":11790:11791   */\n      0x00\n        /* \"#utility.yul\":11779:11788   */\n      dup4\n        /* \"#utility.yul\":11775:11792   */\n      add\n        /* \"#utility.yul\":11766:11772   */\n      dup5\n        /* \"#utility.yul\":11704:11793   */\n      tag_285\n      jump\t// in\n    tag_464:\n        /* \"#utility.yul\":11542:11800   */\n      swap3\n      swap2\n      pop\n      pop\n      jump\t// out\n        /* \"#utility.yul\":11806:12335   */\n    tag_67:\n        /* \"#utility.yul\":11877:11883   */\n      0x00\n        /* \"#utility.yul\":11885:11891   */\n      0x00\n        /* \"#utility.yul\":11934:11936   */\n      0x20\n        /* \"#utility.yul\":11922:11931   */\n      dup4\n        /* \"#utility.yul\":11913:11920   */\n      dup6\n        /* \"#utility.yul\":11909:11932   */\n      sub\n        /* \"#utility.yul\":11905:11937   */\n      slt\n        /* \"#utility.yul\":11902:12021   */\n      iszero\n      tag_466\n      jumpi\n        /* \"#utility.yul\":11940:12019   */\n      tag_467\n      tag_255\n      jump\t// in\n    tag_467:\n        /* \"#utility.yul\":11902:12021   */\n    tag_466:\n        /* \"#utility.yul\":12088:12089   */\n      0x00\n        /* \"#utility.yul\":12077:12086   */\n      dup4\n        /* \"#utility.yul\":12073:12090   */\n      add\n        /* \"#utility.yul\":12060:12091   */\n      calldataload\n        /* \"#utility.yul\":12118:12136   */\n      0xffffffffffffffff\n        /* \"#utility.yul\":12110:12116   */\n      dup2\n        /* \"#utility.yul\":12107:12137   */\n      gt\n        /* \"#utility.yul\":12104:12221   */\n      iszero\n      tag_468\n      jumpi\n        /* \"#utility.yul\":12140:12219   */\n      tag_469\n      tag_256\n      jump\t// in\n    tag_469:\n        /* \"#utility.yul\":12104:12221   */\n    tag_468:\n        /* \"#utility.yul\":12253:12318   */\n      tag_470\n        /* \"#utility.yul\":12310:12317   */\n      dup6\n        /* \"#utility.yul\":12301:12307   */\n      dup3\n        /* \"#utility.yul\":12290:12299   */\n      dup7\n        /* \"#utility.yul\":12286:12308   */\n      add\n        /* \"#utility.yul\":12253:12318   */\n      tag_274\n      jump\t// in\n    tag_470:\n        /* \"#utility.yul\":12235:12318   */\n      swap3\n      pop\n      swap3\n      pop\n        /* \"#utility.yul\":12031:12328   */\n      pop\n        /* \"#utility.yul\":11806:12335   */\n      swap3\n      pop\n      swap3\n      swap1\n      pop\n      jump\t// out\n        /* \"#utility.yul\":12341:12521   */\n    tag_286:\n        /* \"#utility.yul\":12389:12466   */\n      0x4e487b7100000000000000000000000000000000000000000000000000000000\n        /* \"#utility.yul\":12386:12387   */\n      0x00\n        /* \"#utility.yul\":12379:12467   */\n      mstore\n        /* \"#utility.yul\":12486:12490   */\n      0x22\n        /* \"#utility.yul\":12483:12484   */\n      0x04\n        /* \"#utility.yul\":12476:12491   */\n      mstore\n        /* \"#utility.yul\":12510:12514   */\n      0x24\n        /* \"#utility.yul\":12507:12508   */\n      0x00\n        /* \"#utility.yul\":12500:12515   */\n      revert\n        /* \"#utility.yul\":12527:12847   */\n    tag_73:\n        /* \"#utility.yul\":12571:12577   */\n      0x00\n        /* \"#utility.yul\":12608:12609   */\n      0x02\n        /* \"#utility.yul\":12602:12606   */\n      dup3\n        /* \"#utility.yul\":12598:12610   */\n      div\n        /* \"#utility.yul\":12588:12610   */\n      swap1\n      pop\n        /* \"#utility.yul\":12655:12656   */\n      0x01\n        /* \"#utility.yul\":12649:12653   */\n      dup3\n        /* \"#utility.yul\":12645:12657   */\n      and\n        /* \"#utility.yul\":12676:12694   */\n      dup1\n        /* \"#utility.yul\":12666:12747   */\n      tag_473\n      jumpi\n        /* \"#utility.yul\":12732:12736   */\n      0x7f\n        /* \"#utility.yul\":12724:12730   */\n      dup3\n        /* \"#utility.yul\":12720:12737   */\n      and\n        /* \"#utility.yul\":12710:12737   */\n      swap2\n      pop\n        /* \"#utility.yul\":12666:12747   */\n    tag_473:\n        /* \"#utility.yul\":12794:12796   */\n      0x20\n        /* \"#utility.yul\":12786:12792   */\n      dup3\n        /* \"#utility.yul\":12783:12797   */\n      lt\n        /* \"#utility.yul\":12763:12781   */\n      dup2\n        /* \"#utility.yul\":12760:12798   */\n      sub\n        /* \"#utility.yul\":12757:12841   */\n      tag_474\n      jumpi\n        /* \"#utility.yul\":12813:12831   */\n      tag_475\n      tag_286\n      jump\t// in\n    tag_475:\n        /* \"#utility.yul\":12757:12841   */\n    tag_474:\n        /* \"#utility.yul\":12578:12847   */\n      pop\n        /* \"#utility.yul\":12527:12847   */\n      swap2\n      swap1\n      pop\n      jump\t// out\n        /* \"#utility.yul\":12853:13001   */\n    tag_287:\n        /* \"#utility.yul\":12955:12966   */\n      0x00\n        /* \"#utility.yul\":12992:12995   */\n      dup2\n        /* \"#utility.yul\":12977:12995   */\n      swap1\n      pop\n        /* \"#utility.yul\":12853:13001   */\n      swap3\n      swap2\n      pop\n      pop\n      jump\t// out\n        /* \"#utility.yul\":13007:13397   */\n    tag_288:\n        /* \"#utility.yul\":13113:13116   */\n      0x00\n        /* \"#utility.yul\":13141:13180   */\n      tag_478\n        /* \"#utility.yul\":13174:13179   */\n      dup3\n        /* \"#utility.yul\":13141:13180   */\n      tag_249\n      jump\t// in\n    tag_478:\n        /* \"#utility.yul\":13196:13285   */\n      tag_479\n        /* \"#utility.yul\":13278:13284   */\n      dup2\n        /* \"#utility.yul\":13273:13276   */\n      dup6\n        /* \"#utility.yul\":13196:13285   */\n      tag_287\n      jump\t// in\n    tag_479:\n        /* \"#utility.yul\":13189:13285   */\n      swap4\n      pop\n        /* \"#utility.yul\":13294:13359   */\n      tag_480\n        /* \"#utility.yul\":13352:13358   */\n      dup2\n        /* \"#utility.yul\":13347:13350   */\n      dup6\n        /* \"#utility.yul\":13340:13344   */\n      0x20\n        /* \"#utility.yul\":13333:13338   */\n      dup7\n        /* \"#utility.yul\":13329:13345   */\n      add\n        /* \"#utility.yul\":13294:13359   */\n      tag_251\n      jump\t// in\n    tag_480:\n        /* \"#utility.yul\":13384:13390   */\n      dup1\n        /* \"#utility.yul\":13379:13382   */\n      dup5\n        /* \"#utility.yul\":13375:13391   */\n      add\n        /* \"#utility.yul\":13368:13391   */\n      swap2\n      pop\n        /* \"#utility.yul\":13117:13397   */\n      pop\n        /* \"#utility.yul\":13007:13397   */\n      swap3\n      swap2\n      pop\n      pop\n      jump\t// out\n        /* \"#utility.yul\":13403:13554   */\n    tag_289:\n        /* \"#utility.yul\":13543:13546   */\n      0x5f00000000000000000000000000000000000000000000000000000000000000\n        /* \"#utility.yul\":13539:13540   */\n      0x00\n        /* \"#utility.yul\":13531:13537   */\n      dup3\n        /* \"#utility.yul\":13527:13541   */\n      add\n        /* \"#utility.yul\":13520:13547   */\n      mstore\n        /* \"#utility.yul\":13403:13554   */\n      pop\n      jump\t// out\n        /* \"#utility.yul\":13560:13960   */\n    tag_290:\n        /* \"#utility.yul\":13720:13723   */\n      0x00\n        /* \"#utility.yul\":13741:13825   */\n      tag_483\n        /* \"#utility.yul\":13823:13824   */\n      0x01\n        /* \"#utility.yul\":13818:13821   */\n      dup4\n        /* \"#utility.yul\":13741:13825   */\n      tag_287\n      jump\t// in\n    tag_483:\n        /* \"#utility.yul\":13734:13825   */\n      swap2\n      pop\n        /* \"#utility.yul\":13834:13927   */\n      tag_484\n        /* \"#utility.yul\":13923:13926   */\n      dup3\n        /* \"#utility.yul\":13834:13927   */\n      tag_289\n      jump\t// in\n    tag_484:\n        /* \"#utility.yul\":13952:13953   */\n      0x01\n        /* \"#utility.yul\":13947:13950   */\n      dup3\n        /* \"#utility.yul\":13943:13954   */\n      add\n        /* \"#utility.yul\":13936:13954   */\n      swap1\n      pop\n        /* \"#utility.yul\":13560:13960   */\n      swap2\n      swap1\n      pop\n      jump\t// out\n        /* \"#utility.yul\":13966:14107   */\n    tag_291:\n        /* \"#utility.yul\":14015:14019   */\n      0x00\n        /* \"#utility.yul\":14038:14041   */\n      dup2\n        /* \"#utility.yul\":14030:14041   */\n      swap1\n      pop\n        /* \"#utility.yul\":14061:14064   */\n      dup2\n        /* \"#utility.yul\":14058:14059   */\n      0x00\n        /* \"#utility.yul\":14051:14065   */\n      mstore\n        /* \"#utility.yul\":14095:14099   */\n      0x20\n        /* \"#utility.yul\":14092:14093   */\n      0x00\n        /* \"#utility.yul\":14082:14100   */\n      keccak256\n        /* \"#utility.yul\":14074:14100   */\n      swap1\n      pop\n        /* \"#utility.yul\":13966:14107   */\n      swap2\n      swap1\n      pop\n      jump\t// out\n        /* \"#utility.yul\":14137:15011   */\n    tag_292:\n        /* \"#utility.yul\":14240:14243   */\n      0x00\n        /* \"#utility.yul\":14277:14282   */\n      dup2\n        /* \"#utility.yul\":14271:14283   */\n      sload\n        /* \"#utility.yul\":14306:14342   */\n      tag_487\n        /* \"#utility.yul\":14332:14341   */\n      dup2\n        /* \"#utility.yul\":14306:14342   */\n      tag_73\n      jump\t// in\n    tag_487:\n        /* \"#utility.yul\":14358:14447   */\n      tag_488\n        /* \"#utility.yul\":14440:14446   */\n      dup2\n        /* \"#utility.yul\":14435:14438   */\n      dup7\n        /* \"#utility.yul\":14358:14447   */\n      tag_287\n      jump\t// in\n    tag_488:\n        /* \"#utility.yul\":14351:14447   */\n      swap5\n      pop\n        /* \"#utility.yul\":14478:14479   */\n      0x01\n        /* \"#utility.yul\":14467:14476   */\n      dup3\n        /* \"#utility.yul\":14463:14480   */\n      and\n        /* \"#utility.yul\":14494:14495   */\n      0x00\n        /* \"#utility.yul\":14489:14655   */\n      dup2\n      eq\n      tag_490\n      jumpi\n        /* \"#utility.yul\":14669:14670   */\n      0x01\n        /* \"#utility.yul\":14664:15005   */\n      dup2\n      eq\n      tag_491\n      jumpi\n        /* \"#utility.yul\":14456:15005   */\n      jump(tag_489)\n        /* \"#utility.yul\":14489:14655   */\n    tag_490:\n        /* \"#utility.yul\":14573:14577   */\n      0xff\n        /* \"#utility.yul\":14569:14578   */\n      not\n        /* \"#utility.yul\":14558:14567   */\n      dup4\n        /* \"#utility.yul\":14554:14579   */\n      and\n        /* \"#utility.yul\":14549:14552   */\n      dup7\n        /* \"#utility.yul\":14542:14580   */\n      mstore\n        /* \"#utility.yul\":14635:14641   */\n      dup2\n        /* \"#utility.yul\":14628:14642   */\n      iszero\n        /* \"#utility.yul\":14621:14643   */\n      iszero\n        /* \"#utility.yul\":14613:14619   */\n      dup3\n        /* \"#utility.yul\":14609:14644   */\n      mul\n        /* \"#utility.yul\":14604:14607   */\n      dup7\n        /* \"#utility.yul\":14600:14645   */\n      add\n        /* \"#utility.yul\":14593:14645   */\n      swap4\n      pop\n        /* \"#utility.yul\":14489:14655   */\n      jump(tag_489)\n        /* \"#utility.yul\":14664:15005   */\n    tag_491:\n        /* \"#utility.yul\":14731:14769   */\n      tag_492\n        /* \"#utility.yul\":14763:14768   */\n      dup6\n        /* \"#utility.yul\":14731:14769   */\n      tag_291\n      jump\t// in\n    tag_492:\n        /* \"#utility.yul\":14791:14792   */\n      0x00\n        /* \"#utility.yul\":14805:14959   */\n    tag_493:\n        /* \"#utility.yul\":14819:14825   */\n      dup4\n        /* \"#utility.yul\":14816:14817   */\n      dup2\n        /* \"#utility.yul\":14813:14826   */\n      lt\n        /* \"#utility.yul\":14805:14959   */\n      iszero\n      tag_495\n      jumpi\n        /* \"#utility.yul\":14893:14900   */\n      dup2\n        /* \"#utility.yul\":14887:14901   */\n      sload\n        /* \"#utility.yul\":14883:14884   */\n      dup2\n        /* \"#utility.yul\":14878:14881   */\n      dup10\n        /* \"#utility.yul\":14874:14885   */\n      add\n        /* \"#utility.yul\":14867:14902   */\n      mstore\n        /* \"#utility.yul\":14943:14944   */\n      0x01\n        /* \"#utility.yul\":14934:14941   */\n      dup3\n        /* \"#utility.yul\":14930:14945   */\n      add\n        /* \"#utility.yul\":14919:14945   */\n      swap2\n      pop\n        /* \"#utility.yul\":14841:14845   */\n      0x20\n        /* \"#utility.yul\":14838:14839   */\n      dup2\n        /* \"#utility.yul\":14834:14846   */\n      add\n        /* \"#utility.yul\":14829:14846   */\n      swap1\n      pop\n        /* \"#utility.yul\":14805:14959   */\n      jump(tag_493)\n    tag_495:\n        /* \"#utility.yul\":14988:14994   */\n      dup4\n        /* \"#utility.yul\":14983:14986   */\n      dup9\n        /* \"#utility.yul\":14979:14995   */\n      add\n        /* \"#utility.yul\":14972:14995   */\n      swap6\n      pop\n        /* \"#utility.yul\":14671:15005   */\n      pop\n      pop\n        /* \"#utility.yul\":14456:15005   */\n    tag_489:\n      pop\n        /* \"#utility.yul\":14244:15011   */\n      pop\n      pop\n        /* \"#utility.yul\":14137:15011   */\n      swap3\n      swap2\n      pop\n      pop\n      jump\t// out\n        /* \"#utility.yul\":15017:15712   */\n    tag_80:\n        /* \"#utility.yul\":15295:15298   */\n      0x00\n        /* \"#utility.yul\":15317:15412   */\n      tag_497\n        /* \"#utility.yul\":15408:15411   */\n      dup3\n        /* \"#utility.yul\":15399:15405   */\n      dup6\n        /* \"#utility.yul\":15317:15412   */\n      tag_288\n      jump\t// in\n    tag_497:\n        /* \"#utility.yul\":15310:15412   */\n      swap2\n      pop\n        /* \"#utility.yul\":15429:15577   */\n      tag_498\n        /* \"#utility.yul\":15573:15576   */\n      dup3\n        /* \"#utility.yul\":15429:15577   */\n      tag_290\n      jump\t// in\n    tag_498:\n        /* \"#utility.yul\":15422:15577   */\n      swap2\n      pop\n        /* \"#utility.yul\":15594:15686   */\n      tag_499\n        /* \"#utility.yul\":15682:15685   */\n      dup3\n        /* \"#utility.yul\":15673:15679   */\n      dup5\n        /* \"#utility.yul\":15594:15686   */\n      tag_292\n      jump\t// in\n    tag_499:\n        /* \"#utility.yul\":15587:15686   */\n      swap2\n      pop\n        /* \"#utility.yul\":15703:15706   */\n      dup2\n        /* \"#utility.yul\":15696:15706   */\n      swap1\n      pop\n        /* \"#utility.yul\":15017:15712   */\n      swap4\n      swap3\n      pop\n      pop\n      pop\n      jump\t// out\n        /* \"#utility.yul\":15718:15889   */\n    tag_293:\n        /* \"#utility.yul\":15858:15881   */\n      0x50726f7669646572206e616d65206e6f74207365740000000000000000000000\n        /* \"#utility.yul\":15854:15855   */\n      0x00\n        /* \"#utility.yul\":15846:15852   */\n      dup3\n        /* \"#utility.yul\":15842:15856   */\n      add\n        /* \"#utility.yul\":15835:15882   */\n      mstore\n        /* \"#utility.yul\":15718:15889   */\n      pop\n      jump\t// out\n        /* \"#utility.yul\":15895:16261   */\n    tag_294:\n        /* \"#utility.yul\":16037:16040   */\n      0x00\n        /* \"#utility.yul\":16058:16125   */\n      tag_502\n        /* \"#utility.yul\":16122:16124   */\n      0x15\n        /* \"#utility.yul\":16117:16120   */\n      dup4\n        /* \"#utility.yul\":16058:16125   */\n      tag_250\n      jump\t// in\n    tag_502:\n        /* \"#utility.yul\":16051:16125   */\n      swap2\n      pop\n        /* \"#utility.yul\":16134:16227   */\n      tag_503\n        /* \"#utility.yul\":16223:16226   */\n      dup3\n        /* \"#utility.yul\":16134:16227   */\n      tag_293\n      jump\t// in\n    tag_503:\n        /* \"#utility.yul\":16252:16254   */\n      0x20\n        /* \"#utility.yul\":16247:16250   */\n      dup3\n        /* \"#utility.yul\":16243:16255   */\n      add\n        /* \"#utility.yul\":16236:16255   */\n      swap1\n      pop\n        /* \"#utility.yul\":15895:16261   */\n      swap2\n      swap1\n      pop\n      jump\t// out\n        /* \"#utility.yul\":16267:16686   */\n    tag_84:\n        /* \"#utility.yul\":16433:16437   */\n      0x00\n        /* \"#utility.yul\":16471:16473   */\n      0x20\n        /* \"#utility.yul\":16460:16469   */\n      dup3\n        /* \"#utility.yul\":16456:16474   */\n      add\n        /* \"#utility.yul\":16448:16474   */\n      swap1\n      pop\n        /* \"#utility.yul\":16520:16529   */\n      dup2\n        /* \"#utility.yul\":16514:16518   */\n      dup2\n        /* \"#utility.yul\":16510:16530   */\n      sub\n        /* \"#utility.yul\":16506:16507   */\n      0x00\n        /* \"#utility.yul\":16495:16504   */\n      dup4\n        /* \"#utility.yul\":16491:16508   */\n      add\n        /* \"#utility.yul\":16484:16531   */\n      mstore\n        /* \"#utility.yul\":16548:16679   */\n      tag_505\n        /* \"#utility.yul\":16674:16678   */\n      dup2\n        /* \"#utility.yul\":16548:16679   */\n      tag_294\n      jump\t// in\n    tag_505:\n        /* \"#utility.yul\":16540:16679   */\n      swap1\n      pop\n        /* \"#utility.yul\":16267:16686   */\n      swap2\n      swap1\n      pop\n      jump\t// out\n        /* \"#utility.yul\":16692:16858   */\n    tag_295:\n        /* \"#utility.yul\":16832:16850   */\n      0x51696172614d6f6e616441737365747300000000000000000000000000000000\n        /* \"#utility.yul\":16828:16829   */\n      0x00\n        /* \"#utility.yul\":16820:16826   */\n      dup3\n        /* \"#utility.yul\":16816:16830   */\n      add\n        /* \"#utility.yul\":16809:16851   */\n      mstore\n        /* \"#utility.yul\":16692:16858   */\n      pop\n      jump\t// out\n        /* \"#utility.yul\":16864:17230   */\n    tag_296:\n        /* \"#utility.yul\":17006:17009   */\n      0x00\n        /* \"#utility.yul\":17027:17094   */\n      tag_508\n        /* \"#utility.yul\":17091:17093   */\n      0x10\n        /* \"#utility.yul\":17086:17089   */\n      dup4\n        /* \"#utility.yul\":17027:17094   */\n      tag_250\n      jump\t// in\n    tag_508:\n        /* \"#utility.yul\":17020:17094   */\n      swap2\n      pop\n        /* \"#utility.yul\":17103:17196   */\n      tag_509\n        /* \"#utility.yul\":17192:17195   */\n      dup3\n        /* \"#utility.yul\":17103:17196   */\n      tag_295\n      jump\t// in\n    tag_509:\n        /* \"#utility.yul\":17221:17223   */\n      0x20\n        /* \"#utility.yul\":17216:17219   */\n      dup3\n        /* \"#utility.yul\":17212:17224   */\n      add\n        /* \"#utility.yul\":17205:17224   */\n      swap1\n      pop\n        /* \"#utility.yul\":16864:17230   */\n      swap2\n      swap1\n      pop\n      jump\t// out\n        /* \"#utility.yul\":17236:17856   */\n    tag_86:\n        /* \"#utility.yul\":17450:17454   */\n      0x00\n        /* \"#utility.yul\":17488:17490   */\n      0x40\n        /* \"#utility.yul\":17477:17486   */\n      dup3\n        /* \"#utility.yul\":17473:17491   */\n      add\n        /* \"#utility.yul\":17465:17491   */\n      swap1\n      pop\n        /* \"#utility.yul\":17537:17546   */\n      dup2\n        /* \"#utility.yul\":17531:17535   */\n      dup2\n        /* \"#utility.yul\":17527:17547   */\n      sub\n        /* \"#utility.yul\":17523:17524   */\n      0x00\n        /* \"#utility.yul\":17512:17521   */\n      dup4\n        /* \"#utility.yul\":17508:17525   */\n      add\n        /* \"#utility.yul\":17501:17548   */\n      mstore\n        /* \"#utility.yul\":17565:17696   */\n      tag_511\n        /* \"#utility.yul\":17691:17695   */\n      dup2\n        /* \"#utility.yul\":17565:17696   */\n      tag_296\n      jump\t// in\n    tag_511:\n        /* \"#utility.yul\":17557:17696   */\n      swap1\n      pop\n        /* \"#utility.yul\":17743:17752   */\n      dup2\n        /* \"#utility.yul\":17737:17741   */\n      dup2\n        /* \"#utility.yul\":17733:17753   */\n      sub\n        /* \"#utility.yul\":17728:17730   */\n      0x20\n        /* \"#utility.yul\":17717:17726   */\n      dup4\n        /* \"#utility.yul\":17713:17731   */\n      add\n        /* \"#utility.yul\":17706:17754   */\n      mstore\n        /* \"#utility.yul\":17771:17849   */\n      tag_512\n        /* \"#utility.yul\":17844:17848   */\n      dup2\n        /* \"#utility.yul\":17835:17841   */\n      dup5\n        /* \"#utility.yul\":17771:17849   */\n      tag_253\n      jump\t// in\n    tag_512:\n        /* \"#utility.yul\":17763:17849   */\n      swap1\n      pop\n        /* \"#utility.yul\":17236:17856   */\n      swap3\n      swap2\n      pop\n      pop\n      jump\t// out\n        /* \"#utility.yul\":17862:18169   */\n    tag_297:\n        /* \"#utility.yul\":17923:17927   */\n      0x00\n        /* \"#utility.yul\":18013:18031   */\n      0xffffffffffffffff\n        /* \"#utility.yul\":18005:18011   */\n      dup3\n        /* \"#utility.yul\":18002:18032   */\n      gt\n        /* \"#utility.yul\":17999:18055   */\n      iszero\n      tag_514\n      jumpi\n        /* \"#utility.yul\":18035:18053   */\n      tag_515\n      tag_106\n      jump\t// in\n    tag_515:\n        /* \"#utility.yul\":17999:18055   */\n    tag_514:\n        /* \"#utility.yul\":18073:18102   */\n      tag_516\n        /* \"#utility.yul\":18095:18101   */\n      dup3\n        /* \"#utility.yul\":18073:18102   */\n      tag_252\n      jump\t// in\n    tag_516:\n        /* \"#utility.yul\":18065:18102   */\n      swap1\n      pop\n        /* \"#utility.yul\":18157:18161   */\n      0x20\n        /* \"#utility.yul\":18151:18155   */\n      dup2\n        /* \"#utility.yul\":18147:18162   */\n      add\n        /* \"#utility.yul\":18139:18162   */\n      swap1\n      pop\n        /* \"#utility.yul\":17862:18169   */\n      swap2\n      swap1\n      pop\n      jump\t// out\n        /* \"#utility.yul\":18175:18607   */\n    tag_298:\n        /* \"#utility.yul\":18263:18268   */\n      0x00\n        /* \"#utility.yul\":18288:18353   */\n      tag_518\n        /* \"#utility.yul\":18304:18352   */\n      tag_519\n        /* \"#utility.yul\":18345:18351   */\n      dup5\n        /* \"#utility.yul\":18304:18352   */\n      tag_297\n      jump\t// in\n    tag_519:\n        /* \"#utility.yul\":18288:18353   */\n      tag_260\n      jump\t// in\n    tag_518:\n        /* \"#utility.yul\":18279:18353   */\n      swap1\n      pop\n        /* \"#utility.yul\":18376:18382   */\n      dup3\n        /* \"#utility.yul\":18369:18374   */\n      dup2\n        /* \"#utility.yul\":18362:18383   */\n      mstore\n        /* \"#utility.yul\":18414:18418   */\n      0x20\n        /* \"#utility.yul\":18407:18412   */\n      dup2\n        /* \"#utility.yul\":18403:18419   */\n      add\n        /* \"#utility.yul\":18452:18455   */\n      dup5\n        /* \"#utility.yul\":18443:18449   */\n      dup5\n        /* \"#utility.yul\":18438:18441   */\n      dup5\n        /* \"#utility.yul\":18434:18450   */\n      add\n        /* \"#utility.yul\":18431:18456   */\n      gt\n        /* \"#utility.yul\":18428:18540   */\n      iszero\n      tag_520\n      jumpi\n        /* \"#utility.yul\":18459:18538   */\n      tag_521\n      tag_258\n      jump\t// in\n    tag_521:\n        /* \"#utility.yul\":18428:18540   */\n    tag_520:\n        /* \"#utility.yul\":18549:18601   */\n      tag_522\n        /* \"#utility.yul\":18594:18600   */\n      dup5\n        /* \"#utility.yul\":18589:18592   */\n      dup3\n        /* \"#utility.yul\":18584:18587   */\n      dup6\n        /* \"#utility.yul\":18549:18601   */\n      tag_251\n      jump\t// in\n    tag_522:\n        /* \"#utility.yul\":18269:18607   */\n      pop\n        /* \"#utility.yul\":18175:18607   */\n      swap4\n      swap3\n      pop\n      pop\n      pop\n      jump\t// out\n        /* \"#utility.yul\":18626:18979   */\n    tag_299:\n        /* \"#utility.yul\":18692:18697   */\n      0x00\n        /* \"#utility.yul\":18741:18744   */\n      dup3\n        /* \"#utility.yul\":18734:18738   */\n      0x1f\n        /* \"#utility.yul\":18726:18732   */\n      dup4\n        /* \"#utility.yul\":18722:18739   */\n      add\n        /* \"#utility.yul\":18718:18745   */\n      slt\n        /* \"#utility.yul\":18708:18830   */\n      tag_524\n      jumpi\n        /* \"#utility.yul\":18749:18828   */\n      tag_525\n      tag_257\n      jump\t// in\n    tag_525:\n        /* \"#utility.yul\":18708:18830   */\n    tag_524:\n        /* \"#utility.yul\":18859:18865   */\n      dup2\n        /* \"#utility.yul\":18853:18866   */\n      mload\n        /* \"#utility.yul\":18884:18973   */\n      tag_526\n        /* \"#utility.yul\":18969:18972   */\n      dup5\n        /* \"#utility.yul\":18961:18967   */\n      dup3\n        /* \"#utility.yul\":18954:18958   */\n      0x20\n        /* \"#utility.yul\":18946:18952   */\n      dup7\n        /* \"#utility.yul\":18942:18959   */\n      add\n        /* \"#utility.yul\":18884:18973   */\n      tag_298\n      jump\t// in\n    tag_526:\n        /* \"#utility.yul\":18875:18973   */\n      swap2\n      pop\n        /* \"#utility.yul\":18698:18979   */\n      pop\n        /* \"#utility.yul\":18626:18979   */\n      swap3\n      swap2\n      pop\n      pop\n      jump\t// out\n        /* \"#utility.yul\":18985:19507   */\n    tag_90:\n        /* \"#utility.yul\":19064:19070   */\n      0x00\n        /* \"#utility.yul\":19113:19115   */\n      0x20\n        /* \"#utility.yul\":19101:19110   */\n      dup3\n        /* \"#utility.yul\":19092:19099   */\n      dup5\n        /* \"#utility.yul\":19088:19111   */\n      sub\n        /* \"#utility.yul\":19084:19116   */\n      slt\n        /* \"#utility.yul\":19081:19200   */\n      iszero\n      tag_528\n      jumpi\n        /* \"#utility.yul\":19119:19198   */\n      tag_529\n      tag_255\n      jump\t// in\n    tag_529:\n        /* \"#utility.yul\":19081:19200   */\n    tag_528:\n        /* \"#utility.yul\":19260:19261   */\n      0x00\n        /* \"#utility.yul\":19249:19258   */\n      dup3\n        /* \"#utility.yul\":19245:19262   */\n      add\n        /* \"#utility.yul\":19239:19263   */\n      mload\n        /* \"#utility.yul\":19290:19308   */\n      0xffffffffffffffff\n        /* \"#utility.yul\":19282:19288   */\n      dup2\n        /* \"#utility.yul\":19279:19309   */\n      gt\n        /* \"#utility.yul\":19276:19393   */\n      iszero\n      tag_530\n      jumpi\n        /* \"#utility.yul\":19312:19391   */\n      tag_531\n      tag_256\n      jump\t// in\n    tag_531:\n        /* \"#utility.yul\":19276:19393   */\n    tag_530:\n        /* \"#utility.yul\":19417:19490   */\n      tag_532\n        /* \"#utility.yul\":19482:19489   */\n      dup5\n        /* \"#utility.yul\":19473:19479   */\n      dup3\n        /* \"#utility.yul\":19462:19471   */\n      dup6\n        /* \"#utility.yul\":19458:19480   */\n      add\n        /* \"#utility.yul\":19417:19490   */\n      tag_299\n      jump\t// in\n    tag_532:\n        /* \"#utility.yul\":19407:19490   */\n      swap2\n      pop\n        /* \"#utility.yul\":19210:19500   */\n      pop\n        /* \"#utility.yul\":18985:19507   */\n      swap3\n      swap2\n      pop\n      pop\n      jump\t// out\n        /* \"#utility.yul\":19513:19684   */\n    tag_300:\n        /* \"#utility.yul\":19653:19676   */\n      0x4e6f20646174612066726f6d2072656769737472790000000000000000000000\n        /* \"#utility.yul\":19649:19650   */\n      0x00\n        /* \"#utility.yul\":19641:19647   */\n      dup3\n        /* \"#utility.yul\":19637:19651   */\n      add\n        /* \"#utility.yul\":19630:19677   */\n      mstore\n        /* \"#utility.yul\":19513:19684   */\n      pop\n      jump\t// out\n        /* \"#utility.yul\":19690:20056   */\n    tag_301:\n        /* \"#utility.yul\":19832:19835   */\n      0x00\n        /* \"#utility.yul\":19853:19920   */\n      tag_535\n        /* \"#utility.yul\":19917:19919   */\n      0x15\n        /* \"#utility.yul\":19912:19915   */\n      dup4\n        /* \"#utility.yul\":19853:19920   */\n      tag_250\n      jump\t// in\n    tag_535:\n        /* \"#utility.yul\":19846:19920   */\n      swap2\n      pop\n        /* \"#utility.yul\":19929:20022   */\n      tag_536\n        /* \"#utility.yul\":20018:20021   */\n      dup3\n        /* \"#utility.yul\":19929:20022   */\n      tag_300\n      jump\t// in\n    tag_536:\n        /* \"#utility.yul\":20047:20049   */\n      0x20\n        /* \"#utility.yul\":20042:20045   */\n      dup3\n        /* \"#utility.yul\":20038:20050   */\n      add\n        /* \"#utility.yul\":20031:20050   */\n      swap1\n      pop\n        /* \"#utility.yul\":19690:20056   */\n      swap2\n      swap1\n      pop\n      jump\t// out\n        /* \"#utility.yul\":20062:20481   */\n    tag_93:\n        /* \"#utility.yul\":20228:20232   */\n      0x00\n        /* \"#utility.yul\":20266:20268   */\n      0x20\n        /* \"#utility.yul\":20255:20264   */\n      dup3\n        /* \"#utility.yul\":20251:20269   */\n      add\n        /* \"#utility.yul\":20243:20269   */\n      swap1\n      pop\n        /* \"#utility.yul\":20315:20324   */\n      dup2\n        /* \"#utility.yul\":20309:20313   */\n      dup2\n        /* \"#utility.yul\":20305:20325   */\n      sub\n        /* \"#utility.yul\":20301:20302   */\n      0x00\n        /* \"#utility.yul\":20290:20299   */\n      dup4\n        /* \"#utility.yul\":20286:20303   */\n      add\n        /* \"#utility.yul\":20279:20326   */\n      mstore\n        /* \"#utility.yul\":20343:20474   */\n      tag_538\n        /* \"#utility.yul\":20469:20473   */\n      dup2\n        /* \"#utility.yul\":20343:20474   */\n      tag_301\n      jump\t// in\n    tag_538:\n        /* \"#utility.yul\":20335:20474   */\n      swap1\n      pop\n        /* \"#utility.yul\":20062:20481   */\n      swap2\n      swap1\n      pop\n      jump\t// out\n        /* \"#utility.yul\":20487:20651   */\n    tag_302:\n        /* \"#utility.yul\":20627:20643   */\n      0x4461746120746f6f2073686f7274000000000000000000000000000000000000\n        /* \"#utility.yul\":20623:20624   */\n      0x00\n        /* \"#utility.yul\":20615:20621   */\n      dup3\n        /* \"#utility.yul\":20611:20625   */\n      add\n        /* \"#utility.yul\":20604:20644   */\n      mstore\n        /* \"#utility.yul\":20487:20651   */\n      pop\n      jump\t// out\n        /* \"#utility.yul\":20657:21023   */\n    tag_303:\n        /* \"#utility.yul\":20799:20802   */\n      0x00\n        /* \"#utility.yul\":20820:20887   */\n      tag_541\n        /* \"#utility.yul\":20884:20886   */\n      0x0e\n        /* \"#utility.yul\":20879:20882   */\n      dup4\n        /* \"#utility.yul\":20820:20887   */\n      tag_250\n      jump\t// in\n    tag_541:\n        /* \"#utility.yul\":20813:20887   */\n      swap2\n      pop\n        /* \"#utility.yul\":20896:20989   */\n      tag_542\n        /* \"#utility.yul\":20985:20988   */\n      dup3\n        /* \"#utility.yul\":20896:20989   */\n      tag_302\n      jump\t// in\n    tag_542:\n        /* \"#utility.yul\":21014:21016   */\n      0x20\n        /* \"#utility.yul\":21009:21012   */\n      dup3\n        /* \"#utility.yul\":21005:21017   */\n      add\n        /* \"#utility.yul\":20998:21017   */\n      swap1\n      pop\n        /* \"#utility.yul\":20657:21023   */\n      swap2\n      swap1\n      pop\n      jump\t// out\n        /* \"#utility.yul\":21029:21448   */\n    tag_96:\n        /* \"#utility.yul\":21195:21199   */\n      0x00\n        /* \"#utility.yul\":21233:21235   */\n      0x20\n        /* \"#utility.yul\":21222:21231   */\n      dup3\n        /* \"#utility.yul\":21218:21236   */\n      add\n        /* \"#utility.yul\":21210:21236   */\n      swap1\n      pop\n        /* \"#utility.yul\":21282:21291   */\n      dup2\n        /* \"#utility.yul\":21276:21280   */\n      dup2\n        /* \"#utility.yul\":21272:21292   */\n      sub\n        /* \"#utility.yul\":21268:21269   */\n      0x00\n        /* \"#utility.yul\":21257:21266   */\n      dup4\n        /* \"#utility.yul\":21253:21270   */\n      add\n        /* \"#utility.yul\":21246:21293   */\n      mstore\n        /* \"#utility.yul\":21310:21441   */\n      tag_544\n        /* \"#utility.yul\":21436:21440   */\n      dup2\n        /* \"#utility.yul\":21310:21441   */\n      tag_303\n      jump\t// in\n    tag_544:\n        /* \"#utility.yul\":21302:21441   */\n      swap1\n      pop\n        /* \"#utility.yul\":21029:21448   */\n      swap2\n      swap1\n      pop\n      jump\t// out\n        /* \"#utility.yul\":21454:21630   */\n    tag_304:\n        /* \"#utility.yul\":21594:21622   */\n      0x5661756c743a20546f6b656e206e6f7420737570706f72746564000000000000\n        /* \"#utility.yul\":21590:21591   */\n      0x00\n        /* \"#utility.yul\":21582:21588   */\n      dup3\n        /* \"#utility.yul\":21578:21592   */\n      add\n        /* \"#utility.yul\":21571:21623   */\n      mstore\n        /* \"#utility.yul\":21454:21630   */\n      pop\n      jump\t// out\n        /* \"#utility.yul\":21636:22002   */\n    tag_305:\n        /* \"#utility.yul\":21778:21781   */\n      0x00\n        /* \"#utility.yul\":21799:21866   */\n      tag_547\n        /* \"#utility.yul\":21863:21865   */\n      0x1a\n        /* \"#utility.yul\":21858:21861   */\n      dup4\n        /* \"#utility.yul\":21799:21866   */\n      tag_250\n      jump\t// in\n    tag_547:\n        /* \"#utility.yul\":21792:21866   */\n      swap2\n      pop\n        /* \"#utility.yul\":21875:21968   */\n      tag_548\n        /* \"#utility.yul\":21964:21967   */\n      dup3\n        /* \"#utility.yul\":21875:21968   */\n      tag_304\n      jump\t// in\n    tag_548:\n        /* \"#utility.yul\":21993:21995   */\n      0x20\n        /* \"#utility.yul\":21988:21991   */\n      dup3\n        /* \"#utility.yul\":21984:21996   */\n      add\n        /* \"#utility.yul\":21977:21996   */\n      swap1\n      pop\n        /* \"#utility.yul\":21636:22002   */\n      swap2\n      swap1\n      pop\n      jump\t// out\n        /* \"#utility.yul\":22008:22427   */\n    tag_101:\n        /* \"#utility.yul\":22174:22178   */\n      0x00\n        /* \"#utility.yul\":22212:22214   */\n      0x20\n        /* \"#utility.yul\":22201:22210   */\n      dup3\n        /* \"#utility.yul\":22197:22215   */\n      add\n        /* \"#utility.yul\":22189:22215   */\n      swap1\n      pop\n        /* \"#utility.yul\":22261:22270   */\n      dup2\n        /* \"#utility.yul\":22255:22259   */\n      dup2\n        /* \"#utility.yul\":22251:22271   */\n      sub\n        /* \"#utility.yul\":22247:22248   */\n      0x00\n        /* \"#utility.yul\":22236:22245   */\n      dup4\n        /* \"#utility.yul\":22232:22249   */\n      add\n        /* \"#utility.yul\":22225:22272   */\n      mstore\n        /* \"#utility.yul\":22289:22420   */\n      tag_550\n        /* \"#utility.yul\":22415:22419   */\n      dup2\n        /* \"#utility.yul\":22289:22420   */\n      tag_305\n      jump\t// in\n    tag_550:\n        /* \"#utility.yul\":22281:22420   */\n      swap1\n      pop\n        /* \"#utility.yul\":22008:22427   */\n      swap2\n      swap1\n      pop\n      jump\t// out\n        /* \"#utility.yul\":22433:22613   */\n    tag_306:\n        /* \"#utility.yul\":22481:22558   */\n      0x4e487b7100000000000000000000000000000000000000000000000000000000\n        /* \"#utility.yul\":22478:22479   */\n      0x00\n        /* \"#utility.yul\":22471:22559   */\n      mstore\n        /* \"#utility.yul\":22578:22582   */\n      0x11\n        /* \"#utility.yul\":22575:22576   */\n      0x04\n        /* \"#utility.yul\":22568:22583   */\n      mstore\n        /* \"#utility.yul\":22602:22606   */\n      0x24\n        /* \"#utility.yul\":22599:22600   */\n      0x00\n        /* \"#utility.yul\":22592:22607   */\n      revert\n        /* \"#utility.yul\":22619:22810   */\n    tag_103:\n        /* \"#utility.yul\":22659:22662   */\n      0x00\n        /* \"#utility.yul\":22678:22698   */\n      tag_553\n        /* \"#utility.yul\":22696:22697   */\n      dup3\n        /* \"#utility.yul\":22678:22698   */\n      tag_275\n      jump\t// in\n    tag_553:\n        /* \"#utility.yul\":22673:22698   */\n      swap2\n      pop\n        /* \"#utility.yul\":22712:22732   */\n      tag_554\n        /* \"#utility.yul\":22730:22731   */\n      dup4\n        /* \"#utility.yul\":22712:22732   */\n      tag_275\n      jump\t// in\n    tag_554:\n        /* \"#utility.yul\":22707:22732   */\n      swap3\n      pop\n        /* \"#utility.yul\":22755:22756   */\n      dup3\n        /* \"#utility.yul\":22752:22753   */\n      dup3\n        /* \"#utility.yul\":22748:22757   */\n      add\n        /* \"#utility.yul\":22741:22757   */\n      swap1\n      pop\n        /* \"#utility.yul\":22776:22779   */\n      dup1\n        /* \"#utility.yul\":22773:22774   */\n      dup3\n        /* \"#utility.yul\":22770:22780   */\n      gt\n        /* \"#utility.yul\":22767:22803   */\n      iszero\n      tag_555\n      jumpi\n        /* \"#utility.yul\":22783:22801   */\n      tag_556\n      tag_306\n      jump\t// in\n    tag_556:\n        /* \"#utility.yul\":22767:22803   */\n    tag_555:\n        /* \"#utility.yul\":22619:22810   */\n      swap3\n      swap2\n      pop\n      pop\n      jump\t// out\n        /* \"#utility.yul\":22816:22996   */\n    tag_114:\n        /* \"#utility.yul\":22864:22941   */\n      0x4e487b7100000000000000000000000000000000000000000000000000000000\n        /* \"#utility.yul\":22861:22862   */\n      0x00\n        /* \"#utility.yul\":22854:22942   */\n      mstore\n        /* \"#utility.yul\":22961:22965   */\n      0x32\n        /* \"#utility.yul\":22958:22959   */\n      0x04\n        /* \"#utility.yul\":22951:22966   */\n      mstore\n        /* \"#utility.yul\":22985:22989   */\n      0x24\n        /* \"#utility.yul\":22982:22983   */\n      0x00\n        /* \"#utility.yul\":22975:22990   */\n      revert\n        /* \"#utility.yul\":23026:23343   */\n    tag_307:\n        /* \"#utility.yul\":23124:23127   */\n      0x00\n        /* \"#utility.yul\":23145:23216   */\n      tag_559\n        /* \"#utility.yul\":23209:23215   */\n      dup4\n        /* \"#utility.yul\":23204:23207   */\n      dup6\n        /* \"#utility.yul\":23145:23216   */\n      tag_250\n      jump\t// in\n    tag_559:\n        /* \"#utility.yul\":23138:23216   */\n      swap4\n      pop\n        /* \"#utility.yul\":23226:23282   */\n      tag_560\n        /* \"#utility.yul\":23275:23281   */\n      dup4\n        /* \"#utility.yul\":23270:23273   */\n      dup6\n        /* \"#utility.yul\":23263:23268   */\n      dup5\n        /* \"#utility.yul\":23226:23282   */\n      tag_262\n      jump\t// in\n    tag_560:\n        /* \"#utility.yul\":23307:23336   */\n      tag_561\n        /* \"#utility.yul\":23329:23335   */\n      dup4\n        /* \"#utility.yul\":23307:23336   */\n      tag_252\n      jump\t// in\n    tag_561:\n        /* \"#utility.yul\":23302:23305   */\n      dup5\n        /* \"#utility.yul\":23298:23337   */\n      add\n        /* \"#utility.yul\":23291:23337   */\n      swap1\n      pop\n        /* \"#utility.yul\":23026:23343   */\n      swap4\n      swap3\n      pop\n      pop\n      pop\n      jump\t// out\n        /* \"#utility.yul\":23349:23682   */\n    tag_119:\n        /* \"#utility.yul\":23472:23476   */\n      0x00\n        /* \"#utility.yul\":23510:23512   */\n      0x20\n        /* \"#utility.yul\":23499:23508   */\n      dup3\n        /* \"#utility.yul\":23495:23513   */\n      add\n        /* \"#utility.yul\":23487:23513   */\n      swap1\n      pop\n        /* \"#utility.yul\":23559:23568   */\n      dup2\n        /* \"#utility.yul\":23553:23557   */\n      dup2\n        /* \"#utility.yul\":23549:23569   */\n      sub\n        /* \"#utility.yul\":23545:23546   */\n      0x00\n        /* \"#utility.yul\":23534:23543   */\n      dup4\n        /* \"#utility.yul\":23530:23547   */\n      add\n        /* \"#utility.yul\":23523:23570   */\n      mstore\n        /* \"#utility.yul\":23587:23675   */\n      tag_563\n        /* \"#utility.yul\":23670:23674   */\n      dup2\n        /* \"#utility.yul\":23661:23667   */\n      dup5\n        /* \"#utility.yul\":23653:23659   */\n      dup7\n        /* \"#utility.yul\":23587:23675   */\n      tag_307\n      jump\t// in\n    tag_563:\n        /* \"#utility.yul\":23579:23675   */\n      swap1\n      pop\n        /* \"#utility.yul\":23349:23682   */\n      swap4\n      swap3\n      pop\n      pop\n      pop\n      jump\t// out\n        /* \"#utility.yul\":23712:24543   */\n    tag_308:\n        /* \"#utility.yul\":23797:23800   */\n      0x00\n        /* \"#utility.yul\":23834:23839   */\n      dup2\n        /* \"#utility.yul\":23828:23840   */\n      sload\n        /* \"#utility.yul\":23863:23899   */\n      tag_565\n        /* \"#utility.yul\":23889:23898   */\n      dup2\n        /* \"#utility.yul\":23863:23899   */\n      tag_73\n      jump\t// in\n    tag_565:\n        /* \"#utility.yul\":23915:23986   */\n      tag_566\n        /* \"#utility.yul\":23979:23985   */\n      dup2\n        /* \"#utility.yul\":23974:23977   */\n      dup7\n        /* \"#utility.yul\":23915:23986   */\n      tag_250\n      jump\t// in\n    tag_566:\n        /* \"#utility.yul\":23908:23986   */\n      swap5\n      pop\n        /* \"#utility.yul\":24017:24018   */\n      0x01\n        /* \"#utility.yul\":24006:24015   */\n      dup3\n        /* \"#utility.yul\":24002:24019   */\n      and\n        /* \"#utility.yul\":24033:24034   */\n      0x00\n        /* \"#utility.yul\":24028:24192   */\n      dup2\n      eq\n      tag_568\n      jumpi\n        /* \"#utility.yul\":24206:24207   */\n      0x01\n        /* \"#utility.yul\":24201:24537   */\n      dup2\n      eq\n      tag_569\n      jumpi\n        /* \"#utility.yul\":23995:24537   */\n      jump(tag_567)\n        /* \"#utility.yul\":24028:24192   */\n    tag_568:\n        /* \"#utility.yul\":24112:24116   */\n      0xff\n        /* \"#utility.yul\":24108:24117   */\n      not\n        /* \"#utility.yul\":24097:24106   */\n      dup4\n        /* \"#utility.yul\":24093:24118   */\n      and\n        /* \"#utility.yul\":24088:24091   */\n      dup7\n        /* \"#utility.yul\":24081:24119   */\n      mstore\n        /* \"#utility.yul\":24172:24178   */\n      dup2\n        /* \"#utility.yul\":24165:24179   */\n      iszero\n        /* \"#utility.yul\":24158:24180   */\n      iszero\n        /* \"#utility.yul\":24152:24156   */\n      0x20\n        /* \"#utility.yul\":24148:24181   */\n      mul\n        /* \"#utility.yul\":24143:24146   */\n      dup7\n        /* \"#utility.yul\":24139:24182   */\n      add\n        /* \"#utility.yul\":24132:24182   */\n      swap4\n      pop\n        /* \"#utility.yul\":24028:24192   */\n      jump(tag_567)\n        /* \"#utility.yul\":24201:24537   */\n    tag_569:\n        /* \"#utility.yul\":24268:24306   */\n      tag_570\n        /* \"#utility.yul\":24300:24305   */\n      dup6\n        /* \"#utility.yul\":24268:24306   */\n      tag_291\n      jump\t// in\n    tag_570:\n        /* \"#utility.yul\":24328:24329   */\n      0x00\n        /* \"#utility.yul\":24342:24496   */\n    tag_571:\n        /* \"#utility.yul\":24356:24362   */\n      dup4\n        /* \"#utility.yul\":24353:24354   */\n      dup2\n        /* \"#utility.yul\":24350:24363   */\n      lt\n        /* \"#utility.yul\":24342:24496   */\n      iszero\n      tag_573\n      jumpi\n        /* \"#utility.yul\":24430:24437   */\n      dup2\n        /* \"#utility.yul\":24424:24438   */\n      sload\n        /* \"#utility.yul\":24420:24421   */\n      dup2\n        /* \"#utility.yul\":24415:24418   */\n      dup10\n        /* \"#utility.yul\":24411:24422   */\n      add\n        /* \"#utility.yul\":24404:24439   */\n      mstore\n        /* \"#utility.yul\":24480:24481   */\n      0x01\n        /* \"#utility.yul\":24471:24478   */\n      dup3\n        /* \"#utility.yul\":24467:24482   */\n      add\n        /* \"#utility.yul\":24456:24482   */\n      swap2\n      pop\n        /* \"#utility.yul\":24378:24382   */\n      0x20\n        /* \"#utility.yul\":24375:24376   */\n      dup2\n        /* \"#utility.yul\":24371:24383   */\n      add\n        /* \"#utility.yul\":24366:24383   */\n      swap1\n      pop\n        /* \"#utility.yul\":24342:24496   */\n      jump(tag_571)\n    tag_573:\n        /* \"#utility.yul\":24525:24526   */\n      dup1\n        /* \"#utility.yul\":24520:24523   */\n      dup9\n        /* \"#utility.yul\":24516:24527   */\n      add\n        /* \"#utility.yul\":24509:24527   */\n      swap6\n      pop\n        /* \"#utility.yul\":24208:24537   */\n      pop\n      pop\n        /* \"#utility.yul\":23995:24537   */\n    tag_567:\n      pop\n        /* \"#utility.yul\":23801:24543   */\n      pop\n      pop\n        /* \"#utility.yul\":23712:24543   */\n      swap3\n      swap2\n      pop\n      pop\n      jump\t// out\n        /* \"#utility.yul\":24549:24856   */\n    tag_123:\n        /* \"#utility.yul\":24659:24663   */\n      0x00\n        /* \"#utility.yul\":24697:24699   */\n      0x20\n        /* \"#utility.yul\":24686:24695   */\n      dup3\n        /* \"#utility.yul\":24682:24700   */\n      add\n        /* \"#utility.yul\":24674:24700   */\n      swap1\n      pop\n        /* \"#utility.yul\":24746:24755   */\n      dup2\n        /* \"#utility.yul\":24740:24744   */\n      dup2\n        /* \"#utility.yul\":24736:24756   */\n      sub\n        /* \"#utility.yul\":24732:24733   */\n      0x00\n        /* \"#utility.yul\":24721:24730   */\n      dup4\n        /* \"#utility.yul\":24717:24734   */\n      add\n        /* \"#utility.yul\":24710:24757   */\n      mstore\n        /* \"#utility.yul\":24774:24849   */\n      tag_575\n        /* \"#utility.yul\":24844:24848   */\n      dup2\n        /* \"#utility.yul\":24835:24841   */\n      dup5\n        /* \"#utility.yul\":24774:24849   */\n      tag_308\n      jump\t// in\n    tag_575:\n        /* \"#utility.yul\":24766:24849   */\n      swap1\n      pop\n        /* \"#utility.yul\":24549:24856   */\n      swap3\n      swap2\n      pop\n      pop\n      jump\t// out\n        /* \"#utility.yul\":24862:25037   */\n    tag_309:\n        /* \"#utility.yul\":25002:25029   */\n      0x4772616e74205769746864726177205065726d697373696f6e00000000000000\n        /* \"#utility.yul\":24998:24999   */\n      0x00\n        /* \"#utility.yul\":24990:24996   */\n      dup3\n        /* \"#utility.yul\":24986:25000   */\n      add\n        /* \"#utility.yul\":24979:25030   */\n      mstore\n        /* \"#utility.yul\":24862:25037   */\n      pop\n      jump\t// out\n        /* \"#utility.yul\":25043:25409   */\n    tag_310:\n        /* \"#utility.yul\":25185:25188   */\n      0x00\n        /* \"#utility.yul\":25206:25273   */\n      tag_578\n        /* \"#utility.yul\":25270:25272   */\n      0x19\n        /* \"#utility.yul\":25265:25268   */\n      dup4\n        /* \"#utility.yul\":25206:25273   */\n      tag_250\n      jump\t// in\n    tag_578:\n        /* \"#utility.yul\":25199:25273   */\n      swap2\n      pop\n        /* \"#utility.yul\":25282:25375   */\n      tag_579\n        /* \"#utility.yul\":25371:25374   */\n      dup3\n        /* \"#utility.yul\":25282:25375   */\n      tag_309\n      jump\t// in\n    tag_579:\n        /* \"#utility.yul\":25400:25402   */\n      0x20\n        /* \"#utility.yul\":25395:25398   */\n      dup3\n        /* \"#utility.yul\":25391:25403   */\n      add\n        /* \"#utility.yul\":25384:25403   */\n      swap1\n      pop\n        /* \"#utility.yul\":25043:25409   */\n      swap2\n      swap1\n      pop\n      jump\t// out\n        /* \"#utility.yul\":25415:25550   */\n    tag_311:\n        /* \"#utility.yul\":25503:25509   */\n      0x00\n        /* \"#utility.yul\":25537:25542   */\n      dup2\n        /* \"#utility.yul\":25531:25543   */\n      mload\n        /* \"#utility.yul\":25521:25543   */\n      swap1\n      pop\n        /* \"#utility.yul\":25415:25550   */\n      swap2\n      swap1\n      pop\n      jump\t// out\n        /* \"#utility.yul\":25556:25761   */\n    tag_312:\n        /* \"#utility.yul\":25676:25687   */\n      0x00\n        /* \"#utility.yul\":25710:25716   */\n      dup3\n        /* \"#utility.yul\":25705:25708   */\n      dup3\n        /* \"#utility.yul\":25698:25717   */\n      mstore\n        /* \"#utility.yul\":25750:25754   */\n      0x20\n        /* \"#utility.yul\":25745:25748   */\n      dup3\n        /* \"#utility.yul\":25741:25755   */\n      add\n        /* \"#utility.yul\":25726:25755   */\n      swap1\n      pop\n        /* \"#utility.yul\":25556:25761   */\n      swap3\n      swap2\n      pop\n      pop\n      jump\t// out\n        /* \"#utility.yul\":25767:25920   */\n    tag_313:\n        /* \"#utility.yul\":25855:25859   */\n      0x00\n        /* \"#utility.yul\":25878:25881   */\n      dup2\n        /* \"#utility.yul\":25870:25881   */\n      swap1\n      pop\n        /* \"#utility.yul\":25908:25912   */\n      0x20\n        /* \"#utility.yul\":25903:25906   */\n      dup3\n        /* \"#utility.yul\":25899:25913   */\n      add\n        /* \"#utility.yul\":25891:25913   */\n      swap1\n      pop\n        /* \"#utility.yul\":25767:25920   */\n      swap2\n      swap1\n      pop\n      jump\t// out\n        /* \"#utility.yul\":25926:26085   */\n    tag_314:\n        /* \"#utility.yul\":26000:26011   */\n      0x00\n        /* \"#utility.yul\":26034:26040   */\n      dup3\n        /* \"#utility.yul\":26029:26032   */\n      dup3\n        /* \"#utility.yul\":26022:26041   */\n      mstore\n        /* \"#utility.yul\":26074:26078   */\n      0x20\n        /* \"#utility.yul\":26069:26072   */\n      dup3\n        /* \"#utility.yul\":26065:26079   */\n      add\n        /* \"#utility.yul\":26050:26079   */\n      swap1\n      pop\n        /* \"#utility.yul\":25926:26085   */\n      swap3\n      swap2\n      pop\n      pop\n      jump\t// out\n        /* \"#utility.yul\":26091:26448   */\n    tag_315:\n        /* \"#utility.yul\":26169:26172   */\n      0x00\n        /* \"#utility.yul\":26197:26236   */\n      tag_585\n        /* \"#utility.yul\":26230:26235   */\n      dup3\n        /* \"#utility.yul\":26197:26236   */\n      tag_249\n      jump\t// in\n    tag_585:\n        /* \"#utility.yul\":26252:26313   */\n      tag_586\n        /* \"#utility.yul\":26306:26312   */\n      dup2\n        /* \"#utility.yul\":26301:26304   */\n      dup6\n        /* \"#utility.yul\":26252:26313   */\n      tag_314\n      jump\t// in\n    tag_586:\n        /* \"#utility.yul\":26245:26313   */\n      swap4\n      pop\n        /* \"#utility.yul\":26322:26387   */\n      tag_587\n        /* \"#utility.yul\":26380:26386   */\n      dup2\n        /* \"#utility.yul\":26375:26378   */\n      dup6\n        /* \"#utility.yul\":26368:26372   */\n      0x20\n        /* \"#utility.yul\":26361:26366   */\n      dup7\n        /* \"#utility.yul\":26357:26373   */\n      add\n        /* \"#utility.yul\":26322:26387   */\n      tag_251\n      jump\t// in\n    tag_587:\n        /* \"#utility.yul\":26412:26441   */\n      tag_588\n        /* \"#utility.yul\":26434:26440   */\n      dup2\n        /* \"#utility.yul\":26412:26441   */\n      tag_252\n      jump\t// in\n    tag_588:\n        /* \"#utility.yul\":26407:26410   */\n      dup5\n        /* \"#utility.yul\":26403:26442   */\n      add\n        /* \"#utility.yul\":26396:26442   */\n      swap2\n      pop\n        /* \"#utility.yul\":26173:26448   */\n      pop\n        /* \"#utility.yul\":26091:26448   */\n      swap3\n      swap2\n      pop\n      pop\n      jump\t// out\n        /* \"#utility.yul\":26454:26552   */\n    tag_316:\n        /* \"#utility.yul\":26505:26511   */\n      0x00\n        /* \"#utility.yul\":26539:26544   */\n      dup2\n        /* \"#utility.yul\":26533:26545   */\n      mload\n        /* \"#utility.yul\":26523:26545   */\n      swap1\n      pop\n        /* \"#utility.yul\":26454:26552   */\n      swap2\n      swap1\n      pop\n      jump\t// out\n        /* \"#utility.yul\":26558:26716   */\n    tag_317:\n        /* \"#utility.yul\":26631:26642   */\n      0x00\n        /* \"#utility.yul\":26665:26671   */\n      dup3\n        /* \"#utility.yul\":26660:26663   */\n      dup3\n        /* \"#utility.yul\":26653:26672   */\n      mstore\n        /* \"#utility.yul\":26705:26709   */\n      0x20\n        /* \"#utility.yul\":26700:26703   */\n      dup3\n        /* \"#utility.yul\":26696:26710   */\n      add\n        /* \"#utility.yul\":26681:26710   */\n      swap1\n      pop\n        /* \"#utility.yul\":26558:26716   */\n      swap3\n      swap2\n      pop\n      pop\n      jump\t// out\n        /* \"#utility.yul\":26722:27075   */\n    tag_318:\n        /* \"#utility.yul\":26798:26801   */\n      0x00\n        /* \"#utility.yul\":26826:26864   */\n      tag_592\n        /* \"#utility.yul\":26858:26863   */\n      dup3\n        /* \"#utility.yul\":26826:26864   */\n      tag_316\n      jump\t// in\n    tag_592:\n        /* \"#utility.yul\":26880:26940   */\n      tag_593\n        /* \"#utility.yul\":26933:26939   */\n      dup2\n        /* \"#utility.yul\":26928:26931   */\n      dup6\n        /* \"#utility.yul\":26880:26940   */\n      tag_317\n      jump\t// in\n    tag_593:\n        /* \"#utility.yul\":26873:26940   */\n      swap4\n      pop\n        /* \"#utility.yul\":26949:27014   */\n      tag_594\n        /* \"#utility.yul\":27007:27013   */\n      dup2\n        /* \"#utility.yul\":27002:27005   */\n      dup6\n        /* \"#utility.yul\":26995:26999   */\n      0x20\n        /* \"#utility.yul\":26988:26993   */\n      dup7\n        /* \"#utility.yul\":26984:27000   */\n      add\n        /* \"#utility.yul\":26949:27014   */\n      tag_251\n      jump\t// in\n    tag_594:\n        /* \"#utility.yul\":27039:27068   */\n      tag_595\n        /* \"#utility.yul\":27061:27067   */\n      dup2\n        /* \"#utility.yul\":27039:27068   */\n      tag_252\n      jump\t// in\n    tag_595:\n        /* \"#utility.yul\":27034:27037   */\n      dup5\n        /* \"#utility.yul\":27030:27069   */\n      add\n        /* \"#utility.yul\":27023:27069   */\n      swap2\n      pop\n        /* \"#utility.yul\":26802:27075   */\n      pop\n        /* \"#utility.yul\":26722:27075   */\n      swap3\n      swap2\n      pop\n      pop\n      jump\t// out\n        /* \"#utility.yul\":27131:28038   */\n    tag_319:\n        /* \"#utility.yul\":27232:27235   */\n      0x00\n        /* \"#utility.yul\":27268:27272   */\n      0x60\n        /* \"#utility.yul\":27263:27266   */\n      dup4\n        /* \"#utility.yul\":27259:27273   */\n      add\n        /* \"#utility.yul\":27355:27359   */\n      0x00\n        /* \"#utility.yul\":27348:27353   */\n      dup4\n        /* \"#utility.yul\":27344:27360   */\n      add\n        /* \"#utility.yul\":27338:27361   */\n      mload\n        /* \"#utility.yul\":27408:27411   */\n      dup5\n        /* \"#utility.yul\":27402:27406   */\n      dup3\n        /* \"#utility.yul\":27398:27412   */\n      sub\n        /* \"#utility.yul\":27391:27395   */\n      0x00\n        /* \"#utility.yul\":27386:27389   */\n      dup7\n        /* \"#utility.yul\":27382:27396   */\n      add\n        /* \"#utility.yul\":27375:27413   */\n      mstore\n        /* \"#utility.yul\":27434:27507   */\n      tag_597\n        /* \"#utility.yul\":27502:27506   */\n      dup3\n        /* \"#utility.yul\":27488:27500   */\n      dup3\n        /* \"#utility.yul\":27434:27507   */\n      tag_315\n      jump\t// in\n    tag_597:\n        /* \"#utility.yul\":27426:27507   */\n      swap2\n      pop\n        /* \"#utility.yul\":27283:27518   */\n      pop\n        /* \"#utility.yul\":27604:27608   */\n      0x20\n        /* \"#utility.yul\":27597:27602   */\n      dup4\n        /* \"#utility.yul\":27593:27609   */\n      add\n        /* \"#utility.yul\":27587:27610   */\n      mload\n        /* \"#utility.yul\":27657:27660   */\n      dup5\n        /* \"#utility.yul\":27651:27655   */\n      dup3\n        /* \"#utility.yul\":27647:27661   */\n      sub\n        /* \"#utility.yul\":27640:27644   */\n      0x20\n        /* \"#utility.yul\":27635:27638   */\n      dup7\n        /* \"#utility.yul\":27631:27645   */\n      add\n        /* \"#utility.yul\":27624:27662   */\n      mstore\n        /* \"#utility.yul\":27683:27756   */\n      tag_598\n        /* \"#utility.yul\":27751:27755   */\n      dup3\n        /* \"#utility.yul\":27737:27749   */\n      dup3\n        /* \"#utility.yul\":27683:27756   */\n      tag_315\n      jump\t// in\n    tag_598:\n        /* \"#utility.yul\":27675:27756   */\n      swap2\n      pop\n        /* \"#utility.yul\":27528:27767   */\n      pop\n        /* \"#utility.yul\":27850:27854   */\n      0x40\n        /* \"#utility.yul\":27843:27848   */\n      dup4\n        /* \"#utility.yul\":27839:27855   */\n      add\n        /* \"#utility.yul\":27833:27856   */\n      mload\n        /* \"#utility.yul\":27903:27906   */\n      dup5\n        /* \"#utility.yul\":27897:27901   */\n      dup3\n        /* \"#utility.yul\":27893:27907   */\n      sub\n        /* \"#utility.yul\":27886:27890   */\n      0x40\n        /* \"#utility.yul\":27881:27884   */\n      dup7\n        /* \"#utility.yul\":27877:27891   */\n      add\n        /* \"#utility.yul\":27870:27908   */\n      mstore\n        /* \"#utility.yul\":27929:28000   */\n      tag_599\n        /* \"#utility.yul\":27995:27999   */\n      dup3\n        /* \"#utility.yul\":27981:27993   */\n      dup3\n        /* \"#utility.yul\":27929:28000   */\n      tag_318\n      jump\t// in\n    tag_599:\n        /* \"#utility.yul\":27921:28000   */\n      swap2\n      pop\n        /* \"#utility.yul\":27777:28011   */\n      pop\n        /* \"#utility.yul\":28028:28032   */\n      dup1\n        /* \"#utility.yul\":28021:28032   */\n      swap2\n      pop\n        /* \"#utility.yul\":27237:28038   */\n      pop\n        /* \"#utility.yul\":27131:28038   */\n      swap3\n      swap2\n      pop\n      pop\n      jump\t// out\n        /* \"#utility.yul\":28044:28284   */\n    tag_320:\n        /* \"#utility.yul\":28155:28165   */\n      0x00\n        /* \"#utility.yul\":28190:28278   */\n      tag_601\n        /* \"#utility.yul\":28274:28277   */\n      dup4\n        /* \"#utility.yul\":28266:28272   */\n      dup4\n        /* \"#utility.yul\":28190:28278   */\n      tag_319\n      jump\t// in\n    tag_601:\n        /* \"#utility.yul\":28176:28278   */\n      swap1\n      pop\n        /* \"#utility.yul\":28044:28284   */\n      swap3\n      swap2\n      pop\n      pop\n      jump\t// out\n        /* \"#utility.yul\":28290:28424   */\n    tag_321:\n        /* \"#utility.yul\":28381:28385   */\n      0x00\n        /* \"#utility.yul\":28413:28417   */\n      0x20\n        /* \"#utility.yul\":28408:28411   */\n      dup3\n        /* \"#utility.yul\":28404:28418   */\n      add\n        /* \"#utility.yul\":28396:28418   */\n      swap1\n      pop\n        /* \"#utility.yul\":28290:28424   */\n      swap2\n      swap1\n      pop\n      jump\t// out\n        /* \"#utility.yul\":28484:29563   */\n    tag_322:\n        /* \"#utility.yul\":28645:28648   */\n      0x00\n        /* \"#utility.yul\":28674:28749   */\n      tag_604\n        /* \"#utility.yul\":28743:28748   */\n      dup3\n        /* \"#utility.yul\":28674:28749   */\n      tag_311\n      jump\t// in\n    tag_604:\n        /* \"#utility.yul\":28765:28872   */\n      tag_605\n        /* \"#utility.yul\":28865:28871   */\n      dup2\n        /* \"#utility.yul\":28860:28863   */\n      dup6\n        /* \"#utility.yul\":28765:28872   */\n      tag_312\n      jump\t// in\n    tag_605:\n        /* \"#utility.yul\":28758:28872   */\n      swap4\n      pop\n        /* \"#utility.yul\":28898:28901   */\n      dup4\n        /* \"#utility.yul\":28943:28947   */\n      0x20\n        /* \"#utility.yul\":28935:28941   */\n      dup3\n        /* \"#utility.yul\":28931:28948   */\n      mul\n        /* \"#utility.yul\":28926:28929   */\n      dup6\n        /* \"#utility.yul\":28922:28949   */\n      add\n        /* \"#utility.yul\":28973:29050   */\n      tag_606\n        /* \"#utility.yul\":29044:29049   */\n      dup6\n        /* \"#utility.yul\":28973:29050   */\n      tag_313\n      jump\t// in\n    tag_606:\n        /* \"#utility.yul\":29073:29080   */\n      dup1\n        /* \"#utility.yul\":29104:29105   */\n      0x00\n        /* \"#utility.yul\":29089:29518   */\n    tag_607:\n        /* \"#utility.yul\":29114:29120   */\n      dup6\n        /* \"#utility.yul\":29111:29112   */\n      dup2\n        /* \"#utility.yul\":29108:29121   */\n      lt\n        /* \"#utility.yul\":29089:29518   */\n      iszero\n      tag_609\n      jumpi\n        /* \"#utility.yul\":29185:29194   */\n      dup5\n        /* \"#utility.yul\":29179:29183   */\n      dup5\n        /* \"#utility.yul\":29175:29195   */\n      sub\n        /* \"#utility.yul\":29170:29173   */\n      dup10\n        /* \"#utility.yul\":29163:29196   */\n      mstore\n        /* \"#utility.yul\":29236:29242   */\n      dup2\n        /* \"#utility.yul\":29230:29243   */\n      mload\n        /* \"#utility.yul\":29264:29370   */\n      tag_610\n        /* \"#utility.yul\":29365:29369   */\n      dup6\n        /* \"#utility.yul\":29350:29363   */\n      dup3\n        /* \"#utility.yul\":29264:29370   */\n      tag_320\n      jump\t// in\n    tag_610:\n        /* \"#utility.yul\":29256:29370   */\n      swap5\n      pop\n        /* \"#utility.yul\":29393:29474   */\n      tag_611\n        /* \"#utility.yul\":29467:29473   */\n      dup4\n        /* \"#utility.yul\":29393:29474   */\n      tag_321\n      jump\t// in\n    tag_611:\n        /* \"#utility.yul\":29383:29474   */\n      swap3\n      pop\n        /* \"#utility.yul\":29503:29507   */\n      0x20\n        /* \"#utility.yul\":29498:29501   */\n      dup11\n        /* \"#utility.yul\":29494:29508   */\n      add\n        /* \"#utility.yul\":29487:29508   */\n      swap10\n      pop\n        /* \"#utility.yul\":29149:29518   */\n      pop\n        /* \"#utility.yul\":29136:29137   */\n      0x01\n        /* \"#utility.yul\":29133:29134   */\n      dup2\n        /* \"#utility.yul\":29129:29138   */\n      add\n        /* \"#utility.yul\":29124:29138   */\n      swap1\n      pop\n        /* \"#utility.yul\":29089:29518   */\n      jump(tag_607)\n    tag_609:\n        /* \"#utility.yul\":29093:29107   */\n      pop\n        /* \"#utility.yul\":29534:29538   */\n      dup3\n        /* \"#utility.yul\":29527:29538   */\n      swap8\n      pop\n        /* \"#utility.yul\":29554:29557   */\n      dup8\n        /* \"#utility.yul\":29547:29557   */\n      swap6\n      pop\n        /* \"#utility.yul\":28650:29563   */\n      pop\n      pop\n      pop\n      pop\n      pop\n        /* \"#utility.yul\":28484:29563   */\n      swap3\n      swap2\n      pop\n      pop\n      jump\t// out\n        /* \"#utility.yul\":29569:30333   */\n    tag_133:\n        /* \"#utility.yul\":29855:29859   */\n      0x00\n        /* \"#utility.yul\":29893:29895   */\n      0x40\n        /* \"#utility.yul\":29882:29891   */\n      dup3\n        /* \"#utility.yul\":29878:29896   */\n      add\n        /* \"#utility.yul\":29870:29896   */\n      swap1\n      pop\n        /* \"#utility.yul\":29942:29951   */\n      dup2\n        /* \"#utility.yul\":29936:29940   */\n      dup2\n        /* \"#utility.yul\":29932:29952   */\n      sub\n        /* \"#utility.yul\":29928:29929   */\n      0x00\n        /* \"#utility.yul\":29917:29926   */\n      dup4\n        /* \"#utility.yul\":29913:29930   */\n      add\n        /* \"#utility.yul\":29906:29953   */\n      mstore\n        /* \"#utility.yul\":29970:30101   */\n      tag_613\n        /* \"#utility.yul\":30096:30100   */\n      dup2\n        /* \"#utility.yul\":29970:30101   */\n      tag_310\n      jump\t// in\n    tag_613:\n        /* \"#utility.yul\":29962:30101   */\n      swap1\n      pop\n        /* \"#utility.yul\":30148:30157   */\n      dup2\n        /* \"#utility.yul\":30142:30146   */\n      dup2\n        /* \"#utility.yul\":30138:30158   */\n      sub\n        /* \"#utility.yul\":30133:30135   */\n      0x20\n        /* \"#utility.yul\":30122:30131   */\n      dup4\n        /* \"#utility.yul\":30118:30136   */\n      add\n        /* \"#utility.yul\":30111:30159   */\n      mstore\n        /* \"#utility.yul\":30176:30326   */\n      tag_614\n        /* \"#utility.yul\":30321:30325   */\n      dup2\n        /* \"#utility.yul\":30312:30318   */\n      dup5\n        /* \"#utility.yul\":30176:30326   */\n      tag_322\n      jump\t// in\n    tag_614:\n        /* \"#utility.yul\":30168:30326   */\n      swap1\n      pop\n        /* \"#utility.yul\":29569:30333   */\n      swap3\n      swap2\n      pop\n      pop\n      jump\t// out\n        /* \"#utility.yul\":30339:30516   */\n    tag_323:\n        /* \"#utility.yul\":30479:30508   */\n      0x5661756c743a20496e73756666696369656e742062616c616e63650000000000\n        /* \"#utility.yul\":30475:30476   */\n      0x00\n        /* \"#utility.yul\":30467:30473   */\n      dup3\n        /* \"#utility.yul\":30463:30477   */\n      add\n        /* \"#utility.yul\":30456:30509   */\n      mstore\n        /* \"#utility.yul\":30339:30516   */\n      pop\n      jump\t// out\n        /* \"#utility.yul\":30522:30888   */\n    tag_324:\n        /* \"#utility.yul\":30664:30667   */\n      0x00\n        /* \"#utility.yul\":30685:30752   */\n      tag_617\n        /* \"#utility.yul\":30749:30751   */\n      0x1b\n        /* \"#utility.yul\":30744:30747   */\n      dup4\n        /* \"#utility.yul\":30685:30752   */\n      tag_250\n      jump\t// in\n    tag_617:\n        /* \"#utility.yul\":30678:30752   */\n      swap2\n      pop\n        /* \"#utility.yul\":30761:30854   */\n      tag_618\n        /* \"#utility.yul\":30850:30853   */\n      dup3\n        /* \"#utility.yul\":30761:30854   */\n      tag_323\n      jump\t// in\n    tag_618:\n        /* \"#utility.yul\":30879:30881   */\n      0x20\n        /* \"#utility.yul\":30874:30877   */\n      dup3\n        /* \"#utility.yul\":30870:30882   */\n      add\n        /* \"#utility.yul\":30863:30882   */\n      swap1\n      pop\n        /* \"#utility.yul\":30522:30888   */\n      swap2\n      swap1\n      pop\n      jump\t// out\n        /* \"#utility.yul\":30894:31313   */\n    tag_149:\n        /* \"#utility.yul\":31060:31064   */\n      0x00\n        /* \"#utility.yul\":31098:31100   */\n      0x20\n        /* \"#utility.yul\":31087:31096   */\n      dup3\n        /* \"#utility.yul\":31083:31101   */\n      add\n        /* \"#utility.yul\":31075:31101   */\n      swap1\n      pop\n        /* \"#utility.yul\":31147:31156   */\n      dup2\n        /* \"#utility.yul\":31141:31145   */\n      dup2\n        /* \"#utility.yul\":31137:31157   */\n      sub\n        /* \"#utility.yul\":31133:31134   */\n      0x00\n        /* \"#utility.yul\":31122:31131   */\n      dup4\n        /* \"#utility.yul\":31118:31135   */\n      add\n        /* \"#utility.yul\":31111:31158   */\n      mstore\n        /* \"#utility.yul\":31175:31306   */\n      tag_620\n        /* \"#utility.yul\":31301:31305   */\n      dup2\n        /* \"#utility.yul\":31175:31306   */\n      tag_324\n      jump\t// in\n    tag_620:\n        /* \"#utility.yul\":31167:31306   */\n      swap1\n      pop\n        /* \"#utility.yul\":30894:31313   */\n      swap2\n      swap1\n      pop\n      jump\t// out\n        /* \"#utility.yul\":31319:31513   */\n    tag_151:\n        /* \"#utility.yul\":31359:31363   */\n      0x00\n        /* \"#utility.yul\":31379:31399   */\n      tag_622\n        /* \"#utility.yul\":31397:31398   */\n      dup3\n        /* \"#utility.yul\":31379:31399   */\n      tag_275\n      jump\t// in\n    tag_622:\n        /* \"#utility.yul\":31374:31399   */\n      swap2\n      pop\n        /* \"#utility.yul\":31413:31433   */\n      tag_623\n        /* \"#utility.yul\":31431:31432   */\n      dup4\n        /* \"#utility.yul\":31413:31433   */\n      tag_275\n      jump\t// in\n    tag_623:\n        /* \"#utility.yul\":31408:31433   */\n      swap3\n      pop\n        /* \"#utility.yul\":31457:31458   */\n      dup3\n        /* \"#utility.yul\":31454:31455   */\n      dup3\n        /* \"#utility.yul\":31450:31459   */\n      sub\n        /* \"#utility.yul\":31442:31459   */\n      swap1\n      pop\n        /* \"#utility.yul\":31481:31482   */\n      dup2\n        /* \"#utility.yul\":31475:31479   */\n      dup2\n        /* \"#utility.yul\":31472:31483   */\n      gt\n        /* \"#utility.yul\":31469:31506   */\n      iszero\n      tag_624\n      jumpi\n        /* \"#utility.yul\":31486:31504   */\n      tag_625\n      tag_306\n      jump\t// in\n    tag_625:\n        /* \"#utility.yul\":31469:31506   */\n    tag_624:\n        /* \"#utility.yul\":31319:31513   */\n      swap3\n      swap2\n      pop\n      pop\n      jump\t// out\n        /* \"#utility.yul\":31519:31677   */\n    tag_325:\n        /* \"#utility.yul\":31659:31669   */\n      0x5769746864726177000000000000000000000000000000000000000000000000\n        /* \"#utility.yul\":31655:31656   */\n      0x00\n        /* \"#utility.yul\":31647:31653   */\n      dup3\n        /* \"#utility.yul\":31643:31657   */\n      add\n        /* \"#utility.yul\":31636:31670   */\n      mstore\n        /* \"#utility.yul\":31519:31677   */\n      pop\n      jump\t// out\n        /* \"#utility.yul\":31683:32048   */\n    tag_326:\n        /* \"#utility.yul\":31825:31828   */\n      0x00\n        /* \"#utility.yul\":31846:31912   */\n      tag_628\n        /* \"#utility.yul\":31910:31911   */\n      0x08\n        /* \"#utility.yul\":31905:31908   */\n      dup4\n        /* \"#utility.yul\":31846:31912   */\n      tag_250\n      jump\t// in\n    tag_628:\n        /* \"#utility.yul\":31839:31912   */\n      swap2\n      pop\n        /* \"#utility.yul\":31921:32014   */\n      tag_629\n        /* \"#utility.yul\":32010:32013   */\n      dup3\n        /* \"#utility.yul\":31921:32014   */\n      tag_325\n      jump\t// in\n    tag_629:\n        /* \"#utility.yul\":32039:32041   */\n      0x20\n        /* \"#utility.yul\":32034:32037   */\n      dup3\n        /* \"#utility.yul\":32030:32042   */\n      add\n        /* \"#utility.yul\":32023:32042   */\n      swap1\n      pop\n        /* \"#utility.yul\":31683:32048   */\n      swap2\n      swap1\n      pop\n      jump\t// out\n        /* \"#utility.yul\":32054:32818   */\n    tag_175:\n        /* \"#utility.yul\":32340:32344   */\n      0x00\n        /* \"#utility.yul\":32378:32380   */\n      0x40\n        /* \"#utility.yul\":32367:32376   */\n      dup3\n        /* \"#utility.yul\":32363:32381   */\n      add\n        /* \"#utility.yul\":32355:32381   */\n      swap1\n      pop\n        /* \"#utility.yul\":32427:32436   */\n      dup2\n        /* \"#utility.yul\":32421:32425   */\n      dup2\n        /* \"#utility.yul\":32417:32437   */\n      sub\n        /* \"#utility.yul\":32413:32414   */\n      0x00\n        /* \"#utility.yul\":32402:32411   */\n      dup4\n        /* \"#utility.yul\":32398:32415   */\n      add\n        /* \"#utility.yul\":32391:32438   */\n      mstore\n        /* \"#utility.yul\":32455:32586   */\n      tag_631\n        /* \"#utility.yul\":32581:32585   */\n      dup2\n        /* \"#utility.yul\":32455:32586   */\n      tag_326\n      jump\t// in\n    tag_631:\n        /* \"#utility.yul\":32447:32586   */\n      swap1\n      pop\n        /* \"#utility.yul\":32633:32642   */\n      dup2\n        /* \"#utility.yul\":32627:32631   */\n      dup2\n        /* \"#utility.yul\":32623:32643   */\n      sub\n        /* \"#utility.yul\":32618:32620   */\n      0x20\n        /* \"#utility.yul\":32607:32616   */\n      dup4\n        /* \"#utility.yul\":32603:32621   */\n      add\n        /* \"#utility.yul\":32596:32644   */\n      mstore\n        /* \"#utility.yul\":32661:32811   */\n      tag_632\n        /* \"#utility.yul\":32806:32810   */\n      dup2\n        /* \"#utility.yul\":32797:32803   */\n      dup5\n        /* \"#utility.yul\":32661:32811   */\n      tag_322\n      jump\t// in\n    tag_632:\n        /* \"#utility.yul\":32653:32811   */\n      swap1\n      pop\n        /* \"#utility.yul\":32054:32818   */\n      swap3\n      swap2\n      pop\n      pop\n      jump\t// out\n        /* \"#utility.yul\":32824:33000   */\n    tag_327:\n        /* \"#utility.yul\":32964:32992   */\n      0x5661756c743a204465706f736974206d757374206265203e2030000000000000\n        /* \"#utility.yul\":32960:32961   */\n      0x00\n        /* \"#utility.yul\":32952:32958   */\n      dup3\n        /* \"#utility.yul\":32948:32962   */\n      add\n        /* \"#utility.yul\":32941:32993   */\n      mstore\n        /* \"#utility.yul\":32824:33000   */\n      pop\n      jump\t// out\n        /* \"#utility.yul\":33006:33372   */\n    tag_328:\n        /* \"#utility.yul\":33148:33151   */\n      0x00\n        /* \"#utility.yul\":33169:33236   */\n      tag_635\n        /* \"#utility.yul\":33233:33235   */\n      0x1a\n        /* \"#utility.yul\":33228:33231   */\n      dup4\n        /* \"#utility.yul\":33169:33236   */\n      tag_250\n      jump\t// in\n    tag_635:\n        /* \"#utility.yul\":33162:33236   */\n      swap2\n      pop\n        /* \"#utility.yul\":33245:33338   */\n      tag_636\n        /* \"#utility.yul\":33334:33337   */\n      dup3\n        /* \"#utility.yul\":33245:33338   */\n      tag_327\n      jump\t// in\n    tag_636:\n        /* \"#utility.yul\":33363:33365   */\n      0x20\n        /* \"#utility.yul\":33358:33361   */\n      dup3\n        /* \"#utility.yul\":33354:33366   */\n      add\n        /* \"#utility.yul\":33347:33366   */\n      swap1\n      pop\n        /* \"#utility.yul\":33006:33372   */\n      swap2\n      swap1\n      pop\n      jump\t// out\n        /* \"#utility.yul\":33378:33797   */\n    tag_186:\n        /* \"#utility.yul\":33544:33548   */\n      0x00\n        /* \"#utility.yul\":33582:33584   */\n      0x20\n        /* \"#utility.yul\":33571:33580   */\n      dup3\n        /* \"#utility.yul\":33567:33585   */\n      add\n        /* \"#utility.yul\":33559:33585   */\n      swap1\n      pop\n        /* \"#utility.yul\":33631:33640   */\n      dup2\n        /* \"#utility.yul\":33625:33629   */\n      dup2\n        /* \"#utility.yul\":33621:33641   */\n      sub\n        /* \"#utility.yul\":33617:33618   */\n      0x00\n        /* \"#utility.yul\":33606:33615   */\n      dup4\n        /* \"#utility.yul\":33602:33619   */\n      add\n        /* \"#utility.yul\":33595:33642   */\n      mstore\n        /* \"#utility.yul\":33659:33790   */\n      tag_638\n        /* \"#utility.yul\":33785:33789   */\n      dup2\n        /* \"#utility.yul\":33659:33790   */\n      tag_328\n      jump\t// in\n    tag_638:\n        /* \"#utility.yul\":33651:33790   */\n      swap1\n      pop\n        /* \"#utility.yul\":33378:33797   */\n      swap2\n      swap1\n      pop\n      jump\t// out\n        /* \"#utility.yul\":33803:33960   */\n    tag_329:\n        /* \"#utility.yul\":33943:33952   */\n      0x4465706f73697400000000000000000000000000000000000000000000000000\n        /* \"#utility.yul\":33939:33940   */\n      0x00\n        /* \"#utility.yul\":33931:33937   */\n      dup3\n        /* \"#utility.yul\":33927:33941   */\n      add\n        /* \"#utility.yul\":33920:33953   */\n      mstore\n        /* \"#utility.yul\":33803:33960   */\n      pop\n      jump\t// out\n        /* \"#utility.yul\":33966:34331   */\n    tag_330:\n        /* \"#utility.yul\":34108:34111   */\n      0x00\n        /* \"#utility.yul\":34129:34195   */\n      tag_641\n        /* \"#utility.yul\":34193:34194   */\n      0x07\n        /* \"#utility.yul\":34188:34191   */\n      dup4\n        /* \"#utility.yul\":34129:34195   */\n      tag_250\n      jump\t// in\n    tag_641:\n        /* \"#utility.yul\":34122:34195   */\n      swap2\n      pop\n        /* \"#utility.yul\":34204:34297   */\n      tag_642\n        /* \"#utility.yul\":34293:34296   */\n      dup3\n        /* \"#utility.yul\":34204:34297   */\n      tag_329\n      jump\t// in\n    tag_642:\n        /* \"#utility.yul\":34322:34324   */\n      0x20\n        /* \"#utility.yul\":34317:34320   */\n      dup3\n        /* \"#utility.yul\":34313:34325   */\n      add\n        /* \"#utility.yul\":34306:34325   */\n      swap1\n      pop\n        /* \"#utility.yul\":33966:34331   */\n      swap2\n      swap1\n      pop\n      jump\t// out\n        /* \"#utility.yul\":34337:35101   */\n    tag_211:\n        /* \"#utility.yul\":34623:34627   */\n      0x00\n        /* \"#utility.yul\":34661:34663   */\n      0x40\n        /* \"#utility.yul\":34650:34659   */\n      dup3\n        /* \"#utility.yul\":34646:34664   */\n      add\n        /* \"#utility.yul\":34638:34664   */\n      swap1\n      pop\n        /* \"#utility.yul\":34710:34719   */\n      dup2\n        /* \"#utility.yul\":34704:34708   */\n      dup2\n        /* \"#utility.yul\":34700:34720   */\n      sub\n        /* \"#utility.yul\":34696:34697   */\n      0x00\n        /* \"#utility.yul\":34685:34694   */\n      dup4\n        /* \"#utility.yul\":34681:34698   */\n      add\n        /* \"#utility.yul\":34674:34721   */\n      mstore\n        /* \"#utility.yul\":34738:34869   */\n      tag_644\n        /* \"#utility.yul\":34864:34868   */\n      dup2\n        /* \"#utility.yul\":34738:34869   */\n      tag_330\n      jump\t// in\n    tag_644:\n        /* \"#utility.yul\":34730:34869   */\n      swap1\n      pop\n        /* \"#utility.yul\":34916:34925   */\n      dup2\n        /* \"#utility.yul\":34910:34914   */\n      dup2\n        /* \"#utility.yul\":34906:34926   */\n      sub\n        /* \"#utility.yul\":34901:34903   */\n      0x20\n        /* \"#utility.yul\":34890:34899   */\n      dup4\n        /* \"#utility.yul\":34886:34904   */\n      add\n        /* \"#utility.yul\":34879:34927   */\n      mstore\n        /* \"#utility.yul\":34944:35094   */\n      tag_645\n        /* \"#utility.yul\":35089:35093   */\n      dup2\n        /* \"#utility.yul\":35080:35086   */\n      dup5\n        /* \"#utility.yul\":34944:35094   */\n      tag_322\n      jump\t// in\n    tag_645:\n        /* \"#utility.yul\":34936:35094   */\n      swap1\n      pop\n        /* \"#utility.yul\":34337:35101   */\n      swap3\n      swap2\n      pop\n      pop\n      jump\t// out\n\n    auxdata: 0xa26469706673582212207f5921f0084387cafaa97ee281e1482e68b7afe3216a173486ad36cf1965dc6c64736f6c634300081f0033\n}\n",
				"bytecode": {
					"linkReferences": {},
					"object": "60c060405234801561000f575f5ffd5b506040516136513803806136518339818101604052810190610031919061039b565b815f73ffffffffffffffffffffffffffffffffffffffff168173ffffffffffffffffffffffffffffffffffffffff16036100a2575f6040517f1e4fbdf7000000000000000000000000000000000000000000000000000000008152600401610099919061042a565b60405180910390fd5b6100b18161013360201b60201c565b508373ffffffffffffffffffffffffffffffffffffffff1660a08173ffffffffffffffffffffffffffffffffffffffff16815250508273ffffffffffffffffffffffffffffffffffffffff1660808173ffffffffffffffffffffffffffffffffffffffff168152505080600190816101299190610653565b5050505050610722565b5f5f5f9054906101000a900473ffffffffffffffffffffffffffffffffffffffff169050815f5f6101000a81548173ffffffffffffffffffffffffffffffffffffffff021916908373ffffffffffffffffffffffffffffffffffffffff1602179055508173ffffffffffffffffffffffffffffffffffffffff168173ffffffffffffffffffffffffffffffffffffffff167f8be0079c531659141344cd1fd0a4f28419497f9722a3daafe3b4186f6b6457e060405160405180910390a35050565b5f604051905090565b5f5ffd5b5f5ffd5b5f73ffffffffffffffffffffffffffffffffffffffff82169050919050565b5f61022e82610205565b9050919050565b61023e81610224565b8114610248575f5ffd5b50565b5f8151905061025981610235565b92915050565b5f5ffd5b5f5ffd5b5f601f19601f8301169050919050565b7f4e487b71000000000000000000000000000000000000000000000000000000005f52604160045260245ffd5b6102ad82610267565b810181811067ffffffffffffffff821117156102cc576102cb610277565b5b80604052505050565b5f6102de6101f4565b90506102ea82826102a4565b919050565b5f67ffffffffffffffff82111561030957610308610277565b5b61031282610267565b9050602081019050919050565b8281835e5f83830152505050565b5f61033f61033a846102ef565b6102d5565b90508281526020810184848401111561035b5761035a610263565b5b61036684828561031f565b509392505050565b5f82601f8301126103825761038161025f565b5b815161039284826020860161032d565b91505092915050565b5f5f5f5f608085870312156103b3576103b26101fd565b5b5f6103c08782880161024b565b94505060206103d18782880161024b565b93505060406103e28782880161024b565b925050606085015167ffffffffffffffff81111561040357610402610201565b5b61040f8782880161036e565b91505092959194509250565b61042481610224565b82525050565b5f60208201905061043d5f83018461041b565b92915050565b5f81519050919050565b7f4e487b71000000000000000000000000000000000000000000000000000000005f52602260045260245ffd5b5f600282049050600182168061049157607f821691505b6020821081036104a4576104a361044d565b5b50919050565b5f819050815f5260205f209050919050565b5f6020601f8301049050919050565b5f82821b905092915050565b5f600883026105067fffffffffffffffffffffffffffffffffffffffffffffffffffffffffffffffff826104cb565b61051086836104cb565b95508019841693508086168417925050509392505050565b5f819050919050565b5f819050919050565b5f61055461054f61054a84610528565b610531565b610528565b9050919050565b5f819050919050565b61056d8361053a565b6105816105798261055b565b8484546104d7565b825550505050565b5f5f905090565b610598610589565b6105a3818484610564565b505050565b5b818110156105c6576105bb5f82610590565b6001810190506105a9565b5050565b601f82111561060b576105dc816104aa565b6105e5846104bc565b810160208510156105f4578190505b610608610600856104bc565b8301826105a8565b50505b505050565b5f82821c905092915050565b5f61062b5f1984600802610610565b1980831691505092915050565b5f610643838361061c565b9150826002028217905092915050565b61065c82610443565b67ffffffffffffffff81111561067557610674610277565b5b61067f825461047a565b61068a8282856105ca565b5f60209050601f8311600181146106bb575f84156106a9578287015190505b6106b38582610638565b86555061071a565b601f1984166106c9866104aa565b5f5b828110156106f0578489015182556001820191506020850194506020810190506106cb565b8683101561070d5784890151610709601f89168261061c565b8355505b6001600288020188555050505b505050505050565b60805160a051612ef261075f5f395f8181610b1b0152818161125201528181611905015261199201525f818161037401526119b60152612ef25ff3fe608060405234801561000f575f5ffd5b50600436106100cc575f3560e01c80637804e7071161008a578063b5f8558c11610064578063b5f8558c146101fa578063bf4d766e14610218578063f139721c14610236578063f2fde38b14610252576100cc565b80637804e707146101a45780638da5cb5b146101c05780638e27d719146101de576100cc565b8062dad7d4146100d057806305d09fb1146100ee578063240028e81461011e5780636afbf5d61461014e578063715018a61461016a57806376c13cbd14610174575b5f5ffd5b6100d861026e565b6040516100e59190611eaf565b60405180910390f35b6101086004803603810190610103919061200c565b6102fa565b6040516101159190612092565b60405180910390f35b610138600480360381019061013391906120d5565b6104aa565b604051610145919061211a565b60405180910390f35b610168600480360381019061016391906121c3565b6104c7565b005b610172610ba8565b005b61018e60048036038101906101899190612247565b610bbb565b60405161019b9190612294565b60405180910390f35b6101be60048036038101906101b991906122ad565b610bdb565b005b6101c86112de565b6040516101d59190612092565b60405180910390f35b6101f860048036038101906101f3919061231e565b611305565b005b610202611990565b60405161020f91906123d6565b60405180910390f35b6102206119b4565b60405161022d919061240f565b60405180910390f35b610250600480360381019061024b9190612428565b6119d8565b005b61026c600480360381019061026791906120d5565b611ad0565b005b6001805461027b906124a0565b80601f01602080910402602001604051908101604052809291908181526020018280546102a7906124a0565b80156102f25780601f106102c9576101008083540402835291602001916102f2565b820191905f5260205f20905b8154815290600101906020018083116102d557829003601f168201915b505050505081565b5f5f8260016040516020016103109291906125e6565b60405160208183030381529060405290505f6001805461032f906124a0565b905011610371576040517f08c379a00000000000000000000000000000000000000000000000000000000081526004016103689061265e565b60405180910390fd5b5f7f000000000000000000000000000000000000000000000000000000000000000073ffffffffffffffffffffffffffffffffffffffff166316f1adc1836040518263ffffffff1660e01b81526004016103cb91906126c6565b5f60405180830381865afa1580156103e5573d5f5f3e3d5ffd5b505050506040513d5f823e3d601f19601f8201168201806040525081019061040d9190612797565b90505f815111610452576040517f08c379a000000000000000000000000000000000000000000000000000000000815260040161044990612828565b60405180910390fd5b601481511015610497576040517f08c379a000000000000000000000000000000000000000000000000000000000815260040161048e90612890565b60405180910390fd5b5f60148201519050809350505050919050565b6002602052805f5260405f205f915054906101000a900460ff1681565b5f61051485858080601f0160208091040260200160405190810160405280939291908181526020018383808284375f81840152601f19601f820116905080830192505050505050506102fa565b905060025f8273ffffffffffffffffffffffffffffffffffffffff1673ffffffffffffffffffffffffffffffffffffffff1681526020019081526020015f205f9054906101000a900460ff1661059f576040517f08c379a0000000000000000000000000000000000000000000000000000000008152600401610596906128f8565b60405180910390fd5b8260035f8873ffffffffffffffffffffffffffffffffffffffff1673ffffffffffffffffffffffffffffffffffffffff1681526020019081526020015f205f8373ffffffffffffffffffffffffffffffffffffffff1673ffffffffffffffffffffffffffffffffffffffff1681526020019081526020015f205f8282546106269190612943565b925050819055505f600667ffffffffffffffff81111561064957610648611ee8565b5b60405190808252806020026020018201604052801561068257816020015b61066f611e1e565b8152602001906001900390816106675790505b50905060405180606001604052806040518060400160405280600481526020017f757365720000000000000000000000000000000000000000000000000000000081525081526020016040518060400160405280600781526020017f61646472657373000000000000000000000000000000000000000000000000008152508152602001336040516020016107179190612092565b604051602081830303815290604052815250815f8151811061073c5761073b612976565b5b602002602001018190525060405180606001604052806040518060400160405280600681526020017f616d6f756e74000000000000000000000000000000000000000000000000000081525081526020016040518060400160405280600781526020017f75696e74323536000000000000000000000000000000000000000000000000008152508152602001856040516020016107d99190612294565b604051602081830303815290604052815250816001815181106107ff576107fe612976565b5b602002602001018190525060405180606001604052806040518060400160405280600581526020017f746f6b656e00000000000000000000000000000000000000000000000000000081525081526020016040518060400160405280600681526020017f737472696e6700000000000000000000000000000000000000000000000000008152508152602001878760405160200161089e9291906129cf565b604051602081830303815290604052815250816002815181106108c4576108c3612976565b5b602002602001018190525060405180606001604052806040518060400160405280600881526020017f70726f766964657200000000000000000000000000000000000000000000000081525081526020016040518060400160405280600681526020017f737472696e670000000000000000000000000000000000000000000000000000815250815260200160016040516020016109629190612a72565b6040516020818303038152906040528152508160038151811061098857610987612976565b5b602002602001018190525060405180606001604052806040518060400160405280600981526020017f6e756c6c6966696572000000000000000000000000000000000000000000000081525081526020016040518060400160405280600781526020017f75696e7432353600000000000000000000000000000000000000000000000000815250815260200184604051602001610a259190612294565b60405160208183030381529060405281525081600481518110610a4b57610a4a612976565b5b602002602001018190525060405180606001604052806040518060400160405280600981526020017f74696d657374616d70000000000000000000000000000000000000000000000081525081526020016040518060400160405280600481526020017f7532353600000000000000000000000000000000000000000000000000000000815250815260200142604051602001610ae89190612294565b60405160208183030381529060405281525081600581518110610b0e57610b0d612976565b5b60200260200101819052507f000000000000000000000000000000000000000000000000000000000000000073ffffffffffffffffffffffffffffffffffffffff16637d64fa9b826040518263ffffffff1660e01b8152600401610b729190612c8c565b5f604051808303815f87803b158015610b89575f5ffd5b505af1158015610b9b573d5f5f3e3d5ffd5b5050505050505050505050565b610bb0611b54565b610bb95f611bdb565b565b6003602052815f5260405f20602052805f5260405f205f91509150505481565b5f610c2885858080601f0160208091040260200160405190810160405280939291908181526020018383808284375f81840152601f19601f820116905080830192505050505050506102fa565b905060025f8273ffffffffffffffffffffffffffffffffffffffff1673ffffffffffffffffffffffffffffffffffffffff1681526020019081526020015f205f9054906101000a900460ff16610cb3576040517f08c379a0000000000000000000000000000000000000000000000000000000008152600401610caa906128f8565b60405180910390fd5b60035f3373ffffffffffffffffffffffffffffffffffffffff1673ffffffffffffffffffffffffffffffffffffffff1681526020019081526020015f205f8273ffffffffffffffffffffffffffffffffffffffff1673ffffffffffffffffffffffffffffffffffffffff1681526020019081526020015f2054831115610d6e576040517f08c379a0000000000000000000000000000000000000000000000000000000008152600401610d6590612d09565b60405180910390fd5b8260035f3373ffffffffffffffffffffffffffffffffffffffff1673ffffffffffffffffffffffffffffffffffffffff1681526020019081526020015f205f8373ffffffffffffffffffffffffffffffffffffffff1673ffffffffffffffffffffffffffffffffffffffff1681526020019081526020015f205f828254610df59190612d27565b92505081905550610e2782848373ffffffffffffffffffffffffffffffffffffffff16611c9c9092919063ffffffff16565b5f600567ffffffffffffffff811115610e4357610e42611ee8565b5b604051908082528060200260200182016040528015610e7c57816020015b610e69611e1e565b815260200190600190039081610e615790505b50905060405180606001604052806040518060400160405280600481526020017f757365720000000000000000000000000000000000000000000000000000000081525081526020016040518060400160405280600781526020017f6164647265737300000000000000000000000000000000000000000000000000815250815260200133604051602001610f119190612092565b604051602081830303815290604052815250815f81518110610f3657610f35612976565b5b602002602001018190525060405180606001604052806040518060400160405280600681526020017f616d6f756e74000000000000000000000000000000000000000000000000000081525081526020016040518060400160405280600781526020017f75696e7432353600000000000000000000000000000000000000000000000000815250815260200185604051602001610fd39190612294565b60405160208183030381529060405281525081600181518110610ff957610ff8612976565b5b602002602001018190525060405180606001604052806040518060400160405280600581526020017f746f6b656e00000000000000000000000000000000000000000000000000000081525081526020016040518060400160405280600681526020017f737472696e670000000000000000000000000000000000000000000000000000815250815260200187876040516020016110989291906129cf565b604051602081830303815290604052815250816002815181106110be576110bd612976565b5b602002602001018190525060405180606001604052806040518060400160405280600881526020017f70726f766964657200000000000000000000000000000000000000000000000081525081526020016040518060400160405280600681526020017f737472696e6700000000000000000000000000000000000000000000000000008152508152602001600160405160200161115c9190612a72565b6040516020818303038152906040528152508160038151811061118257611181612976565b5b602002602001018190525060405180606001604052806040518060400160405280600981526020017f74696d657374616d70000000000000000000000000000000000000000000000081525081526020016040518060400160405280600481526020017f753235360000000000000000000000000000000000000000000000000000000081525081526020014260405160200161121f9190612294565b6040516020818303038152906040528152508160048151811061124557611244612976565b5b60200260200101819052507f000000000000000000000000000000000000000000000000000000000000000073ffffffffffffffffffffffffffffffffffffffff16637d64fa9b826040518263ffffffff1660e01b81526004016112a99190612da4565b5f604051808303815f87803b1580156112c0575f5ffd5b505af11580156112d2573d5f5f3e3d5ffd5b50505050505050505050565b5f5f5f9054906101000a900473ffffffffffffffffffffffffffffffffffffffff16905090565b5f61135284848080601f0160208091040260200160405190810160405280939291908181526020018383808284375f81840152601f19601f820116905080830192505050505050506102fa565b905060025f8273ffffffffffffffffffffffffffffffffffffffff1673ffffffffffffffffffffffffffffffffffffffff1681526020019081526020015f205f9054906101000a900460ff166113dd576040517f08c379a00000000000000000000000000000000000000000000000000000000081526004016113d4906128f8565b60405180910390fd5b5f821161141f576040517f08c379a000000000000000000000000000000000000000000000000000000000815260040161141690612e21565b60405180910390fd5b61144c3330848473ffffffffffffffffffffffffffffffffffffffff16611cef909392919063ffffffff16565b8160035f3373ffffffffffffffffffffffffffffffffffffffff1673ffffffffffffffffffffffffffffffffffffffff1681526020019081526020015f205f8373ffffffffffffffffffffffffffffffffffffffff1673ffffffffffffffffffffffffffffffffffffffff1681526020019081526020015f205f8282546114d39190612943565b925050819055505f600567ffffffffffffffff8111156114f6576114f5611ee8565b5b60405190808252806020026020018201604052801561152f57816020015b61151c611e1e565b8152602001906001900390816115145790505b50905060405180606001604052806040518060400160405280600481526020017f757365720000000000000000000000000000000000000000000000000000000081525081526020016040518060400160405280600781526020017f61646472657373000000000000000000000000000000000000000000000000008152508152602001336040516020016115c49190612092565b604051602081830303815290604052815250815f815181106115e9576115e8612976565b5b602002602001018190525060405180606001604052806040518060400160405280600681526020017f616d6f756e74000000000000000000000000000000000000000000000000000081525081526020016040518060400160405280600781526020017f75696e74323536000000000000000000000000000000000000000000000000008152508152602001846040516020016116869190612294565b604051602081830303815290604052815250816001815181106116ac576116ab612976565b5b602002602001018190525060405180606001604052806040518060400160405280600581526020017f746f6b656e00000000000000000000000000000000000000000000000000000081525081526020016040518060400160405280600681526020017f737472696e6700000000000000000000000000000000000000000000000000008152508152602001868660405160200161174b9291906129cf565b6040516020818303038152906040528152508160028151811061177157611770612976565b5b602002602001018190525060405180606001604052806040518060400160405280600881526020017f70726f766964657200000000000000000000000000000000000000000000000081525081526020016040518060400160405280600681526020017f737472696e6700000000000000000000000000000000000000000000000000008152508152602001600160405160200161180f9190612a72565b6040516020818303038152906040528152508160038151811061183557611834612976565b5b602002602001018190525060405180606001604052806040518060400160405280600981526020017f74696d657374616d70000000000000000000000000000000000000000000000081525081526020016040518060400160405280600481526020017f75323536000000000000000000000000000000000000000000000000000000008152508152602001426040516020016118d29190612294565b604051602081830303815290604052815250816004815181106118f8576118f7612976565b5b60200260200101819052507f000000000000000000000000000000000000000000000000000000000000000073ffffffffffffffffffffffffffffffffffffffff16637d64fa9b826040518263ffffffff1660e01b815260040161195c9190612e89565b5f604051808303815f87803b158015611973575f5ffd5b505af1158015611985573d5f5f3e3d5ffd5b505050505050505050565b7f000000000000000000000000000000000000000000000000000000000000000081565b7f000000000000000000000000000000000000000000000000000000000000000081565b5f611a2583838080601f0160208091040260200160405190810160405280939291908181526020018383808284375f81840152601f19601f820116905080830192505050505050506102fa565b9050600160025f8373ffffffffffffffffffffffffffffffffffffffff1673ffffffffffffffffffffffffffffffffffffffff1681526020019081526020015f205f6101000a81548160ff0219169083151502179055508073ffffffffffffffffffffffffffffffffffffffff167fd57b1148efb91f418a2178fc1fb4ba12f9400a4dc8e71851fd59e85d337c609f6001604051611ac39190612a72565b60405180910390a2505050565b611ad8611b54565b5f73ffffffffffffffffffffffffffffffffffffffff168173ffffffffffffffffffffffffffffffffffffffff1603611b48575f6040517f1e4fbdf7000000000000000000000000000000000000000000000000000000008152600401611b3f9190612092565b60405180910390fd5b611b5181611bdb565b50565b611b5c611d44565b73ffffffffffffffffffffffffffffffffffffffff16611b7a6112de565b73ffffffffffffffffffffffffffffffffffffffff1614611bd957611b9d611d44565b6040517f118cdaa7000000000000000000000000000000000000000000000000000000008152600401611bd09190612092565b60405180910390fd5b565b5f5f5f9054906101000a900473ffffffffffffffffffffffffffffffffffffffff169050815f5f6101000a81548173ffffffffffffffffffffffffffffffffffffffff021916908373ffffffffffffffffffffffffffffffffffffffff1602179055508173ffffffffffffffffffffffffffffffffffffffff168173ffffffffffffffffffffffffffffffffffffffff167f8be0079c531659141344cd1fd0a4f28419497f9722a3daafe3b4186f6b6457e060405160405180910390a35050565b611ca98383836001611d4b565b611cea57826040517f5274afe7000000000000000000000000000000000000000000000000000000008152600401611ce19190612092565b60405180910390fd5b505050565b611cfd848484846001611dad565b611d3e57836040517f5274afe7000000000000000000000000000000000000000000000000000000008152600401611d359190612092565b60405180910390fd5b50505050565b5f33905090565b5f5f63a9059cbb60e01b9050604051815f525f1960601c86166004528460245260205f60445f5f8b5af1925060015f51148316611d9f578383151615611d93573d5f823e3d81fd5b5f873b113d1516831692505b806040525050949350505050565b5f5f6323b872dd60e01b9050604051815f525f1960601c87166004525f1960601c86166024528460445260205f60645f5f8c5af1925060015f51148316611e0b578383151615611dff573d5f823e3d81fd5b5f883b113d1516831692505b806040525f606052505095945050505050565b60405180606001604052806060815260200160608152602001606081525090565b5f81519050919050565b5f82825260208201905092915050565b8281835e5f83830152505050565b5f601f19601f8301169050919050565b5f611e8182611e3f565b611e8b8185611e49565b9350611e9b818560208601611e59565b611ea481611e67565b840191505092915050565b5f6020820190508181035f830152611ec78184611e77565b905092915050565b5f604051905090565b5f5ffd5b5f5ffd5b5f5ffd5b5f5ffd5b7f4e487b71000000000000000000000000000000000000000000000000000000005f52604160045260245ffd5b611f1e82611e67565b810181811067ffffffffffffffff82111715611f3d57611f3c611ee8565b5b80604052505050565b5f611f4f611ecf565b9050611f5b8282611f15565b919050565b5f67ffffffffffffffff821115611f7a57611f79611ee8565b5b611f8382611e67565b9050602081019050919050565b828183375f83830152505050565b5f611fb0611fab84611f60565b611f46565b905082815260208101848484011115611fcc57611fcb611ee4565b5b611fd7848285611f90565b509392505050565b5f82601f830112611ff357611ff2611ee0565b5b8135612003848260208601611f9e565b91505092915050565b5f6020828403121561202157612020611ed8565b5b5f82013567ffffffffffffffff81111561203e5761203d611edc565b5b61204a84828501611fdf565b91505092915050565b5f73ffffffffffffffffffffffffffffffffffffffff82169050919050565b5f61207c82612053565b9050919050565b61208c81612072565b82525050565b5f6020820190506120a55f830184612083565b92915050565b6120b481612072565b81146120be575f5ffd5b50565b5f813590506120cf816120ab565b92915050565b5f602082840312156120ea576120e9611ed8565b5b5f6120f7848285016120c1565b91505092915050565b5f8115159050919050565b61211481612100565b82525050565b5f60208201905061212d5f83018461210b565b92915050565b5f5ffd5b5f5ffd5b5f5f83601f8401126121505761214f611ee0565b5b8235905067ffffffffffffffff81111561216d5761216c612133565b5b60208301915083600182028301111561218957612188612137565b5b9250929050565b5f819050919050565b6121a281612190565b81146121ac575f5ffd5b50565b5f813590506121bd81612199565b92915050565b5f5f5f5f5f608086880312156121dc576121db611ed8565b5b5f6121e9888289016120c1565b955050602086013567ffffffffffffffff81111561220a57612209611edc565b5b6122168882890161213b565b94509450506040612229888289016121af565b925050606061223a888289016121af565b9150509295509295909350565b5f5f6040838503121561225d5761225c611ed8565b5b5f61226a858286016120c1565b925050602061227b858286016120c1565b9150509250929050565b61228e81612190565b82525050565b5f6020820190506122a75f830184612285565b92915050565b5f5f5f5f606085870312156122c5576122c4611ed8565b5b5f85013567ffffffffffffffff8111156122e2576122e1611edc565b5b6122ee8782880161213b565b94509450506020612301878288016121af565b9250506040612312878288016120c1565b91505092959194509250565b5f5f5f6040848603121561233557612334611ed8565b5b5f84013567ffffffffffffffff81111561235257612351611edc565b5b61235e8682870161213b565b93509350506020612371868287016121af565b9150509250925092565b5f819050919050565b5f61239e61239961239484612053565b61237b565b612053565b9050919050565b5f6123af82612384565b9050919050565b5f6123c0826123a5565b9050919050565b6123d0816123b6565b82525050565b5f6020820190506123e95f8301846123c7565b92915050565b5f6123f9826123a5565b9050919050565b612409816123ef565b82525050565b5f6020820190506124225f830184612400565b92915050565b5f5f6020838503121561243e5761243d611ed8565b5b5f83013567ffffffffffffffff81111561245b5761245a611edc565b5b6124678582860161213b565b92509250509250929050565b7f4e487b71000000000000000000000000000000000000000000000000000000005f52602260045260245ffd5b5f60028204905060018216806124b757607f821691505b6020821081036124ca576124c9612473565b5b50919050565b5f81905092915050565b5f6124e482611e3f565b6124ee81856124d0565b93506124fe818560208601611e59565b80840191505092915050565b7f5f000000000000000000000000000000000000000000000000000000000000005f82015250565b5f61253e6001836124d0565b91506125498261250a565b600182019050919050565b5f819050815f5260205f209050919050565b5f8154612572816124a0565b61257c81866124d0565b9450600182165f811461259657600181146125ab576125dd565b60ff19831686528115158202860193506125dd565b6125b485612554565b5f5b838110156125d5578154818901526001820191506020810190506125b6565b838801955050505b50505092915050565b5f6125f182856124da565b91506125fc82612532565b91506126088284612566565b91508190509392505050565b7f50726f7669646572206e616d65206e6f742073657400000000000000000000005f82015250565b5f612648601583611e49565b915061265382612614565b602082019050919050565b5f6020820190508181035f8301526126758161263c565b9050919050565b7f51696172614d6f6e6164417373657473000000000000000000000000000000005f82015250565b5f6126b0601083611e49565b91506126bb8261267c565b602082019050919050565b5f6040820190508181035f8301526126dd816126a4565b905081810360208301526126f18184611e77565b905092915050565b5f67ffffffffffffffff82111561271357612712611ee8565b5b61271c82611e67565b9050602081019050919050565b5f61273b612736846126f9565b611f46565b90508281526020810184848401111561275757612756611ee4565b5b612762848285611e59565b509392505050565b5f82601f83011261277e5761277d611ee0565b5b815161278e848260208601612729565b91505092915050565b5f602082840312156127ac576127ab611ed8565b5b5f82015167ffffffffffffffff8111156127c9576127c8611edc565b5b6127d58482850161276a565b91505092915050565b7f4e6f20646174612066726f6d20726567697374727900000000000000000000005f82015250565b5f612812601583611e49565b915061281d826127de565b602082019050919050565b5f6020820190508181035f83015261283f81612806565b9050919050565b7f4461746120746f6f2073686f72740000000000000000000000000000000000005f82015250565b5f61287a600e83611e49565b915061288582612846565b602082019050919050565b5f6020820190508181035f8301526128a78161286e565b9050919050565b7f5661756c743a20546f6b656e206e6f7420737570706f727465640000000000005f82015250565b5f6128e2601a83611e49565b91506128ed826128ae565b602082019050919050565b5f6020820190508181035f83015261290f816128d6565b9050919050565b7f4e487b71000000000000000000000000000000000000000000000000000000005f52601160045260245ffd5b5f61294d82612190565b915061295883612190565b92508282019050808211156129705761296f612916565b5b92915050565b7f4e487b71000000000000000000000000000000000000000000000000000000005f52603260045260245ffd5b5f6129ae8385611e49565b93506129bb838584611f90565b6129c483611e67565b840190509392505050565b5f6020820190508181035f8301526129e88184866129a3565b90509392505050565b5f81546129fd816124a0565b612a078186611e49565b9450600182165f8114612a215760018114612a3757612a69565b60ff198316865281151560200286019350612a69565b612a4085612554565b5f5b83811015612a6157815481890152600182019150602081019050612a42565b808801955050505b50505092915050565b5f6020820190508181035f830152612a8a81846129f1565b905092915050565b7f4772616e74205769746864726177205065726d697373696f6e000000000000005f82015250565b5f612ac6601983611e49565b9150612ad182612a92565b602082019050919050565b5f81519050919050565b5f82825260208201905092915050565b5f819050602082019050919050565b5f82825260208201905092915050565b5f612b1f82611e3f565b612b298185612b05565b9350612b39818560208601611e59565b612b4281611e67565b840191505092915050565b5f81519050919050565b5f82825260208201905092915050565b5f612b7182612b4d565b612b7b8185612b57565b9350612b8b818560208601611e59565b612b9481611e67565b840191505092915050565b5f606083015f8301518482035f860152612bb98282612b15565b91505060208301518482036020860152612bd38282612b15565b91505060408301518482036040860152612bed8282612b67565b9150508091505092915050565b5f612c058383612b9f565b905092915050565b5f602082019050919050565b5f612c2382612adc565b612c2d8185612ae6565b935083602082028501612c3f85612af6565b805f5b85811015612c7a5784840389528151612c5b8582612bfa565b9450612c6683612c0d565b925060208a01995050600181019050612c42565b50829750879550505050505092915050565b5f6040820190508181035f830152612ca381612aba565b90508181036020830152612cb78184612c19565b905092915050565b7f5661756c743a20496e73756666696369656e742062616c616e636500000000005f82015250565b5f612cf3601b83611e49565b9150612cfe82612cbf565b602082019050919050565b5f6020820190508181035f830152612d2081612ce7565b9050919050565b5f612d3182612190565b9150612d3c83612190565b9250828203905081811115612d5457612d53612916565b5b92915050565b7f57697468647261770000000000000000000000000000000000000000000000005f82015250565b5f612d8e600883611e49565b9150612d9982612d5a565b602082019050919050565b5f6040820190508181035f830152612dbb81612d82565b90508181036020830152612dcf8184612c19565b905092915050565b7f5661756c743a204465706f736974206d757374206265203e20300000000000005f82015250565b5f612e0b601a83611e49565b9150612e1682612dd7565b602082019050919050565b5f6020820190508181035f830152612e3881612dff565b9050919050565b7f4465706f736974000000000000000000000000000000000000000000000000005f82015250565b5f612e73600783611e49565b9150612e7e82612e3f565b602082019050919050565b5f6040820190508181035f830152612ea081612e67565b90508181036020830152612eb48184612c19565b90509291505056fea26469706673582212207f5921f0084387cafaa97ee281e1482e68b7afe3216a173486ad36cf1965dc6c64736f6c634300081f0033",
					"opcodes": "PUSH1 0xC0 PUSH1 0x40 MSTORE CALLVALUE DUP1 ISZERO PUSH2 0xF JUMPI PUSH0 PUSH0 REVERT JUMPDEST POP PUSH1 0x40 MLOAD PUSH2 0x3651 CODESIZE SUB DUP1 PUSH2 0x3651 DUP4 CODECOPY DUP2 DUP2 ADD PUSH1 0x40 MSTORE DUP2 ADD SWAP1 PUSH2 0x31 SWAP2 SWAP1 PUSH2 0x39B JUMP JUMPDEST DUP2 PUSH0 PUSH20 0xFFFFFFFFFFFFFFFFFFFFFFFFFFFFFFFFFFFFFFFF AND DUP2 PUSH20 0xFFFFFFFFFFFFFFFFFFFFFFFFFFFFFFFFFFFFFFFF AND SUB PUSH2 0xA2 JUMPI PUSH0 PUSH1 0x40 MLOAD PUSH32 0x1E4FBDF700000000000000000000000000000000000000000000000000000000 DUP2 MSTORE PUSH1 0x4 ADD PUSH2 0x99 SWAP2 SWAP1 PUSH2 0x42A JUMP JUMPDEST PUSH1 0x40 MLOAD DUP1 SWAP2 SUB SWAP1 REVERT JUMPDEST PUSH2 0xB1 DUP2 PUSH2 0x133 PUSH1 0x20 SHL PUSH1 0x20 SHR JUMP JUMPDEST POP DUP4 PUSH20 0xFFFFFFFFFFFFFFFFFFFFFFFFFFFFFFFFFFFFFFFF AND PUSH1 0xA0 DUP2 PUSH20 0xFFFFFFFFFFFFFFFFFFFFFFFFFFFFFFFFFFFFFFFF AND DUP2 MSTORE POP POP DUP3 PUSH20 0xFFFFFFFFFFFFFFFFFFFFFFFFFFFFFFFFFFFFFFFF AND PUSH1 0x80 DUP2 PUSH20 0xFFFFFFFFFFFFFFFFFFFFFFFFFFFFFFFFFFFFFFFF AND DUP2 MSTORE POP POP DUP1 PUSH1 0x1 SWAP1 DUP2 PUSH2 0x129 SWAP2 SWAP1 PUSH2 0x653 JUMP JUMPDEST POP POP POP POP POP PUSH2 0x722 JUMP JUMPDEST PUSH0 PUSH0 PUSH0 SWAP1 SLOAD SWAP1 PUSH2 0x100 EXP SWAP1 DIV PUSH20 0xFFFFFFFFFFFFFFFFFFFFFFFFFFFFFFFFFFFFFFFF AND SWAP1 POP DUP2 PUSH0 PUSH0 PUSH2 0x100 EXP DUP2 SLOAD DUP2 PUSH20 0xFFFFFFFFFFFFFFFFFFFFFFFFFFFFFFFFFFFFFFFF MUL NOT AND SWAP1 DUP4 PUSH20 0xFFFFFFFFFFFFFFFFFFFFFFFFFFFFFFFFFFFFFFFF AND MUL OR SWAP1 SSTORE POP DUP2 PUSH20 0xFFFFFFFFFFFFFFFFFFFFFFFFFFFFFFFFFFFFFFFF AND DUP2 PUSH20 0xFFFFFFFFFFFFFFFFFFFFFFFFFFFFFFFFFFFFFFFF AND PUSH32 0x8BE0079C531659141344CD1FD0A4F28419497F9722A3DAAFE3B4186F6B6457E0 PUSH1 0x40 MLOAD PUSH1 0x40 MLOAD DUP1 SWAP2 SUB SWAP1 LOG3 POP POP JUMP JUMPDEST PUSH0 PUSH1 0x40 MLOAD SWAP1 POP SWAP1 JUMP JUMPDEST PUSH0 PUSH0 REVERT JUMPDEST PUSH0 PUSH0 REVERT JUMPDEST PUSH0 PUSH20 0xFFFFFFFFFFFFFFFFFFFFFFFFFFFFFFFFFFFFFFFF DUP3 AND SWAP1 POP SWAP2 SWAP1 POP JUMP JUMPDEST PUSH0 PUSH2 0x22E DUP3 PUSH2 0x205 JUMP JUMPDEST SWAP1 POP SWAP2 SWAP1 POP JUMP JUMPDEST PUSH2 0x23E DUP2 PUSH2 0x224 JUMP JUMPDEST DUP2 EQ PUSH2 0x248 JUMPI PUSH0 PUSH0 REVERT JUMPDEST POP JUMP JUMPDEST PUSH0 DUP2 MLOAD SWAP1 POP PUSH2 0x259 DUP2 PUSH2 0x235 JUMP JUMPDEST SWAP3 SWAP2 POP POP JUMP JUMPDEST PUSH0 PUSH0 REVERT JUMPDEST PUSH0 PUSH0 REVERT JUMPDEST PUSH0 PUSH1 0x1F NOT PUSH1 0x1F DUP4 ADD AND SWAP1 POP SWAP2 SWAP1 POP JUMP JUMPDEST PUSH32 0x4E487B7100000000000000000000000000000000000000000000000000000000 PUSH0 MSTORE PUSH1 0x41 PUSH1 0x4 MSTORE PUSH1 0x24 PUSH0 REVERT JUMPDEST PUSH2 0x2AD DUP3 PUSH2 0x267 JUMP JUMPDEST DUP2 ADD DUP2 DUP2 LT PUSH8 0xFFFFFFFFFFFFFFFF DUP3 GT OR ISZERO PUSH2 0x2CC JUMPI PUSH2 0x2CB PUSH2 0x277 JUMP JUMPDEST JUMPDEST DUP1 PUSH1 0x40 MSTORE POP POP POP JUMP JUMPDEST PUSH0 PUSH2 0x2DE PUSH2 0x1F4 JUMP JUMPDEST SWAP1 POP PUSH2 0x2EA DUP3 DUP3 PUSH2 0x2A4 JUMP JUMPDEST SWAP2 SWAP1 POP JUMP JUMPDEST PUSH0 PUSH8 0xFFFFFFFFFFFFFFFF DUP3 GT ISZERO PUSH2 0x309 JUMPI PUSH2 0x308 PUSH2 0x277 JUMP JUMPDEST JUMPDEST PUSH2 0x312 DUP3 PUSH2 0x267 JUMP JUMPDEST SWAP1 POP PUSH1 0x20 DUP2 ADD SWAP1 POP SWAP2 SWAP1 POP JUMP JUMPDEST DUP3 DUP2 DUP4 MCOPY PUSH0 DUP4 DUP4 ADD MSTORE POP POP POP JUMP JUMPDEST PUSH0 PUSH2 0x33F PUSH2 0x33A DUP5 PUSH2 0x2EF JUMP JUMPDEST PUSH2 0x2D5 JUMP JUMPDEST SWAP1 POP DUP3 DUP2 MSTORE PUSH1 0x20 DUP2 ADD DUP5 DUP5 DUP5 ADD GT ISZERO PUSH2 0x35B JUMPI PUSH2 0x35A PUSH2 0x263 JUMP JUMPDEST JUMPDEST PUSH2 0x366 DUP5 DUP3 DUP6 PUSH2 0x31F JUMP JUMPDEST POP SWAP4 SWAP3 POP POP POP JUMP JUMPDEST PUSH0 DUP3 PUSH1 0x1F DUP4 ADD SLT PUSH2 0x382 JUMPI PUSH2 0x381 PUSH2 0x25F JUMP JUMPDEST JUMPDEST DUP2 MLOAD PUSH2 0x392 DUP5 DUP3 PUSH1 0x20 DUP7 ADD PUSH2 0x32D JUMP JUMPDEST SWAP2 POP POP SWAP3 SWAP2 POP POP JUMP JUMPDEST PUSH0 PUSH0 PUSH0 PUSH0 PUSH1 0x80 DUP6 DUP8 SUB SLT ISZERO PUSH2 0x3B3 JUMPI PUSH2 0x3B2 PUSH2 0x1FD JUMP JUMPDEST JUMPDEST PUSH0 PUSH2 0x3C0 DUP8 DUP3 DUP9 ADD PUSH2 0x24B JUMP JUMPDEST SWAP5 POP POP PUSH1 0x20 PUSH2 0x3D1 DUP8 DUP3 DUP9 ADD PUSH2 0x24B JUMP JUMPDEST SWAP4 POP POP PUSH1 0x40 PUSH2 0x3E2 DUP8 DUP3 DUP9 ADD PUSH2 0x24B JUMP JUMPDEST SWAP3 POP POP PUSH1 0x60 DUP6 ADD MLOAD PUSH8 0xFFFFFFFFFFFFFFFF DUP2 GT ISZERO PUSH2 0x403 JUMPI PUSH2 0x402 PUSH2 0x201 JUMP JUMPDEST JUMPDEST PUSH2 0x40F DUP8 DUP3 DUP9 ADD PUSH2 0x36E JUMP JUMPDEST SWAP2 POP POP SWAP3 SWAP6 SWAP2 SWAP5 POP SWAP3 POP JUMP JUMPDEST PUSH2 0x424 DUP2 PUSH2 0x224 JUMP JUMPDEST DUP3 MSTORE POP POP JUMP JUMPDEST PUSH0 PUSH1 0x20 DUP3 ADD SWAP1 POP PUSH2 0x43D PUSH0 DUP4 ADD DUP5 PUSH2 0x41B JUMP JUMPDEST SWAP3 SWAP2 POP POP JUMP JUMPDEST PUSH0 DUP2 MLOAD SWAP1 POP SWAP2 SWAP1 POP JUMP JUMPDEST PUSH32 0x4E487B7100000000000000000000000000000000000000000000000000000000 PUSH0 MSTORE PUSH1 0x22 PUSH1 0x4 MSTORE PUSH1 0x24 PUSH0 REVERT JUMPDEST PUSH0 PUSH1 0x2 DUP3 DIV SWAP1 POP PUSH1 0x1 DUP3 AND DUP1 PUSH2 0x491 JUMPI PUSH1 0x7F DUP3 AND SWAP2 POP JUMPDEST PUSH1 0x20 DUP3 LT DUP2 SUB PUSH2 0x4A4 JUMPI PUSH2 0x4A3 PUSH2 0x44D JUMP JUMPDEST JUMPDEST POP SWAP2 SWAP1 POP JUMP JUMPDEST PUSH0 DUP2 SWAP1 POP DUP2 PUSH0 MSTORE PUSH1 0x20 PUSH0 KECCAK256 SWAP1 POP SWAP2 SWAP1 POP JUMP JUMPDEST PUSH0 PUSH1 0x20 PUSH1 0x1F DUP4 ADD DIV SWAP1 POP SWAP2 SWAP1 POP JUMP JUMPDEST PUSH0 DUP3 DUP3 SHL SWAP1 POP SWAP3 SWAP2 POP POP JUMP JUMPDEST PUSH0 PUSH1 0x8 DUP4 MUL PUSH2 0x506 PUSH32 0xFFFFFFFFFFFFFFFFFFFFFFFFFFFFFFFFFFFFFFFFFFFFFFFFFFFFFFFFFFFFFFFF DUP3 PUSH2 0x4CB JUMP JUMPDEST PUSH2 0x510 DUP7 DUP4 PUSH2 0x4CB JUMP JUMPDEST SWAP6 POP DUP1 NOT DUP5 AND SWAP4 POP DUP1 DUP7 AND DUP5 OR SWAP3 POP POP POP SWAP4 SWAP3 POP POP POP JUMP JUMPDEST PUSH0 DUP2 SWAP1 POP SWAP2 SWAP1 POP JUMP JUMPDEST PUSH0 DUP2 SWAP1 POP SWAP2 SWAP1 POP JUMP JUMPDEST PUSH0 PUSH2 0x554 PUSH2 0x54F PUSH2 0x54A DUP5 PUSH2 0x528 JUMP JUMPDEST PUSH2 0x531 JUMP JUMPDEST PUSH2 0x528 JUMP JUMPDEST SWAP1 POP SWAP2 SWAP1 POP JUMP JUMPDEST PUSH0 DUP2 SWAP1 POP SWAP2 SWAP1 POP JUMP JUMPDEST PUSH2 0x56D DUP4 PUSH2 0x53A JUMP JUMPDEST PUSH2 0x581 PUSH2 0x579 DUP3 PUSH2 0x55B JUMP JUMPDEST DUP5 DUP5 SLOAD PUSH2 0x4D7 JUMP JUMPDEST DUP3 SSTORE POP POP POP POP JUMP JUMPDEST PUSH0 PUSH0 SWAP1 POP SWAP1 JUMP JUMPDEST PUSH2 0x598 PUSH2 0x589 JUMP JUMPDEST PUSH2 0x5A3 DUP2 DUP5 DUP5 PUSH2 0x564 JUMP JUMPDEST POP POP POP JUMP JUMPDEST JUMPDEST DUP2 DUP2 LT ISZERO PUSH2 0x5C6 JUMPI PUSH2 0x5BB PUSH0 DUP3 PUSH2 0x590 JUMP JUMPDEST PUSH1 0x1 DUP2 ADD SWAP1 POP PUSH2 0x5A9 JUMP JUMPDEST POP POP JUMP JUMPDEST PUSH1 0x1F DUP3 GT ISZERO PUSH2 0x60B JUMPI PUSH2 0x5DC DUP2 PUSH2 0x4AA JUMP JUMPDEST PUSH2 0x5E5 DUP5 PUSH2 0x4BC JUMP JUMPDEST DUP2 ADD PUSH1 0x20 DUP6 LT ISZERO PUSH2 0x5F4 JUMPI DUP2 SWAP1 POP JUMPDEST PUSH2 0x608 PUSH2 0x600 DUP6 PUSH2 0x4BC JUMP JUMPDEST DUP4 ADD DUP3 PUSH2 0x5A8 JUMP JUMPDEST POP POP JUMPDEST POP POP POP JUMP JUMPDEST PUSH0 DUP3 DUP3 SHR SWAP1 POP SWAP3 SWAP2 POP POP JUMP JUMPDEST PUSH0 PUSH2 0x62B PUSH0 NOT DUP5 PUSH1 0x8 MUL PUSH2 0x610 JUMP JUMPDEST NOT DUP1 DUP4 AND SWAP2 POP POP SWAP3 SWAP2 POP POP JUMP JUMPDEST PUSH0 PUSH2 0x643 DUP4 DUP4 PUSH2 0x61C JUMP JUMPDEST SWAP2 POP DUP3 PUSH1 0x2 MUL DUP3 OR SWAP1 POP SWAP3 SWAP2 POP POP JUMP JUMPDEST PUSH2 0x65C DUP3 PUSH2 0x443 JUMP JUMPDEST PUSH8 0xFFFFFFFFFFFFFFFF DUP2 GT ISZERO PUSH2 0x675 JUMPI PUSH2 0x674 PUSH2 0x277 JUMP JUMPDEST JUMPDEST PUSH2 0x67F DUP3 SLOAD PUSH2 0x47A JUMP JUMPDEST PUSH2 0x68A DUP3 DUP3 DUP6 PUSH2 0x5CA JUMP JUMPDEST PUSH0 PUSH1 0x20 SWAP1 POP PUSH1 0x1F DUP4 GT PUSH1 0x1 DUP2 EQ PUSH2 0x6BB JUMPI PUSH0 DUP5 ISZERO PUSH2 0x6A9 JUMPI DUP3 DUP8 ADD MLOAD SWAP1 POP JUMPDEST PUSH2 0x6B3 DUP6 DUP3 PUSH2 0x638 JUMP JUMPDEST DUP7 SSTORE POP PUSH2 0x71A JUMP JUMPDEST PUSH1 0x1F NOT DUP5 AND PUSH2 0x6C9 DUP7 PUSH2 0x4AA JUMP JUMPDEST PUSH0 JUMPDEST DUP3 DUP2 LT ISZERO PUSH2 0x6F0 JUMPI DUP5 DUP10 ADD MLOAD DUP3 SSTORE PUSH1 0x1 DUP3 ADD SWAP2 POP PUSH1 0x20 DUP6 ADD SWAP5 POP PUSH1 0x20 DUP2 ADD SWAP1 POP PUSH2 0x6CB JUMP JUMPDEST DUP7 DUP4 LT ISZERO PUSH2 0x70D JUMPI DUP5 DUP10 ADD MLOAD PUSH2 0x709 PUSH1 0x1F DUP10 AND DUP3 PUSH2 0x61C JUMP JUMPDEST DUP4 SSTORE POP JUMPDEST PUSH1 0x1 PUSH1 0x2 DUP9 MUL ADD DUP9 SSTORE POP POP POP JUMPDEST POP POP POP POP POP POP JUMP JUMPDEST PUSH1 0x80 MLOAD PUSH1 0xA0 MLOAD PUSH2 0x2EF2 PUSH2 0x75F PUSH0 CODECOPY PUSH0 DUP2 DUP2 PUSH2 0xB1B ADD MSTORE DUP2 DUP2 PUSH2 0x1252 ADD MSTORE DUP2 DUP2 PUSH2 0x1905 ADD MSTORE PUSH2 0x1992 ADD MSTORE PUSH0 DUP2 DUP2 PUSH2 0x374 ADD MSTORE PUSH2 0x19B6 ADD MSTORE PUSH2 0x2EF2 PUSH0 RETURN INVALID PUSH1 0x80 PUSH1 0x40 MSTORE CALLVALUE DUP1 ISZERO PUSH2 0xF JUMPI PUSH0 PUSH0 REVERT JUMPDEST POP PUSH1 0x4 CALLDATASIZE LT PUSH2 0xCC JUMPI PUSH0 CALLDATALOAD PUSH1 0xE0 SHR DUP1 PUSH4 0x7804E707 GT PUSH2 0x8A JUMPI DUP1 PUSH4 0xB5F8558C GT PUSH2 0x64 JUMPI DUP1 PUSH4 0xB5F8558C EQ PUSH2 0x1FA JUMPI DUP1 PUSH4 0xBF4D766E EQ PUSH2 0x218 JUMPI DUP1 PUSH4 0xF139721C EQ PUSH2 0x236 JUMPI DUP1 PUSH4 0xF2FDE38B EQ PUSH2 0x252 JUMPI PUSH2 0xCC JUMP JUMPDEST DUP1 PUSH4 0x7804E707 EQ PUSH2 0x1A4 JUMPI DUP1 PUSH4 0x8DA5CB5B EQ PUSH2 0x1C0 JUMPI DUP1 PUSH4 0x8E27D719 EQ PUSH2 0x1DE JUMPI PUSH2 0xCC JUMP JUMPDEST DUP1 PUSH3 0xDAD7D4 EQ PUSH2 0xD0 JUMPI DUP1 PUSH4 0x5D09FB1 EQ PUSH2 0xEE JUMPI DUP1 PUSH4 0x240028E8 EQ PUSH2 0x11E JUMPI DUP1 PUSH4 0x6AFBF5D6 EQ PUSH2 0x14E JUMPI DUP1 PUSH4 0x715018A6 EQ PUSH2 0x16A JUMPI DUP1 PUSH4 0x76C13CBD EQ PUSH2 0x174 JUMPI JUMPDEST PUSH0 PUSH0 REVERT JUMPDEST PUSH2 0xD8 PUSH2 0x26E JUMP JUMPDEST PUSH1 0x40 MLOAD PUSH2 0xE5 SWAP2 SWAP1 PUSH2 0x1EAF JUMP JUMPDEST PUSH1 0x40 MLOAD DUP1 SWAP2 SUB SWAP1 RETURN JUMPDEST PUSH2 0x108 PUSH1 0x4 DUP1 CALLDATASIZE SUB DUP2 ADD SWAP1 PUSH2 0x103 SWAP2 SWAP1 PUSH2 0x200C JUMP JUMPDEST PUSH2 0x2FA JUMP JUMPDEST PUSH1 0x40 MLOAD PUSH2 0x115 SWAP2 SWAP1 PUSH2 0x2092 JUMP JUMPDEST PUSH1 0x40 MLOAD DUP1 SWAP2 SUB SWAP1 RETURN JUMPDEST PUSH2 0x138 PUSH1 0x4 DUP1 CALLDATASIZE SUB DUP2 ADD SWAP1 PUSH2 0x133 SWAP2 SWAP1 PUSH2 0x20D5 JUMP JUMPDEST PUSH2 0x4AA JUMP JUMPDEST PUSH1 0x40 MLOAD PUSH2 0x145 SWAP2 SWAP1 PUSH2 0x211A JUMP JUMPDEST PUSH1 0x40 MLOAD DUP1 SWAP2 SUB SWAP1 RETURN JUMPDEST PUSH2 0x168 PUSH1 0x4 DUP1 CALLDATASIZE SUB DUP2 ADD SWAP1 PUSH2 0x163 SWAP2 SWAP1 PUSH2 0x21C3 JUMP JUMPDEST PUSH2 0x4C7 JUMP JUMPDEST STOP JUMPDEST PUSH2 0x172 PUSH2 0xBA8 JUMP JUMPDEST STOP JUMPDEST PUSH2 0x18E PUSH1 0x4 DUP1 CALLDATASIZE SUB DUP2 ADD SWAP1 PUSH2 0x189 SWAP2 SWAP1 PUSH2 0x2247 JUMP JUMPDEST PUSH2 0xBBB JUMP JUMPDEST PUSH1 0x40 MLOAD PUSH2 0x19B SWAP2 SWAP1 PUSH2 0x2294 JUMP JUMPDEST PUSH1 0x40 MLOAD DUP1 SWAP2 SUB SWAP1 RETURN JUMPDEST PUSH2 0x1BE PUSH1 0x4 DUP1 CALLDATASIZE SUB DUP2 ADD SWAP1 PUSH2 0x1B9 SWAP2 SWAP1 PUSH2 0x22AD JUMP JUMPDEST PUSH2 0xBDB JUMP JUMPDEST STOP JUMPDEST PUSH2 0x1C8 PUSH2 0x12DE JUMP JUMPDEST PUSH1 0x40 MLOAD PUSH2 0x1D5 SWAP2 SWAP1 PUSH2 0x2092 JUMP JUMPDEST PUSH1 0x40 MLOAD DUP1 SWAP2 SUB SWAP1 RETURN JUMPDEST PUSH2 0x1F8 PUSH1 0x4 DUP1 CALLDATASIZE SUB DUP2 ADD SWAP1 PUSH2 0x1F3 SWAP2 SWAP1 PUSH2 0x231E JUMP JUMPDEST PUSH2 0x1305 JUMP JUMPDEST STOP JUMPDEST PUSH2 0x202 PUSH2 0x1990 JUMP JUMPDEST PUSH1 0x40 MLOAD PUSH2 0x20F SWAP2 SWAP1 PUSH2 0x23D6 JUMP JUMPDEST PUSH1 0x40 MLOAD DUP1 SWAP2 SUB SWAP1 RETURN JUMPDEST PUSH2 0x220 PUSH2 0x19B4 JUMP JUMPDEST PUSH1 0x40 MLOAD PUSH2 0x22D SWAP2 SWAP1 PUSH2 0x240F JUMP JUMPDEST PUSH1 0x40 MLOAD DUP1 SWAP2 SUB SWAP1 RETURN JUMPDEST PUSH2 0x250 PUSH1 0x4 DUP1 CALLDATASIZE SUB DUP2 ADD SWAP1 PUSH2 0x24B SWAP2 SWAP1 PUSH2 0x2428 JUMP JUMPDEST PUSH2 0x19D8 JUMP JUMPDEST STOP JUMPDEST PUSH2 0x26C PUSH1 0x4 DUP1 CALLDATASIZE SUB DUP2 ADD SWAP1 PUSH2 0x267 SWAP2 SWAP1 PUSH2 0x20D5 JUMP JUMPDEST PUSH2 0x1AD0 JUMP JUMPDEST STOP JUMPDEST PUSH1 0x1 DUP1 SLOAD PUSH2 0x27B SWAP1 PUSH2 0x24A0 JUMP JUMPDEST DUP1 PUSH1 0x1F ADD PUSH1 0x20 DUP1 SWAP2 DIV MUL PUSH1 0x20 ADD PUSH1 0x40 MLOAD SWAP1 DUP2 ADD PUSH1 0x40 MSTORE DUP1 SWAP3 SWAP2 SWAP1 DUP2 DUP2 MSTORE PUSH1 0x20 ADD DUP3 DUP1 SLOAD PUSH2 0x2A7 SWAP1 PUSH2 0x24A0 JUMP JUMPDEST DUP1 ISZERO PUSH2 0x2F2 JUMPI DUP1 PUSH1 0x1F LT PUSH2 0x2C9 JUMPI PUSH2 0x100 DUP1 DUP4 SLOAD DIV MUL DUP4 MSTORE SWAP2 PUSH1 0x20 ADD SWAP2 PUSH2 0x2F2 JUMP JUMPDEST DUP3 ADD SWAP2 SWAP1 PUSH0 MSTORE PUSH1 0x20 PUSH0 KECCAK256 SWAP1 JUMPDEST DUP2 SLOAD DUP2 MSTORE SWAP1 PUSH1 0x1 ADD SWAP1 PUSH1 0x20 ADD DUP1 DUP4 GT PUSH2 0x2D5 JUMPI DUP3 SWAP1 SUB PUSH1 0x1F AND DUP3 ADD SWAP2 JUMPDEST POP POP POP POP POP DUP2 JUMP JUMPDEST PUSH0 PUSH0 DUP3 PUSH1 0x1 PUSH1 0x40 MLOAD PUSH1 0x20 ADD PUSH2 0x310 SWAP3 SWAP2 SWAP1 PUSH2 0x25E6 JUMP JUMPDEST PUSH1 0x40 MLOAD PUSH1 0x20 DUP2 DUP4 SUB SUB DUP2 MSTORE SWAP1 PUSH1 0x40 MSTORE SWAP1 POP PUSH0 PUSH1 0x1 DUP1 SLOAD PUSH2 0x32F SWAP1 PUSH2 0x24A0 JUMP JUMPDEST SWAP1 POP GT PUSH2 0x371 JUMPI PUSH1 0x40 MLOAD PUSH32 0x8C379A000000000000000000000000000000000000000000000000000000000 DUP2 MSTORE PUSH1 0x4 ADD PUSH2 0x368 SWAP1 PUSH2 0x265E JUMP JUMPDEST PUSH1 0x40 MLOAD DUP1 SWAP2 SUB SWAP1 REVERT JUMPDEST PUSH0 PUSH32 0x0 PUSH20 0xFFFFFFFFFFFFFFFFFFFFFFFFFFFFFFFFFFFFFFFF AND PUSH4 0x16F1ADC1 DUP4 PUSH1 0x40 MLOAD DUP3 PUSH4 0xFFFFFFFF AND PUSH1 0xE0 SHL DUP2 MSTORE PUSH1 0x4 ADD PUSH2 0x3CB SWAP2 SWAP1 PUSH2 0x26C6 JUMP JUMPDEST PUSH0 PUSH1 0x40 MLOAD DUP1 DUP4 SUB DUP2 DUP7 GAS STATICCALL ISZERO DUP1 ISZERO PUSH2 0x3E5 JUMPI RETURNDATASIZE PUSH0 PUSH0 RETURNDATACOPY RETURNDATASIZE PUSH0 REVERT JUMPDEST POP POP POP POP PUSH1 0x40 MLOAD RETURNDATASIZE PUSH0 DUP3 RETURNDATACOPY RETURNDATASIZE PUSH1 0x1F NOT PUSH1 0x1F DUP3 ADD AND DUP3 ADD DUP1 PUSH1 0x40 MSTORE POP DUP2 ADD SWAP1 PUSH2 0x40D SWAP2 SWAP1 PUSH2 0x2797 JUMP JUMPDEST SWAP1 POP PUSH0 DUP2 MLOAD GT PUSH2 0x452 JUMPI PUSH1 0x40 MLOAD PUSH32 0x8C379A000000000000000000000000000000000000000000000000000000000 DUP2 MSTORE PUSH1 0x4 ADD PUSH2 0x449 SWAP1 PUSH2 0x2828 JUMP JUMPDEST PUSH1 0x40 MLOAD DUP1 SWAP2 SUB SWAP1 REVERT JUMPDEST PUSH1 0x14 DUP2 MLOAD LT ISZERO PUSH2 0x497 JUMPI PUSH1 0x40 MLOAD PUSH32 0x8C379A000000000000000000000000000000000000000000000000000000000 DUP2 MSTORE PUSH1 0x4 ADD PUSH2 0x48E SWAP1 PUSH2 0x2890 JUMP JUMPDEST PUSH1 0x40 MLOAD DUP1 SWAP2 SUB SWAP1 REVERT JUMPDEST PUSH0 PUSH1 0x14 DUP3 ADD MLOAD SWAP1 POP DUP1 SWAP4 POP POP POP POP SWAP2 SWAP1 POP JUMP JUMPDEST PUSH1 0x2 PUSH1 0x20 MSTORE DUP1 PUSH0 MSTORE PUSH1 0x40 PUSH0 KECCAK256 PUSH0 SWAP2 POP SLOAD SWAP1 PUSH2 0x100 EXP SWAP1 DIV PUSH1 0xFF AND DUP2 JUMP JUMPDEST PUSH0 PUSH2 0x514 DUP6 DUP6 DUP1 DUP1 PUSH1 0x1F ADD PUSH1 0x20 DUP1 SWAP2 DIV MUL PUSH1 0x20 ADD PUSH1 0x40 MLOAD SWAP1 DUP2 ADD PUSH1 0x40 MSTORE DUP1 SWAP4 SWAP3 SWAP2 SWAP1 DUP2 DUP2 MSTORE PUSH1 0x20 ADD DUP4 DUP4 DUP1 DUP3 DUP5 CALLDATACOPY PUSH0 DUP2 DUP5 ADD MSTORE PUSH1 0x1F NOT PUSH1 0x1F DUP3 ADD AND SWAP1 POP DUP1 DUP4 ADD SWAP3 POP POP POP POP POP POP POP PUSH2 0x2FA JUMP JUMPDEST SWAP1 POP PUSH1 0x2 PUSH0 DUP3 PUSH20 0xFFFFFFFFFFFFFFFFFFFFFFFFFFFFFFFFFFFFFFFF AND PUSH20 0xFFFFFFFFFFFFFFFFFFFFFFFFFFFFFFFFFFFFFFFF AND DUP2 MSTORE PUSH1 0x20 ADD SWAP1 DUP2 MSTORE PUSH1 0x20 ADD PUSH0 KECCAK256 PUSH0 SWAP1 SLOAD SWAP1 PUSH2 0x100 EXP SWAP1 DIV PUSH1 0xFF AND PUSH2 0x59F JUMPI PUSH1 0x40 MLOAD PUSH32 0x8C379A000000000000000000000000000000000000000000000000000000000 DUP2 MSTORE PUSH1 0x4 ADD PUSH2 0x596 SWAP1 PUSH2 0x28F8 JUMP JUMPDEST PUSH1 0x40 MLOAD DUP1 SWAP2 SUB SWAP1 REVERT JUMPDEST DUP3 PUSH1 0x3 PUSH0 DUP9 PUSH20 0xFFFFFFFFFFFFFFFFFFFFFFFFFFFFFFFFFFFFFFFF AND PUSH20 0xFFFFFFFFFFFFFFFFFFFFFFFFFFFFFFFFFFFFFFFF AND DUP2 MSTORE PUSH1 0x20 ADD SWAP1 DUP2 MSTORE PUSH1 0x20 ADD PUSH0 KECCAK256 PUSH0 DUP4 PUSH20 0xFFFFFFFFFFFFFFFFFFFFFFFFFFFFFFFFFFFFFFFF AND PUSH20 0xFFFFFFFFFFFFFFFFFFFFFFFFFFFFFFFFFFFFFFFF AND DUP2 MSTORE PUSH1 0x20 ADD SWAP1 DUP2 MSTORE PUSH1 0x20 ADD PUSH0 KECCAK256 PUSH0 DUP3 DUP3 SLOAD PUSH2 0x626 SWAP2 SWAP1 PUSH2 0x2943 JUMP JUMPDEST SWAP3 POP POP DUP2 SWAP1 SSTORE POP PUSH0 PUSH1 0x6 PUSH8 0xFFFFFFFFFFFFFFFF DUP2 GT ISZERO PUSH2 0x649 JUMPI PUSH2 0x648 PUSH2 0x1EE8 JUMP JUMPDEST JUMPDEST PUSH1 0x40 MLOAD SWAP1 DUP1 DUP3 MSTORE DUP1 PUSH1 0x20 MUL PUSH1 0x20 ADD DUP3 ADD PUSH1 0x40 MSTORE DUP1 ISZERO PUSH2 0x682 JUMPI DUP2 PUSH1 0x20 ADD JUMPDEST PUSH2 0x66F PUSH2 0x1E1E JUMP JUMPDEST DUP2 MSTORE PUSH1 0x20 ADD SWAP1 PUSH1 0x1 SWAP1 SUB SWAP1 DUP2 PUSH2 0x667 JUMPI SWAP1 POP JUMPDEST POP SWAP1 POP PUSH1 0x40 MLOAD DUP1 PUSH1 0x60 ADD PUSH1 0x40 MSTORE DUP1 PUSH1 0x40 MLOAD DUP1 PUSH1 0x40 ADD PUSH1 0x40 MSTORE DUP1 PUSH1 0x4 DUP2 MSTORE PUSH1 0x20 ADD PUSH32 0x7573657200000000000000000000000000000000000000000000000000000000 DUP2 MSTORE POP DUP2 MSTORE PUSH1 0x20 ADD PUSH1 0x40 MLOAD DUP1 PUSH1 0x40 ADD PUSH1 0x40 MSTORE DUP1 PUSH1 0x7 DUP2 MSTORE PUSH1 0x20 ADD PUSH32 0x6164647265737300000000000000000000000000000000000000000000000000 DUP2 MSTORE POP DUP2 MSTORE PUSH1 0x20 ADD CALLER PUSH1 0x40 MLOAD PUSH1 0x20 ADD PUSH2 0x717 SWAP2 SWAP1 PUSH2 0x2092 JUMP JUMPDEST PUSH1 0x40 MLOAD PUSH1 0x20 DUP2 DUP4 SUB SUB DUP2 MSTORE SWAP1 PUSH1 0x40 MSTORE DUP2 MSTORE POP DUP2 PUSH0 DUP2 MLOAD DUP2 LT PUSH2 0x73C JUMPI PUSH2 0x73B PUSH2 0x2976 JUMP JUMPDEST JUMPDEST PUSH1 0x20 MUL PUSH1 0x20 ADD ADD DUP2 SWAP1 MSTORE POP PUSH1 0x40 MLOAD DUP1 PUSH1 0x60 ADD PUSH1 0x40 MSTORE DUP1 PUSH1 0x40 MLOAD DUP1 PUSH1 0x40 ADD PUSH1 0x40 MSTORE DUP1 PUSH1 0x6 DUP2 MSTORE PUSH1 0x20 ADD PUSH32 0x616D6F756E740000000000000000000000000000000000000000000000000000 DUP2 MSTORE POP DUP2 MSTORE PUSH1 0x20 ADD PUSH1 0x40 MLOAD DUP1 PUSH1 0x40 ADD PUSH1 0x40 MSTORE DUP1 PUSH1 0x7 DUP2 MSTORE PUSH1 0x20 ADD PUSH32 0x75696E7432353600000000000000000000000000000000000000000000000000 DUP2 MSTORE POP DUP2 MSTORE PUSH1 0x20 ADD DUP6 PUSH1 0x40 MLOAD PUSH1 0x20 ADD PUSH2 0x7D9 SWAP2 SWAP1 PUSH2 0x2294 JUMP JUMPDEST PUSH1 0x40 MLOAD PUSH1 0x20 DUP2 DUP4 SUB SUB DUP2 MSTORE SWAP1 PUSH1 0x40 MSTORE DUP2 MSTORE POP DUP2 PUSH1 0x1 DUP2 MLOAD DUP2 LT PUSH2 0x7FF JUMPI PUSH2 0x7FE PUSH2 0x2976 JUMP JUMPDEST JUMPDEST PUSH1 0x20 MUL PUSH1 0x20 ADD ADD DUP2 SWAP1 MSTORE POP PUSH1 0x40 MLOAD DUP1 PUSH1 0x60 ADD PUSH1 0x40 MSTORE DUP1 PUSH1 0x40 MLOAD DUP1 PUSH1 0x40 ADD PUSH1 0x40 MSTORE DUP1 PUSH1 0x5 DUP2 MSTORE PUSH1 0x20 ADD PUSH32 0x746F6B656E000000000000000000000000000000000000000000000000000000 DUP2 MSTORE POP DUP2 MSTORE PUSH1 0x20 ADD PUSH1 0x40 MLOAD DUP1 PUSH1 0x40 ADD PUSH1 0x40 MSTORE DUP1 PUSH1 0x6 DUP2 MSTORE PUSH1 0x20 ADD PUSH32 0x737472696E670000000000000000000000000000000000000000000000000000 DUP2 MSTORE POP DUP2 MSTORE PUSH1 0x20 ADD DUP8 DUP8 PUSH1 0x40 MLOAD PUSH1 0x20 ADD PUSH2 0x89E SWAP3 SWAP2 SWAP1 PUSH2 0x29CF JUMP JUMPDEST PUSH1 0x40 MLOAD PUSH1 0x20 DUP2 DUP4 SUB SUB DUP2 MSTORE SWAP1 PUSH1 0x40 MSTORE DUP2 MSTORE POP DUP2 PUSH1 0x2 DUP2 MLOAD DUP2 LT PUSH2 0x8C4 JUMPI PUSH2 0x8C3 PUSH2 0x2976 JUMP JUMPDEST JUMPDEST PUSH1 0x20 MUL PUSH1 0x20 ADD ADD DUP2 SWAP1 MSTORE POP PUSH1 0x40 MLOAD DUP1 PUSH1 0x60 ADD PUSH1 0x40 MSTORE DUP1 PUSH1 0x40 MLOAD DUP1 PUSH1 0x40 ADD PUSH1 0x40 MSTORE DUP1 PUSH1 0x8 DUP2 MSTORE PUSH1 0x20 ADD PUSH32 0x70726F7669646572000000000000000000000000000000000000000000000000 DUP2 MSTORE POP DUP2 MSTORE PUSH1 0x20 ADD PUSH1 0x40 MLOAD DUP1 PUSH1 0x40 ADD PUSH1 0x40 MSTORE DUP1 PUSH1 0x6 DUP2 MSTORE PUSH1 0x20 ADD PUSH32 0x737472696E670000000000000000000000000000000000000000000000000000 DUP2 MSTORE POP DUP2 MSTORE PUSH1 0x20 ADD PUSH1 0x1 PUSH1 0x40 MLOAD PUSH1 0x20 ADD PUSH2 0x962 SWAP2 SWAP1 PUSH2 0x2A72 JUMP JUMPDEST PUSH1 0x40 MLOAD PUSH1 0x20 DUP2 DUP4 SUB SUB DUP2 MSTORE SWAP1 PUSH1 0x40 MSTORE DUP2 MSTORE POP DUP2 PUSH1 0x3 DUP2 MLOAD DUP2 LT PUSH2 0x988 JUMPI PUSH2 0x987 PUSH2 0x2976 JUMP JUMPDEST JUMPDEST PUSH1 0x20 MUL PUSH1 0x20 ADD ADD DUP2 SWAP1 MSTORE POP PUSH1 0x40 MLOAD DUP1 PUSH1 0x60 ADD PUSH1 0x40 MSTORE DUP1 PUSH1 0x40 MLOAD DUP1 PUSH1 0x40 ADD PUSH1 0x40 MSTORE DUP1 PUSH1 0x9 DUP2 MSTORE PUSH1 0x20 ADD PUSH32 0x6E756C6C69666965720000000000000000000000000000000000000000000000 DUP2 MSTORE POP DUP2 MSTORE PUSH1 0x20 ADD PUSH1 0x40 MLOAD DUP1 PUSH1 0x40 ADD PUSH1 0x40 MSTORE DUP1 PUSH1 0x7 DUP2 MSTORE PUSH1 0x20 ADD PUSH32 0x75696E7432353600000000000000000000000000000000000000000000000000 DUP2 MSTORE POP DUP2 MSTORE PUSH1 0x20 ADD DUP5 PUSH1 0x40 MLOAD PUSH1 0x20 ADD PUSH2 0xA25 SWAP2 SWAP1 PUSH2 0x2294 JUMP JUMPDEST PUSH1 0x40 MLOAD PUSH1 0x20 DUP2 DUP4 SUB SUB DUP2 MSTORE SWAP1 PUSH1 0x40 MSTORE DUP2 MSTORE POP DUP2 PUSH1 0x4 DUP2 MLOAD DUP2 LT PUSH2 0xA4B JUMPI PUSH2 0xA4A PUSH2 0x2976 JUMP JUMPDEST JUMPDEST PUSH1 0x20 MUL PUSH1 0x20 ADD ADD DUP2 SWAP1 MSTORE POP PUSH1 0x40 MLOAD DUP1 PUSH1 0x60 ADD PUSH1 0x40 MSTORE DUP1 PUSH1 0x40 MLOAD DUP1 PUSH1 0x40 ADD PUSH1 0x40 MSTORE DUP1 PUSH1 0x9 DUP2 MSTORE PUSH1 0x20 ADD PUSH32 0x74696D657374616D700000000000000000000000000000000000000000000000 DUP2 MSTORE POP DUP2 MSTORE PUSH1 0x20 ADD PUSH1 0x40 MLOAD DUP1 PUSH1 0x40 ADD PUSH1 0x40 MSTORE DUP1 PUSH1 0x4 DUP2 MSTORE PUSH1 0x20 ADD PUSH32 0x7532353600000000000000000000000000000000000000000000000000000000 DUP2 MSTORE POP DUP2 MSTORE PUSH1 0x20 ADD TIMESTAMP PUSH1 0x40 MLOAD PUSH1 0x20 ADD PUSH2 0xAE8 SWAP2 SWAP1 PUSH2 0x2294 JUMP JUMPDEST PUSH1 0x40 MLOAD PUSH1 0x20 DUP2 DUP4 SUB SUB DUP2 MSTORE SWAP1 PUSH1 0x40 MSTORE DUP2 MSTORE POP DUP2 PUSH1 0x5 DUP2 MLOAD DUP2 LT PUSH2 0xB0E JUMPI PUSH2 0xB0D PUSH2 0x2976 JUMP JUMPDEST JUMPDEST PUSH1 0x20 MUL PUSH1 0x20 ADD ADD DUP2 SWAP1 MSTORE POP PUSH32 0x0 PUSH20 0xFFFFFFFFFFFFFFFFFFFFFFFFFFFFFFFFFFFFFFFF AND PUSH4 0x7D64FA9B DUP3 PUSH1 0x40 MLOAD DUP3 PUSH4 0xFFFFFFFF AND PUSH1 0xE0 SHL DUP2 MSTORE PUSH1 0x4 ADD PUSH2 0xB72 SWAP2 SWAP1 PUSH2 0x2C8C JUMP JUMPDEST PUSH0 PUSH1 0x40 MLOAD DUP1 DUP4 SUB DUP2 PUSH0 DUP8 DUP1 EXTCODESIZE ISZERO DUP1 ISZERO PUSH2 0xB89 JUMPI PUSH0 PUSH0 REVERT JUMPDEST POP GAS CALL ISZERO DUP1 ISZERO PUSH2 0xB9B JUMPI RETURNDATASIZE PUSH0 PUSH0 RETURNDATACOPY RETURNDATASIZE PUSH0 REVERT JUMPDEST POP POP POP POP POP POP POP POP POP POP POP JUMP JUMPDEST PUSH2 0xBB0 PUSH2 0x1B54 JUMP JUMPDEST PUSH2 0xBB9 PUSH0 PUSH2 0x1BDB JUMP JUMPDEST JUMP JUMPDEST PUSH1 0x3 PUSH1 0x20 MSTORE DUP2 PUSH0 MSTORE PUSH1 0x40 PUSH0 KECCAK256 PUSH1 0x20 MSTORE DUP1 PUSH0 MSTORE PUSH1 0x40 PUSH0 KECCAK256 PUSH0 SWAP2 POP SWAP2 POP POP SLOAD DUP2 JUMP JUMPDEST PUSH0 PUSH2 0xC28 DUP6 DUP6 DUP1 DUP1 PUSH1 0x1F ADD PUSH1 0x20 DUP1 SWAP2 DIV MUL PUSH1 0x20 ADD PUSH1 0x40 MLOAD SWAP1 DUP2 ADD PUSH1 0x40 MSTORE DUP1 SWAP4 SWAP3 SWAP2 SWAP1 DUP2 DUP2 MSTORE PUSH1 0x20 ADD DUP4 DUP4 DUP1 DUP3 DUP5 CALLDATACOPY PUSH0 DUP2 DUP5 ADD MSTORE PUSH1 0x1F NOT PUSH1 0x1F DUP3 ADD AND SWAP1 POP DUP1 DUP4 ADD SWAP3 POP POP POP POP POP POP POP PUSH2 0x2FA JUMP JUMPDEST SWAP1 POP PUSH1 0x2 PUSH0 DUP3 PUSH20 0xFFFFFFFFFFFFFFFFFFFFFFFFFFFFFFFFFFFFFFFF AND PUSH20 0xFFFFFFFFFFFFFFFFFFFFFFFFFFFFFFFFFFFFFFFF AND DUP2 MSTORE PUSH1 0x20 ADD SWAP1 DUP2 MSTORE PUSH1 0x20 ADD PUSH0 KECCAK256 PUSH0 SWAP1 SLOAD SWAP1 PUSH2 0x100 EXP SWAP1 DIV PUSH1 0xFF AND PUSH2 0xCB3 JUMPI PUSH1 0x40 MLOAD PUSH32 0x8C379A000000000000000000000000000000000000000000000000000000000 DUP2 MSTORE PUSH1 0x4 ADD PUSH2 0xCAA SWAP1 PUSH2 0x28F8 JUMP JUMPDEST PUSH1 0x40 MLOAD DUP1 SWAP2 SUB SWAP1 REVERT JUMPDEST PUSH1 0x3 PUSH0 CALLER PUSH20 0xFFFFFFFFFFFFFFFFFFFFFFFFFFFFFFFFFFFFFFFF AND PUSH20 0xFFFFFFFFFFFFFFFFFFFFFFFFFFFFFFFFFFFFFFFF AND DUP2 MSTORE PUSH1 0x20 ADD SWAP1 DUP2 MSTORE PUSH1 0x20 ADD PUSH0 KECCAK256 PUSH0 DUP3 PUSH20 0xFFFFFFFFFFFFFFFFFFFFFFFFFFFFFFFFFFFFFFFF AND PUSH20 0xFFFFFFFFFFFFFFFFFFFFFFFFFFFFFFFFFFFFFFFF AND DUP2 MSTORE PUSH1 0x20 ADD SWAP1 DUP2 MSTORE PUSH1 0x20 ADD PUSH0 KECCAK256 SLOAD DUP4 GT ISZERO PUSH2 0xD6E JUMPI PUSH1 0x40 MLOAD PUSH32 0x8C379A000000000000000000000000000000000000000000000000000000000 DUP2 MSTORE PUSH1 0x4 ADD PUSH2 0xD65 SWAP1 PUSH2 0x2D09 JUMP JUMPDEST PUSH1 0x40 MLOAD DUP1 SWAP2 SUB SWAP1 REVERT JUMPDEST DUP3 PUSH1 0x3 PUSH0 CALLER PUSH20 0xFFFFFFFFFFFFFFFFFFFFFFFFFFFFFFFFFFFFFFFF AND PUSH20 0xFFFFFFFFFFFFFFFFFFFFFFFFFFFFFFFFFFFFFFFF AND DUP2 MSTORE PUSH1 0x20 ADD SWAP1 DUP2 MSTORE PUSH1 0x20 ADD PUSH0 KECCAK256 PUSH0 DUP4 PUSH20 0xFFFFFFFFFFFFFFFFFFFFFFFFFFFFFFFFFFFFFFFF AND PUSH20 0xFFFFFFFFFFFFFFFFFFFFFFFFFFFFFFFFFFFFFFFF AND DUP2 MSTORE PUSH1 0x20 ADD SWAP1 DUP2 MSTORE PUSH1 0x20 ADD PUSH0 KECCAK256 PUSH0 DUP3 DUP3 SLOAD PUSH2 0xDF5 SWAP2 SWAP1 PUSH2 0x2D27 JUMP JUMPDEST SWAP3 POP POP DUP2 SWAP1 SSTORE POP PUSH2 0xE27 DUP3 DUP5 DUP4 PUSH20 0xFFFFFFFFFFFFFFFFFFFFFFFFFFFFFFFFFFFFFFFF AND PUSH2 0x1C9C SWAP1 SWAP3 SWAP2 SWAP1 PUSH4 0xFFFFFFFF AND JUMP JUMPDEST PUSH0 PUSH1 0x5 PUSH8 0xFFFFFFFFFFFFFFFF DUP2 GT ISZERO PUSH2 0xE43 JUMPI PUSH2 0xE42 PUSH2 0x1EE8 JUMP JUMPDEST JUMPDEST PUSH1 0x40 MLOAD SWAP1 DUP1 DUP3 MSTORE DUP1 PUSH1 0x20 MUL PUSH1 0x20 ADD DUP3 ADD PUSH1 0x40 MSTORE DUP1 ISZERO PUSH2 0xE7C JUMPI DUP2 PUSH1 0x20 ADD JUMPDEST PUSH2 0xE69 PUSH2 0x1E1E JUMP JUMPDEST DUP2 MSTORE PUSH1 0x20 ADD SWAP1 PUSH1 0x1 SWAP1 SUB SWAP1 DUP2 PUSH2 0xE61 JUMPI SWAP1 POP JUMPDEST POP SWAP1 POP PUSH1 0x40 MLOAD DUP1 PUSH1 0x60 ADD PUSH1 0x40 MSTORE DUP1 PUSH1 0x40 MLOAD DUP1 PUSH1 0x40 ADD PUSH1 0x40 MSTORE DUP1 PUSH1 0x4 DUP2 MSTORE PUSH1 0x20 ADD PUSH32 0x7573657200000000000000000000000000000000000000000000000000000000 DUP2 MSTORE POP DUP2 MSTORE PUSH1 0x20 ADD PUSH1 0x40 MLOAD DUP1 PUSH1 0x40 ADD PUSH1 0x40 MSTORE DUP1 PUSH1 0x7 DUP2 MSTORE PUSH1 0x20 ADD PUSH32 0x6164647265737300000000000000000000000000000000000000000000000000 DUP2 MSTORE POP DUP2 MSTORE PUSH1 0x20 ADD CALLER PUSH1 0x40 MLOAD PUSH1 0x20 ADD PUSH2 0xF11 SWAP2 SWAP1 PUSH2 0x2092 JUMP JUMPDEST PUSH1 0x40 MLOAD PUSH1 0x20 DUP2 DUP4 SUB SUB DUP2 MSTORE SWAP1 PUSH1 0x40 MSTORE DUP2 MSTORE POP DUP2 PUSH0 DUP2 MLOAD DUP2 LT PUSH2 0xF36 JUMPI PUSH2 0xF35 PUSH2 0x2976 JUMP JUMPDEST JUMPDEST PUSH1 0x20 MUL PUSH1 0x20 ADD ADD DUP2 SWAP1 MSTORE POP PUSH1 0x40 MLOAD DUP1 PUSH1 0x60 ADD PUSH1 0x40 MSTORE DUP1 PUSH1 0x40 MLOAD DUP1 PUSH1 0x40 ADD PUSH1 0x40 MSTORE DUP1 PUSH1 0x6 DUP2 MSTORE PUSH1 0x20 ADD PUSH32 0x616D6F756E740000000000000000000000000000000000000000000000000000 DUP2 MSTORE POP DUP2 MSTORE PUSH1 0x20 ADD PUSH1 0x40 MLOAD DUP1 PUSH1 0x40 ADD PUSH1 0x40 MSTORE DUP1 PUSH1 0x7 DUP2 MSTORE PUSH1 0x20 ADD PUSH32 0x75696E7432353600000000000000000000000000000000000000000000000000 DUP2 MSTORE POP DUP2 MSTORE PUSH1 0x20 ADD DUP6 PUSH1 0x40 MLOAD PUSH1 0x20 ADD PUSH2 0xFD3 SWAP2 SWAP1 PUSH2 0x2294 JUMP JUMPDEST PUSH1 0x40 MLOAD PUSH1 0x20 DUP2 DUP4 SUB SUB DUP2 MSTORE SWAP1 PUSH1 0x40 MSTORE DUP2 MSTORE POP DUP2 PUSH1 0x1 DUP2 MLOAD DUP2 LT PUSH2 0xFF9 JUMPI PUSH2 0xFF8 PUSH2 0x2976 JUMP JUMPDEST JUMPDEST PUSH1 0x20 MUL PUSH1 0x20 ADD ADD DUP2 SWAP1 MSTORE POP PUSH1 0x40 MLOAD DUP1 PUSH1 0x60 ADD PUSH1 0x40 MSTORE DUP1 PUSH1 0x40 MLOAD DUP1 PUSH1 0x40 ADD PUSH1 0x40 MSTORE DUP1 PUSH1 0x5 DUP2 MSTORE PUSH1 0x20 ADD PUSH32 0x746F6B656E000000000000000000000000000000000000000000000000000000 DUP2 MSTORE POP DUP2 MSTORE PUSH1 0x20 ADD PUSH1 0x40 MLOAD DUP1 PUSH1 0x40 ADD PUSH1 0x40 MSTORE DUP1 PUSH1 0x6 DUP2 MSTORE PUSH1 0x20 ADD PUSH32 0x737472696E670000000000000000000000000000000000000000000000000000 DUP2 MSTORE POP DUP2 MSTORE PUSH1 0x20 ADD DUP8 DUP8 PUSH1 0x40 MLOAD PUSH1 0x20 ADD PUSH2 0x1098 SWAP3 SWAP2 SWAP1 PUSH2 0x29CF JUMP JUMPDEST PUSH1 0x40 MLOAD PUSH1 0x20 DUP2 DUP4 SUB SUB DUP2 MSTORE SWAP1 PUSH1 0x40 MSTORE DUP2 MSTORE POP DUP2 PUSH1 0x2 DUP2 MLOAD DUP2 LT PUSH2 0x10BE JUMPI PUSH2 0x10BD PUSH2 0x2976 JUMP JUMPDEST JUMPDEST PUSH1 0x20 MUL PUSH1 0x20 ADD ADD DUP2 SWAP1 MSTORE POP PUSH1 0x40 MLOAD DUP1 PUSH1 0x60 ADD PUSH1 0x40 MSTORE DUP1 PUSH1 0x40 MLOAD DUP1 PUSH1 0x40 ADD PUSH1 0x40 MSTORE DUP1 PUSH1 0x8 DUP2 MSTORE PUSH1 0x20 ADD PUSH32 0x70726F7669646572000000000000000000000000000000000000000000000000 DUP2 MSTORE POP DUP2 MSTORE PUSH1 0x20 ADD PUSH1 0x40 MLOAD DUP1 PUSH1 0x40 ADD PUSH1 0x40 MSTORE DUP1 PUSH1 0x6 DUP2 MSTORE PUSH1 0x20 ADD PUSH32 0x737472696E670000000000000000000000000000000000000000000000000000 DUP2 MSTORE POP DUP2 MSTORE PUSH1 0x20 ADD PUSH1 0x1 PUSH1 0x40 MLOAD PUSH1 0x20 ADD PUSH2 0x115C SWAP2 SWAP1 PUSH2 0x2A72 JUMP JUMPDEST PUSH1 0x40 MLOAD PUSH1 0x20 DUP2 DUP4 SUB SUB DUP2 MSTORE SWAP1 PUSH1 0x40 MSTORE DUP2 MSTORE POP DUP2 PUSH1 0x3 DUP2 MLOAD DUP2 LT PUSH2 0x1182 JUMPI PUSH2 0x1181 PUSH2 0x2976 JUMP JUMPDEST JUMPDEST PUSH1 0x20 MUL PUSH1 0x20 ADD ADD DUP2 SWAP1 MSTORE POP PUSH1 0x40 MLOAD DUP1 PUSH1 0x60 ADD PUSH1 0x40 MSTORE DUP1 PUSH1 0x40 MLOAD DUP1 PUSH1 0x40 ADD PUSH1 0x40 MSTORE DUP1 PUSH1 0x9 DUP2 MSTORE PUSH1 0x20 ADD PUSH32 0x74696D657374616D700000000000000000000000000000000000000000000000 DUP2 MSTORE POP DUP2 MSTORE PUSH1 0x20 ADD PUSH1 0x40 MLOAD DUP1 PUSH1 0x40 ADD PUSH1 0x40 MSTORE DUP1 PUSH1 0x4 DUP2 MSTORE PUSH1 0x20 ADD PUSH32 0x7532353600000000000000000000000000000000000000000000000000000000 DUP2 MSTORE POP DUP2 MSTORE PUSH1 0x20 ADD TIMESTAMP PUSH1 0x40 MLOAD PUSH1 0x20 ADD PUSH2 0x121F SWAP2 SWAP1 PUSH2 0x2294 JUMP JUMPDEST PUSH1 0x40 MLOAD PUSH1 0x20 DUP2 DUP4 SUB SUB DUP2 MSTORE SWAP1 PUSH1 0x40 MSTORE DUP2 MSTORE POP DUP2 PUSH1 0x4 DUP2 MLOAD DUP2 LT PUSH2 0x1245 JUMPI PUSH2 0x1244 PUSH2 0x2976 JUMP JUMPDEST JUMPDEST PUSH1 0x20 MUL PUSH1 0x20 ADD ADD DUP2 SWAP1 MSTORE POP PUSH32 0x0 PUSH20 0xFFFFFFFFFFFFFFFFFFFFFFFFFFFFFFFFFFFFFFFF AND PUSH4 0x7D64FA9B DUP3 PUSH1 0x40 MLOAD DUP3 PUSH4 0xFFFFFFFF AND PUSH1 0xE0 SHL DUP2 MSTORE PUSH1 0x4 ADD PUSH2 0x12A9 SWAP2 SWAP1 PUSH2 0x2DA4 JUMP JUMPDEST PUSH0 PUSH1 0x40 MLOAD DUP1 DUP4 SUB DUP2 PUSH0 DUP8 DUP1 EXTCODESIZE ISZERO DUP1 ISZERO PUSH2 0x12C0 JUMPI PUSH0 PUSH0 REVERT JUMPDEST POP GAS CALL ISZERO DUP1 ISZERO PUSH2 0x12D2 JUMPI RETURNDATASIZE PUSH0 PUSH0 RETURNDATACOPY RETURNDATASIZE PUSH0 REVERT JUMPDEST POP POP POP POP POP POP POP POP POP POP JUMP JUMPDEST PUSH0 PUSH0 PUSH0 SWAP1 SLOAD SWAP1 PUSH2 0x100 EXP SWAP1 DIV PUSH20 0xFFFFFFFFFFFFFFFFFFFFFFFFFFFFFFFFFFFFFFFF AND SWAP1 POP SWAP1 JUMP JUMPDEST PUSH0 PUSH2 0x1352 DUP5 DUP5 DUP1 DUP1 PUSH1 0x1F ADD PUSH1 0x20 DUP1 SWAP2 DIV MUL PUSH1 0x20 ADD PUSH1 0x40 MLOAD SWAP1 DUP2 ADD PUSH1 0x40 MSTORE DUP1 SWAP4 SWAP3 SWAP2 SWAP1 DUP2 DUP2 MSTORE PUSH1 0x20 ADD DUP4 DUP4 DUP1 DUP3 DUP5 CALLDATACOPY PUSH0 DUP2 DUP5 ADD MSTORE PUSH1 0x1F NOT PUSH1 0x1F DUP3 ADD AND SWAP1 POP DUP1 DUP4 ADD SWAP3 POP POP POP POP POP POP POP PUSH2 0x2FA JUMP JUMPDEST SWAP1 POP PUSH1 0x2 PUSH0 DUP3 PUSH20 0xFFFFFFFFFFFFFFFFFFFFFFFFFFFFFFFFFFFFFFFF AND PUSH20 0xFFFFFFFFFFFFFFFFFFFFFFFFFFFFFFFFFFFFFFFF AND DUP2 MSTORE PUSH1 0x20 ADD SWAP1 DUP2 MSTORE PUSH1 0x20 ADD PUSH0 KECCAK256 PUSH0 SWAP1 SLOAD SWAP1 PUSH2 0x100 EXP SWAP1 DIV PUSH1 0xFF AND PUSH2 0x13DD JUMPI PUSH1 0x40 MLOAD PUSH32 0x8C379A000000000000000000000000000000000000000000000000000000000 DUP2 MSTORE PUSH1 0x4 ADD PUSH2 0x13D4 SWAP1 PUSH2 0x28F8 JUMP JUMPDEST PUSH1 0x40 MLOAD DUP1 SWAP2 SUB SWAP1 REVERT JUMPDEST PUSH0 DUP3 GT PUSH2 0x141F JUMPI PUSH1 0x40 MLOAD PUSH32 0x8C379A000000000000000000000000000000000000000000000000000000000 DUP2 MSTORE PUSH1 0x4 ADD PUSH2 0x1416 SWAP1 PUSH2 0x2E21 JUMP JUMPDEST PUSH1 0x40 MLOAD DUP1 SWAP2 SUB SWAP1 REVERT JUMPDEST PUSH2 0x144C CALLER ADDRESS DUP5 DUP5 PUSH20 0xFFFFFFFFFFFFFFFFFFFFFFFFFFFFFFFFFFFFFFFF AND PUSH2 0x1CEF SWAP1 SWAP4 SWAP3 SWAP2 SWAP1 PUSH4 0xFFFFFFFF AND JUMP JUMPDEST DUP2 PUSH1 0x3 PUSH0 CALLER PUSH20 0xFFFFFFFFFFFFFFFFFFFFFFFFFFFFFFFFFFFFFFFF AND PUSH20 0xFFFFFFFFFFFFFFFFFFFFFFFFFFFFFFFFFFFFFFFF AND DUP2 MSTORE PUSH1 0x20 ADD SWAP1 DUP2 MSTORE PUSH1 0x20 ADD PUSH0 KECCAK256 PUSH0 DUP4 PUSH20 0xFFFFFFFFFFFFFFFFFFFFFFFFFFFFFFFFFFFFFFFF AND PUSH20 0xFFFFFFFFFFFFFFFFFFFFFFFFFFFFFFFFFFFFFFFF AND DUP2 MSTORE PUSH1 0x20 ADD SWAP1 DUP2 MSTORE PUSH1 0x20 ADD PUSH0 KECCAK256 PUSH0 DUP3 DUP3 SLOAD PUSH2 0x14D3 SWAP2 SWAP1 PUSH2 0x2943 JUMP JUMPDEST SWAP3 POP POP DUP2 SWAP1 SSTORE POP PUSH0 PUSH1 0x5 PUSH8 0xFFFFFFFFFFFFFFFF DUP2 GT ISZERO PUSH2 0x14F6 JUMPI PUSH2 0x14F5 PUSH2 0x1EE8 JUMP JUMPDEST JUMPDEST PUSH1 0x40 MLOAD SWAP1 DUP1 DUP3 MSTORE DUP1 PUSH1 0x20 MUL PUSH1 0x20 ADD DUP3 ADD PUSH1 0x40 MSTORE DUP1 ISZERO PUSH2 0x152F JUMPI DUP2 PUSH1 0x20 ADD JUMPDEST PUSH2 0x151C PUSH2 0x1E1E JUMP JUMPDEST DUP2 MSTORE PUSH1 0x20 ADD SWAP1 PUSH1 0x1 SWAP1 SUB SWAP1 DUP2 PUSH2 0x1514 JUMPI SWAP1 POP JUMPDEST POP SWAP1 POP PUSH1 0x40 MLOAD DUP1 PUSH1 0x60 ADD PUSH1 0x40 MSTORE DUP1 PUSH1 0x40 MLOAD DUP1 PUSH1 0x40 ADD PUSH1 0x40 MSTORE DUP1 PUSH1 0x4 DUP2 MSTORE PUSH1 0x20 ADD PUSH32 0x7573657200000000000000000000000000000000000000000000000000000000 DUP2 MSTORE POP DUP2 MSTORE PUSH1 0x20 ADD PUSH1 0x40 MLOAD DUP1 PUSH1 0x40 ADD PUSH1 0x40 MSTORE DUP1 PUSH1 0x7 DUP2 MSTORE PUSH1 0x20 ADD PUSH32 0x6164647265737300000000000000000000000000000000000000000000000000 DUP2 MSTORE POP DUP2 MSTORE PUSH1 0x20 ADD CALLER PUSH1 0x40 MLOAD PUSH1 0x20 ADD PUSH2 0x15C4 SWAP2 SWAP1 PUSH2 0x2092 JUMP JUMPDEST PUSH1 0x40 MLOAD PUSH1 0x20 DUP2 DUP4 SUB SUB DUP2 MSTORE SWAP1 PUSH1 0x40 MSTORE DUP2 MSTORE POP DUP2 PUSH0 DUP2 MLOAD DUP2 LT PUSH2 0x15E9 JUMPI PUSH2 0x15E8 PUSH2 0x2976 JUMP JUMPDEST JUMPDEST PUSH1 0x20 MUL PUSH1 0x20 ADD ADD DUP2 SWAP1 MSTORE POP PUSH1 0x40 MLOAD DUP1 PUSH1 0x60 ADD PUSH1 0x40 MSTORE DUP1 PUSH1 0x40 MLOAD DUP1 PUSH1 0x40 ADD PUSH1 0x40 MSTORE DUP1 PUSH1 0x6 DUP2 MSTORE PUSH1 0x20 ADD PUSH32 0x616D6F756E740000000000000000000000000000000000000000000000000000 DUP2 MSTORE POP DUP2 MSTORE PUSH1 0x20 ADD PUSH1 0x40 MLOAD DUP1 PUSH1 0x40 ADD PUSH1 0x40 MSTORE DUP1 PUSH1 0x7 DUP2 MSTORE PUSH1 0x20 ADD PUSH32 0x75696E7432353600000000000000000000000000000000000000000000000000 DUP2 MSTORE POP DUP2 MSTORE PUSH1 0x20 ADD DUP5 PUSH1 0x40 MLOAD PUSH1 0x20 ADD PUSH2 0x1686 SWAP2 SWAP1 PUSH2 0x2294 JUMP JUMPDEST PUSH1 0x40 MLOAD PUSH1 0x20 DUP2 DUP4 SUB SUB DUP2 MSTORE SWAP1 PUSH1 0x40 MSTORE DUP2 MSTORE POP DUP2 PUSH1 0x1 DUP2 MLOAD DUP2 LT PUSH2 0x16AC JUMPI PUSH2 0x16AB PUSH2 0x2976 JUMP JUMPDEST JUMPDEST PUSH1 0x20 MUL PUSH1 0x20 ADD ADD DUP2 SWAP1 MSTORE POP PUSH1 0x40 MLOAD DUP1 PUSH1 0x60 ADD PUSH1 0x40 MSTORE DUP1 PUSH1 0x40 MLOAD DUP1 PUSH1 0x40 ADD PUSH1 0x40 MSTORE DUP1 PUSH1 0x5 DUP2 MSTORE PUSH1 0x20 ADD PUSH32 0x746F6B656E000000000000000000000000000000000000000000000000000000 DUP2 MSTORE POP DUP2 MSTORE PUSH1 0x20 ADD PUSH1 0x40 MLOAD DUP1 PUSH1 0x40 ADD PUSH1 0x40 MSTORE DUP1 PUSH1 0x6 DUP2 MSTORE PUSH1 0x20 ADD PUSH32 0x737472696E670000000000000000000000000000000000000000000000000000 DUP2 MSTORE POP DUP2 MSTORE PUSH1 0x20 ADD DUP7 DUP7 PUSH1 0x40 MLOAD PUSH1 0x20 ADD PUSH2 0x174B SWAP3 SWAP2 SWAP1 PUSH2 0x29CF JUMP JUMPDEST PUSH1 0x40 MLOAD PUSH1 0x20 DUP2 DUP4 SUB SUB DUP2 MSTORE SWAP1 PUSH1 0x40 MSTORE DUP2 MSTORE POP DUP2 PUSH1 0x2 DUP2 MLOAD DUP2 LT PUSH2 0x1771 JUMPI PUSH2 0x1770 PUSH2 0x2976 JUMP JUMPDEST JUMPDEST PUSH1 0x20 MUL PUSH1 0x20 ADD ADD DUP2 SWAP1 MSTORE POP PUSH1 0x40 MLOAD DUP1 PUSH1 0x60 ADD PUSH1 0x40 MSTORE DUP1 PUSH1 0x40 MLOAD DUP1 PUSH1 0x40 ADD PUSH1 0x40 MSTORE DUP1 PUSH1 0x8 DUP2 MSTORE PUSH1 0x20 ADD PUSH32 0x70726F7669646572000000000000000000000000000000000000000000000000 DUP2 MSTORE POP DUP2 MSTORE PUSH1 0x20 ADD PUSH1 0x40 MLOAD DUP1 PUSH1 0x40 ADD PUSH1 0x40 MSTORE DUP1 PUSH1 0x6 DUP2 MSTORE PUSH1 0x20 ADD PUSH32 0x737472696E670000000000000000000000000000000000000000000000000000 DUP2 MSTORE POP DUP2 MSTORE PUSH1 0x20 ADD PUSH1 0x1 PUSH1 0x40 MLOAD PUSH1 0x20 ADD PUSH2 0x180F SWAP2 SWAP1 PUSH2 0x2A72 JUMP JUMPDEST PUSH1 0x40 MLOAD PUSH1 0x20 DUP2 DUP4 SUB SUB DUP2 MSTORE SWAP1 PUSH1 0x40 MSTORE DUP2 MSTORE POP DUP2 PUSH1 0x3 DUP2 MLOAD DUP2 LT PUSH2 0x1835 JUMPI PUSH2 0x1834 PUSH2 0x2976 JUMP JUMPDEST JUMPDEST PUSH1 0x20 MUL PUSH1 0x20 ADD ADD DUP2 SWAP1 MSTORE POP PUSH1 0x40 MLOAD DUP1 PUSH1 0x60 ADD PUSH1 0x40 MSTORE DUP1 PUSH1 0x40 MLOAD DUP1 PUSH1 0x40 ADD PUSH1 0x40 MSTORE DUP1 PUSH1 0x9 DUP2 MSTORE PUSH1 0x20 ADD PUSH32 0x74696D657374616D700000000000000000000000000000000000000000000000 DUP2 MSTORE POP DUP2 MSTORE PUSH1 0x20 ADD PUSH1 0x40 MLOAD DUP1 PUSH1 0x40 ADD PUSH1 0x40 MSTORE DUP1 PUSH1 0x4 DUP2 MSTORE PUSH1 0x20 ADD PUSH32 0x7532353600000000000000000000000000000000000000000000000000000000 DUP2 MSTORE POP DUP2 MSTORE PUSH1 0x20 ADD TIMESTAMP PUSH1 0x40 MLOAD PUSH1 0x20 ADD PUSH2 0x18D2 SWAP2 SWAP1 PUSH2 0x2294 JUMP JUMPDEST PUSH1 0x40 MLOAD PUSH1 0x20 DUP2 DUP4 SUB SUB DUP2 MSTORE SWAP1 PUSH1 0x40 MSTORE DUP2 MSTORE POP DUP2 PUSH1 0x4 DUP2 MLOAD DUP2 LT PUSH2 0x18F8 JUMPI PUSH2 0x18F7 PUSH2 0x2976 JUMP JUMPDEST JUMPDEST PUSH1 0x20 MUL PUSH1 0x20 ADD ADD DUP2 SWAP1 MSTORE POP PUSH32 0x0 PUSH20 0xFFFFFFFFFFFFFFFFFFFFFFFFFFFFFFFFFFFFFFFF AND PUSH4 0x7D64FA9B DUP3 PUSH1 0x40 MLOAD DUP3 PUSH4 0xFFFFFFFF AND PUSH1 0xE0 SHL DUP2 MSTORE PUSH1 0x4 ADD PUSH2 0x195C SWAP2 SWAP1 PUSH2 0x2E89 JUMP JUMPDEST PUSH0 PUSH1 0x40 MLOAD DUP1 DUP4 SUB DUP2 PUSH0 DUP8 DUP1 EXTCODESIZE ISZERO DUP1 ISZERO PUSH2 0x1973 JUMPI PUSH0 PUSH0 REVERT JUMPDEST POP GAS CALL ISZERO DUP1 ISZERO PUSH2 0x1985 JUMPI RETURNDATASIZE PUSH0 PUSH0 RETURNDATACOPY RETURNDATASIZE PUSH0 REVERT JUMPDEST POP POP POP POP POP POP POP POP POP JUMP JUMPDEST PUSH32 0x0 DUP2 JUMP JUMPDEST PUSH32 0x0 DUP2 JUMP JUMPDEST PUSH0 PUSH2 0x1A25 DUP4 DUP4 DUP1 DUP1 PUSH1 0x1F ADD PUSH1 0x20 DUP1 SWAP2 DIV MUL PUSH1 0x20 ADD PUSH1 0x40 MLOAD SWAP1 DUP2 ADD PUSH1 0x40 MSTORE DUP1 SWAP4 SWAP3 SWAP2 SWAP1 DUP2 DUP2 MSTORE PUSH1 0x20 ADD DUP4 DUP4 DUP1 DUP3 DUP5 CALLDATACOPY PUSH0 DUP2 DUP5 ADD MSTORE PUSH1 0x1F NOT PUSH1 0x1F DUP3 ADD AND SWAP1 POP DUP1 DUP4 ADD SWAP3 POP POP POP POP POP POP POP PUSH2 0x2FA JUMP JUMPDEST SWAP1 POP PUSH1 0x1 PUSH1 0x2 PUSH0 DUP4 PUSH20 0xFFFFFFFFFFFFFFFFFFFFFFFFFFFFFFFFFFFFFFFF AND PUSH20 0xFFFFFFFFFFFFFFFFFFFFFFFFFFFFFFFFFFFFFFFF AND DUP2 MSTORE PUSH1 0x20 ADD SWAP1 DUP2 MSTORE PUSH1 0x20 ADD PUSH0 KECCAK256 PUSH0 PUSH2 0x100 EXP DUP2 SLOAD DUP2 PUSH1 0xFF MUL NOT AND SWAP1 DUP4 ISZERO ISZERO MUL OR SWAP1 SSTORE POP DUP1 PUSH20 0xFFFFFFFFFFFFFFFFFFFFFFFFFFFFFFFFFFFFFFFF AND PUSH32 0xD57B1148EFB91F418A2178FC1FB4BA12F9400A4DC8E71851FD59E85D337C609F PUSH1 0x1 PUSH1 0x40 MLOAD PUSH2 0x1AC3 SWAP2 SWAP1 PUSH2 0x2A72 JUMP JUMPDEST PUSH1 0x40 MLOAD DUP1 SWAP2 SUB SWAP1 LOG2 POP POP POP JUMP JUMPDEST PUSH2 0x1AD8 PUSH2 0x1B54 JUMP JUMPDEST PUSH0 PUSH20 0xFFFFFFFFFFFFFFFFFFFFFFFFFFFFFFFFFFFFFFFF AND DUP2 PUSH20 0xFFFFFFFFFFFFFFFFFFFFFFFFFFFFFFFFFFFFFFFF AND SUB PUSH2 0x1B48 JUMPI PUSH0 PUSH1 0x40 MLOAD PUSH32 0x1E4FBDF700000000000000000000000000000000000000000000000000000000 DUP2 MSTORE PUSH1 0x4 ADD PUSH2 0x1B3F SWAP2 SWAP1 PUSH2 0x2092 JUMP JUMPDEST PUSH1 0x40 MLOAD DUP1 SWAP2 SUB SWAP1 REVERT JUMPDEST PUSH2 0x1B51 DUP2 PUSH2 0x1BDB JUMP JUMPDEST POP JUMP JUMPDEST PUSH2 0x1B5C PUSH2 0x1D44 JUMP JUMPDEST PUSH20 0xFFFFFFFFFFFFFFFFFFFFFFFFFFFFFFFFFFFFFFFF AND PUSH2 0x1B7A PUSH2 0x12DE JUMP JUMPDEST PUSH20 0xFFFFFFFFFFFFFFFFFFFFFFFFFFFFFFFFFFFFFFFF AND EQ PUSH2 0x1BD9 JUMPI PUSH2 0x1B9D PUSH2 0x1D44 JUMP JUMPDEST PUSH1 0x40 MLOAD PUSH32 0x118CDAA700000000000000000000000000000000000000000000000000000000 DUP2 MSTORE PUSH1 0x4 ADD PUSH2 0x1BD0 SWAP2 SWAP1 PUSH2 0x2092 JUMP JUMPDEST PUSH1 0x40 MLOAD DUP1 SWAP2 SUB SWAP1 REVERT JUMPDEST JUMP JUMPDEST PUSH0 PUSH0 PUSH0 SWAP1 SLOAD SWAP1 PUSH2 0x100 EXP SWAP1 DIV PUSH20 0xFFFFFFFFFFFFFFFFFFFFFFFFFFFFFFFFFFFFFFFF AND SWAP1 POP DUP2 PUSH0 PUSH0 PUSH2 0x100 EXP DUP2 SLOAD DUP2 PUSH20 0xFFFFFFFFFFFFFFFFFFFFFFFFFFFFFFFFFFFFFFFF MUL NOT AND SWAP1 DUP4 PUSH20 0xFFFFFFFFFFFFFFFFFFFFFFFFFFFFFFFFFFFFFFFF AND MUL OR SWAP1 SSTORE POP DUP2 PUSH20 0xFFFFFFFFFFFFFFFFFFFFFFFFFFFFFFFFFFFFFFFF AND DUP2 PUSH20 0xFFFFFFFFFFFFFFFFFFFFFFFFFFFFFFFFFFFFFFFF AND PUSH32 0x8BE0079C531659141344CD1FD0A4F28419497F9722A3DAAFE3B4186F6B6457E0 PUSH1 0x40 MLOAD PUSH1 0x40 MLOAD DUP1 SWAP2 SUB SWAP1 LOG3 POP POP JUMP JUMPDEST PUSH2 0x1CA9 DUP4 DUP4 DUP4 PUSH1 0x1 PUSH2 0x1D4B JUMP JUMPDEST PUSH2 0x1CEA JUMPI DUP3 PUSH1 0x40 MLOAD PUSH32 0x5274AFE700000000000000000000000000000000000000000000000000000000 DUP2 MSTORE PUSH1 0x4 ADD PUSH2 0x1CE1 SWAP2 SWAP1 PUSH2 0x2092 JUMP JUMPDEST PUSH1 0x40 MLOAD DUP1 SWAP2 SUB SWAP1 REVERT JUMPDEST POP POP POP JUMP JUMPDEST PUSH2 0x1CFD DUP5 DUP5 DUP5 DUP5 PUSH1 0x1 PUSH2 0x1DAD JUMP JUMPDEST PUSH2 0x1D3E JUMPI DUP4 PUSH1 0x40 MLOAD PUSH32 0x5274AFE700000000000000000000000000000000000000000000000000000000 DUP2 MSTORE PUSH1 0x4 ADD PUSH2 0x1D35 SWAP2 SWAP1 PUSH2 0x2092 JUMP JUMPDEST PUSH1 0x40 MLOAD DUP1 SWAP2 SUB SWAP1 REVERT JUMPDEST POP POP POP POP JUMP JUMPDEST PUSH0 CALLER SWAP1 POP SWAP1 JUMP JUMPDEST PUSH0 PUSH0 PUSH4 0xA9059CBB PUSH1 0xE0 SHL SWAP1 POP PUSH1 0x40 MLOAD DUP2 PUSH0 MSTORE PUSH0 NOT PUSH1 0x60 SHR DUP7 AND PUSH1 0x4 MSTORE DUP5 PUSH1 0x24 MSTORE PUSH1 0x20 PUSH0 PUSH1 0x44 PUSH0 PUSH0 DUP12 GAS CALL SWAP3 POP PUSH1 0x1 PUSH0 MLOAD EQ DUP4 AND PUSH2 0x1D9F JUMPI DUP4 DUP4 ISZERO AND ISZERO PUSH2 0x1D93 JUMPI RETURNDATASIZE PUSH0 DUP3 RETURNDATACOPY RETURNDATASIZE DUP2 REVERT JUMPDEST PUSH0 DUP8 EXTCODESIZE GT RETURNDATASIZE ISZERO AND DUP4 AND SWAP3 POP JUMPDEST DUP1 PUSH1 0x40 MSTORE POP POP SWAP5 SWAP4 POP POP POP POP JUMP JUMPDEST PUSH0 PUSH0 PUSH4 0x23B872DD PUSH1 0xE0 SHL SWAP1 POP PUSH1 0x40 MLOAD DUP2 PUSH0 MSTORE PUSH0 NOT PUSH1 0x60 SHR DUP8 AND PUSH1 0x4 MSTORE PUSH0 NOT PUSH1 0x60 SHR DUP7 AND PUSH1 0x24 MSTORE DUP5 PUSH1 0x44 MSTORE PUSH1 0x20 PUSH0 PUSH1 0x64 PUSH0 PUSH0 DUP13 GAS CALL SWAP3 POP PUSH1 0x1 PUSH0 MLOAD EQ DUP4 AND PUSH2 0x1E0B JUMPI DUP4 DUP4 ISZERO AND ISZERO PUSH2 0x1DFF JUMPI RETURNDATASIZE PUSH0 DUP3 RETURNDATACOPY RETURNDATASIZE DUP2 REVERT JUMPDEST PUSH0 DUP9 EXTCODESIZE GT RETURNDATASIZE ISZERO AND DUP4 AND SWAP3 POP JUMPDEST DUP1 PUSH1 0x40 MSTORE PUSH0 PUSH1 0x60 MSTORE POP POP SWAP6 SWAP5 POP POP POP POP POP JUMP JUMPDEST PUSH1 0x40 MLOAD DUP1 PUSH1 0x60 ADD PUSH1 0x40 MSTORE DUP1 PUSH1 0x60 DUP2 MSTORE PUSH1 0x20 ADD PUSH1 0x60 DUP2 MSTORE PUSH1 0x20 ADD PUSH1 0x60 DUP2 MSTORE POP SWAP1 JUMP JUMPDEST PUSH0 DUP2 MLOAD SWAP1 POP SWAP2 SWAP1 POP JUMP JUMPDEST PUSH0 DUP3 DUP3 MSTORE PUSH1 0x20 DUP3 ADD SWAP1 POP SWAP3 SWAP2 POP POP JUMP JUMPDEST DUP3 DUP2 DUP4 MCOPY PUSH0 DUP4 DUP4 ADD MSTORE POP POP POP JUMP JUMPDEST PUSH0 PUSH1 0x1F NOT PUSH1 0x1F DUP4 ADD AND SWAP1 POP SWAP2 SWAP1 POP JUMP JUMPDEST PUSH0 PUSH2 0x1E81 DUP3 PUSH2 0x1E3F JUMP JUMPDEST PUSH2 0x1E8B DUP2 DUP6 PUSH2 0x1E49 JUMP JUMPDEST SWAP4 POP PUSH2 0x1E9B DUP2 DUP6 PUSH1 0x20 DUP7 ADD PUSH2 0x1E59 JUMP JUMPDEST PUSH2 0x1EA4 DUP2 PUSH2 0x1E67 JUMP JUMPDEST DUP5 ADD SWAP2 POP POP SWAP3 SWAP2 POP POP JUMP JUMPDEST PUSH0 PUSH1 0x20 DUP3 ADD SWAP1 POP DUP2 DUP2 SUB PUSH0 DUP4 ADD MSTORE PUSH2 0x1EC7 DUP2 DUP5 PUSH2 0x1E77 JUMP JUMPDEST SWAP1 POP SWAP3 SWAP2 POP POP JUMP JUMPDEST PUSH0 PUSH1 0x40 MLOAD SWAP1 POP SWAP1 JUMP JUMPDEST PUSH0 PUSH0 REVERT JUMPDEST PUSH0 PUSH0 REVERT JUMPDEST PUSH0 PUSH0 REVERT JUMPDEST PUSH0 PUSH0 REVERT JUMPDEST PUSH32 0x4E487B7100000000000000000000000000000000000000000000000000000000 PUSH0 MSTORE PUSH1 0x41 PUSH1 0x4 MSTORE PUSH1 0x24 PUSH0 REVERT JUMPDEST PUSH2 0x1F1E DUP3 PUSH2 0x1E67 JUMP JUMPDEST DUP2 ADD DUP2 DUP2 LT PUSH8 0xFFFFFFFFFFFFFFFF DUP3 GT OR ISZERO PUSH2 0x1F3D JUMPI PUSH2 0x1F3C PUSH2 0x1EE8 JUMP JUMPDEST JUMPDEST DUP1 PUSH1 0x40 MSTORE POP POP POP JUMP JUMPDEST PUSH0 PUSH2 0x1F4F PUSH2 0x1ECF JUMP JUMPDEST SWAP1 POP PUSH2 0x1F5B DUP3 DUP3 PUSH2 0x1F15 JUMP JUMPDEST SWAP2 SWAP1 POP JUMP JUMPDEST PUSH0 PUSH8 0xFFFFFFFFFFFFFFFF DUP3 GT ISZERO PUSH2 0x1F7A JUMPI PUSH2 0x1F79 PUSH2 0x1EE8 JUMP JUMPDEST JUMPDEST PUSH2 0x1F83 DUP3 PUSH2 0x1E67 JUMP JUMPDEST SWAP1 POP PUSH1 0x20 DUP2 ADD SWAP1 POP SWAP2 SWAP1 POP JUMP JUMPDEST DUP3 DUP2 DUP4 CALLDATACOPY PUSH0 DUP4 DUP4 ADD MSTORE POP POP POP JUMP JUMPDEST PUSH0 PUSH2 0x1FB0 PUSH2 0x1FAB DUP5 PUSH2 0x1F60 JUMP JUMPDEST PUSH2 0x1F46 JUMP JUMPDEST SWAP1 POP DUP3 DUP2 MSTORE PUSH1 0x20 DUP2 ADD DUP5 DUP5 DUP5 ADD GT ISZERO PUSH2 0x1FCC JUMPI PUSH2 0x1FCB PUSH2 0x1EE4 JUMP JUMPDEST JUMPDEST PUSH2 0x1FD7 DUP5 DUP3 DUP6 PUSH2 0x1F90 JUMP JUMPDEST POP SWAP4 SWAP3 POP POP POP JUMP JUMPDEST PUSH0 DUP3 PUSH1 0x1F DUP4 ADD SLT PUSH2 0x1FF3 JUMPI PUSH2 0x1FF2 PUSH2 0x1EE0 JUMP JUMPDEST JUMPDEST DUP2 CALLDATALOAD PUSH2 0x2003 DUP5 DUP3 PUSH1 0x20 DUP7 ADD PUSH2 0x1F9E JUMP JUMPDEST SWAP2 POP POP SWAP3 SWAP2 POP POP JUMP JUMPDEST PUSH0 PUSH1 0x20 DUP3 DUP5 SUB SLT ISZERO PUSH2 0x2021 JUMPI PUSH2 0x2020 PUSH2 0x1ED8 JUMP JUMPDEST JUMPDEST PUSH0 DUP3 ADD CALLDATALOAD PUSH8 0xFFFFFFFFFFFFFFFF DUP2 GT ISZERO PUSH2 0x203E JUMPI PUSH2 0x203D PUSH2 0x1EDC JUMP JUMPDEST JUMPDEST PUSH2 0x204A DUP5 DUP3 DUP6 ADD PUSH2 0x1FDF JUMP JUMPDEST SWAP2 POP POP SWAP3 SWAP2 POP POP JUMP JUMPDEST PUSH0 PUSH20 0xFFFFFFFFFFFFFFFFFFFFFFFFFFFFFFFFFFFFFFFF DUP3 AND SWAP1 POP SWAP2 SWAP1 POP JUMP JUMPDEST PUSH0 PUSH2 0x207C DUP3 PUSH2 0x2053 JUMP JUMPDEST SWAP1 POP SWAP2 SWAP1 POP JUMP JUMPDEST PUSH2 0x208C DUP2 PUSH2 0x2072 JUMP JUMPDEST DUP3 MSTORE POP POP JUMP JUMPDEST PUSH0 PUSH1 0x20 DUP3 ADD SWAP1 POP PUSH2 0x20A5 PUSH0 DUP4 ADD DUP5 PUSH2 0x2083 JUMP JUMPDEST SWAP3 SWAP2 POP POP JUMP JUMPDEST PUSH2 0x20B4 DUP2 PUSH2 0x2072 JUMP JUMPDEST DUP2 EQ PUSH2 0x20BE JUMPI PUSH0 PUSH0 REVERT JUMPDEST POP JUMP JUMPDEST PUSH0 DUP2 CALLDATALOAD SWAP1 POP PUSH2 0x20CF DUP2 PUSH2 0x20AB JUMP JUMPDEST SWAP3 SWAP2 POP POP JUMP JUMPDEST PUSH0 PUSH1 0x20 DUP3 DUP5 SUB SLT ISZERO PUSH2 0x20EA JUMPI PUSH2 0x20E9 PUSH2 0x1ED8 JUMP JUMPDEST JUMPDEST PUSH0 PUSH2 0x20F7 DUP5 DUP3 DUP6 ADD PUSH2 0x20C1 JUMP JUMPDEST SWAP2 POP POP SWAP3 SWAP2 POP POP JUMP JUMPDEST PUSH0 DUP2 ISZERO ISZERO SWAP1 POP SWAP2 SWAP1 POP JUMP JUMPDEST PUSH2 0x2114 DUP2 PUSH2 0x2100 JUMP JUMPDEST DUP3 MSTORE POP POP JUMP JUMPDEST PUSH0 PUSH1 0x20 DUP3 ADD SWAP1 POP PUSH2 0x212D PUSH0 DUP4 ADD DUP5 PUSH2 0x210B JUMP JUMPDEST SWAP3 SWAP2 POP POP JUMP JUMPDEST PUSH0 PUSH0 REVERT JUMPDEST PUSH0 PUSH0 REVERT JUMPDEST PUSH0 PUSH0 DUP4 PUSH1 0x1F DUP5 ADD SLT PUSH2 0x2150 JUMPI PUSH2 0x214F PUSH2 0x1EE0 JUMP JUMPDEST JUMPDEST DUP3 CALLDATALOAD SWAP1 POP PUSH8 0xFFFFFFFFFFFFFFFF DUP2 GT ISZERO PUSH2 0x216D JUMPI PUSH2 0x216C PUSH2 0x2133 JUMP JUMPDEST JUMPDEST PUSH1 0x20 DUP4 ADD SWAP2 POP DUP4 PUSH1 0x1 DUP3 MUL DUP4 ADD GT ISZERO PUSH2 0x2189 JUMPI PUSH2 0x2188 PUSH2 0x2137 JUMP JUMPDEST JUMPDEST SWAP3 POP SWAP3 SWAP1 POP JUMP JUMPDEST PUSH0 DUP2 SWAP1 POP SWAP2 SWAP1 POP JUMP JUMPDEST PUSH2 0x21A2 DUP2 PUSH2 0x2190 JUMP JUMPDEST DUP2 EQ PUSH2 0x21AC JUMPI PUSH0 PUSH0 REVERT JUMPDEST POP JUMP JUMPDEST PUSH0 DUP2 CALLDATALOAD SWAP1 POP PUSH2 0x21BD DUP2 PUSH2 0x2199 JUMP JUMPDEST SWAP3 SWAP2 POP POP JUMP JUMPDEST PUSH0 PUSH0 PUSH0 PUSH0 PUSH0 PUSH1 0x80 DUP7 DUP9 SUB SLT ISZERO PUSH2 0x21DC JUMPI PUSH2 0x21DB PUSH2 0x1ED8 JUMP JUMPDEST JUMPDEST PUSH0 PUSH2 0x21E9 DUP9 DUP3 DUP10 ADD PUSH2 0x20C1 JUMP JUMPDEST SWAP6 POP POP PUSH1 0x20 DUP7 ADD CALLDATALOAD PUSH8 0xFFFFFFFFFFFFFFFF DUP2 GT ISZERO PUSH2 0x220A JUMPI PUSH2 0x2209 PUSH2 0x1EDC JUMP JUMPDEST JUMPDEST PUSH2 0x2216 DUP9 DUP3 DUP10 ADD PUSH2 0x213B JUMP JUMPDEST SWAP5 POP SWAP5 POP POP PUSH1 0x40 PUSH2 0x2229 DUP9 DUP3 DUP10 ADD PUSH2 0x21AF JUMP JUMPDEST SWAP3 POP POP PUSH1 0x60 PUSH2 0x223A DUP9 DUP3 DUP10 ADD PUSH2 0x21AF JUMP JUMPDEST SWAP2 POP POP SWAP3 SWAP6 POP SWAP3 SWAP6 SWAP1 SWAP4 POP JUMP JUMPDEST PUSH0 PUSH0 PUSH1 0x40 DUP4 DUP6 SUB SLT ISZERO PUSH2 0x225D JUMPI PUSH2 0x225C PUSH2 0x1ED8 JUMP JUMPDEST JUMPDEST PUSH0 PUSH2 0x226A DUP6 DUP3 DUP7 ADD PUSH2 0x20C1 JUMP JUMPDEST SWAP3 POP POP PUSH1 0x20 PUSH2 0x227B DUP6 DUP3 DUP7 ADD PUSH2 0x20C1 JUMP JUMPDEST SWAP2 POP POP SWAP3 POP SWAP3 SWAP1 POP JUMP JUMPDEST PUSH2 0x228E DUP2 PUSH2 0x2190 JUMP JUMPDEST DUP3 MSTORE POP POP JUMP JUMPDEST PUSH0 PUSH1 0x20 DUP3 ADD SWAP1 POP PUSH2 0x22A7 PUSH0 DUP4 ADD DUP5 PUSH2 0x2285 JUMP JUMPDEST SWAP3 SWAP2 POP POP JUMP JUMPDEST PUSH0 PUSH0 PUSH0 PUSH0 PUSH1 0x60 DUP6 DUP8 SUB SLT ISZERO PUSH2 0x22C5 JUMPI PUSH2 0x22C4 PUSH2 0x1ED8 JUMP JUMPDEST JUMPDEST PUSH0 DUP6 ADD CALLDATALOAD PUSH8 0xFFFFFFFFFFFFFFFF DUP2 GT ISZERO PUSH2 0x22E2 JUMPI PUSH2 0x22E1 PUSH2 0x1EDC JUMP JUMPDEST JUMPDEST PUSH2 0x22EE DUP8 DUP3 DUP9 ADD PUSH2 0x213B JUMP JUMPDEST SWAP5 POP SWAP5 POP POP PUSH1 0x20 PUSH2 0x2301 DUP8 DUP3 DUP9 ADD PUSH2 0x21AF JUMP JUMPDEST SWAP3 POP POP PUSH1 0x40 PUSH2 0x2312 DUP8 DUP3 DUP9 ADD PUSH2 0x20C1 JUMP JUMPDEST SWAP2 POP POP SWAP3 SWAP6 SWAP2 SWAP5 POP SWAP3 POP JUMP JUMPDEST PUSH0 PUSH0 PUSH0 PUSH1 0x40 DUP5 DUP7 SUB SLT ISZERO PUSH2 0x2335 JUMPI PUSH2 0x2334 PUSH2 0x1ED8 JUMP JUMPDEST JUMPDEST PUSH0 DUP5 ADD CALLDATALOAD PUSH8 0xFFFFFFFFFFFFFFFF DUP2 GT ISZERO PUSH2 0x2352 JUMPI PUSH2 0x2351 PUSH2 0x1EDC JUMP JUMPDEST JUMPDEST PUSH2 0x235E DUP7 DUP3 DUP8 ADD PUSH2 0x213B JUMP JUMPDEST SWAP4 POP SWAP4 POP POP PUSH1 0x20 PUSH2 0x2371 DUP7 DUP3 DUP8 ADD PUSH2 0x21AF JUMP JUMPDEST SWAP2 POP POP SWAP3 POP SWAP3 POP SWAP3 JUMP JUMPDEST PUSH0 DUP2 SWAP1 POP SWAP2 SWAP1 POP JUMP JUMPDEST PUSH0 PUSH2 0x239E PUSH2 0x2399 PUSH2 0x2394 DUP5 PUSH2 0x2053 JUMP JUMPDEST PUSH2 0x237B JUMP JUMPDEST PUSH2 0x2053 JUMP JUMPDEST SWAP1 POP SWAP2 SWAP1 POP JUMP JUMPDEST PUSH0 PUSH2 0x23AF DUP3 PUSH2 0x2384 JUMP JUMPDEST SWAP1 POP SWAP2 SWAP1 POP JUMP JUMPDEST PUSH0 PUSH2 0x23C0 DUP3 PUSH2 0x23A5 JUMP JUMPDEST SWAP1 POP SWAP2 SWAP1 POP JUMP JUMPDEST PUSH2 0x23D0 DUP2 PUSH2 0x23B6 JUMP JUMPDEST DUP3 MSTORE POP POP JUMP JUMPDEST PUSH0 PUSH1 0x20 DUP3 ADD SWAP1 POP PUSH2 0x23E9 PUSH0 DUP4 ADD DUP5 PUSH2 0x23C7 JUMP JUMPDEST SWAP3 SWAP2 POP POP JUMP JUMPDEST PUSH0 PUSH2 0x23F9 DUP3 PUSH2 0x23A5 JUMP JUMPDEST SWAP1 POP SWAP2 SWAP1 POP JUMP JUMPDEST PUSH2 0x2409 DUP2 PUSH2 0x23EF JUMP JUMPDEST DUP3 MSTORE POP POP JUMP JUMPDEST PUSH0 PUSH1 0x20 DUP3 ADD SWAP1 POP PUSH2 0x2422 PUSH0 DUP4 ADD DUP5 PUSH2 0x2400 JUMP JUMPDEST SWAP3 SWAP2 POP POP JUMP JUMPDEST PUSH0 PUSH0 PUSH1 0x20 DUP4 DUP6 SUB SLT ISZERO PUSH2 0x243E JUMPI PUSH2 0x243D PUSH2 0x1ED8 JUMP JUMPDEST JUMPDEST PUSH0 DUP4 ADD CALLDATALOAD PUSH8 0xFFFFFFFFFFFFFFFF DUP2 GT ISZERO PUSH2 0x245B JUMPI PUSH2 0x245A PUSH2 0x1EDC JUMP JUMPDEST JUMPDEST PUSH2 0x2467 DUP6 DUP3 DUP7 ADD PUSH2 0x213B JUMP JUMPDEST SWAP3 POP SWAP3 POP POP SWAP3 POP SWAP3 SWAP1 POP JUMP JUMPDEST PUSH32 0x4E487B7100000000000000000000000000000000000000000000000000000000 PUSH0 MSTORE PUSH1 0x22 PUSH1 0x4 MSTORE PUSH1 0x24 PUSH0 REVERT JUMPDEST PUSH0 PUSH1 0x2 DUP3 DIV SWAP1 POP PUSH1 0x1 DUP3 AND DUP1 PUSH2 0x24B7 JUMPI PUSH1 0x7F DUP3 AND SWAP2 POP JUMPDEST PUSH1 0x20 DUP3 LT DUP2 SUB PUSH2 0x24CA JUMPI PUSH2 0x24C9 PUSH2 0x2473 JUMP JUMPDEST JUMPDEST POP SWAP2 SWAP1 POP JUMP JUMPDEST PUSH0 DUP2 SWAP1 POP SWAP3 SWAP2 POP POP JUMP JUMPDEST PUSH0 PUSH2 0x24E4 DUP3 PUSH2 0x1E3F JUMP JUMPDEST PUSH2 0x24EE DUP2 DUP6 PUSH2 0x24D0 JUMP JUMPDEST SWAP4 POP PUSH2 0x24FE DUP2 DUP6 PUSH1 0x20 DUP7 ADD PUSH2 0x1E59 JUMP JUMPDEST DUP1 DUP5 ADD SWAP2 POP POP SWAP3 SWAP2 POP POP JUMP JUMPDEST PUSH32 0x5F00000000000000000000000000000000000000000000000000000000000000 PUSH0 DUP3 ADD MSTORE POP JUMP JUMPDEST PUSH0 PUSH2 0x253E PUSH1 0x1 DUP4 PUSH2 0x24D0 JUMP JUMPDEST SWAP2 POP PUSH2 0x2549 DUP3 PUSH2 0x250A JUMP JUMPDEST PUSH1 0x1 DUP3 ADD SWAP1 POP SWAP2 SWAP1 POP JUMP JUMPDEST PUSH0 DUP2 SWAP1 POP DUP2 PUSH0 MSTORE PUSH1 0x20 PUSH0 KECCAK256 SWAP1 POP SWAP2 SWAP1 POP JUMP JUMPDEST PUSH0 DUP2 SLOAD PUSH2 0x2572 DUP2 PUSH2 0x24A0 JUMP JUMPDEST PUSH2 0x257C DUP2 DUP7 PUSH2 0x24D0 JUMP JUMPDEST SWAP5 POP PUSH1 0x1 DUP3 AND PUSH0 DUP2 EQ PUSH2 0x2596 JUMPI PUSH1 0x1 DUP2 EQ PUSH2 0x25AB JUMPI PUSH2 0x25DD JUMP JUMPDEST PUSH1 0xFF NOT DUP4 AND DUP7 MSTORE DUP2 ISZERO ISZERO DUP3 MUL DUP7 ADD SWAP4 POP PUSH2 0x25DD JUMP JUMPDEST PUSH2 0x25B4 DUP6 PUSH2 0x2554 JUMP JUMPDEST PUSH0 JUMPDEST DUP4 DUP2 LT ISZERO PUSH2 0x25D5 JUMPI DUP2 SLOAD DUP2 DUP10 ADD MSTORE PUSH1 0x1 DUP3 ADD SWAP2 POP PUSH1 0x20 DUP2 ADD SWAP1 POP PUSH2 0x25B6 JUMP JUMPDEST DUP4 DUP9 ADD SWAP6 POP POP POP JUMPDEST POP POP POP SWAP3 SWAP2 POP POP JUMP JUMPDEST PUSH0 PUSH2 0x25F1 DUP3 DUP6 PUSH2 0x24DA JUMP JUMPDEST SWAP2 POP PUSH2 0x25FC DUP3 PUSH2 0x2532 JUMP JUMPDEST SWAP2 POP PUSH2 0x2608 DUP3 DUP5 PUSH2 0x2566 JUMP JUMPDEST SWAP2 POP DUP2 SWAP1 POP SWAP4 SWAP3 POP POP POP JUMP JUMPDEST PUSH32 0x50726F7669646572206E616D65206E6F74207365740000000000000000000000 PUSH0 DUP3 ADD MSTORE POP JUMP JUMPDEST PUSH0 PUSH2 0x2648 PUSH1 0x15 DUP4 PUSH2 0x1E49 JUMP JUMPDEST SWAP2 POP PUSH2 0x2653 DUP3 PUSH2 0x2614 JUMP JUMPDEST PUSH1 0x20 DUP3 ADD SWAP1 POP SWAP2 SWAP1 POP JUMP JUMPDEST PUSH0 PUSH1 0x20 DUP3 ADD SWAP1 POP DUP2 DUP2 SUB PUSH0 DUP4 ADD MSTORE PUSH2 0x2675 DUP2 PUSH2 0x263C JUMP JUMPDEST SWAP1 POP SWAP2 SWAP1 POP JUMP JUMPDEST PUSH32 0x51696172614D6F6E616441737365747300000000000000000000000000000000 PUSH0 DUP3 ADD MSTORE POP JUMP JUMPDEST PUSH0 PUSH2 0x26B0 PUSH1 0x10 DUP4 PUSH2 0x1E49 JUMP JUMPDEST SWAP2 POP PUSH2 0x26BB DUP3 PUSH2 0x267C JUMP JUMPDEST PUSH1 0x20 DUP3 ADD SWAP1 POP SWAP2 SWAP1 POP JUMP JUMPDEST PUSH0 PUSH1 0x40 DUP3 ADD SWAP1 POP DUP2 DUP2 SUB PUSH0 DUP4 ADD MSTORE PUSH2 0x26DD DUP2 PUSH2 0x26A4 JUMP JUMPDEST SWAP1 POP DUP2 DUP2 SUB PUSH1 0x20 DUP4 ADD MSTORE PUSH2 0x26F1 DUP2 DUP5 PUSH2 0x1E77 JUMP JUMPDEST SWAP1 POP SWAP3 SWAP2 POP POP JUMP JUMPDEST PUSH0 PUSH8 0xFFFFFFFFFFFFFFFF DUP3 GT ISZERO PUSH2 0x2713 JUMPI PUSH2 0x2712 PUSH2 0x1EE8 JUMP JUMPDEST JUMPDEST PUSH2 0x271C DUP3 PUSH2 0x1E67 JUMP JUMPDEST SWAP1 POP PUSH1 0x20 DUP2 ADD SWAP1 POP SWAP2 SWAP1 POP JUMP JUMPDEST PUSH0 PUSH2 0x273B PUSH2 0x2736 DUP5 PUSH2 0x26F9 JUMP JUMPDEST PUSH2 0x1F46 JUMP JUMPDEST SWAP1 POP DUP3 DUP2 MSTORE PUSH1 0x20 DUP2 ADD DUP5 DUP5 DUP5 ADD GT ISZERO PUSH2 0x2757 JUMPI PUSH2 0x2756 PUSH2 0x1EE4 JUMP JUMPDEST JUMPDEST PUSH2 0x2762 DUP5 DUP3 DUP6 PUSH2 0x1E59 JUMP JUMPDEST POP SWAP4 SWAP3 POP POP POP JUMP JUMPDEST PUSH0 DUP3 PUSH1 0x1F DUP4 ADD SLT PUSH2 0x277E JUMPI PUSH2 0x277D PUSH2 0x1EE0 JUMP JUMPDEST JUMPDEST DUP2 MLOAD PUSH2 0x278E DUP5 DUP3 PUSH1 0x20 DUP7 ADD PUSH2 0x2729 JUMP JUMPDEST SWAP2 POP POP SWAP3 SWAP2 POP POP JUMP JUMPDEST PUSH0 PUSH1 0x20 DUP3 DUP5 SUB SLT ISZERO PUSH2 0x27AC JUMPI PUSH2 0x27AB PUSH2 0x1ED8 JUMP JUMPDEST JUMPDEST PUSH0 DUP3 ADD MLOAD PUSH8 0xFFFFFFFFFFFFFFFF DUP2 GT ISZERO PUSH2 0x27C9 JUMPI PUSH2 0x27C8 PUSH2 0x1EDC JUMP JUMPDEST JUMPDEST PUSH2 0x27D5 DUP5 DUP3 DUP6 ADD PUSH2 0x276A JUMP JUMPDEST SWAP2 POP POP SWAP3 SWAP2 POP POP JUMP JUMPDEST PUSH32 0x4E6F20646174612066726F6D2072656769737472790000000000000000000000 PUSH0 DUP3 ADD MSTORE POP JUMP JUMPDEST PUSH0 PUSH2 0x2812 PUSH1 0x15 DUP4 PUSH2 0x1E49 JUMP JUMPDEST SWAP2 POP PUSH2 0x281D DUP3 PUSH2 0x27DE JUMP JUMPDEST PUSH1 0x20 DUP3 ADD SWAP1 POP SWAP2 SWAP1 POP JUMP JUMPDEST PUSH0 PUSH1 0x20 DUP3 ADD SWAP1 POP DUP2 DUP2 SUB PUSH0 DUP4 ADD MSTORE PUSH2 0x283F DUP2 PUSH2 0x2806 JUMP JUMPDEST SWAP1 POP SWAP2 SWAP1 POP JUMP JUMPDEST PUSH32 0x4461746120746F6F2073686F7274000000000000000000000000000000000000 PUSH0 DUP3 ADD MSTORE POP JUMP JUMPDEST PUSH0 PUSH2 0x287A PUSH1 0xE DUP4 PUSH2 0x1E49 JUMP JUMPDEST SWAP2 POP PUSH2 0x2885 DUP3 PUSH2 0x2846 JUMP JUMPDEST PUSH1 0x20 DUP3 ADD SWAP1 POP SWAP2 SWAP1 POP JUMP JUMPDEST PUSH0 PUSH1 0x20 DUP3 ADD SWAP1 POP DUP2 DUP2 SUB PUSH0 DUP4 ADD MSTORE PUSH2 0x28A7 DUP2 PUSH2 0x286E JUMP JUMPDEST SWAP1 POP SWAP2 SWAP1 POP JUMP JUMPDEST PUSH32 0x5661756C743A20546F6B656E206E6F7420737570706F72746564000000000000 PUSH0 DUP3 ADD MSTORE POP JUMP JUMPDEST PUSH0 PUSH2 0x28E2 PUSH1 0x1A DUP4 PUSH2 0x1E49 JUMP JUMPDEST SWAP2 POP PUSH2 0x28ED DUP3 PUSH2 0x28AE JUMP JUMPDEST PUSH1 0x20 DUP3 ADD SWAP1 POP SWAP2 SWAP1 POP JUMP JUMPDEST PUSH0 PUSH1 0x20 DUP3 ADD SWAP1 POP DUP2 DUP2 SUB PUSH0 DUP4 ADD MSTORE PUSH2 0x290F DUP2 PUSH2 0x28D6 JUMP JUMPDEST SWAP1 POP SWAP2 SWAP1 POP JUMP JUMPDEST PUSH32 0x4E487B7100000000000000000000000000000000000000000000000000000000 PUSH0 MSTORE PUSH1 0x11 PUSH1 0x4 MSTORE PUSH1 0x24 PUSH0 REVERT JUMPDEST PUSH0 PUSH2 0x294D DUP3 PUSH2 0x2190 JUMP JUMPDEST SWAP2 POP PUSH2 0x2958 DUP4 PUSH2 0x2190 JUMP JUMPDEST SWAP3 POP DUP3 DUP3 ADD SWAP1 POP DUP1 DUP3 GT ISZERO PUSH2 0x2970 JUMPI PUSH2 0x296F PUSH2 0x2916 JUMP JUMPDEST JUMPDEST SWAP3 SWAP2 POP POP JUMP JUMPDEST PUSH32 0x4E487B7100000000000000000000000000000000000000000000000000000000 PUSH0 MSTORE PUSH1 0x32 PUSH1 0x4 MSTORE PUSH1 0x24 PUSH0 REVERT JUMPDEST PUSH0 PUSH2 0x29AE DUP4 DUP6 PUSH2 0x1E49 JUMP JUMPDEST SWAP4 POP PUSH2 0x29BB DUP4 DUP6 DUP5 PUSH2 0x1F90 JUMP JUMPDEST PUSH2 0x29C4 DUP4 PUSH2 0x1E67 JUMP JUMPDEST DUP5 ADD SWAP1 POP SWAP4 SWAP3 POP POP POP JUMP JUMPDEST PUSH0 PUSH1 0x20 DUP3 ADD SWAP1 POP DUP2 DUP2 SUB PUSH0 DUP4 ADD MSTORE PUSH2 0x29E8 DUP2 DUP5 DUP7 PUSH2 0x29A3 JUMP JUMPDEST SWAP1 POP SWAP4 SWAP3 POP POP POP JUMP JUMPDEST PUSH0 DUP2 SLOAD PUSH2 0x29FD DUP2 PUSH2 0x24A0 JUMP JUMPDEST PUSH2 0x2A07 DUP2 DUP7 PUSH2 0x1E49 JUMP JUMPDEST SWAP5 POP PUSH1 0x1 DUP3 AND PUSH0 DUP2 EQ PUSH2 0x2A21 JUMPI PUSH1 0x1 DUP2 EQ PUSH2 0x2A37 JUMPI PUSH2 0x2A69 JUMP JUMPDEST PUSH1 0xFF NOT DUP4 AND DUP7 MSTORE DUP2 ISZERO ISZERO PUSH1 0x20 MUL DUP7 ADD SWAP4 POP PUSH2 0x2A69 JUMP JUMPDEST PUSH2 0x2A40 DUP6 PUSH2 0x2554 JUMP JUMPDEST PUSH0 JUMPDEST DUP4 DUP2 LT ISZERO PUSH2 0x2A61 JUMPI DUP2 SLOAD DUP2 DUP10 ADD MSTORE PUSH1 0x1 DUP3 ADD SWAP2 POP PUSH1 0x20 DUP2 ADD SWAP1 POP PUSH2 0x2A42 JUMP JUMPDEST DUP1 DUP9 ADD SWAP6 POP POP POP JUMPDEST POP POP POP SWAP3 SWAP2 POP POP JUMP JUMPDEST PUSH0 PUSH1 0x20 DUP3 ADD SWAP1 POP DUP2 DUP2 SUB PUSH0 DUP4 ADD MSTORE PUSH2 0x2A8A DUP2 DUP5 PUSH2 0x29F1 JUMP JUMPDEST SWAP1 POP SWAP3 SWAP2 POP POP JUMP JUMPDEST PUSH32 0x4772616E74205769746864726177205065726D697373696F6E00000000000000 PUSH0 DUP3 ADD MSTORE POP JUMP JUMPDEST PUSH0 PUSH2 0x2AC6 PUSH1 0x19 DUP4 PUSH2 0x1E49 JUMP JUMPDEST SWAP2 POP PUSH2 0x2AD1 DUP3 PUSH2 0x2A92 JUMP JUMPDEST PUSH1 0x20 DUP3 ADD SWAP1 POP SWAP2 SWAP1 POP JUMP JUMPDEST PUSH0 DUP2 MLOAD SWAP1 POP SWAP2 SWAP1 POP JUMP JUMPDEST PUSH0 DUP3 DUP3 MSTORE PUSH1 0x20 DUP3 ADD SWAP1 POP SWAP3 SWAP2 POP POP JUMP JUMPDEST PUSH0 DUP2 SWAP1 POP PUSH1 0x20 DUP3 ADD SWAP1 POP SWAP2 SWAP1 POP JUMP JUMPDEST PUSH0 DUP3 DUP3 MSTORE PUSH1 0x20 DUP3 ADD SWAP1 POP SWAP3 SWAP2 POP POP JUMP JUMPDEST PUSH0 PUSH2 0x2B1F DUP3 PUSH2 0x1E3F JUMP JUMPDEST PUSH2 0x2B29 DUP2 DUP6 PUSH2 0x2B05 JUMP JUMPDEST SWAP4 POP PUSH2 0x2B39 DUP2 DUP6 PUSH1 0x20 DUP7 ADD PUSH2 0x1E59 JUMP JUMPDEST PUSH2 0x2B42 DUP2 PUSH2 0x1E67 JUMP JUMPDEST DUP5 ADD SWAP2 POP POP SWAP3 SWAP2 POP POP JUMP JUMPDEST PUSH0 DUP2 MLOAD SWAP1 POP SWAP2 SWAP1 POP JUMP JUMPDEST PUSH0 DUP3 DUP3 MSTORE PUSH1 0x20 DUP3 ADD SWAP1 POP SWAP3 SWAP2 POP POP JUMP JUMPDEST PUSH0 PUSH2 0x2B71 DUP3 PUSH2 0x2B4D JUMP JUMPDEST PUSH2 0x2B7B DUP2 DUP6 PUSH2 0x2B57 JUMP JUMPDEST SWAP4 POP PUSH2 0x2B8B DUP2 DUP6 PUSH1 0x20 DUP7 ADD PUSH2 0x1E59 JUMP JUMPDEST PUSH2 0x2B94 DUP2 PUSH2 0x1E67 JUMP JUMPDEST DUP5 ADD SWAP2 POP POP SWAP3 SWAP2 POP POP JUMP JUMPDEST PUSH0 PUSH1 0x60 DUP4 ADD PUSH0 DUP4 ADD MLOAD DUP5 DUP3 SUB PUSH0 DUP7 ADD MSTORE PUSH2 0x2BB9 DUP3 DUP3 PUSH2 0x2B15 JUMP JUMPDEST SWAP2 POP POP PUSH1 0x20 DUP4 ADD MLOAD DUP5 DUP3 SUB PUSH1 0x20 DUP7 ADD MSTORE PUSH2 0x2BD3 DUP3 DUP3 PUSH2 0x2B15 JUMP JUMPDEST SWAP2 POP POP PUSH1 0x40 DUP4 ADD MLOAD DUP5 DUP3 SUB PUSH1 0x40 DUP7 ADD MSTORE PUSH2 0x2BED DUP3 DUP3 PUSH2 0x2B67 JUMP JUMPDEST SWAP2 POP POP DUP1 SWAP2 POP POP SWAP3 SWAP2 POP POP JUMP JUMPDEST PUSH0 PUSH2 0x2C05 DUP4 DUP4 PUSH2 0x2B9F JUMP JUMPDEST SWAP1 POP SWAP3 SWAP2 POP POP JUMP JUMPDEST PUSH0 PUSH1 0x20 DUP3 ADD SWAP1 POP SWAP2 SWAP1 POP JUMP JUMPDEST PUSH0 PUSH2 0x2C23 DUP3 PUSH2 0x2ADC JUMP JUMPDEST PUSH2 0x2C2D DUP2 DUP6 PUSH2 0x2AE6 JUMP JUMPDEST SWAP4 POP DUP4 PUSH1 0x20 DUP3 MUL DUP6 ADD PUSH2 0x2C3F DUP6 PUSH2 0x2AF6 JUMP JUMPDEST DUP1 PUSH0 JUMPDEST DUP6 DUP2 LT ISZERO PUSH2 0x2C7A JUMPI DUP5 DUP5 SUB DUP10 MSTORE DUP2 MLOAD PUSH2 0x2C5B DUP6 DUP3 PUSH2 0x2BFA JUMP JUMPDEST SWAP5 POP PUSH2 0x2C66 DUP4 PUSH2 0x2C0D JUMP JUMPDEST SWAP3 POP PUSH1 0x20 DUP11 ADD SWAP10 POP POP PUSH1 0x1 DUP2 ADD SWAP1 POP PUSH2 0x2C42 JUMP JUMPDEST POP DUP3 SWAP8 POP DUP8 SWAP6 POP POP POP POP POP POP SWAP3 SWAP2 POP POP JUMP JUMPDEST PUSH0 PUSH1 0x40 DUP3 ADD SWAP1 POP DUP2 DUP2 SUB PUSH0 DUP4 ADD MSTORE PUSH2 0x2CA3 DUP2 PUSH2 0x2ABA JUMP JUMPDEST SWAP1 POP DUP2 DUP2 SUB PUSH1 0x20 DUP4 ADD MSTORE PUSH2 0x2CB7 DUP2 DUP5 PUSH2 0x2C19 JUMP JUMPDEST SWAP1 POP SWAP3 SWAP2 POP POP JUMP JUMPDEST PUSH32 0x5661756C743A20496E73756666696369656E742062616C616E63650000000000 PUSH0 DUP3 ADD MSTORE POP JUMP JUMPDEST PUSH0 PUSH2 0x2CF3 PUSH1 0x1B DUP4 PUSH2 0x1E49 JUMP JUMPDEST SWAP2 POP PUSH2 0x2CFE DUP3 PUSH2 0x2CBF JUMP JUMPDEST PUSH1 0x20 DUP3 ADD SWAP1 POP SWAP2 SWAP1 POP JUMP JUMPDEST PUSH0 PUSH1 0x20 DUP3 ADD SWAP1 POP DUP2 DUP2 SUB PUSH0 DUP4 ADD MSTORE PUSH2 0x2D20 DUP2 PUSH2 0x2CE7 JUMP JUMPDEST SWAP1 POP SWAP2 SWAP1 POP JUMP JUMPDEST PUSH0 PUSH2 0x2D31 DUP3 PUSH2 0x2190 JUMP JUMPDEST SWAP2 POP PUSH2 0x2D3C DUP4 PUSH2 0x2190 JUMP JUMPDEST SWAP3 POP DUP3 DUP3 SUB SWAP1 POP DUP2 DUP2 GT ISZERO PUSH2 0x2D54 JUMPI PUSH2 0x2D53 PUSH2 0x2916 JUMP JUMPDEST JUMPDEST SWAP3 SWAP2 POP POP JUMP JUMPDEST PUSH32 0x5769746864726177000000000000000000000000000000000000000000000000 PUSH0 DUP3 ADD MSTORE POP JUMP JUMPDEST PUSH0 PUSH2 0x2D8E PUSH1 0x8 DUP4 PUSH2 0x1E49 JUMP JUMPDEST SWAP2 POP PUSH2 0x2D99 DUP3 PUSH2 0x2D5A JUMP JUMPDEST PUSH1 0x20 DUP3 ADD SWAP1 POP SWAP2 SWAP1 POP JUMP JUMPDEST PUSH0 PUSH1 0x40 DUP3 ADD SWAP1 POP DUP2 DUP2 SUB PUSH0 DUP4 ADD MSTORE PUSH2 0x2DBB DUP2 PUSH2 0x2D82 JUMP JUMPDEST SWAP1 POP DUP2 DUP2 SUB PUSH1 0x20 DUP4 ADD MSTORE PUSH2 0x2DCF DUP2 DUP5 PUSH2 0x2C19 JUMP JUMPDEST SWAP1 POP SWAP3 SWAP2 POP POP JUMP JUMPDEST PUSH32 0x5661756C743A204465706F736974206D757374206265203E2030000000000000 PUSH0 DUP3 ADD MSTORE POP JUMP JUMPDEST PUSH0 PUSH2 0x2E0B PUSH1 0x1A DUP4 PUSH2 0x1E49 JUMP JUMPDEST SWAP2 POP PUSH2 0x2E16 DUP3 PUSH2 0x2DD7 JUMP JUMPDEST PUSH1 0x20 DUP3 ADD SWAP1 POP SWAP2 SWAP1 POP JUMP JUMPDEST PUSH0 PUSH1 0x20 DUP3 ADD SWAP1 POP DUP2 DUP2 SUB PUSH0 DUP4 ADD MSTORE PUSH2 0x2E38 DUP2 PUSH2 0x2DFF JUMP JUMPDEST SWAP1 POP SWAP2 SWAP1 POP JUMP JUMPDEST PUSH32 0x4465706F73697400000000000000000000000000000000000000000000000000 PUSH0 DUP3 ADD MSTORE POP JUMP JUMPDEST PUSH0 PUSH2 0x2E73 PUSH1 0x7 DUP4 PUSH2 0x1E49 JUMP JUMPDEST SWAP2 POP PUSH2 0x2E7E DUP3 PUSH2 0x2E3F JUMP JUMPDEST PUSH1 0x20 DUP3 ADD SWAP1 POP SWAP2 SWAP1 POP JUMP JUMPDEST PUSH0 PUSH1 0x40 DUP3 ADD SWAP1 POP DUP2 DUP2 SUB PUSH0 DUP4 ADD MSTORE PUSH2 0x2EA0 DUP2 PUSH2 0x2E67 JUMP JUMPDEST SWAP1 POP DUP2 DUP2 SUB PUSH1 0x20 DUP4 ADD MSTORE PUSH2 0x2EB4 DUP2 DUP5 PUSH2 0x2C19 JUMP JUMPDEST SWAP1 POP SWAP3 SWAP2 POP POP JUMP INVALID LOG2 PUSH5 0x6970667358 0x22 SLT KECCAK256 PUSH32 0x5921F0084387CAFAA97EE281E1482E68B7AFE3216A173486AD36CF1965DC6C64 PUSH20 0x6F6C634300081F00330000000000000000000000 "
				},
				"gasEstimates": {
					"creation": {
						"codeDepositCost": "2403600",
						"executionCost": "infinite",
						"totalCost": "infinite"
					},
					"external": {
						"claimableBalances(address,address)": "infinite",
						"deposit(string,uint256)": "infinite",
						"events()": "infinite",
						"grantWithdrawalPermission(address,string,uint256,uint256)": "infinite",
						"isSupportedToken(address)": "2878",
						"listNewToken(string)": "infinite",
						"owner()": "2559",
						"providerName()": "infinite",
						"renounceOwnership()": "infinite",
						"resolveAsset(string)": "infinite",
						"transferOwnership(address)": "infinite",
						"variablesRegistry()": "infinite",
						"withdraw(string,uint256,address)": "infinite"
					}
				},
				"methodIdentifiers": {
					"claimableBalances(address,address)": "76c13cbd",
					"deposit(string,uint256)": "8e27d719",
					"events()": "b5f8558c",
					"grantWithdrawalPermission(address,string,uint256,uint256)": "6afbf5d6",
					"isSupportedToken(address)": "240028e8",
					"listNewToken(string)": "f139721c",
					"owner()": "8da5cb5b",
					"providerName()": "00dad7d4",
					"renounceOwnership()": "715018a6",
					"resolveAsset(string)": "05d09fb1",
					"transferOwnership(address)": "f2fde38b",
					"variablesRegistry()": "bf4d766e",
					"withdraw(string,uint256,address)": "7804e707"
				}
			},
			"storageLayout": {
				"storage": [
					{
						"astId": 8,
						"contract": "Evm/core/base/vault.sol:QiaraMultiAssetVault",
						"label": "_owner",
						"offset": 0,
						"slot": "0",
						"type": "t_address"
					},
					{
						"astId": 858,
						"contract": "Evm/core/base/vault.sol:QiaraMultiAssetVault",
						"label": "providerName",
						"offset": 0,
						"slot": "1",
						"type": "t_string_storage"
					},
					{
						"astId": 862,
						"contract": "Evm/core/base/vault.sol:QiaraMultiAssetVault",
						"label": "isSupportedToken",
						"offset": 0,
						"slot": "2",
						"type": "t_mapping(t_address,t_bool)"
					},
					{
						"astId": 868,
						"contract": "Evm/core/base/vault.sol:QiaraMultiAssetVault",
						"label": "claimableBalances",
						"offset": 0,
						"slot": "3",
						"type": "t_mapping(t_address,t_mapping(t_address,t_uint256))"
					}
				],
				"types": {
					"t_address": {
						"encoding": "inplace",
						"label": "address",
						"numberOfBytes": "20"
					},
					"t_bool": {
						"encoding": "inplace",
						"label": "bool",
						"numberOfBytes": "1"
					},
					"t_mapping(t_address,t_bool)": {
						"encoding": "mapping",
						"key": "t_address",
						"label": "mapping(address => bool)",
						"numberOfBytes": "32",
						"value": "t_bool"
					},
					"t_mapping(t_address,t_mapping(t_address,t_uint256))": {
						"encoding": "mapping",
						"key": "t_address",
						"label": "mapping(address => mapping(address => uint256))",
						"numberOfBytes": "32",
						"value": "t_mapping(t_address,t_uint256)"
					},
					"t_mapping(t_address,t_uint256)": {
						"encoding": "mapping",
						"key": "t_address",
						"label": "mapping(address => uint256)",
						"numberOfBytes": "32",
						"value": "t_uint256"
					},
					"t_string_storage": {
						"encoding": "bytes",
						"label": "string",
						"numberOfBytes": "32"
					},
					"t_uint256": {
						"encoding": "inplace",
						"label": "uint256",
						"numberOfBytes": "32"
					}
				}
			},
			"userdoc": {
				"kind": "user",
				"methods": {},
				"version": 1
			}
		}
	}
}