{
	"Evm/core/events.sol": {
		"QiaraEventsV1": {
			"abi": [
				{
					"anonymous": false,
					"inputs": [
						{
							"indexed": false,
							"internalType": "string",
							"name": "name",
							"type": "string"
						},
						{
							"components": [
								{
									"internalType": "string",
									"name": "name",
									"type": "string"
								},
								{
									"internalType": "string",
									"name": "typeName",
									"type": "string"
								},
								{
									"internalType": "bytes",
									"name": "value",
									"type": "bytes"
								}
							],
							"indexed": false,
							"internalType": "struct QiaraEventsV1.Data[]",
							"name": "aux",
							"type": "tuple[]"
						}
					],
					"name": "Vault",
					"type": "event"
				},
				{
					"inputs": [
						{
							"internalType": "string",
							"name": "_name",
							"type": "string"
						},
						{
							"internalType": "string",
							"name": "_typeName",
							"type": "string"
						},
						{
							"internalType": "bytes",
							"name": "_value",
							"type": "bytes"
						}
					],
					"name": "createDataStruct",
					"outputs": [
						{
							"components": [
								{
									"internalType": "string",
									"name": "name",
									"type": "string"
								},
								{
									"internalType": "string",
									"name": "typeName",
									"type": "string"
								},
								{
									"internalType": "bytes",
									"name": "value",
									"type": "bytes"
								}
							],
							"internalType": "struct QiaraEventsV1.Data",
							"name": "",
							"type": "tuple"
						}
					],
					"stateMutability": "pure",
					"type": "function"
				},
				{
					"inputs": [
						{
							"internalType": "string",
							"name": "_eventName",
							"type": "string"
						},
						{
							"components": [
								{
									"internalType": "string",
									"name": "name",
									"type": "string"
								},
								{
									"internalType": "string",
									"name": "typeName",
									"type": "string"
								},
								{
									"internalType": "bytes",
									"name": "value",
									"type": "bytes"
								}
							],
							"internalType": "struct QiaraEventsV1.Data[]",
							"name": "_userProvidedData",
							"type": "tuple[]"
						}
					],
					"name": "emitVaultEvent",
					"outputs": [],
					"stateMutability": "nonpayable",
					"type": "function"
				}
			],
			"devdoc": {
				"kind": "dev",
				"methods": {},
				"version": 1
			},
			"evm": {
				"assembly": "    /* \"Evm/core/events.sol\":61:1172  contract QiaraEventsV1 {... */\n  mstore(0x40, 0x80)\n  callvalue\n  dup1\n  iszero\n  tag_1\n  jumpi\n  revert(0x00, 0x00)\ntag_1:\n  pop\n  dataSize(sub_0)\n  dup1\n  dataOffset(sub_0)\n  0x00\n  codecopy\n  0x00\n  return\nstop\n\nsub_0: assembly {\n        /* \"Evm/core/events.sol\":61:1172  contract QiaraEventsV1 {... */\n      mstore(0x40, 0x80)\n      callvalue\n      dup1\n      iszero\n      tag_1\n      jumpi\n      revert(0x00, 0x00)\n    tag_1:\n      pop\n      jumpi(tag_2, lt(calldatasize, 0x04))\n      shr(0xe0, calldataload(0x00))\n      dup1\n      0x5c02f57f\n      eq\n      tag_3\n      jumpi\n      dup1\n      0x7d64fa9b\n      eq\n      tag_4\n      jumpi\n    tag_2:\n      revert(0x00, 0x00)\n        /* \"Evm/core/events.sol\":273:479  function createDataStruct(string memory _name, string memory _typeName, bytes memory _value) public pure returns (Data memory) {... */\n    tag_3:\n      tag_5\n      0x04\n      dup1\n      calldatasize\n      sub\n      dup2\n      add\n      swap1\n      tag_6\n      swap2\n      swap1\n      tag_7\n      jump\t// in\n    tag_6:\n      tag_8\n      jump\t// in\n    tag_5:\n      mload(0x40)\n      tag_9\n      swap2\n      swap1\n      tag_10\n      jump\t// in\n    tag_9:\n      mload(0x40)\n      dup1\n      swap2\n      sub\n      swap1\n      return\n        /* \"Evm/core/events.sol\":486:1167  function emitVaultEvent(string memory _eventName, Data[] memory _userProvidedData) public {... */\n    tag_4:\n      tag_11\n      0x04\n      dup1\n      calldatasize\n      sub\n      dup2\n      add\n      swap1\n      tag_12\n      swap2\n      swap1\n      tag_13\n      jump\t// in\n    tag_12:\n      tag_14\n      jump\t// in\n    tag_11:\n      stop\n        /* \"Evm/core/events.sol\":273:479  function createDataStruct(string memory _name, string memory _typeName, bytes memory _value) public pure returns (Data memory) {... */\n    tag_8:\n        /* \"Evm/core/events.sol\":387:398  Data memory */\n      tag_15\n      tag_16\n      jump\t// in\n    tag_15:\n        /* \"Evm/core/events.sol\":418:471  Data({name: _name,typeName: _typeName,value: _value}) */\n      mload(0x40)\n      dup1\n      0x60\n      add\n      0x40\n      mstore\n      dup1\n        /* \"Evm/core/events.sol\":430:435  _name */\n      dup6\n        /* \"Evm/core/events.sol\":418:471  Data({name: _name,typeName: _typeName,value: _value}) */\n      dup2\n      mstore\n      0x20\n      add\n        /* \"Evm/core/events.sol\":446:455  _typeName */\n      dup5\n        /* \"Evm/core/events.sol\":418:471  Data({name: _name,typeName: _typeName,value: _value}) */\n      dup2\n      mstore\n      0x20\n      add\n        /* \"Evm/core/events.sol\":463:469  _value */\n      dup4\n        /* \"Evm/core/events.sol\":418:471  Data({name: _name,typeName: _typeName,value: _value}) */\n      dup2\n      mstore\n      pop\n        /* \"Evm/core/events.sol\":411:471  return Data({name: _name,typeName: _typeName,value: _value}) */\n      swap1\n      pop\n        /* \"Evm/core/events.sol\":273:479  function createDataStruct(string memory _name, string memory _typeName, bytes memory _value) public pure returns (Data memory) {... */\n      swap4\n      swap3\n      pop\n      pop\n      pop\n      jump\t// out\n        /* \"Evm/core/events.sol\":486:1167  function emitVaultEvent(string memory _eventName, Data[] memory _userProvidedData) public {... */\n    tag_14:\n        /* \"Evm/core/events.sol\":665:691  Data[] memory extendedData */\n      0x00\n        /* \"Evm/core/events.sol\":732:733  1 */\n      0x01\n        /* \"Evm/core/events.sol\":705:722  _userProvidedData */\n      dup3\n        /* \"Evm/core/events.sol\":705:729  _userProvidedData.length */\n      mload\n        /* \"Evm/core/events.sol\":705:733  _userProvidedData.length + 1 */\n      tag_19\n      swap2\n      swap1\n      tag_20\n      jump\t// in\n    tag_19:\n        /* \"Evm/core/events.sol\":694:734  new Data[](_userProvidedData.length + 1) */\n      0xffffffffffffffff\n      dup2\n      gt\n      iszero\n      tag_21\n      jumpi\n      tag_22\n      tag_23\n      jump\t// in\n    tag_22:\n    tag_21:\n      mload(0x40)\n      swap1\n      dup1\n      dup3\n      mstore\n      dup1\n      0x20\n      mul\n      0x20\n      add\n      dup3\n      add\n      0x40\n      mstore\n      dup1\n      iszero\n      tag_24\n      jumpi\n      dup2\n      0x20\n      add\n    tag_25:\n      tag_26\n      tag_16\n      jump\t// in\n    tag_26:\n      dup2\n      mstore\n      0x20\n      add\n      swap1\n      0x01\n      swap1\n      sub\n      swap1\n      dup2\n      tag_25\n      jumpi\n      swap1\n      pop\n    tag_24:\n      pop\n        /* \"Evm/core/events.sol\":665:734  Data[] memory extendedData = new Data[](_userProvidedData.length + 1) */\n      swap1\n      pop\n        /* \"Evm/core/events.sol\":807:864  Data(\"timestamp\", \"uint256\", abi.encode(block.timestamp)) */\n      mload(0x40)\n      dup1\n      0x60\n      add\n      0x40\n      mstore\n      dup1\n      mload(0x40)\n      dup1\n      0x40\n      add\n      0x40\n      mstore\n      dup1\n      0x09\n      dup2\n      mstore\n      0x20\n      add\n      0x74696d657374616d700000000000000000000000000000000000000000000000\n      dup2\n      mstore\n      pop\n      dup2\n      mstore\n      0x20\n      add\n      mload(0x40)\n      dup1\n      0x40\n      add\n      0x40\n      mstore\n      dup1\n      0x07\n      dup2\n      mstore\n      0x20\n      add\n      0x75696e7432353600000000000000000000000000000000000000000000000000\n      dup2\n      mstore\n      pop\n      dup2\n      mstore\n      0x20\n      add\n        /* \"Evm/core/events.sol\":847:862  block.timestamp */\n      timestamp\n        /* \"Evm/core/events.sol\":836:863  abi.encode(block.timestamp) */\n      add(0x20, mload(0x40))\n      tag_27\n      swap2\n      swap1\n      tag_28\n      jump\t// in\n    tag_27:\n      mload(0x40)\n      0x20\n      dup2\n      dup4\n      sub\n      sub\n      dup2\n      mstore\n      swap1\n      0x40\n      mstore\n        /* \"Evm/core/events.sol\":807:864  Data(\"timestamp\", \"uint256\", abi.encode(block.timestamp)) */\n      dup2\n      mstore\n      pop\n        /* \"Evm/core/events.sol\":789:801  extendedData */\n      dup2\n        /* \"Evm/core/events.sol\":802:803  0 */\n      0x00\n        /* \"Evm/core/events.sol\":789:804  extendedData[0] */\n      dup2\n      mload\n      dup2\n      lt\n      tag_29\n      jumpi\n      tag_30\n      tag_31\n      jump\t// in\n    tag_30:\n    tag_29:\n      0x20\n      mul\n      0x20\n      add\n      add\n        /* \"Evm/core/events.sol\":789:864  extendedData[0] = Data(\"timestamp\", \"uint256\", abi.encode(block.timestamp)) */\n      dup2\n      swap1\n      mstore\n      pop\n        /* \"Evm/core/events.sol\":950:956  uint i */\n      0x00\n        /* \"Evm/core/events.sol\":959:960  0 */\n      0x00\n        /* \"Evm/core/events.sol\":950:960  uint i = 0 */\n      swap1\n      pop\n        /* \"Evm/core/events.sol\":945:1066  for (uint i = 0; i < _userProvidedData.length; i++) {... */\n    tag_32:\n        /* \"Evm/core/events.sol\":966:983  _userProvidedData */\n      dup3\n        /* \"Evm/core/events.sol\":966:990  _userProvidedData.length */\n      mload\n        /* \"Evm/core/events.sol\":962:963  i */\n      dup2\n        /* \"Evm/core/events.sol\":962:990  i < _userProvidedData.length */\n      lt\n        /* \"Evm/core/events.sol\":945:1066  for (uint i = 0; i < _userProvidedData.length; i++) {... */\n      iszero\n      tag_33\n      jumpi\n        /* \"Evm/core/events.sol\":1034:1051  _userProvidedData */\n      dup3\n        /* \"Evm/core/events.sol\":1052:1053  i */\n      dup2\n        /* \"Evm/core/events.sol\":1034:1054  _userProvidedData[i] */\n      dup2\n      mload\n      dup2\n      lt\n      tag_35\n      jumpi\n      tag_36\n      tag_31\n      jump\t// in\n    tag_36:\n    tag_35:\n      0x20\n      mul\n      0x20\n      add\n      add\n      mload\n        /* \"Evm/core/events.sol\":1012:1024  extendedData */\n      dup3\n        /* \"Evm/core/events.sol\":1029:1030  1 */\n      0x01\n        /* \"Evm/core/events.sol\":1025:1026  i */\n      dup4\n        /* \"Evm/core/events.sol\":1025:1030  i + 1 */\n      tag_37\n      swap2\n      swap1\n      tag_20\n      jump\t// in\n    tag_37:\n        /* \"Evm/core/events.sol\":1012:1031  extendedData[i + 1] */\n      dup2\n      mload\n      dup2\n      lt\n      tag_38\n      jumpi\n      tag_39\n      tag_31\n      jump\t// in\n    tag_39:\n    tag_38:\n      0x20\n      mul\n      0x20\n      add\n      add\n        /* \"Evm/core/events.sol\":1012:1054  extendedData[i + 1] = _userProvidedData[i] */\n      dup2\n      swap1\n      mstore\n      pop\n        /* \"Evm/core/events.sol\":992:995  i++ */\n      dup1\n      dup1\n      0x01\n      add\n      swap2\n      pop\n      pop\n        /* \"Evm/core/events.sol\":945:1066  for (uint i = 0; i < _userProvidedData.length; i++) {... */\n      jump(tag_32)\n    tag_33:\n      pop\n        /* \"Evm/core/events.sol\":1128:1159  Vault(_eventName, extendedData) */\n      0xa0e90d936d8818c9c393f2f3945a1cd8ad1f0e87cc5f74a02e922648efff2890\n        /* \"Evm/core/events.sol\":1134:1144  _eventName */\n      dup4\n        /* \"Evm/core/events.sol\":1146:1158  extendedData */\n      dup3\n        /* \"Evm/core/events.sol\":1128:1159  Vault(_eventName, extendedData) */\n      mload(0x40)\n      tag_40\n      swap3\n      swap2\n      swap1\n      tag_41\n      jump\t// in\n    tag_40:\n      mload(0x40)\n      dup1\n      swap2\n      sub\n      swap1\n      log1\n        /* \"Evm/core/events.sol\":576:1167  {... */\n      pop\n        /* \"Evm/core/events.sol\":486:1167  function emitVaultEvent(string memory _eventName, Data[] memory _userProvidedData) public {... */\n      pop\n      pop\n      jump\t// out\n    tag_16:\n      mload(0x40)\n      dup1\n      0x60\n      add\n      0x40\n      mstore\n      dup1\n      0x60\n      dup2\n      mstore\n      0x20\n      add\n      0x60\n      dup2\n      mstore\n      0x20\n      add\n      0x60\n      dup2\n      mstore\n      pop\n      swap1\n      jump\t// out\n        /* \"#utility.yul\":7:82   */\n    tag_42:\n        /* \"#utility.yul\":40:46   */\n      0x00\n        /* \"#utility.yul\":73:75   */\n      0x40\n        /* \"#utility.yul\":67:76   */\n      mload\n        /* \"#utility.yul\":57:76   */\n      swap1\n      pop\n        /* \"#utility.yul\":7:82   */\n      swap1\n      jump\t// out\n        /* \"#utility.yul\":88:205   */\n    tag_43:\n        /* \"#utility.yul\":197:198   */\n      0x00\n        /* \"#utility.yul\":194:195   */\n      0x00\n        /* \"#utility.yul\":187:199   */\n      revert\n        /* \"#utility.yul\":211:328   */\n    tag_44:\n        /* \"#utility.yul\":320:321   */\n      0x00\n        /* \"#utility.yul\":317:318   */\n      0x00\n        /* \"#utility.yul\":310:322   */\n      revert\n        /* \"#utility.yul\":334:451   */\n    tag_45:\n        /* \"#utility.yul\":443:444   */\n      0x00\n        /* \"#utility.yul\":440:441   */\n      0x00\n        /* \"#utility.yul\":433:445   */\n      revert\n        /* \"#utility.yul\":457:574   */\n    tag_46:\n        /* \"#utility.yul\":566:567   */\n      0x00\n        /* \"#utility.yul\":563:564   */\n      0x00\n        /* \"#utility.yul\":556:568   */\n      revert\n        /* \"#utility.yul\":580:682   */\n    tag_47:\n        /* \"#utility.yul\":621:627   */\n      0x00\n        /* \"#utility.yul\":672:674   */\n      0x1f\n        /* \"#utility.yul\":668:675   */\n      not\n        /* \"#utility.yul\":663:665   */\n      0x1f\n        /* \"#utility.yul\":656:661   */\n      dup4\n        /* \"#utility.yul\":652:666   */\n      add\n        /* \"#utility.yul\":648:676   */\n      and\n        /* \"#utility.yul\":638:676   */\n      swap1\n      pop\n        /* \"#utility.yul\":580:682   */\n      swap2\n      swap1\n      pop\n      jump\t// out\n        /* \"#utility.yul\":688:868   */\n    tag_23:\n        /* \"#utility.yul\":736:813   */\n      0x4e487b7100000000000000000000000000000000000000000000000000000000\n        /* \"#utility.yul\":733:734   */\n      0x00\n        /* \"#utility.yul\":726:814   */\n      mstore\n        /* \"#utility.yul\":833:837   */\n      0x41\n        /* \"#utility.yul\":830:831   */\n      0x04\n        /* \"#utility.yul\":823:838   */\n      mstore\n        /* \"#utility.yul\":857:861   */\n      0x24\n        /* \"#utility.yul\":854:855   */\n      0x00\n        /* \"#utility.yul\":847:862   */\n      revert\n        /* \"#utility.yul\":874:1155   */\n    tag_48:\n        /* \"#utility.yul\":957:984   */\n      tag_93\n        /* \"#utility.yul\":979:983   */\n      dup3\n        /* \"#utility.yul\":957:984   */\n      tag_47\n      jump\t// in\n    tag_93:\n        /* \"#utility.yul\":949:955   */\n      dup2\n        /* \"#utility.yul\":945:985   */\n      add\n        /* \"#utility.yul\":1087:1093   */\n      dup2\n        /* \"#utility.yul\":1075:1085   */\n      dup2\n        /* \"#utility.yul\":1072:1094   */\n      lt\n        /* \"#utility.yul\":1051:1069   */\n      0xffffffffffffffff\n        /* \"#utility.yul\":1039:1049   */\n      dup3\n        /* \"#utility.yul\":1036:1070   */\n      gt\n        /* \"#utility.yul\":1033:1095   */\n      or\n        /* \"#utility.yul\":1030:1118   */\n      iszero\n      tag_94\n      jumpi\n        /* \"#utility.yul\":1098:1116   */\n      tag_95\n      tag_23\n      jump\t// in\n    tag_95:\n        /* \"#utility.yul\":1030:1118   */\n    tag_94:\n        /* \"#utility.yul\":1138:1148   */\n      dup1\n        /* \"#utility.yul\":1134:1136   */\n      0x40\n        /* \"#utility.yul\":1127:1149   */\n      mstore\n        /* \"#utility.yul\":917:1155   */\n      pop\n        /* \"#utility.yul\":874:1155   */\n      pop\n      pop\n      jump\t// out\n        /* \"#utility.yul\":1161:1290   */\n    tag_49:\n        /* \"#utility.yul\":1195:1201   */\n      0x00\n        /* \"#utility.yul\":1222:1242   */\n      tag_97\n      tag_42\n      jump\t// in\n    tag_97:\n        /* \"#utility.yul\":1212:1242   */\n      swap1\n      pop\n        /* \"#utility.yul\":1251:1284   */\n      tag_98\n        /* \"#utility.yul\":1279:1283   */\n      dup3\n        /* \"#utility.yul\":1271:1277   */\n      dup3\n        /* \"#utility.yul\":1251:1284   */\n      tag_48\n      jump\t// in\n    tag_98:\n        /* \"#utility.yul\":1161:1290   */\n      swap2\n      swap1\n      pop\n      jump\t// out\n        /* \"#utility.yul\":1296:1604   */\n    tag_50:\n        /* \"#utility.yul\":1358:1362   */\n      0x00\n        /* \"#utility.yul\":1448:1466   */\n      0xffffffffffffffff\n        /* \"#utility.yul\":1440:1446   */\n      dup3\n        /* \"#utility.yul\":1437:1467   */\n      gt\n        /* \"#utility.yul\":1434:1490   */\n      iszero\n      tag_100\n      jumpi\n        /* \"#utility.yul\":1470:1488   */\n      tag_101\n      tag_23\n      jump\t// in\n    tag_101:\n        /* \"#utility.yul\":1434:1490   */\n    tag_100:\n        /* \"#utility.yul\":1508:1537   */\n      tag_102\n        /* \"#utility.yul\":1530:1536   */\n      dup3\n        /* \"#utility.yul\":1508:1537   */\n      tag_47\n      jump\t// in\n    tag_102:\n        /* \"#utility.yul\":1500:1537   */\n      swap1\n      pop\n        /* \"#utility.yul\":1592:1596   */\n      0x20\n        /* \"#utility.yul\":1586:1590   */\n      dup2\n        /* \"#utility.yul\":1582:1597   */\n      add\n        /* \"#utility.yul\":1574:1597   */\n      swap1\n      pop\n        /* \"#utility.yul\":1296:1604   */\n      swap2\n      swap1\n      pop\n      jump\t// out\n        /* \"#utility.yul\":1610:1758   */\n    tag_51:\n        /* \"#utility.yul\":1708:1714   */\n      dup3\n        /* \"#utility.yul\":1703:1706   */\n      dup2\n        /* \"#utility.yul\":1698:1701   */\n      dup4\n        /* \"#utility.yul\":1685:1715   */\n      calldatacopy\n        /* \"#utility.yul\":1749:1750   */\n      0x00\n        /* \"#utility.yul\":1740:1746   */\n      dup4\n        /* \"#utility.yul\":1735:1738   */\n      dup4\n        /* \"#utility.yul\":1731:1747   */\n      add\n        /* \"#utility.yul\":1724:1751   */\n      mstore\n        /* \"#utility.yul\":1610:1758   */\n      pop\n      pop\n      pop\n      jump\t// out\n        /* \"#utility.yul\":1764:2189   */\n    tag_52:\n        /* \"#utility.yul\":1842:1847   */\n      0x00\n        /* \"#utility.yul\":1867:1933   */\n      tag_105\n        /* \"#utility.yul\":1883:1932   */\n      tag_106\n        /* \"#utility.yul\":1925:1931   */\n      dup5\n        /* \"#utility.yul\":1883:1932   */\n      tag_50\n      jump\t// in\n    tag_106:\n        /* \"#utility.yul\":1867:1933   */\n      tag_49\n      jump\t// in\n    tag_105:\n        /* \"#utility.yul\":1858:1933   */\n      swap1\n      pop\n        /* \"#utility.yul\":1956:1962   */\n      dup3\n        /* \"#utility.yul\":1949:1954   */\n      dup2\n        /* \"#utility.yul\":1942:1963   */\n      mstore\n        /* \"#utility.yul\":1994:1998   */\n      0x20\n        /* \"#utility.yul\":1987:1992   */\n      dup2\n        /* \"#utility.yul\":1983:1999   */\n      add\n        /* \"#utility.yul\":2032:2035   */\n      dup5\n        /* \"#utility.yul\":2023:2029   */\n      dup5\n        /* \"#utility.yul\":2018:2021   */\n      dup5\n        /* \"#utility.yul\":2014:2030   */\n      add\n        /* \"#utility.yul\":2011:2036   */\n      gt\n        /* \"#utility.yul\":2008:2120   */\n      iszero\n      tag_107\n      jumpi\n        /* \"#utility.yul\":2039:2118   */\n      tag_108\n      tag_46\n      jump\t// in\n    tag_108:\n        /* \"#utility.yul\":2008:2120   */\n    tag_107:\n        /* \"#utility.yul\":2129:2183   */\n      tag_109\n        /* \"#utility.yul\":2176:2182   */\n      dup5\n        /* \"#utility.yul\":2171:2174   */\n      dup3\n        /* \"#utility.yul\":2166:2169   */\n      dup6\n        /* \"#utility.yul\":2129:2183   */\n      tag_51\n      jump\t// in\n    tag_109:\n        /* \"#utility.yul\":1848:2189   */\n      pop\n        /* \"#utility.yul\":1764:2189   */\n      swap4\n      swap3\n      pop\n      pop\n      pop\n      jump\t// out\n        /* \"#utility.yul\":2209:2549   */\n    tag_53:\n        /* \"#utility.yul\":2265:2270   */\n      0x00\n        /* \"#utility.yul\":2314:2317   */\n      dup3\n        /* \"#utility.yul\":2307:2311   */\n      0x1f\n        /* \"#utility.yul\":2299:2305   */\n      dup4\n        /* \"#utility.yul\":2295:2312   */\n      add\n        /* \"#utility.yul\":2291:2318   */\n      slt\n        /* \"#utility.yul\":2281:2403   */\n      tag_111\n      jumpi\n        /* \"#utility.yul\":2322:2401   */\n      tag_112\n      tag_45\n      jump\t// in\n    tag_112:\n        /* \"#utility.yul\":2281:2403   */\n    tag_111:\n        /* \"#utility.yul\":2439:2445   */\n      dup2\n        /* \"#utility.yul\":2426:2446   */\n      calldataload\n        /* \"#utility.yul\":2464:2543   */\n      tag_113\n        /* \"#utility.yul\":2539:2542   */\n      dup5\n        /* \"#utility.yul\":2531:2537   */\n      dup3\n        /* \"#utility.yul\":2524:2528   */\n      0x20\n        /* \"#utility.yul\":2516:2522   */\n      dup7\n        /* \"#utility.yul\":2512:2529   */\n      add\n        /* \"#utility.yul\":2464:2543   */\n      tag_52\n      jump\t// in\n    tag_113:\n        /* \"#utility.yul\":2455:2543   */\n      swap2\n      pop\n        /* \"#utility.yul\":2271:2549   */\n      pop\n        /* \"#utility.yul\":2209:2549   */\n      swap3\n      swap2\n      pop\n      pop\n      jump\t// out\n        /* \"#utility.yul\":2555:2862   */\n    tag_54:\n        /* \"#utility.yul\":2616:2620   */\n      0x00\n        /* \"#utility.yul\":2706:2724   */\n      0xffffffffffffffff\n        /* \"#utility.yul\":2698:2704   */\n      dup3\n        /* \"#utility.yul\":2695:2725   */\n      gt\n        /* \"#utility.yul\":2692:2748   */\n      iszero\n      tag_115\n      jumpi\n        /* \"#utility.yul\":2728:2746   */\n      tag_116\n      tag_23\n      jump\t// in\n    tag_116:\n        /* \"#utility.yul\":2692:2748   */\n    tag_115:\n        /* \"#utility.yul\":2766:2795   */\n      tag_117\n        /* \"#utility.yul\":2788:2794   */\n      dup3\n        /* \"#utility.yul\":2766:2795   */\n      tag_47\n      jump\t// in\n    tag_117:\n        /* \"#utility.yul\":2758:2795   */\n      swap1\n      pop\n        /* \"#utility.yul\":2850:2854   */\n      0x20\n        /* \"#utility.yul\":2844:2848   */\n      dup2\n        /* \"#utility.yul\":2840:2855   */\n      add\n        /* \"#utility.yul\":2832:2855   */\n      swap1\n      pop\n        /* \"#utility.yul\":2555:2862   */\n      swap2\n      swap1\n      pop\n      jump\t// out\n        /* \"#utility.yul\":2868:3291   */\n    tag_55:\n        /* \"#utility.yul\":2945:2950   */\n      0x00\n        /* \"#utility.yul\":2970:3035   */\n      tag_119\n        /* \"#utility.yul\":2986:3034   */\n      tag_120\n        /* \"#utility.yul\":3027:3033   */\n      dup5\n        /* \"#utility.yul\":2986:3034   */\n      tag_54\n      jump\t// in\n    tag_120:\n        /* \"#utility.yul\":2970:3035   */\n      tag_49\n      jump\t// in\n    tag_119:\n        /* \"#utility.yul\":2961:3035   */\n      swap1\n      pop\n        /* \"#utility.yul\":3058:3064   */\n      dup3\n        /* \"#utility.yul\":3051:3056   */\n      dup2\n        /* \"#utility.yul\":3044:3065   */\n      mstore\n        /* \"#utility.yul\":3096:3100   */\n      0x20\n        /* \"#utility.yul\":3089:3094   */\n      dup2\n        /* \"#utility.yul\":3085:3101   */\n      add\n        /* \"#utility.yul\":3134:3137   */\n      dup5\n        /* \"#utility.yul\":3125:3131   */\n      dup5\n        /* \"#utility.yul\":3120:3123   */\n      dup5\n        /* \"#utility.yul\":3116:3132   */\n      add\n        /* \"#utility.yul\":3113:3138   */\n      gt\n        /* \"#utility.yul\":3110:3222   */\n      iszero\n      tag_121\n      jumpi\n        /* \"#utility.yul\":3141:3220   */\n      tag_122\n      tag_46\n      jump\t// in\n    tag_122:\n        /* \"#utility.yul\":3110:3222   */\n    tag_121:\n        /* \"#utility.yul\":3231:3285   */\n      tag_123\n        /* \"#utility.yul\":3278:3284   */\n      dup5\n        /* \"#utility.yul\":3273:3276   */\n      dup3\n        /* \"#utility.yul\":3268:3271   */\n      dup6\n        /* \"#utility.yul\":3231:3285   */\n      tag_51\n      jump\t// in\n    tag_123:\n        /* \"#utility.yul\":2951:3291   */\n      pop\n        /* \"#utility.yul\":2868:3291   */\n      swap4\n      swap3\n      pop\n      pop\n      pop\n      jump\t// out\n        /* \"#utility.yul\":3310:3648   */\n    tag_56:\n        /* \"#utility.yul\":3365:3370   */\n      0x00\n        /* \"#utility.yul\":3414:3417   */\n      dup3\n        /* \"#utility.yul\":3407:3411   */\n      0x1f\n        /* \"#utility.yul\":3399:3405   */\n      dup4\n        /* \"#utility.yul\":3395:3412   */\n      add\n        /* \"#utility.yul\":3391:3418   */\n      slt\n        /* \"#utility.yul\":3381:3503   */\n      tag_125\n      jumpi\n        /* \"#utility.yul\":3422:3501   */\n      tag_126\n      tag_45\n      jump\t// in\n    tag_126:\n        /* \"#utility.yul\":3381:3503   */\n    tag_125:\n        /* \"#utility.yul\":3539:3545   */\n      dup2\n        /* \"#utility.yul\":3526:3546   */\n      calldataload\n        /* \"#utility.yul\":3564:3642   */\n      tag_127\n        /* \"#utility.yul\":3638:3641   */\n      dup5\n        /* \"#utility.yul\":3630:3636   */\n      dup3\n        /* \"#utility.yul\":3623:3627   */\n      0x20\n        /* \"#utility.yul\":3615:3621   */\n      dup7\n        /* \"#utility.yul\":3611:3628   */\n      add\n        /* \"#utility.yul\":3564:3642   */\n      tag_55\n      jump\t// in\n    tag_127:\n        /* \"#utility.yul\":3555:3642   */\n      swap2\n      pop\n        /* \"#utility.yul\":3371:3648   */\n      pop\n        /* \"#utility.yul\":3310:3648   */\n      swap3\n      swap2\n      pop\n      pop\n      jump\t// out\n        /* \"#utility.yul\":3654:4811   */\n    tag_7:\n        /* \"#utility.yul\":3760:3766   */\n      0x00\n        /* \"#utility.yul\":3768:3774   */\n      0x00\n        /* \"#utility.yul\":3776:3782   */\n      0x00\n        /* \"#utility.yul\":3825:3827   */\n      0x60\n        /* \"#utility.yul\":3813:3822   */\n      dup5\n        /* \"#utility.yul\":3804:3811   */\n      dup7\n        /* \"#utility.yul\":3800:3823   */\n      sub\n        /* \"#utility.yul\":3796:3828   */\n      slt\n        /* \"#utility.yul\":3793:3912   */\n      iszero\n      tag_129\n      jumpi\n        /* \"#utility.yul\":3831:3910   */\n      tag_130\n      tag_43\n      jump\t// in\n    tag_130:\n        /* \"#utility.yul\":3793:3912   */\n    tag_129:\n        /* \"#utility.yul\":3979:3980   */\n      0x00\n        /* \"#utility.yul\":3968:3977   */\n      dup5\n        /* \"#utility.yul\":3964:3981   */\n      add\n        /* \"#utility.yul\":3951:3982   */\n      calldataload\n        /* \"#utility.yul\":4009:4027   */\n      0xffffffffffffffff\n        /* \"#utility.yul\":4001:4007   */\n      dup2\n        /* \"#utility.yul\":3998:4028   */\n      gt\n        /* \"#utility.yul\":3995:4112   */\n      iszero\n      tag_131\n      jumpi\n        /* \"#utility.yul\":4031:4110   */\n      tag_132\n      tag_44\n      jump\t// in\n    tag_132:\n        /* \"#utility.yul\":3995:4112   */\n    tag_131:\n        /* \"#utility.yul\":4136:4199   */\n      tag_133\n        /* \"#utility.yul\":4191:4198   */\n      dup7\n        /* \"#utility.yul\":4182:4188   */\n      dup3\n        /* \"#utility.yul\":4171:4180   */\n      dup8\n        /* \"#utility.yul\":4167:4189   */\n      add\n        /* \"#utility.yul\":4136:4199   */\n      tag_53\n      jump\t// in\n    tag_133:\n        /* \"#utility.yul\":4126:4199   */\n      swap4\n      pop\n        /* \"#utility.yul\":3922:4209   */\n      pop\n        /* \"#utility.yul\":4276:4278   */\n      0x20\n        /* \"#utility.yul\":4265:4274   */\n      dup5\n        /* \"#utility.yul\":4261:4279   */\n      add\n        /* \"#utility.yul\":4248:4280   */\n      calldataload\n        /* \"#utility.yul\":4307:4325   */\n      0xffffffffffffffff\n        /* \"#utility.yul\":4299:4305   */\n      dup2\n        /* \"#utility.yul\":4296:4326   */\n      gt\n        /* \"#utility.yul\":4293:4410   */\n      iszero\n      tag_134\n      jumpi\n        /* \"#utility.yul\":4329:4408   */\n      tag_135\n      tag_44\n      jump\t// in\n    tag_135:\n        /* \"#utility.yul\":4293:4410   */\n    tag_134:\n        /* \"#utility.yul\":4434:4497   */\n      tag_136\n        /* \"#utility.yul\":4489:4496   */\n      dup7\n        /* \"#utility.yul\":4480:4486   */\n      dup3\n        /* \"#utility.yul\":4469:4478   */\n      dup8\n        /* \"#utility.yul\":4465:4487   */\n      add\n        /* \"#utility.yul\":4434:4497   */\n      tag_53\n      jump\t// in\n    tag_136:\n        /* \"#utility.yul\":4424:4497   */\n      swap3\n      pop\n        /* \"#utility.yul\":4219:4507   */\n      pop\n        /* \"#utility.yul\":4574:4576   */\n      0x40\n        /* \"#utility.yul\":4563:4572   */\n      dup5\n        /* \"#utility.yul\":4559:4577   */\n      add\n        /* \"#utility.yul\":4546:4578   */\n      calldataload\n        /* \"#utility.yul\":4605:4623   */\n      0xffffffffffffffff\n        /* \"#utility.yul\":4597:4603   */\n      dup2\n        /* \"#utility.yul\":4594:4624   */\n      gt\n        /* \"#utility.yul\":4591:4708   */\n      iszero\n      tag_137\n      jumpi\n        /* \"#utility.yul\":4627:4706   */\n      tag_138\n      tag_44\n      jump\t// in\n    tag_138:\n        /* \"#utility.yul\":4591:4708   */\n    tag_137:\n        /* \"#utility.yul\":4732:4794   */\n      tag_139\n        /* \"#utility.yul\":4786:4793   */\n      dup7\n        /* \"#utility.yul\":4777:4783   */\n      dup3\n        /* \"#utility.yul\":4766:4775   */\n      dup8\n        /* \"#utility.yul\":4762:4784   */\n      add\n        /* \"#utility.yul\":4732:4794   */\n      tag_56\n      jump\t// in\n    tag_139:\n        /* \"#utility.yul\":4722:4794   */\n      swap2\n      pop\n        /* \"#utility.yul\":4517:4804   */\n      pop\n        /* \"#utility.yul\":3654:4811   */\n      swap3\n      pop\n      swap3\n      pop\n      swap3\n      jump\t// out\n        /* \"#utility.yul\":4817:4916   */\n    tag_57:\n        /* \"#utility.yul\":4869:4875   */\n      0x00\n        /* \"#utility.yul\":4903:4908   */\n      dup2\n        /* \"#utility.yul\":4897:4909   */\n      mload\n        /* \"#utility.yul\":4887:4909   */\n      swap1\n      pop\n        /* \"#utility.yul\":4817:4916   */\n      swap2\n      swap1\n      pop\n      jump\t// out\n        /* \"#utility.yul\":4922:5081   */\n    tag_58:\n        /* \"#utility.yul\":4996:5007   */\n      0x00\n        /* \"#utility.yul\":5030:5036   */\n      dup3\n        /* \"#utility.yul\":5025:5028   */\n      dup3\n        /* \"#utility.yul\":5018:5037   */\n      mstore\n        /* \"#utility.yul\":5070:5074   */\n      0x20\n        /* \"#utility.yul\":5065:5068   */\n      dup3\n        /* \"#utility.yul\":5061:5075   */\n      add\n        /* \"#utility.yul\":5046:5075   */\n      swap1\n      pop\n        /* \"#utility.yul\":4922:5081   */\n      swap3\n      swap2\n      pop\n      pop\n      jump\t// out\n        /* \"#utility.yul\":5087:5226   */\n    tag_59:\n        /* \"#utility.yul\":5176:5182   */\n      dup3\n        /* \"#utility.yul\":5171:5174   */\n      dup2\n        /* \"#utility.yul\":5166:5169   */\n      dup4\n        /* \"#utility.yul\":5160:5183   */\n      mcopy\n        /* \"#utility.yul\":5217:5218   */\n      0x00\n        /* \"#utility.yul\":5208:5214   */\n      dup4\n        /* \"#utility.yul\":5203:5206   */\n      dup4\n        /* \"#utility.yul\":5199:5215   */\n      add\n        /* \"#utility.yul\":5192:5219   */\n      mstore\n        /* \"#utility.yul\":5087:5226   */\n      pop\n      pop\n      pop\n      jump\t// out\n        /* \"#utility.yul\":5232:5589   */\n    tag_60:\n        /* \"#utility.yul\":5310:5313   */\n      0x00\n        /* \"#utility.yul\":5338:5377   */\n      tag_144\n        /* \"#utility.yul\":5371:5376   */\n      dup3\n        /* \"#utility.yul\":5338:5377   */\n      tag_57\n      jump\t// in\n    tag_144:\n        /* \"#utility.yul\":5393:5454   */\n      tag_145\n        /* \"#utility.yul\":5447:5453   */\n      dup2\n        /* \"#utility.yul\":5442:5445   */\n      dup6\n        /* \"#utility.yul\":5393:5454   */\n      tag_58\n      jump\t// in\n    tag_145:\n        /* \"#utility.yul\":5386:5454   */\n      swap4\n      pop\n        /* \"#utility.yul\":5463:5528   */\n      tag_146\n        /* \"#utility.yul\":5521:5527   */\n      dup2\n        /* \"#utility.yul\":5516:5519   */\n      dup6\n        /* \"#utility.yul\":5509:5513   */\n      0x20\n        /* \"#utility.yul\":5502:5507   */\n      dup7\n        /* \"#utility.yul\":5498:5514   */\n      add\n        /* \"#utility.yul\":5463:5528   */\n      tag_59\n      jump\t// in\n    tag_146:\n        /* \"#utility.yul\":5553:5582   */\n      tag_147\n        /* \"#utility.yul\":5575:5581   */\n      dup2\n        /* \"#utility.yul\":5553:5582   */\n      tag_47\n      jump\t// in\n    tag_147:\n        /* \"#utility.yul\":5548:5551   */\n      dup5\n        /* \"#utility.yul\":5544:5583   */\n      add\n        /* \"#utility.yul\":5537:5583   */\n      swap2\n      pop\n        /* \"#utility.yul\":5314:5589   */\n      pop\n        /* \"#utility.yul\":5232:5589   */\n      swap3\n      swap2\n      pop\n      pop\n      jump\t// out\n        /* \"#utility.yul\":5595:5693   */\n    tag_61:\n        /* \"#utility.yul\":5646:5652   */\n      0x00\n        /* \"#utility.yul\":5680:5685   */\n      dup2\n        /* \"#utility.yul\":5674:5686   */\n      mload\n        /* \"#utility.yul\":5664:5686   */\n      swap1\n      pop\n        /* \"#utility.yul\":5595:5693   */\n      swap2\n      swap1\n      pop\n      jump\t// out\n        /* \"#utility.yul\":5699:5857   */\n    tag_62:\n        /* \"#utility.yul\":5772:5783   */\n      0x00\n        /* \"#utility.yul\":5806:5812   */\n      dup3\n        /* \"#utility.yul\":5801:5804   */\n      dup3\n        /* \"#utility.yul\":5794:5813   */\n      mstore\n        /* \"#utility.yul\":5846:5850   */\n      0x20\n        /* \"#utility.yul\":5841:5844   */\n      dup3\n        /* \"#utility.yul\":5837:5851   */\n      add\n        /* \"#utility.yul\":5822:5851   */\n      swap1\n      pop\n        /* \"#utility.yul\":5699:5857   */\n      swap3\n      swap2\n      pop\n      pop\n      jump\t// out\n        /* \"#utility.yul\":5863:6216   */\n    tag_63:\n        /* \"#utility.yul\":5939:5942   */\n      0x00\n        /* \"#utility.yul\":5967:6005   */\n      tag_151\n        /* \"#utility.yul\":5999:6004   */\n      dup3\n        /* \"#utility.yul\":5967:6005   */\n      tag_61\n      jump\t// in\n    tag_151:\n        /* \"#utility.yul\":6021:6081   */\n      tag_152\n        /* \"#utility.yul\":6074:6080   */\n      dup2\n        /* \"#utility.yul\":6069:6072   */\n      dup6\n        /* \"#utility.yul\":6021:6081   */\n      tag_62\n      jump\t// in\n    tag_152:\n        /* \"#utility.yul\":6014:6081   */\n      swap4\n      pop\n        /* \"#utility.yul\":6090:6155   */\n      tag_153\n        /* \"#utility.yul\":6148:6154   */\n      dup2\n        /* \"#utility.yul\":6143:6146   */\n      dup6\n        /* \"#utility.yul\":6136:6140   */\n      0x20\n        /* \"#utility.yul\":6129:6134   */\n      dup7\n        /* \"#utility.yul\":6125:6141   */\n      add\n        /* \"#utility.yul\":6090:6155   */\n      tag_59\n      jump\t// in\n    tag_153:\n        /* \"#utility.yul\":6180:6209   */\n      tag_154\n        /* \"#utility.yul\":6202:6208   */\n      dup2\n        /* \"#utility.yul\":6180:6209   */\n      tag_47\n      jump\t// in\n    tag_154:\n        /* \"#utility.yul\":6175:6178   */\n      dup5\n        /* \"#utility.yul\":6171:6210   */\n      add\n        /* \"#utility.yul\":6164:6210   */\n      swap2\n      pop\n        /* \"#utility.yul\":5943:6216   */\n      pop\n        /* \"#utility.yul\":5863:6216   */\n      swap3\n      swap2\n      pop\n      pop\n      jump\t// out\n        /* \"#utility.yul\":6284:7197   */\n    tag_64:\n        /* \"#utility.yul\":6391:6394   */\n      0x00\n        /* \"#utility.yul\":6427:6431   */\n      0x60\n        /* \"#utility.yul\":6422:6425   */\n      dup4\n        /* \"#utility.yul\":6418:6432   */\n      add\n        /* \"#utility.yul\":6514:6518   */\n      0x00\n        /* \"#utility.yul\":6507:6512   */\n      dup4\n        /* \"#utility.yul\":6503:6519   */\n      add\n        /* \"#utility.yul\":6497:6520   */\n      mload\n        /* \"#utility.yul\":6567:6570   */\n      dup5\n        /* \"#utility.yul\":6561:6565   */\n      dup3\n        /* \"#utility.yul\":6557:6571   */\n      sub\n        /* \"#utility.yul\":6550:6554   */\n      0x00\n        /* \"#utility.yul\":6545:6548   */\n      dup7\n        /* \"#utility.yul\":6541:6555   */\n      add\n        /* \"#utility.yul\":6534:6572   */\n      mstore\n        /* \"#utility.yul\":6593:6666   */\n      tag_156\n        /* \"#utility.yul\":6661:6665   */\n      dup3\n        /* \"#utility.yul\":6647:6659   */\n      dup3\n        /* \"#utility.yul\":6593:6666   */\n      tag_60\n      jump\t// in\n    tag_156:\n        /* \"#utility.yul\":6585:6666   */\n      swap2\n      pop\n        /* \"#utility.yul\":6442:6677   */\n      pop\n        /* \"#utility.yul\":6763:6767   */\n      0x20\n        /* \"#utility.yul\":6756:6761   */\n      dup4\n        /* \"#utility.yul\":6752:6768   */\n      add\n        /* \"#utility.yul\":6746:6769   */\n      mload\n        /* \"#utility.yul\":6816:6819   */\n      dup5\n        /* \"#utility.yul\":6810:6814   */\n      dup3\n        /* \"#utility.yul\":6806:6820   */\n      sub\n        /* \"#utility.yul\":6799:6803   */\n      0x20\n        /* \"#utility.yul\":6794:6797   */\n      dup7\n        /* \"#utility.yul\":6790:6804   */\n      add\n        /* \"#utility.yul\":6783:6821   */\n      mstore\n        /* \"#utility.yul\":6842:6915   */\n      tag_157\n        /* \"#utility.yul\":6910:6914   */\n      dup3\n        /* \"#utility.yul\":6896:6908   */\n      dup3\n        /* \"#utility.yul\":6842:6915   */\n      tag_60\n      jump\t// in\n    tag_157:\n        /* \"#utility.yul\":6834:6915   */\n      swap2\n      pop\n        /* \"#utility.yul\":6687:6926   */\n      pop\n        /* \"#utility.yul\":7009:7013   */\n      0x40\n        /* \"#utility.yul\":7002:7007   */\n      dup4\n        /* \"#utility.yul\":6998:7014   */\n      add\n        /* \"#utility.yul\":6992:7015   */\n      mload\n        /* \"#utility.yul\":7062:7065   */\n      dup5\n        /* \"#utility.yul\":7056:7060   */\n      dup3\n        /* \"#utility.yul\":7052:7066   */\n      sub\n        /* \"#utility.yul\":7045:7049   */\n      0x40\n        /* \"#utility.yul\":7040:7043   */\n      dup7\n        /* \"#utility.yul\":7036:7050   */\n      add\n        /* \"#utility.yul\":7029:7067   */\n      mstore\n        /* \"#utility.yul\":7088:7159   */\n      tag_158\n        /* \"#utility.yul\":7154:7158   */\n      dup3\n        /* \"#utility.yul\":7140:7152   */\n      dup3\n        /* \"#utility.yul\":7088:7159   */\n      tag_63\n      jump\t// in\n    tag_158:\n        /* \"#utility.yul\":7080:7159   */\n      swap2\n      pop\n        /* \"#utility.yul\":6936:7170   */\n      pop\n        /* \"#utility.yul\":7187:7191   */\n      dup1\n        /* \"#utility.yul\":7180:7191   */\n      swap2\n      pop\n        /* \"#utility.yul\":6396:7197   */\n      pop\n        /* \"#utility.yul\":6284:7197   */\n      swap3\n      swap2\n      pop\n      pop\n      jump\t// out\n        /* \"#utility.yul\":7203:7552   */\n    tag_10:\n        /* \"#utility.yul\":7334:7338   */\n      0x00\n        /* \"#utility.yul\":7372:7374   */\n      0x20\n        /* \"#utility.yul\":7361:7370   */\n      dup3\n        /* \"#utility.yul\":7357:7375   */\n      add\n        /* \"#utility.yul\":7349:7375   */\n      swap1\n      pop\n        /* \"#utility.yul\":7421:7430   */\n      dup2\n        /* \"#utility.yul\":7415:7419   */\n      dup2\n        /* \"#utility.yul\":7411:7431   */\n      sub\n        /* \"#utility.yul\":7407:7408   */\n      0x00\n        /* \"#utility.yul\":7396:7405   */\n      dup4\n        /* \"#utility.yul\":7392:7409   */\n      add\n        /* \"#utility.yul\":7385:7432   */\n      mstore\n        /* \"#utility.yul\":7449:7545   */\n      tag_160\n        /* \"#utility.yul\":7540:7544   */\n      dup2\n        /* \"#utility.yul\":7531:7537   */\n      dup5\n        /* \"#utility.yul\":7449:7545   */\n      tag_64\n      jump\t// in\n    tag_160:\n        /* \"#utility.yul\":7441:7545   */\n      swap1\n      pop\n        /* \"#utility.yul\":7203:7552   */\n      swap3\n      swap2\n      pop\n      pop\n      jump\t// out\n        /* \"#utility.yul\":7558:7888   */\n    tag_65:\n        /* \"#utility.yul\":7654:7658   */\n      0x00\n        /* \"#utility.yul\":7744:7762   */\n      0xffffffffffffffff\n        /* \"#utility.yul\":7736:7742   */\n      dup3\n        /* \"#utility.yul\":7733:7763   */\n      gt\n        /* \"#utility.yul\":7730:7786   */\n      iszero\n      tag_162\n      jumpi\n        /* \"#utility.yul\":7766:7784   */\n      tag_163\n      tag_23\n      jump\t// in\n    tag_163:\n        /* \"#utility.yul\":7730:7786   */\n    tag_162:\n        /* \"#utility.yul\":7816:7820   */\n      0x20\n        /* \"#utility.yul\":7808:7814   */\n      dup3\n        /* \"#utility.yul\":7804:7821   */\n      mul\n        /* \"#utility.yul\":7796:7821   */\n      swap1\n      pop\n        /* \"#utility.yul\":7876:7880   */\n      0x20\n        /* \"#utility.yul\":7870:7874   */\n      dup2\n        /* \"#utility.yul\":7866:7881   */\n      add\n        /* \"#utility.yul\":7858:7881   */\n      swap1\n      pop\n        /* \"#utility.yul\":7558:7888   */\n      swap2\n      swap1\n      pop\n      jump\t// out\n        /* \"#utility.yul\":7894:8011   */\n    tag_66:\n        /* \"#utility.yul\":8003:8004   */\n      0x00\n        /* \"#utility.yul\":8000:8001   */\n      0x00\n        /* \"#utility.yul\":7993:8005   */\n      revert\n        /* \"#utility.yul\":8017:8134   */\n    tag_67:\n        /* \"#utility.yul\":8126:8127   */\n      0x00\n        /* \"#utility.yul\":8123:8124   */\n      0x00\n        /* \"#utility.yul\":8116:8128   */\n      revert\n        /* \"#utility.yul\":8140:8257   */\n    tag_68:\n        /* \"#utility.yul\":8249:8250   */\n      0x00\n        /* \"#utility.yul\":8246:8247   */\n      0x00\n        /* \"#utility.yul\":8239:8251   */\n      revert\n        /* \"#utility.yul\":8296:9539   */\n    tag_69:\n        /* \"#utility.yul\":8364:8369   */\n      0x00\n        /* \"#utility.yul\":8408:8412   */\n      0x60\n        /* \"#utility.yul\":8396:8405   */\n      dup3\n        /* \"#utility.yul\":8391:8394   */\n      dup5\n        /* \"#utility.yul\":8387:8406   */\n      sub\n        /* \"#utility.yul\":8383:8413   */\n      slt\n        /* \"#utility.yul\":8380:8497   */\n      iszero\n      tag_168\n      jumpi\n        /* \"#utility.yul\":8416:8495   */\n      tag_169\n      tag_67\n      jump\t// in\n    tag_169:\n        /* \"#utility.yul\":8380:8497   */\n    tag_168:\n        /* \"#utility.yul\":8515:8536   */\n      tag_170\n        /* \"#utility.yul\":8531:8535   */\n      0x60\n        /* \"#utility.yul\":8515:8536   */\n      tag_49\n      jump\t// in\n    tag_170:\n        /* \"#utility.yul\":8506:8536   */\n      swap1\n      pop\n        /* \"#utility.yul\":8623:8624   */\n      0x00\n        /* \"#utility.yul\":8612:8621   */\n      dup3\n        /* \"#utility.yul\":8608:8625   */\n      add\n        /* \"#utility.yul\":8595:8626   */\n      calldataload\n        /* \"#utility.yul\":8653:8671   */\n      0xffffffffffffffff\n        /* \"#utility.yul\":8645:8651   */\n      dup2\n        /* \"#utility.yul\":8642:8672   */\n      gt\n        /* \"#utility.yul\":8639:8756   */\n      iszero\n      tag_171\n      jumpi\n        /* \"#utility.yul\":8675:8754   */\n      tag_172\n      tag_68\n      jump\t// in\n    tag_172:\n        /* \"#utility.yul\":8639:8756   */\n    tag_171:\n        /* \"#utility.yul\":8795:8854   */\n      tag_173\n        /* \"#utility.yul\":8850:8853   */\n      dup5\n        /* \"#utility.yul\":8841:8847   */\n      dup3\n        /* \"#utility.yul\":8830:8839   */\n      dup6\n        /* \"#utility.yul\":8826:8848   */\n      add\n        /* \"#utility.yul\":8795:8854   */\n      tag_53\n      jump\t// in\n    tag_173:\n        /* \"#utility.yul\":8788:8792   */\n      0x00\n        /* \"#utility.yul\":8781:8786   */\n      dup4\n        /* \"#utility.yul\":8777:8793   */\n      add\n        /* \"#utility.yul\":8770:8855   */\n      mstore\n        /* \"#utility.yul\":8546:8866   */\n      pop\n        /* \"#utility.yul\":8957:8959   */\n      0x20\n        /* \"#utility.yul\":8946:8955   */\n      dup3\n        /* \"#utility.yul\":8942:8960   */\n      add\n        /* \"#utility.yul\":8929:8961   */\n      calldataload\n        /* \"#utility.yul\":8988:9006   */\n      0xffffffffffffffff\n        /* \"#utility.yul\":8980:8986   */\n      dup2\n        /* \"#utility.yul\":8977:9007   */\n      gt\n        /* \"#utility.yul\":8974:9091   */\n      iszero\n      tag_174\n      jumpi\n        /* \"#utility.yul\":9010:9089   */\n      tag_175\n      tag_68\n      jump\t// in\n    tag_175:\n        /* \"#utility.yul\":8974:9091   */\n    tag_174:\n        /* \"#utility.yul\":9130:9189   */\n      tag_176\n        /* \"#utility.yul\":9185:9188   */\n      dup5\n        /* \"#utility.yul\":9176:9182   */\n      dup3\n        /* \"#utility.yul\":9165:9174   */\n      dup6\n        /* \"#utility.yul\":9161:9183   */\n      add\n        /* \"#utility.yul\":9130:9189   */\n      tag_53\n      jump\t// in\n    tag_176:\n        /* \"#utility.yul\":9123:9127   */\n      0x20\n        /* \"#utility.yul\":9116:9121   */\n      dup4\n        /* \"#utility.yul\":9112:9128   */\n      add\n        /* \"#utility.yul\":9105:9190   */\n      mstore\n        /* \"#utility.yul\":8876:9201   */\n      pop\n        /* \"#utility.yul\":9289:9291   */\n      0x40\n        /* \"#utility.yul\":9278:9287   */\n      dup3\n        /* \"#utility.yul\":9274:9292   */\n      add\n        /* \"#utility.yul\":9261:9293   */\n      calldataload\n        /* \"#utility.yul\":9320:9338   */\n      0xffffffffffffffff\n        /* \"#utility.yul\":9312:9318   */\n      dup2\n        /* \"#utility.yul\":9309:9339   */\n      gt\n        /* \"#utility.yul\":9306:9423   */\n      iszero\n      tag_177\n      jumpi\n        /* \"#utility.yul\":9342:9421   */\n      tag_178\n      tag_68\n      jump\t// in\n    tag_178:\n        /* \"#utility.yul\":9306:9423   */\n    tag_177:\n        /* \"#utility.yul\":9462:9520   */\n      tag_179\n        /* \"#utility.yul\":9516:9519   */\n      dup5\n        /* \"#utility.yul\":9507:9513   */\n      dup3\n        /* \"#utility.yul\":9496:9505   */\n      dup6\n        /* \"#utility.yul\":9492:9514   */\n      add\n        /* \"#utility.yul\":9462:9520   */\n      tag_56\n      jump\t// in\n    tag_179:\n        /* \"#utility.yul\":9455:9459   */\n      0x40\n        /* \"#utility.yul\":9448:9453   */\n      dup4\n        /* \"#utility.yul\":9444:9460   */\n      add\n        /* \"#utility.yul\":9437:9521   */\n      mstore\n        /* \"#utility.yul\":9211:9532   */\n      pop\n        /* \"#utility.yul\":8296:9539   */\n      swap3\n      swap2\n      pop\n      pop\n      jump\t// out\n        /* \"#utility.yul\":9580:10552   */\n    tag_70:\n        /* \"#utility.yul\":9695:9700   */\n      0x00\n        /* \"#utility.yul\":9720:9820   */\n      tag_181\n        /* \"#utility.yul\":9736:9819   */\n      tag_182\n        /* \"#utility.yul\":9812:9818   */\n      dup5\n        /* \"#utility.yul\":9736:9819   */\n      tag_65\n      jump\t// in\n    tag_182:\n        /* \"#utility.yul\":9720:9820   */\n      tag_49\n      jump\t// in\n    tag_181:\n        /* \"#utility.yul\":9711:9820   */\n      swap1\n      pop\n        /* \"#utility.yul\":9840:9845   */\n      dup1\n        /* \"#utility.yul\":9869:9875   */\n      dup4\n        /* \"#utility.yul\":9862:9867   */\n      dup3\n        /* \"#utility.yul\":9855:9876   */\n      mstore\n        /* \"#utility.yul\":9903:9907   */\n      0x20\n        /* \"#utility.yul\":9896:9901   */\n      dup3\n        /* \"#utility.yul\":9892:9908   */\n      add\n        /* \"#utility.yul\":9885:9908   */\n      swap1\n      pop\n        /* \"#utility.yul\":9956:9960   */\n      0x20\n        /* \"#utility.yul\":9948:9954   */\n      dup5\n        /* \"#utility.yul\":9944:9961   */\n      mul\n        /* \"#utility.yul\":9936:9942   */\n      dup4\n        /* \"#utility.yul\":9932:9962   */\n      add\n        /* \"#utility.yul\":9985:9988   */\n      dup6\n        /* \"#utility.yul\":9977:9983   */\n      dup2\n        /* \"#utility.yul\":9974:9989   */\n      gt\n        /* \"#utility.yul\":9971:10093   */\n      iszero\n      tag_183\n      jumpi\n        /* \"#utility.yul\":10004:10083   */\n      tag_184\n      tag_66\n      jump\t// in\n    tag_184:\n        /* \"#utility.yul\":9971:10093   */\n    tag_183:\n        /* \"#utility.yul\":10119:10125   */\n      dup4\n        /* \"#utility.yul\":10102:10546   */\n    tag_185:\n        /* \"#utility.yul\":10136:10142   */\n      dup2\n        /* \"#utility.yul\":10131:10134   */\n      dup2\n        /* \"#utility.yul\":10128:10143   */\n      lt\n        /* \"#utility.yul\":10102:10546   */\n      iszero\n      tag_187\n      jumpi\n        /* \"#utility.yul\":10225:10228   */\n      dup1\n        /* \"#utility.yul\":10212:10229   */\n      calldataload\n        /* \"#utility.yul\":10261:10279   */\n      0xffffffffffffffff\n        /* \"#utility.yul\":10248:10259   */\n      dup2\n        /* \"#utility.yul\":10245:10280   */\n      gt\n        /* \"#utility.yul\":10242:10364   */\n      iszero\n      tag_188\n      jumpi\n        /* \"#utility.yul\":10283:10362   */\n      tag_189\n      tag_45\n      jump\t// in\n    tag_189:\n        /* \"#utility.yul\":10242:10364   */\n    tag_188:\n        /* \"#utility.yul\":10407:10418   */\n      dup1\n        /* \"#utility.yul\":10399:10405   */\n      dup7\n        /* \"#utility.yul\":10395:10419   */\n      add\n        /* \"#utility.yul\":10445:10501   */\n      tag_190\n        /* \"#utility.yul\":10497:10500   */\n      dup10\n        /* \"#utility.yul\":10485:10495   */\n      dup3\n        /* \"#utility.yul\":10445:10501   */\n      tag_69\n      jump\t// in\n    tag_190:\n        /* \"#utility.yul\":10440:10443   */\n      dup6\n        /* \"#utility.yul\":10433:10502   */\n      mstore\n        /* \"#utility.yul\":10531:10535   */\n      0x20\n        /* \"#utility.yul\":10526:10529   */\n      dup6\n        /* \"#utility.yul\":10522:10536   */\n      add\n        /* \"#utility.yul\":10515:10536   */\n      swap5\n      pop\n        /* \"#utility.yul\":10178:10546   */\n      pop\n      pop\n        /* \"#utility.yul\":10162:10166   */\n      0x20\n        /* \"#utility.yul\":10157:10160   */\n      dup2\n        /* \"#utility.yul\":10153:10167   */\n      add\n        /* \"#utility.yul\":10146:10167   */\n      swap1\n      pop\n        /* \"#utility.yul\":10102:10546   */\n      jump(tag_185)\n    tag_187:\n        /* \"#utility.yul\":10106:10127   */\n      pop\n        /* \"#utility.yul\":9701:10552   */\n      pop\n      pop\n        /* \"#utility.yul\":9580:10552   */\n      swap4\n      swap3\n      pop\n      pop\n      pop\n      jump\t// out\n        /* \"#utility.yul\":10593:11001   */\n    tag_71:\n        /* \"#utility.yul\":10683:10688   */\n      0x00\n        /* \"#utility.yul\":10732:10735   */\n      dup3\n        /* \"#utility.yul\":10725:10729   */\n      0x1f\n        /* \"#utility.yul\":10717:10723   */\n      dup4\n        /* \"#utility.yul\":10713:10730   */\n      add\n        /* \"#utility.yul\":10709:10736   */\n      slt\n        /* \"#utility.yul\":10699:10821   */\n      tag_192\n      jumpi\n        /* \"#utility.yul\":10740:10819   */\n      tag_193\n      tag_45\n      jump\t// in\n    tag_193:\n        /* \"#utility.yul\":10699:10821   */\n    tag_192:\n        /* \"#utility.yul\":10857:10863   */\n      dup2\n        /* \"#utility.yul\":10844:10864   */\n      calldataload\n        /* \"#utility.yul\":10882:10995   */\n      tag_194\n        /* \"#utility.yul\":10991:10994   */\n      dup5\n        /* \"#utility.yul\":10983:10989   */\n      dup3\n        /* \"#utility.yul\":10976:10980   */\n      0x20\n        /* \"#utility.yul\":10968:10974   */\n      dup7\n        /* \"#utility.yul\":10964:10981   */\n      add\n        /* \"#utility.yul\":10882:10995   */\n      tag_70\n      jump\t// in\n    tag_194:\n        /* \"#utility.yul\":10873:10995   */\n      swap2\n      pop\n        /* \"#utility.yul\":10689:11001   */\n      pop\n        /* \"#utility.yul\":10593:11001   */\n      swap3\n      swap2\n      pop\n      pop\n      jump\t// out\n        /* \"#utility.yul\":11007:11909   */\n    tag_13:\n        /* \"#utility.yul\":11129:11135   */\n      0x00\n        /* \"#utility.yul\":11137:11143   */\n      0x00\n        /* \"#utility.yul\":11186:11188   */\n      0x40\n        /* \"#utility.yul\":11174:11183   */\n      dup4\n        /* \"#utility.yul\":11165:11172   */\n      dup6\n        /* \"#utility.yul\":11161:11184   */\n      sub\n        /* \"#utility.yul\":11157:11189   */\n      slt\n        /* \"#utility.yul\":11154:11273   */\n      iszero\n      tag_196\n      jumpi\n        /* \"#utility.yul\":11192:11271   */\n      tag_197\n      tag_43\n      jump\t// in\n    tag_197:\n        /* \"#utility.yul\":11154:11273   */\n    tag_196:\n        /* \"#utility.yul\":11340:11341   */\n      0x00\n        /* \"#utility.yul\":11329:11338   */\n      dup4\n        /* \"#utility.yul\":11325:11342   */\n      add\n        /* \"#utility.yul\":11312:11343   */\n      calldataload\n        /* \"#utility.yul\":11370:11388   */\n      0xffffffffffffffff\n        /* \"#utility.yul\":11362:11368   */\n      dup2\n        /* \"#utility.yul\":11359:11389   */\n      gt\n        /* \"#utility.yul\":11356:11473   */\n      iszero\n      tag_198\n      jumpi\n        /* \"#utility.yul\":11392:11471   */\n      tag_199\n      tag_44\n      jump\t// in\n    tag_199:\n        /* \"#utility.yul\":11356:11473   */\n    tag_198:\n        /* \"#utility.yul\":11497:11560   */\n      tag_200\n        /* \"#utility.yul\":11552:11559   */\n      dup6\n        /* \"#utility.yul\":11543:11549   */\n      dup3\n        /* \"#utility.yul\":11532:11541   */\n      dup7\n        /* \"#utility.yul\":11528:11550   */\n      add\n        /* \"#utility.yul\":11497:11560   */\n      tag_53\n      jump\t// in\n    tag_200:\n        /* \"#utility.yul\":11487:11560   */\n      swap3\n      pop\n        /* \"#utility.yul\":11283:11570   */\n      pop\n        /* \"#utility.yul\":11637:11639   */\n      0x20\n        /* \"#utility.yul\":11626:11635   */\n      dup4\n        /* \"#utility.yul\":11622:11640   */\n      add\n        /* \"#utility.yul\":11609:11641   */\n      calldataload\n        /* \"#utility.yul\":11668:11686   */\n      0xffffffffffffffff\n        /* \"#utility.yul\":11660:11666   */\n      dup2\n        /* \"#utility.yul\":11657:11687   */\n      gt\n        /* \"#utility.yul\":11654:11771   */\n      iszero\n      tag_201\n      jumpi\n        /* \"#utility.yul\":11690:11769   */\n      tag_202\n      tag_44\n      jump\t// in\n    tag_202:\n        /* \"#utility.yul\":11654:11771   */\n    tag_201:\n        /* \"#utility.yul\":11795:11892   */\n      tag_203\n        /* \"#utility.yul\":11884:11891   */\n      dup6\n        /* \"#utility.yul\":11875:11881   */\n      dup3\n        /* \"#utility.yul\":11864:11873   */\n      dup7\n        /* \"#utility.yul\":11860:11882   */\n      add\n        /* \"#utility.yul\":11795:11892   */\n      tag_71\n      jump\t// in\n    tag_203:\n        /* \"#utility.yul\":11785:11892   */\n      swap2\n      pop\n        /* \"#utility.yul\":11580:11902   */\n      pop\n        /* \"#utility.yul\":11007:11909   */\n      swap3\n      pop\n      swap3\n      swap1\n      pop\n      jump\t// out\n        /* \"#utility.yul\":11915:11992   */\n    tag_72:\n        /* \"#utility.yul\":11952:11959   */\n      0x00\n        /* \"#utility.yul\":11981:11986   */\n      dup2\n        /* \"#utility.yul\":11970:11986   */\n      swap1\n      pop\n        /* \"#utility.yul\":11915:11992   */\n      swap2\n      swap1\n      pop\n      jump\t// out\n        /* \"#utility.yul\":11998:12178   */\n    tag_73:\n        /* \"#utility.yul\":12046:12123   */\n      0x4e487b7100000000000000000000000000000000000000000000000000000000\n        /* \"#utility.yul\":12043:12044   */\n      0x00\n        /* \"#utility.yul\":12036:12124   */\n      mstore\n        /* \"#utility.yul\":12143:12147   */\n      0x11\n        /* \"#utility.yul\":12140:12141   */\n      0x04\n        /* \"#utility.yul\":12133:12148   */\n      mstore\n        /* \"#utility.yul\":12167:12171   */\n      0x24\n        /* \"#utility.yul\":12164:12165   */\n      0x00\n        /* \"#utility.yul\":12157:12172   */\n      revert\n        /* \"#utility.yul\":12184:12375   */\n    tag_20:\n        /* \"#utility.yul\":12224:12227   */\n      0x00\n        /* \"#utility.yul\":12243:12263   */\n      tag_207\n        /* \"#utility.yul\":12261:12262   */\n      dup3\n        /* \"#utility.yul\":12243:12263   */\n      tag_72\n      jump\t// in\n    tag_207:\n        /* \"#utility.yul\":12238:12263   */\n      swap2\n      pop\n        /* \"#utility.yul\":12277:12297   */\n      tag_208\n        /* \"#utility.yul\":12295:12296   */\n      dup4\n        /* \"#utility.yul\":12277:12297   */\n      tag_72\n      jump\t// in\n    tag_208:\n        /* \"#utility.yul\":12272:12297   */\n      swap3\n      pop\n        /* \"#utility.yul\":12320:12321   */\n      dup3\n        /* \"#utility.yul\":12317:12318   */\n      dup3\n        /* \"#utility.yul\":12313:12322   */\n      add\n        /* \"#utility.yul\":12306:12322   */\n      swap1\n      pop\n        /* \"#utility.yul\":12341:12344   */\n      dup1\n        /* \"#utility.yul\":12338:12339   */\n      dup3\n        /* \"#utility.yul\":12335:12345   */\n      gt\n        /* \"#utility.yul\":12332:12368   */\n      iszero\n      tag_209\n      jumpi\n        /* \"#utility.yul\":12348:12366   */\n      tag_210\n      tag_73\n      jump\t// in\n    tag_210:\n        /* \"#utility.yul\":12332:12368   */\n    tag_209:\n        /* \"#utility.yul\":12184:12375   */\n      swap3\n      swap2\n      pop\n      pop\n      jump\t// out\n        /* \"#utility.yul\":12381:12499   */\n    tag_74:\n        /* \"#utility.yul\":12468:12492   */\n      tag_212\n        /* \"#utility.yul\":12486:12491   */\n      dup2\n        /* \"#utility.yul\":12468:12492   */\n      tag_72\n      jump\t// in\n    tag_212:\n        /* \"#utility.yul\":12463:12466   */\n      dup3\n        /* \"#utility.yul\":12456:12493   */\n      mstore\n        /* \"#utility.yul\":12381:12499   */\n      pop\n      pop\n      jump\t// out\n        /* \"#utility.yul\":12505:12727   */\n    tag_28:\n        /* \"#utility.yul\":12598:12602   */\n      0x00\n        /* \"#utility.yul\":12636:12638   */\n      0x20\n        /* \"#utility.yul\":12625:12634   */\n      dup3\n        /* \"#utility.yul\":12621:12639   */\n      add\n        /* \"#utility.yul\":12613:12639   */\n      swap1\n      pop\n        /* \"#utility.yul\":12649:12720   */\n      tag_214\n        /* \"#utility.yul\":12717:12718   */\n      0x00\n        /* \"#utility.yul\":12706:12715   */\n      dup4\n        /* \"#utility.yul\":12702:12719   */\n      add\n        /* \"#utility.yul\":12693:12699   */\n      dup5\n        /* \"#utility.yul\":12649:12720   */\n      tag_74\n      jump\t// in\n    tag_214:\n        /* \"#utility.yul\":12505:12727   */\n      swap3\n      swap2\n      pop\n      pop\n      jump\t// out\n        /* \"#utility.yul\":12733:12913   */\n    tag_31:\n        /* \"#utility.yul\":12781:12858   */\n      0x4e487b7100000000000000000000000000000000000000000000000000000000\n        /* \"#utility.yul\":12778:12779   */\n      0x00\n        /* \"#utility.yul\":12771:12859   */\n      mstore\n        /* \"#utility.yul\":12878:12882   */\n      0x32\n        /* \"#utility.yul\":12875:12876   */\n      0x04\n        /* \"#utility.yul\":12868:12883   */\n      mstore\n        /* \"#utility.yul\":12902:12906   */\n      0x24\n        /* \"#utility.yul\":12899:12900   */\n      0x00\n        /* \"#utility.yul\":12892:12907   */\n      revert\n        /* \"#utility.yul\":12919:13088   */\n    tag_75:\n        /* \"#utility.yul\":13003:13014   */\n      0x00\n        /* \"#utility.yul\":13037:13043   */\n      dup3\n        /* \"#utility.yul\":13032:13035   */\n      dup3\n        /* \"#utility.yul\":13025:13044   */\n      mstore\n        /* \"#utility.yul\":13077:13081   */\n      0x20\n        /* \"#utility.yul\":13072:13075   */\n      dup3\n        /* \"#utility.yul\":13068:13082   */\n      add\n        /* \"#utility.yul\":13053:13082   */\n      swap1\n      pop\n        /* \"#utility.yul\":12919:13088   */\n      swap3\n      swap2\n      pop\n      pop\n      jump\t// out\n        /* \"#utility.yul\":13094:13471   */\n    tag_76:\n        /* \"#utility.yul\":13182:13185   */\n      0x00\n        /* \"#utility.yul\":13210:13249   */\n      tag_218\n        /* \"#utility.yul\":13243:13248   */\n      dup3\n        /* \"#utility.yul\":13210:13249   */\n      tag_57\n      jump\t// in\n    tag_218:\n        /* \"#utility.yul\":13265:13336   */\n      tag_219\n        /* \"#utility.yul\":13329:13335   */\n      dup2\n        /* \"#utility.yul\":13324:13327   */\n      dup6\n        /* \"#utility.yul\":13265:13336   */\n      tag_75\n      jump\t// in\n    tag_219:\n        /* \"#utility.yul\":13258:13336   */\n      swap4\n      pop\n        /* \"#utility.yul\":13345:13410   */\n      tag_220\n        /* \"#utility.yul\":13403:13409   */\n      dup2\n        /* \"#utility.yul\":13398:13401   */\n      dup6\n        /* \"#utility.yul\":13391:13395   */\n      0x20\n        /* \"#utility.yul\":13384:13389   */\n      dup7\n        /* \"#utility.yul\":13380:13396   */\n      add\n        /* \"#utility.yul\":13345:13410   */\n      tag_59\n      jump\t// in\n    tag_220:\n        /* \"#utility.yul\":13435:13464   */\n      tag_221\n        /* \"#utility.yul\":13457:13463   */\n      dup2\n        /* \"#utility.yul\":13435:13464   */\n      tag_47\n      jump\t// in\n    tag_221:\n        /* \"#utility.yul\":13430:13433   */\n      dup5\n        /* \"#utility.yul\":13426:13465   */\n      add\n        /* \"#utility.yul\":13419:13465   */\n      swap2\n      pop\n        /* \"#utility.yul\":13186:13471   */\n      pop\n        /* \"#utility.yul\":13094:13471   */\n      swap3\n      swap2\n      pop\n      pop\n      jump\t// out\n        /* \"#utility.yul\":13477:13610   */\n    tag_77:\n        /* \"#utility.yul\":13563:13569   */\n      0x00\n        /* \"#utility.yul\":13597:13602   */\n      dup2\n        /* \"#utility.yul\":13591:13603   */\n      mload\n        /* \"#utility.yul\":13581:13603   */\n      swap1\n      pop\n        /* \"#utility.yul\":13477:13610   */\n      swap2\n      swap1\n      pop\n      jump\t// out\n        /* \"#utility.yul\":13616:13819   */\n    tag_78:\n        /* \"#utility.yul\":13734:13745   */\n      0x00\n        /* \"#utility.yul\":13768:13774   */\n      dup3\n        /* \"#utility.yul\":13763:13766   */\n      dup3\n        /* \"#utility.yul\":13756:13775   */\n      mstore\n        /* \"#utility.yul\":13808:13812   */\n      0x20\n        /* \"#utility.yul\":13803:13806   */\n      dup3\n        /* \"#utility.yul\":13799:13813   */\n      add\n        /* \"#utility.yul\":13784:13813   */\n      swap1\n      pop\n        /* \"#utility.yul\":13616:13819   */\n      swap3\n      swap2\n      pop\n      pop\n      jump\t// out\n        /* \"#utility.yul\":13825:13976   */\n    tag_79:\n        /* \"#utility.yul\":13911:13915   */\n      0x00\n        /* \"#utility.yul\":13934:13937   */\n      dup2\n        /* \"#utility.yul\":13926:13937   */\n      swap1\n      pop\n        /* \"#utility.yul\":13964:13968   */\n      0x20\n        /* \"#utility.yul\":13959:13962   */\n      dup3\n        /* \"#utility.yul\":13955:13969   */\n      add\n        /* \"#utility.yul\":13947:13969   */\n      swap1\n      pop\n        /* \"#utility.yul\":13825:13976   */\n      swap2\n      swap1\n      pop\n      jump\t// out\n        /* \"#utility.yul\":14044:14947   */\n    tag_80:\n        /* \"#utility.yul\":14141:14144   */\n      0x00\n        /* \"#utility.yul\":14177:14181   */\n      0x60\n        /* \"#utility.yul\":14172:14175   */\n      dup4\n        /* \"#utility.yul\":14168:14182   */\n      add\n        /* \"#utility.yul\":14264:14268   */\n      0x00\n        /* \"#utility.yul\":14257:14262   */\n      dup4\n        /* \"#utility.yul\":14253:14269   */\n      add\n        /* \"#utility.yul\":14247:14270   */\n      mload\n        /* \"#utility.yul\":14317:14320   */\n      dup5\n        /* \"#utility.yul\":14311:14315   */\n      dup3\n        /* \"#utility.yul\":14307:14321   */\n      sub\n        /* \"#utility.yul\":14300:14304   */\n      0x00\n        /* \"#utility.yul\":14295:14298   */\n      dup7\n        /* \"#utility.yul\":14291:14305   */\n      add\n        /* \"#utility.yul\":14284:14322   */\n      mstore\n        /* \"#utility.yul\":14343:14416   */\n      tag_226\n        /* \"#utility.yul\":14411:14415   */\n      dup3\n        /* \"#utility.yul\":14397:14409   */\n      dup3\n        /* \"#utility.yul\":14343:14416   */\n      tag_60\n      jump\t// in\n    tag_226:\n        /* \"#utility.yul\":14335:14416   */\n      swap2\n      pop\n        /* \"#utility.yul\":14192:14427   */\n      pop\n        /* \"#utility.yul\":14513:14517   */\n      0x20\n        /* \"#utility.yul\":14506:14511   */\n      dup4\n        /* \"#utility.yul\":14502:14518   */\n      add\n        /* \"#utility.yul\":14496:14519   */\n      mload\n        /* \"#utility.yul\":14566:14569   */\n      dup5\n        /* \"#utility.yul\":14560:14564   */\n      dup3\n        /* \"#utility.yul\":14556:14570   */\n      sub\n        /* \"#utility.yul\":14549:14553   */\n      0x20\n        /* \"#utility.yul\":14544:14547   */\n      dup7\n        /* \"#utility.yul\":14540:14554   */\n      add\n        /* \"#utility.yul\":14533:14571   */\n      mstore\n        /* \"#utility.yul\":14592:14665   */\n      tag_227\n        /* \"#utility.yul\":14660:14664   */\n      dup3\n        /* \"#utility.yul\":14646:14658   */\n      dup3\n        /* \"#utility.yul\":14592:14665   */\n      tag_60\n      jump\t// in\n    tag_227:\n        /* \"#utility.yul\":14584:14665   */\n      swap2\n      pop\n        /* \"#utility.yul\":14437:14676   */\n      pop\n        /* \"#utility.yul\":14759:14763   */\n      0x40\n        /* \"#utility.yul\":14752:14757   */\n      dup4\n        /* \"#utility.yul\":14748:14764   */\n      add\n        /* \"#utility.yul\":14742:14765   */\n      mload\n        /* \"#utility.yul\":14812:14815   */\n      dup5\n        /* \"#utility.yul\":14806:14810   */\n      dup3\n        /* \"#utility.yul\":14802:14816   */\n      sub\n        /* \"#utility.yul\":14795:14799   */\n      0x40\n        /* \"#utility.yul\":14790:14793   */\n      dup7\n        /* \"#utility.yul\":14786:14800   */\n      add\n        /* \"#utility.yul\":14779:14817   */\n      mstore\n        /* \"#utility.yul\":14838:14909   */\n      tag_228\n        /* \"#utility.yul\":14904:14908   */\n      dup3\n        /* \"#utility.yul\":14890:14902   */\n      dup3\n        /* \"#utility.yul\":14838:14909   */\n      tag_63\n      jump\t// in\n    tag_228:\n        /* \"#utility.yul\":14830:14909   */\n      swap2\n      pop\n        /* \"#utility.yul\":14686:14920   */\n      pop\n        /* \"#utility.yul\":14937:14941   */\n      dup1\n        /* \"#utility.yul\":14930:14941   */\n      swap2\n      pop\n        /* \"#utility.yul\":14146:14947   */\n      pop\n        /* \"#utility.yul\":14044:14947   */\n      swap3\n      swap2\n      pop\n      pop\n      jump\t// out\n        /* \"#utility.yul\":14953:15185   */\n    tag_81:\n        /* \"#utility.yul\":15060:15070   */\n      0x00\n        /* \"#utility.yul\":15095:15179   */\n      tag_230\n        /* \"#utility.yul\":15175:15178   */\n      dup4\n        /* \"#utility.yul\":15167:15173   */\n      dup4\n        /* \"#utility.yul\":15095:15179   */\n      tag_80\n      jump\t// in\n    tag_230:\n        /* \"#utility.yul\":15081:15179   */\n      swap1\n      pop\n        /* \"#utility.yul\":14953:15185   */\n      swap3\n      swap2\n      pop\n      pop\n      jump\t// out\n        /* \"#utility.yul\":15191:15323   */\n    tag_82:\n        /* \"#utility.yul\":15280:15284   */\n      0x00\n        /* \"#utility.yul\":15312:15316   */\n      0x20\n        /* \"#utility.yul\":15307:15310   */\n      dup3\n        /* \"#utility.yul\":15303:15317   */\n      add\n        /* \"#utility.yul\":15295:15317   */\n      swap1\n      pop\n        /* \"#utility.yul\":15191:15323   */\n      swap2\n      swap1\n      pop\n      jump\t// out\n        /* \"#utility.yul\":15395:16458   */\n    tag_83:\n        /* \"#utility.yul\":15552:15555   */\n      0x00\n        /* \"#utility.yul\":15581:15654   */\n      tag_233\n        /* \"#utility.yul\":15648:15653   */\n      dup3\n        /* \"#utility.yul\":15581:15654   */\n      tag_77\n      jump\t// in\n    tag_233:\n        /* \"#utility.yul\":15670:15775   */\n      tag_234\n        /* \"#utility.yul\":15768:15774   */\n      dup2\n        /* \"#utility.yul\":15763:15766   */\n      dup6\n        /* \"#utility.yul\":15670:15775   */\n      tag_78\n      jump\t// in\n    tag_234:\n        /* \"#utility.yul\":15663:15775   */\n      swap4\n      pop\n        /* \"#utility.yul\":15801:15804   */\n      dup4\n        /* \"#utility.yul\":15846:15850   */\n      0x20\n        /* \"#utility.yul\":15838:15844   */\n      dup3\n        /* \"#utility.yul\":15834:15851   */\n      mul\n        /* \"#utility.yul\":15829:15832   */\n      dup6\n        /* \"#utility.yul\":15825:15852   */\n      add\n        /* \"#utility.yul\":15876:15951   */\n      tag_235\n        /* \"#utility.yul\":15945:15950   */\n      dup6\n        /* \"#utility.yul\":15876:15951   */\n      tag_79\n      jump\t// in\n    tag_235:\n        /* \"#utility.yul\":15974:15981   */\n      dup1\n        /* \"#utility.yul\":16005:16006   */\n      0x00\n        /* \"#utility.yul\":15990:16413   */\n    tag_236:\n        /* \"#utility.yul\":16015:16021   */\n      dup6\n        /* \"#utility.yul\":16012:16013   */\n      dup2\n        /* \"#utility.yul\":16009:16022   */\n      lt\n        /* \"#utility.yul\":15990:16413   */\n      iszero\n      tag_238\n      jumpi\n        /* \"#utility.yul\":16086:16095   */\n      dup5\n        /* \"#utility.yul\":16080:16084   */\n      dup5\n        /* \"#utility.yul\":16076:16096   */\n      sub\n        /* \"#utility.yul\":16071:16074   */\n      dup10\n        /* \"#utility.yul\":16064:16097   */\n      mstore\n        /* \"#utility.yul\":16137:16143   */\n      dup2\n        /* \"#utility.yul\":16131:16144   */\n      mload\n        /* \"#utility.yul\":16165:16267   */\n      tag_239\n        /* \"#utility.yul\":16262:16266   */\n      dup6\n        /* \"#utility.yul\":16247:16260   */\n      dup3\n        /* \"#utility.yul\":16165:16267   */\n      tag_81\n      jump\t// in\n    tag_239:\n        /* \"#utility.yul\":16157:16267   */\n      swap5\n      pop\n        /* \"#utility.yul\":16290:16369   */\n      tag_240\n        /* \"#utility.yul\":16362:16368   */\n      dup4\n        /* \"#utility.yul\":16290:16369   */\n      tag_82\n      jump\t// in\n    tag_240:\n        /* \"#utility.yul\":16280:16369   */\n      swap3\n      pop\n        /* \"#utility.yul\":16398:16402   */\n      0x20\n        /* \"#utility.yul\":16393:16396   */\n      dup11\n        /* \"#utility.yul\":16389:16403   */\n      add\n        /* \"#utility.yul\":16382:16403   */\n      swap10\n      pop\n        /* \"#utility.yul\":16050:16413   */\n      pop\n        /* \"#utility.yul\":16037:16038   */\n      0x01\n        /* \"#utility.yul\":16034:16035   */\n      dup2\n        /* \"#utility.yul\":16030:16039   */\n      add\n        /* \"#utility.yul\":16025:16039   */\n      swap1\n      pop\n        /* \"#utility.yul\":15990:16413   */\n      jump(tag_236)\n    tag_238:\n        /* \"#utility.yul\":15994:16008   */\n      pop\n        /* \"#utility.yul\":16429:16433   */\n      dup3\n        /* \"#utility.yul\":16422:16433   */\n      swap8\n      pop\n        /* \"#utility.yul\":16449:16452   */\n      dup8\n        /* \"#utility.yul\":16442:16452   */\n      swap6\n      pop\n        /* \"#utility.yul\":15557:16458   */\n      pop\n      pop\n      pop\n      pop\n      pop\n        /* \"#utility.yul\":15395:16458   */\n      swap3\n      swap2\n      pop\n      pop\n      jump\t// out\n        /* \"#utility.yul\":16464:17114   */\n    tag_41:\n        /* \"#utility.yul\":16693:16697   */\n      0x00\n        /* \"#utility.yul\":16731:16733   */\n      0x40\n        /* \"#utility.yul\":16720:16729   */\n      dup3\n        /* \"#utility.yul\":16716:16734   */\n      add\n        /* \"#utility.yul\":16708:16734   */\n      swap1\n      pop\n        /* \"#utility.yul\":16780:16789   */\n      dup2\n        /* \"#utility.yul\":16774:16778   */\n      dup2\n        /* \"#utility.yul\":16770:16790   */\n      sub\n        /* \"#utility.yul\":16766:16767   */\n      0x00\n        /* \"#utility.yul\":16755:16764   */\n      dup4\n        /* \"#utility.yul\":16751:16768   */\n      add\n        /* \"#utility.yul\":16744:16791   */\n      mstore\n        /* \"#utility.yul\":16808:16886   */\n      tag_242\n        /* \"#utility.yul\":16881:16885   */\n      dup2\n        /* \"#utility.yul\":16872:16878   */\n      dup6\n        /* \"#utility.yul\":16808:16886   */\n      tag_76\n      jump\t// in\n    tag_242:\n        /* \"#utility.yul\":16800:16886   */\n      swap1\n      pop\n        /* \"#utility.yul\":16933:16942   */\n      dup2\n        /* \"#utility.yul\":16927:16931   */\n      dup2\n        /* \"#utility.yul\":16923:16943   */\n      sub\n        /* \"#utility.yul\":16918:16920   */\n      0x20\n        /* \"#utility.yul\":16907:16916   */\n      dup4\n        /* \"#utility.yul\":16903:16921   */\n      add\n        /* \"#utility.yul\":16896:16944   */\n      mstore\n        /* \"#utility.yul\":16961:17107   */\n      tag_243\n        /* \"#utility.yul\":17102:17106   */\n      dup2\n        /* \"#utility.yul\":17093:17099   */\n      dup5\n        /* \"#utility.yul\":16961:17107   */\n      tag_83\n      jump\t// in\n    tag_243:\n        /* \"#utility.yul\":16953:17107   */\n      swap1\n      pop\n        /* \"#utility.yul\":16464:17114   */\n      swap4\n      swap3\n      pop\n      pop\n      pop\n      jump\t// out\n\n    auxdata: 0xa26469706673582212205f43ebb226a198e3bbfa63c4fc1c0093b7d7fa01ff91828bbb68e5f55bbafdb564736f6c634300081f0033\n}\n",
				"bytecode": {
					"linkReferences": {},
					"object": "6080604052348015600e575f5ffd5b50610aee8061001c5f395ff3fe608060405234801561000f575f5ffd5b5060043610610034575f3560e01c80635c02f57f146100385780637d64fa9b14610068575b5f5ffd5b610052600480360381019061004d9190610481565b610084565b60405161005f9190610632565b60405180910390f35b610082600480360381019061007d91906107f1565b6100b0565b005b61008c610275565b60405180606001604052808581526020018481526020018381525090509392505050565b5f600182516100bf919061089d565b67ffffffffffffffff8111156100d8576100d76102bf565b5b60405190808252806020026020018201604052801561011157816020015b6100fe610275565b8152602001906001900390816100f65790505b50905060405180606001604052806040518060400160405280600981526020017f74696d657374616d70000000000000000000000000000000000000000000000081525081526020016040518060400160405280600781526020017f75696e74323536000000000000000000000000000000000000000000000000008152508152602001426040516020016101a691906108df565b604051602081830303815290604052815250815f815181106101cb576101ca6108f8565b5b60200260200101819052505f5f90505b8251811015610236578281815181106101f7576101f66108f8565b5b60200260200101518260018361020d919061089d565b8151811061021e5761021d6108f8565b5b602002602001018190525080806001019150506101db565b507fa0e90d936d8818c9c393f2f3945a1cd8ad1f0e87cc5f74a02e922648efff28908382604051610268929190610a83565b60405180910390a1505050565b60405180606001604052806060815260200160608152602001606081525090565b5f604051905090565b5f5ffd5b5f5ffd5b5f5ffd5b5f5ffd5b5f601f19601f8301169050919050565b7f4e487b71000000000000000000000000000000000000000000000000000000005f52604160045260245ffd5b6102f5826102af565b810181811067ffffffffffffffff82111715610314576103136102bf565b5b80604052505050565b5f610326610296565b905061033282826102ec565b919050565b5f67ffffffffffffffff821115610351576103506102bf565b5b61035a826102af565b9050602081019050919050565b828183375f83830152505050565b5f61038761038284610337565b61031d565b9050828152602081018484840111156103a3576103a26102ab565b5b6103ae848285610367565b509392505050565b5f82601f8301126103ca576103c96102a7565b5b81356103da848260208601610375565b91505092915050565b5f67ffffffffffffffff8211156103fd576103fc6102bf565b5b610406826102af565b9050602081019050919050565b5f610425610420846103e3565b61031d565b905082815260208101848484011115610441576104406102ab565b5b61044c848285610367565b509392505050565b5f82601f830112610468576104676102a7565b5b8135610478848260208601610413565b91505092915050565b5f5f5f606084860312156104985761049761029f565b5b5f84013567ffffffffffffffff8111156104b5576104b46102a3565b5b6104c1868287016103b6565b935050602084013567ffffffffffffffff8111156104e2576104e16102a3565b5b6104ee868287016103b6565b925050604084013567ffffffffffffffff81111561050f5761050e6102a3565b5b61051b86828701610454565b9150509250925092565b5f81519050919050565b5f82825260208201905092915050565b8281835e5f83830152505050565b5f61055782610525565b610561818561052f565b935061057181856020860161053f565b61057a816102af565b840191505092915050565b5f81519050919050565b5f82825260208201905092915050565b5f6105a982610585565b6105b3818561058f565b93506105c381856020860161053f565b6105cc816102af565b840191505092915050565b5f606083015f8301518482035f8601526105f1828261054d565b9150506020830151848203602086015261060b828261054d565b91505060408301518482036040860152610625828261059f565b9150508091505092915050565b5f6020820190508181035f83015261064a81846105d7565b905092915050565b5f67ffffffffffffffff82111561066c5761066b6102bf565b5b602082029050602081019050919050565b5f5ffd5b5f5ffd5b5f5ffd5b5f6060828403121561069e5761069d610681565b5b6106a8606061031d565b90505f82013567ffffffffffffffff8111156106c7576106c6610685565b5b6106d3848285016103b6565b5f83015250602082013567ffffffffffffffff8111156106f6576106f5610685565b5b610702848285016103b6565b602083015250604082013567ffffffffffffffff81111561072657610725610685565b5b61073284828501610454565b60408301525092915050565b5f61075061074b84610652565b61031d565b905080838252602082019050602084028301858111156107735761077261067d565b5b835b818110156107ba57803567ffffffffffffffff811115610798576107976102a7565b5b8086016107a58982610689565b85526020850194505050602081019050610775565b5050509392505050565b5f82601f8301126107d8576107d76102a7565b5b81356107e884826020860161073e565b91505092915050565b5f5f604083850312156108075761080661029f565b5b5f83013567ffffffffffffffff811115610824576108236102a3565b5b610830858286016103b6565b925050602083013567ffffffffffffffff811115610851576108506102a3565b5b61085d858286016107c4565b9150509250929050565b5f819050919050565b7f4e487b71000000000000000000000000000000000000000000000000000000005f52601160045260245ffd5b5f6108a782610867565b91506108b283610867565b92508282019050808211156108ca576108c9610870565b5b92915050565b6108d981610867565b82525050565b5f6020820190506108f25f8301846108d0565b92915050565b7f4e487b71000000000000000000000000000000000000000000000000000000005f52603260045260245ffd5b5f82825260208201905092915050565b5f61093f82610525565b6109498185610925565b935061095981856020860161053f565b610962816102af565b840191505092915050565b5f81519050919050565b5f82825260208201905092915050565b5f819050602082019050919050565b5f606083015f8301518482035f8601526109b0828261054d565b915050602083015184820360208601526109ca828261054d565b915050604083015184820360408601526109e4828261059f565b9150508091505092915050565b5f6109fc8383610996565b905092915050565b5f602082019050919050565b5f610a1a8261096d565b610a248185610977565b935083602082028501610a3685610987565b805f5b85811015610a715784840389528151610a5285826109f1565b9450610a5d83610a04565b925060208a01995050600181019050610a39565b50829750879550505050505092915050565b5f6040820190508181035f830152610a9b8185610935565b90508181036020830152610aaf8184610a10565b9050939250505056fea26469706673582212205f43ebb226a198e3bbfa63c4fc1c0093b7d7fa01ff91828bbb68e5f55bbafdb564736f6c634300081f0033",
					"opcodes": "PUSH1 0x80 PUSH1 0x40 MSTORE CALLVALUE DUP1 ISZERO PUSH1 0xE JUMPI PUSH0 PUSH0 REVERT JUMPDEST POP PUSH2 0xAEE DUP1 PUSH2 0x1C PUSH0 CODECOPY PUSH0 RETURN INVALID PUSH1 0x80 PUSH1 0x40 MSTORE CALLVALUE DUP1 ISZERO PUSH2 0xF JUMPI PUSH0 PUSH0 REVERT JUMPDEST POP PUSH1 0x4 CALLDATASIZE LT PUSH2 0x34 JUMPI PUSH0 CALLDATALOAD PUSH1 0xE0 SHR DUP1 PUSH4 0x5C02F57F EQ PUSH2 0x38 JUMPI DUP1 PUSH4 0x7D64FA9B EQ PUSH2 0x68 JUMPI JUMPDEST PUSH0 PUSH0 REVERT JUMPDEST PUSH2 0x52 PUSH1 0x4 DUP1 CALLDATASIZE SUB DUP2 ADD SWAP1 PUSH2 0x4D SWAP2 SWAP1 PUSH2 0x481 JUMP JUMPDEST PUSH2 0x84 JUMP JUMPDEST PUSH1 0x40 MLOAD PUSH2 0x5F SWAP2 SWAP1 PUSH2 0x632 JUMP JUMPDEST PUSH1 0x40 MLOAD DUP1 SWAP2 SUB SWAP1 RETURN JUMPDEST PUSH2 0x82 PUSH1 0x4 DUP1 CALLDATASIZE SUB DUP2 ADD SWAP1 PUSH2 0x7D SWAP2 SWAP1 PUSH2 0x7F1 JUMP JUMPDEST PUSH2 0xB0 JUMP JUMPDEST STOP JUMPDEST PUSH2 0x8C PUSH2 0x275 JUMP JUMPDEST PUSH1 0x40 MLOAD DUP1 PUSH1 0x60 ADD PUSH1 0x40 MSTORE DUP1 DUP6 DUP2 MSTORE PUSH1 0x20 ADD DUP5 DUP2 MSTORE PUSH1 0x20 ADD DUP4 DUP2 MSTORE POP SWAP1 POP SWAP4 SWAP3 POP POP POP JUMP JUMPDEST PUSH0 PUSH1 0x1 DUP3 MLOAD PUSH2 0xBF SWAP2 SWAP1 PUSH2 0x89D JUMP JUMPDEST PUSH8 0xFFFFFFFFFFFFFFFF DUP2 GT ISZERO PUSH2 0xD8 JUMPI PUSH2 0xD7 PUSH2 0x2BF JUMP JUMPDEST JUMPDEST PUSH1 0x40 MLOAD SWAP1 DUP1 DUP3 MSTORE DUP1 PUSH1 0x20 MUL PUSH1 0x20 ADD DUP3 ADD PUSH1 0x40 MSTORE DUP1 ISZERO PUSH2 0x111 JUMPI DUP2 PUSH1 0x20 ADD JUMPDEST PUSH2 0xFE PUSH2 0x275 JUMP JUMPDEST DUP2 MSTORE PUSH1 0x20 ADD SWAP1 PUSH1 0x1 SWAP1 SUB SWAP1 DUP2 PUSH2 0xF6 JUMPI SWAP1 POP JUMPDEST POP SWAP1 POP PUSH1 0x40 MLOAD DUP1 PUSH1 0x60 ADD PUSH1 0x40 MSTORE DUP1 PUSH1 0x40 MLOAD DUP1 PUSH1 0x40 ADD PUSH1 0x40 MSTORE DUP1 PUSH1 0x9 DUP2 MSTORE PUSH1 0x20 ADD PUSH32 0x74696D657374616D700000000000000000000000000000000000000000000000 DUP2 MSTORE POP DUP2 MSTORE PUSH1 0x20 ADD PUSH1 0x40 MLOAD DUP1 PUSH1 0x40 ADD PUSH1 0x40 MSTORE DUP1 PUSH1 0x7 DUP2 MSTORE PUSH1 0x20 ADD PUSH32 0x75696E7432353600000000000000000000000000000000000000000000000000 DUP2 MSTORE POP DUP2 MSTORE PUSH1 0x20 ADD TIMESTAMP PUSH1 0x40 MLOAD PUSH1 0x20 ADD PUSH2 0x1A6 SWAP2 SWAP1 PUSH2 0x8DF JUMP JUMPDEST PUSH1 0x40 MLOAD PUSH1 0x20 DUP2 DUP4 SUB SUB DUP2 MSTORE SWAP1 PUSH1 0x40 MSTORE DUP2 MSTORE POP DUP2 PUSH0 DUP2 MLOAD DUP2 LT PUSH2 0x1CB JUMPI PUSH2 0x1CA PUSH2 0x8F8 JUMP JUMPDEST JUMPDEST PUSH1 0x20 MUL PUSH1 0x20 ADD ADD DUP2 SWAP1 MSTORE POP PUSH0 PUSH0 SWAP1 POP JUMPDEST DUP3 MLOAD DUP2 LT ISZERO PUSH2 0x236 JUMPI DUP3 DUP2 DUP2 MLOAD DUP2 LT PUSH2 0x1F7 JUMPI PUSH2 0x1F6 PUSH2 0x8F8 JUMP JUMPDEST JUMPDEST PUSH1 0x20 MUL PUSH1 0x20 ADD ADD MLOAD DUP3 PUSH1 0x1 DUP4 PUSH2 0x20D SWAP2 SWAP1 PUSH2 0x89D JUMP JUMPDEST DUP2 MLOAD DUP2 LT PUSH2 0x21E JUMPI PUSH2 0x21D PUSH2 0x8F8 JUMP JUMPDEST JUMPDEST PUSH1 0x20 MUL PUSH1 0x20 ADD ADD DUP2 SWAP1 MSTORE POP DUP1 DUP1 PUSH1 0x1 ADD SWAP2 POP POP PUSH2 0x1DB JUMP JUMPDEST POP PUSH32 0xA0E90D936D8818C9C393F2F3945A1CD8AD1F0E87CC5F74A02E922648EFFF2890 DUP4 DUP3 PUSH1 0x40 MLOAD PUSH2 0x268 SWAP3 SWAP2 SWAP1 PUSH2 0xA83 JUMP JUMPDEST PUSH1 0x40 MLOAD DUP1 SWAP2 SUB SWAP1 LOG1 POP POP POP JUMP JUMPDEST PUSH1 0x40 MLOAD DUP1 PUSH1 0x60 ADD PUSH1 0x40 MSTORE DUP1 PUSH1 0x60 DUP2 MSTORE PUSH1 0x20 ADD PUSH1 0x60 DUP2 MSTORE PUSH1 0x20 ADD PUSH1 0x60 DUP2 MSTORE POP SWAP1 JUMP JUMPDEST PUSH0 PUSH1 0x40 MLOAD SWAP1 POP SWAP1 JUMP JUMPDEST PUSH0 PUSH0 REVERT JUMPDEST PUSH0 PUSH0 REVERT JUMPDEST PUSH0 PUSH0 REVERT JUMPDEST PUSH0 PUSH0 REVERT JUMPDEST PUSH0 PUSH1 0x1F NOT PUSH1 0x1F DUP4 ADD AND SWAP1 POP SWAP2 SWAP1 POP JUMP JUMPDEST PUSH32 0x4E487B7100000000000000000000000000000000000000000000000000000000 PUSH0 MSTORE PUSH1 0x41 PUSH1 0x4 MSTORE PUSH1 0x24 PUSH0 REVERT JUMPDEST PUSH2 0x2F5 DUP3 PUSH2 0x2AF JUMP JUMPDEST DUP2 ADD DUP2 DUP2 LT PUSH8 0xFFFFFFFFFFFFFFFF DUP3 GT OR ISZERO PUSH2 0x314 JUMPI PUSH2 0x313 PUSH2 0x2BF JUMP JUMPDEST JUMPDEST DUP1 PUSH1 0x40 MSTORE POP POP POP JUMP JUMPDEST PUSH0 PUSH2 0x326 PUSH2 0x296 JUMP JUMPDEST SWAP1 POP PUSH2 0x332 DUP3 DUP3 PUSH2 0x2EC JUMP JUMPDEST SWAP2 SWAP1 POP JUMP JUMPDEST PUSH0 PUSH8 0xFFFFFFFFFFFFFFFF DUP3 GT ISZERO PUSH2 0x351 JUMPI PUSH2 0x350 PUSH2 0x2BF JUMP JUMPDEST JUMPDEST PUSH2 0x35A DUP3 PUSH2 0x2AF JUMP JUMPDEST SWAP1 POP PUSH1 0x20 DUP2 ADD SWAP1 POP SWAP2 SWAP1 POP JUMP JUMPDEST DUP3 DUP2 DUP4 CALLDATACOPY PUSH0 DUP4 DUP4 ADD MSTORE POP POP POP JUMP JUMPDEST PUSH0 PUSH2 0x387 PUSH2 0x382 DUP5 PUSH2 0x337 JUMP JUMPDEST PUSH2 0x31D JUMP JUMPDEST SWAP1 POP DUP3 DUP2 MSTORE PUSH1 0x20 DUP2 ADD DUP5 DUP5 DUP5 ADD GT ISZERO PUSH2 0x3A3 JUMPI PUSH2 0x3A2 PUSH2 0x2AB JUMP JUMPDEST JUMPDEST PUSH2 0x3AE DUP5 DUP3 DUP6 PUSH2 0x367 JUMP JUMPDEST POP SWAP4 SWAP3 POP POP POP JUMP JUMPDEST PUSH0 DUP3 PUSH1 0x1F DUP4 ADD SLT PUSH2 0x3CA JUMPI PUSH2 0x3C9 PUSH2 0x2A7 JUMP JUMPDEST JUMPDEST DUP2 CALLDATALOAD PUSH2 0x3DA DUP5 DUP3 PUSH1 0x20 DUP7 ADD PUSH2 0x375 JUMP JUMPDEST SWAP2 POP POP SWAP3 SWAP2 POP POP JUMP JUMPDEST PUSH0 PUSH8 0xFFFFFFFFFFFFFFFF DUP3 GT ISZERO PUSH2 0x3FD JUMPI PUSH2 0x3FC PUSH2 0x2BF JUMP JUMPDEST JUMPDEST PUSH2 0x406 DUP3 PUSH2 0x2AF JUMP JUMPDEST SWAP1 POP PUSH1 0x20 DUP2 ADD SWAP1 POP SWAP2 SWAP1 POP JUMP JUMPDEST PUSH0 PUSH2 0x425 PUSH2 0x420 DUP5 PUSH2 0x3E3 JUMP JUMPDEST PUSH2 0x31D JUMP JUMPDEST SWAP1 POP DUP3 DUP2 MSTORE PUSH1 0x20 DUP2 ADD DUP5 DUP5 DUP5 ADD GT ISZERO PUSH2 0x441 JUMPI PUSH2 0x440 PUSH2 0x2AB JUMP JUMPDEST JUMPDEST PUSH2 0x44C DUP5 DUP3 DUP6 PUSH2 0x367 JUMP JUMPDEST POP SWAP4 SWAP3 POP POP POP JUMP JUMPDEST PUSH0 DUP3 PUSH1 0x1F DUP4 ADD SLT PUSH2 0x468 JUMPI PUSH2 0x467 PUSH2 0x2A7 JUMP JUMPDEST JUMPDEST DUP2 CALLDATALOAD PUSH2 0x478 DUP5 DUP3 PUSH1 0x20 DUP7 ADD PUSH2 0x413 JUMP JUMPDEST SWAP2 POP POP SWAP3 SWAP2 POP POP JUMP JUMPDEST PUSH0 PUSH0 PUSH0 PUSH1 0x60 DUP5 DUP7 SUB SLT ISZERO PUSH2 0x498 JUMPI PUSH2 0x497 PUSH2 0x29F JUMP JUMPDEST JUMPDEST PUSH0 DUP5 ADD CALLDATALOAD PUSH8 0xFFFFFFFFFFFFFFFF DUP2 GT ISZERO PUSH2 0x4B5 JUMPI PUSH2 0x4B4 PUSH2 0x2A3 JUMP JUMPDEST JUMPDEST PUSH2 0x4C1 DUP7 DUP3 DUP8 ADD PUSH2 0x3B6 JUMP JUMPDEST SWAP4 POP POP PUSH1 0x20 DUP5 ADD CALLDATALOAD PUSH8 0xFFFFFFFFFFFFFFFF DUP2 GT ISZERO PUSH2 0x4E2 JUMPI PUSH2 0x4E1 PUSH2 0x2A3 JUMP JUMPDEST JUMPDEST PUSH2 0x4EE DUP7 DUP3 DUP8 ADD PUSH2 0x3B6 JUMP JUMPDEST SWAP3 POP POP PUSH1 0x40 DUP5 ADD CALLDATALOAD PUSH8 0xFFFFFFFFFFFFFFFF DUP2 GT ISZERO PUSH2 0x50F JUMPI PUSH2 0x50E PUSH2 0x2A3 JUMP JUMPDEST JUMPDEST PUSH2 0x51B DUP7 DUP3 DUP8 ADD PUSH2 0x454 JUMP JUMPDEST SWAP2 POP POP SWAP3 POP SWAP3 POP SWAP3 JUMP JUMPDEST PUSH0 DUP2 MLOAD SWAP1 POP SWAP2 SWAP1 POP JUMP JUMPDEST PUSH0 DUP3 DUP3 MSTORE PUSH1 0x20 DUP3 ADD SWAP1 POP SWAP3 SWAP2 POP POP JUMP JUMPDEST DUP3 DUP2 DUP4 MCOPY PUSH0 DUP4 DUP4 ADD MSTORE POP POP POP JUMP JUMPDEST PUSH0 PUSH2 0x557 DUP3 PUSH2 0x525 JUMP JUMPDEST PUSH2 0x561 DUP2 DUP6 PUSH2 0x52F JUMP JUMPDEST SWAP4 POP PUSH2 0x571 DUP2 DUP6 PUSH1 0x20 DUP7 ADD PUSH2 0x53F JUMP JUMPDEST PUSH2 0x57A DUP2 PUSH2 0x2AF JUMP JUMPDEST DUP5 ADD SWAP2 POP POP SWAP3 SWAP2 POP POP JUMP JUMPDEST PUSH0 DUP2 MLOAD SWAP1 POP SWAP2 SWAP1 POP JUMP JUMPDEST PUSH0 DUP3 DUP3 MSTORE PUSH1 0x20 DUP3 ADD SWAP1 POP SWAP3 SWAP2 POP POP JUMP JUMPDEST PUSH0 PUSH2 0x5A9 DUP3 PUSH2 0x585 JUMP JUMPDEST PUSH2 0x5B3 DUP2 DUP6 PUSH2 0x58F JUMP JUMPDEST SWAP4 POP PUSH2 0x5C3 DUP2 DUP6 PUSH1 0x20 DUP7 ADD PUSH2 0x53F JUMP JUMPDEST PUSH2 0x5CC DUP2 PUSH2 0x2AF JUMP JUMPDEST DUP5 ADD SWAP2 POP POP SWAP3 SWAP2 POP POP JUMP JUMPDEST PUSH0 PUSH1 0x60 DUP4 ADD PUSH0 DUP4 ADD MLOAD DUP5 DUP3 SUB PUSH0 DUP7 ADD MSTORE PUSH2 0x5F1 DUP3 DUP3 PUSH2 0x54D JUMP JUMPDEST SWAP2 POP POP PUSH1 0x20 DUP4 ADD MLOAD DUP5 DUP3 SUB PUSH1 0x20 DUP7 ADD MSTORE PUSH2 0x60B DUP3 DUP3 PUSH2 0x54D JUMP JUMPDEST SWAP2 POP POP PUSH1 0x40 DUP4 ADD MLOAD DUP5 DUP3 SUB PUSH1 0x40 DUP7 ADD MSTORE PUSH2 0x625 DUP3 DUP3 PUSH2 0x59F JUMP JUMPDEST SWAP2 POP POP DUP1 SWAP2 POP POP SWAP3 SWAP2 POP POP JUMP JUMPDEST PUSH0 PUSH1 0x20 DUP3 ADD SWAP1 POP DUP2 DUP2 SUB PUSH0 DUP4 ADD MSTORE PUSH2 0x64A DUP2 DUP5 PUSH2 0x5D7 JUMP JUMPDEST SWAP1 POP SWAP3 SWAP2 POP POP JUMP JUMPDEST PUSH0 PUSH8 0xFFFFFFFFFFFFFFFF DUP3 GT ISZERO PUSH2 0x66C JUMPI PUSH2 0x66B PUSH2 0x2BF JUMP JUMPDEST JUMPDEST PUSH1 0x20 DUP3 MUL SWAP1 POP PUSH1 0x20 DUP2 ADD SWAP1 POP SWAP2 SWAP1 POP JUMP JUMPDEST PUSH0 PUSH0 REVERT JUMPDEST PUSH0 PUSH0 REVERT JUMPDEST PUSH0 PUSH0 REVERT JUMPDEST PUSH0 PUSH1 0x60 DUP3 DUP5 SUB SLT ISZERO PUSH2 0x69E JUMPI PUSH2 0x69D PUSH2 0x681 JUMP JUMPDEST JUMPDEST PUSH2 0x6A8 PUSH1 0x60 PUSH2 0x31D JUMP JUMPDEST SWAP1 POP PUSH0 DUP3 ADD CALLDATALOAD PUSH8 0xFFFFFFFFFFFFFFFF DUP2 GT ISZERO PUSH2 0x6C7 JUMPI PUSH2 0x6C6 PUSH2 0x685 JUMP JUMPDEST JUMPDEST PUSH2 0x6D3 DUP5 DUP3 DUP6 ADD PUSH2 0x3B6 JUMP JUMPDEST PUSH0 DUP4 ADD MSTORE POP PUSH1 0x20 DUP3 ADD CALLDATALOAD PUSH8 0xFFFFFFFFFFFFFFFF DUP2 GT ISZERO PUSH2 0x6F6 JUMPI PUSH2 0x6F5 PUSH2 0x685 JUMP JUMPDEST JUMPDEST PUSH2 0x702 DUP5 DUP3 DUP6 ADD PUSH2 0x3B6 JUMP JUMPDEST PUSH1 0x20 DUP4 ADD MSTORE POP PUSH1 0x40 DUP3 ADD CALLDATALOAD PUSH8 0xFFFFFFFFFFFFFFFF DUP2 GT ISZERO PUSH2 0x726 JUMPI PUSH2 0x725 PUSH2 0x685 JUMP JUMPDEST JUMPDEST PUSH2 0x732 DUP5 DUP3 DUP6 ADD PUSH2 0x454 JUMP JUMPDEST PUSH1 0x40 DUP4 ADD MSTORE POP SWAP3 SWAP2 POP POP JUMP JUMPDEST PUSH0 PUSH2 0x750 PUSH2 0x74B DUP5 PUSH2 0x652 JUMP JUMPDEST PUSH2 0x31D JUMP JUMPDEST SWAP1 POP DUP1 DUP4 DUP3 MSTORE PUSH1 0x20 DUP3 ADD SWAP1 POP PUSH1 0x20 DUP5 MUL DUP4 ADD DUP6 DUP2 GT ISZERO PUSH2 0x773 JUMPI PUSH2 0x772 PUSH2 0x67D JUMP JUMPDEST JUMPDEST DUP4 JUMPDEST DUP2 DUP2 LT ISZERO PUSH2 0x7BA JUMPI DUP1 CALLDATALOAD PUSH8 0xFFFFFFFFFFFFFFFF DUP2 GT ISZERO PUSH2 0x798 JUMPI PUSH2 0x797 PUSH2 0x2A7 JUMP JUMPDEST JUMPDEST DUP1 DUP7 ADD PUSH2 0x7A5 DUP10 DUP3 PUSH2 0x689 JUMP JUMPDEST DUP6 MSTORE PUSH1 0x20 DUP6 ADD SWAP5 POP POP POP PUSH1 0x20 DUP2 ADD SWAP1 POP PUSH2 0x775 JUMP JUMPDEST POP POP POP SWAP4 SWAP3 POP POP POP JUMP JUMPDEST PUSH0 DUP3 PUSH1 0x1F DUP4 ADD SLT PUSH2 0x7D8 JUMPI PUSH2 0x7D7 PUSH2 0x2A7 JUMP JUMPDEST JUMPDEST DUP2 CALLDATALOAD PUSH2 0x7E8 DUP5 DUP3 PUSH1 0x20 DUP7 ADD PUSH2 0x73E JUMP JUMPDEST SWAP2 POP POP SWAP3 SWAP2 POP POP JUMP JUMPDEST PUSH0 PUSH0 PUSH1 0x40 DUP4 DUP6 SUB SLT ISZERO PUSH2 0x807 JUMPI PUSH2 0x806 PUSH2 0x29F JUMP JUMPDEST JUMPDEST PUSH0 DUP4 ADD CALLDATALOAD PUSH8 0xFFFFFFFFFFFFFFFF DUP2 GT ISZERO PUSH2 0x824 JUMPI PUSH2 0x823 PUSH2 0x2A3 JUMP JUMPDEST JUMPDEST PUSH2 0x830 DUP6 DUP3 DUP7 ADD PUSH2 0x3B6 JUMP JUMPDEST SWAP3 POP POP PUSH1 0x20 DUP4 ADD CALLDATALOAD PUSH8 0xFFFFFFFFFFFFFFFF DUP2 GT ISZERO PUSH2 0x851 JUMPI PUSH2 0x850 PUSH2 0x2A3 JUMP JUMPDEST JUMPDEST PUSH2 0x85D DUP6 DUP3 DUP7 ADD PUSH2 0x7C4 JUMP JUMPDEST SWAP2 POP POP SWAP3 POP SWAP3 SWAP1 POP JUMP JUMPDEST PUSH0 DUP2 SWAP1 POP SWAP2 SWAP1 POP JUMP JUMPDEST PUSH32 0x4E487B7100000000000000000000000000000000000000000000000000000000 PUSH0 MSTORE PUSH1 0x11 PUSH1 0x4 MSTORE PUSH1 0x24 PUSH0 REVERT JUMPDEST PUSH0 PUSH2 0x8A7 DUP3 PUSH2 0x867 JUMP JUMPDEST SWAP2 POP PUSH2 0x8B2 DUP4 PUSH2 0x867 JUMP JUMPDEST SWAP3 POP DUP3 DUP3 ADD SWAP1 POP DUP1 DUP3 GT ISZERO PUSH2 0x8CA JUMPI PUSH2 0x8C9 PUSH2 0x870 JUMP JUMPDEST JUMPDEST SWAP3 SWAP2 POP POP JUMP JUMPDEST PUSH2 0x8D9 DUP2 PUSH2 0x867 JUMP JUMPDEST DUP3 MSTORE POP POP JUMP JUMPDEST PUSH0 PUSH1 0x20 DUP3 ADD SWAP1 POP PUSH2 0x8F2 PUSH0 DUP4 ADD DUP5 PUSH2 0x8D0 JUMP JUMPDEST SWAP3 SWAP2 POP POP JUMP JUMPDEST PUSH32 0x4E487B7100000000000000000000000000000000000000000000000000000000 PUSH0 MSTORE PUSH1 0x32 PUSH1 0x4 MSTORE PUSH1 0x24 PUSH0 REVERT JUMPDEST PUSH0 DUP3 DUP3 MSTORE PUSH1 0x20 DUP3 ADD SWAP1 POP SWAP3 SWAP2 POP POP JUMP JUMPDEST PUSH0 PUSH2 0x93F DUP3 PUSH2 0x525 JUMP JUMPDEST PUSH2 0x949 DUP2 DUP6 PUSH2 0x925 JUMP JUMPDEST SWAP4 POP PUSH2 0x959 DUP2 DUP6 PUSH1 0x20 DUP7 ADD PUSH2 0x53F JUMP JUMPDEST PUSH2 0x962 DUP2 PUSH2 0x2AF JUMP JUMPDEST DUP5 ADD SWAP2 POP POP SWAP3 SWAP2 POP POP JUMP JUMPDEST PUSH0 DUP2 MLOAD SWAP1 POP SWAP2 SWAP1 POP JUMP JUMPDEST PUSH0 DUP3 DUP3 MSTORE PUSH1 0x20 DUP3 ADD SWAP1 POP SWAP3 SWAP2 POP POP JUMP JUMPDEST PUSH0 DUP2 SWAP1 POP PUSH1 0x20 DUP3 ADD SWAP1 POP SWAP2 SWAP1 POP JUMP JUMPDEST PUSH0 PUSH1 0x60 DUP4 ADD PUSH0 DUP4 ADD MLOAD DUP5 DUP3 SUB PUSH0 DUP7 ADD MSTORE PUSH2 0x9B0 DUP3 DUP3 PUSH2 0x54D JUMP JUMPDEST SWAP2 POP POP PUSH1 0x20 DUP4 ADD MLOAD DUP5 DUP3 SUB PUSH1 0x20 DUP7 ADD MSTORE PUSH2 0x9CA DUP3 DUP3 PUSH2 0x54D JUMP JUMPDEST SWAP2 POP POP PUSH1 0x40 DUP4 ADD MLOAD DUP5 DUP3 SUB PUSH1 0x40 DUP7 ADD MSTORE PUSH2 0x9E4 DUP3 DUP3 PUSH2 0x59F JUMP JUMPDEST SWAP2 POP POP DUP1 SWAP2 POP POP SWAP3 SWAP2 POP POP JUMP JUMPDEST PUSH0 PUSH2 0x9FC DUP4 DUP4 PUSH2 0x996 JUMP JUMPDEST SWAP1 POP SWAP3 SWAP2 POP POP JUMP JUMPDEST PUSH0 PUSH1 0x20 DUP3 ADD SWAP1 POP SWAP2 SWAP1 POP JUMP JUMPDEST PUSH0 PUSH2 0xA1A DUP3 PUSH2 0x96D JUMP JUMPDEST PUSH2 0xA24 DUP2 DUP6 PUSH2 0x977 JUMP JUMPDEST SWAP4 POP DUP4 PUSH1 0x20 DUP3 MUL DUP6 ADD PUSH2 0xA36 DUP6 PUSH2 0x987 JUMP JUMPDEST DUP1 PUSH0 JUMPDEST DUP6 DUP2 LT ISZERO PUSH2 0xA71 JUMPI DUP5 DUP5 SUB DUP10 MSTORE DUP2 MLOAD PUSH2 0xA52 DUP6 DUP3 PUSH2 0x9F1 JUMP JUMPDEST SWAP5 POP PUSH2 0xA5D DUP4 PUSH2 0xA04 JUMP JUMPDEST SWAP3 POP PUSH1 0x20 DUP11 ADD SWAP10 POP POP PUSH1 0x1 DUP2 ADD SWAP1 POP PUSH2 0xA39 JUMP JUMPDEST POP DUP3 SWAP8 POP DUP8 SWAP6 POP POP POP POP POP POP SWAP3 SWAP2 POP POP JUMP JUMPDEST PUSH0 PUSH1 0x40 DUP3 ADD SWAP1 POP DUP2 DUP2 SUB PUSH0 DUP4 ADD MSTORE PUSH2 0xA9B DUP2 DUP6 PUSH2 0x935 JUMP JUMPDEST SWAP1 POP DUP2 DUP2 SUB PUSH1 0x20 DUP4 ADD MSTORE PUSH2 0xAAF DUP2 DUP5 PUSH2 0xA10 JUMP JUMPDEST SWAP1 POP SWAP4 SWAP3 POP POP POP JUMP INVALID LOG2 PUSH5 0x6970667358 0x22 SLT KECCAK256 PUSH0 NUMBER 0xEB 0xB2 0x26 LOG1 SWAP9 CALLF 0xBBFA PUSH4 0xC4FC1C00 SWAP4 0xB7 0xD7 STATICCALL ADD SELFDESTRUCT SWAP2 DUP3 DUP12 0xBB PUSH9 0xE5F55BBAFDB564736F PUSH13 0x634300081F0033000000000000 "
				},
				"gasEstimates": {
					"creation": {
						"codeDepositCost": "559600",
						"executionCost": "592",
						"totalCost": "560192"
					},
					"external": {
						"createDataStruct(string,string,bytes)": "infinite",
						"emitVaultEvent(string,(string,string,bytes)[])": "infinite"
					}
				},
				"methodIdentifiers": {
					"createDataStruct(string,string,bytes)": "5c02f57f",
					"emitVaultEvent(string,(string,string,bytes)[])": "7d64fa9b"
				}
			},
			"storageLayout": {
				"storage": [],
				"types": null
			},
			"userdoc": {
				"kind": "user",
				"methods": {},
				"version": 1
			}
		}
	}
}