{
	"Evm/zk/balance_verifier.sol": {
		"Verifier": {
			"abi": [
				{
					"inputs": [],
					"name": "ProofInvalid",
					"type": "error"
				},
				{
					"inputs": [],
					"name": "PublicInputNotInField",
					"type": "error"
				},
				{
					"inputs": [
						{
							"internalType": "uint256[8]",
							"name": "proof",
							"type": "uint256[8]"
						}
					],
					"name": "compressProof",
					"outputs": [
						{
							"internalType": "uint256[4]",
							"name": "compressed",
							"type": "uint256[4]"
						}
					],
					"stateMutability": "view",
					"type": "function"
				},
				{
					"inputs": [
						{
							"internalType": "uint256[4]",
							"name": "compressedProof",
							"type": "uint256[4]"
						},
						{
							"internalType": "uint256[6]",
							"name": "input",
							"type": "uint256[6]"
						}
					],
					"name": "verifyCompressedProof",
					"outputs": [],
					"stateMutability": "view",
					"type": "function"
				},
				{
					"inputs": [
						{
							"internalType": "uint256[8]",
							"name": "proof",
							"type": "uint256[8]"
						},
						{
							"internalType": "uint256[6]",
							"name": "input",
							"type": "uint256[6]"
						}
					],
					"name": "verifyProof",
					"outputs": [],
					"stateMutability": "view",
					"type": "function"
				}
			],
			"devdoc": {
				"author": "Remco Bloemen",
				"errors": {
					"ProofInvalid()": [
						{
							"details": "This can mean that provided Groth16 proof points are not on their curves, that pairing equation fails, or that the proof is not for the provided public input."
						}
					],
					"PublicInputNotInField()": [
						{
							"details": "Public input elements are not automatically reduced, as this is can be a dangerous source of bugs."
						}
					]
				},
				"kind": "dev",
				"methods": {
					"compressProof(uint256[8])": {
						"params": {
							"proof": "The uncompressed Groth16 proof. Elements are in the same order as for verifyProof. I.e. Groth16 points (A, B, C) encoded as in EIP-197."
						},
						"returns": {
							"compressed": "The compressed proof. Elements are in the same order as for verifyCompressedProof. I.e. points (A, B, C) in compressed format."
						}
					},
					"verifyCompressedProof(uint256[4],uint256[6])": {
						"params": {
							"compressedProof": "the points (A, B, C) in compressed format matching the output of compressProof.",
							"input": "the public input field elements in the scalar field Fr. Elements must be reduced."
						}
					},
					"verifyProof(uint256[8],uint256[6])": {
						"params": {
							"input": "the public input field elements in the scalar field Fr. Elements must be reduced.",
							"proof": "the points (A, B, C) in EIP-197 format matching the output of compressProof."
						}
					}
				},
				"title": "Groth16 verifier template.",
				"version": 1
			},
			"evm": {
				"assembly": "    /* \"Evm/zk/balance_verifier.sol\":394:27789  contract Verifier {... */\n  mstore(0x40, 0x80)\n  callvalue\n  dup1\n  iszero\n  tag_1\n  jumpi\n  revert(0x00, 0x00)\ntag_1:\n  pop\n  dataSize(sub_0)\n  dup1\n  dataOffset(sub_0)\n  0x00\n  codecopy\n  0x00\n  return\nstop\n\nsub_0: assembly {\n        /* \"Evm/zk/balance_verifier.sol\":394:27789  contract Verifier {... */\n      mstore(0x40, 0x80)\n      callvalue\n      dup1\n      iszero\n      tag_1\n      jumpi\n      revert(0x00, 0x00)\n    tag_1:\n      pop\n      jumpi(tag_2, lt(calldatasize, 0x04))\n      shr(0xe0, calldataload(0x00))\n      dup1\n      0x44f63692\n      eq\n      tag_3\n      jumpi\n      dup1\n      0x9cb28658\n      eq\n      tag_4\n      jumpi\n      dup1\n      0xf7169189\n      eq\n      tag_5\n      jumpi\n    tag_2:\n      revert(0x00, 0x00)\n        /* \"Evm/zk/balance_verifier.sol\":21889:22214  function compressProof(uint256[8] calldata proof)... */\n    tag_3:\n      tag_6\n      0x04\n      dup1\n      calldatasize\n      sub\n      dup2\n      add\n      swap1\n      tag_7\n      swap2\n      swap1\n      tag_8\n      jump\t// in\n    tag_7:\n      tag_9\n      jump\t// in\n    tag_6:\n      mload(0x40)\n      tag_10\n      swap2\n      swap1\n      tag_11\n      jump\t// in\n    tag_10:\n      mload(0x40)\n      dup1\n      swap2\n      sub\n      swap1\n      return\n        /* \"Evm/zk/balance_verifier.sol\":25612:27786  function verifyProof(... */\n    tag_4:\n      tag_12\n      0x04\n      dup1\n      calldatasize\n      sub\n      dup2\n      add\n      swap1\n      tag_13\n      swap2\n      swap1\n      tag_14\n      jump\t// in\n    tag_13:\n      tag_15\n      jump\t// in\n    tag_12:\n      stop\n        /* \"Evm/zk/balance_verifier.sol\":22773:25075  function verifyCompressedProof(... */\n    tag_5:\n      tag_16\n      0x04\n      dup1\n      calldatasize\n      sub\n      dup2\n      add\n      swap1\n      tag_17\n      swap2\n      swap1\n      tag_18\n      jump\t// in\n    tag_17:\n      tag_19\n      jump\t// in\n    tag_16:\n      stop\n        /* \"Evm/zk/balance_verifier.sol\":21889:22214  function compressProof(uint256[8] calldata proof)... */\n    tag_9:\n        /* \"Evm/zk/balance_verifier.sol\":21965:21993  uint256[4] memory compressed */\n      tag_20\n      tag_21\n      jump\t// in\n    tag_20:\n        /* \"Evm/zk/balance_verifier.sol\":22022:22053  compress_g1(proof[0], proof[1]) */\n      tag_23\n        /* \"Evm/zk/balance_verifier.sol\":22034:22039  proof */\n      dup3\n        /* \"Evm/zk/balance_verifier.sol\":22040:22041  0 */\n      0x00\n        /* \"Evm/zk/balance_verifier.sol\":22034:22042  proof[0] */\n      0x08\n      dup2\n      lt\n      tag_24\n      jumpi\n      tag_25\n      tag_26\n      jump\t// in\n    tag_25:\n    tag_24:\n      0x20\n      mul\n      add\n      calldataload\n        /* \"Evm/zk/balance_verifier.sol\":22044:22049  proof */\n      dup4\n        /* \"Evm/zk/balance_verifier.sol\":22050:22051  1 */\n      0x01\n        /* \"Evm/zk/balance_verifier.sol\":22044:22052  proof[1] */\n      0x08\n      dup2\n      lt\n      tag_27\n      jumpi\n      tag_28\n      tag_26\n      jump\t// in\n    tag_28:\n    tag_27:\n      0x20\n      mul\n      add\n      calldataload\n        /* \"Evm/zk/balance_verifier.sol\":22022:22033  compress_g1 */\n      tag_29\n        /* \"Evm/zk/balance_verifier.sol\":22022:22053  compress_g1(proof[0], proof[1]) */\n      jump\t// in\n    tag_23:\n        /* \"Evm/zk/balance_verifier.sol\":22006:22016  compressed */\n      dup2\n        /* \"Evm/zk/balance_verifier.sol\":22017:22018  0 */\n      0x00\n        /* \"Evm/zk/balance_verifier.sol\":22006:22019  compressed[0] */\n      0x04\n      dup2\n      lt\n      tag_30\n      jumpi\n      tag_31\n      tag_26\n      jump\t// in\n    tag_31:\n    tag_30:\n      0x20\n      mul\n      add\n        /* \"Evm/zk/balance_verifier.sol\":22006:22053  compressed[0] = compress_g1(proof[0], proof[1]) */\n      dup2\n      dup2\n      mstore\n      pop\n      pop\n        /* \"Evm/zk/balance_verifier.sol\":22097:22148  compress_g2(proof[3], proof[2], proof[5], proof[4]) */\n      tag_32\n        /* \"Evm/zk/balance_verifier.sol\":22109:22114  proof */\n      dup3\n        /* \"Evm/zk/balance_verifier.sol\":22115:22116  3 */\n      0x03\n        /* \"Evm/zk/balance_verifier.sol\":22109:22117  proof[3] */\n      0x08\n      dup2\n      lt\n      tag_33\n      jumpi\n      tag_34\n      tag_26\n      jump\t// in\n    tag_34:\n    tag_33:\n      0x20\n      mul\n      add\n      calldataload\n        /* \"Evm/zk/balance_verifier.sol\":22119:22124  proof */\n      dup4\n        /* \"Evm/zk/balance_verifier.sol\":22125:22126  2 */\n      0x02\n        /* \"Evm/zk/balance_verifier.sol\":22119:22127  proof[2] */\n      0x08\n      dup2\n      lt\n      tag_35\n      jumpi\n      tag_36\n      tag_26\n      jump\t// in\n    tag_36:\n    tag_35:\n      0x20\n      mul\n      add\n      calldataload\n        /* \"Evm/zk/balance_verifier.sol\":22129:22134  proof */\n      dup5\n        /* \"Evm/zk/balance_verifier.sol\":22135:22136  5 */\n      0x05\n        /* \"Evm/zk/balance_verifier.sol\":22129:22137  proof[5] */\n      0x08\n      dup2\n      lt\n      tag_37\n      jumpi\n      tag_38\n      tag_26\n      jump\t// in\n    tag_38:\n    tag_37:\n      0x20\n      mul\n      add\n      calldataload\n        /* \"Evm/zk/balance_verifier.sol\":22139:22144  proof */\n      dup6\n        /* \"Evm/zk/balance_verifier.sol\":22145:22146  4 */\n      0x04\n        /* \"Evm/zk/balance_verifier.sol\":22139:22147  proof[4] */\n      0x08\n      dup2\n      lt\n      tag_39\n      jumpi\n      tag_40\n      tag_26\n      jump\t// in\n    tag_40:\n    tag_39:\n      0x20\n      mul\n      add\n      calldataload\n        /* \"Evm/zk/balance_verifier.sol\":22097:22108  compress_g2 */\n      tag_41\n        /* \"Evm/zk/balance_verifier.sol\":22097:22148  compress_g2(proof[3], proof[2], proof[5], proof[4]) */\n      jump\t// in\n    tag_32:\n        /* \"Evm/zk/balance_verifier.sol\":22065:22075  compressed */\n      dup3\n        /* \"Evm/zk/balance_verifier.sol\":22076:22077  2 */\n      0x02\n        /* \"Evm/zk/balance_verifier.sol\":22065:22078  compressed[2] */\n      0x04\n      dup2\n      lt\n      tag_42\n      jumpi\n      tag_43\n      tag_26\n      jump\t// in\n    tag_43:\n    tag_42:\n      0x20\n      mul\n      add\n        /* \"Evm/zk/balance_verifier.sol\":22080:22090  compressed */\n      dup4\n        /* \"Evm/zk/balance_verifier.sol\":22091:22092  1 */\n      0x01\n        /* \"Evm/zk/balance_verifier.sol\":22080:22093  compressed[1] */\n      0x04\n      dup2\n      lt\n      tag_44\n      jumpi\n      tag_45\n      tag_26\n      jump\t// in\n    tag_45:\n    tag_44:\n      0x20\n      mul\n      add\n        /* \"Evm/zk/balance_verifier.sol\":22064:22148  (compressed[2], compressed[1]) = compress_g2(proof[3], proof[2], proof[5], proof[4]) */\n      dup3\n      dup2\n      mstore\n      pop\n      dup3\n      dup2\n      mstore\n      pop\n      pop\n      pop\n        /* \"Evm/zk/balance_verifier.sol\":22175:22206  compress_g1(proof[6], proof[7]) */\n      tag_46\n        /* \"Evm/zk/balance_verifier.sol\":22187:22192  proof */\n      dup3\n        /* \"Evm/zk/balance_verifier.sol\":22193:22194  6 */\n      0x06\n        /* \"Evm/zk/balance_verifier.sol\":22187:22195  proof[6] */\n      0x08\n      dup2\n      lt\n      tag_47\n      jumpi\n      tag_48\n      tag_26\n      jump\t// in\n    tag_48:\n    tag_47:\n      0x20\n      mul\n      add\n      calldataload\n        /* \"Evm/zk/balance_verifier.sol\":22197:22202  proof */\n      dup4\n        /* \"Evm/zk/balance_verifier.sol\":22203:22204  7 */\n      0x07\n        /* \"Evm/zk/balance_verifier.sol\":22197:22205  proof[7] */\n      0x08\n      dup2\n      lt\n      tag_49\n      jumpi\n      tag_50\n      tag_26\n      jump\t// in\n    tag_50:\n    tag_49:\n      0x20\n      mul\n      add\n      calldataload\n        /* \"Evm/zk/balance_verifier.sol\":22175:22186  compress_g1 */\n      tag_29\n        /* \"Evm/zk/balance_verifier.sol\":22175:22206  compress_g1(proof[6], proof[7]) */\n      jump\t// in\n    tag_46:\n        /* \"Evm/zk/balance_verifier.sol\":22159:22169  compressed */\n      dup2\n        /* \"Evm/zk/balance_verifier.sol\":22170:22171  3 */\n      0x03\n        /* \"Evm/zk/balance_verifier.sol\":22159:22172  compressed[3] */\n      0x04\n      dup2\n      lt\n      tag_51\n      jumpi\n      tag_52\n      tag_26\n      jump\t// in\n    tag_52:\n    tag_51:\n      0x20\n      mul\n      add\n        /* \"Evm/zk/balance_verifier.sol\":22159:22206  compressed[3] = compress_g1(proof[6], proof[7]) */\n      dup2\n      dup2\n      mstore\n      pop\n      pop\n        /* \"Evm/zk/balance_verifier.sol\":21889:22214  function compressProof(uint256[8] calldata proof)... */\n      swap2\n      swap1\n      pop\n      jump\t// out\n        /* \"Evm/zk/balance_verifier.sol\":25612:27786  function verifyProof(... */\n    tag_15:\n        /* \"Evm/zk/balance_verifier.sol\":25736:25745  uint256 x */\n      0x00\n        /* \"Evm/zk/balance_verifier.sol\":25747:25756  uint256 y */\n      0x00\n        /* \"Evm/zk/balance_verifier.sol\":25760:25781  publicInputMSM(input) */\n      tag_54\n        /* \"Evm/zk/balance_verifier.sol\":25775:25780  input */\n      dup4\n        /* \"Evm/zk/balance_verifier.sol\":25760:25774  publicInputMSM */\n      tag_55\n        /* \"Evm/zk/balance_verifier.sol\":25760:25781  publicInputMSM(input) */\n      jump\t// in\n    tag_54:\n        /* \"Evm/zk/balance_verifier.sol\":25735:25781  (uint256 x, uint256 y) = publicInputMSM(input) */\n      swap2\n      pop\n      swap2\n      pop\n        /* \"Evm/zk/balance_verifier.sol\":25972:25984  bool success */\n      0x00\n        /* \"Evm/zk/balance_verifier.sol\":26050:26054  0x40 */\n      0x40\n        /* \"Evm/zk/balance_verifier.sol\":26044:26055  mload(0x40) */\n      mload\n        /* \"Evm/zk/balance_verifier.sol\":26266:26271  0x100 */\n      0x0100\n        /* \"Evm/zk/balance_verifier.sol\":26259:26264  proof */\n      dup7\n        /* \"Evm/zk/balance_verifier.sol\":26256:26257  f */\n      dup3\n        /* \"Evm/zk/balance_verifier.sol\":26243:26272  calldatacopy(f, proof, 0x100) */\n      calldatacopy\n        /* \"Evm/zk/balance_verifier.sol\":26580:26593  DELTA_NEG_X_1 */\n      0x267a9ae1b2d0fcc4e22c694eca32ee7044c119c84827966d1250dc68bec9addd\n        /* \"Evm/zk/balance_verifier.sol\":26572:26577  0x100 */\n      0x0100\n        /* \"Evm/zk/balance_verifier.sol\":26569:26570  f */\n      dup3\n        /* \"Evm/zk/balance_verifier.sol\":26565:26578  add(f, 0x100) */\n      add\n        /* \"Evm/zk/balance_verifier.sol\":26558:26594  mstore(add(f, 0x100), DELTA_NEG_X_1) */\n      mstore\n        /* \"Evm/zk/balance_verifier.sol\":26630:26643  DELTA_NEG_X_0 */\n      0x10f6afa1ca50762bbc102f06731886183687c5ee4b2cb47507ac83b4e0b664f2\n        /* \"Evm/zk/balance_verifier.sol\":26622:26627  0x120 */\n      0x0120\n        /* \"Evm/zk/balance_verifier.sol\":26619:26620  f */\n      dup3\n        /* \"Evm/zk/balance_verifier.sol\":26615:26628  add(f, 0x120) */\n      add\n        /* \"Evm/zk/balance_verifier.sol\":26608:26644  mstore(add(f, 0x120), DELTA_NEG_X_0) */\n      mstore\n        /* \"Evm/zk/balance_verifier.sol\":26680:26693  DELTA_NEG_Y_1 */\n      0x15358c574f96edf68df06cabae3c4cb00adc2e2eab5245290af8fb5b2dc0b229\n        /* \"Evm/zk/balance_verifier.sol\":26672:26677  0x140 */\n      0x0140\n        /* \"Evm/zk/balance_verifier.sol\":26669:26670  f */\n      dup3\n        /* \"Evm/zk/balance_verifier.sol\":26665:26678  add(f, 0x140) */\n      add\n        /* \"Evm/zk/balance_verifier.sol\":26658:26694  mstore(add(f, 0x140), DELTA_NEG_Y_1) */\n      mstore\n        /* \"Evm/zk/balance_verifier.sol\":26730:26743  DELTA_NEG_Y_0 */\n      0x0c1b7c51d79f846153f0c5e76c05ee15a6a8bab03bb6fa34c39d8f5ddd9aac07\n        /* \"Evm/zk/balance_verifier.sol\":26722:26727  0x160 */\n      0x0160\n        /* \"Evm/zk/balance_verifier.sol\":26719:26720  f */\n      dup3\n        /* \"Evm/zk/balance_verifier.sol\":26715:26728  add(f, 0x160) */\n      add\n        /* \"Evm/zk/balance_verifier.sol\":26708:26744  mstore(add(f, 0x160), DELTA_NEG_Y_0) */\n      mstore\n        /* \"Evm/zk/balance_verifier.sol\":26780:26787  ALPHA_X */\n      0x25cadd1ff7f7b466608d5f19b15358b7adbfe18abf80af5b19441ccba74ec6fb\n        /* \"Evm/zk/balance_verifier.sol\":26772:26777  0x180 */\n      0x0180\n        /* \"Evm/zk/balance_verifier.sol\":26769:26770  f */\n      dup3\n        /* \"Evm/zk/balance_verifier.sol\":26765:26778  add(f, 0x180) */\n      add\n        /* \"Evm/zk/balance_verifier.sol\":26758:26788  mstore(add(f, 0x180), ALPHA_X) */\n      mstore\n        /* \"Evm/zk/balance_verifier.sol\":26824:26831  ALPHA_Y */\n      0x1dbf3f58f922e78c223d7abb22c18f9933576a2cddc483d7bd9e6f78f811cc2b\n        /* \"Evm/zk/balance_verifier.sol\":26816:26821  0x1a0 */\n      0x01a0\n        /* \"Evm/zk/balance_verifier.sol\":26813:26814  f */\n      dup3\n        /* \"Evm/zk/balance_verifier.sol\":26809:26822  add(f, 0x1a0) */\n      add\n        /* \"Evm/zk/balance_verifier.sol\":26802:26832  mstore(add(f, 0x1a0), ALPHA_Y) */\n      mstore\n        /* \"Evm/zk/balance_verifier.sol\":26868:26880  BETA_NEG_X_1 */\n      0x036d68dae931774bc17466b7739ab82092ac6d52e5d226156dec1b0fc63deac7\n        /* \"Evm/zk/balance_verifier.sol\":26860:26865  0x1c0 */\n      0x01c0\n        /* \"Evm/zk/balance_verifier.sol\":26857:26858  f */\n      dup3\n        /* \"Evm/zk/balance_verifier.sol\":26853:26866  add(f, 0x1c0) */\n      add\n        /* \"Evm/zk/balance_verifier.sol\":26846:26881  mstore(add(f, 0x1c0), BETA_NEG_X_1) */\n      mstore\n        /* \"Evm/zk/balance_verifier.sol\":26917:26929  BETA_NEG_X_0 */\n      0x2f92bda66a928694edaa48859a33ab517770e83643461dc757f34db039732ad2\n        /* \"Evm/zk/balance_verifier.sol\":26909:26914  0x1e0 */\n      0x01e0\n        /* \"Evm/zk/balance_verifier.sol\":26906:26907  f */\n      dup3\n        /* \"Evm/zk/balance_verifier.sol\":26902:26915  add(f, 0x1e0) */\n      add\n        /* \"Evm/zk/balance_verifier.sol\":26895:26930  mstore(add(f, 0x1e0), BETA_NEG_X_0) */\n      mstore\n        /* \"Evm/zk/balance_verifier.sol\":26966:26978  BETA_NEG_Y_1 */\n      0x1057d78ef24b1890f58f94d246bb4b821946e38acd1bef7020c405ad8adc8743\n        /* \"Evm/zk/balance_verifier.sol\":26958:26963  0x200 */\n      0x0200\n        /* \"Evm/zk/balance_verifier.sol\":26955:26956  f */\n      dup3\n        /* \"Evm/zk/balance_verifier.sol\":26951:26964  add(f, 0x200) */\n      add\n        /* \"Evm/zk/balance_verifier.sol\":26944:26979  mstore(add(f, 0x200), BETA_NEG_Y_1) */\n      mstore\n        /* \"Evm/zk/balance_verifier.sol\":27015:27027  BETA_NEG_Y_0 */\n      0x0bf77132187e8699315dcda058bbfe5fdbde23f279e83c94d0db3b9172f58e5b\n        /* \"Evm/zk/balance_verifier.sol\":27007:27012  0x220 */\n      0x0220\n        /* \"Evm/zk/balance_verifier.sol\":27004:27005  f */\n      dup3\n        /* \"Evm/zk/balance_verifier.sol\":27000:27013  add(f, 0x220) */\n      add\n        /* \"Evm/zk/balance_verifier.sol\":26993:27028  mstore(add(f, 0x220), BETA_NEG_Y_0) */\n      mstore\n        /* \"Evm/zk/balance_verifier.sol\":27064:27065  x */\n      dup4\n        /* \"Evm/zk/balance_verifier.sol\":27056:27061  0x240 */\n      0x0240\n        /* \"Evm/zk/balance_verifier.sol\":27053:27054  f */\n      dup3\n        /* \"Evm/zk/balance_verifier.sol\":27049:27062  add(f, 0x240) */\n      add\n        /* \"Evm/zk/balance_verifier.sol\":27042:27066  mstore(add(f, 0x240), x) */\n      mstore\n        /* \"Evm/zk/balance_verifier.sol\":27102:27103  y */\n      dup3\n        /* \"Evm/zk/balance_verifier.sol\":27094:27099  0x260 */\n      0x0260\n        /* \"Evm/zk/balance_verifier.sol\":27091:27092  f */\n      dup3\n        /* \"Evm/zk/balance_verifier.sol\":27087:27100  add(f, 0x260) */\n      add\n        /* \"Evm/zk/balance_verifier.sol\":27080:27104  mstore(add(f, 0x260), y) */\n      mstore\n        /* \"Evm/zk/balance_verifier.sol\":27140:27153  GAMMA_NEG_X_1 */\n      0x1288f41e0adc6f78313bfb8bb461590f1a78654495ee90e41073214fa3ba2d10\n        /* \"Evm/zk/balance_verifier.sol\":27132:27137  0x280 */\n      0x0280\n        /* \"Evm/zk/balance_verifier.sol\":27129:27130  f */\n      dup3\n        /* \"Evm/zk/balance_verifier.sol\":27125:27138  add(f, 0x280) */\n      add\n        /* \"Evm/zk/balance_verifier.sol\":27118:27154  mstore(add(f, 0x280), GAMMA_NEG_X_1) */\n      mstore\n        /* \"Evm/zk/balance_verifier.sol\":27190:27203  GAMMA_NEG_X_0 */\n      0x227ecb8af66443261e4551f1c34d0f80f1920fe277d527e6c0d171df07bc990e\n        /* \"Evm/zk/balance_verifier.sol\":27182:27187  0x2a0 */\n      0x02a0\n        /* \"Evm/zk/balance_verifier.sol\":27179:27180  f */\n      dup3\n        /* \"Evm/zk/balance_verifier.sol\":27175:27188  add(f, 0x2a0) */\n      add\n        /* \"Evm/zk/balance_verifier.sol\":27168:27204  mstore(add(f, 0x2a0), GAMMA_NEG_X_0) */\n      mstore\n        /* \"Evm/zk/balance_verifier.sol\":27240:27253  GAMMA_NEG_Y_1 */\n      0x081d53a6dacd3e2e8c8eeb1b7821536ed6e483bb9ed9b9823d086066c513109a\n        /* \"Evm/zk/balance_verifier.sol\":27232:27237  0x2c0 */\n      0x02c0\n        /* \"Evm/zk/balance_verifier.sol\":27229:27230  f */\n      dup3\n        /* \"Evm/zk/balance_verifier.sol\":27225:27238  add(f, 0x2c0) */\n      add\n        /* \"Evm/zk/balance_verifier.sol\":27218:27254  mstore(add(f, 0x2c0), GAMMA_NEG_Y_1) */\n      mstore\n        /* \"Evm/zk/balance_verifier.sol\":27290:27303  GAMMA_NEG_Y_0 */\n      0x0a00d774cd2b89fb4ccde579b70a4e6afbd80ff3dee51dd214cd094b3b3214a9\n        /* \"Evm/zk/balance_verifier.sol\":27282:27287  0x2e0 */\n      0x02e0\n        /* \"Evm/zk/balance_verifier.sol\":27279:27280  f */\n      dup3\n        /* \"Evm/zk/balance_verifier.sol\":27275:27288  add(f, 0x2e0) */\n      add\n        /* \"Evm/zk/balance_verifier.sol\":27268:27304  mstore(add(f, 0x2e0), GAMMA_NEG_Y_0) */\n      mstore\n        /* \"Evm/zk/balance_verifier.sol\":27421:27425  0x20 */\n      0x20\n        /* \"Evm/zk/balance_verifier.sol\":27418:27419  f */\n      dup2\n        /* \"Evm/zk/balance_verifier.sol\":27411:27416  0x300 */\n      0x0300\n        /* \"Evm/zk/balance_verifier.sol\":27408:27409  f */\n      dup4\n        /* \"Evm/zk/balance_verifier.sol\":27389:27406  PRECOMPILE_VERIFY */\n      0x08\n        /* \"Evm/zk/balance_verifier.sol\":27382:27387  gas() */\n      gas\n        /* \"Evm/zk/balance_verifier.sol\":27371:27426  staticcall(gas(), PRECOMPILE_VERIFY, f, 0x300, f, 0x20) */\n      staticcall\n        /* \"Evm/zk/balance_verifier.sol\":27360:27426  success := staticcall(gas(), PRECOMPILE_VERIFY, f, 0x300, f, 0x20) */\n      swap2\n      pop\n        /* \"Evm/zk/balance_verifier.sol\":27538:27539  f */\n      dup1\n        /* \"Evm/zk/balance_verifier.sol\":27532:27540  mload(f) */\n      mload\n        /* \"Evm/zk/balance_verifier.sol\":27523:27530  success */\n      dup3\n        /* \"Evm/zk/balance_verifier.sol\":27519:27541  and(success, mload(f)) */\n      and\n        /* \"Evm/zk/balance_verifier.sol\":27508:27541  success := and(success, mload(f)) */\n      swap2\n      pop\n        /* \"Evm/zk/balance_verifier.sol\":26020:27552  {... */\n      pop\n        /* \"Evm/zk/balance_verifier.sol\":27567:27574  success */\n      dup1\n        /* \"Evm/zk/balance_verifier.sol\":27562:27779  if (!success) {... */\n      tag_56\n      jumpi\n        /* \"Evm/zk/balance_verifier.sol\":27753:27767  ProofInvalid() */\n      mload(0x40)\n      0x7fcdd1f400000000000000000000000000000000000000000000000000000000\n      dup2\n      mstore\n      0x04\n      add\n      mload(0x40)\n      dup1\n      swap2\n      sub\n      swap1\n      revert\n        /* \"Evm/zk/balance_verifier.sol\":27562:27779  if (!success) {... */\n    tag_56:\n        /* \"Evm/zk/balance_verifier.sol\":25724:27786  {... */\n      pop\n      pop\n      pop\n        /* \"Evm/zk/balance_verifier.sol\":25612:27786  function verifyProof(... */\n      pop\n      pop\n      jump\t// out\n        /* \"Evm/zk/balance_verifier.sol\":22773:25075  function verifyCompressedProof(... */\n    tag_19:\n        /* \"Evm/zk/balance_verifier.sol\":22916:22943  uint256[24] memory pairings */\n      tag_58\n      tag_59\n      jump\t// in\n    tag_58:\n        /* \"Evm/zk/balance_verifier.sol\":22972:22982  uint256 Ax */\n      0x00\n        /* \"Evm/zk/balance_verifier.sol\":22984:22994  uint256 Ay */\n      0x00\n        /* \"Evm/zk/balance_verifier.sol\":22998:23031  decompress_g1(compressedProof[0]) */\n      tag_60\n        /* \"Evm/zk/balance_verifier.sol\":23012:23027  compressedProof */\n      dup6\n        /* \"Evm/zk/balance_verifier.sol\":23028:23029  0 */\n      0x00\n        /* \"Evm/zk/balance_verifier.sol\":23012:23030  compressedProof[0] */\n      0x04\n      dup2\n      lt\n      tag_61\n      jumpi\n      tag_62\n      tag_26\n      jump\t// in\n    tag_62:\n    tag_61:\n      0x20\n      mul\n      add\n      calldataload\n        /* \"Evm/zk/balance_verifier.sol\":22998:23011  decompress_g1 */\n      tag_63\n        /* \"Evm/zk/balance_verifier.sol\":22998:23031  decompress_g1(compressedProof[0]) */\n      jump\t// in\n    tag_60:\n        /* \"Evm/zk/balance_verifier.sol\":22971:23031  (uint256 Ax, uint256 Ay) = decompress_g1(compressedProof[0]) */\n      swap2\n      pop\n      swap2\n      pop\n        /* \"Evm/zk/balance_verifier.sol\":23047:23058  uint256 Bx0 */\n      0x00\n        /* \"Evm/zk/balance_verifier.sol\":23060:23071  uint256 Bx1 */\n      0x00\n        /* \"Evm/zk/balance_verifier.sol\":23073:23084  uint256 By0 */\n      0x00\n        /* \"Evm/zk/balance_verifier.sol\":23086:23097  uint256 By1 */\n      0x00\n        /* \"Evm/zk/balance_verifier.sol\":23101:23154  decompress_g2(compressedProof[2], compressedProof[1]) */\n      tag_64\n        /* \"Evm/zk/balance_verifier.sol\":23115:23130  compressedProof */\n      dup10\n        /* \"Evm/zk/balance_verifier.sol\":23131:23132  2 */\n      0x02\n        /* \"Evm/zk/balance_verifier.sol\":23115:23133  compressedProof[2] */\n      0x04\n      dup2\n      lt\n      tag_65\n      jumpi\n      tag_66\n      tag_26\n      jump\t// in\n    tag_66:\n    tag_65:\n      0x20\n      mul\n      add\n      calldataload\n        /* \"Evm/zk/balance_verifier.sol\":23135:23150  compressedProof */\n      dup11\n        /* \"Evm/zk/balance_verifier.sol\":23151:23152  1 */\n      0x01\n        /* \"Evm/zk/balance_verifier.sol\":23135:23153  compressedProof[1] */\n      0x04\n      dup2\n      lt\n      tag_67\n      jumpi\n      tag_68\n      tag_26\n      jump\t// in\n    tag_68:\n    tag_67:\n      0x20\n      mul\n      add\n      calldataload\n        /* \"Evm/zk/balance_verifier.sol\":23101:23114  decompress_g2 */\n      tag_69\n        /* \"Evm/zk/balance_verifier.sol\":23101:23154  decompress_g2(compressedProof[2], compressedProof[1]) */\n      jump\t// in\n    tag_64:\n        /* \"Evm/zk/balance_verifier.sol\":23046:23154  (uint256 Bx0, uint256 Bx1, uint256 By0, uint256 By1) = decompress_g2(compressedProof[2], compressedProof[1]) */\n      swap4\n      pop\n      swap4\n      pop\n      swap4\n      pop\n      swap4\n      pop\n        /* \"Evm/zk/balance_verifier.sol\":23170:23180  uint256 Cx */\n      0x00\n        /* \"Evm/zk/balance_verifier.sol\":23182:23192  uint256 Cy */\n      0x00\n        /* \"Evm/zk/balance_verifier.sol\":23196:23229  decompress_g1(compressedProof[3]) */\n      tag_70\n        /* \"Evm/zk/balance_verifier.sol\":23210:23225  compressedProof */\n      dup12\n        /* \"Evm/zk/balance_verifier.sol\":23226:23227  3 */\n      0x03\n        /* \"Evm/zk/balance_verifier.sol\":23210:23228  compressedProof[3] */\n      0x04\n      dup2\n      lt\n      tag_71\n      jumpi\n      tag_72\n      tag_26\n      jump\t// in\n    tag_72:\n    tag_71:\n      0x20\n      mul\n      add\n      calldataload\n        /* \"Evm/zk/balance_verifier.sol\":23196:23209  decompress_g1 */\n      tag_63\n        /* \"Evm/zk/balance_verifier.sol\":23196:23229  decompress_g1(compressedProof[3]) */\n      jump\t// in\n    tag_70:\n        /* \"Evm/zk/balance_verifier.sol\":23169:23229  (uint256 Cx, uint256 Cy) = decompress_g1(compressedProof[3]) */\n      swap2\n      pop\n      swap2\n      pop\n        /* \"Evm/zk/balance_verifier.sol\":23245:23255  uint256 Lx */\n      0x00\n        /* \"Evm/zk/balance_verifier.sol\":23257:23267  uint256 Ly */\n      0x00\n        /* \"Evm/zk/balance_verifier.sol\":23271:23292  publicInputMSM(input) */\n      tag_73\n        /* \"Evm/zk/balance_verifier.sol\":23286:23291  input */\n      dup13\n        /* \"Evm/zk/balance_verifier.sol\":23271:23285  publicInputMSM */\n      tag_55\n        /* \"Evm/zk/balance_verifier.sol\":23271:23292  publicInputMSM(input) */\n      jump\t// in\n    tag_73:\n        /* \"Evm/zk/balance_verifier.sol\":23244:23292  (uint256 Lx, uint256 Ly) = publicInputMSM(input) */\n      swap2\n      pop\n      swap2\n      pop\n        /* \"Evm/zk/balance_verifier.sol\":23569:23571  Ax */\n      dup10\n        /* \"Evm/zk/balance_verifier.sol\":23554:23562  pairings */\n      dup12\n        /* \"Evm/zk/balance_verifier.sol\":23564:23565  0 */\n      0x00\n        /* \"Evm/zk/balance_verifier.sol\":23554:23566  pairings[ 0] */\n      0x18\n      dup2\n      lt\n      tag_74\n      jumpi\n      tag_75\n      tag_26\n      jump\t// in\n    tag_75:\n    tag_74:\n      0x20\n      mul\n      add\n        /* \"Evm/zk/balance_verifier.sol\":23554:23571  pairings[ 0] = Ax */\n      dup2\n      dup2\n      mstore\n      pop\n      pop\n        /* \"Evm/zk/balance_verifier.sol\":23601:23603  Ay */\n      dup9\n        /* \"Evm/zk/balance_verifier.sol\":23586:23594  pairings */\n      dup12\n        /* \"Evm/zk/balance_verifier.sol\":23596:23597  1 */\n      0x01\n        /* \"Evm/zk/balance_verifier.sol\":23586:23598  pairings[ 1] */\n      0x18\n      dup2\n      lt\n      tag_76\n      jumpi\n      tag_77\n      tag_26\n      jump\t// in\n    tag_77:\n    tag_76:\n      0x20\n      mul\n      add\n        /* \"Evm/zk/balance_verifier.sol\":23586:23603  pairings[ 1] = Ay */\n      dup2\n      dup2\n      mstore\n      pop\n      pop\n        /* \"Evm/zk/balance_verifier.sol\":23633:23636  Bx1 */\n      dup7\n        /* \"Evm/zk/balance_verifier.sol\":23618:23626  pairings */\n      dup12\n        /* \"Evm/zk/balance_verifier.sol\":23628:23629  2 */\n      0x02\n        /* \"Evm/zk/balance_verifier.sol\":23618:23630  pairings[ 2] */\n      0x18\n      dup2\n      lt\n      tag_78\n      jumpi\n      tag_79\n      tag_26\n      jump\t// in\n    tag_79:\n    tag_78:\n      0x20\n      mul\n      add\n        /* \"Evm/zk/balance_verifier.sol\":23618:23636  pairings[ 2] = Bx1 */\n      dup2\n      dup2\n      mstore\n      pop\n      pop\n        /* \"Evm/zk/balance_verifier.sol\":23666:23669  Bx0 */\n      dup8\n        /* \"Evm/zk/balance_verifier.sol\":23651:23659  pairings */\n      dup12\n        /* \"Evm/zk/balance_verifier.sol\":23661:23662  3 */\n      0x03\n        /* \"Evm/zk/balance_verifier.sol\":23651:23663  pairings[ 3] */\n      0x18\n      dup2\n      lt\n      tag_80\n      jumpi\n      tag_81\n      tag_26\n      jump\t// in\n    tag_81:\n    tag_80:\n      0x20\n      mul\n      add\n        /* \"Evm/zk/balance_verifier.sol\":23651:23669  pairings[ 3] = Bx0 */\n      dup2\n      dup2\n      mstore\n      pop\n      pop\n        /* \"Evm/zk/balance_verifier.sol\":23699:23702  By1 */\n      dup5\n        /* \"Evm/zk/balance_verifier.sol\":23684:23692  pairings */\n      dup12\n        /* \"Evm/zk/balance_verifier.sol\":23694:23695  4 */\n      0x04\n        /* \"Evm/zk/balance_verifier.sol\":23684:23696  pairings[ 4] */\n      0x18\n      dup2\n      lt\n      tag_82\n      jumpi\n      tag_83\n      tag_26\n      jump\t// in\n    tag_83:\n    tag_82:\n      0x20\n      mul\n      add\n        /* \"Evm/zk/balance_verifier.sol\":23684:23702  pairings[ 4] = By1 */\n      dup2\n      dup2\n      mstore\n      pop\n      pop\n        /* \"Evm/zk/balance_verifier.sol\":23732:23735  By0 */\n      dup6\n        /* \"Evm/zk/balance_verifier.sol\":23717:23725  pairings */\n      dup12\n        /* \"Evm/zk/balance_verifier.sol\":23727:23728  5 */\n      0x05\n        /* \"Evm/zk/balance_verifier.sol\":23717:23729  pairings[ 5] */\n      0x18\n      dup2\n      lt\n      tag_84\n      jumpi\n      tag_85\n      tag_26\n      jump\t// in\n    tag_85:\n    tag_84:\n      0x20\n      mul\n      add\n        /* \"Evm/zk/balance_verifier.sol\":23717:23735  pairings[ 5] = By0 */\n      dup2\n      dup2\n      mstore\n      pop\n      pop\n        /* \"Evm/zk/balance_verifier.sol\":23791:23793  Cx */\n      dup4\n        /* \"Evm/zk/balance_verifier.sol\":23776:23784  pairings */\n      dup12\n        /* \"Evm/zk/balance_verifier.sol\":23786:23787  6 */\n      0x06\n        /* \"Evm/zk/balance_verifier.sol\":23776:23788  pairings[ 6] */\n      0x18\n      dup2\n      lt\n      tag_86\n      jumpi\n      tag_87\n      tag_26\n      jump\t// in\n    tag_87:\n    tag_86:\n      0x20\n      mul\n      add\n        /* \"Evm/zk/balance_verifier.sol\":23776:23793  pairings[ 6] = Cx */\n      dup2\n      dup2\n      mstore\n      pop\n      pop\n        /* \"Evm/zk/balance_verifier.sol\":23823:23825  Cy */\n      dup3\n        /* \"Evm/zk/balance_verifier.sol\":23808:23816  pairings */\n      dup12\n        /* \"Evm/zk/balance_verifier.sol\":23818:23819  7 */\n      0x07\n        /* \"Evm/zk/balance_verifier.sol\":23808:23820  pairings[ 7] */\n      0x18\n      dup2\n      lt\n      tag_88\n      jumpi\n      tag_89\n      tag_26\n      jump\t// in\n    tag_89:\n    tag_88:\n      0x20\n      mul\n      add\n        /* \"Evm/zk/balance_verifier.sol\":23808:23825  pairings[ 7] = Cy */\n      dup2\n      dup2\n      mstore\n      pop\n      pop\n        /* \"Evm/zk/balance_verifier.sol\":4214:4291  17404512541824051840341432121383192650244157872572096697991213431398458830301 */\n      0x267a9ae1b2d0fcc4e22c694eca32ee7044c119c84827966d1250dc68bec9addd\n        /* \"Evm/zk/balance_verifier.sol\":23840:23848  pairings */\n      dup12\n        /* \"Evm/zk/balance_verifier.sol\":23850:23851  8 */\n      0x08\n        /* \"Evm/zk/balance_verifier.sol\":23840:23852  pairings[ 8] */\n      0x18\n      dup2\n      lt\n      tag_90\n      jumpi\n      tag_91\n      tag_26\n      jump\t// in\n    tag_91:\n    tag_90:\n      0x20\n      mul\n      add\n        /* \"Evm/zk/balance_verifier.sol\":23840:23868  pairings[ 8] = DELTA_NEG_X_1 */\n      dup2\n      dup2\n      mstore\n      pop\n      pop\n        /* \"Evm/zk/balance_verifier.sol\":4098:4174  7672862122736029420377355464872658059580745042751163286752187377293486089458 */\n      0x10f6afa1ca50762bbc102f06731886183687c5ee4b2cb47507ac83b4e0b664f2\n        /* \"Evm/zk/balance_verifier.sol\":23883:23891  pairings */\n      dup12\n        /* \"Evm/zk/balance_verifier.sol\":23893:23894  9 */\n      0x09\n        /* \"Evm/zk/balance_verifier.sol\":23883:23895  pairings[ 9] */\n      0x18\n      dup2\n      lt\n      tag_92\n      jumpi\n      tag_93\n      tag_26\n      jump\t// in\n    tag_93:\n    tag_92:\n      0x20\n      mul\n      add\n        /* \"Evm/zk/balance_verifier.sol\":23883:23911  pairings[ 9] = DELTA_NEG_X_0 */\n      dup2\n      dup2\n      mstore\n      pop\n      pop\n        /* \"Evm/zk/balance_verifier.sol\":4447:4523  9593181313067519101023042426734634481667780034968478034399681242343623668265 */\n      0x15358c574f96edf68df06cabae3c4cb00adc2e2eab5245290af8fb5b2dc0b229\n        /* \"Evm/zk/balance_verifier.sol\":23926:23934  pairings */\n      dup12\n        /* \"Evm/zk/balance_verifier.sol\":23935:23937  10 */\n      0x0a\n        /* \"Evm/zk/balance_verifier.sol\":23926:23938  pairings[10] */\n      0x18\n      dup2\n      lt\n      tag_94\n      jumpi\n      tag_95\n      tag_26\n      jump\t// in\n    tag_95:\n    tag_94:\n      0x20\n      mul\n      add\n        /* \"Evm/zk/balance_verifier.sol\":23926:23954  pairings[10] = DELTA_NEG_Y_1 */\n      dup2\n      dup2\n      mstore\n      pop\n      pop\n        /* \"Evm/zk/balance_verifier.sol\":4331:4407  5476317076758659348142343388066934567735403550703670634006228447174315387911 */\n      0x0c1b7c51d79f846153f0c5e76c05ee15a6a8bab03bb6fa34c39d8f5ddd9aac07\n        /* \"Evm/zk/balance_verifier.sol\":23969:23977  pairings */\n      dup12\n        /* \"Evm/zk/balance_verifier.sol\":23978:23980  11 */\n      0x0b\n        /* \"Evm/zk/balance_verifier.sol\":23969:23981  pairings[11] */\n      0x18\n      dup2\n      lt\n      tag_96\n      jumpi\n      tag_97\n      tag_26\n      jump\t// in\n    tag_97:\n    tag_96:\n      0x20\n      mul\n      add\n        /* \"Evm/zk/balance_verifier.sol\":23969:23997  pairings[11] = DELTA_NEG_Y_0 */\n      dup2\n      dup2\n      mstore\n      pop\n      pop\n        /* \"Evm/zk/balance_verifier.sol\":2792:2869  17094004652481113240683683802083479101170610710145297683148343532741127489275 */\n      0x25cadd1ff7f7b466608d5f19b15358b7adbfe18abf80af5b19441ccba74ec6fb\n        /* \"Evm/zk/balance_verifier.sol\":24039:24047  pairings */\n      dup12\n        /* \"Evm/zk/balance_verifier.sol\":24048:24050  12 */\n      0x0c\n        /* \"Evm/zk/balance_verifier.sol\":24039:24051  pairings[12] */\n      0x18\n      dup2\n      lt\n      tag_98\n      jumpi\n      tag_99\n      tag_26\n      jump\t// in\n    tag_99:\n    tag_98:\n      0x20\n      mul\n      add\n        /* \"Evm/zk/balance_verifier.sol\":24039:24061  pairings[12] = ALPHA_X */\n      dup2\n      dup2\n      mstore\n      pop\n      pop\n        /* \"Evm/zk/balance_verifier.sol\":2903:2980  13454977607019670681081723441101799148974699627168957838435712892866328120363 */\n      0x1dbf3f58f922e78c223d7abb22c18f9933576a2cddc483d7bd9e6f78f811cc2b\n        /* \"Evm/zk/balance_verifier.sol\":24076:24084  pairings */\n      dup12\n        /* \"Evm/zk/balance_verifier.sol\":24085:24087  13 */\n      0x0d\n        /* \"Evm/zk/balance_verifier.sol\":24076:24088  pairings[13] */\n      0x18\n      dup2\n      lt\n      tag_100\n      jumpi\n      tag_101\n      tag_26\n      jump\t// in\n    tag_101:\n    tag_100:\n      0x20\n      mul\n      add\n        /* \"Evm/zk/balance_verifier.sol\":24076:24098  pairings[13] = ALPHA_Y */\n      dup2\n      dup2\n      mstore\n      pop\n      pop\n        /* \"Evm/zk/balance_verifier.sol\":3185:3261  1550248559257195805272321862356331321337811586784225337792465591438650763975 */\n      0x036d68dae931774bc17466b7739ab82092ac6d52e5d226156dec1b0fc63deac7\n        /* \"Evm/zk/balance_verifier.sol\":24113:24121  pairings */\n      dup12\n        /* \"Evm/zk/balance_verifier.sol\":24122:24124  14 */\n      0x0e\n        /* \"Evm/zk/balance_verifier.sol\":24113:24125  pairings[14] */\n      0x18\n      dup2\n      lt\n      tag_102\n      jumpi\n      tag_103\n      tag_26\n      jump\t// in\n    tag_103:\n    tag_102:\n      0x20\n      mul\n      add\n        /* \"Evm/zk/balance_verifier.sol\":24113:24140  pairings[14] = BETA_NEG_X_1 */\n      dup2\n      dup2\n      mstore\n      pop\n      pop\n        /* \"Evm/zk/balance_verifier.sol\":3069:3146  21517972471505234626973234389816763977928034043472527949506933758523977444050 */\n      0x2f92bda66a928694edaa48859a33ab517770e83643461dc757f34db039732ad2\n        /* \"Evm/zk/balance_verifier.sol\":24155:24163  pairings */\n      dup12\n        /* \"Evm/zk/balance_verifier.sol\":24164:24166  15 */\n      0x0f\n        /* \"Evm/zk/balance_verifier.sol\":24155:24167  pairings[15] */\n      0x18\n      dup2\n      lt\n      tag_104\n      jumpi\n      tag_105\n      tag_26\n      jump\t// in\n    tag_105:\n    tag_104:\n      0x20\n      mul\n      add\n        /* \"Evm/zk/balance_verifier.sol\":24155:24182  pairings[15] = BETA_NEG_X_0 */\n      dup2\n      dup2\n      mstore\n      pop\n      pop\n        /* \"Evm/zk/balance_verifier.sol\":3415:3491  7392209001261435627929541546253329850208507006193778271955166794418134746947 */\n      0x1057d78ef24b1890f58f94d246bb4b821946e38acd1bef7020c405ad8adc8743\n        /* \"Evm/zk/balance_verifier.sol\":24197:24205  pairings */\n      dup12\n        /* \"Evm/zk/balance_verifier.sol\":24206:24208  16 */\n      0x10\n        /* \"Evm/zk/balance_verifier.sol\":24197:24209  pairings[16] */\n      0x18\n      dup2\n      lt\n      tag_106\n      jumpi\n      tag_107\n      tag_26\n      jump\t// in\n    tag_107:\n    tag_106:\n      0x20\n      mul\n      add\n        /* \"Evm/zk/balance_verifier.sol\":24197:24224  pairings[16] = BETA_NEG_Y_1 */\n      dup2\n      dup2\n      mstore\n      pop\n      pop\n        /* \"Evm/zk/balance_verifier.sol\":3300:3376  5412633807330256577659557863798657281288141399100540434182914692790000914011 */\n      0x0bf77132187e8699315dcda058bbfe5fdbde23f279e83c94d0db3b9172f58e5b\n        /* \"Evm/zk/balance_verifier.sol\":24239:24247  pairings */\n      dup12\n        /* \"Evm/zk/balance_verifier.sol\":24248:24250  17 */\n      0x11\n        /* \"Evm/zk/balance_verifier.sol\":24239:24251  pairings[17] */\n      0x18\n      dup2\n      lt\n      tag_108\n      jumpi\n      tag_109\n      tag_26\n      jump\t// in\n    tag_109:\n    tag_108:\n      0x20\n      mul\n      add\n        /* \"Evm/zk/balance_verifier.sol\":24239:24266  pairings[17] = BETA_NEG_Y_0 */\n      dup2\n      dup2\n      mstore\n      pop\n      pop\n        /* \"Evm/zk/balance_verifier.sol\":24326:24328  Lx */\n      dup2\n        /* \"Evm/zk/balance_verifier.sol\":24311:24319  pairings */\n      dup12\n        /* \"Evm/zk/balance_verifier.sol\":24320:24322  18 */\n      0x12\n        /* \"Evm/zk/balance_verifier.sol\":24311:24323  pairings[18] */\n      0x18\n      dup2\n      lt\n      tag_110\n      jumpi\n      tag_111\n      tag_26\n      jump\t// in\n    tag_111:\n    tag_110:\n      0x20\n      mul\n      add\n        /* \"Evm/zk/balance_verifier.sol\":24311:24328  pairings[18] = Lx */\n      dup2\n      dup2\n      mstore\n      pop\n      pop\n        /* \"Evm/zk/balance_verifier.sol\":24358:24360  Ly */\n      dup1\n        /* \"Evm/zk/balance_verifier.sol\":24343:24351  pairings */\n      dup12\n        /* \"Evm/zk/balance_verifier.sol\":24352:24354  19 */\n      0x13\n        /* \"Evm/zk/balance_verifier.sol\":24343:24355  pairings[19] */\n      0x18\n      dup2\n      lt\n      tag_112\n      jumpi\n      tag_113\n      tag_26\n      jump\t// in\n    tag_113:\n    tag_112:\n      0x20\n      mul\n      add\n        /* \"Evm/zk/balance_verifier.sol\":24343:24360  pairings[19] = Ly */\n      dup2\n      dup2\n      mstore\n      pop\n      pop\n        /* \"Evm/zk/balance_verifier.sol\":3699:3775  8383607311359476963547072153358759066626216414400033892402205305824744189200 */\n      0x1288f41e0adc6f78313bfb8bb461590f1a78654495ee90e41073214fa3ba2d10\n        /* \"Evm/zk/balance_verifier.sol\":24375:24383  pairings */\n      dup12\n        /* \"Evm/zk/balance_verifier.sol\":24384:24386  20 */\n      0x14\n        /* \"Evm/zk/balance_verifier.sol\":24375:24387  pairings[20] */\n      0x18\n      dup2\n      lt\n      tag_114\n      jumpi\n      tag_115\n      tag_26\n      jump\t// in\n    tag_115:\n    tag_114:\n      0x20\n      mul\n      add\n        /* \"Evm/zk/balance_verifier.sol\":24375:24403  pairings[20] = GAMMA_NEG_X_1 */\n      dup2\n      dup2\n      mstore\n      pop\n      pop\n        /* \"Evm/zk/balance_verifier.sol\":3582:3659  15602664382922241449976824632502562912916270354596411298057426246038525352206 */\n      0x227ecb8af66443261e4551f1c34d0f80f1920fe277d527e6c0d171df07bc990e\n        /* \"Evm/zk/balance_verifier.sol\":24418:24426  pairings */\n      dup12\n        /* \"Evm/zk/balance_verifier.sol\":24427:24429  21 */\n      0x15\n        /* \"Evm/zk/balance_verifier.sol\":24418:24430  pairings[21] */\n      0x18\n      dup2\n      lt\n      tag_116\n      jumpi\n      tag_117\n      tag_26\n      jump\t// in\n    tag_117:\n    tag_116:\n      0x20\n      mul\n      add\n        /* \"Evm/zk/balance_verifier.sol\":24418:24446  pairings[21] = GAMMA_NEG_X_0 */\n      dup2\n      dup2\n      mstore\n      pop\n      pop\n        /* \"Evm/zk/balance_verifier.sol\":3931:4007  3670318696885146231005153177044730066008598251534065493127274354876284604570 */\n      0x081d53a6dacd3e2e8c8eeb1b7821536ed6e483bb9ed9b9823d086066c513109a\n        /* \"Evm/zk/balance_verifier.sol\":24461:24469  pairings */\n      dup12\n        /* \"Evm/zk/balance_verifier.sol\":24470:24472  22 */\n      0x16\n        /* \"Evm/zk/balance_verifier.sol\":24461:24473  pairings[22] */\n      0x18\n      dup2\n      lt\n      tag_118\n      jumpi\n      tag_119\n      tag_26\n      jump\t// in\n    tag_119:\n    tag_118:\n      0x20\n      mul\n      add\n        /* \"Evm/zk/balance_verifier.sol\":24461:24489  pairings[22] = GAMMA_NEG_Y_1 */\n      dup2\n      dup2\n      mstore\n      pop\n      pop\n        /* \"Evm/zk/balance_verifier.sol\":3815:3891  4524615510257967938415017091305918827051655792513690213744573316173399200937 */\n      0x0a00d774cd2b89fb4ccde579b70a4e6afbd80ff3dee51dd214cd094b3b3214a9\n        /* \"Evm/zk/balance_verifier.sol\":24504:24512  pairings */\n      dup12\n        /* \"Evm/zk/balance_verifier.sol\":24513:24515  23 */\n      0x17\n        /* \"Evm/zk/balance_verifier.sol\":24504:24516  pairings[23] */\n      0x18\n      dup2\n      lt\n      tag_120\n      jumpi\n      tag_121\n      tag_26\n      jump\t// in\n    tag_121:\n    tag_120:\n      0x20\n      mul\n      add\n        /* \"Evm/zk/balance_verifier.sol\":24504:24532  pairings[23] = GAMMA_NEG_Y_0 */\n      dup2\n      dup2\n      mstore\n      pop\n      pop\n        /* \"Evm/zk/balance_verifier.sol\":24589:24601  bool success */\n      0x00\n        /* \"Evm/zk/balance_verifier.sol\":24616:24640  uint256[1] memory output */\n      tag_122\n      tag_123\n      jump\t// in\n    tag_122:\n        /* \"Evm/zk/balance_verifier.sol\":24772:24776  0x20 */\n      0x20\n        /* \"Evm/zk/balance_verifier.sol\":24764:24770  output */\n      dup2\n        /* \"Evm/zk/balance_verifier.sol\":24757:24762  0x300 */\n      0x0300\n        /* \"Evm/zk/balance_verifier.sol\":24747:24755  pairings */\n      dup16\n        /* \"Evm/zk/balance_verifier.sol\":24728:24745  PRECOMPILE_VERIFY */\n      0x08\n        /* \"Evm/zk/balance_verifier.sol\":24721:24726  gas() */\n      gas\n        /* \"Evm/zk/balance_verifier.sol\":24710:24777  staticcall(gas(), PRECOMPILE_VERIFY, pairings, 0x300, output, 0x20) */\n      staticcall\n        /* \"Evm/zk/balance_verifier.sol\":24699:24777  success := staticcall(gas(), PRECOMPILE_VERIFY, pairings, 0x300, output, 0x20) */\n      swap2\n      pop\n        /* \"Evm/zk/balance_verifier.sol\":24811:24818  success */\n      dup2\n        /* \"Evm/zk/balance_verifier.sol\":24810:24818  !success */\n      iszero\n        /* \"Evm/zk/balance_verifier.sol\":24810:24836  !success || output[0] != 1 */\n      dup1\n      tag_124\n      jumpi\n      pop\n        /* \"Evm/zk/balance_verifier.sol\":24835:24836  1 */\n      0x01\n        /* \"Evm/zk/balance_verifier.sol\":24822:24828  output */\n      dup2\n        /* \"Evm/zk/balance_verifier.sol\":24829:24830  0 */\n      0x00\n        /* \"Evm/zk/balance_verifier.sol\":24822:24831  output[0] */\n      0x01\n      dup2\n      lt\n      tag_125\n      jumpi\n      tag_126\n      tag_26\n      jump\t// in\n    tag_126:\n    tag_125:\n      0x20\n      mul\n      add\n      mload\n        /* \"Evm/zk/balance_verifier.sol\":24822:24836  output[0] != 1 */\n      eq\n      iszero\n        /* \"Evm/zk/balance_verifier.sol\":24810:24836  !success || output[0] != 1 */\n    tag_124:\n        /* \"Evm/zk/balance_verifier.sol\":24806:25057  if (!success || output[0] != 1) {... */\n      iszero\n      tag_127\n      jumpi\n        /* \"Evm/zk/balance_verifier.sol\":25027:25041  ProofInvalid() */\n      mload(0x40)\n      0x7fcdd1f400000000000000000000000000000000000000000000000000000000\n      dup2\n      mstore\n      0x04\n      add\n      mload(0x40)\n      dup1\n      swap2\n      sub\n      swap1\n      revert\n        /* \"Evm/zk/balance_verifier.sol\":24806:25057  if (!success || output[0] != 1) {... */\n    tag_127:\n        /* \"Evm/zk/balance_verifier.sol\":22956:25068  {... */\n      pop\n      pop\n      pop\n      pop\n      pop\n      pop\n      pop\n      pop\n      pop\n      pop\n      pop\n      pop\n        /* \"Evm/zk/balance_verifier.sol\":22905:25075  {... */\n      pop\n        /* \"Evm/zk/balance_verifier.sol\":22773:25075  function verifyCompressedProof(... */\n      pop\n      pop\n      jump\t// out\n        /* \"Evm/zk/balance_verifier.sol\":10670:11390  function compress_g1(uint256 x, uint256 y) internal view returns (uint256 c) {... */\n    tag_29:\n        /* \"Evm/zk/balance_verifier.sol\":10736:10745  uint256 c */\n      0x00\n        /* \"Evm/zk/balance_verifier.sol\":1423:1489  0x30644e72e131a029b85045b68181585d97816a916871ca8d3c208c16d87cfd47 */\n      0x30644e72e131a029b85045b68181585d97816a916871ca8d3c208c16d87cfd47\n        /* \"Evm/zk/balance_verifier.sol\":10762:10763  x */\n      dup4\n        /* \"Evm/zk/balance_verifier.sol\":10762:10768  x >= P */\n      lt\n      iszero\n        /* \"Evm/zk/balance_verifier.sol\":10762:10778  x >= P || y >= P */\n      dup1\n      tag_129\n      jumpi\n      pop\n        /* \"Evm/zk/balance_verifier.sol\":1423:1489  0x30644e72e131a029b85045b68181585d97816a916871ca8d3c208c16d87cfd47 */\n      0x30644e72e131a029b85045b68181585d97816a916871ca8d3c208c16d87cfd47\n        /* \"Evm/zk/balance_verifier.sol\":10772:10773  y */\n      dup3\n        /* \"Evm/zk/balance_verifier.sol\":10772:10778  y >= P */\n      lt\n      iszero\n        /* \"Evm/zk/balance_verifier.sol\":10762:10778  x >= P || y >= P */\n    tag_129:\n        /* \"Evm/zk/balance_verifier.sol\":10758:10867  if (x >= P || y >= P) {... */\n      iszero\n      tag_130\n      jumpi\n        /* \"Evm/zk/balance_verifier.sol\":10841:10855  ProofInvalid() */\n      mload(0x40)\n      0x7fcdd1f400000000000000000000000000000000000000000000000000000000\n      dup2\n      mstore\n      0x04\n      add\n      mload(0x40)\n      dup1\n      swap2\n      sub\n      swap1\n      revert\n        /* \"Evm/zk/balance_verifier.sol\":10758:10867  if (x >= P || y >= P) {... */\n    tag_130:\n        /* \"Evm/zk/balance_verifier.sol\":10886:10887  0 */\n      0x00\n        /* \"Evm/zk/balance_verifier.sol\":10881:10882  x */\n      dup4\n        /* \"Evm/zk/balance_verifier.sol\":10881:10887  x == 0 */\n      eq\n        /* \"Evm/zk/balance_verifier.sol\":10881:10897  x == 0 && y == 0 */\n      dup1\n      iszero\n      tag_131\n      jumpi\n      pop\n        /* \"Evm/zk/balance_verifier.sol\":10896:10897  0 */\n      0x00\n        /* \"Evm/zk/balance_verifier.sol\":10891:10892  y */\n      dup3\n        /* \"Evm/zk/balance_verifier.sol\":10891:10897  y == 0 */\n      eq\n        /* \"Evm/zk/balance_verifier.sol\":10881:10897  x == 0 && y == 0 */\n    tag_131:\n        /* \"Evm/zk/balance_verifier.sol\":10877:10968  if (x == 0 && y == 0) {... */\n      iszero\n      tag_132\n      jumpi\n        /* \"Evm/zk/balance_verifier.sol\":10955:10956  0 */\n      0x00\n        /* \"Evm/zk/balance_verifier.sol\":10948:10956  return 0 */\n      swap1\n      pop\n      jump(tag_128)\n        /* \"Evm/zk/balance_verifier.sol\":10877:10968  if (x == 0 && y == 0) {... */\n    tag_132:\n        /* \"Evm/zk/balance_verifier.sol\":11073:11086  uint256 y_pos */\n      0x00\n        /* \"Evm/zk/balance_verifier.sol\":11089:11141  sqrt_Fp(addmod(mulmod(mulmod(x, x, P), x, P), 3, P)) */\n      tag_133\n        /* \"Evm/zk/balance_verifier.sol\":1423:1489  0x30644e72e131a029b85045b68181585d97816a916871ca8d3c208c16d87cfd47 */\n      0x30644e72e131a029b85045b68181585d97816a916871ca8d3c208c16d87cfd47\n        /* \"Evm/zk/balance_verifier.sol\":11097:11140  addmod(mulmod(mulmod(x, x, P), x, P), 3, P) */\n      dup1\n      tag_134\n      jumpi\n      tag_135\n      tag_136\n      jump\t// in\n    tag_135:\n    tag_134:\n        /* \"Evm/zk/balance_verifier.sol\":11135:11136  3 */\n      0x03\n        /* \"Evm/zk/balance_verifier.sol\":1423:1489  0x30644e72e131a029b85045b68181585d97816a916871ca8d3c208c16d87cfd47 */\n      0x30644e72e131a029b85045b68181585d97816a916871ca8d3c208c16d87cfd47\n        /* \"Evm/zk/balance_verifier.sol\":11104:11133  mulmod(mulmod(x, x, P), x, P) */\n      dup1\n      tag_137\n      jumpi\n      tag_138\n      tag_136\n      jump\t// in\n    tag_138:\n    tag_137:\n        /* \"Evm/zk/balance_verifier.sol\":11128:11129  x */\n      dup8\n        /* \"Evm/zk/balance_verifier.sol\":1423:1489  0x30644e72e131a029b85045b68181585d97816a916871ca8d3c208c16d87cfd47 */\n      0x30644e72e131a029b85045b68181585d97816a916871ca8d3c208c16d87cfd47\n        /* \"Evm/zk/balance_verifier.sol\":11111:11126  mulmod(x, x, P) */\n      dup1\n      tag_139\n      jumpi\n      tag_140\n      tag_136\n      jump\t// in\n    tag_140:\n    tag_139:\n        /* \"Evm/zk/balance_verifier.sol\":11121:11122  x */\n      dup10\n        /* \"Evm/zk/balance_verifier.sol\":11118:11119  x */\n      dup11\n        /* \"Evm/zk/balance_verifier.sol\":11111:11126  mulmod(x, x, P) */\n      mulmod\n        /* \"Evm/zk/balance_verifier.sol\":11104:11133  mulmod(mulmod(x, x, P), x, P) */\n      mulmod\n        /* \"Evm/zk/balance_verifier.sol\":11097:11140  addmod(mulmod(mulmod(x, x, P), x, P), 3, P) */\n      addmod\n        /* \"Evm/zk/balance_verifier.sol\":11089:11096  sqrt_Fp */\n      tag_141\n        /* \"Evm/zk/balance_verifier.sol\":11089:11141  sqrt_Fp(addmod(mulmod(mulmod(x, x, P), x, P), 3, P)) */\n      jump\t// in\n    tag_133:\n        /* \"Evm/zk/balance_verifier.sol\":11073:11141  uint256 y_pos = sqrt_Fp(addmod(mulmod(mulmod(x, x, P), x, P), 3, P)) */\n      swap1\n      pop\n        /* \"Evm/zk/balance_verifier.sol\":11161:11166  y_pos */\n      dup1\n        /* \"Evm/zk/balance_verifier.sol\":11156:11157  y */\n      dup4\n        /* \"Evm/zk/balance_verifier.sol\":11156:11166  y == y_pos */\n      sub\n        /* \"Evm/zk/balance_verifier.sol\":11152:11383  if (y == y_pos) {... */\n      tag_142\n      jumpi\n        /* \"Evm/zk/balance_verifier.sol\":11201:11202  0 */\n      0x00\n        /* \"Evm/zk/balance_verifier.sol\":11196:11197  1 */\n      0x01\n        /* \"Evm/zk/balance_verifier.sol\":11191:11192  x */\n      dup6\n        /* \"Evm/zk/balance_verifier.sol\":11191:11197  x << 1 */\n      swap1\n      shl\n        /* \"Evm/zk/balance_verifier.sol\":11190:11202  (x << 1) | 0 */\n      or\n        /* \"Evm/zk/balance_verifier.sol\":11183:11202  return (x << 1) | 0 */\n      swap2\n      pop\n      pop\n      jump(tag_128)\n        /* \"Evm/zk/balance_verifier.sol\":11152:11383  if (y == y_pos) {... */\n    tag_142:\n        /* \"Evm/zk/balance_verifier.sol\":11229:11242  negate(y_pos) */\n      tag_144\n        /* \"Evm/zk/balance_verifier.sol\":11236:11241  y_pos */\n      dup2\n        /* \"Evm/zk/balance_verifier.sol\":11229:11235  negate */\n      tag_145\n        /* \"Evm/zk/balance_verifier.sol\":11229:11242  negate(y_pos) */\n      jump\t// in\n    tag_144:\n        /* \"Evm/zk/balance_verifier.sol\":11224:11225  y */\n      dup4\n        /* \"Evm/zk/balance_verifier.sol\":11224:11242  y == negate(y_pos) */\n      sub\n        /* \"Evm/zk/balance_verifier.sol\":11220:11383  if (y == negate(y_pos)) {... */\n      tag_146\n      jumpi\n        /* \"Evm/zk/balance_verifier.sol\":11277:11278  1 */\n      0x01\n        /* \"Evm/zk/balance_verifier.sol\":11272:11273  1 */\n      dup1\n        /* \"Evm/zk/balance_verifier.sol\":11267:11268  x */\n      dup6\n        /* \"Evm/zk/balance_verifier.sol\":11267:11273  x << 1 */\n      swap1\n      shl\n        /* \"Evm/zk/balance_verifier.sol\":11266:11278  (x << 1) | 1 */\n      or\n        /* \"Evm/zk/balance_verifier.sol\":11259:11278  return (x << 1) | 1 */\n      swap2\n      pop\n      pop\n      jump(tag_128)\n        /* \"Evm/zk/balance_verifier.sol\":11220:11383  if (y == negate(y_pos)) {... */\n    tag_146:\n        /* \"Evm/zk/balance_verifier.sol\":11357:11371  ProofInvalid() */\n      mload(0x40)\n      0x7fcdd1f400000000000000000000000000000000000000000000000000000000\n      dup2\n      mstore\n      0x04\n      add\n      mload(0x40)\n      dup1\n      swap2\n      sub\n      swap1\n      revert\n        /* \"Evm/zk/balance_verifier.sol\":10670:11390  function compress_g1(uint256 x, uint256 y) internal view returns (uint256 c) {... */\n    tag_128:\n      swap3\n      swap2\n      pop\n      pop\n      jump\t// out\n        /* \"Evm/zk/balance_verifier.sol\":13428:15131  function compress_g2(uint256 x0, uint256 x1, uint256 y0, uint256 y1)... */\n    tag_41:\n        /* \"Evm/zk/balance_verifier.sol\":13525:13535  uint256 c0 */\n      0x00\n        /* \"Evm/zk/balance_verifier.sol\":13537:13547  uint256 c1 */\n      0x00\n        /* \"Evm/zk/balance_verifier.sol\":1423:1489  0x30644e72e131a029b85045b68181585d97816a916871ca8d3c208c16d87cfd47 */\n      0x30644e72e131a029b85045b68181585d97816a916871ca8d3c208c16d87cfd47\n        /* \"Evm/zk/balance_verifier.sol\":13564:13566  x0 */\n      dup7\n        /* \"Evm/zk/balance_verifier.sol\":13564:13571  x0 >= P */\n      lt\n      iszero\n        /* \"Evm/zk/balance_verifier.sol\":13564:13582  x0 >= P || x1 >= P */\n      dup1\n      tag_149\n      jumpi\n      pop\n        /* \"Evm/zk/balance_verifier.sol\":1423:1489  0x30644e72e131a029b85045b68181585d97816a916871ca8d3c208c16d87cfd47 */\n      0x30644e72e131a029b85045b68181585d97816a916871ca8d3c208c16d87cfd47\n        /* \"Evm/zk/balance_verifier.sol\":13575:13577  x1 */\n      dup6\n        /* \"Evm/zk/balance_verifier.sol\":13575:13582  x1 >= P */\n      lt\n      iszero\n        /* \"Evm/zk/balance_verifier.sol\":13564:13582  x0 >= P || x1 >= P */\n    tag_149:\n        /* \"Evm/zk/balance_verifier.sol\":13564:13593  x0 >= P || x1 >= P || y0 >= P */\n      dup1\n      tag_150\n      jumpi\n      pop\n        /* \"Evm/zk/balance_verifier.sol\":1423:1489  0x30644e72e131a029b85045b68181585d97816a916871ca8d3c208c16d87cfd47 */\n      0x30644e72e131a029b85045b68181585d97816a916871ca8d3c208c16d87cfd47\n        /* \"Evm/zk/balance_verifier.sol\":13586:13588  y0 */\n      dup5\n        /* \"Evm/zk/balance_verifier.sol\":13586:13593  y0 >= P */\n      lt\n      iszero\n        /* \"Evm/zk/balance_verifier.sol\":13564:13593  x0 >= P || x1 >= P || y0 >= P */\n    tag_150:\n        /* \"Evm/zk/balance_verifier.sol\":13564:13604  x0 >= P || x1 >= P || y0 >= P || y1 >= P */\n      dup1\n      tag_151\n      jumpi\n      pop\n        /* \"Evm/zk/balance_verifier.sol\":1423:1489  0x30644e72e131a029b85045b68181585d97816a916871ca8d3c208c16d87cfd47 */\n      0x30644e72e131a029b85045b68181585d97816a916871ca8d3c208c16d87cfd47\n        /* \"Evm/zk/balance_verifier.sol\":13597:13599  y1 */\n      dup4\n        /* \"Evm/zk/balance_verifier.sol\":13597:13604  y1 >= P */\n      lt\n      iszero\n        /* \"Evm/zk/balance_verifier.sol\":13564:13604  x0 >= P || x1 >= P || y0 >= P || y1 >= P */\n    tag_151:\n        /* \"Evm/zk/balance_verifier.sol\":13560:13693  if (x0 >= P || x1 >= P || y0 >= P || y1 >= P) {... */\n      iszero\n      tag_152\n      jumpi\n        /* \"Evm/zk/balance_verifier.sol\":13667:13681  ProofInvalid() */\n      mload(0x40)\n      0x7fcdd1f400000000000000000000000000000000000000000000000000000000\n      dup2\n      mstore\n      0x04\n      add\n      mload(0x40)\n      dup1\n      swap2\n      sub\n      swap1\n      revert\n        /* \"Evm/zk/balance_verifier.sol\":13560:13693  if (x0 >= P || x1 >= P || y0 >= P || y1 >= P) {... */\n    tag_152:\n        /* \"Evm/zk/balance_verifier.sol\":13730:13731  0 */\n      0x00\n        /* \"Evm/zk/balance_verifier.sol\":13723:13725  y1 */\n      dup4\n        /* \"Evm/zk/balance_verifier.sol\":13718:13720  y0 */\n      dup6\n        /* \"Evm/zk/balance_verifier.sol\":13713:13715  x1 */\n      dup8\n        /* \"Evm/zk/balance_verifier.sol\":13708:13710  x0 */\n      dup10\n        /* \"Evm/zk/balance_verifier.sol\":13708:13715  x0 | x1 */\n      or\n        /* \"Evm/zk/balance_verifier.sol\":13708:13720  x0 | x1 | y0 */\n      or\n        /* \"Evm/zk/balance_verifier.sol\":13708:13725  x0 | x1 | y0 | y1 */\n      or\n        /* \"Evm/zk/balance_verifier.sol\":13707:13731  (x0 | x1 | y0 | y1) == 0 */\n      sub\n        /* \"Evm/zk/balance_verifier.sol\":13703:13807  if ((x0 | x1 | y0 | y1) == 0) {... */\n      tag_153\n      jumpi\n        /* \"Evm/zk/balance_verifier.sol\":13790:13791  0 */\n      0x00\n        /* \"Evm/zk/balance_verifier.sol\":13793:13794  0 */\n      0x00\n        /* \"Evm/zk/balance_verifier.sol\":13782:13795  return (0, 0) */\n      swap2\n      pop\n      swap2\n      pop\n      jump(tag_148)\n        /* \"Evm/zk/balance_verifier.sol\":13703:13807  if ((x0 | x1 | y0 | y1) == 0) {... */\n    tag_153:\n        /* \"Evm/zk/balance_verifier.sol\":13917:13931  uint256 y0_pos */\n      0x00\n        /* \"Evm/zk/balance_verifier.sol\":13942:13956  uint256 y1_pos */\n      0x00\n        /* \"Evm/zk/balance_verifier.sol\":13982:13994  uint256 n3ab */\n      0x00\n        /* \"Evm/zk/balance_verifier.sol\":1423:1489  0x30644e72e131a029b85045b68181585d97816a916871ca8d3c208c16d87cfd47 */\n      0x30644e72e131a029b85045b68181585d97816a916871ca8d3c208c16d87cfd47\n        /* \"Evm/zk/balance_verifier.sol\":13997:14030  mulmod(mulmod(x0, x1, P), P-3, P) */\n      dup1\n      tag_154\n      jumpi\n      tag_155\n      tag_136\n      jump\t// in\n    tag_155:\n    tag_154:\n        /* \"Evm/zk/balance_verifier.sol\":14025:14026  3 */\n      0x03\n        /* \"Evm/zk/balance_verifier.sol\":1423:1489  0x30644e72e131a029b85045b68181585d97816a916871ca8d3c208c16d87cfd47 */\n      0x30644e72e131a029b85045b68181585d97816a916871ca8d3c208c16d87cfd47\n        /* \"Evm/zk/balance_verifier.sol\":14023:14026  P-3 */\n      tag_156\n      swap2\n      swap1\n      tag_157\n      jump\t// in\n    tag_156:\n        /* \"Evm/zk/balance_verifier.sol\":1423:1489  0x30644e72e131a029b85045b68181585d97816a916871ca8d3c208c16d87cfd47 */\n      0x30644e72e131a029b85045b68181585d97816a916871ca8d3c208c16d87cfd47\n        /* \"Evm/zk/balance_verifier.sol\":14004:14021  mulmod(x0, x1, P) */\n      dup1\n      tag_158\n      jumpi\n      tag_159\n      tag_136\n      jump\t// in\n    tag_159:\n    tag_158:\n        /* \"Evm/zk/balance_verifier.sol\":14015:14017  x1 */\n      dup11\n        /* \"Evm/zk/balance_verifier.sol\":14011:14013  x0 */\n      dup13\n        /* \"Evm/zk/balance_verifier.sol\":14004:14021  mulmod(x0, x1, P) */\n      mulmod\n        /* \"Evm/zk/balance_verifier.sol\":13997:14030  mulmod(mulmod(x0, x1, P), P-3, P) */\n      mulmod\n        /* \"Evm/zk/balance_verifier.sol\":13982:14030  uint256 n3ab = mulmod(mulmod(x0, x1, P), P-3, P) */\n      swap1\n      pop\n        /* \"Evm/zk/balance_verifier.sol\":14045:14056  uint256 a_3 */\n      0x00\n        /* \"Evm/zk/balance_verifier.sol\":1423:1489  0x30644e72e131a029b85045b68181585d97816a916871ca8d3c208c16d87cfd47 */\n      0x30644e72e131a029b85045b68181585d97816a916871ca8d3c208c16d87cfd47\n        /* \"Evm/zk/balance_verifier.sol\":14059:14091  mulmod(mulmod(x0, x0, P), x0, P) */\n      dup1\n      tag_160\n      jumpi\n      tag_161\n      tag_136\n      jump\t// in\n    tag_161:\n    tag_160:\n        /* \"Evm/zk/balance_verifier.sol\":14085:14087  x0 */\n      dup11\n        /* \"Evm/zk/balance_verifier.sol\":1423:1489  0x30644e72e131a029b85045b68181585d97816a916871ca8d3c208c16d87cfd47 */\n      0x30644e72e131a029b85045b68181585d97816a916871ca8d3c208c16d87cfd47\n        /* \"Evm/zk/balance_verifier.sol\":14066:14083  mulmod(x0, x0, P) */\n      dup1\n      tag_162\n      jumpi\n      tag_163\n      tag_136\n      jump\t// in\n    tag_163:\n    tag_162:\n        /* \"Evm/zk/balance_verifier.sol\":14077:14079  x0 */\n      dup13\n        /* \"Evm/zk/balance_verifier.sol\":14073:14075  x0 */\n      dup14\n        /* \"Evm/zk/balance_verifier.sol\":14066:14083  mulmod(x0, x0, P) */\n      mulmod\n        /* \"Evm/zk/balance_verifier.sol\":14059:14091  mulmod(mulmod(x0, x0, P), x0, P) */\n      mulmod\n        /* \"Evm/zk/balance_verifier.sol\":14045:14091  uint256 a_3 = mulmod(mulmod(x0, x0, P), x0, P) */\n      swap1\n      pop\n        /* \"Evm/zk/balance_verifier.sol\":14106:14117  uint256 b_3 */\n      0x00\n        /* \"Evm/zk/balance_verifier.sol\":1423:1489  0x30644e72e131a029b85045b68181585d97816a916871ca8d3c208c16d87cfd47 */\n      0x30644e72e131a029b85045b68181585d97816a916871ca8d3c208c16d87cfd47\n        /* \"Evm/zk/balance_verifier.sol\":14120:14152  mulmod(mulmod(x1, x1, P), x1, P) */\n      dup1\n      tag_164\n      jumpi\n      tag_165\n      tag_136\n      jump\t// in\n    tag_165:\n    tag_164:\n        /* \"Evm/zk/balance_verifier.sol\":14146:14148  x1 */\n      dup11\n        /* \"Evm/zk/balance_verifier.sol\":1423:1489  0x30644e72e131a029b85045b68181585d97816a916871ca8d3c208c16d87cfd47 */\n      0x30644e72e131a029b85045b68181585d97816a916871ca8d3c208c16d87cfd47\n        /* \"Evm/zk/balance_verifier.sol\":14127:14144  mulmod(x1, x1, P) */\n      dup1\n      tag_166\n      jumpi\n      tag_167\n      tag_136\n      jump\t// in\n    tag_167:\n    tag_166:\n        /* \"Evm/zk/balance_verifier.sol\":14138:14140  x1 */\n      dup13\n        /* \"Evm/zk/balance_verifier.sol\":14134:14136  x1 */\n      dup14\n        /* \"Evm/zk/balance_verifier.sol\":14127:14144  mulmod(x1, x1, P) */\n      mulmod\n        /* \"Evm/zk/balance_verifier.sol\":14120:14152  mulmod(mulmod(x1, x1, P), x1, P) */\n      mulmod\n        /* \"Evm/zk/balance_verifier.sol\":14106:14152  uint256 b_3 = mulmod(mulmod(x1, x1, P), x1, P) */\n      swap1\n      pop\n        /* \"Evm/zk/balance_verifier.sol\":1423:1489  0x30644e72e131a029b85045b68181585d97816a916871ca8d3c208c16d87cfd47 */\n      0x30644e72e131a029b85045b68181585d97816a916871ca8d3c208c16d87cfd47\n        /* \"Evm/zk/balance_verifier.sol\":14176:14241  addmod(FRACTION_27_82_FP, addmod(a_3, mulmod(n3ab, x1, P), P), P) */\n      dup1\n      tag_168\n      jumpi\n      tag_169\n      tag_136\n      jump\t// in\n    tag_169:\n    tag_168:\n        /* \"Evm/zk/balance_verifier.sol\":1423:1489  0x30644e72e131a029b85045b68181585d97816a916871ca8d3c208c16d87cfd47 */\n      0x30644e72e131a029b85045b68181585d97816a916871ca8d3c208c16d87cfd47\n        /* \"Evm/zk/balance_verifier.sol\":14202:14237  addmod(a_3, mulmod(n3ab, x1, P), P) */\n      dup1\n      tag_170\n      jumpi\n      tag_171\n      tag_136\n      jump\t// in\n    tag_171:\n    tag_170:\n        /* \"Evm/zk/balance_verifier.sol\":1423:1489  0x30644e72e131a029b85045b68181585d97816a916871ca8d3c208c16d87cfd47 */\n      0x30644e72e131a029b85045b68181585d97816a916871ca8d3c208c16d87cfd47\n        /* \"Evm/zk/balance_verifier.sol\":14214:14233  mulmod(n3ab, x1, P) */\n      dup1\n      tag_172\n      jumpi\n      tag_173\n      tag_136\n      jump\t// in\n    tag_173:\n    tag_172:\n        /* \"Evm/zk/balance_verifier.sol\":14227:14229  x1 */\n      dup13\n        /* \"Evm/zk/balance_verifier.sol\":14221:14225  n3ab */\n      dup7\n        /* \"Evm/zk/balance_verifier.sol\":14214:14233  mulmod(n3ab, x1, P) */\n      mulmod\n        /* \"Evm/zk/balance_verifier.sol\":14209:14212  a_3 */\n      dup5\n        /* \"Evm/zk/balance_verifier.sol\":14202:14237  addmod(a_3, mulmod(n3ab, x1, P), P) */\n      addmod\n        /* \"Evm/zk/balance_verifier.sol\":2254:2320  0x2b149d40ceb8aaae81be18991be06ac3b5b4c5e559dbefa33267e6dc24a138e5 */\n      0x2b149d40ceb8aaae81be18991be06ac3b5b4c5e559dbefa33267e6dc24a138e5\n        /* \"Evm/zk/balance_verifier.sol\":14176:14241  addmod(FRACTION_27_82_FP, addmod(a_3, mulmod(n3ab, x1, P), P), P) */\n      addmod\n        /* \"Evm/zk/balance_verifier.sol\":14167:14241  y0_pos = addmod(FRACTION_27_82_FP, addmod(a_3, mulmod(n3ab, x1, P), P), P) */\n      swap5\n      pop\n        /* \"Evm/zk/balance_verifier.sol\":14265:14338  negate(addmod(FRACTION_3_82_FP,  addmod(b_3, mulmod(n3ab, x0, P), P), P)) */\n      tag_174\n        /* \"Evm/zk/balance_verifier.sol\":1423:1489  0x30644e72e131a029b85045b68181585d97816a916871ca8d3c208c16d87cfd47 */\n      0x30644e72e131a029b85045b68181585d97816a916871ca8d3c208c16d87cfd47\n        /* \"Evm/zk/balance_verifier.sol\":14272:14337  addmod(FRACTION_3_82_FP,  addmod(b_3, mulmod(n3ab, x0, P), P), P) */\n      dup1\n      tag_175\n      jumpi\n      tag_176\n      tag_136\n      jump\t// in\n    tag_176:\n    tag_175:\n        /* \"Evm/zk/balance_verifier.sol\":1423:1489  0x30644e72e131a029b85045b68181585d97816a916871ca8d3c208c16d87cfd47 */\n      0x30644e72e131a029b85045b68181585d97816a916871ca8d3c208c16d87cfd47\n        /* \"Evm/zk/balance_verifier.sol\":14298:14333  addmod(b_3, mulmod(n3ab, x0, P), P) */\n      dup1\n      tag_177\n      jumpi\n      tag_178\n      tag_136\n      jump\t// in\n    tag_178:\n    tag_177:\n        /* \"Evm/zk/balance_verifier.sol\":1423:1489  0x30644e72e131a029b85045b68181585d97816a916871ca8d3c208c16d87cfd47 */\n      0x30644e72e131a029b85045b68181585d97816a916871ca8d3c208c16d87cfd47\n        /* \"Evm/zk/balance_verifier.sol\":14310:14329  mulmod(n3ab, x0, P) */\n      dup1\n      tag_179\n      jumpi\n      tag_180\n      tag_136\n      jump\t// in\n    tag_180:\n    tag_179:\n        /* \"Evm/zk/balance_verifier.sol\":14323:14325  x0 */\n      dup15\n        /* \"Evm/zk/balance_verifier.sol\":14317:14321  n3ab */\n      dup8\n        /* \"Evm/zk/balance_verifier.sol\":14310:14329  mulmod(n3ab, x0, P) */\n      mulmod\n        /* \"Evm/zk/balance_verifier.sol\":14305:14308  b_3 */\n      dup5\n        /* \"Evm/zk/balance_verifier.sol\":14298:14333  addmod(b_3, mulmod(n3ab, x0, P), P) */\n      addmod\n        /* \"Evm/zk/balance_verifier.sol\":2363:2429  0x2fcd3ac2a640a154eb23960892a85a68f031ca0c8344b23a577dcf1052b9e775 */\n      0x2fcd3ac2a640a154eb23960892a85a68f031ca0c8344b23a577dcf1052b9e775\n        /* \"Evm/zk/balance_verifier.sol\":14272:14337  addmod(FRACTION_3_82_FP,  addmod(b_3, mulmod(n3ab, x0, P), P), P) */\n      addmod\n        /* \"Evm/zk/balance_verifier.sol\":14265:14271  negate */\n      tag_145\n        /* \"Evm/zk/balance_verifier.sol\":14265:14338  negate(addmod(FRACTION_3_82_FP,  addmod(b_3, mulmod(n3ab, x0, P), P), P)) */\n      jump\t// in\n    tag_174:\n        /* \"Evm/zk/balance_verifier.sol\":14256:14338  y1_pos = negate(addmod(FRACTION_3_82_FP,  addmod(b_3, mulmod(n3ab, x0, P), P), P)) */\n      swap4\n      pop\n        /* \"Evm/zk/balance_verifier.sol\":13967:14350  {... */\n      pop\n      pop\n      pop\n        /* \"Evm/zk/balance_verifier.sol\":14462:14471  bool hint */\n      0x00\n        /* \"Evm/zk/balance_verifier.sol\":14497:14506  uint256 d */\n      0x00\n        /* \"Evm/zk/balance_verifier.sol\":14509:14581  sqrt_Fp(addmod(mulmod(y0_pos, y0_pos, P), mulmod(y1_pos, y1_pos, P), P)) */\n      tag_181\n        /* \"Evm/zk/balance_verifier.sol\":1423:1489  0x30644e72e131a029b85045b68181585d97816a916871ca8d3c208c16d87cfd47 */\n      0x30644e72e131a029b85045b68181585d97816a916871ca8d3c208c16d87cfd47\n        /* \"Evm/zk/balance_verifier.sol\":14517:14580  addmod(mulmod(y0_pos, y0_pos, P), mulmod(y1_pos, y1_pos, P), P) */\n      dup1\n      tag_182\n      jumpi\n      tag_183\n      tag_136\n      jump\t// in\n    tag_183:\n    tag_182:\n        /* \"Evm/zk/balance_verifier.sol\":1423:1489  0x30644e72e131a029b85045b68181585d97816a916871ca8d3c208c16d87cfd47 */\n      0x30644e72e131a029b85045b68181585d97816a916871ca8d3c208c16d87cfd47\n        /* \"Evm/zk/balance_verifier.sol\":14551:14576  mulmod(y1_pos, y1_pos, P) */\n      dup1\n      tag_184\n      jumpi\n      tag_185\n      tag_136\n      jump\t// in\n    tag_185:\n    tag_184:\n        /* \"Evm/zk/balance_verifier.sol\":14566:14572  y1_pos */\n      dup6\n        /* \"Evm/zk/balance_verifier.sol\":14558:14564  y1_pos */\n      dup7\n        /* \"Evm/zk/balance_verifier.sol\":14551:14576  mulmod(y1_pos, y1_pos, P) */\n      mulmod\n        /* \"Evm/zk/balance_verifier.sol\":1423:1489  0x30644e72e131a029b85045b68181585d97816a916871ca8d3c208c16d87cfd47 */\n      0x30644e72e131a029b85045b68181585d97816a916871ca8d3c208c16d87cfd47\n        /* \"Evm/zk/balance_verifier.sol\":14524:14549  mulmod(y0_pos, y0_pos, P) */\n      dup1\n      tag_186\n      jumpi\n      tag_187\n      tag_136\n      jump\t// in\n    tag_187:\n    tag_186:\n        /* \"Evm/zk/balance_verifier.sol\":14539:14545  y0_pos */\n      dup8\n        /* \"Evm/zk/balance_verifier.sol\":14531:14537  y0_pos */\n      dup9\n        /* \"Evm/zk/balance_verifier.sol\":14524:14549  mulmod(y0_pos, y0_pos, P) */\n      mulmod\n        /* \"Evm/zk/balance_verifier.sol\":14517:14580  addmod(mulmod(y0_pos, y0_pos, P), mulmod(y1_pos, y1_pos, P), P) */\n      addmod\n        /* \"Evm/zk/balance_verifier.sol\":14509:14516  sqrt_Fp */\n      tag_141\n        /* \"Evm/zk/balance_verifier.sol\":14509:14581  sqrt_Fp(addmod(mulmod(y0_pos, y0_pos, P), mulmod(y1_pos, y1_pos, P), P)) */\n      jump\t// in\n    tag_181:\n        /* \"Evm/zk/balance_verifier.sol\":14497:14581  uint256 d = sqrt_Fp(addmod(mulmod(y0_pos, y0_pos, P), mulmod(y1_pos, y1_pos, P), P)) */\n      swap1\n      pop\n        /* \"Evm/zk/balance_verifier.sol\":14604:14665  isSquare_Fp(mulmod(addmod(y0_pos, d, P), FRACTION_1_2_FP, P)) */\n      tag_188\n        /* \"Evm/zk/balance_verifier.sol\":1423:1489  0x30644e72e131a029b85045b68181585d97816a916871ca8d3c208c16d87cfd47 */\n      0x30644e72e131a029b85045b68181585d97816a916871ca8d3c208c16d87cfd47\n        /* \"Evm/zk/balance_verifier.sol\":14616:14664  mulmod(addmod(y0_pos, d, P), FRACTION_1_2_FP, P) */\n      dup1\n      tag_189\n      jumpi\n      tag_190\n      tag_136\n      jump\t// in\n    tag_190:\n    tag_189:\n        /* \"Evm/zk/balance_verifier.sol\":2144:2210  0x183227397098d014dc2822db40c0ac2ecbc0b548b438e5469e10460b6c3e7ea4 */\n      0x183227397098d014dc2822db40c0ac2ecbc0b548b438e5469e10460b6c3e7ea4\n        /* \"Evm/zk/balance_verifier.sol\":1423:1489  0x30644e72e131a029b85045b68181585d97816a916871ca8d3c208c16d87cfd47 */\n      0x30644e72e131a029b85045b68181585d97816a916871ca8d3c208c16d87cfd47\n        /* \"Evm/zk/balance_verifier.sol\":14623:14643  addmod(y0_pos, d, P) */\n      dup1\n      tag_191\n      jumpi\n      tag_192\n      tag_136\n      jump\t// in\n    tag_192:\n    tag_191:\n        /* \"Evm/zk/balance_verifier.sol\":14638:14639  d */\n      dup5\n        /* \"Evm/zk/balance_verifier.sol\":14630:14636  y0_pos */\n      dup9\n        /* \"Evm/zk/balance_verifier.sol\":14623:14643  addmod(y0_pos, d, P) */\n      addmod\n        /* \"Evm/zk/balance_verifier.sol\":14616:14664  mulmod(addmod(y0_pos, d, P), FRACTION_1_2_FP, P) */\n      mulmod\n        /* \"Evm/zk/balance_verifier.sol\":14604:14615  isSquare_Fp */\n      tag_193\n        /* \"Evm/zk/balance_verifier.sol\":14604:14665  isSquare_Fp(mulmod(addmod(y0_pos, d, P), FRACTION_1_2_FP, P)) */\n      jump\t// in\n    tag_188:\n        /* \"Evm/zk/balance_verifier.sol\":14603:14665  !isSquare_Fp(mulmod(addmod(y0_pos, d, P), FRACTION_1_2_FP, P)) */\n      iszero\n        /* \"Evm/zk/balance_verifier.sol\":14596:14665  hint = !isSquare_Fp(mulmod(addmod(y0_pos, d, P), FRACTION_1_2_FP, P)) */\n      swap2\n      pop\n        /* \"Evm/zk/balance_verifier.sol\":14482:14677  {... */\n      pop\n        /* \"Evm/zk/balance_verifier.sol\":14730:14760  sqrt_Fp2(y0_pos, y1_pos, hint) */\n      tag_194\n        /* \"Evm/zk/balance_verifier.sol\":14739:14745  y0_pos */\n      dup4\n        /* \"Evm/zk/balance_verifier.sol\":14747:14753  y1_pos */\n      dup4\n        /* \"Evm/zk/balance_verifier.sol\":14755:14759  hint */\n      dup4\n        /* \"Evm/zk/balance_verifier.sol\":14730:14738  sqrt_Fp2 */\n      tag_195\n        /* \"Evm/zk/balance_verifier.sol\":14730:14760  sqrt_Fp2(y0_pos, y1_pos, hint) */\n      jump\t// in\n    tag_194:\n        /* \"Evm/zk/balance_verifier.sol\":14711:14760  (y0_pos, y1_pos) = sqrt_Fp2(y0_pos, y1_pos, hint) */\n      dup1\n      swap4\n      pop\n      dup2\n      swap5\n      pop\n      pop\n      pop\n        /* \"Evm/zk/balance_verifier.sol\":14781:14787  y0_pos */\n      dup3\n        /* \"Evm/zk/balance_verifier.sol\":14775:14777  y0 */\n      dup8\n        /* \"Evm/zk/balance_verifier.sol\":14775:14787  y0 == y0_pos */\n      eq\n        /* \"Evm/zk/balance_verifier.sol\":14775:14803  y0 == y0_pos && y1 == y1_pos */\n      dup1\n      iszero\n      tag_196\n      jumpi\n      pop\n        /* \"Evm/zk/balance_verifier.sol\":14797:14803  y1_pos */\n      dup2\n        /* \"Evm/zk/balance_verifier.sol\":14791:14793  y1 */\n      dup7\n        /* \"Evm/zk/balance_verifier.sol\":14791:14803  y1 == y1_pos */\n      eq\n        /* \"Evm/zk/balance_verifier.sol\":14775:14803  y0 == y0_pos && y1 == y1_pos */\n    tag_196:\n        /* \"Evm/zk/balance_verifier.sol\":14771:15124  if (y0 == y0_pos && y1 == y1_pos) {... */\n      iszero\n      tag_197\n      jumpi\n        /* \"Evm/zk/balance_verifier.sol\":14855:14856  0 */\n      0x00\n        /* \"Evm/zk/balance_verifier.sol\":14838:14842  hint */\n      dup2\n        /* \"Evm/zk/balance_verifier.sol\":14838:14851  hint ? 2  : 0 */\n      tag_198\n      jumpi\n        /* \"Evm/zk/balance_verifier.sol\":14850:14851  0 */\n      0x00\n        /* \"Evm/zk/balance_verifier.sol\":14838:14851  hint ? 2  : 0 */\n      jump(tag_199)\n    tag_198:\n        /* \"Evm/zk/balance_verifier.sol\":14845:14846  2 */\n      0x02\n        /* \"Evm/zk/balance_verifier.sol\":14838:14851  hint ? 2  : 0 */\n    tag_199:\n        /* \"Evm/zk/balance_verifier.sol\":14825:14852  (x0 << 2) | (hint ? 2  : 0) */\n      0xff\n      and\n        /* \"Evm/zk/balance_verifier.sol\":14832:14833  2 */\n      0x02\n        /* \"Evm/zk/balance_verifier.sol\":14826:14828  x0 */\n      dup12\n        /* \"Evm/zk/balance_verifier.sol\":14826:14833  x0 << 2 */\n      swap1\n      shl\n        /* \"Evm/zk/balance_verifier.sol\":14825:14852  (x0 << 2) | (hint ? 2  : 0) */\n      or\n        /* \"Evm/zk/balance_verifier.sol\":14825:14856  (x0 << 2) | (hint ? 2  : 0) | 0 */\n      or\n        /* \"Evm/zk/balance_verifier.sol\":14820:14856  c0 = (x0 << 2) | (hint ? 2  : 0) | 0 */\n      swap5\n      pop\n        /* \"Evm/zk/balance_verifier.sol\":14876:14878  x1 */\n      dup8\n        /* \"Evm/zk/balance_verifier.sol\":14871:14878  c1 = x1 */\n      swap4\n      pop\n        /* \"Evm/zk/balance_verifier.sol\":14771:15124  if (y0 == y0_pos && y1 == y1_pos) {... */\n      jump(tag_200)\n    tag_197:\n        /* \"Evm/zk/balance_verifier.sol\":14906:14920  negate(y0_pos) */\n      tag_201\n        /* \"Evm/zk/balance_verifier.sol\":14913:14919  y0_pos */\n      dup4\n        /* \"Evm/zk/balance_verifier.sol\":14906:14912  negate */\n      tag_145\n        /* \"Evm/zk/balance_verifier.sol\":14906:14920  negate(y0_pos) */\n      jump\t// in\n    tag_201:\n        /* \"Evm/zk/balance_verifier.sol\":14900:14902  y0 */\n      dup8\n        /* \"Evm/zk/balance_verifier.sol\":14900:14920  y0 == negate(y0_pos) */\n      eq\n        /* \"Evm/zk/balance_verifier.sol\":14900:14944  y0 == negate(y0_pos) && y1 == negate(y1_pos) */\n      dup1\n      iszero\n      tag_202\n      jumpi\n      pop\n        /* \"Evm/zk/balance_verifier.sol\":14930:14944  negate(y1_pos) */\n      tag_203\n        /* \"Evm/zk/balance_verifier.sol\":14937:14943  y1_pos */\n      dup3\n        /* \"Evm/zk/balance_verifier.sol\":14930:14936  negate */\n      tag_145\n        /* \"Evm/zk/balance_verifier.sol\":14930:14944  negate(y1_pos) */\n      jump\t// in\n    tag_203:\n        /* \"Evm/zk/balance_verifier.sol\":14924:14926  y1 */\n      dup7\n        /* \"Evm/zk/balance_verifier.sol\":14924:14944  y1 == negate(y1_pos) */\n      eq\n        /* \"Evm/zk/balance_verifier.sol\":14900:14944  y0 == negate(y0_pos) && y1 == negate(y1_pos) */\n    tag_202:\n        /* \"Evm/zk/balance_verifier.sol\":14896:15124  if (y0 == negate(y0_pos) && y1 == negate(y1_pos)) {... */\n      iszero\n      tag_204\n      jumpi\n        /* \"Evm/zk/balance_verifier.sol\":14996:14997  1 */\n      0x01\n        /* \"Evm/zk/balance_verifier.sol\":14979:14983  hint */\n      dup2\n        /* \"Evm/zk/balance_verifier.sol\":14979:14992  hint ? 2  : 0 */\n      tag_205\n      jumpi\n        /* \"Evm/zk/balance_verifier.sol\":14991:14992  0 */\n      0x00\n        /* \"Evm/zk/balance_verifier.sol\":14979:14992  hint ? 2  : 0 */\n      jump(tag_206)\n    tag_205:\n        /* \"Evm/zk/balance_verifier.sol\":14986:14987  2 */\n      0x02\n        /* \"Evm/zk/balance_verifier.sol\":14979:14992  hint ? 2  : 0 */\n    tag_206:\n        /* \"Evm/zk/balance_verifier.sol\":14966:14993  (x0 << 2) | (hint ? 2  : 0) */\n      0xff\n      and\n        /* \"Evm/zk/balance_verifier.sol\":14973:14974  2 */\n      0x02\n        /* \"Evm/zk/balance_verifier.sol\":14967:14969  x0 */\n      dup12\n        /* \"Evm/zk/balance_verifier.sol\":14967:14974  x0 << 2 */\n      swap1\n      shl\n        /* \"Evm/zk/balance_verifier.sol\":14966:14993  (x0 << 2) | (hint ? 2  : 0) */\n      or\n        /* \"Evm/zk/balance_verifier.sol\":14966:14997  (x0 << 2) | (hint ? 2  : 0) | 1 */\n      or\n        /* \"Evm/zk/balance_verifier.sol\":14961:14997  c0 = (x0 << 2) | (hint ? 2  : 0) | 1 */\n      swap5\n      pop\n        /* \"Evm/zk/balance_verifier.sol\":15017:15019  x1 */\n      dup8\n        /* \"Evm/zk/balance_verifier.sol\":15012:15019  c1 = x1 */\n      swap4\n      pop\n        /* \"Evm/zk/balance_verifier.sol\":14896:15124  if (y0 == negate(y0_pos) && y1 == negate(y1_pos)) {... */\n      jump(tag_207)\n    tag_204:\n        /* \"Evm/zk/balance_verifier.sol\":15098:15112  ProofInvalid() */\n      mload(0x40)\n      0x7fcdd1f400000000000000000000000000000000000000000000000000000000\n      dup2\n      mstore\n      0x04\n      add\n      mload(0x40)\n      dup1\n      swap2\n      sub\n      swap1\n      revert\n        /* \"Evm/zk/balance_verifier.sol\":14896:15124  if (y0 == negate(y0_pos) && y1 == negate(y1_pos)) {... */\n    tag_207:\n        /* \"Evm/zk/balance_verifier.sol\":14771:15124  if (y0 == y0_pos && y1 == y1_pos) {... */\n    tag_200:\n        /* \"Evm/zk/balance_verifier.sol\":13549:15131  {... */\n      pop\n      pop\n      pop\n        /* \"Evm/zk/balance_verifier.sol\":13428:15131  function compress_g2(uint256 x0, uint256 x1, uint256 y0, uint256 y1)... */\n    tag_148:\n      swap5\n      pop\n      swap5\n      swap3\n      pop\n      pop\n      pop\n      jump\t// out\n        /* \"Evm/zk/balance_verifier.sol\":17801:21396  function publicInputMSM(uint256[6] calldata input)... */\n    tag_55:\n        /* \"Evm/zk/balance_verifier.sol\":17880:17889  uint256 x */\n      0x00\n        /* \"Evm/zk/balance_verifier.sol\":17891:17900  uint256 y */\n      0x00\n        /* \"Evm/zk/balance_verifier.sol\":18514:18526  bool success */\n      0x00\n        /* \"Evm/zk/balance_verifier.sol\":18529:18533  true */\n      0x01\n        /* \"Evm/zk/balance_verifier.sol\":18514:18533  bool success = true */\n      swap1\n      pop\n        /* \"Evm/zk/balance_verifier.sol\":18599:18603  0x40 */\n      0x40\n        /* \"Evm/zk/balance_verifier.sol\":18593:18604  mload(0x40) */\n      mload\n        /* \"Evm/zk/balance_verifier.sol\":18634:18638  0x40 */\n      0x40\n        /* \"Evm/zk/balance_verifier.sol\":18631:18632  f */\n      dup2\n        /* \"Evm/zk/balance_verifier.sol\":18627:18639  add(f, 0x40) */\n      add\n        /* \"Evm/zk/balance_verifier.sol\":18653:18658  let s */\n      0x00\n        /* \"Evm/zk/balance_verifier.sol\":18682:18692  CONSTANT_X */\n      0x293080bad0ecf5aa9ee1dbde8fe6bd031bbc3b62bea8a30ecc596838ae98f0cc\n        /* \"Evm/zk/balance_verifier.sol\":18679:18680  f */\n      dup4\n        /* \"Evm/zk/balance_verifier.sol\":18672:18693  mstore(f, CONSTANT_X) */\n      mstore\n        /* \"Evm/zk/balance_verifier.sol\":18728:18738  CONSTANT_Y */\n      0x0fb2147a3749dc7066e07d12514b7fc5b2c55779eee8a9325657df0ce426c81c\n        /* \"Evm/zk/balance_verifier.sol\":18721:18725  0x20 */\n      0x20\n        /* \"Evm/zk/balance_verifier.sol\":18718:18719  f */\n      dup5\n        /* \"Evm/zk/balance_verifier.sol\":18714:18726  add(f, 0x20) */\n      add\n        /* \"Evm/zk/balance_verifier.sol\":18707:18739  mstore(add(f, 0x20), CONSTANT_Y) */\n      mstore\n        /* \"Evm/zk/balance_verifier.sol\":18763:18770  PUB_0_X */\n      0xed94690896d594436c8fc771e41dd51bd0168c659e8cd91acd1fc435774700\n        /* \"Evm/zk/balance_verifier.sol\":18760:18761  g */\n      dup3\n        /* \"Evm/zk/balance_verifier.sol\":18753:18771  mstore(g, PUB_0_X) */\n      mstore\n        /* \"Evm/zk/balance_verifier.sol\":18806:18813  PUB_0_Y */\n      0x04d5012cf98d9f12a6d706da677a7addb5e9e204980a85a8e7bb5154948f8fb9\n        /* \"Evm/zk/balance_verifier.sol\":18799:18803  0x20 */\n      0x20\n        /* \"Evm/zk/balance_verifier.sol\":18796:18797  g */\n      dup4\n        /* \"Evm/zk/balance_verifier.sol\":18792:18804  add(g, 0x20) */\n      add\n        /* \"Evm/zk/balance_verifier.sol\":18785:18814  mstore(add(g, 0x20), PUB_0_Y) */\n      mstore\n        /* \"Evm/zk/balance_verifier.sol\":18847:18852  input */\n      dup7\n        /* \"Evm/zk/balance_verifier.sol\":18834:18853  calldataload(input) */\n      calldataload\n        /* \"Evm/zk/balance_verifier.sol\":18828:18853  s :=  calldataload(input) */\n      swap1\n      pop\n        /* \"Evm/zk/balance_verifier.sol\":18888:18889  s */\n      dup1\n        /* \"Evm/zk/balance_verifier.sol\":18881:18885  0x40 */\n      0x40\n        /* \"Evm/zk/balance_verifier.sol\":18878:18879  g */\n      dup4\n        /* \"Evm/zk/balance_verifier.sol\":18874:18886  add(g, 0x40) */\n      add\n        /* \"Evm/zk/balance_verifier.sol\":18867:18890  mstore(add(g, 0x40), s) */\n      mstore\n        /* \"Evm/zk/balance_verifier.sol\":18934:18935  R */\n      0x30644e72e131a029b85045b68181585d2833e84879b9709143e1f593f0000001\n        /* \"Evm/zk/balance_verifier.sol\":18931:18932  s */\n      dup2\n        /* \"Evm/zk/balance_verifier.sol\":18928:18936  lt(s, R) */\n      lt\n        /* \"Evm/zk/balance_verifier.sol\":18919:18926  success */\n      dup5\n        /* \"Evm/zk/balance_verifier.sol\":18915:18937  and(success, lt(s, R)) */\n      and\n        /* \"Evm/zk/balance_verifier.sol\":18904:18937  success := and(success, lt(s, R)) */\n      swap4\n      pop\n        /* \"Evm/zk/balance_verifier.sol\":19021:19025  0x40 */\n      0x40\n        /* \"Evm/zk/balance_verifier.sol\":19018:19019  g */\n      dup3\n        /* \"Evm/zk/balance_verifier.sol\":19012:19016  0x60 */\n      0x60\n        /* \"Evm/zk/balance_verifier.sol\":19009:19010  g */\n      dup5\n        /* \"Evm/zk/balance_verifier.sol\":18993:19007  PRECOMPILE_MUL */\n      0x07\n        /* \"Evm/zk/balance_verifier.sol\":18986:18991  gas() */\n      gas\n        /* \"Evm/zk/balance_verifier.sol\":18975:19026  staticcall(gas(), PRECOMPILE_MUL, g, 0x60, g, 0x40) */\n      staticcall\n        /* \"Evm/zk/balance_verifier.sol\":18966:18973  success */\n      dup5\n        /* \"Evm/zk/balance_verifier.sol\":18962:19027  and(success, staticcall(gas(), PRECOMPILE_MUL, g, 0x60, g, 0x40)) */\n      and\n        /* \"Evm/zk/balance_verifier.sol\":18951:19027  success := and(success, staticcall(gas(), PRECOMPILE_MUL, g, 0x60, g, 0x40)) */\n      swap4\n      pop\n        /* \"Evm/zk/balance_verifier.sol\":19111:19115  0x40 */\n      0x40\n        /* \"Evm/zk/balance_verifier.sol\":19108:19109  f */\n      dup4\n        /* \"Evm/zk/balance_verifier.sol\":19102:19106  0x80 */\n      0x80\n        /* \"Evm/zk/balance_verifier.sol\":19099:19100  f */\n      dup6\n        /* \"Evm/zk/balance_verifier.sol\":19083:19097  PRECOMPILE_ADD */\n      0x06\n        /* \"Evm/zk/balance_verifier.sol\":19076:19081  gas() */\n      gas\n        /* \"Evm/zk/balance_verifier.sol\":19065:19116  staticcall(gas(), PRECOMPILE_ADD, f, 0x80, f, 0x40) */\n      staticcall\n        /* \"Evm/zk/balance_verifier.sol\":19056:19063  success */\n      dup5\n        /* \"Evm/zk/balance_verifier.sol\":19052:19117  and(success, staticcall(gas(), PRECOMPILE_ADD, f, 0x80, f, 0x40)) */\n      and\n        /* \"Evm/zk/balance_verifier.sol\":19041:19117  success := and(success, staticcall(gas(), PRECOMPILE_ADD, f, 0x80, f, 0x40)) */\n      swap4\n      pop\n        /* \"Evm/zk/balance_verifier.sol\":19141:19148  PUB_1_X */\n      0x1f59a3adb8a4308c85ce5db4ad03fd1ac70b56253d89e511c39ef42ce33c3c6a\n        /* \"Evm/zk/balance_verifier.sol\":19138:19139  g */\n      dup3\n        /* \"Evm/zk/balance_verifier.sol\":19131:19149  mstore(g, PUB_1_X) */\n      mstore\n        /* \"Evm/zk/balance_verifier.sol\":19184:19191  PUB_1_Y */\n      0x2cf47f7c50adba5bd86dee7eb1759a16231c2125acb76617b42f9186040f9307\n        /* \"Evm/zk/balance_verifier.sol\":19177:19181  0x20 */\n      0x20\n        /* \"Evm/zk/balance_verifier.sol\":19174:19175  g */\n      dup4\n        /* \"Evm/zk/balance_verifier.sol\":19170:19182  add(g, 0x20) */\n      add\n        /* \"Evm/zk/balance_verifier.sol\":19163:19192  mstore(add(g, 0x20), PUB_1_Y) */\n      mstore\n        /* \"Evm/zk/balance_verifier.sol\":19236:19238  32 */\n      0x20\n        /* \"Evm/zk/balance_verifier.sol\":19229:19234  input */\n      dup8\n        /* \"Evm/zk/balance_verifier.sol\":19225:19239  add(input, 32) */\n      add\n        /* \"Evm/zk/balance_verifier.sol\":19212:19240  calldataload(add(input, 32)) */\n      calldataload\n        /* \"Evm/zk/balance_verifier.sol\":19206:19240  s :=  calldataload(add(input, 32)) */\n      swap1\n      pop\n        /* \"Evm/zk/balance_verifier.sol\":19275:19276  s */\n      dup1\n        /* \"Evm/zk/balance_verifier.sol\":19268:19272  0x40 */\n      0x40\n        /* \"Evm/zk/balance_verifier.sol\":19265:19266  g */\n      dup4\n        /* \"Evm/zk/balance_verifier.sol\":19261:19273  add(g, 0x40) */\n      add\n        /* \"Evm/zk/balance_verifier.sol\":19254:19277  mstore(add(g, 0x40), s) */\n      mstore\n        /* \"Evm/zk/balance_verifier.sol\":19321:19322  R */\n      0x30644e72e131a029b85045b68181585d2833e84879b9709143e1f593f0000001\n        /* \"Evm/zk/balance_verifier.sol\":19318:19319  s */\n      dup2\n        /* \"Evm/zk/balance_verifier.sol\":19315:19323  lt(s, R) */\n      lt\n        /* \"Evm/zk/balance_verifier.sol\":19306:19313  success */\n      dup5\n        /* \"Evm/zk/balance_verifier.sol\":19302:19324  and(success, lt(s, R)) */\n      and\n        /* \"Evm/zk/balance_verifier.sol\":19291:19324  success := and(success, lt(s, R)) */\n      swap4\n      pop\n        /* \"Evm/zk/balance_verifier.sol\":19408:19412  0x40 */\n      0x40\n        /* \"Evm/zk/balance_verifier.sol\":19405:19406  g */\n      dup3\n        /* \"Evm/zk/balance_verifier.sol\":19399:19403  0x60 */\n      0x60\n        /* \"Evm/zk/balance_verifier.sol\":19396:19397  g */\n      dup5\n        /* \"Evm/zk/balance_verifier.sol\":19380:19394  PRECOMPILE_MUL */\n      0x07\n        /* \"Evm/zk/balance_verifier.sol\":19373:19378  gas() */\n      gas\n        /* \"Evm/zk/balance_verifier.sol\":19362:19413  staticcall(gas(), PRECOMPILE_MUL, g, 0x60, g, 0x40) */\n      staticcall\n        /* \"Evm/zk/balance_verifier.sol\":19353:19360  success */\n      dup5\n        /* \"Evm/zk/balance_verifier.sol\":19349:19414  and(success, staticcall(gas(), PRECOMPILE_MUL, g, 0x60, g, 0x40)) */\n      and\n        /* \"Evm/zk/balance_verifier.sol\":19338:19414  success := and(success, staticcall(gas(), PRECOMPILE_MUL, g, 0x60, g, 0x40)) */\n      swap4\n      pop\n        /* \"Evm/zk/balance_verifier.sol\":19498:19502  0x40 */\n      0x40\n        /* \"Evm/zk/balance_verifier.sol\":19495:19496  f */\n      dup4\n        /* \"Evm/zk/balance_verifier.sol\":19489:19493  0x80 */\n      0x80\n        /* \"Evm/zk/balance_verifier.sol\":19486:19487  f */\n      dup6\n        /* \"Evm/zk/balance_verifier.sol\":19470:19484  PRECOMPILE_ADD */\n      0x06\n        /* \"Evm/zk/balance_verifier.sol\":19463:19468  gas() */\n      gas\n        /* \"Evm/zk/balance_verifier.sol\":19452:19503  staticcall(gas(), PRECOMPILE_ADD, f, 0x80, f, 0x40) */\n      staticcall\n        /* \"Evm/zk/balance_verifier.sol\":19443:19450  success */\n      dup5\n        /* \"Evm/zk/balance_verifier.sol\":19439:19504  and(success, staticcall(gas(), PRECOMPILE_ADD, f, 0x80, f, 0x40)) */\n      and\n        /* \"Evm/zk/balance_verifier.sol\":19428:19504  success := and(success, staticcall(gas(), PRECOMPILE_ADD, f, 0x80, f, 0x40)) */\n      swap4\n      pop\n        /* \"Evm/zk/balance_verifier.sol\":19528:19535  PUB_2_X */\n      0x692ea962b343cf5cf11598ad0856eb6c6ed7321ca00e6a1eec1e9182a43ce2\n        /* \"Evm/zk/balance_verifier.sol\":19525:19526  g */\n      dup3\n        /* \"Evm/zk/balance_verifier.sol\":19518:19536  mstore(g, PUB_2_X) */\n      mstore\n        /* \"Evm/zk/balance_verifier.sol\":19571:19578  PUB_2_Y */\n      0x01fa1fd1eaef1b2a563033553e66aba07c9afd34c56b35b75106dfc0da50fc75\n        /* \"Evm/zk/balance_verifier.sol\":19564:19568  0x20 */\n      0x20\n        /* \"Evm/zk/balance_verifier.sol\":19561:19562  g */\n      dup4\n        /* \"Evm/zk/balance_verifier.sol\":19557:19569  add(g, 0x20) */\n      add\n        /* \"Evm/zk/balance_verifier.sol\":19550:19579  mstore(add(g, 0x20), PUB_2_Y) */\n      mstore\n        /* \"Evm/zk/balance_verifier.sol\":19623:19625  64 */\n      0x40\n        /* \"Evm/zk/balance_verifier.sol\":19616:19621  input */\n      dup8\n        /* \"Evm/zk/balance_verifier.sol\":19612:19626  add(input, 64) */\n      add\n        /* \"Evm/zk/balance_verifier.sol\":19599:19627  calldataload(add(input, 64)) */\n      calldataload\n        /* \"Evm/zk/balance_verifier.sol\":19593:19627  s :=  calldataload(add(input, 64)) */\n      swap1\n      pop\n        /* \"Evm/zk/balance_verifier.sol\":19662:19663  s */\n      dup1\n        /* \"Evm/zk/balance_verifier.sol\":19655:19659  0x40 */\n      0x40\n        /* \"Evm/zk/balance_verifier.sol\":19652:19653  g */\n      dup4\n        /* \"Evm/zk/balance_verifier.sol\":19648:19660  add(g, 0x40) */\n      add\n        /* \"Evm/zk/balance_verifier.sol\":19641:19664  mstore(add(g, 0x40), s) */\n      mstore\n        /* \"Evm/zk/balance_verifier.sol\":19708:19709  R */\n      0x30644e72e131a029b85045b68181585d2833e84879b9709143e1f593f0000001\n        /* \"Evm/zk/balance_verifier.sol\":19705:19706  s */\n      dup2\n        /* \"Evm/zk/balance_verifier.sol\":19702:19710  lt(s, R) */\n      lt\n        /* \"Evm/zk/balance_verifier.sol\":19693:19700  success */\n      dup5\n        /* \"Evm/zk/balance_verifier.sol\":19689:19711  and(success, lt(s, R)) */\n      and\n        /* \"Evm/zk/balance_verifier.sol\":19678:19711  success := and(success, lt(s, R)) */\n      swap4\n      pop\n        /* \"Evm/zk/balance_verifier.sol\":19795:19799  0x40 */\n      0x40\n        /* \"Evm/zk/balance_verifier.sol\":19792:19793  g */\n      dup3\n        /* \"Evm/zk/balance_verifier.sol\":19786:19790  0x60 */\n      0x60\n        /* \"Evm/zk/balance_verifier.sol\":19783:19784  g */\n      dup5\n        /* \"Evm/zk/balance_verifier.sol\":19767:19781  PRECOMPILE_MUL */\n      0x07\n        /* \"Evm/zk/balance_verifier.sol\":19760:19765  gas() */\n      gas\n        /* \"Evm/zk/balance_verifier.sol\":19749:19800  staticcall(gas(), PRECOMPILE_MUL, g, 0x60, g, 0x40) */\n      staticcall\n        /* \"Evm/zk/balance_verifier.sol\":19740:19747  success */\n      dup5\n        /* \"Evm/zk/balance_verifier.sol\":19736:19801  and(success, staticcall(gas(), PRECOMPILE_MUL, g, 0x60, g, 0x40)) */\n      and\n        /* \"Evm/zk/balance_verifier.sol\":19725:19801  success := and(success, staticcall(gas(), PRECOMPILE_MUL, g, 0x60, g, 0x40)) */\n      swap4\n      pop\n        /* \"Evm/zk/balance_verifier.sol\":19885:19889  0x40 */\n      0x40\n        /* \"Evm/zk/balance_verifier.sol\":19882:19883  f */\n      dup4\n        /* \"Evm/zk/balance_verifier.sol\":19876:19880  0x80 */\n      0x80\n        /* \"Evm/zk/balance_verifier.sol\":19873:19874  f */\n      dup6\n        /* \"Evm/zk/balance_verifier.sol\":19857:19871  PRECOMPILE_ADD */\n      0x06\n        /* \"Evm/zk/balance_verifier.sol\":19850:19855  gas() */\n      gas\n        /* \"Evm/zk/balance_verifier.sol\":19839:19890  staticcall(gas(), PRECOMPILE_ADD, f, 0x80, f, 0x40) */\n      staticcall\n        /* \"Evm/zk/balance_verifier.sol\":19830:19837  success */\n      dup5\n        /* \"Evm/zk/balance_verifier.sol\":19826:19891  and(success, staticcall(gas(), PRECOMPILE_ADD, f, 0x80, f, 0x40)) */\n      and\n        /* \"Evm/zk/balance_verifier.sol\":19815:19891  success := and(success, staticcall(gas(), PRECOMPILE_ADD, f, 0x80, f, 0x40)) */\n      swap4\n      pop\n        /* \"Evm/zk/balance_verifier.sol\":19915:19922  PUB_3_X */\n      0x055b3627a2c3c463d0a6b51158cb5ad2b80459586556db3e9b98429ff58a075c\n        /* \"Evm/zk/balance_verifier.sol\":19912:19913  g */\n      dup3\n        /* \"Evm/zk/balance_verifier.sol\":19905:19923  mstore(g, PUB_3_X) */\n      mstore\n        /* \"Evm/zk/balance_verifier.sol\":19958:19965  PUB_3_Y */\n      0x05460de3b7f749cef5a42716d8c8c13e20b8766d3d8cc75a16ec18465fea2d89\n        /* \"Evm/zk/balance_verifier.sol\":19951:19955  0x20 */\n      0x20\n        /* \"Evm/zk/balance_verifier.sol\":19948:19949  g */\n      dup4\n        /* \"Evm/zk/balance_verifier.sol\":19944:19956  add(g, 0x20) */\n      add\n        /* \"Evm/zk/balance_verifier.sol\":19937:19966  mstore(add(g, 0x20), PUB_3_Y) */\n      mstore\n        /* \"Evm/zk/balance_verifier.sol\":20010:20012  96 */\n      0x60\n        /* \"Evm/zk/balance_verifier.sol\":20003:20008  input */\n      dup8\n        /* \"Evm/zk/balance_verifier.sol\":19999:20013  add(input, 96) */\n      add\n        /* \"Evm/zk/balance_verifier.sol\":19986:20014  calldataload(add(input, 96)) */\n      calldataload\n        /* \"Evm/zk/balance_verifier.sol\":19980:20014  s :=  calldataload(add(input, 96)) */\n      swap1\n      pop\n        /* \"Evm/zk/balance_verifier.sol\":20049:20050  s */\n      dup1\n        /* \"Evm/zk/balance_verifier.sol\":20042:20046  0x40 */\n      0x40\n        /* \"Evm/zk/balance_verifier.sol\":20039:20040  g */\n      dup4\n        /* \"Evm/zk/balance_verifier.sol\":20035:20047  add(g, 0x40) */\n      add\n        /* \"Evm/zk/balance_verifier.sol\":20028:20051  mstore(add(g, 0x40), s) */\n      mstore\n        /* \"Evm/zk/balance_verifier.sol\":20095:20096  R */\n      0x30644e72e131a029b85045b68181585d2833e84879b9709143e1f593f0000001\n        /* \"Evm/zk/balance_verifier.sol\":20092:20093  s */\n      dup2\n        /* \"Evm/zk/balance_verifier.sol\":20089:20097  lt(s, R) */\n      lt\n        /* \"Evm/zk/balance_verifier.sol\":20080:20087  success */\n      dup5\n        /* \"Evm/zk/balance_verifier.sol\":20076:20098  and(success, lt(s, R)) */\n      and\n        /* \"Evm/zk/balance_verifier.sol\":20065:20098  success := and(success, lt(s, R)) */\n      swap4\n      pop\n        /* \"Evm/zk/balance_verifier.sol\":20182:20186  0x40 */\n      0x40\n        /* \"Evm/zk/balance_verifier.sol\":20179:20180  g */\n      dup3\n        /* \"Evm/zk/balance_verifier.sol\":20173:20177  0x60 */\n      0x60\n        /* \"Evm/zk/balance_verifier.sol\":20170:20171  g */\n      dup5\n        /* \"Evm/zk/balance_verifier.sol\":20154:20168  PRECOMPILE_MUL */\n      0x07\n        /* \"Evm/zk/balance_verifier.sol\":20147:20152  gas() */\n      gas\n        /* \"Evm/zk/balance_verifier.sol\":20136:20187  staticcall(gas(), PRECOMPILE_MUL, g, 0x60, g, 0x40) */\n      staticcall\n        /* \"Evm/zk/balance_verifier.sol\":20127:20134  success */\n      dup5\n        /* \"Evm/zk/balance_verifier.sol\":20123:20188  and(success, staticcall(gas(), PRECOMPILE_MUL, g, 0x60, g, 0x40)) */\n      and\n        /* \"Evm/zk/balance_verifier.sol\":20112:20188  success := and(success, staticcall(gas(), PRECOMPILE_MUL, g, 0x60, g, 0x40)) */\n      swap4\n      pop\n        /* \"Evm/zk/balance_verifier.sol\":20272:20276  0x40 */\n      0x40\n        /* \"Evm/zk/balance_verifier.sol\":20269:20270  f */\n      dup4\n        /* \"Evm/zk/balance_verifier.sol\":20263:20267  0x80 */\n      0x80\n        /* \"Evm/zk/balance_verifier.sol\":20260:20261  f */\n      dup6\n        /* \"Evm/zk/balance_verifier.sol\":20244:20258  PRECOMPILE_ADD */\n      0x06\n        /* \"Evm/zk/balance_verifier.sol\":20237:20242  gas() */\n      gas\n        /* \"Evm/zk/balance_verifier.sol\":20226:20277  staticcall(gas(), PRECOMPILE_ADD, f, 0x80, f, 0x40) */\n      staticcall\n        /* \"Evm/zk/balance_verifier.sol\":20217:20224  success */\n      dup5\n        /* \"Evm/zk/balance_verifier.sol\":20213:20278  and(success, staticcall(gas(), PRECOMPILE_ADD, f, 0x80, f, 0x40)) */\n      and\n        /* \"Evm/zk/balance_verifier.sol\":20202:20278  success := and(success, staticcall(gas(), PRECOMPILE_ADD, f, 0x80, f, 0x40)) */\n      swap4\n      pop\n        /* \"Evm/zk/balance_verifier.sol\":20302:20309  PUB_4_X */\n      0x00\n        /* \"Evm/zk/balance_verifier.sol\":20299:20300  g */\n      dup3\n        /* \"Evm/zk/balance_verifier.sol\":20292:20310  mstore(g, PUB_4_X) */\n      mstore\n        /* \"Evm/zk/balance_verifier.sol\":20345:20352  PUB_4_Y */\n      0x00\n        /* \"Evm/zk/balance_verifier.sol\":20338:20342  0x20 */\n      0x20\n        /* \"Evm/zk/balance_verifier.sol\":20335:20336  g */\n      dup4\n        /* \"Evm/zk/balance_verifier.sol\":20331:20343  add(g, 0x20) */\n      add\n        /* \"Evm/zk/balance_verifier.sol\":20324:20353  mstore(add(g, 0x20), PUB_4_Y) */\n      mstore\n        /* \"Evm/zk/balance_verifier.sol\":20397:20400  128 */\n      0x80\n        /* \"Evm/zk/balance_verifier.sol\":20390:20395  input */\n      dup8\n        /* \"Evm/zk/balance_verifier.sol\":20386:20401  add(input, 128) */\n      add\n        /* \"Evm/zk/balance_verifier.sol\":20373:20402  calldataload(add(input, 128)) */\n      calldataload\n        /* \"Evm/zk/balance_verifier.sol\":20367:20402  s :=  calldataload(add(input, 128)) */\n      swap1\n      pop\n        /* \"Evm/zk/balance_verifier.sol\":20437:20438  s */\n      dup1\n        /* \"Evm/zk/balance_verifier.sol\":20430:20434  0x40 */\n      0x40\n        /* \"Evm/zk/balance_verifier.sol\":20427:20428  g */\n      dup4\n        /* \"Evm/zk/balance_verifier.sol\":20423:20435  add(g, 0x40) */\n      add\n        /* \"Evm/zk/balance_verifier.sol\":20416:20439  mstore(add(g, 0x40), s) */\n      mstore\n        /* \"Evm/zk/balance_verifier.sol\":20483:20484  R */\n      0x30644e72e131a029b85045b68181585d2833e84879b9709143e1f593f0000001\n        /* \"Evm/zk/balance_verifier.sol\":20480:20481  s */\n      dup2\n        /* \"Evm/zk/balance_verifier.sol\":20477:20485  lt(s, R) */\n      lt\n        /* \"Evm/zk/balance_verifier.sol\":20468:20475  success */\n      dup5\n        /* \"Evm/zk/balance_verifier.sol\":20464:20486  and(success, lt(s, R)) */\n      and\n        /* \"Evm/zk/balance_verifier.sol\":20453:20486  success := and(success, lt(s, R)) */\n      swap4\n      pop\n        /* \"Evm/zk/balance_verifier.sol\":20570:20574  0x40 */\n      0x40\n        /* \"Evm/zk/balance_verifier.sol\":20567:20568  g */\n      dup3\n        /* \"Evm/zk/balance_verifier.sol\":20561:20565  0x60 */\n      0x60\n        /* \"Evm/zk/balance_verifier.sol\":20558:20559  g */\n      dup5\n        /* \"Evm/zk/balance_verifier.sol\":20542:20556  PRECOMPILE_MUL */\n      0x07\n        /* \"Evm/zk/balance_verifier.sol\":20535:20540  gas() */\n      gas\n        /* \"Evm/zk/balance_verifier.sol\":20524:20575  staticcall(gas(), PRECOMPILE_MUL, g, 0x60, g, 0x40) */\n      staticcall\n        /* \"Evm/zk/balance_verifier.sol\":20515:20522  success */\n      dup5\n        /* \"Evm/zk/balance_verifier.sol\":20511:20576  and(success, staticcall(gas(), PRECOMPILE_MUL, g, 0x60, g, 0x40)) */\n      and\n        /* \"Evm/zk/balance_verifier.sol\":20500:20576  success := and(success, staticcall(gas(), PRECOMPILE_MUL, g, 0x60, g, 0x40)) */\n      swap4\n      pop\n        /* \"Evm/zk/balance_verifier.sol\":20660:20664  0x40 */\n      0x40\n        /* \"Evm/zk/balance_verifier.sol\":20657:20658  f */\n      dup4\n        /* \"Evm/zk/balance_verifier.sol\":20651:20655  0x80 */\n      0x80\n        /* \"Evm/zk/balance_verifier.sol\":20648:20649  f */\n      dup6\n        /* \"Evm/zk/balance_verifier.sol\":20632:20646  PRECOMPILE_ADD */\n      0x06\n        /* \"Evm/zk/balance_verifier.sol\":20625:20630  gas() */\n      gas\n        /* \"Evm/zk/balance_verifier.sol\":20614:20665  staticcall(gas(), PRECOMPILE_ADD, f, 0x80, f, 0x40) */\n      staticcall\n        /* \"Evm/zk/balance_verifier.sol\":20605:20612  success */\n      dup5\n        /* \"Evm/zk/balance_verifier.sol\":20601:20666  and(success, staticcall(gas(), PRECOMPILE_ADD, f, 0x80, f, 0x40)) */\n      and\n        /* \"Evm/zk/balance_verifier.sol\":20590:20666  success := and(success, staticcall(gas(), PRECOMPILE_ADD, f, 0x80, f, 0x40)) */\n      swap4\n      pop\n        /* \"Evm/zk/balance_verifier.sol\":20690:20697  PUB_5_X */\n      0x060bd0aabf83ee4d7ab16cf6973f9a29655cd25d97b943320d8ad3d5cf8b2dc1\n        /* \"Evm/zk/balance_verifier.sol\":20687:20688  g */\n      dup3\n        /* \"Evm/zk/balance_verifier.sol\":20680:20698  mstore(g, PUB_5_X) */\n      mstore\n        /* \"Evm/zk/balance_verifier.sol\":20733:20740  PUB_5_Y */\n      0x2fe98f4b4a16da4d3e6e6471d2fe6b08753e314a6aef924a1e9d29a3147c60e4\n        /* \"Evm/zk/balance_verifier.sol\":20726:20730  0x20 */\n      0x20\n        /* \"Evm/zk/balance_verifier.sol\":20723:20724  g */\n      dup4\n        /* \"Evm/zk/balance_verifier.sol\":20719:20731  add(g, 0x20) */\n      add\n        /* \"Evm/zk/balance_verifier.sol\":20712:20741  mstore(add(g, 0x20), PUB_5_Y) */\n      mstore\n        /* \"Evm/zk/balance_verifier.sol\":20785:20788  160 */\n      0xa0\n        /* \"Evm/zk/balance_verifier.sol\":20778:20783  input */\n      dup8\n        /* \"Evm/zk/balance_verifier.sol\":20774:20789  add(input, 160) */\n      add\n        /* \"Evm/zk/balance_verifier.sol\":20761:20790  calldataload(add(input, 160)) */\n      calldataload\n        /* \"Evm/zk/balance_verifier.sol\":20755:20790  s :=  calldataload(add(input, 160)) */\n      swap1\n      pop\n        /* \"Evm/zk/balance_verifier.sol\":20825:20826  s */\n      dup1\n        /* \"Evm/zk/balance_verifier.sol\":20818:20822  0x40 */\n      0x40\n        /* \"Evm/zk/balance_verifier.sol\":20815:20816  g */\n      dup4\n        /* \"Evm/zk/balance_verifier.sol\":20811:20823  add(g, 0x40) */\n      add\n        /* \"Evm/zk/balance_verifier.sol\":20804:20827  mstore(add(g, 0x40), s) */\n      mstore\n        /* \"Evm/zk/balance_verifier.sol\":20871:20872  R */\n      0x30644e72e131a029b85045b68181585d2833e84879b9709143e1f593f0000001\n        /* \"Evm/zk/balance_verifier.sol\":20868:20869  s */\n      dup2\n        /* \"Evm/zk/balance_verifier.sol\":20865:20873  lt(s, R) */\n      lt\n        /* \"Evm/zk/balance_verifier.sol\":20856:20863  success */\n      dup5\n        /* \"Evm/zk/balance_verifier.sol\":20852:20874  and(success, lt(s, R)) */\n      and\n        /* \"Evm/zk/balance_verifier.sol\":20841:20874  success := and(success, lt(s, R)) */\n      swap4\n      pop\n        /* \"Evm/zk/balance_verifier.sol\":20958:20962  0x40 */\n      0x40\n        /* \"Evm/zk/balance_verifier.sol\":20955:20956  g */\n      dup3\n        /* \"Evm/zk/balance_verifier.sol\":20949:20953  0x60 */\n      0x60\n        /* \"Evm/zk/balance_verifier.sol\":20946:20947  g */\n      dup5\n        /* \"Evm/zk/balance_verifier.sol\":20930:20944  PRECOMPILE_MUL */\n      0x07\n        /* \"Evm/zk/balance_verifier.sol\":20923:20928  gas() */\n      gas\n        /* \"Evm/zk/balance_verifier.sol\":20912:20963  staticcall(gas(), PRECOMPILE_MUL, g, 0x60, g, 0x40) */\n      staticcall\n        /* \"Evm/zk/balance_verifier.sol\":20903:20910  success */\n      dup5\n        /* \"Evm/zk/balance_verifier.sol\":20899:20964  and(success, staticcall(gas(), PRECOMPILE_MUL, g, 0x60, g, 0x40)) */\n      and\n        /* \"Evm/zk/balance_verifier.sol\":20888:20964  success := and(success, staticcall(gas(), PRECOMPILE_MUL, g, 0x60, g, 0x40)) */\n      swap4\n      pop\n        /* \"Evm/zk/balance_verifier.sol\":21048:21052  0x40 */\n      0x40\n        /* \"Evm/zk/balance_verifier.sol\":21045:21046  f */\n      dup4\n        /* \"Evm/zk/balance_verifier.sol\":21039:21043  0x80 */\n      0x80\n        /* \"Evm/zk/balance_verifier.sol\":21036:21037  f */\n      dup6\n        /* \"Evm/zk/balance_verifier.sol\":21020:21034  PRECOMPILE_ADD */\n      0x06\n        /* \"Evm/zk/balance_verifier.sol\":21013:21018  gas() */\n      gas\n        /* \"Evm/zk/balance_verifier.sol\":21002:21053  staticcall(gas(), PRECOMPILE_ADD, f, 0x80, f, 0x40) */\n      staticcall\n        /* \"Evm/zk/balance_verifier.sol\":20993:21000  success */\n      dup5\n        /* \"Evm/zk/balance_verifier.sol\":20989:21054  and(success, staticcall(gas(), PRECOMPILE_ADD, f, 0x80, f, 0x40)) */\n      and\n        /* \"Evm/zk/balance_verifier.sol\":20978:21054  success := and(success, staticcall(gas(), PRECOMPILE_ADD, f, 0x80, f, 0x40)) */\n      swap4\n      pop\n        /* \"Evm/zk/balance_verifier.sol\":21081:21082  f */\n      dup3\n        /* \"Evm/zk/balance_verifier.sol\":21075:21083  mload(f) */\n      mload\n        /* \"Evm/zk/balance_verifier.sol\":21070:21083  x := mload(f) */\n      swap6\n      pop\n        /* \"Evm/zk/balance_verifier.sol\":21115:21119  0x20 */\n      0x20\n        /* \"Evm/zk/balance_verifier.sol\":21112:21113  f */\n      dup4\n        /* \"Evm/zk/balance_verifier.sol\":21108:21120  add(f, 0x20) */\n      add\n        /* \"Evm/zk/balance_verifier.sol\":21102:21121  mload(add(f, 0x20)) */\n      mload\n        /* \"Evm/zk/balance_verifier.sol\":21097:21121  y := mload(add(f, 0x20)) */\n      swap5\n      pop\n        /* \"Evm/zk/balance_verifier.sol\":18569:21132  {... */\n      pop\n      pop\n      pop\n        /* \"Evm/zk/balance_verifier.sol\":21147:21154  success */\n      dup1\n        /* \"Evm/zk/balance_verifier.sol\":21142:21389  if (!success) {... */\n      tag_209\n      jumpi\n        /* \"Evm/zk/balance_verifier.sol\":21354:21377  PublicInputNotInField() */\n      mload(0x40)\n      0xa54f8e2700000000000000000000000000000000000000000000000000000000\n      dup2\n      mstore\n      0x04\n      add\n      mload(0x40)\n      dup1\n      swap2\n      sub\n      swap1\n      revert\n        /* \"Evm/zk/balance_verifier.sol\":21142:21389  if (!success) {... */\n    tag_209:\n        /* \"Evm/zk/balance_verifier.sol\":17902:21396  {... */\n      pop\n        /* \"Evm/zk/balance_verifier.sol\":17801:21396  function publicInputMSM(uint256[6] calldata input)... */\n      swap2\n      pop\n      swap2\n      jump\t// out\n        /* \"Evm/zk/balance_verifier.sol\":11749:12646  function decompress_g1(uint256 c) internal view returns (uint256 x, uint256 y) {... */\n    tag_63:\n        /* \"Evm/zk/balance_verifier.sol\":11806:11815  uint256 x */\n      0x00\n        /* \"Evm/zk/balance_verifier.sol\":11817:11826  uint256 y */\n      0x00\n        /* \"Evm/zk/balance_verifier.sol\":11996:11997  0 */\n      0x00\n        /* \"Evm/zk/balance_verifier.sol\":11991:11992  c */\n      dup4\n        /* \"Evm/zk/balance_verifier.sol\":11991:11997  c == 0 */\n      sub\n        /* \"Evm/zk/balance_verifier.sol\":11987:12106  if (c == 0) {... */\n      tag_211\n      jumpi\n        /* \"Evm/zk/balance_verifier.sol\":12089:12090  0 */\n      0x00\n        /* \"Evm/zk/balance_verifier.sol\":12092:12093  0 */\n      0x00\n        /* \"Evm/zk/balance_verifier.sol\":12081:12094  return (0, 0) */\n      swap2\n      pop\n      swap2\n      pop\n      jump(tag_210)\n        /* \"Evm/zk/balance_verifier.sol\":11987:12106  if (c == 0) {... */\n    tag_211:\n        /* \"Evm/zk/balance_verifier.sol\":12116:12133  bool negate_point */\n      0x00\n        /* \"Evm/zk/balance_verifier.sol\":12145:12146  1 */\n      0x01\n        /* \"Evm/zk/balance_verifier.sol\":12140:12141  1 */\n      dup1\n        /* \"Evm/zk/balance_verifier.sol\":12136:12137  c */\n      dup6\n        /* \"Evm/zk/balance_verifier.sol\":12136:12141  c & 1 */\n      and\n        /* \"Evm/zk/balance_verifier.sol\":12136:12146  c & 1 == 1 */\n      eq\n        /* \"Evm/zk/balance_verifier.sol\":12116:12146  bool negate_point = c & 1 == 1 */\n      swap1\n      pop\n        /* \"Evm/zk/balance_verifier.sol\":12166:12167  1 */\n      0x01\n        /* \"Evm/zk/balance_verifier.sol\":12161:12162  c */\n      dup5\n        /* \"Evm/zk/balance_verifier.sol\":12161:12167  c >> 1 */\n      swap1\n      shr\n        /* \"Evm/zk/balance_verifier.sol\":12157:12167  x = c >> 1 */\n      swap3\n      pop\n        /* \"Evm/zk/balance_verifier.sol\":1423:1489  0x30644e72e131a029b85045b68181585d97816a916871ca8d3c208c16d87cfd47 */\n      0x30644e72e131a029b85045b68181585d97816a916871ca8d3c208c16d87cfd47\n        /* \"Evm/zk/balance_verifier.sol\":12182:12183  x */\n      dup4\n        /* \"Evm/zk/balance_verifier.sol\":12182:12188  x >= P */\n      lt\n        /* \"Evm/zk/balance_verifier.sol\":12178:12284  if (x >= P) {... */\n      tag_212\n      jumpi\n        /* \"Evm/zk/balance_verifier.sol\":12258:12272  ProofInvalid() */\n      mload(0x40)\n      0x7fcdd1f400000000000000000000000000000000000000000000000000000000\n      dup2\n      mstore\n      0x04\n      add\n      mload(0x40)\n      dup1\n      swap2\n      sub\n      swap1\n      revert\n        /* \"Evm/zk/balance_verifier.sol\":12178:12284  if (x >= P) {... */\n    tag_212:\n        /* \"Evm/zk/balance_verifier.sol\":12518:12570  sqrt_Fp(addmod(mulmod(mulmod(x, x, P), x, P), 3, P)) */\n      tag_213\n        /* \"Evm/zk/balance_verifier.sol\":1423:1489  0x30644e72e131a029b85045b68181585d97816a916871ca8d3c208c16d87cfd47 */\n      0x30644e72e131a029b85045b68181585d97816a916871ca8d3c208c16d87cfd47\n        /* \"Evm/zk/balance_verifier.sol\":12526:12569  addmod(mulmod(mulmod(x, x, P), x, P), 3, P) */\n      dup1\n      tag_214\n      jumpi\n      tag_215\n      tag_136\n      jump\t// in\n    tag_215:\n    tag_214:\n        /* \"Evm/zk/balance_verifier.sol\":12564:12565  3 */\n      0x03\n        /* \"Evm/zk/balance_verifier.sol\":1423:1489  0x30644e72e131a029b85045b68181585d97816a916871ca8d3c208c16d87cfd47 */\n      0x30644e72e131a029b85045b68181585d97816a916871ca8d3c208c16d87cfd47\n        /* \"Evm/zk/balance_verifier.sol\":12533:12562  mulmod(mulmod(x, x, P), x, P) */\n      dup1\n      tag_216\n      jumpi\n      tag_217\n      tag_136\n      jump\t// in\n    tag_217:\n    tag_216:\n        /* \"Evm/zk/balance_verifier.sol\":12557:12558  x */\n      dup7\n        /* \"Evm/zk/balance_verifier.sol\":1423:1489  0x30644e72e131a029b85045b68181585d97816a916871ca8d3c208c16d87cfd47 */\n      0x30644e72e131a029b85045b68181585d97816a916871ca8d3c208c16d87cfd47\n        /* \"Evm/zk/balance_verifier.sol\":12540:12555  mulmod(x, x, P) */\n      dup1\n      tag_218\n      jumpi\n      tag_219\n      tag_136\n      jump\t// in\n    tag_219:\n    tag_218:\n        /* \"Evm/zk/balance_verifier.sol\":12550:12551  x */\n      dup9\n        /* \"Evm/zk/balance_verifier.sol\":12547:12548  x */\n      dup10\n        /* \"Evm/zk/balance_verifier.sol\":12540:12555  mulmod(x, x, P) */\n      mulmod\n        /* \"Evm/zk/balance_verifier.sol\":12533:12562  mulmod(mulmod(x, x, P), x, P) */\n      mulmod\n        /* \"Evm/zk/balance_verifier.sol\":12526:12569  addmod(mulmod(mulmod(x, x, P), x, P), 3, P) */\n      addmod\n        /* \"Evm/zk/balance_verifier.sol\":12518:12525  sqrt_Fp */\n      tag_141\n        /* \"Evm/zk/balance_verifier.sol\":12518:12570  sqrt_Fp(addmod(mulmod(mulmod(x, x, P), x, P), 3, P)) */\n      jump\t// in\n    tag_213:\n        /* \"Evm/zk/balance_verifier.sol\":12514:12570  y = sqrt_Fp(addmod(mulmod(mulmod(x, x, P), x, P), 3, P)) */\n      swap2\n      pop\n        /* \"Evm/zk/balance_verifier.sol\":12585:12597  negate_point */\n      dup1\n        /* \"Evm/zk/balance_verifier.sol\":12581:12639  if (negate_point) {... */\n      iszero\n      tag_220\n      jumpi\n        /* \"Evm/zk/balance_verifier.sol\":12618:12627  negate(y) */\n      tag_221\n        /* \"Evm/zk/balance_verifier.sol\":12625:12626  y */\n      dup3\n        /* \"Evm/zk/balance_verifier.sol\":12618:12624  negate */\n      tag_145\n        /* \"Evm/zk/balance_verifier.sol\":12618:12627  negate(y) */\n      jump\t// in\n    tag_221:\n        /* \"Evm/zk/balance_verifier.sol\":12614:12627  y = negate(y) */\n      swap2\n      pop\n        /* \"Evm/zk/balance_verifier.sol\":12581:12639  if (negate_point) {... */\n    tag_220:\n        /* \"Evm/zk/balance_verifier.sol\":11828:12646  {... */\n      pop\n        /* \"Evm/zk/balance_verifier.sol\":11749:12646  function decompress_g1(uint256 c) internal view returns (uint256 x, uint256 y) {... */\n    tag_210:\n      swap2\n      pop\n      swap2\n      jump\t// out\n        /* \"Evm/zk/balance_verifier.sol\":15882:17293  function decompress_g2(uint256 c0, uint256 c1)... */\n    tag_69:\n        /* \"Evm/zk/balance_verifier.sol\":15957:15967  uint256 x0 */\n      0x00\n        /* \"Evm/zk/balance_verifier.sol\":15969:15979  uint256 x1 */\n      0x00\n        /* \"Evm/zk/balance_verifier.sol\":15981:15991  uint256 y0 */\n      0x00\n        /* \"Evm/zk/balance_verifier.sol\":15993:16003  uint256 y1 */\n      0x00\n        /* \"Evm/zk/balance_verifier.sol\":16183:16184  0 */\n      0x00\n        /* \"Evm/zk/balance_verifier.sol\":16177:16179  c0 */\n      dup7\n        /* \"Evm/zk/balance_verifier.sol\":16177:16184  c0 == 0 */\n      eq\n        /* \"Evm/zk/balance_verifier.sol\":16177:16195  c0 == 0 && c1 == 0 */\n      dup1\n      iszero\n      tag_223\n      jumpi\n      pop\n        /* \"Evm/zk/balance_verifier.sol\":16194:16195  0 */\n      0x00\n        /* \"Evm/zk/balance_verifier.sol\":16188:16190  c1 */\n      dup6\n        /* \"Evm/zk/balance_verifier.sol\":16188:16195  c1 == 0 */\n      eq\n        /* \"Evm/zk/balance_verifier.sol\":16177:16195  c0 == 0 && c1 == 0 */\n    tag_223:\n        /* \"Evm/zk/balance_verifier.sol\":16173:16299  if (c0 == 0 && c1 == 0) {... */\n      iszero\n      tag_224\n      jumpi\n        /* \"Evm/zk/balance_verifier.sol\":16276:16277  0 */\n      0x00\n        /* \"Evm/zk/balance_verifier.sol\":16279:16280  0 */\n      0x00\n        /* \"Evm/zk/balance_verifier.sol\":16282:16283  0 */\n      0x00\n        /* \"Evm/zk/balance_verifier.sol\":16285:16286  0 */\n      0x00\n        /* \"Evm/zk/balance_verifier.sol\":16268:16287  return (0, 0, 0, 0) */\n      swap4\n      pop\n      swap4\n      pop\n      swap4\n      pop\n      swap4\n      pop\n      jump(tag_222)\n        /* \"Evm/zk/balance_verifier.sol\":16173:16299  if (c0 == 0 && c1 == 0) {... */\n    tag_224:\n        /* \"Evm/zk/balance_verifier.sol\":16309:16326  bool negate_point */\n      0x00\n        /* \"Evm/zk/balance_verifier.sol\":16339:16340  1 */\n      0x01\n        /* \"Evm/zk/balance_verifier.sol\":16334:16335  1 */\n      dup1\n        /* \"Evm/zk/balance_verifier.sol\":16329:16331  c0 */\n      dup9\n        /* \"Evm/zk/balance_verifier.sol\":16329:16335  c0 & 1 */\n      and\n        /* \"Evm/zk/balance_verifier.sol\":16329:16340  c0 & 1 == 1 */\n      eq\n        /* \"Evm/zk/balance_verifier.sol\":16309:16340  bool negate_point = c0 & 1 == 1 */\n      swap1\n      pop\n        /* \"Evm/zk/balance_verifier.sol\":16351:16360  bool hint */\n      0x00\n        /* \"Evm/zk/balance_verifier.sol\":16373:16374  2 */\n      0x02\n        /* \"Evm/zk/balance_verifier.sol\":16368:16369  2 */\n      dup1\n        /* \"Evm/zk/balance_verifier.sol\":16363:16365  c0 */\n      dup10\n        /* \"Evm/zk/balance_verifier.sol\":16363:16369  c0 & 2 */\n      and\n        /* \"Evm/zk/balance_verifier.sol\":16363:16374  c0 & 2 == 2 */\n      eq\n        /* \"Evm/zk/balance_verifier.sol\":16351:16374  bool hint = c0 & 2 == 2 */\n      swap1\n      pop\n        /* \"Evm/zk/balance_verifier.sol\":16396:16397  2 */\n      0x02\n        /* \"Evm/zk/balance_verifier.sol\":16390:16392  c0 */\n      dup9\n        /* \"Evm/zk/balance_verifier.sol\":16390:16397  c0 >> 2 */\n      swap1\n      shr\n        /* \"Evm/zk/balance_verifier.sol\":16385:16397  x0 = c0 >> 2 */\n      swap6\n      pop\n        /* \"Evm/zk/balance_verifier.sol\":16413:16415  c1 */\n      dup7\n        /* \"Evm/zk/balance_verifier.sol\":16408:16415  x1 = c1 */\n      swap5\n      pop\n        /* \"Evm/zk/balance_verifier.sol\":1423:1489  0x30644e72e131a029b85045b68181585d97816a916871ca8d3c208c16d87cfd47 */\n      0x30644e72e131a029b85045b68181585d97816a916871ca8d3c208c16d87cfd47\n        /* \"Evm/zk/balance_verifier.sol\":16430:16432  x0 */\n      dup7\n        /* \"Evm/zk/balance_verifier.sol\":16430:16437  x0 >= P */\n      lt\n      iszero\n        /* \"Evm/zk/balance_verifier.sol\":16430:16448  x0 >= P || x1 >= P */\n      dup1\n      tag_225\n      jumpi\n      pop\n        /* \"Evm/zk/balance_verifier.sol\":1423:1489  0x30644e72e131a029b85045b68181585d97816a916871ca8d3c208c16d87cfd47 */\n      0x30644e72e131a029b85045b68181585d97816a916871ca8d3c208c16d87cfd47\n        /* \"Evm/zk/balance_verifier.sol\":16441:16443  x1 */\n      dup6\n        /* \"Evm/zk/balance_verifier.sol\":16441:16448  x1 >= P */\n      lt\n      iszero\n        /* \"Evm/zk/balance_verifier.sol\":16430:16448  x0 >= P || x1 >= P */\n    tag_225:\n        /* \"Evm/zk/balance_verifier.sol\":16426:16552  if (x0 >= P || x1 >= P) {... */\n      iszero\n      tag_226\n      jumpi\n        /* \"Evm/zk/balance_verifier.sol\":16526:16540  ProofInvalid() */\n      mload(0x40)\n      0x7fcdd1f400000000000000000000000000000000000000000000000000000000\n      dup2\n      mstore\n      0x04\n      add\n      mload(0x40)\n      dup1\n      swap2\n      sub\n      swap1\n      revert\n        /* \"Evm/zk/balance_verifier.sol\":16426:16552  if (x0 >= P || x1 >= P) {... */\n    tag_226:\n        /* \"Evm/zk/balance_verifier.sol\":16564:16576  uint256 n3ab */\n      0x00\n        /* \"Evm/zk/balance_verifier.sol\":1423:1489  0x30644e72e131a029b85045b68181585d97816a916871ca8d3c208c16d87cfd47 */\n      0x30644e72e131a029b85045b68181585d97816a916871ca8d3c208c16d87cfd47\n        /* \"Evm/zk/balance_verifier.sol\":16579:16612  mulmod(mulmod(x0, x1, P), P-3, P) */\n      dup1\n      tag_227\n      jumpi\n      tag_228\n      tag_136\n      jump\t// in\n    tag_228:\n    tag_227:\n        /* \"Evm/zk/balance_verifier.sol\":16607:16608  3 */\n      0x03\n        /* \"Evm/zk/balance_verifier.sol\":1423:1489  0x30644e72e131a029b85045b68181585d97816a916871ca8d3c208c16d87cfd47 */\n      0x30644e72e131a029b85045b68181585d97816a916871ca8d3c208c16d87cfd47\n        /* \"Evm/zk/balance_verifier.sol\":16605:16608  P-3 */\n      tag_229\n      swap2\n      swap1\n      tag_157\n      jump\t// in\n    tag_229:\n        /* \"Evm/zk/balance_verifier.sol\":1423:1489  0x30644e72e131a029b85045b68181585d97816a916871ca8d3c208c16d87cfd47 */\n      0x30644e72e131a029b85045b68181585d97816a916871ca8d3c208c16d87cfd47\n        /* \"Evm/zk/balance_verifier.sol\":16586:16603  mulmod(x0, x1, P) */\n      dup1\n      tag_230\n      jumpi\n      tag_231\n      tag_136\n      jump\t// in\n    tag_231:\n    tag_230:\n        /* \"Evm/zk/balance_verifier.sol\":16597:16599  x1 */\n      dup9\n        /* \"Evm/zk/balance_verifier.sol\":16593:16595  x0 */\n      dup11\n        /* \"Evm/zk/balance_verifier.sol\":16586:16603  mulmod(x0, x1, P) */\n      mulmod\n        /* \"Evm/zk/balance_verifier.sol\":16579:16612  mulmod(mulmod(x0, x1, P), P-3, P) */\n      mulmod\n        /* \"Evm/zk/balance_verifier.sol\":16564:16612  uint256 n3ab = mulmod(mulmod(x0, x1, P), P-3, P) */\n      swap1\n      pop\n        /* \"Evm/zk/balance_verifier.sol\":16623:16634  uint256 a_3 */\n      0x00\n        /* \"Evm/zk/balance_verifier.sol\":1423:1489  0x30644e72e131a029b85045b68181585d97816a916871ca8d3c208c16d87cfd47 */\n      0x30644e72e131a029b85045b68181585d97816a916871ca8d3c208c16d87cfd47\n        /* \"Evm/zk/balance_verifier.sol\":16637:16669  mulmod(mulmod(x0, x0, P), x0, P) */\n      dup1\n      tag_232\n      jumpi\n      tag_233\n      tag_136\n      jump\t// in\n    tag_233:\n    tag_232:\n        /* \"Evm/zk/balance_verifier.sol\":16663:16665  x0 */\n      dup9\n        /* \"Evm/zk/balance_verifier.sol\":1423:1489  0x30644e72e131a029b85045b68181585d97816a916871ca8d3c208c16d87cfd47 */\n      0x30644e72e131a029b85045b68181585d97816a916871ca8d3c208c16d87cfd47\n        /* \"Evm/zk/balance_verifier.sol\":16644:16661  mulmod(x0, x0, P) */\n      dup1\n      tag_234\n      jumpi\n      tag_235\n      tag_136\n      jump\t// in\n    tag_235:\n    tag_234:\n        /* \"Evm/zk/balance_verifier.sol\":16655:16657  x0 */\n      dup11\n        /* \"Evm/zk/balance_verifier.sol\":16651:16653  x0 */\n      dup12\n        /* \"Evm/zk/balance_verifier.sol\":16644:16661  mulmod(x0, x0, P) */\n      mulmod\n        /* \"Evm/zk/balance_verifier.sol\":16637:16669  mulmod(mulmod(x0, x0, P), x0, P) */\n      mulmod\n        /* \"Evm/zk/balance_verifier.sol\":16623:16669  uint256 a_3 = mulmod(mulmod(x0, x0, P), x0, P) */\n      swap1\n      pop\n        /* \"Evm/zk/balance_verifier.sol\":16680:16691  uint256 b_3 */\n      0x00\n        /* \"Evm/zk/balance_verifier.sol\":1423:1489  0x30644e72e131a029b85045b68181585d97816a916871ca8d3c208c16d87cfd47 */\n      0x30644e72e131a029b85045b68181585d97816a916871ca8d3c208c16d87cfd47\n        /* \"Evm/zk/balance_verifier.sol\":16694:16726  mulmod(mulmod(x1, x1, P), x1, P) */\n      dup1\n      tag_236\n      jumpi\n      tag_237\n      tag_136\n      jump\t// in\n    tag_237:\n    tag_236:\n        /* \"Evm/zk/balance_verifier.sol\":16720:16722  x1 */\n      dup9\n        /* \"Evm/zk/balance_verifier.sol\":1423:1489  0x30644e72e131a029b85045b68181585d97816a916871ca8d3c208c16d87cfd47 */\n      0x30644e72e131a029b85045b68181585d97816a916871ca8d3c208c16d87cfd47\n        /* \"Evm/zk/balance_verifier.sol\":16701:16718  mulmod(x1, x1, P) */\n      dup1\n      tag_238\n      jumpi\n      tag_239\n      tag_136\n      jump\t// in\n    tag_239:\n    tag_238:\n        /* \"Evm/zk/balance_verifier.sol\":16712:16714  x1 */\n      dup11\n        /* \"Evm/zk/balance_verifier.sol\":16708:16710  x1 */\n      dup12\n        /* \"Evm/zk/balance_verifier.sol\":16701:16718  mulmod(x1, x1, P) */\n      mulmod\n        /* \"Evm/zk/balance_verifier.sol\":16694:16726  mulmod(mulmod(x1, x1, P), x1, P) */\n      mulmod\n        /* \"Evm/zk/balance_verifier.sol\":16680:16726  uint256 b_3 = mulmod(mulmod(x1, x1, P), x1, P) */\n      swap1\n      pop\n        /* \"Evm/zk/balance_verifier.sol\":1423:1489  0x30644e72e131a029b85045b68181585d97816a916871ca8d3c208c16d87cfd47 */\n      0x30644e72e131a029b85045b68181585d97816a916871ca8d3c208c16d87cfd47\n        /* \"Evm/zk/balance_verifier.sol\":16744:16809  addmod(FRACTION_27_82_FP, addmod(a_3, mulmod(n3ab, x1, P), P), P) */\n      dup1\n      tag_240\n      jumpi\n      tag_241\n      tag_136\n      jump\t// in\n    tag_241:\n    tag_240:\n        /* \"Evm/zk/balance_verifier.sol\":1423:1489  0x30644e72e131a029b85045b68181585d97816a916871ca8d3c208c16d87cfd47 */\n      0x30644e72e131a029b85045b68181585d97816a916871ca8d3c208c16d87cfd47\n        /* \"Evm/zk/balance_verifier.sol\":16770:16805  addmod(a_3, mulmod(n3ab, x1, P), P) */\n      dup1\n      tag_242\n      jumpi\n      tag_243\n      tag_136\n      jump\t// in\n    tag_243:\n    tag_242:\n        /* \"Evm/zk/balance_verifier.sol\":1423:1489  0x30644e72e131a029b85045b68181585d97816a916871ca8d3c208c16d87cfd47 */\n      0x30644e72e131a029b85045b68181585d97816a916871ca8d3c208c16d87cfd47\n        /* \"Evm/zk/balance_verifier.sol\":16782:16801  mulmod(n3ab, x1, P) */\n      dup1\n      tag_244\n      jumpi\n      tag_245\n      tag_136\n      jump\t// in\n    tag_245:\n    tag_244:\n        /* \"Evm/zk/balance_verifier.sol\":16795:16797  x1 */\n      dup11\n        /* \"Evm/zk/balance_verifier.sol\":16789:16793  n3ab */\n      dup7\n        /* \"Evm/zk/balance_verifier.sol\":16782:16801  mulmod(n3ab, x1, P) */\n      mulmod\n        /* \"Evm/zk/balance_verifier.sol\":16777:16780  a_3 */\n      dup5\n        /* \"Evm/zk/balance_verifier.sol\":16770:16805  addmod(a_3, mulmod(n3ab, x1, P), P) */\n      addmod\n        /* \"Evm/zk/balance_verifier.sol\":2254:2320  0x2b149d40ceb8aaae81be18991be06ac3b5b4c5e559dbefa33267e6dc24a138e5 */\n      0x2b149d40ceb8aaae81be18991be06ac3b5b4c5e559dbefa33267e6dc24a138e5\n        /* \"Evm/zk/balance_verifier.sol\":16744:16809  addmod(FRACTION_27_82_FP, addmod(a_3, mulmod(n3ab, x1, P), P), P) */\n      addmod\n        /* \"Evm/zk/balance_verifier.sol\":16739:16809  y0 = addmod(FRACTION_27_82_FP, addmod(a_3, mulmod(n3ab, x1, P), P), P) */\n      swap7\n      pop\n        /* \"Evm/zk/balance_verifier.sol\":16825:16898  negate(addmod(FRACTION_3_82_FP,  addmod(b_3, mulmod(n3ab, x0, P), P), P)) */\n      tag_246\n        /* \"Evm/zk/balance_verifier.sol\":1423:1489  0x30644e72e131a029b85045b68181585d97816a916871ca8d3c208c16d87cfd47 */\n      0x30644e72e131a029b85045b68181585d97816a916871ca8d3c208c16d87cfd47\n        /* \"Evm/zk/balance_verifier.sol\":16832:16897  addmod(FRACTION_3_82_FP,  addmod(b_3, mulmod(n3ab, x0, P), P), P) */\n      dup1\n      tag_247\n      jumpi\n      tag_248\n      tag_136\n      jump\t// in\n    tag_248:\n    tag_247:\n        /* \"Evm/zk/balance_verifier.sol\":1423:1489  0x30644e72e131a029b85045b68181585d97816a916871ca8d3c208c16d87cfd47 */\n      0x30644e72e131a029b85045b68181585d97816a916871ca8d3c208c16d87cfd47\n        /* \"Evm/zk/balance_verifier.sol\":16858:16893  addmod(b_3, mulmod(n3ab, x0, P), P) */\n      dup1\n      tag_249\n      jumpi\n      tag_250\n      tag_136\n      jump\t// in\n    tag_250:\n    tag_249:\n        /* \"Evm/zk/balance_verifier.sol\":1423:1489  0x30644e72e131a029b85045b68181585d97816a916871ca8d3c208c16d87cfd47 */\n      0x30644e72e131a029b85045b68181585d97816a916871ca8d3c208c16d87cfd47\n        /* \"Evm/zk/balance_verifier.sol\":16870:16889  mulmod(n3ab, x0, P) */\n      dup1\n      tag_251\n      jumpi\n      tag_252\n      tag_136\n      jump\t// in\n    tag_252:\n    tag_251:\n        /* \"Evm/zk/balance_verifier.sol\":16883:16885  x0 */\n      dup13\n        /* \"Evm/zk/balance_verifier.sol\":16877:16881  n3ab */\n      dup8\n        /* \"Evm/zk/balance_verifier.sol\":16870:16889  mulmod(n3ab, x0, P) */\n      mulmod\n        /* \"Evm/zk/balance_verifier.sol\":16865:16868  b_3 */\n      dup5\n        /* \"Evm/zk/balance_verifier.sol\":16858:16893  addmod(b_3, mulmod(n3ab, x0, P), P) */\n      addmod\n        /* \"Evm/zk/balance_verifier.sol\":2363:2429  0x2fcd3ac2a640a154eb23960892a85a68f031ca0c8344b23a577dcf1052b9e775 */\n      0x2fcd3ac2a640a154eb23960892a85a68f031ca0c8344b23a577dcf1052b9e775\n        /* \"Evm/zk/balance_verifier.sol\":16832:16897  addmod(FRACTION_3_82_FP,  addmod(b_3, mulmod(n3ab, x0, P), P), P) */\n      addmod\n        /* \"Evm/zk/balance_verifier.sol\":16825:16831  negate */\n      tag_145\n        /* \"Evm/zk/balance_verifier.sol\":16825:16898  negate(addmod(FRACTION_3_82_FP,  addmod(b_3, mulmod(n3ab, x0, P), P), P)) */\n      jump\t// in\n    tag_246:\n        /* \"Evm/zk/balance_verifier.sol\":16820:16898  y1 = negate(addmod(FRACTION_3_82_FP,  addmod(b_3, mulmod(n3ab, x0, P), P), P)) */\n      swap6\n      pop\n        /* \"Evm/zk/balance_verifier.sol\":17163:17185  sqrt_Fp2(y0, y1, hint) */\n      tag_253\n        /* \"Evm/zk/balance_verifier.sol\":17172:17174  y0 */\n      dup8\n        /* \"Evm/zk/balance_verifier.sol\":17176:17178  y1 */\n      dup8\n        /* \"Evm/zk/balance_verifier.sol\":17180:17184  hint */\n      dup7\n        /* \"Evm/zk/balance_verifier.sol\":17163:17171  sqrt_Fp2 */\n      tag_195\n        /* \"Evm/zk/balance_verifier.sol\":17163:17185  sqrt_Fp2(y0, y1, hint) */\n      jump\t// in\n    tag_253:\n        /* \"Evm/zk/balance_verifier.sol\":17152:17185  (y0, y1) = sqrt_Fp2(y0, y1, hint) */\n      dup1\n      swap8\n      pop\n      dup2\n      swap9\n      pop\n      pop\n      pop\n        /* \"Evm/zk/balance_verifier.sol\":17200:17212  negate_point */\n      dup5\n        /* \"Evm/zk/balance_verifier.sol\":17196:17286  if (negate_point) {... */\n      iszero\n      tag_254\n      jumpi\n        /* \"Evm/zk/balance_verifier.sol\":17234:17244  negate(y0) */\n      tag_255\n        /* \"Evm/zk/balance_verifier.sol\":17241:17243  y0 */\n      dup8\n        /* \"Evm/zk/balance_verifier.sol\":17234:17240  negate */\n      tag_145\n        /* \"Evm/zk/balance_verifier.sol\":17234:17244  negate(y0) */\n      jump\t// in\n    tag_255:\n        /* \"Evm/zk/balance_verifier.sol\":17229:17244  y0 = negate(y0) */\n      swap7\n      pop\n        /* \"Evm/zk/balance_verifier.sol\":17264:17274  negate(y1) */\n      tag_256\n        /* \"Evm/zk/balance_verifier.sol\":17271:17273  y1 */\n      dup7\n        /* \"Evm/zk/balance_verifier.sol\":17264:17270  negate */\n      tag_145\n        /* \"Evm/zk/balance_verifier.sol\":17264:17274  negate(y1) */\n      jump\t// in\n    tag_256:\n        /* \"Evm/zk/balance_verifier.sol\":17259:17274  y1 = negate(y1) */\n      swap6\n      pop\n        /* \"Evm/zk/balance_verifier.sol\":17196:17286  if (negate_point) {... */\n    tag_254:\n        /* \"Evm/zk/balance_verifier.sol\":16005:17293  {... */\n      pop\n      pop\n      pop\n      pop\n      pop\n        /* \"Evm/zk/balance_verifier.sol\":15882:17293  function decompress_g2(uint256 c0, uint256 c1)... */\n    tag_222:\n      swap3\n      swap6\n      swap2\n      swap5\n      pop\n      swap3\n      pop\n      jump\t// out\n        /* \"Evm/zk/balance_verifier.sol\":8093:8400  function sqrt_Fp(uint256 a) internal view returns (uint256 x) {... */\n    tag_141:\n        /* \"Evm/zk/balance_verifier.sol\":8144:8153  uint256 x */\n      0x00\n        /* \"Evm/zk/balance_verifier.sol\":8170:8189  exp(a, EXP_SQRT_FP) */\n      tag_258\n        /* \"Evm/zk/balance_verifier.sol\":8174:8175  a */\n      dup3\n        /* \"Evm/zk/balance_verifier.sol\":2641:2706  0xC19139CB84C680A6E14116DA060561765E05AA45A1C72A34F082305B61F3F52 */\n      0x0c19139cb84c680a6e14116da060561765e05aa45a1c72a34f082305b61f3f52\n        /* \"Evm/zk/balance_verifier.sol\":8170:8173  exp */\n      tag_259\n        /* \"Evm/zk/balance_verifier.sol\":8170:8189  exp(a, EXP_SQRT_FP) */\n      jump\t// in\n    tag_258:\n        /* \"Evm/zk/balance_verifier.sol\":8166:8189  x = exp(a, EXP_SQRT_FP) */\n      swap1\n      pop\n        /* \"Evm/zk/balance_verifier.sol\":8223:8224  a */\n      dup2\n        /* \"Evm/zk/balance_verifier.sol\":1423:1489  0x30644e72e131a029b85045b68181585d97816a916871ca8d3c208c16d87cfd47 */\n      0x30644e72e131a029b85045b68181585d97816a916871ca8d3c208c16d87cfd47\n        /* \"Evm/zk/balance_verifier.sol\":8204:8219  mulmod(x, x, P) */\n      dup1\n      tag_260\n      jumpi\n      tag_261\n      tag_136\n      jump\t// in\n    tag_261:\n    tag_260:\n        /* \"Evm/zk/balance_verifier.sol\":8214:8215  x */\n      dup3\n        /* \"Evm/zk/balance_verifier.sol\":8211:8212  x */\n      dup4\n        /* \"Evm/zk/balance_verifier.sol\":8204:8219  mulmod(x, x, P) */\n      mulmod\n        /* \"Evm/zk/balance_verifier.sol\":8204:8224  mulmod(x, x, P) != a */\n      eq\n        /* \"Evm/zk/balance_verifier.sol\":8200:8393  if (mulmod(x, x, P) != a) {... */\n      tag_262\n      jumpi\n        /* \"Evm/zk/balance_verifier.sol\":8367:8381  ProofInvalid() */\n      mload(0x40)\n      0x7fcdd1f400000000000000000000000000000000000000000000000000000000\n      dup2\n      mstore\n      0x04\n      add\n      mload(0x40)\n      dup1\n      swap2\n      sub\n      swap1\n      revert\n        /* \"Evm/zk/balance_verifier.sol\":8200:8393  if (mulmod(x, x, P) != a) {... */\n    tag_262:\n        /* \"Evm/zk/balance_verifier.sol\":8093:8400  function sqrt_Fp(uint256 a) internal view returns (uint256 x) {... */\n      swap2\n      swap1\n      pop\n      jump\t// out\n        /* \"Evm/zk/balance_verifier.sol\":6173:6346  function negate(uint256 a) internal pure returns (uint256 x) {... */\n    tag_145:\n        /* \"Evm/zk/balance_verifier.sol\":6223:6232  uint256 x */\n      0x00\n        /* \"Evm/zk/balance_verifier.sol\":1423:1489  0x30644e72e131a029b85045b68181585d97816a916871ca8d3c208c16d87cfd47 */\n      0x30644e72e131a029b85045b68181585d97816a916871ca8d3c208c16d87cfd47\n      dup1\n        /* \"Evm/zk/balance_verifier.sol\":6280:6281  a */\n      dup4\n        /* \"Evm/zk/balance_verifier.sol\":6280:6285  a % P */\n      dup2\n      tag_264\n      jumpi\n      tag_265\n      tag_136\n      jump\t// in\n    tag_265:\n    tag_264:\n      mod\n        /* \"Evm/zk/balance_verifier.sol\":1423:1489  0x30644e72e131a029b85045b68181585d97816a916871ca8d3c208c16d87cfd47 */\n      0x30644e72e131a029b85045b68181585d97816a916871ca8d3c208c16d87cfd47\n        /* \"Evm/zk/balance_verifier.sol\":6275:6286  P - (a % P) */\n      sub\n        /* \"Evm/zk/balance_verifier.sol\":6274:6291  (P - (a % P)) % P */\n      dup2\n      tag_266\n      jumpi\n      tag_267\n      tag_136\n      jump\t// in\n    tag_267:\n    tag_266:\n      mod\n        /* \"Evm/zk/balance_verifier.sol\":6270:6291  x = (P - (a % P)) % P */\n      swap1\n      pop\n        /* \"Evm/zk/balance_verifier.sol\":6173:6346  function negate(uint256 a) internal pure returns (uint256 x) {... */\n      swap2\n      swap1\n      pop\n      jump\t// out\n        /* \"Evm/zk/balance_verifier.sol\":8678:8827  function isSquare_Fp(uint256 a) internal view returns (bool) {... */\n    tag_193:\n        /* \"Evm/zk/balance_verifier.sol\":8733:8737  bool */\n      0x00\n        /* \"Evm/zk/balance_verifier.sol\":8750:8759  uint256 x */\n      0x00\n        /* \"Evm/zk/balance_verifier.sol\":8762:8781  exp(a, EXP_SQRT_FP) */\n      tag_269\n        /* \"Evm/zk/balance_verifier.sol\":8766:8767  a */\n      dup4\n        /* \"Evm/zk/balance_verifier.sol\":2641:2706  0xC19139CB84C680A6E14116DA060561765E05AA45A1C72A34F082305B61F3F52 */\n      0x0c19139cb84c680a6e14116da060561765e05aa45a1c72a34f082305b61f3f52\n        /* \"Evm/zk/balance_verifier.sol\":8762:8765  exp */\n      tag_259\n        /* \"Evm/zk/balance_verifier.sol\":8762:8781  exp(a, EXP_SQRT_FP) */\n      jump\t// in\n    tag_269:\n        /* \"Evm/zk/balance_verifier.sol\":8750:8781  uint256 x = exp(a, EXP_SQRT_FP) */\n      swap1\n      pop\n        /* \"Evm/zk/balance_verifier.sol\":8818:8819  a */\n      dup3\n        /* \"Evm/zk/balance_verifier.sol\":1423:1489  0x30644e72e131a029b85045b68181585d97816a916871ca8d3c208c16d87cfd47 */\n      0x30644e72e131a029b85045b68181585d97816a916871ca8d3c208c16d87cfd47\n        /* \"Evm/zk/balance_verifier.sol\":8799:8814  mulmod(x, x, P) */\n      dup1\n      tag_270\n      jumpi\n      tag_271\n      tag_136\n      jump\t// in\n    tag_271:\n    tag_270:\n        /* \"Evm/zk/balance_verifier.sol\":8809:8810  x */\n      dup3\n        /* \"Evm/zk/balance_verifier.sol\":8806:8807  x */\n      dup4\n        /* \"Evm/zk/balance_verifier.sol\":8799:8814  mulmod(x, x, P) */\n      mulmod\n        /* \"Evm/zk/balance_verifier.sol\":8799:8819  mulmod(x, x, P) == a */\n      eq\n        /* \"Evm/zk/balance_verifier.sol\":8792:8819  return mulmod(x, x, P) == a */\n      swap2\n      pop\n      pop\n        /* \"Evm/zk/balance_verifier.sol\":8678:8827  function isSquare_Fp(uint256 a) internal view returns (bool) {... */\n      swap2\n      swap1\n      pop\n      jump\t// out\n        /* \"Evm/zk/balance_verifier.sol\":9473:10280  function sqrt_Fp2(uint256 a0, uint256 a1, bool hint) internal view returns (uint256 x0, uint256 x1) {... */\n    tag_195:\n        /* \"Evm/zk/balance_verifier.sol\":9549:9559  uint256 x0 */\n      0x00\n        /* \"Evm/zk/balance_verifier.sol\":9561:9571  uint256 x1 */\n      0x00\n        /* \"Evm/zk/balance_verifier.sol\":9653:9662  uint256 d */\n      0x00\n        /* \"Evm/zk/balance_verifier.sol\":9665:9721  sqrt_Fp(addmod(mulmod(a0, a0, P), mulmod(a1, a1, P), P)) */\n      tag_273\n        /* \"Evm/zk/balance_verifier.sol\":1423:1489  0x30644e72e131a029b85045b68181585d97816a916871ca8d3c208c16d87cfd47 */\n      0x30644e72e131a029b85045b68181585d97816a916871ca8d3c208c16d87cfd47\n        /* \"Evm/zk/balance_verifier.sol\":9673:9720  addmod(mulmod(a0, a0, P), mulmod(a1, a1, P), P) */\n      dup1\n      tag_274\n      jumpi\n      tag_275\n      tag_136\n      jump\t// in\n    tag_275:\n    tag_274:\n        /* \"Evm/zk/balance_verifier.sol\":1423:1489  0x30644e72e131a029b85045b68181585d97816a916871ca8d3c208c16d87cfd47 */\n      0x30644e72e131a029b85045b68181585d97816a916871ca8d3c208c16d87cfd47\n        /* \"Evm/zk/balance_verifier.sol\":9699:9716  mulmod(a1, a1, P) */\n      dup1\n      tag_276\n      jumpi\n      tag_277\n      tag_136\n      jump\t// in\n    tag_277:\n    tag_276:\n        /* \"Evm/zk/balance_verifier.sol\":9710:9712  a1 */\n      dup8\n        /* \"Evm/zk/balance_verifier.sol\":9706:9708  a1 */\n      dup9\n        /* \"Evm/zk/balance_verifier.sol\":9699:9716  mulmod(a1, a1, P) */\n      mulmod\n        /* \"Evm/zk/balance_verifier.sol\":1423:1489  0x30644e72e131a029b85045b68181585d97816a916871ca8d3c208c16d87cfd47 */\n      0x30644e72e131a029b85045b68181585d97816a916871ca8d3c208c16d87cfd47\n        /* \"Evm/zk/balance_verifier.sol\":9680:9697  mulmod(a0, a0, P) */\n      dup1\n      tag_278\n      jumpi\n      tag_279\n      tag_136\n      jump\t// in\n    tag_279:\n    tag_278:\n        /* \"Evm/zk/balance_verifier.sol\":9691:9693  a0 */\n      dup10\n        /* \"Evm/zk/balance_verifier.sol\":9687:9689  a0 */\n      dup11\n        /* \"Evm/zk/balance_verifier.sol\":9680:9697  mulmod(a0, a0, P) */\n      mulmod\n        /* \"Evm/zk/balance_verifier.sol\":9673:9720  addmod(mulmod(a0, a0, P), mulmod(a1, a1, P), P) */\n      addmod\n        /* \"Evm/zk/balance_verifier.sol\":9665:9672  sqrt_Fp */\n      tag_141\n        /* \"Evm/zk/balance_verifier.sol\":9665:9721  sqrt_Fp(addmod(mulmod(a0, a0, P), mulmod(a1, a1, P), P)) */\n      jump\t// in\n    tag_273:\n        /* \"Evm/zk/balance_verifier.sol\":9653:9721  uint256 d = sqrt_Fp(addmod(mulmod(a0, a0, P), mulmod(a1, a1, P), P)) */\n      swap1\n      pop\n        /* \"Evm/zk/balance_verifier.sol\":9736:9740  hint */\n      dup4\n        /* \"Evm/zk/balance_verifier.sol\":9732:9782  if (hint) {... */\n      iszero\n      tag_280\n      jumpi\n        /* \"Evm/zk/balance_verifier.sol\":9761:9770  negate(d) */\n      tag_281\n        /* \"Evm/zk/balance_verifier.sol\":9768:9769  d */\n      dup2\n        /* \"Evm/zk/balance_verifier.sol\":9761:9767  negate */\n      tag_145\n        /* \"Evm/zk/balance_verifier.sol\":9761:9770  negate(d) */\n      jump\t// in\n    tag_281:\n        /* \"Evm/zk/balance_verifier.sol\":9757:9770  d = negate(d) */\n      swap1\n      pop\n        /* \"Evm/zk/balance_verifier.sol\":9732:9782  if (hint) {... */\n    tag_280:\n        /* \"Evm/zk/balance_verifier.sol\":9866:9919  sqrt_Fp(mulmod(addmod(a0, d, P), FRACTION_1_2_FP, P)) */\n      tag_282\n        /* \"Evm/zk/balance_verifier.sol\":1423:1489  0x30644e72e131a029b85045b68181585d97816a916871ca8d3c208c16d87cfd47 */\n      0x30644e72e131a029b85045b68181585d97816a916871ca8d3c208c16d87cfd47\n        /* \"Evm/zk/balance_verifier.sol\":9874:9918  mulmod(addmod(a0, d, P), FRACTION_1_2_FP, P) */\n      dup1\n      tag_283\n      jumpi\n      tag_284\n      tag_136\n      jump\t// in\n    tag_284:\n    tag_283:\n        /* \"Evm/zk/balance_verifier.sol\":2144:2210  0x183227397098d014dc2822db40c0ac2ecbc0b548b438e5469e10460b6c3e7ea4 */\n      0x183227397098d014dc2822db40c0ac2ecbc0b548b438e5469e10460b6c3e7ea4\n        /* \"Evm/zk/balance_verifier.sol\":1423:1489  0x30644e72e131a029b85045b68181585d97816a916871ca8d3c208c16d87cfd47 */\n      0x30644e72e131a029b85045b68181585d97816a916871ca8d3c208c16d87cfd47\n        /* \"Evm/zk/balance_verifier.sol\":9881:9897  addmod(a0, d, P) */\n      dup1\n      tag_285\n      jumpi\n      tag_286\n      tag_136\n      jump\t// in\n    tag_286:\n    tag_285:\n        /* \"Evm/zk/balance_verifier.sol\":9892:9893  d */\n      dup5\n        /* \"Evm/zk/balance_verifier.sol\":9888:9890  a0 */\n      dup11\n        /* \"Evm/zk/balance_verifier.sol\":9881:9897  addmod(a0, d, P) */\n      addmod\n        /* \"Evm/zk/balance_verifier.sol\":9874:9918  mulmod(addmod(a0, d, P), FRACTION_1_2_FP, P) */\n      mulmod\n        /* \"Evm/zk/balance_verifier.sol\":9866:9873  sqrt_Fp */\n      tag_141\n        /* \"Evm/zk/balance_verifier.sol\":9866:9919  sqrt_Fp(mulmod(addmod(a0, d, P), FRACTION_1_2_FP, P)) */\n      jump\t// in\n    tag_282:\n        /* \"Evm/zk/balance_verifier.sol\":9861:9919  x0 = sqrt_Fp(mulmod(addmod(a0, d, P), FRACTION_1_2_FP, P)) */\n      swap3\n      pop\n        /* \"Evm/zk/balance_verifier.sol\":1423:1489  0x30644e72e131a029b85045b68181585d97816a916871ca8d3c208c16d87cfd47 */\n      0x30644e72e131a029b85045b68181585d97816a916871ca8d3c208c16d87cfd47\n        /* \"Evm/zk/balance_verifier.sol\":9935:9977  mulmod(a1, invert_Fp(mulmod(x0, 2, P)), P) */\n      dup1\n      tag_287\n      jumpi\n      tag_288\n      tag_136\n      jump\t// in\n    tag_288:\n    tag_287:\n        /* \"Evm/zk/balance_verifier.sol\":9946:9973  invert_Fp(mulmod(x0, 2, P)) */\n      tag_289\n        /* \"Evm/zk/balance_verifier.sol\":1423:1489  0x30644e72e131a029b85045b68181585d97816a916871ca8d3c208c16d87cfd47 */\n      0x30644e72e131a029b85045b68181585d97816a916871ca8d3c208c16d87cfd47\n        /* \"Evm/zk/balance_verifier.sol\":9956:9972  mulmod(x0, 2, P) */\n      dup1\n      tag_290\n      jumpi\n      tag_291\n      tag_136\n      jump\t// in\n    tag_291:\n    tag_290:\n        /* \"Evm/zk/balance_verifier.sol\":9967:9968  2 */\n      0x02\n        /* \"Evm/zk/balance_verifier.sol\":9963:9965  x0 */\n      dup7\n        /* \"Evm/zk/balance_verifier.sol\":9956:9972  mulmod(x0, 2, P) */\n      mulmod\n        /* \"Evm/zk/balance_verifier.sol\":9946:9955  invert_Fp */\n      tag_292\n        /* \"Evm/zk/balance_verifier.sol\":9946:9973  invert_Fp(mulmod(x0, 2, P)) */\n      jump\t// in\n    tag_289:\n        /* \"Evm/zk/balance_verifier.sol\":9942:9944  a1 */\n      dup7\n        /* \"Evm/zk/balance_verifier.sol\":9935:9977  mulmod(a1, invert_Fp(mulmod(x0, 2, P)), P) */\n      mulmod\n        /* \"Evm/zk/balance_verifier.sol\":9930:9977  x1 = mulmod(a1, invert_Fp(mulmod(x0, 2, P)), P) */\n      swap2\n      pop\n        /* \"Evm/zk/balance_verifier.sol\":1423:1489  0x30644e72e131a029b85045b68181585d97816a916871ca8d3c208c16d87cfd47 */\n      0x30644e72e131a029b85045b68181585d97816a916871ca8d3c208c16d87cfd47\n        /* \"Evm/zk/balance_verifier.sol\":10117:10172  addmod(mulmod(x0, x0, P), negate(mulmod(x1, x1, P)), P) */\n      dup1\n      tag_293\n      jumpi\n      tag_294\n      tag_136\n      jump\t// in\n    tag_294:\n    tag_293:\n        /* \"Evm/zk/balance_verifier.sol\":10143:10168  negate(mulmod(x1, x1, P)) */\n      tag_295\n        /* \"Evm/zk/balance_verifier.sol\":1423:1489  0x30644e72e131a029b85045b68181585d97816a916871ca8d3c208c16d87cfd47 */\n      0x30644e72e131a029b85045b68181585d97816a916871ca8d3c208c16d87cfd47\n        /* \"Evm/zk/balance_verifier.sol\":10150:10167  mulmod(x1, x1, P) */\n      dup1\n      tag_296\n      jumpi\n      tag_297\n      tag_136\n      jump\t// in\n    tag_297:\n    tag_296:\n        /* \"Evm/zk/balance_verifier.sol\":10161:10163  x1 */\n      dup5\n        /* \"Evm/zk/balance_verifier.sol\":10157:10159  x1 */\n      dup6\n        /* \"Evm/zk/balance_verifier.sol\":10150:10167  mulmod(x1, x1, P) */\n      mulmod\n        /* \"Evm/zk/balance_verifier.sol\":10143:10149  negate */\n      tag_145\n        /* \"Evm/zk/balance_verifier.sol\":10143:10168  negate(mulmod(x1, x1, P)) */\n      jump\t// in\n    tag_295:\n        /* \"Evm/zk/balance_verifier.sol\":1423:1489  0x30644e72e131a029b85045b68181585d97816a916871ca8d3c208c16d87cfd47 */\n      0x30644e72e131a029b85045b68181585d97816a916871ca8d3c208c16d87cfd47\n        /* \"Evm/zk/balance_verifier.sol\":10124:10141  mulmod(x0, x0, P) */\n      dup1\n      tag_298\n      jumpi\n      tag_299\n      tag_136\n      jump\t// in\n    tag_299:\n    tag_298:\n        /* \"Evm/zk/balance_verifier.sol\":10135:10137  x0 */\n      dup6\n        /* \"Evm/zk/balance_verifier.sol\":10131:10133  x0 */\n      dup7\n        /* \"Evm/zk/balance_verifier.sol\":10124:10141  mulmod(x0, x0, P) */\n      mulmod\n        /* \"Evm/zk/balance_verifier.sol\":10117:10172  addmod(mulmod(x0, x0, P), negate(mulmod(x1, x1, P)), P) */\n      addmod\n        /* \"Evm/zk/balance_verifier.sol\":10111:10113  a0 */\n      dup7\n        /* \"Evm/zk/balance_verifier.sol\":10111:10172  a0 != addmod(mulmod(x0, x0, P), negate(mulmod(x1, x1, P)), P) */\n      eq\n      iszero\n        /* \"Evm/zk/balance_verifier.sol\":10111:10223  a0 != addmod(mulmod(x0, x0, P), negate(mulmod(x1, x1, P)), P)... */\n      dup1\n      tag_300\n      jumpi\n      pop\n        /* \"Evm/zk/balance_verifier.sol\":1423:1489  0x30644e72e131a029b85045b68181585d97816a916871ca8d3c208c16d87cfd47 */\n      0x30644e72e131a029b85045b68181585d97816a916871ca8d3c208c16d87cfd47\n        /* \"Evm/zk/balance_verifier.sol\":10192:10223  mulmod(2, mulmod(x0, x1, P), P) */\n      dup1\n      tag_301\n      jumpi\n      tag_302\n      tag_136\n      jump\t// in\n    tag_302:\n    tag_301:\n        /* \"Evm/zk/balance_verifier.sol\":1423:1489  0x30644e72e131a029b85045b68181585d97816a916871ca8d3c208c16d87cfd47 */\n      0x30644e72e131a029b85045b68181585d97816a916871ca8d3c208c16d87cfd47\n        /* \"Evm/zk/balance_verifier.sol\":10202:10219  mulmod(x0, x1, P) */\n      dup1\n      tag_303\n      jumpi\n      tag_304\n      tag_136\n      jump\t// in\n    tag_304:\n    tag_303:\n        /* \"Evm/zk/balance_verifier.sol\":10213:10215  x1 */\n      dup4\n        /* \"Evm/zk/balance_verifier.sol\":10209:10211  x0 */\n      dup6\n        /* \"Evm/zk/balance_verifier.sol\":10202:10219  mulmod(x0, x1, P) */\n      mulmod\n        /* \"Evm/zk/balance_verifier.sol\":10199:10200  2 */\n      0x02\n        /* \"Evm/zk/balance_verifier.sol\":10192:10223  mulmod(2, mulmod(x0, x1, P), P) */\n      mulmod\n        /* \"Evm/zk/balance_verifier.sol\":10186:10188  a1 */\n      dup6\n        /* \"Evm/zk/balance_verifier.sol\":10186:10223  a1 != mulmod(2, mulmod(x0, x1, P), P) */\n      eq\n      iszero\n        /* \"Evm/zk/balance_verifier.sol\":10111:10223  a0 != addmod(mulmod(x0, x0, P), negate(mulmod(x1, x1, P)), P)... */\n    tag_300:\n        /* \"Evm/zk/balance_verifier.sol\":10107:10273  if (a0 != addmod(mulmod(x0, x0, P), negate(mulmod(x1, x1, P)), P)... */\n      iszero\n      tag_305\n      jumpi\n        /* \"Evm/zk/balance_verifier.sol\":10247:10261  ProofInvalid() */\n      mload(0x40)\n      0x7fcdd1f400000000000000000000000000000000000000000000000000000000\n      dup2\n      mstore\n      0x04\n      add\n      mload(0x40)\n      dup1\n      swap2\n      sub\n      swap1\n      revert\n        /* \"Evm/zk/balance_verifier.sol\":10107:10273  if (a0 != addmod(mulmod(x0, x0, P), negate(mulmod(x1, x1, P)), P)... */\n    tag_305:\n        /* \"Evm/zk/balance_verifier.sol\":9573:10280  {... */\n      pop\n        /* \"Evm/zk/balance_verifier.sol\":9473:10280  function sqrt_Fp2(uint256 a0, uint256 a1, bool hint) internal view returns (uint256 x0, uint256 x1) {... */\n      swap4\n      pop\n      swap4\n      swap2\n      pop\n      pop\n      jump\t// out\n        /* \"Evm/zk/balance_verifier.sol\":6592:7245  function exp(uint256 a, uint256 e) internal view returns (uint256 x) {... */\n    tag_259:\n        /* \"Evm/zk/balance_verifier.sol\":6650:6659  uint256 x */\n      0x00\n        /* \"Evm/zk/balance_verifier.sol\":6672:6684  bool success */\n      0x00\n        /* \"Evm/zk/balance_verifier.sol\":6750:6754  0x40 */\n      0x40\n        /* \"Evm/zk/balance_verifier.sol\":6744:6755  mload(0x40) */\n      mload\n        /* \"Evm/zk/balance_verifier.sol\":6779:6783  0x20 */\n      0x20\n        /* \"Evm/zk/balance_verifier.sol\":6776:6777  f */\n      dup2\n        /* \"Evm/zk/balance_verifier.sol\":6769:6784  mstore(f, 0x20) */\n      mstore\n        /* \"Evm/zk/balance_verifier.sol\":6819:6823  0x20 */\n      0x20\n        /* \"Evm/zk/balance_verifier.sol\":6812:6816  0x20 */\n      dup1\n        /* \"Evm/zk/balance_verifier.sol\":6809:6810  f */\n      dup3\n        /* \"Evm/zk/balance_verifier.sol\":6805:6817  add(f, 0x20) */\n      add\n        /* \"Evm/zk/balance_verifier.sol\":6798:6824  mstore(add(f, 0x20), 0x20) */\n      mstore\n        /* \"Evm/zk/balance_verifier.sol\":6859:6863  0x20 */\n      0x20\n        /* \"Evm/zk/balance_verifier.sol\":6852:6856  0x40 */\n      0x40\n        /* \"Evm/zk/balance_verifier.sol\":6849:6850  f */\n      dup3\n        /* \"Evm/zk/balance_verifier.sol\":6845:6857  add(f, 0x40) */\n      add\n        /* \"Evm/zk/balance_verifier.sol\":6838:6864  mstore(add(f, 0x40), 0x20) */\n      mstore\n        /* \"Evm/zk/balance_verifier.sol\":6899:6900  a */\n      dup5\n        /* \"Evm/zk/balance_verifier.sol\":6892:6896  0x60 */\n      0x60\n        /* \"Evm/zk/balance_verifier.sol\":6889:6890  f */\n      dup3\n        /* \"Evm/zk/balance_verifier.sol\":6885:6897  add(f, 0x60) */\n      add\n        /* \"Evm/zk/balance_verifier.sol\":6878:6901  mstore(add(f, 0x60), a) */\n      mstore\n        /* \"Evm/zk/balance_verifier.sol\":6936:6937  e */\n      dup4\n        /* \"Evm/zk/balance_verifier.sol\":6929:6933  0x80 */\n      0x80\n        /* \"Evm/zk/balance_verifier.sol\":6926:6927  f */\n      dup3\n        /* \"Evm/zk/balance_verifier.sol\":6922:6934  add(f, 0x80) */\n      add\n        /* \"Evm/zk/balance_verifier.sol\":6915:6938  mstore(add(f, 0x80), e) */\n      mstore\n        /* \"Evm/zk/balance_verifier.sol\":6973:6974  P */\n      0x30644e72e131a029b85045b68181585d97816a916871ca8d3c208c16d87cfd47\n        /* \"Evm/zk/balance_verifier.sol\":6966:6970  0xa0 */\n      0xa0\n        /* \"Evm/zk/balance_verifier.sol\":6963:6964  f */\n      dup3\n        /* \"Evm/zk/balance_verifier.sol\":6959:6971  add(f, 0xa0) */\n      add\n        /* \"Evm/zk/balance_verifier.sol\":6952:6975  mstore(add(f, 0xa0), P) */\n      mstore\n        /* \"Evm/zk/balance_verifier.sol\":7049:7053  0x20 */\n      0x20\n        /* \"Evm/zk/balance_verifier.sol\":7046:7047  f */\n      dup2\n        /* \"Evm/zk/balance_verifier.sol\":7040:7044  0xc0 */\n      0xc0\n        /* \"Evm/zk/balance_verifier.sol\":7037:7038  f */\n      dup4\n        /* \"Evm/zk/balance_verifier.sol\":7018:7035  PRECOMPILE_MODEXP */\n      0x05\n        /* \"Evm/zk/balance_verifier.sol\":7011:7016  gas() */\n      gas\n        /* \"Evm/zk/balance_verifier.sol\":7000:7054  staticcall(gas(), PRECOMPILE_MODEXP, f, 0xc0, f, 0x20) */\n      staticcall\n        /* \"Evm/zk/balance_verifier.sol\":6989:7054  success := staticcall(gas(), PRECOMPILE_MODEXP, f, 0xc0, f, 0x20) */\n      swap2\n      pop\n        /* \"Evm/zk/balance_verifier.sol\":7079:7080  f */\n      dup1\n        /* \"Evm/zk/balance_verifier.sol\":7073:7081  mload(f) */\n      mload\n        /* \"Evm/zk/balance_verifier.sol\":7068:7081  x := mload(f) */\n      swap3\n      pop\n        /* \"Evm/zk/balance_verifier.sol\":6720:7092  {... */\n      pop\n        /* \"Evm/zk/balance_verifier.sol\":7107:7114  success */\n      dup1\n        /* \"Evm/zk/balance_verifier.sol\":7102:7238  if (!success) {... */\n      tag_307\n      jumpi\n        /* \"Evm/zk/balance_verifier.sol\":7212:7226  ProofInvalid() */\n      mload(0x40)\n      0x7fcdd1f400000000000000000000000000000000000000000000000000000000\n      dup2\n      mstore\n      0x04\n      add\n      mload(0x40)\n      dup1\n      swap2\n      sub\n      swap1\n      revert\n        /* \"Evm/zk/balance_verifier.sol\":7102:7238  if (!success) {... */\n    tag_307:\n        /* \"Evm/zk/balance_verifier.sol\":6661:7245  {... */\n      pop\n        /* \"Evm/zk/balance_verifier.sol\":6592:7245  function exp(uint256 a, uint256 e) internal view returns (uint256 x) {... */\n      swap3\n      swap2\n      pop\n      pop\n      jump\t// out\n        /* \"Evm/zk/balance_verifier.sol\":7534:7830  function invert_Fp(uint256 a) internal view returns (uint256 x) {... */\n    tag_292:\n        /* \"Evm/zk/balance_verifier.sol\":7587:7596  uint256 x */\n      0x00\n        /* \"Evm/zk/balance_verifier.sol\":7613:7635  exp(a, EXP_INVERSE_FP) */\n      tag_309\n        /* \"Evm/zk/balance_verifier.sol\":7617:7618  a */\n      dup3\n        /* \"Evm/zk/balance_verifier.sol\":2528:2594  0x30644E72E131A029B85045B68181585D97816A916871CA8D3C208C16D87CFD45 */\n      0x30644e72e131a029b85045b68181585d97816a916871ca8d3c208c16d87cfd45\n        /* \"Evm/zk/balance_verifier.sol\":7613:7616  exp */\n      tag_259\n        /* \"Evm/zk/balance_verifier.sol\":7613:7635  exp(a, EXP_INVERSE_FP) */\n      jump\t// in\n    tag_309:\n        /* \"Evm/zk/balance_verifier.sol\":7609:7635  x = exp(a, EXP_INVERSE_FP) */\n      swap1\n      pop\n        /* \"Evm/zk/balance_verifier.sol\":7669:7670  1 */\n      0x01\n        /* \"Evm/zk/balance_verifier.sol\":1423:1489  0x30644e72e131a029b85045b68181585d97816a916871ca8d3c208c16d87cfd47 */\n      0x30644e72e131a029b85045b68181585d97816a916871ca8d3c208c16d87cfd47\n        /* \"Evm/zk/balance_verifier.sol\":7650:7665  mulmod(a, x, P) */\n      dup1\n      tag_310\n      jumpi\n      tag_311\n      tag_136\n      jump\t// in\n    tag_311:\n    tag_310:\n        /* \"Evm/zk/balance_verifier.sol\":7660:7661  x */\n      dup3\n        /* \"Evm/zk/balance_verifier.sol\":7657:7658  a */\n      dup5\n        /* \"Evm/zk/balance_verifier.sol\":7650:7665  mulmod(a, x, P) */\n      mulmod\n        /* \"Evm/zk/balance_verifier.sol\":7650:7670  mulmod(a, x, P) != 1 */\n      eq\n        /* \"Evm/zk/balance_verifier.sol\":7646:7823  if (mulmod(a, x, P) != 1) {... */\n      tag_312\n      jumpi\n        /* \"Evm/zk/balance_verifier.sol\":7797:7811  ProofInvalid() */\n      mload(0x40)\n      0x7fcdd1f400000000000000000000000000000000000000000000000000000000\n      dup2\n      mstore\n      0x04\n      add\n      mload(0x40)\n      dup1\n      swap2\n      sub\n      swap1\n      revert\n        /* \"Evm/zk/balance_verifier.sol\":7646:7823  if (mulmod(a, x, P) != 1) {... */\n    tag_312:\n        /* \"Evm/zk/balance_verifier.sol\":7534:7830  function invert_Fp(uint256 a) internal view returns (uint256 x) {... */\n      swap2\n      swap1\n      pop\n      jump\t// out\n    tag_21:\n      mload(0x40)\n      dup1\n      0x80\n      add\n      0x40\n      mstore\n      dup1\n      0x04\n      swap1\n      0x20\n      dup3\n      mul\n      dup1\n      calldatasize\n      dup4\n      calldatacopy\n      dup1\n      dup3\n      add\n      swap2\n      pop\n      pop\n      swap1\n      pop\n      pop\n      swap1\n      jump\t// out\n    tag_59:\n      mload(0x40)\n      dup1\n      0x0300\n      add\n      0x40\n      mstore\n      dup1\n      0x18\n      swap1\n      0x20\n      dup3\n      mul\n      dup1\n      calldatasize\n      dup4\n      calldatacopy\n      dup1\n      dup3\n      add\n      swap2\n      pop\n      pop\n      swap1\n      pop\n      pop\n      swap1\n      jump\t// out\n    tag_123:\n      mload(0x40)\n      dup1\n      0x20\n      add\n      0x40\n      mstore\n      dup1\n      0x01\n      swap1\n      0x20\n      dup3\n      mul\n      dup1\n      calldatasize\n      dup4\n      calldatacopy\n      dup1\n      dup3\n      add\n      swap2\n      pop\n      pop\n      swap1\n      pop\n      pop\n      swap1\n      jump\t// out\n        /* \"#utility.yul\":88:205   */\n    tag_314:\n        /* \"#utility.yul\":197:198   */\n      0x00\n        /* \"#utility.yul\":194:195   */\n      0x00\n        /* \"#utility.yul\":187:199   */\n      revert\n        /* \"#utility.yul\":334:451   */\n    tag_316:\n        /* \"#utility.yul\":443:444   */\n      0x00\n        /* \"#utility.yul\":440:441   */\n      0x00\n        /* \"#utility.yul\":433:445   */\n      revert\n        /* \"#utility.yul\":475:724   */\n    tag_317:\n        /* \"#utility.yul\":546:554   */\n      0x00\n        /* \"#utility.yul\":577:583   */\n      dup2\n        /* \"#utility.yul\":565:583   */\n      swap1\n      pop\n        /* \"#utility.yul\":630:633   */\n      dup3\n        /* \"#utility.yul\":622:626   */\n      0x20\n        /* \"#utility.yul\":616:620   */\n      0x08\n        /* \"#utility.yul\":612:627   */\n      mul\n        /* \"#utility.yul\":602:610   */\n      dup3\n        /* \"#utility.yul\":598:628   */\n      add\n        /* \"#utility.yul\":595:634   */\n      gt\n        /* \"#utility.yul\":592:718   */\n      iszero\n      tag_335\n      jumpi\n        /* \"#utility.yul\":637:716   */\n      tag_336\n      tag_316\n      jump\t// in\n    tag_336:\n        /* \"#utility.yul\":592:718   */\n    tag_335:\n        /* \"#utility.yul\":475:724   */\n      swap3\n      swap2\n      pop\n      pop\n      jump\t// out\n        /* \"#utility.yul\":730:1110   */\n    tag_8:\n        /* \"#utility.yul\":814:820   */\n      0x00\n        /* \"#utility.yul\":863:866   */\n      0x0100\n        /* \"#utility.yul\":851:860   */\n      dup3\n        /* \"#utility.yul\":842:849   */\n      dup5\n        /* \"#utility.yul\":838:861   */\n      sub\n        /* \"#utility.yul\":834:867   */\n      slt\n        /* \"#utility.yul\":831:951   */\n      iszero\n      tag_338\n      jumpi\n        /* \"#utility.yul\":870:949   */\n      tag_339\n      tag_314\n      jump\t// in\n    tag_339:\n        /* \"#utility.yul\":831:951   */\n    tag_338:\n        /* \"#utility.yul\":990:991   */\n      0x00\n        /* \"#utility.yul\":1015:1093   */\n      tag_340\n        /* \"#utility.yul\":1085:1092   */\n      dup5\n        /* \"#utility.yul\":1076:1082   */\n      dup3\n        /* \"#utility.yul\":1065:1074   */\n      dup6\n        /* \"#utility.yul\":1061:1083   */\n      add\n        /* \"#utility.yul\":1015:1093   */\n      tag_317\n      jump\t// in\n    tag_340:\n        /* \"#utility.yul\":1005:1093   */\n      swap2\n      pop\n        /* \"#utility.yul\":961:1103   */\n      pop\n        /* \"#utility.yul\":730:1110   */\n      swap3\n      swap2\n      pop\n      pop\n      jump\t// out\n        /* \"#utility.yul\":1116:1220   */\n    tag_318:\n        /* \"#utility.yul\":1181:1187   */\n      0x00\n        /* \"#utility.yul\":1209:1213   */\n      0x04\n        /* \"#utility.yul\":1199:1213   */\n      swap1\n      pop\n        /* \"#utility.yul\":1116:1220   */\n      swap2\n      swap1\n      pop\n      jump\t// out\n        /* \"#utility.yul\":1226:1369   */\n    tag_319:\n        /* \"#utility.yul\":1323:1334   */\n      0x00\n        /* \"#utility.yul\":1360:1363   */\n      dup2\n        /* \"#utility.yul\":1345:1363   */\n      swap1\n      pop\n        /* \"#utility.yul\":1226:1369   */\n      swap3\n      swap2\n      pop\n      pop\n      jump\t// out\n        /* \"#utility.yul\":1375:1473   */\n    tag_320:\n        /* \"#utility.yul\":1440:1444   */\n      0x00\n        /* \"#utility.yul\":1463:1466   */\n      dup2\n        /* \"#utility.yul\":1455:1466   */\n      swap1\n      pop\n        /* \"#utility.yul\":1375:1473   */\n      swap2\n      swap1\n      pop\n      jump\t// out\n        /* \"#utility.yul\":1479:1556   */\n    tag_321:\n        /* \"#utility.yul\":1516:1523   */\n      0x00\n        /* \"#utility.yul\":1545:1550   */\n      dup2\n        /* \"#utility.yul\":1534:1550   */\n      swap1\n      pop\n        /* \"#utility.yul\":1479:1556   */\n      swap2\n      swap1\n      pop\n      jump\t// out\n        /* \"#utility.yul\":1562:1670   */\n    tag_322:\n        /* \"#utility.yul\":1639:1663   */\n      tag_346\n        /* \"#utility.yul\":1657:1662   */\n      dup2\n        /* \"#utility.yul\":1639:1663   */\n      tag_321\n      jump\t// in\n    tag_346:\n        /* \"#utility.yul\":1634:1637   */\n      dup3\n        /* \"#utility.yul\":1627:1664   */\n      mstore\n        /* \"#utility.yul\":1562:1670   */\n      pop\n      pop\n      jump\t// out\n        /* \"#utility.yul\":1676:1855   */\n    tag_323:\n        /* \"#utility.yul\":1745:1755   */\n      0x00\n        /* \"#utility.yul\":1766:1812   */\n      tag_348\n        /* \"#utility.yul\":1808:1811   */\n      dup4\n        /* \"#utility.yul\":1800:1806   */\n      dup4\n        /* \"#utility.yul\":1766:1812   */\n      tag_322\n      jump\t// in\n    tag_348:\n        /* \"#utility.yul\":1844:1848   */\n      0x20\n        /* \"#utility.yul\":1839:1842   */\n      dup4\n        /* \"#utility.yul\":1835:1849   */\n      add\n        /* \"#utility.yul\":1821:1849   */\n      swap1\n      pop\n        /* \"#utility.yul\":1676:1855   */\n      swap3\n      swap2\n      pop\n      pop\n      jump\t// out\n        /* \"#utility.yul\":1861:1972   */\n    tag_324:\n        /* \"#utility.yul\":1929:1933   */\n      0x00\n        /* \"#utility.yul\":1961:1965   */\n      0x20\n        /* \"#utility.yul\":1956:1959   */\n      dup3\n        /* \"#utility.yul\":1952:1966   */\n      add\n        /* \"#utility.yul\":1944:1966   */\n      swap1\n      pop\n        /* \"#utility.yul\":1861:1972   */\n      swap2\n      swap1\n      pop\n      jump\t// out\n        /* \"#utility.yul\":2010:2704   */\n    tag_325:\n        /* \"#utility.yul\":2146:2198   */\n      tag_351\n        /* \"#utility.yul\":2192:2197   */\n      dup2\n        /* \"#utility.yul\":2146:2198   */\n      tag_318\n      jump\t// in\n    tag_351:\n        /* \"#utility.yul\":2214:2298   */\n      tag_352\n        /* \"#utility.yul\":2291:2297   */\n      dup2\n        /* \"#utility.yul\":2286:2289   */\n      dup5\n        /* \"#utility.yul\":2214:2298   */\n      tag_319\n      jump\t// in\n    tag_352:\n        /* \"#utility.yul\":2207:2298   */\n      swap3\n      pop\n        /* \"#utility.yul\":2322:2376   */\n      tag_353\n        /* \"#utility.yul\":2370:2375   */\n      dup3\n        /* \"#utility.yul\":2322:2376   */\n      tag_320\n      jump\t// in\n    tag_353:\n        /* \"#utility.yul\":2399:2406   */\n      dup1\n        /* \"#utility.yul\":2430:2431   */\n      0x00\n        /* \"#utility.yul\":2415:2697   */\n    tag_354:\n        /* \"#utility.yul\":2440:2446   */\n      dup4\n        /* \"#utility.yul\":2437:2438   */\n      dup2\n        /* \"#utility.yul\":2434:2447   */\n      lt\n        /* \"#utility.yul\":2415:2697   */\n      iszero\n      tag_356\n      jumpi\n        /* \"#utility.yul\":2516:2522   */\n      dup2\n        /* \"#utility.yul\":2510:2523   */\n      mload\n        /* \"#utility.yul\":2543:2606   */\n      tag_357\n        /* \"#utility.yul\":2602:2605   */\n      dup8\n        /* \"#utility.yul\":2587:2600   */\n      dup3\n        /* \"#utility.yul\":2543:2606   */\n      tag_323\n      jump\t// in\n    tag_357:\n        /* \"#utility.yul\":2536:2606   */\n      swap7\n      pop\n        /* \"#utility.yul\":2629:2687   */\n      tag_358\n        /* \"#utility.yul\":2680:2686   */\n      dup4\n        /* \"#utility.yul\":2629:2687   */\n      tag_324\n      jump\t// in\n    tag_358:\n        /* \"#utility.yul\":2619:2687   */\n      swap3\n      pop\n        /* \"#utility.yul\":2475:2697   */\n      pop\n        /* \"#utility.yul\":2462:2463   */\n      0x01\n        /* \"#utility.yul\":2459:2460   */\n      dup2\n        /* \"#utility.yul\":2455:2464   */\n      add\n        /* \"#utility.yul\":2450:2464   */\n      swap1\n      pop\n        /* \"#utility.yul\":2415:2697   */\n      jump(tag_354)\n    tag_356:\n        /* \"#utility.yul\":2419:2433   */\n      pop\n        /* \"#utility.yul\":2122:2704   */\n      pop\n      pop\n      pop\n        /* \"#utility.yul\":2010:2704   */\n      pop\n      pop\n      jump\t// out\n        /* \"#utility.yul\":2710:3025   */\n    tag_11:\n        /* \"#utility.yul\":2849:2853   */\n      0x00\n        /* \"#utility.yul\":2887:2890   */\n      0x80\n        /* \"#utility.yul\":2876:2885   */\n      dup3\n        /* \"#utility.yul\":2872:2891   */\n      add\n        /* \"#utility.yul\":2864:2891   */\n      swap1\n      pop\n        /* \"#utility.yul\":2901:3018   */\n      tag_360\n        /* \"#utility.yul\":3015:3016   */\n      0x00\n        /* \"#utility.yul\":3004:3013   */\n      dup4\n        /* \"#utility.yul\":3000:3017   */\n      add\n        /* \"#utility.yul\":2991:2997   */\n      dup5\n        /* \"#utility.yul\":2901:3018   */\n      tag_325\n      jump\t// in\n    tag_360:\n        /* \"#utility.yul\":2710:3025   */\n      swap3\n      swap2\n      pop\n      pop\n      jump\t// out\n        /* \"#utility.yul\":3049:3298   */\n    tag_326:\n        /* \"#utility.yul\":3120:3128   */\n      0x00\n        /* \"#utility.yul\":3151:3157   */\n      dup2\n        /* \"#utility.yul\":3139:3157   */\n      swap1\n      pop\n        /* \"#utility.yul\":3204:3207   */\n      dup3\n        /* \"#utility.yul\":3196:3200   */\n      0x20\n        /* \"#utility.yul\":3190:3194   */\n      0x06\n        /* \"#utility.yul\":3186:3201   */\n      mul\n        /* \"#utility.yul\":3176:3184   */\n      dup3\n        /* \"#utility.yul\":3172:3202   */\n      add\n        /* \"#utility.yul\":3169:3208   */\n      gt\n        /* \"#utility.yul\":3166:3292   */\n      iszero\n      tag_362\n      jumpi\n        /* \"#utility.yul\":3211:3290   */\n      tag_363\n      tag_316\n      jump\t// in\n    tag_363:\n        /* \"#utility.yul\":3166:3292   */\n    tag_362:\n        /* \"#utility.yul\":3049:3298   */\n      swap3\n      swap2\n      pop\n      pop\n      jump\t// out\n        /* \"#utility.yul\":3304:3880   */\n    tag_14:\n        /* \"#utility.yul\":3422:3428   */\n      0x00\n        /* \"#utility.yul\":3430:3436   */\n      0x00\n        /* \"#utility.yul\":3479:3482   */\n      0x01c0\n        /* \"#utility.yul\":3467:3476   */\n      dup4\n        /* \"#utility.yul\":3458:3465   */\n      dup6\n        /* \"#utility.yul\":3454:3477   */\n      sub\n        /* \"#utility.yul\":3450:3483   */\n      slt\n        /* \"#utility.yul\":3447:3567   */\n      iszero\n      tag_365\n      jumpi\n        /* \"#utility.yul\":3486:3565   */\n      tag_366\n      tag_314\n      jump\t// in\n    tag_366:\n        /* \"#utility.yul\":3447:3567   */\n    tag_365:\n        /* \"#utility.yul\":3606:3607   */\n      0x00\n        /* \"#utility.yul\":3631:3709   */\n      tag_367\n        /* \"#utility.yul\":3701:3708   */\n      dup6\n        /* \"#utility.yul\":3692:3698   */\n      dup3\n        /* \"#utility.yul\":3681:3690   */\n      dup7\n        /* \"#utility.yul\":3677:3699   */\n      add\n        /* \"#utility.yul\":3631:3709   */\n      tag_317\n      jump\t// in\n    tag_367:\n        /* \"#utility.yul\":3621:3709   */\n      swap3\n      pop\n        /* \"#utility.yul\":3577:3719   */\n      pop\n        /* \"#utility.yul\":3758:3761   */\n      0x0100\n        /* \"#utility.yul\":3785:3863   */\n      tag_368\n        /* \"#utility.yul\":3855:3862   */\n      dup6\n        /* \"#utility.yul\":3846:3852   */\n      dup3\n        /* \"#utility.yul\":3835:3844   */\n      dup7\n        /* \"#utility.yul\":3831:3853   */\n      add\n        /* \"#utility.yul\":3785:3863   */\n      tag_326\n      jump\t// in\n    tag_368:\n        /* \"#utility.yul\":3775:3863   */\n      swap2\n      pop\n        /* \"#utility.yul\":3729:3873   */\n      pop\n        /* \"#utility.yul\":3304:3880   */\n      swap3\n      pop\n      swap3\n      swap1\n      pop\n      jump\t// out\n        /* \"#utility.yul\":3904:4153   */\n    tag_327:\n        /* \"#utility.yul\":3975:3983   */\n      0x00\n        /* \"#utility.yul\":4006:4012   */\n      dup2\n        /* \"#utility.yul\":3994:4012   */\n      swap1\n      pop\n        /* \"#utility.yul\":4059:4062   */\n      dup3\n        /* \"#utility.yul\":4051:4055   */\n      0x20\n        /* \"#utility.yul\":4045:4049   */\n      0x04\n        /* \"#utility.yul\":4041:4056   */\n      mul\n        /* \"#utility.yul\":4031:4039   */\n      dup3\n        /* \"#utility.yul\":4027:4057   */\n      add\n        /* \"#utility.yul\":4024:4063   */\n      gt\n        /* \"#utility.yul\":4021:4147   */\n      iszero\n      tag_370\n      jumpi\n        /* \"#utility.yul\":4066:4145   */\n      tag_371\n      tag_316\n      jump\t// in\n    tag_371:\n        /* \"#utility.yul\":4021:4147   */\n    tag_370:\n        /* \"#utility.yul\":3904:4153   */\n      swap3\n      swap2\n      pop\n      pop\n      jump\t// out\n        /* \"#utility.yul\":4159:4735   */\n    tag_18:\n        /* \"#utility.yul\":4277:4283   */\n      0x00\n        /* \"#utility.yul\":4285:4291   */\n      0x00\n        /* \"#utility.yul\":4334:4337   */\n      0x0140\n        /* \"#utility.yul\":4322:4331   */\n      dup4\n        /* \"#utility.yul\":4313:4320   */\n      dup6\n        /* \"#utility.yul\":4309:4332   */\n      sub\n        /* \"#utility.yul\":4305:4338   */\n      slt\n        /* \"#utility.yul\":4302:4422   */\n      iszero\n      tag_373\n      jumpi\n        /* \"#utility.yul\":4341:4420   */\n      tag_374\n      tag_314\n      jump\t// in\n    tag_374:\n        /* \"#utility.yul\":4302:4422   */\n    tag_373:\n        /* \"#utility.yul\":4461:4462   */\n      0x00\n        /* \"#utility.yul\":4486:4564   */\n      tag_375\n        /* \"#utility.yul\":4556:4563   */\n      dup6\n        /* \"#utility.yul\":4547:4553   */\n      dup3\n        /* \"#utility.yul\":4536:4545   */\n      dup7\n        /* \"#utility.yul\":4532:4554   */\n      add\n        /* \"#utility.yul\":4486:4564   */\n      tag_327\n      jump\t// in\n    tag_375:\n        /* \"#utility.yul\":4476:4564   */\n      swap3\n      pop\n        /* \"#utility.yul\":4432:4574   */\n      pop\n        /* \"#utility.yul\":4613:4616   */\n      0x80\n        /* \"#utility.yul\":4640:4718   */\n      tag_376\n        /* \"#utility.yul\":4710:4717   */\n      dup6\n        /* \"#utility.yul\":4701:4707   */\n      dup3\n        /* \"#utility.yul\":4690:4699   */\n      dup7\n        /* \"#utility.yul\":4686:4708   */\n      add\n        /* \"#utility.yul\":4640:4718   */\n      tag_326\n      jump\t// in\n    tag_376:\n        /* \"#utility.yul\":4630:4718   */\n      swap2\n      pop\n        /* \"#utility.yul\":4584:4728   */\n      pop\n        /* \"#utility.yul\":4159:4735   */\n      swap3\n      pop\n      swap3\n      swap1\n      pop\n      jump\t// out\n        /* \"#utility.yul\":4741:4921   */\n    tag_26:\n        /* \"#utility.yul\":4789:4866   */\n      0x4e487b7100000000000000000000000000000000000000000000000000000000\n        /* \"#utility.yul\":4786:4787   */\n      0x00\n        /* \"#utility.yul\":4779:4867   */\n      mstore\n        /* \"#utility.yul\":4886:4890   */\n      0x32\n        /* \"#utility.yul\":4883:4884   */\n      0x04\n        /* \"#utility.yul\":4876:4891   */\n      mstore\n        /* \"#utility.yul\":4910:4914   */\n      0x24\n        /* \"#utility.yul\":4907:4908   */\n      0x00\n        /* \"#utility.yul\":4900:4915   */\n      revert\n        /* \"#utility.yul\":4927:5107   */\n    tag_136:\n        /* \"#utility.yul\":4975:5052   */\n      0x4e487b7100000000000000000000000000000000000000000000000000000000\n        /* \"#utility.yul\":4972:4973   */\n      0x00\n        /* \"#utility.yul\":4965:5053   */\n      mstore\n        /* \"#utility.yul\":5072:5076   */\n      0x12\n        /* \"#utility.yul\":5069:5070   */\n      0x04\n        /* \"#utility.yul\":5062:5077   */\n      mstore\n        /* \"#utility.yul\":5096:5100   */\n      0x24\n        /* \"#utility.yul\":5093:5094   */\n      0x00\n        /* \"#utility.yul\":5086:5101   */\n      revert\n        /* \"#utility.yul\":5113:5293   */\n    tag_328:\n        /* \"#utility.yul\":5161:5238   */\n      0x4e487b7100000000000000000000000000000000000000000000000000000000\n        /* \"#utility.yul\":5158:5159   */\n      0x00\n        /* \"#utility.yul\":5151:5239   */\n      mstore\n        /* \"#utility.yul\":5258:5262   */\n      0x11\n        /* \"#utility.yul\":5255:5256   */\n      0x04\n        /* \"#utility.yul\":5248:5263   */\n      mstore\n        /* \"#utility.yul\":5282:5286   */\n      0x24\n        /* \"#utility.yul\":5279:5280   */\n      0x00\n        /* \"#utility.yul\":5272:5287   */\n      revert\n        /* \"#utility.yul\":5299:5493   */\n    tag_157:\n        /* \"#utility.yul\":5339:5343   */\n      0x00\n        /* \"#utility.yul\":5359:5379   */\n      tag_381\n        /* \"#utility.yul\":5377:5378   */\n      dup3\n        /* \"#utility.yul\":5359:5379   */\n      tag_321\n      jump\t// in\n    tag_381:\n        /* \"#utility.yul\":5354:5379   */\n      swap2\n      pop\n        /* \"#utility.yul\":5393:5413   */\n      tag_382\n        /* \"#utility.yul\":5411:5412   */\n      dup4\n        /* \"#utility.yul\":5393:5413   */\n      tag_321\n      jump\t// in\n    tag_382:\n        /* \"#utility.yul\":5388:5413   */\n      swap3\n      pop\n        /* \"#utility.yul\":5437:5438   */\n      dup3\n        /* \"#utility.yul\":5434:5435   */\n      dup3\n        /* \"#utility.yul\":5430:5439   */\n      sub\n        /* \"#utility.yul\":5422:5439   */\n      swap1\n      pop\n        /* \"#utility.yul\":5461:5462   */\n      dup2\n        /* \"#utility.yul\":5455:5459   */\n      dup2\n        /* \"#utility.yul\":5452:5463   */\n      gt\n        /* \"#utility.yul\":5449:5486   */\n      iszero\n      tag_383\n      jumpi\n        /* \"#utility.yul\":5466:5484   */\n      tag_384\n      tag_328\n      jump\t// in\n    tag_384:\n        /* \"#utility.yul\":5449:5486   */\n    tag_383:\n        /* \"#utility.yul\":5299:5493   */\n      swap3\n      swap2\n      pop\n      pop\n      jump\t// out\n\n    auxdata: 0xa2646970667358221220583b6b8bc47ab0a690f6b1c27746056b5451c0151ba586f20d5d2d094f13ce1864736f6c634300081f0033\n}\n",
				"bytecode": {
					"linkReferences": {},
					"object": "6080604052348015600e575f5ffd5b506123b38061001c5f395ff3fe608060405234801561000f575f5ffd5b506004361061003f575f3560e01c806344f63692146100435780639cb2865814610073578063f71691891461008f575b5f5ffd5b61005d6004803603810190610058919061210f565b6100ab565b60405161006a91906121e9565b60405180910390f35b61008d60048036038101906100889190612223565b61020a565b005b6100a960048036038101906100a49190612284565b6104a5565b005b6100b361207f565b6100ec825f600881106100c9576100c86122c3565b5b6020020135836001600881106100e2576100e16122c3565b5b6020020135610a61565b815f600481106100ff576100fe6122c3565b5b6020020181815250506101748260036008811061011f5761011e6122c3565b5b602002013583600260088110610138576101376122c3565b5b602002013584600560088110610151576101506122c3565b5b60200201358560046008811061016a576101696122c3565b5b6020020135610c0f565b82600260048110610188576101876122c3565b5b60200201836001600481106101a05761019f6122c3565b5b60200201828152508281525050506101e8826006600881106101c5576101c46122c3565b5b6020020135836007600881106101de576101dd6122c3565b5b6020020135610a61565b816003600481106101fc576101fb6122c3565b5b602002018181525050919050565b5f5f610215836111db565b915091505f6040516101008682377f267a9ae1b2d0fcc4e22c694eca32ee7044c119c84827966d1250dc68bec9addd6101008201527f10f6afa1ca50762bbc102f06731886183687c5ee4b2cb47507ac83b4e0b664f26101208201527f15358c574f96edf68df06cabae3c4cb00adc2e2eab5245290af8fb5b2dc0b2296101408201527f0c1b7c51d79f846153f0c5e76c05ee15a6a8bab03bb6fa34c39d8f5ddd9aac076101608201527f25cadd1ff7f7b466608d5f19b15358b7adbfe18abf80af5b19441ccba74ec6fb6101808201527f1dbf3f58f922e78c223d7abb22c18f9933576a2cddc483d7bd9e6f78f811cc2b6101a08201527f036d68dae931774bc17466b7739ab82092ac6d52e5d226156dec1b0fc63deac76101c08201527f2f92bda66a928694edaa48859a33ab517770e83643461dc757f34db039732ad26101e08201527f1057d78ef24b1890f58f94d246bb4b821946e38acd1bef7020c405ad8adc87436102008201527f0bf77132187e8699315dcda058bbfe5fdbde23f279e83c94d0db3b9172f58e5b61022082015283610240820152826102608201527f1288f41e0adc6f78313bfb8bb461590f1a78654495ee90e41073214fa3ba2d106102808201527f227ecb8af66443261e4551f1c34d0f80f1920fe277d527e6c0d171df07bc990e6102a08201527f081d53a6dacd3e2e8c8eeb1b7821536ed6e483bb9ed9b9823d086066c513109a6102c08201527f0a00d774cd2b89fb4ccde579b70a4e6afbd80ff3dee51dd214cd094b3b3214a96102e08201526020816103008360085afa9150805182169150508061049e576040517f7fcdd1f400000000000000000000000000000000000000000000000000000000815260040160405180910390fd5b5050505050565b6104ad6120a1565b5f5f6104cf855f600481106104c5576104c46122c3565b5b60200201356115cf565b915091505f5f5f5f610511896002600481106104ee576104ed6122c3565b5b60200201358a600160048110610507576105066122c3565b5b6020020135611704565b93509350935093505f5f61053c8b600360048110610532576105316122c3565b5b60200201356115cf565b915091505f5f61054b8c6111db565b91509150898b5f60188110610563576105626122c3565b5b602002018181525050888b600160188110610581576105806122c3565b5b602002018181525050868b60026018811061059f5761059e6122c3565b5b602002018181525050878b6003601881106105bd576105bc6122c3565b5b602002018181525050848b6004601881106105db576105da6122c3565b5b602002018181525050858b6005601881106105f9576105f86122c3565b5b602002018181525050838b600660188110610617576106166122c3565b5b602002018181525050828b600760188110610635576106346122c3565b5b6020020181815250507f267a9ae1b2d0fcc4e22c694eca32ee7044c119c84827966d1250dc68bec9addd8b600860188110610673576106726122c3565b5b6020020181815250507f10f6afa1ca50762bbc102f06731886183687c5ee4b2cb47507ac83b4e0b664f28b6009601881106106b1576106b06122c3565b5b6020020181815250507f15358c574f96edf68df06cabae3c4cb00adc2e2eab5245290af8fb5b2dc0b2298b600a601881106106ef576106ee6122c3565b5b6020020181815250507f0c1b7c51d79f846153f0c5e76c05ee15a6a8bab03bb6fa34c39d8f5ddd9aac078b600b6018811061072d5761072c6122c3565b5b6020020181815250507f25cadd1ff7f7b466608d5f19b15358b7adbfe18abf80af5b19441ccba74ec6fb8b600c6018811061076b5761076a6122c3565b5b6020020181815250507f1dbf3f58f922e78c223d7abb22c18f9933576a2cddc483d7bd9e6f78f811cc2b8b600d601881106107a9576107a86122c3565b5b6020020181815250507f036d68dae931774bc17466b7739ab82092ac6d52e5d226156dec1b0fc63deac78b600e601881106107e7576107e66122c3565b5b6020020181815250507f2f92bda66a928694edaa48859a33ab517770e83643461dc757f34db039732ad28b600f60188110610825576108246122c3565b5b6020020181815250507f1057d78ef24b1890f58f94d246bb4b821946e38acd1bef7020c405ad8adc87438b601060188110610863576108626122c3565b5b6020020181815250507f0bf77132187e8699315dcda058bbfe5fdbde23f279e83c94d0db3b9172f58e5b8b6011601881106108a1576108a06122c3565b5b602002018181525050818b6012601881106108bf576108be6122c3565b5b602002018181525050808b6013601881106108dd576108dc6122c3565b5b6020020181815250507f1288f41e0adc6f78313bfb8bb461590f1a78654495ee90e41073214fa3ba2d108b60146018811061091b5761091a6122c3565b5b6020020181815250507f227ecb8af66443261e4551f1c34d0f80f1920fe277d527e6c0d171df07bc990e8b601560188110610959576109586122c3565b5b6020020181815250507f081d53a6dacd3e2e8c8eeb1b7821536ed6e483bb9ed9b9823d086066c513109a8b601660188110610997576109966122c3565b5b6020020181815250507f0a00d774cd2b89fb4ccde579b70a4e6afbd80ff3dee51dd214cd094b3b3214a98b6017601881106109d5576109d46122c3565b5b6020020181815250505f6109e76120c4565b6020816103008f60085afa9150811580610a1957506001815f60018110610a1157610a106122c3565b5b602002015114155b15610a50576040517f7fcdd1f400000000000000000000000000000000000000000000000000000000815260040160405180910390fd5b505050505050505050505050505050565b5f7f30644e72e131a029b85045b68181585d97816a916871ca8d3c208c16d87cfd4783101580610ab157507f30644e72e131a029b85045b68181585d97816a916871ca8d3c208c16d87cfd478210155b15610ae8576040517f7fcdd1f400000000000000000000000000000000000000000000000000000000815260040160405180910390fd5b5f83148015610af657505f82145b15610b03575f9050610c09565b5f610ba17f30644e72e131a029b85045b68181585d97816a916871ca8d3c208c16d87cfd4780610b3657610b356122f0565b5b60037f30644e72e131a029b85045b68181585d97816a916871ca8d3c208c16d87cfd4780610b6757610b666122f0565b5b877f30644e72e131a029b85045b68181585d97816a916871ca8d3c208c16d87cfd4780610b9757610b966122f0565b5b898a090908611adf565b9050808303610bb9575f600185901b17915050610c09565b610bc281611b7b565b8303610bd75760018085901b17915050610c09565b6040517f7fcdd1f400000000000000000000000000000000000000000000000000000000815260040160405180910390fd5b92915050565b5f5f7f30644e72e131a029b85045b68181585d97816a916871ca8d3c208c16d87cfd4786101580610c6057507f30644e72e131a029b85045b68181585d97816a916871ca8d3c208c16d87cfd478510155b80610c8b57507f30644e72e131a029b85045b68181585d97816a916871ca8d3c208c16d87cfd478410155b80610cb657507f30644e72e131a029b85045b68181585d97816a916871ca8d3c208c16d87cfd478310155b15610ced576040517f7fcdd1f400000000000000000000000000000000000000000000000000000000815260040160405180910390fd5b5f8385878917171703610d05575f5f915091506111d2565b5f5f5f7f30644e72e131a029b85045b68181585d97816a916871ca8d3c208c16d87cfd4780610d3757610d366122f0565b5b60037f30644e72e131a029b85045b68181585d97816a916871ca8d3c208c16d87cfd47610d64919061234a565b7f30644e72e131a029b85045b68181585d97816a916871ca8d3c208c16d87cfd4780610d9357610d926122f0565b5b8a8c090990505f7f30644e72e131a029b85045b68181585d97816a916871ca8d3c208c16d87cfd4780610dc957610dc86122f0565b5b8a7f30644e72e131a029b85045b68181585d97816a916871ca8d3c208c16d87cfd4780610df957610df86122f0565b5b8c8d090990505f7f30644e72e131a029b85045b68181585d97816a916871ca8d3c208c16d87cfd4780610e2f57610e2e6122f0565b5b8a7f30644e72e131a029b85045b68181585d97816a916871ca8d3c208c16d87cfd4780610e5f57610e5e6122f0565b5b8c8d090990507f30644e72e131a029b85045b68181585d97816a916871ca8d3c208c16d87cfd4780610e9457610e936122f0565b5b7f30644e72e131a029b85045b68181585d97816a916871ca8d3c208c16d87cfd4780610ec357610ec26122f0565b5b7f30644e72e131a029b85045b68181585d97816a916871ca8d3c208c16d87cfd4780610ef257610ef16122f0565b5b8c860984087f2b149d40ceb8aaae81be18991be06ac3b5b4c5e559dbefa33267e6dc24a138e5089450610fd77f30644e72e131a029b85045b68181585d97816a916871ca8d3c208c16d87cfd4780610f4d57610f4c6122f0565b5b7f30644e72e131a029b85045b68181585d97816a916871ca8d3c208c16d87cfd4780610f7c57610f7b6122f0565b5b7f30644e72e131a029b85045b68181585d97816a916871ca8d3c208c16d87cfd4780610fab57610faa6122f0565b5b8e870984087f2fcd3ac2a640a154eb23960892a85a68f031ca0c8344b23a577dcf1052b9e77508611b7b565b93505050505f5f61107a7f30644e72e131a029b85045b68181585d97816a916871ca8d3c208c16d87cfd47806110105761100f6122f0565b5b7f30644e72e131a029b85045b68181585d97816a916871ca8d3c208c16d87cfd478061103f5761103e6122f0565b5b8586097f30644e72e131a029b85045b68181585d97816a916871ca8d3c208c16d87cfd4780611071576110706122f0565b5b87880908611adf565b90506111077f30644e72e131a029b85045b68181585d97816a916871ca8d3c208c16d87cfd47806110ae576110ad6122f0565b5b7f183227397098d014dc2822db40c0ac2ecbc0b548b438e5469e10460b6c3e7ea47f30644e72e131a029b85045b68181585d97816a916871ca8d3c208c16d87cfd47806110fe576110fd6122f0565b5b84880809611be6565b15915050611116838383611c50565b8093508194505050828714801561112c57508186145b15611154575f8161113d575f611140565b60025b60ff1660028b901b171794508793506111ce565b61115d83611b7b565b87148015611172575061116f82611b7b565b86145b1561119b57600181611184575f611187565b60025b60ff1660028b901b171794508793506111cd565b6040517f7fcdd1f400000000000000000000000000000000000000000000000000000000815260040160405180910390fd5b5b5050505b94509492505050565b5f5f5f60019050604051604081015f7f293080bad0ecf5aa9ee1dbde8fe6bd031bbc3b62bea8a30ecc596838ae98f0cc83527f0fb2147a3749dc7066e07d12514b7fc5b2c55779eee8a9325657df0ce426c81c60208401527eed94690896d594436c8fc771e41dd51bd0168c659e8cd91acd1fc43577470082527f04d5012cf98d9f12a6d706da677a7addb5e9e204980a85a8e7bb5154948f8fb96020830152863590508060408301527f30644e72e131a029b85045b68181585d2833e84879b9709143e1f593f000000181108416935060408260608460075afa8416935060408360808560065afa841693507f1f59a3adb8a4308c85ce5db4ad03fd1ac70b56253d89e511c39ef42ce33c3c6a82527f2cf47f7c50adba5bd86dee7eb1759a16231c2125acb76617b42f9186040f93076020830152602087013590508060408301527f30644e72e131a029b85045b68181585d2833e84879b9709143e1f593f000000181108416935060408260608460075afa8416935060408360808560065afa841693507e692ea962b343cf5cf11598ad0856eb6c6ed7321ca00e6a1eec1e9182a43ce282527f01fa1fd1eaef1b2a563033553e66aba07c9afd34c56b35b75106dfc0da50fc756020830152604087013590508060408301527f30644e72e131a029b85045b68181585d2833e84879b9709143e1f593f000000181108416935060408260608460075afa8416935060408360808560065afa841693507f055b3627a2c3c463d0a6b51158cb5ad2b80459586556db3e9b98429ff58a075c82527f05460de3b7f749cef5a42716d8c8c13e20b8766d3d8cc75a16ec18465fea2d896020830152606087013590508060408301527f30644e72e131a029b85045b68181585d2833e84879b9709143e1f593f000000181108416935060408260608460075afa8416935060408360808560065afa841693505f82525f6020830152608087013590508060408301527f30644e72e131a029b85045b68181585d2833e84879b9709143e1f593f000000181108416935060408260608460075afa8416935060408360808560065afa841693507f060bd0aabf83ee4d7ab16cf6973f9a29655cd25d97b943320d8ad3d5cf8b2dc182527f2fe98f4b4a16da4d3e6e6471d2fe6b08753e314a6aef924a1e9d29a3147c60e4602083015260a087013590508060408301527f30644e72e131a029b85045b68181585d2833e84879b9709143e1f593f000000181108416935060408260608460075afa8416935060408360808560065afa841693508251955060208301519450505050806115c9576040517fa54f8e2700000000000000000000000000000000000000000000000000000000815260040160405180910390fd5b50915091565b5f5f5f83036115e3575f5f915091506116ff565b5f6001808516149050600184901c92507f30644e72e131a029b85045b68181585d97816a916871ca8d3c208c16d87cfd47831061164c576040517f7fcdd1f400000000000000000000000000000000000000000000000000000000815260040160405180910390fd5b6116e97f30644e72e131a029b85045b68181585d97816a916871ca8d3c208c16d87cfd478061167e5761167d6122f0565b5b60037f30644e72e131a029b85045b68181585d97816a916871ca8d3c208c16d87cfd47806116af576116ae6122f0565b5b867f30644e72e131a029b85045b68181585d97816a916871ca8d3c208c16d87cfd47806116df576116de6122f0565b5b8889090908611adf565b915080156116fd576116fa82611b7b565b91505b505b915091565b5f5f5f5f5f8614801561171657505f85145b1561172c575f5f5f5f9350935093509350611ad6565b5f60018088161490505f6002808916149050600288901c95508694507f30644e72e131a029b85045b68181585d97816a916871ca8d3c208c16d87cfd478610158061179757507f30644e72e131a029b85045b68181585d97816a916871ca8d3c208c16d87cfd478510155b156117ce576040517f7fcdd1f400000000000000000000000000000000000000000000000000000000815260040160405180910390fd5b5f7f30644e72e131a029b85045b68181585d97816a916871ca8d3c208c16d87cfd47806117fe576117fd6122f0565b5b60037f30644e72e131a029b85045b68181585d97816a916871ca8d3c208c16d87cfd4761182b919061234a565b7f30644e72e131a029b85045b68181585d97816a916871ca8d3c208c16d87cfd478061185a576118596122f0565b5b888a090990505f7f30644e72e131a029b85045b68181585d97816a916871ca8d3c208c16d87cfd47806118905761188f6122f0565b5b887f30644e72e131a029b85045b68181585d97816a916871ca8d3c208c16d87cfd47806118c0576118bf6122f0565b5b8a8b090990505f7f30644e72e131a029b85045b68181585d97816a916871ca8d3c208c16d87cfd47806118f6576118f56122f0565b5b887f30644e72e131a029b85045b68181585d97816a916871ca8d3c208c16d87cfd4780611926576119256122f0565b5b8a8b090990507f30644e72e131a029b85045b68181585d97816a916871ca8d3c208c16d87cfd478061195b5761195a6122f0565b5b7f30644e72e131a029b85045b68181585d97816a916871ca8d3c208c16d87cfd478061198a576119896122f0565b5b7f30644e72e131a029b85045b68181585d97816a916871ca8d3c208c16d87cfd47806119b9576119b86122f0565b5b8a860984087f2b149d40ceb8aaae81be18991be06ac3b5b4c5e559dbefa33267e6dc24a138e5089650611a9e7f30644e72e131a029b85045b68181585d97816a916871ca8d3c208c16d87cfd4780611a1457611a136122f0565b5b7f30644e72e131a029b85045b68181585d97816a916871ca8d3c208c16d87cfd4780611a4357611a426122f0565b5b7f30644e72e131a029b85045b68181585d97816a916871ca8d3c208c16d87cfd4780611a7257611a716122f0565b5b8c870984087f2fcd3ac2a640a154eb23960892a85a68f031ca0c8344b23a577dcf1052b9e77508611b7b565b9550611aab878786611c50565b80975081985050508415611ad057611ac287611b7b565b9650611acd86611b7b565b95505b50505050505b92959194509250565b5f611b0a827f0c19139cb84c680a6e14116da060561765e05aa45a1c72a34f082305b61f3f52611f4b565b9050817f30644e72e131a029b85045b68181585d97816a916871ca8d3c208c16d87cfd4780611b3c57611b3b6122f0565b5b82830914611b76576040517f7fcdd1f400000000000000000000000000000000000000000000000000000000815260040160405180910390fd5b919050565b5f7f30644e72e131a029b85045b68181585d97816a916871ca8d3c208c16d87cfd47808381611bad57611bac6122f0565b5b067f30644e72e131a029b85045b68181585d97816a916871ca8d3c208c16d87cfd470381611bde57611bdd6122f0565b5b069050919050565b5f5f611c12837f0c19139cb84c680a6e14116da060561765e05aa45a1c72a34f082305b61f3f52611f4b565b9050827f30644e72e131a029b85045b68181585d97816a916871ca8d3c208c16d87cfd4780611c4457611c436122f0565b5b82830914915050919050565b5f5f5f611cef7f30644e72e131a029b85045b68181585d97816a916871ca8d3c208c16d87cfd4780611c8557611c846122f0565b5b7f30644e72e131a029b85045b68181585d97816a916871ca8d3c208c16d87cfd4780611cb457611cb36122f0565b5b8788097f30644e72e131a029b85045b68181585d97816a916871ca8d3c208c16d87cfd4780611ce657611ce56122f0565b5b898a0908611adf565b90508315611d0357611d0081611b7b565b90505b611d8e7f30644e72e131a029b85045b68181585d97816a916871ca8d3c208c16d87cfd4780611d3557611d346122f0565b5b7f183227397098d014dc2822db40c0ac2ecbc0b548b438e5469e10460b6c3e7ea47f30644e72e131a029b85045b68181585d97816a916871ca8d3c208c16d87cfd4780611d8557611d846122f0565b5b848a0809611adf565b92507f30644e72e131a029b85045b68181585d97816a916871ca8d3c208c16d87cfd4780611dbf57611dbe6122f0565b5b611dfa7f30644e72e131a029b85045b68181585d97816a916871ca8d3c208c16d87cfd4780611df157611df06122f0565b5b60028609611fe2565b860991507f30644e72e131a029b85045b68181585d97816a916871ca8d3c208c16d87cfd4780611e2d57611e2c6122f0565b5b611e677f30644e72e131a029b85045b68181585d97816a916871ca8d3c208c16d87cfd4780611e5f57611e5e6122f0565b5b848509611b7b565b7f30644e72e131a029b85045b68181585d97816a916871ca8d3c208c16d87cfd4780611e9657611e956122f0565b5b8586090886141580611f0b57507f30644e72e131a029b85045b68181585d97816a916871ca8d3c208c16d87cfd4780611ed257611ed16122f0565b5b7f30644e72e131a029b85045b68181585d97816a916871ca8d3c208c16d87cfd4780611f0157611f006122f0565b5b8385096002098514155b15611f42576040517f7fcdd1f400000000000000000000000000000000000000000000000000000000815260040160405180910390fd5b50935093915050565b5f5f60405160208152602080820152602060408201528460608201528360808201527f30644e72e131a029b85045b68181585d97816a916871ca8d3c208c16d87cfd4760a082015260208160c08360055afa9150805192505080611fdb576040517f7fcdd1f400000000000000000000000000000000000000000000000000000000815260040160405180910390fd5b5092915050565b5f61200d827f30644e72e131a029b85045b68181585d97816a916871ca8d3c208c16d87cfd45611f4b565b905060017f30644e72e131a029b85045b68181585d97816a916871ca8d3c208c16d87cfd47806120405761203f6122f0565b5b8284091461207a576040517f7fcdd1f400000000000000000000000000000000000000000000000000000000815260040160405180910390fd5b919050565b6040518060800160405280600490602082028036833780820191505090505090565b604051806103000160405280601890602082028036833780820191505090505090565b6040518060200160405280600190602082028036833780820191505090505090565b5f5ffd5b5f5ffd5b5f81905082602060080282011115612109576121086120ea565b5b92915050565b5f6101008284031215612125576121246120e6565b5b5f612132848285016120ee565b91505092915050565b5f60049050919050565b5f81905092915050565b5f819050919050565b5f819050919050565b61216a81612158565b82525050565b5f61217b8383612161565b60208301905092915050565b5f602082019050919050565b61219c8161213b565b6121a68184612145565b92506121b18261214f565b805f5b838110156121e15781516121c88782612170565b96506121d383612187565b9250506001810190506121b4565b505050505050565b5f6080820190506121fc5f830184612193565b92915050565b5f8190508260206006028201111561221d5761221c6120ea565b5b92915050565b5f5f6101c0838503121561223a576122396120e6565b5b5f612247858286016120ee565b92505061010061225985828601612202565b9150509250929050565b5f8190508260206004028201111561227e5761227d6120ea565b5b92915050565b5f5f610140838503121561229b5761229a6120e6565b5b5f6122a885828601612263565b92505060806122b985828601612202565b9150509250929050565b7f4e487b71000000000000000000000000000000000000000000000000000000005f52603260045260245ffd5b7f4e487b71000000000000000000000000000000000000000000000000000000005f52601260045260245ffd5b7f4e487b71000000000000000000000000000000000000000000000000000000005f52601160045260245ffd5b5f61235482612158565b915061235f83612158565b92508282039050818111156123775761237661231d565b5b9291505056fea2646970667358221220583b6b8bc47ab0a690f6b1c27746056b5451c0151ba586f20d5d2d094f13ce1864736f6c634300081f0033",
					"opcodes": "PUSH1 0x80 PUSH1 0x40 MSTORE CALLVALUE DUP1 ISZERO PUSH1 0xE JUMPI PUSH0 PUSH0 REVERT JUMPDEST POP PUSH2 0x23B3 DUP1 PUSH2 0x1C PUSH0 CODECOPY PUSH0 RETURN INVALID PUSH1 0x80 PUSH1 0x40 MSTORE CALLVALUE DUP1 ISZERO PUSH2 0xF JUMPI PUSH0 PUSH0 REVERT JUMPDEST POP PUSH1 0x4 CALLDATASIZE LT PUSH2 0x3F JUMPI PUSH0 CALLDATALOAD PUSH1 0xE0 SHR DUP1 PUSH4 0x44F63692 EQ PUSH2 0x43 JUMPI DUP1 PUSH4 0x9CB28658 EQ PUSH2 0x73 JUMPI DUP1 PUSH4 0xF7169189 EQ PUSH2 0x8F JUMPI JUMPDEST PUSH0 PUSH0 REVERT JUMPDEST PUSH2 0x5D PUSH1 0x4 DUP1 CALLDATASIZE SUB DUP2 ADD SWAP1 PUSH2 0x58 SWAP2 SWAP1 PUSH2 0x210F JUMP JUMPDEST PUSH2 0xAB JUMP JUMPDEST PUSH1 0x40 MLOAD PUSH2 0x6A SWAP2 SWAP1 PUSH2 0x21E9 JUMP JUMPDEST PUSH1 0x40 MLOAD DUP1 SWAP2 SUB SWAP1 RETURN JUMPDEST PUSH2 0x8D PUSH1 0x4 DUP1 CALLDATASIZE SUB DUP2 ADD SWAP1 PUSH2 0x88 SWAP2 SWAP1 PUSH2 0x2223 JUMP JUMPDEST PUSH2 0x20A JUMP JUMPDEST STOP JUMPDEST PUSH2 0xA9 PUSH1 0x4 DUP1 CALLDATASIZE SUB DUP2 ADD SWAP1 PUSH2 0xA4 SWAP2 SWAP1 PUSH2 0x2284 JUMP JUMPDEST PUSH2 0x4A5 JUMP JUMPDEST STOP JUMPDEST PUSH2 0xB3 PUSH2 0x207F JUMP JUMPDEST PUSH2 0xEC DUP3 PUSH0 PUSH1 0x8 DUP2 LT PUSH2 0xC9 JUMPI PUSH2 0xC8 PUSH2 0x22C3 JUMP JUMPDEST JUMPDEST PUSH1 0x20 MUL ADD CALLDATALOAD DUP4 PUSH1 0x1 PUSH1 0x8 DUP2 LT PUSH2 0xE2 JUMPI PUSH2 0xE1 PUSH2 0x22C3 JUMP JUMPDEST JUMPDEST PUSH1 0x20 MUL ADD CALLDATALOAD PUSH2 0xA61 JUMP JUMPDEST DUP2 PUSH0 PUSH1 0x4 DUP2 LT PUSH2 0xFF JUMPI PUSH2 0xFE PUSH2 0x22C3 JUMP JUMPDEST JUMPDEST PUSH1 0x20 MUL ADD DUP2 DUP2 MSTORE POP POP PUSH2 0x174 DUP3 PUSH1 0x3 PUSH1 0x8 DUP2 LT PUSH2 0x11F JUMPI PUSH2 0x11E PUSH2 0x22C3 JUMP JUMPDEST JUMPDEST PUSH1 0x20 MUL ADD CALLDATALOAD DUP4 PUSH1 0x2 PUSH1 0x8 DUP2 LT PUSH2 0x138 JUMPI PUSH2 0x137 PUSH2 0x22C3 JUMP JUMPDEST JUMPDEST PUSH1 0x20 MUL ADD CALLDATALOAD DUP5 PUSH1 0x5 PUSH1 0x8 DUP2 LT PUSH2 0x151 JUMPI PUSH2 0x150 PUSH2 0x22C3 JUMP JUMPDEST JUMPDEST PUSH1 0x20 MUL ADD CALLDATALOAD DUP6 PUSH1 0x4 PUSH1 0x8 DUP2 LT PUSH2 0x16A JUMPI PUSH2 0x169 PUSH2 0x22C3 JUMP JUMPDEST JUMPDEST PUSH1 0x20 MUL ADD CALLDATALOAD PUSH2 0xC0F JUMP JUMPDEST DUP3 PUSH1 0x2 PUSH1 0x4 DUP2 LT PUSH2 0x188 JUMPI PUSH2 0x187 PUSH2 0x22C3 JUMP JUMPDEST JUMPDEST PUSH1 0x20 MUL ADD DUP4 PUSH1 0x1 PUSH1 0x4 DUP2 LT PUSH2 0x1A0 JUMPI PUSH2 0x19F PUSH2 0x22C3 JUMP JUMPDEST JUMPDEST PUSH1 0x20 MUL ADD DUP3 DUP2 MSTORE POP DUP3 DUP2 MSTORE POP POP POP PUSH2 0x1E8 DUP3 PUSH1 0x6 PUSH1 0x8 DUP2 LT PUSH2 0x1C5 JUMPI PUSH2 0x1C4 PUSH2 0x22C3 JUMP JUMPDEST JUMPDEST PUSH1 0x20 MUL ADD CALLDATALOAD DUP4 PUSH1 0x7 PUSH1 0x8 DUP2 LT PUSH2 0x1DE JUMPI PUSH2 0x1DD PUSH2 0x22C3 JUMP JUMPDEST JUMPDEST PUSH1 0x20 MUL ADD CALLDATALOAD PUSH2 0xA61 JUMP JUMPDEST DUP2 PUSH1 0x3 PUSH1 0x4 DUP2 LT PUSH2 0x1FC JUMPI PUSH2 0x1FB PUSH2 0x22C3 JUMP JUMPDEST JUMPDEST PUSH1 0x20 MUL ADD DUP2 DUP2 MSTORE POP POP SWAP2 SWAP1 POP JUMP JUMPDEST PUSH0 PUSH0 PUSH2 0x215 DUP4 PUSH2 0x11DB JUMP JUMPDEST SWAP2 POP SWAP2 POP PUSH0 PUSH1 0x40 MLOAD PUSH2 0x100 DUP7 DUP3 CALLDATACOPY PUSH32 0x267A9AE1B2D0FCC4E22C694ECA32EE7044C119C84827966D1250DC68BEC9ADDD PUSH2 0x100 DUP3 ADD MSTORE PUSH32 0x10F6AFA1CA50762BBC102F06731886183687C5EE4B2CB47507AC83B4E0B664F2 PUSH2 0x120 DUP3 ADD MSTORE PUSH32 0x15358C574F96EDF68DF06CABAE3C4CB00ADC2E2EAB5245290AF8FB5B2DC0B229 PUSH2 0x140 DUP3 ADD MSTORE PUSH32 0xC1B7C51D79F846153F0C5E76C05EE15A6A8BAB03BB6FA34C39D8F5DDD9AAC07 PUSH2 0x160 DUP3 ADD MSTORE PUSH32 0x25CADD1FF7F7B466608D5F19B15358B7ADBFE18ABF80AF5B19441CCBA74EC6FB PUSH2 0x180 DUP3 ADD MSTORE PUSH32 0x1DBF3F58F922E78C223D7ABB22C18F9933576A2CDDC483D7BD9E6F78F811CC2B PUSH2 0x1A0 DUP3 ADD MSTORE PUSH32 0x36D68DAE931774BC17466B7739AB82092AC6D52E5D226156DEC1B0FC63DEAC7 PUSH2 0x1C0 DUP3 ADD MSTORE PUSH32 0x2F92BDA66A928694EDAA48859A33AB517770E83643461DC757F34DB039732AD2 PUSH2 0x1E0 DUP3 ADD MSTORE PUSH32 0x1057D78EF24B1890F58F94D246BB4B821946E38ACD1BEF7020C405AD8ADC8743 PUSH2 0x200 DUP3 ADD MSTORE PUSH32 0xBF77132187E8699315DCDA058BBFE5FDBDE23F279E83C94D0DB3B9172F58E5B PUSH2 0x220 DUP3 ADD MSTORE DUP4 PUSH2 0x240 DUP3 ADD MSTORE DUP3 PUSH2 0x260 DUP3 ADD MSTORE PUSH32 0x1288F41E0ADC6F78313BFB8BB461590F1A78654495EE90E41073214FA3BA2D10 PUSH2 0x280 DUP3 ADD MSTORE PUSH32 0x227ECB8AF66443261E4551F1C34D0F80F1920FE277D527E6C0D171DF07BC990E PUSH2 0x2A0 DUP3 ADD MSTORE PUSH32 0x81D53A6DACD3E2E8C8EEB1B7821536ED6E483BB9ED9B9823D086066C513109A PUSH2 0x2C0 DUP3 ADD MSTORE PUSH32 0xA00D774CD2B89FB4CCDE579B70A4E6AFBD80FF3DEE51DD214CD094B3B3214A9 PUSH2 0x2E0 DUP3 ADD MSTORE PUSH1 0x20 DUP2 PUSH2 0x300 DUP4 PUSH1 0x8 GAS STATICCALL SWAP2 POP DUP1 MLOAD DUP3 AND SWAP2 POP POP DUP1 PUSH2 0x49E JUMPI PUSH1 0x40 MLOAD PUSH32 0x7FCDD1F400000000000000000000000000000000000000000000000000000000 DUP2 MSTORE PUSH1 0x4 ADD PUSH1 0x40 MLOAD DUP1 SWAP2 SUB SWAP1 REVERT JUMPDEST POP POP POP POP POP JUMP JUMPDEST PUSH2 0x4AD PUSH2 0x20A1 JUMP JUMPDEST PUSH0 PUSH0 PUSH2 0x4CF DUP6 PUSH0 PUSH1 0x4 DUP2 LT PUSH2 0x4C5 JUMPI PUSH2 0x4C4 PUSH2 0x22C3 JUMP JUMPDEST JUMPDEST PUSH1 0x20 MUL ADD CALLDATALOAD PUSH2 0x15CF JUMP JUMPDEST SWAP2 POP SWAP2 POP PUSH0 PUSH0 PUSH0 PUSH0 PUSH2 0x511 DUP10 PUSH1 0x2 PUSH1 0x4 DUP2 LT PUSH2 0x4EE JUMPI PUSH2 0x4ED PUSH2 0x22C3 JUMP JUMPDEST JUMPDEST PUSH1 0x20 MUL ADD CALLDATALOAD DUP11 PUSH1 0x1 PUSH1 0x4 DUP2 LT PUSH2 0x507 JUMPI PUSH2 0x506 PUSH2 0x22C3 JUMP JUMPDEST JUMPDEST PUSH1 0x20 MUL ADD CALLDATALOAD PUSH2 0x1704 JUMP JUMPDEST SWAP4 POP SWAP4 POP SWAP4 POP SWAP4 POP PUSH0 PUSH0 PUSH2 0x53C DUP12 PUSH1 0x3 PUSH1 0x4 DUP2 LT PUSH2 0x532 JUMPI PUSH2 0x531 PUSH2 0x22C3 JUMP JUMPDEST JUMPDEST PUSH1 0x20 MUL ADD CALLDATALOAD PUSH2 0x15CF JUMP JUMPDEST SWAP2 POP SWAP2 POP PUSH0 PUSH0 PUSH2 0x54B DUP13 PUSH2 0x11DB JUMP JUMPDEST SWAP2 POP SWAP2 POP DUP10 DUP12 PUSH0 PUSH1 0x18 DUP2 LT PUSH2 0x563 JUMPI PUSH2 0x562 PUSH2 0x22C3 JUMP JUMPDEST JUMPDEST PUSH1 0x20 MUL ADD DUP2 DUP2 MSTORE POP POP DUP9 DUP12 PUSH1 0x1 PUSH1 0x18 DUP2 LT PUSH2 0x581 JUMPI PUSH2 0x580 PUSH2 0x22C3 JUMP JUMPDEST JUMPDEST PUSH1 0x20 MUL ADD DUP2 DUP2 MSTORE POP POP DUP7 DUP12 PUSH1 0x2 PUSH1 0x18 DUP2 LT PUSH2 0x59F JUMPI PUSH2 0x59E PUSH2 0x22C3 JUMP JUMPDEST JUMPDEST PUSH1 0x20 MUL ADD DUP2 DUP2 MSTORE POP POP DUP8 DUP12 PUSH1 0x3 PUSH1 0x18 DUP2 LT PUSH2 0x5BD JUMPI PUSH2 0x5BC PUSH2 0x22C3 JUMP JUMPDEST JUMPDEST PUSH1 0x20 MUL ADD DUP2 DUP2 MSTORE POP POP DUP5 DUP12 PUSH1 0x4 PUSH1 0x18 DUP2 LT PUSH2 0x5DB JUMPI PUSH2 0x5DA PUSH2 0x22C3 JUMP JUMPDEST JUMPDEST PUSH1 0x20 MUL ADD DUP2 DUP2 MSTORE POP POP DUP6 DUP12 PUSH1 0x5 PUSH1 0x18 DUP2 LT PUSH2 0x5F9 JUMPI PUSH2 0x5F8 PUSH2 0x22C3 JUMP JUMPDEST JUMPDEST PUSH1 0x20 MUL ADD DUP2 DUP2 MSTORE POP POP DUP4 DUP12 PUSH1 0x6 PUSH1 0x18 DUP2 LT PUSH2 0x617 JUMPI PUSH2 0x616 PUSH2 0x22C3 JUMP JUMPDEST JUMPDEST PUSH1 0x20 MUL ADD DUP2 DUP2 MSTORE POP POP DUP3 DUP12 PUSH1 0x7 PUSH1 0x18 DUP2 LT PUSH2 0x635 JUMPI PUSH2 0x634 PUSH2 0x22C3 JUMP JUMPDEST JUMPDEST PUSH1 0x20 MUL ADD DUP2 DUP2 MSTORE POP POP PUSH32 0x267A9AE1B2D0FCC4E22C694ECA32EE7044C119C84827966D1250DC68BEC9ADDD DUP12 PUSH1 0x8 PUSH1 0x18 DUP2 LT PUSH2 0x673 JUMPI PUSH2 0x672 PUSH2 0x22C3 JUMP JUMPDEST JUMPDEST PUSH1 0x20 MUL ADD DUP2 DUP2 MSTORE POP POP PUSH32 0x10F6AFA1CA50762BBC102F06731886183687C5EE4B2CB47507AC83B4E0B664F2 DUP12 PUSH1 0x9 PUSH1 0x18 DUP2 LT PUSH2 0x6B1 JUMPI PUSH2 0x6B0 PUSH2 0x22C3 JUMP JUMPDEST JUMPDEST PUSH1 0x20 MUL ADD DUP2 DUP2 MSTORE POP POP PUSH32 0x15358C574F96EDF68DF06CABAE3C4CB00ADC2E2EAB5245290AF8FB5B2DC0B229 DUP12 PUSH1 0xA PUSH1 0x18 DUP2 LT PUSH2 0x6EF JUMPI PUSH2 0x6EE PUSH2 0x22C3 JUMP JUMPDEST JUMPDEST PUSH1 0x20 MUL ADD DUP2 DUP2 MSTORE POP POP PUSH32 0xC1B7C51D79F846153F0C5E76C05EE15A6A8BAB03BB6FA34C39D8F5DDD9AAC07 DUP12 PUSH1 0xB PUSH1 0x18 DUP2 LT PUSH2 0x72D JUMPI PUSH2 0x72C PUSH2 0x22C3 JUMP JUMPDEST JUMPDEST PUSH1 0x20 MUL ADD DUP2 DUP2 MSTORE POP POP PUSH32 0x25CADD1FF7F7B466608D5F19B15358B7ADBFE18ABF80AF5B19441CCBA74EC6FB DUP12 PUSH1 0xC PUSH1 0x18 DUP2 LT PUSH2 0x76B JUMPI PUSH2 0x76A PUSH2 0x22C3 JUMP JUMPDEST JUMPDEST PUSH1 0x20 MUL ADD DUP2 DUP2 MSTORE POP POP PUSH32 0x1DBF3F58F922E78C223D7ABB22C18F9933576A2CDDC483D7BD9E6F78F811CC2B DUP12 PUSH1 0xD PUSH1 0x18 DUP2 LT PUSH2 0x7A9 JUMPI PUSH2 0x7A8 PUSH2 0x22C3 JUMP JUMPDEST JUMPDEST PUSH1 0x20 MUL ADD DUP2 DUP2 MSTORE POP POP PUSH32 0x36D68DAE931774BC17466B7739AB82092AC6D52E5D226156DEC1B0FC63DEAC7 DUP12 PUSH1 0xE PUSH1 0x18 DUP2 LT PUSH2 0x7E7 JUMPI PUSH2 0x7E6 PUSH2 0x22C3 JUMP JUMPDEST JUMPDEST PUSH1 0x20 MUL ADD DUP2 DUP2 MSTORE POP POP PUSH32 0x2F92BDA66A928694EDAA48859A33AB517770E83643461DC757F34DB039732AD2 DUP12 PUSH1 0xF PUSH1 0x18 DUP2 LT PUSH2 0x825 JUMPI PUSH2 0x824 PUSH2 0x22C3 JUMP JUMPDEST JUMPDEST PUSH1 0x20 MUL ADD DUP2 DUP2 MSTORE POP POP PUSH32 0x1057D78EF24B1890F58F94D246BB4B821946E38ACD1BEF7020C405AD8ADC8743 DUP12 PUSH1 0x10 PUSH1 0x18 DUP2 LT PUSH2 0x863 JUMPI PUSH2 0x862 PUSH2 0x22C3 JUMP JUMPDEST JUMPDEST PUSH1 0x20 MUL ADD DUP2 DUP2 MSTORE POP POP PUSH32 0xBF77132187E8699315DCDA058BBFE5FDBDE23F279E83C94D0DB3B9172F58E5B DUP12 PUSH1 0x11 PUSH1 0x18 DUP2 LT PUSH2 0x8A1 JUMPI PUSH2 0x8A0 PUSH2 0x22C3 JUMP JUMPDEST JUMPDEST PUSH1 0x20 MUL ADD DUP2 DUP2 MSTORE POP POP DUP2 DUP12 PUSH1 0x12 PUSH1 0x18 DUP2 LT PUSH2 0x8BF JUMPI PUSH2 0x8BE PUSH2 0x22C3 JUMP JUMPDEST JUMPDEST PUSH1 0x20 MUL ADD DUP2 DUP2 MSTORE POP POP DUP1 DUP12 PUSH1 0x13 PUSH1 0x18 DUP2 LT PUSH2 0x8DD JUMPI PUSH2 0x8DC PUSH2 0x22C3 JUMP JUMPDEST JUMPDEST PUSH1 0x20 MUL ADD DUP2 DUP2 MSTORE POP POP PUSH32 0x1288F41E0ADC6F78313BFB8BB461590F1A78654495EE90E41073214FA3BA2D10 DUP12 PUSH1 0x14 PUSH1 0x18 DUP2 LT PUSH2 0x91B JUMPI PUSH2 0x91A PUSH2 0x22C3 JUMP JUMPDEST JUMPDEST PUSH1 0x20 MUL ADD DUP2 DUP2 MSTORE POP POP PUSH32 0x227ECB8AF66443261E4551F1C34D0F80F1920FE277D527E6C0D171DF07BC990E DUP12 PUSH1 0x15 PUSH1 0x18 DUP2 LT PUSH2 0x959 JUMPI PUSH2 0x958 PUSH2 0x22C3 JUMP JUMPDEST JUMPDEST PUSH1 0x20 MUL ADD DUP2 DUP2 MSTORE POP POP PUSH32 0x81D53A6DACD3E2E8C8EEB1B7821536ED6E483BB9ED9B9823D086066C513109A DUP12 PUSH1 0x16 PUSH1 0x18 DUP2 LT PUSH2 0x997 JUMPI PUSH2 0x996 PUSH2 0x22C3 JUMP JUMPDEST JUMPDEST PUSH1 0x20 MUL ADD DUP2 DUP2 MSTORE POP POP PUSH32 0xA00D774CD2B89FB4CCDE579B70A4E6AFBD80FF3DEE51DD214CD094B3B3214A9 DUP12 PUSH1 0x17 PUSH1 0x18 DUP2 LT PUSH2 0x9D5 JUMPI PUSH2 0x9D4 PUSH2 0x22C3 JUMP JUMPDEST JUMPDEST PUSH1 0x20 MUL ADD DUP2 DUP2 MSTORE POP POP PUSH0 PUSH2 0x9E7 PUSH2 0x20C4 JUMP JUMPDEST PUSH1 0x20 DUP2 PUSH2 0x300 DUP16 PUSH1 0x8 GAS STATICCALL SWAP2 POP DUP2 ISZERO DUP1 PUSH2 0xA19 JUMPI POP PUSH1 0x1 DUP2 PUSH0 PUSH1 0x1 DUP2 LT PUSH2 0xA11 JUMPI PUSH2 0xA10 PUSH2 0x22C3 JUMP JUMPDEST JUMPDEST PUSH1 0x20 MUL ADD MLOAD EQ ISZERO JUMPDEST ISZERO PUSH2 0xA50 JUMPI PUSH1 0x40 MLOAD PUSH32 0x7FCDD1F400000000000000000000000000000000000000000000000000000000 DUP2 MSTORE PUSH1 0x4 ADD PUSH1 0x40 MLOAD DUP1 SWAP2 SUB SWAP1 REVERT JUMPDEST POP POP POP POP POP POP POP POP POP POP POP POP POP POP POP JUMP JUMPDEST PUSH0 PUSH32 0x30644E72E131A029B85045B68181585D97816A916871CA8D3C208C16D87CFD47 DUP4 LT ISZERO DUP1 PUSH2 0xAB1 JUMPI POP PUSH32 0x30644E72E131A029B85045B68181585D97816A916871CA8D3C208C16D87CFD47 DUP3 LT ISZERO JUMPDEST ISZERO PUSH2 0xAE8 JUMPI PUSH1 0x40 MLOAD PUSH32 0x7FCDD1F400000000000000000000000000000000000000000000000000000000 DUP2 MSTORE PUSH1 0x4 ADD PUSH1 0x40 MLOAD DUP1 SWAP2 SUB SWAP1 REVERT JUMPDEST PUSH0 DUP4 EQ DUP1 ISZERO PUSH2 0xAF6 JUMPI POP PUSH0 DUP3 EQ JUMPDEST ISZERO PUSH2 0xB03 JUMPI PUSH0 SWAP1 POP PUSH2 0xC09 JUMP JUMPDEST PUSH0 PUSH2 0xBA1 PUSH32 0x30644E72E131A029B85045B68181585D97816A916871CA8D3C208C16D87CFD47 DUP1 PUSH2 0xB36 JUMPI PUSH2 0xB35 PUSH2 0x22F0 JUMP JUMPDEST JUMPDEST PUSH1 0x3 PUSH32 0x30644E72E131A029B85045B68181585D97816A916871CA8D3C208C16D87CFD47 DUP1 PUSH2 0xB67 JUMPI PUSH2 0xB66 PUSH2 0x22F0 JUMP JUMPDEST JUMPDEST DUP8 PUSH32 0x30644E72E131A029B85045B68181585D97816A916871CA8D3C208C16D87CFD47 DUP1 PUSH2 0xB97 JUMPI PUSH2 0xB96 PUSH2 0x22F0 JUMP JUMPDEST JUMPDEST DUP10 DUP11 MULMOD MULMOD ADDMOD PUSH2 0x1ADF JUMP JUMPDEST SWAP1 POP DUP1 DUP4 SUB PUSH2 0xBB9 JUMPI PUSH0 PUSH1 0x1 DUP6 SWAP1 SHL OR SWAP2 POP POP PUSH2 0xC09 JUMP JUMPDEST PUSH2 0xBC2 DUP2 PUSH2 0x1B7B JUMP JUMPDEST DUP4 SUB PUSH2 0xBD7 JUMPI PUSH1 0x1 DUP1 DUP6 SWAP1 SHL OR SWAP2 POP POP PUSH2 0xC09 JUMP JUMPDEST PUSH1 0x40 MLOAD PUSH32 0x7FCDD1F400000000000000000000000000000000000000000000000000000000 DUP2 MSTORE PUSH1 0x4 ADD PUSH1 0x40 MLOAD DUP1 SWAP2 SUB SWAP1 REVERT JUMPDEST SWAP3 SWAP2 POP POP JUMP JUMPDEST PUSH0 PUSH0 PUSH32 0x30644E72E131A029B85045B68181585D97816A916871CA8D3C208C16D87CFD47 DUP7 LT ISZERO DUP1 PUSH2 0xC60 JUMPI POP PUSH32 0x30644E72E131A029B85045B68181585D97816A916871CA8D3C208C16D87CFD47 DUP6 LT ISZERO JUMPDEST DUP1 PUSH2 0xC8B JUMPI POP PUSH32 0x30644E72E131A029B85045B68181585D97816A916871CA8D3C208C16D87CFD47 DUP5 LT ISZERO JUMPDEST DUP1 PUSH2 0xCB6 JUMPI POP PUSH32 0x30644E72E131A029B85045B68181585D97816A916871CA8D3C208C16D87CFD47 DUP4 LT ISZERO JUMPDEST ISZERO PUSH2 0xCED JUMPI PUSH1 0x40 MLOAD PUSH32 0x7FCDD1F400000000000000000000000000000000000000000000000000000000 DUP2 MSTORE PUSH1 0x4 ADD PUSH1 0x40 MLOAD DUP1 SWAP2 SUB SWAP1 REVERT JUMPDEST PUSH0 DUP4 DUP6 DUP8 DUP10 OR OR OR SUB PUSH2 0xD05 JUMPI PUSH0 PUSH0 SWAP2 POP SWAP2 POP PUSH2 0x11D2 JUMP JUMPDEST PUSH0 PUSH0 PUSH0 PUSH32 0x30644E72E131A029B85045B68181585D97816A916871CA8D3C208C16D87CFD47 DUP1 PUSH2 0xD37 JUMPI PUSH2 0xD36 PUSH2 0x22F0 JUMP JUMPDEST JUMPDEST PUSH1 0x3 PUSH32 0x30644E72E131A029B85045B68181585D97816A916871CA8D3C208C16D87CFD47 PUSH2 0xD64 SWAP2 SWAP1 PUSH2 0x234A JUMP JUMPDEST PUSH32 0x30644E72E131A029B85045B68181585D97816A916871CA8D3C208C16D87CFD47 DUP1 PUSH2 0xD93 JUMPI PUSH2 0xD92 PUSH2 0x22F0 JUMP JUMPDEST JUMPDEST DUP11 DUP13 MULMOD MULMOD SWAP1 POP PUSH0 PUSH32 0x30644E72E131A029B85045B68181585D97816A916871CA8D3C208C16D87CFD47 DUP1 PUSH2 0xDC9 JUMPI PUSH2 0xDC8 PUSH2 0x22F0 JUMP JUMPDEST JUMPDEST DUP11 PUSH32 0x30644E72E131A029B85045B68181585D97816A916871CA8D3C208C16D87CFD47 DUP1 PUSH2 0xDF9 JUMPI PUSH2 0xDF8 PUSH2 0x22F0 JUMP JUMPDEST JUMPDEST DUP13 DUP14 MULMOD MULMOD SWAP1 POP PUSH0 PUSH32 0x30644E72E131A029B85045B68181585D97816A916871CA8D3C208C16D87CFD47 DUP1 PUSH2 0xE2F JUMPI PUSH2 0xE2E PUSH2 0x22F0 JUMP JUMPDEST JUMPDEST DUP11 PUSH32 0x30644E72E131A029B85045B68181585D97816A916871CA8D3C208C16D87CFD47 DUP1 PUSH2 0xE5F JUMPI PUSH2 0xE5E PUSH2 0x22F0 JUMP JUMPDEST JUMPDEST DUP13 DUP14 MULMOD MULMOD SWAP1 POP PUSH32 0x30644E72E131A029B85045B68181585D97816A916871CA8D3C208C16D87CFD47 DUP1 PUSH2 0xE94 JUMPI PUSH2 0xE93 PUSH2 0x22F0 JUMP JUMPDEST JUMPDEST PUSH32 0x30644E72E131A029B85045B68181585D97816A916871CA8D3C208C16D87CFD47 DUP1 PUSH2 0xEC3 JUMPI PUSH2 0xEC2 PUSH2 0x22F0 JUMP JUMPDEST JUMPDEST PUSH32 0x30644E72E131A029B85045B68181585D97816A916871CA8D3C208C16D87CFD47 DUP1 PUSH2 0xEF2 JUMPI PUSH2 0xEF1 PUSH2 0x22F0 JUMP JUMPDEST JUMPDEST DUP13 DUP7 MULMOD DUP5 ADDMOD PUSH32 0x2B149D40CEB8AAAE81BE18991BE06AC3B5B4C5E559DBEFA33267E6DC24A138E5 ADDMOD SWAP5 POP PUSH2 0xFD7 PUSH32 0x30644E72E131A029B85045B68181585D97816A916871CA8D3C208C16D87CFD47 DUP1 PUSH2 0xF4D JUMPI PUSH2 0xF4C PUSH2 0x22F0 JUMP JUMPDEST JUMPDEST PUSH32 0x30644E72E131A029B85045B68181585D97816A916871CA8D3C208C16D87CFD47 DUP1 PUSH2 0xF7C JUMPI PUSH2 0xF7B PUSH2 0x22F0 JUMP JUMPDEST JUMPDEST PUSH32 0x30644E72E131A029B85045B68181585D97816A916871CA8D3C208C16D87CFD47 DUP1 PUSH2 0xFAB JUMPI PUSH2 0xFAA PUSH2 0x22F0 JUMP JUMPDEST JUMPDEST DUP15 DUP8 MULMOD DUP5 ADDMOD PUSH32 0x2FCD3AC2A640A154EB23960892A85A68F031CA0C8344B23A577DCF1052B9E775 ADDMOD PUSH2 0x1B7B JUMP JUMPDEST SWAP4 POP POP POP POP PUSH0 PUSH0 PUSH2 0x107A PUSH32 0x30644E72E131A029B85045B68181585D97816A916871CA8D3C208C16D87CFD47 DUP1 PUSH2 0x1010 JUMPI PUSH2 0x100F PUSH2 0x22F0 JUMP JUMPDEST JUMPDEST PUSH32 0x30644E72E131A029B85045B68181585D97816A916871CA8D3C208C16D87CFD47 DUP1 PUSH2 0x103F JUMPI PUSH2 0x103E PUSH2 0x22F0 JUMP JUMPDEST JUMPDEST DUP6 DUP7 MULMOD PUSH32 0x30644E72E131A029B85045B68181585D97816A916871CA8D3C208C16D87CFD47 DUP1 PUSH2 0x1071 JUMPI PUSH2 0x1070 PUSH2 0x22F0 JUMP JUMPDEST JUMPDEST DUP8 DUP9 MULMOD ADDMOD PUSH2 0x1ADF JUMP JUMPDEST SWAP1 POP PUSH2 0x1107 PUSH32 0x30644E72E131A029B85045B68181585D97816A916871CA8D3C208C16D87CFD47 DUP1 PUSH2 0x10AE JUMPI PUSH2 0x10AD PUSH2 0x22F0 JUMP JUMPDEST JUMPDEST PUSH32 0x183227397098D014DC2822DB40C0AC2ECBC0B548B438E5469E10460B6C3E7EA4 PUSH32 0x30644E72E131A029B85045B68181585D97816A916871CA8D3C208C16D87CFD47 DUP1 PUSH2 0x10FE JUMPI PUSH2 0x10FD PUSH2 0x22F0 JUMP JUMPDEST JUMPDEST DUP5 DUP9 ADDMOD MULMOD PUSH2 0x1BE6 JUMP JUMPDEST ISZERO SWAP2 POP POP PUSH2 0x1116 DUP4 DUP4 DUP4 PUSH2 0x1C50 JUMP JUMPDEST DUP1 SWAP4 POP DUP2 SWAP5 POP POP POP DUP3 DUP8 EQ DUP1 ISZERO PUSH2 0x112C JUMPI POP DUP2 DUP7 EQ JUMPDEST ISZERO PUSH2 0x1154 JUMPI PUSH0 DUP2 PUSH2 0x113D JUMPI PUSH0 PUSH2 0x1140 JUMP JUMPDEST PUSH1 0x2 JUMPDEST PUSH1 0xFF AND PUSH1 0x2 DUP12 SWAP1 SHL OR OR SWAP5 POP DUP8 SWAP4 POP PUSH2 0x11CE JUMP JUMPDEST PUSH2 0x115D DUP4 PUSH2 0x1B7B JUMP JUMPDEST DUP8 EQ DUP1 ISZERO PUSH2 0x1172 JUMPI POP PUSH2 0x116F DUP3 PUSH2 0x1B7B JUMP JUMPDEST DUP7 EQ JUMPDEST ISZERO PUSH2 0x119B JUMPI PUSH1 0x1 DUP2 PUSH2 0x1184 JUMPI PUSH0 PUSH2 0x1187 JUMP JUMPDEST PUSH1 0x2 JUMPDEST PUSH1 0xFF AND PUSH1 0x2 DUP12 SWAP1 SHL OR OR SWAP5 POP DUP8 SWAP4 POP PUSH2 0x11CD JUMP JUMPDEST PUSH1 0x40 MLOAD PUSH32 0x7FCDD1F400000000000000000000000000000000000000000000000000000000 DUP2 MSTORE PUSH1 0x4 ADD PUSH1 0x40 MLOAD DUP1 SWAP2 SUB SWAP1 REVERT JUMPDEST JUMPDEST POP POP POP JUMPDEST SWAP5 POP SWAP5 SWAP3 POP POP POP JUMP JUMPDEST PUSH0 PUSH0 PUSH0 PUSH1 0x1 SWAP1 POP PUSH1 0x40 MLOAD PUSH1 0x40 DUP2 ADD PUSH0 PUSH32 0x293080BAD0ECF5AA9EE1DBDE8FE6BD031BBC3B62BEA8A30ECC596838AE98F0CC DUP4 MSTORE PUSH32 0xFB2147A3749DC7066E07D12514B7FC5B2C55779EEE8A9325657DF0CE426C81C PUSH1 0x20 DUP5 ADD MSTORE PUSH31 0xED94690896D594436C8FC771E41DD51BD0168C659E8CD91ACD1FC435774700 DUP3 MSTORE PUSH32 0x4D5012CF98D9F12A6D706DA677A7ADDB5E9E204980A85A8E7BB5154948F8FB9 PUSH1 0x20 DUP4 ADD MSTORE DUP7 CALLDATALOAD SWAP1 POP DUP1 PUSH1 0x40 DUP4 ADD MSTORE PUSH32 0x30644E72E131A029B85045B68181585D2833E84879B9709143E1F593F0000001 DUP2 LT DUP5 AND SWAP4 POP PUSH1 0x40 DUP3 PUSH1 0x60 DUP5 PUSH1 0x7 GAS STATICCALL DUP5 AND SWAP4 POP PUSH1 0x40 DUP4 PUSH1 0x80 DUP6 PUSH1 0x6 GAS STATICCALL DUP5 AND SWAP4 POP PUSH32 0x1F59A3ADB8A4308C85CE5DB4AD03FD1AC70B56253D89E511C39EF42CE33C3C6A DUP3 MSTORE PUSH32 0x2CF47F7C50ADBA5BD86DEE7EB1759A16231C2125ACB76617B42F9186040F9307 PUSH1 0x20 DUP4 ADD MSTORE PUSH1 0x20 DUP8 ADD CALLDATALOAD SWAP1 POP DUP1 PUSH1 0x40 DUP4 ADD MSTORE PUSH32 0x30644E72E131A029B85045B68181585D2833E84879B9709143E1F593F0000001 DUP2 LT DUP5 AND SWAP4 POP PUSH1 0x40 DUP3 PUSH1 0x60 DUP5 PUSH1 0x7 GAS STATICCALL DUP5 AND SWAP4 POP PUSH1 0x40 DUP4 PUSH1 0x80 DUP6 PUSH1 0x6 GAS STATICCALL DUP5 AND SWAP4 POP PUSH31 0x692EA962B343CF5CF11598AD0856EB6C6ED7321CA00E6A1EEC1E9182A43CE2 DUP3 MSTORE PUSH32 0x1FA1FD1EAEF1B2A563033553E66ABA07C9AFD34C56B35B75106DFC0DA50FC75 PUSH1 0x20 DUP4 ADD MSTORE PUSH1 0x40 DUP8 ADD CALLDATALOAD SWAP1 POP DUP1 PUSH1 0x40 DUP4 ADD MSTORE PUSH32 0x30644E72E131A029B85045B68181585D2833E84879B9709143E1F593F0000001 DUP2 LT DUP5 AND SWAP4 POP PUSH1 0x40 DUP3 PUSH1 0x60 DUP5 PUSH1 0x7 GAS STATICCALL DUP5 AND SWAP4 POP PUSH1 0x40 DUP4 PUSH1 0x80 DUP6 PUSH1 0x6 GAS STATICCALL DUP5 AND SWAP4 POP PUSH32 0x55B3627A2C3C463D0A6B51158CB5AD2B80459586556DB3E9B98429FF58A075C DUP3 MSTORE PUSH32 0x5460DE3B7F749CEF5A42716D8C8C13E20B8766D3D8CC75A16EC18465FEA2D89 PUSH1 0x20 DUP4 ADD MSTORE PUSH1 0x60 DUP8 ADD CALLDATALOAD SWAP1 POP DUP1 PUSH1 0x40 DUP4 ADD MSTORE PUSH32 0x30644E72E131A029B85045B68181585D2833E84879B9709143E1F593F0000001 DUP2 LT DUP5 AND SWAP4 POP PUSH1 0x40 DUP3 PUSH1 0x60 DUP5 PUSH1 0x7 GAS STATICCALL DUP5 AND SWAP4 POP PUSH1 0x40 DUP4 PUSH1 0x80 DUP6 PUSH1 0x6 GAS STATICCALL DUP5 AND SWAP4 POP PUSH0 DUP3 MSTORE PUSH0 PUSH1 0x20 DUP4 ADD MSTORE PUSH1 0x80 DUP8 ADD CALLDATALOAD SWAP1 POP DUP1 PUSH1 0x40 DUP4 ADD MSTORE PUSH32 0x30644E72E131A029B85045B68181585D2833E84879B9709143E1F593F0000001 DUP2 LT DUP5 AND SWAP4 POP PUSH1 0x40 DUP3 PUSH1 0x60 DUP5 PUSH1 0x7 GAS STATICCALL DUP5 AND SWAP4 POP PUSH1 0x40 DUP4 PUSH1 0x80 DUP6 PUSH1 0x6 GAS STATICCALL DUP5 AND SWAP4 POP PUSH32 0x60BD0AABF83EE4D7AB16CF6973F9A29655CD25D97B943320D8AD3D5CF8B2DC1 DUP3 MSTORE PUSH32 0x2FE98F4B4A16DA4D3E6E6471D2FE6B08753E314A6AEF924A1E9D29A3147C60E4 PUSH1 0x20 DUP4 ADD MSTORE PUSH1 0xA0 DUP8 ADD CALLDATALOAD SWAP1 POP DUP1 PUSH1 0x40 DUP4 ADD MSTORE PUSH32 0x30644E72E131A029B85045B68181585D2833E84879B9709143E1F593F0000001 DUP2 LT DUP5 AND SWAP4 POP PUSH1 0x40 DUP3 PUSH1 0x60 DUP5 PUSH1 0x7 GAS STATICCALL DUP5 AND SWAP4 POP PUSH1 0x40 DUP4 PUSH1 0x80 DUP6 PUSH1 0x6 GAS STATICCALL DUP5 AND SWAP4 POP DUP3 MLOAD SWAP6 POP PUSH1 0x20 DUP4 ADD MLOAD SWAP5 POP POP POP POP DUP1 PUSH2 0x15C9 JUMPI PUSH1 0x40 MLOAD PUSH32 0xA54F8E2700000000000000000000000000000000000000000000000000000000 DUP2 MSTORE PUSH1 0x4 ADD PUSH1 0x40 MLOAD DUP1 SWAP2 SUB SWAP1 REVERT JUMPDEST POP SWAP2 POP SWAP2 JUMP JUMPDEST PUSH0 PUSH0 PUSH0 DUP4 SUB PUSH2 0x15E3 JUMPI PUSH0 PUSH0 SWAP2 POP SWAP2 POP PUSH2 0x16FF JUMP JUMPDEST PUSH0 PUSH1 0x1 DUP1 DUP6 AND EQ SWAP1 POP PUSH1 0x1 DUP5 SWAP1 SHR SWAP3 POP PUSH32 0x30644E72E131A029B85045B68181585D97816A916871CA8D3C208C16D87CFD47 DUP4 LT PUSH2 0x164C JUMPI PUSH1 0x40 MLOAD PUSH32 0x7FCDD1F400000000000000000000000000000000000000000000000000000000 DUP2 MSTORE PUSH1 0x4 ADD PUSH1 0x40 MLOAD DUP1 SWAP2 SUB SWAP1 REVERT JUMPDEST PUSH2 0x16E9 PUSH32 0x30644E72E131A029B85045B68181585D97816A916871CA8D3C208C16D87CFD47 DUP1 PUSH2 0x167E JUMPI PUSH2 0x167D PUSH2 0x22F0 JUMP JUMPDEST JUMPDEST PUSH1 0x3 PUSH32 0x30644E72E131A029B85045B68181585D97816A916871CA8D3C208C16D87CFD47 DUP1 PUSH2 0x16AF JUMPI PUSH2 0x16AE PUSH2 0x22F0 JUMP JUMPDEST JUMPDEST DUP7 PUSH32 0x30644E72E131A029B85045B68181585D97816A916871CA8D3C208C16D87CFD47 DUP1 PUSH2 0x16DF JUMPI PUSH2 0x16DE PUSH2 0x22F0 JUMP JUMPDEST JUMPDEST DUP9 DUP10 MULMOD MULMOD ADDMOD PUSH2 0x1ADF JUMP JUMPDEST SWAP2 POP DUP1 ISZERO PUSH2 0x16FD JUMPI PUSH2 0x16FA DUP3 PUSH2 0x1B7B JUMP JUMPDEST SWAP2 POP JUMPDEST POP JUMPDEST SWAP2 POP SWAP2 JUMP JUMPDEST PUSH0 PUSH0 PUSH0 PUSH0 PUSH0 DUP7 EQ DUP1 ISZERO PUSH2 0x1716 JUMPI POP PUSH0 DUP6 EQ JUMPDEST ISZERO PUSH2 0x172C JUMPI PUSH0 PUSH0 PUSH0 PUSH0 SWAP4 POP SWAP4 POP SWAP4 POP SWAP4 POP PUSH2 0x1AD6 JUMP JUMPDEST PUSH0 PUSH1 0x1 DUP1 DUP9 AND EQ SWAP1 POP PUSH0 PUSH1 0x2 DUP1 DUP10 AND EQ SWAP1 POP PUSH1 0x2 DUP9 SWAP1 SHR SWAP6 POP DUP7 SWAP5 POP PUSH32 0x30644E72E131A029B85045B68181585D97816A916871CA8D3C208C16D87CFD47 DUP7 LT ISZERO DUP1 PUSH2 0x1797 JUMPI POP PUSH32 0x30644E72E131A029B85045B68181585D97816A916871CA8D3C208C16D87CFD47 DUP6 LT ISZERO JUMPDEST ISZERO PUSH2 0x17CE JUMPI PUSH1 0x40 MLOAD PUSH32 0x7FCDD1F400000000000000000000000000000000000000000000000000000000 DUP2 MSTORE PUSH1 0x4 ADD PUSH1 0x40 MLOAD DUP1 SWAP2 SUB SWAP1 REVERT JUMPDEST PUSH0 PUSH32 0x30644E72E131A029B85045B68181585D97816A916871CA8D3C208C16D87CFD47 DUP1 PUSH2 0x17FE JUMPI PUSH2 0x17FD PUSH2 0x22F0 JUMP JUMPDEST JUMPDEST PUSH1 0x3 PUSH32 0x30644E72E131A029B85045B68181585D97816A916871CA8D3C208C16D87CFD47 PUSH2 0x182B SWAP2 SWAP1 PUSH2 0x234A JUMP JUMPDEST PUSH32 0x30644E72E131A029B85045B68181585D97816A916871CA8D3C208C16D87CFD47 DUP1 PUSH2 0x185A JUMPI PUSH2 0x1859 PUSH2 0x22F0 JUMP JUMPDEST JUMPDEST DUP9 DUP11 MULMOD MULMOD SWAP1 POP PUSH0 PUSH32 0x30644E72E131A029B85045B68181585D97816A916871CA8D3C208C16D87CFD47 DUP1 PUSH2 0x1890 JUMPI PUSH2 0x188F PUSH2 0x22F0 JUMP JUMPDEST JUMPDEST DUP9 PUSH32 0x30644E72E131A029B85045B68181585D97816A916871CA8D3C208C16D87CFD47 DUP1 PUSH2 0x18C0 JUMPI PUSH2 0x18BF PUSH2 0x22F0 JUMP JUMPDEST JUMPDEST DUP11 DUP12 MULMOD MULMOD SWAP1 POP PUSH0 PUSH32 0x30644E72E131A029B85045B68181585D97816A916871CA8D3C208C16D87CFD47 DUP1 PUSH2 0x18F6 JUMPI PUSH2 0x18F5 PUSH2 0x22F0 JUMP JUMPDEST JUMPDEST DUP9 PUSH32 0x30644E72E131A029B85045B68181585D97816A916871CA8D3C208C16D87CFD47 DUP1 PUSH2 0x1926 JUMPI PUSH2 0x1925 PUSH2 0x22F0 JUMP JUMPDEST JUMPDEST DUP11 DUP12 MULMOD MULMOD SWAP1 POP PUSH32 0x30644E72E131A029B85045B68181585D97816A916871CA8D3C208C16D87CFD47 DUP1 PUSH2 0x195B JUMPI PUSH2 0x195A PUSH2 0x22F0 JUMP JUMPDEST JUMPDEST PUSH32 0x30644E72E131A029B85045B68181585D97816A916871CA8D3C208C16D87CFD47 DUP1 PUSH2 0x198A JUMPI PUSH2 0x1989 PUSH2 0x22F0 JUMP JUMPDEST JUMPDEST PUSH32 0x30644E72E131A029B85045B68181585D97816A916871CA8D3C208C16D87CFD47 DUP1 PUSH2 0x19B9 JUMPI PUSH2 0x19B8 PUSH2 0x22F0 JUMP JUMPDEST JUMPDEST DUP11 DUP7 MULMOD DUP5 ADDMOD PUSH32 0x2B149D40CEB8AAAE81BE18991BE06AC3B5B4C5E559DBEFA33267E6DC24A138E5 ADDMOD SWAP7 POP PUSH2 0x1A9E PUSH32 0x30644E72E131A029B85045B68181585D97816A916871CA8D3C208C16D87CFD47 DUP1 PUSH2 0x1A14 JUMPI PUSH2 0x1A13 PUSH2 0x22F0 JUMP JUMPDEST JUMPDEST PUSH32 0x30644E72E131A029B85045B68181585D97816A916871CA8D3C208C16D87CFD47 DUP1 PUSH2 0x1A43 JUMPI PUSH2 0x1A42 PUSH2 0x22F0 JUMP JUMPDEST JUMPDEST PUSH32 0x30644E72E131A029B85045B68181585D97816A916871CA8D3C208C16D87CFD47 DUP1 PUSH2 0x1A72 JUMPI PUSH2 0x1A71 PUSH2 0x22F0 JUMP JUMPDEST JUMPDEST DUP13 DUP8 MULMOD DUP5 ADDMOD PUSH32 0x2FCD3AC2A640A154EB23960892A85A68F031CA0C8344B23A577DCF1052B9E775 ADDMOD PUSH2 0x1B7B JUMP JUMPDEST SWAP6 POP PUSH2 0x1AAB DUP8 DUP8 DUP7 PUSH2 0x1C50 JUMP JUMPDEST DUP1 SWAP8 POP DUP2 SWAP9 POP POP POP DUP5 ISZERO PUSH2 0x1AD0 JUMPI PUSH2 0x1AC2 DUP8 PUSH2 0x1B7B JUMP JUMPDEST SWAP7 POP PUSH2 0x1ACD DUP7 PUSH2 0x1B7B JUMP JUMPDEST SWAP6 POP JUMPDEST POP POP POP POP POP JUMPDEST SWAP3 SWAP6 SWAP2 SWAP5 POP SWAP3 POP JUMP JUMPDEST PUSH0 PUSH2 0x1B0A DUP3 PUSH32 0xC19139CB84C680A6E14116DA060561765E05AA45A1C72A34F082305B61F3F52 PUSH2 0x1F4B JUMP JUMPDEST SWAP1 POP DUP2 PUSH32 0x30644E72E131A029B85045B68181585D97816A916871CA8D3C208C16D87CFD47 DUP1 PUSH2 0x1B3C JUMPI PUSH2 0x1B3B PUSH2 0x22F0 JUMP JUMPDEST JUMPDEST DUP3 DUP4 MULMOD EQ PUSH2 0x1B76 JUMPI PUSH1 0x40 MLOAD PUSH32 0x7FCDD1F400000000000000000000000000000000000000000000000000000000 DUP2 MSTORE PUSH1 0x4 ADD PUSH1 0x40 MLOAD DUP1 SWAP2 SUB SWAP1 REVERT JUMPDEST SWAP2 SWAP1 POP JUMP JUMPDEST PUSH0 PUSH32 0x30644E72E131A029B85045B68181585D97816A916871CA8D3C208C16D87CFD47 DUP1 DUP4 DUP2 PUSH2 0x1BAD JUMPI PUSH2 0x1BAC PUSH2 0x22F0 JUMP JUMPDEST JUMPDEST MOD PUSH32 0x30644E72E131A029B85045B68181585D97816A916871CA8D3C208C16D87CFD47 SUB DUP2 PUSH2 0x1BDE JUMPI PUSH2 0x1BDD PUSH2 0x22F0 JUMP JUMPDEST JUMPDEST MOD SWAP1 POP SWAP2 SWAP1 POP JUMP JUMPDEST PUSH0 PUSH0 PUSH2 0x1C12 DUP4 PUSH32 0xC19139CB84C680A6E14116DA060561765E05AA45A1C72A34F082305B61F3F52 PUSH2 0x1F4B JUMP JUMPDEST SWAP1 POP DUP3 PUSH32 0x30644E72E131A029B85045B68181585D97816A916871CA8D3C208C16D87CFD47 DUP1 PUSH2 0x1C44 JUMPI PUSH2 0x1C43 PUSH2 0x22F0 JUMP JUMPDEST JUMPDEST DUP3 DUP4 MULMOD EQ SWAP2 POP POP SWAP2 SWAP1 POP JUMP JUMPDEST PUSH0 PUSH0 PUSH0 PUSH2 0x1CEF PUSH32 0x30644E72E131A029B85045B68181585D97816A916871CA8D3C208C16D87CFD47 DUP1 PUSH2 0x1C85 JUMPI PUSH2 0x1C84 PUSH2 0x22F0 JUMP JUMPDEST JUMPDEST PUSH32 0x30644E72E131A029B85045B68181585D97816A916871CA8D3C208C16D87CFD47 DUP1 PUSH2 0x1CB4 JUMPI PUSH2 0x1CB3 PUSH2 0x22F0 JUMP JUMPDEST JUMPDEST DUP8 DUP9 MULMOD PUSH32 0x30644E72E131A029B85045B68181585D97816A916871CA8D3C208C16D87CFD47 DUP1 PUSH2 0x1CE6 JUMPI PUSH2 0x1CE5 PUSH2 0x22F0 JUMP JUMPDEST JUMPDEST DUP10 DUP11 MULMOD ADDMOD PUSH2 0x1ADF JUMP JUMPDEST SWAP1 POP DUP4 ISZERO PUSH2 0x1D03 JUMPI PUSH2 0x1D00 DUP2 PUSH2 0x1B7B JUMP JUMPDEST SWAP1 POP JUMPDEST PUSH2 0x1D8E PUSH32 0x30644E72E131A029B85045B68181585D97816A916871CA8D3C208C16D87CFD47 DUP1 PUSH2 0x1D35 JUMPI PUSH2 0x1D34 PUSH2 0x22F0 JUMP JUMPDEST JUMPDEST PUSH32 0x183227397098D014DC2822DB40C0AC2ECBC0B548B438E5469E10460B6C3E7EA4 PUSH32 0x30644E72E131A029B85045B68181585D97816A916871CA8D3C208C16D87CFD47 DUP1 PUSH2 0x1D85 JUMPI PUSH2 0x1D84 PUSH2 0x22F0 JUMP JUMPDEST JUMPDEST DUP5 DUP11 ADDMOD MULMOD PUSH2 0x1ADF JUMP JUMPDEST SWAP3 POP PUSH32 0x30644E72E131A029B85045B68181585D97816A916871CA8D3C208C16D87CFD47 DUP1 PUSH2 0x1DBF JUMPI PUSH2 0x1DBE PUSH2 0x22F0 JUMP JUMPDEST JUMPDEST PUSH2 0x1DFA PUSH32 0x30644E72E131A029B85045B68181585D97816A916871CA8D3C208C16D87CFD47 DUP1 PUSH2 0x1DF1 JUMPI PUSH2 0x1DF0 PUSH2 0x22F0 JUMP JUMPDEST JUMPDEST PUSH1 0x2 DUP7 MULMOD PUSH2 0x1FE2 JUMP JUMPDEST DUP7 MULMOD SWAP2 POP PUSH32 0x30644E72E131A029B85045B68181585D97816A916871CA8D3C208C16D87CFD47 DUP1 PUSH2 0x1E2D JUMPI PUSH2 0x1E2C PUSH2 0x22F0 JUMP JUMPDEST JUMPDEST PUSH2 0x1E67 PUSH32 0x30644E72E131A029B85045B68181585D97816A916871CA8D3C208C16D87CFD47 DUP1 PUSH2 0x1E5F JUMPI PUSH2 0x1E5E PUSH2 0x22F0 JUMP JUMPDEST JUMPDEST DUP5 DUP6 MULMOD PUSH2 0x1B7B JUMP JUMPDEST PUSH32 0x30644E72E131A029B85045B68181585D97816A916871CA8D3C208C16D87CFD47 DUP1 PUSH2 0x1E96 JUMPI PUSH2 0x1E95 PUSH2 0x22F0 JUMP JUMPDEST JUMPDEST DUP6 DUP7 MULMOD ADDMOD DUP7 EQ ISZERO DUP1 PUSH2 0x1F0B JUMPI POP PUSH32 0x30644E72E131A029B85045B68181585D97816A916871CA8D3C208C16D87CFD47 DUP1 PUSH2 0x1ED2 JUMPI PUSH2 0x1ED1 PUSH2 0x22F0 JUMP JUMPDEST JUMPDEST PUSH32 0x30644E72E131A029B85045B68181585D97816A916871CA8D3C208C16D87CFD47 DUP1 PUSH2 0x1F01 JUMPI PUSH2 0x1F00 PUSH2 0x22F0 JUMP JUMPDEST JUMPDEST DUP4 DUP6 MULMOD PUSH1 0x2 MULMOD DUP6 EQ ISZERO JUMPDEST ISZERO PUSH2 0x1F42 JUMPI PUSH1 0x40 MLOAD PUSH32 0x7FCDD1F400000000000000000000000000000000000000000000000000000000 DUP2 MSTORE PUSH1 0x4 ADD PUSH1 0x40 MLOAD DUP1 SWAP2 SUB SWAP1 REVERT JUMPDEST POP SWAP4 POP SWAP4 SWAP2 POP POP JUMP JUMPDEST PUSH0 PUSH0 PUSH1 0x40 MLOAD PUSH1 0x20 DUP2 MSTORE PUSH1 0x20 DUP1 DUP3 ADD MSTORE PUSH1 0x20 PUSH1 0x40 DUP3 ADD MSTORE DUP5 PUSH1 0x60 DUP3 ADD MSTORE DUP4 PUSH1 0x80 DUP3 ADD MSTORE PUSH32 0x30644E72E131A029B85045B68181585D97816A916871CA8D3C208C16D87CFD47 PUSH1 0xA0 DUP3 ADD MSTORE PUSH1 0x20 DUP2 PUSH1 0xC0 DUP4 PUSH1 0x5 GAS STATICCALL SWAP2 POP DUP1 MLOAD SWAP3 POP POP DUP1 PUSH2 0x1FDB JUMPI PUSH1 0x40 MLOAD PUSH32 0x7FCDD1F400000000000000000000000000000000000000000000000000000000 DUP2 MSTORE PUSH1 0x4 ADD PUSH1 0x40 MLOAD DUP1 SWAP2 SUB SWAP1 REVERT JUMPDEST POP SWAP3 SWAP2 POP POP JUMP JUMPDEST PUSH0 PUSH2 0x200D DUP3 PUSH32 0x30644E72E131A029B85045B68181585D97816A916871CA8D3C208C16D87CFD45 PUSH2 0x1F4B JUMP JUMPDEST SWAP1 POP PUSH1 0x1 PUSH32 0x30644E72E131A029B85045B68181585D97816A916871CA8D3C208C16D87CFD47 DUP1 PUSH2 0x2040 JUMPI PUSH2 0x203F PUSH2 0x22F0 JUMP JUMPDEST JUMPDEST DUP3 DUP5 MULMOD EQ PUSH2 0x207A JUMPI PUSH1 0x40 MLOAD PUSH32 0x7FCDD1F400000000000000000000000000000000000000000000000000000000 DUP2 MSTORE PUSH1 0x4 ADD PUSH1 0x40 MLOAD DUP1 SWAP2 SUB SWAP1 REVERT JUMPDEST SWAP2 SWAP1 POP JUMP JUMPDEST PUSH1 0x40 MLOAD DUP1 PUSH1 0x80 ADD PUSH1 0x40 MSTORE DUP1 PUSH1 0x4 SWAP1 PUSH1 0x20 DUP3 MUL DUP1 CALLDATASIZE DUP4 CALLDATACOPY DUP1 DUP3 ADD SWAP2 POP POP SWAP1 POP POP SWAP1 JUMP JUMPDEST PUSH1 0x40 MLOAD DUP1 PUSH2 0x300 ADD PUSH1 0x40 MSTORE DUP1 PUSH1 0x18 SWAP1 PUSH1 0x20 DUP3 MUL DUP1 CALLDATASIZE DUP4 CALLDATACOPY DUP1 DUP3 ADD SWAP2 POP POP SWAP1 POP POP SWAP1 JUMP JUMPDEST PUSH1 0x40 MLOAD DUP1 PUSH1 0x20 ADD PUSH1 0x40 MSTORE DUP1 PUSH1 0x1 SWAP1 PUSH1 0x20 DUP3 MUL DUP1 CALLDATASIZE DUP4 CALLDATACOPY DUP1 DUP3 ADD SWAP2 POP POP SWAP1 POP POP SWAP1 JUMP JUMPDEST PUSH0 PUSH0 REVERT JUMPDEST PUSH0 PUSH0 REVERT JUMPDEST PUSH0 DUP2 SWAP1 POP DUP3 PUSH1 0x20 PUSH1 0x8 MUL DUP3 ADD GT ISZERO PUSH2 0x2109 JUMPI PUSH2 0x2108 PUSH2 0x20EA JUMP JUMPDEST JUMPDEST SWAP3 SWAP2 POP POP JUMP JUMPDEST PUSH0 PUSH2 0x100 DUP3 DUP5 SUB SLT ISZERO PUSH2 0x2125 JUMPI PUSH2 0x2124 PUSH2 0x20E6 JUMP JUMPDEST JUMPDEST PUSH0 PUSH2 0x2132 DUP5 DUP3 DUP6 ADD PUSH2 0x20EE JUMP JUMPDEST SWAP2 POP POP SWAP3 SWAP2 POP POP JUMP JUMPDEST PUSH0 PUSH1 0x4 SWAP1 POP SWAP2 SWAP1 POP JUMP JUMPDEST PUSH0 DUP2 SWAP1 POP SWAP3 SWAP2 POP POP JUMP JUMPDEST PUSH0 DUP2 SWAP1 POP SWAP2 SWAP1 POP JUMP JUMPDEST PUSH0 DUP2 SWAP1 POP SWAP2 SWAP1 POP JUMP JUMPDEST PUSH2 0x216A DUP2 PUSH2 0x2158 JUMP JUMPDEST DUP3 MSTORE POP POP JUMP JUMPDEST PUSH0 PUSH2 0x217B DUP4 DUP4 PUSH2 0x2161 JUMP JUMPDEST PUSH1 0x20 DUP4 ADD SWAP1 POP SWAP3 SWAP2 POP POP JUMP JUMPDEST PUSH0 PUSH1 0x20 DUP3 ADD SWAP1 POP SWAP2 SWAP1 POP JUMP JUMPDEST PUSH2 0x219C DUP2 PUSH2 0x213B JUMP JUMPDEST PUSH2 0x21A6 DUP2 DUP5 PUSH2 0x2145 JUMP JUMPDEST SWAP3 POP PUSH2 0x21B1 DUP3 PUSH2 0x214F JUMP JUMPDEST DUP1 PUSH0 JUMPDEST DUP4 DUP2 LT ISZERO PUSH2 0x21E1 JUMPI DUP2 MLOAD PUSH2 0x21C8 DUP8 DUP3 PUSH2 0x2170 JUMP JUMPDEST SWAP7 POP PUSH2 0x21D3 DUP4 PUSH2 0x2187 JUMP JUMPDEST SWAP3 POP POP PUSH1 0x1 DUP2 ADD SWAP1 POP PUSH2 0x21B4 JUMP JUMPDEST POP POP POP POP POP POP JUMP JUMPDEST PUSH0 PUSH1 0x80 DUP3 ADD SWAP1 POP PUSH2 0x21FC PUSH0 DUP4 ADD DUP5 PUSH2 0x2193 JUMP JUMPDEST SWAP3 SWAP2 POP POP JUMP JUMPDEST PUSH0 DUP2 SWAP1 POP DUP3 PUSH1 0x20 PUSH1 0x6 MUL DUP3 ADD GT ISZERO PUSH2 0x221D JUMPI PUSH2 0x221C PUSH2 0x20EA JUMP JUMPDEST JUMPDEST SWAP3 SWAP2 POP POP JUMP JUMPDEST PUSH0 PUSH0 PUSH2 0x1C0 DUP4 DUP6 SUB SLT ISZERO PUSH2 0x223A JUMPI PUSH2 0x2239 PUSH2 0x20E6 JUMP JUMPDEST JUMPDEST PUSH0 PUSH2 0x2247 DUP6 DUP3 DUP7 ADD PUSH2 0x20EE JUMP JUMPDEST SWAP3 POP POP PUSH2 0x100 PUSH2 0x2259 DUP6 DUP3 DUP7 ADD PUSH2 0x2202 JUMP JUMPDEST SWAP2 POP POP SWAP3 POP SWAP3 SWAP1 POP JUMP JUMPDEST PUSH0 DUP2 SWAP1 POP DUP3 PUSH1 0x20 PUSH1 0x4 MUL DUP3 ADD GT ISZERO PUSH2 0x227E JUMPI PUSH2 0x227D PUSH2 0x20EA JUMP JUMPDEST JUMPDEST SWAP3 SWAP2 POP POP JUMP JUMPDEST PUSH0 PUSH0 PUSH2 0x140 DUP4 DUP6 SUB SLT ISZERO PUSH2 0x229B JUMPI PUSH2 0x229A PUSH2 0x20E6 JUMP JUMPDEST JUMPDEST PUSH0 PUSH2 0x22A8 DUP6 DUP3 DUP7 ADD PUSH2 0x2263 JUMP JUMPDEST SWAP3 POP POP PUSH1 0x80 PUSH2 0x22B9 DUP6 DUP3 DUP7 ADD PUSH2 0x2202 JUMP JUMPDEST SWAP2 POP POP SWAP3 POP SWAP3 SWAP1 POP JUMP JUMPDEST PUSH32 0x4E487B7100000000000000000000000000000000000000000000000000000000 PUSH0 MSTORE PUSH1 0x32 PUSH1 0x4 MSTORE PUSH1 0x24 PUSH0 REVERT JUMPDEST PUSH32 0x4E487B7100000000000000000000000000000000000000000000000000000000 PUSH0 MSTORE PUSH1 0x12 PUSH1 0x4 MSTORE PUSH1 0x24 PUSH0 REVERT JUMPDEST PUSH32 0x4E487B7100000000000000000000000000000000000000000000000000000000 PUSH0 MSTORE PUSH1 0x11 PUSH1 0x4 MSTORE PUSH1 0x24 PUSH0 REVERT JUMPDEST PUSH0 PUSH2 0x2354 DUP3 PUSH2 0x2158 JUMP JUMPDEST SWAP2 POP PUSH2 0x235F DUP4 PUSH2 0x2158 JUMP JUMPDEST SWAP3 POP DUP3 DUP3 SUB SWAP1 POP DUP2 DUP2 GT ISZERO PUSH2 0x2377 JUMPI PUSH2 0x2376 PUSH2 0x231D JUMP JUMPDEST JUMPDEST SWAP3 SWAP2 POP POP JUMP INVALID LOG2 PUSH5 0x6970667358 0x22 SLT KECCAK256 PC EXTCODESIZE PUSH12 0x8BC47AB0A690F6B1C2774605 PUSH12 0x5451C0151BA586F20D5D2D09 0x4F SGT 0xCE XOR PUSH5 0x736F6C6343 STOP ADDMOD 0x1F STOP CALLER "
				},
				"gasEstimates": {
					"creation": {
						"codeDepositCost": "1827800",
						"executionCost": "1924",
						"totalCost": "1829724"
					},
					"external": {
						"compressProof(uint256[8])": "infinite",
						"verifyCompressedProof(uint256[4],uint256[6])": "infinite",
						"verifyProof(uint256[8],uint256[6])": "infinite"
					},
					"internal": {
						"compress_g1(uint256,uint256)": "infinite",
						"compress_g2(uint256,uint256,uint256,uint256)": "infinite",
						"decompress_g1(uint256)": "infinite",
						"decompress_g2(uint256,uint256)": "infinite",
						"exp(uint256,uint256)": "infinite",
						"invert_Fp(uint256)": "infinite",
						"isSquare_Fp(uint256)": "infinite",
						"negate(uint256)": "83",
						"publicInputMSM(uint256[6] calldata)": "infinite",
						"sqrt_Fp(uint256)": "infinite",
						"sqrt_Fp2(uint256,uint256,bool)": "infinite"
					}
				},
				"methodIdentifiers": {
					"compressProof(uint256[8])": "44f63692",
					"verifyCompressedProof(uint256[4],uint256[6])": "f7169189",
					"verifyProof(uint256[8],uint256[6])": "9cb28658"
				}
			},
			"storageLayout": {
				"storage": [],
				"types": null
			},
			"userdoc": {
				"errors": {
					"ProofInvalid()": [
						{
							"notice": "The proof is invalid."
						}
					],
					"PublicInputNotInField()": [
						{
							"notice": "Some of the provided public input values are larger than the field modulus."
						}
					]
				},
				"kind": "user",
				"methods": {
					"compressProof(uint256[8])": {
						"notice": "Compress a proof.Will revert with InvalidProof if the curve points are invalid, but does not verify the proof itself."
					},
					"verifyCompressedProof(uint256[4],uint256[6])": {
						"notice": "Verify a Groth16 proof with compressed points.Reverts with InvalidProof if the proof is invalid or with PublicInputNotInField the public input is not reduced.There is no return value. If the function does not revert, the proof was successfully verified."
					},
					"verifyProof(uint256[8],uint256[6])": {
						"notice": "Verify an uncompressed Groth16 proof.Reverts with InvalidProof if the proof is invalid or with PublicInputNotInField the public input is not reduced.There is no return value. If the function does not revert, the proof was successfully verified."
					}
				},
				"notice": "Supports verifying Groth16 proofs. Proofs can be in uncompressed (256 bytes) and compressed (128 bytes) format. A view function is provided to compress proofs.See <https://2π.com/23/bn254-compression> for further explanation.",
				"version": 1
			}
		}
	}
}