{
	"Evm/core/variables.sol": {
		"QiaraVariables": {
			"abi": [
				{
					"inputs": [],
					"stateMutability": "nonpayable",
					"type": "constructor"
				},
				{
					"anonymous": false,
					"inputs": [
						{
							"indexed": true,
							"internalType": "address",
							"name": "newAddress",
							"type": "address"
						}
					],
					"name": "AuthorizedContractUpdated",
					"type": "event"
				},
				{
					"anonymous": false,
					"inputs": [
						{
							"indexed": true,
							"internalType": "address",
							"name": "newManager",
							"type": "address"
						}
					],
					"name": "EpochManagerUpdated",
					"type": "event"
				},
				{
					"anonymous": false,
					"inputs": [
						{
							"indexed": true,
							"internalType": "string",
							"name": "header",
							"type": "string"
						},
						{
							"indexed": true,
							"internalType": "string",
							"name": "name",
							"type": "string"
						},
						{
							"indexed": false,
							"internalType": "uint256",
							"name": "epoch",
							"type": "uint256"
						}
					],
					"name": "VariableQueued",
					"type": "event"
				},
				{
					"anonymous": false,
					"inputs": [
						{
							"indexed": true,
							"internalType": "uint256",
							"name": "epoch",
							"type": "uint256"
						},
						{
							"indexed": false,
							"internalType": "uint256",
							"name": "countMoved",
							"type": "uint256"
						},
						{
							"indexed": false,
							"internalType": "uint256",
							"name": "newRoot",
							"type": "uint256"
						}
					],
					"name": "VariablesFinalized",
					"type": "event"
				},
				{
					"inputs": [],
					"name": "activeRoot",
					"outputs": [
						{
							"internalType": "uint256",
							"name": "",
							"type": "uint256"
						}
					],
					"stateMutability": "view",
					"type": "function"
				},
				{
					"inputs": [
						{
							"internalType": "string",
							"name": "header",
							"type": "string"
						},
						{
							"internalType": "string",
							"name": "name",
							"type": "string"
						},
						{
							"internalType": "bytes",
							"name": "data",
							"type": "bytes"
						}
					],
					"name": "addPendingVariable",
					"outputs": [],
					"stateMutability": "nonpayable",
					"type": "function"
				},
				{
					"inputs": [],
					"name": "authorizedContract",
					"outputs": [
						{
							"internalType": "address",
							"name": "",
							"type": "address"
						}
					],
					"stateMutability": "view",
					"type": "function"
				},
				{
					"inputs": [],
					"name": "epochManager",
					"outputs": [
						{
							"internalType": "contract IEpochManager",
							"name": "",
							"type": "address"
						}
					],
					"stateMutability": "view",
					"type": "function"
				},
				{
					"inputs": [
						{
							"internalType": "string",
							"name": "header",
							"type": "string"
						},
						{
							"internalType": "string",
							"name": "name",
							"type": "string"
						}
					],
					"name": "getActiveVariable",
					"outputs": [
						{
							"internalType": "bytes",
							"name": "",
							"type": "bytes"
						}
					],
					"stateMutability": "view",
					"type": "function"
				},
				{
					"inputs": [],
					"name": "getPendingCount",
					"outputs": [
						{
							"internalType": "uint256",
							"name": "",
							"type": "uint256"
						}
					],
					"stateMutability": "view",
					"type": "function"
				},
				{
					"inputs": [],
					"name": "lastProcessedEpoch",
					"outputs": [
						{
							"internalType": "uint256",
							"name": "",
							"type": "uint256"
						}
					],
					"stateMutability": "view",
					"type": "function"
				},
				{
					"inputs": [],
					"name": "owner",
					"outputs": [
						{
							"internalType": "address",
							"name": "",
							"type": "address"
						}
					],
					"stateMutability": "view",
					"type": "function"
				},
				{
					"inputs": [],
					"name": "pendingRoot",
					"outputs": [
						{
							"internalType": "uint256",
							"name": "",
							"type": "uint256"
						}
					],
					"stateMutability": "view",
					"type": "function"
				},
				{
					"inputs": [
						{
							"internalType": "uint256",
							"name": "",
							"type": "uint256"
						}
					],
					"name": "pendingVariables",
					"outputs": [
						{
							"internalType": "string",
							"name": "header",
							"type": "string"
						},
						{
							"internalType": "string",
							"name": "name",
							"type": "string"
						},
						{
							"internalType": "bytes",
							"name": "data",
							"type": "bytes"
						}
					],
					"stateMutability": "view",
					"type": "function"
				},
				{
					"inputs": [
						{
							"internalType": "string",
							"name": "header",
							"type": "string"
						},
						{
							"internalType": "string",
							"name": "name",
							"type": "string"
						},
						{
							"internalType": "bytes",
							"name": "data",
							"type": "bytes"
						}
					],
					"name": "setActiveVariableDirect",
					"outputs": [],
					"stateMutability": "nonpayable",
					"type": "function"
				},
				{
					"inputs": [
						{
							"internalType": "address",
							"name": "_authAddress",
							"type": "address"
						}
					],
					"name": "setAuthorizedContract",
					"outputs": [],
					"stateMutability": "nonpayable",
					"type": "function"
				},
				{
					"inputs": [
						{
							"internalType": "address",
							"name": "_epochManager",
							"type": "address"
						}
					],
					"name": "setEpochManager",
					"outputs": [],
					"stateMutability": "nonpayable",
					"type": "function"
				}
			],
			"devdoc": {
				"kind": "dev",
				"methods": {},
				"version": 1
			},
			"evm": {
				"assembly": "    /* \"Evm/core/variables.sol\":158:3691  contract QiaraVariables {... */\n  mstore(0x40, 0x80)\n    /* \"Evm/core/variables.sol\":1143:1194  constructor() {... */\n  callvalue\n  dup1\n  iszero\n  tag_1\n  jumpi\n  revert(0x00, 0x00)\ntag_1:\n  pop\n    /* \"Evm/core/variables.sol\":1176:1186  msg.sender */\n  caller\n    /* \"Evm/core/variables.sol\":1168:1173  owner */\n  0x05\n  0x00\n    /* \"Evm/core/variables.sol\":1168:1186  owner = msg.sender */\n  0x0100\n  exp\n  dup2\n  sload\n  dup2\n  0xffffffffffffffffffffffffffffffffffffffff\n  mul\n  not\n  and\n  swap1\n  dup4\n  0xffffffffffffffffffffffffffffffffffffffff\n  and\n  mul\n  or\n  swap1\n  sstore\n  pop\n    /* \"Evm/core/variables.sol\":158:3691  contract QiaraVariables {... */\n  dataSize(sub_0)\n  dup1\n  dataOffset(sub_0)\n  0x00\n  codecopy\n  0x00\n  return\nstop\n\nsub_0: assembly {\n        /* \"Evm/core/variables.sol\":158:3691  contract QiaraVariables {... */\n      mstore(0x40, 0x80)\n      callvalue\n      dup1\n      iszero\n      tag_1\n      jumpi\n      revert(0x00, 0x00)\n    tag_1:\n      pop\n      jumpi(tag_2, lt(calldatasize, 0x04))\n      shr(0xe0, calldataload(0x00))\n      dup1\n      0xa6591cdf\n      gt\n      tag_16\n      jumpi\n      dup1\n      0xd4d59edb\n      gt\n      tag_17\n      jumpi\n      dup1\n      0xd4d59edb\n      eq\n      tag_12\n      jumpi\n      dup1\n      0xd795ede1\n      eq\n      tag_13\n      jumpi\n      dup1\n      0xe2d2bfe3\n      eq\n      tag_14\n      jumpi\n      dup1\n      0xee6713df\n      eq\n      tag_15\n      jumpi\n      jump(tag_2)\n    tag_17:\n      dup1\n      0xa6591cdf\n      eq\n      tag_9\n      jumpi\n      dup1\n      0xa6ee9eb1\n      eq\n      tag_10\n      jumpi\n      dup1\n      0xabb2efdf\n      eq\n      tag_11\n      jumpi\n      jump(tag_2)\n    tag_16:\n      dup1\n      0x16f1adc1\n      eq\n      tag_3\n      jumpi\n      dup1\n      0x2e057b9b\n      eq\n      tag_4\n      jumpi\n      dup1\n      0x3b6556bf\n      eq\n      tag_5\n      jumpi\n      dup1\n      0x750588cf\n      eq\n      tag_6\n      jumpi\n      dup1\n      0x8da5cb5b\n      eq\n      tag_7\n      jumpi\n      dup1\n      0x9aad69e7\n      eq\n      tag_8\n      jumpi\n    tag_2:\n      revert(0x00, 0x00)\n        /* \"Evm/core/variables.sol\":3413:3574  function getActiveVariable(string calldata header, string calldata name) external view returns (bytes memory) {... */\n    tag_3:\n      tag_18\n      0x04\n      dup1\n      calldatasize\n      sub\n      dup2\n      add\n      swap1\n      tag_19\n      swap2\n      swap1\n      tag_20\n      jump\t// in\n    tag_19:\n      tag_21\n      jump\t// in\n    tag_18:\n      mload(0x40)\n      tag_22\n      swap2\n      swap1\n      tag_23\n      jump\t// in\n    tag_22:\n      mload(0x40)\n      dup1\n      swap2\n      sub\n      swap1\n      return\n        /* \"Evm/core/variables.sol\":1953:2391  function addPendingVariable(string calldata header, string calldata name, bytes calldata data) external onlyAuthorized {... */\n    tag_4:\n      tag_24\n      0x04\n      dup1\n      calldatasize\n      sub\n      dup2\n      add\n      swap1\n      tag_25\n      swap2\n      swap1\n      tag_26\n      jump\t// in\n    tag_25:\n      tag_27\n      jump\t// in\n    tag_24:\n      stop\n        /* \"Evm/core/variables.sol\":697:736  VariableEntry[] public pendingVariables */\n    tag_5:\n      tag_28\n      0x04\n      dup1\n      calldatasize\n      sub\n      dup2\n      add\n      swap1\n      tag_29\n      swap2\n      swap1\n      tag_30\n      jump\t// in\n    tag_29:\n      tag_31\n      jump\t// in\n    tag_28:\n      mload(0x40)\n      tag_32\n      swap4\n      swap3\n      swap2\n      swap1\n      tag_33\n      jump\t// in\n    tag_32:\n      mload(0x40)\n      dup1\n      swap2\n      sub\n      swap1\n      return\n        /* \"Evm/core/variables.sol\":357:383  uint256 public pendingRoot */\n    tag_6:\n      tag_34\n      tag_35\n      jump\t// in\n    tag_34:\n      mload(0x40)\n      tag_36\n      swap2\n      swap1\n      tag_37\n      jump\t// in\n    tag_36:\n      mload(0x40)\n      dup1\n      swap2\n      sub\n      swap1\n      return\n        /* \"Evm/core/variables.sol\":546:566  address public owner */\n    tag_7:\n      tag_38\n      tag_39\n      jump\t// in\n    tag_38:\n      mload(0x40)\n      tag_40\n      swap2\n      swap1\n      tag_41\n      jump\t// in\n    tag_40:\n      mload(0x40)\n      dup1\n      swap2\n      sub\n      swap1\n      return\n        /* \"Evm/core/variables.sol\":1464:1686  function setAuthorizedContract(address _authAddress) external {... */\n    tag_8:\n      tag_42\n      0x04\n      dup1\n      calldatasize\n      sub\n      dup2\n      add\n      swap1\n      tag_43\n      swap2\n      swap1\n      tag_44\n      jump\t// in\n    tag_43:\n      tag_45\n      jump\t// in\n    tag_42:\n      stop\n        /* \"Evm/core/variables.sol\":506:539  address public authorizedContract */\n    tag_9:\n      tag_46\n      tag_47\n      jump\t// in\n    tag_46:\n      mload(0x40)\n      tag_48\n      swap2\n      swap1\n      tag_41\n      jump\t// in\n    tag_48:\n      mload(0x40)\n      dup1\n      swap2\n      sub\n      swap1\n      return\n        /* \"Evm/core/variables.sol\":3215:3383  function setActiveVariableDirect(string calldata header,string calldata name,bytes calldata data) external onlyOwner {... */\n    tag_10:\n      tag_49\n      0x04\n      dup1\n      calldatasize\n      sub\n      dup2\n      add\n      swap1\n      tag_50\n      swap2\n      swap1\n      tag_26\n      jump\t// in\n    tag_50:\n      tag_51\n      jump\t// in\n    tag_49:\n      stop\n        /* \"Evm/core/variables.sol\":325:350  uint256 public activeRoot */\n    tag_11:\n      tag_52\n      tag_53\n      jump\t// in\n    tag_52:\n      mload(0x40)\n      tag_54\n      swap2\n      swap1\n      tag_37\n      jump\t// in\n    tag_54:\n      mload(0x40)\n      dup1\n      swap2\n      sub\n      swap1\n      return\n        /* \"Evm/core/variables.sol\":1234:1456  function setEpochManager(address _epochManager) external {... */\n    tag_12:\n      tag_55\n      0x04\n      dup1\n      calldatasize\n      sub\n      dup2\n      add\n      swap1\n      tag_56\n      swap2\n      swap1\n      tag_44\n      jump\t// in\n    tag_56:\n      tag_57\n      jump\t// in\n    tag_55:\n      stop\n        /* \"Evm/core/variables.sol\":3580:3688  function getPendingCount() external view returns (uint256) {... */\n    tag_13:\n      tag_58\n      tag_59\n      jump\t// in\n    tag_58:\n      mload(0x40)\n      tag_60\n      swap2\n      swap1\n      tag_37\n      jump\t// in\n    tag_60:\n      mload(0x40)\n      dup1\n      swap2\n      sub\n      swap1\n      return\n        /* \"Evm/core/variables.sol\":423:456  IEpochManager public epochManager */\n    tag_14:\n      tag_61\n      tag_62\n      jump\t// in\n    tag_61:\n      mload(0x40)\n      tag_63\n      swap2\n      swap1\n      tag_64\n      jump\t// in\n    tag_63:\n      mload(0x40)\n      dup1\n      swap2\n      sub\n      swap1\n      return\n        /* \"Evm/core/variables.sol\":463:496  uint256 public lastProcessedEpoch */\n    tag_15:\n      tag_65\n      tag_66\n      jump\t// in\n    tag_65:\n      mload(0x40)\n      tag_67\n      swap2\n      swap1\n      tag_37\n      jump\t// in\n    tag_67:\n      mload(0x40)\n      dup1\n      swap2\n      sub\n      swap1\n      return\n        /* \"Evm/core/variables.sol\":3413:3574  function getActiveVariable(string calldata header, string calldata name) external view returns (bytes memory) {... */\n    tag_21:\n        /* \"Evm/core/variables.sol\":3509:3521  bytes memory */\n      0x60\n        /* \"Evm/core/variables.sol\":3541:3552  _activeData */\n      0x07\n        /* \"Evm/core/variables.sol\":3553:3559  header */\n      dup6\n      dup6\n        /* \"Evm/core/variables.sol\":3541:3560  _activeData[header] */\n      mload(0x40)\n      tag_69\n      swap3\n      swap2\n      swap1\n      tag_70\n      jump\t// in\n    tag_69:\n      swap1\n      dup2\n      mstore\n      0x20\n      add\n      mload(0x40)\n      dup1\n      swap2\n      sub\n      swap1\n      keccak256\n        /* \"Evm/core/variables.sol\":3561:3565  name */\n      dup4\n      dup4\n        /* \"Evm/core/variables.sol\":3541:3566  _activeData[header][name] */\n      mload(0x40)\n      tag_71\n      swap3\n      swap2\n      swap1\n      tag_70\n      jump\t// in\n    tag_71:\n      swap1\n      dup2\n      mstore\n      0x20\n      add\n      mload(0x40)\n      dup1\n      swap2\n      sub\n      swap1\n      keccak256\n        /* \"Evm/core/variables.sol\":3534:3566  return _activeData[header][name] */\n      dup1\n      sload\n      tag_72\n      swap1\n      tag_73\n      jump\t// in\n    tag_72:\n      dup1\n      0x1f\n      add\n      0x20\n      dup1\n      swap2\n      div\n      mul\n      0x20\n      add\n      mload(0x40)\n      swap1\n      dup2\n      add\n      0x40\n      mstore\n      dup1\n      swap3\n      swap2\n      swap1\n      dup2\n      dup2\n      mstore\n      0x20\n      add\n      dup3\n      dup1\n      sload\n      tag_74\n      swap1\n      tag_73\n      jump\t// in\n    tag_74:\n      dup1\n      iszero\n      tag_75\n      jumpi\n      dup1\n      0x1f\n      lt\n      tag_76\n      jumpi\n      0x0100\n      dup1\n      dup4\n      sload\n      div\n      mul\n      dup4\n      mstore\n      swap2\n      0x20\n      add\n      swap2\n      jump(tag_75)\n    tag_76:\n      dup3\n      add\n      swap2\n      swap1\n      0x00\n      mstore\n      keccak256(0x00, 0x20)\n      swap1\n    tag_77:\n      dup2\n      sload\n      dup2\n      mstore\n      swap1\n      0x01\n      add\n      swap1\n      0x20\n      add\n      dup1\n      dup4\n      gt\n      tag_77\n      jumpi\n      dup3\n      swap1\n      sub\n      0x1f\n      and\n      dup3\n      add\n      swap2\n    tag_75:\n      pop\n      pop\n      pop\n      pop\n      pop\n      swap1\n      pop\n        /* \"Evm/core/variables.sol\":3413:3574  function getActiveVariable(string calldata header, string calldata name) external view returns (bytes memory) {... */\n      swap5\n      swap4\n      pop\n      pop\n      pop\n      pop\n      jump\t// out\n        /* \"Evm/core/variables.sol\":1953:2391  function addPendingVariable(string calldata header, string calldata name, bytes calldata data) external onlyAuthorized {... */\n    tag_27:\n        /* \"Evm/core/variables.sol\":1853:1871  authorizedContract */\n      0x04\n      0x00\n      swap1\n      sload\n      swap1\n      0x0100\n      exp\n      swap1\n      div\n      0xffffffffffffffffffffffffffffffffffffffff\n      and\n        /* \"Evm/core/variables.sol\":1839:1871  msg.sender == authorizedContract */\n      0xffffffffffffffffffffffffffffffffffffffff\n      and\n        /* \"Evm/core/variables.sol\":1839:1849  msg.sender */\n      caller\n        /* \"Evm/core/variables.sol\":1839:1871  msg.sender == authorizedContract */\n      0xffffffffffffffffffffffffffffffffffffffff\n      and\n      eq\n        /* \"Evm/core/variables.sol\":1831:1890  require(msg.sender == authorizedContract, \"Not authorized\") */\n      tag_79\n      jumpi\n      mload(0x40)\n      0x08c379a000000000000000000000000000000000000000000000000000000000\n      dup2\n      mstore\n      0x04\n      add\n      tag_80\n      swap1\n      tag_81\n      jump\t// in\n    tag_80:\n      mload(0x40)\n      dup1\n      swap2\n      sub\n      swap1\n      revert\n    tag_79:\n        /* \"Evm/core/variables.sol\":2220:2250  _checkAndHandleEpochRollover() */\n      tag_83\n        /* \"Evm/core/variables.sol\":2220:2248  _checkAndHandleEpochRollover */\n      tag_84\n        /* \"Evm/core/variables.sol\":2220:2250  _checkAndHandleEpochRollover() */\n      jump\t// in\n    tag_83:\n        /* \"Evm/core/variables.sol\":2263:2279  pendingVariables */\n      0x06\n        /* \"Evm/core/variables.sol\":2285:2318  VariableEntry(header, name, data) */\n      mload(0x40)\n      dup1\n      0x60\n      add\n      0x40\n      mstore\n      dup1\n        /* \"Evm/core/variables.sol\":2299:2305  header */\n      dup9\n      dup9\n        /* \"Evm/core/variables.sol\":2285:2318  VariableEntry(header, name, data) */\n      dup1\n      dup1\n      0x1f\n      add\n      0x20\n      dup1\n      swap2\n      div\n      mul\n      0x20\n      add\n      mload(0x40)\n      swap1\n      dup2\n      add\n      0x40\n      mstore\n      dup1\n      swap4\n      swap3\n      swap2\n      swap1\n      dup2\n      dup2\n      mstore\n      0x20\n      add\n      dup4\n      dup4\n      dup1\n      dup3\n      dup5\n      calldatacopy\n      0x00\n      dup2\n      dup5\n      add\n      mstore\n      not(0x1f)\n      0x1f\n      dup3\n      add\n      and\n      swap1\n      pop\n      dup1\n      dup4\n      add\n      swap3\n      pop\n      pop\n      pop\n      pop\n      pop\n      pop\n      pop\n      dup2\n      mstore\n      0x20\n      add\n        /* \"Evm/core/variables.sol\":2307:2311  name */\n      dup7\n      dup7\n        /* \"Evm/core/variables.sol\":2285:2318  VariableEntry(header, name, data) */\n      dup1\n      dup1\n      0x1f\n      add\n      0x20\n      dup1\n      swap2\n      div\n      mul\n      0x20\n      add\n      mload(0x40)\n      swap1\n      dup2\n      add\n      0x40\n      mstore\n      dup1\n      swap4\n      swap3\n      swap2\n      swap1\n      dup2\n      dup2\n      mstore\n      0x20\n      add\n      dup4\n      dup4\n      dup1\n      dup3\n      dup5\n      calldatacopy\n      0x00\n      dup2\n      dup5\n      add\n      mstore\n      not(0x1f)\n      0x1f\n      dup3\n      add\n      and\n      swap1\n      pop\n      dup1\n      dup4\n      add\n      swap3\n      pop\n      pop\n      pop\n      pop\n      pop\n      pop\n      pop\n      dup2\n      mstore\n      0x20\n      add\n        /* \"Evm/core/variables.sol\":2313:2317  data */\n      dup5\n      dup5\n        /* \"Evm/core/variables.sol\":2285:2318  VariableEntry(header, name, data) */\n      dup1\n      dup1\n      0x1f\n      add\n      0x20\n      dup1\n      swap2\n      div\n      mul\n      0x20\n      add\n      mload(0x40)\n      swap1\n      dup2\n      add\n      0x40\n      mstore\n      dup1\n      swap4\n      swap3\n      swap2\n      swap1\n      dup2\n      dup2\n      mstore\n      0x20\n      add\n      dup4\n      dup4\n      dup1\n      dup3\n      dup5\n      calldatacopy\n      0x00\n      dup2\n      dup5\n      add\n      mstore\n      not(0x1f)\n      0x1f\n      dup3\n      add\n      and\n      swap1\n      pop\n      dup1\n      dup4\n      add\n      swap3\n      pop\n      pop\n      pop\n      pop\n      pop\n      pop\n      pop\n      dup2\n      mstore\n      pop\n        /* \"Evm/core/variables.sol\":2263:2319  pendingVariables.push(VariableEntry(header, name, data)) */\n      swap1\n      dup1\n      0x01\n      dup2\n      sload\n      add\n      dup1\n      dup3\n      sstore\n      dup1\n      swap2\n      pop\n      pop\n      0x01\n      swap1\n      sub\n      swap1\n      0x00\n      mstore\n      keccak256(0x00, 0x20)\n      swap1\n      0x03\n      mul\n      add\n      0x00\n      swap1\n      swap2\n      swap1\n      swap2\n      swap1\n      swap2\n      pop\n      0x00\n      dup3\n      add\n      mload\n      dup2\n      0x00\n      add\n      swap1\n      dup2\n      tag_86\n      swap2\n      swap1\n      tag_87\n      jump\t// in\n    tag_86:\n      pop\n      0x20\n      dup3\n      add\n      mload\n      dup2\n      0x01\n      add\n      swap1\n      dup2\n      tag_88\n      swap2\n      swap1\n      tag_87\n      jump\t// in\n    tag_88:\n      pop\n      0x40\n      dup3\n      add\n      mload\n      dup2\n      0x02\n      add\n      swap1\n      dup2\n      tag_89\n      swap2\n      swap1\n      tag_90\n      jump\t// in\n    tag_89:\n      pop\n      pop\n      pop\n        /* \"Evm/core/variables.sol\":2358:2362  name */\n      dup4\n      dup4\n        /* \"Evm/core/variables.sol\":2335:2383  VariableQueued(header, name, lastProcessedEpoch) */\n      mload(0x40)\n      tag_91\n      swap3\n      swap2\n      swap1\n      tag_70\n      jump\t// in\n    tag_91:\n      mload(0x40)\n      dup1\n      swap2\n      sub\n      swap1\n      keccak256\n        /* \"Evm/core/variables.sol\":2350:2356  header */\n      dup7\n      dup7\n        /* \"Evm/core/variables.sol\":2335:2383  VariableQueued(header, name, lastProcessedEpoch) */\n      mload(0x40)\n      tag_92\n      swap3\n      swap2\n      swap1\n      tag_70\n      jump\t// in\n    tag_92:\n      mload(0x40)\n      dup1\n      swap2\n      sub\n      swap1\n      keccak256\n      0x1b9831f8fba460f180116967424398f8e8503bca4ff62445b6a6c5ea38d6ff57\n        /* \"Evm/core/variables.sol\":2364:2382  lastProcessedEpoch */\n      sload(0x03)\n        /* \"Evm/core/variables.sol\":2335:2383  VariableQueued(header, name, lastProcessedEpoch) */\n      mload(0x40)\n      tag_93\n      swap2\n      swap1\n      tag_37\n      jump\t// in\n    tag_93:\n      mload(0x40)\n      dup1\n      swap2\n      sub\n      swap1\n      log3\n        /* \"Evm/core/variables.sol\":1953:2391  function addPendingVariable(string calldata header, string calldata name, bytes calldata data) external onlyAuthorized {... */\n      pop\n      pop\n      pop\n      pop\n      pop\n      pop\n      jump\t// out\n        /* \"Evm/core/variables.sol\":697:736  VariableEntry[] public pendingVariables */\n    tag_31:\n      0x06\n      dup2\n      dup2\n      sload\n      dup2\n      lt\n      tag_94\n      jumpi\n      0x00\n      dup1\n      revert\n    tag_94:\n      swap1\n      0x00\n      mstore\n      keccak256(0x00, 0x20)\n      swap1\n      0x03\n      mul\n      add\n      0x00\n      swap2\n      pop\n      swap1\n      pop\n      dup1\n      0x00\n      add\n      dup1\n      sload\n      tag_96\n      swap1\n      tag_73\n      jump\t// in\n    tag_96:\n      dup1\n      0x1f\n      add\n      0x20\n      dup1\n      swap2\n      div\n      mul\n      0x20\n      add\n      mload(0x40)\n      swap1\n      dup2\n      add\n      0x40\n      mstore\n      dup1\n      swap3\n      swap2\n      swap1\n      dup2\n      dup2\n      mstore\n      0x20\n      add\n      dup3\n      dup1\n      sload\n      tag_97\n      swap1\n      tag_73\n      jump\t// in\n    tag_97:\n      dup1\n      iszero\n      tag_98\n      jumpi\n      dup1\n      0x1f\n      lt\n      tag_99\n      jumpi\n      0x0100\n      dup1\n      dup4\n      sload\n      div\n      mul\n      dup4\n      mstore\n      swap2\n      0x20\n      add\n      swap2\n      jump(tag_98)\n    tag_99:\n      dup3\n      add\n      swap2\n      swap1\n      0x00\n      mstore\n      keccak256(0x00, 0x20)\n      swap1\n    tag_100:\n      dup2\n      sload\n      dup2\n      mstore\n      swap1\n      0x01\n      add\n      swap1\n      0x20\n      add\n      dup1\n      dup4\n      gt\n      tag_100\n      jumpi\n      dup3\n      swap1\n      sub\n      0x1f\n      and\n      dup3\n      add\n      swap2\n    tag_98:\n      pop\n      pop\n      pop\n      pop\n      pop\n      swap1\n      dup1\n      0x01\n      add\n      dup1\n      sload\n      tag_101\n      swap1\n      tag_73\n      jump\t// in\n    tag_101:\n      dup1\n      0x1f\n      add\n      0x20\n      dup1\n      swap2\n      div\n      mul\n      0x20\n      add\n      mload(0x40)\n      swap1\n      dup2\n      add\n      0x40\n      mstore\n      dup1\n      swap3\n      swap2\n      swap1\n      dup2\n      dup2\n      mstore\n      0x20\n      add\n      dup3\n      dup1\n      sload\n      tag_102\n      swap1\n      tag_73\n      jump\t// in\n    tag_102:\n      dup1\n      iszero\n      tag_103\n      jumpi\n      dup1\n      0x1f\n      lt\n      tag_104\n      jumpi\n      0x0100\n      dup1\n      dup4\n      sload\n      div\n      mul\n      dup4\n      mstore\n      swap2\n      0x20\n      add\n      swap2\n      jump(tag_103)\n    tag_104:\n      dup3\n      add\n      swap2\n      swap1\n      0x00\n      mstore\n      keccak256(0x00, 0x20)\n      swap1\n    tag_105:\n      dup2\n      sload\n      dup2\n      mstore\n      swap1\n      0x01\n      add\n      swap1\n      0x20\n      add\n      dup1\n      dup4\n      gt\n      tag_105\n      jumpi\n      dup3\n      swap1\n      sub\n      0x1f\n      and\n      dup3\n      add\n      swap2\n    tag_103:\n      pop\n      pop\n      pop\n      pop\n      pop\n      swap1\n      dup1\n      0x02\n      add\n      dup1\n      sload\n      tag_106\n      swap1\n      tag_73\n      jump\t// in\n    tag_106:\n      dup1\n      0x1f\n      add\n      0x20\n      dup1\n      swap2\n      div\n      mul\n      0x20\n      add\n      mload(0x40)\n      swap1\n      dup2\n      add\n      0x40\n      mstore\n      dup1\n      swap3\n      swap2\n      swap1\n      dup2\n      dup2\n      mstore\n      0x20\n      add\n      dup3\n      dup1\n      sload\n      tag_107\n      swap1\n      tag_73\n      jump\t// in\n    tag_107:\n      dup1\n      iszero\n      tag_108\n      jumpi\n      dup1\n      0x1f\n      lt\n      tag_109\n      jumpi\n      0x0100\n      dup1\n      dup4\n      sload\n      div\n      mul\n      dup4\n      mstore\n      swap2\n      0x20\n      add\n      swap2\n      jump(tag_108)\n    tag_109:\n      dup3\n      add\n      swap2\n      swap1\n      0x00\n      mstore\n      keccak256(0x00, 0x20)\n      swap1\n    tag_110:\n      dup2\n      sload\n      dup2\n      mstore\n      swap1\n      0x01\n      add\n      swap1\n      0x20\n      add\n      dup1\n      dup4\n      gt\n      tag_110\n      jumpi\n      dup3\n      swap1\n      sub\n      0x1f\n      and\n      dup3\n      add\n      swap2\n    tag_108:\n      pop\n      pop\n      pop\n      pop\n      pop\n      swap1\n      pop\n      dup4\n      jump\t// out\n        /* \"Evm/core/variables.sol\":357:383  uint256 public pendingRoot */\n    tag_35:\n      sload(0x01)\n      dup2\n      jump\t// out\n        /* \"Evm/core/variables.sol\":546:566  address public owner */\n    tag_39:\n      0x05\n      0x00\n      swap1\n      sload\n      swap1\n      0x0100\n      exp\n      swap1\n      div\n      0xffffffffffffffffffffffffffffffffffffffff\n      and\n      dup2\n      jump\t// out\n        /* \"Evm/core/variables.sol\":1464:1686  function setAuthorizedContract(address _authAddress) external {... */\n    tag_45:\n        /* \"Evm/core/variables.sol\":1559:1564  owner */\n      0x05\n      0x00\n      swap1\n      sload\n      swap1\n      0x0100\n      exp\n      swap1\n      div\n      0xffffffffffffffffffffffffffffffffffffffff\n      and\n        /* \"Evm/core/variables.sol\":1545:1564  msg.sender == owner */\n      0xffffffffffffffffffffffffffffffffffffffff\n      and\n        /* \"Evm/core/variables.sol\":1545:1555  msg.sender */\n      caller\n        /* \"Evm/core/variables.sol\":1545:1564  msg.sender == owner */\n      0xffffffffffffffffffffffffffffffffffffffff\n      and\n      eq\n        /* \"Evm/core/variables.sol\":1537:1579  require(msg.sender == owner, \"Only owner\") */\n      tag_112\n      jumpi\n      mload(0x40)\n      0x08c379a000000000000000000000000000000000000000000000000000000000\n      dup2\n      mstore\n      0x04\n      add\n      tag_113\n      swap1\n      tag_114\n      jump\t// in\n    tag_113:\n      mload(0x40)\n      dup1\n      swap2\n      sub\n      swap1\n      revert\n    tag_112:\n        /* \"Evm/core/variables.sol\":1611:1623  _authAddress */\n      dup1\n        /* \"Evm/core/variables.sol\":1590:1608  authorizedContract */\n      0x04\n      0x00\n        /* \"Evm/core/variables.sol\":1590:1623  authorizedContract = _authAddress */\n      0x0100\n      exp\n      dup2\n      sload\n      dup2\n      0xffffffffffffffffffffffffffffffffffffffff\n      mul\n      not\n      and\n      swap1\n      dup4\n      0xffffffffffffffffffffffffffffffffffffffff\n      and\n      mul\n      or\n      swap1\n      sstore\n      pop\n        /* \"Evm/core/variables.sol\":1665:1677  _authAddress */\n      dup1\n        /* \"Evm/core/variables.sol\":1639:1678  AuthorizedContractUpdated(_authAddress) */\n      0xffffffffffffffffffffffffffffffffffffffff\n      and\n      0x2e8b6f15ca325edad1931b418450cd194daf93e7f40fe4a48d9b1b4bf2a8f069\n      mload(0x40)\n      mload(0x40)\n      dup1\n      swap2\n      sub\n      swap1\n      log2\n        /* \"Evm/core/variables.sol\":1464:1686  function setAuthorizedContract(address _authAddress) external {... */\n      pop\n      jump\t// out\n        /* \"Evm/core/variables.sol\":506:539  address public authorizedContract */\n    tag_47:\n      0x04\n      0x00\n      swap1\n      sload\n      swap1\n      0x0100\n      exp\n      swap1\n      div\n      0xffffffffffffffffffffffffffffffffffffffff\n      and\n      dup2\n      jump\t// out\n        /* \"Evm/core/variables.sol\":3215:3383  function setActiveVariableDirect(string calldata header,string calldata name,bytes calldata data) external onlyOwner {... */\n    tag_51:\n        /* \"Evm/core/variables.sol\":1748:1753  owner */\n      0x05\n      0x00\n      swap1\n      sload\n      swap1\n      0x0100\n      exp\n      swap1\n      div\n      0xffffffffffffffffffffffffffffffffffffffff\n      and\n        /* \"Evm/core/variables.sol\":1734:1753  msg.sender == owner */\n      0xffffffffffffffffffffffffffffffffffffffff\n      and\n        /* \"Evm/core/variables.sol\":1734:1744  msg.sender */\n      caller\n        /* \"Evm/core/variables.sol\":1734:1753  msg.sender == owner */\n      0xffffffffffffffffffffffffffffffffffffffff\n      and\n      eq\n        /* \"Evm/core/variables.sol\":1726:1768  require(msg.sender == owner, \"Only owner\") */\n      tag_116\n      jumpi\n      mload(0x40)\n      0x08c379a000000000000000000000000000000000000000000000000000000000\n      dup2\n      mstore\n      0x04\n      add\n      tag_117\n      swap1\n      tag_114\n      jump\t// in\n    tag_117:\n      mload(0x40)\n      dup1\n      swap2\n      sub\n      swap1\n      revert\n    tag_116:\n        /* \"Evm/core/variables.sol\":3371:3375  data */\n      dup2\n      dup2\n        /* \"Evm/core/variables.sol\":3343:3354  _activeData */\n      0x07\n        /* \"Evm/core/variables.sol\":3355:3361  header */\n      dup9\n      dup9\n        /* \"Evm/core/variables.sol\":3343:3362  _activeData[header] */\n      mload(0x40)\n      tag_119\n      swap3\n      swap2\n      swap1\n      tag_70\n      jump\t// in\n    tag_119:\n      swap1\n      dup2\n      mstore\n      0x20\n      add\n      mload(0x40)\n      dup1\n      swap2\n      sub\n      swap1\n      keccak256\n        /* \"Evm/core/variables.sol\":3363:3367  name */\n      dup7\n      dup7\n        /* \"Evm/core/variables.sol\":3343:3368  _activeData[header][name] */\n      mload(0x40)\n      tag_120\n      swap3\n      swap2\n      swap1\n      tag_70\n      jump\t// in\n    tag_120:\n      swap1\n      dup2\n      mstore\n      0x20\n      add\n      mload(0x40)\n      dup1\n      swap2\n      sub\n      swap1\n      keccak256\n        /* \"Evm/core/variables.sol\":3343:3375  _activeData[header][name] = data */\n      swap2\n      dup3\n      tag_121\n      swap3\n      swap2\n      swap1\n      tag_122\n      jump\t// in\n    tag_121:\n      pop\n        /* \"Evm/core/variables.sol\":3215:3383  function setActiveVariableDirect(string calldata header,string calldata name,bytes calldata data) external onlyOwner {... */\n      pop\n      pop\n      pop\n      pop\n      pop\n      pop\n      jump\t// out\n        /* \"Evm/core/variables.sol\":325:350  uint256 public activeRoot */\n    tag_53:\n      sload(0x00)\n      dup2\n      jump\t// out\n        /* \"Evm/core/variables.sol\":1234:1456  function setEpochManager(address _epochManager) external {... */\n    tag_57:\n        /* \"Evm/core/variables.sol\":1324:1329  owner */\n      0x05\n      0x00\n      swap1\n      sload\n      swap1\n      0x0100\n      exp\n      swap1\n      div\n      0xffffffffffffffffffffffffffffffffffffffff\n      and\n        /* \"Evm/core/variables.sol\":1310:1329  msg.sender == owner */\n      0xffffffffffffffffffffffffffffffffffffffff\n      and\n        /* \"Evm/core/variables.sol\":1310:1320  msg.sender */\n      caller\n        /* \"Evm/core/variables.sol\":1310:1329  msg.sender == owner */\n      0xffffffffffffffffffffffffffffffffffffffff\n      and\n      eq\n        /* \"Evm/core/variables.sol\":1302:1344  require(msg.sender == owner, \"Only owner\") */\n      tag_124\n      jumpi\n      mload(0x40)\n      0x08c379a000000000000000000000000000000000000000000000000000000000\n      dup2\n      mstore\n      0x04\n      add\n      tag_125\n      swap1\n      tag_114\n      jump\t// in\n    tag_125:\n      mload(0x40)\n      dup1\n      swap2\n      sub\n      swap1\n      revert\n    tag_124:\n        /* \"Evm/core/variables.sol\":1384:1397  _epochManager */\n      dup1\n        /* \"Evm/core/variables.sol\":1355:1367  epochManager */\n      0x02\n      0x00\n        /* \"Evm/core/variables.sol\":1355:1398  epochManager = IEpochManager(_epochManager) */\n      0x0100\n      exp\n      dup2\n      sload\n      dup2\n      0xffffffffffffffffffffffffffffffffffffffff\n      mul\n      not\n      and\n      swap1\n      dup4\n      0xffffffffffffffffffffffffffffffffffffffff\n      and\n      mul\n      or\n      swap1\n      sstore\n      pop\n        /* \"Evm/core/variables.sol\":1434:1447  _epochManager */\n      dup1\n        /* \"Evm/core/variables.sol\":1414:1448  EpochManagerUpdated(_epochManager) */\n      0xffffffffffffffffffffffffffffffffffffffff\n      and\n      0x4b9d66d8e64dff6d9d2728f9a38da9739d3cfdbe676fde05564aae22f8508465\n      mload(0x40)\n      mload(0x40)\n      dup1\n      swap2\n      sub\n      swap1\n      log2\n        /* \"Evm/core/variables.sol\":1234:1456  function setEpochManager(address _epochManager) external {... */\n      pop\n      jump\t// out\n        /* \"Evm/core/variables.sol\":3580:3688  function getPendingCount() external view returns (uint256) {... */\n    tag_59:\n        /* \"Evm/core/variables.sol\":3630:3637  uint256 */\n      0x00\n        /* \"Evm/core/variables.sol\":3657:3673  pendingVariables */\n      0x06\n        /* \"Evm/core/variables.sol\":3657:3680  pendingVariables.length */\n      dup1\n      sload\n      swap1\n      pop\n        /* \"Evm/core/variables.sol\":3650:3680  return pendingVariables.length */\n      swap1\n      pop\n        /* \"Evm/core/variables.sol\":3580:3688  function getPendingCount() external view returns (uint256) {... */\n      swap1\n      jump\t// out\n        /* \"Evm/core/variables.sol\":423:456  IEpochManager public epochManager */\n    tag_62:\n      0x02\n      0x00\n      swap1\n      sload\n      swap1\n      0x0100\n      exp\n      swap1\n      div\n      0xffffffffffffffffffffffffffffffffffffffff\n      and\n      dup2\n      jump\t// out\n        /* \"Evm/core/variables.sol\":463:496  uint256 public lastProcessedEpoch */\n    tag_66:\n      sload(0x03)\n      dup2\n      jump\t// out\n        /* \"Evm/core/variables.sol\":2399:3176  function _checkAndHandleEpochRollover() internal {... */\n    tag_84:\n        /* \"Evm/core/variables.sol\":2459:2479  uint256 currentEpoch */\n      0x00\n        /* \"Evm/core/variables.sol\":2482:2494  epochManager */\n      0x02\n      0x00\n      swap1\n      sload\n      swap1\n      0x0100\n      exp\n      swap1\n      div\n      0xffffffffffffffffffffffffffffffffffffffff\n      and\n        /* \"Evm/core/variables.sol\":2482:2510  epochManager.getCurrentEpoch */\n      0xffffffffffffffffffffffffffffffffffffffff\n      and\n      0xb97dd9e2\n        /* \"Evm/core/variables.sol\":2482:2512  epochManager.getCurrentEpoch() */\n      mload(0x40)\n      dup2\n      0xffffffff\n      and\n      0xe0\n      shl\n      dup2\n      mstore\n      0x04\n      add\n      0x20\n      mload(0x40)\n      dup1\n      dup4\n      sub\n      dup2\n      dup7\n      gas\n      staticcall\n      iszero\n      dup1\n      iszero\n      tag_129\n      jumpi\n      returndatacopy(0x00, 0x00, returndatasize)\n      revert(0x00, returndatasize)\n    tag_129:\n      pop\n      pop\n      pop\n      pop\n      mload(0x40)\n      returndatasize\n      not(0x1f)\n      0x1f\n      dup3\n      add\n      and\n      dup3\n      add\n      dup1\n      0x40\n      mstore\n      pop\n      dup2\n      add\n      swap1\n      tag_130\n      swap2\n      swap1\n      tag_131\n      jump\t// in\n    tag_130:\n        /* \"Evm/core/variables.sol\":2459:2512  uint256 currentEpoch = epochManager.getCurrentEpoch() */\n      swap1\n      pop\n        /* \"Evm/core/variables.sol\":2552:2570  lastProcessedEpoch */\n      sload(0x03)\n        /* \"Evm/core/variables.sol\":2537:2549  currentEpoch */\n      dup2\n        /* \"Evm/core/variables.sol\":2537:2570  currentEpoch > lastProcessedEpoch */\n      gt\n        /* \"Evm/core/variables.sol\":2533:3169  if (currentEpoch > lastProcessedEpoch) {... */\n      iszero\n      tag_132\n      jumpi\n        /* \"Evm/core/variables.sol\":2729:2735  uint i */\n      0x00\n        /* \"Evm/core/variables.sol\":2738:2739  0 */\n      0x00\n        /* \"Evm/core/variables.sol\":2729:2739  uint i = 0 */\n      swap1\n      pop\n        /* \"Evm/core/variables.sol\":2724:2927  for (uint i = 0; i < pendingVariables.length; i++) {... */\n    tag_133:\n        /* \"Evm/core/variables.sol\":2745:2761  pendingVariables */\n      0x06\n        /* \"Evm/core/variables.sol\":2745:2768  pendingVariables.length */\n      dup1\n      sload\n      swap1\n      pop\n        /* \"Evm/core/variables.sol\":2741:2742  i */\n      dup2\n        /* \"Evm/core/variables.sol\":2741:2768  i < pendingVariables.length */\n      lt\n        /* \"Evm/core/variables.sol\":2724:2927  for (uint i = 0; i < pendingVariables.length; i++) {... */\n      iszero\n      tag_134\n      jumpi\n        /* \"Evm/core/variables.sol\":2794:2820  VariableEntry memory entry */\n      0x00\n        /* \"Evm/core/variables.sol\":2823:2839  pendingVariables */\n      0x06\n        /* \"Evm/core/variables.sol\":2840:2841  i */\n      dup3\n        /* \"Evm/core/variables.sol\":2823:2842  pendingVariables[i] */\n      dup2\n      sload\n      dup2\n      lt\n      tag_136\n      jumpi\n      tag_137\n      tag_138\n      jump\t// in\n    tag_137:\n    tag_136:\n      swap1\n      0x00\n      mstore\n      keccak256(0x00, 0x20)\n      swap1\n      0x03\n      mul\n      add\n        /* \"Evm/core/variables.sol\":2794:2842  VariableEntry memory entry = pendingVariables[i] */\n      mload(0x40)\n      dup1\n      0x60\n      add\n      0x40\n      mstore\n      swap1\n      dup2\n      0x00\n      dup3\n      add\n      dup1\n      sload\n      tag_140\n      swap1\n      tag_73\n      jump\t// in\n    tag_140:\n      dup1\n      0x1f\n      add\n      0x20\n      dup1\n      swap2\n      div\n      mul\n      0x20\n      add\n      mload(0x40)\n      swap1\n      dup2\n      add\n      0x40\n      mstore\n      dup1\n      swap3\n      swap2\n      swap1\n      dup2\n      dup2\n      mstore\n      0x20\n      add\n      dup3\n      dup1\n      sload\n      tag_141\n      swap1\n      tag_73\n      jump\t// in\n    tag_141:\n      dup1\n      iszero\n      tag_142\n      jumpi\n      dup1\n      0x1f\n      lt\n      tag_143\n      jumpi\n      0x0100\n      dup1\n      dup4\n      sload\n      div\n      mul\n      dup4\n      mstore\n      swap2\n      0x20\n      add\n      swap2\n      jump(tag_142)\n    tag_143:\n      dup3\n      add\n      swap2\n      swap1\n      0x00\n      mstore\n      keccak256(0x00, 0x20)\n      swap1\n    tag_144:\n      dup2\n      sload\n      dup2\n      mstore\n      swap1\n      0x01\n      add\n      swap1\n      0x20\n      add\n      dup1\n      dup4\n      gt\n      tag_144\n      jumpi\n      dup3\n      swap1\n      sub\n      0x1f\n      and\n      dup3\n      add\n      swap2\n    tag_142:\n      pop\n      pop\n      pop\n      pop\n      pop\n      dup2\n      mstore\n      0x20\n      add\n      0x01\n      dup3\n      add\n      dup1\n      sload\n      tag_145\n      swap1\n      tag_73\n      jump\t// in\n    tag_145:\n      dup1\n      0x1f\n      add\n      0x20\n      dup1\n      swap2\n      div\n      mul\n      0x20\n      add\n      mload(0x40)\n      swap1\n      dup2\n      add\n      0x40\n      mstore\n      dup1\n      swap3\n      swap2\n      swap1\n      dup2\n      dup2\n      mstore\n      0x20\n      add\n      dup3\n      dup1\n      sload\n      tag_146\n      swap1\n      tag_73\n      jump\t// in\n    tag_146:\n      dup1\n      iszero\n      tag_147\n      jumpi\n      dup1\n      0x1f\n      lt\n      tag_148\n      jumpi\n      0x0100\n      dup1\n      dup4\n      sload\n      div\n      mul\n      dup4\n      mstore\n      swap2\n      0x20\n      add\n      swap2\n      jump(tag_147)\n    tag_148:\n      dup3\n      add\n      swap2\n      swap1\n      0x00\n      mstore\n      keccak256(0x00, 0x20)\n      swap1\n    tag_149:\n      dup2\n      sload\n      dup2\n      mstore\n      swap1\n      0x01\n      add\n      swap1\n      0x20\n      add\n      dup1\n      dup4\n      gt\n      tag_149\n      jumpi\n      dup3\n      swap1\n      sub\n      0x1f\n      and\n      dup3\n      add\n      swap2\n    tag_147:\n      pop\n      pop\n      pop\n      pop\n      pop\n      dup2\n      mstore\n      0x20\n      add\n      0x02\n      dup3\n      add\n      dup1\n      sload\n      tag_150\n      swap1\n      tag_73\n      jump\t// in\n    tag_150:\n      dup1\n      0x1f\n      add\n      0x20\n      dup1\n      swap2\n      div\n      mul\n      0x20\n      add\n      mload(0x40)\n      swap1\n      dup2\n      add\n      0x40\n      mstore\n      dup1\n      swap3\n      swap2\n      swap1\n      dup2\n      dup2\n      mstore\n      0x20\n      add\n      dup3\n      dup1\n      sload\n      tag_151\n      swap1\n      tag_73\n      jump\t// in\n    tag_151:\n      dup1\n      iszero\n      tag_152\n      jumpi\n      dup1\n      0x1f\n      lt\n      tag_153\n      jumpi\n      0x0100\n      dup1\n      dup4\n      sload\n      div\n      mul\n      dup4\n      mstore\n      swap2\n      0x20\n      add\n      swap2\n      jump(tag_152)\n    tag_153:\n      dup3\n      add\n      swap2\n      swap1\n      0x00\n      mstore\n      keccak256(0x00, 0x20)\n      swap1\n    tag_154:\n      dup2\n      sload\n      dup2\n      mstore\n      swap1\n      0x01\n      add\n      swap1\n      0x20\n      add\n      dup1\n      dup4\n      gt\n      tag_154\n      jumpi\n      dup3\n      swap1\n      sub\n      0x1f\n      and\n      dup3\n      add\n      swap2\n    tag_152:\n      pop\n      pop\n      pop\n      pop\n      pop\n      dup2\n      mstore\n      pop\n      pop\n      swap1\n      pop\n        /* \"Evm/core/variables.sol\":2901:2906  entry */\n      dup1\n        /* \"Evm/core/variables.sol\":2901:2911  entry.data */\n      0x40\n      add\n      mload\n        /* \"Evm/core/variables.sol\":2861:2872  _activeData */\n      0x07\n        /* \"Evm/core/variables.sol\":2873:2878  entry */\n      dup3\n        /* \"Evm/core/variables.sol\":2873:2885  entry.header */\n      0x00\n      add\n      mload\n        /* \"Evm/core/variables.sol\":2861:2886  _activeData[entry.header] */\n      mload(0x40)\n      tag_155\n      swap2\n      swap1\n      tag_156\n      jump\t// in\n    tag_155:\n      swap1\n      dup2\n      mstore\n      0x20\n      add\n      mload(0x40)\n      dup1\n      swap2\n      sub\n      swap1\n      keccak256\n        /* \"Evm/core/variables.sol\":2887:2892  entry */\n      dup3\n        /* \"Evm/core/variables.sol\":2887:2897  entry.name */\n      0x20\n      add\n      mload\n        /* \"Evm/core/variables.sol\":2861:2898  _activeData[entry.header][entry.name] */\n      mload(0x40)\n      tag_157\n      swap2\n      swap1\n      tag_156\n      jump\t// in\n    tag_157:\n      swap1\n      dup2\n      mstore\n      0x20\n      add\n      mload(0x40)\n      dup1\n      swap2\n      sub\n      swap1\n      keccak256\n        /* \"Evm/core/variables.sol\":2861:2911  _activeData[entry.header][entry.name] = entry.data */\n      swap1\n      dup2\n      tag_158\n      swap2\n      swap1\n      tag_90\n      jump\t// in\n    tag_158:\n      pop\n        /* \"Evm/core/variables.sol\":2775:2927  {... */\n      pop\n        /* \"Evm/core/variables.sol\":2770:2773  i++ */\n      dup1\n      dup1\n      0x01\n      add\n      swap2\n      pop\n      pop\n        /* \"Evm/core/variables.sol\":2724:2927  for (uint i = 0; i < pendingVariables.length; i++) {... */\n      jump(tag_133)\n    tag_134:\n      pop\n        /* \"Evm/core/variables.sol\":2955:2968  uint256 count */\n      0x00\n        /* \"Evm/core/variables.sol\":2971:2987  pendingVariables */\n      0x06\n        /* \"Evm/core/variables.sol\":2971:2994  pendingVariables.length */\n      dup1\n      sload\n      swap1\n      pop\n        /* \"Evm/core/variables.sol\":2955:2994  uint256 count = pendingVariables.length */\n      swap1\n      pop\n        /* \"Evm/core/variables.sol\":3016:3032  pendingVariables */\n      0x06\n      0x00\n        /* \"Evm/core/variables.sol\":3009:3032  delete pendingVariables */\n      tag_159\n      swap2\n      swap1\n      tag_160\n      jump\t// in\n    tag_159:\n        /* \"Evm/core/variables.sol\":3071:3089  lastProcessedEpoch */\n      sload(0x03)\n        /* \"Evm/core/variables.sol\":3052:3109  VariablesFinalized(lastProcessedEpoch, count, activeRoot) */\n      0x1081f92591666e5fff3d8fd275844896c7116c7d6b875c80d51b9beac7893a98\n        /* \"Evm/core/variables.sol\":3091:3096  count */\n      dup3\n        /* \"Evm/core/variables.sol\":3098:3108  activeRoot */\n      sload(0x00)\n        /* \"Evm/core/variables.sol\":3052:3109  VariablesFinalized(lastProcessedEpoch, count, activeRoot) */\n      mload(0x40)\n      tag_161\n      swap3\n      swap2\n      swap1\n      tag_162\n      jump\t// in\n    tag_161:\n      mload(0x40)\n      dup1\n      swap2\n      sub\n      swap1\n      log2\n        /* \"Evm/core/variables.sol\":3145:3157  currentEpoch */\n      dup2\n        /* \"Evm/core/variables.sol\":3124:3142  lastProcessedEpoch */\n      0x03\n        /* \"Evm/core/variables.sol\":3124:3157  lastProcessedEpoch = currentEpoch */\n      dup2\n      swap1\n      sstore\n      pop\n        /* \"Evm/core/variables.sol\":2572:3169  {... */\n      pop\n        /* \"Evm/core/variables.sol\":2533:3169  if (currentEpoch > lastProcessedEpoch) {... */\n    tag_132:\n        /* \"Evm/core/variables.sol\":2448:3176  {... */\n      pop\n        /* \"Evm/core/variables.sol\":2399:3176  function _checkAndHandleEpochRollover() internal {... */\n      jump\t// out\n    tag_160:\n      pop\n      dup1\n      sload\n      0x00\n      dup3\n      sstore\n      0x03\n      mul\n      swap1\n      0x00\n      mstore\n      keccak256(0x00, 0x20)\n      swap1\n      dup2\n      add\n      swap1\n      tag_164\n      swap2\n      swap1\n      tag_165\n      jump\t// in\n    tag_164:\n      pop\n      jump\t// out\n    tag_165:\n    tag_166:\n      dup1\n      dup3\n      gt\n      iszero\n      tag_167\n      jumpi\n      0x00\n      0x00\n      dup3\n      add\n      0x00\n      tag_168\n      swap2\n      swap1\n      tag_169\n      jump\t// in\n    tag_168:\n      0x01\n      dup3\n      add\n      0x00\n      tag_170\n      swap2\n      swap1\n      tag_169\n      jump\t// in\n    tag_170:\n      0x02\n      dup3\n      add\n      0x00\n      tag_171\n      swap2\n      swap1\n      tag_172\n      jump\t// in\n    tag_171:\n      pop\n      0x03\n      add\n      jump(tag_166)\n    tag_167:\n      pop\n      swap1\n      jump\t// out\n    tag_169:\n      pop\n      dup1\n      sload\n      tag_173\n      swap1\n      tag_73\n      jump\t// in\n    tag_173:\n      0x00\n      dup3\n      sstore\n      dup1\n      0x1f\n      lt\n      tag_175\n      jumpi\n      pop\n      jump(tag_174)\n    tag_175:\n      0x1f\n      add\n      0x20\n      swap1\n      div\n      swap1\n      0x00\n      mstore\n      keccak256(0x00, 0x20)\n      swap1\n      dup2\n      add\n      swap1\n      tag_176\n      swap2\n      swap1\n      tag_177\n      jump\t// in\n    tag_176:\n    tag_174:\n      pop\n      jump\t// out\n    tag_172:\n      pop\n      dup1\n      sload\n      tag_178\n      swap1\n      tag_73\n      jump\t// in\n    tag_178:\n      0x00\n      dup3\n      sstore\n      dup1\n      0x1f\n      lt\n      tag_180\n      jumpi\n      pop\n      jump(tag_179)\n    tag_180:\n      0x1f\n      add\n      0x20\n      swap1\n      div\n      swap1\n      0x00\n      mstore\n      keccak256(0x00, 0x20)\n      swap1\n      dup2\n      add\n      swap1\n      tag_181\n      swap2\n      swap1\n      tag_177\n      jump\t// in\n    tag_181:\n    tag_179:\n      pop\n      jump\t// out\n    tag_177:\n    tag_182:\n      dup1\n      dup3\n      gt\n      iszero\n      tag_183\n      jumpi\n      0x00\n      dup2\n      0x00\n      swap1\n      sstore\n      pop\n      0x01\n      add\n      jump(tag_182)\n    tag_183:\n      pop\n      swap1\n      jump\t// out\n        /* \"#utility.yul\":88:205   */\n    tag_185:\n        /* \"#utility.yul\":197:198   */\n      0x00\n        /* \"#utility.yul\":194:195   */\n      0x00\n        /* \"#utility.yul\":187:199   */\n      revert\n        /* \"#utility.yul\":211:328   */\n    tag_186:\n        /* \"#utility.yul\":320:321   */\n      0x00\n        /* \"#utility.yul\":317:318   */\n      0x00\n        /* \"#utility.yul\":310:322   */\n      revert\n        /* \"#utility.yul\":334:451   */\n    tag_187:\n        /* \"#utility.yul\":443:444   */\n      0x00\n        /* \"#utility.yul\":440:441   */\n      0x00\n        /* \"#utility.yul\":433:445   */\n      revert\n        /* \"#utility.yul\":457:574   */\n    tag_188:\n        /* \"#utility.yul\":566:567   */\n      0x00\n        /* \"#utility.yul\":563:564   */\n      0x00\n        /* \"#utility.yul\":556:568   */\n      revert\n        /* \"#utility.yul\":580:697   */\n    tag_189:\n        /* \"#utility.yul\":689:690   */\n      0x00\n        /* \"#utility.yul\":686:687   */\n      0x00\n        /* \"#utility.yul\":679:691   */\n      revert\n        /* \"#utility.yul\":717:1270   */\n    tag_190:\n        /* \"#utility.yul\":775:783   */\n      0x00\n        /* \"#utility.yul\":785:791   */\n      0x00\n        /* \"#utility.yul\":835:838   */\n      dup4\n        /* \"#utility.yul\":828:832   */\n      0x1f\n        /* \"#utility.yul\":820:826   */\n      dup5\n        /* \"#utility.yul\":816:833   */\n      add\n        /* \"#utility.yul\":812:839   */\n      slt\n        /* \"#utility.yul\":802:924   */\n      tag_250\n      jumpi\n        /* \"#utility.yul\":843:922   */\n      tag_251\n      tag_187\n      jump\t// in\n    tag_251:\n        /* \"#utility.yul\":802:924   */\n    tag_250:\n        /* \"#utility.yul\":956:962   */\n      dup3\n        /* \"#utility.yul\":943:963   */\n      calldataload\n        /* \"#utility.yul\":933:963   */\n      swap1\n      pop\n        /* \"#utility.yul\":986:1004   */\n      0xffffffffffffffff\n        /* \"#utility.yul\":978:984   */\n      dup2\n        /* \"#utility.yul\":975:1005   */\n      gt\n        /* \"#utility.yul\":972:1089   */\n      iszero\n      tag_252\n      jumpi\n        /* \"#utility.yul\":1008:1087   */\n      tag_253\n      tag_188\n      jump\t// in\n    tag_253:\n        /* \"#utility.yul\":972:1089   */\n    tag_252:\n        /* \"#utility.yul\":1122:1126   */\n      0x20\n        /* \"#utility.yul\":1114:1120   */\n      dup4\n        /* \"#utility.yul\":1110:1127   */\n      add\n        /* \"#utility.yul\":1098:1127   */\n      swap2\n      pop\n        /* \"#utility.yul\":1176:1179   */\n      dup4\n        /* \"#utility.yul\":1168:1172   */\n      0x01\n        /* \"#utility.yul\":1160:1166   */\n      dup3\n        /* \"#utility.yul\":1156:1173   */\n      mul\n        /* \"#utility.yul\":1146:1154   */\n      dup4\n        /* \"#utility.yul\":1142:1174   */\n      add\n        /* \"#utility.yul\":1139:1180   */\n      gt\n        /* \"#utility.yul\":1136:1264   */\n      iszero\n      tag_254\n      jumpi\n        /* \"#utility.yul\":1183:1262   */\n      tag_255\n      tag_189\n      jump\t// in\n    tag_255:\n        /* \"#utility.yul\":1136:1264   */\n    tag_254:\n        /* \"#utility.yul\":717:1270   */\n      swap3\n      pop\n      swap3\n      swap1\n      pop\n      jump\t// out\n        /* \"#utility.yul\":1276:2150   */\n    tag_20:\n        /* \"#utility.yul\":1368:1374   */\n      0x00\n        /* \"#utility.yul\":1376:1382   */\n      0x00\n        /* \"#utility.yul\":1384:1390   */\n      0x00\n        /* \"#utility.yul\":1392:1398   */\n      0x00\n        /* \"#utility.yul\":1441:1443   */\n      0x40\n        /* \"#utility.yul\":1429:1438   */\n      dup6\n        /* \"#utility.yul\":1420:1427   */\n      dup8\n        /* \"#utility.yul\":1416:1439   */\n      sub\n        /* \"#utility.yul\":1412:1444   */\n      slt\n        /* \"#utility.yul\":1409:1528   */\n      iszero\n      tag_257\n      jumpi\n        /* \"#utility.yul\":1447:1526   */\n      tag_258\n      tag_185\n      jump\t// in\n    tag_258:\n        /* \"#utility.yul\":1409:1528   */\n    tag_257:\n        /* \"#utility.yul\":1595:1596   */\n      0x00\n        /* \"#utility.yul\":1584:1593   */\n      dup6\n        /* \"#utility.yul\":1580:1597   */\n      add\n        /* \"#utility.yul\":1567:1598   */\n      calldataload\n        /* \"#utility.yul\":1625:1643   */\n      0xffffffffffffffff\n        /* \"#utility.yul\":1617:1623   */\n      dup2\n        /* \"#utility.yul\":1614:1644   */\n      gt\n        /* \"#utility.yul\":1611:1728   */\n      iszero\n      tag_259\n      jumpi\n        /* \"#utility.yul\":1647:1726   */\n      tag_260\n      tag_186\n      jump\t// in\n    tag_260:\n        /* \"#utility.yul\":1611:1728   */\n    tag_259:\n        /* \"#utility.yul\":1760:1825   */\n      tag_261\n        /* \"#utility.yul\":1817:1824   */\n      dup8\n        /* \"#utility.yul\":1808:1814   */\n      dup3\n        /* \"#utility.yul\":1797:1806   */\n      dup9\n        /* \"#utility.yul\":1793:1815   */\n      add\n        /* \"#utility.yul\":1760:1825   */\n      tag_190\n      jump\t// in\n    tag_261:\n        /* \"#utility.yul\":1742:1825   */\n      swap5\n      pop\n      swap5\n      pop\n        /* \"#utility.yul\":1538:1835   */\n      pop\n        /* \"#utility.yul\":1902:1904   */\n      0x20\n        /* \"#utility.yul\":1891:1900   */\n      dup6\n        /* \"#utility.yul\":1887:1905   */\n      add\n        /* \"#utility.yul\":1874:1906   */\n      calldataload\n        /* \"#utility.yul\":1933:1951   */\n      0xffffffffffffffff\n        /* \"#utility.yul\":1925:1931   */\n      dup2\n        /* \"#utility.yul\":1922:1952   */\n      gt\n        /* \"#utility.yul\":1919:2036   */\n      iszero\n      tag_262\n      jumpi\n        /* \"#utility.yul\":1955:2034   */\n      tag_263\n      tag_186\n      jump\t// in\n    tag_263:\n        /* \"#utility.yul\":1919:2036   */\n    tag_262:\n        /* \"#utility.yul\":2068:2133   */\n      tag_264\n        /* \"#utility.yul\":2125:2132   */\n      dup8\n        /* \"#utility.yul\":2116:2122   */\n      dup3\n        /* \"#utility.yul\":2105:2114   */\n      dup9\n        /* \"#utility.yul\":2101:2123   */\n      add\n        /* \"#utility.yul\":2068:2133   */\n      tag_190\n      jump\t// in\n    tag_264:\n        /* \"#utility.yul\":2050:2133   */\n      swap3\n      pop\n      swap3\n      pop\n        /* \"#utility.yul\":1845:2143   */\n      pop\n        /* \"#utility.yul\":1276:2150   */\n      swap3\n      swap6\n      swap2\n      swap5\n      pop\n      swap3\n      pop\n      jump\t// out\n        /* \"#utility.yul\":2156:2254   */\n    tag_191:\n        /* \"#utility.yul\":2207:2213   */\n      0x00\n        /* \"#utility.yul\":2241:2246   */\n      dup2\n        /* \"#utility.yul\":2235:2247   */\n      mload\n        /* \"#utility.yul\":2225:2247   */\n      swap1\n      pop\n        /* \"#utility.yul\":2156:2254   */\n      swap2\n      swap1\n      pop\n      jump\t// out\n        /* \"#utility.yul\":2260:2428   */\n    tag_192:\n        /* \"#utility.yul\":2343:2354   */\n      0x00\n        /* \"#utility.yul\":2377:2383   */\n      dup3\n        /* \"#utility.yul\":2372:2375   */\n      dup3\n        /* \"#utility.yul\":2365:2384   */\n      mstore\n        /* \"#utility.yul\":2417:2421   */\n      0x20\n        /* \"#utility.yul\":2412:2415   */\n      dup3\n        /* \"#utility.yul\":2408:2422   */\n      add\n        /* \"#utility.yul\":2393:2422   */\n      swap1\n      pop\n        /* \"#utility.yul\":2260:2428   */\n      swap3\n      swap2\n      pop\n      pop\n      jump\t// out\n        /* \"#utility.yul\":2434:2573   */\n    tag_193:\n        /* \"#utility.yul\":2523:2529   */\n      dup3\n        /* \"#utility.yul\":2518:2521   */\n      dup2\n        /* \"#utility.yul\":2513:2516   */\n      dup4\n        /* \"#utility.yul\":2507:2530   */\n      mcopy\n        /* \"#utility.yul\":2564:2565   */\n      0x00\n        /* \"#utility.yul\":2555:2561   */\n      dup4\n        /* \"#utility.yul\":2550:2553   */\n      dup4\n        /* \"#utility.yul\":2546:2562   */\n      add\n        /* \"#utility.yul\":2539:2566   */\n      mstore\n        /* \"#utility.yul\":2434:2573   */\n      pop\n      pop\n      pop\n      jump\t// out\n        /* \"#utility.yul\":2579:2681   */\n    tag_194:\n        /* \"#utility.yul\":2620:2626   */\n      0x00\n        /* \"#utility.yul\":2671:2673   */\n      0x1f\n        /* \"#utility.yul\":2667:2674   */\n      not\n        /* \"#utility.yul\":2662:2664   */\n      0x1f\n        /* \"#utility.yul\":2655:2660   */\n      dup4\n        /* \"#utility.yul\":2651:2665   */\n      add\n        /* \"#utility.yul\":2647:2675   */\n      and\n        /* \"#utility.yul\":2637:2675   */\n      swap1\n      pop\n        /* \"#utility.yul\":2579:2681   */\n      swap2\n      swap1\n      pop\n      jump\t// out\n        /* \"#utility.yul\":2687:3060   */\n    tag_195:\n        /* \"#utility.yul\":2773:2776   */\n      0x00\n        /* \"#utility.yul\":2801:2839   */\n      tag_270\n        /* \"#utility.yul\":2833:2838   */\n      dup3\n        /* \"#utility.yul\":2801:2839   */\n      tag_191\n      jump\t// in\n    tag_270:\n        /* \"#utility.yul\":2855:2925   */\n      tag_271\n        /* \"#utility.yul\":2918:2924   */\n      dup2\n        /* \"#utility.yul\":2913:2916   */\n      dup6\n        /* \"#utility.yul\":2855:2925   */\n      tag_192\n      jump\t// in\n    tag_271:\n        /* \"#utility.yul\":2848:2925   */\n      swap4\n      pop\n        /* \"#utility.yul\":2934:2999   */\n      tag_272\n        /* \"#utility.yul\":2992:2998   */\n      dup2\n        /* \"#utility.yul\":2987:2990   */\n      dup6\n        /* \"#utility.yul\":2980:2984   */\n      0x20\n        /* \"#utility.yul\":2973:2978   */\n      dup7\n        /* \"#utility.yul\":2969:2985   */\n      add\n        /* \"#utility.yul\":2934:2999   */\n      tag_193\n      jump\t// in\n    tag_272:\n        /* \"#utility.yul\":3024:3053   */\n      tag_273\n        /* \"#utility.yul\":3046:3052   */\n      dup2\n        /* \"#utility.yul\":3024:3053   */\n      tag_194\n      jump\t// in\n    tag_273:\n        /* \"#utility.yul\":3019:3022   */\n      dup5\n        /* \"#utility.yul\":3015:3054   */\n      add\n        /* \"#utility.yul\":3008:3054   */\n      swap2\n      pop\n        /* \"#utility.yul\":2777:3060   */\n      pop\n        /* \"#utility.yul\":2687:3060   */\n      swap3\n      swap2\n      pop\n      pop\n      jump\t// out\n        /* \"#utility.yul\":3066:3375   */\n    tag_23:\n        /* \"#utility.yul\":3177:3181   */\n      0x00\n        /* \"#utility.yul\":3215:3217   */\n      0x20\n        /* \"#utility.yul\":3204:3213   */\n      dup3\n        /* \"#utility.yul\":3200:3218   */\n      add\n        /* \"#utility.yul\":3192:3218   */\n      swap1\n      pop\n        /* \"#utility.yul\":3264:3273   */\n      dup2\n        /* \"#utility.yul\":3258:3262   */\n      dup2\n        /* \"#utility.yul\":3254:3274   */\n      sub\n        /* \"#utility.yul\":3250:3251   */\n      0x00\n        /* \"#utility.yul\":3239:3248   */\n      dup4\n        /* \"#utility.yul\":3235:3252   */\n      add\n        /* \"#utility.yul\":3228:3275   */\n      mstore\n        /* \"#utility.yul\":3292:3368   */\n      tag_275\n        /* \"#utility.yul\":3363:3367   */\n      dup2\n        /* \"#utility.yul\":3354:3360   */\n      dup5\n        /* \"#utility.yul\":3292:3368   */\n      tag_195\n      jump\t// in\n    tag_275:\n        /* \"#utility.yul\":3284:3368   */\n      swap1\n      pop\n        /* \"#utility.yul\":3066:3375   */\n      swap3\n      swap2\n      pop\n      pop\n      jump\t// out\n        /* \"#utility.yul\":3394:3946   */\n    tag_196:\n        /* \"#utility.yul\":3451:3459   */\n      0x00\n        /* \"#utility.yul\":3461:3467   */\n      0x00\n        /* \"#utility.yul\":3511:3514   */\n      dup4\n        /* \"#utility.yul\":3504:3508   */\n      0x1f\n        /* \"#utility.yul\":3496:3502   */\n      dup5\n        /* \"#utility.yul\":3492:3509   */\n      add\n        /* \"#utility.yul\":3488:3515   */\n      slt\n        /* \"#utility.yul\":3478:3600   */\n      tag_277\n      jumpi\n        /* \"#utility.yul\":3519:3598   */\n      tag_278\n      tag_187\n      jump\t// in\n    tag_278:\n        /* \"#utility.yul\":3478:3600   */\n    tag_277:\n        /* \"#utility.yul\":3632:3638   */\n      dup3\n        /* \"#utility.yul\":3619:3639   */\n      calldataload\n        /* \"#utility.yul\":3609:3639   */\n      swap1\n      pop\n        /* \"#utility.yul\":3662:3680   */\n      0xffffffffffffffff\n        /* \"#utility.yul\":3654:3660   */\n      dup2\n        /* \"#utility.yul\":3651:3681   */\n      gt\n        /* \"#utility.yul\":3648:3765   */\n      iszero\n      tag_279\n      jumpi\n        /* \"#utility.yul\":3684:3763   */\n      tag_280\n      tag_188\n      jump\t// in\n    tag_280:\n        /* \"#utility.yul\":3648:3765   */\n    tag_279:\n        /* \"#utility.yul\":3798:3802   */\n      0x20\n        /* \"#utility.yul\":3790:3796   */\n      dup4\n        /* \"#utility.yul\":3786:3803   */\n      add\n        /* \"#utility.yul\":3774:3803   */\n      swap2\n      pop\n        /* \"#utility.yul\":3852:3855   */\n      dup4\n        /* \"#utility.yul\":3844:3848   */\n      0x01\n        /* \"#utility.yul\":3836:3842   */\n      dup3\n        /* \"#utility.yul\":3832:3849   */\n      mul\n        /* \"#utility.yul\":3822:3830   */\n      dup4\n        /* \"#utility.yul\":3818:3850   */\n      add\n        /* \"#utility.yul\":3815:3856   */\n      gt\n        /* \"#utility.yul\":3812:3940   */\n      iszero\n      tag_281\n      jumpi\n        /* \"#utility.yul\":3859:3938   */\n      tag_282\n      tag_189\n      jump\t// in\n    tag_282:\n        /* \"#utility.yul\":3812:3940   */\n    tag_281:\n        /* \"#utility.yul\":3394:3946   */\n      swap3\n      pop\n      swap3\n      swap1\n      pop\n      jump\t// out\n        /* \"#utility.yul\":3952:5169   */\n    tag_26:\n        /* \"#utility.yul\":4064:4070   */\n      0x00\n        /* \"#utility.yul\":4072:4078   */\n      0x00\n        /* \"#utility.yul\":4080:4086   */\n      0x00\n        /* \"#utility.yul\":4088:4094   */\n      0x00\n        /* \"#utility.yul\":4096:4102   */\n      0x00\n        /* \"#utility.yul\":4104:4110   */\n      0x00\n        /* \"#utility.yul\":4153:4155   */\n      0x60\n        /* \"#utility.yul\":4141:4150   */\n      dup8\n        /* \"#utility.yul\":4132:4139   */\n      dup10\n        /* \"#utility.yul\":4128:4151   */\n      sub\n        /* \"#utility.yul\":4124:4156   */\n      slt\n        /* \"#utility.yul\":4121:4240   */\n      iszero\n      tag_284\n      jumpi\n        /* \"#utility.yul\":4159:4238   */\n      tag_285\n      tag_185\n      jump\t// in\n    tag_285:\n        /* \"#utility.yul\":4121:4240   */\n    tag_284:\n        /* \"#utility.yul\":4307:4308   */\n      0x00\n        /* \"#utility.yul\":4296:4305   */\n      dup8\n        /* \"#utility.yul\":4292:4309   */\n      add\n        /* \"#utility.yul\":4279:4310   */\n      calldataload\n        /* \"#utility.yul\":4337:4355   */\n      0xffffffffffffffff\n        /* \"#utility.yul\":4329:4335   */\n      dup2\n        /* \"#utility.yul\":4326:4356   */\n      gt\n        /* \"#utility.yul\":4323:4440   */\n      iszero\n      tag_286\n      jumpi\n        /* \"#utility.yul\":4359:4438   */\n      tag_287\n      tag_186\n      jump\t// in\n    tag_287:\n        /* \"#utility.yul\":4323:4440   */\n    tag_286:\n        /* \"#utility.yul\":4472:4537   */\n      tag_288\n        /* \"#utility.yul\":4529:4536   */\n      dup10\n        /* \"#utility.yul\":4520:4526   */\n      dup3\n        /* \"#utility.yul\":4509:4518   */\n      dup11\n        /* \"#utility.yul\":4505:4527   */\n      add\n        /* \"#utility.yul\":4472:4537   */\n      tag_190\n      jump\t// in\n    tag_288:\n        /* \"#utility.yul\":4454:4537   */\n      swap7\n      pop\n      swap7\n      pop\n        /* \"#utility.yul\":4250:4547   */\n      pop\n        /* \"#utility.yul\":4614:4616   */\n      0x20\n        /* \"#utility.yul\":4603:4612   */\n      dup8\n        /* \"#utility.yul\":4599:4617   */\n      add\n        /* \"#utility.yul\":4586:4618   */\n      calldataload\n        /* \"#utility.yul\":4645:4663   */\n      0xffffffffffffffff\n        /* \"#utility.yul\":4637:4643   */\n      dup2\n        /* \"#utility.yul\":4634:4664   */\n      gt\n        /* \"#utility.yul\":4631:4748   */\n      iszero\n      tag_289\n      jumpi\n        /* \"#utility.yul\":4667:4746   */\n      tag_290\n      tag_186\n      jump\t// in\n    tag_290:\n        /* \"#utility.yul\":4631:4748   */\n    tag_289:\n        /* \"#utility.yul\":4780:4845   */\n      tag_291\n        /* \"#utility.yul\":4837:4844   */\n      dup10\n        /* \"#utility.yul\":4828:4834   */\n      dup3\n        /* \"#utility.yul\":4817:4826   */\n      dup11\n        /* \"#utility.yul\":4813:4835   */\n      add\n        /* \"#utility.yul\":4780:4845   */\n      tag_190\n      jump\t// in\n    tag_291:\n        /* \"#utility.yul\":4762:4845   */\n      swap5\n      pop\n      swap5\n      pop\n        /* \"#utility.yul\":4557:4855   */\n      pop\n        /* \"#utility.yul\":4922:4924   */\n      0x40\n        /* \"#utility.yul\":4911:4920   */\n      dup8\n        /* \"#utility.yul\":4907:4925   */\n      add\n        /* \"#utility.yul\":4894:4926   */\n      calldataload\n        /* \"#utility.yul\":4953:4971   */\n      0xffffffffffffffff\n        /* \"#utility.yul\":4945:4951   */\n      dup2\n        /* \"#utility.yul\":4942:4972   */\n      gt\n        /* \"#utility.yul\":4939:5056   */\n      iszero\n      tag_292\n      jumpi\n        /* \"#utility.yul\":4975:5054   */\n      tag_293\n      tag_186\n      jump\t// in\n    tag_293:\n        /* \"#utility.yul\":4939:5056   */\n    tag_292:\n        /* \"#utility.yul\":5088:5152   */\n      tag_294\n        /* \"#utility.yul\":5144:5151   */\n      dup10\n        /* \"#utility.yul\":5135:5141   */\n      dup3\n        /* \"#utility.yul\":5124:5133   */\n      dup11\n        /* \"#utility.yul\":5120:5142   */\n      add\n        /* \"#utility.yul\":5088:5152   */\n      tag_196\n      jump\t// in\n    tag_294:\n        /* \"#utility.yul\":5070:5152   */\n      swap3\n      pop\n      swap3\n      pop\n        /* \"#utility.yul\":4865:5162   */\n      pop\n        /* \"#utility.yul\":3952:5169   */\n      swap3\n      swap6\n      pop\n      swap3\n      swap6\n      pop\n      swap3\n      swap6\n      jump\t// out\n        /* \"#utility.yul\":5175:5252   */\n    tag_197:\n        /* \"#utility.yul\":5212:5219   */\n      0x00\n        /* \"#utility.yul\":5241:5246   */\n      dup2\n        /* \"#utility.yul\":5230:5246   */\n      swap1\n      pop\n        /* \"#utility.yul\":5175:5252   */\n      swap2\n      swap1\n      pop\n      jump\t// out\n        /* \"#utility.yul\":5258:5380   */\n    tag_198:\n        /* \"#utility.yul\":5331:5355   */\n      tag_297\n        /* \"#utility.yul\":5349:5354   */\n      dup2\n        /* \"#utility.yul\":5331:5355   */\n      tag_197\n      jump\t// in\n    tag_297:\n        /* \"#utility.yul\":5324:5329   */\n      dup2\n        /* \"#utility.yul\":5321:5356   */\n      eq\n        /* \"#utility.yul\":5311:5374   */\n      tag_298\n      jumpi\n        /* \"#utility.yul\":5370:5371   */\n      0x00\n        /* \"#utility.yul\":5367:5368   */\n      0x00\n        /* \"#utility.yul\":5360:5372   */\n      revert\n        /* \"#utility.yul\":5311:5374   */\n    tag_298:\n        /* \"#utility.yul\":5258:5380   */\n      pop\n      jump\t// out\n        /* \"#utility.yul\":5386:5525   */\n    tag_199:\n        /* \"#utility.yul\":5432:5437   */\n      0x00\n        /* \"#utility.yul\":5470:5476   */\n      dup2\n        /* \"#utility.yul\":5457:5477   */\n      calldataload\n        /* \"#utility.yul\":5448:5477   */\n      swap1\n      pop\n        /* \"#utility.yul\":5486:5519   */\n      tag_300\n        /* \"#utility.yul\":5513:5518   */\n      dup2\n        /* \"#utility.yul\":5486:5519   */\n      tag_198\n      jump\t// in\n    tag_300:\n        /* \"#utility.yul\":5386:5525   */\n      swap3\n      swap2\n      pop\n      pop\n      jump\t// out\n        /* \"#utility.yul\":5531:5860   */\n    tag_30:\n        /* \"#utility.yul\":5590:5596   */\n      0x00\n        /* \"#utility.yul\":5639:5641   */\n      0x20\n        /* \"#utility.yul\":5627:5636   */\n      dup3\n        /* \"#utility.yul\":5618:5625   */\n      dup5\n        /* \"#utility.yul\":5614:5637   */\n      sub\n        /* \"#utility.yul\":5610:5642   */\n      slt\n        /* \"#utility.yul\":5607:5726   */\n      iszero\n      tag_302\n      jumpi\n        /* \"#utility.yul\":5645:5724   */\n      tag_303\n      tag_185\n      jump\t// in\n    tag_303:\n        /* \"#utility.yul\":5607:5726   */\n    tag_302:\n        /* \"#utility.yul\":5765:5766   */\n      0x00\n        /* \"#utility.yul\":5790:5843   */\n      tag_304\n        /* \"#utility.yul\":5835:5842   */\n      dup5\n        /* \"#utility.yul\":5826:5832   */\n      dup3\n        /* \"#utility.yul\":5815:5824   */\n      dup6\n        /* \"#utility.yul\":5811:5833   */\n      add\n        /* \"#utility.yul\":5790:5843   */\n      tag_199\n      jump\t// in\n    tag_304:\n        /* \"#utility.yul\":5780:5843   */\n      swap2\n      pop\n        /* \"#utility.yul\":5736:5853   */\n      pop\n        /* \"#utility.yul\":5531:5860   */\n      swap3\n      swap2\n      pop\n      pop\n      jump\t// out\n        /* \"#utility.yul\":5866:5965   */\n    tag_200:\n        /* \"#utility.yul\":5918:5924   */\n      0x00\n        /* \"#utility.yul\":5952:5957   */\n      dup2\n        /* \"#utility.yul\":5946:5958   */\n      mload\n        /* \"#utility.yul\":5936:5958   */\n      swap1\n      pop\n        /* \"#utility.yul\":5866:5965   */\n      swap2\n      swap1\n      pop\n      jump\t// out\n        /* \"#utility.yul\":5971:6140   */\n    tag_201:\n        /* \"#utility.yul\":6055:6066   */\n      0x00\n        /* \"#utility.yul\":6089:6095   */\n      dup3\n        /* \"#utility.yul\":6084:6087   */\n      dup3\n        /* \"#utility.yul\":6077:6096   */\n      mstore\n        /* \"#utility.yul\":6129:6133   */\n      0x20\n        /* \"#utility.yul\":6124:6127   */\n      dup3\n        /* \"#utility.yul\":6120:6134   */\n      add\n        /* \"#utility.yul\":6105:6134   */\n      swap1\n      pop\n        /* \"#utility.yul\":5971:6140   */\n      swap3\n      swap2\n      pop\n      pop\n      jump\t// out\n        /* \"#utility.yul\":6146:6523   */\n    tag_202:\n        /* \"#utility.yul\":6234:6237   */\n      0x00\n        /* \"#utility.yul\":6262:6301   */\n      tag_308\n        /* \"#utility.yul\":6295:6300   */\n      dup3\n        /* \"#utility.yul\":6262:6301   */\n      tag_200\n      jump\t// in\n    tag_308:\n        /* \"#utility.yul\":6317:6388   */\n      tag_309\n        /* \"#utility.yul\":6381:6387   */\n      dup2\n        /* \"#utility.yul\":6376:6379   */\n      dup6\n        /* \"#utility.yul\":6317:6388   */\n      tag_201\n      jump\t// in\n    tag_309:\n        /* \"#utility.yul\":6310:6388   */\n      swap4\n      pop\n        /* \"#utility.yul\":6397:6462   */\n      tag_310\n        /* \"#utility.yul\":6455:6461   */\n      dup2\n        /* \"#utility.yul\":6450:6453   */\n      dup6\n        /* \"#utility.yul\":6443:6447   */\n      0x20\n        /* \"#utility.yul\":6436:6441   */\n      dup7\n        /* \"#utility.yul\":6432:6448   */\n      add\n        /* \"#utility.yul\":6397:6462   */\n      tag_193\n      jump\t// in\n    tag_310:\n        /* \"#utility.yul\":6487:6516   */\n      tag_311\n        /* \"#utility.yul\":6509:6515   */\n      dup2\n        /* \"#utility.yul\":6487:6516   */\n      tag_194\n      jump\t// in\n    tag_311:\n        /* \"#utility.yul\":6482:6485   */\n      dup5\n        /* \"#utility.yul\":6478:6517   */\n      add\n        /* \"#utility.yul\":6471:6517   */\n      swap2\n      pop\n        /* \"#utility.yul\":6238:6523   */\n      pop\n        /* \"#utility.yul\":6146:6523   */\n      swap3\n      swap2\n      pop\n      pop\n      jump\t// out\n        /* \"#utility.yul\":6529:7240   */\n    tag_33:\n        /* \"#utility.yul\":6736:6740   */\n      0x00\n        /* \"#utility.yul\":6774:6776   */\n      0x60\n        /* \"#utility.yul\":6763:6772   */\n      dup3\n        /* \"#utility.yul\":6759:6777   */\n      add\n        /* \"#utility.yul\":6751:6777   */\n      swap1\n      pop\n        /* \"#utility.yul\":6823:6832   */\n      dup2\n        /* \"#utility.yul\":6817:6821   */\n      dup2\n        /* \"#utility.yul\":6813:6833   */\n      sub\n        /* \"#utility.yul\":6809:6810   */\n      0x00\n        /* \"#utility.yul\":6798:6807   */\n      dup4\n        /* \"#utility.yul\":6794:6811   */\n      add\n        /* \"#utility.yul\":6787:6834   */\n      mstore\n        /* \"#utility.yul\":6851:6929   */\n      tag_313\n        /* \"#utility.yul\":6924:6928   */\n      dup2\n        /* \"#utility.yul\":6915:6921   */\n      dup7\n        /* \"#utility.yul\":6851:6929   */\n      tag_202\n      jump\t// in\n    tag_313:\n        /* \"#utility.yul\":6843:6929   */\n      swap1\n      pop\n        /* \"#utility.yul\":6976:6985   */\n      dup2\n        /* \"#utility.yul\":6970:6974   */\n      dup2\n        /* \"#utility.yul\":6966:6986   */\n      sub\n        /* \"#utility.yul\":6961:6963   */\n      0x20\n        /* \"#utility.yul\":6950:6959   */\n      dup4\n        /* \"#utility.yul\":6946:6964   */\n      add\n        /* \"#utility.yul\":6939:6987   */\n      mstore\n        /* \"#utility.yul\":7004:7082   */\n      tag_314\n        /* \"#utility.yul\":7077:7081   */\n      dup2\n        /* \"#utility.yul\":7068:7074   */\n      dup6\n        /* \"#utility.yul\":7004:7082   */\n      tag_202\n      jump\t// in\n    tag_314:\n        /* \"#utility.yul\":6996:7082   */\n      swap1\n      pop\n        /* \"#utility.yul\":7129:7138   */\n      dup2\n        /* \"#utility.yul\":7123:7127   */\n      dup2\n        /* \"#utility.yul\":7119:7139   */\n      sub\n        /* \"#utility.yul\":7114:7116   */\n      0x40\n        /* \"#utility.yul\":7103:7112   */\n      dup4\n        /* \"#utility.yul\":7099:7117   */\n      add\n        /* \"#utility.yul\":7092:7140   */\n      mstore\n        /* \"#utility.yul\":7157:7233   */\n      tag_315\n        /* \"#utility.yul\":7228:7232   */\n      dup2\n        /* \"#utility.yul\":7219:7225   */\n      dup5\n        /* \"#utility.yul\":7157:7233   */\n      tag_195\n      jump\t// in\n    tag_315:\n        /* \"#utility.yul\":7149:7233   */\n      swap1\n      pop\n        /* \"#utility.yul\":6529:7240   */\n      swap5\n      swap4\n      pop\n      pop\n      pop\n      pop\n      jump\t// out\n        /* \"#utility.yul\":7246:7364   */\n    tag_203:\n        /* \"#utility.yul\":7333:7357   */\n      tag_317\n        /* \"#utility.yul\":7351:7356   */\n      dup2\n        /* \"#utility.yul\":7333:7357   */\n      tag_197\n      jump\t// in\n    tag_317:\n        /* \"#utility.yul\":7328:7331   */\n      dup3\n        /* \"#utility.yul\":7321:7358   */\n      mstore\n        /* \"#utility.yul\":7246:7364   */\n      pop\n      pop\n      jump\t// out\n        /* \"#utility.yul\":7370:7592   */\n    tag_37:\n        /* \"#utility.yul\":7463:7467   */\n      0x00\n        /* \"#utility.yul\":7501:7503   */\n      0x20\n        /* \"#utility.yul\":7490:7499   */\n      dup3\n        /* \"#utility.yul\":7486:7504   */\n      add\n        /* \"#utility.yul\":7478:7504   */\n      swap1\n      pop\n        /* \"#utility.yul\":7514:7585   */\n      tag_319\n        /* \"#utility.yul\":7582:7583   */\n      0x00\n        /* \"#utility.yul\":7571:7580   */\n      dup4\n        /* \"#utility.yul\":7567:7584   */\n      add\n        /* \"#utility.yul\":7558:7564   */\n      dup5\n        /* \"#utility.yul\":7514:7585   */\n      tag_203\n      jump\t// in\n    tag_319:\n        /* \"#utility.yul\":7370:7592   */\n      swap3\n      swap2\n      pop\n      pop\n      jump\t// out\n        /* \"#utility.yul\":7598:7724   */\n    tag_204:\n        /* \"#utility.yul\":7635:7642   */\n      0x00\n        /* \"#utility.yul\":7675:7717   */\n      0xffffffffffffffffffffffffffffffffffffffff\n        /* \"#utility.yul\":7668:7673   */\n      dup3\n        /* \"#utility.yul\":7664:7718   */\n      and\n        /* \"#utility.yul\":7653:7718   */\n      swap1\n      pop\n        /* \"#utility.yul\":7598:7724   */\n      swap2\n      swap1\n      pop\n      jump\t// out\n        /* \"#utility.yul\":7730:7826   */\n    tag_205:\n        /* \"#utility.yul\":7767:7774   */\n      0x00\n        /* \"#utility.yul\":7796:7820   */\n      tag_322\n        /* \"#utility.yul\":7814:7819   */\n      dup3\n        /* \"#utility.yul\":7796:7820   */\n      tag_204\n      jump\t// in\n    tag_322:\n        /* \"#utility.yul\":7785:7820   */\n      swap1\n      pop\n        /* \"#utility.yul\":7730:7826   */\n      swap2\n      swap1\n      pop\n      jump\t// out\n        /* \"#utility.yul\":7832:7950   */\n    tag_206:\n        /* \"#utility.yul\":7919:7943   */\n      tag_324\n        /* \"#utility.yul\":7937:7942   */\n      dup2\n        /* \"#utility.yul\":7919:7943   */\n      tag_205\n      jump\t// in\n    tag_324:\n        /* \"#utility.yul\":7914:7917   */\n      dup3\n        /* \"#utility.yul\":7907:7944   */\n      mstore\n        /* \"#utility.yul\":7832:7950   */\n      pop\n      pop\n      jump\t// out\n        /* \"#utility.yul\":7956:8178   */\n    tag_41:\n        /* \"#utility.yul\":8049:8053   */\n      0x00\n        /* \"#utility.yul\":8087:8089   */\n      0x20\n        /* \"#utility.yul\":8076:8085   */\n      dup3\n        /* \"#utility.yul\":8072:8090   */\n      add\n        /* \"#utility.yul\":8064:8090   */\n      swap1\n      pop\n        /* \"#utility.yul\":8100:8171   */\n      tag_326\n        /* \"#utility.yul\":8168:8169   */\n      0x00\n        /* \"#utility.yul\":8157:8166   */\n      dup4\n        /* \"#utility.yul\":8153:8170   */\n      add\n        /* \"#utility.yul\":8144:8150   */\n      dup5\n        /* \"#utility.yul\":8100:8171   */\n      tag_206\n      jump\t// in\n    tag_326:\n        /* \"#utility.yul\":7956:8178   */\n      swap3\n      swap2\n      pop\n      pop\n      jump\t// out\n        /* \"#utility.yul\":8184:8306   */\n    tag_207:\n        /* \"#utility.yul\":8257:8281   */\n      tag_328\n        /* \"#utility.yul\":8275:8280   */\n      dup2\n        /* \"#utility.yul\":8257:8281   */\n      tag_205\n      jump\t// in\n    tag_328:\n        /* \"#utility.yul\":8250:8255   */\n      dup2\n        /* \"#utility.yul\":8247:8282   */\n      eq\n        /* \"#utility.yul\":8237:8300   */\n      tag_329\n      jumpi\n        /* \"#utility.yul\":8296:8297   */\n      0x00\n        /* \"#utility.yul\":8293:8294   */\n      0x00\n        /* \"#utility.yul\":8286:8298   */\n      revert\n        /* \"#utility.yul\":8237:8300   */\n    tag_329:\n        /* \"#utility.yul\":8184:8306   */\n      pop\n      jump\t// out\n        /* \"#utility.yul\":8312:8451   */\n    tag_208:\n        /* \"#utility.yul\":8358:8363   */\n      0x00\n        /* \"#utility.yul\":8396:8402   */\n      dup2\n        /* \"#utility.yul\":8383:8403   */\n      calldataload\n        /* \"#utility.yul\":8374:8403   */\n      swap1\n      pop\n        /* \"#utility.yul\":8412:8445   */\n      tag_331\n        /* \"#utility.yul\":8439:8444   */\n      dup2\n        /* \"#utility.yul\":8412:8445   */\n      tag_207\n      jump\t// in\n    tag_331:\n        /* \"#utility.yul\":8312:8451   */\n      swap3\n      swap2\n      pop\n      pop\n      jump\t// out\n        /* \"#utility.yul\":8457:8786   */\n    tag_44:\n        /* \"#utility.yul\":8516:8522   */\n      0x00\n        /* \"#utility.yul\":8565:8567   */\n      0x20\n        /* \"#utility.yul\":8553:8562   */\n      dup3\n        /* \"#utility.yul\":8544:8551   */\n      dup5\n        /* \"#utility.yul\":8540:8563   */\n      sub\n        /* \"#utility.yul\":8536:8568   */\n      slt\n        /* \"#utility.yul\":8533:8652   */\n      iszero\n      tag_333\n      jumpi\n        /* \"#utility.yul\":8571:8650   */\n      tag_334\n      tag_185\n      jump\t// in\n    tag_334:\n        /* \"#utility.yul\":8533:8652   */\n    tag_333:\n        /* \"#utility.yul\":8691:8692   */\n      0x00\n        /* \"#utility.yul\":8716:8769   */\n      tag_335\n        /* \"#utility.yul\":8761:8768   */\n      dup5\n        /* \"#utility.yul\":8752:8758   */\n      dup3\n        /* \"#utility.yul\":8741:8750   */\n      dup6\n        /* \"#utility.yul\":8737:8759   */\n      add\n        /* \"#utility.yul\":8716:8769   */\n      tag_208\n      jump\t// in\n    tag_335:\n        /* \"#utility.yul\":8706:8769   */\n      swap2\n      pop\n        /* \"#utility.yul\":8662:8779   */\n      pop\n        /* \"#utility.yul\":8457:8786   */\n      swap3\n      swap2\n      pop\n      pop\n      jump\t// out\n        /* \"#utility.yul\":8792:8852   */\n    tag_209:\n        /* \"#utility.yul\":8820:8823   */\n      0x00\n        /* \"#utility.yul\":8841:8846   */\n      dup2\n        /* \"#utility.yul\":8834:8846   */\n      swap1\n      pop\n        /* \"#utility.yul\":8792:8852   */\n      swap2\n      swap1\n      pop\n      jump\t// out\n        /* \"#utility.yul\":8858:9000   */\n    tag_210:\n        /* \"#utility.yul\":8908:8917   */\n      0x00\n        /* \"#utility.yul\":8941:8994   */\n      tag_338\n        /* \"#utility.yul\":8959:8993   */\n      tag_339\n        /* \"#utility.yul\":8968:8992   */\n      tag_340\n        /* \"#utility.yul\":8986:8991   */\n      dup5\n        /* \"#utility.yul\":8968:8992   */\n      tag_204\n      jump\t// in\n    tag_340:\n        /* \"#utility.yul\":8959:8993   */\n      tag_209\n      jump\t// in\n    tag_339:\n        /* \"#utility.yul\":8941:8994   */\n      tag_204\n      jump\t// in\n    tag_338:\n        /* \"#utility.yul\":8928:8994   */\n      swap1\n      pop\n        /* \"#utility.yul\":8858:9000   */\n      swap2\n      swap1\n      pop\n      jump\t// out\n        /* \"#utility.yul\":9006:9132   */\n    tag_211:\n        /* \"#utility.yul\":9056:9065   */\n      0x00\n        /* \"#utility.yul\":9089:9126   */\n      tag_342\n        /* \"#utility.yul\":9120:9125   */\n      dup3\n        /* \"#utility.yul\":9089:9126   */\n      tag_210\n      jump\t// in\n    tag_342:\n        /* \"#utility.yul\":9076:9126   */\n      swap1\n      pop\n        /* \"#utility.yul\":9006:9132   */\n      swap2\n      swap1\n      pop\n      jump\t// out\n        /* \"#utility.yul\":9138:9283   */\n    tag_212:\n        /* \"#utility.yul\":9207:9216   */\n      0x00\n        /* \"#utility.yul\":9240:9277   */\n      tag_344\n        /* \"#utility.yul\":9271:9276   */\n      dup3\n        /* \"#utility.yul\":9240:9277   */\n      tag_211\n      jump\t// in\n    tag_344:\n        /* \"#utility.yul\":9227:9277   */\n      swap1\n      pop\n        /* \"#utility.yul\":9138:9283   */\n      swap2\n      swap1\n      pop\n      jump\t// out\n        /* \"#utility.yul\":9289:9458   */\n    tag_213:\n        /* \"#utility.yul\":9395:9451   */\n      tag_346\n        /* \"#utility.yul\":9445:9450   */\n      dup2\n        /* \"#utility.yul\":9395:9451   */\n      tag_212\n      jump\t// in\n    tag_346:\n        /* \"#utility.yul\":9390:9393   */\n      dup3\n        /* \"#utility.yul\":9383:9452   */\n      mstore\n        /* \"#utility.yul\":9289:9458   */\n      pop\n      pop\n      jump\t// out\n        /* \"#utility.yul\":9464:9724   */\n    tag_64:\n        /* \"#utility.yul\":9576:9580   */\n      0x00\n        /* \"#utility.yul\":9614:9616   */\n      0x20\n        /* \"#utility.yul\":9603:9612   */\n      dup3\n        /* \"#utility.yul\":9599:9617   */\n      add\n        /* \"#utility.yul\":9591:9617   */\n      swap1\n      pop\n        /* \"#utility.yul\":9627:9717   */\n      tag_348\n        /* \"#utility.yul\":9714:9715   */\n      0x00\n        /* \"#utility.yul\":9703:9712   */\n      dup4\n        /* \"#utility.yul\":9699:9716   */\n      add\n        /* \"#utility.yul\":9690:9696   */\n      dup5\n        /* \"#utility.yul\":9627:9717   */\n      tag_213\n      jump\t// in\n    tag_348:\n        /* \"#utility.yul\":9464:9724   */\n      swap3\n      swap2\n      pop\n      pop\n      jump\t// out\n        /* \"#utility.yul\":9730:9878   */\n    tag_214:\n        /* \"#utility.yul\":9832:9843   */\n      0x00\n        /* \"#utility.yul\":9869:9872   */\n      dup2\n        /* \"#utility.yul\":9854:9872   */\n      swap1\n      pop\n        /* \"#utility.yul\":9730:9878   */\n      swap3\n      swap2\n      pop\n      pop\n      jump\t// out\n        /* \"#utility.yul\":9884:10032   */\n    tag_215:\n        /* \"#utility.yul\":9982:9988   */\n      dup3\n        /* \"#utility.yul\":9977:9980   */\n      dup2\n        /* \"#utility.yul\":9972:9975   */\n      dup4\n        /* \"#utility.yul\":9959:9989   */\n      calldatacopy\n        /* \"#utility.yul\":10023:10024   */\n      0x00\n        /* \"#utility.yul\":10014:10020   */\n      dup4\n        /* \"#utility.yul\":10009:10012   */\n      dup4\n        /* \"#utility.yul\":10005:10021   */\n      add\n        /* \"#utility.yul\":9998:10025   */\n      mstore\n        /* \"#utility.yul\":9884:10032   */\n      pop\n      pop\n      pop\n      jump\t// out\n        /* \"#utility.yul\":10062:10392   */\n    tag_216:\n        /* \"#utility.yul\":10178:10181   */\n      0x00\n        /* \"#utility.yul\":10199:10288   */\n      tag_352\n        /* \"#utility.yul\":10281:10287   */\n      dup4\n        /* \"#utility.yul\":10276:10279   */\n      dup6\n        /* \"#utility.yul\":10199:10288   */\n      tag_214\n      jump\t// in\n    tag_352:\n        /* \"#utility.yul\":10192:10288   */\n      swap4\n      pop\n        /* \"#utility.yul\":10298:10354   */\n      tag_353\n        /* \"#utility.yul\":10347:10353   */\n      dup4\n        /* \"#utility.yul\":10342:10345   */\n      dup6\n        /* \"#utility.yul\":10335:10340   */\n      dup5\n        /* \"#utility.yul\":10298:10354   */\n      tag_215\n      jump\t// in\n    tag_353:\n        /* \"#utility.yul\":10379:10385   */\n      dup3\n        /* \"#utility.yul\":10374:10377   */\n      dup5\n        /* \"#utility.yul\":10370:10386   */\n      add\n        /* \"#utility.yul\":10363:10386   */\n      swap1\n      pop\n        /* \"#utility.yul\":10062:10392   */\n      swap4\n      swap3\n      pop\n      pop\n      pop\n      jump\t// out\n        /* \"#utility.yul\":10398:10693   */\n    tag_70:\n        /* \"#utility.yul\":10540:10543   */\n      0x00\n        /* \"#utility.yul\":10562:10667   */\n      tag_355\n        /* \"#utility.yul\":10663:10666   */\n      dup3\n        /* \"#utility.yul\":10654:10660   */\n      dup5\n        /* \"#utility.yul\":10646:10652   */\n      dup7\n        /* \"#utility.yul\":10562:10667   */\n      tag_216\n      jump\t// in\n    tag_355:\n        /* \"#utility.yul\":10555:10667   */\n      swap2\n      pop\n        /* \"#utility.yul\":10684:10687   */\n      dup2\n        /* \"#utility.yul\":10677:10687   */\n      swap1\n      pop\n        /* \"#utility.yul\":10398:10693   */\n      swap4\n      swap3\n      pop\n      pop\n      pop\n      jump\t// out\n        /* \"#utility.yul\":10699:10879   */\n    tag_217:\n        /* \"#utility.yul\":10747:10824   */\n      0x4e487b7100000000000000000000000000000000000000000000000000000000\n        /* \"#utility.yul\":10744:10745   */\n      0x00\n        /* \"#utility.yul\":10737:10825   */\n      mstore\n        /* \"#utility.yul\":10844:10848   */\n      0x22\n        /* \"#utility.yul\":10841:10842   */\n      0x04\n        /* \"#utility.yul\":10834:10849   */\n      mstore\n        /* \"#utility.yul\":10868:10872   */\n      0x24\n        /* \"#utility.yul\":10865:10866   */\n      0x00\n        /* \"#utility.yul\":10858:10873   */\n      revert\n        /* \"#utility.yul\":10885:11205   */\n    tag_73:\n        /* \"#utility.yul\":10929:10935   */\n      0x00\n        /* \"#utility.yul\":10966:10967   */\n      0x02\n        /* \"#utility.yul\":10960:10964   */\n      dup3\n        /* \"#utility.yul\":10956:10968   */\n      div\n        /* \"#utility.yul\":10946:10968   */\n      swap1\n      pop\n        /* \"#utility.yul\":11013:11014   */\n      0x01\n        /* \"#utility.yul\":11007:11011   */\n      dup3\n        /* \"#utility.yul\":11003:11015   */\n      and\n        /* \"#utility.yul\":11034:11052   */\n      dup1\n        /* \"#utility.yul\":11024:11105   */\n      tag_358\n      jumpi\n        /* \"#utility.yul\":11090:11094   */\n      0x7f\n        /* \"#utility.yul\":11082:11088   */\n      dup3\n        /* \"#utility.yul\":11078:11095   */\n      and\n        /* \"#utility.yul\":11068:11095   */\n      swap2\n      pop\n        /* \"#utility.yul\":11024:11105   */\n    tag_358:\n        /* \"#utility.yul\":11152:11154   */\n      0x20\n        /* \"#utility.yul\":11144:11150   */\n      dup3\n        /* \"#utility.yul\":11141:11155   */\n      lt\n        /* \"#utility.yul\":11121:11139   */\n      dup2\n        /* \"#utility.yul\":11118:11156   */\n      sub\n        /* \"#utility.yul\":11115:11199   */\n      tag_359\n      jumpi\n        /* \"#utility.yul\":11171:11189   */\n      tag_360\n      tag_217\n      jump\t// in\n    tag_360:\n        /* \"#utility.yul\":11115:11199   */\n    tag_359:\n        /* \"#utility.yul\":10936:11205   */\n      pop\n        /* \"#utility.yul\":10885:11205   */\n      swap2\n      swap1\n      pop\n      jump\t// out\n        /* \"#utility.yul\":11211:11375   */\n    tag_218:\n        /* \"#utility.yul\":11351:11367   */\n      0x4e6f7420617574686f72697a6564000000000000000000000000000000000000\n        /* \"#utility.yul\":11347:11348   */\n      0x00\n        /* \"#utility.yul\":11339:11345   */\n      dup3\n        /* \"#utility.yul\":11335:11349   */\n      add\n        /* \"#utility.yul\":11328:11368   */\n      mstore\n        /* \"#utility.yul\":11211:11375   */\n      pop\n      jump\t// out\n        /* \"#utility.yul\":11381:11747   */\n    tag_219:\n        /* \"#utility.yul\":11523:11526   */\n      0x00\n        /* \"#utility.yul\":11544:11611   */\n      tag_363\n        /* \"#utility.yul\":11608:11610   */\n      0x0e\n        /* \"#utility.yul\":11603:11606   */\n      dup4\n        /* \"#utility.yul\":11544:11611   */\n      tag_201\n      jump\t// in\n    tag_363:\n        /* \"#utility.yul\":11537:11611   */\n      swap2\n      pop\n        /* \"#utility.yul\":11620:11713   */\n      tag_364\n        /* \"#utility.yul\":11709:11712   */\n      dup3\n        /* \"#utility.yul\":11620:11713   */\n      tag_218\n      jump\t// in\n    tag_364:\n        /* \"#utility.yul\":11738:11740   */\n      0x20\n        /* \"#utility.yul\":11733:11736   */\n      dup3\n        /* \"#utility.yul\":11729:11741   */\n      add\n        /* \"#utility.yul\":11722:11741   */\n      swap1\n      pop\n        /* \"#utility.yul\":11381:11747   */\n      swap2\n      swap1\n      pop\n      jump\t// out\n        /* \"#utility.yul\":11753:12172   */\n    tag_81:\n        /* \"#utility.yul\":11919:11923   */\n      0x00\n        /* \"#utility.yul\":11957:11959   */\n      0x20\n        /* \"#utility.yul\":11946:11955   */\n      dup3\n        /* \"#utility.yul\":11942:11960   */\n      add\n        /* \"#utility.yul\":11934:11960   */\n      swap1\n      pop\n        /* \"#utility.yul\":12006:12015   */\n      dup2\n        /* \"#utility.yul\":12000:12004   */\n      dup2\n        /* \"#utility.yul\":11996:12016   */\n      sub\n        /* \"#utility.yul\":11992:11993   */\n      0x00\n        /* \"#utility.yul\":11981:11990   */\n      dup4\n        /* \"#utility.yul\":11977:11994   */\n      add\n        /* \"#utility.yul\":11970:12017   */\n      mstore\n        /* \"#utility.yul\":12034:12165   */\n      tag_366\n        /* \"#utility.yul\":12160:12164   */\n      dup2\n        /* \"#utility.yul\":12034:12165   */\n      tag_219\n      jump\t// in\n    tag_366:\n        /* \"#utility.yul\":12026:12165   */\n      swap1\n      pop\n        /* \"#utility.yul\":11753:12172   */\n      swap2\n      swap1\n      pop\n      jump\t// out\n        /* \"#utility.yul\":12178:12358   */\n    tag_220:\n        /* \"#utility.yul\":12226:12303   */\n      0x4e487b7100000000000000000000000000000000000000000000000000000000\n        /* \"#utility.yul\":12223:12224   */\n      0x00\n        /* \"#utility.yul\":12216:12304   */\n      mstore\n        /* \"#utility.yul\":12323:12327   */\n      0x41\n        /* \"#utility.yul\":12320:12321   */\n      0x04\n        /* \"#utility.yul\":12313:12328   */\n      mstore\n        /* \"#utility.yul\":12347:12351   */\n      0x24\n        /* \"#utility.yul\":12344:12345   */\n      0x00\n        /* \"#utility.yul\":12337:12352   */\n      revert\n        /* \"#utility.yul\":12364:12505   */\n    tag_221:\n        /* \"#utility.yul\":12413:12417   */\n      0x00\n        /* \"#utility.yul\":12436:12439   */\n      dup2\n        /* \"#utility.yul\":12428:12439   */\n      swap1\n      pop\n        /* \"#utility.yul\":12459:12462   */\n      dup2\n        /* \"#utility.yul\":12456:12457   */\n      0x00\n        /* \"#utility.yul\":12449:12463   */\n      mstore\n        /* \"#utility.yul\":12493:12497   */\n      0x20\n        /* \"#utility.yul\":12490:12491   */\n      0x00\n        /* \"#utility.yul\":12480:12498   */\n      keccak256\n        /* \"#utility.yul\":12472:12498   */\n      swap1\n      pop\n        /* \"#utility.yul\":12364:12505   */\n      swap2\n      swap1\n      pop\n      jump\t// out\n        /* \"#utility.yul\":12511:12604   */\n    tag_222:\n        /* \"#utility.yul\":12548:12554   */\n      0x00\n        /* \"#utility.yul\":12595:12597   */\n      0x20\n        /* \"#utility.yul\":12590:12592   */\n      0x1f\n        /* \"#utility.yul\":12583:12588   */\n      dup4\n        /* \"#utility.yul\":12579:12593   */\n      add\n        /* \"#utility.yul\":12575:12598   */\n      div\n        /* \"#utility.yul\":12565:12598   */\n      swap1\n      pop\n        /* \"#utility.yul\":12511:12604   */\n      swap2\n      swap1\n      pop\n      jump\t// out\n        /* \"#utility.yul\":12610:12717   */\n    tag_223:\n        /* \"#utility.yul\":12654:12662   */\n      0x00\n        /* \"#utility.yul\":12704:12709   */\n      dup3\n        /* \"#utility.yul\":12698:12702   */\n      dup3\n        /* \"#utility.yul\":12694:12710   */\n      shl\n        /* \"#utility.yul\":12673:12710   */\n      swap1\n      pop\n        /* \"#utility.yul\":12610:12717   */\n      swap3\n      swap2\n      pop\n      pop\n      jump\t// out\n        /* \"#utility.yul\":12723:13116   */\n    tag_224:\n        /* \"#utility.yul\":12792:12798   */\n      0x00\n        /* \"#utility.yul\":12842:12843   */\n      0x08\n        /* \"#utility.yul\":12830:12840   */\n      dup4\n        /* \"#utility.yul\":12826:12844   */\n      mul\n        /* \"#utility.yul\":12865:12962   */\n      tag_372\n        /* \"#utility.yul\":12895:12961   */\n      0xffffffffffffffffffffffffffffffffffffffffffffffffffffffffffffffff\n        /* \"#utility.yul\":12884:12893   */\n      dup3\n        /* \"#utility.yul\":12865:12962   */\n      tag_223\n      jump\t// in\n    tag_372:\n        /* \"#utility.yul\":12983:13022   */\n      tag_373\n        /* \"#utility.yul\":13013:13021   */\n      dup7\n        /* \"#utility.yul\":13002:13011   */\n      dup4\n        /* \"#utility.yul\":12983:13022   */\n      tag_223\n      jump\t// in\n    tag_373:\n        /* \"#utility.yul\":12971:13022   */\n      swap6\n      pop\n        /* \"#utility.yul\":13055:13059   */\n      dup1\n        /* \"#utility.yul\":13051:13060   */\n      not\n        /* \"#utility.yul\":13044:13049   */\n      dup5\n        /* \"#utility.yul\":13040:13061   */\n      and\n        /* \"#utility.yul\":13031:13061   */\n      swap4\n      pop\n        /* \"#utility.yul\":13104:13108   */\n      dup1\n        /* \"#utility.yul\":13094:13102   */\n      dup7\n        /* \"#utility.yul\":13090:13109   */\n      and\n        /* \"#utility.yul\":13083:13088   */\n      dup5\n        /* \"#utility.yul\":13080:13110   */\n      or\n        /* \"#utility.yul\":13070:13110   */\n      swap3\n      pop\n        /* \"#utility.yul\":12799:13116   */\n      pop\n      pop\n        /* \"#utility.yul\":12723:13116   */\n      swap4\n      swap3\n      pop\n      pop\n      pop\n      jump\t// out\n        /* \"#utility.yul\":13122:13264   */\n    tag_225:\n        /* \"#utility.yul\":13172:13181   */\n      0x00\n        /* \"#utility.yul\":13205:13258   */\n      tag_375\n        /* \"#utility.yul\":13223:13257   */\n      tag_376\n        /* \"#utility.yul\":13232:13256   */\n      tag_377\n        /* \"#utility.yul\":13250:13255   */\n      dup5\n        /* \"#utility.yul\":13232:13256   */\n      tag_197\n      jump\t// in\n    tag_377:\n        /* \"#utility.yul\":13223:13257   */\n      tag_209\n      jump\t// in\n    tag_376:\n        /* \"#utility.yul\":13205:13258   */\n      tag_197\n      jump\t// in\n    tag_375:\n        /* \"#utility.yul\":13192:13258   */\n      swap1\n      pop\n        /* \"#utility.yul\":13122:13264   */\n      swap2\n      swap1\n      pop\n      jump\t// out\n        /* \"#utility.yul\":13270:13345   */\n    tag_226:\n        /* \"#utility.yul\":13313:13316   */\n      0x00\n        /* \"#utility.yul\":13334:13339   */\n      dup2\n        /* \"#utility.yul\":13327:13339   */\n      swap1\n      pop\n        /* \"#utility.yul\":13270:13345   */\n      swap2\n      swap1\n      pop\n      jump\t// out\n        /* \"#utility.yul\":13351:13620   */\n    tag_227:\n        /* \"#utility.yul\":13461:13500   */\n      tag_380\n        /* \"#utility.yul\":13492:13499   */\n      dup4\n        /* \"#utility.yul\":13461:13500   */\n      tag_225\n      jump\t// in\n    tag_380:\n        /* \"#utility.yul\":13522:13613   */\n      tag_381\n        /* \"#utility.yul\":13571:13612   */\n      tag_382\n        /* \"#utility.yul\":13595:13611   */\n      dup3\n        /* \"#utility.yul\":13571:13612   */\n      tag_226\n      jump\t// in\n    tag_382:\n        /* \"#utility.yul\":13563:13569   */\n      dup5\n        /* \"#utility.yul\":13556:13560   */\n      dup5\n        /* \"#utility.yul\":13550:13561   */\n      sload\n        /* \"#utility.yul\":13522:13613   */\n      tag_224\n      jump\t// in\n    tag_381:\n        /* \"#utility.yul\":13516:13520   */\n      dup3\n        /* \"#utility.yul\":13509:13614   */\n      sstore\n        /* \"#utility.yul\":13427:13620   */\n      pop\n        /* \"#utility.yul\":13351:13620   */\n      pop\n      pop\n      pop\n      jump\t// out\n        /* \"#utility.yul\":13626:13699   */\n    tag_228:\n        /* \"#utility.yul\":13671:13674   */\n      0x00\n        /* \"#utility.yul\":13692:13693   */\n      0x00\n        /* \"#utility.yul\":13685:13693   */\n      swap1\n      pop\n        /* \"#utility.yul\":13626:13699   */\n      swap1\n      jump\t// out\n        /* \"#utility.yul\":13705:13894   */\n    tag_229:\n        /* \"#utility.yul\":13782:13814   */\n      tag_385\n      tag_228\n      jump\t// in\n    tag_385:\n        /* \"#utility.yul\":13823:13888   */\n      tag_386\n        /* \"#utility.yul\":13881:13887   */\n      dup2\n        /* \"#utility.yul\":13873:13879   */\n      dup5\n        /* \"#utility.yul\":13867:13871   */\n      dup5\n        /* \"#utility.yul\":13823:13888   */\n      tag_227\n      jump\t// in\n    tag_386:\n        /* \"#utility.yul\":13758:13894   */\n      pop\n        /* \"#utility.yul\":13705:13894   */\n      pop\n      pop\n      jump\t// out\n        /* \"#utility.yul\":13900:14086   */\n    tag_230:\n        /* \"#utility.yul\":13960:14080   */\n    tag_388:\n        /* \"#utility.yul\":13977:13980   */\n      dup2\n        /* \"#utility.yul\":13970:13975   */\n      dup2\n        /* \"#utility.yul\":13967:13981   */\n      lt\n        /* \"#utility.yul\":13960:14080   */\n      iszero\n      tag_390\n      jumpi\n        /* \"#utility.yul\":14031:14070   */\n      tag_391\n        /* \"#utility.yul\":14068:14069   */\n      0x00\n        /* \"#utility.yul\":14061:14066   */\n      dup3\n        /* \"#utility.yul\":14031:14070   */\n      tag_229\n      jump\t// in\n    tag_391:\n        /* \"#utility.yul\":14004:14005   */\n      0x01\n        /* \"#utility.yul\":13997:14002   */\n      dup2\n        /* \"#utility.yul\":13993:14006   */\n      add\n        /* \"#utility.yul\":13984:14006   */\n      swap1\n      pop\n        /* \"#utility.yul\":13960:14080   */\n      jump(tag_388)\n    tag_390:\n        /* \"#utility.yul\":13900:14086   */\n      pop\n      pop\n      jump\t// out\n        /* \"#utility.yul\":14092:14635   */\n    tag_231:\n        /* \"#utility.yul\":14193:14195   */\n      0x1f\n        /* \"#utility.yul\":14188:14191   */\n      dup3\n        /* \"#utility.yul\":14185:14196   */\n      gt\n        /* \"#utility.yul\":14182:14628   */\n      iszero\n      tag_393\n      jumpi\n        /* \"#utility.yul\":14227:14265   */\n      tag_394\n        /* \"#utility.yul\":14259:14264   */\n      dup2\n        /* \"#utility.yul\":14227:14265   */\n      tag_221\n      jump\t// in\n    tag_394:\n        /* \"#utility.yul\":14311:14340   */\n      tag_395\n        /* \"#utility.yul\":14329:14339   */\n      dup5\n        /* \"#utility.yul\":14311:14340   */\n      tag_222\n      jump\t// in\n    tag_395:\n        /* \"#utility.yul\":14301:14309   */\n      dup2\n        /* \"#utility.yul\":14297:14341   */\n      add\n        /* \"#utility.yul\":14494:14496   */\n      0x20\n        /* \"#utility.yul\":14482:14492   */\n      dup6\n        /* \"#utility.yul\":14479:14497   */\n      lt\n        /* \"#utility.yul\":14476:14525   */\n      iszero\n      tag_396\n      jumpi\n        /* \"#utility.yul\":14515:14523   */\n      dup2\n        /* \"#utility.yul\":14500:14523   */\n      swap1\n      pop\n        /* \"#utility.yul\":14476:14525   */\n    tag_396:\n        /* \"#utility.yul\":14538:14618   */\n      tag_397\n        /* \"#utility.yul\":14594:14616   */\n      tag_398\n        /* \"#utility.yul\":14612:14615   */\n      dup6\n        /* \"#utility.yul\":14594:14616   */\n      tag_222\n      jump\t// in\n    tag_398:\n        /* \"#utility.yul\":14584:14592   */\n      dup4\n        /* \"#utility.yul\":14580:14617   */\n      add\n        /* \"#utility.yul\":14567:14578   */\n      dup3\n        /* \"#utility.yul\":14538:14618   */\n      tag_230\n      jump\t// in\n    tag_397:\n        /* \"#utility.yul\":14197:14628   */\n      pop\n      pop\n        /* \"#utility.yul\":14182:14628   */\n    tag_393:\n        /* \"#utility.yul\":14092:14635   */\n      pop\n      pop\n      pop\n      jump\t// out\n        /* \"#utility.yul\":14641:14758   */\n    tag_232:\n        /* \"#utility.yul\":14695:14703   */\n      0x00\n        /* \"#utility.yul\":14745:14750   */\n      dup3\n        /* \"#utility.yul\":14739:14743   */\n      dup3\n        /* \"#utility.yul\":14735:14751   */\n      shr\n        /* \"#utility.yul\":14714:14751   */\n      swap1\n      pop\n        /* \"#utility.yul\":14641:14758   */\n      swap3\n      swap2\n      pop\n      pop\n      jump\t// out\n        /* \"#utility.yul\":14764:14933   */\n    tag_233:\n        /* \"#utility.yul\":14808:14814   */\n      0x00\n        /* \"#utility.yul\":14841:14892   */\n      tag_401\n        /* \"#utility.yul\":14889:14890   */\n      0x00\n        /* \"#utility.yul\":14885:14891   */\n      not\n        /* \"#utility.yul\":14877:14882   */\n      dup5\n        /* \"#utility.yul\":14874:14875   */\n      0x08\n        /* \"#utility.yul\":14870:14883   */\n      mul\n        /* \"#utility.yul\":14841:14892   */\n      tag_232\n      jump\t// in\n    tag_401:\n        /* \"#utility.yul\":14837:14893   */\n      not\n        /* \"#utility.yul\":14922:14926   */\n      dup1\n        /* \"#utility.yul\":14916:14920   */\n      dup4\n        /* \"#utility.yul\":14912:14927   */\n      and\n        /* \"#utility.yul\":14902:14927   */\n      swap2\n      pop\n        /* \"#utility.yul\":14815:14933   */\n      pop\n        /* \"#utility.yul\":14764:14933   */\n      swap3\n      swap2\n      pop\n      pop\n      jump\t// out\n        /* \"#utility.yul\":14938:15233   */\n    tag_234:\n        /* \"#utility.yul\":15014:15018   */\n      0x00\n        /* \"#utility.yul\":15160:15189   */\n      tag_403\n        /* \"#utility.yul\":15185:15188   */\n      dup4\n        /* \"#utility.yul\":15179:15183   */\n      dup4\n        /* \"#utility.yul\":15160:15189   */\n      tag_233\n      jump\t// in\n    tag_403:\n        /* \"#utility.yul\":15152:15189   */\n      swap2\n      pop\n        /* \"#utility.yul\":15222:15225   */\n      dup3\n        /* \"#utility.yul\":15219:15220   */\n      0x02\n        /* \"#utility.yul\":15215:15226   */\n      mul\n        /* \"#utility.yul\":15209:15213   */\n      dup3\n        /* \"#utility.yul\":15206:15227   */\n      or\n        /* \"#utility.yul\":15198:15227   */\n      swap1\n      pop\n        /* \"#utility.yul\":14938:15233   */\n      swap3\n      swap2\n      pop\n      pop\n      jump\t// out\n        /* \"#utility.yul\":15238:16633   */\n    tag_87:\n        /* \"#utility.yul\":15355:15392   */\n      tag_405\n        /* \"#utility.yul\":15388:15391   */\n      dup3\n        /* \"#utility.yul\":15355:15392   */\n      tag_200\n      jump\t// in\n    tag_405:\n        /* \"#utility.yul\":15457:15475   */\n      0xffffffffffffffff\n        /* \"#utility.yul\":15449:15455   */\n      dup2\n        /* \"#utility.yul\":15446:15476   */\n      gt\n        /* \"#utility.yul\":15443:15499   */\n      iszero\n      tag_406\n      jumpi\n        /* \"#utility.yul\":15479:15497   */\n      tag_407\n      tag_220\n      jump\t// in\n    tag_407:\n        /* \"#utility.yul\":15443:15499   */\n    tag_406:\n        /* \"#utility.yul\":15523:15561   */\n      tag_408\n        /* \"#utility.yul\":15555:15559   */\n      dup3\n        /* \"#utility.yul\":15549:15560   */\n      sload\n        /* \"#utility.yul\":15523:15561   */\n      tag_73\n      jump\t// in\n    tag_408:\n        /* \"#utility.yul\":15608:15675   */\n      tag_409\n        /* \"#utility.yul\":15668:15674   */\n      dup3\n        /* \"#utility.yul\":15660:15666   */\n      dup3\n        /* \"#utility.yul\":15654:15658   */\n      dup6\n        /* \"#utility.yul\":15608:15675   */\n      tag_231\n      jump\t// in\n    tag_409:\n        /* \"#utility.yul\":15702:15703   */\n      0x00\n        /* \"#utility.yul\":15726:15730   */\n      0x20\n        /* \"#utility.yul\":15713:15730   */\n      swap1\n      pop\n        /* \"#utility.yul\":15758:15760   */\n      0x1f\n        /* \"#utility.yul\":15750:15756   */\n      dup4\n        /* \"#utility.yul\":15747:15761   */\n      gt\n        /* \"#utility.yul\":15775:15776   */\n      0x01\n        /* \"#utility.yul\":15770:16388   */\n      dup2\n      eq\n      tag_411\n      jumpi\n        /* \"#utility.yul\":16432:16433   */\n      0x00\n        /* \"#utility.yul\":16449:16455   */\n      dup5\n        /* \"#utility.yul\":16446:16523   */\n      iszero\n      tag_412\n      jumpi\n        /* \"#utility.yul\":16498:16507   */\n      dup3\n        /* \"#utility.yul\":16493:16496   */\n      dup8\n        /* \"#utility.yul\":16489:16508   */\n      add\n        /* \"#utility.yul\":16483:16509   */\n      mload\n        /* \"#utility.yul\":16474:16509   */\n      swap1\n      pop\n        /* \"#utility.yul\":16446:16523   */\n    tag_412:\n        /* \"#utility.yul\":16549:16616   */\n      tag_413\n        /* \"#utility.yul\":16609:16615   */\n      dup6\n        /* \"#utility.yul\":16602:16607   */\n      dup3\n        /* \"#utility.yul\":16549:16616   */\n      tag_234\n      jump\t// in\n    tag_413:\n        /* \"#utility.yul\":16543:16547   */\n      dup7\n        /* \"#utility.yul\":16536:16617   */\n      sstore\n        /* \"#utility.yul\":16405:16627   */\n      pop\n        /* \"#utility.yul\":15740:16627   */\n      jump(tag_410)\n        /* \"#utility.yul\":15770:16388   */\n    tag_411:\n        /* \"#utility.yul\":15822:15826   */\n      0x1f\n        /* \"#utility.yul\":15818:15827   */\n      not\n        /* \"#utility.yul\":15810:15816   */\n      dup5\n        /* \"#utility.yul\":15806:15828   */\n      and\n        /* \"#utility.yul\":15856:15893   */\n      tag_414\n        /* \"#utility.yul\":15888:15892   */\n      dup7\n        /* \"#utility.yul\":15856:15893   */\n      tag_221\n      jump\t// in\n    tag_414:\n        /* \"#utility.yul\":15915:15916   */\n      0x00\n        /* \"#utility.yul\":15929:16137   */\n    tag_415:\n        /* \"#utility.yul\":15943:15950   */\n      dup3\n        /* \"#utility.yul\":15940:15941   */\n      dup2\n        /* \"#utility.yul\":15937:15951   */\n      lt\n        /* \"#utility.yul\":15929:16137   */\n      iszero\n      tag_417\n      jumpi\n        /* \"#utility.yul\":16022:16031   */\n      dup5\n        /* \"#utility.yul\":16017:16020   */\n      dup10\n        /* \"#utility.yul\":16013:16032   */\n      add\n        /* \"#utility.yul\":16007:16033   */\n      mload\n        /* \"#utility.yul\":15999:16005   */\n      dup3\n        /* \"#utility.yul\":15992:16034   */\n      sstore\n        /* \"#utility.yul\":16073:16074   */\n      0x01\n        /* \"#utility.yul\":16065:16071   */\n      dup3\n        /* \"#utility.yul\":16061:16075   */\n      add\n        /* \"#utility.yul\":16051:16075   */\n      swap2\n      pop\n        /* \"#utility.yul\":16120:16122   */\n      0x20\n        /* \"#utility.yul\":16109:16118   */\n      dup6\n        /* \"#utility.yul\":16105:16123   */\n      add\n        /* \"#utility.yul\":16092:16123   */\n      swap5\n      pop\n        /* \"#utility.yul\":15966:15970   */\n      0x20\n        /* \"#utility.yul\":15963:15964   */\n      dup2\n        /* \"#utility.yul\":15959:15971   */\n      add\n        /* \"#utility.yul\":15954:15971   */\n      swap1\n      pop\n        /* \"#utility.yul\":15929:16137   */\n      jump(tag_415)\n    tag_417:\n        /* \"#utility.yul\":16165:16171   */\n      dup7\n        /* \"#utility.yul\":16156:16163   */\n      dup4\n        /* \"#utility.yul\":16153:16172   */\n      lt\n        /* \"#utility.yul\":16150:16329   */\n      iszero\n      tag_418\n      jumpi\n        /* \"#utility.yul\":16223:16232   */\n      dup5\n        /* \"#utility.yul\":16218:16221   */\n      dup10\n        /* \"#utility.yul\":16214:16233   */\n      add\n        /* \"#utility.yul\":16208:16234   */\n      mload\n        /* \"#utility.yul\":16266:16314   */\n      tag_419\n        /* \"#utility.yul\":16308:16312   */\n      0x1f\n        /* \"#utility.yul\":16300:16306   */\n      dup10\n        /* \"#utility.yul\":16296:16313   */\n      and\n        /* \"#utility.yul\":16285:16294   */\n      dup3\n        /* \"#utility.yul\":16266:16314   */\n      tag_233\n      jump\t// in\n    tag_419:\n        /* \"#utility.yul\":16258:16264   */\n      dup4\n        /* \"#utility.yul\":16251:16315   */\n      sstore\n        /* \"#utility.yul\":16173:16329   */\n      pop\n        /* \"#utility.yul\":16150:16329   */\n    tag_418:\n        /* \"#utility.yul\":16375:16376   */\n      0x01\n        /* \"#utility.yul\":16371:16372   */\n      0x02\n        /* \"#utility.yul\":16363:16369   */\n      dup9\n        /* \"#utility.yul\":16359:16373   */\n      mul\n        /* \"#utility.yul\":16355:16377   */\n      add\n        /* \"#utility.yul\":16349:16353   */\n      dup9\n        /* \"#utility.yul\":16342:16378   */\n      sstore\n        /* \"#utility.yul\":15777:16388   */\n      pop\n      pop\n      pop\n        /* \"#utility.yul\":15740:16627   */\n    tag_410:\n      pop\n        /* \"#utility.yul\":15330:16633   */\n      pop\n      pop\n      pop\n        /* \"#utility.yul\":15238:16633   */\n      pop\n      pop\n      jump\t// out\n        /* \"#utility.yul\":16639:16779   */\n    tag_235:\n        /* \"#utility.yul\":16687:16691   */\n      0x00\n        /* \"#utility.yul\":16710:16713   */\n      dup2\n        /* \"#utility.yul\":16702:16713   */\n      swap1\n      pop\n        /* \"#utility.yul\":16733:16736   */\n      dup2\n        /* \"#utility.yul\":16730:16731   */\n      0x00\n        /* \"#utility.yul\":16723:16737   */\n      mstore\n        /* \"#utility.yul\":16767:16771   */\n      0x20\n        /* \"#utility.yul\":16764:16765   */\n      0x00\n        /* \"#utility.yul\":16754:16772   */\n      keccak256\n        /* \"#utility.yul\":16746:16772   */\n      swap1\n      pop\n        /* \"#utility.yul\":16639:16779   */\n      swap2\n      swap1\n      pop\n      jump\t// out\n        /* \"#utility.yul\":16785:17326   */\n    tag_236:\n        /* \"#utility.yul\":16885:16887   */\n      0x1f\n        /* \"#utility.yul\":16880:16883   */\n      dup3\n        /* \"#utility.yul\":16877:16888   */\n      gt\n        /* \"#utility.yul\":16874:17319   */\n      iszero\n      tag_422\n      jumpi\n        /* \"#utility.yul\":16919:16956   */\n      tag_423\n        /* \"#utility.yul\":16950:16955   */\n      dup2\n        /* \"#utility.yul\":16919:16956   */\n      tag_235\n      jump\t// in\n    tag_423:\n        /* \"#utility.yul\":17002:17031   */\n      tag_424\n        /* \"#utility.yul\":17020:17030   */\n      dup5\n        /* \"#utility.yul\":17002:17031   */\n      tag_222\n      jump\t// in\n    tag_424:\n        /* \"#utility.yul\":16992:17000   */\n      dup2\n        /* \"#utility.yul\":16988:17032   */\n      add\n        /* \"#utility.yul\":17185:17187   */\n      0x20\n        /* \"#utility.yul\":17173:17183   */\n      dup6\n        /* \"#utility.yul\":17170:17188   */\n      lt\n        /* \"#utility.yul\":17167:17216   */\n      iszero\n      tag_425\n      jumpi\n        /* \"#utility.yul\":17206:17214   */\n      dup2\n        /* \"#utility.yul\":17191:17214   */\n      swap1\n      pop\n        /* \"#utility.yul\":17167:17216   */\n    tag_425:\n        /* \"#utility.yul\":17229:17309   */\n      tag_426\n        /* \"#utility.yul\":17285:17307   */\n      tag_427\n        /* \"#utility.yul\":17303:17306   */\n      dup6\n        /* \"#utility.yul\":17285:17307   */\n      tag_222\n      jump\t// in\n    tag_427:\n        /* \"#utility.yul\":17275:17283   */\n      dup4\n        /* \"#utility.yul\":17271:17308   */\n      add\n        /* \"#utility.yul\":17258:17269   */\n      dup3\n        /* \"#utility.yul\":17229:17309   */\n      tag_230\n      jump\t// in\n    tag_426:\n        /* \"#utility.yul\":16889:17319   */\n      pop\n      pop\n        /* \"#utility.yul\":16874:17319   */\n    tag_422:\n        /* \"#utility.yul\":16785:17326   */\n      pop\n      pop\n      pop\n      jump\t// out\n        /* \"#utility.yul\":17332:18722   */\n    tag_90:\n        /* \"#utility.yul\":17447:17483   */\n      tag_429\n        /* \"#utility.yul\":17479:17482   */\n      dup3\n        /* \"#utility.yul\":17447:17483   */\n      tag_191\n      jump\t// in\n    tag_429:\n        /* \"#utility.yul\":17548:17566   */\n      0xffffffffffffffff\n        /* \"#utility.yul\":17540:17546   */\n      dup2\n        /* \"#utility.yul\":17537:17567   */\n      gt\n        /* \"#utility.yul\":17534:17590   */\n      iszero\n      tag_430\n      jumpi\n        /* \"#utility.yul\":17570:17588   */\n      tag_431\n      tag_220\n      jump\t// in\n    tag_431:\n        /* \"#utility.yul\":17534:17590   */\n    tag_430:\n        /* \"#utility.yul\":17614:17652   */\n      tag_432\n        /* \"#utility.yul\":17646:17650   */\n      dup3\n        /* \"#utility.yul\":17640:17651   */\n      sload\n        /* \"#utility.yul\":17614:17652   */\n      tag_73\n      jump\t// in\n    tag_432:\n        /* \"#utility.yul\":17699:17765   */\n      tag_433\n        /* \"#utility.yul\":17758:17764   */\n      dup3\n        /* \"#utility.yul\":17750:17756   */\n      dup3\n        /* \"#utility.yul\":17744:17748   */\n      dup6\n        /* \"#utility.yul\":17699:17765   */\n      tag_236\n      jump\t// in\n    tag_433:\n        /* \"#utility.yul\":17792:17793   */\n      0x00\n        /* \"#utility.yul\":17816:17820   */\n      0x20\n        /* \"#utility.yul\":17803:17820   */\n      swap1\n      pop\n        /* \"#utility.yul\":17848:17850   */\n      0x1f\n        /* \"#utility.yul\":17840:17846   */\n      dup4\n        /* \"#utility.yul\":17837:17851   */\n      gt\n        /* \"#utility.yul\":17865:17866   */\n      0x01\n        /* \"#utility.yul\":17860:18477   */\n      dup2\n      eq\n      tag_435\n      jumpi\n        /* \"#utility.yul\":18521:18522   */\n      0x00\n        /* \"#utility.yul\":18538:18544   */\n      dup5\n        /* \"#utility.yul\":18535:18612   */\n      iszero\n      tag_436\n      jumpi\n        /* \"#utility.yul\":18587:18596   */\n      dup3\n        /* \"#utility.yul\":18582:18585   */\n      dup8\n        /* \"#utility.yul\":18578:18597   */\n      add\n        /* \"#utility.yul\":18572:18598   */\n      mload\n        /* \"#utility.yul\":18563:18598   */\n      swap1\n      pop\n        /* \"#utility.yul\":18535:18612   */\n    tag_436:\n        /* \"#utility.yul\":18638:18705   */\n      tag_437\n        /* \"#utility.yul\":18698:18704   */\n      dup6\n        /* \"#utility.yul\":18691:18696   */\n      dup3\n        /* \"#utility.yul\":18638:18705   */\n      tag_234\n      jump\t// in\n    tag_437:\n        /* \"#utility.yul\":18632:18636   */\n      dup7\n        /* \"#utility.yul\":18625:18706   */\n      sstore\n        /* \"#utility.yul\":18494:18716   */\n      pop\n        /* \"#utility.yul\":17830:18716   */\n      jump(tag_434)\n        /* \"#utility.yul\":17860:18477   */\n    tag_435:\n        /* \"#utility.yul\":17912:17916   */\n      0x1f\n        /* \"#utility.yul\":17908:17917   */\n      not\n        /* \"#utility.yul\":17900:17906   */\n      dup5\n        /* \"#utility.yul\":17896:17918   */\n      and\n        /* \"#utility.yul\":17946:17982   */\n      tag_438\n        /* \"#utility.yul\":17977:17981   */\n      dup7\n        /* \"#utility.yul\":17946:17982   */\n      tag_235\n      jump\t// in\n    tag_438:\n        /* \"#utility.yul\":18004:18005   */\n      0x00\n        /* \"#utility.yul\":18018:18226   */\n    tag_439:\n        /* \"#utility.yul\":18032:18039   */\n      dup3\n        /* \"#utility.yul\":18029:18030   */\n      dup2\n        /* \"#utility.yul\":18026:18040   */\n      lt\n        /* \"#utility.yul\":18018:18226   */\n      iszero\n      tag_441\n      jumpi\n        /* \"#utility.yul\":18111:18120   */\n      dup5\n        /* \"#utility.yul\":18106:18109   */\n      dup10\n        /* \"#utility.yul\":18102:18121   */\n      add\n        /* \"#utility.yul\":18096:18122   */\n      mload\n        /* \"#utility.yul\":18088:18094   */\n      dup3\n        /* \"#utility.yul\":18081:18123   */\n      sstore\n        /* \"#utility.yul\":18162:18163   */\n      0x01\n        /* \"#utility.yul\":18154:18160   */\n      dup3\n        /* \"#utility.yul\":18150:18164   */\n      add\n        /* \"#utility.yul\":18140:18164   */\n      swap2\n      pop\n        /* \"#utility.yul\":18209:18211   */\n      0x20\n        /* \"#utility.yul\":18198:18207   */\n      dup6\n        /* \"#utility.yul\":18194:18212   */\n      add\n        /* \"#utility.yul\":18181:18212   */\n      swap5\n      pop\n        /* \"#utility.yul\":18055:18059   */\n      0x20\n        /* \"#utility.yul\":18052:18053   */\n      dup2\n        /* \"#utility.yul\":18048:18060   */\n      add\n        /* \"#utility.yul\":18043:18060   */\n      swap1\n      pop\n        /* \"#utility.yul\":18018:18226   */\n      jump(tag_439)\n    tag_441:\n        /* \"#utility.yul\":18254:18260   */\n      dup7\n        /* \"#utility.yul\":18245:18252   */\n      dup4\n        /* \"#utility.yul\":18242:18261   */\n      lt\n        /* \"#utility.yul\":18239:18418   */\n      iszero\n      tag_442\n      jumpi\n        /* \"#utility.yul\":18312:18321   */\n      dup5\n        /* \"#utility.yul\":18307:18310   */\n      dup10\n        /* \"#utility.yul\":18303:18322   */\n      add\n        /* \"#utility.yul\":18297:18323   */\n      mload\n        /* \"#utility.yul\":18355:18403   */\n      tag_443\n        /* \"#utility.yul\":18397:18401   */\n      0x1f\n        /* \"#utility.yul\":18389:18395   */\n      dup10\n        /* \"#utility.yul\":18385:18402   */\n      and\n        /* \"#utility.yul\":18374:18383   */\n      dup3\n        /* \"#utility.yul\":18355:18403   */\n      tag_233\n      jump\t// in\n    tag_443:\n        /* \"#utility.yul\":18347:18353   */\n      dup4\n        /* \"#utility.yul\":18340:18404   */\n      sstore\n        /* \"#utility.yul\":18262:18418   */\n      pop\n        /* \"#utility.yul\":18239:18418   */\n    tag_442:\n        /* \"#utility.yul\":18464:18465   */\n      0x01\n        /* \"#utility.yul\":18460:18461   */\n      0x02\n        /* \"#utility.yul\":18452:18458   */\n      dup9\n        /* \"#utility.yul\":18448:18462   */\n      mul\n        /* \"#utility.yul\":18444:18466   */\n      add\n        /* \"#utility.yul\":18438:18442   */\n      dup9\n        /* \"#utility.yul\":18431:18467   */\n      sstore\n        /* \"#utility.yul\":17867:18477   */\n      pop\n      pop\n      pop\n        /* \"#utility.yul\":17830:18716   */\n    tag_434:\n      pop\n        /* \"#utility.yul\":17422:18722   */\n      pop\n      pop\n      pop\n        /* \"#utility.yul\":17332:18722   */\n      pop\n      pop\n      jump\t// out\n        /* \"#utility.yul\":18728:18888   */\n    tag_237:\n        /* \"#utility.yul\":18868:18880   */\n      0x4f6e6c79206f776e657200000000000000000000000000000000000000000000\n        /* \"#utility.yul\":18864:18865   */\n      0x00\n        /* \"#utility.yul\":18856:18862   */\n      dup3\n        /* \"#utility.yul\":18852:18866   */\n      add\n        /* \"#utility.yul\":18845:18881   */\n      mstore\n        /* \"#utility.yul\":18728:18888   */\n      pop\n      jump\t// out\n        /* \"#utility.yul\":18894:19260   */\n    tag_238:\n        /* \"#utility.yul\":19036:19039   */\n      0x00\n        /* \"#utility.yul\":19057:19124   */\n      tag_446\n        /* \"#utility.yul\":19121:19123   */\n      0x0a\n        /* \"#utility.yul\":19116:19119   */\n      dup4\n        /* \"#utility.yul\":19057:19124   */\n      tag_201\n      jump\t// in\n    tag_446:\n        /* \"#utility.yul\":19050:19124   */\n      swap2\n      pop\n        /* \"#utility.yul\":19133:19226   */\n      tag_447\n        /* \"#utility.yul\":19222:19225   */\n      dup3\n        /* \"#utility.yul\":19133:19226   */\n      tag_237\n      jump\t// in\n    tag_447:\n        /* \"#utility.yul\":19251:19253   */\n      0x20\n        /* \"#utility.yul\":19246:19249   */\n      dup3\n        /* \"#utility.yul\":19242:19254   */\n      add\n        /* \"#utility.yul\":19235:19254   */\n      swap1\n      pop\n        /* \"#utility.yul\":18894:19260   */\n      swap2\n      swap1\n      pop\n      jump\t// out\n        /* \"#utility.yul\":19266:19685   */\n    tag_114:\n        /* \"#utility.yul\":19432:19436   */\n      0x00\n        /* \"#utility.yul\":19470:19472   */\n      0x20\n        /* \"#utility.yul\":19459:19468   */\n      dup3\n        /* \"#utility.yul\":19455:19473   */\n      add\n        /* \"#utility.yul\":19447:19473   */\n      swap1\n      pop\n        /* \"#utility.yul\":19519:19528   */\n      dup2\n        /* \"#utility.yul\":19513:19517   */\n      dup2\n        /* \"#utility.yul\":19509:19529   */\n      sub\n        /* \"#utility.yul\":19505:19506   */\n      0x00\n        /* \"#utility.yul\":19494:19503   */\n      dup4\n        /* \"#utility.yul\":19490:19507   */\n      add\n        /* \"#utility.yul\":19483:19530   */\n      mstore\n        /* \"#utility.yul\":19547:19678   */\n      tag_449\n        /* \"#utility.yul\":19673:19677   */\n      dup2\n        /* \"#utility.yul\":19547:19678   */\n      tag_238\n      jump\t// in\n    tag_449:\n        /* \"#utility.yul\":19539:19678   */\n      swap1\n      pop\n        /* \"#utility.yul\":19266:19685   */\n      swap2\n      swap1\n      pop\n      jump\t// out\n        /* \"#utility.yul\":19691:19787   */\n    tag_239:\n        /* \"#utility.yul\":19749:19755   */\n      0x00\n        /* \"#utility.yul\":19777:19780   */\n      dup3\n        /* \"#utility.yul\":19767:19780   */\n      swap1\n      pop\n        /* \"#utility.yul\":19691:19787   */\n      swap3\n      swap2\n      pop\n      pop\n      jump\t// out\n        /* \"#utility.yul\":19793:21191   */\n    tag_122:\n        /* \"#utility.yul\":19915:19958   */\n      tag_452\n        /* \"#utility.yul\":19954:19957   */\n      dup4\n        /* \"#utility.yul\":19949:19952   */\n      dup4\n        /* \"#utility.yul\":19915:19958   */\n      tag_239\n      jump\t// in\n    tag_452:\n        /* \"#utility.yul\":20023:20041   */\n      0xffffffffffffffff\n        /* \"#utility.yul\":20015:20021   */\n      dup2\n        /* \"#utility.yul\":20012:20042   */\n      gt\n        /* \"#utility.yul\":20009:20065   */\n      iszero\n      tag_453\n      jumpi\n        /* \"#utility.yul\":20045:20063   */\n      tag_454\n      tag_220\n      jump\t// in\n    tag_454:\n        /* \"#utility.yul\":20009:20065   */\n    tag_453:\n        /* \"#utility.yul\":20089:20127   */\n      tag_455\n        /* \"#utility.yul\":20121:20125   */\n      dup3\n        /* \"#utility.yul\":20115:20126   */\n      sload\n        /* \"#utility.yul\":20089:20127   */\n      tag_73\n      jump\t// in\n    tag_455:\n        /* \"#utility.yul\":20174:20240   */\n      tag_456\n        /* \"#utility.yul\":20233:20239   */\n      dup3\n        /* \"#utility.yul\":20225:20231   */\n      dup3\n        /* \"#utility.yul\":20219:20223   */\n      dup6\n        /* \"#utility.yul\":20174:20240   */\n      tag_236\n      jump\t// in\n    tag_456:\n        /* \"#utility.yul\":20267:20268   */\n      0x00\n        /* \"#utility.yul\":20296:20298   */\n      0x1f\n        /* \"#utility.yul\":20288:20294   */\n      dup4\n        /* \"#utility.yul\":20285:20299   */\n      gt\n        /* \"#utility.yul\":20313:20314   */\n      0x01\n        /* \"#utility.yul\":20308:20939   */\n      dup2\n      eq\n      tag_458\n      jumpi\n        /* \"#utility.yul\":20983:20984   */\n      0x00\n        /* \"#utility.yul\":21000:21006   */\n      dup5\n        /* \"#utility.yul\":20997:21081   */\n      iszero\n      tag_459\n      jumpi\n        /* \"#utility.yul\":21056:21065   */\n      dup3\n        /* \"#utility.yul\":21051:21054   */\n      dup8\n        /* \"#utility.yul\":21047:21066   */\n      add\n        /* \"#utility.yul\":21034:21067   */\n      calldataload\n        /* \"#utility.yul\":21025:21067   */\n      swap1\n      pop\n        /* \"#utility.yul\":20997:21081   */\n    tag_459:\n        /* \"#utility.yul\":21107:21174   */\n      tag_460\n        /* \"#utility.yul\":21167:21173   */\n      dup6\n        /* \"#utility.yul\":21160:21165   */\n      dup3\n        /* \"#utility.yul\":21107:21174   */\n      tag_234\n      jump\t// in\n    tag_460:\n        /* \"#utility.yul\":21101:21105   */\n      dup7\n        /* \"#utility.yul\":21094:21175   */\n      sstore\n        /* \"#utility.yul\":20956:21185   */\n      pop\n        /* \"#utility.yul\":20278:21185   */\n      jump(tag_457)\n        /* \"#utility.yul\":20308:20939   */\n    tag_458:\n        /* \"#utility.yul\":20360:20364   */\n      0x1f\n        /* \"#utility.yul\":20356:20365   */\n      not\n        /* \"#utility.yul\":20348:20354   */\n      dup5\n        /* \"#utility.yul\":20344:20366   */\n      and\n        /* \"#utility.yul\":20394:20430   */\n      tag_461\n        /* \"#utility.yul\":20425:20429   */\n      dup7\n        /* \"#utility.yul\":20394:20430   */\n      tag_235\n      jump\t// in\n    tag_461:\n        /* \"#utility.yul\":20452:20453   */\n      0x00\n        /* \"#utility.yul\":20466:20681   */\n    tag_462:\n        /* \"#utility.yul\":20480:20487   */\n      dup3\n        /* \"#utility.yul\":20477:20478   */\n      dup2\n        /* \"#utility.yul\":20474:20488   */\n      lt\n        /* \"#utility.yul\":20466:20681   */\n      iszero\n      tag_464\n      jumpi\n        /* \"#utility.yul\":20566:20575   */\n      dup5\n        /* \"#utility.yul\":20561:20564   */\n      dup10\n        /* \"#utility.yul\":20557:20576   */\n      add\n        /* \"#utility.yul\":20544:20577   */\n      calldataload\n        /* \"#utility.yul\":20536:20542   */\n      dup3\n        /* \"#utility.yul\":20529:20578   */\n      sstore\n        /* \"#utility.yul\":20617:20618   */\n      0x01\n        /* \"#utility.yul\":20609:20615   */\n      dup3\n        /* \"#utility.yul\":20605:20619   */\n      add\n        /* \"#utility.yul\":20595:20619   */\n      swap2\n      pop\n        /* \"#utility.yul\":20664:20666   */\n      0x20\n        /* \"#utility.yul\":20653:20662   */\n      dup6\n        /* \"#utility.yul\":20649:20667   */\n      add\n        /* \"#utility.yul\":20636:20667   */\n      swap5\n      pop\n        /* \"#utility.yul\":20503:20507   */\n      0x20\n        /* \"#utility.yul\":20500:20501   */\n      dup2\n        /* \"#utility.yul\":20496:20508   */\n      add\n        /* \"#utility.yul\":20491:20508   */\n      swap1\n      pop\n        /* \"#utility.yul\":20466:20681   */\n      jump(tag_462)\n    tag_464:\n        /* \"#utility.yul\":20709:20715   */\n      dup7\n        /* \"#utility.yul\":20700:20707   */\n      dup4\n        /* \"#utility.yul\":20697:20716   */\n      lt\n        /* \"#utility.yul\":20694:20880   */\n      iszero\n      tag_465\n      jumpi\n        /* \"#utility.yul\":20774:20783   */\n      dup5\n        /* \"#utility.yul\":20769:20772   */\n      dup10\n        /* \"#utility.yul\":20765:20784   */\n      add\n        /* \"#utility.yul\":20752:20785   */\n      calldataload\n        /* \"#utility.yul\":20817:20865   */\n      tag_466\n        /* \"#utility.yul\":20859:20863   */\n      0x1f\n        /* \"#utility.yul\":20851:20857   */\n      dup10\n        /* \"#utility.yul\":20847:20864   */\n      and\n        /* \"#utility.yul\":20836:20845   */\n      dup3\n        /* \"#utility.yul\":20817:20865   */\n      tag_233\n      jump\t// in\n    tag_466:\n        /* \"#utility.yul\":20809:20815   */\n      dup4\n        /* \"#utility.yul\":20802:20866   */\n      sstore\n        /* \"#utility.yul\":20717:20880   */\n      pop\n        /* \"#utility.yul\":20694:20880   */\n    tag_465:\n        /* \"#utility.yul\":20926:20927   */\n      0x01\n        /* \"#utility.yul\":20922:20923   */\n      0x02\n        /* \"#utility.yul\":20914:20920   */\n      dup9\n        /* \"#utility.yul\":20910:20924   */\n      mul\n        /* \"#utility.yul\":20906:20928   */\n      add\n        /* \"#utility.yul\":20900:20904   */\n      dup9\n        /* \"#utility.yul\":20893:20929   */\n      sstore\n        /* \"#utility.yul\":20315:20939   */\n      pop\n      pop\n      pop\n        /* \"#utility.yul\":20278:21185   */\n    tag_457:\n      pop\n        /* \"#utility.yul\":19890:21191   */\n      pop\n      pop\n      pop\n        /* \"#utility.yul\":19793:21191   */\n      pop\n      pop\n      pop\n      jump\t// out\n        /* \"#utility.yul\":21197:21340   */\n    tag_240:\n        /* \"#utility.yul\":21254:21259   */\n      0x00\n        /* \"#utility.yul\":21285:21291   */\n      dup2\n        /* \"#utility.yul\":21279:21292   */\n      mload\n        /* \"#utility.yul\":21270:21292   */\n      swap1\n      pop\n        /* \"#utility.yul\":21301:21334   */\n      tag_468\n        /* \"#utility.yul\":21328:21333   */\n      dup2\n        /* \"#utility.yul\":21301:21334   */\n      tag_198\n      jump\t// in\n    tag_468:\n        /* \"#utility.yul\":21197:21340   */\n      swap3\n      swap2\n      pop\n      pop\n      jump\t// out\n        /* \"#utility.yul\":21346:21697   */\n    tag_131:\n        /* \"#utility.yul\":21416:21422   */\n      0x00\n        /* \"#utility.yul\":21465:21467   */\n      0x20\n        /* \"#utility.yul\":21453:21462   */\n      dup3\n        /* \"#utility.yul\":21444:21451   */\n      dup5\n        /* \"#utility.yul\":21440:21463   */\n      sub\n        /* \"#utility.yul\":21436:21468   */\n      slt\n        /* \"#utility.yul\":21433:21552   */\n      iszero\n      tag_470\n      jumpi\n        /* \"#utility.yul\":21471:21550   */\n      tag_471\n      tag_185\n      jump\t// in\n    tag_471:\n        /* \"#utility.yul\":21433:21552   */\n    tag_470:\n        /* \"#utility.yul\":21591:21592   */\n      0x00\n        /* \"#utility.yul\":21616:21680   */\n      tag_472\n        /* \"#utility.yul\":21672:21679   */\n      dup5\n        /* \"#utility.yul\":21663:21669   */\n      dup3\n        /* \"#utility.yul\":21652:21661   */\n      dup6\n        /* \"#utility.yul\":21648:21670   */\n      add\n        /* \"#utility.yul\":21616:21680   */\n      tag_240\n      jump\t// in\n    tag_472:\n        /* \"#utility.yul\":21606:21680   */\n      swap2\n      pop\n        /* \"#utility.yul\":21562:21690   */\n      pop\n        /* \"#utility.yul\":21346:21697   */\n      swap3\n      swap2\n      pop\n      pop\n      jump\t// out\n        /* \"#utility.yul\":21703:21883   */\n    tag_138:\n        /* \"#utility.yul\":21751:21828   */\n      0x4e487b7100000000000000000000000000000000000000000000000000000000\n        /* \"#utility.yul\":21748:21749   */\n      0x00\n        /* \"#utility.yul\":21741:21829   */\n      mstore\n        /* \"#utility.yul\":21848:21852   */\n      0x32\n        /* \"#utility.yul\":21845:21846   */\n      0x04\n        /* \"#utility.yul\":21838:21853   */\n      mstore\n        /* \"#utility.yul\":21872:21876   */\n      0x24\n        /* \"#utility.yul\":21869:21870   */\n      0x00\n        /* \"#utility.yul\":21862:21877   */\n      revert\n        /* \"#utility.yul\":21889:22279   */\n    tag_241:\n        /* \"#utility.yul\":21995:21998   */\n      0x00\n        /* \"#utility.yul\":22023:22062   */\n      tag_475\n        /* \"#utility.yul\":22056:22061   */\n      dup3\n        /* \"#utility.yul\":22023:22062   */\n      tag_200\n      jump\t// in\n    tag_475:\n        /* \"#utility.yul\":22078:22167   */\n      tag_476\n        /* \"#utility.yul\":22160:22166   */\n      dup2\n        /* \"#utility.yul\":22155:22158   */\n      dup6\n        /* \"#utility.yul\":22078:22167   */\n      tag_214\n      jump\t// in\n    tag_476:\n        /* \"#utility.yul\":22071:22167   */\n      swap4\n      pop\n        /* \"#utility.yul\":22176:22241   */\n      tag_477\n        /* \"#utility.yul\":22234:22240   */\n      dup2\n        /* \"#utility.yul\":22229:22232   */\n      dup6\n        /* \"#utility.yul\":22222:22226   */\n      0x20\n        /* \"#utility.yul\":22215:22220   */\n      dup7\n        /* \"#utility.yul\":22211:22227   */\n      add\n        /* \"#utility.yul\":22176:22241   */\n      tag_193\n      jump\t// in\n    tag_477:\n        /* \"#utility.yul\":22266:22272   */\n      dup1\n        /* \"#utility.yul\":22261:22264   */\n      dup5\n        /* \"#utility.yul\":22257:22273   */\n      add\n        /* \"#utility.yul\":22250:22273   */\n      swap2\n      pop\n        /* \"#utility.yul\":21999:22279   */\n      pop\n        /* \"#utility.yul\":21889:22279   */\n      swap3\n      swap2\n      pop\n      pop\n      jump\t// out\n        /* \"#utility.yul\":22285:22560   */\n    tag_156:\n        /* \"#utility.yul\":22417:22420   */\n      0x00\n        /* \"#utility.yul\":22439:22534   */\n      tag_479\n        /* \"#utility.yul\":22530:22533   */\n      dup3\n        /* \"#utility.yul\":22521:22527   */\n      dup5\n        /* \"#utility.yul\":22439:22534   */\n      tag_241\n      jump\t// in\n    tag_479:\n        /* \"#utility.yul\":22432:22534   */\n      swap2\n      pop\n        /* \"#utility.yul\":22551:22554   */\n      dup2\n        /* \"#utility.yul\":22544:22554   */\n      swap1\n      pop\n        /* \"#utility.yul\":22285:22560   */\n      swap3\n      swap2\n      pop\n      pop\n      jump\t// out\n        /* \"#utility.yul\":22566:22898   */\n    tag_162:\n        /* \"#utility.yul\":22687:22691   */\n      0x00\n        /* \"#utility.yul\":22725:22727   */\n      0x40\n        /* \"#utility.yul\":22714:22723   */\n      dup3\n        /* \"#utility.yul\":22710:22728   */\n      add\n        /* \"#utility.yul\":22702:22728   */\n      swap1\n      pop\n        /* \"#utility.yul\":22738:22809   */\n      tag_481\n        /* \"#utility.yul\":22806:22807   */\n      0x00\n        /* \"#utility.yul\":22795:22804   */\n      dup4\n        /* \"#utility.yul\":22791:22808   */\n      add\n        /* \"#utility.yul\":22782:22788   */\n      dup6\n        /* \"#utility.yul\":22738:22809   */\n      tag_203\n      jump\t// in\n    tag_481:\n        /* \"#utility.yul\":22819:22891   */\n      tag_482\n        /* \"#utility.yul\":22887:22889   */\n      0x20\n        /* \"#utility.yul\":22876:22885   */\n      dup4\n        /* \"#utility.yul\":22872:22890   */\n      add\n        /* \"#utility.yul\":22863:22869   */\n      dup5\n        /* \"#utility.yul\":22819:22891   */\n      tag_203\n      jump\t// in\n    tag_482:\n        /* \"#utility.yul\":22566:22898   */\n      swap4\n      swap3\n      pop\n      pop\n      pop\n      jump\t// out\n\n    auxdata: 0xa2646970667358221220eaf14705953c7c57ce4398ed2ad3f9acd41071e18f2ce875f23a6870c5196e3c64736f6c634300081f0033\n}\n",
				"bytecode": {
					"linkReferences": {},
					"object": "6080604052348015600e575f5ffd5b503360055f6101000a81548173ffffffffffffffffffffffffffffffffffffffff021916908373ffffffffffffffffffffffffffffffffffffffff160217905550611b228061005c5f395ff3fe608060405234801561000f575f5ffd5b50600436106100cd575f3560e01c8063a6591cdf1161008a578063d4d59edb11610064578063d4d59edb146101ff578063d795ede11461021b578063e2d2bfe314610239578063ee6713df14610257576100cd565b8063a6591cdf146101a7578063a6ee9eb1146101c5578063abb2efdf146101e1576100cd565b806316f1adc1146100d15780632e057b9b146101015780633b6556bf1461011d578063750588cf1461014f5780638da5cb5b1461016d5780639aad69e71461018b575b5f5ffd5b6100eb60048036038101906100e69190610fab565b610275565b6040516100f89190611099565b60405180910390f35b61011b6004803603810190610116919061110e565b610346565b005b610137600480360381019061013291906111f1565b61059c565b6040516101469392919061126e565b60405180910390f35b610157610763565b60405161016491906112c7565b60405180910390f35b610175610769565b604051610182919061131f565b60405180910390f35b6101a560048036038101906101a09190611362565b61078e565b005b6101af6108a3565b6040516101bc919061131f565b60405180910390f35b6101df60048036038101906101da919061110e565b6108c8565b005b6101e96109ad565b6040516101f691906112c7565b60405180910390f35b61021960048036038101906102149190611362565b6109b2565b005b610223610ac7565b60405161023091906112c7565b60405180910390f35b610241610ad3565b60405161024e91906113e8565b60405180910390f35b61025f610af8565b60405161026c91906112c7565b60405180910390f35b60606007858560405161028992919061143d565b908152602001604051809103902083836040516102a792919061143d565b908152602001604051809103902080546102c090611482565b80601f01602080910402602001604051908101604052809291908181526020018280546102ec90611482565b80156103375780601f1061030e57610100808354040283529160200191610337565b820191905f5260205f20905b81548152906001019060200180831161031a57829003601f168201915b50505050509050949350505050565b60045f9054906101000a900473ffffffffffffffffffffffffffffffffffffffff1673ffffffffffffffffffffffffffffffffffffffff163373ffffffffffffffffffffffffffffffffffffffff16146103d5576040517f08c379a00000000000000000000000000000000000000000000000000000000081526004016103cc906114fc565b60405180910390fd5b6103dd610afe565b6006604051806060016040528088888080601f0160208091040260200160405190810160405280939291908181526020018383808284375f81840152601f19601f82011690508083019250505050505050815260200186868080601f0160208091040260200160405190810160405280939291908181526020018383808284375f81840152601f19601f82011690508083019250505050505050815260200184848080601f0160208091040260200160405190810160405280939291908181526020018383808284375f81840152601f19601f82011690508083019250505050505050815250908060018154018082558091505060019003905f5260205f2090600302015f909190919091505f820151815f0190816104fc91906116de565b50602082015181600101908161051291906116de565b5060408201518160020190816105289190611805565b505050838360405161053b92919061143d565b6040518091039020868660405161055392919061143d565b60405180910390207f1b9831f8fba460f180116967424398f8e8503bca4ff62445b6a6c5ea38d6ff5760035460405161058c91906112c7565b60405180910390a3505050505050565b600681815481106105ab575f80fd5b905f5260205f2090600302015f91509050805f0180546105ca90611482565b80601f01602080910402602001604051908101604052809291908181526020018280546105f690611482565b80156106415780601f1061061857610100808354040283529160200191610641565b820191905f5260205f20905b81548152906001019060200180831161062457829003601f168201915b50505050509080600101805461065690611482565b80601f016020809104026020016040519081016040528092919081815260200182805461068290611482565b80156106cd5780601f106106a4576101008083540402835291602001916106cd565b820191905f5260205f20905b8154815290600101906020018083116106b057829003601f168201915b5050505050908060020180546106e290611482565b80601f016020809104026020016040519081016040528092919081815260200182805461070e90611482565b80156107595780601f1061073057610100808354040283529160200191610759565b820191905f5260205f20905b81548152906001019060200180831161073c57829003601f168201915b5050505050905083565b60015481565b60055f9054906101000a900473ffffffffffffffffffffffffffffffffffffffff1681565b60055f9054906101000a900473ffffffffffffffffffffffffffffffffffffffff1673ffffffffffffffffffffffffffffffffffffffff163373ffffffffffffffffffffffffffffffffffffffff161461081d576040517f08c379a00000000000000000000000000000000000000000000000000000000081526004016108149061191e565b60405180910390fd5b8060045f6101000a81548173ffffffffffffffffffffffffffffffffffffffff021916908373ffffffffffffffffffffffffffffffffffffffff1602179055508073ffffffffffffffffffffffffffffffffffffffff167f2e8b6f15ca325edad1931b418450cd194daf93e7f40fe4a48d9b1b4bf2a8f06960405160405180910390a250565b60045f9054906101000a900473ffffffffffffffffffffffffffffffffffffffff1681565b60055f9054906101000a900473ffffffffffffffffffffffffffffffffffffffff1673ffffffffffffffffffffffffffffffffffffffff163373ffffffffffffffffffffffffffffffffffffffff1614610957576040517f08c379a000000000000000000000000000000000000000000000000000000000815260040161094e9061191e565b60405180910390fd5b81816007888860405161096b92919061143d565b9081526020016040518091039020868660405161098992919061143d565b908152602001604051809103902091826109a4929190611946565b50505050505050565b5f5481565b60055f9054906101000a900473ffffffffffffffffffffffffffffffffffffffff1673ffffffffffffffffffffffffffffffffffffffff163373ffffffffffffffffffffffffffffffffffffffff1614610a41576040517f08c379a0000000000000000000000000000000000000000000000000000000008152600401610a389061191e565b60405180910390fd5b8060025f6101000a81548173ffffffffffffffffffffffffffffffffffffffff021916908373ffffffffffffffffffffffffffffffffffffffff1602179055508073ffffffffffffffffffffffffffffffffffffffff167f4b9d66d8e64dff6d9d2728f9a38da9739d3cfdbe676fde05564aae22f850846560405160405180910390a250565b5f600680549050905090565b60025f9054906101000a900473ffffffffffffffffffffffffffffffffffffffff1681565b60035481565b5f60025f9054906101000a900473ffffffffffffffffffffffffffffffffffffffff1673ffffffffffffffffffffffffffffffffffffffff1663b97dd9e26040518163ffffffff1660e01b8152600401602060405180830381865afa158015610b69573d5f5f3e3d5ffd5b505050506040513d601f19601f82011682018060405250810190610b8d9190611a27565b9050600354811115610e46575f5f90505b600680549050811015610de9575f60068281548110610bc057610bbf611a52565b5b905f5260205f2090600302016040518060600160405290815f82018054610be690611482565b80601f0160208091040260200160405190810160405280929190818152602001828054610c1290611482565b8015610c5d5780601f10610c3457610100808354040283529160200191610c5d565b820191905f5260205f20905b815481529060010190602001808311610c4057829003601f168201915b50505050508152602001600182018054610c7690611482565b80601f0160208091040260200160405190810160405280929190818152602001828054610ca290611482565b8015610ced5780601f10610cc457610100808354040283529160200191610ced565b820191905f5260205f20905b815481529060010190602001808311610cd057829003601f168201915b50505050508152602001600282018054610d0690611482565b80601f0160208091040260200160405190810160405280929190818152602001828054610d3290611482565b8015610d7d5780601f10610d5457610100808354040283529160200191610d7d565b820191905f5260205f20905b815481529060010190602001808311610d6057829003601f168201915b505050505081525050905080604001516007825f0151604051610da09190611aaf565b90815260200160405180910390208260200151604051610dc09190611aaf565b90815260200160405180910390209081610dda9190611805565b50508080600101915050610b9e565b505f600680549050905060065f610e009190610e49565b6003547f1081f92591666e5fff3d8fd275844896c7116c7d6b875c80d51b9beac7893a98825f54604051610e35929190611ac5565b60405180910390a281600381905550505b50565b5080545f8255600302905f5260205f2090810190610e679190610e6a565b50565b5b80821115610ea9575f5f82015f610e829190610ead565b600182015f610e919190610ead565b600282015f610ea09190610eea565b50600301610e6b565b5090565b508054610eb990611482565b5f825580601f10610eca5750610ee7565b601f0160209004905f5260205f2090810190610ee69190610f27565b5b50565b508054610ef690611482565b5f825580601f10610f075750610f24565b601f0160209004905f5260205f2090810190610f239190610f27565b5b50565b5b80821115610f3e575f815f905550600101610f28565b5090565b5f5ffd5b5f5ffd5b5f5ffd5b5f5ffd5b5f5ffd5b5f5f83601f840112610f6b57610f6a610f4a565b5b8235905067ffffffffffffffff811115610f8857610f87610f4e565b5b602083019150836001820283011115610fa457610fa3610f52565b5b9250929050565b5f5f5f5f60408587031215610fc357610fc2610f42565b5b5f85013567ffffffffffffffff811115610fe057610fdf610f46565b5b610fec87828801610f56565b9450945050602085013567ffffffffffffffff81111561100f5761100e610f46565b5b61101b87828801610f56565b925092505092959194509250565b5f81519050919050565b5f82825260208201905092915050565b8281835e5f83830152505050565b5f601f19601f8301169050919050565b5f61106b82611029565b6110758185611033565b9350611085818560208601611043565b61108e81611051565b840191505092915050565b5f6020820190508181035f8301526110b18184611061565b905092915050565b5f5f83601f8401126110ce576110cd610f4a565b5b8235905067ffffffffffffffff8111156110eb576110ea610f4e565b5b60208301915083600182028301111561110757611106610f52565b5b9250929050565b5f5f5f5f5f5f6060878903121561112857611127610f42565b5b5f87013567ffffffffffffffff81111561114557611144610f46565b5b61115189828a01610f56565b9650965050602087013567ffffffffffffffff81111561117457611173610f46565b5b61118089828a01610f56565b9450945050604087013567ffffffffffffffff8111156111a3576111a2610f46565b5b6111af89828a016110b9565b92509250509295509295509295565b5f819050919050565b6111d0816111be565b81146111da575f5ffd5b50565b5f813590506111eb816111c7565b92915050565b5f6020828403121561120657611205610f42565b5b5f611213848285016111dd565b91505092915050565b5f81519050919050565b5f82825260208201905092915050565b5f6112408261121c565b61124a8185611226565b935061125a818560208601611043565b61126381611051565b840191505092915050565b5f6060820190508181035f8301526112868186611236565b9050818103602083015261129a8185611236565b905081810360408301526112ae8184611061565b9050949350505050565b6112c1816111be565b82525050565b5f6020820190506112da5f8301846112b8565b92915050565b5f73ffffffffffffffffffffffffffffffffffffffff82169050919050565b5f611309826112e0565b9050919050565b611319816112ff565b82525050565b5f6020820190506113325f830184611310565b92915050565b611341816112ff565b811461134b575f5ffd5b50565b5f8135905061135c81611338565b92915050565b5f6020828403121561137757611376610f42565b5b5f6113848482850161134e565b91505092915050565b5f819050919050565b5f6113b06113ab6113a6846112e0565b61138d565b6112e0565b9050919050565b5f6113c182611396565b9050919050565b5f6113d2826113b7565b9050919050565b6113e2816113c8565b82525050565b5f6020820190506113fb5f8301846113d9565b92915050565b5f81905092915050565b828183375f83830152505050565b5f6114248385611401565b935061143183858461140b565b82840190509392505050565b5f611449828486611419565b91508190509392505050565b7f4e487b71000000000000000000000000000000000000000000000000000000005f52602260045260245ffd5b5f600282049050600182168061149957607f821691505b6020821081036114ac576114ab611455565b5b50919050565b7f4e6f7420617574686f72697a65640000000000000000000000000000000000005f82015250565b5f6114e6600e83611226565b91506114f1826114b2565b602082019050919050565b5f6020820190508181035f830152611513816114da565b9050919050565b7f4e487b71000000000000000000000000000000000000000000000000000000005f52604160045260245ffd5b5f819050815f5260205f209050919050565b5f6020601f8301049050919050565b5f82821b905092915050565b5f600883026115a37fffffffffffffffffffffffffffffffffffffffffffffffffffffffffffffffff82611568565b6115ad8683611568565b95508019841693508086168417925050509392505050565b5f6115df6115da6115d5846111be565b61138d565b6111be565b9050919050565b5f819050919050565b6115f8836115c5565b61160c611604826115e6565b848454611574565b825550505050565b5f5f905090565b611623611614565b61162e8184846115ef565b505050565b5b81811015611651576116465f8261161b565b600181019050611634565b5050565b601f8211156116965761166781611547565b61167084611559565b8101602085101561167f578190505b61169361168b85611559565b830182611633565b50505b505050565b5f82821c905092915050565b5f6116b65f198460080261169b565b1980831691505092915050565b5f6116ce83836116a7565b9150826002028217905092915050565b6116e78261121c565b67ffffffffffffffff811115611700576116ff61151a565b5b61170a8254611482565b611715828285611655565b5f60209050601f831160018114611746575f8415611734578287015190505b61173e85826116c3565b8655506117a5565b601f19841661175486611547565b5f5b8281101561177b57848901518255600182019150602085019450602081019050611756565b868310156117985784890151611794601f8916826116a7565b8355505b6001600288020188555050505b505050505050565b5f819050815f5260205f209050919050565b601f821115611800576117d1816117ad565b6117da84611559565b810160208510156117e9578190505b6117fd6117f585611559565b830182611633565b50505b505050565b61180e82611029565b67ffffffffffffffff8111156118275761182661151a565b5b6118318254611482565b61183c8282856117bf565b5f60209050601f83116001811461186d575f841561185b578287015190505b61186585826116c3565b8655506118cc565b601f19841661187b866117ad565b5f5b828110156118a25784890151825560018201915060208501945060208101905061187d565b868310156118bf57848901516118bb601f8916826116a7565b8355505b6001600288020188555050505b505050505050565b7f4f6e6c79206f776e6572000000000000000000000000000000000000000000005f82015250565b5f611908600a83611226565b9150611913826118d4565b602082019050919050565b5f6020820190508181035f830152611935816118fc565b9050919050565b5f82905092915050565b611950838361193c565b67ffffffffffffffff8111156119695761196861151a565b5b6119738254611482565b61197e8282856117bf565b5f601f8311600181146119ab575f8415611999578287013590505b6119a385826116c3565b865550611a0a565b601f1984166119b9866117ad565b5f5b828110156119e0578489013582556001820191506020850194506020810190506119bb565b868310156119fd57848901356119f9601f8916826116a7565b8355505b6001600288020188555050505b50505050505050565b5f81519050611a21816111c7565b92915050565b5f60208284031215611a3c57611a3b610f42565b5b5f611a4984828501611a13565b91505092915050565b7f4e487b71000000000000000000000000000000000000000000000000000000005f52603260045260245ffd5b5f611a898261121c565b611a938185611401565b9350611aa3818560208601611043565b80840191505092915050565b5f611aba8284611a7f565b915081905092915050565b5f604082019050611ad85f8301856112b8565b611ae560208301846112b8565b939250505056fea2646970667358221220eaf14705953c7c57ce4398ed2ad3f9acd41071e18f2ce875f23a6870c5196e3c64736f6c634300081f0033",
					"opcodes": "PUSH1 0x80 PUSH1 0x40 MSTORE CALLVALUE DUP1 ISZERO PUSH1 0xE JUMPI PUSH0 PUSH0 REVERT JUMPDEST POP CALLER PUSH1 0x5 PUSH0 PUSH2 0x100 EXP DUP2 SLOAD DUP2 PUSH20 0xFFFFFFFFFFFFFFFFFFFFFFFFFFFFFFFFFFFFFFFF MUL NOT AND SWAP1 DUP4 PUSH20 0xFFFFFFFFFFFFFFFFFFFFFFFFFFFFFFFFFFFFFFFF AND MUL OR SWAP1 SSTORE POP PUSH2 0x1B22 DUP1 PUSH2 0x5C PUSH0 CODECOPY PUSH0 RETURN INVALID PUSH1 0x80 PUSH1 0x40 MSTORE CALLVALUE DUP1 ISZERO PUSH2 0xF JUMPI PUSH0 PUSH0 REVERT JUMPDEST POP PUSH1 0x4 CALLDATASIZE LT PUSH2 0xCD JUMPI PUSH0 CALLDATALOAD PUSH1 0xE0 SHR DUP1 PUSH4 0xA6591CDF GT PUSH2 0x8A JUMPI DUP1 PUSH4 0xD4D59EDB GT PUSH2 0x64 JUMPI DUP1 PUSH4 0xD4D59EDB EQ PUSH2 0x1FF JUMPI DUP1 PUSH4 0xD795EDE1 EQ PUSH2 0x21B JUMPI DUP1 PUSH4 0xE2D2BFE3 EQ PUSH2 0x239 JUMPI DUP1 PUSH4 0xEE6713DF EQ PUSH2 0x257 JUMPI PUSH2 0xCD JUMP JUMPDEST DUP1 PUSH4 0xA6591CDF EQ PUSH2 0x1A7 JUMPI DUP1 PUSH4 0xA6EE9EB1 EQ PUSH2 0x1C5 JUMPI DUP1 PUSH4 0xABB2EFDF EQ PUSH2 0x1E1 JUMPI PUSH2 0xCD JUMP JUMPDEST DUP1 PUSH4 0x16F1ADC1 EQ PUSH2 0xD1 JUMPI DUP1 PUSH4 0x2E057B9B EQ PUSH2 0x101 JUMPI DUP1 PUSH4 0x3B6556BF EQ PUSH2 0x11D JUMPI DUP1 PUSH4 0x750588CF EQ PUSH2 0x14F JUMPI DUP1 PUSH4 0x8DA5CB5B EQ PUSH2 0x16D JUMPI DUP1 PUSH4 0x9AAD69E7 EQ PUSH2 0x18B JUMPI JUMPDEST PUSH0 PUSH0 REVERT JUMPDEST PUSH2 0xEB PUSH1 0x4 DUP1 CALLDATASIZE SUB DUP2 ADD SWAP1 PUSH2 0xE6 SWAP2 SWAP1 PUSH2 0xFAB JUMP JUMPDEST PUSH2 0x275 JUMP JUMPDEST PUSH1 0x40 MLOAD PUSH2 0xF8 SWAP2 SWAP1 PUSH2 0x1099 JUMP JUMPDEST PUSH1 0x40 MLOAD DUP1 SWAP2 SUB SWAP1 RETURN JUMPDEST PUSH2 0x11B PUSH1 0x4 DUP1 CALLDATASIZE SUB DUP2 ADD SWAP1 PUSH2 0x116 SWAP2 SWAP1 PUSH2 0x110E JUMP JUMPDEST PUSH2 0x346 JUMP JUMPDEST STOP JUMPDEST PUSH2 0x137 PUSH1 0x4 DUP1 CALLDATASIZE SUB DUP2 ADD SWAP1 PUSH2 0x132 SWAP2 SWAP1 PUSH2 0x11F1 JUMP JUMPDEST PUSH2 0x59C JUMP JUMPDEST PUSH1 0x40 MLOAD PUSH2 0x146 SWAP4 SWAP3 SWAP2 SWAP1 PUSH2 0x126E JUMP JUMPDEST PUSH1 0x40 MLOAD DUP1 SWAP2 SUB SWAP1 RETURN JUMPDEST PUSH2 0x157 PUSH2 0x763 JUMP JUMPDEST PUSH1 0x40 MLOAD PUSH2 0x164 SWAP2 SWAP1 PUSH2 0x12C7 JUMP JUMPDEST PUSH1 0x40 MLOAD DUP1 SWAP2 SUB SWAP1 RETURN JUMPDEST PUSH2 0x175 PUSH2 0x769 JUMP JUMPDEST PUSH1 0x40 MLOAD PUSH2 0x182 SWAP2 SWAP1 PUSH2 0x131F JUMP JUMPDEST PUSH1 0x40 MLOAD DUP1 SWAP2 SUB SWAP1 RETURN JUMPDEST PUSH2 0x1A5 PUSH1 0x4 DUP1 CALLDATASIZE SUB DUP2 ADD SWAP1 PUSH2 0x1A0 SWAP2 SWAP1 PUSH2 0x1362 JUMP JUMPDEST PUSH2 0x78E JUMP JUMPDEST STOP JUMPDEST PUSH2 0x1AF PUSH2 0x8A3 JUMP JUMPDEST PUSH1 0x40 MLOAD PUSH2 0x1BC SWAP2 SWAP1 PUSH2 0x131F JUMP JUMPDEST PUSH1 0x40 MLOAD DUP1 SWAP2 SUB SWAP1 RETURN JUMPDEST PUSH2 0x1DF PUSH1 0x4 DUP1 CALLDATASIZE SUB DUP2 ADD SWAP1 PUSH2 0x1DA SWAP2 SWAP1 PUSH2 0x110E JUMP JUMPDEST PUSH2 0x8C8 JUMP JUMPDEST STOP JUMPDEST PUSH2 0x1E9 PUSH2 0x9AD JUMP JUMPDEST PUSH1 0x40 MLOAD PUSH2 0x1F6 SWAP2 SWAP1 PUSH2 0x12C7 JUMP JUMPDEST PUSH1 0x40 MLOAD DUP1 SWAP2 SUB SWAP1 RETURN JUMPDEST PUSH2 0x219 PUSH1 0x4 DUP1 CALLDATASIZE SUB DUP2 ADD SWAP1 PUSH2 0x214 SWAP2 SWAP1 PUSH2 0x1362 JUMP JUMPDEST PUSH2 0x9B2 JUMP JUMPDEST STOP JUMPDEST PUSH2 0x223 PUSH2 0xAC7 JUMP JUMPDEST PUSH1 0x40 MLOAD PUSH2 0x230 SWAP2 SWAP1 PUSH2 0x12C7 JUMP JUMPDEST PUSH1 0x40 MLOAD DUP1 SWAP2 SUB SWAP1 RETURN JUMPDEST PUSH2 0x241 PUSH2 0xAD3 JUMP JUMPDEST PUSH1 0x40 MLOAD PUSH2 0x24E SWAP2 SWAP1 PUSH2 0x13E8 JUMP JUMPDEST PUSH1 0x40 MLOAD DUP1 SWAP2 SUB SWAP1 RETURN JUMPDEST PUSH2 0x25F PUSH2 0xAF8 JUMP JUMPDEST PUSH1 0x40 MLOAD PUSH2 0x26C SWAP2 SWAP1 PUSH2 0x12C7 JUMP JUMPDEST PUSH1 0x40 MLOAD DUP1 SWAP2 SUB SWAP1 RETURN JUMPDEST PUSH1 0x60 PUSH1 0x7 DUP6 DUP6 PUSH1 0x40 MLOAD PUSH2 0x289 SWAP3 SWAP2 SWAP1 PUSH2 0x143D JUMP JUMPDEST SWAP1 DUP2 MSTORE PUSH1 0x20 ADD PUSH1 0x40 MLOAD DUP1 SWAP2 SUB SWAP1 KECCAK256 DUP4 DUP4 PUSH1 0x40 MLOAD PUSH2 0x2A7 SWAP3 SWAP2 SWAP1 PUSH2 0x143D JUMP JUMPDEST SWAP1 DUP2 MSTORE PUSH1 0x20 ADD PUSH1 0x40 MLOAD DUP1 SWAP2 SUB SWAP1 KECCAK256 DUP1 SLOAD PUSH2 0x2C0 SWAP1 PUSH2 0x1482 JUMP JUMPDEST DUP1 PUSH1 0x1F ADD PUSH1 0x20 DUP1 SWAP2 DIV MUL PUSH1 0x20 ADD PUSH1 0x40 MLOAD SWAP1 DUP2 ADD PUSH1 0x40 MSTORE DUP1 SWAP3 SWAP2 SWAP1 DUP2 DUP2 MSTORE PUSH1 0x20 ADD DUP3 DUP1 SLOAD PUSH2 0x2EC SWAP1 PUSH2 0x1482 JUMP JUMPDEST DUP1 ISZERO PUSH2 0x337 JUMPI DUP1 PUSH1 0x1F LT PUSH2 0x30E JUMPI PUSH2 0x100 DUP1 DUP4 SLOAD DIV MUL DUP4 MSTORE SWAP2 PUSH1 0x20 ADD SWAP2 PUSH2 0x337 JUMP JUMPDEST DUP3 ADD SWAP2 SWAP1 PUSH0 MSTORE PUSH1 0x20 PUSH0 KECCAK256 SWAP1 JUMPDEST DUP2 SLOAD DUP2 MSTORE SWAP1 PUSH1 0x1 ADD SWAP1 PUSH1 0x20 ADD DUP1 DUP4 GT PUSH2 0x31A JUMPI DUP3 SWAP1 SUB PUSH1 0x1F AND DUP3 ADD SWAP2 JUMPDEST POP POP POP POP POP SWAP1 POP SWAP5 SWAP4 POP POP POP POP JUMP JUMPDEST PUSH1 0x4 PUSH0 SWAP1 SLOAD SWAP1 PUSH2 0x100 EXP SWAP1 DIV PUSH20 0xFFFFFFFFFFFFFFFFFFFFFFFFFFFFFFFFFFFFFFFF AND PUSH20 0xFFFFFFFFFFFFFFFFFFFFFFFFFFFFFFFFFFFFFFFF AND CALLER PUSH20 0xFFFFFFFFFFFFFFFFFFFFFFFFFFFFFFFFFFFFFFFF AND EQ PUSH2 0x3D5 JUMPI PUSH1 0x40 MLOAD PUSH32 0x8C379A000000000000000000000000000000000000000000000000000000000 DUP2 MSTORE PUSH1 0x4 ADD PUSH2 0x3CC SWAP1 PUSH2 0x14FC JUMP JUMPDEST PUSH1 0x40 MLOAD DUP1 SWAP2 SUB SWAP1 REVERT JUMPDEST PUSH2 0x3DD PUSH2 0xAFE JUMP JUMPDEST PUSH1 0x6 PUSH1 0x40 MLOAD DUP1 PUSH1 0x60 ADD PUSH1 0x40 MSTORE DUP1 DUP9 DUP9 DUP1 DUP1 PUSH1 0x1F ADD PUSH1 0x20 DUP1 SWAP2 DIV MUL PUSH1 0x20 ADD PUSH1 0x40 MLOAD SWAP1 DUP2 ADD PUSH1 0x40 MSTORE DUP1 SWAP4 SWAP3 SWAP2 SWAP1 DUP2 DUP2 MSTORE PUSH1 0x20 ADD DUP4 DUP4 DUP1 DUP3 DUP5 CALLDATACOPY PUSH0 DUP2 DUP5 ADD MSTORE PUSH1 0x1F NOT PUSH1 0x1F DUP3 ADD AND SWAP1 POP DUP1 DUP4 ADD SWAP3 POP POP POP POP POP POP POP DUP2 MSTORE PUSH1 0x20 ADD DUP7 DUP7 DUP1 DUP1 PUSH1 0x1F ADD PUSH1 0x20 DUP1 SWAP2 DIV MUL PUSH1 0x20 ADD PUSH1 0x40 MLOAD SWAP1 DUP2 ADD PUSH1 0x40 MSTORE DUP1 SWAP4 SWAP3 SWAP2 SWAP1 DUP2 DUP2 MSTORE PUSH1 0x20 ADD DUP4 DUP4 DUP1 DUP3 DUP5 CALLDATACOPY PUSH0 DUP2 DUP5 ADD MSTORE PUSH1 0x1F NOT PUSH1 0x1F DUP3 ADD AND SWAP1 POP DUP1 DUP4 ADD SWAP3 POP POP POP POP POP POP POP DUP2 MSTORE PUSH1 0x20 ADD DUP5 DUP5 DUP1 DUP1 PUSH1 0x1F ADD PUSH1 0x20 DUP1 SWAP2 DIV MUL PUSH1 0x20 ADD PUSH1 0x40 MLOAD SWAP1 DUP2 ADD PUSH1 0x40 MSTORE DUP1 SWAP4 SWAP3 SWAP2 SWAP1 DUP2 DUP2 MSTORE PUSH1 0x20 ADD DUP4 DUP4 DUP1 DUP3 DUP5 CALLDATACOPY PUSH0 DUP2 DUP5 ADD MSTORE PUSH1 0x1F NOT PUSH1 0x1F DUP3 ADD AND SWAP1 POP DUP1 DUP4 ADD SWAP3 POP POP POP POP POP POP POP DUP2 MSTORE POP SWAP1 DUP1 PUSH1 0x1 DUP2 SLOAD ADD DUP1 DUP3 SSTORE DUP1 SWAP2 POP POP PUSH1 0x1 SWAP1 SUB SWAP1 PUSH0 MSTORE PUSH1 0x20 PUSH0 KECCAK256 SWAP1 PUSH1 0x3 MUL ADD PUSH0 SWAP1 SWAP2 SWAP1 SWAP2 SWAP1 SWAP2 POP PUSH0 DUP3 ADD MLOAD DUP2 PUSH0 ADD SWAP1 DUP2 PUSH2 0x4FC SWAP2 SWAP1 PUSH2 0x16DE JUMP JUMPDEST POP PUSH1 0x20 DUP3 ADD MLOAD DUP2 PUSH1 0x1 ADD SWAP1 DUP2 PUSH2 0x512 SWAP2 SWAP1 PUSH2 0x16DE JUMP JUMPDEST POP PUSH1 0x40 DUP3 ADD MLOAD DUP2 PUSH1 0x2 ADD SWAP1 DUP2 PUSH2 0x528 SWAP2 SWAP1 PUSH2 0x1805 JUMP JUMPDEST POP POP POP DUP4 DUP4 PUSH1 0x40 MLOAD PUSH2 0x53B SWAP3 SWAP2 SWAP1 PUSH2 0x143D JUMP JUMPDEST PUSH1 0x40 MLOAD DUP1 SWAP2 SUB SWAP1 KECCAK256 DUP7 DUP7 PUSH1 0x40 MLOAD PUSH2 0x553 SWAP3 SWAP2 SWAP1 PUSH2 0x143D JUMP JUMPDEST PUSH1 0x40 MLOAD DUP1 SWAP2 SUB SWAP1 KECCAK256 PUSH32 0x1B9831F8FBA460F180116967424398F8E8503BCA4FF62445B6A6C5EA38D6FF57 PUSH1 0x3 SLOAD PUSH1 0x40 MLOAD PUSH2 0x58C SWAP2 SWAP1 PUSH2 0x12C7 JUMP JUMPDEST PUSH1 0x40 MLOAD DUP1 SWAP2 SUB SWAP1 LOG3 POP POP POP POP POP POP JUMP JUMPDEST PUSH1 0x6 DUP2 DUP2 SLOAD DUP2 LT PUSH2 0x5AB JUMPI PUSH0 DUP1 REVERT JUMPDEST SWAP1 PUSH0 MSTORE PUSH1 0x20 PUSH0 KECCAK256 SWAP1 PUSH1 0x3 MUL ADD PUSH0 SWAP2 POP SWAP1 POP DUP1 PUSH0 ADD DUP1 SLOAD PUSH2 0x5CA SWAP1 PUSH2 0x1482 JUMP JUMPDEST DUP1 PUSH1 0x1F ADD PUSH1 0x20 DUP1 SWAP2 DIV MUL PUSH1 0x20 ADD PUSH1 0x40 MLOAD SWAP1 DUP2 ADD PUSH1 0x40 MSTORE DUP1 SWAP3 SWAP2 SWAP1 DUP2 DUP2 MSTORE PUSH1 0x20 ADD DUP3 DUP1 SLOAD PUSH2 0x5F6 SWAP1 PUSH2 0x1482 JUMP JUMPDEST DUP1 ISZERO PUSH2 0x641 JUMPI DUP1 PUSH1 0x1F LT PUSH2 0x618 JUMPI PUSH2 0x100 DUP1 DUP4 SLOAD DIV MUL DUP4 MSTORE SWAP2 PUSH1 0x20 ADD SWAP2 PUSH2 0x641 JUMP JUMPDEST DUP3 ADD SWAP2 SWAP1 PUSH0 MSTORE PUSH1 0x20 PUSH0 KECCAK256 SWAP1 JUMPDEST DUP2 SLOAD DUP2 MSTORE SWAP1 PUSH1 0x1 ADD SWAP1 PUSH1 0x20 ADD DUP1 DUP4 GT PUSH2 0x624 JUMPI DUP3 SWAP1 SUB PUSH1 0x1F AND DUP3 ADD SWAP2 JUMPDEST POP POP POP POP POP SWAP1 DUP1 PUSH1 0x1 ADD DUP1 SLOAD PUSH2 0x656 SWAP1 PUSH2 0x1482 JUMP JUMPDEST DUP1 PUSH1 0x1F ADD PUSH1 0x20 DUP1 SWAP2 DIV MUL PUSH1 0x20 ADD PUSH1 0x40 MLOAD SWAP1 DUP2 ADD PUSH1 0x40 MSTORE DUP1 SWAP3 SWAP2 SWAP1 DUP2 DUP2 MSTORE PUSH1 0x20 ADD DUP3 DUP1 SLOAD PUSH2 0x682 SWAP1 PUSH2 0x1482 JUMP JUMPDEST DUP1 ISZERO PUSH2 0x6CD JUMPI DUP1 PUSH1 0x1F LT PUSH2 0x6A4 JUMPI PUSH2 0x100 DUP1 DUP4 SLOAD DIV MUL DUP4 MSTORE SWAP2 PUSH1 0x20 ADD SWAP2 PUSH2 0x6CD JUMP JUMPDEST DUP3 ADD SWAP2 SWAP1 PUSH0 MSTORE PUSH1 0x20 PUSH0 KECCAK256 SWAP1 JUMPDEST DUP2 SLOAD DUP2 MSTORE SWAP1 PUSH1 0x1 ADD SWAP1 PUSH1 0x20 ADD DUP1 DUP4 GT PUSH2 0x6B0 JUMPI DUP3 SWAP1 SUB PUSH1 0x1F AND DUP3 ADD SWAP2 JUMPDEST POP POP POP POP POP SWAP1 DUP1 PUSH1 0x2 ADD DUP1 SLOAD PUSH2 0x6E2 SWAP1 PUSH2 0x1482 JUMP JUMPDEST DUP1 PUSH1 0x1F ADD PUSH1 0x20 DUP1 SWAP2 DIV MUL PUSH1 0x20 ADD PUSH1 0x40 MLOAD SWAP1 DUP2 ADD PUSH1 0x40 MSTORE DUP1 SWAP3 SWAP2 SWAP1 DUP2 DUP2 MSTORE PUSH1 0x20 ADD DUP3 DUP1 SLOAD PUSH2 0x70E SWAP1 PUSH2 0x1482 JUMP JUMPDEST DUP1 ISZERO PUSH2 0x759 JUMPI DUP1 PUSH1 0x1F LT PUSH2 0x730 JUMPI PUSH2 0x100 DUP1 DUP4 SLOAD DIV MUL DUP4 MSTORE SWAP2 PUSH1 0x20 ADD SWAP2 PUSH2 0x759 JUMP JUMPDEST DUP3 ADD SWAP2 SWAP1 PUSH0 MSTORE PUSH1 0x20 PUSH0 KECCAK256 SWAP1 JUMPDEST DUP2 SLOAD DUP2 MSTORE SWAP1 PUSH1 0x1 ADD SWAP1 PUSH1 0x20 ADD DUP1 DUP4 GT PUSH2 0x73C JUMPI DUP3 SWAP1 SUB PUSH1 0x1F AND DUP3 ADD SWAP2 JUMPDEST POP POP POP POP POP SWAP1 POP DUP4 JUMP JUMPDEST PUSH1 0x1 SLOAD DUP2 JUMP JUMPDEST PUSH1 0x5 PUSH0 SWAP1 SLOAD SWAP1 PUSH2 0x100 EXP SWAP1 DIV PUSH20 0xFFFFFFFFFFFFFFFFFFFFFFFFFFFFFFFFFFFFFFFF AND DUP2 JUMP JUMPDEST PUSH1 0x5 PUSH0 SWAP1 SLOAD SWAP1 PUSH2 0x100 EXP SWAP1 DIV PUSH20 0xFFFFFFFFFFFFFFFFFFFFFFFFFFFFFFFFFFFFFFFF AND PUSH20 0xFFFFFFFFFFFFFFFFFFFFFFFFFFFFFFFFFFFFFFFF AND CALLER PUSH20 0xFFFFFFFFFFFFFFFFFFFFFFFFFFFFFFFFFFFFFFFF AND EQ PUSH2 0x81D JUMPI PUSH1 0x40 MLOAD PUSH32 0x8C379A000000000000000000000000000000000000000000000000000000000 DUP2 MSTORE PUSH1 0x4 ADD PUSH2 0x814 SWAP1 PUSH2 0x191E JUMP JUMPDEST PUSH1 0x40 MLOAD DUP1 SWAP2 SUB SWAP1 REVERT JUMPDEST DUP1 PUSH1 0x4 PUSH0 PUSH2 0x100 EXP DUP2 SLOAD DUP2 PUSH20 0xFFFFFFFFFFFFFFFFFFFFFFFFFFFFFFFFFFFFFFFF MUL NOT AND SWAP1 DUP4 PUSH20 0xFFFFFFFFFFFFFFFFFFFFFFFFFFFFFFFFFFFFFFFF AND MUL OR SWAP1 SSTORE POP DUP1 PUSH20 0xFFFFFFFFFFFFFFFFFFFFFFFFFFFFFFFFFFFFFFFF AND PUSH32 0x2E8B6F15CA325EDAD1931B418450CD194DAF93E7F40FE4A48D9B1B4BF2A8F069 PUSH1 0x40 MLOAD PUSH1 0x40 MLOAD DUP1 SWAP2 SUB SWAP1 LOG2 POP JUMP JUMPDEST PUSH1 0x4 PUSH0 SWAP1 SLOAD SWAP1 PUSH2 0x100 EXP SWAP1 DIV PUSH20 0xFFFFFFFFFFFFFFFFFFFFFFFFFFFFFFFFFFFFFFFF AND DUP2 JUMP JUMPDEST PUSH1 0x5 PUSH0 SWAP1 SLOAD SWAP1 PUSH2 0x100 EXP SWAP1 DIV PUSH20 0xFFFFFFFFFFFFFFFFFFFFFFFFFFFFFFFFFFFFFFFF AND PUSH20 0xFFFFFFFFFFFFFFFFFFFFFFFFFFFFFFFFFFFFFFFF AND CALLER PUSH20 0xFFFFFFFFFFFFFFFFFFFFFFFFFFFFFFFFFFFFFFFF AND EQ PUSH2 0x957 JUMPI PUSH1 0x40 MLOAD PUSH32 0x8C379A000000000000000000000000000000000000000000000000000000000 DUP2 MSTORE PUSH1 0x4 ADD PUSH2 0x94E SWAP1 PUSH2 0x191E JUMP JUMPDEST PUSH1 0x40 MLOAD DUP1 SWAP2 SUB SWAP1 REVERT JUMPDEST DUP2 DUP2 PUSH1 0x7 DUP9 DUP9 PUSH1 0x40 MLOAD PUSH2 0x96B SWAP3 SWAP2 SWAP1 PUSH2 0x143D JUMP JUMPDEST SWAP1 DUP2 MSTORE PUSH1 0x20 ADD PUSH1 0x40 MLOAD DUP1 SWAP2 SUB SWAP1 KECCAK256 DUP7 DUP7 PUSH1 0x40 MLOAD PUSH2 0x989 SWAP3 SWAP2 SWAP1 PUSH2 0x143D JUMP JUMPDEST SWAP1 DUP2 MSTORE PUSH1 0x20 ADD PUSH1 0x40 MLOAD DUP1 SWAP2 SUB SWAP1 KECCAK256 SWAP2 DUP3 PUSH2 0x9A4 SWAP3 SWAP2 SWAP1 PUSH2 0x1946 JUMP JUMPDEST POP POP POP POP POP POP POP JUMP JUMPDEST PUSH0 SLOAD DUP2 JUMP JUMPDEST PUSH1 0x5 PUSH0 SWAP1 SLOAD SWAP1 PUSH2 0x100 EXP SWAP1 DIV PUSH20 0xFFFFFFFFFFFFFFFFFFFFFFFFFFFFFFFFFFFFFFFF AND PUSH20 0xFFFFFFFFFFFFFFFFFFFFFFFFFFFFFFFFFFFFFFFF AND CALLER PUSH20 0xFFFFFFFFFFFFFFFFFFFFFFFFFFFFFFFFFFFFFFFF AND EQ PUSH2 0xA41 JUMPI PUSH1 0x40 MLOAD PUSH32 0x8C379A000000000000000000000000000000000000000000000000000000000 DUP2 MSTORE PUSH1 0x4 ADD PUSH2 0xA38 SWAP1 PUSH2 0x191E JUMP JUMPDEST PUSH1 0x40 MLOAD DUP1 SWAP2 SUB SWAP1 REVERT JUMPDEST DUP1 PUSH1 0x2 PUSH0 PUSH2 0x100 EXP DUP2 SLOAD DUP2 PUSH20 0xFFFFFFFFFFFFFFFFFFFFFFFFFFFFFFFFFFFFFFFF MUL NOT AND SWAP1 DUP4 PUSH20 0xFFFFFFFFFFFFFFFFFFFFFFFFFFFFFFFFFFFFFFFF AND MUL OR SWAP1 SSTORE POP DUP1 PUSH20 0xFFFFFFFFFFFFFFFFFFFFFFFFFFFFFFFFFFFFFFFF AND PUSH32 0x4B9D66D8E64DFF6D9D2728F9A38DA9739D3CFDBE676FDE05564AAE22F8508465 PUSH1 0x40 MLOAD PUSH1 0x40 MLOAD DUP1 SWAP2 SUB SWAP1 LOG2 POP JUMP JUMPDEST PUSH0 PUSH1 0x6 DUP1 SLOAD SWAP1 POP SWAP1 POP SWAP1 JUMP JUMPDEST PUSH1 0x2 PUSH0 SWAP1 SLOAD SWAP1 PUSH2 0x100 EXP SWAP1 DIV PUSH20 0xFFFFFFFFFFFFFFFFFFFFFFFFFFFFFFFFFFFFFFFF AND DUP2 JUMP JUMPDEST PUSH1 0x3 SLOAD DUP2 JUMP JUMPDEST PUSH0 PUSH1 0x2 PUSH0 SWAP1 SLOAD SWAP1 PUSH2 0x100 EXP SWAP1 DIV PUSH20 0xFFFFFFFFFFFFFFFFFFFFFFFFFFFFFFFFFFFFFFFF AND PUSH20 0xFFFFFFFFFFFFFFFFFFFFFFFFFFFFFFFFFFFFFFFF AND PUSH4 0xB97DD9E2 PUSH1 0x40 MLOAD DUP2 PUSH4 0xFFFFFFFF AND PUSH1 0xE0 SHL DUP2 MSTORE PUSH1 0x4 ADD PUSH1 0x20 PUSH1 0x40 MLOAD DUP1 DUP4 SUB DUP2 DUP7 GAS STATICCALL ISZERO DUP1 ISZERO PUSH2 0xB69 JUMPI RETURNDATASIZE PUSH0 PUSH0 RETURNDATACOPY RETURNDATASIZE PUSH0 REVERT JUMPDEST POP POP POP POP PUSH1 0x40 MLOAD RETURNDATASIZE PUSH1 0x1F NOT PUSH1 0x1F DUP3 ADD AND DUP3 ADD DUP1 PUSH1 0x40 MSTORE POP DUP2 ADD SWAP1 PUSH2 0xB8D SWAP2 SWAP1 PUSH2 0x1A27 JUMP JUMPDEST SWAP1 POP PUSH1 0x3 SLOAD DUP2 GT ISZERO PUSH2 0xE46 JUMPI PUSH0 PUSH0 SWAP1 POP JUMPDEST PUSH1 0x6 DUP1 SLOAD SWAP1 POP DUP2 LT ISZERO PUSH2 0xDE9 JUMPI PUSH0 PUSH1 0x6 DUP3 DUP2 SLOAD DUP2 LT PUSH2 0xBC0 JUMPI PUSH2 0xBBF PUSH2 0x1A52 JUMP JUMPDEST JUMPDEST SWAP1 PUSH0 MSTORE PUSH1 0x20 PUSH0 KECCAK256 SWAP1 PUSH1 0x3 MUL ADD PUSH1 0x40 MLOAD DUP1 PUSH1 0x60 ADD PUSH1 0x40 MSTORE SWAP1 DUP2 PUSH0 DUP3 ADD DUP1 SLOAD PUSH2 0xBE6 SWAP1 PUSH2 0x1482 JUMP JUMPDEST DUP1 PUSH1 0x1F ADD PUSH1 0x20 DUP1 SWAP2 DIV MUL PUSH1 0x20 ADD PUSH1 0x40 MLOAD SWAP1 DUP2 ADD PUSH1 0x40 MSTORE DUP1 SWAP3 SWAP2 SWAP1 DUP2 DUP2 MSTORE PUSH1 0x20 ADD DUP3 DUP1 SLOAD PUSH2 0xC12 SWAP1 PUSH2 0x1482 JUMP JUMPDEST DUP1 ISZERO PUSH2 0xC5D JUMPI DUP1 PUSH1 0x1F LT PUSH2 0xC34 JUMPI PUSH2 0x100 DUP1 DUP4 SLOAD DIV MUL DUP4 MSTORE SWAP2 PUSH1 0x20 ADD SWAP2 PUSH2 0xC5D JUMP JUMPDEST DUP3 ADD SWAP2 SWAP1 PUSH0 MSTORE PUSH1 0x20 PUSH0 KECCAK256 SWAP1 JUMPDEST DUP2 SLOAD DUP2 MSTORE SWAP1 PUSH1 0x1 ADD SWAP1 PUSH1 0x20 ADD DUP1 DUP4 GT PUSH2 0xC40 JUMPI DUP3 SWAP1 SUB PUSH1 0x1F AND DUP3 ADD SWAP2 JUMPDEST POP POP POP POP POP DUP2 MSTORE PUSH1 0x20 ADD PUSH1 0x1 DUP3 ADD DUP1 SLOAD PUSH2 0xC76 SWAP1 PUSH2 0x1482 JUMP JUMPDEST DUP1 PUSH1 0x1F ADD PUSH1 0x20 DUP1 SWAP2 DIV MUL PUSH1 0x20 ADD PUSH1 0x40 MLOAD SWAP1 DUP2 ADD PUSH1 0x40 MSTORE DUP1 SWAP3 SWAP2 SWAP1 DUP2 DUP2 MSTORE PUSH1 0x20 ADD DUP3 DUP1 SLOAD PUSH2 0xCA2 SWAP1 PUSH2 0x1482 JUMP JUMPDEST DUP1 ISZERO PUSH2 0xCED JUMPI DUP1 PUSH1 0x1F LT PUSH2 0xCC4 JUMPI PUSH2 0x100 DUP1 DUP4 SLOAD DIV MUL DUP4 MSTORE SWAP2 PUSH1 0x20 ADD SWAP2 PUSH2 0xCED JUMP JUMPDEST DUP3 ADD SWAP2 SWAP1 PUSH0 MSTORE PUSH1 0x20 PUSH0 KECCAK256 SWAP1 JUMPDEST DUP2 SLOAD DUP2 MSTORE SWAP1 PUSH1 0x1 ADD SWAP1 PUSH1 0x20 ADD DUP1 DUP4 GT PUSH2 0xCD0 JUMPI DUP3 SWAP1 SUB PUSH1 0x1F AND DUP3 ADD SWAP2 JUMPDEST POP POP POP POP POP DUP2 MSTORE PUSH1 0x20 ADD PUSH1 0x2 DUP3 ADD DUP1 SLOAD PUSH2 0xD06 SWAP1 PUSH2 0x1482 JUMP JUMPDEST DUP1 PUSH1 0x1F ADD PUSH1 0x20 DUP1 SWAP2 DIV MUL PUSH1 0x20 ADD PUSH1 0x40 MLOAD SWAP1 DUP2 ADD PUSH1 0x40 MSTORE DUP1 SWAP3 SWAP2 SWAP1 DUP2 DUP2 MSTORE PUSH1 0x20 ADD DUP3 DUP1 SLOAD PUSH2 0xD32 SWAP1 PUSH2 0x1482 JUMP JUMPDEST DUP1 ISZERO PUSH2 0xD7D JUMPI DUP1 PUSH1 0x1F LT PUSH2 0xD54 JUMPI PUSH2 0x100 DUP1 DUP4 SLOAD DIV MUL DUP4 MSTORE SWAP2 PUSH1 0x20 ADD SWAP2 PUSH2 0xD7D JUMP JUMPDEST DUP3 ADD SWAP2 SWAP1 PUSH0 MSTORE PUSH1 0x20 PUSH0 KECCAK256 SWAP1 JUMPDEST DUP2 SLOAD DUP2 MSTORE SWAP1 PUSH1 0x1 ADD SWAP1 PUSH1 0x20 ADD DUP1 DUP4 GT PUSH2 0xD60 JUMPI DUP3 SWAP1 SUB PUSH1 0x1F AND DUP3 ADD SWAP2 JUMPDEST POP POP POP POP POP DUP2 MSTORE POP POP SWAP1 POP DUP1 PUSH1 0x40 ADD MLOAD PUSH1 0x7 DUP3 PUSH0 ADD MLOAD PUSH1 0x40 MLOAD PUSH2 0xDA0 SWAP2 SWAP1 PUSH2 0x1AAF JUMP JUMPDEST SWAP1 DUP2 MSTORE PUSH1 0x20 ADD PUSH1 0x40 MLOAD DUP1 SWAP2 SUB SWAP1 KECCAK256 DUP3 PUSH1 0x20 ADD MLOAD PUSH1 0x40 MLOAD PUSH2 0xDC0 SWAP2 SWAP1 PUSH2 0x1AAF JUMP JUMPDEST SWAP1 DUP2 MSTORE PUSH1 0x20 ADD PUSH1 0x40 MLOAD DUP1 SWAP2 SUB SWAP1 KECCAK256 SWAP1 DUP2 PUSH2 0xDDA SWAP2 SWAP1 PUSH2 0x1805 JUMP JUMPDEST POP POP DUP1 DUP1 PUSH1 0x1 ADD SWAP2 POP POP PUSH2 0xB9E JUMP JUMPDEST POP PUSH0 PUSH1 0x6 DUP1 SLOAD SWAP1 POP SWAP1 POP PUSH1 0x6 PUSH0 PUSH2 0xE00 SWAP2 SWAP1 PUSH2 0xE49 JUMP JUMPDEST PUSH1 0x3 SLOAD PUSH32 0x1081F92591666E5FFF3D8FD275844896C7116C7D6B875C80D51B9BEAC7893A98 DUP3 PUSH0 SLOAD PUSH1 0x40 MLOAD PUSH2 0xE35 SWAP3 SWAP2 SWAP1 PUSH2 0x1AC5 JUMP JUMPDEST PUSH1 0x40 MLOAD DUP1 SWAP2 SUB SWAP1 LOG2 DUP2 PUSH1 0x3 DUP2 SWAP1 SSTORE POP POP JUMPDEST POP JUMP JUMPDEST POP DUP1 SLOAD PUSH0 DUP3 SSTORE PUSH1 0x3 MUL SWAP1 PUSH0 MSTORE PUSH1 0x20 PUSH0 KECCAK256 SWAP1 DUP2 ADD SWAP1 PUSH2 0xE67 SWAP2 SWAP1 PUSH2 0xE6A JUMP JUMPDEST POP JUMP JUMPDEST JUMPDEST DUP1 DUP3 GT ISZERO PUSH2 0xEA9 JUMPI PUSH0 PUSH0 DUP3 ADD PUSH0 PUSH2 0xE82 SWAP2 SWAP1 PUSH2 0xEAD JUMP JUMPDEST PUSH1 0x1 DUP3 ADD PUSH0 PUSH2 0xE91 SWAP2 SWAP1 PUSH2 0xEAD JUMP JUMPDEST PUSH1 0x2 DUP3 ADD PUSH0 PUSH2 0xEA0 SWAP2 SWAP1 PUSH2 0xEEA JUMP JUMPDEST POP PUSH1 0x3 ADD PUSH2 0xE6B JUMP JUMPDEST POP SWAP1 JUMP JUMPDEST POP DUP1 SLOAD PUSH2 0xEB9 SWAP1 PUSH2 0x1482 JUMP JUMPDEST PUSH0 DUP3 SSTORE DUP1 PUSH1 0x1F LT PUSH2 0xECA JUMPI POP PUSH2 0xEE7 JUMP JUMPDEST PUSH1 0x1F ADD PUSH1 0x20 SWAP1 DIV SWAP1 PUSH0 MSTORE PUSH1 0x20 PUSH0 KECCAK256 SWAP1 DUP2 ADD SWAP1 PUSH2 0xEE6 SWAP2 SWAP1 PUSH2 0xF27 JUMP JUMPDEST JUMPDEST POP JUMP JUMPDEST POP DUP1 SLOAD PUSH2 0xEF6 SWAP1 PUSH2 0x1482 JUMP JUMPDEST PUSH0 DUP3 SSTORE DUP1 PUSH1 0x1F LT PUSH2 0xF07 JUMPI POP PUSH2 0xF24 JUMP JUMPDEST PUSH1 0x1F ADD PUSH1 0x20 SWAP1 DIV SWAP1 PUSH0 MSTORE PUSH1 0x20 PUSH0 KECCAK256 SWAP1 DUP2 ADD SWAP1 PUSH2 0xF23 SWAP2 SWAP1 PUSH2 0xF27 JUMP JUMPDEST JUMPDEST POP JUMP JUMPDEST JUMPDEST DUP1 DUP3 GT ISZERO PUSH2 0xF3E JUMPI PUSH0 DUP2 PUSH0 SWAP1 SSTORE POP PUSH1 0x1 ADD PUSH2 0xF28 JUMP JUMPDEST POP SWAP1 JUMP JUMPDEST PUSH0 PUSH0 REVERT JUMPDEST PUSH0 PUSH0 REVERT JUMPDEST PUSH0 PUSH0 REVERT JUMPDEST PUSH0 PUSH0 REVERT JUMPDEST PUSH0 PUSH0 REVERT JUMPDEST PUSH0 PUSH0 DUP4 PUSH1 0x1F DUP5 ADD SLT PUSH2 0xF6B JUMPI PUSH2 0xF6A PUSH2 0xF4A JUMP JUMPDEST JUMPDEST DUP3 CALLDATALOAD SWAP1 POP PUSH8 0xFFFFFFFFFFFFFFFF DUP2 GT ISZERO PUSH2 0xF88 JUMPI PUSH2 0xF87 PUSH2 0xF4E JUMP JUMPDEST JUMPDEST PUSH1 0x20 DUP4 ADD SWAP2 POP DUP4 PUSH1 0x1 DUP3 MUL DUP4 ADD GT ISZERO PUSH2 0xFA4 JUMPI PUSH2 0xFA3 PUSH2 0xF52 JUMP JUMPDEST JUMPDEST SWAP3 POP SWAP3 SWAP1 POP JUMP JUMPDEST PUSH0 PUSH0 PUSH0 PUSH0 PUSH1 0x40 DUP6 DUP8 SUB SLT ISZERO PUSH2 0xFC3 JUMPI PUSH2 0xFC2 PUSH2 0xF42 JUMP JUMPDEST JUMPDEST PUSH0 DUP6 ADD CALLDATALOAD PUSH8 0xFFFFFFFFFFFFFFFF DUP2 GT ISZERO PUSH2 0xFE0 JUMPI PUSH2 0xFDF PUSH2 0xF46 JUMP JUMPDEST JUMPDEST PUSH2 0xFEC DUP8 DUP3 DUP9 ADD PUSH2 0xF56 JUMP JUMPDEST SWAP5 POP SWAP5 POP POP PUSH1 0x20 DUP6 ADD CALLDATALOAD PUSH8 0xFFFFFFFFFFFFFFFF DUP2 GT ISZERO PUSH2 0x100F JUMPI PUSH2 0x100E PUSH2 0xF46 JUMP JUMPDEST JUMPDEST PUSH2 0x101B DUP8 DUP3 DUP9 ADD PUSH2 0xF56 JUMP JUMPDEST SWAP3 POP SWAP3 POP POP SWAP3 SWAP6 SWAP2 SWAP5 POP SWAP3 POP JUMP JUMPDEST PUSH0 DUP2 MLOAD SWAP1 POP SWAP2 SWAP1 POP JUMP JUMPDEST PUSH0 DUP3 DUP3 MSTORE PUSH1 0x20 DUP3 ADD SWAP1 POP SWAP3 SWAP2 POP POP JUMP JUMPDEST DUP3 DUP2 DUP4 MCOPY PUSH0 DUP4 DUP4 ADD MSTORE POP POP POP JUMP JUMPDEST PUSH0 PUSH1 0x1F NOT PUSH1 0x1F DUP4 ADD AND SWAP1 POP SWAP2 SWAP1 POP JUMP JUMPDEST PUSH0 PUSH2 0x106B DUP3 PUSH2 0x1029 JUMP JUMPDEST PUSH2 0x1075 DUP2 DUP6 PUSH2 0x1033 JUMP JUMPDEST SWAP4 POP PUSH2 0x1085 DUP2 DUP6 PUSH1 0x20 DUP7 ADD PUSH2 0x1043 JUMP JUMPDEST PUSH2 0x108E DUP2 PUSH2 0x1051 JUMP JUMPDEST DUP5 ADD SWAP2 POP POP SWAP3 SWAP2 POP POP JUMP JUMPDEST PUSH0 PUSH1 0x20 DUP3 ADD SWAP1 POP DUP2 DUP2 SUB PUSH0 DUP4 ADD MSTORE PUSH2 0x10B1 DUP2 DUP5 PUSH2 0x1061 JUMP JUMPDEST SWAP1 POP SWAP3 SWAP2 POP POP JUMP JUMPDEST PUSH0 PUSH0 DUP4 PUSH1 0x1F DUP5 ADD SLT PUSH2 0x10CE JUMPI PUSH2 0x10CD PUSH2 0xF4A JUMP JUMPDEST JUMPDEST DUP3 CALLDATALOAD SWAP1 POP PUSH8 0xFFFFFFFFFFFFFFFF DUP2 GT ISZERO PUSH2 0x10EB JUMPI PUSH2 0x10EA PUSH2 0xF4E JUMP JUMPDEST JUMPDEST PUSH1 0x20 DUP4 ADD SWAP2 POP DUP4 PUSH1 0x1 DUP3 MUL DUP4 ADD GT ISZERO PUSH2 0x1107 JUMPI PUSH2 0x1106 PUSH2 0xF52 JUMP JUMPDEST JUMPDEST SWAP3 POP SWAP3 SWAP1 POP JUMP JUMPDEST PUSH0 PUSH0 PUSH0 PUSH0 PUSH0 PUSH0 PUSH1 0x60 DUP8 DUP10 SUB SLT ISZERO PUSH2 0x1128 JUMPI PUSH2 0x1127 PUSH2 0xF42 JUMP JUMPDEST JUMPDEST PUSH0 DUP8 ADD CALLDATALOAD PUSH8 0xFFFFFFFFFFFFFFFF DUP2 GT ISZERO PUSH2 0x1145 JUMPI PUSH2 0x1144 PUSH2 0xF46 JUMP JUMPDEST JUMPDEST PUSH2 0x1151 DUP10 DUP3 DUP11 ADD PUSH2 0xF56 JUMP JUMPDEST SWAP7 POP SWAP7 POP POP PUSH1 0x20 DUP8 ADD CALLDATALOAD PUSH8 0xFFFFFFFFFFFFFFFF DUP2 GT ISZERO PUSH2 0x1174 JUMPI PUSH2 0x1173 PUSH2 0xF46 JUMP JUMPDEST JUMPDEST PUSH2 0x1180 DUP10 DUP3 DUP11 ADD PUSH2 0xF56 JUMP JUMPDEST SWAP5 POP SWAP5 POP POP PUSH1 0x40 DUP8 ADD CALLDATALOAD PUSH8 0xFFFFFFFFFFFFFFFF DUP2 GT ISZERO PUSH2 0x11A3 JUMPI PUSH2 0x11A2 PUSH2 0xF46 JUMP JUMPDEST JUMPDEST PUSH2 0x11AF DUP10 DUP3 DUP11 ADD PUSH2 0x10B9 JUMP JUMPDEST SWAP3 POP SWAP3 POP POP SWAP3 SWAP6 POP SWAP3 SWAP6 POP SWAP3 SWAP6 JUMP JUMPDEST PUSH0 DUP2 SWAP1 POP SWAP2 SWAP1 POP JUMP JUMPDEST PUSH2 0x11D0 DUP2 PUSH2 0x11BE JUMP JUMPDEST DUP2 EQ PUSH2 0x11DA JUMPI PUSH0 PUSH0 REVERT JUMPDEST POP JUMP JUMPDEST PUSH0 DUP2 CALLDATALOAD SWAP1 POP PUSH2 0x11EB DUP2 PUSH2 0x11C7 JUMP JUMPDEST SWAP3 SWAP2 POP POP JUMP JUMPDEST PUSH0 PUSH1 0x20 DUP3 DUP5 SUB SLT ISZERO PUSH2 0x1206 JUMPI PUSH2 0x1205 PUSH2 0xF42 JUMP JUMPDEST JUMPDEST PUSH0 PUSH2 0x1213 DUP5 DUP3 DUP6 ADD PUSH2 0x11DD JUMP JUMPDEST SWAP2 POP POP SWAP3 SWAP2 POP POP JUMP JUMPDEST PUSH0 DUP2 MLOAD SWAP1 POP SWAP2 SWAP1 POP JUMP JUMPDEST PUSH0 DUP3 DUP3 MSTORE PUSH1 0x20 DUP3 ADD SWAP1 POP SWAP3 SWAP2 POP POP JUMP JUMPDEST PUSH0 PUSH2 0x1240 DUP3 PUSH2 0x121C JUMP JUMPDEST PUSH2 0x124A DUP2 DUP6 PUSH2 0x1226 JUMP JUMPDEST SWAP4 POP PUSH2 0x125A DUP2 DUP6 PUSH1 0x20 DUP7 ADD PUSH2 0x1043 JUMP JUMPDEST PUSH2 0x1263 DUP2 PUSH2 0x1051 JUMP JUMPDEST DUP5 ADD SWAP2 POP POP SWAP3 SWAP2 POP POP JUMP JUMPDEST PUSH0 PUSH1 0x60 DUP3 ADD SWAP1 POP DUP2 DUP2 SUB PUSH0 DUP4 ADD MSTORE PUSH2 0x1286 DUP2 DUP7 PUSH2 0x1236 JUMP JUMPDEST SWAP1 POP DUP2 DUP2 SUB PUSH1 0x20 DUP4 ADD MSTORE PUSH2 0x129A DUP2 DUP6 PUSH2 0x1236 JUMP JUMPDEST SWAP1 POP DUP2 DUP2 SUB PUSH1 0x40 DUP4 ADD MSTORE PUSH2 0x12AE DUP2 DUP5 PUSH2 0x1061 JUMP JUMPDEST SWAP1 POP SWAP5 SWAP4 POP POP POP POP JUMP JUMPDEST PUSH2 0x12C1 DUP2 PUSH2 0x11BE JUMP JUMPDEST DUP3 MSTORE POP POP JUMP JUMPDEST PUSH0 PUSH1 0x20 DUP3 ADD SWAP1 POP PUSH2 0x12DA PUSH0 DUP4 ADD DUP5 PUSH2 0x12B8 JUMP JUMPDEST SWAP3 SWAP2 POP POP JUMP JUMPDEST PUSH0 PUSH20 0xFFFFFFFFFFFFFFFFFFFFFFFFFFFFFFFFFFFFFFFF DUP3 AND SWAP1 POP SWAP2 SWAP1 POP JUMP JUMPDEST PUSH0 PUSH2 0x1309 DUP3 PUSH2 0x12E0 JUMP JUMPDEST SWAP1 POP SWAP2 SWAP1 POP JUMP JUMPDEST PUSH2 0x1319 DUP2 PUSH2 0x12FF JUMP JUMPDEST DUP3 MSTORE POP POP JUMP JUMPDEST PUSH0 PUSH1 0x20 DUP3 ADD SWAP1 POP PUSH2 0x1332 PUSH0 DUP4 ADD DUP5 PUSH2 0x1310 JUMP JUMPDEST SWAP3 SWAP2 POP POP JUMP JUMPDEST PUSH2 0x1341 DUP2 PUSH2 0x12FF JUMP JUMPDEST DUP2 EQ PUSH2 0x134B JUMPI PUSH0 PUSH0 REVERT JUMPDEST POP JUMP JUMPDEST PUSH0 DUP2 CALLDATALOAD SWAP1 POP PUSH2 0x135C DUP2 PUSH2 0x1338 JUMP JUMPDEST SWAP3 SWAP2 POP POP JUMP JUMPDEST PUSH0 PUSH1 0x20 DUP3 DUP5 SUB SLT ISZERO PUSH2 0x1377 JUMPI PUSH2 0x1376 PUSH2 0xF42 JUMP JUMPDEST JUMPDEST PUSH0 PUSH2 0x1384 DUP5 DUP3 DUP6 ADD PUSH2 0x134E JUMP JUMPDEST SWAP2 POP POP SWAP3 SWAP2 POP POP JUMP JUMPDEST PUSH0 DUP2 SWAP1 POP SWAP2 SWAP1 POP JUMP JUMPDEST PUSH0 PUSH2 0x13B0 PUSH2 0x13AB PUSH2 0x13A6 DUP5 PUSH2 0x12E0 JUMP JUMPDEST PUSH2 0x138D JUMP JUMPDEST PUSH2 0x12E0 JUMP JUMPDEST SWAP1 POP SWAP2 SWAP1 POP JUMP JUMPDEST PUSH0 PUSH2 0x13C1 DUP3 PUSH2 0x1396 JUMP JUMPDEST SWAP1 POP SWAP2 SWAP1 POP JUMP JUMPDEST PUSH0 PUSH2 0x13D2 DUP3 PUSH2 0x13B7 JUMP JUMPDEST SWAP1 POP SWAP2 SWAP1 POP JUMP JUMPDEST PUSH2 0x13E2 DUP2 PUSH2 0x13C8 JUMP JUMPDEST DUP3 MSTORE POP POP JUMP JUMPDEST PUSH0 PUSH1 0x20 DUP3 ADD SWAP1 POP PUSH2 0x13FB PUSH0 DUP4 ADD DUP5 PUSH2 0x13D9 JUMP JUMPDEST SWAP3 SWAP2 POP POP JUMP JUMPDEST PUSH0 DUP2 SWAP1 POP SWAP3 SWAP2 POP POP JUMP JUMPDEST DUP3 DUP2 DUP4 CALLDATACOPY PUSH0 DUP4 DUP4 ADD MSTORE POP POP POP JUMP JUMPDEST PUSH0 PUSH2 0x1424 DUP4 DUP6 PUSH2 0x1401 JUMP JUMPDEST SWAP4 POP PUSH2 0x1431 DUP4 DUP6 DUP5 PUSH2 0x140B JUMP JUMPDEST DUP3 DUP5 ADD SWAP1 POP SWAP4 SWAP3 POP POP POP JUMP JUMPDEST PUSH0 PUSH2 0x1449 DUP3 DUP5 DUP7 PUSH2 0x1419 JUMP JUMPDEST SWAP2 POP DUP2 SWAP1 POP SWAP4 SWAP3 POP POP POP JUMP JUMPDEST PUSH32 0x4E487B7100000000000000000000000000000000000000000000000000000000 PUSH0 MSTORE PUSH1 0x22 PUSH1 0x4 MSTORE PUSH1 0x24 PUSH0 REVERT JUMPDEST PUSH0 PUSH1 0x2 DUP3 DIV SWAP1 POP PUSH1 0x1 DUP3 AND DUP1 PUSH2 0x1499 JUMPI PUSH1 0x7F DUP3 AND SWAP2 POP JUMPDEST PUSH1 0x20 DUP3 LT DUP2 SUB PUSH2 0x14AC JUMPI PUSH2 0x14AB PUSH2 0x1455 JUMP JUMPDEST JUMPDEST POP SWAP2 SWAP1 POP JUMP JUMPDEST PUSH32 0x4E6F7420617574686F72697A6564000000000000000000000000000000000000 PUSH0 DUP3 ADD MSTORE POP JUMP JUMPDEST PUSH0 PUSH2 0x14E6 PUSH1 0xE DUP4 PUSH2 0x1226 JUMP JUMPDEST SWAP2 POP PUSH2 0x14F1 DUP3 PUSH2 0x14B2 JUMP JUMPDEST PUSH1 0x20 DUP3 ADD SWAP1 POP SWAP2 SWAP1 POP JUMP JUMPDEST PUSH0 PUSH1 0x20 DUP3 ADD SWAP1 POP DUP2 DUP2 SUB PUSH0 DUP4 ADD MSTORE PUSH2 0x1513 DUP2 PUSH2 0x14DA JUMP JUMPDEST SWAP1 POP SWAP2 SWAP1 POP JUMP JUMPDEST PUSH32 0x4E487B7100000000000000000000000000000000000000000000000000000000 PUSH0 MSTORE PUSH1 0x41 PUSH1 0x4 MSTORE PUSH1 0x24 PUSH0 REVERT JUMPDEST PUSH0 DUP2 SWAP1 POP DUP2 PUSH0 MSTORE PUSH1 0x20 PUSH0 KECCAK256 SWAP1 POP SWAP2 SWAP1 POP JUMP JUMPDEST PUSH0 PUSH1 0x20 PUSH1 0x1F DUP4 ADD DIV SWAP1 POP SWAP2 SWAP1 POP JUMP JUMPDEST PUSH0 DUP3 DUP3 SHL SWAP1 POP SWAP3 SWAP2 POP POP JUMP JUMPDEST PUSH0 PUSH1 0x8 DUP4 MUL PUSH2 0x15A3 PUSH32 0xFFFFFFFFFFFFFFFFFFFFFFFFFFFFFFFFFFFFFFFFFFFFFFFFFFFFFFFFFFFFFFFF DUP3 PUSH2 0x1568 JUMP JUMPDEST PUSH2 0x15AD DUP7 DUP4 PUSH2 0x1568 JUMP JUMPDEST SWAP6 POP DUP1 NOT DUP5 AND SWAP4 POP DUP1 DUP7 AND DUP5 OR SWAP3 POP POP POP SWAP4 SWAP3 POP POP POP JUMP JUMPDEST PUSH0 PUSH2 0x15DF PUSH2 0x15DA PUSH2 0x15D5 DUP5 PUSH2 0x11BE JUMP JUMPDEST PUSH2 0x138D JUMP JUMPDEST PUSH2 0x11BE JUMP JUMPDEST SWAP1 POP SWAP2 SWAP1 POP JUMP JUMPDEST PUSH0 DUP2 SWAP1 POP SWAP2 SWAP1 POP JUMP JUMPDEST PUSH2 0x15F8 DUP4 PUSH2 0x15C5 JUMP JUMPDEST PUSH2 0x160C PUSH2 0x1604 DUP3 PUSH2 0x15E6 JUMP JUMPDEST DUP5 DUP5 SLOAD PUSH2 0x1574 JUMP JUMPDEST DUP3 SSTORE POP POP POP POP JUMP JUMPDEST PUSH0 PUSH0 SWAP1 POP SWAP1 JUMP JUMPDEST PUSH2 0x1623 PUSH2 0x1614 JUMP JUMPDEST PUSH2 0x162E DUP2 DUP5 DUP5 PUSH2 0x15EF JUMP JUMPDEST POP POP POP JUMP JUMPDEST JUMPDEST DUP2 DUP2 LT ISZERO PUSH2 0x1651 JUMPI PUSH2 0x1646 PUSH0 DUP3 PUSH2 0x161B JUMP JUMPDEST PUSH1 0x1 DUP2 ADD SWAP1 POP PUSH2 0x1634 JUMP JUMPDEST POP POP JUMP JUMPDEST PUSH1 0x1F DUP3 GT ISZERO PUSH2 0x1696 JUMPI PUSH2 0x1667 DUP2 PUSH2 0x1547 JUMP JUMPDEST PUSH2 0x1670 DUP5 PUSH2 0x1559 JUMP JUMPDEST DUP2 ADD PUSH1 0x20 DUP6 LT ISZERO PUSH2 0x167F JUMPI DUP2 SWAP1 POP JUMPDEST PUSH2 0x1693 PUSH2 0x168B DUP6 PUSH2 0x1559 JUMP JUMPDEST DUP4 ADD DUP3 PUSH2 0x1633 JUMP JUMPDEST POP POP JUMPDEST POP POP POP JUMP JUMPDEST PUSH0 DUP3 DUP3 SHR SWAP1 POP SWAP3 SWAP2 POP POP JUMP JUMPDEST PUSH0 PUSH2 0x16B6 PUSH0 NOT DUP5 PUSH1 0x8 MUL PUSH2 0x169B JUMP JUMPDEST NOT DUP1 DUP4 AND SWAP2 POP POP SWAP3 SWAP2 POP POP JUMP JUMPDEST PUSH0 PUSH2 0x16CE DUP4 DUP4 PUSH2 0x16A7 JUMP JUMPDEST SWAP2 POP DUP3 PUSH1 0x2 MUL DUP3 OR SWAP1 POP SWAP3 SWAP2 POP POP JUMP JUMPDEST PUSH2 0x16E7 DUP3 PUSH2 0x121C JUMP JUMPDEST PUSH8 0xFFFFFFFFFFFFFFFF DUP2 GT ISZERO PUSH2 0x1700 JUMPI PUSH2 0x16FF PUSH2 0x151A JUMP JUMPDEST JUMPDEST PUSH2 0x170A DUP3 SLOAD PUSH2 0x1482 JUMP JUMPDEST PUSH2 0x1715 DUP3 DUP3 DUP6 PUSH2 0x1655 JUMP JUMPDEST PUSH0 PUSH1 0x20 SWAP1 POP PUSH1 0x1F DUP4 GT PUSH1 0x1 DUP2 EQ PUSH2 0x1746 JUMPI PUSH0 DUP5 ISZERO PUSH2 0x1734 JUMPI DUP3 DUP8 ADD MLOAD SWAP1 POP JUMPDEST PUSH2 0x173E DUP6 DUP3 PUSH2 0x16C3 JUMP JUMPDEST DUP7 SSTORE POP PUSH2 0x17A5 JUMP JUMPDEST PUSH1 0x1F NOT DUP5 AND PUSH2 0x1754 DUP7 PUSH2 0x1547 JUMP JUMPDEST PUSH0 JUMPDEST DUP3 DUP2 LT ISZERO PUSH2 0x177B JUMPI DUP5 DUP10 ADD MLOAD DUP3 SSTORE PUSH1 0x1 DUP3 ADD SWAP2 POP PUSH1 0x20 DUP6 ADD SWAP5 POP PUSH1 0x20 DUP2 ADD SWAP1 POP PUSH2 0x1756 JUMP JUMPDEST DUP7 DUP4 LT ISZERO PUSH2 0x1798 JUMPI DUP5 DUP10 ADD MLOAD PUSH2 0x1794 PUSH1 0x1F DUP10 AND DUP3 PUSH2 0x16A7 JUMP JUMPDEST DUP4 SSTORE POP JUMPDEST PUSH1 0x1 PUSH1 0x2 DUP9 MUL ADD DUP9 SSTORE POP POP POP JUMPDEST POP POP POP POP POP POP JUMP JUMPDEST PUSH0 DUP2 SWAP1 POP DUP2 PUSH0 MSTORE PUSH1 0x20 PUSH0 KECCAK256 SWAP1 POP SWAP2 SWAP1 POP JUMP JUMPDEST PUSH1 0x1F DUP3 GT ISZERO PUSH2 0x1800 JUMPI PUSH2 0x17D1 DUP2 PUSH2 0x17AD JUMP JUMPDEST PUSH2 0x17DA DUP5 PUSH2 0x1559 JUMP JUMPDEST DUP2 ADD PUSH1 0x20 DUP6 LT ISZERO PUSH2 0x17E9 JUMPI DUP2 SWAP1 POP JUMPDEST PUSH2 0x17FD PUSH2 0x17F5 DUP6 PUSH2 0x1559 JUMP JUMPDEST DUP4 ADD DUP3 PUSH2 0x1633 JUMP JUMPDEST POP POP JUMPDEST POP POP POP JUMP JUMPDEST PUSH2 0x180E DUP3 PUSH2 0x1029 JUMP JUMPDEST PUSH8 0xFFFFFFFFFFFFFFFF DUP2 GT ISZERO PUSH2 0x1827 JUMPI PUSH2 0x1826 PUSH2 0x151A JUMP JUMPDEST JUMPDEST PUSH2 0x1831 DUP3 SLOAD PUSH2 0x1482 JUMP JUMPDEST PUSH2 0x183C DUP3 DUP3 DUP6 PUSH2 0x17BF JUMP JUMPDEST PUSH0 PUSH1 0x20 SWAP1 POP PUSH1 0x1F DUP4 GT PUSH1 0x1 DUP2 EQ PUSH2 0x186D JUMPI PUSH0 DUP5 ISZERO PUSH2 0x185B JUMPI DUP3 DUP8 ADD MLOAD SWAP1 POP JUMPDEST PUSH2 0x1865 DUP6 DUP3 PUSH2 0x16C3 JUMP JUMPDEST DUP7 SSTORE POP PUSH2 0x18CC JUMP JUMPDEST PUSH1 0x1F NOT DUP5 AND PUSH2 0x187B DUP7 PUSH2 0x17AD JUMP JUMPDEST PUSH0 JUMPDEST DUP3 DUP2 LT ISZERO PUSH2 0x18A2 JUMPI DUP5 DUP10 ADD MLOAD DUP3 SSTORE PUSH1 0x1 DUP3 ADD SWAP2 POP PUSH1 0x20 DUP6 ADD SWAP5 POP PUSH1 0x20 DUP2 ADD SWAP1 POP PUSH2 0x187D JUMP JUMPDEST DUP7 DUP4 LT ISZERO PUSH2 0x18BF JUMPI DUP5 DUP10 ADD MLOAD PUSH2 0x18BB PUSH1 0x1F DUP10 AND DUP3 PUSH2 0x16A7 JUMP JUMPDEST DUP4 SSTORE POP JUMPDEST PUSH1 0x1 PUSH1 0x2 DUP9 MUL ADD DUP9 SSTORE POP POP POP JUMPDEST POP POP POP POP POP POP JUMP JUMPDEST PUSH32 0x4F6E6C79206F776E657200000000000000000000000000000000000000000000 PUSH0 DUP3 ADD MSTORE POP JUMP JUMPDEST PUSH0 PUSH2 0x1908 PUSH1 0xA DUP4 PUSH2 0x1226 JUMP JUMPDEST SWAP2 POP PUSH2 0x1913 DUP3 PUSH2 0x18D4 JUMP JUMPDEST PUSH1 0x20 DUP3 ADD SWAP1 POP SWAP2 SWAP1 POP JUMP JUMPDEST PUSH0 PUSH1 0x20 DUP3 ADD SWAP1 POP DUP2 DUP2 SUB PUSH0 DUP4 ADD MSTORE PUSH2 0x1935 DUP2 PUSH2 0x18FC JUMP JUMPDEST SWAP1 POP SWAP2 SWAP1 POP JUMP JUMPDEST PUSH0 DUP3 SWAP1 POP SWAP3 SWAP2 POP POP JUMP JUMPDEST PUSH2 0x1950 DUP4 DUP4 PUSH2 0x193C JUMP JUMPDEST PUSH8 0xFFFFFFFFFFFFFFFF DUP2 GT ISZERO PUSH2 0x1969 JUMPI PUSH2 0x1968 PUSH2 0x151A JUMP JUMPDEST JUMPDEST PUSH2 0x1973 DUP3 SLOAD PUSH2 0x1482 JUMP JUMPDEST PUSH2 0x197E DUP3 DUP3 DUP6 PUSH2 0x17BF JUMP JUMPDEST PUSH0 PUSH1 0x1F DUP4 GT PUSH1 0x1 DUP2 EQ PUSH2 0x19AB JUMPI PUSH0 DUP5 ISZERO PUSH2 0x1999 JUMPI DUP3 DUP8 ADD CALLDATALOAD SWAP1 POP JUMPDEST PUSH2 0x19A3 DUP6 DUP3 PUSH2 0x16C3 JUMP JUMPDEST DUP7 SSTORE POP PUSH2 0x1A0A JUMP JUMPDEST PUSH1 0x1F NOT DUP5 AND PUSH2 0x19B9 DUP7 PUSH2 0x17AD JUMP JUMPDEST PUSH0 JUMPDEST DUP3 DUP2 LT ISZERO PUSH2 0x19E0 JUMPI DUP5 DUP10 ADD CALLDATALOAD DUP3 SSTORE PUSH1 0x1 DUP3 ADD SWAP2 POP PUSH1 0x20 DUP6 ADD SWAP5 POP PUSH1 0x20 DUP2 ADD SWAP1 POP PUSH2 0x19BB JUMP JUMPDEST DUP7 DUP4 LT ISZERO PUSH2 0x19FD JUMPI DUP5 DUP10 ADD CALLDATALOAD PUSH2 0x19F9 PUSH1 0x1F DUP10 AND DUP3 PUSH2 0x16A7 JUMP JUMPDEST DUP4 SSTORE POP JUMPDEST PUSH1 0x1 PUSH1 0x2 DUP9 MUL ADD DUP9 SSTORE POP POP POP JUMPDEST POP POP POP POP POP POP POP JUMP JUMPDEST PUSH0 DUP2 MLOAD SWAP1 POP PUSH2 0x1A21 DUP2 PUSH2 0x11C7 JUMP JUMPDEST SWAP3 SWAP2 POP POP JUMP JUMPDEST PUSH0 PUSH1 0x20 DUP3 DUP5 SUB SLT ISZERO PUSH2 0x1A3C JUMPI PUSH2 0x1A3B PUSH2 0xF42 JUMP JUMPDEST JUMPDEST PUSH0 PUSH2 0x1A49 DUP5 DUP3 DUP6 ADD PUSH2 0x1A13 JUMP JUMPDEST SWAP2 POP POP SWAP3 SWAP2 POP POP JUMP JUMPDEST PUSH32 0x4E487B7100000000000000000000000000000000000000000000000000000000 PUSH0 MSTORE PUSH1 0x32 PUSH1 0x4 MSTORE PUSH1 0x24 PUSH0 REVERT JUMPDEST PUSH0 PUSH2 0x1A89 DUP3 PUSH2 0x121C JUMP JUMPDEST PUSH2 0x1A93 DUP2 DUP6 PUSH2 0x1401 JUMP JUMPDEST SWAP4 POP PUSH2 0x1AA3 DUP2 DUP6 PUSH1 0x20 DUP7 ADD PUSH2 0x1043 JUMP JUMPDEST DUP1 DUP5 ADD SWAP2 POP POP SWAP3 SWAP2 POP POP JUMP JUMPDEST PUSH0 PUSH2 0x1ABA DUP3 DUP5 PUSH2 0x1A7F JUMP JUMPDEST SWAP2 POP DUP2 SWAP1 POP SWAP3 SWAP2 POP POP JUMP JUMPDEST PUSH0 PUSH1 0x40 DUP3 ADD SWAP1 POP PUSH2 0x1AD8 PUSH0 DUP4 ADD DUP6 PUSH2 0x12B8 JUMP JUMPDEST PUSH2 0x1AE5 PUSH1 0x20 DUP4 ADD DUP5 PUSH2 0x12B8 JUMP JUMPDEST SWAP4 SWAP3 POP POP POP JUMP INVALID LOG2 PUSH5 0x6970667358 0x22 SLT KECCAK256 0xEA CALL SELFBALANCE SDIV SWAP6 EXTCODECOPY PUSH29 0x57CE4398ED2AD3F9ACD41071E18F2CE875F23A6870C5196E3C64736F6C PUSH4 0x4300081F STOP CALLER "
				},
				"gasEstimates": {
					"creation": {
						"codeDepositCost": "1389200",
						"executionCost": "25714",
						"totalCost": "1414914"
					},
					"external": {
						"activeRoot()": "2491",
						"addPendingVariable(string,string,bytes)": "infinite",
						"authorizedContract()": "2531",
						"epochManager()": "infinite",
						"getActiveVariable(string,string)": "infinite",
						"getPendingCount()": "2484",
						"lastProcessedEpoch()": "2513",
						"owner()": "2597",
						"pendingRoot()": "2492",
						"pendingVariables(uint256)": "infinite",
						"setActiveVariableDirect(string,string,bytes)": "infinite",
						"setAuthorizedContract(address)": "28156",
						"setEpochManager(address)": "28067"
					},
					"internal": {
						"_checkAndHandleEpochRollover()": "infinite"
					}
				},
				"methodIdentifiers": {
					"activeRoot()": "abb2efdf",
					"addPendingVariable(string,string,bytes)": "2e057b9b",
					"authorizedContract()": "a6591cdf",
					"epochManager()": "e2d2bfe3",
					"getActiveVariable(string,string)": "16f1adc1",
					"getPendingCount()": "d795ede1",
					"lastProcessedEpoch()": "ee6713df",
					"owner()": "8da5cb5b",
					"pendingRoot()": "750588cf",
					"pendingVariables(uint256)": "3b6556bf",
					"setActiveVariableDirect(string,string,bytes)": "a6ee9eb1",
					"setAuthorizedContract(address)": "9aad69e7",
					"setEpochManager(address)": "d4d59edb"
				}
			},
			"storageLayout": {
				"storage": [
					{
						"astId": 16,
						"contract": "Evm/core/variables.sol:QiaraVariables",
						"label": "activeRoot",
						"offset": 0,
						"slot": "0",
						"type": "t_uint256"
					},
					{
						"astId": 18,
						"contract": "Evm/core/variables.sol:QiaraVariables",
						"label": "pendingRoot",
						"offset": 0,
						"slot": "1",
						"type": "t_uint256"
					},
					{
						"astId": 21,
						"contract": "Evm/core/variables.sol:QiaraVariables",
						"label": "epochManager",
						"offset": 0,
						"slot": "2",
						"type": "t_contract(IEpochManager)7"
					},
					{
						"astId": 23,
						"contract": "Evm/core/variables.sol:QiaraVariables",
						"label": "lastProcessedEpoch",
						"offset": 0,
						"slot": "3",
						"type": "t_uint256"
					},
					{
						"astId": 25,
						"contract": "Evm/core/variables.sol:QiaraVariables",
						"label": "authorizedContract",
						"offset": 0,
						"slot": "4",
						"type": "t_address"
					},
					{
						"astId": 27,
						"contract": "Evm/core/variables.sol:QiaraVariables",
						"label": "owner",
						"offset": 0,
						"slot": "5",
						"type": "t_address"
					},
					{
						"astId": 31,
						"contract": "Evm/core/variables.sol:QiaraVariables",
						"label": "pendingVariables",
						"offset": 0,
						"slot": "6",
						"type": "t_array(t_struct(VariableEntry)14_storage)dyn_storage"
					},
					{
						"astId": 37,
						"contract": "Evm/core/variables.sol:QiaraVariables",
						"label": "_activeData",
						"offset": 0,
						"slot": "7",
						"type": "t_mapping(t_string_memory_ptr,t_mapping(t_string_memory_ptr,t_bytes_storage))"
					}
				],
				"types": {
					"t_address": {
						"encoding": "inplace",
						"label": "address",
						"numberOfBytes": "20"
					},
					"t_array(t_struct(VariableEntry)14_storage)dyn_storage": {
						"base": "t_struct(VariableEntry)14_storage",
						"encoding": "dynamic_array",
						"label": "struct QiaraVariables.VariableEntry[]",
						"numberOfBytes": "32"
					},
					"t_bytes_storage": {
						"encoding": "bytes",
						"label": "bytes",
						"numberOfBytes": "32"
					},
					"t_contract(IEpochManager)7": {
						"encoding": "inplace",
						"label": "contract IEpochManager",
						"numberOfBytes": "20"
					},
					"t_mapping(t_string_memory_ptr,t_bytes_storage)": {
						"encoding": "mapping",
						"key": "t_string_memory_ptr",
						"label": "mapping(string => bytes)",
						"numberOfBytes": "32",
						"value": "t_bytes_storage"
					},
					"t_mapping(t_string_memory_ptr,t_mapping(t_string_memory_ptr,t_bytes_storage))": {
						"encoding": "mapping",
						"key": "t_string_memory_ptr",
						"label": "mapping(string => mapping(string => bytes))",
						"numberOfBytes": "32",
						"value": "t_mapping(t_string_memory_ptr,t_bytes_storage)"
					},
					"t_string_memory_ptr": {
						"encoding": "bytes",
						"label": "string",
						"numberOfBytes": "32"
					},
					"t_string_storage": {
						"encoding": "bytes",
						"label": "string",
						"numberOfBytes": "32"
					},
					"t_struct(VariableEntry)14_storage": {
						"encoding": "inplace",
						"label": "struct QiaraVariables.VariableEntry",
						"members": [
							{
								"astId": 9,
								"contract": "Evm/core/variables.sol:QiaraVariables",
								"label": "header",
								"offset": 0,
								"slot": "0",
								"type": "t_string_storage"
							},
							{
								"astId": 11,
								"contract": "Evm/core/variables.sol:QiaraVariables",
								"label": "name",
								"offset": 0,
								"slot": "1",
								"type": "t_string_storage"
							},
							{
								"astId": 13,
								"contract": "Evm/core/variables.sol:QiaraVariables",
								"label": "data",
								"offset": 0,
								"slot": "2",
								"type": "t_bytes_storage"
							}
						],
						"numberOfBytes": "96"
					},
					"t_uint256": {
						"encoding": "inplace",
						"label": "uint256",
						"numberOfBytes": "32"
					}
				}
			},
			"userdoc": {
				"kind": "user",
				"methods": {},
				"version": 1
			}
		}
	}
}