{
	"Evm/core/base/vault.sol": {
		"QiaraMultiAssetVault": {
			"abi": [
				{
					"inputs": [
						{
							"internalType": "address",
							"name": "_events",
							"type": "address"
						},
						{
							"internalType": "address",
							"name": "_variablesRegistry",
							"type": "address"
						},
						{
							"internalType": "address",
							"name": "_delegator",
							"type": "address"
						},
						{
							"internalType": "string",
							"name": "_providerName",
							"type": "string"
						},
						{
							"internalType": "uint256",
							"name": "_min",
							"type": "uint256"
						},
						{
							"internalType": "uint256",
							"name": "_max",
							"type": "uint256"
						}
					],
					"stateMutability": "nonpayable",
					"type": "constructor"
				},
				{
					"inputs": [
						{
							"internalType": "address",
							"name": "owner",
							"type": "address"
						}
					],
					"name": "OwnableInvalidOwner",
					"type": "error"
				},
				{
					"inputs": [
						{
							"internalType": "address",
							"name": "account",
							"type": "address"
						}
					],
					"name": "OwnableUnauthorizedAccount",
					"type": "error"
				},
				{
					"inputs": [
						{
							"internalType": "address",
							"name": "token",
							"type": "address"
						}
					],
					"name": "SafeERC20FailedOperation",
					"type": "error"
				},
				{
					"anonymous": false,
					"inputs": [
						{
							"indexed": true,
							"internalType": "address",
							"name": "user",
							"type": "address"
						},
						{
							"indexed": true,
							"internalType": "address",
							"name": "token",
							"type": "address"
						},
						{
							"indexed": false,
							"internalType": "uint256",
							"name": "amount",
							"type": "uint256"
						},
						{
							"indexed": false,
							"internalType": "string",
							"name": "provider",
							"type": "string"
						}
					],
					"name": "Deposit",
					"type": "event"
				},
				{
					"anonymous": false,
					"inputs": [
						{
							"indexed": true,
							"internalType": "address",
							"name": "user",
							"type": "address"
						},
						{
							"indexed": true,
							"internalType": "address",
							"name": "token",
							"type": "address"
						},
						{
							"indexed": false,
							"internalType": "uint256",
							"name": "amount",
							"type": "uint256"
						},
						{
							"indexed": false,
							"internalType": "string",
							"name": "provider",
							"type": "string"
						}
					],
					"name": "DirectWithdraw",
					"type": "event"
				},
				{
					"anonymous": false,
					"inputs": [
						{
							"indexed": true,
							"internalType": "address",
							"name": "previousOwner",
							"type": "address"
						},
						{
							"indexed": true,
							"internalType": "address",
							"name": "newOwner",
							"type": "address"
						}
					],
					"name": "OwnershipTransferred",
					"type": "event"
				},
				{
					"anonymous": false,
					"inputs": [
						{
							"indexed": true,
							"internalType": "address",
							"name": "token",
							"type": "address"
						},
						{
							"indexed": false,
							"internalType": "string",
							"name": "provider",
							"type": "string"
						}
					],
					"name": "TokenListed",
					"type": "event"
				},
				{
					"inputs": [
						{
							"internalType": "string",
							"name": "assetName",
							"type": "string"
						},
						{
							"internalType": "uint256",
							"name": "amount",
							"type": "uint256"
						}
					],
					"name": "deposit",
					"outputs": [],
					"stateMutability": "nonpayable",
					"type": "function"
				},
				{
					"inputs": [
						{
							"internalType": "address",
							"name": "user",
							"type": "address"
						},
						{
							"internalType": "string",
							"name": "assetName",
							"type": "string"
						},
						{
							"internalType": "uint256",
							"name": "amount",
							"type": "uint256"
						},
						{
							"internalType": "uint256",
							"name": "nullifier",
							"type": "uint256"
						}
					],
					"name": "directWithdraw",
					"outputs": [],
					"stateMutability": "nonpayable",
					"type": "function"
				},
				{
					"inputs": [],
					"name": "events",
					"outputs": [
						{
							"internalType": "contract IEvents",
							"name": "",
							"type": "address"
						}
					],
					"stateMutability": "view",
					"type": "function"
				},
				{
					"inputs": [
						{
							"internalType": "address",
							"name": "",
							"type": "address"
						}
					],
					"name": "isSupportedToken",
					"outputs": [
						{
							"internalType": "bool",
							"name": "",
							"type": "bool"
						}
					],
					"stateMutability": "view",
					"type": "function"
				},
				{
					"inputs": [
						{
							"internalType": "string",
							"name": "assetName",
							"type": "string"
						}
					],
					"name": "listNewToken",
					"outputs": [],
					"stateMutability": "nonpayable",
					"type": "function"
				},
				{
					"inputs": [
						{
							"internalType": "bytes",
							"name": "user",
							"type": "bytes"
						},
						{
							"internalType": "string",
							"name": "shared",
							"type": "string"
						},
						{
							"internalType": "string",
							"name": "assetName",
							"type": "string"
						},
						{
							"internalType": "uint256",
							"name": "amount",
							"type": "uint256"
						}
					],
					"name": "m_withdraw",
					"outputs": [],
					"stateMutability": "nonpayable",
					"type": "function"
				},
				{
					"inputs": [],
					"name": "max",
					"outputs": [
						{
							"internalType": "uint256",
							"name": "",
							"type": "uint256"
						}
					],
					"stateMutability": "view",
					"type": "function"
				},
				{
					"inputs": [],
					"name": "min",
					"outputs": [
						{
							"internalType": "uint256",
							"name": "",
							"type": "uint256"
						}
					],
					"stateMutability": "view",
					"type": "function"
				},
				{
					"inputs": [],
					"name": "owner",
					"outputs": [
						{
							"internalType": "address",
							"name": "",
							"type": "address"
						}
					],
					"stateMutability": "view",
					"type": "function"
				},
				{
					"inputs": [],
					"name": "providerName",
					"outputs": [
						{
							"internalType": "string",
							"name": "",
							"type": "string"
						}
					],
					"stateMutability": "view",
					"type": "function"
				},
				{
					"inputs": [],
					"name": "renounceOwnership",
					"outputs": [],
					"stateMutability": "nonpayable",
					"type": "function"
				},
				{
					"inputs": [
						{
							"internalType": "string",
							"name": "assetName",
							"type": "string"
						}
					],
					"name": "resolveAsset",
					"outputs": [
						{
							"internalType": "address",
							"name": "",
							"type": "address"
						}
					],
					"stateMutability": "view",
					"type": "function"
				},
				{
					"inputs": [
						{
							"internalType": "address",
							"name": "newOwner",
							"type": "address"
						}
					],
					"name": "transferOwnership",
					"outputs": [],
					"stateMutability": "nonpayable",
					"type": "function"
				},
				{
					"inputs": [],
					"name": "variablesRegistry",
					"outputs": [
						{
							"internalType": "contract IVariables",
							"name": "",
							"type": "address"
						}
					],
					"stateMutability": "view",
					"type": "function"
				}
			],
			"devdoc": {
				"errors": {
					"OwnableInvalidOwner(address)": [
						{
							"details": "The owner is not a valid owner account. (eg. `address(0)`)"
						}
					],
					"OwnableUnauthorizedAccount(address)": [
						{
							"details": "The caller account is not authorized to perform an operation."
						}
					],
					"SafeERC20FailedOperation(address)": [
						{
							"details": "An operation with an ERC-20 token failed."
						}
					]
				},
				"kind": "dev",
				"methods": {
					"directWithdraw(address,string,uint256,uint256)": {
						"details": "This function is called directly by the Delegator contract  after it has verified the ZK Proof and Signatures."
					},
					"m_withdraw(bytes,string,string,uint256)": {
						"details": "This function can be called by the user, consensus then processes this,  and if everything goes right, it then calls directWdirectWithdraw"
					},
					"owner()": {
						"details": "Returns the address of the current owner."
					},
					"renounceOwnership()": {
						"details": "Leaves the contract without owner. It will not be possible to call `onlyOwner` functions. Can only be called by the current owner. NOTE: Renouncing ownership will leave the contract without an owner, thereby disabling any functionality that is only available to the owner."
					},
					"transferOwnership(address)": {
						"details": "Transfers ownership of the contract to a new account (`newOwner`). Can only be called by the current owner."
					}
				},
				"version": 1
			},
			"evm": {
				"assembly": "    /* \"Evm/core/base/vault.sol\":561:7135  contract QiaraMultiAssetVault is Ownable {... */\n  mstore(0x40, 0xc0)\n    /* \"Evm/core/base/vault.sol\":1237:1640  constructor(... */\n  callvalue\n  dup1\n  iszero\n  tag_1\n  jumpi\n  revert(0x00, 0x00)\ntag_1:\n  pop\n  mload(0x40)\n  sub(codesize, bytecodeSize)\n  dup1\n  bytecodeSize\n  dup4\n  codecopy\n  dup2\n  dup2\n  add\n  0x40\n  mstore\n  dup2\n  add\n  swap1\n  tag_2\n  swap2\n  swap1\n  tag_3\n  jump\t// in\ntag_2:\n    /* \"Evm/core/base/vault.sol\":1442:1452  _delegator */\n  dup4\n    /* \"@openzeppelin/contracts/access/Ownable.sol\":1297:1298  0 */\n  0x00\n    /* \"@openzeppelin/contracts/access/Ownable.sol\":1273:1299  initialOwner == address(0) */\n  0xffffffffffffffffffffffffffffffffffffffff\n  and\n    /* \"@openzeppelin/contracts/access/Ownable.sol\":1273:1285  initialOwner */\n  dup2\n    /* \"@openzeppelin/contracts/access/Ownable.sol\":1273:1299  initialOwner == address(0) */\n  0xffffffffffffffffffffffffffffffffffffffff\n  and\n  sub\n    /* \"@openzeppelin/contracts/access/Ownable.sol\":1269:1364  if (initialOwner == address(0)) {... */\n  tag_7\n  jumpi\n    /* \"@openzeppelin/contracts/access/Ownable.sol\":1350:1351  0 */\n  0x00\n    /* \"@openzeppelin/contracts/access/Ownable.sol\":1322:1353  OwnableInvalidOwner(address(0)) */\n  mload(0x40)\n  0x1e4fbdf700000000000000000000000000000000000000000000000000000000\n  dup2\n  mstore\n  0x04\n  add\n  tag_8\n  swap2\n  swap1\n  tag_9\n  jump\t// in\ntag_8:\n  mload(0x40)\n  dup1\n  swap2\n  sub\n  swap1\n  revert\n    /* \"@openzeppelin/contracts/access/Ownable.sol\":1269:1364  if (initialOwner == address(0)) {... */\ntag_7:\n    /* \"@openzeppelin/contracts/access/Ownable.sol\":1373:1405  _transferOwnership(initialOwner) */\n  tag_10\n    /* \"@openzeppelin/contracts/access/Ownable.sol\":1392:1404  initialOwner */\n  dup2\n    /* \"@openzeppelin/contracts/access/Ownable.sol\":1373:1391  _transferOwnership */\n  shl(0x20, tag_11)\n    /* \"@openzeppelin/contracts/access/Ownable.sol\":1373:1405  _transferOwnership(initialOwner) */\n  0x20\n  shr\n  jump\t// in\ntag_10:\n    /* \"@openzeppelin/contracts/access/Ownable.sol\":1225:1412  constructor(address initialOwner) {... */\n  pop\n    /* \"Evm/core/base/vault.sol\":1482:1489  _events */\n  dup6\n    /* \"Evm/core/base/vault.sol\":1465:1490  events = IEvents(_events) */\n  0xffffffffffffffffffffffffffffffffffffffff\n  and\n  0xa0\n  dup2\n  0xffffffffffffffffffffffffffffffffffffffff\n  and\n  dup2\n  mstore\n  pop\n  pop\n    /* \"Evm/core/base/vault.sol\":1507:1511  _min */\n  dup2\n    /* \"Evm/core/base/vault.sol\":1501:1504  min */\n  0x02\n    /* \"Evm/core/base/vault.sol\":1501:1511  min = _min */\n  dup2\n  swap1\n  sstore\n  pop\n    /* \"Evm/core/base/vault.sol\":1528:1532  _max */\n  dup1\n    /* \"Evm/core/base/vault.sol\":1522:1525  max */\n  0x03\n    /* \"Evm/core/base/vault.sol\":1522:1532  max = _max */\n  dup2\n  swap1\n  sstore\n  pop\n    /* \"Evm/core/base/vault.sol\":1574:1592  _variablesRegistry */\n  dup5\n    /* \"Evm/core/base/vault.sol\":1543:1593  variablesRegistry = IVariables(_variablesRegistry) */\n  0xffffffffffffffffffffffffffffffffffffffff\n  and\n  0x80\n  dup2\n  0xffffffffffffffffffffffffffffffffffffffff\n  and\n  dup2\n  mstore\n  pop\n  pop\n    /* \"Evm/core/base/vault.sol\":1619:1632  _providerName */\n  dup3\n    /* \"Evm/core/base/vault.sol\":1604:1616  providerName */\n  0x01\n    /* \"Evm/core/base/vault.sol\":1604:1632  providerName = _providerName */\n  swap1\n  dup2\n  tag_13\n  swap2\n  swap1\n  tag_14\n  jump\t// in\ntag_13:\n  pop\n    /* \"Evm/core/base/vault.sol\":1237:1640  constructor(... */\n  pop\n  pop\n  pop\n  pop\n  pop\n  pop\n    /* \"Evm/core/base/vault.sol\":561:7135  contract QiaraMultiAssetVault is Ownable {... */\n  jump(tag_15)\n    /* \"@openzeppelin/contracts/access/Ownable.sol\":2912:3099  function _transferOwnership(address newOwner) internal virtual {... */\ntag_11:\n    /* \"@openzeppelin/contracts/access/Ownable.sol\":2985:3001  address oldOwner */\n  0x00\n    /* \"@openzeppelin/contracts/access/Ownable.sol\":3004:3010  _owner */\n  0x00\n  0x00\n  swap1\n  sload\n  swap1\n  0x0100\n  exp\n  swap1\n  div\n  0xffffffffffffffffffffffffffffffffffffffff\n  and\n    /* \"@openzeppelin/contracts/access/Ownable.sol\":2985:3010  address oldOwner = _owner */\n  swap1\n  pop\n    /* \"@openzeppelin/contracts/access/Ownable.sol\":3029:3037  newOwner */\n  dup2\n    /* \"@openzeppelin/contracts/access/Ownable.sol\":3020:3026  _owner */\n  0x00\n  0x00\n    /* \"@openzeppelin/contracts/access/Ownable.sol\":3020:3037  _owner = newOwner */\n  0x0100\n  exp\n  dup2\n  sload\n  dup2\n  0xffffffffffffffffffffffffffffffffffffffff\n  mul\n  not\n  and\n  swap1\n  dup4\n  0xffffffffffffffffffffffffffffffffffffffff\n  and\n  mul\n  or\n  swap1\n  sstore\n  pop\n    /* \"@openzeppelin/contracts/access/Ownable.sol\":3083:3091  newOwner */\n  dup2\n    /* \"@openzeppelin/contracts/access/Ownable.sol\":3052:3092  OwnershipTransferred(oldOwner, newOwner) */\n  0xffffffffffffffffffffffffffffffffffffffff\n  and\n    /* \"@openzeppelin/contracts/access/Ownable.sol\":3073:3081  oldOwner */\n  dup2\n    /* \"@openzeppelin/contracts/access/Ownable.sol\":3052:3092  OwnershipTransferred(oldOwner, newOwner) */\n  0xffffffffffffffffffffffffffffffffffffffff\n  and\n  0x8be0079c531659141344cd1fd0a4f28419497f9722a3daafe3b4186f6b6457e0\n  mload(0x40)\n  mload(0x40)\n  dup1\n  swap2\n  sub\n  swap1\n  log3\n    /* \"@openzeppelin/contracts/access/Ownable.sol\":2975:3099  {... */\n  pop\n    /* \"@openzeppelin/contracts/access/Ownable.sol\":2912:3099  function _transferOwnership(address newOwner) internal virtual {... */\n  pop\n  jump\t// out\n    /* \"#utility.yul\":7:82   */\ntag_17:\n    /* \"#utility.yul\":40:46   */\n  0x00\n    /* \"#utility.yul\":73:75   */\n  0x40\n    /* \"#utility.yul\":67:76   */\n  mload\n    /* \"#utility.yul\":57:76   */\n  swap1\n  pop\n    /* \"#utility.yul\":7:82   */\n  swap1\n  jump\t// out\n    /* \"#utility.yul\":88:205   */\ntag_18:\n    /* \"#utility.yul\":197:198   */\n  0x00\n    /* \"#utility.yul\":194:195   */\n  0x00\n    /* \"#utility.yul\":187:199   */\n  revert\n    /* \"#utility.yul\":211:328   */\ntag_19:\n    /* \"#utility.yul\":320:321   */\n  0x00\n    /* \"#utility.yul\":317:318   */\n  0x00\n    /* \"#utility.yul\":310:322   */\n  revert\n    /* \"#utility.yul\":334:460   */\ntag_20:\n    /* \"#utility.yul\":371:378   */\n  0x00\n    /* \"#utility.yul\":411:453   */\n  0xffffffffffffffffffffffffffffffffffffffff\n    /* \"#utility.yul\":404:409   */\n  dup3\n    /* \"#utility.yul\":400:454   */\n  and\n    /* \"#utility.yul\":389:454   */\n  swap1\n  pop\n    /* \"#utility.yul\":334:460   */\n  swap2\n  swap1\n  pop\n  jump\t// out\n    /* \"#utility.yul\":466:562   */\ntag_21:\n    /* \"#utility.yul\":503:510   */\n  0x00\n    /* \"#utility.yul\":532:556   */\n  tag_62\n    /* \"#utility.yul\":550:555   */\n  dup3\n    /* \"#utility.yul\":532:556   */\n  tag_20\n  jump\t// in\ntag_62:\n    /* \"#utility.yul\":521:556   */\n  swap1\n  pop\n    /* \"#utility.yul\":466:562   */\n  swap2\n  swap1\n  pop\n  jump\t// out\n    /* \"#utility.yul\":568:690   */\ntag_22:\n    /* \"#utility.yul\":641:665   */\n  tag_64\n    /* \"#utility.yul\":659:664   */\n  dup2\n    /* \"#utility.yul\":641:665   */\n  tag_21\n  jump\t// in\ntag_64:\n    /* \"#utility.yul\":634:639   */\n  dup2\n    /* \"#utility.yul\":631:666   */\n  eq\n    /* \"#utility.yul\":621:684   */\n  tag_65\n  jumpi\n    /* \"#utility.yul\":680:681   */\n  0x00\n    /* \"#utility.yul\":677:678   */\n  0x00\n    /* \"#utility.yul\":670:682   */\n  revert\n    /* \"#utility.yul\":621:684   */\ntag_65:\n    /* \"#utility.yul\":568:690   */\n  pop\n  jump\t// out\n    /* \"#utility.yul\":696:839   */\ntag_23:\n    /* \"#utility.yul\":753:758   */\n  0x00\n    /* \"#utility.yul\":784:790   */\n  dup2\n    /* \"#utility.yul\":778:791   */\n  mload\n    /* \"#utility.yul\":769:791   */\n  swap1\n  pop\n    /* \"#utility.yul\":800:833   */\n  tag_67\n    /* \"#utility.yul\":827:832   */\n  dup2\n    /* \"#utility.yul\":800:833   */\n  tag_22\n  jump\t// in\ntag_67:\n    /* \"#utility.yul\":696:839   */\n  swap3\n  swap2\n  pop\n  pop\n  jump\t// out\n    /* \"#utility.yul\":845:962   */\ntag_24:\n    /* \"#utility.yul\":954:955   */\n  0x00\n    /* \"#utility.yul\":951:952   */\n  0x00\n    /* \"#utility.yul\":944:956   */\n  revert\n    /* \"#utility.yul\":968:1085   */\ntag_25:\n    /* \"#utility.yul\":1077:1078   */\n  0x00\n    /* \"#utility.yul\":1074:1075   */\n  0x00\n    /* \"#utility.yul\":1067:1079   */\n  revert\n    /* \"#utility.yul\":1091:1193   */\ntag_26:\n    /* \"#utility.yul\":1132:1138   */\n  0x00\n    /* \"#utility.yul\":1183:1185   */\n  0x1f\n    /* \"#utility.yul\":1179:1186   */\n  not\n    /* \"#utility.yul\":1174:1176   */\n  0x1f\n    /* \"#utility.yul\":1167:1172   */\n  dup4\n    /* \"#utility.yul\":1163:1177   */\n  add\n    /* \"#utility.yul\":1159:1187   */\n  and\n    /* \"#utility.yul\":1149:1187   */\n  swap1\n  pop\n    /* \"#utility.yul\":1091:1193   */\n  swap2\n  swap1\n  pop\n  jump\t// out\n    /* \"#utility.yul\":1199:1379   */\ntag_27:\n    /* \"#utility.yul\":1247:1324   */\n  0x4e487b7100000000000000000000000000000000000000000000000000000000\n    /* \"#utility.yul\":1244:1245   */\n  0x00\n    /* \"#utility.yul\":1237:1325   */\n  mstore\n    /* \"#utility.yul\":1344:1348   */\n  0x41\n    /* \"#utility.yul\":1341:1342   */\n  0x04\n    /* \"#utility.yul\":1334:1349   */\n  mstore\n    /* \"#utility.yul\":1368:1372   */\n  0x24\n    /* \"#utility.yul\":1365:1366   */\n  0x00\n    /* \"#utility.yul\":1358:1373   */\n  revert\n    /* \"#utility.yul\":1385:1666   */\ntag_28:\n    /* \"#utility.yul\":1468:1495   */\n  tag_73\n    /* \"#utility.yul\":1490:1494   */\n  dup3\n    /* \"#utility.yul\":1468:1495   */\n  tag_26\n  jump\t// in\ntag_73:\n    /* \"#utility.yul\":1460:1466   */\n  dup2\n    /* \"#utility.yul\":1456:1496   */\n  add\n    /* \"#utility.yul\":1598:1604   */\n  dup2\n    /* \"#utility.yul\":1586:1596   */\n  dup2\n    /* \"#utility.yul\":1583:1605   */\n  lt\n    /* \"#utility.yul\":1562:1580   */\n  0xffffffffffffffff\n    /* \"#utility.yul\":1550:1560   */\n  dup3\n    /* \"#utility.yul\":1547:1581   */\n  gt\n    /* \"#utility.yul\":1544:1606   */\n  or\n    /* \"#utility.yul\":1541:1629   */\n  iszero\n  tag_74\n  jumpi\n    /* \"#utility.yul\":1609:1627   */\n  tag_75\n  tag_27\n  jump\t// in\ntag_75:\n    /* \"#utility.yul\":1541:1629   */\ntag_74:\n    /* \"#utility.yul\":1649:1659   */\n  dup1\n    /* \"#utility.yul\":1645:1647   */\n  0x40\n    /* \"#utility.yul\":1638:1660   */\n  mstore\n    /* \"#utility.yul\":1428:1666   */\n  pop\n    /* \"#utility.yul\":1385:1666   */\n  pop\n  pop\n  jump\t// out\n    /* \"#utility.yul\":1672:1801   */\ntag_29:\n    /* \"#utility.yul\":1706:1712   */\n  0x00\n    /* \"#utility.yul\":1733:1753   */\n  tag_77\n  tag_17\n  jump\t// in\ntag_77:\n    /* \"#utility.yul\":1723:1753   */\n  swap1\n  pop\n    /* \"#utility.yul\":1762:1795   */\n  tag_78\n    /* \"#utility.yul\":1790:1794   */\n  dup3\n    /* \"#utility.yul\":1782:1788   */\n  dup3\n    /* \"#utility.yul\":1762:1795   */\n  tag_28\n  jump\t// in\ntag_78:\n    /* \"#utility.yul\":1672:1801   */\n  swap2\n  swap1\n  pop\n  jump\t// out\n    /* \"#utility.yul\":1807:2115   */\ntag_30:\n    /* \"#utility.yul\":1869:1873   */\n  0x00\n    /* \"#utility.yul\":1959:1977   */\n  0xffffffffffffffff\n    /* \"#utility.yul\":1951:1957   */\n  dup3\n    /* \"#utility.yul\":1948:1978   */\n  gt\n    /* \"#utility.yul\":1945:2001   */\n  iszero\n  tag_80\n  jumpi\n    /* \"#utility.yul\":1981:1999   */\n  tag_81\n  tag_27\n  jump\t// in\ntag_81:\n    /* \"#utility.yul\":1945:2001   */\ntag_80:\n    /* \"#utility.yul\":2019:2048   */\n  tag_82\n    /* \"#utility.yul\":2041:2047   */\n  dup3\n    /* \"#utility.yul\":2019:2048   */\n  tag_26\n  jump\t// in\ntag_82:\n    /* \"#utility.yul\":2011:2048   */\n  swap1\n  pop\n    /* \"#utility.yul\":2103:2107   */\n  0x20\n    /* \"#utility.yul\":2097:2101   */\n  dup2\n    /* \"#utility.yul\":2093:2108   */\n  add\n    /* \"#utility.yul\":2085:2108   */\n  swap1\n  pop\n    /* \"#utility.yul\":1807:2115   */\n  swap2\n  swap1\n  pop\n  jump\t// out\n    /* \"#utility.yul\":2121:2260   */\ntag_31:\n    /* \"#utility.yul\":2210:2216   */\n  dup3\n    /* \"#utility.yul\":2205:2208   */\n  dup2\n    /* \"#utility.yul\":2200:2203   */\n  dup4\n    /* \"#utility.yul\":2194:2217   */\n  mcopy\n    /* \"#utility.yul\":2251:2252   */\n  0x00\n    /* \"#utility.yul\":2242:2248   */\n  dup4\n    /* \"#utility.yul\":2237:2240   */\n  dup4\n    /* \"#utility.yul\":2233:2249   */\n  add\n    /* \"#utility.yul\":2226:2253   */\n  mstore\n    /* \"#utility.yul\":2121:2260   */\n  pop\n  pop\n  pop\n  jump\t// out\n    /* \"#utility.yul\":2266:2700   */\ntag_32:\n    /* \"#utility.yul\":2355:2360   */\n  0x00\n    /* \"#utility.yul\":2380:2446   */\n  tag_85\n    /* \"#utility.yul\":2396:2445   */\n  tag_86\n    /* \"#utility.yul\":2438:2444   */\n  dup5\n    /* \"#utility.yul\":2396:2445   */\n  tag_30\n  jump\t// in\ntag_86:\n    /* \"#utility.yul\":2380:2446   */\n  tag_29\n  jump\t// in\ntag_85:\n    /* \"#utility.yul\":2371:2446   */\n  swap1\n  pop\n    /* \"#utility.yul\":2469:2475   */\n  dup3\n    /* \"#utility.yul\":2462:2467   */\n  dup2\n    /* \"#utility.yul\":2455:2476   */\n  mstore\n    /* \"#utility.yul\":2507:2511   */\n  0x20\n    /* \"#utility.yul\":2500:2505   */\n  dup2\n    /* \"#utility.yul\":2496:2512   */\n  add\n    /* \"#utility.yul\":2545:2548   */\n  dup5\n    /* \"#utility.yul\":2536:2542   */\n  dup5\n    /* \"#utility.yul\":2531:2534   */\n  dup5\n    /* \"#utility.yul\":2527:2543   */\n  add\n    /* \"#utility.yul\":2524:2549   */\n  gt\n    /* \"#utility.yul\":2521:2633   */\n  iszero\n  tag_87\n  jumpi\n    /* \"#utility.yul\":2552:2631   */\n  tag_88\n  tag_25\n  jump\t// in\ntag_88:\n    /* \"#utility.yul\":2521:2633   */\ntag_87:\n    /* \"#utility.yul\":2642:2694   */\n  tag_89\n    /* \"#utility.yul\":2687:2693   */\n  dup5\n    /* \"#utility.yul\":2682:2685   */\n  dup3\n    /* \"#utility.yul\":2677:2680   */\n  dup6\n    /* \"#utility.yul\":2642:2694   */\n  tag_31\n  jump\t// in\ntag_89:\n    /* \"#utility.yul\":2361:2700   */\n  pop\n    /* \"#utility.yul\":2266:2700   */\n  swap4\n  swap3\n  pop\n  pop\n  pop\n  jump\t// out\n    /* \"#utility.yul\":2720:3075   */\ntag_33:\n    /* \"#utility.yul\":2787:2792   */\n  0x00\n    /* \"#utility.yul\":2836:2839   */\n  dup3\n    /* \"#utility.yul\":2829:2833   */\n  0x1f\n    /* \"#utility.yul\":2821:2827   */\n  dup4\n    /* \"#utility.yul\":2817:2834   */\n  add\n    /* \"#utility.yul\":2813:2840   */\n  slt\n    /* \"#utility.yul\":2803:2925   */\n  tag_91\n  jumpi\n    /* \"#utility.yul\":2844:2923   */\n  tag_92\n  tag_24\n  jump\t// in\ntag_92:\n    /* \"#utility.yul\":2803:2925   */\ntag_91:\n    /* \"#utility.yul\":2954:2960   */\n  dup2\n    /* \"#utility.yul\":2948:2961   */\n  mload\n    /* \"#utility.yul\":2979:3069   */\n  tag_93\n    /* \"#utility.yul\":3065:3068   */\n  dup5\n    /* \"#utility.yul\":3057:3063   */\n  dup3\n    /* \"#utility.yul\":3050:3054   */\n  0x20\n    /* \"#utility.yul\":3042:3048   */\n  dup7\n    /* \"#utility.yul\":3038:3055   */\n  add\n    /* \"#utility.yul\":2979:3069   */\n  tag_32\n  jump\t// in\ntag_93:\n    /* \"#utility.yul\":2970:3069   */\n  swap2\n  pop\n    /* \"#utility.yul\":2793:3075   */\n  pop\n    /* \"#utility.yul\":2720:3075   */\n  swap3\n  swap2\n  pop\n  pop\n  jump\t// out\n    /* \"#utility.yul\":3081:3158   */\ntag_34:\n    /* \"#utility.yul\":3118:3125   */\n  0x00\n    /* \"#utility.yul\":3147:3152   */\n  dup2\n    /* \"#utility.yul\":3136:3152   */\n  swap1\n  pop\n    /* \"#utility.yul\":3081:3158   */\n  swap2\n  swap1\n  pop\n  jump\t// out\n    /* \"#utility.yul\":3164:3286   */\ntag_35:\n    /* \"#utility.yul\":3237:3261   */\n  tag_96\n    /* \"#utility.yul\":3255:3260   */\n  dup2\n    /* \"#utility.yul\":3237:3261   */\n  tag_34\n  jump\t// in\ntag_96:\n    /* \"#utility.yul\":3230:3235   */\n  dup2\n    /* \"#utility.yul\":3227:3262   */\n  eq\n    /* \"#utility.yul\":3217:3280   */\n  tag_97\n  jumpi\n    /* \"#utility.yul\":3276:3277   */\n  0x00\n    /* \"#utility.yul\":3273:3274   */\n  0x00\n    /* \"#utility.yul\":3266:3278   */\n  revert\n    /* \"#utility.yul\":3217:3280   */\ntag_97:\n    /* \"#utility.yul\":3164:3286   */\n  pop\n  jump\t// out\n    /* \"#utility.yul\":3292:3435   */\ntag_36:\n    /* \"#utility.yul\":3349:3354   */\n  0x00\n    /* \"#utility.yul\":3380:3386   */\n  dup2\n    /* \"#utility.yul\":3374:3387   */\n  mload\n    /* \"#utility.yul\":3365:3387   */\n  swap1\n  pop\n    /* \"#utility.yul\":3396:3429   */\n  tag_99\n    /* \"#utility.yul\":3423:3428   */\n  dup2\n    /* \"#utility.yul\":3396:3429   */\n  tag_35\n  jump\t// in\ntag_99:\n    /* \"#utility.yul\":3292:3435   */\n  swap3\n  swap2\n  pop\n  pop\n  jump\t// out\n    /* \"#utility.yul\":3441:4748   */\ntag_3:\n    /* \"#utility.yul\":3566:3572   */\n  0x00\n    /* \"#utility.yul\":3574:3580   */\n  0x00\n    /* \"#utility.yul\":3582:3588   */\n  0x00\n    /* \"#utility.yul\":3590:3596   */\n  0x00\n    /* \"#utility.yul\":3598:3604   */\n  0x00\n    /* \"#utility.yul\":3606:3612   */\n  0x00\n    /* \"#utility.yul\":3655:3658   */\n  0xc0\n    /* \"#utility.yul\":3643:3652   */\n  dup8\n    /* \"#utility.yul\":3634:3641   */\n  dup10\n    /* \"#utility.yul\":3630:3653   */\n  sub\n    /* \"#utility.yul\":3626:3659   */\n  slt\n    /* \"#utility.yul\":3623:3743   */\n  iszero\n  tag_101\n  jumpi\n    /* \"#utility.yul\":3662:3741   */\n  tag_102\n  tag_18\n  jump\t// in\ntag_102:\n    /* \"#utility.yul\":3623:3743   */\ntag_101:\n    /* \"#utility.yul\":3782:3783   */\n  0x00\n    /* \"#utility.yul\":3807:3871   */\n  tag_103\n    /* \"#utility.yul\":3863:3870   */\n  dup10\n    /* \"#utility.yul\":3854:3860   */\n  dup3\n    /* \"#utility.yul\":3843:3852   */\n  dup11\n    /* \"#utility.yul\":3839:3861   */\n  add\n    /* \"#utility.yul\":3807:3871   */\n  tag_23\n  jump\t// in\ntag_103:\n    /* \"#utility.yul\":3797:3871   */\n  swap7\n  pop\n    /* \"#utility.yul\":3753:3881   */\n  pop\n    /* \"#utility.yul\":3920:3922   */\n  0x20\n    /* \"#utility.yul\":3946:4010   */\n  tag_104\n    /* \"#utility.yul\":4002:4009   */\n  dup10\n    /* \"#utility.yul\":3993:3999   */\n  dup3\n    /* \"#utility.yul\":3982:3991   */\n  dup11\n    /* \"#utility.yul\":3978:4000   */\n  add\n    /* \"#utility.yul\":3946:4010   */\n  tag_23\n  jump\t// in\ntag_104:\n    /* \"#utility.yul\":3936:4010   */\n  swap6\n  pop\n    /* \"#utility.yul\":3891:4020   */\n  pop\n    /* \"#utility.yul\":4059:4061   */\n  0x40\n    /* \"#utility.yul\":4085:4149   */\n  tag_105\n    /* \"#utility.yul\":4141:4148   */\n  dup10\n    /* \"#utility.yul\":4132:4138   */\n  dup3\n    /* \"#utility.yul\":4121:4130   */\n  dup11\n    /* \"#utility.yul\":4117:4139   */\n  add\n    /* \"#utility.yul\":4085:4149   */\n  tag_23\n  jump\t// in\ntag_105:\n    /* \"#utility.yul\":4075:4149   */\n  swap5\n  pop\n    /* \"#utility.yul\":4030:4159   */\n  pop\n    /* \"#utility.yul\":4219:4221   */\n  0x60\n    /* \"#utility.yul\":4208:4217   */\n  dup8\n    /* \"#utility.yul\":4204:4222   */\n  add\n    /* \"#utility.yul\":4198:4223   */\n  mload\n    /* \"#utility.yul\":4250:4268   */\n  0xffffffffffffffff\n    /* \"#utility.yul\":4242:4248   */\n  dup2\n    /* \"#utility.yul\":4239:4269   */\n  gt\n    /* \"#utility.yul\":4236:4353   */\n  iszero\n  tag_106\n  jumpi\n    /* \"#utility.yul\":4272:4351   */\n  tag_107\n  tag_19\n  jump\t// in\ntag_107:\n    /* \"#utility.yul\":4236:4353   */\ntag_106:\n    /* \"#utility.yul\":4377:4451   */\n  tag_108\n    /* \"#utility.yul\":4443:4450   */\n  dup10\n    /* \"#utility.yul\":4434:4440   */\n  dup3\n    /* \"#utility.yul\":4423:4432   */\n  dup11\n    /* \"#utility.yul\":4419:4441   */\n  add\n    /* \"#utility.yul\":4377:4451   */\n  tag_33\n  jump\t// in\ntag_108:\n    /* \"#utility.yul\":4367:4451   */\n  swap4\n  pop\n    /* \"#utility.yul\":4169:4461   */\n  pop\n    /* \"#utility.yul\":4500:4503   */\n  0x80\n    /* \"#utility.yul\":4527:4591   */\n  tag_109\n    /* \"#utility.yul\":4583:4590   */\n  dup10\n    /* \"#utility.yul\":4574:4580   */\n  dup3\n    /* \"#utility.yul\":4563:4572   */\n  dup11\n    /* \"#utility.yul\":4559:4581   */\n  add\n    /* \"#utility.yul\":4527:4591   */\n  tag_36\n  jump\t// in\ntag_109:\n    /* \"#utility.yul\":4517:4591   */\n  swap3\n  pop\n    /* \"#utility.yul\":4471:4601   */\n  pop\n    /* \"#utility.yul\":4640:4643   */\n  0xa0\n    /* \"#utility.yul\":4667:4731   */\n  tag_110\n    /* \"#utility.yul\":4723:4730   */\n  dup10\n    /* \"#utility.yul\":4714:4720   */\n  dup3\n    /* \"#utility.yul\":4703:4712   */\n  dup11\n    /* \"#utility.yul\":4699:4721   */\n  add\n    /* \"#utility.yul\":4667:4731   */\n  tag_36\n  jump\t// in\ntag_110:\n    /* \"#utility.yul\":4657:4731   */\n  swap2\n  pop\n    /* \"#utility.yul\":4611:4741   */\n  pop\n    /* \"#utility.yul\":3441:4748   */\n  swap3\n  swap6\n  pop\n  swap3\n  swap6\n  pop\n  swap3\n  swap6\n  jump\t// out\n    /* \"#utility.yul\":4754:4872   */\ntag_37:\n    /* \"#utility.yul\":4841:4865   */\n  tag_112\n    /* \"#utility.yul\":4859:4864   */\n  dup2\n    /* \"#utility.yul\":4841:4865   */\n  tag_21\n  jump\t// in\ntag_112:\n    /* \"#utility.yul\":4836:4839   */\n  dup3\n    /* \"#utility.yul\":4829:4866   */\n  mstore\n    /* \"#utility.yul\":4754:4872   */\n  pop\n  pop\n  jump\t// out\n    /* \"#utility.yul\":4878:5100   */\ntag_9:\n    /* \"#utility.yul\":4971:4975   */\n  0x00\n    /* \"#utility.yul\":5009:5011   */\n  0x20\n    /* \"#utility.yul\":4998:5007   */\n  dup3\n    /* \"#utility.yul\":4994:5012   */\n  add\n    /* \"#utility.yul\":4986:5012   */\n  swap1\n  pop\n    /* \"#utility.yul\":5022:5093   */\n  tag_114\n    /* \"#utility.yul\":5090:5091   */\n  0x00\n    /* \"#utility.yul\":5079:5088   */\n  dup4\n    /* \"#utility.yul\":5075:5092   */\n  add\n    /* \"#utility.yul\":5066:5072   */\n  dup5\n    /* \"#utility.yul\":5022:5093   */\n  tag_37\n  jump\t// in\ntag_114:\n    /* \"#utility.yul\":4878:5100   */\n  swap3\n  swap2\n  pop\n  pop\n  jump\t// out\n    /* \"#utility.yul\":5106:5205   */\ntag_38:\n    /* \"#utility.yul\":5158:5164   */\n  0x00\n    /* \"#utility.yul\":5192:5197   */\n  dup2\n    /* \"#utility.yul\":5186:5198   */\n  mload\n    /* \"#utility.yul\":5176:5198   */\n  swap1\n  pop\n    /* \"#utility.yul\":5106:5205   */\n  swap2\n  swap1\n  pop\n  jump\t// out\n    /* \"#utility.yul\":5211:5391   */\ntag_39:\n    /* \"#utility.yul\":5259:5336   */\n  0x4e487b7100000000000000000000000000000000000000000000000000000000\n    /* \"#utility.yul\":5256:5257   */\n  0x00\n    /* \"#utility.yul\":5249:5337   */\n  mstore\n    /* \"#utility.yul\":5356:5360   */\n  0x22\n    /* \"#utility.yul\":5353:5354   */\n  0x04\n    /* \"#utility.yul\":5346:5361   */\n  mstore\n    /* \"#utility.yul\":5380:5384   */\n  0x24\n    /* \"#utility.yul\":5377:5378   */\n  0x00\n    /* \"#utility.yul\":5370:5385   */\n  revert\n    /* \"#utility.yul\":5397:5717   */\ntag_40:\n    /* \"#utility.yul\":5441:5447   */\n  0x00\n    /* \"#utility.yul\":5478:5479   */\n  0x02\n    /* \"#utility.yul\":5472:5476   */\n  dup3\n    /* \"#utility.yul\":5468:5480   */\n  div\n    /* \"#utility.yul\":5458:5480   */\n  swap1\n  pop\n    /* \"#utility.yul\":5525:5526   */\n  0x01\n    /* \"#utility.yul\":5519:5523   */\n  dup3\n    /* \"#utility.yul\":5515:5527   */\n  and\n    /* \"#utility.yul\":5546:5564   */\n  dup1\n    /* \"#utility.yul\":5536:5617   */\n  tag_118\n  jumpi\n    /* \"#utility.yul\":5602:5606   */\n  0x7f\n    /* \"#utility.yul\":5594:5600   */\n  dup3\n    /* \"#utility.yul\":5590:5607   */\n  and\n    /* \"#utility.yul\":5580:5607   */\n  swap2\n  pop\n    /* \"#utility.yul\":5536:5617   */\ntag_118:\n    /* \"#utility.yul\":5664:5666   */\n  0x20\n    /* \"#utility.yul\":5656:5662   */\n  dup3\n    /* \"#utility.yul\":5653:5667   */\n  lt\n    /* \"#utility.yul\":5633:5651   */\n  dup2\n    /* \"#utility.yul\":5630:5668   */\n  sub\n    /* \"#utility.yul\":5627:5711   */\n  tag_119\n  jumpi\n    /* \"#utility.yul\":5683:5701   */\n  tag_120\n  tag_39\n  jump\t// in\ntag_120:\n    /* \"#utility.yul\":5627:5711   */\ntag_119:\n    /* \"#utility.yul\":5448:5717   */\n  pop\n    /* \"#utility.yul\":5397:5717   */\n  swap2\n  swap1\n  pop\n  jump\t// out\n    /* \"#utility.yul\":5723:5864   */\ntag_41:\n    /* \"#utility.yul\":5772:5776   */\n  0x00\n    /* \"#utility.yul\":5795:5798   */\n  dup2\n    /* \"#utility.yul\":5787:5798   */\n  swap1\n  pop\n    /* \"#utility.yul\":5818:5821   */\n  dup2\n    /* \"#utility.yul\":5815:5816   */\n  0x00\n    /* \"#utility.yul\":5808:5822   */\n  mstore\n    /* \"#utility.yul\":5852:5856   */\n  0x20\n    /* \"#utility.yul\":5849:5850   */\n  0x00\n    /* \"#utility.yul\":5839:5857   */\n  keccak256\n    /* \"#utility.yul\":5831:5857   */\n  swap1\n  pop\n    /* \"#utility.yul\":5723:5864   */\n  swap2\n  swap1\n  pop\n  jump\t// out\n    /* \"#utility.yul\":5870:5963   */\ntag_42:\n    /* \"#utility.yul\":5907:5913   */\n  0x00\n    /* \"#utility.yul\":5954:5956   */\n  0x20\n    /* \"#utility.yul\":5949:5951   */\n  0x1f\n    /* \"#utility.yul\":5942:5947   */\n  dup4\n    /* \"#utility.yul\":5938:5952   */\n  add\n    /* \"#utility.yul\":5934:5957   */\n  div\n    /* \"#utility.yul\":5924:5957   */\n  swap1\n  pop\n    /* \"#utility.yul\":5870:5963   */\n  swap2\n  swap1\n  pop\n  jump\t// out\n    /* \"#utility.yul\":5969:6076   */\ntag_43:\n    /* \"#utility.yul\":6013:6021   */\n  0x00\n    /* \"#utility.yul\":6063:6068   */\n  dup3\n    /* \"#utility.yul\":6057:6061   */\n  dup3\n    /* \"#utility.yul\":6053:6069   */\n  shl\n    /* \"#utility.yul\":6032:6069   */\n  swap1\n  pop\n    /* \"#utility.yul\":5969:6076   */\n  swap3\n  swap2\n  pop\n  pop\n  jump\t// out\n    /* \"#utility.yul\":6082:6475   */\ntag_44:\n    /* \"#utility.yul\":6151:6157   */\n  0x00\n    /* \"#utility.yul\":6201:6202   */\n  0x08\n    /* \"#utility.yul\":6189:6199   */\n  dup4\n    /* \"#utility.yul\":6185:6203   */\n  mul\n    /* \"#utility.yul\":6224:6321   */\n  tag_125\n    /* \"#utility.yul\":6254:6320   */\n  0xffffffffffffffffffffffffffffffffffffffffffffffffffffffffffffffff\n    /* \"#utility.yul\":6243:6252   */\n  dup3\n    /* \"#utility.yul\":6224:6321   */\n  tag_43\n  jump\t// in\ntag_125:\n    /* \"#utility.yul\":6342:6381   */\n  tag_126\n    /* \"#utility.yul\":6372:6380   */\n  dup7\n    /* \"#utility.yul\":6361:6370   */\n  dup4\n    /* \"#utility.yul\":6342:6381   */\n  tag_43\n  jump\t// in\ntag_126:\n    /* \"#utility.yul\":6330:6381   */\n  swap6\n  pop\n    /* \"#utility.yul\":6414:6418   */\n  dup1\n    /* \"#utility.yul\":6410:6419   */\n  not\n    /* \"#utility.yul\":6403:6408   */\n  dup5\n    /* \"#utility.yul\":6399:6420   */\n  and\n    /* \"#utility.yul\":6390:6420   */\n  swap4\n  pop\n    /* \"#utility.yul\":6463:6467   */\n  dup1\n    /* \"#utility.yul\":6453:6461   */\n  dup7\n    /* \"#utility.yul\":6449:6468   */\n  and\n    /* \"#utility.yul\":6442:6447   */\n  dup5\n    /* \"#utility.yul\":6439:6469   */\n  or\n    /* \"#utility.yul\":6429:6469   */\n  swap3\n  pop\n    /* \"#utility.yul\":6158:6475   */\n  pop\n  pop\n    /* \"#utility.yul\":6082:6475   */\n  swap4\n  swap3\n  pop\n  pop\n  pop\n  jump\t// out\n    /* \"#utility.yul\":6481:6541   */\ntag_45:\n    /* \"#utility.yul\":6509:6512   */\n  0x00\n    /* \"#utility.yul\":6530:6535   */\n  dup2\n    /* \"#utility.yul\":6523:6535   */\n  swap1\n  pop\n    /* \"#utility.yul\":6481:6541   */\n  swap2\n  swap1\n  pop\n  jump\t// out\n    /* \"#utility.yul\":6547:6689   */\ntag_46:\n    /* \"#utility.yul\":6597:6606   */\n  0x00\n    /* \"#utility.yul\":6630:6683   */\n  tag_129\n    /* \"#utility.yul\":6648:6682   */\n  tag_130\n    /* \"#utility.yul\":6657:6681   */\n  tag_131\n    /* \"#utility.yul\":6675:6680   */\n  dup5\n    /* \"#utility.yul\":6657:6681   */\n  tag_34\n  jump\t// in\ntag_131:\n    /* \"#utility.yul\":6648:6682   */\n  tag_45\n  jump\t// in\ntag_130:\n    /* \"#utility.yul\":6630:6683   */\n  tag_34\n  jump\t// in\ntag_129:\n    /* \"#utility.yul\":6617:6683   */\n  swap1\n  pop\n    /* \"#utility.yul\":6547:6689   */\n  swap2\n  swap1\n  pop\n  jump\t// out\n    /* \"#utility.yul\":6695:6770   */\ntag_47:\n    /* \"#utility.yul\":6738:6741   */\n  0x00\n    /* \"#utility.yul\":6759:6764   */\n  dup2\n    /* \"#utility.yul\":6752:6764   */\n  swap1\n  pop\n    /* \"#utility.yul\":6695:6770   */\n  swap2\n  swap1\n  pop\n  jump\t// out\n    /* \"#utility.yul\":6776:7045   */\ntag_48:\n    /* \"#utility.yul\":6886:6925   */\n  tag_134\n    /* \"#utility.yul\":6917:6924   */\n  dup4\n    /* \"#utility.yul\":6886:6925   */\n  tag_46\n  jump\t// in\ntag_134:\n    /* \"#utility.yul\":6947:7038   */\n  tag_135\n    /* \"#utility.yul\":6996:7037   */\n  tag_136\n    /* \"#utility.yul\":7020:7036   */\n  dup3\n    /* \"#utility.yul\":6996:7037   */\n  tag_47\n  jump\t// in\ntag_136:\n    /* \"#utility.yul\":6988:6994   */\n  dup5\n    /* \"#utility.yul\":6981:6985   */\n  dup5\n    /* \"#utility.yul\":6975:6986   */\n  sload\n    /* \"#utility.yul\":6947:7038   */\n  tag_44\n  jump\t// in\ntag_135:\n    /* \"#utility.yul\":6941:6945   */\n  dup3\n    /* \"#utility.yul\":6934:7039   */\n  sstore\n    /* \"#utility.yul\":6852:7045   */\n  pop\n    /* \"#utility.yul\":6776:7045   */\n  pop\n  pop\n  pop\n  jump\t// out\n    /* \"#utility.yul\":7051:7124   */\ntag_49:\n    /* \"#utility.yul\":7096:7099   */\n  0x00\n    /* \"#utility.yul\":7117:7118   */\n  0x00\n    /* \"#utility.yul\":7110:7118   */\n  swap1\n  pop\n    /* \"#utility.yul\":7051:7124   */\n  swap1\n  jump\t// out\n    /* \"#utility.yul\":7130:7319   */\ntag_50:\n    /* \"#utility.yul\":7207:7239   */\n  tag_139\n  tag_49\n  jump\t// in\ntag_139:\n    /* \"#utility.yul\":7248:7313   */\n  tag_140\n    /* \"#utility.yul\":7306:7312   */\n  dup2\n    /* \"#utility.yul\":7298:7304   */\n  dup5\n    /* \"#utility.yul\":7292:7296   */\n  dup5\n    /* \"#utility.yul\":7248:7313   */\n  tag_48\n  jump\t// in\ntag_140:\n    /* \"#utility.yul\":7183:7319   */\n  pop\n    /* \"#utility.yul\":7130:7319   */\n  pop\n  pop\n  jump\t// out\n    /* \"#utility.yul\":7325:7511   */\ntag_51:\n    /* \"#utility.yul\":7385:7505   */\ntag_142:\n    /* \"#utility.yul\":7402:7405   */\n  dup2\n    /* \"#utility.yul\":7395:7400   */\n  dup2\n    /* \"#utility.yul\":7392:7406   */\n  lt\n    /* \"#utility.yul\":7385:7505   */\n  iszero\n  tag_144\n  jumpi\n    /* \"#utility.yul\":7456:7495   */\n  tag_145\n    /* \"#utility.yul\":7493:7494   */\n  0x00\n    /* \"#utility.yul\":7486:7491   */\n  dup3\n    /* \"#utility.yul\":7456:7495   */\n  tag_50\n  jump\t// in\ntag_145:\n    /* \"#utility.yul\":7429:7430   */\n  0x01\n    /* \"#utility.yul\":7422:7427   */\n  dup2\n    /* \"#utility.yul\":7418:7431   */\n  add\n    /* \"#utility.yul\":7409:7431   */\n  swap1\n  pop\n    /* \"#utility.yul\":7385:7505   */\n  jump(tag_142)\ntag_144:\n    /* \"#utility.yul\":7325:7511   */\n  pop\n  pop\n  jump\t// out\n    /* \"#utility.yul\":7517:8060   */\ntag_52:\n    /* \"#utility.yul\":7618:7620   */\n  0x1f\n    /* \"#utility.yul\":7613:7616   */\n  dup3\n    /* \"#utility.yul\":7610:7621   */\n  gt\n    /* \"#utility.yul\":7607:8053   */\n  iszero\n  tag_147\n  jumpi\n    /* \"#utility.yul\":7652:7690   */\n  tag_148\n    /* \"#utility.yul\":7684:7689   */\n  dup2\n    /* \"#utility.yul\":7652:7690   */\n  tag_41\n  jump\t// in\ntag_148:\n    /* \"#utility.yul\":7736:7765   */\n  tag_149\n    /* \"#utility.yul\":7754:7764   */\n  dup5\n    /* \"#utility.yul\":7736:7765   */\n  tag_42\n  jump\t// in\ntag_149:\n    /* \"#utility.yul\":7726:7734   */\n  dup2\n    /* \"#utility.yul\":7722:7766   */\n  add\n    /* \"#utility.yul\":7919:7921   */\n  0x20\n    /* \"#utility.yul\":7907:7917   */\n  dup6\n    /* \"#utility.yul\":7904:7922   */\n  lt\n    /* \"#utility.yul\":7901:7950   */\n  iszero\n  tag_150\n  jumpi\n    /* \"#utility.yul\":7940:7948   */\n  dup2\n    /* \"#utility.yul\":7925:7948   */\n  swap1\n  pop\n    /* \"#utility.yul\":7901:7950   */\ntag_150:\n    /* \"#utility.yul\":7963:8043   */\n  tag_151\n    /* \"#utility.yul\":8019:8041   */\n  tag_152\n    /* \"#utility.yul\":8037:8040   */\n  dup6\n    /* \"#utility.yul\":8019:8041   */\n  tag_42\n  jump\t// in\ntag_152:\n    /* \"#utility.yul\":8009:8017   */\n  dup4\n    /* \"#utility.yul\":8005:8042   */\n  add\n    /* \"#utility.yul\":7992:8003   */\n  dup3\n    /* \"#utility.yul\":7963:8043   */\n  tag_51\n  jump\t// in\ntag_151:\n    /* \"#utility.yul\":7622:8053   */\n  pop\n  pop\n    /* \"#utility.yul\":7607:8053   */\ntag_147:\n    /* \"#utility.yul\":7517:8060   */\n  pop\n  pop\n  pop\n  jump\t// out\n    /* \"#utility.yul\":8066:8183   */\ntag_53:\n    /* \"#utility.yul\":8120:8128   */\n  0x00\n    /* \"#utility.yul\":8170:8175   */\n  dup3\n    /* \"#utility.yul\":8164:8168   */\n  dup3\n    /* \"#utility.yul\":8160:8176   */\n  shr\n    /* \"#utility.yul\":8139:8176   */\n  swap1\n  pop\n    /* \"#utility.yul\":8066:8183   */\n  swap3\n  swap2\n  pop\n  pop\n  jump\t// out\n    /* \"#utility.yul\":8189:8358   */\ntag_54:\n    /* \"#utility.yul\":8233:8239   */\n  0x00\n    /* \"#utility.yul\":8266:8317   */\n  tag_155\n    /* \"#utility.yul\":8314:8315   */\n  0x00\n    /* \"#utility.yul\":8310:8316   */\n  not\n    /* \"#utility.yul\":8302:8307   */\n  dup5\n    /* \"#utility.yul\":8299:8300   */\n  0x08\n    /* \"#utility.yul\":8295:8308   */\n  mul\n    /* \"#utility.yul\":8266:8317   */\n  tag_53\n  jump\t// in\ntag_155:\n    /* \"#utility.yul\":8262:8318   */\n  not\n    /* \"#utility.yul\":8347:8351   */\n  dup1\n    /* \"#utility.yul\":8341:8345   */\n  dup4\n    /* \"#utility.yul\":8337:8352   */\n  and\n    /* \"#utility.yul\":8327:8352   */\n  swap2\n  pop\n    /* \"#utility.yul\":8240:8358   */\n  pop\n    /* \"#utility.yul\":8189:8358   */\n  swap3\n  swap2\n  pop\n  pop\n  jump\t// out\n    /* \"#utility.yul\":8363:8658   */\ntag_55:\n    /* \"#utility.yul\":8439:8443   */\n  0x00\n    /* \"#utility.yul\":8585:8614   */\n  tag_157\n    /* \"#utility.yul\":8610:8613   */\n  dup4\n    /* \"#utility.yul\":8604:8608   */\n  dup4\n    /* \"#utility.yul\":8585:8614   */\n  tag_54\n  jump\t// in\ntag_157:\n    /* \"#utility.yul\":8577:8614   */\n  swap2\n  pop\n    /* \"#utility.yul\":8647:8650   */\n  dup3\n    /* \"#utility.yul\":8644:8645   */\n  0x02\n    /* \"#utility.yul\":8640:8651   */\n  mul\n    /* \"#utility.yul\":8634:8638   */\n  dup3\n    /* \"#utility.yul\":8631:8652   */\n  or\n    /* \"#utility.yul\":8623:8652   */\n  swap1\n  pop\n    /* \"#utility.yul\":8363:8658   */\n  swap3\n  swap2\n  pop\n  pop\n  jump\t// out\n    /* \"#utility.yul\":8663:10058   */\ntag_14:\n    /* \"#utility.yul\":8780:8817   */\n  tag_159\n    /* \"#utility.yul\":8813:8816   */\n  dup3\n    /* \"#utility.yul\":8780:8817   */\n  tag_38\n  jump\t// in\ntag_159:\n    /* \"#utility.yul\":8882:8900   */\n  0xffffffffffffffff\n    /* \"#utility.yul\":8874:8880   */\n  dup2\n    /* \"#utility.yul\":8871:8901   */\n  gt\n    /* \"#utility.yul\":8868:8924   */\n  iszero\n  tag_160\n  jumpi\n    /* \"#utility.yul\":8904:8922   */\n  tag_161\n  tag_27\n  jump\t// in\ntag_161:\n    /* \"#utility.yul\":8868:8924   */\ntag_160:\n    /* \"#utility.yul\":8948:8986   */\n  tag_162\n    /* \"#utility.yul\":8980:8984   */\n  dup3\n    /* \"#utility.yul\":8974:8985   */\n  sload\n    /* \"#utility.yul\":8948:8986   */\n  tag_40\n  jump\t// in\ntag_162:\n    /* \"#utility.yul\":9033:9100   */\n  tag_163\n    /* \"#utility.yul\":9093:9099   */\n  dup3\n    /* \"#utility.yul\":9085:9091   */\n  dup3\n    /* \"#utility.yul\":9079:9083   */\n  dup6\n    /* \"#utility.yul\":9033:9100   */\n  tag_52\n  jump\t// in\ntag_163:\n    /* \"#utility.yul\":9127:9128   */\n  0x00\n    /* \"#utility.yul\":9151:9155   */\n  0x20\n    /* \"#utility.yul\":9138:9155   */\n  swap1\n  pop\n    /* \"#utility.yul\":9183:9185   */\n  0x1f\n    /* \"#utility.yul\":9175:9181   */\n  dup4\n    /* \"#utility.yul\":9172:9186   */\n  gt\n    /* \"#utility.yul\":9200:9201   */\n  0x01\n    /* \"#utility.yul\":9195:9813   */\n  dup2\n  eq\n  tag_165\n  jumpi\n    /* \"#utility.yul\":9857:9858   */\n  0x00\n    /* \"#utility.yul\":9874:9880   */\n  dup5\n    /* \"#utility.yul\":9871:9948   */\n  iszero\n  tag_166\n  jumpi\n    /* \"#utility.yul\":9923:9932   */\n  dup3\n    /* \"#utility.yul\":9918:9921   */\n  dup8\n    /* \"#utility.yul\":9914:9933   */\n  add\n    /* \"#utility.yul\":9908:9934   */\n  mload\n    /* \"#utility.yul\":9899:9934   */\n  swap1\n  pop\n    /* \"#utility.yul\":9871:9948   */\ntag_166:\n    /* \"#utility.yul\":9974:10041   */\n  tag_167\n    /* \"#utility.yul\":10034:10040   */\n  dup6\n    /* \"#utility.yul\":10027:10032   */\n  dup3\n    /* \"#utility.yul\":9974:10041   */\n  tag_55\n  jump\t// in\ntag_167:\n    /* \"#utility.yul\":9968:9972   */\n  dup7\n    /* \"#utility.yul\":9961:10042   */\n  sstore\n    /* \"#utility.yul\":9830:10052   */\n  pop\n    /* \"#utility.yul\":9165:10052   */\n  jump(tag_164)\n    /* \"#utility.yul\":9195:9813   */\ntag_165:\n    /* \"#utility.yul\":9247:9251   */\n  0x1f\n    /* \"#utility.yul\":9243:9252   */\n  not\n    /* \"#utility.yul\":9235:9241   */\n  dup5\n    /* \"#utility.yul\":9231:9253   */\n  and\n    /* \"#utility.yul\":9281:9318   */\n  tag_168\n    /* \"#utility.yul\":9313:9317   */\n  dup7\n    /* \"#utility.yul\":9281:9318   */\n  tag_41\n  jump\t// in\ntag_168:\n    /* \"#utility.yul\":9340:9341   */\n  0x00\n    /* \"#utility.yul\":9354:9562   */\ntag_169:\n    /* \"#utility.yul\":9368:9375   */\n  dup3\n    /* \"#utility.yul\":9365:9366   */\n  dup2\n    /* \"#utility.yul\":9362:9376   */\n  lt\n    /* \"#utility.yul\":9354:9562   */\n  iszero\n  tag_171\n  jumpi\n    /* \"#utility.yul\":9447:9456   */\n  dup5\n    /* \"#utility.yul\":9442:9445   */\n  dup10\n    /* \"#utility.yul\":9438:9457   */\n  add\n    /* \"#utility.yul\":9432:9458   */\n  mload\n    /* \"#utility.yul\":9424:9430   */\n  dup3\n    /* \"#utility.yul\":9417:9459   */\n  sstore\n    /* \"#utility.yul\":9498:9499   */\n  0x01\n    /* \"#utility.yul\":9490:9496   */\n  dup3\n    /* \"#utility.yul\":9486:9500   */\n  add\n    /* \"#utility.yul\":9476:9500   */\n  swap2\n  pop\n    /* \"#utility.yul\":9545:9547   */\n  0x20\n    /* \"#utility.yul\":9534:9543   */\n  dup6\n    /* \"#utility.yul\":9530:9548   */\n  add\n    /* \"#utility.yul\":9517:9548   */\n  swap5\n  pop\n    /* \"#utility.yul\":9391:9395   */\n  0x20\n    /* \"#utility.yul\":9388:9389   */\n  dup2\n    /* \"#utility.yul\":9384:9396   */\n  add\n    /* \"#utility.yul\":9379:9396   */\n  swap1\n  pop\n    /* \"#utility.yul\":9354:9562   */\n  jump(tag_169)\ntag_171:\n    /* \"#utility.yul\":9590:9596   */\n  dup7\n    /* \"#utility.yul\":9581:9588   */\n  dup4\n    /* \"#utility.yul\":9578:9597   */\n  lt\n    /* \"#utility.yul\":9575:9754   */\n  iszero\n  tag_172\n  jumpi\n    /* \"#utility.yul\":9648:9657   */\n  dup5\n    /* \"#utility.yul\":9643:9646   */\n  dup10\n    /* \"#utility.yul\":9639:9658   */\n  add\n    /* \"#utility.yul\":9633:9659   */\n  mload\n    /* \"#utility.yul\":9691:9739   */\n  tag_173\n    /* \"#utility.yul\":9733:9737   */\n  0x1f\n    /* \"#utility.yul\":9725:9731   */\n  dup10\n    /* \"#utility.yul\":9721:9738   */\n  and\n    /* \"#utility.yul\":9710:9719   */\n  dup3\n    /* \"#utility.yul\":9691:9739   */\n  tag_54\n  jump\t// in\ntag_173:\n    /* \"#utility.yul\":9683:9689   */\n  dup4\n    /* \"#utility.yul\":9676:9740   */\n  sstore\n    /* \"#utility.yul\":9598:9754   */\n  pop\n    /* \"#utility.yul\":9575:9754   */\ntag_172:\n    /* \"#utility.yul\":9800:9801   */\n  0x01\n    /* \"#utility.yul\":9796:9797   */\n  0x02\n    /* \"#utility.yul\":9788:9794   */\n  dup9\n    /* \"#utility.yul\":9784:9798   */\n  mul\n    /* \"#utility.yul\":9780:9802   */\n  add\n    /* \"#utility.yul\":9774:9778   */\n  dup9\n    /* \"#utility.yul\":9767:9803   */\n  sstore\n    /* \"#utility.yul\":9202:9813   */\n  pop\n  pop\n  pop\n    /* \"#utility.yul\":9165:10052   */\ntag_164:\n  pop\n    /* \"#utility.yul\":8755:10058   */\n  pop\n  pop\n  pop\n    /* \"#utility.yul\":8663:10058   */\n  pop\n  pop\n  jump\t// out\n    /* \"Evm/core/base/vault.sol\":561:7135  contract QiaraMultiAssetVault is Ownable {... */\ntag_15:\n  mload(0x80)\n  mload(0xa0)\n  codecopy(0x00, dataOffset(sub_0), dataSize(sub_0))\n  0x00\n  assignImmutable(\"0xa55f93089260f97cd16ec7a717e7ade24f99065bc4509014bd14fefe4d832ab6\")\n  0x00\n  assignImmutable(\"0x1067a32fc2bf4122310a8f066f11577e006583df65ce4c5172289c9680be102c\")\n  return(0x00, dataSize(sub_0))\nstop\n\nsub_0: assembly {\n        /* \"Evm/core/base/vault.sol\":561:7135  contract QiaraMultiAssetVault is Ownable {... */\n      mstore(0x40, 0x80)\n      callvalue\n      dup1\n      iszero\n      tag_1\n      jumpi\n      revert(0x00, 0x00)\n    tag_1:\n      pop\n      jumpi(tag_2, lt(calldatasize, 0x04))\n      shr(0xe0, calldataload(0x00))\n      dup1\n      0x8e27d719\n      gt\n      tag_17\n      jumpi\n      dup1\n      0xd23ce9e5\n      gt\n      tag_18\n      jumpi\n      dup1\n      0xd23ce9e5\n      eq\n      tag_13\n      jumpi\n      dup1\n      0xf139721c\n      eq\n      tag_14\n      jumpi\n      dup1\n      0xf2fde38b\n      eq\n      tag_15\n      jumpi\n      dup1\n      0xf8897945\n      eq\n      tag_16\n      jumpi\n      jump(tag_2)\n    tag_18:\n      dup1\n      0x8e27d719\n      eq\n      tag_10\n      jumpi\n      dup1\n      0xb5f8558c\n      eq\n      tag_11\n      jumpi\n      dup1\n      0xbf4d766e\n      eq\n      tag_12\n      jumpi\n      jump(tag_2)\n    tag_17:\n      dup1\n      0x6ac5db19\n      gt\n      tag_19\n      jumpi\n      dup1\n      0x6ac5db19\n      eq\n      tag_6\n      jumpi\n      dup1\n      0x715018a6\n      eq\n      tag_7\n      jumpi\n      dup1\n      0x7a9eceb4\n      eq\n      tag_8\n      jumpi\n      dup1\n      0x8da5cb5b\n      eq\n      tag_9\n      jumpi\n      jump(tag_2)\n    tag_19:\n      dup1\n      0xdad7d4\n      eq\n      tag_3\n      jumpi\n      dup1\n      0x05d09fb1\n      eq\n      tag_4\n      jumpi\n      dup1\n      0x240028e8\n      eq\n      tag_5\n      jumpi\n    tag_2:\n      revert(0x00, 0x00)\n        /* \"Evm/core/base/vault.sol\":734:760  string public providerName */\n    tag_3:\n      tag_20\n      tag_21\n      jump\t// in\n    tag_20:\n      mload(0x40)\n      tag_22\n      swap2\n      swap1\n      tag_23\n      jump\t// in\n    tag_22:\n      mload(0x40)\n      dup1\n      swap2\n      sub\n      swap1\n      return\n        /* \"Evm/core/base/vault.sol\":1648:2174  function resolveAsset(string memory assetName) public view returns (address) {... */\n    tag_4:\n      tag_24\n      0x04\n      dup1\n      calldatasize\n      sub\n      dup2\n      add\n      swap1\n      tag_25\n      swap2\n      swap1\n      tag_26\n      jump\t// in\n    tag_25:\n      tag_27\n      jump\t// in\n    tag_24:\n      mload(0x40)\n      tag_28\n      swap2\n      swap1\n      tag_29\n      jump\t// in\n    tag_28:\n      mload(0x40)\n      dup1\n      swap2\n      sub\n      swap1\n      return\n        /* \"Evm/core/base/vault.sol\":909:957  mapping(address => bool) public isSupportedToken */\n    tag_5:\n      tag_30\n      0x04\n      dup1\n      calldatasize\n      sub\n      dup2\n      add\n      swap1\n      tag_31\n      swap2\n      swap1\n      tag_32\n      jump\t// in\n    tag_31:\n      tag_33\n      jump\t// in\n    tag_30:\n      mload(0x40)\n      tag_34\n      swap2\n      swap1\n      tag_35\n      jump\t// in\n    tag_34:\n      mload(0x40)\n      dup1\n      swap2\n      sub\n      swap1\n      return\n        /* \"Evm/core/base/vault.sol\":793:811  uint256 public max */\n    tag_6:\n      tag_36\n      tag_37\n      jump\t// in\n    tag_36:\n      mload(0x40)\n      tag_38\n      swap2\n      swap1\n      tag_39\n      jump\t// in\n    tag_38:\n      mload(0x40)\n      dup1\n      swap2\n      sub\n      swap1\n      return\n        /* \"@openzeppelin/contracts/access/Ownable.sol\":2293:2394  function renounceOwnership() public virtual onlyOwner {... */\n    tag_7:\n      tag_40\n      tag_41\n      jump\t// in\n    tag_40:\n      stop\n        /* \"Evm/core/base/vault.sol\":4171:5330  function directWithdraw(address user, string calldata assetName, uint256 amount, uint256 nullifier) external onlyOwner { // ONLY the Delegator contract can call this... */\n    tag_8:\n      tag_42\n      0x04\n      dup1\n      calldatasize\n      sub\n      dup2\n      add\n      swap1\n      tag_43\n      swap2\n      swap1\n      tag_44\n      jump\t// in\n    tag_43:\n      tag_45\n      jump\t// in\n    tag_42:\n      stop\n        /* \"@openzeppelin/contracts/access/Ownable.sol\":1638:1723  function owner() public view virtual returns (address) {... */\n    tag_9:\n      tag_46\n      tag_47\n      jump\t// in\n    tag_46:\n      mload(0x40)\n      tag_48\n      swap2\n      swap1\n      tag_29\n      jump\t// in\n    tag_48:\n      mload(0x40)\n      dup1\n      swap2\n      sub\n      swap1\n      return\n        /* \"Evm/core/base/vault.sol\":5338:6428  function deposit(string calldata assetName, uint256 amount) external {... */\n    tag_10:\n      tag_49\n      0x04\n      dup1\n      calldatasize\n      sub\n      dup2\n      add\n      swap1\n      tag_50\n      swap2\n      swap1\n      tag_51\n      jump\t// in\n    tag_50:\n      tag_52\n      jump\t// in\n    tag_49:\n      stop\n        /* \"Evm/core/base/vault.sol\":696:727  IEvents public immutable events */\n    tag_11:\n      tag_53\n      tag_54\n      jump\t// in\n    tag_53:\n      mload(0x40)\n      tag_55\n      swap2\n      swap1\n      tag_56\n      jump\t// in\n    tag_55:\n      mload(0x40)\n      dup1\n      swap2\n      sub\n      swap1\n      return\n        /* \"Evm/core/base/vault.sol\":644:689  IVariables public immutable variablesRegistry */\n    tag_12:\n      tag_57\n      tag_58\n      jump\t// in\n    tag_57:\n      mload(0x40)\n      tag_59\n      swap2\n      swap1\n      tag_60\n      jump\t// in\n    tag_59:\n      mload(0x40)\n      dup1\n      swap2\n      sub\n      swap1\n      return\n        /* \"Evm/core/base/vault.sol\":2817:4013  function m_withdraw(bytes calldata user, string calldata shared, string calldata assetName, uint256 amount) external { ... */\n    tag_13:\n      tag_61\n      0x04\n      dup1\n      calldatasize\n      sub\n      dup2\n      add\n      swap1\n      tag_62\n      swap2\n      swap1\n      tag_63\n      jump\t// in\n    tag_62:\n      tag_64\n      jump\t// in\n    tag_61:\n      stop\n        /* \"Evm/core/base/vault.sol\":2182:2399  function listNewToken(string calldata assetName) external {... */\n    tag_14:\n      tag_65\n      0x04\n      dup1\n      calldatasize\n      sub\n      dup2\n      add\n      swap1\n      tag_66\n      swap2\n      swap1\n      tag_67\n      jump\t// in\n    tag_66:\n      tag_68\n      jump\t// in\n    tag_65:\n      stop\n        /* \"@openzeppelin/contracts/access/Ownable.sol\":2543:2758  function transferOwnership(address newOwner) public virtual onlyOwner {... */\n    tag_15:\n      tag_69\n      0x04\n      dup1\n      calldatasize\n      sub\n      dup2\n      add\n      swap1\n      tag_70\n      swap2\n      swap1\n      tag_32\n      jump\t// in\n    tag_70:\n      tag_71\n      jump\t// in\n    tag_69:\n      stop\n        /* \"Evm/core/base/vault.sol\":768:786  uint256 public min */\n    tag_16:\n      tag_72\n      tag_73\n      jump\t// in\n    tag_72:\n      mload(0x40)\n      tag_74\n      swap2\n      swap1\n      tag_39\n      jump\t// in\n    tag_74:\n      mload(0x40)\n      dup1\n      swap2\n      sub\n      swap1\n      return\n        /* \"Evm/core/base/vault.sol\":734:760  string public providerName */\n    tag_21:\n      0x01\n      dup1\n      sload\n      tag_75\n      swap1\n      tag_76\n      jump\t// in\n    tag_75:\n      dup1\n      0x1f\n      add\n      0x20\n      dup1\n      swap2\n      div\n      mul\n      0x20\n      add\n      mload(0x40)\n      swap1\n      dup2\n      add\n      0x40\n      mstore\n      dup1\n      swap3\n      swap2\n      swap1\n      dup2\n      dup2\n      mstore\n      0x20\n      add\n      dup3\n      dup1\n      sload\n      tag_77\n      swap1\n      tag_76\n      jump\t// in\n    tag_77:\n      dup1\n      iszero\n      tag_78\n      jumpi\n      dup1\n      0x1f\n      lt\n      tag_79\n      jumpi\n      0x0100\n      dup1\n      dup4\n      sload\n      div\n      mul\n      dup4\n      mstore\n      swap2\n      0x20\n      add\n      swap2\n      jump(tag_78)\n    tag_79:\n      dup3\n      add\n      swap2\n      swap1\n      0x00\n      mstore\n      keccak256(0x00, 0x20)\n      swap1\n    tag_80:\n      dup2\n      sload\n      dup2\n      mstore\n      swap1\n      0x01\n      add\n      swap1\n      0x20\n      add\n      dup1\n      dup4\n      gt\n      tag_80\n      jumpi\n      dup3\n      swap1\n      sub\n      0x1f\n      and\n      dup3\n      add\n      swap2\n    tag_78:\n      pop\n      pop\n      pop\n      pop\n      pop\n      dup2\n      jump\t// out\n        /* \"Evm/core/base/vault.sol\":1648:2174  function resolveAsset(string memory assetName) public view returns (address) {... */\n    tag_27:\n        /* \"Evm/core/base/vault.sol\":1716:1723  address */\n      0x00\n        /* \"Evm/core/base/vault.sol\":1736:1758  string memory tokenKey */\n      0x00\n        /* \"Evm/core/base/vault.sol\":1785:1794  assetName */\n      dup3\n        /* \"Evm/core/base/vault.sol\":1801:1813  providerName */\n      0x01\n        /* \"Evm/core/base/vault.sol\":1768:1814  abi.encodePacked(assetName, \"_\", providerName) */\n      add(0x20, mload(0x40))\n      tag_82\n      swap3\n      swap2\n      swap1\n      tag_83\n      jump\t// in\n    tag_82:\n      mload(0x40)\n      0x20\n      dup2\n      dup4\n      sub\n      sub\n      dup2\n      mstore\n      swap1\n      0x40\n      mstore\n        /* \"Evm/core/base/vault.sol\":1736:1815  string memory tokenKey = string(abi.encodePacked(assetName, \"_\", providerName)) */\n      swap1\n      pop\n        /* \"Evm/core/base/vault.sol\":1826:1849  bytes memory tokenBytes */\n      0x00\n        /* \"Evm/core/base/vault.sol\":1852:1869  variablesRegistry */\n      immutable(\"0x1067a32fc2bf4122310a8f066f11577e006583df65ce4c5172289c9680be102c\")\n        /* \"Evm/core/base/vault.sol\":1852:1887  variablesRegistry.getActiveVariable */\n      0xffffffffffffffffffffffffffffffffffffffff\n      and\n      0x16f1adc1\n        /* \"Evm/core/base/vault.sol\":1908:1916  tokenKey */\n      dup4\n        /* \"Evm/core/base/vault.sol\":1852:1917  variablesRegistry.getActiveVariable(\"QiaraMonadAssets\", tokenKey) */\n      mload(0x40)\n      dup3\n      0xffffffff\n      and\n      0xe0\n      shl\n      dup2\n      mstore\n      0x04\n      add\n      tag_84\n      swap2\n      swap1\n      tag_85\n      jump\t// in\n    tag_84:\n      0x00\n      mload(0x40)\n      dup1\n      dup4\n      sub\n      dup2\n      dup7\n      gas\n      staticcall\n      iszero\n      dup1\n      iszero\n      tag_87\n      jumpi\n      returndatacopy(0x00, 0x00, returndatasize)\n      revert(0x00, returndatasize)\n    tag_87:\n      pop\n      pop\n      pop\n      pop\n      mload(0x40)\n      returndatasize\n      0x00\n      dup3\n      returndatacopy\n      returndatasize\n      not(0x1f)\n      0x1f\n      dup3\n      add\n      and\n      dup3\n      add\n      dup1\n      0x40\n      mstore\n      pop\n      dup2\n      add\n      swap1\n      tag_88\n      swap2\n      swap1\n      tag_89\n      jump\t// in\n    tag_88:\n        /* \"Evm/core/base/vault.sol\":1826:1917  bytes memory tokenBytes = variablesRegistry.getActiveVariable(\"QiaraMonadAssets\", tokenKey) */\n      swap1\n      pop\n        /* \"Evm/core/base/vault.sol\":1967:1969  20 */\n      0x14\n        /* \"Evm/core/base/vault.sol\":1946:1956  tokenBytes */\n      dup2\n        /* \"Evm/core/base/vault.sol\":1946:1963  tokenBytes.length */\n      mload\n        /* \"Evm/core/base/vault.sol\":1946:1969  tokenBytes.length >= 20 */\n      lt\n      iszero\n        /* \"Evm/core/base/vault.sol\":1938:2008  require(tokenBytes.length >= 20, \"Vault: Asset not found in registry\") */\n      tag_90\n      jumpi\n      mload(0x40)\n      0x08c379a000000000000000000000000000000000000000000000000000000000\n      dup2\n      mstore\n      0x04\n      add\n      tag_91\n      swap1\n      tag_92\n      jump\t// in\n    tag_91:\n      mload(0x40)\n      dup1\n      swap2\n      sub\n      swap1\n      revert\n    tag_90:\n        /* \"Evm/core/base/vault.sol\":2029:2049  address assetAddress */\n      0x00\n        /* \"Evm/core/base/vault.sol\":2122:2124  20 */\n      0x14\n        /* \"Evm/core/base/vault.sol\":2110:2120  tokenBytes */\n      dup3\n        /* \"Evm/core/base/vault.sol\":2106:2125  add(tokenBytes, 20) */\n      add\n        /* \"Evm/core/base/vault.sol\":2100:2126  mload(add(tokenBytes, 20)) */\n      mload\n        /* \"Evm/core/base/vault.sol\":2084:2126  assetAddress := mload(add(tokenBytes, 20)) */\n      swap1\n      pop\n        /* \"Evm/core/base/vault.sol\":2154:2166  assetAddress */\n      dup1\n        /* \"Evm/core/base/vault.sol\":2147:2166  return assetAddress */\n      swap4\n      pop\n      pop\n      pop\n      pop\n        /* \"Evm/core/base/vault.sol\":1648:2174  function resolveAsset(string memory assetName) public view returns (address) {... */\n      swap2\n      swap1\n      pop\n      jump\t// out\n        /* \"Evm/core/base/vault.sol\":909:957  mapping(address => bool) public isSupportedToken */\n    tag_33:\n      mstore(0x20, 0x05)\n      dup1\n      0x00\n      mstore\n      keccak256(0x00, 0x40)\n      0x00\n      swap2\n      pop\n      sload\n      swap1\n      0x0100\n      exp\n      swap1\n      div\n      0xff\n      and\n      dup2\n      jump\t// out\n        /* \"Evm/core/base/vault.sol\":793:811  uint256 public max */\n    tag_37:\n      sload(0x03)\n      dup2\n      jump\t// out\n        /* \"@openzeppelin/contracts/access/Ownable.sol\":2293:2394  function renounceOwnership() public virtual onlyOwner {... */\n    tag_41:\n        /* \"@openzeppelin/contracts/access/Ownable.sol\":1531:1544  _checkOwner() */\n      tag_94\n        /* \"@openzeppelin/contracts/access/Ownable.sol\":1531:1542  _checkOwner */\n      tag_95\n        /* \"@openzeppelin/contracts/access/Ownable.sol\":1531:1544  _checkOwner() */\n      jump\t// in\n    tag_94:\n        /* \"@openzeppelin/contracts/access/Ownable.sol\":2357:2387  _transferOwnership(address(0)) */\n      tag_97\n        /* \"@openzeppelin/contracts/access/Ownable.sol\":2384:2385  0 */\n      0x00\n        /* \"@openzeppelin/contracts/access/Ownable.sol\":2357:2375  _transferOwnership */\n      tag_98\n        /* \"@openzeppelin/contracts/access/Ownable.sol\":2357:2387  _transferOwnership(address(0)) */\n      jump\t// in\n    tag_97:\n        /* \"@openzeppelin/contracts/access/Ownable.sol\":2293:2394  function renounceOwnership() public virtual onlyOwner {... */\n      jump\t// out\n        /* \"Evm/core/base/vault.sol\":4171:5330  function directWithdraw(address user, string calldata assetName, uint256 amount, uint256 nullifier) external onlyOwner { // ONLY the Delegator contract can call this... */\n    tag_45:\n        /* \"@openzeppelin/contracts/access/Ownable.sol\":1531:1544  _checkOwner() */\n      tag_100\n        /* \"@openzeppelin/contracts/access/Ownable.sol\":1531:1542  _checkOwner */\n      tag_95\n        /* \"@openzeppelin/contracts/access/Ownable.sol\":1531:1544  _checkOwner() */\n      jump\t// in\n    tag_100:\n        /* \"Evm/core/base/vault.sol\":4346:4359  address token */\n      0x00\n        /* \"Evm/core/base/vault.sol\":4362:4385  resolveAsset(assetName) */\n      tag_102\n        /* \"Evm/core/base/vault.sol\":4375:4384  assetName */\n      dup6\n      dup6\n        /* \"Evm/core/base/vault.sol\":4362:4385  resolveAsset(assetName) */\n      dup1\n      dup1\n      0x1f\n      add\n      0x20\n      dup1\n      swap2\n      div\n      mul\n      0x20\n      add\n      mload(0x40)\n      swap1\n      dup2\n      add\n      0x40\n      mstore\n      dup1\n      swap4\n      swap3\n      swap2\n      swap1\n      dup2\n      dup2\n      mstore\n      0x20\n      add\n      dup4\n      dup4\n      dup1\n      dup3\n      dup5\n      calldatacopy\n      0x00\n      dup2\n      dup5\n      add\n      mstore\n      not(0x1f)\n      0x1f\n      dup3\n      add\n      and\n      swap1\n      pop\n      dup1\n      dup4\n      add\n      swap3\n      pop\n      pop\n      pop\n      pop\n      pop\n      pop\n      pop\n        /* \"Evm/core/base/vault.sol\":4362:4374  resolveAsset */\n      tag_27\n        /* \"Evm/core/base/vault.sol\":4362:4385  resolveAsset(assetName) */\n      jump\t// in\n    tag_102:\n        /* \"Evm/core/base/vault.sol\":4346:4385  address token = resolveAsset(assetName) */\n      swap1\n      pop\n        /* \"Evm/core/base/vault.sol\":4404:4420  isSupportedToken */\n      0x05\n        /* \"Evm/core/base/vault.sol\":4404:4427  isSupportedToken[token] */\n      0x00\n        /* \"Evm/core/base/vault.sol\":4421:4426  token */\n      dup3\n        /* \"Evm/core/base/vault.sol\":4404:4427  isSupportedToken[token] */\n      0xffffffffffffffffffffffffffffffffffffffff\n      and\n      0xffffffffffffffffffffffffffffffffffffffff\n      and\n      dup2\n      mstore\n      0x20\n      add\n      swap1\n      dup2\n      mstore\n      0x20\n      add\n      0x00\n      keccak256\n      0x00\n      swap1\n      sload\n      swap1\n      0x0100\n      exp\n      swap1\n      div\n      0xff\n      and\n        /* \"Evm/core/base/vault.sol\":4396:4458  require(isSupportedToken[token], \"Vault: Token not supported\") */\n      tag_103\n      jumpi\n      mload(0x40)\n      0x08c379a000000000000000000000000000000000000000000000000000000000\n      dup2\n      mstore\n      0x04\n      add\n      tag_104\n      swap1\n      tag_105\n      jump\t// in\n    tag_104:\n      mload(0x40)\n      dup1\n      swap2\n      sub\n      swap1\n      revert\n    tag_103:\n        /* \"Evm/core/base/vault.sol\":4535:4575  IERC20(token).safeTransfer(user, amount) */\n      tag_106\n        /* \"Evm/core/base/vault.sol\":4562:4566  user */\n      dup7\n        /* \"Evm/core/base/vault.sol\":4568:4574  amount */\n      dup5\n        /* \"Evm/core/base/vault.sol\":4542:4547  token */\n      dup4\n        /* \"Evm/core/base/vault.sol\":4535:4561  IERC20(token).safeTransfer */\n      0xffffffffffffffffffffffffffffffffffffffff\n      and\n      tag_107\n      swap1\n        /* \"Evm/core/base/vault.sol\":4535:4575  IERC20(token).safeTransfer(user, amount) */\n      swap3\n      swap2\n      swap1\n      0xffffffff\n      and\n      jump\t// in\n    tag_106:\n        /* \"Evm/core/base/vault.sol\":4634:4665  IEvents.Data[] memory eventData */\n      0x00\n        /* \"Evm/core/base/vault.sol\":4687:4688  6 */\n      0x06\n        /* \"Evm/core/base/vault.sol\":4668:4689  new IEvents.Data[](6) */\n      0xffffffffffffffff\n      dup2\n      gt\n      iszero\n      tag_108\n      jumpi\n      tag_109\n      tag_110\n      jump\t// in\n    tag_109:\n    tag_108:\n      mload(0x40)\n      swap1\n      dup1\n      dup3\n      mstore\n      dup1\n      0x20\n      mul\n      0x20\n      add\n      dup3\n      add\n      0x40\n      mstore\n      dup1\n      iszero\n      tag_111\n      jumpi\n      dup2\n      0x20\n      add\n    tag_112:\n      tag_113\n      tag_114\n      jump\t// in\n    tag_113:\n      dup2\n      mstore\n      0x20\n      add\n      swap1\n      0x01\n      swap1\n      sub\n      swap1\n      dup2\n      tag_112\n      jumpi\n      swap1\n      pop\n    tag_111:\n      pop\n        /* \"Evm/core/base/vault.sol\":4634:4689  IEvents.Data[] memory eventData = new IEvents.Data[](6) */\n      swap1\n      pop\n        /* \"Evm/core/base/vault.sol\":4715:4764  IEvents.Data(\"user\", \"address\", abi.encode(user)) */\n      mload(0x40)\n      dup1\n      0x60\n      add\n      0x40\n      mstore\n      dup1\n      mload(0x40)\n      dup1\n      0x40\n      add\n      0x40\n      mstore\n      dup1\n      0x04\n      dup2\n      mstore\n      0x20\n      add\n      0x7573657200000000000000000000000000000000000000000000000000000000\n      dup2\n      mstore\n      pop\n      dup2\n      mstore\n      0x20\n      add\n      mload(0x40)\n      dup1\n      0x40\n      add\n      0x40\n      mstore\n      dup1\n      0x07\n      dup2\n      mstore\n      0x20\n      add\n      0x6164647265737300000000000000000000000000000000000000000000000000\n      dup2\n      mstore\n      pop\n      dup2\n      mstore\n      0x20\n      add\n        /* \"Evm/core/base/vault.sol\":4758:4762  user */\n      dup9\n        /* \"Evm/core/base/vault.sol\":4747:4763  abi.encode(user) */\n      add(0x20, mload(0x40))\n      tag_115\n      swap2\n      swap1\n      tag_29\n      jump\t// in\n    tag_115:\n      mload(0x40)\n      0x20\n      dup2\n      dup4\n      sub\n      sub\n      dup2\n      mstore\n      swap1\n      0x40\n      mstore\n        /* \"Evm/core/base/vault.sol\":4715:4764  IEvents.Data(\"user\", \"address\", abi.encode(user)) */\n      dup2\n      mstore\n      pop\n        /* \"Evm/core/base/vault.sol\":4700:4709  eventData */\n      dup2\n        /* \"Evm/core/base/vault.sol\":4710:4711  0 */\n      0x00\n        /* \"Evm/core/base/vault.sol\":4700:4712  eventData[0] */\n      dup2\n      mload\n      dup2\n      lt\n      tag_116\n      jumpi\n      tag_117\n      tag_118\n      jump\t// in\n    tag_117:\n    tag_116:\n      0x20\n      mul\n      0x20\n      add\n      add\n        /* \"Evm/core/base/vault.sol\":4700:4764  eventData[0] = IEvents.Data(\"user\", \"address\", abi.encode(user)) */\n      dup2\n      swap1\n      mstore\n      pop\n        /* \"Evm/core/base/vault.sol\":4790:4843  IEvents.Data(\"amount\", \"uint256\", abi.encode(amount)) */\n      mload(0x40)\n      dup1\n      0x60\n      add\n      0x40\n      mstore\n      dup1\n      mload(0x40)\n      dup1\n      0x40\n      add\n      0x40\n      mstore\n      dup1\n      0x06\n      dup2\n      mstore\n      0x20\n      add\n      0x616d6f756e740000000000000000000000000000000000000000000000000000\n      dup2\n      mstore\n      pop\n      dup2\n      mstore\n      0x20\n      add\n      mload(0x40)\n      dup1\n      0x40\n      add\n      0x40\n      mstore\n      dup1\n      0x07\n      dup2\n      mstore\n      0x20\n      add\n      0x75696e7432353600000000000000000000000000000000000000000000000000\n      dup2\n      mstore\n      pop\n      dup2\n      mstore\n      0x20\n      add\n        /* \"Evm/core/base/vault.sol\":4835:4841  amount */\n      dup6\n        /* \"Evm/core/base/vault.sol\":4824:4842  abi.encode(amount) */\n      add(0x20, mload(0x40))\n      tag_119\n      swap2\n      swap1\n      tag_39\n      jump\t// in\n    tag_119:\n      mload(0x40)\n      0x20\n      dup2\n      dup4\n      sub\n      sub\n      dup2\n      mstore\n      swap1\n      0x40\n      mstore\n        /* \"Evm/core/base/vault.sol\":4790:4843  IEvents.Data(\"amount\", \"uint256\", abi.encode(amount)) */\n      dup2\n      mstore\n      pop\n        /* \"Evm/core/base/vault.sol\":4775:4784  eventData */\n      dup2\n        /* \"Evm/core/base/vault.sol\":4785:4786  1 */\n      0x01\n        /* \"Evm/core/base/vault.sol\":4775:4787  eventData[1] */\n      dup2\n      mload\n      dup2\n      lt\n      tag_120\n      jumpi\n      tag_121\n      tag_118\n      jump\t// in\n    tag_121:\n    tag_120:\n      0x20\n      mul\n      0x20\n      add\n      add\n        /* \"Evm/core/base/vault.sol\":4775:4843  eventData[1] = IEvents.Data(\"amount\", \"uint256\", abi.encode(amount)) */\n      dup2\n      swap1\n      mstore\n      pop\n        /* \"Evm/core/base/vault.sol\":4869:4923  IEvents.Data(\"token\", \"string\", abi.encode(assetName)) */\n      mload(0x40)\n      dup1\n      0x60\n      add\n      0x40\n      mstore\n      dup1\n      mload(0x40)\n      dup1\n      0x40\n      add\n      0x40\n      mstore\n      dup1\n      0x05\n      dup2\n      mstore\n      0x20\n      add\n      0x746f6b656e000000000000000000000000000000000000000000000000000000\n      dup2\n      mstore\n      pop\n      dup2\n      mstore\n      0x20\n      add\n      mload(0x40)\n      dup1\n      0x40\n      add\n      0x40\n      mstore\n      dup1\n      0x06\n      dup2\n      mstore\n      0x20\n      add\n      0x737472696e670000000000000000000000000000000000000000000000000000\n      dup2\n      mstore\n      pop\n      dup2\n      mstore\n      0x20\n      add\n        /* \"Evm/core/base/vault.sol\":4912:4921  assetName */\n      dup8\n      dup8\n        /* \"Evm/core/base/vault.sol\":4901:4922  abi.encode(assetName) */\n      add(0x20, mload(0x40))\n      tag_122\n      swap3\n      swap2\n      swap1\n      tag_123\n      jump\t// in\n    tag_122:\n      mload(0x40)\n      0x20\n      dup2\n      dup4\n      sub\n      sub\n      dup2\n      mstore\n      swap1\n      0x40\n      mstore\n        /* \"Evm/core/base/vault.sol\":4869:4923  IEvents.Data(\"token\", \"string\", abi.encode(assetName)) */\n      dup2\n      mstore\n      pop\n        /* \"Evm/core/base/vault.sol\":4854:4863  eventData */\n      dup2\n        /* \"Evm/core/base/vault.sol\":4864:4865  2 */\n      0x02\n        /* \"Evm/core/base/vault.sol\":4854:4866  eventData[2] */\n      dup2\n      mload\n      dup2\n      lt\n      tag_124\n      jumpi\n      tag_125\n      tag_118\n      jump\t// in\n    tag_125:\n    tag_124:\n      0x20\n      mul\n      0x20\n      add\n      add\n        /* \"Evm/core/base/vault.sol\":4854:4923  eventData[2] = IEvents.Data(\"token\", \"string\", abi.encode(assetName)) */\n      dup2\n      swap1\n      mstore\n      pop\n        /* \"Evm/core/base/vault.sol\":4949:5009  IEvents.Data(\"provider\", \"string\", abi.encode(providerName)) */\n      mload(0x40)\n      dup1\n      0x60\n      add\n      0x40\n      mstore\n      dup1\n      mload(0x40)\n      dup1\n      0x40\n      add\n      0x40\n      mstore\n      dup1\n      0x08\n      dup2\n      mstore\n      0x20\n      add\n      0x70726f7669646572000000000000000000000000000000000000000000000000\n      dup2\n      mstore\n      pop\n      dup2\n      mstore\n      0x20\n      add\n      mload(0x40)\n      dup1\n      0x40\n      add\n      0x40\n      mstore\n      dup1\n      0x06\n      dup2\n      mstore\n      0x20\n      add\n      0x737472696e670000000000000000000000000000000000000000000000000000\n      dup2\n      mstore\n      pop\n      dup2\n      mstore\n      0x20\n      add\n        /* \"Evm/core/base/vault.sol\":4995:5007  providerName */\n      0x01\n        /* \"Evm/core/base/vault.sol\":4984:5008  abi.encode(providerName) */\n      add(0x20, mload(0x40))\n      tag_126\n      swap2\n      swap1\n      tag_127\n      jump\t// in\n    tag_126:\n      mload(0x40)\n      0x20\n      dup2\n      dup4\n      sub\n      sub\n      dup2\n      mstore\n      swap1\n      0x40\n      mstore\n        /* \"Evm/core/base/vault.sol\":4949:5009  IEvents.Data(\"provider\", \"string\", abi.encode(providerName)) */\n      dup2\n      mstore\n      pop\n        /* \"Evm/core/base/vault.sol\":4934:4943  eventData */\n      dup2\n        /* \"Evm/core/base/vault.sol\":4944:4945  3 */\n      0x03\n        /* \"Evm/core/base/vault.sol\":4934:4946  eventData[3] */\n      dup2\n      mload\n      dup2\n      lt\n      tag_128\n      jumpi\n      tag_129\n      tag_118\n      jump\t// in\n    tag_129:\n    tag_128:\n      0x20\n      mul\n      0x20\n      add\n      add\n        /* \"Evm/core/base/vault.sol\":4934:5009  eventData[3] = IEvents.Data(\"provider\", \"string\", abi.encode(providerName)) */\n      dup2\n      swap1\n      mstore\n      pop\n        /* \"Evm/core/base/vault.sol\":5035:5094  IEvents.Data(\"nullifier\", \"uint256\", abi.encode(nullifier)) */\n      mload(0x40)\n      dup1\n      0x60\n      add\n      0x40\n      mstore\n      dup1\n      mload(0x40)\n      dup1\n      0x40\n      add\n      0x40\n      mstore\n      dup1\n      0x09\n      dup2\n      mstore\n      0x20\n      add\n      0x6e756c6c69666965720000000000000000000000000000000000000000000000\n      dup2\n      mstore\n      pop\n      dup2\n      mstore\n      0x20\n      add\n      mload(0x40)\n      dup1\n      0x40\n      add\n      0x40\n      mstore\n      dup1\n      0x07\n      dup2\n      mstore\n      0x20\n      add\n      0x75696e7432353600000000000000000000000000000000000000000000000000\n      dup2\n      mstore\n      pop\n      dup2\n      mstore\n      0x20\n      add\n        /* \"Evm/core/base/vault.sol\":5083:5092  nullifier */\n      dup5\n        /* \"Evm/core/base/vault.sol\":5072:5093  abi.encode(nullifier) */\n      add(0x20, mload(0x40))\n      tag_130\n      swap2\n      swap1\n      tag_39\n      jump\t// in\n    tag_130:\n      mload(0x40)\n      0x20\n      dup2\n      dup4\n      sub\n      sub\n      dup2\n      mstore\n      swap1\n      0x40\n      mstore\n        /* \"Evm/core/base/vault.sol\":5035:5094  IEvents.Data(\"nullifier\", \"uint256\", abi.encode(nullifier)) */\n      dup2\n      mstore\n      pop\n        /* \"Evm/core/base/vault.sol\":5020:5029  eventData */\n      dup2\n        /* \"Evm/core/base/vault.sol\":5030:5031  4 */\n      0x04\n        /* \"Evm/core/base/vault.sol\":5020:5032  eventData[4] */\n      dup2\n      mload\n      dup2\n      lt\n      tag_131\n      jumpi\n      tag_132\n      tag_118\n      jump\t// in\n    tag_132:\n    tag_131:\n      0x20\n      mul\n      0x20\n      add\n      add\n        /* \"Evm/core/base/vault.sol\":5020:5094  eventData[4] = IEvents.Data(\"nullifier\", \"uint256\", abi.encode(nullifier)) */\n      dup2\n      swap1\n      mstore\n      pop\n        /* \"Evm/core/base/vault.sol\":5120:5185  IEvents.Data(\"timestamp\", \"uint256\", abi.encode(block.timestamp)) */\n      mload(0x40)\n      dup1\n      0x60\n      add\n      0x40\n      mstore\n      dup1\n      mload(0x40)\n      dup1\n      0x40\n      add\n      0x40\n      mstore\n      dup1\n      0x09\n      dup2\n      mstore\n      0x20\n      add\n      0x74696d657374616d700000000000000000000000000000000000000000000000\n      dup2\n      mstore\n      pop\n      dup2\n      mstore\n      0x20\n      add\n      mload(0x40)\n      dup1\n      0x40\n      add\n      0x40\n      mstore\n      dup1\n      0x07\n      dup2\n      mstore\n      0x20\n      add\n      0x75696e7432353600000000000000000000000000000000000000000000000000\n      dup2\n      mstore\n      pop\n      dup2\n      mstore\n      0x20\n      add\n        /* \"Evm/core/base/vault.sol\":5168:5183  block.timestamp */\n      timestamp\n        /* \"Evm/core/base/vault.sol\":5157:5184  abi.encode(block.timestamp) */\n      add(0x20, mload(0x40))\n      tag_133\n      swap2\n      swap1\n      tag_39\n      jump\t// in\n    tag_133:\n      mload(0x40)\n      0x20\n      dup2\n      dup4\n      sub\n      sub\n      dup2\n      mstore\n      swap1\n      0x40\n      mstore\n        /* \"Evm/core/base/vault.sol\":5120:5185  IEvents.Data(\"timestamp\", \"uint256\", abi.encode(block.timestamp)) */\n      dup2\n      mstore\n      pop\n        /* \"Evm/core/base/vault.sol\":5105:5114  eventData */\n      dup2\n        /* \"Evm/core/base/vault.sol\":5115:5116  5 */\n      0x05\n        /* \"Evm/core/base/vault.sol\":5105:5117  eventData[5] */\n      dup2\n      mload\n      dup2\n      lt\n      tag_134\n      jumpi\n      tag_135\n      tag_118\n      jump\t// in\n    tag_135:\n    tag_134:\n      0x20\n      mul\n      0x20\n      add\n      add\n        /* \"Evm/core/base/vault.sol\":5105:5185  eventData[5] = IEvents.Data(\"timestamp\", \"uint256\", abi.encode(block.timestamp)) */\n      dup2\n      swap1\n      mstore\n      pop\n        /* \"Evm/core/base/vault.sol\":5206:5212  events */\n      immutable(\"0xa55f93089260f97cd16ec7a717e7ade24f99065bc4509014bd14fefe4d832ab6\")\n        /* \"Evm/core/base/vault.sol\":5206:5227  events.emitVaultEvent */\n      0xffffffffffffffffffffffffffffffffffffffff\n      and\n      0x7d64fa9b\n        /* \"Evm/core/base/vault.sol\":5247:5256  eventData */\n      dup3\n        /* \"Evm/core/base/vault.sol\":5206:5257  events.emitVaultEvent(\"Direct Withdraw\", eventData) */\n      mload(0x40)\n      dup3\n      0xffffffff\n      and\n      0xe0\n      shl\n      dup2\n      mstore\n      0x04\n      add\n      tag_136\n      swap2\n      swap1\n      tag_137\n      jump\t// in\n    tag_136:\n      0x00\n      mload(0x40)\n      dup1\n      dup4\n      sub\n      dup2\n      0x00\n      dup8\n      dup1\n      extcodesize\n      iszero\n      dup1\n      iszero\n      tag_138\n      jumpi\n      revert(0x00, 0x00)\n    tag_138:\n      pop\n      gas\n      call\n      iszero\n      dup1\n      iszero\n      tag_140\n      jumpi\n      returndatacopy(0x00, 0x00, returndatasize)\n      revert(0x00, returndatasize)\n    tag_140:\n      pop\n      pop\n      pop\n      pop\n        /* \"Evm/core/base/vault.sol\":5294:5299  token */\n      dup2\n        /* \"Evm/core/base/vault.sol\":5273:5322  DirectWithdraw(user, token, amount, providerName) */\n      0xffffffffffffffffffffffffffffffffffffffff\n      and\n        /* \"Evm/core/base/vault.sol\":5288:5292  user */\n      dup8\n        /* \"Evm/core/base/vault.sol\":5273:5322  DirectWithdraw(user, token, amount, providerName) */\n      0xffffffffffffffffffffffffffffffffffffffff\n      and\n      0xcc4f8702356931e6d23a93d1b60beac6a7ea77d447ada4b1502a09d0b7125709\n        /* \"Evm/core/base/vault.sol\":5301:5307  amount */\n      dup7\n        /* \"Evm/core/base/vault.sol\":5309:5321  providerName */\n      0x01\n        /* \"Evm/core/base/vault.sol\":5273:5322  DirectWithdraw(user, token, amount, providerName) */\n      mload(0x40)\n      tag_141\n      swap3\n      swap2\n      swap1\n      tag_142\n      jump\t// in\n    tag_141:\n      mload(0x40)\n      dup1\n      swap2\n      sub\n      swap1\n      log3\n        /* \"Evm/core/base/vault.sol\":4290:5330  { // ONLY the Delegator contract can call this... */\n      pop\n      pop\n        /* \"Evm/core/base/vault.sol\":4171:5330  function directWithdraw(address user, string calldata assetName, uint256 amount, uint256 nullifier) external onlyOwner { // ONLY the Delegator contract can call this... */\n      pop\n      pop\n      pop\n      pop\n      pop\n      jump\t// out\n        /* \"@openzeppelin/contracts/access/Ownable.sol\":1638:1723  function owner() public view virtual returns (address) {... */\n    tag_47:\n        /* \"@openzeppelin/contracts/access/Ownable.sol\":1684:1691  address */\n      0x00\n        /* \"@openzeppelin/contracts/access/Ownable.sol\":1710:1716  _owner */\n      0x00\n      0x00\n      swap1\n      sload\n      swap1\n      0x0100\n      exp\n      swap1\n      div\n      0xffffffffffffffffffffffffffffffffffffffff\n      and\n        /* \"@openzeppelin/contracts/access/Ownable.sol\":1703:1716  return _owner */\n      swap1\n      pop\n        /* \"@openzeppelin/contracts/access/Ownable.sol\":1638:1723  function owner() public view virtual returns (address) {... */\n      swap1\n      jump\t// out\n        /* \"Evm/core/base/vault.sol\":5338:6428  function deposit(string calldata assetName, uint256 amount) external {... */\n    tag_52:\n        /* \"Evm/core/base/vault.sol\":5418:5431  address token */\n      0x00\n        /* \"Evm/core/base/vault.sol\":5434:5457  resolveAsset(assetName) */\n      tag_145\n        /* \"Evm/core/base/vault.sol\":5447:5456  assetName */\n      dup5\n      dup5\n        /* \"Evm/core/base/vault.sol\":5434:5457  resolveAsset(assetName) */\n      dup1\n      dup1\n      0x1f\n      add\n      0x20\n      dup1\n      swap2\n      div\n      mul\n      0x20\n      add\n      mload(0x40)\n      swap1\n      dup2\n      add\n      0x40\n      mstore\n      dup1\n      swap4\n      swap3\n      swap2\n      swap1\n      dup2\n      dup2\n      mstore\n      0x20\n      add\n      dup4\n      dup4\n      dup1\n      dup3\n      dup5\n      calldatacopy\n      0x00\n      dup2\n      dup5\n      add\n      mstore\n      not(0x1f)\n      0x1f\n      dup3\n      add\n      and\n      swap1\n      pop\n      dup1\n      dup4\n      add\n      swap3\n      pop\n      pop\n      pop\n      pop\n      pop\n      pop\n      pop\n        /* \"Evm/core/base/vault.sol\":5434:5446  resolveAsset */\n      tag_27\n        /* \"Evm/core/base/vault.sol\":5434:5457  resolveAsset(assetName) */\n      jump\t// in\n    tag_145:\n        /* \"Evm/core/base/vault.sol\":5418:5457  address token = resolveAsset(assetName) */\n      swap1\n      pop\n        /* \"Evm/core/base/vault.sol\":5476:5492  isSupportedToken */\n      0x05\n        /* \"Evm/core/base/vault.sol\":5476:5499  isSupportedToken[token] */\n      0x00\n        /* \"Evm/core/base/vault.sol\":5493:5498  token */\n      dup3\n        /* \"Evm/core/base/vault.sol\":5476:5499  isSupportedToken[token] */\n      0xffffffffffffffffffffffffffffffffffffffff\n      and\n      0xffffffffffffffffffffffffffffffffffffffff\n      and\n      dup2\n      mstore\n      0x20\n      add\n      swap1\n      dup2\n      mstore\n      0x20\n      add\n      0x00\n      keccak256\n      0x00\n      swap1\n      sload\n      swap1\n      0x0100\n      exp\n      swap1\n      div\n      0xff\n      and\n        /* \"Evm/core/base/vault.sol\":5468:5530  require(isSupportedToken[token], \"Vault: Token not supported\") */\n      tag_146\n      jumpi\n      mload(0x40)\n      0x08c379a000000000000000000000000000000000000000000000000000000000\n      dup2\n      mstore\n      0x04\n      add\n      tag_147\n      swap1\n      tag_105\n      jump\t// in\n    tag_147:\n      mload(0x40)\n      dup1\n      swap2\n      sub\n      swap1\n      revert\n    tag_146:\n        /* \"Evm/core/base/vault.sol\":5558:5559  0 */\n      0x00\n        /* \"Evm/core/base/vault.sol\":5549:5555  amount */\n      dup3\n        /* \"Evm/core/base/vault.sol\":5549:5559  amount > 0 */\n      gt\n        /* \"Evm/core/base/vault.sol\":5541:5590  require(amount > 0, \"Vault: Deposit must be > 0\") */\n      tag_148\n      jumpi\n      mload(0x40)\n      0x08c379a000000000000000000000000000000000000000000000000000000000\n      dup2\n      mstore\n      0x04\n      add\n      tag_149\n      swap1\n      tag_150\n      jump\t// in\n    tag_149:\n      mload(0x40)\n      dup1\n      swap2\n      sub\n      swap1\n      revert\n    tag_148:\n        /* \"Evm/core/base/vault.sol\":5656:5721  IERC20(token).safeTransferFrom(msg.sender, address(this), amount) */\n      tag_151\n        /* \"Evm/core/base/vault.sol\":5687:5697  msg.sender */\n      caller\n        /* \"Evm/core/base/vault.sol\":5707:5711  this */\n      address\n        /* \"Evm/core/base/vault.sol\":5714:5720  amount */\n      dup5\n        /* \"Evm/core/base/vault.sol\":5663:5668  token */\n      dup5\n        /* \"Evm/core/base/vault.sol\":5656:5686  IERC20(token).safeTransferFrom */\n      0xffffffffffffffffffffffffffffffffffffffff\n      and\n      tag_152\n      swap1\n        /* \"Evm/core/base/vault.sol\":5656:5721  IERC20(token).safeTransferFrom(msg.sender, address(this), amount) */\n      swap4\n      swap3\n      swap2\n      swap1\n      0xffffffff\n      and\n      jump\t// in\n    tag_151:\n        /* \"Evm/core/base/vault.sol\":5734:5765  IEvents.Data[] memory eventData */\n      0x00\n        /* \"Evm/core/base/vault.sol\":5787:5788  6 */\n      0x06\n        /* \"Evm/core/base/vault.sol\":5768:5789  new IEvents.Data[](6) */\n      0xffffffffffffffff\n      dup2\n      gt\n      iszero\n      tag_153\n      jumpi\n      tag_154\n      tag_110\n      jump\t// in\n    tag_154:\n    tag_153:\n      mload(0x40)\n      swap1\n      dup1\n      dup3\n      mstore\n      dup1\n      0x20\n      mul\n      0x20\n      add\n      dup3\n      add\n      0x40\n      mstore\n      dup1\n      iszero\n      tag_155\n      jumpi\n      dup2\n      0x20\n      add\n    tag_156:\n      tag_157\n      tag_114\n      jump\t// in\n    tag_157:\n      dup2\n      mstore\n      0x20\n      add\n      swap1\n      0x01\n      swap1\n      sub\n      swap1\n      dup2\n      tag_156\n      jumpi\n      swap1\n      pop\n    tag_155:\n      pop\n        /* \"Evm/core/base/vault.sol\":5734:5789  IEvents.Data[] memory eventData = new IEvents.Data[](6) */\n      swap1\n      pop\n        /* \"Evm/core/base/vault.sol\":5815:5870  IEvents.Data(\"user\", \"address\", abi.encode(msg.sender)) */\n      mload(0x40)\n      dup1\n      0x60\n      add\n      0x40\n      mstore\n      dup1\n      mload(0x40)\n      dup1\n      0x40\n      add\n      0x40\n      mstore\n      dup1\n      0x04\n      dup2\n      mstore\n      0x20\n      add\n      0x7573657200000000000000000000000000000000000000000000000000000000\n      dup2\n      mstore\n      pop\n      dup2\n      mstore\n      0x20\n      add\n      mload(0x40)\n      dup1\n      0x40\n      add\n      0x40\n      mstore\n      dup1\n      0x07\n      dup2\n      mstore\n      0x20\n      add\n      0x6164647265737300000000000000000000000000000000000000000000000000\n      dup2\n      mstore\n      pop\n      dup2\n      mstore\n      0x20\n      add\n        /* \"Evm/core/base/vault.sol\":5858:5868  msg.sender */\n      caller\n        /* \"Evm/core/base/vault.sol\":5847:5869  abi.encode(msg.sender) */\n      add(0x20, mload(0x40))\n      tag_158\n      swap2\n      swap1\n      tag_29\n      jump\t// in\n    tag_158:\n      mload(0x40)\n      0x20\n      dup2\n      dup4\n      sub\n      sub\n      dup2\n      mstore\n      swap1\n      0x40\n      mstore\n        /* \"Evm/core/base/vault.sol\":5815:5870  IEvents.Data(\"user\", \"address\", abi.encode(msg.sender)) */\n      dup2\n      mstore\n      pop\n        /* \"Evm/core/base/vault.sol\":5800:5809  eventData */\n      dup2\n        /* \"Evm/core/base/vault.sol\":5810:5811  0 */\n      0x00\n        /* \"Evm/core/base/vault.sol\":5800:5812  eventData[0] */\n      dup2\n      mload\n      dup2\n      lt\n      tag_159\n      jumpi\n      tag_160\n      tag_118\n      jump\t// in\n    tag_160:\n    tag_159:\n      0x20\n      mul\n      0x20\n      add\n      add\n        /* \"Evm/core/base/vault.sol\":5800:5870  eventData[0] = IEvents.Data(\"user\", \"address\", abi.encode(msg.sender)) */\n      dup2\n      swap1\n      mstore\n      pop\n        /* \"Evm/core/base/vault.sol\":5896:5949  IEvents.Data(\"amount\", \"uint256\", abi.encode(amount)) */\n      mload(0x40)\n      dup1\n      0x60\n      add\n      0x40\n      mstore\n      dup1\n      mload(0x40)\n      dup1\n      0x40\n      add\n      0x40\n      mstore\n      dup1\n      0x06\n      dup2\n      mstore\n      0x20\n      add\n      0x616d6f756e740000000000000000000000000000000000000000000000000000\n      dup2\n      mstore\n      pop\n      dup2\n      mstore\n      0x20\n      add\n      mload(0x40)\n      dup1\n      0x40\n      add\n      0x40\n      mstore\n      dup1\n      0x07\n      dup2\n      mstore\n      0x20\n      add\n      0x75696e7432353600000000000000000000000000000000000000000000000000\n      dup2\n      mstore\n      pop\n      dup2\n      mstore\n      0x20\n      add\n        /* \"Evm/core/base/vault.sol\":5941:5947  amount */\n      dup5\n        /* \"Evm/core/base/vault.sol\":5930:5948  abi.encode(amount) */\n      add(0x20, mload(0x40))\n      tag_161\n      swap2\n      swap1\n      tag_39\n      jump\t// in\n    tag_161:\n      mload(0x40)\n      0x20\n      dup2\n      dup4\n      sub\n      sub\n      dup2\n      mstore\n      swap1\n      0x40\n      mstore\n        /* \"Evm/core/base/vault.sol\":5896:5949  IEvents.Data(\"amount\", \"uint256\", abi.encode(amount)) */\n      dup2\n      mstore\n      pop\n        /* \"Evm/core/base/vault.sol\":5881:5890  eventData */\n      dup2\n        /* \"Evm/core/base/vault.sol\":5891:5892  1 */\n      0x01\n        /* \"Evm/core/base/vault.sol\":5881:5893  eventData[1] */\n      dup2\n      mload\n      dup2\n      lt\n      tag_162\n      jumpi\n      tag_163\n      tag_118\n      jump\t// in\n    tag_163:\n    tag_162:\n      0x20\n      mul\n      0x20\n      add\n      add\n        /* \"Evm/core/base/vault.sol\":5881:5949  eventData[1] = IEvents.Data(\"amount\", \"uint256\", abi.encode(amount)) */\n      dup2\n      swap1\n      mstore\n      pop\n        /* \"Evm/core/base/vault.sol\":5975:6029  IEvents.Data(\"token\", \"string\", abi.encode(assetName)) */\n      mload(0x40)\n      dup1\n      0x60\n      add\n      0x40\n      mstore\n      dup1\n      mload(0x40)\n      dup1\n      0x40\n      add\n      0x40\n      mstore\n      dup1\n      0x05\n      dup2\n      mstore\n      0x20\n      add\n      0x746f6b656e000000000000000000000000000000000000000000000000000000\n      dup2\n      mstore\n      pop\n      dup2\n      mstore\n      0x20\n      add\n      mload(0x40)\n      dup1\n      0x40\n      add\n      0x40\n      mstore\n      dup1\n      0x06\n      dup2\n      mstore\n      0x20\n      add\n      0x737472696e670000000000000000000000000000000000000000000000000000\n      dup2\n      mstore\n      pop\n      dup2\n      mstore\n      0x20\n      add\n        /* \"Evm/core/base/vault.sol\":6018:6027  assetName */\n      dup7\n      dup7\n        /* \"Evm/core/base/vault.sol\":6007:6028  abi.encode(assetName) */\n      add(0x20, mload(0x40))\n      tag_164\n      swap3\n      swap2\n      swap1\n      tag_123\n      jump\t// in\n    tag_164:\n      mload(0x40)\n      0x20\n      dup2\n      dup4\n      sub\n      sub\n      dup2\n      mstore\n      swap1\n      0x40\n      mstore\n        /* \"Evm/core/base/vault.sol\":5975:6029  IEvents.Data(\"token\", \"string\", abi.encode(assetName)) */\n      dup2\n      mstore\n      pop\n        /* \"Evm/core/base/vault.sol\":5960:5969  eventData */\n      dup2\n        /* \"Evm/core/base/vault.sol\":5970:5971  2 */\n      0x02\n        /* \"Evm/core/base/vault.sol\":5960:5972  eventData[2] */\n      dup2\n      mload\n      dup2\n      lt\n      tag_165\n      jumpi\n      tag_166\n      tag_118\n      jump\t// in\n    tag_166:\n    tag_165:\n      0x20\n      mul\n      0x20\n      add\n      add\n        /* \"Evm/core/base/vault.sol\":5960:6029  eventData[2] = IEvents.Data(\"token\", \"string\", abi.encode(assetName)) */\n      dup2\n      swap1\n      mstore\n      pop\n        /* \"Evm/core/base/vault.sol\":6055:6115  IEvents.Data(\"provider\", \"string\", abi.encode(providerName)) */\n      mload(0x40)\n      dup1\n      0x60\n      add\n      0x40\n      mstore\n      dup1\n      mload(0x40)\n      dup1\n      0x40\n      add\n      0x40\n      mstore\n      dup1\n      0x08\n      dup2\n      mstore\n      0x20\n      add\n      0x70726f7669646572000000000000000000000000000000000000000000000000\n      dup2\n      mstore\n      pop\n      dup2\n      mstore\n      0x20\n      add\n      mload(0x40)\n      dup1\n      0x40\n      add\n      0x40\n      mstore\n      dup1\n      0x06\n      dup2\n      mstore\n      0x20\n      add\n      0x737472696e670000000000000000000000000000000000000000000000000000\n      dup2\n      mstore\n      pop\n      dup2\n      mstore\n      0x20\n      add\n        /* \"Evm/core/base/vault.sol\":6101:6113  providerName */\n      0x01\n        /* \"Evm/core/base/vault.sol\":6090:6114  abi.encode(providerName) */\n      add(0x20, mload(0x40))\n      tag_167\n      swap2\n      swap1\n      tag_127\n      jump\t// in\n    tag_167:\n      mload(0x40)\n      0x20\n      dup2\n      dup4\n      sub\n      sub\n      dup2\n      mstore\n      swap1\n      0x40\n      mstore\n        /* \"Evm/core/base/vault.sol\":6055:6115  IEvents.Data(\"provider\", \"string\", abi.encode(providerName)) */\n      dup2\n      mstore\n      pop\n        /* \"Evm/core/base/vault.sol\":6040:6049  eventData */\n      dup2\n        /* \"Evm/core/base/vault.sol\":6050:6051  3 */\n      0x03\n        /* \"Evm/core/base/vault.sol\":6040:6052  eventData[3] */\n      dup2\n      mload\n      dup2\n      lt\n      tag_168\n      jumpi\n      tag_169\n      tag_118\n      jump\t// in\n    tag_169:\n    tag_168:\n      0x20\n      mul\n      0x20\n      add\n      add\n        /* \"Evm/core/base/vault.sol\":6040:6115  eventData[3] = IEvents.Data(\"provider\", \"string\", abi.encode(providerName)) */\n      dup2\n      swap1\n      mstore\n      pop\n        /* \"Evm/core/base/vault.sol\":6141:6206  IEvents.Data(\"timestamp\", \"uint256\", abi.encode(block.timestamp)) */\n      mload(0x40)\n      dup1\n      0x60\n      add\n      0x40\n      mstore\n      dup1\n      mload(0x40)\n      dup1\n      0x40\n      add\n      0x40\n      mstore\n      dup1\n      0x09\n      dup2\n      mstore\n      0x20\n      add\n      0x74696d657374616d700000000000000000000000000000000000000000000000\n      dup2\n      mstore\n      pop\n      dup2\n      mstore\n      0x20\n      add\n      mload(0x40)\n      dup1\n      0x40\n      add\n      0x40\n      mstore\n      dup1\n      0x07\n      dup2\n      mstore\n      0x20\n      add\n      0x75696e7432353600000000000000000000000000000000000000000000000000\n      dup2\n      mstore\n      pop\n      dup2\n      mstore\n      0x20\n      add\n        /* \"Evm/core/base/vault.sol\":6189:6204  block.timestamp */\n      timestamp\n        /* \"Evm/core/base/vault.sol\":6178:6205  abi.encode(block.timestamp) */\n      add(0x20, mload(0x40))\n      tag_170\n      swap2\n      swap1\n      tag_39\n      jump\t// in\n    tag_170:\n      mload(0x40)\n      0x20\n      dup2\n      dup4\n      sub\n      sub\n      dup2\n      mstore\n      swap1\n      0x40\n      mstore\n        /* \"Evm/core/base/vault.sol\":6141:6206  IEvents.Data(\"timestamp\", \"uint256\", abi.encode(block.timestamp)) */\n      dup2\n      mstore\n      pop\n        /* \"Evm/core/base/vault.sol\":6126:6135  eventData */\n      dup2\n        /* \"Evm/core/base/vault.sol\":6136:6137  4 */\n      0x04\n        /* \"Evm/core/base/vault.sol\":6126:6138  eventData[4] */\n      dup2\n      mload\n      dup2\n      lt\n      tag_171\n      jumpi\n      tag_172\n      tag_118\n      jump\t// in\n    tag_172:\n    tag_171:\n      0x20\n      mul\n      0x20\n      add\n      add\n        /* \"Evm/core/base/vault.sol\":6126:6206  eventData[4] = IEvents.Data(\"timestamp\", \"uint256\", abi.encode(block.timestamp)) */\n      dup2\n      swap1\n      mstore\n      pop\n        /* \"Evm/core/base/vault.sol\":6232:6300  IEvents.Data(\"rate\", \"uint256\", abi.encode(_getPseudoRandomRange())) */\n      mload(0x40)\n      dup1\n      0x60\n      add\n      0x40\n      mstore\n      dup1\n      mload(0x40)\n      dup1\n      0x40\n      add\n      0x40\n      mstore\n      dup1\n      0x04\n      dup2\n      mstore\n      0x20\n      add\n      0x7261746500000000000000000000000000000000000000000000000000000000\n      dup2\n      mstore\n      pop\n      dup2\n      mstore\n      0x20\n      add\n      mload(0x40)\n      dup1\n      0x40\n      add\n      0x40\n      mstore\n      dup1\n      0x07\n      dup2\n      mstore\n      0x20\n      add\n      0x75696e7432353600000000000000000000000000000000000000000000000000\n      dup2\n      mstore\n      pop\n      dup2\n      mstore\n      0x20\n      add\n        /* \"Evm/core/base/vault.sol\":6275:6298  _getPseudoRandomRange() */\n      tag_173\n        /* \"Evm/core/base/vault.sol\":6275:6296  _getPseudoRandomRange */\n      tag_174\n        /* \"Evm/core/base/vault.sol\":6275:6298  _getPseudoRandomRange() */\n      jump\t// in\n    tag_173:\n        /* \"Evm/core/base/vault.sol\":6264:6299  abi.encode(_getPseudoRandomRange()) */\n      add(0x20, mload(0x40))\n      tag_175\n      swap2\n      swap1\n      tag_39\n      jump\t// in\n    tag_175:\n      mload(0x40)\n      0x20\n      dup2\n      dup4\n      sub\n      sub\n      dup2\n      mstore\n      swap1\n      0x40\n      mstore\n        /* \"Evm/core/base/vault.sol\":6232:6300  IEvents.Data(\"rate\", \"uint256\", abi.encode(_getPseudoRandomRange())) */\n      dup2\n      mstore\n      pop\n        /* \"Evm/core/base/vault.sol\":6217:6226  eventData */\n      dup2\n        /* \"Evm/core/base/vault.sol\":6227:6228  5 */\n      0x05\n        /* \"Evm/core/base/vault.sol\":6217:6229  eventData[5] */\n      dup2\n      mload\n      dup2\n      lt\n      tag_176\n      jumpi\n      tag_177\n      tag_118\n      jump\t// in\n    tag_177:\n    tag_176:\n      0x20\n      mul\n      0x20\n      add\n      add\n        /* \"Evm/core/base/vault.sol\":6217:6300  eventData[5] = IEvents.Data(\"rate\", \"uint256\", abi.encode(_getPseudoRandomRange())) */\n      dup2\n      swap1\n      mstore\n      pop\n        /* \"Evm/core/base/vault.sol\":6313:6319  events */\n      immutable(\"0xa55f93089260f97cd16ec7a717e7ade24f99065bc4509014bd14fefe4d832ab6\")\n        /* \"Evm/core/base/vault.sol\":6313:6334  events.emitVaultEvent */\n      0xffffffffffffffffffffffffffffffffffffffff\n      and\n      0x7d64fa9b\n        /* \"Evm/core/base/vault.sol\":6346:6355  eventData */\n      dup3\n        /* \"Evm/core/base/vault.sol\":6313:6356  events.emitVaultEvent(\"Deposit\", eventData) */\n      mload(0x40)\n      dup3\n      0xffffffff\n      and\n      0xe0\n      shl\n      dup2\n      mstore\n      0x04\n      add\n      tag_178\n      swap2\n      swap1\n      tag_179\n      jump\t// in\n    tag_178:\n      0x00\n      mload(0x40)\n      dup1\n      dup4\n      sub\n      dup2\n      0x00\n      dup8\n      dup1\n      extcodesize\n      iszero\n      dup1\n      iszero\n      tag_180\n      jumpi\n      revert(0x00, 0x00)\n    tag_180:\n      pop\n      gas\n      call\n      iszero\n      dup1\n      iszero\n      tag_182\n      jumpi\n      returndatacopy(0x00, 0x00, returndatasize)\n      revert(0x00, returndatasize)\n    tag_182:\n      pop\n      pop\n      pop\n      pop\n        /* \"Evm/core/base/vault.sol\":6392:6397  token */\n      dup2\n        /* \"Evm/core/base/vault.sol\":6372:6420  Deposit(msg.sender, token, amount, providerName) */\n      0xffffffffffffffffffffffffffffffffffffffff\n      and\n        /* \"Evm/core/base/vault.sol\":6380:6390  msg.sender */\n      caller\n        /* \"Evm/core/base/vault.sol\":6372:6420  Deposit(msg.sender, token, amount, providerName) */\n      0xffffffffffffffffffffffffffffffffffffffff\n      and\n      0xef519b7eb82aaf6ac376a6df2d793843ebfd593de5f1a0601d3cc6ab49ebb395\n        /* \"Evm/core/base/vault.sol\":6399:6405  amount */\n      dup6\n        /* \"Evm/core/base/vault.sol\":6407:6419  providerName */\n      0x01\n        /* \"Evm/core/base/vault.sol\":6372:6420  Deposit(msg.sender, token, amount, providerName) */\n      mload(0x40)\n      tag_183\n      swap3\n      swap2\n      swap1\n      tag_142\n      jump\t// in\n    tag_183:\n      mload(0x40)\n      dup1\n      swap2\n      sub\n      swap1\n      log3\n        /* \"Evm/core/base/vault.sol\":5407:6428  {... */\n      pop\n      pop\n        /* \"Evm/core/base/vault.sol\":5338:6428  function deposit(string calldata assetName, uint256 amount) external {... */\n      pop\n      pop\n      pop\n      jump\t// out\n        /* \"Evm/core/base/vault.sol\":696:727  IEvents public immutable events */\n    tag_54:\n      immutable(\"0xa55f93089260f97cd16ec7a717e7ade24f99065bc4509014bd14fefe4d832ab6\")\n      dup2\n      jump\t// out\n        /* \"Evm/core/base/vault.sol\":644:689  IVariables public immutable variablesRegistry */\n    tag_58:\n      immutable(\"0x1067a32fc2bf4122310a8f066f11577e006583df65ce4c5172289c9680be102c\")\n      dup2\n      jump\t// out\n        /* \"Evm/core/base/vault.sol\":2817:4013  function m_withdraw(bytes calldata user, string calldata shared, string calldata assetName, uint256 amount) external { ... */\n    tag_64:\n        /* \"Evm/core/base/vault.sol\":3054:3067  address token */\n      0x00\n        /* \"Evm/core/base/vault.sol\":3070:3093  resolveAsset(assetName) */\n      tag_185\n        /* \"Evm/core/base/vault.sol\":3083:3092  assetName */\n      dup5\n      dup5\n        /* \"Evm/core/base/vault.sol\":3070:3093  resolveAsset(assetName) */\n      dup1\n      dup1\n      0x1f\n      add\n      0x20\n      dup1\n      swap2\n      div\n      mul\n      0x20\n      add\n      mload(0x40)\n      swap1\n      dup2\n      add\n      0x40\n      mstore\n      dup1\n      swap4\n      swap3\n      swap2\n      swap1\n      dup2\n      dup2\n      mstore\n      0x20\n      add\n      dup4\n      dup4\n      dup1\n      dup3\n      dup5\n      calldatacopy\n      0x00\n      dup2\n      dup5\n      add\n      mstore\n      not(0x1f)\n      0x1f\n      dup3\n      add\n      and\n      swap1\n      pop\n      dup1\n      dup4\n      add\n      swap3\n      pop\n      pop\n      pop\n      pop\n      pop\n      pop\n      pop\n        /* \"Evm/core/base/vault.sol\":3070:3082  resolveAsset */\n      tag_27\n        /* \"Evm/core/base/vault.sol\":3070:3093  resolveAsset(assetName) */\n      jump\t// in\n    tag_185:\n        /* \"Evm/core/base/vault.sol\":3054:3093  address token = resolveAsset(assetName) */\n      swap1\n      pop\n        /* \"Evm/core/base/vault.sol\":3112:3128  isSupportedToken */\n      0x05\n        /* \"Evm/core/base/vault.sol\":3112:3135  isSupportedToken[token] */\n      0x00\n        /* \"Evm/core/base/vault.sol\":3129:3134  token */\n      dup3\n        /* \"Evm/core/base/vault.sol\":3112:3135  isSupportedToken[token] */\n      0xffffffffffffffffffffffffffffffffffffffff\n      and\n      0xffffffffffffffffffffffffffffffffffffffff\n      and\n      dup2\n      mstore\n      0x20\n      add\n      swap1\n      dup2\n      mstore\n      0x20\n      add\n      0x00\n      keccak256\n      0x00\n      swap1\n      sload\n      swap1\n      0x0100\n      exp\n      swap1\n      div\n      0xff\n      and\n        /* \"Evm/core/base/vault.sol\":3104:3166  require(isSupportedToken[token], \"Vault: Token not supported\") */\n      tag_186\n      jumpi\n      mload(0x40)\n      0x08c379a000000000000000000000000000000000000000000000000000000000\n      dup2\n      mstore\n      0x04\n      add\n      tag_187\n      swap1\n      tag_105\n      jump\t// in\n    tag_187:\n      mload(0x40)\n      dup1\n      swap2\n      sub\n      swap1\n      revert\n    tag_186:\n        /* \"Evm/core/base/vault.sol\":3228:3259  IEvents.Data[] memory eventData */\n      0x00\n        /* \"Evm/core/base/vault.sol\":3281:3282  6 */\n      0x06\n        /* \"Evm/core/base/vault.sol\":3262:3283  new IEvents.Data[](6) */\n      0xffffffffffffffff\n      dup2\n      gt\n      iszero\n      tag_188\n      jumpi\n      tag_189\n      tag_110\n      jump\t// in\n    tag_189:\n    tag_188:\n      mload(0x40)\n      swap1\n      dup1\n      dup3\n      mstore\n      dup1\n      0x20\n      mul\n      0x20\n      add\n      dup3\n      add\n      0x40\n      mstore\n      dup1\n      iszero\n      tag_190\n      jumpi\n      dup2\n      0x20\n      add\n    tag_191:\n      tag_192\n      tag_114\n      jump\t// in\n    tag_192:\n      dup2\n      mstore\n      0x20\n      add\n      swap1\n      0x01\n      swap1\n      sub\n      swap1\n      dup2\n      tag_191\n      jumpi\n      swap1\n      pop\n    tag_190:\n      pop\n        /* \"Evm/core/base/vault.sol\":3228:3283  IEvents.Data[] memory eventData = new IEvents.Data[](6) */\n      swap1\n      pop\n        /* \"Evm/core/base/vault.sol\":3319:3366  IEvents.Data(\"user\", \"bytes\", abi.encode(user)) */\n      mload(0x40)\n      dup1\n      0x60\n      add\n      0x40\n      mstore\n      dup1\n      mload(0x40)\n      dup1\n      0x40\n      add\n      0x40\n      mstore\n      dup1\n      0x04\n      dup2\n      mstore\n      0x20\n      add\n      0x7573657200000000000000000000000000000000000000000000000000000000\n      dup2\n      mstore\n      pop\n      dup2\n      mstore\n      0x20\n      add\n      mload(0x40)\n      dup1\n      0x40\n      add\n      0x40\n      mstore\n      dup1\n      0x05\n      dup2\n      mstore\n      0x20\n      add\n      0x6279746573000000000000000000000000000000000000000000000000000000\n      dup2\n      mstore\n      pop\n      dup2\n      mstore\n      0x20\n      add\n        /* \"Evm/core/base/vault.sol\":3360:3364  user */\n      dup11\n      dup11\n        /* \"Evm/core/base/vault.sol\":3349:3365  abi.encode(user) */\n      add(0x20, mload(0x40))\n      tag_193\n      swap3\n      swap2\n      swap1\n      tag_194\n      jump\t// in\n    tag_193:\n      mload(0x40)\n      0x20\n      dup2\n      dup4\n      sub\n      sub\n      dup2\n      mstore\n      swap1\n      0x40\n      mstore\n        /* \"Evm/core/base/vault.sol\":3319:3366  IEvents.Data(\"user\", \"bytes\", abi.encode(user)) */\n      dup2\n      mstore\n      pop\n        /* \"Evm/core/base/vault.sol\":3304:3313  eventData */\n      dup2\n        /* \"Evm/core/base/vault.sol\":3314:3315  0 */\n      0x00\n        /* \"Evm/core/base/vault.sol\":3304:3316  eventData[0] */\n      dup2\n      mload\n      dup2\n      lt\n      tag_195\n      jumpi\n      tag_196\n      tag_118\n      jump\t// in\n    tag_196:\n    tag_195:\n      0x20\n      mul\n      0x20\n      add\n      add\n        /* \"Evm/core/base/vault.sol\":3304:3366  eventData[0] = IEvents.Data(\"user\", \"bytes\", abi.encode(user)) */\n      dup2\n      swap1\n      mstore\n      pop\n        /* \"Evm/core/base/vault.sol\":3392:3445  IEvents.Data(\"shared\", \"address\", abi.encode(shared)) */\n      mload(0x40)\n      dup1\n      0x60\n      add\n      0x40\n      mstore\n      dup1\n      mload(0x40)\n      dup1\n      0x40\n      add\n      0x40\n      mstore\n      dup1\n      0x06\n      dup2\n      mstore\n      0x20\n      add\n      0x7368617265640000000000000000000000000000000000000000000000000000\n      dup2\n      mstore\n      pop\n      dup2\n      mstore\n      0x20\n      add\n      mload(0x40)\n      dup1\n      0x40\n      add\n      0x40\n      mstore\n      dup1\n      0x07\n      dup2\n      mstore\n      0x20\n      add\n      0x6164647265737300000000000000000000000000000000000000000000000000\n      dup2\n      mstore\n      pop\n      dup2\n      mstore\n      0x20\n      add\n        /* \"Evm/core/base/vault.sol\":3437:3443  shared */\n      dup9\n      dup9\n        /* \"Evm/core/base/vault.sol\":3426:3444  abi.encode(shared) */\n      add(0x20, mload(0x40))\n      tag_197\n      swap3\n      swap2\n      swap1\n      tag_123\n      jump\t// in\n    tag_197:\n      mload(0x40)\n      0x20\n      dup2\n      dup4\n      sub\n      sub\n      dup2\n      mstore\n      swap1\n      0x40\n      mstore\n        /* \"Evm/core/base/vault.sol\":3392:3445  IEvents.Data(\"shared\", \"address\", abi.encode(shared)) */\n      dup2\n      mstore\n      pop\n        /* \"Evm/core/base/vault.sol\":3377:3386  eventData */\n      dup2\n        /* \"Evm/core/base/vault.sol\":3387:3388  1 */\n      0x01\n        /* \"Evm/core/base/vault.sol\":3377:3389  eventData[1] */\n      dup2\n      mload\n      dup2\n      lt\n      tag_198\n      jumpi\n      tag_199\n      tag_118\n      jump\t// in\n    tag_199:\n    tag_198:\n      0x20\n      mul\n      0x20\n      add\n      add\n        /* \"Evm/core/base/vault.sol\":3377:3445  eventData[1] = IEvents.Data(\"shared\", \"address\", abi.encode(shared)) */\n      dup2\n      swap1\n      mstore\n      pop\n        /* \"Evm/core/base/vault.sol\":3471:3524  IEvents.Data(\"amount\", \"uint256\", abi.encode(amount)) */\n      mload(0x40)\n      dup1\n      0x60\n      add\n      0x40\n      mstore\n      dup1\n      mload(0x40)\n      dup1\n      0x40\n      add\n      0x40\n      mstore\n      dup1\n      0x06\n      dup2\n      mstore\n      0x20\n      add\n      0x616d6f756e740000000000000000000000000000000000000000000000000000\n      dup2\n      mstore\n      pop\n      dup2\n      mstore\n      0x20\n      add\n      mload(0x40)\n      dup1\n      0x40\n      add\n      0x40\n      mstore\n      dup1\n      0x07\n      dup2\n      mstore\n      0x20\n      add\n      0x75696e7432353600000000000000000000000000000000000000000000000000\n      dup2\n      mstore\n      pop\n      dup2\n      mstore\n      0x20\n      add\n        /* \"Evm/core/base/vault.sol\":3516:3522  amount */\n      dup5\n        /* \"Evm/core/base/vault.sol\":3505:3523  abi.encode(amount) */\n      add(0x20, mload(0x40))\n      tag_200\n      swap2\n      swap1\n      tag_39\n      jump\t// in\n    tag_200:\n      mload(0x40)\n      0x20\n      dup2\n      dup4\n      sub\n      sub\n      dup2\n      mstore\n      swap1\n      0x40\n      mstore\n        /* \"Evm/core/base/vault.sol\":3471:3524  IEvents.Data(\"amount\", \"uint256\", abi.encode(amount)) */\n      dup2\n      mstore\n      pop\n        /* \"Evm/core/base/vault.sol\":3456:3465  eventData */\n      dup2\n        /* \"Evm/core/base/vault.sol\":3466:3467  2 */\n      0x02\n        /* \"Evm/core/base/vault.sol\":3456:3468  eventData[2] */\n      dup2\n      mload\n      dup2\n      lt\n      tag_201\n      jumpi\n      tag_202\n      tag_118\n      jump\t// in\n    tag_202:\n    tag_201:\n      0x20\n      mul\n      0x20\n      add\n      add\n        /* \"Evm/core/base/vault.sol\":3456:3524  eventData[2] = IEvents.Data(\"amount\", \"uint256\", abi.encode(amount)) */\n      dup2\n      swap1\n      mstore\n      pop\n        /* \"Evm/core/base/vault.sol\":3550:3601  IEvents.Data(\"chain\", \"string\", abi.encode(\"base\")) */\n      mload(0x40)\n      dup1\n      0x60\n      add\n      0x40\n      mstore\n      dup1\n      mload(0x40)\n      dup1\n      0x40\n      add\n      0x40\n      mstore\n      dup1\n      0x05\n      dup2\n      mstore\n      0x20\n      add\n      0x636861696e000000000000000000000000000000000000000000000000000000\n      dup2\n      mstore\n      pop\n      dup2\n      mstore\n      0x20\n      add\n      mload(0x40)\n      dup1\n      0x40\n      add\n      0x40\n      mstore\n      dup1\n      0x06\n      dup2\n      mstore\n      0x20\n      add\n      0x737472696e670000000000000000000000000000000000000000000000000000\n      dup2\n      mstore\n      pop\n      dup2\n      mstore\n      0x20\n      add\n        /* \"Evm/core/base/vault.sol\":3582:3600  abi.encode(\"base\") */\n      add(0x20, mload(0x40))\n      tag_203\n      swap1\n      tag_204\n      jump\t// in\n    tag_203:\n      mload(0x40)\n      0x20\n      dup2\n      dup4\n      sub\n      sub\n      dup2\n      mstore\n      swap1\n      0x40\n      mstore\n        /* \"Evm/core/base/vault.sol\":3550:3601  IEvents.Data(\"chain\", \"string\", abi.encode(\"base\")) */\n      dup2\n      mstore\n      pop\n        /* \"Evm/core/base/vault.sol\":3535:3544  eventData */\n      dup2\n        /* \"Evm/core/base/vault.sol\":3545:3546  3 */\n      0x03\n        /* \"Evm/core/base/vault.sol\":3535:3547  eventData[3] */\n      dup2\n      mload\n      dup2\n      lt\n      tag_205\n      jumpi\n      tag_206\n      tag_118\n      jump\t// in\n    tag_206:\n    tag_205:\n      0x20\n      mul\n      0x20\n      add\n      add\n        /* \"Evm/core/base/vault.sol\":3535:3601  eventData[3] = IEvents.Data(\"chain\", \"string\", abi.encode(\"base\")) */\n      dup2\n      swap1\n      mstore\n      pop\n        /* \"Evm/core/base/vault.sol\":3627:3687  IEvents.Data(\"provider\", \"string\", abi.encode(providerName)) */\n      mload(0x40)\n      dup1\n      0x60\n      add\n      0x40\n      mstore\n      dup1\n      mload(0x40)\n      dup1\n      0x40\n      add\n      0x40\n      mstore\n      dup1\n      0x08\n      dup2\n      mstore\n      0x20\n      add\n      0x70726f7669646572000000000000000000000000000000000000000000000000\n      dup2\n      mstore\n      pop\n      dup2\n      mstore\n      0x20\n      add\n      mload(0x40)\n      dup1\n      0x40\n      add\n      0x40\n      mstore\n      dup1\n      0x06\n      dup2\n      mstore\n      0x20\n      add\n      0x737472696e670000000000000000000000000000000000000000000000000000\n      dup2\n      mstore\n      pop\n      dup2\n      mstore\n      0x20\n      add\n        /* \"Evm/core/base/vault.sol\":3673:3685  providerName */\n      0x01\n        /* \"Evm/core/base/vault.sol\":3662:3686  abi.encode(providerName) */\n      add(0x20, mload(0x40))\n      tag_207\n      swap2\n      swap1\n      tag_127\n      jump\t// in\n    tag_207:\n      mload(0x40)\n      0x20\n      dup2\n      dup4\n      sub\n      sub\n      dup2\n      mstore\n      swap1\n      0x40\n      mstore\n        /* \"Evm/core/base/vault.sol\":3627:3687  IEvents.Data(\"provider\", \"string\", abi.encode(providerName)) */\n      dup2\n      mstore\n      pop\n        /* \"Evm/core/base/vault.sol\":3612:3621  eventData */\n      dup2\n        /* \"Evm/core/base/vault.sol\":3622:3623  4 */\n      0x04\n        /* \"Evm/core/base/vault.sol\":3612:3624  eventData[4] */\n      dup2\n      mload\n      dup2\n      lt\n      tag_208\n      jumpi\n      tag_209\n      tag_118\n      jump\t// in\n    tag_209:\n    tag_208:\n      0x20\n      mul\n      0x20\n      add\n      add\n        /* \"Evm/core/base/vault.sol\":3612:3687  eventData[4] = IEvents.Data(\"provider\", \"string\", abi.encode(providerName)) */\n      dup2\n      swap1\n      mstore\n      pop\n        /* \"Evm/core/base/vault.sol\":3803:3857  IEvents.Data(\"token\", \"string\", abi.encode(assetName)) */\n      mload(0x40)\n      dup1\n      0x60\n      add\n      0x40\n      mstore\n      dup1\n      mload(0x40)\n      dup1\n      0x40\n      add\n      0x40\n      mstore\n      dup1\n      0x05\n      dup2\n      mstore\n      0x20\n      add\n      0x746f6b656e000000000000000000000000000000000000000000000000000000\n      dup2\n      mstore\n      pop\n      dup2\n      mstore\n      0x20\n      add\n      mload(0x40)\n      dup1\n      0x40\n      add\n      0x40\n      mstore\n      dup1\n      0x06\n      dup2\n      mstore\n      0x20\n      add\n      0x737472696e670000000000000000000000000000000000000000000000000000\n      dup2\n      mstore\n      pop\n      dup2\n      mstore\n      0x20\n      add\n        /* \"Evm/core/base/vault.sol\":3846:3855  assetName */\n      dup7\n      dup7\n        /* \"Evm/core/base/vault.sol\":3835:3856  abi.encode(assetName) */\n      add(0x20, mload(0x40))\n      tag_210\n      swap3\n      swap2\n      swap1\n      tag_123\n      jump\t// in\n    tag_210:\n      mload(0x40)\n      0x20\n      dup2\n      dup4\n      sub\n      sub\n      dup2\n      mstore\n      swap1\n      0x40\n      mstore\n        /* \"Evm/core/base/vault.sol\":3803:3857  IEvents.Data(\"token\", \"string\", abi.encode(assetName)) */\n      dup2\n      mstore\n      pop\n        /* \"Evm/core/base/vault.sol\":3788:3797  eventData */\n      dup2\n        /* \"Evm/core/base/vault.sol\":3798:3799  5 */\n      0x05\n        /* \"Evm/core/base/vault.sol\":3788:3800  eventData[5] */\n      dup2\n      mload\n      dup2\n      lt\n      tag_211\n      jumpi\n      tag_212\n      tag_118\n      jump\t// in\n    tag_212:\n    tag_211:\n      0x20\n      mul\n      0x20\n      add\n      add\n        /* \"Evm/core/base/vault.sol\":3788:3857  eventData[5] = IEvents.Data(\"token\", \"string\", abi.encode(assetName)) */\n      dup2\n      swap1\n      mstore\n      pop\n        /* \"Evm/core/base/vault.sol\":3953:3959  events */\n      immutable(\"0xa55f93089260f97cd16ec7a717e7ade24f99065bc4509014bd14fefe4d832ab6\")\n        /* \"Evm/core/base/vault.sol\":3953:3974  events.emitVaultEvent */\n      0xffffffffffffffffffffffffffffffffffffffff\n      and\n      0x7d64fa9b\n        /* \"Evm/core/base/vault.sol\":3995:4004  eventData */\n      dup3\n        /* \"Evm/core/base/vault.sol\":3953:4005  events.emitVaultEvent(\"Modular Withdraw\", eventData) */\n      mload(0x40)\n      dup3\n      0xffffffff\n      and\n      0xe0\n      shl\n      dup2\n      mstore\n      0x04\n      add\n      tag_213\n      swap2\n      swap1\n      tag_214\n      jump\t// in\n    tag_213:\n      0x00\n      mload(0x40)\n      dup1\n      dup4\n      sub\n      dup2\n      0x00\n      dup8\n      dup1\n      extcodesize\n      iszero\n      dup1\n      iszero\n      tag_215\n      jumpi\n      revert(0x00, 0x00)\n    tag_215:\n      pop\n      gas\n      call\n      iszero\n      dup1\n      iszero\n      tag_217\n      jumpi\n      returndatacopy(0x00, 0x00, returndatasize)\n      revert(0x00, returndatasize)\n    tag_217:\n      pop\n      pop\n      pop\n      pop\n        /* \"Evm/core/base/vault.sol\":2934:4013  { ... */\n      pop\n      pop\n        /* \"Evm/core/base/vault.sol\":2817:4013  function m_withdraw(bytes calldata user, string calldata shared, string calldata assetName, uint256 amount) external { ... */\n      pop\n      pop\n      pop\n      pop\n      pop\n      pop\n      pop\n      jump\t// out\n        /* \"Evm/core/base/vault.sol\":2182:2399  function listNewToken(string calldata assetName) external {... */\n    tag_68:\n        /* \"Evm/core/base/vault.sol\":2251:2268  address tokenAddr */\n      0x00\n        /* \"Evm/core/base/vault.sol\":2271:2294  resolveAsset(assetName) */\n      tag_219\n        /* \"Evm/core/base/vault.sol\":2284:2293  assetName */\n      dup4\n      dup4\n        /* \"Evm/core/base/vault.sol\":2271:2294  resolveAsset(assetName) */\n      dup1\n      dup1\n      0x1f\n      add\n      0x20\n      dup1\n      swap2\n      div\n      mul\n      0x20\n      add\n      mload(0x40)\n      swap1\n      dup2\n      add\n      0x40\n      mstore\n      dup1\n      swap4\n      swap3\n      swap2\n      swap1\n      dup2\n      dup2\n      mstore\n      0x20\n      add\n      dup4\n      dup4\n      dup1\n      dup3\n      dup5\n      calldatacopy\n      0x00\n      dup2\n      dup5\n      add\n      mstore\n      not(0x1f)\n      0x1f\n      dup3\n      add\n      and\n      swap1\n      pop\n      dup1\n      dup4\n      add\n      swap3\n      pop\n      pop\n      pop\n      pop\n      pop\n      pop\n      pop\n        /* \"Evm/core/base/vault.sol\":2271:2283  resolveAsset */\n      tag_27\n        /* \"Evm/core/base/vault.sol\":2271:2294  resolveAsset(assetName) */\n      jump\t// in\n    tag_219:\n        /* \"Evm/core/base/vault.sol\":2251:2294  address tokenAddr = resolveAsset(assetName) */\n      swap1\n      pop\n        /* \"Evm/core/base/vault.sol\":2335:2339  true */\n      0x01\n        /* \"Evm/core/base/vault.sol\":2305:2321  isSupportedToken */\n      0x05\n        /* \"Evm/core/base/vault.sol\":2305:2332  isSupportedToken[tokenAddr] */\n      0x00\n        /* \"Evm/core/base/vault.sol\":2322:2331  tokenAddr */\n      dup4\n        /* \"Evm/core/base/vault.sol\":2305:2332  isSupportedToken[tokenAddr] */\n      0xffffffffffffffffffffffffffffffffffffffff\n      and\n      0xffffffffffffffffffffffffffffffffffffffff\n      and\n      dup2\n      mstore\n      0x20\n      add\n      swap1\n      dup2\n      mstore\n      0x20\n      add\n      0x00\n      keccak256\n      0x00\n        /* \"Evm/core/base/vault.sol\":2305:2339  isSupportedToken[tokenAddr] = true */\n      0x0100\n      exp\n      dup2\n      sload\n      dup2\n      0xff\n      mul\n      not\n      and\n      swap1\n      dup4\n      iszero\n      iszero\n      mul\n      or\n      swap1\n      sstore\n      pop\n        /* \"Evm/core/base/vault.sol\":2367:2376  tokenAddr */\n      dup1\n        /* \"Evm/core/base/vault.sol\":2355:2391  TokenListed(tokenAddr, providerName) */\n      0xffffffffffffffffffffffffffffffffffffffff\n      and\n      0xd57b1148efb91f418a2178fc1fb4ba12f9400a4dc8e71851fd59e85d337c609f\n        /* \"Evm/core/base/vault.sol\":2378:2390  providerName */\n      0x01\n        /* \"Evm/core/base/vault.sol\":2355:2391  TokenListed(tokenAddr, providerName) */\n      mload(0x40)\n      tag_220\n      swap2\n      swap1\n      tag_127\n      jump\t// in\n    tag_220:\n      mload(0x40)\n      dup1\n      swap2\n      sub\n      swap1\n      log2\n        /* \"Evm/core/base/vault.sol\":2240:2399  {... */\n      pop\n        /* \"Evm/core/base/vault.sol\":2182:2399  function listNewToken(string calldata assetName) external {... */\n      pop\n      pop\n      jump\t// out\n        /* \"@openzeppelin/contracts/access/Ownable.sol\":2543:2758  function transferOwnership(address newOwner) public virtual onlyOwner {... */\n    tag_71:\n        /* \"@openzeppelin/contracts/access/Ownable.sol\":1531:1544  _checkOwner() */\n      tag_222\n        /* \"@openzeppelin/contracts/access/Ownable.sol\":1531:1542  _checkOwner */\n      tag_95\n        /* \"@openzeppelin/contracts/access/Ownable.sol\":1531:1544  _checkOwner() */\n      jump\t// in\n    tag_222:\n        /* \"@openzeppelin/contracts/access/Ownable.sol\":2647:2648  0 */\n      0x00\n        /* \"@openzeppelin/contracts/access/Ownable.sol\":2627:2649  newOwner == address(0) */\n      0xffffffffffffffffffffffffffffffffffffffff\n      and\n        /* \"@openzeppelin/contracts/access/Ownable.sol\":2627:2635  newOwner */\n      dup2\n        /* \"@openzeppelin/contracts/access/Ownable.sol\":2627:2649  newOwner == address(0) */\n      0xffffffffffffffffffffffffffffffffffffffff\n      and\n      sub\n        /* \"@openzeppelin/contracts/access/Ownable.sol\":2623:2714  if (newOwner == address(0)) {... */\n      tag_224\n      jumpi\n        /* \"@openzeppelin/contracts/access/Ownable.sol\":2700:2701  0 */\n      0x00\n        /* \"@openzeppelin/contracts/access/Ownable.sol\":2672:2703  OwnableInvalidOwner(address(0)) */\n      mload(0x40)\n      0x1e4fbdf700000000000000000000000000000000000000000000000000000000\n      dup2\n      mstore\n      0x04\n      add\n      tag_225\n      swap2\n      swap1\n      tag_29\n      jump\t// in\n    tag_225:\n      mload(0x40)\n      dup1\n      swap2\n      sub\n      swap1\n      revert\n        /* \"@openzeppelin/contracts/access/Ownable.sol\":2623:2714  if (newOwner == address(0)) {... */\n    tag_224:\n        /* \"@openzeppelin/contracts/access/Ownable.sol\":2723:2751  _transferOwnership(newOwner) */\n      tag_226\n        /* \"@openzeppelin/contracts/access/Ownable.sol\":2742:2750  newOwner */\n      dup2\n        /* \"@openzeppelin/contracts/access/Ownable.sol\":2723:2741  _transferOwnership */\n      tag_98\n        /* \"@openzeppelin/contracts/access/Ownable.sol\":2723:2751  _transferOwnership(newOwner) */\n      jump\t// in\n    tag_226:\n        /* \"@openzeppelin/contracts/access/Ownable.sol\":2543:2758  function transferOwnership(address newOwner) public virtual onlyOwner {... */\n      pop\n      jump\t// out\n        /* \"Evm/core/base/vault.sol\":768:786  uint256 public min */\n    tag_73:\n      sload(0x02)\n      dup2\n      jump\t// out\n        /* \"@openzeppelin/contracts/access/Ownable.sol\":1796:1958  function _checkOwner() internal view virtual {... */\n    tag_95:\n        /* \"@openzeppelin/contracts/access/Ownable.sol\":1866:1878  _msgSender() */\n      tag_228\n        /* \"@openzeppelin/contracts/access/Ownable.sol\":1866:1876  _msgSender */\n      tag_229\n        /* \"@openzeppelin/contracts/access/Ownable.sol\":1866:1878  _msgSender() */\n      jump\t// in\n    tag_228:\n        /* \"@openzeppelin/contracts/access/Ownable.sol\":1855:1878  owner() != _msgSender() */\n      0xffffffffffffffffffffffffffffffffffffffff\n      and\n        /* \"@openzeppelin/contracts/access/Ownable.sol\":1855:1862  owner() */\n      tag_230\n        /* \"@openzeppelin/contracts/access/Ownable.sol\":1855:1860  owner */\n      tag_47\n        /* \"@openzeppelin/contracts/access/Ownable.sol\":1855:1862  owner() */\n      jump\t// in\n    tag_230:\n        /* \"@openzeppelin/contracts/access/Ownable.sol\":1855:1878  owner() != _msgSender() */\n      0xffffffffffffffffffffffffffffffffffffffff\n      and\n      eq\n        /* \"@openzeppelin/contracts/access/Ownable.sol\":1851:1952  if (owner() != _msgSender()) {... */\n      tag_231\n      jumpi\n        /* \"@openzeppelin/contracts/access/Ownable.sol\":1928:1940  _msgSender() */\n      tag_232\n        /* \"@openzeppelin/contracts/access/Ownable.sol\":1928:1938  _msgSender */\n      tag_229\n        /* \"@openzeppelin/contracts/access/Ownable.sol\":1928:1940  _msgSender() */\n      jump\t// in\n    tag_232:\n        /* \"@openzeppelin/contracts/access/Ownable.sol\":1901:1941  OwnableUnauthorizedAccount(_msgSender()) */\n      mload(0x40)\n      0x118cdaa700000000000000000000000000000000000000000000000000000000\n      dup2\n      mstore\n      0x04\n      add\n      tag_233\n      swap2\n      swap1\n      tag_29\n      jump\t// in\n    tag_233:\n      mload(0x40)\n      dup1\n      swap2\n      sub\n      swap1\n      revert\n        /* \"@openzeppelin/contracts/access/Ownable.sol\":1851:1952  if (owner() != _msgSender()) {... */\n    tag_231:\n        /* \"@openzeppelin/contracts/access/Ownable.sol\":1796:1958  function _checkOwner() internal view virtual {... */\n      jump\t// out\n        /* \"@openzeppelin/contracts/access/Ownable.sol\":2912:3099  function _transferOwnership(address newOwner) internal virtual {... */\n    tag_98:\n        /* \"@openzeppelin/contracts/access/Ownable.sol\":2985:3001  address oldOwner */\n      0x00\n        /* \"@openzeppelin/contracts/access/Ownable.sol\":3004:3010  _owner */\n      0x00\n      0x00\n      swap1\n      sload\n      swap1\n      0x0100\n      exp\n      swap1\n      div\n      0xffffffffffffffffffffffffffffffffffffffff\n      and\n        /* \"@openzeppelin/contracts/access/Ownable.sol\":2985:3010  address oldOwner = _owner */\n      swap1\n      pop\n        /* \"@openzeppelin/contracts/access/Ownable.sol\":3029:3037  newOwner */\n      dup2\n        /* \"@openzeppelin/contracts/access/Ownable.sol\":3020:3026  _owner */\n      0x00\n      0x00\n        /* \"@openzeppelin/contracts/access/Ownable.sol\":3020:3037  _owner = newOwner */\n      0x0100\n      exp\n      dup2\n      sload\n      dup2\n      0xffffffffffffffffffffffffffffffffffffffff\n      mul\n      not\n      and\n      swap1\n      dup4\n      0xffffffffffffffffffffffffffffffffffffffff\n      and\n      mul\n      or\n      swap1\n      sstore\n      pop\n        /* \"@openzeppelin/contracts/access/Ownable.sol\":3083:3091  newOwner */\n      dup2\n        /* \"@openzeppelin/contracts/access/Ownable.sol\":3052:3092  OwnershipTransferred(oldOwner, newOwner) */\n      0xffffffffffffffffffffffffffffffffffffffff\n      and\n        /* \"@openzeppelin/contracts/access/Ownable.sol\":3073:3081  oldOwner */\n      dup2\n        /* \"@openzeppelin/contracts/access/Ownable.sol\":3052:3092  OwnershipTransferred(oldOwner, newOwner) */\n      0xffffffffffffffffffffffffffffffffffffffff\n      and\n      0x8be0079c531659141344cd1fd0a4f28419497f9722a3daafe3b4186f6b6457e0\n      mload(0x40)\n      mload(0x40)\n      dup1\n      swap2\n      sub\n      swap1\n      log3\n        /* \"@openzeppelin/contracts/access/Ownable.sol\":2975:3099  {... */\n      pop\n        /* \"@openzeppelin/contracts/access/Ownable.sol\":2912:3099  function _transferOwnership(address newOwner) internal virtual {... */\n      pop\n      jump\t// out\n        /* \"@openzeppelin/contracts/token/ERC20/utils/SafeERC20.sol\":1219:1423  function safeTransfer(IERC20 token, address to, uint256 value) internal {... */\n    tag_107:\n        /* \"@openzeppelin/contracts/token/ERC20/utils/SafeERC20.sol\":1306:1343  _safeTransfer(token, to, value, true) */\n      tag_236\n        /* \"@openzeppelin/contracts/token/ERC20/utils/SafeERC20.sol\":1320:1325  token */\n      dup4\n        /* \"@openzeppelin/contracts/token/ERC20/utils/SafeERC20.sol\":1327:1329  to */\n      dup4\n        /* \"@openzeppelin/contracts/token/ERC20/utils/SafeERC20.sol\":1331:1336  value */\n      dup4\n        /* \"@openzeppelin/contracts/token/ERC20/utils/SafeERC20.sol\":1338:1342  true */\n      0x01\n        /* \"@openzeppelin/contracts/token/ERC20/utils/SafeERC20.sol\":1306:1319  _safeTransfer */\n      tag_237\n        /* \"@openzeppelin/contracts/token/ERC20/utils/SafeERC20.sol\":1306:1343  _safeTransfer(token, to, value, true) */\n      jump\t// in\n    tag_236:\n        /* \"@openzeppelin/contracts/token/ERC20/utils/SafeERC20.sol\":1301:1417  if (!_safeTransfer(token, to, value, true)) {... */\n      tag_238\n      jumpi\n        /* \"@openzeppelin/contracts/token/ERC20/utils/SafeERC20.sol\":1399:1404  token */\n      dup3\n        /* \"@openzeppelin/contracts/token/ERC20/utils/SafeERC20.sol\":1366:1406  SafeERC20FailedOperation(address(token)) */\n      mload(0x40)\n      0x5274afe700000000000000000000000000000000000000000000000000000000\n      dup2\n      mstore\n      0x04\n      add\n      tag_239\n      swap2\n      swap1\n      tag_29\n      jump\t// in\n    tag_239:\n      mload(0x40)\n      dup1\n      swap2\n      sub\n      swap1\n      revert\n        /* \"@openzeppelin/contracts/token/ERC20/utils/SafeERC20.sol\":1301:1417  if (!_safeTransfer(token, to, value, true)) {... */\n    tag_238:\n        /* \"@openzeppelin/contracts/token/ERC20/utils/SafeERC20.sol\":1219:1423  function safeTransfer(IERC20 token, address to, uint256 value) internal {... */\n      pop\n      pop\n      pop\n      jump\t// out\n        /* \"@openzeppelin/contracts/token/ERC20/utils/SafeERC20.sol\":1662:1894  function safeTransferFrom(IERC20 token, address from, address to, uint256 value) internal {... */\n    tag_152:\n        /* \"@openzeppelin/contracts/token/ERC20/utils/SafeERC20.sol\":1767:1814  _safeTransferFrom(token, from, to, value, true) */\n      tag_241\n        /* \"@openzeppelin/contracts/token/ERC20/utils/SafeERC20.sol\":1785:1790  token */\n      dup5\n        /* \"@openzeppelin/contracts/token/ERC20/utils/SafeERC20.sol\":1792:1796  from */\n      dup5\n        /* \"@openzeppelin/contracts/token/ERC20/utils/SafeERC20.sol\":1798:1800  to */\n      dup5\n        /* \"@openzeppelin/contracts/token/ERC20/utils/SafeERC20.sol\":1802:1807  value */\n      dup5\n        /* \"@openzeppelin/contracts/token/ERC20/utils/SafeERC20.sol\":1809:1813  true */\n      0x01\n        /* \"@openzeppelin/contracts/token/ERC20/utils/SafeERC20.sol\":1767:1784  _safeTransferFrom */\n      tag_242\n        /* \"@openzeppelin/contracts/token/ERC20/utils/SafeERC20.sol\":1767:1814  _safeTransferFrom(token, from, to, value, true) */\n      jump\t// in\n    tag_241:\n        /* \"@openzeppelin/contracts/token/ERC20/utils/SafeERC20.sol\":1762:1888  if (!_safeTransferFrom(token, from, to, value, true)) {... */\n      tag_243\n      jumpi\n        /* \"@openzeppelin/contracts/token/ERC20/utils/SafeERC20.sol\":1870:1875  token */\n      dup4\n        /* \"@openzeppelin/contracts/token/ERC20/utils/SafeERC20.sol\":1837:1877  SafeERC20FailedOperation(address(token)) */\n      mload(0x40)\n      0x5274afe700000000000000000000000000000000000000000000000000000000\n      dup2\n      mstore\n      0x04\n      add\n      tag_244\n      swap2\n      swap1\n      tag_29\n      jump\t// in\n    tag_244:\n      mload(0x40)\n      dup1\n      swap2\n      sub\n      swap1\n      revert\n        /* \"@openzeppelin/contracts/token/ERC20/utils/SafeERC20.sol\":1762:1888  if (!_safeTransferFrom(token, from, to, value, true)) {... */\n    tag_243:\n        /* \"@openzeppelin/contracts/token/ERC20/utils/SafeERC20.sol\":1662:1894  function safeTransferFrom(IERC20 token, address from, address to, uint256 value) internal {... */\n      pop\n      pop\n      pop\n      pop\n      jump\t// out\n        /* \"Evm/core/base/vault.sol\":6434:7132  function _getPseudoRandomRange() internal returns (uint256) {... */\n    tag_174:\n        /* \"Evm/core/base/vault.sol\":6485:6492  uint256 */\n      0x00\n        /* \"Evm/core/base/vault.sol\":6520:6523  min */\n      sload(0x02)\n        /* \"Evm/core/base/vault.sol\":6513:6516  max */\n      sload(0x03)\n        /* \"Evm/core/base/vault.sol\":6513:6523  max >= min */\n      lt\n      iszero\n        /* \"Evm/core/base/vault.sol\":6505:6553  require(max >= min, \"Vault: Max must be >= Min\") */\n      tag_246\n      jumpi\n      mload(0x40)\n      0x08c379a000000000000000000000000000000000000000000000000000000000\n      dup2\n      mstore\n      0x04\n      add\n      tag_247\n      swap1\n      tag_248\n      jump\t// in\n    tag_247:\n      mload(0x40)\n      dup1\n      swap2\n      sub\n      swap1\n      revert\n    tag_246:\n        /* \"Evm/core/base/vault.sol\":6634:6651  uint256 rangeSpan */\n      0x00\n        /* \"Evm/core/base/vault.sol\":6666:6667  1 */\n      0x01\n        /* \"Evm/core/base/vault.sol\":6660:6663  min */\n      sload(0x02)\n        /* \"Evm/core/base/vault.sol\":6654:6657  max */\n      sload(0x03)\n        /* \"Evm/core/base/vault.sol\":6654:6663  max - min */\n      tag_249\n      swap2\n      swap1\n      tag_250\n      jump\t// in\n    tag_249:\n        /* \"Evm/core/base/vault.sol\":6654:6667  max - min + 1 */\n      tag_251\n      swap2\n      swap1\n      tag_252\n      jump\t// in\n    tag_251:\n        /* \"Evm/core/base/vault.sol\":6634:6667  uint256 rangeSpan = max - min + 1 */\n      swap1\n      pop\n        /* \"Evm/core/base/vault.sol\":6747:6759  bytes32 hash */\n      0x00\n        /* \"Evm/core/base/vault.sol\":6803:6818  block.timestamp */\n      timestamp\n        /* \"Evm/core/base/vault.sol\":6833:6849  block.prevrandao */\n      prevrandao\n        /* \"Evm/core/base/vault.sol\":6911:6921  msg.sender */\n      caller\n        /* \"Evm/core/base/vault.sol\":6936:6941  nonce */\n      sload(0x04)\n        /* \"Evm/core/base/vault.sol\":6772:6952  abi.encodePacked(... */\n      add(0x20, mload(0x40))\n      tag_253\n      swap5\n      swap4\n      swap3\n      swap2\n      swap1\n      tag_254\n      jump\t// in\n    tag_253:\n      mload(0x40)\n      0x20\n      dup2\n      dup4\n      sub\n      sub\n      dup2\n      mstore\n      swap1\n      0x40\n      mstore\n        /* \"Evm/core/base/vault.sol\":6762:6953  keccak256(abi.encodePacked(... */\n      dup1\n      mload\n      swap1\n      0x20\n      add\n      keccak256\n        /* \"Evm/core/base/vault.sol\":6747:6953  bytes32 hash = keccak256(abi.encodePacked(... */\n      swap1\n      pop\n        /* \"Evm/core/base/vault.sol\":6966:6971  nonce */\n      0x04\n      0x00\n        /* \"Evm/core/base/vault.sol\":6966:6973  nonce++ */\n      dup2\n      sload\n      dup1\n      swap3\n      swap2\n      swap1\n      tag_255\n      swap1\n      tag_256\n      jump\t// in\n    tag_255:\n      swap2\n      swap1\n      pop\n      sstore\n      pop\n        /* \"Evm/core/base/vault.sol\":7114:7123  rangeSpan */\n      dup2\n        /* \"Evm/core/base/vault.sol\":7106:7110  hash */\n      dup2\n        /* \"Evm/core/base/vault.sol\":7098:7111  uint256(hash) */\n      0x00\n      shr\n        /* \"Evm/core/base/vault.sol\":7098:7123  uint256(hash) % rangeSpan */\n      tag_257\n      swap2\n      swap1\n      tag_258\n      jump\t// in\n    tag_257:\n        /* \"Evm/core/base/vault.sol\":7091:7094  min */\n      sload(0x02)\n        /* \"Evm/core/base/vault.sol\":7091:7124  min + (uint256(hash) % rangeSpan) */\n      tag_259\n      swap2\n      swap1\n      tag_252\n      jump\t// in\n    tag_259:\n        /* \"Evm/core/base/vault.sol\":7084:7124  return min + (uint256(hash) % rangeSpan) */\n      swap3\n      pop\n      pop\n      pop\n        /* \"Evm/core/base/vault.sol\":6434:7132  function _getPseudoRandomRange() internal returns (uint256) {... */\n      swap1\n      jump\t// out\n        /* \"@openzeppelin/contracts/utils/Context.sol\":656:752  function _msgSender() internal view virtual returns (address) {... */\n    tag_229:\n        /* \"@openzeppelin/contracts/utils/Context.sol\":709:716  address */\n      0x00\n        /* \"@openzeppelin/contracts/utils/Context.sol\":735:745  msg.sender */\n      caller\n        /* \"@openzeppelin/contracts/utils/Context.sol\":728:745  return msg.sender */\n      swap1\n      pop\n        /* \"@openzeppelin/contracts/utils/Context.sol\":656:752  function _msgSender() internal view virtual returns (address) {... */\n      swap1\n      jump\t// out\n        /* \"@openzeppelin/contracts/token/ERC20/utils/SafeERC20.sol\":8373:9617  function _safeTransfer(IERC20 token, address to, uint256 value, bool bubble) private returns (bool success) {... */\n    tag_237:\n        /* \"@openzeppelin/contracts/token/ERC20/utils/SafeERC20.sol\":8467:8479  bool success */\n      0x00\n        /* \"@openzeppelin/contracts/token/ERC20/utils/SafeERC20.sol\":8491:8506  bytes4 selector */\n      0x00\n        /* \"@openzeppelin/contracts/token/ERC20/utils/SafeERC20.sol\":8509:8533  IERC20.transfer.selector */\n      shl(0xe0, 0xa9059cbb)\n        /* \"@openzeppelin/contracts/token/ERC20/utils/SafeERC20.sol\":8491:8533  bytes4 selector = IERC20.transfer.selector */\n      swap1\n      pop\n        /* \"@openzeppelin/contracts/token/ERC20/utils/SafeERC20.sol\":8600:8604  0x40 */\n      0x40\n        /* \"@openzeppelin/contracts/token/ERC20/utils/SafeERC20.sol\":8594:8605  mload(0x40) */\n      mload\n        /* \"@openzeppelin/contracts/token/ERC20/utils/SafeERC20.sol\":8631:8639  selector */\n      dup2\n        /* \"@openzeppelin/contracts/token/ERC20/utils/SafeERC20.sol\":8625:8629  0x00 */\n      0x00\n        /* \"@openzeppelin/contracts/token/ERC20/utils/SafeERC20.sol\":8618:8640  mstore(0x00, selector) */\n      mstore\n        /* \"@openzeppelin/contracts/token/ERC20/utils/SafeERC20.sol\":8686:8687  0 */\n      0x00\n        /* \"@openzeppelin/contracts/token/ERC20/utils/SafeERC20.sol\":8682:8688  not(0) */\n      not\n        /* \"@openzeppelin/contracts/token/ERC20/utils/SafeERC20.sol\":8678:8680  96 */\n      0x60\n        /* \"@openzeppelin/contracts/token/ERC20/utils/SafeERC20.sol\":8674:8689  shr(96, not(0)) */\n      shr\n        /* \"@openzeppelin/contracts/token/ERC20/utils/SafeERC20.sol\":8670:8672  to */\n      dup7\n        /* \"@openzeppelin/contracts/token/ERC20/utils/SafeERC20.sol\":8666:8690  and(to, shr(96, not(0))) */\n      and\n        /* \"@openzeppelin/contracts/token/ERC20/utils/SafeERC20.sol\":8660:8664  0x04 */\n      0x04\n        /* \"@openzeppelin/contracts/token/ERC20/utils/SafeERC20.sol\":8653:8691  mstore(0x04, and(to, shr(96, not(0)))) */\n      mstore\n        /* \"@openzeppelin/contracts/token/ERC20/utils/SafeERC20.sol\":8717:8722  value */\n      dup5\n        /* \"@openzeppelin/contracts/token/ERC20/utils/SafeERC20.sol\":8711:8715  0x24 */\n      0x24\n        /* \"@openzeppelin/contracts/token/ERC20/utils/SafeERC20.sol\":8704:8723  mstore(0x24, value) */\n      mstore\n        /* \"@openzeppelin/contracts/token/ERC20/utils/SafeERC20.sol\":8787:8791  0x20 */\n      0x20\n        /* \"@openzeppelin/contracts/token/ERC20/utils/SafeERC20.sol\":8781:8785  0x00 */\n      0x00\n        /* \"@openzeppelin/contracts/token/ERC20/utils/SafeERC20.sol\":8775:8779  0x44 */\n      0x44\n        /* \"@openzeppelin/contracts/token/ERC20/utils/SafeERC20.sol\":8769:8773  0x00 */\n      0x00\n        /* \"@openzeppelin/contracts/token/ERC20/utils/SafeERC20.sol\":8766:8767  0 */\n      0x00\n        /* \"@openzeppelin/contracts/token/ERC20/utils/SafeERC20.sol\":8759:8764  token */\n      dup12\n        /* \"@openzeppelin/contracts/token/ERC20/utils/SafeERC20.sol\":8752:8757  gas() */\n      gas\n        /* \"@openzeppelin/contracts/token/ERC20/utils/SafeERC20.sol\":8747:8792  call(gas(), token, 0, 0x00, 0x44, 0x00, 0x20) */\n      call\n        /* \"@openzeppelin/contracts/token/ERC20/utils/SafeERC20.sol\":8736:8792  success := call(gas(), token, 0, 0x00, 0x44, 0x00, 0x20) */\n      swap3\n      pop\n        /* \"@openzeppelin/contracts/token/ERC20/utils/SafeERC20.sol\":9004:9005  1 */\n      0x01\n        /* \"@openzeppelin/contracts/token/ERC20/utils/SafeERC20.sol\":8997:9001  0x00 */\n      0x00\n        /* \"@openzeppelin/contracts/token/ERC20/utils/SafeERC20.sol\":8991:9002  mload(0x00) */\n      mload\n        /* \"@openzeppelin/contracts/token/ERC20/utils/SafeERC20.sol\":8988:9006  eq(mload(0x00), 1) */\n      eq\n        /* \"@openzeppelin/contracts/token/ERC20/utils/SafeERC20.sol\":8979:8986  success */\n      dup4\n        /* \"@openzeppelin/contracts/token/ERC20/utils/SafeERC20.sol\":8975:9007  and(success, eq(mload(0x00), 1)) */\n      and\n        /* \"@openzeppelin/contracts/token/ERC20/utils/SafeERC20.sol\":8965:9571  if iszero(and(success, eq(mload(0x00), 1))) {... */\n      tag_262\n      jumpi\n        /* \"@openzeppelin/contracts/token/ERC20/utils/SafeERC20.sol\":9136:9142  bubble */\n      dup4\n        /* \"@openzeppelin/contracts/token/ERC20/utils/SafeERC20.sol\":9126:9133  success */\n      dup4\n        /* \"@openzeppelin/contracts/token/ERC20/utils/SafeERC20.sol\":9119:9134  iszero(success) */\n      iszero\n        /* \"@openzeppelin/contracts/token/ERC20/utils/SafeERC20.sol\":9115:9143  and(iszero(success), bubble) */\n      and\n        /* \"@openzeppelin/contracts/token/ERC20/utils/SafeERC20.sol\":9112:9277  if and(iszero(success), bubble) {... */\n      iszero\n      tag_263\n      jumpi\n        /* \"@openzeppelin/contracts/token/ERC20/utils/SafeERC20.sol\":9192:9208  returndatasize() */\n      returndatasize\n        /* \"@openzeppelin/contracts/token/ERC20/utils/SafeERC20.sol\":9186:9190  0x00 */\n      0x00\n        /* \"@openzeppelin/contracts/token/ERC20/utils/SafeERC20.sol\":9181:9184  fmp */\n      dup3\n        /* \"@openzeppelin/contracts/token/ERC20/utils/SafeERC20.sol\":9166:9209  returndatacopy(fmp, 0x00, returndatasize()) */\n      returndatacopy\n        /* \"@openzeppelin/contracts/token/ERC20/utils/SafeERC20.sol\":9242:9258  returndatasize() */\n      returndatasize\n        /* \"@openzeppelin/contracts/token/ERC20/utils/SafeERC20.sol\":9237:9240  fmp */\n      dup2\n        /* \"@openzeppelin/contracts/token/ERC20/utils/SafeERC20.sol\":9230:9259  revert(fmp, returndatasize()) */\n      revert\n        /* \"@openzeppelin/contracts/token/ERC20/utils/SafeERC20.sol\":9112:9277  if and(iszero(success), bubble) {... */\n    tag_263:\n        /* \"@openzeppelin/contracts/token/ERC20/utils/SafeERC20.sol\":9553:9554  0 */\n      0x00\n        /* \"@openzeppelin/contracts/token/ERC20/utils/SafeERC20.sol\":9545:9550  token */\n      dup8\n        /* \"@openzeppelin/contracts/token/ERC20/utils/SafeERC20.sol\":9533:9551  extcodesize(token) */\n      extcodesize\n        /* \"@openzeppelin/contracts/token/ERC20/utils/SafeERC20.sol\":9530:9555  gt(extcodesize(token), 0) */\n      gt\n        /* \"@openzeppelin/contracts/token/ERC20/utils/SafeERC20.sol\":9511:9527  returndatasize() */\n      returndatasize\n        /* \"@openzeppelin/contracts/token/ERC20/utils/SafeERC20.sol\":9504:9528  iszero(returndatasize()) */\n      iszero\n        /* \"@openzeppelin/contracts/token/ERC20/utils/SafeERC20.sol\":9500:9556  and(iszero(returndatasize()), gt(extcodesize(token), 0)) */\n      and\n        /* \"@openzeppelin/contracts/token/ERC20/utils/SafeERC20.sol\":9491:9498  success */\n      dup4\n        /* \"@openzeppelin/contracts/token/ERC20/utils/SafeERC20.sol\":9487:9557  and(success, and(iszero(returndatasize()), gt(extcodesize(token), 0))) */\n      and\n        /* \"@openzeppelin/contracts/token/ERC20/utils/SafeERC20.sol\":9476:9557  success := and(success, and(iszero(returndatasize()), gt(extcodesize(token), 0))) */\n      swap3\n      pop\n        /* \"@openzeppelin/contracts/token/ERC20/utils/SafeERC20.sol\":8965:9571  if iszero(and(success, eq(mload(0x00), 1))) {... */\n    tag_262:\n        /* \"@openzeppelin/contracts/token/ERC20/utils/SafeERC20.sol\":9597:9600  fmp */\n      dup1\n        /* \"@openzeppelin/contracts/token/ERC20/utils/SafeERC20.sol\":9591:9595  0x40 */\n      0x40\n        /* \"@openzeppelin/contracts/token/ERC20/utils/SafeERC20.sol\":9584:9601  mstore(0x40, fmp) */\n      mstore\n        /* \"@openzeppelin/contracts/token/ERC20/utils/SafeERC20.sol\":8569:9611  {... */\n      pop\n      pop\n        /* \"@openzeppelin/contracts/token/ERC20/utils/SafeERC20.sol\":8373:9617  function _safeTransfer(IERC20 token, address to, uint256 value, bool bubble) private returns (bool success) {... */\n      swap5\n      swap4\n      pop\n      pop\n      pop\n      pop\n      jump\t// out\n        /* \"@openzeppelin/contracts/token/ERC20/utils/SafeERC20.sol\":10165:11558  function _safeTransferFrom(... */\n    tag_242:\n        /* \"@openzeppelin/contracts/token/ERC20/utils/SafeERC20.sol\":10323:10335  bool success */\n      0x00\n        /* \"@openzeppelin/contracts/token/ERC20/utils/SafeERC20.sol\":10347:10362  bytes4 selector */\n      0x00\n        /* \"@openzeppelin/contracts/token/ERC20/utils/SafeERC20.sol\":10365:10393  IERC20.transferFrom.selector */\n      shl(0xe0, 0x23b872dd)\n        /* \"@openzeppelin/contracts/token/ERC20/utils/SafeERC20.sol\":10347:10393  bytes4 selector = IERC20.transferFrom.selector */\n      swap1\n      pop\n        /* \"@openzeppelin/contracts/token/ERC20/utils/SafeERC20.sol\":10460:10464  0x40 */\n      0x40\n        /* \"@openzeppelin/contracts/token/ERC20/utils/SafeERC20.sol\":10454:10465  mload(0x40) */\n      mload\n        /* \"@openzeppelin/contracts/token/ERC20/utils/SafeERC20.sol\":10491:10499  selector */\n      dup2\n        /* \"@openzeppelin/contracts/token/ERC20/utils/SafeERC20.sol\":10485:10489  0x00 */\n      0x00\n        /* \"@openzeppelin/contracts/token/ERC20/utils/SafeERC20.sol\":10478:10500  mstore(0x00, selector) */\n      mstore\n        /* \"@openzeppelin/contracts/token/ERC20/utils/SafeERC20.sol\":10548:10549  0 */\n      0x00\n        /* \"@openzeppelin/contracts/token/ERC20/utils/SafeERC20.sol\":10544:10550  not(0) */\n      not\n        /* \"@openzeppelin/contracts/token/ERC20/utils/SafeERC20.sol\":10540:10542  96 */\n      0x60\n        /* \"@openzeppelin/contracts/token/ERC20/utils/SafeERC20.sol\":10536:10551  shr(96, not(0)) */\n      shr\n        /* \"@openzeppelin/contracts/token/ERC20/utils/SafeERC20.sol\":10530:10534  from */\n      dup8\n        /* \"@openzeppelin/contracts/token/ERC20/utils/SafeERC20.sol\":10526:10552  and(from, shr(96, not(0))) */\n      and\n        /* \"@openzeppelin/contracts/token/ERC20/utils/SafeERC20.sol\":10520:10524  0x04 */\n      0x04\n        /* \"@openzeppelin/contracts/token/ERC20/utils/SafeERC20.sol\":10513:10553  mstore(0x04, and(from, shr(96, not(0)))) */\n      mstore\n        /* \"@openzeppelin/contracts/token/ERC20/utils/SafeERC20.sol\":10599:10600  0 */\n      0x00\n        /* \"@openzeppelin/contracts/token/ERC20/utils/SafeERC20.sol\":10595:10601  not(0) */\n      not\n        /* \"@openzeppelin/contracts/token/ERC20/utils/SafeERC20.sol\":10591:10593  96 */\n      0x60\n        /* \"@openzeppelin/contracts/token/ERC20/utils/SafeERC20.sol\":10587:10602  shr(96, not(0)) */\n      shr\n        /* \"@openzeppelin/contracts/token/ERC20/utils/SafeERC20.sol\":10583:10585  to */\n      dup7\n        /* \"@openzeppelin/contracts/token/ERC20/utils/SafeERC20.sol\":10579:10603  and(to, shr(96, not(0))) */\n      and\n        /* \"@openzeppelin/contracts/token/ERC20/utils/SafeERC20.sol\":10573:10577  0x24 */\n      0x24\n        /* \"@openzeppelin/contracts/token/ERC20/utils/SafeERC20.sol\":10566:10604  mstore(0x24, and(to, shr(96, not(0)))) */\n      mstore\n        /* \"@openzeppelin/contracts/token/ERC20/utils/SafeERC20.sol\":10630:10635  value */\n      dup5\n        /* \"@openzeppelin/contracts/token/ERC20/utils/SafeERC20.sol\":10624:10628  0x44 */\n      0x44\n        /* \"@openzeppelin/contracts/token/ERC20/utils/SafeERC20.sol\":10617:10636  mstore(0x44, value) */\n      mstore\n        /* \"@openzeppelin/contracts/token/ERC20/utils/SafeERC20.sol\":10700:10704  0x20 */\n      0x20\n        /* \"@openzeppelin/contracts/token/ERC20/utils/SafeERC20.sol\":10694:10698  0x00 */\n      0x00\n        /* \"@openzeppelin/contracts/token/ERC20/utils/SafeERC20.sol\":10688:10692  0x64 */\n      0x64\n        /* \"@openzeppelin/contracts/token/ERC20/utils/SafeERC20.sol\":10682:10686  0x00 */\n      0x00\n        /* \"@openzeppelin/contracts/token/ERC20/utils/SafeERC20.sol\":10679:10680  0 */\n      0x00\n        /* \"@openzeppelin/contracts/token/ERC20/utils/SafeERC20.sol\":10672:10677  token */\n      dup13\n        /* \"@openzeppelin/contracts/token/ERC20/utils/SafeERC20.sol\":10665:10670  gas() */\n      gas\n        /* \"@openzeppelin/contracts/token/ERC20/utils/SafeERC20.sol\":10660:10705  call(gas(), token, 0, 0x00, 0x64, 0x00, 0x20) */\n      call\n        /* \"@openzeppelin/contracts/token/ERC20/utils/SafeERC20.sol\":10649:10705  success := call(gas(), token, 0, 0x00, 0x64, 0x00, 0x20) */\n      swap3\n      pop\n        /* \"@openzeppelin/contracts/token/ERC20/utils/SafeERC20.sol\":10917:10918  1 */\n      0x01\n        /* \"@openzeppelin/contracts/token/ERC20/utils/SafeERC20.sol\":10910:10914  0x00 */\n      0x00\n        /* \"@openzeppelin/contracts/token/ERC20/utils/SafeERC20.sol\":10904:10915  mload(0x00) */\n      mload\n        /* \"@openzeppelin/contracts/token/ERC20/utils/SafeERC20.sol\":10901:10919  eq(mload(0x00), 1) */\n      eq\n        /* \"@openzeppelin/contracts/token/ERC20/utils/SafeERC20.sol\":10892:10899  success */\n      dup4\n        /* \"@openzeppelin/contracts/token/ERC20/utils/SafeERC20.sol\":10888:10920  and(success, eq(mload(0x00), 1)) */\n      and\n        /* \"@openzeppelin/contracts/token/ERC20/utils/SafeERC20.sol\":10878:11484  if iszero(and(success, eq(mload(0x00), 1))) {... */\n      tag_265\n      jumpi\n        /* \"@openzeppelin/contracts/token/ERC20/utils/SafeERC20.sol\":11049:11055  bubble */\n      dup4\n        /* \"@openzeppelin/contracts/token/ERC20/utils/SafeERC20.sol\":11039:11046  success */\n      dup4\n        /* \"@openzeppelin/contracts/token/ERC20/utils/SafeERC20.sol\":11032:11047  iszero(success) */\n      iszero\n        /* \"@openzeppelin/contracts/token/ERC20/utils/SafeERC20.sol\":11028:11056  and(iszero(success), bubble) */\n      and\n        /* \"@openzeppelin/contracts/token/ERC20/utils/SafeERC20.sol\":11025:11190  if and(iszero(success), bubble) {... */\n      iszero\n      tag_266\n      jumpi\n        /* \"@openzeppelin/contracts/token/ERC20/utils/SafeERC20.sol\":11105:11121  returndatasize() */\n      returndatasize\n        /* \"@openzeppelin/contracts/token/ERC20/utils/SafeERC20.sol\":11099:11103  0x00 */\n      0x00\n        /* \"@openzeppelin/contracts/token/ERC20/utils/SafeERC20.sol\":11094:11097  fmp */\n      dup3\n        /* \"@openzeppelin/contracts/token/ERC20/utils/SafeERC20.sol\":11079:11122  returndatacopy(fmp, 0x00, returndatasize()) */\n      returndatacopy\n        /* \"@openzeppelin/contracts/token/ERC20/utils/SafeERC20.sol\":11155:11171  returndatasize() */\n      returndatasize\n        /* \"@openzeppelin/contracts/token/ERC20/utils/SafeERC20.sol\":11150:11153  fmp */\n      dup2\n        /* \"@openzeppelin/contracts/token/ERC20/utils/SafeERC20.sol\":11143:11172  revert(fmp, returndatasize()) */\n      revert\n        /* \"@openzeppelin/contracts/token/ERC20/utils/SafeERC20.sol\":11025:11190  if and(iszero(success), bubble) {... */\n    tag_266:\n        /* \"@openzeppelin/contracts/token/ERC20/utils/SafeERC20.sol\":11466:11467  0 */\n      0x00\n        /* \"@openzeppelin/contracts/token/ERC20/utils/SafeERC20.sol\":11458:11463  token */\n      dup9\n        /* \"@openzeppelin/contracts/token/ERC20/utils/SafeERC20.sol\":11446:11464  extcodesize(token) */\n      extcodesize\n        /* \"@openzeppelin/contracts/token/ERC20/utils/SafeERC20.sol\":11443:11468  gt(extcodesize(token), 0) */\n      gt\n        /* \"@openzeppelin/contracts/token/ERC20/utils/SafeERC20.sol\":11424:11440  returndatasize() */\n      returndatasize\n        /* \"@openzeppelin/contracts/token/ERC20/utils/SafeERC20.sol\":11417:11441  iszero(returndatasize()) */\n      iszero\n        /* \"@openzeppelin/contracts/token/ERC20/utils/SafeERC20.sol\":11413:11469  and(iszero(returndatasize()), gt(extcodesize(token), 0)) */\n      and\n        /* \"@openzeppelin/contracts/token/ERC20/utils/SafeERC20.sol\":11404:11411  success */\n      dup4\n        /* \"@openzeppelin/contracts/token/ERC20/utils/SafeERC20.sol\":11400:11470  and(success, and(iszero(returndatasize()), gt(extcodesize(token), 0))) */\n      and\n        /* \"@openzeppelin/contracts/token/ERC20/utils/SafeERC20.sol\":11389:11470  success := and(success, and(iszero(returndatasize()), gt(extcodesize(token), 0))) */\n      swap3\n      pop\n        /* \"@openzeppelin/contracts/token/ERC20/utils/SafeERC20.sol\":10878:11484  if iszero(and(success, eq(mload(0x00), 1))) {... */\n    tag_265:\n        /* \"@openzeppelin/contracts/token/ERC20/utils/SafeERC20.sol\":11510:11513  fmp */\n      dup1\n        /* \"@openzeppelin/contracts/token/ERC20/utils/SafeERC20.sol\":11504:11508  0x40 */\n      0x40\n        /* \"@openzeppelin/contracts/token/ERC20/utils/SafeERC20.sol\":11497:11514  mstore(0x40, fmp) */\n      mstore\n        /* \"@openzeppelin/contracts/token/ERC20/utils/SafeERC20.sol\":11540:11541  0 */\n      0x00\n        /* \"@openzeppelin/contracts/token/ERC20/utils/SafeERC20.sol\":11534:11538  0x60 */\n      0x60\n        /* \"@openzeppelin/contracts/token/ERC20/utils/SafeERC20.sol\":11527:11542  mstore(0x60, 0) */\n      mstore\n        /* \"@openzeppelin/contracts/token/ERC20/utils/SafeERC20.sol\":10429:11552  {... */\n      pop\n      pop\n        /* \"@openzeppelin/contracts/token/ERC20/utils/SafeERC20.sol\":10165:11558  function _safeTransferFrom(... */\n      swap6\n      swap5\n      pop\n      pop\n      pop\n      pop\n      pop\n      jump\t// out\n    tag_114:\n      mload(0x40)\n      dup1\n      0x60\n      add\n      0x40\n      mstore\n      dup1\n      0x60\n      dup2\n      mstore\n      0x20\n      add\n      0x60\n      dup2\n      mstore\n      0x20\n      add\n      0x60\n      dup2\n      mstore\n      pop\n      swap1\n      jump\t// out\n        /* \"#utility.yul\":7:106   */\n    tag_267:\n        /* \"#utility.yul\":59:65   */\n      0x00\n        /* \"#utility.yul\":93:98   */\n      dup2\n        /* \"#utility.yul\":87:99   */\n      mload\n        /* \"#utility.yul\":77:99   */\n      swap1\n      pop\n        /* \"#utility.yul\":7:106   */\n      swap2\n      swap1\n      pop\n      jump\t// out\n        /* \"#utility.yul\":112:281   */\n    tag_268:\n        /* \"#utility.yul\":196:207   */\n      0x00\n        /* \"#utility.yul\":230:236   */\n      dup3\n        /* \"#utility.yul\":225:228   */\n      dup3\n        /* \"#utility.yul\":218:237   */\n      mstore\n        /* \"#utility.yul\":270:274   */\n      0x20\n        /* \"#utility.yul\":265:268   */\n      dup3\n        /* \"#utility.yul\":261:275   */\n      add\n        /* \"#utility.yul\":246:275   */\n      swap1\n      pop\n        /* \"#utility.yul\":112:281   */\n      swap3\n      swap2\n      pop\n      pop\n      jump\t// out\n        /* \"#utility.yul\":287:426   */\n    tag_269:\n        /* \"#utility.yul\":376:382   */\n      dup3\n        /* \"#utility.yul\":371:374   */\n      dup2\n        /* \"#utility.yul\":366:369   */\n      dup4\n        /* \"#utility.yul\":360:383   */\n      mcopy\n        /* \"#utility.yul\":417:418   */\n      0x00\n        /* \"#utility.yul\":408:414   */\n      dup4\n        /* \"#utility.yul\":403:406   */\n      dup4\n        /* \"#utility.yul\":399:415   */\n      add\n        /* \"#utility.yul\":392:419   */\n      mstore\n        /* \"#utility.yul\":287:426   */\n      pop\n      pop\n      pop\n      jump\t// out\n        /* \"#utility.yul\":432:534   */\n    tag_270:\n        /* \"#utility.yul\":473:479   */\n      0x00\n        /* \"#utility.yul\":524:526   */\n      0x1f\n        /* \"#utility.yul\":520:527   */\n      not\n        /* \"#utility.yul\":515:517   */\n      0x1f\n        /* \"#utility.yul\":508:513   */\n      dup4\n        /* \"#utility.yul\":504:518   */\n      add\n        /* \"#utility.yul\":500:528   */\n      and\n        /* \"#utility.yul\":490:528   */\n      swap1\n      pop\n        /* \"#utility.yul\":432:534   */\n      swap2\n      swap1\n      pop\n      jump\t// out\n        /* \"#utility.yul\":540:917   */\n    tag_271:\n        /* \"#utility.yul\":628:631   */\n      0x00\n        /* \"#utility.yul\":656:695   */\n      tag_363\n        /* \"#utility.yul\":689:694   */\n      dup3\n        /* \"#utility.yul\":656:695   */\n      tag_267\n      jump\t// in\n    tag_363:\n        /* \"#utility.yul\":711:782   */\n      tag_364\n        /* \"#utility.yul\":775:781   */\n      dup2\n        /* \"#utility.yul\":770:773   */\n      dup6\n        /* \"#utility.yul\":711:782   */\n      tag_268\n      jump\t// in\n    tag_364:\n        /* \"#utility.yul\":704:782   */\n      swap4\n      pop\n        /* \"#utility.yul\":791:856   */\n      tag_365\n        /* \"#utility.yul\":849:855   */\n      dup2\n        /* \"#utility.yul\":844:847   */\n      dup6\n        /* \"#utility.yul\":837:841   */\n      0x20\n        /* \"#utility.yul\":830:835   */\n      dup7\n        /* \"#utility.yul\":826:842   */\n      add\n        /* \"#utility.yul\":791:856   */\n      tag_269\n      jump\t// in\n    tag_365:\n        /* \"#utility.yul\":881:910   */\n      tag_366\n        /* \"#utility.yul\":903:909   */\n      dup2\n        /* \"#utility.yul\":881:910   */\n      tag_270\n      jump\t// in\n    tag_366:\n        /* \"#utility.yul\":876:879   */\n      dup5\n        /* \"#utility.yul\":872:911   */\n      add\n        /* \"#utility.yul\":865:911   */\n      swap2\n      pop\n        /* \"#utility.yul\":632:917   */\n      pop\n        /* \"#utility.yul\":540:917   */\n      swap3\n      swap2\n      pop\n      pop\n      jump\t// out\n        /* \"#utility.yul\":923:1236   */\n    tag_23:\n        /* \"#utility.yul\":1036:1040   */\n      0x00\n        /* \"#utility.yul\":1074:1076   */\n      0x20\n        /* \"#utility.yul\":1063:1072   */\n      dup3\n        /* \"#utility.yul\":1059:1077   */\n      add\n        /* \"#utility.yul\":1051:1077   */\n      swap1\n      pop\n        /* \"#utility.yul\":1123:1132   */\n      dup2\n        /* \"#utility.yul\":1117:1121   */\n      dup2\n        /* \"#utility.yul\":1113:1133   */\n      sub\n        /* \"#utility.yul\":1109:1110   */\n      0x00\n        /* \"#utility.yul\":1098:1107   */\n      dup4\n        /* \"#utility.yul\":1094:1111   */\n      add\n        /* \"#utility.yul\":1087:1134   */\n      mstore\n        /* \"#utility.yul\":1151:1229   */\n      tag_368\n        /* \"#utility.yul\":1224:1228   */\n      dup2\n        /* \"#utility.yul\":1215:1221   */\n      dup5\n        /* \"#utility.yul\":1151:1229   */\n      tag_271\n      jump\t// in\n    tag_368:\n        /* \"#utility.yul\":1143:1229   */\n      swap1\n      pop\n        /* \"#utility.yul\":923:1236   */\n      swap3\n      swap2\n      pop\n      pop\n      jump\t// out\n        /* \"#utility.yul\":1242:1317   */\n    tag_272:\n        /* \"#utility.yul\":1275:1281   */\n      0x00\n        /* \"#utility.yul\":1308:1310   */\n      0x40\n        /* \"#utility.yul\":1302:1311   */\n      mload\n        /* \"#utility.yul\":1292:1311   */\n      swap1\n      pop\n        /* \"#utility.yul\":1242:1317   */\n      swap1\n      jump\t// out\n        /* \"#utility.yul\":1323:1440   */\n    tag_273:\n        /* \"#utility.yul\":1432:1433   */\n      0x00\n        /* \"#utility.yul\":1429:1430   */\n      0x00\n        /* \"#utility.yul\":1422:1434   */\n      revert\n        /* \"#utility.yul\":1446:1563   */\n    tag_274:\n        /* \"#utility.yul\":1555:1556   */\n      0x00\n        /* \"#utility.yul\":1552:1553   */\n      0x00\n        /* \"#utility.yul\":1545:1557   */\n      revert\n        /* \"#utility.yul\":1569:1686   */\n    tag_275:\n        /* \"#utility.yul\":1678:1679   */\n      0x00\n        /* \"#utility.yul\":1675:1676   */\n      0x00\n        /* \"#utility.yul\":1668:1680   */\n      revert\n        /* \"#utility.yul\":1692:1809   */\n    tag_276:\n        /* \"#utility.yul\":1801:1802   */\n      0x00\n        /* \"#utility.yul\":1798:1799   */\n      0x00\n        /* \"#utility.yul\":1791:1803   */\n      revert\n        /* \"#utility.yul\":1815:1995   */\n    tag_110:\n        /* \"#utility.yul\":1863:1940   */\n      0x4e487b7100000000000000000000000000000000000000000000000000000000\n        /* \"#utility.yul\":1860:1861   */\n      0x00\n        /* \"#utility.yul\":1853:1941   */\n      mstore\n        /* \"#utility.yul\":1960:1964   */\n      0x41\n        /* \"#utility.yul\":1957:1958   */\n      0x04\n        /* \"#utility.yul\":1950:1965   */\n      mstore\n        /* \"#utility.yul\":1984:1988   */\n      0x24\n        /* \"#utility.yul\":1981:1982   */\n      0x00\n        /* \"#utility.yul\":1974:1989   */\n      revert\n        /* \"#utility.yul\":2001:2282   */\n    tag_277:\n        /* \"#utility.yul\":2084:2111   */\n      tag_376\n        /* \"#utility.yul\":2106:2110   */\n      dup3\n        /* \"#utility.yul\":2084:2111   */\n      tag_270\n      jump\t// in\n    tag_376:\n        /* \"#utility.yul\":2076:2082   */\n      dup2\n        /* \"#utility.yul\":2072:2112   */\n      add\n        /* \"#utility.yul\":2214:2220   */\n      dup2\n        /* \"#utility.yul\":2202:2212   */\n      dup2\n        /* \"#utility.yul\":2199:2221   */\n      lt\n        /* \"#utility.yul\":2178:2196   */\n      0xffffffffffffffff\n        /* \"#utility.yul\":2166:2176   */\n      dup3\n        /* \"#utility.yul\":2163:2197   */\n      gt\n        /* \"#utility.yul\":2160:2222   */\n      or\n        /* \"#utility.yul\":2157:2245   */\n      iszero\n      tag_377\n      jumpi\n        /* \"#utility.yul\":2225:2243   */\n      tag_378\n      tag_110\n      jump\t// in\n    tag_378:\n        /* \"#utility.yul\":2157:2245   */\n    tag_377:\n        /* \"#utility.yul\":2265:2275   */\n      dup1\n        /* \"#utility.yul\":2261:2263   */\n      0x40\n        /* \"#utility.yul\":2254:2276   */\n      mstore\n        /* \"#utility.yul\":2044:2282   */\n      pop\n        /* \"#utility.yul\":2001:2282   */\n      pop\n      pop\n      jump\t// out\n        /* \"#utility.yul\":2288:2417   */\n    tag_278:\n        /* \"#utility.yul\":2322:2328   */\n      0x00\n        /* \"#utility.yul\":2349:2369   */\n      tag_380\n      tag_272\n      jump\t// in\n    tag_380:\n        /* \"#utility.yul\":2339:2369   */\n      swap1\n      pop\n        /* \"#utility.yul\":2378:2411   */\n      tag_381\n        /* \"#utility.yul\":2406:2410   */\n      dup3\n        /* \"#utility.yul\":2398:2404   */\n      dup3\n        /* \"#utility.yul\":2378:2411   */\n      tag_277\n      jump\t// in\n    tag_381:\n        /* \"#utility.yul\":2288:2417   */\n      swap2\n      swap1\n      pop\n      jump\t// out\n        /* \"#utility.yul\":2423:2731   */\n    tag_279:\n        /* \"#utility.yul\":2485:2489   */\n      0x00\n        /* \"#utility.yul\":2575:2593   */\n      0xffffffffffffffff\n        /* \"#utility.yul\":2567:2573   */\n      dup3\n        /* \"#utility.yul\":2564:2594   */\n      gt\n        /* \"#utility.yul\":2561:2617   */\n      iszero\n      tag_383\n      jumpi\n        /* \"#utility.yul\":2597:2615   */\n      tag_384\n      tag_110\n      jump\t// in\n    tag_384:\n        /* \"#utility.yul\":2561:2617   */\n    tag_383:\n        /* \"#utility.yul\":2635:2664   */\n      tag_385\n        /* \"#utility.yul\":2657:2663   */\n      dup3\n        /* \"#utility.yul\":2635:2664   */\n      tag_270\n      jump\t// in\n    tag_385:\n        /* \"#utility.yul\":2627:2664   */\n      swap1\n      pop\n        /* \"#utility.yul\":2719:2723   */\n      0x20\n        /* \"#utility.yul\":2713:2717   */\n      dup2\n        /* \"#utility.yul\":2709:2724   */\n      add\n        /* \"#utility.yul\":2701:2724   */\n      swap1\n      pop\n        /* \"#utility.yul\":2423:2731   */\n      swap2\n      swap1\n      pop\n      jump\t// out\n        /* \"#utility.yul\":2737:2885   */\n    tag_280:\n        /* \"#utility.yul\":2835:2841   */\n      dup3\n        /* \"#utility.yul\":2830:2833   */\n      dup2\n        /* \"#utility.yul\":2825:2828   */\n      dup4\n        /* \"#utility.yul\":2812:2842   */\n      calldatacopy\n        /* \"#utility.yul\":2876:2877   */\n      0x00\n        /* \"#utility.yul\":2867:2873   */\n      dup4\n        /* \"#utility.yul\":2862:2865   */\n      dup4\n        /* \"#utility.yul\":2858:2874   */\n      add\n        /* \"#utility.yul\":2851:2878   */\n      mstore\n        /* \"#utility.yul\":2737:2885   */\n      pop\n      pop\n      pop\n      jump\t// out\n        /* \"#utility.yul\":2891:3316   */\n    tag_281:\n        /* \"#utility.yul\":2969:2974   */\n      0x00\n        /* \"#utility.yul\":2994:3060   */\n      tag_388\n        /* \"#utility.yul\":3010:3059   */\n      tag_389\n        /* \"#utility.yul\":3052:3058   */\n      dup5\n        /* \"#utility.yul\":3010:3059   */\n      tag_279\n      jump\t// in\n    tag_389:\n        /* \"#utility.yul\":2994:3060   */\n      tag_278\n      jump\t// in\n    tag_388:\n        /* \"#utility.yul\":2985:3060   */\n      swap1\n      pop\n        /* \"#utility.yul\":3083:3089   */\n      dup3\n        /* \"#utility.yul\":3076:3081   */\n      dup2\n        /* \"#utility.yul\":3069:3090   */\n      mstore\n        /* \"#utility.yul\":3121:3125   */\n      0x20\n        /* \"#utility.yul\":3114:3119   */\n      dup2\n        /* \"#utility.yul\":3110:3126   */\n      add\n        /* \"#utility.yul\":3159:3162   */\n      dup5\n        /* \"#utility.yul\":3150:3156   */\n      dup5\n        /* \"#utility.yul\":3145:3148   */\n      dup5\n        /* \"#utility.yul\":3141:3157   */\n      add\n        /* \"#utility.yul\":3138:3163   */\n      gt\n        /* \"#utility.yul\":3135:3247   */\n      iszero\n      tag_390\n      jumpi\n        /* \"#utility.yul\":3166:3245   */\n      tag_391\n      tag_276\n      jump\t// in\n    tag_391:\n        /* \"#utility.yul\":3135:3247   */\n    tag_390:\n        /* \"#utility.yul\":3256:3310   */\n      tag_392\n        /* \"#utility.yul\":3303:3309   */\n      dup5\n        /* \"#utility.yul\":3298:3301   */\n      dup3\n        /* \"#utility.yul\":3293:3296   */\n      dup6\n        /* \"#utility.yul\":3256:3310   */\n      tag_280\n      jump\t// in\n    tag_392:\n        /* \"#utility.yul\":2975:3316   */\n      pop\n        /* \"#utility.yul\":2891:3316   */\n      swap4\n      swap3\n      pop\n      pop\n      pop\n      jump\t// out\n        /* \"#utility.yul\":3336:3676   */\n    tag_282:\n        /* \"#utility.yul\":3392:3397   */\n      0x00\n        /* \"#utility.yul\":3441:3444   */\n      dup3\n        /* \"#utility.yul\":3434:3438   */\n      0x1f\n        /* \"#utility.yul\":3426:3432   */\n      dup4\n        /* \"#utility.yul\":3422:3439   */\n      add\n        /* \"#utility.yul\":3418:3445   */\n      slt\n        /* \"#utility.yul\":3408:3530   */\n      tag_394\n      jumpi\n        /* \"#utility.yul\":3449:3528   */\n      tag_395\n      tag_275\n      jump\t// in\n    tag_395:\n        /* \"#utility.yul\":3408:3530   */\n    tag_394:\n        /* \"#utility.yul\":3566:3572   */\n      dup2\n        /* \"#utility.yul\":3553:3573   */\n      calldataload\n        /* \"#utility.yul\":3591:3670   */\n      tag_396\n        /* \"#utility.yul\":3666:3669   */\n      dup5\n        /* \"#utility.yul\":3658:3664   */\n      dup3\n        /* \"#utility.yul\":3651:3655   */\n      0x20\n        /* \"#utility.yul\":3643:3649   */\n      dup7\n        /* \"#utility.yul\":3639:3656   */\n      add\n        /* \"#utility.yul\":3591:3670   */\n      tag_281\n      jump\t// in\n    tag_396:\n        /* \"#utility.yul\":3582:3670   */\n      swap2\n      pop\n        /* \"#utility.yul\":3398:3676   */\n      pop\n        /* \"#utility.yul\":3336:3676   */\n      swap3\n      swap2\n      pop\n      pop\n      jump\t// out\n        /* \"#utility.yul\":3682:4191   */\n    tag_26:\n        /* \"#utility.yul\":3751:3757   */\n      0x00\n        /* \"#utility.yul\":3800:3802   */\n      0x20\n        /* \"#utility.yul\":3788:3797   */\n      dup3\n        /* \"#utility.yul\":3779:3786   */\n      dup5\n        /* \"#utility.yul\":3775:3798   */\n      sub\n        /* \"#utility.yul\":3771:3803   */\n      slt\n        /* \"#utility.yul\":3768:3887   */\n      iszero\n      tag_398\n      jumpi\n        /* \"#utility.yul\":3806:3885   */\n      tag_399\n      tag_273\n      jump\t// in\n    tag_399:\n        /* \"#utility.yul\":3768:3887   */\n    tag_398:\n        /* \"#utility.yul\":3954:3955   */\n      0x00\n        /* \"#utility.yul\":3943:3952   */\n      dup3\n        /* \"#utility.yul\":3939:3956   */\n      add\n        /* \"#utility.yul\":3926:3957   */\n      calldataload\n        /* \"#utility.yul\":3984:4002   */\n      0xffffffffffffffff\n        /* \"#utility.yul\":3976:3982   */\n      dup2\n        /* \"#utility.yul\":3973:4003   */\n      gt\n        /* \"#utility.yul\":3970:4087   */\n      iszero\n      tag_400\n      jumpi\n        /* \"#utility.yul\":4006:4085   */\n      tag_401\n      tag_274\n      jump\t// in\n    tag_401:\n        /* \"#utility.yul\":3970:4087   */\n    tag_400:\n        /* \"#utility.yul\":4111:4174   */\n      tag_402\n        /* \"#utility.yul\":4166:4173   */\n      dup5\n        /* \"#utility.yul\":4157:4163   */\n      dup3\n        /* \"#utility.yul\":4146:4155   */\n      dup6\n        /* \"#utility.yul\":4142:4164   */\n      add\n        /* \"#utility.yul\":4111:4174   */\n      tag_282\n      jump\t// in\n    tag_402:\n        /* \"#utility.yul\":4101:4174   */\n      swap2\n      pop\n        /* \"#utility.yul\":3897:4184   */\n      pop\n        /* \"#utility.yul\":3682:4191   */\n      swap3\n      swap2\n      pop\n      pop\n      jump\t// out\n        /* \"#utility.yul\":4197:4323   */\n    tag_283:\n        /* \"#utility.yul\":4234:4241   */\n      0x00\n        /* \"#utility.yul\":4274:4316   */\n      0xffffffffffffffffffffffffffffffffffffffff\n        /* \"#utility.yul\":4267:4272   */\n      dup3\n        /* \"#utility.yul\":4263:4317   */\n      and\n        /* \"#utility.yul\":4252:4317   */\n      swap1\n      pop\n        /* \"#utility.yul\":4197:4323   */\n      swap2\n      swap1\n      pop\n      jump\t// out\n        /* \"#utility.yul\":4329:4425   */\n    tag_284:\n        /* \"#utility.yul\":4366:4373   */\n      0x00\n        /* \"#utility.yul\":4395:4419   */\n      tag_405\n        /* \"#utility.yul\":4413:4418   */\n      dup3\n        /* \"#utility.yul\":4395:4419   */\n      tag_283\n      jump\t// in\n    tag_405:\n        /* \"#utility.yul\":4384:4419   */\n      swap1\n      pop\n        /* \"#utility.yul\":4329:4425   */\n      swap2\n      swap1\n      pop\n      jump\t// out\n        /* \"#utility.yul\":4431:4549   */\n    tag_285:\n        /* \"#utility.yul\":4518:4542   */\n      tag_407\n        /* \"#utility.yul\":4536:4541   */\n      dup2\n        /* \"#utility.yul\":4518:4542   */\n      tag_284\n      jump\t// in\n    tag_407:\n        /* \"#utility.yul\":4513:4516   */\n      dup3\n        /* \"#utility.yul\":4506:4543   */\n      mstore\n        /* \"#utility.yul\":4431:4549   */\n      pop\n      pop\n      jump\t// out\n        /* \"#utility.yul\":4555:4777   */\n    tag_29:\n        /* \"#utility.yul\":4648:4652   */\n      0x00\n        /* \"#utility.yul\":4686:4688   */\n      0x20\n        /* \"#utility.yul\":4675:4684   */\n      dup3\n        /* \"#utility.yul\":4671:4689   */\n      add\n        /* \"#utility.yul\":4663:4689   */\n      swap1\n      pop\n        /* \"#utility.yul\":4699:4770   */\n      tag_409\n        /* \"#utility.yul\":4767:4768   */\n      0x00\n        /* \"#utility.yul\":4756:4765   */\n      dup4\n        /* \"#utility.yul\":4752:4769   */\n      add\n        /* \"#utility.yul\":4743:4749   */\n      dup5\n        /* \"#utility.yul\":4699:4770   */\n      tag_285\n      jump\t// in\n    tag_409:\n        /* \"#utility.yul\":4555:4777   */\n      swap3\n      swap2\n      pop\n      pop\n      jump\t// out\n        /* \"#utility.yul\":4783:4905   */\n    tag_286:\n        /* \"#utility.yul\":4856:4880   */\n      tag_411\n        /* \"#utility.yul\":4874:4879   */\n      dup2\n        /* \"#utility.yul\":4856:4880   */\n      tag_284\n      jump\t// in\n    tag_411:\n        /* \"#utility.yul\":4849:4854   */\n      dup2\n        /* \"#utility.yul\":4846:4881   */\n      eq\n        /* \"#utility.yul\":4836:4899   */\n      tag_412\n      jumpi\n        /* \"#utility.yul\":4895:4896   */\n      0x00\n        /* \"#utility.yul\":4892:4893   */\n      0x00\n        /* \"#utility.yul\":4885:4897   */\n      revert\n        /* \"#utility.yul\":4836:4899   */\n    tag_412:\n        /* \"#utility.yul\":4783:4905   */\n      pop\n      jump\t// out\n        /* \"#utility.yul\":4911:5050   */\n    tag_287:\n        /* \"#utility.yul\":4957:4962   */\n      0x00\n        /* \"#utility.yul\":4995:5001   */\n      dup2\n        /* \"#utility.yul\":4982:5002   */\n      calldataload\n        /* \"#utility.yul\":4973:5002   */\n      swap1\n      pop\n        /* \"#utility.yul\":5011:5044   */\n      tag_414\n        /* \"#utility.yul\":5038:5043   */\n      dup2\n        /* \"#utility.yul\":5011:5044   */\n      tag_286\n      jump\t// in\n    tag_414:\n        /* \"#utility.yul\":4911:5050   */\n      swap3\n      swap2\n      pop\n      pop\n      jump\t// out\n        /* \"#utility.yul\":5056:5385   */\n    tag_32:\n        /* \"#utility.yul\":5115:5121   */\n      0x00\n        /* \"#utility.yul\":5164:5166   */\n      0x20\n        /* \"#utility.yul\":5152:5161   */\n      dup3\n        /* \"#utility.yul\":5143:5150   */\n      dup5\n        /* \"#utility.yul\":5139:5162   */\n      sub\n        /* \"#utility.yul\":5135:5167   */\n      slt\n        /* \"#utility.yul\":5132:5251   */\n      iszero\n      tag_416\n      jumpi\n        /* \"#utility.yul\":5170:5249   */\n      tag_417\n      tag_273\n      jump\t// in\n    tag_417:\n        /* \"#utility.yul\":5132:5251   */\n    tag_416:\n        /* \"#utility.yul\":5290:5291   */\n      0x00\n        /* \"#utility.yul\":5315:5368   */\n      tag_418\n        /* \"#utility.yul\":5360:5367   */\n      dup5\n        /* \"#utility.yul\":5351:5357   */\n      dup3\n        /* \"#utility.yul\":5340:5349   */\n      dup6\n        /* \"#utility.yul\":5336:5358   */\n      add\n        /* \"#utility.yul\":5315:5368   */\n      tag_287\n      jump\t// in\n    tag_418:\n        /* \"#utility.yul\":5305:5368   */\n      swap2\n      pop\n        /* \"#utility.yul\":5261:5378   */\n      pop\n        /* \"#utility.yul\":5056:5385   */\n      swap3\n      swap2\n      pop\n      pop\n      jump\t// out\n        /* \"#utility.yul\":5391:5481   */\n    tag_288:\n        /* \"#utility.yul\":5425:5432   */\n      0x00\n        /* \"#utility.yul\":5468:5473   */\n      dup2\n        /* \"#utility.yul\":5461:5474   */\n      iszero\n        /* \"#utility.yul\":5454:5475   */\n      iszero\n        /* \"#utility.yul\":5443:5475   */\n      swap1\n      pop\n        /* \"#utility.yul\":5391:5481   */\n      swap2\n      swap1\n      pop\n      jump\t// out\n        /* \"#utility.yul\":5487:5596   */\n    tag_289:\n        /* \"#utility.yul\":5568:5589   */\n      tag_421\n        /* \"#utility.yul\":5583:5588   */\n      dup2\n        /* \"#utility.yul\":5568:5589   */\n      tag_288\n      jump\t// in\n    tag_421:\n        /* \"#utility.yul\":5563:5566   */\n      dup3\n        /* \"#utility.yul\":5556:5590   */\n      mstore\n        /* \"#utility.yul\":5487:5596   */\n      pop\n      pop\n      jump\t// out\n        /* \"#utility.yul\":5602:5812   */\n    tag_35:\n        /* \"#utility.yul\":5689:5693   */\n      0x00\n        /* \"#utility.yul\":5727:5729   */\n      0x20\n        /* \"#utility.yul\":5716:5725   */\n      dup3\n        /* \"#utility.yul\":5712:5730   */\n      add\n        /* \"#utility.yul\":5704:5730   */\n      swap1\n      pop\n        /* \"#utility.yul\":5740:5805   */\n      tag_423\n        /* \"#utility.yul\":5802:5803   */\n      0x00\n        /* \"#utility.yul\":5791:5800   */\n      dup4\n        /* \"#utility.yul\":5787:5804   */\n      add\n        /* \"#utility.yul\":5778:5784   */\n      dup5\n        /* \"#utility.yul\":5740:5805   */\n      tag_289\n      jump\t// in\n    tag_423:\n        /* \"#utility.yul\":5602:5812   */\n      swap3\n      swap2\n      pop\n      pop\n      jump\t// out\n        /* \"#utility.yul\":5818:5895   */\n    tag_290:\n        /* \"#utility.yul\":5855:5862   */\n      0x00\n        /* \"#utility.yul\":5884:5889   */\n      dup2\n        /* \"#utility.yul\":5873:5889   */\n      swap1\n      pop\n        /* \"#utility.yul\":5818:5895   */\n      swap2\n      swap1\n      pop\n      jump\t// out\n        /* \"#utility.yul\":5901:6019   */\n    tag_291:\n        /* \"#utility.yul\":5988:6012   */\n      tag_426\n        /* \"#utility.yul\":6006:6011   */\n      dup2\n        /* \"#utility.yul\":5988:6012   */\n      tag_290\n      jump\t// in\n    tag_426:\n        /* \"#utility.yul\":5983:5986   */\n      dup3\n        /* \"#utility.yul\":5976:6013   */\n      mstore\n        /* \"#utility.yul\":5901:6019   */\n      pop\n      pop\n      jump\t// out\n        /* \"#utility.yul\":6025:6247   */\n    tag_39:\n        /* \"#utility.yul\":6118:6122   */\n      0x00\n        /* \"#utility.yul\":6156:6158   */\n      0x20\n        /* \"#utility.yul\":6145:6154   */\n      dup3\n        /* \"#utility.yul\":6141:6159   */\n      add\n        /* \"#utility.yul\":6133:6159   */\n      swap1\n      pop\n        /* \"#utility.yul\":6169:6240   */\n      tag_428\n        /* \"#utility.yul\":6237:6238   */\n      0x00\n        /* \"#utility.yul\":6226:6235   */\n      dup4\n        /* \"#utility.yul\":6222:6239   */\n      add\n        /* \"#utility.yul\":6213:6219   */\n      dup5\n        /* \"#utility.yul\":6169:6240   */\n      tag_291\n      jump\t// in\n    tag_428:\n        /* \"#utility.yul\":6025:6247   */\n      swap3\n      swap2\n      pop\n      pop\n      jump\t// out\n        /* \"#utility.yul\":6253:6370   */\n    tag_292:\n        /* \"#utility.yul\":6362:6363   */\n      0x00\n        /* \"#utility.yul\":6359:6360   */\n      0x00\n        /* \"#utility.yul\":6352:6364   */\n      revert\n        /* \"#utility.yul\":6376:6493   */\n    tag_293:\n        /* \"#utility.yul\":6485:6486   */\n      0x00\n        /* \"#utility.yul\":6482:6483   */\n      0x00\n        /* \"#utility.yul\":6475:6487   */\n      revert\n        /* \"#utility.yul\":6513:7066   */\n    tag_294:\n        /* \"#utility.yul\":6571:6579   */\n      0x00\n        /* \"#utility.yul\":6581:6587   */\n      0x00\n        /* \"#utility.yul\":6631:6634   */\n      dup4\n        /* \"#utility.yul\":6624:6628   */\n      0x1f\n        /* \"#utility.yul\":6616:6622   */\n      dup5\n        /* \"#utility.yul\":6612:6629   */\n      add\n        /* \"#utility.yul\":6608:6635   */\n      slt\n        /* \"#utility.yul\":6598:6720   */\n      tag_432\n      jumpi\n        /* \"#utility.yul\":6639:6718   */\n      tag_433\n      tag_275\n      jump\t// in\n    tag_433:\n        /* \"#utility.yul\":6598:6720   */\n    tag_432:\n        /* \"#utility.yul\":6752:6758   */\n      dup3\n        /* \"#utility.yul\":6739:6759   */\n      calldataload\n        /* \"#utility.yul\":6729:6759   */\n      swap1\n      pop\n        /* \"#utility.yul\":6782:6800   */\n      0xffffffffffffffff\n        /* \"#utility.yul\":6774:6780   */\n      dup2\n        /* \"#utility.yul\":6771:6801   */\n      gt\n        /* \"#utility.yul\":6768:6885   */\n      iszero\n      tag_434\n      jumpi\n        /* \"#utility.yul\":6804:6883   */\n      tag_435\n      tag_292\n      jump\t// in\n    tag_435:\n        /* \"#utility.yul\":6768:6885   */\n    tag_434:\n        /* \"#utility.yul\":6918:6922   */\n      0x20\n        /* \"#utility.yul\":6910:6916   */\n      dup4\n        /* \"#utility.yul\":6906:6923   */\n      add\n        /* \"#utility.yul\":6894:6923   */\n      swap2\n      pop\n        /* \"#utility.yul\":6972:6975   */\n      dup4\n        /* \"#utility.yul\":6964:6968   */\n      0x01\n        /* \"#utility.yul\":6956:6962   */\n      dup3\n        /* \"#utility.yul\":6952:6969   */\n      mul\n        /* \"#utility.yul\":6942:6950   */\n      dup4\n        /* \"#utility.yul\":6938:6970   */\n      add\n        /* \"#utility.yul\":6935:6976   */\n      gt\n        /* \"#utility.yul\":6932:7060   */\n      iszero\n      tag_436\n      jumpi\n        /* \"#utility.yul\":6979:7058   */\n      tag_437\n      tag_293\n      jump\t// in\n    tag_437:\n        /* \"#utility.yul\":6932:7060   */\n    tag_436:\n        /* \"#utility.yul\":6513:7066   */\n      swap3\n      pop\n      swap3\n      swap1\n      pop\n      jump\t// out\n        /* \"#utility.yul\":7072:7194   */\n    tag_295:\n        /* \"#utility.yul\":7145:7169   */\n      tag_439\n        /* \"#utility.yul\":7163:7168   */\n      dup2\n        /* \"#utility.yul\":7145:7169   */\n      tag_290\n      jump\t// in\n    tag_439:\n        /* \"#utility.yul\":7138:7143   */\n      dup2\n        /* \"#utility.yul\":7135:7170   */\n      eq\n        /* \"#utility.yul\":7125:7188   */\n      tag_440\n      jumpi\n        /* \"#utility.yul\":7184:7185   */\n      0x00\n        /* \"#utility.yul\":7181:7182   */\n      0x00\n        /* \"#utility.yul\":7174:7186   */\n      revert\n        /* \"#utility.yul\":7125:7188   */\n    tag_440:\n        /* \"#utility.yul\":7072:7194   */\n      pop\n      jump\t// out\n        /* \"#utility.yul\":7200:7339   */\n    tag_296:\n        /* \"#utility.yul\":7246:7251   */\n      0x00\n        /* \"#utility.yul\":7284:7290   */\n      dup2\n        /* \"#utility.yul\":7271:7291   */\n      calldataload\n        /* \"#utility.yul\":7262:7291   */\n      swap1\n      pop\n        /* \"#utility.yul\":7300:7333   */\n      tag_442\n        /* \"#utility.yul\":7327:7332   */\n      dup2\n        /* \"#utility.yul\":7300:7333   */\n      tag_295\n      jump\t// in\n    tag_442:\n        /* \"#utility.yul\":7200:7339   */\n      swap3\n      swap2\n      pop\n      pop\n      jump\t// out\n        /* \"#utility.yul\":7345:8310   */\n    tag_44:\n        /* \"#utility.yul\":7443:7449   */\n      0x00\n        /* \"#utility.yul\":7451:7457   */\n      0x00\n        /* \"#utility.yul\":7459:7465   */\n      0x00\n        /* \"#utility.yul\":7467:7473   */\n      0x00\n        /* \"#utility.yul\":7475:7481   */\n      0x00\n        /* \"#utility.yul\":7524:7527   */\n      0x80\n        /* \"#utility.yul\":7512:7521   */\n      dup7\n        /* \"#utility.yul\":7503:7510   */\n      dup9\n        /* \"#utility.yul\":7499:7522   */\n      sub\n        /* \"#utility.yul\":7495:7528   */\n      slt\n        /* \"#utility.yul\":7492:7612   */\n      iszero\n      tag_444\n      jumpi\n        /* \"#utility.yul\":7531:7610   */\n      tag_445\n      tag_273\n      jump\t// in\n    tag_445:\n        /* \"#utility.yul\":7492:7612   */\n    tag_444:\n        /* \"#utility.yul\":7651:7652   */\n      0x00\n        /* \"#utility.yul\":7676:7729   */\n      tag_446\n        /* \"#utility.yul\":7721:7728   */\n      dup9\n        /* \"#utility.yul\":7712:7718   */\n      dup3\n        /* \"#utility.yul\":7701:7710   */\n      dup10\n        /* \"#utility.yul\":7697:7719   */\n      add\n        /* \"#utility.yul\":7676:7729   */\n      tag_287\n      jump\t// in\n    tag_446:\n        /* \"#utility.yul\":7666:7729   */\n      swap6\n      pop\n        /* \"#utility.yul\":7622:7739   */\n      pop\n        /* \"#utility.yul\":7806:7808   */\n      0x20\n        /* \"#utility.yul\":7795:7804   */\n      dup7\n        /* \"#utility.yul\":7791:7809   */\n      add\n        /* \"#utility.yul\":7778:7810   */\n      calldataload\n        /* \"#utility.yul\":7837:7855   */\n      0xffffffffffffffff\n        /* \"#utility.yul\":7829:7835   */\n      dup2\n        /* \"#utility.yul\":7826:7856   */\n      gt\n        /* \"#utility.yul\":7823:7940   */\n      iszero\n      tag_447\n      jumpi\n        /* \"#utility.yul\":7859:7938   */\n      tag_448\n      tag_274\n      jump\t// in\n    tag_448:\n        /* \"#utility.yul\":7823:7940   */\n    tag_447:\n        /* \"#utility.yul\":7972:8037   */\n      tag_449\n        /* \"#utility.yul\":8029:8036   */\n      dup9\n        /* \"#utility.yul\":8020:8026   */\n      dup3\n        /* \"#utility.yul\":8009:8018   */\n      dup10\n        /* \"#utility.yul\":8005:8027   */\n      add\n        /* \"#utility.yul\":7972:8037   */\n      tag_294\n      jump\t// in\n    tag_449:\n        /* \"#utility.yul\":7954:8037   */\n      swap5\n      pop\n      swap5\n      pop\n        /* \"#utility.yul\":7749:8047   */\n      pop\n        /* \"#utility.yul\":8086:8088   */\n      0x40\n        /* \"#utility.yul\":8112:8165   */\n      tag_450\n        /* \"#utility.yul\":8157:8164   */\n      dup9\n        /* \"#utility.yul\":8148:8154   */\n      dup3\n        /* \"#utility.yul\":8137:8146   */\n      dup10\n        /* \"#utility.yul\":8133:8155   */\n      add\n        /* \"#utility.yul\":8112:8165   */\n      tag_296\n      jump\t// in\n    tag_450:\n        /* \"#utility.yul\":8102:8165   */\n      swap3\n      pop\n        /* \"#utility.yul\":8057:8175   */\n      pop\n        /* \"#utility.yul\":8214:8216   */\n      0x60\n        /* \"#utility.yul\":8240:8293   */\n      tag_451\n        /* \"#utility.yul\":8285:8292   */\n      dup9\n        /* \"#utility.yul\":8276:8282   */\n      dup3\n        /* \"#utility.yul\":8265:8274   */\n      dup10\n        /* \"#utility.yul\":8261:8283   */\n      add\n        /* \"#utility.yul\":8240:8293   */\n      tag_296\n      jump\t// in\n    tag_451:\n        /* \"#utility.yul\":8230:8293   */\n      swap2\n      pop\n        /* \"#utility.yul\":8185:8303   */\n      pop\n        /* \"#utility.yul\":7345:8310   */\n      swap3\n      swap6\n      pop\n      swap3\n      swap6\n      swap1\n      swap4\n      pop\n      jump\t// out\n        /* \"#utility.yul\":8316:8990   */\n    tag_51:\n        /* \"#utility.yul\":8396:8402   */\n      0x00\n        /* \"#utility.yul\":8404:8410   */\n      0x00\n        /* \"#utility.yul\":8412:8418   */\n      0x00\n        /* \"#utility.yul\":8461:8463   */\n      0x40\n        /* \"#utility.yul\":8449:8458   */\n      dup5\n        /* \"#utility.yul\":8440:8447   */\n      dup7\n        /* \"#utility.yul\":8436:8459   */\n      sub\n        /* \"#utility.yul\":8432:8464   */\n      slt\n        /* \"#utility.yul\":8429:8548   */\n      iszero\n      tag_453\n      jumpi\n        /* \"#utility.yul\":8467:8546   */\n      tag_454\n      tag_273\n      jump\t// in\n    tag_454:\n        /* \"#utility.yul\":8429:8548   */\n    tag_453:\n        /* \"#utility.yul\":8615:8616   */\n      0x00\n        /* \"#utility.yul\":8604:8613   */\n      dup5\n        /* \"#utility.yul\":8600:8617   */\n      add\n        /* \"#utility.yul\":8587:8618   */\n      calldataload\n        /* \"#utility.yul\":8645:8663   */\n      0xffffffffffffffff\n        /* \"#utility.yul\":8637:8643   */\n      dup2\n        /* \"#utility.yul\":8634:8664   */\n      gt\n        /* \"#utility.yul\":8631:8748   */\n      iszero\n      tag_455\n      jumpi\n        /* \"#utility.yul\":8667:8746   */\n      tag_456\n      tag_274\n      jump\t// in\n    tag_456:\n        /* \"#utility.yul\":8631:8748   */\n    tag_455:\n        /* \"#utility.yul\":8780:8845   */\n      tag_457\n        /* \"#utility.yul\":8837:8844   */\n      dup7\n        /* \"#utility.yul\":8828:8834   */\n      dup3\n        /* \"#utility.yul\":8817:8826   */\n      dup8\n        /* \"#utility.yul\":8813:8835   */\n      add\n        /* \"#utility.yul\":8780:8845   */\n      tag_294\n      jump\t// in\n    tag_457:\n        /* \"#utility.yul\":8762:8845   */\n      swap4\n      pop\n      swap4\n      pop\n        /* \"#utility.yul\":8558:8855   */\n      pop\n        /* \"#utility.yul\":8894:8896   */\n      0x20\n        /* \"#utility.yul\":8920:8973   */\n      tag_458\n        /* \"#utility.yul\":8965:8972   */\n      dup7\n        /* \"#utility.yul\":8956:8962   */\n      dup3\n        /* \"#utility.yul\":8945:8954   */\n      dup8\n        /* \"#utility.yul\":8941:8963   */\n      add\n        /* \"#utility.yul\":8920:8973   */\n      tag_296\n      jump\t// in\n    tag_458:\n        /* \"#utility.yul\":8910:8973   */\n      swap2\n      pop\n        /* \"#utility.yul\":8865:8983   */\n      pop\n        /* \"#utility.yul\":8316:8990   */\n      swap3\n      pop\n      swap3\n      pop\n      swap3\n      jump\t// out\n        /* \"#utility.yul\":8996:9056   */\n    tag_297:\n        /* \"#utility.yul\":9024:9027   */\n      0x00\n        /* \"#utility.yul\":9045:9050   */\n      dup2\n        /* \"#utility.yul\":9038:9050   */\n      swap1\n      pop\n        /* \"#utility.yul\":8996:9056   */\n      swap2\n      swap1\n      pop\n      jump\t// out\n        /* \"#utility.yul\":9062:9204   */\n    tag_298:\n        /* \"#utility.yul\":9112:9121   */\n      0x00\n        /* \"#utility.yul\":9145:9198   */\n      tag_461\n        /* \"#utility.yul\":9163:9197   */\n      tag_462\n        /* \"#utility.yul\":9172:9196   */\n      tag_463\n        /* \"#utility.yul\":9190:9195   */\n      dup5\n        /* \"#utility.yul\":9172:9196   */\n      tag_283\n      jump\t// in\n    tag_463:\n        /* \"#utility.yul\":9163:9197   */\n      tag_297\n      jump\t// in\n    tag_462:\n        /* \"#utility.yul\":9145:9198   */\n      tag_283\n      jump\t// in\n    tag_461:\n        /* \"#utility.yul\":9132:9198   */\n      swap1\n      pop\n        /* \"#utility.yul\":9062:9204   */\n      swap2\n      swap1\n      pop\n      jump\t// out\n        /* \"#utility.yul\":9210:9336   */\n    tag_299:\n        /* \"#utility.yul\":9260:9269   */\n      0x00\n        /* \"#utility.yul\":9293:9330   */\n      tag_465\n        /* \"#utility.yul\":9324:9329   */\n      dup3\n        /* \"#utility.yul\":9293:9330   */\n      tag_298\n      jump\t// in\n    tag_465:\n        /* \"#utility.yul\":9280:9330   */\n      swap1\n      pop\n        /* \"#utility.yul\":9210:9336   */\n      swap2\n      swap1\n      pop\n      jump\t// out\n        /* \"#utility.yul\":9342:9483   */\n    tag_300:\n        /* \"#utility.yul\":9407:9416   */\n      0x00\n        /* \"#utility.yul\":9440:9477   */\n      tag_467\n        /* \"#utility.yul\":9471:9476   */\n      dup3\n        /* \"#utility.yul\":9440:9477   */\n      tag_299\n      jump\t// in\n    tag_467:\n        /* \"#utility.yul\":9427:9477   */\n      swap1\n      pop\n        /* \"#utility.yul\":9342:9483   */\n      swap2\n      swap1\n      pop\n      jump\t// out\n        /* \"#utility.yul\":9489:9650   */\n    tag_301:\n        /* \"#utility.yul\":9591:9643   */\n      tag_469\n        /* \"#utility.yul\":9637:9642   */\n      dup2\n        /* \"#utility.yul\":9591:9643   */\n      tag_300\n      jump\t// in\n    tag_469:\n        /* \"#utility.yul\":9586:9589   */\n      dup3\n        /* \"#utility.yul\":9579:9644   */\n      mstore\n        /* \"#utility.yul\":9489:9650   */\n      pop\n      pop\n      jump\t// out\n        /* \"#utility.yul\":9656:9908   */\n    tag_56:\n        /* \"#utility.yul\":9764:9768   */\n      0x00\n        /* \"#utility.yul\":9802:9804   */\n      0x20\n        /* \"#utility.yul\":9791:9800   */\n      dup3\n        /* \"#utility.yul\":9787:9805   */\n      add\n        /* \"#utility.yul\":9779:9805   */\n      swap1\n      pop\n        /* \"#utility.yul\":9815:9901   */\n      tag_471\n        /* \"#utility.yul\":9898:9899   */\n      0x00\n        /* \"#utility.yul\":9887:9896   */\n      dup4\n        /* \"#utility.yul\":9883:9900   */\n      add\n        /* \"#utility.yul\":9874:9880   */\n      dup5\n        /* \"#utility.yul\":9815:9901   */\n      tag_301\n      jump\t// in\n    tag_471:\n        /* \"#utility.yul\":9656:9908   */\n      swap3\n      swap2\n      pop\n      pop\n      jump\t// out\n        /* \"#utility.yul\":9914:10058   */\n    tag_302:\n        /* \"#utility.yul\":9982:9991   */\n      0x00\n        /* \"#utility.yul\":10015:10052   */\n      tag_473\n        /* \"#utility.yul\":10046:10051   */\n      dup3\n        /* \"#utility.yul\":10015:10052   */\n      tag_299\n      jump\t// in\n    tag_473:\n        /* \"#utility.yul\":10002:10052   */\n      swap1\n      pop\n        /* \"#utility.yul\":9914:10058   */\n      swap2\n      swap1\n      pop\n      jump\t// out\n        /* \"#utility.yul\":10064:10231   */\n    tag_303:\n        /* \"#utility.yul\":10169:10224   */\n      tag_475\n        /* \"#utility.yul\":10218:10223   */\n      dup2\n        /* \"#utility.yul\":10169:10224   */\n      tag_302\n      jump\t// in\n    tag_475:\n        /* \"#utility.yul\":10164:10167   */\n      dup3\n        /* \"#utility.yul\":10157:10225   */\n      mstore\n        /* \"#utility.yul\":10064:10231   */\n      pop\n      pop\n      jump\t// out\n        /* \"#utility.yul\":10237:10495   */\n    tag_60:\n        /* \"#utility.yul\":10348:10352   */\n      0x00\n        /* \"#utility.yul\":10386:10388   */\n      0x20\n        /* \"#utility.yul\":10375:10384   */\n      dup3\n        /* \"#utility.yul\":10371:10389   */\n      add\n        /* \"#utility.yul\":10363:10389   */\n      swap1\n      pop\n        /* \"#utility.yul\":10399:10488   */\n      tag_477\n        /* \"#utility.yul\":10485:10486   */\n      0x00\n        /* \"#utility.yul\":10474:10483   */\n      dup4\n        /* \"#utility.yul\":10470:10487   */\n      add\n        /* \"#utility.yul\":10461:10467   */\n      dup5\n        /* \"#utility.yul\":10399:10488   */\n      tag_303\n      jump\t// in\n    tag_477:\n        /* \"#utility.yul\":10237:10495   */\n      swap3\n      swap2\n      pop\n      pop\n      jump\t// out\n        /* \"#utility.yul\":10514:11066   */\n    tag_304:\n        /* \"#utility.yul\":10571:10579   */\n      0x00\n        /* \"#utility.yul\":10581:10587   */\n      0x00\n        /* \"#utility.yul\":10631:10634   */\n      dup4\n        /* \"#utility.yul\":10624:10628   */\n      0x1f\n        /* \"#utility.yul\":10616:10622   */\n      dup5\n        /* \"#utility.yul\":10612:10629   */\n      add\n        /* \"#utility.yul\":10608:10635   */\n      slt\n        /* \"#utility.yul\":10598:10720   */\n      tag_479\n      jumpi\n        /* \"#utility.yul\":10639:10718   */\n      tag_480\n      tag_275\n      jump\t// in\n    tag_480:\n        /* \"#utility.yul\":10598:10720   */\n    tag_479:\n        /* \"#utility.yul\":10752:10758   */\n      dup3\n        /* \"#utility.yul\":10739:10759   */\n      calldataload\n        /* \"#utility.yul\":10729:10759   */\n      swap1\n      pop\n        /* \"#utility.yul\":10782:10800   */\n      0xffffffffffffffff\n        /* \"#utility.yul\":10774:10780   */\n      dup2\n        /* \"#utility.yul\":10771:10801   */\n      gt\n        /* \"#utility.yul\":10768:10885   */\n      iszero\n      tag_481\n      jumpi\n        /* \"#utility.yul\":10804:10883   */\n      tag_482\n      tag_292\n      jump\t// in\n    tag_482:\n        /* \"#utility.yul\":10768:10885   */\n    tag_481:\n        /* \"#utility.yul\":10918:10922   */\n      0x20\n        /* \"#utility.yul\":10910:10916   */\n      dup4\n        /* \"#utility.yul\":10906:10923   */\n      add\n        /* \"#utility.yul\":10894:10923   */\n      swap2\n      pop\n        /* \"#utility.yul\":10972:10975   */\n      dup4\n        /* \"#utility.yul\":10964:10968   */\n      0x01\n        /* \"#utility.yul\":10956:10962   */\n      dup3\n        /* \"#utility.yul\":10952:10969   */\n      mul\n        /* \"#utility.yul\":10942:10950   */\n      dup4\n        /* \"#utility.yul\":10938:10970   */\n      add\n        /* \"#utility.yul\":10935:10976   */\n      gt\n        /* \"#utility.yul\":10932:11060   */\n      iszero\n      tag_483\n      jumpi\n        /* \"#utility.yul\":10979:11058   */\n      tag_484\n      tag_293\n      jump\t// in\n    tag_484:\n        /* \"#utility.yul\":10932:11060   */\n    tag_483:\n        /* \"#utility.yul\":10514:11066   */\n      swap3\n      pop\n      swap3\n      swap1\n      pop\n      jump\t// out\n        /* \"#utility.yul\":11072:12435   */\n    tag_63:\n        /* \"#utility.yul\":11193:11199   */\n      0x00\n        /* \"#utility.yul\":11201:11207   */\n      0x00\n        /* \"#utility.yul\":11209:11215   */\n      0x00\n        /* \"#utility.yul\":11217:11223   */\n      0x00\n        /* \"#utility.yul\":11225:11231   */\n      0x00\n        /* \"#utility.yul\":11233:11239   */\n      0x00\n        /* \"#utility.yul\":11241:11247   */\n      0x00\n        /* \"#utility.yul\":11290:11293   */\n      0x80\n        /* \"#utility.yul\":11278:11287   */\n      dup9\n        /* \"#utility.yul\":11269:11276   */\n      dup11\n        /* \"#utility.yul\":11265:11288   */\n      sub\n        /* \"#utility.yul\":11261:11294   */\n      slt\n        /* \"#utility.yul\":11258:11378   */\n      iszero\n      tag_486\n      jumpi\n        /* \"#utility.yul\":11297:11376   */\n      tag_487\n      tag_273\n      jump\t// in\n    tag_487:\n        /* \"#utility.yul\":11258:11378   */\n    tag_486:\n        /* \"#utility.yul\":11445:11446   */\n      0x00\n        /* \"#utility.yul\":11434:11443   */\n      dup9\n        /* \"#utility.yul\":11430:11447   */\n      add\n        /* \"#utility.yul\":11417:11448   */\n      calldataload\n        /* \"#utility.yul\":11475:11493   */\n      0xffffffffffffffff\n        /* \"#utility.yul\":11467:11473   */\n      dup2\n        /* \"#utility.yul\":11464:11494   */\n      gt\n        /* \"#utility.yul\":11461:11578   */\n      iszero\n      tag_488\n      jumpi\n        /* \"#utility.yul\":11497:11576   */\n      tag_489\n      tag_274\n      jump\t// in\n    tag_489:\n        /* \"#utility.yul\":11461:11578   */\n    tag_488:\n        /* \"#utility.yul\":11610:11674   */\n      tag_490\n        /* \"#utility.yul\":11666:11673   */\n      dup11\n        /* \"#utility.yul\":11657:11663   */\n      dup3\n        /* \"#utility.yul\":11646:11655   */\n      dup12\n        /* \"#utility.yul\":11642:11664   */\n      add\n        /* \"#utility.yul\":11610:11674   */\n      tag_304\n      jump\t// in\n    tag_490:\n        /* \"#utility.yul\":11592:11674   */\n      swap8\n      pop\n      swap8\n      pop\n        /* \"#utility.yul\":11388:11684   */\n      pop\n        /* \"#utility.yul\":11751:11753   */\n      0x20\n        /* \"#utility.yul\":11740:11749   */\n      dup9\n        /* \"#utility.yul\":11736:11754   */\n      add\n        /* \"#utility.yul\":11723:11755   */\n      calldataload\n        /* \"#utility.yul\":11782:11800   */\n      0xffffffffffffffff\n        /* \"#utility.yul\":11774:11780   */\n      dup2\n        /* \"#utility.yul\":11771:11801   */\n      gt\n        /* \"#utility.yul\":11768:11885   */\n      iszero\n      tag_491\n      jumpi\n        /* \"#utility.yul\":11804:11883   */\n      tag_492\n      tag_274\n      jump\t// in\n    tag_492:\n        /* \"#utility.yul\":11768:11885   */\n    tag_491:\n        /* \"#utility.yul\":11917:11982   */\n      tag_493\n        /* \"#utility.yul\":11974:11981   */\n      dup11\n        /* \"#utility.yul\":11965:11971   */\n      dup3\n        /* \"#utility.yul\":11954:11963   */\n      dup12\n        /* \"#utility.yul\":11950:11972   */\n      add\n        /* \"#utility.yul\":11917:11982   */\n      tag_294\n      jump\t// in\n    tag_493:\n        /* \"#utility.yul\":11899:11982   */\n      swap6\n      pop\n      swap6\n      pop\n        /* \"#utility.yul\":11694:11992   */\n      pop\n        /* \"#utility.yul\":12059:12061   */\n      0x40\n        /* \"#utility.yul\":12048:12057   */\n      dup9\n        /* \"#utility.yul\":12044:12062   */\n      add\n        /* \"#utility.yul\":12031:12063   */\n      calldataload\n        /* \"#utility.yul\":12090:12108   */\n      0xffffffffffffffff\n        /* \"#utility.yul\":12082:12088   */\n      dup2\n        /* \"#utility.yul\":12079:12109   */\n      gt\n        /* \"#utility.yul\":12076:12193   */\n      iszero\n      tag_494\n      jumpi\n        /* \"#utility.yul\":12112:12191   */\n      tag_495\n      tag_274\n      jump\t// in\n    tag_495:\n        /* \"#utility.yul\":12076:12193   */\n    tag_494:\n        /* \"#utility.yul\":12225:12290   */\n      tag_496\n        /* \"#utility.yul\":12282:12289   */\n      dup11\n        /* \"#utility.yul\":12273:12279   */\n      dup3\n        /* \"#utility.yul\":12262:12271   */\n      dup12\n        /* \"#utility.yul\":12258:12280   */\n      add\n        /* \"#utility.yul\":12225:12290   */\n      tag_294\n      jump\t// in\n    tag_496:\n        /* \"#utility.yul\":12207:12290   */\n      swap4\n      pop\n      swap4\n      pop\n        /* \"#utility.yul\":12002:12300   */\n      pop\n        /* \"#utility.yul\":12339:12341   */\n      0x60\n        /* \"#utility.yul\":12365:12418   */\n      tag_497\n        /* \"#utility.yul\":12410:12417   */\n      dup11\n        /* \"#utility.yul\":12401:12407   */\n      dup3\n        /* \"#utility.yul\":12390:12399   */\n      dup12\n        /* \"#utility.yul\":12386:12408   */\n      add\n        /* \"#utility.yul\":12365:12418   */\n      tag_296\n      jump\t// in\n    tag_497:\n        /* \"#utility.yul\":12355:12418   */\n      swap2\n      pop\n        /* \"#utility.yul\":12310:12428   */\n      pop\n        /* \"#utility.yul\":11072:12435   */\n      swap3\n      swap6\n      swap9\n      swap2\n      swap5\n      swap8\n      pop\n      swap3\n      swap6\n      pop\n      jump\t// out\n        /* \"#utility.yul\":12441:12970   */\n    tag_67:\n        /* \"#utility.yul\":12512:12518   */\n      0x00\n        /* \"#utility.yul\":12520:12526   */\n      0x00\n        /* \"#utility.yul\":12569:12571   */\n      0x20\n        /* \"#utility.yul\":12557:12566   */\n      dup4\n        /* \"#utility.yul\":12548:12555   */\n      dup6\n        /* \"#utility.yul\":12544:12567   */\n      sub\n        /* \"#utility.yul\":12540:12572   */\n      slt\n        /* \"#utility.yul\":12537:12656   */\n      iszero\n      tag_499\n      jumpi\n        /* \"#utility.yul\":12575:12654   */\n      tag_500\n      tag_273\n      jump\t// in\n    tag_500:\n        /* \"#utility.yul\":12537:12656   */\n    tag_499:\n        /* \"#utility.yul\":12723:12724   */\n      0x00\n        /* \"#utility.yul\":12712:12721   */\n      dup4\n        /* \"#utility.yul\":12708:12725   */\n      add\n        /* \"#utility.yul\":12695:12726   */\n      calldataload\n        /* \"#utility.yul\":12753:12771   */\n      0xffffffffffffffff\n        /* \"#utility.yul\":12745:12751   */\n      dup2\n        /* \"#utility.yul\":12742:12772   */\n      gt\n        /* \"#utility.yul\":12739:12856   */\n      iszero\n      tag_501\n      jumpi\n        /* \"#utility.yul\":12775:12854   */\n      tag_502\n      tag_274\n      jump\t// in\n    tag_502:\n        /* \"#utility.yul\":12739:12856   */\n    tag_501:\n        /* \"#utility.yul\":12888:12953   */\n      tag_503\n        /* \"#utility.yul\":12945:12952   */\n      dup6\n        /* \"#utility.yul\":12936:12942   */\n      dup3\n        /* \"#utility.yul\":12925:12934   */\n      dup7\n        /* \"#utility.yul\":12921:12943   */\n      add\n        /* \"#utility.yul\":12888:12953   */\n      tag_294\n      jump\t// in\n    tag_503:\n        /* \"#utility.yul\":12870:12953   */\n      swap3\n      pop\n      swap3\n      pop\n        /* \"#utility.yul\":12666:12963   */\n      pop\n        /* \"#utility.yul\":12441:12970   */\n      swap3\n      pop\n      swap3\n      swap1\n      pop\n      jump\t// out\n        /* \"#utility.yul\":12976:13156   */\n    tag_305:\n        /* \"#utility.yul\":13024:13101   */\n      0x4e487b7100000000000000000000000000000000000000000000000000000000\n        /* \"#utility.yul\":13021:13022   */\n      0x00\n        /* \"#utility.yul\":13014:13102   */\n      mstore\n        /* \"#utility.yul\":13121:13125   */\n      0x22\n        /* \"#utility.yul\":13118:13119   */\n      0x04\n        /* \"#utility.yul\":13111:13126   */\n      mstore\n        /* \"#utility.yul\":13145:13149   */\n      0x24\n        /* \"#utility.yul\":13142:13143   */\n      0x00\n        /* \"#utility.yul\":13135:13150   */\n      revert\n        /* \"#utility.yul\":13162:13482   */\n    tag_76:\n        /* \"#utility.yul\":13206:13212   */\n      0x00\n        /* \"#utility.yul\":13243:13244   */\n      0x02\n        /* \"#utility.yul\":13237:13241   */\n      dup3\n        /* \"#utility.yul\":13233:13245   */\n      div\n        /* \"#utility.yul\":13223:13245   */\n      swap1\n      pop\n        /* \"#utility.yul\":13290:13291   */\n      0x01\n        /* \"#utility.yul\":13284:13288   */\n      dup3\n        /* \"#utility.yul\":13280:13292   */\n      and\n        /* \"#utility.yul\":13311:13329   */\n      dup1\n        /* \"#utility.yul\":13301:13382   */\n      tag_506\n      jumpi\n        /* \"#utility.yul\":13367:13371   */\n      0x7f\n        /* \"#utility.yul\":13359:13365   */\n      dup3\n        /* \"#utility.yul\":13355:13372   */\n      and\n        /* \"#utility.yul\":13345:13372   */\n      swap2\n      pop\n        /* \"#utility.yul\":13301:13382   */\n    tag_506:\n        /* \"#utility.yul\":13429:13431   */\n      0x20\n        /* \"#utility.yul\":13421:13427   */\n      dup3\n        /* \"#utility.yul\":13418:13432   */\n      lt\n        /* \"#utility.yul\":13398:13416   */\n      dup2\n        /* \"#utility.yul\":13395:13433   */\n      sub\n        /* \"#utility.yul\":13392:13476   */\n      tag_507\n      jumpi\n        /* \"#utility.yul\":13448:13466   */\n      tag_508\n      tag_305\n      jump\t// in\n    tag_508:\n        /* \"#utility.yul\":13392:13476   */\n    tag_507:\n        /* \"#utility.yul\":13213:13482   */\n      pop\n        /* \"#utility.yul\":13162:13482   */\n      swap2\n      swap1\n      pop\n      jump\t// out\n        /* \"#utility.yul\":13488:13636   */\n    tag_306:\n        /* \"#utility.yul\":13590:13601   */\n      0x00\n        /* \"#utility.yul\":13627:13630   */\n      dup2\n        /* \"#utility.yul\":13612:13630   */\n      swap1\n      pop\n        /* \"#utility.yul\":13488:13636   */\n      swap3\n      swap2\n      pop\n      pop\n      jump\t// out\n        /* \"#utility.yul\":13642:14032   */\n    tag_307:\n        /* \"#utility.yul\":13748:13751   */\n      0x00\n        /* \"#utility.yul\":13776:13815   */\n      tag_511\n        /* \"#utility.yul\":13809:13814   */\n      dup3\n        /* \"#utility.yul\":13776:13815   */\n      tag_267\n      jump\t// in\n    tag_511:\n        /* \"#utility.yul\":13831:13920   */\n      tag_512\n        /* \"#utility.yul\":13913:13919   */\n      dup2\n        /* \"#utility.yul\":13908:13911   */\n      dup6\n        /* \"#utility.yul\":13831:13920   */\n      tag_306\n      jump\t// in\n    tag_512:\n        /* \"#utility.yul\":13824:13920   */\n      swap4\n      pop\n        /* \"#utility.yul\":13929:13994   */\n      tag_513\n        /* \"#utility.yul\":13987:13993   */\n      dup2\n        /* \"#utility.yul\":13982:13985   */\n      dup6\n        /* \"#utility.yul\":13975:13979   */\n      0x20\n        /* \"#utility.yul\":13968:13973   */\n      dup7\n        /* \"#utility.yul\":13964:13980   */\n      add\n        /* \"#utility.yul\":13929:13994   */\n      tag_269\n      jump\t// in\n    tag_513:\n        /* \"#utility.yul\":14019:14025   */\n      dup1\n        /* \"#utility.yul\":14014:14017   */\n      dup5\n        /* \"#utility.yul\":14010:14026   */\n      add\n        /* \"#utility.yul\":14003:14026   */\n      swap2\n      pop\n        /* \"#utility.yul\":13752:14032   */\n      pop\n        /* \"#utility.yul\":13642:14032   */\n      swap3\n      swap2\n      pop\n      pop\n      jump\t// out\n        /* \"#utility.yul\":14038:14189   */\n    tag_308:\n        /* \"#utility.yul\":14178:14181   */\n      0x5f00000000000000000000000000000000000000000000000000000000000000\n        /* \"#utility.yul\":14174:14175   */\n      0x00\n        /* \"#utility.yul\":14166:14172   */\n      dup3\n        /* \"#utility.yul\":14162:14176   */\n      add\n        /* \"#utility.yul\":14155:14182   */\n      mstore\n        /* \"#utility.yul\":14038:14189   */\n      pop\n      jump\t// out\n        /* \"#utility.yul\":14195:14595   */\n    tag_309:\n        /* \"#utility.yul\":14355:14358   */\n      0x00\n        /* \"#utility.yul\":14376:14460   */\n      tag_516\n        /* \"#utility.yul\":14458:14459   */\n      0x01\n        /* \"#utility.yul\":14453:14456   */\n      dup4\n        /* \"#utility.yul\":14376:14460   */\n      tag_306\n      jump\t// in\n    tag_516:\n        /* \"#utility.yul\":14369:14460   */\n      swap2\n      pop\n        /* \"#utility.yul\":14469:14562   */\n      tag_517\n        /* \"#utility.yul\":14558:14561   */\n      dup3\n        /* \"#utility.yul\":14469:14562   */\n      tag_308\n      jump\t// in\n    tag_517:\n        /* \"#utility.yul\":14587:14588   */\n      0x01\n        /* \"#utility.yul\":14582:14585   */\n      dup3\n        /* \"#utility.yul\":14578:14589   */\n      add\n        /* \"#utility.yul\":14571:14589   */\n      swap1\n      pop\n        /* \"#utility.yul\":14195:14595   */\n      swap2\n      swap1\n      pop\n      jump\t// out\n        /* \"#utility.yul\":14601:14742   */\n    tag_310:\n        /* \"#utility.yul\":14650:14654   */\n      0x00\n        /* \"#utility.yul\":14673:14676   */\n      dup2\n        /* \"#utility.yul\":14665:14676   */\n      swap1\n      pop\n        /* \"#utility.yul\":14696:14699   */\n      dup2\n        /* \"#utility.yul\":14693:14694   */\n      0x00\n        /* \"#utility.yul\":14686:14700   */\n      mstore\n        /* \"#utility.yul\":14730:14734   */\n      0x20\n        /* \"#utility.yul\":14727:14728   */\n      0x00\n        /* \"#utility.yul\":14717:14735   */\n      keccak256\n        /* \"#utility.yul\":14709:14735   */\n      swap1\n      pop\n        /* \"#utility.yul\":14601:14742   */\n      swap2\n      swap1\n      pop\n      jump\t// out\n        /* \"#utility.yul\":14772:15646   */\n    tag_311:\n        /* \"#utility.yul\":14875:14878   */\n      0x00\n        /* \"#utility.yul\":14912:14917   */\n      dup2\n        /* \"#utility.yul\":14906:14918   */\n      sload\n        /* \"#utility.yul\":14941:14977   */\n      tag_520\n        /* \"#utility.yul\":14967:14976   */\n      dup2\n        /* \"#utility.yul\":14941:14977   */\n      tag_76\n      jump\t// in\n    tag_520:\n        /* \"#utility.yul\":14993:15082   */\n      tag_521\n        /* \"#utility.yul\":15075:15081   */\n      dup2\n        /* \"#utility.yul\":15070:15073   */\n      dup7\n        /* \"#utility.yul\":14993:15082   */\n      tag_306\n      jump\t// in\n    tag_521:\n        /* \"#utility.yul\":14986:15082   */\n      swap5\n      pop\n        /* \"#utility.yul\":15113:15114   */\n      0x01\n        /* \"#utility.yul\":15102:15111   */\n      dup3\n        /* \"#utility.yul\":15098:15115   */\n      and\n        /* \"#utility.yul\":15129:15130   */\n      0x00\n        /* \"#utility.yul\":15124:15290   */\n      dup2\n      eq\n      tag_523\n      jumpi\n        /* \"#utility.yul\":15304:15305   */\n      0x01\n        /* \"#utility.yul\":15299:15640   */\n      dup2\n      eq\n      tag_524\n      jumpi\n        /* \"#utility.yul\":15091:15640   */\n      jump(tag_522)\n        /* \"#utility.yul\":15124:15290   */\n    tag_523:\n        /* \"#utility.yul\":15208:15212   */\n      0xff\n        /* \"#utility.yul\":15204:15213   */\n      not\n        /* \"#utility.yul\":15193:15202   */\n      dup4\n        /* \"#utility.yul\":15189:15214   */\n      and\n        /* \"#utility.yul\":15184:15187   */\n      dup7\n        /* \"#utility.yul\":15177:15215   */\n      mstore\n        /* \"#utility.yul\":15270:15276   */\n      dup2\n        /* \"#utility.yul\":15263:15277   */\n      iszero\n        /* \"#utility.yul\":15256:15278   */\n      iszero\n        /* \"#utility.yul\":15248:15254   */\n      dup3\n        /* \"#utility.yul\":15244:15279   */\n      mul\n        /* \"#utility.yul\":15239:15242   */\n      dup7\n        /* \"#utility.yul\":15235:15280   */\n      add\n        /* \"#utility.yul\":15228:15280   */\n      swap4\n      pop\n        /* \"#utility.yul\":15124:15290   */\n      jump(tag_522)\n        /* \"#utility.yul\":15299:15640   */\n    tag_524:\n        /* \"#utility.yul\":15366:15404   */\n      tag_525\n        /* \"#utility.yul\":15398:15403   */\n      dup6\n        /* \"#utility.yul\":15366:15404   */\n      tag_310\n      jump\t// in\n    tag_525:\n        /* \"#utility.yul\":15426:15427   */\n      0x00\n        /* \"#utility.yul\":15440:15594   */\n    tag_526:\n        /* \"#utility.yul\":15454:15460   */\n      dup4\n        /* \"#utility.yul\":15451:15452   */\n      dup2\n        /* \"#utility.yul\":15448:15461   */\n      lt\n        /* \"#utility.yul\":15440:15594   */\n      iszero\n      tag_528\n      jumpi\n        /* \"#utility.yul\":15528:15535   */\n      dup2\n        /* \"#utility.yul\":15522:15536   */\n      sload\n        /* \"#utility.yul\":15518:15519   */\n      dup2\n        /* \"#utility.yul\":15513:15516   */\n      dup10\n        /* \"#utility.yul\":15509:15520   */\n      add\n        /* \"#utility.yul\":15502:15537   */\n      mstore\n        /* \"#utility.yul\":15578:15579   */\n      0x01\n        /* \"#utility.yul\":15569:15576   */\n      dup3\n        /* \"#utility.yul\":15565:15580   */\n      add\n        /* \"#utility.yul\":15554:15580   */\n      swap2\n      pop\n        /* \"#utility.yul\":15476:15480   */\n      0x20\n        /* \"#utility.yul\":15473:15474   */\n      dup2\n        /* \"#utility.yul\":15469:15481   */\n      add\n        /* \"#utility.yul\":15464:15481   */\n      swap1\n      pop\n        /* \"#utility.yul\":15440:15594   */\n      jump(tag_526)\n    tag_528:\n        /* \"#utility.yul\":15623:15629   */\n      dup4\n        /* \"#utility.yul\":15618:15621   */\n      dup9\n        /* \"#utility.yul\":15614:15630   */\n      add\n        /* \"#utility.yul\":15607:15630   */\n      swap6\n      pop\n        /* \"#utility.yul\":15306:15640   */\n      pop\n      pop\n        /* \"#utility.yul\":15091:15640   */\n    tag_522:\n      pop\n        /* \"#utility.yul\":14879:15646   */\n      pop\n      pop\n        /* \"#utility.yul\":14772:15646   */\n      swap3\n      swap2\n      pop\n      pop\n      jump\t// out\n        /* \"#utility.yul\":15652:16347   */\n    tag_83:\n        /* \"#utility.yul\":15930:15933   */\n      0x00\n        /* \"#utility.yul\":15952:16047   */\n      tag_530\n        /* \"#utility.yul\":16043:16046   */\n      dup3\n        /* \"#utility.yul\":16034:16040   */\n      dup6\n        /* \"#utility.yul\":15952:16047   */\n      tag_307\n      jump\t// in\n    tag_530:\n        /* \"#utility.yul\":15945:16047   */\n      swap2\n      pop\n        /* \"#utility.yul\":16064:16212   */\n      tag_531\n        /* \"#utility.yul\":16208:16211   */\n      dup3\n        /* \"#utility.yul\":16064:16212   */\n      tag_309\n      jump\t// in\n    tag_531:\n        /* \"#utility.yul\":16057:16212   */\n      swap2\n      pop\n        /* \"#utility.yul\":16229:16321   */\n      tag_532\n        /* \"#utility.yul\":16317:16320   */\n      dup3\n        /* \"#utility.yul\":16308:16314   */\n      dup5\n        /* \"#utility.yul\":16229:16321   */\n      tag_311\n      jump\t// in\n    tag_532:\n        /* \"#utility.yul\":16222:16321   */\n      swap2\n      pop\n        /* \"#utility.yul\":16338:16341   */\n      dup2\n        /* \"#utility.yul\":16331:16341   */\n      swap1\n      pop\n        /* \"#utility.yul\":15652:16347   */\n      swap4\n      swap3\n      pop\n      pop\n      pop\n      jump\t// out\n        /* \"#utility.yul\":16353:16519   */\n    tag_312:\n        /* \"#utility.yul\":16493:16511   */\n      0x51696172614d6f6e616441737365747300000000000000000000000000000000\n        /* \"#utility.yul\":16489:16490   */\n      0x00\n        /* \"#utility.yul\":16481:16487   */\n      dup3\n        /* \"#utility.yul\":16477:16491   */\n      add\n        /* \"#utility.yul\":16470:16512   */\n      mstore\n        /* \"#utility.yul\":16353:16519   */\n      pop\n      jump\t// out\n        /* \"#utility.yul\":16525:16891   */\n    tag_313:\n        /* \"#utility.yul\":16667:16670   */\n      0x00\n        /* \"#utility.yul\":16688:16755   */\n      tag_535\n        /* \"#utility.yul\":16752:16754   */\n      0x10\n        /* \"#utility.yul\":16747:16750   */\n      dup4\n        /* \"#utility.yul\":16688:16755   */\n      tag_268\n      jump\t// in\n    tag_535:\n        /* \"#utility.yul\":16681:16755   */\n      swap2\n      pop\n        /* \"#utility.yul\":16764:16857   */\n      tag_536\n        /* \"#utility.yul\":16853:16856   */\n      dup3\n        /* \"#utility.yul\":16764:16857   */\n      tag_312\n      jump\t// in\n    tag_536:\n        /* \"#utility.yul\":16882:16884   */\n      0x20\n        /* \"#utility.yul\":16877:16880   */\n      dup3\n        /* \"#utility.yul\":16873:16885   */\n      add\n        /* \"#utility.yul\":16866:16885   */\n      swap1\n      pop\n        /* \"#utility.yul\":16525:16891   */\n      swap2\n      swap1\n      pop\n      jump\t// out\n        /* \"#utility.yul\":16897:17517   */\n    tag_85:\n        /* \"#utility.yul\":17111:17115   */\n      0x00\n        /* \"#utility.yul\":17149:17151   */\n      0x40\n        /* \"#utility.yul\":17138:17147   */\n      dup3\n        /* \"#utility.yul\":17134:17152   */\n      add\n        /* \"#utility.yul\":17126:17152   */\n      swap1\n      pop\n        /* \"#utility.yul\":17198:17207   */\n      dup2\n        /* \"#utility.yul\":17192:17196   */\n      dup2\n        /* \"#utility.yul\":17188:17208   */\n      sub\n        /* \"#utility.yul\":17184:17185   */\n      0x00\n        /* \"#utility.yul\":17173:17182   */\n      dup4\n        /* \"#utility.yul\":17169:17186   */\n      add\n        /* \"#utility.yul\":17162:17209   */\n      mstore\n        /* \"#utility.yul\":17226:17357   */\n      tag_538\n        /* \"#utility.yul\":17352:17356   */\n      dup2\n        /* \"#utility.yul\":17226:17357   */\n      tag_313\n      jump\t// in\n    tag_538:\n        /* \"#utility.yul\":17218:17357   */\n      swap1\n      pop\n        /* \"#utility.yul\":17404:17413   */\n      dup2\n        /* \"#utility.yul\":17398:17402   */\n      dup2\n        /* \"#utility.yul\":17394:17414   */\n      sub\n        /* \"#utility.yul\":17389:17391   */\n      0x20\n        /* \"#utility.yul\":17378:17387   */\n      dup4\n        /* \"#utility.yul\":17374:17392   */\n      add\n        /* \"#utility.yul\":17367:17415   */\n      mstore\n        /* \"#utility.yul\":17432:17510   */\n      tag_539\n        /* \"#utility.yul\":17505:17509   */\n      dup2\n        /* \"#utility.yul\":17496:17502   */\n      dup5\n        /* \"#utility.yul\":17432:17510   */\n      tag_271\n      jump\t// in\n    tag_539:\n        /* \"#utility.yul\":17424:17510   */\n      swap1\n      pop\n        /* \"#utility.yul\":16897:17517   */\n      swap3\n      swap2\n      pop\n      pop\n      jump\t// out\n        /* \"#utility.yul\":17523:17830   */\n    tag_314:\n        /* \"#utility.yul\":17584:17588   */\n      0x00\n        /* \"#utility.yul\":17674:17692   */\n      0xffffffffffffffff\n        /* \"#utility.yul\":17666:17672   */\n      dup3\n        /* \"#utility.yul\":17663:17693   */\n      gt\n        /* \"#utility.yul\":17660:17716   */\n      iszero\n      tag_541\n      jumpi\n        /* \"#utility.yul\":17696:17714   */\n      tag_542\n      tag_110\n      jump\t// in\n    tag_542:\n        /* \"#utility.yul\":17660:17716   */\n    tag_541:\n        /* \"#utility.yul\":17734:17763   */\n      tag_543\n        /* \"#utility.yul\":17756:17762   */\n      dup3\n        /* \"#utility.yul\":17734:17763   */\n      tag_270\n      jump\t// in\n    tag_543:\n        /* \"#utility.yul\":17726:17763   */\n      swap1\n      pop\n        /* \"#utility.yul\":17818:17822   */\n      0x20\n        /* \"#utility.yul\":17812:17816   */\n      dup2\n        /* \"#utility.yul\":17808:17823   */\n      add\n        /* \"#utility.yul\":17800:17823   */\n      swap1\n      pop\n        /* \"#utility.yul\":17523:17830   */\n      swap2\n      swap1\n      pop\n      jump\t// out\n        /* \"#utility.yul\":17836:18268   */\n    tag_315:\n        /* \"#utility.yul\":17924:17929   */\n      0x00\n        /* \"#utility.yul\":17949:18014   */\n      tag_545\n        /* \"#utility.yul\":17965:18013   */\n      tag_546\n        /* \"#utility.yul\":18006:18012   */\n      dup5\n        /* \"#utility.yul\":17965:18013   */\n      tag_314\n      jump\t// in\n    tag_546:\n        /* \"#utility.yul\":17949:18014   */\n      tag_278\n      jump\t// in\n    tag_545:\n        /* \"#utility.yul\":17940:18014   */\n      swap1\n      pop\n        /* \"#utility.yul\":18037:18043   */\n      dup3\n        /* \"#utility.yul\":18030:18035   */\n      dup2\n        /* \"#utility.yul\":18023:18044   */\n      mstore\n        /* \"#utility.yul\":18075:18079   */\n      0x20\n        /* \"#utility.yul\":18068:18073   */\n      dup2\n        /* \"#utility.yul\":18064:18080   */\n      add\n        /* \"#utility.yul\":18113:18116   */\n      dup5\n        /* \"#utility.yul\":18104:18110   */\n      dup5\n        /* \"#utility.yul\":18099:18102   */\n      dup5\n        /* \"#utility.yul\":18095:18111   */\n      add\n        /* \"#utility.yul\":18092:18117   */\n      gt\n        /* \"#utility.yul\":18089:18201   */\n      iszero\n      tag_547\n      jumpi\n        /* \"#utility.yul\":18120:18199   */\n      tag_548\n      tag_276\n      jump\t// in\n    tag_548:\n        /* \"#utility.yul\":18089:18201   */\n    tag_547:\n        /* \"#utility.yul\":18210:18262   */\n      tag_549\n        /* \"#utility.yul\":18255:18261   */\n      dup5\n        /* \"#utility.yul\":18250:18253   */\n      dup3\n        /* \"#utility.yul\":18245:18248   */\n      dup6\n        /* \"#utility.yul\":18210:18262   */\n      tag_269\n      jump\t// in\n    tag_549:\n        /* \"#utility.yul\":17930:18268   */\n      pop\n        /* \"#utility.yul\":17836:18268   */\n      swap4\n      swap3\n      pop\n      pop\n      pop\n      jump\t// out\n        /* \"#utility.yul\":18287:18640   */\n    tag_316:\n        /* \"#utility.yul\":18353:18358   */\n      0x00\n        /* \"#utility.yul\":18402:18405   */\n      dup3\n        /* \"#utility.yul\":18395:18399   */\n      0x1f\n        /* \"#utility.yul\":18387:18393   */\n      dup4\n        /* \"#utility.yul\":18383:18400   */\n      add\n        /* \"#utility.yul\":18379:18406   */\n      slt\n        /* \"#utility.yul\":18369:18491   */\n      tag_551\n      jumpi\n        /* \"#utility.yul\":18410:18489   */\n      tag_552\n      tag_275\n      jump\t// in\n    tag_552:\n        /* \"#utility.yul\":18369:18491   */\n    tag_551:\n        /* \"#utility.yul\":18520:18526   */\n      dup2\n        /* \"#utility.yul\":18514:18527   */\n      mload\n        /* \"#utility.yul\":18545:18634   */\n      tag_553\n        /* \"#utility.yul\":18630:18633   */\n      dup5\n        /* \"#utility.yul\":18622:18628   */\n      dup3\n        /* \"#utility.yul\":18615:18619   */\n      0x20\n        /* \"#utility.yul\":18607:18613   */\n      dup7\n        /* \"#utility.yul\":18603:18620   */\n      add\n        /* \"#utility.yul\":18545:18634   */\n      tag_315\n      jump\t// in\n    tag_553:\n        /* \"#utility.yul\":18536:18634   */\n      swap2\n      pop\n        /* \"#utility.yul\":18359:18640   */\n      pop\n        /* \"#utility.yul\":18287:18640   */\n      swap3\n      swap2\n      pop\n      pop\n      jump\t// out\n        /* \"#utility.yul\":18646:19168   */\n    tag_89:\n        /* \"#utility.yul\":18725:18731   */\n      0x00\n        /* \"#utility.yul\":18774:18776   */\n      0x20\n        /* \"#utility.yul\":18762:18771   */\n      dup3\n        /* \"#utility.yul\":18753:18760   */\n      dup5\n        /* \"#utility.yul\":18749:18772   */\n      sub\n        /* \"#utility.yul\":18745:18777   */\n      slt\n        /* \"#utility.yul\":18742:18861   */\n      iszero\n      tag_555\n      jumpi\n        /* \"#utility.yul\":18780:18859   */\n      tag_556\n      tag_273\n      jump\t// in\n    tag_556:\n        /* \"#utility.yul\":18742:18861   */\n    tag_555:\n        /* \"#utility.yul\":18921:18922   */\n      0x00\n        /* \"#utility.yul\":18910:18919   */\n      dup3\n        /* \"#utility.yul\":18906:18923   */\n      add\n        /* \"#utility.yul\":18900:18924   */\n      mload\n        /* \"#utility.yul\":18951:18969   */\n      0xffffffffffffffff\n        /* \"#utility.yul\":18943:18949   */\n      dup2\n        /* \"#utility.yul\":18940:18970   */\n      gt\n        /* \"#utility.yul\":18937:19054   */\n      iszero\n      tag_557\n      jumpi\n        /* \"#utility.yul\":18973:19052   */\n      tag_558\n      tag_274\n      jump\t// in\n    tag_558:\n        /* \"#utility.yul\":18937:19054   */\n    tag_557:\n        /* \"#utility.yul\":19078:19151   */\n      tag_559\n        /* \"#utility.yul\":19143:19150   */\n      dup5\n        /* \"#utility.yul\":19134:19140   */\n      dup3\n        /* \"#utility.yul\":19123:19132   */\n      dup6\n        /* \"#utility.yul\":19119:19141   */\n      add\n        /* \"#utility.yul\":19078:19151   */\n      tag_316\n      jump\t// in\n    tag_559:\n        /* \"#utility.yul\":19068:19151   */\n      swap2\n      pop\n        /* \"#utility.yul\":18871:19161   */\n      pop\n        /* \"#utility.yul\":18646:19168   */\n      swap3\n      swap2\n      pop\n      pop\n      jump\t// out\n        /* \"#utility.yul\":19174:19395   */\n    tag_317:\n        /* \"#utility.yul\":19314:19348   */\n      0x5661756c743a204173736574206e6f7420666f756e6420696e20726567697374\n        /* \"#utility.yul\":19310:19311   */\n      0x00\n        /* \"#utility.yul\":19302:19308   */\n      dup3\n        /* \"#utility.yul\":19298:19312   */\n      add\n        /* \"#utility.yul\":19291:19349   */\n      mstore\n        /* \"#utility.yul\":19383:19387   */\n      0x7279000000000000000000000000000000000000000000000000000000000000\n        /* \"#utility.yul\":19378:19380   */\n      0x20\n        /* \"#utility.yul\":19370:19376   */\n      dup3\n        /* \"#utility.yul\":19366:19381   */\n      add\n        /* \"#utility.yul\":19359:19388   */\n      mstore\n        /* \"#utility.yul\":19174:19395   */\n      pop\n      jump\t// out\n        /* \"#utility.yul\":19401:19767   */\n    tag_318:\n        /* \"#utility.yul\":19543:19546   */\n      0x00\n        /* \"#utility.yul\":19564:19631   */\n      tag_562\n        /* \"#utility.yul\":19628:19630   */\n      0x22\n        /* \"#utility.yul\":19623:19626   */\n      dup4\n        /* \"#utility.yul\":19564:19631   */\n      tag_268\n      jump\t// in\n    tag_562:\n        /* \"#utility.yul\":19557:19631   */\n      swap2\n      pop\n        /* \"#utility.yul\":19640:19733   */\n      tag_563\n        /* \"#utility.yul\":19729:19732   */\n      dup3\n        /* \"#utility.yul\":19640:19733   */\n      tag_317\n      jump\t// in\n    tag_563:\n        /* \"#utility.yul\":19758:19760   */\n      0x40\n        /* \"#utility.yul\":19753:19756   */\n      dup3\n        /* \"#utility.yul\":19749:19761   */\n      add\n        /* \"#utility.yul\":19742:19761   */\n      swap1\n      pop\n        /* \"#utility.yul\":19401:19767   */\n      swap2\n      swap1\n      pop\n      jump\t// out\n        /* \"#utility.yul\":19773:20192   */\n    tag_92:\n        /* \"#utility.yul\":19939:19943   */\n      0x00\n        /* \"#utility.yul\":19977:19979   */\n      0x20\n        /* \"#utility.yul\":19966:19975   */\n      dup3\n        /* \"#utility.yul\":19962:19980   */\n      add\n        /* \"#utility.yul\":19954:19980   */\n      swap1\n      pop\n        /* \"#utility.yul\":20026:20035   */\n      dup2\n        /* \"#utility.yul\":20020:20024   */\n      dup2\n        /* \"#utility.yul\":20016:20036   */\n      sub\n        /* \"#utility.yul\":20012:20013   */\n      0x00\n        /* \"#utility.yul\":20001:20010   */\n      dup4\n        /* \"#utility.yul\":19997:20014   */\n      add\n        /* \"#utility.yul\":19990:20037   */\n      mstore\n        /* \"#utility.yul\":20054:20185   */\n      tag_565\n        /* \"#utility.yul\":20180:20184   */\n      dup2\n        /* \"#utility.yul\":20054:20185   */\n      tag_318\n      jump\t// in\n    tag_565:\n        /* \"#utility.yul\":20046:20185   */\n      swap1\n      pop\n        /* \"#utility.yul\":19773:20192   */\n      swap2\n      swap1\n      pop\n      jump\t// out\n        /* \"#utility.yul\":20198:20374   */\n    tag_319:\n        /* \"#utility.yul\":20338:20366   */\n      0x5661756c743a20546f6b656e206e6f7420737570706f72746564000000000000\n        /* \"#utility.yul\":20334:20335   */\n      0x00\n        /* \"#utility.yul\":20326:20332   */\n      dup3\n        /* \"#utility.yul\":20322:20336   */\n      add\n        /* \"#utility.yul\":20315:20367   */\n      mstore\n        /* \"#utility.yul\":20198:20374   */\n      pop\n      jump\t// out\n        /* \"#utility.yul\":20380:20746   */\n    tag_320:\n        /* \"#utility.yul\":20522:20525   */\n      0x00\n        /* \"#utility.yul\":20543:20610   */\n      tag_568\n        /* \"#utility.yul\":20607:20609   */\n      0x1a\n        /* \"#utility.yul\":20602:20605   */\n      dup4\n        /* \"#utility.yul\":20543:20610   */\n      tag_268\n      jump\t// in\n    tag_568:\n        /* \"#utility.yul\":20536:20610   */\n      swap2\n      pop\n        /* \"#utility.yul\":20619:20712   */\n      tag_569\n        /* \"#utility.yul\":20708:20711   */\n      dup3\n        /* \"#utility.yul\":20619:20712   */\n      tag_319\n      jump\t// in\n    tag_569:\n        /* \"#utility.yul\":20737:20739   */\n      0x20\n        /* \"#utility.yul\":20732:20735   */\n      dup3\n        /* \"#utility.yul\":20728:20740   */\n      add\n        /* \"#utility.yul\":20721:20740   */\n      swap1\n      pop\n        /* \"#utility.yul\":20380:20746   */\n      swap2\n      swap1\n      pop\n      jump\t// out\n        /* \"#utility.yul\":20752:21171   */\n    tag_105:\n        /* \"#utility.yul\":20918:20922   */\n      0x00\n        /* \"#utility.yul\":20956:20958   */\n      0x20\n        /* \"#utility.yul\":20945:20954   */\n      dup3\n        /* \"#utility.yul\":20941:20959   */\n      add\n        /* \"#utility.yul\":20933:20959   */\n      swap1\n      pop\n        /* \"#utility.yul\":21005:21014   */\n      dup2\n        /* \"#utility.yul\":20999:21003   */\n      dup2\n        /* \"#utility.yul\":20995:21015   */\n      sub\n        /* \"#utility.yul\":20991:20992   */\n      0x00\n        /* \"#utility.yul\":20980:20989   */\n      dup4\n        /* \"#utility.yul\":20976:20993   */\n      add\n        /* \"#utility.yul\":20969:21016   */\n      mstore\n        /* \"#utility.yul\":21033:21164   */\n      tag_571\n        /* \"#utility.yul\":21159:21163   */\n      dup2\n        /* \"#utility.yul\":21033:21164   */\n      tag_320\n      jump\t// in\n    tag_571:\n        /* \"#utility.yul\":21025:21164   */\n      swap1\n      pop\n        /* \"#utility.yul\":20752:21171   */\n      swap2\n      swap1\n      pop\n      jump\t// out\n        /* \"#utility.yul\":21177:21357   */\n    tag_118:\n        /* \"#utility.yul\":21225:21302   */\n      0x4e487b7100000000000000000000000000000000000000000000000000000000\n        /* \"#utility.yul\":21222:21223   */\n      0x00\n        /* \"#utility.yul\":21215:21303   */\n      mstore\n        /* \"#utility.yul\":21322:21326   */\n      0x32\n        /* \"#utility.yul\":21319:21320   */\n      0x04\n        /* \"#utility.yul\":21312:21327   */\n      mstore\n        /* \"#utility.yul\":21346:21350   */\n      0x24\n        /* \"#utility.yul\":21343:21344   */\n      0x00\n        /* \"#utility.yul\":21336:21351   */\n      revert\n        /* \"#utility.yul\":21387:21704   */\n    tag_321:\n        /* \"#utility.yul\":21485:21488   */\n      0x00\n        /* \"#utility.yul\":21506:21577   */\n      tag_574\n        /* \"#utility.yul\":21570:21576   */\n      dup4\n        /* \"#utility.yul\":21565:21568   */\n      dup6\n        /* \"#utility.yul\":21506:21577   */\n      tag_268\n      jump\t// in\n    tag_574:\n        /* \"#utility.yul\":21499:21577   */\n      swap4\n      pop\n        /* \"#utility.yul\":21587:21643   */\n      tag_575\n        /* \"#utility.yul\":21636:21642   */\n      dup4\n        /* \"#utility.yul\":21631:21634   */\n      dup6\n        /* \"#utility.yul\":21624:21629   */\n      dup5\n        /* \"#utility.yul\":21587:21643   */\n      tag_280\n      jump\t// in\n    tag_575:\n        /* \"#utility.yul\":21668:21697   */\n      tag_576\n        /* \"#utility.yul\":21690:21696   */\n      dup4\n        /* \"#utility.yul\":21668:21697   */\n      tag_270\n      jump\t// in\n    tag_576:\n        /* \"#utility.yul\":21663:21666   */\n      dup5\n        /* \"#utility.yul\":21659:21698   */\n      add\n        /* \"#utility.yul\":21652:21698   */\n      swap1\n      pop\n        /* \"#utility.yul\":21387:21704   */\n      swap4\n      swap3\n      pop\n      pop\n      pop\n      jump\t// out\n        /* \"#utility.yul\":21710:22043   */\n    tag_123:\n        /* \"#utility.yul\":21833:21837   */\n      0x00\n        /* \"#utility.yul\":21871:21873   */\n      0x20\n        /* \"#utility.yul\":21860:21869   */\n      dup3\n        /* \"#utility.yul\":21856:21874   */\n      add\n        /* \"#utility.yul\":21848:21874   */\n      swap1\n      pop\n        /* \"#utility.yul\":21920:21929   */\n      dup2\n        /* \"#utility.yul\":21914:21918   */\n      dup2\n        /* \"#utility.yul\":21910:21930   */\n      sub\n        /* \"#utility.yul\":21906:21907   */\n      0x00\n        /* \"#utility.yul\":21895:21904   */\n      dup4\n        /* \"#utility.yul\":21891:21908   */\n      add\n        /* \"#utility.yul\":21884:21931   */\n      mstore\n        /* \"#utility.yul\":21948:22036   */\n      tag_578\n        /* \"#utility.yul\":22031:22035   */\n      dup2\n        /* \"#utility.yul\":22022:22028   */\n      dup5\n        /* \"#utility.yul\":22014:22020   */\n      dup7\n        /* \"#utility.yul\":21948:22036   */\n      tag_321\n      jump\t// in\n    tag_578:\n        /* \"#utility.yul\":21940:22036   */\n      swap1\n      pop\n        /* \"#utility.yul\":21710:22043   */\n      swap4\n      swap3\n      pop\n      pop\n      pop\n      jump\t// out\n        /* \"#utility.yul\":22073:22904   */\n    tag_322:\n        /* \"#utility.yul\":22158:22161   */\n      0x00\n        /* \"#utility.yul\":22195:22200   */\n      dup2\n        /* \"#utility.yul\":22189:22201   */\n      sload\n        /* \"#utility.yul\":22224:22260   */\n      tag_580\n        /* \"#utility.yul\":22250:22259   */\n      dup2\n        /* \"#utility.yul\":22224:22260   */\n      tag_76\n      jump\t// in\n    tag_580:\n        /* \"#utility.yul\":22276:22347   */\n      tag_581\n        /* \"#utility.yul\":22340:22346   */\n      dup2\n        /* \"#utility.yul\":22335:22338   */\n      dup7\n        /* \"#utility.yul\":22276:22347   */\n      tag_268\n      jump\t// in\n    tag_581:\n        /* \"#utility.yul\":22269:22347   */\n      swap5\n      pop\n        /* \"#utility.yul\":22378:22379   */\n      0x01\n        /* \"#utility.yul\":22367:22376   */\n      dup3\n        /* \"#utility.yul\":22363:22380   */\n      and\n        /* \"#utility.yul\":22394:22395   */\n      0x00\n        /* \"#utility.yul\":22389:22553   */\n      dup2\n      eq\n      tag_583\n      jumpi\n        /* \"#utility.yul\":22567:22568   */\n      0x01\n        /* \"#utility.yul\":22562:22898   */\n      dup2\n      eq\n      tag_584\n      jumpi\n        /* \"#utility.yul\":22356:22898   */\n      jump(tag_582)\n        /* \"#utility.yul\":22389:22553   */\n    tag_583:\n        /* \"#utility.yul\":22473:22477   */\n      0xff\n        /* \"#utility.yul\":22469:22478   */\n      not\n        /* \"#utility.yul\":22458:22467   */\n      dup4\n        /* \"#utility.yul\":22454:22479   */\n      and\n        /* \"#utility.yul\":22449:22452   */\n      dup7\n        /* \"#utility.yul\":22442:22480   */\n      mstore\n        /* \"#utility.yul\":22533:22539   */\n      dup2\n        /* \"#utility.yul\":22526:22540   */\n      iszero\n        /* \"#utility.yul\":22519:22541   */\n      iszero\n        /* \"#utility.yul\":22513:22517   */\n      0x20\n        /* \"#utility.yul\":22509:22542   */\n      mul\n        /* \"#utility.yul\":22504:22507   */\n      dup7\n        /* \"#utility.yul\":22500:22543   */\n      add\n        /* \"#utility.yul\":22493:22543   */\n      swap4\n      pop\n        /* \"#utility.yul\":22389:22553   */\n      jump(tag_582)\n        /* \"#utility.yul\":22562:22898   */\n    tag_584:\n        /* \"#utility.yul\":22629:22667   */\n      tag_585\n        /* \"#utility.yul\":22661:22666   */\n      dup6\n        /* \"#utility.yul\":22629:22667   */\n      tag_310\n      jump\t// in\n    tag_585:\n        /* \"#utility.yul\":22689:22690   */\n      0x00\n        /* \"#utility.yul\":22703:22857   */\n    tag_586:\n        /* \"#utility.yul\":22717:22723   */\n      dup4\n        /* \"#utility.yul\":22714:22715   */\n      dup2\n        /* \"#utility.yul\":22711:22724   */\n      lt\n        /* \"#utility.yul\":22703:22857   */\n      iszero\n      tag_588\n      jumpi\n        /* \"#utility.yul\":22791:22798   */\n      dup2\n        /* \"#utility.yul\":22785:22799   */\n      sload\n        /* \"#utility.yul\":22781:22782   */\n      dup2\n        /* \"#utility.yul\":22776:22779   */\n      dup10\n        /* \"#utility.yul\":22772:22783   */\n      add\n        /* \"#utility.yul\":22765:22800   */\n      mstore\n        /* \"#utility.yul\":22841:22842   */\n      0x01\n        /* \"#utility.yul\":22832:22839   */\n      dup3\n        /* \"#utility.yul\":22828:22843   */\n      add\n        /* \"#utility.yul\":22817:22843   */\n      swap2\n      pop\n        /* \"#utility.yul\":22739:22743   */\n      0x20\n        /* \"#utility.yul\":22736:22737   */\n      dup2\n        /* \"#utility.yul\":22732:22744   */\n      add\n        /* \"#utility.yul\":22727:22744   */\n      swap1\n      pop\n        /* \"#utility.yul\":22703:22857   */\n      jump(tag_586)\n    tag_588:\n        /* \"#utility.yul\":22886:22887   */\n      dup1\n        /* \"#utility.yul\":22881:22884   */\n      dup9\n        /* \"#utility.yul\":22877:22888   */\n      add\n        /* \"#utility.yul\":22870:22888   */\n      swap6\n      pop\n        /* \"#utility.yul\":22569:22898   */\n      pop\n      pop\n        /* \"#utility.yul\":22356:22898   */\n    tag_582:\n      pop\n        /* \"#utility.yul\":22162:22904   */\n      pop\n      pop\n        /* \"#utility.yul\":22073:22904   */\n      swap3\n      swap2\n      pop\n      pop\n      jump\t// out\n        /* \"#utility.yul\":22910:23217   */\n    tag_127:\n        /* \"#utility.yul\":23020:23024   */\n      0x00\n        /* \"#utility.yul\":23058:23060   */\n      0x20\n        /* \"#utility.yul\":23047:23056   */\n      dup3\n        /* \"#utility.yul\":23043:23061   */\n      add\n        /* \"#utility.yul\":23035:23061   */\n      swap1\n      pop\n        /* \"#utility.yul\":23107:23116   */\n      dup2\n        /* \"#utility.yul\":23101:23105   */\n      dup2\n        /* \"#utility.yul\":23097:23117   */\n      sub\n        /* \"#utility.yul\":23093:23094   */\n      0x00\n        /* \"#utility.yul\":23082:23091   */\n      dup4\n        /* \"#utility.yul\":23078:23095   */\n      add\n        /* \"#utility.yul\":23071:23118   */\n      mstore\n        /* \"#utility.yul\":23135:23210   */\n      tag_590\n        /* \"#utility.yul\":23205:23209   */\n      dup2\n        /* \"#utility.yul\":23196:23202   */\n      dup5\n        /* \"#utility.yul\":23135:23210   */\n      tag_322\n      jump\t// in\n    tag_590:\n        /* \"#utility.yul\":23127:23210   */\n      swap1\n      pop\n        /* \"#utility.yul\":22910:23217   */\n      swap3\n      swap2\n      pop\n      pop\n      jump\t// out\n        /* \"#utility.yul\":23223:23388   */\n    tag_323:\n        /* \"#utility.yul\":23363:23380   */\n      0x4469726563742057697468647261770000000000000000000000000000000000\n        /* \"#utility.yul\":23359:23360   */\n      0x00\n        /* \"#utility.yul\":23351:23357   */\n      dup3\n        /* \"#utility.yul\":23347:23361   */\n      add\n        /* \"#utility.yul\":23340:23381   */\n      mstore\n        /* \"#utility.yul\":23223:23388   */\n      pop\n      jump\t// out\n        /* \"#utility.yul\":23394:23760   */\n    tag_324:\n        /* \"#utility.yul\":23536:23539   */\n      0x00\n        /* \"#utility.yul\":23557:23624   */\n      tag_593\n        /* \"#utility.yul\":23621:23623   */\n      0x0f\n        /* \"#utility.yul\":23616:23619   */\n      dup4\n        /* \"#utility.yul\":23557:23624   */\n      tag_268\n      jump\t// in\n    tag_593:\n        /* \"#utility.yul\":23550:23624   */\n      swap2\n      pop\n        /* \"#utility.yul\":23633:23726   */\n      tag_594\n        /* \"#utility.yul\":23722:23725   */\n      dup3\n        /* \"#utility.yul\":23633:23726   */\n      tag_323\n      jump\t// in\n    tag_594:\n        /* \"#utility.yul\":23751:23753   */\n      0x20\n        /* \"#utility.yul\":23746:23749   */\n      dup3\n        /* \"#utility.yul\":23742:23754   */\n      add\n        /* \"#utility.yul\":23735:23754   */\n      swap1\n      pop\n        /* \"#utility.yul\":23394:23760   */\n      swap2\n      swap1\n      pop\n      jump\t// out\n        /* \"#utility.yul\":23766:23901   */\n    tag_325:\n        /* \"#utility.yul\":23854:23860   */\n      0x00\n        /* \"#utility.yul\":23888:23893   */\n      dup2\n        /* \"#utility.yul\":23882:23894   */\n      mload\n        /* \"#utility.yul\":23872:23894   */\n      swap1\n      pop\n        /* \"#utility.yul\":23766:23901   */\n      swap2\n      swap1\n      pop\n      jump\t// out\n        /* \"#utility.yul\":23907:24112   */\n    tag_326:\n        /* \"#utility.yul\":24027:24038   */\n      0x00\n        /* \"#utility.yul\":24061:24067   */\n      dup3\n        /* \"#utility.yul\":24056:24059   */\n      dup3\n        /* \"#utility.yul\":24049:24068   */\n      mstore\n        /* \"#utility.yul\":24101:24105   */\n      0x20\n        /* \"#utility.yul\":24096:24099   */\n      dup3\n        /* \"#utility.yul\":24092:24106   */\n      add\n        /* \"#utility.yul\":24077:24106   */\n      swap1\n      pop\n        /* \"#utility.yul\":23907:24112   */\n      swap3\n      swap2\n      pop\n      pop\n      jump\t// out\n        /* \"#utility.yul\":24118:24271   */\n    tag_327:\n        /* \"#utility.yul\":24206:24210   */\n      0x00\n        /* \"#utility.yul\":24229:24232   */\n      dup2\n        /* \"#utility.yul\":24221:24232   */\n      swap1\n      pop\n        /* \"#utility.yul\":24259:24263   */\n      0x20\n        /* \"#utility.yul\":24254:24257   */\n      dup3\n        /* \"#utility.yul\":24250:24264   */\n      add\n        /* \"#utility.yul\":24242:24264   */\n      swap1\n      pop\n        /* \"#utility.yul\":24118:24271   */\n      swap2\n      swap1\n      pop\n      jump\t// out\n        /* \"#utility.yul\":24277:24436   */\n    tag_328:\n        /* \"#utility.yul\":24351:24362   */\n      0x00\n        /* \"#utility.yul\":24385:24391   */\n      dup3\n        /* \"#utility.yul\":24380:24383   */\n      dup3\n        /* \"#utility.yul\":24373:24392   */\n      mstore\n        /* \"#utility.yul\":24425:24429   */\n      0x20\n        /* \"#utility.yul\":24420:24423   */\n      dup3\n        /* \"#utility.yul\":24416:24430   */\n      add\n        /* \"#utility.yul\":24401:24430   */\n      swap1\n      pop\n        /* \"#utility.yul\":24277:24436   */\n      swap3\n      swap2\n      pop\n      pop\n      jump\t// out\n        /* \"#utility.yul\":24442:24799   */\n    tag_329:\n        /* \"#utility.yul\":24520:24523   */\n      0x00\n        /* \"#utility.yul\":24548:24587   */\n      tag_600\n        /* \"#utility.yul\":24581:24586   */\n      dup3\n        /* \"#utility.yul\":24548:24587   */\n      tag_267\n      jump\t// in\n    tag_600:\n        /* \"#utility.yul\":24603:24664   */\n      tag_601\n        /* \"#utility.yul\":24657:24663   */\n      dup2\n        /* \"#utility.yul\":24652:24655   */\n      dup6\n        /* \"#utility.yul\":24603:24664   */\n      tag_328\n      jump\t// in\n    tag_601:\n        /* \"#utility.yul\":24596:24664   */\n      swap4\n      pop\n        /* \"#utility.yul\":24673:24738   */\n      tag_602\n        /* \"#utility.yul\":24731:24737   */\n      dup2\n        /* \"#utility.yul\":24726:24729   */\n      dup6\n        /* \"#utility.yul\":24719:24723   */\n      0x20\n        /* \"#utility.yul\":24712:24717   */\n      dup7\n        /* \"#utility.yul\":24708:24724   */\n      add\n        /* \"#utility.yul\":24673:24738   */\n      tag_269\n      jump\t// in\n    tag_602:\n        /* \"#utility.yul\":24763:24792   */\n      tag_603\n        /* \"#utility.yul\":24785:24791   */\n      dup2\n        /* \"#utility.yul\":24763:24792   */\n      tag_270\n      jump\t// in\n    tag_603:\n        /* \"#utility.yul\":24758:24761   */\n      dup5\n        /* \"#utility.yul\":24754:24793   */\n      add\n        /* \"#utility.yul\":24747:24793   */\n      swap2\n      pop\n        /* \"#utility.yul\":24524:24799   */\n      pop\n        /* \"#utility.yul\":24442:24799   */\n      swap3\n      swap2\n      pop\n      pop\n      jump\t// out\n        /* \"#utility.yul\":24805:24903   */\n    tag_330:\n        /* \"#utility.yul\":24856:24862   */\n      0x00\n        /* \"#utility.yul\":24890:24895   */\n      dup2\n        /* \"#utility.yul\":24884:24896   */\n      mload\n        /* \"#utility.yul\":24874:24896   */\n      swap1\n      pop\n        /* \"#utility.yul\":24805:24903   */\n      swap2\n      swap1\n      pop\n      jump\t// out\n        /* \"#utility.yul\":24909:25067   */\n    tag_331:\n        /* \"#utility.yul\":24982:24993   */\n      0x00\n        /* \"#utility.yul\":25016:25022   */\n      dup3\n        /* \"#utility.yul\":25011:25014   */\n      dup3\n        /* \"#utility.yul\":25004:25023   */\n      mstore\n        /* \"#utility.yul\":25056:25060   */\n      0x20\n        /* \"#utility.yul\":25051:25054   */\n      dup3\n        /* \"#utility.yul\":25047:25061   */\n      add\n        /* \"#utility.yul\":25032:25061   */\n      swap1\n      pop\n        /* \"#utility.yul\":24909:25067   */\n      swap3\n      swap2\n      pop\n      pop\n      jump\t// out\n        /* \"#utility.yul\":25073:25426   */\n    tag_332:\n        /* \"#utility.yul\":25149:25152   */\n      0x00\n        /* \"#utility.yul\":25177:25215   */\n      tag_607\n        /* \"#utility.yul\":25209:25214   */\n      dup3\n        /* \"#utility.yul\":25177:25215   */\n      tag_330\n      jump\t// in\n    tag_607:\n        /* \"#utility.yul\":25231:25291   */\n      tag_608\n        /* \"#utility.yul\":25284:25290   */\n      dup2\n        /* \"#utility.yul\":25279:25282   */\n      dup6\n        /* \"#utility.yul\":25231:25291   */\n      tag_331\n      jump\t// in\n    tag_608:\n        /* \"#utility.yul\":25224:25291   */\n      swap4\n      pop\n        /* \"#utility.yul\":25300:25365   */\n      tag_609\n        /* \"#utility.yul\":25358:25364   */\n      dup2\n        /* \"#utility.yul\":25353:25356   */\n      dup6\n        /* \"#utility.yul\":25346:25350   */\n      0x20\n        /* \"#utility.yul\":25339:25344   */\n      dup7\n        /* \"#utility.yul\":25335:25351   */\n      add\n        /* \"#utility.yul\":25300:25365   */\n      tag_269\n      jump\t// in\n    tag_609:\n        /* \"#utility.yul\":25390:25419   */\n      tag_610\n        /* \"#utility.yul\":25412:25418   */\n      dup2\n        /* \"#utility.yul\":25390:25419   */\n      tag_270\n      jump\t// in\n    tag_610:\n        /* \"#utility.yul\":25385:25388   */\n      dup5\n        /* \"#utility.yul\":25381:25420   */\n      add\n        /* \"#utility.yul\":25374:25420   */\n      swap2\n      pop\n        /* \"#utility.yul\":25153:25426   */\n      pop\n        /* \"#utility.yul\":25073:25426   */\n      swap3\n      swap2\n      pop\n      pop\n      jump\t// out\n        /* \"#utility.yul\":25482:26389   */\n    tag_333:\n        /* \"#utility.yul\":25583:25586   */\n      0x00\n        /* \"#utility.yul\":25619:25623   */\n      0x60\n        /* \"#utility.yul\":25614:25617   */\n      dup4\n        /* \"#utility.yul\":25610:25624   */\n      add\n        /* \"#utility.yul\":25706:25710   */\n      0x00\n        /* \"#utility.yul\":25699:25704   */\n      dup4\n        /* \"#utility.yul\":25695:25711   */\n      add\n        /* \"#utility.yul\":25689:25712   */\n      mload\n        /* \"#utility.yul\":25759:25762   */\n      dup5\n        /* \"#utility.yul\":25753:25757   */\n      dup3\n        /* \"#utility.yul\":25749:25763   */\n      sub\n        /* \"#utility.yul\":25742:25746   */\n      0x00\n        /* \"#utility.yul\":25737:25740   */\n      dup7\n        /* \"#utility.yul\":25733:25747   */\n      add\n        /* \"#utility.yul\":25726:25764   */\n      mstore\n        /* \"#utility.yul\":25785:25858   */\n      tag_612\n        /* \"#utility.yul\":25853:25857   */\n      dup3\n        /* \"#utility.yul\":25839:25851   */\n      dup3\n        /* \"#utility.yul\":25785:25858   */\n      tag_329\n      jump\t// in\n    tag_612:\n        /* \"#utility.yul\":25777:25858   */\n      swap2\n      pop\n        /* \"#utility.yul\":25634:25869   */\n      pop\n        /* \"#utility.yul\":25955:25959   */\n      0x20\n        /* \"#utility.yul\":25948:25953   */\n      dup4\n        /* \"#utility.yul\":25944:25960   */\n      add\n        /* \"#utility.yul\":25938:25961   */\n      mload\n        /* \"#utility.yul\":26008:26011   */\n      dup5\n        /* \"#utility.yul\":26002:26006   */\n      dup3\n        /* \"#utility.yul\":25998:26012   */\n      sub\n        /* \"#utility.yul\":25991:25995   */\n      0x20\n        /* \"#utility.yul\":25986:25989   */\n      dup7\n        /* \"#utility.yul\":25982:25996   */\n      add\n        /* \"#utility.yul\":25975:26013   */\n      mstore\n        /* \"#utility.yul\":26034:26107   */\n      tag_613\n        /* \"#utility.yul\":26102:26106   */\n      dup3\n        /* \"#utility.yul\":26088:26100   */\n      dup3\n        /* \"#utility.yul\":26034:26107   */\n      tag_329\n      jump\t// in\n    tag_613:\n        /* \"#utility.yul\":26026:26107   */\n      swap2\n      pop\n        /* \"#utility.yul\":25879:26118   */\n      pop\n        /* \"#utility.yul\":26201:26205   */\n      0x40\n        /* \"#utility.yul\":26194:26199   */\n      dup4\n        /* \"#utility.yul\":26190:26206   */\n      add\n        /* \"#utility.yul\":26184:26207   */\n      mload\n        /* \"#utility.yul\":26254:26257   */\n      dup5\n        /* \"#utility.yul\":26248:26252   */\n      dup3\n        /* \"#utility.yul\":26244:26258   */\n      sub\n        /* \"#utility.yul\":26237:26241   */\n      0x40\n        /* \"#utility.yul\":26232:26235   */\n      dup7\n        /* \"#utility.yul\":26228:26242   */\n      add\n        /* \"#utility.yul\":26221:26259   */\n      mstore\n        /* \"#utility.yul\":26280:26351   */\n      tag_614\n        /* \"#utility.yul\":26346:26350   */\n      dup3\n        /* \"#utility.yul\":26332:26344   */\n      dup3\n        /* \"#utility.yul\":26280:26351   */\n      tag_332\n      jump\t// in\n    tag_614:\n        /* \"#utility.yul\":26272:26351   */\n      swap2\n      pop\n        /* \"#utility.yul\":26128:26362   */\n      pop\n        /* \"#utility.yul\":26379:26383   */\n      dup1\n        /* \"#utility.yul\":26372:26383   */\n      swap2\n      pop\n        /* \"#utility.yul\":25588:26389   */\n      pop\n        /* \"#utility.yul\":25482:26389   */\n      swap3\n      swap2\n      pop\n      pop\n      jump\t// out\n        /* \"#utility.yul\":26395:26635   */\n    tag_334:\n        /* \"#utility.yul\":26506:26516   */\n      0x00\n        /* \"#utility.yul\":26541:26629   */\n      tag_616\n        /* \"#utility.yul\":26625:26628   */\n      dup4\n        /* \"#utility.yul\":26617:26623   */\n      dup4\n        /* \"#utility.yul\":26541:26629   */\n      tag_333\n      jump\t// in\n    tag_616:\n        /* \"#utility.yul\":26527:26629   */\n      swap1\n      pop\n        /* \"#utility.yul\":26395:26635   */\n      swap3\n      swap2\n      pop\n      pop\n      jump\t// out\n        /* \"#utility.yul\":26641:26775   */\n    tag_335:\n        /* \"#utility.yul\":26732:26736   */\n      0x00\n        /* \"#utility.yul\":26764:26768   */\n      0x20\n        /* \"#utility.yul\":26759:26762   */\n      dup3\n        /* \"#utility.yul\":26755:26769   */\n      add\n        /* \"#utility.yul\":26747:26769   */\n      swap1\n      pop\n        /* \"#utility.yul\":26641:26775   */\n      swap2\n      swap1\n      pop\n      jump\t// out\n        /* \"#utility.yul\":26835:27914   */\n    tag_336:\n        /* \"#utility.yul\":26996:26999   */\n      0x00\n        /* \"#utility.yul\":27025:27100   */\n      tag_619\n        /* \"#utility.yul\":27094:27099   */\n      dup3\n        /* \"#utility.yul\":27025:27100   */\n      tag_325\n      jump\t// in\n    tag_619:\n        /* \"#utility.yul\":27116:27223   */\n      tag_620\n        /* \"#utility.yul\":27216:27222   */\n      dup2\n        /* \"#utility.yul\":27211:27214   */\n      dup6\n        /* \"#utility.yul\":27116:27223   */\n      tag_326\n      jump\t// in\n    tag_620:\n        /* \"#utility.yul\":27109:27223   */\n      swap4\n      pop\n        /* \"#utility.yul\":27249:27252   */\n      dup4\n        /* \"#utility.yul\":27294:27298   */\n      0x20\n        /* \"#utility.yul\":27286:27292   */\n      dup3\n        /* \"#utility.yul\":27282:27299   */\n      mul\n        /* \"#utility.yul\":27277:27280   */\n      dup6\n        /* \"#utility.yul\":27273:27300   */\n      add\n        /* \"#utility.yul\":27324:27401   */\n      tag_621\n        /* \"#utility.yul\":27395:27400   */\n      dup6\n        /* \"#utility.yul\":27324:27401   */\n      tag_327\n      jump\t// in\n    tag_621:\n        /* \"#utility.yul\":27424:27431   */\n      dup1\n        /* \"#utility.yul\":27455:27456   */\n      0x00\n        /* \"#utility.yul\":27440:27869   */\n    tag_622:\n        /* \"#utility.yul\":27465:27471   */\n      dup6\n        /* \"#utility.yul\":27462:27463   */\n      dup2\n        /* \"#utility.yul\":27459:27472   */\n      lt\n        /* \"#utility.yul\":27440:27869   */\n      iszero\n      tag_624\n      jumpi\n        /* \"#utility.yul\":27536:27545   */\n      dup5\n        /* \"#utility.yul\":27530:27534   */\n      dup5\n        /* \"#utility.yul\":27526:27546   */\n      sub\n        /* \"#utility.yul\":27521:27524   */\n      dup10\n        /* \"#utility.yul\":27514:27547   */\n      mstore\n        /* \"#utility.yul\":27587:27593   */\n      dup2\n        /* \"#utility.yul\":27581:27594   */\n      mload\n        /* \"#utility.yul\":27615:27721   */\n      tag_625\n        /* \"#utility.yul\":27716:27720   */\n      dup6\n        /* \"#utility.yul\":27701:27714   */\n      dup3\n        /* \"#utility.yul\":27615:27721   */\n      tag_334\n      jump\t// in\n    tag_625:\n        /* \"#utility.yul\":27607:27721   */\n      swap5\n      pop\n        /* \"#utility.yul\":27744:27825   */\n      tag_626\n        /* \"#utility.yul\":27818:27824   */\n      dup4\n        /* \"#utility.yul\":27744:27825   */\n      tag_335\n      jump\t// in\n    tag_626:\n        /* \"#utility.yul\":27734:27825   */\n      swap3\n      pop\n        /* \"#utility.yul\":27854:27858   */\n      0x20\n        /* \"#utility.yul\":27849:27852   */\n      dup11\n        /* \"#utility.yul\":27845:27859   */\n      add\n        /* \"#utility.yul\":27838:27859   */\n      swap10\n      pop\n        /* \"#utility.yul\":27500:27869   */\n      pop\n        /* \"#utility.yul\":27487:27488   */\n      0x01\n        /* \"#utility.yul\":27484:27485   */\n      dup2\n        /* \"#utility.yul\":27480:27489   */\n      add\n        /* \"#utility.yul\":27475:27489   */\n      swap1\n      pop\n        /* \"#utility.yul\":27440:27869   */\n      jump(tag_622)\n    tag_624:\n        /* \"#utility.yul\":27444:27458   */\n      pop\n        /* \"#utility.yul\":27885:27889   */\n      dup3\n        /* \"#utility.yul\":27878:27889   */\n      swap8\n      pop\n        /* \"#utility.yul\":27905:27908   */\n      dup8\n        /* \"#utility.yul\":27898:27908   */\n      swap6\n      pop\n        /* \"#utility.yul\":27001:27914   */\n      pop\n      pop\n      pop\n      pop\n      pop\n        /* \"#utility.yul\":26835:27914   */\n      swap3\n      swap2\n      pop\n      pop\n      jump\t// out\n        /* \"#utility.yul\":27920:28684   */\n    tag_137:\n        /* \"#utility.yul\":28206:28210   */\n      0x00\n        /* \"#utility.yul\":28244:28246   */\n      0x40\n        /* \"#utility.yul\":28233:28242   */\n      dup3\n        /* \"#utility.yul\":28229:28247   */\n      add\n        /* \"#utility.yul\":28221:28247   */\n      swap1\n      pop\n        /* \"#utility.yul\":28293:28302   */\n      dup2\n        /* \"#utility.yul\":28287:28291   */\n      dup2\n        /* \"#utility.yul\":28283:28303   */\n      sub\n        /* \"#utility.yul\":28279:28280   */\n      0x00\n        /* \"#utility.yul\":28268:28277   */\n      dup4\n        /* \"#utility.yul\":28264:28281   */\n      add\n        /* \"#utility.yul\":28257:28304   */\n      mstore\n        /* \"#utility.yul\":28321:28452   */\n      tag_628\n        /* \"#utility.yul\":28447:28451   */\n      dup2\n        /* \"#utility.yul\":28321:28452   */\n      tag_324\n      jump\t// in\n    tag_628:\n        /* \"#utility.yul\":28313:28452   */\n      swap1\n      pop\n        /* \"#utility.yul\":28499:28508   */\n      dup2\n        /* \"#utility.yul\":28493:28497   */\n      dup2\n        /* \"#utility.yul\":28489:28509   */\n      sub\n        /* \"#utility.yul\":28484:28486   */\n      0x20\n        /* \"#utility.yul\":28473:28482   */\n      dup4\n        /* \"#utility.yul\":28469:28487   */\n      add\n        /* \"#utility.yul\":28462:28510   */\n      mstore\n        /* \"#utility.yul\":28527:28677   */\n      tag_629\n        /* \"#utility.yul\":28672:28676   */\n      dup2\n        /* \"#utility.yul\":28663:28669   */\n      dup5\n        /* \"#utility.yul\":28527:28677   */\n      tag_336\n      jump\t// in\n    tag_629:\n        /* \"#utility.yul\":28519:28677   */\n      swap1\n      pop\n        /* \"#utility.yul\":27920:28684   */\n      swap3\n      swap2\n      pop\n      pop\n      jump\t// out\n        /* \"#utility.yul\":28690:29107   */\n    tag_142:\n        /* \"#utility.yul\":28828:28832   */\n      0x00\n        /* \"#utility.yul\":28866:28868   */\n      0x40\n        /* \"#utility.yul\":28855:28864   */\n      dup3\n        /* \"#utility.yul\":28851:28869   */\n      add\n        /* \"#utility.yul\":28843:28869   */\n      swap1\n      pop\n        /* \"#utility.yul\":28879:28950   */\n      tag_631\n        /* \"#utility.yul\":28947:28948   */\n      0x00\n        /* \"#utility.yul\":28936:28945   */\n      dup4\n        /* \"#utility.yul\":28932:28949   */\n      add\n        /* \"#utility.yul\":28923:28929   */\n      dup6\n        /* \"#utility.yul\":28879:28950   */\n      tag_291\n      jump\t// in\n    tag_631:\n        /* \"#utility.yul\":28997:29006   */\n      dup2\n        /* \"#utility.yul\":28991:28995   */\n      dup2\n        /* \"#utility.yul\":28987:29007   */\n      sub\n        /* \"#utility.yul\":28982:28984   */\n      0x20\n        /* \"#utility.yul\":28971:28980   */\n      dup4\n        /* \"#utility.yul\":28967:28985   */\n      add\n        /* \"#utility.yul\":28960:29008   */\n      mstore\n        /* \"#utility.yul\":29025:29100   */\n      tag_632\n        /* \"#utility.yul\":29095:29099   */\n      dup2\n        /* \"#utility.yul\":29086:29092   */\n      dup5\n        /* \"#utility.yul\":29025:29100   */\n      tag_322\n      jump\t// in\n    tag_632:\n        /* \"#utility.yul\":29017:29100   */\n      swap1\n      pop\n        /* \"#utility.yul\":28690:29107   */\n      swap4\n      swap3\n      pop\n      pop\n      pop\n      jump\t// out\n        /* \"#utility.yul\":29113:29289   */\n    tag_337:\n        /* \"#utility.yul\":29253:29281   */\n      0x5661756c743a204465706f736974206d757374206265203e2030000000000000\n        /* \"#utility.yul\":29249:29250   */\n      0x00\n        /* \"#utility.yul\":29241:29247   */\n      dup3\n        /* \"#utility.yul\":29237:29251   */\n      add\n        /* \"#utility.yul\":29230:29282   */\n      mstore\n        /* \"#utility.yul\":29113:29289   */\n      pop\n      jump\t// out\n        /* \"#utility.yul\":29295:29661   */\n    tag_338:\n        /* \"#utility.yul\":29437:29440   */\n      0x00\n        /* \"#utility.yul\":29458:29525   */\n      tag_635\n        /* \"#utility.yul\":29522:29524   */\n      0x1a\n        /* \"#utility.yul\":29517:29520   */\n      dup4\n        /* \"#utility.yul\":29458:29525   */\n      tag_268\n      jump\t// in\n    tag_635:\n        /* \"#utility.yul\":29451:29525   */\n      swap2\n      pop\n        /* \"#utility.yul\":29534:29627   */\n      tag_636\n        /* \"#utility.yul\":29623:29626   */\n      dup3\n        /* \"#utility.yul\":29534:29627   */\n      tag_337\n      jump\t// in\n    tag_636:\n        /* \"#utility.yul\":29652:29654   */\n      0x20\n        /* \"#utility.yul\":29647:29650   */\n      dup3\n        /* \"#utility.yul\":29643:29655   */\n      add\n        /* \"#utility.yul\":29636:29655   */\n      swap1\n      pop\n        /* \"#utility.yul\":29295:29661   */\n      swap2\n      swap1\n      pop\n      jump\t// out\n        /* \"#utility.yul\":29667:30086   */\n    tag_150:\n        /* \"#utility.yul\":29833:29837   */\n      0x00\n        /* \"#utility.yul\":29871:29873   */\n      0x20\n        /* \"#utility.yul\":29860:29869   */\n      dup3\n        /* \"#utility.yul\":29856:29874   */\n      add\n        /* \"#utility.yul\":29848:29874   */\n      swap1\n      pop\n        /* \"#utility.yul\":29920:29929   */\n      dup2\n        /* \"#utility.yul\":29914:29918   */\n      dup2\n        /* \"#utility.yul\":29910:29930   */\n      sub\n        /* \"#utility.yul\":29906:29907   */\n      0x00\n        /* \"#utility.yul\":29895:29904   */\n      dup4\n        /* \"#utility.yul\":29891:29908   */\n      add\n        /* \"#utility.yul\":29884:29931   */\n      mstore\n        /* \"#utility.yul\":29948:30079   */\n      tag_638\n        /* \"#utility.yul\":30074:30078   */\n      dup2\n        /* \"#utility.yul\":29948:30079   */\n      tag_338\n      jump\t// in\n    tag_638:\n        /* \"#utility.yul\":29940:30079   */\n      swap1\n      pop\n        /* \"#utility.yul\":29667:30086   */\n      swap2\n      swap1\n      pop\n      jump\t// out\n        /* \"#utility.yul\":30092:30249   */\n    tag_339:\n        /* \"#utility.yul\":30232:30241   */\n      0x4465706f73697400000000000000000000000000000000000000000000000000\n        /* \"#utility.yul\":30228:30229   */\n      0x00\n        /* \"#utility.yul\":30220:30226   */\n      dup3\n        /* \"#utility.yul\":30216:30230   */\n      add\n        /* \"#utility.yul\":30209:30242   */\n      mstore\n        /* \"#utility.yul\":30092:30249   */\n      pop\n      jump\t// out\n        /* \"#utility.yul\":30255:30620   */\n    tag_340:\n        /* \"#utility.yul\":30397:30400   */\n      0x00\n        /* \"#utility.yul\":30418:30484   */\n      tag_641\n        /* \"#utility.yul\":30482:30483   */\n      0x07\n        /* \"#utility.yul\":30477:30480   */\n      dup4\n        /* \"#utility.yul\":30418:30484   */\n      tag_268\n      jump\t// in\n    tag_641:\n        /* \"#utility.yul\":30411:30484   */\n      swap2\n      pop\n        /* \"#utility.yul\":30493:30586   */\n      tag_642\n        /* \"#utility.yul\":30582:30585   */\n      dup3\n        /* \"#utility.yul\":30493:30586   */\n      tag_339\n      jump\t// in\n    tag_642:\n        /* \"#utility.yul\":30611:30613   */\n      0x20\n        /* \"#utility.yul\":30606:30609   */\n      dup3\n        /* \"#utility.yul\":30602:30614   */\n      add\n        /* \"#utility.yul\":30595:30614   */\n      swap1\n      pop\n        /* \"#utility.yul\":30255:30620   */\n      swap2\n      swap1\n      pop\n      jump\t// out\n        /* \"#utility.yul\":30626:31390   */\n    tag_179:\n        /* \"#utility.yul\":30912:30916   */\n      0x00\n        /* \"#utility.yul\":30950:30952   */\n      0x40\n        /* \"#utility.yul\":30939:30948   */\n      dup3\n        /* \"#utility.yul\":30935:30953   */\n      add\n        /* \"#utility.yul\":30927:30953   */\n      swap1\n      pop\n        /* \"#utility.yul\":30999:31008   */\n      dup2\n        /* \"#utility.yul\":30993:30997   */\n      dup2\n        /* \"#utility.yul\":30989:31009   */\n      sub\n        /* \"#utility.yul\":30985:30986   */\n      0x00\n        /* \"#utility.yul\":30974:30983   */\n      dup4\n        /* \"#utility.yul\":30970:30987   */\n      add\n        /* \"#utility.yul\":30963:31010   */\n      mstore\n        /* \"#utility.yul\":31027:31158   */\n      tag_644\n        /* \"#utility.yul\":31153:31157   */\n      dup2\n        /* \"#utility.yul\":31027:31158   */\n      tag_340\n      jump\t// in\n    tag_644:\n        /* \"#utility.yul\":31019:31158   */\n      swap1\n      pop\n        /* \"#utility.yul\":31205:31214   */\n      dup2\n        /* \"#utility.yul\":31199:31203   */\n      dup2\n        /* \"#utility.yul\":31195:31215   */\n      sub\n        /* \"#utility.yul\":31190:31192   */\n      0x20\n        /* \"#utility.yul\":31179:31188   */\n      dup4\n        /* \"#utility.yul\":31175:31193   */\n      add\n        /* \"#utility.yul\":31168:31216   */\n      mstore\n        /* \"#utility.yul\":31233:31383   */\n      tag_645\n        /* \"#utility.yul\":31378:31382   */\n      dup2\n        /* \"#utility.yul\":31369:31375   */\n      dup5\n        /* \"#utility.yul\":31233:31383   */\n      tag_336\n      jump\t// in\n    tag_645:\n        /* \"#utility.yul\":31225:31383   */\n      swap1\n      pop\n        /* \"#utility.yul\":30626:31390   */\n      swap3\n      swap2\n      pop\n      pop\n      jump\t// out\n        /* \"#utility.yul\":31396:31564   */\n    tag_341:\n        /* \"#utility.yul\":31479:31490   */\n      0x00\n        /* \"#utility.yul\":31513:31519   */\n      dup3\n        /* \"#utility.yul\":31508:31511   */\n      dup3\n        /* \"#utility.yul\":31501:31520   */\n      mstore\n        /* \"#utility.yul\":31553:31557   */\n      0x20\n        /* \"#utility.yul\":31548:31551   */\n      dup3\n        /* \"#utility.yul\":31544:31558   */\n      add\n        /* \"#utility.yul\":31529:31558   */\n      swap1\n      pop\n        /* \"#utility.yul\":31396:31564   */\n      swap3\n      swap2\n      pop\n      pop\n      jump\t// out\n        /* \"#utility.yul\":31592:31906   */\n    tag_342:\n        /* \"#utility.yul\":31688:31691   */\n      0x00\n        /* \"#utility.yul\":31709:31779   */\n      tag_648\n        /* \"#utility.yul\":31772:31778   */\n      dup4\n        /* \"#utility.yul\":31767:31770   */\n      dup6\n        /* \"#utility.yul\":31709:31779   */\n      tag_341\n      jump\t// in\n    tag_648:\n        /* \"#utility.yul\":31702:31779   */\n      swap4\n      pop\n        /* \"#utility.yul\":31789:31845   */\n      tag_649\n        /* \"#utility.yul\":31838:31844   */\n      dup4\n        /* \"#utility.yul\":31833:31836   */\n      dup6\n        /* \"#utility.yul\":31826:31831   */\n      dup5\n        /* \"#utility.yul\":31789:31845   */\n      tag_280\n      jump\t// in\n    tag_649:\n        /* \"#utility.yul\":31870:31899   */\n      tag_650\n        /* \"#utility.yul\":31892:31898   */\n      dup4\n        /* \"#utility.yul\":31870:31899   */\n      tag_270\n      jump\t// in\n    tag_650:\n        /* \"#utility.yul\":31865:31868   */\n      dup5\n        /* \"#utility.yul\":31861:31900   */\n      add\n        /* \"#utility.yul\":31854:31900   */\n      swap1\n      pop\n        /* \"#utility.yul\":31592:31906   */\n      swap4\n      swap3\n      pop\n      pop\n      pop\n      jump\t// out\n        /* \"#utility.yul\":31912:32241   */\n    tag_194:\n        /* \"#utility.yul\":32033:32037   */\n      0x00\n        /* \"#utility.yul\":32071:32073   */\n      0x20\n        /* \"#utility.yul\":32060:32069   */\n      dup3\n        /* \"#utility.yul\":32056:32074   */\n      add\n        /* \"#utility.yul\":32048:32074   */\n      swap1\n      pop\n        /* \"#utility.yul\":32120:32129   */\n      dup2\n        /* \"#utility.yul\":32114:32118   */\n      dup2\n        /* \"#utility.yul\":32110:32130   */\n      sub\n        /* \"#utility.yul\":32106:32107   */\n      0x00\n        /* \"#utility.yul\":32095:32104   */\n      dup4\n        /* \"#utility.yul\":32091:32108   */\n      add\n        /* \"#utility.yul\":32084:32131   */\n      mstore\n        /* \"#utility.yul\":32148:32234   */\n      tag_652\n        /* \"#utility.yul\":32229:32233   */\n      dup2\n        /* \"#utility.yul\":32220:32226   */\n      dup5\n        /* \"#utility.yul\":32212:32218   */\n      dup7\n        /* \"#utility.yul\":32148:32234   */\n      tag_342\n      jump\t// in\n    tag_652:\n        /* \"#utility.yul\":32140:32234   */\n      swap1\n      pop\n        /* \"#utility.yul\":31912:32241   */\n      swap4\n      swap3\n      pop\n      pop\n      pop\n      jump\t// out\n        /* \"#utility.yul\":32247:32401   */\n    tag_343:\n        /* \"#utility.yul\":32387:32393   */\n      0x6261736500000000000000000000000000000000000000000000000000000000\n        /* \"#utility.yul\":32383:32384   */\n      0x00\n        /* \"#utility.yul\":32375:32381   */\n      dup3\n        /* \"#utility.yul\":32371:32385   */\n      add\n        /* \"#utility.yul\":32364:32394   */\n      mstore\n        /* \"#utility.yul\":32247:32401   */\n      pop\n      jump\t// out\n        /* \"#utility.yul\":32407:32772   */\n    tag_344:\n        /* \"#utility.yul\":32549:32552   */\n      0x00\n        /* \"#utility.yul\":32570:32636   */\n      tag_655\n        /* \"#utility.yul\":32634:32635   */\n      0x04\n        /* \"#utility.yul\":32629:32632   */\n      dup4\n        /* \"#utility.yul\":32570:32636   */\n      tag_268\n      jump\t// in\n    tag_655:\n        /* \"#utility.yul\":32563:32636   */\n      swap2\n      pop\n        /* \"#utility.yul\":32645:32738   */\n      tag_656\n        /* \"#utility.yul\":32734:32737   */\n      dup3\n        /* \"#utility.yul\":32645:32738   */\n      tag_343\n      jump\t// in\n    tag_656:\n        /* \"#utility.yul\":32763:32765   */\n      0x20\n        /* \"#utility.yul\":32758:32761   */\n      dup3\n        /* \"#utility.yul\":32754:32766   */\n      add\n        /* \"#utility.yul\":32747:32766   */\n      swap1\n      pop\n        /* \"#utility.yul\":32407:32772   */\n      swap2\n      swap1\n      pop\n      jump\t// out\n        /* \"#utility.yul\":32778:33197   */\n    tag_204:\n        /* \"#utility.yul\":32944:32948   */\n      0x00\n        /* \"#utility.yul\":32982:32984   */\n      0x20\n        /* \"#utility.yul\":32971:32980   */\n      dup3\n        /* \"#utility.yul\":32967:32985   */\n      add\n        /* \"#utility.yul\":32959:32985   */\n      swap1\n      pop\n        /* \"#utility.yul\":33031:33040   */\n      dup2\n        /* \"#utility.yul\":33025:33029   */\n      dup2\n        /* \"#utility.yul\":33021:33041   */\n      sub\n        /* \"#utility.yul\":33017:33018   */\n      0x00\n        /* \"#utility.yul\":33006:33015   */\n      dup4\n        /* \"#utility.yul\":33002:33019   */\n      add\n        /* \"#utility.yul\":32995:33042   */\n      mstore\n        /* \"#utility.yul\":33059:33190   */\n      tag_658\n        /* \"#utility.yul\":33185:33189   */\n      dup2\n        /* \"#utility.yul\":33059:33190   */\n      tag_344\n      jump\t// in\n    tag_658:\n        /* \"#utility.yul\":33051:33190   */\n      swap1\n      pop\n        /* \"#utility.yul\":32778:33197   */\n      swap2\n      swap1\n      pop\n      jump\t// out\n        /* \"#utility.yul\":33203:33369   */\n    tag_345:\n        /* \"#utility.yul\":33343:33361   */\n      0x4d6f64756c617220576974686472617700000000000000000000000000000000\n        /* \"#utility.yul\":33339:33340   */\n      0x00\n        /* \"#utility.yul\":33331:33337   */\n      dup3\n        /* \"#utility.yul\":33327:33341   */\n      add\n        /* \"#utility.yul\":33320:33362   */\n      mstore\n        /* \"#utility.yul\":33203:33369   */\n      pop\n      jump\t// out\n        /* \"#utility.yul\":33375:33741   */\n    tag_346:\n        /* \"#utility.yul\":33517:33520   */\n      0x00\n        /* \"#utility.yul\":33538:33605   */\n      tag_661\n        /* \"#utility.yul\":33602:33604   */\n      0x10\n        /* \"#utility.yul\":33597:33600   */\n      dup4\n        /* \"#utility.yul\":33538:33605   */\n      tag_268\n      jump\t// in\n    tag_661:\n        /* \"#utility.yul\":33531:33605   */\n      swap2\n      pop\n        /* \"#utility.yul\":33614:33707   */\n      tag_662\n        /* \"#utility.yul\":33703:33706   */\n      dup3\n        /* \"#utility.yul\":33614:33707   */\n      tag_345\n      jump\t// in\n    tag_662:\n        /* \"#utility.yul\":33732:33734   */\n      0x20\n        /* \"#utility.yul\":33727:33730   */\n      dup3\n        /* \"#utility.yul\":33723:33735   */\n      add\n        /* \"#utility.yul\":33716:33735   */\n      swap1\n      pop\n        /* \"#utility.yul\":33375:33741   */\n      swap2\n      swap1\n      pop\n      jump\t// out\n        /* \"#utility.yul\":33747:34511   */\n    tag_214:\n        /* \"#utility.yul\":34033:34037   */\n      0x00\n        /* \"#utility.yul\":34071:34073   */\n      0x40\n        /* \"#utility.yul\":34060:34069   */\n      dup3\n        /* \"#utility.yul\":34056:34074   */\n      add\n        /* \"#utility.yul\":34048:34074   */\n      swap1\n      pop\n        /* \"#utility.yul\":34120:34129   */\n      dup2\n        /* \"#utility.yul\":34114:34118   */\n      dup2\n        /* \"#utility.yul\":34110:34130   */\n      sub\n        /* \"#utility.yul\":34106:34107   */\n      0x00\n        /* \"#utility.yul\":34095:34104   */\n      dup4\n        /* \"#utility.yul\":34091:34108   */\n      add\n        /* \"#utility.yul\":34084:34131   */\n      mstore\n        /* \"#utility.yul\":34148:34279   */\n      tag_664\n        /* \"#utility.yul\":34274:34278   */\n      dup2\n        /* \"#utility.yul\":34148:34279   */\n      tag_346\n      jump\t// in\n    tag_664:\n        /* \"#utility.yul\":34140:34279   */\n      swap1\n      pop\n        /* \"#utility.yul\":34326:34335   */\n      dup2\n        /* \"#utility.yul\":34320:34324   */\n      dup2\n        /* \"#utility.yul\":34316:34336   */\n      sub\n        /* \"#utility.yul\":34311:34313   */\n      0x20\n        /* \"#utility.yul\":34300:34309   */\n      dup4\n        /* \"#utility.yul\":34296:34314   */\n      add\n        /* \"#utility.yul\":34289:34337   */\n      mstore\n        /* \"#utility.yul\":34354:34504   */\n      tag_665\n        /* \"#utility.yul\":34499:34503   */\n      dup2\n        /* \"#utility.yul\":34490:34496   */\n      dup5\n        /* \"#utility.yul\":34354:34504   */\n      tag_336\n      jump\t// in\n    tag_665:\n        /* \"#utility.yul\":34346:34504   */\n      swap1\n      pop\n        /* \"#utility.yul\":33747:34511   */\n      swap3\n      swap2\n      pop\n      pop\n      jump\t// out\n        /* \"#utility.yul\":34517:34692   */\n    tag_347:\n        /* \"#utility.yul\":34657:34684   */\n      0x5661756c743a204d6178206d757374206265203e3d204d696e00000000000000\n        /* \"#utility.yul\":34653:34654   */\n      0x00\n        /* \"#utility.yul\":34645:34651   */\n      dup3\n        /* \"#utility.yul\":34641:34655   */\n      add\n        /* \"#utility.yul\":34634:34685   */\n      mstore\n        /* \"#utility.yul\":34517:34692   */\n      pop\n      jump\t// out\n        /* \"#utility.yul\":34698:35064   */\n    tag_348:\n        /* \"#utility.yul\":34840:34843   */\n      0x00\n        /* \"#utility.yul\":34861:34928   */\n      tag_668\n        /* \"#utility.yul\":34925:34927   */\n      0x19\n        /* \"#utility.yul\":34920:34923   */\n      dup4\n        /* \"#utility.yul\":34861:34928   */\n      tag_268\n      jump\t// in\n    tag_668:\n        /* \"#utility.yul\":34854:34928   */\n      swap2\n      pop\n        /* \"#utility.yul\":34937:35030   */\n      tag_669\n        /* \"#utility.yul\":35026:35029   */\n      dup3\n        /* \"#utility.yul\":34937:35030   */\n      tag_347\n      jump\t// in\n    tag_669:\n        /* \"#utility.yul\":35055:35057   */\n      0x20\n        /* \"#utility.yul\":35050:35053   */\n      dup3\n        /* \"#utility.yul\":35046:35058   */\n      add\n        /* \"#utility.yul\":35039:35058   */\n      swap1\n      pop\n        /* \"#utility.yul\":34698:35064   */\n      swap2\n      swap1\n      pop\n      jump\t// out\n        /* \"#utility.yul\":35070:35489   */\n    tag_248:\n        /* \"#utility.yul\":35236:35240   */\n      0x00\n        /* \"#utility.yul\":35274:35276   */\n      0x20\n        /* \"#utility.yul\":35263:35272   */\n      dup3\n        /* \"#utility.yul\":35259:35277   */\n      add\n        /* \"#utility.yul\":35251:35277   */\n      swap1\n      pop\n        /* \"#utility.yul\":35323:35332   */\n      dup2\n        /* \"#utility.yul\":35317:35321   */\n      dup2\n        /* \"#utility.yul\":35313:35333   */\n      sub\n        /* \"#utility.yul\":35309:35310   */\n      0x00\n        /* \"#utility.yul\":35298:35307   */\n      dup4\n        /* \"#utility.yul\":35294:35311   */\n      add\n        /* \"#utility.yul\":35287:35334   */\n      mstore\n        /* \"#utility.yul\":35351:35482   */\n      tag_671\n        /* \"#utility.yul\":35477:35481   */\n      dup2\n        /* \"#utility.yul\":35351:35482   */\n      tag_348\n      jump\t// in\n    tag_671:\n        /* \"#utility.yul\":35343:35482   */\n      swap1\n      pop\n        /* \"#utility.yul\":35070:35489   */\n      swap2\n      swap1\n      pop\n      jump\t// out\n        /* \"#utility.yul\":35495:35675   */\n    tag_349:\n        /* \"#utility.yul\":35543:35620   */\n      0x4e487b7100000000000000000000000000000000000000000000000000000000\n        /* \"#utility.yul\":35540:35541   */\n      0x00\n        /* \"#utility.yul\":35533:35621   */\n      mstore\n        /* \"#utility.yul\":35640:35644   */\n      0x11\n        /* \"#utility.yul\":35637:35638   */\n      0x04\n        /* \"#utility.yul\":35630:35645   */\n      mstore\n        /* \"#utility.yul\":35664:35668   */\n      0x24\n        /* \"#utility.yul\":35661:35662   */\n      0x00\n        /* \"#utility.yul\":35654:35669   */\n      revert\n        /* \"#utility.yul\":35681:35875   */\n    tag_250:\n        /* \"#utility.yul\":35721:35725   */\n      0x00\n        /* \"#utility.yul\":35741:35761   */\n      tag_674\n        /* \"#utility.yul\":35759:35760   */\n      dup3\n        /* \"#utility.yul\":35741:35761   */\n      tag_290\n      jump\t// in\n    tag_674:\n        /* \"#utility.yul\":35736:35761   */\n      swap2\n      pop\n        /* \"#utility.yul\":35775:35795   */\n      tag_675\n        /* \"#utility.yul\":35793:35794   */\n      dup4\n        /* \"#utility.yul\":35775:35795   */\n      tag_290\n      jump\t// in\n    tag_675:\n        /* \"#utility.yul\":35770:35795   */\n      swap3\n      pop\n        /* \"#utility.yul\":35819:35820   */\n      dup3\n        /* \"#utility.yul\":35816:35817   */\n      dup3\n        /* \"#utility.yul\":35812:35821   */\n      sub\n        /* \"#utility.yul\":35804:35821   */\n      swap1\n      pop\n        /* \"#utility.yul\":35843:35844   */\n      dup2\n        /* \"#utility.yul\":35837:35841   */\n      dup2\n        /* \"#utility.yul\":35834:35845   */\n      gt\n        /* \"#utility.yul\":35831:35868   */\n      iszero\n      tag_676\n      jumpi\n        /* \"#utility.yul\":35848:35866   */\n      tag_677\n      tag_349\n      jump\t// in\n    tag_677:\n        /* \"#utility.yul\":35831:35868   */\n    tag_676:\n        /* \"#utility.yul\":35681:35875   */\n      swap3\n      swap2\n      pop\n      pop\n      jump\t// out\n        /* \"#utility.yul\":35881:36072   */\n    tag_252:\n        /* \"#utility.yul\":35921:35924   */\n      0x00\n        /* \"#utility.yul\":35940:35960   */\n      tag_679\n        /* \"#utility.yul\":35958:35959   */\n      dup3\n        /* \"#utility.yul\":35940:35960   */\n      tag_290\n      jump\t// in\n    tag_679:\n        /* \"#utility.yul\":35935:35960   */\n      swap2\n      pop\n        /* \"#utility.yul\":35974:35994   */\n      tag_680\n        /* \"#utility.yul\":35992:35993   */\n      dup4\n        /* \"#utility.yul\":35974:35994   */\n      tag_290\n      jump\t// in\n    tag_680:\n        /* \"#utility.yul\":35969:35994   */\n      swap3\n      pop\n        /* \"#utility.yul\":36017:36018   */\n      dup3\n        /* \"#utility.yul\":36014:36015   */\n      dup3\n        /* \"#utility.yul\":36010:36019   */\n      add\n        /* \"#utility.yul\":36003:36019   */\n      swap1\n      pop\n        /* \"#utility.yul\":36038:36041   */\n      dup1\n        /* \"#utility.yul\":36035:36036   */\n      dup3\n        /* \"#utility.yul\":36032:36042   */\n      gt\n        /* \"#utility.yul\":36029:36065   */\n      iszero\n      tag_681\n      jumpi\n        /* \"#utility.yul\":36045:36063   */\n      tag_682\n      tag_349\n      jump\t// in\n    tag_682:\n        /* \"#utility.yul\":36029:36065   */\n    tag_681:\n        /* \"#utility.yul\":35881:36072   */\n      swap3\n      swap2\n      pop\n      pop\n      jump\t// out\n        /* \"#utility.yul\":36078:36157   */\n    tag_350:\n        /* \"#utility.yul\":36117:36124   */\n      0x00\n        /* \"#utility.yul\":36146:36151   */\n      dup2\n        /* \"#utility.yul\":36135:36151   */\n      swap1\n      pop\n        /* \"#utility.yul\":36078:36157   */\n      swap2\n      swap1\n      pop\n      jump\t// out\n        /* \"#utility.yul\":36163:36320   */\n    tag_351:\n        /* \"#utility.yul\":36268:36313   */\n      tag_685\n        /* \"#utility.yul\":36288:36312   */\n      tag_686\n        /* \"#utility.yul\":36306:36311   */\n      dup3\n        /* \"#utility.yul\":36288:36312   */\n      tag_290\n      jump\t// in\n    tag_686:\n        /* \"#utility.yul\":36268:36313   */\n      tag_350\n      jump\t// in\n    tag_685:\n        /* \"#utility.yul\":36263:36266   */\n      dup3\n        /* \"#utility.yul\":36256:36314   */\n      mstore\n        /* \"#utility.yul\":36163:36320   */\n      pop\n      pop\n      jump\t// out\n        /* \"#utility.yul\":36326:36420   */\n    tag_352:\n        /* \"#utility.yul\":36359:36367   */\n      0x00\n        /* \"#utility.yul\":36407:36412   */\n      dup2\n        /* \"#utility.yul\":36403:36405   */\n      0x60\n        /* \"#utility.yul\":36399:36413   */\n      shl\n        /* \"#utility.yul\":36378:36413   */\n      swap1\n      pop\n        /* \"#utility.yul\":36326:36420   */\n      swap2\n      swap1\n      pop\n      jump\t// out\n        /* \"#utility.yul\":36426:36520   */\n    tag_353:\n        /* \"#utility.yul\":36465:36472   */\n      0x00\n        /* \"#utility.yul\":36494:36514   */\n      tag_689\n        /* \"#utility.yul\":36508:36513   */\n      dup3\n        /* \"#utility.yul\":36494:36514   */\n      tag_352\n      jump\t// in\n    tag_689:\n        /* \"#utility.yul\":36483:36514   */\n      swap1\n      pop\n        /* \"#utility.yul\":36426:36520   */\n      swap2\n      swap1\n      pop\n      jump\t// out\n        /* \"#utility.yul\":36526:36626   */\n    tag_354:\n        /* \"#utility.yul\":36565:36572   */\n      0x00\n        /* \"#utility.yul\":36594:36620   */\n      tag_691\n        /* \"#utility.yul\":36614:36619   */\n      dup3\n        /* \"#utility.yul\":36594:36620   */\n      tag_353\n      jump\t// in\n    tag_691:\n        /* \"#utility.yul\":36583:36620   */\n      swap1\n      pop\n        /* \"#utility.yul\":36526:36626   */\n      swap2\n      swap1\n      pop\n      jump\t// out\n        /* \"#utility.yul\":36632:36789   */\n    tag_355:\n        /* \"#utility.yul\":36737:36782   */\n      tag_693\n        /* \"#utility.yul\":36757:36781   */\n      tag_694\n        /* \"#utility.yul\":36775:36780   */\n      dup3\n        /* \"#utility.yul\":36757:36781   */\n      tag_284\n      jump\t// in\n    tag_694:\n        /* \"#utility.yul\":36737:36782   */\n      tag_354\n      jump\t// in\n    tag_693:\n        /* \"#utility.yul\":36732:36735   */\n      dup3\n        /* \"#utility.yul\":36725:36783   */\n      mstore\n        /* \"#utility.yul\":36632:36789   */\n      pop\n      pop\n      jump\t// out\n        /* \"#utility.yul\":36795:37474   */\n    tag_254:\n        /* \"#utility.yul\":36991:36994   */\n      0x00\n        /* \"#utility.yul\":37006:37081   */\n      tag_696\n        /* \"#utility.yul\":37077:37080   */\n      dup3\n        /* \"#utility.yul\":37068:37074   */\n      dup8\n        /* \"#utility.yul\":37006:37081   */\n      tag_351\n      jump\t// in\n    tag_696:\n        /* \"#utility.yul\":37106:37108   */\n      0x20\n        /* \"#utility.yul\":37101:37104   */\n      dup3\n        /* \"#utility.yul\":37097:37109   */\n      add\n        /* \"#utility.yul\":37090:37109   */\n      swap2\n      pop\n        /* \"#utility.yul\":37119:37194   */\n      tag_697\n        /* \"#utility.yul\":37190:37193   */\n      dup3\n        /* \"#utility.yul\":37181:37187   */\n      dup7\n        /* \"#utility.yul\":37119:37194   */\n      tag_351\n      jump\t// in\n    tag_697:\n        /* \"#utility.yul\":37219:37221   */\n      0x20\n        /* \"#utility.yul\":37214:37217   */\n      dup3\n        /* \"#utility.yul\":37210:37222   */\n      add\n        /* \"#utility.yul\":37203:37222   */\n      swap2\n      pop\n        /* \"#utility.yul\":37232:37307   */\n      tag_698\n        /* \"#utility.yul\":37303:37306   */\n      dup3\n        /* \"#utility.yul\":37294:37300   */\n      dup6\n        /* \"#utility.yul\":37232:37307   */\n      tag_355\n      jump\t// in\n    tag_698:\n        /* \"#utility.yul\":37332:37334   */\n      0x14\n        /* \"#utility.yul\":37327:37330   */\n      dup3\n        /* \"#utility.yul\":37323:37335   */\n      add\n        /* \"#utility.yul\":37316:37335   */\n      swap2\n      pop\n        /* \"#utility.yul\":37345:37420   */\n      tag_699\n        /* \"#utility.yul\":37416:37419   */\n      dup3\n        /* \"#utility.yul\":37407:37413   */\n      dup5\n        /* \"#utility.yul\":37345:37420   */\n      tag_351\n      jump\t// in\n    tag_699:\n        /* \"#utility.yul\":37445:37447   */\n      0x20\n        /* \"#utility.yul\":37440:37443   */\n      dup3\n        /* \"#utility.yul\":37436:37448   */\n      add\n        /* \"#utility.yul\":37429:37448   */\n      swap2\n      pop\n        /* \"#utility.yul\":37465:37468   */\n      dup2\n        /* \"#utility.yul\":37458:37468   */\n      swap1\n      pop\n        /* \"#utility.yul\":36795:37474   */\n      swap6\n      swap5\n      pop\n      pop\n      pop\n      pop\n      pop\n      jump\t// out\n        /* \"#utility.yul\":37480:37713   */\n    tag_256:\n        /* \"#utility.yul\":37519:37522   */\n      0x00\n        /* \"#utility.yul\":37542:37566   */\n      tag_701\n        /* \"#utility.yul\":37560:37565   */\n      dup3\n        /* \"#utility.yul\":37542:37566   */\n      tag_290\n      jump\t// in\n    tag_701:\n        /* \"#utility.yul\":37533:37566   */\n      swap2\n      pop\n        /* \"#utility.yul\":37588:37654   */\n      0xffffffffffffffffffffffffffffffffffffffffffffffffffffffffffffffff\n        /* \"#utility.yul\":37581:37586   */\n      dup3\n        /* \"#utility.yul\":37578:37655   */\n      sub\n        /* \"#utility.yul\":37575:37678   */\n      tag_702\n      jumpi\n        /* \"#utility.yul\":37658:37676   */\n      tag_703\n      tag_349\n      jump\t// in\n    tag_703:\n        /* \"#utility.yul\":37575:37678   */\n    tag_702:\n        /* \"#utility.yul\":37705:37706   */\n      0x01\n        /* \"#utility.yul\":37698:37703   */\n      dup3\n        /* \"#utility.yul\":37694:37707   */\n      add\n        /* \"#utility.yul\":37687:37707   */\n      swap1\n      pop\n        /* \"#utility.yul\":37480:37713   */\n      swap2\n      swap1\n      pop\n      jump\t// out\n        /* \"#utility.yul\":37719:37899   */\n    tag_356:\n        /* \"#utility.yul\":37767:37844   */\n      0x4e487b7100000000000000000000000000000000000000000000000000000000\n        /* \"#utility.yul\":37764:37765   */\n      0x00\n        /* \"#utility.yul\":37757:37845   */\n      mstore\n        /* \"#utility.yul\":37864:37868   */\n      0x12\n        /* \"#utility.yul\":37861:37862   */\n      0x04\n        /* \"#utility.yul\":37854:37869   */\n      mstore\n        /* \"#utility.yul\":37888:37892   */\n      0x24\n        /* \"#utility.yul\":37885:37886   */\n      0x00\n        /* \"#utility.yul\":37878:37893   */\n      revert\n        /* \"#utility.yul\":37905:38081   */\n    tag_258:\n        /* \"#utility.yul\":37937:37938   */\n      0x00\n        /* \"#utility.yul\":37954:37974   */\n      tag_706\n        /* \"#utility.yul\":37972:37973   */\n      dup3\n        /* \"#utility.yul\":37954:37974   */\n      tag_290\n      jump\t// in\n    tag_706:\n        /* \"#utility.yul\":37949:37974   */\n      swap2\n      pop\n        /* \"#utility.yul\":37988:38008   */\n      tag_707\n        /* \"#utility.yul\":38006:38007   */\n      dup4\n        /* \"#utility.yul\":37988:38008   */\n      tag_290\n      jump\t// in\n    tag_707:\n        /* \"#utility.yul\":37983:38008   */\n      swap3\n      pop\n        /* \"#utility.yul\":38027:38028   */\n      dup3\n        /* \"#utility.yul\":38017:38052   */\n      tag_708\n      jumpi\n        /* \"#utility.yul\":38032:38050   */\n      tag_709\n      tag_356\n      jump\t// in\n    tag_709:\n        /* \"#utility.yul\":38017:38052   */\n    tag_708:\n        /* \"#utility.yul\":38073:38074   */\n      dup3\n        /* \"#utility.yul\":38070:38071   */\n      dup3\n        /* \"#utility.yul\":38066:38075   */\n      mod\n        /* \"#utility.yul\":38061:38075   */\n      swap1\n      pop\n        /* \"#utility.yul\":37905:38081   */\n      swap3\n      swap2\n      pop\n      pop\n      jump\t// out\n\n    auxdata: 0xa26469706673582212205d2f81cdfa025eaf289defb1edf62e5679366a7de744b2b3b376d218d645b07264736f6c634300081f0033\n}\n",
				"bytecode": {
					"linkReferences": {},
					"object": "60c060405234801561000f575f5ffd5b50604051613911380380613911833981810160405281019061003191906103de565b835f73ffffffffffffffffffffffffffffffffffffffff168173ffffffffffffffffffffffffffffffffffffffff16036100a2575f6040517f1e4fbdf70000000000000000000000000000000000000000000000000000000081526004016100999190610492565b60405180910390fd5b6100b18161014360201b60201c565b508573ffffffffffffffffffffffffffffffffffffffff1660a08173ffffffffffffffffffffffffffffffffffffffff168152505081600281905550806003819055508473ffffffffffffffffffffffffffffffffffffffff1660808173ffffffffffffffffffffffffffffffffffffffff1681525050826001908161013791906106b2565b50505050505050610781565b5f5f5f9054906101000a900473ffffffffffffffffffffffffffffffffffffffff169050815f5f6101000a81548173ffffffffffffffffffffffffffffffffffffffff021916908373ffffffffffffffffffffffffffffffffffffffff1602179055508173ffffffffffffffffffffffffffffffffffffffff168173ffffffffffffffffffffffffffffffffffffffff167f8be0079c531659141344cd1fd0a4f28419497f9722a3daafe3b4186f6b6457e060405160405180910390a35050565b5f604051905090565b5f5ffd5b5f5ffd5b5f73ffffffffffffffffffffffffffffffffffffffff82169050919050565b5f61023e82610215565b9050919050565b61024e81610234565b8114610258575f5ffd5b50565b5f8151905061026981610245565b92915050565b5f5ffd5b5f5ffd5b5f601f19601f8301169050919050565b7f4e487b71000000000000000000000000000000000000000000000000000000005f52604160045260245ffd5b6102bd82610277565b810181811067ffffffffffffffff821117156102dc576102db610287565b5b80604052505050565b5f6102ee610204565b90506102fa82826102b4565b919050565b5f67ffffffffffffffff82111561031957610318610287565b5b61032282610277565b9050602081019050919050565b8281835e5f83830152505050565b5f61034f61034a846102ff565b6102e5565b90508281526020810184848401111561036b5761036a610273565b5b61037684828561032f565b509392505050565b5f82601f8301126103925761039161026f565b5b81516103a284826020860161033d565b91505092915050565b5f819050919050565b6103bd816103ab565b81146103c7575f5ffd5b50565b5f815190506103d8816103b4565b92915050565b5f5f5f5f5f5f60c087890312156103f8576103f761020d565b5b5f61040589828a0161025b565b965050602061041689828a0161025b565b955050604061042789828a0161025b565b945050606087015167ffffffffffffffff81111561044857610447610211565b5b61045489828a0161037e565b935050608061046589828a016103ca565b92505060a061047689828a016103ca565b9150509295509295509295565b61048c81610234565b82525050565b5f6020820190506104a55f830184610483565b92915050565b5f81519050919050565b7f4e487b71000000000000000000000000000000000000000000000000000000005f52602260045260245ffd5b5f60028204905060018216806104f957607f821691505b60208210810361050c5761050b6104b5565b5b50919050565b5f819050815f5260205f209050919050565b5f6020601f8301049050919050565b5f82821b905092915050565b5f6008830261056e7fffffffffffffffffffffffffffffffffffffffffffffffffffffffffffffffff82610533565b6105788683610533565b95508019841693508086168417925050509392505050565b5f819050919050565b5f6105b36105ae6105a9846103ab565b610590565b6103ab565b9050919050565b5f819050919050565b6105cc83610599565b6105e06105d8826105ba565b84845461053f565b825550505050565b5f5f905090565b6105f76105e8565b6106028184846105c3565b505050565b5b818110156106255761061a5f826105ef565b600181019050610608565b5050565b601f82111561066a5761063b81610512565b61064484610524565b81016020851015610653578190505b61066761065f85610524565b830182610607565b50505b505050565b5f82821c905092915050565b5f61068a5f198460080261066f565b1980831691505092915050565b5f6106a2838361067b565b9150826002028217905092915050565b6106bb826104ab565b67ffffffffffffffff8111156106d4576106d3610287565b5b6106de82546104e2565b6106e9828285610629565b5f60209050601f83116001811461071a575f8415610708578287015190505b6107128582610697565b865550610779565b601f19841661072886610512565b5f5b8281101561074f5784890151825560018201915060208501945060208101905061072a565b8683101561076c5784890151610768601f89168261067b565b8355505b6001600288020188555050505b505050505050565b60805160a0516131536107be5f395f8181610a6d015281816111c5015281816112ba01526118c801525f818161034b01526112de01526131535ff3fe608060405234801561000f575f5ffd5b50600436106100e7575f3560e01c80638e27d7191161008a578063d23ce9e511610064578063d23ce9e514610223578063f139721c1461023f578063f2fde38b1461025b578063f889794514610277576100e7565b80638e27d719146101cb578063b5f8558c146101e7578063bf4d766e14610205576100e7565b80636ac5db19116100c65780636ac5db1914610169578063715018a6146101875780637a9eceb4146101915780638da5cb5b146101ad576100e7565b8062dad7d4146100eb57806305d09fb114610109578063240028e814610139575b5f5ffd5b6100f3610295565b6040516101009190611f06565b60405180910390f35b610123600480360381019061011e9190612063565b610321565b60405161013091906120e9565b60405180910390f35b610153600480360381019061014e919061212c565b61043e565b6040516101609190612171565b60405180910390f35b61017161045b565b60405161017e91906121a2565b60405180910390f35b61018f610461565b005b6101ab60048036038101906101a69190612242565b610474565b005b6101b5610b62565b6040516101c291906120e9565b60405180910390f35b6101e560048036038101906101e091906122c6565b610b89565b005b6101ef6112b8565b6040516101fc919061237e565b60405180910390f35b61020d6112dc565b60405161021a91906123b7565b60405180910390f35b61023d60048036038101906102389190612425565b611300565b005b610259600480360381019061025491906124e9565b611957565b005b6102756004803603810190610270919061212c565b611a4f565b005b61027f611ad3565b60405161028c91906121a2565b60405180910390f35b600180546102a290612561565b80601f01602080910402602001604051908101604052809291908181526020018280546102ce90612561565b80156103195780601f106102f057610100808354040283529160200191610319565b820191905f5260205f20905b8154815290600101906020018083116102fc57829003601f168201915b505050505081565b5f5f8260016040516020016103379291906126a7565b60405160208183030381529060405290505f7f000000000000000000000000000000000000000000000000000000000000000073ffffffffffffffffffffffffffffffffffffffff166316f1adc1836040518263ffffffff1660e01b81526004016103a2919061271f565b5f60405180830381865afa1580156103bc573d5f5f3e3d5ffd5b505050506040513d5f823e3d601f19601f820116820180604052508101906103e491906127f0565b905060148151101561042b576040517f08c379a0000000000000000000000000000000000000000000000000000000008152600401610422906128a7565b60405180910390fd5b5f60148201519050809350505050919050565b6005602052805f5260405f205f915054906101000a900460ff1681565b60035481565b610469611ad9565b6104725f611b60565b565b61047c611ad9565b5f6104c985858080601f0160208091040260200160405190810160405280939291908181526020018383808284375f81840152601f19601f82011690508083019250505050505050610321565b905060055f8273ffffffffffffffffffffffffffffffffffffffff1673ffffffffffffffffffffffffffffffffffffffff1681526020019081526020015f205f9054906101000a900460ff16610554576040517f08c379a000000000000000000000000000000000000000000000000000000000815260040161054b9061290f565b60405180910390fd5b61057f86848373ffffffffffffffffffffffffffffffffffffffff16611c219092919063ffffffff16565b5f600667ffffffffffffffff81111561059b5761059a611f3f565b5b6040519080825280602002602001820160405280156105d457816020015b6105c1611e75565b8152602001906001900390816105b95790505b50905060405180606001604052806040518060400160405280600481526020017f757365720000000000000000000000000000000000000000000000000000000081525081526020016040518060400160405280600781526020017f616464726573730000000000000000000000000000000000000000000000000081525081526020018860405160200161066991906120e9565b604051602081830303815290604052815250815f8151811061068e5761068d61292d565b5b602002602001018190525060405180606001604052806040518060400160405280600681526020017f616d6f756e74000000000000000000000000000000000000000000000000000081525081526020016040518060400160405280600781526020017f75696e743235360000000000000000000000000000000000000000000000000081525081526020018560405160200161072b91906121a2565b604051602081830303815290604052815250816001815181106107515761075061292d565b5b602002602001018190525060405180606001604052806040518060400160405280600581526020017f746f6b656e00000000000000000000000000000000000000000000000000000081525081526020016040518060400160405280600681526020017f737472696e670000000000000000000000000000000000000000000000000000815250815260200187876040516020016107f0929190612986565b604051602081830303815290604052815250816002815181106108165761081561292d565b5b602002602001018190525060405180606001604052806040518060400160405280600881526020017f70726f766964657200000000000000000000000000000000000000000000000081525081526020016040518060400160405280600681526020017f737472696e670000000000000000000000000000000000000000000000000000815250815260200160016040516020016108b49190612a29565b604051602081830303815290604052815250816003815181106108da576108d961292d565b5b602002602001018190525060405180606001604052806040518060400160405280600981526020017f6e756c6c6966696572000000000000000000000000000000000000000000000081525081526020016040518060400160405280600781526020017f75696e743235360000000000000000000000000000000000000000000000000081525081526020018460405160200161097791906121a2565b6040516020818303038152906040528152508160048151811061099d5761099c61292d565b5b602002602001018190525060405180606001604052806040518060400160405280600981526020017f74696d657374616d70000000000000000000000000000000000000000000000081525081526020016040518060400160405280600781526020017f75696e7432353600000000000000000000000000000000000000000000000000815250815260200142604051602001610a3a91906121a2565b60405160208183030381529060405281525081600581518110610a6057610a5f61292d565b5b60200260200101819052507f000000000000000000000000000000000000000000000000000000000000000073ffffffffffffffffffffffffffffffffffffffff16637d64fa9b826040518263ffffffff1660e01b8152600401610ac49190612c43565b5f604051808303815f87803b158015610adb575f5ffd5b505af1158015610aed573d5f5f3e3d5ffd5b505050508173ffffffffffffffffffffffffffffffffffffffff168773ffffffffffffffffffffffffffffffffffffffff167fcc4f8702356931e6d23a93d1b60beac6a7ea77d447ada4b1502a09d0b7125709866001604051610b51929190612c76565b60405180910390a350505050505050565b5f5f5f9054906101000a900473ffffffffffffffffffffffffffffffffffffffff16905090565b5f610bd684848080601f0160208091040260200160405190810160405280939291908181526020018383808284375f81840152601f19601f82011690508083019250505050505050610321565b905060055f8273ffffffffffffffffffffffffffffffffffffffff1673ffffffffffffffffffffffffffffffffffffffff1681526020019081526020015f205f9054906101000a900460ff16610c61576040517f08c379a0000000000000000000000000000000000000000000000000000000008152600401610c589061290f565b60405180910390fd5b5f8211610ca3576040517f08c379a0000000000000000000000000000000000000000000000000000000008152600401610c9a90612cee565b60405180910390fd5b610cd03330848473ffffffffffffffffffffffffffffffffffffffff16611c74909392919063ffffffff16565b5f600667ffffffffffffffff811115610cec57610ceb611f3f565b5b604051908082528060200260200182016040528015610d2557816020015b610d12611e75565b815260200190600190039081610d0a5790505b50905060405180606001604052806040518060400160405280600481526020017f757365720000000000000000000000000000000000000000000000000000000081525081526020016040518060400160405280600781526020017f6164647265737300000000000000000000000000000000000000000000000000815250815260200133604051602001610dba91906120e9565b604051602081830303815290604052815250815f81518110610ddf57610dde61292d565b5b602002602001018190525060405180606001604052806040518060400160405280600681526020017f616d6f756e74000000000000000000000000000000000000000000000000000081525081526020016040518060400160405280600781526020017f75696e7432353600000000000000000000000000000000000000000000000000815250815260200184604051602001610e7c91906121a2565b60405160208183030381529060405281525081600181518110610ea257610ea161292d565b5b602002602001018190525060405180606001604052806040518060400160405280600581526020017f746f6b656e00000000000000000000000000000000000000000000000000000081525081526020016040518060400160405280600681526020017f737472696e67000000000000000000000000000000000000000000000000000081525081526020018686604051602001610f41929190612986565b60405160208183030381529060405281525081600281518110610f6757610f6661292d565b5b602002602001018190525060405180606001604052806040518060400160405280600881526020017f70726f766964657200000000000000000000000000000000000000000000000081525081526020016040518060400160405280600681526020017f737472696e670000000000000000000000000000000000000000000000000000815250815260200160016040516020016110059190612a29565b6040516020818303038152906040528152508160038151811061102b5761102a61292d565b5b602002602001018190525060405180606001604052806040518060400160405280600981526020017f74696d657374616d70000000000000000000000000000000000000000000000081525081526020016040518060400160405280600781526020017f75696e74323536000000000000000000000000000000000000000000000000008152508152602001426040516020016110c891906121a2565b604051602081830303815290604052815250816004815181106110ee576110ed61292d565b5b602002602001018190525060405180606001604052806040518060400160405280600481526020017f726174650000000000000000000000000000000000000000000000000000000081525081526020016040518060400160405280600781526020017f75696e74323536000000000000000000000000000000000000000000000000008152508152602001611182611cc9565b60405160200161119291906121a2565b604051602081830303815290604052815250816005815181106111b8576111b761292d565b5b60200260200101819052507f000000000000000000000000000000000000000000000000000000000000000073ffffffffffffffffffffffffffffffffffffffff16637d64fa9b826040518263ffffffff1660e01b815260040161121c9190612d56565b5f604051808303815f87803b158015611233575f5ffd5b505af1158015611245573d5f5f3e3d5ffd5b505050508173ffffffffffffffffffffffffffffffffffffffff163373ffffffffffffffffffffffffffffffffffffffff167fef519b7eb82aaf6ac376a6df2d793843ebfd593de5f1a0601d3cc6ab49ebb3958560016040516112a9929190612c76565b60405180910390a35050505050565b7f000000000000000000000000000000000000000000000000000000000000000081565b7f000000000000000000000000000000000000000000000000000000000000000081565b5f61134d84848080601f0160208091040260200160405190810160405280939291908181526020018383808284375f81840152601f19601f82011690508083019250505050505050610321565b905060055f8273ffffffffffffffffffffffffffffffffffffffff1673ffffffffffffffffffffffffffffffffffffffff1681526020019081526020015f205f9054906101000a900460ff166113d8576040517f08c379a00000000000000000000000000000000000000000000000000000000081526004016113cf9061290f565b60405180910390fd5b5f600667ffffffffffffffff8111156113f4576113f3611f3f565b5b60405190808252806020026020018201604052801561142d57816020015b61141a611e75565b8152602001906001900390816114125790505b50905060405180606001604052806040518060400160405280600481526020017f757365720000000000000000000000000000000000000000000000000000000081525081526020016040518060400160405280600581526020017f627974657300000000000000000000000000000000000000000000000000000081525081526020018a8a6040516020016114c4929190612dc5565b604051602081830303815290604052815250815f815181106114e9576114e861292d565b5b602002602001018190525060405180606001604052806040518060400160405280600681526020017f736861726564000000000000000000000000000000000000000000000000000081525081526020016040518060400160405280600781526020017f616464726573730000000000000000000000000000000000000000000000000081525081526020018888604051602001611588929190612986565b604051602081830303815290604052815250816001815181106115ae576115ad61292d565b5b602002602001018190525060405180606001604052806040518060400160405280600681526020017f616d6f756e74000000000000000000000000000000000000000000000000000081525081526020016040518060400160405280600781526020017f75696e743235360000000000000000000000000000000000000000000000000081525081526020018460405160200161164b91906121a2565b604051602081830303815290604052815250816002815181106116715761167061292d565b5b602002602001018190525060405180606001604052806040518060400160405280600581526020017f636861696e00000000000000000000000000000000000000000000000000000081525081526020016040518060400160405280600681526020017f737472696e670000000000000000000000000000000000000000000000000000815250815260200160405160200161170c90612e31565b604051602081830303815290604052815250816003815181106117325761173161292d565b5b602002602001018190525060405180606001604052806040518060400160405280600881526020017f70726f766964657200000000000000000000000000000000000000000000000081525081526020016040518060400160405280600681526020017f737472696e670000000000000000000000000000000000000000000000000000815250815260200160016040516020016117d09190612a29565b604051602081830303815290604052815250816004815181106117f6576117f561292d565b5b602002602001018190525060405180606001604052806040518060400160405280600581526020017f746f6b656e00000000000000000000000000000000000000000000000000000081525081526020016040518060400160405280600681526020017f737472696e67000000000000000000000000000000000000000000000000000081525081526020018686604051602001611895929190612986565b604051602081830303815290604052815250816005815181106118bb576118ba61292d565b5b60200260200101819052507f000000000000000000000000000000000000000000000000000000000000000073ffffffffffffffffffffffffffffffffffffffff16637d64fa9b826040518263ffffffff1660e01b815260040161191f9190612e99565b5f604051808303815f87803b158015611936575f5ffd5b505af1158015611948573d5f5f3e3d5ffd5b50505050505050505050505050565b5f6119a483838080601f0160208091040260200160405190810160405280939291908181526020018383808284375f81840152601f19601f82011690508083019250505050505050610321565b9050600160055f8373ffffffffffffffffffffffffffffffffffffffff1673ffffffffffffffffffffffffffffffffffffffff1681526020019081526020015f205f6101000a81548160ff0219169083151502179055508073ffffffffffffffffffffffffffffffffffffffff167fd57b1148efb91f418a2178fc1fb4ba12f9400a4dc8e71851fd59e85d337c609f6001604051611a429190612a29565b60405180910390a2505050565b611a57611ad9565b5f73ffffffffffffffffffffffffffffffffffffffff168173ffffffffffffffffffffffffffffffffffffffff1603611ac7575f6040517f1e4fbdf7000000000000000000000000000000000000000000000000000000008152600401611abe91906120e9565b60405180910390fd5b611ad081611b60565b50565b60025481565b611ae1611d9b565b73ffffffffffffffffffffffffffffffffffffffff16611aff610b62565b73ffffffffffffffffffffffffffffffffffffffff1614611b5e57611b22611d9b565b6040517f118cdaa7000000000000000000000000000000000000000000000000000000008152600401611b5591906120e9565b60405180910390fd5b565b5f5f5f9054906101000a900473ffffffffffffffffffffffffffffffffffffffff169050815f5f6101000a81548173ffffffffffffffffffffffffffffffffffffffff021916908373ffffffffffffffffffffffffffffffffffffffff1602179055508173ffffffffffffffffffffffffffffffffffffffff168173ffffffffffffffffffffffffffffffffffffffff167f8be0079c531659141344cd1fd0a4f28419497f9722a3daafe3b4186f6b6457e060405160405180910390a35050565b611c2e8383836001611da2565b611c6f57826040517f5274afe7000000000000000000000000000000000000000000000000000000008152600401611c6691906120e9565b60405180910390fd5b505050565b611c82848484846001611e04565b611cc357836040517f5274afe7000000000000000000000000000000000000000000000000000000008152600401611cba91906120e9565b60405180910390fd5b50505050565b5f6002546003541015611d11576040517f08c379a0000000000000000000000000000000000000000000000000000000008152600401611d0890612f16565b60405180910390fd5b5f6001600254600354611d249190612f61565b611d2e9190612f94565b90505f424433600454604051602001611d4a949392919061302c565b60405160208183030381529060405280519060200120905060045f815480929190611d7490613079565b919050555081815f1c611d8791906130ed565b600254611d949190612f94565b9250505090565b5f33905090565b5f5f63a9059cbb60e01b9050604051815f525f1960601c86166004528460245260205f60445f5f8b5af1925060015f51148316611df6578383151615611dea573d5f823e3d81fd5b5f873b113d1516831692505b806040525050949350505050565b5f5f6323b872dd60e01b9050604051815f525f1960601c87166004525f1960601c86166024528460445260205f60645f5f8c5af1925060015f51148316611e62578383151615611e56573d5f823e3d81fd5b5f883b113d1516831692505b806040525f606052505095945050505050565b60405180606001604052806060815260200160608152602001606081525090565b5f81519050919050565b5f82825260208201905092915050565b8281835e5f83830152505050565b5f601f19601f8301169050919050565b5f611ed882611e96565b611ee28185611ea0565b9350611ef2818560208601611eb0565b611efb81611ebe565b840191505092915050565b5f6020820190508181035f830152611f1e8184611ece565b905092915050565b5f604051905090565b5f5ffd5b5f5ffd5b5f5ffd5b5f5ffd5b7f4e487b71000000000000000000000000000000000000000000000000000000005f52604160045260245ffd5b611f7582611ebe565b810181811067ffffffffffffffff82111715611f9457611f93611f3f565b5b80604052505050565b5f611fa6611f26565b9050611fb28282611f6c565b919050565b5f67ffffffffffffffff821115611fd157611fd0611f3f565b5b611fda82611ebe565b9050602081019050919050565b828183375f83830152505050565b5f61200761200284611fb7565b611f9d565b90508281526020810184848401111561202357612022611f3b565b5b61202e848285611fe7565b509392505050565b5f82601f83011261204a57612049611f37565b5b813561205a848260208601611ff5565b91505092915050565b5f6020828403121561207857612077611f2f565b5b5f82013567ffffffffffffffff81111561209557612094611f33565b5b6120a184828501612036565b91505092915050565b5f73ffffffffffffffffffffffffffffffffffffffff82169050919050565b5f6120d3826120aa565b9050919050565b6120e3816120c9565b82525050565b5f6020820190506120fc5f8301846120da565b92915050565b61210b816120c9565b8114612115575f5ffd5b50565b5f8135905061212681612102565b92915050565b5f6020828403121561214157612140611f2f565b5b5f61214e84828501612118565b91505092915050565b5f8115159050919050565b61216b81612157565b82525050565b5f6020820190506121845f830184612162565b92915050565b5f819050919050565b61219c8161218a565b82525050565b5f6020820190506121b55f830184612193565b92915050565b5f5ffd5b5f5ffd5b5f5f83601f8401126121d8576121d7611f37565b5b8235905067ffffffffffffffff8111156121f5576121f46121bb565b5b602083019150836001820283011115612211576122106121bf565b5b9250929050565b6122218161218a565b811461222b575f5ffd5b50565b5f8135905061223c81612218565b92915050565b5f5f5f5f5f6080868803121561225b5761225a611f2f565b5b5f61226888828901612118565b955050602086013567ffffffffffffffff81111561228957612288611f33565b5b612295888289016121c3565b945094505060406122a88882890161222e565b92505060606122b98882890161222e565b9150509295509295909350565b5f5f5f604084860312156122dd576122dc611f2f565b5b5f84013567ffffffffffffffff8111156122fa576122f9611f33565b5b612306868287016121c3565b935093505060206123198682870161222e565b9150509250925092565b5f819050919050565b5f61234661234161233c846120aa565b612323565b6120aa565b9050919050565b5f6123578261232c565b9050919050565b5f6123688261234d565b9050919050565b6123788161235e565b82525050565b5f6020820190506123915f83018461236f565b92915050565b5f6123a18261234d565b9050919050565b6123b181612397565b82525050565b5f6020820190506123ca5f8301846123a8565b92915050565b5f5f83601f8401126123e5576123e4611f37565b5b8235905067ffffffffffffffff811115612402576124016121bb565b5b60208301915083600182028301111561241e5761241d6121bf565b5b9250929050565b5f5f5f5f5f5f5f6080888a0312156124405761243f611f2f565b5b5f88013567ffffffffffffffff81111561245d5761245c611f33565b5b6124698a828b016123d0565b9750975050602088013567ffffffffffffffff81111561248c5761248b611f33565b5b6124988a828b016121c3565b9550955050604088013567ffffffffffffffff8111156124bb576124ba611f33565b5b6124c78a828b016121c3565b935093505060606124da8a828b0161222e565b91505092959891949750929550565b5f5f602083850312156124ff576124fe611f2f565b5b5f83013567ffffffffffffffff81111561251c5761251b611f33565b5b612528858286016121c3565b92509250509250929050565b7f4e487b71000000000000000000000000000000000000000000000000000000005f52602260045260245ffd5b5f600282049050600182168061257857607f821691505b60208210810361258b5761258a612534565b5b50919050565b5f81905092915050565b5f6125a582611e96565b6125af8185612591565b93506125bf818560208601611eb0565b80840191505092915050565b7f5f000000000000000000000000000000000000000000000000000000000000005f82015250565b5f6125ff600183612591565b915061260a826125cb565b600182019050919050565b5f819050815f5260205f209050919050565b5f815461263381612561565b61263d8186612591565b9450600182165f8114612657576001811461266c5761269e565b60ff198316865281151582028601935061269e565b61267585612615565b5f5b8381101561269657815481890152600182019150602081019050612677565b838801955050505b50505092915050565b5f6126b2828561259b565b91506126bd826125f3565b91506126c98284612627565b91508190509392505050565b7f51696172614d6f6e6164417373657473000000000000000000000000000000005f82015250565b5f612709601083611ea0565b9150612714826126d5565b602082019050919050565b5f6040820190508181035f830152612736816126fd565b9050818103602083015261274a8184611ece565b905092915050565b5f67ffffffffffffffff82111561276c5761276b611f3f565b5b61277582611ebe565b9050602081019050919050565b5f61279461278f84612752565b611f9d565b9050828152602081018484840111156127b0576127af611f3b565b5b6127bb848285611eb0565b509392505050565b5f82601f8301126127d7576127d6611f37565b5b81516127e7848260208601612782565b91505092915050565b5f6020828403121561280557612804611f2f565b5b5f82015167ffffffffffffffff81111561282257612821611f33565b5b61282e848285016127c3565b91505092915050565b7f5661756c743a204173736574206e6f7420666f756e6420696e207265676973745f8201527f7279000000000000000000000000000000000000000000000000000000000000602082015250565b5f612891602283611ea0565b915061289c82612837565b604082019050919050565b5f6020820190508181035f8301526128be81612885565b9050919050565b7f5661756c743a20546f6b656e206e6f7420737570706f727465640000000000005f82015250565b5f6128f9601a83611ea0565b9150612904826128c5565b602082019050919050565b5f6020820190508181035f830152612926816128ed565b9050919050565b7f4e487b71000000000000000000000000000000000000000000000000000000005f52603260045260245ffd5b5f6129658385611ea0565b9350612972838584611fe7565b61297b83611ebe565b840190509392505050565b5f6020820190508181035f83015261299f81848661295a565b90509392505050565b5f81546129b481612561565b6129be8186611ea0565b9450600182165f81146129d857600181146129ee57612a20565b60ff198316865281151560200286019350612a20565b6129f785612615565b5f5b83811015612a18578154818901526001820191506020810190506129f9565b808801955050505b50505092915050565b5f6020820190508181035f830152612a4181846129a8565b905092915050565b7f44697265637420576974686472617700000000000000000000000000000000005f82015250565b5f612a7d600f83611ea0565b9150612a8882612a49565b602082019050919050565b5f81519050919050565b5f82825260208201905092915050565b5f819050602082019050919050565b5f82825260208201905092915050565b5f612ad682611e96565b612ae08185612abc565b9350612af0818560208601611eb0565b612af981611ebe565b840191505092915050565b5f81519050919050565b5f82825260208201905092915050565b5f612b2882612b04565b612b328185612b0e565b9350612b42818560208601611eb0565b612b4b81611ebe565b840191505092915050565b5f606083015f8301518482035f860152612b708282612acc565b91505060208301518482036020860152612b8a8282612acc565b91505060408301518482036040860152612ba48282612b1e565b9150508091505092915050565b5f612bbc8383612b56565b905092915050565b5f602082019050919050565b5f612bda82612a93565b612be48185612a9d565b935083602082028501612bf685612aad565b805f5b85811015612c315784840389528151612c128582612bb1565b9450612c1d83612bc4565b925060208a01995050600181019050612bf9565b50829750879550505050505092915050565b5f6040820190508181035f830152612c5a81612a71565b90508181036020830152612c6e8184612bd0565b905092915050565b5f604082019050612c895f830185612193565b8181036020830152612c9b81846129a8565b90509392505050565b7f5661756c743a204465706f736974206d757374206265203e20300000000000005f82015250565b5f612cd8601a83611ea0565b9150612ce382612ca4565b602082019050919050565b5f6020820190508181035f830152612d0581612ccc565b9050919050565b7f4465706f736974000000000000000000000000000000000000000000000000005f82015250565b5f612d40600783611ea0565b9150612d4b82612d0c565b602082019050919050565b5f6040820190508181035f830152612d6d81612d34565b90508181036020830152612d818184612bd0565b905092915050565b5f82825260208201905092915050565b5f612da48385612d89565b9350612db1838584611fe7565b612dba83611ebe565b840190509392505050565b5f6020820190508181035f830152612dde818486612d99565b90509392505050565b7f62617365000000000000000000000000000000000000000000000000000000005f82015250565b5f612e1b600483611ea0565b9150612e2682612de7565b602082019050919050565b5f6020820190508181035f830152612e4881612e0f565b9050919050565b7f4d6f64756c6172205769746864726177000000000000000000000000000000005f82015250565b5f612e83601083611ea0565b9150612e8e82612e4f565b602082019050919050565b5f6040820190508181035f830152612eb081612e77565b90508181036020830152612ec48184612bd0565b905092915050565b7f5661756c743a204d6178206d757374206265203e3d204d696e000000000000005f82015250565b5f612f00601983611ea0565b9150612f0b82612ecc565b602082019050919050565b5f6020820190508181035f830152612f2d81612ef4565b9050919050565b7f4e487b71000000000000000000000000000000000000000000000000000000005f52601160045260245ffd5b5f612f6b8261218a565b9150612f768361218a565b9250828203905081811115612f8e57612f8d612f34565b5b92915050565b5f612f9e8261218a565b9150612fa98361218a565b9250828201905080821115612fc157612fc0612f34565b5b92915050565b5f819050919050565b612fe1612fdc8261218a565b612fc7565b82525050565b5f8160601b9050919050565b5f612ffd82612fe7565b9050919050565b5f61300e82612ff3565b9050919050565b613026613021826120c9565b613004565b82525050565b5f6130378287612fd0565b6020820191506130478286612fd0565b6020820191506130578285613015565b6014820191506130678284612fd0565b60208201915081905095945050505050565b5f6130838261218a565b91507fffffffffffffffffffffffffffffffffffffffffffffffffffffffffffffffff82036130b5576130b4612f34565b5b600182019050919050565b7f4e487b71000000000000000000000000000000000000000000000000000000005f52601260045260245ffd5b5f6130f78261218a565b91506131028361218a565b925082613112576131116130c0565b5b82820690509291505056fea26469706673582212205d2f81cdfa025eaf289defb1edf62e5679366a7de744b2b3b376d218d645b07264736f6c634300081f0033",
					"opcodes": "PUSH1 0xC0 PUSH1 0x40 MSTORE CALLVALUE DUP1 ISZERO PUSH2 0xF JUMPI PUSH0 PUSH0 REVERT JUMPDEST POP PUSH1 0x40 MLOAD PUSH2 0x3911 CODESIZE SUB DUP1 PUSH2 0x3911 DUP4 CODECOPY DUP2 DUP2 ADD PUSH1 0x40 MSTORE DUP2 ADD SWAP1 PUSH2 0x31 SWAP2 SWAP1 PUSH2 0x3DE JUMP JUMPDEST DUP4 PUSH0 PUSH20 0xFFFFFFFFFFFFFFFFFFFFFFFFFFFFFFFFFFFFFFFF AND DUP2 PUSH20 0xFFFFFFFFFFFFFFFFFFFFFFFFFFFFFFFFFFFFFFFF AND SUB PUSH2 0xA2 JUMPI PUSH0 PUSH1 0x40 MLOAD PUSH32 0x1E4FBDF700000000000000000000000000000000000000000000000000000000 DUP2 MSTORE PUSH1 0x4 ADD PUSH2 0x99 SWAP2 SWAP1 PUSH2 0x492 JUMP JUMPDEST PUSH1 0x40 MLOAD DUP1 SWAP2 SUB SWAP1 REVERT JUMPDEST PUSH2 0xB1 DUP2 PUSH2 0x143 PUSH1 0x20 SHL PUSH1 0x20 SHR JUMP JUMPDEST POP DUP6 PUSH20 0xFFFFFFFFFFFFFFFFFFFFFFFFFFFFFFFFFFFFFFFF AND PUSH1 0xA0 DUP2 PUSH20 0xFFFFFFFFFFFFFFFFFFFFFFFFFFFFFFFFFFFFFFFF AND DUP2 MSTORE POP POP DUP2 PUSH1 0x2 DUP2 SWAP1 SSTORE POP DUP1 PUSH1 0x3 DUP2 SWAP1 SSTORE POP DUP5 PUSH20 0xFFFFFFFFFFFFFFFFFFFFFFFFFFFFFFFFFFFFFFFF AND PUSH1 0x80 DUP2 PUSH20 0xFFFFFFFFFFFFFFFFFFFFFFFFFFFFFFFFFFFFFFFF AND DUP2 MSTORE POP POP DUP3 PUSH1 0x1 SWAP1 DUP2 PUSH2 0x137 SWAP2 SWAP1 PUSH2 0x6B2 JUMP JUMPDEST POP POP POP POP POP POP POP PUSH2 0x781 JUMP JUMPDEST PUSH0 PUSH0 PUSH0 SWAP1 SLOAD SWAP1 PUSH2 0x100 EXP SWAP1 DIV PUSH20 0xFFFFFFFFFFFFFFFFFFFFFFFFFFFFFFFFFFFFFFFF AND SWAP1 POP DUP2 PUSH0 PUSH0 PUSH2 0x100 EXP DUP2 SLOAD DUP2 PUSH20 0xFFFFFFFFFFFFFFFFFFFFFFFFFFFFFFFFFFFFFFFF MUL NOT AND SWAP1 DUP4 PUSH20 0xFFFFFFFFFFFFFFFFFFFFFFFFFFFFFFFFFFFFFFFF AND MUL OR SWAP1 SSTORE POP DUP2 PUSH20 0xFFFFFFFFFFFFFFFFFFFFFFFFFFFFFFFFFFFFFFFF AND DUP2 PUSH20 0xFFFFFFFFFFFFFFFFFFFFFFFFFFFFFFFFFFFFFFFF AND PUSH32 0x8BE0079C531659141344CD1FD0A4F28419497F9722A3DAAFE3B4186F6B6457E0 PUSH1 0x40 MLOAD PUSH1 0x40 MLOAD DUP1 SWAP2 SUB SWAP1 LOG3 POP POP JUMP JUMPDEST PUSH0 PUSH1 0x40 MLOAD SWAP1 POP SWAP1 JUMP JUMPDEST PUSH0 PUSH0 REVERT JUMPDEST PUSH0 PUSH0 REVERT JUMPDEST PUSH0 PUSH20 0xFFFFFFFFFFFFFFFFFFFFFFFFFFFFFFFFFFFFFFFF DUP3 AND SWAP1 POP SWAP2 SWAP1 POP JUMP JUMPDEST PUSH0 PUSH2 0x23E DUP3 PUSH2 0x215 JUMP JUMPDEST SWAP1 POP SWAP2 SWAP1 POP JUMP JUMPDEST PUSH2 0x24E DUP2 PUSH2 0x234 JUMP JUMPDEST DUP2 EQ PUSH2 0x258 JUMPI PUSH0 PUSH0 REVERT JUMPDEST POP JUMP JUMPDEST PUSH0 DUP2 MLOAD SWAP1 POP PUSH2 0x269 DUP2 PUSH2 0x245 JUMP JUMPDEST SWAP3 SWAP2 POP POP JUMP JUMPDEST PUSH0 PUSH0 REVERT JUMPDEST PUSH0 PUSH0 REVERT JUMPDEST PUSH0 PUSH1 0x1F NOT PUSH1 0x1F DUP4 ADD AND SWAP1 POP SWAP2 SWAP1 POP JUMP JUMPDEST PUSH32 0x4E487B7100000000000000000000000000000000000000000000000000000000 PUSH0 MSTORE PUSH1 0x41 PUSH1 0x4 MSTORE PUSH1 0x24 PUSH0 REVERT JUMPDEST PUSH2 0x2BD DUP3 PUSH2 0x277 JUMP JUMPDEST DUP2 ADD DUP2 DUP2 LT PUSH8 0xFFFFFFFFFFFFFFFF DUP3 GT OR ISZERO PUSH2 0x2DC JUMPI PUSH2 0x2DB PUSH2 0x287 JUMP JUMPDEST JUMPDEST DUP1 PUSH1 0x40 MSTORE POP POP POP JUMP JUMPDEST PUSH0 PUSH2 0x2EE PUSH2 0x204 JUMP JUMPDEST SWAP1 POP PUSH2 0x2FA DUP3 DUP3 PUSH2 0x2B4 JUMP JUMPDEST SWAP2 SWAP1 POP JUMP JUMPDEST PUSH0 PUSH8 0xFFFFFFFFFFFFFFFF DUP3 GT ISZERO PUSH2 0x319 JUMPI PUSH2 0x318 PUSH2 0x287 JUMP JUMPDEST JUMPDEST PUSH2 0x322 DUP3 PUSH2 0x277 JUMP JUMPDEST SWAP1 POP PUSH1 0x20 DUP2 ADD SWAP1 POP SWAP2 SWAP1 POP JUMP JUMPDEST DUP3 DUP2 DUP4 MCOPY PUSH0 DUP4 DUP4 ADD MSTORE POP POP POP JUMP JUMPDEST PUSH0 PUSH2 0x34F PUSH2 0x34A DUP5 PUSH2 0x2FF JUMP JUMPDEST PUSH2 0x2E5 JUMP JUMPDEST SWAP1 POP DUP3 DUP2 MSTORE PUSH1 0x20 DUP2 ADD DUP5 DUP5 DUP5 ADD GT ISZERO PUSH2 0x36B JUMPI PUSH2 0x36A PUSH2 0x273 JUMP JUMPDEST JUMPDEST PUSH2 0x376 DUP5 DUP3 DUP6 PUSH2 0x32F JUMP JUMPDEST POP SWAP4 SWAP3 POP POP POP JUMP JUMPDEST PUSH0 DUP3 PUSH1 0x1F DUP4 ADD SLT PUSH2 0x392 JUMPI PUSH2 0x391 PUSH2 0x26F JUMP JUMPDEST JUMPDEST DUP2 MLOAD PUSH2 0x3A2 DUP5 DUP3 PUSH1 0x20 DUP7 ADD PUSH2 0x33D JUMP JUMPDEST SWAP2 POP POP SWAP3 SWAP2 POP POP JUMP JUMPDEST PUSH0 DUP2 SWAP1 POP SWAP2 SWAP1 POP JUMP JUMPDEST PUSH2 0x3BD DUP2 PUSH2 0x3AB JUMP JUMPDEST DUP2 EQ PUSH2 0x3C7 JUMPI PUSH0 PUSH0 REVERT JUMPDEST POP JUMP JUMPDEST PUSH0 DUP2 MLOAD SWAP1 POP PUSH2 0x3D8 DUP2 PUSH2 0x3B4 JUMP JUMPDEST SWAP3 SWAP2 POP POP JUMP JUMPDEST PUSH0 PUSH0 PUSH0 PUSH0 PUSH0 PUSH0 PUSH1 0xC0 DUP8 DUP10 SUB SLT ISZERO PUSH2 0x3F8 JUMPI PUSH2 0x3F7 PUSH2 0x20D JUMP JUMPDEST JUMPDEST PUSH0 PUSH2 0x405 DUP10 DUP3 DUP11 ADD PUSH2 0x25B JUMP JUMPDEST SWAP7 POP POP PUSH1 0x20 PUSH2 0x416 DUP10 DUP3 DUP11 ADD PUSH2 0x25B JUMP JUMPDEST SWAP6 POP POP PUSH1 0x40 PUSH2 0x427 DUP10 DUP3 DUP11 ADD PUSH2 0x25B JUMP JUMPDEST SWAP5 POP POP PUSH1 0x60 DUP8 ADD MLOAD PUSH8 0xFFFFFFFFFFFFFFFF DUP2 GT ISZERO PUSH2 0x448 JUMPI PUSH2 0x447 PUSH2 0x211 JUMP JUMPDEST JUMPDEST PUSH2 0x454 DUP10 DUP3 DUP11 ADD PUSH2 0x37E JUMP JUMPDEST SWAP4 POP POP PUSH1 0x80 PUSH2 0x465 DUP10 DUP3 DUP11 ADD PUSH2 0x3CA JUMP JUMPDEST SWAP3 POP POP PUSH1 0xA0 PUSH2 0x476 DUP10 DUP3 DUP11 ADD PUSH2 0x3CA JUMP JUMPDEST SWAP2 POP POP SWAP3 SWAP6 POP SWAP3 SWAP6 POP SWAP3 SWAP6 JUMP JUMPDEST PUSH2 0x48C DUP2 PUSH2 0x234 JUMP JUMPDEST DUP3 MSTORE POP POP JUMP JUMPDEST PUSH0 PUSH1 0x20 DUP3 ADD SWAP1 POP PUSH2 0x4A5 PUSH0 DUP4 ADD DUP5 PUSH2 0x483 JUMP JUMPDEST SWAP3 SWAP2 POP POP JUMP JUMPDEST PUSH0 DUP2 MLOAD SWAP1 POP SWAP2 SWAP1 POP JUMP JUMPDEST PUSH32 0x4E487B7100000000000000000000000000000000000000000000000000000000 PUSH0 MSTORE PUSH1 0x22 PUSH1 0x4 MSTORE PUSH1 0x24 PUSH0 REVERT JUMPDEST PUSH0 PUSH1 0x2 DUP3 DIV SWAP1 POP PUSH1 0x1 DUP3 AND DUP1 PUSH2 0x4F9 JUMPI PUSH1 0x7F DUP3 AND SWAP2 POP JUMPDEST PUSH1 0x20 DUP3 LT DUP2 SUB PUSH2 0x50C JUMPI PUSH2 0x50B PUSH2 0x4B5 JUMP JUMPDEST JUMPDEST POP SWAP2 SWAP1 POP JUMP JUMPDEST PUSH0 DUP2 SWAP1 POP DUP2 PUSH0 MSTORE PUSH1 0x20 PUSH0 KECCAK256 SWAP1 POP SWAP2 SWAP1 POP JUMP JUMPDEST PUSH0 PUSH1 0x20 PUSH1 0x1F DUP4 ADD DIV SWAP1 POP SWAP2 SWAP1 POP JUMP JUMPDEST PUSH0 DUP3 DUP3 SHL SWAP1 POP SWAP3 SWAP2 POP POP JUMP JUMPDEST PUSH0 PUSH1 0x8 DUP4 MUL PUSH2 0x56E PUSH32 0xFFFFFFFFFFFFFFFFFFFFFFFFFFFFFFFFFFFFFFFFFFFFFFFFFFFFFFFFFFFFFFFF DUP3 PUSH2 0x533 JUMP JUMPDEST PUSH2 0x578 DUP7 DUP4 PUSH2 0x533 JUMP JUMPDEST SWAP6 POP DUP1 NOT DUP5 AND SWAP4 POP DUP1 DUP7 AND DUP5 OR SWAP3 POP POP POP SWAP4 SWAP3 POP POP POP JUMP JUMPDEST PUSH0 DUP2 SWAP1 POP SWAP2 SWAP1 POP JUMP JUMPDEST PUSH0 PUSH2 0x5B3 PUSH2 0x5AE PUSH2 0x5A9 DUP5 PUSH2 0x3AB JUMP JUMPDEST PUSH2 0x590 JUMP JUMPDEST PUSH2 0x3AB JUMP JUMPDEST SWAP1 POP SWAP2 SWAP1 POP JUMP JUMPDEST PUSH0 DUP2 SWAP1 POP SWAP2 SWAP1 POP JUMP JUMPDEST PUSH2 0x5CC DUP4 PUSH2 0x599 JUMP JUMPDEST PUSH2 0x5E0 PUSH2 0x5D8 DUP3 PUSH2 0x5BA JUMP JUMPDEST DUP5 DUP5 SLOAD PUSH2 0x53F JUMP JUMPDEST DUP3 SSTORE POP POP POP POP JUMP JUMPDEST PUSH0 PUSH0 SWAP1 POP SWAP1 JUMP JUMPDEST PUSH2 0x5F7 PUSH2 0x5E8 JUMP JUMPDEST PUSH2 0x602 DUP2 DUP5 DUP5 PUSH2 0x5C3 JUMP JUMPDEST POP POP POP JUMP JUMPDEST JUMPDEST DUP2 DUP2 LT ISZERO PUSH2 0x625 JUMPI PUSH2 0x61A PUSH0 DUP3 PUSH2 0x5EF JUMP JUMPDEST PUSH1 0x1 DUP2 ADD SWAP1 POP PUSH2 0x608 JUMP JUMPDEST POP POP JUMP JUMPDEST PUSH1 0x1F DUP3 GT ISZERO PUSH2 0x66A JUMPI PUSH2 0x63B DUP2 PUSH2 0x512 JUMP JUMPDEST PUSH2 0x644 DUP5 PUSH2 0x524 JUMP JUMPDEST DUP2 ADD PUSH1 0x20 DUP6 LT ISZERO PUSH2 0x653 JUMPI DUP2 SWAP1 POP JUMPDEST PUSH2 0x667 PUSH2 0x65F DUP6 PUSH2 0x524 JUMP JUMPDEST DUP4 ADD DUP3 PUSH2 0x607 JUMP JUMPDEST POP POP JUMPDEST POP POP POP JUMP JUMPDEST PUSH0 DUP3 DUP3 SHR SWAP1 POP SWAP3 SWAP2 POP POP JUMP JUMPDEST PUSH0 PUSH2 0x68A PUSH0 NOT DUP5 PUSH1 0x8 MUL PUSH2 0x66F JUMP JUMPDEST NOT DUP1 DUP4 AND SWAP2 POP POP SWAP3 SWAP2 POP POP JUMP JUMPDEST PUSH0 PUSH2 0x6A2 DUP4 DUP4 PUSH2 0x67B JUMP JUMPDEST SWAP2 POP DUP3 PUSH1 0x2 MUL DUP3 OR SWAP1 POP SWAP3 SWAP2 POP POP JUMP JUMPDEST PUSH2 0x6BB DUP3 PUSH2 0x4AB JUMP JUMPDEST PUSH8 0xFFFFFFFFFFFFFFFF DUP2 GT ISZERO PUSH2 0x6D4 JUMPI PUSH2 0x6D3 PUSH2 0x287 JUMP JUMPDEST JUMPDEST PUSH2 0x6DE DUP3 SLOAD PUSH2 0x4E2 JUMP JUMPDEST PUSH2 0x6E9 DUP3 DUP3 DUP6 PUSH2 0x629 JUMP JUMPDEST PUSH0 PUSH1 0x20 SWAP1 POP PUSH1 0x1F DUP4 GT PUSH1 0x1 DUP2 EQ PUSH2 0x71A JUMPI PUSH0 DUP5 ISZERO PUSH2 0x708 JUMPI DUP3 DUP8 ADD MLOAD SWAP1 POP JUMPDEST PUSH2 0x712 DUP6 DUP3 PUSH2 0x697 JUMP JUMPDEST DUP7 SSTORE POP PUSH2 0x779 JUMP JUMPDEST PUSH1 0x1F NOT DUP5 AND PUSH2 0x728 DUP7 PUSH2 0x512 JUMP JUMPDEST PUSH0 JUMPDEST DUP3 DUP2 LT ISZERO PUSH2 0x74F JUMPI DUP5 DUP10 ADD MLOAD DUP3 SSTORE PUSH1 0x1 DUP3 ADD SWAP2 POP PUSH1 0x20 DUP6 ADD SWAP5 POP PUSH1 0x20 DUP2 ADD SWAP1 POP PUSH2 0x72A JUMP JUMPDEST DUP7 DUP4 LT ISZERO PUSH2 0x76C JUMPI DUP5 DUP10 ADD MLOAD PUSH2 0x768 PUSH1 0x1F DUP10 AND DUP3 PUSH2 0x67B JUMP JUMPDEST DUP4 SSTORE POP JUMPDEST PUSH1 0x1 PUSH1 0x2 DUP9 MUL ADD DUP9 SSTORE POP POP POP JUMPDEST POP POP POP POP POP POP JUMP JUMPDEST PUSH1 0x80 MLOAD PUSH1 0xA0 MLOAD PUSH2 0x3153 PUSH2 0x7BE PUSH0 CODECOPY PUSH0 DUP2 DUP2 PUSH2 0xA6D ADD MSTORE DUP2 DUP2 PUSH2 0x11C5 ADD MSTORE DUP2 DUP2 PUSH2 0x12BA ADD MSTORE PUSH2 0x18C8 ADD MSTORE PUSH0 DUP2 DUP2 PUSH2 0x34B ADD MSTORE PUSH2 0x12DE ADD MSTORE PUSH2 0x3153 PUSH0 RETURN INVALID PUSH1 0x80 PUSH1 0x40 MSTORE CALLVALUE DUP1 ISZERO PUSH2 0xF JUMPI PUSH0 PUSH0 REVERT JUMPDEST POP PUSH1 0x4 CALLDATASIZE LT PUSH2 0xE7 JUMPI PUSH0 CALLDATALOAD PUSH1 0xE0 SHR DUP1 PUSH4 0x8E27D719 GT PUSH2 0x8A JUMPI DUP1 PUSH4 0xD23CE9E5 GT PUSH2 0x64 JUMPI DUP1 PUSH4 0xD23CE9E5 EQ PUSH2 0x223 JUMPI DUP1 PUSH4 0xF139721C EQ PUSH2 0x23F JUMPI DUP1 PUSH4 0xF2FDE38B EQ PUSH2 0x25B JUMPI DUP1 PUSH4 0xF8897945 EQ PUSH2 0x277 JUMPI PUSH2 0xE7 JUMP JUMPDEST DUP1 PUSH4 0x8E27D719 EQ PUSH2 0x1CB JUMPI DUP1 PUSH4 0xB5F8558C EQ PUSH2 0x1E7 JUMPI DUP1 PUSH4 0xBF4D766E EQ PUSH2 0x205 JUMPI PUSH2 0xE7 JUMP JUMPDEST DUP1 PUSH4 0x6AC5DB19 GT PUSH2 0xC6 JUMPI DUP1 PUSH4 0x6AC5DB19 EQ PUSH2 0x169 JUMPI DUP1 PUSH4 0x715018A6 EQ PUSH2 0x187 JUMPI DUP1 PUSH4 0x7A9ECEB4 EQ PUSH2 0x191 JUMPI DUP1 PUSH4 0x8DA5CB5B EQ PUSH2 0x1AD JUMPI PUSH2 0xE7 JUMP JUMPDEST DUP1 PUSH3 0xDAD7D4 EQ PUSH2 0xEB JUMPI DUP1 PUSH4 0x5D09FB1 EQ PUSH2 0x109 JUMPI DUP1 PUSH4 0x240028E8 EQ PUSH2 0x139 JUMPI JUMPDEST PUSH0 PUSH0 REVERT JUMPDEST PUSH2 0xF3 PUSH2 0x295 JUMP JUMPDEST PUSH1 0x40 MLOAD PUSH2 0x100 SWAP2 SWAP1 PUSH2 0x1F06 JUMP JUMPDEST PUSH1 0x40 MLOAD DUP1 SWAP2 SUB SWAP1 RETURN JUMPDEST PUSH2 0x123 PUSH1 0x4 DUP1 CALLDATASIZE SUB DUP2 ADD SWAP1 PUSH2 0x11E SWAP2 SWAP1 PUSH2 0x2063 JUMP JUMPDEST PUSH2 0x321 JUMP JUMPDEST PUSH1 0x40 MLOAD PUSH2 0x130 SWAP2 SWAP1 PUSH2 0x20E9 JUMP JUMPDEST PUSH1 0x40 MLOAD DUP1 SWAP2 SUB SWAP1 RETURN JUMPDEST PUSH2 0x153 PUSH1 0x4 DUP1 CALLDATASIZE SUB DUP2 ADD SWAP1 PUSH2 0x14E SWAP2 SWAP1 PUSH2 0x212C JUMP JUMPDEST PUSH2 0x43E JUMP JUMPDEST PUSH1 0x40 MLOAD PUSH2 0x160 SWAP2 SWAP1 PUSH2 0x2171 JUMP JUMPDEST PUSH1 0x40 MLOAD DUP1 SWAP2 SUB SWAP1 RETURN JUMPDEST PUSH2 0x171 PUSH2 0x45B JUMP JUMPDEST PUSH1 0x40 MLOAD PUSH2 0x17E SWAP2 SWAP1 PUSH2 0x21A2 JUMP JUMPDEST PUSH1 0x40 MLOAD DUP1 SWAP2 SUB SWAP1 RETURN JUMPDEST PUSH2 0x18F PUSH2 0x461 JUMP JUMPDEST STOP JUMPDEST PUSH2 0x1AB PUSH1 0x4 DUP1 CALLDATASIZE SUB DUP2 ADD SWAP1 PUSH2 0x1A6 SWAP2 SWAP1 PUSH2 0x2242 JUMP JUMPDEST PUSH2 0x474 JUMP JUMPDEST STOP JUMPDEST PUSH2 0x1B5 PUSH2 0xB62 JUMP JUMPDEST PUSH1 0x40 MLOAD PUSH2 0x1C2 SWAP2 SWAP1 PUSH2 0x20E9 JUMP JUMPDEST PUSH1 0x40 MLOAD DUP1 SWAP2 SUB SWAP1 RETURN JUMPDEST PUSH2 0x1E5 PUSH1 0x4 DUP1 CALLDATASIZE SUB DUP2 ADD SWAP1 PUSH2 0x1E0 SWAP2 SWAP1 PUSH2 0x22C6 JUMP JUMPDEST PUSH2 0xB89 JUMP JUMPDEST STOP JUMPDEST PUSH2 0x1EF PUSH2 0x12B8 JUMP JUMPDEST PUSH1 0x40 MLOAD PUSH2 0x1FC SWAP2 SWAP1 PUSH2 0x237E JUMP JUMPDEST PUSH1 0x40 MLOAD DUP1 SWAP2 SUB SWAP1 RETURN JUMPDEST PUSH2 0x20D PUSH2 0x12DC JUMP JUMPDEST PUSH1 0x40 MLOAD PUSH2 0x21A SWAP2 SWAP1 PUSH2 0x23B7 JUMP JUMPDEST PUSH1 0x40 MLOAD DUP1 SWAP2 SUB SWAP1 RETURN JUMPDEST PUSH2 0x23D PUSH1 0x4 DUP1 CALLDATASIZE SUB DUP2 ADD SWAP1 PUSH2 0x238 SWAP2 SWAP1 PUSH2 0x2425 JUMP JUMPDEST PUSH2 0x1300 JUMP JUMPDEST STOP JUMPDEST PUSH2 0x259 PUSH1 0x4 DUP1 CALLDATASIZE SUB DUP2 ADD SWAP1 PUSH2 0x254 SWAP2 SWAP1 PUSH2 0x24E9 JUMP JUMPDEST PUSH2 0x1957 JUMP JUMPDEST STOP JUMPDEST PUSH2 0x275 PUSH1 0x4 DUP1 CALLDATASIZE SUB DUP2 ADD SWAP1 PUSH2 0x270 SWAP2 SWAP1 PUSH2 0x212C JUMP JUMPDEST PUSH2 0x1A4F JUMP JUMPDEST STOP JUMPDEST PUSH2 0x27F PUSH2 0x1AD3 JUMP JUMPDEST PUSH1 0x40 MLOAD PUSH2 0x28C SWAP2 SWAP1 PUSH2 0x21A2 JUMP JUMPDEST PUSH1 0x40 MLOAD DUP1 SWAP2 SUB SWAP1 RETURN JUMPDEST PUSH1 0x1 DUP1 SLOAD PUSH2 0x2A2 SWAP1 PUSH2 0x2561 JUMP JUMPDEST DUP1 PUSH1 0x1F ADD PUSH1 0x20 DUP1 SWAP2 DIV MUL PUSH1 0x20 ADD PUSH1 0x40 MLOAD SWAP1 DUP2 ADD PUSH1 0x40 MSTORE DUP1 SWAP3 SWAP2 SWAP1 DUP2 DUP2 MSTORE PUSH1 0x20 ADD DUP3 DUP1 SLOAD PUSH2 0x2CE SWAP1 PUSH2 0x2561 JUMP JUMPDEST DUP1 ISZERO PUSH2 0x319 JUMPI DUP1 PUSH1 0x1F LT PUSH2 0x2F0 JUMPI PUSH2 0x100 DUP1 DUP4 SLOAD DIV MUL DUP4 MSTORE SWAP2 PUSH1 0x20 ADD SWAP2 PUSH2 0x319 JUMP JUMPDEST DUP3 ADD SWAP2 SWAP1 PUSH0 MSTORE PUSH1 0x20 PUSH0 KECCAK256 SWAP1 JUMPDEST DUP2 SLOAD DUP2 MSTORE SWAP1 PUSH1 0x1 ADD SWAP1 PUSH1 0x20 ADD DUP1 DUP4 GT PUSH2 0x2FC JUMPI DUP3 SWAP1 SUB PUSH1 0x1F AND DUP3 ADD SWAP2 JUMPDEST POP POP POP POP POP DUP2 JUMP JUMPDEST PUSH0 PUSH0 DUP3 PUSH1 0x1 PUSH1 0x40 MLOAD PUSH1 0x20 ADD PUSH2 0x337 SWAP3 SWAP2 SWAP1 PUSH2 0x26A7 JUMP JUMPDEST PUSH1 0x40 MLOAD PUSH1 0x20 DUP2 DUP4 SUB SUB DUP2 MSTORE SWAP1 PUSH1 0x40 MSTORE SWAP1 POP PUSH0 PUSH32 0x0 PUSH20 0xFFFFFFFFFFFFFFFFFFFFFFFFFFFFFFFFFFFFFFFF AND PUSH4 0x16F1ADC1 DUP4 PUSH1 0x40 MLOAD DUP3 PUSH4 0xFFFFFFFF AND PUSH1 0xE0 SHL DUP2 MSTORE PUSH1 0x4 ADD PUSH2 0x3A2 SWAP2 SWAP1 PUSH2 0x271F JUMP JUMPDEST PUSH0 PUSH1 0x40 MLOAD DUP1 DUP4 SUB DUP2 DUP7 GAS STATICCALL ISZERO DUP1 ISZERO PUSH2 0x3BC JUMPI RETURNDATASIZE PUSH0 PUSH0 RETURNDATACOPY RETURNDATASIZE PUSH0 REVERT JUMPDEST POP POP POP POP PUSH1 0x40 MLOAD RETURNDATASIZE PUSH0 DUP3 RETURNDATACOPY RETURNDATASIZE PUSH1 0x1F NOT PUSH1 0x1F DUP3 ADD AND DUP3 ADD DUP1 PUSH1 0x40 MSTORE POP DUP2 ADD SWAP1 PUSH2 0x3E4 SWAP2 SWAP1 PUSH2 0x27F0 JUMP JUMPDEST SWAP1 POP PUSH1 0x14 DUP2 MLOAD LT ISZERO PUSH2 0x42B JUMPI PUSH1 0x40 MLOAD PUSH32 0x8C379A000000000000000000000000000000000000000000000000000000000 DUP2 MSTORE PUSH1 0x4 ADD PUSH2 0x422 SWAP1 PUSH2 0x28A7 JUMP JUMPDEST PUSH1 0x40 MLOAD DUP1 SWAP2 SUB SWAP1 REVERT JUMPDEST PUSH0 PUSH1 0x14 DUP3 ADD MLOAD SWAP1 POP DUP1 SWAP4 POP POP POP POP SWAP2 SWAP1 POP JUMP JUMPDEST PUSH1 0x5 PUSH1 0x20 MSTORE DUP1 PUSH0 MSTORE PUSH1 0x40 PUSH0 KECCAK256 PUSH0 SWAP2 POP SLOAD SWAP1 PUSH2 0x100 EXP SWAP1 DIV PUSH1 0xFF AND DUP2 JUMP JUMPDEST PUSH1 0x3 SLOAD DUP2 JUMP JUMPDEST PUSH2 0x469 PUSH2 0x1AD9 JUMP JUMPDEST PUSH2 0x472 PUSH0 PUSH2 0x1B60 JUMP JUMPDEST JUMP JUMPDEST PUSH2 0x47C PUSH2 0x1AD9 JUMP JUMPDEST PUSH0 PUSH2 0x4C9 DUP6 DUP6 DUP1 DUP1 PUSH1 0x1F ADD PUSH1 0x20 DUP1 SWAP2 DIV MUL PUSH1 0x20 ADD PUSH1 0x40 MLOAD SWAP1 DUP2 ADD PUSH1 0x40 MSTORE DUP1 SWAP4 SWAP3 SWAP2 SWAP1 DUP2 DUP2 MSTORE PUSH1 0x20 ADD DUP4 DUP4 DUP1 DUP3 DUP5 CALLDATACOPY PUSH0 DUP2 DUP5 ADD MSTORE PUSH1 0x1F NOT PUSH1 0x1F DUP3 ADD AND SWAP1 POP DUP1 DUP4 ADD SWAP3 POP POP POP POP POP POP POP PUSH2 0x321 JUMP JUMPDEST SWAP1 POP PUSH1 0x5 PUSH0 DUP3 PUSH20 0xFFFFFFFFFFFFFFFFFFFFFFFFFFFFFFFFFFFFFFFF AND PUSH20 0xFFFFFFFFFFFFFFFFFFFFFFFFFFFFFFFFFFFFFFFF AND DUP2 MSTORE PUSH1 0x20 ADD SWAP1 DUP2 MSTORE PUSH1 0x20 ADD PUSH0 KECCAK256 PUSH0 SWAP1 SLOAD SWAP1 PUSH2 0x100 EXP SWAP1 DIV PUSH1 0xFF AND PUSH2 0x554 JUMPI PUSH1 0x40 MLOAD PUSH32 0x8C379A000000000000000000000000000000000000000000000000000000000 DUP2 MSTORE PUSH1 0x4 ADD PUSH2 0x54B SWAP1 PUSH2 0x290F JUMP JUMPDEST PUSH1 0x40 MLOAD DUP1 SWAP2 SUB SWAP1 REVERT JUMPDEST PUSH2 0x57F DUP7 DUP5 DUP4 PUSH20 0xFFFFFFFFFFFFFFFFFFFFFFFFFFFFFFFFFFFFFFFF AND PUSH2 0x1C21 SWAP1 SWAP3 SWAP2 SWAP1 PUSH4 0xFFFFFFFF AND JUMP JUMPDEST PUSH0 PUSH1 0x6 PUSH8 0xFFFFFFFFFFFFFFFF DUP2 GT ISZERO PUSH2 0x59B JUMPI PUSH2 0x59A PUSH2 0x1F3F JUMP JUMPDEST JUMPDEST PUSH1 0x40 MLOAD SWAP1 DUP1 DUP3 MSTORE DUP1 PUSH1 0x20 MUL PUSH1 0x20 ADD DUP3 ADD PUSH1 0x40 MSTORE DUP1 ISZERO PUSH2 0x5D4 JUMPI DUP2 PUSH1 0x20 ADD JUMPDEST PUSH2 0x5C1 PUSH2 0x1E75 JUMP JUMPDEST DUP2 MSTORE PUSH1 0x20 ADD SWAP1 PUSH1 0x1 SWAP1 SUB SWAP1 DUP2 PUSH2 0x5B9 JUMPI SWAP1 POP JUMPDEST POP SWAP1 POP PUSH1 0x40 MLOAD DUP1 PUSH1 0x60 ADD PUSH1 0x40 MSTORE DUP1 PUSH1 0x40 MLOAD DUP1 PUSH1 0x40 ADD PUSH1 0x40 MSTORE DUP1 PUSH1 0x4 DUP2 MSTORE PUSH1 0x20 ADD PUSH32 0x7573657200000000000000000000000000000000000000000000000000000000 DUP2 MSTORE POP DUP2 MSTORE PUSH1 0x20 ADD PUSH1 0x40 MLOAD DUP1 PUSH1 0x40 ADD PUSH1 0x40 MSTORE DUP1 PUSH1 0x7 DUP2 MSTORE PUSH1 0x20 ADD PUSH32 0x6164647265737300000000000000000000000000000000000000000000000000 DUP2 MSTORE POP DUP2 MSTORE PUSH1 0x20 ADD DUP9 PUSH1 0x40 MLOAD PUSH1 0x20 ADD PUSH2 0x669 SWAP2 SWAP1 PUSH2 0x20E9 JUMP JUMPDEST PUSH1 0x40 MLOAD PUSH1 0x20 DUP2 DUP4 SUB SUB DUP2 MSTORE SWAP1 PUSH1 0x40 MSTORE DUP2 MSTORE POP DUP2 PUSH0 DUP2 MLOAD DUP2 LT PUSH2 0x68E JUMPI PUSH2 0x68D PUSH2 0x292D JUMP JUMPDEST JUMPDEST PUSH1 0x20 MUL PUSH1 0x20 ADD ADD DUP2 SWAP1 MSTORE POP PUSH1 0x40 MLOAD DUP1 PUSH1 0x60 ADD PUSH1 0x40 MSTORE DUP1 PUSH1 0x40 MLOAD DUP1 PUSH1 0x40 ADD PUSH1 0x40 MSTORE DUP1 PUSH1 0x6 DUP2 MSTORE PUSH1 0x20 ADD PUSH32 0x616D6F756E740000000000000000000000000000000000000000000000000000 DUP2 MSTORE POP DUP2 MSTORE PUSH1 0x20 ADD PUSH1 0x40 MLOAD DUP1 PUSH1 0x40 ADD PUSH1 0x40 MSTORE DUP1 PUSH1 0x7 DUP2 MSTORE PUSH1 0x20 ADD PUSH32 0x75696E7432353600000000000000000000000000000000000000000000000000 DUP2 MSTORE POP DUP2 MSTORE PUSH1 0x20 ADD DUP6 PUSH1 0x40 MLOAD PUSH1 0x20 ADD PUSH2 0x72B SWAP2 SWAP1 PUSH2 0x21A2 JUMP JUMPDEST PUSH1 0x40 MLOAD PUSH1 0x20 DUP2 DUP4 SUB SUB DUP2 MSTORE SWAP1 PUSH1 0x40 MSTORE DUP2 MSTORE POP DUP2 PUSH1 0x1 DUP2 MLOAD DUP2 LT PUSH2 0x751 JUMPI PUSH2 0x750 PUSH2 0x292D JUMP JUMPDEST JUMPDEST PUSH1 0x20 MUL PUSH1 0x20 ADD ADD DUP2 SWAP1 MSTORE POP PUSH1 0x40 MLOAD DUP1 PUSH1 0x60 ADD PUSH1 0x40 MSTORE DUP1 PUSH1 0x40 MLOAD DUP1 PUSH1 0x40 ADD PUSH1 0x40 MSTORE DUP1 PUSH1 0x5 DUP2 MSTORE PUSH1 0x20 ADD PUSH32 0x746F6B656E000000000000000000000000000000000000000000000000000000 DUP2 MSTORE POP DUP2 MSTORE PUSH1 0x20 ADD PUSH1 0x40 MLOAD DUP1 PUSH1 0x40 ADD PUSH1 0x40 MSTORE DUP1 PUSH1 0x6 DUP2 MSTORE PUSH1 0x20 ADD PUSH32 0x737472696E670000000000000000000000000000000000000000000000000000 DUP2 MSTORE POP DUP2 MSTORE PUSH1 0x20 ADD DUP8 DUP8 PUSH1 0x40 MLOAD PUSH1 0x20 ADD PUSH2 0x7F0 SWAP3 SWAP2 SWAP1 PUSH2 0x2986 JUMP JUMPDEST PUSH1 0x40 MLOAD PUSH1 0x20 DUP2 DUP4 SUB SUB DUP2 MSTORE SWAP1 PUSH1 0x40 MSTORE DUP2 MSTORE POP DUP2 PUSH1 0x2 DUP2 MLOAD DUP2 LT PUSH2 0x816 JUMPI PUSH2 0x815 PUSH2 0x292D JUMP JUMPDEST JUMPDEST PUSH1 0x20 MUL PUSH1 0x20 ADD ADD DUP2 SWAP1 MSTORE POP PUSH1 0x40 MLOAD DUP1 PUSH1 0x60 ADD PUSH1 0x40 MSTORE DUP1 PUSH1 0x40 MLOAD DUP1 PUSH1 0x40 ADD PUSH1 0x40 MSTORE DUP1 PUSH1 0x8 DUP2 MSTORE PUSH1 0x20 ADD PUSH32 0x70726F7669646572000000000000000000000000000000000000000000000000 DUP2 MSTORE POP DUP2 MSTORE PUSH1 0x20 ADD PUSH1 0x40 MLOAD DUP1 PUSH1 0x40 ADD PUSH1 0x40 MSTORE DUP1 PUSH1 0x6 DUP2 MSTORE PUSH1 0x20 ADD PUSH32 0x737472696E670000000000000000000000000000000000000000000000000000 DUP2 MSTORE POP DUP2 MSTORE PUSH1 0x20 ADD PUSH1 0x1 PUSH1 0x40 MLOAD PUSH1 0x20 ADD PUSH2 0x8B4 SWAP2 SWAP1 PUSH2 0x2A29 JUMP JUMPDEST PUSH1 0x40 MLOAD PUSH1 0x20 DUP2 DUP4 SUB SUB DUP2 MSTORE SWAP1 PUSH1 0x40 MSTORE DUP2 MSTORE POP DUP2 PUSH1 0x3 DUP2 MLOAD DUP2 LT PUSH2 0x8DA JUMPI PUSH2 0x8D9 PUSH2 0x292D JUMP JUMPDEST JUMPDEST PUSH1 0x20 MUL PUSH1 0x20 ADD ADD DUP2 SWAP1 MSTORE POP PUSH1 0x40 MLOAD DUP1 PUSH1 0x60 ADD PUSH1 0x40 MSTORE DUP1 PUSH1 0x40 MLOAD DUP1 PUSH1 0x40 ADD PUSH1 0x40 MSTORE DUP1 PUSH1 0x9 DUP2 MSTORE PUSH1 0x20 ADD PUSH32 0x6E756C6C69666965720000000000000000000000000000000000000000000000 DUP2 MSTORE POP DUP2 MSTORE PUSH1 0x20 ADD PUSH1 0x40 MLOAD DUP1 PUSH1 0x40 ADD PUSH1 0x40 MSTORE DUP1 PUSH1 0x7 DUP2 MSTORE PUSH1 0x20 ADD PUSH32 0x75696E7432353600000000000000000000000000000000000000000000000000 DUP2 MSTORE POP DUP2 MSTORE PUSH1 0x20 ADD DUP5 PUSH1 0x40 MLOAD PUSH1 0x20 ADD PUSH2 0x977 SWAP2 SWAP1 PUSH2 0x21A2 JUMP JUMPDEST PUSH1 0x40 MLOAD PUSH1 0x20 DUP2 DUP4 SUB SUB DUP2 MSTORE SWAP1 PUSH1 0x40 MSTORE DUP2 MSTORE POP DUP2 PUSH1 0x4 DUP2 MLOAD DUP2 LT PUSH2 0x99D JUMPI PUSH2 0x99C PUSH2 0x292D JUMP JUMPDEST JUMPDEST PUSH1 0x20 MUL PUSH1 0x20 ADD ADD DUP2 SWAP1 MSTORE POP PUSH1 0x40 MLOAD DUP1 PUSH1 0x60 ADD PUSH1 0x40 MSTORE DUP1 PUSH1 0x40 MLOAD DUP1 PUSH1 0x40 ADD PUSH1 0x40 MSTORE DUP1 PUSH1 0x9 DUP2 MSTORE PUSH1 0x20 ADD PUSH32 0x74696D657374616D700000000000000000000000000000000000000000000000 DUP2 MSTORE POP DUP2 MSTORE PUSH1 0x20 ADD PUSH1 0x40 MLOAD DUP1 PUSH1 0x40 ADD PUSH1 0x40 MSTORE DUP1 PUSH1 0x7 DUP2 MSTORE PUSH1 0x20 ADD PUSH32 0x75696E7432353600000000000000000000000000000000000000000000000000 DUP2 MSTORE POP DUP2 MSTORE PUSH1 0x20 ADD TIMESTAMP PUSH1 0x40 MLOAD PUSH1 0x20 ADD PUSH2 0xA3A SWAP2 SWAP1 PUSH2 0x21A2 JUMP JUMPDEST PUSH1 0x40 MLOAD PUSH1 0x20 DUP2 DUP4 SUB SUB DUP2 MSTORE SWAP1 PUSH1 0x40 MSTORE DUP2 MSTORE POP DUP2 PUSH1 0x5 DUP2 MLOAD DUP2 LT PUSH2 0xA60 JUMPI PUSH2 0xA5F PUSH2 0x292D JUMP JUMPDEST JUMPDEST PUSH1 0x20 MUL PUSH1 0x20 ADD ADD DUP2 SWAP1 MSTORE POP PUSH32 0x0 PUSH20 0xFFFFFFFFFFFFFFFFFFFFFFFFFFFFFFFFFFFFFFFF AND PUSH4 0x7D64FA9B DUP3 PUSH1 0x40 MLOAD DUP3 PUSH4 0xFFFFFFFF AND PUSH1 0xE0 SHL DUP2 MSTORE PUSH1 0x4 ADD PUSH2 0xAC4 SWAP2 SWAP1 PUSH2 0x2C43 JUMP JUMPDEST PUSH0 PUSH1 0x40 MLOAD DUP1 DUP4 SUB DUP2 PUSH0 DUP8 DUP1 EXTCODESIZE ISZERO DUP1 ISZERO PUSH2 0xADB JUMPI PUSH0 PUSH0 REVERT JUMPDEST POP GAS CALL ISZERO DUP1 ISZERO PUSH2 0xAED JUMPI RETURNDATASIZE PUSH0 PUSH0 RETURNDATACOPY RETURNDATASIZE PUSH0 REVERT JUMPDEST POP POP POP POP DUP2 PUSH20 0xFFFFFFFFFFFFFFFFFFFFFFFFFFFFFFFFFFFFFFFF AND DUP8 PUSH20 0xFFFFFFFFFFFFFFFFFFFFFFFFFFFFFFFFFFFFFFFF AND PUSH32 0xCC4F8702356931E6D23A93D1B60BEAC6A7EA77D447ADA4B1502A09D0B7125709 DUP7 PUSH1 0x1 PUSH1 0x40 MLOAD PUSH2 0xB51 SWAP3 SWAP2 SWAP1 PUSH2 0x2C76 JUMP JUMPDEST PUSH1 0x40 MLOAD DUP1 SWAP2 SUB SWAP1 LOG3 POP POP POP POP POP POP POP JUMP JUMPDEST PUSH0 PUSH0 PUSH0 SWAP1 SLOAD SWAP1 PUSH2 0x100 EXP SWAP1 DIV PUSH20 0xFFFFFFFFFFFFFFFFFFFFFFFFFFFFFFFFFFFFFFFF AND SWAP1 POP SWAP1 JUMP JUMPDEST PUSH0 PUSH2 0xBD6 DUP5 DUP5 DUP1 DUP1 PUSH1 0x1F ADD PUSH1 0x20 DUP1 SWAP2 DIV MUL PUSH1 0x20 ADD PUSH1 0x40 MLOAD SWAP1 DUP2 ADD PUSH1 0x40 MSTORE DUP1 SWAP4 SWAP3 SWAP2 SWAP1 DUP2 DUP2 MSTORE PUSH1 0x20 ADD DUP4 DUP4 DUP1 DUP3 DUP5 CALLDATACOPY PUSH0 DUP2 DUP5 ADD MSTORE PUSH1 0x1F NOT PUSH1 0x1F DUP3 ADD AND SWAP1 POP DUP1 DUP4 ADD SWAP3 POP POP POP POP POP POP POP PUSH2 0x321 JUMP JUMPDEST SWAP1 POP PUSH1 0x5 PUSH0 DUP3 PUSH20 0xFFFFFFFFFFFFFFFFFFFFFFFFFFFFFFFFFFFFFFFF AND PUSH20 0xFFFFFFFFFFFFFFFFFFFFFFFFFFFFFFFFFFFFFFFF AND DUP2 MSTORE PUSH1 0x20 ADD SWAP1 DUP2 MSTORE PUSH1 0x20 ADD PUSH0 KECCAK256 PUSH0 SWAP1 SLOAD SWAP1 PUSH2 0x100 EXP SWAP1 DIV PUSH1 0xFF AND PUSH2 0xC61 JUMPI PUSH1 0x40 MLOAD PUSH32 0x8C379A000000000000000000000000000000000000000000000000000000000 DUP2 MSTORE PUSH1 0x4 ADD PUSH2 0xC58 SWAP1 PUSH2 0x290F JUMP JUMPDEST PUSH1 0x40 MLOAD DUP1 SWAP2 SUB SWAP1 REVERT JUMPDEST PUSH0 DUP3 GT PUSH2 0xCA3 JUMPI PUSH1 0x40 MLOAD PUSH32 0x8C379A000000000000000000000000000000000000000000000000000000000 DUP2 MSTORE PUSH1 0x4 ADD PUSH2 0xC9A SWAP1 PUSH2 0x2CEE JUMP JUMPDEST PUSH1 0x40 MLOAD DUP1 SWAP2 SUB SWAP1 REVERT JUMPDEST PUSH2 0xCD0 CALLER ADDRESS DUP5 DUP5 PUSH20 0xFFFFFFFFFFFFFFFFFFFFFFFFFFFFFFFFFFFFFFFF AND PUSH2 0x1C74 SWAP1 SWAP4 SWAP3 SWAP2 SWAP1 PUSH4 0xFFFFFFFF AND JUMP JUMPDEST PUSH0 PUSH1 0x6 PUSH8 0xFFFFFFFFFFFFFFFF DUP2 GT ISZERO PUSH2 0xCEC JUMPI PUSH2 0xCEB PUSH2 0x1F3F JUMP JUMPDEST JUMPDEST PUSH1 0x40 MLOAD SWAP1 DUP1 DUP3 MSTORE DUP1 PUSH1 0x20 MUL PUSH1 0x20 ADD DUP3 ADD PUSH1 0x40 MSTORE DUP1 ISZERO PUSH2 0xD25 JUMPI DUP2 PUSH1 0x20 ADD JUMPDEST PUSH2 0xD12 PUSH2 0x1E75 JUMP JUMPDEST DUP2 MSTORE PUSH1 0x20 ADD SWAP1 PUSH1 0x1 SWAP1 SUB SWAP1 DUP2 PUSH2 0xD0A JUMPI SWAP1 POP JUMPDEST POP SWAP1 POP PUSH1 0x40 MLOAD DUP1 PUSH1 0x60 ADD PUSH1 0x40 MSTORE DUP1 PUSH1 0x40 MLOAD DUP1 PUSH1 0x40 ADD PUSH1 0x40 MSTORE DUP1 PUSH1 0x4 DUP2 MSTORE PUSH1 0x20 ADD PUSH32 0x7573657200000000000000000000000000000000000000000000000000000000 DUP2 MSTORE POP DUP2 MSTORE PUSH1 0x20 ADD PUSH1 0x40 MLOAD DUP1 PUSH1 0x40 ADD PUSH1 0x40 MSTORE DUP1 PUSH1 0x7 DUP2 MSTORE PUSH1 0x20 ADD PUSH32 0x6164647265737300000000000000000000000000000000000000000000000000 DUP2 MSTORE POP DUP2 MSTORE PUSH1 0x20 ADD CALLER PUSH1 0x40 MLOAD PUSH1 0x20 ADD PUSH2 0xDBA SWAP2 SWAP1 PUSH2 0x20E9 JUMP JUMPDEST PUSH1 0x40 MLOAD PUSH1 0x20 DUP2 DUP4 SUB SUB DUP2 MSTORE SWAP1 PUSH1 0x40 MSTORE DUP2 MSTORE POP DUP2 PUSH0 DUP2 MLOAD DUP2 LT PUSH2 0xDDF JUMPI PUSH2 0xDDE PUSH2 0x292D JUMP JUMPDEST JUMPDEST PUSH1 0x20 MUL PUSH1 0x20 ADD ADD DUP2 SWAP1 MSTORE POP PUSH1 0x40 MLOAD DUP1 PUSH1 0x60 ADD PUSH1 0x40 MSTORE DUP1 PUSH1 0x40 MLOAD DUP1 PUSH1 0x40 ADD PUSH1 0x40 MSTORE DUP1 PUSH1 0x6 DUP2 MSTORE PUSH1 0x20 ADD PUSH32 0x616D6F756E740000000000000000000000000000000000000000000000000000 DUP2 MSTORE POP DUP2 MSTORE PUSH1 0x20 ADD PUSH1 0x40 MLOAD DUP1 PUSH1 0x40 ADD PUSH1 0x40 MSTORE DUP1 PUSH1 0x7 DUP2 MSTORE PUSH1 0x20 ADD PUSH32 0x75696E7432353600000000000000000000000000000000000000000000000000 DUP2 MSTORE POP DUP2 MSTORE PUSH1 0x20 ADD DUP5 PUSH1 0x40 MLOAD PUSH1 0x20 ADD PUSH2 0xE7C SWAP2 SWAP1 PUSH2 0x21A2 JUMP JUMPDEST PUSH1 0x40 MLOAD PUSH1 0x20 DUP2 DUP4 SUB SUB DUP2 MSTORE SWAP1 PUSH1 0x40 MSTORE DUP2 MSTORE POP DUP2 PUSH1 0x1 DUP2 MLOAD DUP2 LT PUSH2 0xEA2 JUMPI PUSH2 0xEA1 PUSH2 0x292D JUMP JUMPDEST JUMPDEST PUSH1 0x20 MUL PUSH1 0x20 ADD ADD DUP2 SWAP1 MSTORE POP PUSH1 0x40 MLOAD DUP1 PUSH1 0x60 ADD PUSH1 0x40 MSTORE DUP1 PUSH1 0x40 MLOAD DUP1 PUSH1 0x40 ADD PUSH1 0x40 MSTORE DUP1 PUSH1 0x5 DUP2 MSTORE PUSH1 0x20 ADD PUSH32 0x746F6B656E000000000000000000000000000000000000000000000000000000 DUP2 MSTORE POP DUP2 MSTORE PUSH1 0x20 ADD PUSH1 0x40 MLOAD DUP1 PUSH1 0x40 ADD PUSH1 0x40 MSTORE DUP1 PUSH1 0x6 DUP2 MSTORE PUSH1 0x20 ADD PUSH32 0x737472696E670000000000000000000000000000000000000000000000000000 DUP2 MSTORE POP DUP2 MSTORE PUSH1 0x20 ADD DUP7 DUP7 PUSH1 0x40 MLOAD PUSH1 0x20 ADD PUSH2 0xF41 SWAP3 SWAP2 SWAP1 PUSH2 0x2986 JUMP JUMPDEST PUSH1 0x40 MLOAD PUSH1 0x20 DUP2 DUP4 SUB SUB DUP2 MSTORE SWAP1 PUSH1 0x40 MSTORE DUP2 MSTORE POP DUP2 PUSH1 0x2 DUP2 MLOAD DUP2 LT PUSH2 0xF67 JUMPI PUSH2 0xF66 PUSH2 0x292D JUMP JUMPDEST JUMPDEST PUSH1 0x20 MUL PUSH1 0x20 ADD ADD DUP2 SWAP1 MSTORE POP PUSH1 0x40 MLOAD DUP1 PUSH1 0x60 ADD PUSH1 0x40 MSTORE DUP1 PUSH1 0x40 MLOAD DUP1 PUSH1 0x40 ADD PUSH1 0x40 MSTORE DUP1 PUSH1 0x8 DUP2 MSTORE PUSH1 0x20 ADD PUSH32 0x70726F7669646572000000000000000000000000000000000000000000000000 DUP2 MSTORE POP DUP2 MSTORE PUSH1 0x20 ADD PUSH1 0x40 MLOAD DUP1 PUSH1 0x40 ADD PUSH1 0x40 MSTORE DUP1 PUSH1 0x6 DUP2 MSTORE PUSH1 0x20 ADD PUSH32 0x737472696E670000000000000000000000000000000000000000000000000000 DUP2 MSTORE POP DUP2 MSTORE PUSH1 0x20 ADD PUSH1 0x1 PUSH1 0x40 MLOAD PUSH1 0x20 ADD PUSH2 0x1005 SWAP2 SWAP1 PUSH2 0x2A29 JUMP JUMPDEST PUSH1 0x40 MLOAD PUSH1 0x20 DUP2 DUP4 SUB SUB DUP2 MSTORE SWAP1 PUSH1 0x40 MSTORE DUP2 MSTORE POP DUP2 PUSH1 0x3 DUP2 MLOAD DUP2 LT PUSH2 0x102B JUMPI PUSH2 0x102A PUSH2 0x292D JUMP JUMPDEST JUMPDEST PUSH1 0x20 MUL PUSH1 0x20 ADD ADD DUP2 SWAP1 MSTORE POP PUSH1 0x40 MLOAD DUP1 PUSH1 0x60 ADD PUSH1 0x40 MSTORE DUP1 PUSH1 0x40 MLOAD DUP1 PUSH1 0x40 ADD PUSH1 0x40 MSTORE DUP1 PUSH1 0x9 DUP2 MSTORE PUSH1 0x20 ADD PUSH32 0x74696D657374616D700000000000000000000000000000000000000000000000 DUP2 MSTORE POP DUP2 MSTORE PUSH1 0x20 ADD PUSH1 0x40 MLOAD DUP1 PUSH1 0x40 ADD PUSH1 0x40 MSTORE DUP1 PUSH1 0x7 DUP2 MSTORE PUSH1 0x20 ADD PUSH32 0x75696E7432353600000000000000000000000000000000000000000000000000 DUP2 MSTORE POP DUP2 MSTORE PUSH1 0x20 ADD TIMESTAMP PUSH1 0x40 MLOAD PUSH1 0x20 ADD PUSH2 0x10C8 SWAP2 SWAP1 PUSH2 0x21A2 JUMP JUMPDEST PUSH1 0x40 MLOAD PUSH1 0x20 DUP2 DUP4 SUB SUB DUP2 MSTORE SWAP1 PUSH1 0x40 MSTORE DUP2 MSTORE POP DUP2 PUSH1 0x4 DUP2 MLOAD DUP2 LT PUSH2 0x10EE JUMPI PUSH2 0x10ED PUSH2 0x292D JUMP JUMPDEST JUMPDEST PUSH1 0x20 MUL PUSH1 0x20 ADD ADD DUP2 SWAP1 MSTORE POP PUSH1 0x40 MLOAD DUP1 PUSH1 0x60 ADD PUSH1 0x40 MSTORE DUP1 PUSH1 0x40 MLOAD DUP1 PUSH1 0x40 ADD PUSH1 0x40 MSTORE DUP1 PUSH1 0x4 DUP2 MSTORE PUSH1 0x20 ADD PUSH32 0x7261746500000000000000000000000000000000000000000000000000000000 DUP2 MSTORE POP DUP2 MSTORE PUSH1 0x20 ADD PUSH1 0x40 MLOAD DUP1 PUSH1 0x40 ADD PUSH1 0x40 MSTORE DUP1 PUSH1 0x7 DUP2 MSTORE PUSH1 0x20 ADD PUSH32 0x75696E7432353600000000000000000000000000000000000000000000000000 DUP2 MSTORE POP DUP2 MSTORE PUSH1 0x20 ADD PUSH2 0x1182 PUSH2 0x1CC9 JUMP JUMPDEST PUSH1 0x40 MLOAD PUSH1 0x20 ADD PUSH2 0x1192 SWAP2 SWAP1 PUSH2 0x21A2 JUMP JUMPDEST PUSH1 0x40 MLOAD PUSH1 0x20 DUP2 DUP4 SUB SUB DUP2 MSTORE SWAP1 PUSH1 0x40 MSTORE DUP2 MSTORE POP DUP2 PUSH1 0x5 DUP2 MLOAD DUP2 LT PUSH2 0x11B8 JUMPI PUSH2 0x11B7 PUSH2 0x292D JUMP JUMPDEST JUMPDEST PUSH1 0x20 MUL PUSH1 0x20 ADD ADD DUP2 SWAP1 MSTORE POP PUSH32 0x0 PUSH20 0xFFFFFFFFFFFFFFFFFFFFFFFFFFFFFFFFFFFFFFFF AND PUSH4 0x7D64FA9B DUP3 PUSH1 0x40 MLOAD DUP3 PUSH4 0xFFFFFFFF AND PUSH1 0xE0 SHL DUP2 MSTORE PUSH1 0x4 ADD PUSH2 0x121C SWAP2 SWAP1 PUSH2 0x2D56 JUMP JUMPDEST PUSH0 PUSH1 0x40 MLOAD DUP1 DUP4 SUB DUP2 PUSH0 DUP8 DUP1 EXTCODESIZE ISZERO DUP1 ISZERO PUSH2 0x1233 JUMPI PUSH0 PUSH0 REVERT JUMPDEST POP GAS CALL ISZERO DUP1 ISZERO PUSH2 0x1245 JUMPI RETURNDATASIZE PUSH0 PUSH0 RETURNDATACOPY RETURNDATASIZE PUSH0 REVERT JUMPDEST POP POP POP POP DUP2 PUSH20 0xFFFFFFFFFFFFFFFFFFFFFFFFFFFFFFFFFFFFFFFF AND CALLER PUSH20 0xFFFFFFFFFFFFFFFFFFFFFFFFFFFFFFFFFFFFFFFF AND PUSH32 0xEF519B7EB82AAF6AC376A6DF2D793843EBFD593DE5F1A0601D3CC6AB49EBB395 DUP6 PUSH1 0x1 PUSH1 0x40 MLOAD PUSH2 0x12A9 SWAP3 SWAP2 SWAP1 PUSH2 0x2C76 JUMP JUMPDEST PUSH1 0x40 MLOAD DUP1 SWAP2 SUB SWAP1 LOG3 POP POP POP POP POP JUMP JUMPDEST PUSH32 0x0 DUP2 JUMP JUMPDEST PUSH32 0x0 DUP2 JUMP JUMPDEST PUSH0 PUSH2 0x134D DUP5 DUP5 DUP1 DUP1 PUSH1 0x1F ADD PUSH1 0x20 DUP1 SWAP2 DIV MUL PUSH1 0x20 ADD PUSH1 0x40 MLOAD SWAP1 DUP2 ADD PUSH1 0x40 MSTORE DUP1 SWAP4 SWAP3 SWAP2 SWAP1 DUP2 DUP2 MSTORE PUSH1 0x20 ADD DUP4 DUP4 DUP1 DUP3 DUP5 CALLDATACOPY PUSH0 DUP2 DUP5 ADD MSTORE PUSH1 0x1F NOT PUSH1 0x1F DUP3 ADD AND SWAP1 POP DUP1 DUP4 ADD SWAP3 POP POP POP POP POP POP POP PUSH2 0x321 JUMP JUMPDEST SWAP1 POP PUSH1 0x5 PUSH0 DUP3 PUSH20 0xFFFFFFFFFFFFFFFFFFFFFFFFFFFFFFFFFFFFFFFF AND PUSH20 0xFFFFFFFFFFFFFFFFFFFFFFFFFFFFFFFFFFFFFFFF AND DUP2 MSTORE PUSH1 0x20 ADD SWAP1 DUP2 MSTORE PUSH1 0x20 ADD PUSH0 KECCAK256 PUSH0 SWAP1 SLOAD SWAP1 PUSH2 0x100 EXP SWAP1 DIV PUSH1 0xFF AND PUSH2 0x13D8 JUMPI PUSH1 0x40 MLOAD PUSH32 0x8C379A000000000000000000000000000000000000000000000000000000000 DUP2 MSTORE PUSH1 0x4 ADD PUSH2 0x13CF SWAP1 PUSH2 0x290F JUMP JUMPDEST PUSH1 0x40 MLOAD DUP1 SWAP2 SUB SWAP1 REVERT JUMPDEST PUSH0 PUSH1 0x6 PUSH8 0xFFFFFFFFFFFFFFFF DUP2 GT ISZERO PUSH2 0x13F4 JUMPI PUSH2 0x13F3 PUSH2 0x1F3F JUMP JUMPDEST JUMPDEST PUSH1 0x40 MLOAD SWAP1 DUP1 DUP3 MSTORE DUP1 PUSH1 0x20 MUL PUSH1 0x20 ADD DUP3 ADD PUSH1 0x40 MSTORE DUP1 ISZERO PUSH2 0x142D JUMPI DUP2 PUSH1 0x20 ADD JUMPDEST PUSH2 0x141A PUSH2 0x1E75 JUMP JUMPDEST DUP2 MSTORE PUSH1 0x20 ADD SWAP1 PUSH1 0x1 SWAP1 SUB SWAP1 DUP2 PUSH2 0x1412 JUMPI SWAP1 POP JUMPDEST POP SWAP1 POP PUSH1 0x40 MLOAD DUP1 PUSH1 0x60 ADD PUSH1 0x40 MSTORE DUP1 PUSH1 0x40 MLOAD DUP1 PUSH1 0x40 ADD PUSH1 0x40 MSTORE DUP1 PUSH1 0x4 DUP2 MSTORE PUSH1 0x20 ADD PUSH32 0x7573657200000000000000000000000000000000000000000000000000000000 DUP2 MSTORE POP DUP2 MSTORE PUSH1 0x20 ADD PUSH1 0x40 MLOAD DUP1 PUSH1 0x40 ADD PUSH1 0x40 MSTORE DUP1 PUSH1 0x5 DUP2 MSTORE PUSH1 0x20 ADD PUSH32 0x6279746573000000000000000000000000000000000000000000000000000000 DUP2 MSTORE POP DUP2 MSTORE PUSH1 0x20 ADD DUP11 DUP11 PUSH1 0x40 MLOAD PUSH1 0x20 ADD PUSH2 0x14C4 SWAP3 SWAP2 SWAP1 PUSH2 0x2DC5 JUMP JUMPDEST PUSH1 0x40 MLOAD PUSH1 0x20 DUP2 DUP4 SUB SUB DUP2 MSTORE SWAP1 PUSH1 0x40 MSTORE DUP2 MSTORE POP DUP2 PUSH0 DUP2 MLOAD DUP2 LT PUSH2 0x14E9 JUMPI PUSH2 0x14E8 PUSH2 0x292D JUMP JUMPDEST JUMPDEST PUSH1 0x20 MUL PUSH1 0x20 ADD ADD DUP2 SWAP1 MSTORE POP PUSH1 0x40 MLOAD DUP1 PUSH1 0x60 ADD PUSH1 0x40 MSTORE DUP1 PUSH1 0x40 MLOAD DUP1 PUSH1 0x40 ADD PUSH1 0x40 MSTORE DUP1 PUSH1 0x6 DUP2 MSTORE PUSH1 0x20 ADD PUSH32 0x7368617265640000000000000000000000000000000000000000000000000000 DUP2 MSTORE POP DUP2 MSTORE PUSH1 0x20 ADD PUSH1 0x40 MLOAD DUP1 PUSH1 0x40 ADD PUSH1 0x40 MSTORE DUP1 PUSH1 0x7 DUP2 MSTORE PUSH1 0x20 ADD PUSH32 0x6164647265737300000000000000000000000000000000000000000000000000 DUP2 MSTORE POP DUP2 MSTORE PUSH1 0x20 ADD DUP9 DUP9 PUSH1 0x40 MLOAD PUSH1 0x20 ADD PUSH2 0x1588 SWAP3 SWAP2 SWAP1 PUSH2 0x2986 JUMP JUMPDEST PUSH1 0x40 MLOAD PUSH1 0x20 DUP2 DUP4 SUB SUB DUP2 MSTORE SWAP1 PUSH1 0x40 MSTORE DUP2 MSTORE POP DUP2 PUSH1 0x1 DUP2 MLOAD DUP2 LT PUSH2 0x15AE JUMPI PUSH2 0x15AD PUSH2 0x292D JUMP JUMPDEST JUMPDEST PUSH1 0x20 MUL PUSH1 0x20 ADD ADD DUP2 SWAP1 MSTORE POP PUSH1 0x40 MLOAD DUP1 PUSH1 0x60 ADD PUSH1 0x40 MSTORE DUP1 PUSH1 0x40 MLOAD DUP1 PUSH1 0x40 ADD PUSH1 0x40 MSTORE DUP1 PUSH1 0x6 DUP2 MSTORE PUSH1 0x20 ADD PUSH32 0x616D6F756E740000000000000000000000000000000000000000000000000000 DUP2 MSTORE POP DUP2 MSTORE PUSH1 0x20 ADD PUSH1 0x40 MLOAD DUP1 PUSH1 0x40 ADD PUSH1 0x40 MSTORE DUP1 PUSH1 0x7 DUP2 MSTORE PUSH1 0x20 ADD PUSH32 0x75696E7432353600000000000000000000000000000000000000000000000000 DUP2 MSTORE POP DUP2 MSTORE PUSH1 0x20 ADD DUP5 PUSH1 0x40 MLOAD PUSH1 0x20 ADD PUSH2 0x164B SWAP2 SWAP1 PUSH2 0x21A2 JUMP JUMPDEST PUSH1 0x40 MLOAD PUSH1 0x20 DUP2 DUP4 SUB SUB DUP2 MSTORE SWAP1 PUSH1 0x40 MSTORE DUP2 MSTORE POP DUP2 PUSH1 0x2 DUP2 MLOAD DUP2 LT PUSH2 0x1671 JUMPI PUSH2 0x1670 PUSH2 0x292D JUMP JUMPDEST JUMPDEST PUSH1 0x20 MUL PUSH1 0x20 ADD ADD DUP2 SWAP1 MSTORE POP PUSH1 0x40 MLOAD DUP1 PUSH1 0x60 ADD PUSH1 0x40 MSTORE DUP1 PUSH1 0x40 MLOAD DUP1 PUSH1 0x40 ADD PUSH1 0x40 MSTORE DUP1 PUSH1 0x5 DUP2 MSTORE PUSH1 0x20 ADD PUSH32 0x636861696E000000000000000000000000000000000000000000000000000000 DUP2 MSTORE POP DUP2 MSTORE PUSH1 0x20 ADD PUSH1 0x40 MLOAD DUP1 PUSH1 0x40 ADD PUSH1 0x40 MSTORE DUP1 PUSH1 0x6 DUP2 MSTORE PUSH1 0x20 ADD PUSH32 0x737472696E670000000000000000000000000000000000000000000000000000 DUP2 MSTORE POP DUP2 MSTORE PUSH1 0x20 ADD PUSH1 0x40 MLOAD PUSH1 0x20 ADD PUSH2 0x170C SWAP1 PUSH2 0x2E31 JUMP JUMPDEST PUSH1 0x40 MLOAD PUSH1 0x20 DUP2 DUP4 SUB SUB DUP2 MSTORE SWAP1 PUSH1 0x40 MSTORE DUP2 MSTORE POP DUP2 PUSH1 0x3 DUP2 MLOAD DUP2 LT PUSH2 0x1732 JUMPI PUSH2 0x1731 PUSH2 0x292D JUMP JUMPDEST JUMPDEST PUSH1 0x20 MUL PUSH1 0x20 ADD ADD DUP2 SWAP1 MSTORE POP PUSH1 0x40 MLOAD DUP1 PUSH1 0x60 ADD PUSH1 0x40 MSTORE DUP1 PUSH1 0x40 MLOAD DUP1 PUSH1 0x40 ADD PUSH1 0x40 MSTORE DUP1 PUSH1 0x8 DUP2 MSTORE PUSH1 0x20 ADD PUSH32 0x70726F7669646572000000000000000000000000000000000000000000000000 DUP2 MSTORE POP DUP2 MSTORE PUSH1 0x20 ADD PUSH1 0x40 MLOAD DUP1 PUSH1 0x40 ADD PUSH1 0x40 MSTORE DUP1 PUSH1 0x6 DUP2 MSTORE PUSH1 0x20 ADD PUSH32 0x737472696E670000000000000000000000000000000000000000000000000000 DUP2 MSTORE POP DUP2 MSTORE PUSH1 0x20 ADD PUSH1 0x1 PUSH1 0x40 MLOAD PUSH1 0x20 ADD PUSH2 0x17D0 SWAP2 SWAP1 PUSH2 0x2A29 JUMP JUMPDEST PUSH1 0x40 MLOAD PUSH1 0x20 DUP2 DUP4 SUB SUB DUP2 MSTORE SWAP1 PUSH1 0x40 MSTORE DUP2 MSTORE POP DUP2 PUSH1 0x4 DUP2 MLOAD DUP2 LT PUSH2 0x17F6 JUMPI PUSH2 0x17F5 PUSH2 0x292D JUMP JUMPDEST JUMPDEST PUSH1 0x20 MUL PUSH1 0x20 ADD ADD DUP2 SWAP1 MSTORE POP PUSH1 0x40 MLOAD DUP1 PUSH1 0x60 ADD PUSH1 0x40 MSTORE DUP1 PUSH1 0x40 MLOAD DUP1 PUSH1 0x40 ADD PUSH1 0x40 MSTORE DUP1 PUSH1 0x5 DUP2 MSTORE PUSH1 0x20 ADD PUSH32 0x746F6B656E000000000000000000000000000000000000000000000000000000 DUP2 MSTORE POP DUP2 MSTORE PUSH1 0x20 ADD PUSH1 0x40 MLOAD DUP1 PUSH1 0x40 ADD PUSH1 0x40 MSTORE DUP1 PUSH1 0x6 DUP2 MSTORE PUSH1 0x20 ADD PUSH32 0x737472696E670000000000000000000000000000000000000000000000000000 DUP2 MSTORE POP DUP2 MSTORE PUSH1 0x20 ADD DUP7 DUP7 PUSH1 0x40 MLOAD PUSH1 0x20 ADD PUSH2 0x1895 SWAP3 SWAP2 SWAP1 PUSH2 0x2986 JUMP JUMPDEST PUSH1 0x40 MLOAD PUSH1 0x20 DUP2 DUP4 SUB SUB DUP2 MSTORE SWAP1 PUSH1 0x40 MSTORE DUP2 MSTORE POP DUP2 PUSH1 0x5 DUP2 MLOAD DUP2 LT PUSH2 0x18BB JUMPI PUSH2 0x18BA PUSH2 0x292D JUMP JUMPDEST JUMPDEST PUSH1 0x20 MUL PUSH1 0x20 ADD ADD DUP2 SWAP1 MSTORE POP PUSH32 0x0 PUSH20 0xFFFFFFFFFFFFFFFFFFFFFFFFFFFFFFFFFFFFFFFF AND PUSH4 0x7D64FA9B DUP3 PUSH1 0x40 MLOAD DUP3 PUSH4 0xFFFFFFFF AND PUSH1 0xE0 SHL DUP2 MSTORE PUSH1 0x4 ADD PUSH2 0x191F SWAP2 SWAP1 PUSH2 0x2E99 JUMP JUMPDEST PUSH0 PUSH1 0x40 MLOAD DUP1 DUP4 SUB DUP2 PUSH0 DUP8 DUP1 EXTCODESIZE ISZERO DUP1 ISZERO PUSH2 0x1936 JUMPI PUSH0 PUSH0 REVERT JUMPDEST POP GAS CALL ISZERO DUP1 ISZERO PUSH2 0x1948 JUMPI RETURNDATASIZE PUSH0 PUSH0 RETURNDATACOPY RETURNDATASIZE PUSH0 REVERT JUMPDEST POP POP POP POP POP POP POP POP POP POP POP POP POP JUMP JUMPDEST PUSH0 PUSH2 0x19A4 DUP4 DUP4 DUP1 DUP1 PUSH1 0x1F ADD PUSH1 0x20 DUP1 SWAP2 DIV MUL PUSH1 0x20 ADD PUSH1 0x40 MLOAD SWAP1 DUP2 ADD PUSH1 0x40 MSTORE DUP1 SWAP4 SWAP3 SWAP2 SWAP1 DUP2 DUP2 MSTORE PUSH1 0x20 ADD DUP4 DUP4 DUP1 DUP3 DUP5 CALLDATACOPY PUSH0 DUP2 DUP5 ADD MSTORE PUSH1 0x1F NOT PUSH1 0x1F DUP3 ADD AND SWAP1 POP DUP1 DUP4 ADD SWAP3 POP POP POP POP POP POP POP PUSH2 0x321 JUMP JUMPDEST SWAP1 POP PUSH1 0x1 PUSH1 0x5 PUSH0 DUP4 PUSH20 0xFFFFFFFFFFFFFFFFFFFFFFFFFFFFFFFFFFFFFFFF AND PUSH20 0xFFFFFFFFFFFFFFFFFFFFFFFFFFFFFFFFFFFFFFFF AND DUP2 MSTORE PUSH1 0x20 ADD SWAP1 DUP2 MSTORE PUSH1 0x20 ADD PUSH0 KECCAK256 PUSH0 PUSH2 0x100 EXP DUP2 SLOAD DUP2 PUSH1 0xFF MUL NOT AND SWAP1 DUP4 ISZERO ISZERO MUL OR SWAP1 SSTORE POP DUP1 PUSH20 0xFFFFFFFFFFFFFFFFFFFFFFFFFFFFFFFFFFFFFFFF AND PUSH32 0xD57B1148EFB91F418A2178FC1FB4BA12F9400A4DC8E71851FD59E85D337C609F PUSH1 0x1 PUSH1 0x40 MLOAD PUSH2 0x1A42 SWAP2 SWAP1 PUSH2 0x2A29 JUMP JUMPDEST PUSH1 0x40 MLOAD DUP1 SWAP2 SUB SWAP1 LOG2 POP POP POP JUMP JUMPDEST PUSH2 0x1A57 PUSH2 0x1AD9 JUMP JUMPDEST PUSH0 PUSH20 0xFFFFFFFFFFFFFFFFFFFFFFFFFFFFFFFFFFFFFFFF AND DUP2 PUSH20 0xFFFFFFFFFFFFFFFFFFFFFFFFFFFFFFFFFFFFFFFF AND SUB PUSH2 0x1AC7 JUMPI PUSH0 PUSH1 0x40 MLOAD PUSH32 0x1E4FBDF700000000000000000000000000000000000000000000000000000000 DUP2 MSTORE PUSH1 0x4 ADD PUSH2 0x1ABE SWAP2 SWAP1 PUSH2 0x20E9 JUMP JUMPDEST PUSH1 0x40 MLOAD DUP1 SWAP2 SUB SWAP1 REVERT JUMPDEST PUSH2 0x1AD0 DUP2 PUSH2 0x1B60 JUMP JUMPDEST POP JUMP JUMPDEST PUSH1 0x2 SLOAD DUP2 JUMP JUMPDEST PUSH2 0x1AE1 PUSH2 0x1D9B JUMP JUMPDEST PUSH20 0xFFFFFFFFFFFFFFFFFFFFFFFFFFFFFFFFFFFFFFFF AND PUSH2 0x1AFF PUSH2 0xB62 JUMP JUMPDEST PUSH20 0xFFFFFFFFFFFFFFFFFFFFFFFFFFFFFFFFFFFFFFFF AND EQ PUSH2 0x1B5E JUMPI PUSH2 0x1B22 PUSH2 0x1D9B JUMP JUMPDEST PUSH1 0x40 MLOAD PUSH32 0x118CDAA700000000000000000000000000000000000000000000000000000000 DUP2 MSTORE PUSH1 0x4 ADD PUSH2 0x1B55 SWAP2 SWAP1 PUSH2 0x20E9 JUMP JUMPDEST PUSH1 0x40 MLOAD DUP1 SWAP2 SUB SWAP1 REVERT JUMPDEST JUMP JUMPDEST PUSH0 PUSH0 PUSH0 SWAP1 SLOAD SWAP1 PUSH2 0x100 EXP SWAP1 DIV PUSH20 0xFFFFFFFFFFFFFFFFFFFFFFFFFFFFFFFFFFFFFFFF AND SWAP1 POP DUP2 PUSH0 PUSH0 PUSH2 0x100 EXP DUP2 SLOAD DUP2 PUSH20 0xFFFFFFFFFFFFFFFFFFFFFFFFFFFFFFFFFFFFFFFF MUL NOT AND SWAP1 DUP4 PUSH20 0xFFFFFFFFFFFFFFFFFFFFFFFFFFFFFFFFFFFFFFFF AND MUL OR SWAP1 SSTORE POP DUP2 PUSH20 0xFFFFFFFFFFFFFFFFFFFFFFFFFFFFFFFFFFFFFFFF AND DUP2 PUSH20 0xFFFFFFFFFFFFFFFFFFFFFFFFFFFFFFFFFFFFFFFF AND PUSH32 0x8BE0079C531659141344CD1FD0A4F28419497F9722A3DAAFE3B4186F6B6457E0 PUSH1 0x40 MLOAD PUSH1 0x40 MLOAD DUP1 SWAP2 SUB SWAP1 LOG3 POP POP JUMP JUMPDEST PUSH2 0x1C2E DUP4 DUP4 DUP4 PUSH1 0x1 PUSH2 0x1DA2 JUMP JUMPDEST PUSH2 0x1C6F JUMPI DUP3 PUSH1 0x40 MLOAD PUSH32 0x5274AFE700000000000000000000000000000000000000000000000000000000 DUP2 MSTORE PUSH1 0x4 ADD PUSH2 0x1C66 SWAP2 SWAP1 PUSH2 0x20E9 JUMP JUMPDEST PUSH1 0x40 MLOAD DUP1 SWAP2 SUB SWAP1 REVERT JUMPDEST POP POP POP JUMP JUMPDEST PUSH2 0x1C82 DUP5 DUP5 DUP5 DUP5 PUSH1 0x1 PUSH2 0x1E04 JUMP JUMPDEST PUSH2 0x1CC3 JUMPI DUP4 PUSH1 0x40 MLOAD PUSH32 0x5274AFE700000000000000000000000000000000000000000000000000000000 DUP2 MSTORE PUSH1 0x4 ADD PUSH2 0x1CBA SWAP2 SWAP1 PUSH2 0x20E9 JUMP JUMPDEST PUSH1 0x40 MLOAD DUP1 SWAP2 SUB SWAP1 REVERT JUMPDEST POP POP POP POP JUMP JUMPDEST PUSH0 PUSH1 0x2 SLOAD PUSH1 0x3 SLOAD LT ISZERO PUSH2 0x1D11 JUMPI PUSH1 0x40 MLOAD PUSH32 0x8C379A000000000000000000000000000000000000000000000000000000000 DUP2 MSTORE PUSH1 0x4 ADD PUSH2 0x1D08 SWAP1 PUSH2 0x2F16 JUMP JUMPDEST PUSH1 0x40 MLOAD DUP1 SWAP2 SUB SWAP1 REVERT JUMPDEST PUSH0 PUSH1 0x1 PUSH1 0x2 SLOAD PUSH1 0x3 SLOAD PUSH2 0x1D24 SWAP2 SWAP1 PUSH2 0x2F61 JUMP JUMPDEST PUSH2 0x1D2E SWAP2 SWAP1 PUSH2 0x2F94 JUMP JUMPDEST SWAP1 POP PUSH0 TIMESTAMP PREVRANDAO CALLER PUSH1 0x4 SLOAD PUSH1 0x40 MLOAD PUSH1 0x20 ADD PUSH2 0x1D4A SWAP5 SWAP4 SWAP3 SWAP2 SWAP1 PUSH2 0x302C JUMP JUMPDEST PUSH1 0x40 MLOAD PUSH1 0x20 DUP2 DUP4 SUB SUB DUP2 MSTORE SWAP1 PUSH1 0x40 MSTORE DUP1 MLOAD SWAP1 PUSH1 0x20 ADD KECCAK256 SWAP1 POP PUSH1 0x4 PUSH0 DUP2 SLOAD DUP1 SWAP3 SWAP2 SWAP1 PUSH2 0x1D74 SWAP1 PUSH2 0x3079 JUMP JUMPDEST SWAP2 SWAP1 POP SSTORE POP DUP2 DUP2 PUSH0 SHR PUSH2 0x1D87 SWAP2 SWAP1 PUSH2 0x30ED JUMP JUMPDEST PUSH1 0x2 SLOAD PUSH2 0x1D94 SWAP2 SWAP1 PUSH2 0x2F94 JUMP JUMPDEST SWAP3 POP POP POP SWAP1 JUMP JUMPDEST PUSH0 CALLER SWAP1 POP SWAP1 JUMP JUMPDEST PUSH0 PUSH0 PUSH4 0xA9059CBB PUSH1 0xE0 SHL SWAP1 POP PUSH1 0x40 MLOAD DUP2 PUSH0 MSTORE PUSH0 NOT PUSH1 0x60 SHR DUP7 AND PUSH1 0x4 MSTORE DUP5 PUSH1 0x24 MSTORE PUSH1 0x20 PUSH0 PUSH1 0x44 PUSH0 PUSH0 DUP12 GAS CALL SWAP3 POP PUSH1 0x1 PUSH0 MLOAD EQ DUP4 AND PUSH2 0x1DF6 JUMPI DUP4 DUP4 ISZERO AND ISZERO PUSH2 0x1DEA JUMPI RETURNDATASIZE PUSH0 DUP3 RETURNDATACOPY RETURNDATASIZE DUP2 REVERT JUMPDEST PUSH0 DUP8 EXTCODESIZE GT RETURNDATASIZE ISZERO AND DUP4 AND SWAP3 POP JUMPDEST DUP1 PUSH1 0x40 MSTORE POP POP SWAP5 SWAP4 POP POP POP POP JUMP JUMPDEST PUSH0 PUSH0 PUSH4 0x23B872DD PUSH1 0xE0 SHL SWAP1 POP PUSH1 0x40 MLOAD DUP2 PUSH0 MSTORE PUSH0 NOT PUSH1 0x60 SHR DUP8 AND PUSH1 0x4 MSTORE PUSH0 NOT PUSH1 0x60 SHR DUP7 AND PUSH1 0x24 MSTORE DUP5 PUSH1 0x44 MSTORE PUSH1 0x20 PUSH0 PUSH1 0x64 PUSH0 PUSH0 DUP13 GAS CALL SWAP3 POP PUSH1 0x1 PUSH0 MLOAD EQ DUP4 AND PUSH2 0x1E62 JUMPI DUP4 DUP4 ISZERO AND ISZERO PUSH2 0x1E56 JUMPI RETURNDATASIZE PUSH0 DUP3 RETURNDATACOPY RETURNDATASIZE DUP2 REVERT JUMPDEST PUSH0 DUP9 EXTCODESIZE GT RETURNDATASIZE ISZERO AND DUP4 AND SWAP3 POP JUMPDEST DUP1 PUSH1 0x40 MSTORE PUSH0 PUSH1 0x60 MSTORE POP POP SWAP6 SWAP5 POP POP POP POP POP JUMP JUMPDEST PUSH1 0x40 MLOAD DUP1 PUSH1 0x60 ADD PUSH1 0x40 MSTORE DUP1 PUSH1 0x60 DUP2 MSTORE PUSH1 0x20 ADD PUSH1 0x60 DUP2 MSTORE PUSH1 0x20 ADD PUSH1 0x60 DUP2 MSTORE POP SWAP1 JUMP JUMPDEST PUSH0 DUP2 MLOAD SWAP1 POP SWAP2 SWAP1 POP JUMP JUMPDEST PUSH0 DUP3 DUP3 MSTORE PUSH1 0x20 DUP3 ADD SWAP1 POP SWAP3 SWAP2 POP POP JUMP JUMPDEST DUP3 DUP2 DUP4 MCOPY PUSH0 DUP4 DUP4 ADD MSTORE POP POP POP JUMP JUMPDEST PUSH0 PUSH1 0x1F NOT PUSH1 0x1F DUP4 ADD AND SWAP1 POP SWAP2 SWAP1 POP JUMP JUMPDEST PUSH0 PUSH2 0x1ED8 DUP3 PUSH2 0x1E96 JUMP JUMPDEST PUSH2 0x1EE2 DUP2 DUP6 PUSH2 0x1EA0 JUMP JUMPDEST SWAP4 POP PUSH2 0x1EF2 DUP2 DUP6 PUSH1 0x20 DUP7 ADD PUSH2 0x1EB0 JUMP JUMPDEST PUSH2 0x1EFB DUP2 PUSH2 0x1EBE JUMP JUMPDEST DUP5 ADD SWAP2 POP POP SWAP3 SWAP2 POP POP JUMP JUMPDEST PUSH0 PUSH1 0x20 DUP3 ADD SWAP1 POP DUP2 DUP2 SUB PUSH0 DUP4 ADD MSTORE PUSH2 0x1F1E DUP2 DUP5 PUSH2 0x1ECE JUMP JUMPDEST SWAP1 POP SWAP3 SWAP2 POP POP JUMP JUMPDEST PUSH0 PUSH1 0x40 MLOAD SWAP1 POP SWAP1 JUMP JUMPDEST PUSH0 PUSH0 REVERT JUMPDEST PUSH0 PUSH0 REVERT JUMPDEST PUSH0 PUSH0 REVERT JUMPDEST PUSH0 PUSH0 REVERT JUMPDEST PUSH32 0x4E487B7100000000000000000000000000000000000000000000000000000000 PUSH0 MSTORE PUSH1 0x41 PUSH1 0x4 MSTORE PUSH1 0x24 PUSH0 REVERT JUMPDEST PUSH2 0x1F75 DUP3 PUSH2 0x1EBE JUMP JUMPDEST DUP2 ADD DUP2 DUP2 LT PUSH8 0xFFFFFFFFFFFFFFFF DUP3 GT OR ISZERO PUSH2 0x1F94 JUMPI PUSH2 0x1F93 PUSH2 0x1F3F JUMP JUMPDEST JUMPDEST DUP1 PUSH1 0x40 MSTORE POP POP POP JUMP JUMPDEST PUSH0 PUSH2 0x1FA6 PUSH2 0x1F26 JUMP JUMPDEST SWAP1 POP PUSH2 0x1FB2 DUP3 DUP3 PUSH2 0x1F6C JUMP JUMPDEST SWAP2 SWAP1 POP JUMP JUMPDEST PUSH0 PUSH8 0xFFFFFFFFFFFFFFFF DUP3 GT ISZERO PUSH2 0x1FD1 JUMPI PUSH2 0x1FD0 PUSH2 0x1F3F JUMP JUMPDEST JUMPDEST PUSH2 0x1FDA DUP3 PUSH2 0x1EBE JUMP JUMPDEST SWAP1 POP PUSH1 0x20 DUP2 ADD SWAP1 POP SWAP2 SWAP1 POP JUMP JUMPDEST DUP3 DUP2 DUP4 CALLDATACOPY PUSH0 DUP4 DUP4 ADD MSTORE POP POP POP JUMP JUMPDEST PUSH0 PUSH2 0x2007 PUSH2 0x2002 DUP5 PUSH2 0x1FB7 JUMP JUMPDEST PUSH2 0x1F9D JUMP JUMPDEST SWAP1 POP DUP3 DUP2 MSTORE PUSH1 0x20 DUP2 ADD DUP5 DUP5 DUP5 ADD GT ISZERO PUSH2 0x2023 JUMPI PUSH2 0x2022 PUSH2 0x1F3B JUMP JUMPDEST JUMPDEST PUSH2 0x202E DUP5 DUP3 DUP6 PUSH2 0x1FE7 JUMP JUMPDEST POP SWAP4 SWAP3 POP POP POP JUMP JUMPDEST PUSH0 DUP3 PUSH1 0x1F DUP4 ADD SLT PUSH2 0x204A JUMPI PUSH2 0x2049 PUSH2 0x1F37 JUMP JUMPDEST JUMPDEST DUP2 CALLDATALOAD PUSH2 0x205A DUP5 DUP3 PUSH1 0x20 DUP7 ADD PUSH2 0x1FF5 JUMP JUMPDEST SWAP2 POP POP SWAP3 SWAP2 POP POP JUMP JUMPDEST PUSH0 PUSH1 0x20 DUP3 DUP5 SUB SLT ISZERO PUSH2 0x2078 JUMPI PUSH2 0x2077 PUSH2 0x1F2F JUMP JUMPDEST JUMPDEST PUSH0 DUP3 ADD CALLDATALOAD PUSH8 0xFFFFFFFFFFFFFFFF DUP2 GT ISZERO PUSH2 0x2095 JUMPI PUSH2 0x2094 PUSH2 0x1F33 JUMP JUMPDEST JUMPDEST PUSH2 0x20A1 DUP5 DUP3 DUP6 ADD PUSH2 0x2036 JUMP JUMPDEST SWAP2 POP POP SWAP3 SWAP2 POP POP JUMP JUMPDEST PUSH0 PUSH20 0xFFFFFFFFFFFFFFFFFFFFFFFFFFFFFFFFFFFFFFFF DUP3 AND SWAP1 POP SWAP2 SWAP1 POP JUMP JUMPDEST PUSH0 PUSH2 0x20D3 DUP3 PUSH2 0x20AA JUMP JUMPDEST SWAP1 POP SWAP2 SWAP1 POP JUMP JUMPDEST PUSH2 0x20E3 DUP2 PUSH2 0x20C9 JUMP JUMPDEST DUP3 MSTORE POP POP JUMP JUMPDEST PUSH0 PUSH1 0x20 DUP3 ADD SWAP1 POP PUSH2 0x20FC PUSH0 DUP4 ADD DUP5 PUSH2 0x20DA JUMP JUMPDEST SWAP3 SWAP2 POP POP JUMP JUMPDEST PUSH2 0x210B DUP2 PUSH2 0x20C9 JUMP JUMPDEST DUP2 EQ PUSH2 0x2115 JUMPI PUSH0 PUSH0 REVERT JUMPDEST POP JUMP JUMPDEST PUSH0 DUP2 CALLDATALOAD SWAP1 POP PUSH2 0x2126 DUP2 PUSH2 0x2102 JUMP JUMPDEST SWAP3 SWAP2 POP POP JUMP JUMPDEST PUSH0 PUSH1 0x20 DUP3 DUP5 SUB SLT ISZERO PUSH2 0x2141 JUMPI PUSH2 0x2140 PUSH2 0x1F2F JUMP JUMPDEST JUMPDEST PUSH0 PUSH2 0x214E DUP5 DUP3 DUP6 ADD PUSH2 0x2118 JUMP JUMPDEST SWAP2 POP POP SWAP3 SWAP2 POP POP JUMP JUMPDEST PUSH0 DUP2 ISZERO ISZERO SWAP1 POP SWAP2 SWAP1 POP JUMP JUMPDEST PUSH2 0x216B DUP2 PUSH2 0x2157 JUMP JUMPDEST DUP3 MSTORE POP POP JUMP JUMPDEST PUSH0 PUSH1 0x20 DUP3 ADD SWAP1 POP PUSH2 0x2184 PUSH0 DUP4 ADD DUP5 PUSH2 0x2162 JUMP JUMPDEST SWAP3 SWAP2 POP POP JUMP JUMPDEST PUSH0 DUP2 SWAP1 POP SWAP2 SWAP1 POP JUMP JUMPDEST PUSH2 0x219C DUP2 PUSH2 0x218A JUMP JUMPDEST DUP3 MSTORE POP POP JUMP JUMPDEST PUSH0 PUSH1 0x20 DUP3 ADD SWAP1 POP PUSH2 0x21B5 PUSH0 DUP4 ADD DUP5 PUSH2 0x2193 JUMP JUMPDEST SWAP3 SWAP2 POP POP JUMP JUMPDEST PUSH0 PUSH0 REVERT JUMPDEST PUSH0 PUSH0 REVERT JUMPDEST PUSH0 PUSH0 DUP4 PUSH1 0x1F DUP5 ADD SLT PUSH2 0x21D8 JUMPI PUSH2 0x21D7 PUSH2 0x1F37 JUMP JUMPDEST JUMPDEST DUP3 CALLDATALOAD SWAP1 POP PUSH8 0xFFFFFFFFFFFFFFFF DUP2 GT ISZERO PUSH2 0x21F5 JUMPI PUSH2 0x21F4 PUSH2 0x21BB JUMP JUMPDEST JUMPDEST PUSH1 0x20 DUP4 ADD SWAP2 POP DUP4 PUSH1 0x1 DUP3 MUL DUP4 ADD GT ISZERO PUSH2 0x2211 JUMPI PUSH2 0x2210 PUSH2 0x21BF JUMP JUMPDEST JUMPDEST SWAP3 POP SWAP3 SWAP1 POP JUMP JUMPDEST PUSH2 0x2221 DUP2 PUSH2 0x218A JUMP JUMPDEST DUP2 EQ PUSH2 0x222B JUMPI PUSH0 PUSH0 REVERT JUMPDEST POP JUMP JUMPDEST PUSH0 DUP2 CALLDATALOAD SWAP1 POP PUSH2 0x223C DUP2 PUSH2 0x2218 JUMP JUMPDEST SWAP3 SWAP2 POP POP JUMP JUMPDEST PUSH0 PUSH0 PUSH0 PUSH0 PUSH0 PUSH1 0x80 DUP7 DUP9 SUB SLT ISZERO PUSH2 0x225B JUMPI PUSH2 0x225A PUSH2 0x1F2F JUMP JUMPDEST JUMPDEST PUSH0 PUSH2 0x2268 DUP9 DUP3 DUP10 ADD PUSH2 0x2118 JUMP JUMPDEST SWAP6 POP POP PUSH1 0x20 DUP7 ADD CALLDATALOAD PUSH8 0xFFFFFFFFFFFFFFFF DUP2 GT ISZERO PUSH2 0x2289 JUMPI PUSH2 0x2288 PUSH2 0x1F33 JUMP JUMPDEST JUMPDEST PUSH2 0x2295 DUP9 DUP3 DUP10 ADD PUSH2 0x21C3 JUMP JUMPDEST SWAP5 POP SWAP5 POP POP PUSH1 0x40 PUSH2 0x22A8 DUP9 DUP3 DUP10 ADD PUSH2 0x222E JUMP JUMPDEST SWAP3 POP POP PUSH1 0x60 PUSH2 0x22B9 DUP9 DUP3 DUP10 ADD PUSH2 0x222E JUMP JUMPDEST SWAP2 POP POP SWAP3 SWAP6 POP SWAP3 SWAP6 SWAP1 SWAP4 POP JUMP JUMPDEST PUSH0 PUSH0 PUSH0 PUSH1 0x40 DUP5 DUP7 SUB SLT ISZERO PUSH2 0x22DD JUMPI PUSH2 0x22DC PUSH2 0x1F2F JUMP JUMPDEST JUMPDEST PUSH0 DUP5 ADD CALLDATALOAD PUSH8 0xFFFFFFFFFFFFFFFF DUP2 GT ISZERO PUSH2 0x22FA JUMPI PUSH2 0x22F9 PUSH2 0x1F33 JUMP JUMPDEST JUMPDEST PUSH2 0x2306 DUP7 DUP3 DUP8 ADD PUSH2 0x21C3 JUMP JUMPDEST SWAP4 POP SWAP4 POP POP PUSH1 0x20 PUSH2 0x2319 DUP7 DUP3 DUP8 ADD PUSH2 0x222E JUMP JUMPDEST SWAP2 POP POP SWAP3 POP SWAP3 POP SWAP3 JUMP JUMPDEST PUSH0 DUP2 SWAP1 POP SWAP2 SWAP1 POP JUMP JUMPDEST PUSH0 PUSH2 0x2346 PUSH2 0x2341 PUSH2 0x233C DUP5 PUSH2 0x20AA JUMP JUMPDEST PUSH2 0x2323 JUMP JUMPDEST PUSH2 0x20AA JUMP JUMPDEST SWAP1 POP SWAP2 SWAP1 POP JUMP JUMPDEST PUSH0 PUSH2 0x2357 DUP3 PUSH2 0x232C JUMP JUMPDEST SWAP1 POP SWAP2 SWAP1 POP JUMP JUMPDEST PUSH0 PUSH2 0x2368 DUP3 PUSH2 0x234D JUMP JUMPDEST SWAP1 POP SWAP2 SWAP1 POP JUMP JUMPDEST PUSH2 0x2378 DUP2 PUSH2 0x235E JUMP JUMPDEST DUP3 MSTORE POP POP JUMP JUMPDEST PUSH0 PUSH1 0x20 DUP3 ADD SWAP1 POP PUSH2 0x2391 PUSH0 DUP4 ADD DUP5 PUSH2 0x236F JUMP JUMPDEST SWAP3 SWAP2 POP POP JUMP JUMPDEST PUSH0 PUSH2 0x23A1 DUP3 PUSH2 0x234D JUMP JUMPDEST SWAP1 POP SWAP2 SWAP1 POP JUMP JUMPDEST PUSH2 0x23B1 DUP2 PUSH2 0x2397 JUMP JUMPDEST DUP3 MSTORE POP POP JUMP JUMPDEST PUSH0 PUSH1 0x20 DUP3 ADD SWAP1 POP PUSH2 0x23CA PUSH0 DUP4 ADD DUP5 PUSH2 0x23A8 JUMP JUMPDEST SWAP3 SWAP2 POP POP JUMP JUMPDEST PUSH0 PUSH0 DUP4 PUSH1 0x1F DUP5 ADD SLT PUSH2 0x23E5 JUMPI PUSH2 0x23E4 PUSH2 0x1F37 JUMP JUMPDEST JUMPDEST DUP3 CALLDATALOAD SWAP1 POP PUSH8 0xFFFFFFFFFFFFFFFF DUP2 GT ISZERO PUSH2 0x2402 JUMPI PUSH2 0x2401 PUSH2 0x21BB JUMP JUMPDEST JUMPDEST PUSH1 0x20 DUP4 ADD SWAP2 POP DUP4 PUSH1 0x1 DUP3 MUL DUP4 ADD GT ISZERO PUSH2 0x241E JUMPI PUSH2 0x241D PUSH2 0x21BF JUMP JUMPDEST JUMPDEST SWAP3 POP SWAP3 SWAP1 POP JUMP JUMPDEST PUSH0 PUSH0 PUSH0 PUSH0 PUSH0 PUSH0 PUSH0 PUSH1 0x80 DUP9 DUP11 SUB SLT ISZERO PUSH2 0x2440 JUMPI PUSH2 0x243F PUSH2 0x1F2F JUMP JUMPDEST JUMPDEST PUSH0 DUP9 ADD CALLDATALOAD PUSH8 0xFFFFFFFFFFFFFFFF DUP2 GT ISZERO PUSH2 0x245D JUMPI PUSH2 0x245C PUSH2 0x1F33 JUMP JUMPDEST JUMPDEST PUSH2 0x2469 DUP11 DUP3 DUP12 ADD PUSH2 0x23D0 JUMP JUMPDEST SWAP8 POP SWAP8 POP POP PUSH1 0x20 DUP9 ADD CALLDATALOAD PUSH8 0xFFFFFFFFFFFFFFFF DUP2 GT ISZERO PUSH2 0x248C JUMPI PUSH2 0x248B PUSH2 0x1F33 JUMP JUMPDEST JUMPDEST PUSH2 0x2498 DUP11 DUP3 DUP12 ADD PUSH2 0x21C3 JUMP JUMPDEST SWAP6 POP SWAP6 POP POP PUSH1 0x40 DUP9 ADD CALLDATALOAD PUSH8 0xFFFFFFFFFFFFFFFF DUP2 GT ISZERO PUSH2 0x24BB JUMPI PUSH2 0x24BA PUSH2 0x1F33 JUMP JUMPDEST JUMPDEST PUSH2 0x24C7 DUP11 DUP3 DUP12 ADD PUSH2 0x21C3 JUMP JUMPDEST SWAP4 POP SWAP4 POP POP PUSH1 0x60 PUSH2 0x24DA DUP11 DUP3 DUP12 ADD PUSH2 0x222E JUMP JUMPDEST SWAP2 POP POP SWAP3 SWAP6 SWAP9 SWAP2 SWAP5 SWAP8 POP SWAP3 SWAP6 POP JUMP JUMPDEST PUSH0 PUSH0 PUSH1 0x20 DUP4 DUP6 SUB SLT ISZERO PUSH2 0x24FF JUMPI PUSH2 0x24FE PUSH2 0x1F2F JUMP JUMPDEST JUMPDEST PUSH0 DUP4 ADD CALLDATALOAD PUSH8 0xFFFFFFFFFFFFFFFF DUP2 GT ISZERO PUSH2 0x251C JUMPI PUSH2 0x251B PUSH2 0x1F33 JUMP JUMPDEST JUMPDEST PUSH2 0x2528 DUP6 DUP3 DUP7 ADD PUSH2 0x21C3 JUMP JUMPDEST SWAP3 POP SWAP3 POP POP SWAP3 POP SWAP3 SWAP1 POP JUMP JUMPDEST PUSH32 0x4E487B7100000000000000000000000000000000000000000000000000000000 PUSH0 MSTORE PUSH1 0x22 PUSH1 0x4 MSTORE PUSH1 0x24 PUSH0 REVERT JUMPDEST PUSH0 PUSH1 0x2 DUP3 DIV SWAP1 POP PUSH1 0x1 DUP3 AND DUP1 PUSH2 0x2578 JUMPI PUSH1 0x7F DUP3 AND SWAP2 POP JUMPDEST PUSH1 0x20 DUP3 LT DUP2 SUB PUSH2 0x258B JUMPI PUSH2 0x258A PUSH2 0x2534 JUMP JUMPDEST JUMPDEST POP SWAP2 SWAP1 POP JUMP JUMPDEST PUSH0 DUP2 SWAP1 POP SWAP3 SWAP2 POP POP JUMP JUMPDEST PUSH0 PUSH2 0x25A5 DUP3 PUSH2 0x1E96 JUMP JUMPDEST PUSH2 0x25AF DUP2 DUP6 PUSH2 0x2591 JUMP JUMPDEST SWAP4 POP PUSH2 0x25BF DUP2 DUP6 PUSH1 0x20 DUP7 ADD PUSH2 0x1EB0 JUMP JUMPDEST DUP1 DUP5 ADD SWAP2 POP POP SWAP3 SWAP2 POP POP JUMP JUMPDEST PUSH32 0x5F00000000000000000000000000000000000000000000000000000000000000 PUSH0 DUP3 ADD MSTORE POP JUMP JUMPDEST PUSH0 PUSH2 0x25FF PUSH1 0x1 DUP4 PUSH2 0x2591 JUMP JUMPDEST SWAP2 POP PUSH2 0x260A DUP3 PUSH2 0x25CB JUMP JUMPDEST PUSH1 0x1 DUP3 ADD SWAP1 POP SWAP2 SWAP1 POP JUMP JUMPDEST PUSH0 DUP2 SWAP1 POP DUP2 PUSH0 MSTORE PUSH1 0x20 PUSH0 KECCAK256 SWAP1 POP SWAP2 SWAP1 POP JUMP JUMPDEST PUSH0 DUP2 SLOAD PUSH2 0x2633 DUP2 PUSH2 0x2561 JUMP JUMPDEST PUSH2 0x263D DUP2 DUP7 PUSH2 0x2591 JUMP JUMPDEST SWAP5 POP PUSH1 0x1 DUP3 AND PUSH0 DUP2 EQ PUSH2 0x2657 JUMPI PUSH1 0x1 DUP2 EQ PUSH2 0x266C JUMPI PUSH2 0x269E JUMP JUMPDEST PUSH1 0xFF NOT DUP4 AND DUP7 MSTORE DUP2 ISZERO ISZERO DUP3 MUL DUP7 ADD SWAP4 POP PUSH2 0x269E JUMP JUMPDEST PUSH2 0x2675 DUP6 PUSH2 0x2615 JUMP JUMPDEST PUSH0 JUMPDEST DUP4 DUP2 LT ISZERO PUSH2 0x2696 JUMPI DUP2 SLOAD DUP2 DUP10 ADD MSTORE PUSH1 0x1 DUP3 ADD SWAP2 POP PUSH1 0x20 DUP2 ADD SWAP1 POP PUSH2 0x2677 JUMP JUMPDEST DUP4 DUP9 ADD SWAP6 POP POP POP JUMPDEST POP POP POP SWAP3 SWAP2 POP POP JUMP JUMPDEST PUSH0 PUSH2 0x26B2 DUP3 DUP6 PUSH2 0x259B JUMP JUMPDEST SWAP2 POP PUSH2 0x26BD DUP3 PUSH2 0x25F3 JUMP JUMPDEST SWAP2 POP PUSH2 0x26C9 DUP3 DUP5 PUSH2 0x2627 JUMP JUMPDEST SWAP2 POP DUP2 SWAP1 POP SWAP4 SWAP3 POP POP POP JUMP JUMPDEST PUSH32 0x51696172614D6F6E616441737365747300000000000000000000000000000000 PUSH0 DUP3 ADD MSTORE POP JUMP JUMPDEST PUSH0 PUSH2 0x2709 PUSH1 0x10 DUP4 PUSH2 0x1EA0 JUMP JUMPDEST SWAP2 POP PUSH2 0x2714 DUP3 PUSH2 0x26D5 JUMP JUMPDEST PUSH1 0x20 DUP3 ADD SWAP1 POP SWAP2 SWAP1 POP JUMP JUMPDEST PUSH0 PUSH1 0x40 DUP3 ADD SWAP1 POP DUP2 DUP2 SUB PUSH0 DUP4 ADD MSTORE PUSH2 0x2736 DUP2 PUSH2 0x26FD JUMP JUMPDEST SWAP1 POP DUP2 DUP2 SUB PUSH1 0x20 DUP4 ADD MSTORE PUSH2 0x274A DUP2 DUP5 PUSH2 0x1ECE JUMP JUMPDEST SWAP1 POP SWAP3 SWAP2 POP POP JUMP JUMPDEST PUSH0 PUSH8 0xFFFFFFFFFFFFFFFF DUP3 GT ISZERO PUSH2 0x276C JUMPI PUSH2 0x276B PUSH2 0x1F3F JUMP JUMPDEST JUMPDEST PUSH2 0x2775 DUP3 PUSH2 0x1EBE JUMP JUMPDEST SWAP1 POP PUSH1 0x20 DUP2 ADD SWAP1 POP SWAP2 SWAP1 POP JUMP JUMPDEST PUSH0 PUSH2 0x2794 PUSH2 0x278F DUP5 PUSH2 0x2752 JUMP JUMPDEST PUSH2 0x1F9D JUMP JUMPDEST SWAP1 POP DUP3 DUP2 MSTORE PUSH1 0x20 DUP2 ADD DUP5 DUP5 DUP5 ADD GT ISZERO PUSH2 0x27B0 JUMPI PUSH2 0x27AF PUSH2 0x1F3B JUMP JUMPDEST JUMPDEST PUSH2 0x27BB DUP5 DUP3 DUP6 PUSH2 0x1EB0 JUMP JUMPDEST POP SWAP4 SWAP3 POP POP POP JUMP JUMPDEST PUSH0 DUP3 PUSH1 0x1F DUP4 ADD SLT PUSH2 0x27D7 JUMPI PUSH2 0x27D6 PUSH2 0x1F37 JUMP JUMPDEST JUMPDEST DUP2 MLOAD PUSH2 0x27E7 DUP5 DUP3 PUSH1 0x20 DUP7 ADD PUSH2 0x2782 JUMP JUMPDEST SWAP2 POP POP SWAP3 SWAP2 POP POP JUMP JUMPDEST PUSH0 PUSH1 0x20 DUP3 DUP5 SUB SLT ISZERO PUSH2 0x2805 JUMPI PUSH2 0x2804 PUSH2 0x1F2F JUMP JUMPDEST JUMPDEST PUSH0 DUP3 ADD MLOAD PUSH8 0xFFFFFFFFFFFFFFFF DUP2 GT ISZERO PUSH2 0x2822 JUMPI PUSH2 0x2821 PUSH2 0x1F33 JUMP JUMPDEST JUMPDEST PUSH2 0x282E DUP5 DUP3 DUP6 ADD PUSH2 0x27C3 JUMP JUMPDEST SWAP2 POP POP SWAP3 SWAP2 POP POP JUMP JUMPDEST PUSH32 0x5661756C743A204173736574206E6F7420666F756E6420696E20726567697374 PUSH0 DUP3 ADD MSTORE PUSH32 0x7279000000000000000000000000000000000000000000000000000000000000 PUSH1 0x20 DUP3 ADD MSTORE POP JUMP JUMPDEST PUSH0 PUSH2 0x2891 PUSH1 0x22 DUP4 PUSH2 0x1EA0 JUMP JUMPDEST SWAP2 POP PUSH2 0x289C DUP3 PUSH2 0x2837 JUMP JUMPDEST PUSH1 0x40 DUP3 ADD SWAP1 POP SWAP2 SWAP1 POP JUMP JUMPDEST PUSH0 PUSH1 0x20 DUP3 ADD SWAP1 POP DUP2 DUP2 SUB PUSH0 DUP4 ADD MSTORE PUSH2 0x28BE DUP2 PUSH2 0x2885 JUMP JUMPDEST SWAP1 POP SWAP2 SWAP1 POP JUMP JUMPDEST PUSH32 0x5661756C743A20546F6B656E206E6F7420737570706F72746564000000000000 PUSH0 DUP3 ADD MSTORE POP JUMP JUMPDEST PUSH0 PUSH2 0x28F9 PUSH1 0x1A DUP4 PUSH2 0x1EA0 JUMP JUMPDEST SWAP2 POP PUSH2 0x2904 DUP3 PUSH2 0x28C5 JUMP JUMPDEST PUSH1 0x20 DUP3 ADD SWAP1 POP SWAP2 SWAP1 POP JUMP JUMPDEST PUSH0 PUSH1 0x20 DUP3 ADD SWAP1 POP DUP2 DUP2 SUB PUSH0 DUP4 ADD MSTORE PUSH2 0x2926 DUP2 PUSH2 0x28ED JUMP JUMPDEST SWAP1 POP SWAP2 SWAP1 POP JUMP JUMPDEST PUSH32 0x4E487B7100000000000000000000000000000000000000000000000000000000 PUSH0 MSTORE PUSH1 0x32 PUSH1 0x4 MSTORE PUSH1 0x24 PUSH0 REVERT JUMPDEST PUSH0 PUSH2 0x2965 DUP4 DUP6 PUSH2 0x1EA0 JUMP JUMPDEST SWAP4 POP PUSH2 0x2972 DUP4 DUP6 DUP5 PUSH2 0x1FE7 JUMP JUMPDEST PUSH2 0x297B DUP4 PUSH2 0x1EBE JUMP JUMPDEST DUP5 ADD SWAP1 POP SWAP4 SWAP3 POP POP POP JUMP JUMPDEST PUSH0 PUSH1 0x20 DUP3 ADD SWAP1 POP DUP2 DUP2 SUB PUSH0 DUP4 ADD MSTORE PUSH2 0x299F DUP2 DUP5 DUP7 PUSH2 0x295A JUMP JUMPDEST SWAP1 POP SWAP4 SWAP3 POP POP POP JUMP JUMPDEST PUSH0 DUP2 SLOAD PUSH2 0x29B4 DUP2 PUSH2 0x2561 JUMP JUMPDEST PUSH2 0x29BE DUP2 DUP7 PUSH2 0x1EA0 JUMP JUMPDEST SWAP5 POP PUSH1 0x1 DUP3 AND PUSH0 DUP2 EQ PUSH2 0x29D8 JUMPI PUSH1 0x1 DUP2 EQ PUSH2 0x29EE JUMPI PUSH2 0x2A20 JUMP JUMPDEST PUSH1 0xFF NOT DUP4 AND DUP7 MSTORE DUP2 ISZERO ISZERO PUSH1 0x20 MUL DUP7 ADD SWAP4 POP PUSH2 0x2A20 JUMP JUMPDEST PUSH2 0x29F7 DUP6 PUSH2 0x2615 JUMP JUMPDEST PUSH0 JUMPDEST DUP4 DUP2 LT ISZERO PUSH2 0x2A18 JUMPI DUP2 SLOAD DUP2 DUP10 ADD MSTORE PUSH1 0x1 DUP3 ADD SWAP2 POP PUSH1 0x20 DUP2 ADD SWAP1 POP PUSH2 0x29F9 JUMP JUMPDEST DUP1 DUP9 ADD SWAP6 POP POP POP JUMPDEST POP POP POP SWAP3 SWAP2 POP POP JUMP JUMPDEST PUSH0 PUSH1 0x20 DUP3 ADD SWAP1 POP DUP2 DUP2 SUB PUSH0 DUP4 ADD MSTORE PUSH2 0x2A41 DUP2 DUP5 PUSH2 0x29A8 JUMP JUMPDEST SWAP1 POP SWAP3 SWAP2 POP POP JUMP JUMPDEST PUSH32 0x4469726563742057697468647261770000000000000000000000000000000000 PUSH0 DUP3 ADD MSTORE POP JUMP JUMPDEST PUSH0 PUSH2 0x2A7D PUSH1 0xF DUP4 PUSH2 0x1EA0 JUMP JUMPDEST SWAP2 POP PUSH2 0x2A88 DUP3 PUSH2 0x2A49 JUMP JUMPDEST PUSH1 0x20 DUP3 ADD SWAP1 POP SWAP2 SWAP1 POP JUMP JUMPDEST PUSH0 DUP2 MLOAD SWAP1 POP SWAP2 SWAP1 POP JUMP JUMPDEST PUSH0 DUP3 DUP3 MSTORE PUSH1 0x20 DUP3 ADD SWAP1 POP SWAP3 SWAP2 POP POP JUMP JUMPDEST PUSH0 DUP2 SWAP1 POP PUSH1 0x20 DUP3 ADD SWAP1 POP SWAP2 SWAP1 POP JUMP JUMPDEST PUSH0 DUP3 DUP3 MSTORE PUSH1 0x20 DUP3 ADD SWAP1 POP SWAP3 SWAP2 POP POP JUMP JUMPDEST PUSH0 PUSH2 0x2AD6 DUP3 PUSH2 0x1E96 JUMP JUMPDEST PUSH2 0x2AE0 DUP2 DUP6 PUSH2 0x2ABC JUMP JUMPDEST SWAP4 POP PUSH2 0x2AF0 DUP2 DUP6 PUSH1 0x20 DUP7 ADD PUSH2 0x1EB0 JUMP JUMPDEST PUSH2 0x2AF9 DUP2 PUSH2 0x1EBE JUMP JUMPDEST DUP5 ADD SWAP2 POP POP SWAP3 SWAP2 POP POP JUMP JUMPDEST PUSH0 DUP2 MLOAD SWAP1 POP SWAP2 SWAP1 POP JUMP JUMPDEST PUSH0 DUP3 DUP3 MSTORE PUSH1 0x20 DUP3 ADD SWAP1 POP SWAP3 SWAP2 POP POP JUMP JUMPDEST PUSH0 PUSH2 0x2B28 DUP3 PUSH2 0x2B04 JUMP JUMPDEST PUSH2 0x2B32 DUP2 DUP6 PUSH2 0x2B0E JUMP JUMPDEST SWAP4 POP PUSH2 0x2B42 DUP2 DUP6 PUSH1 0x20 DUP7 ADD PUSH2 0x1EB0 JUMP JUMPDEST PUSH2 0x2B4B DUP2 PUSH2 0x1EBE JUMP JUMPDEST DUP5 ADD SWAP2 POP POP SWAP3 SWAP2 POP POP JUMP JUMPDEST PUSH0 PUSH1 0x60 DUP4 ADD PUSH0 DUP4 ADD MLOAD DUP5 DUP3 SUB PUSH0 DUP7 ADD MSTORE PUSH2 0x2B70 DUP3 DUP3 PUSH2 0x2ACC JUMP JUMPDEST SWAP2 POP POP PUSH1 0x20 DUP4 ADD MLOAD DUP5 DUP3 SUB PUSH1 0x20 DUP7 ADD MSTORE PUSH2 0x2B8A DUP3 DUP3 PUSH2 0x2ACC JUMP JUMPDEST SWAP2 POP POP PUSH1 0x40 DUP4 ADD MLOAD DUP5 DUP3 SUB PUSH1 0x40 DUP7 ADD MSTORE PUSH2 0x2BA4 DUP3 DUP3 PUSH2 0x2B1E JUMP JUMPDEST SWAP2 POP POP DUP1 SWAP2 POP POP SWAP3 SWAP2 POP POP JUMP JUMPDEST PUSH0 PUSH2 0x2BBC DUP4 DUP4 PUSH2 0x2B56 JUMP JUMPDEST SWAP1 POP SWAP3 SWAP2 POP POP JUMP JUMPDEST PUSH0 PUSH1 0x20 DUP3 ADD SWAP1 POP SWAP2 SWAP1 POP JUMP JUMPDEST PUSH0 PUSH2 0x2BDA DUP3 PUSH2 0x2A93 JUMP JUMPDEST PUSH2 0x2BE4 DUP2 DUP6 PUSH2 0x2A9D JUMP JUMPDEST SWAP4 POP DUP4 PUSH1 0x20 DUP3 MUL DUP6 ADD PUSH2 0x2BF6 DUP6 PUSH2 0x2AAD JUMP JUMPDEST DUP1 PUSH0 JUMPDEST DUP6 DUP2 LT ISZERO PUSH2 0x2C31 JUMPI DUP5 DUP5 SUB DUP10 MSTORE DUP2 MLOAD PUSH2 0x2C12 DUP6 DUP3 PUSH2 0x2BB1 JUMP JUMPDEST SWAP5 POP PUSH2 0x2C1D DUP4 PUSH2 0x2BC4 JUMP JUMPDEST SWAP3 POP PUSH1 0x20 DUP11 ADD SWAP10 POP POP PUSH1 0x1 DUP2 ADD SWAP1 POP PUSH2 0x2BF9 JUMP JUMPDEST POP DUP3 SWAP8 POP DUP8 SWAP6 POP POP POP POP POP POP SWAP3 SWAP2 POP POP JUMP JUMPDEST PUSH0 PUSH1 0x40 DUP3 ADD SWAP1 POP DUP2 DUP2 SUB PUSH0 DUP4 ADD MSTORE PUSH2 0x2C5A DUP2 PUSH2 0x2A71 JUMP JUMPDEST SWAP1 POP DUP2 DUP2 SUB PUSH1 0x20 DUP4 ADD MSTORE PUSH2 0x2C6E DUP2 DUP5 PUSH2 0x2BD0 JUMP JUMPDEST SWAP1 POP SWAP3 SWAP2 POP POP JUMP JUMPDEST PUSH0 PUSH1 0x40 DUP3 ADD SWAP1 POP PUSH2 0x2C89 PUSH0 DUP4 ADD DUP6 PUSH2 0x2193 JUMP JUMPDEST DUP2 DUP2 SUB PUSH1 0x20 DUP4 ADD MSTORE PUSH2 0x2C9B DUP2 DUP5 PUSH2 0x29A8 JUMP JUMPDEST SWAP1 POP SWAP4 SWAP3 POP POP POP JUMP JUMPDEST PUSH32 0x5661756C743A204465706F736974206D757374206265203E2030000000000000 PUSH0 DUP3 ADD MSTORE POP JUMP JUMPDEST PUSH0 PUSH2 0x2CD8 PUSH1 0x1A DUP4 PUSH2 0x1EA0 JUMP JUMPDEST SWAP2 POP PUSH2 0x2CE3 DUP3 PUSH2 0x2CA4 JUMP JUMPDEST PUSH1 0x20 DUP3 ADD SWAP1 POP SWAP2 SWAP1 POP JUMP JUMPDEST PUSH0 PUSH1 0x20 DUP3 ADD SWAP1 POP DUP2 DUP2 SUB PUSH0 DUP4 ADD MSTORE PUSH2 0x2D05 DUP2 PUSH2 0x2CCC JUMP JUMPDEST SWAP1 POP SWAP2 SWAP1 POP JUMP JUMPDEST PUSH32 0x4465706F73697400000000000000000000000000000000000000000000000000 PUSH0 DUP3 ADD MSTORE POP JUMP JUMPDEST PUSH0 PUSH2 0x2D40 PUSH1 0x7 DUP4 PUSH2 0x1EA0 JUMP JUMPDEST SWAP2 POP PUSH2 0x2D4B DUP3 PUSH2 0x2D0C JUMP JUMPDEST PUSH1 0x20 DUP3 ADD SWAP1 POP SWAP2 SWAP1 POP JUMP JUMPDEST PUSH0 PUSH1 0x40 DUP3 ADD SWAP1 POP DUP2 DUP2 SUB PUSH0 DUP4 ADD MSTORE PUSH2 0x2D6D DUP2 PUSH2 0x2D34 JUMP JUMPDEST SWAP1 POP DUP2 DUP2 SUB PUSH1 0x20 DUP4 ADD MSTORE PUSH2 0x2D81 DUP2 DUP5 PUSH2 0x2BD0 JUMP JUMPDEST SWAP1 POP SWAP3 SWAP2 POP POP JUMP JUMPDEST PUSH0 DUP3 DUP3 MSTORE PUSH1 0x20 DUP3 ADD SWAP1 POP SWAP3 SWAP2 POP POP JUMP JUMPDEST PUSH0 PUSH2 0x2DA4 DUP4 DUP6 PUSH2 0x2D89 JUMP JUMPDEST SWAP4 POP PUSH2 0x2DB1 DUP4 DUP6 DUP5 PUSH2 0x1FE7 JUMP JUMPDEST PUSH2 0x2DBA DUP4 PUSH2 0x1EBE JUMP JUMPDEST DUP5 ADD SWAP1 POP SWAP4 SWAP3 POP POP POP JUMP JUMPDEST PUSH0 PUSH1 0x20 DUP3 ADD SWAP1 POP DUP2 DUP2 SUB PUSH0 DUP4 ADD MSTORE PUSH2 0x2DDE DUP2 DUP5 DUP7 PUSH2 0x2D99 JUMP JUMPDEST SWAP1 POP SWAP4 SWAP3 POP POP POP JUMP JUMPDEST PUSH32 0x6261736500000000000000000000000000000000000000000000000000000000 PUSH0 DUP3 ADD MSTORE POP JUMP JUMPDEST PUSH0 PUSH2 0x2E1B PUSH1 0x4 DUP4 PUSH2 0x1EA0 JUMP JUMPDEST SWAP2 POP PUSH2 0x2E26 DUP3 PUSH2 0x2DE7 JUMP JUMPDEST PUSH1 0x20 DUP3 ADD SWAP1 POP SWAP2 SWAP1 POP JUMP JUMPDEST PUSH0 PUSH1 0x20 DUP3 ADD SWAP1 POP DUP2 DUP2 SUB PUSH0 DUP4 ADD MSTORE PUSH2 0x2E48 DUP2 PUSH2 0x2E0F JUMP JUMPDEST SWAP1 POP SWAP2 SWAP1 POP JUMP JUMPDEST PUSH32 0x4D6F64756C617220576974686472617700000000000000000000000000000000 PUSH0 DUP3 ADD MSTORE POP JUMP JUMPDEST PUSH0 PUSH2 0x2E83 PUSH1 0x10 DUP4 PUSH2 0x1EA0 JUMP JUMPDEST SWAP2 POP PUSH2 0x2E8E DUP3 PUSH2 0x2E4F JUMP JUMPDEST PUSH1 0x20 DUP3 ADD SWAP1 POP SWAP2 SWAP1 POP JUMP JUMPDEST PUSH0 PUSH1 0x40 DUP3 ADD SWAP1 POP DUP2 DUP2 SUB PUSH0 DUP4 ADD MSTORE PUSH2 0x2EB0 DUP2 PUSH2 0x2E77 JUMP JUMPDEST SWAP1 POP DUP2 DUP2 SUB PUSH1 0x20 DUP4 ADD MSTORE PUSH2 0x2EC4 DUP2 DUP5 PUSH2 0x2BD0 JUMP JUMPDEST SWAP1 POP SWAP3 SWAP2 POP POP JUMP JUMPDEST PUSH32 0x5661756C743A204D6178206D757374206265203E3D204D696E00000000000000 PUSH0 DUP3 ADD MSTORE POP JUMP JUMPDEST PUSH0 PUSH2 0x2F00 PUSH1 0x19 DUP4 PUSH2 0x1EA0 JUMP JUMPDEST SWAP2 POP PUSH2 0x2F0B DUP3 PUSH2 0x2ECC JUMP JUMPDEST PUSH1 0x20 DUP3 ADD SWAP1 POP SWAP2 SWAP1 POP JUMP JUMPDEST PUSH0 PUSH1 0x20 DUP3 ADD SWAP1 POP DUP2 DUP2 SUB PUSH0 DUP4 ADD MSTORE PUSH2 0x2F2D DUP2 PUSH2 0x2EF4 JUMP JUMPDEST SWAP1 POP SWAP2 SWAP1 POP JUMP JUMPDEST PUSH32 0x4E487B7100000000000000000000000000000000000000000000000000000000 PUSH0 MSTORE PUSH1 0x11 PUSH1 0x4 MSTORE PUSH1 0x24 PUSH0 REVERT JUMPDEST PUSH0 PUSH2 0x2F6B DUP3 PUSH2 0x218A JUMP JUMPDEST SWAP2 POP PUSH2 0x2F76 DUP4 PUSH2 0x218A JUMP JUMPDEST SWAP3 POP DUP3 DUP3 SUB SWAP1 POP DUP2 DUP2 GT ISZERO PUSH2 0x2F8E JUMPI PUSH2 0x2F8D PUSH2 0x2F34 JUMP JUMPDEST JUMPDEST SWAP3 SWAP2 POP POP JUMP JUMPDEST PUSH0 PUSH2 0x2F9E DUP3 PUSH2 0x218A JUMP JUMPDEST SWAP2 POP PUSH2 0x2FA9 DUP4 PUSH2 0x218A JUMP JUMPDEST SWAP3 POP DUP3 DUP3 ADD SWAP1 POP DUP1 DUP3 GT ISZERO PUSH2 0x2FC1 JUMPI PUSH2 0x2FC0 PUSH2 0x2F34 JUMP JUMPDEST JUMPDEST SWAP3 SWAP2 POP POP JUMP JUMPDEST PUSH0 DUP2 SWAP1 POP SWAP2 SWAP1 POP JUMP JUMPDEST PUSH2 0x2FE1 PUSH2 0x2FDC DUP3 PUSH2 0x218A JUMP JUMPDEST PUSH2 0x2FC7 JUMP JUMPDEST DUP3 MSTORE POP POP JUMP JUMPDEST PUSH0 DUP2 PUSH1 0x60 SHL SWAP1 POP SWAP2 SWAP1 POP JUMP JUMPDEST PUSH0 PUSH2 0x2FFD DUP3 PUSH2 0x2FE7 JUMP JUMPDEST SWAP1 POP SWAP2 SWAP1 POP JUMP JUMPDEST PUSH0 PUSH2 0x300E DUP3 PUSH2 0x2FF3 JUMP JUMPDEST SWAP1 POP SWAP2 SWAP1 POP JUMP JUMPDEST PUSH2 0x3026 PUSH2 0x3021 DUP3 PUSH2 0x20C9 JUMP JUMPDEST PUSH2 0x3004 JUMP JUMPDEST DUP3 MSTORE POP POP JUMP JUMPDEST PUSH0 PUSH2 0x3037 DUP3 DUP8 PUSH2 0x2FD0 JUMP JUMPDEST PUSH1 0x20 DUP3 ADD SWAP2 POP PUSH2 0x3047 DUP3 DUP7 PUSH2 0x2FD0 JUMP JUMPDEST PUSH1 0x20 DUP3 ADD SWAP2 POP PUSH2 0x3057 DUP3 DUP6 PUSH2 0x3015 JUMP JUMPDEST PUSH1 0x14 DUP3 ADD SWAP2 POP PUSH2 0x3067 DUP3 DUP5 PUSH2 0x2FD0 JUMP JUMPDEST PUSH1 0x20 DUP3 ADD SWAP2 POP DUP2 SWAP1 POP SWAP6 SWAP5 POP POP POP POP POP JUMP JUMPDEST PUSH0 PUSH2 0x3083 DUP3 PUSH2 0x218A JUMP JUMPDEST SWAP2 POP PUSH32 0xFFFFFFFFFFFFFFFFFFFFFFFFFFFFFFFFFFFFFFFFFFFFFFFFFFFFFFFFFFFFFFFF DUP3 SUB PUSH2 0x30B5 JUMPI PUSH2 0x30B4 PUSH2 0x2F34 JUMP JUMPDEST JUMPDEST PUSH1 0x1 DUP3 ADD SWAP1 POP SWAP2 SWAP1 POP JUMP JUMPDEST PUSH32 0x4E487B7100000000000000000000000000000000000000000000000000000000 PUSH0 MSTORE PUSH1 0x12 PUSH1 0x4 MSTORE PUSH1 0x24 PUSH0 REVERT JUMPDEST PUSH0 PUSH2 0x30F7 DUP3 PUSH2 0x218A JUMP JUMPDEST SWAP2 POP PUSH2 0x3102 DUP4 PUSH2 0x218A JUMP JUMPDEST SWAP3 POP DUP3 PUSH2 0x3112 JUMPI PUSH2 0x3111 PUSH2 0x30C0 JUMP JUMPDEST JUMPDEST DUP3 DUP3 MOD SWAP1 POP SWAP3 SWAP2 POP POP JUMP INVALID LOG2 PUSH5 0x6970667358 0x22 SLT KECCAK256 TSTORE 0x2F DUP2 0xCD STATICCALL MUL MCOPY 0xAF 0x28 SWAP14 0xEF 0xB1 0xED 0xF6 0x2E JUMP PUSH26 0x366A7DE744B2B3B376D218D645B07264736F6C634300081F0033 "
				},
				"gasEstimates": {
					"creation": {
						"codeDepositCost": "2525400",
						"executionCost": "infinite",
						"totalCost": "infinite"
					},
					"external": {
						"deposit(string,uint256)": "infinite",
						"directWithdraw(address,string,uint256,uint256)": "infinite",
						"events()": "infinite",
						"isSupportedToken(address)": "2901",
						"listNewToken(string)": "infinite",
						"m_withdraw(bytes,string,string,uint256)": "infinite",
						"max()": "2448",
						"min()": "2513",
						"owner()": "2603",
						"providerName()": "infinite",
						"renounceOwnership()": "infinite",
						"resolveAsset(string)": "infinite",
						"transferOwnership(address)": "infinite",
						"variablesRegistry()": "infinite"
					},
					"internal": {
						"_getPseudoRandomRange()": "infinite"
					}
				},
				"methodIdentifiers": {
					"deposit(string,uint256)": "8e27d719",
					"directWithdraw(address,string,uint256,uint256)": "7a9eceb4",
					"events()": "b5f8558c",
					"isSupportedToken(address)": "240028e8",
					"listNewToken(string)": "f139721c",
					"m_withdraw(bytes,string,string,uint256)": "d23ce9e5",
					"max()": "6ac5db19",
					"min()": "f8897945",
					"owner()": "8da5cb5b",
					"providerName()": "00dad7d4",
					"renounceOwnership()": "715018a6",
					"resolveAsset(string)": "05d09fb1",
					"transferOwnership(address)": "f2fde38b",
					"variablesRegistry()": "bf4d766e"
				}
			},
			"storageLayout": {
				"storage": [
					{
						"astId": 8,
						"contract": "Evm/core/base/vault.sol:QiaraMultiAssetVault",
						"label": "_owner",
						"offset": 0,
						"slot": "0",
						"type": "t_address"
					},
					{
						"astId": 858,
						"contract": "Evm/core/base/vault.sol:QiaraMultiAssetVault",
						"label": "providerName",
						"offset": 0,
						"slot": "1",
						"type": "t_string_storage"
					},
					{
						"astId": 860,
						"contract": "Evm/core/base/vault.sol:QiaraMultiAssetVault",
						"label": "min",
						"offset": 0,
						"slot": "2",
						"type": "t_uint256"
					},
					{
						"astId": 862,
						"contract": "Evm/core/base/vault.sol:QiaraMultiAssetVault",
						"label": "max",
						"offset": 0,
						"slot": "3",
						"type": "t_uint256"
					},
					{
						"astId": 864,
						"contract": "Evm/core/base/vault.sol:QiaraMultiAssetVault",
						"label": "nonce",
						"offset": 0,
						"slot": "4",
						"type": "t_uint256"
					},
					{
						"astId": 868,
						"contract": "Evm/core/base/vault.sol:QiaraMultiAssetVault",
						"label": "isSupportedToken",
						"offset": 0,
						"slot": "5",
						"type": "t_mapping(t_address,t_bool)"
					}
				],
				"types": {
					"t_address": {
						"encoding": "inplace",
						"label": "address",
						"numberOfBytes": "20"
					},
					"t_bool": {
						"encoding": "inplace",
						"label": "bool",
						"numberOfBytes": "1"
					},
					"t_mapping(t_address,t_bool)": {
						"encoding": "mapping",
						"key": "t_address",
						"label": "mapping(address => bool)",
						"numberOfBytes": "32",
						"value": "t_bool"
					},
					"t_string_storage": {
						"encoding": "bytes",
						"label": "string",
						"numberOfBytes": "32"
					},
					"t_uint256": {
						"encoding": "inplace",
						"label": "uint256",
						"numberOfBytes": "32"
					}
				}
			},
			"userdoc": {
				"kind": "user",
				"methods": {},
				"version": 1
			}
		}
	}
}