{
	"Evm/core/validators.sol": {
		"IValidators": {
			"abi": [
				{
					"inputs": [],
					"stateMutability": "nonpayable",
					"type": "constructor"
				},
				{
					"anonymous": false,
					"inputs": [
						{
							"indexed": true,
							"internalType": "address",
							"name": "user",
							"type": "address"
						},
						{
							"indexed": false,
							"internalType": "bool",
							"name": "isRemoval",
							"type": "bool"
						},
						{
							"indexed": false,
							"internalType": "uint256",
							"name": "epoch",
							"type": "uint256"
						}
					],
					"name": "AddressAddedToPending",
					"type": "event"
				},
				{
					"anonymous": false,
					"inputs": [
						{
							"indexed": true,
							"internalType": "address",
							"name": "newAddress",
							"type": "address"
						}
					],
					"name": "AuthorizedContractUpdated",
					"type": "event"
				},
				{
					"anonymous": false,
					"inputs": [
						{
							"indexed": true,
							"internalType": "address",
							"name": "newManager",
							"type": "address"
						}
					],
					"name": "EpochManagerUpdated",
					"type": "event"
				},
				{
					"anonymous": false,
					"inputs": [
						{
							"indexed": false,
							"internalType": "uint256",
							"name": "newEpoch",
							"type": "uint256"
						},
						{
							"indexed": false,
							"internalType": "uint256",
							"name": "countMoved",
							"type": "uint256"
						}
					],
					"name": "ListsRolledOver",
					"type": "event"
				},
				{
					"inputs": [
						{
							"internalType": "uint256",
							"name": "",
							"type": "uint256"
						}
					],
					"name": "activeAddresses",
					"outputs": [
						{
							"internalType": "address",
							"name": "",
							"type": "address"
						}
					],
					"stateMutability": "view",
					"type": "function"
				},
				{
					"inputs": [],
					"name": "activeRoot",
					"outputs": [
						{
							"internalType": "uint256",
							"name": "",
							"type": "uint256"
						}
					],
					"stateMutability": "view",
					"type": "function"
				},
				{
					"inputs": [
						{
							"internalType": "address",
							"name": "_user",
							"type": "address"
						}
					],
					"name": "addActiveAddressDirect",
					"outputs": [],
					"stateMutability": "nonpayable",
					"type": "function"
				},
				{
					"inputs": [
						{
							"internalType": "address",
							"name": "_user",
							"type": "address"
						},
						{
							"internalType": "bool",
							"name": "isRemoval",
							"type": "bool"
						}
					],
					"name": "addPendingAddress",
					"outputs": [],
					"stateMutability": "nonpayable",
					"type": "function"
				},
				{
					"inputs": [],
					"name": "authorizedContract",
					"outputs": [
						{
							"internalType": "address",
							"name": "",
							"type": "address"
						}
					],
					"stateMutability": "view",
					"type": "function"
				},
				{
					"inputs": [],
					"name": "checkSystemEpoch",
					"outputs": [
						{
							"internalType": "uint256",
							"name": "",
							"type": "uint256"
						}
					],
					"stateMutability": "view",
					"type": "function"
				},
				{
					"inputs": [],
					"name": "epochManager",
					"outputs": [
						{
							"internalType": "contract IEpochManager",
							"name": "",
							"type": "address"
						}
					],
					"stateMutability": "view",
					"type": "function"
				},
				{
					"inputs": [],
					"name": "getActiveAddresses",
					"outputs": [
						{
							"internalType": "address[]",
							"name": "",
							"type": "address[]"
						}
					],
					"stateMutability": "view",
					"type": "function"
				},
				{
					"inputs": [],
					"name": "getPendingAddresses",
					"outputs": [
						{
							"internalType": "address[]",
							"name": "",
							"type": "address[]"
						}
					],
					"stateMutability": "view",
					"type": "function"
				},
				{
					"inputs": [],
					"name": "getPendingUpdates",
					"outputs": [
						{
							"components": [
								{
									"internalType": "address",
									"name": "validator",
									"type": "address"
								},
								{
									"internalType": "bool",
									"name": "isRemoval",
									"type": "bool"
								}
							],
							"internalType": "struct IValidators.PendingUpdate[]",
							"name": "",
							"type": "tuple[]"
						}
					],
					"stateMutability": "view",
					"type": "function"
				},
				{
					"inputs": [],
					"name": "lastProcessedEpoch",
					"outputs": [
						{
							"internalType": "uint256",
							"name": "",
							"type": "uint256"
						}
					],
					"stateMutability": "view",
					"type": "function"
				},
				{
					"inputs": [],
					"name": "owner",
					"outputs": [
						{
							"internalType": "address",
							"name": "",
							"type": "address"
						}
					],
					"stateMutability": "view",
					"type": "function"
				},
				{
					"inputs": [],
					"name": "pendingRoot",
					"outputs": [
						{
							"internalType": "uint256",
							"name": "",
							"type": "uint256"
						}
					],
					"stateMutability": "view",
					"type": "function"
				},
				{
					"inputs": [
						{
							"internalType": "uint256",
							"name": "",
							"type": "uint256"
						}
					],
					"name": "pendingUpdates",
					"outputs": [
						{
							"internalType": "address",
							"name": "validator",
							"type": "address"
						},
						{
							"internalType": "bool",
							"name": "isRemoval",
							"type": "bool"
						}
					],
					"stateMutability": "view",
					"type": "function"
				},
				{
					"inputs": [
						{
							"internalType": "address",
							"name": "_authAddress",
							"type": "address"
						}
					],
					"name": "setAuthorizedContract",
					"outputs": [],
					"stateMutability": "nonpayable",
					"type": "function"
				},
				{
					"inputs": [
						{
							"internalType": "address",
							"name": "_epochManager",
							"type": "address"
						}
					],
					"name": "setEpochManager",
					"outputs": [],
					"stateMutability": "nonpayable",
					"type": "function"
				}
			],
			"devdoc": {
				"kind": "dev",
				"methods": {},
				"version": 1
			},
			"evm": {
				"assembly": "    /* \"Evm/core/validators.sol\":157:5242  contract IValidators {... */\n  mstore(0x40, 0x80)\n    /* \"Evm/core/validators.sol\":1047:1098  constructor() {... */\n  callvalue\n  dup1\n  iszero\n  tag_1\n  jumpi\n  revert(0x00, 0x00)\ntag_1:\n  pop\n    /* \"Evm/core/validators.sol\":1080:1090  msg.sender */\n  caller\n    /* \"Evm/core/validators.sol\":1072:1077  owner */\n  0x07\n  0x00\n    /* \"Evm/core/validators.sol\":1072:1090  owner = msg.sender */\n  0x0100\n  exp\n  dup2\n  sload\n  dup2\n  0xffffffffffffffffffffffffffffffffffffffff\n  mul\n  not\n  and\n  swap1\n  dup4\n  0xffffffffffffffffffffffffffffffffffffffff\n  and\n  mul\n  or\n  swap1\n  sstore\n  pop\n    /* \"Evm/core/validators.sol\":157:5242  contract IValidators {... */\n  dataSize(sub_0)\n  dup1\n  dataOffset(sub_0)\n  0x00\n  codecopy\n  0x00\n  return\nstop\n\nsub_0: assembly {\n        /* \"Evm/core/validators.sol\":157:5242  contract IValidators {... */\n      mstore(0x40, 0x80)\n      callvalue\n      dup1\n      iszero\n      tag_1\n      jumpi\n      revert(0x00, 0x00)\n    tag_1:\n      pop\n      jumpi(tag_2, lt(calldatasize, 0x04))\n      shr(0xe0, calldataload(0x00))\n      dup1\n      0x9aad69e7\n      gt\n      tag_19\n      jumpi\n      dup1\n      0xd4d59edb\n      gt\n      tag_20\n      jumpi\n      dup1\n      0xd4d59edb\n      eq\n      tag_15\n      jumpi\n      dup1\n      0xe21eb523\n      eq\n      tag_16\n      jumpi\n      dup1\n      0xe2d2bfe3\n      eq\n      tag_17\n      jumpi\n      dup1\n      0xee6713df\n      eq\n      tag_18\n      jumpi\n      jump(tag_2)\n    tag_20:\n      dup1\n      0x9aad69e7\n      eq\n      tag_11\n      jumpi\n      dup1\n      0xa6591cdf\n      eq\n      tag_12\n      jumpi\n      dup1\n      0xabb2efdf\n      eq\n      tag_13\n      jumpi\n      dup1\n      0xc16d4423\n      eq\n      tag_14\n      jumpi\n      jump(tag_2)\n    tag_19:\n      dup1\n      0x750588cf\n      gt\n      tag_21\n      jumpi\n      dup1\n      0x750588cf\n      eq\n      tag_7\n      jumpi\n      dup1\n      0x785b4747\n      eq\n      tag_8\n      jumpi\n      dup1\n      0x8da5cb5b\n      eq\n      tag_9\n      jumpi\n      dup1\n      0x8f06499f\n      eq\n      tag_10\n      jumpi\n      jump(tag_2)\n    tag_21:\n      dup1\n      0x1442e4c9\n      eq\n      tag_3\n      jumpi\n      dup1\n      0x22ca098f\n      eq\n      tag_4\n      jumpi\n      dup1\n      0x4967e428\n      eq\n      tag_5\n      jumpi\n      dup1\n      0x5ed7e0ee\n      eq\n      tag_6\n      jumpi\n    tag_2:\n      revert(0x00, 0x00)\n        /* \"Evm/core/validators.sol\":4400:4512  function getActiveAddresses() external view returns (address[] memory) {... */\n    tag_3:\n      tag_22\n      tag_23\n      jump\t// in\n    tag_22:\n      mload(0x40)\n      tag_24\n      swap2\n      swap1\n      tag_25\n      jump\t// in\n    tag_24:\n      mload(0x40)\n      dup1\n      swap2\n      sub\n      swap1\n      return\n        /* \"Evm/core/validators.sol\":1850:2236  function addPendingAddress(address _user, bool isRemoval) external onlyAuthorized {... */\n    tag_4:\n      tag_26\n      0x04\n      dup1\n      calldatasize\n      sub\n      dup2\n      add\n      swap1\n      tag_27\n      swap2\n      swap1\n      tag_28\n      jump\t// in\n    tag_27:\n      tag_29\n      jump\t// in\n    tag_26:\n      stop\n        /* \"Evm/core/validators.sol\":4793:5117  function getPendingAddresses() external view returns (address[] memory) {... */\n    tag_5:\n      tag_30\n      tag_31\n      jump\t// in\n    tag_30:\n      mload(0x40)\n      tag_32\n      swap2\n      swap1\n      tag_25\n      jump\t// in\n    tag_32:\n      mload(0x40)\n      dup1\n      swap2\n      sub\n      swap1\n      return\n        /* \"Evm/core/validators.sol\":4577:4693  function getPendingUpdates() external view returns (PendingUpdate[] memory) {... */\n    tag_6:\n      tag_33\n      tag_34\n      jump\t// in\n    tag_33:\n      mload(0x40)\n      tag_35\n      swap2\n      swap1\n      tag_36\n      jump\t// in\n    tag_35:\n      mload(0x40)\n      dup1\n      swap2\n      sub\n      swap1\n      return\n        /* \"Evm/core/validators.sol\":217:243  uint256 public pendingRoot */\n    tag_7:\n      tag_37\n      tag_38\n      jump\t// in\n    tag_37:\n      mload(0x40)\n      tag_39\n      swap2\n      swap1\n      tag_40\n      jump\t// in\n    tag_39:\n      mload(0x40)\n      dup1\n      swap2\n      sub\n      swap1\n      return\n        /* \"Evm/core/validators.sol\":4251:4360  function addActiveAddressDirect(address _user) external onlyOwner {... */\n    tag_8:\n      tag_41\n      0x04\n      dup1\n      calldatasize\n      sub\n      dup2\n      add\n      swap1\n      tag_42\n      swap2\n      swap1\n      tag_43\n      jump\t// in\n    tag_42:\n      tag_44\n      jump\t// in\n    tag_41:\n      stop\n        /* \"Evm/core/validators.sol\":714:734  address public owner */\n    tag_9:\n      tag_45\n      tag_46\n      jump\t// in\n    tag_45:\n      mload(0x40)\n      tag_47\n      swap2\n      swap1\n      tag_48\n      jump\t// in\n    tag_47:\n      mload(0x40)\n      dup1\n      swap2\n      sub\n      swap1\n      return\n        /* \"Evm/core/validators.sol\":481:518  PendingUpdate[] public pendingUpdates */\n    tag_10:\n      tag_49\n      0x04\n      dup1\n      calldatasize\n      sub\n      dup2\n      add\n      swap1\n      tag_50\n      swap2\n      swap1\n      tag_51\n      jump\t// in\n    tag_50:\n      tag_52\n      jump\t// in\n    tag_49:\n      mload(0x40)\n      tag_53\n      swap3\n      swap2\n      swap1\n      tag_54\n      jump\t// in\n    tag_53:\n      mload(0x40)\n      dup1\n      swap2\n      sub\n      swap1\n      return\n        /* \"Evm/core/validators.sol\":1368:1590  function setAuthorizedContract(address _authAddress) external {... */\n    tag_11:\n      tag_55\n      0x04\n      dup1\n      calldatasize\n      sub\n      dup2\n      add\n      swap1\n      tag_56\n      swap2\n      swap1\n      tag_43\n      jump\t// in\n    tag_56:\n      tag_57\n      jump\t// in\n    tag_55:\n      stop\n        /* \"Evm/core/validators.sol\":674:707  address public authorizedContract */\n    tag_12:\n      tag_58\n      tag_59\n      jump\t// in\n    tag_58:\n      mload(0x40)\n      tag_60\n      swap2\n      swap1\n      tag_48\n      jump\t// in\n    tag_60:\n      mload(0x40)\n      dup1\n      swap2\n      sub\n      swap1\n      return\n        /* \"Evm/core/validators.sol\":185:210  uint256 public activeRoot */\n    tag_13:\n      tag_61\n      tag_62\n      jump\t// in\n    tag_61:\n      mload(0x40)\n      tag_63\n      swap2\n      swap1\n      tag_40\n      jump\t// in\n    tag_63:\n      mload(0x40)\n      dup1\n      swap2\n      sub\n      swap1\n      return\n        /* \"Evm/core/validators.sol\":442:474  address[] public activeAddresses */\n    tag_14:\n      tag_64\n      0x04\n      dup1\n      calldatasize\n      sub\n      dup2\n      add\n      swap1\n      tag_65\n      swap2\n      swap1\n      tag_51\n      jump\t// in\n    tag_65:\n      tag_66\n      jump\t// in\n    tag_64:\n      mload(0x40)\n      tag_67\n      swap2\n      swap1\n      tag_48\n      jump\t// in\n    tag_67:\n      mload(0x40)\n      dup1\n      swap2\n      sub\n      swap1\n      return\n        /* \"Evm/core/validators.sol\":1138:1360  function setEpochManager(address _epochManager) external {... */\n    tag_15:\n      tag_68\n      0x04\n      dup1\n      calldatasize\n      sub\n      dup2\n      add\n      swap1\n      tag_69\n      swap2\n      swap1\n      tag_43\n      jump\t// in\n    tag_69:\n      tag_70\n      jump\t// in\n    tag_68:\n      stop\n        /* \"Evm/core/validators.sol\":5125:5239  function checkSystemEpoch() public view returns (uint256) {... */\n    tag_16:\n      tag_71\n      tag_72\n      jump\t// in\n    tag_71:\n      mload(0x40)\n      tag_73\n      swap2\n      swap1\n      tag_40\n      jump\t// in\n    tag_73:\n      mload(0x40)\n      dup1\n      swap2\n      sub\n      swap1\n      return\n        /* \"Evm/core/validators.sol\":591:624  IEpochManager public epochManager */\n    tag_17:\n      tag_74\n      tag_75\n      jump\t// in\n    tag_74:\n      mload(0x40)\n      tag_76\n      swap2\n      swap1\n      tag_77\n      jump\t// in\n    tag_76:\n      mload(0x40)\n      dup1\n      swap2\n      sub\n      swap1\n      return\n        /* \"Evm/core/validators.sol\":631:664  uint256 public lastProcessedEpoch */\n    tag_18:\n      tag_78\n      tag_79\n      jump\t// in\n    tag_78:\n      mload(0x40)\n      tag_80\n      swap2\n      swap1\n      tag_40\n      jump\t// in\n    tag_80:\n      mload(0x40)\n      dup1\n      swap2\n      sub\n      swap1\n      return\n        /* \"Evm/core/validators.sol\":4400:4512  function getActiveAddresses() external view returns (address[] memory) {... */\n    tag_23:\n        /* \"Evm/core/validators.sol\":4453:4469  address[] memory */\n      0x60\n        /* \"Evm/core/validators.sol\":4489:4504  activeAddresses */\n      0x02\n        /* \"Evm/core/validators.sol\":4482:4504  return activeAddresses */\n      dup1\n      sload\n      dup1\n      0x20\n      mul\n      0x20\n      add\n      mload(0x40)\n      swap1\n      dup2\n      add\n      0x40\n      mstore\n      dup1\n      swap3\n      swap2\n      swap1\n      dup2\n      dup2\n      mstore\n      0x20\n      add\n      dup3\n      dup1\n      sload\n      dup1\n      iszero\n      tag_82\n      jumpi\n      0x20\n      mul\n      dup3\n      add\n      swap2\n      swap1\n      0x00\n      mstore\n      keccak256(0x00, 0x20)\n      swap1\n    tag_83:\n      dup2\n      0x00\n      swap1\n      sload\n      swap1\n      0x0100\n      exp\n      swap1\n      div\n      0xffffffffffffffffffffffffffffffffffffffff\n      and\n      0xffffffffffffffffffffffffffffffffffffffff\n      and\n      dup2\n      mstore\n      0x20\n      add\n      swap1\n      0x01\n      add\n      swap1\n      dup1\n      dup4\n      gt\n      tag_83\n      jumpi\n    tag_82:\n      pop\n      pop\n      pop\n      pop\n      pop\n      swap1\n      pop\n        /* \"Evm/core/validators.sol\":4400:4512  function getActiveAddresses() external view returns (address[] memory) {... */\n      swap1\n      jump\t// out\n        /* \"Evm/core/validators.sol\":1850:2236  function addPendingAddress(address _user, bool isRemoval) external onlyAuthorized {... */\n    tag_29:\n        /* \"Evm/core/validators.sol\":1757:1775  authorizedContract */\n      0x06\n      0x00\n      swap1\n      sload\n      swap1\n      0x0100\n      exp\n      swap1\n      div\n      0xffffffffffffffffffffffffffffffffffffffff\n      and\n        /* \"Evm/core/validators.sol\":1743:1775  msg.sender == authorizedContract */\n      0xffffffffffffffffffffffffffffffffffffffff\n      and\n        /* \"Evm/core/validators.sol\":1743:1753  msg.sender */\n      caller\n        /* \"Evm/core/validators.sol\":1743:1775  msg.sender == authorizedContract */\n      0xffffffffffffffffffffffffffffffffffffffff\n      and\n      eq\n        /* \"Evm/core/validators.sol\":1735:1794  require(msg.sender == authorizedContract, \"Not authorized\") */\n      tag_85\n      jumpi\n      mload(0x40)\n      0x08c379a000000000000000000000000000000000000000000000000000000000\n      dup2\n      mstore\n      0x04\n      add\n      tag_86\n      swap1\n      tag_87\n      jump\t// in\n    tag_86:\n      mload(0x40)\n      dup1\n      swap2\n      sub\n      swap1\n      revert\n    tag_85:\n        /* \"Evm/core/validators.sol\":1943:1973  _checkAndHandleEpochRollover() */\n      tag_89\n        /* \"Evm/core/validators.sol\":1943:1971  _checkAndHandleEpochRollover */\n      tag_90\n        /* \"Evm/core/validators.sol\":1943:1973  _checkAndHandleEpochRollover() */\n      jump\t// in\n    tag_89:\n        /* \"Evm/core/validators.sol\":2038:2052  pendingUpdates */\n      0x03\n        /* \"Evm/core/validators.sol\":2058:2150  PendingUpdate({... */\n      mload(0x40)\n      dup1\n      0x40\n      add\n      0x40\n      mstore\n      dup1\n        /* \"Evm/core/validators.sol\":2098:2103  _user */\n      dup5\n        /* \"Evm/core/validators.sol\":2058:2150  PendingUpdate({... */\n      0xffffffffffffffffffffffffffffffffffffffff\n      and\n      dup2\n      mstore\n      0x20\n      add\n        /* \"Evm/core/validators.sol\":2129:2138  isRemoval */\n      dup4\n        /* \"Evm/core/validators.sol\":2058:2150  PendingUpdate({... */\n      iszero\n      iszero\n      dup2\n      mstore\n      pop\n        /* \"Evm/core/validators.sol\":2038:2151  pendingUpdates.push(PendingUpdate({... */\n      swap1\n      dup1\n      0x01\n      dup2\n      sload\n      add\n      dup1\n      dup3\n      sstore\n      dup1\n      swap2\n      pop\n      pop\n      0x01\n      swap1\n      sub\n      swap1\n      0x00\n      mstore\n      keccak256(0x00, 0x20)\n      add\n      0x00\n      swap1\n      swap2\n      swap1\n      swap2\n      swap1\n      swap2\n      pop\n      0x00\n      dup3\n      add\n      mload\n      dup2\n      0x00\n      add\n      exp(0x0100, 0x00)\n      dup2\n      sload\n      dup2\n      0xffffffffffffffffffffffffffffffffffffffff\n      mul\n      not\n      and\n      swap1\n      dup4\n      0xffffffffffffffffffffffffffffffffffffffff\n      and\n      mul\n      or\n      swap1\n      sstore\n      pop\n      0x20\n      dup3\n      add\n      mload\n      dup2\n      0x00\n      add\n      exp(0x0100, 0x14)\n      dup2\n      sload\n      dup2\n      0xff\n      mul\n      not\n      and\n      swap1\n      dup4\n      iszero\n      iszero\n      mul\n      or\n      swap1\n      sstore\n      pop\n      pop\n      pop\n        /* \"Evm/core/validators.sol\":2191:2196  _user */\n      dup2\n        /* \"Evm/core/validators.sol\":2169:2228  AddressAddedToPending(_user, isRemoval, lastProcessedEpoch) */\n      0xffffffffffffffffffffffffffffffffffffffff\n      and\n      0x9deb677eb61bae9fe895f4c30c0fa23b9b37a1a6afec0a6590f2783861f6bc6e\n        /* \"Evm/core/validators.sol\":2198:2207  isRemoval */\n      dup3\n        /* \"Evm/core/validators.sol\":2209:2227  lastProcessedEpoch */\n      sload(0x05)\n        /* \"Evm/core/validators.sol\":2169:2228  AddressAddedToPending(_user, isRemoval, lastProcessedEpoch) */\n      mload(0x40)\n      tag_92\n      swap3\n      swap2\n      swap1\n      tag_93\n      jump\t// in\n    tag_92:\n      mload(0x40)\n      dup1\n      swap2\n      sub\n      swap1\n      log2\n        /* \"Evm/core/validators.sol\":1850:2236  function addPendingAddress(address _user, bool isRemoval) external onlyAuthorized {... */\n      pop\n      pop\n      jump\t// out\n        /* \"Evm/core/validators.sol\":4793:5117  function getPendingAddresses() external view returns (address[] memory) {... */\n    tag_31:\n        /* \"Evm/core/validators.sol\":4847:4863  address[] memory */\n      0x60\n        /* \"Evm/core/validators.sol\":4876:4887  uint256 len */\n      0x00\n        /* \"Evm/core/validators.sol\":4890:4904  pendingUpdates */\n      0x03\n        /* \"Evm/core/validators.sol\":4890:4911  pendingUpdates.length */\n      dup1\n      sload\n      swap1\n      pop\n        /* \"Evm/core/validators.sol\":4876:4911  uint256 len = pendingUpdates.length */\n      swap1\n      pop\n        /* \"Evm/core/validators.sol\":4922:4948  address[] memory addresses */\n      0x00\n        /* \"Evm/core/validators.sol\":4965:4968  len */\n      dup2\n        /* \"Evm/core/validators.sol\":4951:4969  new address[](len) */\n      0xffffffffffffffff\n      dup2\n      gt\n      iszero\n      tag_95\n      jumpi\n      tag_96\n      tag_97\n      jump\t// in\n    tag_96:\n    tag_95:\n      mload(0x40)\n      swap1\n      dup1\n      dup3\n      mstore\n      dup1\n      0x20\n      mul\n      0x20\n      add\n      dup3\n      add\n      0x40\n      mstore\n      dup1\n      iszero\n      tag_98\n      jumpi\n      dup2\n      0x20\n      add\n      0x20\n      dup3\n      mul\n      dup1\n      calldatasize\n      dup4\n      calldatacopy\n      dup1\n      dup3\n      add\n      swap2\n      pop\n      pop\n      swap1\n      pop\n    tag_98:\n      pop\n        /* \"Evm/core/validators.sol\":4922:4969  address[] memory addresses = new address[](len) */\n      swap1\n      pop\n        /* \"Evm/core/validators.sol\":4985:4994  uint256 i */\n      0x00\n        /* \"Evm/core/validators.sol\":4997:4998  0 */\n      0x00\n        /* \"Evm/core/validators.sol\":4985:4998  uint256 i = 0 */\n      swap1\n      pop\n        /* \"Evm/core/validators.sol\":4980:5083  for (uint256 i = 0; i < len; i++) {... */\n    tag_99:\n        /* \"Evm/core/validators.sol\":5004:5007  len */\n      dup3\n        /* \"Evm/core/validators.sol\":5000:5001  i */\n      dup2\n        /* \"Evm/core/validators.sol\":5000:5007  i < len */\n      lt\n        /* \"Evm/core/validators.sol\":4980:5083  for (uint256 i = 0; i < len; i++) {... */\n      iszero\n      tag_100\n      jumpi\n        /* \"Evm/core/validators.sol\":5044:5058  pendingUpdates */\n      0x03\n        /* \"Evm/core/validators.sol\":5059:5060  i */\n      dup2\n        /* \"Evm/core/validators.sol\":5044:5061  pendingUpdates[i] */\n      dup2\n      sload\n      dup2\n      lt\n      tag_102\n      jumpi\n      tag_103\n      tag_104\n      jump\t// in\n    tag_103:\n    tag_102:\n      swap1\n      0x00\n      mstore\n      keccak256(0x00, 0x20)\n      add\n        /* \"Evm/core/validators.sol\":5044:5071  pendingUpdates[i].validator */\n      0x00\n      add\n      0x00\n      swap1\n      sload\n      swap1\n      0x0100\n      exp\n      swap1\n      div\n      0xffffffffffffffffffffffffffffffffffffffff\n      and\n        /* \"Evm/core/validators.sol\":5029:5038  addresses */\n      dup3\n        /* \"Evm/core/validators.sol\":5039:5040  i */\n      dup3\n        /* \"Evm/core/validators.sol\":5029:5041  addresses[i] */\n      dup2\n      mload\n      dup2\n      lt\n      tag_106\n      jumpi\n      tag_107\n      tag_104\n      jump\t// in\n    tag_107:\n    tag_106:\n      0x20\n      mul\n      0x20\n      add\n      add\n        /* \"Evm/core/validators.sol\":5029:5071  addresses[i] = pendingUpdates[i].validator */\n      swap1\n      0xffffffffffffffffffffffffffffffffffffffff\n      and\n      swap1\n      dup2\n      0xffffffffffffffffffffffffffffffffffffffff\n      and\n      dup2\n      mstore\n      pop\n      pop\n        /* \"Evm/core/validators.sol\":5009:5012  i++ */\n      dup1\n      dup1\n      0x01\n      add\n      swap2\n      pop\n      pop\n        /* \"Evm/core/validators.sol\":4980:5083  for (uint256 i = 0; i < len; i++) {... */\n      jump(tag_99)\n    tag_100:\n      pop\n        /* \"Evm/core/validators.sol\":5100:5109  addresses */\n      dup1\n        /* \"Evm/core/validators.sol\":5093:5109  return addresses */\n      swap3\n      pop\n      pop\n      pop\n        /* \"Evm/core/validators.sol\":4793:5117  function getPendingAddresses() external view returns (address[] memory) {... */\n      swap1\n      jump\t// out\n        /* \"Evm/core/validators.sol\":4577:4693  function getPendingUpdates() external view returns (PendingUpdate[] memory) {... */\n    tag_34:\n        /* \"Evm/core/validators.sol\":4629:4651  PendingUpdate[] memory */\n      0x60\n        /* \"Evm/core/validators.sol\":4671:4685  pendingUpdates */\n      0x03\n        /* \"Evm/core/validators.sol\":4664:4685  return pendingUpdates */\n      dup1\n      sload\n      dup1\n      0x20\n      mul\n      0x20\n      add\n      mload(0x40)\n      swap1\n      dup2\n      add\n      0x40\n      mstore\n      dup1\n      swap3\n      swap2\n      swap1\n      dup2\n      dup2\n      mstore\n      0x20\n      add\n      0x00\n      swap1\n    tag_109:\n      dup3\n      dup3\n      lt\n      iszero\n      tag_110\n      jumpi\n      dup4\n      dup3\n      swap1\n      0x00\n      mstore\n      keccak256(0x00, 0x20)\n      add\n      mload(0x40)\n      dup1\n      0x40\n      add\n      0x40\n      mstore\n      swap1\n      dup2\n      0x00\n      dup3\n      add\n      0x00\n      swap1\n      sload\n      swap1\n      0x0100\n      exp\n      swap1\n      div\n      0xffffffffffffffffffffffffffffffffffffffff\n      and\n      0xffffffffffffffffffffffffffffffffffffffff\n      and\n      0xffffffffffffffffffffffffffffffffffffffff\n      and\n      dup2\n      mstore\n      0x20\n      add\n      0x00\n      dup3\n      add\n      0x14\n      swap1\n      sload\n      swap1\n      0x0100\n      exp\n      swap1\n      div\n      0xff\n      and\n      iszero\n      iszero\n      iszero\n      iszero\n      dup2\n      mstore\n      pop\n      pop\n      dup2\n      mstore\n      0x20\n      add\n      swap1\n      0x01\n      add\n      swap1\n      jump(tag_109)\n    tag_110:\n      pop\n      pop\n      pop\n      pop\n      swap1\n      pop\n        /* \"Evm/core/validators.sol\":4577:4693  function getPendingUpdates() external view returns (PendingUpdate[] memory) {... */\n      swap1\n      jump\t// out\n        /* \"Evm/core/validators.sol\":217:243  uint256 public pendingRoot */\n    tag_38:\n      sload(0x01)\n      dup2\n      jump\t// out\n        /* \"Evm/core/validators.sol\":4251:4360  function addActiveAddressDirect(address _user) external onlyOwner {... */\n    tag_44:\n        /* \"Evm/core/validators.sol\":1652:1657  owner */\n      0x07\n      0x00\n      swap1\n      sload\n      swap1\n      0x0100\n      exp\n      swap1\n      div\n      0xffffffffffffffffffffffffffffffffffffffff\n      and\n        /* \"Evm/core/validators.sol\":1638:1657  msg.sender == owner */\n      0xffffffffffffffffffffffffffffffffffffffff\n      and\n        /* \"Evm/core/validators.sol\":1638:1648  msg.sender */\n      caller\n        /* \"Evm/core/validators.sol\":1638:1657  msg.sender == owner */\n      0xffffffffffffffffffffffffffffffffffffffff\n      and\n      eq\n        /* \"Evm/core/validators.sol\":1630:1672  require(msg.sender == owner, \"Only owner\") */\n      tag_113\n      jumpi\n      mload(0x40)\n      0x08c379a000000000000000000000000000000000000000000000000000000000\n      dup2\n      mstore\n      0x04\n      add\n      tag_114\n      swap1\n      tag_115\n      jump\t// in\n    tag_114:\n      mload(0x40)\n      dup1\n      swap2\n      sub\n      swap1\n      revert\n    tag_113:\n        /* \"Evm/core/validators.sol\":4328:4352  _addActiveAddress(_user) */\n      tag_117\n        /* \"Evm/core/validators.sol\":4346:4351  _user */\n      dup2\n        /* \"Evm/core/validators.sol\":4328:4345  _addActiveAddress */\n      tag_118\n        /* \"Evm/core/validators.sol\":4328:4352  _addActiveAddress(_user) */\n      jump\t// in\n    tag_117:\n        /* \"Evm/core/validators.sol\":4251:4360  function addActiveAddressDirect(address _user) external onlyOwner {... */\n      pop\n      jump\t// out\n        /* \"Evm/core/validators.sol\":714:734  address public owner */\n    tag_46:\n      0x07\n      0x00\n      swap1\n      sload\n      swap1\n      0x0100\n      exp\n      swap1\n      div\n      0xffffffffffffffffffffffffffffffffffffffff\n      and\n      dup2\n      jump\t// out\n        /* \"Evm/core/validators.sol\":481:518  PendingUpdate[] public pendingUpdates */\n    tag_52:\n      0x03\n      dup2\n      dup2\n      sload\n      dup2\n      lt\n      tag_119\n      jumpi\n      0x00\n      dup1\n      revert\n    tag_119:\n      swap1\n      0x00\n      mstore\n      keccak256(0x00, 0x20)\n      add\n      0x00\n      swap2\n      pop\n      swap1\n      pop\n      dup1\n      0x00\n      add\n      0x00\n      swap1\n      sload\n      swap1\n      0x0100\n      exp\n      swap1\n      div\n      0xffffffffffffffffffffffffffffffffffffffff\n      and\n      swap1\n      dup1\n      0x00\n      add\n      0x14\n      swap1\n      sload\n      swap1\n      0x0100\n      exp\n      swap1\n      div\n      0xff\n      and\n      swap1\n      pop\n      dup3\n      jump\t// out\n        /* \"Evm/core/validators.sol\":1368:1590  function setAuthorizedContract(address _authAddress) external {... */\n    tag_57:\n        /* \"Evm/core/validators.sol\":1463:1468  owner */\n      0x07\n      0x00\n      swap1\n      sload\n      swap1\n      0x0100\n      exp\n      swap1\n      div\n      0xffffffffffffffffffffffffffffffffffffffff\n      and\n        /* \"Evm/core/validators.sol\":1449:1468  msg.sender == owner */\n      0xffffffffffffffffffffffffffffffffffffffff\n      and\n        /* \"Evm/core/validators.sol\":1449:1459  msg.sender */\n      caller\n        /* \"Evm/core/validators.sol\":1449:1468  msg.sender == owner */\n      0xffffffffffffffffffffffffffffffffffffffff\n      and\n      eq\n        /* \"Evm/core/validators.sol\":1441:1483  require(msg.sender == owner, \"Only owner\") */\n      tag_122\n      jumpi\n      mload(0x40)\n      0x08c379a000000000000000000000000000000000000000000000000000000000\n      dup2\n      mstore\n      0x04\n      add\n      tag_123\n      swap1\n      tag_115\n      jump\t// in\n    tag_123:\n      mload(0x40)\n      dup1\n      swap2\n      sub\n      swap1\n      revert\n    tag_122:\n        /* \"Evm/core/validators.sol\":1515:1527  _authAddress */\n      dup1\n        /* \"Evm/core/validators.sol\":1494:1512  authorizedContract */\n      0x06\n      0x00\n        /* \"Evm/core/validators.sol\":1494:1527  authorizedContract = _authAddress */\n      0x0100\n      exp\n      dup2\n      sload\n      dup2\n      0xffffffffffffffffffffffffffffffffffffffff\n      mul\n      not\n      and\n      swap1\n      dup4\n      0xffffffffffffffffffffffffffffffffffffffff\n      and\n      mul\n      or\n      swap1\n      sstore\n      pop\n        /* \"Evm/core/validators.sol\":1569:1581  _authAddress */\n      dup1\n        /* \"Evm/core/validators.sol\":1543:1582  AuthorizedContractUpdated(_authAddress) */\n      0xffffffffffffffffffffffffffffffffffffffff\n      and\n      0x2e8b6f15ca325edad1931b418450cd194daf93e7f40fe4a48d9b1b4bf2a8f069\n      mload(0x40)\n      mload(0x40)\n      dup1\n      swap2\n      sub\n      swap1\n      log2\n        /* \"Evm/core/validators.sol\":1368:1590  function setAuthorizedContract(address _authAddress) external {... */\n      pop\n      jump\t// out\n        /* \"Evm/core/validators.sol\":674:707  address public authorizedContract */\n    tag_59:\n      0x06\n      0x00\n      swap1\n      sload\n      swap1\n      0x0100\n      exp\n      swap1\n      div\n      0xffffffffffffffffffffffffffffffffffffffff\n      and\n      dup2\n      jump\t// out\n        /* \"Evm/core/validators.sol\":185:210  uint256 public activeRoot */\n    tag_62:\n      sload(0x00)\n      dup2\n      jump\t// out\n        /* \"Evm/core/validators.sol\":442:474  address[] public activeAddresses */\n    tag_66:\n      0x02\n      dup2\n      dup2\n      sload\n      dup2\n      lt\n      tag_124\n      jumpi\n      0x00\n      dup1\n      revert\n    tag_124:\n      swap1\n      0x00\n      mstore\n      keccak256(0x00, 0x20)\n      add\n      0x00\n      swap2\n      pop\n      sload\n      swap1\n      0x0100\n      exp\n      swap1\n      div\n      0xffffffffffffffffffffffffffffffffffffffff\n      and\n      dup2\n      jump\t// out\n        /* \"Evm/core/validators.sol\":1138:1360  function setEpochManager(address _epochManager) external {... */\n    tag_70:\n        /* \"Evm/core/validators.sol\":1228:1233  owner */\n      0x07\n      0x00\n      swap1\n      sload\n      swap1\n      0x0100\n      exp\n      swap1\n      div\n      0xffffffffffffffffffffffffffffffffffffffff\n      and\n        /* \"Evm/core/validators.sol\":1214:1233  msg.sender == owner */\n      0xffffffffffffffffffffffffffffffffffffffff\n      and\n        /* \"Evm/core/validators.sol\":1214:1224  msg.sender */\n      caller\n        /* \"Evm/core/validators.sol\":1214:1233  msg.sender == owner */\n      0xffffffffffffffffffffffffffffffffffffffff\n      and\n      eq\n        /* \"Evm/core/validators.sol\":1206:1248  require(msg.sender == owner, \"Only owner\") */\n      tag_127\n      jumpi\n      mload(0x40)\n      0x08c379a000000000000000000000000000000000000000000000000000000000\n      dup2\n      mstore\n      0x04\n      add\n      tag_128\n      swap1\n      tag_115\n      jump\t// in\n    tag_128:\n      mload(0x40)\n      dup1\n      swap2\n      sub\n      swap1\n      revert\n    tag_127:\n        /* \"Evm/core/validators.sol\":1288:1301  _epochManager */\n      dup1\n        /* \"Evm/core/validators.sol\":1259:1271  epochManager */\n      0x04\n      0x00\n        /* \"Evm/core/validators.sol\":1259:1302  epochManager = IEpochManager(_epochManager) */\n      0x0100\n      exp\n      dup2\n      sload\n      dup2\n      0xffffffffffffffffffffffffffffffffffffffff\n      mul\n      not\n      and\n      swap1\n      dup4\n      0xffffffffffffffffffffffffffffffffffffffff\n      and\n      mul\n      or\n      swap1\n      sstore\n      pop\n        /* \"Evm/core/validators.sol\":1338:1351  _epochManager */\n      dup1\n        /* \"Evm/core/validators.sol\":1318:1352  EpochManagerUpdated(_epochManager) */\n      0xffffffffffffffffffffffffffffffffffffffff\n      and\n      0x4b9d66d8e64dff6d9d2728f9a38da9739d3cfdbe676fde05564aae22f8508465\n      mload(0x40)\n      mload(0x40)\n      dup1\n      swap2\n      sub\n      swap1\n      log2\n        /* \"Evm/core/validators.sol\":1138:1360  function setEpochManager(address _epochManager) external {... */\n      pop\n      jump\t// out\n        /* \"Evm/core/validators.sol\":5125:5239  function checkSystemEpoch() public view returns (uint256) {... */\n    tag_72:\n        /* \"Evm/core/validators.sol\":5174:5181  uint256 */\n      0x00\n        /* \"Evm/core/validators.sol\":5201:5213  epochManager */\n      0x04\n      0x00\n      swap1\n      sload\n      swap1\n      0x0100\n      exp\n      swap1\n      div\n      0xffffffffffffffffffffffffffffffffffffffff\n      and\n        /* \"Evm/core/validators.sol\":5201:5229  epochManager.getCurrentEpoch */\n      0xffffffffffffffffffffffffffffffffffffffff\n      and\n      0xb97dd9e2\n        /* \"Evm/core/validators.sol\":5201:5231  epochManager.getCurrentEpoch() */\n      mload(0x40)\n      dup2\n      0xffffffff\n      and\n      0xe0\n      shl\n      dup2\n      mstore\n      0x04\n      add\n      0x20\n      mload(0x40)\n      dup1\n      dup4\n      sub\n      dup2\n      dup7\n      gas\n      staticcall\n      iszero\n      dup1\n      iszero\n      tag_131\n      jumpi\n      returndatacopy(0x00, 0x00, returndatasize)\n      revert(0x00, returndatasize)\n    tag_131:\n      pop\n      pop\n      pop\n      pop\n      mload(0x40)\n      returndatasize\n      not(0x1f)\n      0x1f\n      dup3\n      add\n      and\n      dup3\n      add\n      dup1\n      0x40\n      mstore\n      pop\n      dup2\n      add\n      swap1\n      tag_132\n      swap2\n      swap1\n      tag_133\n      jump\t// in\n    tag_132:\n        /* \"Evm/core/validators.sol\":5194:5231  return epochManager.getCurrentEpoch() */\n      swap1\n      pop\n        /* \"Evm/core/validators.sol\":5125:5239  function checkSystemEpoch() public view returns (uint256) {... */\n      swap1\n      jump\t// out\n        /* \"Evm/core/validators.sol\":591:624  IEpochManager public epochManager */\n    tag_75:\n      0x04\n      0x00\n      swap1\n      sload\n      swap1\n      0x0100\n      exp\n      swap1\n      div\n      0xffffffffffffffffffffffffffffffffffffffff\n      and\n      dup2\n      jump\t// out\n        /* \"Evm/core/validators.sol\":631:664  uint256 public lastProcessedEpoch */\n    tag_79:\n      sload(0x05)\n      dup2\n      jump\t// out\n        /* \"Evm/core/validators.sol\":2244:3225  function _checkAndHandleEpochRollover() internal {... */\n    tag_90:\n        /* \"Evm/core/validators.sol\":2304:2324  uint256 currentEpoch */\n      0x00\n        /* \"Evm/core/validators.sol\":2327:2339  epochManager */\n      0x04\n      0x00\n      swap1\n      sload\n      swap1\n      0x0100\n      exp\n      swap1\n      div\n      0xffffffffffffffffffffffffffffffffffffffff\n      and\n        /* \"Evm/core/validators.sol\":2327:2355  epochManager.getCurrentEpoch */\n      0xffffffffffffffffffffffffffffffffffffffff\n      and\n      0xb97dd9e2\n        /* \"Evm/core/validators.sol\":2327:2357  epochManager.getCurrentEpoch() */\n      mload(0x40)\n      dup2\n      0xffffffff\n      and\n      0xe0\n      shl\n      dup2\n      mstore\n      0x04\n      add\n      0x20\n      mload(0x40)\n      dup1\n      dup4\n      sub\n      dup2\n      dup7\n      gas\n      staticcall\n      iszero\n      dup1\n      iszero\n      tag_136\n      jumpi\n      returndatacopy(0x00, 0x00, returndatasize)\n      revert(0x00, returndatasize)\n    tag_136:\n      pop\n      pop\n      pop\n      pop\n      mload(0x40)\n      returndatasize\n      not(0x1f)\n      0x1f\n      dup3\n      add\n      and\n      dup3\n      add\n      dup1\n      0x40\n      mstore\n      pop\n      dup2\n      add\n      swap1\n      tag_137\n      swap2\n      swap1\n      tag_133\n      jump\t// in\n    tag_137:\n        /* \"Evm/core/validators.sol\":2304:2357  uint256 currentEpoch = epochManager.getCurrentEpoch() */\n      swap1\n      pop\n        /* \"Evm/core/validators.sol\":2465:2483  lastProcessedEpoch */\n      sload(0x05)\n        /* \"Evm/core/validators.sol\":2450:2462  currentEpoch */\n      dup2\n        /* \"Evm/core/validators.sol\":2450:2483  currentEpoch > lastProcessedEpoch */\n      gt\n        /* \"Evm/core/validators.sol\":2446:3218  if (currentEpoch > lastProcessedEpoch) {... */\n      iszero\n      tag_138\n      jumpi\n        /* \"Evm/core/validators.sol\":2500:2511  uint256 len */\n      0x00\n        /* \"Evm/core/validators.sol\":2514:2528  pendingUpdates */\n      0x03\n        /* \"Evm/core/validators.sol\":2514:2535  pendingUpdates.length */\n      dup1\n      sload\n      swap1\n      pop\n        /* \"Evm/core/validators.sol\":2500:2535  uint256 len = pendingUpdates.length */\n      swap1\n      pop\n        /* \"Evm/core/validators.sol\":2620:2629  uint256 i */\n      0x00\n        /* \"Evm/core/validators.sol\":2632:2633  0 */\n      0x00\n        /* \"Evm/core/validators.sol\":2620:2633  uint256 i = 0 */\n      swap1\n      pop\n        /* \"Evm/core/validators.sol\":2615:2950  for (uint256 i = 0; i < len; i++) {... */\n    tag_139:\n        /* \"Evm/core/validators.sol\":2639:2642  len */\n      dup2\n        /* \"Evm/core/validators.sol\":2635:2636  i */\n      dup2\n        /* \"Evm/core/validators.sol\":2635:2642  i < len */\n      lt\n        /* \"Evm/core/validators.sol\":2615:2950  for (uint256 i = 0; i < len; i++) {... */\n      iszero\n      tag_140\n      jumpi\n        /* \"Evm/core/validators.sol\":2668:2695  PendingUpdate memory update */\n      0x00\n        /* \"Evm/core/validators.sol\":2698:2712  pendingUpdates */\n      0x03\n        /* \"Evm/core/validators.sol\":2713:2714  i */\n      dup3\n        /* \"Evm/core/validators.sol\":2698:2715  pendingUpdates[i] */\n      dup2\n      sload\n      dup2\n      lt\n      tag_142\n      jumpi\n      tag_143\n      tag_104\n      jump\t// in\n    tag_143:\n    tag_142:\n      swap1\n      0x00\n      mstore\n      keccak256(0x00, 0x20)\n      add\n        /* \"Evm/core/validators.sol\":2668:2715  PendingUpdate memory update = pendingUpdates[i] */\n      mload(0x40)\n      dup1\n      0x40\n      add\n      0x40\n      mstore\n      swap1\n      dup2\n      0x00\n      dup3\n      add\n      0x00\n      swap1\n      sload\n      swap1\n      0x0100\n      exp\n      swap1\n      div\n      0xffffffffffffffffffffffffffffffffffffffff\n      and\n      0xffffffffffffffffffffffffffffffffffffffff\n      and\n      0xffffffffffffffffffffffffffffffffffffffff\n      and\n      dup2\n      mstore\n      0x20\n      add\n      0x00\n      dup3\n      add\n      0x14\n      swap1\n      sload\n      swap1\n      0x0100\n      exp\n      swap1\n      div\n      0xff\n      and\n      iszero\n      iszero\n      iszero\n      iszero\n      dup2\n      mstore\n      pop\n      pop\n      swap1\n      pop\n        /* \"Evm/core/validators.sol\":2738:2744  update */\n      dup1\n        /* \"Evm/core/validators.sol\":2738:2754  update.isRemoval */\n      0x20\n      add\n      mload\n        /* \"Evm/core/validators.sol\":2734:2935  if (update.isRemoval) {... */\n      iszero\n      tag_145\n      jumpi\n        /* \"Evm/core/validators.sol\":2779:2817  _removeActiveAddress(update.validator) */\n      tag_146\n        /* \"Evm/core/validators.sol\":2800:2806  update */\n      dup2\n        /* \"Evm/core/validators.sol\":2800:2816  update.validator */\n      0x00\n      add\n      mload\n        /* \"Evm/core/validators.sol\":2779:2799  _removeActiveAddress */\n      tag_147\n        /* \"Evm/core/validators.sol\":2779:2817  _removeActiveAddress(update.validator) */\n      jump\t// in\n    tag_146:\n        /* \"Evm/core/validators.sol\":2734:2935  if (update.isRemoval) {... */\n      jump(tag_148)\n    tag_145:\n        /* \"Evm/core/validators.sol\":2873:2908  _addActiveAddress(update.validator) */\n      tag_149\n        /* \"Evm/core/validators.sol\":2891:2897  update */\n      dup2\n        /* \"Evm/core/validators.sol\":2891:2907  update.validator */\n      0x00\n      add\n      mload\n        /* \"Evm/core/validators.sol\":2873:2890  _addActiveAddress */\n      tag_118\n        /* \"Evm/core/validators.sol\":2873:2908  _addActiveAddress(update.validator) */\n      jump\t// in\n    tag_149:\n        /* \"Evm/core/validators.sol\":2734:2935  if (update.isRemoval) {... */\n    tag_148:\n        /* \"Evm/core/validators.sol\":2649:2950  {... */\n      pop\n        /* \"Evm/core/validators.sol\":2644:2647  i++ */\n      dup1\n      dup1\n      0x01\n      add\n      swap2\n      pop\n      pop\n        /* \"Evm/core/validators.sol\":2615:2950  for (uint256 i = 0; i < len; i++) {... */\n      jump(tag_139)\n    tag_140:\n      pop\n        /* \"Evm/core/validators.sol\":3033:3047  pendingUpdates */\n      0x03\n      0x00\n        /* \"Evm/core/validators.sol\":3026:3047  delete pendingUpdates */\n      tag_150\n      swap2\n      swap1\n      tag_151\n      jump\t// in\n    tag_150:\n        /* \"Evm/core/validators.sol\":3119:3131  currentEpoch */\n      dup2\n        /* \"Evm/core/validators.sol\":3098:3116  lastProcessedEpoch */\n      0x05\n        /* \"Evm/core/validators.sol\":3098:3131  lastProcessedEpoch = currentEpoch */\n      dup2\n      swap1\n      sstore\n      pop\n        /* \"Evm/core/validators.sol\":3153:3206  ListsRolledOver(currentEpoch, activeAddresses.length) */\n      0xd3e4f1af05d6a58c34415da926f00920cb8fee260e9d49885349cbf4a26af200\n        /* \"Evm/core/validators.sol\":3169:3181  currentEpoch */\n      dup3\n        /* \"Evm/core/validators.sol\":3183:3198  activeAddresses */\n      0x02\n        /* \"Evm/core/validators.sol\":3183:3205  activeAddresses.length */\n      dup1\n      sload\n      swap1\n      pop\n        /* \"Evm/core/validators.sol\":3153:3206  ListsRolledOver(currentEpoch, activeAddresses.length) */\n      mload(0x40)\n      tag_152\n      swap3\n      swap2\n      swap1\n      tag_153\n      jump\t// in\n    tag_152:\n      mload(0x40)\n      dup1\n      swap2\n      sub\n      swap1\n      log1\n        /* \"Evm/core/validators.sol\":2485:3218  {... */\n      pop\n        /* \"Evm/core/validators.sol\":2446:3218  if (currentEpoch > lastProcessedEpoch) {... */\n    tag_138:\n        /* \"Evm/core/validators.sol\":2293:3225  {... */\n      pop\n        /* \"Evm/core/validators.sol\":2244:3225  function _checkAndHandleEpochRollover() internal {... */\n      jump\t// out\n        /* \"Evm/core/validators.sol\":3358:3671  function _addActiveAddress(address _user) internal {... */\n    tag_118:\n        /* \"Evm/core/validators.sol\":3420:3431  uint256 len */\n      0x00\n        /* \"Evm/core/validators.sol\":3434:3449  activeAddresses */\n      0x02\n        /* \"Evm/core/validators.sol\":3434:3456  activeAddresses.length */\n      dup1\n      sload\n      swap1\n      pop\n        /* \"Evm/core/validators.sol\":3420:3456  uint256 len = activeAddresses.length */\n      swap1\n      pop\n        /* \"Evm/core/validators.sol\":3472:3481  uint256 i */\n      0x00\n        /* \"Evm/core/validators.sol\":3484:3485  0 */\n      0x00\n        /* \"Evm/core/validators.sol\":3472:3485  uint256 i = 0 */\n      swap1\n      pop\n        /* \"Evm/core/validators.sol\":3467:3626  for (uint256 i = 0; i < len; i++) {... */\n    tag_155:\n        /* \"Evm/core/validators.sol\":3491:3494  len */\n      dup2\n        /* \"Evm/core/validators.sol\":3487:3488  i */\n      dup2\n        /* \"Evm/core/validators.sol\":3487:3494  i < len */\n      lt\n        /* \"Evm/core/validators.sol\":3467:3626  for (uint256 i = 0; i < len; i++) {... */\n      iszero\n      tag_156\n      jumpi\n        /* \"Evm/core/validators.sol\":3542:3547  _user */\n      dup3\n        /* \"Evm/core/validators.sol\":3520:3547  activeAddresses[i] == _user */\n      0xffffffffffffffffffffffffffffffffffffffff\n      and\n        /* \"Evm/core/validators.sol\":3520:3535  activeAddresses */\n      0x02\n        /* \"Evm/core/validators.sol\":3536:3537  i */\n      dup3\n        /* \"Evm/core/validators.sol\":3520:3538  activeAddresses[i] */\n      dup2\n      sload\n      dup2\n      lt\n      tag_158\n      jumpi\n      tag_159\n      tag_104\n      jump\t// in\n    tag_159:\n    tag_158:\n      swap1\n      0x00\n      mstore\n      keccak256(0x00, 0x20)\n      add\n      0x00\n      swap1\n      sload\n      swap1\n      0x0100\n      exp\n      swap1\n      div\n      0xffffffffffffffffffffffffffffffffffffffff\n      and\n        /* \"Evm/core/validators.sol\":3520:3547  activeAddresses[i] == _user */\n      0xffffffffffffffffffffffffffffffffffffffff\n      and\n      sub\n        /* \"Evm/core/validators.sol\":3516:3615  if (activeAddresses[i] == _user) {... */\n      tag_161\n      jumpi\n        /* \"Evm/core/validators.sol\":3568:3575  return; */\n      pop\n      pop\n      jump(tag_154)\n        /* \"Evm/core/validators.sol\":3516:3615  if (activeAddresses[i] == _user) {... */\n    tag_161:\n        /* \"Evm/core/validators.sol\":3496:3499  i++ */\n      dup1\n      dup1\n      0x01\n      add\n      swap2\n      pop\n      pop\n        /* \"Evm/core/validators.sol\":3467:3626  for (uint256 i = 0; i < len; i++) {... */\n      jump(tag_155)\n    tag_156:\n      pop\n        /* \"Evm/core/validators.sol\":3636:3651  activeAddresses */\n      0x02\n        /* \"Evm/core/validators.sol\":3657:3662  _user */\n      dup3\n        /* \"Evm/core/validators.sol\":3636:3663  activeAddresses.push(_user) */\n      swap1\n      dup1\n      0x01\n      dup2\n      sload\n      add\n      dup1\n      dup3\n      sstore\n      dup1\n      swap2\n      pop\n      pop\n      0x01\n      swap1\n      sub\n      swap1\n      0x00\n      mstore\n      keccak256(0x00, 0x20)\n      add\n      0x00\n      swap1\n      swap2\n      swap1\n      swap2\n      swap1\n      swap2\n      0x0100\n      exp\n      dup2\n      sload\n      dup2\n      0xffffffffffffffffffffffffffffffffffffffff\n      mul\n      not\n      and\n      swap1\n      dup4\n      0xffffffffffffffffffffffffffffffffffffffff\n      and\n      mul\n      or\n      swap1\n      sstore\n      pop\n        /* \"Evm/core/validators.sol\":3409:3671  {... */\n      pop\n        /* \"Evm/core/validators.sol\":3358:3671  function _addActiveAddress(address _user) internal {... */\n    tag_154:\n      pop\n      jump\t// out\n        /* \"Evm/core/validators.sol\":3747:4212  function _removeActiveAddress(address _user) internal {... */\n    tag_147:\n        /* \"Evm/core/validators.sol\":3812:3823  uint256 len */\n      0x00\n        /* \"Evm/core/validators.sol\":3826:3841  activeAddresses */\n      0x02\n        /* \"Evm/core/validators.sol\":3826:3848  activeAddresses.length */\n      dup1\n      sload\n      swap1\n      pop\n        /* \"Evm/core/validators.sol\":3812:3848  uint256 len = activeAddresses.length */\n      swap1\n      pop\n        /* \"Evm/core/validators.sol\":3864:3873  uint256 i */\n      0x00\n        /* \"Evm/core/validators.sol\":3876:3877  0 */\n      0x00\n        /* \"Evm/core/validators.sol\":3864:3877  uint256 i = 0 */\n      swap1\n      pop\n        /* \"Evm/core/validators.sol\":3859:4205  for (uint256 i = 0; i < len; i++) {... */\n    tag_164:\n        /* \"Evm/core/validators.sol\":3883:3886  len */\n      dup2\n        /* \"Evm/core/validators.sol\":3879:3880  i */\n      dup2\n        /* \"Evm/core/validators.sol\":3879:3886  i < len */\n      lt\n        /* \"Evm/core/validators.sol\":3859:4205  for (uint256 i = 0; i < len; i++) {... */\n      iszero\n      tag_165\n      jumpi\n        /* \"Evm/core/validators.sol\":3934:3939  _user */\n      dup3\n        /* \"Evm/core/validators.sol\":3912:3939  activeAddresses[i] == _user */\n      0xffffffffffffffffffffffffffffffffffffffff\n      and\n        /* \"Evm/core/validators.sol\":3912:3927  activeAddresses */\n      0x02\n        /* \"Evm/core/validators.sol\":3928:3929  i */\n      dup3\n        /* \"Evm/core/validators.sol\":3912:3930  activeAddresses[i] */\n      dup2\n      sload\n      dup2\n      lt\n      tag_167\n      jumpi\n      tag_168\n      tag_104\n      jump\t// in\n    tag_168:\n    tag_167:\n      swap1\n      0x00\n      mstore\n      keccak256(0x00, 0x20)\n      add\n      0x00\n      swap1\n      sload\n      swap1\n      0x0100\n      exp\n      swap1\n      div\n      0xffffffffffffffffffffffffffffffffffffffff\n      and\n        /* \"Evm/core/validators.sol\":3912:3939  activeAddresses[i] == _user */\n      0xffffffffffffffffffffffffffffffffffffffff\n      and\n      sub\n        /* \"Evm/core/validators.sol\":3908:4194  if (activeAddresses[i] == _user) {... */\n      tag_170\n      jumpi\n        /* \"Evm/core/validators.sol\":4070:4085  activeAddresses */\n      0x02\n        /* \"Evm/core/validators.sol\":4111:4112  1 */\n      0x01\n        /* \"Evm/core/validators.sol\":4086:4101  activeAddresses */\n      0x02\n        /* \"Evm/core/validators.sol\":4086:4108  activeAddresses.length */\n      dup1\n      sload\n      swap1\n      pop\n        /* \"Evm/core/validators.sol\":4086:4112  activeAddresses.length - 1 */\n      tag_171\n      swap2\n      swap1\n      tag_172\n      jump\t// in\n    tag_171:\n        /* \"Evm/core/validators.sol\":4070:4113  activeAddresses[activeAddresses.length - 1] */\n      dup2\n      sload\n      dup2\n      lt\n      tag_173\n      jumpi\n      tag_174\n      tag_104\n      jump\t// in\n    tag_174:\n    tag_173:\n      swap1\n      0x00\n      mstore\n      keccak256(0x00, 0x20)\n      add\n      0x00\n      swap1\n      sload\n      swap1\n      0x0100\n      exp\n      swap1\n      div\n      0xffffffffffffffffffffffffffffffffffffffff\n      and\n        /* \"Evm/core/validators.sol\":4049:4064  activeAddresses */\n      0x02\n        /* \"Evm/core/validators.sol\":4065:4066  i */\n      dup3\n        /* \"Evm/core/validators.sol\":4049:4067  activeAddresses[i] */\n      dup2\n      sload\n      dup2\n      lt\n      tag_176\n      jumpi\n      tag_177\n      tag_104\n      jump\t// in\n    tag_177:\n    tag_176:\n      swap1\n      0x00\n      mstore\n      keccak256(0x00, 0x20)\n      add\n      0x00\n        /* \"Evm/core/validators.sol\":4049:4113  activeAddresses[i] = activeAddresses[activeAddresses.length - 1] */\n      0x0100\n      exp\n      dup2\n      sload\n      dup2\n      0xffffffffffffffffffffffffffffffffffffffff\n      mul\n      not\n      and\n      swap1\n      dup4\n      0xffffffffffffffffffffffffffffffffffffffff\n      and\n      mul\n      or\n      swap1\n      sstore\n      pop\n        /* \"Evm/core/validators.sol\":4132:4147  activeAddresses */\n      0x02\n        /* \"Evm/core/validators.sol\":4132:4153  activeAddresses.pop() */\n      dup1\n      sload\n      dup1\n      tag_179\n      jumpi\n      tag_180\n      tag_181\n      jump\t// in\n    tag_180:\n    tag_179:\n      0x01\n      swap1\n      sub\n      dup2\n      dup2\n      swap1\n      0x00\n      mstore\n      keccak256(0x00, 0x20)\n      add\n      exp(0x0100, 0x00)\n      dup2\n      sload\n      swap1\n      0xffffffffffffffffffffffffffffffffffffffff\n      mul\n      not\n      and\n      swap1\n      sstore\n      swap1\n      sstore\n        /* \"Evm/core/validators.sol\":4172:4179  return; */\n      pop\n      pop\n      jump(tag_163)\n        /* \"Evm/core/validators.sol\":3908:4194  if (activeAddresses[i] == _user) {... */\n    tag_170:\n        /* \"Evm/core/validators.sol\":3888:3891  i++ */\n      dup1\n      dup1\n      0x01\n      add\n      swap2\n      pop\n      pop\n        /* \"Evm/core/validators.sol\":3859:4205  for (uint256 i = 0; i < len; i++) {... */\n      jump(tag_164)\n    tag_165:\n      pop\n        /* \"Evm/core/validators.sol\":3801:4212  {... */\n      pop\n        /* \"Evm/core/validators.sol\":3747:4212  function _removeActiveAddress(address _user) internal {... */\n    tag_163:\n      pop\n      jump\t// out\n    tag_151:\n      pop\n      dup1\n      sload\n      0x00\n      dup3\n      sstore\n      swap1\n      0x00\n      mstore\n      keccak256(0x00, 0x20)\n      swap1\n      dup2\n      add\n      swap1\n      tag_184\n      swap2\n      swap1\n      tag_185\n      jump\t// in\n    tag_184:\n      pop\n      jump\t// out\n    tag_185:\n    tag_186:\n      dup1\n      dup3\n      gt\n      iszero\n      tag_187\n      jumpi\n      0x00\n      0x00\n      dup3\n      add\n      exp(0x0100, 0x00)\n      dup2\n      sload\n      swap1\n      0xffffffffffffffffffffffffffffffffffffffff\n      mul\n      not\n      and\n      swap1\n      sstore\n      0x00\n      dup3\n      add\n      exp(0x0100, 0x14)\n      dup2\n      sload\n      swap1\n      0xff\n      mul\n      not\n      and\n      swap1\n      sstore\n      pop\n      0x01\n      add\n      jump(tag_186)\n    tag_187:\n      pop\n      swap1\n      jump\t// out\n        /* \"#utility.yul\":7:121   */\n    tag_188:\n        /* \"#utility.yul\":74:80   */\n      0x00\n        /* \"#utility.yul\":108:113   */\n      dup2\n        /* \"#utility.yul\":102:114   */\n      mload\n        /* \"#utility.yul\":92:114   */\n      swap1\n      pop\n        /* \"#utility.yul\":7:121   */\n      swap2\n      swap1\n      pop\n      jump\t// out\n        /* \"#utility.yul\":127:311   */\n    tag_189:\n        /* \"#utility.yul\":226:237   */\n      0x00\n        /* \"#utility.yul\":260:266   */\n      dup3\n        /* \"#utility.yul\":255:258   */\n      dup3\n        /* \"#utility.yul\":248:267   */\n      mstore\n        /* \"#utility.yul\":300:304   */\n      0x20\n        /* \"#utility.yul\":295:298   */\n      dup3\n        /* \"#utility.yul\":291:305   */\n      add\n        /* \"#utility.yul\":276:305   */\n      swap1\n      pop\n        /* \"#utility.yul\":127:311   */\n      swap3\n      swap2\n      pop\n      pop\n      jump\t// out\n        /* \"#utility.yul\":317:449   */\n    tag_190:\n        /* \"#utility.yul\":384:388   */\n      0x00\n        /* \"#utility.yul\":407:410   */\n      dup2\n        /* \"#utility.yul\":399:410   */\n      swap1\n      pop\n        /* \"#utility.yul\":437:441   */\n      0x20\n        /* \"#utility.yul\":432:435   */\n      dup3\n        /* \"#utility.yul\":428:442   */\n      add\n        /* \"#utility.yul\":420:442   */\n      swap1\n      pop\n        /* \"#utility.yul\":317:449   */\n      swap2\n      swap1\n      pop\n      jump\t// out\n        /* \"#utility.yul\":455:581   */\n    tag_191:\n        /* \"#utility.yul\":492:499   */\n      0x00\n        /* \"#utility.yul\":532:574   */\n      0xffffffffffffffffffffffffffffffffffffffff\n        /* \"#utility.yul\":525:530   */\n      dup3\n        /* \"#utility.yul\":521:575   */\n      and\n        /* \"#utility.yul\":510:575   */\n      swap1\n      pop\n        /* \"#utility.yul\":455:581   */\n      swap2\n      swap1\n      pop\n      jump\t// out\n        /* \"#utility.yul\":587:683   */\n    tag_192:\n        /* \"#utility.yul\":624:631   */\n      0x00\n        /* \"#utility.yul\":653:677   */\n      tag_237\n        /* \"#utility.yul\":671:676   */\n      dup3\n        /* \"#utility.yul\":653:677   */\n      tag_191\n      jump\t// in\n    tag_237:\n        /* \"#utility.yul\":642:677   */\n      swap1\n      pop\n        /* \"#utility.yul\":587:683   */\n      swap2\n      swap1\n      pop\n      jump\t// out\n        /* \"#utility.yul\":689:797   */\n    tag_193:\n        /* \"#utility.yul\":766:790   */\n      tag_239\n        /* \"#utility.yul\":784:789   */\n      dup2\n        /* \"#utility.yul\":766:790   */\n      tag_192\n      jump\t// in\n    tag_239:\n        /* \"#utility.yul\":761:764   */\n      dup3\n        /* \"#utility.yul\":754:791   */\n      mstore\n        /* \"#utility.yul\":689:797   */\n      pop\n      pop\n      jump\t// out\n        /* \"#utility.yul\":803:982   */\n    tag_194:\n        /* \"#utility.yul\":872:882   */\n      0x00\n        /* \"#utility.yul\":893:939   */\n      tag_241\n        /* \"#utility.yul\":935:938   */\n      dup4\n        /* \"#utility.yul\":927:933   */\n      dup4\n        /* \"#utility.yul\":893:939   */\n      tag_193\n      jump\t// in\n    tag_241:\n        /* \"#utility.yul\":971:975   */\n      0x20\n        /* \"#utility.yul\":966:969   */\n      dup4\n        /* \"#utility.yul\":962:976   */\n      add\n        /* \"#utility.yul\":948:976   */\n      swap1\n      pop\n        /* \"#utility.yul\":803:982   */\n      swap3\n      swap2\n      pop\n      pop\n      jump\t// out\n        /* \"#utility.yul\":988:1101   */\n    tag_195:\n        /* \"#utility.yul\":1058:1062   */\n      0x00\n        /* \"#utility.yul\":1090:1094   */\n      0x20\n        /* \"#utility.yul\":1085:1088   */\n      dup3\n        /* \"#utility.yul\":1081:1095   */\n      add\n        /* \"#utility.yul\":1073:1095   */\n      swap1\n      pop\n        /* \"#utility.yul\":988:1101   */\n      swap2\n      swap1\n      pop\n      jump\t// out\n        /* \"#utility.yul\":1137:1869   */\n    tag_196:\n        /* \"#utility.yul\":1256:1259   */\n      0x00\n        /* \"#utility.yul\":1285:1339   */\n      tag_244\n        /* \"#utility.yul\":1333:1338   */\n      dup3\n        /* \"#utility.yul\":1285:1339   */\n      tag_188\n      jump\t// in\n    tag_244:\n        /* \"#utility.yul\":1355:1441   */\n      tag_245\n        /* \"#utility.yul\":1434:1440   */\n      dup2\n        /* \"#utility.yul\":1429:1432   */\n      dup6\n        /* \"#utility.yul\":1355:1441   */\n      tag_189\n      jump\t// in\n    tag_245:\n        /* \"#utility.yul\":1348:1441   */\n      swap4\n      pop\n        /* \"#utility.yul\":1465:1521   */\n      tag_246\n        /* \"#utility.yul\":1515:1520   */\n      dup4\n        /* \"#utility.yul\":1465:1521   */\n      tag_190\n      jump\t// in\n    tag_246:\n        /* \"#utility.yul\":1544:1551   */\n      dup1\n        /* \"#utility.yul\":1575:1576   */\n      0x00\n        /* \"#utility.yul\":1560:1844   */\n    tag_247:\n        /* \"#utility.yul\":1585:1591   */\n      dup4\n        /* \"#utility.yul\":1582:1583   */\n      dup2\n        /* \"#utility.yul\":1579:1592   */\n      lt\n        /* \"#utility.yul\":1560:1844   */\n      iszero\n      tag_249\n      jumpi\n        /* \"#utility.yul\":1661:1667   */\n      dup2\n        /* \"#utility.yul\":1655:1668   */\n      mload\n        /* \"#utility.yul\":1688:1751   */\n      tag_250\n        /* \"#utility.yul\":1747:1750   */\n      dup9\n        /* \"#utility.yul\":1732:1745   */\n      dup3\n        /* \"#utility.yul\":1688:1751   */\n      tag_194\n      jump\t// in\n    tag_250:\n        /* \"#utility.yul\":1681:1751   */\n      swap8\n      pop\n        /* \"#utility.yul\":1774:1834   */\n      tag_251\n        /* \"#utility.yul\":1827:1833   */\n      dup4\n        /* \"#utility.yul\":1774:1834   */\n      tag_195\n      jump\t// in\n    tag_251:\n        /* \"#utility.yul\":1764:1834   */\n      swap3\n      pop\n        /* \"#utility.yul\":1620:1844   */\n      pop\n        /* \"#utility.yul\":1607:1608   */\n      0x01\n        /* \"#utility.yul\":1604:1605   */\n      dup2\n        /* \"#utility.yul\":1600:1609   */\n      add\n        /* \"#utility.yul\":1595:1609   */\n      swap1\n      pop\n        /* \"#utility.yul\":1560:1844   */\n      jump(tag_247)\n    tag_249:\n        /* \"#utility.yul\":1564:1578   */\n      pop\n        /* \"#utility.yul\":1860:1863   */\n      dup6\n        /* \"#utility.yul\":1853:1863   */\n      swap4\n      pop\n        /* \"#utility.yul\":1261:1869   */\n      pop\n      pop\n      pop\n        /* \"#utility.yul\":1137:1869   */\n      swap3\n      swap2\n      pop\n      pop\n      jump\t// out\n        /* \"#utility.yul\":1875:2248   */\n    tag_25:\n        /* \"#utility.yul\":2018:2022   */\n      0x00\n        /* \"#utility.yul\":2056:2058   */\n      0x20\n        /* \"#utility.yul\":2045:2054   */\n      dup3\n        /* \"#utility.yul\":2041:2059   */\n      add\n        /* \"#utility.yul\":2033:2059   */\n      swap1\n      pop\n        /* \"#utility.yul\":2105:2114   */\n      dup2\n        /* \"#utility.yul\":2099:2103   */\n      dup2\n        /* \"#utility.yul\":2095:2115   */\n      sub\n        /* \"#utility.yul\":2091:2092   */\n      0x00\n        /* \"#utility.yul\":2080:2089   */\n      dup4\n        /* \"#utility.yul\":2076:2093   */\n      add\n        /* \"#utility.yul\":2069:2116   */\n      mstore\n        /* \"#utility.yul\":2133:2241   */\n      tag_253\n        /* \"#utility.yul\":2236:2240   */\n      dup2\n        /* \"#utility.yul\":2227:2233   */\n      dup5\n        /* \"#utility.yul\":2133:2241   */\n      tag_196\n      jump\t// in\n    tag_253:\n        /* \"#utility.yul\":2125:2241   */\n      swap1\n      pop\n        /* \"#utility.yul\":1875:2248   */\n      swap3\n      swap2\n      pop\n      pop\n      jump\t// out\n        /* \"#utility.yul\":2335:2452   */\n    tag_198:\n        /* \"#utility.yul\":2444:2445   */\n      0x00\n        /* \"#utility.yul\":2441:2442   */\n      0x00\n        /* \"#utility.yul\":2434:2446   */\n      revert\n        /* \"#utility.yul\":2581:2703   */\n    tag_200:\n        /* \"#utility.yul\":2654:2678   */\n      tag_258\n        /* \"#utility.yul\":2672:2677   */\n      dup2\n        /* \"#utility.yul\":2654:2678   */\n      tag_192\n      jump\t// in\n    tag_258:\n        /* \"#utility.yul\":2647:2652   */\n      dup2\n        /* \"#utility.yul\":2644:2679   */\n      eq\n        /* \"#utility.yul\":2634:2697   */\n      tag_259\n      jumpi\n        /* \"#utility.yul\":2693:2694   */\n      0x00\n        /* \"#utility.yul\":2690:2691   */\n      0x00\n        /* \"#utility.yul\":2683:2695   */\n      revert\n        /* \"#utility.yul\":2634:2697   */\n    tag_259:\n        /* \"#utility.yul\":2581:2703   */\n      pop\n      jump\t// out\n        /* \"#utility.yul\":2709:2848   */\n    tag_201:\n        /* \"#utility.yul\":2755:2760   */\n      0x00\n        /* \"#utility.yul\":2793:2799   */\n      dup2\n        /* \"#utility.yul\":2780:2800   */\n      calldataload\n        /* \"#utility.yul\":2771:2800   */\n      swap1\n      pop\n        /* \"#utility.yul\":2809:2842   */\n      tag_261\n        /* \"#utility.yul\":2836:2841   */\n      dup2\n        /* \"#utility.yul\":2809:2842   */\n      tag_200\n      jump\t// in\n    tag_261:\n        /* \"#utility.yul\":2709:2848   */\n      swap3\n      swap2\n      pop\n      pop\n      jump\t// out\n        /* \"#utility.yul\":2854:2944   */\n    tag_202:\n        /* \"#utility.yul\":2888:2895   */\n      0x00\n        /* \"#utility.yul\":2931:2936   */\n      dup2\n        /* \"#utility.yul\":2924:2937   */\n      iszero\n        /* \"#utility.yul\":2917:2938   */\n      iszero\n        /* \"#utility.yul\":2906:2938   */\n      swap1\n      pop\n        /* \"#utility.yul\":2854:2944   */\n      swap2\n      swap1\n      pop\n      jump\t// out\n        /* \"#utility.yul\":2950:3066   */\n    tag_203:\n        /* \"#utility.yul\":3020:3041   */\n      tag_264\n        /* \"#utility.yul\":3035:3040   */\n      dup2\n        /* \"#utility.yul\":3020:3041   */\n      tag_202\n      jump\t// in\n    tag_264:\n        /* \"#utility.yul\":3013:3018   */\n      dup2\n        /* \"#utility.yul\":3010:3042   */\n      eq\n        /* \"#utility.yul\":3000:3060   */\n      tag_265\n      jumpi\n        /* \"#utility.yul\":3056:3057   */\n      0x00\n        /* \"#utility.yul\":3053:3054   */\n      0x00\n        /* \"#utility.yul\":3046:3058   */\n      revert\n        /* \"#utility.yul\":3000:3060   */\n    tag_265:\n        /* \"#utility.yul\":2950:3066   */\n      pop\n      jump\t// out\n        /* \"#utility.yul\":3072:3205   */\n    tag_204:\n        /* \"#utility.yul\":3115:3120   */\n      0x00\n        /* \"#utility.yul\":3153:3159   */\n      dup2\n        /* \"#utility.yul\":3140:3160   */\n      calldataload\n        /* \"#utility.yul\":3131:3160   */\n      swap1\n      pop\n        /* \"#utility.yul\":3169:3199   */\n      tag_267\n        /* \"#utility.yul\":3193:3198   */\n      dup2\n        /* \"#utility.yul\":3169:3199   */\n      tag_203\n      jump\t// in\n    tag_267:\n        /* \"#utility.yul\":3072:3205   */\n      swap3\n      swap2\n      pop\n      pop\n      jump\t// out\n        /* \"#utility.yul\":3211:3679   */\n    tag_28:\n        /* \"#utility.yul\":3276:3282   */\n      0x00\n        /* \"#utility.yul\":3284:3290   */\n      0x00\n        /* \"#utility.yul\":3333:3335   */\n      0x40\n        /* \"#utility.yul\":3321:3330   */\n      dup4\n        /* \"#utility.yul\":3312:3319   */\n      dup6\n        /* \"#utility.yul\":3308:3331   */\n      sub\n        /* \"#utility.yul\":3304:3336   */\n      slt\n        /* \"#utility.yul\":3301:3420   */\n      iszero\n      tag_269\n      jumpi\n        /* \"#utility.yul\":3339:3418   */\n      tag_270\n      tag_198\n      jump\t// in\n    tag_270:\n        /* \"#utility.yul\":3301:3420   */\n    tag_269:\n        /* \"#utility.yul\":3459:3460   */\n      0x00\n        /* \"#utility.yul\":3484:3537   */\n      tag_271\n        /* \"#utility.yul\":3529:3536   */\n      dup6\n        /* \"#utility.yul\":3520:3526   */\n      dup3\n        /* \"#utility.yul\":3509:3518   */\n      dup7\n        /* \"#utility.yul\":3505:3527   */\n      add\n        /* \"#utility.yul\":3484:3537   */\n      tag_201\n      jump\t// in\n    tag_271:\n        /* \"#utility.yul\":3474:3537   */\n      swap3\n      pop\n        /* \"#utility.yul\":3430:3547   */\n      pop\n        /* \"#utility.yul\":3586:3588   */\n      0x20\n        /* \"#utility.yul\":3612:3662   */\n      tag_272\n        /* \"#utility.yul\":3654:3661   */\n      dup6\n        /* \"#utility.yul\":3645:3651   */\n      dup3\n        /* \"#utility.yul\":3634:3643   */\n      dup7\n        /* \"#utility.yul\":3630:3652   */\n      add\n        /* \"#utility.yul\":3612:3662   */\n      tag_204\n      jump\t// in\n    tag_272:\n        /* \"#utility.yul\":3602:3662   */\n      swap2\n      pop\n        /* \"#utility.yul\":3557:3672   */\n      pop\n        /* \"#utility.yul\":3211:3679   */\n      swap3\n      pop\n      swap3\n      swap1\n      pop\n      jump\t// out\n        /* \"#utility.yul\":3685:3828   */\n    tag_205:\n        /* \"#utility.yul\":3781:3787   */\n      0x00\n        /* \"#utility.yul\":3815:3820   */\n      dup2\n        /* \"#utility.yul\":3809:3821   */\n      mload\n        /* \"#utility.yul\":3799:3821   */\n      swap1\n      pop\n        /* \"#utility.yul\":3685:3828   */\n      swap2\n      swap1\n      pop\n      jump\t// out\n        /* \"#utility.yul\":3834:4047   */\n    tag_206:\n        /* \"#utility.yul\":3962:3973   */\n      0x00\n        /* \"#utility.yul\":3996:4002   */\n      dup3\n        /* \"#utility.yul\":3991:3994   */\n      dup3\n        /* \"#utility.yul\":3984:4003   */\n      mstore\n        /* \"#utility.yul\":4036:4040   */\n      0x20\n        /* \"#utility.yul\":4031:4034   */\n      dup3\n        /* \"#utility.yul\":4027:4041   */\n      add\n        /* \"#utility.yul\":4012:4041   */\n      swap1\n      pop\n        /* \"#utility.yul\":3834:4047   */\n      swap3\n      swap2\n      pop\n      pop\n      jump\t// out\n        /* \"#utility.yul\":4053:4214   */\n    tag_207:\n        /* \"#utility.yul\":4149:4153   */\n      0x00\n        /* \"#utility.yul\":4172:4175   */\n      dup2\n        /* \"#utility.yul\":4164:4175   */\n      swap1\n      pop\n        /* \"#utility.yul\":4202:4206   */\n      0x20\n        /* \"#utility.yul\":4197:4200   */\n      dup3\n        /* \"#utility.yul\":4193:4207   */\n      add\n        /* \"#utility.yul\":4185:4207   */\n      swap1\n      pop\n        /* \"#utility.yul\":4053:4214   */\n      swap2\n      swap1\n      pop\n      jump\t// out\n        /* \"#utility.yul\":4220:4319   */\n    tag_208:\n        /* \"#utility.yul\":4291:4312   */\n      tag_277\n        /* \"#utility.yul\":4306:4311   */\n      dup2\n        /* \"#utility.yul\":4291:4312   */\n      tag_202\n      jump\t// in\n    tag_277:\n        /* \"#utility.yul\":4286:4289   */\n      dup3\n        /* \"#utility.yul\":4279:4313   */\n      mstore\n        /* \"#utility.yul\":4220:4319   */\n      pop\n      pop\n      jump\t// out\n        /* \"#utility.yul\":4401:4910   */\n    tag_209:\n        /* \"#utility.yul\":4546:4550   */\n      0x40\n        /* \"#utility.yul\":4541:4544   */\n      dup3\n        /* \"#utility.yul\":4537:4551   */\n      add\n        /* \"#utility.yul\":4638:4642   */\n      0x00\n        /* \"#utility.yul\":4631:4636   */\n      dup3\n        /* \"#utility.yul\":4627:4643   */\n      add\n        /* \"#utility.yul\":4621:4644   */\n      mload\n        /* \"#utility.yul\":4657:4720   */\n      tag_279\n        /* \"#utility.yul\":4714:4718   */\n      0x00\n        /* \"#utility.yul\":4709:4712   */\n      dup6\n        /* \"#utility.yul\":4705:4719   */\n      add\n        /* \"#utility.yul\":4691:4703   */\n      dup3\n        /* \"#utility.yul\":4657:4720   */\n      tag_193\n      jump\t// in\n    tag_279:\n        /* \"#utility.yul\":4561:4730   */\n      pop\n        /* \"#utility.yul\":4817:4821   */\n      0x20\n        /* \"#utility.yul\":4810:4815   */\n      dup3\n        /* \"#utility.yul\":4806:4822   */\n      add\n        /* \"#utility.yul\":4800:4823   */\n      mload\n        /* \"#utility.yul\":4836:4893   */\n      tag_280\n        /* \"#utility.yul\":4887:4891   */\n      0x20\n        /* \"#utility.yul\":4882:4885   */\n      dup6\n        /* \"#utility.yul\":4878:4892   */\n      add\n        /* \"#utility.yul\":4864:4876   */\n      dup3\n        /* \"#utility.yul\":4836:4893   */\n      tag_208\n      jump\t// in\n    tag_280:\n        /* \"#utility.yul\":4740:4903   */\n      pop\n        /* \"#utility.yul\":4515:4910   */\n      pop\n        /* \"#utility.yul\":4401:4910   */\n      pop\n      pop\n      jump\t// out\n        /* \"#utility.yul\":4916:5211   */\n    tag_210:\n        /* \"#utility.yul\":5043:5053   */\n      0x00\n        /* \"#utility.yul\":5064:5168   */\n      tag_282\n        /* \"#utility.yul\":5164:5167   */\n      dup4\n        /* \"#utility.yul\":5156:5162   */\n      dup4\n        /* \"#utility.yul\":5064:5168   */\n      tag_209\n      jump\t// in\n    tag_282:\n        /* \"#utility.yul\":5200:5204   */\n      0x40\n        /* \"#utility.yul\":5195:5198   */\n      dup4\n        /* \"#utility.yul\":5191:5205   */\n      add\n        /* \"#utility.yul\":5177:5205   */\n      swap1\n      pop\n        /* \"#utility.yul\":4916:5211   */\n      swap3\n      swap2\n      pop\n      pop\n      jump\t// out\n        /* \"#utility.yul\":5217:5359   */\n    tag_211:\n        /* \"#utility.yul\":5316:5320   */\n      0x00\n        /* \"#utility.yul\":5348:5352   */\n      0x20\n        /* \"#utility.yul\":5343:5346   */\n      dup3\n        /* \"#utility.yul\":5339:5353   */\n      add\n        /* \"#utility.yul\":5331:5353   */\n      swap1\n      pop\n        /* \"#utility.yul\":5217:5359   */\n      swap2\n      swap1\n      pop\n      jump\t// out\n        /* \"#utility.yul\":5445:6409   */\n    tag_212:\n        /* \"#utility.yul\":5622:5625   */\n      0x00\n        /* \"#utility.yul\":5651:5734   */\n      tag_285\n        /* \"#utility.yul\":5728:5733   */\n      dup3\n        /* \"#utility.yul\":5651:5734   */\n      tag_205\n      jump\t// in\n    tag_285:\n        /* \"#utility.yul\":5750:5865   */\n      tag_286\n        /* \"#utility.yul\":5858:5864   */\n      dup2\n        /* \"#utility.yul\":5853:5856   */\n      dup6\n        /* \"#utility.yul\":5750:5865   */\n      tag_206\n      jump\t// in\n    tag_286:\n        /* \"#utility.yul\":5743:5865   */\n      swap4\n      pop\n        /* \"#utility.yul\":5889:5974   */\n      tag_287\n        /* \"#utility.yul\":5968:5973   */\n      dup4\n        /* \"#utility.yul\":5889:5974   */\n      tag_207\n      jump\t// in\n    tag_287:\n        /* \"#utility.yul\":5997:6004   */\n      dup1\n        /* \"#utility.yul\":6028:6029   */\n      0x00\n        /* \"#utility.yul\":6013:6384   */\n    tag_288:\n        /* \"#utility.yul\":6038:6044   */\n      dup4\n        /* \"#utility.yul\":6035:6036   */\n      dup2\n        /* \"#utility.yul\":6032:6045   */\n      lt\n        /* \"#utility.yul\":6013:6384   */\n      iszero\n      tag_290\n      jumpi\n        /* \"#utility.yul\":6114:6120   */\n      dup2\n        /* \"#utility.yul\":6108:6121   */\n      mload\n        /* \"#utility.yul\":6141:6262   */\n      tag_291\n        /* \"#utility.yul\":6258:6261   */\n      dup9\n        /* \"#utility.yul\":6243:6256   */\n      dup3\n        /* \"#utility.yul\":6141:6262   */\n      tag_210\n      jump\t// in\n    tag_291:\n        /* \"#utility.yul\":6134:6262   */\n      swap8\n      pop\n        /* \"#utility.yul\":6285:6374   */\n      tag_292\n        /* \"#utility.yul\":6367:6373   */\n      dup4\n        /* \"#utility.yul\":6285:6374   */\n      tag_211\n      jump\t// in\n    tag_292:\n        /* \"#utility.yul\":6275:6374   */\n      swap3\n      pop\n        /* \"#utility.yul\":6073:6384   */\n      pop\n        /* \"#utility.yul\":6060:6061   */\n      0x01\n        /* \"#utility.yul\":6057:6058   */\n      dup2\n        /* \"#utility.yul\":6053:6062   */\n      add\n        /* \"#utility.yul\":6048:6062   */\n      swap1\n      pop\n        /* \"#utility.yul\":6013:6384   */\n      jump(tag_288)\n    tag_290:\n        /* \"#utility.yul\":6017:6031   */\n      pop\n        /* \"#utility.yul\":6400:6403   */\n      dup6\n        /* \"#utility.yul\":6393:6403   */\n      swap4\n      pop\n        /* \"#utility.yul\":5627:6409   */\n      pop\n      pop\n      pop\n        /* \"#utility.yul\":5445:6409   */\n      swap3\n      swap2\n      pop\n      pop\n      jump\t// out\n        /* \"#utility.yul\":6415:6904   */\n    tag_36:\n        /* \"#utility.yul\":6616:6620   */\n      0x00\n        /* \"#utility.yul\":6654:6656   */\n      0x20\n        /* \"#utility.yul\":6643:6652   */\n      dup3\n        /* \"#utility.yul\":6639:6657   */\n      add\n        /* \"#utility.yul\":6631:6657   */\n      swap1\n      pop\n        /* \"#utility.yul\":6703:6712   */\n      dup2\n        /* \"#utility.yul\":6697:6701   */\n      dup2\n        /* \"#utility.yul\":6693:6713   */\n      sub\n        /* \"#utility.yul\":6689:6690   */\n      0x00\n        /* \"#utility.yul\":6678:6687   */\n      dup4\n        /* \"#utility.yul\":6674:6691   */\n      add\n        /* \"#utility.yul\":6667:6714   */\n      mstore\n        /* \"#utility.yul\":6731:6897   */\n      tag_294\n        /* \"#utility.yul\":6892:6896   */\n      dup2\n        /* \"#utility.yul\":6883:6889   */\n      dup5\n        /* \"#utility.yul\":6731:6897   */\n      tag_212\n      jump\t// in\n    tag_294:\n        /* \"#utility.yul\":6723:6897   */\n      swap1\n      pop\n        /* \"#utility.yul\":6415:6904   */\n      swap3\n      swap2\n      pop\n      pop\n      jump\t// out\n        /* \"#utility.yul\":6910:6987   */\n    tag_213:\n        /* \"#utility.yul\":6947:6954   */\n      0x00\n        /* \"#utility.yul\":6976:6981   */\n      dup2\n        /* \"#utility.yul\":6965:6981   */\n      swap1\n      pop\n        /* \"#utility.yul\":6910:6987   */\n      swap2\n      swap1\n      pop\n      jump\t// out\n        /* \"#utility.yul\":6993:7111   */\n    tag_214:\n        /* \"#utility.yul\":7080:7104   */\n      tag_297\n        /* \"#utility.yul\":7098:7103   */\n      dup2\n        /* \"#utility.yul\":7080:7104   */\n      tag_213\n      jump\t// in\n    tag_297:\n        /* \"#utility.yul\":7075:7078   */\n      dup3\n        /* \"#utility.yul\":7068:7105   */\n      mstore\n        /* \"#utility.yul\":6993:7111   */\n      pop\n      pop\n      jump\t// out\n        /* \"#utility.yul\":7117:7339   */\n    tag_40:\n        /* \"#utility.yul\":7210:7214   */\n      0x00\n        /* \"#utility.yul\":7248:7250   */\n      0x20\n        /* \"#utility.yul\":7237:7246   */\n      dup3\n        /* \"#utility.yul\":7233:7251   */\n      add\n        /* \"#utility.yul\":7225:7251   */\n      swap1\n      pop\n        /* \"#utility.yul\":7261:7332   */\n      tag_299\n        /* \"#utility.yul\":7329:7330   */\n      0x00\n        /* \"#utility.yul\":7318:7327   */\n      dup4\n        /* \"#utility.yul\":7314:7331   */\n      add\n        /* \"#utility.yul\":7305:7311   */\n      dup5\n        /* \"#utility.yul\":7261:7332   */\n      tag_214\n      jump\t// in\n    tag_299:\n        /* \"#utility.yul\":7117:7339   */\n      swap3\n      swap2\n      pop\n      pop\n      jump\t// out\n        /* \"#utility.yul\":7345:7674   */\n    tag_43:\n        /* \"#utility.yul\":7404:7410   */\n      0x00\n        /* \"#utility.yul\":7453:7455   */\n      0x20\n        /* \"#utility.yul\":7441:7450   */\n      dup3\n        /* \"#utility.yul\":7432:7439   */\n      dup5\n        /* \"#utility.yul\":7428:7451   */\n      sub\n        /* \"#utility.yul\":7424:7456   */\n      slt\n        /* \"#utility.yul\":7421:7540   */\n      iszero\n      tag_301\n      jumpi\n        /* \"#utility.yul\":7459:7538   */\n      tag_302\n      tag_198\n      jump\t// in\n    tag_302:\n        /* \"#utility.yul\":7421:7540   */\n    tag_301:\n        /* \"#utility.yul\":7579:7580   */\n      0x00\n        /* \"#utility.yul\":7604:7657   */\n      tag_303\n        /* \"#utility.yul\":7649:7656   */\n      dup5\n        /* \"#utility.yul\":7640:7646   */\n      dup3\n        /* \"#utility.yul\":7629:7638   */\n      dup6\n        /* \"#utility.yul\":7625:7647   */\n      add\n        /* \"#utility.yul\":7604:7657   */\n      tag_201\n      jump\t// in\n    tag_303:\n        /* \"#utility.yul\":7594:7657   */\n      swap2\n      pop\n        /* \"#utility.yul\":7550:7667   */\n      pop\n        /* \"#utility.yul\":7345:7674   */\n      swap3\n      swap2\n      pop\n      pop\n      jump\t// out\n        /* \"#utility.yul\":7680:7798   */\n    tag_215:\n        /* \"#utility.yul\":7767:7791   */\n      tag_305\n        /* \"#utility.yul\":7785:7790   */\n      dup2\n        /* \"#utility.yul\":7767:7791   */\n      tag_192\n      jump\t// in\n    tag_305:\n        /* \"#utility.yul\":7762:7765   */\n      dup3\n        /* \"#utility.yul\":7755:7792   */\n      mstore\n        /* \"#utility.yul\":7680:7798   */\n      pop\n      pop\n      jump\t// out\n        /* \"#utility.yul\":7804:8026   */\n    tag_48:\n        /* \"#utility.yul\":7897:7901   */\n      0x00\n        /* \"#utility.yul\":7935:7937   */\n      0x20\n        /* \"#utility.yul\":7924:7933   */\n      dup3\n        /* \"#utility.yul\":7920:7938   */\n      add\n        /* \"#utility.yul\":7912:7938   */\n      swap1\n      pop\n        /* \"#utility.yul\":7948:8019   */\n      tag_307\n        /* \"#utility.yul\":8016:8017   */\n      0x00\n        /* \"#utility.yul\":8005:8014   */\n      dup4\n        /* \"#utility.yul\":8001:8018   */\n      add\n        /* \"#utility.yul\":7992:7998   */\n      dup5\n        /* \"#utility.yul\":7948:8019   */\n      tag_215\n      jump\t// in\n    tag_307:\n        /* \"#utility.yul\":7804:8026   */\n      swap3\n      swap2\n      pop\n      pop\n      jump\t// out\n        /* \"#utility.yul\":8032:8154   */\n    tag_216:\n        /* \"#utility.yul\":8105:8129   */\n      tag_309\n        /* \"#utility.yul\":8123:8128   */\n      dup2\n        /* \"#utility.yul\":8105:8129   */\n      tag_213\n      jump\t// in\n    tag_309:\n        /* \"#utility.yul\":8098:8103   */\n      dup2\n        /* \"#utility.yul\":8095:8130   */\n      eq\n        /* \"#utility.yul\":8085:8148   */\n      tag_310\n      jumpi\n        /* \"#utility.yul\":8144:8145   */\n      0x00\n        /* \"#utility.yul\":8141:8142   */\n      0x00\n        /* \"#utility.yul\":8134:8146   */\n      revert\n        /* \"#utility.yul\":8085:8148   */\n    tag_310:\n        /* \"#utility.yul\":8032:8154   */\n      pop\n      jump\t// out\n        /* \"#utility.yul\":8160:8299   */\n    tag_217:\n        /* \"#utility.yul\":8206:8211   */\n      0x00\n        /* \"#utility.yul\":8244:8250   */\n      dup2\n        /* \"#utility.yul\":8231:8251   */\n      calldataload\n        /* \"#utility.yul\":8222:8251   */\n      swap1\n      pop\n        /* \"#utility.yul\":8260:8293   */\n      tag_312\n        /* \"#utility.yul\":8287:8292   */\n      dup2\n        /* \"#utility.yul\":8260:8293   */\n      tag_216\n      jump\t// in\n    tag_312:\n        /* \"#utility.yul\":8160:8299   */\n      swap3\n      swap2\n      pop\n      pop\n      jump\t// out\n        /* \"#utility.yul\":8305:8634   */\n    tag_51:\n        /* \"#utility.yul\":8364:8370   */\n      0x00\n        /* \"#utility.yul\":8413:8415   */\n      0x20\n        /* \"#utility.yul\":8401:8410   */\n      dup3\n        /* \"#utility.yul\":8392:8399   */\n      dup5\n        /* \"#utility.yul\":8388:8411   */\n      sub\n        /* \"#utility.yul\":8384:8416   */\n      slt\n        /* \"#utility.yul\":8381:8500   */\n      iszero\n      tag_314\n      jumpi\n        /* \"#utility.yul\":8419:8498   */\n      tag_315\n      tag_198\n      jump\t// in\n    tag_315:\n        /* \"#utility.yul\":8381:8500   */\n    tag_314:\n        /* \"#utility.yul\":8539:8540   */\n      0x00\n        /* \"#utility.yul\":8564:8617   */\n      tag_316\n        /* \"#utility.yul\":8609:8616   */\n      dup5\n        /* \"#utility.yul\":8600:8606   */\n      dup3\n        /* \"#utility.yul\":8589:8598   */\n      dup6\n        /* \"#utility.yul\":8585:8607   */\n      add\n        /* \"#utility.yul\":8564:8617   */\n      tag_217\n      jump\t// in\n    tag_316:\n        /* \"#utility.yul\":8554:8617   */\n      swap2\n      pop\n        /* \"#utility.yul\":8510:8627   */\n      pop\n        /* \"#utility.yul\":8305:8634   */\n      swap3\n      swap2\n      pop\n      pop\n      jump\t// out\n        /* \"#utility.yul\":8640:8749   */\n    tag_218:\n        /* \"#utility.yul\":8721:8742   */\n      tag_318\n        /* \"#utility.yul\":8736:8741   */\n      dup2\n        /* \"#utility.yul\":8721:8742   */\n      tag_202\n      jump\t// in\n    tag_318:\n        /* \"#utility.yul\":8716:8719   */\n      dup3\n        /* \"#utility.yul\":8709:8743   */\n      mstore\n        /* \"#utility.yul\":8640:8749   */\n      pop\n      pop\n      jump\t// out\n        /* \"#utility.yul\":8755:9075   */\n    tag_54:\n        /* \"#utility.yul\":8870:8874   */\n      0x00\n        /* \"#utility.yul\":8908:8910   */\n      0x40\n        /* \"#utility.yul\":8897:8906   */\n      dup3\n        /* \"#utility.yul\":8893:8911   */\n      add\n        /* \"#utility.yul\":8885:8911   */\n      swap1\n      pop\n        /* \"#utility.yul\":8921:8992   */\n      tag_320\n        /* \"#utility.yul\":8989:8990   */\n      0x00\n        /* \"#utility.yul\":8978:8987   */\n      dup4\n        /* \"#utility.yul\":8974:8991   */\n      add\n        /* \"#utility.yul\":8965:8971   */\n      dup6\n        /* \"#utility.yul\":8921:8992   */\n      tag_215\n      jump\t// in\n    tag_320:\n        /* \"#utility.yul\":9002:9068   */\n      tag_321\n        /* \"#utility.yul\":9064:9066   */\n      0x20\n        /* \"#utility.yul\":9053:9062   */\n      dup4\n        /* \"#utility.yul\":9049:9067   */\n      add\n        /* \"#utility.yul\":9040:9046   */\n      dup5\n        /* \"#utility.yul\":9002:9068   */\n      tag_218\n      jump\t// in\n    tag_321:\n        /* \"#utility.yul\":8755:9075   */\n      swap4\n      swap3\n      pop\n      pop\n      pop\n      jump\t// out\n        /* \"#utility.yul\":9081:9141   */\n    tag_219:\n        /* \"#utility.yul\":9109:9112   */\n      0x00\n        /* \"#utility.yul\":9130:9135   */\n      dup2\n        /* \"#utility.yul\":9123:9135   */\n      swap1\n      pop\n        /* \"#utility.yul\":9081:9141   */\n      swap2\n      swap1\n      pop\n      jump\t// out\n        /* \"#utility.yul\":9147:9289   */\n    tag_220:\n        /* \"#utility.yul\":9197:9206   */\n      0x00\n        /* \"#utility.yul\":9230:9283   */\n      tag_324\n        /* \"#utility.yul\":9248:9282   */\n      tag_325\n        /* \"#utility.yul\":9257:9281   */\n      tag_326\n        /* \"#utility.yul\":9275:9280   */\n      dup5\n        /* \"#utility.yul\":9257:9281   */\n      tag_191\n      jump\t// in\n    tag_326:\n        /* \"#utility.yul\":9248:9282   */\n      tag_219\n      jump\t// in\n    tag_325:\n        /* \"#utility.yul\":9230:9283   */\n      tag_191\n      jump\t// in\n    tag_324:\n        /* \"#utility.yul\":9217:9283   */\n      swap1\n      pop\n        /* \"#utility.yul\":9147:9289   */\n      swap2\n      swap1\n      pop\n      jump\t// out\n        /* \"#utility.yul\":9295:9421   */\n    tag_221:\n        /* \"#utility.yul\":9345:9354   */\n      0x00\n        /* \"#utility.yul\":9378:9415   */\n      tag_328\n        /* \"#utility.yul\":9409:9414   */\n      dup3\n        /* \"#utility.yul\":9378:9415   */\n      tag_220\n      jump\t// in\n    tag_328:\n        /* \"#utility.yul\":9365:9415   */\n      swap1\n      pop\n        /* \"#utility.yul\":9295:9421   */\n      swap2\n      swap1\n      pop\n      jump\t// out\n        /* \"#utility.yul\":9427:9572   */\n    tag_222:\n        /* \"#utility.yul\":9496:9505   */\n      0x00\n        /* \"#utility.yul\":9529:9566   */\n      tag_330\n        /* \"#utility.yul\":9560:9565   */\n      dup3\n        /* \"#utility.yul\":9529:9566   */\n      tag_221\n      jump\t// in\n    tag_330:\n        /* \"#utility.yul\":9516:9566   */\n      swap1\n      pop\n        /* \"#utility.yul\":9427:9572   */\n      swap2\n      swap1\n      pop\n      jump\t// out\n        /* \"#utility.yul\":9578:9747   */\n    tag_223:\n        /* \"#utility.yul\":9684:9740   */\n      tag_332\n        /* \"#utility.yul\":9734:9739   */\n      dup2\n        /* \"#utility.yul\":9684:9740   */\n      tag_222\n      jump\t// in\n    tag_332:\n        /* \"#utility.yul\":9679:9682   */\n      dup3\n        /* \"#utility.yul\":9672:9741   */\n      mstore\n        /* \"#utility.yul\":9578:9747   */\n      pop\n      pop\n      jump\t// out\n        /* \"#utility.yul\":9753:10013   */\n    tag_77:\n        /* \"#utility.yul\":9865:9869   */\n      0x00\n        /* \"#utility.yul\":9903:9905   */\n      0x20\n        /* \"#utility.yul\":9892:9901   */\n      dup3\n        /* \"#utility.yul\":9888:9906   */\n      add\n        /* \"#utility.yul\":9880:9906   */\n      swap1\n      pop\n        /* \"#utility.yul\":9916:10006   */\n      tag_334\n        /* \"#utility.yul\":10003:10004   */\n      0x00\n        /* \"#utility.yul\":9992:10001   */\n      dup4\n        /* \"#utility.yul\":9988:10005   */\n      add\n        /* \"#utility.yul\":9979:9985   */\n      dup5\n        /* \"#utility.yul\":9916:10006   */\n      tag_223\n      jump\t// in\n    tag_334:\n        /* \"#utility.yul\":9753:10013   */\n      swap3\n      swap2\n      pop\n      pop\n      jump\t// out\n        /* \"#utility.yul\":10019:10188   */\n    tag_224:\n        /* \"#utility.yul\":10103:10114   */\n      0x00\n        /* \"#utility.yul\":10137:10143   */\n      dup3\n        /* \"#utility.yul\":10132:10135   */\n      dup3\n        /* \"#utility.yul\":10125:10144   */\n      mstore\n        /* \"#utility.yul\":10177:10181   */\n      0x20\n        /* \"#utility.yul\":10172:10175   */\n      dup3\n        /* \"#utility.yul\":10168:10182   */\n      add\n        /* \"#utility.yul\":10153:10182   */\n      swap1\n      pop\n        /* \"#utility.yul\":10019:10188   */\n      swap3\n      swap2\n      pop\n      pop\n      jump\t// out\n        /* \"#utility.yul\":10194:10358   */\n    tag_225:\n        /* \"#utility.yul\":10334:10350   */\n      0x4e6f7420617574686f72697a6564000000000000000000000000000000000000\n        /* \"#utility.yul\":10330:10331   */\n      0x00\n        /* \"#utility.yul\":10322:10328   */\n      dup3\n        /* \"#utility.yul\":10318:10332   */\n      add\n        /* \"#utility.yul\":10311:10351   */\n      mstore\n        /* \"#utility.yul\":10194:10358   */\n      pop\n      jump\t// out\n        /* \"#utility.yul\":10364:10730   */\n    tag_226:\n        /* \"#utility.yul\":10506:10509   */\n      0x00\n        /* \"#utility.yul\":10527:10594   */\n      tag_338\n        /* \"#utility.yul\":10591:10593   */\n      0x0e\n        /* \"#utility.yul\":10586:10589   */\n      dup4\n        /* \"#utility.yul\":10527:10594   */\n      tag_224\n      jump\t// in\n    tag_338:\n        /* \"#utility.yul\":10520:10594   */\n      swap2\n      pop\n        /* \"#utility.yul\":10603:10696   */\n      tag_339\n        /* \"#utility.yul\":10692:10695   */\n      dup3\n        /* \"#utility.yul\":10603:10696   */\n      tag_225\n      jump\t// in\n    tag_339:\n        /* \"#utility.yul\":10721:10723   */\n      0x20\n        /* \"#utility.yul\":10716:10719   */\n      dup3\n        /* \"#utility.yul\":10712:10724   */\n      add\n        /* \"#utility.yul\":10705:10724   */\n      swap1\n      pop\n        /* \"#utility.yul\":10364:10730   */\n      swap2\n      swap1\n      pop\n      jump\t// out\n        /* \"#utility.yul\":10736:11155   */\n    tag_87:\n        /* \"#utility.yul\":10902:10906   */\n      0x00\n        /* \"#utility.yul\":10940:10942   */\n      0x20\n        /* \"#utility.yul\":10929:10938   */\n      dup3\n        /* \"#utility.yul\":10925:10943   */\n      add\n        /* \"#utility.yul\":10917:10943   */\n      swap1\n      pop\n        /* \"#utility.yul\":10989:10998   */\n      dup2\n        /* \"#utility.yul\":10983:10987   */\n      dup2\n        /* \"#utility.yul\":10979:10999   */\n      sub\n        /* \"#utility.yul\":10975:10976   */\n      0x00\n        /* \"#utility.yul\":10964:10973   */\n      dup4\n        /* \"#utility.yul\":10960:10977   */\n      add\n        /* \"#utility.yul\":10953:11000   */\n      mstore\n        /* \"#utility.yul\":11017:11148   */\n      tag_341\n        /* \"#utility.yul\":11143:11147   */\n      dup2\n        /* \"#utility.yul\":11017:11148   */\n      tag_226\n      jump\t// in\n    tag_341:\n        /* \"#utility.yul\":11009:11148   */\n      swap1\n      pop\n        /* \"#utility.yul\":10736:11155   */\n      swap2\n      swap1\n      pop\n      jump\t// out\n        /* \"#utility.yul\":11161:11481   */\n    tag_93:\n        /* \"#utility.yul\":11276:11280   */\n      0x00\n        /* \"#utility.yul\":11314:11316   */\n      0x40\n        /* \"#utility.yul\":11303:11312   */\n      dup3\n        /* \"#utility.yul\":11299:11317   */\n      add\n        /* \"#utility.yul\":11291:11317   */\n      swap1\n      pop\n        /* \"#utility.yul\":11327:11392   */\n      tag_343\n        /* \"#utility.yul\":11389:11390   */\n      0x00\n        /* \"#utility.yul\":11378:11387   */\n      dup4\n        /* \"#utility.yul\":11374:11391   */\n      add\n        /* \"#utility.yul\":11365:11371   */\n      dup6\n        /* \"#utility.yul\":11327:11392   */\n      tag_218\n      jump\t// in\n    tag_343:\n        /* \"#utility.yul\":11402:11474   */\n      tag_344\n        /* \"#utility.yul\":11470:11472   */\n      0x20\n        /* \"#utility.yul\":11459:11468   */\n      dup4\n        /* \"#utility.yul\":11455:11473   */\n      add\n        /* \"#utility.yul\":11446:11452   */\n      dup5\n        /* \"#utility.yul\":11402:11474   */\n      tag_214\n      jump\t// in\n    tag_344:\n        /* \"#utility.yul\":11161:11481   */\n      swap4\n      swap3\n      pop\n      pop\n      pop\n      jump\t// out\n        /* \"#utility.yul\":11487:11667   */\n    tag_97:\n        /* \"#utility.yul\":11535:11612   */\n      0x4e487b7100000000000000000000000000000000000000000000000000000000\n        /* \"#utility.yul\":11532:11533   */\n      0x00\n        /* \"#utility.yul\":11525:11613   */\n      mstore\n        /* \"#utility.yul\":11632:11636   */\n      0x41\n        /* \"#utility.yul\":11629:11630   */\n      0x04\n        /* \"#utility.yul\":11622:11637   */\n      mstore\n        /* \"#utility.yul\":11656:11660   */\n      0x24\n        /* \"#utility.yul\":11653:11654   */\n      0x00\n        /* \"#utility.yul\":11646:11661   */\n      revert\n        /* \"#utility.yul\":11673:11853   */\n    tag_104:\n        /* \"#utility.yul\":11721:11798   */\n      0x4e487b7100000000000000000000000000000000000000000000000000000000\n        /* \"#utility.yul\":11718:11719   */\n      0x00\n        /* \"#utility.yul\":11711:11799   */\n      mstore\n        /* \"#utility.yul\":11818:11822   */\n      0x32\n        /* \"#utility.yul\":11815:11816   */\n      0x04\n        /* \"#utility.yul\":11808:11823   */\n      mstore\n        /* \"#utility.yul\":11842:11846   */\n      0x24\n        /* \"#utility.yul\":11839:11840   */\n      0x00\n        /* \"#utility.yul\":11832:11847   */\n      revert\n        /* \"#utility.yul\":11859:12019   */\n    tag_227:\n        /* \"#utility.yul\":11999:12011   */\n      0x4f6e6c79206f776e657200000000000000000000000000000000000000000000\n        /* \"#utility.yul\":11995:11996   */\n      0x00\n        /* \"#utility.yul\":11987:11993   */\n      dup3\n        /* \"#utility.yul\":11983:11997   */\n      add\n        /* \"#utility.yul\":11976:12012   */\n      mstore\n        /* \"#utility.yul\":11859:12019   */\n      pop\n      jump\t// out\n        /* \"#utility.yul\":12025:12391   */\n    tag_228:\n        /* \"#utility.yul\":12167:12170   */\n      0x00\n        /* \"#utility.yul\":12188:12255   */\n      tag_349\n        /* \"#utility.yul\":12252:12254   */\n      0x0a\n        /* \"#utility.yul\":12247:12250   */\n      dup4\n        /* \"#utility.yul\":12188:12255   */\n      tag_224\n      jump\t// in\n    tag_349:\n        /* \"#utility.yul\":12181:12255   */\n      swap2\n      pop\n        /* \"#utility.yul\":12264:12357   */\n      tag_350\n        /* \"#utility.yul\":12353:12356   */\n      dup3\n        /* \"#utility.yul\":12264:12357   */\n      tag_227\n      jump\t// in\n    tag_350:\n        /* \"#utility.yul\":12382:12384   */\n      0x20\n        /* \"#utility.yul\":12377:12380   */\n      dup3\n        /* \"#utility.yul\":12373:12385   */\n      add\n        /* \"#utility.yul\":12366:12385   */\n      swap1\n      pop\n        /* \"#utility.yul\":12025:12391   */\n      swap2\n      swap1\n      pop\n      jump\t// out\n        /* \"#utility.yul\":12397:12816   */\n    tag_115:\n        /* \"#utility.yul\":12563:12567   */\n      0x00\n        /* \"#utility.yul\":12601:12603   */\n      0x20\n        /* \"#utility.yul\":12590:12599   */\n      dup3\n        /* \"#utility.yul\":12586:12604   */\n      add\n        /* \"#utility.yul\":12578:12604   */\n      swap1\n      pop\n        /* \"#utility.yul\":12650:12659   */\n      dup2\n        /* \"#utility.yul\":12644:12648   */\n      dup2\n        /* \"#utility.yul\":12640:12660   */\n      sub\n        /* \"#utility.yul\":12636:12637   */\n      0x00\n        /* \"#utility.yul\":12625:12634   */\n      dup4\n        /* \"#utility.yul\":12621:12638   */\n      add\n        /* \"#utility.yul\":12614:12661   */\n      mstore\n        /* \"#utility.yul\":12678:12809   */\n      tag_352\n        /* \"#utility.yul\":12804:12808   */\n      dup2\n        /* \"#utility.yul\":12678:12809   */\n      tag_228\n      jump\t// in\n    tag_352:\n        /* \"#utility.yul\":12670:12809   */\n      swap1\n      pop\n        /* \"#utility.yul\":12397:12816   */\n      swap2\n      swap1\n      pop\n      jump\t// out\n        /* \"#utility.yul\":12822:12965   */\n    tag_229:\n        /* \"#utility.yul\":12879:12884   */\n      0x00\n        /* \"#utility.yul\":12910:12916   */\n      dup2\n        /* \"#utility.yul\":12904:12917   */\n      mload\n        /* \"#utility.yul\":12895:12917   */\n      swap1\n      pop\n        /* \"#utility.yul\":12926:12959   */\n      tag_354\n        /* \"#utility.yul\":12953:12958   */\n      dup2\n        /* \"#utility.yul\":12926:12959   */\n      tag_216\n      jump\t// in\n    tag_354:\n        /* \"#utility.yul\":12822:12965   */\n      swap3\n      swap2\n      pop\n      pop\n      jump\t// out\n        /* \"#utility.yul\":12971:13322   */\n    tag_133:\n        /* \"#utility.yul\":13041:13047   */\n      0x00\n        /* \"#utility.yul\":13090:13092   */\n      0x20\n        /* \"#utility.yul\":13078:13087   */\n      dup3\n        /* \"#utility.yul\":13069:13076   */\n      dup5\n        /* \"#utility.yul\":13065:13088   */\n      sub\n        /* \"#utility.yul\":13061:13093   */\n      slt\n        /* \"#utility.yul\":13058:13177   */\n      iszero\n      tag_356\n      jumpi\n        /* \"#utility.yul\":13096:13175   */\n      tag_357\n      tag_198\n      jump\t// in\n    tag_357:\n        /* \"#utility.yul\":13058:13177   */\n    tag_356:\n        /* \"#utility.yul\":13216:13217   */\n      0x00\n        /* \"#utility.yul\":13241:13305   */\n      tag_358\n        /* \"#utility.yul\":13297:13304   */\n      dup5\n        /* \"#utility.yul\":13288:13294   */\n      dup3\n        /* \"#utility.yul\":13277:13286   */\n      dup6\n        /* \"#utility.yul\":13273:13295   */\n      add\n        /* \"#utility.yul\":13241:13305   */\n      tag_229\n      jump\t// in\n    tag_358:\n        /* \"#utility.yul\":13231:13305   */\n      swap2\n      pop\n        /* \"#utility.yul\":13187:13315   */\n      pop\n        /* \"#utility.yul\":12971:13322   */\n      swap3\n      swap2\n      pop\n      pop\n      jump\t// out\n        /* \"#utility.yul\":13328:13660   */\n    tag_153:\n        /* \"#utility.yul\":13449:13453   */\n      0x00\n        /* \"#utility.yul\":13487:13489   */\n      0x40\n        /* \"#utility.yul\":13476:13485   */\n      dup3\n        /* \"#utility.yul\":13472:13490   */\n      add\n        /* \"#utility.yul\":13464:13490   */\n      swap1\n      pop\n        /* \"#utility.yul\":13500:13571   */\n      tag_360\n        /* \"#utility.yul\":13568:13569   */\n      0x00\n        /* \"#utility.yul\":13557:13566   */\n      dup4\n        /* \"#utility.yul\":13553:13570   */\n      add\n        /* \"#utility.yul\":13544:13550   */\n      dup6\n        /* \"#utility.yul\":13500:13571   */\n      tag_214\n      jump\t// in\n    tag_360:\n        /* \"#utility.yul\":13581:13653   */\n      tag_361\n        /* \"#utility.yul\":13649:13651   */\n      0x20\n        /* \"#utility.yul\":13638:13647   */\n      dup4\n        /* \"#utility.yul\":13634:13652   */\n      add\n        /* \"#utility.yul\":13625:13631   */\n      dup5\n        /* \"#utility.yul\":13581:13653   */\n      tag_214\n      jump\t// in\n    tag_361:\n        /* \"#utility.yul\":13328:13660   */\n      swap4\n      swap3\n      pop\n      pop\n      pop\n      jump\t// out\n        /* \"#utility.yul\":13666:13846   */\n    tag_230:\n        /* \"#utility.yul\":13714:13791   */\n      0x4e487b7100000000000000000000000000000000000000000000000000000000\n        /* \"#utility.yul\":13711:13712   */\n      0x00\n        /* \"#utility.yul\":13704:13792   */\n      mstore\n        /* \"#utility.yul\":13811:13815   */\n      0x11\n        /* \"#utility.yul\":13808:13809   */\n      0x04\n        /* \"#utility.yul\":13801:13816   */\n      mstore\n        /* \"#utility.yul\":13835:13839   */\n      0x24\n        /* \"#utility.yul\":13832:13833   */\n      0x00\n        /* \"#utility.yul\":13825:13840   */\n      revert\n        /* \"#utility.yul\":13852:14046   */\n    tag_172:\n        /* \"#utility.yul\":13892:13896   */\n      0x00\n        /* \"#utility.yul\":13912:13932   */\n      tag_364\n        /* \"#utility.yul\":13930:13931   */\n      dup3\n        /* \"#utility.yul\":13912:13932   */\n      tag_213\n      jump\t// in\n    tag_364:\n        /* \"#utility.yul\":13907:13932   */\n      swap2\n      pop\n        /* \"#utility.yul\":13946:13966   */\n      tag_365\n        /* \"#utility.yul\":13964:13965   */\n      dup4\n        /* \"#utility.yul\":13946:13966   */\n      tag_213\n      jump\t// in\n    tag_365:\n        /* \"#utility.yul\":13941:13966   */\n      swap3\n      pop\n        /* \"#utility.yul\":13990:13991   */\n      dup3\n        /* \"#utility.yul\":13987:13988   */\n      dup3\n        /* \"#utility.yul\":13983:13992   */\n      sub\n        /* \"#utility.yul\":13975:13992   */\n      swap1\n      pop\n        /* \"#utility.yul\":14014:14015   */\n      dup2\n        /* \"#utility.yul\":14008:14012   */\n      dup2\n        /* \"#utility.yul\":14005:14016   */\n      gt\n        /* \"#utility.yul\":14002:14039   */\n      iszero\n      tag_366\n      jumpi\n        /* \"#utility.yul\":14019:14037   */\n      tag_367\n      tag_230\n      jump\t// in\n    tag_367:\n        /* \"#utility.yul\":14002:14039   */\n    tag_366:\n        /* \"#utility.yul\":13852:14046   */\n      swap3\n      swap2\n      pop\n      pop\n      jump\t// out\n        /* \"#utility.yul\":14052:14232   */\n    tag_181:\n        /* \"#utility.yul\":14100:14177   */\n      0x4e487b7100000000000000000000000000000000000000000000000000000000\n        /* \"#utility.yul\":14097:14098   */\n      0x00\n        /* \"#utility.yul\":14090:14178   */\n      mstore\n        /* \"#utility.yul\":14197:14201   */\n      0x31\n        /* \"#utility.yul\":14194:14195   */\n      0x04\n        /* \"#utility.yul\":14187:14202   */\n      mstore\n        /* \"#utility.yul\":14221:14225   */\n      0x24\n        /* \"#utility.yul\":14218:14219   */\n      0x00\n        /* \"#utility.yul\":14211:14226   */\n      revert\n\n    auxdata: 0xa26469706673582212206efbe7efe4d77ce5ecc9184fab67479521ce3704ca3b5c57c95f8ace1d03b84364736f6c634300081f0033\n}\n",
				"bytecode": {
					"linkReferences": {},
					"object": "6080604052348015600e575f5ffd5b503360075f6101000a81548173ffffffffffffffffffffffffffffffffffffffff021916908373ffffffffffffffffffffffffffffffffffffffff1602179055506116e58061005c5f395ff3fe608060405234801561000f575f5ffd5b50600436106100fe575f3560e01c80639aad69e711610095578063d4d59edb11610064578063d4d59edb14610289578063e21eb523146102a5578063e2d2bfe3146102c3578063ee6713df146102e1576100fe565b80639aad69e714610201578063a6591cdf1461021d578063abb2efdf1461023b578063c16d442314610259576100fe565b8063750588cf116100d1578063750588cf14610178578063785b4747146101965780638da5cb5b146101b25780638f06499f146101d0576100fe565b80631442e4c91461010257806322ca098f146101205780634967e4281461013c5780635ed7e0ee1461015a575b5f5ffd5b61010a6102ff565b6040516101179190611113565b60405180910390f35b61013a60048036038101906101359190611196565b61038a565b005b61014461052d565b6040516101519190611113565b60405180910390f35b610162610632565b60405161016f91906112b8565b60405180910390f35b6101806106f8565b60405161018d91906112f0565b60405180910390f35b6101b060048036038101906101ab9190611309565b6106fe565b005b6101ba610799565b6040516101c79190611343565b60405180910390f35b6101ea60048036038101906101e59190611386565b6107be565b6040516101f89291906113c0565b60405180910390f35b61021b60048036038101906102169190611309565b610814565b005b610225610929565b6040516102329190611343565b60405180910390f35b61024361094e565b60405161025091906112f0565b60405180910390f35b610273600480360381019061026e9190611386565b610953565b6040516102809190611343565b60405180910390f35b6102a3600480360381019061029e9190611309565b61098e565b005b6102ad610aa3565b6040516102ba91906112f0565b60405180910390f35b6102cb610b37565b6040516102d89190611442565b60405180910390f35b6102e9610b5c565b6040516102f691906112f0565b60405180910390f35b6060600280548060200260200160405190810160405280929190818152602001828054801561038057602002820191905f5260205f20905b815f9054906101000a900473ffffffffffffffffffffffffffffffffffffffff1673ffffffffffffffffffffffffffffffffffffffff1681526020019060010190808311610337575b5050505050905090565b60065f9054906101000a900473ffffffffffffffffffffffffffffffffffffffff1673ffffffffffffffffffffffffffffffffffffffff163373ffffffffffffffffffffffffffffffffffffffff1614610419576040517f08c379a0000000000000000000000000000000000000000000000000000000008152600401610410906114b5565b60405180910390fd5b610421610b62565b600360405180604001604052808473ffffffffffffffffffffffffffffffffffffffff168152602001831515815250908060018154018082558091505060019003905f5260205f20015f909190919091505f820151815f015f6101000a81548173ffffffffffffffffffffffffffffffffffffffff021916908373ffffffffffffffffffffffffffffffffffffffff1602179055506020820151815f0160146101000a81548160ff02191690831515021790555050508173ffffffffffffffffffffffffffffffffffffffff167f9deb677eb61bae9fe895f4c30c0fa23b9b37a1a6afec0a6590f2783861f6bc6e826005546040516105219291906114d3565b60405180910390a25050565b60605f60038054905090505f8167ffffffffffffffff811115610553576105526114fa565b5b6040519080825280602002602001820160405280156105815781602001602082028036833780820191505090505b5090505f5f90505b8281101561062957600381815481106105a5576105a4611527565b5b905f5260205f20015f015f9054906101000a900473ffffffffffffffffffffffffffffffffffffffff168282815181106105e2576105e1611527565b5b602002602001019073ffffffffffffffffffffffffffffffffffffffff16908173ffffffffffffffffffffffffffffffffffffffff16815250508080600101915050610589565b50809250505090565b60606003805480602002602001604051908101604052809291908181526020015f905b828210156106ef578382905f5260205f20016040518060400160405290815f82015f9054906101000a900473ffffffffffffffffffffffffffffffffffffffff1673ffffffffffffffffffffffffffffffffffffffff1673ffffffffffffffffffffffffffffffffffffffff1681526020015f820160149054906101000a900460ff16151515158152505081526020019060010190610655565b50505050905090565b60015481565b60075f9054906101000a900473ffffffffffffffffffffffffffffffffffffffff1673ffffffffffffffffffffffffffffffffffffffff163373ffffffffffffffffffffffffffffffffffffffff161461078d576040517f08c379a00000000000000000000000000000000000000000000000000000000081526004016107849061159e565b60405180910390fd5b61079681610d39565b50565b60075f9054906101000a900473ffffffffffffffffffffffffffffffffffffffff1681565b600381815481106107cd575f80fd5b905f5260205f20015f91509050805f015f9054906101000a900473ffffffffffffffffffffffffffffffffffffffff1690805f0160149054906101000a900460ff16905082565b60075f9054906101000a900473ffffffffffffffffffffffffffffffffffffffff1673ffffffffffffffffffffffffffffffffffffffff163373ffffffffffffffffffffffffffffffffffffffff16146108a3576040517f08c379a000000000000000000000000000000000000000000000000000000000815260040161089a9061159e565b60405180910390fd5b8060065f6101000a81548173ffffffffffffffffffffffffffffffffffffffff021916908373ffffffffffffffffffffffffffffffffffffffff1602179055508073ffffffffffffffffffffffffffffffffffffffff167f2e8b6f15ca325edad1931b418450cd194daf93e7f40fe4a48d9b1b4bf2a8f06960405160405180910390a250565b60065f9054906101000a900473ffffffffffffffffffffffffffffffffffffffff1681565b5f5481565b60028181548110610962575f80fd5b905f5260205f20015f915054906101000a900473ffffffffffffffffffffffffffffffffffffffff1681565b60075f9054906101000a900473ffffffffffffffffffffffffffffffffffffffff1673ffffffffffffffffffffffffffffffffffffffff163373ffffffffffffffffffffffffffffffffffffffff1614610a1d576040517f08c379a0000000000000000000000000000000000000000000000000000000008152600401610a149061159e565b60405180910390fd5b8060045f6101000a81548173ffffffffffffffffffffffffffffffffffffffff021916908373ffffffffffffffffffffffffffffffffffffffff1602179055508073ffffffffffffffffffffffffffffffffffffffff167f4b9d66d8e64dff6d9d2728f9a38da9739d3cfdbe676fde05564aae22f850846560405160405180910390a250565b5f60045f9054906101000a900473ffffffffffffffffffffffffffffffffffffffff1673ffffffffffffffffffffffffffffffffffffffff1663b97dd9e26040518163ffffffff1660e01b8152600401602060405180830381865afa158015610b0e573d5f5f3e3d5ffd5b505050506040513d601f19601f82011682018060405250810190610b3291906115d0565b905090565b60045f9054906101000a900473ffffffffffffffffffffffffffffffffffffffff1681565b60055481565b5f60045f9054906101000a900473ffffffffffffffffffffffffffffffffffffffff1673ffffffffffffffffffffffffffffffffffffffff1663b97dd9e26040518163ffffffff1660e01b8152600401602060405180830381865afa158015610bcd573d5f5f3e3d5ffd5b505050506040513d601f19601f82011682018060405250810190610bf191906115d0565b9050600554811115610d36575f60038054905090505f5f90505b81811015610ce1575f60038281548110610c2857610c27611527565b5b905f5260205f20016040518060400160405290815f82015f9054906101000a900473ffffffffffffffffffffffffffffffffffffffff1673ffffffffffffffffffffffffffffffffffffffff1673ffffffffffffffffffffffffffffffffffffffff1681526020015f820160149054906101000a900460ff1615151515815250509050806020015115610cc657610cc1815f0151610e37565b610cd3565b610cd2815f0151610d39565b5b508080600101915050610c0b565b5060035f610cef9190610fbf565b816005819055507fd3e4f1af05d6a58c34415da926f00920cb8fee260e9d49885349cbf4a26af20082600280549050604051610d2c9291906115fb565b60405180910390a1505b50565b5f60028054905090505f5f90505b81811015610dd1578273ffffffffffffffffffffffffffffffffffffffff1660028281548110610d7a57610d79611527565b5b905f5260205f20015f9054906101000a900473ffffffffffffffffffffffffffffffffffffffff1673ffffffffffffffffffffffffffffffffffffffff1603610dc4575050610e34565b8080600101915050610d47565b50600282908060018154018082558091505060019003905f5260205f20015f9091909190916101000a81548173ffffffffffffffffffffffffffffffffffffffff021916908373ffffffffffffffffffffffffffffffffffffffff160217905550505b50565b5f60028054905090505f5f90505b81811015610fb9578273ffffffffffffffffffffffffffffffffffffffff1660028281548110610e7857610e77611527565b5b905f5260205f20015f9054906101000a900473ffffffffffffffffffffffffffffffffffffffff1673ffffffffffffffffffffffffffffffffffffffff1603610fac5760026001600280549050610ecf919061164f565b81548110610ee057610edf611527565b5b905f5260205f20015f9054906101000a900473ffffffffffffffffffffffffffffffffffffffff1660028281548110610f1c57610f1b611527565b5b905f5260205f20015f6101000a81548173ffffffffffffffffffffffffffffffffffffffff021916908373ffffffffffffffffffffffffffffffffffffffff1602179055506002805480610f7357610f72611682565b5b600190038181905f5260205f20015f6101000a81549073ffffffffffffffffffffffffffffffffffffffff021916905590555050610fbc565b8080600101915050610e45565b50505b50565b5080545f8255905f5260205f2090810190610fda9190610fdd565b50565b5b80821115611028575f5f82015f6101000a81549073ffffffffffffffffffffffffffffffffffffffff02191690555f820160146101000a81549060ff021916905550600101610fde565b5090565b5f81519050919050565b5f82825260208201905092915050565b5f819050602082019050919050565b5f73ffffffffffffffffffffffffffffffffffffffff82169050919050565b5f61107e82611055565b9050919050565b61108e81611074565b82525050565b5f61109f8383611085565b60208301905092915050565b5f602082019050919050565b5f6110c18261102c565b6110cb8185611036565b93506110d683611046565b805f5b838110156111065781516110ed8882611094565b97506110f8836110ab565b9250506001810190506110d9565b5085935050505092915050565b5f6020820190508181035f83015261112b81846110b7565b905092915050565b5f5ffd5b61114081611074565b811461114a575f5ffd5b50565b5f8135905061115b81611137565b92915050565b5f8115159050919050565b61117581611161565b811461117f575f5ffd5b50565b5f813590506111908161116c565b92915050565b5f5f604083850312156111ac576111ab611133565b5b5f6111b98582860161114d565b92505060206111ca85828601611182565b9150509250929050565b5f81519050919050565b5f82825260208201905092915050565b5f819050602082019050919050565b61120681611161565b82525050565b604082015f8201516112205f850182611085565b50602082015161123360208501826111fd565b50505050565b5f611244838361120c565b60408301905092915050565b5f602082019050919050565b5f611266826111d4565b61127081856111de565b935061127b836111ee565b805f5b838110156112ab5781516112928882611239565b975061129d83611250565b92505060018101905061127e565b5085935050505092915050565b5f6020820190508181035f8301526112d0818461125c565b905092915050565b5f819050919050565b6112ea816112d8565b82525050565b5f6020820190506113035f8301846112e1565b92915050565b5f6020828403121561131e5761131d611133565b5b5f61132b8482850161114d565b91505092915050565b61133d81611074565b82525050565b5f6020820190506113565f830184611334565b92915050565b611365816112d8565b811461136f575f5ffd5b50565b5f813590506113808161135c565b92915050565b5f6020828403121561139b5761139a611133565b5b5f6113a884828501611372565b91505092915050565b6113ba81611161565b82525050565b5f6040820190506113d35f830185611334565b6113e060208301846113b1565b9392505050565b5f819050919050565b5f61140a61140561140084611055565b6113e7565b611055565b9050919050565b5f61141b826113f0565b9050919050565b5f61142c82611411565b9050919050565b61143c81611422565b82525050565b5f6020820190506114555f830184611433565b92915050565b5f82825260208201905092915050565b7f4e6f7420617574686f72697a65640000000000000000000000000000000000005f82015250565b5f61149f600e8361145b565b91506114aa8261146b565b602082019050919050565b5f6020820190508181035f8301526114cc81611493565b9050919050565b5f6040820190506114e65f8301856113b1565b6114f360208301846112e1565b9392505050565b7f4e487b71000000000000000000000000000000000000000000000000000000005f52604160045260245ffd5b7f4e487b71000000000000000000000000000000000000000000000000000000005f52603260045260245ffd5b7f4f6e6c79206f776e6572000000000000000000000000000000000000000000005f82015250565b5f611588600a8361145b565b915061159382611554565b602082019050919050565b5f6020820190508181035f8301526115b58161157c565b9050919050565b5f815190506115ca8161135c565b92915050565b5f602082840312156115e5576115e4611133565b5b5f6115f2848285016115bc565b91505092915050565b5f60408201905061160e5f8301856112e1565b61161b60208301846112e1565b9392505050565b7f4e487b71000000000000000000000000000000000000000000000000000000005f52601160045260245ffd5b5f611659826112d8565b9150611664836112d8565b925082820390508181111561167c5761167b611622565b5b92915050565b7f4e487b71000000000000000000000000000000000000000000000000000000005f52603160045260245ffdfea26469706673582212206efbe7efe4d77ce5ecc9184fab67479521ce3704ca3b5c57c95f8ace1d03b84364736f6c634300081f0033",
					"opcodes": "PUSH1 0x80 PUSH1 0x40 MSTORE CALLVALUE DUP1 ISZERO PUSH1 0xE JUMPI PUSH0 PUSH0 REVERT JUMPDEST POP CALLER PUSH1 0x7 PUSH0 PUSH2 0x100 EXP DUP2 SLOAD DUP2 PUSH20 0xFFFFFFFFFFFFFFFFFFFFFFFFFFFFFFFFFFFFFFFF MUL NOT AND SWAP1 DUP4 PUSH20 0xFFFFFFFFFFFFFFFFFFFFFFFFFFFFFFFFFFFFFFFF AND MUL OR SWAP1 SSTORE POP PUSH2 0x16E5 DUP1 PUSH2 0x5C PUSH0 CODECOPY PUSH0 RETURN INVALID PUSH1 0x80 PUSH1 0x40 MSTORE CALLVALUE DUP1 ISZERO PUSH2 0xF JUMPI PUSH0 PUSH0 REVERT JUMPDEST POP PUSH1 0x4 CALLDATASIZE LT PUSH2 0xFE JUMPI PUSH0 CALLDATALOAD PUSH1 0xE0 SHR DUP1 PUSH4 0x9AAD69E7 GT PUSH2 0x95 JUMPI DUP1 PUSH4 0xD4D59EDB GT PUSH2 0x64 JUMPI DUP1 PUSH4 0xD4D59EDB EQ PUSH2 0x289 JUMPI DUP1 PUSH4 0xE21EB523 EQ PUSH2 0x2A5 JUMPI DUP1 PUSH4 0xE2D2BFE3 EQ PUSH2 0x2C3 JUMPI DUP1 PUSH4 0xEE6713DF EQ PUSH2 0x2E1 JUMPI PUSH2 0xFE JUMP JUMPDEST DUP1 PUSH4 0x9AAD69E7 EQ PUSH2 0x201 JUMPI DUP1 PUSH4 0xA6591CDF EQ PUSH2 0x21D JUMPI DUP1 PUSH4 0xABB2EFDF EQ PUSH2 0x23B JUMPI DUP1 PUSH4 0xC16D4423 EQ PUSH2 0x259 JUMPI PUSH2 0xFE JUMP JUMPDEST DUP1 PUSH4 0x750588CF GT PUSH2 0xD1 JUMPI DUP1 PUSH4 0x750588CF EQ PUSH2 0x178 JUMPI DUP1 PUSH4 0x785B4747 EQ PUSH2 0x196 JUMPI DUP1 PUSH4 0x8DA5CB5B EQ PUSH2 0x1B2 JUMPI DUP1 PUSH4 0x8F06499F EQ PUSH2 0x1D0 JUMPI PUSH2 0xFE JUMP JUMPDEST DUP1 PUSH4 0x1442E4C9 EQ PUSH2 0x102 JUMPI DUP1 PUSH4 0x22CA098F EQ PUSH2 0x120 JUMPI DUP1 PUSH4 0x4967E428 EQ PUSH2 0x13C JUMPI DUP1 PUSH4 0x5ED7E0EE EQ PUSH2 0x15A JUMPI JUMPDEST PUSH0 PUSH0 REVERT JUMPDEST PUSH2 0x10A PUSH2 0x2FF JUMP JUMPDEST PUSH1 0x40 MLOAD PUSH2 0x117 SWAP2 SWAP1 PUSH2 0x1113 JUMP JUMPDEST PUSH1 0x40 MLOAD DUP1 SWAP2 SUB SWAP1 RETURN JUMPDEST PUSH2 0x13A PUSH1 0x4 DUP1 CALLDATASIZE SUB DUP2 ADD SWAP1 PUSH2 0x135 SWAP2 SWAP1 PUSH2 0x1196 JUMP JUMPDEST PUSH2 0x38A JUMP JUMPDEST STOP JUMPDEST PUSH2 0x144 PUSH2 0x52D JUMP JUMPDEST PUSH1 0x40 MLOAD PUSH2 0x151 SWAP2 SWAP1 PUSH2 0x1113 JUMP JUMPDEST PUSH1 0x40 MLOAD DUP1 SWAP2 SUB SWAP1 RETURN JUMPDEST PUSH2 0x162 PUSH2 0x632 JUMP JUMPDEST PUSH1 0x40 MLOAD PUSH2 0x16F SWAP2 SWAP1 PUSH2 0x12B8 JUMP JUMPDEST PUSH1 0x40 MLOAD DUP1 SWAP2 SUB SWAP1 RETURN JUMPDEST PUSH2 0x180 PUSH2 0x6F8 JUMP JUMPDEST PUSH1 0x40 MLOAD PUSH2 0x18D SWAP2 SWAP1 PUSH2 0x12F0 JUMP JUMPDEST PUSH1 0x40 MLOAD DUP1 SWAP2 SUB SWAP1 RETURN JUMPDEST PUSH2 0x1B0 PUSH1 0x4 DUP1 CALLDATASIZE SUB DUP2 ADD SWAP1 PUSH2 0x1AB SWAP2 SWAP1 PUSH2 0x1309 JUMP JUMPDEST PUSH2 0x6FE JUMP JUMPDEST STOP JUMPDEST PUSH2 0x1BA PUSH2 0x799 JUMP JUMPDEST PUSH1 0x40 MLOAD PUSH2 0x1C7 SWAP2 SWAP1 PUSH2 0x1343 JUMP JUMPDEST PUSH1 0x40 MLOAD DUP1 SWAP2 SUB SWAP1 RETURN JUMPDEST PUSH2 0x1EA PUSH1 0x4 DUP1 CALLDATASIZE SUB DUP2 ADD SWAP1 PUSH2 0x1E5 SWAP2 SWAP1 PUSH2 0x1386 JUMP JUMPDEST PUSH2 0x7BE JUMP JUMPDEST PUSH1 0x40 MLOAD PUSH2 0x1F8 SWAP3 SWAP2 SWAP1 PUSH2 0x13C0 JUMP JUMPDEST PUSH1 0x40 MLOAD DUP1 SWAP2 SUB SWAP1 RETURN JUMPDEST PUSH2 0x21B PUSH1 0x4 DUP1 CALLDATASIZE SUB DUP2 ADD SWAP1 PUSH2 0x216 SWAP2 SWAP1 PUSH2 0x1309 JUMP JUMPDEST PUSH2 0x814 JUMP JUMPDEST STOP JUMPDEST PUSH2 0x225 PUSH2 0x929 JUMP JUMPDEST PUSH1 0x40 MLOAD PUSH2 0x232 SWAP2 SWAP1 PUSH2 0x1343 JUMP JUMPDEST PUSH1 0x40 MLOAD DUP1 SWAP2 SUB SWAP1 RETURN JUMPDEST PUSH2 0x243 PUSH2 0x94E JUMP JUMPDEST PUSH1 0x40 MLOAD PUSH2 0x250 SWAP2 SWAP1 PUSH2 0x12F0 JUMP JUMPDEST PUSH1 0x40 MLOAD DUP1 SWAP2 SUB SWAP1 RETURN JUMPDEST PUSH2 0x273 PUSH1 0x4 DUP1 CALLDATASIZE SUB DUP2 ADD SWAP1 PUSH2 0x26E SWAP2 SWAP1 PUSH2 0x1386 JUMP JUMPDEST PUSH2 0x953 JUMP JUMPDEST PUSH1 0x40 MLOAD PUSH2 0x280 SWAP2 SWAP1 PUSH2 0x1343 JUMP JUMPDEST PUSH1 0x40 MLOAD DUP1 SWAP2 SUB SWAP1 RETURN JUMPDEST PUSH2 0x2A3 PUSH1 0x4 DUP1 CALLDATASIZE SUB DUP2 ADD SWAP1 PUSH2 0x29E SWAP2 SWAP1 PUSH2 0x1309 JUMP JUMPDEST PUSH2 0x98E JUMP JUMPDEST STOP JUMPDEST PUSH2 0x2AD PUSH2 0xAA3 JUMP JUMPDEST PUSH1 0x40 MLOAD PUSH2 0x2BA SWAP2 SWAP1 PUSH2 0x12F0 JUMP JUMPDEST PUSH1 0x40 MLOAD DUP1 SWAP2 SUB SWAP1 RETURN JUMPDEST PUSH2 0x2CB PUSH2 0xB37 JUMP JUMPDEST PUSH1 0x40 MLOAD PUSH2 0x2D8 SWAP2 SWAP1 PUSH2 0x1442 JUMP JUMPDEST PUSH1 0x40 MLOAD DUP1 SWAP2 SUB SWAP1 RETURN JUMPDEST PUSH2 0x2E9 PUSH2 0xB5C JUMP JUMPDEST PUSH1 0x40 MLOAD PUSH2 0x2F6 SWAP2 SWAP1 PUSH2 0x12F0 JUMP JUMPDEST PUSH1 0x40 MLOAD DUP1 SWAP2 SUB SWAP1 RETURN JUMPDEST PUSH1 0x60 PUSH1 0x2 DUP1 SLOAD DUP1 PUSH1 0x20 MUL PUSH1 0x20 ADD PUSH1 0x40 MLOAD SWAP1 DUP2 ADD PUSH1 0x40 MSTORE DUP1 SWAP3 SWAP2 SWAP1 DUP2 DUP2 MSTORE PUSH1 0x20 ADD DUP3 DUP1 SLOAD DUP1 ISZERO PUSH2 0x380 JUMPI PUSH1 0x20 MUL DUP3 ADD SWAP2 SWAP1 PUSH0 MSTORE PUSH1 0x20 PUSH0 KECCAK256 SWAP1 JUMPDEST DUP2 PUSH0 SWAP1 SLOAD SWAP1 PUSH2 0x100 EXP SWAP1 DIV PUSH20 0xFFFFFFFFFFFFFFFFFFFFFFFFFFFFFFFFFFFFFFFF AND PUSH20 0xFFFFFFFFFFFFFFFFFFFFFFFFFFFFFFFFFFFFFFFF AND DUP2 MSTORE PUSH1 0x20 ADD SWAP1 PUSH1 0x1 ADD SWAP1 DUP1 DUP4 GT PUSH2 0x337 JUMPI JUMPDEST POP POP POP POP POP SWAP1 POP SWAP1 JUMP JUMPDEST PUSH1 0x6 PUSH0 SWAP1 SLOAD SWAP1 PUSH2 0x100 EXP SWAP1 DIV PUSH20 0xFFFFFFFFFFFFFFFFFFFFFFFFFFFFFFFFFFFFFFFF AND PUSH20 0xFFFFFFFFFFFFFFFFFFFFFFFFFFFFFFFFFFFFFFFF AND CALLER PUSH20 0xFFFFFFFFFFFFFFFFFFFFFFFFFFFFFFFFFFFFFFFF AND EQ PUSH2 0x419 JUMPI PUSH1 0x40 MLOAD PUSH32 0x8C379A000000000000000000000000000000000000000000000000000000000 DUP2 MSTORE PUSH1 0x4 ADD PUSH2 0x410 SWAP1 PUSH2 0x14B5 JUMP JUMPDEST PUSH1 0x40 MLOAD DUP1 SWAP2 SUB SWAP1 REVERT JUMPDEST PUSH2 0x421 PUSH2 0xB62 JUMP JUMPDEST PUSH1 0x3 PUSH1 0x40 MLOAD DUP1 PUSH1 0x40 ADD PUSH1 0x40 MSTORE DUP1 DUP5 PUSH20 0xFFFFFFFFFFFFFFFFFFFFFFFFFFFFFFFFFFFFFFFF AND DUP2 MSTORE PUSH1 0x20 ADD DUP4 ISZERO ISZERO DUP2 MSTORE POP SWAP1 DUP1 PUSH1 0x1 DUP2 SLOAD ADD DUP1 DUP3 SSTORE DUP1 SWAP2 POP POP PUSH1 0x1 SWAP1 SUB SWAP1 PUSH0 MSTORE PUSH1 0x20 PUSH0 KECCAK256 ADD PUSH0 SWAP1 SWAP2 SWAP1 SWAP2 SWAP1 SWAP2 POP PUSH0 DUP3 ADD MLOAD DUP2 PUSH0 ADD PUSH0 PUSH2 0x100 EXP DUP2 SLOAD DUP2 PUSH20 0xFFFFFFFFFFFFFFFFFFFFFFFFFFFFFFFFFFFFFFFF MUL NOT AND SWAP1 DUP4 PUSH20 0xFFFFFFFFFFFFFFFFFFFFFFFFFFFFFFFFFFFFFFFF AND MUL OR SWAP1 SSTORE POP PUSH1 0x20 DUP3 ADD MLOAD DUP2 PUSH0 ADD PUSH1 0x14 PUSH2 0x100 EXP DUP2 SLOAD DUP2 PUSH1 0xFF MUL NOT AND SWAP1 DUP4 ISZERO ISZERO MUL OR SWAP1 SSTORE POP POP POP DUP2 PUSH20 0xFFFFFFFFFFFFFFFFFFFFFFFFFFFFFFFFFFFFFFFF AND PUSH32 0x9DEB677EB61BAE9FE895F4C30C0FA23B9B37A1A6AFEC0A6590F2783861F6BC6E DUP3 PUSH1 0x5 SLOAD PUSH1 0x40 MLOAD PUSH2 0x521 SWAP3 SWAP2 SWAP1 PUSH2 0x14D3 JUMP JUMPDEST PUSH1 0x40 MLOAD DUP1 SWAP2 SUB SWAP1 LOG2 POP POP JUMP JUMPDEST PUSH1 0x60 PUSH0 PUSH1 0x3 DUP1 SLOAD SWAP1 POP SWAP1 POP PUSH0 DUP2 PUSH8 0xFFFFFFFFFFFFFFFF DUP2 GT ISZERO PUSH2 0x553 JUMPI PUSH2 0x552 PUSH2 0x14FA JUMP JUMPDEST JUMPDEST PUSH1 0x40 MLOAD SWAP1 DUP1 DUP3 MSTORE DUP1 PUSH1 0x20 MUL PUSH1 0x20 ADD DUP3 ADD PUSH1 0x40 MSTORE DUP1 ISZERO PUSH2 0x581 JUMPI DUP2 PUSH1 0x20 ADD PUSH1 0x20 DUP3 MUL DUP1 CALLDATASIZE DUP4 CALLDATACOPY DUP1 DUP3 ADD SWAP2 POP POP SWAP1 POP JUMPDEST POP SWAP1 POP PUSH0 PUSH0 SWAP1 POP JUMPDEST DUP3 DUP2 LT ISZERO PUSH2 0x629 JUMPI PUSH1 0x3 DUP2 DUP2 SLOAD DUP2 LT PUSH2 0x5A5 JUMPI PUSH2 0x5A4 PUSH2 0x1527 JUMP JUMPDEST JUMPDEST SWAP1 PUSH0 MSTORE PUSH1 0x20 PUSH0 KECCAK256 ADD PUSH0 ADD PUSH0 SWAP1 SLOAD SWAP1 PUSH2 0x100 EXP SWAP1 DIV PUSH20 0xFFFFFFFFFFFFFFFFFFFFFFFFFFFFFFFFFFFFFFFF AND DUP3 DUP3 DUP2 MLOAD DUP2 LT PUSH2 0x5E2 JUMPI PUSH2 0x5E1 PUSH2 0x1527 JUMP JUMPDEST JUMPDEST PUSH1 0x20 MUL PUSH1 0x20 ADD ADD SWAP1 PUSH20 0xFFFFFFFFFFFFFFFFFFFFFFFFFFFFFFFFFFFFFFFF AND SWAP1 DUP2 PUSH20 0xFFFFFFFFFFFFFFFFFFFFFFFFFFFFFFFFFFFFFFFF AND DUP2 MSTORE POP POP DUP1 DUP1 PUSH1 0x1 ADD SWAP2 POP POP PUSH2 0x589 JUMP JUMPDEST POP DUP1 SWAP3 POP POP POP SWAP1 JUMP JUMPDEST PUSH1 0x60 PUSH1 0x3 DUP1 SLOAD DUP1 PUSH1 0x20 MUL PUSH1 0x20 ADD PUSH1 0x40 MLOAD SWAP1 DUP2 ADD PUSH1 0x40 MSTORE DUP1 SWAP3 SWAP2 SWAP1 DUP2 DUP2 MSTORE PUSH1 0x20 ADD PUSH0 SWAP1 JUMPDEST DUP3 DUP3 LT ISZERO PUSH2 0x6EF JUMPI DUP4 DUP3 SWAP1 PUSH0 MSTORE PUSH1 0x20 PUSH0 KECCAK256 ADD PUSH1 0x40 MLOAD DUP1 PUSH1 0x40 ADD PUSH1 0x40 MSTORE SWAP1 DUP2 PUSH0 DUP3 ADD PUSH0 SWAP1 SLOAD SWAP1 PUSH2 0x100 EXP SWAP1 DIV PUSH20 0xFFFFFFFFFFFFFFFFFFFFFFFFFFFFFFFFFFFFFFFF AND PUSH20 0xFFFFFFFFFFFFFFFFFFFFFFFFFFFFFFFFFFFFFFFF AND PUSH20 0xFFFFFFFFFFFFFFFFFFFFFFFFFFFFFFFFFFFFFFFF AND DUP2 MSTORE PUSH1 0x20 ADD PUSH0 DUP3 ADD PUSH1 0x14 SWAP1 SLOAD SWAP1 PUSH2 0x100 EXP SWAP1 DIV PUSH1 0xFF AND ISZERO ISZERO ISZERO ISZERO DUP2 MSTORE POP POP DUP2 MSTORE PUSH1 0x20 ADD SWAP1 PUSH1 0x1 ADD SWAP1 PUSH2 0x655 JUMP JUMPDEST POP POP POP POP SWAP1 POP SWAP1 JUMP JUMPDEST PUSH1 0x1 SLOAD DUP2 JUMP JUMPDEST PUSH1 0x7 PUSH0 SWAP1 SLOAD SWAP1 PUSH2 0x100 EXP SWAP1 DIV PUSH20 0xFFFFFFFFFFFFFFFFFFFFFFFFFFFFFFFFFFFFFFFF AND PUSH20 0xFFFFFFFFFFFFFFFFFFFFFFFFFFFFFFFFFFFFFFFF AND CALLER PUSH20 0xFFFFFFFFFFFFFFFFFFFFFFFFFFFFFFFFFFFFFFFF AND EQ PUSH2 0x78D JUMPI PUSH1 0x40 MLOAD PUSH32 0x8C379A000000000000000000000000000000000000000000000000000000000 DUP2 MSTORE PUSH1 0x4 ADD PUSH2 0x784 SWAP1 PUSH2 0x159E JUMP JUMPDEST PUSH1 0x40 MLOAD DUP1 SWAP2 SUB SWAP1 REVERT JUMPDEST PUSH2 0x796 DUP2 PUSH2 0xD39 JUMP JUMPDEST POP JUMP JUMPDEST PUSH1 0x7 PUSH0 SWAP1 SLOAD SWAP1 PUSH2 0x100 EXP SWAP1 DIV PUSH20 0xFFFFFFFFFFFFFFFFFFFFFFFFFFFFFFFFFFFFFFFF AND DUP2 JUMP JUMPDEST PUSH1 0x3 DUP2 DUP2 SLOAD DUP2 LT PUSH2 0x7CD JUMPI PUSH0 DUP1 REVERT JUMPDEST SWAP1 PUSH0 MSTORE PUSH1 0x20 PUSH0 KECCAK256 ADD PUSH0 SWAP2 POP SWAP1 POP DUP1 PUSH0 ADD PUSH0 SWAP1 SLOAD SWAP1 PUSH2 0x100 EXP SWAP1 DIV PUSH20 0xFFFFFFFFFFFFFFFFFFFFFFFFFFFFFFFFFFFFFFFF AND SWAP1 DUP1 PUSH0 ADD PUSH1 0x14 SWAP1 SLOAD SWAP1 PUSH2 0x100 EXP SWAP1 DIV PUSH1 0xFF AND SWAP1 POP DUP3 JUMP JUMPDEST PUSH1 0x7 PUSH0 SWAP1 SLOAD SWAP1 PUSH2 0x100 EXP SWAP1 DIV PUSH20 0xFFFFFFFFFFFFFFFFFFFFFFFFFFFFFFFFFFFFFFFF AND PUSH20 0xFFFFFFFFFFFFFFFFFFFFFFFFFFFFFFFFFFFFFFFF AND CALLER PUSH20 0xFFFFFFFFFFFFFFFFFFFFFFFFFFFFFFFFFFFFFFFF AND EQ PUSH2 0x8A3 JUMPI PUSH1 0x40 MLOAD PUSH32 0x8C379A000000000000000000000000000000000000000000000000000000000 DUP2 MSTORE PUSH1 0x4 ADD PUSH2 0x89A SWAP1 PUSH2 0x159E JUMP JUMPDEST PUSH1 0x40 MLOAD DUP1 SWAP2 SUB SWAP1 REVERT JUMPDEST DUP1 PUSH1 0x6 PUSH0 PUSH2 0x100 EXP DUP2 SLOAD DUP2 PUSH20 0xFFFFFFFFFFFFFFFFFFFFFFFFFFFFFFFFFFFFFFFF MUL NOT AND SWAP1 DUP4 PUSH20 0xFFFFFFFFFFFFFFFFFFFFFFFFFFFFFFFFFFFFFFFF AND MUL OR SWAP1 SSTORE POP DUP1 PUSH20 0xFFFFFFFFFFFFFFFFFFFFFFFFFFFFFFFFFFFFFFFF AND PUSH32 0x2E8B6F15CA325EDAD1931B418450CD194DAF93E7F40FE4A48D9B1B4BF2A8F069 PUSH1 0x40 MLOAD PUSH1 0x40 MLOAD DUP1 SWAP2 SUB SWAP1 LOG2 POP JUMP JUMPDEST PUSH1 0x6 PUSH0 SWAP1 SLOAD SWAP1 PUSH2 0x100 EXP SWAP1 DIV PUSH20 0xFFFFFFFFFFFFFFFFFFFFFFFFFFFFFFFFFFFFFFFF AND DUP2 JUMP JUMPDEST PUSH0 SLOAD DUP2 JUMP JUMPDEST PUSH1 0x2 DUP2 DUP2 SLOAD DUP2 LT PUSH2 0x962 JUMPI PUSH0 DUP1 REVERT JUMPDEST SWAP1 PUSH0 MSTORE PUSH1 0x20 PUSH0 KECCAK256 ADD PUSH0 SWAP2 POP SLOAD SWAP1 PUSH2 0x100 EXP SWAP1 DIV PUSH20 0xFFFFFFFFFFFFFFFFFFFFFFFFFFFFFFFFFFFFFFFF AND DUP2 JUMP JUMPDEST PUSH1 0x7 PUSH0 SWAP1 SLOAD SWAP1 PUSH2 0x100 EXP SWAP1 DIV PUSH20 0xFFFFFFFFFFFFFFFFFFFFFFFFFFFFFFFFFFFFFFFF AND PUSH20 0xFFFFFFFFFFFFFFFFFFFFFFFFFFFFFFFFFFFFFFFF AND CALLER PUSH20 0xFFFFFFFFFFFFFFFFFFFFFFFFFFFFFFFFFFFFFFFF AND EQ PUSH2 0xA1D JUMPI PUSH1 0x40 MLOAD PUSH32 0x8C379A000000000000000000000000000000000000000000000000000000000 DUP2 MSTORE PUSH1 0x4 ADD PUSH2 0xA14 SWAP1 PUSH2 0x159E JUMP JUMPDEST PUSH1 0x40 MLOAD DUP1 SWAP2 SUB SWAP1 REVERT JUMPDEST DUP1 PUSH1 0x4 PUSH0 PUSH2 0x100 EXP DUP2 SLOAD DUP2 PUSH20 0xFFFFFFFFFFFFFFFFFFFFFFFFFFFFFFFFFFFFFFFF MUL NOT AND SWAP1 DUP4 PUSH20 0xFFFFFFFFFFFFFFFFFFFFFFFFFFFFFFFFFFFFFFFF AND MUL OR SWAP1 SSTORE POP DUP1 PUSH20 0xFFFFFFFFFFFFFFFFFFFFFFFFFFFFFFFFFFFFFFFF AND PUSH32 0x4B9D66D8E64DFF6D9D2728F9A38DA9739D3CFDBE676FDE05564AAE22F8508465 PUSH1 0x40 MLOAD PUSH1 0x40 MLOAD DUP1 SWAP2 SUB SWAP1 LOG2 POP JUMP JUMPDEST PUSH0 PUSH1 0x4 PUSH0 SWAP1 SLOAD SWAP1 PUSH2 0x100 EXP SWAP1 DIV PUSH20 0xFFFFFFFFFFFFFFFFFFFFFFFFFFFFFFFFFFFFFFFF AND PUSH20 0xFFFFFFFFFFFFFFFFFFFFFFFFFFFFFFFFFFFFFFFF AND PUSH4 0xB97DD9E2 PUSH1 0x40 MLOAD DUP2 PUSH4 0xFFFFFFFF AND PUSH1 0xE0 SHL DUP2 MSTORE PUSH1 0x4 ADD PUSH1 0x20 PUSH1 0x40 MLOAD DUP1 DUP4 SUB DUP2 DUP7 GAS STATICCALL ISZERO DUP1 ISZERO PUSH2 0xB0E JUMPI RETURNDATASIZE PUSH0 PUSH0 RETURNDATACOPY RETURNDATASIZE PUSH0 REVERT JUMPDEST POP POP POP POP PUSH1 0x40 MLOAD RETURNDATASIZE PUSH1 0x1F NOT PUSH1 0x1F DUP3 ADD AND DUP3 ADD DUP1 PUSH1 0x40 MSTORE POP DUP2 ADD SWAP1 PUSH2 0xB32 SWAP2 SWAP1 PUSH2 0x15D0 JUMP JUMPDEST SWAP1 POP SWAP1 JUMP JUMPDEST PUSH1 0x4 PUSH0 SWAP1 SLOAD SWAP1 PUSH2 0x100 EXP SWAP1 DIV PUSH20 0xFFFFFFFFFFFFFFFFFFFFFFFFFFFFFFFFFFFFFFFF AND DUP2 JUMP JUMPDEST PUSH1 0x5 SLOAD DUP2 JUMP JUMPDEST PUSH0 PUSH1 0x4 PUSH0 SWAP1 SLOAD SWAP1 PUSH2 0x100 EXP SWAP1 DIV PUSH20 0xFFFFFFFFFFFFFFFFFFFFFFFFFFFFFFFFFFFFFFFF AND PUSH20 0xFFFFFFFFFFFFFFFFFFFFFFFFFFFFFFFFFFFFFFFF AND PUSH4 0xB97DD9E2 PUSH1 0x40 MLOAD DUP2 PUSH4 0xFFFFFFFF AND PUSH1 0xE0 SHL DUP2 MSTORE PUSH1 0x4 ADD PUSH1 0x20 PUSH1 0x40 MLOAD DUP1 DUP4 SUB DUP2 DUP7 GAS STATICCALL ISZERO DUP1 ISZERO PUSH2 0xBCD JUMPI RETURNDATASIZE PUSH0 PUSH0 RETURNDATACOPY RETURNDATASIZE PUSH0 REVERT JUMPDEST POP POP POP POP PUSH1 0x40 MLOAD RETURNDATASIZE PUSH1 0x1F NOT PUSH1 0x1F DUP3 ADD AND DUP3 ADD DUP1 PUSH1 0x40 MSTORE POP DUP2 ADD SWAP1 PUSH2 0xBF1 SWAP2 SWAP1 PUSH2 0x15D0 JUMP JUMPDEST SWAP1 POP PUSH1 0x5 SLOAD DUP2 GT ISZERO PUSH2 0xD36 JUMPI PUSH0 PUSH1 0x3 DUP1 SLOAD SWAP1 POP SWAP1 POP PUSH0 PUSH0 SWAP1 POP JUMPDEST DUP2 DUP2 LT ISZERO PUSH2 0xCE1 JUMPI PUSH0 PUSH1 0x3 DUP3 DUP2 SLOAD DUP2 LT PUSH2 0xC28 JUMPI PUSH2 0xC27 PUSH2 0x1527 JUMP JUMPDEST JUMPDEST SWAP1 PUSH0 MSTORE PUSH1 0x20 PUSH0 KECCAK256 ADD PUSH1 0x40 MLOAD DUP1 PUSH1 0x40 ADD PUSH1 0x40 MSTORE SWAP1 DUP2 PUSH0 DUP3 ADD PUSH0 SWAP1 SLOAD SWAP1 PUSH2 0x100 EXP SWAP1 DIV PUSH20 0xFFFFFFFFFFFFFFFFFFFFFFFFFFFFFFFFFFFFFFFF AND PUSH20 0xFFFFFFFFFFFFFFFFFFFFFFFFFFFFFFFFFFFFFFFF AND PUSH20 0xFFFFFFFFFFFFFFFFFFFFFFFFFFFFFFFFFFFFFFFF AND DUP2 MSTORE PUSH1 0x20 ADD PUSH0 DUP3 ADD PUSH1 0x14 SWAP1 SLOAD SWAP1 PUSH2 0x100 EXP SWAP1 DIV PUSH1 0xFF AND ISZERO ISZERO ISZERO ISZERO DUP2 MSTORE POP POP SWAP1 POP DUP1 PUSH1 0x20 ADD MLOAD ISZERO PUSH2 0xCC6 JUMPI PUSH2 0xCC1 DUP2 PUSH0 ADD MLOAD PUSH2 0xE37 JUMP JUMPDEST PUSH2 0xCD3 JUMP JUMPDEST PUSH2 0xCD2 DUP2 PUSH0 ADD MLOAD PUSH2 0xD39 JUMP JUMPDEST JUMPDEST POP DUP1 DUP1 PUSH1 0x1 ADD SWAP2 POP POP PUSH2 0xC0B JUMP JUMPDEST POP PUSH1 0x3 PUSH0 PUSH2 0xCEF SWAP2 SWAP1 PUSH2 0xFBF JUMP JUMPDEST DUP2 PUSH1 0x5 DUP2 SWAP1 SSTORE POP PUSH32 0xD3E4F1AF05D6A58C34415DA926F00920CB8FEE260E9D49885349CBF4A26AF200 DUP3 PUSH1 0x2 DUP1 SLOAD SWAP1 POP PUSH1 0x40 MLOAD PUSH2 0xD2C SWAP3 SWAP2 SWAP1 PUSH2 0x15FB JUMP JUMPDEST PUSH1 0x40 MLOAD DUP1 SWAP2 SUB SWAP1 LOG1 POP JUMPDEST POP JUMP JUMPDEST PUSH0 PUSH1 0x2 DUP1 SLOAD SWAP1 POP SWAP1 POP PUSH0 PUSH0 SWAP1 POP JUMPDEST DUP2 DUP2 LT ISZERO PUSH2 0xDD1 JUMPI DUP3 PUSH20 0xFFFFFFFFFFFFFFFFFFFFFFFFFFFFFFFFFFFFFFFF AND PUSH1 0x2 DUP3 DUP2 SLOAD DUP2 LT PUSH2 0xD7A JUMPI PUSH2 0xD79 PUSH2 0x1527 JUMP JUMPDEST JUMPDEST SWAP1 PUSH0 MSTORE PUSH1 0x20 PUSH0 KECCAK256 ADD PUSH0 SWAP1 SLOAD SWAP1 PUSH2 0x100 EXP SWAP1 DIV PUSH20 0xFFFFFFFFFFFFFFFFFFFFFFFFFFFFFFFFFFFFFFFF AND PUSH20 0xFFFFFFFFFFFFFFFFFFFFFFFFFFFFFFFFFFFFFFFF AND SUB PUSH2 0xDC4 JUMPI POP POP PUSH2 0xE34 JUMP JUMPDEST DUP1 DUP1 PUSH1 0x1 ADD SWAP2 POP POP PUSH2 0xD47 JUMP JUMPDEST POP PUSH1 0x2 DUP3 SWAP1 DUP1 PUSH1 0x1 DUP2 SLOAD ADD DUP1 DUP3 SSTORE DUP1 SWAP2 POP POP PUSH1 0x1 SWAP1 SUB SWAP1 PUSH0 MSTORE PUSH1 0x20 PUSH0 KECCAK256 ADD PUSH0 SWAP1 SWAP2 SWAP1 SWAP2 SWAP1 SWAP2 PUSH2 0x100 EXP DUP2 SLOAD DUP2 PUSH20 0xFFFFFFFFFFFFFFFFFFFFFFFFFFFFFFFFFFFFFFFF MUL NOT AND SWAP1 DUP4 PUSH20 0xFFFFFFFFFFFFFFFFFFFFFFFFFFFFFFFFFFFFFFFF AND MUL OR SWAP1 SSTORE POP POP JUMPDEST POP JUMP JUMPDEST PUSH0 PUSH1 0x2 DUP1 SLOAD SWAP1 POP SWAP1 POP PUSH0 PUSH0 SWAP1 POP JUMPDEST DUP2 DUP2 LT ISZERO PUSH2 0xFB9 JUMPI DUP3 PUSH20 0xFFFFFFFFFFFFFFFFFFFFFFFFFFFFFFFFFFFFFFFF AND PUSH1 0x2 DUP3 DUP2 SLOAD DUP2 LT PUSH2 0xE78 JUMPI PUSH2 0xE77 PUSH2 0x1527 JUMP JUMPDEST JUMPDEST SWAP1 PUSH0 MSTORE PUSH1 0x20 PUSH0 KECCAK256 ADD PUSH0 SWAP1 SLOAD SWAP1 PUSH2 0x100 EXP SWAP1 DIV PUSH20 0xFFFFFFFFFFFFFFFFFFFFFFFFFFFFFFFFFFFFFFFF AND PUSH20 0xFFFFFFFFFFFFFFFFFFFFFFFFFFFFFFFFFFFFFFFF AND SUB PUSH2 0xFAC JUMPI PUSH1 0x2 PUSH1 0x1 PUSH1 0x2 DUP1 SLOAD SWAP1 POP PUSH2 0xECF SWAP2 SWAP1 PUSH2 0x164F JUMP JUMPDEST DUP2 SLOAD DUP2 LT PUSH2 0xEE0 JUMPI PUSH2 0xEDF PUSH2 0x1527 JUMP JUMPDEST JUMPDEST SWAP1 PUSH0 MSTORE PUSH1 0x20 PUSH0 KECCAK256 ADD PUSH0 SWAP1 SLOAD SWAP1 PUSH2 0x100 EXP SWAP1 DIV PUSH20 0xFFFFFFFFFFFFFFFFFFFFFFFFFFFFFFFFFFFFFFFF AND PUSH1 0x2 DUP3 DUP2 SLOAD DUP2 LT PUSH2 0xF1C JUMPI PUSH2 0xF1B PUSH2 0x1527 JUMP JUMPDEST JUMPDEST SWAP1 PUSH0 MSTORE PUSH1 0x20 PUSH0 KECCAK256 ADD PUSH0 PUSH2 0x100 EXP DUP2 SLOAD DUP2 PUSH20 0xFFFFFFFFFFFFFFFFFFFFFFFFFFFFFFFFFFFFFFFF MUL NOT AND SWAP1 DUP4 PUSH20 0xFFFFFFFFFFFFFFFFFFFFFFFFFFFFFFFFFFFFFFFF AND MUL OR SWAP1 SSTORE POP PUSH1 0x2 DUP1 SLOAD DUP1 PUSH2 0xF73 JUMPI PUSH2 0xF72 PUSH2 0x1682 JUMP JUMPDEST JUMPDEST PUSH1 0x1 SWAP1 SUB DUP2 DUP2 SWAP1 PUSH0 MSTORE PUSH1 0x20 PUSH0 KECCAK256 ADD PUSH0 PUSH2 0x100 EXP DUP2 SLOAD SWAP1 PUSH20 0xFFFFFFFFFFFFFFFFFFFFFFFFFFFFFFFFFFFFFFFF MUL NOT AND SWAP1 SSTORE SWAP1 SSTORE POP POP PUSH2 0xFBC JUMP JUMPDEST DUP1 DUP1 PUSH1 0x1 ADD SWAP2 POP POP PUSH2 0xE45 JUMP JUMPDEST POP POP JUMPDEST POP JUMP JUMPDEST POP DUP1 SLOAD PUSH0 DUP3 SSTORE SWAP1 PUSH0 MSTORE PUSH1 0x20 PUSH0 KECCAK256 SWAP1 DUP2 ADD SWAP1 PUSH2 0xFDA SWAP2 SWAP1 PUSH2 0xFDD JUMP JUMPDEST POP JUMP JUMPDEST JUMPDEST DUP1 DUP3 GT ISZERO PUSH2 0x1028 JUMPI PUSH0 PUSH0 DUP3 ADD PUSH0 PUSH2 0x100 EXP DUP2 SLOAD SWAP1 PUSH20 0xFFFFFFFFFFFFFFFFFFFFFFFFFFFFFFFFFFFFFFFF MUL NOT AND SWAP1 SSTORE PUSH0 DUP3 ADD PUSH1 0x14 PUSH2 0x100 EXP DUP2 SLOAD SWAP1 PUSH1 0xFF MUL NOT AND SWAP1 SSTORE POP PUSH1 0x1 ADD PUSH2 0xFDE JUMP JUMPDEST POP SWAP1 JUMP JUMPDEST PUSH0 DUP2 MLOAD SWAP1 POP SWAP2 SWAP1 POP JUMP JUMPDEST PUSH0 DUP3 DUP3 MSTORE PUSH1 0x20 DUP3 ADD SWAP1 POP SWAP3 SWAP2 POP POP JUMP JUMPDEST PUSH0 DUP2 SWAP1 POP PUSH1 0x20 DUP3 ADD SWAP1 POP SWAP2 SWAP1 POP JUMP JUMPDEST PUSH0 PUSH20 0xFFFFFFFFFFFFFFFFFFFFFFFFFFFFFFFFFFFFFFFF DUP3 AND SWAP1 POP SWAP2 SWAP1 POP JUMP JUMPDEST PUSH0 PUSH2 0x107E DUP3 PUSH2 0x1055 JUMP JUMPDEST SWAP1 POP SWAP2 SWAP1 POP JUMP JUMPDEST PUSH2 0x108E DUP2 PUSH2 0x1074 JUMP JUMPDEST DUP3 MSTORE POP POP JUMP JUMPDEST PUSH0 PUSH2 0x109F DUP4 DUP4 PUSH2 0x1085 JUMP JUMPDEST PUSH1 0x20 DUP4 ADD SWAP1 POP SWAP3 SWAP2 POP POP JUMP JUMPDEST PUSH0 PUSH1 0x20 DUP3 ADD SWAP1 POP SWAP2 SWAP1 POP JUMP JUMPDEST PUSH0 PUSH2 0x10C1 DUP3 PUSH2 0x102C JUMP JUMPDEST PUSH2 0x10CB DUP2 DUP6 PUSH2 0x1036 JUMP JUMPDEST SWAP4 POP PUSH2 0x10D6 DUP4 PUSH2 0x1046 JUMP JUMPDEST DUP1 PUSH0 JUMPDEST DUP4 DUP2 LT ISZERO PUSH2 0x1106 JUMPI DUP2 MLOAD PUSH2 0x10ED DUP9 DUP3 PUSH2 0x1094 JUMP JUMPDEST SWAP8 POP PUSH2 0x10F8 DUP4 PUSH2 0x10AB JUMP JUMPDEST SWAP3 POP POP PUSH1 0x1 DUP2 ADD SWAP1 POP PUSH2 0x10D9 JUMP JUMPDEST POP DUP6 SWAP4 POP POP POP POP SWAP3 SWAP2 POP POP JUMP JUMPDEST PUSH0 PUSH1 0x20 DUP3 ADD SWAP1 POP DUP2 DUP2 SUB PUSH0 DUP4 ADD MSTORE PUSH2 0x112B DUP2 DUP5 PUSH2 0x10B7 JUMP JUMPDEST SWAP1 POP SWAP3 SWAP2 POP POP JUMP JUMPDEST PUSH0 PUSH0 REVERT JUMPDEST PUSH2 0x1140 DUP2 PUSH2 0x1074 JUMP JUMPDEST DUP2 EQ PUSH2 0x114A JUMPI PUSH0 PUSH0 REVERT JUMPDEST POP JUMP JUMPDEST PUSH0 DUP2 CALLDATALOAD SWAP1 POP PUSH2 0x115B DUP2 PUSH2 0x1137 JUMP JUMPDEST SWAP3 SWAP2 POP POP JUMP JUMPDEST PUSH0 DUP2 ISZERO ISZERO SWAP1 POP SWAP2 SWAP1 POP JUMP JUMPDEST PUSH2 0x1175 DUP2 PUSH2 0x1161 JUMP JUMPDEST DUP2 EQ PUSH2 0x117F JUMPI PUSH0 PUSH0 REVERT JUMPDEST POP JUMP JUMPDEST PUSH0 DUP2 CALLDATALOAD SWAP1 POP PUSH2 0x1190 DUP2 PUSH2 0x116C JUMP JUMPDEST SWAP3 SWAP2 POP POP JUMP JUMPDEST PUSH0 PUSH0 PUSH1 0x40 DUP4 DUP6 SUB SLT ISZERO PUSH2 0x11AC JUMPI PUSH2 0x11AB PUSH2 0x1133 JUMP JUMPDEST JUMPDEST PUSH0 PUSH2 0x11B9 DUP6 DUP3 DUP7 ADD PUSH2 0x114D JUMP JUMPDEST SWAP3 POP POP PUSH1 0x20 PUSH2 0x11CA DUP6 DUP3 DUP7 ADD PUSH2 0x1182 JUMP JUMPDEST SWAP2 POP POP SWAP3 POP SWAP3 SWAP1 POP JUMP JUMPDEST PUSH0 DUP2 MLOAD SWAP1 POP SWAP2 SWAP1 POP JUMP JUMPDEST PUSH0 DUP3 DUP3 MSTORE PUSH1 0x20 DUP3 ADD SWAP1 POP SWAP3 SWAP2 POP POP JUMP JUMPDEST PUSH0 DUP2 SWAP1 POP PUSH1 0x20 DUP3 ADD SWAP1 POP SWAP2 SWAP1 POP JUMP JUMPDEST PUSH2 0x1206 DUP2 PUSH2 0x1161 JUMP JUMPDEST DUP3 MSTORE POP POP JUMP JUMPDEST PUSH1 0x40 DUP3 ADD PUSH0 DUP3 ADD MLOAD PUSH2 0x1220 PUSH0 DUP6 ADD DUP3 PUSH2 0x1085 JUMP JUMPDEST POP PUSH1 0x20 DUP3 ADD MLOAD PUSH2 0x1233 PUSH1 0x20 DUP6 ADD DUP3 PUSH2 0x11FD JUMP JUMPDEST POP POP POP POP JUMP JUMPDEST PUSH0 PUSH2 0x1244 DUP4 DUP4 PUSH2 0x120C JUMP JUMPDEST PUSH1 0x40 DUP4 ADD SWAP1 POP SWAP3 SWAP2 POP POP JUMP JUMPDEST PUSH0 PUSH1 0x20 DUP3 ADD SWAP1 POP SWAP2 SWAP1 POP JUMP JUMPDEST PUSH0 PUSH2 0x1266 DUP3 PUSH2 0x11D4 JUMP JUMPDEST PUSH2 0x1270 DUP2 DUP6 PUSH2 0x11DE JUMP JUMPDEST SWAP4 POP PUSH2 0x127B DUP4 PUSH2 0x11EE JUMP JUMPDEST DUP1 PUSH0 JUMPDEST DUP4 DUP2 LT ISZERO PUSH2 0x12AB JUMPI DUP2 MLOAD PUSH2 0x1292 DUP9 DUP3 PUSH2 0x1239 JUMP JUMPDEST SWAP8 POP PUSH2 0x129D DUP4 PUSH2 0x1250 JUMP JUMPDEST SWAP3 POP POP PUSH1 0x1 DUP2 ADD SWAP1 POP PUSH2 0x127E JUMP JUMPDEST POP DUP6 SWAP4 POP POP POP POP SWAP3 SWAP2 POP POP JUMP JUMPDEST PUSH0 PUSH1 0x20 DUP3 ADD SWAP1 POP DUP2 DUP2 SUB PUSH0 DUP4 ADD MSTORE PUSH2 0x12D0 DUP2 DUP5 PUSH2 0x125C JUMP JUMPDEST SWAP1 POP SWAP3 SWAP2 POP POP JUMP JUMPDEST PUSH0 DUP2 SWAP1 POP SWAP2 SWAP1 POP JUMP JUMPDEST PUSH2 0x12EA DUP2 PUSH2 0x12D8 JUMP JUMPDEST DUP3 MSTORE POP POP JUMP JUMPDEST PUSH0 PUSH1 0x20 DUP3 ADD SWAP1 POP PUSH2 0x1303 PUSH0 DUP4 ADD DUP5 PUSH2 0x12E1 JUMP JUMPDEST SWAP3 SWAP2 POP POP JUMP JUMPDEST PUSH0 PUSH1 0x20 DUP3 DUP5 SUB SLT ISZERO PUSH2 0x131E JUMPI PUSH2 0x131D PUSH2 0x1133 JUMP JUMPDEST JUMPDEST PUSH0 PUSH2 0x132B DUP5 DUP3 DUP6 ADD PUSH2 0x114D JUMP JUMPDEST SWAP2 POP POP SWAP3 SWAP2 POP POP JUMP JUMPDEST PUSH2 0x133D DUP2 PUSH2 0x1074 JUMP JUMPDEST DUP3 MSTORE POP POP JUMP JUMPDEST PUSH0 PUSH1 0x20 DUP3 ADD SWAP1 POP PUSH2 0x1356 PUSH0 DUP4 ADD DUP5 PUSH2 0x1334 JUMP JUMPDEST SWAP3 SWAP2 POP POP JUMP JUMPDEST PUSH2 0x1365 DUP2 PUSH2 0x12D8 JUMP JUMPDEST DUP2 EQ PUSH2 0x136F JUMPI PUSH0 PUSH0 REVERT JUMPDEST POP JUMP JUMPDEST PUSH0 DUP2 CALLDATALOAD SWAP1 POP PUSH2 0x1380 DUP2 PUSH2 0x135C JUMP JUMPDEST SWAP3 SWAP2 POP POP JUMP JUMPDEST PUSH0 PUSH1 0x20 DUP3 DUP5 SUB SLT ISZERO PUSH2 0x139B JUMPI PUSH2 0x139A PUSH2 0x1133 JUMP JUMPDEST JUMPDEST PUSH0 PUSH2 0x13A8 DUP5 DUP3 DUP6 ADD PUSH2 0x1372 JUMP JUMPDEST SWAP2 POP POP SWAP3 SWAP2 POP POP JUMP JUMPDEST PUSH2 0x13BA DUP2 PUSH2 0x1161 JUMP JUMPDEST DUP3 MSTORE POP POP JUMP JUMPDEST PUSH0 PUSH1 0x40 DUP3 ADD SWAP1 POP PUSH2 0x13D3 PUSH0 DUP4 ADD DUP6 PUSH2 0x1334 JUMP JUMPDEST PUSH2 0x13E0 PUSH1 0x20 DUP4 ADD DUP5 PUSH2 0x13B1 JUMP JUMPDEST SWAP4 SWAP3 POP POP POP JUMP JUMPDEST PUSH0 DUP2 SWAP1 POP SWAP2 SWAP1 POP JUMP JUMPDEST PUSH0 PUSH2 0x140A PUSH2 0x1405 PUSH2 0x1400 DUP5 PUSH2 0x1055 JUMP JUMPDEST PUSH2 0x13E7 JUMP JUMPDEST PUSH2 0x1055 JUMP JUMPDEST SWAP1 POP SWAP2 SWAP1 POP JUMP JUMPDEST PUSH0 PUSH2 0x141B DUP3 PUSH2 0x13F0 JUMP JUMPDEST SWAP1 POP SWAP2 SWAP1 POP JUMP JUMPDEST PUSH0 PUSH2 0x142C DUP3 PUSH2 0x1411 JUMP JUMPDEST SWAP1 POP SWAP2 SWAP1 POP JUMP JUMPDEST PUSH2 0x143C DUP2 PUSH2 0x1422 JUMP JUMPDEST DUP3 MSTORE POP POP JUMP JUMPDEST PUSH0 PUSH1 0x20 DUP3 ADD SWAP1 POP PUSH2 0x1455 PUSH0 DUP4 ADD DUP5 PUSH2 0x1433 JUMP JUMPDEST SWAP3 SWAP2 POP POP JUMP JUMPDEST PUSH0 DUP3 DUP3 MSTORE PUSH1 0x20 DUP3 ADD SWAP1 POP SWAP3 SWAP2 POP POP JUMP JUMPDEST PUSH32 0x4E6F7420617574686F72697A6564000000000000000000000000000000000000 PUSH0 DUP3 ADD MSTORE POP JUMP JUMPDEST PUSH0 PUSH2 0x149F PUSH1 0xE DUP4 PUSH2 0x145B JUMP JUMPDEST SWAP2 POP PUSH2 0x14AA DUP3 PUSH2 0x146B JUMP JUMPDEST PUSH1 0x20 DUP3 ADD SWAP1 POP SWAP2 SWAP1 POP JUMP JUMPDEST PUSH0 PUSH1 0x20 DUP3 ADD SWAP1 POP DUP2 DUP2 SUB PUSH0 DUP4 ADD MSTORE PUSH2 0x14CC DUP2 PUSH2 0x1493 JUMP JUMPDEST SWAP1 POP SWAP2 SWAP1 POP JUMP JUMPDEST PUSH0 PUSH1 0x40 DUP3 ADD SWAP1 POP PUSH2 0x14E6 PUSH0 DUP4 ADD DUP6 PUSH2 0x13B1 JUMP JUMPDEST PUSH2 0x14F3 PUSH1 0x20 DUP4 ADD DUP5 PUSH2 0x12E1 JUMP JUMPDEST SWAP4 SWAP3 POP POP POP JUMP JUMPDEST PUSH32 0x4E487B7100000000000000000000000000000000000000000000000000000000 PUSH0 MSTORE PUSH1 0x41 PUSH1 0x4 MSTORE PUSH1 0x24 PUSH0 REVERT JUMPDEST PUSH32 0x4E487B7100000000000000000000000000000000000000000000000000000000 PUSH0 MSTORE PUSH1 0x32 PUSH1 0x4 MSTORE PUSH1 0x24 PUSH0 REVERT JUMPDEST PUSH32 0x4F6E6C79206F776E657200000000000000000000000000000000000000000000 PUSH0 DUP3 ADD MSTORE POP JUMP JUMPDEST PUSH0 PUSH2 0x1588 PUSH1 0xA DUP4 PUSH2 0x145B JUMP JUMPDEST SWAP2 POP PUSH2 0x1593 DUP3 PUSH2 0x1554 JUMP JUMPDEST PUSH1 0x20 DUP3 ADD SWAP1 POP SWAP2 SWAP1 POP JUMP JUMPDEST PUSH0 PUSH1 0x20 DUP3 ADD SWAP1 POP DUP2 DUP2 SUB PUSH0 DUP4 ADD MSTORE PUSH2 0x15B5 DUP2 PUSH2 0x157C JUMP JUMPDEST SWAP1 POP SWAP2 SWAP1 POP JUMP JUMPDEST PUSH0 DUP2 MLOAD SWAP1 POP PUSH2 0x15CA DUP2 PUSH2 0x135C JUMP JUMPDEST SWAP3 SWAP2 POP POP JUMP JUMPDEST PUSH0 PUSH1 0x20 DUP3 DUP5 SUB SLT ISZERO PUSH2 0x15E5 JUMPI PUSH2 0x15E4 PUSH2 0x1133 JUMP JUMPDEST JUMPDEST PUSH0 PUSH2 0x15F2 DUP5 DUP3 DUP6 ADD PUSH2 0x15BC JUMP JUMPDEST SWAP2 POP POP SWAP3 SWAP2 POP POP JUMP JUMPDEST PUSH0 PUSH1 0x40 DUP3 ADD SWAP1 POP PUSH2 0x160E PUSH0 DUP4 ADD DUP6 PUSH2 0x12E1 JUMP JUMPDEST PUSH2 0x161B PUSH1 0x20 DUP4 ADD DUP5 PUSH2 0x12E1 JUMP JUMPDEST SWAP4 SWAP3 POP POP POP JUMP JUMPDEST PUSH32 0x4E487B7100000000000000000000000000000000000000000000000000000000 PUSH0 MSTORE PUSH1 0x11 PUSH1 0x4 MSTORE PUSH1 0x24 PUSH0 REVERT JUMPDEST PUSH0 PUSH2 0x1659 DUP3 PUSH2 0x12D8 JUMP JUMPDEST SWAP2 POP PUSH2 0x1664 DUP4 PUSH2 0x12D8 JUMP JUMPDEST SWAP3 POP DUP3 DUP3 SUB SWAP1 POP DUP2 DUP2 GT ISZERO PUSH2 0x167C JUMPI PUSH2 0x167B PUSH2 0x1622 JUMP JUMPDEST JUMPDEST SWAP3 SWAP2 POP POP JUMP JUMPDEST PUSH32 0x4E487B7100000000000000000000000000000000000000000000000000000000 PUSH0 MSTORE PUSH1 0x31 PUSH1 0x4 MSTORE PUSH1 0x24 PUSH0 REVERT INVALID LOG2 PUSH5 0x6970667358 0x22 SLT KECCAK256 PUSH15 0xFBE7EFE4D77CE5ECC9184FAB674795 0x21 0xCE CALLDATACOPY DIV 0xCA EXTCODESIZE TLOAD JUMPI 0xC9 PUSH0 DUP11 0xCE SAR SUB 0xB8 NUMBER PUSH5 0x736F6C6343 STOP ADDMOD 0x1F STOP CALLER "
				},
				"gasEstimates": {
					"creation": {
						"codeDepositCost": "1172200",
						"executionCost": "25484",
						"totalCost": "1197684"
					},
					"external": {
						"activeAddresses(uint256)": "5033",
						"activeRoot()": "2491",
						"addActiveAddressDirect(address)": "infinite",
						"addPendingAddress(address,bool)": "infinite",
						"authorizedContract()": "2553",
						"checkSystemEpoch()": "infinite",
						"epochManager()": "infinite",
						"getActiveAddresses()": "infinite",
						"getPendingAddresses()": "infinite",
						"getPendingUpdates()": "infinite",
						"lastProcessedEpoch()": "2513",
						"owner()": "2575",
						"pendingRoot()": "2448",
						"pendingUpdates(uint256)": "7358",
						"setAuthorizedContract(address)": "28068",
						"setEpochManager(address)": "28067"
					},
					"internal": {
						"_addActiveAddress(address)": "infinite",
						"_checkAndHandleEpochRollover()": "infinite",
						"_removeActiveAddress(address)": "infinite"
					}
				},
				"methodIdentifiers": {
					"activeAddresses(uint256)": "c16d4423",
					"activeRoot()": "abb2efdf",
					"addActiveAddressDirect(address)": "785b4747",
					"addPendingAddress(address,bool)": "22ca098f",
					"authorizedContract()": "a6591cdf",
					"checkSystemEpoch()": "e21eb523",
					"epochManager()": "e2d2bfe3",
					"getActiveAddresses()": "1442e4c9",
					"getPendingAddresses()": "4967e428",
					"getPendingUpdates()": "5ed7e0ee",
					"lastProcessedEpoch()": "ee6713df",
					"owner()": "8da5cb5b",
					"pendingRoot()": "750588cf",
					"pendingUpdates(uint256)": "8f06499f",
					"setAuthorizedContract(address)": "9aad69e7",
					"setEpochManager(address)": "d4d59edb"
				}
			},
			"storageLayout": {
				"storage": [
					{
						"astId": 9,
						"contract": "Evm/core/validators.sol:IValidators",
						"label": "activeRoot",
						"offset": 0,
						"slot": "0",
						"type": "t_uint256"
					},
					{
						"astId": 11,
						"contract": "Evm/core/validators.sol:IValidators",
						"label": "pendingRoot",
						"offset": 0,
						"slot": "1",
						"type": "t_uint256"
					},
					{
						"astId": 19,
						"contract": "Evm/core/validators.sol:IValidators",
						"label": "activeAddresses",
						"offset": 0,
						"slot": "2",
						"type": "t_array(t_address)dyn_storage"
					},
					{
						"astId": 23,
						"contract": "Evm/core/validators.sol:IValidators",
						"label": "pendingUpdates",
						"offset": 0,
						"slot": "3",
						"type": "t_array(t_struct(PendingUpdate)16_storage)dyn_storage"
					},
					{
						"astId": 26,
						"contract": "Evm/core/validators.sol:IValidators",
						"label": "epochManager",
						"offset": 0,
						"slot": "4",
						"type": "t_contract(IEpochManager)7"
					},
					{
						"astId": 28,
						"contract": "Evm/core/validators.sol:IValidators",
						"label": "lastProcessedEpoch",
						"offset": 0,
						"slot": "5",
						"type": "t_uint256"
					},
					{
						"astId": 30,
						"contract": "Evm/core/validators.sol:IValidators",
						"label": "authorizedContract",
						"offset": 0,
						"slot": "6",
						"type": "t_address"
					},
					{
						"astId": 32,
						"contract": "Evm/core/validators.sol:IValidators",
						"label": "owner",
						"offset": 0,
						"slot": "7",
						"type": "t_address"
					}
				],
				"types": {
					"t_address": {
						"encoding": "inplace",
						"label": "address",
						"numberOfBytes": "20"
					},
					"t_array(t_address)dyn_storage": {
						"base": "t_address",
						"encoding": "dynamic_array",
						"label": "address[]",
						"numberOfBytes": "32"
					},
					"t_array(t_struct(PendingUpdate)16_storage)dyn_storage": {
						"base": "t_struct(PendingUpdate)16_storage",
						"encoding": "dynamic_array",
						"label": "struct IValidators.PendingUpdate[]",
						"numberOfBytes": "32"
					},
					"t_bool": {
						"encoding": "inplace",
						"label": "bool",
						"numberOfBytes": "1"
					},
					"t_contract(IEpochManager)7": {
						"encoding": "inplace",
						"label": "contract IEpochManager",
						"numberOfBytes": "20"
					},
					"t_struct(PendingUpdate)16_storage": {
						"encoding": "inplace",
						"label": "struct IValidators.PendingUpdate",
						"members": [
							{
								"astId": 13,
								"contract": "Evm/core/validators.sol:IValidators",
								"label": "validator",
								"offset": 0,
								"slot": "0",
								"type": "t_address"
							},
							{
								"astId": 15,
								"contract": "Evm/core/validators.sol:IValidators",
								"label": "isRemoval",
								"offset": 20,
								"slot": "0",
								"type": "t_bool"
							}
						],
						"numberOfBytes": "32"
					},
					"t_uint256": {
						"encoding": "inplace",
						"label": "uint256",
						"numberOfBytes": "32"
					}
				}
			},
			"userdoc": {
				"kind": "user",
				"methods": {
					"getPendingAddresses()": {
						"notice": "Backwards compatibility helper: extracts just the addresses from pending queue [1]"
					},
					"getPendingUpdates()": {
						"notice": "Returns the raw PendingUpdate structs queue [1]"
					}
				},
				"version": 1
			}
		}
	}
}