{
	"Evm/zk/validators_verifier.sol": {
		"Verifier": {
			"abi": [
				{
					"inputs": [],
					"name": "ProofInvalid",
					"type": "error"
				},
				{
					"inputs": [],
					"name": "PublicInputNotInField",
					"type": "error"
				},
				{
					"inputs": [
						{
							"internalType": "uint256[8]",
							"name": "proof",
							"type": "uint256[8]"
						}
					],
					"name": "compressProof",
					"outputs": [
						{
							"internalType": "uint256[4]",
							"name": "compressed",
							"type": "uint256[4]"
						}
					],
					"stateMutability": "view",
					"type": "function"
				},
				{
					"inputs": [
						{
							"internalType": "uint256[4]",
							"name": "compressedProof",
							"type": "uint256[4]"
						},
						{
							"internalType": "uint256[5]",
							"name": "input",
							"type": "uint256[5]"
						}
					],
					"name": "verifyCompressedProof",
					"outputs": [],
					"stateMutability": "view",
					"type": "function"
				},
				{
					"inputs": [
						{
							"internalType": "uint256[8]",
							"name": "proof",
							"type": "uint256[8]"
						},
						{
							"internalType": "uint256[5]",
							"name": "input",
							"type": "uint256[5]"
						}
					],
					"name": "verifyProof",
					"outputs": [],
					"stateMutability": "view",
					"type": "function"
				}
			],
			"devdoc": {
				"author": "Remco Bloemen",
				"errors": {
					"ProofInvalid()": [
						{
							"details": "This can mean that provided Groth16 proof points are not on their curves, that pairing equation fails, or that the proof is not for the provided public input."
						}
					],
					"PublicInputNotInField()": [
						{
							"details": "Public input elements are not automatically reduced, as this is can be a dangerous source of bugs."
						}
					]
				},
				"kind": "dev",
				"methods": {
					"compressProof(uint256[8])": {
						"params": {
							"proof": "The uncompressed Groth16 proof. Elements are in the same order as for verifyProof. I.e. Groth16 points (A, B, C) encoded as in EIP-197."
						},
						"returns": {
							"compressed": "The compressed proof. Elements are in the same order as for verifyCompressedProof. I.e. points (A, B, C) in compressed format."
						}
					},
					"verifyCompressedProof(uint256[4],uint256[5])": {
						"params": {
							"compressedProof": "the points (A, B, C) in compressed format matching the output of compressProof.",
							"input": "the public input field elements in the scalar field Fr. Elements must be reduced."
						}
					},
					"verifyProof(uint256[8],uint256[5])": {
						"params": {
							"input": "the public input field elements in the scalar field Fr. Elements must be reduced.",
							"proof": "the points (A, B, C) in EIP-197 format matching the output of compressProof."
						}
					}
				},
				"title": "Groth16 verifier template.",
				"version": 1
			},
			"evm": {
				"assembly": "    /* \"Evm/zk/validators_verifier.sol\":394:26875  contract Verifier {... */\n  mstore(0x40, 0x80)\n  callvalue\n  dup1\n  iszero\n  tag_1\n  jumpi\n  revert(0x00, 0x00)\ntag_1:\n  pop\n  dataSize(sub_0)\n  dup1\n  dataOffset(sub_0)\n  0x00\n  codecopy\n  0x00\n  return\nstop\n\nsub_0: assembly {\n        /* \"Evm/zk/validators_verifier.sol\":394:26875  contract Verifier {... */\n      mstore(0x40, 0x80)\n      callvalue\n      dup1\n      iszero\n      tag_1\n      jumpi\n      revert(0x00, 0x00)\n    tag_1:\n      pop\n      jumpi(tag_2, lt(calldatasize, 0x04))\n      shr(0xe0, calldataload(0x00))\n      dup1\n      0x2a07d99a\n      eq\n      tag_3\n      jumpi\n      dup1\n      0x44f63692\n      eq\n      tag_4\n      jumpi\n      dup1\n      0xa6708604\n      eq\n      tag_5\n      jumpi\n    tag_2:\n      revert(0x00, 0x00)\n        /* \"Evm/zk/validators_verifier.sol\":24698:26872  function verifyProof(... */\n    tag_3:\n      tag_6\n      0x04\n      dup1\n      calldatasize\n      sub\n      dup2\n      add\n      swap1\n      tag_7\n      swap2\n      swap1\n      tag_8\n      jump\t// in\n    tag_7:\n      tag_9\n      jump\t// in\n    tag_6:\n      stop\n        /* \"Evm/zk/validators_verifier.sol\":20975:21300  function compressProof(uint256[8] calldata proof)... */\n    tag_4:\n      tag_10\n      0x04\n      dup1\n      calldatasize\n      sub\n      dup2\n      add\n      swap1\n      tag_11\n      swap2\n      swap1\n      tag_12\n      jump\t// in\n    tag_11:\n      tag_13\n      jump\t// in\n    tag_10:\n      mload(0x40)\n      tag_14\n      swap2\n      swap1\n      tag_15\n      jump\t// in\n    tag_14:\n      mload(0x40)\n      dup1\n      swap2\n      sub\n      swap1\n      return\n        /* \"Evm/zk/validators_verifier.sol\":21859:24161  function verifyCompressedProof(... */\n    tag_5:\n      tag_16\n      0x04\n      dup1\n      calldatasize\n      sub\n      dup2\n      add\n      swap1\n      tag_17\n      swap2\n      swap1\n      tag_18\n      jump\t// in\n    tag_17:\n      tag_19\n      jump\t// in\n    tag_16:\n      stop\n        /* \"Evm/zk/validators_verifier.sol\":24698:26872  function verifyProof(... */\n    tag_9:\n        /* \"Evm/zk/validators_verifier.sol\":24822:24831  uint256 x */\n      0x00\n        /* \"Evm/zk/validators_verifier.sol\":24833:24842  uint256 y */\n      0x00\n        /* \"Evm/zk/validators_verifier.sol\":24846:24867  publicInputMSM(input) */\n      tag_21\n        /* \"Evm/zk/validators_verifier.sol\":24861:24866  input */\n      dup4\n        /* \"Evm/zk/validators_verifier.sol\":24846:24860  publicInputMSM */\n      tag_22\n        /* \"Evm/zk/validators_verifier.sol\":24846:24867  publicInputMSM(input) */\n      jump\t// in\n    tag_21:\n        /* \"Evm/zk/validators_verifier.sol\":24821:24867  (uint256 x, uint256 y) = publicInputMSM(input) */\n      swap2\n      pop\n      swap2\n      pop\n        /* \"Evm/zk/validators_verifier.sol\":25058:25070  bool success */\n      0x00\n        /* \"Evm/zk/validators_verifier.sol\":25136:25140  0x40 */\n      0x40\n        /* \"Evm/zk/validators_verifier.sol\":25130:25141  mload(0x40) */\n      mload\n        /* \"Evm/zk/validators_verifier.sol\":25352:25357  0x100 */\n      0x0100\n        /* \"Evm/zk/validators_verifier.sol\":25345:25350  proof */\n      dup7\n        /* \"Evm/zk/validators_verifier.sol\":25342:25343  f */\n      dup3\n        /* \"Evm/zk/validators_verifier.sol\":25329:25358  calldatacopy(f, proof, 0x100) */\n      calldatacopy\n        /* \"Evm/zk/validators_verifier.sol\":25666:25679  DELTA_NEG_X_1 */\n      0x102ca580f22bffbed09641ba183843f2c139a72b177483ec4bcb54500d0c5adb\n        /* \"Evm/zk/validators_verifier.sol\":25658:25663  0x100 */\n      0x0100\n        /* \"Evm/zk/validators_verifier.sol\":25655:25656  f */\n      dup3\n        /* \"Evm/zk/validators_verifier.sol\":25651:25664  add(f, 0x100) */\n      add\n        /* \"Evm/zk/validators_verifier.sol\":25644:25680  mstore(add(f, 0x100), DELTA_NEG_X_1) */\n      mstore\n        /* \"Evm/zk/validators_verifier.sol\":25716:25729  DELTA_NEG_X_0 */\n      0x0ad2ae4511845a6b6e3150e2322ecffc3f9eb1f5011af6cd9f2d82944feeb306\n        /* \"Evm/zk/validators_verifier.sol\":25708:25713  0x120 */\n      0x0120\n        /* \"Evm/zk/validators_verifier.sol\":25705:25706  f */\n      dup3\n        /* \"Evm/zk/validators_verifier.sol\":25701:25714  add(f, 0x120) */\n      add\n        /* \"Evm/zk/validators_verifier.sol\":25694:25730  mstore(add(f, 0x120), DELTA_NEG_X_0) */\n      mstore\n        /* \"Evm/zk/validators_verifier.sol\":25766:25779  DELTA_NEG_Y_1 */\n      0x18a6dd900fb75a47740a8df4666473c392d2df4a5b0364d67d23ceb2ef0321f1\n        /* \"Evm/zk/validators_verifier.sol\":25758:25763  0x140 */\n      0x0140\n        /* \"Evm/zk/validators_verifier.sol\":25755:25756  f */\n      dup3\n        /* \"Evm/zk/validators_verifier.sol\":25751:25764  add(f, 0x140) */\n      add\n        /* \"Evm/zk/validators_verifier.sol\":25744:25780  mstore(add(f, 0x140), DELTA_NEG_Y_1) */\n      mstore\n        /* \"Evm/zk/validators_verifier.sol\":25816:25829  DELTA_NEG_Y_0 */\n      0x018db34be067304d60aa80604283f3b2cd9902fb7562ec08fdbae4e4c8f9891f\n        /* \"Evm/zk/validators_verifier.sol\":25808:25813  0x160 */\n      0x0160\n        /* \"Evm/zk/validators_verifier.sol\":25805:25806  f */\n      dup3\n        /* \"Evm/zk/validators_verifier.sol\":25801:25814  add(f, 0x160) */\n      add\n        /* \"Evm/zk/validators_verifier.sol\":25794:25830  mstore(add(f, 0x160), DELTA_NEG_Y_0) */\n      mstore\n        /* \"Evm/zk/validators_verifier.sol\":25866:25873  ALPHA_X */\n      0x2519a8bc0c6a2c35bd4c9ba88ecd3872f6686784b1dfd3a9b8968121705f492e\n        /* \"Evm/zk/validators_verifier.sol\":25858:25863  0x180 */\n      0x0180\n        /* \"Evm/zk/validators_verifier.sol\":25855:25856  f */\n      dup3\n        /* \"Evm/zk/validators_verifier.sol\":25851:25864  add(f, 0x180) */\n      add\n        /* \"Evm/zk/validators_verifier.sol\":25844:25874  mstore(add(f, 0x180), ALPHA_X) */\n      mstore\n        /* \"Evm/zk/validators_verifier.sol\":25910:25917  ALPHA_Y */\n      0x084bac615aca50781756001a357c1ad40f6362495dd2bbfb8da9d475c5a7b2d9\n        /* \"Evm/zk/validators_verifier.sol\":25902:25907  0x1a0 */\n      0x01a0\n        /* \"Evm/zk/validators_verifier.sol\":25899:25900  f */\n      dup3\n        /* \"Evm/zk/validators_verifier.sol\":25895:25908  add(f, 0x1a0) */\n      add\n        /* \"Evm/zk/validators_verifier.sol\":25888:25918  mstore(add(f, 0x1a0), ALPHA_Y) */\n      mstore\n        /* \"Evm/zk/validators_verifier.sol\":25954:25966  BETA_NEG_X_1 */\n      0x24b6d7abb533caaef2ceec030f3f633b771761753749b3d5496a85699ced5a\n        /* \"Evm/zk/validators_verifier.sol\":25946:25951  0x1c0 */\n      0x01c0\n        /* \"Evm/zk/validators_verifier.sol\":25943:25944  f */\n      dup3\n        /* \"Evm/zk/validators_verifier.sol\":25939:25952  add(f, 0x1c0) */\n      add\n        /* \"Evm/zk/validators_verifier.sol\":25932:25967  mstore(add(f, 0x1c0), BETA_NEG_X_1) */\n      mstore\n        /* \"Evm/zk/validators_verifier.sol\":26003:26015  BETA_NEG_X_0 */\n      0xc3ec19c370e7dbbec4983cf277d13ed455ae3d30e51e1dcd30810f97c39012\n        /* \"Evm/zk/validators_verifier.sol\":25995:26000  0x1e0 */\n      0x01e0\n        /* \"Evm/zk/validators_verifier.sol\":25992:25993  f */\n      dup3\n        /* \"Evm/zk/validators_verifier.sol\":25988:26001  add(f, 0x1e0) */\n      add\n        /* \"Evm/zk/validators_verifier.sol\":25981:26016  mstore(add(f, 0x1e0), BETA_NEG_X_0) */\n      mstore\n        /* \"Evm/zk/validators_verifier.sol\":26052:26064  BETA_NEG_Y_1 */\n      0x02ce121f6d665a5a4704ca958ae8a6fb0117d7acee5fd7f176a28d93bffec709\n        /* \"Evm/zk/validators_verifier.sol\":26044:26049  0x200 */\n      0x0200\n        /* \"Evm/zk/validators_verifier.sol\":26041:26042  f */\n      dup3\n        /* \"Evm/zk/validators_verifier.sol\":26037:26050  add(f, 0x200) */\n      add\n        /* \"Evm/zk/validators_verifier.sol\":26030:26065  mstore(add(f, 0x200), BETA_NEG_Y_1) */\n      mstore\n        /* \"Evm/zk/validators_verifier.sol\":26101:26113  BETA_NEG_Y_0 */\n      0x12ef6b7a7f48c342f20a44b8932bf5e96141588eba26bec9de196cb5fb09995e\n        /* \"Evm/zk/validators_verifier.sol\":26093:26098  0x220 */\n      0x0220\n        /* \"Evm/zk/validators_verifier.sol\":26090:26091  f */\n      dup3\n        /* \"Evm/zk/validators_verifier.sol\":26086:26099  add(f, 0x220) */\n      add\n        /* \"Evm/zk/validators_verifier.sol\":26079:26114  mstore(add(f, 0x220), BETA_NEG_Y_0) */\n      mstore\n        /* \"Evm/zk/validators_verifier.sol\":26150:26151  x */\n      dup4\n        /* \"Evm/zk/validators_verifier.sol\":26142:26147  0x240 */\n      0x0240\n        /* \"Evm/zk/validators_verifier.sol\":26139:26140  f */\n      dup3\n        /* \"Evm/zk/validators_verifier.sol\":26135:26148  add(f, 0x240) */\n      add\n        /* \"Evm/zk/validators_verifier.sol\":26128:26152  mstore(add(f, 0x240), x) */\n      mstore\n        /* \"Evm/zk/validators_verifier.sol\":26188:26189  y */\n      dup3\n        /* \"Evm/zk/validators_verifier.sol\":26180:26185  0x260 */\n      0x0260\n        /* \"Evm/zk/validators_verifier.sol\":26177:26178  f */\n      dup3\n        /* \"Evm/zk/validators_verifier.sol\":26173:26186  add(f, 0x260) */\n      add\n        /* \"Evm/zk/validators_verifier.sol\":26166:26190  mstore(add(f, 0x260), y) */\n      mstore\n        /* \"Evm/zk/validators_verifier.sol\":26226:26239  GAMMA_NEG_X_1 */\n      0x20e999258061df56e1972696dd7b46c8f6ecb3196711cabb29b2c681d15aa555\n        /* \"Evm/zk/validators_verifier.sol\":26218:26223  0x280 */\n      0x0280\n        /* \"Evm/zk/validators_verifier.sol\":26215:26216  f */\n      dup3\n        /* \"Evm/zk/validators_verifier.sol\":26211:26224  add(f, 0x280) */\n      add\n        /* \"Evm/zk/validators_verifier.sol\":26204:26240  mstore(add(f, 0x280), GAMMA_NEG_X_1) */\n      mstore\n        /* \"Evm/zk/validators_verifier.sol\":26276:26289  GAMMA_NEG_X_0 */\n      0x0280ada90b75034b8854a0c242cf6ae46ee37d31978547bd603eed9d54373a62\n        /* \"Evm/zk/validators_verifier.sol\":26268:26273  0x2a0 */\n      0x02a0\n        /* \"Evm/zk/validators_verifier.sol\":26265:26266  f */\n      dup3\n        /* \"Evm/zk/validators_verifier.sol\":26261:26274  add(f, 0x2a0) */\n      add\n        /* \"Evm/zk/validators_verifier.sol\":26254:26290  mstore(add(f, 0x2a0), GAMMA_NEG_X_0) */\n      mstore\n        /* \"Evm/zk/validators_verifier.sol\":26326:26339  GAMMA_NEG_Y_1 */\n      0x14d2332dc46a93446b7809494a1f8ac5e1e803c8ee42e37b94754514cece6668\n        /* \"Evm/zk/validators_verifier.sol\":26318:26323  0x2c0 */\n      0x02c0\n        /* \"Evm/zk/validators_verifier.sol\":26315:26316  f */\n      dup3\n        /* \"Evm/zk/validators_verifier.sol\":26311:26324  add(f, 0x2c0) */\n      add\n        /* \"Evm/zk/validators_verifier.sol\":26304:26340  mstore(add(f, 0x2c0), GAMMA_NEG_Y_1) */\n      mstore\n        /* \"Evm/zk/validators_verifier.sol\":26376:26389  GAMMA_NEG_Y_0 */\n      0x19f3613ca821ff43d0074e17c318ccd90357f062831e8ef3bdad12ecd184d690\n        /* \"Evm/zk/validators_verifier.sol\":26368:26373  0x2e0 */\n      0x02e0\n        /* \"Evm/zk/validators_verifier.sol\":26365:26366  f */\n      dup3\n        /* \"Evm/zk/validators_verifier.sol\":26361:26374  add(f, 0x2e0) */\n      add\n        /* \"Evm/zk/validators_verifier.sol\":26354:26390  mstore(add(f, 0x2e0), GAMMA_NEG_Y_0) */\n      mstore\n        /* \"Evm/zk/validators_verifier.sol\":26507:26511  0x20 */\n      0x20\n        /* \"Evm/zk/validators_verifier.sol\":26504:26505  f */\n      dup2\n        /* \"Evm/zk/validators_verifier.sol\":26497:26502  0x300 */\n      0x0300\n        /* \"Evm/zk/validators_verifier.sol\":26494:26495  f */\n      dup4\n        /* \"Evm/zk/validators_verifier.sol\":26475:26492  PRECOMPILE_VERIFY */\n      0x08\n        /* \"Evm/zk/validators_verifier.sol\":26468:26473  gas() */\n      gas\n        /* \"Evm/zk/validators_verifier.sol\":26457:26512  staticcall(gas(), PRECOMPILE_VERIFY, f, 0x300, f, 0x20) */\n      staticcall\n        /* \"Evm/zk/validators_verifier.sol\":26446:26512  success := staticcall(gas(), PRECOMPILE_VERIFY, f, 0x300, f, 0x20) */\n      swap2\n      pop\n        /* \"Evm/zk/validators_verifier.sol\":26624:26625  f */\n      dup1\n        /* \"Evm/zk/validators_verifier.sol\":26618:26626  mload(f) */\n      mload\n        /* \"Evm/zk/validators_verifier.sol\":26609:26616  success */\n      dup3\n        /* \"Evm/zk/validators_verifier.sol\":26605:26627  and(success, mload(f)) */\n      and\n        /* \"Evm/zk/validators_verifier.sol\":26594:26627  success := and(success, mload(f)) */\n      swap2\n      pop\n        /* \"Evm/zk/validators_verifier.sol\":25106:26638  {... */\n      pop\n        /* \"Evm/zk/validators_verifier.sol\":26653:26660  success */\n      dup1\n        /* \"Evm/zk/validators_verifier.sol\":26648:26865  if (!success) {... */\n      tag_23\n      jumpi\n        /* \"Evm/zk/validators_verifier.sol\":26839:26853  ProofInvalid() */\n      mload(0x40)\n      0x7fcdd1f400000000000000000000000000000000000000000000000000000000\n      dup2\n      mstore\n      0x04\n      add\n      mload(0x40)\n      dup1\n      swap2\n      sub\n      swap1\n      revert\n        /* \"Evm/zk/validators_verifier.sol\":26648:26865  if (!success) {... */\n    tag_23:\n        /* \"Evm/zk/validators_verifier.sol\":24810:26872  {... */\n      pop\n      pop\n      pop\n        /* \"Evm/zk/validators_verifier.sol\":24698:26872  function verifyProof(... */\n      pop\n      pop\n      jump\t// out\n        /* \"Evm/zk/validators_verifier.sol\":20975:21300  function compressProof(uint256[8] calldata proof)... */\n    tag_13:\n        /* \"Evm/zk/validators_verifier.sol\":21051:21079  uint256[4] memory compressed */\n      tag_24\n      tag_25\n      jump\t// in\n    tag_24:\n        /* \"Evm/zk/validators_verifier.sol\":21108:21139  compress_g1(proof[0], proof[1]) */\n      tag_27\n        /* \"Evm/zk/validators_verifier.sol\":21120:21125  proof */\n      dup3\n        /* \"Evm/zk/validators_verifier.sol\":21126:21127  0 */\n      0x00\n        /* \"Evm/zk/validators_verifier.sol\":21120:21128  proof[0] */\n      0x08\n      dup2\n      lt\n      tag_28\n      jumpi\n      tag_29\n      tag_30\n      jump\t// in\n    tag_29:\n    tag_28:\n      0x20\n      mul\n      add\n      calldataload\n        /* \"Evm/zk/validators_verifier.sol\":21130:21135  proof */\n      dup4\n        /* \"Evm/zk/validators_verifier.sol\":21136:21137  1 */\n      0x01\n        /* \"Evm/zk/validators_verifier.sol\":21130:21138  proof[1] */\n      0x08\n      dup2\n      lt\n      tag_31\n      jumpi\n      tag_32\n      tag_30\n      jump\t// in\n    tag_32:\n    tag_31:\n      0x20\n      mul\n      add\n      calldataload\n        /* \"Evm/zk/validators_verifier.sol\":21108:21119  compress_g1 */\n      tag_33\n        /* \"Evm/zk/validators_verifier.sol\":21108:21139  compress_g1(proof[0], proof[1]) */\n      jump\t// in\n    tag_27:\n        /* \"Evm/zk/validators_verifier.sol\":21092:21102  compressed */\n      dup2\n        /* \"Evm/zk/validators_verifier.sol\":21103:21104  0 */\n      0x00\n        /* \"Evm/zk/validators_verifier.sol\":21092:21105  compressed[0] */\n      0x04\n      dup2\n      lt\n      tag_34\n      jumpi\n      tag_35\n      tag_30\n      jump\t// in\n    tag_35:\n    tag_34:\n      0x20\n      mul\n      add\n        /* \"Evm/zk/validators_verifier.sol\":21092:21139  compressed[0] = compress_g1(proof[0], proof[1]) */\n      dup2\n      dup2\n      mstore\n      pop\n      pop\n        /* \"Evm/zk/validators_verifier.sol\":21183:21234  compress_g2(proof[3], proof[2], proof[5], proof[4]) */\n      tag_36\n        /* \"Evm/zk/validators_verifier.sol\":21195:21200  proof */\n      dup3\n        /* \"Evm/zk/validators_verifier.sol\":21201:21202  3 */\n      0x03\n        /* \"Evm/zk/validators_verifier.sol\":21195:21203  proof[3] */\n      0x08\n      dup2\n      lt\n      tag_37\n      jumpi\n      tag_38\n      tag_30\n      jump\t// in\n    tag_38:\n    tag_37:\n      0x20\n      mul\n      add\n      calldataload\n        /* \"Evm/zk/validators_verifier.sol\":21205:21210  proof */\n      dup4\n        /* \"Evm/zk/validators_verifier.sol\":21211:21212  2 */\n      0x02\n        /* \"Evm/zk/validators_verifier.sol\":21205:21213  proof[2] */\n      0x08\n      dup2\n      lt\n      tag_39\n      jumpi\n      tag_40\n      tag_30\n      jump\t// in\n    tag_40:\n    tag_39:\n      0x20\n      mul\n      add\n      calldataload\n        /* \"Evm/zk/validators_verifier.sol\":21215:21220  proof */\n      dup5\n        /* \"Evm/zk/validators_verifier.sol\":21221:21222  5 */\n      0x05\n        /* \"Evm/zk/validators_verifier.sol\":21215:21223  proof[5] */\n      0x08\n      dup2\n      lt\n      tag_41\n      jumpi\n      tag_42\n      tag_30\n      jump\t// in\n    tag_42:\n    tag_41:\n      0x20\n      mul\n      add\n      calldataload\n        /* \"Evm/zk/validators_verifier.sol\":21225:21230  proof */\n      dup6\n        /* \"Evm/zk/validators_verifier.sol\":21231:21232  4 */\n      0x04\n        /* \"Evm/zk/validators_verifier.sol\":21225:21233  proof[4] */\n      0x08\n      dup2\n      lt\n      tag_43\n      jumpi\n      tag_44\n      tag_30\n      jump\t// in\n    tag_44:\n    tag_43:\n      0x20\n      mul\n      add\n      calldataload\n        /* \"Evm/zk/validators_verifier.sol\":21183:21194  compress_g2 */\n      tag_45\n        /* \"Evm/zk/validators_verifier.sol\":21183:21234  compress_g2(proof[3], proof[2], proof[5], proof[4]) */\n      jump\t// in\n    tag_36:\n        /* \"Evm/zk/validators_verifier.sol\":21151:21161  compressed */\n      dup3\n        /* \"Evm/zk/validators_verifier.sol\":21162:21163  2 */\n      0x02\n        /* \"Evm/zk/validators_verifier.sol\":21151:21164  compressed[2] */\n      0x04\n      dup2\n      lt\n      tag_46\n      jumpi\n      tag_47\n      tag_30\n      jump\t// in\n    tag_47:\n    tag_46:\n      0x20\n      mul\n      add\n        /* \"Evm/zk/validators_verifier.sol\":21166:21176  compressed */\n      dup4\n        /* \"Evm/zk/validators_verifier.sol\":21177:21178  1 */\n      0x01\n        /* \"Evm/zk/validators_verifier.sol\":21166:21179  compressed[1] */\n      0x04\n      dup2\n      lt\n      tag_48\n      jumpi\n      tag_49\n      tag_30\n      jump\t// in\n    tag_49:\n    tag_48:\n      0x20\n      mul\n      add\n        /* \"Evm/zk/validators_verifier.sol\":21150:21234  (compressed[2], compressed[1]) = compress_g2(proof[3], proof[2], proof[5], proof[4]) */\n      dup3\n      dup2\n      mstore\n      pop\n      dup3\n      dup2\n      mstore\n      pop\n      pop\n      pop\n        /* \"Evm/zk/validators_verifier.sol\":21261:21292  compress_g1(proof[6], proof[7]) */\n      tag_50\n        /* \"Evm/zk/validators_verifier.sol\":21273:21278  proof */\n      dup3\n        /* \"Evm/zk/validators_verifier.sol\":21279:21280  6 */\n      0x06\n        /* \"Evm/zk/validators_verifier.sol\":21273:21281  proof[6] */\n      0x08\n      dup2\n      lt\n      tag_51\n      jumpi\n      tag_52\n      tag_30\n      jump\t// in\n    tag_52:\n    tag_51:\n      0x20\n      mul\n      add\n      calldataload\n        /* \"Evm/zk/validators_verifier.sol\":21283:21288  proof */\n      dup4\n        /* \"Evm/zk/validators_verifier.sol\":21289:21290  7 */\n      0x07\n        /* \"Evm/zk/validators_verifier.sol\":21283:21291  proof[7] */\n      0x08\n      dup2\n      lt\n      tag_53\n      jumpi\n      tag_54\n      tag_30\n      jump\t// in\n    tag_54:\n    tag_53:\n      0x20\n      mul\n      add\n      calldataload\n        /* \"Evm/zk/validators_verifier.sol\":21261:21272  compress_g1 */\n      tag_33\n        /* \"Evm/zk/validators_verifier.sol\":21261:21292  compress_g1(proof[6], proof[7]) */\n      jump\t// in\n    tag_50:\n        /* \"Evm/zk/validators_verifier.sol\":21245:21255  compressed */\n      dup2\n        /* \"Evm/zk/validators_verifier.sol\":21256:21257  3 */\n      0x03\n        /* \"Evm/zk/validators_verifier.sol\":21245:21258  compressed[3] */\n      0x04\n      dup2\n      lt\n      tag_55\n      jumpi\n      tag_56\n      tag_30\n      jump\t// in\n    tag_56:\n    tag_55:\n      0x20\n      mul\n      add\n        /* \"Evm/zk/validators_verifier.sol\":21245:21292  compressed[3] = compress_g1(proof[6], proof[7]) */\n      dup2\n      dup2\n      mstore\n      pop\n      pop\n        /* \"Evm/zk/validators_verifier.sol\":20975:21300  function compressProof(uint256[8] calldata proof)... */\n      swap2\n      swap1\n      pop\n      jump\t// out\n        /* \"Evm/zk/validators_verifier.sol\":21859:24161  function verifyCompressedProof(... */\n    tag_19:\n        /* \"Evm/zk/validators_verifier.sol\":22002:22029  uint256[24] memory pairings */\n      tag_58\n      tag_59\n      jump\t// in\n    tag_58:\n        /* \"Evm/zk/validators_verifier.sol\":22058:22068  uint256 Ax */\n      0x00\n        /* \"Evm/zk/validators_verifier.sol\":22070:22080  uint256 Ay */\n      0x00\n        /* \"Evm/zk/validators_verifier.sol\":22084:22117  decompress_g1(compressedProof[0]) */\n      tag_60\n        /* \"Evm/zk/validators_verifier.sol\":22098:22113  compressedProof */\n      dup6\n        /* \"Evm/zk/validators_verifier.sol\":22114:22115  0 */\n      0x00\n        /* \"Evm/zk/validators_verifier.sol\":22098:22116  compressedProof[0] */\n      0x04\n      dup2\n      lt\n      tag_61\n      jumpi\n      tag_62\n      tag_30\n      jump\t// in\n    tag_62:\n    tag_61:\n      0x20\n      mul\n      add\n      calldataload\n        /* \"Evm/zk/validators_verifier.sol\":22084:22097  decompress_g1 */\n      tag_63\n        /* \"Evm/zk/validators_verifier.sol\":22084:22117  decompress_g1(compressedProof[0]) */\n      jump\t// in\n    tag_60:\n        /* \"Evm/zk/validators_verifier.sol\":22057:22117  (uint256 Ax, uint256 Ay) = decompress_g1(compressedProof[0]) */\n      swap2\n      pop\n      swap2\n      pop\n        /* \"Evm/zk/validators_verifier.sol\":22133:22144  uint256 Bx0 */\n      0x00\n        /* \"Evm/zk/validators_verifier.sol\":22146:22157  uint256 Bx1 */\n      0x00\n        /* \"Evm/zk/validators_verifier.sol\":22159:22170  uint256 By0 */\n      0x00\n        /* \"Evm/zk/validators_verifier.sol\":22172:22183  uint256 By1 */\n      0x00\n        /* \"Evm/zk/validators_verifier.sol\":22187:22240  decompress_g2(compressedProof[2], compressedProof[1]) */\n      tag_64\n        /* \"Evm/zk/validators_verifier.sol\":22201:22216  compressedProof */\n      dup10\n        /* \"Evm/zk/validators_verifier.sol\":22217:22218  2 */\n      0x02\n        /* \"Evm/zk/validators_verifier.sol\":22201:22219  compressedProof[2] */\n      0x04\n      dup2\n      lt\n      tag_65\n      jumpi\n      tag_66\n      tag_30\n      jump\t// in\n    tag_66:\n    tag_65:\n      0x20\n      mul\n      add\n      calldataload\n        /* \"Evm/zk/validators_verifier.sol\":22221:22236  compressedProof */\n      dup11\n        /* \"Evm/zk/validators_verifier.sol\":22237:22238  1 */\n      0x01\n        /* \"Evm/zk/validators_verifier.sol\":22221:22239  compressedProof[1] */\n      0x04\n      dup2\n      lt\n      tag_67\n      jumpi\n      tag_68\n      tag_30\n      jump\t// in\n    tag_68:\n    tag_67:\n      0x20\n      mul\n      add\n      calldataload\n        /* \"Evm/zk/validators_verifier.sol\":22187:22200  decompress_g2 */\n      tag_69\n        /* \"Evm/zk/validators_verifier.sol\":22187:22240  decompress_g2(compressedProof[2], compressedProof[1]) */\n      jump\t// in\n    tag_64:\n        /* \"Evm/zk/validators_verifier.sol\":22132:22240  (uint256 Bx0, uint256 Bx1, uint256 By0, uint256 By1) = decompress_g2(compressedProof[2], compressedProof[1]) */\n      swap4\n      pop\n      swap4\n      pop\n      swap4\n      pop\n      swap4\n      pop\n        /* \"Evm/zk/validators_verifier.sol\":22256:22266  uint256 Cx */\n      0x00\n        /* \"Evm/zk/validators_verifier.sol\":22268:22278  uint256 Cy */\n      0x00\n        /* \"Evm/zk/validators_verifier.sol\":22282:22315  decompress_g1(compressedProof[3]) */\n      tag_70\n        /* \"Evm/zk/validators_verifier.sol\":22296:22311  compressedProof */\n      dup12\n        /* \"Evm/zk/validators_verifier.sol\":22312:22313  3 */\n      0x03\n        /* \"Evm/zk/validators_verifier.sol\":22296:22314  compressedProof[3] */\n      0x04\n      dup2\n      lt\n      tag_71\n      jumpi\n      tag_72\n      tag_30\n      jump\t// in\n    tag_72:\n    tag_71:\n      0x20\n      mul\n      add\n      calldataload\n        /* \"Evm/zk/validators_verifier.sol\":22282:22295  decompress_g1 */\n      tag_63\n        /* \"Evm/zk/validators_verifier.sol\":22282:22315  decompress_g1(compressedProof[3]) */\n      jump\t// in\n    tag_70:\n        /* \"Evm/zk/validators_verifier.sol\":22255:22315  (uint256 Cx, uint256 Cy) = decompress_g1(compressedProof[3]) */\n      swap2\n      pop\n      swap2\n      pop\n        /* \"Evm/zk/validators_verifier.sol\":22331:22341  uint256 Lx */\n      0x00\n        /* \"Evm/zk/validators_verifier.sol\":22343:22353  uint256 Ly */\n      0x00\n        /* \"Evm/zk/validators_verifier.sol\":22357:22378  publicInputMSM(input) */\n      tag_73\n        /* \"Evm/zk/validators_verifier.sol\":22372:22377  input */\n      dup13\n        /* \"Evm/zk/validators_verifier.sol\":22357:22371  publicInputMSM */\n      tag_22\n        /* \"Evm/zk/validators_verifier.sol\":22357:22378  publicInputMSM(input) */\n      jump\t// in\n    tag_73:\n        /* \"Evm/zk/validators_verifier.sol\":22330:22378  (uint256 Lx, uint256 Ly) = publicInputMSM(input) */\n      swap2\n      pop\n      swap2\n      pop\n        /* \"Evm/zk/validators_verifier.sol\":22655:22657  Ax */\n      dup10\n        /* \"Evm/zk/validators_verifier.sol\":22640:22648  pairings */\n      dup12\n        /* \"Evm/zk/validators_verifier.sol\":22650:22651  0 */\n      0x00\n        /* \"Evm/zk/validators_verifier.sol\":22640:22652  pairings[ 0] */\n      0x18\n      dup2\n      lt\n      tag_74\n      jumpi\n      tag_75\n      tag_30\n      jump\t// in\n    tag_75:\n    tag_74:\n      0x20\n      mul\n      add\n        /* \"Evm/zk/validators_verifier.sol\":22640:22657  pairings[ 0] = Ax */\n      dup2\n      dup2\n      mstore\n      pop\n      pop\n        /* \"Evm/zk/validators_verifier.sol\":22687:22689  Ay */\n      dup9\n        /* \"Evm/zk/validators_verifier.sol\":22672:22680  pairings */\n      dup12\n        /* \"Evm/zk/validators_verifier.sol\":22682:22683  1 */\n      0x01\n        /* \"Evm/zk/validators_verifier.sol\":22672:22684  pairings[ 1] */\n      0x18\n      dup2\n      lt\n      tag_76\n      jumpi\n      tag_77\n      tag_30\n      jump\t// in\n    tag_77:\n    tag_76:\n      0x20\n      mul\n      add\n        /* \"Evm/zk/validators_verifier.sol\":22672:22689  pairings[ 1] = Ay */\n      dup2\n      dup2\n      mstore\n      pop\n      pop\n        /* \"Evm/zk/validators_verifier.sol\":22719:22722  Bx1 */\n      dup7\n        /* \"Evm/zk/validators_verifier.sol\":22704:22712  pairings */\n      dup12\n        /* \"Evm/zk/validators_verifier.sol\":22714:22715  2 */\n      0x02\n        /* \"Evm/zk/validators_verifier.sol\":22704:22716  pairings[ 2] */\n      0x18\n      dup2\n      lt\n      tag_78\n      jumpi\n      tag_79\n      tag_30\n      jump\t// in\n    tag_79:\n    tag_78:\n      0x20\n      mul\n      add\n        /* \"Evm/zk/validators_verifier.sol\":22704:22722  pairings[ 2] = Bx1 */\n      dup2\n      dup2\n      mstore\n      pop\n      pop\n        /* \"Evm/zk/validators_verifier.sol\":22752:22755  Bx0 */\n      dup8\n        /* \"Evm/zk/validators_verifier.sol\":22737:22745  pairings */\n      dup12\n        /* \"Evm/zk/validators_verifier.sol\":22747:22748  3 */\n      0x03\n        /* \"Evm/zk/validators_verifier.sol\":22737:22749  pairings[ 3] */\n      0x18\n      dup2\n      lt\n      tag_80\n      jumpi\n      tag_81\n      tag_30\n      jump\t// in\n    tag_81:\n    tag_80:\n      0x20\n      mul\n      add\n        /* \"Evm/zk/validators_verifier.sol\":22737:22755  pairings[ 3] = Bx0 */\n      dup2\n      dup2\n      mstore\n      pop\n      pop\n        /* \"Evm/zk/validators_verifier.sol\":22785:22788  By1 */\n      dup5\n        /* \"Evm/zk/validators_verifier.sol\":22770:22778  pairings */\n      dup12\n        /* \"Evm/zk/validators_verifier.sol\":22780:22781  4 */\n      0x04\n        /* \"Evm/zk/validators_verifier.sol\":22770:22782  pairings[ 4] */\n      0x18\n      dup2\n      lt\n      tag_82\n      jumpi\n      tag_83\n      tag_30\n      jump\t// in\n    tag_83:\n    tag_82:\n      0x20\n      mul\n      add\n        /* \"Evm/zk/validators_verifier.sol\":22770:22788  pairings[ 4] = By1 */\n      dup2\n      dup2\n      mstore\n      pop\n      pop\n        /* \"Evm/zk/validators_verifier.sol\":22818:22821  By0 */\n      dup6\n        /* \"Evm/zk/validators_verifier.sol\":22803:22811  pairings */\n      dup12\n        /* \"Evm/zk/validators_verifier.sol\":22813:22814  5 */\n      0x05\n        /* \"Evm/zk/validators_verifier.sol\":22803:22815  pairings[ 5] */\n      0x18\n      dup2\n      lt\n      tag_84\n      jumpi\n      tag_85\n      tag_30\n      jump\t// in\n    tag_85:\n    tag_84:\n      0x20\n      mul\n      add\n        /* \"Evm/zk/validators_verifier.sol\":22803:22821  pairings[ 5] = By0 */\n      dup2\n      dup2\n      mstore\n      pop\n      pop\n        /* \"Evm/zk/validators_verifier.sol\":22877:22879  Cx */\n      dup4\n        /* \"Evm/zk/validators_verifier.sol\":22862:22870  pairings */\n      dup12\n        /* \"Evm/zk/validators_verifier.sol\":22872:22873  6 */\n      0x06\n        /* \"Evm/zk/validators_verifier.sol\":22862:22874  pairings[ 6] */\n      0x18\n      dup2\n      lt\n      tag_86\n      jumpi\n      tag_87\n      tag_30\n      jump\t// in\n    tag_87:\n    tag_86:\n      0x20\n      mul\n      add\n        /* \"Evm/zk/validators_verifier.sol\":22862:22879  pairings[ 6] = Cx */\n      dup2\n      dup2\n      mstore\n      pop\n      pop\n        /* \"Evm/zk/validators_verifier.sol\":22909:22911  Cy */\n      dup3\n        /* \"Evm/zk/validators_verifier.sol\":22894:22902  pairings */\n      dup12\n        /* \"Evm/zk/validators_verifier.sol\":22904:22905  7 */\n      0x07\n        /* \"Evm/zk/validators_verifier.sol\":22894:22906  pairings[ 7] */\n      0x18\n      dup2\n      lt\n      tag_88\n      jumpi\n      tag_89\n      tag_30\n      jump\t// in\n    tag_89:\n    tag_88:\n      0x20\n      mul\n      add\n        /* \"Evm/zk/validators_verifier.sol\":22894:22911  pairings[ 7] = Cy */\n      dup2\n      dup2\n      mstore\n      pop\n      pop\n        /* \"Evm/zk/validators_verifier.sol\":4210:4286  7315889112706579687528866914071942548327848082523208795581200715854163761883 */\n      0x102ca580f22bffbed09641ba183843f2c139a72b177483ec4bcb54500d0c5adb\n        /* \"Evm/zk/validators_verifier.sol\":22926:22934  pairings */\n      dup12\n        /* \"Evm/zk/validators_verifier.sol\":22936:22937  8 */\n      0x08\n        /* \"Evm/zk/validators_verifier.sol\":22926:22938  pairings[ 8] */\n      0x18\n      dup2\n      lt\n      tag_90\n      jumpi\n      tag_91\n      tag_30\n      jump\t// in\n    tag_91:\n    tag_90:\n      0x20\n      mul\n      add\n        /* \"Evm/zk/validators_verifier.sol\":22926:22954  pairings[ 8] = DELTA_NEG_X_1 */\n      dup2\n      dup2\n      mstore\n      pop\n      pop\n        /* \"Evm/zk/validators_verifier.sol\":4094:4170  4895369135381542091971750207014584696204413882622662380076735903251165000454 */\n      0x0ad2ae4511845a6b6e3150e2322ecffc3f9eb1f5011af6cd9f2d82944feeb306\n        /* \"Evm/zk/validators_verifier.sol\":22969:22977  pairings */\n      dup12\n        /* \"Evm/zk/validators_verifier.sol\":22979:22980  9 */\n      0x09\n        /* \"Evm/zk/validators_verifier.sol\":22969:22981  pairings[ 9] */\n      0x18\n      dup2\n      lt\n      tag_92\n      jumpi\n      tag_93\n      tag_30\n      jump\t// in\n    tag_93:\n    tag_92:\n      0x20\n      mul\n      add\n        /* \"Evm/zk/validators_verifier.sol\":22969:22997  pairings[ 9] = DELTA_NEG_X_0 */\n      dup2\n      dup2\n      mstore\n      pop\n      pop\n        /* \"Evm/zk/validators_verifier.sol\":4441:4518  11150334148581677185429092886374233576878251276462076858134821993568740254193 */\n      0x18a6dd900fb75a47740a8df4666473c392d2df4a5b0364d67d23ceb2ef0321f1\n        /* \"Evm/zk/validators_verifier.sol\":23012:23020  pairings */\n      dup12\n        /* \"Evm/zk/validators_verifier.sol\":23021:23023  10 */\n      0x0a\n        /* \"Evm/zk/validators_verifier.sol\":23012:23024  pairings[10] */\n      0x18\n      dup2\n      lt\n      tag_94\n      jumpi\n      tag_95\n      tag_30\n      jump\t// in\n    tag_95:\n    tag_94:\n      0x20\n      mul\n      add\n        /* \"Evm/zk/validators_verifier.sol\":23012:23040  pairings[10] = DELTA_NEG_Y_1 */\n      dup2\n      dup2\n      mstore\n      pop\n      pop\n        /* \"Evm/zk/validators_verifier.sol\":4326:4401  702675742941496820901537408408441867917439143787793386634759384826193217823 */\n      0x018db34be067304d60aa80604283f3b2cd9902fb7562ec08fdbae4e4c8f9891f\n        /* \"Evm/zk/validators_verifier.sol\":23055:23063  pairings */\n      dup12\n        /* \"Evm/zk/validators_verifier.sol\":23064:23066  11 */\n      0x0b\n        /* \"Evm/zk/validators_verifier.sol\":23055:23067  pairings[11] */\n      0x18\n      dup2\n      lt\n      tag_96\n      jumpi\n      tag_97\n      tag_30\n      jump\t// in\n    tag_97:\n    tag_96:\n      0x20\n      mul\n      add\n        /* \"Evm/zk/validators_verifier.sol\":23055:23083  pairings[11] = DELTA_NEG_Y_0 */\n      dup2\n      dup2\n      mstore\n      pop\n      pop\n        /* \"Evm/zk/validators_verifier.sol\":2792:2869  16780911137363974630482788480627581891153656738186208291998469623986018797870 */\n      0x2519a8bc0c6a2c35bd4c9ba88ecd3872f6686784b1dfd3a9b8968121705f492e\n        /* \"Evm/zk/validators_verifier.sol\":23125:23133  pairings */\n      dup12\n        /* \"Evm/zk/validators_verifier.sol\":23134:23136  12 */\n      0x0c\n        /* \"Evm/zk/validators_verifier.sol\":23125:23137  pairings[12] */\n      0x18\n      dup2\n      lt\n      tag_98\n      jumpi\n      tag_99\n      tag_30\n      jump\t// in\n    tag_99:\n    tag_98:\n      0x20\n      mul\n      add\n        /* \"Evm/zk/validators_verifier.sol\":23125:23147  pairings[12] = ALPHA_X */\n      dup2\n      dup2\n      mstore\n      pop\n      pop\n        /* \"Evm/zk/validators_verifier.sol\":2903:2979  3752206043572318161471651689226362514326403884175448835396327742058168562393 */\n      0x084bac615aca50781756001a357c1ad40f6362495dd2bbfb8da9d475c5a7b2d9\n        /* \"Evm/zk/validators_verifier.sol\":23162:23170  pairings */\n      dup12\n        /* \"Evm/zk/validators_verifier.sol\":23171:23173  13 */\n      0x0d\n        /* \"Evm/zk/validators_verifier.sol\":23162:23174  pairings[13] */\n      0x18\n      dup2\n      lt\n      tag_100\n      jumpi\n      tag_101\n      tag_30\n      jump\t// in\n    tag_101:\n    tag_100:\n      0x20\n      mul\n      add\n        /* \"Evm/zk/validators_verifier.sol\":23162:23184  pairings[13] = ALPHA_Y */\n      dup2\n      dup2\n      mstore\n      pop\n      pop\n        /* \"Evm/zk/validators_verifier.sol\":3182:3256  64868426638615338508462943875416067310418799477024777619405670835927444826 */\n      0x24b6d7abb533caaef2ceec030f3f633b771761753749b3d5496a85699ced5a\n        /* \"Evm/zk/validators_verifier.sol\":23199:23207  pairings */\n      dup12\n        /* \"Evm/zk/validators_verifier.sol\":23208:23210  14 */\n      0x0e\n        /* \"Evm/zk/validators_verifier.sol\":23199:23211  pairings[14] */\n      0x18\n      dup2\n      lt\n      tag_102\n      jumpi\n      tag_103\n      tag_30\n      jump\t// in\n    tag_103:\n    tag_102:\n      0x20\n      mul\n      add\n        /* \"Evm/zk/validators_verifier.sol\":23199:23226  pairings[14] = BETA_NEG_X_1 */\n      dup2\n      dup2\n      mstore\n      pop\n      pop\n        /* \"Evm/zk/validators_verifier.sol\":3068:3143  346164684350637781113338007048802783730754227860504547804845725996418306066 */\n      0xc3ec19c370e7dbbec4983cf277d13ed455ae3d30e51e1dcd30810f97c39012\n        /* \"Evm/zk/validators_verifier.sol\":23241:23249  pairings */\n      dup12\n        /* \"Evm/zk/validators_verifier.sol\":23250:23252  15 */\n      0x0f\n        /* \"Evm/zk/validators_verifier.sol\":23241:23253  pairings[15] */\n      0x18\n      dup2\n      lt\n      tag_104\n      jumpi\n      tag_105\n      tag_30\n      jump\t// in\n    tag_105:\n    tag_104:\n      0x20\n      mul\n      add\n        /* \"Evm/zk/validators_verifier.sol\":23241:23268  pairings[15] = BETA_NEG_X_0 */\n      dup2\n      dup2\n      mstore\n      pop\n      pop\n        /* \"Evm/zk/validators_verifier.sol\":3410:3486  1268721271224614209647752517928797310492930319041269562576505712175424128777 */\n      0x02ce121f6d665a5a4704ca958ae8a6fb0117d7acee5fd7f176a28d93bffec709\n        /* \"Evm/zk/validators_verifier.sol\":23283:23291  pairings */\n      dup12\n        /* \"Evm/zk/validators_verifier.sol\":23292:23294  16 */\n      0x10\n        /* \"Evm/zk/validators_verifier.sol\":23283:23295  pairings[16] */\n      0x18\n      dup2\n      lt\n      tag_106\n      jumpi\n      tag_107\n      tag_30\n      jump\t// in\n    tag_107:\n    tag_106:\n      0x20\n      mul\n      add\n        /* \"Evm/zk/validators_verifier.sol\":23283:23310  pairings[16] = BETA_NEG_Y_1 */\n      dup2\n      dup2\n      mstore\n      pop\n      pop\n        /* \"Evm/zk/validators_verifier.sol\":3295:3371  8564649512358022725274249167895839123840345679535597221744552738287551879518 */\n      0x12ef6b7a7f48c342f20a44b8932bf5e96141588eba26bec9de196cb5fb09995e\n        /* \"Evm/zk/validators_verifier.sol\":23325:23333  pairings */\n      dup12\n        /* \"Evm/zk/validators_verifier.sol\":23334:23336  17 */\n      0x11\n        /* \"Evm/zk/validators_verifier.sol\":23325:23337  pairings[17] */\n      0x18\n      dup2\n      lt\n      tag_108\n      jumpi\n      tag_109\n      tag_30\n      jump\t// in\n    tag_109:\n    tag_108:\n      0x20\n      mul\n      add\n        /* \"Evm/zk/validators_verifier.sol\":23325:23352  pairings[17] = BETA_NEG_Y_0 */\n      dup2\n      dup2\n      mstore\n      pop\n      pop\n        /* \"Evm/zk/validators_verifier.sol\":23412:23414  Lx */\n      dup2\n        /* \"Evm/zk/validators_verifier.sol\":23397:23405  pairings */\n      dup12\n        /* \"Evm/zk/validators_verifier.sol\":23406:23408  18 */\n      0x12\n        /* \"Evm/zk/validators_verifier.sol\":23397:23409  pairings[18] */\n      0x18\n      dup2\n      lt\n      tag_110\n      jumpi\n      tag_111\n      tag_30\n      jump\t// in\n    tag_111:\n    tag_110:\n      0x20\n      mul\n      add\n        /* \"Evm/zk/validators_verifier.sol\":23397:23414  pairings[18] = Lx */\n      dup2\n      dup2\n      mstore\n      pop\n      pop\n        /* \"Evm/zk/validators_verifier.sol\":23444:23446  Ly */\n      dup1\n        /* \"Evm/zk/validators_verifier.sol\":23429:23437  pairings */\n      dup12\n        /* \"Evm/zk/validators_verifier.sol\":23438:23440  19 */\n      0x13\n        /* \"Evm/zk/validators_verifier.sol\":23429:23441  pairings[19] */\n      0x18\n      dup2\n      lt\n      tag_112\n      jumpi\n      tag_113\n      tag_30\n      jump\t// in\n    tag_113:\n    tag_112:\n      0x20\n      mul\n      add\n        /* \"Evm/zk/validators_verifier.sol\":23429:23446  pairings[19] = Ly */\n      dup2\n      dup2\n      mstore\n      pop\n      pop\n        /* \"Evm/zk/validators_verifier.sol\":3693:3770  14886743498987209329208870817789063583184453061409391645162434630921358058837 */\n      0x20e999258061df56e1972696dd7b46c8f6ecb3196711cabb29b2c681d15aa555\n        /* \"Evm/zk/validators_verifier.sol\":23461:23469  pairings */\n      dup12\n        /* \"Evm/zk/validators_verifier.sol\":23470:23472  20 */\n      0x14\n        /* \"Evm/zk/validators_verifier.sol\":23461:23473  pairings[20] */\n      0x18\n      dup2\n      lt\n      tag_114\n      jumpi\n      tag_115\n      tag_30\n      jump\t// in\n    tag_115:\n    tag_114:\n      0x20\n      mul\n      add\n        /* \"Evm/zk/validators_verifier.sol\":23461:23489  pairings[20] = GAMMA_NEG_X_1 */\n      dup2\n      dup2\n      mstore\n      pop\n      pop\n        /* \"Evm/zk/validators_verifier.sol\":3577:3653  1131980681013718998522015218880728293568502752091887915216983571519969376866 */\n      0x0280ada90b75034b8854a0c242cf6ae46ee37d31978547bd603eed9d54373a62\n        /* \"Evm/zk/validators_verifier.sol\":23504:23512  pairings */\n      dup12\n        /* \"Evm/zk/validators_verifier.sol\":23513:23515  21 */\n      0x15\n        /* \"Evm/zk/validators_verifier.sol\":23504:23516  pairings[21] */\n      0x18\n      dup2\n      lt\n      tag_116\n      jumpi\n      tag_117\n      tag_30\n      jump\t// in\n    tag_117:\n    tag_116:\n      0x20\n      mul\n      add\n        /* \"Evm/zk/validators_verifier.sol\":23504:23532  pairings[21] = GAMMA_NEG_X_0 */\n      dup2\n      dup2\n      mstore\n      pop\n      pop\n        /* \"Evm/zk/validators_verifier.sol\":3927:4003  9417648078215126504387699799229704008617272654968241567938467084565740414568 */\n      0x14d2332dc46a93446b7809494a1f8ac5e1e803c8ee42e37b94754514cece6668\n        /* \"Evm/zk/validators_verifier.sol\":23547:23555  pairings */\n      dup12\n        /* \"Evm/zk/validators_verifier.sol\":23556:23558  22 */\n      0x16\n        /* \"Evm/zk/validators_verifier.sol\":23547:23559  pairings[22] */\n      0x18\n      dup2\n      lt\n      tag_118\n      jumpi\n      tag_119\n      tag_30\n      jump\t// in\n    tag_119:\n    tag_118:\n      0x20\n      mul\n      add\n        /* \"Evm/zk/validators_verifier.sol\":23547:23575  pairings[22] = GAMMA_NEG_Y_1 */\n      dup2\n      dup2\n      mstore\n      pop\n      pop\n        /* \"Evm/zk/validators_verifier.sol\":3810:3887  11737836156021696422931068622094480409252682750917691267893419804666097882768 */\n      0x19f3613ca821ff43d0074e17c318ccd90357f062831e8ef3bdad12ecd184d690\n        /* \"Evm/zk/validators_verifier.sol\":23590:23598  pairings */\n      dup12\n        /* \"Evm/zk/validators_verifier.sol\":23599:23601  23 */\n      0x17\n        /* \"Evm/zk/validators_verifier.sol\":23590:23602  pairings[23] */\n      0x18\n      dup2\n      lt\n      tag_120\n      jumpi\n      tag_121\n      tag_30\n      jump\t// in\n    tag_121:\n    tag_120:\n      0x20\n      mul\n      add\n        /* \"Evm/zk/validators_verifier.sol\":23590:23618  pairings[23] = GAMMA_NEG_Y_0 */\n      dup2\n      dup2\n      mstore\n      pop\n      pop\n        /* \"Evm/zk/validators_verifier.sol\":23675:23687  bool success */\n      0x00\n        /* \"Evm/zk/validators_verifier.sol\":23702:23726  uint256[1] memory output */\n      tag_122\n      tag_123\n      jump\t// in\n    tag_122:\n        /* \"Evm/zk/validators_verifier.sol\":23858:23862  0x20 */\n      0x20\n        /* \"Evm/zk/validators_verifier.sol\":23850:23856  output */\n      dup2\n        /* \"Evm/zk/validators_verifier.sol\":23843:23848  0x300 */\n      0x0300\n        /* \"Evm/zk/validators_verifier.sol\":23833:23841  pairings */\n      dup16\n        /* \"Evm/zk/validators_verifier.sol\":23814:23831  PRECOMPILE_VERIFY */\n      0x08\n        /* \"Evm/zk/validators_verifier.sol\":23807:23812  gas() */\n      gas\n        /* \"Evm/zk/validators_verifier.sol\":23796:23863  staticcall(gas(), PRECOMPILE_VERIFY, pairings, 0x300, output, 0x20) */\n      staticcall\n        /* \"Evm/zk/validators_verifier.sol\":23785:23863  success := staticcall(gas(), PRECOMPILE_VERIFY, pairings, 0x300, output, 0x20) */\n      swap2\n      pop\n        /* \"Evm/zk/validators_verifier.sol\":23897:23904  success */\n      dup2\n        /* \"Evm/zk/validators_verifier.sol\":23896:23904  !success */\n      iszero\n        /* \"Evm/zk/validators_verifier.sol\":23896:23922  !success || output[0] != 1 */\n      dup1\n      tag_124\n      jumpi\n      pop\n        /* \"Evm/zk/validators_verifier.sol\":23921:23922  1 */\n      0x01\n        /* \"Evm/zk/validators_verifier.sol\":23908:23914  output */\n      dup2\n        /* \"Evm/zk/validators_verifier.sol\":23915:23916  0 */\n      0x00\n        /* \"Evm/zk/validators_verifier.sol\":23908:23917  output[0] */\n      0x01\n      dup2\n      lt\n      tag_125\n      jumpi\n      tag_126\n      tag_30\n      jump\t// in\n    tag_126:\n    tag_125:\n      0x20\n      mul\n      add\n      mload\n        /* \"Evm/zk/validators_verifier.sol\":23908:23922  output[0] != 1 */\n      eq\n      iszero\n        /* \"Evm/zk/validators_verifier.sol\":23896:23922  !success || output[0] != 1 */\n    tag_124:\n        /* \"Evm/zk/validators_verifier.sol\":23892:24143  if (!success || output[0] != 1) {... */\n      iszero\n      tag_127\n      jumpi\n        /* \"Evm/zk/validators_verifier.sol\":24113:24127  ProofInvalid() */\n      mload(0x40)\n      0x7fcdd1f400000000000000000000000000000000000000000000000000000000\n      dup2\n      mstore\n      0x04\n      add\n      mload(0x40)\n      dup1\n      swap2\n      sub\n      swap1\n      revert\n        /* \"Evm/zk/validators_verifier.sol\":23892:24143  if (!success || output[0] != 1) {... */\n    tag_127:\n        /* \"Evm/zk/validators_verifier.sol\":22042:24154  {... */\n      pop\n      pop\n      pop\n      pop\n      pop\n      pop\n      pop\n      pop\n      pop\n      pop\n      pop\n      pop\n        /* \"Evm/zk/validators_verifier.sol\":21991:24161  {... */\n      pop\n        /* \"Evm/zk/validators_verifier.sol\":21859:24161  function verifyCompressedProof(... */\n      pop\n      pop\n      jump\t// out\n        /* \"Evm/zk/validators_verifier.sol\":17275:20482  function publicInputMSM(uint256[5] calldata input)... */\n    tag_22:\n        /* \"Evm/zk/validators_verifier.sol\":17354:17363  uint256 x */\n      0x00\n        /* \"Evm/zk/validators_verifier.sol\":17365:17374  uint256 y */\n      0x00\n        /* \"Evm/zk/validators_verifier.sol\":17988:18000  bool success */\n      0x00\n        /* \"Evm/zk/validators_verifier.sol\":18003:18007  true */\n      0x01\n        /* \"Evm/zk/validators_verifier.sol\":17988:18007  bool success = true */\n      swap1\n      pop\n        /* \"Evm/zk/validators_verifier.sol\":18073:18077  0x40 */\n      0x40\n        /* \"Evm/zk/validators_verifier.sol\":18067:18078  mload(0x40) */\n      mload\n        /* \"Evm/zk/validators_verifier.sol\":18108:18112  0x40 */\n      0x40\n        /* \"Evm/zk/validators_verifier.sol\":18105:18106  f */\n      dup2\n        /* \"Evm/zk/validators_verifier.sol\":18101:18113  add(f, 0x40) */\n      add\n        /* \"Evm/zk/validators_verifier.sol\":18127:18132  let s */\n      0x00\n        /* \"Evm/zk/validators_verifier.sol\":18156:18166  CONSTANT_X */\n      0x100ec70909e76b760e4a2da55404a928d23325897b7f5e785f37fd17369a6182\n        /* \"Evm/zk/validators_verifier.sol\":18153:18154  f */\n      dup4\n        /* \"Evm/zk/validators_verifier.sol\":18146:18167  mstore(f, CONSTANT_X) */\n      mstore\n        /* \"Evm/zk/validators_verifier.sol\":18202:18212  CONSTANT_Y */\n      0x1d70d5725d474e8669b1d728a1355f2fd10ff710d688324b044dbd414649edf0\n        /* \"Evm/zk/validators_verifier.sol\":18195:18199  0x20 */\n      0x20\n        /* \"Evm/zk/validators_verifier.sol\":18192:18193  f */\n      dup5\n        /* \"Evm/zk/validators_verifier.sol\":18188:18200  add(f, 0x20) */\n      add\n        /* \"Evm/zk/validators_verifier.sol\":18181:18213  mstore(add(f, 0x20), CONSTANT_Y) */\n      mstore\n        /* \"Evm/zk/validators_verifier.sol\":18237:18244  PUB_0_X */\n      0x09bbe690624bda4e589565e110df9fc66e9e062b4b505cba41a4a6c9c568e9cf\n        /* \"Evm/zk/validators_verifier.sol\":18234:18235  g */\n      dup3\n        /* \"Evm/zk/validators_verifier.sol\":18227:18245  mstore(g, PUB_0_X) */\n      mstore\n        /* \"Evm/zk/validators_verifier.sol\":18280:18287  PUB_0_Y */\n      0x3c7c6c9b745f7af6d227b58120ecb6c880ea2e110e6c24e8d7a6ed4f9c115b\n        /* \"Evm/zk/validators_verifier.sol\":18273:18277  0x20 */\n      0x20\n        /* \"Evm/zk/validators_verifier.sol\":18270:18271  g */\n      dup4\n        /* \"Evm/zk/validators_verifier.sol\":18266:18278  add(g, 0x20) */\n      add\n        /* \"Evm/zk/validators_verifier.sol\":18259:18288  mstore(add(g, 0x20), PUB_0_Y) */\n      mstore\n        /* \"Evm/zk/validators_verifier.sol\":18321:18326  input */\n      dup7\n        /* \"Evm/zk/validators_verifier.sol\":18308:18327  calldataload(input) */\n      calldataload\n        /* \"Evm/zk/validators_verifier.sol\":18302:18327  s :=  calldataload(input) */\n      swap1\n      pop\n        /* \"Evm/zk/validators_verifier.sol\":18362:18363  s */\n      dup1\n        /* \"Evm/zk/validators_verifier.sol\":18355:18359  0x40 */\n      0x40\n        /* \"Evm/zk/validators_verifier.sol\":18352:18353  g */\n      dup4\n        /* \"Evm/zk/validators_verifier.sol\":18348:18360  add(g, 0x40) */\n      add\n        /* \"Evm/zk/validators_verifier.sol\":18341:18364  mstore(add(g, 0x40), s) */\n      mstore\n        /* \"Evm/zk/validators_verifier.sol\":18408:18409  R */\n      0x30644e72e131a029b85045b68181585d2833e84879b9709143e1f593f0000001\n        /* \"Evm/zk/validators_verifier.sol\":18405:18406  s */\n      dup2\n        /* \"Evm/zk/validators_verifier.sol\":18402:18410  lt(s, R) */\n      lt\n        /* \"Evm/zk/validators_verifier.sol\":18393:18400  success */\n      dup5\n        /* \"Evm/zk/validators_verifier.sol\":18389:18411  and(success, lt(s, R)) */\n      and\n        /* \"Evm/zk/validators_verifier.sol\":18378:18411  success := and(success, lt(s, R)) */\n      swap4\n      pop\n        /* \"Evm/zk/validators_verifier.sol\":18495:18499  0x40 */\n      0x40\n        /* \"Evm/zk/validators_verifier.sol\":18492:18493  g */\n      dup3\n        /* \"Evm/zk/validators_verifier.sol\":18486:18490  0x60 */\n      0x60\n        /* \"Evm/zk/validators_verifier.sol\":18483:18484  g */\n      dup5\n        /* \"Evm/zk/validators_verifier.sol\":18467:18481  PRECOMPILE_MUL */\n      0x07\n        /* \"Evm/zk/validators_verifier.sol\":18460:18465  gas() */\n      gas\n        /* \"Evm/zk/validators_verifier.sol\":18449:18500  staticcall(gas(), PRECOMPILE_MUL, g, 0x60, g, 0x40) */\n      staticcall\n        /* \"Evm/zk/validators_verifier.sol\":18440:18447  success */\n      dup5\n        /* \"Evm/zk/validators_verifier.sol\":18436:18501  and(success, staticcall(gas(), PRECOMPILE_MUL, g, 0x60, g, 0x40)) */\n      and\n        /* \"Evm/zk/validators_verifier.sol\":18425:18501  success := and(success, staticcall(gas(), PRECOMPILE_MUL, g, 0x60, g, 0x40)) */\n      swap4\n      pop\n        /* \"Evm/zk/validators_verifier.sol\":18585:18589  0x40 */\n      0x40\n        /* \"Evm/zk/validators_verifier.sol\":18582:18583  f */\n      dup4\n        /* \"Evm/zk/validators_verifier.sol\":18576:18580  0x80 */\n      0x80\n        /* \"Evm/zk/validators_verifier.sol\":18573:18574  f */\n      dup6\n        /* \"Evm/zk/validators_verifier.sol\":18557:18571  PRECOMPILE_ADD */\n      0x06\n        /* \"Evm/zk/validators_verifier.sol\":18550:18555  gas() */\n      gas\n        /* \"Evm/zk/validators_verifier.sol\":18539:18590  staticcall(gas(), PRECOMPILE_ADD, f, 0x80, f, 0x40) */\n      staticcall\n        /* \"Evm/zk/validators_verifier.sol\":18530:18537  success */\n      dup5\n        /* \"Evm/zk/validators_verifier.sol\":18526:18591  and(success, staticcall(gas(), PRECOMPILE_ADD, f, 0x80, f, 0x40)) */\n      and\n        /* \"Evm/zk/validators_verifier.sol\":18515:18591  success := and(success, staticcall(gas(), PRECOMPILE_ADD, f, 0x80, f, 0x40)) */\n      swap4\n      pop\n        /* \"Evm/zk/validators_verifier.sol\":18615:18622  PUB_1_X */\n      0x00\n        /* \"Evm/zk/validators_verifier.sol\":18612:18613  g */\n      dup3\n        /* \"Evm/zk/validators_verifier.sol\":18605:18623  mstore(g, PUB_1_X) */\n      mstore\n        /* \"Evm/zk/validators_verifier.sol\":18658:18665  PUB_1_Y */\n      0x00\n        /* \"Evm/zk/validators_verifier.sol\":18651:18655  0x20 */\n      0x20\n        /* \"Evm/zk/validators_verifier.sol\":18648:18649  g */\n      dup4\n        /* \"Evm/zk/validators_verifier.sol\":18644:18656  add(g, 0x20) */\n      add\n        /* \"Evm/zk/validators_verifier.sol\":18637:18666  mstore(add(g, 0x20), PUB_1_Y) */\n      mstore\n        /* \"Evm/zk/validators_verifier.sol\":18710:18712  32 */\n      0x20\n        /* \"Evm/zk/validators_verifier.sol\":18703:18708  input */\n      dup8\n        /* \"Evm/zk/validators_verifier.sol\":18699:18713  add(input, 32) */\n      add\n        /* \"Evm/zk/validators_verifier.sol\":18686:18714  calldataload(add(input, 32)) */\n      calldataload\n        /* \"Evm/zk/validators_verifier.sol\":18680:18714  s :=  calldataload(add(input, 32)) */\n      swap1\n      pop\n        /* \"Evm/zk/validators_verifier.sol\":18749:18750  s */\n      dup1\n        /* \"Evm/zk/validators_verifier.sol\":18742:18746  0x40 */\n      0x40\n        /* \"Evm/zk/validators_verifier.sol\":18739:18740  g */\n      dup4\n        /* \"Evm/zk/validators_verifier.sol\":18735:18747  add(g, 0x40) */\n      add\n        /* \"Evm/zk/validators_verifier.sol\":18728:18751  mstore(add(g, 0x40), s) */\n      mstore\n        /* \"Evm/zk/validators_verifier.sol\":18795:18796  R */\n      0x30644e72e131a029b85045b68181585d2833e84879b9709143e1f593f0000001\n        /* \"Evm/zk/validators_verifier.sol\":18792:18793  s */\n      dup2\n        /* \"Evm/zk/validators_verifier.sol\":18789:18797  lt(s, R) */\n      lt\n        /* \"Evm/zk/validators_verifier.sol\":18780:18787  success */\n      dup5\n        /* \"Evm/zk/validators_verifier.sol\":18776:18798  and(success, lt(s, R)) */\n      and\n        /* \"Evm/zk/validators_verifier.sol\":18765:18798  success := and(success, lt(s, R)) */\n      swap4\n      pop\n        /* \"Evm/zk/validators_verifier.sol\":18882:18886  0x40 */\n      0x40\n        /* \"Evm/zk/validators_verifier.sol\":18879:18880  g */\n      dup3\n        /* \"Evm/zk/validators_verifier.sol\":18873:18877  0x60 */\n      0x60\n        /* \"Evm/zk/validators_verifier.sol\":18870:18871  g */\n      dup5\n        /* \"Evm/zk/validators_verifier.sol\":18854:18868  PRECOMPILE_MUL */\n      0x07\n        /* \"Evm/zk/validators_verifier.sol\":18847:18852  gas() */\n      gas\n        /* \"Evm/zk/validators_verifier.sol\":18836:18887  staticcall(gas(), PRECOMPILE_MUL, g, 0x60, g, 0x40) */\n      staticcall\n        /* \"Evm/zk/validators_verifier.sol\":18827:18834  success */\n      dup5\n        /* \"Evm/zk/validators_verifier.sol\":18823:18888  and(success, staticcall(gas(), PRECOMPILE_MUL, g, 0x60, g, 0x40)) */\n      and\n        /* \"Evm/zk/validators_verifier.sol\":18812:18888  success := and(success, staticcall(gas(), PRECOMPILE_MUL, g, 0x60, g, 0x40)) */\n      swap4\n      pop\n        /* \"Evm/zk/validators_verifier.sol\":18972:18976  0x40 */\n      0x40\n        /* \"Evm/zk/validators_verifier.sol\":18969:18970  f */\n      dup4\n        /* \"Evm/zk/validators_verifier.sol\":18963:18967  0x80 */\n      0x80\n        /* \"Evm/zk/validators_verifier.sol\":18960:18961  f */\n      dup6\n        /* \"Evm/zk/validators_verifier.sol\":18944:18958  PRECOMPILE_ADD */\n      0x06\n        /* \"Evm/zk/validators_verifier.sol\":18937:18942  gas() */\n      gas\n        /* \"Evm/zk/validators_verifier.sol\":18926:18977  staticcall(gas(), PRECOMPILE_ADD, f, 0x80, f, 0x40) */\n      staticcall\n        /* \"Evm/zk/validators_verifier.sol\":18917:18924  success */\n      dup5\n        /* \"Evm/zk/validators_verifier.sol\":18913:18978  and(success, staticcall(gas(), PRECOMPILE_ADD, f, 0x80, f, 0x40)) */\n      and\n        /* \"Evm/zk/validators_verifier.sol\":18902:18978  success := and(success, staticcall(gas(), PRECOMPILE_ADD, f, 0x80, f, 0x40)) */\n      swap4\n      pop\n        /* \"Evm/zk/validators_verifier.sol\":19002:19009  PUB_2_X */\n      0x00\n        /* \"Evm/zk/validators_verifier.sol\":18999:19000  g */\n      dup3\n        /* \"Evm/zk/validators_verifier.sol\":18992:19010  mstore(g, PUB_2_X) */\n      mstore\n        /* \"Evm/zk/validators_verifier.sol\":19045:19052  PUB_2_Y */\n      0x00\n        /* \"Evm/zk/validators_verifier.sol\":19038:19042  0x20 */\n      0x20\n        /* \"Evm/zk/validators_verifier.sol\":19035:19036  g */\n      dup4\n        /* \"Evm/zk/validators_verifier.sol\":19031:19043  add(g, 0x20) */\n      add\n        /* \"Evm/zk/validators_verifier.sol\":19024:19053  mstore(add(g, 0x20), PUB_2_Y) */\n      mstore\n        /* \"Evm/zk/validators_verifier.sol\":19097:19099  64 */\n      0x40\n        /* \"Evm/zk/validators_verifier.sol\":19090:19095  input */\n      dup8\n        /* \"Evm/zk/validators_verifier.sol\":19086:19100  add(input, 64) */\n      add\n        /* \"Evm/zk/validators_verifier.sol\":19073:19101  calldataload(add(input, 64)) */\n      calldataload\n        /* \"Evm/zk/validators_verifier.sol\":19067:19101  s :=  calldataload(add(input, 64)) */\n      swap1\n      pop\n        /* \"Evm/zk/validators_verifier.sol\":19136:19137  s */\n      dup1\n        /* \"Evm/zk/validators_verifier.sol\":19129:19133  0x40 */\n      0x40\n        /* \"Evm/zk/validators_verifier.sol\":19126:19127  g */\n      dup4\n        /* \"Evm/zk/validators_verifier.sol\":19122:19134  add(g, 0x40) */\n      add\n        /* \"Evm/zk/validators_verifier.sol\":19115:19138  mstore(add(g, 0x40), s) */\n      mstore\n        /* \"Evm/zk/validators_verifier.sol\":19182:19183  R */\n      0x30644e72e131a029b85045b68181585d2833e84879b9709143e1f593f0000001\n        /* \"Evm/zk/validators_verifier.sol\":19179:19180  s */\n      dup2\n        /* \"Evm/zk/validators_verifier.sol\":19176:19184  lt(s, R) */\n      lt\n        /* \"Evm/zk/validators_verifier.sol\":19167:19174  success */\n      dup5\n        /* \"Evm/zk/validators_verifier.sol\":19163:19185  and(success, lt(s, R)) */\n      and\n        /* \"Evm/zk/validators_verifier.sol\":19152:19185  success := and(success, lt(s, R)) */\n      swap4\n      pop\n        /* \"Evm/zk/validators_verifier.sol\":19269:19273  0x40 */\n      0x40\n        /* \"Evm/zk/validators_verifier.sol\":19266:19267  g */\n      dup3\n        /* \"Evm/zk/validators_verifier.sol\":19260:19264  0x60 */\n      0x60\n        /* \"Evm/zk/validators_verifier.sol\":19257:19258  g */\n      dup5\n        /* \"Evm/zk/validators_verifier.sol\":19241:19255  PRECOMPILE_MUL */\n      0x07\n        /* \"Evm/zk/validators_verifier.sol\":19234:19239  gas() */\n      gas\n        /* \"Evm/zk/validators_verifier.sol\":19223:19274  staticcall(gas(), PRECOMPILE_MUL, g, 0x60, g, 0x40) */\n      staticcall\n        /* \"Evm/zk/validators_verifier.sol\":19214:19221  success */\n      dup5\n        /* \"Evm/zk/validators_verifier.sol\":19210:19275  and(success, staticcall(gas(), PRECOMPILE_MUL, g, 0x60, g, 0x40)) */\n      and\n        /* \"Evm/zk/validators_verifier.sol\":19199:19275  success := and(success, staticcall(gas(), PRECOMPILE_MUL, g, 0x60, g, 0x40)) */\n      swap4\n      pop\n        /* \"Evm/zk/validators_verifier.sol\":19359:19363  0x40 */\n      0x40\n        /* \"Evm/zk/validators_verifier.sol\":19356:19357  f */\n      dup4\n        /* \"Evm/zk/validators_verifier.sol\":19350:19354  0x80 */\n      0x80\n        /* \"Evm/zk/validators_verifier.sol\":19347:19348  f */\n      dup6\n        /* \"Evm/zk/validators_verifier.sol\":19331:19345  PRECOMPILE_ADD */\n      0x06\n        /* \"Evm/zk/validators_verifier.sol\":19324:19329  gas() */\n      gas\n        /* \"Evm/zk/validators_verifier.sol\":19313:19364  staticcall(gas(), PRECOMPILE_ADD, f, 0x80, f, 0x40) */\n      staticcall\n        /* \"Evm/zk/validators_verifier.sol\":19304:19311  success */\n      dup5\n        /* \"Evm/zk/validators_verifier.sol\":19300:19365  and(success, staticcall(gas(), PRECOMPILE_ADD, f, 0x80, f, 0x40)) */\n      and\n        /* \"Evm/zk/validators_verifier.sol\":19289:19365  success := and(success, staticcall(gas(), PRECOMPILE_ADD, f, 0x80, f, 0x40)) */\n      swap4\n      pop\n        /* \"Evm/zk/validators_verifier.sol\":19389:19396  PUB_3_X */\n      0x00\n        /* \"Evm/zk/validators_verifier.sol\":19386:19387  g */\n      dup3\n        /* \"Evm/zk/validators_verifier.sol\":19379:19397  mstore(g, PUB_3_X) */\n      mstore\n        /* \"Evm/zk/validators_verifier.sol\":19432:19439  PUB_3_Y */\n      0x00\n        /* \"Evm/zk/validators_verifier.sol\":19425:19429  0x20 */\n      0x20\n        /* \"Evm/zk/validators_verifier.sol\":19422:19423  g */\n      dup4\n        /* \"Evm/zk/validators_verifier.sol\":19418:19430  add(g, 0x20) */\n      add\n        /* \"Evm/zk/validators_verifier.sol\":19411:19440  mstore(add(g, 0x20), PUB_3_Y) */\n      mstore\n        /* \"Evm/zk/validators_verifier.sol\":19484:19486  96 */\n      0x60\n        /* \"Evm/zk/validators_verifier.sol\":19477:19482  input */\n      dup8\n        /* \"Evm/zk/validators_verifier.sol\":19473:19487  add(input, 96) */\n      add\n        /* \"Evm/zk/validators_verifier.sol\":19460:19488  calldataload(add(input, 96)) */\n      calldataload\n        /* \"Evm/zk/validators_verifier.sol\":19454:19488  s :=  calldataload(add(input, 96)) */\n      swap1\n      pop\n        /* \"Evm/zk/validators_verifier.sol\":19523:19524  s */\n      dup1\n        /* \"Evm/zk/validators_verifier.sol\":19516:19520  0x40 */\n      0x40\n        /* \"Evm/zk/validators_verifier.sol\":19513:19514  g */\n      dup4\n        /* \"Evm/zk/validators_verifier.sol\":19509:19521  add(g, 0x40) */\n      add\n        /* \"Evm/zk/validators_verifier.sol\":19502:19525  mstore(add(g, 0x40), s) */\n      mstore\n        /* \"Evm/zk/validators_verifier.sol\":19569:19570  R */\n      0x30644e72e131a029b85045b68181585d2833e84879b9709143e1f593f0000001\n        /* \"Evm/zk/validators_verifier.sol\":19566:19567  s */\n      dup2\n        /* \"Evm/zk/validators_verifier.sol\":19563:19571  lt(s, R) */\n      lt\n        /* \"Evm/zk/validators_verifier.sol\":19554:19561  success */\n      dup5\n        /* \"Evm/zk/validators_verifier.sol\":19550:19572  and(success, lt(s, R)) */\n      and\n        /* \"Evm/zk/validators_verifier.sol\":19539:19572  success := and(success, lt(s, R)) */\n      swap4\n      pop\n        /* \"Evm/zk/validators_verifier.sol\":19656:19660  0x40 */\n      0x40\n        /* \"Evm/zk/validators_verifier.sol\":19653:19654  g */\n      dup3\n        /* \"Evm/zk/validators_verifier.sol\":19647:19651  0x60 */\n      0x60\n        /* \"Evm/zk/validators_verifier.sol\":19644:19645  g */\n      dup5\n        /* \"Evm/zk/validators_verifier.sol\":19628:19642  PRECOMPILE_MUL */\n      0x07\n        /* \"Evm/zk/validators_verifier.sol\":19621:19626  gas() */\n      gas\n        /* \"Evm/zk/validators_verifier.sol\":19610:19661  staticcall(gas(), PRECOMPILE_MUL, g, 0x60, g, 0x40) */\n      staticcall\n        /* \"Evm/zk/validators_verifier.sol\":19601:19608  success */\n      dup5\n        /* \"Evm/zk/validators_verifier.sol\":19597:19662  and(success, staticcall(gas(), PRECOMPILE_MUL, g, 0x60, g, 0x40)) */\n      and\n        /* \"Evm/zk/validators_verifier.sol\":19586:19662  success := and(success, staticcall(gas(), PRECOMPILE_MUL, g, 0x60, g, 0x40)) */\n      swap4\n      pop\n        /* \"Evm/zk/validators_verifier.sol\":19746:19750  0x40 */\n      0x40\n        /* \"Evm/zk/validators_verifier.sol\":19743:19744  f */\n      dup4\n        /* \"Evm/zk/validators_verifier.sol\":19737:19741  0x80 */\n      0x80\n        /* \"Evm/zk/validators_verifier.sol\":19734:19735  f */\n      dup6\n        /* \"Evm/zk/validators_verifier.sol\":19718:19732  PRECOMPILE_ADD */\n      0x06\n        /* \"Evm/zk/validators_verifier.sol\":19711:19716  gas() */\n      gas\n        /* \"Evm/zk/validators_verifier.sol\":19700:19751  staticcall(gas(), PRECOMPILE_ADD, f, 0x80, f, 0x40) */\n      staticcall\n        /* \"Evm/zk/validators_verifier.sol\":19691:19698  success */\n      dup5\n        /* \"Evm/zk/validators_verifier.sol\":19687:19752  and(success, staticcall(gas(), PRECOMPILE_ADD, f, 0x80, f, 0x40)) */\n      and\n        /* \"Evm/zk/validators_verifier.sol\":19676:19752  success := and(success, staticcall(gas(), PRECOMPILE_ADD, f, 0x80, f, 0x40)) */\n      swap4\n      pop\n        /* \"Evm/zk/validators_verifier.sol\":19776:19783  PUB_4_X */\n      0x267e506b82b8f7202b396a880bb15d9b92eeb9b14e7ed57698cacea43cd41e2b\n        /* \"Evm/zk/validators_verifier.sol\":19773:19774  g */\n      dup3\n        /* \"Evm/zk/validators_verifier.sol\":19766:19784  mstore(g, PUB_4_X) */\n      mstore\n        /* \"Evm/zk/validators_verifier.sol\":19819:19826  PUB_4_Y */\n      0x011e5745dc5596ed8b11e66e66a4a28c74ad0210785d8768350bfd54416147c9\n        /* \"Evm/zk/validators_verifier.sol\":19812:19816  0x20 */\n      0x20\n        /* \"Evm/zk/validators_verifier.sol\":19809:19810  g */\n      dup4\n        /* \"Evm/zk/validators_verifier.sol\":19805:19817  add(g, 0x20) */\n      add\n        /* \"Evm/zk/validators_verifier.sol\":19798:19827  mstore(add(g, 0x20), PUB_4_Y) */\n      mstore\n        /* \"Evm/zk/validators_verifier.sol\":19871:19874  128 */\n      0x80\n        /* \"Evm/zk/validators_verifier.sol\":19864:19869  input */\n      dup8\n        /* \"Evm/zk/validators_verifier.sol\":19860:19875  add(input, 128) */\n      add\n        /* \"Evm/zk/validators_verifier.sol\":19847:19876  calldataload(add(input, 128)) */\n      calldataload\n        /* \"Evm/zk/validators_verifier.sol\":19841:19876  s :=  calldataload(add(input, 128)) */\n      swap1\n      pop\n        /* \"Evm/zk/validators_verifier.sol\":19911:19912  s */\n      dup1\n        /* \"Evm/zk/validators_verifier.sol\":19904:19908  0x40 */\n      0x40\n        /* \"Evm/zk/validators_verifier.sol\":19901:19902  g */\n      dup4\n        /* \"Evm/zk/validators_verifier.sol\":19897:19909  add(g, 0x40) */\n      add\n        /* \"Evm/zk/validators_verifier.sol\":19890:19913  mstore(add(g, 0x40), s) */\n      mstore\n        /* \"Evm/zk/validators_verifier.sol\":19957:19958  R */\n      0x30644e72e131a029b85045b68181585d2833e84879b9709143e1f593f0000001\n        /* \"Evm/zk/validators_verifier.sol\":19954:19955  s */\n      dup2\n        /* \"Evm/zk/validators_verifier.sol\":19951:19959  lt(s, R) */\n      lt\n        /* \"Evm/zk/validators_verifier.sol\":19942:19949  success */\n      dup5\n        /* \"Evm/zk/validators_verifier.sol\":19938:19960  and(success, lt(s, R)) */\n      and\n        /* \"Evm/zk/validators_verifier.sol\":19927:19960  success := and(success, lt(s, R)) */\n      swap4\n      pop\n        /* \"Evm/zk/validators_verifier.sol\":20044:20048  0x40 */\n      0x40\n        /* \"Evm/zk/validators_verifier.sol\":20041:20042  g */\n      dup3\n        /* \"Evm/zk/validators_verifier.sol\":20035:20039  0x60 */\n      0x60\n        /* \"Evm/zk/validators_verifier.sol\":20032:20033  g */\n      dup5\n        /* \"Evm/zk/validators_verifier.sol\":20016:20030  PRECOMPILE_MUL */\n      0x07\n        /* \"Evm/zk/validators_verifier.sol\":20009:20014  gas() */\n      gas\n        /* \"Evm/zk/validators_verifier.sol\":19998:20049  staticcall(gas(), PRECOMPILE_MUL, g, 0x60, g, 0x40) */\n      staticcall\n        /* \"Evm/zk/validators_verifier.sol\":19989:19996  success */\n      dup5\n        /* \"Evm/zk/validators_verifier.sol\":19985:20050  and(success, staticcall(gas(), PRECOMPILE_MUL, g, 0x60, g, 0x40)) */\n      and\n        /* \"Evm/zk/validators_verifier.sol\":19974:20050  success := and(success, staticcall(gas(), PRECOMPILE_MUL, g, 0x60, g, 0x40)) */\n      swap4\n      pop\n        /* \"Evm/zk/validators_verifier.sol\":20134:20138  0x40 */\n      0x40\n        /* \"Evm/zk/validators_verifier.sol\":20131:20132  f */\n      dup4\n        /* \"Evm/zk/validators_verifier.sol\":20125:20129  0x80 */\n      0x80\n        /* \"Evm/zk/validators_verifier.sol\":20122:20123  f */\n      dup6\n        /* \"Evm/zk/validators_verifier.sol\":20106:20120  PRECOMPILE_ADD */\n      0x06\n        /* \"Evm/zk/validators_verifier.sol\":20099:20104  gas() */\n      gas\n        /* \"Evm/zk/validators_verifier.sol\":20088:20139  staticcall(gas(), PRECOMPILE_ADD, f, 0x80, f, 0x40) */\n      staticcall\n        /* \"Evm/zk/validators_verifier.sol\":20079:20086  success */\n      dup5\n        /* \"Evm/zk/validators_verifier.sol\":20075:20140  and(success, staticcall(gas(), PRECOMPILE_ADD, f, 0x80, f, 0x40)) */\n      and\n        /* \"Evm/zk/validators_verifier.sol\":20064:20140  success := and(success, staticcall(gas(), PRECOMPILE_ADD, f, 0x80, f, 0x40)) */\n      swap4\n      pop\n        /* \"Evm/zk/validators_verifier.sol\":20167:20168  f */\n      dup3\n        /* \"Evm/zk/validators_verifier.sol\":20161:20169  mload(f) */\n      mload\n        /* \"Evm/zk/validators_verifier.sol\":20156:20169  x := mload(f) */\n      swap6\n      pop\n        /* \"Evm/zk/validators_verifier.sol\":20201:20205  0x20 */\n      0x20\n        /* \"Evm/zk/validators_verifier.sol\":20198:20199  f */\n      dup4\n        /* \"Evm/zk/validators_verifier.sol\":20194:20206  add(f, 0x20) */\n      add\n        /* \"Evm/zk/validators_verifier.sol\":20188:20207  mload(add(f, 0x20)) */\n      mload\n        /* \"Evm/zk/validators_verifier.sol\":20183:20207  y := mload(add(f, 0x20)) */\n      swap5\n      pop\n        /* \"Evm/zk/validators_verifier.sol\":18043:20218  {... */\n      pop\n      pop\n      pop\n        /* \"Evm/zk/validators_verifier.sol\":20233:20240  success */\n      dup1\n        /* \"Evm/zk/validators_verifier.sol\":20228:20475  if (!success) {... */\n      tag_129\n      jumpi\n        /* \"Evm/zk/validators_verifier.sol\":20440:20463  PublicInputNotInField() */\n      mload(0x40)\n      0xa54f8e2700000000000000000000000000000000000000000000000000000000\n      dup2\n      mstore\n      0x04\n      add\n      mload(0x40)\n      dup1\n      swap2\n      sub\n      swap1\n      revert\n        /* \"Evm/zk/validators_verifier.sol\":20228:20475  if (!success) {... */\n    tag_129:\n        /* \"Evm/zk/validators_verifier.sol\":17376:20482  {... */\n      pop\n        /* \"Evm/zk/validators_verifier.sol\":17275:20482  function publicInputMSM(uint256[5] calldata input)... */\n      swap2\n      pop\n      swap2\n      jump\t// out\n        /* \"Evm/zk/validators_verifier.sol\":10144:10864  function compress_g1(uint256 x, uint256 y) internal view returns (uint256 c) {... */\n    tag_33:\n        /* \"Evm/zk/validators_verifier.sol\":10210:10219  uint256 c */\n      0x00\n        /* \"Evm/zk/validators_verifier.sol\":1423:1489  0x30644e72e131a029b85045b68181585d97816a916871ca8d3c208c16d87cfd47 */\n      0x30644e72e131a029b85045b68181585d97816a916871ca8d3c208c16d87cfd47\n        /* \"Evm/zk/validators_verifier.sol\":10236:10237  x */\n      dup4\n        /* \"Evm/zk/validators_verifier.sol\":10236:10242  x >= P */\n      lt\n      iszero\n        /* \"Evm/zk/validators_verifier.sol\":10236:10252  x >= P || y >= P */\n      dup1\n      tag_131\n      jumpi\n      pop\n        /* \"Evm/zk/validators_verifier.sol\":1423:1489  0x30644e72e131a029b85045b68181585d97816a916871ca8d3c208c16d87cfd47 */\n      0x30644e72e131a029b85045b68181585d97816a916871ca8d3c208c16d87cfd47\n        /* \"Evm/zk/validators_verifier.sol\":10246:10247  y */\n      dup3\n        /* \"Evm/zk/validators_verifier.sol\":10246:10252  y >= P */\n      lt\n      iszero\n        /* \"Evm/zk/validators_verifier.sol\":10236:10252  x >= P || y >= P */\n    tag_131:\n        /* \"Evm/zk/validators_verifier.sol\":10232:10341  if (x >= P || y >= P) {... */\n      iszero\n      tag_132\n      jumpi\n        /* \"Evm/zk/validators_verifier.sol\":10315:10329  ProofInvalid() */\n      mload(0x40)\n      0x7fcdd1f400000000000000000000000000000000000000000000000000000000\n      dup2\n      mstore\n      0x04\n      add\n      mload(0x40)\n      dup1\n      swap2\n      sub\n      swap1\n      revert\n        /* \"Evm/zk/validators_verifier.sol\":10232:10341  if (x >= P || y >= P) {... */\n    tag_132:\n        /* \"Evm/zk/validators_verifier.sol\":10360:10361  0 */\n      0x00\n        /* \"Evm/zk/validators_verifier.sol\":10355:10356  x */\n      dup4\n        /* \"Evm/zk/validators_verifier.sol\":10355:10361  x == 0 */\n      eq\n        /* \"Evm/zk/validators_verifier.sol\":10355:10371  x == 0 && y == 0 */\n      dup1\n      iszero\n      tag_133\n      jumpi\n      pop\n        /* \"Evm/zk/validators_verifier.sol\":10370:10371  0 */\n      0x00\n        /* \"Evm/zk/validators_verifier.sol\":10365:10366  y */\n      dup3\n        /* \"Evm/zk/validators_verifier.sol\":10365:10371  y == 0 */\n      eq\n        /* \"Evm/zk/validators_verifier.sol\":10355:10371  x == 0 && y == 0 */\n    tag_133:\n        /* \"Evm/zk/validators_verifier.sol\":10351:10442  if (x == 0 && y == 0) {... */\n      iszero\n      tag_134\n      jumpi\n        /* \"Evm/zk/validators_verifier.sol\":10429:10430  0 */\n      0x00\n        /* \"Evm/zk/validators_verifier.sol\":10422:10430  return 0 */\n      swap1\n      pop\n      jump(tag_130)\n        /* \"Evm/zk/validators_verifier.sol\":10351:10442  if (x == 0 && y == 0) {... */\n    tag_134:\n        /* \"Evm/zk/validators_verifier.sol\":10547:10560  uint256 y_pos */\n      0x00\n        /* \"Evm/zk/validators_verifier.sol\":10563:10615  sqrt_Fp(addmod(mulmod(mulmod(x, x, P), x, P), 3, P)) */\n      tag_135\n        /* \"Evm/zk/validators_verifier.sol\":1423:1489  0x30644e72e131a029b85045b68181585d97816a916871ca8d3c208c16d87cfd47 */\n      0x30644e72e131a029b85045b68181585d97816a916871ca8d3c208c16d87cfd47\n        /* \"Evm/zk/validators_verifier.sol\":10571:10614  addmod(mulmod(mulmod(x, x, P), x, P), 3, P) */\n      dup1\n      tag_136\n      jumpi\n      tag_137\n      tag_138\n      jump\t// in\n    tag_137:\n    tag_136:\n        /* \"Evm/zk/validators_verifier.sol\":10609:10610  3 */\n      0x03\n        /* \"Evm/zk/validators_verifier.sol\":1423:1489  0x30644e72e131a029b85045b68181585d97816a916871ca8d3c208c16d87cfd47 */\n      0x30644e72e131a029b85045b68181585d97816a916871ca8d3c208c16d87cfd47\n        /* \"Evm/zk/validators_verifier.sol\":10578:10607  mulmod(mulmod(x, x, P), x, P) */\n      dup1\n      tag_139\n      jumpi\n      tag_140\n      tag_138\n      jump\t// in\n    tag_140:\n    tag_139:\n        /* \"Evm/zk/validators_verifier.sol\":10602:10603  x */\n      dup8\n        /* \"Evm/zk/validators_verifier.sol\":1423:1489  0x30644e72e131a029b85045b68181585d97816a916871ca8d3c208c16d87cfd47 */\n      0x30644e72e131a029b85045b68181585d97816a916871ca8d3c208c16d87cfd47\n        /* \"Evm/zk/validators_verifier.sol\":10585:10600  mulmod(x, x, P) */\n      dup1\n      tag_141\n      jumpi\n      tag_142\n      tag_138\n      jump\t// in\n    tag_142:\n    tag_141:\n        /* \"Evm/zk/validators_verifier.sol\":10595:10596  x */\n      dup10\n        /* \"Evm/zk/validators_verifier.sol\":10592:10593  x */\n      dup11\n        /* \"Evm/zk/validators_verifier.sol\":10585:10600  mulmod(x, x, P) */\n      mulmod\n        /* \"Evm/zk/validators_verifier.sol\":10578:10607  mulmod(mulmod(x, x, P), x, P) */\n      mulmod\n        /* \"Evm/zk/validators_verifier.sol\":10571:10614  addmod(mulmod(mulmod(x, x, P), x, P), 3, P) */\n      addmod\n        /* \"Evm/zk/validators_verifier.sol\":10563:10570  sqrt_Fp */\n      tag_143\n        /* \"Evm/zk/validators_verifier.sol\":10563:10615  sqrt_Fp(addmod(mulmod(mulmod(x, x, P), x, P), 3, P)) */\n      jump\t// in\n    tag_135:\n        /* \"Evm/zk/validators_verifier.sol\":10547:10615  uint256 y_pos = sqrt_Fp(addmod(mulmod(mulmod(x, x, P), x, P), 3, P)) */\n      swap1\n      pop\n        /* \"Evm/zk/validators_verifier.sol\":10635:10640  y_pos */\n      dup1\n        /* \"Evm/zk/validators_verifier.sol\":10630:10631  y */\n      dup4\n        /* \"Evm/zk/validators_verifier.sol\":10630:10640  y == y_pos */\n      sub\n        /* \"Evm/zk/validators_verifier.sol\":10626:10857  if (y == y_pos) {... */\n      tag_144\n      jumpi\n        /* \"Evm/zk/validators_verifier.sol\":10675:10676  0 */\n      0x00\n        /* \"Evm/zk/validators_verifier.sol\":10670:10671  1 */\n      0x01\n        /* \"Evm/zk/validators_verifier.sol\":10665:10666  x */\n      dup6\n        /* \"Evm/zk/validators_verifier.sol\":10665:10671  x << 1 */\n      swap1\n      shl\n        /* \"Evm/zk/validators_verifier.sol\":10664:10676  (x << 1) | 0 */\n      or\n        /* \"Evm/zk/validators_verifier.sol\":10657:10676  return (x << 1) | 0 */\n      swap2\n      pop\n      pop\n      jump(tag_130)\n        /* \"Evm/zk/validators_verifier.sol\":10626:10857  if (y == y_pos) {... */\n    tag_144:\n        /* \"Evm/zk/validators_verifier.sol\":10703:10716  negate(y_pos) */\n      tag_146\n        /* \"Evm/zk/validators_verifier.sol\":10710:10715  y_pos */\n      dup2\n        /* \"Evm/zk/validators_verifier.sol\":10703:10709  negate */\n      tag_147\n        /* \"Evm/zk/validators_verifier.sol\":10703:10716  negate(y_pos) */\n      jump\t// in\n    tag_146:\n        /* \"Evm/zk/validators_verifier.sol\":10698:10699  y */\n      dup4\n        /* \"Evm/zk/validators_verifier.sol\":10698:10716  y == negate(y_pos) */\n      sub\n        /* \"Evm/zk/validators_verifier.sol\":10694:10857  if (y == negate(y_pos)) {... */\n      tag_148\n      jumpi\n        /* \"Evm/zk/validators_verifier.sol\":10751:10752  1 */\n      0x01\n        /* \"Evm/zk/validators_verifier.sol\":10746:10747  1 */\n      dup1\n        /* \"Evm/zk/validators_verifier.sol\":10741:10742  x */\n      dup6\n        /* \"Evm/zk/validators_verifier.sol\":10741:10747  x << 1 */\n      swap1\n      shl\n        /* \"Evm/zk/validators_verifier.sol\":10740:10752  (x << 1) | 1 */\n      or\n        /* \"Evm/zk/validators_verifier.sol\":10733:10752  return (x << 1) | 1 */\n      swap2\n      pop\n      pop\n      jump(tag_130)\n        /* \"Evm/zk/validators_verifier.sol\":10694:10857  if (y == negate(y_pos)) {... */\n    tag_148:\n        /* \"Evm/zk/validators_verifier.sol\":10831:10845  ProofInvalid() */\n      mload(0x40)\n      0x7fcdd1f400000000000000000000000000000000000000000000000000000000\n      dup2\n      mstore\n      0x04\n      add\n      mload(0x40)\n      dup1\n      swap2\n      sub\n      swap1\n      revert\n        /* \"Evm/zk/validators_verifier.sol\":10144:10864  function compress_g1(uint256 x, uint256 y) internal view returns (uint256 c) {... */\n    tag_130:\n      swap3\n      swap2\n      pop\n      pop\n      jump\t// out\n        /* \"Evm/zk/validators_verifier.sol\":12902:14605  function compress_g2(uint256 x0, uint256 x1, uint256 y0, uint256 y1)... */\n    tag_45:\n        /* \"Evm/zk/validators_verifier.sol\":12999:13009  uint256 c0 */\n      0x00\n        /* \"Evm/zk/validators_verifier.sol\":13011:13021  uint256 c1 */\n      0x00\n        /* \"Evm/zk/validators_verifier.sol\":1423:1489  0x30644e72e131a029b85045b68181585d97816a916871ca8d3c208c16d87cfd47 */\n      0x30644e72e131a029b85045b68181585d97816a916871ca8d3c208c16d87cfd47\n        /* \"Evm/zk/validators_verifier.sol\":13038:13040  x0 */\n      dup7\n        /* \"Evm/zk/validators_verifier.sol\":13038:13045  x0 >= P */\n      lt\n      iszero\n        /* \"Evm/zk/validators_verifier.sol\":13038:13056  x0 >= P || x1 >= P */\n      dup1\n      tag_151\n      jumpi\n      pop\n        /* \"Evm/zk/validators_verifier.sol\":1423:1489  0x30644e72e131a029b85045b68181585d97816a916871ca8d3c208c16d87cfd47 */\n      0x30644e72e131a029b85045b68181585d97816a916871ca8d3c208c16d87cfd47\n        /* \"Evm/zk/validators_verifier.sol\":13049:13051  x1 */\n      dup6\n        /* \"Evm/zk/validators_verifier.sol\":13049:13056  x1 >= P */\n      lt\n      iszero\n        /* \"Evm/zk/validators_verifier.sol\":13038:13056  x0 >= P || x1 >= P */\n    tag_151:\n        /* \"Evm/zk/validators_verifier.sol\":13038:13067  x0 >= P || x1 >= P || y0 >= P */\n      dup1\n      tag_152\n      jumpi\n      pop\n        /* \"Evm/zk/validators_verifier.sol\":1423:1489  0x30644e72e131a029b85045b68181585d97816a916871ca8d3c208c16d87cfd47 */\n      0x30644e72e131a029b85045b68181585d97816a916871ca8d3c208c16d87cfd47\n        /* \"Evm/zk/validators_verifier.sol\":13060:13062  y0 */\n      dup5\n        /* \"Evm/zk/validators_verifier.sol\":13060:13067  y0 >= P */\n      lt\n      iszero\n        /* \"Evm/zk/validators_verifier.sol\":13038:13067  x0 >= P || x1 >= P || y0 >= P */\n    tag_152:\n        /* \"Evm/zk/validators_verifier.sol\":13038:13078  x0 >= P || x1 >= P || y0 >= P || y1 >= P */\n      dup1\n      tag_153\n      jumpi\n      pop\n        /* \"Evm/zk/validators_verifier.sol\":1423:1489  0x30644e72e131a029b85045b68181585d97816a916871ca8d3c208c16d87cfd47 */\n      0x30644e72e131a029b85045b68181585d97816a916871ca8d3c208c16d87cfd47\n        /* \"Evm/zk/validators_verifier.sol\":13071:13073  y1 */\n      dup4\n        /* \"Evm/zk/validators_verifier.sol\":13071:13078  y1 >= P */\n      lt\n      iszero\n        /* \"Evm/zk/validators_verifier.sol\":13038:13078  x0 >= P || x1 >= P || y0 >= P || y1 >= P */\n    tag_153:\n        /* \"Evm/zk/validators_verifier.sol\":13034:13167  if (x0 >= P || x1 >= P || y0 >= P || y1 >= P) {... */\n      iszero\n      tag_154\n      jumpi\n        /* \"Evm/zk/validators_verifier.sol\":13141:13155  ProofInvalid() */\n      mload(0x40)\n      0x7fcdd1f400000000000000000000000000000000000000000000000000000000\n      dup2\n      mstore\n      0x04\n      add\n      mload(0x40)\n      dup1\n      swap2\n      sub\n      swap1\n      revert\n        /* \"Evm/zk/validators_verifier.sol\":13034:13167  if (x0 >= P || x1 >= P || y0 >= P || y1 >= P) {... */\n    tag_154:\n        /* \"Evm/zk/validators_verifier.sol\":13204:13205  0 */\n      0x00\n        /* \"Evm/zk/validators_verifier.sol\":13197:13199  y1 */\n      dup4\n        /* \"Evm/zk/validators_verifier.sol\":13192:13194  y0 */\n      dup6\n        /* \"Evm/zk/validators_verifier.sol\":13187:13189  x1 */\n      dup8\n        /* \"Evm/zk/validators_verifier.sol\":13182:13184  x0 */\n      dup10\n        /* \"Evm/zk/validators_verifier.sol\":13182:13189  x0 | x1 */\n      or\n        /* \"Evm/zk/validators_verifier.sol\":13182:13194  x0 | x1 | y0 */\n      or\n        /* \"Evm/zk/validators_verifier.sol\":13182:13199  x0 | x1 | y0 | y1 */\n      or\n        /* \"Evm/zk/validators_verifier.sol\":13181:13205  (x0 | x1 | y0 | y1) == 0 */\n      sub\n        /* \"Evm/zk/validators_verifier.sol\":13177:13281  if ((x0 | x1 | y0 | y1) == 0) {... */\n      tag_155\n      jumpi\n        /* \"Evm/zk/validators_verifier.sol\":13264:13265  0 */\n      0x00\n        /* \"Evm/zk/validators_verifier.sol\":13267:13268  0 */\n      0x00\n        /* \"Evm/zk/validators_verifier.sol\":13256:13269  return (0, 0) */\n      swap2\n      pop\n      swap2\n      pop\n      jump(tag_150)\n        /* \"Evm/zk/validators_verifier.sol\":13177:13281  if ((x0 | x1 | y0 | y1) == 0) {... */\n    tag_155:\n        /* \"Evm/zk/validators_verifier.sol\":13391:13405  uint256 y0_pos */\n      0x00\n        /* \"Evm/zk/validators_verifier.sol\":13416:13430  uint256 y1_pos */\n      0x00\n        /* \"Evm/zk/validators_verifier.sol\":13456:13468  uint256 n3ab */\n      0x00\n        /* \"Evm/zk/validators_verifier.sol\":1423:1489  0x30644e72e131a029b85045b68181585d97816a916871ca8d3c208c16d87cfd47 */\n      0x30644e72e131a029b85045b68181585d97816a916871ca8d3c208c16d87cfd47\n        /* \"Evm/zk/validators_verifier.sol\":13471:13504  mulmod(mulmod(x0, x1, P), P-3, P) */\n      dup1\n      tag_156\n      jumpi\n      tag_157\n      tag_138\n      jump\t// in\n    tag_157:\n    tag_156:\n        /* \"Evm/zk/validators_verifier.sol\":13499:13500  3 */\n      0x03\n        /* \"Evm/zk/validators_verifier.sol\":1423:1489  0x30644e72e131a029b85045b68181585d97816a916871ca8d3c208c16d87cfd47 */\n      0x30644e72e131a029b85045b68181585d97816a916871ca8d3c208c16d87cfd47\n        /* \"Evm/zk/validators_verifier.sol\":13497:13500  P-3 */\n      tag_158\n      swap2\n      swap1\n      tag_159\n      jump\t// in\n    tag_158:\n        /* \"Evm/zk/validators_verifier.sol\":1423:1489  0x30644e72e131a029b85045b68181585d97816a916871ca8d3c208c16d87cfd47 */\n      0x30644e72e131a029b85045b68181585d97816a916871ca8d3c208c16d87cfd47\n        /* \"Evm/zk/validators_verifier.sol\":13478:13495  mulmod(x0, x1, P) */\n      dup1\n      tag_160\n      jumpi\n      tag_161\n      tag_138\n      jump\t// in\n    tag_161:\n    tag_160:\n        /* \"Evm/zk/validators_verifier.sol\":13489:13491  x1 */\n      dup11\n        /* \"Evm/zk/validators_verifier.sol\":13485:13487  x0 */\n      dup13\n        /* \"Evm/zk/validators_verifier.sol\":13478:13495  mulmod(x0, x1, P) */\n      mulmod\n        /* \"Evm/zk/validators_verifier.sol\":13471:13504  mulmod(mulmod(x0, x1, P), P-3, P) */\n      mulmod\n        /* \"Evm/zk/validators_verifier.sol\":13456:13504  uint256 n3ab = mulmod(mulmod(x0, x1, P), P-3, P) */\n      swap1\n      pop\n        /* \"Evm/zk/validators_verifier.sol\":13519:13530  uint256 a_3 */\n      0x00\n        /* \"Evm/zk/validators_verifier.sol\":1423:1489  0x30644e72e131a029b85045b68181585d97816a916871ca8d3c208c16d87cfd47 */\n      0x30644e72e131a029b85045b68181585d97816a916871ca8d3c208c16d87cfd47\n        /* \"Evm/zk/validators_verifier.sol\":13533:13565  mulmod(mulmod(x0, x0, P), x0, P) */\n      dup1\n      tag_162\n      jumpi\n      tag_163\n      tag_138\n      jump\t// in\n    tag_163:\n    tag_162:\n        /* \"Evm/zk/validators_verifier.sol\":13559:13561  x0 */\n      dup11\n        /* \"Evm/zk/validators_verifier.sol\":1423:1489  0x30644e72e131a029b85045b68181585d97816a916871ca8d3c208c16d87cfd47 */\n      0x30644e72e131a029b85045b68181585d97816a916871ca8d3c208c16d87cfd47\n        /* \"Evm/zk/validators_verifier.sol\":13540:13557  mulmod(x0, x0, P) */\n      dup1\n      tag_164\n      jumpi\n      tag_165\n      tag_138\n      jump\t// in\n    tag_165:\n    tag_164:\n        /* \"Evm/zk/validators_verifier.sol\":13551:13553  x0 */\n      dup13\n        /* \"Evm/zk/validators_verifier.sol\":13547:13549  x0 */\n      dup14\n        /* \"Evm/zk/validators_verifier.sol\":13540:13557  mulmod(x0, x0, P) */\n      mulmod\n        /* \"Evm/zk/validators_verifier.sol\":13533:13565  mulmod(mulmod(x0, x0, P), x0, P) */\n      mulmod\n        /* \"Evm/zk/validators_verifier.sol\":13519:13565  uint256 a_3 = mulmod(mulmod(x0, x0, P), x0, P) */\n      swap1\n      pop\n        /* \"Evm/zk/validators_verifier.sol\":13580:13591  uint256 b_3 */\n      0x00\n        /* \"Evm/zk/validators_verifier.sol\":1423:1489  0x30644e72e131a029b85045b68181585d97816a916871ca8d3c208c16d87cfd47 */\n      0x30644e72e131a029b85045b68181585d97816a916871ca8d3c208c16d87cfd47\n        /* \"Evm/zk/validators_verifier.sol\":13594:13626  mulmod(mulmod(x1, x1, P), x1, P) */\n      dup1\n      tag_166\n      jumpi\n      tag_167\n      tag_138\n      jump\t// in\n    tag_167:\n    tag_166:\n        /* \"Evm/zk/validators_verifier.sol\":13620:13622  x1 */\n      dup11\n        /* \"Evm/zk/validators_verifier.sol\":1423:1489  0x30644e72e131a029b85045b68181585d97816a916871ca8d3c208c16d87cfd47 */\n      0x30644e72e131a029b85045b68181585d97816a916871ca8d3c208c16d87cfd47\n        /* \"Evm/zk/validators_verifier.sol\":13601:13618  mulmod(x1, x1, P) */\n      dup1\n      tag_168\n      jumpi\n      tag_169\n      tag_138\n      jump\t// in\n    tag_169:\n    tag_168:\n        /* \"Evm/zk/validators_verifier.sol\":13612:13614  x1 */\n      dup13\n        /* \"Evm/zk/validators_verifier.sol\":13608:13610  x1 */\n      dup14\n        /* \"Evm/zk/validators_verifier.sol\":13601:13618  mulmod(x1, x1, P) */\n      mulmod\n        /* \"Evm/zk/validators_verifier.sol\":13594:13626  mulmod(mulmod(x1, x1, P), x1, P) */\n      mulmod\n        /* \"Evm/zk/validators_verifier.sol\":13580:13626  uint256 b_3 = mulmod(mulmod(x1, x1, P), x1, P) */\n      swap1\n      pop\n        /* \"Evm/zk/validators_verifier.sol\":1423:1489  0x30644e72e131a029b85045b68181585d97816a916871ca8d3c208c16d87cfd47 */\n      0x30644e72e131a029b85045b68181585d97816a916871ca8d3c208c16d87cfd47\n        /* \"Evm/zk/validators_verifier.sol\":13650:13715  addmod(FRACTION_27_82_FP, addmod(a_3, mulmod(n3ab, x1, P), P), P) */\n      dup1\n      tag_170\n      jumpi\n      tag_171\n      tag_138\n      jump\t// in\n    tag_171:\n    tag_170:\n        /* \"Evm/zk/validators_verifier.sol\":1423:1489  0x30644e72e131a029b85045b68181585d97816a916871ca8d3c208c16d87cfd47 */\n      0x30644e72e131a029b85045b68181585d97816a916871ca8d3c208c16d87cfd47\n        /* \"Evm/zk/validators_verifier.sol\":13676:13711  addmod(a_3, mulmod(n3ab, x1, P), P) */\n      dup1\n      tag_172\n      jumpi\n      tag_173\n      tag_138\n      jump\t// in\n    tag_173:\n    tag_172:\n        /* \"Evm/zk/validators_verifier.sol\":1423:1489  0x30644e72e131a029b85045b68181585d97816a916871ca8d3c208c16d87cfd47 */\n      0x30644e72e131a029b85045b68181585d97816a916871ca8d3c208c16d87cfd47\n        /* \"Evm/zk/validators_verifier.sol\":13688:13707  mulmod(n3ab, x1, P) */\n      dup1\n      tag_174\n      jumpi\n      tag_175\n      tag_138\n      jump\t// in\n    tag_175:\n    tag_174:\n        /* \"Evm/zk/validators_verifier.sol\":13701:13703  x1 */\n      dup13\n        /* \"Evm/zk/validators_verifier.sol\":13695:13699  n3ab */\n      dup7\n        /* \"Evm/zk/validators_verifier.sol\":13688:13707  mulmod(n3ab, x1, P) */\n      mulmod\n        /* \"Evm/zk/validators_verifier.sol\":13683:13686  a_3 */\n      dup5\n        /* \"Evm/zk/validators_verifier.sol\":13676:13711  addmod(a_3, mulmod(n3ab, x1, P), P) */\n      addmod\n        /* \"Evm/zk/validators_verifier.sol\":2254:2320  0x2b149d40ceb8aaae81be18991be06ac3b5b4c5e559dbefa33267e6dc24a138e5 */\n      0x2b149d40ceb8aaae81be18991be06ac3b5b4c5e559dbefa33267e6dc24a138e5\n        /* \"Evm/zk/validators_verifier.sol\":13650:13715  addmod(FRACTION_27_82_FP, addmod(a_3, mulmod(n3ab, x1, P), P), P) */\n      addmod\n        /* \"Evm/zk/validators_verifier.sol\":13641:13715  y0_pos = addmod(FRACTION_27_82_FP, addmod(a_3, mulmod(n3ab, x1, P), P), P) */\n      swap5\n      pop\n        /* \"Evm/zk/validators_verifier.sol\":13739:13812  negate(addmod(FRACTION_3_82_FP,  addmod(b_3, mulmod(n3ab, x0, P), P), P)) */\n      tag_176\n        /* \"Evm/zk/validators_verifier.sol\":1423:1489  0x30644e72e131a029b85045b68181585d97816a916871ca8d3c208c16d87cfd47 */\n      0x30644e72e131a029b85045b68181585d97816a916871ca8d3c208c16d87cfd47\n        /* \"Evm/zk/validators_verifier.sol\":13746:13811  addmod(FRACTION_3_82_FP,  addmod(b_3, mulmod(n3ab, x0, P), P), P) */\n      dup1\n      tag_177\n      jumpi\n      tag_178\n      tag_138\n      jump\t// in\n    tag_178:\n    tag_177:\n        /* \"Evm/zk/validators_verifier.sol\":1423:1489  0x30644e72e131a029b85045b68181585d97816a916871ca8d3c208c16d87cfd47 */\n      0x30644e72e131a029b85045b68181585d97816a916871ca8d3c208c16d87cfd47\n        /* \"Evm/zk/validators_verifier.sol\":13772:13807  addmod(b_3, mulmod(n3ab, x0, P), P) */\n      dup1\n      tag_179\n      jumpi\n      tag_180\n      tag_138\n      jump\t// in\n    tag_180:\n    tag_179:\n        /* \"Evm/zk/validators_verifier.sol\":1423:1489  0x30644e72e131a029b85045b68181585d97816a916871ca8d3c208c16d87cfd47 */\n      0x30644e72e131a029b85045b68181585d97816a916871ca8d3c208c16d87cfd47\n        /* \"Evm/zk/validators_verifier.sol\":13784:13803  mulmod(n3ab, x0, P) */\n      dup1\n      tag_181\n      jumpi\n      tag_182\n      tag_138\n      jump\t// in\n    tag_182:\n    tag_181:\n        /* \"Evm/zk/validators_verifier.sol\":13797:13799  x0 */\n      dup15\n        /* \"Evm/zk/validators_verifier.sol\":13791:13795  n3ab */\n      dup8\n        /* \"Evm/zk/validators_verifier.sol\":13784:13803  mulmod(n3ab, x0, P) */\n      mulmod\n        /* \"Evm/zk/validators_verifier.sol\":13779:13782  b_3 */\n      dup5\n        /* \"Evm/zk/validators_verifier.sol\":13772:13807  addmod(b_3, mulmod(n3ab, x0, P), P) */\n      addmod\n        /* \"Evm/zk/validators_verifier.sol\":2363:2429  0x2fcd3ac2a640a154eb23960892a85a68f031ca0c8344b23a577dcf1052b9e775 */\n      0x2fcd3ac2a640a154eb23960892a85a68f031ca0c8344b23a577dcf1052b9e775\n        /* \"Evm/zk/validators_verifier.sol\":13746:13811  addmod(FRACTION_3_82_FP,  addmod(b_3, mulmod(n3ab, x0, P), P), P) */\n      addmod\n        /* \"Evm/zk/validators_verifier.sol\":13739:13745  negate */\n      tag_147\n        /* \"Evm/zk/validators_verifier.sol\":13739:13812  negate(addmod(FRACTION_3_82_FP,  addmod(b_3, mulmod(n3ab, x0, P), P), P)) */\n      jump\t// in\n    tag_176:\n        /* \"Evm/zk/validators_verifier.sol\":13730:13812  y1_pos = negate(addmod(FRACTION_3_82_FP,  addmod(b_3, mulmod(n3ab, x0, P), P), P)) */\n      swap4\n      pop\n        /* \"Evm/zk/validators_verifier.sol\":13441:13824  {... */\n      pop\n      pop\n      pop\n        /* \"Evm/zk/validators_verifier.sol\":13936:13945  bool hint */\n      0x00\n        /* \"Evm/zk/validators_verifier.sol\":13971:13980  uint256 d */\n      0x00\n        /* \"Evm/zk/validators_verifier.sol\":13983:14055  sqrt_Fp(addmod(mulmod(y0_pos, y0_pos, P), mulmod(y1_pos, y1_pos, P), P)) */\n      tag_183\n        /* \"Evm/zk/validators_verifier.sol\":1423:1489  0x30644e72e131a029b85045b68181585d97816a916871ca8d3c208c16d87cfd47 */\n      0x30644e72e131a029b85045b68181585d97816a916871ca8d3c208c16d87cfd47\n        /* \"Evm/zk/validators_verifier.sol\":13991:14054  addmod(mulmod(y0_pos, y0_pos, P), mulmod(y1_pos, y1_pos, P), P) */\n      dup1\n      tag_184\n      jumpi\n      tag_185\n      tag_138\n      jump\t// in\n    tag_185:\n    tag_184:\n        /* \"Evm/zk/validators_verifier.sol\":1423:1489  0x30644e72e131a029b85045b68181585d97816a916871ca8d3c208c16d87cfd47 */\n      0x30644e72e131a029b85045b68181585d97816a916871ca8d3c208c16d87cfd47\n        /* \"Evm/zk/validators_verifier.sol\":14025:14050  mulmod(y1_pos, y1_pos, P) */\n      dup1\n      tag_186\n      jumpi\n      tag_187\n      tag_138\n      jump\t// in\n    tag_187:\n    tag_186:\n        /* \"Evm/zk/validators_verifier.sol\":14040:14046  y1_pos */\n      dup6\n        /* \"Evm/zk/validators_verifier.sol\":14032:14038  y1_pos */\n      dup7\n        /* \"Evm/zk/validators_verifier.sol\":14025:14050  mulmod(y1_pos, y1_pos, P) */\n      mulmod\n        /* \"Evm/zk/validators_verifier.sol\":1423:1489  0x30644e72e131a029b85045b68181585d97816a916871ca8d3c208c16d87cfd47 */\n      0x30644e72e131a029b85045b68181585d97816a916871ca8d3c208c16d87cfd47\n        /* \"Evm/zk/validators_verifier.sol\":13998:14023  mulmod(y0_pos, y0_pos, P) */\n      dup1\n      tag_188\n      jumpi\n      tag_189\n      tag_138\n      jump\t// in\n    tag_189:\n    tag_188:\n        /* \"Evm/zk/validators_verifier.sol\":14013:14019  y0_pos */\n      dup8\n        /* \"Evm/zk/validators_verifier.sol\":14005:14011  y0_pos */\n      dup9\n        /* \"Evm/zk/validators_verifier.sol\":13998:14023  mulmod(y0_pos, y0_pos, P) */\n      mulmod\n        /* \"Evm/zk/validators_verifier.sol\":13991:14054  addmod(mulmod(y0_pos, y0_pos, P), mulmod(y1_pos, y1_pos, P), P) */\n      addmod\n        /* \"Evm/zk/validators_verifier.sol\":13983:13990  sqrt_Fp */\n      tag_143\n        /* \"Evm/zk/validators_verifier.sol\":13983:14055  sqrt_Fp(addmod(mulmod(y0_pos, y0_pos, P), mulmod(y1_pos, y1_pos, P), P)) */\n      jump\t// in\n    tag_183:\n        /* \"Evm/zk/validators_verifier.sol\":13971:14055  uint256 d = sqrt_Fp(addmod(mulmod(y0_pos, y0_pos, P), mulmod(y1_pos, y1_pos, P), P)) */\n      swap1\n      pop\n        /* \"Evm/zk/validators_verifier.sol\":14078:14139  isSquare_Fp(mulmod(addmod(y0_pos, d, P), FRACTION_1_2_FP, P)) */\n      tag_190\n        /* \"Evm/zk/validators_verifier.sol\":1423:1489  0x30644e72e131a029b85045b68181585d97816a916871ca8d3c208c16d87cfd47 */\n      0x30644e72e131a029b85045b68181585d97816a916871ca8d3c208c16d87cfd47\n        /* \"Evm/zk/validators_verifier.sol\":14090:14138  mulmod(addmod(y0_pos, d, P), FRACTION_1_2_FP, P) */\n      dup1\n      tag_191\n      jumpi\n      tag_192\n      tag_138\n      jump\t// in\n    tag_192:\n    tag_191:\n        /* \"Evm/zk/validators_verifier.sol\":2144:2210  0x183227397098d014dc2822db40c0ac2ecbc0b548b438e5469e10460b6c3e7ea4 */\n      0x183227397098d014dc2822db40c0ac2ecbc0b548b438e5469e10460b6c3e7ea4\n        /* \"Evm/zk/validators_verifier.sol\":1423:1489  0x30644e72e131a029b85045b68181585d97816a916871ca8d3c208c16d87cfd47 */\n      0x30644e72e131a029b85045b68181585d97816a916871ca8d3c208c16d87cfd47\n        /* \"Evm/zk/validators_verifier.sol\":14097:14117  addmod(y0_pos, d, P) */\n      dup1\n      tag_193\n      jumpi\n      tag_194\n      tag_138\n      jump\t// in\n    tag_194:\n    tag_193:\n        /* \"Evm/zk/validators_verifier.sol\":14112:14113  d */\n      dup5\n        /* \"Evm/zk/validators_verifier.sol\":14104:14110  y0_pos */\n      dup9\n        /* \"Evm/zk/validators_verifier.sol\":14097:14117  addmod(y0_pos, d, P) */\n      addmod\n        /* \"Evm/zk/validators_verifier.sol\":14090:14138  mulmod(addmod(y0_pos, d, P), FRACTION_1_2_FP, P) */\n      mulmod\n        /* \"Evm/zk/validators_verifier.sol\":14078:14089  isSquare_Fp */\n      tag_195\n        /* \"Evm/zk/validators_verifier.sol\":14078:14139  isSquare_Fp(mulmod(addmod(y0_pos, d, P), FRACTION_1_2_FP, P)) */\n      jump\t// in\n    tag_190:\n        /* \"Evm/zk/validators_verifier.sol\":14077:14139  !isSquare_Fp(mulmod(addmod(y0_pos, d, P), FRACTION_1_2_FP, P)) */\n      iszero\n        /* \"Evm/zk/validators_verifier.sol\":14070:14139  hint = !isSquare_Fp(mulmod(addmod(y0_pos, d, P), FRACTION_1_2_FP, P)) */\n      swap2\n      pop\n        /* \"Evm/zk/validators_verifier.sol\":13956:14151  {... */\n      pop\n        /* \"Evm/zk/validators_verifier.sol\":14204:14234  sqrt_Fp2(y0_pos, y1_pos, hint) */\n      tag_196\n        /* \"Evm/zk/validators_verifier.sol\":14213:14219  y0_pos */\n      dup4\n        /* \"Evm/zk/validators_verifier.sol\":14221:14227  y1_pos */\n      dup4\n        /* \"Evm/zk/validators_verifier.sol\":14229:14233  hint */\n      dup4\n        /* \"Evm/zk/validators_verifier.sol\":14204:14212  sqrt_Fp2 */\n      tag_197\n        /* \"Evm/zk/validators_verifier.sol\":14204:14234  sqrt_Fp2(y0_pos, y1_pos, hint) */\n      jump\t// in\n    tag_196:\n        /* \"Evm/zk/validators_verifier.sol\":14185:14234  (y0_pos, y1_pos) = sqrt_Fp2(y0_pos, y1_pos, hint) */\n      dup1\n      swap4\n      pop\n      dup2\n      swap5\n      pop\n      pop\n      pop\n        /* \"Evm/zk/validators_verifier.sol\":14255:14261  y0_pos */\n      dup3\n        /* \"Evm/zk/validators_verifier.sol\":14249:14251  y0 */\n      dup8\n        /* \"Evm/zk/validators_verifier.sol\":14249:14261  y0 == y0_pos */\n      eq\n        /* \"Evm/zk/validators_verifier.sol\":14249:14277  y0 == y0_pos && y1 == y1_pos */\n      dup1\n      iszero\n      tag_198\n      jumpi\n      pop\n        /* \"Evm/zk/validators_verifier.sol\":14271:14277  y1_pos */\n      dup2\n        /* \"Evm/zk/validators_verifier.sol\":14265:14267  y1 */\n      dup7\n        /* \"Evm/zk/validators_verifier.sol\":14265:14277  y1 == y1_pos */\n      eq\n        /* \"Evm/zk/validators_verifier.sol\":14249:14277  y0 == y0_pos && y1 == y1_pos */\n    tag_198:\n        /* \"Evm/zk/validators_verifier.sol\":14245:14598  if (y0 == y0_pos && y1 == y1_pos) {... */\n      iszero\n      tag_199\n      jumpi\n        /* \"Evm/zk/validators_verifier.sol\":14329:14330  0 */\n      0x00\n        /* \"Evm/zk/validators_verifier.sol\":14312:14316  hint */\n      dup2\n        /* \"Evm/zk/validators_verifier.sol\":14312:14325  hint ? 2  : 0 */\n      tag_200\n      jumpi\n        /* \"Evm/zk/validators_verifier.sol\":14324:14325  0 */\n      0x00\n        /* \"Evm/zk/validators_verifier.sol\":14312:14325  hint ? 2  : 0 */\n      jump(tag_201)\n    tag_200:\n        /* \"Evm/zk/validators_verifier.sol\":14319:14320  2 */\n      0x02\n        /* \"Evm/zk/validators_verifier.sol\":14312:14325  hint ? 2  : 0 */\n    tag_201:\n        /* \"Evm/zk/validators_verifier.sol\":14299:14326  (x0 << 2) | (hint ? 2  : 0) */\n      0xff\n      and\n        /* \"Evm/zk/validators_verifier.sol\":14306:14307  2 */\n      0x02\n        /* \"Evm/zk/validators_verifier.sol\":14300:14302  x0 */\n      dup12\n        /* \"Evm/zk/validators_verifier.sol\":14300:14307  x0 << 2 */\n      swap1\n      shl\n        /* \"Evm/zk/validators_verifier.sol\":14299:14326  (x0 << 2) | (hint ? 2  : 0) */\n      or\n        /* \"Evm/zk/validators_verifier.sol\":14299:14330  (x0 << 2) | (hint ? 2  : 0) | 0 */\n      or\n        /* \"Evm/zk/validators_verifier.sol\":14294:14330  c0 = (x0 << 2) | (hint ? 2  : 0) | 0 */\n      swap5\n      pop\n        /* \"Evm/zk/validators_verifier.sol\":14350:14352  x1 */\n      dup8\n        /* \"Evm/zk/validators_verifier.sol\":14345:14352  c1 = x1 */\n      swap4\n      pop\n        /* \"Evm/zk/validators_verifier.sol\":14245:14598  if (y0 == y0_pos && y1 == y1_pos) {... */\n      jump(tag_202)\n    tag_199:\n        /* \"Evm/zk/validators_verifier.sol\":14380:14394  negate(y0_pos) */\n      tag_203\n        /* \"Evm/zk/validators_verifier.sol\":14387:14393  y0_pos */\n      dup4\n        /* \"Evm/zk/validators_verifier.sol\":14380:14386  negate */\n      tag_147\n        /* \"Evm/zk/validators_verifier.sol\":14380:14394  negate(y0_pos) */\n      jump\t// in\n    tag_203:\n        /* \"Evm/zk/validators_verifier.sol\":14374:14376  y0 */\n      dup8\n        /* \"Evm/zk/validators_verifier.sol\":14374:14394  y0 == negate(y0_pos) */\n      eq\n        /* \"Evm/zk/validators_verifier.sol\":14374:14418  y0 == negate(y0_pos) && y1 == negate(y1_pos) */\n      dup1\n      iszero\n      tag_204\n      jumpi\n      pop\n        /* \"Evm/zk/validators_verifier.sol\":14404:14418  negate(y1_pos) */\n      tag_205\n        /* \"Evm/zk/validators_verifier.sol\":14411:14417  y1_pos */\n      dup3\n        /* \"Evm/zk/validators_verifier.sol\":14404:14410  negate */\n      tag_147\n        /* \"Evm/zk/validators_verifier.sol\":14404:14418  negate(y1_pos) */\n      jump\t// in\n    tag_205:\n        /* \"Evm/zk/validators_verifier.sol\":14398:14400  y1 */\n      dup7\n        /* \"Evm/zk/validators_verifier.sol\":14398:14418  y1 == negate(y1_pos) */\n      eq\n        /* \"Evm/zk/validators_verifier.sol\":14374:14418  y0 == negate(y0_pos) && y1 == negate(y1_pos) */\n    tag_204:\n        /* \"Evm/zk/validators_verifier.sol\":14370:14598  if (y0 == negate(y0_pos) && y1 == negate(y1_pos)) {... */\n      iszero\n      tag_206\n      jumpi\n        /* \"Evm/zk/validators_verifier.sol\":14470:14471  1 */\n      0x01\n        /* \"Evm/zk/validators_verifier.sol\":14453:14457  hint */\n      dup2\n        /* \"Evm/zk/validators_verifier.sol\":14453:14466  hint ? 2  : 0 */\n      tag_207\n      jumpi\n        /* \"Evm/zk/validators_verifier.sol\":14465:14466  0 */\n      0x00\n        /* \"Evm/zk/validators_verifier.sol\":14453:14466  hint ? 2  : 0 */\n      jump(tag_208)\n    tag_207:\n        /* \"Evm/zk/validators_verifier.sol\":14460:14461  2 */\n      0x02\n        /* \"Evm/zk/validators_verifier.sol\":14453:14466  hint ? 2  : 0 */\n    tag_208:\n        /* \"Evm/zk/validators_verifier.sol\":14440:14467  (x0 << 2) | (hint ? 2  : 0) */\n      0xff\n      and\n        /* \"Evm/zk/validators_verifier.sol\":14447:14448  2 */\n      0x02\n        /* \"Evm/zk/validators_verifier.sol\":14441:14443  x0 */\n      dup12\n        /* \"Evm/zk/validators_verifier.sol\":14441:14448  x0 << 2 */\n      swap1\n      shl\n        /* \"Evm/zk/validators_verifier.sol\":14440:14467  (x0 << 2) | (hint ? 2  : 0) */\n      or\n        /* \"Evm/zk/validators_verifier.sol\":14440:14471  (x0 << 2) | (hint ? 2  : 0) | 1 */\n      or\n        /* \"Evm/zk/validators_verifier.sol\":14435:14471  c0 = (x0 << 2) | (hint ? 2  : 0) | 1 */\n      swap5\n      pop\n        /* \"Evm/zk/validators_verifier.sol\":14491:14493  x1 */\n      dup8\n        /* \"Evm/zk/validators_verifier.sol\":14486:14493  c1 = x1 */\n      swap4\n      pop\n        /* \"Evm/zk/validators_verifier.sol\":14370:14598  if (y0 == negate(y0_pos) && y1 == negate(y1_pos)) {... */\n      jump(tag_209)\n    tag_206:\n        /* \"Evm/zk/validators_verifier.sol\":14572:14586  ProofInvalid() */\n      mload(0x40)\n      0x7fcdd1f400000000000000000000000000000000000000000000000000000000\n      dup2\n      mstore\n      0x04\n      add\n      mload(0x40)\n      dup1\n      swap2\n      sub\n      swap1\n      revert\n        /* \"Evm/zk/validators_verifier.sol\":14370:14598  if (y0 == negate(y0_pos) && y1 == negate(y1_pos)) {... */\n    tag_209:\n        /* \"Evm/zk/validators_verifier.sol\":14245:14598  if (y0 == y0_pos && y1 == y1_pos) {... */\n    tag_202:\n        /* \"Evm/zk/validators_verifier.sol\":13023:14605  {... */\n      pop\n      pop\n      pop\n        /* \"Evm/zk/validators_verifier.sol\":12902:14605  function compress_g2(uint256 x0, uint256 x1, uint256 y0, uint256 y1)... */\n    tag_150:\n      swap5\n      pop\n      swap5\n      swap3\n      pop\n      pop\n      pop\n      jump\t// out\n        /* \"Evm/zk/validators_verifier.sol\":11223:12120  function decompress_g1(uint256 c) internal view returns (uint256 x, uint256 y) {... */\n    tag_63:\n        /* \"Evm/zk/validators_verifier.sol\":11280:11289  uint256 x */\n      0x00\n        /* \"Evm/zk/validators_verifier.sol\":11291:11300  uint256 y */\n      0x00\n        /* \"Evm/zk/validators_verifier.sol\":11470:11471  0 */\n      0x00\n        /* \"Evm/zk/validators_verifier.sol\":11465:11466  c */\n      dup4\n        /* \"Evm/zk/validators_verifier.sol\":11465:11471  c == 0 */\n      sub\n        /* \"Evm/zk/validators_verifier.sol\":11461:11580  if (c == 0) {... */\n      tag_211\n      jumpi\n        /* \"Evm/zk/validators_verifier.sol\":11563:11564  0 */\n      0x00\n        /* \"Evm/zk/validators_verifier.sol\":11566:11567  0 */\n      0x00\n        /* \"Evm/zk/validators_verifier.sol\":11555:11568  return (0, 0) */\n      swap2\n      pop\n      swap2\n      pop\n      jump(tag_210)\n        /* \"Evm/zk/validators_verifier.sol\":11461:11580  if (c == 0) {... */\n    tag_211:\n        /* \"Evm/zk/validators_verifier.sol\":11590:11607  bool negate_point */\n      0x00\n        /* \"Evm/zk/validators_verifier.sol\":11619:11620  1 */\n      0x01\n        /* \"Evm/zk/validators_verifier.sol\":11614:11615  1 */\n      dup1\n        /* \"Evm/zk/validators_verifier.sol\":11610:11611  c */\n      dup6\n        /* \"Evm/zk/validators_verifier.sol\":11610:11615  c & 1 */\n      and\n        /* \"Evm/zk/validators_verifier.sol\":11610:11620  c & 1 == 1 */\n      eq\n        /* \"Evm/zk/validators_verifier.sol\":11590:11620  bool negate_point = c & 1 == 1 */\n      swap1\n      pop\n        /* \"Evm/zk/validators_verifier.sol\":11640:11641  1 */\n      0x01\n        /* \"Evm/zk/validators_verifier.sol\":11635:11636  c */\n      dup5\n        /* \"Evm/zk/validators_verifier.sol\":11635:11641  c >> 1 */\n      swap1\n      shr\n        /* \"Evm/zk/validators_verifier.sol\":11631:11641  x = c >> 1 */\n      swap3\n      pop\n        /* \"Evm/zk/validators_verifier.sol\":1423:1489  0x30644e72e131a029b85045b68181585d97816a916871ca8d3c208c16d87cfd47 */\n      0x30644e72e131a029b85045b68181585d97816a916871ca8d3c208c16d87cfd47\n        /* \"Evm/zk/validators_verifier.sol\":11656:11657  x */\n      dup4\n        /* \"Evm/zk/validators_verifier.sol\":11656:11662  x >= P */\n      lt\n        /* \"Evm/zk/validators_verifier.sol\":11652:11758  if (x >= P) {... */\n      tag_212\n      jumpi\n        /* \"Evm/zk/validators_verifier.sol\":11732:11746  ProofInvalid() */\n      mload(0x40)\n      0x7fcdd1f400000000000000000000000000000000000000000000000000000000\n      dup2\n      mstore\n      0x04\n      add\n      mload(0x40)\n      dup1\n      swap2\n      sub\n      swap1\n      revert\n        /* \"Evm/zk/validators_verifier.sol\":11652:11758  if (x >= P) {... */\n    tag_212:\n        /* \"Evm/zk/validators_verifier.sol\":11992:12044  sqrt_Fp(addmod(mulmod(mulmod(x, x, P), x, P), 3, P)) */\n      tag_213\n        /* \"Evm/zk/validators_verifier.sol\":1423:1489  0x30644e72e131a029b85045b68181585d97816a916871ca8d3c208c16d87cfd47 */\n      0x30644e72e131a029b85045b68181585d97816a916871ca8d3c208c16d87cfd47\n        /* \"Evm/zk/validators_verifier.sol\":12000:12043  addmod(mulmod(mulmod(x, x, P), x, P), 3, P) */\n      dup1\n      tag_214\n      jumpi\n      tag_215\n      tag_138\n      jump\t// in\n    tag_215:\n    tag_214:\n        /* \"Evm/zk/validators_verifier.sol\":12038:12039  3 */\n      0x03\n        /* \"Evm/zk/validators_verifier.sol\":1423:1489  0x30644e72e131a029b85045b68181585d97816a916871ca8d3c208c16d87cfd47 */\n      0x30644e72e131a029b85045b68181585d97816a916871ca8d3c208c16d87cfd47\n        /* \"Evm/zk/validators_verifier.sol\":12007:12036  mulmod(mulmod(x, x, P), x, P) */\n      dup1\n      tag_216\n      jumpi\n      tag_217\n      tag_138\n      jump\t// in\n    tag_217:\n    tag_216:\n        /* \"Evm/zk/validators_verifier.sol\":12031:12032  x */\n      dup7\n        /* \"Evm/zk/validators_verifier.sol\":1423:1489  0x30644e72e131a029b85045b68181585d97816a916871ca8d3c208c16d87cfd47 */\n      0x30644e72e131a029b85045b68181585d97816a916871ca8d3c208c16d87cfd47\n        /* \"Evm/zk/validators_verifier.sol\":12014:12029  mulmod(x, x, P) */\n      dup1\n      tag_218\n      jumpi\n      tag_219\n      tag_138\n      jump\t// in\n    tag_219:\n    tag_218:\n        /* \"Evm/zk/validators_verifier.sol\":12024:12025  x */\n      dup9\n        /* \"Evm/zk/validators_verifier.sol\":12021:12022  x */\n      dup10\n        /* \"Evm/zk/validators_verifier.sol\":12014:12029  mulmod(x, x, P) */\n      mulmod\n        /* \"Evm/zk/validators_verifier.sol\":12007:12036  mulmod(mulmod(x, x, P), x, P) */\n      mulmod\n        /* \"Evm/zk/validators_verifier.sol\":12000:12043  addmod(mulmod(mulmod(x, x, P), x, P), 3, P) */\n      addmod\n        /* \"Evm/zk/validators_verifier.sol\":11992:11999  sqrt_Fp */\n      tag_143\n        /* \"Evm/zk/validators_verifier.sol\":11992:12044  sqrt_Fp(addmod(mulmod(mulmod(x, x, P), x, P), 3, P)) */\n      jump\t// in\n    tag_213:\n        /* \"Evm/zk/validators_verifier.sol\":11988:12044  y = sqrt_Fp(addmod(mulmod(mulmod(x, x, P), x, P), 3, P)) */\n      swap2\n      pop\n        /* \"Evm/zk/validators_verifier.sol\":12059:12071  negate_point */\n      dup1\n        /* \"Evm/zk/validators_verifier.sol\":12055:12113  if (negate_point) {... */\n      iszero\n      tag_220\n      jumpi\n        /* \"Evm/zk/validators_verifier.sol\":12092:12101  negate(y) */\n      tag_221\n        /* \"Evm/zk/validators_verifier.sol\":12099:12100  y */\n      dup3\n        /* \"Evm/zk/validators_verifier.sol\":12092:12098  negate */\n      tag_147\n        /* \"Evm/zk/validators_verifier.sol\":12092:12101  negate(y) */\n      jump\t// in\n    tag_221:\n        /* \"Evm/zk/validators_verifier.sol\":12088:12101  y = negate(y) */\n      swap2\n      pop\n        /* \"Evm/zk/validators_verifier.sol\":12055:12113  if (negate_point) {... */\n    tag_220:\n        /* \"Evm/zk/validators_verifier.sol\":11302:12120  {... */\n      pop\n        /* \"Evm/zk/validators_verifier.sol\":11223:12120  function decompress_g1(uint256 c) internal view returns (uint256 x, uint256 y) {... */\n    tag_210:\n      swap2\n      pop\n      swap2\n      jump\t// out\n        /* \"Evm/zk/validators_verifier.sol\":15356:16767  function decompress_g2(uint256 c0, uint256 c1)... */\n    tag_69:\n        /* \"Evm/zk/validators_verifier.sol\":15431:15441  uint256 x0 */\n      0x00\n        /* \"Evm/zk/validators_verifier.sol\":15443:15453  uint256 x1 */\n      0x00\n        /* \"Evm/zk/validators_verifier.sol\":15455:15465  uint256 y0 */\n      0x00\n        /* \"Evm/zk/validators_verifier.sol\":15467:15477  uint256 y1 */\n      0x00\n        /* \"Evm/zk/validators_verifier.sol\":15657:15658  0 */\n      0x00\n        /* \"Evm/zk/validators_verifier.sol\":15651:15653  c0 */\n      dup7\n        /* \"Evm/zk/validators_verifier.sol\":15651:15658  c0 == 0 */\n      eq\n        /* \"Evm/zk/validators_verifier.sol\":15651:15669  c0 == 0 && c1 == 0 */\n      dup1\n      iszero\n      tag_223\n      jumpi\n      pop\n        /* \"Evm/zk/validators_verifier.sol\":15668:15669  0 */\n      0x00\n        /* \"Evm/zk/validators_verifier.sol\":15662:15664  c1 */\n      dup6\n        /* \"Evm/zk/validators_verifier.sol\":15662:15669  c1 == 0 */\n      eq\n        /* \"Evm/zk/validators_verifier.sol\":15651:15669  c0 == 0 && c1 == 0 */\n    tag_223:\n        /* \"Evm/zk/validators_verifier.sol\":15647:15773  if (c0 == 0 && c1 == 0) {... */\n      iszero\n      tag_224\n      jumpi\n        /* \"Evm/zk/validators_verifier.sol\":15750:15751  0 */\n      0x00\n        /* \"Evm/zk/validators_verifier.sol\":15753:15754  0 */\n      0x00\n        /* \"Evm/zk/validators_verifier.sol\":15756:15757  0 */\n      0x00\n        /* \"Evm/zk/validators_verifier.sol\":15759:15760  0 */\n      0x00\n        /* \"Evm/zk/validators_verifier.sol\":15742:15761  return (0, 0, 0, 0) */\n      swap4\n      pop\n      swap4\n      pop\n      swap4\n      pop\n      swap4\n      pop\n      jump(tag_222)\n        /* \"Evm/zk/validators_verifier.sol\":15647:15773  if (c0 == 0 && c1 == 0) {... */\n    tag_224:\n        /* \"Evm/zk/validators_verifier.sol\":15783:15800  bool negate_point */\n      0x00\n        /* \"Evm/zk/validators_verifier.sol\":15813:15814  1 */\n      0x01\n        /* \"Evm/zk/validators_verifier.sol\":15808:15809  1 */\n      dup1\n        /* \"Evm/zk/validators_verifier.sol\":15803:15805  c0 */\n      dup9\n        /* \"Evm/zk/validators_verifier.sol\":15803:15809  c0 & 1 */\n      and\n        /* \"Evm/zk/validators_verifier.sol\":15803:15814  c0 & 1 == 1 */\n      eq\n        /* \"Evm/zk/validators_verifier.sol\":15783:15814  bool negate_point = c0 & 1 == 1 */\n      swap1\n      pop\n        /* \"Evm/zk/validators_verifier.sol\":15825:15834  bool hint */\n      0x00\n        /* \"Evm/zk/validators_verifier.sol\":15847:15848  2 */\n      0x02\n        /* \"Evm/zk/validators_verifier.sol\":15842:15843  2 */\n      dup1\n        /* \"Evm/zk/validators_verifier.sol\":15837:15839  c0 */\n      dup10\n        /* \"Evm/zk/validators_verifier.sol\":15837:15843  c0 & 2 */\n      and\n        /* \"Evm/zk/validators_verifier.sol\":15837:15848  c0 & 2 == 2 */\n      eq\n        /* \"Evm/zk/validators_verifier.sol\":15825:15848  bool hint = c0 & 2 == 2 */\n      swap1\n      pop\n        /* \"Evm/zk/validators_verifier.sol\":15870:15871  2 */\n      0x02\n        /* \"Evm/zk/validators_verifier.sol\":15864:15866  c0 */\n      dup9\n        /* \"Evm/zk/validators_verifier.sol\":15864:15871  c0 >> 2 */\n      swap1\n      shr\n        /* \"Evm/zk/validators_verifier.sol\":15859:15871  x0 = c0 >> 2 */\n      swap6\n      pop\n        /* \"Evm/zk/validators_verifier.sol\":15887:15889  c1 */\n      dup7\n        /* \"Evm/zk/validators_verifier.sol\":15882:15889  x1 = c1 */\n      swap5\n      pop\n        /* \"Evm/zk/validators_verifier.sol\":1423:1489  0x30644e72e131a029b85045b68181585d97816a916871ca8d3c208c16d87cfd47 */\n      0x30644e72e131a029b85045b68181585d97816a916871ca8d3c208c16d87cfd47\n        /* \"Evm/zk/validators_verifier.sol\":15904:15906  x0 */\n      dup7\n        /* \"Evm/zk/validators_verifier.sol\":15904:15911  x0 >= P */\n      lt\n      iszero\n        /* \"Evm/zk/validators_verifier.sol\":15904:15922  x0 >= P || x1 >= P */\n      dup1\n      tag_225\n      jumpi\n      pop\n        /* \"Evm/zk/validators_verifier.sol\":1423:1489  0x30644e72e131a029b85045b68181585d97816a916871ca8d3c208c16d87cfd47 */\n      0x30644e72e131a029b85045b68181585d97816a916871ca8d3c208c16d87cfd47\n        /* \"Evm/zk/validators_verifier.sol\":15915:15917  x1 */\n      dup6\n        /* \"Evm/zk/validators_verifier.sol\":15915:15922  x1 >= P */\n      lt\n      iszero\n        /* \"Evm/zk/validators_verifier.sol\":15904:15922  x0 >= P || x1 >= P */\n    tag_225:\n        /* \"Evm/zk/validators_verifier.sol\":15900:16026  if (x0 >= P || x1 >= P) {... */\n      iszero\n      tag_226\n      jumpi\n        /* \"Evm/zk/validators_verifier.sol\":16000:16014  ProofInvalid() */\n      mload(0x40)\n      0x7fcdd1f400000000000000000000000000000000000000000000000000000000\n      dup2\n      mstore\n      0x04\n      add\n      mload(0x40)\n      dup1\n      swap2\n      sub\n      swap1\n      revert\n        /* \"Evm/zk/validators_verifier.sol\":15900:16026  if (x0 >= P || x1 >= P) {... */\n    tag_226:\n        /* \"Evm/zk/validators_verifier.sol\":16038:16050  uint256 n3ab */\n      0x00\n        /* \"Evm/zk/validators_verifier.sol\":1423:1489  0x30644e72e131a029b85045b68181585d97816a916871ca8d3c208c16d87cfd47 */\n      0x30644e72e131a029b85045b68181585d97816a916871ca8d3c208c16d87cfd47\n        /* \"Evm/zk/validators_verifier.sol\":16053:16086  mulmod(mulmod(x0, x1, P), P-3, P) */\n      dup1\n      tag_227\n      jumpi\n      tag_228\n      tag_138\n      jump\t// in\n    tag_228:\n    tag_227:\n        /* \"Evm/zk/validators_verifier.sol\":16081:16082  3 */\n      0x03\n        /* \"Evm/zk/validators_verifier.sol\":1423:1489  0x30644e72e131a029b85045b68181585d97816a916871ca8d3c208c16d87cfd47 */\n      0x30644e72e131a029b85045b68181585d97816a916871ca8d3c208c16d87cfd47\n        /* \"Evm/zk/validators_verifier.sol\":16079:16082  P-3 */\n      tag_229\n      swap2\n      swap1\n      tag_159\n      jump\t// in\n    tag_229:\n        /* \"Evm/zk/validators_verifier.sol\":1423:1489  0x30644e72e131a029b85045b68181585d97816a916871ca8d3c208c16d87cfd47 */\n      0x30644e72e131a029b85045b68181585d97816a916871ca8d3c208c16d87cfd47\n        /* \"Evm/zk/validators_verifier.sol\":16060:16077  mulmod(x0, x1, P) */\n      dup1\n      tag_230\n      jumpi\n      tag_231\n      tag_138\n      jump\t// in\n    tag_231:\n    tag_230:\n        /* \"Evm/zk/validators_verifier.sol\":16071:16073  x1 */\n      dup9\n        /* \"Evm/zk/validators_verifier.sol\":16067:16069  x0 */\n      dup11\n        /* \"Evm/zk/validators_verifier.sol\":16060:16077  mulmod(x0, x1, P) */\n      mulmod\n        /* \"Evm/zk/validators_verifier.sol\":16053:16086  mulmod(mulmod(x0, x1, P), P-3, P) */\n      mulmod\n        /* \"Evm/zk/validators_verifier.sol\":16038:16086  uint256 n3ab = mulmod(mulmod(x0, x1, P), P-3, P) */\n      swap1\n      pop\n        /* \"Evm/zk/validators_verifier.sol\":16097:16108  uint256 a_3 */\n      0x00\n        /* \"Evm/zk/validators_verifier.sol\":1423:1489  0x30644e72e131a029b85045b68181585d97816a916871ca8d3c208c16d87cfd47 */\n      0x30644e72e131a029b85045b68181585d97816a916871ca8d3c208c16d87cfd47\n        /* \"Evm/zk/validators_verifier.sol\":16111:16143  mulmod(mulmod(x0, x0, P), x0, P) */\n      dup1\n      tag_232\n      jumpi\n      tag_233\n      tag_138\n      jump\t// in\n    tag_233:\n    tag_232:\n        /* \"Evm/zk/validators_verifier.sol\":16137:16139  x0 */\n      dup9\n        /* \"Evm/zk/validators_verifier.sol\":1423:1489  0x30644e72e131a029b85045b68181585d97816a916871ca8d3c208c16d87cfd47 */\n      0x30644e72e131a029b85045b68181585d97816a916871ca8d3c208c16d87cfd47\n        /* \"Evm/zk/validators_verifier.sol\":16118:16135  mulmod(x0, x0, P) */\n      dup1\n      tag_234\n      jumpi\n      tag_235\n      tag_138\n      jump\t// in\n    tag_235:\n    tag_234:\n        /* \"Evm/zk/validators_verifier.sol\":16129:16131  x0 */\n      dup11\n        /* \"Evm/zk/validators_verifier.sol\":16125:16127  x0 */\n      dup12\n        /* \"Evm/zk/validators_verifier.sol\":16118:16135  mulmod(x0, x0, P) */\n      mulmod\n        /* \"Evm/zk/validators_verifier.sol\":16111:16143  mulmod(mulmod(x0, x0, P), x0, P) */\n      mulmod\n        /* \"Evm/zk/validators_verifier.sol\":16097:16143  uint256 a_3 = mulmod(mulmod(x0, x0, P), x0, P) */\n      swap1\n      pop\n        /* \"Evm/zk/validators_verifier.sol\":16154:16165  uint256 b_3 */\n      0x00\n        /* \"Evm/zk/validators_verifier.sol\":1423:1489  0x30644e72e131a029b85045b68181585d97816a916871ca8d3c208c16d87cfd47 */\n      0x30644e72e131a029b85045b68181585d97816a916871ca8d3c208c16d87cfd47\n        /* \"Evm/zk/validators_verifier.sol\":16168:16200  mulmod(mulmod(x1, x1, P), x1, P) */\n      dup1\n      tag_236\n      jumpi\n      tag_237\n      tag_138\n      jump\t// in\n    tag_237:\n    tag_236:\n        /* \"Evm/zk/validators_verifier.sol\":16194:16196  x1 */\n      dup9\n        /* \"Evm/zk/validators_verifier.sol\":1423:1489  0x30644e72e131a029b85045b68181585d97816a916871ca8d3c208c16d87cfd47 */\n      0x30644e72e131a029b85045b68181585d97816a916871ca8d3c208c16d87cfd47\n        /* \"Evm/zk/validators_verifier.sol\":16175:16192  mulmod(x1, x1, P) */\n      dup1\n      tag_238\n      jumpi\n      tag_239\n      tag_138\n      jump\t// in\n    tag_239:\n    tag_238:\n        /* \"Evm/zk/validators_verifier.sol\":16186:16188  x1 */\n      dup11\n        /* \"Evm/zk/validators_verifier.sol\":16182:16184  x1 */\n      dup12\n        /* \"Evm/zk/validators_verifier.sol\":16175:16192  mulmod(x1, x1, P) */\n      mulmod\n        /* \"Evm/zk/validators_verifier.sol\":16168:16200  mulmod(mulmod(x1, x1, P), x1, P) */\n      mulmod\n        /* \"Evm/zk/validators_verifier.sol\":16154:16200  uint256 b_3 = mulmod(mulmod(x1, x1, P), x1, P) */\n      swap1\n      pop\n        /* \"Evm/zk/validators_verifier.sol\":1423:1489  0x30644e72e131a029b85045b68181585d97816a916871ca8d3c208c16d87cfd47 */\n      0x30644e72e131a029b85045b68181585d97816a916871ca8d3c208c16d87cfd47\n        /* \"Evm/zk/validators_verifier.sol\":16218:16283  addmod(FRACTION_27_82_FP, addmod(a_3, mulmod(n3ab, x1, P), P), P) */\n      dup1\n      tag_240\n      jumpi\n      tag_241\n      tag_138\n      jump\t// in\n    tag_241:\n    tag_240:\n        /* \"Evm/zk/validators_verifier.sol\":1423:1489  0x30644e72e131a029b85045b68181585d97816a916871ca8d3c208c16d87cfd47 */\n      0x30644e72e131a029b85045b68181585d97816a916871ca8d3c208c16d87cfd47\n        /* \"Evm/zk/validators_verifier.sol\":16244:16279  addmod(a_3, mulmod(n3ab, x1, P), P) */\n      dup1\n      tag_242\n      jumpi\n      tag_243\n      tag_138\n      jump\t// in\n    tag_243:\n    tag_242:\n        /* \"Evm/zk/validators_verifier.sol\":1423:1489  0x30644e72e131a029b85045b68181585d97816a916871ca8d3c208c16d87cfd47 */\n      0x30644e72e131a029b85045b68181585d97816a916871ca8d3c208c16d87cfd47\n        /* \"Evm/zk/validators_verifier.sol\":16256:16275  mulmod(n3ab, x1, P) */\n      dup1\n      tag_244\n      jumpi\n      tag_245\n      tag_138\n      jump\t// in\n    tag_245:\n    tag_244:\n        /* \"Evm/zk/validators_verifier.sol\":16269:16271  x1 */\n      dup11\n        /* \"Evm/zk/validators_verifier.sol\":16263:16267  n3ab */\n      dup7\n        /* \"Evm/zk/validators_verifier.sol\":16256:16275  mulmod(n3ab, x1, P) */\n      mulmod\n        /* \"Evm/zk/validators_verifier.sol\":16251:16254  a_3 */\n      dup5\n        /* \"Evm/zk/validators_verifier.sol\":16244:16279  addmod(a_3, mulmod(n3ab, x1, P), P) */\n      addmod\n        /* \"Evm/zk/validators_verifier.sol\":2254:2320  0x2b149d40ceb8aaae81be18991be06ac3b5b4c5e559dbefa33267e6dc24a138e5 */\n      0x2b149d40ceb8aaae81be18991be06ac3b5b4c5e559dbefa33267e6dc24a138e5\n        /* \"Evm/zk/validators_verifier.sol\":16218:16283  addmod(FRACTION_27_82_FP, addmod(a_3, mulmod(n3ab, x1, P), P), P) */\n      addmod\n        /* \"Evm/zk/validators_verifier.sol\":16213:16283  y0 = addmod(FRACTION_27_82_FP, addmod(a_3, mulmod(n3ab, x1, P), P), P) */\n      swap7\n      pop\n        /* \"Evm/zk/validators_verifier.sol\":16299:16372  negate(addmod(FRACTION_3_82_FP,  addmod(b_3, mulmod(n3ab, x0, P), P), P)) */\n      tag_246\n        /* \"Evm/zk/validators_verifier.sol\":1423:1489  0x30644e72e131a029b85045b68181585d97816a916871ca8d3c208c16d87cfd47 */\n      0x30644e72e131a029b85045b68181585d97816a916871ca8d3c208c16d87cfd47\n        /* \"Evm/zk/validators_verifier.sol\":16306:16371  addmod(FRACTION_3_82_FP,  addmod(b_3, mulmod(n3ab, x0, P), P), P) */\n      dup1\n      tag_247\n      jumpi\n      tag_248\n      tag_138\n      jump\t// in\n    tag_248:\n    tag_247:\n        /* \"Evm/zk/validators_verifier.sol\":1423:1489  0x30644e72e131a029b85045b68181585d97816a916871ca8d3c208c16d87cfd47 */\n      0x30644e72e131a029b85045b68181585d97816a916871ca8d3c208c16d87cfd47\n        /* \"Evm/zk/validators_verifier.sol\":16332:16367  addmod(b_3, mulmod(n3ab, x0, P), P) */\n      dup1\n      tag_249\n      jumpi\n      tag_250\n      tag_138\n      jump\t// in\n    tag_250:\n    tag_249:\n        /* \"Evm/zk/validators_verifier.sol\":1423:1489  0x30644e72e131a029b85045b68181585d97816a916871ca8d3c208c16d87cfd47 */\n      0x30644e72e131a029b85045b68181585d97816a916871ca8d3c208c16d87cfd47\n        /* \"Evm/zk/validators_verifier.sol\":16344:16363  mulmod(n3ab, x0, P) */\n      dup1\n      tag_251\n      jumpi\n      tag_252\n      tag_138\n      jump\t// in\n    tag_252:\n    tag_251:\n        /* \"Evm/zk/validators_verifier.sol\":16357:16359  x0 */\n      dup13\n        /* \"Evm/zk/validators_verifier.sol\":16351:16355  n3ab */\n      dup8\n        /* \"Evm/zk/validators_verifier.sol\":16344:16363  mulmod(n3ab, x0, P) */\n      mulmod\n        /* \"Evm/zk/validators_verifier.sol\":16339:16342  b_3 */\n      dup5\n        /* \"Evm/zk/validators_verifier.sol\":16332:16367  addmod(b_3, mulmod(n3ab, x0, P), P) */\n      addmod\n        /* \"Evm/zk/validators_verifier.sol\":2363:2429  0x2fcd3ac2a640a154eb23960892a85a68f031ca0c8344b23a577dcf1052b9e775 */\n      0x2fcd3ac2a640a154eb23960892a85a68f031ca0c8344b23a577dcf1052b9e775\n        /* \"Evm/zk/validators_verifier.sol\":16306:16371  addmod(FRACTION_3_82_FP,  addmod(b_3, mulmod(n3ab, x0, P), P), P) */\n      addmod\n        /* \"Evm/zk/validators_verifier.sol\":16299:16305  negate */\n      tag_147\n        /* \"Evm/zk/validators_verifier.sol\":16299:16372  negate(addmod(FRACTION_3_82_FP,  addmod(b_3, mulmod(n3ab, x0, P), P), P)) */\n      jump\t// in\n    tag_246:\n        /* \"Evm/zk/validators_verifier.sol\":16294:16372  y1 = negate(addmod(FRACTION_3_82_FP,  addmod(b_3, mulmod(n3ab, x0, P), P), P)) */\n      swap6\n      pop\n        /* \"Evm/zk/validators_verifier.sol\":16637:16659  sqrt_Fp2(y0, y1, hint) */\n      tag_253\n        /* \"Evm/zk/validators_verifier.sol\":16646:16648  y0 */\n      dup8\n        /* \"Evm/zk/validators_verifier.sol\":16650:16652  y1 */\n      dup8\n        /* \"Evm/zk/validators_verifier.sol\":16654:16658  hint */\n      dup7\n        /* \"Evm/zk/validators_verifier.sol\":16637:16645  sqrt_Fp2 */\n      tag_197\n        /* \"Evm/zk/validators_verifier.sol\":16637:16659  sqrt_Fp2(y0, y1, hint) */\n      jump\t// in\n    tag_253:\n        /* \"Evm/zk/validators_verifier.sol\":16626:16659  (y0, y1) = sqrt_Fp2(y0, y1, hint) */\n      dup1\n      swap8\n      pop\n      dup2\n      swap9\n      pop\n      pop\n      pop\n        /* \"Evm/zk/validators_verifier.sol\":16674:16686  negate_point */\n      dup5\n        /* \"Evm/zk/validators_verifier.sol\":16670:16760  if (negate_point) {... */\n      iszero\n      tag_254\n      jumpi\n        /* \"Evm/zk/validators_verifier.sol\":16708:16718  negate(y0) */\n      tag_255\n        /* \"Evm/zk/validators_verifier.sol\":16715:16717  y0 */\n      dup8\n        /* \"Evm/zk/validators_verifier.sol\":16708:16714  negate */\n      tag_147\n        /* \"Evm/zk/validators_verifier.sol\":16708:16718  negate(y0) */\n      jump\t// in\n    tag_255:\n        /* \"Evm/zk/validators_verifier.sol\":16703:16718  y0 = negate(y0) */\n      swap7\n      pop\n        /* \"Evm/zk/validators_verifier.sol\":16738:16748  negate(y1) */\n      tag_256\n        /* \"Evm/zk/validators_verifier.sol\":16745:16747  y1 */\n      dup7\n        /* \"Evm/zk/validators_verifier.sol\":16738:16744  negate */\n      tag_147\n        /* \"Evm/zk/validators_verifier.sol\":16738:16748  negate(y1) */\n      jump\t// in\n    tag_256:\n        /* \"Evm/zk/validators_verifier.sol\":16733:16748  y1 = negate(y1) */\n      swap6\n      pop\n        /* \"Evm/zk/validators_verifier.sol\":16670:16760  if (negate_point) {... */\n    tag_254:\n        /* \"Evm/zk/validators_verifier.sol\":15479:16767  {... */\n      pop\n      pop\n      pop\n      pop\n      pop\n        /* \"Evm/zk/validators_verifier.sol\":15356:16767  function decompress_g2(uint256 c0, uint256 c1)... */\n    tag_222:\n      swap3\n      swap6\n      swap2\n      swap5\n      pop\n      swap3\n      pop\n      jump\t// out\n        /* \"Evm/zk/validators_verifier.sol\":7567:7874  function sqrt_Fp(uint256 a) internal view returns (uint256 x) {... */\n    tag_143:\n        /* \"Evm/zk/validators_verifier.sol\":7618:7627  uint256 x */\n      0x00\n        /* \"Evm/zk/validators_verifier.sol\":7644:7663  exp(a, EXP_SQRT_FP) */\n      tag_258\n        /* \"Evm/zk/validators_verifier.sol\":7648:7649  a */\n      dup3\n        /* \"Evm/zk/validators_verifier.sol\":2641:2706  0xC19139CB84C680A6E14116DA060561765E05AA45A1C72A34F082305B61F3F52 */\n      0x0c19139cb84c680a6e14116da060561765e05aa45a1c72a34f082305b61f3f52\n        /* \"Evm/zk/validators_verifier.sol\":7644:7647  exp */\n      tag_259\n        /* \"Evm/zk/validators_verifier.sol\":7644:7663  exp(a, EXP_SQRT_FP) */\n      jump\t// in\n    tag_258:\n        /* \"Evm/zk/validators_verifier.sol\":7640:7663  x = exp(a, EXP_SQRT_FP) */\n      swap1\n      pop\n        /* \"Evm/zk/validators_verifier.sol\":7697:7698  a */\n      dup2\n        /* \"Evm/zk/validators_verifier.sol\":1423:1489  0x30644e72e131a029b85045b68181585d97816a916871ca8d3c208c16d87cfd47 */\n      0x30644e72e131a029b85045b68181585d97816a916871ca8d3c208c16d87cfd47\n        /* \"Evm/zk/validators_verifier.sol\":7678:7693  mulmod(x, x, P) */\n      dup1\n      tag_260\n      jumpi\n      tag_261\n      tag_138\n      jump\t// in\n    tag_261:\n    tag_260:\n        /* \"Evm/zk/validators_verifier.sol\":7688:7689  x */\n      dup3\n        /* \"Evm/zk/validators_verifier.sol\":7685:7686  x */\n      dup4\n        /* \"Evm/zk/validators_verifier.sol\":7678:7693  mulmod(x, x, P) */\n      mulmod\n        /* \"Evm/zk/validators_verifier.sol\":7678:7698  mulmod(x, x, P) != a */\n      eq\n        /* \"Evm/zk/validators_verifier.sol\":7674:7867  if (mulmod(x, x, P) != a) {... */\n      tag_262\n      jumpi\n        /* \"Evm/zk/validators_verifier.sol\":7841:7855  ProofInvalid() */\n      mload(0x40)\n      0x7fcdd1f400000000000000000000000000000000000000000000000000000000\n      dup2\n      mstore\n      0x04\n      add\n      mload(0x40)\n      dup1\n      swap2\n      sub\n      swap1\n      revert\n        /* \"Evm/zk/validators_verifier.sol\":7674:7867  if (mulmod(x, x, P) != a) {... */\n    tag_262:\n        /* \"Evm/zk/validators_verifier.sol\":7567:7874  function sqrt_Fp(uint256 a) internal view returns (uint256 x) {... */\n      swap2\n      swap1\n      pop\n      jump\t// out\n        /* \"Evm/zk/validators_verifier.sol\":5647:5820  function negate(uint256 a) internal pure returns (uint256 x) {... */\n    tag_147:\n        /* \"Evm/zk/validators_verifier.sol\":5697:5706  uint256 x */\n      0x00\n        /* \"Evm/zk/validators_verifier.sol\":1423:1489  0x30644e72e131a029b85045b68181585d97816a916871ca8d3c208c16d87cfd47 */\n      0x30644e72e131a029b85045b68181585d97816a916871ca8d3c208c16d87cfd47\n      dup1\n        /* \"Evm/zk/validators_verifier.sol\":5754:5755  a */\n      dup4\n        /* \"Evm/zk/validators_verifier.sol\":5754:5759  a % P */\n      dup2\n      tag_264\n      jumpi\n      tag_265\n      tag_138\n      jump\t// in\n    tag_265:\n    tag_264:\n      mod\n        /* \"Evm/zk/validators_verifier.sol\":1423:1489  0x30644e72e131a029b85045b68181585d97816a916871ca8d3c208c16d87cfd47 */\n      0x30644e72e131a029b85045b68181585d97816a916871ca8d3c208c16d87cfd47\n        /* \"Evm/zk/validators_verifier.sol\":5749:5760  P - (a % P) */\n      sub\n        /* \"Evm/zk/validators_verifier.sol\":5748:5765  (P - (a % P)) % P */\n      dup2\n      tag_266\n      jumpi\n      tag_267\n      tag_138\n      jump\t// in\n    tag_267:\n    tag_266:\n      mod\n        /* \"Evm/zk/validators_verifier.sol\":5744:5765  x = (P - (a % P)) % P */\n      swap1\n      pop\n        /* \"Evm/zk/validators_verifier.sol\":5647:5820  function negate(uint256 a) internal pure returns (uint256 x) {... */\n      swap2\n      swap1\n      pop\n      jump\t// out\n        /* \"Evm/zk/validators_verifier.sol\":8152:8301  function isSquare_Fp(uint256 a) internal view returns (bool) {... */\n    tag_195:\n        /* \"Evm/zk/validators_verifier.sol\":8207:8211  bool */\n      0x00\n        /* \"Evm/zk/validators_verifier.sol\":8224:8233  uint256 x */\n      0x00\n        /* \"Evm/zk/validators_verifier.sol\":8236:8255  exp(a, EXP_SQRT_FP) */\n      tag_269\n        /* \"Evm/zk/validators_verifier.sol\":8240:8241  a */\n      dup4\n        /* \"Evm/zk/validators_verifier.sol\":2641:2706  0xC19139CB84C680A6E14116DA060561765E05AA45A1C72A34F082305B61F3F52 */\n      0x0c19139cb84c680a6e14116da060561765e05aa45a1c72a34f082305b61f3f52\n        /* \"Evm/zk/validators_verifier.sol\":8236:8239  exp */\n      tag_259\n        /* \"Evm/zk/validators_verifier.sol\":8236:8255  exp(a, EXP_SQRT_FP) */\n      jump\t// in\n    tag_269:\n        /* \"Evm/zk/validators_verifier.sol\":8224:8255  uint256 x = exp(a, EXP_SQRT_FP) */\n      swap1\n      pop\n        /* \"Evm/zk/validators_verifier.sol\":8292:8293  a */\n      dup3\n        /* \"Evm/zk/validators_verifier.sol\":1423:1489  0x30644e72e131a029b85045b68181585d97816a916871ca8d3c208c16d87cfd47 */\n      0x30644e72e131a029b85045b68181585d97816a916871ca8d3c208c16d87cfd47\n        /* \"Evm/zk/validators_verifier.sol\":8273:8288  mulmod(x, x, P) */\n      dup1\n      tag_270\n      jumpi\n      tag_271\n      tag_138\n      jump\t// in\n    tag_271:\n    tag_270:\n        /* \"Evm/zk/validators_verifier.sol\":8283:8284  x */\n      dup3\n        /* \"Evm/zk/validators_verifier.sol\":8280:8281  x */\n      dup4\n        /* \"Evm/zk/validators_verifier.sol\":8273:8288  mulmod(x, x, P) */\n      mulmod\n        /* \"Evm/zk/validators_verifier.sol\":8273:8293  mulmod(x, x, P) == a */\n      eq\n        /* \"Evm/zk/validators_verifier.sol\":8266:8293  return mulmod(x, x, P) == a */\n      swap2\n      pop\n      pop\n        /* \"Evm/zk/validators_verifier.sol\":8152:8301  function isSquare_Fp(uint256 a) internal view returns (bool) {... */\n      swap2\n      swap1\n      pop\n      jump\t// out\n        /* \"Evm/zk/validators_verifier.sol\":8947:9754  function sqrt_Fp2(uint256 a0, uint256 a1, bool hint) internal view returns (uint256 x0, uint256 x1) {... */\n    tag_197:\n        /* \"Evm/zk/validators_verifier.sol\":9023:9033  uint256 x0 */\n      0x00\n        /* \"Evm/zk/validators_verifier.sol\":9035:9045  uint256 x1 */\n      0x00\n        /* \"Evm/zk/validators_verifier.sol\":9127:9136  uint256 d */\n      0x00\n        /* \"Evm/zk/validators_verifier.sol\":9139:9195  sqrt_Fp(addmod(mulmod(a0, a0, P), mulmod(a1, a1, P), P)) */\n      tag_273\n        /* \"Evm/zk/validators_verifier.sol\":1423:1489  0x30644e72e131a029b85045b68181585d97816a916871ca8d3c208c16d87cfd47 */\n      0x30644e72e131a029b85045b68181585d97816a916871ca8d3c208c16d87cfd47\n        /* \"Evm/zk/validators_verifier.sol\":9147:9194  addmod(mulmod(a0, a0, P), mulmod(a1, a1, P), P) */\n      dup1\n      tag_274\n      jumpi\n      tag_275\n      tag_138\n      jump\t// in\n    tag_275:\n    tag_274:\n        /* \"Evm/zk/validators_verifier.sol\":1423:1489  0x30644e72e131a029b85045b68181585d97816a916871ca8d3c208c16d87cfd47 */\n      0x30644e72e131a029b85045b68181585d97816a916871ca8d3c208c16d87cfd47\n        /* \"Evm/zk/validators_verifier.sol\":9173:9190  mulmod(a1, a1, P) */\n      dup1\n      tag_276\n      jumpi\n      tag_277\n      tag_138\n      jump\t// in\n    tag_277:\n    tag_276:\n        /* \"Evm/zk/validators_verifier.sol\":9184:9186  a1 */\n      dup8\n        /* \"Evm/zk/validators_verifier.sol\":9180:9182  a1 */\n      dup9\n        /* \"Evm/zk/validators_verifier.sol\":9173:9190  mulmod(a1, a1, P) */\n      mulmod\n        /* \"Evm/zk/validators_verifier.sol\":1423:1489  0x30644e72e131a029b85045b68181585d97816a916871ca8d3c208c16d87cfd47 */\n      0x30644e72e131a029b85045b68181585d97816a916871ca8d3c208c16d87cfd47\n        /* \"Evm/zk/validators_verifier.sol\":9154:9171  mulmod(a0, a0, P) */\n      dup1\n      tag_278\n      jumpi\n      tag_279\n      tag_138\n      jump\t// in\n    tag_279:\n    tag_278:\n        /* \"Evm/zk/validators_verifier.sol\":9165:9167  a0 */\n      dup10\n        /* \"Evm/zk/validators_verifier.sol\":9161:9163  a0 */\n      dup11\n        /* \"Evm/zk/validators_verifier.sol\":9154:9171  mulmod(a0, a0, P) */\n      mulmod\n        /* \"Evm/zk/validators_verifier.sol\":9147:9194  addmod(mulmod(a0, a0, P), mulmod(a1, a1, P), P) */\n      addmod\n        /* \"Evm/zk/validators_verifier.sol\":9139:9146  sqrt_Fp */\n      tag_143\n        /* \"Evm/zk/validators_verifier.sol\":9139:9195  sqrt_Fp(addmod(mulmod(a0, a0, P), mulmod(a1, a1, P), P)) */\n      jump\t// in\n    tag_273:\n        /* \"Evm/zk/validators_verifier.sol\":9127:9195  uint256 d = sqrt_Fp(addmod(mulmod(a0, a0, P), mulmod(a1, a1, P), P)) */\n      swap1\n      pop\n        /* \"Evm/zk/validators_verifier.sol\":9210:9214  hint */\n      dup4\n        /* \"Evm/zk/validators_verifier.sol\":9206:9256  if (hint) {... */\n      iszero\n      tag_280\n      jumpi\n        /* \"Evm/zk/validators_verifier.sol\":9235:9244  negate(d) */\n      tag_281\n        /* \"Evm/zk/validators_verifier.sol\":9242:9243  d */\n      dup2\n        /* \"Evm/zk/validators_verifier.sol\":9235:9241  negate */\n      tag_147\n        /* \"Evm/zk/validators_verifier.sol\":9235:9244  negate(d) */\n      jump\t// in\n    tag_281:\n        /* \"Evm/zk/validators_verifier.sol\":9231:9244  d = negate(d) */\n      swap1\n      pop\n        /* \"Evm/zk/validators_verifier.sol\":9206:9256  if (hint) {... */\n    tag_280:\n        /* \"Evm/zk/validators_verifier.sol\":9340:9393  sqrt_Fp(mulmod(addmod(a0, d, P), FRACTION_1_2_FP, P)) */\n      tag_282\n        /* \"Evm/zk/validators_verifier.sol\":1423:1489  0x30644e72e131a029b85045b68181585d97816a916871ca8d3c208c16d87cfd47 */\n      0x30644e72e131a029b85045b68181585d97816a916871ca8d3c208c16d87cfd47\n        /* \"Evm/zk/validators_verifier.sol\":9348:9392  mulmod(addmod(a0, d, P), FRACTION_1_2_FP, P) */\n      dup1\n      tag_283\n      jumpi\n      tag_284\n      tag_138\n      jump\t// in\n    tag_284:\n    tag_283:\n        /* \"Evm/zk/validators_verifier.sol\":2144:2210  0x183227397098d014dc2822db40c0ac2ecbc0b548b438e5469e10460b6c3e7ea4 */\n      0x183227397098d014dc2822db40c0ac2ecbc0b548b438e5469e10460b6c3e7ea4\n        /* \"Evm/zk/validators_verifier.sol\":1423:1489  0x30644e72e131a029b85045b68181585d97816a916871ca8d3c208c16d87cfd47 */\n      0x30644e72e131a029b85045b68181585d97816a916871ca8d3c208c16d87cfd47\n        /* \"Evm/zk/validators_verifier.sol\":9355:9371  addmod(a0, d, P) */\n      dup1\n      tag_285\n      jumpi\n      tag_286\n      tag_138\n      jump\t// in\n    tag_286:\n    tag_285:\n        /* \"Evm/zk/validators_verifier.sol\":9366:9367  d */\n      dup5\n        /* \"Evm/zk/validators_verifier.sol\":9362:9364  a0 */\n      dup11\n        /* \"Evm/zk/validators_verifier.sol\":9355:9371  addmod(a0, d, P) */\n      addmod\n        /* \"Evm/zk/validators_verifier.sol\":9348:9392  mulmod(addmod(a0, d, P), FRACTION_1_2_FP, P) */\n      mulmod\n        /* \"Evm/zk/validators_verifier.sol\":9340:9347  sqrt_Fp */\n      tag_143\n        /* \"Evm/zk/validators_verifier.sol\":9340:9393  sqrt_Fp(mulmod(addmod(a0, d, P), FRACTION_1_2_FP, P)) */\n      jump\t// in\n    tag_282:\n        /* \"Evm/zk/validators_verifier.sol\":9335:9393  x0 = sqrt_Fp(mulmod(addmod(a0, d, P), FRACTION_1_2_FP, P)) */\n      swap3\n      pop\n        /* \"Evm/zk/validators_verifier.sol\":1423:1489  0x30644e72e131a029b85045b68181585d97816a916871ca8d3c208c16d87cfd47 */\n      0x30644e72e131a029b85045b68181585d97816a916871ca8d3c208c16d87cfd47\n        /* \"Evm/zk/validators_verifier.sol\":9409:9451  mulmod(a1, invert_Fp(mulmod(x0, 2, P)), P) */\n      dup1\n      tag_287\n      jumpi\n      tag_288\n      tag_138\n      jump\t// in\n    tag_288:\n    tag_287:\n        /* \"Evm/zk/validators_verifier.sol\":9420:9447  invert_Fp(mulmod(x0, 2, P)) */\n      tag_289\n        /* \"Evm/zk/validators_verifier.sol\":1423:1489  0x30644e72e131a029b85045b68181585d97816a916871ca8d3c208c16d87cfd47 */\n      0x30644e72e131a029b85045b68181585d97816a916871ca8d3c208c16d87cfd47\n        /* \"Evm/zk/validators_verifier.sol\":9430:9446  mulmod(x0, 2, P) */\n      dup1\n      tag_290\n      jumpi\n      tag_291\n      tag_138\n      jump\t// in\n    tag_291:\n    tag_290:\n        /* \"Evm/zk/validators_verifier.sol\":9441:9442  2 */\n      0x02\n        /* \"Evm/zk/validators_verifier.sol\":9437:9439  x0 */\n      dup7\n        /* \"Evm/zk/validators_verifier.sol\":9430:9446  mulmod(x0, 2, P) */\n      mulmod\n        /* \"Evm/zk/validators_verifier.sol\":9420:9429  invert_Fp */\n      tag_292\n        /* \"Evm/zk/validators_verifier.sol\":9420:9447  invert_Fp(mulmod(x0, 2, P)) */\n      jump\t// in\n    tag_289:\n        /* \"Evm/zk/validators_verifier.sol\":9416:9418  a1 */\n      dup7\n        /* \"Evm/zk/validators_verifier.sol\":9409:9451  mulmod(a1, invert_Fp(mulmod(x0, 2, P)), P) */\n      mulmod\n        /* \"Evm/zk/validators_verifier.sol\":9404:9451  x1 = mulmod(a1, invert_Fp(mulmod(x0, 2, P)), P) */\n      swap2\n      pop\n        /* \"Evm/zk/validators_verifier.sol\":1423:1489  0x30644e72e131a029b85045b68181585d97816a916871ca8d3c208c16d87cfd47 */\n      0x30644e72e131a029b85045b68181585d97816a916871ca8d3c208c16d87cfd47\n        /* \"Evm/zk/validators_verifier.sol\":9591:9646  addmod(mulmod(x0, x0, P), negate(mulmod(x1, x1, P)), P) */\n      dup1\n      tag_293\n      jumpi\n      tag_294\n      tag_138\n      jump\t// in\n    tag_294:\n    tag_293:\n        /* \"Evm/zk/validators_verifier.sol\":9617:9642  negate(mulmod(x1, x1, P)) */\n      tag_295\n        /* \"Evm/zk/validators_verifier.sol\":1423:1489  0x30644e72e131a029b85045b68181585d97816a916871ca8d3c208c16d87cfd47 */\n      0x30644e72e131a029b85045b68181585d97816a916871ca8d3c208c16d87cfd47\n        /* \"Evm/zk/validators_verifier.sol\":9624:9641  mulmod(x1, x1, P) */\n      dup1\n      tag_296\n      jumpi\n      tag_297\n      tag_138\n      jump\t// in\n    tag_297:\n    tag_296:\n        /* \"Evm/zk/validators_verifier.sol\":9635:9637  x1 */\n      dup5\n        /* \"Evm/zk/validators_verifier.sol\":9631:9633  x1 */\n      dup6\n        /* \"Evm/zk/validators_verifier.sol\":9624:9641  mulmod(x1, x1, P) */\n      mulmod\n        /* \"Evm/zk/validators_verifier.sol\":9617:9623  negate */\n      tag_147\n        /* \"Evm/zk/validators_verifier.sol\":9617:9642  negate(mulmod(x1, x1, P)) */\n      jump\t// in\n    tag_295:\n        /* \"Evm/zk/validators_verifier.sol\":1423:1489  0x30644e72e131a029b85045b68181585d97816a916871ca8d3c208c16d87cfd47 */\n      0x30644e72e131a029b85045b68181585d97816a916871ca8d3c208c16d87cfd47\n        /* \"Evm/zk/validators_verifier.sol\":9598:9615  mulmod(x0, x0, P) */\n      dup1\n      tag_298\n      jumpi\n      tag_299\n      tag_138\n      jump\t// in\n    tag_299:\n    tag_298:\n        /* \"Evm/zk/validators_verifier.sol\":9609:9611  x0 */\n      dup6\n        /* \"Evm/zk/validators_verifier.sol\":9605:9607  x0 */\n      dup7\n        /* \"Evm/zk/validators_verifier.sol\":9598:9615  mulmod(x0, x0, P) */\n      mulmod\n        /* \"Evm/zk/validators_verifier.sol\":9591:9646  addmod(mulmod(x0, x0, P), negate(mulmod(x1, x1, P)), P) */\n      addmod\n        /* \"Evm/zk/validators_verifier.sol\":9585:9587  a0 */\n      dup7\n        /* \"Evm/zk/validators_verifier.sol\":9585:9646  a0 != addmod(mulmod(x0, x0, P), negate(mulmod(x1, x1, P)), P) */\n      eq\n      iszero\n        /* \"Evm/zk/validators_verifier.sol\":9585:9697  a0 != addmod(mulmod(x0, x0, P), negate(mulmod(x1, x1, P)), P)... */\n      dup1\n      tag_300\n      jumpi\n      pop\n        /* \"Evm/zk/validators_verifier.sol\":1423:1489  0x30644e72e131a029b85045b68181585d97816a916871ca8d3c208c16d87cfd47 */\n      0x30644e72e131a029b85045b68181585d97816a916871ca8d3c208c16d87cfd47\n        /* \"Evm/zk/validators_verifier.sol\":9666:9697  mulmod(2, mulmod(x0, x1, P), P) */\n      dup1\n      tag_301\n      jumpi\n      tag_302\n      tag_138\n      jump\t// in\n    tag_302:\n    tag_301:\n        /* \"Evm/zk/validators_verifier.sol\":1423:1489  0x30644e72e131a029b85045b68181585d97816a916871ca8d3c208c16d87cfd47 */\n      0x30644e72e131a029b85045b68181585d97816a916871ca8d3c208c16d87cfd47\n        /* \"Evm/zk/validators_verifier.sol\":9676:9693  mulmod(x0, x1, P) */\n      dup1\n      tag_303\n      jumpi\n      tag_304\n      tag_138\n      jump\t// in\n    tag_304:\n    tag_303:\n        /* \"Evm/zk/validators_verifier.sol\":9687:9689  x1 */\n      dup4\n        /* \"Evm/zk/validators_verifier.sol\":9683:9685  x0 */\n      dup6\n        /* \"Evm/zk/validators_verifier.sol\":9676:9693  mulmod(x0, x1, P) */\n      mulmod\n        /* \"Evm/zk/validators_verifier.sol\":9673:9674  2 */\n      0x02\n        /* \"Evm/zk/validators_verifier.sol\":9666:9697  mulmod(2, mulmod(x0, x1, P), P) */\n      mulmod\n        /* \"Evm/zk/validators_verifier.sol\":9660:9662  a1 */\n      dup6\n        /* \"Evm/zk/validators_verifier.sol\":9660:9697  a1 != mulmod(2, mulmod(x0, x1, P), P) */\n      eq\n      iszero\n        /* \"Evm/zk/validators_verifier.sol\":9585:9697  a0 != addmod(mulmod(x0, x0, P), negate(mulmod(x1, x1, P)), P)... */\n    tag_300:\n        /* \"Evm/zk/validators_verifier.sol\":9581:9747  if (a0 != addmod(mulmod(x0, x0, P), negate(mulmod(x1, x1, P)), P)... */\n      iszero\n      tag_305\n      jumpi\n        /* \"Evm/zk/validators_verifier.sol\":9721:9735  ProofInvalid() */\n      mload(0x40)\n      0x7fcdd1f400000000000000000000000000000000000000000000000000000000\n      dup2\n      mstore\n      0x04\n      add\n      mload(0x40)\n      dup1\n      swap2\n      sub\n      swap1\n      revert\n        /* \"Evm/zk/validators_verifier.sol\":9581:9747  if (a0 != addmod(mulmod(x0, x0, P), negate(mulmod(x1, x1, P)), P)... */\n    tag_305:\n        /* \"Evm/zk/validators_verifier.sol\":9047:9754  {... */\n      pop\n        /* \"Evm/zk/validators_verifier.sol\":8947:9754  function sqrt_Fp2(uint256 a0, uint256 a1, bool hint) internal view returns (uint256 x0, uint256 x1) {... */\n      swap4\n      pop\n      swap4\n      swap2\n      pop\n      pop\n      jump\t// out\n        /* \"Evm/zk/validators_verifier.sol\":6066:6719  function exp(uint256 a, uint256 e) internal view returns (uint256 x) {... */\n    tag_259:\n        /* \"Evm/zk/validators_verifier.sol\":6124:6133  uint256 x */\n      0x00\n        /* \"Evm/zk/validators_verifier.sol\":6146:6158  bool success */\n      0x00\n        /* \"Evm/zk/validators_verifier.sol\":6224:6228  0x40 */\n      0x40\n        /* \"Evm/zk/validators_verifier.sol\":6218:6229  mload(0x40) */\n      mload\n        /* \"Evm/zk/validators_verifier.sol\":6253:6257  0x20 */\n      0x20\n        /* \"Evm/zk/validators_verifier.sol\":6250:6251  f */\n      dup2\n        /* \"Evm/zk/validators_verifier.sol\":6243:6258  mstore(f, 0x20) */\n      mstore\n        /* \"Evm/zk/validators_verifier.sol\":6293:6297  0x20 */\n      0x20\n        /* \"Evm/zk/validators_verifier.sol\":6286:6290  0x20 */\n      dup1\n        /* \"Evm/zk/validators_verifier.sol\":6283:6284  f */\n      dup3\n        /* \"Evm/zk/validators_verifier.sol\":6279:6291  add(f, 0x20) */\n      add\n        /* \"Evm/zk/validators_verifier.sol\":6272:6298  mstore(add(f, 0x20), 0x20) */\n      mstore\n        /* \"Evm/zk/validators_verifier.sol\":6333:6337  0x20 */\n      0x20\n        /* \"Evm/zk/validators_verifier.sol\":6326:6330  0x40 */\n      0x40\n        /* \"Evm/zk/validators_verifier.sol\":6323:6324  f */\n      dup3\n        /* \"Evm/zk/validators_verifier.sol\":6319:6331  add(f, 0x40) */\n      add\n        /* \"Evm/zk/validators_verifier.sol\":6312:6338  mstore(add(f, 0x40), 0x20) */\n      mstore\n        /* \"Evm/zk/validators_verifier.sol\":6373:6374  a */\n      dup5\n        /* \"Evm/zk/validators_verifier.sol\":6366:6370  0x60 */\n      0x60\n        /* \"Evm/zk/validators_verifier.sol\":6363:6364  f */\n      dup3\n        /* \"Evm/zk/validators_verifier.sol\":6359:6371  add(f, 0x60) */\n      add\n        /* \"Evm/zk/validators_verifier.sol\":6352:6375  mstore(add(f, 0x60), a) */\n      mstore\n        /* \"Evm/zk/validators_verifier.sol\":6410:6411  e */\n      dup4\n        /* \"Evm/zk/validators_verifier.sol\":6403:6407  0x80 */\n      0x80\n        /* \"Evm/zk/validators_verifier.sol\":6400:6401  f */\n      dup3\n        /* \"Evm/zk/validators_verifier.sol\":6396:6408  add(f, 0x80) */\n      add\n        /* \"Evm/zk/validators_verifier.sol\":6389:6412  mstore(add(f, 0x80), e) */\n      mstore\n        /* \"Evm/zk/validators_verifier.sol\":6447:6448  P */\n      0x30644e72e131a029b85045b68181585d97816a916871ca8d3c208c16d87cfd47\n        /* \"Evm/zk/validators_verifier.sol\":6440:6444  0xa0 */\n      0xa0\n        /* \"Evm/zk/validators_verifier.sol\":6437:6438  f */\n      dup3\n        /* \"Evm/zk/validators_verifier.sol\":6433:6445  add(f, 0xa0) */\n      add\n        /* \"Evm/zk/validators_verifier.sol\":6426:6449  mstore(add(f, 0xa0), P) */\n      mstore\n        /* \"Evm/zk/validators_verifier.sol\":6523:6527  0x20 */\n      0x20\n        /* \"Evm/zk/validators_verifier.sol\":6520:6521  f */\n      dup2\n        /* \"Evm/zk/validators_verifier.sol\":6514:6518  0xc0 */\n      0xc0\n        /* \"Evm/zk/validators_verifier.sol\":6511:6512  f */\n      dup4\n        /* \"Evm/zk/validators_verifier.sol\":6492:6509  PRECOMPILE_MODEXP */\n      0x05\n        /* \"Evm/zk/validators_verifier.sol\":6485:6490  gas() */\n      gas\n        /* \"Evm/zk/validators_verifier.sol\":6474:6528  staticcall(gas(), PRECOMPILE_MODEXP, f, 0xc0, f, 0x20) */\n      staticcall\n        /* \"Evm/zk/validators_verifier.sol\":6463:6528  success := staticcall(gas(), PRECOMPILE_MODEXP, f, 0xc0, f, 0x20) */\n      swap2\n      pop\n        /* \"Evm/zk/validators_verifier.sol\":6553:6554  f */\n      dup1\n        /* \"Evm/zk/validators_verifier.sol\":6547:6555  mload(f) */\n      mload\n        /* \"Evm/zk/validators_verifier.sol\":6542:6555  x := mload(f) */\n      swap3\n      pop\n        /* \"Evm/zk/validators_verifier.sol\":6194:6566  {... */\n      pop\n        /* \"Evm/zk/validators_verifier.sol\":6581:6588  success */\n      dup1\n        /* \"Evm/zk/validators_verifier.sol\":6576:6712  if (!success) {... */\n      tag_307\n      jumpi\n        /* \"Evm/zk/validators_verifier.sol\":6686:6700  ProofInvalid() */\n      mload(0x40)\n      0x7fcdd1f400000000000000000000000000000000000000000000000000000000\n      dup2\n      mstore\n      0x04\n      add\n      mload(0x40)\n      dup1\n      swap2\n      sub\n      swap1\n      revert\n        /* \"Evm/zk/validators_verifier.sol\":6576:6712  if (!success) {... */\n    tag_307:\n        /* \"Evm/zk/validators_verifier.sol\":6135:6719  {... */\n      pop\n        /* \"Evm/zk/validators_verifier.sol\":6066:6719  function exp(uint256 a, uint256 e) internal view returns (uint256 x) {... */\n      swap3\n      swap2\n      pop\n      pop\n      jump\t// out\n        /* \"Evm/zk/validators_verifier.sol\":7008:7304  function invert_Fp(uint256 a) internal view returns (uint256 x) {... */\n    tag_292:\n        /* \"Evm/zk/validators_verifier.sol\":7061:7070  uint256 x */\n      0x00\n        /* \"Evm/zk/validators_verifier.sol\":7087:7109  exp(a, EXP_INVERSE_FP) */\n      tag_309\n        /* \"Evm/zk/validators_verifier.sol\":7091:7092  a */\n      dup3\n        /* \"Evm/zk/validators_verifier.sol\":2528:2594  0x30644E72E131A029B85045B68181585D97816A916871CA8D3C208C16D87CFD45 */\n      0x30644e72e131a029b85045b68181585d97816a916871ca8d3c208c16d87cfd45\n        /* \"Evm/zk/validators_verifier.sol\":7087:7090  exp */\n      tag_259\n        /* \"Evm/zk/validators_verifier.sol\":7087:7109  exp(a, EXP_INVERSE_FP) */\n      jump\t// in\n    tag_309:\n        /* \"Evm/zk/validators_verifier.sol\":7083:7109  x = exp(a, EXP_INVERSE_FP) */\n      swap1\n      pop\n        /* \"Evm/zk/validators_verifier.sol\":7143:7144  1 */\n      0x01\n        /* \"Evm/zk/validators_verifier.sol\":1423:1489  0x30644e72e131a029b85045b68181585d97816a916871ca8d3c208c16d87cfd47 */\n      0x30644e72e131a029b85045b68181585d97816a916871ca8d3c208c16d87cfd47\n        /* \"Evm/zk/validators_verifier.sol\":7124:7139  mulmod(a, x, P) */\n      dup1\n      tag_310\n      jumpi\n      tag_311\n      tag_138\n      jump\t// in\n    tag_311:\n    tag_310:\n        /* \"Evm/zk/validators_verifier.sol\":7134:7135  x */\n      dup3\n        /* \"Evm/zk/validators_verifier.sol\":7131:7132  a */\n      dup5\n        /* \"Evm/zk/validators_verifier.sol\":7124:7139  mulmod(a, x, P) */\n      mulmod\n        /* \"Evm/zk/validators_verifier.sol\":7124:7144  mulmod(a, x, P) != 1 */\n      eq\n        /* \"Evm/zk/validators_verifier.sol\":7120:7297  if (mulmod(a, x, P) != 1) {... */\n      tag_312\n      jumpi\n        /* \"Evm/zk/validators_verifier.sol\":7271:7285  ProofInvalid() */\n      mload(0x40)\n      0x7fcdd1f400000000000000000000000000000000000000000000000000000000\n      dup2\n      mstore\n      0x04\n      add\n      mload(0x40)\n      dup1\n      swap2\n      sub\n      swap1\n      revert\n        /* \"Evm/zk/validators_verifier.sol\":7120:7297  if (mulmod(a, x, P) != 1) {... */\n    tag_312:\n        /* \"Evm/zk/validators_verifier.sol\":7008:7304  function invert_Fp(uint256 a) internal view returns (uint256 x) {... */\n      swap2\n      swap1\n      pop\n      jump\t// out\n    tag_25:\n      mload(0x40)\n      dup1\n      0x80\n      add\n      0x40\n      mstore\n      dup1\n      0x04\n      swap1\n      0x20\n      dup3\n      mul\n      dup1\n      calldatasize\n      dup4\n      calldatacopy\n      dup1\n      dup3\n      add\n      swap2\n      pop\n      pop\n      swap1\n      pop\n      pop\n      swap1\n      jump\t// out\n    tag_59:\n      mload(0x40)\n      dup1\n      0x0300\n      add\n      0x40\n      mstore\n      dup1\n      0x18\n      swap1\n      0x20\n      dup3\n      mul\n      dup1\n      calldatasize\n      dup4\n      calldatacopy\n      dup1\n      dup3\n      add\n      swap2\n      pop\n      pop\n      swap1\n      pop\n      pop\n      swap1\n      jump\t// out\n    tag_123:\n      mload(0x40)\n      dup1\n      0x20\n      add\n      0x40\n      mstore\n      dup1\n      0x01\n      swap1\n      0x20\n      dup3\n      mul\n      dup1\n      calldatasize\n      dup4\n      calldatacopy\n      dup1\n      dup3\n      add\n      swap2\n      pop\n      pop\n      swap1\n      pop\n      pop\n      swap1\n      jump\t// out\n        /* \"#utility.yul\":88:205   */\n    tag_314:\n        /* \"#utility.yul\":197:198   */\n      0x00\n        /* \"#utility.yul\":194:195   */\n      0x00\n        /* \"#utility.yul\":187:199   */\n      revert\n        /* \"#utility.yul\":334:451   */\n    tag_316:\n        /* \"#utility.yul\":443:444   */\n      0x00\n        /* \"#utility.yul\":440:441   */\n      0x00\n        /* \"#utility.yul\":433:445   */\n      revert\n        /* \"#utility.yul\":475:724   */\n    tag_317:\n        /* \"#utility.yul\":546:554   */\n      0x00\n        /* \"#utility.yul\":577:583   */\n      dup2\n        /* \"#utility.yul\":565:583   */\n      swap1\n      pop\n        /* \"#utility.yul\":630:633   */\n      dup3\n        /* \"#utility.yul\":622:626   */\n      0x20\n        /* \"#utility.yul\":616:620   */\n      0x08\n        /* \"#utility.yul\":612:627   */\n      mul\n        /* \"#utility.yul\":602:610   */\n      dup3\n        /* \"#utility.yul\":598:628   */\n      add\n        /* \"#utility.yul\":595:634   */\n      gt\n        /* \"#utility.yul\":592:718   */\n      iszero\n      tag_335\n      jumpi\n        /* \"#utility.yul\":637:716   */\n      tag_336\n      tag_316\n      jump\t// in\n    tag_336:\n        /* \"#utility.yul\":592:718   */\n    tag_335:\n        /* \"#utility.yul\":475:724   */\n      swap3\n      swap2\n      pop\n      pop\n      jump\t// out\n        /* \"#utility.yul\":748:997   */\n    tag_318:\n        /* \"#utility.yul\":819:827   */\n      0x00\n        /* \"#utility.yul\":850:856   */\n      dup2\n        /* \"#utility.yul\":838:856   */\n      swap1\n      pop\n        /* \"#utility.yul\":903:906   */\n      dup3\n        /* \"#utility.yul\":895:899   */\n      0x20\n        /* \"#utility.yul\":889:893   */\n      0x05\n        /* \"#utility.yul\":885:900   */\n      mul\n        /* \"#utility.yul\":875:883   */\n      dup3\n        /* \"#utility.yul\":871:901   */\n      add\n        /* \"#utility.yul\":868:907   */\n      gt\n        /* \"#utility.yul\":865:991   */\n      iszero\n      tag_338\n      jumpi\n        /* \"#utility.yul\":910:989   */\n      tag_339\n      tag_316\n      jump\t// in\n    tag_339:\n        /* \"#utility.yul\":865:991   */\n    tag_338:\n        /* \"#utility.yul\":748:997   */\n      swap3\n      swap2\n      pop\n      pop\n      jump\t// out\n        /* \"#utility.yul\":1003:1579   */\n    tag_8:\n        /* \"#utility.yul\":1121:1127   */\n      0x00\n        /* \"#utility.yul\":1129:1135   */\n      0x00\n        /* \"#utility.yul\":1178:1181   */\n      0x01a0\n        /* \"#utility.yul\":1166:1175   */\n      dup4\n        /* \"#utility.yul\":1157:1164   */\n      dup6\n        /* \"#utility.yul\":1153:1176   */\n      sub\n        /* \"#utility.yul\":1149:1182   */\n      slt\n        /* \"#utility.yul\":1146:1266   */\n      iszero\n      tag_341\n      jumpi\n        /* \"#utility.yul\":1185:1264   */\n      tag_342\n      tag_314\n      jump\t// in\n    tag_342:\n        /* \"#utility.yul\":1146:1266   */\n    tag_341:\n        /* \"#utility.yul\":1305:1306   */\n      0x00\n        /* \"#utility.yul\":1330:1408   */\n      tag_343\n        /* \"#utility.yul\":1400:1407   */\n      dup6\n        /* \"#utility.yul\":1391:1397   */\n      dup3\n        /* \"#utility.yul\":1380:1389   */\n      dup7\n        /* \"#utility.yul\":1376:1398   */\n      add\n        /* \"#utility.yul\":1330:1408   */\n      tag_317\n      jump\t// in\n    tag_343:\n        /* \"#utility.yul\":1320:1408   */\n      swap3\n      pop\n        /* \"#utility.yul\":1276:1418   */\n      pop\n        /* \"#utility.yul\":1457:1460   */\n      0x0100\n        /* \"#utility.yul\":1484:1562   */\n      tag_344\n        /* \"#utility.yul\":1554:1561   */\n      dup6\n        /* \"#utility.yul\":1545:1551   */\n      dup3\n        /* \"#utility.yul\":1534:1543   */\n      dup7\n        /* \"#utility.yul\":1530:1552   */\n      add\n        /* \"#utility.yul\":1484:1562   */\n      tag_318\n      jump\t// in\n    tag_344:\n        /* \"#utility.yul\":1474:1562   */\n      swap2\n      pop\n        /* \"#utility.yul\":1428:1572   */\n      pop\n        /* \"#utility.yul\":1003:1579   */\n      swap3\n      pop\n      swap3\n      swap1\n      pop\n      jump\t// out\n        /* \"#utility.yul\":1585:1965   */\n    tag_12:\n        /* \"#utility.yul\":1669:1675   */\n      0x00\n        /* \"#utility.yul\":1718:1721   */\n      0x0100\n        /* \"#utility.yul\":1706:1715   */\n      dup3\n        /* \"#utility.yul\":1697:1704   */\n      dup5\n        /* \"#utility.yul\":1693:1716   */\n      sub\n        /* \"#utility.yul\":1689:1722   */\n      slt\n        /* \"#utility.yul\":1686:1806   */\n      iszero\n      tag_346\n      jumpi\n        /* \"#utility.yul\":1725:1804   */\n      tag_347\n      tag_314\n      jump\t// in\n    tag_347:\n        /* \"#utility.yul\":1686:1806   */\n    tag_346:\n        /* \"#utility.yul\":1845:1846   */\n      0x00\n        /* \"#utility.yul\":1870:1948   */\n      tag_348\n        /* \"#utility.yul\":1940:1947   */\n      dup5\n        /* \"#utility.yul\":1931:1937   */\n      dup3\n        /* \"#utility.yul\":1920:1929   */\n      dup6\n        /* \"#utility.yul\":1916:1938   */\n      add\n        /* \"#utility.yul\":1870:1948   */\n      tag_317\n      jump\t// in\n    tag_348:\n        /* \"#utility.yul\":1860:1948   */\n      swap2\n      pop\n        /* \"#utility.yul\":1816:1958   */\n      pop\n        /* \"#utility.yul\":1585:1965   */\n      swap3\n      swap2\n      pop\n      pop\n      jump\t// out\n        /* \"#utility.yul\":1971:2075   */\n    tag_319:\n        /* \"#utility.yul\":2036:2042   */\n      0x00\n        /* \"#utility.yul\":2064:2068   */\n      0x04\n        /* \"#utility.yul\":2054:2068   */\n      swap1\n      pop\n        /* \"#utility.yul\":1971:2075   */\n      swap2\n      swap1\n      pop\n      jump\t// out\n        /* \"#utility.yul\":2081:2224   */\n    tag_320:\n        /* \"#utility.yul\":2178:2189   */\n      0x00\n        /* \"#utility.yul\":2215:2218   */\n      dup2\n        /* \"#utility.yul\":2200:2218   */\n      swap1\n      pop\n        /* \"#utility.yul\":2081:2224   */\n      swap3\n      swap2\n      pop\n      pop\n      jump\t// out\n        /* \"#utility.yul\":2230:2328   */\n    tag_321:\n        /* \"#utility.yul\":2295:2299   */\n      0x00\n        /* \"#utility.yul\":2318:2321   */\n      dup2\n        /* \"#utility.yul\":2310:2321   */\n      swap1\n      pop\n        /* \"#utility.yul\":2230:2328   */\n      swap2\n      swap1\n      pop\n      jump\t// out\n        /* \"#utility.yul\":2334:2411   */\n    tag_322:\n        /* \"#utility.yul\":2371:2378   */\n      0x00\n        /* \"#utility.yul\":2400:2405   */\n      dup2\n        /* \"#utility.yul\":2389:2405   */\n      swap1\n      pop\n        /* \"#utility.yul\":2334:2411   */\n      swap2\n      swap1\n      pop\n      jump\t// out\n        /* \"#utility.yul\":2417:2525   */\n    tag_323:\n        /* \"#utility.yul\":2494:2518   */\n      tag_354\n        /* \"#utility.yul\":2512:2517   */\n      dup2\n        /* \"#utility.yul\":2494:2518   */\n      tag_322\n      jump\t// in\n    tag_354:\n        /* \"#utility.yul\":2489:2492   */\n      dup3\n        /* \"#utility.yul\":2482:2519   */\n      mstore\n        /* \"#utility.yul\":2417:2525   */\n      pop\n      pop\n      jump\t// out\n        /* \"#utility.yul\":2531:2710   */\n    tag_324:\n        /* \"#utility.yul\":2600:2610   */\n      0x00\n        /* \"#utility.yul\":2621:2667   */\n      tag_356\n        /* \"#utility.yul\":2663:2666   */\n      dup4\n        /* \"#utility.yul\":2655:2661   */\n      dup4\n        /* \"#utility.yul\":2621:2667   */\n      tag_323\n      jump\t// in\n    tag_356:\n        /* \"#utility.yul\":2699:2703   */\n      0x20\n        /* \"#utility.yul\":2694:2697   */\n      dup4\n        /* \"#utility.yul\":2690:2704   */\n      add\n        /* \"#utility.yul\":2676:2704   */\n      swap1\n      pop\n        /* \"#utility.yul\":2531:2710   */\n      swap3\n      swap2\n      pop\n      pop\n      jump\t// out\n        /* \"#utility.yul\":2716:2827   */\n    tag_325:\n        /* \"#utility.yul\":2784:2788   */\n      0x00\n        /* \"#utility.yul\":2816:2820   */\n      0x20\n        /* \"#utility.yul\":2811:2814   */\n      dup3\n        /* \"#utility.yul\":2807:2821   */\n      add\n        /* \"#utility.yul\":2799:2821   */\n      swap1\n      pop\n        /* \"#utility.yul\":2716:2827   */\n      swap2\n      swap1\n      pop\n      jump\t// out\n        /* \"#utility.yul\":2865:3559   */\n    tag_326:\n        /* \"#utility.yul\":3001:3053   */\n      tag_359\n        /* \"#utility.yul\":3047:3052   */\n      dup2\n        /* \"#utility.yul\":3001:3053   */\n      tag_319\n      jump\t// in\n    tag_359:\n        /* \"#utility.yul\":3069:3153   */\n      tag_360\n        /* \"#utility.yul\":3146:3152   */\n      dup2\n        /* \"#utility.yul\":3141:3144   */\n      dup5\n        /* \"#utility.yul\":3069:3153   */\n      tag_320\n      jump\t// in\n    tag_360:\n        /* \"#utility.yul\":3062:3153   */\n      swap3\n      pop\n        /* \"#utility.yul\":3177:3231   */\n      tag_361\n        /* \"#utility.yul\":3225:3230   */\n      dup3\n        /* \"#utility.yul\":3177:3231   */\n      tag_321\n      jump\t// in\n    tag_361:\n        /* \"#utility.yul\":3254:3261   */\n      dup1\n        /* \"#utility.yul\":3285:3286   */\n      0x00\n        /* \"#utility.yul\":3270:3552   */\n    tag_362:\n        /* \"#utility.yul\":3295:3301   */\n      dup4\n        /* \"#utility.yul\":3292:3293   */\n      dup2\n        /* \"#utility.yul\":3289:3302   */\n      lt\n        /* \"#utility.yul\":3270:3552   */\n      iszero\n      tag_364\n      jumpi\n        /* \"#utility.yul\":3371:3377   */\n      dup2\n        /* \"#utility.yul\":3365:3378   */\n      mload\n        /* \"#utility.yul\":3398:3461   */\n      tag_365\n        /* \"#utility.yul\":3457:3460   */\n      dup8\n        /* \"#utility.yul\":3442:3455   */\n      dup3\n        /* \"#utility.yul\":3398:3461   */\n      tag_324\n      jump\t// in\n    tag_365:\n        /* \"#utility.yul\":3391:3461   */\n      swap7\n      pop\n        /* \"#utility.yul\":3484:3542   */\n      tag_366\n        /* \"#utility.yul\":3535:3541   */\n      dup4\n        /* \"#utility.yul\":3484:3542   */\n      tag_325\n      jump\t// in\n    tag_366:\n        /* \"#utility.yul\":3474:3542   */\n      swap3\n      pop\n        /* \"#utility.yul\":3330:3552   */\n      pop\n        /* \"#utility.yul\":3317:3318   */\n      0x01\n        /* \"#utility.yul\":3314:3315   */\n      dup2\n        /* \"#utility.yul\":3310:3319   */\n      add\n        /* \"#utility.yul\":3305:3319   */\n      swap1\n      pop\n        /* \"#utility.yul\":3270:3552   */\n      jump(tag_362)\n    tag_364:\n        /* \"#utility.yul\":3274:3288   */\n      pop\n        /* \"#utility.yul\":2977:3559   */\n      pop\n      pop\n      pop\n        /* \"#utility.yul\":2865:3559   */\n      pop\n      pop\n      jump\t// out\n        /* \"#utility.yul\":3565:3880   */\n    tag_15:\n        /* \"#utility.yul\":3704:3708   */\n      0x00\n        /* \"#utility.yul\":3742:3745   */\n      0x80\n        /* \"#utility.yul\":3731:3740   */\n      dup3\n        /* \"#utility.yul\":3727:3746   */\n      add\n        /* \"#utility.yul\":3719:3746   */\n      swap1\n      pop\n        /* \"#utility.yul\":3756:3873   */\n      tag_368\n        /* \"#utility.yul\":3870:3871   */\n      0x00\n        /* \"#utility.yul\":3859:3868   */\n      dup4\n        /* \"#utility.yul\":3855:3872   */\n      add\n        /* \"#utility.yul\":3846:3852   */\n      dup5\n        /* \"#utility.yul\":3756:3873   */\n      tag_326\n      jump\t// in\n    tag_368:\n        /* \"#utility.yul\":3565:3880   */\n      swap3\n      swap2\n      pop\n      pop\n      jump\t// out\n        /* \"#utility.yul\":3904:4153   */\n    tag_327:\n        /* \"#utility.yul\":3975:3983   */\n      0x00\n        /* \"#utility.yul\":4006:4012   */\n      dup2\n        /* \"#utility.yul\":3994:4012   */\n      swap1\n      pop\n        /* \"#utility.yul\":4059:4062   */\n      dup3\n        /* \"#utility.yul\":4051:4055   */\n      0x20\n        /* \"#utility.yul\":4045:4049   */\n      0x04\n        /* \"#utility.yul\":4041:4056   */\n      mul\n        /* \"#utility.yul\":4031:4039   */\n      dup3\n        /* \"#utility.yul\":4027:4057   */\n      add\n        /* \"#utility.yul\":4024:4063   */\n      gt\n        /* \"#utility.yul\":4021:4147   */\n      iszero\n      tag_370\n      jumpi\n        /* \"#utility.yul\":4066:4145   */\n      tag_371\n      tag_316\n      jump\t// in\n    tag_371:\n        /* \"#utility.yul\":4021:4147   */\n    tag_370:\n        /* \"#utility.yul\":3904:4153   */\n      swap3\n      swap2\n      pop\n      pop\n      jump\t// out\n        /* \"#utility.yul\":4159:4735   */\n    tag_18:\n        /* \"#utility.yul\":4277:4283   */\n      0x00\n        /* \"#utility.yul\":4285:4291   */\n      0x00\n        /* \"#utility.yul\":4334:4337   */\n      0x0120\n        /* \"#utility.yul\":4322:4331   */\n      dup4\n        /* \"#utility.yul\":4313:4320   */\n      dup6\n        /* \"#utility.yul\":4309:4332   */\n      sub\n        /* \"#utility.yul\":4305:4338   */\n      slt\n        /* \"#utility.yul\":4302:4422   */\n      iszero\n      tag_373\n      jumpi\n        /* \"#utility.yul\":4341:4420   */\n      tag_374\n      tag_314\n      jump\t// in\n    tag_374:\n        /* \"#utility.yul\":4302:4422   */\n    tag_373:\n        /* \"#utility.yul\":4461:4462   */\n      0x00\n        /* \"#utility.yul\":4486:4564   */\n      tag_375\n        /* \"#utility.yul\":4556:4563   */\n      dup6\n        /* \"#utility.yul\":4547:4553   */\n      dup3\n        /* \"#utility.yul\":4536:4545   */\n      dup7\n        /* \"#utility.yul\":4532:4554   */\n      add\n        /* \"#utility.yul\":4486:4564   */\n      tag_327\n      jump\t// in\n    tag_375:\n        /* \"#utility.yul\":4476:4564   */\n      swap3\n      pop\n        /* \"#utility.yul\":4432:4574   */\n      pop\n        /* \"#utility.yul\":4613:4616   */\n      0x80\n        /* \"#utility.yul\":4640:4718   */\n      tag_376\n        /* \"#utility.yul\":4710:4717   */\n      dup6\n        /* \"#utility.yul\":4701:4707   */\n      dup3\n        /* \"#utility.yul\":4690:4699   */\n      dup7\n        /* \"#utility.yul\":4686:4708   */\n      add\n        /* \"#utility.yul\":4640:4718   */\n      tag_318\n      jump\t// in\n    tag_376:\n        /* \"#utility.yul\":4630:4718   */\n      swap2\n      pop\n        /* \"#utility.yul\":4584:4728   */\n      pop\n        /* \"#utility.yul\":4159:4735   */\n      swap3\n      pop\n      swap3\n      swap1\n      pop\n      jump\t// out\n        /* \"#utility.yul\":4741:4921   */\n    tag_30:\n        /* \"#utility.yul\":4789:4866   */\n      0x4e487b7100000000000000000000000000000000000000000000000000000000\n        /* \"#utility.yul\":4786:4787   */\n      0x00\n        /* \"#utility.yul\":4779:4867   */\n      mstore\n        /* \"#utility.yul\":4886:4890   */\n      0x32\n        /* \"#utility.yul\":4883:4884   */\n      0x04\n        /* \"#utility.yul\":4876:4891   */\n      mstore\n        /* \"#utility.yul\":4910:4914   */\n      0x24\n        /* \"#utility.yul\":4907:4908   */\n      0x00\n        /* \"#utility.yul\":4900:4915   */\n      revert\n        /* \"#utility.yul\":4927:5107   */\n    tag_138:\n        /* \"#utility.yul\":4975:5052   */\n      0x4e487b7100000000000000000000000000000000000000000000000000000000\n        /* \"#utility.yul\":4972:4973   */\n      0x00\n        /* \"#utility.yul\":4965:5053   */\n      mstore\n        /* \"#utility.yul\":5072:5076   */\n      0x12\n        /* \"#utility.yul\":5069:5070   */\n      0x04\n        /* \"#utility.yul\":5062:5077   */\n      mstore\n        /* \"#utility.yul\":5096:5100   */\n      0x24\n        /* \"#utility.yul\":5093:5094   */\n      0x00\n        /* \"#utility.yul\":5086:5101   */\n      revert\n        /* \"#utility.yul\":5113:5293   */\n    tag_328:\n        /* \"#utility.yul\":5161:5238   */\n      0x4e487b7100000000000000000000000000000000000000000000000000000000\n        /* \"#utility.yul\":5158:5159   */\n      0x00\n        /* \"#utility.yul\":5151:5239   */\n      mstore\n        /* \"#utility.yul\":5258:5262   */\n      0x11\n        /* \"#utility.yul\":5255:5256   */\n      0x04\n        /* \"#utility.yul\":5248:5263   */\n      mstore\n        /* \"#utility.yul\":5282:5286   */\n      0x24\n        /* \"#utility.yul\":5279:5280   */\n      0x00\n        /* \"#utility.yul\":5272:5287   */\n      revert\n        /* \"#utility.yul\":5299:5493   */\n    tag_159:\n        /* \"#utility.yul\":5339:5343   */\n      0x00\n        /* \"#utility.yul\":5359:5379   */\n      tag_381\n        /* \"#utility.yul\":5377:5378   */\n      dup3\n        /* \"#utility.yul\":5359:5379   */\n      tag_322\n      jump\t// in\n    tag_381:\n        /* \"#utility.yul\":5354:5379   */\n      swap2\n      pop\n        /* \"#utility.yul\":5393:5413   */\n      tag_382\n        /* \"#utility.yul\":5411:5412   */\n      dup4\n        /* \"#utility.yul\":5393:5413   */\n      tag_322\n      jump\t// in\n    tag_382:\n        /* \"#utility.yul\":5388:5413   */\n      swap3\n      pop\n        /* \"#utility.yul\":5437:5438   */\n      dup3\n        /* \"#utility.yul\":5434:5435   */\n      dup3\n        /* \"#utility.yul\":5430:5439   */\n      sub\n        /* \"#utility.yul\":5422:5439   */\n      swap1\n      pop\n        /* \"#utility.yul\":5461:5462   */\n      dup2\n        /* \"#utility.yul\":5455:5459   */\n      dup2\n        /* \"#utility.yul\":5452:5463   */\n      gt\n        /* \"#utility.yul\":5449:5486   */\n      iszero\n      tag_383\n      jumpi\n        /* \"#utility.yul\":5466:5484   */\n      tag_384\n      tag_328\n      jump\t// in\n    tag_384:\n        /* \"#utility.yul\":5449:5486   */\n    tag_383:\n        /* \"#utility.yul\":5299:5493   */\n      swap3\n      swap2\n      pop\n      pop\n      jump\t// out\n\n    auxdata: 0xa2646970667358221220d0d80126ff4406763b53dcd33b28d24548e817c1f2b3d95408f79d8fcd75d9ee64736f6c634300081f0033\n}\n",
				"bytecode": {
					"linkReferences": {},
					"object": "6080604052348015600e575f5ffd5b506122978061001c5f395ff3fe608060405234801561000f575f5ffd5b506004361061003f575f3560e01c80632a07d99a1461004357806344f636921461005f578063a67086041461008f575b5f5ffd5b61005d60048036038101906100589190612014565b6100ab565b005b61007960048036038101906100749190612054565b610344565b604051610086919061212e565b60405180910390f35b6100a960048036038101906100a49190612168565b6104a3565b005b5f5f6100b683610a5d565b915091505f6040516101008682377f102ca580f22bffbed09641ba183843f2c139a72b177483ec4bcb54500d0c5adb6101008201527f0ad2ae4511845a6b6e3150e2322ecffc3f9eb1f5011af6cd9f2d82944feeb3066101208201527f18a6dd900fb75a47740a8df4666473c392d2df4a5b0364d67d23ceb2ef0321f16101408201527f018db34be067304d60aa80604283f3b2cd9902fb7562ec08fdbae4e4c8f9891f6101608201527f2519a8bc0c6a2c35bd4c9ba88ecd3872f6686784b1dfd3a9b8968121705f492e6101808201527f084bac615aca50781756001a357c1ad40f6362495dd2bbfb8da9d475c5a7b2d96101a08201527e24b6d7abb533caaef2ceec030f3f633b771761753749b3d5496a85699ced5a6101c08201527ec3ec19c370e7dbbec4983cf277d13ed455ae3d30e51e1dcd30810f97c390126101e08201527f02ce121f6d665a5a4704ca958ae8a6fb0117d7acee5fd7f176a28d93bffec7096102008201527f12ef6b7a7f48c342f20a44b8932bf5e96141588eba26bec9de196cb5fb09995e61022082015283610240820152826102608201527f20e999258061df56e1972696dd7b46c8f6ecb3196711cabb29b2c681d15aa5556102808201527f0280ada90b75034b8854a0c242cf6ae46ee37d31978547bd603eed9d54373a626102a08201527f14d2332dc46a93446b7809494a1f8ac5e1e803c8ee42e37b94754514cece66686102c08201527f19f3613ca821ff43d0074e17c318ccd90357f062831e8ef3bdad12ecd184d6906102e08201526020816103008360085afa9150805182169150508061033d576040517f7fcdd1f400000000000000000000000000000000000000000000000000000000815260040160405180910390fd5b5050505050565b61034c611f63565b610385825f60088110610362576103616121a7565b5b60200201358360016008811061037b5761037a6121a7565b5b6020020135610d39565b815f60048110610398576103976121a7565b5b60200201818152505061040d826003600881106103b8576103b76121a7565b5b6020020135836002600881106103d1576103d06121a7565b5b6020020135846005600881106103ea576103e96121a7565b5b602002013585600460088110610403576104026121a7565b5b6020020135610ee7565b82600260048110610421576104206121a7565b5b6020020183600160048110610439576104386121a7565b5b60200201828152508281525050506104818260066008811061045e5761045d6121a7565b5b602002013583600760088110610477576104766121a7565b5b6020020135610d39565b81600360048110610495576104946121a7565b5b602002018181525050919050565b6104ab611f85565b5f5f6104cd855f600481106104c3576104c26121a7565b5b60200201356114b3565b915091505f5f5f5f61050f896002600481106104ec576104eb6121a7565b5b60200201358a600160048110610505576105046121a7565b5b60200201356115e8565b93509350935093505f5f61053a8b6003600481106105305761052f6121a7565b5b60200201356114b3565b915091505f5f6105498c610a5d565b91509150898b5f60188110610561576105606121a7565b5b602002018181525050888b60016018811061057f5761057e6121a7565b5b602002018181525050868b60026018811061059d5761059c6121a7565b5b602002018181525050878b6003601881106105bb576105ba6121a7565b5b602002018181525050848b6004601881106105d9576105d86121a7565b5b602002018181525050858b6005601881106105f7576105f66121a7565b5b602002018181525050838b600660188110610615576106146121a7565b5b602002018181525050828b600760188110610633576106326121a7565b5b6020020181815250507f102ca580f22bffbed09641ba183843f2c139a72b177483ec4bcb54500d0c5adb8b600860188110610671576106706121a7565b5b6020020181815250507f0ad2ae4511845a6b6e3150e2322ecffc3f9eb1f5011af6cd9f2d82944feeb3068b6009601881106106af576106ae6121a7565b5b6020020181815250507f18a6dd900fb75a47740a8df4666473c392d2df4a5b0364d67d23ceb2ef0321f18b600a601881106106ed576106ec6121a7565b5b6020020181815250507f018db34be067304d60aa80604283f3b2cd9902fb7562ec08fdbae4e4c8f9891f8b600b6018811061072b5761072a6121a7565b5b6020020181815250507f2519a8bc0c6a2c35bd4c9ba88ecd3872f6686784b1dfd3a9b8968121705f492e8b600c60188110610769576107686121a7565b5b6020020181815250507f084bac615aca50781756001a357c1ad40f6362495dd2bbfb8da9d475c5a7b2d98b600d601881106107a7576107a66121a7565b5b6020020181815250507e24b6d7abb533caaef2ceec030f3f633b771761753749b3d5496a85699ced5a8b600e601881106107e4576107e36121a7565b5b6020020181815250507ec3ec19c370e7dbbec4983cf277d13ed455ae3d30e51e1dcd30810f97c390128b600f60188110610821576108206121a7565b5b6020020181815250507f02ce121f6d665a5a4704ca958ae8a6fb0117d7acee5fd7f176a28d93bffec7098b60106018811061085f5761085e6121a7565b5b6020020181815250507f12ef6b7a7f48c342f20a44b8932bf5e96141588eba26bec9de196cb5fb09995e8b60116018811061089d5761089c6121a7565b5b602002018181525050818b6012601881106108bb576108ba6121a7565b5b602002018181525050808b6013601881106108d9576108d86121a7565b5b6020020181815250507f20e999258061df56e1972696dd7b46c8f6ecb3196711cabb29b2c681d15aa5558b601460188110610917576109166121a7565b5b6020020181815250507f0280ada90b75034b8854a0c242cf6ae46ee37d31978547bd603eed9d54373a628b601560188110610955576109546121a7565b5b6020020181815250507f14d2332dc46a93446b7809494a1f8ac5e1e803c8ee42e37b94754514cece66688b601660188110610993576109926121a7565b5b6020020181815250507f19f3613ca821ff43d0074e17c318ccd90357f062831e8ef3bdad12ecd184d6908b6017601881106109d1576109d06121a7565b5b6020020181815250505f6109e3611fa8565b6020816103008f60085afa9150811580610a1557506001815f60018110610a0d57610a0c6121a7565b5b602002015114155b15610a4c576040517f7fcdd1f400000000000000000000000000000000000000000000000000000000815260040160405180910390fd5b505050505050505050505050505050565b5f5f5f60019050604051604081015f7f100ec70909e76b760e4a2da55404a928d23325897b7f5e785f37fd17369a618283527f1d70d5725d474e8669b1d728a1355f2fd10ff710d688324b044dbd414649edf060208401527f09bbe690624bda4e589565e110df9fc66e9e062b4b505cba41a4a6c9c568e9cf82527e3c7c6c9b745f7af6d227b58120ecb6c880ea2e110e6c24e8d7a6ed4f9c115b6020830152863590508060408301527f30644e72e131a029b85045b68181585d2833e84879b9709143e1f593f000000181108416935060408260608460075afa8416935060408360808560065afa841693505f82525f6020830152602087013590508060408301527f30644e72e131a029b85045b68181585d2833e84879b9709143e1f593f000000181108416935060408260608460075afa8416935060408360808560065afa841693505f82525f6020830152604087013590508060408301527f30644e72e131a029b85045b68181585d2833e84879b9709143e1f593f000000181108416935060408260608460075afa8416935060408360808560065afa841693505f82525f6020830152606087013590508060408301527f30644e72e131a029b85045b68181585d2833e84879b9709143e1f593f000000181108416935060408260608460075afa8416935060408360808560065afa841693507f267e506b82b8f7202b396a880bb15d9b92eeb9b14e7ed57698cacea43cd41e2b82527f011e5745dc5596ed8b11e66e66a4a28c74ad0210785d8768350bfd54416147c96020830152608087013590508060408301527f30644e72e131a029b85045b68181585d2833e84879b9709143e1f593f000000181108416935060408260608460075afa8416935060408360808560065afa84169350825195506020830151945050505080610d33576040517fa54f8e2700000000000000000000000000000000000000000000000000000000815260040160405180910390fd5b50915091565b5f7f30644e72e131a029b85045b68181585d97816a916871ca8d3c208c16d87cfd4783101580610d8957507f30644e72e131a029b85045b68181585d97816a916871ca8d3c208c16d87cfd478210155b15610dc0576040517f7fcdd1f400000000000000000000000000000000000000000000000000000000815260040160405180910390fd5b5f83148015610dce57505f82145b15610ddb575f9050610ee1565b5f610e797f30644e72e131a029b85045b68181585d97816a916871ca8d3c208c16d87cfd4780610e0e57610e0d6121d4565b5b60037f30644e72e131a029b85045b68181585d97816a916871ca8d3c208c16d87cfd4780610e3f57610e3e6121d4565b5b877f30644e72e131a029b85045b68181585d97816a916871ca8d3c208c16d87cfd4780610e6f57610e6e6121d4565b5b898a0909086119c3565b9050808303610e91575f600185901b17915050610ee1565b610e9a81611a5f565b8303610eaf5760018085901b17915050610ee1565b6040517f7fcdd1f400000000000000000000000000000000000000000000000000000000815260040160405180910390fd5b92915050565b5f5f7f30644e72e131a029b85045b68181585d97816a916871ca8d3c208c16d87cfd4786101580610f3857507f30644e72e131a029b85045b68181585d97816a916871ca8d3c208c16d87cfd478510155b80610f6357507f30644e72e131a029b85045b68181585d97816a916871ca8d3c208c16d87cfd478410155b80610f8e57507f30644e72e131a029b85045b68181585d97816a916871ca8d3c208c16d87cfd478310155b15610fc5576040517f7fcdd1f400000000000000000000000000000000000000000000000000000000815260040160405180910390fd5b5f8385878917171703610fdd575f5f915091506114aa565b5f5f5f7f30644e72e131a029b85045b68181585d97816a916871ca8d3c208c16d87cfd478061100f5761100e6121d4565b5b60037f30644e72e131a029b85045b68181585d97816a916871ca8d3c208c16d87cfd4761103c919061222e565b7f30644e72e131a029b85045b68181585d97816a916871ca8d3c208c16d87cfd478061106b5761106a6121d4565b5b8a8c090990505f7f30644e72e131a029b85045b68181585d97816a916871ca8d3c208c16d87cfd47806110a1576110a06121d4565b5b8a7f30644e72e131a029b85045b68181585d97816a916871ca8d3c208c16d87cfd47806110d1576110d06121d4565b5b8c8d090990505f7f30644e72e131a029b85045b68181585d97816a916871ca8d3c208c16d87cfd4780611107576111066121d4565b5b8a7f30644e72e131a029b85045b68181585d97816a916871ca8d3c208c16d87cfd4780611137576111366121d4565b5b8c8d090990507f30644e72e131a029b85045b68181585d97816a916871ca8d3c208c16d87cfd478061116c5761116b6121d4565b5b7f30644e72e131a029b85045b68181585d97816a916871ca8d3c208c16d87cfd478061119b5761119a6121d4565b5b7f30644e72e131a029b85045b68181585d97816a916871ca8d3c208c16d87cfd47806111ca576111c96121d4565b5b8c860984087f2b149d40ceb8aaae81be18991be06ac3b5b4c5e559dbefa33267e6dc24a138e50894506112af7f30644e72e131a029b85045b68181585d97816a916871ca8d3c208c16d87cfd4780611225576112246121d4565b5b7f30644e72e131a029b85045b68181585d97816a916871ca8d3c208c16d87cfd4780611254576112536121d4565b5b7f30644e72e131a029b85045b68181585d97816a916871ca8d3c208c16d87cfd4780611283576112826121d4565b5b8e870984087f2fcd3ac2a640a154eb23960892a85a68f031ca0c8344b23a577dcf1052b9e77508611a5f565b93505050505f5f6113527f30644e72e131a029b85045b68181585d97816a916871ca8d3c208c16d87cfd47806112e8576112e76121d4565b5b7f30644e72e131a029b85045b68181585d97816a916871ca8d3c208c16d87cfd4780611317576113166121d4565b5b8586097f30644e72e131a029b85045b68181585d97816a916871ca8d3c208c16d87cfd4780611349576113486121d4565b5b878809086119c3565b90506113df7f30644e72e131a029b85045b68181585d97816a916871ca8d3c208c16d87cfd4780611386576113856121d4565b5b7f183227397098d014dc2822db40c0ac2ecbc0b548b438e5469e10460b6c3e7ea47f30644e72e131a029b85045b68181585d97816a916871ca8d3c208c16d87cfd47806113d6576113d56121d4565b5b84880809611aca565b159150506113ee838383611b34565b8093508194505050828714801561140457508186145b1561142c575f81611415575f611418565b60025b60ff1660028b901b171794508793506114a6565b61143583611a5f565b8714801561144a575061144782611a5f565b86145b156114735760018161145c575f61145f565b60025b60ff1660028b901b171794508793506114a5565b6040517f7fcdd1f400000000000000000000000000000000000000000000000000000000815260040160405180910390fd5b5b5050505b94509492505050565b5f5f5f83036114c7575f5f915091506115e3565b5f6001808516149050600184901c92507f30644e72e131a029b85045b68181585d97816a916871ca8d3c208c16d87cfd478310611530576040517f7fcdd1f400000000000000000000000000000000000000000000000000000000815260040160405180910390fd5b6115cd7f30644e72e131a029b85045b68181585d97816a916871ca8d3c208c16d87cfd4780611562576115616121d4565b5b60037f30644e72e131a029b85045b68181585d97816a916871ca8d3c208c16d87cfd4780611593576115926121d4565b5b867f30644e72e131a029b85045b68181585d97816a916871ca8d3c208c16d87cfd47806115c3576115c26121d4565b5b88890909086119c3565b915080156115e1576115de82611a5f565b91505b505b915091565b5f5f5f5f5f861480156115fa57505f85145b15611610575f5f5f5f93509350935093506119ba565b5f60018088161490505f6002808916149050600288901c95508694507f30644e72e131a029b85045b68181585d97816a916871ca8d3c208c16d87cfd478610158061167b57507f30644e72e131a029b85045b68181585d97816a916871ca8d3c208c16d87cfd478510155b156116b2576040517f7fcdd1f400000000000000000000000000000000000000000000000000000000815260040160405180910390fd5b5f7f30644e72e131a029b85045b68181585d97816a916871ca8d3c208c16d87cfd47806116e2576116e16121d4565b5b60037f30644e72e131a029b85045b68181585d97816a916871ca8d3c208c16d87cfd4761170f919061222e565b7f30644e72e131a029b85045b68181585d97816a916871ca8d3c208c16d87cfd478061173e5761173d6121d4565b5b888a090990505f7f30644e72e131a029b85045b68181585d97816a916871ca8d3c208c16d87cfd4780611774576117736121d4565b5b887f30644e72e131a029b85045b68181585d97816a916871ca8d3c208c16d87cfd47806117a4576117a36121d4565b5b8a8b090990505f7f30644e72e131a029b85045b68181585d97816a916871ca8d3c208c16d87cfd47806117da576117d96121d4565b5b887f30644e72e131a029b85045b68181585d97816a916871ca8d3c208c16d87cfd478061180a576118096121d4565b5b8a8b090990507f30644e72e131a029b85045b68181585d97816a916871ca8d3c208c16d87cfd478061183f5761183e6121d4565b5b7f30644e72e131a029b85045b68181585d97816a916871ca8d3c208c16d87cfd478061186e5761186d6121d4565b5b7f30644e72e131a029b85045b68181585d97816a916871ca8d3c208c16d87cfd478061189d5761189c6121d4565b5b8a860984087f2b149d40ceb8aaae81be18991be06ac3b5b4c5e559dbefa33267e6dc24a138e50896506119827f30644e72e131a029b85045b68181585d97816a916871ca8d3c208c16d87cfd47806118f8576118f76121d4565b5b7f30644e72e131a029b85045b68181585d97816a916871ca8d3c208c16d87cfd4780611927576119266121d4565b5b7f30644e72e131a029b85045b68181585d97816a916871ca8d3c208c16d87cfd4780611956576119556121d4565b5b8c870984087f2fcd3ac2a640a154eb23960892a85a68f031ca0c8344b23a577dcf1052b9e77508611a5f565b955061198f878786611b34565b809750819850505084156119b4576119a687611a5f565b96506119b186611a5f565b95505b50505050505b92959194509250565b5f6119ee827f0c19139cb84c680a6e14116da060561765e05aa45a1c72a34f082305b61f3f52611e2f565b9050817f30644e72e131a029b85045b68181585d97816a916871ca8d3c208c16d87cfd4780611a2057611a1f6121d4565b5b82830914611a5a576040517f7fcdd1f400000000000000000000000000000000000000000000000000000000815260040160405180910390fd5b919050565b5f7f30644e72e131a029b85045b68181585d97816a916871ca8d3c208c16d87cfd47808381611a9157611a906121d4565b5b067f30644e72e131a029b85045b68181585d97816a916871ca8d3c208c16d87cfd470381611ac257611ac16121d4565b5b069050919050565b5f5f611af6837f0c19139cb84c680a6e14116da060561765e05aa45a1c72a34f082305b61f3f52611e2f565b9050827f30644e72e131a029b85045b68181585d97816a916871ca8d3c208c16d87cfd4780611b2857611b276121d4565b5b82830914915050919050565b5f5f5f611bd37f30644e72e131a029b85045b68181585d97816a916871ca8d3c208c16d87cfd4780611b6957611b686121d4565b5b7f30644e72e131a029b85045b68181585d97816a916871ca8d3c208c16d87cfd4780611b9857611b976121d4565b5b8788097f30644e72e131a029b85045b68181585d97816a916871ca8d3c208c16d87cfd4780611bca57611bc96121d4565b5b898a09086119c3565b90508315611be757611be481611a5f565b90505b611c727f30644e72e131a029b85045b68181585d97816a916871ca8d3c208c16d87cfd4780611c1957611c186121d4565b5b7f183227397098d014dc2822db40c0ac2ecbc0b548b438e5469e10460b6c3e7ea47f30644e72e131a029b85045b68181585d97816a916871ca8d3c208c16d87cfd4780611c6957611c686121d4565b5b848a08096119c3565b92507f30644e72e131a029b85045b68181585d97816a916871ca8d3c208c16d87cfd4780611ca357611ca26121d4565b5b611cde7f30644e72e131a029b85045b68181585d97816a916871ca8d3c208c16d87cfd4780611cd557611cd46121d4565b5b60028609611ec6565b860991507f30644e72e131a029b85045b68181585d97816a916871ca8d3c208c16d87cfd4780611d1157611d106121d4565b5b611d4b7f30644e72e131a029b85045b68181585d97816a916871ca8d3c208c16d87cfd4780611d4357611d426121d4565b5b848509611a5f565b7f30644e72e131a029b85045b68181585d97816a916871ca8d3c208c16d87cfd4780611d7a57611d796121d4565b5b8586090886141580611def57507f30644e72e131a029b85045b68181585d97816a916871ca8d3c208c16d87cfd4780611db657611db56121d4565b5b7f30644e72e131a029b85045b68181585d97816a916871ca8d3c208c16d87cfd4780611de557611de46121d4565b5b8385096002098514155b15611e26576040517f7fcdd1f400000000000000000000000000000000000000000000000000000000815260040160405180910390fd5b50935093915050565b5f5f60405160208152602080820152602060408201528460608201528360808201527f30644e72e131a029b85045b68181585d97816a916871ca8d3c208c16d87cfd4760a082015260208160c08360055afa9150805192505080611ebf576040517f7fcdd1f400000000000000000000000000000000000000000000000000000000815260040160405180910390fd5b5092915050565b5f611ef1827f30644e72e131a029b85045b68181585d97816a916871ca8d3c208c16d87cfd45611e2f565b905060017f30644e72e131a029b85045b68181585d97816a916871ca8d3c208c16d87cfd4780611f2457611f236121d4565b5b82840914611f5e576040517f7fcdd1f400000000000000000000000000000000000000000000000000000000815260040160405180910390fd5b919050565b6040518060800160405280600490602082028036833780820191505090505090565b604051806103000160405280601890602082028036833780820191505090505090565b6040518060200160405280600190602082028036833780820191505090505090565b5f5ffd5b5f5ffd5b5f81905082602060080282011115611fed57611fec611fce565b5b92915050565b5f8190508260206005028201111561200e5761200d611fce565b5b92915050565b5f5f6101a0838503121561202b5761202a611fca565b5b5f61203885828601611fd2565b92505061010061204a85828601611ff3565b9150509250929050565b5f610100828403121561206a57612069611fca565b5b5f61207784828501611fd2565b91505092915050565b5f60049050919050565b5f81905092915050565b5f819050919050565b5f819050919050565b6120af8161209d565b82525050565b5f6120c083836120a6565b60208301905092915050565b5f602082019050919050565b6120e181612080565b6120eb818461208a565b92506120f682612094565b805f5b8381101561212657815161210d87826120b5565b9650612118836120cc565b9250506001810190506120f9565b505050505050565b5f6080820190506121415f8301846120d8565b92915050565b5f8190508260206004028201111561216257612161611fce565b5b92915050565b5f5f610120838503121561217f5761217e611fca565b5b5f61218c85828601612147565b925050608061219d85828601611ff3565b9150509250929050565b7f4e487b71000000000000000000000000000000000000000000000000000000005f52603260045260245ffd5b7f4e487b71000000000000000000000000000000000000000000000000000000005f52601260045260245ffd5b7f4e487b71000000000000000000000000000000000000000000000000000000005f52601160045260245ffd5b5f6122388261209d565b91506122438361209d565b925082820390508181111561225b5761225a612201565b5b9291505056fea2646970667358221220d0d80126ff4406763b53dcd33b28d24548e817c1f2b3d95408f79d8fcd75d9ee64736f6c634300081f0033",
					"opcodes": "PUSH1 0x80 PUSH1 0x40 MSTORE CALLVALUE DUP1 ISZERO PUSH1 0xE JUMPI PUSH0 PUSH0 REVERT JUMPDEST POP PUSH2 0x2297 DUP1 PUSH2 0x1C PUSH0 CODECOPY PUSH0 RETURN INVALID PUSH1 0x80 PUSH1 0x40 MSTORE CALLVALUE DUP1 ISZERO PUSH2 0xF JUMPI PUSH0 PUSH0 REVERT JUMPDEST POP PUSH1 0x4 CALLDATASIZE LT PUSH2 0x3F JUMPI PUSH0 CALLDATALOAD PUSH1 0xE0 SHR DUP1 PUSH4 0x2A07D99A EQ PUSH2 0x43 JUMPI DUP1 PUSH4 0x44F63692 EQ PUSH2 0x5F JUMPI DUP1 PUSH4 0xA6708604 EQ PUSH2 0x8F JUMPI JUMPDEST PUSH0 PUSH0 REVERT JUMPDEST PUSH2 0x5D PUSH1 0x4 DUP1 CALLDATASIZE SUB DUP2 ADD SWAP1 PUSH2 0x58 SWAP2 SWAP1 PUSH2 0x2014 JUMP JUMPDEST PUSH2 0xAB JUMP JUMPDEST STOP JUMPDEST PUSH2 0x79 PUSH1 0x4 DUP1 CALLDATASIZE SUB DUP2 ADD SWAP1 PUSH2 0x74 SWAP2 SWAP1 PUSH2 0x2054 JUMP JUMPDEST PUSH2 0x344 JUMP JUMPDEST PUSH1 0x40 MLOAD PUSH2 0x86 SWAP2 SWAP1 PUSH2 0x212E JUMP JUMPDEST PUSH1 0x40 MLOAD DUP1 SWAP2 SUB SWAP1 RETURN JUMPDEST PUSH2 0xA9 PUSH1 0x4 DUP1 CALLDATASIZE SUB DUP2 ADD SWAP1 PUSH2 0xA4 SWAP2 SWAP1 PUSH2 0x2168 JUMP JUMPDEST PUSH2 0x4A3 JUMP JUMPDEST STOP JUMPDEST PUSH0 PUSH0 PUSH2 0xB6 DUP4 PUSH2 0xA5D JUMP JUMPDEST SWAP2 POP SWAP2 POP PUSH0 PUSH1 0x40 MLOAD PUSH2 0x100 DUP7 DUP3 CALLDATACOPY PUSH32 0x102CA580F22BFFBED09641BA183843F2C139A72B177483EC4BCB54500D0C5ADB PUSH2 0x100 DUP3 ADD MSTORE PUSH32 0xAD2AE4511845A6B6E3150E2322ECFFC3F9EB1F5011AF6CD9F2D82944FEEB306 PUSH2 0x120 DUP3 ADD MSTORE PUSH32 0x18A6DD900FB75A47740A8DF4666473C392D2DF4A5B0364D67D23CEB2EF0321F1 PUSH2 0x140 DUP3 ADD MSTORE PUSH32 0x18DB34BE067304D60AA80604283F3B2CD9902FB7562EC08FDBAE4E4C8F9891F PUSH2 0x160 DUP3 ADD MSTORE PUSH32 0x2519A8BC0C6A2C35BD4C9BA88ECD3872F6686784B1DFD3A9B8968121705F492E PUSH2 0x180 DUP3 ADD MSTORE PUSH32 0x84BAC615ACA50781756001A357C1AD40F6362495DD2BBFB8DA9D475C5A7B2D9 PUSH2 0x1A0 DUP3 ADD MSTORE PUSH31 0x24B6D7ABB533CAAEF2CEEC030F3F633B771761753749B3D5496A85699CED5A PUSH2 0x1C0 DUP3 ADD MSTORE PUSH31 0xC3EC19C370E7DBBEC4983CF277D13ED455AE3D30E51E1DCD30810F97C39012 PUSH2 0x1E0 DUP3 ADD MSTORE PUSH32 0x2CE121F6D665A5A4704CA958AE8A6FB0117D7ACEE5FD7F176A28D93BFFEC709 PUSH2 0x200 DUP3 ADD MSTORE PUSH32 0x12EF6B7A7F48C342F20A44B8932BF5E96141588EBA26BEC9DE196CB5FB09995E PUSH2 0x220 DUP3 ADD MSTORE DUP4 PUSH2 0x240 DUP3 ADD MSTORE DUP3 PUSH2 0x260 DUP3 ADD MSTORE PUSH32 0x20E999258061DF56E1972696DD7B46C8F6ECB3196711CABB29B2C681D15AA555 PUSH2 0x280 DUP3 ADD MSTORE PUSH32 0x280ADA90B75034B8854A0C242CF6AE46EE37D31978547BD603EED9D54373A62 PUSH2 0x2A0 DUP3 ADD MSTORE PUSH32 0x14D2332DC46A93446B7809494A1F8AC5E1E803C8EE42E37B94754514CECE6668 PUSH2 0x2C0 DUP3 ADD MSTORE PUSH32 0x19F3613CA821FF43D0074E17C318CCD90357F062831E8EF3BDAD12ECD184D690 PUSH2 0x2E0 DUP3 ADD MSTORE PUSH1 0x20 DUP2 PUSH2 0x300 DUP4 PUSH1 0x8 GAS STATICCALL SWAP2 POP DUP1 MLOAD DUP3 AND SWAP2 POP POP DUP1 PUSH2 0x33D JUMPI PUSH1 0x40 MLOAD PUSH32 0x7FCDD1F400000000000000000000000000000000000000000000000000000000 DUP2 MSTORE PUSH1 0x4 ADD PUSH1 0x40 MLOAD DUP1 SWAP2 SUB SWAP1 REVERT JUMPDEST POP POP POP POP POP JUMP JUMPDEST PUSH2 0x34C PUSH2 0x1F63 JUMP JUMPDEST PUSH2 0x385 DUP3 PUSH0 PUSH1 0x8 DUP2 LT PUSH2 0x362 JUMPI PUSH2 0x361 PUSH2 0x21A7 JUMP JUMPDEST JUMPDEST PUSH1 0x20 MUL ADD CALLDATALOAD DUP4 PUSH1 0x1 PUSH1 0x8 DUP2 LT PUSH2 0x37B JUMPI PUSH2 0x37A PUSH2 0x21A7 JUMP JUMPDEST JUMPDEST PUSH1 0x20 MUL ADD CALLDATALOAD PUSH2 0xD39 JUMP JUMPDEST DUP2 PUSH0 PUSH1 0x4 DUP2 LT PUSH2 0x398 JUMPI PUSH2 0x397 PUSH2 0x21A7 JUMP JUMPDEST JUMPDEST PUSH1 0x20 MUL ADD DUP2 DUP2 MSTORE POP POP PUSH2 0x40D DUP3 PUSH1 0x3 PUSH1 0x8 DUP2 LT PUSH2 0x3B8 JUMPI PUSH2 0x3B7 PUSH2 0x21A7 JUMP JUMPDEST JUMPDEST PUSH1 0x20 MUL ADD CALLDATALOAD DUP4 PUSH1 0x2 PUSH1 0x8 DUP2 LT PUSH2 0x3D1 JUMPI PUSH2 0x3D0 PUSH2 0x21A7 JUMP JUMPDEST JUMPDEST PUSH1 0x20 MUL ADD CALLDATALOAD DUP5 PUSH1 0x5 PUSH1 0x8 DUP2 LT PUSH2 0x3EA JUMPI PUSH2 0x3E9 PUSH2 0x21A7 JUMP JUMPDEST JUMPDEST PUSH1 0x20 MUL ADD CALLDATALOAD DUP6 PUSH1 0x4 PUSH1 0x8 DUP2 LT PUSH2 0x403 JUMPI PUSH2 0x402 PUSH2 0x21A7 JUMP JUMPDEST JUMPDEST PUSH1 0x20 MUL ADD CALLDATALOAD PUSH2 0xEE7 JUMP JUMPDEST DUP3 PUSH1 0x2 PUSH1 0x4 DUP2 LT PUSH2 0x421 JUMPI PUSH2 0x420 PUSH2 0x21A7 JUMP JUMPDEST JUMPDEST PUSH1 0x20 MUL ADD DUP4 PUSH1 0x1 PUSH1 0x4 DUP2 LT PUSH2 0x439 JUMPI PUSH2 0x438 PUSH2 0x21A7 JUMP JUMPDEST JUMPDEST PUSH1 0x20 MUL ADD DUP3 DUP2 MSTORE POP DUP3 DUP2 MSTORE POP POP POP PUSH2 0x481 DUP3 PUSH1 0x6 PUSH1 0x8 DUP2 LT PUSH2 0x45E JUMPI PUSH2 0x45D PUSH2 0x21A7 JUMP JUMPDEST JUMPDEST PUSH1 0x20 MUL ADD CALLDATALOAD DUP4 PUSH1 0x7 PUSH1 0x8 DUP2 LT PUSH2 0x477 JUMPI PUSH2 0x476 PUSH2 0x21A7 JUMP JUMPDEST JUMPDEST PUSH1 0x20 MUL ADD CALLDATALOAD PUSH2 0xD39 JUMP JUMPDEST DUP2 PUSH1 0x3 PUSH1 0x4 DUP2 LT PUSH2 0x495 JUMPI PUSH2 0x494 PUSH2 0x21A7 JUMP JUMPDEST JUMPDEST PUSH1 0x20 MUL ADD DUP2 DUP2 MSTORE POP POP SWAP2 SWAP1 POP JUMP JUMPDEST PUSH2 0x4AB PUSH2 0x1F85 JUMP JUMPDEST PUSH0 PUSH0 PUSH2 0x4CD DUP6 PUSH0 PUSH1 0x4 DUP2 LT PUSH2 0x4C3 JUMPI PUSH2 0x4C2 PUSH2 0x21A7 JUMP JUMPDEST JUMPDEST PUSH1 0x20 MUL ADD CALLDATALOAD PUSH2 0x14B3 JUMP JUMPDEST SWAP2 POP SWAP2 POP PUSH0 PUSH0 PUSH0 PUSH0 PUSH2 0x50F DUP10 PUSH1 0x2 PUSH1 0x4 DUP2 LT PUSH2 0x4EC JUMPI PUSH2 0x4EB PUSH2 0x21A7 JUMP JUMPDEST JUMPDEST PUSH1 0x20 MUL ADD CALLDATALOAD DUP11 PUSH1 0x1 PUSH1 0x4 DUP2 LT PUSH2 0x505 JUMPI PUSH2 0x504 PUSH2 0x21A7 JUMP JUMPDEST JUMPDEST PUSH1 0x20 MUL ADD CALLDATALOAD PUSH2 0x15E8 JUMP JUMPDEST SWAP4 POP SWAP4 POP SWAP4 POP SWAP4 POP PUSH0 PUSH0 PUSH2 0x53A DUP12 PUSH1 0x3 PUSH1 0x4 DUP2 LT PUSH2 0x530 JUMPI PUSH2 0x52F PUSH2 0x21A7 JUMP JUMPDEST JUMPDEST PUSH1 0x20 MUL ADD CALLDATALOAD PUSH2 0x14B3 JUMP JUMPDEST SWAP2 POP SWAP2 POP PUSH0 PUSH0 PUSH2 0x549 DUP13 PUSH2 0xA5D JUMP JUMPDEST SWAP2 POP SWAP2 POP DUP10 DUP12 PUSH0 PUSH1 0x18 DUP2 LT PUSH2 0x561 JUMPI PUSH2 0x560 PUSH2 0x21A7 JUMP JUMPDEST JUMPDEST PUSH1 0x20 MUL ADD DUP2 DUP2 MSTORE POP POP DUP9 DUP12 PUSH1 0x1 PUSH1 0x18 DUP2 LT PUSH2 0x57F JUMPI PUSH2 0x57E PUSH2 0x21A7 JUMP JUMPDEST JUMPDEST PUSH1 0x20 MUL ADD DUP2 DUP2 MSTORE POP POP DUP7 DUP12 PUSH1 0x2 PUSH1 0x18 DUP2 LT PUSH2 0x59D JUMPI PUSH2 0x59C PUSH2 0x21A7 JUMP JUMPDEST JUMPDEST PUSH1 0x20 MUL ADD DUP2 DUP2 MSTORE POP POP DUP8 DUP12 PUSH1 0x3 PUSH1 0x18 DUP2 LT PUSH2 0x5BB JUMPI PUSH2 0x5BA PUSH2 0x21A7 JUMP JUMPDEST JUMPDEST PUSH1 0x20 MUL ADD DUP2 DUP2 MSTORE POP POP DUP5 DUP12 PUSH1 0x4 PUSH1 0x18 DUP2 LT PUSH2 0x5D9 JUMPI PUSH2 0x5D8 PUSH2 0x21A7 JUMP JUMPDEST JUMPDEST PUSH1 0x20 MUL ADD DUP2 DUP2 MSTORE POP POP DUP6 DUP12 PUSH1 0x5 PUSH1 0x18 DUP2 LT PUSH2 0x5F7 JUMPI PUSH2 0x5F6 PUSH2 0x21A7 JUMP JUMPDEST JUMPDEST PUSH1 0x20 MUL ADD DUP2 DUP2 MSTORE POP POP DUP4 DUP12 PUSH1 0x6 PUSH1 0x18 DUP2 LT PUSH2 0x615 JUMPI PUSH2 0x614 PUSH2 0x21A7 JUMP JUMPDEST JUMPDEST PUSH1 0x20 MUL ADD DUP2 DUP2 MSTORE POP POP DUP3 DUP12 PUSH1 0x7 PUSH1 0x18 DUP2 LT PUSH2 0x633 JUMPI PUSH2 0x632 PUSH2 0x21A7 JUMP JUMPDEST JUMPDEST PUSH1 0x20 MUL ADD DUP2 DUP2 MSTORE POP POP PUSH32 0x102CA580F22BFFBED09641BA183843F2C139A72B177483EC4BCB54500D0C5ADB DUP12 PUSH1 0x8 PUSH1 0x18 DUP2 LT PUSH2 0x671 JUMPI PUSH2 0x670 PUSH2 0x21A7 JUMP JUMPDEST JUMPDEST PUSH1 0x20 MUL ADD DUP2 DUP2 MSTORE POP POP PUSH32 0xAD2AE4511845A6B6E3150E2322ECFFC3F9EB1F5011AF6CD9F2D82944FEEB306 DUP12 PUSH1 0x9 PUSH1 0x18 DUP2 LT PUSH2 0x6AF JUMPI PUSH2 0x6AE PUSH2 0x21A7 JUMP JUMPDEST JUMPDEST PUSH1 0x20 MUL ADD DUP2 DUP2 MSTORE POP POP PUSH32 0x18A6DD900FB75A47740A8DF4666473C392D2DF4A5B0364D67D23CEB2EF0321F1 DUP12 PUSH1 0xA PUSH1 0x18 DUP2 LT PUSH2 0x6ED JUMPI PUSH2 0x6EC PUSH2 0x21A7 JUMP JUMPDEST JUMPDEST PUSH1 0x20 MUL ADD DUP2 DUP2 MSTORE POP POP PUSH32 0x18DB34BE067304D60AA80604283F3B2CD9902FB7562EC08FDBAE4E4C8F9891F DUP12 PUSH1 0xB PUSH1 0x18 DUP2 LT PUSH2 0x72B JUMPI PUSH2 0x72A PUSH2 0x21A7 JUMP JUMPDEST JUMPDEST PUSH1 0x20 MUL ADD DUP2 DUP2 MSTORE POP POP PUSH32 0x2519A8BC0C6A2C35BD4C9BA88ECD3872F6686784B1DFD3A9B8968121705F492E DUP12 PUSH1 0xC PUSH1 0x18 DUP2 LT PUSH2 0x769 JUMPI PUSH2 0x768 PUSH2 0x21A7 JUMP JUMPDEST JUMPDEST PUSH1 0x20 MUL ADD DUP2 DUP2 MSTORE POP POP PUSH32 0x84BAC615ACA50781756001A357C1AD40F6362495DD2BBFB8DA9D475C5A7B2D9 DUP12 PUSH1 0xD PUSH1 0x18 DUP2 LT PUSH2 0x7A7 JUMPI PUSH2 0x7A6 PUSH2 0x21A7 JUMP JUMPDEST JUMPDEST PUSH1 0x20 MUL ADD DUP2 DUP2 MSTORE POP POP PUSH31 0x24B6D7ABB533CAAEF2CEEC030F3F633B771761753749B3D5496A85699CED5A DUP12 PUSH1 0xE PUSH1 0x18 DUP2 LT PUSH2 0x7E4 JUMPI PUSH2 0x7E3 PUSH2 0x21A7 JUMP JUMPDEST JUMPDEST PUSH1 0x20 MUL ADD DUP2 DUP2 MSTORE POP POP PUSH31 0xC3EC19C370E7DBBEC4983CF277D13ED455AE3D30E51E1DCD30810F97C39012 DUP12 PUSH1 0xF PUSH1 0x18 DUP2 LT PUSH2 0x821 JUMPI PUSH2 0x820 PUSH2 0x21A7 JUMP JUMPDEST JUMPDEST PUSH1 0x20 MUL ADD DUP2 DUP2 MSTORE POP POP PUSH32 0x2CE121F6D665A5A4704CA958AE8A6FB0117D7ACEE5FD7F176A28D93BFFEC709 DUP12 PUSH1 0x10 PUSH1 0x18 DUP2 LT PUSH2 0x85F JUMPI PUSH2 0x85E PUSH2 0x21A7 JUMP JUMPDEST JUMPDEST PUSH1 0x20 MUL ADD DUP2 DUP2 MSTORE POP POP PUSH32 0x12EF6B7A7F48C342F20A44B8932BF5E96141588EBA26BEC9DE196CB5FB09995E DUP12 PUSH1 0x11 PUSH1 0x18 DUP2 LT PUSH2 0x89D JUMPI PUSH2 0x89C PUSH2 0x21A7 JUMP JUMPDEST JUMPDEST PUSH1 0x20 MUL ADD DUP2 DUP2 MSTORE POP POP DUP2 DUP12 PUSH1 0x12 PUSH1 0x18 DUP2 LT PUSH2 0x8BB JUMPI PUSH2 0x8BA PUSH2 0x21A7 JUMP JUMPDEST JUMPDEST PUSH1 0x20 MUL ADD DUP2 DUP2 MSTORE POP POP DUP1 DUP12 PUSH1 0x13 PUSH1 0x18 DUP2 LT PUSH2 0x8D9 JUMPI PUSH2 0x8D8 PUSH2 0x21A7 JUMP JUMPDEST JUMPDEST PUSH1 0x20 MUL ADD DUP2 DUP2 MSTORE POP POP PUSH32 0x20E999258061DF56E1972696DD7B46C8F6ECB3196711CABB29B2C681D15AA555 DUP12 PUSH1 0x14 PUSH1 0x18 DUP2 LT PUSH2 0x917 JUMPI PUSH2 0x916 PUSH2 0x21A7 JUMP JUMPDEST JUMPDEST PUSH1 0x20 MUL ADD DUP2 DUP2 MSTORE POP POP PUSH32 0x280ADA90B75034B8854A0C242CF6AE46EE37D31978547BD603EED9D54373A62 DUP12 PUSH1 0x15 PUSH1 0x18 DUP2 LT PUSH2 0x955 JUMPI PUSH2 0x954 PUSH2 0x21A7 JUMP JUMPDEST JUMPDEST PUSH1 0x20 MUL ADD DUP2 DUP2 MSTORE POP POP PUSH32 0x14D2332DC46A93446B7809494A1F8AC5E1E803C8EE42E37B94754514CECE6668 DUP12 PUSH1 0x16 PUSH1 0x18 DUP2 LT PUSH2 0x993 JUMPI PUSH2 0x992 PUSH2 0x21A7 JUMP JUMPDEST JUMPDEST PUSH1 0x20 MUL ADD DUP2 DUP2 MSTORE POP POP PUSH32 0x19F3613CA821FF43D0074E17C318CCD90357F062831E8EF3BDAD12ECD184D690 DUP12 PUSH1 0x17 PUSH1 0x18 DUP2 LT PUSH2 0x9D1 JUMPI PUSH2 0x9D0 PUSH2 0x21A7 JUMP JUMPDEST JUMPDEST PUSH1 0x20 MUL ADD DUP2 DUP2 MSTORE POP POP PUSH0 PUSH2 0x9E3 PUSH2 0x1FA8 JUMP JUMPDEST PUSH1 0x20 DUP2 PUSH2 0x300 DUP16 PUSH1 0x8 GAS STATICCALL SWAP2 POP DUP2 ISZERO DUP1 PUSH2 0xA15 JUMPI POP PUSH1 0x1 DUP2 PUSH0 PUSH1 0x1 DUP2 LT PUSH2 0xA0D JUMPI PUSH2 0xA0C PUSH2 0x21A7 JUMP JUMPDEST JUMPDEST PUSH1 0x20 MUL ADD MLOAD EQ ISZERO JUMPDEST ISZERO PUSH2 0xA4C JUMPI PUSH1 0x40 MLOAD PUSH32 0x7FCDD1F400000000000000000000000000000000000000000000000000000000 DUP2 MSTORE PUSH1 0x4 ADD PUSH1 0x40 MLOAD DUP1 SWAP2 SUB SWAP1 REVERT JUMPDEST POP POP POP POP POP POP POP POP POP POP POP POP POP POP POP JUMP JUMPDEST PUSH0 PUSH0 PUSH0 PUSH1 0x1 SWAP1 POP PUSH1 0x40 MLOAD PUSH1 0x40 DUP2 ADD PUSH0 PUSH32 0x100EC70909E76B760E4A2DA55404A928D23325897B7F5E785F37FD17369A6182 DUP4 MSTORE PUSH32 0x1D70D5725D474E8669B1D728A1355F2FD10FF710D688324B044DBD414649EDF0 PUSH1 0x20 DUP5 ADD MSTORE PUSH32 0x9BBE690624BDA4E589565E110DF9FC66E9E062B4B505CBA41A4A6C9C568E9CF DUP3 MSTORE PUSH31 0x3C7C6C9B745F7AF6D227B58120ECB6C880EA2E110E6C24E8D7A6ED4F9C115B PUSH1 0x20 DUP4 ADD MSTORE DUP7 CALLDATALOAD SWAP1 POP DUP1 PUSH1 0x40 DUP4 ADD MSTORE PUSH32 0x30644E72E131A029B85045B68181585D2833E84879B9709143E1F593F0000001 DUP2 LT DUP5 AND SWAP4 POP PUSH1 0x40 DUP3 PUSH1 0x60 DUP5 PUSH1 0x7 GAS STATICCALL DUP5 AND SWAP4 POP PUSH1 0x40 DUP4 PUSH1 0x80 DUP6 PUSH1 0x6 GAS STATICCALL DUP5 AND SWAP4 POP PUSH0 DUP3 MSTORE PUSH0 PUSH1 0x20 DUP4 ADD MSTORE PUSH1 0x20 DUP8 ADD CALLDATALOAD SWAP1 POP DUP1 PUSH1 0x40 DUP4 ADD MSTORE PUSH32 0x30644E72E131A029B85045B68181585D2833E84879B9709143E1F593F0000001 DUP2 LT DUP5 AND SWAP4 POP PUSH1 0x40 DUP3 PUSH1 0x60 DUP5 PUSH1 0x7 GAS STATICCALL DUP5 AND SWAP4 POP PUSH1 0x40 DUP4 PUSH1 0x80 DUP6 PUSH1 0x6 GAS STATICCALL DUP5 AND SWAP4 POP PUSH0 DUP3 MSTORE PUSH0 PUSH1 0x20 DUP4 ADD MSTORE PUSH1 0x40 DUP8 ADD CALLDATALOAD SWAP1 POP DUP1 PUSH1 0x40 DUP4 ADD MSTORE PUSH32 0x30644E72E131A029B85045B68181585D2833E84879B9709143E1F593F0000001 DUP2 LT DUP5 AND SWAP4 POP PUSH1 0x40 DUP3 PUSH1 0x60 DUP5 PUSH1 0x7 GAS STATICCALL DUP5 AND SWAP4 POP PUSH1 0x40 DUP4 PUSH1 0x80 DUP6 PUSH1 0x6 GAS STATICCALL DUP5 AND SWAP4 POP PUSH0 DUP3 MSTORE PUSH0 PUSH1 0x20 DUP4 ADD MSTORE PUSH1 0x60 DUP8 ADD CALLDATALOAD SWAP1 POP DUP1 PUSH1 0x40 DUP4 ADD MSTORE PUSH32 0x30644E72E131A029B85045B68181585D2833E84879B9709143E1F593F0000001 DUP2 LT DUP5 AND SWAP4 POP PUSH1 0x40 DUP3 PUSH1 0x60 DUP5 PUSH1 0x7 GAS STATICCALL DUP5 AND SWAP4 POP PUSH1 0x40 DUP4 PUSH1 0x80 DUP6 PUSH1 0x6 GAS STATICCALL DUP5 AND SWAP4 POP PUSH32 0x267E506B82B8F7202B396A880BB15D9B92EEB9B14E7ED57698CACEA43CD41E2B DUP3 MSTORE PUSH32 0x11E5745DC5596ED8B11E66E66A4A28C74AD0210785D8768350BFD54416147C9 PUSH1 0x20 DUP4 ADD MSTORE PUSH1 0x80 DUP8 ADD CALLDATALOAD SWAP1 POP DUP1 PUSH1 0x40 DUP4 ADD MSTORE PUSH32 0x30644E72E131A029B85045B68181585D2833E84879B9709143E1F593F0000001 DUP2 LT DUP5 AND SWAP4 POP PUSH1 0x40 DUP3 PUSH1 0x60 DUP5 PUSH1 0x7 GAS STATICCALL DUP5 AND SWAP4 POP PUSH1 0x40 DUP4 PUSH1 0x80 DUP6 PUSH1 0x6 GAS STATICCALL DUP5 AND SWAP4 POP DUP3 MLOAD SWAP6 POP PUSH1 0x20 DUP4 ADD MLOAD SWAP5 POP POP POP POP DUP1 PUSH2 0xD33 JUMPI PUSH1 0x40 MLOAD PUSH32 0xA54F8E2700000000000000000000000000000000000000000000000000000000 DUP2 MSTORE PUSH1 0x4 ADD PUSH1 0x40 MLOAD DUP1 SWAP2 SUB SWAP1 REVERT JUMPDEST POP SWAP2 POP SWAP2 JUMP JUMPDEST PUSH0 PUSH32 0x30644E72E131A029B85045B68181585D97816A916871CA8D3C208C16D87CFD47 DUP4 LT ISZERO DUP1 PUSH2 0xD89 JUMPI POP PUSH32 0x30644E72E131A029B85045B68181585D97816A916871CA8D3C208C16D87CFD47 DUP3 LT ISZERO JUMPDEST ISZERO PUSH2 0xDC0 JUMPI PUSH1 0x40 MLOAD PUSH32 0x7FCDD1F400000000000000000000000000000000000000000000000000000000 DUP2 MSTORE PUSH1 0x4 ADD PUSH1 0x40 MLOAD DUP1 SWAP2 SUB SWAP1 REVERT JUMPDEST PUSH0 DUP4 EQ DUP1 ISZERO PUSH2 0xDCE JUMPI POP PUSH0 DUP3 EQ JUMPDEST ISZERO PUSH2 0xDDB JUMPI PUSH0 SWAP1 POP PUSH2 0xEE1 JUMP JUMPDEST PUSH0 PUSH2 0xE79 PUSH32 0x30644E72E131A029B85045B68181585D97816A916871CA8D3C208C16D87CFD47 DUP1 PUSH2 0xE0E JUMPI PUSH2 0xE0D PUSH2 0x21D4 JUMP JUMPDEST JUMPDEST PUSH1 0x3 PUSH32 0x30644E72E131A029B85045B68181585D97816A916871CA8D3C208C16D87CFD47 DUP1 PUSH2 0xE3F JUMPI PUSH2 0xE3E PUSH2 0x21D4 JUMP JUMPDEST JUMPDEST DUP8 PUSH32 0x30644E72E131A029B85045B68181585D97816A916871CA8D3C208C16D87CFD47 DUP1 PUSH2 0xE6F JUMPI PUSH2 0xE6E PUSH2 0x21D4 JUMP JUMPDEST JUMPDEST DUP10 DUP11 MULMOD MULMOD ADDMOD PUSH2 0x19C3 JUMP JUMPDEST SWAP1 POP DUP1 DUP4 SUB PUSH2 0xE91 JUMPI PUSH0 PUSH1 0x1 DUP6 SWAP1 SHL OR SWAP2 POP POP PUSH2 0xEE1 JUMP JUMPDEST PUSH2 0xE9A DUP2 PUSH2 0x1A5F JUMP JUMPDEST DUP4 SUB PUSH2 0xEAF JUMPI PUSH1 0x1 DUP1 DUP6 SWAP1 SHL OR SWAP2 POP POP PUSH2 0xEE1 JUMP JUMPDEST PUSH1 0x40 MLOAD PUSH32 0x7FCDD1F400000000000000000000000000000000000000000000000000000000 DUP2 MSTORE PUSH1 0x4 ADD PUSH1 0x40 MLOAD DUP1 SWAP2 SUB SWAP1 REVERT JUMPDEST SWAP3 SWAP2 POP POP JUMP JUMPDEST PUSH0 PUSH0 PUSH32 0x30644E72E131A029B85045B68181585D97816A916871CA8D3C208C16D87CFD47 DUP7 LT ISZERO DUP1 PUSH2 0xF38 JUMPI POP PUSH32 0x30644E72E131A029B85045B68181585D97816A916871CA8D3C208C16D87CFD47 DUP6 LT ISZERO JUMPDEST DUP1 PUSH2 0xF63 JUMPI POP PUSH32 0x30644E72E131A029B85045B68181585D97816A916871CA8D3C208C16D87CFD47 DUP5 LT ISZERO JUMPDEST DUP1 PUSH2 0xF8E JUMPI POP PUSH32 0x30644E72E131A029B85045B68181585D97816A916871CA8D3C208C16D87CFD47 DUP4 LT ISZERO JUMPDEST ISZERO PUSH2 0xFC5 JUMPI PUSH1 0x40 MLOAD PUSH32 0x7FCDD1F400000000000000000000000000000000000000000000000000000000 DUP2 MSTORE PUSH1 0x4 ADD PUSH1 0x40 MLOAD DUP1 SWAP2 SUB SWAP1 REVERT JUMPDEST PUSH0 DUP4 DUP6 DUP8 DUP10 OR OR OR SUB PUSH2 0xFDD JUMPI PUSH0 PUSH0 SWAP2 POP SWAP2 POP PUSH2 0x14AA JUMP JUMPDEST PUSH0 PUSH0 PUSH0 PUSH32 0x30644E72E131A029B85045B68181585D97816A916871CA8D3C208C16D87CFD47 DUP1 PUSH2 0x100F JUMPI PUSH2 0x100E PUSH2 0x21D4 JUMP JUMPDEST JUMPDEST PUSH1 0x3 PUSH32 0x30644E72E131A029B85045B68181585D97816A916871CA8D3C208C16D87CFD47 PUSH2 0x103C SWAP2 SWAP1 PUSH2 0x222E JUMP JUMPDEST PUSH32 0x30644E72E131A029B85045B68181585D97816A916871CA8D3C208C16D87CFD47 DUP1 PUSH2 0x106B JUMPI PUSH2 0x106A PUSH2 0x21D4 JUMP JUMPDEST JUMPDEST DUP11 DUP13 MULMOD MULMOD SWAP1 POP PUSH0 PUSH32 0x30644E72E131A029B85045B68181585D97816A916871CA8D3C208C16D87CFD47 DUP1 PUSH2 0x10A1 JUMPI PUSH2 0x10A0 PUSH2 0x21D4 JUMP JUMPDEST JUMPDEST DUP11 PUSH32 0x30644E72E131A029B85045B68181585D97816A916871CA8D3C208C16D87CFD47 DUP1 PUSH2 0x10D1 JUMPI PUSH2 0x10D0 PUSH2 0x21D4 JUMP JUMPDEST JUMPDEST DUP13 DUP14 MULMOD MULMOD SWAP1 POP PUSH0 PUSH32 0x30644E72E131A029B85045B68181585D97816A916871CA8D3C208C16D87CFD47 DUP1 PUSH2 0x1107 JUMPI PUSH2 0x1106 PUSH2 0x21D4 JUMP JUMPDEST JUMPDEST DUP11 PUSH32 0x30644E72E131A029B85045B68181585D97816A916871CA8D3C208C16D87CFD47 DUP1 PUSH2 0x1137 JUMPI PUSH2 0x1136 PUSH2 0x21D4 JUMP JUMPDEST JUMPDEST DUP13 DUP14 MULMOD MULMOD SWAP1 POP PUSH32 0x30644E72E131A029B85045B68181585D97816A916871CA8D3C208C16D87CFD47 DUP1 PUSH2 0x116C JUMPI PUSH2 0x116B PUSH2 0x21D4 JUMP JUMPDEST JUMPDEST PUSH32 0x30644E72E131A029B85045B68181585D97816A916871CA8D3C208C16D87CFD47 DUP1 PUSH2 0x119B JUMPI PUSH2 0x119A PUSH2 0x21D4 JUMP JUMPDEST JUMPDEST PUSH32 0x30644E72E131A029B85045B68181585D97816A916871CA8D3C208C16D87CFD47 DUP1 PUSH2 0x11CA JUMPI PUSH2 0x11C9 PUSH2 0x21D4 JUMP JUMPDEST JUMPDEST DUP13 DUP7 MULMOD DUP5 ADDMOD PUSH32 0x2B149D40CEB8AAAE81BE18991BE06AC3B5B4C5E559DBEFA33267E6DC24A138E5 ADDMOD SWAP5 POP PUSH2 0x12AF PUSH32 0x30644E72E131A029B85045B68181585D97816A916871CA8D3C208C16D87CFD47 DUP1 PUSH2 0x1225 JUMPI PUSH2 0x1224 PUSH2 0x21D4 JUMP JUMPDEST JUMPDEST PUSH32 0x30644E72E131A029B85045B68181585D97816A916871CA8D3C208C16D87CFD47 DUP1 PUSH2 0x1254 JUMPI PUSH2 0x1253 PUSH2 0x21D4 JUMP JUMPDEST JUMPDEST PUSH32 0x30644E72E131A029B85045B68181585D97816A916871CA8D3C208C16D87CFD47 DUP1 PUSH2 0x1283 JUMPI PUSH2 0x1282 PUSH2 0x21D4 JUMP JUMPDEST JUMPDEST DUP15 DUP8 MULMOD DUP5 ADDMOD PUSH32 0x2FCD3AC2A640A154EB23960892A85A68F031CA0C8344B23A577DCF1052B9E775 ADDMOD PUSH2 0x1A5F JUMP JUMPDEST SWAP4 POP POP POP POP PUSH0 PUSH0 PUSH2 0x1352 PUSH32 0x30644E72E131A029B85045B68181585D97816A916871CA8D3C208C16D87CFD47 DUP1 PUSH2 0x12E8 JUMPI PUSH2 0x12E7 PUSH2 0x21D4 JUMP JUMPDEST JUMPDEST PUSH32 0x30644E72E131A029B85045B68181585D97816A916871CA8D3C208C16D87CFD47 DUP1 PUSH2 0x1317 JUMPI PUSH2 0x1316 PUSH2 0x21D4 JUMP JUMPDEST JUMPDEST DUP6 DUP7 MULMOD PUSH32 0x30644E72E131A029B85045B68181585D97816A916871CA8D3C208C16D87CFD47 DUP1 PUSH2 0x1349 JUMPI PUSH2 0x1348 PUSH2 0x21D4 JUMP JUMPDEST JUMPDEST DUP8 DUP9 MULMOD ADDMOD PUSH2 0x19C3 JUMP JUMPDEST SWAP1 POP PUSH2 0x13DF PUSH32 0x30644E72E131A029B85045B68181585D97816A916871CA8D3C208C16D87CFD47 DUP1 PUSH2 0x1386 JUMPI PUSH2 0x1385 PUSH2 0x21D4 JUMP JUMPDEST JUMPDEST PUSH32 0x183227397098D014DC2822DB40C0AC2ECBC0B548B438E5469E10460B6C3E7EA4 PUSH32 0x30644E72E131A029B85045B68181585D97816A916871CA8D3C208C16D87CFD47 DUP1 PUSH2 0x13D6 JUMPI PUSH2 0x13D5 PUSH2 0x21D4 JUMP JUMPDEST JUMPDEST DUP5 DUP9 ADDMOD MULMOD PUSH2 0x1ACA JUMP JUMPDEST ISZERO SWAP2 POP POP PUSH2 0x13EE DUP4 DUP4 DUP4 PUSH2 0x1B34 JUMP JUMPDEST DUP1 SWAP4 POP DUP2 SWAP5 POP POP POP DUP3 DUP8 EQ DUP1 ISZERO PUSH2 0x1404 JUMPI POP DUP2 DUP7 EQ JUMPDEST ISZERO PUSH2 0x142C JUMPI PUSH0 DUP2 PUSH2 0x1415 JUMPI PUSH0 PUSH2 0x1418 JUMP JUMPDEST PUSH1 0x2 JUMPDEST PUSH1 0xFF AND PUSH1 0x2 DUP12 SWAP1 SHL OR OR SWAP5 POP DUP8 SWAP4 POP PUSH2 0x14A6 JUMP JUMPDEST PUSH2 0x1435 DUP4 PUSH2 0x1A5F JUMP JUMPDEST DUP8 EQ DUP1 ISZERO PUSH2 0x144A JUMPI POP PUSH2 0x1447 DUP3 PUSH2 0x1A5F JUMP JUMPDEST DUP7 EQ JUMPDEST ISZERO PUSH2 0x1473 JUMPI PUSH1 0x1 DUP2 PUSH2 0x145C JUMPI PUSH0 PUSH2 0x145F JUMP JUMPDEST PUSH1 0x2 JUMPDEST PUSH1 0xFF AND PUSH1 0x2 DUP12 SWAP1 SHL OR OR SWAP5 POP DUP8 SWAP4 POP PUSH2 0x14A5 JUMP JUMPDEST PUSH1 0x40 MLOAD PUSH32 0x7FCDD1F400000000000000000000000000000000000000000000000000000000 DUP2 MSTORE PUSH1 0x4 ADD PUSH1 0x40 MLOAD DUP1 SWAP2 SUB SWAP1 REVERT JUMPDEST JUMPDEST POP POP POP JUMPDEST SWAP5 POP SWAP5 SWAP3 POP POP POP JUMP JUMPDEST PUSH0 PUSH0 PUSH0 DUP4 SUB PUSH2 0x14C7 JUMPI PUSH0 PUSH0 SWAP2 POP SWAP2 POP PUSH2 0x15E3 JUMP JUMPDEST PUSH0 PUSH1 0x1 DUP1 DUP6 AND EQ SWAP1 POP PUSH1 0x1 DUP5 SWAP1 SHR SWAP3 POP PUSH32 0x30644E72E131A029B85045B68181585D97816A916871CA8D3C208C16D87CFD47 DUP4 LT PUSH2 0x1530 JUMPI PUSH1 0x40 MLOAD PUSH32 0x7FCDD1F400000000000000000000000000000000000000000000000000000000 DUP2 MSTORE PUSH1 0x4 ADD PUSH1 0x40 MLOAD DUP1 SWAP2 SUB SWAP1 REVERT JUMPDEST PUSH2 0x15CD PUSH32 0x30644E72E131A029B85045B68181585D97816A916871CA8D3C208C16D87CFD47 DUP1 PUSH2 0x1562 JUMPI PUSH2 0x1561 PUSH2 0x21D4 JUMP JUMPDEST JUMPDEST PUSH1 0x3 PUSH32 0x30644E72E131A029B85045B68181585D97816A916871CA8D3C208C16D87CFD47 DUP1 PUSH2 0x1593 JUMPI PUSH2 0x1592 PUSH2 0x21D4 JUMP JUMPDEST JUMPDEST DUP7 PUSH32 0x30644E72E131A029B85045B68181585D97816A916871CA8D3C208C16D87CFD47 DUP1 PUSH2 0x15C3 JUMPI PUSH2 0x15C2 PUSH2 0x21D4 JUMP JUMPDEST JUMPDEST DUP9 DUP10 MULMOD MULMOD ADDMOD PUSH2 0x19C3 JUMP JUMPDEST SWAP2 POP DUP1 ISZERO PUSH2 0x15E1 JUMPI PUSH2 0x15DE DUP3 PUSH2 0x1A5F JUMP JUMPDEST SWAP2 POP JUMPDEST POP JUMPDEST SWAP2 POP SWAP2 JUMP JUMPDEST PUSH0 PUSH0 PUSH0 PUSH0 PUSH0 DUP7 EQ DUP1 ISZERO PUSH2 0x15FA JUMPI POP PUSH0 DUP6 EQ JUMPDEST ISZERO PUSH2 0x1610 JUMPI PUSH0 PUSH0 PUSH0 PUSH0 SWAP4 POP SWAP4 POP SWAP4 POP SWAP4 POP PUSH2 0x19BA JUMP JUMPDEST PUSH0 PUSH1 0x1 DUP1 DUP9 AND EQ SWAP1 POP PUSH0 PUSH1 0x2 DUP1 DUP10 AND EQ SWAP1 POP PUSH1 0x2 DUP9 SWAP1 SHR SWAP6 POP DUP7 SWAP5 POP PUSH32 0x30644E72E131A029B85045B68181585D97816A916871CA8D3C208C16D87CFD47 DUP7 LT ISZERO DUP1 PUSH2 0x167B JUMPI POP PUSH32 0x30644E72E131A029B85045B68181585D97816A916871CA8D3C208C16D87CFD47 DUP6 LT ISZERO JUMPDEST ISZERO PUSH2 0x16B2 JUMPI PUSH1 0x40 MLOAD PUSH32 0x7FCDD1F400000000000000000000000000000000000000000000000000000000 DUP2 MSTORE PUSH1 0x4 ADD PUSH1 0x40 MLOAD DUP1 SWAP2 SUB SWAP1 REVERT JUMPDEST PUSH0 PUSH32 0x30644E72E131A029B85045B68181585D97816A916871CA8D3C208C16D87CFD47 DUP1 PUSH2 0x16E2 JUMPI PUSH2 0x16E1 PUSH2 0x21D4 JUMP JUMPDEST JUMPDEST PUSH1 0x3 PUSH32 0x30644E72E131A029B85045B68181585D97816A916871CA8D3C208C16D87CFD47 PUSH2 0x170F SWAP2 SWAP1 PUSH2 0x222E JUMP JUMPDEST PUSH32 0x30644E72E131A029B85045B68181585D97816A916871CA8D3C208C16D87CFD47 DUP1 PUSH2 0x173E JUMPI PUSH2 0x173D PUSH2 0x21D4 JUMP JUMPDEST JUMPDEST DUP9 DUP11 MULMOD MULMOD SWAP1 POP PUSH0 PUSH32 0x30644E72E131A029B85045B68181585D97816A916871CA8D3C208C16D87CFD47 DUP1 PUSH2 0x1774 JUMPI PUSH2 0x1773 PUSH2 0x21D4 JUMP JUMPDEST JUMPDEST DUP9 PUSH32 0x30644E72E131A029B85045B68181585D97816A916871CA8D3C208C16D87CFD47 DUP1 PUSH2 0x17A4 JUMPI PUSH2 0x17A3 PUSH2 0x21D4 JUMP JUMPDEST JUMPDEST DUP11 DUP12 MULMOD MULMOD SWAP1 POP PUSH0 PUSH32 0x30644E72E131A029B85045B68181585D97816A916871CA8D3C208C16D87CFD47 DUP1 PUSH2 0x17DA JUMPI PUSH2 0x17D9 PUSH2 0x21D4 JUMP JUMPDEST JUMPDEST DUP9 PUSH32 0x30644E72E131A029B85045B68181585D97816A916871CA8D3C208C16D87CFD47 DUP1 PUSH2 0x180A JUMPI PUSH2 0x1809 PUSH2 0x21D4 JUMP JUMPDEST JUMPDEST DUP11 DUP12 MULMOD MULMOD SWAP1 POP PUSH32 0x30644E72E131A029B85045B68181585D97816A916871CA8D3C208C16D87CFD47 DUP1 PUSH2 0x183F JUMPI PUSH2 0x183E PUSH2 0x21D4 JUMP JUMPDEST JUMPDEST PUSH32 0x30644E72E131A029B85045B68181585D97816A916871CA8D3C208C16D87CFD47 DUP1 PUSH2 0x186E JUMPI PUSH2 0x186D PUSH2 0x21D4 JUMP JUMPDEST JUMPDEST PUSH32 0x30644E72E131A029B85045B68181585D97816A916871CA8D3C208C16D87CFD47 DUP1 PUSH2 0x189D JUMPI PUSH2 0x189C PUSH2 0x21D4 JUMP JUMPDEST JUMPDEST DUP11 DUP7 MULMOD DUP5 ADDMOD PUSH32 0x2B149D40CEB8AAAE81BE18991BE06AC3B5B4C5E559DBEFA33267E6DC24A138E5 ADDMOD SWAP7 POP PUSH2 0x1982 PUSH32 0x30644E72E131A029B85045B68181585D97816A916871CA8D3C208C16D87CFD47 DUP1 PUSH2 0x18F8 JUMPI PUSH2 0x18F7 PUSH2 0x21D4 JUMP JUMPDEST JUMPDEST PUSH32 0x30644E72E131A029B85045B68181585D97816A916871CA8D3C208C16D87CFD47 DUP1 PUSH2 0x1927 JUMPI PUSH2 0x1926 PUSH2 0x21D4 JUMP JUMPDEST JUMPDEST PUSH32 0x30644E72E131A029B85045B68181585D97816A916871CA8D3C208C16D87CFD47 DUP1 PUSH2 0x1956 JUMPI PUSH2 0x1955 PUSH2 0x21D4 JUMP JUMPDEST JUMPDEST DUP13 DUP8 MULMOD DUP5 ADDMOD PUSH32 0x2FCD3AC2A640A154EB23960892A85A68F031CA0C8344B23A577DCF1052B9E775 ADDMOD PUSH2 0x1A5F JUMP JUMPDEST SWAP6 POP PUSH2 0x198F DUP8 DUP8 DUP7 PUSH2 0x1B34 JUMP JUMPDEST DUP1 SWAP8 POP DUP2 SWAP9 POP POP POP DUP5 ISZERO PUSH2 0x19B4 JUMPI PUSH2 0x19A6 DUP8 PUSH2 0x1A5F JUMP JUMPDEST SWAP7 POP PUSH2 0x19B1 DUP7 PUSH2 0x1A5F JUMP JUMPDEST SWAP6 POP JUMPDEST POP POP POP POP POP JUMPDEST SWAP3 SWAP6 SWAP2 SWAP5 POP SWAP3 POP JUMP JUMPDEST PUSH0 PUSH2 0x19EE DUP3 PUSH32 0xC19139CB84C680A6E14116DA060561765E05AA45A1C72A34F082305B61F3F52 PUSH2 0x1E2F JUMP JUMPDEST SWAP1 POP DUP2 PUSH32 0x30644E72E131A029B85045B68181585D97816A916871CA8D3C208C16D87CFD47 DUP1 PUSH2 0x1A20 JUMPI PUSH2 0x1A1F PUSH2 0x21D4 JUMP JUMPDEST JUMPDEST DUP3 DUP4 MULMOD EQ PUSH2 0x1A5A JUMPI PUSH1 0x40 MLOAD PUSH32 0x7FCDD1F400000000000000000000000000000000000000000000000000000000 DUP2 MSTORE PUSH1 0x4 ADD PUSH1 0x40 MLOAD DUP1 SWAP2 SUB SWAP1 REVERT JUMPDEST SWAP2 SWAP1 POP JUMP JUMPDEST PUSH0 PUSH32 0x30644E72E131A029B85045B68181585D97816A916871CA8D3C208C16D87CFD47 DUP1 DUP4 DUP2 PUSH2 0x1A91 JUMPI PUSH2 0x1A90 PUSH2 0x21D4 JUMP JUMPDEST JUMPDEST MOD PUSH32 0x30644E72E131A029B85045B68181585D97816A916871CA8D3C208C16D87CFD47 SUB DUP2 PUSH2 0x1AC2 JUMPI PUSH2 0x1AC1 PUSH2 0x21D4 JUMP JUMPDEST JUMPDEST MOD SWAP1 POP SWAP2 SWAP1 POP JUMP JUMPDEST PUSH0 PUSH0 PUSH2 0x1AF6 DUP4 PUSH32 0xC19139CB84C680A6E14116DA060561765E05AA45A1C72A34F082305B61F3F52 PUSH2 0x1E2F JUMP JUMPDEST SWAP1 POP DUP3 PUSH32 0x30644E72E131A029B85045B68181585D97816A916871CA8D3C208C16D87CFD47 DUP1 PUSH2 0x1B28 JUMPI PUSH2 0x1B27 PUSH2 0x21D4 JUMP JUMPDEST JUMPDEST DUP3 DUP4 MULMOD EQ SWAP2 POP POP SWAP2 SWAP1 POP JUMP JUMPDEST PUSH0 PUSH0 PUSH0 PUSH2 0x1BD3 PUSH32 0x30644E72E131A029B85045B68181585D97816A916871CA8D3C208C16D87CFD47 DUP1 PUSH2 0x1B69 JUMPI PUSH2 0x1B68 PUSH2 0x21D4 JUMP JUMPDEST JUMPDEST PUSH32 0x30644E72E131A029B85045B68181585D97816A916871CA8D3C208C16D87CFD47 DUP1 PUSH2 0x1B98 JUMPI PUSH2 0x1B97 PUSH2 0x21D4 JUMP JUMPDEST JUMPDEST DUP8 DUP9 MULMOD PUSH32 0x30644E72E131A029B85045B68181585D97816A916871CA8D3C208C16D87CFD47 DUP1 PUSH2 0x1BCA JUMPI PUSH2 0x1BC9 PUSH2 0x21D4 JUMP JUMPDEST JUMPDEST DUP10 DUP11 MULMOD ADDMOD PUSH2 0x19C3 JUMP JUMPDEST SWAP1 POP DUP4 ISZERO PUSH2 0x1BE7 JUMPI PUSH2 0x1BE4 DUP2 PUSH2 0x1A5F JUMP JUMPDEST SWAP1 POP JUMPDEST PUSH2 0x1C72 PUSH32 0x30644E72E131A029B85045B68181585D97816A916871CA8D3C208C16D87CFD47 DUP1 PUSH2 0x1C19 JUMPI PUSH2 0x1C18 PUSH2 0x21D4 JUMP JUMPDEST JUMPDEST PUSH32 0x183227397098D014DC2822DB40C0AC2ECBC0B548B438E5469E10460B6C3E7EA4 PUSH32 0x30644E72E131A029B85045B68181585D97816A916871CA8D3C208C16D87CFD47 DUP1 PUSH2 0x1C69 JUMPI PUSH2 0x1C68 PUSH2 0x21D4 JUMP JUMPDEST JUMPDEST DUP5 DUP11 ADDMOD MULMOD PUSH2 0x19C3 JUMP JUMPDEST SWAP3 POP PUSH32 0x30644E72E131A029B85045B68181585D97816A916871CA8D3C208C16D87CFD47 DUP1 PUSH2 0x1CA3 JUMPI PUSH2 0x1CA2 PUSH2 0x21D4 JUMP JUMPDEST JUMPDEST PUSH2 0x1CDE PUSH32 0x30644E72E131A029B85045B68181585D97816A916871CA8D3C208C16D87CFD47 DUP1 PUSH2 0x1CD5 JUMPI PUSH2 0x1CD4 PUSH2 0x21D4 JUMP JUMPDEST JUMPDEST PUSH1 0x2 DUP7 MULMOD PUSH2 0x1EC6 JUMP JUMPDEST DUP7 MULMOD SWAP2 POP PUSH32 0x30644E72E131A029B85045B68181585D97816A916871CA8D3C208C16D87CFD47 DUP1 PUSH2 0x1D11 JUMPI PUSH2 0x1D10 PUSH2 0x21D4 JUMP JUMPDEST JUMPDEST PUSH2 0x1D4B PUSH32 0x30644E72E131A029B85045B68181585D97816A916871CA8D3C208C16D87CFD47 DUP1 PUSH2 0x1D43 JUMPI PUSH2 0x1D42 PUSH2 0x21D4 JUMP JUMPDEST JUMPDEST DUP5 DUP6 MULMOD PUSH2 0x1A5F JUMP JUMPDEST PUSH32 0x30644E72E131A029B85045B68181585D97816A916871CA8D3C208C16D87CFD47 DUP1 PUSH2 0x1D7A JUMPI PUSH2 0x1D79 PUSH2 0x21D4 JUMP JUMPDEST JUMPDEST DUP6 DUP7 MULMOD ADDMOD DUP7 EQ ISZERO DUP1 PUSH2 0x1DEF JUMPI POP PUSH32 0x30644E72E131A029B85045B68181585D97816A916871CA8D3C208C16D87CFD47 DUP1 PUSH2 0x1DB6 JUMPI PUSH2 0x1DB5 PUSH2 0x21D4 JUMP JUMPDEST JUMPDEST PUSH32 0x30644E72E131A029B85045B68181585D97816A916871CA8D3C208C16D87CFD47 DUP1 PUSH2 0x1DE5 JUMPI PUSH2 0x1DE4 PUSH2 0x21D4 JUMP JUMPDEST JUMPDEST DUP4 DUP6 MULMOD PUSH1 0x2 MULMOD DUP6 EQ ISZERO JUMPDEST ISZERO PUSH2 0x1E26 JUMPI PUSH1 0x40 MLOAD PUSH32 0x7FCDD1F400000000000000000000000000000000000000000000000000000000 DUP2 MSTORE PUSH1 0x4 ADD PUSH1 0x40 MLOAD DUP1 SWAP2 SUB SWAP1 REVERT JUMPDEST POP SWAP4 POP SWAP4 SWAP2 POP POP JUMP JUMPDEST PUSH0 PUSH0 PUSH1 0x40 MLOAD PUSH1 0x20 DUP2 MSTORE PUSH1 0x20 DUP1 DUP3 ADD MSTORE PUSH1 0x20 PUSH1 0x40 DUP3 ADD MSTORE DUP5 PUSH1 0x60 DUP3 ADD MSTORE DUP4 PUSH1 0x80 DUP3 ADD MSTORE PUSH32 0x30644E72E131A029B85045B68181585D97816A916871CA8D3C208C16D87CFD47 PUSH1 0xA0 DUP3 ADD MSTORE PUSH1 0x20 DUP2 PUSH1 0xC0 DUP4 PUSH1 0x5 GAS STATICCALL SWAP2 POP DUP1 MLOAD SWAP3 POP POP DUP1 PUSH2 0x1EBF JUMPI PUSH1 0x40 MLOAD PUSH32 0x7FCDD1F400000000000000000000000000000000000000000000000000000000 DUP2 MSTORE PUSH1 0x4 ADD PUSH1 0x40 MLOAD DUP1 SWAP2 SUB SWAP1 REVERT JUMPDEST POP SWAP3 SWAP2 POP POP JUMP JUMPDEST PUSH0 PUSH2 0x1EF1 DUP3 PUSH32 0x30644E72E131A029B85045B68181585D97816A916871CA8D3C208C16D87CFD45 PUSH2 0x1E2F JUMP JUMPDEST SWAP1 POP PUSH1 0x1 PUSH32 0x30644E72E131A029B85045B68181585D97816A916871CA8D3C208C16D87CFD47 DUP1 PUSH2 0x1F24 JUMPI PUSH2 0x1F23 PUSH2 0x21D4 JUMP JUMPDEST JUMPDEST DUP3 DUP5 MULMOD EQ PUSH2 0x1F5E JUMPI PUSH1 0x40 MLOAD PUSH32 0x7FCDD1F400000000000000000000000000000000000000000000000000000000 DUP2 MSTORE PUSH1 0x4 ADD PUSH1 0x40 MLOAD DUP1 SWAP2 SUB SWAP1 REVERT JUMPDEST SWAP2 SWAP1 POP JUMP JUMPDEST PUSH1 0x40 MLOAD DUP1 PUSH1 0x80 ADD PUSH1 0x40 MSTORE DUP1 PUSH1 0x4 SWAP1 PUSH1 0x20 DUP3 MUL DUP1 CALLDATASIZE DUP4 CALLDATACOPY DUP1 DUP3 ADD SWAP2 POP POP SWAP1 POP POP SWAP1 JUMP JUMPDEST PUSH1 0x40 MLOAD DUP1 PUSH2 0x300 ADD PUSH1 0x40 MSTORE DUP1 PUSH1 0x18 SWAP1 PUSH1 0x20 DUP3 MUL DUP1 CALLDATASIZE DUP4 CALLDATACOPY DUP1 DUP3 ADD SWAP2 POP POP SWAP1 POP POP SWAP1 JUMP JUMPDEST PUSH1 0x40 MLOAD DUP1 PUSH1 0x20 ADD PUSH1 0x40 MSTORE DUP1 PUSH1 0x1 SWAP1 PUSH1 0x20 DUP3 MUL DUP1 CALLDATASIZE DUP4 CALLDATACOPY DUP1 DUP3 ADD SWAP2 POP POP SWAP1 POP POP SWAP1 JUMP JUMPDEST PUSH0 PUSH0 REVERT JUMPDEST PUSH0 PUSH0 REVERT JUMPDEST PUSH0 DUP2 SWAP1 POP DUP3 PUSH1 0x20 PUSH1 0x8 MUL DUP3 ADD GT ISZERO PUSH2 0x1FED JUMPI PUSH2 0x1FEC PUSH2 0x1FCE JUMP JUMPDEST JUMPDEST SWAP3 SWAP2 POP POP JUMP JUMPDEST PUSH0 DUP2 SWAP1 POP DUP3 PUSH1 0x20 PUSH1 0x5 MUL DUP3 ADD GT ISZERO PUSH2 0x200E JUMPI PUSH2 0x200D PUSH2 0x1FCE JUMP JUMPDEST JUMPDEST SWAP3 SWAP2 POP POP JUMP JUMPDEST PUSH0 PUSH0 PUSH2 0x1A0 DUP4 DUP6 SUB SLT ISZERO PUSH2 0x202B JUMPI PUSH2 0x202A PUSH2 0x1FCA JUMP JUMPDEST JUMPDEST PUSH0 PUSH2 0x2038 DUP6 DUP3 DUP7 ADD PUSH2 0x1FD2 JUMP JUMPDEST SWAP3 POP POP PUSH2 0x100 PUSH2 0x204A DUP6 DUP3 DUP7 ADD PUSH2 0x1FF3 JUMP JUMPDEST SWAP2 POP POP SWAP3 POP SWAP3 SWAP1 POP JUMP JUMPDEST PUSH0 PUSH2 0x100 DUP3 DUP5 SUB SLT ISZERO PUSH2 0x206A JUMPI PUSH2 0x2069 PUSH2 0x1FCA JUMP JUMPDEST JUMPDEST PUSH0 PUSH2 0x2077 DUP5 DUP3 DUP6 ADD PUSH2 0x1FD2 JUMP JUMPDEST SWAP2 POP POP SWAP3 SWAP2 POP POP JUMP JUMPDEST PUSH0 PUSH1 0x4 SWAP1 POP SWAP2 SWAP1 POP JUMP JUMPDEST PUSH0 DUP2 SWAP1 POP SWAP3 SWAP2 POP POP JUMP JUMPDEST PUSH0 DUP2 SWAP1 POP SWAP2 SWAP1 POP JUMP JUMPDEST PUSH0 DUP2 SWAP1 POP SWAP2 SWAP1 POP JUMP JUMPDEST PUSH2 0x20AF DUP2 PUSH2 0x209D JUMP JUMPDEST DUP3 MSTORE POP POP JUMP JUMPDEST PUSH0 PUSH2 0x20C0 DUP4 DUP4 PUSH2 0x20A6 JUMP JUMPDEST PUSH1 0x20 DUP4 ADD SWAP1 POP SWAP3 SWAP2 POP POP JUMP JUMPDEST PUSH0 PUSH1 0x20 DUP3 ADD SWAP1 POP SWAP2 SWAP1 POP JUMP JUMPDEST PUSH2 0x20E1 DUP2 PUSH2 0x2080 JUMP JUMPDEST PUSH2 0x20EB DUP2 DUP5 PUSH2 0x208A JUMP JUMPDEST SWAP3 POP PUSH2 0x20F6 DUP3 PUSH2 0x2094 JUMP JUMPDEST DUP1 PUSH0 JUMPDEST DUP4 DUP2 LT ISZERO PUSH2 0x2126 JUMPI DUP2 MLOAD PUSH2 0x210D DUP8 DUP3 PUSH2 0x20B5 JUMP JUMPDEST SWAP7 POP PUSH2 0x2118 DUP4 PUSH2 0x20CC JUMP JUMPDEST SWAP3 POP POP PUSH1 0x1 DUP2 ADD SWAP1 POP PUSH2 0x20F9 JUMP JUMPDEST POP POP POP POP POP POP JUMP JUMPDEST PUSH0 PUSH1 0x80 DUP3 ADD SWAP1 POP PUSH2 0x2141 PUSH0 DUP4 ADD DUP5 PUSH2 0x20D8 JUMP JUMPDEST SWAP3 SWAP2 POP POP JUMP JUMPDEST PUSH0 DUP2 SWAP1 POP DUP3 PUSH1 0x20 PUSH1 0x4 MUL DUP3 ADD GT ISZERO PUSH2 0x2162 JUMPI PUSH2 0x2161 PUSH2 0x1FCE JUMP JUMPDEST JUMPDEST SWAP3 SWAP2 POP POP JUMP JUMPDEST PUSH0 PUSH0 PUSH2 0x120 DUP4 DUP6 SUB SLT ISZERO PUSH2 0x217F JUMPI PUSH2 0x217E PUSH2 0x1FCA JUMP JUMPDEST JUMPDEST PUSH0 PUSH2 0x218C DUP6 DUP3 DUP7 ADD PUSH2 0x2147 JUMP JUMPDEST SWAP3 POP POP PUSH1 0x80 PUSH2 0x219D DUP6 DUP3 DUP7 ADD PUSH2 0x1FF3 JUMP JUMPDEST SWAP2 POP POP SWAP3 POP SWAP3 SWAP1 POP JUMP JUMPDEST PUSH32 0x4E487B7100000000000000000000000000000000000000000000000000000000 PUSH0 MSTORE PUSH1 0x32 PUSH1 0x4 MSTORE PUSH1 0x24 PUSH0 REVERT JUMPDEST PUSH32 0x4E487B7100000000000000000000000000000000000000000000000000000000 PUSH0 MSTORE PUSH1 0x12 PUSH1 0x4 MSTORE PUSH1 0x24 PUSH0 REVERT JUMPDEST PUSH32 0x4E487B7100000000000000000000000000000000000000000000000000000000 PUSH0 MSTORE PUSH1 0x11 PUSH1 0x4 MSTORE PUSH1 0x24 PUSH0 REVERT JUMPDEST PUSH0 PUSH2 0x2238 DUP3 PUSH2 0x209D JUMP JUMPDEST SWAP2 POP PUSH2 0x2243 DUP4 PUSH2 0x209D JUMP JUMPDEST SWAP3 POP DUP3 DUP3 SUB SWAP1 POP DUP2 DUP2 GT ISZERO PUSH2 0x225B JUMPI PUSH2 0x225A PUSH2 0x2201 JUMP JUMPDEST JUMPDEST SWAP3 SWAP2 POP POP JUMP INVALID LOG2 PUSH5 0x6970667358 0x22 SLT KECCAK256 0xD0 0xD8 ADD 0x26 SELFDESTRUCT PREVRANDAO MOD PUSH23 0x3B53DCD33B28D24548E817C1F2B3D95408F79D8FCD75D9 RETURNCONTRACT 0x64 PUSH20 0x6F6C634300081F00330000000000000000000000 "
				},
				"gasEstimates": {
					"creation": {
						"codeDepositCost": "1771000",
						"executionCost": "1860",
						"totalCost": "1772860"
					},
					"external": {
						"compressProof(uint256[8])": "infinite",
						"verifyCompressedProof(uint256[4],uint256[5])": "infinite",
						"verifyProof(uint256[8],uint256[5])": "infinite"
					},
					"internal": {
						"compress_g1(uint256,uint256)": "infinite",
						"compress_g2(uint256,uint256,uint256,uint256)": "infinite",
						"decompress_g1(uint256)": "infinite",
						"decompress_g2(uint256,uint256)": "infinite",
						"exp(uint256,uint256)": "infinite",
						"invert_Fp(uint256)": "infinite",
						"isSquare_Fp(uint256)": "infinite",
						"negate(uint256)": "83",
						"publicInputMSM(uint256[5] calldata)": "infinite",
						"sqrt_Fp(uint256)": "infinite",
						"sqrt_Fp2(uint256,uint256,bool)": "infinite"
					}
				},
				"methodIdentifiers": {
					"compressProof(uint256[8])": "44f63692",
					"verifyCompressedProof(uint256[4],uint256[5])": "a6708604",
					"verifyProof(uint256[8],uint256[5])": "2a07d99a"
				}
			},
			"storageLayout": {
				"storage": [],
				"types": null
			},
			"userdoc": {
				"errors": {
					"ProofInvalid()": [
						{
							"notice": "The proof is invalid."
						}
					],
					"PublicInputNotInField()": [
						{
							"notice": "Some of the provided public input values are larger than the field modulus."
						}
					]
				},
				"kind": "user",
				"methods": {
					"compressProof(uint256[8])": {
						"notice": "Compress a proof.Will revert with InvalidProof if the curve points are invalid, but does not verify the proof itself."
					},
					"verifyCompressedProof(uint256[4],uint256[5])": {
						"notice": "Verify a Groth16 proof with compressed points.Reverts with InvalidProof if the proof is invalid or with PublicInputNotInField the public input is not reduced.There is no return value. If the function does not revert, the proof was successfully verified."
					},
					"verifyProof(uint256[8],uint256[5])": {
						"notice": "Verify an uncompressed Groth16 proof.Reverts with InvalidProof if the proof is invalid or with PublicInputNotInField the public input is not reduced.There is no return value. If the function does not revert, the proof was successfully verified."
					}
				},
				"notice": "Supports verifying Groth16 proofs. Proofs can be in uncompressed (256 bytes) and compressed (128 bytes) format. A view function is provided to compress proofs.See <https://2π.com/23/bn254-compression> for further explanation.",
				"version": 1
			}
		}
	}
}