{
	"Evm/core/variables.sol": {
		"QiaraVariables": {
			"abi": [
				{
					"inputs": [],
					"stateMutability": "nonpayable",
					"type": "constructor"
				},
				{
					"anonymous": false,
					"inputs": [
						{
							"indexed": true,
							"internalType": "address",
							"name": "newAddress",
							"type": "address"
						}
					],
					"name": "AuthorizedContractUpdated",
					"type": "event"
				},
				{
					"anonymous": false,
					"inputs": [
						{
							"indexed": true,
							"internalType": "address",
							"name": "newManager",
							"type": "address"
						}
					],
					"name": "EpochManagerUpdated",
					"type": "event"
				},
				{
					"anonymous": false,
					"inputs": [
						{
							"indexed": true,
							"internalType": "string",
							"name": "header",
							"type": "string"
						},
						{
							"indexed": true,
							"internalType": "string",
							"name": "name",
							"type": "string"
						},
						{
							"indexed": false,
							"internalType": "uint256",
							"name": "epoch",
							"type": "uint256"
						}
					],
					"name": "VariableQueued",
					"type": "event"
				},
				{
					"anonymous": false,
					"inputs": [
						{
							"indexed": true,
							"internalType": "uint256",
							"name": "epoch",
							"type": "uint256"
						},
						{
							"indexed": false,
							"internalType": "uint256",
							"name": "countMoved",
							"type": "uint256"
						},
						{
							"indexed": false,
							"internalType": "uint256",
							"name": "newRoot",
							"type": "uint256"
						}
					],
					"name": "VariablesFinalized",
					"type": "event"
				},
				{
					"inputs": [],
					"name": "activeRoot",
					"outputs": [
						{
							"internalType": "uint256",
							"name": "",
							"type": "uint256"
						}
					],
					"stateMutability": "view",
					"type": "function"
				},
				{
					"inputs": [
						{
							"internalType": "string",
							"name": "header",
							"type": "string"
						},
						{
							"internalType": "string",
							"name": "name",
							"type": "string"
						},
						{
							"internalType": "bytes",
							"name": "data",
							"type": "bytes"
						}
					],
					"name": "addPendingVariable",
					"outputs": [],
					"stateMutability": "nonpayable",
					"type": "function"
				},
				{
					"inputs": [],
					"name": "authorizedContract",
					"outputs": [
						{
							"internalType": "address",
							"name": "",
							"type": "address"
						}
					],
					"stateMutability": "view",
					"type": "function"
				},
				{
					"inputs": [],
					"name": "epochManager",
					"outputs": [
						{
							"internalType": "contract IEpochManager",
							"name": "",
							"type": "address"
						}
					],
					"stateMutability": "view",
					"type": "function"
				},
				{
					"inputs": [
						{
							"internalType": "string",
							"name": "header",
							"type": "string"
						},
						{
							"internalType": "string",
							"name": "name",
							"type": "string"
						}
					],
					"name": "getActiveVariable",
					"outputs": [
						{
							"internalType": "bytes",
							"name": "",
							"type": "bytes"
						}
					],
					"stateMutability": "view",
					"type": "function"
				},
				{
					"inputs": [],
					"name": "getPendingCount",
					"outputs": [
						{
							"internalType": "uint256",
							"name": "",
							"type": "uint256"
						}
					],
					"stateMutability": "view",
					"type": "function"
				},
				{
					"inputs": [],
					"name": "lastProcessedEpoch",
					"outputs": [
						{
							"internalType": "uint256",
							"name": "",
							"type": "uint256"
						}
					],
					"stateMutability": "view",
					"type": "function"
				},
				{
					"inputs": [],
					"name": "owner",
					"outputs": [
						{
							"internalType": "address",
							"name": "",
							"type": "address"
						}
					],
					"stateMutability": "view",
					"type": "function"
				},
				{
					"inputs": [],
					"name": "pendingRoot",
					"outputs": [
						{
							"internalType": "uint256",
							"name": "",
							"type": "uint256"
						}
					],
					"stateMutability": "view",
					"type": "function"
				},
				{
					"inputs": [
						{
							"internalType": "uint256",
							"name": "",
							"type": "uint256"
						}
					],
					"name": "pendingVariables",
					"outputs": [
						{
							"internalType": "string",
							"name": "header",
							"type": "string"
						},
						{
							"internalType": "string",
							"name": "name",
							"type": "string"
						},
						{
							"internalType": "bytes",
							"name": "data",
							"type": "bytes"
						}
					],
					"stateMutability": "view",
					"type": "function"
				},
				{
					"inputs": [
						{
							"internalType": "address",
							"name": "_authAddress",
							"type": "address"
						}
					],
					"name": "setAuthorizedContract",
					"outputs": [],
					"stateMutability": "nonpayable",
					"type": "function"
				},
				{
					"inputs": [
						{
							"internalType": "address",
							"name": "_epochManager",
							"type": "address"
						}
					],
					"name": "setEpochManager",
					"outputs": [],
					"stateMutability": "nonpayable",
					"type": "function"
				}
			],
			"devdoc": {
				"kind": "dev",
				"methods": {},
				"version": 1
			},
			"evm": {
				"assembly": "    /* \"Evm/core/variables.sol\":158:3384  contract QiaraVariables {... */\n  mstore(0x40, 0x80)\n    /* \"Evm/core/variables.sol\":1143:1194  constructor() {... */\n  callvalue\n  dup1\n  iszero\n  tag_1\n  jumpi\n  revert(0x00, 0x00)\ntag_1:\n  pop\n    /* \"Evm/core/variables.sol\":1176:1186  msg.sender */\n  caller\n    /* \"Evm/core/variables.sol\":1168:1173  owner */\n  0x05\n  0x00\n    /* \"Evm/core/variables.sol\":1168:1186  owner = msg.sender */\n  0x0100\n  exp\n  dup2\n  sload\n  dup2\n  0xffffffffffffffffffffffffffffffffffffffff\n  mul\n  not\n  and\n  swap1\n  dup4\n  0xffffffffffffffffffffffffffffffffffffffff\n  and\n  mul\n  or\n  swap1\n  sstore\n  pop\n    /* \"Evm/core/variables.sol\":158:3384  contract QiaraVariables {... */\n  dataSize(sub_0)\n  dup1\n  dataOffset(sub_0)\n  0x00\n  codecopy\n  0x00\n  return\nstop\n\nsub_0: assembly {\n        /* \"Evm/core/variables.sol\":158:3384  contract QiaraVariables {... */\n      mstore(0x40, 0x80)\n      callvalue\n      dup1\n      iszero\n      tag_1\n      jumpi\n      revert(0x00, 0x00)\n    tag_1:\n      pop\n      jumpi(tag_2, lt(calldatasize, 0x04))\n      shr(0xe0, calldataload(0x00))\n      dup1\n      0xa6591cdf\n      gt\n      tag_15\n      jumpi\n      dup1\n      0xa6591cdf\n      eq\n      tag_9\n      jumpi\n      dup1\n      0xabb2efdf\n      eq\n      tag_10\n      jumpi\n      dup1\n      0xd4d59edb\n      eq\n      tag_11\n      jumpi\n      dup1\n      0xd795ede1\n      eq\n      tag_12\n      jumpi\n      dup1\n      0xe2d2bfe3\n      eq\n      tag_13\n      jumpi\n      dup1\n      0xee6713df\n      eq\n      tag_14\n      jumpi\n      jump(tag_2)\n    tag_15:\n      dup1\n      0x16f1adc1\n      eq\n      tag_3\n      jumpi\n      dup1\n      0x2e057b9b\n      eq\n      tag_4\n      jumpi\n      dup1\n      0x3b6556bf\n      eq\n      tag_5\n      jumpi\n      dup1\n      0x750588cf\n      eq\n      tag_6\n      jumpi\n      dup1\n      0x8da5cb5b\n      eq\n      tag_7\n      jumpi\n      dup1\n      0x9aad69e7\n      eq\n      tag_8\n      jumpi\n    tag_2:\n      revert(0x00, 0x00)\n        /* \"Evm/core/variables.sol\":3106:3267  function getActiveVariable(string calldata header, string calldata name) external view returns (bytes memory) {... */\n    tag_3:\n      tag_16\n      0x04\n      dup1\n      calldatasize\n      sub\n      dup2\n      add\n      swap1\n      tag_17\n      swap2\n      swap1\n      tag_18\n      jump\t// in\n    tag_17:\n      tag_19\n      jump\t// in\n    tag_16:\n      mload(0x40)\n      tag_20\n      swap2\n      swap1\n      tag_21\n      jump\t// in\n    tag_20:\n      mload(0x40)\n      dup1\n      swap2\n      sub\n      swap1\n      return\n        /* \"Evm/core/variables.sol\":1853:2291  function addPendingVariable(string calldata header, string calldata name, bytes calldata data) external onlyAuthorized {... */\n    tag_4:\n      tag_22\n      0x04\n      dup1\n      calldatasize\n      sub\n      dup2\n      add\n      swap1\n      tag_23\n      swap2\n      swap1\n      tag_24\n      jump\t// in\n    tag_23:\n      tag_25\n      jump\t// in\n    tag_22:\n      stop\n        /* \"Evm/core/variables.sol\":697:736  VariableEntry[] public pendingVariables */\n    tag_5:\n      tag_26\n      0x04\n      dup1\n      calldatasize\n      sub\n      dup2\n      add\n      swap1\n      tag_27\n      swap2\n      swap1\n      tag_28\n      jump\t// in\n    tag_27:\n      tag_29\n      jump\t// in\n    tag_26:\n      mload(0x40)\n      tag_30\n      swap4\n      swap3\n      swap2\n      swap1\n      tag_31\n      jump\t// in\n    tag_30:\n      mload(0x40)\n      dup1\n      swap2\n      sub\n      swap1\n      return\n        /* \"Evm/core/variables.sol\":357:383  uint256 public pendingRoot */\n    tag_6:\n      tag_32\n      tag_33\n      jump\t// in\n    tag_32:\n      mload(0x40)\n      tag_34\n      swap2\n      swap1\n      tag_35\n      jump\t// in\n    tag_34:\n      mload(0x40)\n      dup1\n      swap2\n      sub\n      swap1\n      return\n        /* \"Evm/core/variables.sol\":546:566  address public owner */\n    tag_7:\n      tag_36\n      tag_37\n      jump\t// in\n    tag_36:\n      mload(0x40)\n      tag_38\n      swap2\n      swap1\n      tag_39\n      jump\t// in\n    tag_38:\n      mload(0x40)\n      dup1\n      swap2\n      sub\n      swap1\n      return\n        /* \"Evm/core/variables.sol\":1464:1686  function setAuthorizedContract(address _authAddress) external {... */\n    tag_8:\n      tag_40\n      0x04\n      dup1\n      calldatasize\n      sub\n      dup2\n      add\n      swap1\n      tag_41\n      swap2\n      swap1\n      tag_42\n      jump\t// in\n    tag_41:\n      tag_43\n      jump\t// in\n    tag_40:\n      stop\n        /* \"Evm/core/variables.sol\":506:539  address public authorizedContract */\n    tag_9:\n      tag_44\n      tag_45\n      jump\t// in\n    tag_44:\n      mload(0x40)\n      tag_46\n      swap2\n      swap1\n      tag_39\n      jump\t// in\n    tag_46:\n      mload(0x40)\n      dup1\n      swap2\n      sub\n      swap1\n      return\n        /* \"Evm/core/variables.sol\":325:350  uint256 public activeRoot */\n    tag_10:\n      tag_47\n      tag_48\n      jump\t// in\n    tag_47:\n      mload(0x40)\n      tag_49\n      swap2\n      swap1\n      tag_35\n      jump\t// in\n    tag_49:\n      mload(0x40)\n      dup1\n      swap2\n      sub\n      swap1\n      return\n        /* \"Evm/core/variables.sol\":1234:1456  function setEpochManager(address _epochManager) external {... */\n    tag_11:\n      tag_50\n      0x04\n      dup1\n      calldatasize\n      sub\n      dup2\n      add\n      swap1\n      tag_51\n      swap2\n      swap1\n      tag_42\n      jump\t// in\n    tag_51:\n      tag_52\n      jump\t// in\n    tag_50:\n      stop\n        /* \"Evm/core/variables.sol\":3273:3381  function getPendingCount() external view returns (uint256) {... */\n    tag_12:\n      tag_53\n      tag_54\n      jump\t// in\n    tag_53:\n      mload(0x40)\n      tag_55\n      swap2\n      swap1\n      tag_35\n      jump\t// in\n    tag_55:\n      mload(0x40)\n      dup1\n      swap2\n      sub\n      swap1\n      return\n        /* \"Evm/core/variables.sol\":423:456  IEpochManager public epochManager */\n    tag_13:\n      tag_56\n      tag_57\n      jump\t// in\n    tag_56:\n      mload(0x40)\n      tag_58\n      swap2\n      swap1\n      tag_59\n      jump\t// in\n    tag_58:\n      mload(0x40)\n      dup1\n      swap2\n      sub\n      swap1\n      return\n        /* \"Evm/core/variables.sol\":463:496  uint256 public lastProcessedEpoch */\n    tag_14:\n      tag_60\n      tag_61\n      jump\t// in\n    tag_60:\n      mload(0x40)\n      tag_62\n      swap2\n      swap1\n      tag_35\n      jump\t// in\n    tag_62:\n      mload(0x40)\n      dup1\n      swap2\n      sub\n      swap1\n      return\n        /* \"Evm/core/variables.sol\":3106:3267  function getActiveVariable(string calldata header, string calldata name) external view returns (bytes memory) {... */\n    tag_19:\n        /* \"Evm/core/variables.sol\":3202:3214  bytes memory */\n      0x60\n        /* \"Evm/core/variables.sol\":3234:3245  _activeData */\n      0x07\n        /* \"Evm/core/variables.sol\":3246:3252  header */\n      dup6\n      dup6\n        /* \"Evm/core/variables.sol\":3234:3253  _activeData[header] */\n      mload(0x40)\n      tag_64\n      swap3\n      swap2\n      swap1\n      tag_65\n      jump\t// in\n    tag_64:\n      swap1\n      dup2\n      mstore\n      0x20\n      add\n      mload(0x40)\n      dup1\n      swap2\n      sub\n      swap1\n      keccak256\n        /* \"Evm/core/variables.sol\":3254:3258  name */\n      dup4\n      dup4\n        /* \"Evm/core/variables.sol\":3234:3259  _activeData[header][name] */\n      mload(0x40)\n      tag_66\n      swap3\n      swap2\n      swap1\n      tag_65\n      jump\t// in\n    tag_66:\n      swap1\n      dup2\n      mstore\n      0x20\n      add\n      mload(0x40)\n      dup1\n      swap2\n      sub\n      swap1\n      keccak256\n        /* \"Evm/core/variables.sol\":3227:3259  return _activeData[header][name] */\n      dup1\n      sload\n      tag_67\n      swap1\n      tag_68\n      jump\t// in\n    tag_67:\n      dup1\n      0x1f\n      add\n      0x20\n      dup1\n      swap2\n      div\n      mul\n      0x20\n      add\n      mload(0x40)\n      swap1\n      dup2\n      add\n      0x40\n      mstore\n      dup1\n      swap3\n      swap2\n      swap1\n      dup2\n      dup2\n      mstore\n      0x20\n      add\n      dup3\n      dup1\n      sload\n      tag_69\n      swap1\n      tag_68\n      jump\t// in\n    tag_69:\n      dup1\n      iszero\n      tag_70\n      jumpi\n      dup1\n      0x1f\n      lt\n      tag_71\n      jumpi\n      0x0100\n      dup1\n      dup4\n      sload\n      div\n      mul\n      dup4\n      mstore\n      swap2\n      0x20\n      add\n      swap2\n      jump(tag_70)\n    tag_71:\n      dup3\n      add\n      swap2\n      swap1\n      0x00\n      mstore\n      keccak256(0x00, 0x20)\n      swap1\n    tag_72:\n      dup2\n      sload\n      dup2\n      mstore\n      swap1\n      0x01\n      add\n      swap1\n      0x20\n      add\n      dup1\n      dup4\n      gt\n      tag_72\n      jumpi\n      dup3\n      swap1\n      sub\n      0x1f\n      and\n      dup3\n      add\n      swap2\n    tag_70:\n      pop\n      pop\n      pop\n      pop\n      pop\n      swap1\n      pop\n        /* \"Evm/core/variables.sol\":3106:3267  function getActiveVariable(string calldata header, string calldata name) external view returns (bytes memory) {... */\n      swap5\n      swap4\n      pop\n      pop\n      pop\n      pop\n      jump\t// out\n        /* \"Evm/core/variables.sol\":1853:2291  function addPendingVariable(string calldata header, string calldata name, bytes calldata data) external onlyAuthorized {... */\n    tag_25:\n        /* \"Evm/core/variables.sol\":1753:1771  authorizedContract */\n      0x04\n      0x00\n      swap1\n      sload\n      swap1\n      0x0100\n      exp\n      swap1\n      div\n      0xffffffffffffffffffffffffffffffffffffffff\n      and\n        /* \"Evm/core/variables.sol\":1739:1771  msg.sender == authorizedContract */\n      0xffffffffffffffffffffffffffffffffffffffff\n      and\n        /* \"Evm/core/variables.sol\":1739:1749  msg.sender */\n      caller\n        /* \"Evm/core/variables.sol\":1739:1771  msg.sender == authorizedContract */\n      0xffffffffffffffffffffffffffffffffffffffff\n      and\n      eq\n        /* \"Evm/core/variables.sol\":1731:1790  require(msg.sender == authorizedContract, \"Not authorized\") */\n      tag_74\n      jumpi\n      mload(0x40)\n      0x08c379a000000000000000000000000000000000000000000000000000000000\n      dup2\n      mstore\n      0x04\n      add\n      tag_75\n      swap1\n      tag_76\n      jump\t// in\n    tag_75:\n      mload(0x40)\n      dup1\n      swap2\n      sub\n      swap1\n      revert\n    tag_74:\n        /* \"Evm/core/variables.sol\":2120:2150  _checkAndHandleEpochRollover() */\n      tag_78\n        /* \"Evm/core/variables.sol\":2120:2148  _checkAndHandleEpochRollover */\n      tag_79\n        /* \"Evm/core/variables.sol\":2120:2150  _checkAndHandleEpochRollover() */\n      jump\t// in\n    tag_78:\n        /* \"Evm/core/variables.sol\":2163:2179  pendingVariables */\n      0x06\n        /* \"Evm/core/variables.sol\":2185:2218  VariableEntry(header, name, data) */\n      mload(0x40)\n      dup1\n      0x60\n      add\n      0x40\n      mstore\n      dup1\n        /* \"Evm/core/variables.sol\":2199:2205  header */\n      dup9\n      dup9\n        /* \"Evm/core/variables.sol\":2185:2218  VariableEntry(header, name, data) */\n      dup1\n      dup1\n      0x1f\n      add\n      0x20\n      dup1\n      swap2\n      div\n      mul\n      0x20\n      add\n      mload(0x40)\n      swap1\n      dup2\n      add\n      0x40\n      mstore\n      dup1\n      swap4\n      swap3\n      swap2\n      swap1\n      dup2\n      dup2\n      mstore\n      0x20\n      add\n      dup4\n      dup4\n      dup1\n      dup3\n      dup5\n      calldatacopy\n      0x00\n      dup2\n      dup5\n      add\n      mstore\n      not(0x1f)\n      0x1f\n      dup3\n      add\n      and\n      swap1\n      pop\n      dup1\n      dup4\n      add\n      swap3\n      pop\n      pop\n      pop\n      pop\n      pop\n      pop\n      pop\n      dup2\n      mstore\n      0x20\n      add\n        /* \"Evm/core/variables.sol\":2207:2211  name */\n      dup7\n      dup7\n        /* \"Evm/core/variables.sol\":2185:2218  VariableEntry(header, name, data) */\n      dup1\n      dup1\n      0x1f\n      add\n      0x20\n      dup1\n      swap2\n      div\n      mul\n      0x20\n      add\n      mload(0x40)\n      swap1\n      dup2\n      add\n      0x40\n      mstore\n      dup1\n      swap4\n      swap3\n      swap2\n      swap1\n      dup2\n      dup2\n      mstore\n      0x20\n      add\n      dup4\n      dup4\n      dup1\n      dup3\n      dup5\n      calldatacopy\n      0x00\n      dup2\n      dup5\n      add\n      mstore\n      not(0x1f)\n      0x1f\n      dup3\n      add\n      and\n      swap1\n      pop\n      dup1\n      dup4\n      add\n      swap3\n      pop\n      pop\n      pop\n      pop\n      pop\n      pop\n      pop\n      dup2\n      mstore\n      0x20\n      add\n        /* \"Evm/core/variables.sol\":2213:2217  data */\n      dup5\n      dup5\n        /* \"Evm/core/variables.sol\":2185:2218  VariableEntry(header, name, data) */\n      dup1\n      dup1\n      0x1f\n      add\n      0x20\n      dup1\n      swap2\n      div\n      mul\n      0x20\n      add\n      mload(0x40)\n      swap1\n      dup2\n      add\n      0x40\n      mstore\n      dup1\n      swap4\n      swap3\n      swap2\n      swap1\n      dup2\n      dup2\n      mstore\n      0x20\n      add\n      dup4\n      dup4\n      dup1\n      dup3\n      dup5\n      calldatacopy\n      0x00\n      dup2\n      dup5\n      add\n      mstore\n      not(0x1f)\n      0x1f\n      dup3\n      add\n      and\n      swap1\n      pop\n      dup1\n      dup4\n      add\n      swap3\n      pop\n      pop\n      pop\n      pop\n      pop\n      pop\n      pop\n      dup2\n      mstore\n      pop\n        /* \"Evm/core/variables.sol\":2163:2219  pendingVariables.push(VariableEntry(header, name, data)) */\n      swap1\n      dup1\n      0x01\n      dup2\n      sload\n      add\n      dup1\n      dup3\n      sstore\n      dup1\n      swap2\n      pop\n      pop\n      0x01\n      swap1\n      sub\n      swap1\n      0x00\n      mstore\n      keccak256(0x00, 0x20)\n      swap1\n      0x03\n      mul\n      add\n      0x00\n      swap1\n      swap2\n      swap1\n      swap2\n      swap1\n      swap2\n      pop\n      0x00\n      dup3\n      add\n      mload\n      dup2\n      0x00\n      add\n      swap1\n      dup2\n      tag_81\n      swap2\n      swap1\n      tag_82\n      jump\t// in\n    tag_81:\n      pop\n      0x20\n      dup3\n      add\n      mload\n      dup2\n      0x01\n      add\n      swap1\n      dup2\n      tag_83\n      swap2\n      swap1\n      tag_82\n      jump\t// in\n    tag_83:\n      pop\n      0x40\n      dup3\n      add\n      mload\n      dup2\n      0x02\n      add\n      swap1\n      dup2\n      tag_84\n      swap2\n      swap1\n      tag_85\n      jump\t// in\n    tag_84:\n      pop\n      pop\n      pop\n        /* \"Evm/core/variables.sol\":2258:2262  name */\n      dup4\n      dup4\n        /* \"Evm/core/variables.sol\":2235:2283  VariableQueued(header, name, lastProcessedEpoch) */\n      mload(0x40)\n      tag_86\n      swap3\n      swap2\n      swap1\n      tag_65\n      jump\t// in\n    tag_86:\n      mload(0x40)\n      dup1\n      swap2\n      sub\n      swap1\n      keccak256\n        /* \"Evm/core/variables.sol\":2250:2256  header */\n      dup7\n      dup7\n        /* \"Evm/core/variables.sol\":2235:2283  VariableQueued(header, name, lastProcessedEpoch) */\n      mload(0x40)\n      tag_87\n      swap3\n      swap2\n      swap1\n      tag_65\n      jump\t// in\n    tag_87:\n      mload(0x40)\n      dup1\n      swap2\n      sub\n      swap1\n      keccak256\n      0x1b9831f8fba460f180116967424398f8e8503bca4ff62445b6a6c5ea38d6ff57\n        /* \"Evm/core/variables.sol\":2264:2282  lastProcessedEpoch */\n      sload(0x03)\n        /* \"Evm/core/variables.sol\":2235:2283  VariableQueued(header, name, lastProcessedEpoch) */\n      mload(0x40)\n      tag_88\n      swap2\n      swap1\n      tag_35\n      jump\t// in\n    tag_88:\n      mload(0x40)\n      dup1\n      swap2\n      sub\n      swap1\n      log3\n        /* \"Evm/core/variables.sol\":1853:2291  function addPendingVariable(string calldata header, string calldata name, bytes calldata data) external onlyAuthorized {... */\n      pop\n      pop\n      pop\n      pop\n      pop\n      pop\n      jump\t// out\n        /* \"Evm/core/variables.sol\":697:736  VariableEntry[] public pendingVariables */\n    tag_29:\n      0x06\n      dup2\n      dup2\n      sload\n      dup2\n      lt\n      tag_89\n      jumpi\n      0x00\n      dup1\n      revert\n    tag_89:\n      swap1\n      0x00\n      mstore\n      keccak256(0x00, 0x20)\n      swap1\n      0x03\n      mul\n      add\n      0x00\n      swap2\n      pop\n      swap1\n      pop\n      dup1\n      0x00\n      add\n      dup1\n      sload\n      tag_91\n      swap1\n      tag_68\n      jump\t// in\n    tag_91:\n      dup1\n      0x1f\n      add\n      0x20\n      dup1\n      swap2\n      div\n      mul\n      0x20\n      add\n      mload(0x40)\n      swap1\n      dup2\n      add\n      0x40\n      mstore\n      dup1\n      swap3\n      swap2\n      swap1\n      dup2\n      dup2\n      mstore\n      0x20\n      add\n      dup3\n      dup1\n      sload\n      tag_92\n      swap1\n      tag_68\n      jump\t// in\n    tag_92:\n      dup1\n      iszero\n      tag_93\n      jumpi\n      dup1\n      0x1f\n      lt\n      tag_94\n      jumpi\n      0x0100\n      dup1\n      dup4\n      sload\n      div\n      mul\n      dup4\n      mstore\n      swap2\n      0x20\n      add\n      swap2\n      jump(tag_93)\n    tag_94:\n      dup3\n      add\n      swap2\n      swap1\n      0x00\n      mstore\n      keccak256(0x00, 0x20)\n      swap1\n    tag_95:\n      dup2\n      sload\n      dup2\n      mstore\n      swap1\n      0x01\n      add\n      swap1\n      0x20\n      add\n      dup1\n      dup4\n      gt\n      tag_95\n      jumpi\n      dup3\n      swap1\n      sub\n      0x1f\n      and\n      dup3\n      add\n      swap2\n    tag_93:\n      pop\n      pop\n      pop\n      pop\n      pop\n      swap1\n      dup1\n      0x01\n      add\n      dup1\n      sload\n      tag_96\n      swap1\n      tag_68\n      jump\t// in\n    tag_96:\n      dup1\n      0x1f\n      add\n      0x20\n      dup1\n      swap2\n      div\n      mul\n      0x20\n      add\n      mload(0x40)\n      swap1\n      dup2\n      add\n      0x40\n      mstore\n      dup1\n      swap3\n      swap2\n      swap1\n      dup2\n      dup2\n      mstore\n      0x20\n      add\n      dup3\n      dup1\n      sload\n      tag_97\n      swap1\n      tag_68\n      jump\t// in\n    tag_97:\n      dup1\n      iszero\n      tag_98\n      jumpi\n      dup1\n      0x1f\n      lt\n      tag_99\n      jumpi\n      0x0100\n      dup1\n      dup4\n      sload\n      div\n      mul\n      dup4\n      mstore\n      swap2\n      0x20\n      add\n      swap2\n      jump(tag_98)\n    tag_99:\n      dup3\n      add\n      swap2\n      swap1\n      0x00\n      mstore\n      keccak256(0x00, 0x20)\n      swap1\n    tag_100:\n      dup2\n      sload\n      dup2\n      mstore\n      swap1\n      0x01\n      add\n      swap1\n      0x20\n      add\n      dup1\n      dup4\n      gt\n      tag_100\n      jumpi\n      dup3\n      swap1\n      sub\n      0x1f\n      and\n      dup3\n      add\n      swap2\n    tag_98:\n      pop\n      pop\n      pop\n      pop\n      pop\n      swap1\n      dup1\n      0x02\n      add\n      dup1\n      sload\n      tag_101\n      swap1\n      tag_68\n      jump\t// in\n    tag_101:\n      dup1\n      0x1f\n      add\n      0x20\n      dup1\n      swap2\n      div\n      mul\n      0x20\n      add\n      mload(0x40)\n      swap1\n      dup2\n      add\n      0x40\n      mstore\n      dup1\n      swap3\n      swap2\n      swap1\n      dup2\n      dup2\n      mstore\n      0x20\n      add\n      dup3\n      dup1\n      sload\n      tag_102\n      swap1\n      tag_68\n      jump\t// in\n    tag_102:\n      dup1\n      iszero\n      tag_103\n      jumpi\n      dup1\n      0x1f\n      lt\n      tag_104\n      jumpi\n      0x0100\n      dup1\n      dup4\n      sload\n      div\n      mul\n      dup4\n      mstore\n      swap2\n      0x20\n      add\n      swap2\n      jump(tag_103)\n    tag_104:\n      dup3\n      add\n      swap2\n      swap1\n      0x00\n      mstore\n      keccak256(0x00, 0x20)\n      swap1\n    tag_105:\n      dup2\n      sload\n      dup2\n      mstore\n      swap1\n      0x01\n      add\n      swap1\n      0x20\n      add\n      dup1\n      dup4\n      gt\n      tag_105\n      jumpi\n      dup3\n      swap1\n      sub\n      0x1f\n      and\n      dup3\n      add\n      swap2\n    tag_103:\n      pop\n      pop\n      pop\n      pop\n      pop\n      swap1\n      pop\n      dup4\n      jump\t// out\n        /* \"Evm/core/variables.sol\":357:383  uint256 public pendingRoot */\n    tag_33:\n      sload(0x01)\n      dup2\n      jump\t// out\n        /* \"Evm/core/variables.sol\":546:566  address public owner */\n    tag_37:\n      0x05\n      0x00\n      swap1\n      sload\n      swap1\n      0x0100\n      exp\n      swap1\n      div\n      0xffffffffffffffffffffffffffffffffffffffff\n      and\n      dup2\n      jump\t// out\n        /* \"Evm/core/variables.sol\":1464:1686  function setAuthorizedContract(address _authAddress) external {... */\n    tag_43:\n        /* \"Evm/core/variables.sol\":1559:1564  owner */\n      0x05\n      0x00\n      swap1\n      sload\n      swap1\n      0x0100\n      exp\n      swap1\n      div\n      0xffffffffffffffffffffffffffffffffffffffff\n      and\n        /* \"Evm/core/variables.sol\":1545:1564  msg.sender == owner */\n      0xffffffffffffffffffffffffffffffffffffffff\n      and\n        /* \"Evm/core/variables.sol\":1545:1555  msg.sender */\n      caller\n        /* \"Evm/core/variables.sol\":1545:1564  msg.sender == owner */\n      0xffffffffffffffffffffffffffffffffffffffff\n      and\n      eq\n        /* \"Evm/core/variables.sol\":1537:1579  require(msg.sender == owner, \"Only owner\") */\n      tag_107\n      jumpi\n      mload(0x40)\n      0x08c379a000000000000000000000000000000000000000000000000000000000\n      dup2\n      mstore\n      0x04\n      add\n      tag_108\n      swap1\n      tag_109\n      jump\t// in\n    tag_108:\n      mload(0x40)\n      dup1\n      swap2\n      sub\n      swap1\n      revert\n    tag_107:\n        /* \"Evm/core/variables.sol\":1611:1623  _authAddress */\n      dup1\n        /* \"Evm/core/variables.sol\":1590:1608  authorizedContract */\n      0x04\n      0x00\n        /* \"Evm/core/variables.sol\":1590:1623  authorizedContract = _authAddress */\n      0x0100\n      exp\n      dup2\n      sload\n      dup2\n      0xffffffffffffffffffffffffffffffffffffffff\n      mul\n      not\n      and\n      swap1\n      dup4\n      0xffffffffffffffffffffffffffffffffffffffff\n      and\n      mul\n      or\n      swap1\n      sstore\n      pop\n        /* \"Evm/core/variables.sol\":1665:1677  _authAddress */\n      dup1\n        /* \"Evm/core/variables.sol\":1639:1678  AuthorizedContractUpdated(_authAddress) */\n      0xffffffffffffffffffffffffffffffffffffffff\n      and\n      0x2e8b6f15ca325edad1931b418450cd194daf93e7f40fe4a48d9b1b4bf2a8f069\n      mload(0x40)\n      mload(0x40)\n      dup1\n      swap2\n      sub\n      swap1\n      log2\n        /* \"Evm/core/variables.sol\":1464:1686  function setAuthorizedContract(address _authAddress) external {... */\n      pop\n      jump\t// out\n        /* \"Evm/core/variables.sol\":506:539  address public authorizedContract */\n    tag_45:\n      0x04\n      0x00\n      swap1\n      sload\n      swap1\n      0x0100\n      exp\n      swap1\n      div\n      0xffffffffffffffffffffffffffffffffffffffff\n      and\n      dup2\n      jump\t// out\n        /* \"Evm/core/variables.sol\":325:350  uint256 public activeRoot */\n    tag_48:\n      sload(0x00)\n      dup2\n      jump\t// out\n        /* \"Evm/core/variables.sol\":1234:1456  function setEpochManager(address _epochManager) external {... */\n    tag_52:\n        /* \"Evm/core/variables.sol\":1324:1329  owner */\n      0x05\n      0x00\n      swap1\n      sload\n      swap1\n      0x0100\n      exp\n      swap1\n      div\n      0xffffffffffffffffffffffffffffffffffffffff\n      and\n        /* \"Evm/core/variables.sol\":1310:1329  msg.sender == owner */\n      0xffffffffffffffffffffffffffffffffffffffff\n      and\n        /* \"Evm/core/variables.sol\":1310:1320  msg.sender */\n      caller\n        /* \"Evm/core/variables.sol\":1310:1329  msg.sender == owner */\n      0xffffffffffffffffffffffffffffffffffffffff\n      and\n      eq\n        /* \"Evm/core/variables.sol\":1302:1344  require(msg.sender == owner, \"Only owner\") */\n      tag_111\n      jumpi\n      mload(0x40)\n      0x08c379a000000000000000000000000000000000000000000000000000000000\n      dup2\n      mstore\n      0x04\n      add\n      tag_112\n      swap1\n      tag_109\n      jump\t// in\n    tag_112:\n      mload(0x40)\n      dup1\n      swap2\n      sub\n      swap1\n      revert\n    tag_111:\n        /* \"Evm/core/variables.sol\":1384:1397  _epochManager */\n      dup1\n        /* \"Evm/core/variables.sol\":1355:1367  epochManager */\n      0x02\n      0x00\n        /* \"Evm/core/variables.sol\":1355:1398  epochManager = IEpochManager(_epochManager) */\n      0x0100\n      exp\n      dup2\n      sload\n      dup2\n      0xffffffffffffffffffffffffffffffffffffffff\n      mul\n      not\n      and\n      swap1\n      dup4\n      0xffffffffffffffffffffffffffffffffffffffff\n      and\n      mul\n      or\n      swap1\n      sstore\n      pop\n        /* \"Evm/core/variables.sol\":1434:1447  _epochManager */\n      dup1\n        /* \"Evm/core/variables.sol\":1414:1448  EpochManagerUpdated(_epochManager) */\n      0xffffffffffffffffffffffffffffffffffffffff\n      and\n      0x4b9d66d8e64dff6d9d2728f9a38da9739d3cfdbe676fde05564aae22f8508465\n      mload(0x40)\n      mload(0x40)\n      dup1\n      swap2\n      sub\n      swap1\n      log2\n        /* \"Evm/core/variables.sol\":1234:1456  function setEpochManager(address _epochManager) external {... */\n      pop\n      jump\t// out\n        /* \"Evm/core/variables.sol\":3273:3381  function getPendingCount() external view returns (uint256) {... */\n    tag_54:\n        /* \"Evm/core/variables.sol\":3323:3330  uint256 */\n      0x00\n        /* \"Evm/core/variables.sol\":3350:3366  pendingVariables */\n      0x06\n        /* \"Evm/core/variables.sol\":3350:3373  pendingVariables.length */\n      dup1\n      sload\n      swap1\n      pop\n        /* \"Evm/core/variables.sol\":3343:3373  return pendingVariables.length */\n      swap1\n      pop\n        /* \"Evm/core/variables.sol\":3273:3381  function getPendingCount() external view returns (uint256) {... */\n      swap1\n      jump\t// out\n        /* \"Evm/core/variables.sol\":423:456  IEpochManager public epochManager */\n    tag_57:\n      0x02\n      0x00\n      swap1\n      sload\n      swap1\n      0x0100\n      exp\n      swap1\n      div\n      0xffffffffffffffffffffffffffffffffffffffff\n      and\n      dup2\n      jump\t// out\n        /* \"Evm/core/variables.sol\":463:496  uint256 public lastProcessedEpoch */\n    tag_61:\n      sload(0x03)\n      dup2\n      jump\t// out\n        /* \"Evm/core/variables.sol\":2299:3076  function _checkAndHandleEpochRollover() internal {... */\n    tag_79:\n        /* \"Evm/core/variables.sol\":2359:2379  uint256 currentEpoch */\n      0x00\n        /* \"Evm/core/variables.sol\":2382:2394  epochManager */\n      0x02\n      0x00\n      swap1\n      sload\n      swap1\n      0x0100\n      exp\n      swap1\n      div\n      0xffffffffffffffffffffffffffffffffffffffff\n      and\n        /* \"Evm/core/variables.sol\":2382:2410  epochManager.getCurrentEpoch */\n      0xffffffffffffffffffffffffffffffffffffffff\n      and\n      0xb97dd9e2\n        /* \"Evm/core/variables.sol\":2382:2412  epochManager.getCurrentEpoch() */\n      mload(0x40)\n      dup2\n      0xffffffff\n      and\n      0xe0\n      shl\n      dup2\n      mstore\n      0x04\n      add\n      0x20\n      mload(0x40)\n      dup1\n      dup4\n      sub\n      dup2\n      dup7\n      gas\n      staticcall\n      iszero\n      dup1\n      iszero\n      tag_116\n      jumpi\n      returndatacopy(0x00, 0x00, returndatasize)\n      revert(0x00, returndatasize)\n    tag_116:\n      pop\n      pop\n      pop\n      pop\n      mload(0x40)\n      returndatasize\n      not(0x1f)\n      0x1f\n      dup3\n      add\n      and\n      dup3\n      add\n      dup1\n      0x40\n      mstore\n      pop\n      dup2\n      add\n      swap1\n      tag_117\n      swap2\n      swap1\n      tag_118\n      jump\t// in\n    tag_117:\n        /* \"Evm/core/variables.sol\":2359:2412  uint256 currentEpoch = epochManager.getCurrentEpoch() */\n      swap1\n      pop\n        /* \"Evm/core/variables.sol\":2452:2470  lastProcessedEpoch */\n      sload(0x03)\n        /* \"Evm/core/variables.sol\":2437:2449  currentEpoch */\n      dup2\n        /* \"Evm/core/variables.sol\":2437:2470  currentEpoch > lastProcessedEpoch */\n      gt\n        /* \"Evm/core/variables.sol\":2433:3069  if (currentEpoch > lastProcessedEpoch) {... */\n      iszero\n      tag_119\n      jumpi\n        /* \"Evm/core/variables.sol\":2629:2635  uint i */\n      0x00\n        /* \"Evm/core/variables.sol\":2638:2639  0 */\n      0x00\n        /* \"Evm/core/variables.sol\":2629:2639  uint i = 0 */\n      swap1\n      pop\n        /* \"Evm/core/variables.sol\":2624:2827  for (uint i = 0; i < pendingVariables.length; i++) {... */\n    tag_120:\n        /* \"Evm/core/variables.sol\":2645:2661  pendingVariables */\n      0x06\n        /* \"Evm/core/variables.sol\":2645:2668  pendingVariables.length */\n      dup1\n      sload\n      swap1\n      pop\n        /* \"Evm/core/variables.sol\":2641:2642  i */\n      dup2\n        /* \"Evm/core/variables.sol\":2641:2668  i < pendingVariables.length */\n      lt\n        /* \"Evm/core/variables.sol\":2624:2827  for (uint i = 0; i < pendingVariables.length; i++) {... */\n      iszero\n      tag_121\n      jumpi\n        /* \"Evm/core/variables.sol\":2694:2720  VariableEntry memory entry */\n      0x00\n        /* \"Evm/core/variables.sol\":2723:2739  pendingVariables */\n      0x06\n        /* \"Evm/core/variables.sol\":2740:2741  i */\n      dup3\n        /* \"Evm/core/variables.sol\":2723:2742  pendingVariables[i] */\n      dup2\n      sload\n      dup2\n      lt\n      tag_123\n      jumpi\n      tag_124\n      tag_125\n      jump\t// in\n    tag_124:\n    tag_123:\n      swap1\n      0x00\n      mstore\n      keccak256(0x00, 0x20)\n      swap1\n      0x03\n      mul\n      add\n        /* \"Evm/core/variables.sol\":2694:2742  VariableEntry memory entry = pendingVariables[i] */\n      mload(0x40)\n      dup1\n      0x60\n      add\n      0x40\n      mstore\n      swap1\n      dup2\n      0x00\n      dup3\n      add\n      dup1\n      sload\n      tag_127\n      swap1\n      tag_68\n      jump\t// in\n    tag_127:\n      dup1\n      0x1f\n      add\n      0x20\n      dup1\n      swap2\n      div\n      mul\n      0x20\n      add\n      mload(0x40)\n      swap1\n      dup2\n      add\n      0x40\n      mstore\n      dup1\n      swap3\n      swap2\n      swap1\n      dup2\n      dup2\n      mstore\n      0x20\n      add\n      dup3\n      dup1\n      sload\n      tag_128\n      swap1\n      tag_68\n      jump\t// in\n    tag_128:\n      dup1\n      iszero\n      tag_129\n      jumpi\n      dup1\n      0x1f\n      lt\n      tag_130\n      jumpi\n      0x0100\n      dup1\n      dup4\n      sload\n      div\n      mul\n      dup4\n      mstore\n      swap2\n      0x20\n      add\n      swap2\n      jump(tag_129)\n    tag_130:\n      dup3\n      add\n      swap2\n      swap1\n      0x00\n      mstore\n      keccak256(0x00, 0x20)\n      swap1\n    tag_131:\n      dup2\n      sload\n      dup2\n      mstore\n      swap1\n      0x01\n      add\n      swap1\n      0x20\n      add\n      dup1\n      dup4\n      gt\n      tag_131\n      jumpi\n      dup3\n      swap1\n      sub\n      0x1f\n      and\n      dup3\n      add\n      swap2\n    tag_129:\n      pop\n      pop\n      pop\n      pop\n      pop\n      dup2\n      mstore\n      0x20\n      add\n      0x01\n      dup3\n      add\n      dup1\n      sload\n      tag_132\n      swap1\n      tag_68\n      jump\t// in\n    tag_132:\n      dup1\n      0x1f\n      add\n      0x20\n      dup1\n      swap2\n      div\n      mul\n      0x20\n      add\n      mload(0x40)\n      swap1\n      dup2\n      add\n      0x40\n      mstore\n      dup1\n      swap3\n      swap2\n      swap1\n      dup2\n      dup2\n      mstore\n      0x20\n      add\n      dup3\n      dup1\n      sload\n      tag_133\n      swap1\n      tag_68\n      jump\t// in\n    tag_133:\n      dup1\n      iszero\n      tag_134\n      jumpi\n      dup1\n      0x1f\n      lt\n      tag_135\n      jumpi\n      0x0100\n      dup1\n      dup4\n      sload\n      div\n      mul\n      dup4\n      mstore\n      swap2\n      0x20\n      add\n      swap2\n      jump(tag_134)\n    tag_135:\n      dup3\n      add\n      swap2\n      swap1\n      0x00\n      mstore\n      keccak256(0x00, 0x20)\n      swap1\n    tag_136:\n      dup2\n      sload\n      dup2\n      mstore\n      swap1\n      0x01\n      add\n      swap1\n      0x20\n      add\n      dup1\n      dup4\n      gt\n      tag_136\n      jumpi\n      dup3\n      swap1\n      sub\n      0x1f\n      and\n      dup3\n      add\n      swap2\n    tag_134:\n      pop\n      pop\n      pop\n      pop\n      pop\n      dup2\n      mstore\n      0x20\n      add\n      0x02\n      dup3\n      add\n      dup1\n      sload\n      tag_137\n      swap1\n      tag_68\n      jump\t// in\n    tag_137:\n      dup1\n      0x1f\n      add\n      0x20\n      dup1\n      swap2\n      div\n      mul\n      0x20\n      add\n      mload(0x40)\n      swap1\n      dup2\n      add\n      0x40\n      mstore\n      dup1\n      swap3\n      swap2\n      swap1\n      dup2\n      dup2\n      mstore\n      0x20\n      add\n      dup3\n      dup1\n      sload\n      tag_138\n      swap1\n      tag_68\n      jump\t// in\n    tag_138:\n      dup1\n      iszero\n      tag_139\n      jumpi\n      dup1\n      0x1f\n      lt\n      tag_140\n      jumpi\n      0x0100\n      dup1\n      dup4\n      sload\n      div\n      mul\n      dup4\n      mstore\n      swap2\n      0x20\n      add\n      swap2\n      jump(tag_139)\n    tag_140:\n      dup3\n      add\n      swap2\n      swap1\n      0x00\n      mstore\n      keccak256(0x00, 0x20)\n      swap1\n    tag_141:\n      dup2\n      sload\n      dup2\n      mstore\n      swap1\n      0x01\n      add\n      swap1\n      0x20\n      add\n      dup1\n      dup4\n      gt\n      tag_141\n      jumpi\n      dup3\n      swap1\n      sub\n      0x1f\n      and\n      dup3\n      add\n      swap2\n    tag_139:\n      pop\n      pop\n      pop\n      pop\n      pop\n      dup2\n      mstore\n      pop\n      pop\n      swap1\n      pop\n        /* \"Evm/core/variables.sol\":2801:2806  entry */\n      dup1\n        /* \"Evm/core/variables.sol\":2801:2811  entry.data */\n      0x40\n      add\n      mload\n        /* \"Evm/core/variables.sol\":2761:2772  _activeData */\n      0x07\n        /* \"Evm/core/variables.sol\":2773:2778  entry */\n      dup3\n        /* \"Evm/core/variables.sol\":2773:2785  entry.header */\n      0x00\n      add\n      mload\n        /* \"Evm/core/variables.sol\":2761:2786  _activeData[entry.header] */\n      mload(0x40)\n      tag_142\n      swap2\n      swap1\n      tag_143\n      jump\t// in\n    tag_142:\n      swap1\n      dup2\n      mstore\n      0x20\n      add\n      mload(0x40)\n      dup1\n      swap2\n      sub\n      swap1\n      keccak256\n        /* \"Evm/core/variables.sol\":2787:2792  entry */\n      dup3\n        /* \"Evm/core/variables.sol\":2787:2797  entry.name */\n      0x20\n      add\n      mload\n        /* \"Evm/core/variables.sol\":2761:2798  _activeData[entry.header][entry.name] */\n      mload(0x40)\n      tag_144\n      swap2\n      swap1\n      tag_143\n      jump\t// in\n    tag_144:\n      swap1\n      dup2\n      mstore\n      0x20\n      add\n      mload(0x40)\n      dup1\n      swap2\n      sub\n      swap1\n      keccak256\n        /* \"Evm/core/variables.sol\":2761:2811  _activeData[entry.header][entry.name] = entry.data */\n      swap1\n      dup2\n      tag_145\n      swap2\n      swap1\n      tag_85\n      jump\t// in\n    tag_145:\n      pop\n        /* \"Evm/core/variables.sol\":2675:2827  {... */\n      pop\n        /* \"Evm/core/variables.sol\":2670:2673  i++ */\n      dup1\n      dup1\n      0x01\n      add\n      swap2\n      pop\n      pop\n        /* \"Evm/core/variables.sol\":2624:2827  for (uint i = 0; i < pendingVariables.length; i++) {... */\n      jump(tag_120)\n    tag_121:\n      pop\n        /* \"Evm/core/variables.sol\":2855:2868  uint256 count */\n      0x00\n        /* \"Evm/core/variables.sol\":2871:2887  pendingVariables */\n      0x06\n        /* \"Evm/core/variables.sol\":2871:2894  pendingVariables.length */\n      dup1\n      sload\n      swap1\n      pop\n        /* \"Evm/core/variables.sol\":2855:2894  uint256 count = pendingVariables.length */\n      swap1\n      pop\n        /* \"Evm/core/variables.sol\":2916:2932  pendingVariables */\n      0x06\n      0x00\n        /* \"Evm/core/variables.sol\":2909:2932  delete pendingVariables */\n      tag_146\n      swap2\n      swap1\n      tag_147\n      jump\t// in\n    tag_146:\n        /* \"Evm/core/variables.sol\":2971:2989  lastProcessedEpoch */\n      sload(0x03)\n        /* \"Evm/core/variables.sol\":2952:3009  VariablesFinalized(lastProcessedEpoch, count, activeRoot) */\n      0x1081f92591666e5fff3d8fd275844896c7116c7d6b875c80d51b9beac7893a98\n        /* \"Evm/core/variables.sol\":2991:2996  count */\n      dup3\n        /* \"Evm/core/variables.sol\":2998:3008  activeRoot */\n      sload(0x00)\n        /* \"Evm/core/variables.sol\":2952:3009  VariablesFinalized(lastProcessedEpoch, count, activeRoot) */\n      mload(0x40)\n      tag_148\n      swap3\n      swap2\n      swap1\n      tag_149\n      jump\t// in\n    tag_148:\n      mload(0x40)\n      dup1\n      swap2\n      sub\n      swap1\n      log2\n        /* \"Evm/core/variables.sol\":3045:3057  currentEpoch */\n      dup2\n        /* \"Evm/core/variables.sol\":3024:3042  lastProcessedEpoch */\n      0x03\n        /* \"Evm/core/variables.sol\":3024:3057  lastProcessedEpoch = currentEpoch */\n      dup2\n      swap1\n      sstore\n      pop\n        /* \"Evm/core/variables.sol\":2472:3069  {... */\n      pop\n        /* \"Evm/core/variables.sol\":2433:3069  if (currentEpoch > lastProcessedEpoch) {... */\n    tag_119:\n        /* \"Evm/core/variables.sol\":2348:3076  {... */\n      pop\n        /* \"Evm/core/variables.sol\":2299:3076  function _checkAndHandleEpochRollover() internal {... */\n      jump\t// out\n    tag_147:\n      pop\n      dup1\n      sload\n      0x00\n      dup3\n      sstore\n      0x03\n      mul\n      swap1\n      0x00\n      mstore\n      keccak256(0x00, 0x20)\n      swap1\n      dup2\n      add\n      swap1\n      tag_151\n      swap2\n      swap1\n      tag_152\n      jump\t// in\n    tag_151:\n      pop\n      jump\t// out\n    tag_152:\n    tag_153:\n      dup1\n      dup3\n      gt\n      iszero\n      tag_154\n      jumpi\n      0x00\n      0x00\n      dup3\n      add\n      0x00\n      tag_155\n      swap2\n      swap1\n      tag_156\n      jump\t// in\n    tag_155:\n      0x01\n      dup3\n      add\n      0x00\n      tag_157\n      swap2\n      swap1\n      tag_156\n      jump\t// in\n    tag_157:\n      0x02\n      dup3\n      add\n      0x00\n      tag_158\n      swap2\n      swap1\n      tag_159\n      jump\t// in\n    tag_158:\n      pop\n      0x03\n      add\n      jump(tag_153)\n    tag_154:\n      pop\n      swap1\n      jump\t// out\n    tag_156:\n      pop\n      dup1\n      sload\n      tag_160\n      swap1\n      tag_68\n      jump\t// in\n    tag_160:\n      0x00\n      dup3\n      sstore\n      dup1\n      0x1f\n      lt\n      tag_162\n      jumpi\n      pop\n      jump(tag_161)\n    tag_162:\n      0x1f\n      add\n      0x20\n      swap1\n      div\n      swap1\n      0x00\n      mstore\n      keccak256(0x00, 0x20)\n      swap1\n      dup2\n      add\n      swap1\n      tag_163\n      swap2\n      swap1\n      tag_164\n      jump\t// in\n    tag_163:\n    tag_161:\n      pop\n      jump\t// out\n    tag_159:\n      pop\n      dup1\n      sload\n      tag_165\n      swap1\n      tag_68\n      jump\t// in\n    tag_165:\n      0x00\n      dup3\n      sstore\n      dup1\n      0x1f\n      lt\n      tag_167\n      jumpi\n      pop\n      jump(tag_166)\n    tag_167:\n      0x1f\n      add\n      0x20\n      swap1\n      div\n      swap1\n      0x00\n      mstore\n      keccak256(0x00, 0x20)\n      swap1\n      dup2\n      add\n      swap1\n      tag_168\n      swap2\n      swap1\n      tag_164\n      jump\t// in\n    tag_168:\n    tag_166:\n      pop\n      jump\t// out\n    tag_164:\n    tag_169:\n      dup1\n      dup3\n      gt\n      iszero\n      tag_170\n      jumpi\n      0x00\n      dup2\n      0x00\n      swap1\n      sstore\n      pop\n      0x01\n      add\n      jump(tag_169)\n    tag_170:\n      pop\n      swap1\n      jump\t// out\n        /* \"#utility.yul\":88:205   */\n    tag_172:\n        /* \"#utility.yul\":197:198   */\n      0x00\n        /* \"#utility.yul\":194:195   */\n      0x00\n        /* \"#utility.yul\":187:199   */\n      revert\n        /* \"#utility.yul\":211:328   */\n    tag_173:\n        /* \"#utility.yul\":320:321   */\n      0x00\n        /* \"#utility.yul\":317:318   */\n      0x00\n        /* \"#utility.yul\":310:322   */\n      revert\n        /* \"#utility.yul\":334:451   */\n    tag_174:\n        /* \"#utility.yul\":443:444   */\n      0x00\n        /* \"#utility.yul\":440:441   */\n      0x00\n        /* \"#utility.yul\":433:445   */\n      revert\n        /* \"#utility.yul\":457:574   */\n    tag_175:\n        /* \"#utility.yul\":566:567   */\n      0x00\n        /* \"#utility.yul\":563:564   */\n      0x00\n        /* \"#utility.yul\":556:568   */\n      revert\n        /* \"#utility.yul\":580:697   */\n    tag_176:\n        /* \"#utility.yul\":689:690   */\n      0x00\n        /* \"#utility.yul\":686:687   */\n      0x00\n        /* \"#utility.yul\":679:691   */\n      revert\n        /* \"#utility.yul\":717:1270   */\n    tag_177:\n        /* \"#utility.yul\":775:783   */\n      0x00\n        /* \"#utility.yul\":785:791   */\n      0x00\n        /* \"#utility.yul\":835:838   */\n      dup4\n        /* \"#utility.yul\":828:832   */\n      0x1f\n        /* \"#utility.yul\":820:826   */\n      dup5\n        /* \"#utility.yul\":816:833   */\n      add\n        /* \"#utility.yul\":812:839   */\n      slt\n        /* \"#utility.yul\":802:924   */\n      tag_236\n      jumpi\n        /* \"#utility.yul\":843:922   */\n      tag_237\n      tag_174\n      jump\t// in\n    tag_237:\n        /* \"#utility.yul\":802:924   */\n    tag_236:\n        /* \"#utility.yul\":956:962   */\n      dup3\n        /* \"#utility.yul\":943:963   */\n      calldataload\n        /* \"#utility.yul\":933:963   */\n      swap1\n      pop\n        /* \"#utility.yul\":986:1004   */\n      0xffffffffffffffff\n        /* \"#utility.yul\":978:984   */\n      dup2\n        /* \"#utility.yul\":975:1005   */\n      gt\n        /* \"#utility.yul\":972:1089   */\n      iszero\n      tag_238\n      jumpi\n        /* \"#utility.yul\":1008:1087   */\n      tag_239\n      tag_175\n      jump\t// in\n    tag_239:\n        /* \"#utility.yul\":972:1089   */\n    tag_238:\n        /* \"#utility.yul\":1122:1126   */\n      0x20\n        /* \"#utility.yul\":1114:1120   */\n      dup4\n        /* \"#utility.yul\":1110:1127   */\n      add\n        /* \"#utility.yul\":1098:1127   */\n      swap2\n      pop\n        /* \"#utility.yul\":1176:1179   */\n      dup4\n        /* \"#utility.yul\":1168:1172   */\n      0x01\n        /* \"#utility.yul\":1160:1166   */\n      dup3\n        /* \"#utility.yul\":1156:1173   */\n      mul\n        /* \"#utility.yul\":1146:1154   */\n      dup4\n        /* \"#utility.yul\":1142:1174   */\n      add\n        /* \"#utility.yul\":1139:1180   */\n      gt\n        /* \"#utility.yul\":1136:1264   */\n      iszero\n      tag_240\n      jumpi\n        /* \"#utility.yul\":1183:1262   */\n      tag_241\n      tag_176\n      jump\t// in\n    tag_241:\n        /* \"#utility.yul\":1136:1264   */\n    tag_240:\n        /* \"#utility.yul\":717:1270   */\n      swap3\n      pop\n      swap3\n      swap1\n      pop\n      jump\t// out\n        /* \"#utility.yul\":1276:2150   */\n    tag_18:\n        /* \"#utility.yul\":1368:1374   */\n      0x00\n        /* \"#utility.yul\":1376:1382   */\n      0x00\n        /* \"#utility.yul\":1384:1390   */\n      0x00\n        /* \"#utility.yul\":1392:1398   */\n      0x00\n        /* \"#utility.yul\":1441:1443   */\n      0x40\n        /* \"#utility.yul\":1429:1438   */\n      dup6\n        /* \"#utility.yul\":1420:1427   */\n      dup8\n        /* \"#utility.yul\":1416:1439   */\n      sub\n        /* \"#utility.yul\":1412:1444   */\n      slt\n        /* \"#utility.yul\":1409:1528   */\n      iszero\n      tag_243\n      jumpi\n        /* \"#utility.yul\":1447:1526   */\n      tag_244\n      tag_172\n      jump\t// in\n    tag_244:\n        /* \"#utility.yul\":1409:1528   */\n    tag_243:\n        /* \"#utility.yul\":1595:1596   */\n      0x00\n        /* \"#utility.yul\":1584:1593   */\n      dup6\n        /* \"#utility.yul\":1580:1597   */\n      add\n        /* \"#utility.yul\":1567:1598   */\n      calldataload\n        /* \"#utility.yul\":1625:1643   */\n      0xffffffffffffffff\n        /* \"#utility.yul\":1617:1623   */\n      dup2\n        /* \"#utility.yul\":1614:1644   */\n      gt\n        /* \"#utility.yul\":1611:1728   */\n      iszero\n      tag_245\n      jumpi\n        /* \"#utility.yul\":1647:1726   */\n      tag_246\n      tag_173\n      jump\t// in\n    tag_246:\n        /* \"#utility.yul\":1611:1728   */\n    tag_245:\n        /* \"#utility.yul\":1760:1825   */\n      tag_247\n        /* \"#utility.yul\":1817:1824   */\n      dup8\n        /* \"#utility.yul\":1808:1814   */\n      dup3\n        /* \"#utility.yul\":1797:1806   */\n      dup9\n        /* \"#utility.yul\":1793:1815   */\n      add\n        /* \"#utility.yul\":1760:1825   */\n      tag_177\n      jump\t// in\n    tag_247:\n        /* \"#utility.yul\":1742:1825   */\n      swap5\n      pop\n      swap5\n      pop\n        /* \"#utility.yul\":1538:1835   */\n      pop\n        /* \"#utility.yul\":1902:1904   */\n      0x20\n        /* \"#utility.yul\":1891:1900   */\n      dup6\n        /* \"#utility.yul\":1887:1905   */\n      add\n        /* \"#utility.yul\":1874:1906   */\n      calldataload\n        /* \"#utility.yul\":1933:1951   */\n      0xffffffffffffffff\n        /* \"#utility.yul\":1925:1931   */\n      dup2\n        /* \"#utility.yul\":1922:1952   */\n      gt\n        /* \"#utility.yul\":1919:2036   */\n      iszero\n      tag_248\n      jumpi\n        /* \"#utility.yul\":1955:2034   */\n      tag_249\n      tag_173\n      jump\t// in\n    tag_249:\n        /* \"#utility.yul\":1919:2036   */\n    tag_248:\n        /* \"#utility.yul\":2068:2133   */\n      tag_250\n        /* \"#utility.yul\":2125:2132   */\n      dup8\n        /* \"#utility.yul\":2116:2122   */\n      dup3\n        /* \"#utility.yul\":2105:2114   */\n      dup9\n        /* \"#utility.yul\":2101:2123   */\n      add\n        /* \"#utility.yul\":2068:2133   */\n      tag_177\n      jump\t// in\n    tag_250:\n        /* \"#utility.yul\":2050:2133   */\n      swap3\n      pop\n      swap3\n      pop\n        /* \"#utility.yul\":1845:2143   */\n      pop\n        /* \"#utility.yul\":1276:2150   */\n      swap3\n      swap6\n      swap2\n      swap5\n      pop\n      swap3\n      pop\n      jump\t// out\n        /* \"#utility.yul\":2156:2254   */\n    tag_178:\n        /* \"#utility.yul\":2207:2213   */\n      0x00\n        /* \"#utility.yul\":2241:2246   */\n      dup2\n        /* \"#utility.yul\":2235:2247   */\n      mload\n        /* \"#utility.yul\":2225:2247   */\n      swap1\n      pop\n        /* \"#utility.yul\":2156:2254   */\n      swap2\n      swap1\n      pop\n      jump\t// out\n        /* \"#utility.yul\":2260:2428   */\n    tag_179:\n        /* \"#utility.yul\":2343:2354   */\n      0x00\n        /* \"#utility.yul\":2377:2383   */\n      dup3\n        /* \"#utility.yul\":2372:2375   */\n      dup3\n        /* \"#utility.yul\":2365:2384   */\n      mstore\n        /* \"#utility.yul\":2417:2421   */\n      0x20\n        /* \"#utility.yul\":2412:2415   */\n      dup3\n        /* \"#utility.yul\":2408:2422   */\n      add\n        /* \"#utility.yul\":2393:2422   */\n      swap1\n      pop\n        /* \"#utility.yul\":2260:2428   */\n      swap3\n      swap2\n      pop\n      pop\n      jump\t// out\n        /* \"#utility.yul\":2434:2573   */\n    tag_180:\n        /* \"#utility.yul\":2523:2529   */\n      dup3\n        /* \"#utility.yul\":2518:2521   */\n      dup2\n        /* \"#utility.yul\":2513:2516   */\n      dup4\n        /* \"#utility.yul\":2507:2530   */\n      mcopy\n        /* \"#utility.yul\":2564:2565   */\n      0x00\n        /* \"#utility.yul\":2555:2561   */\n      dup4\n        /* \"#utility.yul\":2550:2553   */\n      dup4\n        /* \"#utility.yul\":2546:2562   */\n      add\n        /* \"#utility.yul\":2539:2566   */\n      mstore\n        /* \"#utility.yul\":2434:2573   */\n      pop\n      pop\n      pop\n      jump\t// out\n        /* \"#utility.yul\":2579:2681   */\n    tag_181:\n        /* \"#utility.yul\":2620:2626   */\n      0x00\n        /* \"#utility.yul\":2671:2673   */\n      0x1f\n        /* \"#utility.yul\":2667:2674   */\n      not\n        /* \"#utility.yul\":2662:2664   */\n      0x1f\n        /* \"#utility.yul\":2655:2660   */\n      dup4\n        /* \"#utility.yul\":2651:2665   */\n      add\n        /* \"#utility.yul\":2647:2675   */\n      and\n        /* \"#utility.yul\":2637:2675   */\n      swap1\n      pop\n        /* \"#utility.yul\":2579:2681   */\n      swap2\n      swap1\n      pop\n      jump\t// out\n        /* \"#utility.yul\":2687:3060   */\n    tag_182:\n        /* \"#utility.yul\":2773:2776   */\n      0x00\n        /* \"#utility.yul\":2801:2839   */\n      tag_256\n        /* \"#utility.yul\":2833:2838   */\n      dup3\n        /* \"#utility.yul\":2801:2839   */\n      tag_178\n      jump\t// in\n    tag_256:\n        /* \"#utility.yul\":2855:2925   */\n      tag_257\n        /* \"#utility.yul\":2918:2924   */\n      dup2\n        /* \"#utility.yul\":2913:2916   */\n      dup6\n        /* \"#utility.yul\":2855:2925   */\n      tag_179\n      jump\t// in\n    tag_257:\n        /* \"#utility.yul\":2848:2925   */\n      swap4\n      pop\n        /* \"#utility.yul\":2934:2999   */\n      tag_258\n        /* \"#utility.yul\":2992:2998   */\n      dup2\n        /* \"#utility.yul\":2987:2990   */\n      dup6\n        /* \"#utility.yul\":2980:2984   */\n      0x20\n        /* \"#utility.yul\":2973:2978   */\n      dup7\n        /* \"#utility.yul\":2969:2985   */\n      add\n        /* \"#utility.yul\":2934:2999   */\n      tag_180\n      jump\t// in\n    tag_258:\n        /* \"#utility.yul\":3024:3053   */\n      tag_259\n        /* \"#utility.yul\":3046:3052   */\n      dup2\n        /* \"#utility.yul\":3024:3053   */\n      tag_181\n      jump\t// in\n    tag_259:\n        /* \"#utility.yul\":3019:3022   */\n      dup5\n        /* \"#utility.yul\":3015:3054   */\n      add\n        /* \"#utility.yul\":3008:3054   */\n      swap2\n      pop\n        /* \"#utility.yul\":2777:3060   */\n      pop\n        /* \"#utility.yul\":2687:3060   */\n      swap3\n      swap2\n      pop\n      pop\n      jump\t// out\n        /* \"#utility.yul\":3066:3375   */\n    tag_21:\n        /* \"#utility.yul\":3177:3181   */\n      0x00\n        /* \"#utility.yul\":3215:3217   */\n      0x20\n        /* \"#utility.yul\":3204:3213   */\n      dup3\n        /* \"#utility.yul\":3200:3218   */\n      add\n        /* \"#utility.yul\":3192:3218   */\n      swap1\n      pop\n        /* \"#utility.yul\":3264:3273   */\n      dup2\n        /* \"#utility.yul\":3258:3262   */\n      dup2\n        /* \"#utility.yul\":3254:3274   */\n      sub\n        /* \"#utility.yul\":3250:3251   */\n      0x00\n        /* \"#utility.yul\":3239:3248   */\n      dup4\n        /* \"#utility.yul\":3235:3252   */\n      add\n        /* \"#utility.yul\":3228:3275   */\n      mstore\n        /* \"#utility.yul\":3292:3368   */\n      tag_261\n        /* \"#utility.yul\":3363:3367   */\n      dup2\n        /* \"#utility.yul\":3354:3360   */\n      dup5\n        /* \"#utility.yul\":3292:3368   */\n      tag_182\n      jump\t// in\n    tag_261:\n        /* \"#utility.yul\":3284:3368   */\n      swap1\n      pop\n        /* \"#utility.yul\":3066:3375   */\n      swap3\n      swap2\n      pop\n      pop\n      jump\t// out\n        /* \"#utility.yul\":3394:3946   */\n    tag_183:\n        /* \"#utility.yul\":3451:3459   */\n      0x00\n        /* \"#utility.yul\":3461:3467   */\n      0x00\n        /* \"#utility.yul\":3511:3514   */\n      dup4\n        /* \"#utility.yul\":3504:3508   */\n      0x1f\n        /* \"#utility.yul\":3496:3502   */\n      dup5\n        /* \"#utility.yul\":3492:3509   */\n      add\n        /* \"#utility.yul\":3488:3515   */\n      slt\n        /* \"#utility.yul\":3478:3600   */\n      tag_263\n      jumpi\n        /* \"#utility.yul\":3519:3598   */\n      tag_264\n      tag_174\n      jump\t// in\n    tag_264:\n        /* \"#utility.yul\":3478:3600   */\n    tag_263:\n        /* \"#utility.yul\":3632:3638   */\n      dup3\n        /* \"#utility.yul\":3619:3639   */\n      calldataload\n        /* \"#utility.yul\":3609:3639   */\n      swap1\n      pop\n        /* \"#utility.yul\":3662:3680   */\n      0xffffffffffffffff\n        /* \"#utility.yul\":3654:3660   */\n      dup2\n        /* \"#utility.yul\":3651:3681   */\n      gt\n        /* \"#utility.yul\":3648:3765   */\n      iszero\n      tag_265\n      jumpi\n        /* \"#utility.yul\":3684:3763   */\n      tag_266\n      tag_175\n      jump\t// in\n    tag_266:\n        /* \"#utility.yul\":3648:3765   */\n    tag_265:\n        /* \"#utility.yul\":3798:3802   */\n      0x20\n        /* \"#utility.yul\":3790:3796   */\n      dup4\n        /* \"#utility.yul\":3786:3803   */\n      add\n        /* \"#utility.yul\":3774:3803   */\n      swap2\n      pop\n        /* \"#utility.yul\":3852:3855   */\n      dup4\n        /* \"#utility.yul\":3844:3848   */\n      0x01\n        /* \"#utility.yul\":3836:3842   */\n      dup3\n        /* \"#utility.yul\":3832:3849   */\n      mul\n        /* \"#utility.yul\":3822:3830   */\n      dup4\n        /* \"#utility.yul\":3818:3850   */\n      add\n        /* \"#utility.yul\":3815:3856   */\n      gt\n        /* \"#utility.yul\":3812:3940   */\n      iszero\n      tag_267\n      jumpi\n        /* \"#utility.yul\":3859:3938   */\n      tag_268\n      tag_176\n      jump\t// in\n    tag_268:\n        /* \"#utility.yul\":3812:3940   */\n    tag_267:\n        /* \"#utility.yul\":3394:3946   */\n      swap3\n      pop\n      swap3\n      swap1\n      pop\n      jump\t// out\n        /* \"#utility.yul\":3952:5169   */\n    tag_24:\n        /* \"#utility.yul\":4064:4070   */\n      0x00\n        /* \"#utility.yul\":4072:4078   */\n      0x00\n        /* \"#utility.yul\":4080:4086   */\n      0x00\n        /* \"#utility.yul\":4088:4094   */\n      0x00\n        /* \"#utility.yul\":4096:4102   */\n      0x00\n        /* \"#utility.yul\":4104:4110   */\n      0x00\n        /* \"#utility.yul\":4153:4155   */\n      0x60\n        /* \"#utility.yul\":4141:4150   */\n      dup8\n        /* \"#utility.yul\":4132:4139   */\n      dup10\n        /* \"#utility.yul\":4128:4151   */\n      sub\n        /* \"#utility.yul\":4124:4156   */\n      slt\n        /* \"#utility.yul\":4121:4240   */\n      iszero\n      tag_270\n      jumpi\n        /* \"#utility.yul\":4159:4238   */\n      tag_271\n      tag_172\n      jump\t// in\n    tag_271:\n        /* \"#utility.yul\":4121:4240   */\n    tag_270:\n        /* \"#utility.yul\":4307:4308   */\n      0x00\n        /* \"#utility.yul\":4296:4305   */\n      dup8\n        /* \"#utility.yul\":4292:4309   */\n      add\n        /* \"#utility.yul\":4279:4310   */\n      calldataload\n        /* \"#utility.yul\":4337:4355   */\n      0xffffffffffffffff\n        /* \"#utility.yul\":4329:4335   */\n      dup2\n        /* \"#utility.yul\":4326:4356   */\n      gt\n        /* \"#utility.yul\":4323:4440   */\n      iszero\n      tag_272\n      jumpi\n        /* \"#utility.yul\":4359:4438   */\n      tag_273\n      tag_173\n      jump\t// in\n    tag_273:\n        /* \"#utility.yul\":4323:4440   */\n    tag_272:\n        /* \"#utility.yul\":4472:4537   */\n      tag_274\n        /* \"#utility.yul\":4529:4536   */\n      dup10\n        /* \"#utility.yul\":4520:4526   */\n      dup3\n        /* \"#utility.yul\":4509:4518   */\n      dup11\n        /* \"#utility.yul\":4505:4527   */\n      add\n        /* \"#utility.yul\":4472:4537   */\n      tag_177\n      jump\t// in\n    tag_274:\n        /* \"#utility.yul\":4454:4537   */\n      swap7\n      pop\n      swap7\n      pop\n        /* \"#utility.yul\":4250:4547   */\n      pop\n        /* \"#utility.yul\":4614:4616   */\n      0x20\n        /* \"#utility.yul\":4603:4612   */\n      dup8\n        /* \"#utility.yul\":4599:4617   */\n      add\n        /* \"#utility.yul\":4586:4618   */\n      calldataload\n        /* \"#utility.yul\":4645:4663   */\n      0xffffffffffffffff\n        /* \"#utility.yul\":4637:4643   */\n      dup2\n        /* \"#utility.yul\":4634:4664   */\n      gt\n        /* \"#utility.yul\":4631:4748   */\n      iszero\n      tag_275\n      jumpi\n        /* \"#utility.yul\":4667:4746   */\n      tag_276\n      tag_173\n      jump\t// in\n    tag_276:\n        /* \"#utility.yul\":4631:4748   */\n    tag_275:\n        /* \"#utility.yul\":4780:4845   */\n      tag_277\n        /* \"#utility.yul\":4837:4844   */\n      dup10\n        /* \"#utility.yul\":4828:4834   */\n      dup3\n        /* \"#utility.yul\":4817:4826   */\n      dup11\n        /* \"#utility.yul\":4813:4835   */\n      add\n        /* \"#utility.yul\":4780:4845   */\n      tag_177\n      jump\t// in\n    tag_277:\n        /* \"#utility.yul\":4762:4845   */\n      swap5\n      pop\n      swap5\n      pop\n        /* \"#utility.yul\":4557:4855   */\n      pop\n        /* \"#utility.yul\":4922:4924   */\n      0x40\n        /* \"#utility.yul\":4911:4920   */\n      dup8\n        /* \"#utility.yul\":4907:4925   */\n      add\n        /* \"#utility.yul\":4894:4926   */\n      calldataload\n        /* \"#utility.yul\":4953:4971   */\n      0xffffffffffffffff\n        /* \"#utility.yul\":4945:4951   */\n      dup2\n        /* \"#utility.yul\":4942:4972   */\n      gt\n        /* \"#utility.yul\":4939:5056   */\n      iszero\n      tag_278\n      jumpi\n        /* \"#utility.yul\":4975:5054   */\n      tag_279\n      tag_173\n      jump\t// in\n    tag_279:\n        /* \"#utility.yul\":4939:5056   */\n    tag_278:\n        /* \"#utility.yul\":5088:5152   */\n      tag_280\n        /* \"#utility.yul\":5144:5151   */\n      dup10\n        /* \"#utility.yul\":5135:5141   */\n      dup3\n        /* \"#utility.yul\":5124:5133   */\n      dup11\n        /* \"#utility.yul\":5120:5142   */\n      add\n        /* \"#utility.yul\":5088:5152   */\n      tag_183\n      jump\t// in\n    tag_280:\n        /* \"#utility.yul\":5070:5152   */\n      swap3\n      pop\n      swap3\n      pop\n        /* \"#utility.yul\":4865:5162   */\n      pop\n        /* \"#utility.yul\":3952:5169   */\n      swap3\n      swap6\n      pop\n      swap3\n      swap6\n      pop\n      swap3\n      swap6\n      jump\t// out\n        /* \"#utility.yul\":5175:5252   */\n    tag_184:\n        /* \"#utility.yul\":5212:5219   */\n      0x00\n        /* \"#utility.yul\":5241:5246   */\n      dup2\n        /* \"#utility.yul\":5230:5246   */\n      swap1\n      pop\n        /* \"#utility.yul\":5175:5252   */\n      swap2\n      swap1\n      pop\n      jump\t// out\n        /* \"#utility.yul\":5258:5380   */\n    tag_185:\n        /* \"#utility.yul\":5331:5355   */\n      tag_283\n        /* \"#utility.yul\":5349:5354   */\n      dup2\n        /* \"#utility.yul\":5331:5355   */\n      tag_184\n      jump\t// in\n    tag_283:\n        /* \"#utility.yul\":5324:5329   */\n      dup2\n        /* \"#utility.yul\":5321:5356   */\n      eq\n        /* \"#utility.yul\":5311:5374   */\n      tag_284\n      jumpi\n        /* \"#utility.yul\":5370:5371   */\n      0x00\n        /* \"#utility.yul\":5367:5368   */\n      0x00\n        /* \"#utility.yul\":5360:5372   */\n      revert\n        /* \"#utility.yul\":5311:5374   */\n    tag_284:\n        /* \"#utility.yul\":5258:5380   */\n      pop\n      jump\t// out\n        /* \"#utility.yul\":5386:5525   */\n    tag_186:\n        /* \"#utility.yul\":5432:5437   */\n      0x00\n        /* \"#utility.yul\":5470:5476   */\n      dup2\n        /* \"#utility.yul\":5457:5477   */\n      calldataload\n        /* \"#utility.yul\":5448:5477   */\n      swap1\n      pop\n        /* \"#utility.yul\":5486:5519   */\n      tag_286\n        /* \"#utility.yul\":5513:5518   */\n      dup2\n        /* \"#utility.yul\":5486:5519   */\n      tag_185\n      jump\t// in\n    tag_286:\n        /* \"#utility.yul\":5386:5525   */\n      swap3\n      swap2\n      pop\n      pop\n      jump\t// out\n        /* \"#utility.yul\":5531:5860   */\n    tag_28:\n        /* \"#utility.yul\":5590:5596   */\n      0x00\n        /* \"#utility.yul\":5639:5641   */\n      0x20\n        /* \"#utility.yul\":5627:5636   */\n      dup3\n        /* \"#utility.yul\":5618:5625   */\n      dup5\n        /* \"#utility.yul\":5614:5637   */\n      sub\n        /* \"#utility.yul\":5610:5642   */\n      slt\n        /* \"#utility.yul\":5607:5726   */\n      iszero\n      tag_288\n      jumpi\n        /* \"#utility.yul\":5645:5724   */\n      tag_289\n      tag_172\n      jump\t// in\n    tag_289:\n        /* \"#utility.yul\":5607:5726   */\n    tag_288:\n        /* \"#utility.yul\":5765:5766   */\n      0x00\n        /* \"#utility.yul\":5790:5843   */\n      tag_290\n        /* \"#utility.yul\":5835:5842   */\n      dup5\n        /* \"#utility.yul\":5826:5832   */\n      dup3\n        /* \"#utility.yul\":5815:5824   */\n      dup6\n        /* \"#utility.yul\":5811:5833   */\n      add\n        /* \"#utility.yul\":5790:5843   */\n      tag_186\n      jump\t// in\n    tag_290:\n        /* \"#utility.yul\":5780:5843   */\n      swap2\n      pop\n        /* \"#utility.yul\":5736:5853   */\n      pop\n        /* \"#utility.yul\":5531:5860   */\n      swap3\n      swap2\n      pop\n      pop\n      jump\t// out\n        /* \"#utility.yul\":5866:5965   */\n    tag_187:\n        /* \"#utility.yul\":5918:5924   */\n      0x00\n        /* \"#utility.yul\":5952:5957   */\n      dup2\n        /* \"#utility.yul\":5946:5958   */\n      mload\n        /* \"#utility.yul\":5936:5958   */\n      swap1\n      pop\n        /* \"#utility.yul\":5866:5965   */\n      swap2\n      swap1\n      pop\n      jump\t// out\n        /* \"#utility.yul\":5971:6140   */\n    tag_188:\n        /* \"#utility.yul\":6055:6066   */\n      0x00\n        /* \"#utility.yul\":6089:6095   */\n      dup3\n        /* \"#utility.yul\":6084:6087   */\n      dup3\n        /* \"#utility.yul\":6077:6096   */\n      mstore\n        /* \"#utility.yul\":6129:6133   */\n      0x20\n        /* \"#utility.yul\":6124:6127   */\n      dup3\n        /* \"#utility.yul\":6120:6134   */\n      add\n        /* \"#utility.yul\":6105:6134   */\n      swap1\n      pop\n        /* \"#utility.yul\":5971:6140   */\n      swap3\n      swap2\n      pop\n      pop\n      jump\t// out\n        /* \"#utility.yul\":6146:6523   */\n    tag_189:\n        /* \"#utility.yul\":6234:6237   */\n      0x00\n        /* \"#utility.yul\":6262:6301   */\n      tag_294\n        /* \"#utility.yul\":6295:6300   */\n      dup3\n        /* \"#utility.yul\":6262:6301   */\n      tag_187\n      jump\t// in\n    tag_294:\n        /* \"#utility.yul\":6317:6388   */\n      tag_295\n        /* \"#utility.yul\":6381:6387   */\n      dup2\n        /* \"#utility.yul\":6376:6379   */\n      dup6\n        /* \"#utility.yul\":6317:6388   */\n      tag_188\n      jump\t// in\n    tag_295:\n        /* \"#utility.yul\":6310:6388   */\n      swap4\n      pop\n        /* \"#utility.yul\":6397:6462   */\n      tag_296\n        /* \"#utility.yul\":6455:6461   */\n      dup2\n        /* \"#utility.yul\":6450:6453   */\n      dup6\n        /* \"#utility.yul\":6443:6447   */\n      0x20\n        /* \"#utility.yul\":6436:6441   */\n      dup7\n        /* \"#utility.yul\":6432:6448   */\n      add\n        /* \"#utility.yul\":6397:6462   */\n      tag_180\n      jump\t// in\n    tag_296:\n        /* \"#utility.yul\":6487:6516   */\n      tag_297\n        /* \"#utility.yul\":6509:6515   */\n      dup2\n        /* \"#utility.yul\":6487:6516   */\n      tag_181\n      jump\t// in\n    tag_297:\n        /* \"#utility.yul\":6482:6485   */\n      dup5\n        /* \"#utility.yul\":6478:6517   */\n      add\n        /* \"#utility.yul\":6471:6517   */\n      swap2\n      pop\n        /* \"#utility.yul\":6238:6523   */\n      pop\n        /* \"#utility.yul\":6146:6523   */\n      swap3\n      swap2\n      pop\n      pop\n      jump\t// out\n        /* \"#utility.yul\":6529:7240   */\n    tag_31:\n        /* \"#utility.yul\":6736:6740   */\n      0x00\n        /* \"#utility.yul\":6774:6776   */\n      0x60\n        /* \"#utility.yul\":6763:6772   */\n      dup3\n        /* \"#utility.yul\":6759:6777   */\n      add\n        /* \"#utility.yul\":6751:6777   */\n      swap1\n      pop\n        /* \"#utility.yul\":6823:6832   */\n      dup2\n        /* \"#utility.yul\":6817:6821   */\n      dup2\n        /* \"#utility.yul\":6813:6833   */\n      sub\n        /* \"#utility.yul\":6809:6810   */\n      0x00\n        /* \"#utility.yul\":6798:6807   */\n      dup4\n        /* \"#utility.yul\":6794:6811   */\n      add\n        /* \"#utility.yul\":6787:6834   */\n      mstore\n        /* \"#utility.yul\":6851:6929   */\n      tag_299\n        /* \"#utility.yul\":6924:6928   */\n      dup2\n        /* \"#utility.yul\":6915:6921   */\n      dup7\n        /* \"#utility.yul\":6851:6929   */\n      tag_189\n      jump\t// in\n    tag_299:\n        /* \"#utility.yul\":6843:6929   */\n      swap1\n      pop\n        /* \"#utility.yul\":6976:6985   */\n      dup2\n        /* \"#utility.yul\":6970:6974   */\n      dup2\n        /* \"#utility.yul\":6966:6986   */\n      sub\n        /* \"#utility.yul\":6961:6963   */\n      0x20\n        /* \"#utility.yul\":6950:6959   */\n      dup4\n        /* \"#utility.yul\":6946:6964   */\n      add\n        /* \"#utility.yul\":6939:6987   */\n      mstore\n        /* \"#utility.yul\":7004:7082   */\n      tag_300\n        /* \"#utility.yul\":7077:7081   */\n      dup2\n        /* \"#utility.yul\":7068:7074   */\n      dup6\n        /* \"#utility.yul\":7004:7082   */\n      tag_189\n      jump\t// in\n    tag_300:\n        /* \"#utility.yul\":6996:7082   */\n      swap1\n      pop\n        /* \"#utility.yul\":7129:7138   */\n      dup2\n        /* \"#utility.yul\":7123:7127   */\n      dup2\n        /* \"#utility.yul\":7119:7139   */\n      sub\n        /* \"#utility.yul\":7114:7116   */\n      0x40\n        /* \"#utility.yul\":7103:7112   */\n      dup4\n        /* \"#utility.yul\":7099:7117   */\n      add\n        /* \"#utility.yul\":7092:7140   */\n      mstore\n        /* \"#utility.yul\":7157:7233   */\n      tag_301\n        /* \"#utility.yul\":7228:7232   */\n      dup2\n        /* \"#utility.yul\":7219:7225   */\n      dup5\n        /* \"#utility.yul\":7157:7233   */\n      tag_182\n      jump\t// in\n    tag_301:\n        /* \"#utility.yul\":7149:7233   */\n      swap1\n      pop\n        /* \"#utility.yul\":6529:7240   */\n      swap5\n      swap4\n      pop\n      pop\n      pop\n      pop\n      jump\t// out\n        /* \"#utility.yul\":7246:7364   */\n    tag_190:\n        /* \"#utility.yul\":7333:7357   */\n      tag_303\n        /* \"#utility.yul\":7351:7356   */\n      dup2\n        /* \"#utility.yul\":7333:7357   */\n      tag_184\n      jump\t// in\n    tag_303:\n        /* \"#utility.yul\":7328:7331   */\n      dup3\n        /* \"#utility.yul\":7321:7358   */\n      mstore\n        /* \"#utility.yul\":7246:7364   */\n      pop\n      pop\n      jump\t// out\n        /* \"#utility.yul\":7370:7592   */\n    tag_35:\n        /* \"#utility.yul\":7463:7467   */\n      0x00\n        /* \"#utility.yul\":7501:7503   */\n      0x20\n        /* \"#utility.yul\":7490:7499   */\n      dup3\n        /* \"#utility.yul\":7486:7504   */\n      add\n        /* \"#utility.yul\":7478:7504   */\n      swap1\n      pop\n        /* \"#utility.yul\":7514:7585   */\n      tag_305\n        /* \"#utility.yul\":7582:7583   */\n      0x00\n        /* \"#utility.yul\":7571:7580   */\n      dup4\n        /* \"#utility.yul\":7567:7584   */\n      add\n        /* \"#utility.yul\":7558:7564   */\n      dup5\n        /* \"#utility.yul\":7514:7585   */\n      tag_190\n      jump\t// in\n    tag_305:\n        /* \"#utility.yul\":7370:7592   */\n      swap3\n      swap2\n      pop\n      pop\n      jump\t// out\n        /* \"#utility.yul\":7598:7724   */\n    tag_191:\n        /* \"#utility.yul\":7635:7642   */\n      0x00\n        /* \"#utility.yul\":7675:7717   */\n      0xffffffffffffffffffffffffffffffffffffffff\n        /* \"#utility.yul\":7668:7673   */\n      dup3\n        /* \"#utility.yul\":7664:7718   */\n      and\n        /* \"#utility.yul\":7653:7718   */\n      swap1\n      pop\n        /* \"#utility.yul\":7598:7724   */\n      swap2\n      swap1\n      pop\n      jump\t// out\n        /* \"#utility.yul\":7730:7826   */\n    tag_192:\n        /* \"#utility.yul\":7767:7774   */\n      0x00\n        /* \"#utility.yul\":7796:7820   */\n      tag_308\n        /* \"#utility.yul\":7814:7819   */\n      dup3\n        /* \"#utility.yul\":7796:7820   */\n      tag_191\n      jump\t// in\n    tag_308:\n        /* \"#utility.yul\":7785:7820   */\n      swap1\n      pop\n        /* \"#utility.yul\":7730:7826   */\n      swap2\n      swap1\n      pop\n      jump\t// out\n        /* \"#utility.yul\":7832:7950   */\n    tag_193:\n        /* \"#utility.yul\":7919:7943   */\n      tag_310\n        /* \"#utility.yul\":7937:7942   */\n      dup2\n        /* \"#utility.yul\":7919:7943   */\n      tag_192\n      jump\t// in\n    tag_310:\n        /* \"#utility.yul\":7914:7917   */\n      dup3\n        /* \"#utility.yul\":7907:7944   */\n      mstore\n        /* \"#utility.yul\":7832:7950   */\n      pop\n      pop\n      jump\t// out\n        /* \"#utility.yul\":7956:8178   */\n    tag_39:\n        /* \"#utility.yul\":8049:8053   */\n      0x00\n        /* \"#utility.yul\":8087:8089   */\n      0x20\n        /* \"#utility.yul\":8076:8085   */\n      dup3\n        /* \"#utility.yul\":8072:8090   */\n      add\n        /* \"#utility.yul\":8064:8090   */\n      swap1\n      pop\n        /* \"#utility.yul\":8100:8171   */\n      tag_312\n        /* \"#utility.yul\":8168:8169   */\n      0x00\n        /* \"#utility.yul\":8157:8166   */\n      dup4\n        /* \"#utility.yul\":8153:8170   */\n      add\n        /* \"#utility.yul\":8144:8150   */\n      dup5\n        /* \"#utility.yul\":8100:8171   */\n      tag_193\n      jump\t// in\n    tag_312:\n        /* \"#utility.yul\":7956:8178   */\n      swap3\n      swap2\n      pop\n      pop\n      jump\t// out\n        /* \"#utility.yul\":8184:8306   */\n    tag_194:\n        /* \"#utility.yul\":8257:8281   */\n      tag_314\n        /* \"#utility.yul\":8275:8280   */\n      dup2\n        /* \"#utility.yul\":8257:8281   */\n      tag_192\n      jump\t// in\n    tag_314:\n        /* \"#utility.yul\":8250:8255   */\n      dup2\n        /* \"#utility.yul\":8247:8282   */\n      eq\n        /* \"#utility.yul\":8237:8300   */\n      tag_315\n      jumpi\n        /* \"#utility.yul\":8296:8297   */\n      0x00\n        /* \"#utility.yul\":8293:8294   */\n      0x00\n        /* \"#utility.yul\":8286:8298   */\n      revert\n        /* \"#utility.yul\":8237:8300   */\n    tag_315:\n        /* \"#utility.yul\":8184:8306   */\n      pop\n      jump\t// out\n        /* \"#utility.yul\":8312:8451   */\n    tag_195:\n        /* \"#utility.yul\":8358:8363   */\n      0x00\n        /* \"#utility.yul\":8396:8402   */\n      dup2\n        /* \"#utility.yul\":8383:8403   */\n      calldataload\n        /* \"#utility.yul\":8374:8403   */\n      swap1\n      pop\n        /* \"#utility.yul\":8412:8445   */\n      tag_317\n        /* \"#utility.yul\":8439:8444   */\n      dup2\n        /* \"#utility.yul\":8412:8445   */\n      tag_194\n      jump\t// in\n    tag_317:\n        /* \"#utility.yul\":8312:8451   */\n      swap3\n      swap2\n      pop\n      pop\n      jump\t// out\n        /* \"#utility.yul\":8457:8786   */\n    tag_42:\n        /* \"#utility.yul\":8516:8522   */\n      0x00\n        /* \"#utility.yul\":8565:8567   */\n      0x20\n        /* \"#utility.yul\":8553:8562   */\n      dup3\n        /* \"#utility.yul\":8544:8551   */\n      dup5\n        /* \"#utility.yul\":8540:8563   */\n      sub\n        /* \"#utility.yul\":8536:8568   */\n      slt\n        /* \"#utility.yul\":8533:8652   */\n      iszero\n      tag_319\n      jumpi\n        /* \"#utility.yul\":8571:8650   */\n      tag_320\n      tag_172\n      jump\t// in\n    tag_320:\n        /* \"#utility.yul\":8533:8652   */\n    tag_319:\n        /* \"#utility.yul\":8691:8692   */\n      0x00\n        /* \"#utility.yul\":8716:8769   */\n      tag_321\n        /* \"#utility.yul\":8761:8768   */\n      dup5\n        /* \"#utility.yul\":8752:8758   */\n      dup3\n        /* \"#utility.yul\":8741:8750   */\n      dup6\n        /* \"#utility.yul\":8737:8759   */\n      add\n        /* \"#utility.yul\":8716:8769   */\n      tag_195\n      jump\t// in\n    tag_321:\n        /* \"#utility.yul\":8706:8769   */\n      swap2\n      pop\n        /* \"#utility.yul\":8662:8779   */\n      pop\n        /* \"#utility.yul\":8457:8786   */\n      swap3\n      swap2\n      pop\n      pop\n      jump\t// out\n        /* \"#utility.yul\":8792:8852   */\n    tag_196:\n        /* \"#utility.yul\":8820:8823   */\n      0x00\n        /* \"#utility.yul\":8841:8846   */\n      dup2\n        /* \"#utility.yul\":8834:8846   */\n      swap1\n      pop\n        /* \"#utility.yul\":8792:8852   */\n      swap2\n      swap1\n      pop\n      jump\t// out\n        /* \"#utility.yul\":8858:9000   */\n    tag_197:\n        /* \"#utility.yul\":8908:8917   */\n      0x00\n        /* \"#utility.yul\":8941:8994   */\n      tag_324\n        /* \"#utility.yul\":8959:8993   */\n      tag_325\n        /* \"#utility.yul\":8968:8992   */\n      tag_326\n        /* \"#utility.yul\":8986:8991   */\n      dup5\n        /* \"#utility.yul\":8968:8992   */\n      tag_191\n      jump\t// in\n    tag_326:\n        /* \"#utility.yul\":8959:8993   */\n      tag_196\n      jump\t// in\n    tag_325:\n        /* \"#utility.yul\":8941:8994   */\n      tag_191\n      jump\t// in\n    tag_324:\n        /* \"#utility.yul\":8928:8994   */\n      swap1\n      pop\n        /* \"#utility.yul\":8858:9000   */\n      swap2\n      swap1\n      pop\n      jump\t// out\n        /* \"#utility.yul\":9006:9132   */\n    tag_198:\n        /* \"#utility.yul\":9056:9065   */\n      0x00\n        /* \"#utility.yul\":9089:9126   */\n      tag_328\n        /* \"#utility.yul\":9120:9125   */\n      dup3\n        /* \"#utility.yul\":9089:9126   */\n      tag_197\n      jump\t// in\n    tag_328:\n        /* \"#utility.yul\":9076:9126   */\n      swap1\n      pop\n        /* \"#utility.yul\":9006:9132   */\n      swap2\n      swap1\n      pop\n      jump\t// out\n        /* \"#utility.yul\":9138:9283   */\n    tag_199:\n        /* \"#utility.yul\":9207:9216   */\n      0x00\n        /* \"#utility.yul\":9240:9277   */\n      tag_330\n        /* \"#utility.yul\":9271:9276   */\n      dup3\n        /* \"#utility.yul\":9240:9277   */\n      tag_198\n      jump\t// in\n    tag_330:\n        /* \"#utility.yul\":9227:9277   */\n      swap1\n      pop\n        /* \"#utility.yul\":9138:9283   */\n      swap2\n      swap1\n      pop\n      jump\t// out\n        /* \"#utility.yul\":9289:9458   */\n    tag_200:\n        /* \"#utility.yul\":9395:9451   */\n      tag_332\n        /* \"#utility.yul\":9445:9450   */\n      dup2\n        /* \"#utility.yul\":9395:9451   */\n      tag_199\n      jump\t// in\n    tag_332:\n        /* \"#utility.yul\":9390:9393   */\n      dup3\n        /* \"#utility.yul\":9383:9452   */\n      mstore\n        /* \"#utility.yul\":9289:9458   */\n      pop\n      pop\n      jump\t// out\n        /* \"#utility.yul\":9464:9724   */\n    tag_59:\n        /* \"#utility.yul\":9576:9580   */\n      0x00\n        /* \"#utility.yul\":9614:9616   */\n      0x20\n        /* \"#utility.yul\":9603:9612   */\n      dup3\n        /* \"#utility.yul\":9599:9617   */\n      add\n        /* \"#utility.yul\":9591:9617   */\n      swap1\n      pop\n        /* \"#utility.yul\":9627:9717   */\n      tag_334\n        /* \"#utility.yul\":9714:9715   */\n      0x00\n        /* \"#utility.yul\":9703:9712   */\n      dup4\n        /* \"#utility.yul\":9699:9716   */\n      add\n        /* \"#utility.yul\":9690:9696   */\n      dup5\n        /* \"#utility.yul\":9627:9717   */\n      tag_200\n      jump\t// in\n    tag_334:\n        /* \"#utility.yul\":9464:9724   */\n      swap3\n      swap2\n      pop\n      pop\n      jump\t// out\n        /* \"#utility.yul\":9730:9878   */\n    tag_201:\n        /* \"#utility.yul\":9832:9843   */\n      0x00\n        /* \"#utility.yul\":9869:9872   */\n      dup2\n        /* \"#utility.yul\":9854:9872   */\n      swap1\n      pop\n        /* \"#utility.yul\":9730:9878   */\n      swap3\n      swap2\n      pop\n      pop\n      jump\t// out\n        /* \"#utility.yul\":9884:10032   */\n    tag_202:\n        /* \"#utility.yul\":9982:9988   */\n      dup3\n        /* \"#utility.yul\":9977:9980   */\n      dup2\n        /* \"#utility.yul\":9972:9975   */\n      dup4\n        /* \"#utility.yul\":9959:9989   */\n      calldatacopy\n        /* \"#utility.yul\":10023:10024   */\n      0x00\n        /* \"#utility.yul\":10014:10020   */\n      dup4\n        /* \"#utility.yul\":10009:10012   */\n      dup4\n        /* \"#utility.yul\":10005:10021   */\n      add\n        /* \"#utility.yul\":9998:10025   */\n      mstore\n        /* \"#utility.yul\":9884:10032   */\n      pop\n      pop\n      pop\n      jump\t// out\n        /* \"#utility.yul\":10062:10392   */\n    tag_203:\n        /* \"#utility.yul\":10178:10181   */\n      0x00\n        /* \"#utility.yul\":10199:10288   */\n      tag_338\n        /* \"#utility.yul\":10281:10287   */\n      dup4\n        /* \"#utility.yul\":10276:10279   */\n      dup6\n        /* \"#utility.yul\":10199:10288   */\n      tag_201\n      jump\t// in\n    tag_338:\n        /* \"#utility.yul\":10192:10288   */\n      swap4\n      pop\n        /* \"#utility.yul\":10298:10354   */\n      tag_339\n        /* \"#utility.yul\":10347:10353   */\n      dup4\n        /* \"#utility.yul\":10342:10345   */\n      dup6\n        /* \"#utility.yul\":10335:10340   */\n      dup5\n        /* \"#utility.yul\":10298:10354   */\n      tag_202\n      jump\t// in\n    tag_339:\n        /* \"#utility.yul\":10379:10385   */\n      dup3\n        /* \"#utility.yul\":10374:10377   */\n      dup5\n        /* \"#utility.yul\":10370:10386   */\n      add\n        /* \"#utility.yul\":10363:10386   */\n      swap1\n      pop\n        /* \"#utility.yul\":10062:10392   */\n      swap4\n      swap3\n      pop\n      pop\n      pop\n      jump\t// out\n        /* \"#utility.yul\":10398:10693   */\n    tag_65:\n        /* \"#utility.yul\":10540:10543   */\n      0x00\n        /* \"#utility.yul\":10562:10667   */\n      tag_341\n        /* \"#utility.yul\":10663:10666   */\n      dup3\n        /* \"#utility.yul\":10654:10660   */\n      dup5\n        /* \"#utility.yul\":10646:10652   */\n      dup7\n        /* \"#utility.yul\":10562:10667   */\n      tag_203\n      jump\t// in\n    tag_341:\n        /* \"#utility.yul\":10555:10667   */\n      swap2\n      pop\n        /* \"#utility.yul\":10684:10687   */\n      dup2\n        /* \"#utility.yul\":10677:10687   */\n      swap1\n      pop\n        /* \"#utility.yul\":10398:10693   */\n      swap4\n      swap3\n      pop\n      pop\n      pop\n      jump\t// out\n        /* \"#utility.yul\":10699:10879   */\n    tag_204:\n        /* \"#utility.yul\":10747:10824   */\n      0x4e487b7100000000000000000000000000000000000000000000000000000000\n        /* \"#utility.yul\":10744:10745   */\n      0x00\n        /* \"#utility.yul\":10737:10825   */\n      mstore\n        /* \"#utility.yul\":10844:10848   */\n      0x22\n        /* \"#utility.yul\":10841:10842   */\n      0x04\n        /* \"#utility.yul\":10834:10849   */\n      mstore\n        /* \"#utility.yul\":10868:10872   */\n      0x24\n        /* \"#utility.yul\":10865:10866   */\n      0x00\n        /* \"#utility.yul\":10858:10873   */\n      revert\n        /* \"#utility.yul\":10885:11205   */\n    tag_68:\n        /* \"#utility.yul\":10929:10935   */\n      0x00\n        /* \"#utility.yul\":10966:10967   */\n      0x02\n        /* \"#utility.yul\":10960:10964   */\n      dup3\n        /* \"#utility.yul\":10956:10968   */\n      div\n        /* \"#utility.yul\":10946:10968   */\n      swap1\n      pop\n        /* \"#utility.yul\":11013:11014   */\n      0x01\n        /* \"#utility.yul\":11007:11011   */\n      dup3\n        /* \"#utility.yul\":11003:11015   */\n      and\n        /* \"#utility.yul\":11034:11052   */\n      dup1\n        /* \"#utility.yul\":11024:11105   */\n      tag_344\n      jumpi\n        /* \"#utility.yul\":11090:11094   */\n      0x7f\n        /* \"#utility.yul\":11082:11088   */\n      dup3\n        /* \"#utility.yul\":11078:11095   */\n      and\n        /* \"#utility.yul\":11068:11095   */\n      swap2\n      pop\n        /* \"#utility.yul\":11024:11105   */\n    tag_344:\n        /* \"#utility.yul\":11152:11154   */\n      0x20\n        /* \"#utility.yul\":11144:11150   */\n      dup3\n        /* \"#utility.yul\":11141:11155   */\n      lt\n        /* \"#utility.yul\":11121:11139   */\n      dup2\n        /* \"#utility.yul\":11118:11156   */\n      sub\n        /* \"#utility.yul\":11115:11199   */\n      tag_345\n      jumpi\n        /* \"#utility.yul\":11171:11189   */\n      tag_346\n      tag_204\n      jump\t// in\n    tag_346:\n        /* \"#utility.yul\":11115:11199   */\n    tag_345:\n        /* \"#utility.yul\":10936:11205   */\n      pop\n        /* \"#utility.yul\":10885:11205   */\n      swap2\n      swap1\n      pop\n      jump\t// out\n        /* \"#utility.yul\":11211:11375   */\n    tag_205:\n        /* \"#utility.yul\":11351:11367   */\n      0x4e6f7420617574686f72697a6564000000000000000000000000000000000000\n        /* \"#utility.yul\":11347:11348   */\n      0x00\n        /* \"#utility.yul\":11339:11345   */\n      dup3\n        /* \"#utility.yul\":11335:11349   */\n      add\n        /* \"#utility.yul\":11328:11368   */\n      mstore\n        /* \"#utility.yul\":11211:11375   */\n      pop\n      jump\t// out\n        /* \"#utility.yul\":11381:11747   */\n    tag_206:\n        /* \"#utility.yul\":11523:11526   */\n      0x00\n        /* \"#utility.yul\":11544:11611   */\n      tag_349\n        /* \"#utility.yul\":11608:11610   */\n      0x0e\n        /* \"#utility.yul\":11603:11606   */\n      dup4\n        /* \"#utility.yul\":11544:11611   */\n      tag_188\n      jump\t// in\n    tag_349:\n        /* \"#utility.yul\":11537:11611   */\n      swap2\n      pop\n        /* \"#utility.yul\":11620:11713   */\n      tag_350\n        /* \"#utility.yul\":11709:11712   */\n      dup3\n        /* \"#utility.yul\":11620:11713   */\n      tag_205\n      jump\t// in\n    tag_350:\n        /* \"#utility.yul\":11738:11740   */\n      0x20\n        /* \"#utility.yul\":11733:11736   */\n      dup3\n        /* \"#utility.yul\":11729:11741   */\n      add\n        /* \"#utility.yul\":11722:11741   */\n      swap1\n      pop\n        /* \"#utility.yul\":11381:11747   */\n      swap2\n      swap1\n      pop\n      jump\t// out\n        /* \"#utility.yul\":11753:12172   */\n    tag_76:\n        /* \"#utility.yul\":11919:11923   */\n      0x00\n        /* \"#utility.yul\":11957:11959   */\n      0x20\n        /* \"#utility.yul\":11946:11955   */\n      dup3\n        /* \"#utility.yul\":11942:11960   */\n      add\n        /* \"#utility.yul\":11934:11960   */\n      swap1\n      pop\n        /* \"#utility.yul\":12006:12015   */\n      dup2\n        /* \"#utility.yul\":12000:12004   */\n      dup2\n        /* \"#utility.yul\":11996:12016   */\n      sub\n        /* \"#utility.yul\":11992:11993   */\n      0x00\n        /* \"#utility.yul\":11981:11990   */\n      dup4\n        /* \"#utility.yul\":11977:11994   */\n      add\n        /* \"#utility.yul\":11970:12017   */\n      mstore\n        /* \"#utility.yul\":12034:12165   */\n      tag_352\n        /* \"#utility.yul\":12160:12164   */\n      dup2\n        /* \"#utility.yul\":12034:12165   */\n      tag_206\n      jump\t// in\n    tag_352:\n        /* \"#utility.yul\":12026:12165   */\n      swap1\n      pop\n        /* \"#utility.yul\":11753:12172   */\n      swap2\n      swap1\n      pop\n      jump\t// out\n        /* \"#utility.yul\":12178:12358   */\n    tag_207:\n        /* \"#utility.yul\":12226:12303   */\n      0x4e487b7100000000000000000000000000000000000000000000000000000000\n        /* \"#utility.yul\":12223:12224   */\n      0x00\n        /* \"#utility.yul\":12216:12304   */\n      mstore\n        /* \"#utility.yul\":12323:12327   */\n      0x41\n        /* \"#utility.yul\":12320:12321   */\n      0x04\n        /* \"#utility.yul\":12313:12328   */\n      mstore\n        /* \"#utility.yul\":12347:12351   */\n      0x24\n        /* \"#utility.yul\":12344:12345   */\n      0x00\n        /* \"#utility.yul\":12337:12352   */\n      revert\n        /* \"#utility.yul\":12364:12505   */\n    tag_208:\n        /* \"#utility.yul\":12413:12417   */\n      0x00\n        /* \"#utility.yul\":12436:12439   */\n      dup2\n        /* \"#utility.yul\":12428:12439   */\n      swap1\n      pop\n        /* \"#utility.yul\":12459:12462   */\n      dup2\n        /* \"#utility.yul\":12456:12457   */\n      0x00\n        /* \"#utility.yul\":12449:12463   */\n      mstore\n        /* \"#utility.yul\":12493:12497   */\n      0x20\n        /* \"#utility.yul\":12490:12491   */\n      0x00\n        /* \"#utility.yul\":12480:12498   */\n      keccak256\n        /* \"#utility.yul\":12472:12498   */\n      swap1\n      pop\n        /* \"#utility.yul\":12364:12505   */\n      swap2\n      swap1\n      pop\n      jump\t// out\n        /* \"#utility.yul\":12511:12604   */\n    tag_209:\n        /* \"#utility.yul\":12548:12554   */\n      0x00\n        /* \"#utility.yul\":12595:12597   */\n      0x20\n        /* \"#utility.yul\":12590:12592   */\n      0x1f\n        /* \"#utility.yul\":12583:12588   */\n      dup4\n        /* \"#utility.yul\":12579:12593   */\n      add\n        /* \"#utility.yul\":12575:12598   */\n      div\n        /* \"#utility.yul\":12565:12598   */\n      swap1\n      pop\n        /* \"#utility.yul\":12511:12604   */\n      swap2\n      swap1\n      pop\n      jump\t// out\n        /* \"#utility.yul\":12610:12717   */\n    tag_210:\n        /* \"#utility.yul\":12654:12662   */\n      0x00\n        /* \"#utility.yul\":12704:12709   */\n      dup3\n        /* \"#utility.yul\":12698:12702   */\n      dup3\n        /* \"#utility.yul\":12694:12710   */\n      shl\n        /* \"#utility.yul\":12673:12710   */\n      swap1\n      pop\n        /* \"#utility.yul\":12610:12717   */\n      swap3\n      swap2\n      pop\n      pop\n      jump\t// out\n        /* \"#utility.yul\":12723:13116   */\n    tag_211:\n        /* \"#utility.yul\":12792:12798   */\n      0x00\n        /* \"#utility.yul\":12842:12843   */\n      0x08\n        /* \"#utility.yul\":12830:12840   */\n      dup4\n        /* \"#utility.yul\":12826:12844   */\n      mul\n        /* \"#utility.yul\":12865:12962   */\n      tag_358\n        /* \"#utility.yul\":12895:12961   */\n      0xffffffffffffffffffffffffffffffffffffffffffffffffffffffffffffffff\n        /* \"#utility.yul\":12884:12893   */\n      dup3\n        /* \"#utility.yul\":12865:12962   */\n      tag_210\n      jump\t// in\n    tag_358:\n        /* \"#utility.yul\":12983:13022   */\n      tag_359\n        /* \"#utility.yul\":13013:13021   */\n      dup7\n        /* \"#utility.yul\":13002:13011   */\n      dup4\n        /* \"#utility.yul\":12983:13022   */\n      tag_210\n      jump\t// in\n    tag_359:\n        /* \"#utility.yul\":12971:13022   */\n      swap6\n      pop\n        /* \"#utility.yul\":13055:13059   */\n      dup1\n        /* \"#utility.yul\":13051:13060   */\n      not\n        /* \"#utility.yul\":13044:13049   */\n      dup5\n        /* \"#utility.yul\":13040:13061   */\n      and\n        /* \"#utility.yul\":13031:13061   */\n      swap4\n      pop\n        /* \"#utility.yul\":13104:13108   */\n      dup1\n        /* \"#utility.yul\":13094:13102   */\n      dup7\n        /* \"#utility.yul\":13090:13109   */\n      and\n        /* \"#utility.yul\":13083:13088   */\n      dup5\n        /* \"#utility.yul\":13080:13110   */\n      or\n        /* \"#utility.yul\":13070:13110   */\n      swap3\n      pop\n        /* \"#utility.yul\":12799:13116   */\n      pop\n      pop\n        /* \"#utility.yul\":12723:13116   */\n      swap4\n      swap3\n      pop\n      pop\n      pop\n      jump\t// out\n        /* \"#utility.yul\":13122:13264   */\n    tag_212:\n        /* \"#utility.yul\":13172:13181   */\n      0x00\n        /* \"#utility.yul\":13205:13258   */\n      tag_361\n        /* \"#utility.yul\":13223:13257   */\n      tag_362\n        /* \"#utility.yul\":13232:13256   */\n      tag_363\n        /* \"#utility.yul\":13250:13255   */\n      dup5\n        /* \"#utility.yul\":13232:13256   */\n      tag_184\n      jump\t// in\n    tag_363:\n        /* \"#utility.yul\":13223:13257   */\n      tag_196\n      jump\t// in\n    tag_362:\n        /* \"#utility.yul\":13205:13258   */\n      tag_184\n      jump\t// in\n    tag_361:\n        /* \"#utility.yul\":13192:13258   */\n      swap1\n      pop\n        /* \"#utility.yul\":13122:13264   */\n      swap2\n      swap1\n      pop\n      jump\t// out\n        /* \"#utility.yul\":13270:13345   */\n    tag_213:\n        /* \"#utility.yul\":13313:13316   */\n      0x00\n        /* \"#utility.yul\":13334:13339   */\n      dup2\n        /* \"#utility.yul\":13327:13339   */\n      swap1\n      pop\n        /* \"#utility.yul\":13270:13345   */\n      swap2\n      swap1\n      pop\n      jump\t// out\n        /* \"#utility.yul\":13351:13620   */\n    tag_214:\n        /* \"#utility.yul\":13461:13500   */\n      tag_366\n        /* \"#utility.yul\":13492:13499   */\n      dup4\n        /* \"#utility.yul\":13461:13500   */\n      tag_212\n      jump\t// in\n    tag_366:\n        /* \"#utility.yul\":13522:13613   */\n      tag_367\n        /* \"#utility.yul\":13571:13612   */\n      tag_368\n        /* \"#utility.yul\":13595:13611   */\n      dup3\n        /* \"#utility.yul\":13571:13612   */\n      tag_213\n      jump\t// in\n    tag_368:\n        /* \"#utility.yul\":13563:13569   */\n      dup5\n        /* \"#utility.yul\":13556:13560   */\n      dup5\n        /* \"#utility.yul\":13550:13561   */\n      sload\n        /* \"#utility.yul\":13522:13613   */\n      tag_211\n      jump\t// in\n    tag_367:\n        /* \"#utility.yul\":13516:13520   */\n      dup3\n        /* \"#utility.yul\":13509:13614   */\n      sstore\n        /* \"#utility.yul\":13427:13620   */\n      pop\n        /* \"#utility.yul\":13351:13620   */\n      pop\n      pop\n      pop\n      jump\t// out\n        /* \"#utility.yul\":13626:13699   */\n    tag_215:\n        /* \"#utility.yul\":13671:13674   */\n      0x00\n        /* \"#utility.yul\":13692:13693   */\n      0x00\n        /* \"#utility.yul\":13685:13693   */\n      swap1\n      pop\n        /* \"#utility.yul\":13626:13699   */\n      swap1\n      jump\t// out\n        /* \"#utility.yul\":13705:13894   */\n    tag_216:\n        /* \"#utility.yul\":13782:13814   */\n      tag_371\n      tag_215\n      jump\t// in\n    tag_371:\n        /* \"#utility.yul\":13823:13888   */\n      tag_372\n        /* \"#utility.yul\":13881:13887   */\n      dup2\n        /* \"#utility.yul\":13873:13879   */\n      dup5\n        /* \"#utility.yul\":13867:13871   */\n      dup5\n        /* \"#utility.yul\":13823:13888   */\n      tag_214\n      jump\t// in\n    tag_372:\n        /* \"#utility.yul\":13758:13894   */\n      pop\n        /* \"#utility.yul\":13705:13894   */\n      pop\n      pop\n      jump\t// out\n        /* \"#utility.yul\":13900:14086   */\n    tag_217:\n        /* \"#utility.yul\":13960:14080   */\n    tag_374:\n        /* \"#utility.yul\":13977:13980   */\n      dup2\n        /* \"#utility.yul\":13970:13975   */\n      dup2\n        /* \"#utility.yul\":13967:13981   */\n      lt\n        /* \"#utility.yul\":13960:14080   */\n      iszero\n      tag_376\n      jumpi\n        /* \"#utility.yul\":14031:14070   */\n      tag_377\n        /* \"#utility.yul\":14068:14069   */\n      0x00\n        /* \"#utility.yul\":14061:14066   */\n      dup3\n        /* \"#utility.yul\":14031:14070   */\n      tag_216\n      jump\t// in\n    tag_377:\n        /* \"#utility.yul\":14004:14005   */\n      0x01\n        /* \"#utility.yul\":13997:14002   */\n      dup2\n        /* \"#utility.yul\":13993:14006   */\n      add\n        /* \"#utility.yul\":13984:14006   */\n      swap1\n      pop\n        /* \"#utility.yul\":13960:14080   */\n      jump(tag_374)\n    tag_376:\n        /* \"#utility.yul\":13900:14086   */\n      pop\n      pop\n      jump\t// out\n        /* \"#utility.yul\":14092:14635   */\n    tag_218:\n        /* \"#utility.yul\":14193:14195   */\n      0x1f\n        /* \"#utility.yul\":14188:14191   */\n      dup3\n        /* \"#utility.yul\":14185:14196   */\n      gt\n        /* \"#utility.yul\":14182:14628   */\n      iszero\n      tag_379\n      jumpi\n        /* \"#utility.yul\":14227:14265   */\n      tag_380\n        /* \"#utility.yul\":14259:14264   */\n      dup2\n        /* \"#utility.yul\":14227:14265   */\n      tag_208\n      jump\t// in\n    tag_380:\n        /* \"#utility.yul\":14311:14340   */\n      tag_381\n        /* \"#utility.yul\":14329:14339   */\n      dup5\n        /* \"#utility.yul\":14311:14340   */\n      tag_209\n      jump\t// in\n    tag_381:\n        /* \"#utility.yul\":14301:14309   */\n      dup2\n        /* \"#utility.yul\":14297:14341   */\n      add\n        /* \"#utility.yul\":14494:14496   */\n      0x20\n        /* \"#utility.yul\":14482:14492   */\n      dup6\n        /* \"#utility.yul\":14479:14497   */\n      lt\n        /* \"#utility.yul\":14476:14525   */\n      iszero\n      tag_382\n      jumpi\n        /* \"#utility.yul\":14515:14523   */\n      dup2\n        /* \"#utility.yul\":14500:14523   */\n      swap1\n      pop\n        /* \"#utility.yul\":14476:14525   */\n    tag_382:\n        /* \"#utility.yul\":14538:14618   */\n      tag_383\n        /* \"#utility.yul\":14594:14616   */\n      tag_384\n        /* \"#utility.yul\":14612:14615   */\n      dup6\n        /* \"#utility.yul\":14594:14616   */\n      tag_209\n      jump\t// in\n    tag_384:\n        /* \"#utility.yul\":14584:14592   */\n      dup4\n        /* \"#utility.yul\":14580:14617   */\n      add\n        /* \"#utility.yul\":14567:14578   */\n      dup3\n        /* \"#utility.yul\":14538:14618   */\n      tag_217\n      jump\t// in\n    tag_383:\n        /* \"#utility.yul\":14197:14628   */\n      pop\n      pop\n        /* \"#utility.yul\":14182:14628   */\n    tag_379:\n        /* \"#utility.yul\":14092:14635   */\n      pop\n      pop\n      pop\n      jump\t// out\n        /* \"#utility.yul\":14641:14758   */\n    tag_219:\n        /* \"#utility.yul\":14695:14703   */\n      0x00\n        /* \"#utility.yul\":14745:14750   */\n      dup3\n        /* \"#utility.yul\":14739:14743   */\n      dup3\n        /* \"#utility.yul\":14735:14751   */\n      shr\n        /* \"#utility.yul\":14714:14751   */\n      swap1\n      pop\n        /* \"#utility.yul\":14641:14758   */\n      swap3\n      swap2\n      pop\n      pop\n      jump\t// out\n        /* \"#utility.yul\":14764:14933   */\n    tag_220:\n        /* \"#utility.yul\":14808:14814   */\n      0x00\n        /* \"#utility.yul\":14841:14892   */\n      tag_387\n        /* \"#utility.yul\":14889:14890   */\n      0x00\n        /* \"#utility.yul\":14885:14891   */\n      not\n        /* \"#utility.yul\":14877:14882   */\n      dup5\n        /* \"#utility.yul\":14874:14875   */\n      0x08\n        /* \"#utility.yul\":14870:14883   */\n      mul\n        /* \"#utility.yul\":14841:14892   */\n      tag_219\n      jump\t// in\n    tag_387:\n        /* \"#utility.yul\":14837:14893   */\n      not\n        /* \"#utility.yul\":14922:14926   */\n      dup1\n        /* \"#utility.yul\":14916:14920   */\n      dup4\n        /* \"#utility.yul\":14912:14927   */\n      and\n        /* \"#utility.yul\":14902:14927   */\n      swap2\n      pop\n        /* \"#utility.yul\":14815:14933   */\n      pop\n        /* \"#utility.yul\":14764:14933   */\n      swap3\n      swap2\n      pop\n      pop\n      jump\t// out\n        /* \"#utility.yul\":14938:15233   */\n    tag_221:\n        /* \"#utility.yul\":15014:15018   */\n      0x00\n        /* \"#utility.yul\":15160:15189   */\n      tag_389\n        /* \"#utility.yul\":15185:15188   */\n      dup4\n        /* \"#utility.yul\":15179:15183   */\n      dup4\n        /* \"#utility.yul\":15160:15189   */\n      tag_220\n      jump\t// in\n    tag_389:\n        /* \"#utility.yul\":15152:15189   */\n      swap2\n      pop\n        /* \"#utility.yul\":15222:15225   */\n      dup3\n        /* \"#utility.yul\":15219:15220   */\n      0x02\n        /* \"#utility.yul\":15215:15226   */\n      mul\n        /* \"#utility.yul\":15209:15213   */\n      dup3\n        /* \"#utility.yul\":15206:15227   */\n      or\n        /* \"#utility.yul\":15198:15227   */\n      swap1\n      pop\n        /* \"#utility.yul\":14938:15233   */\n      swap3\n      swap2\n      pop\n      pop\n      jump\t// out\n        /* \"#utility.yul\":15238:16633   */\n    tag_82:\n        /* \"#utility.yul\":15355:15392   */\n      tag_391\n        /* \"#utility.yul\":15388:15391   */\n      dup3\n        /* \"#utility.yul\":15355:15392   */\n      tag_187\n      jump\t// in\n    tag_391:\n        /* \"#utility.yul\":15457:15475   */\n      0xffffffffffffffff\n        /* \"#utility.yul\":15449:15455   */\n      dup2\n        /* \"#utility.yul\":15446:15476   */\n      gt\n        /* \"#utility.yul\":15443:15499   */\n      iszero\n      tag_392\n      jumpi\n        /* \"#utility.yul\":15479:15497   */\n      tag_393\n      tag_207\n      jump\t// in\n    tag_393:\n        /* \"#utility.yul\":15443:15499   */\n    tag_392:\n        /* \"#utility.yul\":15523:15561   */\n      tag_394\n        /* \"#utility.yul\":15555:15559   */\n      dup3\n        /* \"#utility.yul\":15549:15560   */\n      sload\n        /* \"#utility.yul\":15523:15561   */\n      tag_68\n      jump\t// in\n    tag_394:\n        /* \"#utility.yul\":15608:15675   */\n      tag_395\n        /* \"#utility.yul\":15668:15674   */\n      dup3\n        /* \"#utility.yul\":15660:15666   */\n      dup3\n        /* \"#utility.yul\":15654:15658   */\n      dup6\n        /* \"#utility.yul\":15608:15675   */\n      tag_218\n      jump\t// in\n    tag_395:\n        /* \"#utility.yul\":15702:15703   */\n      0x00\n        /* \"#utility.yul\":15726:15730   */\n      0x20\n        /* \"#utility.yul\":15713:15730   */\n      swap1\n      pop\n        /* \"#utility.yul\":15758:15760   */\n      0x1f\n        /* \"#utility.yul\":15750:15756   */\n      dup4\n        /* \"#utility.yul\":15747:15761   */\n      gt\n        /* \"#utility.yul\":15775:15776   */\n      0x01\n        /* \"#utility.yul\":15770:16388   */\n      dup2\n      eq\n      tag_397\n      jumpi\n        /* \"#utility.yul\":16432:16433   */\n      0x00\n        /* \"#utility.yul\":16449:16455   */\n      dup5\n        /* \"#utility.yul\":16446:16523   */\n      iszero\n      tag_398\n      jumpi\n        /* \"#utility.yul\":16498:16507   */\n      dup3\n        /* \"#utility.yul\":16493:16496   */\n      dup8\n        /* \"#utility.yul\":16489:16508   */\n      add\n        /* \"#utility.yul\":16483:16509   */\n      mload\n        /* \"#utility.yul\":16474:16509   */\n      swap1\n      pop\n        /* \"#utility.yul\":16446:16523   */\n    tag_398:\n        /* \"#utility.yul\":16549:16616   */\n      tag_399\n        /* \"#utility.yul\":16609:16615   */\n      dup6\n        /* \"#utility.yul\":16602:16607   */\n      dup3\n        /* \"#utility.yul\":16549:16616   */\n      tag_221\n      jump\t// in\n    tag_399:\n        /* \"#utility.yul\":16543:16547   */\n      dup7\n        /* \"#utility.yul\":16536:16617   */\n      sstore\n        /* \"#utility.yul\":16405:16627   */\n      pop\n        /* \"#utility.yul\":15740:16627   */\n      jump(tag_396)\n        /* \"#utility.yul\":15770:16388   */\n    tag_397:\n        /* \"#utility.yul\":15822:15826   */\n      0x1f\n        /* \"#utility.yul\":15818:15827   */\n      not\n        /* \"#utility.yul\":15810:15816   */\n      dup5\n        /* \"#utility.yul\":15806:15828   */\n      and\n        /* \"#utility.yul\":15856:15893   */\n      tag_400\n        /* \"#utility.yul\":15888:15892   */\n      dup7\n        /* \"#utility.yul\":15856:15893   */\n      tag_208\n      jump\t// in\n    tag_400:\n        /* \"#utility.yul\":15915:15916   */\n      0x00\n        /* \"#utility.yul\":15929:16137   */\n    tag_401:\n        /* \"#utility.yul\":15943:15950   */\n      dup3\n        /* \"#utility.yul\":15940:15941   */\n      dup2\n        /* \"#utility.yul\":15937:15951   */\n      lt\n        /* \"#utility.yul\":15929:16137   */\n      iszero\n      tag_403\n      jumpi\n        /* \"#utility.yul\":16022:16031   */\n      dup5\n        /* \"#utility.yul\":16017:16020   */\n      dup10\n        /* \"#utility.yul\":16013:16032   */\n      add\n        /* \"#utility.yul\":16007:16033   */\n      mload\n        /* \"#utility.yul\":15999:16005   */\n      dup3\n        /* \"#utility.yul\":15992:16034   */\n      sstore\n        /* \"#utility.yul\":16073:16074   */\n      0x01\n        /* \"#utility.yul\":16065:16071   */\n      dup3\n        /* \"#utility.yul\":16061:16075   */\n      add\n        /* \"#utility.yul\":16051:16075   */\n      swap2\n      pop\n        /* \"#utility.yul\":16120:16122   */\n      0x20\n        /* \"#utility.yul\":16109:16118   */\n      dup6\n        /* \"#utility.yul\":16105:16123   */\n      add\n        /* \"#utility.yul\":16092:16123   */\n      swap5\n      pop\n        /* \"#utility.yul\":15966:15970   */\n      0x20\n        /* \"#utility.yul\":15963:15964   */\n      dup2\n        /* \"#utility.yul\":15959:15971   */\n      add\n        /* \"#utility.yul\":15954:15971   */\n      swap1\n      pop\n        /* \"#utility.yul\":15929:16137   */\n      jump(tag_401)\n    tag_403:\n        /* \"#utility.yul\":16165:16171   */\n      dup7\n        /* \"#utility.yul\":16156:16163   */\n      dup4\n        /* \"#utility.yul\":16153:16172   */\n      lt\n        /* \"#utility.yul\":16150:16329   */\n      iszero\n      tag_404\n      jumpi\n        /* \"#utility.yul\":16223:16232   */\n      dup5\n        /* \"#utility.yul\":16218:16221   */\n      dup10\n        /* \"#utility.yul\":16214:16233   */\n      add\n        /* \"#utility.yul\":16208:16234   */\n      mload\n        /* \"#utility.yul\":16266:16314   */\n      tag_405\n        /* \"#utility.yul\":16308:16312   */\n      0x1f\n        /* \"#utility.yul\":16300:16306   */\n      dup10\n        /* \"#utility.yul\":16296:16313   */\n      and\n        /* \"#utility.yul\":16285:16294   */\n      dup3\n        /* \"#utility.yul\":16266:16314   */\n      tag_220\n      jump\t// in\n    tag_405:\n        /* \"#utility.yul\":16258:16264   */\n      dup4\n        /* \"#utility.yul\":16251:16315   */\n      sstore\n        /* \"#utility.yul\":16173:16329   */\n      pop\n        /* \"#utility.yul\":16150:16329   */\n    tag_404:\n        /* \"#utility.yul\":16375:16376   */\n      0x01\n        /* \"#utility.yul\":16371:16372   */\n      0x02\n        /* \"#utility.yul\":16363:16369   */\n      dup9\n        /* \"#utility.yul\":16359:16373   */\n      mul\n        /* \"#utility.yul\":16355:16377   */\n      add\n        /* \"#utility.yul\":16349:16353   */\n      dup9\n        /* \"#utility.yul\":16342:16378   */\n      sstore\n        /* \"#utility.yul\":15777:16388   */\n      pop\n      pop\n      pop\n        /* \"#utility.yul\":15740:16627   */\n    tag_396:\n      pop\n        /* \"#utility.yul\":15330:16633   */\n      pop\n      pop\n      pop\n        /* \"#utility.yul\":15238:16633   */\n      pop\n      pop\n      jump\t// out\n        /* \"#utility.yul\":16639:16779   */\n    tag_222:\n        /* \"#utility.yul\":16687:16691   */\n      0x00\n        /* \"#utility.yul\":16710:16713   */\n      dup2\n        /* \"#utility.yul\":16702:16713   */\n      swap1\n      pop\n        /* \"#utility.yul\":16733:16736   */\n      dup2\n        /* \"#utility.yul\":16730:16731   */\n      0x00\n        /* \"#utility.yul\":16723:16737   */\n      mstore\n        /* \"#utility.yul\":16767:16771   */\n      0x20\n        /* \"#utility.yul\":16764:16765   */\n      0x00\n        /* \"#utility.yul\":16754:16772   */\n      keccak256\n        /* \"#utility.yul\":16746:16772   */\n      swap1\n      pop\n        /* \"#utility.yul\":16639:16779   */\n      swap2\n      swap1\n      pop\n      jump\t// out\n        /* \"#utility.yul\":16785:17326   */\n    tag_223:\n        /* \"#utility.yul\":16885:16887   */\n      0x1f\n        /* \"#utility.yul\":16880:16883   */\n      dup3\n        /* \"#utility.yul\":16877:16888   */\n      gt\n        /* \"#utility.yul\":16874:17319   */\n      iszero\n      tag_408\n      jumpi\n        /* \"#utility.yul\":16919:16956   */\n      tag_409\n        /* \"#utility.yul\":16950:16955   */\n      dup2\n        /* \"#utility.yul\":16919:16956   */\n      tag_222\n      jump\t// in\n    tag_409:\n        /* \"#utility.yul\":17002:17031   */\n      tag_410\n        /* \"#utility.yul\":17020:17030   */\n      dup5\n        /* \"#utility.yul\":17002:17031   */\n      tag_209\n      jump\t// in\n    tag_410:\n        /* \"#utility.yul\":16992:17000   */\n      dup2\n        /* \"#utility.yul\":16988:17032   */\n      add\n        /* \"#utility.yul\":17185:17187   */\n      0x20\n        /* \"#utility.yul\":17173:17183   */\n      dup6\n        /* \"#utility.yul\":17170:17188   */\n      lt\n        /* \"#utility.yul\":17167:17216   */\n      iszero\n      tag_411\n      jumpi\n        /* \"#utility.yul\":17206:17214   */\n      dup2\n        /* \"#utility.yul\":17191:17214   */\n      swap1\n      pop\n        /* \"#utility.yul\":17167:17216   */\n    tag_411:\n        /* \"#utility.yul\":17229:17309   */\n      tag_412\n        /* \"#utility.yul\":17285:17307   */\n      tag_413\n        /* \"#utility.yul\":17303:17306   */\n      dup6\n        /* \"#utility.yul\":17285:17307   */\n      tag_209\n      jump\t// in\n    tag_413:\n        /* \"#utility.yul\":17275:17283   */\n      dup4\n        /* \"#utility.yul\":17271:17308   */\n      add\n        /* \"#utility.yul\":17258:17269   */\n      dup3\n        /* \"#utility.yul\":17229:17309   */\n      tag_217\n      jump\t// in\n    tag_412:\n        /* \"#utility.yul\":16889:17319   */\n      pop\n      pop\n        /* \"#utility.yul\":16874:17319   */\n    tag_408:\n        /* \"#utility.yul\":16785:17326   */\n      pop\n      pop\n      pop\n      jump\t// out\n        /* \"#utility.yul\":17332:18722   */\n    tag_85:\n        /* \"#utility.yul\":17447:17483   */\n      tag_415\n        /* \"#utility.yul\":17479:17482   */\n      dup3\n        /* \"#utility.yul\":17447:17483   */\n      tag_178\n      jump\t// in\n    tag_415:\n        /* \"#utility.yul\":17548:17566   */\n      0xffffffffffffffff\n        /* \"#utility.yul\":17540:17546   */\n      dup2\n        /* \"#utility.yul\":17537:17567   */\n      gt\n        /* \"#utility.yul\":17534:17590   */\n      iszero\n      tag_416\n      jumpi\n        /* \"#utility.yul\":17570:17588   */\n      tag_417\n      tag_207\n      jump\t// in\n    tag_417:\n        /* \"#utility.yul\":17534:17590   */\n    tag_416:\n        /* \"#utility.yul\":17614:17652   */\n      tag_418\n        /* \"#utility.yul\":17646:17650   */\n      dup3\n        /* \"#utility.yul\":17640:17651   */\n      sload\n        /* \"#utility.yul\":17614:17652   */\n      tag_68\n      jump\t// in\n    tag_418:\n        /* \"#utility.yul\":17699:17765   */\n      tag_419\n        /* \"#utility.yul\":17758:17764   */\n      dup3\n        /* \"#utility.yul\":17750:17756   */\n      dup3\n        /* \"#utility.yul\":17744:17748   */\n      dup6\n        /* \"#utility.yul\":17699:17765   */\n      tag_223\n      jump\t// in\n    tag_419:\n        /* \"#utility.yul\":17792:17793   */\n      0x00\n        /* \"#utility.yul\":17816:17820   */\n      0x20\n        /* \"#utility.yul\":17803:17820   */\n      swap1\n      pop\n        /* \"#utility.yul\":17848:17850   */\n      0x1f\n        /* \"#utility.yul\":17840:17846   */\n      dup4\n        /* \"#utility.yul\":17837:17851   */\n      gt\n        /* \"#utility.yul\":17865:17866   */\n      0x01\n        /* \"#utility.yul\":17860:18477   */\n      dup2\n      eq\n      tag_421\n      jumpi\n        /* \"#utility.yul\":18521:18522   */\n      0x00\n        /* \"#utility.yul\":18538:18544   */\n      dup5\n        /* \"#utility.yul\":18535:18612   */\n      iszero\n      tag_422\n      jumpi\n        /* \"#utility.yul\":18587:18596   */\n      dup3\n        /* \"#utility.yul\":18582:18585   */\n      dup8\n        /* \"#utility.yul\":18578:18597   */\n      add\n        /* \"#utility.yul\":18572:18598   */\n      mload\n        /* \"#utility.yul\":18563:18598   */\n      swap1\n      pop\n        /* \"#utility.yul\":18535:18612   */\n    tag_422:\n        /* \"#utility.yul\":18638:18705   */\n      tag_423\n        /* \"#utility.yul\":18698:18704   */\n      dup6\n        /* \"#utility.yul\":18691:18696   */\n      dup3\n        /* \"#utility.yul\":18638:18705   */\n      tag_221\n      jump\t// in\n    tag_423:\n        /* \"#utility.yul\":18632:18636   */\n      dup7\n        /* \"#utility.yul\":18625:18706   */\n      sstore\n        /* \"#utility.yul\":18494:18716   */\n      pop\n        /* \"#utility.yul\":17830:18716   */\n      jump(tag_420)\n        /* \"#utility.yul\":17860:18477   */\n    tag_421:\n        /* \"#utility.yul\":17912:17916   */\n      0x1f\n        /* \"#utility.yul\":17908:17917   */\n      not\n        /* \"#utility.yul\":17900:17906   */\n      dup5\n        /* \"#utility.yul\":17896:17918   */\n      and\n        /* \"#utility.yul\":17946:17982   */\n      tag_424\n        /* \"#utility.yul\":17977:17981   */\n      dup7\n        /* \"#utility.yul\":17946:17982   */\n      tag_222\n      jump\t// in\n    tag_424:\n        /* \"#utility.yul\":18004:18005   */\n      0x00\n        /* \"#utility.yul\":18018:18226   */\n    tag_425:\n        /* \"#utility.yul\":18032:18039   */\n      dup3\n        /* \"#utility.yul\":18029:18030   */\n      dup2\n        /* \"#utility.yul\":18026:18040   */\n      lt\n        /* \"#utility.yul\":18018:18226   */\n      iszero\n      tag_427\n      jumpi\n        /* \"#utility.yul\":18111:18120   */\n      dup5\n        /* \"#utility.yul\":18106:18109   */\n      dup10\n        /* \"#utility.yul\":18102:18121   */\n      add\n        /* \"#utility.yul\":18096:18122   */\n      mload\n        /* \"#utility.yul\":18088:18094   */\n      dup3\n        /* \"#utility.yul\":18081:18123   */\n      sstore\n        /* \"#utility.yul\":18162:18163   */\n      0x01\n        /* \"#utility.yul\":18154:18160   */\n      dup3\n        /* \"#utility.yul\":18150:18164   */\n      add\n        /* \"#utility.yul\":18140:18164   */\n      swap2\n      pop\n        /* \"#utility.yul\":18209:18211   */\n      0x20\n        /* \"#utility.yul\":18198:18207   */\n      dup6\n        /* \"#utility.yul\":18194:18212   */\n      add\n        /* \"#utility.yul\":18181:18212   */\n      swap5\n      pop\n        /* \"#utility.yul\":18055:18059   */\n      0x20\n        /* \"#utility.yul\":18052:18053   */\n      dup2\n        /* \"#utility.yul\":18048:18060   */\n      add\n        /* \"#utility.yul\":18043:18060   */\n      swap1\n      pop\n        /* \"#utility.yul\":18018:18226   */\n      jump(tag_425)\n    tag_427:\n        /* \"#utility.yul\":18254:18260   */\n      dup7\n        /* \"#utility.yul\":18245:18252   */\n      dup4\n        /* \"#utility.yul\":18242:18261   */\n      lt\n        /* \"#utility.yul\":18239:18418   */\n      iszero\n      tag_428\n      jumpi\n        /* \"#utility.yul\":18312:18321   */\n      dup5\n        /* \"#utility.yul\":18307:18310   */\n      dup10\n        /* \"#utility.yul\":18303:18322   */\n      add\n        /* \"#utility.yul\":18297:18323   */\n      mload\n        /* \"#utility.yul\":18355:18403   */\n      tag_429\n        /* \"#utility.yul\":18397:18401   */\n      0x1f\n        /* \"#utility.yul\":18389:18395   */\n      dup10\n        /* \"#utility.yul\":18385:18402   */\n      and\n        /* \"#utility.yul\":18374:18383   */\n      dup3\n        /* \"#utility.yul\":18355:18403   */\n      tag_220\n      jump\t// in\n    tag_429:\n        /* \"#utility.yul\":18347:18353   */\n      dup4\n        /* \"#utility.yul\":18340:18404   */\n      sstore\n        /* \"#utility.yul\":18262:18418   */\n      pop\n        /* \"#utility.yul\":18239:18418   */\n    tag_428:\n        /* \"#utility.yul\":18464:18465   */\n      0x01\n        /* \"#utility.yul\":18460:18461   */\n      0x02\n        /* \"#utility.yul\":18452:18458   */\n      dup9\n        /* \"#utility.yul\":18448:18462   */\n      mul\n        /* \"#utility.yul\":18444:18466   */\n      add\n        /* \"#utility.yul\":18438:18442   */\n      dup9\n        /* \"#utility.yul\":18431:18467   */\n      sstore\n        /* \"#utility.yul\":17867:18477   */\n      pop\n      pop\n      pop\n        /* \"#utility.yul\":17830:18716   */\n    tag_420:\n      pop\n        /* \"#utility.yul\":17422:18722   */\n      pop\n      pop\n      pop\n        /* \"#utility.yul\":17332:18722   */\n      pop\n      pop\n      jump\t// out\n        /* \"#utility.yul\":18728:18888   */\n    tag_224:\n        /* \"#utility.yul\":18868:18880   */\n      0x4f6e6c79206f776e657200000000000000000000000000000000000000000000\n        /* \"#utility.yul\":18864:18865   */\n      0x00\n        /* \"#utility.yul\":18856:18862   */\n      dup3\n        /* \"#utility.yul\":18852:18866   */\n      add\n        /* \"#utility.yul\":18845:18881   */\n      mstore\n        /* \"#utility.yul\":18728:18888   */\n      pop\n      jump\t// out\n        /* \"#utility.yul\":18894:19260   */\n    tag_225:\n        /* \"#utility.yul\":19036:19039   */\n      0x00\n        /* \"#utility.yul\":19057:19124   */\n      tag_432\n        /* \"#utility.yul\":19121:19123   */\n      0x0a\n        /* \"#utility.yul\":19116:19119   */\n      dup4\n        /* \"#utility.yul\":19057:19124   */\n      tag_188\n      jump\t// in\n    tag_432:\n        /* \"#utility.yul\":19050:19124   */\n      swap2\n      pop\n        /* \"#utility.yul\":19133:19226   */\n      tag_433\n        /* \"#utility.yul\":19222:19225   */\n      dup3\n        /* \"#utility.yul\":19133:19226   */\n      tag_224\n      jump\t// in\n    tag_433:\n        /* \"#utility.yul\":19251:19253   */\n      0x20\n        /* \"#utility.yul\":19246:19249   */\n      dup3\n        /* \"#utility.yul\":19242:19254   */\n      add\n        /* \"#utility.yul\":19235:19254   */\n      swap1\n      pop\n        /* \"#utility.yul\":18894:19260   */\n      swap2\n      swap1\n      pop\n      jump\t// out\n        /* \"#utility.yul\":19266:19685   */\n    tag_109:\n        /* \"#utility.yul\":19432:19436   */\n      0x00\n        /* \"#utility.yul\":19470:19472   */\n      0x20\n        /* \"#utility.yul\":19459:19468   */\n      dup3\n        /* \"#utility.yul\":19455:19473   */\n      add\n        /* \"#utility.yul\":19447:19473   */\n      swap1\n      pop\n        /* \"#utility.yul\":19519:19528   */\n      dup2\n        /* \"#utility.yul\":19513:19517   */\n      dup2\n        /* \"#utility.yul\":19509:19529   */\n      sub\n        /* \"#utility.yul\":19505:19506   */\n      0x00\n        /* \"#utility.yul\":19494:19503   */\n      dup4\n        /* \"#utility.yul\":19490:19507   */\n      add\n        /* \"#utility.yul\":19483:19530   */\n      mstore\n        /* \"#utility.yul\":19547:19678   */\n      tag_435\n        /* \"#utility.yul\":19673:19677   */\n      dup2\n        /* \"#utility.yul\":19547:19678   */\n      tag_225\n      jump\t// in\n    tag_435:\n        /* \"#utility.yul\":19539:19678   */\n      swap1\n      pop\n        /* \"#utility.yul\":19266:19685   */\n      swap2\n      swap1\n      pop\n      jump\t// out\n        /* \"#utility.yul\":19691:19834   */\n    tag_226:\n        /* \"#utility.yul\":19748:19753   */\n      0x00\n        /* \"#utility.yul\":19779:19785   */\n      dup2\n        /* \"#utility.yul\":19773:19786   */\n      mload\n        /* \"#utility.yul\":19764:19786   */\n      swap1\n      pop\n        /* \"#utility.yul\":19795:19828   */\n      tag_437\n        /* \"#utility.yul\":19822:19827   */\n      dup2\n        /* \"#utility.yul\":19795:19828   */\n      tag_185\n      jump\t// in\n    tag_437:\n        /* \"#utility.yul\":19691:19834   */\n      swap3\n      swap2\n      pop\n      pop\n      jump\t// out\n        /* \"#utility.yul\":19840:20191   */\n    tag_118:\n        /* \"#utility.yul\":19910:19916   */\n      0x00\n        /* \"#utility.yul\":19959:19961   */\n      0x20\n        /* \"#utility.yul\":19947:19956   */\n      dup3\n        /* \"#utility.yul\":19938:19945   */\n      dup5\n        /* \"#utility.yul\":19934:19957   */\n      sub\n        /* \"#utility.yul\":19930:19962   */\n      slt\n        /* \"#utility.yul\":19927:20046   */\n      iszero\n      tag_439\n      jumpi\n        /* \"#utility.yul\":19965:20044   */\n      tag_440\n      tag_172\n      jump\t// in\n    tag_440:\n        /* \"#utility.yul\":19927:20046   */\n    tag_439:\n        /* \"#utility.yul\":20085:20086   */\n      0x00\n        /* \"#utility.yul\":20110:20174   */\n      tag_441\n        /* \"#utility.yul\":20166:20173   */\n      dup5\n        /* \"#utility.yul\":20157:20163   */\n      dup3\n        /* \"#utility.yul\":20146:20155   */\n      dup6\n        /* \"#utility.yul\":20142:20164   */\n      add\n        /* \"#utility.yul\":20110:20174   */\n      tag_226\n      jump\t// in\n    tag_441:\n        /* \"#utility.yul\":20100:20174   */\n      swap2\n      pop\n        /* \"#utility.yul\":20056:20184   */\n      pop\n        /* \"#utility.yul\":19840:20191   */\n      swap3\n      swap2\n      pop\n      pop\n      jump\t// out\n        /* \"#utility.yul\":20197:20377   */\n    tag_125:\n        /* \"#utility.yul\":20245:20322   */\n      0x4e487b7100000000000000000000000000000000000000000000000000000000\n        /* \"#utility.yul\":20242:20243   */\n      0x00\n        /* \"#utility.yul\":20235:20323   */\n      mstore\n        /* \"#utility.yul\":20342:20346   */\n      0x32\n        /* \"#utility.yul\":20339:20340   */\n      0x04\n        /* \"#utility.yul\":20332:20347   */\n      mstore\n        /* \"#utility.yul\":20366:20370   */\n      0x24\n        /* \"#utility.yul\":20363:20364   */\n      0x00\n        /* \"#utility.yul\":20356:20371   */\n      revert\n        /* \"#utility.yul\":20383:20773   */\n    tag_227:\n        /* \"#utility.yul\":20489:20492   */\n      0x00\n        /* \"#utility.yul\":20517:20556   */\n      tag_444\n        /* \"#utility.yul\":20550:20555   */\n      dup3\n        /* \"#utility.yul\":20517:20556   */\n      tag_187\n      jump\t// in\n    tag_444:\n        /* \"#utility.yul\":20572:20661   */\n      tag_445\n        /* \"#utility.yul\":20654:20660   */\n      dup2\n        /* \"#utility.yul\":20649:20652   */\n      dup6\n        /* \"#utility.yul\":20572:20661   */\n      tag_201\n      jump\t// in\n    tag_445:\n        /* \"#utility.yul\":20565:20661   */\n      swap4\n      pop\n        /* \"#utility.yul\":20670:20735   */\n      tag_446\n        /* \"#utility.yul\":20728:20734   */\n      dup2\n        /* \"#utility.yul\":20723:20726   */\n      dup6\n        /* \"#utility.yul\":20716:20720   */\n      0x20\n        /* \"#utility.yul\":20709:20714   */\n      dup7\n        /* \"#utility.yul\":20705:20721   */\n      add\n        /* \"#utility.yul\":20670:20735   */\n      tag_180\n      jump\t// in\n    tag_446:\n        /* \"#utility.yul\":20760:20766   */\n      dup1\n        /* \"#utility.yul\":20755:20758   */\n      dup5\n        /* \"#utility.yul\":20751:20767   */\n      add\n        /* \"#utility.yul\":20744:20767   */\n      swap2\n      pop\n        /* \"#utility.yul\":20493:20773   */\n      pop\n        /* \"#utility.yul\":20383:20773   */\n      swap3\n      swap2\n      pop\n      pop\n      jump\t// out\n        /* \"#utility.yul\":20779:21054   */\n    tag_143:\n        /* \"#utility.yul\":20911:20914   */\n      0x00\n        /* \"#utility.yul\":20933:21028   */\n      tag_448\n        /* \"#utility.yul\":21024:21027   */\n      dup3\n        /* \"#utility.yul\":21015:21021   */\n      dup5\n        /* \"#utility.yul\":20933:21028   */\n      tag_227\n      jump\t// in\n    tag_448:\n        /* \"#utility.yul\":20926:21028   */\n      swap2\n      pop\n        /* \"#utility.yul\":21045:21048   */\n      dup2\n        /* \"#utility.yul\":21038:21048   */\n      swap1\n      pop\n        /* \"#utility.yul\":20779:21054   */\n      swap3\n      swap2\n      pop\n      pop\n      jump\t// out\n        /* \"#utility.yul\":21060:21392   */\n    tag_149:\n        /* \"#utility.yul\":21181:21185   */\n      0x00\n        /* \"#utility.yul\":21219:21221   */\n      0x40\n        /* \"#utility.yul\":21208:21217   */\n      dup3\n        /* \"#utility.yul\":21204:21222   */\n      add\n        /* \"#utility.yul\":21196:21222   */\n      swap1\n      pop\n        /* \"#utility.yul\":21232:21303   */\n      tag_450\n        /* \"#utility.yul\":21300:21301   */\n      0x00\n        /* \"#utility.yul\":21289:21298   */\n      dup4\n        /* \"#utility.yul\":21285:21302   */\n      add\n        /* \"#utility.yul\":21276:21282   */\n      dup6\n        /* \"#utility.yul\":21232:21303   */\n      tag_190\n      jump\t// in\n    tag_450:\n        /* \"#utility.yul\":21313:21385   */\n      tag_451\n        /* \"#utility.yul\":21381:21383   */\n      0x20\n        /* \"#utility.yul\":21370:21379   */\n      dup4\n        /* \"#utility.yul\":21366:21384   */\n      add\n        /* \"#utility.yul\":21357:21363   */\n      dup5\n        /* \"#utility.yul\":21313:21385   */\n      tag_190\n      jump\t// in\n    tag_451:\n        /* \"#utility.yul\":21060:21392   */\n      swap4\n      swap3\n      pop\n      pop\n      pop\n      jump\t// out\n\n    auxdata: 0xa2646970667358221220a70215f694d787a64c49f42c4c57827e9a61e423afc5259583564f69f297327764736f6c634300081f0033\n}\n",
				"bytecode": {
					"linkReferences": {},
					"object": "6080604052348015600e575f5ffd5b503360055f6101000a81548173ffffffffffffffffffffffffffffffffffffffff021916908373ffffffffffffffffffffffffffffffffffffffff16021790555061192f8061005c5f395ff3fe608060405234801561000f575f5ffd5b50600436106100b2575f3560e01c8063a6591cdf1161006f578063a6591cdf1461018c578063abb2efdf146101aa578063d4d59edb146101c8578063d795ede1146101e4578063e2d2bfe314610202578063ee6713df14610220576100b2565b806316f1adc1146100b65780632e057b9b146100e65780633b6556bf14610102578063750588cf146101345780638da5cb5b146101525780639aad69e714610170575b5f5ffd5b6100d060048036038101906100cb9190610e8f565b61023e565b6040516100dd9190610f7d565b60405180910390f35b61010060048036038101906100fb9190610ff2565b61030f565b005b61011c600480360381019061011791906110d5565b610565565b60405161012b93929190611152565b60405180910390f35b61013c61072c565b60405161014991906111ab565b60405180910390f35b61015a610732565b6040516101679190611203565b60405180910390f35b61018a60048036038101906101859190611246565b610757565b005b61019461086c565b6040516101a19190611203565b60405180910390f35b6101b2610891565b6040516101bf91906111ab565b60405180910390f35b6101e260048036038101906101dd9190611246565b610896565b005b6101ec6109ab565b6040516101f991906111ab565b60405180910390f35b61020a6109b7565b60405161021791906112cc565b60405180910390f35b6102286109dc565b60405161023591906111ab565b60405180910390f35b606060078585604051610252929190611321565b90815260200160405180910390208383604051610270929190611321565b9081526020016040518091039020805461028990611366565b80601f01602080910402602001604051908101604052809291908181526020018280546102b590611366565b80156103005780601f106102d757610100808354040283529160200191610300565b820191905f5260205f20905b8154815290600101906020018083116102e357829003601f168201915b50505050509050949350505050565b60045f9054906101000a900473ffffffffffffffffffffffffffffffffffffffff1673ffffffffffffffffffffffffffffffffffffffff163373ffffffffffffffffffffffffffffffffffffffff161461039e576040517f08c379a0000000000000000000000000000000000000000000000000000000008152600401610395906113e0565b60405180910390fd5b6103a66109e2565b6006604051806060016040528088888080601f0160208091040260200160405190810160405280939291908181526020018383808284375f81840152601f19601f82011690508083019250505050505050815260200186868080601f0160208091040260200160405190810160405280939291908181526020018383808284375f81840152601f19601f82011690508083019250505050505050815260200184848080601f0160208091040260200160405190810160405280939291908181526020018383808284375f81840152601f19601f82011690508083019250505050505050815250908060018154018082558091505060019003905f5260205f2090600302015f909190919091505f820151815f0190816104c591906115c2565b5060208201518160010190816104db91906115c2565b5060408201518160020190816104f191906116e9565b5050508383604051610504929190611321565b6040518091039020868660405161051c929190611321565b60405180910390207f1b9831f8fba460f180116967424398f8e8503bca4ff62445b6a6c5ea38d6ff5760035460405161055591906111ab565b60405180910390a3505050505050565b60068181548110610574575f80fd5b905f5260205f2090600302015f91509050805f01805461059390611366565b80601f01602080910402602001604051908101604052809291908181526020018280546105bf90611366565b801561060a5780601f106105e15761010080835404028352916020019161060a565b820191905f5260205f20905b8154815290600101906020018083116105ed57829003601f168201915b50505050509080600101805461061f90611366565b80601f016020809104026020016040519081016040528092919081815260200182805461064b90611366565b80156106965780601f1061066d57610100808354040283529160200191610696565b820191905f5260205f20905b81548152906001019060200180831161067957829003601f168201915b5050505050908060020180546106ab90611366565b80601f01602080910402602001604051908101604052809291908181526020018280546106d790611366565b80156107225780601f106106f957610100808354040283529160200191610722565b820191905f5260205f20905b81548152906001019060200180831161070557829003601f168201915b5050505050905083565b60015481565b60055f9054906101000a900473ffffffffffffffffffffffffffffffffffffffff1681565b60055f9054906101000a900473ffffffffffffffffffffffffffffffffffffffff1673ffffffffffffffffffffffffffffffffffffffff163373ffffffffffffffffffffffffffffffffffffffff16146107e6576040517f08c379a00000000000000000000000000000000000000000000000000000000081526004016107dd90611802565b60405180910390fd5b8060045f6101000a81548173ffffffffffffffffffffffffffffffffffffffff021916908373ffffffffffffffffffffffffffffffffffffffff1602179055508073ffffffffffffffffffffffffffffffffffffffff167f2e8b6f15ca325edad1931b418450cd194daf93e7f40fe4a48d9b1b4bf2a8f06960405160405180910390a250565b60045f9054906101000a900473ffffffffffffffffffffffffffffffffffffffff1681565b5f5481565b60055f9054906101000a900473ffffffffffffffffffffffffffffffffffffffff1673ffffffffffffffffffffffffffffffffffffffff163373ffffffffffffffffffffffffffffffffffffffff1614610925576040517f08c379a000000000000000000000000000000000000000000000000000000000815260040161091c90611802565b60405180910390fd5b8060025f6101000a81548173ffffffffffffffffffffffffffffffffffffffff021916908373ffffffffffffffffffffffffffffffffffffffff1602179055508073ffffffffffffffffffffffffffffffffffffffff167f4b9d66d8e64dff6d9d2728f9a38da9739d3cfdbe676fde05564aae22f850846560405160405180910390a250565b5f600680549050905090565b60025f9054906101000a900473ffffffffffffffffffffffffffffffffffffffff1681565b60035481565b5f60025f9054906101000a900473ffffffffffffffffffffffffffffffffffffffff1673ffffffffffffffffffffffffffffffffffffffff1663b97dd9e26040518163ffffffff1660e01b8152600401602060405180830381865afa158015610a4d573d5f5f3e3d5ffd5b505050506040513d601f19601f82011682018060405250810190610a719190611834565b9050600354811115610d2a575f5f90505b600680549050811015610ccd575f60068281548110610aa457610aa361185f565b5b905f5260205f2090600302016040518060600160405290815f82018054610aca90611366565b80601f0160208091040260200160405190810160405280929190818152602001828054610af690611366565b8015610b415780601f10610b1857610100808354040283529160200191610b41565b820191905f5260205f20905b815481529060010190602001808311610b2457829003601f168201915b50505050508152602001600182018054610b5a90611366565b80601f0160208091040260200160405190810160405280929190818152602001828054610b8690611366565b8015610bd15780601f10610ba857610100808354040283529160200191610bd1565b820191905f5260205f20905b815481529060010190602001808311610bb457829003601f168201915b50505050508152602001600282018054610bea90611366565b80601f0160208091040260200160405190810160405280929190818152602001828054610c1690611366565b8015610c615780601f10610c3857610100808354040283529160200191610c61565b820191905f5260205f20905b815481529060010190602001808311610c4457829003601f168201915b505050505081525050905080604001516007825f0151604051610c8491906118bc565b90815260200160405180910390208260200151604051610ca491906118bc565b90815260200160405180910390209081610cbe91906116e9565b50508080600101915050610a82565b505f600680549050905060065f610ce49190610d2d565b6003547f1081f92591666e5fff3d8fd275844896c7116c7d6b875c80d51b9beac7893a98825f54604051610d199291906118d2565b60405180910390a281600381905550505b50565b5080545f8255600302905f5260205f2090810190610d4b9190610d4e565b50565b5b80821115610d8d575f5f82015f610d669190610d91565b600182015f610d759190610d91565b600282015f610d849190610dce565b50600301610d4f565b5090565b508054610d9d90611366565b5f825580601f10610dae5750610dcb565b601f0160209004905f5260205f2090810190610dca9190610e0b565b5b50565b508054610dda90611366565b5f825580601f10610deb5750610e08565b601f0160209004905f5260205f2090810190610e079190610e0b565b5b50565b5b80821115610e22575f815f905550600101610e0c565b5090565b5f5ffd5b5f5ffd5b5f5ffd5b5f5ffd5b5f5ffd5b5f5f83601f840112610e4f57610e4e610e2e565b5b8235905067ffffffffffffffff811115610e6c57610e6b610e32565b5b602083019150836001820283011115610e8857610e87610e36565b5b9250929050565b5f5f5f5f60408587031215610ea757610ea6610e26565b5b5f85013567ffffffffffffffff811115610ec457610ec3610e2a565b5b610ed087828801610e3a565b9450945050602085013567ffffffffffffffff811115610ef357610ef2610e2a565b5b610eff87828801610e3a565b925092505092959194509250565b5f81519050919050565b5f82825260208201905092915050565b8281835e5f83830152505050565b5f601f19601f8301169050919050565b5f610f4f82610f0d565b610f598185610f17565b9350610f69818560208601610f27565b610f7281610f35565b840191505092915050565b5f6020820190508181035f830152610f958184610f45565b905092915050565b5f5f83601f840112610fb257610fb1610e2e565b5b8235905067ffffffffffffffff811115610fcf57610fce610e32565b5b602083019150836001820283011115610feb57610fea610e36565b5b9250929050565b5f5f5f5f5f5f6060878903121561100c5761100b610e26565b5b5f87013567ffffffffffffffff81111561102957611028610e2a565b5b61103589828a01610e3a565b9650965050602087013567ffffffffffffffff81111561105857611057610e2a565b5b61106489828a01610e3a565b9450945050604087013567ffffffffffffffff81111561108757611086610e2a565b5b61109389828a01610f9d565b92509250509295509295509295565b5f819050919050565b6110b4816110a2565b81146110be575f5ffd5b50565b5f813590506110cf816110ab565b92915050565b5f602082840312156110ea576110e9610e26565b5b5f6110f7848285016110c1565b91505092915050565b5f81519050919050565b5f82825260208201905092915050565b5f61112482611100565b61112e818561110a565b935061113e818560208601610f27565b61114781610f35565b840191505092915050565b5f6060820190508181035f83015261116a818661111a565b9050818103602083015261117e818561111a565b905081810360408301526111928184610f45565b9050949350505050565b6111a5816110a2565b82525050565b5f6020820190506111be5f83018461119c565b92915050565b5f73ffffffffffffffffffffffffffffffffffffffff82169050919050565b5f6111ed826111c4565b9050919050565b6111fd816111e3565b82525050565b5f6020820190506112165f8301846111f4565b92915050565b611225816111e3565b811461122f575f5ffd5b50565b5f813590506112408161121c565b92915050565b5f6020828403121561125b5761125a610e26565b5b5f61126884828501611232565b91505092915050565b5f819050919050565b5f61129461128f61128a846111c4565b611271565b6111c4565b9050919050565b5f6112a58261127a565b9050919050565b5f6112b68261129b565b9050919050565b6112c6816112ac565b82525050565b5f6020820190506112df5f8301846112bd565b92915050565b5f81905092915050565b828183375f83830152505050565b5f61130883856112e5565b93506113158385846112ef565b82840190509392505050565b5f61132d8284866112fd565b91508190509392505050565b7f4e487b71000000000000000000000000000000000000000000000000000000005f52602260045260245ffd5b5f600282049050600182168061137d57607f821691505b6020821081036113905761138f611339565b5b50919050565b7f4e6f7420617574686f72697a65640000000000000000000000000000000000005f82015250565b5f6113ca600e8361110a565b91506113d582611396565b602082019050919050565b5f6020820190508181035f8301526113f7816113be565b9050919050565b7f4e487b71000000000000000000000000000000000000000000000000000000005f52604160045260245ffd5b5f819050815f5260205f209050919050565b5f6020601f8301049050919050565b5f82821b905092915050565b5f600883026114877fffffffffffffffffffffffffffffffffffffffffffffffffffffffffffffffff8261144c565b611491868361144c565b95508019841693508086168417925050509392505050565b5f6114c36114be6114b9846110a2565b611271565b6110a2565b9050919050565b5f819050919050565b6114dc836114a9565b6114f06114e8826114ca565b848454611458565b825550505050565b5f5f905090565b6115076114f8565b6115128184846114d3565b505050565b5b818110156115355761152a5f826114ff565b600181019050611518565b5050565b601f82111561157a5761154b8161142b565b6115548461143d565b81016020851015611563578190505b61157761156f8561143d565b830182611517565b50505b505050565b5f82821c905092915050565b5f61159a5f198460080261157f565b1980831691505092915050565b5f6115b2838361158b565b9150826002028217905092915050565b6115cb82611100565b67ffffffffffffffff8111156115e4576115e36113fe565b5b6115ee8254611366565b6115f9828285611539565b5f60209050601f83116001811461162a575f8415611618578287015190505b61162285826115a7565b865550611689565b601f1984166116388661142b565b5f5b8281101561165f5784890151825560018201915060208501945060208101905061163a565b8683101561167c5784890151611678601f89168261158b565b8355505b6001600288020188555050505b505050505050565b5f819050815f5260205f209050919050565b601f8211156116e4576116b581611691565b6116be8461143d565b810160208510156116cd578190505b6116e16116d98561143d565b830182611517565b50505b505050565b6116f282610f0d565b67ffffffffffffffff81111561170b5761170a6113fe565b5b6117158254611366565b6117208282856116a3565b5f60209050601f831160018114611751575f841561173f578287015190505b61174985826115a7565b8655506117b0565b601f19841661175f86611691565b5f5b8281101561178657848901518255600182019150602085019450602081019050611761565b868310156117a3578489015161179f601f89168261158b565b8355505b6001600288020188555050505b505050505050565b7f4f6e6c79206f776e6572000000000000000000000000000000000000000000005f82015250565b5f6117ec600a8361110a565b91506117f7826117b8565b602082019050919050565b5f6020820190508181035f830152611819816117e0565b9050919050565b5f8151905061182e816110ab565b92915050565b5f6020828403121561184957611848610e26565b5b5f61185684828501611820565b91505092915050565b7f4e487b71000000000000000000000000000000000000000000000000000000005f52603260045260245ffd5b5f61189682611100565b6118a081856112e5565b93506118b0818560208601610f27565b80840191505092915050565b5f6118c7828461188c565b915081905092915050565b5f6040820190506118e55f83018561119c565b6118f2602083018461119c565b939250505056fea2646970667358221220a70215f694d787a64c49f42c4c57827e9a61e423afc5259583564f69f297327764736f6c634300081f0033",
					"opcodes": "PUSH1 0x80 PUSH1 0x40 MSTORE CALLVALUE DUP1 ISZERO PUSH1 0xE JUMPI PUSH0 PUSH0 REVERT JUMPDEST POP CALLER PUSH1 0x5 PUSH0 PUSH2 0x100 EXP DUP2 SLOAD DUP2 PUSH20 0xFFFFFFFFFFFFFFFFFFFFFFFFFFFFFFFFFFFFFFFF MUL NOT AND SWAP1 DUP4 PUSH20 0xFFFFFFFFFFFFFFFFFFFFFFFFFFFFFFFFFFFFFFFF AND MUL OR SWAP1 SSTORE POP PUSH2 0x192F DUP1 PUSH2 0x5C PUSH0 CODECOPY PUSH0 RETURN INVALID PUSH1 0x80 PUSH1 0x40 MSTORE CALLVALUE DUP1 ISZERO PUSH2 0xF JUMPI PUSH0 PUSH0 REVERT JUMPDEST POP PUSH1 0x4 CALLDATASIZE LT PUSH2 0xB2 JUMPI PUSH0 CALLDATALOAD PUSH1 0xE0 SHR DUP1 PUSH4 0xA6591CDF GT PUSH2 0x6F JUMPI DUP1 PUSH4 0xA6591CDF EQ PUSH2 0x18C JUMPI DUP1 PUSH4 0xABB2EFDF EQ PUSH2 0x1AA JUMPI DUP1 PUSH4 0xD4D59EDB EQ PUSH2 0x1C8 JUMPI DUP1 PUSH4 0xD795EDE1 EQ PUSH2 0x1E4 JUMPI DUP1 PUSH4 0xE2D2BFE3 EQ PUSH2 0x202 JUMPI DUP1 PUSH4 0xEE6713DF EQ PUSH2 0x220 JUMPI PUSH2 0xB2 JUMP JUMPDEST DUP1 PUSH4 0x16F1ADC1 EQ PUSH2 0xB6 JUMPI DUP1 PUSH4 0x2E057B9B EQ PUSH2 0xE6 JUMPI DUP1 PUSH4 0x3B6556BF EQ PUSH2 0x102 JUMPI DUP1 PUSH4 0x750588CF EQ PUSH2 0x134 JUMPI DUP1 PUSH4 0x8DA5CB5B EQ PUSH2 0x152 JUMPI DUP1 PUSH4 0x9AAD69E7 EQ PUSH2 0x170 JUMPI JUMPDEST PUSH0 PUSH0 REVERT JUMPDEST PUSH2 0xD0 PUSH1 0x4 DUP1 CALLDATASIZE SUB DUP2 ADD SWAP1 PUSH2 0xCB SWAP2 SWAP1 PUSH2 0xE8F JUMP JUMPDEST PUSH2 0x23E JUMP JUMPDEST PUSH1 0x40 MLOAD PUSH2 0xDD SWAP2 SWAP1 PUSH2 0xF7D JUMP JUMPDEST PUSH1 0x40 MLOAD DUP1 SWAP2 SUB SWAP1 RETURN JUMPDEST PUSH2 0x100 PUSH1 0x4 DUP1 CALLDATASIZE SUB DUP2 ADD SWAP1 PUSH2 0xFB SWAP2 SWAP1 PUSH2 0xFF2 JUMP JUMPDEST PUSH2 0x30F JUMP JUMPDEST STOP JUMPDEST PUSH2 0x11C PUSH1 0x4 DUP1 CALLDATASIZE SUB DUP2 ADD SWAP1 PUSH2 0x117 SWAP2 SWAP1 PUSH2 0x10D5 JUMP JUMPDEST PUSH2 0x565 JUMP JUMPDEST PUSH1 0x40 MLOAD PUSH2 0x12B SWAP4 SWAP3 SWAP2 SWAP1 PUSH2 0x1152 JUMP JUMPDEST PUSH1 0x40 MLOAD DUP1 SWAP2 SUB SWAP1 RETURN JUMPDEST PUSH2 0x13C PUSH2 0x72C JUMP JUMPDEST PUSH1 0x40 MLOAD PUSH2 0x149 SWAP2 SWAP1 PUSH2 0x11AB JUMP JUMPDEST PUSH1 0x40 MLOAD DUP1 SWAP2 SUB SWAP1 RETURN JUMPDEST PUSH2 0x15A PUSH2 0x732 JUMP JUMPDEST PUSH1 0x40 MLOAD PUSH2 0x167 SWAP2 SWAP1 PUSH2 0x1203 JUMP JUMPDEST PUSH1 0x40 MLOAD DUP1 SWAP2 SUB SWAP1 RETURN JUMPDEST PUSH2 0x18A PUSH1 0x4 DUP1 CALLDATASIZE SUB DUP2 ADD SWAP1 PUSH2 0x185 SWAP2 SWAP1 PUSH2 0x1246 JUMP JUMPDEST PUSH2 0x757 JUMP JUMPDEST STOP JUMPDEST PUSH2 0x194 PUSH2 0x86C JUMP JUMPDEST PUSH1 0x40 MLOAD PUSH2 0x1A1 SWAP2 SWAP1 PUSH2 0x1203 JUMP JUMPDEST PUSH1 0x40 MLOAD DUP1 SWAP2 SUB SWAP1 RETURN JUMPDEST PUSH2 0x1B2 PUSH2 0x891 JUMP JUMPDEST PUSH1 0x40 MLOAD PUSH2 0x1BF SWAP2 SWAP1 PUSH2 0x11AB JUMP JUMPDEST PUSH1 0x40 MLOAD DUP1 SWAP2 SUB SWAP1 RETURN JUMPDEST PUSH2 0x1E2 PUSH1 0x4 DUP1 CALLDATASIZE SUB DUP2 ADD SWAP1 PUSH2 0x1DD SWAP2 SWAP1 PUSH2 0x1246 JUMP JUMPDEST PUSH2 0x896 JUMP JUMPDEST STOP JUMPDEST PUSH2 0x1EC PUSH2 0x9AB JUMP JUMPDEST PUSH1 0x40 MLOAD PUSH2 0x1F9 SWAP2 SWAP1 PUSH2 0x11AB JUMP JUMPDEST PUSH1 0x40 MLOAD DUP1 SWAP2 SUB SWAP1 RETURN JUMPDEST PUSH2 0x20A PUSH2 0x9B7 JUMP JUMPDEST PUSH1 0x40 MLOAD PUSH2 0x217 SWAP2 SWAP1 PUSH2 0x12CC JUMP JUMPDEST PUSH1 0x40 MLOAD DUP1 SWAP2 SUB SWAP1 RETURN JUMPDEST PUSH2 0x228 PUSH2 0x9DC JUMP JUMPDEST PUSH1 0x40 MLOAD PUSH2 0x235 SWAP2 SWAP1 PUSH2 0x11AB JUMP JUMPDEST PUSH1 0x40 MLOAD DUP1 SWAP2 SUB SWAP1 RETURN JUMPDEST PUSH1 0x60 PUSH1 0x7 DUP6 DUP6 PUSH1 0x40 MLOAD PUSH2 0x252 SWAP3 SWAP2 SWAP1 PUSH2 0x1321 JUMP JUMPDEST SWAP1 DUP2 MSTORE PUSH1 0x20 ADD PUSH1 0x40 MLOAD DUP1 SWAP2 SUB SWAP1 KECCAK256 DUP4 DUP4 PUSH1 0x40 MLOAD PUSH2 0x270 SWAP3 SWAP2 SWAP1 PUSH2 0x1321 JUMP JUMPDEST SWAP1 DUP2 MSTORE PUSH1 0x20 ADD PUSH1 0x40 MLOAD DUP1 SWAP2 SUB SWAP1 KECCAK256 DUP1 SLOAD PUSH2 0x289 SWAP1 PUSH2 0x1366 JUMP JUMPDEST DUP1 PUSH1 0x1F ADD PUSH1 0x20 DUP1 SWAP2 DIV MUL PUSH1 0x20 ADD PUSH1 0x40 MLOAD SWAP1 DUP2 ADD PUSH1 0x40 MSTORE DUP1 SWAP3 SWAP2 SWAP1 DUP2 DUP2 MSTORE PUSH1 0x20 ADD DUP3 DUP1 SLOAD PUSH2 0x2B5 SWAP1 PUSH2 0x1366 JUMP JUMPDEST DUP1 ISZERO PUSH2 0x300 JUMPI DUP1 PUSH1 0x1F LT PUSH2 0x2D7 JUMPI PUSH2 0x100 DUP1 DUP4 SLOAD DIV MUL DUP4 MSTORE SWAP2 PUSH1 0x20 ADD SWAP2 PUSH2 0x300 JUMP JUMPDEST DUP3 ADD SWAP2 SWAP1 PUSH0 MSTORE PUSH1 0x20 PUSH0 KECCAK256 SWAP1 JUMPDEST DUP2 SLOAD DUP2 MSTORE SWAP1 PUSH1 0x1 ADD SWAP1 PUSH1 0x20 ADD DUP1 DUP4 GT PUSH2 0x2E3 JUMPI DUP3 SWAP1 SUB PUSH1 0x1F AND DUP3 ADD SWAP2 JUMPDEST POP POP POP POP POP SWAP1 POP SWAP5 SWAP4 POP POP POP POP JUMP JUMPDEST PUSH1 0x4 PUSH0 SWAP1 SLOAD SWAP1 PUSH2 0x100 EXP SWAP1 DIV PUSH20 0xFFFFFFFFFFFFFFFFFFFFFFFFFFFFFFFFFFFFFFFF AND PUSH20 0xFFFFFFFFFFFFFFFFFFFFFFFFFFFFFFFFFFFFFFFF AND CALLER PUSH20 0xFFFFFFFFFFFFFFFFFFFFFFFFFFFFFFFFFFFFFFFF AND EQ PUSH2 0x39E JUMPI PUSH1 0x40 MLOAD PUSH32 0x8C379A000000000000000000000000000000000000000000000000000000000 DUP2 MSTORE PUSH1 0x4 ADD PUSH2 0x395 SWAP1 PUSH2 0x13E0 JUMP JUMPDEST PUSH1 0x40 MLOAD DUP1 SWAP2 SUB SWAP1 REVERT JUMPDEST PUSH2 0x3A6 PUSH2 0x9E2 JUMP JUMPDEST PUSH1 0x6 PUSH1 0x40 MLOAD DUP1 PUSH1 0x60 ADD PUSH1 0x40 MSTORE DUP1 DUP9 DUP9 DUP1 DUP1 PUSH1 0x1F ADD PUSH1 0x20 DUP1 SWAP2 DIV MUL PUSH1 0x20 ADD PUSH1 0x40 MLOAD SWAP1 DUP2 ADD PUSH1 0x40 MSTORE DUP1 SWAP4 SWAP3 SWAP2 SWAP1 DUP2 DUP2 MSTORE PUSH1 0x20 ADD DUP4 DUP4 DUP1 DUP3 DUP5 CALLDATACOPY PUSH0 DUP2 DUP5 ADD MSTORE PUSH1 0x1F NOT PUSH1 0x1F DUP3 ADD AND SWAP1 POP DUP1 DUP4 ADD SWAP3 POP POP POP POP POP POP POP DUP2 MSTORE PUSH1 0x20 ADD DUP7 DUP7 DUP1 DUP1 PUSH1 0x1F ADD PUSH1 0x20 DUP1 SWAP2 DIV MUL PUSH1 0x20 ADD PUSH1 0x40 MLOAD SWAP1 DUP2 ADD PUSH1 0x40 MSTORE DUP1 SWAP4 SWAP3 SWAP2 SWAP1 DUP2 DUP2 MSTORE PUSH1 0x20 ADD DUP4 DUP4 DUP1 DUP3 DUP5 CALLDATACOPY PUSH0 DUP2 DUP5 ADD MSTORE PUSH1 0x1F NOT PUSH1 0x1F DUP3 ADD AND SWAP1 POP DUP1 DUP4 ADD SWAP3 POP POP POP POP POP POP POP DUP2 MSTORE PUSH1 0x20 ADD DUP5 DUP5 DUP1 DUP1 PUSH1 0x1F ADD PUSH1 0x20 DUP1 SWAP2 DIV MUL PUSH1 0x20 ADD PUSH1 0x40 MLOAD SWAP1 DUP2 ADD PUSH1 0x40 MSTORE DUP1 SWAP4 SWAP3 SWAP2 SWAP1 DUP2 DUP2 MSTORE PUSH1 0x20 ADD DUP4 DUP4 DUP1 DUP3 DUP5 CALLDATACOPY PUSH0 DUP2 DUP5 ADD MSTORE PUSH1 0x1F NOT PUSH1 0x1F DUP3 ADD AND SWAP1 POP DUP1 DUP4 ADD SWAP3 POP POP POP POP POP POP POP DUP2 MSTORE POP SWAP1 DUP1 PUSH1 0x1 DUP2 SLOAD ADD DUP1 DUP3 SSTORE DUP1 SWAP2 POP POP PUSH1 0x1 SWAP1 SUB SWAP1 PUSH0 MSTORE PUSH1 0x20 PUSH0 KECCAK256 SWAP1 PUSH1 0x3 MUL ADD PUSH0 SWAP1 SWAP2 SWAP1 SWAP2 SWAP1 SWAP2 POP PUSH0 DUP3 ADD MLOAD DUP2 PUSH0 ADD SWAP1 DUP2 PUSH2 0x4C5 SWAP2 SWAP1 PUSH2 0x15C2 JUMP JUMPDEST POP PUSH1 0x20 DUP3 ADD MLOAD DUP2 PUSH1 0x1 ADD SWAP1 DUP2 PUSH2 0x4DB SWAP2 SWAP1 PUSH2 0x15C2 JUMP JUMPDEST POP PUSH1 0x40 DUP3 ADD MLOAD DUP2 PUSH1 0x2 ADD SWAP1 DUP2 PUSH2 0x4F1 SWAP2 SWAP1 PUSH2 0x16E9 JUMP JUMPDEST POP POP POP DUP4 DUP4 PUSH1 0x40 MLOAD PUSH2 0x504 SWAP3 SWAP2 SWAP1 PUSH2 0x1321 JUMP JUMPDEST PUSH1 0x40 MLOAD DUP1 SWAP2 SUB SWAP1 KECCAK256 DUP7 DUP7 PUSH1 0x40 MLOAD PUSH2 0x51C SWAP3 SWAP2 SWAP1 PUSH2 0x1321 JUMP JUMPDEST PUSH1 0x40 MLOAD DUP1 SWAP2 SUB SWAP1 KECCAK256 PUSH32 0x1B9831F8FBA460F180116967424398F8E8503BCA4FF62445B6A6C5EA38D6FF57 PUSH1 0x3 SLOAD PUSH1 0x40 MLOAD PUSH2 0x555 SWAP2 SWAP1 PUSH2 0x11AB JUMP JUMPDEST PUSH1 0x40 MLOAD DUP1 SWAP2 SUB SWAP1 LOG3 POP POP POP POP POP POP JUMP JUMPDEST PUSH1 0x6 DUP2 DUP2 SLOAD DUP2 LT PUSH2 0x574 JUMPI PUSH0 DUP1 REVERT JUMPDEST SWAP1 PUSH0 MSTORE PUSH1 0x20 PUSH0 KECCAK256 SWAP1 PUSH1 0x3 MUL ADD PUSH0 SWAP2 POP SWAP1 POP DUP1 PUSH0 ADD DUP1 SLOAD PUSH2 0x593 SWAP1 PUSH2 0x1366 JUMP JUMPDEST DUP1 PUSH1 0x1F ADD PUSH1 0x20 DUP1 SWAP2 DIV MUL PUSH1 0x20 ADD PUSH1 0x40 MLOAD SWAP1 DUP2 ADD PUSH1 0x40 MSTORE DUP1 SWAP3 SWAP2 SWAP1 DUP2 DUP2 MSTORE PUSH1 0x20 ADD DUP3 DUP1 SLOAD PUSH2 0x5BF SWAP1 PUSH2 0x1366 JUMP JUMPDEST DUP1 ISZERO PUSH2 0x60A JUMPI DUP1 PUSH1 0x1F LT PUSH2 0x5E1 JUMPI PUSH2 0x100 DUP1 DUP4 SLOAD DIV MUL DUP4 MSTORE SWAP2 PUSH1 0x20 ADD SWAP2 PUSH2 0x60A JUMP JUMPDEST DUP3 ADD SWAP2 SWAP1 PUSH0 MSTORE PUSH1 0x20 PUSH0 KECCAK256 SWAP1 JUMPDEST DUP2 SLOAD DUP2 MSTORE SWAP1 PUSH1 0x1 ADD SWAP1 PUSH1 0x20 ADD DUP1 DUP4 GT PUSH2 0x5ED JUMPI DUP3 SWAP1 SUB PUSH1 0x1F AND DUP3 ADD SWAP2 JUMPDEST POP POP POP POP POP SWAP1 DUP1 PUSH1 0x1 ADD DUP1 SLOAD PUSH2 0x61F SWAP1 PUSH2 0x1366 JUMP JUMPDEST DUP1 PUSH1 0x1F ADD PUSH1 0x20 DUP1 SWAP2 DIV MUL PUSH1 0x20 ADD PUSH1 0x40 MLOAD SWAP1 DUP2 ADD PUSH1 0x40 MSTORE DUP1 SWAP3 SWAP2 SWAP1 DUP2 DUP2 MSTORE PUSH1 0x20 ADD DUP3 DUP1 SLOAD PUSH2 0x64B SWAP1 PUSH2 0x1366 JUMP JUMPDEST DUP1 ISZERO PUSH2 0x696 JUMPI DUP1 PUSH1 0x1F LT PUSH2 0x66D JUMPI PUSH2 0x100 DUP1 DUP4 SLOAD DIV MUL DUP4 MSTORE SWAP2 PUSH1 0x20 ADD SWAP2 PUSH2 0x696 JUMP JUMPDEST DUP3 ADD SWAP2 SWAP1 PUSH0 MSTORE PUSH1 0x20 PUSH0 KECCAK256 SWAP1 JUMPDEST DUP2 SLOAD DUP2 MSTORE SWAP1 PUSH1 0x1 ADD SWAP1 PUSH1 0x20 ADD DUP1 DUP4 GT PUSH2 0x679 JUMPI DUP3 SWAP1 SUB PUSH1 0x1F AND DUP3 ADD SWAP2 JUMPDEST POP POP POP POP POP SWAP1 DUP1 PUSH1 0x2 ADD DUP1 SLOAD PUSH2 0x6AB SWAP1 PUSH2 0x1366 JUMP JUMPDEST DUP1 PUSH1 0x1F ADD PUSH1 0x20 DUP1 SWAP2 DIV MUL PUSH1 0x20 ADD PUSH1 0x40 MLOAD SWAP1 DUP2 ADD PUSH1 0x40 MSTORE DUP1 SWAP3 SWAP2 SWAP1 DUP2 DUP2 MSTORE PUSH1 0x20 ADD DUP3 DUP1 SLOAD PUSH2 0x6D7 SWAP1 PUSH2 0x1366 JUMP JUMPDEST DUP1 ISZERO PUSH2 0x722 JUMPI DUP1 PUSH1 0x1F LT PUSH2 0x6F9 JUMPI PUSH2 0x100 DUP1 DUP4 SLOAD DIV MUL DUP4 MSTORE SWAP2 PUSH1 0x20 ADD SWAP2 PUSH2 0x722 JUMP JUMPDEST DUP3 ADD SWAP2 SWAP1 PUSH0 MSTORE PUSH1 0x20 PUSH0 KECCAK256 SWAP1 JUMPDEST DUP2 SLOAD DUP2 MSTORE SWAP1 PUSH1 0x1 ADD SWAP1 PUSH1 0x20 ADD DUP1 DUP4 GT PUSH2 0x705 JUMPI DUP3 SWAP1 SUB PUSH1 0x1F AND DUP3 ADD SWAP2 JUMPDEST POP POP POP POP POP SWAP1 POP DUP4 JUMP JUMPDEST PUSH1 0x1 SLOAD DUP2 JUMP JUMPDEST PUSH1 0x5 PUSH0 SWAP1 SLOAD SWAP1 PUSH2 0x100 EXP SWAP1 DIV PUSH20 0xFFFFFFFFFFFFFFFFFFFFFFFFFFFFFFFFFFFFFFFF AND DUP2 JUMP JUMPDEST PUSH1 0x5 PUSH0 SWAP1 SLOAD SWAP1 PUSH2 0x100 EXP SWAP1 DIV PUSH20 0xFFFFFFFFFFFFFFFFFFFFFFFFFFFFFFFFFFFFFFFF AND PUSH20 0xFFFFFFFFFFFFFFFFFFFFFFFFFFFFFFFFFFFFFFFF AND CALLER PUSH20 0xFFFFFFFFFFFFFFFFFFFFFFFFFFFFFFFFFFFFFFFF AND EQ PUSH2 0x7E6 JUMPI PUSH1 0x40 MLOAD PUSH32 0x8C379A000000000000000000000000000000000000000000000000000000000 DUP2 MSTORE PUSH1 0x4 ADD PUSH2 0x7DD SWAP1 PUSH2 0x1802 JUMP JUMPDEST PUSH1 0x40 MLOAD DUP1 SWAP2 SUB SWAP1 REVERT JUMPDEST DUP1 PUSH1 0x4 PUSH0 PUSH2 0x100 EXP DUP2 SLOAD DUP2 PUSH20 0xFFFFFFFFFFFFFFFFFFFFFFFFFFFFFFFFFFFFFFFF MUL NOT AND SWAP1 DUP4 PUSH20 0xFFFFFFFFFFFFFFFFFFFFFFFFFFFFFFFFFFFFFFFF AND MUL OR SWAP1 SSTORE POP DUP1 PUSH20 0xFFFFFFFFFFFFFFFFFFFFFFFFFFFFFFFFFFFFFFFF AND PUSH32 0x2E8B6F15CA325EDAD1931B418450CD194DAF93E7F40FE4A48D9B1B4BF2A8F069 PUSH1 0x40 MLOAD PUSH1 0x40 MLOAD DUP1 SWAP2 SUB SWAP1 LOG2 POP JUMP JUMPDEST PUSH1 0x4 PUSH0 SWAP1 SLOAD SWAP1 PUSH2 0x100 EXP SWAP1 DIV PUSH20 0xFFFFFFFFFFFFFFFFFFFFFFFFFFFFFFFFFFFFFFFF AND DUP2 JUMP JUMPDEST PUSH0 SLOAD DUP2 JUMP JUMPDEST PUSH1 0x5 PUSH0 SWAP1 SLOAD SWAP1 PUSH2 0x100 EXP SWAP1 DIV PUSH20 0xFFFFFFFFFFFFFFFFFFFFFFFFFFFFFFFFFFFFFFFF AND PUSH20 0xFFFFFFFFFFFFFFFFFFFFFFFFFFFFFFFFFFFFFFFF AND CALLER PUSH20 0xFFFFFFFFFFFFFFFFFFFFFFFFFFFFFFFFFFFFFFFF AND EQ PUSH2 0x925 JUMPI PUSH1 0x40 MLOAD PUSH32 0x8C379A000000000000000000000000000000000000000000000000000000000 DUP2 MSTORE PUSH1 0x4 ADD PUSH2 0x91C SWAP1 PUSH2 0x1802 JUMP JUMPDEST PUSH1 0x40 MLOAD DUP1 SWAP2 SUB SWAP1 REVERT JUMPDEST DUP1 PUSH1 0x2 PUSH0 PUSH2 0x100 EXP DUP2 SLOAD DUP2 PUSH20 0xFFFFFFFFFFFFFFFFFFFFFFFFFFFFFFFFFFFFFFFF MUL NOT AND SWAP1 DUP4 PUSH20 0xFFFFFFFFFFFFFFFFFFFFFFFFFFFFFFFFFFFFFFFF AND MUL OR SWAP1 SSTORE POP DUP1 PUSH20 0xFFFFFFFFFFFFFFFFFFFFFFFFFFFFFFFFFFFFFFFF AND PUSH32 0x4B9D66D8E64DFF6D9D2728F9A38DA9739D3CFDBE676FDE05564AAE22F8508465 PUSH1 0x40 MLOAD PUSH1 0x40 MLOAD DUP1 SWAP2 SUB SWAP1 LOG2 POP JUMP JUMPDEST PUSH0 PUSH1 0x6 DUP1 SLOAD SWAP1 POP SWAP1 POP SWAP1 JUMP JUMPDEST PUSH1 0x2 PUSH0 SWAP1 SLOAD SWAP1 PUSH2 0x100 EXP SWAP1 DIV PUSH20 0xFFFFFFFFFFFFFFFFFFFFFFFFFFFFFFFFFFFFFFFF AND DUP2 JUMP JUMPDEST PUSH1 0x3 SLOAD DUP2 JUMP JUMPDEST PUSH0 PUSH1 0x2 PUSH0 SWAP1 SLOAD SWAP1 PUSH2 0x100 EXP SWAP1 DIV PUSH20 0xFFFFFFFFFFFFFFFFFFFFFFFFFFFFFFFFFFFFFFFF AND PUSH20 0xFFFFFFFFFFFFFFFFFFFFFFFFFFFFFFFFFFFFFFFF AND PUSH4 0xB97DD9E2 PUSH1 0x40 MLOAD DUP2 PUSH4 0xFFFFFFFF AND PUSH1 0xE0 SHL DUP2 MSTORE PUSH1 0x4 ADD PUSH1 0x20 PUSH1 0x40 MLOAD DUP1 DUP4 SUB DUP2 DUP7 GAS STATICCALL ISZERO DUP1 ISZERO PUSH2 0xA4D JUMPI RETURNDATASIZE PUSH0 PUSH0 RETURNDATACOPY RETURNDATASIZE PUSH0 REVERT JUMPDEST POP POP POP POP PUSH1 0x40 MLOAD RETURNDATASIZE PUSH1 0x1F NOT PUSH1 0x1F DUP3 ADD AND DUP3 ADD DUP1 PUSH1 0x40 MSTORE POP DUP2 ADD SWAP1 PUSH2 0xA71 SWAP2 SWAP1 PUSH2 0x1834 JUMP JUMPDEST SWAP1 POP PUSH1 0x3 SLOAD DUP2 GT ISZERO PUSH2 0xD2A JUMPI PUSH0 PUSH0 SWAP1 POP JUMPDEST PUSH1 0x6 DUP1 SLOAD SWAP1 POP DUP2 LT ISZERO PUSH2 0xCCD JUMPI PUSH0 PUSH1 0x6 DUP3 DUP2 SLOAD DUP2 LT PUSH2 0xAA4 JUMPI PUSH2 0xAA3 PUSH2 0x185F JUMP JUMPDEST JUMPDEST SWAP1 PUSH0 MSTORE PUSH1 0x20 PUSH0 KECCAK256 SWAP1 PUSH1 0x3 MUL ADD PUSH1 0x40 MLOAD DUP1 PUSH1 0x60 ADD PUSH1 0x40 MSTORE SWAP1 DUP2 PUSH0 DUP3 ADD DUP1 SLOAD PUSH2 0xACA SWAP1 PUSH2 0x1366 JUMP JUMPDEST DUP1 PUSH1 0x1F ADD PUSH1 0x20 DUP1 SWAP2 DIV MUL PUSH1 0x20 ADD PUSH1 0x40 MLOAD SWAP1 DUP2 ADD PUSH1 0x40 MSTORE DUP1 SWAP3 SWAP2 SWAP1 DUP2 DUP2 MSTORE PUSH1 0x20 ADD DUP3 DUP1 SLOAD PUSH2 0xAF6 SWAP1 PUSH2 0x1366 JUMP JUMPDEST DUP1 ISZERO PUSH2 0xB41 JUMPI DUP1 PUSH1 0x1F LT PUSH2 0xB18 JUMPI PUSH2 0x100 DUP1 DUP4 SLOAD DIV MUL DUP4 MSTORE SWAP2 PUSH1 0x20 ADD SWAP2 PUSH2 0xB41 JUMP JUMPDEST DUP3 ADD SWAP2 SWAP1 PUSH0 MSTORE PUSH1 0x20 PUSH0 KECCAK256 SWAP1 JUMPDEST DUP2 SLOAD DUP2 MSTORE SWAP1 PUSH1 0x1 ADD SWAP1 PUSH1 0x20 ADD DUP1 DUP4 GT PUSH2 0xB24 JUMPI DUP3 SWAP1 SUB PUSH1 0x1F AND DUP3 ADD SWAP2 JUMPDEST POP POP POP POP POP DUP2 MSTORE PUSH1 0x20 ADD PUSH1 0x1 DUP3 ADD DUP1 SLOAD PUSH2 0xB5A SWAP1 PUSH2 0x1366 JUMP JUMPDEST DUP1 PUSH1 0x1F ADD PUSH1 0x20 DUP1 SWAP2 DIV MUL PUSH1 0x20 ADD PUSH1 0x40 MLOAD SWAP1 DUP2 ADD PUSH1 0x40 MSTORE DUP1 SWAP3 SWAP2 SWAP1 DUP2 DUP2 MSTORE PUSH1 0x20 ADD DUP3 DUP1 SLOAD PUSH2 0xB86 SWAP1 PUSH2 0x1366 JUMP JUMPDEST DUP1 ISZERO PUSH2 0xBD1 JUMPI DUP1 PUSH1 0x1F LT PUSH2 0xBA8 JUMPI PUSH2 0x100 DUP1 DUP4 SLOAD DIV MUL DUP4 MSTORE SWAP2 PUSH1 0x20 ADD SWAP2 PUSH2 0xBD1 JUMP JUMPDEST DUP3 ADD SWAP2 SWAP1 PUSH0 MSTORE PUSH1 0x20 PUSH0 KECCAK256 SWAP1 JUMPDEST DUP2 SLOAD DUP2 MSTORE SWAP1 PUSH1 0x1 ADD SWAP1 PUSH1 0x20 ADD DUP1 DUP4 GT PUSH2 0xBB4 JUMPI DUP3 SWAP1 SUB PUSH1 0x1F AND DUP3 ADD SWAP2 JUMPDEST POP POP POP POP POP DUP2 MSTORE PUSH1 0x20 ADD PUSH1 0x2 DUP3 ADD DUP1 SLOAD PUSH2 0xBEA SWAP1 PUSH2 0x1366 JUMP JUMPDEST DUP1 PUSH1 0x1F ADD PUSH1 0x20 DUP1 SWAP2 DIV MUL PUSH1 0x20 ADD PUSH1 0x40 MLOAD SWAP1 DUP2 ADD PUSH1 0x40 MSTORE DUP1 SWAP3 SWAP2 SWAP1 DUP2 DUP2 MSTORE PUSH1 0x20 ADD DUP3 DUP1 SLOAD PUSH2 0xC16 SWAP1 PUSH2 0x1366 JUMP JUMPDEST DUP1 ISZERO PUSH2 0xC61 JUMPI DUP1 PUSH1 0x1F LT PUSH2 0xC38 JUMPI PUSH2 0x100 DUP1 DUP4 SLOAD DIV MUL DUP4 MSTORE SWAP2 PUSH1 0x20 ADD SWAP2 PUSH2 0xC61 JUMP JUMPDEST DUP3 ADD SWAP2 SWAP1 PUSH0 MSTORE PUSH1 0x20 PUSH0 KECCAK256 SWAP1 JUMPDEST DUP2 SLOAD DUP2 MSTORE SWAP1 PUSH1 0x1 ADD SWAP1 PUSH1 0x20 ADD DUP1 DUP4 GT PUSH2 0xC44 JUMPI DUP3 SWAP1 SUB PUSH1 0x1F AND DUP3 ADD SWAP2 JUMPDEST POP POP POP POP POP DUP2 MSTORE POP POP SWAP1 POP DUP1 PUSH1 0x40 ADD MLOAD PUSH1 0x7 DUP3 PUSH0 ADD MLOAD PUSH1 0x40 MLOAD PUSH2 0xC84 SWAP2 SWAP1 PUSH2 0x18BC JUMP JUMPDEST SWAP1 DUP2 MSTORE PUSH1 0x20 ADD PUSH1 0x40 MLOAD DUP1 SWAP2 SUB SWAP1 KECCAK256 DUP3 PUSH1 0x20 ADD MLOAD PUSH1 0x40 MLOAD PUSH2 0xCA4 SWAP2 SWAP1 PUSH2 0x18BC JUMP JUMPDEST SWAP1 DUP2 MSTORE PUSH1 0x20 ADD PUSH1 0x40 MLOAD DUP1 SWAP2 SUB SWAP1 KECCAK256 SWAP1 DUP2 PUSH2 0xCBE SWAP2 SWAP1 PUSH2 0x16E9 JUMP JUMPDEST POP POP DUP1 DUP1 PUSH1 0x1 ADD SWAP2 POP POP PUSH2 0xA82 JUMP JUMPDEST POP PUSH0 PUSH1 0x6 DUP1 SLOAD SWAP1 POP SWAP1 POP PUSH1 0x6 PUSH0 PUSH2 0xCE4 SWAP2 SWAP1 PUSH2 0xD2D JUMP JUMPDEST PUSH1 0x3 SLOAD PUSH32 0x1081F92591666E5FFF3D8FD275844896C7116C7D6B875C80D51B9BEAC7893A98 DUP3 PUSH0 SLOAD PUSH1 0x40 MLOAD PUSH2 0xD19 SWAP3 SWAP2 SWAP1 PUSH2 0x18D2 JUMP JUMPDEST PUSH1 0x40 MLOAD DUP1 SWAP2 SUB SWAP1 LOG2 DUP2 PUSH1 0x3 DUP2 SWAP1 SSTORE POP POP JUMPDEST POP JUMP JUMPDEST POP DUP1 SLOAD PUSH0 DUP3 SSTORE PUSH1 0x3 MUL SWAP1 PUSH0 MSTORE PUSH1 0x20 PUSH0 KECCAK256 SWAP1 DUP2 ADD SWAP1 PUSH2 0xD4B SWAP2 SWAP1 PUSH2 0xD4E JUMP JUMPDEST POP JUMP JUMPDEST JUMPDEST DUP1 DUP3 GT ISZERO PUSH2 0xD8D JUMPI PUSH0 PUSH0 DUP3 ADD PUSH0 PUSH2 0xD66 SWAP2 SWAP1 PUSH2 0xD91 JUMP JUMPDEST PUSH1 0x1 DUP3 ADD PUSH0 PUSH2 0xD75 SWAP2 SWAP1 PUSH2 0xD91 JUMP JUMPDEST PUSH1 0x2 DUP3 ADD PUSH0 PUSH2 0xD84 SWAP2 SWAP1 PUSH2 0xDCE JUMP JUMPDEST POP PUSH1 0x3 ADD PUSH2 0xD4F JUMP JUMPDEST POP SWAP1 JUMP JUMPDEST POP DUP1 SLOAD PUSH2 0xD9D SWAP1 PUSH2 0x1366 JUMP JUMPDEST PUSH0 DUP3 SSTORE DUP1 PUSH1 0x1F LT PUSH2 0xDAE JUMPI POP PUSH2 0xDCB JUMP JUMPDEST PUSH1 0x1F ADD PUSH1 0x20 SWAP1 DIV SWAP1 PUSH0 MSTORE PUSH1 0x20 PUSH0 KECCAK256 SWAP1 DUP2 ADD SWAP1 PUSH2 0xDCA SWAP2 SWAP1 PUSH2 0xE0B JUMP JUMPDEST JUMPDEST POP JUMP JUMPDEST POP DUP1 SLOAD PUSH2 0xDDA SWAP1 PUSH2 0x1366 JUMP JUMPDEST PUSH0 DUP3 SSTORE DUP1 PUSH1 0x1F LT PUSH2 0xDEB JUMPI POP PUSH2 0xE08 JUMP JUMPDEST PUSH1 0x1F ADD PUSH1 0x20 SWAP1 DIV SWAP1 PUSH0 MSTORE PUSH1 0x20 PUSH0 KECCAK256 SWAP1 DUP2 ADD SWAP1 PUSH2 0xE07 SWAP2 SWAP1 PUSH2 0xE0B JUMP JUMPDEST JUMPDEST POP JUMP JUMPDEST JUMPDEST DUP1 DUP3 GT ISZERO PUSH2 0xE22 JUMPI PUSH0 DUP2 PUSH0 SWAP1 SSTORE POP PUSH1 0x1 ADD PUSH2 0xE0C JUMP JUMPDEST POP SWAP1 JUMP JUMPDEST PUSH0 PUSH0 REVERT JUMPDEST PUSH0 PUSH0 REVERT JUMPDEST PUSH0 PUSH0 REVERT JUMPDEST PUSH0 PUSH0 REVERT JUMPDEST PUSH0 PUSH0 REVERT JUMPDEST PUSH0 PUSH0 DUP4 PUSH1 0x1F DUP5 ADD SLT PUSH2 0xE4F JUMPI PUSH2 0xE4E PUSH2 0xE2E JUMP JUMPDEST JUMPDEST DUP3 CALLDATALOAD SWAP1 POP PUSH8 0xFFFFFFFFFFFFFFFF DUP2 GT ISZERO PUSH2 0xE6C JUMPI PUSH2 0xE6B PUSH2 0xE32 JUMP JUMPDEST JUMPDEST PUSH1 0x20 DUP4 ADD SWAP2 POP DUP4 PUSH1 0x1 DUP3 MUL DUP4 ADD GT ISZERO PUSH2 0xE88 JUMPI PUSH2 0xE87 PUSH2 0xE36 JUMP JUMPDEST JUMPDEST SWAP3 POP SWAP3 SWAP1 POP JUMP JUMPDEST PUSH0 PUSH0 PUSH0 PUSH0 PUSH1 0x40 DUP6 DUP8 SUB SLT ISZERO PUSH2 0xEA7 JUMPI PUSH2 0xEA6 PUSH2 0xE26 JUMP JUMPDEST JUMPDEST PUSH0 DUP6 ADD CALLDATALOAD PUSH8 0xFFFFFFFFFFFFFFFF DUP2 GT ISZERO PUSH2 0xEC4 JUMPI PUSH2 0xEC3 PUSH2 0xE2A JUMP JUMPDEST JUMPDEST PUSH2 0xED0 DUP8 DUP3 DUP9 ADD PUSH2 0xE3A JUMP JUMPDEST SWAP5 POP SWAP5 POP POP PUSH1 0x20 DUP6 ADD CALLDATALOAD PUSH8 0xFFFFFFFFFFFFFFFF DUP2 GT ISZERO PUSH2 0xEF3 JUMPI PUSH2 0xEF2 PUSH2 0xE2A JUMP JUMPDEST JUMPDEST PUSH2 0xEFF DUP8 DUP3 DUP9 ADD PUSH2 0xE3A JUMP JUMPDEST SWAP3 POP SWAP3 POP POP SWAP3 SWAP6 SWAP2 SWAP5 POP SWAP3 POP JUMP JUMPDEST PUSH0 DUP2 MLOAD SWAP1 POP SWAP2 SWAP1 POP JUMP JUMPDEST PUSH0 DUP3 DUP3 MSTORE PUSH1 0x20 DUP3 ADD SWAP1 POP SWAP3 SWAP2 POP POP JUMP JUMPDEST DUP3 DUP2 DUP4 MCOPY PUSH0 DUP4 DUP4 ADD MSTORE POP POP POP JUMP JUMPDEST PUSH0 PUSH1 0x1F NOT PUSH1 0x1F DUP4 ADD AND SWAP1 POP SWAP2 SWAP1 POP JUMP JUMPDEST PUSH0 PUSH2 0xF4F DUP3 PUSH2 0xF0D JUMP JUMPDEST PUSH2 0xF59 DUP2 DUP6 PUSH2 0xF17 JUMP JUMPDEST SWAP4 POP PUSH2 0xF69 DUP2 DUP6 PUSH1 0x20 DUP7 ADD PUSH2 0xF27 JUMP JUMPDEST PUSH2 0xF72 DUP2 PUSH2 0xF35 JUMP JUMPDEST DUP5 ADD SWAP2 POP POP SWAP3 SWAP2 POP POP JUMP JUMPDEST PUSH0 PUSH1 0x20 DUP3 ADD SWAP1 POP DUP2 DUP2 SUB PUSH0 DUP4 ADD MSTORE PUSH2 0xF95 DUP2 DUP5 PUSH2 0xF45 JUMP JUMPDEST SWAP1 POP SWAP3 SWAP2 POP POP JUMP JUMPDEST PUSH0 PUSH0 DUP4 PUSH1 0x1F DUP5 ADD SLT PUSH2 0xFB2 JUMPI PUSH2 0xFB1 PUSH2 0xE2E JUMP JUMPDEST JUMPDEST DUP3 CALLDATALOAD SWAP1 POP PUSH8 0xFFFFFFFFFFFFFFFF DUP2 GT ISZERO PUSH2 0xFCF JUMPI PUSH2 0xFCE PUSH2 0xE32 JUMP JUMPDEST JUMPDEST PUSH1 0x20 DUP4 ADD SWAP2 POP DUP4 PUSH1 0x1 DUP3 MUL DUP4 ADD GT ISZERO PUSH2 0xFEB JUMPI PUSH2 0xFEA PUSH2 0xE36 JUMP JUMPDEST JUMPDEST SWAP3 POP SWAP3 SWAP1 POP JUMP JUMPDEST PUSH0 PUSH0 PUSH0 PUSH0 PUSH0 PUSH0 PUSH1 0x60 DUP8 DUP10 SUB SLT ISZERO PUSH2 0x100C JUMPI PUSH2 0x100B PUSH2 0xE26 JUMP JUMPDEST JUMPDEST PUSH0 DUP8 ADD CALLDATALOAD PUSH8 0xFFFFFFFFFFFFFFFF DUP2 GT ISZERO PUSH2 0x1029 JUMPI PUSH2 0x1028 PUSH2 0xE2A JUMP JUMPDEST JUMPDEST PUSH2 0x1035 DUP10 DUP3 DUP11 ADD PUSH2 0xE3A JUMP JUMPDEST SWAP7 POP SWAP7 POP POP PUSH1 0x20 DUP8 ADD CALLDATALOAD PUSH8 0xFFFFFFFFFFFFFFFF DUP2 GT ISZERO PUSH2 0x1058 JUMPI PUSH2 0x1057 PUSH2 0xE2A JUMP JUMPDEST JUMPDEST PUSH2 0x1064 DUP10 DUP3 DUP11 ADD PUSH2 0xE3A JUMP JUMPDEST SWAP5 POP SWAP5 POP POP PUSH1 0x40 DUP8 ADD CALLDATALOAD PUSH8 0xFFFFFFFFFFFFFFFF DUP2 GT ISZERO PUSH2 0x1087 JUMPI PUSH2 0x1086 PUSH2 0xE2A JUMP JUMPDEST JUMPDEST PUSH2 0x1093 DUP10 DUP3 DUP11 ADD PUSH2 0xF9D JUMP JUMPDEST SWAP3 POP SWAP3 POP POP SWAP3 SWAP6 POP SWAP3 SWAP6 POP SWAP3 SWAP6 JUMP JUMPDEST PUSH0 DUP2 SWAP1 POP SWAP2 SWAP1 POP JUMP JUMPDEST PUSH2 0x10B4 DUP2 PUSH2 0x10A2 JUMP JUMPDEST DUP2 EQ PUSH2 0x10BE JUMPI PUSH0 PUSH0 REVERT JUMPDEST POP JUMP JUMPDEST PUSH0 DUP2 CALLDATALOAD SWAP1 POP PUSH2 0x10CF DUP2 PUSH2 0x10AB JUMP JUMPDEST SWAP3 SWAP2 POP POP JUMP JUMPDEST PUSH0 PUSH1 0x20 DUP3 DUP5 SUB SLT ISZERO PUSH2 0x10EA JUMPI PUSH2 0x10E9 PUSH2 0xE26 JUMP JUMPDEST JUMPDEST PUSH0 PUSH2 0x10F7 DUP5 DUP3 DUP6 ADD PUSH2 0x10C1 JUMP JUMPDEST SWAP2 POP POP SWAP3 SWAP2 POP POP JUMP JUMPDEST PUSH0 DUP2 MLOAD SWAP1 POP SWAP2 SWAP1 POP JUMP JUMPDEST PUSH0 DUP3 DUP3 MSTORE PUSH1 0x20 DUP3 ADD SWAP1 POP SWAP3 SWAP2 POP POP JUMP JUMPDEST PUSH0 PUSH2 0x1124 DUP3 PUSH2 0x1100 JUMP JUMPDEST PUSH2 0x112E DUP2 DUP6 PUSH2 0x110A JUMP JUMPDEST SWAP4 POP PUSH2 0x113E DUP2 DUP6 PUSH1 0x20 DUP7 ADD PUSH2 0xF27 JUMP JUMPDEST PUSH2 0x1147 DUP2 PUSH2 0xF35 JUMP JUMPDEST DUP5 ADD SWAP2 POP POP SWAP3 SWAP2 POP POP JUMP JUMPDEST PUSH0 PUSH1 0x60 DUP3 ADD SWAP1 POP DUP2 DUP2 SUB PUSH0 DUP4 ADD MSTORE PUSH2 0x116A DUP2 DUP7 PUSH2 0x111A JUMP JUMPDEST SWAP1 POP DUP2 DUP2 SUB PUSH1 0x20 DUP4 ADD MSTORE PUSH2 0x117E DUP2 DUP6 PUSH2 0x111A JUMP JUMPDEST SWAP1 POP DUP2 DUP2 SUB PUSH1 0x40 DUP4 ADD MSTORE PUSH2 0x1192 DUP2 DUP5 PUSH2 0xF45 JUMP JUMPDEST SWAP1 POP SWAP5 SWAP4 POP POP POP POP JUMP JUMPDEST PUSH2 0x11A5 DUP2 PUSH2 0x10A2 JUMP JUMPDEST DUP3 MSTORE POP POP JUMP JUMPDEST PUSH0 PUSH1 0x20 DUP3 ADD SWAP1 POP PUSH2 0x11BE PUSH0 DUP4 ADD DUP5 PUSH2 0x119C JUMP JUMPDEST SWAP3 SWAP2 POP POP JUMP JUMPDEST PUSH0 PUSH20 0xFFFFFFFFFFFFFFFFFFFFFFFFFFFFFFFFFFFFFFFF DUP3 AND SWAP1 POP SWAP2 SWAP1 POP JUMP JUMPDEST PUSH0 PUSH2 0x11ED DUP3 PUSH2 0x11C4 JUMP JUMPDEST SWAP1 POP SWAP2 SWAP1 POP JUMP JUMPDEST PUSH2 0x11FD DUP2 PUSH2 0x11E3 JUMP JUMPDEST DUP3 MSTORE POP POP JUMP JUMPDEST PUSH0 PUSH1 0x20 DUP3 ADD SWAP1 POP PUSH2 0x1216 PUSH0 DUP4 ADD DUP5 PUSH2 0x11F4 JUMP JUMPDEST SWAP3 SWAP2 POP POP JUMP JUMPDEST PUSH2 0x1225 DUP2 PUSH2 0x11E3 JUMP JUMPDEST DUP2 EQ PUSH2 0x122F JUMPI PUSH0 PUSH0 REVERT JUMPDEST POP JUMP JUMPDEST PUSH0 DUP2 CALLDATALOAD SWAP1 POP PUSH2 0x1240 DUP2 PUSH2 0x121C JUMP JUMPDEST SWAP3 SWAP2 POP POP JUMP JUMPDEST PUSH0 PUSH1 0x20 DUP3 DUP5 SUB SLT ISZERO PUSH2 0x125B JUMPI PUSH2 0x125A PUSH2 0xE26 JUMP JUMPDEST JUMPDEST PUSH0 PUSH2 0x1268 DUP5 DUP3 DUP6 ADD PUSH2 0x1232 JUMP JUMPDEST SWAP2 POP POP SWAP3 SWAP2 POP POP JUMP JUMPDEST PUSH0 DUP2 SWAP1 POP SWAP2 SWAP1 POP JUMP JUMPDEST PUSH0 PUSH2 0x1294 PUSH2 0x128F PUSH2 0x128A DUP5 PUSH2 0x11C4 JUMP JUMPDEST PUSH2 0x1271 JUMP JUMPDEST PUSH2 0x11C4 JUMP JUMPDEST SWAP1 POP SWAP2 SWAP1 POP JUMP JUMPDEST PUSH0 PUSH2 0x12A5 DUP3 PUSH2 0x127A JUMP JUMPDEST SWAP1 POP SWAP2 SWAP1 POP JUMP JUMPDEST PUSH0 PUSH2 0x12B6 DUP3 PUSH2 0x129B JUMP JUMPDEST SWAP1 POP SWAP2 SWAP1 POP JUMP JUMPDEST PUSH2 0x12C6 DUP2 PUSH2 0x12AC JUMP JUMPDEST DUP3 MSTORE POP POP JUMP JUMPDEST PUSH0 PUSH1 0x20 DUP3 ADD SWAP1 POP PUSH2 0x12DF PUSH0 DUP4 ADD DUP5 PUSH2 0x12BD JUMP JUMPDEST SWAP3 SWAP2 POP POP JUMP JUMPDEST PUSH0 DUP2 SWAP1 POP SWAP3 SWAP2 POP POP JUMP JUMPDEST DUP3 DUP2 DUP4 CALLDATACOPY PUSH0 DUP4 DUP4 ADD MSTORE POP POP POP JUMP JUMPDEST PUSH0 PUSH2 0x1308 DUP4 DUP6 PUSH2 0x12E5 JUMP JUMPDEST SWAP4 POP PUSH2 0x1315 DUP4 DUP6 DUP5 PUSH2 0x12EF JUMP JUMPDEST DUP3 DUP5 ADD SWAP1 POP SWAP4 SWAP3 POP POP POP JUMP JUMPDEST PUSH0 PUSH2 0x132D DUP3 DUP5 DUP7 PUSH2 0x12FD JUMP JUMPDEST SWAP2 POP DUP2 SWAP1 POP SWAP4 SWAP3 POP POP POP JUMP JUMPDEST PUSH32 0x4E487B7100000000000000000000000000000000000000000000000000000000 PUSH0 MSTORE PUSH1 0x22 PUSH1 0x4 MSTORE PUSH1 0x24 PUSH0 REVERT JUMPDEST PUSH0 PUSH1 0x2 DUP3 DIV SWAP1 POP PUSH1 0x1 DUP3 AND DUP1 PUSH2 0x137D JUMPI PUSH1 0x7F DUP3 AND SWAP2 POP JUMPDEST PUSH1 0x20 DUP3 LT DUP2 SUB PUSH2 0x1390 JUMPI PUSH2 0x138F PUSH2 0x1339 JUMP JUMPDEST JUMPDEST POP SWAP2 SWAP1 POP JUMP JUMPDEST PUSH32 0x4E6F7420617574686F72697A6564000000000000000000000000000000000000 PUSH0 DUP3 ADD MSTORE POP JUMP JUMPDEST PUSH0 PUSH2 0x13CA PUSH1 0xE DUP4 PUSH2 0x110A JUMP JUMPDEST SWAP2 POP PUSH2 0x13D5 DUP3 PUSH2 0x1396 JUMP JUMPDEST PUSH1 0x20 DUP3 ADD SWAP1 POP SWAP2 SWAP1 POP JUMP JUMPDEST PUSH0 PUSH1 0x20 DUP3 ADD SWAP1 POP DUP2 DUP2 SUB PUSH0 DUP4 ADD MSTORE PUSH2 0x13F7 DUP2 PUSH2 0x13BE JUMP JUMPDEST SWAP1 POP SWAP2 SWAP1 POP JUMP JUMPDEST PUSH32 0x4E487B7100000000000000000000000000000000000000000000000000000000 PUSH0 MSTORE PUSH1 0x41 PUSH1 0x4 MSTORE PUSH1 0x24 PUSH0 REVERT JUMPDEST PUSH0 DUP2 SWAP1 POP DUP2 PUSH0 MSTORE PUSH1 0x20 PUSH0 KECCAK256 SWAP1 POP SWAP2 SWAP1 POP JUMP JUMPDEST PUSH0 PUSH1 0x20 PUSH1 0x1F DUP4 ADD DIV SWAP1 POP SWAP2 SWAP1 POP JUMP JUMPDEST PUSH0 DUP3 DUP3 SHL SWAP1 POP SWAP3 SWAP2 POP POP JUMP JUMPDEST PUSH0 PUSH1 0x8 DUP4 MUL PUSH2 0x1487 PUSH32 0xFFFFFFFFFFFFFFFFFFFFFFFFFFFFFFFFFFFFFFFFFFFFFFFFFFFFFFFFFFFFFFFF DUP3 PUSH2 0x144C JUMP JUMPDEST PUSH2 0x1491 DUP7 DUP4 PUSH2 0x144C JUMP JUMPDEST SWAP6 POP DUP1 NOT DUP5 AND SWAP4 POP DUP1 DUP7 AND DUP5 OR SWAP3 POP POP POP SWAP4 SWAP3 POP POP POP JUMP JUMPDEST PUSH0 PUSH2 0x14C3 PUSH2 0x14BE PUSH2 0x14B9 DUP5 PUSH2 0x10A2 JUMP JUMPDEST PUSH2 0x1271 JUMP JUMPDEST PUSH2 0x10A2 JUMP JUMPDEST SWAP1 POP SWAP2 SWAP1 POP JUMP JUMPDEST PUSH0 DUP2 SWAP1 POP SWAP2 SWAP1 POP JUMP JUMPDEST PUSH2 0x14DC DUP4 PUSH2 0x14A9 JUMP JUMPDEST PUSH2 0x14F0 PUSH2 0x14E8 DUP3 PUSH2 0x14CA JUMP JUMPDEST DUP5 DUP5 SLOAD PUSH2 0x1458 JUMP JUMPDEST DUP3 SSTORE POP POP POP POP JUMP JUMPDEST PUSH0 PUSH0 SWAP1 POP SWAP1 JUMP JUMPDEST PUSH2 0x1507 PUSH2 0x14F8 JUMP JUMPDEST PUSH2 0x1512 DUP2 DUP5 DUP5 PUSH2 0x14D3 JUMP JUMPDEST POP POP POP JUMP JUMPDEST JUMPDEST DUP2 DUP2 LT ISZERO PUSH2 0x1535 JUMPI PUSH2 0x152A PUSH0 DUP3 PUSH2 0x14FF JUMP JUMPDEST PUSH1 0x1 DUP2 ADD SWAP1 POP PUSH2 0x1518 JUMP JUMPDEST POP POP JUMP JUMPDEST PUSH1 0x1F DUP3 GT ISZERO PUSH2 0x157A JUMPI PUSH2 0x154B DUP2 PUSH2 0x142B JUMP JUMPDEST PUSH2 0x1554 DUP5 PUSH2 0x143D JUMP JUMPDEST DUP2 ADD PUSH1 0x20 DUP6 LT ISZERO PUSH2 0x1563 JUMPI DUP2 SWAP1 POP JUMPDEST PUSH2 0x1577 PUSH2 0x156F DUP6 PUSH2 0x143D JUMP JUMPDEST DUP4 ADD DUP3 PUSH2 0x1517 JUMP JUMPDEST POP POP JUMPDEST POP POP POP JUMP JUMPDEST PUSH0 DUP3 DUP3 SHR SWAP1 POP SWAP3 SWAP2 POP POP JUMP JUMPDEST PUSH0 PUSH2 0x159A PUSH0 NOT DUP5 PUSH1 0x8 MUL PUSH2 0x157F JUMP JUMPDEST NOT DUP1 DUP4 AND SWAP2 POP POP SWAP3 SWAP2 POP POP JUMP JUMPDEST PUSH0 PUSH2 0x15B2 DUP4 DUP4 PUSH2 0x158B JUMP JUMPDEST SWAP2 POP DUP3 PUSH1 0x2 MUL DUP3 OR SWAP1 POP SWAP3 SWAP2 POP POP JUMP JUMPDEST PUSH2 0x15CB DUP3 PUSH2 0x1100 JUMP JUMPDEST PUSH8 0xFFFFFFFFFFFFFFFF DUP2 GT ISZERO PUSH2 0x15E4 JUMPI PUSH2 0x15E3 PUSH2 0x13FE JUMP JUMPDEST JUMPDEST PUSH2 0x15EE DUP3 SLOAD PUSH2 0x1366 JUMP JUMPDEST PUSH2 0x15F9 DUP3 DUP3 DUP6 PUSH2 0x1539 JUMP JUMPDEST PUSH0 PUSH1 0x20 SWAP1 POP PUSH1 0x1F DUP4 GT PUSH1 0x1 DUP2 EQ PUSH2 0x162A JUMPI PUSH0 DUP5 ISZERO PUSH2 0x1618 JUMPI DUP3 DUP8 ADD MLOAD SWAP1 POP JUMPDEST PUSH2 0x1622 DUP6 DUP3 PUSH2 0x15A7 JUMP JUMPDEST DUP7 SSTORE POP PUSH2 0x1689 JUMP JUMPDEST PUSH1 0x1F NOT DUP5 AND PUSH2 0x1638 DUP7 PUSH2 0x142B JUMP JUMPDEST PUSH0 JUMPDEST DUP3 DUP2 LT ISZERO PUSH2 0x165F JUMPI DUP5 DUP10 ADD MLOAD DUP3 SSTORE PUSH1 0x1 DUP3 ADD SWAP2 POP PUSH1 0x20 DUP6 ADD SWAP5 POP PUSH1 0x20 DUP2 ADD SWAP1 POP PUSH2 0x163A JUMP JUMPDEST DUP7 DUP4 LT ISZERO PUSH2 0x167C JUMPI DUP5 DUP10 ADD MLOAD PUSH2 0x1678 PUSH1 0x1F DUP10 AND DUP3 PUSH2 0x158B JUMP JUMPDEST DUP4 SSTORE POP JUMPDEST PUSH1 0x1 PUSH1 0x2 DUP9 MUL ADD DUP9 SSTORE POP POP POP JUMPDEST POP POP POP POP POP POP JUMP JUMPDEST PUSH0 DUP2 SWAP1 POP DUP2 PUSH0 MSTORE PUSH1 0x20 PUSH0 KECCAK256 SWAP1 POP SWAP2 SWAP1 POP JUMP JUMPDEST PUSH1 0x1F DUP3 GT ISZERO PUSH2 0x16E4 JUMPI PUSH2 0x16B5 DUP2 PUSH2 0x1691 JUMP JUMPDEST PUSH2 0x16BE DUP5 PUSH2 0x143D JUMP JUMPDEST DUP2 ADD PUSH1 0x20 DUP6 LT ISZERO PUSH2 0x16CD JUMPI DUP2 SWAP1 POP JUMPDEST PUSH2 0x16E1 PUSH2 0x16D9 DUP6 PUSH2 0x143D JUMP JUMPDEST DUP4 ADD DUP3 PUSH2 0x1517 JUMP JUMPDEST POP POP JUMPDEST POP POP POP JUMP JUMPDEST PUSH2 0x16F2 DUP3 PUSH2 0xF0D JUMP JUMPDEST PUSH8 0xFFFFFFFFFFFFFFFF DUP2 GT ISZERO PUSH2 0x170B JUMPI PUSH2 0x170A PUSH2 0x13FE JUMP JUMPDEST JUMPDEST PUSH2 0x1715 DUP3 SLOAD PUSH2 0x1366 JUMP JUMPDEST PUSH2 0x1720 DUP3 DUP3 DUP6 PUSH2 0x16A3 JUMP JUMPDEST PUSH0 PUSH1 0x20 SWAP1 POP PUSH1 0x1F DUP4 GT PUSH1 0x1 DUP2 EQ PUSH2 0x1751 JUMPI PUSH0 DUP5 ISZERO PUSH2 0x173F JUMPI DUP3 DUP8 ADD MLOAD SWAP1 POP JUMPDEST PUSH2 0x1749 DUP6 DUP3 PUSH2 0x15A7 JUMP JUMPDEST DUP7 SSTORE POP PUSH2 0x17B0 JUMP JUMPDEST PUSH1 0x1F NOT DUP5 AND PUSH2 0x175F DUP7 PUSH2 0x1691 JUMP JUMPDEST PUSH0 JUMPDEST DUP3 DUP2 LT ISZERO PUSH2 0x1786 JUMPI DUP5 DUP10 ADD MLOAD DUP3 SSTORE PUSH1 0x1 DUP3 ADD SWAP2 POP PUSH1 0x20 DUP6 ADD SWAP5 POP PUSH1 0x20 DUP2 ADD SWAP1 POP PUSH2 0x1761 JUMP JUMPDEST DUP7 DUP4 LT ISZERO PUSH2 0x17A3 JUMPI DUP5 DUP10 ADD MLOAD PUSH2 0x179F PUSH1 0x1F DUP10 AND DUP3 PUSH2 0x158B JUMP JUMPDEST DUP4 SSTORE POP JUMPDEST PUSH1 0x1 PUSH1 0x2 DUP9 MUL ADD DUP9 SSTORE POP POP POP JUMPDEST POP POP POP POP POP POP JUMP JUMPDEST PUSH32 0x4F6E6C79206F776E657200000000000000000000000000000000000000000000 PUSH0 DUP3 ADD MSTORE POP JUMP JUMPDEST PUSH0 PUSH2 0x17EC PUSH1 0xA DUP4 PUSH2 0x110A JUMP JUMPDEST SWAP2 POP PUSH2 0x17F7 DUP3 PUSH2 0x17B8 JUMP JUMPDEST PUSH1 0x20 DUP3 ADD SWAP1 POP SWAP2 SWAP1 POP JUMP JUMPDEST PUSH0 PUSH1 0x20 DUP3 ADD SWAP1 POP DUP2 DUP2 SUB PUSH0 DUP4 ADD MSTORE PUSH2 0x1819 DUP2 PUSH2 0x17E0 JUMP JUMPDEST SWAP1 POP SWAP2 SWAP1 POP JUMP JUMPDEST PUSH0 DUP2 MLOAD SWAP1 POP PUSH2 0x182E DUP2 PUSH2 0x10AB JUMP JUMPDEST SWAP3 SWAP2 POP POP JUMP JUMPDEST PUSH0 PUSH1 0x20 DUP3 DUP5 SUB SLT ISZERO PUSH2 0x1849 JUMPI PUSH2 0x1848 PUSH2 0xE26 JUMP JUMPDEST JUMPDEST PUSH0 PUSH2 0x1856 DUP5 DUP3 DUP6 ADD PUSH2 0x1820 JUMP JUMPDEST SWAP2 POP POP SWAP3 SWAP2 POP POP JUMP JUMPDEST PUSH32 0x4E487B7100000000000000000000000000000000000000000000000000000000 PUSH0 MSTORE PUSH1 0x32 PUSH1 0x4 MSTORE PUSH1 0x24 PUSH0 REVERT JUMPDEST PUSH0 PUSH2 0x1896 DUP3 PUSH2 0x1100 JUMP JUMPDEST PUSH2 0x18A0 DUP2 DUP6 PUSH2 0x12E5 JUMP JUMPDEST SWAP4 POP PUSH2 0x18B0 DUP2 DUP6 PUSH1 0x20 DUP7 ADD PUSH2 0xF27 JUMP JUMPDEST DUP1 DUP5 ADD SWAP2 POP POP SWAP3 SWAP2 POP POP JUMP JUMPDEST PUSH0 PUSH2 0x18C7 DUP3 DUP5 PUSH2 0x188C JUMP JUMPDEST SWAP2 POP DUP2 SWAP1 POP SWAP3 SWAP2 POP POP JUMP JUMPDEST PUSH0 PUSH1 0x40 DUP3 ADD SWAP1 POP PUSH2 0x18E5 PUSH0 DUP4 ADD DUP6 PUSH2 0x119C JUMP JUMPDEST PUSH2 0x18F2 PUSH1 0x20 DUP4 ADD DUP5 PUSH2 0x119C JUMP JUMPDEST SWAP4 SWAP3 POP POP POP JUMP INVALID LOG2 PUSH5 0x6970667358 0x22 SLT KECCAK256 0xA7 MUL ISZERO 0xF6 SWAP5 0xD7 DUP8 0xA6 0x4C BLOBHASH DELEGATECALL 0x2C 0x4C JUMPI DUP3 PUSH31 0x9A61E423AFC5259583564F69F297327764736F6C634300081F003300000000 "
				},
				"gasEstimates": {
					"creation": {
						"codeDepositCost": "1289400",
						"executionCost": "25605",
						"totalCost": "1315005"
					},
					"external": {
						"activeRoot()": "2446",
						"addPendingVariable(string,string,bytes)": "infinite",
						"authorizedContract()": "2508",
						"epochManager()": "infinite",
						"getActiveVariable(string,string)": "infinite",
						"getPendingCount()": "2506",
						"lastProcessedEpoch()": "2535",
						"owner()": "2597",
						"pendingRoot()": "2492",
						"pendingVariables(uint256)": "infinite",
						"setAuthorizedContract(address)": "28156",
						"setEpochManager(address)": "28089"
					},
					"internal": {
						"_checkAndHandleEpochRollover()": "infinite"
					}
				},
				"methodIdentifiers": {
					"activeRoot()": "abb2efdf",
					"addPendingVariable(string,string,bytes)": "2e057b9b",
					"authorizedContract()": "a6591cdf",
					"epochManager()": "e2d2bfe3",
					"getActiveVariable(string,string)": "16f1adc1",
					"getPendingCount()": "d795ede1",
					"lastProcessedEpoch()": "ee6713df",
					"owner()": "8da5cb5b",
					"pendingRoot()": "750588cf",
					"pendingVariables(uint256)": "3b6556bf",
					"setAuthorizedContract(address)": "9aad69e7",
					"setEpochManager(address)": "d4d59edb"
				}
			},
			"storageLayout": {
				"storage": [
					{
						"astId": 16,
						"contract": "Evm/core/variables.sol:QiaraVariables",
						"label": "activeRoot",
						"offset": 0,
						"slot": "0",
						"type": "t_uint256"
					},
					{
						"astId": 18,
						"contract": "Evm/core/variables.sol:QiaraVariables",
						"label": "pendingRoot",
						"offset": 0,
						"slot": "1",
						"type": "t_uint256"
					},
					{
						"astId": 21,
						"contract": "Evm/core/variables.sol:QiaraVariables",
						"label": "epochManager",
						"offset": 0,
						"slot": "2",
						"type": "t_contract(IEpochManager)7"
					},
					{
						"astId": 23,
						"contract": "Evm/core/variables.sol:QiaraVariables",
						"label": "lastProcessedEpoch",
						"offset": 0,
						"slot": "3",
						"type": "t_uint256"
					},
					{
						"astId": 25,
						"contract": "Evm/core/variables.sol:QiaraVariables",
						"label": "authorizedContract",
						"offset": 0,
						"slot": "4",
						"type": "t_address"
					},
					{
						"astId": 27,
						"contract": "Evm/core/variables.sol:QiaraVariables",
						"label": "owner",
						"offset": 0,
						"slot": "5",
						"type": "t_address"
					},
					{
						"astId": 31,
						"contract": "Evm/core/variables.sol:QiaraVariables",
						"label": "pendingVariables",
						"offset": 0,
						"slot": "6",
						"type": "t_array(t_struct(VariableEntry)14_storage)dyn_storage"
					},
					{
						"astId": 37,
						"contract": "Evm/core/variables.sol:QiaraVariables",
						"label": "_activeData",
						"offset": 0,
						"slot": "7",
						"type": "t_mapping(t_string_memory_ptr,t_mapping(t_string_memory_ptr,t_bytes_storage))"
					}
				],
				"types": {
					"t_address": {
						"encoding": "inplace",
						"label": "address",
						"numberOfBytes": "20"
					},
					"t_array(t_struct(VariableEntry)14_storage)dyn_storage": {
						"base": "t_struct(VariableEntry)14_storage",
						"encoding": "dynamic_array",
						"label": "struct QiaraVariables.VariableEntry[]",
						"numberOfBytes": "32"
					},
					"t_bytes_storage": {
						"encoding": "bytes",
						"label": "bytes",
						"numberOfBytes": "32"
					},
					"t_contract(IEpochManager)7": {
						"encoding": "inplace",
						"label": "contract IEpochManager",
						"numberOfBytes": "20"
					},
					"t_mapping(t_string_memory_ptr,t_bytes_storage)": {
						"encoding": "mapping",
						"key": "t_string_memory_ptr",
						"label": "mapping(string => bytes)",
						"numberOfBytes": "32",
						"value": "t_bytes_storage"
					},
					"t_mapping(t_string_memory_ptr,t_mapping(t_string_memory_ptr,t_bytes_storage))": {
						"encoding": "mapping",
						"key": "t_string_memory_ptr",
						"label": "mapping(string => mapping(string => bytes))",
						"numberOfBytes": "32",
						"value": "t_mapping(t_string_memory_ptr,t_bytes_storage)"
					},
					"t_string_memory_ptr": {
						"encoding": "bytes",
						"label": "string",
						"numberOfBytes": "32"
					},
					"t_string_storage": {
						"encoding": "bytes",
						"label": "string",
						"numberOfBytes": "32"
					},
					"t_struct(VariableEntry)14_storage": {
						"encoding": "inplace",
						"label": "struct QiaraVariables.VariableEntry",
						"members": [
							{
								"astId": 9,
								"contract": "Evm/core/variables.sol:QiaraVariables",
								"label": "header",
								"offset": 0,
								"slot": "0",
								"type": "t_string_storage"
							},
							{
								"astId": 11,
								"contract": "Evm/core/variables.sol:QiaraVariables",
								"label": "name",
								"offset": 0,
								"slot": "1",
								"type": "t_string_storage"
							},
							{
								"astId": 13,
								"contract": "Evm/core/variables.sol:QiaraVariables",
								"label": "data",
								"offset": 0,
								"slot": "2",
								"type": "t_bytes_storage"
							}
						],
						"numberOfBytes": "96"
					},
					"t_uint256": {
						"encoding": "inplace",
						"label": "uint256",
						"numberOfBytes": "32"
					}
				}
			},
			"userdoc": {
				"kind": "user",
				"methods": {},
				"version": 1
			}
		}
	}
}