{
	"Evm/core/monad/vaultDelegator.sol": {
		"QiaraZKDelegator": {
			"abi": [
				{
					"inputs": [
						{
							"internalType": "address",
							"name": "_balance_verifier",
							"type": "address"
						},
						{
							"internalType": "address",
							"name": "_variable_verifier",
							"type": "address"
						},
						{
							"internalType": "address",
							"name": "_validator_verifier",
							"type": "address"
						},
						{
							"internalType": "address",
							"name": "_variablesRegistry",
							"type": "address"
						},
						{
							"internalType": "address",
							"name": "_validatorsRegistry",
							"type": "address"
						}
					],
					"stateMutability": "nonpayable",
					"type": "constructor"
				},
				{
					"inputs": [
						{
							"internalType": "address",
							"name": "owner",
							"type": "address"
						}
					],
					"name": "OwnableInvalidOwner",
					"type": "error"
				},
				{
					"inputs": [
						{
							"internalType": "address",
							"name": "account",
							"type": "address"
						}
					],
					"name": "OwnableUnauthorizedAccount",
					"type": "error"
				},
				{
					"anonymous": false,
					"inputs": [
						{
							"indexed": true,
							"internalType": "address",
							"name": "previousOwner",
							"type": "address"
						},
						{
							"indexed": true,
							"internalType": "address",
							"name": "newOwner",
							"type": "address"
						}
					],
					"name": "OwnershipTransferred",
					"type": "event"
				},
				{
					"inputs": [],
					"name": "balance_verifier",
					"outputs": [
						{
							"internalType": "contract IBalanceVerifier",
							"name": "",
							"type": "address"
						}
					],
					"stateMutability": "view",
					"type": "function"
				},
				{
					"inputs": [
						{
							"internalType": "uint256",
							"name": "_field",
							"type": "uint256"
						}
					],
					"name": "fieldToAddress",
					"outputs": [
						{
							"internalType": "address",
							"name": "",
							"type": "address"
						}
					],
					"stateMutability": "pure",
					"type": "function"
				},
				{
					"inputs": [
						{
							"internalType": "uint256",
							"name": "_field",
							"type": "uint256"
						}
					],
					"name": "fieldToBytes",
					"outputs": [
						{
							"internalType": "bytes",
							"name": "",
							"type": "bytes"
						}
					],
					"stateMutability": "pure",
					"type": "function"
				},
				{
					"inputs": [
						{
							"internalType": "uint256",
							"name": "_field",
							"type": "uint256"
						}
					],
					"name": "fieldToString",
					"outputs": [
						{
							"internalType": "string",
							"name": "",
							"type": "string"
						}
					],
					"stateMutability": "pure",
					"type": "function"
				},
				{
					"inputs": [
						{
							"internalType": "bytes32",
							"name": "_messageHash",
							"type": "bytes32"
						}
					],
					"name": "getEthSignedMessageHash",
					"outputs": [
						{
							"internalType": "bytes32",
							"name": "",
							"type": "bytes32"
						}
					],
					"stateMutability": "pure",
					"type": "function"
				},
				{
					"inputs": [],
					"name": "owner",
					"outputs": [
						{
							"internalType": "address",
							"name": "",
							"type": "address"
						}
					],
					"stateMutability": "view",
					"type": "function"
				},
				{
					"inputs": [
						{
							"internalType": "uint256[2]",
							"name": "_pA",
							"type": "uint256[2]"
						},
						{
							"internalType": "uint256[2][2]",
							"name": "_pB",
							"type": "uint256[2][2]"
						},
						{
							"internalType": "uint256[2]",
							"name": "_pC",
							"type": "uint256[2]"
						},
						{
							"internalType": "uint256[6]",
							"name": "_pubSignals",
							"type": "uint256[6]"
						},
						{
							"internalType": "address[]",
							"name": "validators",
							"type": "address[]"
						},
						{
							"internalType": "bytes",
							"name": "_signatures",
							"type": "bytes"
						}
					],
					"name": "processZkValidator",
					"outputs": [],
					"stateMutability": "nonpayable",
					"type": "function"
				},
				{
					"inputs": [
						{
							"internalType": "uint256[2]",
							"name": "_pA",
							"type": "uint256[2]"
						},
						{
							"internalType": "uint256[2][2]",
							"name": "_pB",
							"type": "uint256[2][2]"
						},
						{
							"internalType": "uint256[2]",
							"name": "_pC",
							"type": "uint256[2]"
						},
						{
							"internalType": "uint256[8]",
							"name": "_pubSignals",
							"type": "uint256[8]"
						},
						{
							"internalType": "address[]",
							"name": "validators",
							"type": "address[]"
						},
						{
							"internalType": "bytes",
							"name": "_signatures",
							"type": "bytes"
						}
					],
					"name": "processZkVariable",
					"outputs": [],
					"stateMutability": "nonpayable",
					"type": "function"
				},
				{
					"inputs": [
						{
							"internalType": "uint256[2]",
							"name": "_pA",
							"type": "uint256[2]"
						},
						{
							"internalType": "uint256[2][2]",
							"name": "_pB",
							"type": "uint256[2][2]"
						},
						{
							"internalType": "uint256[2]",
							"name": "_pC",
							"type": "uint256[2]"
						},
						{
							"internalType": "uint256[8]",
							"name": "_pubSignals",
							"type": "uint256[8]"
						},
						{
							"internalType": "address[]",
							"name": "validators",
							"type": "address[]"
						},
						{
							"internalType": "bytes",
							"name": "_signatures",
							"type": "bytes"
						}
					],
					"name": "processZkWithdraw",
					"outputs": [],
					"stateMutability": "nonpayable",
					"type": "function"
				},
				{
					"inputs": [
						{
							"internalType": "bytes32",
							"name": "_ethSignedMessageHash",
							"type": "bytes32"
						},
						{
							"internalType": "bytes",
							"name": "_signature",
							"type": "bytes"
						}
					],
					"name": "recoverSigner",
					"outputs": [
						{
							"internalType": "address",
							"name": "",
							"type": "address"
						}
					],
					"stateMutability": "pure",
					"type": "function"
				},
				{
					"inputs": [],
					"name": "renounceOwnership",
					"outputs": [],
					"stateMutability": "nonpayable",
					"type": "function"
				},
				{
					"inputs": [
						{
							"internalType": "address",
							"name": "newOwner",
							"type": "address"
						}
					],
					"name": "transferOwnership",
					"outputs": [],
					"stateMutability": "nonpayable",
					"type": "function"
				},
				{
					"inputs": [
						{
							"internalType": "uint256",
							"name": "",
							"type": "uint256"
						}
					],
					"name": "usedNullifiers",
					"outputs": [
						{
							"internalType": "bool",
							"name": "",
							"type": "bool"
						}
					],
					"stateMutability": "view",
					"type": "function"
				},
				{
					"inputs": [],
					"name": "validator_verifier",
					"outputs": [
						{
							"internalType": "contract IValidatorVerifier",
							"name": "",
							"type": "address"
						}
					],
					"stateMutability": "view",
					"type": "function"
				},
				{
					"inputs": [],
					"name": "validatorsRegistry",
					"outputs": [
						{
							"internalType": "contract IValidators",
							"name": "",
							"type": "address"
						}
					],
					"stateMutability": "view",
					"type": "function"
				},
				{
					"inputs": [],
					"name": "variable_verifier",
					"outputs": [
						{
							"internalType": "contract IVariableVerifier",
							"name": "",
							"type": "address"
						}
					],
					"stateMutability": "view",
					"type": "function"
				},
				{
					"inputs": [],
					"name": "variablesRegistry",
					"outputs": [
						{
							"internalType": "contract IVariables",
							"name": "",
							"type": "address"
						}
					],
					"stateMutability": "view",
					"type": "function"
				}
			],
			"devdoc": {
				"errors": {
					"OwnableInvalidOwner(address)": [
						{
							"details": "The owner is not a valid owner account. (eg. `address(0)`)"
						}
					],
					"OwnableUnauthorizedAccount(address)": [
						{
							"details": "The caller account is not authorized to perform an operation."
						}
					]
				},
				"kind": "dev",
				"methods": {
					"owner()": {
						"details": "Returns the address of the current owner."
					},
					"renounceOwnership()": {
						"details": "Leaves the contract without owner. It will not be possible to call `onlyOwner` functions. Can only be called by the current owner. NOTE: Renouncing ownership will leave the contract without an owner, thereby disabling any functionality that is only available to the owner."
					},
					"transferOwnership(address)": {
						"details": "Transfers ownership of the contract to a new account (`newOwner`). Can only be called by the current owner."
					}
				},
				"version": 1
			},
			"evm": {
				"assembly": "    /* \"Evm/core/monad/vaultDelegator.sol\":1256:10593  contract QiaraZKDelegator is Ownable {... */\n  mstore(0x40, 0x0120)\n    /* \"Evm/core/monad/vaultDelegator.sol\":1686:2194  constructor(address _balance_verifier,address _variable_verifier,address _validator_verifier, address _variablesRegistry, address _validatorsRegistry) Ownable(msg.sender) {... */\n  callvalue\n  dup1\n  iszero\n  tag_1\n  jumpi\n  revert(0x00, 0x00)\ntag_1:\n  pop\n  mload(0x40)\n  sub(codesize, bytecodeSize)\n  dup1\n  bytecodeSize\n  dup4\n  codecopy\n  dup2\n  dup2\n  add\n  0x40\n  mstore\n  dup2\n  add\n  swap1\n  tag_2\n  swap2\n  swap1\n  tag_3\n  jump\t// in\ntag_2:\n    /* \"Evm/core/monad/vaultDelegator.sol\":1845:1855  msg.sender */\n  caller\n    /* \"@openzeppelin/contracts/access/Ownable.sol\":1297:1298  0 */\n  0x00\n    /* \"@openzeppelin/contracts/access/Ownable.sol\":1273:1299  initialOwner == address(0) */\n  0xffffffffffffffffffffffffffffffffffffffff\n  and\n    /* \"@openzeppelin/contracts/access/Ownable.sol\":1273:1285  initialOwner */\n  dup2\n    /* \"@openzeppelin/contracts/access/Ownable.sol\":1273:1299  initialOwner == address(0) */\n  0xffffffffffffffffffffffffffffffffffffffff\n  and\n  sub\n    /* \"@openzeppelin/contracts/access/Ownable.sol\":1269:1364  if (initialOwner == address(0)) {... */\n  tag_7\n  jumpi\n    /* \"@openzeppelin/contracts/access/Ownable.sol\":1350:1351  0 */\n  0x00\n    /* \"@openzeppelin/contracts/access/Ownable.sol\":1322:1353  OwnableInvalidOwner(address(0)) */\n  mload(0x40)\n  0x1e4fbdf700000000000000000000000000000000000000000000000000000000\n  dup2\n  mstore\n  0x04\n  add\n  tag_8\n  swap2\n  swap1\n  tag_9\n  jump\t// in\ntag_8:\n  mload(0x40)\n  dup1\n  swap2\n  sub\n  swap1\n  revert\n    /* \"@openzeppelin/contracts/access/Ownable.sol\":1269:1364  if (initialOwner == address(0)) {... */\ntag_7:\n    /* \"@openzeppelin/contracts/access/Ownable.sol\":1373:1405  _transferOwnership(initialOwner) */\n  tag_10\n    /* \"@openzeppelin/contracts/access/Ownable.sol\":1392:1404  initialOwner */\n  dup2\n    /* \"@openzeppelin/contracts/access/Ownable.sol\":1373:1391  _transferOwnership */\n  shl(0x20, tag_11)\n    /* \"@openzeppelin/contracts/access/Ownable.sol\":1373:1405  _transferOwnership(initialOwner) */\n  0x20\n  shr\n  jump\t// in\ntag_10:\n    /* \"@openzeppelin/contracts/access/Ownable.sol\":1225:1412  constructor(address initialOwner) {... */\n  pop\n    /* \"Evm/core/monad/vaultDelegator.sol\":1904:1921  _balance_verifier */\n  dup5\n    /* \"Evm/core/monad/vaultDelegator.sol\":1868:1922  balance_verifier = IBalanceVerifier(_balance_verifier) */\n  0xffffffffffffffffffffffffffffffffffffffff\n  and\n  0x80\n  dup2\n  0xffffffffffffffffffffffffffffffffffffffff\n  and\n  dup2\n  mstore\n  pop\n  pop\n    /* \"Evm/core/monad/vaultDelegator.sol\":1971:1989  _variable_verifier */\n  dup4\n    /* \"Evm/core/monad/vaultDelegator.sol\":1933:1990  variable_verifier = IVariableVerifier(_variable_verifier) */\n  0xffffffffffffffffffffffffffffffffffffffff\n  and\n  0xa0\n  dup2\n  0xffffffffffffffffffffffffffffffffffffffff\n  and\n  dup2\n  mstore\n  pop\n  pop\n    /* \"Evm/core/monad/vaultDelegator.sol\":2041:2060  _validator_verifier */\n  dup3\n    /* \"Evm/core/monad/vaultDelegator.sol\":2001:2061  validator_verifier = IValidatorVerifier(_validator_verifier) */\n  0xffffffffffffffffffffffffffffffffffffffff\n  and\n  0xc0\n  dup2\n  0xffffffffffffffffffffffffffffffffffffffff\n  and\n  dup2\n  mstore\n  pop\n  pop\n    /* \"Evm/core/monad/vaultDelegator.sol\":2103:2121  _variablesRegistry */\n  dup2\n    /* \"Evm/core/monad/vaultDelegator.sol\":2072:2122  variablesRegistry = IVariables(_variablesRegistry) */\n  0xffffffffffffffffffffffffffffffffffffffff\n  and\n  0xe0\n  dup2\n  0xffffffffffffffffffffffffffffffffffffffff\n  and\n  dup2\n  mstore\n  pop\n  pop\n    /* \"Evm/core/monad/vaultDelegator.sol\":2166:2185  _validatorsRegistry */\n  dup1\n    /* \"Evm/core/monad/vaultDelegator.sol\":2133:2186  validatorsRegistry = IValidators(_validatorsRegistry) */\n  0xffffffffffffffffffffffffffffffffffffffff\n  and\n  0x0100\n  dup2\n  0xffffffffffffffffffffffffffffffffffffffff\n  and\n  dup2\n  mstore\n  pop\n  pop\n    /* \"Evm/core/monad/vaultDelegator.sol\":1686:2194  constructor(address _balance_verifier,address _variable_verifier,address _validator_verifier, address _variablesRegistry, address _validatorsRegistry) Ownable(msg.sender) {... */\n  pop\n  pop\n  pop\n  pop\n  pop\n    /* \"Evm/core/monad/vaultDelegator.sol\":1256:10593  contract QiaraZKDelegator is Ownable {... */\n  jump(tag_13)\n    /* \"@openzeppelin/contracts/access/Ownable.sol\":2912:3099  function _transferOwnership(address newOwner) internal virtual {... */\ntag_11:\n    /* \"@openzeppelin/contracts/access/Ownable.sol\":2985:3001  address oldOwner */\n  0x00\n    /* \"@openzeppelin/contracts/access/Ownable.sol\":3004:3010  _owner */\n  0x00\n  0x00\n  swap1\n  sload\n  swap1\n  0x0100\n  exp\n  swap1\n  div\n  0xffffffffffffffffffffffffffffffffffffffff\n  and\n    /* \"@openzeppelin/contracts/access/Ownable.sol\":2985:3010  address oldOwner = _owner */\n  swap1\n  pop\n    /* \"@openzeppelin/contracts/access/Ownable.sol\":3029:3037  newOwner */\n  dup2\n    /* \"@openzeppelin/contracts/access/Ownable.sol\":3020:3026  _owner */\n  0x00\n  0x00\n    /* \"@openzeppelin/contracts/access/Ownable.sol\":3020:3037  _owner = newOwner */\n  0x0100\n  exp\n  dup2\n  sload\n  dup2\n  0xffffffffffffffffffffffffffffffffffffffff\n  mul\n  not\n  and\n  swap1\n  dup4\n  0xffffffffffffffffffffffffffffffffffffffff\n  and\n  mul\n  or\n  swap1\n  sstore\n  pop\n    /* \"@openzeppelin/contracts/access/Ownable.sol\":3083:3091  newOwner */\n  dup2\n    /* \"@openzeppelin/contracts/access/Ownable.sol\":3052:3092  OwnershipTransferred(oldOwner, newOwner) */\n  0xffffffffffffffffffffffffffffffffffffffff\n  and\n    /* \"@openzeppelin/contracts/access/Ownable.sol\":3073:3081  oldOwner */\n  dup2\n    /* \"@openzeppelin/contracts/access/Ownable.sol\":3052:3092  OwnershipTransferred(oldOwner, newOwner) */\n  0xffffffffffffffffffffffffffffffffffffffff\n  and\n  0x8be0079c531659141344cd1fd0a4f28419497f9722a3daafe3b4186f6b6457e0\n  mload(0x40)\n  mload(0x40)\n  dup1\n  swap2\n  sub\n  swap1\n  log3\n    /* \"@openzeppelin/contracts/access/Ownable.sol\":2975:3099  {... */\n  pop\n    /* \"@openzeppelin/contracts/access/Ownable.sol\":2912:3099  function _transferOwnership(address newOwner) internal virtual {... */\n  pop\n  jump\t// out\n    /* \"#utility.yul\":88:205   */\ntag_16:\n    /* \"#utility.yul\":197:198   */\n  0x00\n    /* \"#utility.yul\":194:195   */\n  0x00\n    /* \"#utility.yul\":187:199   */\n  revert\n    /* \"#utility.yul\":334:460   */\ntag_18:\n    /* \"#utility.yul\":371:378   */\n  0x00\n    /* \"#utility.yul\":411:453   */\n  0xffffffffffffffffffffffffffffffffffffffff\n    /* \"#utility.yul\":404:409   */\n  dup3\n    /* \"#utility.yul\":400:454   */\n  and\n    /* \"#utility.yul\":389:454   */\n  swap1\n  pop\n    /* \"#utility.yul\":334:460   */\n  swap2\n  swap1\n  pop\n  jump\t// out\n    /* \"#utility.yul\":466:562   */\ntag_19:\n    /* \"#utility.yul\":503:510   */\n  0x00\n    /* \"#utility.yul\":532:556   */\n  tag_29\n    /* \"#utility.yul\":550:555   */\n  dup3\n    /* \"#utility.yul\":532:556   */\n  tag_18\n  jump\t// in\ntag_29:\n    /* \"#utility.yul\":521:556   */\n  swap1\n  pop\n    /* \"#utility.yul\":466:562   */\n  swap2\n  swap1\n  pop\n  jump\t// out\n    /* \"#utility.yul\":568:690   */\ntag_20:\n    /* \"#utility.yul\":641:665   */\n  tag_31\n    /* \"#utility.yul\":659:664   */\n  dup2\n    /* \"#utility.yul\":641:665   */\n  tag_19\n  jump\t// in\ntag_31:\n    /* \"#utility.yul\":634:639   */\n  dup2\n    /* \"#utility.yul\":631:666   */\n  eq\n    /* \"#utility.yul\":621:684   */\n  tag_32\n  jumpi\n    /* \"#utility.yul\":680:681   */\n  0x00\n    /* \"#utility.yul\":677:678   */\n  0x00\n    /* \"#utility.yul\":670:682   */\n  revert\n    /* \"#utility.yul\":621:684   */\ntag_32:\n    /* \"#utility.yul\":568:690   */\n  pop\n  jump\t// out\n    /* \"#utility.yul\":696:839   */\ntag_21:\n    /* \"#utility.yul\":753:758   */\n  0x00\n    /* \"#utility.yul\":784:790   */\n  dup2\n    /* \"#utility.yul\":778:791   */\n  mload\n    /* \"#utility.yul\":769:791   */\n  swap1\n  pop\n    /* \"#utility.yul\":800:833   */\n  tag_34\n    /* \"#utility.yul\":827:832   */\n  dup2\n    /* \"#utility.yul\":800:833   */\n  tag_20\n  jump\t// in\ntag_34:\n    /* \"#utility.yul\":696:839   */\n  swap3\n  swap2\n  pop\n  pop\n  jump\t// out\n    /* \"#utility.yul\":845:1822   */\ntag_3:\n    /* \"#utility.yul\":951:957   */\n  0x00\n    /* \"#utility.yul\":959:965   */\n  0x00\n    /* \"#utility.yul\":967:973   */\n  0x00\n    /* \"#utility.yul\":975:981   */\n  0x00\n    /* \"#utility.yul\":983:989   */\n  0x00\n    /* \"#utility.yul\":1032:1035   */\n  0xa0\n    /* \"#utility.yul\":1020:1029   */\n  dup7\n    /* \"#utility.yul\":1011:1018   */\n  dup9\n    /* \"#utility.yul\":1007:1030   */\n  sub\n    /* \"#utility.yul\":1003:1036   */\n  slt\n    /* \"#utility.yul\":1000:1120   */\n  iszero\n  tag_36\n  jumpi\n    /* \"#utility.yul\":1039:1118   */\n  tag_37\n  tag_16\n  jump\t// in\ntag_37:\n    /* \"#utility.yul\":1000:1120   */\ntag_36:\n    /* \"#utility.yul\":1159:1160   */\n  0x00\n    /* \"#utility.yul\":1184:1248   */\n  tag_38\n    /* \"#utility.yul\":1240:1247   */\n  dup9\n    /* \"#utility.yul\":1231:1237   */\n  dup3\n    /* \"#utility.yul\":1220:1229   */\n  dup10\n    /* \"#utility.yul\":1216:1238   */\n  add\n    /* \"#utility.yul\":1184:1248   */\n  tag_21\n  jump\t// in\ntag_38:\n    /* \"#utility.yul\":1174:1248   */\n  swap6\n  pop\n    /* \"#utility.yul\":1130:1258   */\n  pop\n    /* \"#utility.yul\":1297:1299   */\n  0x20\n    /* \"#utility.yul\":1323:1387   */\n  tag_39\n    /* \"#utility.yul\":1379:1386   */\n  dup9\n    /* \"#utility.yul\":1370:1376   */\n  dup3\n    /* \"#utility.yul\":1359:1368   */\n  dup10\n    /* \"#utility.yul\":1355:1377   */\n  add\n    /* \"#utility.yul\":1323:1387   */\n  tag_21\n  jump\t// in\ntag_39:\n    /* \"#utility.yul\":1313:1387   */\n  swap5\n  pop\n    /* \"#utility.yul\":1268:1397   */\n  pop\n    /* \"#utility.yul\":1436:1438   */\n  0x40\n    /* \"#utility.yul\":1462:1526   */\n  tag_40\n    /* \"#utility.yul\":1518:1525   */\n  dup9\n    /* \"#utility.yul\":1509:1515   */\n  dup3\n    /* \"#utility.yul\":1498:1507   */\n  dup10\n    /* \"#utility.yul\":1494:1516   */\n  add\n    /* \"#utility.yul\":1462:1526   */\n  tag_21\n  jump\t// in\ntag_40:\n    /* \"#utility.yul\":1452:1526   */\n  swap4\n  pop\n    /* \"#utility.yul\":1407:1536   */\n  pop\n    /* \"#utility.yul\":1575:1577   */\n  0x60\n    /* \"#utility.yul\":1601:1665   */\n  tag_41\n    /* \"#utility.yul\":1657:1664   */\n  dup9\n    /* \"#utility.yul\":1648:1654   */\n  dup3\n    /* \"#utility.yul\":1637:1646   */\n  dup10\n    /* \"#utility.yul\":1633:1655   */\n  add\n    /* \"#utility.yul\":1601:1665   */\n  tag_21\n  jump\t// in\ntag_41:\n    /* \"#utility.yul\":1591:1665   */\n  swap3\n  pop\n    /* \"#utility.yul\":1546:1675   */\n  pop\n    /* \"#utility.yul\":1714:1717   */\n  0x80\n    /* \"#utility.yul\":1741:1805   */\n  tag_42\n    /* \"#utility.yul\":1797:1804   */\n  dup9\n    /* \"#utility.yul\":1788:1794   */\n  dup3\n    /* \"#utility.yul\":1777:1786   */\n  dup10\n    /* \"#utility.yul\":1773:1795   */\n  add\n    /* \"#utility.yul\":1741:1805   */\n  tag_21\n  jump\t// in\ntag_42:\n    /* \"#utility.yul\":1731:1805   */\n  swap2\n  pop\n    /* \"#utility.yul\":1685:1815   */\n  pop\n    /* \"#utility.yul\":845:1822   */\n  swap3\n  swap6\n  pop\n  swap3\n  swap6\n  swap1\n  swap4\n  pop\n  jump\t// out\n    /* \"#utility.yul\":1828:1946   */\ntag_22:\n    /* \"#utility.yul\":1915:1939   */\n  tag_44\n    /* \"#utility.yul\":1933:1938   */\n  dup2\n    /* \"#utility.yul\":1915:1939   */\n  tag_19\n  jump\t// in\ntag_44:\n    /* \"#utility.yul\":1910:1913   */\n  dup3\n    /* \"#utility.yul\":1903:1940   */\n  mstore\n    /* \"#utility.yul\":1828:1946   */\n  pop\n  pop\n  jump\t// out\n    /* \"#utility.yul\":1952:2174   */\ntag_9:\n    /* \"#utility.yul\":2045:2049   */\n  0x00\n    /* \"#utility.yul\":2083:2085   */\n  0x20\n    /* \"#utility.yul\":2072:2081   */\n  dup3\n    /* \"#utility.yul\":2068:2086   */\n  add\n    /* \"#utility.yul\":2060:2086   */\n  swap1\n  pop\n    /* \"#utility.yul\":2096:2167   */\n  tag_46\n    /* \"#utility.yul\":2164:2165   */\n  0x00\n    /* \"#utility.yul\":2153:2162   */\n  dup4\n    /* \"#utility.yul\":2149:2166   */\n  add\n    /* \"#utility.yul\":2140:2146   */\n  dup5\n    /* \"#utility.yul\":2096:2167   */\n  tag_22\n  jump\t// in\ntag_46:\n    /* \"#utility.yul\":1952:2174   */\n  swap3\n  swap2\n  pop\n  pop\n  jump\t// out\n    /* \"Evm/core/monad/vaultDelegator.sol\":1256:10593  contract QiaraZKDelegator is Ownable {... */\ntag_13:\n  mload(0x80)\n  mload(0xa0)\n  mload(0xc0)\n  mload(0xe0)\n  mload(0x0100)\n  codecopy(0x00, dataOffset(sub_0), dataSize(sub_0))\n  0x00\n  assignImmutable(\"0xe76c7ee1d73589725b75d3ca20e963b98e9bae2cd15496ea9ee5b3513a66f6de\")\n  0x00\n  assignImmutable(\"0xc14cd0a66bdc419d2e52369cdc9bcc330601a7df1268557a44a8b73b94984cd3\")\n  0x00\n  assignImmutable(\"0x41e56607cad04c134e4e470c9fce76566c1848af363d3617ff5ce2939142f7f3\")\n  0x00\n  assignImmutable(\"0xe9d2e5d7dcf681fb037cdc034b01f1fe792271e130f784f84f54ff4ae7a73679\")\n  0x00\n  assignImmutable(\"0xba463f38d2d1b6be660b783eceb51b835e336e7e2844402930bc83b58866cf56\")\n  return(0x00, dataSize(sub_0))\nstop\n\nsub_0: assembly {\n        /* \"Evm/core/monad/vaultDelegator.sol\":1256:10593  contract QiaraZKDelegator is Ownable {... */\n      mstore(0x40, 0x80)\n      callvalue\n      dup1\n      iszero\n      tag_1\n      jumpi\n      revert(0x00, 0x00)\n    tag_1:\n      pop\n      jumpi(tag_2, lt(calldatasize, 0x04))\n      shr(0xe0, calldataload(0x00))\n      dup1\n      0xaed881d8\n      gt\n      tag_20\n      jumpi\n      dup1\n      0xc3c2198f\n      gt\n      tag_21\n      jumpi\n      dup1\n      0xc3c2198f\n      eq\n      tag_15\n      jumpi\n      dup1\n      0xcc60819f\n      eq\n      tag_16\n      jumpi\n      dup1\n      0xf2fde38b\n      eq\n      tag_17\n      jumpi\n      dup1\n      0xf90c0f40\n      eq\n      tag_18\n      jumpi\n      dup1\n      0xfa540801\n      eq\n      tag_19\n      jumpi\n      jump(tag_2)\n    tag_21:\n      dup1\n      0xaed881d8\n      eq\n      tag_11\n      jumpi\n      dup1\n      0xb3d63003\n      eq\n      tag_12\n      jumpi\n      dup1\n      0xb648f220\n      eq\n      tag_13\n      jumpi\n      dup1\n      0xbf4d766e\n      eq\n      tag_14\n      jumpi\n      jump(tag_2)\n    tag_20:\n      dup1\n      0x7a988c54\n      gt\n      tag_22\n      jumpi\n      dup1\n      0x7a988c54\n      eq\n      tag_7\n      jumpi\n      dup1\n      0x8da5cb5b\n      eq\n      tag_8\n      jumpi\n      dup1\n      0x97aba7f9\n      eq\n      tag_9\n      jumpi\n      dup1\n      0xaad24061\n      eq\n      tag_10\n      jumpi\n      jump(tag_2)\n    tag_22:\n      dup1\n      0x18e43082\n      eq\n      tag_3\n      jumpi\n      dup1\n      0x19b8c941\n      eq\n      tag_4\n      jumpi\n      dup1\n      0x4eb30d41\n      eq\n      tag_5\n      jumpi\n      dup1\n      0x715018a6\n      eq\n      tag_6\n      jumpi\n    tag_2:\n      revert(0x00, 0x00)\n        /* \"Evm/core/monad/vaultDelegator.sol\":4408:5310  function processZkValidator(uint[2] calldata _pA, uint[2][2] calldata _pB, uint[2] calldata _pC, uint[6] calldata _pubSignals, address[] calldata validators, bytes calldata _signatures) external {... */\n    tag_3:\n      tag_23\n      0x04\n      dup1\n      calldatasize\n      sub\n      dup2\n      add\n      swap1\n      tag_24\n      swap2\n      swap1\n      tag_25\n      jump\t// in\n    tag_24:\n      tag_26\n      jump\t// in\n    tag_23:\n      stop\n        /* \"Evm/core/monad/vaultDelegator.sol\":9685:9808  function fieldToBytes(uint256 _field) public pure returns (bytes memory) {... */\n    tag_4:\n      tag_27\n      0x04\n      dup1\n      calldatasize\n      sub\n      dup2\n      add\n      swap1\n      tag_28\n      swap2\n      swap1\n      tag_29\n      jump\t// in\n    tag_28:\n      tag_30\n      jump\t// in\n    tag_27:\n      mload(0x40)\n      tag_31\n      swap2\n      swap1\n      tag_32\n      jump\t// in\n    tag_31:\n      mload(0x40)\n      dup1\n      swap2\n      sub\n      swap1\n      return\n        /* \"Evm/core/monad/vaultDelegator.sol\":1357:1409  IVariableVerifier public immutable variable_verifier */\n    tag_5:\n      tag_33\n      tag_34\n      jump\t// in\n    tag_33:\n      mload(0x40)\n      tag_35\n      swap2\n      swap1\n      tag_36\n      jump\t// in\n    tag_35:\n      mload(0x40)\n      dup1\n      swap2\n      sub\n      swap1\n      return\n        /* \"@openzeppelin/contracts/access/Ownable.sol\":2293:2394  function renounceOwnership() public virtual onlyOwner {... */\n    tag_6:\n      tag_37\n      tag_38\n      jump\t// in\n    tag_37:\n      stop\n        /* \"Evm/core/monad/vaultDelegator.sol\":9559:9679  function fieldToAddress(uint256 _field) public pure returns (address) {... */\n    tag_7:\n      tag_39\n      0x04\n      dup1\n      calldatasize\n      sub\n      dup2\n      add\n      swap1\n      tag_40\n      swap2\n      swap1\n      tag_29\n      jump\t// in\n    tag_40:\n      tag_41\n      jump\t// in\n    tag_39:\n      mload(0x40)\n      tag_42\n      swap2\n      swap1\n      tag_43\n      jump\t// in\n    tag_42:\n      mload(0x40)\n      dup1\n      swap2\n      sub\n      swap1\n      return\n        /* \"@openzeppelin/contracts/access/Ownable.sol\":1638:1723  function owner() public view virtual returns (address) {... */\n    tag_8:\n      tag_44\n      tag_45\n      jump\t// in\n    tag_44:\n      mload(0x40)\n      tag_46\n      swap2\n      swap1\n      tag_43\n      jump\t// in\n    tag_46:\n      mload(0x40)\n      dup1\n      swap2\n      sub\n      swap1\n      return\n        /* \"Evm/core/monad/vaultDelegator.sol\":10012:10590  function recoverSigner(bytes32 _ethSignedMessageHash, bytes memory _signature)public pure returns (address){... */\n    tag_9:\n      tag_47\n      0x04\n      dup1\n      calldatasize\n      sub\n      dup2\n      add\n      swap1\n      tag_48\n      swap2\n      swap1\n      tag_49\n      jump\t// in\n    tag_48:\n      tag_50\n      jump\t// in\n    tag_47:\n      mload(0x40)\n      tag_51\n      swap2\n      swap1\n      tag_43\n      jump\t// in\n    tag_51:\n      mload(0x40)\n      dup1\n      swap2\n      sub\n      swap1\n      return\n        /* \"Evm/core/monad/vaultDelegator.sol\":1631:1677  mapping(uint256 => bool) public usedNullifiers */\n    tag_10:\n      tag_52\n      0x04\n      dup1\n      calldatasize\n      sub\n      dup2\n      add\n      swap1\n      tag_53\n      swap2\n      swap1\n      tag_29\n      jump\t// in\n    tag_53:\n      tag_54\n      jump\t// in\n    tag_52:\n      mload(0x40)\n      tag_55\n      swap2\n      swap1\n      tag_56\n      jump\t// in\n    tag_55:\n      mload(0x40)\n      dup1\n      swap2\n      sub\n      swap1\n      return\n        /* \"Evm/core/monad/vaultDelegator.sol\":1529:1576  IValidators public immutable validatorsRegistry */\n    tag_11:\n      tag_57\n      tag_58\n      jump\t// in\n    tag_57:\n      mload(0x40)\n      tag_59\n      swap2\n      swap1\n      tag_60\n      jump\t// in\n    tag_59:\n      mload(0x40)\n      dup1\n      swap2\n      sub\n      swap1\n      return\n        /* \"Evm/core/monad/vaultDelegator.sol\":1416:1470  IValidatorVerifier public immutable validator_verifier */\n    tag_12:\n      tag_61\n      tag_62\n      jump\t// in\n    tag_61:\n      mload(0x40)\n      tag_63\n      swap2\n      swap1\n      tag_64\n      jump\t// in\n    tag_63:\n      mload(0x40)\n      dup1\n      swap2\n      sub\n      swap1\n      return\n        /* \"Evm/core/monad/vaultDelegator.sol\":8676:9553  function fieldToString(uint256 _field) public pure returns (string memory) {... */\n    tag_13:\n      tag_65\n      0x04\n      dup1\n      calldatasize\n      sub\n      dup2\n      add\n      swap1\n      tag_66\n      swap2\n      swap1\n      tag_29\n      jump\t// in\n    tag_66:\n      tag_67\n      jump\t// in\n    tag_65:\n      mload(0x40)\n      tag_68\n      swap2\n      swap1\n      tag_69\n      jump\t// in\n    tag_68:\n      mload(0x40)\n      dup1\n      swap2\n      sub\n      swap1\n      return\n        /* \"Evm/core/monad/vaultDelegator.sol\":1477:1522  IVariables public immutable variablesRegistry */\n    tag_14:\n      tag_70\n      tag_71\n      jump\t// in\n    tag_70:\n      mload(0x40)\n      tag_72\n      swap2\n      swap1\n      tag_73\n      jump\t// in\n    tag_72:\n      mload(0x40)\n      dup1\n      swap2\n      sub\n      swap1\n      return\n        /* \"Evm/core/monad/vaultDelegator.sol\":3268:4402  function processZkVariable(uint[2] calldata _pA, uint[2][2] calldata _pB, uint[2] calldata _pC, uint[8] calldata _pubSignals, address[] calldata validators, bytes calldata _signatures) external {... */\n    tag_15:\n      tag_74\n      0x04\n      dup1\n      calldatasize\n      sub\n      dup2\n      add\n      swap1\n      tag_75\n      swap2\n      swap1\n      tag_76\n      jump\t// in\n    tag_75:\n      tag_77\n      jump\t// in\n    tag_74:\n      stop\n        /* \"Evm/core/monad/vaultDelegator.sol\":2202:3262  function processZkWithdraw(uint[2] calldata _pA, uint[2][2] calldata _pB, uint[2] calldata _pC, uint[8] calldata _pubSignals, address[] calldata validators, bytes calldata _signatures) external {... */\n    tag_16:\n      tag_78\n      0x04\n      dup1\n      calldatasize\n      sub\n      dup2\n      add\n      swap1\n      tag_79\n      swap2\n      swap1\n      tag_76\n      jump\t// in\n    tag_79:\n      tag_80\n      jump\t// in\n    tag_78:\n      stop\n        /* \"@openzeppelin/contracts/access/Ownable.sol\":2543:2758  function transferOwnership(address newOwner) public virtual onlyOwner {... */\n    tag_17:\n      tag_81\n      0x04\n      dup1\n      calldatasize\n      sub\n      dup2\n      add\n      swap1\n      tag_82\n      swap2\n      swap1\n      tag_83\n      jump\t// in\n    tag_82:\n      tag_84\n      jump\t// in\n    tag_81:\n      stop\n        /* \"Evm/core/monad/vaultDelegator.sol\":1300:1350  IBalanceVerifier public immutable balance_verifier */\n    tag_18:\n      tag_85\n      tag_86\n      jump\t// in\n    tag_85:\n      mload(0x40)\n      tag_87\n      swap2\n      swap1\n      tag_88\n      jump\t// in\n    tag_87:\n      mload(0x40)\n      dup1\n      swap2\n      sub\n      swap1\n      return\n        /* \"Evm/core/monad/vaultDelegator.sol\":9818:10006  function getEthSignedMessageHash(bytes32 _messageHash) public pure returns (bytes32) {... */\n    tag_19:\n      tag_89\n      0x04\n      dup1\n      calldatasize\n      sub\n      dup2\n      add\n      swap1\n      tag_90\n      swap2\n      swap1\n      tag_91\n      jump\t// in\n    tag_90:\n      tag_92\n      jump\t// in\n    tag_89:\n      mload(0x40)\n      tag_93\n      swap2\n      swap1\n      tag_94\n      jump\t// in\n    tag_93:\n      mload(0x40)\n      dup1\n      swap2\n      sub\n      swap1\n      return\n        /* \"Evm/core/monad/vaultDelegator.sol\":4408:5310  function processZkValidator(uint[2] calldata _pA, uint[2][2] calldata _pB, uint[2] calldata _pC, uint[6] calldata _pubSignals, address[] calldata validators, bytes calldata _signatures) external {... */\n    tag_26:\n        /* \"Evm/core/monad/vaultDelegator.sol\":4653:4671  validator_verifier */\n      immutable(\"0x41e56607cad04c134e4e470c9fce76566c1848af363d3617ff5ce2939142f7f3\")\n        /* \"Evm/core/monad/vaultDelegator.sol\":4653:4683  validator_verifier.verifyProof */\n      0xffffffffffffffffffffffffffffffffffffffff\n      and\n      0xf398789b\n        /* \"Evm/core/monad/vaultDelegator.sol\":4684:4687  _pA */\n      dup10\n        /* \"Evm/core/monad/vaultDelegator.sol\":4689:4692  _pB */\n      dup10\n        /* \"Evm/core/monad/vaultDelegator.sol\":4694:4697  _pC */\n      dup10\n        /* \"Evm/core/monad/vaultDelegator.sol\":4699:4710  _pubSignals */\n      dup10\n        /* \"Evm/core/monad/vaultDelegator.sol\":4653:4711  validator_verifier.verifyProof(_pA, _pB, _pC, _pubSignals) */\n      mload(0x40)\n      dup6\n      0xffffffff\n      and\n      0xe0\n      shl\n      dup2\n      mstore\n      0x04\n      add\n      tag_96\n      swap5\n      swap4\n      swap3\n      swap2\n      swap1\n      tag_97\n      jump\t// in\n    tag_96:\n      0x20\n      mload(0x40)\n      dup1\n      dup4\n      sub\n      dup2\n      dup7\n      gas\n      staticcall\n      iszero\n      dup1\n      iszero\n      tag_99\n      jumpi\n      returndatacopy(0x00, 0x00, returndatasize)\n      revert(0x00, returndatasize)\n    tag_99:\n      pop\n      pop\n      pop\n      pop\n      mload(0x40)\n      returndatasize\n      not(0x1f)\n      0x1f\n      dup3\n      add\n      and\n      dup3\n      add\n      dup1\n      0x40\n      mstore\n      pop\n      dup2\n      add\n      swap1\n      tag_100\n      swap2\n      swap1\n      tag_101\n      jump\t// in\n    tag_100:\n        /* \"Evm/core/monad/vaultDelegator.sol\":4645:4732  require(validator_verifier.verifyProof(_pA, _pB, _pC, _pubSignals), \"Invalid ZK Proof\") */\n      tag_102\n      jumpi\n      mload(0x40)\n      0x08c379a000000000000000000000000000000000000000000000000000000000\n      dup2\n      mstore\n      0x04\n      add\n      tag_103\n      swap1\n      tag_104\n      jump\t// in\n    tag_103:\n      mload(0x40)\n      dup1\n      swap2\n      sub\n      swap1\n      revert\n    tag_102:\n        /* \"Evm/core/monad/vaultDelegator.sol\":4745:4760  uint256 chainID */\n      0x00\n        /* \"Evm/core/monad/vaultDelegator.sol\":4763:4774  _pubSignals */\n      dup6\n        /* \"Evm/core/monad/vaultDelegator.sol\":4775:4776  4 */\n      0x04\n        /* \"Evm/core/monad/vaultDelegator.sol\":4763:4777  _pubSignals[4] */\n      0x06\n      dup2\n      lt\n      tag_105\n      jumpi\n      tag_106\n      tag_107\n      jump\t// in\n    tag_106:\n    tag_105:\n      0x20\n      mul\n      add\n      calldataload\n        /* \"Evm/core/monad/vaultDelegator.sol\":4745:4777  uint256 chainID = _pubSignals[4] */\n      swap1\n      pop\n        /* \"Evm/core/monad/vaultDelegator.sol\":4807:4820  block.chainid */\n      chainid\n        /* \"Evm/core/monad/vaultDelegator.sol\":4796:4803  chainID */\n      dup2\n        /* \"Evm/core/monad/vaultDelegator.sol\":4796:4820  chainID == block.chainid */\n      eq\n        /* \"Evm/core/monad/vaultDelegator.sol\":4788:4848  require(chainID == block.chainid, \"Wrong destination chain\") */\n      tag_108\n      jumpi\n      mload(0x40)\n      0x08c379a000000000000000000000000000000000000000000000000000000000\n      dup2\n      mstore\n      0x04\n      add\n      tag_109\n      swap1\n      tag_110\n      jump\t// in\n    tag_109:\n      mload(0x40)\n      dup1\n      swap2\n      sub\n      swap1\n      revert\n    tag_108:\n        /* \"Evm/core/monad/vaultDelegator.sol\":4909:4926  uint256 nullifier */\n      0x00\n        /* \"Evm/core/monad/vaultDelegator.sol\":4929:4962  _calculateNullifier6(_pubSignals) */\n      tag_111\n        /* \"Evm/core/monad/vaultDelegator.sol\":4950:4961  _pubSignals */\n      dup8\n        /* \"Evm/core/monad/vaultDelegator.sol\":4929:4949  _calculateNullifier6 */\n      tag_112\n        /* \"Evm/core/monad/vaultDelegator.sol\":4929:4962  _calculateNullifier6(_pubSignals) */\n      jump\t// in\n    tag_111:\n        /* \"Evm/core/monad/vaultDelegator.sol\":4909:4962  uint256 nullifier = _calculateNullifier6(_pubSignals) */\n      swap1\n      pop\n        /* \"Evm/core/monad/vaultDelegator.sol\":4973:5038  _verifyAllSignatures(bytes32(nullifier), validators, _signatures) */\n      tag_113\n        /* \"Evm/core/monad/vaultDelegator.sol\":5002:5011  nullifier */\n      dup2\n        /* \"Evm/core/monad/vaultDelegator.sol\":4994:5012  bytes32(nullifier) */\n      0x00\n      shl\n        /* \"Evm/core/monad/vaultDelegator.sol\":5014:5024  validators */\n      dup8\n      dup8\n        /* \"Evm/core/monad/vaultDelegator.sol\":5026:5037  _signatures */\n      dup8\n      dup8\n        /* \"Evm/core/monad/vaultDelegator.sol\":4973:4993  _verifyAllSignatures */\n      tag_114\n        /* \"Evm/core/monad/vaultDelegator.sol\":4973:5038  _verifyAllSignatures(bytes32(nullifier), validators, _signatures) */\n      jump\t// in\n    tag_113:\n        /* \"Evm/core/monad/vaultDelegator.sol\":5058:5072  usedNullifiers */\n      0x01\n        /* \"Evm/core/monad/vaultDelegator.sol\":5058:5083  usedNullifiers[nullifier] */\n      0x00\n        /* \"Evm/core/monad/vaultDelegator.sol\":5073:5082  nullifier */\n      dup3\n        /* \"Evm/core/monad/vaultDelegator.sol\":5058:5083  usedNullifiers[nullifier] */\n      dup2\n      mstore\n      0x20\n      add\n      swap1\n      dup2\n      mstore\n      0x20\n      add\n      0x00\n      keccak256\n      0x00\n      swap1\n      sload\n      swap1\n      0x0100\n      exp\n      swap1\n      div\n      0xff\n      and\n        /* \"Evm/core/monad/vaultDelegator.sol\":5057:5083  !usedNullifiers[nullifier] */\n      iszero\n        /* \"Evm/core/monad/vaultDelegator.sol\":5049:5110  require(!usedNullifiers[nullifier], \"Replay attack detected\") */\n      tag_115\n      jumpi\n      mload(0x40)\n      0x08c379a000000000000000000000000000000000000000000000000000000000\n      dup2\n      mstore\n      0x04\n      add\n      tag_116\n      swap1\n      tag_117\n      jump\t// in\n    tag_116:\n      mload(0x40)\n      dup1\n      swap2\n      sub\n      swap1\n      revert\n    tag_115:\n        /* \"Evm/core/monad/vaultDelegator.sol\":5149:5153  true */\n      0x01\n        /* \"Evm/core/monad/vaultDelegator.sol\":5121:5135  usedNullifiers */\n      dup1\n        /* \"Evm/core/monad/vaultDelegator.sol\":5121:5146  usedNullifiers[nullifier] */\n      0x00\n        /* \"Evm/core/monad/vaultDelegator.sol\":5136:5145  nullifier */\n      dup4\n        /* \"Evm/core/monad/vaultDelegator.sol\":5121:5146  usedNullifiers[nullifier] */\n      dup2\n      mstore\n      0x20\n      add\n      swap1\n      dup2\n      mstore\n      0x20\n      add\n      0x00\n      keccak256\n      0x00\n        /* \"Evm/core/monad/vaultDelegator.sol\":5121:5153  usedNullifiers[nullifier] = true */\n      0x0100\n      exp\n      dup2\n      sload\n      dup2\n      0xff\n      mul\n      not\n      and\n      swap1\n      dup4\n      iszero\n      iszero\n      mul\n      or\n      swap1\n      sstore\n      pop\n        /* \"Evm/core/monad/vaultDelegator.sol\":5166:5183  address validator */\n      0x00\n        /* \"Evm/core/monad/vaultDelegator.sol\":5186:5216  fieldToAddress(_pubSignals[5]) */\n      tag_118\n        /* \"Evm/core/monad/vaultDelegator.sol\":5201:5212  _pubSignals */\n      dup9\n        /* \"Evm/core/monad/vaultDelegator.sol\":5213:5214  5 */\n      0x05\n        /* \"Evm/core/monad/vaultDelegator.sol\":5201:5215  _pubSignals[5] */\n      0x06\n      dup2\n      lt\n      tag_119\n      jumpi\n      tag_120\n      tag_107\n      jump\t// in\n    tag_120:\n    tag_119:\n      0x20\n      mul\n      add\n      calldataload\n        /* \"Evm/core/monad/vaultDelegator.sol\":5186:5200  fieldToAddress */\n      tag_41\n        /* \"Evm/core/monad/vaultDelegator.sol\":5186:5216  fieldToAddress(_pubSignals[5]) */\n      jump\t// in\n    tag_118:\n        /* \"Evm/core/monad/vaultDelegator.sol\":5166:5216  address validator = fieldToAddress(_pubSignals[5]) */\n      swap1\n      pop\n        /* \"Evm/core/monad/vaultDelegator.sol\":5255:5273  validatorsRegistry */\n      immutable(\"0xe76c7ee1d73589725b75d3ca20e963b98e9bae2cd15496ea9ee5b3513a66f6de\")\n        /* \"Evm/core/monad/vaultDelegator.sol\":5255:5291  validatorsRegistry.addPendingAddress */\n      0xffffffffffffffffffffffffffffffffffffffff\n      and\n      0x1722e147\n        /* \"Evm/core/monad/vaultDelegator.sol\":5292:5301  validator */\n      dup3\n        /* \"Evm/core/monad/vaultDelegator.sol\":5255:5302  validatorsRegistry.addPendingAddress(validator) */\n      mload(0x40)\n      dup3\n      0xffffffff\n      and\n      0xe0\n      shl\n      dup2\n      mstore\n      0x04\n      add\n      tag_121\n      swap2\n      swap1\n      tag_43\n      jump\t// in\n    tag_121:\n      0x00\n      mload(0x40)\n      dup1\n      dup4\n      sub\n      dup2\n      0x00\n      dup8\n      dup1\n      extcodesize\n      iszero\n      dup1\n      iszero\n      tag_122\n      jumpi\n      revert(0x00, 0x00)\n    tag_122:\n      pop\n      gas\n      call\n      iszero\n      dup1\n      iszero\n      tag_124\n      jumpi\n      returndatacopy(0x00, 0x00, returndatasize)\n      revert(0x00, returndatasize)\n    tag_124:\n      pop\n      pop\n      pop\n      pop\n        /* \"Evm/core/monad/vaultDelegator.sol\":4603:5310  {... */\n      pop\n      pop\n      pop\n        /* \"Evm/core/monad/vaultDelegator.sol\":4408:5310  function processZkValidator(uint[2] calldata _pA, uint[2][2] calldata _pB, uint[2] calldata _pC, uint[6] calldata _pubSignals, address[] calldata validators, bytes calldata _signatures) external {... */\n      pop\n      pop\n      pop\n      pop\n      pop\n      pop\n      pop\n      pop\n      jump\t// out\n        /* \"Evm/core/monad/vaultDelegator.sol\":9685:9808  function fieldToBytes(uint256 _field) public pure returns (bytes memory) {... */\n    tag_30:\n        /* \"Evm/core/monad/vaultDelegator.sol\":9744:9756  bytes memory */\n      0x60\n        /* \"Evm/core/monad/vaultDelegator.sol\":9793:9799  _field */\n      dup2\n        /* \"Evm/core/monad/vaultDelegator.sol\":9776:9800  abi.encodePacked(_field) */\n      add(0x20, mload(0x40))\n      tag_126\n      swap2\n      swap1\n      tag_127\n      jump\t// in\n    tag_126:\n      mload(0x40)\n      0x20\n      dup2\n      dup4\n      sub\n      sub\n      dup2\n      mstore\n      swap1\n      0x40\n      mstore\n        /* \"Evm/core/monad/vaultDelegator.sol\":9769:9800  return abi.encodePacked(_field) */\n      swap1\n      pop\n        /* \"Evm/core/monad/vaultDelegator.sol\":9685:9808  function fieldToBytes(uint256 _field) public pure returns (bytes memory) {... */\n      swap2\n      swap1\n      pop\n      jump\t// out\n        /* \"Evm/core/monad/vaultDelegator.sol\":1357:1409  IVariableVerifier public immutable variable_verifier */\n    tag_34:\n      immutable(\"0xe9d2e5d7dcf681fb037cdc034b01f1fe792271e130f784f84f54ff4ae7a73679\")\n      dup2\n      jump\t// out\n        /* \"@openzeppelin/contracts/access/Ownable.sol\":2293:2394  function renounceOwnership() public virtual onlyOwner {... */\n    tag_38:\n        /* \"@openzeppelin/contracts/access/Ownable.sol\":1531:1544  _checkOwner() */\n      tag_129\n        /* \"@openzeppelin/contracts/access/Ownable.sol\":1531:1542  _checkOwner */\n      tag_130\n        /* \"@openzeppelin/contracts/access/Ownable.sol\":1531:1544  _checkOwner() */\n      jump\t// in\n    tag_129:\n        /* \"@openzeppelin/contracts/access/Ownable.sol\":2357:2387  _transferOwnership(address(0)) */\n      tag_132\n        /* \"@openzeppelin/contracts/access/Ownable.sol\":2384:2385  0 */\n      0x00\n        /* \"@openzeppelin/contracts/access/Ownable.sol\":2357:2375  _transferOwnership */\n      tag_133\n        /* \"@openzeppelin/contracts/access/Ownable.sol\":2357:2387  _transferOwnership(address(0)) */\n      jump\t// in\n    tag_132:\n        /* \"@openzeppelin/contracts/access/Ownable.sol\":2293:2394  function renounceOwnership() public virtual onlyOwner {... */\n      jump\t// out\n        /* \"Evm/core/monad/vaultDelegator.sol\":9559:9679  function fieldToAddress(uint256 _field) public pure returns (address) {... */\n    tag_41:\n        /* \"Evm/core/monad/vaultDelegator.sol\":9620:9627  address */\n      0x00\n        /* \"Evm/core/monad/vaultDelegator.sol\":9663:9669  _field */\n      dup2\n        /* \"Evm/core/monad/vaultDelegator.sol\":9640:9671  return address(uint160(_field)) */\n      swap1\n      pop\n        /* \"Evm/core/monad/vaultDelegator.sol\":9559:9679  function fieldToAddress(uint256 _field) public pure returns (address) {... */\n      swap2\n      swap1\n      pop\n      jump\t// out\n        /* \"@openzeppelin/contracts/access/Ownable.sol\":1638:1723  function owner() public view virtual returns (address) {... */\n    tag_45:\n        /* \"@openzeppelin/contracts/access/Ownable.sol\":1684:1691  address */\n      0x00\n        /* \"@openzeppelin/contracts/access/Ownable.sol\":1710:1716  _owner */\n      0x00\n      0x00\n      swap1\n      sload\n      swap1\n      0x0100\n      exp\n      swap1\n      div\n      0xffffffffffffffffffffffffffffffffffffffff\n      and\n        /* \"@openzeppelin/contracts/access/Ownable.sol\":1703:1716  return _owner */\n      swap1\n      pop\n        /* \"@openzeppelin/contracts/access/Ownable.sol\":1638:1723  function owner() public view virtual returns (address) {... */\n      swap1\n      jump\t// out\n        /* \"Evm/core/monad/vaultDelegator.sol\":10012:10590  function recoverSigner(bytes32 _ethSignedMessageHash, bytes memory _signature)public pure returns (address){... */\n    tag_50:\n        /* \"Evm/core/monad/vaultDelegator.sol\":10111:10118  address */\n      0x00\n        /* \"Evm/core/monad/vaultDelegator.sol\":10159:10161  65 */\n      0x41\n        /* \"Evm/core/monad/vaultDelegator.sol\":10138:10148  _signature */\n      dup3\n        /* \"Evm/core/monad/vaultDelegator.sol\":10138:10155  _signature.length */\n      mload\n        /* \"Evm/core/monad/vaultDelegator.sol\":10138:10161  _signature.length == 65 */\n      eq\n        /* \"Evm/core/monad/vaultDelegator.sol\":10130:10190  require(_signature.length == 65, \"Invalid signature length\") */\n      tag_137\n      jumpi\n      mload(0x40)\n      0x08c379a000000000000000000000000000000000000000000000000000000000\n      dup2\n      mstore\n      0x04\n      add\n      tag_138\n      swap1\n      tag_139\n      jump\t// in\n    tag_138:\n      mload(0x40)\n      dup1\n      swap2\n      sub\n      swap1\n      revert\n    tag_137:\n        /* \"Evm/core/monad/vaultDelegator.sol\":10203:10212  bytes32 r */\n      0x00\n        /* \"Evm/core/monad/vaultDelegator.sol\":10223:10232  bytes32 s */\n      0x00\n        /* \"Evm/core/monad/vaultDelegator.sol\":10243:10250  uint8 v */\n      0x00\n        /* \"Evm/core/monad/vaultDelegator.sol\":10364:10366  32 */\n      0x20\n        /* \"Evm/core/monad/vaultDelegator.sol\":10352:10362  _signature */\n      dup6\n        /* \"Evm/core/monad/vaultDelegator.sol\":10348:10367  add(_signature, 32) */\n      add\n        /* \"Evm/core/monad/vaultDelegator.sol\":10342:10368  mload(add(_signature, 32)) */\n      mload\n        /* \"Evm/core/monad/vaultDelegator.sol\":10337:10368  r := mload(add(_signature, 32)) */\n      swap3\n      pop\n        /* \"Evm/core/monad/vaultDelegator.sol\":10409:10411  64 */\n      0x40\n        /* \"Evm/core/monad/vaultDelegator.sol\":10397:10407  _signature */\n      dup6\n        /* \"Evm/core/monad/vaultDelegator.sol\":10393:10412  add(_signature, 64) */\n      add\n        /* \"Evm/core/monad/vaultDelegator.sol\":10387:10413  mload(add(_signature, 64)) */\n      mload\n        /* \"Evm/core/monad/vaultDelegator.sol\":10382:10413  s := mload(add(_signature, 64)) */\n      swap2\n      pop\n        /* \"Evm/core/monad/vaultDelegator.sol\":10462:10464  96 */\n      0x60\n        /* \"Evm/core/monad/vaultDelegator.sol\":10450:10460  _signature */\n      dup6\n        /* \"Evm/core/monad/vaultDelegator.sol\":10446:10465  add(_signature, 96) */\n      add\n        /* \"Evm/core/monad/vaultDelegator.sol\":10440:10466  mload(add(_signature, 96)) */\n      mload\n        /* \"Evm/core/monad/vaultDelegator.sol\":10437:10438  0 */\n      0x00\n        /* \"Evm/core/monad/vaultDelegator.sol\":10432:10467  byte(0, mload(add(_signature, 96))) */\n      byte\n        /* \"Evm/core/monad/vaultDelegator.sol\":10427:10467  v := byte(0, mload(add(_signature, 96))) */\n      swap1\n      pop\n        /* \"Evm/core/monad/vaultDelegator.sol\":10541:10582  ecrecover(_ethSignedMessageHash, v, r, s) */\n      0x01\n        /* \"Evm/core/monad/vaultDelegator.sol\":10551:10572  _ethSignedMessageHash */\n      dup7\n        /* \"Evm/core/monad/vaultDelegator.sol\":10574:10575  v */\n      dup3\n        /* \"Evm/core/monad/vaultDelegator.sol\":10577:10578  r */\n      dup6\n        /* \"Evm/core/monad/vaultDelegator.sol\":10580:10581  s */\n      dup6\n        /* \"Evm/core/monad/vaultDelegator.sol\":10541:10582  ecrecover(_ethSignedMessageHash, v, r, s) */\n      mload(0x40)\n      0x00\n      dup2\n      mstore\n      0x20\n      add\n      0x40\n      mstore\n      mload(0x40)\n      tag_140\n      swap5\n      swap4\n      swap3\n      swap2\n      swap1\n      tag_141\n      jump\t// in\n    tag_140:\n      0x20\n      mload(0x40)\n      0x20\n      dup2\n      sub\n      swap1\n      dup1\n      dup5\n      sub\n      swap1\n      dup6\n      gas\n      staticcall\n      iszero\n      dup1\n      iszero\n      tag_143\n      jumpi\n      returndatacopy(0x00, 0x00, returndatasize)\n      revert(0x00, returndatasize)\n    tag_143:\n      pop\n      pop\n      pop\n      mload(sub(mload(0x40), 0x20))\n        /* \"Evm/core/monad/vaultDelegator.sol\":10534:10582  return ecrecover(_ethSignedMessageHash, v, r, s) */\n      swap4\n      pop\n      pop\n      pop\n      pop\n        /* \"Evm/core/monad/vaultDelegator.sol\":10012:10590  function recoverSigner(bytes32 _ethSignedMessageHash, bytes memory _signature)public pure returns (address){... */\n      swap3\n      swap2\n      pop\n      pop\n      jump\t// out\n        /* \"Evm/core/monad/vaultDelegator.sol\":1631:1677  mapping(uint256 => bool) public usedNullifiers */\n    tag_54:\n      mstore(0x20, 0x01)\n      dup1\n      0x00\n      mstore\n      keccak256(0x00, 0x40)\n      0x00\n      swap2\n      pop\n      sload\n      swap1\n      0x0100\n      exp\n      swap1\n      div\n      0xff\n      and\n      dup2\n      jump\t// out\n        /* \"Evm/core/monad/vaultDelegator.sol\":1529:1576  IValidators public immutable validatorsRegistry */\n    tag_58:\n      immutable(\"0xe76c7ee1d73589725b75d3ca20e963b98e9bae2cd15496ea9ee5b3513a66f6de\")\n      dup2\n      jump\t// out\n        /* \"Evm/core/monad/vaultDelegator.sol\":1416:1470  IValidatorVerifier public immutable validator_verifier */\n    tag_62:\n      immutable(\"0x41e56607cad04c134e4e470c9fce76566c1848af363d3617ff5ce2939142f7f3\")\n      dup2\n      jump\t// out\n        /* \"Evm/core/monad/vaultDelegator.sol\":8676:9553  function fieldToString(uint256 _field) public pure returns (string memory) {... */\n    tag_67:\n        /* \"Evm/core/monad/vaultDelegator.sol\":8736:8749  string memory */\n      0x60\n        /* \"Evm/core/monad/vaultDelegator.sol\":8776:8777  0 */\n      0x00\n        /* \"Evm/core/monad/vaultDelegator.sol\":8766:8772  _field */\n      dup3\n        /* \"Evm/core/monad/vaultDelegator.sol\":8766:8777  _field == 0 */\n      sub\n        /* \"Evm/core/monad/vaultDelegator.sol\":8762:8788  if (_field == 0) return \"\" */\n      tag_145\n      jumpi\n        /* \"Evm/core/monad/vaultDelegator.sol\":8779:8788  return \"\" */\n      mload(0x40)\n      dup1\n      0x20\n      add\n      0x40\n      mstore\n      dup1\n      0x00\n      dup2\n      mstore\n      pop\n      swap1\n      pop\n      jump(tag_144)\n        /* \"Evm/core/monad/vaultDelegator.sol\":8762:8788  if (_field == 0) return \"\" */\n    tag_145:\n        /* \"Evm/core/monad/vaultDelegator.sol\":8864:8875  bytes32 b32 */\n      0x00\n        /* \"Evm/core/monad/vaultDelegator.sol\":8886:8892  _field */\n      dup3\n        /* \"Evm/core/monad/vaultDelegator.sol\":8878:8893  bytes32(_field) */\n      0x00\n      shl\n        /* \"Evm/core/monad/vaultDelegator.sol\":8864:8893  bytes32 b32 = bytes32(_field) */\n      swap1\n      pop\n        /* \"Evm/core/monad/vaultDelegator.sol\":8985:8996  uint8 start */\n      0x00\n        /* \"Evm/core/monad/vaultDelegator.sol\":8999:9000  0 */\n      0x00\n        /* \"Evm/core/monad/vaultDelegator.sol\":8985:9000  uint8 start = 0 */\n      swap1\n      pop\n        /* \"Evm/core/monad/vaultDelegator.sol\":9011:9083  while (start < 32 && b32[start] == 0) {... */\n    tag_146:\n        /* \"Evm/core/monad/vaultDelegator.sol\":9026:9028  32 */\n      0x20\n        /* \"Evm/core/monad/vaultDelegator.sol\":9018:9023  start */\n      dup2\n        /* \"Evm/core/monad/vaultDelegator.sol\":9018:9028  start < 32 */\n      0xff\n      and\n      lt\n        /* \"Evm/core/monad/vaultDelegator.sol\":9018:9047  start < 32 && b32[start] == 0 */\n      dup1\n      iszero\n      tag_148\n      jumpi\n      pop\n        /* \"Evm/core/monad/vaultDelegator.sol\":9046:9047  0 */\n      0x00\n        /* \"Evm/core/monad/vaultDelegator.sol\":9032:9047  b32[start] == 0 */\n      0xf8\n      shl\n        /* \"Evm/core/monad/vaultDelegator.sol\":9032:9035  b32 */\n      dup3\n        /* \"Evm/core/monad/vaultDelegator.sol\":9036:9041  start */\n      dup3\n        /* \"Evm/core/monad/vaultDelegator.sol\":9032:9042  b32[start] */\n      0xff\n      and\n      0x20\n      dup2\n      lt\n      tag_149\n      jumpi\n      tag_150\n      tag_107\n      jump\t// in\n    tag_150:\n    tag_149:\n      byte\n      0xf8\n      shl\n        /* \"Evm/core/monad/vaultDelegator.sol\":9032:9047  b32[start] == 0 */\n      not(0xffffffffffffffffffffffffffffffffffffffffffffffffffffffffffffff)\n      and\n      eq\n        /* \"Evm/core/monad/vaultDelegator.sol\":9018:9047  start < 32 && b32[start] == 0 */\n    tag_148:\n        /* \"Evm/core/monad/vaultDelegator.sol\":9011:9083  while (start < 32 && b32[start] == 0) {... */\n      iszero\n      tag_147\n      jumpi\n        /* \"Evm/core/monad/vaultDelegator.sol\":9064:9071  start++ */\n      dup1\n      dup1\n      tag_151\n      swap1\n      tag_152\n      jump\t// in\n    tag_151:\n      swap2\n      pop\n      pop\n        /* \"Evm/core/monad/vaultDelegator.sol\":9011:9083  while (start < 32 && b32[start] == 0) {... */\n      jump(tag_146)\n    tag_147:\n        /* \"Evm/core/monad/vaultDelegator.sol\":9230:9239  uint8 end */\n      0x00\n        /* \"Evm/core/monad/vaultDelegator.sol\":9242:9244  31 */\n      0x1f\n        /* \"Evm/core/monad/vaultDelegator.sol\":9230:9244  uint8 end = 31 */\n      swap1\n      pop\n        /* \"Evm/core/monad/vaultDelegator.sol\":9255:9324  while (end > start && b32[end] == 0) {... */\n    tag_153:\n        /* \"Evm/core/monad/vaultDelegator.sol\":9268:9273  start */\n      dup2\n        /* \"Evm/core/monad/vaultDelegator.sol\":9262:9273  end > start */\n      0xff\n      and\n        /* \"Evm/core/monad/vaultDelegator.sol\":9262:9265  end */\n      dup2\n        /* \"Evm/core/monad/vaultDelegator.sol\":9262:9273  end > start */\n      0xff\n      and\n      gt\n        /* \"Evm/core/monad/vaultDelegator.sol\":9262:9290  end > start && b32[end] == 0 */\n      dup1\n      iszero\n      tag_155\n      jumpi\n      pop\n        /* \"Evm/core/monad/vaultDelegator.sol\":9289:9290  0 */\n      0x00\n        /* \"Evm/core/monad/vaultDelegator.sol\":9277:9290  b32[end] == 0 */\n      0xf8\n      shl\n        /* \"Evm/core/monad/vaultDelegator.sol\":9277:9280  b32 */\n      dup4\n        /* \"Evm/core/monad/vaultDelegator.sol\":9281:9284  end */\n      dup3\n        /* \"Evm/core/monad/vaultDelegator.sol\":9277:9285  b32[end] */\n      0xff\n      and\n      0x20\n      dup2\n      lt\n      tag_156\n      jumpi\n      tag_157\n      tag_107\n      jump\t// in\n    tag_157:\n    tag_156:\n      byte\n      0xf8\n      shl\n        /* \"Evm/core/monad/vaultDelegator.sol\":9277:9290  b32[end] == 0 */\n      not(0xffffffffffffffffffffffffffffffffffffffffffffffffffffffffffffff)\n      and\n      eq\n        /* \"Evm/core/monad/vaultDelegator.sol\":9262:9290  end > start && b32[end] == 0 */\n    tag_155:\n        /* \"Evm/core/monad/vaultDelegator.sol\":9255:9324  while (end > start && b32[end] == 0) {... */\n      iszero\n      tag_154\n      jumpi\n        /* \"Evm/core/monad/vaultDelegator.sol\":9307:9312  end-- */\n      dup1\n      dup1\n      tag_158\n      swap1\n      tag_159\n      jump\t// in\n    tag_158:\n      swap2\n      pop\n      pop\n        /* \"Evm/core/monad/vaultDelegator.sol\":9255:9324  while (end > start && b32[end] == 0) {... */\n      jump(tag_153)\n    tag_154:\n        /* \"Evm/core/monad/vaultDelegator.sol\":9336:9345  uint8 len */\n      0x00\n        /* \"Evm/core/monad/vaultDelegator.sol\":9364:9365  1 */\n      0x01\n        /* \"Evm/core/monad/vaultDelegator.sol\":9355:9360  start */\n      dup4\n        /* \"Evm/core/monad/vaultDelegator.sol\":9349:9352  end */\n      dup4\n        /* \"Evm/core/monad/vaultDelegator.sol\":9349:9360  end - start */\n      tag_160\n      swap2\n      swap1\n      tag_161\n      jump\t// in\n    tag_160:\n        /* \"Evm/core/monad/vaultDelegator.sol\":9348:9365  (end - start) + 1 */\n      tag_162\n      swap2\n      swap1\n      tag_163\n      jump\t// in\n    tag_162:\n        /* \"Evm/core/monad/vaultDelegator.sol\":9336:9365  uint8 len = (end - start) + 1 */\n      swap1\n      pop\n        /* \"Evm/core/monad/vaultDelegator.sol\":9376:9395  bytes memory result */\n      0x00\n        /* \"Evm/core/monad/vaultDelegator.sol\":9408:9411  len */\n      dup2\n        /* \"Evm/core/monad/vaultDelegator.sol\":9398:9412  new bytes(len) */\n      0xff\n      and\n      0xffffffffffffffff\n      dup2\n      gt\n      iszero\n      tag_164\n      jumpi\n      tag_165\n      tag_166\n      jump\t// in\n    tag_165:\n    tag_164:\n      mload(0x40)\n      swap1\n      dup1\n      dup3\n      mstore\n      dup1\n      0x1f\n      add\n      not(0x1f)\n      and\n      0x20\n      add\n      dup3\n      add\n      0x40\n      mstore\n      dup1\n      iszero\n      tag_167\n      jumpi\n      dup2\n      0x20\n      add\n      0x01\n      dup3\n      mul\n      dup1\n      calldatasize\n      dup4\n      calldatacopy\n      dup1\n      dup3\n      add\n      swap2\n      pop\n      pop\n      swap1\n      pop\n    tag_167:\n      pop\n        /* \"Evm/core/monad/vaultDelegator.sol\":9376:9412  bytes memory result = new bytes(len) */\n      swap1\n      pop\n        /* \"Evm/core/monad/vaultDelegator.sol\":9430:9439  uint256 i */\n      0x00\n        /* \"Evm/core/monad/vaultDelegator.sol\":9442:9443  0 */\n      0x00\n        /* \"Evm/core/monad/vaultDelegator.sol\":9430:9443  uint256 i = 0 */\n      swap1\n      pop\n        /* \"Evm/core/monad/vaultDelegator.sol\":9425:9512  for (uint256 i = 0; i < len; i++) {... */\n    tag_168:\n        /* \"Evm/core/monad/vaultDelegator.sol\":9449:9452  len */\n      dup3\n        /* \"Evm/core/monad/vaultDelegator.sol\":9445:9452  i < len */\n      0xff\n      and\n        /* \"Evm/core/monad/vaultDelegator.sol\":9445:9446  i */\n      dup2\n        /* \"Evm/core/monad/vaultDelegator.sol\":9445:9452  i < len */\n      lt\n        /* \"Evm/core/monad/vaultDelegator.sol\":9425:9512  for (uint256 i = 0; i < len; i++) {... */\n      iszero\n      tag_169\n      jumpi\n        /* \"Evm/core/monad/vaultDelegator.sol\":9486:9489  b32 */\n      dup6\n        /* \"Evm/core/monad/vaultDelegator.sol\":9498:9499  i */\n      dup2\n        /* \"Evm/core/monad/vaultDelegator.sol\":9490:9495  start */\n      dup7\n        /* \"Evm/core/monad/vaultDelegator.sol\":9490:9499  start + i */\n      0xff\n      and\n      tag_171\n      swap2\n      swap1\n      tag_172\n      jump\t// in\n    tag_171:\n        /* \"Evm/core/monad/vaultDelegator.sol\":9486:9500  b32[start + i] */\n      0x20\n      dup2\n      lt\n      tag_173\n      jumpi\n      tag_174\n      tag_107\n      jump\t// in\n    tag_174:\n    tag_173:\n      byte\n      0xf8\n      shl\n        /* \"Evm/core/monad/vaultDelegator.sol\":9474:9480  result */\n      dup3\n        /* \"Evm/core/monad/vaultDelegator.sol\":9481:9482  i */\n      dup3\n        /* \"Evm/core/monad/vaultDelegator.sol\":9474:9483  result[i] */\n      dup2\n      mload\n      dup2\n      lt\n      tag_175\n      jumpi\n      tag_176\n      tag_107\n      jump\t// in\n    tag_176:\n    tag_175:\n      0x20\n      add\n      add\n        /* \"Evm/core/monad/vaultDelegator.sol\":9474:9500  result[i] = b32[start + i] */\n      swap1\n      not(0xffffffffffffffffffffffffffffffffffffffffffffffffffffffffffffff)\n      and\n      swap1\n      dup2\n      0x00\n      byte\n      swap1\n      mstore8\n      pop\n        /* \"Evm/core/monad/vaultDelegator.sol\":9454:9457  i++ */\n      dup1\n      dup1\n      0x01\n      add\n      swap2\n      pop\n      pop\n        /* \"Evm/core/monad/vaultDelegator.sol\":9425:9512  for (uint256 i = 0; i < len; i++) {... */\n      jump(tag_168)\n    tag_169:\n      pop\n        /* \"Evm/core/monad/vaultDelegator.sol\":9538:9544  result */\n      dup1\n        /* \"Evm/core/monad/vaultDelegator.sol\":9524:9545  return string(result) */\n      swap6\n      pop\n      pop\n      pop\n      pop\n      pop\n      pop\n        /* \"Evm/core/monad/vaultDelegator.sol\":8676:9553  function fieldToString(uint256 _field) public pure returns (string memory) {... */\n    tag_144:\n      swap2\n      swap1\n      pop\n      jump\t// out\n        /* \"Evm/core/monad/vaultDelegator.sol\":1477:1522  IVariables public immutable variablesRegistry */\n    tag_71:\n      immutable(\"0xc14cd0a66bdc419d2e52369cdc9bcc330601a7df1268557a44a8b73b94984cd3\")\n      dup2\n      jump\t// out\n        /* \"Evm/core/monad/vaultDelegator.sol\":3268:4402  function processZkVariable(uint[2] calldata _pA, uint[2][2] calldata _pB, uint[2] calldata _pC, uint[8] calldata _pubSignals, address[] calldata validators, bytes calldata _signatures) external {... */\n    tag_77:\n        /* \"Evm/core/monad/vaultDelegator.sol\":3512:3529  variable_verifier */\n      immutable(\"0xe9d2e5d7dcf681fb037cdc034b01f1fe792271e130f784f84f54ff4ae7a73679\")\n        /* \"Evm/core/monad/vaultDelegator.sol\":3512:3541  variable_verifier.verifyProof */\n      0xffffffffffffffffffffffffffffffffffffffff\n      and\n      0xc9219a7a\n        /* \"Evm/core/monad/vaultDelegator.sol\":3542:3545  _pA */\n      dup10\n        /* \"Evm/core/monad/vaultDelegator.sol\":3547:3550  _pB */\n      dup10\n        /* \"Evm/core/monad/vaultDelegator.sol\":3552:3555  _pC */\n      dup10\n        /* \"Evm/core/monad/vaultDelegator.sol\":3557:3568  _pubSignals */\n      dup10\n        /* \"Evm/core/monad/vaultDelegator.sol\":3512:3569  variable_verifier.verifyProof(_pA, _pB, _pC, _pubSignals) */\n      mload(0x40)\n      dup6\n      0xffffffff\n      and\n      0xe0\n      shl\n      dup2\n      mstore\n      0x04\n      add\n      tag_178\n      swap5\n      swap4\n      swap3\n      swap2\n      swap1\n      tag_179\n      jump\t// in\n    tag_178:\n      0x20\n      mload(0x40)\n      dup1\n      dup4\n      sub\n      dup2\n      dup7\n      gas\n      staticcall\n      iszero\n      dup1\n      iszero\n      tag_181\n      jumpi\n      returndatacopy(0x00, 0x00, returndatasize)\n      revert(0x00, returndatasize)\n    tag_181:\n      pop\n      pop\n      pop\n      pop\n      mload(0x40)\n      returndatasize\n      not(0x1f)\n      0x1f\n      dup3\n      add\n      and\n      dup3\n      add\n      dup1\n      0x40\n      mstore\n      pop\n      dup2\n      add\n      swap1\n      tag_182\n      swap2\n      swap1\n      tag_101\n      jump\t// in\n    tag_182:\n        /* \"Evm/core/monad/vaultDelegator.sol\":3504:3590  require(variable_verifier.verifyProof(_pA, _pB, _pC, _pubSignals), \"Invalid ZK Proof\") */\n      tag_183\n      jumpi\n      mload(0x40)\n      0x08c379a000000000000000000000000000000000000000000000000000000000\n      dup2\n      mstore\n      0x04\n      add\n      tag_184\n      swap1\n      tag_104\n      jump\t// in\n    tag_184:\n      mload(0x40)\n      dup1\n      swap2\n      sub\n      swap1\n      revert\n    tag_183:\n        /* \"Evm/core/monad/vaultDelegator.sol\":3609:3624  uint256 chainID */\n      0x00\n        /* \"Evm/core/monad/vaultDelegator.sol\":3627:3638  _pubSignals */\n      dup6\n        /* \"Evm/core/monad/vaultDelegator.sol\":3639:3640  5 */\n      0x05\n        /* \"Evm/core/monad/vaultDelegator.sol\":3627:3641  _pubSignals[5] */\n      0x08\n      dup2\n      lt\n      tag_185\n      jumpi\n      tag_186\n      tag_107\n      jump\t// in\n    tag_186:\n    tag_185:\n      0x20\n      mul\n      add\n      calldataload\n        /* \"Evm/core/monad/vaultDelegator.sol\":3609:3641  uint256 chainID = _pubSignals[5] */\n      swap1\n      pop\n        /* \"Evm/core/monad/vaultDelegator.sol\":3671:3684  block.chainid */\n      chainid\n        /* \"Evm/core/monad/vaultDelegator.sol\":3660:3667  chainID */\n      dup2\n        /* \"Evm/core/monad/vaultDelegator.sol\":3660:3684  chainID == block.chainid */\n      eq\n        /* \"Evm/core/monad/vaultDelegator.sol\":3652:3712  require(chainID == block.chainid, \"Wrong destination chain\") */\n      tag_187\n      jumpi\n      mload(0x40)\n      0x08c379a000000000000000000000000000000000000000000000000000000000\n      dup2\n      mstore\n      0x04\n      add\n      tag_188\n      swap1\n      tag_110\n      jump\t// in\n    tag_188:\n      mload(0x40)\n      dup1\n      swap2\n      sub\n      swap1\n      revert\n    tag_187:\n        /* \"Evm/core/monad/vaultDelegator.sol\":3772:3798  string memory variableName */\n      0x00\n        /* \"Evm/core/monad/vaultDelegator.sol\":3801:3830  fieldToString(_pubSignals[3]) */\n      tag_189\n        /* \"Evm/core/monad/vaultDelegator.sol\":3815:3826  _pubSignals */\n      dup8\n        /* \"Evm/core/monad/vaultDelegator.sol\":3827:3828  3 */\n      0x03\n        /* \"Evm/core/monad/vaultDelegator.sol\":3815:3829  _pubSignals[3] */\n      0x08\n      dup2\n      lt\n      tag_190\n      jumpi\n      tag_191\n      tag_107\n      jump\t// in\n    tag_191:\n    tag_190:\n      0x20\n      mul\n      add\n      calldataload\n        /* \"Evm/core/monad/vaultDelegator.sol\":3801:3814  fieldToString */\n      tag_67\n        /* \"Evm/core/monad/vaultDelegator.sol\":3801:3830  fieldToString(_pubSignals[3]) */\n      jump\t// in\n    tag_189:\n        /* \"Evm/core/monad/vaultDelegator.sol\":3772:3830  string memory variableName = fieldToString(_pubSignals[3]) */\n      swap1\n      pop\n        /* \"Evm/core/monad/vaultDelegator.sol\":3841:3869  string memory variableHeader */\n      0x00\n        /* \"Evm/core/monad/vaultDelegator.sol\":3872:3901  fieldToString(_pubSignals[2]) */\n      tag_192\n        /* \"Evm/core/monad/vaultDelegator.sol\":3886:3897  _pubSignals */\n      dup9\n        /* \"Evm/core/monad/vaultDelegator.sol\":3898:3899  2 */\n      0x02\n        /* \"Evm/core/monad/vaultDelegator.sol\":3886:3900  _pubSignals[2] */\n      0x08\n      dup2\n      lt\n      tag_193\n      jumpi\n      tag_194\n      tag_107\n      jump\t// in\n    tag_194:\n    tag_193:\n      0x20\n      mul\n      add\n      calldataload\n        /* \"Evm/core/monad/vaultDelegator.sol\":3872:3885  fieldToString */\n      tag_67\n        /* \"Evm/core/monad/vaultDelegator.sol\":3872:3901  fieldToString(_pubSignals[2]) */\n      jump\t// in\n    tag_192:\n        /* \"Evm/core/monad/vaultDelegator.sol\":3841:3901  string memory variableHeader = fieldToString(_pubSignals[2]) */\n      swap1\n      pop\n        /* \"Evm/core/monad/vaultDelegator.sol\":3912:3938  bytes memory variableValue */\n      0x00\n        /* \"Evm/core/monad/vaultDelegator.sol\":3941:3969  fieldToBytes(_pubSignals[4]) */\n      tag_195\n        /* \"Evm/core/monad/vaultDelegator.sol\":3954:3965  _pubSignals */\n      dup10\n        /* \"Evm/core/monad/vaultDelegator.sol\":3966:3967  4 */\n      0x04\n        /* \"Evm/core/monad/vaultDelegator.sol\":3954:3968  _pubSignals[4] */\n      0x08\n      dup2\n      lt\n      tag_196\n      jumpi\n      tag_197\n      tag_107\n      jump\t// in\n    tag_197:\n    tag_196:\n      0x20\n      mul\n      add\n      calldataload\n        /* \"Evm/core/monad/vaultDelegator.sol\":3941:3953  fieldToBytes */\n      tag_30\n        /* \"Evm/core/monad/vaultDelegator.sol\":3941:3969  fieldToBytes(_pubSignals[4]) */\n      jump\t// in\n    tag_195:\n        /* \"Evm/core/monad/vaultDelegator.sol\":3912:3969  bytes memory variableValue = fieldToBytes(_pubSignals[4]) */\n      swap1\n      pop\n        /* \"Evm/core/monad/vaultDelegator.sol\":4030:4047  uint256 nullifier */\n      0x00\n        /* \"Evm/core/monad/vaultDelegator.sol\":4050:4083  _calculateNullifier8(_pubSignals) */\n      tag_198\n        /* \"Evm/core/monad/vaultDelegator.sol\":4071:4082  _pubSignals */\n      dup11\n        /* \"Evm/core/monad/vaultDelegator.sol\":4050:4070  _calculateNullifier8 */\n      tag_199\n        /* \"Evm/core/monad/vaultDelegator.sol\":4050:4083  _calculateNullifier8(_pubSignals) */\n      jump\t// in\n    tag_198:\n        /* \"Evm/core/monad/vaultDelegator.sol\":4030:4083  uint256 nullifier = _calculateNullifier8(_pubSignals) */\n      swap1\n      pop\n        /* \"Evm/core/monad/vaultDelegator.sol\":4094:4159  _verifyAllSignatures(bytes32(nullifier), validators, _signatures) */\n      tag_200\n        /* \"Evm/core/monad/vaultDelegator.sol\":4123:4132  nullifier */\n      dup2\n        /* \"Evm/core/monad/vaultDelegator.sol\":4115:4133  bytes32(nullifier) */\n      0x00\n      shl\n        /* \"Evm/core/monad/vaultDelegator.sol\":4135:4145  validators */\n      dup11\n      dup11\n        /* \"Evm/core/monad/vaultDelegator.sol\":4147:4158  _signatures */\n      dup11\n      dup11\n        /* \"Evm/core/monad/vaultDelegator.sol\":4094:4114  _verifyAllSignatures */\n      tag_114\n        /* \"Evm/core/monad/vaultDelegator.sol\":4094:4159  _verifyAllSignatures(bytes32(nullifier), validators, _signatures) */\n      jump\t// in\n    tag_200:\n        /* \"Evm/core/monad/vaultDelegator.sol\":4179:4193  usedNullifiers */\n      0x01\n        /* \"Evm/core/monad/vaultDelegator.sol\":4179:4204  usedNullifiers[nullifier] */\n      0x00\n        /* \"Evm/core/monad/vaultDelegator.sol\":4194:4203  nullifier */\n      dup3\n        /* \"Evm/core/monad/vaultDelegator.sol\":4179:4204  usedNullifiers[nullifier] */\n      dup2\n      mstore\n      0x20\n      add\n      swap1\n      dup2\n      mstore\n      0x20\n      add\n      0x00\n      keccak256\n      0x00\n      swap1\n      sload\n      swap1\n      0x0100\n      exp\n      swap1\n      div\n      0xff\n      and\n        /* \"Evm/core/monad/vaultDelegator.sol\":4178:4204  !usedNullifiers[nullifier] */\n      iszero\n        /* \"Evm/core/monad/vaultDelegator.sol\":4170:4231  require(!usedNullifiers[nullifier], \"Replay attack detected\") */\n      tag_201\n      jumpi\n      mload(0x40)\n      0x08c379a000000000000000000000000000000000000000000000000000000000\n      dup2\n      mstore\n      0x04\n      add\n      tag_202\n      swap1\n      tag_117\n      jump\t// in\n    tag_202:\n      mload(0x40)\n      dup1\n      swap2\n      sub\n      swap1\n      revert\n    tag_201:\n        /* \"Evm/core/monad/vaultDelegator.sol\":4270:4274  true */\n      0x01\n        /* \"Evm/core/monad/vaultDelegator.sol\":4242:4256  usedNullifiers */\n      dup1\n        /* \"Evm/core/monad/vaultDelegator.sol\":4242:4267  usedNullifiers[nullifier] */\n      0x00\n        /* \"Evm/core/monad/vaultDelegator.sol\":4257:4266  nullifier */\n      dup4\n        /* \"Evm/core/monad/vaultDelegator.sol\":4242:4267  usedNullifiers[nullifier] */\n      dup2\n      mstore\n      0x20\n      add\n      swap1\n      dup2\n      mstore\n      0x20\n      add\n      0x00\n      keccak256\n      0x00\n        /* \"Evm/core/monad/vaultDelegator.sol\":4242:4274  usedNullifiers[nullifier] = true */\n      0x0100\n      exp\n      dup2\n      sload\n      dup2\n      0xff\n      mul\n      not\n      and\n      swap1\n      dup4\n      iszero\n      iszero\n      mul\n      or\n      swap1\n      sstore\n      pop\n        /* \"Evm/core/monad/vaultDelegator.sol\":4313:4330  variablesRegistry */\n      immutable(\"0xc14cd0a66bdc419d2e52369cdc9bcc330601a7df1268557a44a8b73b94984cd3\")\n        /* \"Evm/core/monad/vaultDelegator.sol\":4313:4349  variablesRegistry.addPendingVariable */\n      0xffffffffffffffffffffffffffffffffffffffff\n      and\n      0x2e057b9b\n        /* \"Evm/core/monad/vaultDelegator.sol\":4350:4364  variableHeader */\n      dup5\n        /* \"Evm/core/monad/vaultDelegator.sol\":4366:4378  variableName */\n      dup7\n        /* \"Evm/core/monad/vaultDelegator.sol\":4380:4393  variableValue */\n      dup6\n        /* \"Evm/core/monad/vaultDelegator.sol\":4313:4394  variablesRegistry.addPendingVariable(variableHeader, variableName, variableValue) */\n      mload(0x40)\n      dup5\n      0xffffffff\n      and\n      0xe0\n      shl\n      dup2\n      mstore\n      0x04\n      add\n      tag_203\n      swap4\n      swap3\n      swap2\n      swap1\n      tag_204\n      jump\t// in\n    tag_203:\n      0x00\n      mload(0x40)\n      dup1\n      dup4\n      sub\n      dup2\n      0x00\n      dup8\n      dup1\n      extcodesize\n      iszero\n      dup1\n      iszero\n      tag_205\n      jumpi\n      revert(0x00, 0x00)\n    tag_205:\n      pop\n      gas\n      call\n      iszero\n      dup1\n      iszero\n      tag_207\n      jumpi\n      returndatacopy(0x00, 0x00, returndatasize)\n      revert(0x00, returndatasize)\n    tag_207:\n      pop\n      pop\n      pop\n      pop\n        /* \"Evm/core/monad/vaultDelegator.sol\":3462:4402  {... */\n      pop\n      pop\n      pop\n      pop\n      pop\n        /* \"Evm/core/monad/vaultDelegator.sol\":3268:4402  function processZkVariable(uint[2] calldata _pA, uint[2][2] calldata _pB, uint[2] calldata _pC, uint[8] calldata _pubSignals, address[] calldata validators, bytes calldata _signatures) external {... */\n      pop\n      pop\n      pop\n      pop\n      pop\n      pop\n      pop\n      pop\n      jump\t// out\n        /* \"Evm/core/monad/vaultDelegator.sol\":2202:3262  function processZkWithdraw(uint[2] calldata _pA, uint[2][2] calldata _pB, uint[2] calldata _pC, uint[8] calldata _pubSignals, address[] calldata validators, bytes calldata _signatures) external {... */\n    tag_80:\n        /* \"Evm/core/monad/vaultDelegator.sol\":2446:2462  balance_verifier */\n      immutable(\"0xba463f38d2d1b6be660b783eceb51b835e336e7e2844402930bc83b58866cf56\")\n        /* \"Evm/core/monad/vaultDelegator.sol\":2446:2474  balance_verifier.verifyProof */\n      0xffffffffffffffffffffffffffffffffffffffff\n      and\n      0xc9219a7a\n        /* \"Evm/core/monad/vaultDelegator.sol\":2475:2478  _pA */\n      dup10\n        /* \"Evm/core/monad/vaultDelegator.sol\":2480:2483  _pB */\n      dup10\n        /* \"Evm/core/monad/vaultDelegator.sol\":2485:2488  _pC */\n      dup10\n        /* \"Evm/core/monad/vaultDelegator.sol\":2490:2501  _pubSignals */\n      dup10\n        /* \"Evm/core/monad/vaultDelegator.sol\":2446:2502  balance_verifier.verifyProof(_pA, _pB, _pC, _pubSignals) */\n      mload(0x40)\n      dup6\n      0xffffffff\n      and\n      0xe0\n      shl\n      dup2\n      mstore\n      0x04\n      add\n      tag_209\n      swap5\n      swap4\n      swap3\n      swap2\n      swap1\n      tag_179\n      jump\t// in\n    tag_209:\n      0x20\n      mload(0x40)\n      dup1\n      dup4\n      sub\n      dup2\n      dup7\n      gas\n      staticcall\n      iszero\n      dup1\n      iszero\n      tag_211\n      jumpi\n      returndatacopy(0x00, 0x00, returndatasize)\n      revert(0x00, returndatasize)\n    tag_211:\n      pop\n      pop\n      pop\n      pop\n      mload(0x40)\n      returndatasize\n      not(0x1f)\n      0x1f\n      dup3\n      add\n      and\n      dup3\n      add\n      dup1\n      0x40\n      mstore\n      pop\n      dup2\n      add\n      swap1\n      tag_212\n      swap2\n      swap1\n      tag_101\n      jump\t// in\n    tag_212:\n        /* \"Evm/core/monad/vaultDelegator.sol\":2438:2523  require(balance_verifier.verifyProof(_pA, _pB, _pC, _pubSignals), \"Invalid ZK Proof\") */\n      tag_213\n      jumpi\n      mload(0x40)\n      0x08c379a000000000000000000000000000000000000000000000000000000000\n      dup2\n      mstore\n      0x04\n      add\n      tag_214\n      swap1\n      tag_104\n      jump\t// in\n    tag_214:\n      mload(0x40)\n      dup1\n      swap2\n      sub\n      swap1\n      revert\n    tag_213:\n        /* \"Evm/core/monad/vaultDelegator.sol\":2537:2551  uint256 amount */\n      0x00\n        /* \"Evm/core/monad/vaultDelegator.sol\":2553:2570  address vaultAddr */\n      0x00\n        /* \"Evm/core/monad/vaultDelegator.sol\":2572:2597  string memory storageName */\n      0x00\n        /* \"Evm/core/monad/vaultDelegator.sol\":2600:2631  _prepareWithdrawal(_pubSignals) */\n      tag_215\n        /* \"Evm/core/monad/vaultDelegator.sol\":2619:2630  _pubSignals */\n      dup9\n        /* \"Evm/core/monad/vaultDelegator.sol\":2600:2618  _prepareWithdrawal */\n      tag_216\n        /* \"Evm/core/monad/vaultDelegator.sol\":2600:2631  _prepareWithdrawal(_pubSignals) */\n      jump\t// in\n    tag_215:\n        /* \"Evm/core/monad/vaultDelegator.sol\":2536:2631  (uint256 amount, address vaultAddr, string memory storageName) =_prepareWithdrawal(_pubSignals) */\n      swap3\n      pop\n      swap3\n      pop\n      swap3\n      pop\n        /* \"Evm/core/monad/vaultDelegator.sol\":2692:2705  uint256 userL */\n      0x00\n        /* \"Evm/core/monad/vaultDelegator.sol\":2708:2719  _pubSignals */\n      dup9\n        /* \"Evm/core/monad/vaultDelegator.sol\":2720:2721  3 */\n      0x03\n        /* \"Evm/core/monad/vaultDelegator.sol\":2708:2722  _pubSignals[3] */\n      0x08\n      dup2\n      lt\n      tag_217\n      jumpi\n      tag_218\n      tag_107\n      jump\t// in\n    tag_218:\n    tag_217:\n      0x20\n      mul\n      add\n      calldataload\n        /* \"Evm/core/monad/vaultDelegator.sol\":2692:2722  uint256 userL = _pubSignals[3] */\n      swap1\n      pop\n        /* \"Evm/core/monad/vaultDelegator.sol\":2733:2746  uint256 userH */\n      0x00\n        /* \"Evm/core/monad/vaultDelegator.sol\":2749:2760  _pubSignals */\n      dup10\n        /* \"Evm/core/monad/vaultDelegator.sol\":2761:2762  4 */\n      0x04\n        /* \"Evm/core/monad/vaultDelegator.sol\":2749:2763  _pubSignals[4] */\n      0x08\n      dup2\n      lt\n      tag_219\n      jumpi\n      tag_220\n      tag_107\n      jump\t// in\n    tag_220:\n    tag_219:\n      0x20\n      mul\n      add\n      calldataload\n        /* \"Evm/core/monad/vaultDelegator.sol\":2733:2763  uint256 userH = _pubSignals[4] */\n      swap1\n      pop\n        /* \"Evm/core/monad/vaultDelegator.sol\":2774:2791  uint256 nullifier */\n      0x00\n        /* \"Evm/core/monad/vaultDelegator.sol\":2794:2827  _calculateNullifier8(_pubSignals) */\n      tag_221\n        /* \"Evm/core/monad/vaultDelegator.sol\":2815:2826  _pubSignals */\n      dup12\n        /* \"Evm/core/monad/vaultDelegator.sol\":2794:2814  _calculateNullifier8 */\n      tag_199\n        /* \"Evm/core/monad/vaultDelegator.sol\":2794:2827  _calculateNullifier8(_pubSignals) */\n      jump\t// in\n    tag_221:\n        /* \"Evm/core/monad/vaultDelegator.sol\":2774:2827  uint256 nullifier = _calculateNullifier8(_pubSignals) */\n      swap1\n      pop\n        /* \"Evm/core/monad/vaultDelegator.sol\":2838:2903  _verifyAllSignatures(bytes32(nullifier), validators, _signatures) */\n      tag_222\n        /* \"Evm/core/monad/vaultDelegator.sol\":2867:2876  nullifier */\n      dup2\n        /* \"Evm/core/monad/vaultDelegator.sol\":2859:2877  bytes32(nullifier) */\n      0x00\n      shl\n        /* \"Evm/core/monad/vaultDelegator.sol\":2879:2889  validators */\n      dup12\n      dup12\n        /* \"Evm/core/monad/vaultDelegator.sol\":2891:2902  _signatures */\n      dup12\n      dup12\n        /* \"Evm/core/monad/vaultDelegator.sol\":2838:2858  _verifyAllSignatures */\n      tag_114\n        /* \"Evm/core/monad/vaultDelegator.sol\":2838:2903  _verifyAllSignatures(bytes32(nullifier), validators, _signatures) */\n      jump\t// in\n    tag_222:\n        /* \"Evm/core/monad/vaultDelegator.sol\":2923:2937  usedNullifiers */\n      0x01\n        /* \"Evm/core/monad/vaultDelegator.sol\":2923:2948  usedNullifiers[nullifier] */\n      0x00\n        /* \"Evm/core/monad/vaultDelegator.sol\":2938:2947  nullifier */\n      dup3\n        /* \"Evm/core/monad/vaultDelegator.sol\":2923:2948  usedNullifiers[nullifier] */\n      dup2\n      mstore\n      0x20\n      add\n      swap1\n      dup2\n      mstore\n      0x20\n      add\n      0x00\n      keccak256\n      0x00\n      swap1\n      sload\n      swap1\n      0x0100\n      exp\n      swap1\n      div\n      0xff\n      and\n        /* \"Evm/core/monad/vaultDelegator.sol\":2922:2948  !usedNullifiers[nullifier] */\n      iszero\n        /* \"Evm/core/monad/vaultDelegator.sol\":2914:2975  require(!usedNullifiers[nullifier], \"Replay attack detected\") */\n      tag_223\n      jumpi\n      mload(0x40)\n      0x08c379a000000000000000000000000000000000000000000000000000000000\n      dup2\n      mstore\n      0x04\n      add\n      tag_224\n      swap1\n      tag_117\n      jump\t// in\n    tag_224:\n      mload(0x40)\n      dup1\n      swap2\n      sub\n      swap1\n      revert\n    tag_223:\n        /* \"Evm/core/monad/vaultDelegator.sol\":3014:3018  true */\n      0x01\n        /* \"Evm/core/monad/vaultDelegator.sol\":2986:3000  usedNullifiers */\n      dup1\n        /* \"Evm/core/monad/vaultDelegator.sol\":2986:3011  usedNullifiers[nullifier] */\n      0x00\n        /* \"Evm/core/monad/vaultDelegator.sol\":3001:3010  nullifier */\n      dup4\n        /* \"Evm/core/monad/vaultDelegator.sol\":2986:3011  usedNullifiers[nullifier] */\n      dup2\n      mstore\n      0x20\n      add\n      swap1\n      dup2\n      mstore\n      0x20\n      add\n      0x00\n      keccak256\n      0x00\n        /* \"Evm/core/monad/vaultDelegator.sol\":2986:3018  usedNullifiers[nullifier] = true */\n      0x0100\n      exp\n      dup2\n      sload\n      dup2\n      0xff\n      mul\n      not\n      and\n      swap1\n      dup4\n      iszero\n      iszero\n      mul\n      or\n      swap1\n      sstore\n      pop\n        /* \"Evm/core/monad/vaultDelegator.sol\":3074:3086  address user */\n      0x00\n        /* \"Evm/core/monad/vaultDelegator.sol\":3122:3127  userL */\n      dup4\n        /* \"Evm/core/monad/vaultDelegator.sol\":3115:3118  128 */\n      0x80\n        /* \"Evm/core/monad/vaultDelegator.sol\":3106:3111  userH */\n      dup5\n        /* \"Evm/core/monad/vaultDelegator.sol\":3106:3118  userH << 128 */\n      swap1\n      shl\n        /* \"Evm/core/monad/vaultDelegator.sol\":3105:3127  (userH << 128) | userL */\n      or\n        /* \"Evm/core/monad/vaultDelegator.sol\":3074:3129  address user = address(uint160((userH << 128) | userL)) */\n      swap1\n      pop\n        /* \"Evm/core/monad/vaultDelegator.sol\":3180:3189  vaultAddr */\n      dup6\n        /* \"Evm/core/monad/vaultDelegator.sol\":3168:3216  IQiaraVault(vaultAddr).grantWithdrawalPermission */\n      0xffffffffffffffffffffffffffffffffffffffff\n      and\n      0x6afbf5d6\n        /* \"Evm/core/monad/vaultDelegator.sol\":3217:3221  user */\n      dup3\n        /* \"Evm/core/monad/vaultDelegator.sol\":3223:3234  storageName */\n      dup8\n        /* \"Evm/core/monad/vaultDelegator.sol\":3236:3242  amount */\n      dup11\n        /* \"Evm/core/monad/vaultDelegator.sol\":3244:3253  nullifier */\n      dup7\n        /* \"Evm/core/monad/vaultDelegator.sol\":3168:3254  IQiaraVault(vaultAddr).grantWithdrawalPermission(user, storageName, amount, nullifier) */\n      mload(0x40)\n      dup6\n      0xffffffff\n      and\n      0xe0\n      shl\n      dup2\n      mstore\n      0x04\n      add\n      tag_225\n      swap5\n      swap4\n      swap3\n      swap2\n      swap1\n      tag_226\n      jump\t// in\n    tag_225:\n      0x00\n      mload(0x40)\n      dup1\n      dup4\n      sub\n      dup2\n      0x00\n      dup8\n      dup1\n      extcodesize\n      iszero\n      dup1\n      iszero\n      tag_227\n      jumpi\n      revert(0x00, 0x00)\n    tag_227:\n      pop\n      gas\n      call\n      iszero\n      dup1\n      iszero\n      tag_229\n      jumpi\n      returndatacopy(0x00, 0x00, returndatasize)\n      revert(0x00, returndatasize)\n    tag_229:\n      pop\n      pop\n      pop\n      pop\n        /* \"Evm/core/monad/vaultDelegator.sol\":2396:3262  {... */\n      pop\n      pop\n      pop\n      pop\n      pop\n      pop\n      pop\n        /* \"Evm/core/monad/vaultDelegator.sol\":2202:3262  function processZkWithdraw(uint[2] calldata _pA, uint[2][2] calldata _pB, uint[2] calldata _pC, uint[8] calldata _pubSignals, address[] calldata validators, bytes calldata _signatures) external {... */\n      pop\n      pop\n      pop\n      pop\n      pop\n      pop\n      pop\n      pop\n      jump\t// out\n        /* \"@openzeppelin/contracts/access/Ownable.sol\":2543:2758  function transferOwnership(address newOwner) public virtual onlyOwner {... */\n    tag_84:\n        /* \"@openzeppelin/contracts/access/Ownable.sol\":1531:1544  _checkOwner() */\n      tag_231\n        /* \"@openzeppelin/contracts/access/Ownable.sol\":1531:1542  _checkOwner */\n      tag_130\n        /* \"@openzeppelin/contracts/access/Ownable.sol\":1531:1544  _checkOwner() */\n      jump\t// in\n    tag_231:\n        /* \"@openzeppelin/contracts/access/Ownable.sol\":2647:2648  0 */\n      0x00\n        /* \"@openzeppelin/contracts/access/Ownable.sol\":2627:2649  newOwner == address(0) */\n      0xffffffffffffffffffffffffffffffffffffffff\n      and\n        /* \"@openzeppelin/contracts/access/Ownable.sol\":2627:2635  newOwner */\n      dup2\n        /* \"@openzeppelin/contracts/access/Ownable.sol\":2627:2649  newOwner == address(0) */\n      0xffffffffffffffffffffffffffffffffffffffff\n      and\n      sub\n        /* \"@openzeppelin/contracts/access/Ownable.sol\":2623:2714  if (newOwner == address(0)) {... */\n      tag_233\n      jumpi\n        /* \"@openzeppelin/contracts/access/Ownable.sol\":2700:2701  0 */\n      0x00\n        /* \"@openzeppelin/contracts/access/Ownable.sol\":2672:2703  OwnableInvalidOwner(address(0)) */\n      mload(0x40)\n      0x1e4fbdf700000000000000000000000000000000000000000000000000000000\n      dup2\n      mstore\n      0x04\n      add\n      tag_234\n      swap2\n      swap1\n      tag_43\n      jump\t// in\n    tag_234:\n      mload(0x40)\n      dup1\n      swap2\n      sub\n      swap1\n      revert\n        /* \"@openzeppelin/contracts/access/Ownable.sol\":2623:2714  if (newOwner == address(0)) {... */\n    tag_233:\n        /* \"@openzeppelin/contracts/access/Ownable.sol\":2723:2751  _transferOwnership(newOwner) */\n      tag_235\n        /* \"@openzeppelin/contracts/access/Ownable.sol\":2742:2750  newOwner */\n      dup2\n        /* \"@openzeppelin/contracts/access/Ownable.sol\":2723:2741  _transferOwnership */\n      tag_133\n        /* \"@openzeppelin/contracts/access/Ownable.sol\":2723:2751  _transferOwnership(newOwner) */\n      jump\t// in\n    tag_235:\n        /* \"@openzeppelin/contracts/access/Ownable.sol\":2543:2758  function transferOwnership(address newOwner) public virtual onlyOwner {... */\n      pop\n      jump\t// out\n        /* \"Evm/core/monad/vaultDelegator.sol\":1300:1350  IBalanceVerifier public immutable balance_verifier */\n    tag_86:\n      immutable(\"0xba463f38d2d1b6be660b783eceb51b835e336e7e2844402930bc83b58866cf56\")\n      dup2\n      jump\t// out\n        /* \"Evm/core/monad/vaultDelegator.sol\":9818:10006  function getEthSignedMessageHash(bytes32 _messageHash) public pure returns (bytes32) {... */\n    tag_92:\n        /* \"Evm/core/monad/vaultDelegator.sol\":9894:9901  bytes32 */\n      0x00\n        /* \"Evm/core/monad/vaultDelegator.sol\":9984:9996  _messageHash */\n      dup2\n        /* \"Evm/core/monad/vaultDelegator.sol\":9931:9997  abi.encodePacked(\"\\x19Ethereum Signed Message:\\n32\", _messageHash) */\n      add(0x20, mload(0x40))\n      tag_237\n      swap2\n      swap1\n      tag_238\n      jump\t// in\n    tag_237:\n      mload(0x40)\n      0x20\n      dup2\n      dup4\n      sub\n      sub\n      dup2\n      mstore\n      swap1\n      0x40\n      mstore\n        /* \"Evm/core/monad/vaultDelegator.sol\":9921:9998  keccak256(abi.encodePacked(\"\\x19Ethereum Signed Message:\\n32\", _messageHash)) */\n      dup1\n      mload\n      swap1\n      0x20\n      add\n      keccak256\n        /* \"Evm/core/monad/vaultDelegator.sol\":9914:9998  return keccak256(abi.encodePacked(\"\\x19Ethereum Signed Message:\\n32\", _messageHash)) */\n      swap1\n      pop\n        /* \"Evm/core/monad/vaultDelegator.sol\":9818:10006  function getEthSignedMessageHash(bytes32 _messageHash) public pure returns (bytes32) {... */\n      swap2\n      swap1\n      pop\n      jump\t// out\n        /* \"Evm/core/monad/vaultDelegator.sol\":6274:6823  function _calculateNullifier6(uint256[6] calldata _pubSignals) internal pure returns (uint256) {... */\n    tag_112:\n        /* \"Evm/core/monad/vaultDelegator.sol\":6360:6367  uint256 */\n      0x00\n        /* \"Evm/core/monad/vaultDelegator.sol\":6553:6565  bytes32 hash */\n      0x00\n        /* \"Evm/core/monad/vaultDelegator.sol\":6609:6620  _pubSignals */\n      dup3\n        /* \"Evm/core/monad/vaultDelegator.sol\":6621:6622  0 */\n      0x00\n        /* \"Evm/core/monad/vaultDelegator.sol\":6609:6623  _pubSignals[0] */\n      0x06\n      dup2\n      lt\n      tag_240\n      jumpi\n      tag_241\n      tag_107\n      jump\t// in\n    tag_241:\n    tag_240:\n      0x20\n      mul\n      add\n      calldataload\n        /* \"Evm/core/monad/vaultDelegator.sol\":6638:6649  _pubSignals */\n      dup4\n        /* \"Evm/core/monad/vaultDelegator.sol\":6650:6651  1 */\n      0x01\n        /* \"Evm/core/monad/vaultDelegator.sol\":6638:6652  _pubSignals[1] */\n      0x06\n      dup2\n      lt\n      tag_242\n      jumpi\n      tag_243\n      tag_107\n      jump\t// in\n    tag_243:\n    tag_242:\n      0x20\n      mul\n      add\n      calldataload\n        /* \"Evm/core/monad/vaultDelegator.sol\":6667:6678  _pubSignals */\n      dup5\n        /* \"Evm/core/monad/vaultDelegator.sol\":6679:6680  2 */\n      0x02\n        /* \"Evm/core/monad/vaultDelegator.sol\":6667:6681  _pubSignals[2] */\n      0x06\n      dup2\n      lt\n      tag_244\n      jumpi\n      tag_245\n      tag_107\n      jump\t// in\n    tag_245:\n    tag_244:\n      0x20\n      mul\n      add\n      calldataload\n        /* \"Evm/core/monad/vaultDelegator.sol\":6696:6707  _pubSignals */\n      dup6\n        /* \"Evm/core/monad/vaultDelegator.sol\":6708:6709  3 */\n      0x03\n        /* \"Evm/core/monad/vaultDelegator.sol\":6696:6710  _pubSignals[3] */\n      0x06\n      dup2\n      lt\n      tag_246\n      jumpi\n      tag_247\n      tag_107\n      jump\t// in\n    tag_247:\n    tag_246:\n      0x20\n      mul\n      add\n      calldataload\n        /* \"Evm/core/monad/vaultDelegator.sol\":6725:6736  _pubSignals */\n      dup7\n        /* \"Evm/core/monad/vaultDelegator.sol\":6737:6738  4 */\n      0x04\n        /* \"Evm/core/monad/vaultDelegator.sol\":6725:6739  _pubSignals[4] */\n      0x06\n      dup2\n      lt\n      tag_248\n      jumpi\n      tag_249\n      tag_107\n      jump\t// in\n    tag_249:\n    tag_248:\n      0x20\n      mul\n      add\n      calldataload\n        /* \"Evm/core/monad/vaultDelegator.sol\":6578:6781  abi.encodePacked(... */\n      add(0x20, mload(0x40))\n      tag_250\n      swap6\n      swap5\n      swap4\n      swap3\n      swap2\n      swap1\n      tag_251\n      jump\t// in\n    tag_250:\n      mload(0x40)\n      0x20\n      dup2\n      dup4\n      sub\n      sub\n      dup2\n      mstore\n      swap1\n      0x40\n      mstore\n        /* \"Evm/core/monad/vaultDelegator.sol\":6568:6782  keccak256(abi.encodePacked(... */\n      dup1\n      mload\n      swap1\n      0x20\n      add\n      keccak256\n        /* \"Evm/core/monad/vaultDelegator.sol\":6553:6782  bytes32 hash = keccak256(abi.encodePacked(... */\n      swap1\n      pop\n        /* \"Evm/core/monad/vaultDelegator.sol\":6810:6814  hash */\n      dup1\n        /* \"Evm/core/monad/vaultDelegator.sol\":6802:6815  uint256(hash) */\n      0x00\n      shr\n        /* \"Evm/core/monad/vaultDelegator.sol\":6795:6815  return uint256(hash) */\n      swap2\n      pop\n      pop\n        /* \"Evm/core/monad/vaultDelegator.sol\":6274:6823  function _calculateNullifier6(uint256[6] calldata _pubSignals) internal pure returns (uint256) {... */\n      swap2\n      swap1\n      pop\n      jump\t// out\n        /* \"Evm/core/monad/vaultDelegator.sol\":7644:8668  function _verifyAllSignatures(bytes32 _messageHash,address[] calldata validators,bytes calldata _signatures) internal view {... */\n    tag_114:\n        /* \"Evm/core/monad/vaultDelegator.sol\":7778:7793  bytes32 ethHash */\n      0x00\n        /* \"Evm/core/monad/vaultDelegator.sol\":7796:7833  getEthSignedMessageHash(_messageHash) */\n      tag_253\n        /* \"Evm/core/monad/vaultDelegator.sol\":7820:7832  _messageHash */\n      dup7\n        /* \"Evm/core/monad/vaultDelegator.sol\":7796:7819  getEthSignedMessageHash */\n      tag_92\n        /* \"Evm/core/monad/vaultDelegator.sol\":7796:7833  getEthSignedMessageHash(_messageHash) */\n      jump\t// in\n    tag_253:\n        /* \"Evm/core/monad/vaultDelegator.sol\":7778:7833  bytes32 ethHash = getEthSignedMessageHash(_messageHash) */\n      swap1\n      pop\n        /* \"Evm/core/monad/vaultDelegator.sol\":7908:7942  address[] memory active_validators */\n      0x00\n        /* \"Evm/core/monad/vaultDelegator.sol\":7945:7963  validatorsRegistry */\n      immutable(\"0xe76c7ee1d73589725b75d3ca20e963b98e9bae2cd15496ea9ee5b3513a66f6de\")\n        /* \"Evm/core/monad/vaultDelegator.sol\":7945:7982  validatorsRegistry.getActiveAddresses */\n      0xffffffffffffffffffffffffffffffffffffffff\n      and\n      0x1442e4c9\n        /* \"Evm/core/monad/vaultDelegator.sol\":7945:7984  validatorsRegistry.getActiveAddresses() */\n      mload(0x40)\n      dup2\n      0xffffffff\n      and\n      0xe0\n      shl\n      dup2\n      mstore\n      0x04\n      add\n      0x00\n      mload(0x40)\n      dup1\n      dup4\n      sub\n      dup2\n      dup7\n      gas\n      staticcall\n      iszero\n      dup1\n      iszero\n      tag_255\n      jumpi\n      returndatacopy(0x00, 0x00, returndatasize)\n      revert(0x00, returndatasize)\n    tag_255:\n      pop\n      pop\n      pop\n      pop\n      mload(0x40)\n      returndatasize\n      0x00\n      dup3\n      returndatacopy\n      returndatasize\n      not(0x1f)\n      0x1f\n      dup3\n      add\n      and\n      dup3\n      add\n      dup1\n      0x40\n      mstore\n      pop\n      dup2\n      add\n      swap1\n      tag_256\n      swap2\n      swap1\n      tag_257\n      jump\t// in\n    tag_256:\n        /* \"Evm/core/monad/vaultDelegator.sol\":7908:7984  address[] memory active_validators = validatorsRegistry.getActiveAddresses() */\n      swap1\n      pop\n        /* \"Evm/core/monad/vaultDelegator.sol\":8002:8011  uint256 i */\n      0x00\n        /* \"Evm/core/monad/vaultDelegator.sol\":8014:8015  0 */\n      0x00\n        /* \"Evm/core/monad/vaultDelegator.sol\":8002:8015  uint256 i = 0 */\n      swap1\n      pop\n        /* \"Evm/core/monad/vaultDelegator.sol\":7997:8661  for (uint256 i = 0; i < validators.length; i++) {... */\n    tag_258:\n        /* \"Evm/core/monad/vaultDelegator.sol\":8021:8031  validators */\n      dup7\n      dup7\n        /* \"Evm/core/monad/vaultDelegator.sol\":8021:8038  validators.length */\n      swap1\n      pop\n        /* \"Evm/core/monad/vaultDelegator.sol\":8017:8018  i */\n      dup2\n        /* \"Evm/core/monad/vaultDelegator.sol\":8017:8038  i < validators.length */\n      lt\n        /* \"Evm/core/monad/vaultDelegator.sol\":7997:8661  for (uint256 i = 0; i < validators.length; i++) {... */\n      iszero\n      tag_259\n      jumpi\n        /* \"Evm/core/monad/vaultDelegator.sol\":8060:8084  bytes calldata signature */\n      calldatasize\n      0x00\n        /* \"Evm/core/monad/vaultDelegator.sol\":8087:8098  _signatures */\n      dup7\n      dup7\n        /* \"Evm/core/monad/vaultDelegator.sol\":8103:8105  65 */\n      0x41\n        /* \"Evm/core/monad/vaultDelegator.sol\":8099:8100  i */\n      dup6\n        /* \"Evm/core/monad/vaultDelegator.sol\":8099:8105  i * 65 */\n      tag_261\n      swap2\n      swap1\n      tag_262\n      jump\t// in\n    tag_261:\n        /* \"Evm/core/monad/vaultDelegator.sol\":8087:8121  _signatures[i * 65 : (i + 1) * 65] */\n      swap1\n        /* \"Evm/core/monad/vaultDelegator.sol\":8118:8120  65 */\n      0x41\n        /* \"Evm/core/monad/vaultDelegator.sol\":8113:8114  1 */\n      0x01\n        /* \"Evm/core/monad/vaultDelegator.sol\":8109:8110  i */\n      dup8\n        /* \"Evm/core/monad/vaultDelegator.sol\":8109:8114  i + 1 */\n      tag_263\n      swap2\n      swap1\n      tag_172\n      jump\t// in\n    tag_263:\n        /* \"Evm/core/monad/vaultDelegator.sol\":8108:8120  (i + 1) * 65 */\n      tag_264\n      swap2\n      swap1\n      tag_262\n      jump\t// in\n    tag_264:\n        /* \"Evm/core/monad/vaultDelegator.sol\":8087:8121  _signatures[i * 65 : (i + 1) * 65] */\n      swap3\n      tag_265\n      swap4\n      swap3\n      swap2\n      swap1\n      tag_266\n      jump\t// in\n    tag_265:\n        /* \"Evm/core/monad/vaultDelegator.sol\":8060:8121  bytes calldata signature = _signatures[i * 65 : (i + 1) * 65] */\n      swap2\n      pop\n      swap2\n      pop\n        /* \"Evm/core/monad/vaultDelegator.sol\":8136:8150  address signer */\n      0x00\n        /* \"Evm/core/monad/vaultDelegator.sol\":8153:8186  recoverSigner(ethHash, signature) */\n      tag_267\n        /* \"Evm/core/monad/vaultDelegator.sol\":8167:8174  ethHash */\n      dup7\n        /* \"Evm/core/monad/vaultDelegator.sol\":8176:8185  signature */\n      dup5\n      dup5\n        /* \"Evm/core/monad/vaultDelegator.sol\":8153:8186  recoverSigner(ethHash, signature) */\n      dup1\n      dup1\n      0x1f\n      add\n      0x20\n      dup1\n      swap2\n      div\n      mul\n      0x20\n      add\n      mload(0x40)\n      swap1\n      dup2\n      add\n      0x40\n      mstore\n      dup1\n      swap4\n      swap3\n      swap2\n      swap1\n      dup2\n      dup2\n      mstore\n      0x20\n      add\n      dup4\n      dup4\n      dup1\n      dup3\n      dup5\n      calldatacopy\n      0x00\n      dup2\n      dup5\n      add\n      mstore\n      not(0x1f)\n      0x1f\n      dup3\n      add\n      and\n      swap1\n      pop\n      dup1\n      dup4\n      add\n      swap3\n      pop\n      pop\n      pop\n      pop\n      pop\n      pop\n      pop\n        /* \"Evm/core/monad/vaultDelegator.sol\":8153:8166  recoverSigner */\n      tag_50\n        /* \"Evm/core/monad/vaultDelegator.sol\":8153:8186  recoverSigner(ethHash, signature) */\n      jump\t// in\n    tag_267:\n        /* \"Evm/core/monad/vaultDelegator.sol\":8136:8186  address signer = recoverSigner(ethHash, signature) */\n      swap1\n      pop\n        /* \"Evm/core/monad/vaultDelegator.sol\":8227:8228  0 */\n      0x00\n        /* \"Evm/core/monad/vaultDelegator.sol\":8209:8229  signer != address(0) */\n      0xffffffffffffffffffffffffffffffffffffffff\n      and\n        /* \"Evm/core/monad/vaultDelegator.sol\":8209:8215  signer */\n      dup2\n        /* \"Evm/core/monad/vaultDelegator.sol\":8209:8229  signer != address(0) */\n      0xffffffffffffffffffffffffffffffffffffffff\n      and\n      sub\n        /* \"Evm/core/monad/vaultDelegator.sol\":8201:8251  require(signer != address(0), \"Invalid signature\") */\n      tag_268\n      jumpi\n      mload(0x40)\n      0x08c379a000000000000000000000000000000000000000000000000000000000\n      dup2\n      mstore\n      0x04\n      add\n      tag_269\n      swap1\n      tag_270\n      jump\t// in\n    tag_269:\n      mload(0x40)\n      dup1\n      swap2\n      sub\n      swap1\n      revert\n    tag_268:\n        /* \"Evm/core/monad/vaultDelegator.sol\":8325:8342  bool isAuthorized */\n      0x00\n        /* \"Evm/core/monad/vaultDelegator.sol\":8345:8350  false */\n      0x00\n        /* \"Evm/core/monad/vaultDelegator.sol\":8325:8350  bool isAuthorized = false */\n      swap1\n      pop\n        /* \"Evm/core/monad/vaultDelegator.sol\":8370:8379  uint256 j */\n      0x00\n        /* \"Evm/core/monad/vaultDelegator.sol\":8382:8383  0 */\n      0x00\n        /* \"Evm/core/monad/vaultDelegator.sol\":8370:8383  uint256 j = 0 */\n      swap1\n      pop\n        /* \"Evm/core/monad/vaultDelegator.sol\":8365:8580  for (uint256 j = 0; j < active_validators.length; j++) {... */\n    tag_271:\n        /* \"Evm/core/monad/vaultDelegator.sol\":8389:8406  active_validators */\n      dup7\n        /* \"Evm/core/monad/vaultDelegator.sol\":8389:8413  active_validators.length */\n      mload\n        /* \"Evm/core/monad/vaultDelegator.sol\":8385:8386  j */\n      dup2\n        /* \"Evm/core/monad/vaultDelegator.sol\":8385:8413  j < active_validators.length */\n      lt\n        /* \"Evm/core/monad/vaultDelegator.sol\":8365:8580  for (uint256 j = 0; j < active_validators.length; j++) {... */\n      iszero\n      tag_272\n      jumpi\n        /* \"Evm/core/monad/vaultDelegator.sol\":8467:8473  signer */\n      dup3\n        /* \"Evm/core/monad/vaultDelegator.sol\":8443:8473  active_validators[j] == signer */\n      0xffffffffffffffffffffffffffffffffffffffff\n      and\n        /* \"Evm/core/monad/vaultDelegator.sol\":8443:8460  active_validators */\n      dup8\n        /* \"Evm/core/monad/vaultDelegator.sol\":8461:8462  j */\n      dup3\n        /* \"Evm/core/monad/vaultDelegator.sol\":8443:8463  active_validators[j] */\n      dup2\n      mload\n      dup2\n      lt\n      tag_274\n      jumpi\n      tag_275\n      tag_107\n      jump\t// in\n    tag_275:\n    tag_274:\n      0x20\n      mul\n      0x20\n      add\n      add\n      mload\n        /* \"Evm/core/monad/vaultDelegator.sol\":8443:8473  active_validators[j] == signer */\n      0xffffffffffffffffffffffffffffffffffffffff\n      and\n      sub\n        /* \"Evm/core/monad/vaultDelegator.sol\":8439:8565  if (active_validators[j] == signer) {... */\n      tag_276\n      jumpi\n        /* \"Evm/core/monad/vaultDelegator.sol\":8513:8517  true */\n      0x01\n        /* \"Evm/core/monad/vaultDelegator.sol\":8498:8517  isAuthorized = true */\n      swap2\n      pop\n        /* \"Evm/core/monad/vaultDelegator.sol\":8540:8545  break */\n      jump(tag_272)\n        /* \"Evm/core/monad/vaultDelegator.sol\":8439:8565  if (active_validators[j] == signer) {... */\n    tag_276:\n        /* \"Evm/core/monad/vaultDelegator.sol\":8415:8418  j++ */\n      dup1\n      dup1\n      0x01\n      add\n      swap2\n      pop\n      pop\n        /* \"Evm/core/monad/vaultDelegator.sol\":8365:8580  for (uint256 j = 0; j < active_validators.length; j++) {... */\n      jump(tag_271)\n    tag_272:\n      pop\n        /* \"Evm/core/monad/vaultDelegator.sol\":8602:8614  isAuthorized */\n      dup1\n        /* \"Evm/core/monad/vaultDelegator.sol\":8594:8649  require(isAuthorized, \"Signer not an active validator\") */\n      tag_277\n      jumpi\n      mload(0x40)\n      0x08c379a000000000000000000000000000000000000000000000000000000000\n      dup2\n      mstore\n      0x04\n      add\n      tag_278\n      swap1\n      tag_279\n      jump\t// in\n    tag_278:\n      mload(0x40)\n      dup1\n      swap2\n      sub\n      swap1\n      revert\n    tag_277:\n        /* \"Evm/core/monad/vaultDelegator.sol\":8045:8661  {... */\n      pop\n      pop\n      pop\n      pop\n        /* \"Evm/core/monad/vaultDelegator.sol\":8040:8043  i++ */\n      dup1\n      dup1\n      0x01\n      add\n      swap2\n      pop\n      pop\n        /* \"Evm/core/monad/vaultDelegator.sol\":7997:8661  for (uint256 i = 0; i < validators.length; i++) {... */\n      jump(tag_258)\n    tag_259:\n      pop\n        /* \"Evm/core/monad/vaultDelegator.sol\":7767:8668  {... */\n      pop\n      pop\n        /* \"Evm/core/monad/vaultDelegator.sol\":7644:8668  function _verifyAllSignatures(bytes32 _messageHash,address[] calldata validators,bytes calldata _signatures) internal view {... */\n      pop\n      pop\n      pop\n      pop\n      pop\n      jump\t// out\n        /* \"@openzeppelin/contracts/access/Ownable.sol\":1796:1958  function _checkOwner() internal view virtual {... */\n    tag_130:\n        /* \"@openzeppelin/contracts/access/Ownable.sol\":1866:1878  _msgSender() */\n      tag_281\n        /* \"@openzeppelin/contracts/access/Ownable.sol\":1866:1876  _msgSender */\n      tag_282\n        /* \"@openzeppelin/contracts/access/Ownable.sol\":1866:1878  _msgSender() */\n      jump\t// in\n    tag_281:\n        /* \"@openzeppelin/contracts/access/Ownable.sol\":1855:1878  owner() != _msgSender() */\n      0xffffffffffffffffffffffffffffffffffffffff\n      and\n        /* \"@openzeppelin/contracts/access/Ownable.sol\":1855:1862  owner() */\n      tag_283\n        /* \"@openzeppelin/contracts/access/Ownable.sol\":1855:1860  owner */\n      tag_45\n        /* \"@openzeppelin/contracts/access/Ownable.sol\":1855:1862  owner() */\n      jump\t// in\n    tag_283:\n        /* \"@openzeppelin/contracts/access/Ownable.sol\":1855:1878  owner() != _msgSender() */\n      0xffffffffffffffffffffffffffffffffffffffff\n      and\n      eq\n        /* \"@openzeppelin/contracts/access/Ownable.sol\":1851:1952  if (owner() != _msgSender()) {... */\n      tag_284\n      jumpi\n        /* \"@openzeppelin/contracts/access/Ownable.sol\":1928:1940  _msgSender() */\n      tag_285\n        /* \"@openzeppelin/contracts/access/Ownable.sol\":1928:1938  _msgSender */\n      tag_282\n        /* \"@openzeppelin/contracts/access/Ownable.sol\":1928:1940  _msgSender() */\n      jump\t// in\n    tag_285:\n        /* \"@openzeppelin/contracts/access/Ownable.sol\":1901:1941  OwnableUnauthorizedAccount(_msgSender()) */\n      mload(0x40)\n      0x118cdaa700000000000000000000000000000000000000000000000000000000\n      dup2\n      mstore\n      0x04\n      add\n      tag_286\n      swap2\n      swap1\n      tag_43\n      jump\t// in\n    tag_286:\n      mload(0x40)\n      dup1\n      swap2\n      sub\n      swap1\n      revert\n        /* \"@openzeppelin/contracts/access/Ownable.sol\":1851:1952  if (owner() != _msgSender()) {... */\n    tag_284:\n        /* \"@openzeppelin/contracts/access/Ownable.sol\":1796:1958  function _checkOwner() internal view virtual {... */\n      jump\t// out\n        /* \"@openzeppelin/contracts/access/Ownable.sol\":2912:3099  function _transferOwnership(address newOwner) internal virtual {... */\n    tag_133:\n        /* \"@openzeppelin/contracts/access/Ownable.sol\":2985:3001  address oldOwner */\n      0x00\n        /* \"@openzeppelin/contracts/access/Ownable.sol\":3004:3010  _owner */\n      0x00\n      0x00\n      swap1\n      sload\n      swap1\n      0x0100\n      exp\n      swap1\n      div\n      0xffffffffffffffffffffffffffffffffffffffff\n      and\n        /* \"@openzeppelin/contracts/access/Ownable.sol\":2985:3010  address oldOwner = _owner */\n      swap1\n      pop\n        /* \"@openzeppelin/contracts/access/Ownable.sol\":3029:3037  newOwner */\n      dup2\n        /* \"@openzeppelin/contracts/access/Ownable.sol\":3020:3026  _owner */\n      0x00\n      0x00\n        /* \"@openzeppelin/contracts/access/Ownable.sol\":3020:3037  _owner = newOwner */\n      0x0100\n      exp\n      dup2\n      sload\n      dup2\n      0xffffffffffffffffffffffffffffffffffffffff\n      mul\n      not\n      and\n      swap1\n      dup4\n      0xffffffffffffffffffffffffffffffffffffffff\n      and\n      mul\n      or\n      swap1\n      sstore\n      pop\n        /* \"@openzeppelin/contracts/access/Ownable.sol\":3083:3091  newOwner */\n      dup2\n        /* \"@openzeppelin/contracts/access/Ownable.sol\":3052:3092  OwnershipTransferred(oldOwner, newOwner) */\n      0xffffffffffffffffffffffffffffffffffffffff\n      and\n        /* \"@openzeppelin/contracts/access/Ownable.sol\":3073:3081  oldOwner */\n      dup2\n        /* \"@openzeppelin/contracts/access/Ownable.sol\":3052:3092  OwnershipTransferred(oldOwner, newOwner) */\n      0xffffffffffffffffffffffffffffffffffffffff\n      and\n      0x8be0079c531659141344cd1fd0a4f28419497f9722a3daafe3b4186f6b6457e0\n      mload(0x40)\n      mload(0x40)\n      dup1\n      swap2\n      sub\n      swap1\n      log3\n        /* \"@openzeppelin/contracts/access/Ownable.sol\":2975:3099  {... */\n      pop\n        /* \"@openzeppelin/contracts/access/Ownable.sol\":2912:3099  function _transferOwnership(address newOwner) internal virtual {... */\n      pop\n      jump\t// out\n        /* \"Evm/core/monad/vaultDelegator.sol\":5490:6096  function _calculateNullifier8(uint256[8] calldata _pubSignals) internal pure returns (uint256) {... */\n    tag_199:\n        /* \"Evm/core/monad/vaultDelegator.sol\":5576:5583  uint256 */\n      0x00\n        /* \"Evm/core/monad/vaultDelegator.sol\":5769:5781  bytes32 hash */\n      0x00\n        /* \"Evm/core/monad/vaultDelegator.sol\":5825:5836  _pubSignals */\n      dup3\n        /* \"Evm/core/monad/vaultDelegator.sol\":5837:5838  0 */\n      0x00\n        /* \"Evm/core/monad/vaultDelegator.sol\":5825:5839  _pubSignals[0] */\n      0x08\n      dup2\n      lt\n      tag_289\n      jumpi\n      tag_290\n      tag_107\n      jump\t// in\n    tag_290:\n    tag_289:\n      0x20\n      mul\n      add\n      calldataload\n        /* \"Evm/core/monad/vaultDelegator.sol\":5854:5865  _pubSignals */\n      dup4\n        /* \"Evm/core/monad/vaultDelegator.sol\":5866:5867  1 */\n      0x01\n        /* \"Evm/core/monad/vaultDelegator.sol\":5854:5868  _pubSignals[1] */\n      0x08\n      dup2\n      lt\n      tag_291\n      jumpi\n      tag_292\n      tag_107\n      jump\t// in\n    tag_292:\n    tag_291:\n      0x20\n      mul\n      add\n      calldataload\n        /* \"Evm/core/monad/vaultDelegator.sol\":5883:5894  _pubSignals */\n      dup5\n        /* \"Evm/core/monad/vaultDelegator.sol\":5895:5896  2 */\n      0x02\n        /* \"Evm/core/monad/vaultDelegator.sol\":5883:5897  _pubSignals[2] */\n      0x08\n      dup2\n      lt\n      tag_293\n      jumpi\n      tag_294\n      tag_107\n      jump\t// in\n    tag_294:\n    tag_293:\n      0x20\n      mul\n      add\n      calldataload\n        /* \"Evm/core/monad/vaultDelegator.sol\":5912:5923  _pubSignals */\n      dup6\n        /* \"Evm/core/monad/vaultDelegator.sol\":5924:5925  3 */\n      0x03\n        /* \"Evm/core/monad/vaultDelegator.sol\":5912:5926  _pubSignals[3] */\n      0x08\n      dup2\n      lt\n      tag_295\n      jumpi\n      tag_296\n      tag_107\n      jump\t// in\n    tag_296:\n    tag_295:\n      0x20\n      mul\n      add\n      calldataload\n        /* \"Evm/core/monad/vaultDelegator.sol\":5941:5952  _pubSignals */\n      dup7\n        /* \"Evm/core/monad/vaultDelegator.sol\":5953:5954  4 */\n      0x04\n        /* \"Evm/core/monad/vaultDelegator.sol\":5941:5955  _pubSignals[4] */\n      0x08\n      dup2\n      lt\n      tag_297\n      jumpi\n      tag_298\n      tag_107\n      jump\t// in\n    tag_298:\n    tag_297:\n      0x20\n      mul\n      add\n      calldataload\n        /* \"Evm/core/monad/vaultDelegator.sol\":5970:5981  _pubSignals */\n      dup8\n        /* \"Evm/core/monad/vaultDelegator.sol\":5982:5983  5 */\n      0x05\n        /* \"Evm/core/monad/vaultDelegator.sol\":5970:5984  _pubSignals[5] */\n      0x08\n      dup2\n      lt\n      tag_299\n      jumpi\n      tag_300\n      tag_107\n      jump\t// in\n    tag_300:\n    tag_299:\n      0x20\n      mul\n      add\n      calldataload\n        /* \"Evm/core/monad/vaultDelegator.sol\":5999:6010  _pubSignals */\n      dup9\n        /* \"Evm/core/monad/vaultDelegator.sol\":6011:6012  6 */\n      0x06\n        /* \"Evm/core/monad/vaultDelegator.sol\":5999:6013  _pubSignals[6] */\n      0x08\n      dup2\n      lt\n      tag_301\n      jumpi\n      tag_302\n      tag_107\n      jump\t// in\n    tag_302:\n    tag_301:\n      0x20\n      mul\n      add\n      calldataload\n        /* \"Evm/core/monad/vaultDelegator.sol\":5794:6054  abi.encodePacked(... */\n      add(0x20, mload(0x40))\n      tag_303\n      swap8\n      swap7\n      swap6\n      swap5\n      swap4\n      swap3\n      swap2\n      swap1\n      tag_304\n      jump\t// in\n    tag_303:\n      mload(0x40)\n      0x20\n      dup2\n      dup4\n      sub\n      sub\n      dup2\n      mstore\n      swap1\n      0x40\n      mstore\n        /* \"Evm/core/monad/vaultDelegator.sol\":5784:6055  keccak256(abi.encodePacked(... */\n      dup1\n      mload\n      swap1\n      0x20\n      add\n      keccak256\n        /* \"Evm/core/monad/vaultDelegator.sol\":5769:6055  bytes32 hash = keccak256(abi.encodePacked(... */\n      swap1\n      pop\n        /* \"Evm/core/monad/vaultDelegator.sol\":6083:6087  hash */\n      dup1\n        /* \"Evm/core/monad/vaultDelegator.sol\":6075:6088  uint256(hash) */\n      0x00\n      shr\n        /* \"Evm/core/monad/vaultDelegator.sol\":6068:6088  return uint256(hash) */\n      swap2\n      pop\n      pop\n        /* \"Evm/core/monad/vaultDelegator.sol\":5490:6096  function _calculateNullifier8(uint256[8] calldata _pubSignals) internal pure returns (uint256) {... */\n      swap2\n      swap1\n      pop\n      jump\t// out\n        /* \"Evm/core/monad/vaultDelegator.sol\":6831:7636  function _prepareWithdrawal(uint[8] calldata _pubSignals) internal view returns (uint256 amount, address vaultAddr, string memory storageName){... */\n    tag_216:\n        /* \"Evm/core/monad/vaultDelegator.sol\":6912:6926  uint256 amount */\n      0x00\n        /* \"Evm/core/monad/vaultDelegator.sol\":6928:6945  address vaultAddr */\n      0x00\n        /* \"Evm/core/monad/vaultDelegator.sol\":6947:6972  string memory storageName */\n      0x60\n        /* \"Evm/core/monad/vaultDelegator.sol\":6984:6998  uint256 packed */\n      0x00\n        /* \"Evm/core/monad/vaultDelegator.sol\":7001:7012  _pubSignals */\n      dup5\n        /* \"Evm/core/monad/vaultDelegator.sol\":7013:7014  7 */\n      0x07\n        /* \"Evm/core/monad/vaultDelegator.sol\":7001:7015  _pubSignals[7] */\n      0x08\n      dup2\n      lt\n      tag_306\n      jumpi\n      tag_307\n      tag_107\n      jump\t// in\n    tag_307:\n    tag_306:\n      0x20\n      mul\n      add\n      calldataload\n        /* \"Evm/core/monad/vaultDelegator.sol\":6984:7015  uint256 packed = _pubSignals[7] */\n      swap1\n      pop\n        /* \"Evm/core/monad/vaultDelegator.sol\":7026:7041  uint256 chainID */\n      0x00\n        /* \"Evm/core/monad/vaultDelegator.sol\":7053:7063  0xFFFFFFFF */\n      0xffffffff\n        /* \"Evm/core/monad/vaultDelegator.sol\":7044:7050  packed */\n      dup3\n        /* \"Evm/core/monad/vaultDelegator.sol\":7044:7063  packed & 0xFFFFFFFF */\n      and\n        /* \"Evm/core/monad/vaultDelegator.sol\":7026:7063  uint256 chainID = packed & 0xFFFFFFFF */\n      swap1\n      pop\n        /* \"Evm/core/monad/vaultDelegator.sol\":7100:7118  0xFFFFFFFFFFFFFFFF */\n      0xffffffffffffffff\n        /* \"Evm/core/monad/vaultDelegator.sol\":7094:7096  32 */\n      0x20\n        /* \"Evm/core/monad/vaultDelegator.sol\":7084:7090  packed */\n      dup4\n        /* \"Evm/core/monad/vaultDelegator.sol\":7084:7096  packed >> 32 */\n      swap1\n      shr\n        /* \"Evm/core/monad/vaultDelegator.sol\":7083:7118  (packed >> 32) & 0xFFFFFFFFFFFFFFFF */\n      and\n        /* \"Evm/core/monad/vaultDelegator.sol\":7074:7118  amount = (packed >> 32) & 0xFFFFFFFFFFFFFFFF */\n      swap5\n      pop\n        /* \"Evm/core/monad/vaultDelegator.sol\":7150:7163  block.chainid */\n      chainid\n        /* \"Evm/core/monad/vaultDelegator.sol\":7139:7146  chainID */\n      dup2\n        /* \"Evm/core/monad/vaultDelegator.sol\":7139:7163  chainID == block.chainid */\n      eq\n        /* \"Evm/core/monad/vaultDelegator.sol\":7131:7191  require(chainID == block.chainid, \"Wrong destination chain\") */\n      tag_308\n      jumpi\n      mload(0x40)\n      0x08c379a000000000000000000000000000000000000000000000000000000000\n      dup2\n      mstore\n      0x04\n      add\n      tag_309\n      swap1\n      tag_110\n      jump\t// in\n    tag_309:\n      mload(0x40)\n      dup1\n      swap2\n      sub\n      swap1\n      revert\n    tag_308:\n        /* \"Evm/core/monad/vaultDelegator.sol\":7218:7247  fieldToString(_pubSignals[5]) */\n      tag_310\n        /* \"Evm/core/monad/vaultDelegator.sol\":7232:7243  _pubSignals */\n      dup7\n        /* \"Evm/core/monad/vaultDelegator.sol\":7244:7245  5 */\n      0x05\n        /* \"Evm/core/monad/vaultDelegator.sol\":7232:7246  _pubSignals[5] */\n      0x08\n      dup2\n      lt\n      tag_311\n      jumpi\n      tag_312\n      tag_107\n      jump\t// in\n    tag_312:\n    tag_311:\n      0x20\n      mul\n      add\n      calldataload\n        /* \"Evm/core/monad/vaultDelegator.sol\":7218:7231  fieldToString */\n      tag_67\n        /* \"Evm/core/monad/vaultDelegator.sol\":7218:7247  fieldToString(_pubSignals[5]) */\n      jump\t// in\n    tag_310:\n        /* \"Evm/core/monad/vaultDelegator.sol\":7204:7247  storageName = fieldToString(_pubSignals[5]) */\n      swap3\n      pop\n        /* \"Evm/core/monad/vaultDelegator.sol\":7258:7284  string memory providerName */\n      0x00\n        /* \"Evm/core/monad/vaultDelegator.sol\":7287:7316  fieldToString(_pubSignals[6]) */\n      tag_313\n        /* \"Evm/core/monad/vaultDelegator.sol\":7301:7312  _pubSignals */\n      dup8\n        /* \"Evm/core/monad/vaultDelegator.sol\":7313:7314  6 */\n      0x06\n        /* \"Evm/core/monad/vaultDelegator.sol\":7301:7315  _pubSignals[6] */\n      0x08\n      dup2\n      lt\n      tag_314\n      jumpi\n      tag_315\n      tag_107\n      jump\t// in\n    tag_315:\n    tag_314:\n      0x20\n      mul\n      add\n      calldataload\n        /* \"Evm/core/monad/vaultDelegator.sol\":7287:7300  fieldToString */\n      tag_67\n        /* \"Evm/core/monad/vaultDelegator.sol\":7287:7316  fieldToString(_pubSignals[6]) */\n      jump\t// in\n    tag_313:\n        /* \"Evm/core/monad/vaultDelegator.sol\":7258:7316  string memory providerName = fieldToString(_pubSignals[6]) */\n      swap1\n      pop\n        /* \"Evm/core/monad/vaultDelegator.sol\":7329:7351  string memory vaultKey */\n      0x00\n        /* \"Evm/core/monad/vaultDelegator.sol\":7378:7390  providerName */\n      dup2\n        /* \"Evm/core/monad/vaultDelegator.sol\":7361:7401  abi.encodePacked(providerName, \"_vault\") */\n      add(0x20, mload(0x40))\n      tag_316\n      swap2\n      swap1\n      tag_317\n      jump\t// in\n    tag_316:\n      mload(0x40)\n      0x20\n      dup2\n      dup4\n      sub\n      sub\n      dup2\n      mstore\n      swap1\n      0x40\n      mstore\n        /* \"Evm/core/monad/vaultDelegator.sol\":7329:7402  string memory vaultKey = string(abi.encodePacked(providerName, \"_vault\")) */\n      swap1\n      pop\n        /* \"Evm/core/monad/vaultDelegator.sol\":7413:7436  bytes memory vaultBytes */\n      0x00\n        /* \"Evm/core/monad/vaultDelegator.sol\":7439:7456  variablesRegistry */\n      immutable(\"0xc14cd0a66bdc419d2e52369cdc9bcc330601a7df1268557a44a8b73b94984cd3\")\n        /* \"Evm/core/monad/vaultDelegator.sol\":7439:7474  variablesRegistry.getActiveVariable */\n      0xffffffffffffffffffffffffffffffffffffffff\n      and\n      0x16f1adc1\n        /* \"Evm/core/monad/vaultDelegator.sol\":7494:7502  vaultKey */\n      dup4\n        /* \"Evm/core/monad/vaultDelegator.sol\":7439:7503  variablesRegistry.getActiveVariable(\"QiaraBaseAssets\", vaultKey) */\n      mload(0x40)\n      dup3\n      0xffffffff\n      and\n      0xe0\n      shl\n      dup2\n      mstore\n      0x04\n      add\n      tag_318\n      swap2\n      swap1\n      tag_319\n      jump\t// in\n    tag_318:\n      0x00\n      mload(0x40)\n      dup1\n      dup4\n      sub\n      dup2\n      dup7\n      gas\n      staticcall\n      iszero\n      dup1\n      iszero\n      tag_321\n      jumpi\n      returndatacopy(0x00, 0x00, returndatasize)\n      revert(0x00, returndatasize)\n    tag_321:\n      pop\n      pop\n      pop\n      pop\n      mload(0x40)\n      returndatasize\n      0x00\n      dup3\n      returndatacopy\n      returndatasize\n      not(0x1f)\n      0x1f\n      dup3\n      add\n      and\n      dup3\n      add\n      dup1\n      0x40\n      mstore\n      pop\n      dup2\n      add\n      swap1\n      tag_322\n      swap2\n      swap1\n      tag_323\n      jump\t// in\n    tag_322:\n        /* \"Evm/core/monad/vaultDelegator.sol\":7413:7503  bytes memory vaultBytes = variablesRegistry.getActiveVariable(\"QiaraBaseAssets\", vaultKey) */\n      swap1\n      pop\n        /* \"Evm/core/monad/vaultDelegator.sol\":7544:7545  0 */\n      0x00\n        /* \"Evm/core/monad/vaultDelegator.sol\":7524:7534  vaultBytes */\n      dup2\n        /* \"Evm/core/monad/vaultDelegator.sol\":7524:7541  vaultBytes.length */\n      mload\n        /* \"Evm/core/monad/vaultDelegator.sol\":7524:7545  vaultBytes.length > 0 */\n      gt\n        /* \"Evm/core/monad/vaultDelegator.sol\":7516:7570  require(vaultBytes.length > 0, \"Vault not authorized\") */\n      tag_324\n      jumpi\n      mload(0x40)\n      0x08c379a000000000000000000000000000000000000000000000000000000000\n      dup2\n      mstore\n      0x04\n      add\n      tag_325\n      swap1\n      tag_326\n      jump\t// in\n    tag_325:\n      mload(0x40)\n      dup1\n      swap2\n      sub\n      swap1\n      revert\n    tag_324:\n        /* \"Evm/core/monad/vaultDelegator.sol\":7606:7616  vaultBytes */\n      dup1\n        /* \"Evm/core/monad/vaultDelegator.sol\":7595:7628  abi.decode(vaultBytes, (address)) */\n      dup1\n      0x20\n      add\n      swap1\n      mload\n      dup2\n      add\n      swap1\n      tag_327\n      swap2\n      swap1\n      tag_328\n      jump\t// in\n    tag_327:\n        /* \"Evm/core/monad/vaultDelegator.sol\":7583:7628  vaultAddr = abi.decode(vaultBytes, (address)) */\n      swap7\n      pop\n        /* \"Evm/core/monad/vaultDelegator.sol\":6973:7636  {... */\n      pop\n      pop\n      pop\n      pop\n      pop\n        /* \"Evm/core/monad/vaultDelegator.sol\":6831:7636  function _prepareWithdrawal(uint[8] calldata _pubSignals) internal view returns (uint256 amount, address vaultAddr, string memory storageName){... */\n      swap2\n      swap4\n      swap1\n      swap3\n      pop\n      jump\t// out\n        /* \"@openzeppelin/contracts/utils/Context.sol\":656:752  function _msgSender() internal view virtual returns (address) {... */\n    tag_282:\n        /* \"@openzeppelin/contracts/utils/Context.sol\":709:716  address */\n      0x00\n        /* \"@openzeppelin/contracts/utils/Context.sol\":735:745  msg.sender */\n      caller\n        /* \"@openzeppelin/contracts/utils/Context.sol\":728:745  return msg.sender */\n      swap1\n      pop\n        /* \"@openzeppelin/contracts/utils/Context.sol\":656:752  function _msgSender() internal view virtual returns (address) {... */\n      swap1\n      jump\t// out\n        /* \"#utility.yul\":7:82   */\n    tag_330:\n        /* \"#utility.yul\":40:46   */\n      0x00\n        /* \"#utility.yul\":73:75   */\n      0x40\n        /* \"#utility.yul\":67:76   */\n      mload\n        /* \"#utility.yul\":57:76   */\n      swap1\n      pop\n        /* \"#utility.yul\":7:82   */\n      swap1\n      jump\t// out\n        /* \"#utility.yul\":88:205   */\n    tag_331:\n        /* \"#utility.yul\":197:198   */\n      0x00\n        /* \"#utility.yul\":194:195   */\n      0x00\n        /* \"#utility.yul\":187:199   */\n      revert\n        /* \"#utility.yul\":211:328   */\n    tag_332:\n        /* \"#utility.yul\":320:321   */\n      0x00\n        /* \"#utility.yul\":317:318   */\n      0x00\n        /* \"#utility.yul\":310:322   */\n      revert\n        /* \"#utility.yul\":334:451   */\n    tag_333:\n        /* \"#utility.yul\":443:444   */\n      0x00\n        /* \"#utility.yul\":440:441   */\n      0x00\n        /* \"#utility.yul\":433:445   */\n      revert\n        /* \"#utility.yul\":475:724   */\n    tag_334:\n        /* \"#utility.yul\":546:554   */\n      0x00\n        /* \"#utility.yul\":577:583   */\n      dup2\n        /* \"#utility.yul\":565:583   */\n      swap1\n      pop\n        /* \"#utility.yul\":630:633   */\n      dup3\n        /* \"#utility.yul\":622:626   */\n      0x20\n        /* \"#utility.yul\":616:620   */\n      0x02\n        /* \"#utility.yul\":612:627   */\n      mul\n        /* \"#utility.yul\":602:610   */\n      dup3\n        /* \"#utility.yul\":598:628   */\n      add\n        /* \"#utility.yul\":595:634   */\n      gt\n        /* \"#utility.yul\":592:718   */\n      iszero\n      tag_445\n      jumpi\n        /* \"#utility.yul\":637:716   */\n      tag_446\n      tag_333\n      jump\t// in\n    tag_446:\n        /* \"#utility.yul\":592:718   */\n    tag_445:\n        /* \"#utility.yul\":475:724   */\n      swap3\n      swap2\n      pop\n      pop\n      jump\t// out\n        /* \"#utility.yul\":751:1025   */\n    tag_335:\n        /* \"#utility.yul\":847:855   */\n      0x00\n        /* \"#utility.yul\":878:884   */\n      dup2\n        /* \"#utility.yul\":866:884   */\n      swap1\n      pop\n        /* \"#utility.yul\":931:934   */\n      dup3\n        /* \"#utility.yul\":923:927   */\n      0x40\n        /* \"#utility.yul\":917:921   */\n      0x02\n        /* \"#utility.yul\":913:928   */\n      mul\n        /* \"#utility.yul\":903:911   */\n      dup3\n        /* \"#utility.yul\":899:929   */\n      add\n        /* \"#utility.yul\":896:935   */\n      gt\n        /* \"#utility.yul\":893:1019   */\n      iszero\n      tag_448\n      jumpi\n        /* \"#utility.yul\":938:1017   */\n      tag_449\n      tag_333\n      jump\t// in\n    tag_449:\n        /* \"#utility.yul\":893:1019   */\n    tag_448:\n        /* \"#utility.yul\":751:1025   */\n      swap3\n      swap2\n      pop\n      pop\n      jump\t// out\n        /* \"#utility.yul\":1049:1298   */\n    tag_336:\n        /* \"#utility.yul\":1120:1128   */\n      0x00\n        /* \"#utility.yul\":1151:1157   */\n      dup2\n        /* \"#utility.yul\":1139:1157   */\n      swap1\n      pop\n        /* \"#utility.yul\":1204:1207   */\n      dup3\n        /* \"#utility.yul\":1196:1200   */\n      0x20\n        /* \"#utility.yul\":1190:1194   */\n      0x06\n        /* \"#utility.yul\":1186:1201   */\n      mul\n        /* \"#utility.yul\":1176:1184   */\n      dup3\n        /* \"#utility.yul\":1172:1202   */\n      add\n        /* \"#utility.yul\":1169:1208   */\n      gt\n        /* \"#utility.yul\":1166:1292   */\n      iszero\n      tag_451\n      jumpi\n        /* \"#utility.yul\":1211:1290   */\n      tag_452\n      tag_333\n      jump\t// in\n    tag_452:\n        /* \"#utility.yul\":1166:1292   */\n    tag_451:\n        /* \"#utility.yul\":1049:1298   */\n      swap3\n      swap2\n      pop\n      pop\n      jump\t// out\n        /* \"#utility.yul\":1304:1421   */\n    tag_337:\n        /* \"#utility.yul\":1413:1414   */\n      0x00\n        /* \"#utility.yul\":1410:1411   */\n      0x00\n        /* \"#utility.yul\":1403:1415   */\n      revert\n        /* \"#utility.yul\":1427:1544   */\n    tag_338:\n        /* \"#utility.yul\":1536:1537   */\n      0x00\n        /* \"#utility.yul\":1533:1534   */\n      0x00\n        /* \"#utility.yul\":1526:1538   */\n      revert\n        /* \"#utility.yul\":1567:2135   */\n    tag_339:\n        /* \"#utility.yul\":1640:1648   */\n      0x00\n        /* \"#utility.yul\":1650:1656   */\n      0x00\n        /* \"#utility.yul\":1700:1703   */\n      dup4\n        /* \"#utility.yul\":1693:1697   */\n      0x1f\n        /* \"#utility.yul\":1685:1691   */\n      dup5\n        /* \"#utility.yul\":1681:1698   */\n      add\n        /* \"#utility.yul\":1677:1704   */\n      slt\n        /* \"#utility.yul\":1667:1789   */\n      tag_456\n      jumpi\n        /* \"#utility.yul\":1708:1787   */\n      tag_457\n      tag_337\n      jump\t// in\n    tag_457:\n        /* \"#utility.yul\":1667:1789   */\n    tag_456:\n        /* \"#utility.yul\":1821:1827   */\n      dup3\n        /* \"#utility.yul\":1808:1828   */\n      calldataload\n        /* \"#utility.yul\":1798:1828   */\n      swap1\n      pop\n        /* \"#utility.yul\":1851:1869   */\n      0xffffffffffffffff\n        /* \"#utility.yul\":1843:1849   */\n      dup2\n        /* \"#utility.yul\":1840:1870   */\n      gt\n        /* \"#utility.yul\":1837:1954   */\n      iszero\n      tag_458\n      jumpi\n        /* \"#utility.yul\":1873:1952   */\n      tag_459\n      tag_338\n      jump\t// in\n    tag_459:\n        /* \"#utility.yul\":1837:1954   */\n    tag_458:\n        /* \"#utility.yul\":1987:1991   */\n      0x20\n        /* \"#utility.yul\":1979:1985   */\n      dup4\n        /* \"#utility.yul\":1975:1992   */\n      add\n        /* \"#utility.yul\":1963:1992   */\n      swap2\n      pop\n        /* \"#utility.yul\":2041:2044   */\n      dup4\n        /* \"#utility.yul\":2033:2037   */\n      0x20\n        /* \"#utility.yul\":2025:2031   */\n      dup3\n        /* \"#utility.yul\":2021:2038   */\n      mul\n        /* \"#utility.yul\":2011:2019   */\n      dup4\n        /* \"#utility.yul\":2007:2039   */\n      add\n        /* \"#utility.yul\":2004:2045   */\n      gt\n        /* \"#utility.yul\":2001:2129   */\n      iszero\n      tag_460\n      jumpi\n        /* \"#utility.yul\":2048:2127   */\n      tag_461\n      tag_333\n      jump\t// in\n    tag_461:\n        /* \"#utility.yul\":2001:2129   */\n    tag_460:\n        /* \"#utility.yul\":1567:2135   */\n      swap3\n      pop\n      swap3\n      swap1\n      pop\n      jump\t// out\n        /* \"#utility.yul\":2154:2706   */\n    tag_340:\n        /* \"#utility.yul\":2211:2219   */\n      0x00\n        /* \"#utility.yul\":2221:2227   */\n      0x00\n        /* \"#utility.yul\":2271:2274   */\n      dup4\n        /* \"#utility.yul\":2264:2268   */\n      0x1f\n        /* \"#utility.yul\":2256:2262   */\n      dup5\n        /* \"#utility.yul\":2252:2269   */\n      add\n        /* \"#utility.yul\":2248:2275   */\n      slt\n        /* \"#utility.yul\":2238:2360   */\n      tag_463\n      jumpi\n        /* \"#utility.yul\":2279:2358   */\n      tag_464\n      tag_337\n      jump\t// in\n    tag_464:\n        /* \"#utility.yul\":2238:2360   */\n    tag_463:\n        /* \"#utility.yul\":2392:2398   */\n      dup3\n        /* \"#utility.yul\":2379:2399   */\n      calldataload\n        /* \"#utility.yul\":2369:2399   */\n      swap1\n      pop\n        /* \"#utility.yul\":2422:2440   */\n      0xffffffffffffffff\n        /* \"#utility.yul\":2414:2420   */\n      dup2\n        /* \"#utility.yul\":2411:2441   */\n      gt\n        /* \"#utility.yul\":2408:2525   */\n      iszero\n      tag_465\n      jumpi\n        /* \"#utility.yul\":2444:2523   */\n      tag_466\n      tag_338\n      jump\t// in\n    tag_466:\n        /* \"#utility.yul\":2408:2525   */\n    tag_465:\n        /* \"#utility.yul\":2558:2562   */\n      0x20\n        /* \"#utility.yul\":2550:2556   */\n      dup4\n        /* \"#utility.yul\":2546:2563   */\n      add\n        /* \"#utility.yul\":2534:2563   */\n      swap2\n      pop\n        /* \"#utility.yul\":2612:2615   */\n      dup4\n        /* \"#utility.yul\":2604:2608   */\n      0x01\n        /* \"#utility.yul\":2596:2602   */\n      dup3\n        /* \"#utility.yul\":2592:2609   */\n      mul\n        /* \"#utility.yul\":2582:2590   */\n      dup4\n        /* \"#utility.yul\":2578:2610   */\n      add\n        /* \"#utility.yul\":2575:2616   */\n      gt\n        /* \"#utility.yul\":2572:2700   */\n      iszero\n      tag_467\n      jumpi\n        /* \"#utility.yul\":2619:2698   */\n      tag_468\n      tag_333\n      jump\t// in\n    tag_468:\n        /* \"#utility.yul\":2572:2700   */\n    tag_467:\n        /* \"#utility.yul\":2154:2706   */\n      swap3\n      pop\n      swap3\n      swap1\n      pop\n      jump\t// out\n        /* \"#utility.yul\":2712:4449   */\n    tag_25:\n        /* \"#utility.yul\":2979:2985   */\n      0x00\n        /* \"#utility.yul\":2987:2993   */\n      0x00\n        /* \"#utility.yul\":2995:3001   */\n      0x00\n        /* \"#utility.yul\":3003:3009   */\n      0x00\n        /* \"#utility.yul\":3011:3017   */\n      0x00\n        /* \"#utility.yul\":3019:3025   */\n      0x00\n        /* \"#utility.yul\":3027:3033   */\n      0x00\n        /* \"#utility.yul\":3035:3041   */\n      0x00\n        /* \"#utility.yul\":3084:3087   */\n      0x0200\n        /* \"#utility.yul\":3072:3081   */\n      dup10\n        /* \"#utility.yul\":3063:3070   */\n      dup12\n        /* \"#utility.yul\":3059:3082   */\n      sub\n        /* \"#utility.yul\":3055:3088   */\n      slt\n        /* \"#utility.yul\":3052:3172   */\n      iszero\n      tag_470\n      jumpi\n        /* \"#utility.yul\":3091:3170   */\n      tag_471\n      tag_331\n      jump\t// in\n    tag_471:\n        /* \"#utility.yul\":3052:3172   */\n    tag_470:\n        /* \"#utility.yul\":3211:3212   */\n      0x00\n        /* \"#utility.yul\":3236:3314   */\n      tag_472\n        /* \"#utility.yul\":3306:3313   */\n      dup12\n        /* \"#utility.yul\":3297:3303   */\n      dup3\n        /* \"#utility.yul\":3286:3295   */\n      dup13\n        /* \"#utility.yul\":3282:3304   */\n      add\n        /* \"#utility.yul\":3236:3314   */\n      tag_334\n      jump\t// in\n    tag_472:\n        /* \"#utility.yul\":3226:3314   */\n      swap9\n      pop\n        /* \"#utility.yul\":3182:3324   */\n      pop\n        /* \"#utility.yul\":3363:3365   */\n      0x40\n        /* \"#utility.yul\":3389:3492   */\n      tag_473\n        /* \"#utility.yul\":3484:3491   */\n      dup12\n        /* \"#utility.yul\":3475:3481   */\n      dup3\n        /* \"#utility.yul\":3464:3473   */\n      dup13\n        /* \"#utility.yul\":3460:3482   */\n      add\n        /* \"#utility.yul\":3389:3492   */\n      tag_335\n      jump\t// in\n    tag_473:\n        /* \"#utility.yul\":3379:3492   */\n      swap8\n      pop\n        /* \"#utility.yul\":3334:3502   */\n      pop\n        /* \"#utility.yul\":3541:3544   */\n      0xc0\n        /* \"#utility.yul\":3568:3646   */\n      tag_474\n        /* \"#utility.yul\":3638:3645   */\n      dup12\n        /* \"#utility.yul\":3629:3635   */\n      dup3\n        /* \"#utility.yul\":3618:3627   */\n      dup13\n        /* \"#utility.yul\":3614:3636   */\n      add\n        /* \"#utility.yul\":3568:3646   */\n      tag_334\n      jump\t// in\n    tag_474:\n        /* \"#utility.yul\":3558:3646   */\n      swap7\n      pop\n        /* \"#utility.yul\":3512:3656   */\n      pop\n        /* \"#utility.yul\":3695:3698   */\n      0x0100\n        /* \"#utility.yul\":3722:3800   */\n      tag_475\n        /* \"#utility.yul\":3792:3799   */\n      dup12\n        /* \"#utility.yul\":3783:3789   */\n      dup3\n        /* \"#utility.yul\":3772:3781   */\n      dup13\n        /* \"#utility.yul\":3768:3790   */\n      add\n        /* \"#utility.yul\":3722:3800   */\n      tag_336\n      jump\t// in\n    tag_475:\n        /* \"#utility.yul\":3712:3800   */\n      swap6\n      pop\n        /* \"#utility.yul\":3666:3810   */\n      pop\n        /* \"#utility.yul\":3877:3880   */\n      0x01c0\n        /* \"#utility.yul\":3866:3875   */\n      dup10\n        /* \"#utility.yul\":3862:3881   */\n      add\n        /* \"#utility.yul\":3849:3882   */\n      calldataload\n        /* \"#utility.yul\":3909:3927   */\n      0xffffffffffffffff\n        /* \"#utility.yul\":3901:3907   */\n      dup2\n        /* \"#utility.yul\":3898:3928   */\n      gt\n        /* \"#utility.yul\":3895:4012   */\n      iszero\n      tag_476\n      jumpi\n        /* \"#utility.yul\":3931:4010   */\n      tag_477\n      tag_332\n      jump\t// in\n    tag_477:\n        /* \"#utility.yul\":3895:4012   */\n    tag_476:\n        /* \"#utility.yul\":4044:4124   */\n      tag_478\n        /* \"#utility.yul\":4116:4123   */\n      dup12\n        /* \"#utility.yul\":4107:4113   */\n      dup3\n        /* \"#utility.yul\":4096:4105   */\n      dup13\n        /* \"#utility.yul\":4092:4114   */\n      add\n        /* \"#utility.yul\":4044:4124   */\n      tag_339\n      jump\t// in\n    tag_478:\n        /* \"#utility.yul\":4026:4124   */\n      swap5\n      pop\n      swap5\n      pop\n        /* \"#utility.yul\":3820:4134   */\n      pop\n        /* \"#utility.yul\":4201:4204   */\n      0x01e0\n        /* \"#utility.yul\":4190:4199   */\n      dup10\n        /* \"#utility.yul\":4186:4205   */\n      add\n        /* \"#utility.yul\":4173:4206   */\n      calldataload\n        /* \"#utility.yul\":4233:4251   */\n      0xffffffffffffffff\n        /* \"#utility.yul\":4225:4231   */\n      dup2\n        /* \"#utility.yul\":4222:4252   */\n      gt\n        /* \"#utility.yul\":4219:4336   */\n      iszero\n      tag_479\n      jumpi\n        /* \"#utility.yul\":4255:4334   */\n      tag_480\n      tag_332\n      jump\t// in\n    tag_480:\n        /* \"#utility.yul\":4219:4336   */\n    tag_479:\n        /* \"#utility.yul\":4368:4432   */\n      tag_481\n        /* \"#utility.yul\":4424:4431   */\n      dup12\n        /* \"#utility.yul\":4415:4421   */\n      dup3\n        /* \"#utility.yul\":4404:4413   */\n      dup13\n        /* \"#utility.yul\":4400:4422   */\n      add\n        /* \"#utility.yul\":4368:4432   */\n      tag_340\n      jump\t// in\n    tag_481:\n        /* \"#utility.yul\":4350:4432   */\n      swap3\n      pop\n      swap3\n      pop\n        /* \"#utility.yul\":4144:4442   */\n      pop\n        /* \"#utility.yul\":2712:4449   */\n      swap3\n      swap6\n      swap9\n      pop\n      swap3\n      swap6\n      swap9\n      swap1\n      swap4\n      swap7\n      pop\n      jump\t// out\n        /* \"#utility.yul\":4455:4532   */\n    tag_341:\n        /* \"#utility.yul\":4492:4499   */\n      0x00\n        /* \"#utility.yul\":4521:4526   */\n      dup2\n        /* \"#utility.yul\":4510:4526   */\n      swap1\n      pop\n        /* \"#utility.yul\":4455:4532   */\n      swap2\n      swap1\n      pop\n      jump\t// out\n        /* \"#utility.yul\":4538:4660   */\n    tag_342:\n        /* \"#utility.yul\":4611:4635   */\n      tag_484\n        /* \"#utility.yul\":4629:4634   */\n      dup2\n        /* \"#utility.yul\":4611:4635   */\n      tag_341\n      jump\t// in\n    tag_484:\n        /* \"#utility.yul\":4604:4609   */\n      dup2\n        /* \"#utility.yul\":4601:4636   */\n      eq\n        /* \"#utility.yul\":4591:4654   */\n      tag_485\n      jumpi\n        /* \"#utility.yul\":4650:4651   */\n      0x00\n        /* \"#utility.yul\":4647:4648   */\n      0x00\n        /* \"#utility.yul\":4640:4652   */\n      revert\n        /* \"#utility.yul\":4591:4654   */\n    tag_485:\n        /* \"#utility.yul\":4538:4660   */\n      pop\n      jump\t// out\n        /* \"#utility.yul\":4666:4805   */\n    tag_343:\n        /* \"#utility.yul\":4712:4717   */\n      0x00\n        /* \"#utility.yul\":4750:4756   */\n      dup2\n        /* \"#utility.yul\":4737:4757   */\n      calldataload\n        /* \"#utility.yul\":4728:4757   */\n      swap1\n      pop\n        /* \"#utility.yul\":4766:4799   */\n      tag_487\n        /* \"#utility.yul\":4793:4798   */\n      dup2\n        /* \"#utility.yul\":4766:4799   */\n      tag_342\n      jump\t// in\n    tag_487:\n        /* \"#utility.yul\":4666:4805   */\n      swap3\n      swap2\n      pop\n      pop\n      jump\t// out\n        /* \"#utility.yul\":4811:5140   */\n    tag_29:\n        /* \"#utility.yul\":4870:4876   */\n      0x00\n        /* \"#utility.yul\":4919:4921   */\n      0x20\n        /* \"#utility.yul\":4907:4916   */\n      dup3\n        /* \"#utility.yul\":4898:4905   */\n      dup5\n        /* \"#utility.yul\":4894:4917   */\n      sub\n        /* \"#utility.yul\":4890:4922   */\n      slt\n        /* \"#utility.yul\":4887:5006   */\n      iszero\n      tag_489\n      jumpi\n        /* \"#utility.yul\":4925:5004   */\n      tag_490\n      tag_331\n      jump\t// in\n    tag_490:\n        /* \"#utility.yul\":4887:5006   */\n    tag_489:\n        /* \"#utility.yul\":5045:5046   */\n      0x00\n        /* \"#utility.yul\":5070:5123   */\n      tag_491\n        /* \"#utility.yul\":5115:5122   */\n      dup5\n        /* \"#utility.yul\":5106:5112   */\n      dup3\n        /* \"#utility.yul\":5095:5104   */\n      dup6\n        /* \"#utility.yul\":5091:5113   */\n      add\n        /* \"#utility.yul\":5070:5123   */\n      tag_343\n      jump\t// in\n    tag_491:\n        /* \"#utility.yul\":5060:5123   */\n      swap2\n      pop\n        /* \"#utility.yul\":5016:5133   */\n      pop\n        /* \"#utility.yul\":4811:5140   */\n      swap3\n      swap2\n      pop\n      pop\n      jump\t// out\n        /* \"#utility.yul\":5146:5244   */\n    tag_344:\n        /* \"#utility.yul\":5197:5203   */\n      0x00\n        /* \"#utility.yul\":5231:5236   */\n      dup2\n        /* \"#utility.yul\":5225:5237   */\n      mload\n        /* \"#utility.yul\":5215:5237   */\n      swap1\n      pop\n        /* \"#utility.yul\":5146:5244   */\n      swap2\n      swap1\n      pop\n      jump\t// out\n        /* \"#utility.yul\":5250:5418   */\n    tag_345:\n        /* \"#utility.yul\":5333:5344   */\n      0x00\n        /* \"#utility.yul\":5367:5373   */\n      dup3\n        /* \"#utility.yul\":5362:5365   */\n      dup3\n        /* \"#utility.yul\":5355:5374   */\n      mstore\n        /* \"#utility.yul\":5407:5411   */\n      0x20\n        /* \"#utility.yul\":5402:5405   */\n      dup3\n        /* \"#utility.yul\":5398:5412   */\n      add\n        /* \"#utility.yul\":5383:5412   */\n      swap1\n      pop\n        /* \"#utility.yul\":5250:5418   */\n      swap3\n      swap2\n      pop\n      pop\n      jump\t// out\n        /* \"#utility.yul\":5424:5563   */\n    tag_346:\n        /* \"#utility.yul\":5513:5519   */\n      dup3\n        /* \"#utility.yul\":5508:5511   */\n      dup2\n        /* \"#utility.yul\":5503:5506   */\n      dup4\n        /* \"#utility.yul\":5497:5520   */\n      mcopy\n        /* \"#utility.yul\":5554:5555   */\n      0x00\n        /* \"#utility.yul\":5545:5551   */\n      dup4\n        /* \"#utility.yul\":5540:5543   */\n      dup4\n        /* \"#utility.yul\":5536:5552   */\n      add\n        /* \"#utility.yul\":5529:5556   */\n      mstore\n        /* \"#utility.yul\":5424:5563   */\n      pop\n      pop\n      pop\n      jump\t// out\n        /* \"#utility.yul\":5569:5671   */\n    tag_347:\n        /* \"#utility.yul\":5610:5616   */\n      0x00\n        /* \"#utility.yul\":5661:5663   */\n      0x1f\n        /* \"#utility.yul\":5657:5664   */\n      not\n        /* \"#utility.yul\":5652:5654   */\n      0x1f\n        /* \"#utility.yul\":5645:5650   */\n      dup4\n        /* \"#utility.yul\":5641:5655   */\n      add\n        /* \"#utility.yul\":5637:5665   */\n      and\n        /* \"#utility.yul\":5627:5665   */\n      swap1\n      pop\n        /* \"#utility.yul\":5569:5671   */\n      swap2\n      swap1\n      pop\n      jump\t// out\n        /* \"#utility.yul\":5677:6050   */\n    tag_348:\n        /* \"#utility.yul\":5763:5766   */\n      0x00\n        /* \"#utility.yul\":5791:5829   */\n      tag_497\n        /* \"#utility.yul\":5823:5828   */\n      dup3\n        /* \"#utility.yul\":5791:5829   */\n      tag_344\n      jump\t// in\n    tag_497:\n        /* \"#utility.yul\":5845:5915   */\n      tag_498\n        /* \"#utility.yul\":5908:5914   */\n      dup2\n        /* \"#utility.yul\":5903:5906   */\n      dup6\n        /* \"#utility.yul\":5845:5915   */\n      tag_345\n      jump\t// in\n    tag_498:\n        /* \"#utility.yul\":5838:5915   */\n      swap4\n      pop\n        /* \"#utility.yul\":5924:5989   */\n      tag_499\n        /* \"#utility.yul\":5982:5988   */\n      dup2\n        /* \"#utility.yul\":5977:5980   */\n      dup6\n        /* \"#utility.yul\":5970:5974   */\n      0x20\n        /* \"#utility.yul\":5963:5968   */\n      dup7\n        /* \"#utility.yul\":5959:5975   */\n      add\n        /* \"#utility.yul\":5924:5989   */\n      tag_346\n      jump\t// in\n    tag_499:\n        /* \"#utility.yul\":6014:6043   */\n      tag_500\n        /* \"#utility.yul\":6036:6042   */\n      dup2\n        /* \"#utility.yul\":6014:6043   */\n      tag_347\n      jump\t// in\n    tag_500:\n        /* \"#utility.yul\":6009:6012   */\n      dup5\n        /* \"#utility.yul\":6005:6044   */\n      add\n        /* \"#utility.yul\":5998:6044   */\n      swap2\n      pop\n        /* \"#utility.yul\":5767:6050   */\n      pop\n        /* \"#utility.yul\":5677:6050   */\n      swap3\n      swap2\n      pop\n      pop\n      jump\t// out\n        /* \"#utility.yul\":6056:6365   */\n    tag_32:\n        /* \"#utility.yul\":6167:6171   */\n      0x00\n        /* \"#utility.yul\":6205:6207   */\n      0x20\n        /* \"#utility.yul\":6194:6203   */\n      dup3\n        /* \"#utility.yul\":6190:6208   */\n      add\n        /* \"#utility.yul\":6182:6208   */\n      swap1\n      pop\n        /* \"#utility.yul\":6254:6263   */\n      dup2\n        /* \"#utility.yul\":6248:6252   */\n      dup2\n        /* \"#utility.yul\":6244:6264   */\n      sub\n        /* \"#utility.yul\":6240:6241   */\n      0x00\n        /* \"#utility.yul\":6229:6238   */\n      dup4\n        /* \"#utility.yul\":6225:6242   */\n      add\n        /* \"#utility.yul\":6218:6265   */\n      mstore\n        /* \"#utility.yul\":6282:6358   */\n      tag_502\n        /* \"#utility.yul\":6353:6357   */\n      dup2\n        /* \"#utility.yul\":6344:6350   */\n      dup5\n        /* \"#utility.yul\":6282:6358   */\n      tag_348\n      jump\t// in\n    tag_502:\n        /* \"#utility.yul\":6274:6358   */\n      swap1\n      pop\n        /* \"#utility.yul\":6056:6365   */\n      swap3\n      swap2\n      pop\n      pop\n      jump\t// out\n        /* \"#utility.yul\":6371:6497   */\n    tag_349:\n        /* \"#utility.yul\":6408:6415   */\n      0x00\n        /* \"#utility.yul\":6448:6490   */\n      0xffffffffffffffffffffffffffffffffffffffff\n        /* \"#utility.yul\":6441:6446   */\n      dup3\n        /* \"#utility.yul\":6437:6491   */\n      and\n        /* \"#utility.yul\":6426:6491   */\n      swap1\n      pop\n        /* \"#utility.yul\":6371:6497   */\n      swap2\n      swap1\n      pop\n      jump\t// out\n        /* \"#utility.yul\":6503:6563   */\n    tag_350:\n        /* \"#utility.yul\":6531:6534   */\n      0x00\n        /* \"#utility.yul\":6552:6557   */\n      dup2\n        /* \"#utility.yul\":6545:6557   */\n      swap1\n      pop\n        /* \"#utility.yul\":6503:6563   */\n      swap2\n      swap1\n      pop\n      jump\t// out\n        /* \"#utility.yul\":6569:6711   */\n    tag_351:\n        /* \"#utility.yul\":6619:6628   */\n      0x00\n        /* \"#utility.yul\":6652:6705   */\n      tag_506\n        /* \"#utility.yul\":6670:6704   */\n      tag_507\n        /* \"#utility.yul\":6679:6703   */\n      tag_508\n        /* \"#utility.yul\":6697:6702   */\n      dup5\n        /* \"#utility.yul\":6679:6703   */\n      tag_349\n      jump\t// in\n    tag_508:\n        /* \"#utility.yul\":6670:6704   */\n      tag_350\n      jump\t// in\n    tag_507:\n        /* \"#utility.yul\":6652:6705   */\n      tag_349\n      jump\t// in\n    tag_506:\n        /* \"#utility.yul\":6639:6705   */\n      swap1\n      pop\n        /* \"#utility.yul\":6569:6711   */\n      swap2\n      swap1\n      pop\n      jump\t// out\n        /* \"#utility.yul\":6717:6843   */\n    tag_352:\n        /* \"#utility.yul\":6767:6776   */\n      0x00\n        /* \"#utility.yul\":6800:6837   */\n      tag_510\n        /* \"#utility.yul\":6831:6836   */\n      dup3\n        /* \"#utility.yul\":6800:6837   */\n      tag_351\n      jump\t// in\n    tag_510:\n        /* \"#utility.yul\":6787:6837   */\n      swap1\n      pop\n        /* \"#utility.yul\":6717:6843   */\n      swap2\n      swap1\n      pop\n      jump\t// out\n        /* \"#utility.yul\":6849:7000   */\n    tag_353:\n        /* \"#utility.yul\":6924:6933   */\n      0x00\n        /* \"#utility.yul\":6957:6994   */\n      tag_512\n        /* \"#utility.yul\":6988:6993   */\n      dup3\n        /* \"#utility.yul\":6957:6994   */\n      tag_352\n      jump\t// in\n    tag_512:\n        /* \"#utility.yul\":6944:6994   */\n      swap1\n      pop\n        /* \"#utility.yul\":6849:7000   */\n      swap2\n      swap1\n      pop\n      jump\t// out\n        /* \"#utility.yul\":7006:7187   */\n    tag_354:\n        /* \"#utility.yul\":7118:7180   */\n      tag_514\n        /* \"#utility.yul\":7174:7179   */\n      dup2\n        /* \"#utility.yul\":7118:7180   */\n      tag_353\n      jump\t// in\n    tag_514:\n        /* \"#utility.yul\":7113:7116   */\n      dup3\n        /* \"#utility.yul\":7106:7181   */\n      mstore\n        /* \"#utility.yul\":7006:7187   */\n      pop\n      pop\n      jump\t// out\n        /* \"#utility.yul\":7193:7465   */\n    tag_36:\n        /* \"#utility.yul\":7311:7315   */\n      0x00\n        /* \"#utility.yul\":7349:7351   */\n      0x20\n        /* \"#utility.yul\":7338:7347   */\n      dup3\n        /* \"#utility.yul\":7334:7352   */\n      add\n        /* \"#utility.yul\":7326:7352   */\n      swap1\n      pop\n        /* \"#utility.yul\":7362:7458   */\n      tag_516\n        /* \"#utility.yul\":7455:7456   */\n      0x00\n        /* \"#utility.yul\":7444:7453   */\n      dup4\n        /* \"#utility.yul\":7440:7457   */\n      add\n        /* \"#utility.yul\":7431:7437   */\n      dup5\n        /* \"#utility.yul\":7362:7458   */\n      tag_354\n      jump\t// in\n    tag_516:\n        /* \"#utility.yul\":7193:7465   */\n      swap3\n      swap2\n      pop\n      pop\n      jump\t// out\n        /* \"#utility.yul\":7471:7567   */\n    tag_355:\n        /* \"#utility.yul\":7508:7515   */\n      0x00\n        /* \"#utility.yul\":7537:7561   */\n      tag_518\n        /* \"#utility.yul\":7555:7560   */\n      dup3\n        /* \"#utility.yul\":7537:7561   */\n      tag_349\n      jump\t// in\n    tag_518:\n        /* \"#utility.yul\":7526:7561   */\n      swap1\n      pop\n        /* \"#utility.yul\":7471:7567   */\n      swap2\n      swap1\n      pop\n      jump\t// out\n        /* \"#utility.yul\":7573:7691   */\n    tag_356:\n        /* \"#utility.yul\":7660:7684   */\n      tag_520\n        /* \"#utility.yul\":7678:7683   */\n      dup2\n        /* \"#utility.yul\":7660:7684   */\n      tag_355\n      jump\t// in\n    tag_520:\n        /* \"#utility.yul\":7655:7658   */\n      dup3\n        /* \"#utility.yul\":7648:7685   */\n      mstore\n        /* \"#utility.yul\":7573:7691   */\n      pop\n      pop\n      jump\t// out\n        /* \"#utility.yul\":7697:7919   */\n    tag_43:\n        /* \"#utility.yul\":7790:7794   */\n      0x00\n        /* \"#utility.yul\":7828:7830   */\n      0x20\n        /* \"#utility.yul\":7817:7826   */\n      dup3\n        /* \"#utility.yul\":7813:7831   */\n      add\n        /* \"#utility.yul\":7805:7831   */\n      swap1\n      pop\n        /* \"#utility.yul\":7841:7912   */\n      tag_522\n        /* \"#utility.yul\":7909:7910   */\n      0x00\n        /* \"#utility.yul\":7898:7907   */\n      dup4\n        /* \"#utility.yul\":7894:7911   */\n      add\n        /* \"#utility.yul\":7885:7891   */\n      dup5\n        /* \"#utility.yul\":7841:7912   */\n      tag_356\n      jump\t// in\n    tag_522:\n        /* \"#utility.yul\":7697:7919   */\n      swap3\n      swap2\n      pop\n      pop\n      jump\t// out\n        /* \"#utility.yul\":7925:8002   */\n    tag_357:\n        /* \"#utility.yul\":7962:7969   */\n      0x00\n        /* \"#utility.yul\":7991:7996   */\n      dup2\n        /* \"#utility.yul\":7980:7996   */\n      swap1\n      pop\n        /* \"#utility.yul\":7925:8002   */\n      swap2\n      swap1\n      pop\n      jump\t// out\n        /* \"#utility.yul\":8008:8130   */\n    tag_358:\n        /* \"#utility.yul\":8081:8105   */\n      tag_525\n        /* \"#utility.yul\":8099:8104   */\n      dup2\n        /* \"#utility.yul\":8081:8105   */\n      tag_357\n      jump\t// in\n    tag_525:\n        /* \"#utility.yul\":8074:8079   */\n      dup2\n        /* \"#utility.yul\":8071:8106   */\n      eq\n        /* \"#utility.yul\":8061:8124   */\n      tag_526\n      jumpi\n        /* \"#utility.yul\":8120:8121   */\n      0x00\n        /* \"#utility.yul\":8117:8118   */\n      0x00\n        /* \"#utility.yul\":8110:8122   */\n      revert\n        /* \"#utility.yul\":8061:8124   */\n    tag_526:\n        /* \"#utility.yul\":8008:8130   */\n      pop\n      jump\t// out\n        /* \"#utility.yul\":8136:8275   */\n    tag_359:\n        /* \"#utility.yul\":8182:8187   */\n      0x00\n        /* \"#utility.yul\":8220:8226   */\n      dup2\n        /* \"#utility.yul\":8207:8227   */\n      calldataload\n        /* \"#utility.yul\":8198:8227   */\n      swap1\n      pop\n        /* \"#utility.yul\":8236:8269   */\n      tag_528\n        /* \"#utility.yul\":8263:8268   */\n      dup2\n        /* \"#utility.yul\":8236:8269   */\n      tag_358\n      jump\t// in\n    tag_528:\n        /* \"#utility.yul\":8136:8275   */\n      swap3\n      swap2\n      pop\n      pop\n      jump\t// out\n        /* \"#utility.yul\":8281:8398   */\n    tag_360:\n        /* \"#utility.yul\":8390:8391   */\n      0x00\n        /* \"#utility.yul\":8387:8388   */\n      0x00\n        /* \"#utility.yul\":8380:8392   */\n      revert\n        /* \"#utility.yul\":8404:8584   */\n    tag_166:\n        /* \"#utility.yul\":8452:8529   */\n      0x4e487b7100000000000000000000000000000000000000000000000000000000\n        /* \"#utility.yul\":8449:8450   */\n      0x00\n        /* \"#utility.yul\":8442:8530   */\n      mstore\n        /* \"#utility.yul\":8549:8553   */\n      0x41\n        /* \"#utility.yul\":8546:8547   */\n      0x04\n        /* \"#utility.yul\":8539:8554   */\n      mstore\n        /* \"#utility.yul\":8573:8577   */\n      0x24\n        /* \"#utility.yul\":8570:8571   */\n      0x00\n        /* \"#utility.yul\":8563:8578   */\n      revert\n        /* \"#utility.yul\":8590:8871   */\n    tag_361:\n        /* \"#utility.yul\":8673:8700   */\n      tag_532\n        /* \"#utility.yul\":8695:8699   */\n      dup3\n        /* \"#utility.yul\":8673:8700   */\n      tag_347\n      jump\t// in\n    tag_532:\n        /* \"#utility.yul\":8665:8671   */\n      dup2\n        /* \"#utility.yul\":8661:8701   */\n      add\n        /* \"#utility.yul\":8803:8809   */\n      dup2\n        /* \"#utility.yul\":8791:8801   */\n      dup2\n        /* \"#utility.yul\":8788:8810   */\n      lt\n        /* \"#utility.yul\":8767:8785   */\n      0xffffffffffffffff\n        /* \"#utility.yul\":8755:8765   */\n      dup3\n        /* \"#utility.yul\":8752:8786   */\n      gt\n        /* \"#utility.yul\":8749:8811   */\n      or\n        /* \"#utility.yul\":8746:8834   */\n      iszero\n      tag_533\n      jumpi\n        /* \"#utility.yul\":8814:8832   */\n      tag_534\n      tag_166\n      jump\t// in\n    tag_534:\n        /* \"#utility.yul\":8746:8834   */\n    tag_533:\n        /* \"#utility.yul\":8854:8864   */\n      dup1\n        /* \"#utility.yul\":8850:8852   */\n      0x40\n        /* \"#utility.yul\":8843:8865   */\n      mstore\n        /* \"#utility.yul\":8633:8871   */\n      pop\n        /* \"#utility.yul\":8590:8871   */\n      pop\n      pop\n      jump\t// out\n        /* \"#utility.yul\":8877:9006   */\n    tag_362:\n        /* \"#utility.yul\":8911:8917   */\n      0x00\n        /* \"#utility.yul\":8938:8958   */\n      tag_536\n      tag_330\n      jump\t// in\n    tag_536:\n        /* \"#utility.yul\":8928:8958   */\n      swap1\n      pop\n        /* \"#utility.yul\":8967:9000   */\n      tag_537\n        /* \"#utility.yul\":8995:8999   */\n      dup3\n        /* \"#utility.yul\":8987:8993   */\n      dup3\n        /* \"#utility.yul\":8967:9000   */\n      tag_361\n      jump\t// in\n    tag_537:\n        /* \"#utility.yul\":8877:9006   */\n      swap2\n      swap1\n      pop\n      jump\t// out\n        /* \"#utility.yul\":9012:9319   */\n    tag_363:\n        /* \"#utility.yul\":9073:9077   */\n      0x00\n        /* \"#utility.yul\":9163:9181   */\n      0xffffffffffffffff\n        /* \"#utility.yul\":9155:9161   */\n      dup3\n        /* \"#utility.yul\":9152:9182   */\n      gt\n        /* \"#utility.yul\":9149:9205   */\n      iszero\n      tag_539\n      jumpi\n        /* \"#utility.yul\":9185:9203   */\n      tag_540\n      tag_166\n      jump\t// in\n    tag_540:\n        /* \"#utility.yul\":9149:9205   */\n    tag_539:\n        /* \"#utility.yul\":9223:9252   */\n      tag_541\n        /* \"#utility.yul\":9245:9251   */\n      dup3\n        /* \"#utility.yul\":9223:9252   */\n      tag_347\n      jump\t// in\n    tag_541:\n        /* \"#utility.yul\":9215:9252   */\n      swap1\n      pop\n        /* \"#utility.yul\":9307:9311   */\n      0x20\n        /* \"#utility.yul\":9301:9305   */\n      dup2\n        /* \"#utility.yul\":9297:9312   */\n      add\n        /* \"#utility.yul\":9289:9312   */\n      swap1\n      pop\n        /* \"#utility.yul\":9012:9319   */\n      swap2\n      swap1\n      pop\n      jump\t// out\n        /* \"#utility.yul\":9325:9473   */\n    tag_364:\n        /* \"#utility.yul\":9423:9429   */\n      dup3\n        /* \"#utility.yul\":9418:9421   */\n      dup2\n        /* \"#utility.yul\":9413:9416   */\n      dup4\n        /* \"#utility.yul\":9400:9430   */\n      calldatacopy\n        /* \"#utility.yul\":9464:9465   */\n      0x00\n        /* \"#utility.yul\":9455:9461   */\n      dup4\n        /* \"#utility.yul\":9450:9453   */\n      dup4\n        /* \"#utility.yul\":9446:9462   */\n      add\n        /* \"#utility.yul\":9439:9466   */\n      mstore\n        /* \"#utility.yul\":9325:9473   */\n      pop\n      pop\n      pop\n      jump\t// out\n        /* \"#utility.yul\":9479:9902   */\n    tag_365:\n        /* \"#utility.yul\":9556:9561   */\n      0x00\n        /* \"#utility.yul\":9581:9646   */\n      tag_544\n        /* \"#utility.yul\":9597:9645   */\n      tag_545\n        /* \"#utility.yul\":9638:9644   */\n      dup5\n        /* \"#utility.yul\":9597:9645   */\n      tag_363\n      jump\t// in\n    tag_545:\n        /* \"#utility.yul\":9581:9646   */\n      tag_362\n      jump\t// in\n    tag_544:\n        /* \"#utility.yul\":9572:9646   */\n      swap1\n      pop\n        /* \"#utility.yul\":9669:9675   */\n      dup3\n        /* \"#utility.yul\":9662:9667   */\n      dup2\n        /* \"#utility.yul\":9655:9676   */\n      mstore\n        /* \"#utility.yul\":9707:9711   */\n      0x20\n        /* \"#utility.yul\":9700:9705   */\n      dup2\n        /* \"#utility.yul\":9696:9712   */\n      add\n        /* \"#utility.yul\":9745:9748   */\n      dup5\n        /* \"#utility.yul\":9736:9742   */\n      dup5\n        /* \"#utility.yul\":9731:9734   */\n      dup5\n        /* \"#utility.yul\":9727:9743   */\n      add\n        /* \"#utility.yul\":9724:9749   */\n      gt\n        /* \"#utility.yul\":9721:9833   */\n      iszero\n      tag_546\n      jumpi\n        /* \"#utility.yul\":9752:9831   */\n      tag_547\n      tag_360\n      jump\t// in\n    tag_547:\n        /* \"#utility.yul\":9721:9833   */\n    tag_546:\n        /* \"#utility.yul\":9842:9896   */\n      tag_548\n        /* \"#utility.yul\":9889:9895   */\n      dup5\n        /* \"#utility.yul\":9884:9887   */\n      dup3\n        /* \"#utility.yul\":9879:9882   */\n      dup6\n        /* \"#utility.yul\":9842:9896   */\n      tag_364\n      jump\t// in\n    tag_548:\n        /* \"#utility.yul\":9562:9902   */\n      pop\n        /* \"#utility.yul\":9479:9902   */\n      swap4\n      swap3\n      pop\n      pop\n      pop\n      jump\t// out\n        /* \"#utility.yul\":9921:10259   */\n    tag_366:\n        /* \"#utility.yul\":9976:9981   */\n      0x00\n        /* \"#utility.yul\":10025:10028   */\n      dup3\n        /* \"#utility.yul\":10018:10022   */\n      0x1f\n        /* \"#utility.yul\":10010:10016   */\n      dup4\n        /* \"#utility.yul\":10006:10023   */\n      add\n        /* \"#utility.yul\":10002:10029   */\n      slt\n        /* \"#utility.yul\":9992:10114   */\n      tag_550\n      jumpi\n        /* \"#utility.yul\":10033:10112   */\n      tag_551\n      tag_337\n      jump\t// in\n    tag_551:\n        /* \"#utility.yul\":9992:10114   */\n    tag_550:\n        /* \"#utility.yul\":10150:10156   */\n      dup2\n        /* \"#utility.yul\":10137:10157   */\n      calldataload\n        /* \"#utility.yul\":10175:10253   */\n      tag_552\n        /* \"#utility.yul\":10249:10252   */\n      dup5\n        /* \"#utility.yul\":10241:10247   */\n      dup3\n        /* \"#utility.yul\":10234:10238   */\n      0x20\n        /* \"#utility.yul\":10226:10232   */\n      dup7\n        /* \"#utility.yul\":10222:10239   */\n      add\n        /* \"#utility.yul\":10175:10253   */\n      tag_365\n      jump\t// in\n    tag_552:\n        /* \"#utility.yul\":10166:10253   */\n      swap2\n      pop\n        /* \"#utility.yul\":9982:10259   */\n      pop\n        /* \"#utility.yul\":9921:10259   */\n      swap3\n      swap2\n      pop\n      pop\n      jump\t// out\n        /* \"#utility.yul\":10265:10917   */\n    tag_49:\n        /* \"#utility.yul\":10342:10348   */\n      0x00\n        /* \"#utility.yul\":10350:10356   */\n      0x00\n        /* \"#utility.yul\":10399:10401   */\n      0x40\n        /* \"#utility.yul\":10387:10396   */\n      dup4\n        /* \"#utility.yul\":10378:10385   */\n      dup6\n        /* \"#utility.yul\":10374:10397   */\n      sub\n        /* \"#utility.yul\":10370:10402   */\n      slt\n        /* \"#utility.yul\":10367:10486   */\n      iszero\n      tag_554\n      jumpi\n        /* \"#utility.yul\":10405:10484   */\n      tag_555\n      tag_331\n      jump\t// in\n    tag_555:\n        /* \"#utility.yul\":10367:10486   */\n    tag_554:\n        /* \"#utility.yul\":10525:10526   */\n      0x00\n        /* \"#utility.yul\":10550:10603   */\n      tag_556\n        /* \"#utility.yul\":10595:10602   */\n      dup6\n        /* \"#utility.yul\":10586:10592   */\n      dup3\n        /* \"#utility.yul\":10575:10584   */\n      dup7\n        /* \"#utility.yul\":10571:10593   */\n      add\n        /* \"#utility.yul\":10550:10603   */\n      tag_359\n      jump\t// in\n    tag_556:\n        /* \"#utility.yul\":10540:10603   */\n      swap3\n      pop\n        /* \"#utility.yul\":10496:10613   */\n      pop\n        /* \"#utility.yul\":10680:10682   */\n      0x20\n        /* \"#utility.yul\":10669:10678   */\n      dup4\n        /* \"#utility.yul\":10665:10683   */\n      add\n        /* \"#utility.yul\":10652:10684   */\n      calldataload\n        /* \"#utility.yul\":10711:10729   */\n      0xffffffffffffffff\n        /* \"#utility.yul\":10703:10709   */\n      dup2\n        /* \"#utility.yul\":10700:10730   */\n      gt\n        /* \"#utility.yul\":10697:10814   */\n      iszero\n      tag_557\n      jumpi\n        /* \"#utility.yul\":10733:10812   */\n      tag_558\n      tag_332\n      jump\t// in\n    tag_558:\n        /* \"#utility.yul\":10697:10814   */\n    tag_557:\n        /* \"#utility.yul\":10838:10900   */\n      tag_559\n        /* \"#utility.yul\":10892:10899   */\n      dup6\n        /* \"#utility.yul\":10883:10889   */\n      dup3\n        /* \"#utility.yul\":10872:10881   */\n      dup7\n        /* \"#utility.yul\":10868:10890   */\n      add\n        /* \"#utility.yul\":10838:10900   */\n      tag_366\n      jump\t// in\n    tag_559:\n        /* \"#utility.yul\":10828:10900   */\n      swap2\n      pop\n        /* \"#utility.yul\":10623:10910   */\n      pop\n        /* \"#utility.yul\":10265:10917   */\n      swap3\n      pop\n      swap3\n      swap1\n      pop\n      jump\t// out\n        /* \"#utility.yul\":10923:11013   */\n    tag_367:\n        /* \"#utility.yul\":10957:10964   */\n      0x00\n        /* \"#utility.yul\":11000:11005   */\n      dup2\n        /* \"#utility.yul\":10993:11006   */\n      iszero\n        /* \"#utility.yul\":10986:11007   */\n      iszero\n        /* \"#utility.yul\":10975:11007   */\n      swap1\n      pop\n        /* \"#utility.yul\":10923:11013   */\n      swap2\n      swap1\n      pop\n      jump\t// out\n        /* \"#utility.yul\":11019:11128   */\n    tag_368:\n        /* \"#utility.yul\":11100:11121   */\n      tag_562\n        /* \"#utility.yul\":11115:11120   */\n      dup2\n        /* \"#utility.yul\":11100:11121   */\n      tag_367\n      jump\t// in\n    tag_562:\n        /* \"#utility.yul\":11095:11098   */\n      dup3\n        /* \"#utility.yul\":11088:11122   */\n      mstore\n        /* \"#utility.yul\":11019:11128   */\n      pop\n      pop\n      jump\t// out\n        /* \"#utility.yul\":11134:11344   */\n    tag_56:\n        /* \"#utility.yul\":11221:11225   */\n      0x00\n        /* \"#utility.yul\":11259:11261   */\n      0x20\n        /* \"#utility.yul\":11248:11257   */\n      dup3\n        /* \"#utility.yul\":11244:11262   */\n      add\n        /* \"#utility.yul\":11236:11262   */\n      swap1\n      pop\n        /* \"#utility.yul\":11272:11337   */\n      tag_564\n        /* \"#utility.yul\":11334:11335   */\n      0x00\n        /* \"#utility.yul\":11323:11332   */\n      dup4\n        /* \"#utility.yul\":11319:11336   */\n      add\n        /* \"#utility.yul\":11310:11316   */\n      dup5\n        /* \"#utility.yul\":11272:11337   */\n      tag_368\n      jump\t// in\n    tag_564:\n        /* \"#utility.yul\":11134:11344   */\n      swap3\n      swap2\n      pop\n      pop\n      jump\t// out\n        /* \"#utility.yul\":11350:11495   */\n    tag_369:\n        /* \"#utility.yul\":11419:11428   */\n      0x00\n        /* \"#utility.yul\":11452:11489   */\n      tag_566\n        /* \"#utility.yul\":11483:11488   */\n      dup3\n        /* \"#utility.yul\":11452:11489   */\n      tag_352\n      jump\t// in\n    tag_566:\n        /* \"#utility.yul\":11439:11489   */\n      swap1\n      pop\n        /* \"#utility.yul\":11350:11495   */\n      swap2\n      swap1\n      pop\n      jump\t// out\n        /* \"#utility.yul\":11501:11670   */\n    tag_370:\n        /* \"#utility.yul\":11607:11663   */\n      tag_568\n        /* \"#utility.yul\":11657:11662   */\n      dup2\n        /* \"#utility.yul\":11607:11663   */\n      tag_369\n      jump\t// in\n    tag_568:\n        /* \"#utility.yul\":11602:11605   */\n      dup3\n        /* \"#utility.yul\":11595:11664   */\n      mstore\n        /* \"#utility.yul\":11501:11670   */\n      pop\n      pop\n      jump\t// out\n        /* \"#utility.yul\":11676:11936   */\n    tag_60:\n        /* \"#utility.yul\":11788:11792   */\n      0x00\n        /* \"#utility.yul\":11826:11828   */\n      0x20\n        /* \"#utility.yul\":11815:11824   */\n      dup3\n        /* \"#utility.yul\":11811:11829   */\n      add\n        /* \"#utility.yul\":11803:11829   */\n      swap1\n      pop\n        /* \"#utility.yul\":11839:11929   */\n      tag_570\n        /* \"#utility.yul\":11926:11927   */\n      0x00\n        /* \"#utility.yul\":11915:11924   */\n      dup4\n        /* \"#utility.yul\":11911:11928   */\n      add\n        /* \"#utility.yul\":11902:11908   */\n      dup5\n        /* \"#utility.yul\":11839:11929   */\n      tag_370\n      jump\t// in\n    tag_570:\n        /* \"#utility.yul\":11676:11936   */\n      swap3\n      swap2\n      pop\n      pop\n      jump\t// out\n        /* \"#utility.yul\":11942:12094   */\n    tag_371:\n        /* \"#utility.yul\":12018:12027   */\n      0x00\n        /* \"#utility.yul\":12051:12088   */\n      tag_572\n        /* \"#utility.yul\":12082:12087   */\n      dup3\n        /* \"#utility.yul\":12051:12088   */\n      tag_352\n      jump\t// in\n    tag_572:\n        /* \"#utility.yul\":12038:12088   */\n      swap1\n      pop\n        /* \"#utility.yul\":11942:12094   */\n      swap2\n      swap1\n      pop\n      jump\t// out\n        /* \"#utility.yul\":12100:12283   */\n    tag_372:\n        /* \"#utility.yul\":12213:12276   */\n      tag_574\n        /* \"#utility.yul\":12270:12275   */\n      dup2\n        /* \"#utility.yul\":12213:12276   */\n      tag_371\n      jump\t// in\n    tag_574:\n        /* \"#utility.yul\":12208:12211   */\n      dup3\n        /* \"#utility.yul\":12201:12277   */\n      mstore\n        /* \"#utility.yul\":12100:12283   */\n      pop\n      pop\n      jump\t// out\n        /* \"#utility.yul\":12289:12563   */\n    tag_64:\n        /* \"#utility.yul\":12408:12412   */\n      0x00\n        /* \"#utility.yul\":12446:12448   */\n      0x20\n        /* \"#utility.yul\":12435:12444   */\n      dup3\n        /* \"#utility.yul\":12431:12449   */\n      add\n        /* \"#utility.yul\":12423:12449   */\n      swap1\n      pop\n        /* \"#utility.yul\":12459:12556   */\n      tag_576\n        /* \"#utility.yul\":12553:12554   */\n      0x00\n        /* \"#utility.yul\":12542:12551   */\n      dup4\n        /* \"#utility.yul\":12538:12555   */\n      add\n        /* \"#utility.yul\":12529:12535   */\n      dup5\n        /* \"#utility.yul\":12459:12556   */\n      tag_372\n      jump\t// in\n    tag_576:\n        /* \"#utility.yul\":12289:12563   */\n      swap3\n      swap2\n      pop\n      pop\n      jump\t// out\n        /* \"#utility.yul\":12569:12668   */\n    tag_373:\n        /* \"#utility.yul\":12621:12627   */\n      0x00\n        /* \"#utility.yul\":12655:12660   */\n      dup2\n        /* \"#utility.yul\":12649:12661   */\n      mload\n        /* \"#utility.yul\":12639:12661   */\n      swap1\n      pop\n        /* \"#utility.yul\":12569:12668   */\n      swap2\n      swap1\n      pop\n      jump\t// out\n        /* \"#utility.yul\":12674:12843   */\n    tag_374:\n        /* \"#utility.yul\":12758:12769   */\n      0x00\n        /* \"#utility.yul\":12792:12798   */\n      dup3\n        /* \"#utility.yul\":12787:12790   */\n      dup3\n        /* \"#utility.yul\":12780:12799   */\n      mstore\n        /* \"#utility.yul\":12832:12836   */\n      0x20\n        /* \"#utility.yul\":12827:12830   */\n      dup3\n        /* \"#utility.yul\":12823:12837   */\n      add\n        /* \"#utility.yul\":12808:12837   */\n      swap1\n      pop\n        /* \"#utility.yul\":12674:12843   */\n      swap3\n      swap2\n      pop\n      pop\n      jump\t// out\n        /* \"#utility.yul\":12849:13226   */\n    tag_375:\n        /* \"#utility.yul\":12937:12940   */\n      0x00\n        /* \"#utility.yul\":12965:13004   */\n      tag_580\n        /* \"#utility.yul\":12998:13003   */\n      dup3\n        /* \"#utility.yul\":12965:13004   */\n      tag_373\n      jump\t// in\n    tag_580:\n        /* \"#utility.yul\":13020:13091   */\n      tag_581\n        /* \"#utility.yul\":13084:13090   */\n      dup2\n        /* \"#utility.yul\":13079:13082   */\n      dup6\n        /* \"#utility.yul\":13020:13091   */\n      tag_374\n      jump\t// in\n    tag_581:\n        /* \"#utility.yul\":13013:13091   */\n      swap4\n      pop\n        /* \"#utility.yul\":13100:13165   */\n      tag_582\n        /* \"#utility.yul\":13158:13164   */\n      dup2\n        /* \"#utility.yul\":13153:13156   */\n      dup6\n        /* \"#utility.yul\":13146:13150   */\n      0x20\n        /* \"#utility.yul\":13139:13144   */\n      dup7\n        /* \"#utility.yul\":13135:13151   */\n      add\n        /* \"#utility.yul\":13100:13165   */\n      tag_346\n      jump\t// in\n    tag_582:\n        /* \"#utility.yul\":13190:13219   */\n      tag_583\n        /* \"#utility.yul\":13212:13218   */\n      dup2\n        /* \"#utility.yul\":13190:13219   */\n      tag_347\n      jump\t// in\n    tag_583:\n        /* \"#utility.yul\":13185:13188   */\n      dup5\n        /* \"#utility.yul\":13181:13220   */\n      add\n        /* \"#utility.yul\":13174:13220   */\n      swap2\n      pop\n        /* \"#utility.yul\":12941:13226   */\n      pop\n        /* \"#utility.yul\":12849:13226   */\n      swap3\n      swap2\n      pop\n      pop\n      jump\t// out\n        /* \"#utility.yul\":13232:13545   */\n    tag_69:\n        /* \"#utility.yul\":13345:13349   */\n      0x00\n        /* \"#utility.yul\":13383:13385   */\n      0x20\n        /* \"#utility.yul\":13372:13381   */\n      dup3\n        /* \"#utility.yul\":13368:13386   */\n      add\n        /* \"#utility.yul\":13360:13386   */\n      swap1\n      pop\n        /* \"#utility.yul\":13432:13441   */\n      dup2\n        /* \"#utility.yul\":13426:13430   */\n      dup2\n        /* \"#utility.yul\":13422:13442   */\n      sub\n        /* \"#utility.yul\":13418:13419   */\n      0x00\n        /* \"#utility.yul\":13407:13416   */\n      dup4\n        /* \"#utility.yul\":13403:13420   */\n      add\n        /* \"#utility.yul\":13396:13443   */\n      mstore\n        /* \"#utility.yul\":13460:13538   */\n      tag_585\n        /* \"#utility.yul\":13533:13537   */\n      dup2\n        /* \"#utility.yul\":13524:13530   */\n      dup5\n        /* \"#utility.yul\":13460:13538   */\n      tag_375\n      jump\t// in\n    tag_585:\n        /* \"#utility.yul\":13452:13538   */\n      swap1\n      pop\n        /* \"#utility.yul\":13232:13545   */\n      swap3\n      swap2\n      pop\n      pop\n      jump\t// out\n        /* \"#utility.yul\":13551:13695   */\n    tag_376:\n        /* \"#utility.yul\":13619:13628   */\n      0x00\n        /* \"#utility.yul\":13652:13689   */\n      tag_587\n        /* \"#utility.yul\":13683:13688   */\n      dup3\n        /* \"#utility.yul\":13652:13689   */\n      tag_352\n      jump\t// in\n    tag_587:\n        /* \"#utility.yul\":13639:13689   */\n      swap1\n      pop\n        /* \"#utility.yul\":13551:13695   */\n      swap2\n      swap1\n      pop\n      jump\t// out\n        /* \"#utility.yul\":13701:13868   */\n    tag_377:\n        /* \"#utility.yul\":13806:13861   */\n      tag_589\n        /* \"#utility.yul\":13855:13860   */\n      dup2\n        /* \"#utility.yul\":13806:13861   */\n      tag_376\n      jump\t// in\n    tag_589:\n        /* \"#utility.yul\":13801:13804   */\n      dup3\n        /* \"#utility.yul\":13794:13862   */\n      mstore\n        /* \"#utility.yul\":13701:13868   */\n      pop\n      pop\n      jump\t// out\n        /* \"#utility.yul\":13874:14132   */\n    tag_73:\n        /* \"#utility.yul\":13985:13989   */\n      0x00\n        /* \"#utility.yul\":14023:14025   */\n      0x20\n        /* \"#utility.yul\":14012:14021   */\n      dup3\n        /* \"#utility.yul\":14008:14026   */\n      add\n        /* \"#utility.yul\":14000:14026   */\n      swap1\n      pop\n        /* \"#utility.yul\":14036:14125   */\n      tag_591\n        /* \"#utility.yul\":14122:14123   */\n      0x00\n        /* \"#utility.yul\":14111:14120   */\n      dup4\n        /* \"#utility.yul\":14107:14124   */\n      add\n        /* \"#utility.yul\":14098:14104   */\n      dup5\n        /* \"#utility.yul\":14036:14125   */\n      tag_377\n      jump\t// in\n    tag_591:\n        /* \"#utility.yul\":13874:14132   */\n      swap3\n      swap2\n      pop\n      pop\n      jump\t// out\n        /* \"#utility.yul\":14156:14405   */\n    tag_378:\n        /* \"#utility.yul\":14227:14235   */\n      0x00\n        /* \"#utility.yul\":14258:14264   */\n      dup2\n        /* \"#utility.yul\":14246:14264   */\n      swap1\n      pop\n        /* \"#utility.yul\":14311:14314   */\n      dup3\n        /* \"#utility.yul\":14303:14307   */\n      0x20\n        /* \"#utility.yul\":14297:14301   */\n      0x08\n        /* \"#utility.yul\":14293:14308   */\n      mul\n        /* \"#utility.yul\":14283:14291   */\n      dup3\n        /* \"#utility.yul\":14279:14309   */\n      add\n        /* \"#utility.yul\":14276:14315   */\n      gt\n        /* \"#utility.yul\":14273:14399   */\n      iszero\n      tag_593\n      jumpi\n        /* \"#utility.yul\":14318:14397   */\n      tag_594\n      tag_333\n      jump\t// in\n    tag_594:\n        /* \"#utility.yul\":14273:14399   */\n    tag_593:\n        /* \"#utility.yul\":14156:14405   */\n      swap3\n      swap2\n      pop\n      pop\n      jump\t// out\n        /* \"#utility.yul\":14411:16148   */\n    tag_76:\n        /* \"#utility.yul\":14678:14684   */\n      0x00\n        /* \"#utility.yul\":14686:14692   */\n      0x00\n        /* \"#utility.yul\":14694:14700   */\n      0x00\n        /* \"#utility.yul\":14702:14708   */\n      0x00\n        /* \"#utility.yul\":14710:14716   */\n      0x00\n        /* \"#utility.yul\":14718:14724   */\n      0x00\n        /* \"#utility.yul\":14726:14732   */\n      0x00\n        /* \"#utility.yul\":14734:14740   */\n      0x00\n        /* \"#utility.yul\":14783:14786   */\n      0x0240\n        /* \"#utility.yul\":14771:14780   */\n      dup10\n        /* \"#utility.yul\":14762:14769   */\n      dup12\n        /* \"#utility.yul\":14758:14781   */\n      sub\n        /* \"#utility.yul\":14754:14787   */\n      slt\n        /* \"#utility.yul\":14751:14871   */\n      iszero\n      tag_596\n      jumpi\n        /* \"#utility.yul\":14790:14869   */\n      tag_597\n      tag_331\n      jump\t// in\n    tag_597:\n        /* \"#utility.yul\":14751:14871   */\n    tag_596:\n        /* \"#utility.yul\":14910:14911   */\n      0x00\n        /* \"#utility.yul\":14935:15013   */\n      tag_598\n        /* \"#utility.yul\":15005:15012   */\n      dup12\n        /* \"#utility.yul\":14996:15002   */\n      dup3\n        /* \"#utility.yul\":14985:14994   */\n      dup13\n        /* \"#utility.yul\":14981:15003   */\n      add\n        /* \"#utility.yul\":14935:15013   */\n      tag_334\n      jump\t// in\n    tag_598:\n        /* \"#utility.yul\":14925:15013   */\n      swap9\n      pop\n        /* \"#utility.yul\":14881:15023   */\n      pop\n        /* \"#utility.yul\":15062:15064   */\n      0x40\n        /* \"#utility.yul\":15088:15191   */\n      tag_599\n        /* \"#utility.yul\":15183:15190   */\n      dup12\n        /* \"#utility.yul\":15174:15180   */\n      dup3\n        /* \"#utility.yul\":15163:15172   */\n      dup13\n        /* \"#utility.yul\":15159:15181   */\n      add\n        /* \"#utility.yul\":15088:15191   */\n      tag_335\n      jump\t// in\n    tag_599:\n        /* \"#utility.yul\":15078:15191   */\n      swap8\n      pop\n        /* \"#utility.yul\":15033:15201   */\n      pop\n        /* \"#utility.yul\":15240:15243   */\n      0xc0\n        /* \"#utility.yul\":15267:15345   */\n      tag_600\n        /* \"#utility.yul\":15337:15344   */\n      dup12\n        /* \"#utility.yul\":15328:15334   */\n      dup3\n        /* \"#utility.yul\":15317:15326   */\n      dup13\n        /* \"#utility.yul\":15313:15335   */\n      add\n        /* \"#utility.yul\":15267:15345   */\n      tag_334\n      jump\t// in\n    tag_600:\n        /* \"#utility.yul\":15257:15345   */\n      swap7\n      pop\n        /* \"#utility.yul\":15211:15355   */\n      pop\n        /* \"#utility.yul\":15394:15397   */\n      0x0100\n        /* \"#utility.yul\":15421:15499   */\n      tag_601\n        /* \"#utility.yul\":15491:15498   */\n      dup12\n        /* \"#utility.yul\":15482:15488   */\n      dup3\n        /* \"#utility.yul\":15471:15480   */\n      dup13\n        /* \"#utility.yul\":15467:15489   */\n      add\n        /* \"#utility.yul\":15421:15499   */\n      tag_378\n      jump\t// in\n    tag_601:\n        /* \"#utility.yul\":15411:15499   */\n      swap6\n      pop\n        /* \"#utility.yul\":15365:15509   */\n      pop\n        /* \"#utility.yul\":15576:15579   */\n      0x0200\n        /* \"#utility.yul\":15565:15574   */\n      dup10\n        /* \"#utility.yul\":15561:15580   */\n      add\n        /* \"#utility.yul\":15548:15581   */\n      calldataload\n        /* \"#utility.yul\":15608:15626   */\n      0xffffffffffffffff\n        /* \"#utility.yul\":15600:15606   */\n      dup2\n        /* \"#utility.yul\":15597:15627   */\n      gt\n        /* \"#utility.yul\":15594:15711   */\n      iszero\n      tag_602\n      jumpi\n        /* \"#utility.yul\":15630:15709   */\n      tag_603\n      tag_332\n      jump\t// in\n    tag_603:\n        /* \"#utility.yul\":15594:15711   */\n    tag_602:\n        /* \"#utility.yul\":15743:15823   */\n      tag_604\n        /* \"#utility.yul\":15815:15822   */\n      dup12\n        /* \"#utility.yul\":15806:15812   */\n      dup3\n        /* \"#utility.yul\":15795:15804   */\n      dup13\n        /* \"#utility.yul\":15791:15813   */\n      add\n        /* \"#utility.yul\":15743:15823   */\n      tag_339\n      jump\t// in\n    tag_604:\n        /* \"#utility.yul\":15725:15823   */\n      swap5\n      pop\n      swap5\n      pop\n        /* \"#utility.yul\":15519:15833   */\n      pop\n        /* \"#utility.yul\":15900:15903   */\n      0x0220\n        /* \"#utility.yul\":15889:15898   */\n      dup10\n        /* \"#utility.yul\":15885:15904   */\n      add\n        /* \"#utility.yul\":15872:15905   */\n      calldataload\n        /* \"#utility.yul\":15932:15950   */\n      0xffffffffffffffff\n        /* \"#utility.yul\":15924:15930   */\n      dup2\n        /* \"#utility.yul\":15921:15951   */\n      gt\n        /* \"#utility.yul\":15918:16035   */\n      iszero\n      tag_605\n      jumpi\n        /* \"#utility.yul\":15954:16033   */\n      tag_606\n      tag_332\n      jump\t// in\n    tag_606:\n        /* \"#utility.yul\":15918:16035   */\n    tag_605:\n        /* \"#utility.yul\":16067:16131   */\n      tag_607\n        /* \"#utility.yul\":16123:16130   */\n      dup12\n        /* \"#utility.yul\":16114:16120   */\n      dup3\n        /* \"#utility.yul\":16103:16112   */\n      dup13\n        /* \"#utility.yul\":16099:16121   */\n      add\n        /* \"#utility.yul\":16067:16131   */\n      tag_340\n      jump\t// in\n    tag_607:\n        /* \"#utility.yul\":16049:16131   */\n      swap3\n      pop\n      swap3\n      pop\n        /* \"#utility.yul\":15843:16141   */\n      pop\n        /* \"#utility.yul\":14411:16148   */\n      swap3\n      swap6\n      swap9\n      pop\n      swap3\n      swap6\n      swap9\n      swap1\n      swap4\n      swap7\n      pop\n      jump\t// out\n        /* \"#utility.yul\":16154:16276   */\n    tag_379:\n        /* \"#utility.yul\":16227:16251   */\n      tag_609\n        /* \"#utility.yul\":16245:16250   */\n      dup2\n        /* \"#utility.yul\":16227:16251   */\n      tag_355\n      jump\t// in\n    tag_609:\n        /* \"#utility.yul\":16220:16225   */\n      dup2\n        /* \"#utility.yul\":16217:16252   */\n      eq\n        /* \"#utility.yul\":16207:16270   */\n      tag_610\n      jumpi\n        /* \"#utility.yul\":16266:16267   */\n      0x00\n        /* \"#utility.yul\":16263:16264   */\n      0x00\n        /* \"#utility.yul\":16256:16268   */\n      revert\n        /* \"#utility.yul\":16207:16270   */\n    tag_610:\n        /* \"#utility.yul\":16154:16276   */\n      pop\n      jump\t// out\n        /* \"#utility.yul\":16282:16421   */\n    tag_380:\n        /* \"#utility.yul\":16328:16333   */\n      0x00\n        /* \"#utility.yul\":16366:16372   */\n      dup2\n        /* \"#utility.yul\":16353:16373   */\n      calldataload\n        /* \"#utility.yul\":16344:16373   */\n      swap1\n      pop\n        /* \"#utility.yul\":16382:16415   */\n      tag_612\n        /* \"#utility.yul\":16409:16414   */\n      dup2\n        /* \"#utility.yul\":16382:16415   */\n      tag_379\n      jump\t// in\n    tag_612:\n        /* \"#utility.yul\":16282:16421   */\n      swap3\n      swap2\n      pop\n      pop\n      jump\t// out\n        /* \"#utility.yul\":16427:16756   */\n    tag_83:\n        /* \"#utility.yul\":16486:16492   */\n      0x00\n        /* \"#utility.yul\":16535:16537   */\n      0x20\n        /* \"#utility.yul\":16523:16532   */\n      dup3\n        /* \"#utility.yul\":16514:16521   */\n      dup5\n        /* \"#utility.yul\":16510:16533   */\n      sub\n        /* \"#utility.yul\":16506:16538   */\n      slt\n        /* \"#utility.yul\":16503:16622   */\n      iszero\n      tag_614\n      jumpi\n        /* \"#utility.yul\":16541:16620   */\n      tag_615\n      tag_331\n      jump\t// in\n    tag_615:\n        /* \"#utility.yul\":16503:16622   */\n    tag_614:\n        /* \"#utility.yul\":16661:16662   */\n      0x00\n        /* \"#utility.yul\":16686:16739   */\n      tag_616\n        /* \"#utility.yul\":16731:16738   */\n      dup5\n        /* \"#utility.yul\":16722:16728   */\n      dup3\n        /* \"#utility.yul\":16711:16720   */\n      dup6\n        /* \"#utility.yul\":16707:16729   */\n      add\n        /* \"#utility.yul\":16686:16739   */\n      tag_380\n      jump\t// in\n    tag_616:\n        /* \"#utility.yul\":16676:16739   */\n      swap2\n      pop\n        /* \"#utility.yul\":16632:16749   */\n      pop\n        /* \"#utility.yul\":16427:16756   */\n      swap3\n      swap2\n      pop\n      pop\n      jump\t// out\n        /* \"#utility.yul\":16762:16912   */\n    tag_381:\n        /* \"#utility.yul\":16836:16845   */\n      0x00\n        /* \"#utility.yul\":16869:16906   */\n      tag_618\n        /* \"#utility.yul\":16900:16905   */\n      dup3\n        /* \"#utility.yul\":16869:16906   */\n      tag_352\n      jump\t// in\n    tag_618:\n        /* \"#utility.yul\":16856:16906   */\n      swap1\n      pop\n        /* \"#utility.yul\":16762:16912   */\n      swap2\n      swap1\n      pop\n      jump\t// out\n        /* \"#utility.yul\":16918:17097   */\n    tag_382:\n        /* \"#utility.yul\":17029:17090   */\n      tag_620\n        /* \"#utility.yul\":17084:17089   */\n      dup2\n        /* \"#utility.yul\":17029:17090   */\n      tag_381\n      jump\t// in\n    tag_620:\n        /* \"#utility.yul\":17024:17027   */\n      dup3\n        /* \"#utility.yul\":17017:17091   */\n      mstore\n        /* \"#utility.yul\":16918:17097   */\n      pop\n      pop\n      jump\t// out\n        /* \"#utility.yul\":17103:17373   */\n    tag_88:\n        /* \"#utility.yul\":17220:17224   */\n      0x00\n        /* \"#utility.yul\":17258:17260   */\n      0x20\n        /* \"#utility.yul\":17247:17256   */\n      dup3\n        /* \"#utility.yul\":17243:17261   */\n      add\n        /* \"#utility.yul\":17235:17261   */\n      swap1\n      pop\n        /* \"#utility.yul\":17271:17366   */\n      tag_622\n        /* \"#utility.yul\":17363:17364   */\n      0x00\n        /* \"#utility.yul\":17352:17361   */\n      dup4\n        /* \"#utility.yul\":17348:17365   */\n      add\n        /* \"#utility.yul\":17339:17345   */\n      dup5\n        /* \"#utility.yul\":17271:17366   */\n      tag_382\n      jump\t// in\n    tag_622:\n        /* \"#utility.yul\":17103:17373   */\n      swap3\n      swap2\n      pop\n      pop\n      jump\t// out\n        /* \"#utility.yul\":17379:17708   */\n    tag_91:\n        /* \"#utility.yul\":17438:17444   */\n      0x00\n        /* \"#utility.yul\":17487:17489   */\n      0x20\n        /* \"#utility.yul\":17475:17484   */\n      dup3\n        /* \"#utility.yul\":17466:17473   */\n      dup5\n        /* \"#utility.yul\":17462:17485   */\n      sub\n        /* \"#utility.yul\":17458:17490   */\n      slt\n        /* \"#utility.yul\":17455:17574   */\n      iszero\n      tag_624\n      jumpi\n        /* \"#utility.yul\":17493:17572   */\n      tag_625\n      tag_331\n      jump\t// in\n    tag_625:\n        /* \"#utility.yul\":17455:17574   */\n    tag_624:\n        /* \"#utility.yul\":17613:17614   */\n      0x00\n        /* \"#utility.yul\":17638:17691   */\n      tag_626\n        /* \"#utility.yul\":17683:17690   */\n      dup5\n        /* \"#utility.yul\":17674:17680   */\n      dup3\n        /* \"#utility.yul\":17663:17672   */\n      dup6\n        /* \"#utility.yul\":17659:17681   */\n      add\n        /* \"#utility.yul\":17638:17691   */\n      tag_359\n      jump\t// in\n    tag_626:\n        /* \"#utility.yul\":17628:17691   */\n      swap2\n      pop\n        /* \"#utility.yul\":17584:17701   */\n      pop\n        /* \"#utility.yul\":17379:17708   */\n      swap3\n      swap2\n      pop\n      pop\n      jump\t// out\n        /* \"#utility.yul\":17714:17832   */\n    tag_383:\n        /* \"#utility.yul\":17801:17825   */\n      tag_628\n        /* \"#utility.yul\":17819:17824   */\n      dup2\n        /* \"#utility.yul\":17801:17825   */\n      tag_357\n      jump\t// in\n    tag_628:\n        /* \"#utility.yul\":17796:17799   */\n      dup3\n        /* \"#utility.yul\":17789:17826   */\n      mstore\n        /* \"#utility.yul\":17714:17832   */\n      pop\n      pop\n      jump\t// out\n        /* \"#utility.yul\":17838:18060   */\n    tag_94:\n        /* \"#utility.yul\":17931:17935   */\n      0x00\n        /* \"#utility.yul\":17969:17971   */\n      0x20\n        /* \"#utility.yul\":17958:17967   */\n      dup3\n        /* \"#utility.yul\":17954:17972   */\n      add\n        /* \"#utility.yul\":17946:17972   */\n      swap1\n      pop\n        /* \"#utility.yul\":17982:18053   */\n      tag_630\n        /* \"#utility.yul\":18050:18051   */\n      0x00\n        /* \"#utility.yul\":18039:18048   */\n      dup4\n        /* \"#utility.yul\":18035:18052   */\n      add\n        /* \"#utility.yul\":18026:18032   */\n      dup5\n        /* \"#utility.yul\":17982:18053   */\n      tag_383\n      jump\t// in\n    tag_630:\n        /* \"#utility.yul\":17838:18060   */\n      swap3\n      swap2\n      pop\n      pop\n      jump\t// out\n        /* \"#utility.yul\":18066:18165   */\n    tag_384:\n        /* \"#utility.yul\":18151:18157   */\n      dup3\n        /* \"#utility.yul\":18146:18149   */\n      dup2\n        /* \"#utility.yul\":18141:18144   */\n      dup4\n        /* \"#utility.yul\":18128:18158   */\n      calldatacopy\n        /* \"#utility.yul\":18066:18165   */\n      pop\n      pop\n      pop\n      jump\t// out\n        /* \"#utility.yul\":18203:18373   */\n    tag_385:\n        /* \"#utility.yul\":18326:18367   */\n      tag_633\n        /* \"#utility.yul\":18362:18366   */\n      0x40\n        /* \"#utility.yul\":18357:18360   */\n      dup4\n        /* \"#utility.yul\":18350:18355   */\n      dup4\n        /* \"#utility.yul\":18326:18367   */\n      tag_384\n      jump\t// in\n    tag_633:\n        /* \"#utility.yul\":18203:18373   */\n      pop\n      pop\n      jump\t// out\n        /* \"#utility.yul\":18379:18510   */\n    tag_386:\n        /* \"#utility.yul\":18471:18477   */\n      0x00\n        /* \"#utility.yul\":18499:18503   */\n      0x02\n        /* \"#utility.yul\":18489:18503   */\n      swap1\n      pop\n        /* \"#utility.yul\":18379:18510   */\n      swap2\n      swap1\n      pop\n      jump\t// out\n        /* \"#utility.yul\":18516:18682   */\n    tag_387:\n        /* \"#utility.yul\":18636:18647   */\n      0x00\n        /* \"#utility.yul\":18673:18676   */\n      dup2\n        /* \"#utility.yul\":18658:18676   */\n      swap1\n      pop\n        /* \"#utility.yul\":18516:18682   */\n      swap3\n      swap2\n      pop\n      pop\n      jump\t// out\n        /* \"#utility.yul\":18688:18813   */\n    tag_388:\n        /* \"#utility.yul\":18780:18784   */\n      0x00\n        /* \"#utility.yul\":18803:18806   */\n      dup2\n        /* \"#utility.yul\":18795:18806   */\n      swap1\n      pop\n        /* \"#utility.yul\":18688:18813   */\n      swap2\n      swap1\n      pop\n      jump\t// out\n        /* \"#utility.yul\":18851:19011   */\n    tag_389:\n        /* \"#utility.yul\":18964:19005   */\n      tag_638\n        /* \"#utility.yul\":19000:19004   */\n      0x40\n        /* \"#utility.yul\":18995:18998   */\n      dup4\n        /* \"#utility.yul\":18988:18993   */\n      dup4\n        /* \"#utility.yul\":18964:19005   */\n      tag_384\n      jump\t// in\n    tag_638:\n        /* \"#utility.yul\":18851:19011   */\n      pop\n      pop\n      jump\t// out\n        /* \"#utility.yul\":19017:19292   */\n    tag_390:\n        /* \"#utility.yul\":19134:19144   */\n      0x00\n        /* \"#utility.yul\":19155:19249   */\n      tag_640\n        /* \"#utility.yul\":19245:19248   */\n      dup4\n        /* \"#utility.yul\":19237:19243   */\n      dup4\n        /* \"#utility.yul\":19155:19249   */\n      tag_389\n      jump\t// in\n    tag_640:\n        /* \"#utility.yul\":19281:19285   */\n      0x40\n        /* \"#utility.yul\":19276:19279   */\n      dup4\n        /* \"#utility.yul\":19272:19286   */\n      add\n        /* \"#utility.yul\":19258:19286   */\n      swap1\n      pop\n        /* \"#utility.yul\":19017:19292   */\n      swap3\n      swap2\n      pop\n      pop\n      jump\t// out\n        /* \"#utility.yul\":19298:19409   */\n    tag_391:\n        /* \"#utility.yul\":19375:19380   */\n      0x00\n        /* \"#utility.yul\":19400:19403   */\n      dup3\n        /* \"#utility.yul\":19391:19403   */\n      swap1\n      pop\n        /* \"#utility.yul\":19298:19409   */\n      swap3\n      swap2\n      pop\n      pop\n      jump\t// out\n        /* \"#utility.yul\":19415:19553   */\n    tag_392:\n        /* \"#utility.yul\":19510:19514   */\n      0x00\n        /* \"#utility.yul\":19542:19546   */\n      0x40\n        /* \"#utility.yul\":19537:19540   */\n      dup3\n        /* \"#utility.yul\":19533:19547   */\n      add\n        /* \"#utility.yul\":19525:19547   */\n      swap1\n      pop\n        /* \"#utility.yul\":19415:19553   */\n      swap2\n      swap1\n      pop\n      jump\t// out\n        /* \"#utility.yul\":19597:20547   */\n    tag_393:\n        /* \"#utility.yul\":19783:19862   */\n      tag_644\n        /* \"#utility.yul\":19856:19861   */\n      dup2\n        /* \"#utility.yul\":19783:19862   */\n      tag_386\n      jump\t// in\n    tag_644:\n        /* \"#utility.yul\":19878:19985   */\n      tag_645\n        /* \"#utility.yul\":19978:19984   */\n      dup2\n        /* \"#utility.yul\":19973:19976   */\n      dup5\n        /* \"#utility.yul\":19878:19985   */\n      tag_387\n      jump\t// in\n    tag_645:\n        /* \"#utility.yul\":19871:19985   */\n      swap3\n      pop\n        /* \"#utility.yul\":20009:20090   */\n      tag_646\n        /* \"#utility.yul\":20084:20089   */\n      dup3\n        /* \"#utility.yul\":20009:20090   */\n      tag_388\n      jump\t// in\n    tag_646:\n        /* \"#utility.yul\":20113:20120   */\n      dup1\n        /* \"#utility.yul\":20144:20145   */\n      0x00\n        /* \"#utility.yul\":20129:20540   */\n    tag_647:\n        /* \"#utility.yul\":20154:20160   */\n      dup4\n        /* \"#utility.yul\":20151:20152   */\n      dup2\n        /* \"#utility.yul\":20148:20161   */\n      lt\n        /* \"#utility.yul\":20129:20540   */\n      iszero\n      tag_649\n      jumpi\n        /* \"#utility.yul\":20224:20291   */\n      tag_650\n        /* \"#utility.yul\":20284:20290   */\n      dup3\n        /* \"#utility.yul\":20275:20282   */\n      dup5\n        /* \"#utility.yul\":20224:20291   */\n      tag_391\n      jump\t// in\n    tag_650:\n        /* \"#utility.yul\":20311:20422   */\n      tag_651\n        /* \"#utility.yul\":20418:20421   */\n      dup8\n        /* \"#utility.yul\":20403:20416   */\n      dup3\n        /* \"#utility.yul\":20311:20422   */\n      tag_390\n      jump\t// in\n    tag_651:\n        /* \"#utility.yul\":20304:20422   */\n      swap7\n      pop\n        /* \"#utility.yul\":20445:20530   */\n      tag_652\n        /* \"#utility.yul\":20523:20529   */\n      dup4\n        /* \"#utility.yul\":20445:20530   */\n      tag_392\n      jump\t// in\n    tag_652:\n        /* \"#utility.yul\":20435:20530   */\n      swap3\n      pop\n        /* \"#utility.yul\":20189:20540   */\n      pop\n        /* \"#utility.yul\":20176:20177   */\n      0x01\n        /* \"#utility.yul\":20173:20174   */\n      dup2\n        /* \"#utility.yul\":20169:20178   */\n      add\n        /* \"#utility.yul\":20164:20178   */\n      swap1\n      pop\n        /* \"#utility.yul\":20129:20540   */\n      jump(tag_647)\n    tag_649:\n        /* \"#utility.yul\":20133:20147   */\n      pop\n        /* \"#utility.yul\":19759:20547   */\n      pop\n      pop\n      pop\n        /* \"#utility.yul\":19597:20547   */\n      pop\n      pop\n      jump\t// out\n        /* \"#utility.yul\":20585:20755   */\n    tag_394:\n        /* \"#utility.yul\":20708:20749   */\n      tag_654\n        /* \"#utility.yul\":20744:20748   */\n      0xc0\n        /* \"#utility.yul\":20739:20742   */\n      dup4\n        /* \"#utility.yul\":20732:20737   */\n      dup4\n        /* \"#utility.yul\":20708:20749   */\n      tag_384\n      jump\t// in\n    tag_654:\n        /* \"#utility.yul\":20585:20755   */\n      pop\n      pop\n      jump\t// out\n        /* \"#utility.yul\":20761:21796   */\n    tag_97:\n        /* \"#utility.yul\":21178:21182   */\n      0x00\n        /* \"#utility.yul\":21216:21219   */\n      0x01c0\n        /* \"#utility.yul\":21205:21214   */\n      dup3\n        /* \"#utility.yul\":21201:21220   */\n      add\n        /* \"#utility.yul\":21193:21220   */\n      swap1\n      pop\n        /* \"#utility.yul\":21230:21349   */\n      tag_656\n        /* \"#utility.yul\":21346:21347   */\n      0x00\n        /* \"#utility.yul\":21335:21344   */\n      dup4\n        /* \"#utility.yul\":21331:21348   */\n      add\n        /* \"#utility.yul\":21322:21328   */\n      dup8\n        /* \"#utility.yul\":21230:21349   */\n      tag_385\n      jump\t// in\n    tag_656:\n        /* \"#utility.yul\":21359:21527   */\n      tag_657\n        /* \"#utility.yul\":21523:21525   */\n      0x40\n        /* \"#utility.yul\":21512:21521   */\n      dup4\n        /* \"#utility.yul\":21508:21526   */\n      add\n        /* \"#utility.yul\":21499:21505   */\n      dup7\n        /* \"#utility.yul\":21359:21527   */\n      tag_393\n      jump\t// in\n    tag_657:\n        /* \"#utility.yul\":21537:21658   */\n      tag_658\n        /* \"#utility.yul\":21653:21656   */\n      0xc0\n        /* \"#utility.yul\":21642:21651   */\n      dup4\n        /* \"#utility.yul\":21638:21657   */\n      add\n        /* \"#utility.yul\":21629:21635   */\n      dup6\n        /* \"#utility.yul\":21537:21658   */\n      tag_385\n      jump\t// in\n    tag_658:\n        /* \"#utility.yul\":21668:21789   */\n      tag_659\n        /* \"#utility.yul\":21784:21787   */\n      0x0100\n        /* \"#utility.yul\":21773:21782   */\n      dup4\n        /* \"#utility.yul\":21769:21788   */\n      add\n        /* \"#utility.yul\":21760:21766   */\n      dup5\n        /* \"#utility.yul\":21668:21789   */\n      tag_394\n      jump\t// in\n    tag_659:\n        /* \"#utility.yul\":20761:21796   */\n      swap6\n      swap5\n      pop\n      pop\n      pop\n      pop\n      pop\n      jump\t// out\n        /* \"#utility.yul\":21802:21918   */\n    tag_395:\n        /* \"#utility.yul\":21872:21893   */\n      tag_661\n        /* \"#utility.yul\":21887:21892   */\n      dup2\n        /* \"#utility.yul\":21872:21893   */\n      tag_367\n      jump\t// in\n    tag_661:\n        /* \"#utility.yul\":21865:21870   */\n      dup2\n        /* \"#utility.yul\":21862:21894   */\n      eq\n        /* \"#utility.yul\":21852:21912   */\n      tag_662\n      jumpi\n        /* \"#utility.yul\":21908:21909   */\n      0x00\n        /* \"#utility.yul\":21905:21906   */\n      0x00\n        /* \"#utility.yul\":21898:21910   */\n      revert\n        /* \"#utility.yul\":21852:21912   */\n    tag_662:\n        /* \"#utility.yul\":21802:21918   */\n      pop\n      jump\t// out\n        /* \"#utility.yul\":21924:22061   */\n    tag_396:\n        /* \"#utility.yul\":21978:21983   */\n      0x00\n        /* \"#utility.yul\":22009:22015   */\n      dup2\n        /* \"#utility.yul\":22003:22016   */\n      mload\n        /* \"#utility.yul\":21994:22016   */\n      swap1\n      pop\n        /* \"#utility.yul\":22025:22055   */\n      tag_664\n        /* \"#utility.yul\":22049:22054   */\n      dup2\n        /* \"#utility.yul\":22025:22055   */\n      tag_395\n      jump\t// in\n    tag_664:\n        /* \"#utility.yul\":21924:22061   */\n      swap3\n      swap2\n      pop\n      pop\n      jump\t// out\n        /* \"#utility.yul\":22067:22412   */\n    tag_101:\n        /* \"#utility.yul\":22134:22140   */\n      0x00\n        /* \"#utility.yul\":22183:22185   */\n      0x20\n        /* \"#utility.yul\":22171:22180   */\n      dup3\n        /* \"#utility.yul\":22162:22169   */\n      dup5\n        /* \"#utility.yul\":22158:22181   */\n      sub\n        /* \"#utility.yul\":22154:22186   */\n      slt\n        /* \"#utility.yul\":22151:22270   */\n      iszero\n      tag_666\n      jumpi\n        /* \"#utility.yul\":22189:22268   */\n      tag_667\n      tag_331\n      jump\t// in\n    tag_667:\n        /* \"#utility.yul\":22151:22270   */\n    tag_666:\n        /* \"#utility.yul\":22309:22310   */\n      0x00\n        /* \"#utility.yul\":22334:22395   */\n      tag_668\n        /* \"#utility.yul\":22387:22394   */\n      dup5\n        /* \"#utility.yul\":22378:22384   */\n      dup3\n        /* \"#utility.yul\":22367:22376   */\n      dup6\n        /* \"#utility.yul\":22363:22385   */\n      add\n        /* \"#utility.yul\":22334:22395   */\n      tag_396\n      jump\t// in\n    tag_668:\n        /* \"#utility.yul\":22324:22395   */\n      swap2\n      pop\n        /* \"#utility.yul\":22280:22405   */\n      pop\n        /* \"#utility.yul\":22067:22412   */\n      swap3\n      swap2\n      pop\n      pop\n      jump\t// out\n        /* \"#utility.yul\":22418:22584   */\n    tag_397:\n        /* \"#utility.yul\":22558:22576   */\n      0x496e76616c6964205a4b2050726f6f6600000000000000000000000000000000\n        /* \"#utility.yul\":22554:22555   */\n      0x00\n        /* \"#utility.yul\":22546:22552   */\n      dup3\n        /* \"#utility.yul\":22542:22556   */\n      add\n        /* \"#utility.yul\":22535:22577   */\n      mstore\n        /* \"#utility.yul\":22418:22584   */\n      pop\n      jump\t// out\n        /* \"#utility.yul\":22590:22956   */\n    tag_398:\n        /* \"#utility.yul\":22732:22735   */\n      0x00\n        /* \"#utility.yul\":22753:22820   */\n      tag_671\n        /* \"#utility.yul\":22817:22819   */\n      0x10\n        /* \"#utility.yul\":22812:22815   */\n      dup4\n        /* \"#utility.yul\":22753:22820   */\n      tag_374\n      jump\t// in\n    tag_671:\n        /* \"#utility.yul\":22746:22820   */\n      swap2\n      pop\n        /* \"#utility.yul\":22829:22922   */\n      tag_672\n        /* \"#utility.yul\":22918:22921   */\n      dup3\n        /* \"#utility.yul\":22829:22922   */\n      tag_397\n      jump\t// in\n    tag_672:\n        /* \"#utility.yul\":22947:22949   */\n      0x20\n        /* \"#utility.yul\":22942:22945   */\n      dup3\n        /* \"#utility.yul\":22938:22950   */\n      add\n        /* \"#utility.yul\":22931:22950   */\n      swap1\n      pop\n        /* \"#utility.yul\":22590:22956   */\n      swap2\n      swap1\n      pop\n      jump\t// out\n        /* \"#utility.yul\":22962:23381   */\n    tag_104:\n        /* \"#utility.yul\":23128:23132   */\n      0x00\n        /* \"#utility.yul\":23166:23168   */\n      0x20\n        /* \"#utility.yul\":23155:23164   */\n      dup3\n        /* \"#utility.yul\":23151:23169   */\n      add\n        /* \"#utility.yul\":23143:23169   */\n      swap1\n      pop\n        /* \"#utility.yul\":23215:23224   */\n      dup2\n        /* \"#utility.yul\":23209:23213   */\n      dup2\n        /* \"#utility.yul\":23205:23225   */\n      sub\n        /* \"#utility.yul\":23201:23202   */\n      0x00\n        /* \"#utility.yul\":23190:23199   */\n      dup4\n        /* \"#utility.yul\":23186:23203   */\n      add\n        /* \"#utility.yul\":23179:23226   */\n      mstore\n        /* \"#utility.yul\":23243:23374   */\n      tag_674\n        /* \"#utility.yul\":23369:23373   */\n      dup2\n        /* \"#utility.yul\":23243:23374   */\n      tag_398\n      jump\t// in\n    tag_674:\n        /* \"#utility.yul\":23235:23374   */\n      swap1\n      pop\n        /* \"#utility.yul\":22962:23381   */\n      swap2\n      swap1\n      pop\n      jump\t// out\n        /* \"#utility.yul\":23387:23567   */\n    tag_107:\n        /* \"#utility.yul\":23435:23512   */\n      0x4e487b7100000000000000000000000000000000000000000000000000000000\n        /* \"#utility.yul\":23432:23433   */\n      0x00\n        /* \"#utility.yul\":23425:23513   */\n      mstore\n        /* \"#utility.yul\":23532:23536   */\n      0x32\n        /* \"#utility.yul\":23529:23530   */\n      0x04\n        /* \"#utility.yul\":23522:23537   */\n      mstore\n        /* \"#utility.yul\":23556:23560   */\n      0x24\n        /* \"#utility.yul\":23553:23554   */\n      0x00\n        /* \"#utility.yul\":23546:23561   */\n      revert\n        /* \"#utility.yul\":23573:23746   */\n    tag_399:\n        /* \"#utility.yul\":23713:23738   */\n      0x57726f6e672064657374696e6174696f6e20636861696e000000000000000000\n        /* \"#utility.yul\":23709:23710   */\n      0x00\n        /* \"#utility.yul\":23701:23707   */\n      dup3\n        /* \"#utility.yul\":23697:23711   */\n      add\n        /* \"#utility.yul\":23690:23739   */\n      mstore\n        /* \"#utility.yul\":23573:23746   */\n      pop\n      jump\t// out\n        /* \"#utility.yul\":23752:24118   */\n    tag_400:\n        /* \"#utility.yul\":23894:23897   */\n      0x00\n        /* \"#utility.yul\":23915:23982   */\n      tag_678\n        /* \"#utility.yul\":23979:23981   */\n      0x17\n        /* \"#utility.yul\":23974:23977   */\n      dup4\n        /* \"#utility.yul\":23915:23982   */\n      tag_374\n      jump\t// in\n    tag_678:\n        /* \"#utility.yul\":23908:23982   */\n      swap2\n      pop\n        /* \"#utility.yul\":23991:24084   */\n      tag_679\n        /* \"#utility.yul\":24080:24083   */\n      dup3\n        /* \"#utility.yul\":23991:24084   */\n      tag_399\n      jump\t// in\n    tag_679:\n        /* \"#utility.yul\":24109:24111   */\n      0x20\n        /* \"#utility.yul\":24104:24107   */\n      dup3\n        /* \"#utility.yul\":24100:24112   */\n      add\n        /* \"#utility.yul\":24093:24112   */\n      swap1\n      pop\n        /* \"#utility.yul\":23752:24118   */\n      swap2\n      swap1\n      pop\n      jump\t// out\n        /* \"#utility.yul\":24124:24543   */\n    tag_110:\n        /* \"#utility.yul\":24290:24294   */\n      0x00\n        /* \"#utility.yul\":24328:24330   */\n      0x20\n        /* \"#utility.yul\":24317:24326   */\n      dup3\n        /* \"#utility.yul\":24313:24331   */\n      add\n        /* \"#utility.yul\":24305:24331   */\n      swap1\n      pop\n        /* \"#utility.yul\":24377:24386   */\n      dup2\n        /* \"#utility.yul\":24371:24375   */\n      dup2\n        /* \"#utility.yul\":24367:24387   */\n      sub\n        /* \"#utility.yul\":24363:24364   */\n      0x00\n        /* \"#utility.yul\":24352:24361   */\n      dup4\n        /* \"#utility.yul\":24348:24365   */\n      add\n        /* \"#utility.yul\":24341:24388   */\n      mstore\n        /* \"#utility.yul\":24405:24536   */\n      tag_681\n        /* \"#utility.yul\":24531:24535   */\n      dup2\n        /* \"#utility.yul\":24405:24536   */\n      tag_400\n      jump\t// in\n    tag_681:\n        /* \"#utility.yul\":24397:24536   */\n      swap1\n      pop\n        /* \"#utility.yul\":24124:24543   */\n      swap2\n      swap1\n      pop\n      jump\t// out\n        /* \"#utility.yul\":24549:24721   */\n    tag_401:\n        /* \"#utility.yul\":24689:24713   */\n      0x5265706c61792061747461636b20646574656374656400000000000000000000\n        /* \"#utility.yul\":24685:24686   */\n      0x00\n        /* \"#utility.yul\":24677:24683   */\n      dup3\n        /* \"#utility.yul\":24673:24687   */\n      add\n        /* \"#utility.yul\":24666:24714   */\n      mstore\n        /* \"#utility.yul\":24549:24721   */\n      pop\n      jump\t// out\n        /* \"#utility.yul\":24727:25093   */\n    tag_402:\n        /* \"#utility.yul\":24869:24872   */\n      0x00\n        /* \"#utility.yul\":24890:24957   */\n      tag_684\n        /* \"#utility.yul\":24954:24956   */\n      0x16\n        /* \"#utility.yul\":24949:24952   */\n      dup4\n        /* \"#utility.yul\":24890:24957   */\n      tag_374\n      jump\t// in\n    tag_684:\n        /* \"#utility.yul\":24883:24957   */\n      swap2\n      pop\n        /* \"#utility.yul\":24966:25059   */\n      tag_685\n        /* \"#utility.yul\":25055:25058   */\n      dup3\n        /* \"#utility.yul\":24966:25059   */\n      tag_401\n      jump\t// in\n    tag_685:\n        /* \"#utility.yul\":25084:25086   */\n      0x20\n        /* \"#utility.yul\":25079:25082   */\n      dup3\n        /* \"#utility.yul\":25075:25087   */\n      add\n        /* \"#utility.yul\":25068:25087   */\n      swap1\n      pop\n        /* \"#utility.yul\":24727:25093   */\n      swap2\n      swap1\n      pop\n      jump\t// out\n        /* \"#utility.yul\":25099:25518   */\n    tag_117:\n        /* \"#utility.yul\":25265:25269   */\n      0x00\n        /* \"#utility.yul\":25303:25305   */\n      0x20\n        /* \"#utility.yul\":25292:25301   */\n      dup3\n        /* \"#utility.yul\":25288:25306   */\n      add\n        /* \"#utility.yul\":25280:25306   */\n      swap1\n      pop\n        /* \"#utility.yul\":25352:25361   */\n      dup2\n        /* \"#utility.yul\":25346:25350   */\n      dup2\n        /* \"#utility.yul\":25342:25362   */\n      sub\n        /* \"#utility.yul\":25338:25339   */\n      0x00\n        /* \"#utility.yul\":25327:25336   */\n      dup4\n        /* \"#utility.yul\":25323:25340   */\n      add\n        /* \"#utility.yul\":25316:25363   */\n      mstore\n        /* \"#utility.yul\":25380:25511   */\n      tag_687\n        /* \"#utility.yul\":25506:25510   */\n      dup2\n        /* \"#utility.yul\":25380:25511   */\n      tag_402\n      jump\t// in\n    tag_687:\n        /* \"#utility.yul\":25372:25511   */\n      swap1\n      pop\n        /* \"#utility.yul\":25099:25518   */\n      swap2\n      swap1\n      pop\n      jump\t// out\n        /* \"#utility.yul\":25524:25603   */\n    tag_403:\n        /* \"#utility.yul\":25563:25570   */\n      0x00\n        /* \"#utility.yul\":25592:25597   */\n      dup2\n        /* \"#utility.yul\":25581:25597   */\n      swap1\n      pop\n        /* \"#utility.yul\":25524:25603   */\n      swap2\n      swap1\n      pop\n      jump\t// out\n        /* \"#utility.yul\":25609:25766   */\n    tag_404:\n        /* \"#utility.yul\":25714:25759   */\n      tag_690\n        /* \"#utility.yul\":25734:25758   */\n      tag_691\n        /* \"#utility.yul\":25752:25757   */\n      dup3\n        /* \"#utility.yul\":25734:25758   */\n      tag_341\n      jump\t// in\n    tag_691:\n        /* \"#utility.yul\":25714:25759   */\n      tag_403\n      jump\t// in\n    tag_690:\n        /* \"#utility.yul\":25709:25712   */\n      dup3\n        /* \"#utility.yul\":25702:25760   */\n      mstore\n        /* \"#utility.yul\":25609:25766   */\n      pop\n      pop\n      jump\t// out\n        /* \"#utility.yul\":25772:26028   */\n    tag_127:\n        /* \"#utility.yul\":25884:25887   */\n      0x00\n        /* \"#utility.yul\":25899:25974   */\n      tag_693\n        /* \"#utility.yul\":25970:25973   */\n      dup3\n        /* \"#utility.yul\":25961:25967   */\n      dup5\n        /* \"#utility.yul\":25899:25974   */\n      tag_404\n      jump\t// in\n    tag_693:\n        /* \"#utility.yul\":25999:26001   */\n      0x20\n        /* \"#utility.yul\":25994:25997   */\n      dup3\n        /* \"#utility.yul\":25990:26002   */\n      add\n        /* \"#utility.yul\":25983:26002   */\n      swap2\n      pop\n        /* \"#utility.yul\":26019:26022   */\n      dup2\n        /* \"#utility.yul\":26012:26022   */\n      swap1\n      pop\n        /* \"#utility.yul\":25772:26028   */\n      swap3\n      swap2\n      pop\n      pop\n      jump\t// out\n        /* \"#utility.yul\":26034:26208   */\n    tag_405:\n        /* \"#utility.yul\":26174:26200   */\n      0x496e76616c6964207369676e6174757265206c656e6774680000000000000000\n        /* \"#utility.yul\":26170:26171   */\n      0x00\n        /* \"#utility.yul\":26162:26168   */\n      dup3\n        /* \"#utility.yul\":26158:26172   */\n      add\n        /* \"#utility.yul\":26151:26201   */\n      mstore\n        /* \"#utility.yul\":26034:26208   */\n      pop\n      jump\t// out\n        /* \"#utility.yul\":26214:26580   */\n    tag_406:\n        /* \"#utility.yul\":26356:26359   */\n      0x00\n        /* \"#utility.yul\":26377:26444   */\n      tag_696\n        /* \"#utility.yul\":26441:26443   */\n      0x18\n        /* \"#utility.yul\":26436:26439   */\n      dup4\n        /* \"#utility.yul\":26377:26444   */\n      tag_374\n      jump\t// in\n    tag_696:\n        /* \"#utility.yul\":26370:26444   */\n      swap2\n      pop\n        /* \"#utility.yul\":26453:26546   */\n      tag_697\n        /* \"#utility.yul\":26542:26545   */\n      dup3\n        /* \"#utility.yul\":26453:26546   */\n      tag_405\n      jump\t// in\n    tag_697:\n        /* \"#utility.yul\":26571:26573   */\n      0x20\n        /* \"#utility.yul\":26566:26569   */\n      dup3\n        /* \"#utility.yul\":26562:26574   */\n      add\n        /* \"#utility.yul\":26555:26574   */\n      swap1\n      pop\n        /* \"#utility.yul\":26214:26580   */\n      swap2\n      swap1\n      pop\n      jump\t// out\n        /* \"#utility.yul\":26586:27005   */\n    tag_139:\n        /* \"#utility.yul\":26752:26756   */\n      0x00\n        /* \"#utility.yul\":26790:26792   */\n      0x20\n        /* \"#utility.yul\":26779:26788   */\n      dup3\n        /* \"#utility.yul\":26775:26793   */\n      add\n        /* \"#utility.yul\":26767:26793   */\n      swap1\n      pop\n        /* \"#utility.yul\":26839:26848   */\n      dup2\n        /* \"#utility.yul\":26833:26837   */\n      dup2\n        /* \"#utility.yul\":26829:26849   */\n      sub\n        /* \"#utility.yul\":26825:26826   */\n      0x00\n        /* \"#utility.yul\":26814:26823   */\n      dup4\n        /* \"#utility.yul\":26810:26827   */\n      add\n        /* \"#utility.yul\":26803:26850   */\n      mstore\n        /* \"#utility.yul\":26867:26998   */\n      tag_699\n        /* \"#utility.yul\":26993:26997   */\n      dup2\n        /* \"#utility.yul\":26867:26998   */\n      tag_406\n      jump\t// in\n    tag_699:\n        /* \"#utility.yul\":26859:26998   */\n      swap1\n      pop\n        /* \"#utility.yul\":26586:27005   */\n      swap2\n      swap1\n      pop\n      jump\t// out\n        /* \"#utility.yul\":27011:27097   */\n    tag_407:\n        /* \"#utility.yul\":27046:27053   */\n      0x00\n        /* \"#utility.yul\":27086:27090   */\n      0xff\n        /* \"#utility.yul\":27079:27084   */\n      dup3\n        /* \"#utility.yul\":27075:27091   */\n      and\n        /* \"#utility.yul\":27064:27091   */\n      swap1\n      pop\n        /* \"#utility.yul\":27011:27097   */\n      swap2\n      swap1\n      pop\n      jump\t// out\n        /* \"#utility.yul\":27103:27215   */\n    tag_408:\n        /* \"#utility.yul\":27186:27208   */\n      tag_702\n        /* \"#utility.yul\":27202:27207   */\n      dup2\n        /* \"#utility.yul\":27186:27208   */\n      tag_407\n      jump\t// in\n    tag_702:\n        /* \"#utility.yul\":27181:27184   */\n      dup3\n        /* \"#utility.yul\":27174:27209   */\n      mstore\n        /* \"#utility.yul\":27103:27215   */\n      pop\n      pop\n      jump\t// out\n        /* \"#utility.yul\":27221:27766   */\n    tag_141:\n        /* \"#utility.yul\":27394:27398   */\n      0x00\n        /* \"#utility.yul\":27432:27435   */\n      0x80\n        /* \"#utility.yul\":27421:27430   */\n      dup3\n        /* \"#utility.yul\":27417:27436   */\n      add\n        /* \"#utility.yul\":27409:27436   */\n      swap1\n      pop\n        /* \"#utility.yul\":27446:27517   */\n      tag_704\n        /* \"#utility.yul\":27514:27515   */\n      0x00\n        /* \"#utility.yul\":27503:27512   */\n      dup4\n        /* \"#utility.yul\":27499:27516   */\n      add\n        /* \"#utility.yul\":27490:27496   */\n      dup8\n        /* \"#utility.yul\":27446:27517   */\n      tag_383\n      jump\t// in\n    tag_704:\n        /* \"#utility.yul\":27527:27595   */\n      tag_705\n        /* \"#utility.yul\":27591:27593   */\n      0x20\n        /* \"#utility.yul\":27580:27589   */\n      dup4\n        /* \"#utility.yul\":27576:27594   */\n      add\n        /* \"#utility.yul\":27567:27573   */\n      dup7\n        /* \"#utility.yul\":27527:27595   */\n      tag_408\n      jump\t// in\n    tag_705:\n        /* \"#utility.yul\":27605:27677   */\n      tag_706\n        /* \"#utility.yul\":27673:27675   */\n      0x40\n        /* \"#utility.yul\":27662:27671   */\n      dup4\n        /* \"#utility.yul\":27658:27676   */\n      add\n        /* \"#utility.yul\":27649:27655   */\n      dup6\n        /* \"#utility.yul\":27605:27677   */\n      tag_383\n      jump\t// in\n    tag_706:\n        /* \"#utility.yul\":27687:27759   */\n      tag_707\n        /* \"#utility.yul\":27755:27757   */\n      0x60\n        /* \"#utility.yul\":27744:27753   */\n      dup4\n        /* \"#utility.yul\":27740:27758   */\n      add\n        /* \"#utility.yul\":27731:27737   */\n      dup5\n        /* \"#utility.yul\":27687:27759   */\n      tag_383\n      jump\t// in\n    tag_707:\n        /* \"#utility.yul\":27221:27766   */\n      swap6\n      swap5\n      pop\n      pop\n      pop\n      pop\n      pop\n      jump\t// out\n        /* \"#utility.yul\":27772:27952   */\n    tag_409:\n        /* \"#utility.yul\":27820:27897   */\n      0x4e487b7100000000000000000000000000000000000000000000000000000000\n        /* \"#utility.yul\":27817:27818   */\n      0x00\n        /* \"#utility.yul\":27810:27898   */\n      mstore\n        /* \"#utility.yul\":27917:27921   */\n      0x11\n        /* \"#utility.yul\":27914:27915   */\n      0x04\n        /* \"#utility.yul\":27907:27922   */\n      mstore\n        /* \"#utility.yul\":27941:27945   */\n      0x24\n        /* \"#utility.yul\":27938:27939   */\n      0x00\n        /* \"#utility.yul\":27931:27946   */\n      revert\n        /* \"#utility.yul\":27958:28125   */\n    tag_152:\n        /* \"#utility.yul\":27995:27998   */\n      0x00\n        /* \"#utility.yul\":28018:28040   */\n      tag_710\n        /* \"#utility.yul\":28034:28039   */\n      dup3\n        /* \"#utility.yul\":28018:28040   */\n      tag_407\n      jump\t// in\n    tag_710:\n        /* \"#utility.yul\":28009:28040   */\n      swap2\n      pop\n        /* \"#utility.yul\":28062:28066   */\n      0xff\n        /* \"#utility.yul\":28055:28060   */\n      dup3\n        /* \"#utility.yul\":28052:28067   */\n      sub\n        /* \"#utility.yul\":28049:28090   */\n      tag_711\n      jumpi\n        /* \"#utility.yul\":28070:28088   */\n      tag_712\n      tag_409\n      jump\t// in\n    tag_712:\n        /* \"#utility.yul\":28049:28090   */\n    tag_711:\n        /* \"#utility.yul\":28117:28118   */\n      0x01\n        /* \"#utility.yul\":28110:28115   */\n      dup3\n        /* \"#utility.yul\":28106:28119   */\n      add\n        /* \"#utility.yul\":28099:28119   */\n      swap1\n      pop\n        /* \"#utility.yul\":27958:28125   */\n      swap2\n      swap1\n      pop\n      jump\t// out\n        /* \"#utility.yul\":28131:28298   */\n    tag_159:\n        /* \"#utility.yul\":28168:28171   */\n      0x00\n        /* \"#utility.yul\":28191:28213   */\n      tag_714\n        /* \"#utility.yul\":28207:28212   */\n      dup3\n        /* \"#utility.yul\":28191:28213   */\n      tag_407\n      jump\t// in\n    tag_714:\n        /* \"#utility.yul\":28182:28213   */\n      swap2\n      pop\n        /* \"#utility.yul\":28235:28239   */\n      0x00\n        /* \"#utility.yul\":28228:28233   */\n      dup3\n        /* \"#utility.yul\":28225:28240   */\n      sub\n        /* \"#utility.yul\":28222:28263   */\n      tag_715\n      jumpi\n        /* \"#utility.yul\":28243:28261   */\n      tag_716\n      tag_409\n      jump\t// in\n    tag_716:\n        /* \"#utility.yul\":28222:28263   */\n    tag_715:\n        /* \"#utility.yul\":28290:28291   */\n      0x01\n        /* \"#utility.yul\":28283:28288   */\n      dup3\n        /* \"#utility.yul\":28279:28292   */\n      sub\n        /* \"#utility.yul\":28272:28292   */\n      swap1\n      pop\n        /* \"#utility.yul\":28131:28298   */\n      swap2\n      swap1\n      pop\n      jump\t// out\n        /* \"#utility.yul\":28304:28495   */\n    tag_161:\n        /* \"#utility.yul\":28342:28346   */\n      0x00\n        /* \"#utility.yul\":28362:28380   */\n      tag_718\n        /* \"#utility.yul\":28378:28379   */\n      dup3\n        /* \"#utility.yul\":28362:28380   */\n      tag_407\n      jump\t// in\n    tag_718:\n        /* \"#utility.yul\":28357:28380   */\n      swap2\n      pop\n        /* \"#utility.yul\":28394:28412   */\n      tag_719\n        /* \"#utility.yul\":28410:28411   */\n      dup4\n        /* \"#utility.yul\":28394:28412   */\n      tag_407\n      jump\t// in\n    tag_719:\n        /* \"#utility.yul\":28389:28412   */\n      swap3\n      pop\n        /* \"#utility.yul\":28436:28437   */\n      dup3\n        /* \"#utility.yul\":28433:28434   */\n      dup3\n        /* \"#utility.yul\":28429:28438   */\n      sub\n        /* \"#utility.yul\":28421:28438   */\n      swap1\n      pop\n        /* \"#utility.yul\":28460:28464   */\n      0xff\n        /* \"#utility.yul\":28454:28458   */\n      dup2\n        /* \"#utility.yul\":28451:28465   */\n      gt\n        /* \"#utility.yul\":28448:28488   */\n      iszero\n      tag_720\n      jumpi\n        /* \"#utility.yul\":28468:28486   */\n      tag_721\n      tag_409\n      jump\t// in\n    tag_721:\n        /* \"#utility.yul\":28448:28488   */\n    tag_720:\n        /* \"#utility.yul\":28304:28495   */\n      swap3\n      swap2\n      pop\n      pop\n      jump\t// out\n        /* \"#utility.yul\":28501:28689   */\n    tag_163:\n        /* \"#utility.yul\":28539:28542   */\n      0x00\n        /* \"#utility.yul\":28558:28576   */\n      tag_723\n        /* \"#utility.yul\":28574:28575   */\n      dup3\n        /* \"#utility.yul\":28558:28576   */\n      tag_407\n      jump\t// in\n    tag_723:\n        /* \"#utility.yul\":28553:28576   */\n      swap2\n      pop\n        /* \"#utility.yul\":28590:28608   */\n      tag_724\n        /* \"#utility.yul\":28606:28607   */\n      dup4\n        /* \"#utility.yul\":28590:28608   */\n      tag_407\n      jump\t// in\n    tag_724:\n        /* \"#utility.yul\":28585:28608   */\n      swap3\n      pop\n        /* \"#utility.yul\":28631:28632   */\n      dup3\n        /* \"#utility.yul\":28628:28629   */\n      dup3\n        /* \"#utility.yul\":28624:28633   */\n      add\n        /* \"#utility.yul\":28617:28633   */\n      swap1\n      pop\n        /* \"#utility.yul\":28654:28658   */\n      0xff\n        /* \"#utility.yul\":28649:28652   */\n      dup2\n        /* \"#utility.yul\":28646:28659   */\n      gt\n        /* \"#utility.yul\":28643:28682   */\n      iszero\n      tag_725\n      jumpi\n        /* \"#utility.yul\":28662:28680   */\n      tag_726\n      tag_409\n      jump\t// in\n    tag_726:\n        /* \"#utility.yul\":28643:28682   */\n    tag_725:\n        /* \"#utility.yul\":28501:28689   */\n      swap3\n      swap2\n      pop\n      pop\n      jump\t// out\n        /* \"#utility.yul\":28695:28886   */\n    tag_172:\n        /* \"#utility.yul\":28735:28738   */\n      0x00\n        /* \"#utility.yul\":28754:28774   */\n      tag_728\n        /* \"#utility.yul\":28772:28773   */\n      dup3\n        /* \"#utility.yul\":28754:28774   */\n      tag_341\n      jump\t// in\n    tag_728:\n        /* \"#utility.yul\":28749:28774   */\n      swap2\n      pop\n        /* \"#utility.yul\":28788:28808   */\n      tag_729\n        /* \"#utility.yul\":28806:28807   */\n      dup4\n        /* \"#utility.yul\":28788:28808   */\n      tag_341\n      jump\t// in\n    tag_729:\n        /* \"#utility.yul\":28783:28808   */\n      swap3\n      pop\n        /* \"#utility.yul\":28831:28832   */\n      dup3\n        /* \"#utility.yul\":28828:28829   */\n      dup3\n        /* \"#utility.yul\":28824:28833   */\n      add\n        /* \"#utility.yul\":28817:28833   */\n      swap1\n      pop\n        /* \"#utility.yul\":28852:28855   */\n      dup1\n        /* \"#utility.yul\":28849:28850   */\n      dup3\n        /* \"#utility.yul\":28846:28856   */\n      gt\n        /* \"#utility.yul\":28843:28879   */\n      iszero\n      tag_730\n      jumpi\n        /* \"#utility.yul\":28859:28877   */\n      tag_731\n      tag_409\n      jump\t// in\n    tag_731:\n        /* \"#utility.yul\":28843:28879   */\n    tag_730:\n        /* \"#utility.yul\":28695:28886   */\n      swap3\n      swap2\n      pop\n      pop\n      jump\t// out\n        /* \"#utility.yul\":28924:29096   */\n    tag_410:\n        /* \"#utility.yul\":29047:29090   */\n      tag_733\n        /* \"#utility.yul\":29083:29089   */\n      0x0100\n        /* \"#utility.yul\":29078:29081   */\n      dup4\n        /* \"#utility.yul\":29071:29076   */\n      dup4\n        /* \"#utility.yul\":29047:29090   */\n      tag_384\n      jump\t// in\n    tag_733:\n        /* \"#utility.yul\":28924:29096   */\n      pop\n      pop\n      jump\t// out\n        /* \"#utility.yul\":29102:30137   */\n    tag_179:\n        /* \"#utility.yul\":29519:29523   */\n      0x00\n        /* \"#utility.yul\":29557:29560   */\n      0x0200\n        /* \"#utility.yul\":29546:29555   */\n      dup3\n        /* \"#utility.yul\":29542:29561   */\n      add\n        /* \"#utility.yul\":29534:29561   */\n      swap1\n      pop\n        /* \"#utility.yul\":29571:29690   */\n      tag_735\n        /* \"#utility.yul\":29687:29688   */\n      0x00\n        /* \"#utility.yul\":29676:29685   */\n      dup4\n        /* \"#utility.yul\":29672:29689   */\n      add\n        /* \"#utility.yul\":29663:29669   */\n      dup8\n        /* \"#utility.yul\":29571:29690   */\n      tag_385\n      jump\t// in\n    tag_735:\n        /* \"#utility.yul\":29700:29868   */\n      tag_736\n        /* \"#utility.yul\":29864:29866   */\n      0x40\n        /* \"#utility.yul\":29853:29862   */\n      dup4\n        /* \"#utility.yul\":29849:29867   */\n      add\n        /* \"#utility.yul\":29840:29846   */\n      dup7\n        /* \"#utility.yul\":29700:29868   */\n      tag_393\n      jump\t// in\n    tag_736:\n        /* \"#utility.yul\":29878:29999   */\n      tag_737\n        /* \"#utility.yul\":29994:29997   */\n      0xc0\n        /* \"#utility.yul\":29983:29992   */\n      dup4\n        /* \"#utility.yul\":29979:29998   */\n      add\n        /* \"#utility.yul\":29970:29976   */\n      dup6\n        /* \"#utility.yul\":29878:29999   */\n      tag_385\n      jump\t// in\n    tag_737:\n        /* \"#utility.yul\":30009:30130   */\n      tag_738\n        /* \"#utility.yul\":30125:30128   */\n      0x0100\n        /* \"#utility.yul\":30114:30123   */\n      dup4\n        /* \"#utility.yul\":30110:30129   */\n      add\n        /* \"#utility.yul\":30101:30107   */\n      dup5\n        /* \"#utility.yul\":30009:30130   */\n      tag_410\n      jump\t// in\n    tag_738:\n        /* \"#utility.yul\":29102:30137   */\n      swap6\n      swap5\n      pop\n      pop\n      pop\n      pop\n      pop\n      jump\t// out\n        /* \"#utility.yul\":30143:30854   */\n    tag_204:\n        /* \"#utility.yul\":30350:30354   */\n      0x00\n        /* \"#utility.yul\":30388:30390   */\n      0x60\n        /* \"#utility.yul\":30377:30386   */\n      dup3\n        /* \"#utility.yul\":30373:30391   */\n      add\n        /* \"#utility.yul\":30365:30391   */\n      swap1\n      pop\n        /* \"#utility.yul\":30437:30446   */\n      dup2\n        /* \"#utility.yul\":30431:30435   */\n      dup2\n        /* \"#utility.yul\":30427:30447   */\n      sub\n        /* \"#utility.yul\":30423:30424   */\n      0x00\n        /* \"#utility.yul\":30412:30421   */\n      dup4\n        /* \"#utility.yul\":30408:30425   */\n      add\n        /* \"#utility.yul\":30401:30448   */\n      mstore\n        /* \"#utility.yul\":30465:30543   */\n      tag_740\n        /* \"#utility.yul\":30538:30542   */\n      dup2\n        /* \"#utility.yul\":30529:30535   */\n      dup7\n        /* \"#utility.yul\":30465:30543   */\n      tag_375\n      jump\t// in\n    tag_740:\n        /* \"#utility.yul\":30457:30543   */\n      swap1\n      pop\n        /* \"#utility.yul\":30590:30599   */\n      dup2\n        /* \"#utility.yul\":30584:30588   */\n      dup2\n        /* \"#utility.yul\":30580:30600   */\n      sub\n        /* \"#utility.yul\":30575:30577   */\n      0x20\n        /* \"#utility.yul\":30564:30573   */\n      dup4\n        /* \"#utility.yul\":30560:30578   */\n      add\n        /* \"#utility.yul\":30553:30601   */\n      mstore\n        /* \"#utility.yul\":30618:30696   */\n      tag_741\n        /* \"#utility.yul\":30691:30695   */\n      dup2\n        /* \"#utility.yul\":30682:30688   */\n      dup6\n        /* \"#utility.yul\":30618:30696   */\n      tag_375\n      jump\t// in\n    tag_741:\n        /* \"#utility.yul\":30610:30696   */\n      swap1\n      pop\n        /* \"#utility.yul\":30743:30752   */\n      dup2\n        /* \"#utility.yul\":30737:30741   */\n      dup2\n        /* \"#utility.yul\":30733:30753   */\n      sub\n        /* \"#utility.yul\":30728:30730   */\n      0x40\n        /* \"#utility.yul\":30717:30726   */\n      dup4\n        /* \"#utility.yul\":30713:30731   */\n      add\n        /* \"#utility.yul\":30706:30754   */\n      mstore\n        /* \"#utility.yul\":30771:30847   */\n      tag_742\n        /* \"#utility.yul\":30842:30846   */\n      dup2\n        /* \"#utility.yul\":30833:30839   */\n      dup5\n        /* \"#utility.yul\":30771:30847   */\n      tag_348\n      jump\t// in\n    tag_742:\n        /* \"#utility.yul\":30763:30847   */\n      swap1\n      pop\n        /* \"#utility.yul\":30143:30854   */\n      swap5\n      swap4\n      pop\n      pop\n      pop\n      pop\n      jump\t// out\n        /* \"#utility.yul\":30860:30978   */\n    tag_411:\n        /* \"#utility.yul\":30947:30971   */\n      tag_744\n        /* \"#utility.yul\":30965:30970   */\n      dup2\n        /* \"#utility.yul\":30947:30971   */\n      tag_341\n      jump\t// in\n    tag_744:\n        /* \"#utility.yul\":30942:30945   */\n      dup3\n        /* \"#utility.yul\":30935:30972   */\n      mstore\n        /* \"#utility.yul\":30860:30978   */\n      pop\n      pop\n      jump\t// out\n        /* \"#utility.yul\":30984:31628   */\n    tag_226:\n        /* \"#utility.yul\":31181:31185   */\n      0x00\n        /* \"#utility.yul\":31219:31222   */\n      0x80\n        /* \"#utility.yul\":31208:31217   */\n      dup3\n        /* \"#utility.yul\":31204:31223   */\n      add\n        /* \"#utility.yul\":31196:31223   */\n      swap1\n      pop\n        /* \"#utility.yul\":31233:31304   */\n      tag_746\n        /* \"#utility.yul\":31301:31302   */\n      0x00\n        /* \"#utility.yul\":31290:31299   */\n      dup4\n        /* \"#utility.yul\":31286:31303   */\n      add\n        /* \"#utility.yul\":31277:31283   */\n      dup8\n        /* \"#utility.yul\":31233:31304   */\n      tag_356\n      jump\t// in\n    tag_746:\n        /* \"#utility.yul\":31351:31360   */\n      dup2\n        /* \"#utility.yul\":31345:31349   */\n      dup2\n        /* \"#utility.yul\":31341:31361   */\n      sub\n        /* \"#utility.yul\":31336:31338   */\n      0x20\n        /* \"#utility.yul\":31325:31334   */\n      dup4\n        /* \"#utility.yul\":31321:31339   */\n      add\n        /* \"#utility.yul\":31314:31362   */\n      mstore\n        /* \"#utility.yul\":31379:31457   */\n      tag_747\n        /* \"#utility.yul\":31452:31456   */\n      dup2\n        /* \"#utility.yul\":31443:31449   */\n      dup7\n        /* \"#utility.yul\":31379:31457   */\n      tag_375\n      jump\t// in\n    tag_747:\n        /* \"#utility.yul\":31371:31457   */\n      swap1\n      pop\n        /* \"#utility.yul\":31467:31539   */\n      tag_748\n        /* \"#utility.yul\":31535:31537   */\n      0x40\n        /* \"#utility.yul\":31524:31533   */\n      dup4\n        /* \"#utility.yul\":31520:31538   */\n      add\n        /* \"#utility.yul\":31511:31517   */\n      dup6\n        /* \"#utility.yul\":31467:31539   */\n      tag_411\n      jump\t// in\n    tag_748:\n        /* \"#utility.yul\":31549:31621   */\n      tag_749\n        /* \"#utility.yul\":31617:31619   */\n      0x60\n        /* \"#utility.yul\":31606:31615   */\n      dup4\n        /* \"#utility.yul\":31602:31620   */\n      add\n        /* \"#utility.yul\":31593:31599   */\n      dup5\n        /* \"#utility.yul\":31549:31621   */\n      tag_411\n      jump\t// in\n    tag_749:\n        /* \"#utility.yul\":30984:31628   */\n      swap6\n      swap5\n      pop\n      pop\n      pop\n      pop\n      pop\n      jump\t// out\n        /* \"#utility.yul\":31634:31782   */\n    tag_412:\n        /* \"#utility.yul\":31736:31747   */\n      0x00\n        /* \"#utility.yul\":31773:31776   */\n      dup2\n        /* \"#utility.yul\":31758:31776   */\n      swap1\n      pop\n        /* \"#utility.yul\":31634:31782   */\n      swap3\n      swap2\n      pop\n      pop\n      jump\t// out\n        /* \"#utility.yul\":31788:32002   */\n    tag_413:\n        /* \"#utility.yul\":31928:31994   */\n      0x19457468657265756d205369676e6564204d6573736167653a0a333200000000\n        /* \"#utility.yul\":31924:31925   */\n      0x00\n        /* \"#utility.yul\":31916:31922   */\n      dup3\n        /* \"#utility.yul\":31912:31926   */\n      add\n        /* \"#utility.yul\":31905:31995   */\n      mstore\n        /* \"#utility.yul\":31788:32002   */\n      pop\n      jump\t// out\n        /* \"#utility.yul\":32008:32410   */\n    tag_414:\n        /* \"#utility.yul\":32168:32171   */\n      0x00\n        /* \"#utility.yul\":32189:32274   */\n      tag_753\n        /* \"#utility.yul\":32271:32273   */\n      0x1c\n        /* \"#utility.yul\":32266:32269   */\n      dup4\n        /* \"#utility.yul\":32189:32274   */\n      tag_412\n      jump\t// in\n    tag_753:\n        /* \"#utility.yul\":32182:32274   */\n      swap2\n      pop\n        /* \"#utility.yul\":32283:32376   */\n      tag_754\n        /* \"#utility.yul\":32372:32375   */\n      dup3\n        /* \"#utility.yul\":32283:32376   */\n      tag_413\n      jump\t// in\n    tag_754:\n        /* \"#utility.yul\":32401:32403   */\n      0x1c\n        /* \"#utility.yul\":32396:32399   */\n      dup3\n        /* \"#utility.yul\":32392:32404   */\n      add\n        /* \"#utility.yul\":32385:32404   */\n      swap1\n      pop\n        /* \"#utility.yul\":32008:32410   */\n      swap2\n      swap1\n      pop\n      jump\t// out\n        /* \"#utility.yul\":32416:32495   */\n    tag_415:\n        /* \"#utility.yul\":32455:32462   */\n      0x00\n        /* \"#utility.yul\":32484:32489   */\n      dup2\n        /* \"#utility.yul\":32473:32489   */\n      swap1\n      pop\n        /* \"#utility.yul\":32416:32495   */\n      swap2\n      swap1\n      pop\n      jump\t// out\n        /* \"#utility.yul\":32501:32658   */\n    tag_416:\n        /* \"#utility.yul\":32606:32651   */\n      tag_757\n        /* \"#utility.yul\":32626:32650   */\n      tag_758\n        /* \"#utility.yul\":32644:32649   */\n      dup3\n        /* \"#utility.yul\":32626:32650   */\n      tag_357\n      jump\t// in\n    tag_758:\n        /* \"#utility.yul\":32606:32651   */\n      tag_415\n      jump\t// in\n    tag_757:\n        /* \"#utility.yul\":32601:32604   */\n      dup3\n        /* \"#utility.yul\":32594:32652   */\n      mstore\n        /* \"#utility.yul\":32501:32658   */\n      pop\n      pop\n      jump\t// out\n        /* \"#utility.yul\":32664:33186   */\n    tag_238:\n        /* \"#utility.yul\":32877:32880   */\n      0x00\n        /* \"#utility.yul\":32899:33047   */\n      tag_760\n        /* \"#utility.yul\":33043:33046   */\n      dup3\n        /* \"#utility.yul\":32899:33047   */\n      tag_414\n      jump\t// in\n    tag_760:\n        /* \"#utility.yul\":32892:33047   */\n      swap2\n      pop\n        /* \"#utility.yul\":33057:33132   */\n      tag_761\n        /* \"#utility.yul\":33128:33131   */\n      dup3\n        /* \"#utility.yul\":33119:33125   */\n      dup5\n        /* \"#utility.yul\":33057:33132   */\n      tag_416\n      jump\t// in\n    tag_761:\n        /* \"#utility.yul\":33157:33159   */\n      0x20\n        /* \"#utility.yul\":33152:33155   */\n      dup3\n        /* \"#utility.yul\":33148:33160   */\n      add\n        /* \"#utility.yul\":33141:33160   */\n      swap2\n      pop\n        /* \"#utility.yul\":33177:33180   */\n      dup2\n        /* \"#utility.yul\":33170:33180   */\n      swap1\n      pop\n        /* \"#utility.yul\":32664:33186   */\n      swap3\n      swap2\n      pop\n      pop\n      jump\t// out\n        /* \"#utility.yul\":33192:34012   */\n    tag_251:\n        /* \"#utility.yul\":33416:33419   */\n      0x00\n        /* \"#utility.yul\":33431:33506   */\n      tag_763\n        /* \"#utility.yul\":33502:33505   */\n      dup3\n        /* \"#utility.yul\":33493:33499   */\n      dup9\n        /* \"#utility.yul\":33431:33506   */\n      tag_404\n      jump\t// in\n    tag_763:\n        /* \"#utility.yul\":33531:33533   */\n      0x20\n        /* \"#utility.yul\":33526:33529   */\n      dup3\n        /* \"#utility.yul\":33522:33534   */\n      add\n        /* \"#utility.yul\":33515:33534   */\n      swap2\n      pop\n        /* \"#utility.yul\":33544:33619   */\n      tag_764\n        /* \"#utility.yul\":33615:33618   */\n      dup3\n        /* \"#utility.yul\":33606:33612   */\n      dup8\n        /* \"#utility.yul\":33544:33619   */\n      tag_404\n      jump\t// in\n    tag_764:\n        /* \"#utility.yul\":33644:33646   */\n      0x20\n        /* \"#utility.yul\":33639:33642   */\n      dup3\n        /* \"#utility.yul\":33635:33647   */\n      add\n        /* \"#utility.yul\":33628:33647   */\n      swap2\n      pop\n        /* \"#utility.yul\":33657:33732   */\n      tag_765\n        /* \"#utility.yul\":33728:33731   */\n      dup3\n        /* \"#utility.yul\":33719:33725   */\n      dup7\n        /* \"#utility.yul\":33657:33732   */\n      tag_404\n      jump\t// in\n    tag_765:\n        /* \"#utility.yul\":33757:33759   */\n      0x20\n        /* \"#utility.yul\":33752:33755   */\n      dup3\n        /* \"#utility.yul\":33748:33760   */\n      add\n        /* \"#utility.yul\":33741:33760   */\n      swap2\n      pop\n        /* \"#utility.yul\":33770:33845   */\n      tag_766\n        /* \"#utility.yul\":33841:33844   */\n      dup3\n        /* \"#utility.yul\":33832:33838   */\n      dup6\n        /* \"#utility.yul\":33770:33845   */\n      tag_404\n      jump\t// in\n    tag_766:\n        /* \"#utility.yul\":33870:33872   */\n      0x20\n        /* \"#utility.yul\":33865:33868   */\n      dup3\n        /* \"#utility.yul\":33861:33873   */\n      add\n        /* \"#utility.yul\":33854:33873   */\n      swap2\n      pop\n        /* \"#utility.yul\":33883:33958   */\n      tag_767\n        /* \"#utility.yul\":33954:33957   */\n      dup3\n        /* \"#utility.yul\":33945:33951   */\n      dup5\n        /* \"#utility.yul\":33883:33958   */\n      tag_404\n      jump\t// in\n    tag_767:\n        /* \"#utility.yul\":33983:33985   */\n      0x20\n        /* \"#utility.yul\":33978:33981   */\n      dup3\n        /* \"#utility.yul\":33974:33986   */\n      add\n        /* \"#utility.yul\":33967:33986   */\n      swap2\n      pop\n        /* \"#utility.yul\":34003:34006   */\n      dup2\n        /* \"#utility.yul\":33996:34006   */\n      swap1\n      pop\n        /* \"#utility.yul\":33192:34012   */\n      swap7\n      swap6\n      pop\n      pop\n      pop\n      pop\n      pop\n      pop\n      jump\t// out\n        /* \"#utility.yul\":34018:34329   */\n    tag_417:\n        /* \"#utility.yul\":34095:34099   */\n      0x00\n        /* \"#utility.yul\":34185:34203   */\n      0xffffffffffffffff\n        /* \"#utility.yul\":34177:34183   */\n      dup3\n        /* \"#utility.yul\":34174:34204   */\n      gt\n        /* \"#utility.yul\":34171:34227   */\n      iszero\n      tag_769\n      jumpi\n        /* \"#utility.yul\":34207:34225   */\n      tag_770\n      tag_166\n      jump\t// in\n    tag_770:\n        /* \"#utility.yul\":34171:34227   */\n    tag_769:\n        /* \"#utility.yul\":34257:34261   */\n      0x20\n        /* \"#utility.yul\":34249:34255   */\n      dup3\n        /* \"#utility.yul\":34245:34262   */\n      mul\n        /* \"#utility.yul\":34237:34262   */\n      swap1\n      pop\n        /* \"#utility.yul\":34317:34321   */\n      0x20\n        /* \"#utility.yul\":34311:34315   */\n      dup2\n        /* \"#utility.yul\":34307:34322   */\n      add\n        /* \"#utility.yul\":34299:34322   */\n      swap1\n      pop\n        /* \"#utility.yul\":34018:34329   */\n      swap2\n      swap1\n      pop\n      jump\t// out\n        /* \"#utility.yul\":34335:34478   */\n    tag_418:\n        /* \"#utility.yul\":34392:34397   */\n      0x00\n        /* \"#utility.yul\":34423:34429   */\n      dup2\n        /* \"#utility.yul\":34417:34430   */\n      mload\n        /* \"#utility.yul\":34408:34430   */\n      swap1\n      pop\n        /* \"#utility.yul\":34439:34472   */\n      tag_772\n        /* \"#utility.yul\":34466:34471   */\n      dup2\n        /* \"#utility.yul\":34439:34472   */\n      tag_379\n      jump\t// in\n    tag_772:\n        /* \"#utility.yul\":34335:34478   */\n      swap3\n      swap2\n      pop\n      pop\n      jump\t// out\n        /* \"#utility.yul\":34501:35233   */\n    tag_419:\n        /* \"#utility.yul\":34608:34613   */\n      0x00\n        /* \"#utility.yul\":34633:34714   */\n      tag_774\n        /* \"#utility.yul\":34649:34713   */\n      tag_775\n        /* \"#utility.yul\":34706:34712   */\n      dup5\n        /* \"#utility.yul\":34649:34713   */\n      tag_417\n      jump\t// in\n    tag_775:\n        /* \"#utility.yul\":34633:34714   */\n      tag_362\n      jump\t// in\n    tag_774:\n        /* \"#utility.yul\":34624:34714   */\n      swap1\n      pop\n        /* \"#utility.yul\":34734:34739   */\n      dup1\n        /* \"#utility.yul\":34763:34769   */\n      dup4\n        /* \"#utility.yul\":34756:34761   */\n      dup3\n        /* \"#utility.yul\":34749:34770   */\n      mstore\n        /* \"#utility.yul\":34797:34801   */\n      0x20\n        /* \"#utility.yul\":34790:34795   */\n      dup3\n        /* \"#utility.yul\":34786:34802   */\n      add\n        /* \"#utility.yul\":34779:34802   */\n      swap1\n      pop\n        /* \"#utility.yul\":34850:34854   */\n      0x20\n        /* \"#utility.yul\":34842:34848   */\n      dup5\n        /* \"#utility.yul\":34838:34855   */\n      mul\n        /* \"#utility.yul\":34830:34836   */\n      dup4\n        /* \"#utility.yul\":34826:34856   */\n      add\n        /* \"#utility.yul\":34879:34882   */\n      dup6\n        /* \"#utility.yul\":34871:34877   */\n      dup2\n        /* \"#utility.yul\":34868:34883   */\n      gt\n        /* \"#utility.yul\":34865:34987   */\n      iszero\n      tag_776\n      jumpi\n        /* \"#utility.yul\":34898:34977   */\n      tag_777\n      tag_333\n      jump\t// in\n    tag_777:\n        /* \"#utility.yul\":34865:34987   */\n    tag_776:\n        /* \"#utility.yul\":35013:35019   */\n      dup4\n        /* \"#utility.yul\":34996:35227   */\n    tag_778:\n        /* \"#utility.yul\":35030:35036   */\n      dup2\n        /* \"#utility.yul\":35025:35028   */\n      dup2\n        /* \"#utility.yul\":35022:35037   */\n      lt\n        /* \"#utility.yul\":34996:35227   */\n      iszero\n      tag_780\n      jumpi\n        /* \"#utility.yul\":35105:35108   */\n      dup1\n        /* \"#utility.yul\":35134:35182   */\n      tag_781\n        /* \"#utility.yul\":35178:35181   */\n      dup9\n        /* \"#utility.yul\":35166:35176   */\n      dup3\n        /* \"#utility.yul\":35134:35182   */\n      tag_418\n      jump\t// in\n    tag_781:\n        /* \"#utility.yul\":35129:35132   */\n      dup5\n        /* \"#utility.yul\":35122:35183   */\n      mstore\n        /* \"#utility.yul\":35212:35216   */\n      0x20\n        /* \"#utility.yul\":35207:35210   */\n      dup5\n        /* \"#utility.yul\":35203:35217   */\n      add\n        /* \"#utility.yul\":35196:35217   */\n      swap4\n      pop\n        /* \"#utility.yul\":35072:35227   */\n      pop\n        /* \"#utility.yul\":35056:35060   */\n      0x20\n        /* \"#utility.yul\":35051:35054   */\n      dup2\n        /* \"#utility.yul\":35047:35061   */\n      add\n        /* \"#utility.yul\":35040:35061   */\n      swap1\n      pop\n        /* \"#utility.yul\":34996:35227   */\n      jump(tag_778)\n    tag_780:\n        /* \"#utility.yul\":35000:35021   */\n      pop\n        /* \"#utility.yul\":34614:35233   */\n      pop\n      pop\n        /* \"#utility.yul\":34501:35233   */\n      swap4\n      swap3\n      pop\n      pop\n      pop\n      jump\t// out\n        /* \"#utility.yul\":35256:35641   */\n    tag_420:\n        /* \"#utility.yul\":35338:35343   */\n      0x00\n        /* \"#utility.yul\":35387:35390   */\n      dup3\n        /* \"#utility.yul\":35380:35384   */\n      0x1f\n        /* \"#utility.yul\":35372:35378   */\n      dup4\n        /* \"#utility.yul\":35368:35385   */\n      add\n        /* \"#utility.yul\":35364:35391   */\n      slt\n        /* \"#utility.yul\":35354:35476   */\n      tag_783\n      jumpi\n        /* \"#utility.yul\":35395:35474   */\n      tag_784\n      tag_337\n      jump\t// in\n    tag_784:\n        /* \"#utility.yul\":35354:35476   */\n    tag_783:\n        /* \"#utility.yul\":35505:35511   */\n      dup2\n        /* \"#utility.yul\":35499:35512   */\n      mload\n        /* \"#utility.yul\":35530:35635   */\n      tag_785\n        /* \"#utility.yul\":35631:35634   */\n      dup5\n        /* \"#utility.yul\":35623:35629   */\n      dup3\n        /* \"#utility.yul\":35616:35620   */\n      0x20\n        /* \"#utility.yul\":35608:35614   */\n      dup7\n        /* \"#utility.yul\":35604:35621   */\n      add\n        /* \"#utility.yul\":35530:35635   */\n      tag_419\n      jump\t// in\n    tag_785:\n        /* \"#utility.yul\":35521:35635   */\n      swap2\n      pop\n        /* \"#utility.yul\":35344:35641   */\n      pop\n        /* \"#utility.yul\":35256:35641   */\n      swap3\n      swap2\n      pop\n      pop\n      jump\t// out\n        /* \"#utility.yul\":35647:36201   */\n    tag_257:\n        /* \"#utility.yul\":35742:35748   */\n      0x00\n        /* \"#utility.yul\":35791:35793   */\n      0x20\n        /* \"#utility.yul\":35779:35788   */\n      dup3\n        /* \"#utility.yul\":35770:35777   */\n      dup5\n        /* \"#utility.yul\":35766:35789   */\n      sub\n        /* \"#utility.yul\":35762:35794   */\n      slt\n        /* \"#utility.yul\":35759:35878   */\n      iszero\n      tag_787\n      jumpi\n        /* \"#utility.yul\":35797:35876   */\n      tag_788\n      tag_331\n      jump\t// in\n    tag_788:\n        /* \"#utility.yul\":35759:35878   */\n    tag_787:\n        /* \"#utility.yul\":35938:35939   */\n      0x00\n        /* \"#utility.yul\":35927:35936   */\n      dup3\n        /* \"#utility.yul\":35923:35940   */\n      add\n        /* \"#utility.yul\":35917:35941   */\n      mload\n        /* \"#utility.yul\":35968:35986   */\n      0xffffffffffffffff\n        /* \"#utility.yul\":35960:35966   */\n      dup2\n        /* \"#utility.yul\":35957:35987   */\n      gt\n        /* \"#utility.yul\":35954:36071   */\n      iszero\n      tag_789\n      jumpi\n        /* \"#utility.yul\":35990:36069   */\n      tag_790\n      tag_332\n      jump\t// in\n    tag_790:\n        /* \"#utility.yul\":35954:36071   */\n    tag_789:\n        /* \"#utility.yul\":36095:36184   */\n      tag_791\n        /* \"#utility.yul\":36176:36183   */\n      dup5\n        /* \"#utility.yul\":36167:36173   */\n      dup3\n        /* \"#utility.yul\":36156:36165   */\n      dup6\n        /* \"#utility.yul\":36152:36174   */\n      add\n        /* \"#utility.yul\":36095:36184   */\n      tag_420\n      jump\t// in\n    tag_791:\n        /* \"#utility.yul\":36085:36184   */\n      swap2\n      pop\n        /* \"#utility.yul\":35888:36194   */\n      pop\n        /* \"#utility.yul\":35647:36201   */\n      swap3\n      swap2\n      pop\n      pop\n      jump\t// out\n        /* \"#utility.yul\":36207:36617   */\n    tag_262:\n        /* \"#utility.yul\":36247:36254   */\n      0x00\n        /* \"#utility.yul\":36270:36290   */\n      tag_793\n        /* \"#utility.yul\":36288:36289   */\n      dup3\n        /* \"#utility.yul\":36270:36290   */\n      tag_341\n      jump\t// in\n    tag_793:\n        /* \"#utility.yul\":36265:36290   */\n      swap2\n      pop\n        /* \"#utility.yul\":36304:36324   */\n      tag_794\n        /* \"#utility.yul\":36322:36323   */\n      dup4\n        /* \"#utility.yul\":36304:36324   */\n      tag_341\n      jump\t// in\n    tag_794:\n        /* \"#utility.yul\":36299:36324   */\n      swap3\n      pop\n        /* \"#utility.yul\":36359:36360   */\n      dup3\n        /* \"#utility.yul\":36356:36357   */\n      dup3\n        /* \"#utility.yul\":36352:36361   */\n      mul\n        /* \"#utility.yul\":36381:36411   */\n      tag_795\n        /* \"#utility.yul\":36399:36410   */\n      dup2\n        /* \"#utility.yul\":36381:36411   */\n      tag_341\n      jump\t// in\n    tag_795:\n        /* \"#utility.yul\":36370:36411   */\n      swap2\n      pop\n        /* \"#utility.yul\":36560:36561   */\n      dup3\n        /* \"#utility.yul\":36551:36558   */\n      dup3\n        /* \"#utility.yul\":36547:36562   */\n      div\n        /* \"#utility.yul\":36544:36545   */\n      dup5\n        /* \"#utility.yul\":36541:36563   */\n      eq\n        /* \"#utility.yul\":36521:36522   */\n      dup4\n        /* \"#utility.yul\":36514:36523   */\n      iszero\n        /* \"#utility.yul\":36494:36577   */\n      or\n        /* \"#utility.yul\":36471:36610   */\n      tag_796\n      jumpi\n        /* \"#utility.yul\":36590:36608   */\n      tag_797\n      tag_409\n      jump\t// in\n    tag_797:\n        /* \"#utility.yul\":36471:36610   */\n    tag_796:\n        /* \"#utility.yul\":36255:36617   */\n      pop\n        /* \"#utility.yul\":36207:36617   */\n      swap3\n      swap2\n      pop\n      pop\n      jump\t// out\n        /* \"#utility.yul\":36623:36740   */\n    tag_421:\n        /* \"#utility.yul\":36732:36733   */\n      0x00\n        /* \"#utility.yul\":36729:36730   */\n      0x00\n        /* \"#utility.yul\":36722:36734   */\n      revert\n        /* \"#utility.yul\":36746:36863   */\n    tag_422:\n        /* \"#utility.yul\":36855:36856   */\n      0x00\n        /* \"#utility.yul\":36852:36853   */\n      0x00\n        /* \"#utility.yul\":36845:36857   */\n      revert\n        /* \"#utility.yul\":36869:37338   */\n    tag_266:\n        /* \"#utility.yul\":36974:36983   */\n      0x00\n        /* \"#utility.yul\":36985:36994   */\n      0x00\n        /* \"#utility.yul\":37023:37031   */\n      dup6\n        /* \"#utility.yul\":37011:37021   */\n      dup6\n        /* \"#utility.yul\":37008:37032   */\n      gt\n        /* \"#utility.yul\":37005:37116   */\n      iszero\n      tag_801\n      jumpi\n        /* \"#utility.yul\":37035:37114   */\n      tag_802\n      tag_421\n      jump\t// in\n    tag_802:\n        /* \"#utility.yul\":37005:37116   */\n    tag_801:\n        /* \"#utility.yul\":37141:37147   */\n      dup4\n        /* \"#utility.yul\":37131:37139   */\n      dup7\n        /* \"#utility.yul\":37128:37148   */\n      gt\n        /* \"#utility.yul\":37125:37232   */\n      iszero\n      tag_803\n      jumpi\n        /* \"#utility.yul\":37151:37230   */\n      tag_804\n      tag_422\n      jump\t// in\n    tag_804:\n        /* \"#utility.yul\":37125:37232   */\n    tag_803:\n        /* \"#utility.yul\":37282:37283   */\n      0x01\n        /* \"#utility.yul\":37270:37280   */\n      dup6\n        /* \"#utility.yul\":37266:37284   */\n      mul\n        /* \"#utility.yul\":37258:37264   */\n      dup4\n        /* \"#utility.yul\":37254:37285   */\n      add\n        /* \"#utility.yul\":37241:37285   */\n      swap2\n      pop\n        /* \"#utility.yul\":37321:37331   */\n      dup5\n        /* \"#utility.yul\":37311:37319   */\n      dup7\n        /* \"#utility.yul\":37307:37332   */\n      sub\n        /* \"#utility.yul\":37294:37332   */\n      swap1\n      pop\n        /* \"#utility.yul\":36869:37338   */\n      swap5\n      pop\n      swap5\n      swap3\n      pop\n      pop\n      pop\n      jump\t// out\n        /* \"#utility.yul\":37344:37511   */\n    tag_423:\n        /* \"#utility.yul\":37484:37503   */\n      0x496e76616c6964207369676e6174757265000000000000000000000000000000\n        /* \"#utility.yul\":37480:37481   */\n      0x00\n        /* \"#utility.yul\":37472:37478   */\n      dup3\n        /* \"#utility.yul\":37468:37482   */\n      add\n        /* \"#utility.yul\":37461:37504   */\n      mstore\n        /* \"#utility.yul\":37344:37511   */\n      pop\n      jump\t// out\n        /* \"#utility.yul\":37517:37883   */\n    tag_424:\n        /* \"#utility.yul\":37659:37662   */\n      0x00\n        /* \"#utility.yul\":37680:37747   */\n      tag_807\n        /* \"#utility.yul\":37744:37746   */\n      0x11\n        /* \"#utility.yul\":37739:37742   */\n      dup4\n        /* \"#utility.yul\":37680:37747   */\n      tag_374\n      jump\t// in\n    tag_807:\n        /* \"#utility.yul\":37673:37747   */\n      swap2\n      pop\n        /* \"#utility.yul\":37756:37849   */\n      tag_808\n        /* \"#utility.yul\":37845:37848   */\n      dup3\n        /* \"#utility.yul\":37756:37849   */\n      tag_423\n      jump\t// in\n    tag_808:\n        /* \"#utility.yul\":37874:37876   */\n      0x20\n        /* \"#utility.yul\":37869:37872   */\n      dup3\n        /* \"#utility.yul\":37865:37877   */\n      add\n        /* \"#utility.yul\":37858:37877   */\n      swap1\n      pop\n        /* \"#utility.yul\":37517:37883   */\n      swap2\n      swap1\n      pop\n      jump\t// out\n        /* \"#utility.yul\":37889:38308   */\n    tag_270:\n        /* \"#utility.yul\":38055:38059   */\n      0x00\n        /* \"#utility.yul\":38093:38095   */\n      0x20\n        /* \"#utility.yul\":38082:38091   */\n      dup3\n        /* \"#utility.yul\":38078:38096   */\n      add\n        /* \"#utility.yul\":38070:38096   */\n      swap1\n      pop\n        /* \"#utility.yul\":38142:38151   */\n      dup2\n        /* \"#utility.yul\":38136:38140   */\n      dup2\n        /* \"#utility.yul\":38132:38152   */\n      sub\n        /* \"#utility.yul\":38128:38129   */\n      0x00\n        /* \"#utility.yul\":38117:38126   */\n      dup4\n        /* \"#utility.yul\":38113:38130   */\n      add\n        /* \"#utility.yul\":38106:38153   */\n      mstore\n        /* \"#utility.yul\":38170:38301   */\n      tag_810\n        /* \"#utility.yul\":38296:38300   */\n      dup2\n        /* \"#utility.yul\":38170:38301   */\n      tag_424\n      jump\t// in\n    tag_810:\n        /* \"#utility.yul\":38162:38301   */\n      swap1\n      pop\n        /* \"#utility.yul\":37889:38308   */\n      swap2\n      swap1\n      pop\n      jump\t// out\n        /* \"#utility.yul\":38314:38494   */\n    tag_425:\n        /* \"#utility.yul\":38454:38486   */\n      0x5369676e6572206e6f7420616e206163746976652076616c696461746f720000\n        /* \"#utility.yul\":38450:38451   */\n      0x00\n        /* \"#utility.yul\":38442:38448   */\n      dup3\n        /* \"#utility.yul\":38438:38452   */\n      add\n        /* \"#utility.yul\":38431:38487   */\n      mstore\n        /* \"#utility.yul\":38314:38494   */\n      pop\n      jump\t// out\n        /* \"#utility.yul\":38500:38866   */\n    tag_426:\n        /* \"#utility.yul\":38642:38645   */\n      0x00\n        /* \"#utility.yul\":38663:38730   */\n      tag_813\n        /* \"#utility.yul\":38727:38729   */\n      0x1e\n        /* \"#utility.yul\":38722:38725   */\n      dup4\n        /* \"#utility.yul\":38663:38730   */\n      tag_374\n      jump\t// in\n    tag_813:\n        /* \"#utility.yul\":38656:38730   */\n      swap2\n      pop\n        /* \"#utility.yul\":38739:38832   */\n      tag_814\n        /* \"#utility.yul\":38828:38831   */\n      dup3\n        /* \"#utility.yul\":38739:38832   */\n      tag_425\n      jump\t// in\n    tag_814:\n        /* \"#utility.yul\":38857:38859   */\n      0x20\n        /* \"#utility.yul\":38852:38855   */\n      dup3\n        /* \"#utility.yul\":38848:38860   */\n      add\n        /* \"#utility.yul\":38841:38860   */\n      swap1\n      pop\n        /* \"#utility.yul\":38500:38866   */\n      swap2\n      swap1\n      pop\n      jump\t// out\n        /* \"#utility.yul\":38872:39291   */\n    tag_279:\n        /* \"#utility.yul\":39038:39042   */\n      0x00\n        /* \"#utility.yul\":39076:39078   */\n      0x20\n        /* \"#utility.yul\":39065:39074   */\n      dup3\n        /* \"#utility.yul\":39061:39079   */\n      add\n        /* \"#utility.yul\":39053:39079   */\n      swap1\n      pop\n        /* \"#utility.yul\":39125:39134   */\n      dup2\n        /* \"#utility.yul\":39119:39123   */\n      dup2\n        /* \"#utility.yul\":39115:39135   */\n      sub\n        /* \"#utility.yul\":39111:39112   */\n      0x00\n        /* \"#utility.yul\":39100:39109   */\n      dup4\n        /* \"#utility.yul\":39096:39113   */\n      add\n        /* \"#utility.yul\":39089:39136   */\n      mstore\n        /* \"#utility.yul\":39153:39284   */\n      tag_816\n        /* \"#utility.yul\":39279:39283   */\n      dup2\n        /* \"#utility.yul\":39153:39284   */\n      tag_426\n      jump\t// in\n    tag_816:\n        /* \"#utility.yul\":39145:39284   */\n      swap1\n      pop\n        /* \"#utility.yul\":38872:39291   */\n      swap2\n      swap1\n      pop\n      jump\t// out\n        /* \"#utility.yul\":39297:40399   */\n    tag_304:\n        /* \"#utility.yul\":39577:39580   */\n      0x00\n        /* \"#utility.yul\":39592:39667   */\n      tag_818\n        /* \"#utility.yul\":39663:39666   */\n      dup3\n        /* \"#utility.yul\":39654:39660   */\n      dup11\n        /* \"#utility.yul\":39592:39667   */\n      tag_404\n      jump\t// in\n    tag_818:\n        /* \"#utility.yul\":39692:39694   */\n      0x20\n        /* \"#utility.yul\":39687:39690   */\n      dup3\n        /* \"#utility.yul\":39683:39695   */\n      add\n        /* \"#utility.yul\":39676:39695   */\n      swap2\n      pop\n        /* \"#utility.yul\":39705:39780   */\n      tag_819\n        /* \"#utility.yul\":39776:39779   */\n      dup3\n        /* \"#utility.yul\":39767:39773   */\n      dup10\n        /* \"#utility.yul\":39705:39780   */\n      tag_404\n      jump\t// in\n    tag_819:\n        /* \"#utility.yul\":39805:39807   */\n      0x20\n        /* \"#utility.yul\":39800:39803   */\n      dup3\n        /* \"#utility.yul\":39796:39808   */\n      add\n        /* \"#utility.yul\":39789:39808   */\n      swap2\n      pop\n        /* \"#utility.yul\":39818:39893   */\n      tag_820\n        /* \"#utility.yul\":39889:39892   */\n      dup3\n        /* \"#utility.yul\":39880:39886   */\n      dup9\n        /* \"#utility.yul\":39818:39893   */\n      tag_404\n      jump\t// in\n    tag_820:\n        /* \"#utility.yul\":39918:39920   */\n      0x20\n        /* \"#utility.yul\":39913:39916   */\n      dup3\n        /* \"#utility.yul\":39909:39921   */\n      add\n        /* \"#utility.yul\":39902:39921   */\n      swap2\n      pop\n        /* \"#utility.yul\":39931:40006   */\n      tag_821\n        /* \"#utility.yul\":40002:40005   */\n      dup3\n        /* \"#utility.yul\":39993:39999   */\n      dup8\n        /* \"#utility.yul\":39931:40006   */\n      tag_404\n      jump\t// in\n    tag_821:\n        /* \"#utility.yul\":40031:40033   */\n      0x20\n        /* \"#utility.yul\":40026:40029   */\n      dup3\n        /* \"#utility.yul\":40022:40034   */\n      add\n        /* \"#utility.yul\":40015:40034   */\n      swap2\n      pop\n        /* \"#utility.yul\":40044:40119   */\n      tag_822\n        /* \"#utility.yul\":40115:40118   */\n      dup3\n        /* \"#utility.yul\":40106:40112   */\n      dup7\n        /* \"#utility.yul\":40044:40119   */\n      tag_404\n      jump\t// in\n    tag_822:\n        /* \"#utility.yul\":40144:40146   */\n      0x20\n        /* \"#utility.yul\":40139:40142   */\n      dup3\n        /* \"#utility.yul\":40135:40147   */\n      add\n        /* \"#utility.yul\":40128:40147   */\n      swap2\n      pop\n        /* \"#utility.yul\":40157:40232   */\n      tag_823\n        /* \"#utility.yul\":40228:40231   */\n      dup3\n        /* \"#utility.yul\":40219:40225   */\n      dup6\n        /* \"#utility.yul\":40157:40232   */\n      tag_404\n      jump\t// in\n    tag_823:\n        /* \"#utility.yul\":40257:40259   */\n      0x20\n        /* \"#utility.yul\":40252:40255   */\n      dup3\n        /* \"#utility.yul\":40248:40260   */\n      add\n        /* \"#utility.yul\":40241:40260   */\n      swap2\n      pop\n        /* \"#utility.yul\":40270:40345   */\n      tag_824\n        /* \"#utility.yul\":40341:40344   */\n      dup3\n        /* \"#utility.yul\":40332:40338   */\n      dup5\n        /* \"#utility.yul\":40270:40345   */\n      tag_404\n      jump\t// in\n    tag_824:\n        /* \"#utility.yul\":40370:40372   */\n      0x20\n        /* \"#utility.yul\":40365:40368   */\n      dup3\n        /* \"#utility.yul\":40361:40373   */\n      add\n        /* \"#utility.yul\":40354:40373   */\n      swap2\n      pop\n        /* \"#utility.yul\":40390:40393   */\n      dup2\n        /* \"#utility.yul\":40383:40393   */\n      swap1\n      pop\n        /* \"#utility.yul\":39297:40399   */\n      swap9\n      swap8\n      pop\n      pop\n      pop\n      pop\n      pop\n      pop\n      pop\n      pop\n      jump\t// out\n        /* \"#utility.yul\":40405:40795   */\n    tag_427:\n        /* \"#utility.yul\":40511:40514   */\n      0x00\n        /* \"#utility.yul\":40539:40578   */\n      tag_826\n        /* \"#utility.yul\":40572:40577   */\n      dup3\n        /* \"#utility.yul\":40539:40578   */\n      tag_373\n      jump\t// in\n    tag_826:\n        /* \"#utility.yul\":40594:40683   */\n      tag_827\n        /* \"#utility.yul\":40676:40682   */\n      dup2\n        /* \"#utility.yul\":40671:40674   */\n      dup6\n        /* \"#utility.yul\":40594:40683   */\n      tag_412\n      jump\t// in\n    tag_827:\n        /* \"#utility.yul\":40587:40683   */\n      swap4\n      pop\n        /* \"#utility.yul\":40692:40757   */\n      tag_828\n        /* \"#utility.yul\":40750:40756   */\n      dup2\n        /* \"#utility.yul\":40745:40748   */\n      dup6\n        /* \"#utility.yul\":40738:40742   */\n      0x20\n        /* \"#utility.yul\":40731:40736   */\n      dup7\n        /* \"#utility.yul\":40727:40743   */\n      add\n        /* \"#utility.yul\":40692:40757   */\n      tag_346\n      jump\t// in\n    tag_828:\n        /* \"#utility.yul\":40782:40788   */\n      dup1\n        /* \"#utility.yul\":40777:40780   */\n      dup5\n        /* \"#utility.yul\":40773:40789   */\n      add\n        /* \"#utility.yul\":40766:40789   */\n      swap2\n      pop\n        /* \"#utility.yul\":40515:40795   */\n      pop\n        /* \"#utility.yul\":40405:40795   */\n      swap3\n      swap2\n      pop\n      pop\n      jump\t// out\n        /* \"#utility.yul\":40801:40957   */\n    tag_428:\n        /* \"#utility.yul\":40941:40949   */\n      0x5f7661756c740000000000000000000000000000000000000000000000000000\n        /* \"#utility.yul\":40937:40938   */\n      0x00\n        /* \"#utility.yul\":40929:40935   */\n      dup3\n        /* \"#utility.yul\":40925:40939   */\n      add\n        /* \"#utility.yul\":40918:40950   */\n      mstore\n        /* \"#utility.yul\":40801:40957   */\n      pop\n      jump\t// out\n        /* \"#utility.yul\":40963:41363   */\n    tag_429:\n        /* \"#utility.yul\":41123:41126   */\n      0x00\n        /* \"#utility.yul\":41144:41228   */\n      tag_831\n        /* \"#utility.yul\":41226:41227   */\n      0x06\n        /* \"#utility.yul\":41221:41224   */\n      dup4\n        /* \"#utility.yul\":41144:41228   */\n      tag_412\n      jump\t// in\n    tag_831:\n        /* \"#utility.yul\":41137:41228   */\n      swap2\n      pop\n        /* \"#utility.yul\":41237:41330   */\n      tag_832\n        /* \"#utility.yul\":41326:41329   */\n      dup3\n        /* \"#utility.yul\":41237:41330   */\n      tag_428\n      jump\t// in\n    tag_832:\n        /* \"#utility.yul\":41355:41356   */\n      0x06\n        /* \"#utility.yul\":41350:41353   */\n      dup3\n        /* \"#utility.yul\":41346:41357   */\n      add\n        /* \"#utility.yul\":41339:41357   */\n      swap1\n      pop\n        /* \"#utility.yul\":40963:41363   */\n      swap2\n      swap1\n      pop\n      jump\t// out\n        /* \"#utility.yul\":41369:41910   */\n    tag_317:\n        /* \"#utility.yul\":41602:41605   */\n      0x00\n        /* \"#utility.yul\":41624:41719   */\n      tag_834\n        /* \"#utility.yul\":41715:41718   */\n      dup3\n        /* \"#utility.yul\":41706:41712   */\n      dup5\n        /* \"#utility.yul\":41624:41719   */\n      tag_427\n      jump\t// in\n    tag_834:\n        /* \"#utility.yul\":41617:41719   */\n      swap2\n      pop\n        /* \"#utility.yul\":41736:41884   */\n      tag_835\n        /* \"#utility.yul\":41880:41883   */\n      dup3\n        /* \"#utility.yul\":41736:41884   */\n      tag_429\n      jump\t// in\n    tag_835:\n        /* \"#utility.yul\":41729:41884   */\n      swap2\n      pop\n        /* \"#utility.yul\":41901:41904   */\n      dup2\n        /* \"#utility.yul\":41894:41904   */\n      swap1\n      pop\n        /* \"#utility.yul\":41369:41910   */\n      swap3\n      swap2\n      pop\n      pop\n      jump\t// out\n        /* \"#utility.yul\":41916:42081   */\n    tag_430:\n        /* \"#utility.yul\":42056:42073   */\n      0x5169617261426173654173736574730000000000000000000000000000000000\n        /* \"#utility.yul\":42052:42053   */\n      0x00\n        /* \"#utility.yul\":42044:42050   */\n      dup3\n        /* \"#utility.yul\":42040:42054   */\n      add\n        /* \"#utility.yul\":42033:42074   */\n      mstore\n        /* \"#utility.yul\":41916:42081   */\n      pop\n      jump\t// out\n        /* \"#utility.yul\":42087:42453   */\n    tag_431:\n        /* \"#utility.yul\":42229:42232   */\n      0x00\n        /* \"#utility.yul\":42250:42317   */\n      tag_838\n        /* \"#utility.yul\":42314:42316   */\n      0x0f\n        /* \"#utility.yul\":42309:42312   */\n      dup4\n        /* \"#utility.yul\":42250:42317   */\n      tag_374\n      jump\t// in\n    tag_838:\n        /* \"#utility.yul\":42243:42317   */\n      swap2\n      pop\n        /* \"#utility.yul\":42326:42419   */\n      tag_839\n        /* \"#utility.yul\":42415:42418   */\n      dup3\n        /* \"#utility.yul\":42326:42419   */\n      tag_430\n      jump\t// in\n    tag_839:\n        /* \"#utility.yul\":42444:42446   */\n      0x20\n        /* \"#utility.yul\":42439:42442   */\n      dup3\n        /* \"#utility.yul\":42435:42447   */\n      add\n        /* \"#utility.yul\":42428:42447   */\n      swap1\n      pop\n        /* \"#utility.yul\":42087:42453   */\n      swap2\n      swap1\n      pop\n      jump\t// out\n        /* \"#utility.yul\":42459:43079   */\n    tag_319:\n        /* \"#utility.yul\":42673:42677   */\n      0x00\n        /* \"#utility.yul\":42711:42713   */\n      0x40\n        /* \"#utility.yul\":42700:42709   */\n      dup3\n        /* \"#utility.yul\":42696:42714   */\n      add\n        /* \"#utility.yul\":42688:42714   */\n      swap1\n      pop\n        /* \"#utility.yul\":42760:42769   */\n      dup2\n        /* \"#utility.yul\":42754:42758   */\n      dup2\n        /* \"#utility.yul\":42750:42770   */\n      sub\n        /* \"#utility.yul\":42746:42747   */\n      0x00\n        /* \"#utility.yul\":42735:42744   */\n      dup4\n        /* \"#utility.yul\":42731:42748   */\n      add\n        /* \"#utility.yul\":42724:42771   */\n      mstore\n        /* \"#utility.yul\":42788:42919   */\n      tag_841\n        /* \"#utility.yul\":42914:42918   */\n      dup2\n        /* \"#utility.yul\":42788:42919   */\n      tag_431\n      jump\t// in\n    tag_841:\n        /* \"#utility.yul\":42780:42919   */\n      swap1\n      pop\n        /* \"#utility.yul\":42966:42975   */\n      dup2\n        /* \"#utility.yul\":42960:42964   */\n      dup2\n        /* \"#utility.yul\":42956:42976   */\n      sub\n        /* \"#utility.yul\":42951:42953   */\n      0x20\n        /* \"#utility.yul\":42940:42949   */\n      dup4\n        /* \"#utility.yul\":42936:42954   */\n      add\n        /* \"#utility.yul\":42929:42977   */\n      mstore\n        /* \"#utility.yul\":42994:43072   */\n      tag_842\n        /* \"#utility.yul\":43067:43071   */\n      dup2\n        /* \"#utility.yul\":43058:43064   */\n      dup5\n        /* \"#utility.yul\":42994:43072   */\n      tag_375\n      jump\t// in\n    tag_842:\n        /* \"#utility.yul\":42986:43072   */\n      swap1\n      pop\n        /* \"#utility.yul\":42459:43079   */\n      swap3\n      swap2\n      pop\n      pop\n      jump\t// out\n        /* \"#utility.yul\":43085:43517   */\n    tag_432:\n        /* \"#utility.yul\":43173:43178   */\n      0x00\n        /* \"#utility.yul\":43198:43263   */\n      tag_844\n        /* \"#utility.yul\":43214:43262   */\n      tag_845\n        /* \"#utility.yul\":43255:43261   */\n      dup5\n        /* \"#utility.yul\":43214:43262   */\n      tag_363\n      jump\t// in\n    tag_845:\n        /* \"#utility.yul\":43198:43263   */\n      tag_362\n      jump\t// in\n    tag_844:\n        /* \"#utility.yul\":43189:43263   */\n      swap1\n      pop\n        /* \"#utility.yul\":43286:43292   */\n      dup3\n        /* \"#utility.yul\":43279:43284   */\n      dup2\n        /* \"#utility.yul\":43272:43293   */\n      mstore\n        /* \"#utility.yul\":43324:43328   */\n      0x20\n        /* \"#utility.yul\":43317:43322   */\n      dup2\n        /* \"#utility.yul\":43313:43329   */\n      add\n        /* \"#utility.yul\":43362:43365   */\n      dup5\n        /* \"#utility.yul\":43353:43359   */\n      dup5\n        /* \"#utility.yul\":43348:43351   */\n      dup5\n        /* \"#utility.yul\":43344:43360   */\n      add\n        /* \"#utility.yul\":43341:43366   */\n      gt\n        /* \"#utility.yul\":43338:43450   */\n      iszero\n      tag_846\n      jumpi\n        /* \"#utility.yul\":43369:43448   */\n      tag_847\n      tag_360\n      jump\t// in\n    tag_847:\n        /* \"#utility.yul\":43338:43450   */\n    tag_846:\n        /* \"#utility.yul\":43459:43511   */\n      tag_848\n        /* \"#utility.yul\":43504:43510   */\n      dup5\n        /* \"#utility.yul\":43499:43502   */\n      dup3\n        /* \"#utility.yul\":43494:43497   */\n      dup6\n        /* \"#utility.yul\":43459:43511   */\n      tag_346\n      jump\t// in\n    tag_848:\n        /* \"#utility.yul\":43179:43517   */\n      pop\n        /* \"#utility.yul\":43085:43517   */\n      swap4\n      swap3\n      pop\n      pop\n      pop\n      jump\t// out\n        /* \"#utility.yul\":43536:43889   */\n    tag_433:\n        /* \"#utility.yul\":43602:43607   */\n      0x00\n        /* \"#utility.yul\":43651:43654   */\n      dup3\n        /* \"#utility.yul\":43644:43648   */\n      0x1f\n        /* \"#utility.yul\":43636:43642   */\n      dup4\n        /* \"#utility.yul\":43632:43649   */\n      add\n        /* \"#utility.yul\":43628:43655   */\n      slt\n        /* \"#utility.yul\":43618:43740   */\n      tag_850\n      jumpi\n        /* \"#utility.yul\":43659:43738   */\n      tag_851\n      tag_337\n      jump\t// in\n    tag_851:\n        /* \"#utility.yul\":43618:43740   */\n    tag_850:\n        /* \"#utility.yul\":43769:43775   */\n      dup2\n        /* \"#utility.yul\":43763:43776   */\n      mload\n        /* \"#utility.yul\":43794:43883   */\n      tag_852\n        /* \"#utility.yul\":43879:43882   */\n      dup5\n        /* \"#utility.yul\":43871:43877   */\n      dup3\n        /* \"#utility.yul\":43864:43868   */\n      0x20\n        /* \"#utility.yul\":43856:43862   */\n      dup7\n        /* \"#utility.yul\":43852:43869   */\n      add\n        /* \"#utility.yul\":43794:43883   */\n      tag_432\n      jump\t// in\n    tag_852:\n        /* \"#utility.yul\":43785:43883   */\n      swap2\n      pop\n        /* \"#utility.yul\":43608:43889   */\n      pop\n        /* \"#utility.yul\":43536:43889   */\n      swap3\n      swap2\n      pop\n      pop\n      jump\t// out\n        /* \"#utility.yul\":43895:44417   */\n    tag_323:\n        /* \"#utility.yul\":43974:43980   */\n      0x00\n        /* \"#utility.yul\":44023:44025   */\n      0x20\n        /* \"#utility.yul\":44011:44020   */\n      dup3\n        /* \"#utility.yul\":44002:44009   */\n      dup5\n        /* \"#utility.yul\":43998:44021   */\n      sub\n        /* \"#utility.yul\":43994:44026   */\n      slt\n        /* \"#utility.yul\":43991:44110   */\n      iszero\n      tag_854\n      jumpi\n        /* \"#utility.yul\":44029:44108   */\n      tag_855\n      tag_331\n      jump\t// in\n    tag_855:\n        /* \"#utility.yul\":43991:44110   */\n    tag_854:\n        /* \"#utility.yul\":44170:44171   */\n      0x00\n        /* \"#utility.yul\":44159:44168   */\n      dup3\n        /* \"#utility.yul\":44155:44172   */\n      add\n        /* \"#utility.yul\":44149:44173   */\n      mload\n        /* \"#utility.yul\":44200:44218   */\n      0xffffffffffffffff\n        /* \"#utility.yul\":44192:44198   */\n      dup2\n        /* \"#utility.yul\":44189:44219   */\n      gt\n        /* \"#utility.yul\":44186:44303   */\n      iszero\n      tag_856\n      jumpi\n        /* \"#utility.yul\":44222:44301   */\n      tag_857\n      tag_332\n      jump\t// in\n    tag_857:\n        /* \"#utility.yul\":44186:44303   */\n    tag_856:\n        /* \"#utility.yul\":44327:44400   */\n      tag_858\n        /* \"#utility.yul\":44392:44399   */\n      dup5\n        /* \"#utility.yul\":44383:44389   */\n      dup3\n        /* \"#utility.yul\":44372:44381   */\n      dup6\n        /* \"#utility.yul\":44368:44390   */\n      add\n        /* \"#utility.yul\":44327:44400   */\n      tag_433\n      jump\t// in\n    tag_858:\n        /* \"#utility.yul\":44317:44400   */\n      swap2\n      pop\n        /* \"#utility.yul\":44120:44410   */\n      pop\n        /* \"#utility.yul\":43895:44417   */\n      swap3\n      swap2\n      pop\n      pop\n      jump\t// out\n        /* \"#utility.yul\":44423:44593   */\n    tag_434:\n        /* \"#utility.yul\":44563:44585   */\n      0x5661756c74206e6f7420617574686f72697a6564000000000000000000000000\n        /* \"#utility.yul\":44559:44560   */\n      0x00\n        /* \"#utility.yul\":44551:44557   */\n      dup3\n        /* \"#utility.yul\":44547:44561   */\n      add\n        /* \"#utility.yul\":44540:44586   */\n      mstore\n        /* \"#utility.yul\":44423:44593   */\n      pop\n      jump\t// out\n        /* \"#utility.yul\":44599:44965   */\n    tag_435:\n        /* \"#utility.yul\":44741:44744   */\n      0x00\n        /* \"#utility.yul\":44762:44829   */\n      tag_861\n        /* \"#utility.yul\":44826:44828   */\n      0x14\n        /* \"#utility.yul\":44821:44824   */\n      dup4\n        /* \"#utility.yul\":44762:44829   */\n      tag_374\n      jump\t// in\n    tag_861:\n        /* \"#utility.yul\":44755:44829   */\n      swap2\n      pop\n        /* \"#utility.yul\":44838:44931   */\n      tag_862\n        /* \"#utility.yul\":44927:44930   */\n      dup3\n        /* \"#utility.yul\":44838:44931   */\n      tag_434\n      jump\t// in\n    tag_862:\n        /* \"#utility.yul\":44956:44958   */\n      0x20\n        /* \"#utility.yul\":44951:44954   */\n      dup3\n        /* \"#utility.yul\":44947:44959   */\n      add\n        /* \"#utility.yul\":44940:44959   */\n      swap1\n      pop\n        /* \"#utility.yul\":44599:44965   */\n      swap2\n      swap1\n      pop\n      jump\t// out\n        /* \"#utility.yul\":44971:45390   */\n    tag_326:\n        /* \"#utility.yul\":45137:45141   */\n      0x00\n        /* \"#utility.yul\":45175:45177   */\n      0x20\n        /* \"#utility.yul\":45164:45173   */\n      dup3\n        /* \"#utility.yul\":45160:45178   */\n      add\n        /* \"#utility.yul\":45152:45178   */\n      swap1\n      pop\n        /* \"#utility.yul\":45224:45233   */\n      dup2\n        /* \"#utility.yul\":45218:45222   */\n      dup2\n        /* \"#utility.yul\":45214:45234   */\n      sub\n        /* \"#utility.yul\":45210:45211   */\n      0x00\n        /* \"#utility.yul\":45199:45208   */\n      dup4\n        /* \"#utility.yul\":45195:45212   */\n      add\n        /* \"#utility.yul\":45188:45235   */\n      mstore\n        /* \"#utility.yul\":45252:45383   */\n      tag_864\n        /* \"#utility.yul\":45378:45382   */\n      dup2\n        /* \"#utility.yul\":45252:45383   */\n      tag_435\n      jump\t// in\n    tag_864:\n        /* \"#utility.yul\":45244:45383   */\n      swap1\n      pop\n        /* \"#utility.yul\":44971:45390   */\n      swap2\n      swap1\n      pop\n      jump\t// out\n        /* \"#utility.yul\":45396:45500   */\n    tag_436:\n        /* \"#utility.yul\":45441:45448   */\n      0x00\n        /* \"#utility.yul\":45470:45494   */\n      tag_866\n        /* \"#utility.yul\":45488:45493   */\n      dup3\n        /* \"#utility.yul\":45470:45494   */\n      tag_349\n      jump\t// in\n    tag_866:\n        /* \"#utility.yul\":45459:45494   */\n      swap1\n      pop\n        /* \"#utility.yul\":45396:45500   */\n      swap2\n      swap1\n      pop\n      jump\t// out\n        /* \"#utility.yul\":45506:45644   */\n    tag_437:\n        /* \"#utility.yul\":45587:45619   */\n      tag_868\n        /* \"#utility.yul\":45613:45618   */\n      dup2\n        /* \"#utility.yul\":45587:45619   */\n      tag_436\n      jump\t// in\n    tag_868:\n        /* \"#utility.yul\":45580:45585   */\n      dup2\n        /* \"#utility.yul\":45577:45620   */\n      eq\n        /* \"#utility.yul\":45567:45638   */\n      tag_869\n      jumpi\n        /* \"#utility.yul\":45634:45635   */\n      0x00\n        /* \"#utility.yul\":45631:45632   */\n      0x00\n        /* \"#utility.yul\":45624:45636   */\n      revert\n        /* \"#utility.yul\":45567:45638   */\n    tag_869:\n        /* \"#utility.yul\":45506:45644   */\n      pop\n      jump\t// out\n        /* \"#utility.yul\":45650:45809   */\n    tag_438:\n        /* \"#utility.yul\":45715:45720   */\n      0x00\n        /* \"#utility.yul\":45746:45752   */\n      dup2\n        /* \"#utility.yul\":45740:45753   */\n      mload\n        /* \"#utility.yul\":45731:45753   */\n      swap1\n      pop\n        /* \"#utility.yul\":45762:45803   */\n      tag_871\n        /* \"#utility.yul\":45797:45802   */\n      dup2\n        /* \"#utility.yul\":45762:45803   */\n      tag_437\n      jump\t// in\n    tag_871:\n        /* \"#utility.yul\":45650:45809   */\n      swap3\n      swap2\n      pop\n      pop\n      jump\t// out\n        /* \"#utility.yul\":45815:46182   */\n    tag_328:\n        /* \"#utility.yul\":45893:45899   */\n      0x00\n        /* \"#utility.yul\":45942:45944   */\n      0x20\n        /* \"#utility.yul\":45930:45939   */\n      dup3\n        /* \"#utility.yul\":45921:45928   */\n      dup5\n        /* \"#utility.yul\":45917:45940   */\n      sub\n        /* \"#utility.yul\":45913:45945   */\n      slt\n        /* \"#utility.yul\":45910:46029   */\n      iszero\n      tag_873\n      jumpi\n        /* \"#utility.yul\":45948:46027   */\n      tag_874\n      tag_331\n      jump\t// in\n    tag_874:\n        /* \"#utility.yul\":45910:46029   */\n    tag_873:\n        /* \"#utility.yul\":46068:46069   */\n      0x00\n        /* \"#utility.yul\":46093:46165   */\n      tag_875\n        /* \"#utility.yul\":46157:46164   */\n      dup5\n        /* \"#utility.yul\":46148:46154   */\n      dup3\n        /* \"#utility.yul\":46137:46146   */\n      dup6\n        /* \"#utility.yul\":46133:46155   */\n      add\n        /* \"#utility.yul\":46093:46165   */\n      tag_438\n      jump\t// in\n    tag_875:\n        /* \"#utility.yul\":46083:46165   */\n      swap2\n      pop\n        /* \"#utility.yul\":46039:46175   */\n      pop\n        /* \"#utility.yul\":45815:46182   */\n      swap3\n      swap2\n      pop\n      pop\n      jump\t// out\n\n    auxdata: 0xa2646970667358221220f073570d96cc939e83d199e899396c8d739148a644200253b7a458d915b29b5064736f6c634300081f0033\n}\n",
				"bytecode": {
					"linkReferences": {},
					"object": "610120604052348015610010575f5ffd5b50604051613032380380613032833981810160405281019061003291906102e1565b335f73ffffffffffffffffffffffffffffffffffffffff168173ffffffffffffffffffffffffffffffffffffffff16036100a3575f6040517f1e4fbdf700000000000000000000000000000000000000000000000000000000815260040161009a9190610367565b60405180910390fd5b6100b2816101c260201b60201c565b508473ffffffffffffffffffffffffffffffffffffffff1660808173ffffffffffffffffffffffffffffffffffffffff16815250508373ffffffffffffffffffffffffffffffffffffffff1660a08173ffffffffffffffffffffffffffffffffffffffff16815250508273ffffffffffffffffffffffffffffffffffffffff1660c08173ffffffffffffffffffffffffffffffffffffffff16815250508173ffffffffffffffffffffffffffffffffffffffff1660e08173ffffffffffffffffffffffffffffffffffffffff16815250508073ffffffffffffffffffffffffffffffffffffffff166101008173ffffffffffffffffffffffffffffffffffffffff16815250505050505050610380565b5f5f5f9054906101000a900473ffffffffffffffffffffffffffffffffffffffff169050815f5f6101000a81548173ffffffffffffffffffffffffffffffffffffffff021916908373ffffffffffffffffffffffffffffffffffffffff1602179055508173ffffffffffffffffffffffffffffffffffffffff168173ffffffffffffffffffffffffffffffffffffffff167f8be0079c531659141344cd1fd0a4f28419497f9722a3daafe3b4186f6b6457e060405160405180910390a35050565b5f5ffd5b5f73ffffffffffffffffffffffffffffffffffffffff82169050919050565b5f6102b082610287565b9050919050565b6102c0816102a6565b81146102ca575f5ffd5b50565b5f815190506102db816102b7565b92915050565b5f5f5f5f5f60a086880312156102fa576102f9610283565b5b5f610307888289016102cd565b9550506020610318888289016102cd565b9450506040610329888289016102cd565b935050606061033a888289016102cd565b925050608061034b888289016102cd565b9150509295509295909350565b610361816102a6565b82525050565b5f60208201905061037a5f830184610358565b92915050565b60805160a05160c05160e05161010051612c446103ee5f395f818161055d01528181610753015261108a01525f818161099d01528181610c09015261161001525f818161035d015261077701525f818161061901526109c101525f8181610ca20152610f750152612c445ff3fe608060405234801561000f575f5ffd5b5060043610610109575f3560e01c8063aed881d8116100a0578063c3c2198f1161006f578063c3c2198f146102b9578063cc60819f146102d5578063f2fde38b146102f1578063f90c0f401461030d578063fa5408011461032b57610109565b8063aed881d81461022f578063b3d630031461024d578063b648f2201461026b578063bf4d766e1461029b57610109565b80637a988c54116100dc5780637a988c54146101815780638da5cb5b146101b157806397aba7f9146101cf578063aad24061146101ff57610109565b806318e430821461010d57806319b8c941146101295780634eb30d4114610159578063715018a614610177575b5f5ffd5b61012760048036038101906101229190611841565b61035b565b005b610143600480360381019061013e9190611942565b6105ee565b60405161015091906119dd565b60405180910390f35b610161610617565b60405161016e9190611a77565b60405180910390f35b61017f61063b565b005b61019b60048036038101906101969190611942565b61064e565b6040516101a89190611ab0565b60405180910390f35b6101b9610657565b6040516101c69190611ab0565b60405180910390f35b6101e960048036038101906101e49190611c24565b61067e565b6040516101f69190611ab0565b60405180910390f35b61021960048036038101906102149190611942565b610734565b6040516102269190611c98565b60405180910390f35b610237610751565b6040516102449190611cd1565b60405180910390f35b610255610775565b6040516102629190611d0a565b60405180910390f35b61028560048036038101906102809190611942565b610799565b6040516102929190611d75565b60405180910390f35b6102a361099b565b6040516102b09190611db5565b60405180910390f35b6102d360048036038101906102ce9190611def565b6109bf565b005b6102ef60048036038101906102ea9190611def565b610ca0565b005b61030b60048036038101906103069190611ee7565b610eef565b005b610315610f73565b6040516103229190611f32565b60405180910390f35b61034560048036038101906103409190611f4b565b610f97565b6040516103529190611f85565b60405180910390f35b7f000000000000000000000000000000000000000000000000000000000000000073ffffffffffffffffffffffffffffffffffffffff1663f398789b898989896040518563ffffffff1660e01b81526004016103ba949392919061207f565b602060405180830381865afa1580156103d5573d5f5f3e3d5ffd5b505050506040513d601f19601f820116820180604052508101906103f991906120ee565b610438576040517f08c379a000000000000000000000000000000000000000000000000000000000815260040161042f90612163565b60405180910390fd5b5f8560046006811061044d5761044c612181565b5b60200201359050468114610496576040517f08c379a000000000000000000000000000000000000000000000000000000000815260040161048d906121f8565b60405180910390fd5b5f6104a087610fc6565b90506104b1815f1b8787878761107b565b60015f8281526020019081526020015f205f9054906101000a900460ff161561050f576040517f08c379a000000000000000000000000000000000000000000000000000000000815260040161050690612260565b60405180910390fd5b6001805f8381526020019081526020015f205f6101000a81548160ff0219169083151502179055505f6105598860056006811061054f5761054e612181565b5b602002013561064e565b90507f000000000000000000000000000000000000000000000000000000000000000073ffffffffffffffffffffffffffffffffffffffff16631722e147826040518263ffffffff1660e01b81526004016105b49190611ab0565b5f604051808303815f87803b1580156105cb575f5ffd5b505af11580156105dd573d5f5f3e3d5ffd5b505050505050505050505050505050565b606081604051602001610601919061229e565b6040516020818303038152906040529050919050565b7f000000000000000000000000000000000000000000000000000000000000000081565b6106436112f5565b61064c5f61137c565b565b5f819050919050565b5f5f5f9054906101000a900473ffffffffffffffffffffffffffffffffffffffff16905090565b5f60418251146106c3576040517f08c379a00000000000000000000000000000000000000000000000000000000081526004016106ba90612302565b60405180910390fd5b5f5f5f602085015192506040850151915060608501515f1a90506001868285856040515f81526020016040526040516106ff949392919061233b565b6020604051602081039080840390855afa15801561071f573d5f5f3e3d5ffd5b50505060206040510351935050505092915050565b6001602052805f5260405f205f915054906101000a900460ff1681565b7f000000000000000000000000000000000000000000000000000000000000000081565b7f000000000000000000000000000000000000000000000000000000000000000081565b60605f82036107b85760405180602001604052805f8152509050610996565b5f825f1b90505f5f90505b60208160ff1610801561081357505f60f81b828260ff16602081106107eb576107ea612181565b5b1a60f81b7effffffffffffffffffffffffffffffffffffffffffffffffffffffffffffff1916145b1561082b578080610823906123ab565b9150506107c3565b5f601f90505b8160ff168160ff1611801561088357505f60f81b838260ff166020811061085b5761085a612181565b5b1a60f81b7effffffffffffffffffffffffffffffffffffffffffffffffffffffffffffff1916145b1561089b578080610893906123d3565b915050610831565b5f600183836108aa91906123fa565b6108b4919061242e565b90505f8160ff1667ffffffffffffffff8111156108d4576108d3611b00565b5b6040519080825280601f01601f1916602001820160405280156109065781602001600182028036833780820191505090505b5090505f5f90505b8260ff1681101561098c5785818660ff166109299190612462565b6020811061093a57610939612181565b5b1a60f81b82828151811061095157610950612181565b5b60200101907effffffffffffffffffffffffffffffffffffffffffffffffffffffffffffff191690815f1a905350808060010191505061090e565b5080955050505050505b919050565b7f000000000000000000000000000000000000000000000000000000000000000081565b7f000000000000000000000000000000000000000000000000000000000000000073ffffffffffffffffffffffffffffffffffffffff1663c9219a7a898989896040518563ffffffff1660e01b8152600401610a1e94939291906124a6565b602060405180830381865afa158015610a39573d5f5f3e3d5ffd5b505050506040513d601f19601f82011682018060405250810190610a5d91906120ee565b610a9c576040517f08c379a0000000000000000000000000000000000000000000000000000000008152600401610a9390612163565b60405180910390fd5b5f85600560088110610ab157610ab0612181565b5b60200201359050468114610afa576040517f08c379a0000000000000000000000000000000000000000000000000000000008152600401610af1906121f8565b60405180910390fd5b5f610b1c87600360088110610b1257610b11612181565b5b6020020135610799565b90505f610b4088600260088110610b3657610b35612181565b5b6020020135610799565b90505f610b6489600460088110610b5a57610b59612181565b5b60200201356105ee565b90505f610b708a61143d565b9050610b81815f1b8a8a8a8a61107b565b60015f8281526020019081526020015f205f9054906101000a900460ff1615610bdf576040517f08c379a0000000000000000000000000000000000000000000000000000000008152600401610bd690612260565b60405180910390fd5b6001805f8381526020019081526020015f205f6101000a81548160ff0219169083151502179055507f000000000000000000000000000000000000000000000000000000000000000073ffffffffffffffffffffffffffffffffffffffff16632e057b9b8486856040518463ffffffff1660e01b8152600401610c64939291906124eb565b5f604051808303815f87803b158015610c7b575f5ffd5b505af1158015610c8d573d5f5f3e3d5ffd5b5050505050505050505050505050505050565b7f000000000000000000000000000000000000000000000000000000000000000073ffffffffffffffffffffffffffffffffffffffff1663c9219a7a898989896040518563ffffffff1660e01b8152600401610cff94939291906124a6565b602060405180830381865afa158015610d1a573d5f5f3e3d5ffd5b505050506040513d601f19601f82011682018060405250810190610d3e91906120ee565b610d7d576040517f08c379a0000000000000000000000000000000000000000000000000000000008152600401610d7490612163565b60405180910390fd5b5f5f5f610d8988611526565b9250925092505f88600360088110610da457610da3612181565b5b602002013590505f89600460088110610dc057610dbf612181565b5b602002013590505f610dd18b61143d565b9050610de2815f1b8b8b8b8b61107b565b60015f8281526020019081526020015f205f9054906101000a900460ff1615610e40576040517f08c379a0000000000000000000000000000000000000000000000000000000008152600401610e3790612260565b60405180910390fd5b6001805f8381526020019081526020015f205f6101000a81548160ff0219169083151502179055505f83608084901b1790508573ffffffffffffffffffffffffffffffffffffffff16636afbf5d682878a866040518563ffffffff1660e01b8152600401610eb19493929190612544565b5f604051808303815f87803b158015610ec8575f5ffd5b505af1158015610eda573d5f5f3e3d5ffd5b50505050505050505050505050505050505050565b610ef76112f5565b5f73ffffffffffffffffffffffffffffffffffffffff168173ffffffffffffffffffffffffffffffffffffffff1603610f67575f6040517f1e4fbdf7000000000000000000000000000000000000000000000000000000008152600401610f5e9190611ab0565b60405180910390fd5b610f708161137c565b50565b7f000000000000000000000000000000000000000000000000000000000000000081565b5f81604051602001610fa99190612602565b604051602081830303815290604052805190602001209050919050565b5f5f825f60068110610fdb57610fda612181565b5b602002013583600160068110610ff457610ff3612181565b5b60200201358460026006811061100d5761100c612181565b5b60200201358560036006811061102657611025612181565b5b60200201358660046006811061103f5761103e612181565b5b6020020135604051602001611058959493929190612627565b604051602081830303815290604052805190602001209050805f1c915050919050565b5f61108586610f97565b90505f7f000000000000000000000000000000000000000000000000000000000000000073ffffffffffffffffffffffffffffffffffffffff16631442e4c96040518163ffffffff1660e01b81526004015f60405180830381865afa1580156110f0573d5f5f3e3d5ffd5b505050506040513d5f823e3d601f19601f820116820180604052508101906111189190612759565b90505f5f90505b868690508110156112eb57365f868660418561113b91906127a0565b90604160018761114b9190612462565b61115591906127a0565b92611162939291906127e9565b915091505f6111b48684848080601f0160208091040260200160405190810160405280939291908181526020018383808284375f81840152601f19601f8201169050808301925050505050505061067e565b90505f73ffffffffffffffffffffffffffffffffffffffff168173ffffffffffffffffffffffffffffffffffffffff1603611224576040517f08c379a000000000000000000000000000000000000000000000000000000000815260040161121b9061286d565b60405180910390fd5b5f5f90505f5f90505b8651811015611299578273ffffffffffffffffffffffffffffffffffffffff168782815181106112605761125f612181565b5b602002602001015173ffffffffffffffffffffffffffffffffffffffff160361128c5760019150611299565b808060010191505061122d565b50806112da576040517f08c379a00000000000000000000000000000000000000000000000000000000081526004016112d1906128d5565b60405180910390fd5b50505050808060010191505061111f565b5050505050505050565b6112fd611710565b73ffffffffffffffffffffffffffffffffffffffff1661131b610657565b73ffffffffffffffffffffffffffffffffffffffff161461137a5761133e611710565b6040517f118cdaa70000000000000000000000000000000000000000000000000000000081526004016113719190611ab0565b60405180910390fd5b565b5f5f5f9054906101000a900473ffffffffffffffffffffffffffffffffffffffff169050815f5f6101000a81548173ffffffffffffffffffffffffffffffffffffffff021916908373ffffffffffffffffffffffffffffffffffffffff1602179055508173ffffffffffffffffffffffffffffffffffffffff168173ffffffffffffffffffffffffffffffffffffffff167f8be0079c531659141344cd1fd0a4f28419497f9722a3daafe3b4186f6b6457e060405160405180910390a35050565b5f5f825f6008811061145257611451612181565b5b60200201358360016008811061146b5761146a612181565b5b60200201358460026008811061148457611483612181565b5b60200201358560036008811061149d5761149c612181565b5b6020020135866004600881106114b6576114b5612181565b5b6020020135876005600881106114cf576114ce612181565b5b6020020135886006600881106114e8576114e7612181565b5b602002013560405160200161150397969594939291906128f3565b604051602081830303815290604052805190602001209050805f1c915050919050565b5f5f60605f8460076008811061153f5761153e612181565b5b602002013590505f63ffffffff8216905067ffffffffffffffff602083901c1694504681146115a3576040517f08c379a000000000000000000000000000000000000000000000000000000000815260040161159a906121f8565b60405180910390fd5b6115c4866005600881106115ba576115b9612181565b5b6020020135610799565b92505f6115e8876006600881106115de576115dd612181565b5b6020020135610799565b90505f816040516020016115fc91906129ed565b60405160208183030381529060405290505f7f000000000000000000000000000000000000000000000000000000000000000073ffffffffffffffffffffffffffffffffffffffff166316f1adc1836040518263ffffffff1660e01b81526004016116679190612a58565b5f60405180830381865afa158015611681573d5f5f3e3d5ffd5b505050506040513d5f823e3d601f19601f820116820180604052508101906116a99190612af9565b90505f8151116116ee576040517f08c379a00000000000000000000000000000000000000000000000000000000081526004016116e590612b8a565b60405180910390fd5b808060200190518101906117029190612be3565b965050505050509193909250565b5f33905090565b5f604051905090565b5f5ffd5b5f5ffd5b5f5ffd5b5f8190508260206002028201111561174757611746611728565b5b92915050565b5f8190508260406002028201111561176857611767611728565b5b92915050565b5f8190508260206006028201111561178957611788611728565b5b92915050565b5f5ffd5b5f5ffd5b5f5f83601f8401126117ac576117ab61178f565b5b8235905067ffffffffffffffff8111156117c9576117c8611793565b5b6020830191508360208202830111156117e5576117e4611728565b5b9250929050565b5f5f83601f8401126118015761180061178f565b5b8235905067ffffffffffffffff81111561181e5761181d611793565b5b60208301915083600182028301111561183a57611839611728565b5b9250929050565b5f5f5f5f5f5f5f5f610200898b03121561185e5761185d611720565b5b5f61186b8b828c0161172c565b985050604061187c8b828c0161174d565b97505060c061188d8b828c0161172c565b96505061010061189f8b828c0161176e565b9550506101c089013567ffffffffffffffff8111156118c1576118c0611724565b5b6118cd8b828c01611797565b94509450506101e089013567ffffffffffffffff8111156118f1576118f0611724565b5b6118fd8b828c016117ec565b92509250509295985092959890939650565b5f819050919050565b6119218161190f565b811461192b575f5ffd5b50565b5f8135905061193c81611918565b92915050565b5f6020828403121561195757611956611720565b5b5f6119648482850161192e565b91505092915050565b5f81519050919050565b5f82825260208201905092915050565b8281835e5f83830152505050565b5f601f19601f8301169050919050565b5f6119af8261196d565b6119b98185611977565b93506119c9818560208601611987565b6119d281611995565b840191505092915050565b5f6020820190508181035f8301526119f581846119a5565b905092915050565b5f73ffffffffffffffffffffffffffffffffffffffff82169050919050565b5f819050919050565b5f611a3f611a3a611a35846119fd565b611a1c565b6119fd565b9050919050565b5f611a5082611a25565b9050919050565b5f611a6182611a46565b9050919050565b611a7181611a57565b82525050565b5f602082019050611a8a5f830184611a68565b92915050565b5f611a9a826119fd565b9050919050565b611aaa81611a90565b82525050565b5f602082019050611ac35f830184611aa1565b92915050565b5f819050919050565b611adb81611ac9565b8114611ae5575f5ffd5b50565b5f81359050611af681611ad2565b92915050565b5f5ffd5b7f4e487b71000000000000000000000000000000000000000000000000000000005f52604160045260245ffd5b611b3682611995565b810181811067ffffffffffffffff82111715611b5557611b54611b00565b5b80604052505050565b5f611b67611717565b9050611b738282611b2d565b919050565b5f67ffffffffffffffff821115611b9257611b91611b00565b5b611b9b82611995565b9050602081019050919050565b828183375f83830152505050565b5f611bc8611bc384611b78565b611b5e565b905082815260208101848484011115611be457611be3611afc565b5b611bef848285611ba8565b509392505050565b5f82601f830112611c0b57611c0a61178f565b5b8135611c1b848260208601611bb6565b91505092915050565b5f5f60408385031215611c3a57611c39611720565b5b5f611c4785828601611ae8565b925050602083013567ffffffffffffffff811115611c6857611c67611724565b5b611c7485828601611bf7565b9150509250929050565b5f8115159050919050565b611c9281611c7e565b82525050565b5f602082019050611cab5f830184611c89565b92915050565b5f611cbb82611a46565b9050919050565b611ccb81611cb1565b82525050565b5f602082019050611ce45f830184611cc2565b92915050565b5f611cf482611a46565b9050919050565b611d0481611cea565b82525050565b5f602082019050611d1d5f830184611cfb565b92915050565b5f81519050919050565b5f82825260208201905092915050565b5f611d4782611d23565b611d518185611d2d565b9350611d61818560208601611987565b611d6a81611995565b840191505092915050565b5f6020820190508181035f830152611d8d8184611d3d565b905092915050565b5f611d9f82611a46565b9050919050565b611daf81611d95565b82525050565b5f602082019050611dc85f830184611da6565b92915050565b5f81905082602060080282011115611de957611de8611728565b5b92915050565b5f5f5f5f5f5f5f5f610240898b031215611e0c57611e0b611720565b5b5f611e198b828c0161172c565b9850506040611e2a8b828c0161174d565b97505060c0611e3b8b828c0161172c565b965050610100611e4d8b828c01611dce565b95505061020089013567ffffffffffffffff811115611e6f57611e6e611724565b5b611e7b8b828c01611797565b945094505061022089013567ffffffffffffffff811115611e9f57611e9e611724565b5b611eab8b828c016117ec565b92509250509295985092959890939650565b611ec681611a90565b8114611ed0575f5ffd5b50565b5f81359050611ee181611ebd565b92915050565b5f60208284031215611efc57611efb611720565b5b5f611f0984828501611ed3565b91505092915050565b5f611f1c82611a46565b9050919050565b611f2c81611f12565b82525050565b5f602082019050611f455f830184611f23565b92915050565b5f60208284031215611f6057611f5f611720565b5b5f611f6d84828501611ae8565b91505092915050565b611f7f81611ac9565b82525050565b5f602082019050611f985f830184611f76565b92915050565b82818337505050565b611fb360408383611f9e565b5050565b5f60029050919050565b5f81905092915050565b5f819050919050565b611fe060408383611f9e565b5050565b5f611fef8383611fd4565b60408301905092915050565b5f82905092915050565b5f604082019050919050565b61201a81611fb7565b6120248184611fc1565b925061202f82611fcb565b805f5b83811015612067576120448284611ffb565b61204e8782611fe4565b965061205983612005565b925050600181019050612032565b505050505050565b61207b60c08383611f9e565b5050565b5f6101c0820190506120935f830187611fa7565b6120a06040830186612011565b6120ad60c0830185611fa7565b6120bb61010083018461206f565b95945050505050565b6120cd81611c7e565b81146120d7575f5ffd5b50565b5f815190506120e8816120c4565b92915050565b5f6020828403121561210357612102611720565b5b5f612110848285016120da565b91505092915050565b7f496e76616c6964205a4b2050726f6f66000000000000000000000000000000005f82015250565b5f61214d601083611d2d565b915061215882612119565b602082019050919050565b5f6020820190508181035f83015261217a81612141565b9050919050565b7f4e487b71000000000000000000000000000000000000000000000000000000005f52603260045260245ffd5b7f57726f6e672064657374696e6174696f6e20636861696e0000000000000000005f82015250565b5f6121e2601783611d2d565b91506121ed826121ae565b602082019050919050565b5f6020820190508181035f83015261220f816121d6565b9050919050565b7f5265706c61792061747461636b206465746563746564000000000000000000005f82015250565b5f61224a601683611d2d565b915061225582612216565b602082019050919050565b5f6020820190508181035f8301526122778161223e565b9050919050565b5f819050919050565b6122986122938261190f565b61227e565b82525050565b5f6122a98284612287565b60208201915081905092915050565b7f496e76616c6964207369676e6174757265206c656e67746800000000000000005f82015250565b5f6122ec601883611d2d565b91506122f7826122b8565b602082019050919050565b5f6020820190508181035f830152612319816122e0565b9050919050565b5f60ff82169050919050565b61233581612320565b82525050565b5f60808201905061234e5f830187611f76565b61235b602083018661232c565b6123686040830185611f76565b6123756060830184611f76565b95945050505050565b7f4e487b71000000000000000000000000000000000000000000000000000000005f52601160045260245ffd5b5f6123b582612320565b915060ff82036123c8576123c761237e565b5b600182019050919050565b5f6123dd82612320565b91505f82036123ef576123ee61237e565b5b600182039050919050565b5f61240482612320565b915061240f83612320565b9250828203905060ff8111156124285761242761237e565b5b92915050565b5f61243882612320565b915061244383612320565b9250828201905060ff81111561245c5761245b61237e565b5b92915050565b5f61246c8261190f565b91506124778361190f565b925082820190508082111561248f5761248e61237e565b5b92915050565b6124a26101008383611f9e565b5050565b5f610200820190506124ba5f830187611fa7565b6124c76040830186612011565b6124d460c0830185611fa7565b6124e2610100830184612495565b95945050505050565b5f6060820190508181035f8301526125038186611d3d565b905081810360208301526125178185611d3d565b9050818103604083015261252b81846119a5565b9050949350505050565b61253e8161190f565b82525050565b5f6080820190506125575f830187611aa1565b81810360208301526125698186611d3d565b90506125786040830185612535565b6125856060830184612535565b95945050505050565b5f81905092915050565b7f19457468657265756d205369676e6564204d6573736167653a0a3332000000005f82015250565b5f6125cc601c8361258e565b91506125d782612598565b601c82019050919050565b5f819050919050565b6125fc6125f782611ac9565b6125e2565b82525050565b5f61260c826125c0565b915061261882846125eb565b60208201915081905092915050565b5f6126328288612287565b6020820191506126428287612287565b6020820191506126528286612287565b6020820191506126628285612287565b6020820191506126728284612287565b6020820191508190509695505050505050565b5f67ffffffffffffffff82111561269f5761269e611b00565b5b602082029050602081019050919050565b5f815190506126be81611ebd565b92915050565b5f6126d66126d184612685565b611b5e565b905080838252602082019050602084028301858111156126f9576126f8611728565b5b835b81811015612722578061270e88826126b0565b8452602084019350506020810190506126fb565b5050509392505050565b5f82601f8301126127405761273f61178f565b5b81516127508482602086016126c4565b91505092915050565b5f6020828403121561276e5761276d611720565b5b5f82015167ffffffffffffffff81111561278b5761278a611724565b5b6127978482850161272c565b91505092915050565b5f6127aa8261190f565b91506127b58361190f565b92508282026127c38161190f565b915082820484148315176127da576127d961237e565b5b5092915050565b5f5ffd5b5f5ffd5b5f5f858511156127fc576127fb6127e1565b5b8386111561280d5761280c6127e5565b5b6001850283019150848603905094509492505050565b7f496e76616c6964207369676e61747572650000000000000000000000000000005f82015250565b5f612857601183611d2d565b915061286282612823565b602082019050919050565b5f6020820190508181035f8301526128848161284b565b9050919050565b7f5369676e6572206e6f7420616e206163746976652076616c696461746f7200005f82015250565b5f6128bf601e83611d2d565b91506128ca8261288b565b602082019050919050565b5f6020820190508181035f8301526128ec816128b3565b9050919050565b5f6128fe828a612287565b60208201915061290e8289612287565b60208201915061291e8288612287565b60208201915061292e8287612287565b60208201915061293e8286612287565b60208201915061294e8285612287565b60208201915061295e8284612287565b60208201915081905098975050505050505050565b5f61297d82611d23565b612987818561258e565b9350612997818560208601611987565b80840191505092915050565b7f5f7661756c7400000000000000000000000000000000000000000000000000005f82015250565b5f6129d760068361258e565b91506129e2826129a3565b600682019050919050565b5f6129f88284612973565b9150612a03826129cb565b915081905092915050565b7f51696172614261736541737365747300000000000000000000000000000000005f82015250565b5f612a42600f83611d2d565b9150612a4d82612a0e565b602082019050919050565b5f6040820190508181035f830152612a6f81612a36565b90508181036020830152612a838184611d3d565b905092915050565b5f612a9d612a9884611b78565b611b5e565b905082815260208101848484011115612ab957612ab8611afc565b5b612ac4848285611987565b509392505050565b5f82601f830112612ae057612adf61178f565b5b8151612af0848260208601612a8b565b91505092915050565b5f60208284031215612b0e57612b0d611720565b5b5f82015167ffffffffffffffff811115612b2b57612b2a611724565b5b612b3784828501612acc565b91505092915050565b7f5661756c74206e6f7420617574686f72697a65640000000000000000000000005f82015250565b5f612b74601483611d2d565b9150612b7f82612b40565b602082019050919050565b5f6020820190508181035f830152612ba181612b68565b9050919050565b5f612bb2826119fd565b9050919050565b612bc281612ba8565b8114612bcc575f5ffd5b50565b5f81519050612bdd81612bb9565b92915050565b5f60208284031215612bf857612bf7611720565b5b5f612c0584828501612bcf565b9150509291505056fea2646970667358221220f073570d96cc939e83d199e899396c8d739148a644200253b7a458d915b29b5064736f6c634300081f0033",
					"opcodes": "PUSH2 0x120 PUSH1 0x40 MSTORE CALLVALUE DUP1 ISZERO PUSH2 0x10 JUMPI PUSH0 PUSH0 REVERT JUMPDEST POP PUSH1 0x40 MLOAD PUSH2 0x3032 CODESIZE SUB DUP1 PUSH2 0x3032 DUP4 CODECOPY DUP2 DUP2 ADD PUSH1 0x40 MSTORE DUP2 ADD SWAP1 PUSH2 0x32 SWAP2 SWAP1 PUSH2 0x2E1 JUMP JUMPDEST CALLER PUSH0 PUSH20 0xFFFFFFFFFFFFFFFFFFFFFFFFFFFFFFFFFFFFFFFF AND DUP2 PUSH20 0xFFFFFFFFFFFFFFFFFFFFFFFFFFFFFFFFFFFFFFFF AND SUB PUSH2 0xA3 JUMPI PUSH0 PUSH1 0x40 MLOAD PUSH32 0x1E4FBDF700000000000000000000000000000000000000000000000000000000 DUP2 MSTORE PUSH1 0x4 ADD PUSH2 0x9A SWAP2 SWAP1 PUSH2 0x367 JUMP JUMPDEST PUSH1 0x40 MLOAD DUP1 SWAP2 SUB SWAP1 REVERT JUMPDEST PUSH2 0xB2 DUP2 PUSH2 0x1C2 PUSH1 0x20 SHL PUSH1 0x20 SHR JUMP JUMPDEST POP DUP5 PUSH20 0xFFFFFFFFFFFFFFFFFFFFFFFFFFFFFFFFFFFFFFFF AND PUSH1 0x80 DUP2 PUSH20 0xFFFFFFFFFFFFFFFFFFFFFFFFFFFFFFFFFFFFFFFF AND DUP2 MSTORE POP POP DUP4 PUSH20 0xFFFFFFFFFFFFFFFFFFFFFFFFFFFFFFFFFFFFFFFF AND PUSH1 0xA0 DUP2 PUSH20 0xFFFFFFFFFFFFFFFFFFFFFFFFFFFFFFFFFFFFFFFF AND DUP2 MSTORE POP POP DUP3 PUSH20 0xFFFFFFFFFFFFFFFFFFFFFFFFFFFFFFFFFFFFFFFF AND PUSH1 0xC0 DUP2 PUSH20 0xFFFFFFFFFFFFFFFFFFFFFFFFFFFFFFFFFFFFFFFF AND DUP2 MSTORE POP POP DUP2 PUSH20 0xFFFFFFFFFFFFFFFFFFFFFFFFFFFFFFFFFFFFFFFF AND PUSH1 0xE0 DUP2 PUSH20 0xFFFFFFFFFFFFFFFFFFFFFFFFFFFFFFFFFFFFFFFF AND DUP2 MSTORE POP POP DUP1 PUSH20 0xFFFFFFFFFFFFFFFFFFFFFFFFFFFFFFFFFFFFFFFF AND PUSH2 0x100 DUP2 PUSH20 0xFFFFFFFFFFFFFFFFFFFFFFFFFFFFFFFFFFFFFFFF AND DUP2 MSTORE POP POP POP POP POP POP POP PUSH2 0x380 JUMP JUMPDEST PUSH0 PUSH0 PUSH0 SWAP1 SLOAD SWAP1 PUSH2 0x100 EXP SWAP1 DIV PUSH20 0xFFFFFFFFFFFFFFFFFFFFFFFFFFFFFFFFFFFFFFFF AND SWAP1 POP DUP2 PUSH0 PUSH0 PUSH2 0x100 EXP DUP2 SLOAD DUP2 PUSH20 0xFFFFFFFFFFFFFFFFFFFFFFFFFFFFFFFFFFFFFFFF MUL NOT AND SWAP1 DUP4 PUSH20 0xFFFFFFFFFFFFFFFFFFFFFFFFFFFFFFFFFFFFFFFF AND MUL OR SWAP1 SSTORE POP DUP2 PUSH20 0xFFFFFFFFFFFFFFFFFFFFFFFFFFFFFFFFFFFFFFFF AND DUP2 PUSH20 0xFFFFFFFFFFFFFFFFFFFFFFFFFFFFFFFFFFFFFFFF AND PUSH32 0x8BE0079C531659141344CD1FD0A4F28419497F9722A3DAAFE3B4186F6B6457E0 PUSH1 0x40 MLOAD PUSH1 0x40 MLOAD DUP1 SWAP2 SUB SWAP1 LOG3 POP POP JUMP JUMPDEST PUSH0 PUSH0 REVERT JUMPDEST PUSH0 PUSH20 0xFFFFFFFFFFFFFFFFFFFFFFFFFFFFFFFFFFFFFFFF DUP3 AND SWAP1 POP SWAP2 SWAP1 POP JUMP JUMPDEST PUSH0 PUSH2 0x2B0 DUP3 PUSH2 0x287 JUMP JUMPDEST SWAP1 POP SWAP2 SWAP1 POP JUMP JUMPDEST PUSH2 0x2C0 DUP2 PUSH2 0x2A6 JUMP JUMPDEST DUP2 EQ PUSH2 0x2CA JUMPI PUSH0 PUSH0 REVERT JUMPDEST POP JUMP JUMPDEST PUSH0 DUP2 MLOAD SWAP1 POP PUSH2 0x2DB DUP2 PUSH2 0x2B7 JUMP JUMPDEST SWAP3 SWAP2 POP POP JUMP JUMPDEST PUSH0 PUSH0 PUSH0 PUSH0 PUSH0 PUSH1 0xA0 DUP7 DUP9 SUB SLT ISZERO PUSH2 0x2FA JUMPI PUSH2 0x2F9 PUSH2 0x283 JUMP JUMPDEST JUMPDEST PUSH0 PUSH2 0x307 DUP9 DUP3 DUP10 ADD PUSH2 0x2CD JUMP JUMPDEST SWAP6 POP POP PUSH1 0x20 PUSH2 0x318 DUP9 DUP3 DUP10 ADD PUSH2 0x2CD JUMP JUMPDEST SWAP5 POP POP PUSH1 0x40 PUSH2 0x329 DUP9 DUP3 DUP10 ADD PUSH2 0x2CD JUMP JUMPDEST SWAP4 POP POP PUSH1 0x60 PUSH2 0x33A DUP9 DUP3 DUP10 ADD PUSH2 0x2CD JUMP JUMPDEST SWAP3 POP POP PUSH1 0x80 PUSH2 0x34B DUP9 DUP3 DUP10 ADD PUSH2 0x2CD JUMP JUMPDEST SWAP2 POP POP SWAP3 SWAP6 POP SWAP3 SWAP6 SWAP1 SWAP4 POP JUMP JUMPDEST PUSH2 0x361 DUP2 PUSH2 0x2A6 JUMP JUMPDEST DUP3 MSTORE POP POP JUMP JUMPDEST PUSH0 PUSH1 0x20 DUP3 ADD SWAP1 POP PUSH2 0x37A PUSH0 DUP4 ADD DUP5 PUSH2 0x358 JUMP JUMPDEST SWAP3 SWAP2 POP POP JUMP JUMPDEST PUSH1 0x80 MLOAD PUSH1 0xA0 MLOAD PUSH1 0xC0 MLOAD PUSH1 0xE0 MLOAD PUSH2 0x100 MLOAD PUSH2 0x2C44 PUSH2 0x3EE PUSH0 CODECOPY PUSH0 DUP2 DUP2 PUSH2 0x55D ADD MSTORE DUP2 DUP2 PUSH2 0x753 ADD MSTORE PUSH2 0x108A ADD MSTORE PUSH0 DUP2 DUP2 PUSH2 0x99D ADD MSTORE DUP2 DUP2 PUSH2 0xC09 ADD MSTORE PUSH2 0x1610 ADD MSTORE PUSH0 DUP2 DUP2 PUSH2 0x35D ADD MSTORE PUSH2 0x777 ADD MSTORE PUSH0 DUP2 DUP2 PUSH2 0x619 ADD MSTORE PUSH2 0x9C1 ADD MSTORE PUSH0 DUP2 DUP2 PUSH2 0xCA2 ADD MSTORE PUSH2 0xF75 ADD MSTORE PUSH2 0x2C44 PUSH0 RETURN INVALID PUSH1 0x80 PUSH1 0x40 MSTORE CALLVALUE DUP1 ISZERO PUSH2 0xF JUMPI PUSH0 PUSH0 REVERT JUMPDEST POP PUSH1 0x4 CALLDATASIZE LT PUSH2 0x109 JUMPI PUSH0 CALLDATALOAD PUSH1 0xE0 SHR DUP1 PUSH4 0xAED881D8 GT PUSH2 0xA0 JUMPI DUP1 PUSH4 0xC3C2198F GT PUSH2 0x6F JUMPI DUP1 PUSH4 0xC3C2198F EQ PUSH2 0x2B9 JUMPI DUP1 PUSH4 0xCC60819F EQ PUSH2 0x2D5 JUMPI DUP1 PUSH4 0xF2FDE38B EQ PUSH2 0x2F1 JUMPI DUP1 PUSH4 0xF90C0F40 EQ PUSH2 0x30D JUMPI DUP1 PUSH4 0xFA540801 EQ PUSH2 0x32B JUMPI PUSH2 0x109 JUMP JUMPDEST DUP1 PUSH4 0xAED881D8 EQ PUSH2 0x22F JUMPI DUP1 PUSH4 0xB3D63003 EQ PUSH2 0x24D JUMPI DUP1 PUSH4 0xB648F220 EQ PUSH2 0x26B JUMPI DUP1 PUSH4 0xBF4D766E EQ PUSH2 0x29B JUMPI PUSH2 0x109 JUMP JUMPDEST DUP1 PUSH4 0x7A988C54 GT PUSH2 0xDC JUMPI DUP1 PUSH4 0x7A988C54 EQ PUSH2 0x181 JUMPI DUP1 PUSH4 0x8DA5CB5B EQ PUSH2 0x1B1 JUMPI DUP1 PUSH4 0x97ABA7F9 EQ PUSH2 0x1CF JUMPI DUP1 PUSH4 0xAAD24061 EQ PUSH2 0x1FF JUMPI PUSH2 0x109 JUMP JUMPDEST DUP1 PUSH4 0x18E43082 EQ PUSH2 0x10D JUMPI DUP1 PUSH4 0x19B8C941 EQ PUSH2 0x129 JUMPI DUP1 PUSH4 0x4EB30D41 EQ PUSH2 0x159 JUMPI DUP1 PUSH4 0x715018A6 EQ PUSH2 0x177 JUMPI JUMPDEST PUSH0 PUSH0 REVERT JUMPDEST PUSH2 0x127 PUSH1 0x4 DUP1 CALLDATASIZE SUB DUP2 ADD SWAP1 PUSH2 0x122 SWAP2 SWAP1 PUSH2 0x1841 JUMP JUMPDEST PUSH2 0x35B JUMP JUMPDEST STOP JUMPDEST PUSH2 0x143 PUSH1 0x4 DUP1 CALLDATASIZE SUB DUP2 ADD SWAP1 PUSH2 0x13E SWAP2 SWAP1 PUSH2 0x1942 JUMP JUMPDEST PUSH2 0x5EE JUMP JUMPDEST PUSH1 0x40 MLOAD PUSH2 0x150 SWAP2 SWAP1 PUSH2 0x19DD JUMP JUMPDEST PUSH1 0x40 MLOAD DUP1 SWAP2 SUB SWAP1 RETURN JUMPDEST PUSH2 0x161 PUSH2 0x617 JUMP JUMPDEST PUSH1 0x40 MLOAD PUSH2 0x16E SWAP2 SWAP1 PUSH2 0x1A77 JUMP JUMPDEST PUSH1 0x40 MLOAD DUP1 SWAP2 SUB SWAP1 RETURN JUMPDEST PUSH2 0x17F PUSH2 0x63B JUMP JUMPDEST STOP JUMPDEST PUSH2 0x19B PUSH1 0x4 DUP1 CALLDATASIZE SUB DUP2 ADD SWAP1 PUSH2 0x196 SWAP2 SWAP1 PUSH2 0x1942 JUMP JUMPDEST PUSH2 0x64E JUMP JUMPDEST PUSH1 0x40 MLOAD PUSH2 0x1A8 SWAP2 SWAP1 PUSH2 0x1AB0 JUMP JUMPDEST PUSH1 0x40 MLOAD DUP1 SWAP2 SUB SWAP1 RETURN JUMPDEST PUSH2 0x1B9 PUSH2 0x657 JUMP JUMPDEST PUSH1 0x40 MLOAD PUSH2 0x1C6 SWAP2 SWAP1 PUSH2 0x1AB0 JUMP JUMPDEST PUSH1 0x40 MLOAD DUP1 SWAP2 SUB SWAP1 RETURN JUMPDEST PUSH2 0x1E9 PUSH1 0x4 DUP1 CALLDATASIZE SUB DUP2 ADD SWAP1 PUSH2 0x1E4 SWAP2 SWAP1 PUSH2 0x1C24 JUMP JUMPDEST PUSH2 0x67E JUMP JUMPDEST PUSH1 0x40 MLOAD PUSH2 0x1F6 SWAP2 SWAP1 PUSH2 0x1AB0 JUMP JUMPDEST PUSH1 0x40 MLOAD DUP1 SWAP2 SUB SWAP1 RETURN JUMPDEST PUSH2 0x219 PUSH1 0x4 DUP1 CALLDATASIZE SUB DUP2 ADD SWAP1 PUSH2 0x214 SWAP2 SWAP1 PUSH2 0x1942 JUMP JUMPDEST PUSH2 0x734 JUMP JUMPDEST PUSH1 0x40 MLOAD PUSH2 0x226 SWAP2 SWAP1 PUSH2 0x1C98 JUMP JUMPDEST PUSH1 0x40 MLOAD DUP1 SWAP2 SUB SWAP1 RETURN JUMPDEST PUSH2 0x237 PUSH2 0x751 JUMP JUMPDEST PUSH1 0x40 MLOAD PUSH2 0x244 SWAP2 SWAP1 PUSH2 0x1CD1 JUMP JUMPDEST PUSH1 0x40 MLOAD DUP1 SWAP2 SUB SWAP1 RETURN JUMPDEST PUSH2 0x255 PUSH2 0x775 JUMP JUMPDEST PUSH1 0x40 MLOAD PUSH2 0x262 SWAP2 SWAP1 PUSH2 0x1D0A JUMP JUMPDEST PUSH1 0x40 MLOAD DUP1 SWAP2 SUB SWAP1 RETURN JUMPDEST PUSH2 0x285 PUSH1 0x4 DUP1 CALLDATASIZE SUB DUP2 ADD SWAP1 PUSH2 0x280 SWAP2 SWAP1 PUSH2 0x1942 JUMP JUMPDEST PUSH2 0x799 JUMP JUMPDEST PUSH1 0x40 MLOAD PUSH2 0x292 SWAP2 SWAP1 PUSH2 0x1D75 JUMP JUMPDEST PUSH1 0x40 MLOAD DUP1 SWAP2 SUB SWAP1 RETURN JUMPDEST PUSH2 0x2A3 PUSH2 0x99B JUMP JUMPDEST PUSH1 0x40 MLOAD PUSH2 0x2B0 SWAP2 SWAP1 PUSH2 0x1DB5 JUMP JUMPDEST PUSH1 0x40 MLOAD DUP1 SWAP2 SUB SWAP1 RETURN JUMPDEST PUSH2 0x2D3 PUSH1 0x4 DUP1 CALLDATASIZE SUB DUP2 ADD SWAP1 PUSH2 0x2CE SWAP2 SWAP1 PUSH2 0x1DEF JUMP JUMPDEST PUSH2 0x9BF JUMP JUMPDEST STOP JUMPDEST PUSH2 0x2EF PUSH1 0x4 DUP1 CALLDATASIZE SUB DUP2 ADD SWAP1 PUSH2 0x2EA SWAP2 SWAP1 PUSH2 0x1DEF JUMP JUMPDEST PUSH2 0xCA0 JUMP JUMPDEST STOP JUMPDEST PUSH2 0x30B PUSH1 0x4 DUP1 CALLDATASIZE SUB DUP2 ADD SWAP1 PUSH2 0x306 SWAP2 SWAP1 PUSH2 0x1EE7 JUMP JUMPDEST PUSH2 0xEEF JUMP JUMPDEST STOP JUMPDEST PUSH2 0x315 PUSH2 0xF73 JUMP JUMPDEST PUSH1 0x40 MLOAD PUSH2 0x322 SWAP2 SWAP1 PUSH2 0x1F32 JUMP JUMPDEST PUSH1 0x40 MLOAD DUP1 SWAP2 SUB SWAP1 RETURN JUMPDEST PUSH2 0x345 PUSH1 0x4 DUP1 CALLDATASIZE SUB DUP2 ADD SWAP1 PUSH2 0x340 SWAP2 SWAP1 PUSH2 0x1F4B JUMP JUMPDEST PUSH2 0xF97 JUMP JUMPDEST PUSH1 0x40 MLOAD PUSH2 0x352 SWAP2 SWAP1 PUSH2 0x1F85 JUMP JUMPDEST PUSH1 0x40 MLOAD DUP1 SWAP2 SUB SWAP1 RETURN JUMPDEST PUSH32 0x0 PUSH20 0xFFFFFFFFFFFFFFFFFFFFFFFFFFFFFFFFFFFFFFFF AND PUSH4 0xF398789B DUP10 DUP10 DUP10 DUP10 PUSH1 0x40 MLOAD DUP6 PUSH4 0xFFFFFFFF AND PUSH1 0xE0 SHL DUP2 MSTORE PUSH1 0x4 ADD PUSH2 0x3BA SWAP5 SWAP4 SWAP3 SWAP2 SWAP1 PUSH2 0x207F JUMP JUMPDEST PUSH1 0x20 PUSH1 0x40 MLOAD DUP1 DUP4 SUB DUP2 DUP7 GAS STATICCALL ISZERO DUP1 ISZERO PUSH2 0x3D5 JUMPI RETURNDATASIZE PUSH0 PUSH0 RETURNDATACOPY RETURNDATASIZE PUSH0 REVERT JUMPDEST POP POP POP POP PUSH1 0x40 MLOAD RETURNDATASIZE PUSH1 0x1F NOT PUSH1 0x1F DUP3 ADD AND DUP3 ADD DUP1 PUSH1 0x40 MSTORE POP DUP2 ADD SWAP1 PUSH2 0x3F9 SWAP2 SWAP1 PUSH2 0x20EE JUMP JUMPDEST PUSH2 0x438 JUMPI PUSH1 0x40 MLOAD PUSH32 0x8C379A000000000000000000000000000000000000000000000000000000000 DUP2 MSTORE PUSH1 0x4 ADD PUSH2 0x42F SWAP1 PUSH2 0x2163 JUMP JUMPDEST PUSH1 0x40 MLOAD DUP1 SWAP2 SUB SWAP1 REVERT JUMPDEST PUSH0 DUP6 PUSH1 0x4 PUSH1 0x6 DUP2 LT PUSH2 0x44D JUMPI PUSH2 0x44C PUSH2 0x2181 JUMP JUMPDEST JUMPDEST PUSH1 0x20 MUL ADD CALLDATALOAD SWAP1 POP CHAINID DUP2 EQ PUSH2 0x496 JUMPI PUSH1 0x40 MLOAD PUSH32 0x8C379A000000000000000000000000000000000000000000000000000000000 DUP2 MSTORE PUSH1 0x4 ADD PUSH2 0x48D SWAP1 PUSH2 0x21F8 JUMP JUMPDEST PUSH1 0x40 MLOAD DUP1 SWAP2 SUB SWAP1 REVERT JUMPDEST PUSH0 PUSH2 0x4A0 DUP8 PUSH2 0xFC6 JUMP JUMPDEST SWAP1 POP PUSH2 0x4B1 DUP2 PUSH0 SHL DUP8 DUP8 DUP8 DUP8 PUSH2 0x107B JUMP JUMPDEST PUSH1 0x1 PUSH0 DUP3 DUP2 MSTORE PUSH1 0x20 ADD SWAP1 DUP2 MSTORE PUSH1 0x20 ADD PUSH0 KECCAK256 PUSH0 SWAP1 SLOAD SWAP1 PUSH2 0x100 EXP SWAP1 DIV PUSH1 0xFF AND ISZERO PUSH2 0x50F JUMPI PUSH1 0x40 MLOAD PUSH32 0x8C379A000000000000000000000000000000000000000000000000000000000 DUP2 MSTORE PUSH1 0x4 ADD PUSH2 0x506 SWAP1 PUSH2 0x2260 JUMP JUMPDEST PUSH1 0x40 MLOAD DUP1 SWAP2 SUB SWAP1 REVERT JUMPDEST PUSH1 0x1 DUP1 PUSH0 DUP4 DUP2 MSTORE PUSH1 0x20 ADD SWAP1 DUP2 MSTORE PUSH1 0x20 ADD PUSH0 KECCAK256 PUSH0 PUSH2 0x100 EXP DUP2 SLOAD DUP2 PUSH1 0xFF MUL NOT AND SWAP1 DUP4 ISZERO ISZERO MUL OR SWAP1 SSTORE POP PUSH0 PUSH2 0x559 DUP9 PUSH1 0x5 PUSH1 0x6 DUP2 LT PUSH2 0x54F JUMPI PUSH2 0x54E PUSH2 0x2181 JUMP JUMPDEST JUMPDEST PUSH1 0x20 MUL ADD CALLDATALOAD PUSH2 0x64E JUMP JUMPDEST SWAP1 POP PUSH32 0x0 PUSH20 0xFFFFFFFFFFFFFFFFFFFFFFFFFFFFFFFFFFFFFFFF AND PUSH4 0x1722E147 DUP3 PUSH1 0x40 MLOAD DUP3 PUSH4 0xFFFFFFFF AND PUSH1 0xE0 SHL DUP2 MSTORE PUSH1 0x4 ADD PUSH2 0x5B4 SWAP2 SWAP1 PUSH2 0x1AB0 JUMP JUMPDEST PUSH0 PUSH1 0x40 MLOAD DUP1 DUP4 SUB DUP2 PUSH0 DUP8 DUP1 EXTCODESIZE ISZERO DUP1 ISZERO PUSH2 0x5CB JUMPI PUSH0 PUSH0 REVERT JUMPDEST POP GAS CALL ISZERO DUP1 ISZERO PUSH2 0x5DD JUMPI RETURNDATASIZE PUSH0 PUSH0 RETURNDATACOPY RETURNDATASIZE PUSH0 REVERT JUMPDEST POP POP POP POP POP POP POP POP POP POP POP POP POP POP POP JUMP JUMPDEST PUSH1 0x60 DUP2 PUSH1 0x40 MLOAD PUSH1 0x20 ADD PUSH2 0x601 SWAP2 SWAP1 PUSH2 0x229E JUMP JUMPDEST PUSH1 0x40 MLOAD PUSH1 0x20 DUP2 DUP4 SUB SUB DUP2 MSTORE SWAP1 PUSH1 0x40 MSTORE SWAP1 POP SWAP2 SWAP1 POP JUMP JUMPDEST PUSH32 0x0 DUP2 JUMP JUMPDEST PUSH2 0x643 PUSH2 0x12F5 JUMP JUMPDEST PUSH2 0x64C PUSH0 PUSH2 0x137C JUMP JUMPDEST JUMP JUMPDEST PUSH0 DUP2 SWAP1 POP SWAP2 SWAP1 POP JUMP JUMPDEST PUSH0 PUSH0 PUSH0 SWAP1 SLOAD SWAP1 PUSH2 0x100 EXP SWAP1 DIV PUSH20 0xFFFFFFFFFFFFFFFFFFFFFFFFFFFFFFFFFFFFFFFF AND SWAP1 POP SWAP1 JUMP JUMPDEST PUSH0 PUSH1 0x41 DUP3 MLOAD EQ PUSH2 0x6C3 JUMPI PUSH1 0x40 MLOAD PUSH32 0x8C379A000000000000000000000000000000000000000000000000000000000 DUP2 MSTORE PUSH1 0x4 ADD PUSH2 0x6BA SWAP1 PUSH2 0x2302 JUMP JUMPDEST PUSH1 0x40 MLOAD DUP1 SWAP2 SUB SWAP1 REVERT JUMPDEST PUSH0 PUSH0 PUSH0 PUSH1 0x20 DUP6 ADD MLOAD SWAP3 POP PUSH1 0x40 DUP6 ADD MLOAD SWAP2 POP PUSH1 0x60 DUP6 ADD MLOAD PUSH0 BYTE SWAP1 POP PUSH1 0x1 DUP7 DUP3 DUP6 DUP6 PUSH1 0x40 MLOAD PUSH0 DUP2 MSTORE PUSH1 0x20 ADD PUSH1 0x40 MSTORE PUSH1 0x40 MLOAD PUSH2 0x6FF SWAP5 SWAP4 SWAP3 SWAP2 SWAP1 PUSH2 0x233B JUMP JUMPDEST PUSH1 0x20 PUSH1 0x40 MLOAD PUSH1 0x20 DUP2 SUB SWAP1 DUP1 DUP5 SUB SWAP1 DUP6 GAS STATICCALL ISZERO DUP1 ISZERO PUSH2 0x71F JUMPI RETURNDATASIZE PUSH0 PUSH0 RETURNDATACOPY RETURNDATASIZE PUSH0 REVERT JUMPDEST POP POP POP PUSH1 0x20 PUSH1 0x40 MLOAD SUB MLOAD SWAP4 POP POP POP POP SWAP3 SWAP2 POP POP JUMP JUMPDEST PUSH1 0x1 PUSH1 0x20 MSTORE DUP1 PUSH0 MSTORE PUSH1 0x40 PUSH0 KECCAK256 PUSH0 SWAP2 POP SLOAD SWAP1 PUSH2 0x100 EXP SWAP1 DIV PUSH1 0xFF AND DUP2 JUMP JUMPDEST PUSH32 0x0 DUP2 JUMP JUMPDEST PUSH32 0x0 DUP2 JUMP JUMPDEST PUSH1 0x60 PUSH0 DUP3 SUB PUSH2 0x7B8 JUMPI PUSH1 0x40 MLOAD DUP1 PUSH1 0x20 ADD PUSH1 0x40 MSTORE DUP1 PUSH0 DUP2 MSTORE POP SWAP1 POP PUSH2 0x996 JUMP JUMPDEST PUSH0 DUP3 PUSH0 SHL SWAP1 POP PUSH0 PUSH0 SWAP1 POP JUMPDEST PUSH1 0x20 DUP2 PUSH1 0xFF AND LT DUP1 ISZERO PUSH2 0x813 JUMPI POP PUSH0 PUSH1 0xF8 SHL DUP3 DUP3 PUSH1 0xFF AND PUSH1 0x20 DUP2 LT PUSH2 0x7EB JUMPI PUSH2 0x7EA PUSH2 0x2181 JUMP JUMPDEST JUMPDEST BYTE PUSH1 0xF8 SHL PUSH31 0xFFFFFFFFFFFFFFFFFFFFFFFFFFFFFFFFFFFFFFFFFFFFFFFFFFFFFFFFFFFFFF NOT AND EQ JUMPDEST ISZERO PUSH2 0x82B JUMPI DUP1 DUP1 PUSH2 0x823 SWAP1 PUSH2 0x23AB JUMP JUMPDEST SWAP2 POP POP PUSH2 0x7C3 JUMP JUMPDEST PUSH0 PUSH1 0x1F SWAP1 POP JUMPDEST DUP2 PUSH1 0xFF AND DUP2 PUSH1 0xFF AND GT DUP1 ISZERO PUSH2 0x883 JUMPI POP PUSH0 PUSH1 0xF8 SHL DUP4 DUP3 PUSH1 0xFF AND PUSH1 0x20 DUP2 LT PUSH2 0x85B JUMPI PUSH2 0x85A PUSH2 0x2181 JUMP JUMPDEST JUMPDEST BYTE PUSH1 0xF8 SHL PUSH31 0xFFFFFFFFFFFFFFFFFFFFFFFFFFFFFFFFFFFFFFFFFFFFFFFFFFFFFFFFFFFFFF NOT AND EQ JUMPDEST ISZERO PUSH2 0x89B JUMPI DUP1 DUP1 PUSH2 0x893 SWAP1 PUSH2 0x23D3 JUMP JUMPDEST SWAP2 POP POP PUSH2 0x831 JUMP JUMPDEST PUSH0 PUSH1 0x1 DUP4 DUP4 PUSH2 0x8AA SWAP2 SWAP1 PUSH2 0x23FA JUMP JUMPDEST PUSH2 0x8B4 SWAP2 SWAP1 PUSH2 0x242E JUMP JUMPDEST SWAP1 POP PUSH0 DUP2 PUSH1 0xFF AND PUSH8 0xFFFFFFFFFFFFFFFF DUP2 GT ISZERO PUSH2 0x8D4 JUMPI PUSH2 0x8D3 PUSH2 0x1B00 JUMP JUMPDEST JUMPDEST PUSH1 0x40 MLOAD SWAP1 DUP1 DUP3 MSTORE DUP1 PUSH1 0x1F ADD PUSH1 0x1F NOT AND PUSH1 0x20 ADD DUP3 ADD PUSH1 0x40 MSTORE DUP1 ISZERO PUSH2 0x906 JUMPI DUP2 PUSH1 0x20 ADD PUSH1 0x1 DUP3 MUL DUP1 CALLDATASIZE DUP4 CALLDATACOPY DUP1 DUP3 ADD SWAP2 POP POP SWAP1 POP JUMPDEST POP SWAP1 POP PUSH0 PUSH0 SWAP1 POP JUMPDEST DUP3 PUSH1 0xFF AND DUP2 LT ISZERO PUSH2 0x98C JUMPI DUP6 DUP2 DUP7 PUSH1 0xFF AND PUSH2 0x929 SWAP2 SWAP1 PUSH2 0x2462 JUMP JUMPDEST PUSH1 0x20 DUP2 LT PUSH2 0x93A JUMPI PUSH2 0x939 PUSH2 0x2181 JUMP JUMPDEST JUMPDEST BYTE PUSH1 0xF8 SHL DUP3 DUP3 DUP2 MLOAD DUP2 LT PUSH2 0x951 JUMPI PUSH2 0x950 PUSH2 0x2181 JUMP JUMPDEST JUMPDEST PUSH1 0x20 ADD ADD SWAP1 PUSH31 0xFFFFFFFFFFFFFFFFFFFFFFFFFFFFFFFFFFFFFFFFFFFFFFFFFFFFFFFFFFFFFF NOT AND SWAP1 DUP2 PUSH0 BYTE SWAP1 MSTORE8 POP DUP1 DUP1 PUSH1 0x1 ADD SWAP2 POP POP PUSH2 0x90E JUMP JUMPDEST POP DUP1 SWAP6 POP POP POP POP POP POP JUMPDEST SWAP2 SWAP1 POP JUMP JUMPDEST PUSH32 0x0 DUP2 JUMP JUMPDEST PUSH32 0x0 PUSH20 0xFFFFFFFFFFFFFFFFFFFFFFFFFFFFFFFFFFFFFFFF AND PUSH4 0xC9219A7A DUP10 DUP10 DUP10 DUP10 PUSH1 0x40 MLOAD DUP6 PUSH4 0xFFFFFFFF AND PUSH1 0xE0 SHL DUP2 MSTORE PUSH1 0x4 ADD PUSH2 0xA1E SWAP5 SWAP4 SWAP3 SWAP2 SWAP1 PUSH2 0x24A6 JUMP JUMPDEST PUSH1 0x20 PUSH1 0x40 MLOAD DUP1 DUP4 SUB DUP2 DUP7 GAS STATICCALL ISZERO DUP1 ISZERO PUSH2 0xA39 JUMPI RETURNDATASIZE PUSH0 PUSH0 RETURNDATACOPY RETURNDATASIZE PUSH0 REVERT JUMPDEST POP POP POP POP PUSH1 0x40 MLOAD RETURNDATASIZE PUSH1 0x1F NOT PUSH1 0x1F DUP3 ADD AND DUP3 ADD DUP1 PUSH1 0x40 MSTORE POP DUP2 ADD SWAP1 PUSH2 0xA5D SWAP2 SWAP1 PUSH2 0x20EE JUMP JUMPDEST PUSH2 0xA9C JUMPI PUSH1 0x40 MLOAD PUSH32 0x8C379A000000000000000000000000000000000000000000000000000000000 DUP2 MSTORE PUSH1 0x4 ADD PUSH2 0xA93 SWAP1 PUSH2 0x2163 JUMP JUMPDEST PUSH1 0x40 MLOAD DUP1 SWAP2 SUB SWAP1 REVERT JUMPDEST PUSH0 DUP6 PUSH1 0x5 PUSH1 0x8 DUP2 LT PUSH2 0xAB1 JUMPI PUSH2 0xAB0 PUSH2 0x2181 JUMP JUMPDEST JUMPDEST PUSH1 0x20 MUL ADD CALLDATALOAD SWAP1 POP CHAINID DUP2 EQ PUSH2 0xAFA JUMPI PUSH1 0x40 MLOAD PUSH32 0x8C379A000000000000000000000000000000000000000000000000000000000 DUP2 MSTORE PUSH1 0x4 ADD PUSH2 0xAF1 SWAP1 PUSH2 0x21F8 JUMP JUMPDEST PUSH1 0x40 MLOAD DUP1 SWAP2 SUB SWAP1 REVERT JUMPDEST PUSH0 PUSH2 0xB1C DUP8 PUSH1 0x3 PUSH1 0x8 DUP2 LT PUSH2 0xB12 JUMPI PUSH2 0xB11 PUSH2 0x2181 JUMP JUMPDEST JUMPDEST PUSH1 0x20 MUL ADD CALLDATALOAD PUSH2 0x799 JUMP JUMPDEST SWAP1 POP PUSH0 PUSH2 0xB40 DUP9 PUSH1 0x2 PUSH1 0x8 DUP2 LT PUSH2 0xB36 JUMPI PUSH2 0xB35 PUSH2 0x2181 JUMP JUMPDEST JUMPDEST PUSH1 0x20 MUL ADD CALLDATALOAD PUSH2 0x799 JUMP JUMPDEST SWAP1 POP PUSH0 PUSH2 0xB64 DUP10 PUSH1 0x4 PUSH1 0x8 DUP2 LT PUSH2 0xB5A JUMPI PUSH2 0xB59 PUSH2 0x2181 JUMP JUMPDEST JUMPDEST PUSH1 0x20 MUL ADD CALLDATALOAD PUSH2 0x5EE JUMP JUMPDEST SWAP1 POP PUSH0 PUSH2 0xB70 DUP11 PUSH2 0x143D JUMP JUMPDEST SWAP1 POP PUSH2 0xB81 DUP2 PUSH0 SHL DUP11 DUP11 DUP11 DUP11 PUSH2 0x107B JUMP JUMPDEST PUSH1 0x1 PUSH0 DUP3 DUP2 MSTORE PUSH1 0x20 ADD SWAP1 DUP2 MSTORE PUSH1 0x20 ADD PUSH0 KECCAK256 PUSH0 SWAP1 SLOAD SWAP1 PUSH2 0x100 EXP SWAP1 DIV PUSH1 0xFF AND ISZERO PUSH2 0xBDF JUMPI PUSH1 0x40 MLOAD PUSH32 0x8C379A000000000000000000000000000000000000000000000000000000000 DUP2 MSTORE PUSH1 0x4 ADD PUSH2 0xBD6 SWAP1 PUSH2 0x2260 JUMP JUMPDEST PUSH1 0x40 MLOAD DUP1 SWAP2 SUB SWAP1 REVERT JUMPDEST PUSH1 0x1 DUP1 PUSH0 DUP4 DUP2 MSTORE PUSH1 0x20 ADD SWAP1 DUP2 MSTORE PUSH1 0x20 ADD PUSH0 KECCAK256 PUSH0 PUSH2 0x100 EXP DUP2 SLOAD DUP2 PUSH1 0xFF MUL NOT AND SWAP1 DUP4 ISZERO ISZERO MUL OR SWAP1 SSTORE POP PUSH32 0x0 PUSH20 0xFFFFFFFFFFFFFFFFFFFFFFFFFFFFFFFFFFFFFFFF AND PUSH4 0x2E057B9B DUP5 DUP7 DUP6 PUSH1 0x40 MLOAD DUP5 PUSH4 0xFFFFFFFF AND PUSH1 0xE0 SHL DUP2 MSTORE PUSH1 0x4 ADD PUSH2 0xC64 SWAP4 SWAP3 SWAP2 SWAP1 PUSH2 0x24EB JUMP JUMPDEST PUSH0 PUSH1 0x40 MLOAD DUP1 DUP4 SUB DUP2 PUSH0 DUP8 DUP1 EXTCODESIZE ISZERO DUP1 ISZERO PUSH2 0xC7B JUMPI PUSH0 PUSH0 REVERT JUMPDEST POP GAS CALL ISZERO DUP1 ISZERO PUSH2 0xC8D JUMPI RETURNDATASIZE PUSH0 PUSH0 RETURNDATACOPY RETURNDATASIZE PUSH0 REVERT JUMPDEST POP POP POP POP POP POP POP POP POP POP POP POP POP POP POP POP POP JUMP JUMPDEST PUSH32 0x0 PUSH20 0xFFFFFFFFFFFFFFFFFFFFFFFFFFFFFFFFFFFFFFFF AND PUSH4 0xC9219A7A DUP10 DUP10 DUP10 DUP10 PUSH1 0x40 MLOAD DUP6 PUSH4 0xFFFFFFFF AND PUSH1 0xE0 SHL DUP2 MSTORE PUSH1 0x4 ADD PUSH2 0xCFF SWAP5 SWAP4 SWAP3 SWAP2 SWAP1 PUSH2 0x24A6 JUMP JUMPDEST PUSH1 0x20 PUSH1 0x40 MLOAD DUP1 DUP4 SUB DUP2 DUP7 GAS STATICCALL ISZERO DUP1 ISZERO PUSH2 0xD1A JUMPI RETURNDATASIZE PUSH0 PUSH0 RETURNDATACOPY RETURNDATASIZE PUSH0 REVERT JUMPDEST POP POP POP POP PUSH1 0x40 MLOAD RETURNDATASIZE PUSH1 0x1F NOT PUSH1 0x1F DUP3 ADD AND DUP3 ADD DUP1 PUSH1 0x40 MSTORE POP DUP2 ADD SWAP1 PUSH2 0xD3E SWAP2 SWAP1 PUSH2 0x20EE JUMP JUMPDEST PUSH2 0xD7D JUMPI PUSH1 0x40 MLOAD PUSH32 0x8C379A000000000000000000000000000000000000000000000000000000000 DUP2 MSTORE PUSH1 0x4 ADD PUSH2 0xD74 SWAP1 PUSH2 0x2163 JUMP JUMPDEST PUSH1 0x40 MLOAD DUP1 SWAP2 SUB SWAP1 REVERT JUMPDEST PUSH0 PUSH0 PUSH0 PUSH2 0xD89 DUP9 PUSH2 0x1526 JUMP JUMPDEST SWAP3 POP SWAP3 POP SWAP3 POP PUSH0 DUP9 PUSH1 0x3 PUSH1 0x8 DUP2 LT PUSH2 0xDA4 JUMPI PUSH2 0xDA3 PUSH2 0x2181 JUMP JUMPDEST JUMPDEST PUSH1 0x20 MUL ADD CALLDATALOAD SWAP1 POP PUSH0 DUP10 PUSH1 0x4 PUSH1 0x8 DUP2 LT PUSH2 0xDC0 JUMPI PUSH2 0xDBF PUSH2 0x2181 JUMP JUMPDEST JUMPDEST PUSH1 0x20 MUL ADD CALLDATALOAD SWAP1 POP PUSH0 PUSH2 0xDD1 DUP12 PUSH2 0x143D JUMP JUMPDEST SWAP1 POP PUSH2 0xDE2 DUP2 PUSH0 SHL DUP12 DUP12 DUP12 DUP12 PUSH2 0x107B JUMP JUMPDEST PUSH1 0x1 PUSH0 DUP3 DUP2 MSTORE PUSH1 0x20 ADD SWAP1 DUP2 MSTORE PUSH1 0x20 ADD PUSH0 KECCAK256 PUSH0 SWAP1 SLOAD SWAP1 PUSH2 0x100 EXP SWAP1 DIV PUSH1 0xFF AND ISZERO PUSH2 0xE40 JUMPI PUSH1 0x40 MLOAD PUSH32 0x8C379A000000000000000000000000000000000000000000000000000000000 DUP2 MSTORE PUSH1 0x4 ADD PUSH2 0xE37 SWAP1 PUSH2 0x2260 JUMP JUMPDEST PUSH1 0x40 MLOAD DUP1 SWAP2 SUB SWAP1 REVERT JUMPDEST PUSH1 0x1 DUP1 PUSH0 DUP4 DUP2 MSTORE PUSH1 0x20 ADD SWAP1 DUP2 MSTORE PUSH1 0x20 ADD PUSH0 KECCAK256 PUSH0 PUSH2 0x100 EXP DUP2 SLOAD DUP2 PUSH1 0xFF MUL NOT AND SWAP1 DUP4 ISZERO ISZERO MUL OR SWAP1 SSTORE POP PUSH0 DUP4 PUSH1 0x80 DUP5 SWAP1 SHL OR SWAP1 POP DUP6 PUSH20 0xFFFFFFFFFFFFFFFFFFFFFFFFFFFFFFFFFFFFFFFF AND PUSH4 0x6AFBF5D6 DUP3 DUP8 DUP11 DUP7 PUSH1 0x40 MLOAD DUP6 PUSH4 0xFFFFFFFF AND PUSH1 0xE0 SHL DUP2 MSTORE PUSH1 0x4 ADD PUSH2 0xEB1 SWAP5 SWAP4 SWAP3 SWAP2 SWAP1 PUSH2 0x2544 JUMP JUMPDEST PUSH0 PUSH1 0x40 MLOAD DUP1 DUP4 SUB DUP2 PUSH0 DUP8 DUP1 EXTCODESIZE ISZERO DUP1 ISZERO PUSH2 0xEC8 JUMPI PUSH0 PUSH0 REVERT JUMPDEST POP GAS CALL ISZERO DUP1 ISZERO PUSH2 0xEDA JUMPI RETURNDATASIZE PUSH0 PUSH0 RETURNDATACOPY RETURNDATASIZE PUSH0 REVERT JUMPDEST POP POP POP POP POP POP POP POP POP POP POP POP POP POP POP POP POP POP POP JUMP JUMPDEST PUSH2 0xEF7 PUSH2 0x12F5 JUMP JUMPDEST PUSH0 PUSH20 0xFFFFFFFFFFFFFFFFFFFFFFFFFFFFFFFFFFFFFFFF AND DUP2 PUSH20 0xFFFFFFFFFFFFFFFFFFFFFFFFFFFFFFFFFFFFFFFF AND SUB PUSH2 0xF67 JUMPI PUSH0 PUSH1 0x40 MLOAD PUSH32 0x1E4FBDF700000000000000000000000000000000000000000000000000000000 DUP2 MSTORE PUSH1 0x4 ADD PUSH2 0xF5E SWAP2 SWAP1 PUSH2 0x1AB0 JUMP JUMPDEST PUSH1 0x40 MLOAD DUP1 SWAP2 SUB SWAP1 REVERT JUMPDEST PUSH2 0xF70 DUP2 PUSH2 0x137C JUMP JUMPDEST POP JUMP JUMPDEST PUSH32 0x0 DUP2 JUMP JUMPDEST PUSH0 DUP2 PUSH1 0x40 MLOAD PUSH1 0x20 ADD PUSH2 0xFA9 SWAP2 SWAP1 PUSH2 0x2602 JUMP JUMPDEST PUSH1 0x40 MLOAD PUSH1 0x20 DUP2 DUP4 SUB SUB DUP2 MSTORE SWAP1 PUSH1 0x40 MSTORE DUP1 MLOAD SWAP1 PUSH1 0x20 ADD KECCAK256 SWAP1 POP SWAP2 SWAP1 POP JUMP JUMPDEST PUSH0 PUSH0 DUP3 PUSH0 PUSH1 0x6 DUP2 LT PUSH2 0xFDB JUMPI PUSH2 0xFDA PUSH2 0x2181 JUMP JUMPDEST JUMPDEST PUSH1 0x20 MUL ADD CALLDATALOAD DUP4 PUSH1 0x1 PUSH1 0x6 DUP2 LT PUSH2 0xFF4 JUMPI PUSH2 0xFF3 PUSH2 0x2181 JUMP JUMPDEST JUMPDEST PUSH1 0x20 MUL ADD CALLDATALOAD DUP5 PUSH1 0x2 PUSH1 0x6 DUP2 LT PUSH2 0x100D JUMPI PUSH2 0x100C PUSH2 0x2181 JUMP JUMPDEST JUMPDEST PUSH1 0x20 MUL ADD CALLDATALOAD DUP6 PUSH1 0x3 PUSH1 0x6 DUP2 LT PUSH2 0x1026 JUMPI PUSH2 0x1025 PUSH2 0x2181 JUMP JUMPDEST JUMPDEST PUSH1 0x20 MUL ADD CALLDATALOAD DUP7 PUSH1 0x4 PUSH1 0x6 DUP2 LT PUSH2 0x103F JUMPI PUSH2 0x103E PUSH2 0x2181 JUMP JUMPDEST JUMPDEST PUSH1 0x20 MUL ADD CALLDATALOAD PUSH1 0x40 MLOAD PUSH1 0x20 ADD PUSH2 0x1058 SWAP6 SWAP5 SWAP4 SWAP3 SWAP2 SWAP1 PUSH2 0x2627 JUMP JUMPDEST PUSH1 0x40 MLOAD PUSH1 0x20 DUP2 DUP4 SUB SUB DUP2 MSTORE SWAP1 PUSH1 0x40 MSTORE DUP1 MLOAD SWAP1 PUSH1 0x20 ADD KECCAK256 SWAP1 POP DUP1 PUSH0 SHR SWAP2 POP POP SWAP2 SWAP1 POP JUMP JUMPDEST PUSH0 PUSH2 0x1085 DUP7 PUSH2 0xF97 JUMP JUMPDEST SWAP1 POP PUSH0 PUSH32 0x0 PUSH20 0xFFFFFFFFFFFFFFFFFFFFFFFFFFFFFFFFFFFFFFFF AND PUSH4 0x1442E4C9 PUSH1 0x40 MLOAD DUP2 PUSH4 0xFFFFFFFF AND PUSH1 0xE0 SHL DUP2 MSTORE PUSH1 0x4 ADD PUSH0 PUSH1 0x40 MLOAD DUP1 DUP4 SUB DUP2 DUP7 GAS STATICCALL ISZERO DUP1 ISZERO PUSH2 0x10F0 JUMPI RETURNDATASIZE PUSH0 PUSH0 RETURNDATACOPY RETURNDATASIZE PUSH0 REVERT JUMPDEST POP POP POP POP PUSH1 0x40 MLOAD RETURNDATASIZE PUSH0 DUP3 RETURNDATACOPY RETURNDATASIZE PUSH1 0x1F NOT PUSH1 0x1F DUP3 ADD AND DUP3 ADD DUP1 PUSH1 0x40 MSTORE POP DUP2 ADD SWAP1 PUSH2 0x1118 SWAP2 SWAP1 PUSH2 0x2759 JUMP JUMPDEST SWAP1 POP PUSH0 PUSH0 SWAP1 POP JUMPDEST DUP7 DUP7 SWAP1 POP DUP2 LT ISZERO PUSH2 0x12EB JUMPI CALLDATASIZE PUSH0 DUP7 DUP7 PUSH1 0x41 DUP6 PUSH2 0x113B SWAP2 SWAP1 PUSH2 0x27A0 JUMP JUMPDEST SWAP1 PUSH1 0x41 PUSH1 0x1 DUP8 PUSH2 0x114B SWAP2 SWAP1 PUSH2 0x2462 JUMP JUMPDEST PUSH2 0x1155 SWAP2 SWAP1 PUSH2 0x27A0 JUMP JUMPDEST SWAP3 PUSH2 0x1162 SWAP4 SWAP3 SWAP2 SWAP1 PUSH2 0x27E9 JUMP JUMPDEST SWAP2 POP SWAP2 POP PUSH0 PUSH2 0x11B4 DUP7 DUP5 DUP5 DUP1 DUP1 PUSH1 0x1F ADD PUSH1 0x20 DUP1 SWAP2 DIV MUL PUSH1 0x20 ADD PUSH1 0x40 MLOAD SWAP1 DUP2 ADD PUSH1 0x40 MSTORE DUP1 SWAP4 SWAP3 SWAP2 SWAP1 DUP2 DUP2 MSTORE PUSH1 0x20 ADD DUP4 DUP4 DUP1 DUP3 DUP5 CALLDATACOPY PUSH0 DUP2 DUP5 ADD MSTORE PUSH1 0x1F NOT PUSH1 0x1F DUP3 ADD AND SWAP1 POP DUP1 DUP4 ADD SWAP3 POP POP POP POP POP POP POP PUSH2 0x67E JUMP JUMPDEST SWAP1 POP PUSH0 PUSH20 0xFFFFFFFFFFFFFFFFFFFFFFFFFFFFFFFFFFFFFFFF AND DUP2 PUSH20 0xFFFFFFFFFFFFFFFFFFFFFFFFFFFFFFFFFFFFFFFF AND SUB PUSH2 0x1224 JUMPI PUSH1 0x40 MLOAD PUSH32 0x8C379A000000000000000000000000000000000000000000000000000000000 DUP2 MSTORE PUSH1 0x4 ADD PUSH2 0x121B SWAP1 PUSH2 0x286D JUMP JUMPDEST PUSH1 0x40 MLOAD DUP1 SWAP2 SUB SWAP1 REVERT JUMPDEST PUSH0 PUSH0 SWAP1 POP PUSH0 PUSH0 SWAP1 POP JUMPDEST DUP7 MLOAD DUP2 LT ISZERO PUSH2 0x1299 JUMPI DUP3 PUSH20 0xFFFFFFFFFFFFFFFFFFFFFFFFFFFFFFFFFFFFFFFF AND DUP8 DUP3 DUP2 MLOAD DUP2 LT PUSH2 0x1260 JUMPI PUSH2 0x125F PUSH2 0x2181 JUMP JUMPDEST JUMPDEST PUSH1 0x20 MUL PUSH1 0x20 ADD ADD MLOAD PUSH20 0xFFFFFFFFFFFFFFFFFFFFFFFFFFFFFFFFFFFFFFFF AND SUB PUSH2 0x128C JUMPI PUSH1 0x1 SWAP2 POP PUSH2 0x1299 JUMP JUMPDEST DUP1 DUP1 PUSH1 0x1 ADD SWAP2 POP POP PUSH2 0x122D JUMP JUMPDEST POP DUP1 PUSH2 0x12DA JUMPI PUSH1 0x40 MLOAD PUSH32 0x8C379A000000000000000000000000000000000000000000000000000000000 DUP2 MSTORE PUSH1 0x4 ADD PUSH2 0x12D1 SWAP1 PUSH2 0x28D5 JUMP JUMPDEST PUSH1 0x40 MLOAD DUP1 SWAP2 SUB SWAP1 REVERT JUMPDEST POP POP POP POP DUP1 DUP1 PUSH1 0x1 ADD SWAP2 POP POP PUSH2 0x111F JUMP JUMPDEST POP POP POP POP POP POP POP POP JUMP JUMPDEST PUSH2 0x12FD PUSH2 0x1710 JUMP JUMPDEST PUSH20 0xFFFFFFFFFFFFFFFFFFFFFFFFFFFFFFFFFFFFFFFF AND PUSH2 0x131B PUSH2 0x657 JUMP JUMPDEST PUSH20 0xFFFFFFFFFFFFFFFFFFFFFFFFFFFFFFFFFFFFFFFF AND EQ PUSH2 0x137A JUMPI PUSH2 0x133E PUSH2 0x1710 JUMP JUMPDEST PUSH1 0x40 MLOAD PUSH32 0x118CDAA700000000000000000000000000000000000000000000000000000000 DUP2 MSTORE PUSH1 0x4 ADD PUSH2 0x1371 SWAP2 SWAP1 PUSH2 0x1AB0 JUMP JUMPDEST PUSH1 0x40 MLOAD DUP1 SWAP2 SUB SWAP1 REVERT JUMPDEST JUMP JUMPDEST PUSH0 PUSH0 PUSH0 SWAP1 SLOAD SWAP1 PUSH2 0x100 EXP SWAP1 DIV PUSH20 0xFFFFFFFFFFFFFFFFFFFFFFFFFFFFFFFFFFFFFFFF AND SWAP1 POP DUP2 PUSH0 PUSH0 PUSH2 0x100 EXP DUP2 SLOAD DUP2 PUSH20 0xFFFFFFFFFFFFFFFFFFFFFFFFFFFFFFFFFFFFFFFF MUL NOT AND SWAP1 DUP4 PUSH20 0xFFFFFFFFFFFFFFFFFFFFFFFFFFFFFFFFFFFFFFFF AND MUL OR SWAP1 SSTORE POP DUP2 PUSH20 0xFFFFFFFFFFFFFFFFFFFFFFFFFFFFFFFFFFFFFFFF AND DUP2 PUSH20 0xFFFFFFFFFFFFFFFFFFFFFFFFFFFFFFFFFFFFFFFF AND PUSH32 0x8BE0079C531659141344CD1FD0A4F28419497F9722A3DAAFE3B4186F6B6457E0 PUSH1 0x40 MLOAD PUSH1 0x40 MLOAD DUP1 SWAP2 SUB SWAP1 LOG3 POP POP JUMP JUMPDEST PUSH0 PUSH0 DUP3 PUSH0 PUSH1 0x8 DUP2 LT PUSH2 0x1452 JUMPI PUSH2 0x1451 PUSH2 0x2181 JUMP JUMPDEST JUMPDEST PUSH1 0x20 MUL ADD CALLDATALOAD DUP4 PUSH1 0x1 PUSH1 0x8 DUP2 LT PUSH2 0x146B JUMPI PUSH2 0x146A PUSH2 0x2181 JUMP JUMPDEST JUMPDEST PUSH1 0x20 MUL ADD CALLDATALOAD DUP5 PUSH1 0x2 PUSH1 0x8 DUP2 LT PUSH2 0x1484 JUMPI PUSH2 0x1483 PUSH2 0x2181 JUMP JUMPDEST JUMPDEST PUSH1 0x20 MUL ADD CALLDATALOAD DUP6 PUSH1 0x3 PUSH1 0x8 DUP2 LT PUSH2 0x149D JUMPI PUSH2 0x149C PUSH2 0x2181 JUMP JUMPDEST JUMPDEST PUSH1 0x20 MUL ADD CALLDATALOAD DUP7 PUSH1 0x4 PUSH1 0x8 DUP2 LT PUSH2 0x14B6 JUMPI PUSH2 0x14B5 PUSH2 0x2181 JUMP JUMPDEST JUMPDEST PUSH1 0x20 MUL ADD CALLDATALOAD DUP8 PUSH1 0x5 PUSH1 0x8 DUP2 LT PUSH2 0x14CF JUMPI PUSH2 0x14CE PUSH2 0x2181 JUMP JUMPDEST JUMPDEST PUSH1 0x20 MUL ADD CALLDATALOAD DUP9 PUSH1 0x6 PUSH1 0x8 DUP2 LT PUSH2 0x14E8 JUMPI PUSH2 0x14E7 PUSH2 0x2181 JUMP JUMPDEST JUMPDEST PUSH1 0x20 MUL ADD CALLDATALOAD PUSH1 0x40 MLOAD PUSH1 0x20 ADD PUSH2 0x1503 SWAP8 SWAP7 SWAP6 SWAP5 SWAP4 SWAP3 SWAP2 SWAP1 PUSH2 0x28F3 JUMP JUMPDEST PUSH1 0x40 MLOAD PUSH1 0x20 DUP2 DUP4 SUB SUB DUP2 MSTORE SWAP1 PUSH1 0x40 MSTORE DUP1 MLOAD SWAP1 PUSH1 0x20 ADD KECCAK256 SWAP1 POP DUP1 PUSH0 SHR SWAP2 POP POP SWAP2 SWAP1 POP JUMP JUMPDEST PUSH0 PUSH0 PUSH1 0x60 PUSH0 DUP5 PUSH1 0x7 PUSH1 0x8 DUP2 LT PUSH2 0x153F JUMPI PUSH2 0x153E PUSH2 0x2181 JUMP JUMPDEST JUMPDEST PUSH1 0x20 MUL ADD CALLDATALOAD SWAP1 POP PUSH0 PUSH4 0xFFFFFFFF DUP3 AND SWAP1 POP PUSH8 0xFFFFFFFFFFFFFFFF PUSH1 0x20 DUP4 SWAP1 SHR AND SWAP5 POP CHAINID DUP2 EQ PUSH2 0x15A3 JUMPI PUSH1 0x40 MLOAD PUSH32 0x8C379A000000000000000000000000000000000000000000000000000000000 DUP2 MSTORE PUSH1 0x4 ADD PUSH2 0x159A SWAP1 PUSH2 0x21F8 JUMP JUMPDEST PUSH1 0x40 MLOAD DUP1 SWAP2 SUB SWAP1 REVERT JUMPDEST PUSH2 0x15C4 DUP7 PUSH1 0x5 PUSH1 0x8 DUP2 LT PUSH2 0x15BA JUMPI PUSH2 0x15B9 PUSH2 0x2181 JUMP JUMPDEST JUMPDEST PUSH1 0x20 MUL ADD CALLDATALOAD PUSH2 0x799 JUMP JUMPDEST SWAP3 POP PUSH0 PUSH2 0x15E8 DUP8 PUSH1 0x6 PUSH1 0x8 DUP2 LT PUSH2 0x15DE JUMPI PUSH2 0x15DD PUSH2 0x2181 JUMP JUMPDEST JUMPDEST PUSH1 0x20 MUL ADD CALLDATALOAD PUSH2 0x799 JUMP JUMPDEST SWAP1 POP PUSH0 DUP2 PUSH1 0x40 MLOAD PUSH1 0x20 ADD PUSH2 0x15FC SWAP2 SWAP1 PUSH2 0x29ED JUMP JUMPDEST PUSH1 0x40 MLOAD PUSH1 0x20 DUP2 DUP4 SUB SUB DUP2 MSTORE SWAP1 PUSH1 0x40 MSTORE SWAP1 POP PUSH0 PUSH32 0x0 PUSH20 0xFFFFFFFFFFFFFFFFFFFFFFFFFFFFFFFFFFFFFFFF AND PUSH4 0x16F1ADC1 DUP4 PUSH1 0x40 MLOAD DUP3 PUSH4 0xFFFFFFFF AND PUSH1 0xE0 SHL DUP2 MSTORE PUSH1 0x4 ADD PUSH2 0x1667 SWAP2 SWAP1 PUSH2 0x2A58 JUMP JUMPDEST PUSH0 PUSH1 0x40 MLOAD DUP1 DUP4 SUB DUP2 DUP7 GAS STATICCALL ISZERO DUP1 ISZERO PUSH2 0x1681 JUMPI RETURNDATASIZE PUSH0 PUSH0 RETURNDATACOPY RETURNDATASIZE PUSH0 REVERT JUMPDEST POP POP POP POP PUSH1 0x40 MLOAD RETURNDATASIZE PUSH0 DUP3 RETURNDATACOPY RETURNDATASIZE PUSH1 0x1F NOT PUSH1 0x1F DUP3 ADD AND DUP3 ADD DUP1 PUSH1 0x40 MSTORE POP DUP2 ADD SWAP1 PUSH2 0x16A9 SWAP2 SWAP1 PUSH2 0x2AF9 JUMP JUMPDEST SWAP1 POP PUSH0 DUP2 MLOAD GT PUSH2 0x16EE JUMPI PUSH1 0x40 MLOAD PUSH32 0x8C379A000000000000000000000000000000000000000000000000000000000 DUP2 MSTORE PUSH1 0x4 ADD PUSH2 0x16E5 SWAP1 PUSH2 0x2B8A JUMP JUMPDEST PUSH1 0x40 MLOAD DUP1 SWAP2 SUB SWAP1 REVERT JUMPDEST DUP1 DUP1 PUSH1 0x20 ADD SWAP1 MLOAD DUP2 ADD SWAP1 PUSH2 0x1702 SWAP2 SWAP1 PUSH2 0x2BE3 JUMP JUMPDEST SWAP7 POP POP POP POP POP POP SWAP2 SWAP4 SWAP1 SWAP3 POP JUMP JUMPDEST PUSH0 CALLER SWAP1 POP SWAP1 JUMP JUMPDEST PUSH0 PUSH1 0x40 MLOAD SWAP1 POP SWAP1 JUMP JUMPDEST PUSH0 PUSH0 REVERT JUMPDEST PUSH0 PUSH0 REVERT JUMPDEST PUSH0 PUSH0 REVERT JUMPDEST PUSH0 DUP2 SWAP1 POP DUP3 PUSH1 0x20 PUSH1 0x2 MUL DUP3 ADD GT ISZERO PUSH2 0x1747 JUMPI PUSH2 0x1746 PUSH2 0x1728 JUMP JUMPDEST JUMPDEST SWAP3 SWAP2 POP POP JUMP JUMPDEST PUSH0 DUP2 SWAP1 POP DUP3 PUSH1 0x40 PUSH1 0x2 MUL DUP3 ADD GT ISZERO PUSH2 0x1768 JUMPI PUSH2 0x1767 PUSH2 0x1728 JUMP JUMPDEST JUMPDEST SWAP3 SWAP2 POP POP JUMP JUMPDEST PUSH0 DUP2 SWAP1 POP DUP3 PUSH1 0x20 PUSH1 0x6 MUL DUP3 ADD GT ISZERO PUSH2 0x1789 JUMPI PUSH2 0x1788 PUSH2 0x1728 JUMP JUMPDEST JUMPDEST SWAP3 SWAP2 POP POP JUMP JUMPDEST PUSH0 PUSH0 REVERT JUMPDEST PUSH0 PUSH0 REVERT JUMPDEST PUSH0 PUSH0 DUP4 PUSH1 0x1F DUP5 ADD SLT PUSH2 0x17AC JUMPI PUSH2 0x17AB PUSH2 0x178F JUMP JUMPDEST JUMPDEST DUP3 CALLDATALOAD SWAP1 POP PUSH8 0xFFFFFFFFFFFFFFFF DUP2 GT ISZERO PUSH2 0x17C9 JUMPI PUSH2 0x17C8 PUSH2 0x1793 JUMP JUMPDEST JUMPDEST PUSH1 0x20 DUP4 ADD SWAP2 POP DUP4 PUSH1 0x20 DUP3 MUL DUP4 ADD GT ISZERO PUSH2 0x17E5 JUMPI PUSH2 0x17E4 PUSH2 0x1728 JUMP JUMPDEST JUMPDEST SWAP3 POP SWAP3 SWAP1 POP JUMP JUMPDEST PUSH0 PUSH0 DUP4 PUSH1 0x1F DUP5 ADD SLT PUSH2 0x1801 JUMPI PUSH2 0x1800 PUSH2 0x178F JUMP JUMPDEST JUMPDEST DUP3 CALLDATALOAD SWAP1 POP PUSH8 0xFFFFFFFFFFFFFFFF DUP2 GT ISZERO PUSH2 0x181E JUMPI PUSH2 0x181D PUSH2 0x1793 JUMP JUMPDEST JUMPDEST PUSH1 0x20 DUP4 ADD SWAP2 POP DUP4 PUSH1 0x1 DUP3 MUL DUP4 ADD GT ISZERO PUSH2 0x183A JUMPI PUSH2 0x1839 PUSH2 0x1728 JUMP JUMPDEST JUMPDEST SWAP3 POP SWAP3 SWAP1 POP JUMP JUMPDEST PUSH0 PUSH0 PUSH0 PUSH0 PUSH0 PUSH0 PUSH0 PUSH0 PUSH2 0x200 DUP10 DUP12 SUB SLT ISZERO PUSH2 0x185E JUMPI PUSH2 0x185D PUSH2 0x1720 JUMP JUMPDEST JUMPDEST PUSH0 PUSH2 0x186B DUP12 DUP3 DUP13 ADD PUSH2 0x172C JUMP JUMPDEST SWAP9 POP POP PUSH1 0x40 PUSH2 0x187C DUP12 DUP3 DUP13 ADD PUSH2 0x174D JUMP JUMPDEST SWAP8 POP POP PUSH1 0xC0 PUSH2 0x188D DUP12 DUP3 DUP13 ADD PUSH2 0x172C JUMP JUMPDEST SWAP7 POP POP PUSH2 0x100 PUSH2 0x189F DUP12 DUP3 DUP13 ADD PUSH2 0x176E JUMP JUMPDEST SWAP6 POP POP PUSH2 0x1C0 DUP10 ADD CALLDATALOAD PUSH8 0xFFFFFFFFFFFFFFFF DUP2 GT ISZERO PUSH2 0x18C1 JUMPI PUSH2 0x18C0 PUSH2 0x1724 JUMP JUMPDEST JUMPDEST PUSH2 0x18CD DUP12 DUP3 DUP13 ADD PUSH2 0x1797 JUMP JUMPDEST SWAP5 POP SWAP5 POP POP PUSH2 0x1E0 DUP10 ADD CALLDATALOAD PUSH8 0xFFFFFFFFFFFFFFFF DUP2 GT ISZERO PUSH2 0x18F1 JUMPI PUSH2 0x18F0 PUSH2 0x1724 JUMP JUMPDEST JUMPDEST PUSH2 0x18FD DUP12 DUP3 DUP13 ADD PUSH2 0x17EC JUMP JUMPDEST SWAP3 POP SWAP3 POP POP SWAP3 SWAP6 SWAP9 POP SWAP3 SWAP6 SWAP9 SWAP1 SWAP4 SWAP7 POP JUMP JUMPDEST PUSH0 DUP2 SWAP1 POP SWAP2 SWAP1 POP JUMP JUMPDEST PUSH2 0x1921 DUP2 PUSH2 0x190F JUMP JUMPDEST DUP2 EQ PUSH2 0x192B JUMPI PUSH0 PUSH0 REVERT JUMPDEST POP JUMP JUMPDEST PUSH0 DUP2 CALLDATALOAD SWAP1 POP PUSH2 0x193C DUP2 PUSH2 0x1918 JUMP JUMPDEST SWAP3 SWAP2 POP POP JUMP JUMPDEST PUSH0 PUSH1 0x20 DUP3 DUP5 SUB SLT ISZERO PUSH2 0x1957 JUMPI PUSH2 0x1956 PUSH2 0x1720 JUMP JUMPDEST JUMPDEST PUSH0 PUSH2 0x1964 DUP5 DUP3 DUP6 ADD PUSH2 0x192E JUMP JUMPDEST SWAP2 POP POP SWAP3 SWAP2 POP POP JUMP JUMPDEST PUSH0 DUP2 MLOAD SWAP1 POP SWAP2 SWAP1 POP JUMP JUMPDEST PUSH0 DUP3 DUP3 MSTORE PUSH1 0x20 DUP3 ADD SWAP1 POP SWAP3 SWAP2 POP POP JUMP JUMPDEST DUP3 DUP2 DUP4 MCOPY PUSH0 DUP4 DUP4 ADD MSTORE POP POP POP JUMP JUMPDEST PUSH0 PUSH1 0x1F NOT PUSH1 0x1F DUP4 ADD AND SWAP1 POP SWAP2 SWAP1 POP JUMP JUMPDEST PUSH0 PUSH2 0x19AF DUP3 PUSH2 0x196D JUMP JUMPDEST PUSH2 0x19B9 DUP2 DUP6 PUSH2 0x1977 JUMP JUMPDEST SWAP4 POP PUSH2 0x19C9 DUP2 DUP6 PUSH1 0x20 DUP7 ADD PUSH2 0x1987 JUMP JUMPDEST PUSH2 0x19D2 DUP2 PUSH2 0x1995 JUMP JUMPDEST DUP5 ADD SWAP2 POP POP SWAP3 SWAP2 POP POP JUMP JUMPDEST PUSH0 PUSH1 0x20 DUP3 ADD SWAP1 POP DUP2 DUP2 SUB PUSH0 DUP4 ADD MSTORE PUSH2 0x19F5 DUP2 DUP5 PUSH2 0x19A5 JUMP JUMPDEST SWAP1 POP SWAP3 SWAP2 POP POP JUMP JUMPDEST PUSH0 PUSH20 0xFFFFFFFFFFFFFFFFFFFFFFFFFFFFFFFFFFFFFFFF DUP3 AND SWAP1 POP SWAP2 SWAP1 POP JUMP JUMPDEST PUSH0 DUP2 SWAP1 POP SWAP2 SWAP1 POP JUMP JUMPDEST PUSH0 PUSH2 0x1A3F PUSH2 0x1A3A PUSH2 0x1A35 DUP5 PUSH2 0x19FD JUMP JUMPDEST PUSH2 0x1A1C JUMP JUMPDEST PUSH2 0x19FD JUMP JUMPDEST SWAP1 POP SWAP2 SWAP1 POP JUMP JUMPDEST PUSH0 PUSH2 0x1A50 DUP3 PUSH2 0x1A25 JUMP JUMPDEST SWAP1 POP SWAP2 SWAP1 POP JUMP JUMPDEST PUSH0 PUSH2 0x1A61 DUP3 PUSH2 0x1A46 JUMP JUMPDEST SWAP1 POP SWAP2 SWAP1 POP JUMP JUMPDEST PUSH2 0x1A71 DUP2 PUSH2 0x1A57 JUMP JUMPDEST DUP3 MSTORE POP POP JUMP JUMPDEST PUSH0 PUSH1 0x20 DUP3 ADD SWAP1 POP PUSH2 0x1A8A PUSH0 DUP4 ADD DUP5 PUSH2 0x1A68 JUMP JUMPDEST SWAP3 SWAP2 POP POP JUMP JUMPDEST PUSH0 PUSH2 0x1A9A DUP3 PUSH2 0x19FD JUMP JUMPDEST SWAP1 POP SWAP2 SWAP1 POP JUMP JUMPDEST PUSH2 0x1AAA DUP2 PUSH2 0x1A90 JUMP JUMPDEST DUP3 MSTORE POP POP JUMP JUMPDEST PUSH0 PUSH1 0x20 DUP3 ADD SWAP1 POP PUSH2 0x1AC3 PUSH0 DUP4 ADD DUP5 PUSH2 0x1AA1 JUMP JUMPDEST SWAP3 SWAP2 POP POP JUMP JUMPDEST PUSH0 DUP2 SWAP1 POP SWAP2 SWAP1 POP JUMP JUMPDEST PUSH2 0x1ADB DUP2 PUSH2 0x1AC9 JUMP JUMPDEST DUP2 EQ PUSH2 0x1AE5 JUMPI PUSH0 PUSH0 REVERT JUMPDEST POP JUMP JUMPDEST PUSH0 DUP2 CALLDATALOAD SWAP1 POP PUSH2 0x1AF6 DUP2 PUSH2 0x1AD2 JUMP JUMPDEST SWAP3 SWAP2 POP POP JUMP JUMPDEST PUSH0 PUSH0 REVERT JUMPDEST PUSH32 0x4E487B7100000000000000000000000000000000000000000000000000000000 PUSH0 MSTORE PUSH1 0x41 PUSH1 0x4 MSTORE PUSH1 0x24 PUSH0 REVERT JUMPDEST PUSH2 0x1B36 DUP3 PUSH2 0x1995 JUMP JUMPDEST DUP2 ADD DUP2 DUP2 LT PUSH8 0xFFFFFFFFFFFFFFFF DUP3 GT OR ISZERO PUSH2 0x1B55 JUMPI PUSH2 0x1B54 PUSH2 0x1B00 JUMP JUMPDEST JUMPDEST DUP1 PUSH1 0x40 MSTORE POP POP POP JUMP JUMPDEST PUSH0 PUSH2 0x1B67 PUSH2 0x1717 JUMP JUMPDEST SWAP1 POP PUSH2 0x1B73 DUP3 DUP3 PUSH2 0x1B2D JUMP JUMPDEST SWAP2 SWAP1 POP JUMP JUMPDEST PUSH0 PUSH8 0xFFFFFFFFFFFFFFFF DUP3 GT ISZERO PUSH2 0x1B92 JUMPI PUSH2 0x1B91 PUSH2 0x1B00 JUMP JUMPDEST JUMPDEST PUSH2 0x1B9B DUP3 PUSH2 0x1995 JUMP JUMPDEST SWAP1 POP PUSH1 0x20 DUP2 ADD SWAP1 POP SWAP2 SWAP1 POP JUMP JUMPDEST DUP3 DUP2 DUP4 CALLDATACOPY PUSH0 DUP4 DUP4 ADD MSTORE POP POP POP JUMP JUMPDEST PUSH0 PUSH2 0x1BC8 PUSH2 0x1BC3 DUP5 PUSH2 0x1B78 JUMP JUMPDEST PUSH2 0x1B5E JUMP JUMPDEST SWAP1 POP DUP3 DUP2 MSTORE PUSH1 0x20 DUP2 ADD DUP5 DUP5 DUP5 ADD GT ISZERO PUSH2 0x1BE4 JUMPI PUSH2 0x1BE3 PUSH2 0x1AFC JUMP JUMPDEST JUMPDEST PUSH2 0x1BEF DUP5 DUP3 DUP6 PUSH2 0x1BA8 JUMP JUMPDEST POP SWAP4 SWAP3 POP POP POP JUMP JUMPDEST PUSH0 DUP3 PUSH1 0x1F DUP4 ADD SLT PUSH2 0x1C0B JUMPI PUSH2 0x1C0A PUSH2 0x178F JUMP JUMPDEST JUMPDEST DUP2 CALLDATALOAD PUSH2 0x1C1B DUP5 DUP3 PUSH1 0x20 DUP7 ADD PUSH2 0x1BB6 JUMP JUMPDEST SWAP2 POP POP SWAP3 SWAP2 POP POP JUMP JUMPDEST PUSH0 PUSH0 PUSH1 0x40 DUP4 DUP6 SUB SLT ISZERO PUSH2 0x1C3A JUMPI PUSH2 0x1C39 PUSH2 0x1720 JUMP JUMPDEST JUMPDEST PUSH0 PUSH2 0x1C47 DUP6 DUP3 DUP7 ADD PUSH2 0x1AE8 JUMP JUMPDEST SWAP3 POP POP PUSH1 0x20 DUP4 ADD CALLDATALOAD PUSH8 0xFFFFFFFFFFFFFFFF DUP2 GT ISZERO PUSH2 0x1C68 JUMPI PUSH2 0x1C67 PUSH2 0x1724 JUMP JUMPDEST JUMPDEST PUSH2 0x1C74 DUP6 DUP3 DUP7 ADD PUSH2 0x1BF7 JUMP JUMPDEST SWAP2 POP POP SWAP3 POP SWAP3 SWAP1 POP JUMP JUMPDEST PUSH0 DUP2 ISZERO ISZERO SWAP1 POP SWAP2 SWAP1 POP JUMP JUMPDEST PUSH2 0x1C92 DUP2 PUSH2 0x1C7E JUMP JUMPDEST DUP3 MSTORE POP POP JUMP JUMPDEST PUSH0 PUSH1 0x20 DUP3 ADD SWAP1 POP PUSH2 0x1CAB PUSH0 DUP4 ADD DUP5 PUSH2 0x1C89 JUMP JUMPDEST SWAP3 SWAP2 POP POP JUMP JUMPDEST PUSH0 PUSH2 0x1CBB DUP3 PUSH2 0x1A46 JUMP JUMPDEST SWAP1 POP SWAP2 SWAP1 POP JUMP JUMPDEST PUSH2 0x1CCB DUP2 PUSH2 0x1CB1 JUMP JUMPDEST DUP3 MSTORE POP POP JUMP JUMPDEST PUSH0 PUSH1 0x20 DUP3 ADD SWAP1 POP PUSH2 0x1CE4 PUSH0 DUP4 ADD DUP5 PUSH2 0x1CC2 JUMP JUMPDEST SWAP3 SWAP2 POP POP JUMP JUMPDEST PUSH0 PUSH2 0x1CF4 DUP3 PUSH2 0x1A46 JUMP JUMPDEST SWAP1 POP SWAP2 SWAP1 POP JUMP JUMPDEST PUSH2 0x1D04 DUP2 PUSH2 0x1CEA JUMP JUMPDEST DUP3 MSTORE POP POP JUMP JUMPDEST PUSH0 PUSH1 0x20 DUP3 ADD SWAP1 POP PUSH2 0x1D1D PUSH0 DUP4 ADD DUP5 PUSH2 0x1CFB JUMP JUMPDEST SWAP3 SWAP2 POP POP JUMP JUMPDEST PUSH0 DUP2 MLOAD SWAP1 POP SWAP2 SWAP1 POP JUMP JUMPDEST PUSH0 DUP3 DUP3 MSTORE PUSH1 0x20 DUP3 ADD SWAP1 POP SWAP3 SWAP2 POP POP JUMP JUMPDEST PUSH0 PUSH2 0x1D47 DUP3 PUSH2 0x1D23 JUMP JUMPDEST PUSH2 0x1D51 DUP2 DUP6 PUSH2 0x1D2D JUMP JUMPDEST SWAP4 POP PUSH2 0x1D61 DUP2 DUP6 PUSH1 0x20 DUP7 ADD PUSH2 0x1987 JUMP JUMPDEST PUSH2 0x1D6A DUP2 PUSH2 0x1995 JUMP JUMPDEST DUP5 ADD SWAP2 POP POP SWAP3 SWAP2 POP POP JUMP JUMPDEST PUSH0 PUSH1 0x20 DUP3 ADD SWAP1 POP DUP2 DUP2 SUB PUSH0 DUP4 ADD MSTORE PUSH2 0x1D8D DUP2 DUP5 PUSH2 0x1D3D JUMP JUMPDEST SWAP1 POP SWAP3 SWAP2 POP POP JUMP JUMPDEST PUSH0 PUSH2 0x1D9F DUP3 PUSH2 0x1A46 JUMP JUMPDEST SWAP1 POP SWAP2 SWAP1 POP JUMP JUMPDEST PUSH2 0x1DAF DUP2 PUSH2 0x1D95 JUMP JUMPDEST DUP3 MSTORE POP POP JUMP JUMPDEST PUSH0 PUSH1 0x20 DUP3 ADD SWAP1 POP PUSH2 0x1DC8 PUSH0 DUP4 ADD DUP5 PUSH2 0x1DA6 JUMP JUMPDEST SWAP3 SWAP2 POP POP JUMP JUMPDEST PUSH0 DUP2 SWAP1 POP DUP3 PUSH1 0x20 PUSH1 0x8 MUL DUP3 ADD GT ISZERO PUSH2 0x1DE9 JUMPI PUSH2 0x1DE8 PUSH2 0x1728 JUMP JUMPDEST JUMPDEST SWAP3 SWAP2 POP POP JUMP JUMPDEST PUSH0 PUSH0 PUSH0 PUSH0 PUSH0 PUSH0 PUSH0 PUSH0 PUSH2 0x240 DUP10 DUP12 SUB SLT ISZERO PUSH2 0x1E0C JUMPI PUSH2 0x1E0B PUSH2 0x1720 JUMP JUMPDEST JUMPDEST PUSH0 PUSH2 0x1E19 DUP12 DUP3 DUP13 ADD PUSH2 0x172C JUMP JUMPDEST SWAP9 POP POP PUSH1 0x40 PUSH2 0x1E2A DUP12 DUP3 DUP13 ADD PUSH2 0x174D JUMP JUMPDEST SWAP8 POP POP PUSH1 0xC0 PUSH2 0x1E3B DUP12 DUP3 DUP13 ADD PUSH2 0x172C JUMP JUMPDEST SWAP7 POP POP PUSH2 0x100 PUSH2 0x1E4D DUP12 DUP3 DUP13 ADD PUSH2 0x1DCE JUMP JUMPDEST SWAP6 POP POP PUSH2 0x200 DUP10 ADD CALLDATALOAD PUSH8 0xFFFFFFFFFFFFFFFF DUP2 GT ISZERO PUSH2 0x1E6F JUMPI PUSH2 0x1E6E PUSH2 0x1724 JUMP JUMPDEST JUMPDEST PUSH2 0x1E7B DUP12 DUP3 DUP13 ADD PUSH2 0x1797 JUMP JUMPDEST SWAP5 POP SWAP5 POP POP PUSH2 0x220 DUP10 ADD CALLDATALOAD PUSH8 0xFFFFFFFFFFFFFFFF DUP2 GT ISZERO PUSH2 0x1E9F JUMPI PUSH2 0x1E9E PUSH2 0x1724 JUMP JUMPDEST JUMPDEST PUSH2 0x1EAB DUP12 DUP3 DUP13 ADD PUSH2 0x17EC JUMP JUMPDEST SWAP3 POP SWAP3 POP POP SWAP3 SWAP6 SWAP9 POP SWAP3 SWAP6 SWAP9 SWAP1 SWAP4 SWAP7 POP JUMP JUMPDEST PUSH2 0x1EC6 DUP2 PUSH2 0x1A90 JUMP JUMPDEST DUP2 EQ PUSH2 0x1ED0 JUMPI PUSH0 PUSH0 REVERT JUMPDEST POP JUMP JUMPDEST PUSH0 DUP2 CALLDATALOAD SWAP1 POP PUSH2 0x1EE1 DUP2 PUSH2 0x1EBD JUMP JUMPDEST SWAP3 SWAP2 POP POP JUMP JUMPDEST PUSH0 PUSH1 0x20 DUP3 DUP5 SUB SLT ISZERO PUSH2 0x1EFC JUMPI PUSH2 0x1EFB PUSH2 0x1720 JUMP JUMPDEST JUMPDEST PUSH0 PUSH2 0x1F09 DUP5 DUP3 DUP6 ADD PUSH2 0x1ED3 JUMP JUMPDEST SWAP2 POP POP SWAP3 SWAP2 POP POP JUMP JUMPDEST PUSH0 PUSH2 0x1F1C DUP3 PUSH2 0x1A46 JUMP JUMPDEST SWAP1 POP SWAP2 SWAP1 POP JUMP JUMPDEST PUSH2 0x1F2C DUP2 PUSH2 0x1F12 JUMP JUMPDEST DUP3 MSTORE POP POP JUMP JUMPDEST PUSH0 PUSH1 0x20 DUP3 ADD SWAP1 POP PUSH2 0x1F45 PUSH0 DUP4 ADD DUP5 PUSH2 0x1F23 JUMP JUMPDEST SWAP3 SWAP2 POP POP JUMP JUMPDEST PUSH0 PUSH1 0x20 DUP3 DUP5 SUB SLT ISZERO PUSH2 0x1F60 JUMPI PUSH2 0x1F5F PUSH2 0x1720 JUMP JUMPDEST JUMPDEST PUSH0 PUSH2 0x1F6D DUP5 DUP3 DUP6 ADD PUSH2 0x1AE8 JUMP JUMPDEST SWAP2 POP POP SWAP3 SWAP2 POP POP JUMP JUMPDEST PUSH2 0x1F7F DUP2 PUSH2 0x1AC9 JUMP JUMPDEST DUP3 MSTORE POP POP JUMP JUMPDEST PUSH0 PUSH1 0x20 DUP3 ADD SWAP1 POP PUSH2 0x1F98 PUSH0 DUP4 ADD DUP5 PUSH2 0x1F76 JUMP JUMPDEST SWAP3 SWAP2 POP POP JUMP JUMPDEST DUP3 DUP2 DUP4 CALLDATACOPY POP POP POP JUMP JUMPDEST PUSH2 0x1FB3 PUSH1 0x40 DUP4 DUP4 PUSH2 0x1F9E JUMP JUMPDEST POP POP JUMP JUMPDEST PUSH0 PUSH1 0x2 SWAP1 POP SWAP2 SWAP1 POP JUMP JUMPDEST PUSH0 DUP2 SWAP1 POP SWAP3 SWAP2 POP POP JUMP JUMPDEST PUSH0 DUP2 SWAP1 POP SWAP2 SWAP1 POP JUMP JUMPDEST PUSH2 0x1FE0 PUSH1 0x40 DUP4 DUP4 PUSH2 0x1F9E JUMP JUMPDEST POP POP JUMP JUMPDEST PUSH0 PUSH2 0x1FEF DUP4 DUP4 PUSH2 0x1FD4 JUMP JUMPDEST PUSH1 0x40 DUP4 ADD SWAP1 POP SWAP3 SWAP2 POP POP JUMP JUMPDEST PUSH0 DUP3 SWAP1 POP SWAP3 SWAP2 POP POP JUMP JUMPDEST PUSH0 PUSH1 0x40 DUP3 ADD SWAP1 POP SWAP2 SWAP1 POP JUMP JUMPDEST PUSH2 0x201A DUP2 PUSH2 0x1FB7 JUMP JUMPDEST PUSH2 0x2024 DUP2 DUP5 PUSH2 0x1FC1 JUMP JUMPDEST SWAP3 POP PUSH2 0x202F DUP3 PUSH2 0x1FCB JUMP JUMPDEST DUP1 PUSH0 JUMPDEST DUP4 DUP2 LT ISZERO PUSH2 0x2067 JUMPI PUSH2 0x2044 DUP3 DUP5 PUSH2 0x1FFB JUMP JUMPDEST PUSH2 0x204E DUP8 DUP3 PUSH2 0x1FE4 JUMP JUMPDEST SWAP7 POP PUSH2 0x2059 DUP4 PUSH2 0x2005 JUMP JUMPDEST SWAP3 POP POP PUSH1 0x1 DUP2 ADD SWAP1 POP PUSH2 0x2032 JUMP JUMPDEST POP POP POP POP POP POP JUMP JUMPDEST PUSH2 0x207B PUSH1 0xC0 DUP4 DUP4 PUSH2 0x1F9E JUMP JUMPDEST POP POP JUMP JUMPDEST PUSH0 PUSH2 0x1C0 DUP3 ADD SWAP1 POP PUSH2 0x2093 PUSH0 DUP4 ADD DUP8 PUSH2 0x1FA7 JUMP JUMPDEST PUSH2 0x20A0 PUSH1 0x40 DUP4 ADD DUP7 PUSH2 0x2011 JUMP JUMPDEST PUSH2 0x20AD PUSH1 0xC0 DUP4 ADD DUP6 PUSH2 0x1FA7 JUMP JUMPDEST PUSH2 0x20BB PUSH2 0x100 DUP4 ADD DUP5 PUSH2 0x206F JUMP JUMPDEST SWAP6 SWAP5 POP POP POP POP POP JUMP JUMPDEST PUSH2 0x20CD DUP2 PUSH2 0x1C7E JUMP JUMPDEST DUP2 EQ PUSH2 0x20D7 JUMPI PUSH0 PUSH0 REVERT JUMPDEST POP JUMP JUMPDEST PUSH0 DUP2 MLOAD SWAP1 POP PUSH2 0x20E8 DUP2 PUSH2 0x20C4 JUMP JUMPDEST SWAP3 SWAP2 POP POP JUMP JUMPDEST PUSH0 PUSH1 0x20 DUP3 DUP5 SUB SLT ISZERO PUSH2 0x2103 JUMPI PUSH2 0x2102 PUSH2 0x1720 JUMP JUMPDEST JUMPDEST PUSH0 PUSH2 0x2110 DUP5 DUP3 DUP6 ADD PUSH2 0x20DA JUMP JUMPDEST SWAP2 POP POP SWAP3 SWAP2 POP POP JUMP JUMPDEST PUSH32 0x496E76616C6964205A4B2050726F6F6600000000000000000000000000000000 PUSH0 DUP3 ADD MSTORE POP JUMP JUMPDEST PUSH0 PUSH2 0x214D PUSH1 0x10 DUP4 PUSH2 0x1D2D JUMP JUMPDEST SWAP2 POP PUSH2 0x2158 DUP3 PUSH2 0x2119 JUMP JUMPDEST PUSH1 0x20 DUP3 ADD SWAP1 POP SWAP2 SWAP1 POP JUMP JUMPDEST PUSH0 PUSH1 0x20 DUP3 ADD SWAP1 POP DUP2 DUP2 SUB PUSH0 DUP4 ADD MSTORE PUSH2 0x217A DUP2 PUSH2 0x2141 JUMP JUMPDEST SWAP1 POP SWAP2 SWAP1 POP JUMP JUMPDEST PUSH32 0x4E487B7100000000000000000000000000000000000000000000000000000000 PUSH0 MSTORE PUSH1 0x32 PUSH1 0x4 MSTORE PUSH1 0x24 PUSH0 REVERT JUMPDEST PUSH32 0x57726F6E672064657374696E6174696F6E20636861696E000000000000000000 PUSH0 DUP3 ADD MSTORE POP JUMP JUMPDEST PUSH0 PUSH2 0x21E2 PUSH1 0x17 DUP4 PUSH2 0x1D2D JUMP JUMPDEST SWAP2 POP PUSH2 0x21ED DUP3 PUSH2 0x21AE JUMP JUMPDEST PUSH1 0x20 DUP3 ADD SWAP1 POP SWAP2 SWAP1 POP JUMP JUMPDEST PUSH0 PUSH1 0x20 DUP3 ADD SWAP1 POP DUP2 DUP2 SUB PUSH0 DUP4 ADD MSTORE PUSH2 0x220F DUP2 PUSH2 0x21D6 JUMP JUMPDEST SWAP1 POP SWAP2 SWAP1 POP JUMP JUMPDEST PUSH32 0x5265706C61792061747461636B20646574656374656400000000000000000000 PUSH0 DUP3 ADD MSTORE POP JUMP JUMPDEST PUSH0 PUSH2 0x224A PUSH1 0x16 DUP4 PUSH2 0x1D2D JUMP JUMPDEST SWAP2 POP PUSH2 0x2255 DUP3 PUSH2 0x2216 JUMP JUMPDEST PUSH1 0x20 DUP3 ADD SWAP1 POP SWAP2 SWAP1 POP JUMP JUMPDEST PUSH0 PUSH1 0x20 DUP3 ADD SWAP1 POP DUP2 DUP2 SUB PUSH0 DUP4 ADD MSTORE PUSH2 0x2277 DUP2 PUSH2 0x223E JUMP JUMPDEST SWAP1 POP SWAP2 SWAP1 POP JUMP JUMPDEST PUSH0 DUP2 SWAP1 POP SWAP2 SWAP1 POP JUMP JUMPDEST PUSH2 0x2298 PUSH2 0x2293 DUP3 PUSH2 0x190F JUMP JUMPDEST PUSH2 0x227E JUMP JUMPDEST DUP3 MSTORE POP POP JUMP JUMPDEST PUSH0 PUSH2 0x22A9 DUP3 DUP5 PUSH2 0x2287 JUMP JUMPDEST PUSH1 0x20 DUP3 ADD SWAP2 POP DUP2 SWAP1 POP SWAP3 SWAP2 POP POP JUMP JUMPDEST PUSH32 0x496E76616C6964207369676E6174757265206C656E6774680000000000000000 PUSH0 DUP3 ADD MSTORE POP JUMP JUMPDEST PUSH0 PUSH2 0x22EC PUSH1 0x18 DUP4 PUSH2 0x1D2D JUMP JUMPDEST SWAP2 POP PUSH2 0x22F7 DUP3 PUSH2 0x22B8 JUMP JUMPDEST PUSH1 0x20 DUP3 ADD SWAP1 POP SWAP2 SWAP1 POP JUMP JUMPDEST PUSH0 PUSH1 0x20 DUP3 ADD SWAP1 POP DUP2 DUP2 SUB PUSH0 DUP4 ADD MSTORE PUSH2 0x2319 DUP2 PUSH2 0x22E0 JUMP JUMPDEST SWAP1 POP SWAP2 SWAP1 POP JUMP JUMPDEST PUSH0 PUSH1 0xFF DUP3 AND SWAP1 POP SWAP2 SWAP1 POP JUMP JUMPDEST PUSH2 0x2335 DUP2 PUSH2 0x2320 JUMP JUMPDEST DUP3 MSTORE POP POP JUMP JUMPDEST PUSH0 PUSH1 0x80 DUP3 ADD SWAP1 POP PUSH2 0x234E PUSH0 DUP4 ADD DUP8 PUSH2 0x1F76 JUMP JUMPDEST PUSH2 0x235B PUSH1 0x20 DUP4 ADD DUP7 PUSH2 0x232C JUMP JUMPDEST PUSH2 0x2368 PUSH1 0x40 DUP4 ADD DUP6 PUSH2 0x1F76 JUMP JUMPDEST PUSH2 0x2375 PUSH1 0x60 DUP4 ADD DUP5 PUSH2 0x1F76 JUMP JUMPDEST SWAP6 SWAP5 POP POP POP POP POP JUMP JUMPDEST PUSH32 0x4E487B7100000000000000000000000000000000000000000000000000000000 PUSH0 MSTORE PUSH1 0x11 PUSH1 0x4 MSTORE PUSH1 0x24 PUSH0 REVERT JUMPDEST PUSH0 PUSH2 0x23B5 DUP3 PUSH2 0x2320 JUMP JUMPDEST SWAP2 POP PUSH1 0xFF DUP3 SUB PUSH2 0x23C8 JUMPI PUSH2 0x23C7 PUSH2 0x237E JUMP JUMPDEST JUMPDEST PUSH1 0x1 DUP3 ADD SWAP1 POP SWAP2 SWAP1 POP JUMP JUMPDEST PUSH0 PUSH2 0x23DD DUP3 PUSH2 0x2320 JUMP JUMPDEST SWAP2 POP PUSH0 DUP3 SUB PUSH2 0x23EF JUMPI PUSH2 0x23EE PUSH2 0x237E JUMP JUMPDEST JUMPDEST PUSH1 0x1 DUP3 SUB SWAP1 POP SWAP2 SWAP1 POP JUMP JUMPDEST PUSH0 PUSH2 0x2404 DUP3 PUSH2 0x2320 JUMP JUMPDEST SWAP2 POP PUSH2 0x240F DUP4 PUSH2 0x2320 JUMP JUMPDEST SWAP3 POP DUP3 DUP3 SUB SWAP1 POP PUSH1 0xFF DUP2 GT ISZERO PUSH2 0x2428 JUMPI PUSH2 0x2427 PUSH2 0x237E JUMP JUMPDEST JUMPDEST SWAP3 SWAP2 POP POP JUMP JUMPDEST PUSH0 PUSH2 0x2438 DUP3 PUSH2 0x2320 JUMP JUMPDEST SWAP2 POP PUSH2 0x2443 DUP4 PUSH2 0x2320 JUMP JUMPDEST SWAP3 POP DUP3 DUP3 ADD SWAP1 POP PUSH1 0xFF DUP2 GT ISZERO PUSH2 0x245C JUMPI PUSH2 0x245B PUSH2 0x237E JUMP JUMPDEST JUMPDEST SWAP3 SWAP2 POP POP JUMP JUMPDEST PUSH0 PUSH2 0x246C DUP3 PUSH2 0x190F JUMP JUMPDEST SWAP2 POP PUSH2 0x2477 DUP4 PUSH2 0x190F JUMP JUMPDEST SWAP3 POP DUP3 DUP3 ADD SWAP1 POP DUP1 DUP3 GT ISZERO PUSH2 0x248F JUMPI PUSH2 0x248E PUSH2 0x237E JUMP JUMPDEST JUMPDEST SWAP3 SWAP2 POP POP JUMP JUMPDEST PUSH2 0x24A2 PUSH2 0x100 DUP4 DUP4 PUSH2 0x1F9E JUMP JUMPDEST POP POP JUMP JUMPDEST PUSH0 PUSH2 0x200 DUP3 ADD SWAP1 POP PUSH2 0x24BA PUSH0 DUP4 ADD DUP8 PUSH2 0x1FA7 JUMP JUMPDEST PUSH2 0x24C7 PUSH1 0x40 DUP4 ADD DUP7 PUSH2 0x2011 JUMP JUMPDEST PUSH2 0x24D4 PUSH1 0xC0 DUP4 ADD DUP6 PUSH2 0x1FA7 JUMP JUMPDEST PUSH2 0x24E2 PUSH2 0x100 DUP4 ADD DUP5 PUSH2 0x2495 JUMP JUMPDEST SWAP6 SWAP5 POP POP POP POP POP JUMP JUMPDEST PUSH0 PUSH1 0x60 DUP3 ADD SWAP1 POP DUP2 DUP2 SUB PUSH0 DUP4 ADD MSTORE PUSH2 0x2503 DUP2 DUP7 PUSH2 0x1D3D JUMP JUMPDEST SWAP1 POP DUP2 DUP2 SUB PUSH1 0x20 DUP4 ADD MSTORE PUSH2 0x2517 DUP2 DUP6 PUSH2 0x1D3D JUMP JUMPDEST SWAP1 POP DUP2 DUP2 SUB PUSH1 0x40 DUP4 ADD MSTORE PUSH2 0x252B DUP2 DUP5 PUSH2 0x19A5 JUMP JUMPDEST SWAP1 POP SWAP5 SWAP4 POP POP POP POP JUMP JUMPDEST PUSH2 0x253E DUP2 PUSH2 0x190F JUMP JUMPDEST DUP3 MSTORE POP POP JUMP JUMPDEST PUSH0 PUSH1 0x80 DUP3 ADD SWAP1 POP PUSH2 0x2557 PUSH0 DUP4 ADD DUP8 PUSH2 0x1AA1 JUMP JUMPDEST DUP2 DUP2 SUB PUSH1 0x20 DUP4 ADD MSTORE PUSH2 0x2569 DUP2 DUP7 PUSH2 0x1D3D JUMP JUMPDEST SWAP1 POP PUSH2 0x2578 PUSH1 0x40 DUP4 ADD DUP6 PUSH2 0x2535 JUMP JUMPDEST PUSH2 0x2585 PUSH1 0x60 DUP4 ADD DUP5 PUSH2 0x2535 JUMP JUMPDEST SWAP6 SWAP5 POP POP POP POP POP JUMP JUMPDEST PUSH0 DUP2 SWAP1 POP SWAP3 SWAP2 POP POP JUMP JUMPDEST PUSH32 0x19457468657265756D205369676E6564204D6573736167653A0A333200000000 PUSH0 DUP3 ADD MSTORE POP JUMP JUMPDEST PUSH0 PUSH2 0x25CC PUSH1 0x1C DUP4 PUSH2 0x258E JUMP JUMPDEST SWAP2 POP PUSH2 0x25D7 DUP3 PUSH2 0x2598 JUMP JUMPDEST PUSH1 0x1C DUP3 ADD SWAP1 POP SWAP2 SWAP1 POP JUMP JUMPDEST PUSH0 DUP2 SWAP1 POP SWAP2 SWAP1 POP JUMP JUMPDEST PUSH2 0x25FC PUSH2 0x25F7 DUP3 PUSH2 0x1AC9 JUMP JUMPDEST PUSH2 0x25E2 JUMP JUMPDEST DUP3 MSTORE POP POP JUMP JUMPDEST PUSH0 PUSH2 0x260C DUP3 PUSH2 0x25C0 JUMP JUMPDEST SWAP2 POP PUSH2 0x2618 DUP3 DUP5 PUSH2 0x25EB JUMP JUMPDEST PUSH1 0x20 DUP3 ADD SWAP2 POP DUP2 SWAP1 POP SWAP3 SWAP2 POP POP JUMP JUMPDEST PUSH0 PUSH2 0x2632 DUP3 DUP9 PUSH2 0x2287 JUMP JUMPDEST PUSH1 0x20 DUP3 ADD SWAP2 POP PUSH2 0x2642 DUP3 DUP8 PUSH2 0x2287 JUMP JUMPDEST PUSH1 0x20 DUP3 ADD SWAP2 POP PUSH2 0x2652 DUP3 DUP7 PUSH2 0x2287 JUMP JUMPDEST PUSH1 0x20 DUP3 ADD SWAP2 POP PUSH2 0x2662 DUP3 DUP6 PUSH2 0x2287 JUMP JUMPDEST PUSH1 0x20 DUP3 ADD SWAP2 POP PUSH2 0x2672 DUP3 DUP5 PUSH2 0x2287 JUMP JUMPDEST PUSH1 0x20 DUP3 ADD SWAP2 POP DUP2 SWAP1 POP SWAP7 SWAP6 POP POP POP POP POP POP JUMP JUMPDEST PUSH0 PUSH8 0xFFFFFFFFFFFFFFFF DUP3 GT ISZERO PUSH2 0x269F JUMPI PUSH2 0x269E PUSH2 0x1B00 JUMP JUMPDEST JUMPDEST PUSH1 0x20 DUP3 MUL SWAP1 POP PUSH1 0x20 DUP2 ADD SWAP1 POP SWAP2 SWAP1 POP JUMP JUMPDEST PUSH0 DUP2 MLOAD SWAP1 POP PUSH2 0x26BE DUP2 PUSH2 0x1EBD JUMP JUMPDEST SWAP3 SWAP2 POP POP JUMP JUMPDEST PUSH0 PUSH2 0x26D6 PUSH2 0x26D1 DUP5 PUSH2 0x2685 JUMP JUMPDEST PUSH2 0x1B5E JUMP JUMPDEST SWAP1 POP DUP1 DUP4 DUP3 MSTORE PUSH1 0x20 DUP3 ADD SWAP1 POP PUSH1 0x20 DUP5 MUL DUP4 ADD DUP6 DUP2 GT ISZERO PUSH2 0x26F9 JUMPI PUSH2 0x26F8 PUSH2 0x1728 JUMP JUMPDEST JUMPDEST DUP4 JUMPDEST DUP2 DUP2 LT ISZERO PUSH2 0x2722 JUMPI DUP1 PUSH2 0x270E DUP9 DUP3 PUSH2 0x26B0 JUMP JUMPDEST DUP5 MSTORE PUSH1 0x20 DUP5 ADD SWAP4 POP POP PUSH1 0x20 DUP2 ADD SWAP1 POP PUSH2 0x26FB JUMP JUMPDEST POP POP POP SWAP4 SWAP3 POP POP POP JUMP JUMPDEST PUSH0 DUP3 PUSH1 0x1F DUP4 ADD SLT PUSH2 0x2740 JUMPI PUSH2 0x273F PUSH2 0x178F JUMP JUMPDEST JUMPDEST DUP2 MLOAD PUSH2 0x2750 DUP5 DUP3 PUSH1 0x20 DUP7 ADD PUSH2 0x26C4 JUMP JUMPDEST SWAP2 POP POP SWAP3 SWAP2 POP POP JUMP JUMPDEST PUSH0 PUSH1 0x20 DUP3 DUP5 SUB SLT ISZERO PUSH2 0x276E JUMPI PUSH2 0x276D PUSH2 0x1720 JUMP JUMPDEST JUMPDEST PUSH0 DUP3 ADD MLOAD PUSH8 0xFFFFFFFFFFFFFFFF DUP2 GT ISZERO PUSH2 0x278B JUMPI PUSH2 0x278A PUSH2 0x1724 JUMP JUMPDEST JUMPDEST PUSH2 0x2797 DUP5 DUP3 DUP6 ADD PUSH2 0x272C JUMP JUMPDEST SWAP2 POP POP SWAP3 SWAP2 POP POP JUMP JUMPDEST PUSH0 PUSH2 0x27AA DUP3 PUSH2 0x190F JUMP JUMPDEST SWAP2 POP PUSH2 0x27B5 DUP4 PUSH2 0x190F JUMP JUMPDEST SWAP3 POP DUP3 DUP3 MUL PUSH2 0x27C3 DUP2 PUSH2 0x190F JUMP JUMPDEST SWAP2 POP DUP3 DUP3 DIV DUP5 EQ DUP4 ISZERO OR PUSH2 0x27DA JUMPI PUSH2 0x27D9 PUSH2 0x237E JUMP JUMPDEST JUMPDEST POP SWAP3 SWAP2 POP POP JUMP JUMPDEST PUSH0 PUSH0 REVERT JUMPDEST PUSH0 PUSH0 REVERT JUMPDEST PUSH0 PUSH0 DUP6 DUP6 GT ISZERO PUSH2 0x27FC JUMPI PUSH2 0x27FB PUSH2 0x27E1 JUMP JUMPDEST JUMPDEST DUP4 DUP7 GT ISZERO PUSH2 0x280D JUMPI PUSH2 0x280C PUSH2 0x27E5 JUMP JUMPDEST JUMPDEST PUSH1 0x1 DUP6 MUL DUP4 ADD SWAP2 POP DUP5 DUP7 SUB SWAP1 POP SWAP5 POP SWAP5 SWAP3 POP POP POP JUMP JUMPDEST PUSH32 0x496E76616C6964207369676E6174757265000000000000000000000000000000 PUSH0 DUP3 ADD MSTORE POP JUMP JUMPDEST PUSH0 PUSH2 0x2857 PUSH1 0x11 DUP4 PUSH2 0x1D2D JUMP JUMPDEST SWAP2 POP PUSH2 0x2862 DUP3 PUSH2 0x2823 JUMP JUMPDEST PUSH1 0x20 DUP3 ADD SWAP1 POP SWAP2 SWAP1 POP JUMP JUMPDEST PUSH0 PUSH1 0x20 DUP3 ADD SWAP1 POP DUP2 DUP2 SUB PUSH0 DUP4 ADD MSTORE PUSH2 0x2884 DUP2 PUSH2 0x284B JUMP JUMPDEST SWAP1 POP SWAP2 SWAP1 POP JUMP JUMPDEST PUSH32 0x5369676E6572206E6F7420616E206163746976652076616C696461746F720000 PUSH0 DUP3 ADD MSTORE POP JUMP JUMPDEST PUSH0 PUSH2 0x28BF PUSH1 0x1E DUP4 PUSH2 0x1D2D JUMP JUMPDEST SWAP2 POP PUSH2 0x28CA DUP3 PUSH2 0x288B JUMP JUMPDEST PUSH1 0x20 DUP3 ADD SWAP1 POP SWAP2 SWAP1 POP JUMP JUMPDEST PUSH0 PUSH1 0x20 DUP3 ADD SWAP1 POP DUP2 DUP2 SUB PUSH0 DUP4 ADD MSTORE PUSH2 0x28EC DUP2 PUSH2 0x28B3 JUMP JUMPDEST SWAP1 POP SWAP2 SWAP1 POP JUMP JUMPDEST PUSH0 PUSH2 0x28FE DUP3 DUP11 PUSH2 0x2287 JUMP JUMPDEST PUSH1 0x20 DUP3 ADD SWAP2 POP PUSH2 0x290E DUP3 DUP10 PUSH2 0x2287 JUMP JUMPDEST PUSH1 0x20 DUP3 ADD SWAP2 POP PUSH2 0x291E DUP3 DUP9 PUSH2 0x2287 JUMP JUMPDEST PUSH1 0x20 DUP3 ADD SWAP2 POP PUSH2 0x292E DUP3 DUP8 PUSH2 0x2287 JUMP JUMPDEST PUSH1 0x20 DUP3 ADD SWAP2 POP PUSH2 0x293E DUP3 DUP7 PUSH2 0x2287 JUMP JUMPDEST PUSH1 0x20 DUP3 ADD SWAP2 POP PUSH2 0x294E DUP3 DUP6 PUSH2 0x2287 JUMP JUMPDEST PUSH1 0x20 DUP3 ADD SWAP2 POP PUSH2 0x295E DUP3 DUP5 PUSH2 0x2287 JUMP JUMPDEST PUSH1 0x20 DUP3 ADD SWAP2 POP DUP2 SWAP1 POP SWAP9 SWAP8 POP POP POP POP POP POP POP POP JUMP JUMPDEST PUSH0 PUSH2 0x297D DUP3 PUSH2 0x1D23 JUMP JUMPDEST PUSH2 0x2987 DUP2 DUP6 PUSH2 0x258E JUMP JUMPDEST SWAP4 POP PUSH2 0x2997 DUP2 DUP6 PUSH1 0x20 DUP7 ADD PUSH2 0x1987 JUMP JUMPDEST DUP1 DUP5 ADD SWAP2 POP POP SWAP3 SWAP2 POP POP JUMP JUMPDEST PUSH32 0x5F7661756C740000000000000000000000000000000000000000000000000000 PUSH0 DUP3 ADD MSTORE POP JUMP JUMPDEST PUSH0 PUSH2 0x29D7 PUSH1 0x6 DUP4 PUSH2 0x258E JUMP JUMPDEST SWAP2 POP PUSH2 0x29E2 DUP3 PUSH2 0x29A3 JUMP JUMPDEST PUSH1 0x6 DUP3 ADD SWAP1 POP SWAP2 SWAP1 POP JUMP JUMPDEST PUSH0 PUSH2 0x29F8 DUP3 DUP5 PUSH2 0x2973 JUMP JUMPDEST SWAP2 POP PUSH2 0x2A03 DUP3 PUSH2 0x29CB JUMP JUMPDEST SWAP2 POP DUP2 SWAP1 POP SWAP3 SWAP2 POP POP JUMP JUMPDEST PUSH32 0x5169617261426173654173736574730000000000000000000000000000000000 PUSH0 DUP3 ADD MSTORE POP JUMP JUMPDEST PUSH0 PUSH2 0x2A42 PUSH1 0xF DUP4 PUSH2 0x1D2D JUMP JUMPDEST SWAP2 POP PUSH2 0x2A4D DUP3 PUSH2 0x2A0E JUMP JUMPDEST PUSH1 0x20 DUP3 ADD SWAP1 POP SWAP2 SWAP1 POP JUMP JUMPDEST PUSH0 PUSH1 0x40 DUP3 ADD SWAP1 POP DUP2 DUP2 SUB PUSH0 DUP4 ADD MSTORE PUSH2 0x2A6F DUP2 PUSH2 0x2A36 JUMP JUMPDEST SWAP1 POP DUP2 DUP2 SUB PUSH1 0x20 DUP4 ADD MSTORE PUSH2 0x2A83 DUP2 DUP5 PUSH2 0x1D3D JUMP JUMPDEST SWAP1 POP SWAP3 SWAP2 POP POP JUMP JUMPDEST PUSH0 PUSH2 0x2A9D PUSH2 0x2A98 DUP5 PUSH2 0x1B78 JUMP JUMPDEST PUSH2 0x1B5E JUMP JUMPDEST SWAP1 POP DUP3 DUP2 MSTORE PUSH1 0x20 DUP2 ADD DUP5 DUP5 DUP5 ADD GT ISZERO PUSH2 0x2AB9 JUMPI PUSH2 0x2AB8 PUSH2 0x1AFC JUMP JUMPDEST JUMPDEST PUSH2 0x2AC4 DUP5 DUP3 DUP6 PUSH2 0x1987 JUMP JUMPDEST POP SWAP4 SWAP3 POP POP POP JUMP JUMPDEST PUSH0 DUP3 PUSH1 0x1F DUP4 ADD SLT PUSH2 0x2AE0 JUMPI PUSH2 0x2ADF PUSH2 0x178F JUMP JUMPDEST JUMPDEST DUP2 MLOAD PUSH2 0x2AF0 DUP5 DUP3 PUSH1 0x20 DUP7 ADD PUSH2 0x2A8B JUMP JUMPDEST SWAP2 POP POP SWAP3 SWAP2 POP POP JUMP JUMPDEST PUSH0 PUSH1 0x20 DUP3 DUP5 SUB SLT ISZERO PUSH2 0x2B0E JUMPI PUSH2 0x2B0D PUSH2 0x1720 JUMP JUMPDEST JUMPDEST PUSH0 DUP3 ADD MLOAD PUSH8 0xFFFFFFFFFFFFFFFF DUP2 GT ISZERO PUSH2 0x2B2B JUMPI PUSH2 0x2B2A PUSH2 0x1724 JUMP JUMPDEST JUMPDEST PUSH2 0x2B37 DUP5 DUP3 DUP6 ADD PUSH2 0x2ACC JUMP JUMPDEST SWAP2 POP POP SWAP3 SWAP2 POP POP JUMP JUMPDEST PUSH32 0x5661756C74206E6F7420617574686F72697A6564000000000000000000000000 PUSH0 DUP3 ADD MSTORE POP JUMP JUMPDEST PUSH0 PUSH2 0x2B74 PUSH1 0x14 DUP4 PUSH2 0x1D2D JUMP JUMPDEST SWAP2 POP PUSH2 0x2B7F DUP3 PUSH2 0x2B40 JUMP JUMPDEST PUSH1 0x20 DUP3 ADD SWAP1 POP SWAP2 SWAP1 POP JUMP JUMPDEST PUSH0 PUSH1 0x20 DUP3 ADD SWAP1 POP DUP2 DUP2 SUB PUSH0 DUP4 ADD MSTORE PUSH2 0x2BA1 DUP2 PUSH2 0x2B68 JUMP JUMPDEST SWAP1 POP SWAP2 SWAP1 POP JUMP JUMPDEST PUSH0 PUSH2 0x2BB2 DUP3 PUSH2 0x19FD JUMP JUMPDEST SWAP1 POP SWAP2 SWAP1 POP JUMP JUMPDEST PUSH2 0x2BC2 DUP2 PUSH2 0x2BA8 JUMP JUMPDEST DUP2 EQ PUSH2 0x2BCC JUMPI PUSH0 PUSH0 REVERT JUMPDEST POP JUMP JUMPDEST PUSH0 DUP2 MLOAD SWAP1 POP PUSH2 0x2BDD DUP2 PUSH2 0x2BB9 JUMP JUMPDEST SWAP3 SWAP2 POP POP JUMP JUMPDEST PUSH0 PUSH1 0x20 DUP3 DUP5 SUB SLT ISZERO PUSH2 0x2BF8 JUMPI PUSH2 0x2BF7 PUSH2 0x1720 JUMP JUMPDEST JUMPDEST PUSH0 PUSH2 0x2C05 DUP5 DUP3 DUP6 ADD PUSH2 0x2BCF JUMP JUMPDEST SWAP2 POP POP SWAP3 SWAP2 POP POP JUMP INVALID LOG2 PUSH5 0x6970667358 0x22 SLT KECCAK256 CREATE PUSH20 0x570D96CC939E83D199E899396C8D739148A64420 MUL MSTORE8 0xB7 LOG4 PC 0xD9 ISZERO 0xB2 SWAP12 POP PUSH5 0x736F6C6343 STOP ADDMOD 0x1F STOP CALLER "
				},
				"gasEstimates": {
					"creation": {
						"codeDepositCost": "2266400",
						"executionCost": "infinite",
						"totalCost": "infinite"
					},
					"external": {
						"balance_verifier()": "infinite",
						"fieldToAddress(uint256)": "664",
						"fieldToBytes(uint256)": "infinite",
						"fieldToString(uint256)": "infinite",
						"getEthSignedMessageHash(bytes32)": "infinite",
						"owner()": "2559",
						"processZkValidator(uint256[2],uint256[2][2],uint256[2],uint256[6],address[],bytes)": "infinite",
						"processZkVariable(uint256[2],uint256[2][2],uint256[2],uint256[8],address[],bytes)": "infinite",
						"processZkWithdraw(uint256[2],uint256[2][2],uint256[2],uint256[8],address[],bytes)": "infinite",
						"recoverSigner(bytes32,bytes)": "infinite",
						"renounceOwnership()": "infinite",
						"transferOwnership(address)": "infinite",
						"usedNullifiers(uint256)": "2874",
						"validator_verifier()": "infinite",
						"validatorsRegistry()": "infinite",
						"variable_verifier()": "infinite",
						"variablesRegistry()": "infinite"
					},
					"internal": {
						"_calculateNullifier6(uint256[6] calldata)": "infinite",
						"_calculateNullifier8(uint256[8] calldata)": "infinite",
						"_prepareWithdrawal(uint256[8] calldata)": "infinite",
						"_verifyAllSignatures(bytes32,address[] calldata,bytes calldata)": "infinite"
					}
				},
				"methodIdentifiers": {
					"balance_verifier()": "f90c0f40",
					"fieldToAddress(uint256)": "7a988c54",
					"fieldToBytes(uint256)": "19b8c941",
					"fieldToString(uint256)": "b648f220",
					"getEthSignedMessageHash(bytes32)": "fa540801",
					"owner()": "8da5cb5b",
					"processZkValidator(uint256[2],uint256[2][2],uint256[2],uint256[6],address[],bytes)": "18e43082",
					"processZkVariable(uint256[2],uint256[2][2],uint256[2],uint256[8],address[],bytes)": "c3c2198f",
					"processZkWithdraw(uint256[2],uint256[2][2],uint256[2],uint256[8],address[],bytes)": "cc60819f",
					"recoverSigner(bytes32,bytes)": "97aba7f9",
					"renounceOwnership()": "715018a6",
					"transferOwnership(address)": "f2fde38b",
					"usedNullifiers(uint256)": "aad24061",
					"validator_verifier()": "b3d63003",
					"validatorsRegistry()": "aed881d8",
					"variable_verifier()": "4eb30d41",
					"variablesRegistry()": "bf4d766e"
				}
			},
			"storageLayout": {
				"storage": [
					{
						"astId": 8,
						"contract": "Evm/core/monad/vaultDelegator.sol:QiaraZKDelegator",
						"label": "_owner",
						"offset": 0,
						"slot": "0",
						"type": "t_address"
					},
					{
						"astId": 316,
						"contract": "Evm/core/monad/vaultDelegator.sol:QiaraZKDelegator",
						"label": "usedNullifiers",
						"offset": 0,
						"slot": "1",
						"type": "t_mapping(t_uint256,t_bool)"
					}
				],
				"types": {
					"t_address": {
						"encoding": "inplace",
						"label": "address",
						"numberOfBytes": "20"
					},
					"t_bool": {
						"encoding": "inplace",
						"label": "bool",
						"numberOfBytes": "1"
					},
					"t_mapping(t_uint256,t_bool)": {
						"encoding": "mapping",
						"key": "t_uint256",
						"label": "mapping(uint256 => bool)",
						"numberOfBytes": "32",
						"value": "t_bool"
					},
					"t_uint256": {
						"encoding": "inplace",
						"label": "uint256",
						"numberOfBytes": "32"
					}
				}
			},
			"userdoc": {
				"kind": "user",
				"methods": {},
				"version": 1
			}
		}
	}
}