{
	"data": {
		"bytecode": {
			"linkReferences": {},
			"object": "60a060405234801561000f575f5ffd5b5060405161212b38038061212b833981810160405281019061003191906100c9565b8073ffffffffffffffffffffffffffffffffffffffff1660808173ffffffffffffffffffffffffffffffffffffffff1681525050506100f4565b5f5ffd5b5f73ffffffffffffffffffffffffffffffffffffffff82169050919050565b5f6100988261006f565b9050919050565b6100a88161008e565b81146100b2575f5ffd5b50565b5f815190506100c38161009f565b92915050565b5f602082840312156100de576100dd61006b565b5b5f6100eb848285016100b5565b91505092915050565b6080516120036101285f395f818161024701528181610432015281816104be0152818161080f0152610c1101526120035ff3fe608060405234801561000f575f5ffd5b5060043610610054575f3560e01c8062859b5d14610058578063b0fd93d714610074578063b5f8558c14610090578063c5bf2798146100ae578063cc301111146100ca575b5f5ffd5b610072600480360381019061006d9190611384565b6100e6565b005b61008e60048036038101906100899190611384565b6102d1565b005b6100986104bc565b6040516100a59190611486565b60405180910390f35b6100c860048036038101906100c39190611552565b6104e0565b005b6100e460048036038101906100df9190611797565b6108a0565b005b5f600467ffffffffffffffff81111561010257610101611185565b5b60405190808252806020026020018201604052801561013b57816020015b61012861113b565b8152602001906001900390816101205790505b50905061017f815f6040518060400160405280600681526020017f73656e646572000000000000000000000000000000000000000000000000000081525033610ca3565b6101c18160016040518060400160405280600481526020017f757365720000000000000000000000000000000000000000000000000000000081525087610d36565b6102038160026040518060400160405280600681526020017f736861726564000000000000000000000000000000000000000000000000000081525086610dc9565b6102458160036040518060400160405280600281526020017f696400000000000000000000000000000000000000000000000000000000000081525085610e5c565b7f000000000000000000000000000000000000000000000000000000000000000073ffffffffffffffffffffffffffffffffffffffff16637d64fa9b826040518263ffffffff1660e01b815260040161029e9190611b86565b5f604051808303815f87803b1580156102b5575f5ffd5b505af11580156102c7573d5f5f3e3d5ffd5b5050505050505050565b5f600467ffffffffffffffff8111156102ed576102ec611185565b5b60405190808252806020026020018201604052801561032657816020015b61031361113b565b81526020019060019003908161030b5790505b50905061036a815f6040518060400160405280600681526020017f73656e646572000000000000000000000000000000000000000000000000000081525033610ca3565b6103ac8160016040518060400160405280600481526020017f757365720000000000000000000000000000000000000000000000000000000081525087610d36565b6103ee8160026040518060400160405280600681526020017f736861726564000000000000000000000000000000000000000000000000000081525086610dc9565b6104308160036040518060400160405280600281526020017f696400000000000000000000000000000000000000000000000000000000000081525085610e5c565b7f000000000000000000000000000000000000000000000000000000000000000073ffffffffffffffffffffffffffffffffffffffff16637d64fa9b826040518263ffffffff1660e01b81526004016104899190611c03565b5f604051808303815f87803b1580156104a0575f5ffd5b505af11580156104b2573d5f5f3e3d5ffd5b5050505050505050565b7f000000000000000000000000000000000000000000000000000000000000000081565b5f600b67ffffffffffffffff8111156104fc576104fb611185565b5b60405190808252806020026020018201604052801561053557816020015b61052261113b565b81526020019060019003908161051a5790505b509050610579815f6040518060400160405280600681526020017f73656e646572000000000000000000000000000000000000000000000000000081525033610ca3565b6105bb8160016040518060400160405280600481526020017f75736572000000000000000000000000000000000000000000000000000000008152508e610d36565b6105fd8160026040518060400160405280600681526020017f73686172656400000000000000000000000000000000000000000000000000008152508d610dc9565b61063f8160036040518060400160405280600581526020017f61737365740000000000000000000000000000000000000000000000000000008152508c610dc9565b6106818160046040518060400160405280600481526020017f73697a65000000000000000000000000000000000000000000000000000000008152508b610e5c565b6106c38160056040518060400160405280600881526020017f6c6576657261676500000000000000000000000000000000000000000000000081525088610eef565b6107058160066040518060400160405280600681526020017f69734c6f6e67000000000000000000000000000000000000000000000000000081525089610f82565b6107478160076040518060400160405280600d81526020017f646573697265645f7072696365000000000000000000000000000000000000008152508a611015565b6107898160086040518060400160405280600d81526020017f726573657276655f636861696e0000000000000000000000000000000000000081525087610dc9565b6107cb8160096040518060400160405280601081526020017f726573657276655f70726f76696465720000000000000000000000000000000081525086610dc9565b61080d81600a6040518060400160405280600d81526020017f726573657276655f746f6b656e0000000000000000000000000000000000000081525085610dc9565b7f000000000000000000000000000000000000000000000000000000000000000073ffffffffffffffffffffffffffffffffffffffff16637d64fa9b826040518263ffffffff1660e01b81526004016108669190611c80565b5f604051808303815f87803b15801561087d575f5ffd5b505af115801561088f573d5f5f3e3d5ffd5b505050505050505050505050505050565b5f600c67ffffffffffffffff8111156108bc576108bb611185565b5b6040519080825280602002602001820160405280156108f557816020015b6108e261113b565b8152602001906001900390816108da5790505b509050610939815f6040518060400160405280600681526020017f73656e646572000000000000000000000000000000000000000000000000000081525033610ca3565b61097b8160016040518060400160405280600481526020017f75736572000000000000000000000000000000000000000000000000000000008152508f610d36565b6109bd8160026040518060400160405280600681526020017f73686172656400000000000000000000000000000000000000000000000000008152508e610dc9565b6109ff8160036040518060400160405280600581526020017f61737365740000000000000000000000000000000000000000000000000000008152508d610dc9565b610a418160046040518060400160405280600781526020017f706572696f6473000000000000000000000000000000000000000000000000008152508c6110a8565b610a838160056040518060400160405280600581526020017f73697a65730000000000000000000000000000000000000000000000000000008152508b6110a8565b610ac58160066040518060400160405280600d81526020017f646573697265645f7072696365000000000000000000000000000000000000008152508a611015565b610b078160076040518060400160405280600681526020017f69734c6f6e67000000000000000000000000000000000000000000000000000081525089610f82565b610b498160086040518060400160405280600881526020017f6c6576657261676500000000000000000000000000000000000000000000000081525088610eef565b610b8b8160096040518060400160405280600d81526020017f726573657276655f636861696e0000000000000000000000000000000000000081525087610dc9565b610bcd81600a6040518060400160405280601081526020017f726573657276655f70726f76696465720000000000000000000000000000000081525086610dc9565b610c0f81600b6040518060400160405280600d81526020017f726573657276655f746f6b656e0000000000000000000000000000000000000081525085610dc9565b7f000000000000000000000000000000000000000000000000000000000000000073ffffffffffffffffffffffffffffffffffffffff16637d64fa9b826040518263ffffffff1660e01b8152600401610c689190611cfd565b5f604051808303815f87803b158015610c7f575f5ffd5b505af1158015610c91573d5f5f3e3d5ffd5b50505050505050505050505050505050565b60405180606001604052808381526020016040518060400160405280600781526020017f6164647265737300000000000000000000000000000000000000000000000000815250815260200182604051602001610d009190611d50565b604051602081830303815290604052815250848481518110610d2557610d24611d69565b5b602002602001018190525050505050565b60405180606001604052808381526020016040518060400160405280600581526020017f6279746573000000000000000000000000000000000000000000000000000000815250815260200182604051602001610d939190611dde565b604051602081830303815290604052815250848481518110610db857610db7611d69565b5b602002602001018190525050505050565b60405180606001604052808381526020016040518060400160405280600681526020017f737472696e670000000000000000000000000000000000000000000000000000815250815260200182604051602001610e269190611e36565b604051602081830303815290604052815250848481518110610e4b57610e4a611d69565b5b602002602001018190525050505050565b60405180606001604052808381526020016040518060400160405280600681526020017f75696e7436340000000000000000000000000000000000000000000000000000815250815260200182604051602001610eb99190611e65565b604051602081830303815290604052815250848481518110610ede57610edd611d69565b5b602002602001018190525050505050565b60405180606001604052808381526020016040518060400160405280600681526020017f75696e7433320000000000000000000000000000000000000000000000000000815250815260200182604051602001610f4c9190611e8d565b604051602081830303815290604052815250848481518110610f7157610f70611d69565b5b602002602001018190525050505050565b60405180606001604052808381526020016040518060400160405280600481526020017f626f6f6c00000000000000000000000000000000000000000000000000000000815250815260200182604051602001610fdf9190611eb5565b60405160208183030381529060405281525084848151811061100457611003611d69565b5b602002602001018190525050505050565b60405180606001604052808381526020016040518060400160405280600781526020017f75696e74313238000000000000000000000000000000000000000000000000008152508152602001826040516020016110729190611edd565b60405160208183030381529060405281525084848151811061109757611096611d69565b5b602002602001018190525050505050565b60405180606001604052808381526020016040518060400160405280600881526020017f75696e7436345b5d0000000000000000000000000000000000000000000000008152508152602001826040516020016111059190611fad565b60405160208183030381529060405281525084848151811061112a57611129611d69565b5b602002602001018190525050505050565b60405180606001604052806060815260200160608152602001606081525090565b5f604051905090565b5f5ffd5b5f5ffd5b5f5ffd5b5f5ffd5b5f601f19601f8301169050919050565b7f4e487b71000000000000000000000000000000000000000000000000000000005f52604160045260245ffd5b6111bb82611175565b810181811067ffffffffffffffff821117156111da576111d9611185565b5b80604052505050565b5f6111ec61115c565b90506111f882826111b2565b919050565b5f67ffffffffffffffff82111561121757611216611185565b5b61122082611175565b9050602081019050919050565b828183375f83830152505050565b5f61124d611248846111fd565b6111e3565b90508281526020810184848401111561126957611268611171565b5b61127484828561122d565b509392505050565b5f82601f8301126112905761128f61116d565b5b81356112a084826020860161123b565b91505092915050565b5f67ffffffffffffffff8211156112c3576112c2611185565b5b6112cc82611175565b9050602081019050919050565b5f6112eb6112e6846112a9565b6111e3565b90508281526020810184848401111561130757611306611171565b5b61131284828561122d565b509392505050565b5f82601f83011261132e5761132d61116d565b5b813561133e8482602086016112d9565b91505092915050565b5f67ffffffffffffffff82169050919050565b61136381611347565b811461136d575f5ffd5b50565b5f8135905061137e8161135a565b92915050565b5f5f5f6060848603121561139b5761139a611165565b5b5f84013567ffffffffffffffff8111156113b8576113b7611169565b5b6113c48682870161127c565b935050602084013567ffffffffffffffff8111156113e5576113e4611169565b5b6113f18682870161131a565b925050604061140286828701611370565b9150509250925092565b5f73ffffffffffffffffffffffffffffffffffffffff82169050919050565b5f819050919050565b5f61144e6114496114448461140c565b61142b565b61140c565b9050919050565b5f61145f82611434565b9050919050565b5f61147082611455565b9050919050565b61148081611466565b82525050565b5f6020820190506114995f830184611477565b92915050565b5f6fffffffffffffffffffffffffffffffff82169050919050565b6114c38161149f565b81146114cd575f5ffd5b50565b5f813590506114de816114ba565b92915050565b5f8115159050919050565b6114f8816114e4565b8114611502575f5ffd5b50565b5f81359050611513816114ef565b92915050565b5f63ffffffff82169050919050565b61153181611519565b811461153b575f5ffd5b50565b5f8135905061154c81611528565b92915050565b5f5f5f5f5f5f5f5f5f5f6101408b8d03121561157157611570611165565b5b5f8b013567ffffffffffffffff81111561158e5761158d611169565b5b61159a8d828e0161127c565b9a505060208b013567ffffffffffffffff8111156115bb576115ba611169565b5b6115c78d828e0161131a565b99505060408b013567ffffffffffffffff8111156115e8576115e7611169565b5b6115f48d828e0161131a565b98505060606116058d828e01611370565b97505060806116168d828e016114d0565b96505060a06116278d828e01611505565b95505060c06116388d828e0161153e565b94505060e08b013567ffffffffffffffff81111561165957611658611169565b5b6116658d828e0161131a565b9350506101008b013567ffffffffffffffff81111561168757611686611169565b5b6116938d828e0161131a565b9250506101208b013567ffffffffffffffff8111156116b5576116b4611169565b5b6116c18d828e0161131a565b9150509295989b9194979a5092959850565b5f67ffffffffffffffff8211156116ed576116ec611185565b5b602082029050602081019050919050565b5f5ffd5b5f61171461170f846116d3565b6111e3565b90508083825260208201905060208402830185811115611737576117366116fe565b5b835b81811015611760578061174c8882611370565b845260208401935050602081019050611739565b5050509392505050565b5f82601f83011261177e5761177d61116d565b5b813561178e848260208601611702565b91505092915050565b5f5f5f5f5f5f5f5f5f5f5f6101608c8e0312156117b7576117b6611165565b5b5f8c013567ffffffffffffffff8111156117d4576117d3611169565b5b6117e08e828f0161127c565b9b505060208c013567ffffffffffffffff81111561180157611800611169565b5b61180d8e828f0161131a565b9a505060408c013567ffffffffffffffff81111561182e5761182d611169565b5b61183a8e828f0161131a565b99505060608c013567ffffffffffffffff81111561185b5761185a611169565b5b6118678e828f0161176a565b98505060808c013567ffffffffffffffff81111561188857611887611169565b5b6118948e828f0161176a565b97505060a06118a58e828f016114d0565b96505060c06118b68e828f01611505565b95505060e06118c78e828f0161153e565b9450506101008c013567ffffffffffffffff8111156118e9576118e8611169565b5b6118f58e828f0161131a565b9350506101208c013567ffffffffffffffff81111561191757611916611169565b5b6119238e828f0161131a565b9250506101408c013567ffffffffffffffff81111561194557611944611169565b5b6119518e828f0161131a565b9150509295989b509295989b9093969950565b5f82825260208201905092915050565b7f4d6f64756c61722054574150204f726465722044656c657465640000000000005f82015250565b5f6119a8601a83611964565b91506119b382611974565b602082019050919050565b5f81519050919050565b5f82825260208201905092915050565b5f819050602082019050919050565b5f81519050919050565b5f82825260208201905092915050565b8281835e5f83830152505050565b5f611a19826119e7565b611a2381856119f1565b9350611a33818560208601611a01565b611a3c81611175565b840191505092915050565b5f81519050919050565b5f82825260208201905092915050565b5f611a6b82611a47565b611a758185611a51565b9350611a85818560208601611a01565b611a8e81611175565b840191505092915050565b5f606083015f8301518482035f860152611ab38282611a0f565b91505060208301518482036020860152611acd8282611a0f565b91505060408301518482036040860152611ae78282611a61565b9150508091505092915050565b5f611aff8383611a99565b905092915050565b5f602082019050919050565b5f611b1d826119be565b611b2781856119c8565b935083602082028501611b39856119d8565b805f5b85811015611b745784840389528151611b558582611af4565b9450611b6083611b07565b925060208a01995050600181019050611b3c565b50829750879550505050505092915050565b5f6040820190508181035f830152611b9d8161199c565b90508181036020830152611bb18184611b13565b905092915050565b7f4d6f64756c6172204c696d6974204f726465722044656c6574656400000000005f82015250565b5f611bed601b83611964565b9150611bf882611bb9565b602082019050919050565b5f6040820190508181035f830152611c1a81611be1565b90508181036020830152611c2e8184611b13565b905092915050565b7f4d6f64756c6172204c696d6974204f72646572204372656174656400000000005f82015250565b5f611c6a601b83611964565b9150611c7582611c36565b602082019050919050565b5f6040820190508181035f830152611c9781611c5e565b90508181036020830152611cab8184611b13565b905092915050565b7f4d6f64756c61722054574150204f7264657220437265617465640000000000005f82015250565b5f611ce7601a83611964565b9150611cf282611cb3565b602082019050919050565b5f6040820190508181035f830152611d1481611cdb565b90508181036020830152611d288184611b13565b905092915050565b5f611d3a8261140c565b9050919050565b611d4a81611d30565b82525050565b5f602082019050611d635f830184611d41565b92915050565b7f4e487b71000000000000000000000000000000000000000000000000000000005f52603260045260245ffd5b5f82825260208201905092915050565b5f611db082611a47565b611dba8185611d96565b9350611dca818560208601611a01565b611dd381611175565b840191505092915050565b5f6020820190508181035f830152611df68184611da6565b905092915050565b5f611e08826119e7565b611e128185611964565b9350611e22818560208601611a01565b611e2b81611175565b840191505092915050565b5f6020820190508181035f830152611e4e8184611dfe565b905092915050565b611e5f81611347565b82525050565b5f602082019050611e785f830184611e56565b92915050565b611e8781611519565b82525050565b5f602082019050611ea05f830184611e7e565b92915050565b611eaf816114e4565b82525050565b5f602082019050611ec85f830184611ea6565b92915050565b611ed78161149f565b82525050565b5f602082019050611ef05f830184611ece565b92915050565b5f81519050919050565b5f82825260208201905092915050565b5f819050602082019050919050565b611f2881611347565b82525050565b5f611f398383611f1f565b60208301905092915050565b5f602082019050919050565b5f611f5b82611ef6565b611f658185611f00565b9350611f7083611f10565b805f5b83811015611fa0578151611f878882611f2e565b9750611f9283611f45565b925050600181019050611f73565b5085935050505092915050565b5f6020820190508181035f830152611fc58184611f51565b90509291505056fea264697066735822122050ca35b643a366421da64c0d1fb539634f3eb6354b38e47c10650ed35ed033b664736f6c634300081f0033",
			"opcodes": "PUSH1 0xA0 PUSH1 0x40 MSTORE CALLVALUE DUP1 ISZERO PUSH2 0xF JUMPI PUSH0 PUSH0 REVERT JUMPDEST POP PUSH1 0x40 MLOAD PUSH2 0x212B CODESIZE SUB DUP1 PUSH2 0x212B DUP4 CODECOPY DUP2 DUP2 ADD PUSH1 0x40 MSTORE DUP2 ADD SWAP1 PUSH2 0x31 SWAP2 SWAP1 PUSH2 0xC9 JUMP JUMPDEST DUP1 PUSH20 0xFFFFFFFFFFFFFFFFFFFFFFFFFFFFFFFFFFFFFFFF AND PUSH1 0x80 DUP2 PUSH20 0xFFFFFFFFFFFFFFFFFFFFFFFFFFFFFFFFFFFFFFFF AND DUP2 MSTORE POP POP POP PUSH2 0xF4 JUMP JUMPDEST PUSH0 PUSH0 REVERT JUMPDEST PUSH0 PUSH20 0xFFFFFFFFFFFFFFFFFFFFFFFFFFFFFFFFFFFFFFFF DUP3 AND SWAP1 POP SWAP2 SWAP1 POP JUMP JUMPDEST PUSH0 PUSH2 0x98 DUP3 PUSH2 0x6F JUMP JUMPDEST SWAP1 POP SWAP2 SWAP1 POP JUMP JUMPDEST PUSH2 0xA8 DUP2 PUSH2 0x8E JUMP JUMPDEST DUP2 EQ PUSH2 0xB2 JUMPI PUSH0 PUSH0 REVERT JUMPDEST POP JUMP JUMPDEST PUSH0 DUP2 MLOAD SWAP1 POP PUSH2 0xC3 DUP2 PUSH2 0x9F JUMP JUMPDEST SWAP3 SWAP2 POP POP JUMP JUMPDEST PUSH0 PUSH1 0x20 DUP3 DUP5 SUB SLT ISZERO PUSH2 0xDE JUMPI PUSH2 0xDD PUSH2 0x6B JUMP JUMPDEST JUMPDEST PUSH0 PUSH2 0xEB DUP5 DUP3 DUP6 ADD PUSH2 0xB5 JUMP JUMPDEST SWAP2 POP POP SWAP3 SWAP2 POP POP JUMP JUMPDEST PUSH1 0x80 MLOAD PUSH2 0x2003 PUSH2 0x128 PUSH0 CODECOPY PUSH0 DUP2 DUP2 PUSH2 0x247 ADD MSTORE DUP2 DUP2 PUSH2 0x432 ADD MSTORE DUP2 DUP2 PUSH2 0x4BE ADD MSTORE DUP2 DUP2 PUSH2 0x80F ADD MSTORE PUSH2 0xC11 ADD MSTORE PUSH2 0x2003 PUSH0 RETURN INVALID PUSH1 0x80 PUSH1 0x40 MSTORE CALLVALUE DUP1 ISZERO PUSH2 0xF JUMPI PUSH0 PUSH0 REVERT JUMPDEST POP PUSH1 0x4 CALLDATASIZE LT PUSH2 0x54 JUMPI PUSH0 CALLDATALOAD PUSH1 0xE0 SHR DUP1 PUSH3 0x859B5D EQ PUSH2 0x58 JUMPI DUP1 PUSH4 0xB0FD93D7 EQ PUSH2 0x74 JUMPI DUP1 PUSH4 0xB5F8558C EQ PUSH2 0x90 JUMPI DUP1 PUSH4 0xC5BF2798 EQ PUSH2 0xAE JUMPI DUP1 PUSH4 0xCC301111 EQ PUSH2 0xCA JUMPI JUMPDEST PUSH0 PUSH0 REVERT JUMPDEST PUSH2 0x72 PUSH1 0x4 DUP1 CALLDATASIZE SUB DUP2 ADD SWAP1 PUSH2 0x6D SWAP2 SWAP1 PUSH2 0x1384 JUMP JUMPDEST PUSH2 0xE6 JUMP JUMPDEST STOP JUMPDEST PUSH2 0x8E PUSH1 0x4 DUP1 CALLDATASIZE SUB DUP2 ADD SWAP1 PUSH2 0x89 SWAP2 SWAP1 PUSH2 0x1384 JUMP JUMPDEST PUSH2 0x2D1 JUMP JUMPDEST STOP JUMPDEST PUSH2 0x98 PUSH2 0x4BC JUMP JUMPDEST PUSH1 0x40 MLOAD PUSH2 0xA5 SWAP2 SWAP1 PUSH2 0x1486 JUMP JUMPDEST PUSH1 0x40 MLOAD DUP1 SWAP2 SUB SWAP1 RETURN JUMPDEST PUSH2 0xC8 PUSH1 0x4 DUP1 CALLDATASIZE SUB DUP2 ADD SWAP1 PUSH2 0xC3 SWAP2 SWAP1 PUSH2 0x1552 JUMP JUMPDEST PUSH2 0x4E0 JUMP JUMPDEST STOP JUMPDEST PUSH2 0xE4 PUSH1 0x4 DUP1 CALLDATASIZE SUB DUP2 ADD SWAP1 PUSH2 0xDF SWAP2 SWAP1 PUSH2 0x1797 JUMP JUMPDEST PUSH2 0x8A0 JUMP JUMPDEST STOP JUMPDEST PUSH0 PUSH1 0x4 PUSH8 0xFFFFFFFFFFFFFFFF DUP2 GT ISZERO PUSH2 0x102 JUMPI PUSH2 0x101 PUSH2 0x1185 JUMP JUMPDEST JUMPDEST PUSH1 0x40 MLOAD SWAP1 DUP1 DUP3 MSTORE DUP1 PUSH1 0x20 MUL PUSH1 0x20 ADD DUP3 ADD PUSH1 0x40 MSTORE DUP1 ISZERO PUSH2 0x13B JUMPI DUP2 PUSH1 0x20 ADD JUMPDEST PUSH2 0x128 PUSH2 0x113B JUMP JUMPDEST DUP2 MSTORE PUSH1 0x20 ADD SWAP1 PUSH1 0x1 SWAP1 SUB SWAP1 DUP2 PUSH2 0x120 JUMPI SWAP1 POP JUMPDEST POP SWAP1 POP PUSH2 0x17F DUP2 PUSH0 PUSH1 0x40 MLOAD DUP1 PUSH1 0x40 ADD PUSH1 0x40 MSTORE DUP1 PUSH1 0x6 DUP2 MSTORE PUSH1 0x20 ADD PUSH32 0x73656E6465720000000000000000000000000000000000000000000000000000 DUP2 MSTORE POP CALLER PUSH2 0xCA3 JUMP JUMPDEST PUSH2 0x1C1 DUP2 PUSH1 0x1 PUSH1 0x40 MLOAD DUP1 PUSH1 0x40 ADD PUSH1 0x40 MSTORE DUP1 PUSH1 0x4 DUP2 MSTORE PUSH1 0x20 ADD PUSH32 0x7573657200000000000000000000000000000000000000000000000000000000 DUP2 MSTORE POP DUP8 PUSH2 0xD36 JUMP JUMPDEST PUSH2 0x203 DUP2 PUSH1 0x2 PUSH1 0x40 MLOAD DUP1 PUSH1 0x40 ADD PUSH1 0x40 MSTORE DUP1 PUSH1 0x6 DUP2 MSTORE PUSH1 0x20 ADD PUSH32 0x7368617265640000000000000000000000000000000000000000000000000000 DUP2 MSTORE POP DUP7 PUSH2 0xDC9 JUMP JUMPDEST PUSH2 0x245 DUP2 PUSH1 0x3 PUSH1 0x40 MLOAD DUP1 PUSH1 0x40 ADD PUSH1 0x40 MSTORE DUP1 PUSH1 0x2 DUP2 MSTORE PUSH1 0x20 ADD PUSH32 0x6964000000000000000000000000000000000000000000000000000000000000 DUP2 MSTORE POP DUP6 PUSH2 0xE5C JUMP JUMPDEST PUSH32 0x0 PUSH20 0xFFFFFFFFFFFFFFFFFFFFFFFFFFFFFFFFFFFFFFFF AND PUSH4 0x7D64FA9B DUP3 PUSH1 0x40 MLOAD DUP3 PUSH4 0xFFFFFFFF AND PUSH1 0xE0 SHL DUP2 MSTORE PUSH1 0x4 ADD PUSH2 0x29E SWAP2 SWAP1 PUSH2 0x1B86 JUMP JUMPDEST PUSH0 PUSH1 0x40 MLOAD DUP1 DUP4 SUB DUP2 PUSH0 DUP8 DUP1 EXTCODESIZE ISZERO DUP1 ISZERO PUSH2 0x2B5 JUMPI PUSH0 PUSH0 REVERT JUMPDEST POP GAS CALL ISZERO DUP1 ISZERO PUSH2 0x2C7 JUMPI RETURNDATASIZE PUSH0 PUSH0 RETURNDATACOPY RETURNDATASIZE PUSH0 REVERT JUMPDEST POP POP POP POP POP POP POP POP JUMP JUMPDEST PUSH0 PUSH1 0x4 PUSH8 0xFFFFFFFFFFFFFFFF DUP2 GT ISZERO PUSH2 0x2ED JUMPI PUSH2 0x2EC PUSH2 0x1185 JUMP JUMPDEST JUMPDEST PUSH1 0x40 MLOAD SWAP1 DUP1 DUP3 MSTORE DUP1 PUSH1 0x20 MUL PUSH1 0x20 ADD DUP3 ADD PUSH1 0x40 MSTORE DUP1 ISZERO PUSH2 0x326 JUMPI DUP2 PUSH1 0x20 ADD JUMPDEST PUSH2 0x313 PUSH2 0x113B JUMP JUMPDEST DUP2 MSTORE PUSH1 0x20 ADD SWAP1 PUSH1 0x1 SWAP1 SUB SWAP1 DUP2 PUSH2 0x30B JUMPI SWAP1 POP JUMPDEST POP SWAP1 POP PUSH2 0x36A DUP2 PUSH0 PUSH1 0x40 MLOAD DUP1 PUSH1 0x40 ADD PUSH1 0x40 MSTORE DUP1 PUSH1 0x6 DUP2 MSTORE PUSH1 0x20 ADD PUSH32 0x73656E6465720000000000000000000000000000000000000000000000000000 DUP2 MSTORE POP CALLER PUSH2 0xCA3 JUMP JUMPDEST PUSH2 0x3AC DUP2 PUSH1 0x1 PUSH1 0x40 MLOAD DUP1 PUSH1 0x40 ADD PUSH1 0x40 MSTORE DUP1 PUSH1 0x4 DUP2 MSTORE PUSH1 0x20 ADD PUSH32 0x7573657200000000000000000000000000000000000000000000000000000000 DUP2 MSTORE POP DUP8 PUSH2 0xD36 JUMP JUMPDEST PUSH2 0x3EE DUP2 PUSH1 0x2 PUSH1 0x40 MLOAD DUP1 PUSH1 0x40 ADD PUSH1 0x40 MSTORE DUP1 PUSH1 0x6 DUP2 MSTORE PUSH1 0x20 ADD PUSH32 0x7368617265640000000000000000000000000000000000000000000000000000 DUP2 MSTORE POP DUP7 PUSH2 0xDC9 JUMP JUMPDEST PUSH2 0x430 DUP2 PUSH1 0x3 PUSH1 0x40 MLOAD DUP1 PUSH1 0x40 ADD PUSH1 0x40 MSTORE DUP1 PUSH1 0x2 DUP2 MSTORE PUSH1 0x20 ADD PUSH32 0x6964000000000000000000000000000000000000000000000000000000000000 DUP2 MSTORE POP DUP6 PUSH2 0xE5C JUMP JUMPDEST PUSH32 0x0 PUSH20 0xFFFFFFFFFFFFFFFFFFFFFFFFFFFFFFFFFFFFFFFF AND PUSH4 0x7D64FA9B DUP3 PUSH1 0x40 MLOAD DUP3 PUSH4 0xFFFFFFFF AND PUSH1 0xE0 SHL DUP2 MSTORE PUSH1 0x4 ADD PUSH2 0x489 SWAP2 SWAP1 PUSH2 0x1C03 JUMP JUMPDEST PUSH0 PUSH1 0x40 MLOAD DUP1 DUP4 SUB DUP2 PUSH0 DUP8 DUP1 EXTCODESIZE ISZERO DUP1 ISZERO PUSH2 0x4A0 JUMPI PUSH0 PUSH0 REVERT JUMPDEST POP GAS CALL ISZERO DUP1 ISZERO PUSH2 0x4B2 JUMPI RETURNDATASIZE PUSH0 PUSH0 RETURNDATACOPY RETURNDATASIZE PUSH0 REVERT JUMPDEST POP POP POP POP POP POP POP POP JUMP JUMPDEST PUSH32 0x0 DUP2 JUMP JUMPDEST PUSH0 PUSH1 0xB PUSH8 0xFFFFFFFFFFFFFFFF DUP2 GT ISZERO PUSH2 0x4FC JUMPI PUSH2 0x4FB PUSH2 0x1185 JUMP JUMPDEST JUMPDEST PUSH1 0x40 MLOAD SWAP1 DUP1 DUP3 MSTORE DUP1 PUSH1 0x20 MUL PUSH1 0x20 ADD DUP3 ADD PUSH1 0x40 MSTORE DUP1 ISZERO PUSH2 0x535 JUMPI DUP2 PUSH1 0x20 ADD JUMPDEST PUSH2 0x522 PUSH2 0x113B JUMP JUMPDEST DUP2 MSTORE PUSH1 0x20 ADD SWAP1 PUSH1 0x1 SWAP1 SUB SWAP1 DUP2 PUSH2 0x51A JUMPI SWAP1 POP JUMPDEST POP SWAP1 POP PUSH2 0x579 DUP2 PUSH0 PUSH1 0x40 MLOAD DUP1 PUSH1 0x40 ADD PUSH1 0x40 MSTORE DUP1 PUSH1 0x6 DUP2 MSTORE PUSH1 0x20 ADD PUSH32 0x73656E6465720000000000000000000000000000000000000000000000000000 DUP2 MSTORE POP CALLER PUSH2 0xCA3 JUMP JUMPDEST PUSH2 0x5BB DUP2 PUSH1 0x1 PUSH1 0x40 MLOAD DUP1 PUSH1 0x40 ADD PUSH1 0x40 MSTORE DUP1 PUSH1 0x4 DUP2 MSTORE PUSH1 0x20 ADD PUSH32 0x7573657200000000000000000000000000000000000000000000000000000000 DUP2 MSTORE POP DUP15 PUSH2 0xD36 JUMP JUMPDEST PUSH2 0x5FD DUP2 PUSH1 0x2 PUSH1 0x40 MLOAD DUP1 PUSH1 0x40 ADD PUSH1 0x40 MSTORE DUP1 PUSH1 0x6 DUP2 MSTORE PUSH1 0x20 ADD PUSH32 0x7368617265640000000000000000000000000000000000000000000000000000 DUP2 MSTORE POP DUP14 PUSH2 0xDC9 JUMP JUMPDEST PUSH2 0x63F DUP2 PUSH1 0x3 PUSH1 0x40 MLOAD DUP1 PUSH1 0x40 ADD PUSH1 0x40 MSTORE DUP1 PUSH1 0x5 DUP2 MSTORE PUSH1 0x20 ADD PUSH32 0x6173736574000000000000000000000000000000000000000000000000000000 DUP2 MSTORE POP DUP13 PUSH2 0xDC9 JUMP JUMPDEST PUSH2 0x681 DUP2 PUSH1 0x4 PUSH1 0x40 MLOAD DUP1 PUSH1 0x40 ADD PUSH1 0x40 MSTORE DUP1 PUSH1 0x4 DUP2 MSTORE PUSH1 0x20 ADD PUSH32 0x73697A6500000000000000000000000000000000000000000000000000000000 DUP2 MSTORE POP DUP12 PUSH2 0xE5C JUMP JUMPDEST PUSH2 0x6C3 DUP2 PUSH1 0x5 PUSH1 0x40 MLOAD DUP1 PUSH1 0x40 ADD PUSH1 0x40 MSTORE DUP1 PUSH1 0x8 DUP2 MSTORE PUSH1 0x20 ADD PUSH32 0x6C65766572616765000000000000000000000000000000000000000000000000 DUP2 MSTORE POP DUP9 PUSH2 0xEEF JUMP JUMPDEST PUSH2 0x705 DUP2 PUSH1 0x6 PUSH1 0x40 MLOAD DUP1 PUSH1 0x40 ADD PUSH1 0x40 MSTORE DUP1 PUSH1 0x6 DUP2 MSTORE PUSH1 0x20 ADD PUSH32 0x69734C6F6E670000000000000000000000000000000000000000000000000000 DUP2 MSTORE POP DUP10 PUSH2 0xF82 JUMP JUMPDEST PUSH2 0x747 DUP2 PUSH1 0x7 PUSH1 0x40 MLOAD DUP1 PUSH1 0x40 ADD PUSH1 0x40 MSTORE DUP1 PUSH1 0xD DUP2 MSTORE PUSH1 0x20 ADD PUSH32 0x646573697265645F707269636500000000000000000000000000000000000000 DUP2 MSTORE POP DUP11 PUSH2 0x1015 JUMP JUMPDEST PUSH2 0x789 DUP2 PUSH1 0x8 PUSH1 0x40 MLOAD DUP1 PUSH1 0x40 ADD PUSH1 0x40 MSTORE DUP1 PUSH1 0xD DUP2 MSTORE PUSH1 0x20 ADD PUSH32 0x726573657276655F636861696E00000000000000000000000000000000000000 DUP2 MSTORE POP DUP8 PUSH2 0xDC9 JUMP JUMPDEST PUSH2 0x7CB DUP2 PUSH1 0x9 PUSH1 0x40 MLOAD DUP1 PUSH1 0x40 ADD PUSH1 0x40 MSTORE DUP1 PUSH1 0x10 DUP2 MSTORE PUSH1 0x20 ADD PUSH32 0x726573657276655F70726F766964657200000000000000000000000000000000 DUP2 MSTORE POP DUP7 PUSH2 0xDC9 JUMP JUMPDEST PUSH2 0x80D DUP2 PUSH1 0xA PUSH1 0x40 MLOAD DUP1 PUSH1 0x40 ADD PUSH1 0x40 MSTORE DUP1 PUSH1 0xD DUP2 MSTORE PUSH1 0x20 ADD PUSH32 0x726573657276655F746F6B656E00000000000000000000000000000000000000 DUP2 MSTORE POP DUP6 PUSH2 0xDC9 JUMP JUMPDEST PUSH32 0x0 PUSH20 0xFFFFFFFFFFFFFFFFFFFFFFFFFFFFFFFFFFFFFFFF AND PUSH4 0x7D64FA9B DUP3 PUSH1 0x40 MLOAD DUP3 PUSH4 0xFFFFFFFF AND PUSH1 0xE0 SHL DUP2 MSTORE PUSH1 0x4 ADD PUSH2 0x866 SWAP2 SWAP1 PUSH2 0x1C80 JUMP JUMPDEST PUSH0 PUSH1 0x40 MLOAD DUP1 DUP4 SUB DUP2 PUSH0 DUP8 DUP1 EXTCODESIZE ISZERO DUP1 ISZERO PUSH2 0x87D JUMPI PUSH0 PUSH0 REVERT JUMPDEST POP GAS CALL ISZERO DUP1 ISZERO PUSH2 0x88F JUMPI RETURNDATASIZE PUSH0 PUSH0 RETURNDATACOPY RETURNDATASIZE PUSH0 REVERT JUMPDEST POP POP POP POP POP POP POP POP POP POP POP POP POP POP POP JUMP JUMPDEST PUSH0 PUSH1 0xC PUSH8 0xFFFFFFFFFFFFFFFF DUP2 GT ISZERO PUSH2 0x8BC JUMPI PUSH2 0x8BB PUSH2 0x1185 JUMP JUMPDEST JUMPDEST PUSH1 0x40 MLOAD SWAP1 DUP1 DUP3 MSTORE DUP1 PUSH1 0x20 MUL PUSH1 0x20 ADD DUP3 ADD PUSH1 0x40 MSTORE DUP1 ISZERO PUSH2 0x8F5 JUMPI DUP2 PUSH1 0x20 ADD JUMPDEST PUSH2 0x8E2 PUSH2 0x113B JUMP JUMPDEST DUP2 MSTORE PUSH1 0x20 ADD SWAP1 PUSH1 0x1 SWAP1 SUB SWAP1 DUP2 PUSH2 0x8DA JUMPI SWAP1 POP JUMPDEST POP SWAP1 POP PUSH2 0x939 DUP2 PUSH0 PUSH1 0x40 MLOAD DUP1 PUSH1 0x40 ADD PUSH1 0x40 MSTORE DUP1 PUSH1 0x6 DUP2 MSTORE PUSH1 0x20 ADD PUSH32 0x73656E6465720000000000000000000000000000000000000000000000000000 DUP2 MSTORE POP CALLER PUSH2 0xCA3 JUMP JUMPDEST PUSH2 0x97B DUP2 PUSH1 0x1 PUSH1 0x40 MLOAD DUP1 PUSH1 0x40 ADD PUSH1 0x40 MSTORE DUP1 PUSH1 0x4 DUP2 MSTORE PUSH1 0x20 ADD PUSH32 0x7573657200000000000000000000000000000000000000000000000000000000 DUP2 MSTORE POP DUP16 PUSH2 0xD36 JUMP JUMPDEST PUSH2 0x9BD DUP2 PUSH1 0x2 PUSH1 0x40 MLOAD DUP1 PUSH1 0x40 ADD PUSH1 0x40 MSTORE DUP1 PUSH1 0x6 DUP2 MSTORE PUSH1 0x20 ADD PUSH32 0x7368617265640000000000000000000000000000000000000000000000000000 DUP2 MSTORE POP DUP15 PUSH2 0xDC9 JUMP JUMPDEST PUSH2 0x9FF DUP2 PUSH1 0x3 PUSH1 0x40 MLOAD DUP1 PUSH1 0x40 ADD PUSH1 0x40 MSTORE DUP1 PUSH1 0x5 DUP2 MSTORE PUSH1 0x20 ADD PUSH32 0x6173736574000000000000000000000000000000000000000000000000000000 DUP2 MSTORE POP DUP14 PUSH2 0xDC9 JUMP JUMPDEST PUSH2 0xA41 DUP2 PUSH1 0x4 PUSH1 0x40 MLOAD DUP1 PUSH1 0x40 ADD PUSH1 0x40 MSTORE DUP1 PUSH1 0x7 DUP2 MSTORE PUSH1 0x20 ADD PUSH32 0x706572696F647300000000000000000000000000000000000000000000000000 DUP2 MSTORE POP DUP13 PUSH2 0x10A8 JUMP JUMPDEST PUSH2 0xA83 DUP2 PUSH1 0x5 PUSH1 0x40 MLOAD DUP1 PUSH1 0x40 ADD PUSH1 0x40 MSTORE DUP1 PUSH1 0x5 DUP2 MSTORE PUSH1 0x20 ADD PUSH32 0x73697A6573000000000000000000000000000000000000000000000000000000 DUP2 MSTORE POP DUP12 PUSH2 0x10A8 JUMP JUMPDEST PUSH2 0xAC5 DUP2 PUSH1 0x6 PUSH1 0x40 MLOAD DUP1 PUSH1 0x40 ADD PUSH1 0x40 MSTORE DUP1 PUSH1 0xD DUP2 MSTORE PUSH1 0x20 ADD PUSH32 0x646573697265645F707269636500000000000000000000000000000000000000 DUP2 MSTORE POP DUP11 PUSH2 0x1015 JUMP JUMPDEST PUSH2 0xB07 DUP2 PUSH1 0x7 PUSH1 0x40 MLOAD DUP1 PUSH1 0x40 ADD PUSH1 0x40 MSTORE DUP1 PUSH1 0x6 DUP2 MSTORE PUSH1 0x20 ADD PUSH32 0x69734C6F6E670000000000000000000000000000000000000000000000000000 DUP2 MSTORE POP DUP10 PUSH2 0xF82 JUMP JUMPDEST PUSH2 0xB49 DUP2 PUSH1 0x8 PUSH1 0x40 MLOAD DUP1 PUSH1 0x40 ADD PUSH1 0x40 MSTORE DUP1 PUSH1 0x8 DUP2 MSTORE PUSH1 0x20 ADD PUSH32 0x6C65766572616765000000000000000000000000000000000000000000000000 DUP2 MSTORE POP DUP9 PUSH2 0xEEF JUMP JUMPDEST PUSH2 0xB8B DUP2 PUSH1 0x9 PUSH1 0x40 MLOAD DUP1 PUSH1 0x40 ADD PUSH1 0x40 MSTORE DUP1 PUSH1 0xD DUP2 MSTORE PUSH1 0x20 ADD PUSH32 0x726573657276655F636861696E00000000000000000000000000000000000000 DUP2 MSTORE POP DUP8 PUSH2 0xDC9 JUMP JUMPDEST PUSH2 0xBCD DUP2 PUSH1 0xA PUSH1 0x40 MLOAD DUP1 PUSH1 0x40 ADD PUSH1 0x40 MSTORE DUP1 PUSH1 0x10 DUP2 MSTORE PUSH1 0x20 ADD PUSH32 0x726573657276655F70726F766964657200000000000000000000000000000000 DUP2 MSTORE POP DUP7 PUSH2 0xDC9 JUMP JUMPDEST PUSH2 0xC0F DUP2 PUSH1 0xB PUSH1 0x40 MLOAD DUP1 PUSH1 0x40 ADD PUSH1 0x40 MSTORE DUP1 PUSH1 0xD DUP2 MSTORE PUSH1 0x20 ADD PUSH32 0x726573657276655F746F6B656E00000000000000000000000000000000000000 DUP2 MSTORE POP DUP6 PUSH2 0xDC9 JUMP JUMPDEST PUSH32 0x0 PUSH20 0xFFFFFFFFFFFFFFFFFFFFFFFFFFFFFFFFFFFFFFFF AND PUSH4 0x7D64FA9B DUP3 PUSH1 0x40 MLOAD DUP3 PUSH4 0xFFFFFFFF AND PUSH1 0xE0 SHL DUP2 MSTORE PUSH1 0x4 ADD PUSH2 0xC68 SWAP2 SWAP1 PUSH2 0x1CFD JUMP JUMPDEST PUSH0 PUSH1 0x40 MLOAD DUP1 DUP4 SUB DUP2 PUSH0 DUP8 DUP1 EXTCODESIZE ISZERO DUP1 ISZERO PUSH2 0xC7F JUMPI PUSH0 PUSH0 REVERT JUMPDEST POP GAS CALL ISZERO DUP1 ISZERO PUSH2 0xC91 JUMPI RETURNDATASIZE PUSH0 PUSH0 RETURNDATACOPY RETURNDATASIZE PUSH0 REVERT JUMPDEST POP POP POP POP POP POP POP POP POP POP POP POP POP POP POP POP JUMP JUMPDEST PUSH1 0x40 MLOAD DUP1 PUSH1 0x60 ADD PUSH1 0x40 MSTORE DUP1 DUP4 DUP2 MSTORE PUSH1 0x20 ADD PUSH1 0x40 MLOAD DUP1 PUSH1 0x40 ADD PUSH1 0x40 MSTORE DUP1 PUSH1 0x7 DUP2 MSTORE PUSH1 0x20 ADD PUSH32 0x6164647265737300000000000000000000000000000000000000000000000000 DUP2 MSTORE POP DUP2 MSTORE PUSH1 0x20 ADD DUP3 PUSH1 0x40 MLOAD PUSH1 0x20 ADD PUSH2 0xD00 SWAP2 SWAP1 PUSH2 0x1D50 JUMP JUMPDEST PUSH1 0x40 MLOAD PUSH1 0x20 DUP2 DUP4 SUB SUB DUP2 MSTORE SWAP1 PUSH1 0x40 MSTORE DUP2 MSTORE POP DUP5 DUP5 DUP2 MLOAD DUP2 LT PUSH2 0xD25 JUMPI PUSH2 0xD24 PUSH2 0x1D69 JUMP JUMPDEST JUMPDEST PUSH1 0x20 MUL PUSH1 0x20 ADD ADD DUP2 SWAP1 MSTORE POP POP POP POP POP JUMP JUMPDEST PUSH1 0x40 MLOAD DUP1 PUSH1 0x60 ADD PUSH1 0x40 MSTORE DUP1 DUP4 DUP2 MSTORE PUSH1 0x20 ADD PUSH1 0x40 MLOAD DUP1 PUSH1 0x40 ADD PUSH1 0x40 MSTORE DUP1 PUSH1 0x5 DUP2 MSTORE PUSH1 0x20 ADD PUSH32 0x6279746573000000000000000000000000000000000000000000000000000000 DUP2 MSTORE POP DUP2 MSTORE PUSH1 0x20 ADD DUP3 PUSH1 0x40 MLOAD PUSH1 0x20 ADD PUSH2 0xD93 SWAP2 SWAP1 PUSH2 0x1DDE JUMP JUMPDEST PUSH1 0x40 MLOAD PUSH1 0x20 DUP2 DUP4 SUB SUB DUP2 MSTORE SWAP1 PUSH1 0x40 MSTORE DUP2 MSTORE POP DUP5 DUP5 DUP2 MLOAD DUP2 LT PUSH2 0xDB8 JUMPI PUSH2 0xDB7 PUSH2 0x1D69 JUMP JUMPDEST JUMPDEST PUSH1 0x20 MUL PUSH1 0x20 ADD ADD DUP2 SWAP1 MSTORE POP POP POP POP POP JUMP JUMPDEST PUSH1 0x40 MLOAD DUP1 PUSH1 0x60 ADD PUSH1 0x40 MSTORE DUP1 DUP4 DUP2 MSTORE PUSH1 0x20 ADD PUSH1 0x40 MLOAD DUP1 PUSH1 0x40 ADD PUSH1 0x40 MSTORE DUP1 PUSH1 0x6 DUP2 MSTORE PUSH1 0x20 ADD PUSH32 0x737472696E670000000000000000000000000000000000000000000000000000 DUP2 MSTORE POP DUP2 MSTORE PUSH1 0x20 ADD DUP3 PUSH1 0x40 MLOAD PUSH1 0x20 ADD PUSH2 0xE26 SWAP2 SWAP1 PUSH2 0x1E36 JUMP JUMPDEST PUSH1 0x40 MLOAD PUSH1 0x20 DUP2 DUP4 SUB SUB DUP2 MSTORE SWAP1 PUSH1 0x40 MSTORE DUP2 MSTORE POP DUP5 DUP5 DUP2 MLOAD DUP2 LT PUSH2 0xE4B JUMPI PUSH2 0xE4A PUSH2 0x1D69 JUMP JUMPDEST JUMPDEST PUSH1 0x20 MUL PUSH1 0x20 ADD ADD DUP2 SWAP1 MSTORE POP POP POP POP POP JUMP JUMPDEST PUSH1 0x40 MLOAD DUP1 PUSH1 0x60 ADD PUSH1 0x40 MSTORE DUP1 DUP4 DUP2 MSTORE PUSH1 0x20 ADD PUSH1 0x40 MLOAD DUP1 PUSH1 0x40 ADD PUSH1 0x40 MSTORE DUP1 PUSH1 0x6 DUP2 MSTORE PUSH1 0x20 ADD PUSH32 0x75696E7436340000000000000000000000000000000000000000000000000000 DUP2 MSTORE POP DUP2 MSTORE PUSH1 0x20 ADD DUP3 PUSH1 0x40 MLOAD PUSH1 0x20 ADD PUSH2 0xEB9 SWAP2 SWAP1 PUSH2 0x1E65 JUMP JUMPDEST PUSH1 0x40 MLOAD PUSH1 0x20 DUP2 DUP4 SUB SUB DUP2 MSTORE SWAP1 PUSH1 0x40 MSTORE DUP2 MSTORE POP DUP5 DUP5 DUP2 MLOAD DUP2 LT PUSH2 0xEDE JUMPI PUSH2 0xEDD PUSH2 0x1D69 JUMP JUMPDEST JUMPDEST PUSH1 0x20 MUL PUSH1 0x20 ADD ADD DUP2 SWAP1 MSTORE POP POP POP POP POP JUMP JUMPDEST PUSH1 0x40 MLOAD DUP1 PUSH1 0x60 ADD PUSH1 0x40 MSTORE DUP1 DUP4 DUP2 MSTORE PUSH1 0x20 ADD PUSH1 0x40 MLOAD DUP1 PUSH1 0x40 ADD PUSH1 0x40 MSTORE DUP1 PUSH1 0x6 DUP2 MSTORE PUSH1 0x20 ADD PUSH32 0x75696E7433320000000000000000000000000000000000000000000000000000 DUP2 MSTORE POP DUP2 MSTORE PUSH1 0x20 ADD DUP3 PUSH1 0x40 MLOAD PUSH1 0x20 ADD PUSH2 0xF4C SWAP2 SWAP1 PUSH2 0x1E8D JUMP JUMPDEST PUSH1 0x40 MLOAD PUSH1 0x20 DUP2 DUP4 SUB SUB DUP2 MSTORE SWAP1 PUSH1 0x40 MSTORE DUP2 MSTORE POP DUP5 DUP5 DUP2 MLOAD DUP2 LT PUSH2 0xF71 JUMPI PUSH2 0xF70 PUSH2 0x1D69 JUMP JUMPDEST JUMPDEST PUSH1 0x20 MUL PUSH1 0x20 ADD ADD DUP2 SWAP1 MSTORE POP POP POP POP POP JUMP JUMPDEST PUSH1 0x40 MLOAD DUP1 PUSH1 0x60 ADD PUSH1 0x40 MSTORE DUP1 DUP4 DUP2 MSTORE PUSH1 0x20 ADD PUSH1 0x40 MLOAD DUP1 PUSH1 0x40 ADD PUSH1 0x40 MSTORE DUP1 PUSH1 0x4 DUP2 MSTORE PUSH1 0x20 ADD PUSH32 0x626F6F6C00000000000000000000000000000000000000000000000000000000 DUP2 MSTORE POP DUP2 MSTORE PUSH1 0x20 ADD DUP3 PUSH1 0x40 MLOAD PUSH1 0x20 ADD PUSH2 0xFDF SWAP2 SWAP1 PUSH2 0x1EB5 JUMP JUMPDEST PUSH1 0x40 MLOAD PUSH1 0x20 DUP2 DUP4 SUB SUB DUP2 MSTORE SWAP1 PUSH1 0x40 MSTORE DUP2 MSTORE POP DUP5 DUP5 DUP2 MLOAD DUP2 LT PUSH2 0x1004 JUMPI PUSH2 0x1003 PUSH2 0x1D69 JUMP JUMPDEST JUMPDEST PUSH1 0x20 MUL PUSH1 0x20 ADD ADD DUP2 SWAP1 MSTORE POP POP POP POP POP JUMP JUMPDEST PUSH1 0x40 MLOAD DUP1 PUSH1 0x60 ADD PUSH1 0x40 MSTORE DUP1 DUP4 DUP2 MSTORE PUSH1 0x20 ADD PUSH1 0x40 MLOAD DUP1 PUSH1 0x40 ADD PUSH1 0x40 MSTORE DUP1 PUSH1 0x7 DUP2 MSTORE PUSH1 0x20 ADD PUSH32 0x75696E7431323800000000000000000000000000000000000000000000000000 DUP2 MSTORE POP DUP2 MSTORE PUSH1 0x20 ADD DUP3 PUSH1 0x40 MLOAD PUSH1 0x20 ADD PUSH2 0x1072 SWAP2 SWAP1 PUSH2 0x1EDD JUMP JUMPDEST PUSH1 0x40 MLOAD PUSH1 0x20 DUP2 DUP4 SUB SUB DUP2 MSTORE SWAP1 PUSH1 0x40 MSTORE DUP2 MSTORE POP DUP5 DUP5 DUP2 MLOAD DUP2 LT PUSH2 0x1097 JUMPI PUSH2 0x1096 PUSH2 0x1D69 JUMP JUMPDEST JUMPDEST PUSH1 0x20 MUL PUSH1 0x20 ADD ADD DUP2 SWAP1 MSTORE POP POP POP POP POP JUMP JUMPDEST PUSH1 0x40 MLOAD DUP1 PUSH1 0x60 ADD PUSH1 0x40 MSTORE DUP1 DUP4 DUP2 MSTORE PUSH1 0x20 ADD PUSH1 0x40 MLOAD DUP1 PUSH1 0x40 ADD PUSH1 0x40 MSTORE DUP1 PUSH1 0x8 DUP2 MSTORE PUSH1 0x20 ADD PUSH32 0x75696E7436345B5D000000000000000000000000000000000000000000000000 DUP2 MSTORE POP DUP2 MSTORE PUSH1 0x20 ADD DUP3 PUSH1 0x40 MLOAD PUSH1 0x20 ADD PUSH2 0x1105 SWAP2 SWAP1 PUSH2 0x1FAD JUMP JUMPDEST PUSH1 0x40 MLOAD PUSH1 0x20 DUP2 DUP4 SUB SUB DUP2 MSTORE SWAP1 PUSH1 0x40 MSTORE DUP2 MSTORE POP DUP5 DUP5 DUP2 MLOAD DUP2 LT PUSH2 0x112A JUMPI PUSH2 0x1129 PUSH2 0x1D69 JUMP JUMPDEST JUMPDEST PUSH1 0x20 MUL PUSH1 0x20 ADD ADD DUP2 SWAP1 MSTORE POP POP POP POP POP JUMP JUMPDEST PUSH1 0x40 MLOAD DUP1 PUSH1 0x60 ADD PUSH1 0x40 MSTORE DUP1 PUSH1 0x60 DUP2 MSTORE PUSH1 0x20 ADD PUSH1 0x60 DUP2 MSTORE PUSH1 0x20 ADD PUSH1 0x60 DUP2 MSTORE POP SWAP1 JUMP JUMPDEST PUSH0 PUSH1 0x40 MLOAD SWAP1 POP SWAP1 JUMP JUMPDEST PUSH0 PUSH0 REVERT JUMPDEST PUSH0 PUSH0 REVERT JUMPDEST PUSH0 PUSH0 REVERT JUMPDEST PUSH0 PUSH0 REVERT JUMPDEST PUSH0 PUSH1 0x1F NOT PUSH1 0x1F DUP4 ADD AND SWAP1 POP SWAP2 SWAP1 POP JUMP JUMPDEST PUSH32 0x4E487B7100000000000000000000000000000000000000000000000000000000 PUSH0 MSTORE PUSH1 0x41 PUSH1 0x4 MSTORE PUSH1 0x24 PUSH0 REVERT JUMPDEST PUSH2 0x11BB DUP3 PUSH2 0x1175 JUMP JUMPDEST DUP2 ADD DUP2 DUP2 LT PUSH8 0xFFFFFFFFFFFFFFFF DUP3 GT OR ISZERO PUSH2 0x11DA JUMPI PUSH2 0x11D9 PUSH2 0x1185 JUMP JUMPDEST JUMPDEST DUP1 PUSH1 0x40 MSTORE POP POP POP JUMP JUMPDEST PUSH0 PUSH2 0x11EC PUSH2 0x115C JUMP JUMPDEST SWAP1 POP PUSH2 0x11F8 DUP3 DUP3 PUSH2 0x11B2 JUMP JUMPDEST SWAP2 SWAP1 POP JUMP JUMPDEST PUSH0 PUSH8 0xFFFFFFFFFFFFFFFF DUP3 GT ISZERO PUSH2 0x1217 JUMPI PUSH2 0x1216 PUSH2 0x1185 JUMP JUMPDEST JUMPDEST PUSH2 0x1220 DUP3 PUSH2 0x1175 JUMP JUMPDEST SWAP1 POP PUSH1 0x20 DUP2 ADD SWAP1 POP SWAP2 SWAP1 POP JUMP JUMPDEST DUP3 DUP2 DUP4 CALLDATACOPY PUSH0 DUP4 DUP4 ADD MSTORE POP POP POP JUMP JUMPDEST PUSH0 PUSH2 0x124D PUSH2 0x1248 DUP5 PUSH2 0x11FD JUMP JUMPDEST PUSH2 0x11E3 JUMP JUMPDEST SWAP1 POP DUP3 DUP2 MSTORE PUSH1 0x20 DUP2 ADD DUP5 DUP5 DUP5 ADD GT ISZERO PUSH2 0x1269 JUMPI PUSH2 0x1268 PUSH2 0x1171 JUMP JUMPDEST JUMPDEST PUSH2 0x1274 DUP5 DUP3 DUP6 PUSH2 0x122D JUMP JUMPDEST POP SWAP4 SWAP3 POP POP POP JUMP JUMPDEST PUSH0 DUP3 PUSH1 0x1F DUP4 ADD SLT PUSH2 0x1290 JUMPI PUSH2 0x128F PUSH2 0x116D JUMP JUMPDEST JUMPDEST DUP2 CALLDATALOAD PUSH2 0x12A0 DUP5 DUP3 PUSH1 0x20 DUP7 ADD PUSH2 0x123B JUMP JUMPDEST SWAP2 POP POP SWAP3 SWAP2 POP POP JUMP JUMPDEST PUSH0 PUSH8 0xFFFFFFFFFFFFFFFF DUP3 GT ISZERO PUSH2 0x12C3 JUMPI PUSH2 0x12C2 PUSH2 0x1185 JUMP JUMPDEST JUMPDEST PUSH2 0x12CC DUP3 PUSH2 0x1175 JUMP JUMPDEST SWAP1 POP PUSH1 0x20 DUP2 ADD SWAP1 POP SWAP2 SWAP1 POP JUMP JUMPDEST PUSH0 PUSH2 0x12EB PUSH2 0x12E6 DUP5 PUSH2 0x12A9 JUMP JUMPDEST PUSH2 0x11E3 JUMP JUMPDEST SWAP1 POP DUP3 DUP2 MSTORE PUSH1 0x20 DUP2 ADD DUP5 DUP5 DUP5 ADD GT ISZERO PUSH2 0x1307 JUMPI PUSH2 0x1306 PUSH2 0x1171 JUMP JUMPDEST JUMPDEST PUSH2 0x1312 DUP5 DUP3 DUP6 PUSH2 0x122D JUMP JUMPDEST POP SWAP4 SWAP3 POP POP POP JUMP JUMPDEST PUSH0 DUP3 PUSH1 0x1F DUP4 ADD SLT PUSH2 0x132E JUMPI PUSH2 0x132D PUSH2 0x116D JUMP JUMPDEST JUMPDEST DUP2 CALLDATALOAD PUSH2 0x133E DUP5 DUP3 PUSH1 0x20 DUP7 ADD PUSH2 0x12D9 JUMP JUMPDEST SWAP2 POP POP SWAP3 SWAP2 POP POP JUMP JUMPDEST PUSH0 PUSH8 0xFFFFFFFFFFFFFFFF DUP3 AND SWAP1 POP SWAP2 SWAP1 POP JUMP JUMPDEST PUSH2 0x1363 DUP2 PUSH2 0x1347 JUMP JUMPDEST DUP2 EQ PUSH2 0x136D JUMPI PUSH0 PUSH0 REVERT JUMPDEST POP JUMP JUMPDEST PUSH0 DUP2 CALLDATALOAD SWAP1 POP PUSH2 0x137E DUP2 PUSH2 0x135A JUMP JUMPDEST SWAP3 SWAP2 POP POP JUMP JUMPDEST PUSH0 PUSH0 PUSH0 PUSH1 0x60 DUP5 DUP7 SUB SLT ISZERO PUSH2 0x139B JUMPI PUSH2 0x139A PUSH2 0x1165 JUMP JUMPDEST JUMPDEST PUSH0 DUP5 ADD CALLDATALOAD PUSH8 0xFFFFFFFFFFFFFFFF DUP2 GT ISZERO PUSH2 0x13B8 JUMPI PUSH2 0x13B7 PUSH2 0x1169 JUMP JUMPDEST JUMPDEST PUSH2 0x13C4 DUP7 DUP3 DUP8 ADD PUSH2 0x127C JUMP JUMPDEST SWAP4 POP POP PUSH1 0x20 DUP5 ADD CALLDATALOAD PUSH8 0xFFFFFFFFFFFFFFFF DUP2 GT ISZERO PUSH2 0x13E5 JUMPI PUSH2 0x13E4 PUSH2 0x1169 JUMP JUMPDEST JUMPDEST PUSH2 0x13F1 DUP7 DUP3 DUP8 ADD PUSH2 0x131A JUMP JUMPDEST SWAP3 POP POP PUSH1 0x40 PUSH2 0x1402 DUP7 DUP3 DUP8 ADD PUSH2 0x1370 JUMP JUMPDEST SWAP2 POP POP SWAP3 POP SWAP3 POP SWAP3 JUMP JUMPDEST PUSH0 PUSH20 0xFFFFFFFFFFFFFFFFFFFFFFFFFFFFFFFFFFFFFFFF DUP3 AND SWAP1 POP SWAP2 SWAP1 POP JUMP JUMPDEST PUSH0 DUP2 SWAP1 POP SWAP2 SWAP1 POP JUMP JUMPDEST PUSH0 PUSH2 0x144E PUSH2 0x1449 PUSH2 0x1444 DUP5 PUSH2 0x140C JUMP JUMPDEST PUSH2 0x142B JUMP JUMPDEST PUSH2 0x140C JUMP JUMPDEST SWAP1 POP SWAP2 SWAP1 POP JUMP JUMPDEST PUSH0 PUSH2 0x145F DUP3 PUSH2 0x1434 JUMP JUMPDEST SWAP1 POP SWAP2 SWAP1 POP JUMP JUMPDEST PUSH0 PUSH2 0x1470 DUP3 PUSH2 0x1455 JUMP JUMPDEST SWAP1 POP SWAP2 SWAP1 POP JUMP JUMPDEST PUSH2 0x1480 DUP2 PUSH2 0x1466 JUMP JUMPDEST DUP3 MSTORE POP POP JUMP JUMPDEST PUSH0 PUSH1 0x20 DUP3 ADD SWAP1 POP PUSH2 0x1499 PUSH0 DUP4 ADD DUP5 PUSH2 0x1477 JUMP JUMPDEST SWAP3 SWAP2 POP POP JUMP JUMPDEST PUSH0 PUSH16 0xFFFFFFFFFFFFFFFFFFFFFFFFFFFFFFFF DUP3 AND SWAP1 POP SWAP2 SWAP1 POP JUMP JUMPDEST PUSH2 0x14C3 DUP2 PUSH2 0x149F JUMP JUMPDEST DUP2 EQ PUSH2 0x14CD JUMPI PUSH0 PUSH0 REVERT JUMPDEST POP JUMP JUMPDEST PUSH0 DUP2 CALLDATALOAD SWAP1 POP PUSH2 0x14DE DUP2 PUSH2 0x14BA JUMP JUMPDEST SWAP3 SWAP2 POP POP JUMP JUMPDEST PUSH0 DUP2 ISZERO ISZERO SWAP1 POP SWAP2 SWAP1 POP JUMP JUMPDEST PUSH2 0x14F8 DUP2 PUSH2 0x14E4 JUMP JUMPDEST DUP2 EQ PUSH2 0x1502 JUMPI PUSH0 PUSH0 REVERT JUMPDEST POP JUMP JUMPDEST PUSH0 DUP2 CALLDATALOAD SWAP1 POP PUSH2 0x1513 DUP2 PUSH2 0x14EF JUMP JUMPDEST SWAP3 SWAP2 POP POP JUMP JUMPDEST PUSH0 PUSH4 0xFFFFFFFF DUP3 AND SWAP1 POP SWAP2 SWAP1 POP JUMP JUMPDEST PUSH2 0x1531 DUP2 PUSH2 0x1519 JUMP JUMPDEST DUP2 EQ PUSH2 0x153B JUMPI PUSH0 PUSH0 REVERT JUMPDEST POP JUMP JUMPDEST PUSH0 DUP2 CALLDATALOAD SWAP1 POP PUSH2 0x154C DUP2 PUSH2 0x1528 JUMP JUMPDEST SWAP3 SWAP2 POP POP JUMP JUMPDEST PUSH0 PUSH0 PUSH0 PUSH0 PUSH0 PUSH0 PUSH0 PUSH0 PUSH0 PUSH0 PUSH2 0x140 DUP12 DUP14 SUB SLT ISZERO PUSH2 0x1571 JUMPI PUSH2 0x1570 PUSH2 0x1165 JUMP JUMPDEST JUMPDEST PUSH0 DUP12 ADD CALLDATALOAD PUSH8 0xFFFFFFFFFFFFFFFF DUP2 GT ISZERO PUSH2 0x158E JUMPI PUSH2 0x158D PUSH2 0x1169 JUMP JUMPDEST JUMPDEST PUSH2 0x159A DUP14 DUP3 DUP15 ADD PUSH2 0x127C JUMP JUMPDEST SWAP11 POP POP PUSH1 0x20 DUP12 ADD CALLDATALOAD PUSH8 0xFFFFFFFFFFFFFFFF DUP2 GT ISZERO PUSH2 0x15BB JUMPI PUSH2 0x15BA PUSH2 0x1169 JUMP JUMPDEST JUMPDEST PUSH2 0x15C7 DUP14 DUP3 DUP15 ADD PUSH2 0x131A JUMP JUMPDEST SWAP10 POP POP PUSH1 0x40 DUP12 ADD CALLDATALOAD PUSH8 0xFFFFFFFFFFFFFFFF DUP2 GT ISZERO PUSH2 0x15E8 JUMPI PUSH2 0x15E7 PUSH2 0x1169 JUMP JUMPDEST JUMPDEST PUSH2 0x15F4 DUP14 DUP3 DUP15 ADD PUSH2 0x131A JUMP JUMPDEST SWAP9 POP POP PUSH1 0x60 PUSH2 0x1605 DUP14 DUP3 DUP15 ADD PUSH2 0x1370 JUMP JUMPDEST SWAP8 POP POP PUSH1 0x80 PUSH2 0x1616 DUP14 DUP3 DUP15 ADD PUSH2 0x14D0 JUMP JUMPDEST SWAP7 POP POP PUSH1 0xA0 PUSH2 0x1627 DUP14 DUP3 DUP15 ADD PUSH2 0x1505 JUMP JUMPDEST SWAP6 POP POP PUSH1 0xC0 PUSH2 0x1638 DUP14 DUP3 DUP15 ADD PUSH2 0x153E JUMP JUMPDEST SWAP5 POP POP PUSH1 0xE0 DUP12 ADD CALLDATALOAD PUSH8 0xFFFFFFFFFFFFFFFF DUP2 GT ISZERO PUSH2 0x1659 JUMPI PUSH2 0x1658 PUSH2 0x1169 JUMP JUMPDEST JUMPDEST PUSH2 0x1665 DUP14 DUP3 DUP15 ADD PUSH2 0x131A JUMP JUMPDEST SWAP4 POP POP PUSH2 0x100 DUP12 ADD CALLDATALOAD PUSH8 0xFFFFFFFFFFFFFFFF DUP2 GT ISZERO PUSH2 0x1687 JUMPI PUSH2 0x1686 PUSH2 0x1169 JUMP JUMPDEST JUMPDEST PUSH2 0x1693 DUP14 DUP3 DUP15 ADD PUSH2 0x131A JUMP JUMPDEST SWAP3 POP POP PUSH2 0x120 DUP12 ADD CALLDATALOAD PUSH8 0xFFFFFFFFFFFFFFFF DUP2 GT ISZERO PUSH2 0x16B5 JUMPI PUSH2 0x16B4 PUSH2 0x1169 JUMP JUMPDEST JUMPDEST PUSH2 0x16C1 DUP14 DUP3 DUP15 ADD PUSH2 0x131A JUMP JUMPDEST SWAP2 POP POP SWAP3 SWAP6 SWAP9 SWAP12 SWAP2 SWAP5 SWAP8 SWAP11 POP SWAP3 SWAP6 SWAP9 POP JUMP JUMPDEST PUSH0 PUSH8 0xFFFFFFFFFFFFFFFF DUP3 GT ISZERO PUSH2 0x16ED JUMPI PUSH2 0x16EC PUSH2 0x1185 JUMP JUMPDEST JUMPDEST PUSH1 0x20 DUP3 MUL SWAP1 POP PUSH1 0x20 DUP2 ADD SWAP1 POP SWAP2 SWAP1 POP JUMP JUMPDEST PUSH0 PUSH0 REVERT JUMPDEST PUSH0 PUSH2 0x1714 PUSH2 0x170F DUP5 PUSH2 0x16D3 JUMP JUMPDEST PUSH2 0x11E3 JUMP JUMPDEST SWAP1 POP DUP1 DUP4 DUP3 MSTORE PUSH1 0x20 DUP3 ADD SWAP1 POP PUSH1 0x20 DUP5 MUL DUP4 ADD DUP6 DUP2 GT ISZERO PUSH2 0x1737 JUMPI PUSH2 0x1736 PUSH2 0x16FE JUMP JUMPDEST JUMPDEST DUP4 JUMPDEST DUP2 DUP2 LT ISZERO PUSH2 0x1760 JUMPI DUP1 PUSH2 0x174C DUP9 DUP3 PUSH2 0x1370 JUMP JUMPDEST DUP5 MSTORE PUSH1 0x20 DUP5 ADD SWAP4 POP POP PUSH1 0x20 DUP2 ADD SWAP1 POP PUSH2 0x1739 JUMP JUMPDEST POP POP POP SWAP4 SWAP3 POP POP POP JUMP JUMPDEST PUSH0 DUP3 PUSH1 0x1F DUP4 ADD SLT PUSH2 0x177E JUMPI PUSH2 0x177D PUSH2 0x116D JUMP JUMPDEST JUMPDEST DUP2 CALLDATALOAD PUSH2 0x178E DUP5 DUP3 PUSH1 0x20 DUP7 ADD PUSH2 0x1702 JUMP JUMPDEST SWAP2 POP POP SWAP3 SWAP2 POP POP JUMP JUMPDEST PUSH0 PUSH0 PUSH0 PUSH0 PUSH0 PUSH0 PUSH0 PUSH0 PUSH0 PUSH0 PUSH0 PUSH2 0x160 DUP13 DUP15 SUB SLT ISZERO PUSH2 0x17B7 JUMPI PUSH2 0x17B6 PUSH2 0x1165 JUMP JUMPDEST JUMPDEST PUSH0 DUP13 ADD CALLDATALOAD PUSH8 0xFFFFFFFFFFFFFFFF DUP2 GT ISZERO PUSH2 0x17D4 JUMPI PUSH2 0x17D3 PUSH2 0x1169 JUMP JUMPDEST JUMPDEST PUSH2 0x17E0 DUP15 DUP3 DUP16 ADD PUSH2 0x127C JUMP JUMPDEST SWAP12 POP POP PUSH1 0x20 DUP13 ADD CALLDATALOAD PUSH8 0xFFFFFFFFFFFFFFFF DUP2 GT ISZERO PUSH2 0x1801 JUMPI PUSH2 0x1800 PUSH2 0x1169 JUMP JUMPDEST JUMPDEST PUSH2 0x180D DUP15 DUP3 DUP16 ADD PUSH2 0x131A JUMP JUMPDEST SWAP11 POP POP PUSH1 0x40 DUP13 ADD CALLDATALOAD PUSH8 0xFFFFFFFFFFFFFFFF DUP2 GT ISZERO PUSH2 0x182E JUMPI PUSH2 0x182D PUSH2 0x1169 JUMP JUMPDEST JUMPDEST PUSH2 0x183A DUP15 DUP3 DUP16 ADD PUSH2 0x131A JUMP JUMPDEST SWAP10 POP POP PUSH1 0x60 DUP13 ADD CALLDATALOAD PUSH8 0xFFFFFFFFFFFFFFFF DUP2 GT ISZERO PUSH2 0x185B JUMPI PUSH2 0x185A PUSH2 0x1169 JUMP JUMPDEST JUMPDEST PUSH2 0x1867 DUP15 DUP3 DUP16 ADD PUSH2 0x176A JUMP JUMPDEST SWAP9 POP POP PUSH1 0x80 DUP13 ADD CALLDATALOAD PUSH8 0xFFFFFFFFFFFFFFFF DUP2 GT ISZERO PUSH2 0x1888 JUMPI PUSH2 0x1887 PUSH2 0x1169 JUMP JUMPDEST JUMPDEST PUSH2 0x1894 DUP15 DUP3 DUP16 ADD PUSH2 0x176A JUMP JUMPDEST SWAP8 POP POP PUSH1 0xA0 PUSH2 0x18A5 DUP15 DUP3 DUP16 ADD PUSH2 0x14D0 JUMP JUMPDEST SWAP7 POP POP PUSH1 0xC0 PUSH2 0x18B6 DUP15 DUP3 DUP16 ADD PUSH2 0x1505 JUMP JUMPDEST SWAP6 POP POP PUSH1 0xE0 PUSH2 0x18C7 DUP15 DUP3 DUP16 ADD PUSH2 0x153E JUMP JUMPDEST SWAP5 POP POP PUSH2 0x100 DUP13 ADD CALLDATALOAD PUSH8 0xFFFFFFFFFFFFFFFF DUP2 GT ISZERO PUSH2 0x18E9 JUMPI PUSH2 0x18E8 PUSH2 0x1169 JUMP JUMPDEST JUMPDEST PUSH2 0x18F5 DUP15 DUP3 DUP16 ADD PUSH2 0x131A JUMP JUMPDEST SWAP4 POP POP PUSH2 0x120 DUP13 ADD CALLDATALOAD PUSH8 0xFFFFFFFFFFFFFFFF DUP2 GT ISZERO PUSH2 0x1917 JUMPI PUSH2 0x1916 PUSH2 0x1169 JUMP JUMPDEST JUMPDEST PUSH2 0x1923 DUP15 DUP3 DUP16 ADD PUSH2 0x131A JUMP JUMPDEST SWAP3 POP POP PUSH2 0x140 DUP13 ADD CALLDATALOAD PUSH8 0xFFFFFFFFFFFFFFFF DUP2 GT ISZERO PUSH2 0x1945 JUMPI PUSH2 0x1944 PUSH2 0x1169 JUMP JUMPDEST JUMPDEST PUSH2 0x1951 DUP15 DUP3 DUP16 ADD PUSH2 0x131A JUMP JUMPDEST SWAP2 POP POP SWAP3 SWAP6 SWAP9 SWAP12 POP SWAP3 SWAP6 SWAP9 SWAP12 SWAP1 SWAP4 SWAP7 SWAP10 POP JUMP JUMPDEST PUSH0 DUP3 DUP3 MSTORE PUSH1 0x20 DUP3 ADD SWAP1 POP SWAP3 SWAP2 POP POP JUMP JUMPDEST PUSH32 0x4D6F64756C61722054574150204F726465722044656C65746564000000000000 PUSH0 DUP3 ADD MSTORE POP JUMP JUMPDEST PUSH0 PUSH2 0x19A8 PUSH1 0x1A DUP4 PUSH2 0x1964 JUMP JUMPDEST SWAP2 POP PUSH2 0x19B3 DUP3 PUSH2 0x1974 JUMP JUMPDEST PUSH1 0x20 DUP3 ADD SWAP1 POP SWAP2 SWAP1 POP JUMP JUMPDEST PUSH0 DUP2 MLOAD SWAP1 POP SWAP2 SWAP1 POP JUMP JUMPDEST PUSH0 DUP3 DUP3 MSTORE PUSH1 0x20 DUP3 ADD SWAP1 POP SWAP3 SWAP2 POP POP JUMP JUMPDEST PUSH0 DUP2 SWAP1 POP PUSH1 0x20 DUP3 ADD SWAP1 POP SWAP2 SWAP1 POP JUMP JUMPDEST PUSH0 DUP2 MLOAD SWAP1 POP SWAP2 SWAP1 POP JUMP JUMPDEST PUSH0 DUP3 DUP3 MSTORE PUSH1 0x20 DUP3 ADD SWAP1 POP SWAP3 SWAP2 POP POP JUMP JUMPDEST DUP3 DUP2 DUP4 MCOPY PUSH0 DUP4 DUP4 ADD MSTORE POP POP POP JUMP JUMPDEST PUSH0 PUSH2 0x1A19 DUP3 PUSH2 0x19E7 JUMP JUMPDEST PUSH2 0x1A23 DUP2 DUP6 PUSH2 0x19F1 JUMP JUMPDEST SWAP4 POP PUSH2 0x1A33 DUP2 DUP6 PUSH1 0x20 DUP7 ADD PUSH2 0x1A01 JUMP JUMPDEST PUSH2 0x1A3C DUP2 PUSH2 0x1175 JUMP JUMPDEST DUP5 ADD SWAP2 POP POP SWAP3 SWAP2 POP POP JUMP JUMPDEST PUSH0 DUP2 MLOAD SWAP1 POP SWAP2 SWAP1 POP JUMP JUMPDEST PUSH0 DUP3 DUP3 MSTORE PUSH1 0x20 DUP3 ADD SWAP1 POP SWAP3 SWAP2 POP POP JUMP JUMPDEST PUSH0 PUSH2 0x1A6B DUP3 PUSH2 0x1A47 JUMP JUMPDEST PUSH2 0x1A75 DUP2 DUP6 PUSH2 0x1A51 JUMP JUMPDEST SWAP4 POP PUSH2 0x1A85 DUP2 DUP6 PUSH1 0x20 DUP7 ADD PUSH2 0x1A01 JUMP JUMPDEST PUSH2 0x1A8E DUP2 PUSH2 0x1175 JUMP JUMPDEST DUP5 ADD SWAP2 POP POP SWAP3 SWAP2 POP POP JUMP JUMPDEST PUSH0 PUSH1 0x60 DUP4 ADD PUSH0 DUP4 ADD MLOAD DUP5 DUP3 SUB PUSH0 DUP7 ADD MSTORE PUSH2 0x1AB3 DUP3 DUP3 PUSH2 0x1A0F JUMP JUMPDEST SWAP2 POP POP PUSH1 0x20 DUP4 ADD MLOAD DUP5 DUP3 SUB PUSH1 0x20 DUP7 ADD MSTORE PUSH2 0x1ACD DUP3 DUP3 PUSH2 0x1A0F JUMP JUMPDEST SWAP2 POP POP PUSH1 0x40 DUP4 ADD MLOAD DUP5 DUP3 SUB PUSH1 0x40 DUP7 ADD MSTORE PUSH2 0x1AE7 DUP3 DUP3 PUSH2 0x1A61 JUMP JUMPDEST SWAP2 POP POP DUP1 SWAP2 POP POP SWAP3 SWAP2 POP POP JUMP JUMPDEST PUSH0 PUSH2 0x1AFF DUP4 DUP4 PUSH2 0x1A99 JUMP JUMPDEST SWAP1 POP SWAP3 SWAP2 POP POP JUMP JUMPDEST PUSH0 PUSH1 0x20 DUP3 ADD SWAP1 POP SWAP2 SWAP1 POP JUMP JUMPDEST PUSH0 PUSH2 0x1B1D DUP3 PUSH2 0x19BE JUMP JUMPDEST PUSH2 0x1B27 DUP2 DUP6 PUSH2 0x19C8 JUMP JUMPDEST SWAP4 POP DUP4 PUSH1 0x20 DUP3 MUL DUP6 ADD PUSH2 0x1B39 DUP6 PUSH2 0x19D8 JUMP JUMPDEST DUP1 PUSH0 JUMPDEST DUP6 DUP2 LT ISZERO PUSH2 0x1B74 JUMPI DUP5 DUP5 SUB DUP10 MSTORE DUP2 MLOAD PUSH2 0x1B55 DUP6 DUP3 PUSH2 0x1AF4 JUMP JUMPDEST SWAP5 POP PUSH2 0x1B60 DUP4 PUSH2 0x1B07 JUMP JUMPDEST SWAP3 POP PUSH1 0x20 DUP11 ADD SWAP10 POP POP PUSH1 0x1 DUP2 ADD SWAP1 POP PUSH2 0x1B3C JUMP JUMPDEST POP DUP3 SWAP8 POP DUP8 SWAP6 POP POP POP POP POP POP SWAP3 SWAP2 POP POP JUMP JUMPDEST PUSH0 PUSH1 0x40 DUP3 ADD SWAP1 POP DUP2 DUP2 SUB PUSH0 DUP4 ADD MSTORE PUSH2 0x1B9D DUP2 PUSH2 0x199C JUMP JUMPDEST SWAP1 POP DUP2 DUP2 SUB PUSH1 0x20 DUP4 ADD MSTORE PUSH2 0x1BB1 DUP2 DUP5 PUSH2 0x1B13 JUMP JUMPDEST SWAP1 POP SWAP3 SWAP2 POP POP JUMP JUMPDEST PUSH32 0x4D6F64756C6172204C696D6974204F726465722044656C657465640000000000 PUSH0 DUP3 ADD MSTORE POP JUMP JUMPDEST PUSH0 PUSH2 0x1BED PUSH1 0x1B DUP4 PUSH2 0x1964 JUMP JUMPDEST SWAP2 POP PUSH2 0x1BF8 DUP3 PUSH2 0x1BB9 JUMP JUMPDEST PUSH1 0x20 DUP3 ADD SWAP1 POP SWAP2 SWAP1 POP JUMP JUMPDEST PUSH0 PUSH1 0x40 DUP3 ADD SWAP1 POP DUP2 DUP2 SUB PUSH0 DUP4 ADD MSTORE PUSH2 0x1C1A DUP2 PUSH2 0x1BE1 JUMP JUMPDEST SWAP1 POP DUP2 DUP2 SUB PUSH1 0x20 DUP4 ADD MSTORE PUSH2 0x1C2E DUP2 DUP5 PUSH2 0x1B13 JUMP JUMPDEST SWAP1 POP SWAP3 SWAP2 POP POP JUMP JUMPDEST PUSH32 0x4D6F64756C6172204C696D6974204F7264657220437265617465640000000000 PUSH0 DUP3 ADD MSTORE POP JUMP JUMPDEST PUSH0 PUSH2 0x1C6A PUSH1 0x1B DUP4 PUSH2 0x1964 JUMP JUMPDEST SWAP2 POP PUSH2 0x1C75 DUP3 PUSH2 0x1C36 JUMP JUMPDEST PUSH1 0x20 DUP3 ADD SWAP1 POP SWAP2 SWAP1 POP JUMP JUMPDEST PUSH0 PUSH1 0x40 DUP3 ADD SWAP1 POP DUP2 DUP2 SUB PUSH0 DUP4 ADD MSTORE PUSH2 0x1C97 DUP2 PUSH2 0x1C5E JUMP JUMPDEST SWAP1 POP DUP2 DUP2 SUB PUSH1 0x20 DUP4 ADD MSTORE PUSH2 0x1CAB DUP2 DUP5 PUSH2 0x1B13 JUMP JUMPDEST SWAP1 POP SWAP3 SWAP2 POP POP JUMP JUMPDEST PUSH32 0x4D6F64756C61722054574150204F726465722043726561746564000000000000 PUSH0 DUP3 ADD MSTORE POP JUMP JUMPDEST PUSH0 PUSH2 0x1CE7 PUSH1 0x1A DUP4 PUSH2 0x1964 JUMP JUMPDEST SWAP2 POP PUSH2 0x1CF2 DUP3 PUSH2 0x1CB3 JUMP JUMPDEST PUSH1 0x20 DUP3 ADD SWAP1 POP SWAP2 SWAP1 POP JUMP JUMPDEST PUSH0 PUSH1 0x40 DUP3 ADD SWAP1 POP DUP2 DUP2 SUB PUSH0 DUP4 ADD MSTORE PUSH2 0x1D14 DUP2 PUSH2 0x1CDB JUMP JUMPDEST SWAP1 POP DUP2 DUP2 SUB PUSH1 0x20 DUP4 ADD MSTORE PUSH2 0x1D28 DUP2 DUP5 PUSH2 0x1B13 JUMP JUMPDEST SWAP1 POP SWAP3 SWAP2 POP POP JUMP JUMPDEST PUSH0 PUSH2 0x1D3A DUP3 PUSH2 0x140C JUMP JUMPDEST SWAP1 POP SWAP2 SWAP1 POP JUMP JUMPDEST PUSH2 0x1D4A DUP2 PUSH2 0x1D30 JUMP JUMPDEST DUP3 MSTORE POP POP JUMP JUMPDEST PUSH0 PUSH1 0x20 DUP3 ADD SWAP1 POP PUSH2 0x1D63 PUSH0 DUP4 ADD DUP5 PUSH2 0x1D41 JUMP JUMPDEST SWAP3 SWAP2 POP POP JUMP JUMPDEST PUSH32 0x4E487B7100000000000000000000000000000000000000000000000000000000 PUSH0 MSTORE PUSH1 0x32 PUSH1 0x4 MSTORE PUSH1 0x24 PUSH0 REVERT JUMPDEST PUSH0 DUP3 DUP3 MSTORE PUSH1 0x20 DUP3 ADD SWAP1 POP SWAP3 SWAP2 POP POP JUMP JUMPDEST PUSH0 PUSH2 0x1DB0 DUP3 PUSH2 0x1A47 JUMP JUMPDEST PUSH2 0x1DBA DUP2 DUP6 PUSH2 0x1D96 JUMP JUMPDEST SWAP4 POP PUSH2 0x1DCA DUP2 DUP6 PUSH1 0x20 DUP7 ADD PUSH2 0x1A01 JUMP JUMPDEST PUSH2 0x1DD3 DUP2 PUSH2 0x1175 JUMP JUMPDEST DUP5 ADD SWAP2 POP POP SWAP3 SWAP2 POP POP JUMP JUMPDEST PUSH0 PUSH1 0x20 DUP3 ADD SWAP1 POP DUP2 DUP2 SUB PUSH0 DUP4 ADD MSTORE PUSH2 0x1DF6 DUP2 DUP5 PUSH2 0x1DA6 JUMP JUMPDEST SWAP1 POP SWAP3 SWAP2 POP POP JUMP JUMPDEST PUSH0 PUSH2 0x1E08 DUP3 PUSH2 0x19E7 JUMP JUMPDEST PUSH2 0x1E12 DUP2 DUP6 PUSH2 0x1964 JUMP JUMPDEST SWAP4 POP PUSH2 0x1E22 DUP2 DUP6 PUSH1 0x20 DUP7 ADD PUSH2 0x1A01 JUMP JUMPDEST PUSH2 0x1E2B DUP2 PUSH2 0x1175 JUMP JUMPDEST DUP5 ADD SWAP2 POP POP SWAP3 SWAP2 POP POP JUMP JUMPDEST PUSH0 PUSH1 0x20 DUP3 ADD SWAP1 POP DUP2 DUP2 SUB PUSH0 DUP4 ADD MSTORE PUSH2 0x1E4E DUP2 DUP5 PUSH2 0x1DFE JUMP JUMPDEST SWAP1 POP SWAP3 SWAP2 POP POP JUMP JUMPDEST PUSH2 0x1E5F DUP2 PUSH2 0x1347 JUMP JUMPDEST DUP3 MSTORE POP POP JUMP JUMPDEST PUSH0 PUSH1 0x20 DUP3 ADD SWAP1 POP PUSH2 0x1E78 PUSH0 DUP4 ADD DUP5 PUSH2 0x1E56 JUMP JUMPDEST SWAP3 SWAP2 POP POP JUMP JUMPDEST PUSH2 0x1E87 DUP2 PUSH2 0x1519 JUMP JUMPDEST DUP3 MSTORE POP POP JUMP JUMPDEST PUSH0 PUSH1 0x20 DUP3 ADD SWAP1 POP PUSH2 0x1EA0 PUSH0 DUP4 ADD DUP5 PUSH2 0x1E7E JUMP JUMPDEST SWAP3 SWAP2 POP POP JUMP JUMPDEST PUSH2 0x1EAF DUP2 PUSH2 0x14E4 JUMP JUMPDEST DUP3 MSTORE POP POP JUMP JUMPDEST PUSH0 PUSH1 0x20 DUP3 ADD SWAP1 POP PUSH2 0x1EC8 PUSH0 DUP4 ADD DUP5 PUSH2 0x1EA6 JUMP JUMPDEST SWAP3 SWAP2 POP POP JUMP JUMPDEST PUSH2 0x1ED7 DUP2 PUSH2 0x149F JUMP JUMPDEST DUP3 MSTORE POP POP JUMP JUMPDEST PUSH0 PUSH1 0x20 DUP3 ADD SWAP1 POP PUSH2 0x1EF0 PUSH0 DUP4 ADD DUP5 PUSH2 0x1ECE JUMP JUMPDEST SWAP3 SWAP2 POP POP JUMP JUMPDEST PUSH0 DUP2 MLOAD SWAP1 POP SWAP2 SWAP1 POP JUMP JUMPDEST PUSH0 DUP3 DUP3 MSTORE PUSH1 0x20 DUP3 ADD SWAP1 POP SWAP3 SWAP2 POP POP JUMP JUMPDEST PUSH0 DUP2 SWAP1 POP PUSH1 0x20 DUP3 ADD SWAP1 POP SWAP2 SWAP1 POP JUMP JUMPDEST PUSH2 0x1F28 DUP2 PUSH2 0x1347 JUMP JUMPDEST DUP3 MSTORE POP POP JUMP JUMPDEST PUSH0 PUSH2 0x1F39 DUP4 DUP4 PUSH2 0x1F1F JUMP JUMPDEST PUSH1 0x20 DUP4 ADD SWAP1 POP SWAP3 SWAP2 POP POP JUMP JUMPDEST PUSH0 PUSH1 0x20 DUP3 ADD SWAP1 POP SWAP2 SWAP1 POP JUMP JUMPDEST PUSH0 PUSH2 0x1F5B DUP3 PUSH2 0x1EF6 JUMP JUMPDEST PUSH2 0x1F65 DUP2 DUP6 PUSH2 0x1F00 JUMP JUMPDEST SWAP4 POP PUSH2 0x1F70 DUP4 PUSH2 0x1F10 JUMP JUMPDEST DUP1 PUSH0 JUMPDEST DUP4 DUP2 LT ISZERO PUSH2 0x1FA0 JUMPI DUP2 MLOAD PUSH2 0x1F87 DUP9 DUP3 PUSH2 0x1F2E JUMP JUMPDEST SWAP8 POP PUSH2 0x1F92 DUP4 PUSH2 0x1F45 JUMP JUMPDEST SWAP3 POP POP PUSH1 0x1 DUP2 ADD SWAP1 POP PUSH2 0x1F73 JUMP JUMPDEST POP DUP6 SWAP4 POP POP POP POP SWAP3 SWAP2 POP POP JUMP JUMPDEST PUSH0 PUSH1 0x20 DUP3 ADD SWAP1 POP DUP2 DUP2 SUB PUSH0 DUP4 ADD MSTORE PUSH2 0x1FC5 DUP2 DUP5 PUSH2 0x1F51 JUMP JUMPDEST SWAP1 POP SWAP3 SWAP2 POP POP JUMP INVALID LOG2 PUSH5 0x6970667358 0x22 SLT KECCAK256 POP 0xCA CALLDATALOAD 0xB6 NUMBER LOG3 PUSH7 0x421DA64C0D1FB5 CODECOPY PUSH4 0x4F3EB635 0x4B CODESIZE RETF PUSH29 0x10650ED35ED033B664736F6C634300081F003300000000000000000000 "
		},
		"gasEstimates": {
			"creation": {
				"codeDepositCost": "1639000",
				"executionCost": "infinite",
				"totalCost": "infinite"
			},
			"external": {
				"events()": "infinite",
				"p_create_limit_order(bytes,string,string,uint64,uint128,bool,uint32,string,string,string)": "infinite",
				"p_create_twap_order(bytes,string,string,uint64[],uint64[],uint128,bool,uint32,string,string,string)": "infinite",
				"p_remove_limit_order(bytes,string,uint64)": "infinite",
				"p_remove_twap_order(bytes,string,uint64)": "infinite"
			},
			"internal": {
				"_addAddress(struct IEvents.Data memory[] memory,uint256,string memory,address)": "infinite",
				"_addBool(struct IEvents.Data memory[] memory,uint256,string memory,bool)": "infinite",
				"_addBytes(struct IEvents.Data memory[] memory,uint256,string memory,bytes memory)": "infinite",
				"_addString(struct IEvents.Data memory[] memory,uint256,string memory,string memory)": "infinite",
				"_addUint128(struct IEvents.Data memory[] memory,uint256,string memory,uint128)": "infinite",
				"_addUint32(struct IEvents.Data memory[] memory,uint256,string memory,uint32)": "infinite",
				"_addUint64(struct IEvents.Data memory[] memory,uint256,string memory,uint64)": "infinite",
				"_addUint64Array(struct IEvents.Data memory[] memory,uint256,string memory,uint64[] memory)": "infinite"
			}
		},
		"methodIdentifiers": {
			"events()": "b5f8558c",
			"p_create_limit_order(bytes,string,string,uint64,uint128,bool,uint32,string,string,string)": "c5bf2798",
			"p_create_twap_order(bytes,string,string,uint64[],uint64[],uint128,bool,uint32,string,string,string)": "cc301111",
			"p_remove_limit_order(bytes,string,uint64)": "b0fd93d7",
			"p_remove_twap_order(bytes,string,uint64)": "00859b5d"
		}
	},
	"abi": [
		{
			"inputs": [
				{
					"internalType": "address",
					"name": "_events",
					"type": "address"
				}
			],
			"stateMutability": "nonpayable",
			"type": "constructor"
		},
		{
			"inputs": [],
			"name": "events",
			"outputs": [
				{
					"internalType": "contract IEvents",
					"name": "",
					"type": "address"
				}
			],
			"stateMutability": "view",
			"type": "function"
		},
		{
			"inputs": [
				{
					"internalType": "bytes",
					"name": "user",
					"type": "bytes"
				},
				{
					"internalType": "string",
					"name": "shared",
					"type": "string"
				},
				{
					"internalType": "string",
					"name": "asset",
					"type": "string"
				},
				{
					"internalType": "uint64",
					"name": "size",
					"type": "uint64"
				},
				{
					"internalType": "uint128",
					"name": "desired_price",
					"type": "uint128"
				},
				{
					"internalType": "bool",
					"name": "isLong",
					"type": "bool"
				},
				{
					"internalType": "uint32",
					"name": "leverage",
					"type": "uint32"
				},
				{
					"internalType": "string",
					"name": "reserve_chain",
					"type": "string"
				},
				{
					"internalType": "string",
					"name": "reserve_provider",
					"type": "string"
				},
				{
					"internalType": "string",
					"name": "reserve_token",
					"type": "string"
				}
			],
			"name": "p_create_limit_order",
			"outputs": [],
			"stateMutability": "nonpayable",
			"type": "function"
		},
		{
			"inputs": [
				{
					"internalType": "bytes",
					"name": "user",
					"type": "bytes"
				},
				{
					"internalType": "string",
					"name": "shared",
					"type": "string"
				},
				{
					"internalType": "string",
					"name": "asset",
					"type": "string"
				},
				{
					"internalType": "uint64[]",
					"name": "periods",
					"type": "uint64[]"
				},
				{
					"internalType": "uint64[]",
					"name": "sizes",
					"type": "uint64[]"
				},
				{
					"internalType": "uint128",
					"name": "desired_price",
					"type": "uint128"
				},
				{
					"internalType": "bool",
					"name": "isLong",
					"type": "bool"
				},
				{
					"internalType": "uint32",
					"name": "leverage",
					"type": "uint32"
				},
				{
					"internalType": "string",
					"name": "reserve_chain",
					"type": "string"
				},
				{
					"internalType": "string",
					"name": "reserve_provider",
					"type": "string"
				},
				{
					"internalType": "string",
					"name": "reserve_token",
					"type": "string"
				}
			],
			"name": "p_create_twap_order",
			"outputs": [],
			"stateMutability": "nonpayable",
			"type": "function"
		},
		{
			"inputs": [
				{
					"internalType": "bytes",
					"name": "user",
					"type": "bytes"
				},
				{
					"internalType": "string",
					"name": "shared",
					"type": "string"
				},
				{
					"internalType": "uint64",
					"name": "id",
					"type": "uint64"
				}
			],
			"name": "p_remove_limit_order",
			"outputs": [],
			"stateMutability": "nonpayable",
			"type": "function"
		},
		{
			"inputs": [
				{
					"internalType": "bytes",
					"name": "user",
					"type": "bytes"
				},
				{
					"internalType": "string",
					"name": "shared",
					"type": "string"
				},
				{
					"internalType": "uint64",
					"name": "id",
					"type": "uint64"
				}
			],
			"name": "p_remove_twap_order",
			"outputs": [],
			"stateMutability": "nonpayable",
			"type": "function"
		}
	]
}