{
	"data": {
		"bytecode": {
			"linkReferences": {},
			"object": "60a060405234801561000f575f5ffd5b50604051612193380380612193833981810160405281019061003191906100c9565b8073ffffffffffffffffffffffffffffffffffffffff1660808173ffffffffffffffffffffffffffffffffffffffff1681525050506100f4565b5f5ffd5b5f73ffffffffffffffffffffffffffffffffffffffff82169050919050565b5f6100988261006f565b9050919050565b6100a88161008e565b81146100b2575f5ffd5b50565b5f815190506100c38161009f565b92915050565b5f602082840312156100de576100dd61006b565b5b5f6100eb848285016100b5565b91505092915050565b60805161206b6101285f395f818161030e0152818161068801528181610a4701528181610ada0152610c5d015261206b5ff3fe608060405234801561000f575f5ffd5b5060043610610055575f3560e01c8063481ba600146100595780635fc8015f146100755780636aed54e614610091578063b5f8558c146100ad578063de3dcc07146100cb575b5f5ffd5b610073600480360381019061006e91906112f8565b6100e7565b005b61008f600480360381019061008a91906114ce565b61039b565b005b6100ab60048036038101906100a6919061171c565b610718565b005b6100b5610ad8565b6040516100c29190611933565b60405180910390f35b6100e560048036038101906100e0919061194c565b610afc565b005b5f600767ffffffffffffffff81111561010357610102611136565b5b60405190808252806020026020018201604052801561013c57816020015b6101296110ec565b8152602001906001900390816101215790505b509050610180815f6040518060400160405280600681526020017f73656e646572000000000000000000000000000000000000000000000000000081525033610ce7565b6101c28160016040518060400160405280600481526020017f75736572000000000000000000000000000000000000000000000000000000008152508a610d7a565b6102048160026040518060400160405280600681526020017f736861726564000000000000000000000000000000000000000000000000000081525089610e0d565b6102468160036040518060400160405280600581526020017f617373657400000000000000000000000000000000000000000000000000000081525088610e0d565b6102888160046040518060400160405280601181526020017f6e65775f726573657276655f636861696e00000000000000000000000000000081525087610e0d565b6102ca8160056040518060400160405280601481526020017f6e65775f726573657276655f70726f766964657200000000000000000000000081525086610e0d565b61030c8160066040518060400160405280601181526020017f6e65775f726573657276655f746f6b656e00000000000000000000000000000081525085610e0d565b7f000000000000000000000000000000000000000000000000000000000000000073ffffffffffffffffffffffffffffffffffffffff16637d64fa9b826040518263ffffffff1660e01b81526004016103659190611c12565b5f604051808303815f87803b15801561037c575f5ffd5b505af115801561038e573d5f5f3e3d5ffd5b5050505050505050505050565b5f600a67ffffffffffffffff8111156103b7576103b6611136565b5b6040519080825280602002602001820160405280156103f057816020015b6103dd6110ec565b8152602001906001900390816103d55790505b509050610434815f6040518060400160405280600681526020017f73656e646572000000000000000000000000000000000000000000000000000081525033610ce7565b6104768160016040518060400160405280600481526020017f75736572000000000000000000000000000000000000000000000000000000008152508d610d7a565b6104b88160026040518060400160405280600681526020017f73686172656400000000000000000000000000000000000000000000000000008152508c610e0d565b6104fa8160036040518060400160405280600581526020017f61737365740000000000000000000000000000000000000000000000000000008152508b610e0d565b61053c8160046040518060400160405280600481526020017f73697a65000000000000000000000000000000000000000000000000000000008152508a610ea0565b61057e8160056040518060400160405280600881526020017f6c6576657261676500000000000000000000000000000000000000000000000081525089610f33565b6105c08160066040518060400160405280600681526020017f69734c6f6e67000000000000000000000000000000000000000000000000000081525088610fc6565b6106028160076040518060400160405280600d81526020017f726573657276655f636861696e0000000000000000000000000000000000000081525087610e0d565b6106448160086040518060400160405280601081526020017f726573657276655f70726f76696465720000000000000000000000000000000081525086610e0d565b6106868160096040518060400160405280600d81526020017f726573657276655f746f6b656e0000000000000000000000000000000000000081525085610e0d565b7f000000000000000000000000000000000000000000000000000000000000000073ffffffffffffffffffffffffffffffffffffffff16637d64fa9b826040518263ffffffff1660e01b81526004016106df9190611c8f565b5f604051808303815f87803b1580156106f6575f5ffd5b505af1158015610708573d5f5f3e3d5ffd5b5050505050505050505050505050565b5f600b67ffffffffffffffff81111561073457610733611136565b5b60405190808252806020026020018201604052801561076d57816020015b61075a6110ec565b8152602001906001900390816107525790505b5090506107b1815f6040518060400160405280600681526020017f73656e646572000000000000000000000000000000000000000000000000000081525033610ce7565b6107f38160016040518060400160405280600481526020017f75736572000000000000000000000000000000000000000000000000000000008152508e610d7a565b6108358160026040518060400160405280600681526020017f73686172656400000000000000000000000000000000000000000000000000008152508d610e0d565b6108778160036040518060400160405280600581526020017f61737365740000000000000000000000000000000000000000000000000000008152508c610e0d565b6108b98160046040518060400160405280600481526020017f73697a65000000000000000000000000000000000000000000000000000000008152508b610ea0565b6108fb8160056040518060400160405280600881526020017f6c657665726167650000000000000000000000000000000000000000000000008152508a610f33565b61093d8160066040518060400160405280600681526020017f69734c6f6e67000000000000000000000000000000000000000000000000000081525089610fc6565b61097f8160076040518060400160405280600d81526020017f726573657276655f636861696e0000000000000000000000000000000000000081525088610e0d565b6109c18160086040518060400160405280601081526020017f726573657276655f70726f76696465720000000000000000000000000000000081525087610e0d565b610a038160096040518060400160405280600d81526020017f726573657276655f746f6b656e0000000000000000000000000000000000000081525086610e0d565b610a4581600a6040518060400160405280601181526020017f70726963655f7570646174655f6461746100000000000000000000000000000081525085611059565b7f000000000000000000000000000000000000000000000000000000000000000073ffffffffffffffffffffffffffffffffffffffff16637d64fa9b826040518263ffffffff1660e01b8152600401610a9e9190611d0c565b5f604051808303815f87803b158015610ab5575f5ffd5b505af1158015610ac7573d5f5f3e3d5ffd5b505050505050505050505050505050565b7f000000000000000000000000000000000000000000000000000000000000000081565b5f600467ffffffffffffffff811115610b1857610b17611136565b5b604051908082528060200260200182016040528015610b5157816020015b610b3e6110ec565b815260200190600190039081610b365790505b509050610b95815f6040518060400160405280600681526020017f73656e646572000000000000000000000000000000000000000000000000000081525033610ce7565b610bd78160016040518060400160405280600481526020017f757365720000000000000000000000000000000000000000000000000000000081525087610d7a565b610c198160026040518060400160405280600681526020017f736861726564000000000000000000000000000000000000000000000000000081525086610e0d565b610c5b8160036040518060400160405280600581526020017f617373657400000000000000000000000000000000000000000000000000000081525085610e0d565b7f000000000000000000000000000000000000000000000000000000000000000073ffffffffffffffffffffffffffffffffffffffff16637d64fa9b826040518263ffffffff1660e01b8152600401610cb49190611d89565b5f604051808303815f87803b158015610ccb575f5ffd5b505af1158015610cdd573d5f5f3e3d5ffd5b5050505050505050565b60405180606001604052808381526020016040518060400160405280600781526020017f6164647265737300000000000000000000000000000000000000000000000000815250815260200182604051602001610d449190611ddc565b604051602081830303815290604052815250848481518110610d6957610d68611df5565b5b602002602001018190525050505050565b60405180606001604052808381526020016040518060400160405280600581526020017f6279746573000000000000000000000000000000000000000000000000000000815250815260200182604051602001610dd79190611e6a565b604051602081830303815290604052815250848481518110610dfc57610dfb611df5565b5b602002602001018190525050505050565b60405180606001604052808381526020016040518060400160405280600681526020017f737472696e670000000000000000000000000000000000000000000000000000815250815260200182604051602001610e6a9190611ec2565b604051602081830303815290604052815250848481518110610e8f57610e8e611df5565b5b602002602001018190525050505050565b60405180606001604052808381526020016040518060400160405280600781526020017f75696e7432353600000000000000000000000000000000000000000000000000815250815260200182604051602001610efd9190611ef1565b604051602081830303815290604052815250848481518110610f2257610f21611df5565b5b602002602001018190525050505050565b60405180606001604052808381526020016040518060400160405280600681526020017f75696e7436340000000000000000000000000000000000000000000000000000815250815260200182604051602001610f909190611f19565b604051602081830303815290604052815250848481518110610fb557610fb4611df5565b5b602002602001018190525050505050565b60405180606001604052808381526020016040518060400160405280600481526020017f626f6f6c000000000000000000000000000000000000000000000000000000008152508152602001826040516020016110239190611f41565b60405160208183030381529060405281525084848151811061104857611047611df5565b5b602002602001018190525050505050565b60405180606001604052808381526020016040518060400160405280600781526020017f62797465735b5d000000000000000000000000000000000000000000000000008152508152602001826040516020016110b69190612015565b6040516020818303038152906040528152508484815181106110db576110da611df5565b5b602002602001018190525050505050565b60405180606001604052806060815260200160608152602001606081525090565b5f604051905090565b5f5ffd5b5f5ffd5b5f5ffd5b5f5ffd5b5f601f19601f8301169050919050565b7f4e487b71000000000000000000000000000000000000000000000000000000005f52604160045260245ffd5b61116c82611126565b810181811067ffffffffffffffff8211171561118b5761118a611136565b5b80604052505050565b5f61119d61110d565b90506111a98282611163565b919050565b5f67ffffffffffffffff8211156111c8576111c7611136565b5b6111d182611126565b9050602081019050919050565b828183375f83830152505050565b5f6111fe6111f9846111ae565b611194565b90508281526020810184848401111561121a57611219611122565b5b6112258482856111de565b509392505050565b5f82601f8301126112415761124061111e565b5b81356112518482602086016111ec565b91505092915050565b5f67ffffffffffffffff82111561127457611273611136565b5b61127d82611126565b9050602081019050919050565b5f61129c6112978461125a565b611194565b9050828152602081018484840111156112b8576112b7611122565b5b6112c38482856111de565b509392505050565b5f82601f8301126112df576112de61111e565b5b81356112ef84826020860161128a565b91505092915050565b5f5f5f5f5f5f60c0878903121561131257611311611116565b5b5f87013567ffffffffffffffff81111561132f5761132e61111a565b5b61133b89828a0161122d565b965050602087013567ffffffffffffffff81111561135c5761135b61111a565b5b61136889828a016112cb565b955050604087013567ffffffffffffffff8111156113895761138861111a565b5b61139589828a016112cb565b945050606087013567ffffffffffffffff8111156113b6576113b561111a565b5b6113c289828a016112cb565b935050608087013567ffffffffffffffff8111156113e3576113e261111a565b5b6113ef89828a016112cb565b92505060a087013567ffffffffffffffff8111156114105761140f61111a565b5b61141c89828a016112cb565b9150509295509295509295565b5f819050919050565b61143b81611429565b8114611445575f5ffd5b50565b5f8135905061145681611432565b92915050565b5f67ffffffffffffffff82169050919050565b6114788161145c565b8114611482575f5ffd5b50565b5f813590506114938161146f565b92915050565b5f8115159050919050565b6114ad81611499565b81146114b7575f5ffd5b50565b5f813590506114c8816114a4565b92915050565b5f5f5f5f5f5f5f5f5f6101208a8c0312156114ec576114eb611116565b5b5f8a013567ffffffffffffffff8111156115095761150861111a565b5b6115158c828d0161122d565b99505060208a013567ffffffffffffffff8111156115365761153561111a565b5b6115428c828d016112cb565b98505060408a013567ffffffffffffffff8111156115635761156261111a565b5b61156f8c828d016112cb565b97505060606115808c828d01611448565b96505060806115918c828d01611485565b95505060a06115a28c828d016114ba565b94505060c08a013567ffffffffffffffff8111156115c3576115c261111a565b5b6115cf8c828d016112cb565b93505060e08a013567ffffffffffffffff8111156115f0576115ef61111a565b5b6115fc8c828d016112cb565b9250506101008a013567ffffffffffffffff81111561161e5761161d61111a565b5b61162a8c828d016112cb565b9150509295985092959850929598565b5f67ffffffffffffffff82111561165457611653611136565b5b602082029050602081019050919050565b5f5ffd5b5f61167b6116768461163a565b611194565b9050808382526020820190506020840283018581111561169e5761169d611665565b5b835b818110156116e557803567ffffffffffffffff8111156116c3576116c261111e565b5b8086016116d0898261122d565b855260208501945050506020810190506116a0565b5050509392505050565b5f82601f8301126117035761170261111e565b5b8135611713848260208601611669565b91505092915050565b5f5f5f5f5f5f5f5f5f5f6101408b8d03121561173b5761173a611116565b5b5f8b013567ffffffffffffffff8111156117585761175761111a565b5b6117648d828e0161122d565b9a505060208b013567ffffffffffffffff8111156117855761178461111a565b5b6117918d828e016112cb565b99505060408b013567ffffffffffffffff8111156117b2576117b161111a565b5b6117be8d828e016112cb565b98505060606117cf8d828e01611448565b97505060806117e08d828e01611485565b96505060a06117f18d828e016114ba565b95505060c08b013567ffffffffffffffff8111156118125761181161111a565b5b61181e8d828e016112cb565b94505060e08b013567ffffffffffffffff81111561183f5761183e61111a565b5b61184b8d828e016112cb565b9350506101008b013567ffffffffffffffff81111561186d5761186c61111a565b5b6118798d828e016112cb565b9250506101208b013567ffffffffffffffff81111561189b5761189a61111a565b5b6118a78d828e016116ef565b9150509295989b9194979a5092959850565b5f73ffffffffffffffffffffffffffffffffffffffff82169050919050565b5f819050919050565b5f6118fb6118f66118f1846118b9565b6118d8565b6118b9565b9050919050565b5f61190c826118e1565b9050919050565b5f61191d82611902565b9050919050565b61192d81611913565b82525050565b5f6020820190506119465f830184611924565b92915050565b5f5f5f6060848603121561196357611962611116565b5b5f84013567ffffffffffffffff8111156119805761197f61111a565b5b61198c8682870161122d565b935050602084013567ffffffffffffffff8111156119ad576119ac61111a565b5b6119b9868287016112cb565b925050604084013567ffffffffffffffff8111156119da576119d961111a565b5b6119e6868287016112cb565b9150509250925092565b5f82825260208201905092915050565b7f4d6f64756c61722052657365727665204368616e6765640000000000000000005f82015250565b5f611a346017836119f0565b9150611a3f82611a00565b602082019050919050565b5f81519050919050565b5f82825260208201905092915050565b5f819050602082019050919050565b5f81519050919050565b5f82825260208201905092915050565b8281835e5f83830152505050565b5f611aa582611a73565b611aaf8185611a7d565b9350611abf818560208601611a8d565b611ac881611126565b840191505092915050565b5f81519050919050565b5f82825260208201905092915050565b5f611af782611ad3565b611b018185611add565b9350611b11818560208601611a8d565b611b1a81611126565b840191505092915050565b5f606083015f8301518482035f860152611b3f8282611a9b565b91505060208301518482036020860152611b598282611a9b565b91505060408301518482036040860152611b738282611aed565b9150508091505092915050565b5f611b8b8383611b25565b905092915050565b5f602082019050919050565b5f611ba982611a4a565b611bb38185611a54565b935083602082028501611bc585611a64565b805f5b85811015611c005784840389528151611be18582611b80565b9450611bec83611b93565b925060208a01995050600181019050611bc8565b50829750879550505050505092915050565b5f6040820190508181035f830152611c2981611a28565b90508181036020830152611c3d8184611b9f565b905092915050565b7f4d6f64756c6172205472616465204578656375746564000000000000000000005f82015250565b5f611c796016836119f0565b9150611c8482611c45565b602082019050919050565b5f6040820190508181035f830152611ca681611c6d565b90508181036020830152611cba8184611b9f565b905092915050565b7f4d6f64756c6172204f7261636c652055706461746520616e64205472616465005f82015250565b5f611cf6601f836119f0565b9150611d0182611cc2565b602082019050919050565b5f6040820190508181035f830152611d2381611cea565b90508181036020830152611d378184611b9f565b905092915050565b7f4d6f64756c617220496e746572657374204163637275656400000000000000005f82015250565b5f611d736018836119f0565b9150611d7e82611d3f565b602082019050919050565b5f6040820190508181035f830152611da081611d67565b90508181036020830152611db48184611b9f565b905092915050565b5f611dc6826118b9565b9050919050565b611dd681611dbc565b82525050565b5f602082019050611def5f830184611dcd565b92915050565b7f4e487b71000000000000000000000000000000000000000000000000000000005f52603260045260245ffd5b5f82825260208201905092915050565b5f611e3c82611ad3565b611e468185611e22565b9350611e56818560208601611a8d565b611e5f81611126565b840191505092915050565b5f6020820190508181035f830152611e828184611e32565b905092915050565b5f611e9482611a73565b611e9e81856119f0565b9350611eae818560208601611a8d565b611eb781611126565b840191505092915050565b5f6020820190508181035f830152611eda8184611e8a565b905092915050565b611eeb81611429565b82525050565b5f602082019050611f045f830184611ee2565b92915050565b611f138161145c565b82525050565b5f602082019050611f2c5f830184611f0a565b92915050565b611f3b81611499565b82525050565b5f602082019050611f545f830184611f32565b92915050565b5f81519050919050565b5f82825260208201905092915050565b5f819050602082019050919050565b5f611f8e8383611aed565b905092915050565b5f602082019050919050565b5f611fac82611f5a565b611fb68185611f64565b935083602082028501611fc885611f74565b805f5b858110156120035784840389528151611fe48582611f83565b9450611fef83611f96565b925060208a01995050600181019050611fcb565b50829750879550505050505092915050565b5f6020820190508181035f83015261202d8184611fa2565b90509291505056fea2646970667358221220a3e787786743d9001d578dd51e50237aa5ef95cccdfc39d83cd843aa968229a364736f6c634300081f0033",
			"opcodes": "PUSH1 0xA0 PUSH1 0x40 MSTORE CALLVALUE DUP1 ISZERO PUSH2 0xF JUMPI PUSH0 PUSH0 REVERT JUMPDEST POP PUSH1 0x40 MLOAD PUSH2 0x2193 CODESIZE SUB DUP1 PUSH2 0x2193 DUP4 CODECOPY DUP2 DUP2 ADD PUSH1 0x40 MSTORE DUP2 ADD SWAP1 PUSH2 0x31 SWAP2 SWAP1 PUSH2 0xC9 JUMP JUMPDEST DUP1 PUSH20 0xFFFFFFFFFFFFFFFFFFFFFFFFFFFFFFFFFFFFFFFF AND PUSH1 0x80 DUP2 PUSH20 0xFFFFFFFFFFFFFFFFFFFFFFFFFFFFFFFFFFFFFFFF AND DUP2 MSTORE POP POP POP PUSH2 0xF4 JUMP JUMPDEST PUSH0 PUSH0 REVERT JUMPDEST PUSH0 PUSH20 0xFFFFFFFFFFFFFFFFFFFFFFFFFFFFFFFFFFFFFFFF DUP3 AND SWAP1 POP SWAP2 SWAP1 POP JUMP JUMPDEST PUSH0 PUSH2 0x98 DUP3 PUSH2 0x6F JUMP JUMPDEST SWAP1 POP SWAP2 SWAP1 POP JUMP JUMPDEST PUSH2 0xA8 DUP2 PUSH2 0x8E JUMP JUMPDEST DUP2 EQ PUSH2 0xB2 JUMPI PUSH0 PUSH0 REVERT JUMPDEST POP JUMP JUMPDEST PUSH0 DUP2 MLOAD SWAP1 POP PUSH2 0xC3 DUP2 PUSH2 0x9F JUMP JUMPDEST SWAP3 SWAP2 POP POP JUMP JUMPDEST PUSH0 PUSH1 0x20 DUP3 DUP5 SUB SLT ISZERO PUSH2 0xDE JUMPI PUSH2 0xDD PUSH2 0x6B JUMP JUMPDEST JUMPDEST PUSH0 PUSH2 0xEB DUP5 DUP3 DUP6 ADD PUSH2 0xB5 JUMP JUMPDEST SWAP2 POP POP SWAP3 SWAP2 POP POP JUMP JUMPDEST PUSH1 0x80 MLOAD PUSH2 0x206B PUSH2 0x128 PUSH0 CODECOPY PUSH0 DUP2 DUP2 PUSH2 0x30E ADD MSTORE DUP2 DUP2 PUSH2 0x688 ADD MSTORE DUP2 DUP2 PUSH2 0xA47 ADD MSTORE DUP2 DUP2 PUSH2 0xADA ADD MSTORE PUSH2 0xC5D ADD MSTORE PUSH2 0x206B PUSH0 RETURN INVALID PUSH1 0x80 PUSH1 0x40 MSTORE CALLVALUE DUP1 ISZERO PUSH2 0xF JUMPI PUSH0 PUSH0 REVERT JUMPDEST POP PUSH1 0x4 CALLDATASIZE LT PUSH2 0x55 JUMPI PUSH0 CALLDATALOAD PUSH1 0xE0 SHR DUP1 PUSH4 0x481BA600 EQ PUSH2 0x59 JUMPI DUP1 PUSH4 0x5FC8015F EQ PUSH2 0x75 JUMPI DUP1 PUSH4 0x6AED54E6 EQ PUSH2 0x91 JUMPI DUP1 PUSH4 0xB5F8558C EQ PUSH2 0xAD JUMPI DUP1 PUSH4 0xDE3DCC07 EQ PUSH2 0xCB JUMPI JUMPDEST PUSH0 PUSH0 REVERT JUMPDEST PUSH2 0x73 PUSH1 0x4 DUP1 CALLDATASIZE SUB DUP2 ADD SWAP1 PUSH2 0x6E SWAP2 SWAP1 PUSH2 0x12F8 JUMP JUMPDEST PUSH2 0xE7 JUMP JUMPDEST STOP JUMPDEST PUSH2 0x8F PUSH1 0x4 DUP1 CALLDATASIZE SUB DUP2 ADD SWAP1 PUSH2 0x8A SWAP2 SWAP1 PUSH2 0x14CE JUMP JUMPDEST PUSH2 0x39B JUMP JUMPDEST STOP JUMPDEST PUSH2 0xAB PUSH1 0x4 DUP1 CALLDATASIZE SUB DUP2 ADD SWAP1 PUSH2 0xA6 SWAP2 SWAP1 PUSH2 0x171C JUMP JUMPDEST PUSH2 0x718 JUMP JUMPDEST STOP JUMPDEST PUSH2 0xB5 PUSH2 0xAD8 JUMP JUMPDEST PUSH1 0x40 MLOAD PUSH2 0xC2 SWAP2 SWAP1 PUSH2 0x1933 JUMP JUMPDEST PUSH1 0x40 MLOAD DUP1 SWAP2 SUB SWAP1 RETURN JUMPDEST PUSH2 0xE5 PUSH1 0x4 DUP1 CALLDATASIZE SUB DUP2 ADD SWAP1 PUSH2 0xE0 SWAP2 SWAP1 PUSH2 0x194C JUMP JUMPDEST PUSH2 0xAFC JUMP JUMPDEST STOP JUMPDEST PUSH0 PUSH1 0x7 PUSH8 0xFFFFFFFFFFFFFFFF DUP2 GT ISZERO PUSH2 0x103 JUMPI PUSH2 0x102 PUSH2 0x1136 JUMP JUMPDEST JUMPDEST PUSH1 0x40 MLOAD SWAP1 DUP1 DUP3 MSTORE DUP1 PUSH1 0x20 MUL PUSH1 0x20 ADD DUP3 ADD PUSH1 0x40 MSTORE DUP1 ISZERO PUSH2 0x13C JUMPI DUP2 PUSH1 0x20 ADD JUMPDEST PUSH2 0x129 PUSH2 0x10EC JUMP JUMPDEST DUP2 MSTORE PUSH1 0x20 ADD SWAP1 PUSH1 0x1 SWAP1 SUB SWAP1 DUP2 PUSH2 0x121 JUMPI SWAP1 POP JUMPDEST POP SWAP1 POP PUSH2 0x180 DUP2 PUSH0 PUSH1 0x40 MLOAD DUP1 PUSH1 0x40 ADD PUSH1 0x40 MSTORE DUP1 PUSH1 0x6 DUP2 MSTORE PUSH1 0x20 ADD PUSH32 0x73656E6465720000000000000000000000000000000000000000000000000000 DUP2 MSTORE POP CALLER PUSH2 0xCE7 JUMP JUMPDEST PUSH2 0x1C2 DUP2 PUSH1 0x1 PUSH1 0x40 MLOAD DUP1 PUSH1 0x40 ADD PUSH1 0x40 MSTORE DUP1 PUSH1 0x4 DUP2 MSTORE PUSH1 0x20 ADD PUSH32 0x7573657200000000000000000000000000000000000000000000000000000000 DUP2 MSTORE POP DUP11 PUSH2 0xD7A JUMP JUMPDEST PUSH2 0x204 DUP2 PUSH1 0x2 PUSH1 0x40 MLOAD DUP1 PUSH1 0x40 ADD PUSH1 0x40 MSTORE DUP1 PUSH1 0x6 DUP2 MSTORE PUSH1 0x20 ADD PUSH32 0x7368617265640000000000000000000000000000000000000000000000000000 DUP2 MSTORE POP DUP10 PUSH2 0xE0D JUMP JUMPDEST PUSH2 0x246 DUP2 PUSH1 0x3 PUSH1 0x40 MLOAD DUP1 PUSH1 0x40 ADD PUSH1 0x40 MSTORE DUP1 PUSH1 0x5 DUP2 MSTORE PUSH1 0x20 ADD PUSH32 0x6173736574000000000000000000000000000000000000000000000000000000 DUP2 MSTORE POP DUP9 PUSH2 0xE0D JUMP JUMPDEST PUSH2 0x288 DUP2 PUSH1 0x4 PUSH1 0x40 MLOAD DUP1 PUSH1 0x40 ADD PUSH1 0x40 MSTORE DUP1 PUSH1 0x11 DUP2 MSTORE PUSH1 0x20 ADD PUSH32 0x6E65775F726573657276655F636861696E000000000000000000000000000000 DUP2 MSTORE POP DUP8 PUSH2 0xE0D JUMP JUMPDEST PUSH2 0x2CA DUP2 PUSH1 0x5 PUSH1 0x40 MLOAD DUP1 PUSH1 0x40 ADD PUSH1 0x40 MSTORE DUP1 PUSH1 0x14 DUP2 MSTORE PUSH1 0x20 ADD PUSH32 0x6E65775F726573657276655F70726F7669646572000000000000000000000000 DUP2 MSTORE POP DUP7 PUSH2 0xE0D JUMP JUMPDEST PUSH2 0x30C DUP2 PUSH1 0x6 PUSH1 0x40 MLOAD DUP1 PUSH1 0x40 ADD PUSH1 0x40 MSTORE DUP1 PUSH1 0x11 DUP2 MSTORE PUSH1 0x20 ADD PUSH32 0x6E65775F726573657276655F746F6B656E000000000000000000000000000000 DUP2 MSTORE POP DUP6 PUSH2 0xE0D JUMP JUMPDEST PUSH32 0x0 PUSH20 0xFFFFFFFFFFFFFFFFFFFFFFFFFFFFFFFFFFFFFFFF AND PUSH4 0x7D64FA9B DUP3 PUSH1 0x40 MLOAD DUP3 PUSH4 0xFFFFFFFF AND PUSH1 0xE0 SHL DUP2 MSTORE PUSH1 0x4 ADD PUSH2 0x365 SWAP2 SWAP1 PUSH2 0x1C12 JUMP JUMPDEST PUSH0 PUSH1 0x40 MLOAD DUP1 DUP4 SUB DUP2 PUSH0 DUP8 DUP1 EXTCODESIZE ISZERO DUP1 ISZERO PUSH2 0x37C JUMPI PUSH0 PUSH0 REVERT JUMPDEST POP GAS CALL ISZERO DUP1 ISZERO PUSH2 0x38E JUMPI RETURNDATASIZE PUSH0 PUSH0 RETURNDATACOPY RETURNDATASIZE PUSH0 REVERT JUMPDEST POP POP POP POP POP POP POP POP POP POP POP JUMP JUMPDEST PUSH0 PUSH1 0xA PUSH8 0xFFFFFFFFFFFFFFFF DUP2 GT ISZERO PUSH2 0x3B7 JUMPI PUSH2 0x3B6 PUSH2 0x1136 JUMP JUMPDEST JUMPDEST PUSH1 0x40 MLOAD SWAP1 DUP1 DUP3 MSTORE DUP1 PUSH1 0x20 MUL PUSH1 0x20 ADD DUP3 ADD PUSH1 0x40 MSTORE DUP1 ISZERO PUSH2 0x3F0 JUMPI DUP2 PUSH1 0x20 ADD JUMPDEST PUSH2 0x3DD PUSH2 0x10EC JUMP JUMPDEST DUP2 MSTORE PUSH1 0x20 ADD SWAP1 PUSH1 0x1 SWAP1 SUB SWAP1 DUP2 PUSH2 0x3D5 JUMPI SWAP1 POP JUMPDEST POP SWAP1 POP PUSH2 0x434 DUP2 PUSH0 PUSH1 0x40 MLOAD DUP1 PUSH1 0x40 ADD PUSH1 0x40 MSTORE DUP1 PUSH1 0x6 DUP2 MSTORE PUSH1 0x20 ADD PUSH32 0x73656E6465720000000000000000000000000000000000000000000000000000 DUP2 MSTORE POP CALLER PUSH2 0xCE7 JUMP JUMPDEST PUSH2 0x476 DUP2 PUSH1 0x1 PUSH1 0x40 MLOAD DUP1 PUSH1 0x40 ADD PUSH1 0x40 MSTORE DUP1 PUSH1 0x4 DUP2 MSTORE PUSH1 0x20 ADD PUSH32 0x7573657200000000000000000000000000000000000000000000000000000000 DUP2 MSTORE POP DUP14 PUSH2 0xD7A JUMP JUMPDEST PUSH2 0x4B8 DUP2 PUSH1 0x2 PUSH1 0x40 MLOAD DUP1 PUSH1 0x40 ADD PUSH1 0x40 MSTORE DUP1 PUSH1 0x6 DUP2 MSTORE PUSH1 0x20 ADD PUSH32 0x7368617265640000000000000000000000000000000000000000000000000000 DUP2 MSTORE POP DUP13 PUSH2 0xE0D JUMP JUMPDEST PUSH2 0x4FA DUP2 PUSH1 0x3 PUSH1 0x40 MLOAD DUP1 PUSH1 0x40 ADD PUSH1 0x40 MSTORE DUP1 PUSH1 0x5 DUP2 MSTORE PUSH1 0x20 ADD PUSH32 0x6173736574000000000000000000000000000000000000000000000000000000 DUP2 MSTORE POP DUP12 PUSH2 0xE0D JUMP JUMPDEST PUSH2 0x53C DUP2 PUSH1 0x4 PUSH1 0x40 MLOAD DUP1 PUSH1 0x40 ADD PUSH1 0x40 MSTORE DUP1 PUSH1 0x4 DUP2 MSTORE PUSH1 0x20 ADD PUSH32 0x73697A6500000000000000000000000000000000000000000000000000000000 DUP2 MSTORE POP DUP11 PUSH2 0xEA0 JUMP JUMPDEST PUSH2 0x57E DUP2 PUSH1 0x5 PUSH1 0x40 MLOAD DUP1 PUSH1 0x40 ADD PUSH1 0x40 MSTORE DUP1 PUSH1 0x8 DUP2 MSTORE PUSH1 0x20 ADD PUSH32 0x6C65766572616765000000000000000000000000000000000000000000000000 DUP2 MSTORE POP DUP10 PUSH2 0xF33 JUMP JUMPDEST PUSH2 0x5C0 DUP2 PUSH1 0x6 PUSH1 0x40 MLOAD DUP1 PUSH1 0x40 ADD PUSH1 0x40 MSTORE DUP1 PUSH1 0x6 DUP2 MSTORE PUSH1 0x20 ADD PUSH32 0x69734C6F6E670000000000000000000000000000000000000000000000000000 DUP2 MSTORE POP DUP9 PUSH2 0xFC6 JUMP JUMPDEST PUSH2 0x602 DUP2 PUSH1 0x7 PUSH1 0x40 MLOAD DUP1 PUSH1 0x40 ADD PUSH1 0x40 MSTORE DUP1 PUSH1 0xD DUP2 MSTORE PUSH1 0x20 ADD PUSH32 0x726573657276655F636861696E00000000000000000000000000000000000000 DUP2 MSTORE POP DUP8 PUSH2 0xE0D JUMP JUMPDEST PUSH2 0x644 DUP2 PUSH1 0x8 PUSH1 0x40 MLOAD DUP1 PUSH1 0x40 ADD PUSH1 0x40 MSTORE DUP1 PUSH1 0x10 DUP2 MSTORE PUSH1 0x20 ADD PUSH32 0x726573657276655F70726F766964657200000000000000000000000000000000 DUP2 MSTORE POP DUP7 PUSH2 0xE0D JUMP JUMPDEST PUSH2 0x686 DUP2 PUSH1 0x9 PUSH1 0x40 MLOAD DUP1 PUSH1 0x40 ADD PUSH1 0x40 MSTORE DUP1 PUSH1 0xD DUP2 MSTORE PUSH1 0x20 ADD PUSH32 0x726573657276655F746F6B656E00000000000000000000000000000000000000 DUP2 MSTORE POP DUP6 PUSH2 0xE0D JUMP JUMPDEST PUSH32 0x0 PUSH20 0xFFFFFFFFFFFFFFFFFFFFFFFFFFFFFFFFFFFFFFFF AND PUSH4 0x7D64FA9B DUP3 PUSH1 0x40 MLOAD DUP3 PUSH4 0xFFFFFFFF AND PUSH1 0xE0 SHL DUP2 MSTORE PUSH1 0x4 ADD PUSH2 0x6DF SWAP2 SWAP1 PUSH2 0x1C8F JUMP JUMPDEST PUSH0 PUSH1 0x40 MLOAD DUP1 DUP4 SUB DUP2 PUSH0 DUP8 DUP1 EXTCODESIZE ISZERO DUP1 ISZERO PUSH2 0x6F6 JUMPI PUSH0 PUSH0 REVERT JUMPDEST POP GAS CALL ISZERO DUP1 ISZERO PUSH2 0x708 JUMPI RETURNDATASIZE PUSH0 PUSH0 RETURNDATACOPY RETURNDATASIZE PUSH0 REVERT JUMPDEST POP POP POP POP POP POP POP POP POP POP POP POP POP POP JUMP JUMPDEST PUSH0 PUSH1 0xB PUSH8 0xFFFFFFFFFFFFFFFF DUP2 GT ISZERO PUSH2 0x734 JUMPI PUSH2 0x733 PUSH2 0x1136 JUMP JUMPDEST JUMPDEST PUSH1 0x40 MLOAD SWAP1 DUP1 DUP3 MSTORE DUP1 PUSH1 0x20 MUL PUSH1 0x20 ADD DUP3 ADD PUSH1 0x40 MSTORE DUP1 ISZERO PUSH2 0x76D JUMPI DUP2 PUSH1 0x20 ADD JUMPDEST PUSH2 0x75A PUSH2 0x10EC JUMP JUMPDEST DUP2 MSTORE PUSH1 0x20 ADD SWAP1 PUSH1 0x1 SWAP1 SUB SWAP1 DUP2 PUSH2 0x752 JUMPI SWAP1 POP JUMPDEST POP SWAP1 POP PUSH2 0x7B1 DUP2 PUSH0 PUSH1 0x40 MLOAD DUP1 PUSH1 0x40 ADD PUSH1 0x40 MSTORE DUP1 PUSH1 0x6 DUP2 MSTORE PUSH1 0x20 ADD PUSH32 0x73656E6465720000000000000000000000000000000000000000000000000000 DUP2 MSTORE POP CALLER PUSH2 0xCE7 JUMP JUMPDEST PUSH2 0x7F3 DUP2 PUSH1 0x1 PUSH1 0x40 MLOAD DUP1 PUSH1 0x40 ADD PUSH1 0x40 MSTORE DUP1 PUSH1 0x4 DUP2 MSTORE PUSH1 0x20 ADD PUSH32 0x7573657200000000000000000000000000000000000000000000000000000000 DUP2 MSTORE POP DUP15 PUSH2 0xD7A JUMP JUMPDEST PUSH2 0x835 DUP2 PUSH1 0x2 PUSH1 0x40 MLOAD DUP1 PUSH1 0x40 ADD PUSH1 0x40 MSTORE DUP1 PUSH1 0x6 DUP2 MSTORE PUSH1 0x20 ADD PUSH32 0x7368617265640000000000000000000000000000000000000000000000000000 DUP2 MSTORE POP DUP14 PUSH2 0xE0D JUMP JUMPDEST PUSH2 0x877 DUP2 PUSH1 0x3 PUSH1 0x40 MLOAD DUP1 PUSH1 0x40 ADD PUSH1 0x40 MSTORE DUP1 PUSH1 0x5 DUP2 MSTORE PUSH1 0x20 ADD PUSH32 0x6173736574000000000000000000000000000000000000000000000000000000 DUP2 MSTORE POP DUP13 PUSH2 0xE0D JUMP JUMPDEST PUSH2 0x8B9 DUP2 PUSH1 0x4 PUSH1 0x40 MLOAD DUP1 PUSH1 0x40 ADD PUSH1 0x40 MSTORE DUP1 PUSH1 0x4 DUP2 MSTORE PUSH1 0x20 ADD PUSH32 0x73697A6500000000000000000000000000000000000000000000000000000000 DUP2 MSTORE POP DUP12 PUSH2 0xEA0 JUMP JUMPDEST PUSH2 0x8FB DUP2 PUSH1 0x5 PUSH1 0x40 MLOAD DUP1 PUSH1 0x40 ADD PUSH1 0x40 MSTORE DUP1 PUSH1 0x8 DUP2 MSTORE PUSH1 0x20 ADD PUSH32 0x6C65766572616765000000000000000000000000000000000000000000000000 DUP2 MSTORE POP DUP11 PUSH2 0xF33 JUMP JUMPDEST PUSH2 0x93D DUP2 PUSH1 0x6 PUSH1 0x40 MLOAD DUP1 PUSH1 0x40 ADD PUSH1 0x40 MSTORE DUP1 PUSH1 0x6 DUP2 MSTORE PUSH1 0x20 ADD PUSH32 0x69734C6F6E670000000000000000000000000000000000000000000000000000 DUP2 MSTORE POP DUP10 PUSH2 0xFC6 JUMP JUMPDEST PUSH2 0x97F DUP2 PUSH1 0x7 PUSH1 0x40 MLOAD DUP1 PUSH1 0x40 ADD PUSH1 0x40 MSTORE DUP1 PUSH1 0xD DUP2 MSTORE PUSH1 0x20 ADD PUSH32 0x726573657276655F636861696E00000000000000000000000000000000000000 DUP2 MSTORE POP DUP9 PUSH2 0xE0D JUMP JUMPDEST PUSH2 0x9C1 DUP2 PUSH1 0x8 PUSH1 0x40 MLOAD DUP1 PUSH1 0x40 ADD PUSH1 0x40 MSTORE DUP1 PUSH1 0x10 DUP2 MSTORE PUSH1 0x20 ADD PUSH32 0x726573657276655F70726F766964657200000000000000000000000000000000 DUP2 MSTORE POP DUP8 PUSH2 0xE0D JUMP JUMPDEST PUSH2 0xA03 DUP2 PUSH1 0x9 PUSH1 0x40 MLOAD DUP1 PUSH1 0x40 ADD PUSH1 0x40 MSTORE DUP1 PUSH1 0xD DUP2 MSTORE PUSH1 0x20 ADD PUSH32 0x726573657276655F746F6B656E00000000000000000000000000000000000000 DUP2 MSTORE POP DUP7 PUSH2 0xE0D JUMP JUMPDEST PUSH2 0xA45 DUP2 PUSH1 0xA PUSH1 0x40 MLOAD DUP1 PUSH1 0x40 ADD PUSH1 0x40 MSTORE DUP1 PUSH1 0x11 DUP2 MSTORE PUSH1 0x20 ADD PUSH32 0x70726963655F7570646174655F64617461000000000000000000000000000000 DUP2 MSTORE POP DUP6 PUSH2 0x1059 JUMP JUMPDEST PUSH32 0x0 PUSH20 0xFFFFFFFFFFFFFFFFFFFFFFFFFFFFFFFFFFFFFFFF AND PUSH4 0x7D64FA9B DUP3 PUSH1 0x40 MLOAD DUP3 PUSH4 0xFFFFFFFF AND PUSH1 0xE0 SHL DUP2 MSTORE PUSH1 0x4 ADD PUSH2 0xA9E SWAP2 SWAP1 PUSH2 0x1D0C JUMP JUMPDEST PUSH0 PUSH1 0x40 MLOAD DUP1 DUP4 SUB DUP2 PUSH0 DUP8 DUP1 EXTCODESIZE ISZERO DUP1 ISZERO PUSH2 0xAB5 JUMPI PUSH0 PUSH0 REVERT JUMPDEST POP GAS CALL ISZERO DUP1 ISZERO PUSH2 0xAC7 JUMPI RETURNDATASIZE PUSH0 PUSH0 RETURNDATACOPY RETURNDATASIZE PUSH0 REVERT JUMPDEST POP POP POP POP POP POP POP POP POP POP POP POP POP POP POP JUMP JUMPDEST PUSH32 0x0 DUP2 JUMP JUMPDEST PUSH0 PUSH1 0x4 PUSH8 0xFFFFFFFFFFFFFFFF DUP2 GT ISZERO PUSH2 0xB18 JUMPI PUSH2 0xB17 PUSH2 0x1136 JUMP JUMPDEST JUMPDEST PUSH1 0x40 MLOAD SWAP1 DUP1 DUP3 MSTORE DUP1 PUSH1 0x20 MUL PUSH1 0x20 ADD DUP3 ADD PUSH1 0x40 MSTORE DUP1 ISZERO PUSH2 0xB51 JUMPI DUP2 PUSH1 0x20 ADD JUMPDEST PUSH2 0xB3E PUSH2 0x10EC JUMP JUMPDEST DUP2 MSTORE PUSH1 0x20 ADD SWAP1 PUSH1 0x1 SWAP1 SUB SWAP1 DUP2 PUSH2 0xB36 JUMPI SWAP1 POP JUMPDEST POP SWAP1 POP PUSH2 0xB95 DUP2 PUSH0 PUSH1 0x40 MLOAD DUP1 PUSH1 0x40 ADD PUSH1 0x40 MSTORE DUP1 PUSH1 0x6 DUP2 MSTORE PUSH1 0x20 ADD PUSH32 0x73656E6465720000000000000000000000000000000000000000000000000000 DUP2 MSTORE POP CALLER PUSH2 0xCE7 JUMP JUMPDEST PUSH2 0xBD7 DUP2 PUSH1 0x1 PUSH1 0x40 MLOAD DUP1 PUSH1 0x40 ADD PUSH1 0x40 MSTORE DUP1 PUSH1 0x4 DUP2 MSTORE PUSH1 0x20 ADD PUSH32 0x7573657200000000000000000000000000000000000000000000000000000000 DUP2 MSTORE POP DUP8 PUSH2 0xD7A JUMP JUMPDEST PUSH2 0xC19 DUP2 PUSH1 0x2 PUSH1 0x40 MLOAD DUP1 PUSH1 0x40 ADD PUSH1 0x40 MSTORE DUP1 PUSH1 0x6 DUP2 MSTORE PUSH1 0x20 ADD PUSH32 0x7368617265640000000000000000000000000000000000000000000000000000 DUP2 MSTORE POP DUP7 PUSH2 0xE0D JUMP JUMPDEST PUSH2 0xC5B DUP2 PUSH1 0x3 PUSH1 0x40 MLOAD DUP1 PUSH1 0x40 ADD PUSH1 0x40 MSTORE DUP1 PUSH1 0x5 DUP2 MSTORE PUSH1 0x20 ADD PUSH32 0x6173736574000000000000000000000000000000000000000000000000000000 DUP2 MSTORE POP DUP6 PUSH2 0xE0D JUMP JUMPDEST PUSH32 0x0 PUSH20 0xFFFFFFFFFFFFFFFFFFFFFFFFFFFFFFFFFFFFFFFF AND PUSH4 0x7D64FA9B DUP3 PUSH1 0x40 MLOAD DUP3 PUSH4 0xFFFFFFFF AND PUSH1 0xE0 SHL DUP2 MSTORE PUSH1 0x4 ADD PUSH2 0xCB4 SWAP2 SWAP1 PUSH2 0x1D89 JUMP JUMPDEST PUSH0 PUSH1 0x40 MLOAD DUP1 DUP4 SUB DUP2 PUSH0 DUP8 DUP1 EXTCODESIZE ISZERO DUP1 ISZERO PUSH2 0xCCB JUMPI PUSH0 PUSH0 REVERT JUMPDEST POP GAS CALL ISZERO DUP1 ISZERO PUSH2 0xCDD JUMPI RETURNDATASIZE PUSH0 PUSH0 RETURNDATACOPY RETURNDATASIZE PUSH0 REVERT JUMPDEST POP POP POP POP POP POP POP POP JUMP JUMPDEST PUSH1 0x40 MLOAD DUP1 PUSH1 0x60 ADD PUSH1 0x40 MSTORE DUP1 DUP4 DUP2 MSTORE PUSH1 0x20 ADD PUSH1 0x40 MLOAD DUP1 PUSH1 0x40 ADD PUSH1 0x40 MSTORE DUP1 PUSH1 0x7 DUP2 MSTORE PUSH1 0x20 ADD PUSH32 0x6164647265737300000000000000000000000000000000000000000000000000 DUP2 MSTORE POP DUP2 MSTORE PUSH1 0x20 ADD DUP3 PUSH1 0x40 MLOAD PUSH1 0x20 ADD PUSH2 0xD44 SWAP2 SWAP1 PUSH2 0x1DDC JUMP JUMPDEST PUSH1 0x40 MLOAD PUSH1 0x20 DUP2 DUP4 SUB SUB DUP2 MSTORE SWAP1 PUSH1 0x40 MSTORE DUP2 MSTORE POP DUP5 DUP5 DUP2 MLOAD DUP2 LT PUSH2 0xD69 JUMPI PUSH2 0xD68 PUSH2 0x1DF5 JUMP JUMPDEST JUMPDEST PUSH1 0x20 MUL PUSH1 0x20 ADD ADD DUP2 SWAP1 MSTORE POP POP POP POP POP JUMP JUMPDEST PUSH1 0x40 MLOAD DUP1 PUSH1 0x60 ADD PUSH1 0x40 MSTORE DUP1 DUP4 DUP2 MSTORE PUSH1 0x20 ADD PUSH1 0x40 MLOAD DUP1 PUSH1 0x40 ADD PUSH1 0x40 MSTORE DUP1 PUSH1 0x5 DUP2 MSTORE PUSH1 0x20 ADD PUSH32 0x6279746573000000000000000000000000000000000000000000000000000000 DUP2 MSTORE POP DUP2 MSTORE PUSH1 0x20 ADD DUP3 PUSH1 0x40 MLOAD PUSH1 0x20 ADD PUSH2 0xDD7 SWAP2 SWAP1 PUSH2 0x1E6A JUMP JUMPDEST PUSH1 0x40 MLOAD PUSH1 0x20 DUP2 DUP4 SUB SUB DUP2 MSTORE SWAP1 PUSH1 0x40 MSTORE DUP2 MSTORE POP DUP5 DUP5 DUP2 MLOAD DUP2 LT PUSH2 0xDFC JUMPI PUSH2 0xDFB PUSH2 0x1DF5 JUMP JUMPDEST JUMPDEST PUSH1 0x20 MUL PUSH1 0x20 ADD ADD DUP2 SWAP1 MSTORE POP POP POP POP POP JUMP JUMPDEST PUSH1 0x40 MLOAD DUP1 PUSH1 0x60 ADD PUSH1 0x40 MSTORE DUP1 DUP4 DUP2 MSTORE PUSH1 0x20 ADD PUSH1 0x40 MLOAD DUP1 PUSH1 0x40 ADD PUSH1 0x40 MSTORE DUP1 PUSH1 0x6 DUP2 MSTORE PUSH1 0x20 ADD PUSH32 0x737472696E670000000000000000000000000000000000000000000000000000 DUP2 MSTORE POP DUP2 MSTORE PUSH1 0x20 ADD DUP3 PUSH1 0x40 MLOAD PUSH1 0x20 ADD PUSH2 0xE6A SWAP2 SWAP1 PUSH2 0x1EC2 JUMP JUMPDEST PUSH1 0x40 MLOAD PUSH1 0x20 DUP2 DUP4 SUB SUB DUP2 MSTORE SWAP1 PUSH1 0x40 MSTORE DUP2 MSTORE POP DUP5 DUP5 DUP2 MLOAD DUP2 LT PUSH2 0xE8F JUMPI PUSH2 0xE8E PUSH2 0x1DF5 JUMP JUMPDEST JUMPDEST PUSH1 0x20 MUL PUSH1 0x20 ADD ADD DUP2 SWAP1 MSTORE POP POP POP POP POP JUMP JUMPDEST PUSH1 0x40 MLOAD DUP1 PUSH1 0x60 ADD PUSH1 0x40 MSTORE DUP1 DUP4 DUP2 MSTORE PUSH1 0x20 ADD PUSH1 0x40 MLOAD DUP1 PUSH1 0x40 ADD PUSH1 0x40 MSTORE DUP1 PUSH1 0x7 DUP2 MSTORE PUSH1 0x20 ADD PUSH32 0x75696E7432353600000000000000000000000000000000000000000000000000 DUP2 MSTORE POP DUP2 MSTORE PUSH1 0x20 ADD DUP3 PUSH1 0x40 MLOAD PUSH1 0x20 ADD PUSH2 0xEFD SWAP2 SWAP1 PUSH2 0x1EF1 JUMP JUMPDEST PUSH1 0x40 MLOAD PUSH1 0x20 DUP2 DUP4 SUB SUB DUP2 MSTORE SWAP1 PUSH1 0x40 MSTORE DUP2 MSTORE POP DUP5 DUP5 DUP2 MLOAD DUP2 LT PUSH2 0xF22 JUMPI PUSH2 0xF21 PUSH2 0x1DF5 JUMP JUMPDEST JUMPDEST PUSH1 0x20 MUL PUSH1 0x20 ADD ADD DUP2 SWAP1 MSTORE POP POP POP POP POP JUMP JUMPDEST PUSH1 0x40 MLOAD DUP1 PUSH1 0x60 ADD PUSH1 0x40 MSTORE DUP1 DUP4 DUP2 MSTORE PUSH1 0x20 ADD PUSH1 0x40 MLOAD DUP1 PUSH1 0x40 ADD PUSH1 0x40 MSTORE DUP1 PUSH1 0x6 DUP2 MSTORE PUSH1 0x20 ADD PUSH32 0x75696E7436340000000000000000000000000000000000000000000000000000 DUP2 MSTORE POP DUP2 MSTORE PUSH1 0x20 ADD DUP3 PUSH1 0x40 MLOAD PUSH1 0x20 ADD PUSH2 0xF90 SWAP2 SWAP1 PUSH2 0x1F19 JUMP JUMPDEST PUSH1 0x40 MLOAD PUSH1 0x20 DUP2 DUP4 SUB SUB DUP2 MSTORE SWAP1 PUSH1 0x40 MSTORE DUP2 MSTORE POP DUP5 DUP5 DUP2 MLOAD DUP2 LT PUSH2 0xFB5 JUMPI PUSH2 0xFB4 PUSH2 0x1DF5 JUMP JUMPDEST JUMPDEST PUSH1 0x20 MUL PUSH1 0x20 ADD ADD DUP2 SWAP1 MSTORE POP POP POP POP POP JUMP JUMPDEST PUSH1 0x40 MLOAD DUP1 PUSH1 0x60 ADD PUSH1 0x40 MSTORE DUP1 DUP4 DUP2 MSTORE PUSH1 0x20 ADD PUSH1 0x40 MLOAD DUP1 PUSH1 0x40 ADD PUSH1 0x40 MSTORE DUP1 PUSH1 0x4 DUP2 MSTORE PUSH1 0x20 ADD PUSH32 0x626F6F6C00000000000000000000000000000000000000000000000000000000 DUP2 MSTORE POP DUP2 MSTORE PUSH1 0x20 ADD DUP3 PUSH1 0x40 MLOAD PUSH1 0x20 ADD PUSH2 0x1023 SWAP2 SWAP1 PUSH2 0x1F41 JUMP JUMPDEST PUSH1 0x40 MLOAD PUSH1 0x20 DUP2 DUP4 SUB SUB DUP2 MSTORE SWAP1 PUSH1 0x40 MSTORE DUP2 MSTORE POP DUP5 DUP5 DUP2 MLOAD DUP2 LT PUSH2 0x1048 JUMPI PUSH2 0x1047 PUSH2 0x1DF5 JUMP JUMPDEST JUMPDEST PUSH1 0x20 MUL PUSH1 0x20 ADD ADD DUP2 SWAP1 MSTORE POP POP POP POP POP JUMP JUMPDEST PUSH1 0x40 MLOAD DUP1 PUSH1 0x60 ADD PUSH1 0x40 MSTORE DUP1 DUP4 DUP2 MSTORE PUSH1 0x20 ADD PUSH1 0x40 MLOAD DUP1 PUSH1 0x40 ADD PUSH1 0x40 MSTORE DUP1 PUSH1 0x7 DUP2 MSTORE PUSH1 0x20 ADD PUSH32 0x62797465735B5D00000000000000000000000000000000000000000000000000 DUP2 MSTORE POP DUP2 MSTORE PUSH1 0x20 ADD DUP3 PUSH1 0x40 MLOAD PUSH1 0x20 ADD PUSH2 0x10B6 SWAP2 SWAP1 PUSH2 0x2015 JUMP JUMPDEST PUSH1 0x40 MLOAD PUSH1 0x20 DUP2 DUP4 SUB SUB DUP2 MSTORE SWAP1 PUSH1 0x40 MSTORE DUP2 MSTORE POP DUP5 DUP5 DUP2 MLOAD DUP2 LT PUSH2 0x10DB JUMPI PUSH2 0x10DA PUSH2 0x1DF5 JUMP JUMPDEST JUMPDEST PUSH1 0x20 MUL PUSH1 0x20 ADD ADD DUP2 SWAP1 MSTORE POP POP POP POP POP JUMP JUMPDEST PUSH1 0x40 MLOAD DUP1 PUSH1 0x60 ADD PUSH1 0x40 MSTORE DUP1 PUSH1 0x60 DUP2 MSTORE PUSH1 0x20 ADD PUSH1 0x60 DUP2 MSTORE PUSH1 0x20 ADD PUSH1 0x60 DUP2 MSTORE POP SWAP1 JUMP JUMPDEST PUSH0 PUSH1 0x40 MLOAD SWAP1 POP SWAP1 JUMP JUMPDEST PUSH0 PUSH0 REVERT JUMPDEST PUSH0 PUSH0 REVERT JUMPDEST PUSH0 PUSH0 REVERT JUMPDEST PUSH0 PUSH0 REVERT JUMPDEST PUSH0 PUSH1 0x1F NOT PUSH1 0x1F DUP4 ADD AND SWAP1 POP SWAP2 SWAP1 POP JUMP JUMPDEST PUSH32 0x4E487B7100000000000000000000000000000000000000000000000000000000 PUSH0 MSTORE PUSH1 0x41 PUSH1 0x4 MSTORE PUSH1 0x24 PUSH0 REVERT JUMPDEST PUSH2 0x116C DUP3 PUSH2 0x1126 JUMP JUMPDEST DUP2 ADD DUP2 DUP2 LT PUSH8 0xFFFFFFFFFFFFFFFF DUP3 GT OR ISZERO PUSH2 0x118B JUMPI PUSH2 0x118A PUSH2 0x1136 JUMP JUMPDEST JUMPDEST DUP1 PUSH1 0x40 MSTORE POP POP POP JUMP JUMPDEST PUSH0 PUSH2 0x119D PUSH2 0x110D JUMP JUMPDEST SWAP1 POP PUSH2 0x11A9 DUP3 DUP3 PUSH2 0x1163 JUMP JUMPDEST SWAP2 SWAP1 POP JUMP JUMPDEST PUSH0 PUSH8 0xFFFFFFFFFFFFFFFF DUP3 GT ISZERO PUSH2 0x11C8 JUMPI PUSH2 0x11C7 PUSH2 0x1136 JUMP JUMPDEST JUMPDEST PUSH2 0x11D1 DUP3 PUSH2 0x1126 JUMP JUMPDEST SWAP1 POP PUSH1 0x20 DUP2 ADD SWAP1 POP SWAP2 SWAP1 POP JUMP JUMPDEST DUP3 DUP2 DUP4 CALLDATACOPY PUSH0 DUP4 DUP4 ADD MSTORE POP POP POP JUMP JUMPDEST PUSH0 PUSH2 0x11FE PUSH2 0x11F9 DUP5 PUSH2 0x11AE JUMP JUMPDEST PUSH2 0x1194 JUMP JUMPDEST SWAP1 POP DUP3 DUP2 MSTORE PUSH1 0x20 DUP2 ADD DUP5 DUP5 DUP5 ADD GT ISZERO PUSH2 0x121A JUMPI PUSH2 0x1219 PUSH2 0x1122 JUMP JUMPDEST JUMPDEST PUSH2 0x1225 DUP5 DUP3 DUP6 PUSH2 0x11DE JUMP JUMPDEST POP SWAP4 SWAP3 POP POP POP JUMP JUMPDEST PUSH0 DUP3 PUSH1 0x1F DUP4 ADD SLT PUSH2 0x1241 JUMPI PUSH2 0x1240 PUSH2 0x111E JUMP JUMPDEST JUMPDEST DUP2 CALLDATALOAD PUSH2 0x1251 DUP5 DUP3 PUSH1 0x20 DUP7 ADD PUSH2 0x11EC JUMP JUMPDEST SWAP2 POP POP SWAP3 SWAP2 POP POP JUMP JUMPDEST PUSH0 PUSH8 0xFFFFFFFFFFFFFFFF DUP3 GT ISZERO PUSH2 0x1274 JUMPI PUSH2 0x1273 PUSH2 0x1136 JUMP JUMPDEST JUMPDEST PUSH2 0x127D DUP3 PUSH2 0x1126 JUMP JUMPDEST SWAP1 POP PUSH1 0x20 DUP2 ADD SWAP1 POP SWAP2 SWAP1 POP JUMP JUMPDEST PUSH0 PUSH2 0x129C PUSH2 0x1297 DUP5 PUSH2 0x125A JUMP JUMPDEST PUSH2 0x1194 JUMP JUMPDEST SWAP1 POP DUP3 DUP2 MSTORE PUSH1 0x20 DUP2 ADD DUP5 DUP5 DUP5 ADD GT ISZERO PUSH2 0x12B8 JUMPI PUSH2 0x12B7 PUSH2 0x1122 JUMP JUMPDEST JUMPDEST PUSH2 0x12C3 DUP5 DUP3 DUP6 PUSH2 0x11DE JUMP JUMPDEST POP SWAP4 SWAP3 POP POP POP JUMP JUMPDEST PUSH0 DUP3 PUSH1 0x1F DUP4 ADD SLT PUSH2 0x12DF JUMPI PUSH2 0x12DE PUSH2 0x111E JUMP JUMPDEST JUMPDEST DUP2 CALLDATALOAD PUSH2 0x12EF DUP5 DUP3 PUSH1 0x20 DUP7 ADD PUSH2 0x128A JUMP JUMPDEST SWAP2 POP POP SWAP3 SWAP2 POP POP JUMP JUMPDEST PUSH0 PUSH0 PUSH0 PUSH0 PUSH0 PUSH0 PUSH1 0xC0 DUP8 DUP10 SUB SLT ISZERO PUSH2 0x1312 JUMPI PUSH2 0x1311 PUSH2 0x1116 JUMP JUMPDEST JUMPDEST PUSH0 DUP8 ADD CALLDATALOAD PUSH8 0xFFFFFFFFFFFFFFFF DUP2 GT ISZERO PUSH2 0x132F JUMPI PUSH2 0x132E PUSH2 0x111A JUMP JUMPDEST JUMPDEST PUSH2 0x133B DUP10 DUP3 DUP11 ADD PUSH2 0x122D JUMP JUMPDEST SWAP7 POP POP PUSH1 0x20 DUP8 ADD CALLDATALOAD PUSH8 0xFFFFFFFFFFFFFFFF DUP2 GT ISZERO PUSH2 0x135C JUMPI PUSH2 0x135B PUSH2 0x111A JUMP JUMPDEST JUMPDEST PUSH2 0x1368 DUP10 DUP3 DUP11 ADD PUSH2 0x12CB JUMP JUMPDEST SWAP6 POP POP PUSH1 0x40 DUP8 ADD CALLDATALOAD PUSH8 0xFFFFFFFFFFFFFFFF DUP2 GT ISZERO PUSH2 0x1389 JUMPI PUSH2 0x1388 PUSH2 0x111A JUMP JUMPDEST JUMPDEST PUSH2 0x1395 DUP10 DUP3 DUP11 ADD PUSH2 0x12CB JUMP JUMPDEST SWAP5 POP POP PUSH1 0x60 DUP8 ADD CALLDATALOAD PUSH8 0xFFFFFFFFFFFFFFFF DUP2 GT ISZERO PUSH2 0x13B6 JUMPI PUSH2 0x13B5 PUSH2 0x111A JUMP JUMPDEST JUMPDEST PUSH2 0x13C2 DUP10 DUP3 DUP11 ADD PUSH2 0x12CB JUMP JUMPDEST SWAP4 POP POP PUSH1 0x80 DUP8 ADD CALLDATALOAD PUSH8 0xFFFFFFFFFFFFFFFF DUP2 GT ISZERO PUSH2 0x13E3 JUMPI PUSH2 0x13E2 PUSH2 0x111A JUMP JUMPDEST JUMPDEST PUSH2 0x13EF DUP10 DUP3 DUP11 ADD PUSH2 0x12CB JUMP JUMPDEST SWAP3 POP POP PUSH1 0xA0 DUP8 ADD CALLDATALOAD PUSH8 0xFFFFFFFFFFFFFFFF DUP2 GT ISZERO PUSH2 0x1410 JUMPI PUSH2 0x140F PUSH2 0x111A JUMP JUMPDEST JUMPDEST PUSH2 0x141C DUP10 DUP3 DUP11 ADD PUSH2 0x12CB JUMP JUMPDEST SWAP2 POP POP SWAP3 SWAP6 POP SWAP3 SWAP6 POP SWAP3 SWAP6 JUMP JUMPDEST PUSH0 DUP2 SWAP1 POP SWAP2 SWAP1 POP JUMP JUMPDEST PUSH2 0x143B DUP2 PUSH2 0x1429 JUMP JUMPDEST DUP2 EQ PUSH2 0x1445 JUMPI PUSH0 PUSH0 REVERT JUMPDEST POP JUMP JUMPDEST PUSH0 DUP2 CALLDATALOAD SWAP1 POP PUSH2 0x1456 DUP2 PUSH2 0x1432 JUMP JUMPDEST SWAP3 SWAP2 POP POP JUMP JUMPDEST PUSH0 PUSH8 0xFFFFFFFFFFFFFFFF DUP3 AND SWAP1 POP SWAP2 SWAP1 POP JUMP JUMPDEST PUSH2 0x1478 DUP2 PUSH2 0x145C JUMP JUMPDEST DUP2 EQ PUSH2 0x1482 JUMPI PUSH0 PUSH0 REVERT JUMPDEST POP JUMP JUMPDEST PUSH0 DUP2 CALLDATALOAD SWAP1 POP PUSH2 0x1493 DUP2 PUSH2 0x146F JUMP JUMPDEST SWAP3 SWAP2 POP POP JUMP JUMPDEST PUSH0 DUP2 ISZERO ISZERO SWAP1 POP SWAP2 SWAP1 POP JUMP JUMPDEST PUSH2 0x14AD DUP2 PUSH2 0x1499 JUMP JUMPDEST DUP2 EQ PUSH2 0x14B7 JUMPI PUSH0 PUSH0 REVERT JUMPDEST POP JUMP JUMPDEST PUSH0 DUP2 CALLDATALOAD SWAP1 POP PUSH2 0x14C8 DUP2 PUSH2 0x14A4 JUMP JUMPDEST SWAP3 SWAP2 POP POP JUMP JUMPDEST PUSH0 PUSH0 PUSH0 PUSH0 PUSH0 PUSH0 PUSH0 PUSH0 PUSH0 PUSH2 0x120 DUP11 DUP13 SUB SLT ISZERO PUSH2 0x14EC JUMPI PUSH2 0x14EB PUSH2 0x1116 JUMP JUMPDEST JUMPDEST PUSH0 DUP11 ADD CALLDATALOAD PUSH8 0xFFFFFFFFFFFFFFFF DUP2 GT ISZERO PUSH2 0x1509 JUMPI PUSH2 0x1508 PUSH2 0x111A JUMP JUMPDEST JUMPDEST PUSH2 0x1515 DUP13 DUP3 DUP14 ADD PUSH2 0x122D JUMP JUMPDEST SWAP10 POP POP PUSH1 0x20 DUP11 ADD CALLDATALOAD PUSH8 0xFFFFFFFFFFFFFFFF DUP2 GT ISZERO PUSH2 0x1536 JUMPI PUSH2 0x1535 PUSH2 0x111A JUMP JUMPDEST JUMPDEST PUSH2 0x1542 DUP13 DUP3 DUP14 ADD PUSH2 0x12CB JUMP JUMPDEST SWAP9 POP POP PUSH1 0x40 DUP11 ADD CALLDATALOAD PUSH8 0xFFFFFFFFFFFFFFFF DUP2 GT ISZERO PUSH2 0x1563 JUMPI PUSH2 0x1562 PUSH2 0x111A JUMP JUMPDEST JUMPDEST PUSH2 0x156F DUP13 DUP3 DUP14 ADD PUSH2 0x12CB JUMP JUMPDEST SWAP8 POP POP PUSH1 0x60 PUSH2 0x1580 DUP13 DUP3 DUP14 ADD PUSH2 0x1448 JUMP JUMPDEST SWAP7 POP POP PUSH1 0x80 PUSH2 0x1591 DUP13 DUP3 DUP14 ADD PUSH2 0x1485 JUMP JUMPDEST SWAP6 POP POP PUSH1 0xA0 PUSH2 0x15A2 DUP13 DUP3 DUP14 ADD PUSH2 0x14BA JUMP JUMPDEST SWAP5 POP POP PUSH1 0xC0 DUP11 ADD CALLDATALOAD PUSH8 0xFFFFFFFFFFFFFFFF DUP2 GT ISZERO PUSH2 0x15C3 JUMPI PUSH2 0x15C2 PUSH2 0x111A JUMP JUMPDEST JUMPDEST PUSH2 0x15CF DUP13 DUP3 DUP14 ADD PUSH2 0x12CB JUMP JUMPDEST SWAP4 POP POP PUSH1 0xE0 DUP11 ADD CALLDATALOAD PUSH8 0xFFFFFFFFFFFFFFFF DUP2 GT ISZERO PUSH2 0x15F0 JUMPI PUSH2 0x15EF PUSH2 0x111A JUMP JUMPDEST JUMPDEST PUSH2 0x15FC DUP13 DUP3 DUP14 ADD PUSH2 0x12CB JUMP JUMPDEST SWAP3 POP POP PUSH2 0x100 DUP11 ADD CALLDATALOAD PUSH8 0xFFFFFFFFFFFFFFFF DUP2 GT ISZERO PUSH2 0x161E JUMPI PUSH2 0x161D PUSH2 0x111A JUMP JUMPDEST JUMPDEST PUSH2 0x162A DUP13 DUP3 DUP14 ADD PUSH2 0x12CB JUMP JUMPDEST SWAP2 POP POP SWAP3 SWAP6 SWAP9 POP SWAP3 SWAP6 SWAP9 POP SWAP3 SWAP6 SWAP9 JUMP JUMPDEST PUSH0 PUSH8 0xFFFFFFFFFFFFFFFF DUP3 GT ISZERO PUSH2 0x1654 JUMPI PUSH2 0x1653 PUSH2 0x1136 JUMP JUMPDEST JUMPDEST PUSH1 0x20 DUP3 MUL SWAP1 POP PUSH1 0x20 DUP2 ADD SWAP1 POP SWAP2 SWAP1 POP JUMP JUMPDEST PUSH0 PUSH0 REVERT JUMPDEST PUSH0 PUSH2 0x167B PUSH2 0x1676 DUP5 PUSH2 0x163A JUMP JUMPDEST PUSH2 0x1194 JUMP JUMPDEST SWAP1 POP DUP1 DUP4 DUP3 MSTORE PUSH1 0x20 DUP3 ADD SWAP1 POP PUSH1 0x20 DUP5 MUL DUP4 ADD DUP6 DUP2 GT ISZERO PUSH2 0x169E JUMPI PUSH2 0x169D PUSH2 0x1665 JUMP JUMPDEST JUMPDEST DUP4 JUMPDEST DUP2 DUP2 LT ISZERO PUSH2 0x16E5 JUMPI DUP1 CALLDATALOAD PUSH8 0xFFFFFFFFFFFFFFFF DUP2 GT ISZERO PUSH2 0x16C3 JUMPI PUSH2 0x16C2 PUSH2 0x111E JUMP JUMPDEST JUMPDEST DUP1 DUP7 ADD PUSH2 0x16D0 DUP10 DUP3 PUSH2 0x122D JUMP JUMPDEST DUP6 MSTORE PUSH1 0x20 DUP6 ADD SWAP5 POP POP POP PUSH1 0x20 DUP2 ADD SWAP1 POP PUSH2 0x16A0 JUMP JUMPDEST POP POP POP SWAP4 SWAP3 POP POP POP JUMP JUMPDEST PUSH0 DUP3 PUSH1 0x1F DUP4 ADD SLT PUSH2 0x1703 JUMPI PUSH2 0x1702 PUSH2 0x111E JUMP JUMPDEST JUMPDEST DUP2 CALLDATALOAD PUSH2 0x1713 DUP5 DUP3 PUSH1 0x20 DUP7 ADD PUSH2 0x1669 JUMP JUMPDEST SWAP2 POP POP SWAP3 SWAP2 POP POP JUMP JUMPDEST PUSH0 PUSH0 PUSH0 PUSH0 PUSH0 PUSH0 PUSH0 PUSH0 PUSH0 PUSH0 PUSH2 0x140 DUP12 DUP14 SUB SLT ISZERO PUSH2 0x173B JUMPI PUSH2 0x173A PUSH2 0x1116 JUMP JUMPDEST JUMPDEST PUSH0 DUP12 ADD CALLDATALOAD PUSH8 0xFFFFFFFFFFFFFFFF DUP2 GT ISZERO PUSH2 0x1758 JUMPI PUSH2 0x1757 PUSH2 0x111A JUMP JUMPDEST JUMPDEST PUSH2 0x1764 DUP14 DUP3 DUP15 ADD PUSH2 0x122D JUMP JUMPDEST SWAP11 POP POP PUSH1 0x20 DUP12 ADD CALLDATALOAD PUSH8 0xFFFFFFFFFFFFFFFF DUP2 GT ISZERO PUSH2 0x1785 JUMPI PUSH2 0x1784 PUSH2 0x111A JUMP JUMPDEST JUMPDEST PUSH2 0x1791 DUP14 DUP3 DUP15 ADD PUSH2 0x12CB JUMP JUMPDEST SWAP10 POP POP PUSH1 0x40 DUP12 ADD CALLDATALOAD PUSH8 0xFFFFFFFFFFFFFFFF DUP2 GT ISZERO PUSH2 0x17B2 JUMPI PUSH2 0x17B1 PUSH2 0x111A JUMP JUMPDEST JUMPDEST PUSH2 0x17BE DUP14 DUP3 DUP15 ADD PUSH2 0x12CB JUMP JUMPDEST SWAP9 POP POP PUSH1 0x60 PUSH2 0x17CF DUP14 DUP3 DUP15 ADD PUSH2 0x1448 JUMP JUMPDEST SWAP8 POP POP PUSH1 0x80 PUSH2 0x17E0 DUP14 DUP3 DUP15 ADD PUSH2 0x1485 JUMP JUMPDEST SWAP7 POP POP PUSH1 0xA0 PUSH2 0x17F1 DUP14 DUP3 DUP15 ADD PUSH2 0x14BA JUMP JUMPDEST SWAP6 POP POP PUSH1 0xC0 DUP12 ADD CALLDATALOAD PUSH8 0xFFFFFFFFFFFFFFFF DUP2 GT ISZERO PUSH2 0x1812 JUMPI PUSH2 0x1811 PUSH2 0x111A JUMP JUMPDEST JUMPDEST PUSH2 0x181E DUP14 DUP3 DUP15 ADD PUSH2 0x12CB JUMP JUMPDEST SWAP5 POP POP PUSH1 0xE0 DUP12 ADD CALLDATALOAD PUSH8 0xFFFFFFFFFFFFFFFF DUP2 GT ISZERO PUSH2 0x183F JUMPI PUSH2 0x183E PUSH2 0x111A JUMP JUMPDEST JUMPDEST PUSH2 0x184B DUP14 DUP3 DUP15 ADD PUSH2 0x12CB JUMP JUMPDEST SWAP4 POP POP PUSH2 0x100 DUP12 ADD CALLDATALOAD PUSH8 0xFFFFFFFFFFFFFFFF DUP2 GT ISZERO PUSH2 0x186D JUMPI PUSH2 0x186C PUSH2 0x111A JUMP JUMPDEST JUMPDEST PUSH2 0x1879 DUP14 DUP3 DUP15 ADD PUSH2 0x12CB JUMP JUMPDEST SWAP3 POP POP PUSH2 0x120 DUP12 ADD CALLDATALOAD PUSH8 0xFFFFFFFFFFFFFFFF DUP2 GT ISZERO PUSH2 0x189B JUMPI PUSH2 0x189A PUSH2 0x111A JUMP JUMPDEST JUMPDEST PUSH2 0x18A7 DUP14 DUP3 DUP15 ADD PUSH2 0x16EF JUMP JUMPDEST SWAP2 POP POP SWAP3 SWAP6 SWAP9 SWAP12 SWAP2 SWAP5 SWAP8 SWAP11 POP SWAP3 SWAP6 SWAP9 POP JUMP JUMPDEST PUSH0 PUSH20 0xFFFFFFFFFFFFFFFFFFFFFFFFFFFFFFFFFFFFFFFF DUP3 AND SWAP1 POP SWAP2 SWAP1 POP JUMP JUMPDEST PUSH0 DUP2 SWAP1 POP SWAP2 SWAP1 POP JUMP JUMPDEST PUSH0 PUSH2 0x18FB PUSH2 0x18F6 PUSH2 0x18F1 DUP5 PUSH2 0x18B9 JUMP JUMPDEST PUSH2 0x18D8 JUMP JUMPDEST PUSH2 0x18B9 JUMP JUMPDEST SWAP1 POP SWAP2 SWAP1 POP JUMP JUMPDEST PUSH0 PUSH2 0x190C DUP3 PUSH2 0x18E1 JUMP JUMPDEST SWAP1 POP SWAP2 SWAP1 POP JUMP JUMPDEST PUSH0 PUSH2 0x191D DUP3 PUSH2 0x1902 JUMP JUMPDEST SWAP1 POP SWAP2 SWAP1 POP JUMP JUMPDEST PUSH2 0x192D DUP2 PUSH2 0x1913 JUMP JUMPDEST DUP3 MSTORE POP POP JUMP JUMPDEST PUSH0 PUSH1 0x20 DUP3 ADD SWAP1 POP PUSH2 0x1946 PUSH0 DUP4 ADD DUP5 PUSH2 0x1924 JUMP JUMPDEST SWAP3 SWAP2 POP POP JUMP JUMPDEST PUSH0 PUSH0 PUSH0 PUSH1 0x60 DUP5 DUP7 SUB SLT ISZERO PUSH2 0x1963 JUMPI PUSH2 0x1962 PUSH2 0x1116 JUMP JUMPDEST JUMPDEST PUSH0 DUP5 ADD CALLDATALOAD PUSH8 0xFFFFFFFFFFFFFFFF DUP2 GT ISZERO PUSH2 0x1980 JUMPI PUSH2 0x197F PUSH2 0x111A JUMP JUMPDEST JUMPDEST PUSH2 0x198C DUP7 DUP3 DUP8 ADD PUSH2 0x122D JUMP JUMPDEST SWAP4 POP POP PUSH1 0x20 DUP5 ADD CALLDATALOAD PUSH8 0xFFFFFFFFFFFFFFFF DUP2 GT ISZERO PUSH2 0x19AD JUMPI PUSH2 0x19AC PUSH2 0x111A JUMP JUMPDEST JUMPDEST PUSH2 0x19B9 DUP7 DUP3 DUP8 ADD PUSH2 0x12CB JUMP JUMPDEST SWAP3 POP POP PUSH1 0x40 DUP5 ADD CALLDATALOAD PUSH8 0xFFFFFFFFFFFFFFFF DUP2 GT ISZERO PUSH2 0x19DA JUMPI PUSH2 0x19D9 PUSH2 0x111A JUMP JUMPDEST JUMPDEST PUSH2 0x19E6 DUP7 DUP3 DUP8 ADD PUSH2 0x12CB JUMP JUMPDEST SWAP2 POP POP SWAP3 POP SWAP3 POP SWAP3 JUMP JUMPDEST PUSH0 DUP3 DUP3 MSTORE PUSH1 0x20 DUP3 ADD SWAP1 POP SWAP3 SWAP2 POP POP JUMP JUMPDEST PUSH32 0x4D6F64756C61722052657365727665204368616E676564000000000000000000 PUSH0 DUP3 ADD MSTORE POP JUMP JUMPDEST PUSH0 PUSH2 0x1A34 PUSH1 0x17 DUP4 PUSH2 0x19F0 JUMP JUMPDEST SWAP2 POP PUSH2 0x1A3F DUP3 PUSH2 0x1A00 JUMP JUMPDEST PUSH1 0x20 DUP3 ADD SWAP1 POP SWAP2 SWAP1 POP JUMP JUMPDEST PUSH0 DUP2 MLOAD SWAP1 POP SWAP2 SWAP1 POP JUMP JUMPDEST PUSH0 DUP3 DUP3 MSTORE PUSH1 0x20 DUP3 ADD SWAP1 POP SWAP3 SWAP2 POP POP JUMP JUMPDEST PUSH0 DUP2 SWAP1 POP PUSH1 0x20 DUP3 ADD SWAP1 POP SWAP2 SWAP1 POP JUMP JUMPDEST PUSH0 DUP2 MLOAD SWAP1 POP SWAP2 SWAP1 POP JUMP JUMPDEST PUSH0 DUP3 DUP3 MSTORE PUSH1 0x20 DUP3 ADD SWAP1 POP SWAP3 SWAP2 POP POP JUMP JUMPDEST DUP3 DUP2 DUP4 MCOPY PUSH0 DUP4 DUP4 ADD MSTORE POP POP POP JUMP JUMPDEST PUSH0 PUSH2 0x1AA5 DUP3 PUSH2 0x1A73 JUMP JUMPDEST PUSH2 0x1AAF DUP2 DUP6 PUSH2 0x1A7D JUMP JUMPDEST SWAP4 POP PUSH2 0x1ABF DUP2 DUP6 PUSH1 0x20 DUP7 ADD PUSH2 0x1A8D JUMP JUMPDEST PUSH2 0x1AC8 DUP2 PUSH2 0x1126 JUMP JUMPDEST DUP5 ADD SWAP2 POP POP SWAP3 SWAP2 POP POP JUMP JUMPDEST PUSH0 DUP2 MLOAD SWAP1 POP SWAP2 SWAP1 POP JUMP JUMPDEST PUSH0 DUP3 DUP3 MSTORE PUSH1 0x20 DUP3 ADD SWAP1 POP SWAP3 SWAP2 POP POP JUMP JUMPDEST PUSH0 PUSH2 0x1AF7 DUP3 PUSH2 0x1AD3 JUMP JUMPDEST PUSH2 0x1B01 DUP2 DUP6 PUSH2 0x1ADD JUMP JUMPDEST SWAP4 POP PUSH2 0x1B11 DUP2 DUP6 PUSH1 0x20 DUP7 ADD PUSH2 0x1A8D JUMP JUMPDEST PUSH2 0x1B1A DUP2 PUSH2 0x1126 JUMP JUMPDEST DUP5 ADD SWAP2 POP POP SWAP3 SWAP2 POP POP JUMP JUMPDEST PUSH0 PUSH1 0x60 DUP4 ADD PUSH0 DUP4 ADD MLOAD DUP5 DUP3 SUB PUSH0 DUP7 ADD MSTORE PUSH2 0x1B3F DUP3 DUP3 PUSH2 0x1A9B JUMP JUMPDEST SWAP2 POP POP PUSH1 0x20 DUP4 ADD MLOAD DUP5 DUP3 SUB PUSH1 0x20 DUP7 ADD MSTORE PUSH2 0x1B59 DUP3 DUP3 PUSH2 0x1A9B JUMP JUMPDEST SWAP2 POP POP PUSH1 0x40 DUP4 ADD MLOAD DUP5 DUP3 SUB PUSH1 0x40 DUP7 ADD MSTORE PUSH2 0x1B73 DUP3 DUP3 PUSH2 0x1AED JUMP JUMPDEST SWAP2 POP POP DUP1 SWAP2 POP POP SWAP3 SWAP2 POP POP JUMP JUMPDEST PUSH0 PUSH2 0x1B8B DUP4 DUP4 PUSH2 0x1B25 JUMP JUMPDEST SWAP1 POP SWAP3 SWAP2 POP POP JUMP JUMPDEST PUSH0 PUSH1 0x20 DUP3 ADD SWAP1 POP SWAP2 SWAP1 POP JUMP JUMPDEST PUSH0 PUSH2 0x1BA9 DUP3 PUSH2 0x1A4A JUMP JUMPDEST PUSH2 0x1BB3 DUP2 DUP6 PUSH2 0x1A54 JUMP JUMPDEST SWAP4 POP DUP4 PUSH1 0x20 DUP3 MUL DUP6 ADD PUSH2 0x1BC5 DUP6 PUSH2 0x1A64 JUMP JUMPDEST DUP1 PUSH0 JUMPDEST DUP6 DUP2 LT ISZERO PUSH2 0x1C00 JUMPI DUP5 DUP5 SUB DUP10 MSTORE DUP2 MLOAD PUSH2 0x1BE1 DUP6 DUP3 PUSH2 0x1B80 JUMP JUMPDEST SWAP5 POP PUSH2 0x1BEC DUP4 PUSH2 0x1B93 JUMP JUMPDEST SWAP3 POP PUSH1 0x20 DUP11 ADD SWAP10 POP POP PUSH1 0x1 DUP2 ADD SWAP1 POP PUSH2 0x1BC8 JUMP JUMPDEST POP DUP3 SWAP8 POP DUP8 SWAP6 POP POP POP POP POP POP SWAP3 SWAP2 POP POP JUMP JUMPDEST PUSH0 PUSH1 0x40 DUP3 ADD SWAP1 POP DUP2 DUP2 SUB PUSH0 DUP4 ADD MSTORE PUSH2 0x1C29 DUP2 PUSH2 0x1A28 JUMP JUMPDEST SWAP1 POP DUP2 DUP2 SUB PUSH1 0x20 DUP4 ADD MSTORE PUSH2 0x1C3D DUP2 DUP5 PUSH2 0x1B9F JUMP JUMPDEST SWAP1 POP SWAP3 SWAP2 POP POP JUMP JUMPDEST PUSH32 0x4D6F64756C617220547261646520457865637574656400000000000000000000 PUSH0 DUP3 ADD MSTORE POP JUMP JUMPDEST PUSH0 PUSH2 0x1C79 PUSH1 0x16 DUP4 PUSH2 0x19F0 JUMP JUMPDEST SWAP2 POP PUSH2 0x1C84 DUP3 PUSH2 0x1C45 JUMP JUMPDEST PUSH1 0x20 DUP3 ADD SWAP1 POP SWAP2 SWAP1 POP JUMP JUMPDEST PUSH0 PUSH1 0x40 DUP3 ADD SWAP1 POP DUP2 DUP2 SUB PUSH0 DUP4 ADD MSTORE PUSH2 0x1CA6 DUP2 PUSH2 0x1C6D JUMP JUMPDEST SWAP1 POP DUP2 DUP2 SUB PUSH1 0x20 DUP4 ADD MSTORE PUSH2 0x1CBA DUP2 DUP5 PUSH2 0x1B9F JUMP JUMPDEST SWAP1 POP SWAP3 SWAP2 POP POP JUMP JUMPDEST PUSH32 0x4D6F64756C6172204F7261636C652055706461746520616E6420547261646500 PUSH0 DUP3 ADD MSTORE POP JUMP JUMPDEST PUSH0 PUSH2 0x1CF6 PUSH1 0x1F DUP4 PUSH2 0x19F0 JUMP JUMPDEST SWAP2 POP PUSH2 0x1D01 DUP3 PUSH2 0x1CC2 JUMP JUMPDEST PUSH1 0x20 DUP3 ADD SWAP1 POP SWAP2 SWAP1 POP JUMP JUMPDEST PUSH0 PUSH1 0x40 DUP3 ADD SWAP1 POP DUP2 DUP2 SUB PUSH0 DUP4 ADD MSTORE PUSH2 0x1D23 DUP2 PUSH2 0x1CEA JUMP JUMPDEST SWAP1 POP DUP2 DUP2 SUB PUSH1 0x20 DUP4 ADD MSTORE PUSH2 0x1D37 DUP2 DUP5 PUSH2 0x1B9F JUMP JUMPDEST SWAP1 POP SWAP3 SWAP2 POP POP JUMP JUMPDEST PUSH32 0x4D6F64756C617220496E74657265737420416363727565640000000000000000 PUSH0 DUP3 ADD MSTORE POP JUMP JUMPDEST PUSH0 PUSH2 0x1D73 PUSH1 0x18 DUP4 PUSH2 0x19F0 JUMP JUMPDEST SWAP2 POP PUSH2 0x1D7E DUP3 PUSH2 0x1D3F JUMP JUMPDEST PUSH1 0x20 DUP3 ADD SWAP1 POP SWAP2 SWAP1 POP JUMP JUMPDEST PUSH0 PUSH1 0x40 DUP3 ADD SWAP1 POP DUP2 DUP2 SUB PUSH0 DUP4 ADD MSTORE PUSH2 0x1DA0 DUP2 PUSH2 0x1D67 JUMP JUMPDEST SWAP1 POP DUP2 DUP2 SUB PUSH1 0x20 DUP4 ADD MSTORE PUSH2 0x1DB4 DUP2 DUP5 PUSH2 0x1B9F JUMP JUMPDEST SWAP1 POP SWAP3 SWAP2 POP POP JUMP JUMPDEST PUSH0 PUSH2 0x1DC6 DUP3 PUSH2 0x18B9 JUMP JUMPDEST SWAP1 POP SWAP2 SWAP1 POP JUMP JUMPDEST PUSH2 0x1DD6 DUP2 PUSH2 0x1DBC JUMP JUMPDEST DUP3 MSTORE POP POP JUMP JUMPDEST PUSH0 PUSH1 0x20 DUP3 ADD SWAP1 POP PUSH2 0x1DEF PUSH0 DUP4 ADD DUP5 PUSH2 0x1DCD JUMP JUMPDEST SWAP3 SWAP2 POP POP JUMP JUMPDEST PUSH32 0x4E487B7100000000000000000000000000000000000000000000000000000000 PUSH0 MSTORE PUSH1 0x32 PUSH1 0x4 MSTORE PUSH1 0x24 PUSH0 REVERT JUMPDEST PUSH0 DUP3 DUP3 MSTORE PUSH1 0x20 DUP3 ADD SWAP1 POP SWAP3 SWAP2 POP POP JUMP JUMPDEST PUSH0 PUSH2 0x1E3C DUP3 PUSH2 0x1AD3 JUMP JUMPDEST PUSH2 0x1E46 DUP2 DUP6 PUSH2 0x1E22 JUMP JUMPDEST SWAP4 POP PUSH2 0x1E56 DUP2 DUP6 PUSH1 0x20 DUP7 ADD PUSH2 0x1A8D JUMP JUMPDEST PUSH2 0x1E5F DUP2 PUSH2 0x1126 JUMP JUMPDEST DUP5 ADD SWAP2 POP POP SWAP3 SWAP2 POP POP JUMP JUMPDEST PUSH0 PUSH1 0x20 DUP3 ADD SWAP1 POP DUP2 DUP2 SUB PUSH0 DUP4 ADD MSTORE PUSH2 0x1E82 DUP2 DUP5 PUSH2 0x1E32 JUMP JUMPDEST SWAP1 POP SWAP3 SWAP2 POP POP JUMP JUMPDEST PUSH0 PUSH2 0x1E94 DUP3 PUSH2 0x1A73 JUMP JUMPDEST PUSH2 0x1E9E DUP2 DUP6 PUSH2 0x19F0 JUMP JUMPDEST SWAP4 POP PUSH2 0x1EAE DUP2 DUP6 PUSH1 0x20 DUP7 ADD PUSH2 0x1A8D JUMP JUMPDEST PUSH2 0x1EB7 DUP2 PUSH2 0x1126 JUMP JUMPDEST DUP5 ADD SWAP2 POP POP SWAP3 SWAP2 POP POP JUMP JUMPDEST PUSH0 PUSH1 0x20 DUP3 ADD SWAP1 POP DUP2 DUP2 SUB PUSH0 DUP4 ADD MSTORE PUSH2 0x1EDA DUP2 DUP5 PUSH2 0x1E8A JUMP JUMPDEST SWAP1 POP SWAP3 SWAP2 POP POP JUMP JUMPDEST PUSH2 0x1EEB DUP2 PUSH2 0x1429 JUMP JUMPDEST DUP3 MSTORE POP POP JUMP JUMPDEST PUSH0 PUSH1 0x20 DUP3 ADD SWAP1 POP PUSH2 0x1F04 PUSH0 DUP4 ADD DUP5 PUSH2 0x1EE2 JUMP JUMPDEST SWAP3 SWAP2 POP POP JUMP JUMPDEST PUSH2 0x1F13 DUP2 PUSH2 0x145C JUMP JUMPDEST DUP3 MSTORE POP POP JUMP JUMPDEST PUSH0 PUSH1 0x20 DUP3 ADD SWAP1 POP PUSH2 0x1F2C PUSH0 DUP4 ADD DUP5 PUSH2 0x1F0A JUMP JUMPDEST SWAP3 SWAP2 POP POP JUMP JUMPDEST PUSH2 0x1F3B DUP2 PUSH2 0x1499 JUMP JUMPDEST DUP3 MSTORE POP POP JUMP JUMPDEST PUSH0 PUSH1 0x20 DUP3 ADD SWAP1 POP PUSH2 0x1F54 PUSH0 DUP4 ADD DUP5 PUSH2 0x1F32 JUMP JUMPDEST SWAP3 SWAP2 POP POP JUMP JUMPDEST PUSH0 DUP2 MLOAD SWAP1 POP SWAP2 SWAP1 POP JUMP JUMPDEST PUSH0 DUP3 DUP3 MSTORE PUSH1 0x20 DUP3 ADD SWAP1 POP SWAP3 SWAP2 POP POP JUMP JUMPDEST PUSH0 DUP2 SWAP1 POP PUSH1 0x20 DUP3 ADD SWAP1 POP SWAP2 SWAP1 POP JUMP JUMPDEST PUSH0 PUSH2 0x1F8E DUP4 DUP4 PUSH2 0x1AED JUMP JUMPDEST SWAP1 POP SWAP3 SWAP2 POP POP JUMP JUMPDEST PUSH0 PUSH1 0x20 DUP3 ADD SWAP1 POP SWAP2 SWAP1 POP JUMP JUMPDEST PUSH0 PUSH2 0x1FAC DUP3 PUSH2 0x1F5A JUMP JUMPDEST PUSH2 0x1FB6 DUP2 DUP6 PUSH2 0x1F64 JUMP JUMPDEST SWAP4 POP DUP4 PUSH1 0x20 DUP3 MUL DUP6 ADD PUSH2 0x1FC8 DUP6 PUSH2 0x1F74 JUMP JUMPDEST DUP1 PUSH0 JUMPDEST DUP6 DUP2 LT ISZERO PUSH2 0x2003 JUMPI DUP5 DUP5 SUB DUP10 MSTORE DUP2 MLOAD PUSH2 0x1FE4 DUP6 DUP3 PUSH2 0x1F83 JUMP JUMPDEST SWAP5 POP PUSH2 0x1FEF DUP4 PUSH2 0x1F96 JUMP JUMPDEST SWAP3 POP PUSH1 0x20 DUP11 ADD SWAP10 POP POP PUSH1 0x1 DUP2 ADD SWAP1 POP PUSH2 0x1FCB JUMP JUMPDEST POP DUP3 SWAP8 POP DUP8 SWAP6 POP POP POP POP POP POP SWAP3 SWAP2 POP POP JUMP JUMPDEST PUSH0 PUSH1 0x20 DUP3 ADD SWAP1 POP DUP2 DUP2 SUB PUSH0 DUP4 ADD MSTORE PUSH2 0x202D DUP2 DUP5 PUSH2 0x1FA2 JUMP JUMPDEST SWAP1 POP SWAP3 SWAP2 POP POP JUMP INVALID LOG2 PUSH5 0x6970667358 0x22 SLT KECCAK256 LOG3 SWAPN 0x87 PUSH25 0x6743D9001D578DD51E50237AA5EF95CCCDFC39D83CD843AA96 DUP3 0x29 LOG3 PUSH5 0x736F6C6343 STOP ADDMOD 0x1F STOP CALLER "
		},
		"gasEstimates": {
			"creation": {
				"codeDepositCost": "1659800",
				"executionCost": "infinite",
				"totalCost": "infinite"
			},
			"external": {
				"events()": "infinite",
				"p_accrue_interest(bytes,string,string)": "infinite",
				"p_change_reserve(bytes,string,string,string,string,string)": "infinite",
				"p_trade(bytes,string,string,uint256,uint64,bool,string,string,string)": "infinite",
				"p_update_oracle_and_trade(bytes,string,string,uint256,uint64,bool,string,string,string,bytes[])": "infinite"
			},
			"internal": {
				"_addAddress(struct IEvents.Data memory[] memory,uint256,string memory,address)": "infinite",
				"_addBool(struct IEvents.Data memory[] memory,uint256,string memory,bool)": "infinite",
				"_addBytes(struct IEvents.Data memory[] memory,uint256,string memory,bytes memory)": "infinite",
				"_addBytesArray(struct IEvents.Data memory[] memory,uint256,string memory,bytes memory[] memory)": "infinite",
				"_addString(struct IEvents.Data memory[] memory,uint256,string memory,string memory)": "infinite",
				"_addUint256(struct IEvents.Data memory[] memory,uint256,string memory,uint256)": "infinite",
				"_addUint64(struct IEvents.Data memory[] memory,uint256,string memory,uint64)": "infinite"
			}
		},
		"methodIdentifiers": {
			"events()": "b5f8558c",
			"p_accrue_interest(bytes,string,string)": "de3dcc07",
			"p_change_reserve(bytes,string,string,string,string,string)": "481ba600",
			"p_trade(bytes,string,string,uint256,uint64,bool,string,string,string)": "5fc8015f",
			"p_update_oracle_and_trade(bytes,string,string,uint256,uint64,bool,string,string,string,bytes[])": "6aed54e6"
		}
	},
	"abi": [
		{
			"inputs": [
				{
					"internalType": "address",
					"name": "_events",
					"type": "address"
				}
			],
			"stateMutability": "nonpayable",
			"type": "constructor"
		},
		{
			"inputs": [],
			"name": "events",
			"outputs": [
				{
					"internalType": "contract IEvents",
					"name": "",
					"type": "address"
				}
			],
			"stateMutability": "view",
			"type": "function"
		},
		{
			"inputs": [
				{
					"internalType": "bytes",
					"name": "user",
					"type": "bytes"
				},
				{
					"internalType": "string",
					"name": "shared",
					"type": "string"
				},
				{
					"internalType": "string",
					"name": "asset",
					"type": "string"
				}
			],
			"name": "p_accrue_interest",
			"outputs": [],
			"stateMutability": "nonpayable",
			"type": "function"
		},
		{
			"inputs": [
				{
					"internalType": "bytes",
					"name": "user",
					"type": "bytes"
				},
				{
					"internalType": "string",
					"name": "shared",
					"type": "string"
				},
				{
					"internalType": "string",
					"name": "asset",
					"type": "string"
				},
				{
					"internalType": "string",
					"name": "new_reserve_chain",
					"type": "string"
				},
				{
					"internalType": "string",
					"name": "new_reserve_provider",
					"type": "string"
				},
				{
					"internalType": "string",
					"name": "new_reserve_token",
					"type": "string"
				}
			],
			"name": "p_change_reserve",
			"outputs": [],
			"stateMutability": "nonpayable",
			"type": "function"
		},
		{
			"inputs": [
				{
					"internalType": "bytes",
					"name": "user",
					"type": "bytes"
				},
				{
					"internalType": "string",
					"name": "shared",
					"type": "string"
				},
				{
					"internalType": "string",
					"name": "asset",
					"type": "string"
				},
				{
					"internalType": "uint256",
					"name": "size",
					"type": "uint256"
				},
				{
					"internalType": "uint64",
					"name": "leverage",
					"type": "uint64"
				},
				{
					"internalType": "bool",
					"name": "isLong",
					"type": "bool"
				},
				{
					"internalType": "string",
					"name": "reserve_chain",
					"type": "string"
				},
				{
					"internalType": "string",
					"name": "reserve_provider",
					"type": "string"
				},
				{
					"internalType": "string",
					"name": "reserve_token",
					"type": "string"
				}
			],
			"name": "p_trade",
			"outputs": [],
			"stateMutability": "nonpayable",
			"type": "function"
		},
		{
			"inputs": [
				{
					"internalType": "bytes",
					"name": "user",
					"type": "bytes"
				},
				{
					"internalType": "string",
					"name": "shared",
					"type": "string"
				},
				{
					"internalType": "string",
					"name": "asset",
					"type": "string"
				},
				{
					"internalType": "uint256",
					"name": "size",
					"type": "uint256"
				},
				{
					"internalType": "uint64",
					"name": "leverage",
					"type": "uint64"
				},
				{
					"internalType": "bool",
					"name": "isLong",
					"type": "bool"
				},
				{
					"internalType": "string",
					"name": "reserve_chain",
					"type": "string"
				},
				{
					"internalType": "string",
					"name": "reserve_provider",
					"type": "string"
				},
				{
					"internalType": "string",
					"name": "reserve_token",
					"type": "string"
				},
				{
					"internalType": "bytes[]",
					"name": "price_update_data",
					"type": "bytes[]"
				}
			],
			"name": "p_update_oracle_and_trade",
			"outputs": [],
			"stateMutability": "nonpayable",
			"type": "function"
		}
	]
}