{
	"data": {
		"bytecode": {
			"linkReferences": {},
			"object": "610120604052348015610010575f5ffd5b50604051612c25380380612c25833981810160405281019061003291906102e1565b335f73ffffffffffffffffffffffffffffffffffffffff168173ffffffffffffffffffffffffffffffffffffffff16036100a3575f6040517f1e4fbdf700000000000000000000000000000000000000000000000000000000815260040161009a9190610367565b60405180910390fd5b6100b2816101c260201b60201c565b508473ffffffffffffffffffffffffffffffffffffffff1660808173ffffffffffffffffffffffffffffffffffffffff16815250508373ffffffffffffffffffffffffffffffffffffffff1660a08173ffffffffffffffffffffffffffffffffffffffff16815250508273ffffffffffffffffffffffffffffffffffffffff1660c08173ffffffffffffffffffffffffffffffffffffffff16815250508173ffffffffffffffffffffffffffffffffffffffff1660e08173ffffffffffffffffffffffffffffffffffffffff16815250508073ffffffffffffffffffffffffffffffffffffffff166101008173ffffffffffffffffffffffffffffffffffffffff16815250505050505050610380565b5f5f5f9054906101000a900473ffffffffffffffffffffffffffffffffffffffff169050815f5f6101000a81548173ffffffffffffffffffffffffffffffffffffffff021916908373ffffffffffffffffffffffffffffffffffffffff1602179055508173ffffffffffffffffffffffffffffffffffffffff168173ffffffffffffffffffffffffffffffffffffffff167f8be0079c531659141344cd1fd0a4f28419497f9722a3daafe3b4186f6b6457e060405160405180910390a35050565b5f5ffd5b5f73ffffffffffffffffffffffffffffffffffffffff82169050919050565b5f6102b082610287565b9050919050565b6102c0816102a6565b81146102ca575f5ffd5b50565b5f815190506102db816102b7565b92915050565b5f5f5f5f5f60a086880312156102fa576102f9610283565b5b5f610307888289016102cd565b9550506020610318888289016102cd565b9450506040610329888289016102cd565b935050606061033a888289016102cd565b925050608061034b888289016102cd565b9150509295509295909350565b610361816102a6565b82525050565b5f60208201905061037a5f830184610358565b92915050565b60805160a05160c05160e051610100516128376103ee5f395f8181610506015281816109830152610f8101525f81816108cf01528181610dc401526114dd01525f818161035c01526109a701525f81816105c001526106dd01525f8181610bcd0152610e6c01526128375ff3fe608060405234801561000f575f5ffd5b5060043610610108575f3560e01c8063aad24061116100a0578063bd846ee71161006f578063bd846ee7146102b6578063bf4d766e146102d2578063f2fde38b146102f0578063f90c0f401461030c578063fa5408011461032a57610108565b8063aad240611461021a578063aed881d81461024a578063b3d6300314610268578063b648f2201461028657610108565b80637a988c54116100dc5780637a988c54146101805780638da5cb5b146101b057806397aba7f9146101ce578063aab7f953146101fe57610108565b8062dc22341461010c57806319b8c941146101285780634eb30d4114610158578063715018a614610176575b5f5ffd5b610126600480360381019061012191906116e7565b61035a565b005b610142600480360381019061013d91906117c1565b610595565b60405161014f919061185c565b60405180910390f35b6101606105be565b60405161016d91906118f6565b60405180910390f35b61017e6105e2565b005b61019a600480360381019061019591906117c1565b6105f5565b6040516101a7919061192f565b60405180910390f35b6101b86105fe565b6040516101c5919061192f565b60405180910390f35b6101e860048036038101906101e39190611aa3565b610625565b6040516101f5919061192f565b60405180910390f35b610218600480360381019061021391906116e7565b6106db565b005b610234600480360381019061022f91906117c1565b610964565b6040516102419190611b17565b60405180910390f35b610252610981565b60405161025f9190611b50565b60405180910390f35b6102706109a5565b60405161027d9190611b89565b60405180910390f35b6102a0600480360381019061029b91906117c1565b6109c9565b6040516102ad9190611bf4565b60405180910390f35b6102d060048036038101906102cb91906116e7565b610bcb565b005b6102da610dc2565b6040516102e79190611c34565b60405180910390f35b61030a60048036038101906103059190611c77565b610de6565b005b610314610e6a565b6040516103219190611cc2565b60405180910390f35b610344600480360381019061033f9190611cdb565b610e8e565b6040516103519190611d15565b60405180910390f35b7f000000000000000000000000000000000000000000000000000000000000000073ffffffffffffffffffffffffffffffffffffffff16639cb2865887876040518363ffffffff1660e01b81526004016103b5929190611d58565b5f6040518083038186803b1580156103cb575f5ffd5b505afa1580156103dd573d5f5f3e3d5ffd5b505050505f856004600681106103f6576103f5611d81565b5b6020020135905046811461043f576040517f08c379a000000000000000000000000000000000000000000000000000000000815260040161043690611df8565b60405180910390fd5b5f61044987610ebd565b905061045a815f1b87878787610f72565b60015f8281526020019081526020015f205f9054906101000a900460ff16156104b8576040517f08c379a00000000000000000000000000000000000000000000000000000000081526004016104af90611e60565b60405180910390fd5b6001805f8381526020019081526020015f205f6101000a81548160ff0219169083151502179055505f610502886005600681106104f8576104f7611d81565b5b60200201356105f5565b90507f000000000000000000000000000000000000000000000000000000000000000073ffffffffffffffffffffffffffffffffffffffff16631722e147826040518263ffffffff1660e01b815260040161055d919061192f565b5f604051808303815f87803b158015610574575f5ffd5b505af1158015610586573d5f5f3e3d5ffd5b50505050505050505050505050565b6060816040516020016105a89190611e9e565b6040516020818303038152906040529050919050565b7f000000000000000000000000000000000000000000000000000000000000000081565b6105ea6111ec565b6105f35f611273565b565b5f819050919050565b5f5f5f9054906101000a900473ffffffffffffffffffffffffffffffffffffffff16905090565b5f604182511461066a576040517f08c379a000000000000000000000000000000000000000000000000000000000815260040161066190611f02565b60405180910390fd5b5f5f5f602085015192506040850151915060608501515f1a90506001868285856040515f81526020016040526040516106a69493929190611f3b565b6020604051602081039080840390855afa1580156106c6573d5f5f3e3d5ffd5b50505060206040510351935050505092915050565b7f000000000000000000000000000000000000000000000000000000000000000073ffffffffffffffffffffffffffffffffffffffff16639cb2865887876040518363ffffffff1660e01b8152600401610736929190611d58565b5f6040518083038186803b15801561074c575f5ffd5b505afa15801561075e573d5f5f3e3d5ffd5b505050505f8560056006811061077757610776611d81565b5b602002013590504681146107c0576040517f08c379a00000000000000000000000000000000000000000000000000000000081526004016107b790611df8565b60405180910390fd5b5f6107e2876003600681106107d8576107d7611d81565b5b60200201356109c9565b90505f610806886002600681106107fc576107fb611d81565b5b60200201356109c9565b90505f61082a896004600681106108205761081f611d81565b5b6020020135610595565b90505f6108368a611334565b9050610847815f1b8a8a8a8a610f72565b60015f8281526020019081526020015f205f9054906101000a900460ff16156108a5576040517f08c379a000000000000000000000000000000000000000000000000000000000815260040161089c90611e60565b60405180910390fd5b6001805f8381526020019081526020015f205f6101000a81548160ff0219169083151502179055507f000000000000000000000000000000000000000000000000000000000000000073ffffffffffffffffffffffffffffffffffffffff16632e057b9b8486856040518463ffffffff1660e01b815260040161092a93929190611f7e565b5f604051808303815f87803b158015610941575f5ffd5b505af1158015610953573d5f5f3e3d5ffd5b505050505050505050505050505050565b6001602052805f5260405f205f915054906101000a900460ff1681565b7f000000000000000000000000000000000000000000000000000000000000000081565b7f000000000000000000000000000000000000000000000000000000000000000081565b60605f82036109e85760405180602001604052805f8152509050610bc6565b5f825f1b90505f5f90505b60208160ff16108015610a4357505f60f81b828260ff1660208110610a1b57610a1a611d81565b5b1a60f81b7effffffffffffffffffffffffffffffffffffffffffffffffffffffffffffff1916145b15610a5b578080610a5390611ff5565b9150506109f3565b5f601f90505b8160ff168160ff16118015610ab357505f60f81b838260ff1660208110610a8b57610a8a611d81565b5b1a60f81b7effffffffffffffffffffffffffffffffffffffffffffffffffffffffffffff1916145b15610acb578080610ac39061201d565b915050610a61565b5f60018383610ada9190612044565b610ae49190612078565b90505f8160ff1667ffffffffffffffff811115610b0457610b0361197f565b5b6040519080825280601f01601f191660200182016040528015610b365781602001600182028036833780820191505090505b5090505f5f90505b8260ff16811015610bbc5785818660ff16610b5991906120ac565b60208110610b6a57610b69611d81565b5b1a60f81b828281518110610b8157610b80611d81565b5b60200101907effffffffffffffffffffffffffffffffffffffffffffffffffffffffffffff191690815f1a9053508080600101915050610b3e565b5080955050505050505b919050565b7f000000000000000000000000000000000000000000000000000000000000000073ffffffffffffffffffffffffffffffffffffffff16639cb2865887876040518363ffffffff1660e01b8152600401610c26929190611d58565b5f6040518083038186803b158015610c3c575f5ffd5b505afa158015610c4e573d5f5f3e3d5ffd5b505050505f5f5f610c5e88611403565b9250925092505f88600260068110610c7957610c78611d81565b5b602002013590505f89600360068110610c9557610c94611d81565b5b602002013590505f610ca68b611334565b9050610cb7815f1b8b8b8b8b610f72565b60015f8281526020019081526020015f205f9054906101000a900460ff1615610d15576040517f08c379a0000000000000000000000000000000000000000000000000000000008152600401610d0c90611e60565b60405180910390fd5b6001805f8381526020019081526020015f205f6101000a81548160ff0219169083151502179055505f83608084901b1790508573ffffffffffffffffffffffffffffffffffffffff16636afbf5d682878a866040518563ffffffff1660e01b8152600401610d8694939291906120ee565b5f604051808303815f87803b158015610d9d575f5ffd5b505af1158015610daf573d5f5f3e3d5ffd5b5050505050505050505050505050505050565b7f000000000000000000000000000000000000000000000000000000000000000081565b610dee6111ec565b5f73ffffffffffffffffffffffffffffffffffffffff168173ffffffffffffffffffffffffffffffffffffffff1603610e5e575f6040517f1e4fbdf7000000000000000000000000000000000000000000000000000000008152600401610e55919061192f565b60405180910390fd5b610e6781611273565b50565b7f000000000000000000000000000000000000000000000000000000000000000081565b5f81604051602001610ea091906121ac565b604051602081830303815290604052805190602001209050919050565b5f5f825f60068110610ed257610ed1611d81565b5b602002013583600160068110610eeb57610eea611d81565b5b602002013584600260068110610f0457610f03611d81565b5b602002013585600360068110610f1d57610f1c611d81565b5b602002013586600460068110610f3657610f35611d81565b5b6020020135604051602001610f4f9594939291906121d1565b604051602081830303815290604052805190602001209050805f1c915050919050565b5f610f7c86610e8e565b90505f7f000000000000000000000000000000000000000000000000000000000000000073ffffffffffffffffffffffffffffffffffffffff16631442e4c96040518163ffffffff1660e01b81526004015f60405180830381865afa158015610fe7573d5f5f3e3d5ffd5b505050506040513d5f823e3d601f19601f8201168201806040525081019061100f9190612303565b90505f5f90505b868690508110156111e257365f8686604185611032919061234a565b90604160018761104291906120ac565b61104c919061234a565b9261105993929190612393565b915091505f6110ab8684848080601f0160208091040260200160405190810160405280939291908181526020018383808284375f81840152601f19601f82011690508083019250505050505050610625565b90505f73ffffffffffffffffffffffffffffffffffffffff168173ffffffffffffffffffffffffffffffffffffffff160361111b576040517f08c379a000000000000000000000000000000000000000000000000000000000815260040161111290612417565b60405180910390fd5b5f5f90505f5f90505b8651811015611190578273ffffffffffffffffffffffffffffffffffffffff1687828151811061115757611156611d81565b5b602002602001015173ffffffffffffffffffffffffffffffffffffffff16036111835760019150611190565b8080600101915050611124565b50806111d1576040517f08c379a00000000000000000000000000000000000000000000000000000000081526004016111c89061247f565b60405180910390fd5b505050508080600101915050611016565b5050505050505050565b6111f46115d7565b73ffffffffffffffffffffffffffffffffffffffff166112126105fe565b73ffffffffffffffffffffffffffffffffffffffff1614611271576112356115d7565b6040517f118cdaa7000000000000000000000000000000000000000000000000000000008152600401611268919061192f565b60405180910390fd5b565b5f5f5f9054906101000a900473ffffffffffffffffffffffffffffffffffffffff169050815f5f6101000a81548173ffffffffffffffffffffffffffffffffffffffff021916908373ffffffffffffffffffffffffffffffffffffffff1602179055508173ffffffffffffffffffffffffffffffffffffffff168173ffffffffffffffffffffffffffffffffffffffff167f8be0079c531659141344cd1fd0a4f28419497f9722a3daafe3b4186f6b6457e060405160405180910390a35050565b5f5f825f6006811061134957611348611d81565b5b60200201358360016006811061136257611361611d81565b5b60200201358460026006811061137b5761137a611d81565b5b60200201358560036006811061139457611393611d81565b5b6020020135866004600681106113ad576113ac611d81565b5b6020020135876005600681106113c6576113c5611d81565b5b60200201356040516020016113e09695949392919061249d565b604051602081830303815290604052805190602001209050805f1c915050919050565b5f5f60605f8460056006811061141c5761141b611d81565b5b602002013590508067ffffffffffffffff1693505f604082901c63ffffffff169050468114611480576040517f08c379a000000000000000000000000000000000000000000000000000000000815260040161147790611df8565b60405180910390fd5b5f608083901c9050611491816109c9565b93505f6114b5886004600681106114ab576114aa611d81565b5b60200201356109c9565b90505f816040516020016114c99190612586565b60405160208183030381529060405290505f7f000000000000000000000000000000000000000000000000000000000000000073ffffffffffffffffffffffffffffffffffffffff166316f1adc1836040518263ffffffff1660e01b815260040161153491906125f1565b5f60405180830381865afa15801561154e573d5f5f3e3d5ffd5b505050506040513d5f823e3d601f19601f820116820180604052508101906115769190612692565b90505f8151116115bb576040517f08c379a00000000000000000000000000000000000000000000000000000000081526004016115b290612723565b60405180910390fd5b806115c59061279b565b60601c97505050505050509193909250565b5f33905090565b5f604051905090565b5f5ffd5b5f5ffd5b5f5ffd5b5f8190508260206008028201111561160e5761160d6115ef565b5b92915050565b5f8190508260206006028201111561162f5761162e6115ef565b5b92915050565b5f5ffd5b5f5ffd5b5f5f83601f84011261165257611651611635565b5b8235905067ffffffffffffffff81111561166f5761166e611639565b5b60208301915083602082028301111561168b5761168a6115ef565b5b9250929050565b5f5f83601f8401126116a7576116a6611635565b5b8235905067ffffffffffffffff8111156116c4576116c3611639565b5b6020830191508360018202830111156116e0576116df6115ef565b5b9250929050565b5f5f5f5f5f5f6102008789031215611702576117016115e7565b5b5f61170f89828a016115f3565b96505061010061172189828a01611614565b9550506101c087013567ffffffffffffffff811115611743576117426115eb565b5b61174f89828a0161163d565b94509450506101e087013567ffffffffffffffff811115611773576117726115eb565b5b61177f89828a01611692565b92509250509295509295509295565b5f819050919050565b6117a08161178e565b81146117aa575f5ffd5b50565b5f813590506117bb81611797565b92915050565b5f602082840312156117d6576117d56115e7565b5b5f6117e3848285016117ad565b91505092915050565b5f81519050919050565b5f82825260208201905092915050565b8281835e5f83830152505050565b5f601f19601f8301169050919050565b5f61182e826117ec565b61183881856117f6565b9350611848818560208601611806565b61185181611814565b840191505092915050565b5f6020820190508181035f8301526118748184611824565b905092915050565b5f73ffffffffffffffffffffffffffffffffffffffff82169050919050565b5f819050919050565b5f6118be6118b96118b48461187c565b61189b565b61187c565b9050919050565b5f6118cf826118a4565b9050919050565b5f6118e0826118c5565b9050919050565b6118f0816118d6565b82525050565b5f6020820190506119095f8301846118e7565b92915050565b5f6119198261187c565b9050919050565b6119298161190f565b82525050565b5f6020820190506119425f830184611920565b92915050565b5f819050919050565b61195a81611948565b8114611964575f5ffd5b50565b5f8135905061197581611951565b92915050565b5f5ffd5b7f4e487b71000000000000000000000000000000000000000000000000000000005f52604160045260245ffd5b6119b582611814565b810181811067ffffffffffffffff821117156119d4576119d361197f565b5b80604052505050565b5f6119e66115de565b90506119f282826119ac565b919050565b5f67ffffffffffffffff821115611a1157611a1061197f565b5b611a1a82611814565b9050602081019050919050565b828183375f83830152505050565b5f611a47611a42846119f7565b6119dd565b905082815260208101848484011115611a6357611a6261197b565b5b611a6e848285611a27565b509392505050565b5f82601f830112611a8a57611a89611635565b5b8135611a9a848260208601611a35565b91505092915050565b5f5f60408385031215611ab957611ab86115e7565b5b5f611ac685828601611967565b925050602083013567ffffffffffffffff811115611ae757611ae66115eb565b5b611af385828601611a76565b9150509250929050565b5f8115159050919050565b611b1181611afd565b82525050565b5f602082019050611b2a5f830184611b08565b92915050565b5f611b3a826118c5565b9050919050565b611b4a81611b30565b82525050565b5f602082019050611b635f830184611b41565b92915050565b5f611b73826118c5565b9050919050565b611b8381611b69565b82525050565b5f602082019050611b9c5f830184611b7a565b92915050565b5f81519050919050565b5f82825260208201905092915050565b5f611bc682611ba2565b611bd08185611bac565b9350611be0818560208601611806565b611be981611814565b840191505092915050565b5f6020820190508181035f830152611c0c8184611bbc565b905092915050565b5f611c1e826118c5565b9050919050565b611c2e81611c14565b82525050565b5f602082019050611c475f830184611c25565b92915050565b611c568161190f565b8114611c60575f5ffd5b50565b5f81359050611c7181611c4d565b92915050565b5f60208284031215611c8c57611c8b6115e7565b5b5f611c9984828501611c63565b91505092915050565b5f611cac826118c5565b9050919050565b611cbc81611ca2565b82525050565b5f602082019050611cd55f830184611cb3565b92915050565b5f60208284031215611cf057611cef6115e7565b5b5f611cfd84828501611967565b91505092915050565b611d0f81611948565b82525050565b5f602082019050611d285f830184611d06565b92915050565b82818337505050565b611d446101008383611d2e565b5050565b611d5460c08383611d2e565b5050565b5f6101c082019050611d6c5f830185611d37565b611d7a610100830184611d48565b9392505050565b7f4e487b71000000000000000000000000000000000000000000000000000000005f52603260045260245ffd5b7f57726f6e672064657374696e6174696f6e20636861696e0000000000000000005f82015250565b5f611de2601783611bac565b9150611ded82611dae565b602082019050919050565b5f6020820190508181035f830152611e0f81611dd6565b9050919050565b7f5265706c61792061747461636b206465746563746564000000000000000000005f82015250565b5f611e4a601683611bac565b9150611e5582611e16565b602082019050919050565b5f6020820190508181035f830152611e7781611e3e565b9050919050565b5f819050919050565b611e98611e938261178e565b611e7e565b82525050565b5f611ea98284611e87565b60208201915081905092915050565b7f496e76616c6964207369676e6174757265206c656e67746800000000000000005f82015250565b5f611eec601883611bac565b9150611ef782611eb8565b602082019050919050565b5f6020820190508181035f830152611f1981611ee0565b9050919050565b5f60ff82169050919050565b611f3581611f20565b82525050565b5f608082019050611f4e5f830187611d06565b611f5b6020830186611f2c565b611f686040830185611d06565b611f756060830184611d06565b95945050505050565b5f6060820190508181035f830152611f968186611bbc565b90508181036020830152611faa8185611bbc565b90508181036040830152611fbe8184611824565b9050949350505050565b7f4e487b71000000000000000000000000000000000000000000000000000000005f52601160045260245ffd5b5f611fff82611f20565b915060ff820361201257612011611fc8565b5b600182019050919050565b5f61202782611f20565b91505f820361203957612038611fc8565b5b600182039050919050565b5f61204e82611f20565b915061205983611f20565b9250828203905060ff81111561207257612071611fc8565b5b92915050565b5f61208282611f20565b915061208d83611f20565b9250828201905060ff8111156120a6576120a5611fc8565b5b92915050565b5f6120b68261178e565b91506120c18361178e565b92508282019050808211156120d9576120d8611fc8565b5b92915050565b6120e88161178e565b82525050565b5f6080820190506121015f830187611920565b81810360208301526121138186611bbc565b905061212260408301856120df565b61212f60608301846120df565b95945050505050565b5f81905092915050565b7f19457468657265756d205369676e6564204d6573736167653a0a3332000000005f82015250565b5f612176601c83612138565b915061218182612142565b601c82019050919050565b5f819050919050565b6121a66121a182611948565b61218c565b82525050565b5f6121b68261216a565b91506121c28284612195565b60208201915081905092915050565b5f6121dc8288611e87565b6020820191506121ec8287611e87565b6020820191506121fc8286611e87565b60208201915061220c8285611e87565b60208201915061221c8284611e87565b6020820191508190509695505050505050565b5f67ffffffffffffffff8211156122495761224861197f565b5b602082029050602081019050919050565b5f8151905061226881611c4d565b92915050565b5f61228061227b8461222f565b6119dd565b905080838252602082019050602084028301858111156122a3576122a26115ef565b5b835b818110156122cc57806122b8888261225a565b8452602084019350506020810190506122a5565b5050509392505050565b5f82601f8301126122ea576122e9611635565b5b81516122fa84826020860161226e565b91505092915050565b5f60208284031215612318576123176115e7565b5b5f82015167ffffffffffffffff811115612335576123346115eb565b5b612341848285016122d6565b91505092915050565b5f6123548261178e565b915061235f8361178e565b925082820261236d8161178e565b9150828204841483151761238457612383611fc8565b5b5092915050565b5f5ffd5b5f5ffd5b5f5f858511156123a6576123a561238b565b5b838611156123b7576123b661238f565b5b6001850283019150848603905094509492505050565b7f496e76616c6964207369676e61747572650000000000000000000000000000005f82015250565b5f612401601183611bac565b915061240c826123cd565b602082019050919050565b5f6020820190508181035f83015261242e816123f5565b9050919050565b7f5369676e6572206e6f7420616e206163746976652076616c696461746f7200005f82015250565b5f612469601e83611bac565b915061247482612435565b602082019050919050565b5f6020820190508181035f8301526124968161245d565b9050919050565b5f6124a88289611e87565b6020820191506124b88288611e87565b6020820191506124c88287611e87565b6020820191506124d88286611e87565b6020820191506124e88285611e87565b6020820191506124f88284611e87565b602082019150819050979650505050505050565b5f61251682611ba2565b6125208185612138565b9350612530818560208601611806565b80840191505092915050565b7f5f7661756c7400000000000000000000000000000000000000000000000000005f82015250565b5f612570600683612138565b915061257b8261253c565b600682019050919050565b5f612591828461250c565b915061259c82612564565b915081905092915050565b7f51696172614261736541737365747300000000000000000000000000000000005f82015250565b5f6125db600f83611bac565b91506125e6826125a7565b602082019050919050565b5f6040820190508181035f830152612608816125cf565b9050818103602083015261261c8184611bbc565b905092915050565b5f612636612631846119f7565b6119dd565b9050828152602081018484840111156126525761265161197b565b5b61265d848285611806565b509392505050565b5f82601f83011261267957612678611635565b5b8151612689848260208601612624565b91505092915050565b5f602082840312156126a7576126a66115e7565b5b5f82015167ffffffffffffffff8111156126c4576126c36115eb565b5b6126d084828501612665565b91505092915050565b7f5661756c74206e6f7420617574686f72697a65640000000000000000000000005f82015250565b5f61270d601483611bac565b9150612718826126d9565b602082019050919050565b5f6020820190508181035f83015261273a81612701565b9050919050565b5f819050602082019050919050565b5f7fffffffffffffffffffffffffffffffffffffffff00000000000000000000000082169050919050565b5f6127868251612750565b80915050919050565b5f82821b905092915050565b5f6127a5826117ec565b826127af84612741565b90506127ba8161277b565b925060148210156127fa576127f57fffffffffffffffffffffffffffffffffffffffff0000000000000000000000008360140360080261278f565b831692505b505091905056fea26469706673582212204c742ad1fb41c62e69b92166da45211d05fe80a8f4ea396e77ebb6d42c9f1e9564736f6c634300081f0033",
			"opcodes": "PUSH2 0x120 PUSH1 0x40 MSTORE CALLVALUE DUP1 ISZERO PUSH2 0x10 JUMPI PUSH0 PUSH0 REVERT JUMPDEST POP PUSH1 0x40 MLOAD PUSH2 0x2C25 CODESIZE SUB DUP1 PUSH2 0x2C25 DUP4 CODECOPY DUP2 DUP2 ADD PUSH1 0x40 MSTORE DUP2 ADD SWAP1 PUSH2 0x32 SWAP2 SWAP1 PUSH2 0x2E1 JUMP JUMPDEST CALLER PUSH0 PUSH20 0xFFFFFFFFFFFFFFFFFFFFFFFFFFFFFFFFFFFFFFFF AND DUP2 PUSH20 0xFFFFFFFFFFFFFFFFFFFFFFFFFFFFFFFFFFFFFFFF AND SUB PUSH2 0xA3 JUMPI PUSH0 PUSH1 0x40 MLOAD PUSH32 0x1E4FBDF700000000000000000000000000000000000000000000000000000000 DUP2 MSTORE PUSH1 0x4 ADD PUSH2 0x9A SWAP2 SWAP1 PUSH2 0x367 JUMP JUMPDEST PUSH1 0x40 MLOAD DUP1 SWAP2 SUB SWAP1 REVERT JUMPDEST PUSH2 0xB2 DUP2 PUSH2 0x1C2 PUSH1 0x20 SHL PUSH1 0x20 SHR JUMP JUMPDEST POP DUP5 PUSH20 0xFFFFFFFFFFFFFFFFFFFFFFFFFFFFFFFFFFFFFFFF AND PUSH1 0x80 DUP2 PUSH20 0xFFFFFFFFFFFFFFFFFFFFFFFFFFFFFFFFFFFFFFFF AND DUP2 MSTORE POP POP DUP4 PUSH20 0xFFFFFFFFFFFFFFFFFFFFFFFFFFFFFFFFFFFFFFFF AND PUSH1 0xA0 DUP2 PUSH20 0xFFFFFFFFFFFFFFFFFFFFFFFFFFFFFFFFFFFFFFFF AND DUP2 MSTORE POP POP DUP3 PUSH20 0xFFFFFFFFFFFFFFFFFFFFFFFFFFFFFFFFFFFFFFFF AND PUSH1 0xC0 DUP2 PUSH20 0xFFFFFFFFFFFFFFFFFFFFFFFFFFFFFFFFFFFFFFFF AND DUP2 MSTORE POP POP DUP2 PUSH20 0xFFFFFFFFFFFFFFFFFFFFFFFFFFFFFFFFFFFFFFFF AND PUSH1 0xE0 DUP2 PUSH20 0xFFFFFFFFFFFFFFFFFFFFFFFFFFFFFFFFFFFFFFFF AND DUP2 MSTORE POP POP DUP1 PUSH20 0xFFFFFFFFFFFFFFFFFFFFFFFFFFFFFFFFFFFFFFFF AND PUSH2 0x100 DUP2 PUSH20 0xFFFFFFFFFFFFFFFFFFFFFFFFFFFFFFFFFFFFFFFF AND DUP2 MSTORE POP POP POP POP POP POP POP PUSH2 0x380 JUMP JUMPDEST PUSH0 PUSH0 PUSH0 SWAP1 SLOAD SWAP1 PUSH2 0x100 EXP SWAP1 DIV PUSH20 0xFFFFFFFFFFFFFFFFFFFFFFFFFFFFFFFFFFFFFFFF AND SWAP1 POP DUP2 PUSH0 PUSH0 PUSH2 0x100 EXP DUP2 SLOAD DUP2 PUSH20 0xFFFFFFFFFFFFFFFFFFFFFFFFFFFFFFFFFFFFFFFF MUL NOT AND SWAP1 DUP4 PUSH20 0xFFFFFFFFFFFFFFFFFFFFFFFFFFFFFFFFFFFFFFFF AND MUL OR SWAP1 SSTORE POP DUP2 PUSH20 0xFFFFFFFFFFFFFFFFFFFFFFFFFFFFFFFFFFFFFFFF AND DUP2 PUSH20 0xFFFFFFFFFFFFFFFFFFFFFFFFFFFFFFFFFFFFFFFF AND PUSH32 0x8BE0079C531659141344CD1FD0A4F28419497F9722A3DAAFE3B4186F6B6457E0 PUSH1 0x40 MLOAD PUSH1 0x40 MLOAD DUP1 SWAP2 SUB SWAP1 LOG3 POP POP JUMP JUMPDEST PUSH0 PUSH0 REVERT JUMPDEST PUSH0 PUSH20 0xFFFFFFFFFFFFFFFFFFFFFFFFFFFFFFFFFFFFFFFF DUP3 AND SWAP1 POP SWAP2 SWAP1 POP JUMP JUMPDEST PUSH0 PUSH2 0x2B0 DUP3 PUSH2 0x287 JUMP JUMPDEST SWAP1 POP SWAP2 SWAP1 POP JUMP JUMPDEST PUSH2 0x2C0 DUP2 PUSH2 0x2A6 JUMP JUMPDEST DUP2 EQ PUSH2 0x2CA JUMPI PUSH0 PUSH0 REVERT JUMPDEST POP JUMP JUMPDEST PUSH0 DUP2 MLOAD SWAP1 POP PUSH2 0x2DB DUP2 PUSH2 0x2B7 JUMP JUMPDEST SWAP3 SWAP2 POP POP JUMP JUMPDEST PUSH0 PUSH0 PUSH0 PUSH0 PUSH0 PUSH1 0xA0 DUP7 DUP9 SUB SLT ISZERO PUSH2 0x2FA JUMPI PUSH2 0x2F9 PUSH2 0x283 JUMP JUMPDEST JUMPDEST PUSH0 PUSH2 0x307 DUP9 DUP3 DUP10 ADD PUSH2 0x2CD JUMP JUMPDEST SWAP6 POP POP PUSH1 0x20 PUSH2 0x318 DUP9 DUP3 DUP10 ADD PUSH2 0x2CD JUMP JUMPDEST SWAP5 POP POP PUSH1 0x40 PUSH2 0x329 DUP9 DUP3 DUP10 ADD PUSH2 0x2CD JUMP JUMPDEST SWAP4 POP POP PUSH1 0x60 PUSH2 0x33A DUP9 DUP3 DUP10 ADD PUSH2 0x2CD JUMP JUMPDEST SWAP3 POP POP PUSH1 0x80 PUSH2 0x34B DUP9 DUP3 DUP10 ADD PUSH2 0x2CD JUMP JUMPDEST SWAP2 POP POP SWAP3 SWAP6 POP SWAP3 SWAP6 SWAP1 SWAP4 POP JUMP JUMPDEST PUSH2 0x361 DUP2 PUSH2 0x2A6 JUMP JUMPDEST DUP3 MSTORE POP POP JUMP JUMPDEST PUSH0 PUSH1 0x20 DUP3 ADD SWAP1 POP PUSH2 0x37A PUSH0 DUP4 ADD DUP5 PUSH2 0x358 JUMP JUMPDEST SWAP3 SWAP2 POP POP JUMP JUMPDEST PUSH1 0x80 MLOAD PUSH1 0xA0 MLOAD PUSH1 0xC0 MLOAD PUSH1 0xE0 MLOAD PUSH2 0x100 MLOAD PUSH2 0x2837 PUSH2 0x3EE PUSH0 CODECOPY PUSH0 DUP2 DUP2 PUSH2 0x506 ADD MSTORE DUP2 DUP2 PUSH2 0x983 ADD MSTORE PUSH2 0xF81 ADD MSTORE PUSH0 DUP2 DUP2 PUSH2 0x8CF ADD MSTORE DUP2 DUP2 PUSH2 0xDC4 ADD MSTORE PUSH2 0x14DD ADD MSTORE PUSH0 DUP2 DUP2 PUSH2 0x35C ADD MSTORE PUSH2 0x9A7 ADD MSTORE PUSH0 DUP2 DUP2 PUSH2 0x5C0 ADD MSTORE PUSH2 0x6DD ADD MSTORE PUSH0 DUP2 DUP2 PUSH2 0xBCD ADD MSTORE PUSH2 0xE6C ADD MSTORE PUSH2 0x2837 PUSH0 RETURN INVALID PUSH1 0x80 PUSH1 0x40 MSTORE CALLVALUE DUP1 ISZERO PUSH2 0xF JUMPI PUSH0 PUSH0 REVERT JUMPDEST POP PUSH1 0x4 CALLDATASIZE LT PUSH2 0x108 JUMPI PUSH0 CALLDATALOAD PUSH1 0xE0 SHR DUP1 PUSH4 0xAAD24061 GT PUSH2 0xA0 JUMPI DUP1 PUSH4 0xBD846EE7 GT PUSH2 0x6F JUMPI DUP1 PUSH4 0xBD846EE7 EQ PUSH2 0x2B6 JUMPI DUP1 PUSH4 0xBF4D766E EQ PUSH2 0x2D2 JUMPI DUP1 PUSH4 0xF2FDE38B EQ PUSH2 0x2F0 JUMPI DUP1 PUSH4 0xF90C0F40 EQ PUSH2 0x30C JUMPI DUP1 PUSH4 0xFA540801 EQ PUSH2 0x32A JUMPI PUSH2 0x108 JUMP JUMPDEST DUP1 PUSH4 0xAAD24061 EQ PUSH2 0x21A JUMPI DUP1 PUSH4 0xAED881D8 EQ PUSH2 0x24A JUMPI DUP1 PUSH4 0xB3D63003 EQ PUSH2 0x268 JUMPI DUP1 PUSH4 0xB648F220 EQ PUSH2 0x286 JUMPI PUSH2 0x108 JUMP JUMPDEST DUP1 PUSH4 0x7A988C54 GT PUSH2 0xDC JUMPI DUP1 PUSH4 0x7A988C54 EQ PUSH2 0x180 JUMPI DUP1 PUSH4 0x8DA5CB5B EQ PUSH2 0x1B0 JUMPI DUP1 PUSH4 0x97ABA7F9 EQ PUSH2 0x1CE JUMPI DUP1 PUSH4 0xAAB7F953 EQ PUSH2 0x1FE JUMPI PUSH2 0x108 JUMP JUMPDEST DUP1 PUSH3 0xDC2234 EQ PUSH2 0x10C JUMPI DUP1 PUSH4 0x19B8C941 EQ PUSH2 0x128 JUMPI DUP1 PUSH4 0x4EB30D41 EQ PUSH2 0x158 JUMPI DUP1 PUSH4 0x715018A6 EQ PUSH2 0x176 JUMPI JUMPDEST PUSH0 PUSH0 REVERT JUMPDEST PUSH2 0x126 PUSH1 0x4 DUP1 CALLDATASIZE SUB DUP2 ADD SWAP1 PUSH2 0x121 SWAP2 SWAP1 PUSH2 0x16E7 JUMP JUMPDEST PUSH2 0x35A JUMP JUMPDEST STOP JUMPDEST PUSH2 0x142 PUSH1 0x4 DUP1 CALLDATASIZE SUB DUP2 ADD SWAP1 PUSH2 0x13D SWAP2 SWAP1 PUSH2 0x17C1 JUMP JUMPDEST PUSH2 0x595 JUMP JUMPDEST PUSH1 0x40 MLOAD PUSH2 0x14F SWAP2 SWAP1 PUSH2 0x185C JUMP JUMPDEST PUSH1 0x40 MLOAD DUP1 SWAP2 SUB SWAP1 RETURN JUMPDEST PUSH2 0x160 PUSH2 0x5BE JUMP JUMPDEST PUSH1 0x40 MLOAD PUSH2 0x16D SWAP2 SWAP1 PUSH2 0x18F6 JUMP JUMPDEST PUSH1 0x40 MLOAD DUP1 SWAP2 SUB SWAP1 RETURN JUMPDEST PUSH2 0x17E PUSH2 0x5E2 JUMP JUMPDEST STOP JUMPDEST PUSH2 0x19A PUSH1 0x4 DUP1 CALLDATASIZE SUB DUP2 ADD SWAP1 PUSH2 0x195 SWAP2 SWAP1 PUSH2 0x17C1 JUMP JUMPDEST PUSH2 0x5F5 JUMP JUMPDEST PUSH1 0x40 MLOAD PUSH2 0x1A7 SWAP2 SWAP1 PUSH2 0x192F JUMP JUMPDEST PUSH1 0x40 MLOAD DUP1 SWAP2 SUB SWAP1 RETURN JUMPDEST PUSH2 0x1B8 PUSH2 0x5FE JUMP JUMPDEST PUSH1 0x40 MLOAD PUSH2 0x1C5 SWAP2 SWAP1 PUSH2 0x192F JUMP JUMPDEST PUSH1 0x40 MLOAD DUP1 SWAP2 SUB SWAP1 RETURN JUMPDEST PUSH2 0x1E8 PUSH1 0x4 DUP1 CALLDATASIZE SUB DUP2 ADD SWAP1 PUSH2 0x1E3 SWAP2 SWAP1 PUSH2 0x1AA3 JUMP JUMPDEST PUSH2 0x625 JUMP JUMPDEST PUSH1 0x40 MLOAD PUSH2 0x1F5 SWAP2 SWAP1 PUSH2 0x192F JUMP JUMPDEST PUSH1 0x40 MLOAD DUP1 SWAP2 SUB SWAP1 RETURN JUMPDEST PUSH2 0x218 PUSH1 0x4 DUP1 CALLDATASIZE SUB DUP2 ADD SWAP1 PUSH2 0x213 SWAP2 SWAP1 PUSH2 0x16E7 JUMP JUMPDEST PUSH2 0x6DB JUMP JUMPDEST STOP JUMPDEST PUSH2 0x234 PUSH1 0x4 DUP1 CALLDATASIZE SUB DUP2 ADD SWAP1 PUSH2 0x22F SWAP2 SWAP1 PUSH2 0x17C1 JUMP JUMPDEST PUSH2 0x964 JUMP JUMPDEST PUSH1 0x40 MLOAD PUSH2 0x241 SWAP2 SWAP1 PUSH2 0x1B17 JUMP JUMPDEST PUSH1 0x40 MLOAD DUP1 SWAP2 SUB SWAP1 RETURN JUMPDEST PUSH2 0x252 PUSH2 0x981 JUMP JUMPDEST PUSH1 0x40 MLOAD PUSH2 0x25F SWAP2 SWAP1 PUSH2 0x1B50 JUMP JUMPDEST PUSH1 0x40 MLOAD DUP1 SWAP2 SUB SWAP1 RETURN JUMPDEST PUSH2 0x270 PUSH2 0x9A5 JUMP JUMPDEST PUSH1 0x40 MLOAD PUSH2 0x27D SWAP2 SWAP1 PUSH2 0x1B89 JUMP JUMPDEST PUSH1 0x40 MLOAD DUP1 SWAP2 SUB SWAP1 RETURN JUMPDEST PUSH2 0x2A0 PUSH1 0x4 DUP1 CALLDATASIZE SUB DUP2 ADD SWAP1 PUSH2 0x29B SWAP2 SWAP1 PUSH2 0x17C1 JUMP JUMPDEST PUSH2 0x9C9 JUMP JUMPDEST PUSH1 0x40 MLOAD PUSH2 0x2AD SWAP2 SWAP1 PUSH2 0x1BF4 JUMP JUMPDEST PUSH1 0x40 MLOAD DUP1 SWAP2 SUB SWAP1 RETURN JUMPDEST PUSH2 0x2D0 PUSH1 0x4 DUP1 CALLDATASIZE SUB DUP2 ADD SWAP1 PUSH2 0x2CB SWAP2 SWAP1 PUSH2 0x16E7 JUMP JUMPDEST PUSH2 0xBCB JUMP JUMPDEST STOP JUMPDEST PUSH2 0x2DA PUSH2 0xDC2 JUMP JUMPDEST PUSH1 0x40 MLOAD PUSH2 0x2E7 SWAP2 SWAP1 PUSH2 0x1C34 JUMP JUMPDEST PUSH1 0x40 MLOAD DUP1 SWAP2 SUB SWAP1 RETURN JUMPDEST PUSH2 0x30A PUSH1 0x4 DUP1 CALLDATASIZE SUB DUP2 ADD SWAP1 PUSH2 0x305 SWAP2 SWAP1 PUSH2 0x1C77 JUMP JUMPDEST PUSH2 0xDE6 JUMP JUMPDEST STOP JUMPDEST PUSH2 0x314 PUSH2 0xE6A JUMP JUMPDEST PUSH1 0x40 MLOAD PUSH2 0x321 SWAP2 SWAP1 PUSH2 0x1CC2 JUMP JUMPDEST PUSH1 0x40 MLOAD DUP1 SWAP2 SUB SWAP1 RETURN JUMPDEST PUSH2 0x344 PUSH1 0x4 DUP1 CALLDATASIZE SUB DUP2 ADD SWAP1 PUSH2 0x33F SWAP2 SWAP1 PUSH2 0x1CDB JUMP JUMPDEST PUSH2 0xE8E JUMP JUMPDEST PUSH1 0x40 MLOAD PUSH2 0x351 SWAP2 SWAP1 PUSH2 0x1D15 JUMP JUMPDEST PUSH1 0x40 MLOAD DUP1 SWAP2 SUB SWAP1 RETURN JUMPDEST PUSH32 0x0 PUSH20 0xFFFFFFFFFFFFFFFFFFFFFFFFFFFFFFFFFFFFFFFF AND PUSH4 0x9CB28658 DUP8 DUP8 PUSH1 0x40 MLOAD DUP4 PUSH4 0xFFFFFFFF AND PUSH1 0xE0 SHL DUP2 MSTORE PUSH1 0x4 ADD PUSH2 0x3B5 SWAP3 SWAP2 SWAP1 PUSH2 0x1D58 JUMP JUMPDEST PUSH0 PUSH1 0x40 MLOAD DUP1 DUP4 SUB DUP2 DUP7 DUP1 EXTCODESIZE ISZERO DUP1 ISZERO PUSH2 0x3CB JUMPI PUSH0 PUSH0 REVERT JUMPDEST POP GAS STATICCALL ISZERO DUP1 ISZERO PUSH2 0x3DD JUMPI RETURNDATASIZE PUSH0 PUSH0 RETURNDATACOPY RETURNDATASIZE PUSH0 REVERT JUMPDEST POP POP POP POP PUSH0 DUP6 PUSH1 0x4 PUSH1 0x6 DUP2 LT PUSH2 0x3F6 JUMPI PUSH2 0x3F5 PUSH2 0x1D81 JUMP JUMPDEST JUMPDEST PUSH1 0x20 MUL ADD CALLDATALOAD SWAP1 POP CHAINID DUP2 EQ PUSH2 0x43F JUMPI PUSH1 0x40 MLOAD PUSH32 0x8C379A000000000000000000000000000000000000000000000000000000000 DUP2 MSTORE PUSH1 0x4 ADD PUSH2 0x436 SWAP1 PUSH2 0x1DF8 JUMP JUMPDEST PUSH1 0x40 MLOAD DUP1 SWAP2 SUB SWAP1 REVERT JUMPDEST PUSH0 PUSH2 0x449 DUP8 PUSH2 0xEBD JUMP JUMPDEST SWAP1 POP PUSH2 0x45A DUP2 PUSH0 SHL DUP8 DUP8 DUP8 DUP8 PUSH2 0xF72 JUMP JUMPDEST PUSH1 0x1 PUSH0 DUP3 DUP2 MSTORE PUSH1 0x20 ADD SWAP1 DUP2 MSTORE PUSH1 0x20 ADD PUSH0 KECCAK256 PUSH0 SWAP1 SLOAD SWAP1 PUSH2 0x100 EXP SWAP1 DIV PUSH1 0xFF AND ISZERO PUSH2 0x4B8 JUMPI PUSH1 0x40 MLOAD PUSH32 0x8C379A000000000000000000000000000000000000000000000000000000000 DUP2 MSTORE PUSH1 0x4 ADD PUSH2 0x4AF SWAP1 PUSH2 0x1E60 JUMP JUMPDEST PUSH1 0x40 MLOAD DUP1 SWAP2 SUB SWAP1 REVERT JUMPDEST PUSH1 0x1 DUP1 PUSH0 DUP4 DUP2 MSTORE PUSH1 0x20 ADD SWAP1 DUP2 MSTORE PUSH1 0x20 ADD PUSH0 KECCAK256 PUSH0 PUSH2 0x100 EXP DUP2 SLOAD DUP2 PUSH1 0xFF MUL NOT AND SWAP1 DUP4 ISZERO ISZERO MUL OR SWAP1 SSTORE POP PUSH0 PUSH2 0x502 DUP9 PUSH1 0x5 PUSH1 0x6 DUP2 LT PUSH2 0x4F8 JUMPI PUSH2 0x4F7 PUSH2 0x1D81 JUMP JUMPDEST JUMPDEST PUSH1 0x20 MUL ADD CALLDATALOAD PUSH2 0x5F5 JUMP JUMPDEST SWAP1 POP PUSH32 0x0 PUSH20 0xFFFFFFFFFFFFFFFFFFFFFFFFFFFFFFFFFFFFFFFF AND PUSH4 0x1722E147 DUP3 PUSH1 0x40 MLOAD DUP3 PUSH4 0xFFFFFFFF AND PUSH1 0xE0 SHL DUP2 MSTORE PUSH1 0x4 ADD PUSH2 0x55D SWAP2 SWAP1 PUSH2 0x192F JUMP JUMPDEST PUSH0 PUSH1 0x40 MLOAD DUP1 DUP4 SUB DUP2 PUSH0 DUP8 DUP1 EXTCODESIZE ISZERO DUP1 ISZERO PUSH2 0x574 JUMPI PUSH0 PUSH0 REVERT JUMPDEST POP GAS CALL ISZERO DUP1 ISZERO PUSH2 0x586 JUMPI RETURNDATASIZE PUSH0 PUSH0 RETURNDATACOPY RETURNDATASIZE PUSH0 REVERT JUMPDEST POP POP POP POP POP POP POP POP POP POP POP POP POP JUMP JUMPDEST PUSH1 0x60 DUP2 PUSH1 0x40 MLOAD PUSH1 0x20 ADD PUSH2 0x5A8 SWAP2 SWAP1 PUSH2 0x1E9E JUMP JUMPDEST PUSH1 0x40 MLOAD PUSH1 0x20 DUP2 DUP4 SUB SUB DUP2 MSTORE SWAP1 PUSH1 0x40 MSTORE SWAP1 POP SWAP2 SWAP1 POP JUMP JUMPDEST PUSH32 0x0 DUP2 JUMP JUMPDEST PUSH2 0x5EA PUSH2 0x11EC JUMP JUMPDEST PUSH2 0x5F3 PUSH0 PUSH2 0x1273 JUMP JUMPDEST JUMP JUMPDEST PUSH0 DUP2 SWAP1 POP SWAP2 SWAP1 POP JUMP JUMPDEST PUSH0 PUSH0 PUSH0 SWAP1 SLOAD SWAP1 PUSH2 0x100 EXP SWAP1 DIV PUSH20 0xFFFFFFFFFFFFFFFFFFFFFFFFFFFFFFFFFFFFFFFF AND SWAP1 POP SWAP1 JUMP JUMPDEST PUSH0 PUSH1 0x41 DUP3 MLOAD EQ PUSH2 0x66A JUMPI PUSH1 0x40 MLOAD PUSH32 0x8C379A000000000000000000000000000000000000000000000000000000000 DUP2 MSTORE PUSH1 0x4 ADD PUSH2 0x661 SWAP1 PUSH2 0x1F02 JUMP JUMPDEST PUSH1 0x40 MLOAD DUP1 SWAP2 SUB SWAP1 REVERT JUMPDEST PUSH0 PUSH0 PUSH0 PUSH1 0x20 DUP6 ADD MLOAD SWAP3 POP PUSH1 0x40 DUP6 ADD MLOAD SWAP2 POP PUSH1 0x60 DUP6 ADD MLOAD PUSH0 BYTE SWAP1 POP PUSH1 0x1 DUP7 DUP3 DUP6 DUP6 PUSH1 0x40 MLOAD PUSH0 DUP2 MSTORE PUSH1 0x20 ADD PUSH1 0x40 MSTORE PUSH1 0x40 MLOAD PUSH2 0x6A6 SWAP5 SWAP4 SWAP3 SWAP2 SWAP1 PUSH2 0x1F3B JUMP JUMPDEST PUSH1 0x20 PUSH1 0x40 MLOAD PUSH1 0x20 DUP2 SUB SWAP1 DUP1 DUP5 SUB SWAP1 DUP6 GAS STATICCALL ISZERO DUP1 ISZERO PUSH2 0x6C6 JUMPI RETURNDATASIZE PUSH0 PUSH0 RETURNDATACOPY RETURNDATASIZE PUSH0 REVERT JUMPDEST POP POP POP PUSH1 0x20 PUSH1 0x40 MLOAD SUB MLOAD SWAP4 POP POP POP POP SWAP3 SWAP2 POP POP JUMP JUMPDEST PUSH32 0x0 PUSH20 0xFFFFFFFFFFFFFFFFFFFFFFFFFFFFFFFFFFFFFFFF AND PUSH4 0x9CB28658 DUP8 DUP8 PUSH1 0x40 MLOAD DUP4 PUSH4 0xFFFFFFFF AND PUSH1 0xE0 SHL DUP2 MSTORE PUSH1 0x4 ADD PUSH2 0x736 SWAP3 SWAP2 SWAP1 PUSH2 0x1D58 JUMP JUMPDEST PUSH0 PUSH1 0x40 MLOAD DUP1 DUP4 SUB DUP2 DUP7 DUP1 EXTCODESIZE ISZERO DUP1 ISZERO PUSH2 0x74C JUMPI PUSH0 PUSH0 REVERT JUMPDEST POP GAS STATICCALL ISZERO DUP1 ISZERO PUSH2 0x75E JUMPI RETURNDATASIZE PUSH0 PUSH0 RETURNDATACOPY RETURNDATASIZE PUSH0 REVERT JUMPDEST POP POP POP POP PUSH0 DUP6 PUSH1 0x5 PUSH1 0x6 DUP2 LT PUSH2 0x777 JUMPI PUSH2 0x776 PUSH2 0x1D81 JUMP JUMPDEST JUMPDEST PUSH1 0x20 MUL ADD CALLDATALOAD SWAP1 POP CHAINID DUP2 EQ PUSH2 0x7C0 JUMPI PUSH1 0x40 MLOAD PUSH32 0x8C379A000000000000000000000000000000000000000000000000000000000 DUP2 MSTORE PUSH1 0x4 ADD PUSH2 0x7B7 SWAP1 PUSH2 0x1DF8 JUMP JUMPDEST PUSH1 0x40 MLOAD DUP1 SWAP2 SUB SWAP1 REVERT JUMPDEST PUSH0 PUSH2 0x7E2 DUP8 PUSH1 0x3 PUSH1 0x6 DUP2 LT PUSH2 0x7D8 JUMPI PUSH2 0x7D7 PUSH2 0x1D81 JUMP JUMPDEST JUMPDEST PUSH1 0x20 MUL ADD CALLDATALOAD PUSH2 0x9C9 JUMP JUMPDEST SWAP1 POP PUSH0 PUSH2 0x806 DUP9 PUSH1 0x2 PUSH1 0x6 DUP2 LT PUSH2 0x7FC JUMPI PUSH2 0x7FB PUSH2 0x1D81 JUMP JUMPDEST JUMPDEST PUSH1 0x20 MUL ADD CALLDATALOAD PUSH2 0x9C9 JUMP JUMPDEST SWAP1 POP PUSH0 PUSH2 0x82A DUP10 PUSH1 0x4 PUSH1 0x6 DUP2 LT PUSH2 0x820 JUMPI PUSH2 0x81F PUSH2 0x1D81 JUMP JUMPDEST JUMPDEST PUSH1 0x20 MUL ADD CALLDATALOAD PUSH2 0x595 JUMP JUMPDEST SWAP1 POP PUSH0 PUSH2 0x836 DUP11 PUSH2 0x1334 JUMP JUMPDEST SWAP1 POP PUSH2 0x847 DUP2 PUSH0 SHL DUP11 DUP11 DUP11 DUP11 PUSH2 0xF72 JUMP JUMPDEST PUSH1 0x1 PUSH0 DUP3 DUP2 MSTORE PUSH1 0x20 ADD SWAP1 DUP2 MSTORE PUSH1 0x20 ADD PUSH0 KECCAK256 PUSH0 SWAP1 SLOAD SWAP1 PUSH2 0x100 EXP SWAP1 DIV PUSH1 0xFF AND ISZERO PUSH2 0x8A5 JUMPI PUSH1 0x40 MLOAD PUSH32 0x8C379A000000000000000000000000000000000000000000000000000000000 DUP2 MSTORE PUSH1 0x4 ADD PUSH2 0x89C SWAP1 PUSH2 0x1E60 JUMP JUMPDEST PUSH1 0x40 MLOAD DUP1 SWAP2 SUB SWAP1 REVERT JUMPDEST PUSH1 0x1 DUP1 PUSH0 DUP4 DUP2 MSTORE PUSH1 0x20 ADD SWAP1 DUP2 MSTORE PUSH1 0x20 ADD PUSH0 KECCAK256 PUSH0 PUSH2 0x100 EXP DUP2 SLOAD DUP2 PUSH1 0xFF MUL NOT AND SWAP1 DUP4 ISZERO ISZERO MUL OR SWAP1 SSTORE POP PUSH32 0x0 PUSH20 0xFFFFFFFFFFFFFFFFFFFFFFFFFFFFFFFFFFFFFFFF AND PUSH4 0x2E057B9B DUP5 DUP7 DUP6 PUSH1 0x40 MLOAD DUP5 PUSH4 0xFFFFFFFF AND PUSH1 0xE0 SHL DUP2 MSTORE PUSH1 0x4 ADD PUSH2 0x92A SWAP4 SWAP3 SWAP2 SWAP1 PUSH2 0x1F7E JUMP JUMPDEST PUSH0 PUSH1 0x40 MLOAD DUP1 DUP4 SUB DUP2 PUSH0 DUP8 DUP1 EXTCODESIZE ISZERO DUP1 ISZERO PUSH2 0x941 JUMPI PUSH0 PUSH0 REVERT JUMPDEST POP GAS CALL ISZERO DUP1 ISZERO PUSH2 0x953 JUMPI RETURNDATASIZE PUSH0 PUSH0 RETURNDATACOPY RETURNDATASIZE PUSH0 REVERT JUMPDEST POP POP POP POP POP POP POP POP POP POP POP POP POP POP POP JUMP JUMPDEST PUSH1 0x1 PUSH1 0x20 MSTORE DUP1 PUSH0 MSTORE PUSH1 0x40 PUSH0 KECCAK256 PUSH0 SWAP2 POP SLOAD SWAP1 PUSH2 0x100 EXP SWAP1 DIV PUSH1 0xFF AND DUP2 JUMP JUMPDEST PUSH32 0x0 DUP2 JUMP JUMPDEST PUSH32 0x0 DUP2 JUMP JUMPDEST PUSH1 0x60 PUSH0 DUP3 SUB PUSH2 0x9E8 JUMPI PUSH1 0x40 MLOAD DUP1 PUSH1 0x20 ADD PUSH1 0x40 MSTORE DUP1 PUSH0 DUP2 MSTORE POP SWAP1 POP PUSH2 0xBC6 JUMP JUMPDEST PUSH0 DUP3 PUSH0 SHL SWAP1 POP PUSH0 PUSH0 SWAP1 POP JUMPDEST PUSH1 0x20 DUP2 PUSH1 0xFF AND LT DUP1 ISZERO PUSH2 0xA43 JUMPI POP PUSH0 PUSH1 0xF8 SHL DUP3 DUP3 PUSH1 0xFF AND PUSH1 0x20 DUP2 LT PUSH2 0xA1B JUMPI PUSH2 0xA1A PUSH2 0x1D81 JUMP JUMPDEST JUMPDEST BYTE PUSH1 0xF8 SHL PUSH31 0xFFFFFFFFFFFFFFFFFFFFFFFFFFFFFFFFFFFFFFFFFFFFFFFFFFFFFFFFFFFFFF NOT AND EQ JUMPDEST ISZERO PUSH2 0xA5B JUMPI DUP1 DUP1 PUSH2 0xA53 SWAP1 PUSH2 0x1FF5 JUMP JUMPDEST SWAP2 POP POP PUSH2 0x9F3 JUMP JUMPDEST PUSH0 PUSH1 0x1F SWAP1 POP JUMPDEST DUP2 PUSH1 0xFF AND DUP2 PUSH1 0xFF AND GT DUP1 ISZERO PUSH2 0xAB3 JUMPI POP PUSH0 PUSH1 0xF8 SHL DUP4 DUP3 PUSH1 0xFF AND PUSH1 0x20 DUP2 LT PUSH2 0xA8B JUMPI PUSH2 0xA8A PUSH2 0x1D81 JUMP JUMPDEST JUMPDEST BYTE PUSH1 0xF8 SHL PUSH31 0xFFFFFFFFFFFFFFFFFFFFFFFFFFFFFFFFFFFFFFFFFFFFFFFFFFFFFFFFFFFFFF NOT AND EQ JUMPDEST ISZERO PUSH2 0xACB JUMPI DUP1 DUP1 PUSH2 0xAC3 SWAP1 PUSH2 0x201D JUMP JUMPDEST SWAP2 POP POP PUSH2 0xA61 JUMP JUMPDEST PUSH0 PUSH1 0x1 DUP4 DUP4 PUSH2 0xADA SWAP2 SWAP1 PUSH2 0x2044 JUMP JUMPDEST PUSH2 0xAE4 SWAP2 SWAP1 PUSH2 0x2078 JUMP JUMPDEST SWAP1 POP PUSH0 DUP2 PUSH1 0xFF AND PUSH8 0xFFFFFFFFFFFFFFFF DUP2 GT ISZERO PUSH2 0xB04 JUMPI PUSH2 0xB03 PUSH2 0x197F JUMP JUMPDEST JUMPDEST PUSH1 0x40 MLOAD SWAP1 DUP1 DUP3 MSTORE DUP1 PUSH1 0x1F ADD PUSH1 0x1F NOT AND PUSH1 0x20 ADD DUP3 ADD PUSH1 0x40 MSTORE DUP1 ISZERO PUSH2 0xB36 JUMPI DUP2 PUSH1 0x20 ADD PUSH1 0x1 DUP3 MUL DUP1 CALLDATASIZE DUP4 CALLDATACOPY DUP1 DUP3 ADD SWAP2 POP POP SWAP1 POP JUMPDEST POP SWAP1 POP PUSH0 PUSH0 SWAP1 POP JUMPDEST DUP3 PUSH1 0xFF AND DUP2 LT ISZERO PUSH2 0xBBC JUMPI DUP6 DUP2 DUP7 PUSH1 0xFF AND PUSH2 0xB59 SWAP2 SWAP1 PUSH2 0x20AC JUMP JUMPDEST PUSH1 0x20 DUP2 LT PUSH2 0xB6A JUMPI PUSH2 0xB69 PUSH2 0x1D81 JUMP JUMPDEST JUMPDEST BYTE PUSH1 0xF8 SHL DUP3 DUP3 DUP2 MLOAD DUP2 LT PUSH2 0xB81 JUMPI PUSH2 0xB80 PUSH2 0x1D81 JUMP JUMPDEST JUMPDEST PUSH1 0x20 ADD ADD SWAP1 PUSH31 0xFFFFFFFFFFFFFFFFFFFFFFFFFFFFFFFFFFFFFFFFFFFFFFFFFFFFFFFFFFFFFF NOT AND SWAP1 DUP2 PUSH0 BYTE SWAP1 MSTORE8 POP DUP1 DUP1 PUSH1 0x1 ADD SWAP2 POP POP PUSH2 0xB3E JUMP JUMPDEST POP DUP1 SWAP6 POP POP POP POP POP POP JUMPDEST SWAP2 SWAP1 POP JUMP JUMPDEST PUSH32 0x0 PUSH20 0xFFFFFFFFFFFFFFFFFFFFFFFFFFFFFFFFFFFFFFFF AND PUSH4 0x9CB28658 DUP8 DUP8 PUSH1 0x40 MLOAD DUP4 PUSH4 0xFFFFFFFF AND PUSH1 0xE0 SHL DUP2 MSTORE PUSH1 0x4 ADD PUSH2 0xC26 SWAP3 SWAP2 SWAP1 PUSH2 0x1D58 JUMP JUMPDEST PUSH0 PUSH1 0x40 MLOAD DUP1 DUP4 SUB DUP2 DUP7 DUP1 EXTCODESIZE ISZERO DUP1 ISZERO PUSH2 0xC3C JUMPI PUSH0 PUSH0 REVERT JUMPDEST POP GAS STATICCALL ISZERO DUP1 ISZERO PUSH2 0xC4E JUMPI RETURNDATASIZE PUSH0 PUSH0 RETURNDATACOPY RETURNDATASIZE PUSH0 REVERT JUMPDEST POP POP POP POP PUSH0 PUSH0 PUSH0 PUSH2 0xC5E DUP9 PUSH2 0x1403 JUMP JUMPDEST SWAP3 POP SWAP3 POP SWAP3 POP PUSH0 DUP9 PUSH1 0x2 PUSH1 0x6 DUP2 LT PUSH2 0xC79 JUMPI PUSH2 0xC78 PUSH2 0x1D81 JUMP JUMPDEST JUMPDEST PUSH1 0x20 MUL ADD CALLDATALOAD SWAP1 POP PUSH0 DUP10 PUSH1 0x3 PUSH1 0x6 DUP2 LT PUSH2 0xC95 JUMPI PUSH2 0xC94 PUSH2 0x1D81 JUMP JUMPDEST JUMPDEST PUSH1 0x20 MUL ADD CALLDATALOAD SWAP1 POP PUSH0 PUSH2 0xCA6 DUP12 PUSH2 0x1334 JUMP JUMPDEST SWAP1 POP PUSH2 0xCB7 DUP2 PUSH0 SHL DUP12 DUP12 DUP12 DUP12 PUSH2 0xF72 JUMP JUMPDEST PUSH1 0x1 PUSH0 DUP3 DUP2 MSTORE PUSH1 0x20 ADD SWAP1 DUP2 MSTORE PUSH1 0x20 ADD PUSH0 KECCAK256 PUSH0 SWAP1 SLOAD SWAP1 PUSH2 0x100 EXP SWAP1 DIV PUSH1 0xFF AND ISZERO PUSH2 0xD15 JUMPI PUSH1 0x40 MLOAD PUSH32 0x8C379A000000000000000000000000000000000000000000000000000000000 DUP2 MSTORE PUSH1 0x4 ADD PUSH2 0xD0C SWAP1 PUSH2 0x1E60 JUMP JUMPDEST PUSH1 0x40 MLOAD DUP1 SWAP2 SUB SWAP1 REVERT JUMPDEST PUSH1 0x1 DUP1 PUSH0 DUP4 DUP2 MSTORE PUSH1 0x20 ADD SWAP1 DUP2 MSTORE PUSH1 0x20 ADD PUSH0 KECCAK256 PUSH0 PUSH2 0x100 EXP DUP2 SLOAD DUP2 PUSH1 0xFF MUL NOT AND SWAP1 DUP4 ISZERO ISZERO MUL OR SWAP1 SSTORE POP PUSH0 DUP4 PUSH1 0x80 DUP5 SWAP1 SHL OR SWAP1 POP DUP6 PUSH20 0xFFFFFFFFFFFFFFFFFFFFFFFFFFFFFFFFFFFFFFFF AND PUSH4 0x6AFBF5D6 DUP3 DUP8 DUP11 DUP7 PUSH1 0x40 MLOAD DUP6 PUSH4 0xFFFFFFFF AND PUSH1 0xE0 SHL DUP2 MSTORE PUSH1 0x4 ADD PUSH2 0xD86 SWAP5 SWAP4 SWAP3 SWAP2 SWAP1 PUSH2 0x20EE JUMP JUMPDEST PUSH0 PUSH1 0x40 MLOAD DUP1 DUP4 SUB DUP2 PUSH0 DUP8 DUP1 EXTCODESIZE ISZERO DUP1 ISZERO PUSH2 0xD9D JUMPI PUSH0 PUSH0 REVERT JUMPDEST POP GAS CALL ISZERO DUP1 ISZERO PUSH2 0xDAF JUMPI RETURNDATASIZE PUSH0 PUSH0 RETURNDATACOPY RETURNDATASIZE PUSH0 REVERT JUMPDEST POP POP POP POP POP POP POP POP POP POP POP POP POP POP POP POP POP JUMP JUMPDEST PUSH32 0x0 DUP2 JUMP JUMPDEST PUSH2 0xDEE PUSH2 0x11EC JUMP JUMPDEST PUSH0 PUSH20 0xFFFFFFFFFFFFFFFFFFFFFFFFFFFFFFFFFFFFFFFF AND DUP2 PUSH20 0xFFFFFFFFFFFFFFFFFFFFFFFFFFFFFFFFFFFFFFFF AND SUB PUSH2 0xE5E JUMPI PUSH0 PUSH1 0x40 MLOAD PUSH32 0x1E4FBDF700000000000000000000000000000000000000000000000000000000 DUP2 MSTORE PUSH1 0x4 ADD PUSH2 0xE55 SWAP2 SWAP1 PUSH2 0x192F JUMP JUMPDEST PUSH1 0x40 MLOAD DUP1 SWAP2 SUB SWAP1 REVERT JUMPDEST PUSH2 0xE67 DUP2 PUSH2 0x1273 JUMP JUMPDEST POP JUMP JUMPDEST PUSH32 0x0 DUP2 JUMP JUMPDEST PUSH0 DUP2 PUSH1 0x40 MLOAD PUSH1 0x20 ADD PUSH2 0xEA0 SWAP2 SWAP1 PUSH2 0x21AC JUMP JUMPDEST PUSH1 0x40 MLOAD PUSH1 0x20 DUP2 DUP4 SUB SUB DUP2 MSTORE SWAP1 PUSH1 0x40 MSTORE DUP1 MLOAD SWAP1 PUSH1 0x20 ADD KECCAK256 SWAP1 POP SWAP2 SWAP1 POP JUMP JUMPDEST PUSH0 PUSH0 DUP3 PUSH0 PUSH1 0x6 DUP2 LT PUSH2 0xED2 JUMPI PUSH2 0xED1 PUSH2 0x1D81 JUMP JUMPDEST JUMPDEST PUSH1 0x20 MUL ADD CALLDATALOAD DUP4 PUSH1 0x1 PUSH1 0x6 DUP2 LT PUSH2 0xEEB JUMPI PUSH2 0xEEA PUSH2 0x1D81 JUMP JUMPDEST JUMPDEST PUSH1 0x20 MUL ADD CALLDATALOAD DUP5 PUSH1 0x2 PUSH1 0x6 DUP2 LT PUSH2 0xF04 JUMPI PUSH2 0xF03 PUSH2 0x1D81 JUMP JUMPDEST JUMPDEST PUSH1 0x20 MUL ADD CALLDATALOAD DUP6 PUSH1 0x3 PUSH1 0x6 DUP2 LT PUSH2 0xF1D JUMPI PUSH2 0xF1C PUSH2 0x1D81 JUMP JUMPDEST JUMPDEST PUSH1 0x20 MUL ADD CALLDATALOAD DUP7 PUSH1 0x4 PUSH1 0x6 DUP2 LT PUSH2 0xF36 JUMPI PUSH2 0xF35 PUSH2 0x1D81 JUMP JUMPDEST JUMPDEST PUSH1 0x20 MUL ADD CALLDATALOAD PUSH1 0x40 MLOAD PUSH1 0x20 ADD PUSH2 0xF4F SWAP6 SWAP5 SWAP4 SWAP3 SWAP2 SWAP1 PUSH2 0x21D1 JUMP JUMPDEST PUSH1 0x40 MLOAD PUSH1 0x20 DUP2 DUP4 SUB SUB DUP2 MSTORE SWAP1 PUSH1 0x40 MSTORE DUP1 MLOAD SWAP1 PUSH1 0x20 ADD KECCAK256 SWAP1 POP DUP1 PUSH0 SHR SWAP2 POP POP SWAP2 SWAP1 POP JUMP JUMPDEST PUSH0 PUSH2 0xF7C DUP7 PUSH2 0xE8E JUMP JUMPDEST SWAP1 POP PUSH0 PUSH32 0x0 PUSH20 0xFFFFFFFFFFFFFFFFFFFFFFFFFFFFFFFFFFFFFFFF AND PUSH4 0x1442E4C9 PUSH1 0x40 MLOAD DUP2 PUSH4 0xFFFFFFFF AND PUSH1 0xE0 SHL DUP2 MSTORE PUSH1 0x4 ADD PUSH0 PUSH1 0x40 MLOAD DUP1 DUP4 SUB DUP2 DUP7 GAS STATICCALL ISZERO DUP1 ISZERO PUSH2 0xFE7 JUMPI RETURNDATASIZE PUSH0 PUSH0 RETURNDATACOPY RETURNDATASIZE PUSH0 REVERT JUMPDEST POP POP POP POP PUSH1 0x40 MLOAD RETURNDATASIZE PUSH0 DUP3 RETURNDATACOPY RETURNDATASIZE PUSH1 0x1F NOT PUSH1 0x1F DUP3 ADD AND DUP3 ADD DUP1 PUSH1 0x40 MSTORE POP DUP2 ADD SWAP1 PUSH2 0x100F SWAP2 SWAP1 PUSH2 0x2303 JUMP JUMPDEST SWAP1 POP PUSH0 PUSH0 SWAP1 POP JUMPDEST DUP7 DUP7 SWAP1 POP DUP2 LT ISZERO PUSH2 0x11E2 JUMPI CALLDATASIZE PUSH0 DUP7 DUP7 PUSH1 0x41 DUP6 PUSH2 0x1032 SWAP2 SWAP1 PUSH2 0x234A JUMP JUMPDEST SWAP1 PUSH1 0x41 PUSH1 0x1 DUP8 PUSH2 0x1042 SWAP2 SWAP1 PUSH2 0x20AC JUMP JUMPDEST PUSH2 0x104C SWAP2 SWAP1 PUSH2 0x234A JUMP JUMPDEST SWAP3 PUSH2 0x1059 SWAP4 SWAP3 SWAP2 SWAP1 PUSH2 0x2393 JUMP JUMPDEST SWAP2 POP SWAP2 POP PUSH0 PUSH2 0x10AB DUP7 DUP5 DUP5 DUP1 DUP1 PUSH1 0x1F ADD PUSH1 0x20 DUP1 SWAP2 DIV MUL PUSH1 0x20 ADD PUSH1 0x40 MLOAD SWAP1 DUP2 ADD PUSH1 0x40 MSTORE DUP1 SWAP4 SWAP3 SWAP2 SWAP1 DUP2 DUP2 MSTORE PUSH1 0x20 ADD DUP4 DUP4 DUP1 DUP3 DUP5 CALLDATACOPY PUSH0 DUP2 DUP5 ADD MSTORE PUSH1 0x1F NOT PUSH1 0x1F DUP3 ADD AND SWAP1 POP DUP1 DUP4 ADD SWAP3 POP POP POP POP POP POP POP PUSH2 0x625 JUMP JUMPDEST SWAP1 POP PUSH0 PUSH20 0xFFFFFFFFFFFFFFFFFFFFFFFFFFFFFFFFFFFFFFFF AND DUP2 PUSH20 0xFFFFFFFFFFFFFFFFFFFFFFFFFFFFFFFFFFFFFFFF AND SUB PUSH2 0x111B JUMPI PUSH1 0x40 MLOAD PUSH32 0x8C379A000000000000000000000000000000000000000000000000000000000 DUP2 MSTORE PUSH1 0x4 ADD PUSH2 0x1112 SWAP1 PUSH2 0x2417 JUMP JUMPDEST PUSH1 0x40 MLOAD DUP1 SWAP2 SUB SWAP1 REVERT JUMPDEST PUSH0 PUSH0 SWAP1 POP PUSH0 PUSH0 SWAP1 POP JUMPDEST DUP7 MLOAD DUP2 LT ISZERO PUSH2 0x1190 JUMPI DUP3 PUSH20 0xFFFFFFFFFFFFFFFFFFFFFFFFFFFFFFFFFFFFFFFF AND DUP8 DUP3 DUP2 MLOAD DUP2 LT PUSH2 0x1157 JUMPI PUSH2 0x1156 PUSH2 0x1D81 JUMP JUMPDEST JUMPDEST PUSH1 0x20 MUL PUSH1 0x20 ADD ADD MLOAD PUSH20 0xFFFFFFFFFFFFFFFFFFFFFFFFFFFFFFFFFFFFFFFF AND SUB PUSH2 0x1183 JUMPI PUSH1 0x1 SWAP2 POP PUSH2 0x1190 JUMP JUMPDEST DUP1 DUP1 PUSH1 0x1 ADD SWAP2 POP POP PUSH2 0x1124 JUMP JUMPDEST POP DUP1 PUSH2 0x11D1 JUMPI PUSH1 0x40 MLOAD PUSH32 0x8C379A000000000000000000000000000000000000000000000000000000000 DUP2 MSTORE PUSH1 0x4 ADD PUSH2 0x11C8 SWAP1 PUSH2 0x247F JUMP JUMPDEST PUSH1 0x40 MLOAD DUP1 SWAP2 SUB SWAP1 REVERT JUMPDEST POP POP POP POP DUP1 DUP1 PUSH1 0x1 ADD SWAP2 POP POP PUSH2 0x1016 JUMP JUMPDEST POP POP POP POP POP POP POP POP JUMP JUMPDEST PUSH2 0x11F4 PUSH2 0x15D7 JUMP JUMPDEST PUSH20 0xFFFFFFFFFFFFFFFFFFFFFFFFFFFFFFFFFFFFFFFF AND PUSH2 0x1212 PUSH2 0x5FE JUMP JUMPDEST PUSH20 0xFFFFFFFFFFFFFFFFFFFFFFFFFFFFFFFFFFFFFFFF AND EQ PUSH2 0x1271 JUMPI PUSH2 0x1235 PUSH2 0x15D7 JUMP JUMPDEST PUSH1 0x40 MLOAD PUSH32 0x118CDAA700000000000000000000000000000000000000000000000000000000 DUP2 MSTORE PUSH1 0x4 ADD PUSH2 0x1268 SWAP2 SWAP1 PUSH2 0x192F JUMP JUMPDEST PUSH1 0x40 MLOAD DUP1 SWAP2 SUB SWAP1 REVERT JUMPDEST JUMP JUMPDEST PUSH0 PUSH0 PUSH0 SWAP1 SLOAD SWAP1 PUSH2 0x100 EXP SWAP1 DIV PUSH20 0xFFFFFFFFFFFFFFFFFFFFFFFFFFFFFFFFFFFFFFFF AND SWAP1 POP DUP2 PUSH0 PUSH0 PUSH2 0x100 EXP DUP2 SLOAD DUP2 PUSH20 0xFFFFFFFFFFFFFFFFFFFFFFFFFFFFFFFFFFFFFFFF MUL NOT AND SWAP1 DUP4 PUSH20 0xFFFFFFFFFFFFFFFFFFFFFFFFFFFFFFFFFFFFFFFF AND MUL OR SWAP1 SSTORE POP DUP2 PUSH20 0xFFFFFFFFFFFFFFFFFFFFFFFFFFFFFFFFFFFFFFFF AND DUP2 PUSH20 0xFFFFFFFFFFFFFFFFFFFFFFFFFFFFFFFFFFFFFFFF AND PUSH32 0x8BE0079C531659141344CD1FD0A4F28419497F9722A3DAAFE3B4186F6B6457E0 PUSH1 0x40 MLOAD PUSH1 0x40 MLOAD DUP1 SWAP2 SUB SWAP1 LOG3 POP POP JUMP JUMPDEST PUSH0 PUSH0 DUP3 PUSH0 PUSH1 0x6 DUP2 LT PUSH2 0x1349 JUMPI PUSH2 0x1348 PUSH2 0x1D81 JUMP JUMPDEST JUMPDEST PUSH1 0x20 MUL ADD CALLDATALOAD DUP4 PUSH1 0x1 PUSH1 0x6 DUP2 LT PUSH2 0x1362 JUMPI PUSH2 0x1361 PUSH2 0x1D81 JUMP JUMPDEST JUMPDEST PUSH1 0x20 MUL ADD CALLDATALOAD DUP5 PUSH1 0x2 PUSH1 0x6 DUP2 LT PUSH2 0x137B JUMPI PUSH2 0x137A PUSH2 0x1D81 JUMP JUMPDEST JUMPDEST PUSH1 0x20 MUL ADD CALLDATALOAD DUP6 PUSH1 0x3 PUSH1 0x6 DUP2 LT PUSH2 0x1394 JUMPI PUSH2 0x1393 PUSH2 0x1D81 JUMP JUMPDEST JUMPDEST PUSH1 0x20 MUL ADD CALLDATALOAD DUP7 PUSH1 0x4 PUSH1 0x6 DUP2 LT PUSH2 0x13AD JUMPI PUSH2 0x13AC PUSH2 0x1D81 JUMP JUMPDEST JUMPDEST PUSH1 0x20 MUL ADD CALLDATALOAD DUP8 PUSH1 0x5 PUSH1 0x6 DUP2 LT PUSH2 0x13C6 JUMPI PUSH2 0x13C5 PUSH2 0x1D81 JUMP JUMPDEST JUMPDEST PUSH1 0x20 MUL ADD CALLDATALOAD PUSH1 0x40 MLOAD PUSH1 0x20 ADD PUSH2 0x13E0 SWAP7 SWAP6 SWAP5 SWAP4 SWAP3 SWAP2 SWAP1 PUSH2 0x249D JUMP JUMPDEST PUSH1 0x40 MLOAD PUSH1 0x20 DUP2 DUP4 SUB SUB DUP2 MSTORE SWAP1 PUSH1 0x40 MSTORE DUP1 MLOAD SWAP1 PUSH1 0x20 ADD KECCAK256 SWAP1 POP DUP1 PUSH0 SHR SWAP2 POP POP SWAP2 SWAP1 POP JUMP JUMPDEST PUSH0 PUSH0 PUSH1 0x60 PUSH0 DUP5 PUSH1 0x5 PUSH1 0x6 DUP2 LT PUSH2 0x141C JUMPI PUSH2 0x141B PUSH2 0x1D81 JUMP JUMPDEST JUMPDEST PUSH1 0x20 MUL ADD CALLDATALOAD SWAP1 POP DUP1 PUSH8 0xFFFFFFFFFFFFFFFF AND SWAP4 POP PUSH0 PUSH1 0x40 DUP3 SWAP1 SHR PUSH4 0xFFFFFFFF AND SWAP1 POP CHAINID DUP2 EQ PUSH2 0x1480 JUMPI PUSH1 0x40 MLOAD PUSH32 0x8C379A000000000000000000000000000000000000000000000000000000000 DUP2 MSTORE PUSH1 0x4 ADD PUSH2 0x1477 SWAP1 PUSH2 0x1DF8 JUMP JUMPDEST PUSH1 0x40 MLOAD DUP1 SWAP2 SUB SWAP1 REVERT JUMPDEST PUSH0 PUSH1 0x80 DUP4 SWAP1 SHR SWAP1 POP PUSH2 0x1491 DUP2 PUSH2 0x9C9 JUMP JUMPDEST SWAP4 POP PUSH0 PUSH2 0x14B5 DUP9 PUSH1 0x4 PUSH1 0x6 DUP2 LT PUSH2 0x14AB JUMPI PUSH2 0x14AA PUSH2 0x1D81 JUMP JUMPDEST JUMPDEST PUSH1 0x20 MUL ADD CALLDATALOAD PUSH2 0x9C9 JUMP JUMPDEST SWAP1 POP PUSH0 DUP2 PUSH1 0x40 MLOAD PUSH1 0x20 ADD PUSH2 0x14C9 SWAP2 SWAP1 PUSH2 0x2586 JUMP JUMPDEST PUSH1 0x40 MLOAD PUSH1 0x20 DUP2 DUP4 SUB SUB DUP2 MSTORE SWAP1 PUSH1 0x40 MSTORE SWAP1 POP PUSH0 PUSH32 0x0 PUSH20 0xFFFFFFFFFFFFFFFFFFFFFFFFFFFFFFFFFFFFFFFF AND PUSH4 0x16F1ADC1 DUP4 PUSH1 0x40 MLOAD DUP3 PUSH4 0xFFFFFFFF AND PUSH1 0xE0 SHL DUP2 MSTORE PUSH1 0x4 ADD PUSH2 0x1534 SWAP2 SWAP1 PUSH2 0x25F1 JUMP JUMPDEST PUSH0 PUSH1 0x40 MLOAD DUP1 DUP4 SUB DUP2 DUP7 GAS STATICCALL ISZERO DUP1 ISZERO PUSH2 0x154E JUMPI RETURNDATASIZE PUSH0 PUSH0 RETURNDATACOPY RETURNDATASIZE PUSH0 REVERT JUMPDEST POP POP POP POP PUSH1 0x40 MLOAD RETURNDATASIZE PUSH0 DUP3 RETURNDATACOPY RETURNDATASIZE PUSH1 0x1F NOT PUSH1 0x1F DUP3 ADD AND DUP3 ADD DUP1 PUSH1 0x40 MSTORE POP DUP2 ADD SWAP1 PUSH2 0x1576 SWAP2 SWAP1 PUSH2 0x2692 JUMP JUMPDEST SWAP1 POP PUSH0 DUP2 MLOAD GT PUSH2 0x15BB JUMPI PUSH1 0x40 MLOAD PUSH32 0x8C379A000000000000000000000000000000000000000000000000000000000 DUP2 MSTORE PUSH1 0x4 ADD PUSH2 0x15B2 SWAP1 PUSH2 0x2723 JUMP JUMPDEST PUSH1 0x40 MLOAD DUP1 SWAP2 SUB SWAP1 REVERT JUMPDEST DUP1 PUSH2 0x15C5 SWAP1 PUSH2 0x279B JUMP JUMPDEST PUSH1 0x60 SHR SWAP8 POP POP POP POP POP POP POP SWAP2 SWAP4 SWAP1 SWAP3 POP JUMP JUMPDEST PUSH0 CALLER SWAP1 POP SWAP1 JUMP JUMPDEST PUSH0 PUSH1 0x40 MLOAD SWAP1 POP SWAP1 JUMP JUMPDEST PUSH0 PUSH0 REVERT JUMPDEST PUSH0 PUSH0 REVERT JUMPDEST PUSH0 PUSH0 REVERT JUMPDEST PUSH0 DUP2 SWAP1 POP DUP3 PUSH1 0x20 PUSH1 0x8 MUL DUP3 ADD GT ISZERO PUSH2 0x160E JUMPI PUSH2 0x160D PUSH2 0x15EF JUMP JUMPDEST JUMPDEST SWAP3 SWAP2 POP POP JUMP JUMPDEST PUSH0 DUP2 SWAP1 POP DUP3 PUSH1 0x20 PUSH1 0x6 MUL DUP3 ADD GT ISZERO PUSH2 0x162F JUMPI PUSH2 0x162E PUSH2 0x15EF JUMP JUMPDEST JUMPDEST SWAP3 SWAP2 POP POP JUMP JUMPDEST PUSH0 PUSH0 REVERT JUMPDEST PUSH0 PUSH0 REVERT JUMPDEST PUSH0 PUSH0 DUP4 PUSH1 0x1F DUP5 ADD SLT PUSH2 0x1652 JUMPI PUSH2 0x1651 PUSH2 0x1635 JUMP JUMPDEST JUMPDEST DUP3 CALLDATALOAD SWAP1 POP PUSH8 0xFFFFFFFFFFFFFFFF DUP2 GT ISZERO PUSH2 0x166F JUMPI PUSH2 0x166E PUSH2 0x1639 JUMP JUMPDEST JUMPDEST PUSH1 0x20 DUP4 ADD SWAP2 POP DUP4 PUSH1 0x20 DUP3 MUL DUP4 ADD GT ISZERO PUSH2 0x168B JUMPI PUSH2 0x168A PUSH2 0x15EF JUMP JUMPDEST JUMPDEST SWAP3 POP SWAP3 SWAP1 POP JUMP JUMPDEST PUSH0 PUSH0 DUP4 PUSH1 0x1F DUP5 ADD SLT PUSH2 0x16A7 JUMPI PUSH2 0x16A6 PUSH2 0x1635 JUMP JUMPDEST JUMPDEST DUP3 CALLDATALOAD SWAP1 POP PUSH8 0xFFFFFFFFFFFFFFFF DUP2 GT ISZERO PUSH2 0x16C4 JUMPI PUSH2 0x16C3 PUSH2 0x1639 JUMP JUMPDEST JUMPDEST PUSH1 0x20 DUP4 ADD SWAP2 POP DUP4 PUSH1 0x1 DUP3 MUL DUP4 ADD GT ISZERO PUSH2 0x16E0 JUMPI PUSH2 0x16DF PUSH2 0x15EF JUMP JUMPDEST JUMPDEST SWAP3 POP SWAP3 SWAP1 POP JUMP JUMPDEST PUSH0 PUSH0 PUSH0 PUSH0 PUSH0 PUSH0 PUSH2 0x200 DUP8 DUP10 SUB SLT ISZERO PUSH2 0x1702 JUMPI PUSH2 0x1701 PUSH2 0x15E7 JUMP JUMPDEST JUMPDEST PUSH0 PUSH2 0x170F DUP10 DUP3 DUP11 ADD PUSH2 0x15F3 JUMP JUMPDEST SWAP7 POP POP PUSH2 0x100 PUSH2 0x1721 DUP10 DUP3 DUP11 ADD PUSH2 0x1614 JUMP JUMPDEST SWAP6 POP POP PUSH2 0x1C0 DUP8 ADD CALLDATALOAD PUSH8 0xFFFFFFFFFFFFFFFF DUP2 GT ISZERO PUSH2 0x1743 JUMPI PUSH2 0x1742 PUSH2 0x15EB JUMP JUMPDEST JUMPDEST PUSH2 0x174F DUP10 DUP3 DUP11 ADD PUSH2 0x163D JUMP JUMPDEST SWAP5 POP SWAP5 POP POP PUSH2 0x1E0 DUP8 ADD CALLDATALOAD PUSH8 0xFFFFFFFFFFFFFFFF DUP2 GT ISZERO PUSH2 0x1773 JUMPI PUSH2 0x1772 PUSH2 0x15EB JUMP JUMPDEST JUMPDEST PUSH2 0x177F DUP10 DUP3 DUP11 ADD PUSH2 0x1692 JUMP JUMPDEST SWAP3 POP SWAP3 POP POP SWAP3 SWAP6 POP SWAP3 SWAP6 POP SWAP3 SWAP6 JUMP JUMPDEST PUSH0 DUP2 SWAP1 POP SWAP2 SWAP1 POP JUMP JUMPDEST PUSH2 0x17A0 DUP2 PUSH2 0x178E JUMP JUMPDEST DUP2 EQ PUSH2 0x17AA JUMPI PUSH0 PUSH0 REVERT JUMPDEST POP JUMP JUMPDEST PUSH0 DUP2 CALLDATALOAD SWAP1 POP PUSH2 0x17BB DUP2 PUSH2 0x1797 JUMP JUMPDEST SWAP3 SWAP2 POP POP JUMP JUMPDEST PUSH0 PUSH1 0x20 DUP3 DUP5 SUB SLT ISZERO PUSH2 0x17D6 JUMPI PUSH2 0x17D5 PUSH2 0x15E7 JUMP JUMPDEST JUMPDEST PUSH0 PUSH2 0x17E3 DUP5 DUP3 DUP6 ADD PUSH2 0x17AD JUMP JUMPDEST SWAP2 POP POP SWAP3 SWAP2 POP POP JUMP JUMPDEST PUSH0 DUP2 MLOAD SWAP1 POP SWAP2 SWAP1 POP JUMP JUMPDEST PUSH0 DUP3 DUP3 MSTORE PUSH1 0x20 DUP3 ADD SWAP1 POP SWAP3 SWAP2 POP POP JUMP JUMPDEST DUP3 DUP2 DUP4 MCOPY PUSH0 DUP4 DUP4 ADD MSTORE POP POP POP JUMP JUMPDEST PUSH0 PUSH1 0x1F NOT PUSH1 0x1F DUP4 ADD AND SWAP1 POP SWAP2 SWAP1 POP JUMP JUMPDEST PUSH0 PUSH2 0x182E DUP3 PUSH2 0x17EC JUMP JUMPDEST PUSH2 0x1838 DUP2 DUP6 PUSH2 0x17F6 JUMP JUMPDEST SWAP4 POP PUSH2 0x1848 DUP2 DUP6 PUSH1 0x20 DUP7 ADD PUSH2 0x1806 JUMP JUMPDEST PUSH2 0x1851 DUP2 PUSH2 0x1814 JUMP JUMPDEST DUP5 ADD SWAP2 POP POP SWAP3 SWAP2 POP POP JUMP JUMPDEST PUSH0 PUSH1 0x20 DUP3 ADD SWAP1 POP DUP2 DUP2 SUB PUSH0 DUP4 ADD MSTORE PUSH2 0x1874 DUP2 DUP5 PUSH2 0x1824 JUMP JUMPDEST SWAP1 POP SWAP3 SWAP2 POP POP JUMP JUMPDEST PUSH0 PUSH20 0xFFFFFFFFFFFFFFFFFFFFFFFFFFFFFFFFFFFFFFFF DUP3 AND SWAP1 POP SWAP2 SWAP1 POP JUMP JUMPDEST PUSH0 DUP2 SWAP1 POP SWAP2 SWAP1 POP JUMP JUMPDEST PUSH0 PUSH2 0x18BE PUSH2 0x18B9 PUSH2 0x18B4 DUP5 PUSH2 0x187C JUMP JUMPDEST PUSH2 0x189B JUMP JUMPDEST PUSH2 0x187C JUMP JUMPDEST SWAP1 POP SWAP2 SWAP1 POP JUMP JUMPDEST PUSH0 PUSH2 0x18CF DUP3 PUSH2 0x18A4 JUMP JUMPDEST SWAP1 POP SWAP2 SWAP1 POP JUMP JUMPDEST PUSH0 PUSH2 0x18E0 DUP3 PUSH2 0x18C5 JUMP JUMPDEST SWAP1 POP SWAP2 SWAP1 POP JUMP JUMPDEST PUSH2 0x18F0 DUP2 PUSH2 0x18D6 JUMP JUMPDEST DUP3 MSTORE POP POP JUMP JUMPDEST PUSH0 PUSH1 0x20 DUP3 ADD SWAP1 POP PUSH2 0x1909 PUSH0 DUP4 ADD DUP5 PUSH2 0x18E7 JUMP JUMPDEST SWAP3 SWAP2 POP POP JUMP JUMPDEST PUSH0 PUSH2 0x1919 DUP3 PUSH2 0x187C JUMP JUMPDEST SWAP1 POP SWAP2 SWAP1 POP JUMP JUMPDEST PUSH2 0x1929 DUP2 PUSH2 0x190F JUMP JUMPDEST DUP3 MSTORE POP POP JUMP JUMPDEST PUSH0 PUSH1 0x20 DUP3 ADD SWAP1 POP PUSH2 0x1942 PUSH0 DUP4 ADD DUP5 PUSH2 0x1920 JUMP JUMPDEST SWAP3 SWAP2 POP POP JUMP JUMPDEST PUSH0 DUP2 SWAP1 POP SWAP2 SWAP1 POP JUMP JUMPDEST PUSH2 0x195A DUP2 PUSH2 0x1948 JUMP JUMPDEST DUP2 EQ PUSH2 0x1964 JUMPI PUSH0 PUSH0 REVERT JUMPDEST POP JUMP JUMPDEST PUSH0 DUP2 CALLDATALOAD SWAP1 POP PUSH2 0x1975 DUP2 PUSH2 0x1951 JUMP JUMPDEST SWAP3 SWAP2 POP POP JUMP JUMPDEST PUSH0 PUSH0 REVERT JUMPDEST PUSH32 0x4E487B7100000000000000000000000000000000000000000000000000000000 PUSH0 MSTORE PUSH1 0x41 PUSH1 0x4 MSTORE PUSH1 0x24 PUSH0 REVERT JUMPDEST PUSH2 0x19B5 DUP3 PUSH2 0x1814 JUMP JUMPDEST DUP2 ADD DUP2 DUP2 LT PUSH8 0xFFFFFFFFFFFFFFFF DUP3 GT OR ISZERO PUSH2 0x19D4 JUMPI PUSH2 0x19D3 PUSH2 0x197F JUMP JUMPDEST JUMPDEST DUP1 PUSH1 0x40 MSTORE POP POP POP JUMP JUMPDEST PUSH0 PUSH2 0x19E6 PUSH2 0x15DE JUMP JUMPDEST SWAP1 POP PUSH2 0x19F2 DUP3 DUP3 PUSH2 0x19AC JUMP JUMPDEST SWAP2 SWAP1 POP JUMP JUMPDEST PUSH0 PUSH8 0xFFFFFFFFFFFFFFFF DUP3 GT ISZERO PUSH2 0x1A11 JUMPI PUSH2 0x1A10 PUSH2 0x197F JUMP JUMPDEST JUMPDEST PUSH2 0x1A1A DUP3 PUSH2 0x1814 JUMP JUMPDEST SWAP1 POP PUSH1 0x20 DUP2 ADD SWAP1 POP SWAP2 SWAP1 POP JUMP JUMPDEST DUP3 DUP2 DUP4 CALLDATACOPY PUSH0 DUP4 DUP4 ADD MSTORE POP POP POP JUMP JUMPDEST PUSH0 PUSH2 0x1A47 PUSH2 0x1A42 DUP5 PUSH2 0x19F7 JUMP JUMPDEST PUSH2 0x19DD JUMP JUMPDEST SWAP1 POP DUP3 DUP2 MSTORE PUSH1 0x20 DUP2 ADD DUP5 DUP5 DUP5 ADD GT ISZERO PUSH2 0x1A63 JUMPI PUSH2 0x1A62 PUSH2 0x197B JUMP JUMPDEST JUMPDEST PUSH2 0x1A6E DUP5 DUP3 DUP6 PUSH2 0x1A27 JUMP JUMPDEST POP SWAP4 SWAP3 POP POP POP JUMP JUMPDEST PUSH0 DUP3 PUSH1 0x1F DUP4 ADD SLT PUSH2 0x1A8A JUMPI PUSH2 0x1A89 PUSH2 0x1635 JUMP JUMPDEST JUMPDEST DUP2 CALLDATALOAD PUSH2 0x1A9A DUP5 DUP3 PUSH1 0x20 DUP7 ADD PUSH2 0x1A35 JUMP JUMPDEST SWAP2 POP POP SWAP3 SWAP2 POP POP JUMP JUMPDEST PUSH0 PUSH0 PUSH1 0x40 DUP4 DUP6 SUB SLT ISZERO PUSH2 0x1AB9 JUMPI PUSH2 0x1AB8 PUSH2 0x15E7 JUMP JUMPDEST JUMPDEST PUSH0 PUSH2 0x1AC6 DUP6 DUP3 DUP7 ADD PUSH2 0x1967 JUMP JUMPDEST SWAP3 POP POP PUSH1 0x20 DUP4 ADD CALLDATALOAD PUSH8 0xFFFFFFFFFFFFFFFF DUP2 GT ISZERO PUSH2 0x1AE7 JUMPI PUSH2 0x1AE6 PUSH2 0x15EB JUMP JUMPDEST JUMPDEST PUSH2 0x1AF3 DUP6 DUP3 DUP7 ADD PUSH2 0x1A76 JUMP JUMPDEST SWAP2 POP POP SWAP3 POP SWAP3 SWAP1 POP JUMP JUMPDEST PUSH0 DUP2 ISZERO ISZERO SWAP1 POP SWAP2 SWAP1 POP JUMP JUMPDEST PUSH2 0x1B11 DUP2 PUSH2 0x1AFD JUMP JUMPDEST DUP3 MSTORE POP POP JUMP JUMPDEST PUSH0 PUSH1 0x20 DUP3 ADD SWAP1 POP PUSH2 0x1B2A PUSH0 DUP4 ADD DUP5 PUSH2 0x1B08 JUMP JUMPDEST SWAP3 SWAP2 POP POP JUMP JUMPDEST PUSH0 PUSH2 0x1B3A DUP3 PUSH2 0x18C5 JUMP JUMPDEST SWAP1 POP SWAP2 SWAP1 POP JUMP JUMPDEST PUSH2 0x1B4A DUP2 PUSH2 0x1B30 JUMP JUMPDEST DUP3 MSTORE POP POP JUMP JUMPDEST PUSH0 PUSH1 0x20 DUP3 ADD SWAP1 POP PUSH2 0x1B63 PUSH0 DUP4 ADD DUP5 PUSH2 0x1B41 JUMP JUMPDEST SWAP3 SWAP2 POP POP JUMP JUMPDEST PUSH0 PUSH2 0x1B73 DUP3 PUSH2 0x18C5 JUMP JUMPDEST SWAP1 POP SWAP2 SWAP1 POP JUMP JUMPDEST PUSH2 0x1B83 DUP2 PUSH2 0x1B69 JUMP JUMPDEST DUP3 MSTORE POP POP JUMP JUMPDEST PUSH0 PUSH1 0x20 DUP3 ADD SWAP1 POP PUSH2 0x1B9C PUSH0 DUP4 ADD DUP5 PUSH2 0x1B7A JUMP JUMPDEST SWAP3 SWAP2 POP POP JUMP JUMPDEST PUSH0 DUP2 MLOAD SWAP1 POP SWAP2 SWAP1 POP JUMP JUMPDEST PUSH0 DUP3 DUP3 MSTORE PUSH1 0x20 DUP3 ADD SWAP1 POP SWAP3 SWAP2 POP POP JUMP JUMPDEST PUSH0 PUSH2 0x1BC6 DUP3 PUSH2 0x1BA2 JUMP JUMPDEST PUSH2 0x1BD0 DUP2 DUP6 PUSH2 0x1BAC JUMP JUMPDEST SWAP4 POP PUSH2 0x1BE0 DUP2 DUP6 PUSH1 0x20 DUP7 ADD PUSH2 0x1806 JUMP JUMPDEST PUSH2 0x1BE9 DUP2 PUSH2 0x1814 JUMP JUMPDEST DUP5 ADD SWAP2 POP POP SWAP3 SWAP2 POP POP JUMP JUMPDEST PUSH0 PUSH1 0x20 DUP3 ADD SWAP1 POP DUP2 DUP2 SUB PUSH0 DUP4 ADD MSTORE PUSH2 0x1C0C DUP2 DUP5 PUSH2 0x1BBC JUMP JUMPDEST SWAP1 POP SWAP3 SWAP2 POP POP JUMP JUMPDEST PUSH0 PUSH2 0x1C1E DUP3 PUSH2 0x18C5 JUMP JUMPDEST SWAP1 POP SWAP2 SWAP1 POP JUMP JUMPDEST PUSH2 0x1C2E DUP2 PUSH2 0x1C14 JUMP JUMPDEST DUP3 MSTORE POP POP JUMP JUMPDEST PUSH0 PUSH1 0x20 DUP3 ADD SWAP1 POP PUSH2 0x1C47 PUSH0 DUP4 ADD DUP5 PUSH2 0x1C25 JUMP JUMPDEST SWAP3 SWAP2 POP POP JUMP JUMPDEST PUSH2 0x1C56 DUP2 PUSH2 0x190F JUMP JUMPDEST DUP2 EQ PUSH2 0x1C60 JUMPI PUSH0 PUSH0 REVERT JUMPDEST POP JUMP JUMPDEST PUSH0 DUP2 CALLDATALOAD SWAP1 POP PUSH2 0x1C71 DUP2 PUSH2 0x1C4D JUMP JUMPDEST SWAP3 SWAP2 POP POP JUMP JUMPDEST PUSH0 PUSH1 0x20 DUP3 DUP5 SUB SLT ISZERO PUSH2 0x1C8C JUMPI PUSH2 0x1C8B PUSH2 0x15E7 JUMP JUMPDEST JUMPDEST PUSH0 PUSH2 0x1C99 DUP5 DUP3 DUP6 ADD PUSH2 0x1C63 JUMP JUMPDEST SWAP2 POP POP SWAP3 SWAP2 POP POP JUMP JUMPDEST PUSH0 PUSH2 0x1CAC DUP3 PUSH2 0x18C5 JUMP JUMPDEST SWAP1 POP SWAP2 SWAP1 POP JUMP JUMPDEST PUSH2 0x1CBC DUP2 PUSH2 0x1CA2 JUMP JUMPDEST DUP3 MSTORE POP POP JUMP JUMPDEST PUSH0 PUSH1 0x20 DUP3 ADD SWAP1 POP PUSH2 0x1CD5 PUSH0 DUP4 ADD DUP5 PUSH2 0x1CB3 JUMP JUMPDEST SWAP3 SWAP2 POP POP JUMP JUMPDEST PUSH0 PUSH1 0x20 DUP3 DUP5 SUB SLT ISZERO PUSH2 0x1CF0 JUMPI PUSH2 0x1CEF PUSH2 0x15E7 JUMP JUMPDEST JUMPDEST PUSH0 PUSH2 0x1CFD DUP5 DUP3 DUP6 ADD PUSH2 0x1967 JUMP JUMPDEST SWAP2 POP POP SWAP3 SWAP2 POP POP JUMP JUMPDEST PUSH2 0x1D0F DUP2 PUSH2 0x1948 JUMP JUMPDEST DUP3 MSTORE POP POP JUMP JUMPDEST PUSH0 PUSH1 0x20 DUP3 ADD SWAP1 POP PUSH2 0x1D28 PUSH0 DUP4 ADD DUP5 PUSH2 0x1D06 JUMP JUMPDEST SWAP3 SWAP2 POP POP JUMP JUMPDEST DUP3 DUP2 DUP4 CALLDATACOPY POP POP POP JUMP JUMPDEST PUSH2 0x1D44 PUSH2 0x100 DUP4 DUP4 PUSH2 0x1D2E JUMP JUMPDEST POP POP JUMP JUMPDEST PUSH2 0x1D54 PUSH1 0xC0 DUP4 DUP4 PUSH2 0x1D2E JUMP JUMPDEST POP POP JUMP JUMPDEST PUSH0 PUSH2 0x1C0 DUP3 ADD SWAP1 POP PUSH2 0x1D6C PUSH0 DUP4 ADD DUP6 PUSH2 0x1D37 JUMP JUMPDEST PUSH2 0x1D7A PUSH2 0x100 DUP4 ADD DUP5 PUSH2 0x1D48 JUMP JUMPDEST SWAP4 SWAP3 POP POP POP JUMP JUMPDEST PUSH32 0x4E487B7100000000000000000000000000000000000000000000000000000000 PUSH0 MSTORE PUSH1 0x32 PUSH1 0x4 MSTORE PUSH1 0x24 PUSH0 REVERT JUMPDEST PUSH32 0x57726F6E672064657374696E6174696F6E20636861696E000000000000000000 PUSH0 DUP3 ADD MSTORE POP JUMP JUMPDEST PUSH0 PUSH2 0x1DE2 PUSH1 0x17 DUP4 PUSH2 0x1BAC JUMP JUMPDEST SWAP2 POP PUSH2 0x1DED DUP3 PUSH2 0x1DAE JUMP JUMPDEST PUSH1 0x20 DUP3 ADD SWAP1 POP SWAP2 SWAP1 POP JUMP JUMPDEST PUSH0 PUSH1 0x20 DUP3 ADD SWAP1 POP DUP2 DUP2 SUB PUSH0 DUP4 ADD MSTORE PUSH2 0x1E0F DUP2 PUSH2 0x1DD6 JUMP JUMPDEST SWAP1 POP SWAP2 SWAP1 POP JUMP JUMPDEST PUSH32 0x5265706C61792061747461636B20646574656374656400000000000000000000 PUSH0 DUP3 ADD MSTORE POP JUMP JUMPDEST PUSH0 PUSH2 0x1E4A PUSH1 0x16 DUP4 PUSH2 0x1BAC JUMP JUMPDEST SWAP2 POP PUSH2 0x1E55 DUP3 PUSH2 0x1E16 JUMP JUMPDEST PUSH1 0x20 DUP3 ADD SWAP1 POP SWAP2 SWAP1 POP JUMP JUMPDEST PUSH0 PUSH1 0x20 DUP3 ADD SWAP1 POP DUP2 DUP2 SUB PUSH0 DUP4 ADD MSTORE PUSH2 0x1E77 DUP2 PUSH2 0x1E3E JUMP JUMPDEST SWAP1 POP SWAP2 SWAP1 POP JUMP JUMPDEST PUSH0 DUP2 SWAP1 POP SWAP2 SWAP1 POP JUMP JUMPDEST PUSH2 0x1E98 PUSH2 0x1E93 DUP3 PUSH2 0x178E JUMP JUMPDEST PUSH2 0x1E7E JUMP JUMPDEST DUP3 MSTORE POP POP JUMP JUMPDEST PUSH0 PUSH2 0x1EA9 DUP3 DUP5 PUSH2 0x1E87 JUMP JUMPDEST PUSH1 0x20 DUP3 ADD SWAP2 POP DUP2 SWAP1 POP SWAP3 SWAP2 POP POP JUMP JUMPDEST PUSH32 0x496E76616C6964207369676E6174757265206C656E6774680000000000000000 PUSH0 DUP3 ADD MSTORE POP JUMP JUMPDEST PUSH0 PUSH2 0x1EEC PUSH1 0x18 DUP4 PUSH2 0x1BAC JUMP JUMPDEST SWAP2 POP PUSH2 0x1EF7 DUP3 PUSH2 0x1EB8 JUMP JUMPDEST PUSH1 0x20 DUP3 ADD SWAP1 POP SWAP2 SWAP1 POP JUMP JUMPDEST PUSH0 PUSH1 0x20 DUP3 ADD SWAP1 POP DUP2 DUP2 SUB PUSH0 DUP4 ADD MSTORE PUSH2 0x1F19 DUP2 PUSH2 0x1EE0 JUMP JUMPDEST SWAP1 POP SWAP2 SWAP1 POP JUMP JUMPDEST PUSH0 PUSH1 0xFF DUP3 AND SWAP1 POP SWAP2 SWAP1 POP JUMP JUMPDEST PUSH2 0x1F35 DUP2 PUSH2 0x1F20 JUMP JUMPDEST DUP3 MSTORE POP POP JUMP JUMPDEST PUSH0 PUSH1 0x80 DUP3 ADD SWAP1 POP PUSH2 0x1F4E PUSH0 DUP4 ADD DUP8 PUSH2 0x1D06 JUMP JUMPDEST PUSH2 0x1F5B PUSH1 0x20 DUP4 ADD DUP7 PUSH2 0x1F2C JUMP JUMPDEST PUSH2 0x1F68 PUSH1 0x40 DUP4 ADD DUP6 PUSH2 0x1D06 JUMP JUMPDEST PUSH2 0x1F75 PUSH1 0x60 DUP4 ADD DUP5 PUSH2 0x1D06 JUMP JUMPDEST SWAP6 SWAP5 POP POP POP POP POP JUMP JUMPDEST PUSH0 PUSH1 0x60 DUP3 ADD SWAP1 POP DUP2 DUP2 SUB PUSH0 DUP4 ADD MSTORE PUSH2 0x1F96 DUP2 DUP7 PUSH2 0x1BBC JUMP JUMPDEST SWAP1 POP DUP2 DUP2 SUB PUSH1 0x20 DUP4 ADD MSTORE PUSH2 0x1FAA DUP2 DUP6 PUSH2 0x1BBC JUMP JUMPDEST SWAP1 POP DUP2 DUP2 SUB PUSH1 0x40 DUP4 ADD MSTORE PUSH2 0x1FBE DUP2 DUP5 PUSH2 0x1824 JUMP JUMPDEST SWAP1 POP SWAP5 SWAP4 POP POP POP POP JUMP JUMPDEST PUSH32 0x4E487B7100000000000000000000000000000000000000000000000000000000 PUSH0 MSTORE PUSH1 0x11 PUSH1 0x4 MSTORE PUSH1 0x24 PUSH0 REVERT JUMPDEST PUSH0 PUSH2 0x1FFF DUP3 PUSH2 0x1F20 JUMP JUMPDEST SWAP2 POP PUSH1 0xFF DUP3 SUB PUSH2 0x2012 JUMPI PUSH2 0x2011 PUSH2 0x1FC8 JUMP JUMPDEST JUMPDEST PUSH1 0x1 DUP3 ADD SWAP1 POP SWAP2 SWAP1 POP JUMP JUMPDEST PUSH0 PUSH2 0x2027 DUP3 PUSH2 0x1F20 JUMP JUMPDEST SWAP2 POP PUSH0 DUP3 SUB PUSH2 0x2039 JUMPI PUSH2 0x2038 PUSH2 0x1FC8 JUMP JUMPDEST JUMPDEST PUSH1 0x1 DUP3 SUB SWAP1 POP SWAP2 SWAP1 POP JUMP JUMPDEST PUSH0 PUSH2 0x204E DUP3 PUSH2 0x1F20 JUMP JUMPDEST SWAP2 POP PUSH2 0x2059 DUP4 PUSH2 0x1F20 JUMP JUMPDEST SWAP3 POP DUP3 DUP3 SUB SWAP1 POP PUSH1 0xFF DUP2 GT ISZERO PUSH2 0x2072 JUMPI PUSH2 0x2071 PUSH2 0x1FC8 JUMP JUMPDEST JUMPDEST SWAP3 SWAP2 POP POP JUMP JUMPDEST PUSH0 PUSH2 0x2082 DUP3 PUSH2 0x1F20 JUMP JUMPDEST SWAP2 POP PUSH2 0x208D DUP4 PUSH2 0x1F20 JUMP JUMPDEST SWAP3 POP DUP3 DUP3 ADD SWAP1 POP PUSH1 0xFF DUP2 GT ISZERO PUSH2 0x20A6 JUMPI PUSH2 0x20A5 PUSH2 0x1FC8 JUMP JUMPDEST JUMPDEST SWAP3 SWAP2 POP POP JUMP JUMPDEST PUSH0 PUSH2 0x20B6 DUP3 PUSH2 0x178E JUMP JUMPDEST SWAP2 POP PUSH2 0x20C1 DUP4 PUSH2 0x178E JUMP JUMPDEST SWAP3 POP DUP3 DUP3 ADD SWAP1 POP DUP1 DUP3 GT ISZERO PUSH2 0x20D9 JUMPI PUSH2 0x20D8 PUSH2 0x1FC8 JUMP JUMPDEST JUMPDEST SWAP3 SWAP2 POP POP JUMP JUMPDEST PUSH2 0x20E8 DUP2 PUSH2 0x178E JUMP JUMPDEST DUP3 MSTORE POP POP JUMP JUMPDEST PUSH0 PUSH1 0x80 DUP3 ADD SWAP1 POP PUSH2 0x2101 PUSH0 DUP4 ADD DUP8 PUSH2 0x1920 JUMP JUMPDEST DUP2 DUP2 SUB PUSH1 0x20 DUP4 ADD MSTORE PUSH2 0x2113 DUP2 DUP7 PUSH2 0x1BBC JUMP JUMPDEST SWAP1 POP PUSH2 0x2122 PUSH1 0x40 DUP4 ADD DUP6 PUSH2 0x20DF JUMP JUMPDEST PUSH2 0x212F PUSH1 0x60 DUP4 ADD DUP5 PUSH2 0x20DF JUMP JUMPDEST SWAP6 SWAP5 POP POP POP POP POP JUMP JUMPDEST PUSH0 DUP2 SWAP1 POP SWAP3 SWAP2 POP POP JUMP JUMPDEST PUSH32 0x19457468657265756D205369676E6564204D6573736167653A0A333200000000 PUSH0 DUP3 ADD MSTORE POP JUMP JUMPDEST PUSH0 PUSH2 0x2176 PUSH1 0x1C DUP4 PUSH2 0x2138 JUMP JUMPDEST SWAP2 POP PUSH2 0x2181 DUP3 PUSH2 0x2142 JUMP JUMPDEST PUSH1 0x1C DUP3 ADD SWAP1 POP SWAP2 SWAP1 POP JUMP JUMPDEST PUSH0 DUP2 SWAP1 POP SWAP2 SWAP1 POP JUMP JUMPDEST PUSH2 0x21A6 PUSH2 0x21A1 DUP3 PUSH2 0x1948 JUMP JUMPDEST PUSH2 0x218C JUMP JUMPDEST DUP3 MSTORE POP POP JUMP JUMPDEST PUSH0 PUSH2 0x21B6 DUP3 PUSH2 0x216A JUMP JUMPDEST SWAP2 POP PUSH2 0x21C2 DUP3 DUP5 PUSH2 0x2195 JUMP JUMPDEST PUSH1 0x20 DUP3 ADD SWAP2 POP DUP2 SWAP1 POP SWAP3 SWAP2 POP POP JUMP JUMPDEST PUSH0 PUSH2 0x21DC DUP3 DUP9 PUSH2 0x1E87 JUMP JUMPDEST PUSH1 0x20 DUP3 ADD SWAP2 POP PUSH2 0x21EC DUP3 DUP8 PUSH2 0x1E87 JUMP JUMPDEST PUSH1 0x20 DUP3 ADD SWAP2 POP PUSH2 0x21FC DUP3 DUP7 PUSH2 0x1E87 JUMP JUMPDEST PUSH1 0x20 DUP3 ADD SWAP2 POP PUSH2 0x220C DUP3 DUP6 PUSH2 0x1E87 JUMP JUMPDEST PUSH1 0x20 DUP3 ADD SWAP2 POP PUSH2 0x221C DUP3 DUP5 PUSH2 0x1E87 JUMP JUMPDEST PUSH1 0x20 DUP3 ADD SWAP2 POP DUP2 SWAP1 POP SWAP7 SWAP6 POP POP POP POP POP POP JUMP JUMPDEST PUSH0 PUSH8 0xFFFFFFFFFFFFFFFF DUP3 GT ISZERO PUSH2 0x2249 JUMPI PUSH2 0x2248 PUSH2 0x197F JUMP JUMPDEST JUMPDEST PUSH1 0x20 DUP3 MUL SWAP1 POP PUSH1 0x20 DUP2 ADD SWAP1 POP SWAP2 SWAP1 POP JUMP JUMPDEST PUSH0 DUP2 MLOAD SWAP1 POP PUSH2 0x2268 DUP2 PUSH2 0x1C4D JUMP JUMPDEST SWAP3 SWAP2 POP POP JUMP JUMPDEST PUSH0 PUSH2 0x2280 PUSH2 0x227B DUP5 PUSH2 0x222F JUMP JUMPDEST PUSH2 0x19DD JUMP JUMPDEST SWAP1 POP DUP1 DUP4 DUP3 MSTORE PUSH1 0x20 DUP3 ADD SWAP1 POP PUSH1 0x20 DUP5 MUL DUP4 ADD DUP6 DUP2 GT ISZERO PUSH2 0x22A3 JUMPI PUSH2 0x22A2 PUSH2 0x15EF JUMP JUMPDEST JUMPDEST DUP4 JUMPDEST DUP2 DUP2 LT ISZERO PUSH2 0x22CC JUMPI DUP1 PUSH2 0x22B8 DUP9 DUP3 PUSH2 0x225A JUMP JUMPDEST DUP5 MSTORE PUSH1 0x20 DUP5 ADD SWAP4 POP POP PUSH1 0x20 DUP2 ADD SWAP1 POP PUSH2 0x22A5 JUMP JUMPDEST POP POP POP SWAP4 SWAP3 POP POP POP JUMP JUMPDEST PUSH0 DUP3 PUSH1 0x1F DUP4 ADD SLT PUSH2 0x22EA JUMPI PUSH2 0x22E9 PUSH2 0x1635 JUMP JUMPDEST JUMPDEST DUP2 MLOAD PUSH2 0x22FA DUP5 DUP3 PUSH1 0x20 DUP7 ADD PUSH2 0x226E JUMP JUMPDEST SWAP2 POP POP SWAP3 SWAP2 POP POP JUMP JUMPDEST PUSH0 PUSH1 0x20 DUP3 DUP5 SUB SLT ISZERO PUSH2 0x2318 JUMPI PUSH2 0x2317 PUSH2 0x15E7 JUMP JUMPDEST JUMPDEST PUSH0 DUP3 ADD MLOAD PUSH8 0xFFFFFFFFFFFFFFFF DUP2 GT ISZERO PUSH2 0x2335 JUMPI PUSH2 0x2334 PUSH2 0x15EB JUMP JUMPDEST JUMPDEST PUSH2 0x2341 DUP5 DUP3 DUP6 ADD PUSH2 0x22D6 JUMP JUMPDEST SWAP2 POP POP SWAP3 SWAP2 POP POP JUMP JUMPDEST PUSH0 PUSH2 0x2354 DUP3 PUSH2 0x178E JUMP JUMPDEST SWAP2 POP PUSH2 0x235F DUP4 PUSH2 0x178E JUMP JUMPDEST SWAP3 POP DUP3 DUP3 MUL PUSH2 0x236D DUP2 PUSH2 0x178E JUMP JUMPDEST SWAP2 POP DUP3 DUP3 DIV DUP5 EQ DUP4 ISZERO OR PUSH2 0x2384 JUMPI PUSH2 0x2383 PUSH2 0x1FC8 JUMP JUMPDEST JUMPDEST POP SWAP3 SWAP2 POP POP JUMP JUMPDEST PUSH0 PUSH0 REVERT JUMPDEST PUSH0 PUSH0 REVERT JUMPDEST PUSH0 PUSH0 DUP6 DUP6 GT ISZERO PUSH2 0x23A6 JUMPI PUSH2 0x23A5 PUSH2 0x238B JUMP JUMPDEST JUMPDEST DUP4 DUP7 GT ISZERO PUSH2 0x23B7 JUMPI PUSH2 0x23B6 PUSH2 0x238F JUMP JUMPDEST JUMPDEST PUSH1 0x1 DUP6 MUL DUP4 ADD SWAP2 POP DUP5 DUP7 SUB SWAP1 POP SWAP5 POP SWAP5 SWAP3 POP POP POP JUMP JUMPDEST PUSH32 0x496E76616C6964207369676E6174757265000000000000000000000000000000 PUSH0 DUP3 ADD MSTORE POP JUMP JUMPDEST PUSH0 PUSH2 0x2401 PUSH1 0x11 DUP4 PUSH2 0x1BAC JUMP JUMPDEST SWAP2 POP PUSH2 0x240C DUP3 PUSH2 0x23CD JUMP JUMPDEST PUSH1 0x20 DUP3 ADD SWAP1 POP SWAP2 SWAP1 POP JUMP JUMPDEST PUSH0 PUSH1 0x20 DUP3 ADD SWAP1 POP DUP2 DUP2 SUB PUSH0 DUP4 ADD MSTORE PUSH2 0x242E DUP2 PUSH2 0x23F5 JUMP JUMPDEST SWAP1 POP SWAP2 SWAP1 POP JUMP JUMPDEST PUSH32 0x5369676E6572206E6F7420616E206163746976652076616C696461746F720000 PUSH0 DUP3 ADD MSTORE POP JUMP JUMPDEST PUSH0 PUSH2 0x2469 PUSH1 0x1E DUP4 PUSH2 0x1BAC JUMP JUMPDEST SWAP2 POP PUSH2 0x2474 DUP3 PUSH2 0x2435 JUMP JUMPDEST PUSH1 0x20 DUP3 ADD SWAP1 POP SWAP2 SWAP1 POP JUMP JUMPDEST PUSH0 PUSH1 0x20 DUP3 ADD SWAP1 POP DUP2 DUP2 SUB PUSH0 DUP4 ADD MSTORE PUSH2 0x2496 DUP2 PUSH2 0x245D JUMP JUMPDEST SWAP1 POP SWAP2 SWAP1 POP JUMP JUMPDEST PUSH0 PUSH2 0x24A8 DUP3 DUP10 PUSH2 0x1E87 JUMP JUMPDEST PUSH1 0x20 DUP3 ADD SWAP2 POP PUSH2 0x24B8 DUP3 DUP9 PUSH2 0x1E87 JUMP JUMPDEST PUSH1 0x20 DUP3 ADD SWAP2 POP PUSH2 0x24C8 DUP3 DUP8 PUSH2 0x1E87 JUMP JUMPDEST PUSH1 0x20 DUP3 ADD SWAP2 POP PUSH2 0x24D8 DUP3 DUP7 PUSH2 0x1E87 JUMP JUMPDEST PUSH1 0x20 DUP3 ADD SWAP2 POP PUSH2 0x24E8 DUP3 DUP6 PUSH2 0x1E87 JUMP JUMPDEST PUSH1 0x20 DUP3 ADD SWAP2 POP PUSH2 0x24F8 DUP3 DUP5 PUSH2 0x1E87 JUMP JUMPDEST PUSH1 0x20 DUP3 ADD SWAP2 POP DUP2 SWAP1 POP SWAP8 SWAP7 POP POP POP POP POP POP POP JUMP JUMPDEST PUSH0 PUSH2 0x2516 DUP3 PUSH2 0x1BA2 JUMP JUMPDEST PUSH2 0x2520 DUP2 DUP6 PUSH2 0x2138 JUMP JUMPDEST SWAP4 POP PUSH2 0x2530 DUP2 DUP6 PUSH1 0x20 DUP7 ADD PUSH2 0x1806 JUMP JUMPDEST DUP1 DUP5 ADD SWAP2 POP POP SWAP3 SWAP2 POP POP JUMP JUMPDEST PUSH32 0x5F7661756C740000000000000000000000000000000000000000000000000000 PUSH0 DUP3 ADD MSTORE POP JUMP JUMPDEST PUSH0 PUSH2 0x2570 PUSH1 0x6 DUP4 PUSH2 0x2138 JUMP JUMPDEST SWAP2 POP PUSH2 0x257B DUP3 PUSH2 0x253C JUMP JUMPDEST PUSH1 0x6 DUP3 ADD SWAP1 POP SWAP2 SWAP1 POP JUMP JUMPDEST PUSH0 PUSH2 0x2591 DUP3 DUP5 PUSH2 0x250C JUMP JUMPDEST SWAP2 POP PUSH2 0x259C DUP3 PUSH2 0x2564 JUMP JUMPDEST SWAP2 POP DUP2 SWAP1 POP SWAP3 SWAP2 POP POP JUMP JUMPDEST PUSH32 0x5169617261426173654173736574730000000000000000000000000000000000 PUSH0 DUP3 ADD MSTORE POP JUMP JUMPDEST PUSH0 PUSH2 0x25DB PUSH1 0xF DUP4 PUSH2 0x1BAC JUMP JUMPDEST SWAP2 POP PUSH2 0x25E6 DUP3 PUSH2 0x25A7 JUMP JUMPDEST PUSH1 0x20 DUP3 ADD SWAP1 POP SWAP2 SWAP1 POP JUMP JUMPDEST PUSH0 PUSH1 0x40 DUP3 ADD SWAP1 POP DUP2 DUP2 SUB PUSH0 DUP4 ADD MSTORE PUSH2 0x2608 DUP2 PUSH2 0x25CF JUMP JUMPDEST SWAP1 POP DUP2 DUP2 SUB PUSH1 0x20 DUP4 ADD MSTORE PUSH2 0x261C DUP2 DUP5 PUSH2 0x1BBC JUMP JUMPDEST SWAP1 POP SWAP3 SWAP2 POP POP JUMP JUMPDEST PUSH0 PUSH2 0x2636 PUSH2 0x2631 DUP5 PUSH2 0x19F7 JUMP JUMPDEST PUSH2 0x19DD JUMP JUMPDEST SWAP1 POP DUP3 DUP2 MSTORE PUSH1 0x20 DUP2 ADD DUP5 DUP5 DUP5 ADD GT ISZERO PUSH2 0x2652 JUMPI PUSH2 0x2651 PUSH2 0x197B JUMP JUMPDEST JUMPDEST PUSH2 0x265D DUP5 DUP3 DUP6 PUSH2 0x1806 JUMP JUMPDEST POP SWAP4 SWAP3 POP POP POP JUMP JUMPDEST PUSH0 DUP3 PUSH1 0x1F DUP4 ADD SLT PUSH2 0x2679 JUMPI PUSH2 0x2678 PUSH2 0x1635 JUMP JUMPDEST JUMPDEST DUP2 MLOAD PUSH2 0x2689 DUP5 DUP3 PUSH1 0x20 DUP7 ADD PUSH2 0x2624 JUMP JUMPDEST SWAP2 POP POP SWAP3 SWAP2 POP POP JUMP JUMPDEST PUSH0 PUSH1 0x20 DUP3 DUP5 SUB SLT ISZERO PUSH2 0x26A7 JUMPI PUSH2 0x26A6 PUSH2 0x15E7 JUMP JUMPDEST JUMPDEST PUSH0 DUP3 ADD MLOAD PUSH8 0xFFFFFFFFFFFFFFFF DUP2 GT ISZERO PUSH2 0x26C4 JUMPI PUSH2 0x26C3 PUSH2 0x15EB JUMP JUMPDEST JUMPDEST PUSH2 0x26D0 DUP5 DUP3 DUP6 ADD PUSH2 0x2665 JUMP JUMPDEST SWAP2 POP POP SWAP3 SWAP2 POP POP JUMP JUMPDEST PUSH32 0x5661756C74206E6F7420617574686F72697A6564000000000000000000000000 PUSH0 DUP3 ADD MSTORE POP JUMP JUMPDEST PUSH0 PUSH2 0x270D PUSH1 0x14 DUP4 PUSH2 0x1BAC JUMP JUMPDEST SWAP2 POP PUSH2 0x2718 DUP3 PUSH2 0x26D9 JUMP JUMPDEST PUSH1 0x20 DUP3 ADD SWAP1 POP SWAP2 SWAP1 POP JUMP JUMPDEST PUSH0 PUSH1 0x20 DUP3 ADD SWAP1 POP DUP2 DUP2 SUB PUSH0 DUP4 ADD MSTORE PUSH2 0x273A DUP2 PUSH2 0x2701 JUMP JUMPDEST SWAP1 POP SWAP2 SWAP1 POP JUMP JUMPDEST PUSH0 DUP2 SWAP1 POP PUSH1 0x20 DUP3 ADD SWAP1 POP SWAP2 SWAP1 POP JUMP JUMPDEST PUSH0 PUSH32 0xFFFFFFFFFFFFFFFFFFFFFFFFFFFFFFFFFFFFFFFF000000000000000000000000 DUP3 AND SWAP1 POP SWAP2 SWAP1 POP JUMP JUMPDEST PUSH0 PUSH2 0x2786 DUP3 MLOAD PUSH2 0x2750 JUMP JUMPDEST DUP1 SWAP2 POP POP SWAP2 SWAP1 POP JUMP JUMPDEST PUSH0 DUP3 DUP3 SHL SWAP1 POP SWAP3 SWAP2 POP POP JUMP JUMPDEST PUSH0 PUSH2 0x27A5 DUP3 PUSH2 0x17EC JUMP JUMPDEST DUP3 PUSH2 0x27AF DUP5 PUSH2 0x2741 JUMP JUMPDEST SWAP1 POP PUSH2 0x27BA DUP2 PUSH2 0x277B JUMP JUMPDEST SWAP3 POP PUSH1 0x14 DUP3 LT ISZERO PUSH2 0x27FA JUMPI PUSH2 0x27F5 PUSH32 0xFFFFFFFFFFFFFFFFFFFFFFFFFFFFFFFFFFFFFFFF000000000000000000000000 DUP4 PUSH1 0x14 SUB PUSH1 0x8 MUL PUSH2 0x278F JUMP JUMPDEST DUP4 AND SWAP3 POP JUMPDEST POP POP SWAP2 SWAP1 POP JUMP INVALID LOG2 PUSH5 0x6970667358 0x22 SLT KECCAK256 0x4C PUSH21 0x2AD1FB41C62E69B92166DA45211D05FE80A8F4EA39 PUSH15 0x77EBB6D42C9F1E9564736F6C634300 ADDMOD 0x1F STOP CALLER "
		},
		"gasEstimates": {
			"creation": {
				"codeDepositCost": "2059000",
				"executionCost": "infinite",
				"totalCost": "infinite"
			},
			"external": {
				"balance_verifier()": "infinite",
				"fieldToAddress(uint256)": "664",
				"fieldToBytes(uint256)": "infinite",
				"fieldToString(uint256)": "infinite",
				"getEthSignedMessageHash(bytes32)": "infinite",
				"owner()": "2559",
				"processZkValidator(uint256[8],uint256[6],address[],bytes)": "infinite",
				"processZkVariable(uint256[8],uint256[6],address[],bytes)": "infinite",
				"processZkWithdraw(uint256[8],uint256[6],address[],bytes)": "infinite",
				"recoverSigner(bytes32,bytes)": "infinite",
				"renounceOwnership()": "infinite",
				"transferOwnership(address)": "infinite",
				"usedNullifiers(uint256)": "2808",
				"validator_verifier()": "infinite",
				"validatorsRegistry()": "infinite",
				"variable_verifier()": "infinite",
				"variablesRegistry()": "infinite"
			},
			"internal": {
				"_calculateNullifier6(uint256[6] calldata)": "infinite",
				"_calculateNullifier8(uint256[6] calldata)": "infinite",
				"_prepareWithdrawal(uint256[6] calldata)": "infinite",
				"_verifyAllSignatures(bytes32,address[] calldata,bytes calldata)": "infinite"
			}
		},
		"methodIdentifiers": {
			"balance_verifier()": "f90c0f40",
			"fieldToAddress(uint256)": "7a988c54",
			"fieldToBytes(uint256)": "19b8c941",
			"fieldToString(uint256)": "b648f220",
			"getEthSignedMessageHash(bytes32)": "fa540801",
			"owner()": "8da5cb5b",
			"processZkValidator(uint256[8],uint256[6],address[],bytes)": "00dc2234",
			"processZkVariable(uint256[8],uint256[6],address[],bytes)": "aab7f953",
			"processZkWithdraw(uint256[8],uint256[6],address[],bytes)": "bd846ee7",
			"recoverSigner(bytes32,bytes)": "97aba7f9",
			"renounceOwnership()": "715018a6",
			"transferOwnership(address)": "f2fde38b",
			"usedNullifiers(uint256)": "aad24061",
			"validator_verifier()": "b3d63003",
			"validatorsRegistry()": "aed881d8",
			"variable_verifier()": "4eb30d41",
			"variablesRegistry()": "bf4d766e"
		}
	},
	"abi": [
		{
			"inputs": [
				{
					"internalType": "address",
					"name": "_balance_verifier",
					"type": "address"
				},
				{
					"internalType": "address",
					"name": "_variable_verifier",
					"type": "address"
				},
				{
					"internalType": "address",
					"name": "_validator_verifier",
					"type": "address"
				},
				{
					"internalType": "address",
					"name": "_variablesRegistry",
					"type": "address"
				},
				{
					"internalType": "address",
					"name": "_validatorsRegistry",
					"type": "address"
				}
			],
			"stateMutability": "nonpayable",
			"type": "constructor"
		},
		{
			"inputs": [
				{
					"internalType": "address",
					"name": "owner",
					"type": "address"
				}
			],
			"name": "OwnableInvalidOwner",
			"type": "error"
		},
		{
			"inputs": [
				{
					"internalType": "address",
					"name": "account",
					"type": "address"
				}
			],
			"name": "OwnableUnauthorizedAccount",
			"type": "error"
		},
		{
			"anonymous": false,
			"inputs": [
				{
					"indexed": true,
					"internalType": "address",
					"name": "previousOwner",
					"type": "address"
				},
				{
					"indexed": true,
					"internalType": "address",
					"name": "newOwner",
					"type": "address"
				}
			],
			"name": "OwnershipTransferred",
			"type": "event"
		},
		{
			"inputs": [],
			"name": "balance_verifier",
			"outputs": [
				{
					"internalType": "contract IBalanceVerifier",
					"name": "",
					"type": "address"
				}
			],
			"stateMutability": "view",
			"type": "function"
		},
		{
			"inputs": [
				{
					"internalType": "uint256",
					"name": "_field",
					"type": "uint256"
				}
			],
			"name": "fieldToAddress",
			"outputs": [
				{
					"internalType": "address",
					"name": "",
					"type": "address"
				}
			],
			"stateMutability": "pure",
			"type": "function"
		},
		{
			"inputs": [
				{
					"internalType": "uint256",
					"name": "_field",
					"type": "uint256"
				}
			],
			"name": "fieldToBytes",
			"outputs": [
				{
					"internalType": "bytes",
					"name": "",
					"type": "bytes"
				}
			],
			"stateMutability": "pure",
			"type": "function"
		},
		{
			"inputs": [
				{
					"internalType": "uint256",
					"name": "_field",
					"type": "uint256"
				}
			],
			"name": "fieldToString",
			"outputs": [
				{
					"internalType": "string",
					"name": "",
					"type": "string"
				}
			],
			"stateMutability": "pure",
			"type": "function"
		},
		{
			"inputs": [
				{
					"internalType": "bytes32",
					"name": "_messageHash",
					"type": "bytes32"
				}
			],
			"name": "getEthSignedMessageHash",
			"outputs": [
				{
					"internalType": "bytes32",
					"name": "",
					"type": "bytes32"
				}
			],
			"stateMutability": "pure",
			"type": "function"
		},
		{
			"inputs": [],
			"name": "owner",
			"outputs": [
				{
					"internalType": "address",
					"name": "",
					"type": "address"
				}
			],
			"stateMutability": "view",
			"type": "function"
		},
		{
			"inputs": [
				{
					"internalType": "uint256[8]",
					"name": "proof",
					"type": "uint256[8]"
				},
				{
					"internalType": "uint256[6]",
					"name": "input",
					"type": "uint256[6]"
				},
				{
					"internalType": "address[]",
					"name": "validators",
					"type": "address[]"
				},
				{
					"internalType": "bytes",
					"name": "_signatures",
					"type": "bytes"
				}
			],
			"name": "processZkValidator",
			"outputs": [],
			"stateMutability": "nonpayable",
			"type": "function"
		},
		{
			"inputs": [
				{
					"internalType": "uint256[8]",
					"name": "proof",
					"type": "uint256[8]"
				},
				{
					"internalType": "uint256[6]",
					"name": "input",
					"type": "uint256[6]"
				},
				{
					"internalType": "address[]",
					"name": "validators",
					"type": "address[]"
				},
				{
					"internalType": "bytes",
					"name": "_signatures",
					"type": "bytes"
				}
			],
			"name": "processZkVariable",
			"outputs": [],
			"stateMutability": "nonpayable",
			"type": "function"
		},
		{
			"inputs": [
				{
					"internalType": "uint256[8]",
					"name": "proof",
					"type": "uint256[8]"
				},
				{
					"internalType": "uint256[6]",
					"name": "input",
					"type": "uint256[6]"
				},
				{
					"internalType": "address[]",
					"name": "validators",
					"type": "address[]"
				},
				{
					"internalType": "bytes",
					"name": "_signatures",
					"type": "bytes"
				}
			],
			"name": "processZkWithdraw",
			"outputs": [],
			"stateMutability": "nonpayable",
			"type": "function"
		},
		{
			"inputs": [
				{
					"internalType": "bytes32",
					"name": "_ethSignedMessageHash",
					"type": "bytes32"
				},
				{
					"internalType": "bytes",
					"name": "_signature",
					"type": "bytes"
				}
			],
			"name": "recoverSigner",
			"outputs": [
				{
					"internalType": "address",
					"name": "",
					"type": "address"
				}
			],
			"stateMutability": "pure",
			"type": "function"
		},
		{
			"inputs": [],
			"name": "renounceOwnership",
			"outputs": [],
			"stateMutability": "nonpayable",
			"type": "function"
		},
		{
			"inputs": [
				{
					"internalType": "address",
					"name": "newOwner",
					"type": "address"
				}
			],
			"name": "transferOwnership",
			"outputs": [],
			"stateMutability": "nonpayable",
			"type": "function"
		},
		{
			"inputs": [
				{
					"internalType": "uint256",
					"name": "",
					"type": "uint256"
				}
			],
			"name": "usedNullifiers",
			"outputs": [
				{
					"internalType": "bool",
					"name": "",
					"type": "bool"
				}
			],
			"stateMutability": "view",
			"type": "function"
		},
		{
			"inputs": [],
			"name": "validator_verifier",
			"outputs": [
				{
					"internalType": "contract IValidatorVerifier",
					"name": "",
					"type": "address"
				}
			],
			"stateMutability": "view",
			"type": "function"
		},
		{
			"inputs": [],
			"name": "validatorsRegistry",
			"outputs": [
				{
					"internalType": "contract IValidators",
					"name": "",
					"type": "address"
				}
			],
			"stateMutability": "view",
			"type": "function"
		},
		{
			"inputs": [],
			"name": "variable_verifier",
			"outputs": [
				{
					"internalType": "contract IVariableVerifier",
					"name": "",
					"type": "address"
				}
			],
			"stateMutability": "view",
			"type": "function"
		},
		{
			"inputs": [],
			"name": "variablesRegistry",
			"outputs": [
				{
					"internalType": "contract IVariables",
					"name": "",
					"type": "address"
				}
			],
			"stateMutability": "view",
			"type": "function"
		}
	]
}