{
	"data": {
		"bytecode": {
			"linkReferences": {},
			"object": "610120604052348015610010575f5ffd5b50604051612bd2380380612bd2833981810160405281019061003291906102e1565b335f73ffffffffffffffffffffffffffffffffffffffff168173ffffffffffffffffffffffffffffffffffffffff16036100a3575f6040517f1e4fbdf700000000000000000000000000000000000000000000000000000000815260040161009a9190610367565b60405180910390fd5b6100b2816101c260201b60201c565b508473ffffffffffffffffffffffffffffffffffffffff1660808173ffffffffffffffffffffffffffffffffffffffff16815250508373ffffffffffffffffffffffffffffffffffffffff1660a08173ffffffffffffffffffffffffffffffffffffffff16815250508273ffffffffffffffffffffffffffffffffffffffff1660c08173ffffffffffffffffffffffffffffffffffffffff16815250508173ffffffffffffffffffffffffffffffffffffffff1660e08173ffffffffffffffffffffffffffffffffffffffff16815250508073ffffffffffffffffffffffffffffffffffffffff166101008173ffffffffffffffffffffffffffffffffffffffff16815250505050505050610380565b5f5f5f9054906101000a900473ffffffffffffffffffffffffffffffffffffffff169050815f5f6101000a81548173ffffffffffffffffffffffffffffffffffffffff021916908373ffffffffffffffffffffffffffffffffffffffff1602179055508173ffffffffffffffffffffffffffffffffffffffff168173ffffffffffffffffffffffffffffffffffffffff167f8be0079c531659141344cd1fd0a4f28419497f9722a3daafe3b4186f6b6457e060405160405180910390a35050565b5f5ffd5b5f73ffffffffffffffffffffffffffffffffffffffff82169050919050565b5f6102b082610287565b9050919050565b6102c0816102a6565b81146102ca575f5ffd5b50565b5f815190506102db816102b7565b92915050565b5f5f5f5f5f60a086880312156102fa576102f9610283565b5b5f610307888289016102cd565b9550506020610318888289016102cd565b9450506040610329888289016102cd565b935050606061033a888289016102cd565b925050608061034b888289016102cd565b9150509295509295909350565b610361816102a6565b82525050565b5f60208201905061037a5f830184610358565b92915050565b60805160a05160c05160e051610100516127e46103ee5f395f8181610506015281816109830152610f8101525f81816108cf01528181610dc401526114dd01525f818161035c01526109a701525f81816105c001526106dd01525f8181610bcd0152610e6c01526127e45ff3fe608060405234801561000f575f5ffd5b5060043610610108575f3560e01c8063aad24061116100a0578063bd846ee71161006f578063bd846ee7146102b6578063bf4d766e146102d2578063f2fde38b146102f0578063f90c0f401461030c578063fa5408011461032a57610108565b8063aad240611461021a578063aed881d81461024a578063b3d6300314610268578063b648f2201461028657610108565b80637a988c54116100dc5780637a988c54146101805780638da5cb5b146101b057806397aba7f9146101ce578063aab7f953146101fe57610108565b8062dc22341461010c57806319b8c941146101285780634eb30d4114610158578063715018a614610176575b5f5ffd5b610126600480360381019061012191906116ee565b61035a565b005b610142600480360381019061013d91906117c8565b610595565b60405161014f9190611863565b60405180910390f35b6101606105be565b60405161016d91906118fd565b60405180910390f35b61017e6105e2565b005b61019a600480360381019061019591906117c8565b6105f5565b6040516101a79190611936565b60405180910390f35b6101b86105fe565b6040516101c59190611936565b60405180910390f35b6101e860048036038101906101e39190611aaa565b610625565b6040516101f59190611936565b60405180910390f35b610218600480360381019061021391906116ee565b6106db565b005b610234600480360381019061022f91906117c8565b610964565b6040516102419190611b1e565b60405180910390f35b610252610981565b60405161025f9190611b57565b60405180910390f35b6102706109a5565b60405161027d9190611b90565b60405180910390f35b6102a0600480360381019061029b91906117c8565b6109c9565b6040516102ad9190611bfb565b60405180910390f35b6102d060048036038101906102cb91906116ee565b610bcb565b005b6102da610dc2565b6040516102e79190611c3b565b60405180910390f35b61030a60048036038101906103059190611c7e565b610de6565b005b610314610e6a565b6040516103219190611cc9565b60405180910390f35b610344600480360381019061033f9190611ce2565b610e8e565b6040516103519190611d1c565b60405180910390f35b7f000000000000000000000000000000000000000000000000000000000000000073ffffffffffffffffffffffffffffffffffffffff16639cb2865887876040518363ffffffff1660e01b81526004016103b5929190611d5f565b5f6040518083038186803b1580156103cb575f5ffd5b505afa1580156103dd573d5f5f3e3d5ffd5b505050505f856004600681106103f6576103f5611d88565b5b6020020135905046811461043f576040517f08c379a000000000000000000000000000000000000000000000000000000000815260040161043690611dff565b60405180910390fd5b5f61044987610ebd565b905061045a815f1b87878787610f72565b60015f8281526020019081526020015f205f9054906101000a900460ff16156104b8576040517f08c379a00000000000000000000000000000000000000000000000000000000081526004016104af90611e67565b60405180910390fd5b6001805f8381526020019081526020015f205f6101000a81548160ff0219169083151502179055505f610502886005600681106104f8576104f7611d88565b5b60200201356105f5565b90507f000000000000000000000000000000000000000000000000000000000000000073ffffffffffffffffffffffffffffffffffffffff16631722e147826040518263ffffffff1660e01b815260040161055d9190611936565b5f604051808303815f87803b158015610574575f5ffd5b505af1158015610586573d5f5f3e3d5ffd5b50505050505050505050505050565b6060816040516020016105a89190611ea5565b6040516020818303038152906040529050919050565b7f000000000000000000000000000000000000000000000000000000000000000081565b6105ea6111ec565b6105f35f611273565b565b5f819050919050565b5f5f5f9054906101000a900473ffffffffffffffffffffffffffffffffffffffff16905090565b5f604182511461066a576040517f08c379a000000000000000000000000000000000000000000000000000000000815260040161066190611f09565b60405180910390fd5b5f5f5f602085015192506040850151915060608501515f1a90506001868285856040515f81526020016040526040516106a69493929190611f42565b6020604051602081039080840390855afa1580156106c6573d5f5f3e3d5ffd5b50505060206040510351935050505092915050565b7f000000000000000000000000000000000000000000000000000000000000000073ffffffffffffffffffffffffffffffffffffffff16639cb2865887876040518363ffffffff1660e01b8152600401610736929190611d5f565b5f6040518083038186803b15801561074c575f5ffd5b505afa15801561075e573d5f5f3e3d5ffd5b505050505f8560056006811061077757610776611d88565b5b602002013590504681146107c0576040517f08c379a00000000000000000000000000000000000000000000000000000000081526004016107b790611dff565b60405180910390fd5b5f6107e2876003600681106107d8576107d7611d88565b5b60200201356109c9565b90505f610806886002600681106107fc576107fb611d88565b5b60200201356109c9565b90505f61082a896004600681106108205761081f611d88565b5b6020020135610595565b90505f6108368a611334565b9050610847815f1b8a8a8a8a610f72565b60015f8281526020019081526020015f205f9054906101000a900460ff16156108a5576040517f08c379a000000000000000000000000000000000000000000000000000000000815260040161089c90611e67565b60405180910390fd5b6001805f8381526020019081526020015f205f6101000a81548160ff0219169083151502179055507f000000000000000000000000000000000000000000000000000000000000000073ffffffffffffffffffffffffffffffffffffffff16632e057b9b8486856040518463ffffffff1660e01b815260040161092a93929190611f85565b5f604051808303815f87803b158015610941575f5ffd5b505af1158015610953573d5f5f3e3d5ffd5b505050505050505050505050505050565b6001602052805f5260405f205f915054906101000a900460ff1681565b7f000000000000000000000000000000000000000000000000000000000000000081565b7f000000000000000000000000000000000000000000000000000000000000000081565b60605f82036109e85760405180602001604052805f8152509050610bc6565b5f825f1b90505f5f90505b60208160ff16108015610a4357505f60f81b828260ff1660208110610a1b57610a1a611d88565b5b1a60f81b7effffffffffffffffffffffffffffffffffffffffffffffffffffffffffffff1916145b15610a5b578080610a5390611ffc565b9150506109f3565b5f601f90505b8160ff168160ff16118015610ab357505f60f81b838260ff1660208110610a8b57610a8a611d88565b5b1a60f81b7effffffffffffffffffffffffffffffffffffffffffffffffffffffffffffff1916145b15610acb578080610ac390612024565b915050610a61565b5f60018383610ada919061204b565b610ae4919061207f565b90505f8160ff1667ffffffffffffffff811115610b0457610b03611986565b5b6040519080825280601f01601f191660200182016040528015610b365781602001600182028036833780820191505090505b5090505f5f90505b8260ff16811015610bbc5785818660ff16610b5991906120b3565b60208110610b6a57610b69611d88565b5b1a60f81b828281518110610b8157610b80611d88565b5b60200101907effffffffffffffffffffffffffffffffffffffffffffffffffffffffffffff191690815f1a9053508080600101915050610b3e565b5080955050505050505b919050565b7f000000000000000000000000000000000000000000000000000000000000000073ffffffffffffffffffffffffffffffffffffffff16639cb2865887876040518363ffffffff1660e01b8152600401610c26929190611d5f565b5f6040518083038186803b158015610c3c575f5ffd5b505afa158015610c4e573d5f5f3e3d5ffd5b505050505f5f5f610c5e88611403565b9250925092505f88600260068110610c7957610c78611d88565b5b602002013590505f89600360068110610c9557610c94611d88565b5b602002013590505f610ca68b611334565b9050610cb7815f1b8b8b8b8b610f72565b60015f8281526020019081526020015f205f9054906101000a900460ff1615610d15576040517f08c379a0000000000000000000000000000000000000000000000000000000008152600401610d0c90611e67565b60405180910390fd5b6001805f8381526020019081526020015f205f6101000a81548160ff0219169083151502179055505f83608084901b1790508573ffffffffffffffffffffffffffffffffffffffff16636afbf5d682878a866040518563ffffffff1660e01b8152600401610d8694939291906120f5565b5f604051808303815f87803b158015610d9d575f5ffd5b505af1158015610daf573d5f5f3e3d5ffd5b5050505050505050505050505050505050565b7f000000000000000000000000000000000000000000000000000000000000000081565b610dee6111ec565b5f73ffffffffffffffffffffffffffffffffffffffff168173ffffffffffffffffffffffffffffffffffffffff1603610e5e575f6040517f1e4fbdf7000000000000000000000000000000000000000000000000000000008152600401610e559190611936565b60405180910390fd5b610e6781611273565b50565b7f000000000000000000000000000000000000000000000000000000000000000081565b5f81604051602001610ea091906121b3565b604051602081830303815290604052805190602001209050919050565b5f5f825f60068110610ed257610ed1611d88565b5b602002013583600160068110610eeb57610eea611d88565b5b602002013584600260068110610f0457610f03611d88565b5b602002013585600360068110610f1d57610f1c611d88565b5b602002013586600460068110610f3657610f35611d88565b5b6020020135604051602001610f4f9594939291906121d8565b604051602081830303815290604052805190602001209050805f1c915050919050565b5f610f7c86610e8e565b90505f7f000000000000000000000000000000000000000000000000000000000000000073ffffffffffffffffffffffffffffffffffffffff16631442e4c96040518163ffffffff1660e01b81526004015f60405180830381865afa158015610fe7573d5f5f3e3d5ffd5b505050506040513d5f823e3d601f19601f8201168201806040525081019061100f919061230a565b90505f5f90505b868690508110156111e257365f86866041856110329190612351565b90604160018761104291906120b3565b61104c9190612351565b926110599392919061239a565b915091505f6110ab8684848080601f0160208091040260200160405190810160405280939291908181526020018383808284375f81840152601f19601f82011690508083019250505050505050610625565b90505f73ffffffffffffffffffffffffffffffffffffffff168173ffffffffffffffffffffffffffffffffffffffff160361111b576040517f08c379a00000000000000000000000000000000000000000000000000000000081526004016111129061241e565b60405180910390fd5b5f5f90505f5f90505b8651811015611190578273ffffffffffffffffffffffffffffffffffffffff1687828151811061115757611156611d88565b5b602002602001015173ffffffffffffffffffffffffffffffffffffffff16036111835760019150611190565b8080600101915050611124565b50806111d1576040517f08c379a00000000000000000000000000000000000000000000000000000000081526004016111c890612486565b60405180910390fd5b505050508080600101915050611016565b5050505050505050565b6111f46115de565b73ffffffffffffffffffffffffffffffffffffffff166112126105fe565b73ffffffffffffffffffffffffffffffffffffffff1614611271576112356115de565b6040517f118cdaa70000000000000000000000000000000000000000000000000000000081526004016112689190611936565b60405180910390fd5b565b5f5f5f9054906101000a900473ffffffffffffffffffffffffffffffffffffffff169050815f5f6101000a81548173ffffffffffffffffffffffffffffffffffffffff021916908373ffffffffffffffffffffffffffffffffffffffff1602179055508173ffffffffffffffffffffffffffffffffffffffff168173ffffffffffffffffffffffffffffffffffffffff167f8be0079c531659141344cd1fd0a4f28419497f9722a3daafe3b4186f6b6457e060405160405180910390a35050565b5f5f825f6006811061134957611348611d88565b5b60200201358360016006811061136257611361611d88565b5b60200201358460026006811061137b5761137a611d88565b5b60200201358560036006811061139457611393611d88565b5b6020020135866004600681106113ad576113ac611d88565b5b6020020135876005600681106113c6576113c5611d88565b5b60200201356040516020016113e0969594939291906124a4565b604051602081830303815290604052805190602001209050805f1c915050919050565b5f5f60605f8460056006811061141c5761141b611d88565b5b602002013590508067ffffffffffffffff1693505f604082901c63ffffffff169050468114611480576040517f08c379a000000000000000000000000000000000000000000000000000000000815260040161147790611dff565b60405180910390fd5b5f608083901c9050611491816109c9565b93505f6114b5886004600681106114ab576114aa611d88565b5b60200201356109c9565b90505f816040516020016114c9919061258d565b60405160208183030381529060405290505f7f000000000000000000000000000000000000000000000000000000000000000073ffffffffffffffffffffffffffffffffffffffff166316f1adc1836040518263ffffffff1660e01b815260040161153491906125f8565b5f60405180830381865afa15801561154e573d5f5f3e3d5ffd5b505050506040513d5f823e3d601f19601f820116820180604052508101906115769190612699565b90505f8151116115bb576040517f08c379a00000000000000000000000000000000000000000000000000000000081526004016115b29061272a565b60405180910390fd5b808060200190518101906115cf9190612783565b97505050505050509193909250565b5f33905090565b5f604051905090565b5f5ffd5b5f5ffd5b5f5ffd5b5f81905082602060080282011115611615576116146115f6565b5b92915050565b5f81905082602060060282011115611636576116356115f6565b5b92915050565b5f5ffd5b5f5ffd5b5f5f83601f8401126116595761165861163c565b5b8235905067ffffffffffffffff81111561167657611675611640565b5b602083019150836020820283011115611692576116916115f6565b5b9250929050565b5f5f83601f8401126116ae576116ad61163c565b5b8235905067ffffffffffffffff8111156116cb576116ca611640565b5b6020830191508360018202830111156116e7576116e66115f6565b5b9250929050565b5f5f5f5f5f5f6102008789031215611709576117086115ee565b5b5f61171689828a016115fa565b96505061010061172889828a0161161b565b9550506101c087013567ffffffffffffffff81111561174a576117496115f2565b5b61175689828a01611644565b94509450506101e087013567ffffffffffffffff81111561177a576117796115f2565b5b61178689828a01611699565b92509250509295509295509295565b5f819050919050565b6117a781611795565b81146117b1575f5ffd5b50565b5f813590506117c28161179e565b92915050565b5f602082840312156117dd576117dc6115ee565b5b5f6117ea848285016117b4565b91505092915050565b5f81519050919050565b5f82825260208201905092915050565b8281835e5f83830152505050565b5f601f19601f8301169050919050565b5f611835826117f3565b61183f81856117fd565b935061184f81856020860161180d565b6118588161181b565b840191505092915050565b5f6020820190508181035f83015261187b818461182b565b905092915050565b5f73ffffffffffffffffffffffffffffffffffffffff82169050919050565b5f819050919050565b5f6118c56118c06118bb84611883565b6118a2565b611883565b9050919050565b5f6118d6826118ab565b9050919050565b5f6118e7826118cc565b9050919050565b6118f7816118dd565b82525050565b5f6020820190506119105f8301846118ee565b92915050565b5f61192082611883565b9050919050565b61193081611916565b82525050565b5f6020820190506119495f830184611927565b92915050565b5f819050919050565b6119618161194f565b811461196b575f5ffd5b50565b5f8135905061197c81611958565b92915050565b5f5ffd5b7f4e487b71000000000000000000000000000000000000000000000000000000005f52604160045260245ffd5b6119bc8261181b565b810181811067ffffffffffffffff821117156119db576119da611986565b5b80604052505050565b5f6119ed6115e5565b90506119f982826119b3565b919050565b5f67ffffffffffffffff821115611a1857611a17611986565b5b611a218261181b565b9050602081019050919050565b828183375f83830152505050565b5f611a4e611a49846119fe565b6119e4565b905082815260208101848484011115611a6a57611a69611982565b5b611a75848285611a2e565b509392505050565b5f82601f830112611a9157611a9061163c565b5b8135611aa1848260208601611a3c565b91505092915050565b5f5f60408385031215611ac057611abf6115ee565b5b5f611acd8582860161196e565b925050602083013567ffffffffffffffff811115611aee57611aed6115f2565b5b611afa85828601611a7d565b9150509250929050565b5f8115159050919050565b611b1881611b04565b82525050565b5f602082019050611b315f830184611b0f565b92915050565b5f611b41826118cc565b9050919050565b611b5181611b37565b82525050565b5f602082019050611b6a5f830184611b48565b92915050565b5f611b7a826118cc565b9050919050565b611b8a81611b70565b82525050565b5f602082019050611ba35f830184611b81565b92915050565b5f81519050919050565b5f82825260208201905092915050565b5f611bcd82611ba9565b611bd78185611bb3565b9350611be781856020860161180d565b611bf08161181b565b840191505092915050565b5f6020820190508181035f830152611c138184611bc3565b905092915050565b5f611c25826118cc565b9050919050565b611c3581611c1b565b82525050565b5f602082019050611c4e5f830184611c2c565b92915050565b611c5d81611916565b8114611c67575f5ffd5b50565b5f81359050611c7881611c54565b92915050565b5f60208284031215611c9357611c926115ee565b5b5f611ca084828501611c6a565b91505092915050565b5f611cb3826118cc565b9050919050565b611cc381611ca9565b82525050565b5f602082019050611cdc5f830184611cba565b92915050565b5f60208284031215611cf757611cf66115ee565b5b5f611d048482850161196e565b91505092915050565b611d168161194f565b82525050565b5f602082019050611d2f5f830184611d0d565b92915050565b82818337505050565b611d4b6101008383611d35565b5050565b611d5b60c08383611d35565b5050565b5f6101c082019050611d735f830185611d3e565b611d81610100830184611d4f565b9392505050565b7f4e487b71000000000000000000000000000000000000000000000000000000005f52603260045260245ffd5b7f57726f6e672064657374696e6174696f6e20636861696e0000000000000000005f82015250565b5f611de9601783611bb3565b9150611df482611db5565b602082019050919050565b5f6020820190508181035f830152611e1681611ddd565b9050919050565b7f5265706c61792061747461636b206465746563746564000000000000000000005f82015250565b5f611e51601683611bb3565b9150611e5c82611e1d565b602082019050919050565b5f6020820190508181035f830152611e7e81611e45565b9050919050565b5f819050919050565b611e9f611e9a82611795565b611e85565b82525050565b5f611eb08284611e8e565b60208201915081905092915050565b7f496e76616c6964207369676e6174757265206c656e67746800000000000000005f82015250565b5f611ef3601883611bb3565b9150611efe82611ebf565b602082019050919050565b5f6020820190508181035f830152611f2081611ee7565b9050919050565b5f60ff82169050919050565b611f3c81611f27565b82525050565b5f608082019050611f555f830187611d0d565b611f626020830186611f33565b611f6f6040830185611d0d565b611f7c6060830184611d0d565b95945050505050565b5f6060820190508181035f830152611f9d8186611bc3565b90508181036020830152611fb18185611bc3565b90508181036040830152611fc5818461182b565b9050949350505050565b7f4e487b71000000000000000000000000000000000000000000000000000000005f52601160045260245ffd5b5f61200682611f27565b915060ff820361201957612018611fcf565b5b600182019050919050565b5f61202e82611f27565b91505f82036120405761203f611fcf565b5b600182039050919050565b5f61205582611f27565b915061206083611f27565b9250828203905060ff81111561207957612078611fcf565b5b92915050565b5f61208982611f27565b915061209483611f27565b9250828201905060ff8111156120ad576120ac611fcf565b5b92915050565b5f6120bd82611795565b91506120c883611795565b92508282019050808211156120e0576120df611fcf565b5b92915050565b6120ef81611795565b82525050565b5f6080820190506121085f830187611927565b818103602083015261211a8186611bc3565b905061212960408301856120e6565b61213660608301846120e6565b95945050505050565b5f81905092915050565b7f19457468657265756d205369676e6564204d6573736167653a0a3332000000005f82015250565b5f61217d601c8361213f565b915061218882612149565b601c82019050919050565b5f819050919050565b6121ad6121a88261194f565b612193565b82525050565b5f6121bd82612171565b91506121c9828461219c565b60208201915081905092915050565b5f6121e38288611e8e565b6020820191506121f38287611e8e565b6020820191506122038286611e8e565b6020820191506122138285611e8e565b6020820191506122238284611e8e565b6020820191508190509695505050505050565b5f67ffffffffffffffff8211156122505761224f611986565b5b602082029050602081019050919050565b5f8151905061226f81611c54565b92915050565b5f61228761228284612236565b6119e4565b905080838252602082019050602084028301858111156122aa576122a96115f6565b5b835b818110156122d357806122bf8882612261565b8452602084019350506020810190506122ac565b5050509392505050565b5f82601f8301126122f1576122f061163c565b5b8151612301848260208601612275565b91505092915050565b5f6020828403121561231f5761231e6115ee565b5b5f82015167ffffffffffffffff81111561233c5761233b6115f2565b5b612348848285016122dd565b91505092915050565b5f61235b82611795565b915061236683611795565b925082820261237481611795565b9150828204841483151761238b5761238a611fcf565b5b5092915050565b5f5ffd5b5f5ffd5b5f5f858511156123ad576123ac612392565b5b838611156123be576123bd612396565b5b6001850283019150848603905094509492505050565b7f496e76616c6964207369676e61747572650000000000000000000000000000005f82015250565b5f612408601183611bb3565b9150612413826123d4565b602082019050919050565b5f6020820190508181035f830152612435816123fc565b9050919050565b7f5369676e6572206e6f7420616e206163746976652076616c696461746f7200005f82015250565b5f612470601e83611bb3565b915061247b8261243c565b602082019050919050565b5f6020820190508181035f83015261249d81612464565b9050919050565b5f6124af8289611e8e565b6020820191506124bf8288611e8e565b6020820191506124cf8287611e8e565b6020820191506124df8286611e8e565b6020820191506124ef8285611e8e565b6020820191506124ff8284611e8e565b602082019150819050979650505050505050565b5f61251d82611ba9565b612527818561213f565b935061253781856020860161180d565b80840191505092915050565b7f5f7661756c7400000000000000000000000000000000000000000000000000005f82015250565b5f61257760068361213f565b915061258282612543565b600682019050919050565b5f6125988284612513565b91506125a38261256b565b915081905092915050565b7f51696172614261736541737365747300000000000000000000000000000000005f82015250565b5f6125e2600f83611bb3565b91506125ed826125ae565b602082019050919050565b5f6040820190508181035f83015261260f816125d6565b905081810360208301526126238184611bc3565b905092915050565b5f61263d612638846119fe565b6119e4565b90508281526020810184848401111561265957612658611982565b5b61266484828561180d565b509392505050565b5f82601f8301126126805761267f61163c565b5b815161269084826020860161262b565b91505092915050565b5f602082840312156126ae576126ad6115ee565b5b5f82015167ffffffffffffffff8111156126cb576126ca6115f2565b5b6126d78482850161266c565b91505092915050565b7f5661756c74206e6f7420617574686f72697a65640000000000000000000000005f82015250565b5f612714601483611bb3565b915061271f826126e0565b602082019050919050565b5f6020820190508181035f83015261274181612708565b9050919050565b5f61275282611883565b9050919050565b61276281612748565b811461276c575f5ffd5b50565b5f8151905061277d81612759565b92915050565b5f60208284031215612798576127976115ee565b5b5f6127a58482850161276f565b9150509291505056fea2646970667358221220f3a516f9d6a015732a886668acba585460e037bad4f4997b538e7f94ce33614364736f6c634300081f0033",
			"opcodes": "PUSH2 0x120 PUSH1 0x40 MSTORE CALLVALUE DUP1 ISZERO PUSH2 0x10 JUMPI PUSH0 PUSH0 REVERT JUMPDEST POP PUSH1 0x40 MLOAD PUSH2 0x2BD2 CODESIZE SUB DUP1 PUSH2 0x2BD2 DUP4 CODECOPY DUP2 DUP2 ADD PUSH1 0x40 MSTORE DUP2 ADD SWAP1 PUSH2 0x32 SWAP2 SWAP1 PUSH2 0x2E1 JUMP JUMPDEST CALLER PUSH0 PUSH20 0xFFFFFFFFFFFFFFFFFFFFFFFFFFFFFFFFFFFFFFFF AND DUP2 PUSH20 0xFFFFFFFFFFFFFFFFFFFFFFFFFFFFFFFFFFFFFFFF AND SUB PUSH2 0xA3 JUMPI PUSH0 PUSH1 0x40 MLOAD PUSH32 0x1E4FBDF700000000000000000000000000000000000000000000000000000000 DUP2 MSTORE PUSH1 0x4 ADD PUSH2 0x9A SWAP2 SWAP1 PUSH2 0x367 JUMP JUMPDEST PUSH1 0x40 MLOAD DUP1 SWAP2 SUB SWAP1 REVERT JUMPDEST PUSH2 0xB2 DUP2 PUSH2 0x1C2 PUSH1 0x20 SHL PUSH1 0x20 SHR JUMP JUMPDEST POP DUP5 PUSH20 0xFFFFFFFFFFFFFFFFFFFFFFFFFFFFFFFFFFFFFFFF AND PUSH1 0x80 DUP2 PUSH20 0xFFFFFFFFFFFFFFFFFFFFFFFFFFFFFFFFFFFFFFFF AND DUP2 MSTORE POP POP DUP4 PUSH20 0xFFFFFFFFFFFFFFFFFFFFFFFFFFFFFFFFFFFFFFFF AND PUSH1 0xA0 DUP2 PUSH20 0xFFFFFFFFFFFFFFFFFFFFFFFFFFFFFFFFFFFFFFFF AND DUP2 MSTORE POP POP DUP3 PUSH20 0xFFFFFFFFFFFFFFFFFFFFFFFFFFFFFFFFFFFFFFFF AND PUSH1 0xC0 DUP2 PUSH20 0xFFFFFFFFFFFFFFFFFFFFFFFFFFFFFFFFFFFFFFFF AND DUP2 MSTORE POP POP DUP2 PUSH20 0xFFFFFFFFFFFFFFFFFFFFFFFFFFFFFFFFFFFFFFFF AND PUSH1 0xE0 DUP2 PUSH20 0xFFFFFFFFFFFFFFFFFFFFFFFFFFFFFFFFFFFFFFFF AND DUP2 MSTORE POP POP DUP1 PUSH20 0xFFFFFFFFFFFFFFFFFFFFFFFFFFFFFFFFFFFFFFFF AND PUSH2 0x100 DUP2 PUSH20 0xFFFFFFFFFFFFFFFFFFFFFFFFFFFFFFFFFFFFFFFF AND DUP2 MSTORE POP POP POP POP POP POP POP PUSH2 0x380 JUMP JUMPDEST PUSH0 PUSH0 PUSH0 SWAP1 SLOAD SWAP1 PUSH2 0x100 EXP SWAP1 DIV PUSH20 0xFFFFFFFFFFFFFFFFFFFFFFFFFFFFFFFFFFFFFFFF AND SWAP1 POP DUP2 PUSH0 PUSH0 PUSH2 0x100 EXP DUP2 SLOAD DUP2 PUSH20 0xFFFFFFFFFFFFFFFFFFFFFFFFFFFFFFFFFFFFFFFF MUL NOT AND SWAP1 DUP4 PUSH20 0xFFFFFFFFFFFFFFFFFFFFFFFFFFFFFFFFFFFFFFFF AND MUL OR SWAP1 SSTORE POP DUP2 PUSH20 0xFFFFFFFFFFFFFFFFFFFFFFFFFFFFFFFFFFFFFFFF AND DUP2 PUSH20 0xFFFFFFFFFFFFFFFFFFFFFFFFFFFFFFFFFFFFFFFF AND PUSH32 0x8BE0079C531659141344CD1FD0A4F28419497F9722A3DAAFE3B4186F6B6457E0 PUSH1 0x40 MLOAD PUSH1 0x40 MLOAD DUP1 SWAP2 SUB SWAP1 LOG3 POP POP JUMP JUMPDEST PUSH0 PUSH0 REVERT JUMPDEST PUSH0 PUSH20 0xFFFFFFFFFFFFFFFFFFFFFFFFFFFFFFFFFFFFFFFF DUP3 AND SWAP1 POP SWAP2 SWAP1 POP JUMP JUMPDEST PUSH0 PUSH2 0x2B0 DUP3 PUSH2 0x287 JUMP JUMPDEST SWAP1 POP SWAP2 SWAP1 POP JUMP JUMPDEST PUSH2 0x2C0 DUP2 PUSH2 0x2A6 JUMP JUMPDEST DUP2 EQ PUSH2 0x2CA JUMPI PUSH0 PUSH0 REVERT JUMPDEST POP JUMP JUMPDEST PUSH0 DUP2 MLOAD SWAP1 POP PUSH2 0x2DB DUP2 PUSH2 0x2B7 JUMP JUMPDEST SWAP3 SWAP2 POP POP JUMP JUMPDEST PUSH0 PUSH0 PUSH0 PUSH0 PUSH0 PUSH1 0xA0 DUP7 DUP9 SUB SLT ISZERO PUSH2 0x2FA JUMPI PUSH2 0x2F9 PUSH2 0x283 JUMP JUMPDEST JUMPDEST PUSH0 PUSH2 0x307 DUP9 DUP3 DUP10 ADD PUSH2 0x2CD JUMP JUMPDEST SWAP6 POP POP PUSH1 0x20 PUSH2 0x318 DUP9 DUP3 DUP10 ADD PUSH2 0x2CD JUMP JUMPDEST SWAP5 POP POP PUSH1 0x40 PUSH2 0x329 DUP9 DUP3 DUP10 ADD PUSH2 0x2CD JUMP JUMPDEST SWAP4 POP POP PUSH1 0x60 PUSH2 0x33A DUP9 DUP3 DUP10 ADD PUSH2 0x2CD JUMP JUMPDEST SWAP3 POP POP PUSH1 0x80 PUSH2 0x34B DUP9 DUP3 DUP10 ADD PUSH2 0x2CD JUMP JUMPDEST SWAP2 POP POP SWAP3 SWAP6 POP SWAP3 SWAP6 SWAP1 SWAP4 POP JUMP JUMPDEST PUSH2 0x361 DUP2 PUSH2 0x2A6 JUMP JUMPDEST DUP3 MSTORE POP POP JUMP JUMPDEST PUSH0 PUSH1 0x20 DUP3 ADD SWAP1 POP PUSH2 0x37A PUSH0 DUP4 ADD DUP5 PUSH2 0x358 JUMP JUMPDEST SWAP3 SWAP2 POP POP JUMP JUMPDEST PUSH1 0x80 MLOAD PUSH1 0xA0 MLOAD PUSH1 0xC0 MLOAD PUSH1 0xE0 MLOAD PUSH2 0x100 MLOAD PUSH2 0x27E4 PUSH2 0x3EE PUSH0 CODECOPY PUSH0 DUP2 DUP2 PUSH2 0x506 ADD MSTORE DUP2 DUP2 PUSH2 0x983 ADD MSTORE PUSH2 0xF81 ADD MSTORE PUSH0 DUP2 DUP2 PUSH2 0x8CF ADD MSTORE DUP2 DUP2 PUSH2 0xDC4 ADD MSTORE PUSH2 0x14DD ADD MSTORE PUSH0 DUP2 DUP2 PUSH2 0x35C ADD MSTORE PUSH2 0x9A7 ADD MSTORE PUSH0 DUP2 DUP2 PUSH2 0x5C0 ADD MSTORE PUSH2 0x6DD ADD MSTORE PUSH0 DUP2 DUP2 PUSH2 0xBCD ADD MSTORE PUSH2 0xE6C ADD MSTORE PUSH2 0x27E4 PUSH0 RETURN INVALID PUSH1 0x80 PUSH1 0x40 MSTORE CALLVALUE DUP1 ISZERO PUSH2 0xF JUMPI PUSH0 PUSH0 REVERT JUMPDEST POP PUSH1 0x4 CALLDATASIZE LT PUSH2 0x108 JUMPI PUSH0 CALLDATALOAD PUSH1 0xE0 SHR DUP1 PUSH4 0xAAD24061 GT PUSH2 0xA0 JUMPI DUP1 PUSH4 0xBD846EE7 GT PUSH2 0x6F JUMPI DUP1 PUSH4 0xBD846EE7 EQ PUSH2 0x2B6 JUMPI DUP1 PUSH4 0xBF4D766E EQ PUSH2 0x2D2 JUMPI DUP1 PUSH4 0xF2FDE38B EQ PUSH2 0x2F0 JUMPI DUP1 PUSH4 0xF90C0F40 EQ PUSH2 0x30C JUMPI DUP1 PUSH4 0xFA540801 EQ PUSH2 0x32A JUMPI PUSH2 0x108 JUMP JUMPDEST DUP1 PUSH4 0xAAD24061 EQ PUSH2 0x21A JUMPI DUP1 PUSH4 0xAED881D8 EQ PUSH2 0x24A JUMPI DUP1 PUSH4 0xB3D63003 EQ PUSH2 0x268 JUMPI DUP1 PUSH4 0xB648F220 EQ PUSH2 0x286 JUMPI PUSH2 0x108 JUMP JUMPDEST DUP1 PUSH4 0x7A988C54 GT PUSH2 0xDC JUMPI DUP1 PUSH4 0x7A988C54 EQ PUSH2 0x180 JUMPI DUP1 PUSH4 0x8DA5CB5B EQ PUSH2 0x1B0 JUMPI DUP1 PUSH4 0x97ABA7F9 EQ PUSH2 0x1CE JUMPI DUP1 PUSH4 0xAAB7F953 EQ PUSH2 0x1FE JUMPI PUSH2 0x108 JUMP JUMPDEST DUP1 PUSH3 0xDC2234 EQ PUSH2 0x10C JUMPI DUP1 PUSH4 0x19B8C941 EQ PUSH2 0x128 JUMPI DUP1 PUSH4 0x4EB30D41 EQ PUSH2 0x158 JUMPI DUP1 PUSH4 0x715018A6 EQ PUSH2 0x176 JUMPI JUMPDEST PUSH0 PUSH0 REVERT JUMPDEST PUSH2 0x126 PUSH1 0x4 DUP1 CALLDATASIZE SUB DUP2 ADD SWAP1 PUSH2 0x121 SWAP2 SWAP1 PUSH2 0x16EE JUMP JUMPDEST PUSH2 0x35A JUMP JUMPDEST STOP JUMPDEST PUSH2 0x142 PUSH1 0x4 DUP1 CALLDATASIZE SUB DUP2 ADD SWAP1 PUSH2 0x13D SWAP2 SWAP1 PUSH2 0x17C8 JUMP JUMPDEST PUSH2 0x595 JUMP JUMPDEST PUSH1 0x40 MLOAD PUSH2 0x14F SWAP2 SWAP1 PUSH2 0x1863 JUMP JUMPDEST PUSH1 0x40 MLOAD DUP1 SWAP2 SUB SWAP1 RETURN JUMPDEST PUSH2 0x160 PUSH2 0x5BE JUMP JUMPDEST PUSH1 0x40 MLOAD PUSH2 0x16D SWAP2 SWAP1 PUSH2 0x18FD JUMP JUMPDEST PUSH1 0x40 MLOAD DUP1 SWAP2 SUB SWAP1 RETURN JUMPDEST PUSH2 0x17E PUSH2 0x5E2 JUMP JUMPDEST STOP JUMPDEST PUSH2 0x19A PUSH1 0x4 DUP1 CALLDATASIZE SUB DUP2 ADD SWAP1 PUSH2 0x195 SWAP2 SWAP1 PUSH2 0x17C8 JUMP JUMPDEST PUSH2 0x5F5 JUMP JUMPDEST PUSH1 0x40 MLOAD PUSH2 0x1A7 SWAP2 SWAP1 PUSH2 0x1936 JUMP JUMPDEST PUSH1 0x40 MLOAD DUP1 SWAP2 SUB SWAP1 RETURN JUMPDEST PUSH2 0x1B8 PUSH2 0x5FE JUMP JUMPDEST PUSH1 0x40 MLOAD PUSH2 0x1C5 SWAP2 SWAP1 PUSH2 0x1936 JUMP JUMPDEST PUSH1 0x40 MLOAD DUP1 SWAP2 SUB SWAP1 RETURN JUMPDEST PUSH2 0x1E8 PUSH1 0x4 DUP1 CALLDATASIZE SUB DUP2 ADD SWAP1 PUSH2 0x1E3 SWAP2 SWAP1 PUSH2 0x1AAA JUMP JUMPDEST PUSH2 0x625 JUMP JUMPDEST PUSH1 0x40 MLOAD PUSH2 0x1F5 SWAP2 SWAP1 PUSH2 0x1936 JUMP JUMPDEST PUSH1 0x40 MLOAD DUP1 SWAP2 SUB SWAP1 RETURN JUMPDEST PUSH2 0x218 PUSH1 0x4 DUP1 CALLDATASIZE SUB DUP2 ADD SWAP1 PUSH2 0x213 SWAP2 SWAP1 PUSH2 0x16EE JUMP JUMPDEST PUSH2 0x6DB JUMP JUMPDEST STOP JUMPDEST PUSH2 0x234 PUSH1 0x4 DUP1 CALLDATASIZE SUB DUP2 ADD SWAP1 PUSH2 0x22F SWAP2 SWAP1 PUSH2 0x17C8 JUMP JUMPDEST PUSH2 0x964 JUMP JUMPDEST PUSH1 0x40 MLOAD PUSH2 0x241 SWAP2 SWAP1 PUSH2 0x1B1E JUMP JUMPDEST PUSH1 0x40 MLOAD DUP1 SWAP2 SUB SWAP1 RETURN JUMPDEST PUSH2 0x252 PUSH2 0x981 JUMP JUMPDEST PUSH1 0x40 MLOAD PUSH2 0x25F SWAP2 SWAP1 PUSH2 0x1B57 JUMP JUMPDEST PUSH1 0x40 MLOAD DUP1 SWAP2 SUB SWAP1 RETURN JUMPDEST PUSH2 0x270 PUSH2 0x9A5 JUMP JUMPDEST PUSH1 0x40 MLOAD PUSH2 0x27D SWAP2 SWAP1 PUSH2 0x1B90 JUMP JUMPDEST PUSH1 0x40 MLOAD DUP1 SWAP2 SUB SWAP1 RETURN JUMPDEST PUSH2 0x2A0 PUSH1 0x4 DUP1 CALLDATASIZE SUB DUP2 ADD SWAP1 PUSH2 0x29B SWAP2 SWAP1 PUSH2 0x17C8 JUMP JUMPDEST PUSH2 0x9C9 JUMP JUMPDEST PUSH1 0x40 MLOAD PUSH2 0x2AD SWAP2 SWAP1 PUSH2 0x1BFB JUMP JUMPDEST PUSH1 0x40 MLOAD DUP1 SWAP2 SUB SWAP1 RETURN JUMPDEST PUSH2 0x2D0 PUSH1 0x4 DUP1 CALLDATASIZE SUB DUP2 ADD SWAP1 PUSH2 0x2CB SWAP2 SWAP1 PUSH2 0x16EE JUMP JUMPDEST PUSH2 0xBCB JUMP JUMPDEST STOP JUMPDEST PUSH2 0x2DA PUSH2 0xDC2 JUMP JUMPDEST PUSH1 0x40 MLOAD PUSH2 0x2E7 SWAP2 SWAP1 PUSH2 0x1C3B JUMP JUMPDEST PUSH1 0x40 MLOAD DUP1 SWAP2 SUB SWAP1 RETURN JUMPDEST PUSH2 0x30A PUSH1 0x4 DUP1 CALLDATASIZE SUB DUP2 ADD SWAP1 PUSH2 0x305 SWAP2 SWAP1 PUSH2 0x1C7E JUMP JUMPDEST PUSH2 0xDE6 JUMP JUMPDEST STOP JUMPDEST PUSH2 0x314 PUSH2 0xE6A JUMP JUMPDEST PUSH1 0x40 MLOAD PUSH2 0x321 SWAP2 SWAP1 PUSH2 0x1CC9 JUMP JUMPDEST PUSH1 0x40 MLOAD DUP1 SWAP2 SUB SWAP1 RETURN JUMPDEST PUSH2 0x344 PUSH1 0x4 DUP1 CALLDATASIZE SUB DUP2 ADD SWAP1 PUSH2 0x33F SWAP2 SWAP1 PUSH2 0x1CE2 JUMP JUMPDEST PUSH2 0xE8E JUMP JUMPDEST PUSH1 0x40 MLOAD PUSH2 0x351 SWAP2 SWAP1 PUSH2 0x1D1C JUMP JUMPDEST PUSH1 0x40 MLOAD DUP1 SWAP2 SUB SWAP1 RETURN JUMPDEST PUSH32 0x0 PUSH20 0xFFFFFFFFFFFFFFFFFFFFFFFFFFFFFFFFFFFFFFFF AND PUSH4 0x9CB28658 DUP8 DUP8 PUSH1 0x40 MLOAD DUP4 PUSH4 0xFFFFFFFF AND PUSH1 0xE0 SHL DUP2 MSTORE PUSH1 0x4 ADD PUSH2 0x3B5 SWAP3 SWAP2 SWAP1 PUSH2 0x1D5F JUMP JUMPDEST PUSH0 PUSH1 0x40 MLOAD DUP1 DUP4 SUB DUP2 DUP7 DUP1 EXTCODESIZE ISZERO DUP1 ISZERO PUSH2 0x3CB JUMPI PUSH0 PUSH0 REVERT JUMPDEST POP GAS STATICCALL ISZERO DUP1 ISZERO PUSH2 0x3DD JUMPI RETURNDATASIZE PUSH0 PUSH0 RETURNDATACOPY RETURNDATASIZE PUSH0 REVERT JUMPDEST POP POP POP POP PUSH0 DUP6 PUSH1 0x4 PUSH1 0x6 DUP2 LT PUSH2 0x3F6 JUMPI PUSH2 0x3F5 PUSH2 0x1D88 JUMP JUMPDEST JUMPDEST PUSH1 0x20 MUL ADD CALLDATALOAD SWAP1 POP CHAINID DUP2 EQ PUSH2 0x43F JUMPI PUSH1 0x40 MLOAD PUSH32 0x8C379A000000000000000000000000000000000000000000000000000000000 DUP2 MSTORE PUSH1 0x4 ADD PUSH2 0x436 SWAP1 PUSH2 0x1DFF JUMP JUMPDEST PUSH1 0x40 MLOAD DUP1 SWAP2 SUB SWAP1 REVERT JUMPDEST PUSH0 PUSH2 0x449 DUP8 PUSH2 0xEBD JUMP JUMPDEST SWAP1 POP PUSH2 0x45A DUP2 PUSH0 SHL DUP8 DUP8 DUP8 DUP8 PUSH2 0xF72 JUMP JUMPDEST PUSH1 0x1 PUSH0 DUP3 DUP2 MSTORE PUSH1 0x20 ADD SWAP1 DUP2 MSTORE PUSH1 0x20 ADD PUSH0 KECCAK256 PUSH0 SWAP1 SLOAD SWAP1 PUSH2 0x100 EXP SWAP1 DIV PUSH1 0xFF AND ISZERO PUSH2 0x4B8 JUMPI PUSH1 0x40 MLOAD PUSH32 0x8C379A000000000000000000000000000000000000000000000000000000000 DUP2 MSTORE PUSH1 0x4 ADD PUSH2 0x4AF SWAP1 PUSH2 0x1E67 JUMP JUMPDEST PUSH1 0x40 MLOAD DUP1 SWAP2 SUB SWAP1 REVERT JUMPDEST PUSH1 0x1 DUP1 PUSH0 DUP4 DUP2 MSTORE PUSH1 0x20 ADD SWAP1 DUP2 MSTORE PUSH1 0x20 ADD PUSH0 KECCAK256 PUSH0 PUSH2 0x100 EXP DUP2 SLOAD DUP2 PUSH1 0xFF MUL NOT AND SWAP1 DUP4 ISZERO ISZERO MUL OR SWAP1 SSTORE POP PUSH0 PUSH2 0x502 DUP9 PUSH1 0x5 PUSH1 0x6 DUP2 LT PUSH2 0x4F8 JUMPI PUSH2 0x4F7 PUSH2 0x1D88 JUMP JUMPDEST JUMPDEST PUSH1 0x20 MUL ADD CALLDATALOAD PUSH2 0x5F5 JUMP JUMPDEST SWAP1 POP PUSH32 0x0 PUSH20 0xFFFFFFFFFFFFFFFFFFFFFFFFFFFFFFFFFFFFFFFF AND PUSH4 0x1722E147 DUP3 PUSH1 0x40 MLOAD DUP3 PUSH4 0xFFFFFFFF AND PUSH1 0xE0 SHL DUP2 MSTORE PUSH1 0x4 ADD PUSH2 0x55D SWAP2 SWAP1 PUSH2 0x1936 JUMP JUMPDEST PUSH0 PUSH1 0x40 MLOAD DUP1 DUP4 SUB DUP2 PUSH0 DUP8 DUP1 EXTCODESIZE ISZERO DUP1 ISZERO PUSH2 0x574 JUMPI PUSH0 PUSH0 REVERT JUMPDEST POP GAS CALL ISZERO DUP1 ISZERO PUSH2 0x586 JUMPI RETURNDATASIZE PUSH0 PUSH0 RETURNDATACOPY RETURNDATASIZE PUSH0 REVERT JUMPDEST POP POP POP POP POP POP POP POP POP POP POP POP POP JUMP JUMPDEST PUSH1 0x60 DUP2 PUSH1 0x40 MLOAD PUSH1 0x20 ADD PUSH2 0x5A8 SWAP2 SWAP1 PUSH2 0x1EA5 JUMP JUMPDEST PUSH1 0x40 MLOAD PUSH1 0x20 DUP2 DUP4 SUB SUB DUP2 MSTORE SWAP1 PUSH1 0x40 MSTORE SWAP1 POP SWAP2 SWAP1 POP JUMP JUMPDEST PUSH32 0x0 DUP2 JUMP JUMPDEST PUSH2 0x5EA PUSH2 0x11EC JUMP JUMPDEST PUSH2 0x5F3 PUSH0 PUSH2 0x1273 JUMP JUMPDEST JUMP JUMPDEST PUSH0 DUP2 SWAP1 POP SWAP2 SWAP1 POP JUMP JUMPDEST PUSH0 PUSH0 PUSH0 SWAP1 SLOAD SWAP1 PUSH2 0x100 EXP SWAP1 DIV PUSH20 0xFFFFFFFFFFFFFFFFFFFFFFFFFFFFFFFFFFFFFFFF AND SWAP1 POP SWAP1 JUMP JUMPDEST PUSH0 PUSH1 0x41 DUP3 MLOAD EQ PUSH2 0x66A JUMPI PUSH1 0x40 MLOAD PUSH32 0x8C379A000000000000000000000000000000000000000000000000000000000 DUP2 MSTORE PUSH1 0x4 ADD PUSH2 0x661 SWAP1 PUSH2 0x1F09 JUMP JUMPDEST PUSH1 0x40 MLOAD DUP1 SWAP2 SUB SWAP1 REVERT JUMPDEST PUSH0 PUSH0 PUSH0 PUSH1 0x20 DUP6 ADD MLOAD SWAP3 POP PUSH1 0x40 DUP6 ADD MLOAD SWAP2 POP PUSH1 0x60 DUP6 ADD MLOAD PUSH0 BYTE SWAP1 POP PUSH1 0x1 DUP7 DUP3 DUP6 DUP6 PUSH1 0x40 MLOAD PUSH0 DUP2 MSTORE PUSH1 0x20 ADD PUSH1 0x40 MSTORE PUSH1 0x40 MLOAD PUSH2 0x6A6 SWAP5 SWAP4 SWAP3 SWAP2 SWAP1 PUSH2 0x1F42 JUMP JUMPDEST PUSH1 0x20 PUSH1 0x40 MLOAD PUSH1 0x20 DUP2 SUB SWAP1 DUP1 DUP5 SUB SWAP1 DUP6 GAS STATICCALL ISZERO DUP1 ISZERO PUSH2 0x6C6 JUMPI RETURNDATASIZE PUSH0 PUSH0 RETURNDATACOPY RETURNDATASIZE PUSH0 REVERT JUMPDEST POP POP POP PUSH1 0x20 PUSH1 0x40 MLOAD SUB MLOAD SWAP4 POP POP POP POP SWAP3 SWAP2 POP POP JUMP JUMPDEST PUSH32 0x0 PUSH20 0xFFFFFFFFFFFFFFFFFFFFFFFFFFFFFFFFFFFFFFFF AND PUSH4 0x9CB28658 DUP8 DUP8 PUSH1 0x40 MLOAD DUP4 PUSH4 0xFFFFFFFF AND PUSH1 0xE0 SHL DUP2 MSTORE PUSH1 0x4 ADD PUSH2 0x736 SWAP3 SWAP2 SWAP1 PUSH2 0x1D5F JUMP JUMPDEST PUSH0 PUSH1 0x40 MLOAD DUP1 DUP4 SUB DUP2 DUP7 DUP1 EXTCODESIZE ISZERO DUP1 ISZERO PUSH2 0x74C JUMPI PUSH0 PUSH0 REVERT JUMPDEST POP GAS STATICCALL ISZERO DUP1 ISZERO PUSH2 0x75E JUMPI RETURNDATASIZE PUSH0 PUSH0 RETURNDATACOPY RETURNDATASIZE PUSH0 REVERT JUMPDEST POP POP POP POP PUSH0 DUP6 PUSH1 0x5 PUSH1 0x6 DUP2 LT PUSH2 0x777 JUMPI PUSH2 0x776 PUSH2 0x1D88 JUMP JUMPDEST JUMPDEST PUSH1 0x20 MUL ADD CALLDATALOAD SWAP1 POP CHAINID DUP2 EQ PUSH2 0x7C0 JUMPI PUSH1 0x40 MLOAD PUSH32 0x8C379A000000000000000000000000000000000000000000000000000000000 DUP2 MSTORE PUSH1 0x4 ADD PUSH2 0x7B7 SWAP1 PUSH2 0x1DFF JUMP JUMPDEST PUSH1 0x40 MLOAD DUP1 SWAP2 SUB SWAP1 REVERT JUMPDEST PUSH0 PUSH2 0x7E2 DUP8 PUSH1 0x3 PUSH1 0x6 DUP2 LT PUSH2 0x7D8 JUMPI PUSH2 0x7D7 PUSH2 0x1D88 JUMP JUMPDEST JUMPDEST PUSH1 0x20 MUL ADD CALLDATALOAD PUSH2 0x9C9 JUMP JUMPDEST SWAP1 POP PUSH0 PUSH2 0x806 DUP9 PUSH1 0x2 PUSH1 0x6 DUP2 LT PUSH2 0x7FC JUMPI PUSH2 0x7FB PUSH2 0x1D88 JUMP JUMPDEST JUMPDEST PUSH1 0x20 MUL ADD CALLDATALOAD PUSH2 0x9C9 JUMP JUMPDEST SWAP1 POP PUSH0 PUSH2 0x82A DUP10 PUSH1 0x4 PUSH1 0x6 DUP2 LT PUSH2 0x820 JUMPI PUSH2 0x81F PUSH2 0x1D88 JUMP JUMPDEST JUMPDEST PUSH1 0x20 MUL ADD CALLDATALOAD PUSH2 0x595 JUMP JUMPDEST SWAP1 POP PUSH0 PUSH2 0x836 DUP11 PUSH2 0x1334 JUMP JUMPDEST SWAP1 POP PUSH2 0x847 DUP2 PUSH0 SHL DUP11 DUP11 DUP11 DUP11 PUSH2 0xF72 JUMP JUMPDEST PUSH1 0x1 PUSH0 DUP3 DUP2 MSTORE PUSH1 0x20 ADD SWAP1 DUP2 MSTORE PUSH1 0x20 ADD PUSH0 KECCAK256 PUSH0 SWAP1 SLOAD SWAP1 PUSH2 0x100 EXP SWAP1 DIV PUSH1 0xFF AND ISZERO PUSH2 0x8A5 JUMPI PUSH1 0x40 MLOAD PUSH32 0x8C379A000000000000000000000000000000000000000000000000000000000 DUP2 MSTORE PUSH1 0x4 ADD PUSH2 0x89C SWAP1 PUSH2 0x1E67 JUMP JUMPDEST PUSH1 0x40 MLOAD DUP1 SWAP2 SUB SWAP1 REVERT JUMPDEST PUSH1 0x1 DUP1 PUSH0 DUP4 DUP2 MSTORE PUSH1 0x20 ADD SWAP1 DUP2 MSTORE PUSH1 0x20 ADD PUSH0 KECCAK256 PUSH0 PUSH2 0x100 EXP DUP2 SLOAD DUP2 PUSH1 0xFF MUL NOT AND SWAP1 DUP4 ISZERO ISZERO MUL OR SWAP1 SSTORE POP PUSH32 0x0 PUSH20 0xFFFFFFFFFFFFFFFFFFFFFFFFFFFFFFFFFFFFFFFF AND PUSH4 0x2E057B9B DUP5 DUP7 DUP6 PUSH1 0x40 MLOAD DUP5 PUSH4 0xFFFFFFFF AND PUSH1 0xE0 SHL DUP2 MSTORE PUSH1 0x4 ADD PUSH2 0x92A SWAP4 SWAP3 SWAP2 SWAP1 PUSH2 0x1F85 JUMP JUMPDEST PUSH0 PUSH1 0x40 MLOAD DUP1 DUP4 SUB DUP2 PUSH0 DUP8 DUP1 EXTCODESIZE ISZERO DUP1 ISZERO PUSH2 0x941 JUMPI PUSH0 PUSH0 REVERT JUMPDEST POP GAS CALL ISZERO DUP1 ISZERO PUSH2 0x953 JUMPI RETURNDATASIZE PUSH0 PUSH0 RETURNDATACOPY RETURNDATASIZE PUSH0 REVERT JUMPDEST POP POP POP POP POP POP POP POP POP POP POP POP POP POP POP JUMP JUMPDEST PUSH1 0x1 PUSH1 0x20 MSTORE DUP1 PUSH0 MSTORE PUSH1 0x40 PUSH0 KECCAK256 PUSH0 SWAP2 POP SLOAD SWAP1 PUSH2 0x100 EXP SWAP1 DIV PUSH1 0xFF AND DUP2 JUMP JUMPDEST PUSH32 0x0 DUP2 JUMP JUMPDEST PUSH32 0x0 DUP2 JUMP JUMPDEST PUSH1 0x60 PUSH0 DUP3 SUB PUSH2 0x9E8 JUMPI PUSH1 0x40 MLOAD DUP1 PUSH1 0x20 ADD PUSH1 0x40 MSTORE DUP1 PUSH0 DUP2 MSTORE POP SWAP1 POP PUSH2 0xBC6 JUMP JUMPDEST PUSH0 DUP3 PUSH0 SHL SWAP1 POP PUSH0 PUSH0 SWAP1 POP JUMPDEST PUSH1 0x20 DUP2 PUSH1 0xFF AND LT DUP1 ISZERO PUSH2 0xA43 JUMPI POP PUSH0 PUSH1 0xF8 SHL DUP3 DUP3 PUSH1 0xFF AND PUSH1 0x20 DUP2 LT PUSH2 0xA1B JUMPI PUSH2 0xA1A PUSH2 0x1D88 JUMP JUMPDEST JUMPDEST BYTE PUSH1 0xF8 SHL PUSH31 0xFFFFFFFFFFFFFFFFFFFFFFFFFFFFFFFFFFFFFFFFFFFFFFFFFFFFFFFFFFFFFF NOT AND EQ JUMPDEST ISZERO PUSH2 0xA5B JUMPI DUP1 DUP1 PUSH2 0xA53 SWAP1 PUSH2 0x1FFC JUMP JUMPDEST SWAP2 POP POP PUSH2 0x9F3 JUMP JUMPDEST PUSH0 PUSH1 0x1F SWAP1 POP JUMPDEST DUP2 PUSH1 0xFF AND DUP2 PUSH1 0xFF AND GT DUP1 ISZERO PUSH2 0xAB3 JUMPI POP PUSH0 PUSH1 0xF8 SHL DUP4 DUP3 PUSH1 0xFF AND PUSH1 0x20 DUP2 LT PUSH2 0xA8B JUMPI PUSH2 0xA8A PUSH2 0x1D88 JUMP JUMPDEST JUMPDEST BYTE PUSH1 0xF8 SHL PUSH31 0xFFFFFFFFFFFFFFFFFFFFFFFFFFFFFFFFFFFFFFFFFFFFFFFFFFFFFFFFFFFFFF NOT AND EQ JUMPDEST ISZERO PUSH2 0xACB JUMPI DUP1 DUP1 PUSH2 0xAC3 SWAP1 PUSH2 0x2024 JUMP JUMPDEST SWAP2 POP POP PUSH2 0xA61 JUMP JUMPDEST PUSH0 PUSH1 0x1 DUP4 DUP4 PUSH2 0xADA SWAP2 SWAP1 PUSH2 0x204B JUMP JUMPDEST PUSH2 0xAE4 SWAP2 SWAP1 PUSH2 0x207F JUMP JUMPDEST SWAP1 POP PUSH0 DUP2 PUSH1 0xFF AND PUSH8 0xFFFFFFFFFFFFFFFF DUP2 GT ISZERO PUSH2 0xB04 JUMPI PUSH2 0xB03 PUSH2 0x1986 JUMP JUMPDEST JUMPDEST PUSH1 0x40 MLOAD SWAP1 DUP1 DUP3 MSTORE DUP1 PUSH1 0x1F ADD PUSH1 0x1F NOT AND PUSH1 0x20 ADD DUP3 ADD PUSH1 0x40 MSTORE DUP1 ISZERO PUSH2 0xB36 JUMPI DUP2 PUSH1 0x20 ADD PUSH1 0x1 DUP3 MUL DUP1 CALLDATASIZE DUP4 CALLDATACOPY DUP1 DUP3 ADD SWAP2 POP POP SWAP1 POP JUMPDEST POP SWAP1 POP PUSH0 PUSH0 SWAP1 POP JUMPDEST DUP3 PUSH1 0xFF AND DUP2 LT ISZERO PUSH2 0xBBC JUMPI DUP6 DUP2 DUP7 PUSH1 0xFF AND PUSH2 0xB59 SWAP2 SWAP1 PUSH2 0x20B3 JUMP JUMPDEST PUSH1 0x20 DUP2 LT PUSH2 0xB6A JUMPI PUSH2 0xB69 PUSH2 0x1D88 JUMP JUMPDEST JUMPDEST BYTE PUSH1 0xF8 SHL DUP3 DUP3 DUP2 MLOAD DUP2 LT PUSH2 0xB81 JUMPI PUSH2 0xB80 PUSH2 0x1D88 JUMP JUMPDEST JUMPDEST PUSH1 0x20 ADD ADD SWAP1 PUSH31 0xFFFFFFFFFFFFFFFFFFFFFFFFFFFFFFFFFFFFFFFFFFFFFFFFFFFFFFFFFFFFFF NOT AND SWAP1 DUP2 PUSH0 BYTE SWAP1 MSTORE8 POP DUP1 DUP1 PUSH1 0x1 ADD SWAP2 POP POP PUSH2 0xB3E JUMP JUMPDEST POP DUP1 SWAP6 POP POP POP POP POP POP JUMPDEST SWAP2 SWAP1 POP JUMP JUMPDEST PUSH32 0x0 PUSH20 0xFFFFFFFFFFFFFFFFFFFFFFFFFFFFFFFFFFFFFFFF AND PUSH4 0x9CB28658 DUP8 DUP8 PUSH1 0x40 MLOAD DUP4 PUSH4 0xFFFFFFFF AND PUSH1 0xE0 SHL DUP2 MSTORE PUSH1 0x4 ADD PUSH2 0xC26 SWAP3 SWAP2 SWAP1 PUSH2 0x1D5F JUMP JUMPDEST PUSH0 PUSH1 0x40 MLOAD DUP1 DUP4 SUB DUP2 DUP7 DUP1 EXTCODESIZE ISZERO DUP1 ISZERO PUSH2 0xC3C JUMPI PUSH0 PUSH0 REVERT JUMPDEST POP GAS STATICCALL ISZERO DUP1 ISZERO PUSH2 0xC4E JUMPI RETURNDATASIZE PUSH0 PUSH0 RETURNDATACOPY RETURNDATASIZE PUSH0 REVERT JUMPDEST POP POP POP POP PUSH0 PUSH0 PUSH0 PUSH2 0xC5E DUP9 PUSH2 0x1403 JUMP JUMPDEST SWAP3 POP SWAP3 POP SWAP3 POP PUSH0 DUP9 PUSH1 0x2 PUSH1 0x6 DUP2 LT PUSH2 0xC79 JUMPI PUSH2 0xC78 PUSH2 0x1D88 JUMP JUMPDEST JUMPDEST PUSH1 0x20 MUL ADD CALLDATALOAD SWAP1 POP PUSH0 DUP10 PUSH1 0x3 PUSH1 0x6 DUP2 LT PUSH2 0xC95 JUMPI PUSH2 0xC94 PUSH2 0x1D88 JUMP JUMPDEST JUMPDEST PUSH1 0x20 MUL ADD CALLDATALOAD SWAP1 POP PUSH0 PUSH2 0xCA6 DUP12 PUSH2 0x1334 JUMP JUMPDEST SWAP1 POP PUSH2 0xCB7 DUP2 PUSH0 SHL DUP12 DUP12 DUP12 DUP12 PUSH2 0xF72 JUMP JUMPDEST PUSH1 0x1 PUSH0 DUP3 DUP2 MSTORE PUSH1 0x20 ADD SWAP1 DUP2 MSTORE PUSH1 0x20 ADD PUSH0 KECCAK256 PUSH0 SWAP1 SLOAD SWAP1 PUSH2 0x100 EXP SWAP1 DIV PUSH1 0xFF AND ISZERO PUSH2 0xD15 JUMPI PUSH1 0x40 MLOAD PUSH32 0x8C379A000000000000000000000000000000000000000000000000000000000 DUP2 MSTORE PUSH1 0x4 ADD PUSH2 0xD0C SWAP1 PUSH2 0x1E67 JUMP JUMPDEST PUSH1 0x40 MLOAD DUP1 SWAP2 SUB SWAP1 REVERT JUMPDEST PUSH1 0x1 DUP1 PUSH0 DUP4 DUP2 MSTORE PUSH1 0x20 ADD SWAP1 DUP2 MSTORE PUSH1 0x20 ADD PUSH0 KECCAK256 PUSH0 PUSH2 0x100 EXP DUP2 SLOAD DUP2 PUSH1 0xFF MUL NOT AND SWAP1 DUP4 ISZERO ISZERO MUL OR SWAP1 SSTORE POP PUSH0 DUP4 PUSH1 0x80 DUP5 SWAP1 SHL OR SWAP1 POP DUP6 PUSH20 0xFFFFFFFFFFFFFFFFFFFFFFFFFFFFFFFFFFFFFFFF AND PUSH4 0x6AFBF5D6 DUP3 DUP8 DUP11 DUP7 PUSH1 0x40 MLOAD DUP6 PUSH4 0xFFFFFFFF AND PUSH1 0xE0 SHL DUP2 MSTORE PUSH1 0x4 ADD PUSH2 0xD86 SWAP5 SWAP4 SWAP3 SWAP2 SWAP1 PUSH2 0x20F5 JUMP JUMPDEST PUSH0 PUSH1 0x40 MLOAD DUP1 DUP4 SUB DUP2 PUSH0 DUP8 DUP1 EXTCODESIZE ISZERO DUP1 ISZERO PUSH2 0xD9D JUMPI PUSH0 PUSH0 REVERT JUMPDEST POP GAS CALL ISZERO DUP1 ISZERO PUSH2 0xDAF JUMPI RETURNDATASIZE PUSH0 PUSH0 RETURNDATACOPY RETURNDATASIZE PUSH0 REVERT JUMPDEST POP POP POP POP POP POP POP POP POP POP POP POP POP POP POP POP POP JUMP JUMPDEST PUSH32 0x0 DUP2 JUMP JUMPDEST PUSH2 0xDEE PUSH2 0x11EC JUMP JUMPDEST PUSH0 PUSH20 0xFFFFFFFFFFFFFFFFFFFFFFFFFFFFFFFFFFFFFFFF AND DUP2 PUSH20 0xFFFFFFFFFFFFFFFFFFFFFFFFFFFFFFFFFFFFFFFF AND SUB PUSH2 0xE5E JUMPI PUSH0 PUSH1 0x40 MLOAD PUSH32 0x1E4FBDF700000000000000000000000000000000000000000000000000000000 DUP2 MSTORE PUSH1 0x4 ADD PUSH2 0xE55 SWAP2 SWAP1 PUSH2 0x1936 JUMP JUMPDEST PUSH1 0x40 MLOAD DUP1 SWAP2 SUB SWAP1 REVERT JUMPDEST PUSH2 0xE67 DUP2 PUSH2 0x1273 JUMP JUMPDEST POP JUMP JUMPDEST PUSH32 0x0 DUP2 JUMP JUMPDEST PUSH0 DUP2 PUSH1 0x40 MLOAD PUSH1 0x20 ADD PUSH2 0xEA0 SWAP2 SWAP1 PUSH2 0x21B3 JUMP JUMPDEST PUSH1 0x40 MLOAD PUSH1 0x20 DUP2 DUP4 SUB SUB DUP2 MSTORE SWAP1 PUSH1 0x40 MSTORE DUP1 MLOAD SWAP1 PUSH1 0x20 ADD KECCAK256 SWAP1 POP SWAP2 SWAP1 POP JUMP JUMPDEST PUSH0 PUSH0 DUP3 PUSH0 PUSH1 0x6 DUP2 LT PUSH2 0xED2 JUMPI PUSH2 0xED1 PUSH2 0x1D88 JUMP JUMPDEST JUMPDEST PUSH1 0x20 MUL ADD CALLDATALOAD DUP4 PUSH1 0x1 PUSH1 0x6 DUP2 LT PUSH2 0xEEB JUMPI PUSH2 0xEEA PUSH2 0x1D88 JUMP JUMPDEST JUMPDEST PUSH1 0x20 MUL ADD CALLDATALOAD DUP5 PUSH1 0x2 PUSH1 0x6 DUP2 LT PUSH2 0xF04 JUMPI PUSH2 0xF03 PUSH2 0x1D88 JUMP JUMPDEST JUMPDEST PUSH1 0x20 MUL ADD CALLDATALOAD DUP6 PUSH1 0x3 PUSH1 0x6 DUP2 LT PUSH2 0xF1D JUMPI PUSH2 0xF1C PUSH2 0x1D88 JUMP JUMPDEST JUMPDEST PUSH1 0x20 MUL ADD CALLDATALOAD DUP7 PUSH1 0x4 PUSH1 0x6 DUP2 LT PUSH2 0xF36 JUMPI PUSH2 0xF35 PUSH2 0x1D88 JUMP JUMPDEST JUMPDEST PUSH1 0x20 MUL ADD CALLDATALOAD PUSH1 0x40 MLOAD PUSH1 0x20 ADD PUSH2 0xF4F SWAP6 SWAP5 SWAP4 SWAP3 SWAP2 SWAP1 PUSH2 0x21D8 JUMP JUMPDEST PUSH1 0x40 MLOAD PUSH1 0x20 DUP2 DUP4 SUB SUB DUP2 MSTORE SWAP1 PUSH1 0x40 MSTORE DUP1 MLOAD SWAP1 PUSH1 0x20 ADD KECCAK256 SWAP1 POP DUP1 PUSH0 SHR SWAP2 POP POP SWAP2 SWAP1 POP JUMP JUMPDEST PUSH0 PUSH2 0xF7C DUP7 PUSH2 0xE8E JUMP JUMPDEST SWAP1 POP PUSH0 PUSH32 0x0 PUSH20 0xFFFFFFFFFFFFFFFFFFFFFFFFFFFFFFFFFFFFFFFF AND PUSH4 0x1442E4C9 PUSH1 0x40 MLOAD DUP2 PUSH4 0xFFFFFFFF AND PUSH1 0xE0 SHL DUP2 MSTORE PUSH1 0x4 ADD PUSH0 PUSH1 0x40 MLOAD DUP1 DUP4 SUB DUP2 DUP7 GAS STATICCALL ISZERO DUP1 ISZERO PUSH2 0xFE7 JUMPI RETURNDATASIZE PUSH0 PUSH0 RETURNDATACOPY RETURNDATASIZE PUSH0 REVERT JUMPDEST POP POP POP POP PUSH1 0x40 MLOAD RETURNDATASIZE PUSH0 DUP3 RETURNDATACOPY RETURNDATASIZE PUSH1 0x1F NOT PUSH1 0x1F DUP3 ADD AND DUP3 ADD DUP1 PUSH1 0x40 MSTORE POP DUP2 ADD SWAP1 PUSH2 0x100F SWAP2 SWAP1 PUSH2 0x230A JUMP JUMPDEST SWAP1 POP PUSH0 PUSH0 SWAP1 POP JUMPDEST DUP7 DUP7 SWAP1 POP DUP2 LT ISZERO PUSH2 0x11E2 JUMPI CALLDATASIZE PUSH0 DUP7 DUP7 PUSH1 0x41 DUP6 PUSH2 0x1032 SWAP2 SWAP1 PUSH2 0x2351 JUMP JUMPDEST SWAP1 PUSH1 0x41 PUSH1 0x1 DUP8 PUSH2 0x1042 SWAP2 SWAP1 PUSH2 0x20B3 JUMP JUMPDEST PUSH2 0x104C SWAP2 SWAP1 PUSH2 0x2351 JUMP JUMPDEST SWAP3 PUSH2 0x1059 SWAP4 SWAP3 SWAP2 SWAP1 PUSH2 0x239A JUMP JUMPDEST SWAP2 POP SWAP2 POP PUSH0 PUSH2 0x10AB DUP7 DUP5 DUP5 DUP1 DUP1 PUSH1 0x1F ADD PUSH1 0x20 DUP1 SWAP2 DIV MUL PUSH1 0x20 ADD PUSH1 0x40 MLOAD SWAP1 DUP2 ADD PUSH1 0x40 MSTORE DUP1 SWAP4 SWAP3 SWAP2 SWAP1 DUP2 DUP2 MSTORE PUSH1 0x20 ADD DUP4 DUP4 DUP1 DUP3 DUP5 CALLDATACOPY PUSH0 DUP2 DUP5 ADD MSTORE PUSH1 0x1F NOT PUSH1 0x1F DUP3 ADD AND SWAP1 POP DUP1 DUP4 ADD SWAP3 POP POP POP POP POP POP POP PUSH2 0x625 JUMP JUMPDEST SWAP1 POP PUSH0 PUSH20 0xFFFFFFFFFFFFFFFFFFFFFFFFFFFFFFFFFFFFFFFF AND DUP2 PUSH20 0xFFFFFFFFFFFFFFFFFFFFFFFFFFFFFFFFFFFFFFFF AND SUB PUSH2 0x111B JUMPI PUSH1 0x40 MLOAD PUSH32 0x8C379A000000000000000000000000000000000000000000000000000000000 DUP2 MSTORE PUSH1 0x4 ADD PUSH2 0x1112 SWAP1 PUSH2 0x241E JUMP JUMPDEST PUSH1 0x40 MLOAD DUP1 SWAP2 SUB SWAP1 REVERT JUMPDEST PUSH0 PUSH0 SWAP1 POP PUSH0 PUSH0 SWAP1 POP JUMPDEST DUP7 MLOAD DUP2 LT ISZERO PUSH2 0x1190 JUMPI DUP3 PUSH20 0xFFFFFFFFFFFFFFFFFFFFFFFFFFFFFFFFFFFFFFFF AND DUP8 DUP3 DUP2 MLOAD DUP2 LT PUSH2 0x1157 JUMPI PUSH2 0x1156 PUSH2 0x1D88 JUMP JUMPDEST JUMPDEST PUSH1 0x20 MUL PUSH1 0x20 ADD ADD MLOAD PUSH20 0xFFFFFFFFFFFFFFFFFFFFFFFFFFFFFFFFFFFFFFFF AND SUB PUSH2 0x1183 JUMPI PUSH1 0x1 SWAP2 POP PUSH2 0x1190 JUMP JUMPDEST DUP1 DUP1 PUSH1 0x1 ADD SWAP2 POP POP PUSH2 0x1124 JUMP JUMPDEST POP DUP1 PUSH2 0x11D1 JUMPI PUSH1 0x40 MLOAD PUSH32 0x8C379A000000000000000000000000000000000000000000000000000000000 DUP2 MSTORE PUSH1 0x4 ADD PUSH2 0x11C8 SWAP1 PUSH2 0x2486 JUMP JUMPDEST PUSH1 0x40 MLOAD DUP1 SWAP2 SUB SWAP1 REVERT JUMPDEST POP POP POP POP DUP1 DUP1 PUSH1 0x1 ADD SWAP2 POP POP PUSH2 0x1016 JUMP JUMPDEST POP POP POP POP POP POP POP POP JUMP JUMPDEST PUSH2 0x11F4 PUSH2 0x15DE JUMP JUMPDEST PUSH20 0xFFFFFFFFFFFFFFFFFFFFFFFFFFFFFFFFFFFFFFFF AND PUSH2 0x1212 PUSH2 0x5FE JUMP JUMPDEST PUSH20 0xFFFFFFFFFFFFFFFFFFFFFFFFFFFFFFFFFFFFFFFF AND EQ PUSH2 0x1271 JUMPI PUSH2 0x1235 PUSH2 0x15DE JUMP JUMPDEST PUSH1 0x40 MLOAD PUSH32 0x118CDAA700000000000000000000000000000000000000000000000000000000 DUP2 MSTORE PUSH1 0x4 ADD PUSH2 0x1268 SWAP2 SWAP1 PUSH2 0x1936 JUMP JUMPDEST PUSH1 0x40 MLOAD DUP1 SWAP2 SUB SWAP1 REVERT JUMPDEST JUMP JUMPDEST PUSH0 PUSH0 PUSH0 SWAP1 SLOAD SWAP1 PUSH2 0x100 EXP SWAP1 DIV PUSH20 0xFFFFFFFFFFFFFFFFFFFFFFFFFFFFFFFFFFFFFFFF AND SWAP1 POP DUP2 PUSH0 PUSH0 PUSH2 0x100 EXP DUP2 SLOAD DUP2 PUSH20 0xFFFFFFFFFFFFFFFFFFFFFFFFFFFFFFFFFFFFFFFF MUL NOT AND SWAP1 DUP4 PUSH20 0xFFFFFFFFFFFFFFFFFFFFFFFFFFFFFFFFFFFFFFFF AND MUL OR SWAP1 SSTORE POP DUP2 PUSH20 0xFFFFFFFFFFFFFFFFFFFFFFFFFFFFFFFFFFFFFFFF AND DUP2 PUSH20 0xFFFFFFFFFFFFFFFFFFFFFFFFFFFFFFFFFFFFFFFF AND PUSH32 0x8BE0079C531659141344CD1FD0A4F28419497F9722A3DAAFE3B4186F6B6457E0 PUSH1 0x40 MLOAD PUSH1 0x40 MLOAD DUP1 SWAP2 SUB SWAP1 LOG3 POP POP JUMP JUMPDEST PUSH0 PUSH0 DUP3 PUSH0 PUSH1 0x6 DUP2 LT PUSH2 0x1349 JUMPI PUSH2 0x1348 PUSH2 0x1D88 JUMP JUMPDEST JUMPDEST PUSH1 0x20 MUL ADD CALLDATALOAD DUP4 PUSH1 0x1 PUSH1 0x6 DUP2 LT PUSH2 0x1362 JUMPI PUSH2 0x1361 PUSH2 0x1D88 JUMP JUMPDEST JUMPDEST PUSH1 0x20 MUL ADD CALLDATALOAD DUP5 PUSH1 0x2 PUSH1 0x6 DUP2 LT PUSH2 0x137B JUMPI PUSH2 0x137A PUSH2 0x1D88 JUMP JUMPDEST JUMPDEST PUSH1 0x20 MUL ADD CALLDATALOAD DUP6 PUSH1 0x3 PUSH1 0x6 DUP2 LT PUSH2 0x1394 JUMPI PUSH2 0x1393 PUSH2 0x1D88 JUMP JUMPDEST JUMPDEST PUSH1 0x20 MUL ADD CALLDATALOAD DUP7 PUSH1 0x4 PUSH1 0x6 DUP2 LT PUSH2 0x13AD JUMPI PUSH2 0x13AC PUSH2 0x1D88 JUMP JUMPDEST JUMPDEST PUSH1 0x20 MUL ADD CALLDATALOAD DUP8 PUSH1 0x5 PUSH1 0x6 DUP2 LT PUSH2 0x13C6 JUMPI PUSH2 0x13C5 PUSH2 0x1D88 JUMP JUMPDEST JUMPDEST PUSH1 0x20 MUL ADD CALLDATALOAD PUSH1 0x40 MLOAD PUSH1 0x20 ADD PUSH2 0x13E0 SWAP7 SWAP6 SWAP5 SWAP4 SWAP3 SWAP2 SWAP1 PUSH2 0x24A4 JUMP JUMPDEST PUSH1 0x40 MLOAD PUSH1 0x20 DUP2 DUP4 SUB SUB DUP2 MSTORE SWAP1 PUSH1 0x40 MSTORE DUP1 MLOAD SWAP1 PUSH1 0x20 ADD KECCAK256 SWAP1 POP DUP1 PUSH0 SHR SWAP2 POP POP SWAP2 SWAP1 POP JUMP JUMPDEST PUSH0 PUSH0 PUSH1 0x60 PUSH0 DUP5 PUSH1 0x5 PUSH1 0x6 DUP2 LT PUSH2 0x141C JUMPI PUSH2 0x141B PUSH2 0x1D88 JUMP JUMPDEST JUMPDEST PUSH1 0x20 MUL ADD CALLDATALOAD SWAP1 POP DUP1 PUSH8 0xFFFFFFFFFFFFFFFF AND SWAP4 POP PUSH0 PUSH1 0x40 DUP3 SWAP1 SHR PUSH4 0xFFFFFFFF AND SWAP1 POP CHAINID DUP2 EQ PUSH2 0x1480 JUMPI PUSH1 0x40 MLOAD PUSH32 0x8C379A000000000000000000000000000000000000000000000000000000000 DUP2 MSTORE PUSH1 0x4 ADD PUSH2 0x1477 SWAP1 PUSH2 0x1DFF JUMP JUMPDEST PUSH1 0x40 MLOAD DUP1 SWAP2 SUB SWAP1 REVERT JUMPDEST PUSH0 PUSH1 0x80 DUP4 SWAP1 SHR SWAP1 POP PUSH2 0x1491 DUP2 PUSH2 0x9C9 JUMP JUMPDEST SWAP4 POP PUSH0 PUSH2 0x14B5 DUP9 PUSH1 0x4 PUSH1 0x6 DUP2 LT PUSH2 0x14AB JUMPI PUSH2 0x14AA PUSH2 0x1D88 JUMP JUMPDEST JUMPDEST PUSH1 0x20 MUL ADD CALLDATALOAD PUSH2 0x9C9 JUMP JUMPDEST SWAP1 POP PUSH0 DUP2 PUSH1 0x40 MLOAD PUSH1 0x20 ADD PUSH2 0x14C9 SWAP2 SWAP1 PUSH2 0x258D JUMP JUMPDEST PUSH1 0x40 MLOAD PUSH1 0x20 DUP2 DUP4 SUB SUB DUP2 MSTORE SWAP1 PUSH1 0x40 MSTORE SWAP1 POP PUSH0 PUSH32 0x0 PUSH20 0xFFFFFFFFFFFFFFFFFFFFFFFFFFFFFFFFFFFFFFFF AND PUSH4 0x16F1ADC1 DUP4 PUSH1 0x40 MLOAD DUP3 PUSH4 0xFFFFFFFF AND PUSH1 0xE0 SHL DUP2 MSTORE PUSH1 0x4 ADD PUSH2 0x1534 SWAP2 SWAP1 PUSH2 0x25F8 JUMP JUMPDEST PUSH0 PUSH1 0x40 MLOAD DUP1 DUP4 SUB DUP2 DUP7 GAS STATICCALL ISZERO DUP1 ISZERO PUSH2 0x154E JUMPI RETURNDATASIZE PUSH0 PUSH0 RETURNDATACOPY RETURNDATASIZE PUSH0 REVERT JUMPDEST POP POP POP POP PUSH1 0x40 MLOAD RETURNDATASIZE PUSH0 DUP3 RETURNDATACOPY RETURNDATASIZE PUSH1 0x1F NOT PUSH1 0x1F DUP3 ADD AND DUP3 ADD DUP1 PUSH1 0x40 MSTORE POP DUP2 ADD SWAP1 PUSH2 0x1576 SWAP2 SWAP1 PUSH2 0x2699 JUMP JUMPDEST SWAP1 POP PUSH0 DUP2 MLOAD GT PUSH2 0x15BB JUMPI PUSH1 0x40 MLOAD PUSH32 0x8C379A000000000000000000000000000000000000000000000000000000000 DUP2 MSTORE PUSH1 0x4 ADD PUSH2 0x15B2 SWAP1 PUSH2 0x272A JUMP JUMPDEST PUSH1 0x40 MLOAD DUP1 SWAP2 SUB SWAP1 REVERT JUMPDEST DUP1 DUP1 PUSH1 0x20 ADD SWAP1 MLOAD DUP2 ADD SWAP1 PUSH2 0x15CF SWAP2 SWAP1 PUSH2 0x2783 JUMP JUMPDEST SWAP8 POP POP POP POP POP POP POP SWAP2 SWAP4 SWAP1 SWAP3 POP JUMP JUMPDEST PUSH0 CALLER SWAP1 POP SWAP1 JUMP JUMPDEST PUSH0 PUSH1 0x40 MLOAD SWAP1 POP SWAP1 JUMP JUMPDEST PUSH0 PUSH0 REVERT JUMPDEST PUSH0 PUSH0 REVERT JUMPDEST PUSH0 PUSH0 REVERT JUMPDEST PUSH0 DUP2 SWAP1 POP DUP3 PUSH1 0x20 PUSH1 0x8 MUL DUP3 ADD GT ISZERO PUSH2 0x1615 JUMPI PUSH2 0x1614 PUSH2 0x15F6 JUMP JUMPDEST JUMPDEST SWAP3 SWAP2 POP POP JUMP JUMPDEST PUSH0 DUP2 SWAP1 POP DUP3 PUSH1 0x20 PUSH1 0x6 MUL DUP3 ADD GT ISZERO PUSH2 0x1636 JUMPI PUSH2 0x1635 PUSH2 0x15F6 JUMP JUMPDEST JUMPDEST SWAP3 SWAP2 POP POP JUMP JUMPDEST PUSH0 PUSH0 REVERT JUMPDEST PUSH0 PUSH0 REVERT JUMPDEST PUSH0 PUSH0 DUP4 PUSH1 0x1F DUP5 ADD SLT PUSH2 0x1659 JUMPI PUSH2 0x1658 PUSH2 0x163C JUMP JUMPDEST JUMPDEST DUP3 CALLDATALOAD SWAP1 POP PUSH8 0xFFFFFFFFFFFFFFFF DUP2 GT ISZERO PUSH2 0x1676 JUMPI PUSH2 0x1675 PUSH2 0x1640 JUMP JUMPDEST JUMPDEST PUSH1 0x20 DUP4 ADD SWAP2 POP DUP4 PUSH1 0x20 DUP3 MUL DUP4 ADD GT ISZERO PUSH2 0x1692 JUMPI PUSH2 0x1691 PUSH2 0x15F6 JUMP JUMPDEST JUMPDEST SWAP3 POP SWAP3 SWAP1 POP JUMP JUMPDEST PUSH0 PUSH0 DUP4 PUSH1 0x1F DUP5 ADD SLT PUSH2 0x16AE JUMPI PUSH2 0x16AD PUSH2 0x163C JUMP JUMPDEST JUMPDEST DUP3 CALLDATALOAD SWAP1 POP PUSH8 0xFFFFFFFFFFFFFFFF DUP2 GT ISZERO PUSH2 0x16CB JUMPI PUSH2 0x16CA PUSH2 0x1640 JUMP JUMPDEST JUMPDEST PUSH1 0x20 DUP4 ADD SWAP2 POP DUP4 PUSH1 0x1 DUP3 MUL DUP4 ADD GT ISZERO PUSH2 0x16E7 JUMPI PUSH2 0x16E6 PUSH2 0x15F6 JUMP JUMPDEST JUMPDEST SWAP3 POP SWAP3 SWAP1 POP JUMP JUMPDEST PUSH0 PUSH0 PUSH0 PUSH0 PUSH0 PUSH0 PUSH2 0x200 DUP8 DUP10 SUB SLT ISZERO PUSH2 0x1709 JUMPI PUSH2 0x1708 PUSH2 0x15EE JUMP JUMPDEST JUMPDEST PUSH0 PUSH2 0x1716 DUP10 DUP3 DUP11 ADD PUSH2 0x15FA JUMP JUMPDEST SWAP7 POP POP PUSH2 0x100 PUSH2 0x1728 DUP10 DUP3 DUP11 ADD PUSH2 0x161B JUMP JUMPDEST SWAP6 POP POP PUSH2 0x1C0 DUP8 ADD CALLDATALOAD PUSH8 0xFFFFFFFFFFFFFFFF DUP2 GT ISZERO PUSH2 0x174A JUMPI PUSH2 0x1749 PUSH2 0x15F2 JUMP JUMPDEST JUMPDEST PUSH2 0x1756 DUP10 DUP3 DUP11 ADD PUSH2 0x1644 JUMP JUMPDEST SWAP5 POP SWAP5 POP POP PUSH2 0x1E0 DUP8 ADD CALLDATALOAD PUSH8 0xFFFFFFFFFFFFFFFF DUP2 GT ISZERO PUSH2 0x177A JUMPI PUSH2 0x1779 PUSH2 0x15F2 JUMP JUMPDEST JUMPDEST PUSH2 0x1786 DUP10 DUP3 DUP11 ADD PUSH2 0x1699 JUMP JUMPDEST SWAP3 POP SWAP3 POP POP SWAP3 SWAP6 POP SWAP3 SWAP6 POP SWAP3 SWAP6 JUMP JUMPDEST PUSH0 DUP2 SWAP1 POP SWAP2 SWAP1 POP JUMP JUMPDEST PUSH2 0x17A7 DUP2 PUSH2 0x1795 JUMP JUMPDEST DUP2 EQ PUSH2 0x17B1 JUMPI PUSH0 PUSH0 REVERT JUMPDEST POP JUMP JUMPDEST PUSH0 DUP2 CALLDATALOAD SWAP1 POP PUSH2 0x17C2 DUP2 PUSH2 0x179E JUMP JUMPDEST SWAP3 SWAP2 POP POP JUMP JUMPDEST PUSH0 PUSH1 0x20 DUP3 DUP5 SUB SLT ISZERO PUSH2 0x17DD JUMPI PUSH2 0x17DC PUSH2 0x15EE JUMP JUMPDEST JUMPDEST PUSH0 PUSH2 0x17EA DUP5 DUP3 DUP6 ADD PUSH2 0x17B4 JUMP JUMPDEST SWAP2 POP POP SWAP3 SWAP2 POP POP JUMP JUMPDEST PUSH0 DUP2 MLOAD SWAP1 POP SWAP2 SWAP1 POP JUMP JUMPDEST PUSH0 DUP3 DUP3 MSTORE PUSH1 0x20 DUP3 ADD SWAP1 POP SWAP3 SWAP2 POP POP JUMP JUMPDEST DUP3 DUP2 DUP4 MCOPY PUSH0 DUP4 DUP4 ADD MSTORE POP POP POP JUMP JUMPDEST PUSH0 PUSH1 0x1F NOT PUSH1 0x1F DUP4 ADD AND SWAP1 POP SWAP2 SWAP1 POP JUMP JUMPDEST PUSH0 PUSH2 0x1835 DUP3 PUSH2 0x17F3 JUMP JUMPDEST PUSH2 0x183F DUP2 DUP6 PUSH2 0x17FD JUMP JUMPDEST SWAP4 POP PUSH2 0x184F DUP2 DUP6 PUSH1 0x20 DUP7 ADD PUSH2 0x180D JUMP JUMPDEST PUSH2 0x1858 DUP2 PUSH2 0x181B JUMP JUMPDEST DUP5 ADD SWAP2 POP POP SWAP3 SWAP2 POP POP JUMP JUMPDEST PUSH0 PUSH1 0x20 DUP3 ADD SWAP1 POP DUP2 DUP2 SUB PUSH0 DUP4 ADD MSTORE PUSH2 0x187B DUP2 DUP5 PUSH2 0x182B JUMP JUMPDEST SWAP1 POP SWAP3 SWAP2 POP POP JUMP JUMPDEST PUSH0 PUSH20 0xFFFFFFFFFFFFFFFFFFFFFFFFFFFFFFFFFFFFFFFF DUP3 AND SWAP1 POP SWAP2 SWAP1 POP JUMP JUMPDEST PUSH0 DUP2 SWAP1 POP SWAP2 SWAP1 POP JUMP JUMPDEST PUSH0 PUSH2 0x18C5 PUSH2 0x18C0 PUSH2 0x18BB DUP5 PUSH2 0x1883 JUMP JUMPDEST PUSH2 0x18A2 JUMP JUMPDEST PUSH2 0x1883 JUMP JUMPDEST SWAP1 POP SWAP2 SWAP1 POP JUMP JUMPDEST PUSH0 PUSH2 0x18D6 DUP3 PUSH2 0x18AB JUMP JUMPDEST SWAP1 POP SWAP2 SWAP1 POP JUMP JUMPDEST PUSH0 PUSH2 0x18E7 DUP3 PUSH2 0x18CC JUMP JUMPDEST SWAP1 POP SWAP2 SWAP1 POP JUMP JUMPDEST PUSH2 0x18F7 DUP2 PUSH2 0x18DD JUMP JUMPDEST DUP3 MSTORE POP POP JUMP JUMPDEST PUSH0 PUSH1 0x20 DUP3 ADD SWAP1 POP PUSH2 0x1910 PUSH0 DUP4 ADD DUP5 PUSH2 0x18EE JUMP JUMPDEST SWAP3 SWAP2 POP POP JUMP JUMPDEST PUSH0 PUSH2 0x1920 DUP3 PUSH2 0x1883 JUMP JUMPDEST SWAP1 POP SWAP2 SWAP1 POP JUMP JUMPDEST PUSH2 0x1930 DUP2 PUSH2 0x1916 JUMP JUMPDEST DUP3 MSTORE POP POP JUMP JUMPDEST PUSH0 PUSH1 0x20 DUP3 ADD SWAP1 POP PUSH2 0x1949 PUSH0 DUP4 ADD DUP5 PUSH2 0x1927 JUMP JUMPDEST SWAP3 SWAP2 POP POP JUMP JUMPDEST PUSH0 DUP2 SWAP1 POP SWAP2 SWAP1 POP JUMP JUMPDEST PUSH2 0x1961 DUP2 PUSH2 0x194F JUMP JUMPDEST DUP2 EQ PUSH2 0x196B JUMPI PUSH0 PUSH0 REVERT JUMPDEST POP JUMP JUMPDEST PUSH0 DUP2 CALLDATALOAD SWAP1 POP PUSH2 0x197C DUP2 PUSH2 0x1958 JUMP JUMPDEST SWAP3 SWAP2 POP POP JUMP JUMPDEST PUSH0 PUSH0 REVERT JUMPDEST PUSH32 0x4E487B7100000000000000000000000000000000000000000000000000000000 PUSH0 MSTORE PUSH1 0x41 PUSH1 0x4 MSTORE PUSH1 0x24 PUSH0 REVERT JUMPDEST PUSH2 0x19BC DUP3 PUSH2 0x181B JUMP JUMPDEST DUP2 ADD DUP2 DUP2 LT PUSH8 0xFFFFFFFFFFFFFFFF DUP3 GT OR ISZERO PUSH2 0x19DB JUMPI PUSH2 0x19DA PUSH2 0x1986 JUMP JUMPDEST JUMPDEST DUP1 PUSH1 0x40 MSTORE POP POP POP JUMP JUMPDEST PUSH0 PUSH2 0x19ED PUSH2 0x15E5 JUMP JUMPDEST SWAP1 POP PUSH2 0x19F9 DUP3 DUP3 PUSH2 0x19B3 JUMP JUMPDEST SWAP2 SWAP1 POP JUMP JUMPDEST PUSH0 PUSH8 0xFFFFFFFFFFFFFFFF DUP3 GT ISZERO PUSH2 0x1A18 JUMPI PUSH2 0x1A17 PUSH2 0x1986 JUMP JUMPDEST JUMPDEST PUSH2 0x1A21 DUP3 PUSH2 0x181B JUMP JUMPDEST SWAP1 POP PUSH1 0x20 DUP2 ADD SWAP1 POP SWAP2 SWAP1 POP JUMP JUMPDEST DUP3 DUP2 DUP4 CALLDATACOPY PUSH0 DUP4 DUP4 ADD MSTORE POP POP POP JUMP JUMPDEST PUSH0 PUSH2 0x1A4E PUSH2 0x1A49 DUP5 PUSH2 0x19FE JUMP JUMPDEST PUSH2 0x19E4 JUMP JUMPDEST SWAP1 POP DUP3 DUP2 MSTORE PUSH1 0x20 DUP2 ADD DUP5 DUP5 DUP5 ADD GT ISZERO PUSH2 0x1A6A JUMPI PUSH2 0x1A69 PUSH2 0x1982 JUMP JUMPDEST JUMPDEST PUSH2 0x1A75 DUP5 DUP3 DUP6 PUSH2 0x1A2E JUMP JUMPDEST POP SWAP4 SWAP3 POP POP POP JUMP JUMPDEST PUSH0 DUP3 PUSH1 0x1F DUP4 ADD SLT PUSH2 0x1A91 JUMPI PUSH2 0x1A90 PUSH2 0x163C JUMP JUMPDEST JUMPDEST DUP2 CALLDATALOAD PUSH2 0x1AA1 DUP5 DUP3 PUSH1 0x20 DUP7 ADD PUSH2 0x1A3C JUMP JUMPDEST SWAP2 POP POP SWAP3 SWAP2 POP POP JUMP JUMPDEST PUSH0 PUSH0 PUSH1 0x40 DUP4 DUP6 SUB SLT ISZERO PUSH2 0x1AC0 JUMPI PUSH2 0x1ABF PUSH2 0x15EE JUMP JUMPDEST JUMPDEST PUSH0 PUSH2 0x1ACD DUP6 DUP3 DUP7 ADD PUSH2 0x196E JUMP JUMPDEST SWAP3 POP POP PUSH1 0x20 DUP4 ADD CALLDATALOAD PUSH8 0xFFFFFFFFFFFFFFFF DUP2 GT ISZERO PUSH2 0x1AEE JUMPI PUSH2 0x1AED PUSH2 0x15F2 JUMP JUMPDEST JUMPDEST PUSH2 0x1AFA DUP6 DUP3 DUP7 ADD PUSH2 0x1A7D JUMP JUMPDEST SWAP2 POP POP SWAP3 POP SWAP3 SWAP1 POP JUMP JUMPDEST PUSH0 DUP2 ISZERO ISZERO SWAP1 POP SWAP2 SWAP1 POP JUMP JUMPDEST PUSH2 0x1B18 DUP2 PUSH2 0x1B04 JUMP JUMPDEST DUP3 MSTORE POP POP JUMP JUMPDEST PUSH0 PUSH1 0x20 DUP3 ADD SWAP1 POP PUSH2 0x1B31 PUSH0 DUP4 ADD DUP5 PUSH2 0x1B0F JUMP JUMPDEST SWAP3 SWAP2 POP POP JUMP JUMPDEST PUSH0 PUSH2 0x1B41 DUP3 PUSH2 0x18CC JUMP JUMPDEST SWAP1 POP SWAP2 SWAP1 POP JUMP JUMPDEST PUSH2 0x1B51 DUP2 PUSH2 0x1B37 JUMP JUMPDEST DUP3 MSTORE POP POP JUMP JUMPDEST PUSH0 PUSH1 0x20 DUP3 ADD SWAP1 POP PUSH2 0x1B6A PUSH0 DUP4 ADD DUP5 PUSH2 0x1B48 JUMP JUMPDEST SWAP3 SWAP2 POP POP JUMP JUMPDEST PUSH0 PUSH2 0x1B7A DUP3 PUSH2 0x18CC JUMP JUMPDEST SWAP1 POP SWAP2 SWAP1 POP JUMP JUMPDEST PUSH2 0x1B8A DUP2 PUSH2 0x1B70 JUMP JUMPDEST DUP3 MSTORE POP POP JUMP JUMPDEST PUSH0 PUSH1 0x20 DUP3 ADD SWAP1 POP PUSH2 0x1BA3 PUSH0 DUP4 ADD DUP5 PUSH2 0x1B81 JUMP JUMPDEST SWAP3 SWAP2 POP POP JUMP JUMPDEST PUSH0 DUP2 MLOAD SWAP1 POP SWAP2 SWAP1 POP JUMP JUMPDEST PUSH0 DUP3 DUP3 MSTORE PUSH1 0x20 DUP3 ADD SWAP1 POP SWAP3 SWAP2 POP POP JUMP JUMPDEST PUSH0 PUSH2 0x1BCD DUP3 PUSH2 0x1BA9 JUMP JUMPDEST PUSH2 0x1BD7 DUP2 DUP6 PUSH2 0x1BB3 JUMP JUMPDEST SWAP4 POP PUSH2 0x1BE7 DUP2 DUP6 PUSH1 0x20 DUP7 ADD PUSH2 0x180D JUMP JUMPDEST PUSH2 0x1BF0 DUP2 PUSH2 0x181B JUMP JUMPDEST DUP5 ADD SWAP2 POP POP SWAP3 SWAP2 POP POP JUMP JUMPDEST PUSH0 PUSH1 0x20 DUP3 ADD SWAP1 POP DUP2 DUP2 SUB PUSH0 DUP4 ADD MSTORE PUSH2 0x1C13 DUP2 DUP5 PUSH2 0x1BC3 JUMP JUMPDEST SWAP1 POP SWAP3 SWAP2 POP POP JUMP JUMPDEST PUSH0 PUSH2 0x1C25 DUP3 PUSH2 0x18CC JUMP JUMPDEST SWAP1 POP SWAP2 SWAP1 POP JUMP JUMPDEST PUSH2 0x1C35 DUP2 PUSH2 0x1C1B JUMP JUMPDEST DUP3 MSTORE POP POP JUMP JUMPDEST PUSH0 PUSH1 0x20 DUP3 ADD SWAP1 POP PUSH2 0x1C4E PUSH0 DUP4 ADD DUP5 PUSH2 0x1C2C JUMP JUMPDEST SWAP3 SWAP2 POP POP JUMP JUMPDEST PUSH2 0x1C5D DUP2 PUSH2 0x1916 JUMP JUMPDEST DUP2 EQ PUSH2 0x1C67 JUMPI PUSH0 PUSH0 REVERT JUMPDEST POP JUMP JUMPDEST PUSH0 DUP2 CALLDATALOAD SWAP1 POP PUSH2 0x1C78 DUP2 PUSH2 0x1C54 JUMP JUMPDEST SWAP3 SWAP2 POP POP JUMP JUMPDEST PUSH0 PUSH1 0x20 DUP3 DUP5 SUB SLT ISZERO PUSH2 0x1C93 JUMPI PUSH2 0x1C92 PUSH2 0x15EE JUMP JUMPDEST JUMPDEST PUSH0 PUSH2 0x1CA0 DUP5 DUP3 DUP6 ADD PUSH2 0x1C6A JUMP JUMPDEST SWAP2 POP POP SWAP3 SWAP2 POP POP JUMP JUMPDEST PUSH0 PUSH2 0x1CB3 DUP3 PUSH2 0x18CC JUMP JUMPDEST SWAP1 POP SWAP2 SWAP1 POP JUMP JUMPDEST PUSH2 0x1CC3 DUP2 PUSH2 0x1CA9 JUMP JUMPDEST DUP3 MSTORE POP POP JUMP JUMPDEST PUSH0 PUSH1 0x20 DUP3 ADD SWAP1 POP PUSH2 0x1CDC PUSH0 DUP4 ADD DUP5 PUSH2 0x1CBA JUMP JUMPDEST SWAP3 SWAP2 POP POP JUMP JUMPDEST PUSH0 PUSH1 0x20 DUP3 DUP5 SUB SLT ISZERO PUSH2 0x1CF7 JUMPI PUSH2 0x1CF6 PUSH2 0x15EE JUMP JUMPDEST JUMPDEST PUSH0 PUSH2 0x1D04 DUP5 DUP3 DUP6 ADD PUSH2 0x196E JUMP JUMPDEST SWAP2 POP POP SWAP3 SWAP2 POP POP JUMP JUMPDEST PUSH2 0x1D16 DUP2 PUSH2 0x194F JUMP JUMPDEST DUP3 MSTORE POP POP JUMP JUMPDEST PUSH0 PUSH1 0x20 DUP3 ADD SWAP1 POP PUSH2 0x1D2F PUSH0 DUP4 ADD DUP5 PUSH2 0x1D0D JUMP JUMPDEST SWAP3 SWAP2 POP POP JUMP JUMPDEST DUP3 DUP2 DUP4 CALLDATACOPY POP POP POP JUMP JUMPDEST PUSH2 0x1D4B PUSH2 0x100 DUP4 DUP4 PUSH2 0x1D35 JUMP JUMPDEST POP POP JUMP JUMPDEST PUSH2 0x1D5B PUSH1 0xC0 DUP4 DUP4 PUSH2 0x1D35 JUMP JUMPDEST POP POP JUMP JUMPDEST PUSH0 PUSH2 0x1C0 DUP3 ADD SWAP1 POP PUSH2 0x1D73 PUSH0 DUP4 ADD DUP6 PUSH2 0x1D3E JUMP JUMPDEST PUSH2 0x1D81 PUSH2 0x100 DUP4 ADD DUP5 PUSH2 0x1D4F JUMP JUMPDEST SWAP4 SWAP3 POP POP POP JUMP JUMPDEST PUSH32 0x4E487B7100000000000000000000000000000000000000000000000000000000 PUSH0 MSTORE PUSH1 0x32 PUSH1 0x4 MSTORE PUSH1 0x24 PUSH0 REVERT JUMPDEST PUSH32 0x57726F6E672064657374696E6174696F6E20636861696E000000000000000000 PUSH0 DUP3 ADD MSTORE POP JUMP JUMPDEST PUSH0 PUSH2 0x1DE9 PUSH1 0x17 DUP4 PUSH2 0x1BB3 JUMP JUMPDEST SWAP2 POP PUSH2 0x1DF4 DUP3 PUSH2 0x1DB5 JUMP JUMPDEST PUSH1 0x20 DUP3 ADD SWAP1 POP SWAP2 SWAP1 POP JUMP JUMPDEST PUSH0 PUSH1 0x20 DUP3 ADD SWAP1 POP DUP2 DUP2 SUB PUSH0 DUP4 ADD MSTORE PUSH2 0x1E16 DUP2 PUSH2 0x1DDD JUMP JUMPDEST SWAP1 POP SWAP2 SWAP1 POP JUMP JUMPDEST PUSH32 0x5265706C61792061747461636B20646574656374656400000000000000000000 PUSH0 DUP3 ADD MSTORE POP JUMP JUMPDEST PUSH0 PUSH2 0x1E51 PUSH1 0x16 DUP4 PUSH2 0x1BB3 JUMP JUMPDEST SWAP2 POP PUSH2 0x1E5C DUP3 PUSH2 0x1E1D JUMP JUMPDEST PUSH1 0x20 DUP3 ADD SWAP1 POP SWAP2 SWAP1 POP JUMP JUMPDEST PUSH0 PUSH1 0x20 DUP3 ADD SWAP1 POP DUP2 DUP2 SUB PUSH0 DUP4 ADD MSTORE PUSH2 0x1E7E DUP2 PUSH2 0x1E45 JUMP JUMPDEST SWAP1 POP SWAP2 SWAP1 POP JUMP JUMPDEST PUSH0 DUP2 SWAP1 POP SWAP2 SWAP1 POP JUMP JUMPDEST PUSH2 0x1E9F PUSH2 0x1E9A DUP3 PUSH2 0x1795 JUMP JUMPDEST PUSH2 0x1E85 JUMP JUMPDEST DUP3 MSTORE POP POP JUMP JUMPDEST PUSH0 PUSH2 0x1EB0 DUP3 DUP5 PUSH2 0x1E8E JUMP JUMPDEST PUSH1 0x20 DUP3 ADD SWAP2 POP DUP2 SWAP1 POP SWAP3 SWAP2 POP POP JUMP JUMPDEST PUSH32 0x496E76616C6964207369676E6174757265206C656E6774680000000000000000 PUSH0 DUP3 ADD MSTORE POP JUMP JUMPDEST PUSH0 PUSH2 0x1EF3 PUSH1 0x18 DUP4 PUSH2 0x1BB3 JUMP JUMPDEST SWAP2 POP PUSH2 0x1EFE DUP3 PUSH2 0x1EBF JUMP JUMPDEST PUSH1 0x20 DUP3 ADD SWAP1 POP SWAP2 SWAP1 POP JUMP JUMPDEST PUSH0 PUSH1 0x20 DUP3 ADD SWAP1 POP DUP2 DUP2 SUB PUSH0 DUP4 ADD MSTORE PUSH2 0x1F20 DUP2 PUSH2 0x1EE7 JUMP JUMPDEST SWAP1 POP SWAP2 SWAP1 POP JUMP JUMPDEST PUSH0 PUSH1 0xFF DUP3 AND SWAP1 POP SWAP2 SWAP1 POP JUMP JUMPDEST PUSH2 0x1F3C DUP2 PUSH2 0x1F27 JUMP JUMPDEST DUP3 MSTORE POP POP JUMP JUMPDEST PUSH0 PUSH1 0x80 DUP3 ADD SWAP1 POP PUSH2 0x1F55 PUSH0 DUP4 ADD DUP8 PUSH2 0x1D0D JUMP JUMPDEST PUSH2 0x1F62 PUSH1 0x20 DUP4 ADD DUP7 PUSH2 0x1F33 JUMP JUMPDEST PUSH2 0x1F6F PUSH1 0x40 DUP4 ADD DUP6 PUSH2 0x1D0D JUMP JUMPDEST PUSH2 0x1F7C PUSH1 0x60 DUP4 ADD DUP5 PUSH2 0x1D0D JUMP JUMPDEST SWAP6 SWAP5 POP POP POP POP POP JUMP JUMPDEST PUSH0 PUSH1 0x60 DUP3 ADD SWAP1 POP DUP2 DUP2 SUB PUSH0 DUP4 ADD MSTORE PUSH2 0x1F9D DUP2 DUP7 PUSH2 0x1BC3 JUMP JUMPDEST SWAP1 POP DUP2 DUP2 SUB PUSH1 0x20 DUP4 ADD MSTORE PUSH2 0x1FB1 DUP2 DUP6 PUSH2 0x1BC3 JUMP JUMPDEST SWAP1 POP DUP2 DUP2 SUB PUSH1 0x40 DUP4 ADD MSTORE PUSH2 0x1FC5 DUP2 DUP5 PUSH2 0x182B JUMP JUMPDEST SWAP1 POP SWAP5 SWAP4 POP POP POP POP JUMP JUMPDEST PUSH32 0x4E487B7100000000000000000000000000000000000000000000000000000000 PUSH0 MSTORE PUSH1 0x11 PUSH1 0x4 MSTORE PUSH1 0x24 PUSH0 REVERT JUMPDEST PUSH0 PUSH2 0x2006 DUP3 PUSH2 0x1F27 JUMP JUMPDEST SWAP2 POP PUSH1 0xFF DUP3 SUB PUSH2 0x2019 JUMPI PUSH2 0x2018 PUSH2 0x1FCF JUMP JUMPDEST JUMPDEST PUSH1 0x1 DUP3 ADD SWAP1 POP SWAP2 SWAP1 POP JUMP JUMPDEST PUSH0 PUSH2 0x202E DUP3 PUSH2 0x1F27 JUMP JUMPDEST SWAP2 POP PUSH0 DUP3 SUB PUSH2 0x2040 JUMPI PUSH2 0x203F PUSH2 0x1FCF JUMP JUMPDEST JUMPDEST PUSH1 0x1 DUP3 SUB SWAP1 POP SWAP2 SWAP1 POP JUMP JUMPDEST PUSH0 PUSH2 0x2055 DUP3 PUSH2 0x1F27 JUMP JUMPDEST SWAP2 POP PUSH2 0x2060 DUP4 PUSH2 0x1F27 JUMP JUMPDEST SWAP3 POP DUP3 DUP3 SUB SWAP1 POP PUSH1 0xFF DUP2 GT ISZERO PUSH2 0x2079 JUMPI PUSH2 0x2078 PUSH2 0x1FCF JUMP JUMPDEST JUMPDEST SWAP3 SWAP2 POP POP JUMP JUMPDEST PUSH0 PUSH2 0x2089 DUP3 PUSH2 0x1F27 JUMP JUMPDEST SWAP2 POP PUSH2 0x2094 DUP4 PUSH2 0x1F27 JUMP JUMPDEST SWAP3 POP DUP3 DUP3 ADD SWAP1 POP PUSH1 0xFF DUP2 GT ISZERO PUSH2 0x20AD JUMPI PUSH2 0x20AC PUSH2 0x1FCF JUMP JUMPDEST JUMPDEST SWAP3 SWAP2 POP POP JUMP JUMPDEST PUSH0 PUSH2 0x20BD DUP3 PUSH2 0x1795 JUMP JUMPDEST SWAP2 POP PUSH2 0x20C8 DUP4 PUSH2 0x1795 JUMP JUMPDEST SWAP3 POP DUP3 DUP3 ADD SWAP1 POP DUP1 DUP3 GT ISZERO PUSH2 0x20E0 JUMPI PUSH2 0x20DF PUSH2 0x1FCF JUMP JUMPDEST JUMPDEST SWAP3 SWAP2 POP POP JUMP JUMPDEST PUSH2 0x20EF DUP2 PUSH2 0x1795 JUMP JUMPDEST DUP3 MSTORE POP POP JUMP JUMPDEST PUSH0 PUSH1 0x80 DUP3 ADD SWAP1 POP PUSH2 0x2108 PUSH0 DUP4 ADD DUP8 PUSH2 0x1927 JUMP JUMPDEST DUP2 DUP2 SUB PUSH1 0x20 DUP4 ADD MSTORE PUSH2 0x211A DUP2 DUP7 PUSH2 0x1BC3 JUMP JUMPDEST SWAP1 POP PUSH2 0x2129 PUSH1 0x40 DUP4 ADD DUP6 PUSH2 0x20E6 JUMP JUMPDEST PUSH2 0x2136 PUSH1 0x60 DUP4 ADD DUP5 PUSH2 0x20E6 JUMP JUMPDEST SWAP6 SWAP5 POP POP POP POP POP JUMP JUMPDEST PUSH0 DUP2 SWAP1 POP SWAP3 SWAP2 POP POP JUMP JUMPDEST PUSH32 0x19457468657265756D205369676E6564204D6573736167653A0A333200000000 PUSH0 DUP3 ADD MSTORE POP JUMP JUMPDEST PUSH0 PUSH2 0x217D PUSH1 0x1C DUP4 PUSH2 0x213F JUMP JUMPDEST SWAP2 POP PUSH2 0x2188 DUP3 PUSH2 0x2149 JUMP JUMPDEST PUSH1 0x1C DUP3 ADD SWAP1 POP SWAP2 SWAP1 POP JUMP JUMPDEST PUSH0 DUP2 SWAP1 POP SWAP2 SWAP1 POP JUMP JUMPDEST PUSH2 0x21AD PUSH2 0x21A8 DUP3 PUSH2 0x194F JUMP JUMPDEST PUSH2 0x2193 JUMP JUMPDEST DUP3 MSTORE POP POP JUMP JUMPDEST PUSH0 PUSH2 0x21BD DUP3 PUSH2 0x2171 JUMP JUMPDEST SWAP2 POP PUSH2 0x21C9 DUP3 DUP5 PUSH2 0x219C JUMP JUMPDEST PUSH1 0x20 DUP3 ADD SWAP2 POP DUP2 SWAP1 POP SWAP3 SWAP2 POP POP JUMP JUMPDEST PUSH0 PUSH2 0x21E3 DUP3 DUP9 PUSH2 0x1E8E JUMP JUMPDEST PUSH1 0x20 DUP3 ADD SWAP2 POP PUSH2 0x21F3 DUP3 DUP8 PUSH2 0x1E8E JUMP JUMPDEST PUSH1 0x20 DUP3 ADD SWAP2 POP PUSH2 0x2203 DUP3 DUP7 PUSH2 0x1E8E JUMP JUMPDEST PUSH1 0x20 DUP3 ADD SWAP2 POP PUSH2 0x2213 DUP3 DUP6 PUSH2 0x1E8E JUMP JUMPDEST PUSH1 0x20 DUP3 ADD SWAP2 POP PUSH2 0x2223 DUP3 DUP5 PUSH2 0x1E8E JUMP JUMPDEST PUSH1 0x20 DUP3 ADD SWAP2 POP DUP2 SWAP1 POP SWAP7 SWAP6 POP POP POP POP POP POP JUMP JUMPDEST PUSH0 PUSH8 0xFFFFFFFFFFFFFFFF DUP3 GT ISZERO PUSH2 0x2250 JUMPI PUSH2 0x224F PUSH2 0x1986 JUMP JUMPDEST JUMPDEST PUSH1 0x20 DUP3 MUL SWAP1 POP PUSH1 0x20 DUP2 ADD SWAP1 POP SWAP2 SWAP1 POP JUMP JUMPDEST PUSH0 DUP2 MLOAD SWAP1 POP PUSH2 0x226F DUP2 PUSH2 0x1C54 JUMP JUMPDEST SWAP3 SWAP2 POP POP JUMP JUMPDEST PUSH0 PUSH2 0x2287 PUSH2 0x2282 DUP5 PUSH2 0x2236 JUMP JUMPDEST PUSH2 0x19E4 JUMP JUMPDEST SWAP1 POP DUP1 DUP4 DUP3 MSTORE PUSH1 0x20 DUP3 ADD SWAP1 POP PUSH1 0x20 DUP5 MUL DUP4 ADD DUP6 DUP2 GT ISZERO PUSH2 0x22AA JUMPI PUSH2 0x22A9 PUSH2 0x15F6 JUMP JUMPDEST JUMPDEST DUP4 JUMPDEST DUP2 DUP2 LT ISZERO PUSH2 0x22D3 JUMPI DUP1 PUSH2 0x22BF DUP9 DUP3 PUSH2 0x2261 JUMP JUMPDEST DUP5 MSTORE PUSH1 0x20 DUP5 ADD SWAP4 POP POP PUSH1 0x20 DUP2 ADD SWAP1 POP PUSH2 0x22AC JUMP JUMPDEST POP POP POP SWAP4 SWAP3 POP POP POP JUMP JUMPDEST PUSH0 DUP3 PUSH1 0x1F DUP4 ADD SLT PUSH2 0x22F1 JUMPI PUSH2 0x22F0 PUSH2 0x163C JUMP JUMPDEST JUMPDEST DUP2 MLOAD PUSH2 0x2301 DUP5 DUP3 PUSH1 0x20 DUP7 ADD PUSH2 0x2275 JUMP JUMPDEST SWAP2 POP POP SWAP3 SWAP2 POP POP JUMP JUMPDEST PUSH0 PUSH1 0x20 DUP3 DUP5 SUB SLT ISZERO PUSH2 0x231F JUMPI PUSH2 0x231E PUSH2 0x15EE JUMP JUMPDEST JUMPDEST PUSH0 DUP3 ADD MLOAD PUSH8 0xFFFFFFFFFFFFFFFF DUP2 GT ISZERO PUSH2 0x233C JUMPI PUSH2 0x233B PUSH2 0x15F2 JUMP JUMPDEST JUMPDEST PUSH2 0x2348 DUP5 DUP3 DUP6 ADD PUSH2 0x22DD JUMP JUMPDEST SWAP2 POP POP SWAP3 SWAP2 POP POP JUMP JUMPDEST PUSH0 PUSH2 0x235B DUP3 PUSH2 0x1795 JUMP JUMPDEST SWAP2 POP PUSH2 0x2366 DUP4 PUSH2 0x1795 JUMP JUMPDEST SWAP3 POP DUP3 DUP3 MUL PUSH2 0x2374 DUP2 PUSH2 0x1795 JUMP JUMPDEST SWAP2 POP DUP3 DUP3 DIV DUP5 EQ DUP4 ISZERO OR PUSH2 0x238B JUMPI PUSH2 0x238A PUSH2 0x1FCF JUMP JUMPDEST JUMPDEST POP SWAP3 SWAP2 POP POP JUMP JUMPDEST PUSH0 PUSH0 REVERT JUMPDEST PUSH0 PUSH0 REVERT JUMPDEST PUSH0 PUSH0 DUP6 DUP6 GT ISZERO PUSH2 0x23AD JUMPI PUSH2 0x23AC PUSH2 0x2392 JUMP JUMPDEST JUMPDEST DUP4 DUP7 GT ISZERO PUSH2 0x23BE JUMPI PUSH2 0x23BD PUSH2 0x2396 JUMP JUMPDEST JUMPDEST PUSH1 0x1 DUP6 MUL DUP4 ADD SWAP2 POP DUP5 DUP7 SUB SWAP1 POP SWAP5 POP SWAP5 SWAP3 POP POP POP JUMP JUMPDEST PUSH32 0x496E76616C6964207369676E6174757265000000000000000000000000000000 PUSH0 DUP3 ADD MSTORE POP JUMP JUMPDEST PUSH0 PUSH2 0x2408 PUSH1 0x11 DUP4 PUSH2 0x1BB3 JUMP JUMPDEST SWAP2 POP PUSH2 0x2413 DUP3 PUSH2 0x23D4 JUMP JUMPDEST PUSH1 0x20 DUP3 ADD SWAP1 POP SWAP2 SWAP1 POP JUMP JUMPDEST PUSH0 PUSH1 0x20 DUP3 ADD SWAP1 POP DUP2 DUP2 SUB PUSH0 DUP4 ADD MSTORE PUSH2 0x2435 DUP2 PUSH2 0x23FC JUMP JUMPDEST SWAP1 POP SWAP2 SWAP1 POP JUMP JUMPDEST PUSH32 0x5369676E6572206E6F7420616E206163746976652076616C696461746F720000 PUSH0 DUP3 ADD MSTORE POP JUMP JUMPDEST PUSH0 PUSH2 0x2470 PUSH1 0x1E DUP4 PUSH2 0x1BB3 JUMP JUMPDEST SWAP2 POP PUSH2 0x247B DUP3 PUSH2 0x243C JUMP JUMPDEST PUSH1 0x20 DUP3 ADD SWAP1 POP SWAP2 SWAP1 POP JUMP JUMPDEST PUSH0 PUSH1 0x20 DUP3 ADD SWAP1 POP DUP2 DUP2 SUB PUSH0 DUP4 ADD MSTORE PUSH2 0x249D DUP2 PUSH2 0x2464 JUMP JUMPDEST SWAP1 POP SWAP2 SWAP1 POP JUMP JUMPDEST PUSH0 PUSH2 0x24AF DUP3 DUP10 PUSH2 0x1E8E JUMP JUMPDEST PUSH1 0x20 DUP3 ADD SWAP2 POP PUSH2 0x24BF DUP3 DUP9 PUSH2 0x1E8E JUMP JUMPDEST PUSH1 0x20 DUP3 ADD SWAP2 POP PUSH2 0x24CF DUP3 DUP8 PUSH2 0x1E8E JUMP JUMPDEST PUSH1 0x20 DUP3 ADD SWAP2 POP PUSH2 0x24DF DUP3 DUP7 PUSH2 0x1E8E JUMP JUMPDEST PUSH1 0x20 DUP3 ADD SWAP2 POP PUSH2 0x24EF DUP3 DUP6 PUSH2 0x1E8E JUMP JUMPDEST PUSH1 0x20 DUP3 ADD SWAP2 POP PUSH2 0x24FF DUP3 DUP5 PUSH2 0x1E8E JUMP JUMPDEST PUSH1 0x20 DUP3 ADD SWAP2 POP DUP2 SWAP1 POP SWAP8 SWAP7 POP POP POP POP POP POP POP JUMP JUMPDEST PUSH0 PUSH2 0x251D DUP3 PUSH2 0x1BA9 JUMP JUMPDEST PUSH2 0x2527 DUP2 DUP6 PUSH2 0x213F JUMP JUMPDEST SWAP4 POP PUSH2 0x2537 DUP2 DUP6 PUSH1 0x20 DUP7 ADD PUSH2 0x180D JUMP JUMPDEST DUP1 DUP5 ADD SWAP2 POP POP SWAP3 SWAP2 POP POP JUMP JUMPDEST PUSH32 0x5F7661756C740000000000000000000000000000000000000000000000000000 PUSH0 DUP3 ADD MSTORE POP JUMP JUMPDEST PUSH0 PUSH2 0x2577 PUSH1 0x6 DUP4 PUSH2 0x213F JUMP JUMPDEST SWAP2 POP PUSH2 0x2582 DUP3 PUSH2 0x2543 JUMP JUMPDEST PUSH1 0x6 DUP3 ADD SWAP1 POP SWAP2 SWAP1 POP JUMP JUMPDEST PUSH0 PUSH2 0x2598 DUP3 DUP5 PUSH2 0x2513 JUMP JUMPDEST SWAP2 POP PUSH2 0x25A3 DUP3 PUSH2 0x256B JUMP JUMPDEST SWAP2 POP DUP2 SWAP1 POP SWAP3 SWAP2 POP POP JUMP JUMPDEST PUSH32 0x5169617261426173654173736574730000000000000000000000000000000000 PUSH0 DUP3 ADD MSTORE POP JUMP JUMPDEST PUSH0 PUSH2 0x25E2 PUSH1 0xF DUP4 PUSH2 0x1BB3 JUMP JUMPDEST SWAP2 POP PUSH2 0x25ED DUP3 PUSH2 0x25AE JUMP JUMPDEST PUSH1 0x20 DUP3 ADD SWAP1 POP SWAP2 SWAP1 POP JUMP JUMPDEST PUSH0 PUSH1 0x40 DUP3 ADD SWAP1 POP DUP2 DUP2 SUB PUSH0 DUP4 ADD MSTORE PUSH2 0x260F DUP2 PUSH2 0x25D6 JUMP JUMPDEST SWAP1 POP DUP2 DUP2 SUB PUSH1 0x20 DUP4 ADD MSTORE PUSH2 0x2623 DUP2 DUP5 PUSH2 0x1BC3 JUMP JUMPDEST SWAP1 POP SWAP3 SWAP2 POP POP JUMP JUMPDEST PUSH0 PUSH2 0x263D PUSH2 0x2638 DUP5 PUSH2 0x19FE JUMP JUMPDEST PUSH2 0x19E4 JUMP JUMPDEST SWAP1 POP DUP3 DUP2 MSTORE PUSH1 0x20 DUP2 ADD DUP5 DUP5 DUP5 ADD GT ISZERO PUSH2 0x2659 JUMPI PUSH2 0x2658 PUSH2 0x1982 JUMP JUMPDEST JUMPDEST PUSH2 0x2664 DUP5 DUP3 DUP6 PUSH2 0x180D JUMP JUMPDEST POP SWAP4 SWAP3 POP POP POP JUMP JUMPDEST PUSH0 DUP3 PUSH1 0x1F DUP4 ADD SLT PUSH2 0x2680 JUMPI PUSH2 0x267F PUSH2 0x163C JUMP JUMPDEST JUMPDEST DUP2 MLOAD PUSH2 0x2690 DUP5 DUP3 PUSH1 0x20 DUP7 ADD PUSH2 0x262B JUMP JUMPDEST SWAP2 POP POP SWAP3 SWAP2 POP POP JUMP JUMPDEST PUSH0 PUSH1 0x20 DUP3 DUP5 SUB SLT ISZERO PUSH2 0x26AE JUMPI PUSH2 0x26AD PUSH2 0x15EE JUMP JUMPDEST JUMPDEST PUSH0 DUP3 ADD MLOAD PUSH8 0xFFFFFFFFFFFFFFFF DUP2 GT ISZERO PUSH2 0x26CB JUMPI PUSH2 0x26CA PUSH2 0x15F2 JUMP JUMPDEST JUMPDEST PUSH2 0x26D7 DUP5 DUP3 DUP6 ADD PUSH2 0x266C JUMP JUMPDEST SWAP2 POP POP SWAP3 SWAP2 POP POP JUMP JUMPDEST PUSH32 0x5661756C74206E6F7420617574686F72697A6564000000000000000000000000 PUSH0 DUP3 ADD MSTORE POP JUMP JUMPDEST PUSH0 PUSH2 0x2714 PUSH1 0x14 DUP4 PUSH2 0x1BB3 JUMP JUMPDEST SWAP2 POP PUSH2 0x271F DUP3 PUSH2 0x26E0 JUMP JUMPDEST PUSH1 0x20 DUP3 ADD SWAP1 POP SWAP2 SWAP1 POP JUMP JUMPDEST PUSH0 PUSH1 0x20 DUP3 ADD SWAP1 POP DUP2 DUP2 SUB PUSH0 DUP4 ADD MSTORE PUSH2 0x2741 DUP2 PUSH2 0x2708 JUMP JUMPDEST SWAP1 POP SWAP2 SWAP1 POP JUMP JUMPDEST PUSH0 PUSH2 0x2752 DUP3 PUSH2 0x1883 JUMP JUMPDEST SWAP1 POP SWAP2 SWAP1 POP JUMP JUMPDEST PUSH2 0x2762 DUP2 PUSH2 0x2748 JUMP JUMPDEST DUP2 EQ PUSH2 0x276C JUMPI PUSH0 PUSH0 REVERT JUMPDEST POP JUMP JUMPDEST PUSH0 DUP2 MLOAD SWAP1 POP PUSH2 0x277D DUP2 PUSH2 0x2759 JUMP JUMPDEST SWAP3 SWAP2 POP POP JUMP JUMPDEST PUSH0 PUSH1 0x20 DUP3 DUP5 SUB SLT ISZERO PUSH2 0x2798 JUMPI PUSH2 0x2797 PUSH2 0x15EE JUMP JUMPDEST JUMPDEST PUSH0 PUSH2 0x27A5 DUP5 DUP3 DUP6 ADD PUSH2 0x276F JUMP JUMPDEST SWAP2 POP POP SWAP3 SWAP2 POP POP JUMP INVALID LOG2 PUSH5 0x6970667358 0x22 SLT KECCAK256 RETURN 0xA5 AND EXTDELEGATECALL 0xD6 LOG0 ISZERO PUSH20 0x2A886668ACBA585460E037BAD4F4997B538E7F94 0xCE CALLER PUSH2 0x4364 PUSH20 0x6F6C634300081F00330000000000000000000000 "
		},
		"gasEstimates": {
			"creation": {
				"codeDepositCost": "2042400",
				"executionCost": "infinite",
				"totalCost": "infinite"
			},
			"external": {
				"balance_verifier()": "infinite",
				"fieldToAddress(uint256)": "664",
				"fieldToBytes(uint256)": "infinite",
				"fieldToString(uint256)": "infinite",
				"getEthSignedMessageHash(bytes32)": "infinite",
				"owner()": "2559",
				"processZkValidator(uint256[8],uint256[6],address[],bytes)": "infinite",
				"processZkVariable(uint256[8],uint256[6],address[],bytes)": "infinite",
				"processZkWithdraw(uint256[8],uint256[6],address[],bytes)": "infinite",
				"recoverSigner(bytes32,bytes)": "infinite",
				"renounceOwnership()": "infinite",
				"transferOwnership(address)": "infinite",
				"usedNullifiers(uint256)": "2808",
				"validator_verifier()": "infinite",
				"validatorsRegistry()": "infinite",
				"variable_verifier()": "infinite",
				"variablesRegistry()": "infinite"
			},
			"internal": {
				"_calculateNullifier6(uint256[6] calldata)": "infinite",
				"_calculateNullifier8(uint256[6] calldata)": "infinite",
				"_prepareWithdrawal(uint256[6] calldata)": "infinite",
				"_verifyAllSignatures(bytes32,address[] calldata,bytes calldata)": "infinite"
			}
		},
		"methodIdentifiers": {
			"balance_verifier()": "f90c0f40",
			"fieldToAddress(uint256)": "7a988c54",
			"fieldToBytes(uint256)": "19b8c941",
			"fieldToString(uint256)": "b648f220",
			"getEthSignedMessageHash(bytes32)": "fa540801",
			"owner()": "8da5cb5b",
			"processZkValidator(uint256[8],uint256[6],address[],bytes)": "00dc2234",
			"processZkVariable(uint256[8],uint256[6],address[],bytes)": "aab7f953",
			"processZkWithdraw(uint256[8],uint256[6],address[],bytes)": "bd846ee7",
			"recoverSigner(bytes32,bytes)": "97aba7f9",
			"renounceOwnership()": "715018a6",
			"transferOwnership(address)": "f2fde38b",
			"usedNullifiers(uint256)": "aad24061",
			"validator_verifier()": "b3d63003",
			"validatorsRegistry()": "aed881d8",
			"variable_verifier()": "4eb30d41",
			"variablesRegistry()": "bf4d766e"
		}
	},
	"abi": [
		{
			"inputs": [
				{
					"internalType": "address",
					"name": "_balance_verifier",
					"type": "address"
				},
				{
					"internalType": "address",
					"name": "_variable_verifier",
					"type": "address"
				},
				{
					"internalType": "address",
					"name": "_validator_verifier",
					"type": "address"
				},
				{
					"internalType": "address",
					"name": "_variablesRegistry",
					"type": "address"
				},
				{
					"internalType": "address",
					"name": "_validatorsRegistry",
					"type": "address"
				}
			],
			"stateMutability": "nonpayable",
			"type": "constructor"
		},
		{
			"inputs": [
				{
					"internalType": "address",
					"name": "owner",
					"type": "address"
				}
			],
			"name": "OwnableInvalidOwner",
			"type": "error"
		},
		{
			"inputs": [
				{
					"internalType": "address",
					"name": "account",
					"type": "address"
				}
			],
			"name": "OwnableUnauthorizedAccount",
			"type": "error"
		},
		{
			"anonymous": false,
			"inputs": [
				{
					"indexed": true,
					"internalType": "address",
					"name": "previousOwner",
					"type": "address"
				},
				{
					"indexed": true,
					"internalType": "address",
					"name": "newOwner",
					"type": "address"
				}
			],
			"name": "OwnershipTransferred",
			"type": "event"
		},
		{
			"inputs": [],
			"name": "balance_verifier",
			"outputs": [
				{
					"internalType": "contract IBalanceVerifier",
					"name": "",
					"type": "address"
				}
			],
			"stateMutability": "view",
			"type": "function"
		},
		{
			"inputs": [
				{
					"internalType": "uint256",
					"name": "_field",
					"type": "uint256"
				}
			],
			"name": "fieldToAddress",
			"outputs": [
				{
					"internalType": "address",
					"name": "",
					"type": "address"
				}
			],
			"stateMutability": "pure",
			"type": "function"
		},
		{
			"inputs": [
				{
					"internalType": "uint256",
					"name": "_field",
					"type": "uint256"
				}
			],
			"name": "fieldToBytes",
			"outputs": [
				{
					"internalType": "bytes",
					"name": "",
					"type": "bytes"
				}
			],
			"stateMutability": "pure",
			"type": "function"
		},
		{
			"inputs": [
				{
					"internalType": "uint256",
					"name": "_field",
					"type": "uint256"
				}
			],
			"name": "fieldToString",
			"outputs": [
				{
					"internalType": "string",
					"name": "",
					"type": "string"
				}
			],
			"stateMutability": "pure",
			"type": "function"
		},
		{
			"inputs": [
				{
					"internalType": "bytes32",
					"name": "_messageHash",
					"type": "bytes32"
				}
			],
			"name": "getEthSignedMessageHash",
			"outputs": [
				{
					"internalType": "bytes32",
					"name": "",
					"type": "bytes32"
				}
			],
			"stateMutability": "pure",
			"type": "function"
		},
		{
			"inputs": [],
			"name": "owner",
			"outputs": [
				{
					"internalType": "address",
					"name": "",
					"type": "address"
				}
			],
			"stateMutability": "view",
			"type": "function"
		},
		{
			"inputs": [
				{
					"internalType": "uint256[8]",
					"name": "proof",
					"type": "uint256[8]"
				},
				{
					"internalType": "uint256[6]",
					"name": "input",
					"type": "uint256[6]"
				},
				{
					"internalType": "address[]",
					"name": "validators",
					"type": "address[]"
				},
				{
					"internalType": "bytes",
					"name": "_signatures",
					"type": "bytes"
				}
			],
			"name": "processZkValidator",
			"outputs": [],
			"stateMutability": "nonpayable",
			"type": "function"
		},
		{
			"inputs": [
				{
					"internalType": "uint256[8]",
					"name": "proof",
					"type": "uint256[8]"
				},
				{
					"internalType": "uint256[6]",
					"name": "input",
					"type": "uint256[6]"
				},
				{
					"internalType": "address[]",
					"name": "validators",
					"type": "address[]"
				},
				{
					"internalType": "bytes",
					"name": "_signatures",
					"type": "bytes"
				}
			],
			"name": "processZkVariable",
			"outputs": [],
			"stateMutability": "nonpayable",
			"type": "function"
		},
		{
			"inputs": [
				{
					"internalType": "uint256[8]",
					"name": "proof",
					"type": "uint256[8]"
				},
				{
					"internalType": "uint256[6]",
					"name": "input",
					"type": "uint256[6]"
				},
				{
					"internalType": "address[]",
					"name": "validators",
					"type": "address[]"
				},
				{
					"internalType": "bytes",
					"name": "_signatures",
					"type": "bytes"
				}
			],
			"name": "processZkWithdraw",
			"outputs": [],
			"stateMutability": "nonpayable",
			"type": "function"
		},
		{
			"inputs": [
				{
					"internalType": "bytes32",
					"name": "_ethSignedMessageHash",
					"type": "bytes32"
				},
				{
					"internalType": "bytes",
					"name": "_signature",
					"type": "bytes"
				}
			],
			"name": "recoverSigner",
			"outputs": [
				{
					"internalType": "address",
					"name": "",
					"type": "address"
				}
			],
			"stateMutability": "pure",
			"type": "function"
		},
		{
			"inputs": [],
			"name": "renounceOwnership",
			"outputs": [],
			"stateMutability": "nonpayable",
			"type": "function"
		},
		{
			"inputs": [
				{
					"internalType": "address",
					"name": "newOwner",
					"type": "address"
				}
			],
			"name": "transferOwnership",
			"outputs": [],
			"stateMutability": "nonpayable",
			"type": "function"
		},
		{
			"inputs": [
				{
					"internalType": "uint256",
					"name": "",
					"type": "uint256"
				}
			],
			"name": "usedNullifiers",
			"outputs": [
				{
					"internalType": "bool",
					"name": "",
					"type": "bool"
				}
			],
			"stateMutability": "view",
			"type": "function"
		},
		{
			"inputs": [],
			"name": "validator_verifier",
			"outputs": [
				{
					"internalType": "contract IValidatorVerifier",
					"name": "",
					"type": "address"
				}
			],
			"stateMutability": "view",
			"type": "function"
		},
		{
			"inputs": [],
			"name": "validatorsRegistry",
			"outputs": [
				{
					"internalType": "contract IValidators",
					"name": "",
					"type": "address"
				}
			],
			"stateMutability": "view",
			"type": "function"
		},
		{
			"inputs": [],
			"name": "variable_verifier",
			"outputs": [
				{
					"internalType": "contract IVariableVerifier",
					"name": "",
					"type": "address"
				}
			],
			"stateMutability": "view",
			"type": "function"
		},
		{
			"inputs": [],
			"name": "variablesRegistry",
			"outputs": [
				{
					"internalType": "contract IVariables",
					"name": "",
					"type": "address"
				}
			],
			"stateMutability": "view",
			"type": "function"
		}
	]
}