{
	"data": {
		"bytecode": {
			"linkReferences": {},
			"object": "610120604052348015610010575f5ffd5b50604051613032380380613032833981810160405281019061003291906102e1565b335f73ffffffffffffffffffffffffffffffffffffffff168173ffffffffffffffffffffffffffffffffffffffff16036100a3575f6040517f1e4fbdf700000000000000000000000000000000000000000000000000000000815260040161009a9190610367565b60405180910390fd5b6100b2816101c260201b60201c565b508473ffffffffffffffffffffffffffffffffffffffff1660808173ffffffffffffffffffffffffffffffffffffffff16815250508373ffffffffffffffffffffffffffffffffffffffff1660a08173ffffffffffffffffffffffffffffffffffffffff16815250508273ffffffffffffffffffffffffffffffffffffffff1660c08173ffffffffffffffffffffffffffffffffffffffff16815250508173ffffffffffffffffffffffffffffffffffffffff1660e08173ffffffffffffffffffffffffffffffffffffffff16815250508073ffffffffffffffffffffffffffffffffffffffff166101008173ffffffffffffffffffffffffffffffffffffffff16815250505050505050610380565b5f5f5f9054906101000a900473ffffffffffffffffffffffffffffffffffffffff169050815f5f6101000a81548173ffffffffffffffffffffffffffffffffffffffff021916908373ffffffffffffffffffffffffffffffffffffffff1602179055508173ffffffffffffffffffffffffffffffffffffffff168173ffffffffffffffffffffffffffffffffffffffff167f8be0079c531659141344cd1fd0a4f28419497f9722a3daafe3b4186f6b6457e060405160405180910390a35050565b5f5ffd5b5f73ffffffffffffffffffffffffffffffffffffffff82169050919050565b5f6102b082610287565b9050919050565b6102c0816102a6565b81146102ca575f5ffd5b50565b5f815190506102db816102b7565b92915050565b5f5f5f5f5f60a086880312156102fa576102f9610283565b5b5f610307888289016102cd565b9550506020610318888289016102cd565b9450506040610329888289016102cd565b935050606061033a888289016102cd565b925050608061034b888289016102cd565b9150509295509295909350565b610361816102a6565b82525050565b5f60208201905061037a5f830184610358565b92915050565b60805160a05160c05160e05161010051612c446103ee5f395f818161055d01528181610753015261108a01525f818161099d01528181610c09015261161001525f818161035d015261077701525f818161061901526109c101525f8181610ca20152610f750152612c445ff3fe608060405234801561000f575f5ffd5b5060043610610109575f3560e01c8063aed881d8116100a0578063c3c2198f1161006f578063c3c2198f146102b9578063cc60819f146102d5578063f2fde38b146102f1578063f90c0f401461030d578063fa5408011461032b57610109565b8063aed881d81461022f578063b3d630031461024d578063b648f2201461026b578063bf4d766e1461029b57610109565b80637a988c54116100dc5780637a988c54146101815780638da5cb5b146101b157806397aba7f9146101cf578063aad24061146101ff57610109565b806318e430821461010d57806319b8c941146101295780634eb30d4114610159578063715018a614610177575b5f5ffd5b61012760048036038101906101229190611841565b61035b565b005b610143600480360381019061013e9190611942565b6105ee565b60405161015091906119dd565b60405180910390f35b610161610617565b60405161016e9190611a77565b60405180910390f35b61017f61063b565b005b61019b60048036038101906101969190611942565b61064e565b6040516101a89190611ab0565b60405180910390f35b6101b9610657565b6040516101c69190611ab0565b60405180910390f35b6101e960048036038101906101e49190611c24565b61067e565b6040516101f69190611ab0565b60405180910390f35b61021960048036038101906102149190611942565b610734565b6040516102269190611c98565b60405180910390f35b610237610751565b6040516102449190611cd1565b60405180910390f35b610255610775565b6040516102629190611d0a565b60405180910390f35b61028560048036038101906102809190611942565b610799565b6040516102929190611d75565b60405180910390f35b6102a361099b565b6040516102b09190611db5565b60405180910390f35b6102d360048036038101906102ce9190611def565b6109bf565b005b6102ef60048036038101906102ea9190611def565b610ca0565b005b61030b60048036038101906103069190611ee7565b610eef565b005b610315610f73565b6040516103229190611f32565b60405180910390f35b61034560048036038101906103409190611f4b565b610f97565b6040516103529190611f85565b60405180910390f35b7f000000000000000000000000000000000000000000000000000000000000000073ffffffffffffffffffffffffffffffffffffffff1663f398789b898989896040518563ffffffff1660e01b81526004016103ba949392919061207f565b602060405180830381865afa1580156103d5573d5f5f3e3d5ffd5b505050506040513d601f19601f820116820180604052508101906103f991906120ee565b610438576040517f08c379a000000000000000000000000000000000000000000000000000000000815260040161042f90612163565b60405180910390fd5b5f8560046006811061044d5761044c612181565b5b60200201359050468114610496576040517f08c379a000000000000000000000000000000000000000000000000000000000815260040161048d906121f8565b60405180910390fd5b5f6104a087610fc6565b90506104b1815f1b8787878761107b565b60015f8281526020019081526020015f205f9054906101000a900460ff161561050f576040517f08c379a000000000000000000000000000000000000000000000000000000000815260040161050690612260565b60405180910390fd5b6001805f8381526020019081526020015f205f6101000a81548160ff0219169083151502179055505f6105598860056006811061054f5761054e612181565b5b602002013561064e565b90507f000000000000000000000000000000000000000000000000000000000000000073ffffffffffffffffffffffffffffffffffffffff16631722e147826040518263ffffffff1660e01b81526004016105b49190611ab0565b5f604051808303815f87803b1580156105cb575f5ffd5b505af11580156105dd573d5f5f3e3d5ffd5b505050505050505050505050505050565b606081604051602001610601919061229e565b6040516020818303038152906040529050919050565b7f000000000000000000000000000000000000000000000000000000000000000081565b6106436112f5565b61064c5f61137c565b565b5f819050919050565b5f5f5f9054906101000a900473ffffffffffffffffffffffffffffffffffffffff16905090565b5f60418251146106c3576040517f08c379a00000000000000000000000000000000000000000000000000000000081526004016106ba90612302565b60405180910390fd5b5f5f5f602085015192506040850151915060608501515f1a90506001868285856040515f81526020016040526040516106ff949392919061233b565b6020604051602081039080840390855afa15801561071f573d5f5f3e3d5ffd5b50505060206040510351935050505092915050565b6001602052805f5260405f205f915054906101000a900460ff1681565b7f000000000000000000000000000000000000000000000000000000000000000081565b7f000000000000000000000000000000000000000000000000000000000000000081565b60605f82036107b85760405180602001604052805f8152509050610996565b5f825f1b90505f5f90505b60208160ff1610801561081357505f60f81b828260ff16602081106107eb576107ea612181565b5b1a60f81b7effffffffffffffffffffffffffffffffffffffffffffffffffffffffffffff1916145b1561082b578080610823906123ab565b9150506107c3565b5f601f90505b8160ff168160ff1611801561088357505f60f81b838260ff166020811061085b5761085a612181565b5b1a60f81b7effffffffffffffffffffffffffffffffffffffffffffffffffffffffffffff1916145b1561089b578080610893906123d3565b915050610831565b5f600183836108aa91906123fa565b6108b4919061242e565b90505f8160ff1667ffffffffffffffff8111156108d4576108d3611b00565b5b6040519080825280601f01601f1916602001820160405280156109065781602001600182028036833780820191505090505b5090505f5f90505b8260ff1681101561098c5785818660ff166109299190612462565b6020811061093a57610939612181565b5b1a60f81b82828151811061095157610950612181565b5b60200101907effffffffffffffffffffffffffffffffffffffffffffffffffffffffffffff191690815f1a905350808060010191505061090e565b5080955050505050505b919050565b7f000000000000000000000000000000000000000000000000000000000000000081565b7f000000000000000000000000000000000000000000000000000000000000000073ffffffffffffffffffffffffffffffffffffffff1663c9219a7a898989896040518563ffffffff1660e01b8152600401610a1e94939291906124a6565b602060405180830381865afa158015610a39573d5f5f3e3d5ffd5b505050506040513d601f19601f82011682018060405250810190610a5d91906120ee565b610a9c576040517f08c379a0000000000000000000000000000000000000000000000000000000008152600401610a9390612163565b60405180910390fd5b5f85600560088110610ab157610ab0612181565b5b60200201359050468114610afa576040517f08c379a0000000000000000000000000000000000000000000000000000000008152600401610af1906121f8565b60405180910390fd5b5f610b1c87600360088110610b1257610b11612181565b5b6020020135610799565b90505f610b4088600260088110610b3657610b35612181565b5b6020020135610799565b90505f610b6489600460088110610b5a57610b59612181565b5b60200201356105ee565b90505f610b708a61143d565b9050610b81815f1b8a8a8a8a61107b565b60015f8281526020019081526020015f205f9054906101000a900460ff1615610bdf576040517f08c379a0000000000000000000000000000000000000000000000000000000008152600401610bd690612260565b60405180910390fd5b6001805f8381526020019081526020015f205f6101000a81548160ff0219169083151502179055507f000000000000000000000000000000000000000000000000000000000000000073ffffffffffffffffffffffffffffffffffffffff16632e057b9b8486856040518463ffffffff1660e01b8152600401610c64939291906124eb565b5f604051808303815f87803b158015610c7b575f5ffd5b505af1158015610c8d573d5f5f3e3d5ffd5b5050505050505050505050505050505050565b7f000000000000000000000000000000000000000000000000000000000000000073ffffffffffffffffffffffffffffffffffffffff1663c9219a7a898989896040518563ffffffff1660e01b8152600401610cff94939291906124a6565b602060405180830381865afa158015610d1a573d5f5f3e3d5ffd5b505050506040513d601f19601f82011682018060405250810190610d3e91906120ee565b610d7d576040517f08c379a0000000000000000000000000000000000000000000000000000000008152600401610d7490612163565b60405180910390fd5b5f5f5f610d8988611526565b9250925092505f88600360088110610da457610da3612181565b5b602002013590505f89600460088110610dc057610dbf612181565b5b602002013590505f610dd18b61143d565b9050610de2815f1b8b8b8b8b61107b565b60015f8281526020019081526020015f205f9054906101000a900460ff1615610e40576040517f08c379a0000000000000000000000000000000000000000000000000000000008152600401610e3790612260565b60405180910390fd5b6001805f8381526020019081526020015f205f6101000a81548160ff0219169083151502179055505f83608084901b1790508573ffffffffffffffffffffffffffffffffffffffff16636afbf5d682878a866040518563ffffffff1660e01b8152600401610eb19493929190612544565b5f604051808303815f87803b158015610ec8575f5ffd5b505af1158015610eda573d5f5f3e3d5ffd5b50505050505050505050505050505050505050565b610ef76112f5565b5f73ffffffffffffffffffffffffffffffffffffffff168173ffffffffffffffffffffffffffffffffffffffff1603610f67575f6040517f1e4fbdf7000000000000000000000000000000000000000000000000000000008152600401610f5e9190611ab0565b60405180910390fd5b610f708161137c565b50565b7f000000000000000000000000000000000000000000000000000000000000000081565b5f81604051602001610fa99190612602565b604051602081830303815290604052805190602001209050919050565b5f5f825f60068110610fdb57610fda612181565b5b602002013583600160068110610ff457610ff3612181565b5b60200201358460026006811061100d5761100c612181565b5b60200201358560036006811061102657611025612181565b5b60200201358660046006811061103f5761103e612181565b5b6020020135604051602001611058959493929190612627565b604051602081830303815290604052805190602001209050805f1c915050919050565b5f61108586610f97565b90505f7f000000000000000000000000000000000000000000000000000000000000000073ffffffffffffffffffffffffffffffffffffffff16631442e4c96040518163ffffffff1660e01b81526004015f60405180830381865afa1580156110f0573d5f5f3e3d5ffd5b505050506040513d5f823e3d601f19601f820116820180604052508101906111189190612759565b90505f5f90505b868690508110156112eb57365f868660418561113b91906127a0565b90604160018761114b9190612462565b61115591906127a0565b92611162939291906127e9565b915091505f6111b48684848080601f0160208091040260200160405190810160405280939291908181526020018383808284375f81840152601f19601f8201169050808301925050505050505061067e565b90505f73ffffffffffffffffffffffffffffffffffffffff168173ffffffffffffffffffffffffffffffffffffffff1603611224576040517f08c379a000000000000000000000000000000000000000000000000000000000815260040161121b9061286d565b60405180910390fd5b5f5f90505f5f90505b8651811015611299578273ffffffffffffffffffffffffffffffffffffffff168782815181106112605761125f612181565b5b602002602001015173ffffffffffffffffffffffffffffffffffffffff160361128c5760019150611299565b808060010191505061122d565b50806112da576040517f08c379a00000000000000000000000000000000000000000000000000000000081526004016112d1906128d5565b60405180910390fd5b50505050808060010191505061111f565b5050505050505050565b6112fd611710565b73ffffffffffffffffffffffffffffffffffffffff1661131b610657565b73ffffffffffffffffffffffffffffffffffffffff161461137a5761133e611710565b6040517f118cdaa70000000000000000000000000000000000000000000000000000000081526004016113719190611ab0565b60405180910390fd5b565b5f5f5f9054906101000a900473ffffffffffffffffffffffffffffffffffffffff169050815f5f6101000a81548173ffffffffffffffffffffffffffffffffffffffff021916908373ffffffffffffffffffffffffffffffffffffffff1602179055508173ffffffffffffffffffffffffffffffffffffffff168173ffffffffffffffffffffffffffffffffffffffff167f8be0079c531659141344cd1fd0a4f28419497f9722a3daafe3b4186f6b6457e060405160405180910390a35050565b5f5f825f6008811061145257611451612181565b5b60200201358360016008811061146b5761146a612181565b5b60200201358460026008811061148457611483612181565b5b60200201358560036008811061149d5761149c612181565b5b6020020135866004600881106114b6576114b5612181565b5b6020020135876005600881106114cf576114ce612181565b5b6020020135886006600881106114e8576114e7612181565b5b602002013560405160200161150397969594939291906128f3565b604051602081830303815290604052805190602001209050805f1c915050919050565b5f5f60605f8460076008811061153f5761153e612181565b5b602002013590505f63ffffffff8216905067ffffffffffffffff602083901c1694504681146115a3576040517f08c379a000000000000000000000000000000000000000000000000000000000815260040161159a906121f8565b60405180910390fd5b6115c4866005600881106115ba576115b9612181565b5b6020020135610799565b92505f6115e8876006600881106115de576115dd612181565b5b6020020135610799565b90505f816040516020016115fc91906129ed565b60405160208183030381529060405290505f7f000000000000000000000000000000000000000000000000000000000000000073ffffffffffffffffffffffffffffffffffffffff166316f1adc1836040518263ffffffff1660e01b81526004016116679190612a58565b5f60405180830381865afa158015611681573d5f5f3e3d5ffd5b505050506040513d5f823e3d601f19601f820116820180604052508101906116a99190612af9565b90505f8151116116ee576040517f08c379a00000000000000000000000000000000000000000000000000000000081526004016116e590612b8a565b60405180910390fd5b808060200190518101906117029190612be3565b965050505050509193909250565b5f33905090565b5f604051905090565b5f5ffd5b5f5ffd5b5f5ffd5b5f8190508260206002028201111561174757611746611728565b5b92915050565b5f8190508260406002028201111561176857611767611728565b5b92915050565b5f8190508260206006028201111561178957611788611728565b5b92915050565b5f5ffd5b5f5ffd5b5f5f83601f8401126117ac576117ab61178f565b5b8235905067ffffffffffffffff8111156117c9576117c8611793565b5b6020830191508360208202830111156117e5576117e4611728565b5b9250929050565b5f5f83601f8401126118015761180061178f565b5b8235905067ffffffffffffffff81111561181e5761181d611793565b5b60208301915083600182028301111561183a57611839611728565b5b9250929050565b5f5f5f5f5f5f5f5f610200898b03121561185e5761185d611720565b5b5f61186b8b828c0161172c565b985050604061187c8b828c0161174d565b97505060c061188d8b828c0161172c565b96505061010061189f8b828c0161176e565b9550506101c089013567ffffffffffffffff8111156118c1576118c0611724565b5b6118cd8b828c01611797565b94509450506101e089013567ffffffffffffffff8111156118f1576118f0611724565b5b6118fd8b828c016117ec565b92509250509295985092959890939650565b5f819050919050565b6119218161190f565b811461192b575f5ffd5b50565b5f8135905061193c81611918565b92915050565b5f6020828403121561195757611956611720565b5b5f6119648482850161192e565b91505092915050565b5f81519050919050565b5f82825260208201905092915050565b8281835e5f83830152505050565b5f601f19601f8301169050919050565b5f6119af8261196d565b6119b98185611977565b93506119c9818560208601611987565b6119d281611995565b840191505092915050565b5f6020820190508181035f8301526119f581846119a5565b905092915050565b5f73ffffffffffffffffffffffffffffffffffffffff82169050919050565b5f819050919050565b5f611a3f611a3a611a35846119fd565b611a1c565b6119fd565b9050919050565b5f611a5082611a25565b9050919050565b5f611a6182611a46565b9050919050565b611a7181611a57565b82525050565b5f602082019050611a8a5f830184611a68565b92915050565b5f611a9a826119fd565b9050919050565b611aaa81611a90565b82525050565b5f602082019050611ac35f830184611aa1565b92915050565b5f819050919050565b611adb81611ac9565b8114611ae5575f5ffd5b50565b5f81359050611af681611ad2565b92915050565b5f5ffd5b7f4e487b71000000000000000000000000000000000000000000000000000000005f52604160045260245ffd5b611b3682611995565b810181811067ffffffffffffffff82111715611b5557611b54611b00565b5b80604052505050565b5f611b67611717565b9050611b738282611b2d565b919050565b5f67ffffffffffffffff821115611b9257611b91611b00565b5b611b9b82611995565b9050602081019050919050565b828183375f83830152505050565b5f611bc8611bc384611b78565b611b5e565b905082815260208101848484011115611be457611be3611afc565b5b611bef848285611ba8565b509392505050565b5f82601f830112611c0b57611c0a61178f565b5b8135611c1b848260208601611bb6565b91505092915050565b5f5f60408385031215611c3a57611c39611720565b5b5f611c4785828601611ae8565b925050602083013567ffffffffffffffff811115611c6857611c67611724565b5b611c7485828601611bf7565b9150509250929050565b5f8115159050919050565b611c9281611c7e565b82525050565b5f602082019050611cab5f830184611c89565b92915050565b5f611cbb82611a46565b9050919050565b611ccb81611cb1565b82525050565b5f602082019050611ce45f830184611cc2565b92915050565b5f611cf482611a46565b9050919050565b611d0481611cea565b82525050565b5f602082019050611d1d5f830184611cfb565b92915050565b5f81519050919050565b5f82825260208201905092915050565b5f611d4782611d23565b611d518185611d2d565b9350611d61818560208601611987565b611d6a81611995565b840191505092915050565b5f6020820190508181035f830152611d8d8184611d3d565b905092915050565b5f611d9f82611a46565b9050919050565b611daf81611d95565b82525050565b5f602082019050611dc85f830184611da6565b92915050565b5f81905082602060080282011115611de957611de8611728565b5b92915050565b5f5f5f5f5f5f5f5f610240898b031215611e0c57611e0b611720565b5b5f611e198b828c0161172c565b9850506040611e2a8b828c0161174d565b97505060c0611e3b8b828c0161172c565b965050610100611e4d8b828c01611dce565b95505061020089013567ffffffffffffffff811115611e6f57611e6e611724565b5b611e7b8b828c01611797565b945094505061022089013567ffffffffffffffff811115611e9f57611e9e611724565b5b611eab8b828c016117ec565b92509250509295985092959890939650565b611ec681611a90565b8114611ed0575f5ffd5b50565b5f81359050611ee181611ebd565b92915050565b5f60208284031215611efc57611efb611720565b5b5f611f0984828501611ed3565b91505092915050565b5f611f1c82611a46565b9050919050565b611f2c81611f12565b82525050565b5f602082019050611f455f830184611f23565b92915050565b5f60208284031215611f6057611f5f611720565b5b5f611f6d84828501611ae8565b91505092915050565b611f7f81611ac9565b82525050565b5f602082019050611f985f830184611f76565b92915050565b82818337505050565b611fb360408383611f9e565b5050565b5f60029050919050565b5f81905092915050565b5f819050919050565b611fe060408383611f9e565b5050565b5f611fef8383611fd4565b60408301905092915050565b5f82905092915050565b5f604082019050919050565b61201a81611fb7565b6120248184611fc1565b925061202f82611fcb565b805f5b83811015612067576120448284611ffb565b61204e8782611fe4565b965061205983612005565b925050600181019050612032565b505050505050565b61207b60c08383611f9e565b5050565b5f6101c0820190506120935f830187611fa7565b6120a06040830186612011565b6120ad60c0830185611fa7565b6120bb61010083018461206f565b95945050505050565b6120cd81611c7e565b81146120d7575f5ffd5b50565b5f815190506120e8816120c4565b92915050565b5f6020828403121561210357612102611720565b5b5f612110848285016120da565b91505092915050565b7f496e76616c6964205a4b2050726f6f66000000000000000000000000000000005f82015250565b5f61214d601083611d2d565b915061215882612119565b602082019050919050565b5f6020820190508181035f83015261217a81612141565b9050919050565b7f4e487b71000000000000000000000000000000000000000000000000000000005f52603260045260245ffd5b7f57726f6e672064657374696e6174696f6e20636861696e0000000000000000005f82015250565b5f6121e2601783611d2d565b91506121ed826121ae565b602082019050919050565b5f6020820190508181035f83015261220f816121d6565b9050919050565b7f5265706c61792061747461636b206465746563746564000000000000000000005f82015250565b5f61224a601683611d2d565b915061225582612216565b602082019050919050565b5f6020820190508181035f8301526122778161223e565b9050919050565b5f819050919050565b6122986122938261190f565b61227e565b82525050565b5f6122a98284612287565b60208201915081905092915050565b7f496e76616c6964207369676e6174757265206c656e67746800000000000000005f82015250565b5f6122ec601883611d2d565b91506122f7826122b8565b602082019050919050565b5f6020820190508181035f830152612319816122e0565b9050919050565b5f60ff82169050919050565b61233581612320565b82525050565b5f60808201905061234e5f830187611f76565b61235b602083018661232c565b6123686040830185611f76565b6123756060830184611f76565b95945050505050565b7f4e487b71000000000000000000000000000000000000000000000000000000005f52601160045260245ffd5b5f6123b582612320565b915060ff82036123c8576123c761237e565b5b600182019050919050565b5f6123dd82612320565b91505f82036123ef576123ee61237e565b5b600182039050919050565b5f61240482612320565b915061240f83612320565b9250828203905060ff8111156124285761242761237e565b5b92915050565b5f61243882612320565b915061244383612320565b9250828201905060ff81111561245c5761245b61237e565b5b92915050565b5f61246c8261190f565b91506124778361190f565b925082820190508082111561248f5761248e61237e565b5b92915050565b6124a26101008383611f9e565b5050565b5f610200820190506124ba5f830187611fa7565b6124c76040830186612011565b6124d460c0830185611fa7565b6124e2610100830184612495565b95945050505050565b5f6060820190508181035f8301526125038186611d3d565b905081810360208301526125178185611d3d565b9050818103604083015261252b81846119a5565b9050949350505050565b61253e8161190f565b82525050565b5f6080820190506125575f830187611aa1565b81810360208301526125698186611d3d565b90506125786040830185612535565b6125856060830184612535565b95945050505050565b5f81905092915050565b7f19457468657265756d205369676e6564204d6573736167653a0a3332000000005f82015250565b5f6125cc601c8361258e565b91506125d782612598565b601c82019050919050565b5f819050919050565b6125fc6125f782611ac9565b6125e2565b82525050565b5f61260c826125c0565b915061261882846125eb565b60208201915081905092915050565b5f6126328288612287565b6020820191506126428287612287565b6020820191506126528286612287565b6020820191506126628285612287565b6020820191506126728284612287565b6020820191508190509695505050505050565b5f67ffffffffffffffff82111561269f5761269e611b00565b5b602082029050602081019050919050565b5f815190506126be81611ebd565b92915050565b5f6126d66126d184612685565b611b5e565b905080838252602082019050602084028301858111156126f9576126f8611728565b5b835b81811015612722578061270e88826126b0565b8452602084019350506020810190506126fb565b5050509392505050565b5f82601f8301126127405761273f61178f565b5b81516127508482602086016126c4565b91505092915050565b5f6020828403121561276e5761276d611720565b5b5f82015167ffffffffffffffff81111561278b5761278a611724565b5b6127978482850161272c565b91505092915050565b5f6127aa8261190f565b91506127b58361190f565b92508282026127c38161190f565b915082820484148315176127da576127d961237e565b5b5092915050565b5f5ffd5b5f5ffd5b5f5f858511156127fc576127fb6127e1565b5b8386111561280d5761280c6127e5565b5b6001850283019150848603905094509492505050565b7f496e76616c6964207369676e61747572650000000000000000000000000000005f82015250565b5f612857601183611d2d565b915061286282612823565b602082019050919050565b5f6020820190508181035f8301526128848161284b565b9050919050565b7f5369676e6572206e6f7420616e206163746976652076616c696461746f7200005f82015250565b5f6128bf601e83611d2d565b91506128ca8261288b565b602082019050919050565b5f6020820190508181035f8301526128ec816128b3565b9050919050565b5f6128fe828a612287565b60208201915061290e8289612287565b60208201915061291e8288612287565b60208201915061292e8287612287565b60208201915061293e8286612287565b60208201915061294e8285612287565b60208201915061295e8284612287565b60208201915081905098975050505050505050565b5f61297d82611d23565b612987818561258e565b9350612997818560208601611987565b80840191505092915050565b7f5f7661756c7400000000000000000000000000000000000000000000000000005f82015250565b5f6129d760068361258e565b91506129e2826129a3565b600682019050919050565b5f6129f88284612973565b9150612a03826129cb565b915081905092915050565b7f51696172614261736541737365747300000000000000000000000000000000005f82015250565b5f612a42600f83611d2d565b9150612a4d82612a0e565b602082019050919050565b5f6040820190508181035f830152612a6f81612a36565b90508181036020830152612a838184611d3d565b905092915050565b5f612a9d612a9884611b78565b611b5e565b905082815260208101848484011115612ab957612ab8611afc565b5b612ac4848285611987565b509392505050565b5f82601f830112612ae057612adf61178f565b5b8151612af0848260208601612a8b565b91505092915050565b5f60208284031215612b0e57612b0d611720565b5b5f82015167ffffffffffffffff811115612b2b57612b2a611724565b5b612b3784828501612acc565b91505092915050565b7f5661756c74206e6f7420617574686f72697a65640000000000000000000000005f82015250565b5f612b74601483611d2d565b9150612b7f82612b40565b602082019050919050565b5f6020820190508181035f830152612ba181612b68565b9050919050565b5f612bb2826119fd565b9050919050565b612bc281612ba8565b8114612bcc575f5ffd5b50565b5f81519050612bdd81612bb9565b92915050565b5f60208284031215612bf857612bf7611720565b5b5f612c0584828501612bcf565b9150509291505056fea2646970667358221220f073570d96cc939e83d199e899396c8d739148a644200253b7a458d915b29b5064736f6c634300081f0033",
			"opcodes": "PUSH2 0x120 PUSH1 0x40 MSTORE CALLVALUE DUP1 ISZERO PUSH2 0x10 JUMPI PUSH0 PUSH0 REVERT JUMPDEST POP PUSH1 0x40 MLOAD PUSH2 0x3032 CODESIZE SUB DUP1 PUSH2 0x3032 DUP4 CODECOPY DUP2 DUP2 ADD PUSH1 0x40 MSTORE DUP2 ADD SWAP1 PUSH2 0x32 SWAP2 SWAP1 PUSH2 0x2E1 JUMP JUMPDEST CALLER PUSH0 PUSH20 0xFFFFFFFFFFFFFFFFFFFFFFFFFFFFFFFFFFFFFFFF AND DUP2 PUSH20 0xFFFFFFFFFFFFFFFFFFFFFFFFFFFFFFFFFFFFFFFF AND SUB PUSH2 0xA3 JUMPI PUSH0 PUSH1 0x40 MLOAD PUSH32 0x1E4FBDF700000000000000000000000000000000000000000000000000000000 DUP2 MSTORE PUSH1 0x4 ADD PUSH2 0x9A SWAP2 SWAP1 PUSH2 0x367 JUMP JUMPDEST PUSH1 0x40 MLOAD DUP1 SWAP2 SUB SWAP1 REVERT JUMPDEST PUSH2 0xB2 DUP2 PUSH2 0x1C2 PUSH1 0x20 SHL PUSH1 0x20 SHR JUMP JUMPDEST POP DUP5 PUSH20 0xFFFFFFFFFFFFFFFFFFFFFFFFFFFFFFFFFFFFFFFF AND PUSH1 0x80 DUP2 PUSH20 0xFFFFFFFFFFFFFFFFFFFFFFFFFFFFFFFFFFFFFFFF AND DUP2 MSTORE POP POP DUP4 PUSH20 0xFFFFFFFFFFFFFFFFFFFFFFFFFFFFFFFFFFFFFFFF AND PUSH1 0xA0 DUP2 PUSH20 0xFFFFFFFFFFFFFFFFFFFFFFFFFFFFFFFFFFFFFFFF AND DUP2 MSTORE POP POP DUP3 PUSH20 0xFFFFFFFFFFFFFFFFFFFFFFFFFFFFFFFFFFFFFFFF AND PUSH1 0xC0 DUP2 PUSH20 0xFFFFFFFFFFFFFFFFFFFFFFFFFFFFFFFFFFFFFFFF AND DUP2 MSTORE POP POP DUP2 PUSH20 0xFFFFFFFFFFFFFFFFFFFFFFFFFFFFFFFFFFFFFFFF AND PUSH1 0xE0 DUP2 PUSH20 0xFFFFFFFFFFFFFFFFFFFFFFFFFFFFFFFFFFFFFFFF AND DUP2 MSTORE POP POP DUP1 PUSH20 0xFFFFFFFFFFFFFFFFFFFFFFFFFFFFFFFFFFFFFFFF AND PUSH2 0x100 DUP2 PUSH20 0xFFFFFFFFFFFFFFFFFFFFFFFFFFFFFFFFFFFFFFFF AND DUP2 MSTORE POP POP POP POP POP POP POP PUSH2 0x380 JUMP JUMPDEST PUSH0 PUSH0 PUSH0 SWAP1 SLOAD SWAP1 PUSH2 0x100 EXP SWAP1 DIV PUSH20 0xFFFFFFFFFFFFFFFFFFFFFFFFFFFFFFFFFFFFFFFF AND SWAP1 POP DUP2 PUSH0 PUSH0 PUSH2 0x100 EXP DUP2 SLOAD DUP2 PUSH20 0xFFFFFFFFFFFFFFFFFFFFFFFFFFFFFFFFFFFFFFFF MUL NOT AND SWAP1 DUP4 PUSH20 0xFFFFFFFFFFFFFFFFFFFFFFFFFFFFFFFFFFFFFFFF AND MUL OR SWAP1 SSTORE POP DUP2 PUSH20 0xFFFFFFFFFFFFFFFFFFFFFFFFFFFFFFFFFFFFFFFF AND DUP2 PUSH20 0xFFFFFFFFFFFFFFFFFFFFFFFFFFFFFFFFFFFFFFFF AND PUSH32 0x8BE0079C531659141344CD1FD0A4F28419497F9722A3DAAFE3B4186F6B6457E0 PUSH1 0x40 MLOAD PUSH1 0x40 MLOAD DUP1 SWAP2 SUB SWAP1 LOG3 POP POP JUMP JUMPDEST PUSH0 PUSH0 REVERT JUMPDEST PUSH0 PUSH20 0xFFFFFFFFFFFFFFFFFFFFFFFFFFFFFFFFFFFFFFFF DUP3 AND SWAP1 POP SWAP2 SWAP1 POP JUMP JUMPDEST PUSH0 PUSH2 0x2B0 DUP3 PUSH2 0x287 JUMP JUMPDEST SWAP1 POP SWAP2 SWAP1 POP JUMP JUMPDEST PUSH2 0x2C0 DUP2 PUSH2 0x2A6 JUMP JUMPDEST DUP2 EQ PUSH2 0x2CA JUMPI PUSH0 PUSH0 REVERT JUMPDEST POP JUMP JUMPDEST PUSH0 DUP2 MLOAD SWAP1 POP PUSH2 0x2DB DUP2 PUSH2 0x2B7 JUMP JUMPDEST SWAP3 SWAP2 POP POP JUMP JUMPDEST PUSH0 PUSH0 PUSH0 PUSH0 PUSH0 PUSH1 0xA0 DUP7 DUP9 SUB SLT ISZERO PUSH2 0x2FA JUMPI PUSH2 0x2F9 PUSH2 0x283 JUMP JUMPDEST JUMPDEST PUSH0 PUSH2 0x307 DUP9 DUP3 DUP10 ADD PUSH2 0x2CD JUMP JUMPDEST SWAP6 POP POP PUSH1 0x20 PUSH2 0x318 DUP9 DUP3 DUP10 ADD PUSH2 0x2CD JUMP JUMPDEST SWAP5 POP POP PUSH1 0x40 PUSH2 0x329 DUP9 DUP3 DUP10 ADD PUSH2 0x2CD JUMP JUMPDEST SWAP4 POP POP PUSH1 0x60 PUSH2 0x33A DUP9 DUP3 DUP10 ADD PUSH2 0x2CD JUMP JUMPDEST SWAP3 POP POP PUSH1 0x80 PUSH2 0x34B DUP9 DUP3 DUP10 ADD PUSH2 0x2CD JUMP JUMPDEST SWAP2 POP POP SWAP3 SWAP6 POP SWAP3 SWAP6 SWAP1 SWAP4 POP JUMP JUMPDEST PUSH2 0x361 DUP2 PUSH2 0x2A6 JUMP JUMPDEST DUP3 MSTORE POP POP JUMP JUMPDEST PUSH0 PUSH1 0x20 DUP3 ADD SWAP1 POP PUSH2 0x37A PUSH0 DUP4 ADD DUP5 PUSH2 0x358 JUMP JUMPDEST SWAP3 SWAP2 POP POP JUMP JUMPDEST PUSH1 0x80 MLOAD PUSH1 0xA0 MLOAD PUSH1 0xC0 MLOAD PUSH1 0xE0 MLOAD PUSH2 0x100 MLOAD PUSH2 0x2C44 PUSH2 0x3EE PUSH0 CODECOPY PUSH0 DUP2 DUP2 PUSH2 0x55D ADD MSTORE DUP2 DUP2 PUSH2 0x753 ADD MSTORE PUSH2 0x108A ADD MSTORE PUSH0 DUP2 DUP2 PUSH2 0x99D ADD MSTORE DUP2 DUP2 PUSH2 0xC09 ADD MSTORE PUSH2 0x1610 ADD MSTORE PUSH0 DUP2 DUP2 PUSH2 0x35D ADD MSTORE PUSH2 0x777 ADD MSTORE PUSH0 DUP2 DUP2 PUSH2 0x619 ADD MSTORE PUSH2 0x9C1 ADD MSTORE PUSH0 DUP2 DUP2 PUSH2 0xCA2 ADD MSTORE PUSH2 0xF75 ADD MSTORE PUSH2 0x2C44 PUSH0 RETURN INVALID PUSH1 0x80 PUSH1 0x40 MSTORE CALLVALUE DUP1 ISZERO PUSH2 0xF JUMPI PUSH0 PUSH0 REVERT JUMPDEST POP PUSH1 0x4 CALLDATASIZE LT PUSH2 0x109 JUMPI PUSH0 CALLDATALOAD PUSH1 0xE0 SHR DUP1 PUSH4 0xAED881D8 GT PUSH2 0xA0 JUMPI DUP1 PUSH4 0xC3C2198F GT PUSH2 0x6F JUMPI DUP1 PUSH4 0xC3C2198F EQ PUSH2 0x2B9 JUMPI DUP1 PUSH4 0xCC60819F EQ PUSH2 0x2D5 JUMPI DUP1 PUSH4 0xF2FDE38B EQ PUSH2 0x2F1 JUMPI DUP1 PUSH4 0xF90C0F40 EQ PUSH2 0x30D JUMPI DUP1 PUSH4 0xFA540801 EQ PUSH2 0x32B JUMPI PUSH2 0x109 JUMP JUMPDEST DUP1 PUSH4 0xAED881D8 EQ PUSH2 0x22F JUMPI DUP1 PUSH4 0xB3D63003 EQ PUSH2 0x24D JUMPI DUP1 PUSH4 0xB648F220 EQ PUSH2 0x26B JUMPI DUP1 PUSH4 0xBF4D766E EQ PUSH2 0x29B JUMPI PUSH2 0x109 JUMP JUMPDEST DUP1 PUSH4 0x7A988C54 GT PUSH2 0xDC JUMPI DUP1 PUSH4 0x7A988C54 EQ PUSH2 0x181 JUMPI DUP1 PUSH4 0x8DA5CB5B EQ PUSH2 0x1B1 JUMPI DUP1 PUSH4 0x97ABA7F9 EQ PUSH2 0x1CF JUMPI DUP1 PUSH4 0xAAD24061 EQ PUSH2 0x1FF JUMPI PUSH2 0x109 JUMP JUMPDEST DUP1 PUSH4 0x18E43082 EQ PUSH2 0x10D JUMPI DUP1 PUSH4 0x19B8C941 EQ PUSH2 0x129 JUMPI DUP1 PUSH4 0x4EB30D41 EQ PUSH2 0x159 JUMPI DUP1 PUSH4 0x715018A6 EQ PUSH2 0x177 JUMPI JUMPDEST PUSH0 PUSH0 REVERT JUMPDEST PUSH2 0x127 PUSH1 0x4 DUP1 CALLDATASIZE SUB DUP2 ADD SWAP1 PUSH2 0x122 SWAP2 SWAP1 PUSH2 0x1841 JUMP JUMPDEST PUSH2 0x35B JUMP JUMPDEST STOP JUMPDEST PUSH2 0x143 PUSH1 0x4 DUP1 CALLDATASIZE SUB DUP2 ADD SWAP1 PUSH2 0x13E SWAP2 SWAP1 PUSH2 0x1942 JUMP JUMPDEST PUSH2 0x5EE JUMP JUMPDEST PUSH1 0x40 MLOAD PUSH2 0x150 SWAP2 SWAP1 PUSH2 0x19DD JUMP JUMPDEST PUSH1 0x40 MLOAD DUP1 SWAP2 SUB SWAP1 RETURN JUMPDEST PUSH2 0x161 PUSH2 0x617 JUMP JUMPDEST PUSH1 0x40 MLOAD PUSH2 0x16E SWAP2 SWAP1 PUSH2 0x1A77 JUMP JUMPDEST PUSH1 0x40 MLOAD DUP1 SWAP2 SUB SWAP1 RETURN JUMPDEST PUSH2 0x17F PUSH2 0x63B JUMP JUMPDEST STOP JUMPDEST PUSH2 0x19B PUSH1 0x4 DUP1 CALLDATASIZE SUB DUP2 ADD SWAP1 PUSH2 0x196 SWAP2 SWAP1 PUSH2 0x1942 JUMP JUMPDEST PUSH2 0x64E JUMP JUMPDEST PUSH1 0x40 MLOAD PUSH2 0x1A8 SWAP2 SWAP1 PUSH2 0x1AB0 JUMP JUMPDEST PUSH1 0x40 MLOAD DUP1 SWAP2 SUB SWAP1 RETURN JUMPDEST PUSH2 0x1B9 PUSH2 0x657 JUMP JUMPDEST PUSH1 0x40 MLOAD PUSH2 0x1C6 SWAP2 SWAP1 PUSH2 0x1AB0 JUMP JUMPDEST PUSH1 0x40 MLOAD DUP1 SWAP2 SUB SWAP1 RETURN JUMPDEST PUSH2 0x1E9 PUSH1 0x4 DUP1 CALLDATASIZE SUB DUP2 ADD SWAP1 PUSH2 0x1E4 SWAP2 SWAP1 PUSH2 0x1C24 JUMP JUMPDEST PUSH2 0x67E JUMP JUMPDEST PUSH1 0x40 MLOAD PUSH2 0x1F6 SWAP2 SWAP1 PUSH2 0x1AB0 JUMP JUMPDEST PUSH1 0x40 MLOAD DUP1 SWAP2 SUB SWAP1 RETURN JUMPDEST PUSH2 0x219 PUSH1 0x4 DUP1 CALLDATASIZE SUB DUP2 ADD SWAP1 PUSH2 0x214 SWAP2 SWAP1 PUSH2 0x1942 JUMP JUMPDEST PUSH2 0x734 JUMP JUMPDEST PUSH1 0x40 MLOAD PUSH2 0x226 SWAP2 SWAP1 PUSH2 0x1C98 JUMP JUMPDEST PUSH1 0x40 MLOAD DUP1 SWAP2 SUB SWAP1 RETURN JUMPDEST PUSH2 0x237 PUSH2 0x751 JUMP JUMPDEST PUSH1 0x40 MLOAD PUSH2 0x244 SWAP2 SWAP1 PUSH2 0x1CD1 JUMP JUMPDEST PUSH1 0x40 MLOAD DUP1 SWAP2 SUB SWAP1 RETURN JUMPDEST PUSH2 0x255 PUSH2 0x775 JUMP JUMPDEST PUSH1 0x40 MLOAD PUSH2 0x262 SWAP2 SWAP1 PUSH2 0x1D0A JUMP JUMPDEST PUSH1 0x40 MLOAD DUP1 SWAP2 SUB SWAP1 RETURN JUMPDEST PUSH2 0x285 PUSH1 0x4 DUP1 CALLDATASIZE SUB DUP2 ADD SWAP1 PUSH2 0x280 SWAP2 SWAP1 PUSH2 0x1942 JUMP JUMPDEST PUSH2 0x799 JUMP JUMPDEST PUSH1 0x40 MLOAD PUSH2 0x292 SWAP2 SWAP1 PUSH2 0x1D75 JUMP JUMPDEST PUSH1 0x40 MLOAD DUP1 SWAP2 SUB SWAP1 RETURN JUMPDEST PUSH2 0x2A3 PUSH2 0x99B JUMP JUMPDEST PUSH1 0x40 MLOAD PUSH2 0x2B0 SWAP2 SWAP1 PUSH2 0x1DB5 JUMP JUMPDEST PUSH1 0x40 MLOAD DUP1 SWAP2 SUB SWAP1 RETURN JUMPDEST PUSH2 0x2D3 PUSH1 0x4 DUP1 CALLDATASIZE SUB DUP2 ADD SWAP1 PUSH2 0x2CE SWAP2 SWAP1 PUSH2 0x1DEF JUMP JUMPDEST PUSH2 0x9BF JUMP JUMPDEST STOP JUMPDEST PUSH2 0x2EF PUSH1 0x4 DUP1 CALLDATASIZE SUB DUP2 ADD SWAP1 PUSH2 0x2EA SWAP2 SWAP1 PUSH2 0x1DEF JUMP JUMPDEST PUSH2 0xCA0 JUMP JUMPDEST STOP JUMPDEST PUSH2 0x30B PUSH1 0x4 DUP1 CALLDATASIZE SUB DUP2 ADD SWAP1 PUSH2 0x306 SWAP2 SWAP1 PUSH2 0x1EE7 JUMP JUMPDEST PUSH2 0xEEF JUMP JUMPDEST STOP JUMPDEST PUSH2 0x315 PUSH2 0xF73 JUMP JUMPDEST PUSH1 0x40 MLOAD PUSH2 0x322 SWAP2 SWAP1 PUSH2 0x1F32 JUMP JUMPDEST PUSH1 0x40 MLOAD DUP1 SWAP2 SUB SWAP1 RETURN JUMPDEST PUSH2 0x345 PUSH1 0x4 DUP1 CALLDATASIZE SUB DUP2 ADD SWAP1 PUSH2 0x340 SWAP2 SWAP1 PUSH2 0x1F4B JUMP JUMPDEST PUSH2 0xF97 JUMP JUMPDEST PUSH1 0x40 MLOAD PUSH2 0x352 SWAP2 SWAP1 PUSH2 0x1F85 JUMP JUMPDEST PUSH1 0x40 MLOAD DUP1 SWAP2 SUB SWAP1 RETURN JUMPDEST PUSH32 0x0 PUSH20 0xFFFFFFFFFFFFFFFFFFFFFFFFFFFFFFFFFFFFFFFF AND PUSH4 0xF398789B DUP10 DUP10 DUP10 DUP10 PUSH1 0x40 MLOAD DUP6 PUSH4 0xFFFFFFFF AND PUSH1 0xE0 SHL DUP2 MSTORE PUSH1 0x4 ADD PUSH2 0x3BA SWAP5 SWAP4 SWAP3 SWAP2 SWAP1 PUSH2 0x207F JUMP JUMPDEST PUSH1 0x20 PUSH1 0x40 MLOAD DUP1 DUP4 SUB DUP2 DUP7 GAS STATICCALL ISZERO DUP1 ISZERO PUSH2 0x3D5 JUMPI RETURNDATASIZE PUSH0 PUSH0 RETURNDATACOPY RETURNDATASIZE PUSH0 REVERT JUMPDEST POP POP POP POP PUSH1 0x40 MLOAD RETURNDATASIZE PUSH1 0x1F NOT PUSH1 0x1F DUP3 ADD AND DUP3 ADD DUP1 PUSH1 0x40 MSTORE POP DUP2 ADD SWAP1 PUSH2 0x3F9 SWAP2 SWAP1 PUSH2 0x20EE JUMP JUMPDEST PUSH2 0x438 JUMPI PUSH1 0x40 MLOAD PUSH32 0x8C379A000000000000000000000000000000000000000000000000000000000 DUP2 MSTORE PUSH1 0x4 ADD PUSH2 0x42F SWAP1 PUSH2 0x2163 JUMP JUMPDEST PUSH1 0x40 MLOAD DUP1 SWAP2 SUB SWAP1 REVERT JUMPDEST PUSH0 DUP6 PUSH1 0x4 PUSH1 0x6 DUP2 LT PUSH2 0x44D JUMPI PUSH2 0x44C PUSH2 0x2181 JUMP JUMPDEST JUMPDEST PUSH1 0x20 MUL ADD CALLDATALOAD SWAP1 POP CHAINID DUP2 EQ PUSH2 0x496 JUMPI PUSH1 0x40 MLOAD PUSH32 0x8C379A000000000000000000000000000000000000000000000000000000000 DUP2 MSTORE PUSH1 0x4 ADD PUSH2 0x48D SWAP1 PUSH2 0x21F8 JUMP JUMPDEST PUSH1 0x40 MLOAD DUP1 SWAP2 SUB SWAP1 REVERT JUMPDEST PUSH0 PUSH2 0x4A0 DUP8 PUSH2 0xFC6 JUMP JUMPDEST SWAP1 POP PUSH2 0x4B1 DUP2 PUSH0 SHL DUP8 DUP8 DUP8 DUP8 PUSH2 0x107B JUMP JUMPDEST PUSH1 0x1 PUSH0 DUP3 DUP2 MSTORE PUSH1 0x20 ADD SWAP1 DUP2 MSTORE PUSH1 0x20 ADD PUSH0 KECCAK256 PUSH0 SWAP1 SLOAD SWAP1 PUSH2 0x100 EXP SWAP1 DIV PUSH1 0xFF AND ISZERO PUSH2 0x50F JUMPI PUSH1 0x40 MLOAD PUSH32 0x8C379A000000000000000000000000000000000000000000000000000000000 DUP2 MSTORE PUSH1 0x4 ADD PUSH2 0x506 SWAP1 PUSH2 0x2260 JUMP JUMPDEST PUSH1 0x40 MLOAD DUP1 SWAP2 SUB SWAP1 REVERT JUMPDEST PUSH1 0x1 DUP1 PUSH0 DUP4 DUP2 MSTORE PUSH1 0x20 ADD SWAP1 DUP2 MSTORE PUSH1 0x20 ADD PUSH0 KECCAK256 PUSH0 PUSH2 0x100 EXP DUP2 SLOAD DUP2 PUSH1 0xFF MUL NOT AND SWAP1 DUP4 ISZERO ISZERO MUL OR SWAP1 SSTORE POP PUSH0 PUSH2 0x559 DUP9 PUSH1 0x5 PUSH1 0x6 DUP2 LT PUSH2 0x54F JUMPI PUSH2 0x54E PUSH2 0x2181 JUMP JUMPDEST JUMPDEST PUSH1 0x20 MUL ADD CALLDATALOAD PUSH2 0x64E JUMP JUMPDEST SWAP1 POP PUSH32 0x0 PUSH20 0xFFFFFFFFFFFFFFFFFFFFFFFFFFFFFFFFFFFFFFFF AND PUSH4 0x1722E147 DUP3 PUSH1 0x40 MLOAD DUP3 PUSH4 0xFFFFFFFF AND PUSH1 0xE0 SHL DUP2 MSTORE PUSH1 0x4 ADD PUSH2 0x5B4 SWAP2 SWAP1 PUSH2 0x1AB0 JUMP JUMPDEST PUSH0 PUSH1 0x40 MLOAD DUP1 DUP4 SUB DUP2 PUSH0 DUP8 DUP1 EXTCODESIZE ISZERO DUP1 ISZERO PUSH2 0x5CB JUMPI PUSH0 PUSH0 REVERT JUMPDEST POP GAS CALL ISZERO DUP1 ISZERO PUSH2 0x5DD JUMPI RETURNDATASIZE PUSH0 PUSH0 RETURNDATACOPY RETURNDATASIZE PUSH0 REVERT JUMPDEST POP POP POP POP POP POP POP POP POP POP POP POP POP POP POP JUMP JUMPDEST PUSH1 0x60 DUP2 PUSH1 0x40 MLOAD PUSH1 0x20 ADD PUSH2 0x601 SWAP2 SWAP1 PUSH2 0x229E JUMP JUMPDEST PUSH1 0x40 MLOAD PUSH1 0x20 DUP2 DUP4 SUB SUB DUP2 MSTORE SWAP1 PUSH1 0x40 MSTORE SWAP1 POP SWAP2 SWAP1 POP JUMP JUMPDEST PUSH32 0x0 DUP2 JUMP JUMPDEST PUSH2 0x643 PUSH2 0x12F5 JUMP JUMPDEST PUSH2 0x64C PUSH0 PUSH2 0x137C JUMP JUMPDEST JUMP JUMPDEST PUSH0 DUP2 SWAP1 POP SWAP2 SWAP1 POP JUMP JUMPDEST PUSH0 PUSH0 PUSH0 SWAP1 SLOAD SWAP1 PUSH2 0x100 EXP SWAP1 DIV PUSH20 0xFFFFFFFFFFFFFFFFFFFFFFFFFFFFFFFFFFFFFFFF AND SWAP1 POP SWAP1 JUMP JUMPDEST PUSH0 PUSH1 0x41 DUP3 MLOAD EQ PUSH2 0x6C3 JUMPI PUSH1 0x40 MLOAD PUSH32 0x8C379A000000000000000000000000000000000000000000000000000000000 DUP2 MSTORE PUSH1 0x4 ADD PUSH2 0x6BA SWAP1 PUSH2 0x2302 JUMP JUMPDEST PUSH1 0x40 MLOAD DUP1 SWAP2 SUB SWAP1 REVERT JUMPDEST PUSH0 PUSH0 PUSH0 PUSH1 0x20 DUP6 ADD MLOAD SWAP3 POP PUSH1 0x40 DUP6 ADD MLOAD SWAP2 POP PUSH1 0x60 DUP6 ADD MLOAD PUSH0 BYTE SWAP1 POP PUSH1 0x1 DUP7 DUP3 DUP6 DUP6 PUSH1 0x40 MLOAD PUSH0 DUP2 MSTORE PUSH1 0x20 ADD PUSH1 0x40 MSTORE PUSH1 0x40 MLOAD PUSH2 0x6FF SWAP5 SWAP4 SWAP3 SWAP2 SWAP1 PUSH2 0x233B JUMP JUMPDEST PUSH1 0x20 PUSH1 0x40 MLOAD PUSH1 0x20 DUP2 SUB SWAP1 DUP1 DUP5 SUB SWAP1 DUP6 GAS STATICCALL ISZERO DUP1 ISZERO PUSH2 0x71F JUMPI RETURNDATASIZE PUSH0 PUSH0 RETURNDATACOPY RETURNDATASIZE PUSH0 REVERT JUMPDEST POP POP POP PUSH1 0x20 PUSH1 0x40 MLOAD SUB MLOAD SWAP4 POP POP POP POP SWAP3 SWAP2 POP POP JUMP JUMPDEST PUSH1 0x1 PUSH1 0x20 MSTORE DUP1 PUSH0 MSTORE PUSH1 0x40 PUSH0 KECCAK256 PUSH0 SWAP2 POP SLOAD SWAP1 PUSH2 0x100 EXP SWAP1 DIV PUSH1 0xFF AND DUP2 JUMP JUMPDEST PUSH32 0x0 DUP2 JUMP JUMPDEST PUSH32 0x0 DUP2 JUMP JUMPDEST PUSH1 0x60 PUSH0 DUP3 SUB PUSH2 0x7B8 JUMPI PUSH1 0x40 MLOAD DUP1 PUSH1 0x20 ADD PUSH1 0x40 MSTORE DUP1 PUSH0 DUP2 MSTORE POP SWAP1 POP PUSH2 0x996 JUMP JUMPDEST PUSH0 DUP3 PUSH0 SHL SWAP1 POP PUSH0 PUSH0 SWAP1 POP JUMPDEST PUSH1 0x20 DUP2 PUSH1 0xFF AND LT DUP1 ISZERO PUSH2 0x813 JUMPI POP PUSH0 PUSH1 0xF8 SHL DUP3 DUP3 PUSH1 0xFF AND PUSH1 0x20 DUP2 LT PUSH2 0x7EB JUMPI PUSH2 0x7EA PUSH2 0x2181 JUMP JUMPDEST JUMPDEST BYTE PUSH1 0xF8 SHL PUSH31 0xFFFFFFFFFFFFFFFFFFFFFFFFFFFFFFFFFFFFFFFFFFFFFFFFFFFFFFFFFFFFFF NOT AND EQ JUMPDEST ISZERO PUSH2 0x82B JUMPI DUP1 DUP1 PUSH2 0x823 SWAP1 PUSH2 0x23AB JUMP JUMPDEST SWAP2 POP POP PUSH2 0x7C3 JUMP JUMPDEST PUSH0 PUSH1 0x1F SWAP1 POP JUMPDEST DUP2 PUSH1 0xFF AND DUP2 PUSH1 0xFF AND GT DUP1 ISZERO PUSH2 0x883 JUMPI POP PUSH0 PUSH1 0xF8 SHL DUP4 DUP3 PUSH1 0xFF AND PUSH1 0x20 DUP2 LT PUSH2 0x85B JUMPI PUSH2 0x85A PUSH2 0x2181 JUMP JUMPDEST JUMPDEST BYTE PUSH1 0xF8 SHL PUSH31 0xFFFFFFFFFFFFFFFFFFFFFFFFFFFFFFFFFFFFFFFFFFFFFFFFFFFFFFFFFFFFFF NOT AND EQ JUMPDEST ISZERO PUSH2 0x89B JUMPI DUP1 DUP1 PUSH2 0x893 SWAP1 PUSH2 0x23D3 JUMP JUMPDEST SWAP2 POP POP PUSH2 0x831 JUMP JUMPDEST PUSH0 PUSH1 0x1 DUP4 DUP4 PUSH2 0x8AA SWAP2 SWAP1 PUSH2 0x23FA JUMP JUMPDEST PUSH2 0x8B4 SWAP2 SWAP1 PUSH2 0x242E JUMP JUMPDEST SWAP1 POP PUSH0 DUP2 PUSH1 0xFF AND PUSH8 0xFFFFFFFFFFFFFFFF DUP2 GT ISZERO PUSH2 0x8D4 JUMPI PUSH2 0x8D3 PUSH2 0x1B00 JUMP JUMPDEST JUMPDEST PUSH1 0x40 MLOAD SWAP1 DUP1 DUP3 MSTORE DUP1 PUSH1 0x1F ADD PUSH1 0x1F NOT AND PUSH1 0x20 ADD DUP3 ADD PUSH1 0x40 MSTORE DUP1 ISZERO PUSH2 0x906 JUMPI DUP2 PUSH1 0x20 ADD PUSH1 0x1 DUP3 MUL DUP1 CALLDATASIZE DUP4 CALLDATACOPY DUP1 DUP3 ADD SWAP2 POP POP SWAP1 POP JUMPDEST POP SWAP1 POP PUSH0 PUSH0 SWAP1 POP JUMPDEST DUP3 PUSH1 0xFF AND DUP2 LT ISZERO PUSH2 0x98C JUMPI DUP6 DUP2 DUP7 PUSH1 0xFF AND PUSH2 0x929 SWAP2 SWAP1 PUSH2 0x2462 JUMP JUMPDEST PUSH1 0x20 DUP2 LT PUSH2 0x93A JUMPI PUSH2 0x939 PUSH2 0x2181 JUMP JUMPDEST JUMPDEST BYTE PUSH1 0xF8 SHL DUP3 DUP3 DUP2 MLOAD DUP2 LT PUSH2 0x951 JUMPI PUSH2 0x950 PUSH2 0x2181 JUMP JUMPDEST JUMPDEST PUSH1 0x20 ADD ADD SWAP1 PUSH31 0xFFFFFFFFFFFFFFFFFFFFFFFFFFFFFFFFFFFFFFFFFFFFFFFFFFFFFFFFFFFFFF NOT AND SWAP1 DUP2 PUSH0 BYTE SWAP1 MSTORE8 POP DUP1 DUP1 PUSH1 0x1 ADD SWAP2 POP POP PUSH2 0x90E JUMP JUMPDEST POP DUP1 SWAP6 POP POP POP POP POP POP JUMPDEST SWAP2 SWAP1 POP JUMP JUMPDEST PUSH32 0x0 DUP2 JUMP JUMPDEST PUSH32 0x0 PUSH20 0xFFFFFFFFFFFFFFFFFFFFFFFFFFFFFFFFFFFFFFFF AND PUSH4 0xC9219A7A DUP10 DUP10 DUP10 DUP10 PUSH1 0x40 MLOAD DUP6 PUSH4 0xFFFFFFFF AND PUSH1 0xE0 SHL DUP2 MSTORE PUSH1 0x4 ADD PUSH2 0xA1E SWAP5 SWAP4 SWAP3 SWAP2 SWAP1 PUSH2 0x24A6 JUMP JUMPDEST PUSH1 0x20 PUSH1 0x40 MLOAD DUP1 DUP4 SUB DUP2 DUP7 GAS STATICCALL ISZERO DUP1 ISZERO PUSH2 0xA39 JUMPI RETURNDATASIZE PUSH0 PUSH0 RETURNDATACOPY RETURNDATASIZE PUSH0 REVERT JUMPDEST POP POP POP POP PUSH1 0x40 MLOAD RETURNDATASIZE PUSH1 0x1F NOT PUSH1 0x1F DUP3 ADD AND DUP3 ADD DUP1 PUSH1 0x40 MSTORE POP DUP2 ADD SWAP1 PUSH2 0xA5D SWAP2 SWAP1 PUSH2 0x20EE JUMP JUMPDEST PUSH2 0xA9C JUMPI PUSH1 0x40 MLOAD PUSH32 0x8C379A000000000000000000000000000000000000000000000000000000000 DUP2 MSTORE PUSH1 0x4 ADD PUSH2 0xA93 SWAP1 PUSH2 0x2163 JUMP JUMPDEST PUSH1 0x40 MLOAD DUP1 SWAP2 SUB SWAP1 REVERT JUMPDEST PUSH0 DUP6 PUSH1 0x5 PUSH1 0x8 DUP2 LT PUSH2 0xAB1 JUMPI PUSH2 0xAB0 PUSH2 0x2181 JUMP JUMPDEST JUMPDEST PUSH1 0x20 MUL ADD CALLDATALOAD SWAP1 POP CHAINID DUP2 EQ PUSH2 0xAFA JUMPI PUSH1 0x40 MLOAD PUSH32 0x8C379A000000000000000000000000000000000000000000000000000000000 DUP2 MSTORE PUSH1 0x4 ADD PUSH2 0xAF1 SWAP1 PUSH2 0x21F8 JUMP JUMPDEST PUSH1 0x40 MLOAD DUP1 SWAP2 SUB SWAP1 REVERT JUMPDEST PUSH0 PUSH2 0xB1C DUP8 PUSH1 0x3 PUSH1 0x8 DUP2 LT PUSH2 0xB12 JUMPI PUSH2 0xB11 PUSH2 0x2181 JUMP JUMPDEST JUMPDEST PUSH1 0x20 MUL ADD CALLDATALOAD PUSH2 0x799 JUMP JUMPDEST SWAP1 POP PUSH0 PUSH2 0xB40 DUP9 PUSH1 0x2 PUSH1 0x8 DUP2 LT PUSH2 0xB36 JUMPI PUSH2 0xB35 PUSH2 0x2181 JUMP JUMPDEST JUMPDEST PUSH1 0x20 MUL ADD CALLDATALOAD PUSH2 0x799 JUMP JUMPDEST SWAP1 POP PUSH0 PUSH2 0xB64 DUP10 PUSH1 0x4 PUSH1 0x8 DUP2 LT PUSH2 0xB5A JUMPI PUSH2 0xB59 PUSH2 0x2181 JUMP JUMPDEST JUMPDEST PUSH1 0x20 MUL ADD CALLDATALOAD PUSH2 0x5EE JUMP JUMPDEST SWAP1 POP PUSH0 PUSH2 0xB70 DUP11 PUSH2 0x143D JUMP JUMPDEST SWAP1 POP PUSH2 0xB81 DUP2 PUSH0 SHL DUP11 DUP11 DUP11 DUP11 PUSH2 0x107B JUMP JUMPDEST PUSH1 0x1 PUSH0 DUP3 DUP2 MSTORE PUSH1 0x20 ADD SWAP1 DUP2 MSTORE PUSH1 0x20 ADD PUSH0 KECCAK256 PUSH0 SWAP1 SLOAD SWAP1 PUSH2 0x100 EXP SWAP1 DIV PUSH1 0xFF AND ISZERO PUSH2 0xBDF JUMPI PUSH1 0x40 MLOAD PUSH32 0x8C379A000000000000000000000000000000000000000000000000000000000 DUP2 MSTORE PUSH1 0x4 ADD PUSH2 0xBD6 SWAP1 PUSH2 0x2260 JUMP JUMPDEST PUSH1 0x40 MLOAD DUP1 SWAP2 SUB SWAP1 REVERT JUMPDEST PUSH1 0x1 DUP1 PUSH0 DUP4 DUP2 MSTORE PUSH1 0x20 ADD SWAP1 DUP2 MSTORE PUSH1 0x20 ADD PUSH0 KECCAK256 PUSH0 PUSH2 0x100 EXP DUP2 SLOAD DUP2 PUSH1 0xFF MUL NOT AND SWAP1 DUP4 ISZERO ISZERO MUL OR SWAP1 SSTORE POP PUSH32 0x0 PUSH20 0xFFFFFFFFFFFFFFFFFFFFFFFFFFFFFFFFFFFFFFFF AND PUSH4 0x2E057B9B DUP5 DUP7 DUP6 PUSH1 0x40 MLOAD DUP5 PUSH4 0xFFFFFFFF AND PUSH1 0xE0 SHL DUP2 MSTORE PUSH1 0x4 ADD PUSH2 0xC64 SWAP4 SWAP3 SWAP2 SWAP1 PUSH2 0x24EB JUMP JUMPDEST PUSH0 PUSH1 0x40 MLOAD DUP1 DUP4 SUB DUP2 PUSH0 DUP8 DUP1 EXTCODESIZE ISZERO DUP1 ISZERO PUSH2 0xC7B JUMPI PUSH0 PUSH0 REVERT JUMPDEST POP GAS CALL ISZERO DUP1 ISZERO PUSH2 0xC8D JUMPI RETURNDATASIZE PUSH0 PUSH0 RETURNDATACOPY RETURNDATASIZE PUSH0 REVERT JUMPDEST POP POP POP POP POP POP POP POP POP POP POP POP POP POP POP POP POP JUMP JUMPDEST PUSH32 0x0 PUSH20 0xFFFFFFFFFFFFFFFFFFFFFFFFFFFFFFFFFFFFFFFF AND PUSH4 0xC9219A7A DUP10 DUP10 DUP10 DUP10 PUSH1 0x40 MLOAD DUP6 PUSH4 0xFFFFFFFF AND PUSH1 0xE0 SHL DUP2 MSTORE PUSH1 0x4 ADD PUSH2 0xCFF SWAP5 SWAP4 SWAP3 SWAP2 SWAP1 PUSH2 0x24A6 JUMP JUMPDEST PUSH1 0x20 PUSH1 0x40 MLOAD DUP1 DUP4 SUB DUP2 DUP7 GAS STATICCALL ISZERO DUP1 ISZERO PUSH2 0xD1A JUMPI RETURNDATASIZE PUSH0 PUSH0 RETURNDATACOPY RETURNDATASIZE PUSH0 REVERT JUMPDEST POP POP POP POP PUSH1 0x40 MLOAD RETURNDATASIZE PUSH1 0x1F NOT PUSH1 0x1F DUP3 ADD AND DUP3 ADD DUP1 PUSH1 0x40 MSTORE POP DUP2 ADD SWAP1 PUSH2 0xD3E SWAP2 SWAP1 PUSH2 0x20EE JUMP JUMPDEST PUSH2 0xD7D JUMPI PUSH1 0x40 MLOAD PUSH32 0x8C379A000000000000000000000000000000000000000000000000000000000 DUP2 MSTORE PUSH1 0x4 ADD PUSH2 0xD74 SWAP1 PUSH2 0x2163 JUMP JUMPDEST PUSH1 0x40 MLOAD DUP1 SWAP2 SUB SWAP1 REVERT JUMPDEST PUSH0 PUSH0 PUSH0 PUSH2 0xD89 DUP9 PUSH2 0x1526 JUMP JUMPDEST SWAP3 POP SWAP3 POP SWAP3 POP PUSH0 DUP9 PUSH1 0x3 PUSH1 0x8 DUP2 LT PUSH2 0xDA4 JUMPI PUSH2 0xDA3 PUSH2 0x2181 JUMP JUMPDEST JUMPDEST PUSH1 0x20 MUL ADD CALLDATALOAD SWAP1 POP PUSH0 DUP10 PUSH1 0x4 PUSH1 0x8 DUP2 LT PUSH2 0xDC0 JUMPI PUSH2 0xDBF PUSH2 0x2181 JUMP JUMPDEST JUMPDEST PUSH1 0x20 MUL ADD CALLDATALOAD SWAP1 POP PUSH0 PUSH2 0xDD1 DUP12 PUSH2 0x143D JUMP JUMPDEST SWAP1 POP PUSH2 0xDE2 DUP2 PUSH0 SHL DUP12 DUP12 DUP12 DUP12 PUSH2 0x107B JUMP JUMPDEST PUSH1 0x1 PUSH0 DUP3 DUP2 MSTORE PUSH1 0x20 ADD SWAP1 DUP2 MSTORE PUSH1 0x20 ADD PUSH0 KECCAK256 PUSH0 SWAP1 SLOAD SWAP1 PUSH2 0x100 EXP SWAP1 DIV PUSH1 0xFF AND ISZERO PUSH2 0xE40 JUMPI PUSH1 0x40 MLOAD PUSH32 0x8C379A000000000000000000000000000000000000000000000000000000000 DUP2 MSTORE PUSH1 0x4 ADD PUSH2 0xE37 SWAP1 PUSH2 0x2260 JUMP JUMPDEST PUSH1 0x40 MLOAD DUP1 SWAP2 SUB SWAP1 REVERT JUMPDEST PUSH1 0x1 DUP1 PUSH0 DUP4 DUP2 MSTORE PUSH1 0x20 ADD SWAP1 DUP2 MSTORE PUSH1 0x20 ADD PUSH0 KECCAK256 PUSH0 PUSH2 0x100 EXP DUP2 SLOAD DUP2 PUSH1 0xFF MUL NOT AND SWAP1 DUP4 ISZERO ISZERO MUL OR SWAP1 SSTORE POP PUSH0 DUP4 PUSH1 0x80 DUP5 SWAP1 SHL OR SWAP1 POP DUP6 PUSH20 0xFFFFFFFFFFFFFFFFFFFFFFFFFFFFFFFFFFFFFFFF AND PUSH4 0x6AFBF5D6 DUP3 DUP8 DUP11 DUP7 PUSH1 0x40 MLOAD DUP6 PUSH4 0xFFFFFFFF AND PUSH1 0xE0 SHL DUP2 MSTORE PUSH1 0x4 ADD PUSH2 0xEB1 SWAP5 SWAP4 SWAP3 SWAP2 SWAP1 PUSH2 0x2544 JUMP JUMPDEST PUSH0 PUSH1 0x40 MLOAD DUP1 DUP4 SUB DUP2 PUSH0 DUP8 DUP1 EXTCODESIZE ISZERO DUP1 ISZERO PUSH2 0xEC8 JUMPI PUSH0 PUSH0 REVERT JUMPDEST POP GAS CALL ISZERO DUP1 ISZERO PUSH2 0xEDA JUMPI RETURNDATASIZE PUSH0 PUSH0 RETURNDATACOPY RETURNDATASIZE PUSH0 REVERT JUMPDEST POP POP POP POP POP POP POP POP POP POP POP POP POP POP POP POP POP POP POP JUMP JUMPDEST PUSH2 0xEF7 PUSH2 0x12F5 JUMP JUMPDEST PUSH0 PUSH20 0xFFFFFFFFFFFFFFFFFFFFFFFFFFFFFFFFFFFFFFFF AND DUP2 PUSH20 0xFFFFFFFFFFFFFFFFFFFFFFFFFFFFFFFFFFFFFFFF AND SUB PUSH2 0xF67 JUMPI PUSH0 PUSH1 0x40 MLOAD PUSH32 0x1E4FBDF700000000000000000000000000000000000000000000000000000000 DUP2 MSTORE PUSH1 0x4 ADD PUSH2 0xF5E SWAP2 SWAP1 PUSH2 0x1AB0 JUMP JUMPDEST PUSH1 0x40 MLOAD DUP1 SWAP2 SUB SWAP1 REVERT JUMPDEST PUSH2 0xF70 DUP2 PUSH2 0x137C JUMP JUMPDEST POP JUMP JUMPDEST PUSH32 0x0 DUP2 JUMP JUMPDEST PUSH0 DUP2 PUSH1 0x40 MLOAD PUSH1 0x20 ADD PUSH2 0xFA9 SWAP2 SWAP1 PUSH2 0x2602 JUMP JUMPDEST PUSH1 0x40 MLOAD PUSH1 0x20 DUP2 DUP4 SUB SUB DUP2 MSTORE SWAP1 PUSH1 0x40 MSTORE DUP1 MLOAD SWAP1 PUSH1 0x20 ADD KECCAK256 SWAP1 POP SWAP2 SWAP1 POP JUMP JUMPDEST PUSH0 PUSH0 DUP3 PUSH0 PUSH1 0x6 DUP2 LT PUSH2 0xFDB JUMPI PUSH2 0xFDA PUSH2 0x2181 JUMP JUMPDEST JUMPDEST PUSH1 0x20 MUL ADD CALLDATALOAD DUP4 PUSH1 0x1 PUSH1 0x6 DUP2 LT PUSH2 0xFF4 JUMPI PUSH2 0xFF3 PUSH2 0x2181 JUMP JUMPDEST JUMPDEST PUSH1 0x20 MUL ADD CALLDATALOAD DUP5 PUSH1 0x2 PUSH1 0x6 DUP2 LT PUSH2 0x100D JUMPI PUSH2 0x100C PUSH2 0x2181 JUMP JUMPDEST JUMPDEST PUSH1 0x20 MUL ADD CALLDATALOAD DUP6 PUSH1 0x3 PUSH1 0x6 DUP2 LT PUSH2 0x1026 JUMPI PUSH2 0x1025 PUSH2 0x2181 JUMP JUMPDEST JUMPDEST PUSH1 0x20 MUL ADD CALLDATALOAD DUP7 PUSH1 0x4 PUSH1 0x6 DUP2 LT PUSH2 0x103F JUMPI PUSH2 0x103E PUSH2 0x2181 JUMP JUMPDEST JUMPDEST PUSH1 0x20 MUL ADD CALLDATALOAD PUSH1 0x40 MLOAD PUSH1 0x20 ADD PUSH2 0x1058 SWAP6 SWAP5 SWAP4 SWAP3 SWAP2 SWAP1 PUSH2 0x2627 JUMP JUMPDEST PUSH1 0x40 MLOAD PUSH1 0x20 DUP2 DUP4 SUB SUB DUP2 MSTORE SWAP1 PUSH1 0x40 MSTORE DUP1 MLOAD SWAP1 PUSH1 0x20 ADD KECCAK256 SWAP1 POP DUP1 PUSH0 SHR SWAP2 POP POP SWAP2 SWAP1 POP JUMP JUMPDEST PUSH0 PUSH2 0x1085 DUP7 PUSH2 0xF97 JUMP JUMPDEST SWAP1 POP PUSH0 PUSH32 0x0 PUSH20 0xFFFFFFFFFFFFFFFFFFFFFFFFFFFFFFFFFFFFFFFF AND PUSH4 0x1442E4C9 PUSH1 0x40 MLOAD DUP2 PUSH4 0xFFFFFFFF AND PUSH1 0xE0 SHL DUP2 MSTORE PUSH1 0x4 ADD PUSH0 PUSH1 0x40 MLOAD DUP1 DUP4 SUB DUP2 DUP7 GAS STATICCALL ISZERO DUP1 ISZERO PUSH2 0x10F0 JUMPI RETURNDATASIZE PUSH0 PUSH0 RETURNDATACOPY RETURNDATASIZE PUSH0 REVERT JUMPDEST POP POP POP POP PUSH1 0x40 MLOAD RETURNDATASIZE PUSH0 DUP3 RETURNDATACOPY RETURNDATASIZE PUSH1 0x1F NOT PUSH1 0x1F DUP3 ADD AND DUP3 ADD DUP1 PUSH1 0x40 MSTORE POP DUP2 ADD SWAP1 PUSH2 0x1118 SWAP2 SWAP1 PUSH2 0x2759 JUMP JUMPDEST SWAP1 POP PUSH0 PUSH0 SWAP1 POP JUMPDEST DUP7 DUP7 SWAP1 POP DUP2 LT ISZERO PUSH2 0x12EB JUMPI CALLDATASIZE PUSH0 DUP7 DUP7 PUSH1 0x41 DUP6 PUSH2 0x113B SWAP2 SWAP1 PUSH2 0x27A0 JUMP JUMPDEST SWAP1 PUSH1 0x41 PUSH1 0x1 DUP8 PUSH2 0x114B SWAP2 SWAP1 PUSH2 0x2462 JUMP JUMPDEST PUSH2 0x1155 SWAP2 SWAP1 PUSH2 0x27A0 JUMP JUMPDEST SWAP3 PUSH2 0x1162 SWAP4 SWAP3 SWAP2 SWAP1 PUSH2 0x27E9 JUMP JUMPDEST SWAP2 POP SWAP2 POP PUSH0 PUSH2 0x11B4 DUP7 DUP5 DUP5 DUP1 DUP1 PUSH1 0x1F ADD PUSH1 0x20 DUP1 SWAP2 DIV MUL PUSH1 0x20 ADD PUSH1 0x40 MLOAD SWAP1 DUP2 ADD PUSH1 0x40 MSTORE DUP1 SWAP4 SWAP3 SWAP2 SWAP1 DUP2 DUP2 MSTORE PUSH1 0x20 ADD DUP4 DUP4 DUP1 DUP3 DUP5 CALLDATACOPY PUSH0 DUP2 DUP5 ADD MSTORE PUSH1 0x1F NOT PUSH1 0x1F DUP3 ADD AND SWAP1 POP DUP1 DUP4 ADD SWAP3 POP POP POP POP POP POP POP PUSH2 0x67E JUMP JUMPDEST SWAP1 POP PUSH0 PUSH20 0xFFFFFFFFFFFFFFFFFFFFFFFFFFFFFFFFFFFFFFFF AND DUP2 PUSH20 0xFFFFFFFFFFFFFFFFFFFFFFFFFFFFFFFFFFFFFFFF AND SUB PUSH2 0x1224 JUMPI PUSH1 0x40 MLOAD PUSH32 0x8C379A000000000000000000000000000000000000000000000000000000000 DUP2 MSTORE PUSH1 0x4 ADD PUSH2 0x121B SWAP1 PUSH2 0x286D JUMP JUMPDEST PUSH1 0x40 MLOAD DUP1 SWAP2 SUB SWAP1 REVERT JUMPDEST PUSH0 PUSH0 SWAP1 POP PUSH0 PUSH0 SWAP1 POP JUMPDEST DUP7 MLOAD DUP2 LT ISZERO PUSH2 0x1299 JUMPI DUP3 PUSH20 0xFFFFFFFFFFFFFFFFFFFFFFFFFFFFFFFFFFFFFFFF AND DUP8 DUP3 DUP2 MLOAD DUP2 LT PUSH2 0x1260 JUMPI PUSH2 0x125F PUSH2 0x2181 JUMP JUMPDEST JUMPDEST PUSH1 0x20 MUL PUSH1 0x20 ADD ADD MLOAD PUSH20 0xFFFFFFFFFFFFFFFFFFFFFFFFFFFFFFFFFFFFFFFF AND SUB PUSH2 0x128C JUMPI PUSH1 0x1 SWAP2 POP PUSH2 0x1299 JUMP JUMPDEST DUP1 DUP1 PUSH1 0x1 ADD SWAP2 POP POP PUSH2 0x122D JUMP JUMPDEST POP DUP1 PUSH2 0x12DA JUMPI PUSH1 0x40 MLOAD PUSH32 0x8C379A000000000000000000000000000000000000000000000000000000000 DUP2 MSTORE PUSH1 0x4 ADD PUSH2 0x12D1 SWAP1 PUSH2 0x28D5 JUMP JUMPDEST PUSH1 0x40 MLOAD DUP1 SWAP2 SUB SWAP1 REVERT JUMPDEST POP POP POP POP DUP1 DUP1 PUSH1 0x1 ADD SWAP2 POP POP PUSH2 0x111F JUMP JUMPDEST POP POP POP POP POP POP POP POP JUMP JUMPDEST PUSH2 0x12FD PUSH2 0x1710 JUMP JUMPDEST PUSH20 0xFFFFFFFFFFFFFFFFFFFFFFFFFFFFFFFFFFFFFFFF AND PUSH2 0x131B PUSH2 0x657 JUMP JUMPDEST PUSH20 0xFFFFFFFFFFFFFFFFFFFFFFFFFFFFFFFFFFFFFFFF AND EQ PUSH2 0x137A JUMPI PUSH2 0x133E PUSH2 0x1710 JUMP JUMPDEST PUSH1 0x40 MLOAD PUSH32 0x118CDAA700000000000000000000000000000000000000000000000000000000 DUP2 MSTORE PUSH1 0x4 ADD PUSH2 0x1371 SWAP2 SWAP1 PUSH2 0x1AB0 JUMP JUMPDEST PUSH1 0x40 MLOAD DUP1 SWAP2 SUB SWAP1 REVERT JUMPDEST JUMP JUMPDEST PUSH0 PUSH0 PUSH0 SWAP1 SLOAD SWAP1 PUSH2 0x100 EXP SWAP1 DIV PUSH20 0xFFFFFFFFFFFFFFFFFFFFFFFFFFFFFFFFFFFFFFFF AND SWAP1 POP DUP2 PUSH0 PUSH0 PUSH2 0x100 EXP DUP2 SLOAD DUP2 PUSH20 0xFFFFFFFFFFFFFFFFFFFFFFFFFFFFFFFFFFFFFFFF MUL NOT AND SWAP1 DUP4 PUSH20 0xFFFFFFFFFFFFFFFFFFFFFFFFFFFFFFFFFFFFFFFF AND MUL OR SWAP1 SSTORE POP DUP2 PUSH20 0xFFFFFFFFFFFFFFFFFFFFFFFFFFFFFFFFFFFFFFFF AND DUP2 PUSH20 0xFFFFFFFFFFFFFFFFFFFFFFFFFFFFFFFFFFFFFFFF AND PUSH32 0x8BE0079C531659141344CD1FD0A4F28419497F9722A3DAAFE3B4186F6B6457E0 PUSH1 0x40 MLOAD PUSH1 0x40 MLOAD DUP1 SWAP2 SUB SWAP1 LOG3 POP POP JUMP JUMPDEST PUSH0 PUSH0 DUP3 PUSH0 PUSH1 0x8 DUP2 LT PUSH2 0x1452 JUMPI PUSH2 0x1451 PUSH2 0x2181 JUMP JUMPDEST JUMPDEST PUSH1 0x20 MUL ADD CALLDATALOAD DUP4 PUSH1 0x1 PUSH1 0x8 DUP2 LT PUSH2 0x146B JUMPI PUSH2 0x146A PUSH2 0x2181 JUMP JUMPDEST JUMPDEST PUSH1 0x20 MUL ADD CALLDATALOAD DUP5 PUSH1 0x2 PUSH1 0x8 DUP2 LT PUSH2 0x1484 JUMPI PUSH2 0x1483 PUSH2 0x2181 JUMP JUMPDEST JUMPDEST PUSH1 0x20 MUL ADD CALLDATALOAD DUP6 PUSH1 0x3 PUSH1 0x8 DUP2 LT PUSH2 0x149D JUMPI PUSH2 0x149C PUSH2 0x2181 JUMP JUMPDEST JUMPDEST PUSH1 0x20 MUL ADD CALLDATALOAD DUP7 PUSH1 0x4 PUSH1 0x8 DUP2 LT PUSH2 0x14B6 JUMPI PUSH2 0x14B5 PUSH2 0x2181 JUMP JUMPDEST JUMPDEST PUSH1 0x20 MUL ADD CALLDATALOAD DUP8 PUSH1 0x5 PUSH1 0x8 DUP2 LT PUSH2 0x14CF JUMPI PUSH2 0x14CE PUSH2 0x2181 JUMP JUMPDEST JUMPDEST PUSH1 0x20 MUL ADD CALLDATALOAD DUP9 PUSH1 0x6 PUSH1 0x8 DUP2 LT PUSH2 0x14E8 JUMPI PUSH2 0x14E7 PUSH2 0x2181 JUMP JUMPDEST JUMPDEST PUSH1 0x20 MUL ADD CALLDATALOAD PUSH1 0x40 MLOAD PUSH1 0x20 ADD PUSH2 0x1503 SWAP8 SWAP7 SWAP6 SWAP5 SWAP4 SWAP3 SWAP2 SWAP1 PUSH2 0x28F3 JUMP JUMPDEST PUSH1 0x40 MLOAD PUSH1 0x20 DUP2 DUP4 SUB SUB DUP2 MSTORE SWAP1 PUSH1 0x40 MSTORE DUP1 MLOAD SWAP1 PUSH1 0x20 ADD KECCAK256 SWAP1 POP DUP1 PUSH0 SHR SWAP2 POP POP SWAP2 SWAP1 POP JUMP JUMPDEST PUSH0 PUSH0 PUSH1 0x60 PUSH0 DUP5 PUSH1 0x7 PUSH1 0x8 DUP2 LT PUSH2 0x153F JUMPI PUSH2 0x153E PUSH2 0x2181 JUMP JUMPDEST JUMPDEST PUSH1 0x20 MUL ADD CALLDATALOAD SWAP1 POP PUSH0 PUSH4 0xFFFFFFFF DUP3 AND SWAP1 POP PUSH8 0xFFFFFFFFFFFFFFFF PUSH1 0x20 DUP4 SWAP1 SHR AND SWAP5 POP CHAINID DUP2 EQ PUSH2 0x15A3 JUMPI PUSH1 0x40 MLOAD PUSH32 0x8C379A000000000000000000000000000000000000000000000000000000000 DUP2 MSTORE PUSH1 0x4 ADD PUSH2 0x159A SWAP1 PUSH2 0x21F8 JUMP JUMPDEST PUSH1 0x40 MLOAD DUP1 SWAP2 SUB SWAP1 REVERT JUMPDEST PUSH2 0x15C4 DUP7 PUSH1 0x5 PUSH1 0x8 DUP2 LT PUSH2 0x15BA JUMPI PUSH2 0x15B9 PUSH2 0x2181 JUMP JUMPDEST JUMPDEST PUSH1 0x20 MUL ADD CALLDATALOAD PUSH2 0x799 JUMP JUMPDEST SWAP3 POP PUSH0 PUSH2 0x15E8 DUP8 PUSH1 0x6 PUSH1 0x8 DUP2 LT PUSH2 0x15DE JUMPI PUSH2 0x15DD PUSH2 0x2181 JUMP JUMPDEST JUMPDEST PUSH1 0x20 MUL ADD CALLDATALOAD PUSH2 0x799 JUMP JUMPDEST SWAP1 POP PUSH0 DUP2 PUSH1 0x40 MLOAD PUSH1 0x20 ADD PUSH2 0x15FC SWAP2 SWAP1 PUSH2 0x29ED JUMP JUMPDEST PUSH1 0x40 MLOAD PUSH1 0x20 DUP2 DUP4 SUB SUB DUP2 MSTORE SWAP1 PUSH1 0x40 MSTORE SWAP1 POP PUSH0 PUSH32 0x0 PUSH20 0xFFFFFFFFFFFFFFFFFFFFFFFFFFFFFFFFFFFFFFFF AND PUSH4 0x16F1ADC1 DUP4 PUSH1 0x40 MLOAD DUP3 PUSH4 0xFFFFFFFF AND PUSH1 0xE0 SHL DUP2 MSTORE PUSH1 0x4 ADD PUSH2 0x1667 SWAP2 SWAP1 PUSH2 0x2A58 JUMP JUMPDEST PUSH0 PUSH1 0x40 MLOAD DUP1 DUP4 SUB DUP2 DUP7 GAS STATICCALL ISZERO DUP1 ISZERO PUSH2 0x1681 JUMPI RETURNDATASIZE PUSH0 PUSH0 RETURNDATACOPY RETURNDATASIZE PUSH0 REVERT JUMPDEST POP POP POP POP PUSH1 0x40 MLOAD RETURNDATASIZE PUSH0 DUP3 RETURNDATACOPY RETURNDATASIZE PUSH1 0x1F NOT PUSH1 0x1F DUP3 ADD AND DUP3 ADD DUP1 PUSH1 0x40 MSTORE POP DUP2 ADD SWAP1 PUSH2 0x16A9 SWAP2 SWAP1 PUSH2 0x2AF9 JUMP JUMPDEST SWAP1 POP PUSH0 DUP2 MLOAD GT PUSH2 0x16EE JUMPI PUSH1 0x40 MLOAD PUSH32 0x8C379A000000000000000000000000000000000000000000000000000000000 DUP2 MSTORE PUSH1 0x4 ADD PUSH2 0x16E5 SWAP1 PUSH2 0x2B8A JUMP JUMPDEST PUSH1 0x40 MLOAD DUP1 SWAP2 SUB SWAP1 REVERT JUMPDEST DUP1 DUP1 PUSH1 0x20 ADD SWAP1 MLOAD DUP2 ADD SWAP1 PUSH2 0x1702 SWAP2 SWAP1 PUSH2 0x2BE3 JUMP JUMPDEST SWAP7 POP POP POP POP POP POP SWAP2 SWAP4 SWAP1 SWAP3 POP JUMP JUMPDEST PUSH0 CALLER SWAP1 POP SWAP1 JUMP JUMPDEST PUSH0 PUSH1 0x40 MLOAD SWAP1 POP SWAP1 JUMP JUMPDEST PUSH0 PUSH0 REVERT JUMPDEST PUSH0 PUSH0 REVERT JUMPDEST PUSH0 PUSH0 REVERT JUMPDEST PUSH0 DUP2 SWAP1 POP DUP3 PUSH1 0x20 PUSH1 0x2 MUL DUP3 ADD GT ISZERO PUSH2 0x1747 JUMPI PUSH2 0x1746 PUSH2 0x1728 JUMP JUMPDEST JUMPDEST SWAP3 SWAP2 POP POP JUMP JUMPDEST PUSH0 DUP2 SWAP1 POP DUP3 PUSH1 0x40 PUSH1 0x2 MUL DUP3 ADD GT ISZERO PUSH2 0x1768 JUMPI PUSH2 0x1767 PUSH2 0x1728 JUMP JUMPDEST JUMPDEST SWAP3 SWAP2 POP POP JUMP JUMPDEST PUSH0 DUP2 SWAP1 POP DUP3 PUSH1 0x20 PUSH1 0x6 MUL DUP3 ADD GT ISZERO PUSH2 0x1789 JUMPI PUSH2 0x1788 PUSH2 0x1728 JUMP JUMPDEST JUMPDEST SWAP3 SWAP2 POP POP JUMP JUMPDEST PUSH0 PUSH0 REVERT JUMPDEST PUSH0 PUSH0 REVERT JUMPDEST PUSH0 PUSH0 DUP4 PUSH1 0x1F DUP5 ADD SLT PUSH2 0x17AC JUMPI PUSH2 0x17AB PUSH2 0x178F JUMP JUMPDEST JUMPDEST DUP3 CALLDATALOAD SWAP1 POP PUSH8 0xFFFFFFFFFFFFFFFF DUP2 GT ISZERO PUSH2 0x17C9 JUMPI PUSH2 0x17C8 PUSH2 0x1793 JUMP JUMPDEST JUMPDEST PUSH1 0x20 DUP4 ADD SWAP2 POP DUP4 PUSH1 0x20 DUP3 MUL DUP4 ADD GT ISZERO PUSH2 0x17E5 JUMPI PUSH2 0x17E4 PUSH2 0x1728 JUMP JUMPDEST JUMPDEST SWAP3 POP SWAP3 SWAP1 POP JUMP JUMPDEST PUSH0 PUSH0 DUP4 PUSH1 0x1F DUP5 ADD SLT PUSH2 0x1801 JUMPI PUSH2 0x1800 PUSH2 0x178F JUMP JUMPDEST JUMPDEST DUP3 CALLDATALOAD SWAP1 POP PUSH8 0xFFFFFFFFFFFFFFFF DUP2 GT ISZERO PUSH2 0x181E JUMPI PUSH2 0x181D PUSH2 0x1793 JUMP JUMPDEST JUMPDEST PUSH1 0x20 DUP4 ADD SWAP2 POP DUP4 PUSH1 0x1 DUP3 MUL DUP4 ADD GT ISZERO PUSH2 0x183A JUMPI PUSH2 0x1839 PUSH2 0x1728 JUMP JUMPDEST JUMPDEST SWAP3 POP SWAP3 SWAP1 POP JUMP JUMPDEST PUSH0 PUSH0 PUSH0 PUSH0 PUSH0 PUSH0 PUSH0 PUSH0 PUSH2 0x200 DUP10 DUP12 SUB SLT ISZERO PUSH2 0x185E JUMPI PUSH2 0x185D PUSH2 0x1720 JUMP JUMPDEST JUMPDEST PUSH0 PUSH2 0x186B DUP12 DUP3 DUP13 ADD PUSH2 0x172C JUMP JUMPDEST SWAP9 POP POP PUSH1 0x40 PUSH2 0x187C DUP12 DUP3 DUP13 ADD PUSH2 0x174D JUMP JUMPDEST SWAP8 POP POP PUSH1 0xC0 PUSH2 0x188D DUP12 DUP3 DUP13 ADD PUSH2 0x172C JUMP JUMPDEST SWAP7 POP POP PUSH2 0x100 PUSH2 0x189F DUP12 DUP3 DUP13 ADD PUSH2 0x176E JUMP JUMPDEST SWAP6 POP POP PUSH2 0x1C0 DUP10 ADD CALLDATALOAD PUSH8 0xFFFFFFFFFFFFFFFF DUP2 GT ISZERO PUSH2 0x18C1 JUMPI PUSH2 0x18C0 PUSH2 0x1724 JUMP JUMPDEST JUMPDEST PUSH2 0x18CD DUP12 DUP3 DUP13 ADD PUSH2 0x1797 JUMP JUMPDEST SWAP5 POP SWAP5 POP POP PUSH2 0x1E0 DUP10 ADD CALLDATALOAD PUSH8 0xFFFFFFFFFFFFFFFF DUP2 GT ISZERO PUSH2 0x18F1 JUMPI PUSH2 0x18F0 PUSH2 0x1724 JUMP JUMPDEST JUMPDEST PUSH2 0x18FD DUP12 DUP3 DUP13 ADD PUSH2 0x17EC JUMP JUMPDEST SWAP3 POP SWAP3 POP POP SWAP3 SWAP6 SWAP9 POP SWAP3 SWAP6 SWAP9 SWAP1 SWAP4 SWAP7 POP JUMP JUMPDEST PUSH0 DUP2 SWAP1 POP SWAP2 SWAP1 POP JUMP JUMPDEST PUSH2 0x1921 DUP2 PUSH2 0x190F JUMP JUMPDEST DUP2 EQ PUSH2 0x192B JUMPI PUSH0 PUSH0 REVERT JUMPDEST POP JUMP JUMPDEST PUSH0 DUP2 CALLDATALOAD SWAP1 POP PUSH2 0x193C DUP2 PUSH2 0x1918 JUMP JUMPDEST SWAP3 SWAP2 POP POP JUMP JUMPDEST PUSH0 PUSH1 0x20 DUP3 DUP5 SUB SLT ISZERO PUSH2 0x1957 JUMPI PUSH2 0x1956 PUSH2 0x1720 JUMP JUMPDEST JUMPDEST PUSH0 PUSH2 0x1964 DUP5 DUP3 DUP6 ADD PUSH2 0x192E JUMP JUMPDEST SWAP2 POP POP SWAP3 SWAP2 POP POP JUMP JUMPDEST PUSH0 DUP2 MLOAD SWAP1 POP SWAP2 SWAP1 POP JUMP JUMPDEST PUSH0 DUP3 DUP3 MSTORE PUSH1 0x20 DUP3 ADD SWAP1 POP SWAP3 SWAP2 POP POP JUMP JUMPDEST DUP3 DUP2 DUP4 MCOPY PUSH0 DUP4 DUP4 ADD MSTORE POP POP POP JUMP JUMPDEST PUSH0 PUSH1 0x1F NOT PUSH1 0x1F DUP4 ADD AND SWAP1 POP SWAP2 SWAP1 POP JUMP JUMPDEST PUSH0 PUSH2 0x19AF DUP3 PUSH2 0x196D JUMP JUMPDEST PUSH2 0x19B9 DUP2 DUP6 PUSH2 0x1977 JUMP JUMPDEST SWAP4 POP PUSH2 0x19C9 DUP2 DUP6 PUSH1 0x20 DUP7 ADD PUSH2 0x1987 JUMP JUMPDEST PUSH2 0x19D2 DUP2 PUSH2 0x1995 JUMP JUMPDEST DUP5 ADD SWAP2 POP POP SWAP3 SWAP2 POP POP JUMP JUMPDEST PUSH0 PUSH1 0x20 DUP3 ADD SWAP1 POP DUP2 DUP2 SUB PUSH0 DUP4 ADD MSTORE PUSH2 0x19F5 DUP2 DUP5 PUSH2 0x19A5 JUMP JUMPDEST SWAP1 POP SWAP3 SWAP2 POP POP JUMP JUMPDEST PUSH0 PUSH20 0xFFFFFFFFFFFFFFFFFFFFFFFFFFFFFFFFFFFFFFFF DUP3 AND SWAP1 POP SWAP2 SWAP1 POP JUMP JUMPDEST PUSH0 DUP2 SWAP1 POP SWAP2 SWAP1 POP JUMP JUMPDEST PUSH0 PUSH2 0x1A3F PUSH2 0x1A3A PUSH2 0x1A35 DUP5 PUSH2 0x19FD JUMP JUMPDEST PUSH2 0x1A1C JUMP JUMPDEST PUSH2 0x19FD JUMP JUMPDEST SWAP1 POP SWAP2 SWAP1 POP JUMP JUMPDEST PUSH0 PUSH2 0x1A50 DUP3 PUSH2 0x1A25 JUMP JUMPDEST SWAP1 POP SWAP2 SWAP1 POP JUMP JUMPDEST PUSH0 PUSH2 0x1A61 DUP3 PUSH2 0x1A46 JUMP JUMPDEST SWAP1 POP SWAP2 SWAP1 POP JUMP JUMPDEST PUSH2 0x1A71 DUP2 PUSH2 0x1A57 JUMP JUMPDEST DUP3 MSTORE POP POP JUMP JUMPDEST PUSH0 PUSH1 0x20 DUP3 ADD SWAP1 POP PUSH2 0x1A8A PUSH0 DUP4 ADD DUP5 PUSH2 0x1A68 JUMP JUMPDEST SWAP3 SWAP2 POP POP JUMP JUMPDEST PUSH0 PUSH2 0x1A9A DUP3 PUSH2 0x19FD JUMP JUMPDEST SWAP1 POP SWAP2 SWAP1 POP JUMP JUMPDEST PUSH2 0x1AAA DUP2 PUSH2 0x1A90 JUMP JUMPDEST DUP3 MSTORE POP POP JUMP JUMPDEST PUSH0 PUSH1 0x20 DUP3 ADD SWAP1 POP PUSH2 0x1AC3 PUSH0 DUP4 ADD DUP5 PUSH2 0x1AA1 JUMP JUMPDEST SWAP3 SWAP2 POP POP JUMP JUMPDEST PUSH0 DUP2 SWAP1 POP SWAP2 SWAP1 POP JUMP JUMPDEST PUSH2 0x1ADB DUP2 PUSH2 0x1AC9 JUMP JUMPDEST DUP2 EQ PUSH2 0x1AE5 JUMPI PUSH0 PUSH0 REVERT JUMPDEST POP JUMP JUMPDEST PUSH0 DUP2 CALLDATALOAD SWAP1 POP PUSH2 0x1AF6 DUP2 PUSH2 0x1AD2 JUMP JUMPDEST SWAP3 SWAP2 POP POP JUMP JUMPDEST PUSH0 PUSH0 REVERT JUMPDEST PUSH32 0x4E487B7100000000000000000000000000000000000000000000000000000000 PUSH0 MSTORE PUSH1 0x41 PUSH1 0x4 MSTORE PUSH1 0x24 PUSH0 REVERT JUMPDEST PUSH2 0x1B36 DUP3 PUSH2 0x1995 JUMP JUMPDEST DUP2 ADD DUP2 DUP2 LT PUSH8 0xFFFFFFFFFFFFFFFF DUP3 GT OR ISZERO PUSH2 0x1B55 JUMPI PUSH2 0x1B54 PUSH2 0x1B00 JUMP JUMPDEST JUMPDEST DUP1 PUSH1 0x40 MSTORE POP POP POP JUMP JUMPDEST PUSH0 PUSH2 0x1B67 PUSH2 0x1717 JUMP JUMPDEST SWAP1 POP PUSH2 0x1B73 DUP3 DUP3 PUSH2 0x1B2D JUMP JUMPDEST SWAP2 SWAP1 POP JUMP JUMPDEST PUSH0 PUSH8 0xFFFFFFFFFFFFFFFF DUP3 GT ISZERO PUSH2 0x1B92 JUMPI PUSH2 0x1B91 PUSH2 0x1B00 JUMP JUMPDEST JUMPDEST PUSH2 0x1B9B DUP3 PUSH2 0x1995 JUMP JUMPDEST SWAP1 POP PUSH1 0x20 DUP2 ADD SWAP1 POP SWAP2 SWAP1 POP JUMP JUMPDEST DUP3 DUP2 DUP4 CALLDATACOPY PUSH0 DUP4 DUP4 ADD MSTORE POP POP POP JUMP JUMPDEST PUSH0 PUSH2 0x1BC8 PUSH2 0x1BC3 DUP5 PUSH2 0x1B78 JUMP JUMPDEST PUSH2 0x1B5E JUMP JUMPDEST SWAP1 POP DUP3 DUP2 MSTORE PUSH1 0x20 DUP2 ADD DUP5 DUP5 DUP5 ADD GT ISZERO PUSH2 0x1BE4 JUMPI PUSH2 0x1BE3 PUSH2 0x1AFC JUMP JUMPDEST JUMPDEST PUSH2 0x1BEF DUP5 DUP3 DUP6 PUSH2 0x1BA8 JUMP JUMPDEST POP SWAP4 SWAP3 POP POP POP JUMP JUMPDEST PUSH0 DUP3 PUSH1 0x1F DUP4 ADD SLT PUSH2 0x1C0B JUMPI PUSH2 0x1C0A PUSH2 0x178F JUMP JUMPDEST JUMPDEST DUP2 CALLDATALOAD PUSH2 0x1C1B DUP5 DUP3 PUSH1 0x20 DUP7 ADD PUSH2 0x1BB6 JUMP JUMPDEST SWAP2 POP POP SWAP3 SWAP2 POP POP JUMP JUMPDEST PUSH0 PUSH0 PUSH1 0x40 DUP4 DUP6 SUB SLT ISZERO PUSH2 0x1C3A JUMPI PUSH2 0x1C39 PUSH2 0x1720 JUMP JUMPDEST JUMPDEST PUSH0 PUSH2 0x1C47 DUP6 DUP3 DUP7 ADD PUSH2 0x1AE8 JUMP JUMPDEST SWAP3 POP POP PUSH1 0x20 DUP4 ADD CALLDATALOAD PUSH8 0xFFFFFFFFFFFFFFFF DUP2 GT ISZERO PUSH2 0x1C68 JUMPI PUSH2 0x1C67 PUSH2 0x1724 JUMP JUMPDEST JUMPDEST PUSH2 0x1C74 DUP6 DUP3 DUP7 ADD PUSH2 0x1BF7 JUMP JUMPDEST SWAP2 POP POP SWAP3 POP SWAP3 SWAP1 POP JUMP JUMPDEST PUSH0 DUP2 ISZERO ISZERO SWAP1 POP SWAP2 SWAP1 POP JUMP JUMPDEST PUSH2 0x1C92 DUP2 PUSH2 0x1C7E JUMP JUMPDEST DUP3 MSTORE POP POP JUMP JUMPDEST PUSH0 PUSH1 0x20 DUP3 ADD SWAP1 POP PUSH2 0x1CAB PUSH0 DUP4 ADD DUP5 PUSH2 0x1C89 JUMP JUMPDEST SWAP3 SWAP2 POP POP JUMP JUMPDEST PUSH0 PUSH2 0x1CBB DUP3 PUSH2 0x1A46 JUMP JUMPDEST SWAP1 POP SWAP2 SWAP1 POP JUMP JUMPDEST PUSH2 0x1CCB DUP2 PUSH2 0x1CB1 JUMP JUMPDEST DUP3 MSTORE POP POP JUMP JUMPDEST PUSH0 PUSH1 0x20 DUP3 ADD SWAP1 POP PUSH2 0x1CE4 PUSH0 DUP4 ADD DUP5 PUSH2 0x1CC2 JUMP JUMPDEST SWAP3 SWAP2 POP POP JUMP JUMPDEST PUSH0 PUSH2 0x1CF4 DUP3 PUSH2 0x1A46 JUMP JUMPDEST SWAP1 POP SWAP2 SWAP1 POP JUMP JUMPDEST PUSH2 0x1D04 DUP2 PUSH2 0x1CEA JUMP JUMPDEST DUP3 MSTORE POP POP JUMP JUMPDEST PUSH0 PUSH1 0x20 DUP3 ADD SWAP1 POP PUSH2 0x1D1D PUSH0 DUP4 ADD DUP5 PUSH2 0x1CFB JUMP JUMPDEST SWAP3 SWAP2 POP POP JUMP JUMPDEST PUSH0 DUP2 MLOAD SWAP1 POP SWAP2 SWAP1 POP JUMP JUMPDEST PUSH0 DUP3 DUP3 MSTORE PUSH1 0x20 DUP3 ADD SWAP1 POP SWAP3 SWAP2 POP POP JUMP JUMPDEST PUSH0 PUSH2 0x1D47 DUP3 PUSH2 0x1D23 JUMP JUMPDEST PUSH2 0x1D51 DUP2 DUP6 PUSH2 0x1D2D JUMP JUMPDEST SWAP4 POP PUSH2 0x1D61 DUP2 DUP6 PUSH1 0x20 DUP7 ADD PUSH2 0x1987 JUMP JUMPDEST PUSH2 0x1D6A DUP2 PUSH2 0x1995 JUMP JUMPDEST DUP5 ADD SWAP2 POP POP SWAP3 SWAP2 POP POP JUMP JUMPDEST PUSH0 PUSH1 0x20 DUP3 ADD SWAP1 POP DUP2 DUP2 SUB PUSH0 DUP4 ADD MSTORE PUSH2 0x1D8D DUP2 DUP5 PUSH2 0x1D3D JUMP JUMPDEST SWAP1 POP SWAP3 SWAP2 POP POP JUMP JUMPDEST PUSH0 PUSH2 0x1D9F DUP3 PUSH2 0x1A46 JUMP JUMPDEST SWAP1 POP SWAP2 SWAP1 POP JUMP JUMPDEST PUSH2 0x1DAF DUP2 PUSH2 0x1D95 JUMP JUMPDEST DUP3 MSTORE POP POP JUMP JUMPDEST PUSH0 PUSH1 0x20 DUP3 ADD SWAP1 POP PUSH2 0x1DC8 PUSH0 DUP4 ADD DUP5 PUSH2 0x1DA6 JUMP JUMPDEST SWAP3 SWAP2 POP POP JUMP JUMPDEST PUSH0 DUP2 SWAP1 POP DUP3 PUSH1 0x20 PUSH1 0x8 MUL DUP3 ADD GT ISZERO PUSH2 0x1DE9 JUMPI PUSH2 0x1DE8 PUSH2 0x1728 JUMP JUMPDEST JUMPDEST SWAP3 SWAP2 POP POP JUMP JUMPDEST PUSH0 PUSH0 PUSH0 PUSH0 PUSH0 PUSH0 PUSH0 PUSH0 PUSH2 0x240 DUP10 DUP12 SUB SLT ISZERO PUSH2 0x1E0C JUMPI PUSH2 0x1E0B PUSH2 0x1720 JUMP JUMPDEST JUMPDEST PUSH0 PUSH2 0x1E19 DUP12 DUP3 DUP13 ADD PUSH2 0x172C JUMP JUMPDEST SWAP9 POP POP PUSH1 0x40 PUSH2 0x1E2A DUP12 DUP3 DUP13 ADD PUSH2 0x174D JUMP JUMPDEST SWAP8 POP POP PUSH1 0xC0 PUSH2 0x1E3B DUP12 DUP3 DUP13 ADD PUSH2 0x172C JUMP JUMPDEST SWAP7 POP POP PUSH2 0x100 PUSH2 0x1E4D DUP12 DUP3 DUP13 ADD PUSH2 0x1DCE JUMP JUMPDEST SWAP6 POP POP PUSH2 0x200 DUP10 ADD CALLDATALOAD PUSH8 0xFFFFFFFFFFFFFFFF DUP2 GT ISZERO PUSH2 0x1E6F JUMPI PUSH2 0x1E6E PUSH2 0x1724 JUMP JUMPDEST JUMPDEST PUSH2 0x1E7B DUP12 DUP3 DUP13 ADD PUSH2 0x1797 JUMP JUMPDEST SWAP5 POP SWAP5 POP POP PUSH2 0x220 DUP10 ADD CALLDATALOAD PUSH8 0xFFFFFFFFFFFFFFFF DUP2 GT ISZERO PUSH2 0x1E9F JUMPI PUSH2 0x1E9E PUSH2 0x1724 JUMP JUMPDEST JUMPDEST PUSH2 0x1EAB DUP12 DUP3 DUP13 ADD PUSH2 0x17EC JUMP JUMPDEST SWAP3 POP SWAP3 POP POP SWAP3 SWAP6 SWAP9 POP SWAP3 SWAP6 SWAP9 SWAP1 SWAP4 SWAP7 POP JUMP JUMPDEST PUSH2 0x1EC6 DUP2 PUSH2 0x1A90 JUMP JUMPDEST DUP2 EQ PUSH2 0x1ED0 JUMPI PUSH0 PUSH0 REVERT JUMPDEST POP JUMP JUMPDEST PUSH0 DUP2 CALLDATALOAD SWAP1 POP PUSH2 0x1EE1 DUP2 PUSH2 0x1EBD JUMP JUMPDEST SWAP3 SWAP2 POP POP JUMP JUMPDEST PUSH0 PUSH1 0x20 DUP3 DUP5 SUB SLT ISZERO PUSH2 0x1EFC JUMPI PUSH2 0x1EFB PUSH2 0x1720 JUMP JUMPDEST JUMPDEST PUSH0 PUSH2 0x1F09 DUP5 DUP3 DUP6 ADD PUSH2 0x1ED3 JUMP JUMPDEST SWAP2 POP POP SWAP3 SWAP2 POP POP JUMP JUMPDEST PUSH0 PUSH2 0x1F1C DUP3 PUSH2 0x1A46 JUMP JUMPDEST SWAP1 POP SWAP2 SWAP1 POP JUMP JUMPDEST PUSH2 0x1F2C DUP2 PUSH2 0x1F12 JUMP JUMPDEST DUP3 MSTORE POP POP JUMP JUMPDEST PUSH0 PUSH1 0x20 DUP3 ADD SWAP1 POP PUSH2 0x1F45 PUSH0 DUP4 ADD DUP5 PUSH2 0x1F23 JUMP JUMPDEST SWAP3 SWAP2 POP POP JUMP JUMPDEST PUSH0 PUSH1 0x20 DUP3 DUP5 SUB SLT ISZERO PUSH2 0x1F60 JUMPI PUSH2 0x1F5F PUSH2 0x1720 JUMP JUMPDEST JUMPDEST PUSH0 PUSH2 0x1F6D DUP5 DUP3 DUP6 ADD PUSH2 0x1AE8 JUMP JUMPDEST SWAP2 POP POP SWAP3 SWAP2 POP POP JUMP JUMPDEST PUSH2 0x1F7F DUP2 PUSH2 0x1AC9 JUMP JUMPDEST DUP3 MSTORE POP POP JUMP JUMPDEST PUSH0 PUSH1 0x20 DUP3 ADD SWAP1 POP PUSH2 0x1F98 PUSH0 DUP4 ADD DUP5 PUSH2 0x1F76 JUMP JUMPDEST SWAP3 SWAP2 POP POP JUMP JUMPDEST DUP3 DUP2 DUP4 CALLDATACOPY POP POP POP JUMP JUMPDEST PUSH2 0x1FB3 PUSH1 0x40 DUP4 DUP4 PUSH2 0x1F9E JUMP JUMPDEST POP POP JUMP JUMPDEST PUSH0 PUSH1 0x2 SWAP1 POP SWAP2 SWAP1 POP JUMP JUMPDEST PUSH0 DUP2 SWAP1 POP SWAP3 SWAP2 POP POP JUMP JUMPDEST PUSH0 DUP2 SWAP1 POP SWAP2 SWAP1 POP JUMP JUMPDEST PUSH2 0x1FE0 PUSH1 0x40 DUP4 DUP4 PUSH2 0x1F9E JUMP JUMPDEST POP POP JUMP JUMPDEST PUSH0 PUSH2 0x1FEF DUP4 DUP4 PUSH2 0x1FD4 JUMP JUMPDEST PUSH1 0x40 DUP4 ADD SWAP1 POP SWAP3 SWAP2 POP POP JUMP JUMPDEST PUSH0 DUP3 SWAP1 POP SWAP3 SWAP2 POP POP JUMP JUMPDEST PUSH0 PUSH1 0x40 DUP3 ADD SWAP1 POP SWAP2 SWAP1 POP JUMP JUMPDEST PUSH2 0x201A DUP2 PUSH2 0x1FB7 JUMP JUMPDEST PUSH2 0x2024 DUP2 DUP5 PUSH2 0x1FC1 JUMP JUMPDEST SWAP3 POP PUSH2 0x202F DUP3 PUSH2 0x1FCB JUMP JUMPDEST DUP1 PUSH0 JUMPDEST DUP4 DUP2 LT ISZERO PUSH2 0x2067 JUMPI PUSH2 0x2044 DUP3 DUP5 PUSH2 0x1FFB JUMP JUMPDEST PUSH2 0x204E DUP8 DUP3 PUSH2 0x1FE4 JUMP JUMPDEST SWAP7 POP PUSH2 0x2059 DUP4 PUSH2 0x2005 JUMP JUMPDEST SWAP3 POP POP PUSH1 0x1 DUP2 ADD SWAP1 POP PUSH2 0x2032 JUMP JUMPDEST POP POP POP POP POP POP JUMP JUMPDEST PUSH2 0x207B PUSH1 0xC0 DUP4 DUP4 PUSH2 0x1F9E JUMP JUMPDEST POP POP JUMP JUMPDEST PUSH0 PUSH2 0x1C0 DUP3 ADD SWAP1 POP PUSH2 0x2093 PUSH0 DUP4 ADD DUP8 PUSH2 0x1FA7 JUMP JUMPDEST PUSH2 0x20A0 PUSH1 0x40 DUP4 ADD DUP7 PUSH2 0x2011 JUMP JUMPDEST PUSH2 0x20AD PUSH1 0xC0 DUP4 ADD DUP6 PUSH2 0x1FA7 JUMP JUMPDEST PUSH2 0x20BB PUSH2 0x100 DUP4 ADD DUP5 PUSH2 0x206F JUMP JUMPDEST SWAP6 SWAP5 POP POP POP POP POP JUMP JUMPDEST PUSH2 0x20CD DUP2 PUSH2 0x1C7E JUMP JUMPDEST DUP2 EQ PUSH2 0x20D7 JUMPI PUSH0 PUSH0 REVERT JUMPDEST POP JUMP JUMPDEST PUSH0 DUP2 MLOAD SWAP1 POP PUSH2 0x20E8 DUP2 PUSH2 0x20C4 JUMP JUMPDEST SWAP3 SWAP2 POP POP JUMP JUMPDEST PUSH0 PUSH1 0x20 DUP3 DUP5 SUB SLT ISZERO PUSH2 0x2103 JUMPI PUSH2 0x2102 PUSH2 0x1720 JUMP JUMPDEST JUMPDEST PUSH0 PUSH2 0x2110 DUP5 DUP3 DUP6 ADD PUSH2 0x20DA JUMP JUMPDEST SWAP2 POP POP SWAP3 SWAP2 POP POP JUMP JUMPDEST PUSH32 0x496E76616C6964205A4B2050726F6F6600000000000000000000000000000000 PUSH0 DUP3 ADD MSTORE POP JUMP JUMPDEST PUSH0 PUSH2 0x214D PUSH1 0x10 DUP4 PUSH2 0x1D2D JUMP JUMPDEST SWAP2 POP PUSH2 0x2158 DUP3 PUSH2 0x2119 JUMP JUMPDEST PUSH1 0x20 DUP3 ADD SWAP1 POP SWAP2 SWAP1 POP JUMP JUMPDEST PUSH0 PUSH1 0x20 DUP3 ADD SWAP1 POP DUP2 DUP2 SUB PUSH0 DUP4 ADD MSTORE PUSH2 0x217A DUP2 PUSH2 0x2141 JUMP JUMPDEST SWAP1 POP SWAP2 SWAP1 POP JUMP JUMPDEST PUSH32 0x4E487B7100000000000000000000000000000000000000000000000000000000 PUSH0 MSTORE PUSH1 0x32 PUSH1 0x4 MSTORE PUSH1 0x24 PUSH0 REVERT JUMPDEST PUSH32 0x57726F6E672064657374696E6174696F6E20636861696E000000000000000000 PUSH0 DUP3 ADD MSTORE POP JUMP JUMPDEST PUSH0 PUSH2 0x21E2 PUSH1 0x17 DUP4 PUSH2 0x1D2D JUMP JUMPDEST SWAP2 POP PUSH2 0x21ED DUP3 PUSH2 0x21AE JUMP JUMPDEST PUSH1 0x20 DUP3 ADD SWAP1 POP SWAP2 SWAP1 POP JUMP JUMPDEST PUSH0 PUSH1 0x20 DUP3 ADD SWAP1 POP DUP2 DUP2 SUB PUSH0 DUP4 ADD MSTORE PUSH2 0x220F DUP2 PUSH2 0x21D6 JUMP JUMPDEST SWAP1 POP SWAP2 SWAP1 POP JUMP JUMPDEST PUSH32 0x5265706C61792061747461636B20646574656374656400000000000000000000 PUSH0 DUP3 ADD MSTORE POP JUMP JUMPDEST PUSH0 PUSH2 0x224A PUSH1 0x16 DUP4 PUSH2 0x1D2D JUMP JUMPDEST SWAP2 POP PUSH2 0x2255 DUP3 PUSH2 0x2216 JUMP JUMPDEST PUSH1 0x20 DUP3 ADD SWAP1 POP SWAP2 SWAP1 POP JUMP JUMPDEST PUSH0 PUSH1 0x20 DUP3 ADD SWAP1 POP DUP2 DUP2 SUB PUSH0 DUP4 ADD MSTORE PUSH2 0x2277 DUP2 PUSH2 0x223E JUMP JUMPDEST SWAP1 POP SWAP2 SWAP1 POP JUMP JUMPDEST PUSH0 DUP2 SWAP1 POP SWAP2 SWAP1 POP JUMP JUMPDEST PUSH2 0x2298 PUSH2 0x2293 DUP3 PUSH2 0x190F JUMP JUMPDEST PUSH2 0x227E JUMP JUMPDEST DUP3 MSTORE POP POP JUMP JUMPDEST PUSH0 PUSH2 0x22A9 DUP3 DUP5 PUSH2 0x2287 JUMP JUMPDEST PUSH1 0x20 DUP3 ADD SWAP2 POP DUP2 SWAP1 POP SWAP3 SWAP2 POP POP JUMP JUMPDEST PUSH32 0x496E76616C6964207369676E6174757265206C656E6774680000000000000000 PUSH0 DUP3 ADD MSTORE POP JUMP JUMPDEST PUSH0 PUSH2 0x22EC PUSH1 0x18 DUP4 PUSH2 0x1D2D JUMP JUMPDEST SWAP2 POP PUSH2 0x22F7 DUP3 PUSH2 0x22B8 JUMP JUMPDEST PUSH1 0x20 DUP3 ADD SWAP1 POP SWAP2 SWAP1 POP JUMP JUMPDEST PUSH0 PUSH1 0x20 DUP3 ADD SWAP1 POP DUP2 DUP2 SUB PUSH0 DUP4 ADD MSTORE PUSH2 0x2319 DUP2 PUSH2 0x22E0 JUMP JUMPDEST SWAP1 POP SWAP2 SWAP1 POP JUMP JUMPDEST PUSH0 PUSH1 0xFF DUP3 AND SWAP1 POP SWAP2 SWAP1 POP JUMP JUMPDEST PUSH2 0x2335 DUP2 PUSH2 0x2320 JUMP JUMPDEST DUP3 MSTORE POP POP JUMP JUMPDEST PUSH0 PUSH1 0x80 DUP3 ADD SWAP1 POP PUSH2 0x234E PUSH0 DUP4 ADD DUP8 PUSH2 0x1F76 JUMP JUMPDEST PUSH2 0x235B PUSH1 0x20 DUP4 ADD DUP7 PUSH2 0x232C JUMP JUMPDEST PUSH2 0x2368 PUSH1 0x40 DUP4 ADD DUP6 PUSH2 0x1F76 JUMP JUMPDEST PUSH2 0x2375 PUSH1 0x60 DUP4 ADD DUP5 PUSH2 0x1F76 JUMP JUMPDEST SWAP6 SWAP5 POP POP POP POP POP JUMP JUMPDEST PUSH32 0x4E487B7100000000000000000000000000000000000000000000000000000000 PUSH0 MSTORE PUSH1 0x11 PUSH1 0x4 MSTORE PUSH1 0x24 PUSH0 REVERT JUMPDEST PUSH0 PUSH2 0x23B5 DUP3 PUSH2 0x2320 JUMP JUMPDEST SWAP2 POP PUSH1 0xFF DUP3 SUB PUSH2 0x23C8 JUMPI PUSH2 0x23C7 PUSH2 0x237E JUMP JUMPDEST JUMPDEST PUSH1 0x1 DUP3 ADD SWAP1 POP SWAP2 SWAP1 POP JUMP JUMPDEST PUSH0 PUSH2 0x23DD DUP3 PUSH2 0x2320 JUMP JUMPDEST SWAP2 POP PUSH0 DUP3 SUB PUSH2 0x23EF JUMPI PUSH2 0x23EE PUSH2 0x237E JUMP JUMPDEST JUMPDEST PUSH1 0x1 DUP3 SUB SWAP1 POP SWAP2 SWAP1 POP JUMP JUMPDEST PUSH0 PUSH2 0x2404 DUP3 PUSH2 0x2320 JUMP JUMPDEST SWAP2 POP PUSH2 0x240F DUP4 PUSH2 0x2320 JUMP JUMPDEST SWAP3 POP DUP3 DUP3 SUB SWAP1 POP PUSH1 0xFF DUP2 GT ISZERO PUSH2 0x2428 JUMPI PUSH2 0x2427 PUSH2 0x237E JUMP JUMPDEST JUMPDEST SWAP3 SWAP2 POP POP JUMP JUMPDEST PUSH0 PUSH2 0x2438 DUP3 PUSH2 0x2320 JUMP JUMPDEST SWAP2 POP PUSH2 0x2443 DUP4 PUSH2 0x2320 JUMP JUMPDEST SWAP3 POP DUP3 DUP3 ADD SWAP1 POP PUSH1 0xFF DUP2 GT ISZERO PUSH2 0x245C JUMPI PUSH2 0x245B PUSH2 0x237E JUMP JUMPDEST JUMPDEST SWAP3 SWAP2 POP POP JUMP JUMPDEST PUSH0 PUSH2 0x246C DUP3 PUSH2 0x190F JUMP JUMPDEST SWAP2 POP PUSH2 0x2477 DUP4 PUSH2 0x190F JUMP JUMPDEST SWAP3 POP DUP3 DUP3 ADD SWAP1 POP DUP1 DUP3 GT ISZERO PUSH2 0x248F JUMPI PUSH2 0x248E PUSH2 0x237E JUMP JUMPDEST JUMPDEST SWAP3 SWAP2 POP POP JUMP JUMPDEST PUSH2 0x24A2 PUSH2 0x100 DUP4 DUP4 PUSH2 0x1F9E JUMP JUMPDEST POP POP JUMP JUMPDEST PUSH0 PUSH2 0x200 DUP3 ADD SWAP1 POP PUSH2 0x24BA PUSH0 DUP4 ADD DUP8 PUSH2 0x1FA7 JUMP JUMPDEST PUSH2 0x24C7 PUSH1 0x40 DUP4 ADD DUP7 PUSH2 0x2011 JUMP JUMPDEST PUSH2 0x24D4 PUSH1 0xC0 DUP4 ADD DUP6 PUSH2 0x1FA7 JUMP JUMPDEST PUSH2 0x24E2 PUSH2 0x100 DUP4 ADD DUP5 PUSH2 0x2495 JUMP JUMPDEST SWAP6 SWAP5 POP POP POP POP POP JUMP JUMPDEST PUSH0 PUSH1 0x60 DUP3 ADD SWAP1 POP DUP2 DUP2 SUB PUSH0 DUP4 ADD MSTORE PUSH2 0x2503 DUP2 DUP7 PUSH2 0x1D3D JUMP JUMPDEST SWAP1 POP DUP2 DUP2 SUB PUSH1 0x20 DUP4 ADD MSTORE PUSH2 0x2517 DUP2 DUP6 PUSH2 0x1D3D JUMP JUMPDEST SWAP1 POP DUP2 DUP2 SUB PUSH1 0x40 DUP4 ADD MSTORE PUSH2 0x252B DUP2 DUP5 PUSH2 0x19A5 JUMP JUMPDEST SWAP1 POP SWAP5 SWAP4 POP POP POP POP JUMP JUMPDEST PUSH2 0x253E DUP2 PUSH2 0x190F JUMP JUMPDEST DUP3 MSTORE POP POP JUMP JUMPDEST PUSH0 PUSH1 0x80 DUP3 ADD SWAP1 POP PUSH2 0x2557 PUSH0 DUP4 ADD DUP8 PUSH2 0x1AA1 JUMP JUMPDEST DUP2 DUP2 SUB PUSH1 0x20 DUP4 ADD MSTORE PUSH2 0x2569 DUP2 DUP7 PUSH2 0x1D3D JUMP JUMPDEST SWAP1 POP PUSH2 0x2578 PUSH1 0x40 DUP4 ADD DUP6 PUSH2 0x2535 JUMP JUMPDEST PUSH2 0x2585 PUSH1 0x60 DUP4 ADD DUP5 PUSH2 0x2535 JUMP JUMPDEST SWAP6 SWAP5 POP POP POP POP POP JUMP JUMPDEST PUSH0 DUP2 SWAP1 POP SWAP3 SWAP2 POP POP JUMP JUMPDEST PUSH32 0x19457468657265756D205369676E6564204D6573736167653A0A333200000000 PUSH0 DUP3 ADD MSTORE POP JUMP JUMPDEST PUSH0 PUSH2 0x25CC PUSH1 0x1C DUP4 PUSH2 0x258E JUMP JUMPDEST SWAP2 POP PUSH2 0x25D7 DUP3 PUSH2 0x2598 JUMP JUMPDEST PUSH1 0x1C DUP3 ADD SWAP1 POP SWAP2 SWAP1 POP JUMP JUMPDEST PUSH0 DUP2 SWAP1 POP SWAP2 SWAP1 POP JUMP JUMPDEST PUSH2 0x25FC PUSH2 0x25F7 DUP3 PUSH2 0x1AC9 JUMP JUMPDEST PUSH2 0x25E2 JUMP JUMPDEST DUP3 MSTORE POP POP JUMP JUMPDEST PUSH0 PUSH2 0x260C DUP3 PUSH2 0x25C0 JUMP JUMPDEST SWAP2 POP PUSH2 0x2618 DUP3 DUP5 PUSH2 0x25EB JUMP JUMPDEST PUSH1 0x20 DUP3 ADD SWAP2 POP DUP2 SWAP1 POP SWAP3 SWAP2 POP POP JUMP JUMPDEST PUSH0 PUSH2 0x2632 DUP3 DUP9 PUSH2 0x2287 JUMP JUMPDEST PUSH1 0x20 DUP3 ADD SWAP2 POP PUSH2 0x2642 DUP3 DUP8 PUSH2 0x2287 JUMP JUMPDEST PUSH1 0x20 DUP3 ADD SWAP2 POP PUSH2 0x2652 DUP3 DUP7 PUSH2 0x2287 JUMP JUMPDEST PUSH1 0x20 DUP3 ADD SWAP2 POP PUSH2 0x2662 DUP3 DUP6 PUSH2 0x2287 JUMP JUMPDEST PUSH1 0x20 DUP3 ADD SWAP2 POP PUSH2 0x2672 DUP3 DUP5 PUSH2 0x2287 JUMP JUMPDEST PUSH1 0x20 DUP3 ADD SWAP2 POP DUP2 SWAP1 POP SWAP7 SWAP6 POP POP POP POP POP POP JUMP JUMPDEST PUSH0 PUSH8 0xFFFFFFFFFFFFFFFF DUP3 GT ISZERO PUSH2 0x269F JUMPI PUSH2 0x269E PUSH2 0x1B00 JUMP JUMPDEST JUMPDEST PUSH1 0x20 DUP3 MUL SWAP1 POP PUSH1 0x20 DUP2 ADD SWAP1 POP SWAP2 SWAP1 POP JUMP JUMPDEST PUSH0 DUP2 MLOAD SWAP1 POP PUSH2 0x26BE DUP2 PUSH2 0x1EBD JUMP JUMPDEST SWAP3 SWAP2 POP POP JUMP JUMPDEST PUSH0 PUSH2 0x26D6 PUSH2 0x26D1 DUP5 PUSH2 0x2685 JUMP JUMPDEST PUSH2 0x1B5E JUMP JUMPDEST SWAP1 POP DUP1 DUP4 DUP3 MSTORE PUSH1 0x20 DUP3 ADD SWAP1 POP PUSH1 0x20 DUP5 MUL DUP4 ADD DUP6 DUP2 GT ISZERO PUSH2 0x26F9 JUMPI PUSH2 0x26F8 PUSH2 0x1728 JUMP JUMPDEST JUMPDEST DUP4 JUMPDEST DUP2 DUP2 LT ISZERO PUSH2 0x2722 JUMPI DUP1 PUSH2 0x270E DUP9 DUP3 PUSH2 0x26B0 JUMP JUMPDEST DUP5 MSTORE PUSH1 0x20 DUP5 ADD SWAP4 POP POP PUSH1 0x20 DUP2 ADD SWAP1 POP PUSH2 0x26FB JUMP JUMPDEST POP POP POP SWAP4 SWAP3 POP POP POP JUMP JUMPDEST PUSH0 DUP3 PUSH1 0x1F DUP4 ADD SLT PUSH2 0x2740 JUMPI PUSH2 0x273F PUSH2 0x178F JUMP JUMPDEST JUMPDEST DUP2 MLOAD PUSH2 0x2750 DUP5 DUP3 PUSH1 0x20 DUP7 ADD PUSH2 0x26C4 JUMP JUMPDEST SWAP2 POP POP SWAP3 SWAP2 POP POP JUMP JUMPDEST PUSH0 PUSH1 0x20 DUP3 DUP5 SUB SLT ISZERO PUSH2 0x276E JUMPI PUSH2 0x276D PUSH2 0x1720 JUMP JUMPDEST JUMPDEST PUSH0 DUP3 ADD MLOAD PUSH8 0xFFFFFFFFFFFFFFFF DUP2 GT ISZERO PUSH2 0x278B JUMPI PUSH2 0x278A PUSH2 0x1724 JUMP JUMPDEST JUMPDEST PUSH2 0x2797 DUP5 DUP3 DUP6 ADD PUSH2 0x272C JUMP JUMPDEST SWAP2 POP POP SWAP3 SWAP2 POP POP JUMP JUMPDEST PUSH0 PUSH2 0x27AA DUP3 PUSH2 0x190F JUMP JUMPDEST SWAP2 POP PUSH2 0x27B5 DUP4 PUSH2 0x190F JUMP JUMPDEST SWAP3 POP DUP3 DUP3 MUL PUSH2 0x27C3 DUP2 PUSH2 0x190F JUMP JUMPDEST SWAP2 POP DUP3 DUP3 DIV DUP5 EQ DUP4 ISZERO OR PUSH2 0x27DA JUMPI PUSH2 0x27D9 PUSH2 0x237E JUMP JUMPDEST JUMPDEST POP SWAP3 SWAP2 POP POP JUMP JUMPDEST PUSH0 PUSH0 REVERT JUMPDEST PUSH0 PUSH0 REVERT JUMPDEST PUSH0 PUSH0 DUP6 DUP6 GT ISZERO PUSH2 0x27FC JUMPI PUSH2 0x27FB PUSH2 0x27E1 JUMP JUMPDEST JUMPDEST DUP4 DUP7 GT ISZERO PUSH2 0x280D JUMPI PUSH2 0x280C PUSH2 0x27E5 JUMP JUMPDEST JUMPDEST PUSH1 0x1 DUP6 MUL DUP4 ADD SWAP2 POP DUP5 DUP7 SUB SWAP1 POP SWAP5 POP SWAP5 SWAP3 POP POP POP JUMP JUMPDEST PUSH32 0x496E76616C6964207369676E6174757265000000000000000000000000000000 PUSH0 DUP3 ADD MSTORE POP JUMP JUMPDEST PUSH0 PUSH2 0x2857 PUSH1 0x11 DUP4 PUSH2 0x1D2D JUMP JUMPDEST SWAP2 POP PUSH2 0x2862 DUP3 PUSH2 0x2823 JUMP JUMPDEST PUSH1 0x20 DUP3 ADD SWAP1 POP SWAP2 SWAP1 POP JUMP JUMPDEST PUSH0 PUSH1 0x20 DUP3 ADD SWAP1 POP DUP2 DUP2 SUB PUSH0 DUP4 ADD MSTORE PUSH2 0x2884 DUP2 PUSH2 0x284B JUMP JUMPDEST SWAP1 POP SWAP2 SWAP1 POP JUMP JUMPDEST PUSH32 0x5369676E6572206E6F7420616E206163746976652076616C696461746F720000 PUSH0 DUP3 ADD MSTORE POP JUMP JUMPDEST PUSH0 PUSH2 0x28BF PUSH1 0x1E DUP4 PUSH2 0x1D2D JUMP JUMPDEST SWAP2 POP PUSH2 0x28CA DUP3 PUSH2 0x288B JUMP JUMPDEST PUSH1 0x20 DUP3 ADD SWAP1 POP SWAP2 SWAP1 POP JUMP JUMPDEST PUSH0 PUSH1 0x20 DUP3 ADD SWAP1 POP DUP2 DUP2 SUB PUSH0 DUP4 ADD MSTORE PUSH2 0x28EC DUP2 PUSH2 0x28B3 JUMP JUMPDEST SWAP1 POP SWAP2 SWAP1 POP JUMP JUMPDEST PUSH0 PUSH2 0x28FE DUP3 DUP11 PUSH2 0x2287 JUMP JUMPDEST PUSH1 0x20 DUP3 ADD SWAP2 POP PUSH2 0x290E DUP3 DUP10 PUSH2 0x2287 JUMP JUMPDEST PUSH1 0x20 DUP3 ADD SWAP2 POP PUSH2 0x291E DUP3 DUP9 PUSH2 0x2287 JUMP JUMPDEST PUSH1 0x20 DUP3 ADD SWAP2 POP PUSH2 0x292E DUP3 DUP8 PUSH2 0x2287 JUMP JUMPDEST PUSH1 0x20 DUP3 ADD SWAP2 POP PUSH2 0x293E DUP3 DUP7 PUSH2 0x2287 JUMP JUMPDEST PUSH1 0x20 DUP3 ADD SWAP2 POP PUSH2 0x294E DUP3 DUP6 PUSH2 0x2287 JUMP JUMPDEST PUSH1 0x20 DUP3 ADD SWAP2 POP PUSH2 0x295E DUP3 DUP5 PUSH2 0x2287 JUMP JUMPDEST PUSH1 0x20 DUP3 ADD SWAP2 POP DUP2 SWAP1 POP SWAP9 SWAP8 POP POP POP POP POP POP POP POP JUMP JUMPDEST PUSH0 PUSH2 0x297D DUP3 PUSH2 0x1D23 JUMP JUMPDEST PUSH2 0x2987 DUP2 DUP6 PUSH2 0x258E JUMP JUMPDEST SWAP4 POP PUSH2 0x2997 DUP2 DUP6 PUSH1 0x20 DUP7 ADD PUSH2 0x1987 JUMP JUMPDEST DUP1 DUP5 ADD SWAP2 POP POP SWAP3 SWAP2 POP POP JUMP JUMPDEST PUSH32 0x5F7661756C740000000000000000000000000000000000000000000000000000 PUSH0 DUP3 ADD MSTORE POP JUMP JUMPDEST PUSH0 PUSH2 0x29D7 PUSH1 0x6 DUP4 PUSH2 0x258E JUMP JUMPDEST SWAP2 POP PUSH2 0x29E2 DUP3 PUSH2 0x29A3 JUMP JUMPDEST PUSH1 0x6 DUP3 ADD SWAP1 POP SWAP2 SWAP1 POP JUMP JUMPDEST PUSH0 PUSH2 0x29F8 DUP3 DUP5 PUSH2 0x2973 JUMP JUMPDEST SWAP2 POP PUSH2 0x2A03 DUP3 PUSH2 0x29CB JUMP JUMPDEST SWAP2 POP DUP2 SWAP1 POP SWAP3 SWAP2 POP POP JUMP JUMPDEST PUSH32 0x5169617261426173654173736574730000000000000000000000000000000000 PUSH0 DUP3 ADD MSTORE POP JUMP JUMPDEST PUSH0 PUSH2 0x2A42 PUSH1 0xF DUP4 PUSH2 0x1D2D JUMP JUMPDEST SWAP2 POP PUSH2 0x2A4D DUP3 PUSH2 0x2A0E JUMP JUMPDEST PUSH1 0x20 DUP3 ADD SWAP1 POP SWAP2 SWAP1 POP JUMP JUMPDEST PUSH0 PUSH1 0x40 DUP3 ADD SWAP1 POP DUP2 DUP2 SUB PUSH0 DUP4 ADD MSTORE PUSH2 0x2A6F DUP2 PUSH2 0x2A36 JUMP JUMPDEST SWAP1 POP DUP2 DUP2 SUB PUSH1 0x20 DUP4 ADD MSTORE PUSH2 0x2A83 DUP2 DUP5 PUSH2 0x1D3D JUMP JUMPDEST SWAP1 POP SWAP3 SWAP2 POP POP JUMP JUMPDEST PUSH0 PUSH2 0x2A9D PUSH2 0x2A98 DUP5 PUSH2 0x1B78 JUMP JUMPDEST PUSH2 0x1B5E JUMP JUMPDEST SWAP1 POP DUP3 DUP2 MSTORE PUSH1 0x20 DUP2 ADD DUP5 DUP5 DUP5 ADD GT ISZERO PUSH2 0x2AB9 JUMPI PUSH2 0x2AB8 PUSH2 0x1AFC JUMP JUMPDEST JUMPDEST PUSH2 0x2AC4 DUP5 DUP3 DUP6 PUSH2 0x1987 JUMP JUMPDEST POP SWAP4 SWAP3 POP POP POP JUMP JUMPDEST PUSH0 DUP3 PUSH1 0x1F DUP4 ADD SLT PUSH2 0x2AE0 JUMPI PUSH2 0x2ADF PUSH2 0x178F JUMP JUMPDEST JUMPDEST DUP2 MLOAD PUSH2 0x2AF0 DUP5 DUP3 PUSH1 0x20 DUP7 ADD PUSH2 0x2A8B JUMP JUMPDEST SWAP2 POP POP SWAP3 SWAP2 POP POP JUMP JUMPDEST PUSH0 PUSH1 0x20 DUP3 DUP5 SUB SLT ISZERO PUSH2 0x2B0E JUMPI PUSH2 0x2B0D PUSH2 0x1720 JUMP JUMPDEST JUMPDEST PUSH0 DUP3 ADD MLOAD PUSH8 0xFFFFFFFFFFFFFFFF DUP2 GT ISZERO PUSH2 0x2B2B JUMPI PUSH2 0x2B2A PUSH2 0x1724 JUMP JUMPDEST JUMPDEST PUSH2 0x2B37 DUP5 DUP3 DUP6 ADD PUSH2 0x2ACC JUMP JUMPDEST SWAP2 POP POP SWAP3 SWAP2 POP POP JUMP JUMPDEST PUSH32 0x5661756C74206E6F7420617574686F72697A6564000000000000000000000000 PUSH0 DUP3 ADD MSTORE POP JUMP JUMPDEST PUSH0 PUSH2 0x2B74 PUSH1 0x14 DUP4 PUSH2 0x1D2D JUMP JUMPDEST SWAP2 POP PUSH2 0x2B7F DUP3 PUSH2 0x2B40 JUMP JUMPDEST PUSH1 0x20 DUP3 ADD SWAP1 POP SWAP2 SWAP1 POP JUMP JUMPDEST PUSH0 PUSH1 0x20 DUP3 ADD SWAP1 POP DUP2 DUP2 SUB PUSH0 DUP4 ADD MSTORE PUSH2 0x2BA1 DUP2 PUSH2 0x2B68 JUMP JUMPDEST SWAP1 POP SWAP2 SWAP1 POP JUMP JUMPDEST PUSH0 PUSH2 0x2BB2 DUP3 PUSH2 0x19FD JUMP JUMPDEST SWAP1 POP SWAP2 SWAP1 POP JUMP JUMPDEST PUSH2 0x2BC2 DUP2 PUSH2 0x2BA8 JUMP JUMPDEST DUP2 EQ PUSH2 0x2BCC JUMPI PUSH0 PUSH0 REVERT JUMPDEST POP JUMP JUMPDEST PUSH0 DUP2 MLOAD SWAP1 POP PUSH2 0x2BDD DUP2 PUSH2 0x2BB9 JUMP JUMPDEST SWAP3 SWAP2 POP POP JUMP JUMPDEST PUSH0 PUSH1 0x20 DUP3 DUP5 SUB SLT ISZERO PUSH2 0x2BF8 JUMPI PUSH2 0x2BF7 PUSH2 0x1720 JUMP JUMPDEST JUMPDEST PUSH0 PUSH2 0x2C05 DUP5 DUP3 DUP6 ADD PUSH2 0x2BCF JUMP JUMPDEST SWAP2 POP POP SWAP3 SWAP2 POP POP JUMP INVALID LOG2 PUSH5 0x6970667358 0x22 SLT KECCAK256 CREATE PUSH20 0x570D96CC939E83D199E899396C8D739148A64420 MUL MSTORE8 0xB7 LOG4 PC 0xD9 ISZERO 0xB2 SWAP12 POP PUSH5 0x736F6C6343 STOP ADDMOD 0x1F STOP CALLER "
		},
		"gasEstimates": {
			"creation": {
				"codeDepositCost": "2266400",
				"executionCost": "infinite",
				"totalCost": "infinite"
			},
			"external": {
				"balance_verifier()": "infinite",
				"fieldToAddress(uint256)": "664",
				"fieldToBytes(uint256)": "infinite",
				"fieldToString(uint256)": "infinite",
				"getEthSignedMessageHash(bytes32)": "infinite",
				"owner()": "2559",
				"processZkValidator(uint256[2],uint256[2][2],uint256[2],uint256[6],address[],bytes)": "infinite",
				"processZkVariable(uint256[2],uint256[2][2],uint256[2],uint256[8],address[],bytes)": "infinite",
				"processZkWithdraw(uint256[2],uint256[2][2],uint256[2],uint256[8],address[],bytes)": "infinite",
				"recoverSigner(bytes32,bytes)": "infinite",
				"renounceOwnership()": "infinite",
				"transferOwnership(address)": "infinite",
				"usedNullifiers(uint256)": "2874",
				"validator_verifier()": "infinite",
				"validatorsRegistry()": "infinite",
				"variable_verifier()": "infinite",
				"variablesRegistry()": "infinite"
			},
			"internal": {
				"_calculateNullifier6(uint256[6] calldata)": "infinite",
				"_calculateNullifier8(uint256[8] calldata)": "infinite",
				"_prepareWithdrawal(uint256[8] calldata)": "infinite",
				"_verifyAllSignatures(bytes32,address[] calldata,bytes calldata)": "infinite"
			}
		},
		"methodIdentifiers": {
			"balance_verifier()": "f90c0f40",
			"fieldToAddress(uint256)": "7a988c54",
			"fieldToBytes(uint256)": "19b8c941",
			"fieldToString(uint256)": "b648f220",
			"getEthSignedMessageHash(bytes32)": "fa540801",
			"owner()": "8da5cb5b",
			"processZkValidator(uint256[2],uint256[2][2],uint256[2],uint256[6],address[],bytes)": "18e43082",
			"processZkVariable(uint256[2],uint256[2][2],uint256[2],uint256[8],address[],bytes)": "c3c2198f",
			"processZkWithdraw(uint256[2],uint256[2][2],uint256[2],uint256[8],address[],bytes)": "cc60819f",
			"recoverSigner(bytes32,bytes)": "97aba7f9",
			"renounceOwnership()": "715018a6",
			"transferOwnership(address)": "f2fde38b",
			"usedNullifiers(uint256)": "aad24061",
			"validator_verifier()": "b3d63003",
			"validatorsRegistry()": "aed881d8",
			"variable_verifier()": "4eb30d41",
			"variablesRegistry()": "bf4d766e"
		}
	},
	"abi": [
		{
			"inputs": [
				{
					"internalType": "address",
					"name": "_balance_verifier",
					"type": "address"
				},
				{
					"internalType": "address",
					"name": "_variable_verifier",
					"type": "address"
				},
				{
					"internalType": "address",
					"name": "_validator_verifier",
					"type": "address"
				},
				{
					"internalType": "address",
					"name": "_variablesRegistry",
					"type": "address"
				},
				{
					"internalType": "address",
					"name": "_validatorsRegistry",
					"type": "address"
				}
			],
			"stateMutability": "nonpayable",
			"type": "constructor"
		},
		{
			"inputs": [
				{
					"internalType": "address",
					"name": "owner",
					"type": "address"
				}
			],
			"name": "OwnableInvalidOwner",
			"type": "error"
		},
		{
			"inputs": [
				{
					"internalType": "address",
					"name": "account",
					"type": "address"
				}
			],
			"name": "OwnableUnauthorizedAccount",
			"type": "error"
		},
		{
			"anonymous": false,
			"inputs": [
				{
					"indexed": true,
					"internalType": "address",
					"name": "previousOwner",
					"type": "address"
				},
				{
					"indexed": true,
					"internalType": "address",
					"name": "newOwner",
					"type": "address"
				}
			],
			"name": "OwnershipTransferred",
			"type": "event"
		},
		{
			"inputs": [],
			"name": "balance_verifier",
			"outputs": [
				{
					"internalType": "contract IBalanceVerifier",
					"name": "",
					"type": "address"
				}
			],
			"stateMutability": "view",
			"type": "function"
		},
		{
			"inputs": [
				{
					"internalType": "uint256",
					"name": "_field",
					"type": "uint256"
				}
			],
			"name": "fieldToAddress",
			"outputs": [
				{
					"internalType": "address",
					"name": "",
					"type": "address"
				}
			],
			"stateMutability": "pure",
			"type": "function"
		},
		{
			"inputs": [
				{
					"internalType": "uint256",
					"name": "_field",
					"type": "uint256"
				}
			],
			"name": "fieldToBytes",
			"outputs": [
				{
					"internalType": "bytes",
					"name": "",
					"type": "bytes"
				}
			],
			"stateMutability": "pure",
			"type": "function"
		},
		{
			"inputs": [
				{
					"internalType": "uint256",
					"name": "_field",
					"type": "uint256"
				}
			],
			"name": "fieldToString",
			"outputs": [
				{
					"internalType": "string",
					"name": "",
					"type": "string"
				}
			],
			"stateMutability": "pure",
			"type": "function"
		},
		{
			"inputs": [
				{
					"internalType": "bytes32",
					"name": "_messageHash",
					"type": "bytes32"
				}
			],
			"name": "getEthSignedMessageHash",
			"outputs": [
				{
					"internalType": "bytes32",
					"name": "",
					"type": "bytes32"
				}
			],
			"stateMutability": "pure",
			"type": "function"
		},
		{
			"inputs": [],
			"name": "owner",
			"outputs": [
				{
					"internalType": "address",
					"name": "",
					"type": "address"
				}
			],
			"stateMutability": "view",
			"type": "function"
		},
		{
			"inputs": [
				{
					"internalType": "uint256[2]",
					"name": "_pA",
					"type": "uint256[2]"
				},
				{
					"internalType": "uint256[2][2]",
					"name": "_pB",
					"type": "uint256[2][2]"
				},
				{
					"internalType": "uint256[2]",
					"name": "_pC",
					"type": "uint256[2]"
				},
				{
					"internalType": "uint256[6]",
					"name": "_pubSignals",
					"type": "uint256[6]"
				},
				{
					"internalType": "address[]",
					"name": "validators",
					"type": "address[]"
				},
				{
					"internalType": "bytes",
					"name": "_signatures",
					"type": "bytes"
				}
			],
			"name": "processZkValidator",
			"outputs": [],
			"stateMutability": "nonpayable",
			"type": "function"
		},
		{
			"inputs": [
				{
					"internalType": "uint256[2]",
					"name": "_pA",
					"type": "uint256[2]"
				},
				{
					"internalType": "uint256[2][2]",
					"name": "_pB",
					"type": "uint256[2][2]"
				},
				{
					"internalType": "uint256[2]",
					"name": "_pC",
					"type": "uint256[2]"
				},
				{
					"internalType": "uint256[8]",
					"name": "_pubSignals",
					"type": "uint256[8]"
				},
				{
					"internalType": "address[]",
					"name": "validators",
					"type": "address[]"
				},
				{
					"internalType": "bytes",
					"name": "_signatures",
					"type": "bytes"
				}
			],
			"name": "processZkVariable",
			"outputs": [],
			"stateMutability": "nonpayable",
			"type": "function"
		},
		{
			"inputs": [
				{
					"internalType": "uint256[2]",
					"name": "_pA",
					"type": "uint256[2]"
				},
				{
					"internalType": "uint256[2][2]",
					"name": "_pB",
					"type": "uint256[2][2]"
				},
				{
					"internalType": "uint256[2]",
					"name": "_pC",
					"type": "uint256[2]"
				},
				{
					"internalType": "uint256[8]",
					"name": "_pubSignals",
					"type": "uint256[8]"
				},
				{
					"internalType": "address[]",
					"name": "validators",
					"type": "address[]"
				},
				{
					"internalType": "bytes",
					"name": "_signatures",
					"type": "bytes"
				}
			],
			"name": "processZkWithdraw",
			"outputs": [],
			"stateMutability": "nonpayable",
			"type": "function"
		},
		{
			"inputs": [
				{
					"internalType": "bytes32",
					"name": "_ethSignedMessageHash",
					"type": "bytes32"
				},
				{
					"internalType": "bytes",
					"name": "_signature",
					"type": "bytes"
				}
			],
			"name": "recoverSigner",
			"outputs": [
				{
					"internalType": "address",
					"name": "",
					"type": "address"
				}
			],
			"stateMutability": "pure",
			"type": "function"
		},
		{
			"inputs": [],
			"name": "renounceOwnership",
			"outputs": [],
			"stateMutability": "nonpayable",
			"type": "function"
		},
		{
			"inputs": [
				{
					"internalType": "address",
					"name": "newOwner",
					"type": "address"
				}
			],
			"name": "transferOwnership",
			"outputs": [],
			"stateMutability": "nonpayable",
			"type": "function"
		},
		{
			"inputs": [
				{
					"internalType": "uint256",
					"name": "",
					"type": "uint256"
				}
			],
			"name": "usedNullifiers",
			"outputs": [
				{
					"internalType": "bool",
					"name": "",
					"type": "bool"
				}
			],
			"stateMutability": "view",
			"type": "function"
		},
		{
			"inputs": [],
			"name": "validator_verifier",
			"outputs": [
				{
					"internalType": "contract IValidatorVerifier",
					"name": "",
					"type": "address"
				}
			],
			"stateMutability": "view",
			"type": "function"
		},
		{
			"inputs": [],
			"name": "validatorsRegistry",
			"outputs": [
				{
					"internalType": "contract IValidators",
					"name": "",
					"type": "address"
				}
			],
			"stateMutability": "view",
			"type": "function"
		},
		{
			"inputs": [],
			"name": "variable_verifier",
			"outputs": [
				{
					"internalType": "contract IVariableVerifier",
					"name": "",
					"type": "address"
				}
			],
			"stateMutability": "view",
			"type": "function"
		},
		{
			"inputs": [],
			"name": "variablesRegistry",
			"outputs": [
				{
					"internalType": "contract IVariables",
					"name": "",
					"type": "address"
				}
			],
			"stateMutability": "view",
			"type": "function"
		}
	]
}