{
	"data": {
		"bytecode": {
			"linkReferences": {},
			"object": "6080604052348015600e575f5ffd5b506122288061001c5f395ff3fe608060405234801561000f575f5ffd5b506004361061003f575f3560e01c806344f636921461004357806365c032591461007357806398c13db91461008f575b5f5ffd5b61005d60048036038101906100589190611f85565b6100ab565b60405161006a919061205f565b60405180910390f35b61008d60048036038101906100889190612099565b61020a565b005b6100a960048036038101906100a491906120fa565b6104a5565b005b6100b3611ef5565b6100ec825f600881106100c9576100c8612138565b5b6020020135836001600881106100e2576100e1612138565b5b6020020135610a61565b815f600481106100ff576100fe612138565b5b6020020181815250506101748260036008811061011f5761011e612138565b5b60200201358360026008811061013857610137612138565b5b60200201358460056008811061015157610150612138565b5b60200201358560046008811061016a57610169612138565b5b6020020135610c0f565b8260026004811061018857610187612138565b5b60200201836001600481106101a05761019f612138565b5b60200201828152508281525050506101e8826006600881106101c5576101c4612138565b5b6020020135836007600881106101de576101dd612138565b5b6020020135610a61565b816003600481106101fc576101fb612138565b5b602002018181525050919050565b5f5f610215836111db565b915091505f6040516101008682377f02726f86620461a7ab939720a72adb887a74fbaab08a690e752db52bec76628f6101008201527f1e76ce8639edd037cd2c44fdd478ef620b36ebec457032967094785ccf9e30b36101208201527f1641a69acd266f1f6139bb26de25227e59dfe11cd2be009dbaf130e50d7d644e6101408201527f13add3d93bf72dca8875cc1fef240b901bdd4571e213fd26f7bfacb7479ae1de6101608201527f0d8d3d5d304499f3cb145eead07f0d83149f9c780fbbecd46ed0b982bfeee8bc6101808201527f0cc17044379771e6bf6aad6c5b4b04e784f3bf4255a3622eea0ae5f1e4be70b76101a08201527f1130845bae99ba7108cdc225a6a099b7cce3e844320cb2de5fa591249230d3106101c08201527f1e5e686ce6a1efa2bd888320d98112a96e9a5b80cab2888d5c38f9c8ab13529a6101e08201527f25877f054e7fdc8e072ade4081eae7d81275ed3d5b8c3278f7977ab945703a1b6102008201527f2c0eb915ddc31467549f3c1391b1da761068d788baa7ab71758786f9e26df18461022082015283610240820152826102608201527f2aeef66db17ec822fe5bfa49d1f8e8f4d8aa410a443ba1ec624f5c034b4a5b816102808201527f0d5dd63b4e13fec5f90bf7b1529b6d59bcd714f0320dfa680a7428b0267891486102a08201527f2b1d2c7e797858d79ebb91534ef3ae9da7e6545640303a172384222d06b054906102c08201527f091420fbe454f7debb7717919f2befc2f04570488145f9baf58cf2db9038077f6102e08201526020816103008360085afa9150805182169150508061049e576040517f7fcdd1f400000000000000000000000000000000000000000000000000000000815260040160405180910390fd5b5050505050565b6104ad611f17565b5f5f6104cf855f600481106104c5576104c4612138565b5b6020020135611445565b915091505f5f5f5f610511896002600481106104ee576104ed612138565b5b60200201358a60016004811061050757610506612138565b5b602002013561157a565b93509350935093505f5f61053c8b60036004811061053257610531612138565b5b6020020135611445565b915091505f5f61054b8c6111db565b91509150898b5f6018811061056357610562612138565b5b602002018181525050888b60016018811061058157610580612138565b5b602002018181525050868b60026018811061059f5761059e612138565b5b602002018181525050878b6003601881106105bd576105bc612138565b5b602002018181525050848b6004601881106105db576105da612138565b5b602002018181525050858b6005601881106105f9576105f8612138565b5b602002018181525050838b60066018811061061757610616612138565b5b602002018181525050828b60076018811061063557610634612138565b5b6020020181815250507f02726f86620461a7ab939720a72adb887a74fbaab08a690e752db52bec76628f8b60086018811061067357610672612138565b5b6020020181815250507f1e76ce8639edd037cd2c44fdd478ef620b36ebec457032967094785ccf9e30b38b6009601881106106b1576106b0612138565b5b6020020181815250507f1641a69acd266f1f6139bb26de25227e59dfe11cd2be009dbaf130e50d7d644e8b600a601881106106ef576106ee612138565b5b6020020181815250507f13add3d93bf72dca8875cc1fef240b901bdd4571e213fd26f7bfacb7479ae1de8b600b6018811061072d5761072c612138565b5b6020020181815250507f0d8d3d5d304499f3cb145eead07f0d83149f9c780fbbecd46ed0b982bfeee8bc8b600c6018811061076b5761076a612138565b5b6020020181815250507f0cc17044379771e6bf6aad6c5b4b04e784f3bf4255a3622eea0ae5f1e4be70b78b600d601881106107a9576107a8612138565b5b6020020181815250507f1130845bae99ba7108cdc225a6a099b7cce3e844320cb2de5fa591249230d3108b600e601881106107e7576107e6612138565b5b6020020181815250507f1e5e686ce6a1efa2bd888320d98112a96e9a5b80cab2888d5c38f9c8ab13529a8b600f6018811061082557610824612138565b5b6020020181815250507f25877f054e7fdc8e072ade4081eae7d81275ed3d5b8c3278f7977ab945703a1b8b60106018811061086357610862612138565b5b6020020181815250507f2c0eb915ddc31467549f3c1391b1da761068d788baa7ab71758786f9e26df1848b6011601881106108a1576108a0612138565b5b602002018181525050818b6012601881106108bf576108be612138565b5b602002018181525050808b6013601881106108dd576108dc612138565b5b6020020181815250507f2aeef66db17ec822fe5bfa49d1f8e8f4d8aa410a443ba1ec624f5c034b4a5b818b60146018811061091b5761091a612138565b5b6020020181815250507f0d5dd63b4e13fec5f90bf7b1529b6d59bcd714f0320dfa680a7428b0267891488b60156018811061095957610958612138565b5b6020020181815250507f2b1d2c7e797858d79ebb91534ef3ae9da7e6545640303a172384222d06b054908b60166018811061099757610996612138565b5b6020020181815250507f091420fbe454f7debb7717919f2befc2f04570488145f9baf58cf2db9038077f8b6017601881106109d5576109d4612138565b5b6020020181815250505f6109e7611f3a565b6020816103008f60085afa9150811580610a1957506001815f60018110610a1157610a10612138565b5b602002015114155b15610a50576040517f7fcdd1f400000000000000000000000000000000000000000000000000000000815260040160405180910390fd5b505050505050505050505050505050565b5f7f30644e72e131a029b85045b68181585d97816a916871ca8d3c208c16d87cfd4783101580610ab157507f30644e72e131a029b85045b68181585d97816a916871ca8d3c208c16d87cfd478210155b15610ae8576040517f7fcdd1f400000000000000000000000000000000000000000000000000000000815260040160405180910390fd5b5f83148015610af657505f82145b15610b03575f9050610c09565b5f610ba17f30644e72e131a029b85045b68181585d97816a916871ca8d3c208c16d87cfd4780610b3657610b35612165565b5b60037f30644e72e131a029b85045b68181585d97816a916871ca8d3c208c16d87cfd4780610b6757610b66612165565b5b877f30644e72e131a029b85045b68181585d97816a916871ca8d3c208c16d87cfd4780610b9757610b96612165565b5b898a090908611955565b9050808303610bb9575f600185901b17915050610c09565b610bc2816119f1565b8303610bd75760018085901b17915050610c09565b6040517f7fcdd1f400000000000000000000000000000000000000000000000000000000815260040160405180910390fd5b92915050565b5f5f7f30644e72e131a029b85045b68181585d97816a916871ca8d3c208c16d87cfd4786101580610c6057507f30644e72e131a029b85045b68181585d97816a916871ca8d3c208c16d87cfd478510155b80610c8b57507f30644e72e131a029b85045b68181585d97816a916871ca8d3c208c16d87cfd478410155b80610cb657507f30644e72e131a029b85045b68181585d97816a916871ca8d3c208c16d87cfd478310155b15610ced576040517f7fcdd1f400000000000000000000000000000000000000000000000000000000815260040160405180910390fd5b5f8385878917171703610d05575f5f915091506111d2565b5f5f5f7f30644e72e131a029b85045b68181585d97816a916871ca8d3c208c16d87cfd4780610d3757610d36612165565b5b60037f30644e72e131a029b85045b68181585d97816a916871ca8d3c208c16d87cfd47610d6491906121bf565b7f30644e72e131a029b85045b68181585d97816a916871ca8d3c208c16d87cfd4780610d9357610d92612165565b5b8a8c090990505f7f30644e72e131a029b85045b68181585d97816a916871ca8d3c208c16d87cfd4780610dc957610dc8612165565b5b8a7f30644e72e131a029b85045b68181585d97816a916871ca8d3c208c16d87cfd4780610df957610df8612165565b5b8c8d090990505f7f30644e72e131a029b85045b68181585d97816a916871ca8d3c208c16d87cfd4780610e2f57610e2e612165565b5b8a7f30644e72e131a029b85045b68181585d97816a916871ca8d3c208c16d87cfd4780610e5f57610e5e612165565b5b8c8d090990507f30644e72e131a029b85045b68181585d97816a916871ca8d3c208c16d87cfd4780610e9457610e93612165565b5b7f30644e72e131a029b85045b68181585d97816a916871ca8d3c208c16d87cfd4780610ec357610ec2612165565b5b7f30644e72e131a029b85045b68181585d97816a916871ca8d3c208c16d87cfd4780610ef257610ef1612165565b5b8c860984087f2b149d40ceb8aaae81be18991be06ac3b5b4c5e559dbefa33267e6dc24a138e5089450610fd77f30644e72e131a029b85045b68181585d97816a916871ca8d3c208c16d87cfd4780610f4d57610f4c612165565b5b7f30644e72e131a029b85045b68181585d97816a916871ca8d3c208c16d87cfd4780610f7c57610f7b612165565b5b7f30644e72e131a029b85045b68181585d97816a916871ca8d3c208c16d87cfd4780610fab57610faa612165565b5b8e870984087f2fcd3ac2a640a154eb23960892a85a68f031ca0c8344b23a577dcf1052b9e775086119f1565b93505050505f5f61107a7f30644e72e131a029b85045b68181585d97816a916871ca8d3c208c16d87cfd47806110105761100f612165565b5b7f30644e72e131a029b85045b68181585d97816a916871ca8d3c208c16d87cfd478061103f5761103e612165565b5b8586097f30644e72e131a029b85045b68181585d97816a916871ca8d3c208c16d87cfd478061107157611070612165565b5b87880908611955565b90506111077f30644e72e131a029b85045b68181585d97816a916871ca8d3c208c16d87cfd47806110ae576110ad612165565b5b7f183227397098d014dc2822db40c0ac2ecbc0b548b438e5469e10460b6c3e7ea47f30644e72e131a029b85045b68181585d97816a916871ca8d3c208c16d87cfd47806110fe576110fd612165565b5b84880809611a5c565b15915050611116838383611ac6565b8093508194505050828714801561112c57508186145b15611154575f8161113d575f611140565b60025b60ff1660028b901b171794508793506111ce565b61115d836119f1565b87148015611172575061116f826119f1565b86145b1561119b57600181611184575f611187565b60025b60ff1660028b901b171794508793506111cd565b6040517f7fcdd1f400000000000000000000000000000000000000000000000000000000815260040160405180910390fd5b5b5050505b94509492505050565b5f5f5f60019050604051604081015f7f0e6a4fbb7dbc77e938006ffe98ba377842d6c72597aedf5ca272041bb5116aa483527f0c3e0cd6ea3febba0c3434f4cafcc8d35b319346e29dca0b48d21b8b91a1f73e60208401527f2dce49b52aaaca92c8c6e8b1942287258c06bbae12db20ca60089ee8eda07e0282527f2734ef5556b00472567353a018894070ac4113d82a0d744b6bb2b5ab2d0db5b76020830152863590508060408301527f30644e72e131a029b85045b68181585d2833e84879b9709143e1f593f000000181108416935060408260608460075afa8416935060408360808560065afa841693507f17a4d635ae8ccfe72baf976255633ab850a4b9d91b67d822b2d0b416f9a8071282527e243233e73b3ba87036fbcfdc674ef299b8a25acc6480392eb77762b82350c16020830152602087013590508060408301527f30644e72e131a029b85045b68181585d2833e84879b9709143e1f593f000000181108416935060408260608460075afa8416935060408360808560065afa841693507f15e8ad93d8e3c916ed7690e4d210d1d7e576eca14f7963c51f86f57ca45a96f582527f2a8dd1bcf86add4efce73b857b17e236574ff5e0a1490bc6748ecf884f75460a6020830152604087013590508060408301527f30644e72e131a029b85045b68181585d2833e84879b9709143e1f593f000000181108416935060408260608460075afa8416935060408360808560065afa8416935082519550602083015194505050508061143f576040517fa54f8e2700000000000000000000000000000000000000000000000000000000815260040160405180910390fd5b50915091565b5f5f5f8303611459575f5f91509150611575565b5f6001808516149050600184901c92507f30644e72e131a029b85045b68181585d97816a916871ca8d3c208c16d87cfd4783106114c2576040517f7fcdd1f400000000000000000000000000000000000000000000000000000000815260040160405180910390fd5b61155f7f30644e72e131a029b85045b68181585d97816a916871ca8d3c208c16d87cfd47806114f4576114f3612165565b5b60037f30644e72e131a029b85045b68181585d97816a916871ca8d3c208c16d87cfd478061152557611524612165565b5b867f30644e72e131a029b85045b68181585d97816a916871ca8d3c208c16d87cfd478061155557611554612165565b5b8889090908611955565b9150801561157357611570826119f1565b91505b505b915091565b5f5f5f5f5f8614801561158c57505f85145b156115a2575f5f5f5f935093509350935061194c565b5f60018088161490505f6002808916149050600288901c95508694507f30644e72e131a029b85045b68181585d97816a916871ca8d3c208c16d87cfd478610158061160d57507f30644e72e131a029b85045b68181585d97816a916871ca8d3c208c16d87cfd478510155b15611644576040517f7fcdd1f400000000000000000000000000000000000000000000000000000000815260040160405180910390fd5b5f7f30644e72e131a029b85045b68181585d97816a916871ca8d3c208c16d87cfd478061167457611673612165565b5b60037f30644e72e131a029b85045b68181585d97816a916871ca8d3c208c16d87cfd476116a191906121bf565b7f30644e72e131a029b85045b68181585d97816a916871ca8d3c208c16d87cfd47806116d0576116cf612165565b5b888a090990505f7f30644e72e131a029b85045b68181585d97816a916871ca8d3c208c16d87cfd478061170657611705612165565b5b887f30644e72e131a029b85045b68181585d97816a916871ca8d3c208c16d87cfd478061173657611735612165565b5b8a8b090990505f7f30644e72e131a029b85045b68181585d97816a916871ca8d3c208c16d87cfd478061176c5761176b612165565b5b887f30644e72e131a029b85045b68181585d97816a916871ca8d3c208c16d87cfd478061179c5761179b612165565b5b8a8b090990507f30644e72e131a029b85045b68181585d97816a916871ca8d3c208c16d87cfd47806117d1576117d0612165565b5b7f30644e72e131a029b85045b68181585d97816a916871ca8d3c208c16d87cfd4780611800576117ff612165565b5b7f30644e72e131a029b85045b68181585d97816a916871ca8d3c208c16d87cfd478061182f5761182e612165565b5b8a860984087f2b149d40ceb8aaae81be18991be06ac3b5b4c5e559dbefa33267e6dc24a138e50896506119147f30644e72e131a029b85045b68181585d97816a916871ca8d3c208c16d87cfd478061188a57611889612165565b5b7f30644e72e131a029b85045b68181585d97816a916871ca8d3c208c16d87cfd47806118b9576118b8612165565b5b7f30644e72e131a029b85045b68181585d97816a916871ca8d3c208c16d87cfd47806118e8576118e7612165565b5b8c870984087f2fcd3ac2a640a154eb23960892a85a68f031ca0c8344b23a577dcf1052b9e775086119f1565b9550611921878786611ac6565b8097508198505050841561194657611938876119f1565b9650611943866119f1565b95505b50505050505b92959194509250565b5f611980827f0c19139cb84c680a6e14116da060561765e05aa45a1c72a34f082305b61f3f52611dc1565b9050817f30644e72e131a029b85045b68181585d97816a916871ca8d3c208c16d87cfd47806119b2576119b1612165565b5b828309146119ec576040517f7fcdd1f400000000000000000000000000000000000000000000000000000000815260040160405180910390fd5b919050565b5f7f30644e72e131a029b85045b68181585d97816a916871ca8d3c208c16d87cfd47808381611a2357611a22612165565b5b067f30644e72e131a029b85045b68181585d97816a916871ca8d3c208c16d87cfd470381611a5457611a53612165565b5b069050919050565b5f5f611a88837f0c19139cb84c680a6e14116da060561765e05aa45a1c72a34f082305b61f3f52611dc1565b9050827f30644e72e131a029b85045b68181585d97816a916871ca8d3c208c16d87cfd4780611aba57611ab9612165565b5b82830914915050919050565b5f5f5f611b657f30644e72e131a029b85045b68181585d97816a916871ca8d3c208c16d87cfd4780611afb57611afa612165565b5b7f30644e72e131a029b85045b68181585d97816a916871ca8d3c208c16d87cfd4780611b2a57611b29612165565b5b8788097f30644e72e131a029b85045b68181585d97816a916871ca8d3c208c16d87cfd4780611b5c57611b5b612165565b5b898a0908611955565b90508315611b7957611b76816119f1565b90505b611c047f30644e72e131a029b85045b68181585d97816a916871ca8d3c208c16d87cfd4780611bab57611baa612165565b5b7f183227397098d014dc2822db40c0ac2ecbc0b548b438e5469e10460b6c3e7ea47f30644e72e131a029b85045b68181585d97816a916871ca8d3c208c16d87cfd4780611bfb57611bfa612165565b5b848a0809611955565b92507f30644e72e131a029b85045b68181585d97816a916871ca8d3c208c16d87cfd4780611c3557611c34612165565b5b611c707f30644e72e131a029b85045b68181585d97816a916871ca8d3c208c16d87cfd4780611c6757611c66612165565b5b60028609611e58565b860991507f30644e72e131a029b85045b68181585d97816a916871ca8d3c208c16d87cfd4780611ca357611ca2612165565b5b611cdd7f30644e72e131a029b85045b68181585d97816a916871ca8d3c208c16d87cfd4780611cd557611cd4612165565b5b8485096119f1565b7f30644e72e131a029b85045b68181585d97816a916871ca8d3c208c16d87cfd4780611d0c57611d0b612165565b5b8586090886141580611d8157507f30644e72e131a029b85045b68181585d97816a916871ca8d3c208c16d87cfd4780611d4857611d47612165565b5b7f30644e72e131a029b85045b68181585d97816a916871ca8d3c208c16d87cfd4780611d7757611d76612165565b5b8385096002098514155b15611db8576040517f7fcdd1f400000000000000000000000000000000000000000000000000000000815260040160405180910390fd5b50935093915050565b5f5f60405160208152602080820152602060408201528460608201528360808201527f30644e72e131a029b85045b68181585d97816a916871ca8d3c208c16d87cfd4760a082015260208160c08360055afa9150805192505080611e51576040517f7fcdd1f400000000000000000000000000000000000000000000000000000000815260040160405180910390fd5b5092915050565b5f611e83827f30644e72e131a029b85045b68181585d97816a916871ca8d3c208c16d87cfd45611dc1565b905060017f30644e72e131a029b85045b68181585d97816a916871ca8d3c208c16d87cfd4780611eb657611eb5612165565b5b82840914611ef0576040517f7fcdd1f400000000000000000000000000000000000000000000000000000000815260040160405180910390fd5b919050565b6040518060800160405280600490602082028036833780820191505090505090565b604051806103000160405280601890602082028036833780820191505090505090565b6040518060200160405280600190602082028036833780820191505090505090565b5f5ffd5b5f5ffd5b5f81905082602060080282011115611f7f57611f7e611f60565b5b92915050565b5f6101008284031215611f9b57611f9a611f5c565b5b5f611fa884828501611f64565b91505092915050565b5f60049050919050565b5f81905092915050565b5f819050919050565b5f819050919050565b611fe081611fce565b82525050565b5f611ff18383611fd7565b60208301905092915050565b5f602082019050919050565b61201281611fb1565b61201c8184611fbb565b925061202782611fc5565b805f5b8381101561205757815161203e8782611fe6565b965061204983611ffd565b92505060018101905061202a565b505050505050565b5f6080820190506120725f830184612009565b92915050565b5f8190508260206003028201111561209357612092611f60565b5b92915050565b5f5f61016083850312156120b0576120af611f5c565b5b5f6120bd85828601611f64565b9250506101006120cf85828601612078565b9150509250929050565b5f819050826020600402820111156120f4576120f3611f60565b5b92915050565b5f5f60e083850312156121105761210f611f5c565b5b5f61211d858286016120d9565b925050608061212e85828601612078565b9150509250929050565b7f4e487b71000000000000000000000000000000000000000000000000000000005f52603260045260245ffd5b7f4e487b71000000000000000000000000000000000000000000000000000000005f52601260045260245ffd5b7f4e487b71000000000000000000000000000000000000000000000000000000005f52601160045260245ffd5b5f6121c982611fce565b91506121d483611fce565b92508282039050818111156121ec576121eb612192565b5b9291505056fea2646970667358221220b495bdda80056d1cf68d95b5bc94ddc7f4c0e1f5c0981ead9a92eb55c37e245f64736f6c634300081f0033",
			"opcodes": "PUSH1 0x80 PUSH1 0x40 MSTORE CALLVALUE DUP1 ISZERO PUSH1 0xE JUMPI PUSH0 PUSH0 REVERT JUMPDEST POP PUSH2 0x2228 DUP1 PUSH2 0x1C PUSH0 CODECOPY PUSH0 RETURN INVALID PUSH1 0x80 PUSH1 0x40 MSTORE CALLVALUE DUP1 ISZERO PUSH2 0xF JUMPI PUSH0 PUSH0 REVERT JUMPDEST POP PUSH1 0x4 CALLDATASIZE LT PUSH2 0x3F JUMPI PUSH0 CALLDATALOAD PUSH1 0xE0 SHR DUP1 PUSH4 0x44F63692 EQ PUSH2 0x43 JUMPI DUP1 PUSH4 0x65C03259 EQ PUSH2 0x73 JUMPI DUP1 PUSH4 0x98C13DB9 EQ PUSH2 0x8F JUMPI JUMPDEST PUSH0 PUSH0 REVERT JUMPDEST PUSH2 0x5D PUSH1 0x4 DUP1 CALLDATASIZE SUB DUP2 ADD SWAP1 PUSH2 0x58 SWAP2 SWAP1 PUSH2 0x1F85 JUMP JUMPDEST PUSH2 0xAB JUMP JUMPDEST PUSH1 0x40 MLOAD PUSH2 0x6A SWAP2 SWAP1 PUSH2 0x205F JUMP JUMPDEST PUSH1 0x40 MLOAD DUP1 SWAP2 SUB SWAP1 RETURN JUMPDEST PUSH2 0x8D PUSH1 0x4 DUP1 CALLDATASIZE SUB DUP2 ADD SWAP1 PUSH2 0x88 SWAP2 SWAP1 PUSH2 0x2099 JUMP JUMPDEST PUSH2 0x20A JUMP JUMPDEST STOP JUMPDEST PUSH2 0xA9 PUSH1 0x4 DUP1 CALLDATASIZE SUB DUP2 ADD SWAP1 PUSH2 0xA4 SWAP2 SWAP1 PUSH2 0x20FA JUMP JUMPDEST PUSH2 0x4A5 JUMP JUMPDEST STOP JUMPDEST PUSH2 0xB3 PUSH2 0x1EF5 JUMP JUMPDEST PUSH2 0xEC DUP3 PUSH0 PUSH1 0x8 DUP2 LT PUSH2 0xC9 JUMPI PUSH2 0xC8 PUSH2 0x2138 JUMP JUMPDEST JUMPDEST PUSH1 0x20 MUL ADD CALLDATALOAD DUP4 PUSH1 0x1 PUSH1 0x8 DUP2 LT PUSH2 0xE2 JUMPI PUSH2 0xE1 PUSH2 0x2138 JUMP JUMPDEST JUMPDEST PUSH1 0x20 MUL ADD CALLDATALOAD PUSH2 0xA61 JUMP JUMPDEST DUP2 PUSH0 PUSH1 0x4 DUP2 LT PUSH2 0xFF JUMPI PUSH2 0xFE PUSH2 0x2138 JUMP JUMPDEST JUMPDEST PUSH1 0x20 MUL ADD DUP2 DUP2 MSTORE POP POP PUSH2 0x174 DUP3 PUSH1 0x3 PUSH1 0x8 DUP2 LT PUSH2 0x11F JUMPI PUSH2 0x11E PUSH2 0x2138 JUMP JUMPDEST JUMPDEST PUSH1 0x20 MUL ADD CALLDATALOAD DUP4 PUSH1 0x2 PUSH1 0x8 DUP2 LT PUSH2 0x138 JUMPI PUSH2 0x137 PUSH2 0x2138 JUMP JUMPDEST JUMPDEST PUSH1 0x20 MUL ADD CALLDATALOAD DUP5 PUSH1 0x5 PUSH1 0x8 DUP2 LT PUSH2 0x151 JUMPI PUSH2 0x150 PUSH2 0x2138 JUMP JUMPDEST JUMPDEST PUSH1 0x20 MUL ADD CALLDATALOAD DUP6 PUSH1 0x4 PUSH1 0x8 DUP2 LT PUSH2 0x16A JUMPI PUSH2 0x169 PUSH2 0x2138 JUMP JUMPDEST JUMPDEST PUSH1 0x20 MUL ADD CALLDATALOAD PUSH2 0xC0F JUMP JUMPDEST DUP3 PUSH1 0x2 PUSH1 0x4 DUP2 LT PUSH2 0x188 JUMPI PUSH2 0x187 PUSH2 0x2138 JUMP JUMPDEST JUMPDEST PUSH1 0x20 MUL ADD DUP4 PUSH1 0x1 PUSH1 0x4 DUP2 LT PUSH2 0x1A0 JUMPI PUSH2 0x19F PUSH2 0x2138 JUMP JUMPDEST JUMPDEST PUSH1 0x20 MUL ADD DUP3 DUP2 MSTORE POP DUP3 DUP2 MSTORE POP POP POP PUSH2 0x1E8 DUP3 PUSH1 0x6 PUSH1 0x8 DUP2 LT PUSH2 0x1C5 JUMPI PUSH2 0x1C4 PUSH2 0x2138 JUMP JUMPDEST JUMPDEST PUSH1 0x20 MUL ADD CALLDATALOAD DUP4 PUSH1 0x7 PUSH1 0x8 DUP2 LT PUSH2 0x1DE JUMPI PUSH2 0x1DD PUSH2 0x2138 JUMP JUMPDEST JUMPDEST PUSH1 0x20 MUL ADD CALLDATALOAD PUSH2 0xA61 JUMP JUMPDEST DUP2 PUSH1 0x3 PUSH1 0x4 DUP2 LT PUSH2 0x1FC JUMPI PUSH2 0x1FB PUSH2 0x2138 JUMP JUMPDEST JUMPDEST PUSH1 0x20 MUL ADD DUP2 DUP2 MSTORE POP POP SWAP2 SWAP1 POP JUMP JUMPDEST PUSH0 PUSH0 PUSH2 0x215 DUP4 PUSH2 0x11DB JUMP JUMPDEST SWAP2 POP SWAP2 POP PUSH0 PUSH1 0x40 MLOAD PUSH2 0x100 DUP7 DUP3 CALLDATACOPY PUSH32 0x2726F86620461A7AB939720A72ADB887A74FBAAB08A690E752DB52BEC76628F PUSH2 0x100 DUP3 ADD MSTORE PUSH32 0x1E76CE8639EDD037CD2C44FDD478EF620B36EBEC457032967094785CCF9E30B3 PUSH2 0x120 DUP3 ADD MSTORE PUSH32 0x1641A69ACD266F1F6139BB26DE25227E59DFE11CD2BE009DBAF130E50D7D644E PUSH2 0x140 DUP3 ADD MSTORE PUSH32 0x13ADD3D93BF72DCA8875CC1FEF240B901BDD4571E213FD26F7BFACB7479AE1DE PUSH2 0x160 DUP3 ADD MSTORE PUSH32 0xD8D3D5D304499F3CB145EEAD07F0D83149F9C780FBBECD46ED0B982BFEEE8BC PUSH2 0x180 DUP3 ADD MSTORE PUSH32 0xCC17044379771E6BF6AAD6C5B4B04E784F3BF4255A3622EEA0AE5F1E4BE70B7 PUSH2 0x1A0 DUP3 ADD MSTORE PUSH32 0x1130845BAE99BA7108CDC225A6A099B7CCE3E844320CB2DE5FA591249230D310 PUSH2 0x1C0 DUP3 ADD MSTORE PUSH32 0x1E5E686CE6A1EFA2BD888320D98112A96E9A5B80CAB2888D5C38F9C8AB13529A PUSH2 0x1E0 DUP3 ADD MSTORE PUSH32 0x25877F054E7FDC8E072ADE4081EAE7D81275ED3D5B8C3278F7977AB945703A1B PUSH2 0x200 DUP3 ADD MSTORE PUSH32 0x2C0EB915DDC31467549F3C1391B1DA761068D788BAA7AB71758786F9E26DF184 PUSH2 0x220 DUP3 ADD MSTORE DUP4 PUSH2 0x240 DUP3 ADD MSTORE DUP3 PUSH2 0x260 DUP3 ADD MSTORE PUSH32 0x2AEEF66DB17EC822FE5BFA49D1F8E8F4D8AA410A443BA1EC624F5C034B4A5B81 PUSH2 0x280 DUP3 ADD MSTORE PUSH32 0xD5DD63B4E13FEC5F90BF7B1529B6D59BCD714F0320DFA680A7428B026789148 PUSH2 0x2A0 DUP3 ADD MSTORE PUSH32 0x2B1D2C7E797858D79EBB91534EF3AE9DA7E6545640303A172384222D06B05490 PUSH2 0x2C0 DUP3 ADD MSTORE PUSH32 0x91420FBE454F7DEBB7717919F2BEFC2F04570488145F9BAF58CF2DB9038077F PUSH2 0x2E0 DUP3 ADD MSTORE PUSH1 0x20 DUP2 PUSH2 0x300 DUP4 PUSH1 0x8 GAS STATICCALL SWAP2 POP DUP1 MLOAD DUP3 AND SWAP2 POP POP DUP1 PUSH2 0x49E JUMPI PUSH1 0x40 MLOAD PUSH32 0x7FCDD1F400000000000000000000000000000000000000000000000000000000 DUP2 MSTORE PUSH1 0x4 ADD PUSH1 0x40 MLOAD DUP1 SWAP2 SUB SWAP1 REVERT JUMPDEST POP POP POP POP POP JUMP JUMPDEST PUSH2 0x4AD PUSH2 0x1F17 JUMP JUMPDEST PUSH0 PUSH0 PUSH2 0x4CF DUP6 PUSH0 PUSH1 0x4 DUP2 LT PUSH2 0x4C5 JUMPI PUSH2 0x4C4 PUSH2 0x2138 JUMP JUMPDEST JUMPDEST PUSH1 0x20 MUL ADD CALLDATALOAD PUSH2 0x1445 JUMP JUMPDEST SWAP2 POP SWAP2 POP PUSH0 PUSH0 PUSH0 PUSH0 PUSH2 0x511 DUP10 PUSH1 0x2 PUSH1 0x4 DUP2 LT PUSH2 0x4EE JUMPI PUSH2 0x4ED PUSH2 0x2138 JUMP JUMPDEST JUMPDEST PUSH1 0x20 MUL ADD CALLDATALOAD DUP11 PUSH1 0x1 PUSH1 0x4 DUP2 LT PUSH2 0x507 JUMPI PUSH2 0x506 PUSH2 0x2138 JUMP JUMPDEST JUMPDEST PUSH1 0x20 MUL ADD CALLDATALOAD PUSH2 0x157A JUMP JUMPDEST SWAP4 POP SWAP4 POP SWAP4 POP SWAP4 POP PUSH0 PUSH0 PUSH2 0x53C DUP12 PUSH1 0x3 PUSH1 0x4 DUP2 LT PUSH2 0x532 JUMPI PUSH2 0x531 PUSH2 0x2138 JUMP JUMPDEST JUMPDEST PUSH1 0x20 MUL ADD CALLDATALOAD PUSH2 0x1445 JUMP JUMPDEST SWAP2 POP SWAP2 POP PUSH0 PUSH0 PUSH2 0x54B DUP13 PUSH2 0x11DB JUMP JUMPDEST SWAP2 POP SWAP2 POP DUP10 DUP12 PUSH0 PUSH1 0x18 DUP2 LT PUSH2 0x563 JUMPI PUSH2 0x562 PUSH2 0x2138 JUMP JUMPDEST JUMPDEST PUSH1 0x20 MUL ADD DUP2 DUP2 MSTORE POP POP DUP9 DUP12 PUSH1 0x1 PUSH1 0x18 DUP2 LT PUSH2 0x581 JUMPI PUSH2 0x580 PUSH2 0x2138 JUMP JUMPDEST JUMPDEST PUSH1 0x20 MUL ADD DUP2 DUP2 MSTORE POP POP DUP7 DUP12 PUSH1 0x2 PUSH1 0x18 DUP2 LT PUSH2 0x59F JUMPI PUSH2 0x59E PUSH2 0x2138 JUMP JUMPDEST JUMPDEST PUSH1 0x20 MUL ADD DUP2 DUP2 MSTORE POP POP DUP8 DUP12 PUSH1 0x3 PUSH1 0x18 DUP2 LT PUSH2 0x5BD JUMPI PUSH2 0x5BC PUSH2 0x2138 JUMP JUMPDEST JUMPDEST PUSH1 0x20 MUL ADD DUP2 DUP2 MSTORE POP POP DUP5 DUP12 PUSH1 0x4 PUSH1 0x18 DUP2 LT PUSH2 0x5DB JUMPI PUSH2 0x5DA PUSH2 0x2138 JUMP JUMPDEST JUMPDEST PUSH1 0x20 MUL ADD DUP2 DUP2 MSTORE POP POP DUP6 DUP12 PUSH1 0x5 PUSH1 0x18 DUP2 LT PUSH2 0x5F9 JUMPI PUSH2 0x5F8 PUSH2 0x2138 JUMP JUMPDEST JUMPDEST PUSH1 0x20 MUL ADD DUP2 DUP2 MSTORE POP POP DUP4 DUP12 PUSH1 0x6 PUSH1 0x18 DUP2 LT PUSH2 0x617 JUMPI PUSH2 0x616 PUSH2 0x2138 JUMP JUMPDEST JUMPDEST PUSH1 0x20 MUL ADD DUP2 DUP2 MSTORE POP POP DUP3 DUP12 PUSH1 0x7 PUSH1 0x18 DUP2 LT PUSH2 0x635 JUMPI PUSH2 0x634 PUSH2 0x2138 JUMP JUMPDEST JUMPDEST PUSH1 0x20 MUL ADD DUP2 DUP2 MSTORE POP POP PUSH32 0x2726F86620461A7AB939720A72ADB887A74FBAAB08A690E752DB52BEC76628F DUP12 PUSH1 0x8 PUSH1 0x18 DUP2 LT PUSH2 0x673 JUMPI PUSH2 0x672 PUSH2 0x2138 JUMP JUMPDEST JUMPDEST PUSH1 0x20 MUL ADD DUP2 DUP2 MSTORE POP POP PUSH32 0x1E76CE8639EDD037CD2C44FDD478EF620B36EBEC457032967094785CCF9E30B3 DUP12 PUSH1 0x9 PUSH1 0x18 DUP2 LT PUSH2 0x6B1 JUMPI PUSH2 0x6B0 PUSH2 0x2138 JUMP JUMPDEST JUMPDEST PUSH1 0x20 MUL ADD DUP2 DUP2 MSTORE POP POP PUSH32 0x1641A69ACD266F1F6139BB26DE25227E59DFE11CD2BE009DBAF130E50D7D644E DUP12 PUSH1 0xA PUSH1 0x18 DUP2 LT PUSH2 0x6EF JUMPI PUSH2 0x6EE PUSH2 0x2138 JUMP JUMPDEST JUMPDEST PUSH1 0x20 MUL ADD DUP2 DUP2 MSTORE POP POP PUSH32 0x13ADD3D93BF72DCA8875CC1FEF240B901BDD4571E213FD26F7BFACB7479AE1DE DUP12 PUSH1 0xB PUSH1 0x18 DUP2 LT PUSH2 0x72D JUMPI PUSH2 0x72C PUSH2 0x2138 JUMP JUMPDEST JUMPDEST PUSH1 0x20 MUL ADD DUP2 DUP2 MSTORE POP POP PUSH32 0xD8D3D5D304499F3CB145EEAD07F0D83149F9C780FBBECD46ED0B982BFEEE8BC DUP12 PUSH1 0xC PUSH1 0x18 DUP2 LT PUSH2 0x76B JUMPI PUSH2 0x76A PUSH2 0x2138 JUMP JUMPDEST JUMPDEST PUSH1 0x20 MUL ADD DUP2 DUP2 MSTORE POP POP PUSH32 0xCC17044379771E6BF6AAD6C5B4B04E784F3BF4255A3622EEA0AE5F1E4BE70B7 DUP12 PUSH1 0xD PUSH1 0x18 DUP2 LT PUSH2 0x7A9 JUMPI PUSH2 0x7A8 PUSH2 0x2138 JUMP JUMPDEST JUMPDEST PUSH1 0x20 MUL ADD DUP2 DUP2 MSTORE POP POP PUSH32 0x1130845BAE99BA7108CDC225A6A099B7CCE3E844320CB2DE5FA591249230D310 DUP12 PUSH1 0xE PUSH1 0x18 DUP2 LT PUSH2 0x7E7 JUMPI PUSH2 0x7E6 PUSH2 0x2138 JUMP JUMPDEST JUMPDEST PUSH1 0x20 MUL ADD DUP2 DUP2 MSTORE POP POP PUSH32 0x1E5E686CE6A1EFA2BD888320D98112A96E9A5B80CAB2888D5C38F9C8AB13529A DUP12 PUSH1 0xF PUSH1 0x18 DUP2 LT PUSH2 0x825 JUMPI PUSH2 0x824 PUSH2 0x2138 JUMP JUMPDEST JUMPDEST PUSH1 0x20 MUL ADD DUP2 DUP2 MSTORE POP POP PUSH32 0x25877F054E7FDC8E072ADE4081EAE7D81275ED3D5B8C3278F7977AB945703A1B DUP12 PUSH1 0x10 PUSH1 0x18 DUP2 LT PUSH2 0x863 JUMPI PUSH2 0x862 PUSH2 0x2138 JUMP JUMPDEST JUMPDEST PUSH1 0x20 MUL ADD DUP2 DUP2 MSTORE POP POP PUSH32 0x2C0EB915DDC31467549F3C1391B1DA761068D788BAA7AB71758786F9E26DF184 DUP12 PUSH1 0x11 PUSH1 0x18 DUP2 LT PUSH2 0x8A1 JUMPI PUSH2 0x8A0 PUSH2 0x2138 JUMP JUMPDEST JUMPDEST PUSH1 0x20 MUL ADD DUP2 DUP2 MSTORE POP POP DUP2 DUP12 PUSH1 0x12 PUSH1 0x18 DUP2 LT PUSH2 0x8BF JUMPI PUSH2 0x8BE PUSH2 0x2138 JUMP JUMPDEST JUMPDEST PUSH1 0x20 MUL ADD DUP2 DUP2 MSTORE POP POP DUP1 DUP12 PUSH1 0x13 PUSH1 0x18 DUP2 LT PUSH2 0x8DD JUMPI PUSH2 0x8DC PUSH2 0x2138 JUMP JUMPDEST JUMPDEST PUSH1 0x20 MUL ADD DUP2 DUP2 MSTORE POP POP PUSH32 0x2AEEF66DB17EC822FE5BFA49D1F8E8F4D8AA410A443BA1EC624F5C034B4A5B81 DUP12 PUSH1 0x14 PUSH1 0x18 DUP2 LT PUSH2 0x91B JUMPI PUSH2 0x91A PUSH2 0x2138 JUMP JUMPDEST JUMPDEST PUSH1 0x20 MUL ADD DUP2 DUP2 MSTORE POP POP PUSH32 0xD5DD63B4E13FEC5F90BF7B1529B6D59BCD714F0320DFA680A7428B026789148 DUP12 PUSH1 0x15 PUSH1 0x18 DUP2 LT PUSH2 0x959 JUMPI PUSH2 0x958 PUSH2 0x2138 JUMP JUMPDEST JUMPDEST PUSH1 0x20 MUL ADD DUP2 DUP2 MSTORE POP POP PUSH32 0x2B1D2C7E797858D79EBB91534EF3AE9DA7E6545640303A172384222D06B05490 DUP12 PUSH1 0x16 PUSH1 0x18 DUP2 LT PUSH2 0x997 JUMPI PUSH2 0x996 PUSH2 0x2138 JUMP JUMPDEST JUMPDEST PUSH1 0x20 MUL ADD DUP2 DUP2 MSTORE POP POP PUSH32 0x91420FBE454F7DEBB7717919F2BEFC2F04570488145F9BAF58CF2DB9038077F DUP12 PUSH1 0x17 PUSH1 0x18 DUP2 LT PUSH2 0x9D5 JUMPI PUSH2 0x9D4 PUSH2 0x2138 JUMP JUMPDEST JUMPDEST PUSH1 0x20 MUL ADD DUP2 DUP2 MSTORE POP POP PUSH0 PUSH2 0x9E7 PUSH2 0x1F3A JUMP JUMPDEST PUSH1 0x20 DUP2 PUSH2 0x300 DUP16 PUSH1 0x8 GAS STATICCALL SWAP2 POP DUP2 ISZERO DUP1 PUSH2 0xA19 JUMPI POP PUSH1 0x1 DUP2 PUSH0 PUSH1 0x1 DUP2 LT PUSH2 0xA11 JUMPI PUSH2 0xA10 PUSH2 0x2138 JUMP JUMPDEST JUMPDEST PUSH1 0x20 MUL ADD MLOAD EQ ISZERO JUMPDEST ISZERO PUSH2 0xA50 JUMPI PUSH1 0x40 MLOAD PUSH32 0x7FCDD1F400000000000000000000000000000000000000000000000000000000 DUP2 MSTORE PUSH1 0x4 ADD PUSH1 0x40 MLOAD DUP1 SWAP2 SUB SWAP1 REVERT JUMPDEST POP POP POP POP POP POP POP POP POP POP POP POP POP POP POP JUMP JUMPDEST PUSH0 PUSH32 0x30644E72E131A029B85045B68181585D97816A916871CA8D3C208C16D87CFD47 DUP4 LT ISZERO DUP1 PUSH2 0xAB1 JUMPI POP PUSH32 0x30644E72E131A029B85045B68181585D97816A916871CA8D3C208C16D87CFD47 DUP3 LT ISZERO JUMPDEST ISZERO PUSH2 0xAE8 JUMPI PUSH1 0x40 MLOAD PUSH32 0x7FCDD1F400000000000000000000000000000000000000000000000000000000 DUP2 MSTORE PUSH1 0x4 ADD PUSH1 0x40 MLOAD DUP1 SWAP2 SUB SWAP1 REVERT JUMPDEST PUSH0 DUP4 EQ DUP1 ISZERO PUSH2 0xAF6 JUMPI POP PUSH0 DUP3 EQ JUMPDEST ISZERO PUSH2 0xB03 JUMPI PUSH0 SWAP1 POP PUSH2 0xC09 JUMP JUMPDEST PUSH0 PUSH2 0xBA1 PUSH32 0x30644E72E131A029B85045B68181585D97816A916871CA8D3C208C16D87CFD47 DUP1 PUSH2 0xB36 JUMPI PUSH2 0xB35 PUSH2 0x2165 JUMP JUMPDEST JUMPDEST PUSH1 0x3 PUSH32 0x30644E72E131A029B85045B68181585D97816A916871CA8D3C208C16D87CFD47 DUP1 PUSH2 0xB67 JUMPI PUSH2 0xB66 PUSH2 0x2165 JUMP JUMPDEST JUMPDEST DUP8 PUSH32 0x30644E72E131A029B85045B68181585D97816A916871CA8D3C208C16D87CFD47 DUP1 PUSH2 0xB97 JUMPI PUSH2 0xB96 PUSH2 0x2165 JUMP JUMPDEST JUMPDEST DUP10 DUP11 MULMOD MULMOD ADDMOD PUSH2 0x1955 JUMP JUMPDEST SWAP1 POP DUP1 DUP4 SUB PUSH2 0xBB9 JUMPI PUSH0 PUSH1 0x1 DUP6 SWAP1 SHL OR SWAP2 POP POP PUSH2 0xC09 JUMP JUMPDEST PUSH2 0xBC2 DUP2 PUSH2 0x19F1 JUMP JUMPDEST DUP4 SUB PUSH2 0xBD7 JUMPI PUSH1 0x1 DUP1 DUP6 SWAP1 SHL OR SWAP2 POP POP PUSH2 0xC09 JUMP JUMPDEST PUSH1 0x40 MLOAD PUSH32 0x7FCDD1F400000000000000000000000000000000000000000000000000000000 DUP2 MSTORE PUSH1 0x4 ADD PUSH1 0x40 MLOAD DUP1 SWAP2 SUB SWAP1 REVERT JUMPDEST SWAP3 SWAP2 POP POP JUMP JUMPDEST PUSH0 PUSH0 PUSH32 0x30644E72E131A029B85045B68181585D97816A916871CA8D3C208C16D87CFD47 DUP7 LT ISZERO DUP1 PUSH2 0xC60 JUMPI POP PUSH32 0x30644E72E131A029B85045B68181585D97816A916871CA8D3C208C16D87CFD47 DUP6 LT ISZERO JUMPDEST DUP1 PUSH2 0xC8B JUMPI POP PUSH32 0x30644E72E131A029B85045B68181585D97816A916871CA8D3C208C16D87CFD47 DUP5 LT ISZERO JUMPDEST DUP1 PUSH2 0xCB6 JUMPI POP PUSH32 0x30644E72E131A029B85045B68181585D97816A916871CA8D3C208C16D87CFD47 DUP4 LT ISZERO JUMPDEST ISZERO PUSH2 0xCED JUMPI PUSH1 0x40 MLOAD PUSH32 0x7FCDD1F400000000000000000000000000000000000000000000000000000000 DUP2 MSTORE PUSH1 0x4 ADD PUSH1 0x40 MLOAD DUP1 SWAP2 SUB SWAP1 REVERT JUMPDEST PUSH0 DUP4 DUP6 DUP8 DUP10 OR OR OR SUB PUSH2 0xD05 JUMPI PUSH0 PUSH0 SWAP2 POP SWAP2 POP PUSH2 0x11D2 JUMP JUMPDEST PUSH0 PUSH0 PUSH0 PUSH32 0x30644E72E131A029B85045B68181585D97816A916871CA8D3C208C16D87CFD47 DUP1 PUSH2 0xD37 JUMPI PUSH2 0xD36 PUSH2 0x2165 JUMP JUMPDEST JUMPDEST PUSH1 0x3 PUSH32 0x30644E72E131A029B85045B68181585D97816A916871CA8D3C208C16D87CFD47 PUSH2 0xD64 SWAP2 SWAP1 PUSH2 0x21BF JUMP JUMPDEST PUSH32 0x30644E72E131A029B85045B68181585D97816A916871CA8D3C208C16D87CFD47 DUP1 PUSH2 0xD93 JUMPI PUSH2 0xD92 PUSH2 0x2165 JUMP JUMPDEST JUMPDEST DUP11 DUP13 MULMOD MULMOD SWAP1 POP PUSH0 PUSH32 0x30644E72E131A029B85045B68181585D97816A916871CA8D3C208C16D87CFD47 DUP1 PUSH2 0xDC9 JUMPI PUSH2 0xDC8 PUSH2 0x2165 JUMP JUMPDEST JUMPDEST DUP11 PUSH32 0x30644E72E131A029B85045B68181585D97816A916871CA8D3C208C16D87CFD47 DUP1 PUSH2 0xDF9 JUMPI PUSH2 0xDF8 PUSH2 0x2165 JUMP JUMPDEST JUMPDEST DUP13 DUP14 MULMOD MULMOD SWAP1 POP PUSH0 PUSH32 0x30644E72E131A029B85045B68181585D97816A916871CA8D3C208C16D87CFD47 DUP1 PUSH2 0xE2F JUMPI PUSH2 0xE2E PUSH2 0x2165 JUMP JUMPDEST JUMPDEST DUP11 PUSH32 0x30644E72E131A029B85045B68181585D97816A916871CA8D3C208C16D87CFD47 DUP1 PUSH2 0xE5F JUMPI PUSH2 0xE5E PUSH2 0x2165 JUMP JUMPDEST JUMPDEST DUP13 DUP14 MULMOD MULMOD SWAP1 POP PUSH32 0x30644E72E131A029B85045B68181585D97816A916871CA8D3C208C16D87CFD47 DUP1 PUSH2 0xE94 JUMPI PUSH2 0xE93 PUSH2 0x2165 JUMP JUMPDEST JUMPDEST PUSH32 0x30644E72E131A029B85045B68181585D97816A916871CA8D3C208C16D87CFD47 DUP1 PUSH2 0xEC3 JUMPI PUSH2 0xEC2 PUSH2 0x2165 JUMP JUMPDEST JUMPDEST PUSH32 0x30644E72E131A029B85045B68181585D97816A916871CA8D3C208C16D87CFD47 DUP1 PUSH2 0xEF2 JUMPI PUSH2 0xEF1 PUSH2 0x2165 JUMP JUMPDEST JUMPDEST DUP13 DUP7 MULMOD DUP5 ADDMOD PUSH32 0x2B149D40CEB8AAAE81BE18991BE06AC3B5B4C5E559DBEFA33267E6DC24A138E5 ADDMOD SWAP5 POP PUSH2 0xFD7 PUSH32 0x30644E72E131A029B85045B68181585D97816A916871CA8D3C208C16D87CFD47 DUP1 PUSH2 0xF4D JUMPI PUSH2 0xF4C PUSH2 0x2165 JUMP JUMPDEST JUMPDEST PUSH32 0x30644E72E131A029B85045B68181585D97816A916871CA8D3C208C16D87CFD47 DUP1 PUSH2 0xF7C JUMPI PUSH2 0xF7B PUSH2 0x2165 JUMP JUMPDEST JUMPDEST PUSH32 0x30644E72E131A029B85045B68181585D97816A916871CA8D3C208C16D87CFD47 DUP1 PUSH2 0xFAB JUMPI PUSH2 0xFAA PUSH2 0x2165 JUMP JUMPDEST JUMPDEST DUP15 DUP8 MULMOD DUP5 ADDMOD PUSH32 0x2FCD3AC2A640A154EB23960892A85A68F031CA0C8344B23A577DCF1052B9E775 ADDMOD PUSH2 0x19F1 JUMP JUMPDEST SWAP4 POP POP POP POP PUSH0 PUSH0 PUSH2 0x107A PUSH32 0x30644E72E131A029B85045B68181585D97816A916871CA8D3C208C16D87CFD47 DUP1 PUSH2 0x1010 JUMPI PUSH2 0x100F PUSH2 0x2165 JUMP JUMPDEST JUMPDEST PUSH32 0x30644E72E131A029B85045B68181585D97816A916871CA8D3C208C16D87CFD47 DUP1 PUSH2 0x103F JUMPI PUSH2 0x103E PUSH2 0x2165 JUMP JUMPDEST JUMPDEST DUP6 DUP7 MULMOD PUSH32 0x30644E72E131A029B85045B68181585D97816A916871CA8D3C208C16D87CFD47 DUP1 PUSH2 0x1071 JUMPI PUSH2 0x1070 PUSH2 0x2165 JUMP JUMPDEST JUMPDEST DUP8 DUP9 MULMOD ADDMOD PUSH2 0x1955 JUMP JUMPDEST SWAP1 POP PUSH2 0x1107 PUSH32 0x30644E72E131A029B85045B68181585D97816A916871CA8D3C208C16D87CFD47 DUP1 PUSH2 0x10AE JUMPI PUSH2 0x10AD PUSH2 0x2165 JUMP JUMPDEST JUMPDEST PUSH32 0x183227397098D014DC2822DB40C0AC2ECBC0B548B438E5469E10460B6C3E7EA4 PUSH32 0x30644E72E131A029B85045B68181585D97816A916871CA8D3C208C16D87CFD47 DUP1 PUSH2 0x10FE JUMPI PUSH2 0x10FD PUSH2 0x2165 JUMP JUMPDEST JUMPDEST DUP5 DUP9 ADDMOD MULMOD PUSH2 0x1A5C JUMP JUMPDEST ISZERO SWAP2 POP POP PUSH2 0x1116 DUP4 DUP4 DUP4 PUSH2 0x1AC6 JUMP JUMPDEST DUP1 SWAP4 POP DUP2 SWAP5 POP POP POP DUP3 DUP8 EQ DUP1 ISZERO PUSH2 0x112C JUMPI POP DUP2 DUP7 EQ JUMPDEST ISZERO PUSH2 0x1154 JUMPI PUSH0 DUP2 PUSH2 0x113D JUMPI PUSH0 PUSH2 0x1140 JUMP JUMPDEST PUSH1 0x2 JUMPDEST PUSH1 0xFF AND PUSH1 0x2 DUP12 SWAP1 SHL OR OR SWAP5 POP DUP8 SWAP4 POP PUSH2 0x11CE JUMP JUMPDEST PUSH2 0x115D DUP4 PUSH2 0x19F1 JUMP JUMPDEST DUP8 EQ DUP1 ISZERO PUSH2 0x1172 JUMPI POP PUSH2 0x116F DUP3 PUSH2 0x19F1 JUMP JUMPDEST DUP7 EQ JUMPDEST ISZERO PUSH2 0x119B JUMPI PUSH1 0x1 DUP2 PUSH2 0x1184 JUMPI PUSH0 PUSH2 0x1187 JUMP JUMPDEST PUSH1 0x2 JUMPDEST PUSH1 0xFF AND PUSH1 0x2 DUP12 SWAP1 SHL OR OR SWAP5 POP DUP8 SWAP4 POP PUSH2 0x11CD JUMP JUMPDEST PUSH1 0x40 MLOAD PUSH32 0x7FCDD1F400000000000000000000000000000000000000000000000000000000 DUP2 MSTORE PUSH1 0x4 ADD PUSH1 0x40 MLOAD DUP1 SWAP2 SUB SWAP1 REVERT JUMPDEST JUMPDEST POP POP POP JUMPDEST SWAP5 POP SWAP5 SWAP3 POP POP POP JUMP JUMPDEST PUSH0 PUSH0 PUSH0 PUSH1 0x1 SWAP1 POP PUSH1 0x40 MLOAD PUSH1 0x40 DUP2 ADD PUSH0 PUSH32 0xE6A4FBB7DBC77E938006FFE98BA377842D6C72597AEDF5CA272041BB5116AA4 DUP4 MSTORE PUSH32 0xC3E0CD6EA3FEBBA0C3434F4CAFCC8D35B319346E29DCA0B48D21B8B91A1F73E PUSH1 0x20 DUP5 ADD MSTORE PUSH32 0x2DCE49B52AAACA92C8C6E8B1942287258C06BBAE12DB20CA60089EE8EDA07E02 DUP3 MSTORE PUSH32 0x2734EF5556B00472567353A018894070AC4113D82A0D744B6BB2B5AB2D0DB5B7 PUSH1 0x20 DUP4 ADD MSTORE DUP7 CALLDATALOAD SWAP1 POP DUP1 PUSH1 0x40 DUP4 ADD MSTORE PUSH32 0x30644E72E131A029B85045B68181585D2833E84879B9709143E1F593F0000001 DUP2 LT DUP5 AND SWAP4 POP PUSH1 0x40 DUP3 PUSH1 0x60 DUP5 PUSH1 0x7 GAS STATICCALL DUP5 AND SWAP4 POP PUSH1 0x40 DUP4 PUSH1 0x80 DUP6 PUSH1 0x6 GAS STATICCALL DUP5 AND SWAP4 POP PUSH32 0x17A4D635AE8CCFE72BAF976255633AB850A4B9D91B67D822B2D0B416F9A80712 DUP3 MSTORE PUSH31 0x243233E73B3BA87036FBCFDC674EF299B8A25ACC6480392EB77762B82350C1 PUSH1 0x20 DUP4 ADD MSTORE PUSH1 0x20 DUP8 ADD CALLDATALOAD SWAP1 POP DUP1 PUSH1 0x40 DUP4 ADD MSTORE PUSH32 0x30644E72E131A029B85045B68181585D2833E84879B9709143E1F593F0000001 DUP2 LT DUP5 AND SWAP4 POP PUSH1 0x40 DUP3 PUSH1 0x60 DUP5 PUSH1 0x7 GAS STATICCALL DUP5 AND SWAP4 POP PUSH1 0x40 DUP4 PUSH1 0x80 DUP6 PUSH1 0x6 GAS STATICCALL DUP5 AND SWAP4 POP PUSH32 0x15E8AD93D8E3C916ED7690E4D210D1D7E576ECA14F7963C51F86F57CA45A96F5 DUP3 MSTORE PUSH32 0x2A8DD1BCF86ADD4EFCE73B857B17E236574FF5E0A1490BC6748ECF884F75460A PUSH1 0x20 DUP4 ADD MSTORE PUSH1 0x40 DUP8 ADD CALLDATALOAD SWAP1 POP DUP1 PUSH1 0x40 DUP4 ADD MSTORE PUSH32 0x30644E72E131A029B85045B68181585D2833E84879B9709143E1F593F0000001 DUP2 LT DUP5 AND SWAP4 POP PUSH1 0x40 DUP3 PUSH1 0x60 DUP5 PUSH1 0x7 GAS STATICCALL DUP5 AND SWAP4 POP PUSH1 0x40 DUP4 PUSH1 0x80 DUP6 PUSH1 0x6 GAS STATICCALL DUP5 AND SWAP4 POP DUP3 MLOAD SWAP6 POP PUSH1 0x20 DUP4 ADD MLOAD SWAP5 POP POP POP POP DUP1 PUSH2 0x143F JUMPI PUSH1 0x40 MLOAD PUSH32 0xA54F8E2700000000000000000000000000000000000000000000000000000000 DUP2 MSTORE PUSH1 0x4 ADD PUSH1 0x40 MLOAD DUP1 SWAP2 SUB SWAP1 REVERT JUMPDEST POP SWAP2 POP SWAP2 JUMP JUMPDEST PUSH0 PUSH0 PUSH0 DUP4 SUB PUSH2 0x1459 JUMPI PUSH0 PUSH0 SWAP2 POP SWAP2 POP PUSH2 0x1575 JUMP JUMPDEST PUSH0 PUSH1 0x1 DUP1 DUP6 AND EQ SWAP1 POP PUSH1 0x1 DUP5 SWAP1 SHR SWAP3 POP PUSH32 0x30644E72E131A029B85045B68181585D97816A916871CA8D3C208C16D87CFD47 DUP4 LT PUSH2 0x14C2 JUMPI PUSH1 0x40 MLOAD PUSH32 0x7FCDD1F400000000000000000000000000000000000000000000000000000000 DUP2 MSTORE PUSH1 0x4 ADD PUSH1 0x40 MLOAD DUP1 SWAP2 SUB SWAP1 REVERT JUMPDEST PUSH2 0x155F PUSH32 0x30644E72E131A029B85045B68181585D97816A916871CA8D3C208C16D87CFD47 DUP1 PUSH2 0x14F4 JUMPI PUSH2 0x14F3 PUSH2 0x2165 JUMP JUMPDEST JUMPDEST PUSH1 0x3 PUSH32 0x30644E72E131A029B85045B68181585D97816A916871CA8D3C208C16D87CFD47 DUP1 PUSH2 0x1525 JUMPI PUSH2 0x1524 PUSH2 0x2165 JUMP JUMPDEST JUMPDEST DUP7 PUSH32 0x30644E72E131A029B85045B68181585D97816A916871CA8D3C208C16D87CFD47 DUP1 PUSH2 0x1555 JUMPI PUSH2 0x1554 PUSH2 0x2165 JUMP JUMPDEST JUMPDEST DUP9 DUP10 MULMOD MULMOD ADDMOD PUSH2 0x1955 JUMP JUMPDEST SWAP2 POP DUP1 ISZERO PUSH2 0x1573 JUMPI PUSH2 0x1570 DUP3 PUSH2 0x19F1 JUMP JUMPDEST SWAP2 POP JUMPDEST POP JUMPDEST SWAP2 POP SWAP2 JUMP JUMPDEST PUSH0 PUSH0 PUSH0 PUSH0 PUSH0 DUP7 EQ DUP1 ISZERO PUSH2 0x158C JUMPI POP PUSH0 DUP6 EQ JUMPDEST ISZERO PUSH2 0x15A2 JUMPI PUSH0 PUSH0 PUSH0 PUSH0 SWAP4 POP SWAP4 POP SWAP4 POP SWAP4 POP PUSH2 0x194C JUMP JUMPDEST PUSH0 PUSH1 0x1 DUP1 DUP9 AND EQ SWAP1 POP PUSH0 PUSH1 0x2 DUP1 DUP10 AND EQ SWAP1 POP PUSH1 0x2 DUP9 SWAP1 SHR SWAP6 POP DUP7 SWAP5 POP PUSH32 0x30644E72E131A029B85045B68181585D97816A916871CA8D3C208C16D87CFD47 DUP7 LT ISZERO DUP1 PUSH2 0x160D JUMPI POP PUSH32 0x30644E72E131A029B85045B68181585D97816A916871CA8D3C208C16D87CFD47 DUP6 LT ISZERO JUMPDEST ISZERO PUSH2 0x1644 JUMPI PUSH1 0x40 MLOAD PUSH32 0x7FCDD1F400000000000000000000000000000000000000000000000000000000 DUP2 MSTORE PUSH1 0x4 ADD PUSH1 0x40 MLOAD DUP1 SWAP2 SUB SWAP1 REVERT JUMPDEST PUSH0 PUSH32 0x30644E72E131A029B85045B68181585D97816A916871CA8D3C208C16D87CFD47 DUP1 PUSH2 0x1674 JUMPI PUSH2 0x1673 PUSH2 0x2165 JUMP JUMPDEST JUMPDEST PUSH1 0x3 PUSH32 0x30644E72E131A029B85045B68181585D97816A916871CA8D3C208C16D87CFD47 PUSH2 0x16A1 SWAP2 SWAP1 PUSH2 0x21BF JUMP JUMPDEST PUSH32 0x30644E72E131A029B85045B68181585D97816A916871CA8D3C208C16D87CFD47 DUP1 PUSH2 0x16D0 JUMPI PUSH2 0x16CF PUSH2 0x2165 JUMP JUMPDEST JUMPDEST DUP9 DUP11 MULMOD MULMOD SWAP1 POP PUSH0 PUSH32 0x30644E72E131A029B85045B68181585D97816A916871CA8D3C208C16D87CFD47 DUP1 PUSH2 0x1706 JUMPI PUSH2 0x1705 PUSH2 0x2165 JUMP JUMPDEST JUMPDEST DUP9 PUSH32 0x30644E72E131A029B85045B68181585D97816A916871CA8D3C208C16D87CFD47 DUP1 PUSH2 0x1736 JUMPI PUSH2 0x1735 PUSH2 0x2165 JUMP JUMPDEST JUMPDEST DUP11 DUP12 MULMOD MULMOD SWAP1 POP PUSH0 PUSH32 0x30644E72E131A029B85045B68181585D97816A916871CA8D3C208C16D87CFD47 DUP1 PUSH2 0x176C JUMPI PUSH2 0x176B PUSH2 0x2165 JUMP JUMPDEST JUMPDEST DUP9 PUSH32 0x30644E72E131A029B85045B68181585D97816A916871CA8D3C208C16D87CFD47 DUP1 PUSH2 0x179C JUMPI PUSH2 0x179B PUSH2 0x2165 JUMP JUMPDEST JUMPDEST DUP11 DUP12 MULMOD MULMOD SWAP1 POP PUSH32 0x30644E72E131A029B85045B68181585D97816A916871CA8D3C208C16D87CFD47 DUP1 PUSH2 0x17D1 JUMPI PUSH2 0x17D0 PUSH2 0x2165 JUMP JUMPDEST JUMPDEST PUSH32 0x30644E72E131A029B85045B68181585D97816A916871CA8D3C208C16D87CFD47 DUP1 PUSH2 0x1800 JUMPI PUSH2 0x17FF PUSH2 0x2165 JUMP JUMPDEST JUMPDEST PUSH32 0x30644E72E131A029B85045B68181585D97816A916871CA8D3C208C16D87CFD47 DUP1 PUSH2 0x182F JUMPI PUSH2 0x182E PUSH2 0x2165 JUMP JUMPDEST JUMPDEST DUP11 DUP7 MULMOD DUP5 ADDMOD PUSH32 0x2B149D40CEB8AAAE81BE18991BE06AC3B5B4C5E559DBEFA33267E6DC24A138E5 ADDMOD SWAP7 POP PUSH2 0x1914 PUSH32 0x30644E72E131A029B85045B68181585D97816A916871CA8D3C208C16D87CFD47 DUP1 PUSH2 0x188A JUMPI PUSH2 0x1889 PUSH2 0x2165 JUMP JUMPDEST JUMPDEST PUSH32 0x30644E72E131A029B85045B68181585D97816A916871CA8D3C208C16D87CFD47 DUP1 PUSH2 0x18B9 JUMPI PUSH2 0x18B8 PUSH2 0x2165 JUMP JUMPDEST JUMPDEST PUSH32 0x30644E72E131A029B85045B68181585D97816A916871CA8D3C208C16D87CFD47 DUP1 PUSH2 0x18E8 JUMPI PUSH2 0x18E7 PUSH2 0x2165 JUMP JUMPDEST JUMPDEST DUP13 DUP8 MULMOD DUP5 ADDMOD PUSH32 0x2FCD3AC2A640A154EB23960892A85A68F031CA0C8344B23A577DCF1052B9E775 ADDMOD PUSH2 0x19F1 JUMP JUMPDEST SWAP6 POP PUSH2 0x1921 DUP8 DUP8 DUP7 PUSH2 0x1AC6 JUMP JUMPDEST DUP1 SWAP8 POP DUP2 SWAP9 POP POP POP DUP5 ISZERO PUSH2 0x1946 JUMPI PUSH2 0x1938 DUP8 PUSH2 0x19F1 JUMP JUMPDEST SWAP7 POP PUSH2 0x1943 DUP7 PUSH2 0x19F1 JUMP JUMPDEST SWAP6 POP JUMPDEST POP POP POP POP POP JUMPDEST SWAP3 SWAP6 SWAP2 SWAP5 POP SWAP3 POP JUMP JUMPDEST PUSH0 PUSH2 0x1980 DUP3 PUSH32 0xC19139CB84C680A6E14116DA060561765E05AA45A1C72A34F082305B61F3F52 PUSH2 0x1DC1 JUMP JUMPDEST SWAP1 POP DUP2 PUSH32 0x30644E72E131A029B85045B68181585D97816A916871CA8D3C208C16D87CFD47 DUP1 PUSH2 0x19B2 JUMPI PUSH2 0x19B1 PUSH2 0x2165 JUMP JUMPDEST JUMPDEST DUP3 DUP4 MULMOD EQ PUSH2 0x19EC JUMPI PUSH1 0x40 MLOAD PUSH32 0x7FCDD1F400000000000000000000000000000000000000000000000000000000 DUP2 MSTORE PUSH1 0x4 ADD PUSH1 0x40 MLOAD DUP1 SWAP2 SUB SWAP1 REVERT JUMPDEST SWAP2 SWAP1 POP JUMP JUMPDEST PUSH0 PUSH32 0x30644E72E131A029B85045B68181585D97816A916871CA8D3C208C16D87CFD47 DUP1 DUP4 DUP2 PUSH2 0x1A23 JUMPI PUSH2 0x1A22 PUSH2 0x2165 JUMP JUMPDEST JUMPDEST MOD PUSH32 0x30644E72E131A029B85045B68181585D97816A916871CA8D3C208C16D87CFD47 SUB DUP2 PUSH2 0x1A54 JUMPI PUSH2 0x1A53 PUSH2 0x2165 JUMP JUMPDEST JUMPDEST MOD SWAP1 POP SWAP2 SWAP1 POP JUMP JUMPDEST PUSH0 PUSH0 PUSH2 0x1A88 DUP4 PUSH32 0xC19139CB84C680A6E14116DA060561765E05AA45A1C72A34F082305B61F3F52 PUSH2 0x1DC1 JUMP JUMPDEST SWAP1 POP DUP3 PUSH32 0x30644E72E131A029B85045B68181585D97816A916871CA8D3C208C16D87CFD47 DUP1 PUSH2 0x1ABA JUMPI PUSH2 0x1AB9 PUSH2 0x2165 JUMP JUMPDEST JUMPDEST DUP3 DUP4 MULMOD EQ SWAP2 POP POP SWAP2 SWAP1 POP JUMP JUMPDEST PUSH0 PUSH0 PUSH0 PUSH2 0x1B65 PUSH32 0x30644E72E131A029B85045B68181585D97816A916871CA8D3C208C16D87CFD47 DUP1 PUSH2 0x1AFB JUMPI PUSH2 0x1AFA PUSH2 0x2165 JUMP JUMPDEST JUMPDEST PUSH32 0x30644E72E131A029B85045B68181585D97816A916871CA8D3C208C16D87CFD47 DUP1 PUSH2 0x1B2A JUMPI PUSH2 0x1B29 PUSH2 0x2165 JUMP JUMPDEST JUMPDEST DUP8 DUP9 MULMOD PUSH32 0x30644E72E131A029B85045B68181585D97816A916871CA8D3C208C16D87CFD47 DUP1 PUSH2 0x1B5C JUMPI PUSH2 0x1B5B PUSH2 0x2165 JUMP JUMPDEST JUMPDEST DUP10 DUP11 MULMOD ADDMOD PUSH2 0x1955 JUMP JUMPDEST SWAP1 POP DUP4 ISZERO PUSH2 0x1B79 JUMPI PUSH2 0x1B76 DUP2 PUSH2 0x19F1 JUMP JUMPDEST SWAP1 POP JUMPDEST PUSH2 0x1C04 PUSH32 0x30644E72E131A029B85045B68181585D97816A916871CA8D3C208C16D87CFD47 DUP1 PUSH2 0x1BAB JUMPI PUSH2 0x1BAA PUSH2 0x2165 JUMP JUMPDEST JUMPDEST PUSH32 0x183227397098D014DC2822DB40C0AC2ECBC0B548B438E5469E10460B6C3E7EA4 PUSH32 0x30644E72E131A029B85045B68181585D97816A916871CA8D3C208C16D87CFD47 DUP1 PUSH2 0x1BFB JUMPI PUSH2 0x1BFA PUSH2 0x2165 JUMP JUMPDEST JUMPDEST DUP5 DUP11 ADDMOD MULMOD PUSH2 0x1955 JUMP JUMPDEST SWAP3 POP PUSH32 0x30644E72E131A029B85045B68181585D97816A916871CA8D3C208C16D87CFD47 DUP1 PUSH2 0x1C35 JUMPI PUSH2 0x1C34 PUSH2 0x2165 JUMP JUMPDEST JUMPDEST PUSH2 0x1C70 PUSH32 0x30644E72E131A029B85045B68181585D97816A916871CA8D3C208C16D87CFD47 DUP1 PUSH2 0x1C67 JUMPI PUSH2 0x1C66 PUSH2 0x2165 JUMP JUMPDEST JUMPDEST PUSH1 0x2 DUP7 MULMOD PUSH2 0x1E58 JUMP JUMPDEST DUP7 MULMOD SWAP2 POP PUSH32 0x30644E72E131A029B85045B68181585D97816A916871CA8D3C208C16D87CFD47 DUP1 PUSH2 0x1CA3 JUMPI PUSH2 0x1CA2 PUSH2 0x2165 JUMP JUMPDEST JUMPDEST PUSH2 0x1CDD PUSH32 0x30644E72E131A029B85045B68181585D97816A916871CA8D3C208C16D87CFD47 DUP1 PUSH2 0x1CD5 JUMPI PUSH2 0x1CD4 PUSH2 0x2165 JUMP JUMPDEST JUMPDEST DUP5 DUP6 MULMOD PUSH2 0x19F1 JUMP JUMPDEST PUSH32 0x30644E72E131A029B85045B68181585D97816A916871CA8D3C208C16D87CFD47 DUP1 PUSH2 0x1D0C JUMPI PUSH2 0x1D0B PUSH2 0x2165 JUMP JUMPDEST JUMPDEST DUP6 DUP7 MULMOD ADDMOD DUP7 EQ ISZERO DUP1 PUSH2 0x1D81 JUMPI POP PUSH32 0x30644E72E131A029B85045B68181585D97816A916871CA8D3C208C16D87CFD47 DUP1 PUSH2 0x1D48 JUMPI PUSH2 0x1D47 PUSH2 0x2165 JUMP JUMPDEST JUMPDEST PUSH32 0x30644E72E131A029B85045B68181585D97816A916871CA8D3C208C16D87CFD47 DUP1 PUSH2 0x1D77 JUMPI PUSH2 0x1D76 PUSH2 0x2165 JUMP JUMPDEST JUMPDEST DUP4 DUP6 MULMOD PUSH1 0x2 MULMOD DUP6 EQ ISZERO JUMPDEST ISZERO PUSH2 0x1DB8 JUMPI PUSH1 0x40 MLOAD PUSH32 0x7FCDD1F400000000000000000000000000000000000000000000000000000000 DUP2 MSTORE PUSH1 0x4 ADD PUSH1 0x40 MLOAD DUP1 SWAP2 SUB SWAP1 REVERT JUMPDEST POP SWAP4 POP SWAP4 SWAP2 POP POP JUMP JUMPDEST PUSH0 PUSH0 PUSH1 0x40 MLOAD PUSH1 0x20 DUP2 MSTORE PUSH1 0x20 DUP1 DUP3 ADD MSTORE PUSH1 0x20 PUSH1 0x40 DUP3 ADD MSTORE DUP5 PUSH1 0x60 DUP3 ADD MSTORE DUP4 PUSH1 0x80 DUP3 ADD MSTORE PUSH32 0x30644E72E131A029B85045B68181585D97816A916871CA8D3C208C16D87CFD47 PUSH1 0xA0 DUP3 ADD MSTORE PUSH1 0x20 DUP2 PUSH1 0xC0 DUP4 PUSH1 0x5 GAS STATICCALL SWAP2 POP DUP1 MLOAD SWAP3 POP POP DUP1 PUSH2 0x1E51 JUMPI PUSH1 0x40 MLOAD PUSH32 0x7FCDD1F400000000000000000000000000000000000000000000000000000000 DUP2 MSTORE PUSH1 0x4 ADD PUSH1 0x40 MLOAD DUP1 SWAP2 SUB SWAP1 REVERT JUMPDEST POP SWAP3 SWAP2 POP POP JUMP JUMPDEST PUSH0 PUSH2 0x1E83 DUP3 PUSH32 0x30644E72E131A029B85045B68181585D97816A916871CA8D3C208C16D87CFD45 PUSH2 0x1DC1 JUMP JUMPDEST SWAP1 POP PUSH1 0x1 PUSH32 0x30644E72E131A029B85045B68181585D97816A916871CA8D3C208C16D87CFD47 DUP1 PUSH2 0x1EB6 JUMPI PUSH2 0x1EB5 PUSH2 0x2165 JUMP JUMPDEST JUMPDEST DUP3 DUP5 MULMOD EQ PUSH2 0x1EF0 JUMPI PUSH1 0x40 MLOAD PUSH32 0x7FCDD1F400000000000000000000000000000000000000000000000000000000 DUP2 MSTORE PUSH1 0x4 ADD PUSH1 0x40 MLOAD DUP1 SWAP2 SUB SWAP1 REVERT JUMPDEST SWAP2 SWAP1 POP JUMP JUMPDEST PUSH1 0x40 MLOAD DUP1 PUSH1 0x80 ADD PUSH1 0x40 MSTORE DUP1 PUSH1 0x4 SWAP1 PUSH1 0x20 DUP3 MUL DUP1 CALLDATASIZE DUP4 CALLDATACOPY DUP1 DUP3 ADD SWAP2 POP POP SWAP1 POP POP SWAP1 JUMP JUMPDEST PUSH1 0x40 MLOAD DUP1 PUSH2 0x300 ADD PUSH1 0x40 MSTORE DUP1 PUSH1 0x18 SWAP1 PUSH1 0x20 DUP3 MUL DUP1 CALLDATASIZE DUP4 CALLDATACOPY DUP1 DUP3 ADD SWAP2 POP POP SWAP1 POP POP SWAP1 JUMP JUMPDEST PUSH1 0x40 MLOAD DUP1 PUSH1 0x20 ADD PUSH1 0x40 MSTORE DUP1 PUSH1 0x1 SWAP1 PUSH1 0x20 DUP3 MUL DUP1 CALLDATASIZE DUP4 CALLDATACOPY DUP1 DUP3 ADD SWAP2 POP POP SWAP1 POP POP SWAP1 JUMP JUMPDEST PUSH0 PUSH0 REVERT JUMPDEST PUSH0 PUSH0 REVERT JUMPDEST PUSH0 DUP2 SWAP1 POP DUP3 PUSH1 0x20 PUSH1 0x8 MUL DUP3 ADD GT ISZERO PUSH2 0x1F7F JUMPI PUSH2 0x1F7E PUSH2 0x1F60 JUMP JUMPDEST JUMPDEST SWAP3 SWAP2 POP POP JUMP JUMPDEST PUSH0 PUSH2 0x100 DUP3 DUP5 SUB SLT ISZERO PUSH2 0x1F9B JUMPI PUSH2 0x1F9A PUSH2 0x1F5C JUMP JUMPDEST JUMPDEST PUSH0 PUSH2 0x1FA8 DUP5 DUP3 DUP6 ADD PUSH2 0x1F64 JUMP JUMPDEST SWAP2 POP POP SWAP3 SWAP2 POP POP JUMP JUMPDEST PUSH0 PUSH1 0x4 SWAP1 POP SWAP2 SWAP1 POP JUMP JUMPDEST PUSH0 DUP2 SWAP1 POP SWAP3 SWAP2 POP POP JUMP JUMPDEST PUSH0 DUP2 SWAP1 POP SWAP2 SWAP1 POP JUMP JUMPDEST PUSH0 DUP2 SWAP1 POP SWAP2 SWAP1 POP JUMP JUMPDEST PUSH2 0x1FE0 DUP2 PUSH2 0x1FCE JUMP JUMPDEST DUP3 MSTORE POP POP JUMP JUMPDEST PUSH0 PUSH2 0x1FF1 DUP4 DUP4 PUSH2 0x1FD7 JUMP JUMPDEST PUSH1 0x20 DUP4 ADD SWAP1 POP SWAP3 SWAP2 POP POP JUMP JUMPDEST PUSH0 PUSH1 0x20 DUP3 ADD SWAP1 POP SWAP2 SWAP1 POP JUMP JUMPDEST PUSH2 0x2012 DUP2 PUSH2 0x1FB1 JUMP JUMPDEST PUSH2 0x201C DUP2 DUP5 PUSH2 0x1FBB JUMP JUMPDEST SWAP3 POP PUSH2 0x2027 DUP3 PUSH2 0x1FC5 JUMP JUMPDEST DUP1 PUSH0 JUMPDEST DUP4 DUP2 LT ISZERO PUSH2 0x2057 JUMPI DUP2 MLOAD PUSH2 0x203E DUP8 DUP3 PUSH2 0x1FE6 JUMP JUMPDEST SWAP7 POP PUSH2 0x2049 DUP4 PUSH2 0x1FFD JUMP JUMPDEST SWAP3 POP POP PUSH1 0x1 DUP2 ADD SWAP1 POP PUSH2 0x202A JUMP JUMPDEST POP POP POP POP POP POP JUMP JUMPDEST PUSH0 PUSH1 0x80 DUP3 ADD SWAP1 POP PUSH2 0x2072 PUSH0 DUP4 ADD DUP5 PUSH2 0x2009 JUMP JUMPDEST SWAP3 SWAP2 POP POP JUMP JUMPDEST PUSH0 DUP2 SWAP1 POP DUP3 PUSH1 0x20 PUSH1 0x3 MUL DUP3 ADD GT ISZERO PUSH2 0x2093 JUMPI PUSH2 0x2092 PUSH2 0x1F60 JUMP JUMPDEST JUMPDEST SWAP3 SWAP2 POP POP JUMP JUMPDEST PUSH0 PUSH0 PUSH2 0x160 DUP4 DUP6 SUB SLT ISZERO PUSH2 0x20B0 JUMPI PUSH2 0x20AF PUSH2 0x1F5C JUMP JUMPDEST JUMPDEST PUSH0 PUSH2 0x20BD DUP6 DUP3 DUP7 ADD PUSH2 0x1F64 JUMP JUMPDEST SWAP3 POP POP PUSH2 0x100 PUSH2 0x20CF DUP6 DUP3 DUP7 ADD PUSH2 0x2078 JUMP JUMPDEST SWAP2 POP POP SWAP3 POP SWAP3 SWAP1 POP JUMP JUMPDEST PUSH0 DUP2 SWAP1 POP DUP3 PUSH1 0x20 PUSH1 0x4 MUL DUP3 ADD GT ISZERO PUSH2 0x20F4 JUMPI PUSH2 0x20F3 PUSH2 0x1F60 JUMP JUMPDEST JUMPDEST SWAP3 SWAP2 POP POP JUMP JUMPDEST PUSH0 PUSH0 PUSH1 0xE0 DUP4 DUP6 SUB SLT ISZERO PUSH2 0x2110 JUMPI PUSH2 0x210F PUSH2 0x1F5C JUMP JUMPDEST JUMPDEST PUSH0 PUSH2 0x211D DUP6 DUP3 DUP7 ADD PUSH2 0x20D9 JUMP JUMPDEST SWAP3 POP POP PUSH1 0x80 PUSH2 0x212E DUP6 DUP3 DUP7 ADD PUSH2 0x2078 JUMP JUMPDEST SWAP2 POP POP SWAP3 POP SWAP3 SWAP1 POP JUMP JUMPDEST PUSH32 0x4E487B7100000000000000000000000000000000000000000000000000000000 PUSH0 MSTORE PUSH1 0x32 PUSH1 0x4 MSTORE PUSH1 0x24 PUSH0 REVERT JUMPDEST PUSH32 0x4E487B7100000000000000000000000000000000000000000000000000000000 PUSH0 MSTORE PUSH1 0x12 PUSH1 0x4 MSTORE PUSH1 0x24 PUSH0 REVERT JUMPDEST PUSH32 0x4E487B7100000000000000000000000000000000000000000000000000000000 PUSH0 MSTORE PUSH1 0x11 PUSH1 0x4 MSTORE PUSH1 0x24 PUSH0 REVERT JUMPDEST PUSH0 PUSH2 0x21C9 DUP3 PUSH2 0x1FCE JUMP JUMPDEST SWAP2 POP PUSH2 0x21D4 DUP4 PUSH2 0x1FCE JUMP JUMPDEST SWAP3 POP DUP3 DUP3 SUB SWAP1 POP DUP2 DUP2 GT ISZERO PUSH2 0x21EC JUMPI PUSH2 0x21EB PUSH2 0x2192 JUMP JUMPDEST JUMPDEST SWAP3 SWAP2 POP POP JUMP INVALID LOG2 PUSH5 0x6970667358 0x22 SLT KECCAK256 0xB4 SWAP6 0xBD 0xDA DUP1 SDIV PUSH14 0x1CF68D95B5BC94DDC7F4C0E1F5C0 SWAP9 CLZ 0xAD SWAP11 SWAP3 0xEB SSTORE 0xC3 PUSH31 0x245F64736F6C634300081F0033000000000000000000000000000000000000 "
		},
		"gasEstimates": {
			"creation": {
				"codeDepositCost": "1748800",
				"executionCost": "1839",
				"totalCost": "1750639"
			},
			"external": {
				"compressProof(uint256[8])": "infinite",
				"verifyCompressedProof(uint256[4],uint256[3])": "infinite",
				"verifyProof(uint256[8],uint256[3])": "infinite"
			},
			"internal": {
				"compress_g1(uint256,uint256)": "infinite",
				"compress_g2(uint256,uint256,uint256,uint256)": "infinite",
				"decompress_g1(uint256)": "infinite",
				"decompress_g2(uint256,uint256)": "infinite",
				"exp(uint256,uint256)": "infinite",
				"invert_Fp(uint256)": "infinite",
				"isSquare_Fp(uint256)": "infinite",
				"negate(uint256)": "83",
				"publicInputMSM(uint256[3] calldata)": "infinite",
				"sqrt_Fp(uint256)": "infinite",
				"sqrt_Fp2(uint256,uint256,bool)": "infinite"
			}
		},
		"methodIdentifiers": {
			"compressProof(uint256[8])": "44f63692",
			"verifyCompressedProof(uint256[4],uint256[3])": "98c13db9",
			"verifyProof(uint256[8],uint256[3])": "65c03259"
		}
	},
	"abi": [
		{
			"inputs": [],
			"name": "ProofInvalid",
			"type": "error"
		},
		{
			"inputs": [],
			"name": "PublicInputNotInField",
			"type": "error"
		},
		{
			"inputs": [
				{
					"internalType": "uint256[8]",
					"name": "proof",
					"type": "uint256[8]"
				}
			],
			"name": "compressProof",
			"outputs": [
				{
					"internalType": "uint256[4]",
					"name": "compressed",
					"type": "uint256[4]"
				}
			],
			"stateMutability": "view",
			"type": "function"
		},
		{
			"inputs": [
				{
					"internalType": "uint256[4]",
					"name": "compressedProof",
					"type": "uint256[4]"
				},
				{
					"internalType": "uint256[3]",
					"name": "input",
					"type": "uint256[3]"
				}
			],
			"name": "verifyCompressedProof",
			"outputs": [],
			"stateMutability": "view",
			"type": "function"
		},
		{
			"inputs": [
				{
					"internalType": "uint256[8]",
					"name": "proof",
					"type": "uint256[8]"
				},
				{
					"internalType": "uint256[3]",
					"name": "input",
					"type": "uint256[3]"
				}
			],
			"name": "verifyProof",
			"outputs": [],
			"stateMutability": "view",
			"type": "function"
		}
	]
}