{
	"data": {
		"bytecode": {
			"linkReferences": {},
			"object": "6080604052348015600e575f5ffd5b5061248e8061001c5f395ff3fe608060405234801561000f575f5ffd5b506004361061003f575f3560e01c80631042664e1461004357806344f636921461005f578063f6d3293a1461008f575b5f5ffd5b61005d6004803603810190610058919061220b565b6100ab565b005b6100796004803603810190610074919061224b565b610346565b6040516100869190612325565b60405180910390f35b6100a960048036038101906100a4919061235f565b6104a5565b005b5f5f6100b683610a61565b915091505f6040516101008682377f087fd653168a951e9d99cba7b3efa5f23cd770aee26310762175569dcd06e8b76101008201527f24f3a1fa7c06a2f2e4a750e8823d93357cb140176680f4d420ab2313250e525e6101208201527f1d6f6d2610943de1ce6a8ba4044e1fa3977593f9e31e4baa211290b1888c5ad96101408201527f281a52f75b48c5f6686c95dd5c635a1ca8152e678485d406528f210bc0756f836101608201527f1225909f34367dd4aaa172433b42e830c989433e1359caa801390e1fc921e17c6101808201527f03a299734a356f04b005b7817a060d69db2ee02978ca7a49910f0c063b24a6256101a08201527f0cdd632a5ebdc4a5ac5e580c6a25ba03396d8a2880c7577b1ca76b82adc67df46101c08201527f190816743b80784e78e7279d2146229d614b95eef924f5c30dd70f1cced26abb6101e08201527f2c37f47e67539af4a79ff97614e32afa8547fab8eabb09f260f2ea1464e3f5196102008201527f22ea03e91dd60412a313e72a0af52d9b5db4df76fc49fecb3919792c42c100aa61022082015283610240820152826102608201527f03e0bc12809be9a55c5d24d5ee90f820006b533601ffa21ea50d9ec823a055dd6102808201527f2f82deaf925710400085bdb950df2e551f9584fa54938ac6047e9b3ce91ae3d26102a08201527f0d55d27e2ab1e0b09cb4af92bb626b883b5abf4525fcea9212cbc963463b9ebc6102c08201527f0578e15bc3320595e5f87ece0e8b821718d6d72e524e070e506b60ea78160f946102e08201526020816103008360085afa9150805182169150508061033f576040517f7fcdd1f400000000000000000000000000000000000000000000000000000000815260040160405180910390fd5b5050505050565b61034e61215a565b610387825f600881106103645761036361239e565b5b60200201358360016008811061037d5761037c61239e565b5b6020020135610f30565b815f6004811061039a5761039961239e565b5b60200201818152505061040f826003600881106103ba576103b961239e565b5b6020020135836002600881106103d3576103d261239e565b5b6020020135846005600881106103ec576103eb61239e565b5b6020020135856004600881106104055761040461239e565b5b60200201356110de565b826002600481106104235761042261239e565b5b602002018360016004811061043b5761043a61239e565b5b6020020182815250828152505050610483826006600881106104605761045f61239e565b5b6020020135836007600881106104795761047861239e565b5b6020020135610f30565b816003600481106104975761049661239e565b5b602002018181525050919050565b6104ad61217c565b5f5f6104cf855f600481106104c5576104c461239e565b5b60200201356116aa565b915091505f5f5f5f610511896002600481106104ee576104ed61239e565b5b60200201358a6001600481106105075761050661239e565b5b60200201356117df565b93509350935093505f5f61053c8b6003600481106105325761053161239e565b5b60200201356116aa565b915091505f5f61054b8c610a61565b91509150898b5f601881106105635761056261239e565b5b602002018181525050888b6001601881106105815761058061239e565b5b602002018181525050868b60026018811061059f5761059e61239e565b5b602002018181525050878b6003601881106105bd576105bc61239e565b5b602002018181525050848b6004601881106105db576105da61239e565b5b602002018181525050858b6005601881106105f9576105f861239e565b5b602002018181525050838b6006601881106106175761061661239e565b5b602002018181525050828b6007601881106106355761063461239e565b5b6020020181815250507f087fd653168a951e9d99cba7b3efa5f23cd770aee26310762175569dcd06e8b78b6008601881106106735761067261239e565b5b6020020181815250507f24f3a1fa7c06a2f2e4a750e8823d93357cb140176680f4d420ab2313250e525e8b6009601881106106b1576106b061239e565b5b6020020181815250507f1d6f6d2610943de1ce6a8ba4044e1fa3977593f9e31e4baa211290b1888c5ad98b600a601881106106ef576106ee61239e565b5b6020020181815250507f281a52f75b48c5f6686c95dd5c635a1ca8152e678485d406528f210bc0756f838b600b6018811061072d5761072c61239e565b5b6020020181815250507f1225909f34367dd4aaa172433b42e830c989433e1359caa801390e1fc921e17c8b600c6018811061076b5761076a61239e565b5b6020020181815250507f03a299734a356f04b005b7817a060d69db2ee02978ca7a49910f0c063b24a6258b600d601881106107a9576107a861239e565b5b6020020181815250507f0cdd632a5ebdc4a5ac5e580c6a25ba03396d8a2880c7577b1ca76b82adc67df48b600e601881106107e7576107e661239e565b5b6020020181815250507f190816743b80784e78e7279d2146229d614b95eef924f5c30dd70f1cced26abb8b600f601881106108255761082461239e565b5b6020020181815250507f2c37f47e67539af4a79ff97614e32afa8547fab8eabb09f260f2ea1464e3f5198b6010601881106108635761086261239e565b5b6020020181815250507f22ea03e91dd60412a313e72a0af52d9b5db4df76fc49fecb3919792c42c100aa8b6011601881106108a1576108a061239e565b5b602002018181525050818b6012601881106108bf576108be61239e565b5b602002018181525050808b6013601881106108dd576108dc61239e565b5b6020020181815250507f03e0bc12809be9a55c5d24d5ee90f820006b533601ffa21ea50d9ec823a055dd8b60146018811061091b5761091a61239e565b5b6020020181815250507f2f82deaf925710400085bdb950df2e551f9584fa54938ac6047e9b3ce91ae3d28b6015601881106109595761095861239e565b5b6020020181815250507f0d55d27e2ab1e0b09cb4af92bb626b883b5abf4525fcea9212cbc963463b9ebc8b6016601881106109975761099661239e565b5b6020020181815250507f0578e15bc3320595e5f87ece0e8b821718d6d72e524e070e506b60ea78160f948b6017601881106109d5576109d461239e565b5b6020020181815250505f6109e761219f565b6020816103008f60085afa9150811580610a1957506001815f60018110610a1157610a1061239e565b5b602002015114155b15610a50576040517f7fcdd1f400000000000000000000000000000000000000000000000000000000815260040160405180910390fd5b505050505050505050505050505050565b5f5f5f60019050604051604081015f7f172482c47db38da1e2adcfac6291550bd451939b7c05e713ce41de479342f63f83527f2dd92e82d6cf0c2b208448ba0b1c34db7487dc263ffd807e5565061fad02c97a60208401527f299dd826f0b28f1022f96e610d6decc9a1c797ee3329e91be327380ebb82a27582527f2354eeb500f78c64806494899d31370e6546540476f9514ebaa7b0ed3b0f67b66020830152863590508060408301527f30644e72e131a029b85045b68181585d2833e84879b9709143e1f593f000000181108416935060408260608460075afa8416935060408360808560065afa841693507f0be2e789bc4109428c010e3e6cb73e450cab508f0f857a84b6c5b7bc8936e41782527f26d6e3250f77c8b96fecc1a3ccd4ccf3dff6caf2174ac0f897202c0962beee4f6020830152602087013590508060408301527f30644e72e131a029b85045b68181585d2833e84879b9709143e1f593f000000181108416935060408260608460075afa8416935060408360808560065afa841693507f2148134645adb557b2eddee4967207d676ba3c44fce9ac61426f420878e5626682527f13a34be592a5c9935d07c3a2cfc750a2089bf5a8a98bb6c3eb1618045dfe69f96020830152604087013590508060408301527f30644e72e131a029b85045b68181585d2833e84879b9709143e1f593f000000181108416935060408260608460075afa8416935060408360808560065afa841693507f2b664d948b59582ece65c95670d4a7ffd2195c9db45be7b196f3c5a3493ccc5982527f14b4a8ee6ffbf93e0f1d0ceceafa21a7b2fa02a16e2cbe29b64b0c6996cd65536020830152606087013590508060408301527f30644e72e131a029b85045b68181585d2833e84879b9709143e1f593f000000181108416935060408260608460075afa8416935060408360808560065afa841693507f0d467a02e07db065feee8ec2e5aaf895edd323d9c9759b0b7bd3cda4360668b782527f0545fd150327a2323164b5b602dbb02a862168964a6ede4bedbee8371493292e6020830152608087013590508060408301527f30644e72e131a029b85045b68181585d2833e84879b9709143e1f593f000000181108416935060408260608460075afa8416935060408360808560065afa841693507f05123f74ca521aadd6ac9b29dfd8a6d3c31b481c3c3f2ff9951e1b89e7fdb28382527f0aadb8338bf27ccc1d8511bfccaac5b66fddb5fdc098db7c3557954371e78bcb602083015260a087013590508060408301527f30644e72e131a029b85045b68181585d2833e84879b9709143e1f593f000000181108416935060408260608460075afa8416935060408360808560065afa841693507f1fb649c157e22261a4f9e93b6d54d70741a003be8760bfc9695fd1837042ed8982527f12e1495b19e55162784f8c0cacb00dcbad6c41c51d11ee36cc3975c5155109c9602083015260c087013590508060408301527f30644e72e131a029b85045b68181585d2833e84879b9709143e1f593f000000181108416935060408260608460075afa8416935060408360808560065afa84169350825195506020830151945050505080610f2a576040517fa54f8e2700000000000000000000000000000000000000000000000000000000815260040160405180910390fd5b50915091565b5f7f30644e72e131a029b85045b68181585d97816a916871ca8d3c208c16d87cfd4783101580610f8057507f30644e72e131a029b85045b68181585d97816a916871ca8d3c208c16d87cfd478210155b15610fb7576040517f7fcdd1f400000000000000000000000000000000000000000000000000000000815260040160405180910390fd5b5f83148015610fc557505f82145b15610fd2575f90506110d8565b5f6110707f30644e72e131a029b85045b68181585d97816a916871ca8d3c208c16d87cfd4780611005576110046123cb565b5b60037f30644e72e131a029b85045b68181585d97816a916871ca8d3c208c16d87cfd4780611036576110356123cb565b5b877f30644e72e131a029b85045b68181585d97816a916871ca8d3c208c16d87cfd4780611066576110656123cb565b5b898a090908611bba565b9050808303611088575f600185901b179150506110d8565b61109181611c56565b83036110a65760018085901b179150506110d8565b6040517f7fcdd1f400000000000000000000000000000000000000000000000000000000815260040160405180910390fd5b92915050565b5f5f7f30644e72e131a029b85045b68181585d97816a916871ca8d3c208c16d87cfd478610158061112f57507f30644e72e131a029b85045b68181585d97816a916871ca8d3c208c16d87cfd478510155b8061115a57507f30644e72e131a029b85045b68181585d97816a916871ca8d3c208c16d87cfd478410155b8061118557507f30644e72e131a029b85045b68181585d97816a916871ca8d3c208c16d87cfd478310155b156111bc576040517f7fcdd1f400000000000000000000000000000000000000000000000000000000815260040160405180910390fd5b5f83858789171717036111d4575f5f915091506116a1565b5f5f5f7f30644e72e131a029b85045b68181585d97816a916871ca8d3c208c16d87cfd4780611206576112056123cb565b5b60037f30644e72e131a029b85045b68181585d97816a916871ca8d3c208c16d87cfd476112339190612425565b7f30644e72e131a029b85045b68181585d97816a916871ca8d3c208c16d87cfd4780611262576112616123cb565b5b8a8c090990505f7f30644e72e131a029b85045b68181585d97816a916871ca8d3c208c16d87cfd4780611298576112976123cb565b5b8a7f30644e72e131a029b85045b68181585d97816a916871ca8d3c208c16d87cfd47806112c8576112c76123cb565b5b8c8d090990505f7f30644e72e131a029b85045b68181585d97816a916871ca8d3c208c16d87cfd47806112fe576112fd6123cb565b5b8a7f30644e72e131a029b85045b68181585d97816a916871ca8d3c208c16d87cfd478061132e5761132d6123cb565b5b8c8d090990507f30644e72e131a029b85045b68181585d97816a916871ca8d3c208c16d87cfd4780611363576113626123cb565b5b7f30644e72e131a029b85045b68181585d97816a916871ca8d3c208c16d87cfd4780611392576113916123cb565b5b7f30644e72e131a029b85045b68181585d97816a916871ca8d3c208c16d87cfd47806113c1576113c06123cb565b5b8c860984087f2b149d40ceb8aaae81be18991be06ac3b5b4c5e559dbefa33267e6dc24a138e50894506114a67f30644e72e131a029b85045b68181585d97816a916871ca8d3c208c16d87cfd478061141c5761141b6123cb565b5b7f30644e72e131a029b85045b68181585d97816a916871ca8d3c208c16d87cfd478061144b5761144a6123cb565b5b7f30644e72e131a029b85045b68181585d97816a916871ca8d3c208c16d87cfd478061147a576114796123cb565b5b8e870984087f2fcd3ac2a640a154eb23960892a85a68f031ca0c8344b23a577dcf1052b9e77508611c56565b93505050505f5f6115497f30644e72e131a029b85045b68181585d97816a916871ca8d3c208c16d87cfd47806114df576114de6123cb565b5b7f30644e72e131a029b85045b68181585d97816a916871ca8d3c208c16d87cfd478061150e5761150d6123cb565b5b8586097f30644e72e131a029b85045b68181585d97816a916871ca8d3c208c16d87cfd47806115405761153f6123cb565b5b87880908611bba565b90506115d67f30644e72e131a029b85045b68181585d97816a916871ca8d3c208c16d87cfd478061157d5761157c6123cb565b5b7f183227397098d014dc2822db40c0ac2ecbc0b548b438e5469e10460b6c3e7ea47f30644e72e131a029b85045b68181585d97816a916871ca8d3c208c16d87cfd47806115cd576115cc6123cb565b5b84880809611cc1565b159150506115e5838383611d2b565b809350819450505082871480156115fb57508186145b15611623575f8161160c575f61160f565b60025b60ff1660028b901b1717945087935061169d565b61162c83611c56565b87148015611641575061163e82611c56565b86145b1561166a57600181611653575f611656565b60025b60ff1660028b901b1717945087935061169c565b6040517f7fcdd1f400000000000000000000000000000000000000000000000000000000815260040160405180910390fd5b5b5050505b94509492505050565b5f5f5f83036116be575f5f915091506117da565b5f6001808516149050600184901c92507f30644e72e131a029b85045b68181585d97816a916871ca8d3c208c16d87cfd478310611727576040517f7fcdd1f400000000000000000000000000000000000000000000000000000000815260040160405180910390fd5b6117c47f30644e72e131a029b85045b68181585d97816a916871ca8d3c208c16d87cfd4780611759576117586123cb565b5b60037f30644e72e131a029b85045b68181585d97816a916871ca8d3c208c16d87cfd478061178a576117896123cb565b5b867f30644e72e131a029b85045b68181585d97816a916871ca8d3c208c16d87cfd47806117ba576117b96123cb565b5b8889090908611bba565b915080156117d8576117d582611c56565b91505b505b915091565b5f5f5f5f5f861480156117f157505f85145b15611807575f5f5f5f9350935093509350611bb1565b5f60018088161490505f6002808916149050600288901c95508694507f30644e72e131a029b85045b68181585d97816a916871ca8d3c208c16d87cfd478610158061187257507f30644e72e131a029b85045b68181585d97816a916871ca8d3c208c16d87cfd478510155b156118a9576040517f7fcdd1f400000000000000000000000000000000000000000000000000000000815260040160405180910390fd5b5f7f30644e72e131a029b85045b68181585d97816a916871ca8d3c208c16d87cfd47806118d9576118d86123cb565b5b60037f30644e72e131a029b85045b68181585d97816a916871ca8d3c208c16d87cfd476119069190612425565b7f30644e72e131a029b85045b68181585d97816a916871ca8d3c208c16d87cfd4780611935576119346123cb565b5b888a090990505f7f30644e72e131a029b85045b68181585d97816a916871ca8d3c208c16d87cfd478061196b5761196a6123cb565b5b887f30644e72e131a029b85045b68181585d97816a916871ca8d3c208c16d87cfd478061199b5761199a6123cb565b5b8a8b090990505f7f30644e72e131a029b85045b68181585d97816a916871ca8d3c208c16d87cfd47806119d1576119d06123cb565b5b887f30644e72e131a029b85045b68181585d97816a916871ca8d3c208c16d87cfd4780611a0157611a006123cb565b5b8a8b090990507f30644e72e131a029b85045b68181585d97816a916871ca8d3c208c16d87cfd4780611a3657611a356123cb565b5b7f30644e72e131a029b85045b68181585d97816a916871ca8d3c208c16d87cfd4780611a6557611a646123cb565b5b7f30644e72e131a029b85045b68181585d97816a916871ca8d3c208c16d87cfd4780611a9457611a936123cb565b5b8a860984087f2b149d40ceb8aaae81be18991be06ac3b5b4c5e559dbefa33267e6dc24a138e5089650611b797f30644e72e131a029b85045b68181585d97816a916871ca8d3c208c16d87cfd4780611aef57611aee6123cb565b5b7f30644e72e131a029b85045b68181585d97816a916871ca8d3c208c16d87cfd4780611b1e57611b1d6123cb565b5b7f30644e72e131a029b85045b68181585d97816a916871ca8d3c208c16d87cfd4780611b4d57611b4c6123cb565b5b8c870984087f2fcd3ac2a640a154eb23960892a85a68f031ca0c8344b23a577dcf1052b9e77508611c56565b9550611b86878786611d2b565b80975081985050508415611bab57611b9d87611c56565b9650611ba886611c56565b95505b50505050505b92959194509250565b5f611be5827f0c19139cb84c680a6e14116da060561765e05aa45a1c72a34f082305b61f3f52612026565b9050817f30644e72e131a029b85045b68181585d97816a916871ca8d3c208c16d87cfd4780611c1757611c166123cb565b5b82830914611c51576040517f7fcdd1f400000000000000000000000000000000000000000000000000000000815260040160405180910390fd5b919050565b5f7f30644e72e131a029b85045b68181585d97816a916871ca8d3c208c16d87cfd47808381611c8857611c876123cb565b5b067f30644e72e131a029b85045b68181585d97816a916871ca8d3c208c16d87cfd470381611cb957611cb86123cb565b5b069050919050565b5f5f611ced837f0c19139cb84c680a6e14116da060561765e05aa45a1c72a34f082305b61f3f52612026565b9050827f30644e72e131a029b85045b68181585d97816a916871ca8d3c208c16d87cfd4780611d1f57611d1e6123cb565b5b82830914915050919050565b5f5f5f611dca7f30644e72e131a029b85045b68181585d97816a916871ca8d3c208c16d87cfd4780611d6057611d5f6123cb565b5b7f30644e72e131a029b85045b68181585d97816a916871ca8d3c208c16d87cfd4780611d8f57611d8e6123cb565b5b8788097f30644e72e131a029b85045b68181585d97816a916871ca8d3c208c16d87cfd4780611dc157611dc06123cb565b5b898a0908611bba565b90508315611dde57611ddb81611c56565b90505b611e697f30644e72e131a029b85045b68181585d97816a916871ca8d3c208c16d87cfd4780611e1057611e0f6123cb565b5b7f183227397098d014dc2822db40c0ac2ecbc0b548b438e5469e10460b6c3e7ea47f30644e72e131a029b85045b68181585d97816a916871ca8d3c208c16d87cfd4780611e6057611e5f6123cb565b5b848a0809611bba565b92507f30644e72e131a029b85045b68181585d97816a916871ca8d3c208c16d87cfd4780611e9a57611e996123cb565b5b611ed57f30644e72e131a029b85045b68181585d97816a916871ca8d3c208c16d87cfd4780611ecc57611ecb6123cb565b5b600286096120bd565b860991507f30644e72e131a029b85045b68181585d97816a916871ca8d3c208c16d87cfd4780611f0857611f076123cb565b5b611f427f30644e72e131a029b85045b68181585d97816a916871ca8d3c208c16d87cfd4780611f3a57611f396123cb565b5b848509611c56565b7f30644e72e131a029b85045b68181585d97816a916871ca8d3c208c16d87cfd4780611f7157611f706123cb565b5b8586090886141580611fe657507f30644e72e131a029b85045b68181585d97816a916871ca8d3c208c16d87cfd4780611fad57611fac6123cb565b5b7f30644e72e131a029b85045b68181585d97816a916871ca8d3c208c16d87cfd4780611fdc57611fdb6123cb565b5b8385096002098514155b1561201d576040517f7fcdd1f400000000000000000000000000000000000000000000000000000000815260040160405180910390fd5b50935093915050565b5f5f60405160208152602080820152602060408201528460608201528360808201527f30644e72e131a029b85045b68181585d97816a916871ca8d3c208c16d87cfd4760a082015260208160c08360055afa91508051925050806120b6576040517f7fcdd1f400000000000000000000000000000000000000000000000000000000815260040160405180910390fd5b5092915050565b5f6120e8827f30644e72e131a029b85045b68181585d97816a916871ca8d3c208c16d87cfd45612026565b905060017f30644e72e131a029b85045b68181585d97816a916871ca8d3c208c16d87cfd478061211b5761211a6123cb565b5b82840914612155576040517f7fcdd1f400000000000000000000000000000000000000000000000000000000815260040160405180910390fd5b919050565b6040518060800160405280600490602082028036833780820191505090505090565b604051806103000160405280601890602082028036833780820191505090505090565b6040518060200160405280600190602082028036833780820191505090505090565b5f5ffd5b5f5ffd5b5f819050826020600802820111156121e4576121e36121c5565b5b92915050565b5f81905082602060070282011115612205576122046121c5565b5b92915050565b5f5f6101e08385031215612222576122216121c1565b5b5f61222f858286016121c9565b925050610100612241858286016121ea565b9150509250929050565b5f6101008284031215612261576122606121c1565b5b5f61226e848285016121c9565b91505092915050565b5f60049050919050565b5f81905092915050565b5f819050919050565b5f819050919050565b6122a681612294565b82525050565b5f6122b7838361229d565b60208301905092915050565b5f602082019050919050565b6122d881612277565b6122e28184612281565b92506122ed8261228b565b805f5b8381101561231d57815161230487826122ac565b965061230f836122c3565b9250506001810190506122f0565b505050505050565b5f6080820190506123385f8301846122cf565b92915050565b5f81905082602060040282011115612359576123586121c5565b5b92915050565b5f5f6101608385031215612376576123756121c1565b5b5f6123838582860161233e565b9250506080612394858286016121ea565b9150509250929050565b7f4e487b71000000000000000000000000000000000000000000000000000000005f52603260045260245ffd5b7f4e487b71000000000000000000000000000000000000000000000000000000005f52601260045260245ffd5b7f4e487b71000000000000000000000000000000000000000000000000000000005f52601160045260245ffd5b5f61242f82612294565b915061243a83612294565b9250828203905081811115612452576124516123f8565b5b9291505056fea2646970667358221220cb032bb55e86d85b2185d4aeeebb8d478f04c32983d9a49dda346d3387288c7764736f6c634300081f0033",
			"opcodes": "PUSH1 0x80 PUSH1 0x40 MSTORE CALLVALUE DUP1 ISZERO PUSH1 0xE JUMPI PUSH0 PUSH0 REVERT JUMPDEST POP PUSH2 0x248E DUP1 PUSH2 0x1C PUSH0 CODECOPY PUSH0 RETURN INVALID PUSH1 0x80 PUSH1 0x40 MSTORE CALLVALUE DUP1 ISZERO PUSH2 0xF JUMPI PUSH0 PUSH0 REVERT JUMPDEST POP PUSH1 0x4 CALLDATASIZE LT PUSH2 0x3F JUMPI PUSH0 CALLDATALOAD PUSH1 0xE0 SHR DUP1 PUSH4 0x1042664E EQ PUSH2 0x43 JUMPI DUP1 PUSH4 0x44F63692 EQ PUSH2 0x5F JUMPI DUP1 PUSH4 0xF6D3293A EQ PUSH2 0x8F JUMPI JUMPDEST PUSH0 PUSH0 REVERT JUMPDEST PUSH2 0x5D PUSH1 0x4 DUP1 CALLDATASIZE SUB DUP2 ADD SWAP1 PUSH2 0x58 SWAP2 SWAP1 PUSH2 0x220B JUMP JUMPDEST PUSH2 0xAB JUMP JUMPDEST STOP JUMPDEST PUSH2 0x79 PUSH1 0x4 DUP1 CALLDATASIZE SUB DUP2 ADD SWAP1 PUSH2 0x74 SWAP2 SWAP1 PUSH2 0x224B JUMP JUMPDEST PUSH2 0x346 JUMP JUMPDEST PUSH1 0x40 MLOAD PUSH2 0x86 SWAP2 SWAP1 PUSH2 0x2325 JUMP JUMPDEST PUSH1 0x40 MLOAD DUP1 SWAP2 SUB SWAP1 RETURN JUMPDEST PUSH2 0xA9 PUSH1 0x4 DUP1 CALLDATASIZE SUB DUP2 ADD SWAP1 PUSH2 0xA4 SWAP2 SWAP1 PUSH2 0x235F JUMP JUMPDEST PUSH2 0x4A5 JUMP JUMPDEST STOP JUMPDEST PUSH0 PUSH0 PUSH2 0xB6 DUP4 PUSH2 0xA61 JUMP JUMPDEST SWAP2 POP SWAP2 POP PUSH0 PUSH1 0x40 MLOAD PUSH2 0x100 DUP7 DUP3 CALLDATACOPY PUSH32 0x87FD653168A951E9D99CBA7B3EFA5F23CD770AEE26310762175569DCD06E8B7 PUSH2 0x100 DUP3 ADD MSTORE PUSH32 0x24F3A1FA7C06A2F2E4A750E8823D93357CB140176680F4D420AB2313250E525E PUSH2 0x120 DUP3 ADD MSTORE PUSH32 0x1D6F6D2610943DE1CE6A8BA4044E1FA3977593F9E31E4BAA211290B1888C5AD9 PUSH2 0x140 DUP3 ADD MSTORE PUSH32 0x281A52F75B48C5F6686C95DD5C635A1CA8152E678485D406528F210BC0756F83 PUSH2 0x160 DUP3 ADD MSTORE PUSH32 0x1225909F34367DD4AAA172433B42E830C989433E1359CAA801390E1FC921E17C PUSH2 0x180 DUP3 ADD MSTORE PUSH32 0x3A299734A356F04B005B7817A060D69DB2EE02978CA7A49910F0C063B24A625 PUSH2 0x1A0 DUP3 ADD MSTORE PUSH32 0xCDD632A5EBDC4A5AC5E580C6A25BA03396D8A2880C7577B1CA76B82ADC67DF4 PUSH2 0x1C0 DUP3 ADD MSTORE PUSH32 0x190816743B80784E78E7279D2146229D614B95EEF924F5C30DD70F1CCED26ABB PUSH2 0x1E0 DUP3 ADD MSTORE PUSH32 0x2C37F47E67539AF4A79FF97614E32AFA8547FAB8EABB09F260F2EA1464E3F519 PUSH2 0x200 DUP3 ADD MSTORE PUSH32 0x22EA03E91DD60412A313E72A0AF52D9B5DB4DF76FC49FECB3919792C42C100AA PUSH2 0x220 DUP3 ADD MSTORE DUP4 PUSH2 0x240 DUP3 ADD MSTORE DUP3 PUSH2 0x260 DUP3 ADD MSTORE PUSH32 0x3E0BC12809BE9A55C5D24D5EE90F820006B533601FFA21EA50D9EC823A055DD PUSH2 0x280 DUP3 ADD MSTORE PUSH32 0x2F82DEAF925710400085BDB950DF2E551F9584FA54938AC6047E9B3CE91AE3D2 PUSH2 0x2A0 DUP3 ADD MSTORE PUSH32 0xD55D27E2AB1E0B09CB4AF92BB626B883B5ABF4525FCEA9212CBC963463B9EBC PUSH2 0x2C0 DUP3 ADD MSTORE PUSH32 0x578E15BC3320595E5F87ECE0E8B821718D6D72E524E070E506B60EA78160F94 PUSH2 0x2E0 DUP3 ADD MSTORE PUSH1 0x20 DUP2 PUSH2 0x300 DUP4 PUSH1 0x8 GAS STATICCALL SWAP2 POP DUP1 MLOAD DUP3 AND SWAP2 POP POP DUP1 PUSH2 0x33F JUMPI PUSH1 0x40 MLOAD PUSH32 0x7FCDD1F400000000000000000000000000000000000000000000000000000000 DUP2 MSTORE PUSH1 0x4 ADD PUSH1 0x40 MLOAD DUP1 SWAP2 SUB SWAP1 REVERT JUMPDEST POP POP POP POP POP JUMP JUMPDEST PUSH2 0x34E PUSH2 0x215A JUMP JUMPDEST PUSH2 0x387 DUP3 PUSH0 PUSH1 0x8 DUP2 LT PUSH2 0x364 JUMPI PUSH2 0x363 PUSH2 0x239E JUMP JUMPDEST JUMPDEST PUSH1 0x20 MUL ADD CALLDATALOAD DUP4 PUSH1 0x1 PUSH1 0x8 DUP2 LT PUSH2 0x37D JUMPI PUSH2 0x37C PUSH2 0x239E JUMP JUMPDEST JUMPDEST PUSH1 0x20 MUL ADD CALLDATALOAD PUSH2 0xF30 JUMP JUMPDEST DUP2 PUSH0 PUSH1 0x4 DUP2 LT PUSH2 0x39A JUMPI PUSH2 0x399 PUSH2 0x239E JUMP JUMPDEST JUMPDEST PUSH1 0x20 MUL ADD DUP2 DUP2 MSTORE POP POP PUSH2 0x40F DUP3 PUSH1 0x3 PUSH1 0x8 DUP2 LT PUSH2 0x3BA JUMPI PUSH2 0x3B9 PUSH2 0x239E JUMP JUMPDEST JUMPDEST PUSH1 0x20 MUL ADD CALLDATALOAD DUP4 PUSH1 0x2 PUSH1 0x8 DUP2 LT PUSH2 0x3D3 JUMPI PUSH2 0x3D2 PUSH2 0x239E JUMP JUMPDEST JUMPDEST PUSH1 0x20 MUL ADD CALLDATALOAD DUP5 PUSH1 0x5 PUSH1 0x8 DUP2 LT PUSH2 0x3EC JUMPI PUSH2 0x3EB PUSH2 0x239E JUMP JUMPDEST JUMPDEST PUSH1 0x20 MUL ADD CALLDATALOAD DUP6 PUSH1 0x4 PUSH1 0x8 DUP2 LT PUSH2 0x405 JUMPI PUSH2 0x404 PUSH2 0x239E JUMP JUMPDEST JUMPDEST PUSH1 0x20 MUL ADD CALLDATALOAD PUSH2 0x10DE JUMP JUMPDEST DUP3 PUSH1 0x2 PUSH1 0x4 DUP2 LT PUSH2 0x423 JUMPI PUSH2 0x422 PUSH2 0x239E JUMP JUMPDEST JUMPDEST PUSH1 0x20 MUL ADD DUP4 PUSH1 0x1 PUSH1 0x4 DUP2 LT PUSH2 0x43B JUMPI PUSH2 0x43A PUSH2 0x239E JUMP JUMPDEST JUMPDEST PUSH1 0x20 MUL ADD DUP3 DUP2 MSTORE POP DUP3 DUP2 MSTORE POP POP POP PUSH2 0x483 DUP3 PUSH1 0x6 PUSH1 0x8 DUP2 LT PUSH2 0x460 JUMPI PUSH2 0x45F PUSH2 0x239E JUMP JUMPDEST JUMPDEST PUSH1 0x20 MUL ADD CALLDATALOAD DUP4 PUSH1 0x7 PUSH1 0x8 DUP2 LT PUSH2 0x479 JUMPI PUSH2 0x478 PUSH2 0x239E JUMP JUMPDEST JUMPDEST PUSH1 0x20 MUL ADD CALLDATALOAD PUSH2 0xF30 JUMP JUMPDEST DUP2 PUSH1 0x3 PUSH1 0x4 DUP2 LT PUSH2 0x497 JUMPI PUSH2 0x496 PUSH2 0x239E JUMP JUMPDEST JUMPDEST PUSH1 0x20 MUL ADD DUP2 DUP2 MSTORE POP POP SWAP2 SWAP1 POP JUMP JUMPDEST PUSH2 0x4AD PUSH2 0x217C JUMP JUMPDEST PUSH0 PUSH0 PUSH2 0x4CF DUP6 PUSH0 PUSH1 0x4 DUP2 LT PUSH2 0x4C5 JUMPI PUSH2 0x4C4 PUSH2 0x239E JUMP JUMPDEST JUMPDEST PUSH1 0x20 MUL ADD CALLDATALOAD PUSH2 0x16AA JUMP JUMPDEST SWAP2 POP SWAP2 POP PUSH0 PUSH0 PUSH0 PUSH0 PUSH2 0x511 DUP10 PUSH1 0x2 PUSH1 0x4 DUP2 LT PUSH2 0x4EE JUMPI PUSH2 0x4ED PUSH2 0x239E JUMP JUMPDEST JUMPDEST PUSH1 0x20 MUL ADD CALLDATALOAD DUP11 PUSH1 0x1 PUSH1 0x4 DUP2 LT PUSH2 0x507 JUMPI PUSH2 0x506 PUSH2 0x239E JUMP JUMPDEST JUMPDEST PUSH1 0x20 MUL ADD CALLDATALOAD PUSH2 0x17DF JUMP JUMPDEST SWAP4 POP SWAP4 POP SWAP4 POP SWAP4 POP PUSH0 PUSH0 PUSH2 0x53C DUP12 PUSH1 0x3 PUSH1 0x4 DUP2 LT PUSH2 0x532 JUMPI PUSH2 0x531 PUSH2 0x239E JUMP JUMPDEST JUMPDEST PUSH1 0x20 MUL ADD CALLDATALOAD PUSH2 0x16AA JUMP JUMPDEST SWAP2 POP SWAP2 POP PUSH0 PUSH0 PUSH2 0x54B DUP13 PUSH2 0xA61 JUMP JUMPDEST SWAP2 POP SWAP2 POP DUP10 DUP12 PUSH0 PUSH1 0x18 DUP2 LT PUSH2 0x563 JUMPI PUSH2 0x562 PUSH2 0x239E JUMP JUMPDEST JUMPDEST PUSH1 0x20 MUL ADD DUP2 DUP2 MSTORE POP POP DUP9 DUP12 PUSH1 0x1 PUSH1 0x18 DUP2 LT PUSH2 0x581 JUMPI PUSH2 0x580 PUSH2 0x239E JUMP JUMPDEST JUMPDEST PUSH1 0x20 MUL ADD DUP2 DUP2 MSTORE POP POP DUP7 DUP12 PUSH1 0x2 PUSH1 0x18 DUP2 LT PUSH2 0x59F JUMPI PUSH2 0x59E PUSH2 0x239E JUMP JUMPDEST JUMPDEST PUSH1 0x20 MUL ADD DUP2 DUP2 MSTORE POP POP DUP8 DUP12 PUSH1 0x3 PUSH1 0x18 DUP2 LT PUSH2 0x5BD JUMPI PUSH2 0x5BC PUSH2 0x239E JUMP JUMPDEST JUMPDEST PUSH1 0x20 MUL ADD DUP2 DUP2 MSTORE POP POP DUP5 DUP12 PUSH1 0x4 PUSH1 0x18 DUP2 LT PUSH2 0x5DB JUMPI PUSH2 0x5DA PUSH2 0x239E JUMP JUMPDEST JUMPDEST PUSH1 0x20 MUL ADD DUP2 DUP2 MSTORE POP POP DUP6 DUP12 PUSH1 0x5 PUSH1 0x18 DUP2 LT PUSH2 0x5F9 JUMPI PUSH2 0x5F8 PUSH2 0x239E JUMP JUMPDEST JUMPDEST PUSH1 0x20 MUL ADD DUP2 DUP2 MSTORE POP POP DUP4 DUP12 PUSH1 0x6 PUSH1 0x18 DUP2 LT PUSH2 0x617 JUMPI PUSH2 0x616 PUSH2 0x239E JUMP JUMPDEST JUMPDEST PUSH1 0x20 MUL ADD DUP2 DUP2 MSTORE POP POP DUP3 DUP12 PUSH1 0x7 PUSH1 0x18 DUP2 LT PUSH2 0x635 JUMPI PUSH2 0x634 PUSH2 0x239E JUMP JUMPDEST JUMPDEST PUSH1 0x20 MUL ADD DUP2 DUP2 MSTORE POP POP PUSH32 0x87FD653168A951E9D99CBA7B3EFA5F23CD770AEE26310762175569DCD06E8B7 DUP12 PUSH1 0x8 PUSH1 0x18 DUP2 LT PUSH2 0x673 JUMPI PUSH2 0x672 PUSH2 0x239E JUMP JUMPDEST JUMPDEST PUSH1 0x20 MUL ADD DUP2 DUP2 MSTORE POP POP PUSH32 0x24F3A1FA7C06A2F2E4A750E8823D93357CB140176680F4D420AB2313250E525E DUP12 PUSH1 0x9 PUSH1 0x18 DUP2 LT PUSH2 0x6B1 JUMPI PUSH2 0x6B0 PUSH2 0x239E JUMP JUMPDEST JUMPDEST PUSH1 0x20 MUL ADD DUP2 DUP2 MSTORE POP POP PUSH32 0x1D6F6D2610943DE1CE6A8BA4044E1FA3977593F9E31E4BAA211290B1888C5AD9 DUP12 PUSH1 0xA PUSH1 0x18 DUP2 LT PUSH2 0x6EF JUMPI PUSH2 0x6EE PUSH2 0x239E JUMP JUMPDEST JUMPDEST PUSH1 0x20 MUL ADD DUP2 DUP2 MSTORE POP POP PUSH32 0x281A52F75B48C5F6686C95DD5C635A1CA8152E678485D406528F210BC0756F83 DUP12 PUSH1 0xB PUSH1 0x18 DUP2 LT PUSH2 0x72D JUMPI PUSH2 0x72C PUSH2 0x239E JUMP JUMPDEST JUMPDEST PUSH1 0x20 MUL ADD DUP2 DUP2 MSTORE POP POP PUSH32 0x1225909F34367DD4AAA172433B42E830C989433E1359CAA801390E1FC921E17C DUP12 PUSH1 0xC PUSH1 0x18 DUP2 LT PUSH2 0x76B JUMPI PUSH2 0x76A PUSH2 0x239E JUMP JUMPDEST JUMPDEST PUSH1 0x20 MUL ADD DUP2 DUP2 MSTORE POP POP PUSH32 0x3A299734A356F04B005B7817A060D69DB2EE02978CA7A49910F0C063B24A625 DUP12 PUSH1 0xD PUSH1 0x18 DUP2 LT PUSH2 0x7A9 JUMPI PUSH2 0x7A8 PUSH2 0x239E JUMP JUMPDEST JUMPDEST PUSH1 0x20 MUL ADD DUP2 DUP2 MSTORE POP POP PUSH32 0xCDD632A5EBDC4A5AC5E580C6A25BA03396D8A2880C7577B1CA76B82ADC67DF4 DUP12 PUSH1 0xE PUSH1 0x18 DUP2 LT PUSH2 0x7E7 JUMPI PUSH2 0x7E6 PUSH2 0x239E JUMP JUMPDEST JUMPDEST PUSH1 0x20 MUL ADD DUP2 DUP2 MSTORE POP POP PUSH32 0x190816743B80784E78E7279D2146229D614B95EEF924F5C30DD70F1CCED26ABB DUP12 PUSH1 0xF PUSH1 0x18 DUP2 LT PUSH2 0x825 JUMPI PUSH2 0x824 PUSH2 0x239E JUMP JUMPDEST JUMPDEST PUSH1 0x20 MUL ADD DUP2 DUP2 MSTORE POP POP PUSH32 0x2C37F47E67539AF4A79FF97614E32AFA8547FAB8EABB09F260F2EA1464E3F519 DUP12 PUSH1 0x10 PUSH1 0x18 DUP2 LT PUSH2 0x863 JUMPI PUSH2 0x862 PUSH2 0x239E JUMP JUMPDEST JUMPDEST PUSH1 0x20 MUL ADD DUP2 DUP2 MSTORE POP POP PUSH32 0x22EA03E91DD60412A313E72A0AF52D9B5DB4DF76FC49FECB3919792C42C100AA DUP12 PUSH1 0x11 PUSH1 0x18 DUP2 LT PUSH2 0x8A1 JUMPI PUSH2 0x8A0 PUSH2 0x239E JUMP JUMPDEST JUMPDEST PUSH1 0x20 MUL ADD DUP2 DUP2 MSTORE POP POP DUP2 DUP12 PUSH1 0x12 PUSH1 0x18 DUP2 LT PUSH2 0x8BF JUMPI PUSH2 0x8BE PUSH2 0x239E JUMP JUMPDEST JUMPDEST PUSH1 0x20 MUL ADD DUP2 DUP2 MSTORE POP POP DUP1 DUP12 PUSH1 0x13 PUSH1 0x18 DUP2 LT PUSH2 0x8DD JUMPI PUSH2 0x8DC PUSH2 0x239E JUMP JUMPDEST JUMPDEST PUSH1 0x20 MUL ADD DUP2 DUP2 MSTORE POP POP PUSH32 0x3E0BC12809BE9A55C5D24D5EE90F820006B533601FFA21EA50D9EC823A055DD DUP12 PUSH1 0x14 PUSH1 0x18 DUP2 LT PUSH2 0x91B JUMPI PUSH2 0x91A PUSH2 0x239E JUMP JUMPDEST JUMPDEST PUSH1 0x20 MUL ADD DUP2 DUP2 MSTORE POP POP PUSH32 0x2F82DEAF925710400085BDB950DF2E551F9584FA54938AC6047E9B3CE91AE3D2 DUP12 PUSH1 0x15 PUSH1 0x18 DUP2 LT PUSH2 0x959 JUMPI PUSH2 0x958 PUSH2 0x239E JUMP JUMPDEST JUMPDEST PUSH1 0x20 MUL ADD DUP2 DUP2 MSTORE POP POP PUSH32 0xD55D27E2AB1E0B09CB4AF92BB626B883B5ABF4525FCEA9212CBC963463B9EBC DUP12 PUSH1 0x16 PUSH1 0x18 DUP2 LT PUSH2 0x997 JUMPI PUSH2 0x996 PUSH2 0x239E JUMP JUMPDEST JUMPDEST PUSH1 0x20 MUL ADD DUP2 DUP2 MSTORE POP POP PUSH32 0x578E15BC3320595E5F87ECE0E8B821718D6D72E524E070E506B60EA78160F94 DUP12 PUSH1 0x17 PUSH1 0x18 DUP2 LT PUSH2 0x9D5 JUMPI PUSH2 0x9D4 PUSH2 0x239E JUMP JUMPDEST JUMPDEST PUSH1 0x20 MUL ADD DUP2 DUP2 MSTORE POP POP PUSH0 PUSH2 0x9E7 PUSH2 0x219F JUMP JUMPDEST PUSH1 0x20 DUP2 PUSH2 0x300 DUP16 PUSH1 0x8 GAS STATICCALL SWAP2 POP DUP2 ISZERO DUP1 PUSH2 0xA19 JUMPI POP PUSH1 0x1 DUP2 PUSH0 PUSH1 0x1 DUP2 LT PUSH2 0xA11 JUMPI PUSH2 0xA10 PUSH2 0x239E JUMP JUMPDEST JUMPDEST PUSH1 0x20 MUL ADD MLOAD EQ ISZERO JUMPDEST ISZERO PUSH2 0xA50 JUMPI PUSH1 0x40 MLOAD PUSH32 0x7FCDD1F400000000000000000000000000000000000000000000000000000000 DUP2 MSTORE PUSH1 0x4 ADD PUSH1 0x40 MLOAD DUP1 SWAP2 SUB SWAP1 REVERT JUMPDEST POP POP POP POP POP POP POP POP POP POP POP POP POP POP POP JUMP JUMPDEST PUSH0 PUSH0 PUSH0 PUSH1 0x1 SWAP1 POP PUSH1 0x40 MLOAD PUSH1 0x40 DUP2 ADD PUSH0 PUSH32 0x172482C47DB38DA1E2ADCFAC6291550BD451939B7C05E713CE41DE479342F63F DUP4 MSTORE PUSH32 0x2DD92E82D6CF0C2B208448BA0B1C34DB7487DC263FFD807E5565061FAD02C97A PUSH1 0x20 DUP5 ADD MSTORE PUSH32 0x299DD826F0B28F1022F96E610D6DECC9A1C797EE3329E91BE327380EBB82A275 DUP3 MSTORE PUSH32 0x2354EEB500F78C64806494899D31370E6546540476F9514EBAA7B0ED3B0F67B6 PUSH1 0x20 DUP4 ADD MSTORE DUP7 CALLDATALOAD SWAP1 POP DUP1 PUSH1 0x40 DUP4 ADD MSTORE PUSH32 0x30644E72E131A029B85045B68181585D2833E84879B9709143E1F593F0000001 DUP2 LT DUP5 AND SWAP4 POP PUSH1 0x40 DUP3 PUSH1 0x60 DUP5 PUSH1 0x7 GAS STATICCALL DUP5 AND SWAP4 POP PUSH1 0x40 DUP4 PUSH1 0x80 DUP6 PUSH1 0x6 GAS STATICCALL DUP5 AND SWAP4 POP PUSH32 0xBE2E789BC4109428C010E3E6CB73E450CAB508F0F857A84B6C5B7BC8936E417 DUP3 MSTORE PUSH32 0x26D6E3250F77C8B96FECC1A3CCD4CCF3DFF6CAF2174AC0F897202C0962BEEE4F PUSH1 0x20 DUP4 ADD MSTORE PUSH1 0x20 DUP8 ADD CALLDATALOAD SWAP1 POP DUP1 PUSH1 0x40 DUP4 ADD MSTORE PUSH32 0x30644E72E131A029B85045B68181585D2833E84879B9709143E1F593F0000001 DUP2 LT DUP5 AND SWAP4 POP PUSH1 0x40 DUP3 PUSH1 0x60 DUP5 PUSH1 0x7 GAS STATICCALL DUP5 AND SWAP4 POP PUSH1 0x40 DUP4 PUSH1 0x80 DUP6 PUSH1 0x6 GAS STATICCALL DUP5 AND SWAP4 POP PUSH32 0x2148134645ADB557B2EDDEE4967207D676BA3C44FCE9AC61426F420878E56266 DUP3 MSTORE PUSH32 0x13A34BE592A5C9935D07C3A2CFC750A2089BF5A8A98BB6C3EB1618045DFE69F9 PUSH1 0x20 DUP4 ADD MSTORE PUSH1 0x40 DUP8 ADD CALLDATALOAD SWAP1 POP DUP1 PUSH1 0x40 DUP4 ADD MSTORE PUSH32 0x30644E72E131A029B85045B68181585D2833E84879B9709143E1F593F0000001 DUP2 LT DUP5 AND SWAP4 POP PUSH1 0x40 DUP3 PUSH1 0x60 DUP5 PUSH1 0x7 GAS STATICCALL DUP5 AND SWAP4 POP PUSH1 0x40 DUP4 PUSH1 0x80 DUP6 PUSH1 0x6 GAS STATICCALL DUP5 AND SWAP4 POP PUSH32 0x2B664D948B59582ECE65C95670D4A7FFD2195C9DB45BE7B196F3C5A3493CCC59 DUP3 MSTORE PUSH32 0x14B4A8EE6FFBF93E0F1D0CECEAFA21A7B2FA02A16E2CBE29B64B0C6996CD6553 PUSH1 0x20 DUP4 ADD MSTORE PUSH1 0x60 DUP8 ADD CALLDATALOAD SWAP1 POP DUP1 PUSH1 0x40 DUP4 ADD MSTORE PUSH32 0x30644E72E131A029B85045B68181585D2833E84879B9709143E1F593F0000001 DUP2 LT DUP5 AND SWAP4 POP PUSH1 0x40 DUP3 PUSH1 0x60 DUP5 PUSH1 0x7 GAS STATICCALL DUP5 AND SWAP4 POP PUSH1 0x40 DUP4 PUSH1 0x80 DUP6 PUSH1 0x6 GAS STATICCALL DUP5 AND SWAP4 POP PUSH32 0xD467A02E07DB065FEEE8EC2E5AAF895EDD323D9C9759B0B7BD3CDA4360668B7 DUP3 MSTORE PUSH32 0x545FD150327A2323164B5B602DBB02A862168964A6EDE4BEDBEE8371493292E PUSH1 0x20 DUP4 ADD MSTORE PUSH1 0x80 DUP8 ADD CALLDATALOAD SWAP1 POP DUP1 PUSH1 0x40 DUP4 ADD MSTORE PUSH32 0x30644E72E131A029B85045B68181585D2833E84879B9709143E1F593F0000001 DUP2 LT DUP5 AND SWAP4 POP PUSH1 0x40 DUP3 PUSH1 0x60 DUP5 PUSH1 0x7 GAS STATICCALL DUP5 AND SWAP4 POP PUSH1 0x40 DUP4 PUSH1 0x80 DUP6 PUSH1 0x6 GAS STATICCALL DUP5 AND SWAP4 POP PUSH32 0x5123F74CA521AADD6AC9B29DFD8A6D3C31B481C3C3F2FF9951E1B89E7FDB283 DUP3 MSTORE PUSH32 0xAADB8338BF27CCC1D8511BFCCAAC5B66FDDB5FDC098DB7C3557954371E78BCB PUSH1 0x20 DUP4 ADD MSTORE PUSH1 0xA0 DUP8 ADD CALLDATALOAD SWAP1 POP DUP1 PUSH1 0x40 DUP4 ADD MSTORE PUSH32 0x30644E72E131A029B85045B68181585D2833E84879B9709143E1F593F0000001 DUP2 LT DUP5 AND SWAP4 POP PUSH1 0x40 DUP3 PUSH1 0x60 DUP5 PUSH1 0x7 GAS STATICCALL DUP5 AND SWAP4 POP PUSH1 0x40 DUP4 PUSH1 0x80 DUP6 PUSH1 0x6 GAS STATICCALL DUP5 AND SWAP4 POP PUSH32 0x1FB649C157E22261A4F9E93B6D54D70741A003BE8760BFC9695FD1837042ED89 DUP3 MSTORE PUSH32 0x12E1495B19E55162784F8C0CACB00DCBAD6C41C51D11EE36CC3975C5155109C9 PUSH1 0x20 DUP4 ADD MSTORE PUSH1 0xC0 DUP8 ADD CALLDATALOAD SWAP1 POP DUP1 PUSH1 0x40 DUP4 ADD MSTORE PUSH32 0x30644E72E131A029B85045B68181585D2833E84879B9709143E1F593F0000001 DUP2 LT DUP5 AND SWAP4 POP PUSH1 0x40 DUP3 PUSH1 0x60 DUP5 PUSH1 0x7 GAS STATICCALL DUP5 AND SWAP4 POP PUSH1 0x40 DUP4 PUSH1 0x80 DUP6 PUSH1 0x6 GAS STATICCALL DUP5 AND SWAP4 POP DUP3 MLOAD SWAP6 POP PUSH1 0x20 DUP4 ADD MLOAD SWAP5 POP POP POP POP DUP1 PUSH2 0xF2A JUMPI PUSH1 0x40 MLOAD PUSH32 0xA54F8E2700000000000000000000000000000000000000000000000000000000 DUP2 MSTORE PUSH1 0x4 ADD PUSH1 0x40 MLOAD DUP1 SWAP2 SUB SWAP1 REVERT JUMPDEST POP SWAP2 POP SWAP2 JUMP JUMPDEST PUSH0 PUSH32 0x30644E72E131A029B85045B68181585D97816A916871CA8D3C208C16D87CFD47 DUP4 LT ISZERO DUP1 PUSH2 0xF80 JUMPI POP PUSH32 0x30644E72E131A029B85045B68181585D97816A916871CA8D3C208C16D87CFD47 DUP3 LT ISZERO JUMPDEST ISZERO PUSH2 0xFB7 JUMPI PUSH1 0x40 MLOAD PUSH32 0x7FCDD1F400000000000000000000000000000000000000000000000000000000 DUP2 MSTORE PUSH1 0x4 ADD PUSH1 0x40 MLOAD DUP1 SWAP2 SUB SWAP1 REVERT JUMPDEST PUSH0 DUP4 EQ DUP1 ISZERO PUSH2 0xFC5 JUMPI POP PUSH0 DUP3 EQ JUMPDEST ISZERO PUSH2 0xFD2 JUMPI PUSH0 SWAP1 POP PUSH2 0x10D8 JUMP JUMPDEST PUSH0 PUSH2 0x1070 PUSH32 0x30644E72E131A029B85045B68181585D97816A916871CA8D3C208C16D87CFD47 DUP1 PUSH2 0x1005 JUMPI PUSH2 0x1004 PUSH2 0x23CB JUMP JUMPDEST JUMPDEST PUSH1 0x3 PUSH32 0x30644E72E131A029B85045B68181585D97816A916871CA8D3C208C16D87CFD47 DUP1 PUSH2 0x1036 JUMPI PUSH2 0x1035 PUSH2 0x23CB JUMP JUMPDEST JUMPDEST DUP8 PUSH32 0x30644E72E131A029B85045B68181585D97816A916871CA8D3C208C16D87CFD47 DUP1 PUSH2 0x1066 JUMPI PUSH2 0x1065 PUSH2 0x23CB JUMP JUMPDEST JUMPDEST DUP10 DUP11 MULMOD MULMOD ADDMOD PUSH2 0x1BBA JUMP JUMPDEST SWAP1 POP DUP1 DUP4 SUB PUSH2 0x1088 JUMPI PUSH0 PUSH1 0x1 DUP6 SWAP1 SHL OR SWAP2 POP POP PUSH2 0x10D8 JUMP JUMPDEST PUSH2 0x1091 DUP2 PUSH2 0x1C56 JUMP JUMPDEST DUP4 SUB PUSH2 0x10A6 JUMPI PUSH1 0x1 DUP1 DUP6 SWAP1 SHL OR SWAP2 POP POP PUSH2 0x10D8 JUMP JUMPDEST PUSH1 0x40 MLOAD PUSH32 0x7FCDD1F400000000000000000000000000000000000000000000000000000000 DUP2 MSTORE PUSH1 0x4 ADD PUSH1 0x40 MLOAD DUP1 SWAP2 SUB SWAP1 REVERT JUMPDEST SWAP3 SWAP2 POP POP JUMP JUMPDEST PUSH0 PUSH0 PUSH32 0x30644E72E131A029B85045B68181585D97816A916871CA8D3C208C16D87CFD47 DUP7 LT ISZERO DUP1 PUSH2 0x112F JUMPI POP PUSH32 0x30644E72E131A029B85045B68181585D97816A916871CA8D3C208C16D87CFD47 DUP6 LT ISZERO JUMPDEST DUP1 PUSH2 0x115A JUMPI POP PUSH32 0x30644E72E131A029B85045B68181585D97816A916871CA8D3C208C16D87CFD47 DUP5 LT ISZERO JUMPDEST DUP1 PUSH2 0x1185 JUMPI POP PUSH32 0x30644E72E131A029B85045B68181585D97816A916871CA8D3C208C16D87CFD47 DUP4 LT ISZERO JUMPDEST ISZERO PUSH2 0x11BC JUMPI PUSH1 0x40 MLOAD PUSH32 0x7FCDD1F400000000000000000000000000000000000000000000000000000000 DUP2 MSTORE PUSH1 0x4 ADD PUSH1 0x40 MLOAD DUP1 SWAP2 SUB SWAP1 REVERT JUMPDEST PUSH0 DUP4 DUP6 DUP8 DUP10 OR OR OR SUB PUSH2 0x11D4 JUMPI PUSH0 PUSH0 SWAP2 POP SWAP2 POP PUSH2 0x16A1 JUMP JUMPDEST PUSH0 PUSH0 PUSH0 PUSH32 0x30644E72E131A029B85045B68181585D97816A916871CA8D3C208C16D87CFD47 DUP1 PUSH2 0x1206 JUMPI PUSH2 0x1205 PUSH2 0x23CB JUMP JUMPDEST JUMPDEST PUSH1 0x3 PUSH32 0x30644E72E131A029B85045B68181585D97816A916871CA8D3C208C16D87CFD47 PUSH2 0x1233 SWAP2 SWAP1 PUSH2 0x2425 JUMP JUMPDEST PUSH32 0x30644E72E131A029B85045B68181585D97816A916871CA8D3C208C16D87CFD47 DUP1 PUSH2 0x1262 JUMPI PUSH2 0x1261 PUSH2 0x23CB JUMP JUMPDEST JUMPDEST DUP11 DUP13 MULMOD MULMOD SWAP1 POP PUSH0 PUSH32 0x30644E72E131A029B85045B68181585D97816A916871CA8D3C208C16D87CFD47 DUP1 PUSH2 0x1298 JUMPI PUSH2 0x1297 PUSH2 0x23CB JUMP JUMPDEST JUMPDEST DUP11 PUSH32 0x30644E72E131A029B85045B68181585D97816A916871CA8D3C208C16D87CFD47 DUP1 PUSH2 0x12C8 JUMPI PUSH2 0x12C7 PUSH2 0x23CB JUMP JUMPDEST JUMPDEST DUP13 DUP14 MULMOD MULMOD SWAP1 POP PUSH0 PUSH32 0x30644E72E131A029B85045B68181585D97816A916871CA8D3C208C16D87CFD47 DUP1 PUSH2 0x12FE JUMPI PUSH2 0x12FD PUSH2 0x23CB JUMP JUMPDEST JUMPDEST DUP11 PUSH32 0x30644E72E131A029B85045B68181585D97816A916871CA8D3C208C16D87CFD47 DUP1 PUSH2 0x132E JUMPI PUSH2 0x132D PUSH2 0x23CB JUMP JUMPDEST JUMPDEST DUP13 DUP14 MULMOD MULMOD SWAP1 POP PUSH32 0x30644E72E131A029B85045B68181585D97816A916871CA8D3C208C16D87CFD47 DUP1 PUSH2 0x1363 JUMPI PUSH2 0x1362 PUSH2 0x23CB JUMP JUMPDEST JUMPDEST PUSH32 0x30644E72E131A029B85045B68181585D97816A916871CA8D3C208C16D87CFD47 DUP1 PUSH2 0x1392 JUMPI PUSH2 0x1391 PUSH2 0x23CB JUMP JUMPDEST JUMPDEST PUSH32 0x30644E72E131A029B85045B68181585D97816A916871CA8D3C208C16D87CFD47 DUP1 PUSH2 0x13C1 JUMPI PUSH2 0x13C0 PUSH2 0x23CB JUMP JUMPDEST JUMPDEST DUP13 DUP7 MULMOD DUP5 ADDMOD PUSH32 0x2B149D40CEB8AAAE81BE18991BE06AC3B5B4C5E559DBEFA33267E6DC24A138E5 ADDMOD SWAP5 POP PUSH2 0x14A6 PUSH32 0x30644E72E131A029B85045B68181585D97816A916871CA8D3C208C16D87CFD47 DUP1 PUSH2 0x141C JUMPI PUSH2 0x141B PUSH2 0x23CB JUMP JUMPDEST JUMPDEST PUSH32 0x30644E72E131A029B85045B68181585D97816A916871CA8D3C208C16D87CFD47 DUP1 PUSH2 0x144B JUMPI PUSH2 0x144A PUSH2 0x23CB JUMP JUMPDEST JUMPDEST PUSH32 0x30644E72E131A029B85045B68181585D97816A916871CA8D3C208C16D87CFD47 DUP1 PUSH2 0x147A JUMPI PUSH2 0x1479 PUSH2 0x23CB JUMP JUMPDEST JUMPDEST DUP15 DUP8 MULMOD DUP5 ADDMOD PUSH32 0x2FCD3AC2A640A154EB23960892A85A68F031CA0C8344B23A577DCF1052B9E775 ADDMOD PUSH2 0x1C56 JUMP JUMPDEST SWAP4 POP POP POP POP PUSH0 PUSH0 PUSH2 0x1549 PUSH32 0x30644E72E131A029B85045B68181585D97816A916871CA8D3C208C16D87CFD47 DUP1 PUSH2 0x14DF JUMPI PUSH2 0x14DE PUSH2 0x23CB JUMP JUMPDEST JUMPDEST PUSH32 0x30644E72E131A029B85045B68181585D97816A916871CA8D3C208C16D87CFD47 DUP1 PUSH2 0x150E JUMPI PUSH2 0x150D PUSH2 0x23CB JUMP JUMPDEST JUMPDEST DUP6 DUP7 MULMOD PUSH32 0x30644E72E131A029B85045B68181585D97816A916871CA8D3C208C16D87CFD47 DUP1 PUSH2 0x1540 JUMPI PUSH2 0x153F PUSH2 0x23CB JUMP JUMPDEST JUMPDEST DUP8 DUP9 MULMOD ADDMOD PUSH2 0x1BBA JUMP JUMPDEST SWAP1 POP PUSH2 0x15D6 PUSH32 0x30644E72E131A029B85045B68181585D97816A916871CA8D3C208C16D87CFD47 DUP1 PUSH2 0x157D JUMPI PUSH2 0x157C PUSH2 0x23CB JUMP JUMPDEST JUMPDEST PUSH32 0x183227397098D014DC2822DB40C0AC2ECBC0B548B438E5469E10460B6C3E7EA4 PUSH32 0x30644E72E131A029B85045B68181585D97816A916871CA8D3C208C16D87CFD47 DUP1 PUSH2 0x15CD JUMPI PUSH2 0x15CC PUSH2 0x23CB JUMP JUMPDEST JUMPDEST DUP5 DUP9 ADDMOD MULMOD PUSH2 0x1CC1 JUMP JUMPDEST ISZERO SWAP2 POP POP PUSH2 0x15E5 DUP4 DUP4 DUP4 PUSH2 0x1D2B JUMP JUMPDEST DUP1 SWAP4 POP DUP2 SWAP5 POP POP POP DUP3 DUP8 EQ DUP1 ISZERO PUSH2 0x15FB JUMPI POP DUP2 DUP7 EQ JUMPDEST ISZERO PUSH2 0x1623 JUMPI PUSH0 DUP2 PUSH2 0x160C JUMPI PUSH0 PUSH2 0x160F JUMP JUMPDEST PUSH1 0x2 JUMPDEST PUSH1 0xFF AND PUSH1 0x2 DUP12 SWAP1 SHL OR OR SWAP5 POP DUP8 SWAP4 POP PUSH2 0x169D JUMP JUMPDEST PUSH2 0x162C DUP4 PUSH2 0x1C56 JUMP JUMPDEST DUP8 EQ DUP1 ISZERO PUSH2 0x1641 JUMPI POP PUSH2 0x163E DUP3 PUSH2 0x1C56 JUMP JUMPDEST DUP7 EQ JUMPDEST ISZERO PUSH2 0x166A JUMPI PUSH1 0x1 DUP2 PUSH2 0x1653 JUMPI PUSH0 PUSH2 0x1656 JUMP JUMPDEST PUSH1 0x2 JUMPDEST PUSH1 0xFF AND PUSH1 0x2 DUP12 SWAP1 SHL OR OR SWAP5 POP DUP8 SWAP4 POP PUSH2 0x169C JUMP JUMPDEST PUSH1 0x40 MLOAD PUSH32 0x7FCDD1F400000000000000000000000000000000000000000000000000000000 DUP2 MSTORE PUSH1 0x4 ADD PUSH1 0x40 MLOAD DUP1 SWAP2 SUB SWAP1 REVERT JUMPDEST JUMPDEST POP POP POP JUMPDEST SWAP5 POP SWAP5 SWAP3 POP POP POP JUMP JUMPDEST PUSH0 PUSH0 PUSH0 DUP4 SUB PUSH2 0x16BE JUMPI PUSH0 PUSH0 SWAP2 POP SWAP2 POP PUSH2 0x17DA JUMP JUMPDEST PUSH0 PUSH1 0x1 DUP1 DUP6 AND EQ SWAP1 POP PUSH1 0x1 DUP5 SWAP1 SHR SWAP3 POP PUSH32 0x30644E72E131A029B85045B68181585D97816A916871CA8D3C208C16D87CFD47 DUP4 LT PUSH2 0x1727 JUMPI PUSH1 0x40 MLOAD PUSH32 0x7FCDD1F400000000000000000000000000000000000000000000000000000000 DUP2 MSTORE PUSH1 0x4 ADD PUSH1 0x40 MLOAD DUP1 SWAP2 SUB SWAP1 REVERT JUMPDEST PUSH2 0x17C4 PUSH32 0x30644E72E131A029B85045B68181585D97816A916871CA8D3C208C16D87CFD47 DUP1 PUSH2 0x1759 JUMPI PUSH2 0x1758 PUSH2 0x23CB JUMP JUMPDEST JUMPDEST PUSH1 0x3 PUSH32 0x30644E72E131A029B85045B68181585D97816A916871CA8D3C208C16D87CFD47 DUP1 PUSH2 0x178A JUMPI PUSH2 0x1789 PUSH2 0x23CB JUMP JUMPDEST JUMPDEST DUP7 PUSH32 0x30644E72E131A029B85045B68181585D97816A916871CA8D3C208C16D87CFD47 DUP1 PUSH2 0x17BA JUMPI PUSH2 0x17B9 PUSH2 0x23CB JUMP JUMPDEST JUMPDEST DUP9 DUP10 MULMOD MULMOD ADDMOD PUSH2 0x1BBA JUMP JUMPDEST SWAP2 POP DUP1 ISZERO PUSH2 0x17D8 JUMPI PUSH2 0x17D5 DUP3 PUSH2 0x1C56 JUMP JUMPDEST SWAP2 POP JUMPDEST POP JUMPDEST SWAP2 POP SWAP2 JUMP JUMPDEST PUSH0 PUSH0 PUSH0 PUSH0 PUSH0 DUP7 EQ DUP1 ISZERO PUSH2 0x17F1 JUMPI POP PUSH0 DUP6 EQ JUMPDEST ISZERO PUSH2 0x1807 JUMPI PUSH0 PUSH0 PUSH0 PUSH0 SWAP4 POP SWAP4 POP SWAP4 POP SWAP4 POP PUSH2 0x1BB1 JUMP JUMPDEST PUSH0 PUSH1 0x1 DUP1 DUP9 AND EQ SWAP1 POP PUSH0 PUSH1 0x2 DUP1 DUP10 AND EQ SWAP1 POP PUSH1 0x2 DUP9 SWAP1 SHR SWAP6 POP DUP7 SWAP5 POP PUSH32 0x30644E72E131A029B85045B68181585D97816A916871CA8D3C208C16D87CFD47 DUP7 LT ISZERO DUP1 PUSH2 0x1872 JUMPI POP PUSH32 0x30644E72E131A029B85045B68181585D97816A916871CA8D3C208C16D87CFD47 DUP6 LT ISZERO JUMPDEST ISZERO PUSH2 0x18A9 JUMPI PUSH1 0x40 MLOAD PUSH32 0x7FCDD1F400000000000000000000000000000000000000000000000000000000 DUP2 MSTORE PUSH1 0x4 ADD PUSH1 0x40 MLOAD DUP1 SWAP2 SUB SWAP1 REVERT JUMPDEST PUSH0 PUSH32 0x30644E72E131A029B85045B68181585D97816A916871CA8D3C208C16D87CFD47 DUP1 PUSH2 0x18D9 JUMPI PUSH2 0x18D8 PUSH2 0x23CB JUMP JUMPDEST JUMPDEST PUSH1 0x3 PUSH32 0x30644E72E131A029B85045B68181585D97816A916871CA8D3C208C16D87CFD47 PUSH2 0x1906 SWAP2 SWAP1 PUSH2 0x2425 JUMP JUMPDEST PUSH32 0x30644E72E131A029B85045B68181585D97816A916871CA8D3C208C16D87CFD47 DUP1 PUSH2 0x1935 JUMPI PUSH2 0x1934 PUSH2 0x23CB JUMP JUMPDEST JUMPDEST DUP9 DUP11 MULMOD MULMOD SWAP1 POP PUSH0 PUSH32 0x30644E72E131A029B85045B68181585D97816A916871CA8D3C208C16D87CFD47 DUP1 PUSH2 0x196B JUMPI PUSH2 0x196A PUSH2 0x23CB JUMP JUMPDEST JUMPDEST DUP9 PUSH32 0x30644E72E131A029B85045B68181585D97816A916871CA8D3C208C16D87CFD47 DUP1 PUSH2 0x199B JUMPI PUSH2 0x199A PUSH2 0x23CB JUMP JUMPDEST JUMPDEST DUP11 DUP12 MULMOD MULMOD SWAP1 POP PUSH0 PUSH32 0x30644E72E131A029B85045B68181585D97816A916871CA8D3C208C16D87CFD47 DUP1 PUSH2 0x19D1 JUMPI PUSH2 0x19D0 PUSH2 0x23CB JUMP JUMPDEST JUMPDEST DUP9 PUSH32 0x30644E72E131A029B85045B68181585D97816A916871CA8D3C208C16D87CFD47 DUP1 PUSH2 0x1A01 JUMPI PUSH2 0x1A00 PUSH2 0x23CB JUMP JUMPDEST JUMPDEST DUP11 DUP12 MULMOD MULMOD SWAP1 POP PUSH32 0x30644E72E131A029B85045B68181585D97816A916871CA8D3C208C16D87CFD47 DUP1 PUSH2 0x1A36 JUMPI PUSH2 0x1A35 PUSH2 0x23CB JUMP JUMPDEST JUMPDEST PUSH32 0x30644E72E131A029B85045B68181585D97816A916871CA8D3C208C16D87CFD47 DUP1 PUSH2 0x1A65 JUMPI PUSH2 0x1A64 PUSH2 0x23CB JUMP JUMPDEST JUMPDEST PUSH32 0x30644E72E131A029B85045B68181585D97816A916871CA8D3C208C16D87CFD47 DUP1 PUSH2 0x1A94 JUMPI PUSH2 0x1A93 PUSH2 0x23CB JUMP JUMPDEST JUMPDEST DUP11 DUP7 MULMOD DUP5 ADDMOD PUSH32 0x2B149D40CEB8AAAE81BE18991BE06AC3B5B4C5E559DBEFA33267E6DC24A138E5 ADDMOD SWAP7 POP PUSH2 0x1B79 PUSH32 0x30644E72E131A029B85045B68181585D97816A916871CA8D3C208C16D87CFD47 DUP1 PUSH2 0x1AEF JUMPI PUSH2 0x1AEE PUSH2 0x23CB JUMP JUMPDEST JUMPDEST PUSH32 0x30644E72E131A029B85045B68181585D97816A916871CA8D3C208C16D87CFD47 DUP1 PUSH2 0x1B1E JUMPI PUSH2 0x1B1D PUSH2 0x23CB JUMP JUMPDEST JUMPDEST PUSH32 0x30644E72E131A029B85045B68181585D97816A916871CA8D3C208C16D87CFD47 DUP1 PUSH2 0x1B4D JUMPI PUSH2 0x1B4C PUSH2 0x23CB JUMP JUMPDEST JUMPDEST DUP13 DUP8 MULMOD DUP5 ADDMOD PUSH32 0x2FCD3AC2A640A154EB23960892A85A68F031CA0C8344B23A577DCF1052B9E775 ADDMOD PUSH2 0x1C56 JUMP JUMPDEST SWAP6 POP PUSH2 0x1B86 DUP8 DUP8 DUP7 PUSH2 0x1D2B JUMP JUMPDEST DUP1 SWAP8 POP DUP2 SWAP9 POP POP POP DUP5 ISZERO PUSH2 0x1BAB JUMPI PUSH2 0x1B9D DUP8 PUSH2 0x1C56 JUMP JUMPDEST SWAP7 POP PUSH2 0x1BA8 DUP7 PUSH2 0x1C56 JUMP JUMPDEST SWAP6 POP JUMPDEST POP POP POP POP POP JUMPDEST SWAP3 SWAP6 SWAP2 SWAP5 POP SWAP3 POP JUMP JUMPDEST PUSH0 PUSH2 0x1BE5 DUP3 PUSH32 0xC19139CB84C680A6E14116DA060561765E05AA45A1C72A34F082305B61F3F52 PUSH2 0x2026 JUMP JUMPDEST SWAP1 POP DUP2 PUSH32 0x30644E72E131A029B85045B68181585D97816A916871CA8D3C208C16D87CFD47 DUP1 PUSH2 0x1C17 JUMPI PUSH2 0x1C16 PUSH2 0x23CB JUMP JUMPDEST JUMPDEST DUP3 DUP4 MULMOD EQ PUSH2 0x1C51 JUMPI PUSH1 0x40 MLOAD PUSH32 0x7FCDD1F400000000000000000000000000000000000000000000000000000000 DUP2 MSTORE PUSH1 0x4 ADD PUSH1 0x40 MLOAD DUP1 SWAP2 SUB SWAP1 REVERT JUMPDEST SWAP2 SWAP1 POP JUMP JUMPDEST PUSH0 PUSH32 0x30644E72E131A029B85045B68181585D97816A916871CA8D3C208C16D87CFD47 DUP1 DUP4 DUP2 PUSH2 0x1C88 JUMPI PUSH2 0x1C87 PUSH2 0x23CB JUMP JUMPDEST JUMPDEST MOD PUSH32 0x30644E72E131A029B85045B68181585D97816A916871CA8D3C208C16D87CFD47 SUB DUP2 PUSH2 0x1CB9 JUMPI PUSH2 0x1CB8 PUSH2 0x23CB JUMP JUMPDEST JUMPDEST MOD SWAP1 POP SWAP2 SWAP1 POP JUMP JUMPDEST PUSH0 PUSH0 PUSH2 0x1CED DUP4 PUSH32 0xC19139CB84C680A6E14116DA060561765E05AA45A1C72A34F082305B61F3F52 PUSH2 0x2026 JUMP JUMPDEST SWAP1 POP DUP3 PUSH32 0x30644E72E131A029B85045B68181585D97816A916871CA8D3C208C16D87CFD47 DUP1 PUSH2 0x1D1F JUMPI PUSH2 0x1D1E PUSH2 0x23CB JUMP JUMPDEST JUMPDEST DUP3 DUP4 MULMOD EQ SWAP2 POP POP SWAP2 SWAP1 POP JUMP JUMPDEST PUSH0 PUSH0 PUSH0 PUSH2 0x1DCA PUSH32 0x30644E72E131A029B85045B68181585D97816A916871CA8D3C208C16D87CFD47 DUP1 PUSH2 0x1D60 JUMPI PUSH2 0x1D5F PUSH2 0x23CB JUMP JUMPDEST JUMPDEST PUSH32 0x30644E72E131A029B85045B68181585D97816A916871CA8D3C208C16D87CFD47 DUP1 PUSH2 0x1D8F JUMPI PUSH2 0x1D8E PUSH2 0x23CB JUMP JUMPDEST JUMPDEST DUP8 DUP9 MULMOD PUSH32 0x30644E72E131A029B85045B68181585D97816A916871CA8D3C208C16D87CFD47 DUP1 PUSH2 0x1DC1 JUMPI PUSH2 0x1DC0 PUSH2 0x23CB JUMP JUMPDEST JUMPDEST DUP10 DUP11 MULMOD ADDMOD PUSH2 0x1BBA JUMP JUMPDEST SWAP1 POP DUP4 ISZERO PUSH2 0x1DDE JUMPI PUSH2 0x1DDB DUP2 PUSH2 0x1C56 JUMP JUMPDEST SWAP1 POP JUMPDEST PUSH2 0x1E69 PUSH32 0x30644E72E131A029B85045B68181585D97816A916871CA8D3C208C16D87CFD47 DUP1 PUSH2 0x1E10 JUMPI PUSH2 0x1E0F PUSH2 0x23CB JUMP JUMPDEST JUMPDEST PUSH32 0x183227397098D014DC2822DB40C0AC2ECBC0B548B438E5469E10460B6C3E7EA4 PUSH32 0x30644E72E131A029B85045B68181585D97816A916871CA8D3C208C16D87CFD47 DUP1 PUSH2 0x1E60 JUMPI PUSH2 0x1E5F PUSH2 0x23CB JUMP JUMPDEST JUMPDEST DUP5 DUP11 ADDMOD MULMOD PUSH2 0x1BBA JUMP JUMPDEST SWAP3 POP PUSH32 0x30644E72E131A029B85045B68181585D97816A916871CA8D3C208C16D87CFD47 DUP1 PUSH2 0x1E9A JUMPI PUSH2 0x1E99 PUSH2 0x23CB JUMP JUMPDEST JUMPDEST PUSH2 0x1ED5 PUSH32 0x30644E72E131A029B85045B68181585D97816A916871CA8D3C208C16D87CFD47 DUP1 PUSH2 0x1ECC JUMPI PUSH2 0x1ECB PUSH2 0x23CB JUMP JUMPDEST JUMPDEST PUSH1 0x2 DUP7 MULMOD PUSH2 0x20BD JUMP JUMPDEST DUP7 MULMOD SWAP2 POP PUSH32 0x30644E72E131A029B85045B68181585D97816A916871CA8D3C208C16D87CFD47 DUP1 PUSH2 0x1F08 JUMPI PUSH2 0x1F07 PUSH2 0x23CB JUMP JUMPDEST JUMPDEST PUSH2 0x1F42 PUSH32 0x30644E72E131A029B85045B68181585D97816A916871CA8D3C208C16D87CFD47 DUP1 PUSH2 0x1F3A JUMPI PUSH2 0x1F39 PUSH2 0x23CB JUMP JUMPDEST JUMPDEST DUP5 DUP6 MULMOD PUSH2 0x1C56 JUMP JUMPDEST PUSH32 0x30644E72E131A029B85045B68181585D97816A916871CA8D3C208C16D87CFD47 DUP1 PUSH2 0x1F71 JUMPI PUSH2 0x1F70 PUSH2 0x23CB JUMP JUMPDEST JUMPDEST DUP6 DUP7 MULMOD ADDMOD DUP7 EQ ISZERO DUP1 PUSH2 0x1FE6 JUMPI POP PUSH32 0x30644E72E131A029B85045B68181585D97816A916871CA8D3C208C16D87CFD47 DUP1 PUSH2 0x1FAD JUMPI PUSH2 0x1FAC PUSH2 0x23CB JUMP JUMPDEST JUMPDEST PUSH32 0x30644E72E131A029B85045B68181585D97816A916871CA8D3C208C16D87CFD47 DUP1 PUSH2 0x1FDC JUMPI PUSH2 0x1FDB PUSH2 0x23CB JUMP JUMPDEST JUMPDEST DUP4 DUP6 MULMOD PUSH1 0x2 MULMOD DUP6 EQ ISZERO JUMPDEST ISZERO PUSH2 0x201D JUMPI PUSH1 0x40 MLOAD PUSH32 0x7FCDD1F400000000000000000000000000000000000000000000000000000000 DUP2 MSTORE PUSH1 0x4 ADD PUSH1 0x40 MLOAD DUP1 SWAP2 SUB SWAP1 REVERT JUMPDEST POP SWAP4 POP SWAP4 SWAP2 POP POP JUMP JUMPDEST PUSH0 PUSH0 PUSH1 0x40 MLOAD PUSH1 0x20 DUP2 MSTORE PUSH1 0x20 DUP1 DUP3 ADD MSTORE PUSH1 0x20 PUSH1 0x40 DUP3 ADD MSTORE DUP5 PUSH1 0x60 DUP3 ADD MSTORE DUP4 PUSH1 0x80 DUP3 ADD MSTORE PUSH32 0x30644E72E131A029B85045B68181585D97816A916871CA8D3C208C16D87CFD47 PUSH1 0xA0 DUP3 ADD MSTORE PUSH1 0x20 DUP2 PUSH1 0xC0 DUP4 PUSH1 0x5 GAS STATICCALL SWAP2 POP DUP1 MLOAD SWAP3 POP POP DUP1 PUSH2 0x20B6 JUMPI PUSH1 0x40 MLOAD PUSH32 0x7FCDD1F400000000000000000000000000000000000000000000000000000000 DUP2 MSTORE PUSH1 0x4 ADD PUSH1 0x40 MLOAD DUP1 SWAP2 SUB SWAP1 REVERT JUMPDEST POP SWAP3 SWAP2 POP POP JUMP JUMPDEST PUSH0 PUSH2 0x20E8 DUP3 PUSH32 0x30644E72E131A029B85045B68181585D97816A916871CA8D3C208C16D87CFD45 PUSH2 0x2026 JUMP JUMPDEST SWAP1 POP PUSH1 0x1 PUSH32 0x30644E72E131A029B85045B68181585D97816A916871CA8D3C208C16D87CFD47 DUP1 PUSH2 0x211B JUMPI PUSH2 0x211A PUSH2 0x23CB JUMP JUMPDEST JUMPDEST DUP3 DUP5 MULMOD EQ PUSH2 0x2155 JUMPI PUSH1 0x40 MLOAD PUSH32 0x7FCDD1F400000000000000000000000000000000000000000000000000000000 DUP2 MSTORE PUSH1 0x4 ADD PUSH1 0x40 MLOAD DUP1 SWAP2 SUB SWAP1 REVERT JUMPDEST SWAP2 SWAP1 POP JUMP JUMPDEST PUSH1 0x40 MLOAD DUP1 PUSH1 0x80 ADD PUSH1 0x40 MSTORE DUP1 PUSH1 0x4 SWAP1 PUSH1 0x20 DUP3 MUL DUP1 CALLDATASIZE DUP4 CALLDATACOPY DUP1 DUP3 ADD SWAP2 POP POP SWAP1 POP POP SWAP1 JUMP JUMPDEST PUSH1 0x40 MLOAD DUP1 PUSH2 0x300 ADD PUSH1 0x40 MSTORE DUP1 PUSH1 0x18 SWAP1 PUSH1 0x20 DUP3 MUL DUP1 CALLDATASIZE DUP4 CALLDATACOPY DUP1 DUP3 ADD SWAP2 POP POP SWAP1 POP POP SWAP1 JUMP JUMPDEST PUSH1 0x40 MLOAD DUP1 PUSH1 0x20 ADD PUSH1 0x40 MSTORE DUP1 PUSH1 0x1 SWAP1 PUSH1 0x20 DUP3 MUL DUP1 CALLDATASIZE DUP4 CALLDATACOPY DUP1 DUP3 ADD SWAP2 POP POP SWAP1 POP POP SWAP1 JUMP JUMPDEST PUSH0 PUSH0 REVERT JUMPDEST PUSH0 PUSH0 REVERT JUMPDEST PUSH0 DUP2 SWAP1 POP DUP3 PUSH1 0x20 PUSH1 0x8 MUL DUP3 ADD GT ISZERO PUSH2 0x21E4 JUMPI PUSH2 0x21E3 PUSH2 0x21C5 JUMP JUMPDEST JUMPDEST SWAP3 SWAP2 POP POP JUMP JUMPDEST PUSH0 DUP2 SWAP1 POP DUP3 PUSH1 0x20 PUSH1 0x7 MUL DUP3 ADD GT ISZERO PUSH2 0x2205 JUMPI PUSH2 0x2204 PUSH2 0x21C5 JUMP JUMPDEST JUMPDEST SWAP3 SWAP2 POP POP JUMP JUMPDEST PUSH0 PUSH0 PUSH2 0x1E0 DUP4 DUP6 SUB SLT ISZERO PUSH2 0x2222 JUMPI PUSH2 0x2221 PUSH2 0x21C1 JUMP JUMPDEST JUMPDEST PUSH0 PUSH2 0x222F DUP6 DUP3 DUP7 ADD PUSH2 0x21C9 JUMP JUMPDEST SWAP3 POP POP PUSH2 0x100 PUSH2 0x2241 DUP6 DUP3 DUP7 ADD PUSH2 0x21EA JUMP JUMPDEST SWAP2 POP POP SWAP3 POP SWAP3 SWAP1 POP JUMP JUMPDEST PUSH0 PUSH2 0x100 DUP3 DUP5 SUB SLT ISZERO PUSH2 0x2261 JUMPI PUSH2 0x2260 PUSH2 0x21C1 JUMP JUMPDEST JUMPDEST PUSH0 PUSH2 0x226E DUP5 DUP3 DUP6 ADD PUSH2 0x21C9 JUMP JUMPDEST SWAP2 POP POP SWAP3 SWAP2 POP POP JUMP JUMPDEST PUSH0 PUSH1 0x4 SWAP1 POP SWAP2 SWAP1 POP JUMP JUMPDEST PUSH0 DUP2 SWAP1 POP SWAP3 SWAP2 POP POP JUMP JUMPDEST PUSH0 DUP2 SWAP1 POP SWAP2 SWAP1 POP JUMP JUMPDEST PUSH0 DUP2 SWAP1 POP SWAP2 SWAP1 POP JUMP JUMPDEST PUSH2 0x22A6 DUP2 PUSH2 0x2294 JUMP JUMPDEST DUP3 MSTORE POP POP JUMP JUMPDEST PUSH0 PUSH2 0x22B7 DUP4 DUP4 PUSH2 0x229D JUMP JUMPDEST PUSH1 0x20 DUP4 ADD SWAP1 POP SWAP3 SWAP2 POP POP JUMP JUMPDEST PUSH0 PUSH1 0x20 DUP3 ADD SWAP1 POP SWAP2 SWAP1 POP JUMP JUMPDEST PUSH2 0x22D8 DUP2 PUSH2 0x2277 JUMP JUMPDEST PUSH2 0x22E2 DUP2 DUP5 PUSH2 0x2281 JUMP JUMPDEST SWAP3 POP PUSH2 0x22ED DUP3 PUSH2 0x228B JUMP JUMPDEST DUP1 PUSH0 JUMPDEST DUP4 DUP2 LT ISZERO PUSH2 0x231D JUMPI DUP2 MLOAD PUSH2 0x2304 DUP8 DUP3 PUSH2 0x22AC JUMP JUMPDEST SWAP7 POP PUSH2 0x230F DUP4 PUSH2 0x22C3 JUMP JUMPDEST SWAP3 POP POP PUSH1 0x1 DUP2 ADD SWAP1 POP PUSH2 0x22F0 JUMP JUMPDEST POP POP POP POP POP POP JUMP JUMPDEST PUSH0 PUSH1 0x80 DUP3 ADD SWAP1 POP PUSH2 0x2338 PUSH0 DUP4 ADD DUP5 PUSH2 0x22CF JUMP JUMPDEST SWAP3 SWAP2 POP POP JUMP JUMPDEST PUSH0 DUP2 SWAP1 POP DUP3 PUSH1 0x20 PUSH1 0x4 MUL DUP3 ADD GT ISZERO PUSH2 0x2359 JUMPI PUSH2 0x2358 PUSH2 0x21C5 JUMP JUMPDEST JUMPDEST SWAP3 SWAP2 POP POP JUMP JUMPDEST PUSH0 PUSH0 PUSH2 0x160 DUP4 DUP6 SUB SLT ISZERO PUSH2 0x2376 JUMPI PUSH2 0x2375 PUSH2 0x21C1 JUMP JUMPDEST JUMPDEST PUSH0 PUSH2 0x2383 DUP6 DUP3 DUP7 ADD PUSH2 0x233E JUMP JUMPDEST SWAP3 POP POP PUSH1 0x80 PUSH2 0x2394 DUP6 DUP3 DUP7 ADD PUSH2 0x21EA JUMP JUMPDEST SWAP2 POP POP SWAP3 POP SWAP3 SWAP1 POP JUMP JUMPDEST PUSH32 0x4E487B7100000000000000000000000000000000000000000000000000000000 PUSH0 MSTORE PUSH1 0x32 PUSH1 0x4 MSTORE PUSH1 0x24 PUSH0 REVERT JUMPDEST PUSH32 0x4E487B7100000000000000000000000000000000000000000000000000000000 PUSH0 MSTORE PUSH1 0x12 PUSH1 0x4 MSTORE PUSH1 0x24 PUSH0 REVERT JUMPDEST PUSH32 0x4E487B7100000000000000000000000000000000000000000000000000000000 PUSH0 MSTORE PUSH1 0x11 PUSH1 0x4 MSTORE PUSH1 0x24 PUSH0 REVERT JUMPDEST PUSH0 PUSH2 0x242F DUP3 PUSH2 0x2294 JUMP JUMPDEST SWAP2 POP PUSH2 0x243A DUP4 PUSH2 0x2294 JUMP JUMPDEST SWAP3 POP DUP3 DUP3 SUB SWAP1 POP DUP2 DUP2 GT ISZERO PUSH2 0x2452 JUMPI PUSH2 0x2451 PUSH2 0x23F8 JUMP JUMPDEST JUMPDEST SWAP3 SWAP2 POP POP JUMP INVALID LOG2 PUSH5 0x6970667358 0x22 SLT KECCAK256 0xCB SUB 0x2B 0xB5 MCOPY DUP7 0xD8 JUMPDEST 0x21 DUP6 0xD4 0xAE RETURNCONTRACT 0xBB DUP14 SELFBALANCE DUP16 DIV 0xC3 0x29 DUP4 0xD9 LOG4 SWAP14 0xDA CALLVALUE PUSH14 0x3387288C7764736F6C634300081F STOP CALLER "
		},
		"gasEstimates": {
			"creation": {
				"codeDepositCost": "1871600",
				"executionCost": "1974",
				"totalCost": "1873574"
			},
			"external": {
				"compressProof(uint256[8])": "infinite",
				"verifyCompressedProof(uint256[4],uint256[7])": "infinite",
				"verifyProof(uint256[8],uint256[7])": "infinite"
			},
			"internal": {
				"compress_g1(uint256,uint256)": "infinite",
				"compress_g2(uint256,uint256,uint256,uint256)": "infinite",
				"decompress_g1(uint256)": "infinite",
				"decompress_g2(uint256,uint256)": "infinite",
				"exp(uint256,uint256)": "infinite",
				"invert_Fp(uint256)": "infinite",
				"isSquare_Fp(uint256)": "infinite",
				"negate(uint256)": "83",
				"publicInputMSM(uint256[7] calldata)": "infinite",
				"sqrt_Fp(uint256)": "infinite",
				"sqrt_Fp2(uint256,uint256,bool)": "infinite"
			}
		},
		"methodIdentifiers": {
			"compressProof(uint256[8])": "44f63692",
			"verifyCompressedProof(uint256[4],uint256[7])": "f6d3293a",
			"verifyProof(uint256[8],uint256[7])": "1042664e"
		}
	},
	"abi": [
		{
			"inputs": [],
			"name": "ProofInvalid",
			"type": "error"
		},
		{
			"inputs": [],
			"name": "PublicInputNotInField",
			"type": "error"
		},
		{
			"inputs": [
				{
					"internalType": "uint256[8]",
					"name": "proof",
					"type": "uint256[8]"
				}
			],
			"name": "compressProof",
			"outputs": [
				{
					"internalType": "uint256[4]",
					"name": "compressed",
					"type": "uint256[4]"
				}
			],
			"stateMutability": "view",
			"type": "function"
		},
		{
			"inputs": [
				{
					"internalType": "uint256[4]",
					"name": "compressedProof",
					"type": "uint256[4]"
				},
				{
					"internalType": "uint256[7]",
					"name": "input",
					"type": "uint256[7]"
				}
			],
			"name": "verifyCompressedProof",
			"outputs": [],
			"stateMutability": "view",
			"type": "function"
		},
		{
			"inputs": [
				{
					"internalType": "uint256[8]",
					"name": "proof",
					"type": "uint256[8]"
				},
				{
					"internalType": "uint256[7]",
					"name": "input",
					"type": "uint256[7]"
				}
			],
			"name": "verifyProof",
			"outputs": [],
			"stateMutability": "view",
			"type": "function"
		}
	]
}